{
  "address": "0x7858386Ce7eA4Cc98963c31d22aec6c125248773",
  "abi": [
    {
      "inputs": [
        {
          "internalType": "address",
          "name": "landAddress",
          "type": "address"
        },
        {
          "internalType": "address",
          "name": "sandContractAddress",
          "type": "address"
        },
        {
          "internalType": "address",
          "name": "initialMetaTx",
          "type": "address"
        },
        {
          "internalType": "address",
          "name": "admin",
          "type": "address"
        },
        {
          "internalType": "address payable",
          "name": "initialWalletAddress",
          "type": "address"
        },
        {
          "internalType": "bytes32",
          "name": "merkleRoot",
          "type": "bytes32"
        },
        {
          "internalType": "uint256",
          "name": "expiryTime",
          "type": "uint256"
        },
        {
          "internalType": "address",
          "name": "initialSigningWallet",
          "type": "address"
        },
        {
          "internalType": "uint256",
          "name": "initialMaxCommissionRate",
          "type": "uint256"
        },
        {
          "internalType": "address",
          "name": "estate",
          "type": "address"
        },
        {
          "internalType": "address",
          "name": "asset",
          "type": "address"
        },
        {
          "internalType": "address",
          "name": "feeDistributor",
          "type": "address"
        },
        {
          "internalType": "address",
          "name": "authValidator",
          "type": "address"
        }
      ],
      "stateMutability": "nonpayable",
      "type": "constructor"
    },
    {
      "anonymous": false,
      "inputs": [
        {
          "indexed": false,
          "internalType": "address",
          "name": "oldAdmin",
          "type": "address"
        },
        {
          "indexed": false,
          "internalType": "address",
          "name": "newAdmin",
          "type": "address"
        }
      ],
      "name": "AdminChanged",
      "type": "event"
    },
    {
      "anonymous": false,
      "inputs": [
        {
          "indexed": true,
          "internalType": "address",
          "name": "buyer",
          "type": "address"
        },
        {
          "indexed": true,
          "internalType": "address",
          "name": "to",
          "type": "address"
        },
        {
          "indexed": true,
          "internalType": "uint256",
          "name": "topCornerId",
          "type": "uint256"
        },
        {
          "indexed": false,
          "internalType": "uint256",
          "name": "size",
          "type": "uint256"
        },
        {
          "indexed": false,
          "internalType": "uint256",
          "name": "price",
          "type": "uint256"
        },
        {
          "indexed": false,
          "internalType": "address",
          "name": "token",
          "type": "address"
        },
        {
          "indexed": false,
          "internalType": "uint256",
          "name": "amountPaid",
          "type": "uint256"
        }
      ],
      "name": "LandQuadPurchased",
      "type": "event"
    },
    {
      "anonymous": false,
      "inputs": [
        {
          "indexed": false,
          "internalType": "address",
          "name": "metaTransactionProcessor",
          "type": "address"
        },
        {
          "indexed": false,
          "internalType": "bool",
          "name": "enabled",
          "type": "bool"
        }
      ],
      "name": "MetaTransactionProcessor",
      "type": "event"
    },
    {
      "anonymous": false,
      "inputs": [
        {
          "indexed": true,
          "internalType": "address",
          "name": "referrer",
          "type": "address"
        },
        {
          "indexed": true,
          "internalType": "address",
          "name": "referee",
          "type": "address"
        },
        {
          "indexed": true,
          "internalType": "address",
          "name": "token",
          "type": "address"
        },
        {
          "indexed": false,
          "internalType": "uint256",
          "name": "amount",
          "type": "uint256"
        },
        {
          "indexed": false,
          "internalType": "uint256",
          "name": "commission",
          "type": "uint256"
        },
        {
          "indexed": false,
          "internalType": "uint256",
          "name": "commissionRate",
          "type": "uint256"
        }
      ],
      "name": "ReferralUsed",
      "type": "event"
    },
    {
      "inputs": [
        {
          "internalType": "address",
          "name": "buyer",
          "type": "address"
        },
        {
          "internalType": "address",
          "name": "to",
          "type": "address"
        },
        {
          "internalType": "address",
          "name": "reserved",
          "type": "address"
        },
        {
          "internalType": "uint256[]",
          "name": "info",
          "type": "uint256[]"
        },
        {
          "internalType": "bytes32",
          "name": "salt",
          "type": "bytes32"
        },
        {
          "internalType": "uint256[]",
          "name": "assetIds",
          "type": "uint256[]"
        },
        {
          "internalType": "bytes32[]",
          "name": "proof",
          "type": "bytes32[]"
        },
        {
          "internalType": "bytes",
          "name": "referral",
          "type": "bytes"
        },
        {
          "internalType": "bytes",
          "name": "signature",
          "type": "bytes"
        }
      ],
      "name": "buyLandWithSand",
      "outputs": [],
      "stateMutability": "nonpayable",
      "type": "function"
    },
    {
      "inputs": [
        {
          "internalType": "address",
          "name": "newAdmin",
          "type": "address"
        }
      ],
      "name": "changeAdmin",
      "outputs": [],
      "stateMutability": "nonpayable",
      "type": "function"
    },
    {
      "inputs": [
        {
          "internalType": "bytes",
          "name": "referral",
          "type": "bytes"
        }
      ],
      "name": "decodeReferral",
      "outputs": [
        {
          "internalType": "bytes",
          "name": "",
          "type": "bytes"
        },
        {
          "internalType": "address",
          "name": "",
          "type": "address"
        },
        {
          "internalType": "address",
          "name": "",
          "type": "address"
        },
        {
          "internalType": "uint256",
          "name": "",
          "type": "uint256"
        },
        {
          "internalType": "uint256",
          "name": "",
          "type": "uint256"
        }
      ],
      "stateMutability": "pure",
      "type": "function"
    },
    {
      "inputs": [],
      "name": "getAdmin",
      "outputs": [
        {
          "internalType": "address",
          "name": "",
          "type": "address"
        }
      ],
      "stateMutability": "view",
      "type": "function"
    },
    {
      "inputs": [],
      "name": "getExpiryTime",
      "outputs": [
        {
          "internalType": "uint256",
          "name": "",
          "type": "uint256"
        }
      ],
      "stateMutability": "view",
      "type": "function"
    },
    {
      "inputs": [],
      "name": "getMaxCommisionRate",
      "outputs": [
        {
          "internalType": "uint256",
          "name": "",
          "type": "uint256"
        }
      ],
      "stateMutability": "view",
      "type": "function"
    },
    {
      "inputs": [],
      "name": "getMerkleRoot",
      "outputs": [
        {
          "internalType": "bytes32",
          "name": "",
          "type": "bytes32"
        }
      ],
      "stateMutability": "view",
      "type": "function"
    },
    {
      "inputs": [],
      "name": "getSigningWallet",
      "outputs": [
        {
          "internalType": "address",
          "name": "",
          "type": "address"
        }
      ],
      "stateMutability": "view",
      "type": "function"
    },
    {
      "inputs": [
        {
          "internalType": "address",
          "name": "who",
          "type": "address"
        }
      ],
      "name": "isMetaTransactionProcessor",
      "outputs": [
        {
          "internalType": "bool",
          "name": "",
          "type": "bool"
        }
      ],
      "stateMutability": "view",
      "type": "function"
    },
    {
      "inputs": [
        {
          "internalType": "bytes",
          "name": "signature",
          "type": "bytes"
        },
        {
          "internalType": "address",
          "name": "referrer",
          "type": "address"
        },
        {
          "internalType": "address",
          "name": "referee",
          "type": "address"
        },
        {
          "internalType": "uint256",
          "name": "expiryTime",
          "type": "uint256"
        },
        {
          "internalType": "uint256",
          "name": "commissionRate",
          "type": "uint256"
        }
      ],
      "name": "isReferralValid",
      "outputs": [
        {
          "internalType": "bool",
          "name": "",
          "type": "bool"
        }
      ],
      "stateMutability": "view",
      "type": "function"
    },
    {
      "inputs": [
        {
          "internalType": "address",
          "name": "",
          "type": "address"
        },
        {
          "internalType": "address",
          "name": "",
          "type": "address"
        },
        {
          "internalType": "uint256[]",
          "name": "",
          "type": "uint256[]"
        },
        {
          "internalType": "uint256[]",
          "name": "",
          "type": "uint256[]"
        },
        {
          "internalType": "bytes",
          "name": "",
          "type": "bytes"
        }
      ],
      "name": "onERC1155BatchReceived",
      "outputs": [
        {
          "internalType": "bytes4",
          "name": "",
          "type": "bytes4"
        }
      ],
      "stateMutability": "pure",
      "type": "function"
    },
    {
      "inputs": [
        {
          "internalType": "address",
          "name": "",
          "type": "address"
        },
        {
          "internalType": "address",
          "name": "",
          "type": "address"
        },
        {
          "internalType": "uint256",
          "name": "",
          "type": "uint256"
        },
        {
          "internalType": "uint256",
          "name": "",
          "type": "uint256"
        },
        {
          "internalType": "bytes",
          "name": "",
          "type": "bytes"
        }
      ],
      "name": "onERC1155Received",
      "outputs": [
        {
          "internalType": "bytes4",
          "name": "",
          "type": "bytes4"
        }
      ],
      "stateMutability": "pure",
      "type": "function"
    },
    {
      "inputs": [
        {
          "internalType": "address",
          "name": "metaTransactionProcessor",
          "type": "address"
        },
        {
          "internalType": "bool",
          "name": "enabled",
          "type": "bool"
        }
      ],
      "name": "setMetaTransactionProcessor",
      "outputs": [],
      "stateMutability": "nonpayable",
      "type": "function"
    },
    {
      "inputs": [
        {
          "internalType": "address payable",
          "name": "newWallet",
          "type": "address"
        }
      ],
      "name": "setReceivingWallet",
      "outputs": [],
      "stateMutability": "nonpayable",
      "type": "function"
    },
    {
      "inputs": [
        {
          "internalType": "uint256",
          "name": "newMaxCommissionRate",
          "type": "uint256"
        }
      ],
      "name": "updateMaxCommissionRate",
      "outputs": [],
      "stateMutability": "nonpayable",
      "type": "function"
    },
    {
      "inputs": [
        {
          "internalType": "address",
          "name": "newSigningWallet",
          "type": "address"
        }
      ],
      "name": "updateSigningWallet",
      "outputs": [],
      "stateMutability": "nonpayable",
      "type": "function"
    },
    {
      "inputs": [
        {
          "internalType": "address",
          "name": "to",
          "type": "address"
        },
        {
          "internalType": "uint256[]",
          "name": "assetIds",
          "type": "uint256[]"
        },
        {
          "internalType": "uint256[]",
          "name": "values",
          "type": "uint256[]"
        }
      ],
      "name": "withdrawAssets",
      "outputs": [],
      "stateMutability": "nonpayable",
      "type": "function"
    }
  ],
  "transactionHash": "0xa43427e3a16d31de3658f9d9acd80b1271349d084f32633538c4dd90bd9f4f4c",
  "args": [
    "0x2FA5E1c6a9a95d6d59045209a3588FF26adBad87",
    "0xCc933a862fc15379E441F2A16Cb943D385a4695f",
    "0xCc933a862fc15379E441F2A16Cb943D385a4695f",
    "0xa4519D601F43D0b8f167842a367465681F652252",
    "0x60927eB036621b801491B6c5e9A60A8d2dEeD75A",
    "0x641e904cdbabb6c5e8eb1466cc180a1c5eaf41d43901bcef5bf1dfeaf6a4c6c1",
    1676638800,
    "0xB7060D3FeCAC3AE1F0A0AA416E3e8E472257950e",
    2000,
    "0x0000000000000000000000000000000000000000",
    "0x8055a2c0f7EB177BeaB357B70E6504402d2b5fF6",
    "0x5983532A5b9009E05428595b87F19e42068a232B",
    "0x94cA164E3d7B13700eC356a1540f7Ae7c239A2b3"
  ],
  "linkedData": [
    {
      "x": 75,
      "y": 0,
      "size": 1,
      "price": "1011000000000000000000",
      "reserved": "",
      "salt": "0x340c8bf629c9f8eedc8053215337d34a4ff9ecf9e9b75b2c86df5575aaa3d390",
      "assetIds": []
    },
    {
      "x": 75,
      "y": 1,
      "size": 1,
      "price": "1011000000000000000000",
      "reserved": "",
      "salt": "0x6911c98c2756aa68a38837087e6174f38c11d526624197debb290e57dd23a04e",
      "assetIds": []
    },
    {
      "x": 76,
      "y": 0,
      "size": 1,
      "price": "1011000000000000000000",
      "reserved": "",
      "salt": "0x21a070e3e08a946daa2c3b8e493e15b7fcf8049fc91ae64d941a5dfcb93b30d0",
      "assetIds": []
    },
    {
      "x": 76,
      "y": 1,
      "size": 1,
      "price": "1011000000000000000000",
      "reserved": "",
      "salt": "0x75b727fa632cdfcdb952c17d9b7a89a9614053a1603534091b4405373b4d59d5",
      "assetIds": []
    },
    {
      "x": 77,
      "y": 0,
      "size": 1,
      "price": "1011000000000000000000",
      "reserved": "",
      "salt": "0x4eda4ad51b3014fdff166638076819c780df120b82be3d6274956381de5d296d",
      "assetIds": []
    },
    {
      "x": 77,
      "y": 1,
      "size": 1,
      "price": "1011000000000000000000",
      "reserved": "",
      "salt": "0xddb1f8fceb881f5a0210a299d6e4c5fb8da3c77e45dc0c95c7d66f8140be1022",
      "assetIds": []
    },
    {
      "x": 78,
      "y": 6,
      "size": 1,
      "price": "1011000000000000000000",
      "reserved": "",
      "salt": "0x1e230f5f8a4ba1ba94e10a51a8406cd29988cf6bc2cb6bbbf5148952790fd657",
      "assetIds": []
    },
    {
      "x": 78,
      "y": 7,
      "size": 1,
      "price": "1011000000000000000000",
      "reserved": "",
      "salt": "0xa7479f58fa16be740f449b43f084070a55ba52469e9b0c30392e248211d39cf2",
      "assetIds": []
    },
    {
      "x": 78,
      "y": 8,
      "size": 1,
      "price": "1011000000000000000000",
      "reserved": "",
      "salt": "0xb2f29088ea7597d27463a723f357bd88d577124d4efc348749551495bbdbca73",
      "assetIds": []
    },
    {
      "x": 78,
      "y": 9,
      "size": 1,
      "price": "1011000000000000000000",
      "reserved": "",
      "salt": "0xe3d86dfd25d113502114b919b2c30b00835c10c2da956f68e79d87058a052046",
      "assetIds": []
    },
    {
      "x": 78,
      "y": 10,
      "size": 1,
      "price": "1011000000000000000000",
      "reserved": "",
      "salt": "0x060d8201994ee6540bb0d2f28feb532aa4bc1154a90d7e8c9e15c1fbc07d4df3",
      "assetIds": []
    },
    {
      "x": 78,
      "y": 11,
      "size": 1,
      "price": "4683000000000000000000",
      "reserved": "",
      "salt": "0xd14b7f8c27b4a44dfd12b18fe3fdb4166d646fd544fd098523651b5e3a91d497",
      "assetIds": [
        "41506478881403507969696680653240014914910929820314476107906210059990541021185"
      ]
    },
    {
      "x": 79,
      "y": 6,
      "size": 1,
      "price": "1011000000000000000000",
      "reserved": "",
      "salt": "0x2478aeb8a31576f669a84f1fca3f1cdfa13b291fc40f19ffa42c21e8bae9a837",
      "assetIds": []
    },
    {
      "x": 79,
      "y": 7,
      "size": 1,
      "price": "1011000000000000000000",
      "reserved": "",
      "salt": "0x71b99394b81b6c5e21d4411e7ba1494ca35724ba4f7121700ae28810a77d3303",
      "assetIds": []
    },
    {
      "x": 79,
      "y": 8,
      "size": 1,
      "price": "1011000000000000000000",
      "reserved": "",
      "salt": "0xe4f7e67b2bf591eff910ba75a0f1cbe09daa890659d7bff5931c865cff001750",
      "assetIds": []
    },
    {
      "x": 79,
      "y": 9,
      "size": 1,
      "price": "1011000000000000000000",
      "reserved": "",
      "salt": "0xab7123089c60b0bb2425131a904c640461436a13fc0fb818d272e431b8a78024",
      "assetIds": []
    },
    {
      "x": 79,
      "y": 10,
      "size": 1,
      "price": "1011000000000000000000",
      "reserved": "",
      "salt": "0xc3117268d64edf902f2016f6b95a416e0b866d2047923545c8a17b4b01de5584",
      "assetIds": []
    },
    {
      "x": 79,
      "y": 11,
      "size": 1,
      "price": "4683000000000000000000",
      "reserved": "",
      "salt": "0xd488b8c8e514c7669d275116438851965e1a0e8dcdbdd905b3de644566823472",
      "assetIds": [
        "41506478881403507969696680653240014914910929820314476107906210059990541021185"
      ]
    },
    {
      "x": 79,
      "y": 18,
      "size": 1,
      "price": "4683000000000000000000",
      "reserved": "",
      "salt": "0x3e1f6db8bb9137e737c6ecf45df19fdd76fb387e26e65ac12bfce6799a4d5af5",
      "assetIds": [
        "41506478881403507969696680653240014914910929820314476107906210059990541021185"
      ]
    },
    {
      "x": 79,
      "y": 19,
      "size": 1,
      "price": "1011000000000000000000",
      "reserved": "",
      "salt": "0x8d2c6ee5119603824d523bbfc05b1c601ed27fd0c022049ce565cff908fb774b",
      "assetIds": []
    },
    {
      "x": 79,
      "y": 20,
      "size": 1,
      "price": "1011000000000000000000",
      "reserved": "",
      "salt": "0xe477460f68fe845fd42878865d98a1fa6f20c8bdb841559a09e3d765e4b0d33b",
      "assetIds": []
    },
    {
      "x": 80,
      "y": 6,
      "size": 1,
      "price": "1011000000000000000000",
      "reserved": "",
      "salt": "0x742fd93389868e49369f44fb0783bb73f8b8a23bb5189743e1e8a2ecd003647e",
      "assetIds": []
    },
    {
      "x": 80,
      "y": 7,
      "size": 1,
      "price": "1011000000000000000000",
      "reserved": "",
      "salt": "0x2f3c1f3195c3d73d9a86fc2ecef6aba5a9c7df8a2f15ce5e2af259344949f39d",
      "assetIds": []
    },
    {
      "x": 80,
      "y": 8,
      "size": 1,
      "price": "1011000000000000000000",
      "reserved": "",
      "salt": "0xbbbb0459a43a2f429f96e52ad47c05852c0fc88a4857014ed998d110bbfbdecd",
      "assetIds": []
    },
    {
      "x": 80,
      "y": 9,
      "size": 1,
      "price": "1011000000000000000000",
      "reserved": "",
      "salt": "0x4a49e5c1c71d1932b469bb32c1aae6b5bbc02903c0ee4ca8cea615032368ed4b",
      "assetIds": []
    },
    {
      "x": 80,
      "y": 10,
      "size": 1,
      "price": "1011000000000000000000",
      "reserved": "",
      "salt": "0x5049ed8f829fb4a8ee41de08c0fdb8e2f315cfc6e105a97fb80c7f6200e175fa",
      "assetIds": []
    },
    {
      "x": 80,
      "y": 11,
      "size": 1,
      "price": "4683000000000000000000",
      "reserved": "",
      "salt": "0x6f2d7b7d7dfe4ace1262e4ba23c6afefbf23575492d87d478eb25c32093dfff9",
      "assetIds": [
        "41506478881403507969696680653240014914910929820314476107906210059990541021186"
      ]
    },
    {
      "x": 80,
      "y": 18,
      "size": 1,
      "price": "4683000000000000000000",
      "reserved": "",
      "salt": "0x76beeee2632bef8d9c7e6701e13a8007c72609f2ad5bbc48105e46e45035da62",
      "assetIds": [
        "41506478881403507969696680653240014914910929820314476107906210059990541021185"
      ]
    },
    {
      "x": 80,
      "y": 19,
      "size": 1,
      "price": "1011000000000000000000",
      "reserved": "",
      "salt": "0xdbdeed4dbfd47c24cbff74d73bfa0bc741821de0582a9242248eea0cd31cc6bc",
      "assetIds": []
    },
    {
      "x": 80,
      "y": 20,
      "size": 1,
      "price": "1011000000000000000000",
      "reserved": "",
      "salt": "0x1ef8257690b943d0d48a2c83815b726bfb771f597a3dae2a36344a268c7107b1",
      "assetIds": []
    },
    {
      "x": 81,
      "y": 6,
      "size": 1,
      "price": "1011000000000000000000",
      "reserved": "",
      "salt": "0x6bd323bb422457a4e7bd86e8ff11266ddb70ea180ead2a2b24d304c3da9a3421",
      "assetIds": []
    },
    {
      "x": 81,
      "y": 7,
      "size": 1,
      "price": "1011000000000000000000",
      "reserved": "",
      "salt": "0x2e9694988817b3b73146e153c00c04905728f3e1aff7ef2a39f86c85d9eb9709",
      "assetIds": []
    },
    {
      "x": 81,
      "y": 8,
      "size": 1,
      "price": "1011000000000000000000",
      "reserved": "",
      "salt": "0x782ad48aafb0f3db528a0a22962dd965b3ec0ae5b8ad7f4c371f1a8565cc1f6d",
      "assetIds": []
    },
    {
      "x": 81,
      "y": 9,
      "size": 1,
      "price": "1011000000000000000000",
      "reserved": "",
      "salt": "0xbc0a5430828bb3cd3ae3343b104c45f3e30c6da7a53dcfc1cf2de1e2b4321932",
      "assetIds": []
    },
    {
      "x": 81,
      "y": 10,
      "size": 1,
      "price": "1011000000000000000000",
      "reserved": "",
      "salt": "0x5de85ffd50d0447dea390cca145272070c1a65a0f7187ca10041220678224319",
      "assetIds": []
    },
    {
      "x": 81,
      "y": 11,
      "size": 1,
      "price": "4683000000000000000000",
      "reserved": "",
      "salt": "0x10d558d57edac297a1c9baf6359c8f55a7eb430e6bd98e3644fd93f715f5b9a2",
      "assetIds": [
        "41506478881403507969696680653240014914910929820314476107906210059990541021186"
      ]
    },
    {
      "x": 81,
      "y": 18,
      "size": 1,
      "price": "4683000000000000000000",
      "reserved": "",
      "salt": "0x06b8ffc504c7d17e0ca6e2b646513f8c4e075553522ab5b83664632f8a508205",
      "assetIds": [
        "41506478881403507969696680653240014914910929820314476107906210059990541021186"
      ]
    },
    {
      "x": 81,
      "y": 19,
      "size": 1,
      "price": "1011000000000000000000",
      "reserved": "",
      "salt": "0x027f7fd90bb49918f7242ee83f70f517532ba58a319e99dd752ac2dca94bd1eb",
      "assetIds": []
    },
    {
      "x": 81,
      "y": 20,
      "size": 1,
      "price": "1011000000000000000000",
      "reserved": "",
      "salt": "0x5cc367b3aaa16159471281422e2249c4eade9348a99442caad994d399545cf28",
      "assetIds": []
    },
    {
      "x": 81,
      "y": 21,
      "size": 1,
      "price": "1011000000000000000000",
      "reserved": "",
      "salt": "0x9a209f8172834ef5b6f6493711ebbddf9c2af3d948b152d1787b0ddeb525c629",
      "assetIds": []
    },
    {
      "x": 82,
      "y": 6,
      "size": 1,
      "price": "1011000000000000000000",
      "reserved": "",
      "salt": "0x425393cf4e095379715864ed6707e7758909a788e54ea0acb3b6c1dc19b4f3b1",
      "assetIds": []
    },
    {
      "x": 82,
      "y": 7,
      "size": 1,
      "price": "1011000000000000000000",
      "reserved": "",
      "salt": "0xda6f33f0824fef5f2a846ac2ff2217c777c8eb961b0d25686add8c0aeac33964",
      "assetIds": []
    },
    {
      "x": 82,
      "y": 8,
      "size": 1,
      "price": "1011000000000000000000",
      "reserved": "",
      "salt": "0xe034aac56963a8302ee7717652346db43c2d74a1656e187cbc6d534ad1665955",
      "assetIds": []
    },
    {
      "x": 82,
      "y": 9,
      "size": 1,
      "price": "1011000000000000000000",
      "reserved": "",
      "salt": "0xad8eb8e273f8f7aaa0af114740a2d9e7775dd4723405f2d9d6bcf423e13c286f",
      "assetIds": []
    },
    {
      "x": 82,
      "y": 10,
      "size": 1,
      "price": "1011000000000000000000",
      "reserved": "",
      "salt": "0x2e12201b328e815b4770de270bffcb1e24ec9c3a984f2461b824421dce1b9a1c",
      "assetIds": []
    },
    {
      "x": 82,
      "y": 11,
      "size": 1,
      "price": "4683000000000000000000",
      "reserved": "",
      "salt": "0x6b86b9b362a2052c6ce349317c985b126ba400ed81314d275a3bc2426f2dc431",
      "assetIds": [
        "41506478881403507969696680653240014914910929820314476107906210059990541021186"
      ]
    },
    {
      "x": 82,
      "y": 18,
      "size": 1,
      "price": "4683000000000000000000",
      "reserved": "",
      "salt": "0xf525a9b85046f20c716db92a87e29d4ba70b4f00e44c247fb90a9d7caab00aa0",
      "assetIds": [
        "41506478881403507969696680653240014914910929820314476107906210059990541021186"
      ]
    },
    {
      "x": 82,
      "y": 19,
      "size": 1,
      "price": "1011000000000000000000",
      "reserved": "",
      "salt": "0x5712ccb0f62ff045f0cc37a9a046099ccb1fd056fb5e381bc5bf3c17392eb5d1",
      "assetIds": []
    },
    {
      "x": 82,
      "y": 20,
      "size": 1,
      "price": "1011000000000000000000",
      "reserved": "",
      "salt": "0xbf7cf51699747ec04b46437798a77b19747f804ac3f2b5a29e2a1649785c0adf",
      "assetIds": []
    },
    {
      "x": 82,
      "y": 21,
      "size": 1,
      "price": "1011000000000000000000",
      "reserved": "",
      "salt": "0xb3ed91f40c102d62f1462fc8a50aaf11abfb0935c8f57c641864da0d2f080ddf",
      "assetIds": []
    },
    {
      "x": 83,
      "y": 6,
      "size": 1,
      "price": "1011000000000000000000",
      "reserved": "",
      "salt": "0x75f632d97f328f9d9d687be0013f1899b775de3fa65ae1cdd96c8471c8c39be1",
      "assetIds": []
    },
    {
      "x": 83,
      "y": 7,
      "size": 1,
      "price": "1011000000000000000000",
      "reserved": "",
      "salt": "0xa69351e23ab501194e0aceda068c8c14ce7af157ade768b29a4c4eddd703ff49",
      "assetIds": []
    },
    {
      "x": 83,
      "y": 8,
      "size": 1,
      "price": "1011000000000000000000",
      "reserved": "",
      "salt": "0xc470e1df43b7df22f983da9f9cce2b509e7cbfdbd1ea54921715adf0860e1725",
      "assetIds": []
    },
    {
      "x": 83,
      "y": 9,
      "size": 1,
      "price": "1011000000000000000000",
      "reserved": "",
      "salt": "0xf118553ab68594dd948cff3330b095ebddd8aaa2ba08b3f0a47a735cd6f72733",
      "assetIds": []
    },
    {
      "x": 83,
      "y": 10,
      "size": 1,
      "price": "1011000000000000000000",
      "reserved": "",
      "salt": "0x0b50ed0f76247b1a72d8674f4aaf55115d751d31527737957d35ffce3659031d",
      "assetIds": []
    },
    {
      "x": 83,
      "y": 11,
      "size": 1,
      "price": "4683000000000000000000",
      "reserved": "",
      "salt": "0x889e06f0b98095d795f0455cecc76efe5d60aac8498ca9d80b434e5a4cf83e8d",
      "assetIds": [
        "41506478881403507969696680653240014914910929820314476107906210059990541021185"
      ]
    },
    {
      "x": 83,
      "y": 18,
      "size": 1,
      "price": "4683000000000000000000",
      "reserved": "",
      "salt": "0xec8a62a67a7bfc66a641a4088da1d2862f61acb679e9144c7ac87b4f1ed051c1",
      "assetIds": [
        "41506478881403507969696680653240014914910929820314476107906210059990541021185"
      ]
    },
    {
      "x": 83,
      "y": 19,
      "size": 1,
      "price": "1011000000000000000000",
      "reserved": "",
      "salt": "0x7add2ffe753017bcc1dcf02ed089d1a0609988907435e2b2f6c8367afeb11296",
      "assetIds": []
    },
    {
      "x": 83,
      "y": 20,
      "size": 1,
      "price": "1011000000000000000000",
      "reserved": "",
      "salt": "0xc8b092b7b3614a2b329d97e60c5bf19449b29985e4ecd5d025a7cf701ab2533a",
      "assetIds": []
    },
    {
      "x": 83,
      "y": 21,
      "size": 1,
      "price": "1011000000000000000000",
      "reserved": "",
      "salt": "0xaaf7515e5f1be33b8aacc93e274a8e57ab1e9f7c5654d44288261ea06b9eb2a5",
      "assetIds": []
    },
    {
      "x": 84,
      "y": 0,
      "size": 1,
      "price": "1011000000000000000000",
      "reserved": "",
      "salt": "0x52c54d73764124bc5b6c5e0cc6e9a744598a419524f8e2d196567180c004541a",
      "assetIds": []
    },
    {
      "x": 84,
      "y": 1,
      "size": 1,
      "price": "1011000000000000000000",
      "reserved": "",
      "salt": "0x2c2e15f6ad13a3f4511d1d4f1bad5257e6d9422e7aa9fb4f804e7e5498d5c64c",
      "assetIds": []
    },
    {
      "x": 84,
      "y": 2,
      "size": 1,
      "price": "1011000000000000000000",
      "reserved": "",
      "salt": "0x641ef3bcaf1ee40ff1c110f39280e402e140868987038315ca3a3f71d42d8791",
      "assetIds": []
    },
    {
      "x": 84,
      "y": 3,
      "size": 1,
      "price": "1011000000000000000000",
      "reserved": "",
      "salt": "0xb02d2288fa148103c87a18f84666197a5076abe84b5d9467f1c3118fc8998108",
      "assetIds": []
    },
    {
      "x": 84,
      "y": 4,
      "size": 1,
      "price": "1011000000000000000000",
      "reserved": "",
      "salt": "0x9feb0e142d6674a02852ec84d3c7f60c9fbf169658056448bc962085e61c9c8c",
      "assetIds": []
    },
    {
      "x": 84,
      "y": 5,
      "size": 1,
      "price": "1011000000000000000000",
      "reserved": "",
      "salt": "0xd384243093539360164b5398bbaaace8be9c3f0e6f22ea177d4fbfea06c038e3",
      "assetIds": []
    },
    {
      "x": 84,
      "y": 9,
      "size": 1,
      "price": "1011000000000000000000",
      "reserved": "",
      "salt": "0x8a10e94b2fe1fb6712764556bb113224fa9f302600e5b4064d9058fd1e63e7a4",
      "assetIds": []
    },
    {
      "x": 84,
      "y": 10,
      "size": 1,
      "price": "1011000000000000000000",
      "reserved": "",
      "salt": "0xcffdabe7ddb3ae61ec1131ec439374fbe0adf58d177b5bf9d793393e7b36dd15",
      "assetIds": []
    },
    {
      "x": 84,
      "y": 11,
      "size": 1,
      "price": "1011000000000000000000",
      "reserved": "",
      "salt": "0xe6b8b50665553422c81317e40c6a906fe31474499391f31f8ab09a692aab9256",
      "assetIds": []
    },
    {
      "x": 84,
      "y": 12,
      "size": 1,
      "price": "4683000000000000000000",
      "reserved": "",
      "salt": "0x76a46cdc3f097171fb4e6439f89f9a375051aaef1177c026b137722641c7be5e",
      "assetIds": [
        "41506478881403507969696680653240014914910929820314476107906210059990541021186"
      ]
    },
    {
      "x": 84,
      "y": 13,
      "size": 1,
      "price": "4683000000000000000000",
      "reserved": "",
      "salt": "0xfc4ccef54caaf66e0e2b95564d2bbe75e22a7b4fba47574ffdffcd14c84e750f",
      "assetIds": [
        "41506478881403507969696680653240014914910929820314476107906210059990541021185"
      ]
    },
    {
      "x": 84,
      "y": 14,
      "size": 1,
      "price": "4683000000000000000000",
      "reserved": "",
      "salt": "0xe4c09560bbc14932846f8d9589c40e604b4d46cf4dcdcc6101ac4216b1ee8803",
      "assetIds": [
        "41506478881403507969696680653240014914910929820314476107906210059990541021186"
      ]
    },
    {
      "x": 84,
      "y": 18,
      "size": 1,
      "price": "1011000000000000000000",
      "reserved": "",
      "salt": "0x05198a2f8da9c968663a4ff750d39b31c1e8298e5fede7a7b558055ffccb2b5a",
      "assetIds": []
    },
    {
      "x": 84,
      "y": 19,
      "size": 1,
      "price": "1011000000000000000000",
      "reserved": "",
      "salt": "0x6f91639681edb2cb9ce5ceab75f882da0632d620a91ced7bdfb2528218c933ba",
      "assetIds": []
    },
    {
      "x": 84,
      "y": 20,
      "size": 1,
      "price": "1011000000000000000000",
      "reserved": "",
      "salt": "0x308d83c206827ba0452863ed5e031fb5b4b016f09df728d1f0ad0e6787300195",
      "assetIds": []
    },
    {
      "x": 84,
      "y": 21,
      "size": 1,
      "price": "1011000000000000000000",
      "reserved": "",
      "salt": "0x60b626b2946dcd77899a624190cf77493e479ce0d748ad0f916c88186632e7e3",
      "assetIds": []
    },
    {
      "x": 85,
      "y": 0,
      "size": 1,
      "price": "1011000000000000000000",
      "reserved": "",
      "salt": "0x922e6e0be16587f364ab9e914eb520773872f1b6e17222216bdd6c1c5f05e3fd",
      "assetIds": []
    },
    {
      "x": 85,
      "y": 1,
      "size": 1,
      "price": "1011000000000000000000",
      "reserved": "",
      "salt": "0x68eba5e5b72b1b1301187c10f0f3529f9dd1e258ae8e916c7cf7a69485c01af6",
      "assetIds": []
    },
    {
      "x": 85,
      "y": 2,
      "size": 1,
      "price": "1011000000000000000000",
      "reserved": "",
      "salt": "0xc8fd8263e0fd1884f6dca71f98377c788bbd6ccc53d04f34f8189606440c9f18",
      "assetIds": []
    },
    {
      "x": 85,
      "y": 3,
      "size": 1,
      "price": "1011000000000000000000",
      "reserved": "",
      "salt": "0x8e37939b1ca0fc1b6f219ef2762cdd6fa8824aaef6e3f6c6f88aa0b8b8efbe4e",
      "assetIds": []
    },
    {
      "x": 85,
      "y": 4,
      "size": 1,
      "price": "1011000000000000000000",
      "reserved": "",
      "salt": "0xa8bc90d458e73937c4e6add15013c20047f7d4603f857a9f51d69a098d152576",
      "assetIds": []
    },
    {
      "x": 85,
      "y": 5,
      "size": 1,
      "price": "1011000000000000000000",
      "reserved": "",
      "salt": "0x3f83a3d5d1ab209e21f0271e2cff1018b65f2e80a98e2579f918ad7d8102966c",
      "assetIds": []
    },
    {
      "x": 85,
      "y": 9,
      "size": 1,
      "price": "1011000000000000000000",
      "reserved": "",
      "salt": "0x8c88fd429c33ea2b71a76a17817a72ae6f456e899d79999b9a2e480457e8b6f1",
      "assetIds": []
    },
    {
      "x": 85,
      "y": 10,
      "size": 1,
      "price": "1011000000000000000000",
      "reserved": "",
      "salt": "0xa5806af51528c76e2d9a659748368a707e5ff48a2e9d9f635e4c12549088a317",
      "assetIds": []
    },
    {
      "x": 85,
      "y": 11,
      "size": 1,
      "price": "1011000000000000000000",
      "reserved": "",
      "salt": "0xaacec5cd1042bea104724414f19b3c4cf550af83d6bfadc84cd5a011d511e76e",
      "assetIds": []
    },
    {
      "x": 85,
      "y": 12,
      "size": 1,
      "price": "1011000000000000000000",
      "reserved": "",
      "salt": "0xc1ca106d94a500585955503fba37238b7690b1dcc35677185ce1ac5e1696be63",
      "assetIds": []
    },
    {
      "x": 85,
      "y": 13,
      "size": 1,
      "price": "1011000000000000000000",
      "reserved": "",
      "salt": "0x5d08e0330af43ec57ec4a10182b9feda03d94e8ef81c1489d6623c1ae7fb8e7e",
      "assetIds": []
    },
    {
      "x": 85,
      "y": 14,
      "size": 1,
      "price": "1011000000000000000000",
      "reserved": "",
      "salt": "0x1305c8efd0072ddd0a08846a0362b0ea7cbb5fc254408515106d49561de7b6c3",
      "assetIds": []
    },
    {
      "x": 85,
      "y": 18,
      "size": 1,
      "price": "1011000000000000000000",
      "reserved": "",
      "salt": "0x1e2175ae64f9914abcbdfd799e30438ebc6919b4f6c65f576029fc12ea3b5371",
      "assetIds": []
    },
    {
      "x": 85,
      "y": 19,
      "size": 1,
      "price": "1011000000000000000000",
      "reserved": "",
      "salt": "0xc5d8b5a90137ba31c9fd7894f1dac5d0b7ef13d3f54e547f7a6c353a8d87066e",
      "assetIds": []
    },
    {
      "x": 85,
      "y": 20,
      "size": 1,
      "price": "1011000000000000000000",
      "reserved": "",
      "salt": "0x7310becc17e13d618ce81cce9795298a58fc4e865208a113c1be9147b5637ba6",
      "assetIds": []
    },
    {
      "x": 85,
      "y": 21,
      "size": 1,
      "price": "1011000000000000000000",
      "reserved": "",
      "salt": "0xd5ba1693c701f9706908a94508c0a5100fc28a8664fbc2ce4bb6cf1ed0c486b7",
      "assetIds": []
    },
    {
      "x": 86,
      "y": 0,
      "size": 1,
      "price": "1011000000000000000000",
      "reserved": "",
      "salt": "0x952e248dd99fbd490a47852cb5445cf71223968eeea71d26eef114efd1a253ba",
      "assetIds": []
    },
    {
      "x": 86,
      "y": 1,
      "size": 1,
      "price": "1011000000000000000000",
      "reserved": "",
      "salt": "0x579d78bdda0a4b1054384601be7b71f32bbb3f4f28e31bd5d4372bbe4222c166",
      "assetIds": []
    },
    {
      "x": 86,
      "y": 2,
      "size": 1,
      "price": "1011000000000000000000",
      "reserved": "",
      "salt": "0x1154a0856da15aa26fa0f6f02474b58ee32a943bacacb38afab133d6fa24bff4",
      "assetIds": []
    },
    {
      "x": 86,
      "y": 3,
      "size": 1,
      "price": "1011000000000000000000",
      "reserved": "",
      "salt": "0x482d7339bb1be27cd3d4acfeed2686b3ced587fefb35447218a8456905aa022c",
      "assetIds": []
    },
    {
      "x": 86,
      "y": 4,
      "size": 1,
      "price": "1011000000000000000000",
      "reserved": "",
      "salt": "0xb8174db9ead9336c4e82443776c9971ec37e2affb12279076e304518e206cb39",
      "assetIds": []
    },
    {
      "x": 86,
      "y": 5,
      "size": 1,
      "price": "1011000000000000000000",
      "reserved": "",
      "salt": "0x6066c78716b0ae67ca5a028af06630533bc3d8a15f508eb625b61e4dbe1de24b",
      "assetIds": []
    },
    {
      "x": 86,
      "y": 9,
      "size": 1,
      "price": "1011000000000000000000",
      "reserved": "",
      "salt": "0xaa4659818121f7cce81a0320af0f34c926c309272fe46eaf1d25bfa3a8be49af",
      "assetIds": []
    },
    {
      "x": 86,
      "y": 10,
      "size": 1,
      "price": "1011000000000000000000",
      "reserved": "",
      "salt": "0x08d1a24836a2b9eb7a22594101926aa67abeba3566cbf0c23b65cc1a46f22f31",
      "assetIds": []
    },
    {
      "x": 86,
      "y": 11,
      "size": 1,
      "price": "1011000000000000000000",
      "reserved": "",
      "salt": "0x17e1f74cb29358845cddb033901aa03b53c5bbe457f5b208e2a697ea19afdce2",
      "assetIds": []
    },
    {
      "x": 86,
      "y": 12,
      "size": 1,
      "price": "1011000000000000000000",
      "reserved": "",
      "salt": "0x15b2fe2875a8aa33b4237c3cefde78c47d51b4125c266eafdf4e322db0428d8c",
      "assetIds": []
    },
    {
      "x": 86,
      "y": 13,
      "size": 1,
      "price": "1011000000000000000000",
      "reserved": "",
      "salt": "0xa3a2bf1675efbcb3a51d6a9c29cdb6b9de4a75b5d77b7175d83bdb70a9ff0ed2",
      "assetIds": []
    },
    {
      "x": 86,
      "y": 14,
      "size": 1,
      "price": "1011000000000000000000",
      "reserved": "",
      "salt": "0xdb11c3c544e105559b364ca938c586da0248ebd8a0d7c686b94ed35634eccc5f",
      "assetIds": []
    },
    {
      "x": 86,
      "y": 18,
      "size": 1,
      "price": "4683000000000000000000",
      "reserved": "",
      "salt": "0x9d1ba256a1d5908d22297758a5115395a7b43f42361d66be6be2d9fd8fee776b",
      "assetIds": [
        "41506478881403507969696680653240014914910929820314476107906210059990541021186"
      ]
    },
    {
      "x": 86,
      "y": 19,
      "size": 1,
      "price": "4683000000000000000000",
      "reserved": "",
      "salt": "0x480aa90beb0d875d15769322803ab2914517a3dfb6c87a04eef2eb2cf0d22272",
      "assetIds": [
        "41506478881403507969696680653240014914910929820314476107906210059990541021185"
      ]
    },
    {
      "x": 86,
      "y": 20,
      "size": 1,
      "price": "4683000000000000000000",
      "reserved": "",
      "salt": "0xbc6b286260572c04a849ebc28ac3d985563256bc698900cf00e75624821a8dd1",
      "assetIds": [
        "41506478881403507969696680653240014914910929820314476107906210059990541021186"
      ]
    },
    {
      "x": 86,
      "y": 21,
      "size": 1,
      "price": "1011000000000000000000",
      "reserved": "",
      "salt": "0xf9da5f45ff87963ef0d2e4c431e58d0f7f94102a57f4b4ec9d44a9e0adfe2b40",
      "assetIds": []
    },
    {
      "x": 87,
      "y": 3,
      "size": 1,
      "price": "1011000000000000000000",
      "reserved": "",
      "salt": "0xee704f9127f779c4ff629168d447403a95492f9cc032f9b25fddbc13af715a06",
      "assetIds": []
    },
    {
      "x": 87,
      "y": 4,
      "size": 1,
      "price": "1011000000000000000000",
      "reserved": "",
      "salt": "0xcd76759f5927725f14b6d2f9177896b6f311b17bdb11cd9be5a82639c9900fcf",
      "assetIds": []
    },
    {
      "x": 87,
      "y": 5,
      "size": 1,
      "price": "1011000000000000000000",
      "reserved": "",
      "salt": "0x9b66569a2211fa1b00cbc65993b1c84fbea5d312f6de7475e6ca680ece59b523",
      "assetIds": []
    },
    {
      "x": 87,
      "y": 6,
      "size": 1,
      "price": "1011000000000000000000",
      "reserved": "",
      "salt": "0xad4ca8a67518dfc380d84d12fa1addd8c28a94142c92d38b4cd8c1960304dc01",
      "assetIds": []
    },
    {
      "x": 87,
      "y": 7,
      "size": 1,
      "price": "1011000000000000000000",
      "reserved": "",
      "salt": "0x74d7f239eddf979cd276566e7ae50a6a1a39785cc4a894007dc1fe62d6569ae2",
      "assetIds": []
    },
    {
      "x": 87,
      "y": 8,
      "size": 1,
      "price": "1011000000000000000000",
      "reserved": "",
      "salt": "0x87e079d018723e45848cf76e99b1769ac99fa9ac21b2a5e0c213a685b73d92cc",
      "assetIds": []
    },
    {
      "x": 87,
      "y": 12,
      "size": 1,
      "price": "1011000000000000000000",
      "reserved": "",
      "salt": "0x9c95e1a8fd22c6e531d3fcea91aa4dee93077338223e4a7043e364950a81005a",
      "assetIds": []
    },
    {
      "x": 87,
      "y": 13,
      "size": 1,
      "price": "1011000000000000000000",
      "reserved": "",
      "salt": "0x19fac572ea15414b09e0aaebc1c31fca6e1aca6e205ab5ac39831d30abcd131a",
      "assetIds": []
    },
    {
      "x": 87,
      "y": 14,
      "size": 1,
      "price": "1011000000000000000000",
      "reserved": "",
      "salt": "0xed972080e0631b10b151341311be10e52d6e80bcea4e4fa581765c673aeec7cf",
      "assetIds": []
    },
    {
      "x": 87,
      "y": 15,
      "size": 1,
      "price": "1011000000000000000000",
      "reserved": "",
      "salt": "0x7e7aede7d54c7c954d68627d4a7a3b1ebee14b1cfb6140e5a362ec6753f50027",
      "assetIds": []
    },
    {
      "x": 87,
      "y": 16,
      "size": 1,
      "price": "1011000000000000000000",
      "reserved": "",
      "salt": "0x3b0f83c2a1f536d5f3f9689486d3675e91d05908381f7e3b2c1fd8647f1f18c6",
      "assetIds": []
    },
    {
      "x": 87,
      "y": 17,
      "size": 1,
      "price": "4683000000000000000000",
      "reserved": "",
      "salt": "0x2953f721a0ebd378b79adaac5397cc70aee269448c505aba0e771a6fff2ae8ba",
      "assetIds": [
        "41506478881403507969696680653240014914910929820314476107906210059990541021185"
      ]
    },
    {
      "x": 87,
      "y": 21,
      "size": 1,
      "price": "4683000000000000000000",
      "reserved": "",
      "salt": "0xf5fd6244a73319950e535fa3c2595036653531b5ac48ba12c9eda0777835c751",
      "assetIds": [
        "41506478881403507969696680653240014914910929820314476107906210059990541021186"
      ]
    },
    {
      "x": 88,
      "y": 3,
      "size": 1,
      "price": "1011000000000000000000",
      "reserved": "",
      "salt": "0x1ae0a1a20ea87a1826dd9db22abe1da6b9895913270cc7eecfb78fd7c1fc0973",
      "assetIds": []
    },
    {
      "x": 88,
      "y": 4,
      "size": 1,
      "price": "1011000000000000000000",
      "reserved": "",
      "salt": "0xa8c42d25528050f8477e445ef2098405377c4c91656e432e880387582e57fe6c",
      "assetIds": []
    },
    {
      "x": 88,
      "y": 5,
      "size": 1,
      "price": "1011000000000000000000",
      "reserved": "",
      "salt": "0x33c98f6c593a9f0f8804ba1749f4909d55b7507f97d98df16b93b600bccd45d9",
      "assetIds": []
    },
    {
      "x": 88,
      "y": 6,
      "size": 1,
      "price": "1011000000000000000000",
      "reserved": "",
      "salt": "0x899ada35b13f48fd9d10eef5cae700f6c3aeafcc056da5c9100c4ab1c8d6ff74",
      "assetIds": []
    },
    {
      "x": 88,
      "y": 7,
      "size": 1,
      "price": "1011000000000000000000",
      "reserved": "",
      "salt": "0xee64adcde14857a48e0f98ed4e14e06582c85a780527173e2a8c1eed6d377688",
      "assetIds": []
    },
    {
      "x": 88,
      "y": 8,
      "size": 1,
      "price": "1011000000000000000000",
      "reserved": "",
      "salt": "0x4d4f461c9fc89f17c50914b69de495705cc15d54ec96d50e0c60ec7c327f8223",
      "assetIds": []
    },
    {
      "x": 88,
      "y": 12,
      "size": 1,
      "price": "1011000000000000000000",
      "reserved": "",
      "salt": "0x896a6b30c227585a27d18af572f63c508be4af9f0b4fa986eb64767a9a86486c",
      "assetIds": []
    },
    {
      "x": 88,
      "y": 13,
      "size": 1,
      "price": "1011000000000000000000",
      "reserved": "",
      "salt": "0x39516165d26e6f49aec430477947982717896bc5df11168127a6a0a9f52f878f",
      "assetIds": []
    },
    {
      "x": 88,
      "y": 14,
      "size": 1,
      "price": "1011000000000000000000",
      "reserved": "",
      "salt": "0x923289801124bdd9feee8a001baa83392cd43f27f50e976eefa2fda202bb6611",
      "assetIds": []
    },
    {
      "x": 88,
      "y": 15,
      "size": 1,
      "price": "1011000000000000000000",
      "reserved": "",
      "salt": "0x372e2128f613db430e1c93460378c5a68349c045aa79e362eed2c6694771fdea",
      "assetIds": []
    },
    {
      "x": 88,
      "y": 16,
      "size": 1,
      "price": "1011000000000000000000",
      "reserved": "",
      "salt": "0x52ec2014a00dc14eae94ea7eef7068cf4490fbe8bd1c2b7e6a870bea1e88e395",
      "assetIds": []
    },
    {
      "x": 88,
      "y": 17,
      "size": 1,
      "price": "4683000000000000000000",
      "reserved": "",
      "salt": "0xf6cb85d2773c4afceafc32d75e7cd38e37aa9878c323c719faf4d1a09d1b5be3",
      "assetIds": [
        "41506478881403507969696680653240014914910929820314476107906210059990541021185"
      ]
    },
    {
      "x": 88,
      "y": 21,
      "size": 1,
      "price": "4683000000000000000000",
      "reserved": "",
      "salt": "0x0f64ba5fa325c9a6ac77620cb480628ea424c1a236455e46cac664d53e2aa71a",
      "assetIds": [
        "41506478881403507969696680653240014914910929820314476107906210059990541021186"
      ]
    },
    {
      "x": 89,
      "y": 3,
      "size": 1,
      "price": "4683000000000000000000",
      "reserved": "",
      "salt": "0x853f48b4a7280e5db9de665864d0596af0344c3d6ce1cef256d7a5ef746c9425",
      "assetIds": [
        "41506478881403507969696680653240014914910929820314476107906210059990541021185"
      ]
    },
    {
      "x": 89,
      "y": 4,
      "size": 1,
      "price": "4683000000000000000000",
      "reserved": "",
      "salt": "0x8235ee9ce75c317f9c3672986dfb682b340e575d7a1066d8e9fe6293997bbc75",
      "assetIds": [
        "41506478881403507969696680653240014914910929820314476107906210059990541021186"
      ]
    },
    {
      "x": 89,
      "y": 5,
      "size": 1,
      "price": "4683000000000000000000",
      "reserved": "",
      "salt": "0x72d00c356580178ee0ab25b60615e61d2103050fc1fa9b5138711500e0a364b8",
      "assetIds": [
        "41506478881403507969696680653240014914910929820314476107906210059990541021186"
      ]
    },
    {
      "x": 89,
      "y": 6,
      "size": 1,
      "price": "1011000000000000000000",
      "reserved": "",
      "salt": "0x9383b4b8d10068e96ad0f480556f323911c643e589d3d7f1aa859701af879ce2",
      "assetIds": []
    },
    {
      "x": 89,
      "y": 7,
      "size": 1,
      "price": "1011000000000000000000",
      "reserved": "",
      "salt": "0xbd46a9db6752c251af57a7589f7fbfa9071eb1ffe3396f08fe47eb63be91aa61",
      "assetIds": []
    },
    {
      "x": 89,
      "y": 8,
      "size": 1,
      "price": "1011000000000000000000",
      "reserved": "",
      "salt": "0xd80eab04e4a8f03d92bdbdabc38fe773ec7b47d507737f3ad6e15159ad220324",
      "assetIds": []
    },
    {
      "x": 89,
      "y": 12,
      "size": 1,
      "price": "4683000000000000000000",
      "reserved": "",
      "salt": "0xda9f834c4301edaf8e5bd7b140bccf5050cdb1eadd27d9ce5f674217394b214c",
      "assetIds": [
        "41506478881403507969696680653240014914910929820314476107906210059990541021186"
      ]
    },
    {
      "x": 89,
      "y": 13,
      "size": 1,
      "price": "4683000000000000000000",
      "reserved": "",
      "salt": "0x2f1f2724a5d996304b0166404d27992cce62f8e3e4dee5884e2fe02fbfb8f305",
      "assetIds": [
        "41506478881403507969696680653240014914910929820314476107906210059990541021186"
      ]
    },
    {
      "x": 89,
      "y": 14,
      "size": 1,
      "price": "4683000000000000000000",
      "reserved": "",
      "salt": "0x90a9b22cc4598cc01a066d88e5c323ad42efada261f5dcfd2aea2db6c6b3d986",
      "assetIds": [
        "41506478881403507969696680653240014914910929820314476107906210059990541021186"
      ]
    },
    {
      "x": 89,
      "y": 15,
      "size": 1,
      "price": "4683000000000000000000",
      "reserved": "",
      "salt": "0xcccaee1bd15dbacf6e561a029a93e893a9e2849fe5fb69151c7ebb32ebc4a723",
      "assetIds": [
        "41506478881403507969696680653240014914910929820314476107906210059990541021185"
      ]
    },
    {
      "x": 89,
      "y": 16,
      "size": 1,
      "price": "4683000000000000000000",
      "reserved": "",
      "salt": "0x0a57c0d74c8b375d0cdc6a64ff7edfb0231f0932f426f45434e2af0c941ef0e6",
      "assetIds": [
        "41506478881403507969696680653240014914910929820314476107906210059990541021186"
      ]
    },
    {
      "x": 89,
      "y": 17,
      "size": 1,
      "price": "4683000000000000000000",
      "reserved": "",
      "salt": "0xd0fc00d1012602c059a05cfcb9a55c5cf76cfdcc2dd98478f47c7cad2232569d",
      "assetIds": [
        "41506478881403507969696680653240014914910929820314476107906210059990541021186"
      ]
    },
    {
      "x": 89,
      "y": 21,
      "size": 1,
      "price": "4683000000000000000000",
      "reserved": "",
      "salt": "0x60daf72c3673ff76487c3843dbb493680230a00407a5b550e30a8a6987973c05",
      "assetIds": [
        "41506478881403507969696680653240014914910929820314476107906210059990541021185"
      ]
    },
    {
      "x": 90,
      "y": 6,
      "size": 1,
      "price": "4683000000000000000000",
      "reserved": "",
      "salt": "0x72725dafe26a2971ebe2a159ec59e9cf8588a97c8433abef8c677804d32d1318",
      "assetIds": [
        "41506478881403507969696680653240014914910929820314476107906210059990541021185"
      ]
    },
    {
      "x": 90,
      "y": 7,
      "size": 1,
      "price": "1011000000000000000000",
      "reserved": "",
      "salt": "0x14067220b1f6c69522a79fedae9061c0acdc39bb076e4d12c1ecb5c7261969c4",
      "assetIds": []
    },
    {
      "x": 90,
      "y": 8,
      "size": 1,
      "price": "1011000000000000000000",
      "reserved": "",
      "salt": "0x44a1b642dcc82ac2c78ac987b68f4972a198860ddc605d6e21fa9412743deaf2",
      "assetIds": []
    },
    {
      "x": 90,
      "y": 9,
      "size": 1,
      "price": "1011000000000000000000",
      "reserved": "",
      "salt": "0x6d6ade3cf9810a1eb9a730770c5aab00964e6f62d4af6df5dfb2c8319cd5ef6b",
      "assetIds": []
    },
    {
      "x": 90,
      "y": 10,
      "size": 1,
      "price": "1011000000000000000000",
      "reserved": "",
      "salt": "0x32cba7daa7e5e7d46ce7cd1b36a8fb38291d19fa040b050f7dca10e21be5ba90",
      "assetIds": []
    },
    {
      "x": 90,
      "y": 11,
      "size": 1,
      "price": "4683000000000000000000",
      "reserved": "",
      "salt": "0x2ca229241ea091ec8bd75e147d8f41472c7b39577799c69c55ea785ff2940088",
      "assetIds": [
        "41506478881403507969696680653240014914910929820314476107906210059990541021185"
      ]
    },
    {
      "x": 90,
      "y": 18,
      "size": 1,
      "price": "4683000000000000000000",
      "reserved": "",
      "salt": "0xecf51ec5166ad8732ba5d9ddbc4a7902b64dd4f103f9ce73d33f916e4ff88542",
      "assetIds": [
        "41506478881403507969696680653240014914910929820314476107906210059990541021185"
      ]
    },
    {
      "x": 90,
      "y": 19,
      "size": 1,
      "price": "4683000000000000000000",
      "reserved": "",
      "salt": "0xd21d21cf1a9732bdd3947a97126efcf54b675af7b524deef3578d4ae42230e55",
      "assetIds": [
        "41506478881403507969696680653240014914910929820314476107906210059990541021185"
      ]
    },
    {
      "x": 90,
      "y": 20,
      "size": 1,
      "price": "4683000000000000000000",
      "reserved": "",
      "salt": "0xfd6c57dc1512dc4deae3a2976fb3e0e778b9ec1c8e31358bc987295b7a9d3d08",
      "assetIds": [
        "41506478881403507969696680653240014914910929820314476107906210059990541021186"
      ]
    },
    {
      "x": 90,
      "y": 21,
      "size": 1,
      "price": "1011000000000000000000",
      "reserved": "",
      "salt": "0xd4841e7c83f15a8390f4b3084e7303c646fb87db77d7e58292cf11fcb6b486f3",
      "assetIds": []
    },
    {
      "x": 91,
      "y": 6,
      "size": 1,
      "price": "4683000000000000000000",
      "reserved": "",
      "salt": "0x0546045092aea44741b3745d89a434c1798c8b6f0e0b5804acc2fd91d47ee680",
      "assetIds": [
        "41506478881403507969696680653240014914910929820314476107906210059990541021185"
      ]
    },
    {
      "x": 91,
      "y": 7,
      "size": 1,
      "price": "1011000000000000000000",
      "reserved": "",
      "salt": "0x083b65015916dfec52910d2b895952c752753f4e82b328df337124423b74c434",
      "assetIds": []
    },
    {
      "x": 91,
      "y": 8,
      "size": 1,
      "price": "1011000000000000000000",
      "reserved": "",
      "salt": "0x80790802830b709e61a5c9838fc8990f5ab018f2517ef4ba290c87199c052d1b",
      "assetIds": []
    },
    {
      "x": 91,
      "y": 9,
      "size": 1,
      "price": "1011000000000000000000",
      "reserved": "",
      "salt": "0xe3ee28d4191ef1ba84c1bacc5090c14747bbf22997e9614eb40d8aa3b43af1a8",
      "assetIds": []
    },
    {
      "x": 91,
      "y": 10,
      "size": 1,
      "price": "1011000000000000000000",
      "reserved": "",
      "salt": "0x2fc5709d770de554a4f51b00eb4933f0ee3b9cc43e0183ace7e4e8262fa683fa",
      "assetIds": []
    },
    {
      "x": 91,
      "y": 11,
      "size": 1,
      "price": "4683000000000000000000",
      "reserved": "",
      "salt": "0x40a71813e287f61004a915f17de548f59674d359af121be26fc5a93cb52999fd",
      "assetIds": [
        "41506478881403507969696680653240014914910929820314476107906210059990541021186"
      ]
    },
    {
      "x": 91,
      "y": 18,
      "size": 1,
      "price": "1011000000000000000000",
      "reserved": "",
      "salt": "0xf855692e11258c256a7ab877c52af2ab23d6aa71289b93191500b4c610d5ce1e",
      "assetIds": []
    },
    {
      "x": 91,
      "y": 19,
      "size": 1,
      "price": "1011000000000000000000",
      "reserved": "",
      "salt": "0x8178f3a30b718fe2cf327512e918429ce0d1f18cf4f62395cb150406b94d4ef5",
      "assetIds": []
    },
    {
      "x": 91,
      "y": 20,
      "size": 1,
      "price": "1011000000000000000000",
      "reserved": "",
      "salt": "0x87e9782d8d4eec08f40b2dfebecdd1f380968cade349b6a5db5b86dc398af3df",
      "assetIds": []
    },
    {
      "x": 91,
      "y": 21,
      "size": 1,
      "price": "1011000000000000000000",
      "reserved": "",
      "salt": "0x4bc450b9785b5ebaeec948e3c80060a69f20c13cec3a6f01a72f9c8544c13b28",
      "assetIds": []
    },
    {
      "x": 92,
      "y": 6,
      "size": 1,
      "price": "4683000000000000000000",
      "reserved": "",
      "salt": "0xba0b4f375b7cf3501e42fb9d9237fc593b1b4e422aa1f77dace72d34c08d06c3",
      "assetIds": [
        "41506478881403507969696680653240014914910929820314476107906210059990541021185"
      ]
    },
    {
      "x": 92,
      "y": 7,
      "size": 1,
      "price": "1011000000000000000000",
      "reserved": "",
      "salt": "0x5c8d4209bebbbe92892854f9ec5ad636e81a525c39e2431ee0f3aa04e228bc41",
      "assetIds": []
    },
    {
      "x": 92,
      "y": 8,
      "size": 1,
      "price": "1011000000000000000000",
      "reserved": "",
      "salt": "0x5c00c97db8718a4d053e02eeab061c44d6f3ce1350b389080719ddb7b24c6ac3",
      "assetIds": []
    },
    {
      "x": 92,
      "y": 9,
      "size": 1,
      "price": "1011000000000000000000",
      "reserved": "",
      "salt": "0x03b03f06a44b18d6cc8b6525cfbb154433585862bd822c10901b0c6a9b9b30be",
      "assetIds": []
    },
    {
      "x": 92,
      "y": 10,
      "size": 1,
      "price": "1011000000000000000000",
      "reserved": "",
      "salt": "0x341995b9c67fea6ba1ee8d4b71145fbf068b0f93863118830db2884a828b6750",
      "assetIds": []
    },
    {
      "x": 92,
      "y": 11,
      "size": 1,
      "price": "4683000000000000000000",
      "reserved": "",
      "salt": "0x52456b60020ad36125f1db40dfc74dfc2db5f7fd039660bfb6db2952df754f4b",
      "assetIds": [
        "41506478881403507969696680653240014914910929820314476107906210059990541021186"
      ]
    },
    {
      "x": 92,
      "y": 18,
      "size": 1,
      "price": "1011000000000000000000",
      "reserved": "",
      "salt": "0x9f7c93602d70248cd5bf8810fb5f6f3286b2f4dc1ad88a9bdce9dfbe49661b8a",
      "assetIds": []
    },
    {
      "x": 92,
      "y": 19,
      "size": 1,
      "price": "1011000000000000000000",
      "reserved": "",
      "salt": "0x5392b11bb69e3502275207b1e74913e4a2767589f14b855e880d59e84564c7f9",
      "assetIds": []
    },
    {
      "x": 92,
      "y": 20,
      "size": 1,
      "price": "1011000000000000000000",
      "reserved": "",
      "salt": "0x03bc885742f68dd949373cdf994eb59f3192bea6b75b85be5211c3b8fcef7c9a",
      "assetIds": []
    },
    {
      "x": 92,
      "y": 21,
      "size": 1,
      "price": "1011000000000000000000",
      "reserved": "",
      "salt": "0x74756c2b6e0c14613f7060881db5fc96958814088e1848d3bfe0e49ab6da8c6c",
      "assetIds": []
    },
    {
      "x": 93,
      "y": 6,
      "size": 1,
      "price": "4683000000000000000000",
      "reserved": "",
      "salt": "0x5b46de07062a76b873884217518a9ee1139d2d9bf2908548053d5e0068b27481",
      "assetIds": [
        "41506478881403507969696680653240014914910929820314476107906210059990541021186"
      ]
    },
    {
      "x": 93,
      "y": 7,
      "size": 1,
      "price": "1011000000000000000000",
      "reserved": "",
      "salt": "0xef53ae1b437c645acc0c0305feaae537946af049efdb31ca65a66bfc723f90c0",
      "assetIds": []
    },
    {
      "x": 93,
      "y": 8,
      "size": 1,
      "price": "1011000000000000000000",
      "reserved": "",
      "salt": "0x0eb363079996031ff171cdfa985350d74c4d85998e881b9043f1b0886712a2e7",
      "assetIds": []
    },
    {
      "x": 93,
      "y": 9,
      "size": 1,
      "price": "1011000000000000000000",
      "reserved": "",
      "salt": "0x4aaeff1ffd4d9359270fd32b8256ae8da1de0b7950ba6e29ae151083b333e49e",
      "assetIds": []
    },
    {
      "x": 93,
      "y": 10,
      "size": 1,
      "price": "1011000000000000000000",
      "reserved": "",
      "salt": "0x8731fc3e1f93ea39f037fbd8c6fad9848e7b0bb322b278d96ddeff3f4ba1cf1e",
      "assetIds": []
    },
    {
      "x": 93,
      "y": 11,
      "size": 1,
      "price": "4683000000000000000000",
      "reserved": "",
      "salt": "0xdd8ccbff6f56220c238901ea9479f3339da5d2490548103b513fe1a8f6788b58",
      "assetIds": [
        "41506478881403507969696680653240014914910929820314476107906210059990541021186"
      ]
    },
    {
      "x": 93,
      "y": 18,
      "size": 1,
      "price": "1011000000000000000000",
      "reserved": "",
      "salt": "0xb37677abbd30795e12b84c7afefa4bd332808df32418855bc276e428a058fbf0",
      "assetIds": []
    },
    {
      "x": 93,
      "y": 19,
      "size": 1,
      "price": "1011000000000000000000",
      "reserved": "",
      "salt": "0xbce9bff5011c9935a9e129f3bb46e9edd86d1f382e79e83b7e1f5202d19889d3",
      "assetIds": []
    },
    {
      "x": 93,
      "y": 20,
      "size": 1,
      "price": "1011000000000000000000",
      "reserved": "",
      "salt": "0xdf8ba5a3ad372f5555a9ca0f4a6db6d3e28e709f4d60a651f0550459a8e85ef9",
      "assetIds": []
    },
    {
      "x": 93,
      "y": 21,
      "size": 1,
      "price": "1011000000000000000000",
      "reserved": "",
      "salt": "0x90a5041ebfdbbcc0c4c517984c67bbf05a1feb8cec442b557209ee3729a8d0dd",
      "assetIds": []
    },
    {
      "x": 94,
      "y": 6,
      "size": 1,
      "price": "4683000000000000000000",
      "reserved": "",
      "salt": "0xbfe7dece231ec38ff191dc390eec3ba0f1ca62a76deac12b2943aba4c7876231",
      "assetIds": [
        "41506478881403507969696680653240014914910929820314476107906210059990541021186"
      ]
    },
    {
      "x": 94,
      "y": 7,
      "size": 1,
      "price": "1011000000000000000000",
      "reserved": "",
      "salt": "0x58c2ee0105685a4e6640cefaec5e17fc355c9017b959a773038002d5209667a3",
      "assetIds": []
    },
    {
      "x": 94,
      "y": 8,
      "size": 1,
      "price": "1011000000000000000000",
      "reserved": "",
      "salt": "0x7ec962ad0893814ddd18c7292e86c8c60815823076ede09ee26b8dc2ef311bbc",
      "assetIds": []
    },
    {
      "x": 94,
      "y": 9,
      "size": 1,
      "price": "1011000000000000000000",
      "reserved": "",
      "salt": "0x18569dc6d2b5935ddfac28398bef65b57e4d9e04be9d2b7897702f4d96c255ab",
      "assetIds": []
    },
    {
      "x": 94,
      "y": 10,
      "size": 1,
      "price": "1011000000000000000000",
      "reserved": "",
      "salt": "0xe301966c40a042a9e3ff15165fee1d88e7fc0b802705d015f32ca00aaa2f1bac",
      "assetIds": []
    },
    {
      "x": 94,
      "y": 11,
      "size": 1,
      "price": "4683000000000000000000",
      "reserved": "",
      "salt": "0x92adf0bd682ff203fbb2322394b31bccf6eff61efa525f062af015d6826e6112",
      "assetIds": [
        "41506478881403507969696680653240014914910929820314476107906210059990541021186"
      ]
    },
    {
      "x": 94,
      "y": 18,
      "size": 1,
      "price": "1011000000000000000000",
      "reserved": "",
      "salt": "0x89b89627930019a55569f066514ab40a69bb02c83a36329e86a46106f82636f6",
      "assetIds": []
    },
    {
      "x": 94,
      "y": 19,
      "size": 1,
      "price": "1011000000000000000000",
      "reserved": "",
      "salt": "0x69ccdaad329662a3d7d8da6bff8cf053cf2dff557d3f83fb7b6a72aae4f71d82",
      "assetIds": []
    },
    {
      "x": 94,
      "y": 20,
      "size": 1,
      "price": "1011000000000000000000",
      "reserved": "",
      "salt": "0x5efa5c8f2d1862d52ce8c61808954ef8c0783a20b18eedb605490a379cd61082",
      "assetIds": []
    },
    {
      "x": 94,
      "y": 21,
      "size": 1,
      "price": "1011000000000000000000",
      "reserved": "",
      "salt": "0x3e3b357daa7cf78ec436bb0d91e686b40aa854d5631d59b295526552cf41044b",
      "assetIds": []
    },
    {
      "x": 95,
      "y": 6,
      "size": 1,
      "price": "4683000000000000000000",
      "reserved": "",
      "salt": "0x33496c1ee95a38e1bc7eb33dabb2511cb815111522851bc262386da3e0ad4660",
      "assetIds": [
        "41506478881403507969696680653240014914910929820314476107906210059990541021186"
      ]
    },
    {
      "x": 95,
      "y": 7,
      "size": 1,
      "price": "1011000000000000000000",
      "reserved": "",
      "salt": "0x35ef2c8b4f73f40f175bcb47c665c567f366ff7a753c06ac5079a62e4f433591",
      "assetIds": []
    },
    {
      "x": 95,
      "y": 8,
      "size": 1,
      "price": "1011000000000000000000",
      "reserved": "",
      "salt": "0xa47032bc36b1e32dcd67190744856ed4aa3b62851af661fd68e121f77b8ddb15",
      "assetIds": []
    },
    {
      "x": 95,
      "y": 9,
      "size": 1,
      "price": "1011000000000000000000",
      "reserved": "",
      "salt": "0xa6455764eef9e545cffc116809a7bcaed543ea0329a5f05a99245df1d059e438",
      "assetIds": []
    },
    {
      "x": 95,
      "y": 10,
      "size": 1,
      "price": "1011000000000000000000",
      "reserved": "",
      "salt": "0x7888351ccbad1d3351922227398e440f5725acc3a59033cbb9033e99369606db",
      "assetIds": []
    },
    {
      "x": 95,
      "y": 11,
      "size": 1,
      "price": "4683000000000000000000",
      "reserved": "",
      "salt": "0x6e2d1c3ef70d1d18862171963d56348a50fd0fecb04609810b635689cc0d2c4b",
      "assetIds": [
        "41506478881403507969696680653240014914910929820314476107906210059990541021186"
      ]
    },
    {
      "x": 95,
      "y": 18,
      "size": 1,
      "price": "4683000000000000000000",
      "reserved": "",
      "salt": "0x8c38d57fe7a15ca8c48881bc4ac3e02b5beb918657ea5875bca3ba60dfd27daa",
      "assetIds": [
        "41506478881403507969696680653240014914910929820314476107906210059990541021186"
      ]
    },
    {
      "x": 95,
      "y": 19,
      "size": 1,
      "price": "4683000000000000000000",
      "reserved": "",
      "salt": "0x4a2b58f50b8d82a29fd4d3a794034cfc10f73cde659bd8b6536249a41e98bb0c",
      "assetIds": [
        "41506478881403507969696680653240014914910929820314476107906210059990541021185"
      ]
    },
    {
      "x": 95,
      "y": 20,
      "size": 1,
      "price": "4683000000000000000000",
      "reserved": "",
      "salt": "0x1c3772c1fdcb0a97369b1f52d4589ec001e9855fd31c55ded93b3021fc8f56dc",
      "assetIds": [
        "41506478881403507969696680653240014914910929820314476107906210059990541021185"
      ]
    },
    {
      "x": 95,
      "y": 21,
      "size": 1,
      "price": "1011000000000000000000",
      "reserved": "",
      "salt": "0xd9898675f1e3bf1e7120664550c5a53d5dc639ded27ba7880187773797031b5e",
      "assetIds": []
    },
    {
      "x": 96,
      "y": 0,
      "size": 1,
      "price": "4683000000000000000000",
      "reserved": "",
      "salt": "0x809ab78a53e1d3588b6adb582620313fb2fe729c7b098bcfa5690cf2033916c3",
      "assetIds": [
        "41506478881403507969696680653240014914910929820314476107906210059990541021185"
      ]
    },
    {
      "x": 96,
      "y": 1,
      "size": 1,
      "price": "4683000000000000000000",
      "reserved": "",
      "salt": "0xb8031e10ca5370741c125d6af95f79fda64866877f696383511dc3e948c33880",
      "assetIds": [
        "41506478881403507969696680653240014914910929820314476107906210059990541021186"
      ]
    },
    {
      "x": 96,
      "y": 2,
      "size": 1,
      "price": "4683000000000000000000",
      "reserved": "",
      "salt": "0x931b75c9cd5d48db51574b85e7f81d93d6b3502b5aae49444e20273c558a2aa9",
      "assetIds": [
        "41506478881403507969696680653240014914910929820314476107906210059990541021186"
      ]
    },
    {
      "x": 96,
      "y": 3,
      "size": 1,
      "price": "4683000000000000000000",
      "reserved": "",
      "salt": "0x6647216cad5c8d5c3b742a882f17833b126cac908c523fa8c553ffd02d2dd560",
      "assetIds": [
        "41506478881403507969696680653240014914910929820314476107906210059990541021186"
      ]
    },
    {
      "x": 96,
      "y": 4,
      "size": 1,
      "price": "4683000000000000000000",
      "reserved": "",
      "salt": "0x30289baadc6da03c863388f8a80546162b329c4327973048f3b77867e1726eb9",
      "assetIds": [
        "41506478881403507969696680653240014914910929820314476107906210059990541021186"
      ]
    },
    {
      "x": 96,
      "y": 5,
      "size": 1,
      "price": "4683000000000000000000",
      "reserved": "",
      "salt": "0x0a41c57c2070e43096b98575cb5271e8bf422e09aed2da4bdbcda5f12c7e3ae1",
      "assetIds": [
        "41506478881403507969696680653240014914910929820314476107906210059990541021185"
      ]
    },
    {
      "x": 96,
      "y": 12,
      "size": 1,
      "price": "4683000000000000000000",
      "reserved": "",
      "salt": "0xa87275d5407e4c3f0b9bcd0cc729c433f12966f704c421f979b65e55532f02b4",
      "assetIds": [
        "41506478881403507969696680653240014914910929820314476107906210059990541021186"
      ]
    },
    {
      "x": 96,
      "y": 13,
      "size": 1,
      "price": "4683000000000000000000",
      "reserved": "",
      "salt": "0xb9719657d9647aabfc2ed19afcce255b7d62c742e0f3b5298c26eae3f5de42e6",
      "assetIds": [
        "41506478881403507969696680653240014914910929820314476107906210059990541021185"
      ]
    },
    {
      "x": 96,
      "y": 14,
      "size": 1,
      "price": "4683000000000000000000",
      "reserved": "",
      "salt": "0xc8e80cd740114a2a2b68bc0d682ec5ec07d02d560bd1944bcb4629d9d3060e04",
      "assetIds": [
        "41506478881403507969696680653240014914910929820314476107906210059990541021185"
      ]
    },
    {
      "x": 96,
      "y": 21,
      "size": 1,
      "price": "4683000000000000000000",
      "reserved": "",
      "salt": "0x1624ba62887e464d9f5bd3e8072814d98396c763ba775e96ad412128007c1602",
      "assetIds": [
        "41506478881403507969696680653240014914910929820314476107906210059990541021186"
      ]
    },
    {
      "x": 97,
      "y": 0,
      "size": 1,
      "price": "1011000000000000000000",
      "reserved": "",
      "salt": "0x098cc8d68eaa48ef136981932413f634362f914c1a964eaf3426894026a3192d",
      "assetIds": []
    },
    {
      "x": 97,
      "y": 1,
      "size": 1,
      "price": "1011000000000000000000",
      "reserved": "",
      "salt": "0x0e9d76692e991a5b99bc90ddc956816f8b0f8d6a7e7af351b5c8b950fe9b0081",
      "assetIds": []
    },
    {
      "x": 97,
      "y": 2,
      "size": 1,
      "price": "1011000000000000000000",
      "reserved": "",
      "salt": "0xafcbb2fa9077342a6acbde0d1be7d3da0be1ee95a91d548fc4e2c906a673202a",
      "assetIds": []
    },
    {
      "x": 97,
      "y": 3,
      "size": 1,
      "price": "1011000000000000000000",
      "reserved": "",
      "salt": "0x38958d366c5956807d885d52083ba076f0004a65daeda73808ffed7affffc0d3",
      "assetIds": []
    },
    {
      "x": 97,
      "y": 4,
      "size": 1,
      "price": "1011000000000000000000",
      "reserved": "",
      "salt": "0x9eaa0b89d178f14d5e1acb767c984471a289fcbe76b1e9a46a13383076fe0a33",
      "assetIds": []
    },
    {
      "x": 97,
      "y": 5,
      "size": 1,
      "price": "1011000000000000000000",
      "reserved": "",
      "salt": "0x319eafdc568876c89effe179c2d445660155ff80011778bff55b71568683f66a",
      "assetIds": []
    },
    {
      "x": 97,
      "y": 12,
      "size": 1,
      "price": "1011000000000000000000",
      "reserved": "",
      "salt": "0xd55b5b86847b624eb3db10e5c391a23ecbce50e2d7595dba7aeab2cf07b58c24",
      "assetIds": []
    },
    {
      "x": 97,
      "y": 13,
      "size": 1,
      "price": "1011000000000000000000",
      "reserved": "",
      "salt": "0xb7ac16a8ae6418b050f35bccc686d931475cbe033f11ef5d23f16c2099a9294f",
      "assetIds": []
    },
    {
      "x": 97,
      "y": 14,
      "size": 1,
      "price": "1011000000000000000000",
      "reserved": "",
      "salt": "0x98c7a98e82acaa606187f91ae56669d4f79b2cf8c32bd9e7c7aee0302407eb1b",
      "assetIds": []
    },
    {
      "x": 97,
      "y": 21,
      "size": 1,
      "price": "4683000000000000000000",
      "reserved": "",
      "salt": "0x7fbc276870f27ecb0d5633cefcb36cd88dfd1e7349817aa18d5ec6bb0a5e4295",
      "assetIds": [
        "41506478881403507969696680653240014914910929820314476107906210059990541021185"
      ]
    },
    {
      "x": 98,
      "y": 0,
      "size": 1,
      "price": "1011000000000000000000",
      "reserved": "",
      "salt": "0x330ce36f3f9e67c9370f247e0fbfc1bf339ad60f77694ca189a10f1f49ee4a9d",
      "assetIds": []
    },
    {
      "x": 98,
      "y": 1,
      "size": 1,
      "price": "1011000000000000000000",
      "reserved": "",
      "salt": "0xdc70aeb17309534fb475df14649f0d88b19354f3a845b19054b5ca2769393f00",
      "assetIds": []
    },
    {
      "x": 98,
      "y": 2,
      "size": 1,
      "price": "1011000000000000000000",
      "reserved": "",
      "salt": "0xb31276cdf7093eaff95cfb5227b8bc913659de388197d2399083f5e7752dd4dc",
      "assetIds": []
    },
    {
      "x": 98,
      "y": 3,
      "size": 1,
      "price": "1011000000000000000000",
      "reserved": "",
      "salt": "0x745b18d8929ad93f22e6f3cf25881b0642e6b18bdc70e8c6fa54f0b70672272e",
      "assetIds": []
    },
    {
      "x": 98,
      "y": 4,
      "size": 1,
      "price": "1011000000000000000000",
      "reserved": "",
      "salt": "0xeacef4f269241ace1c2cf9c5dc33acd8baefe489f33fce7e8412c80d8ae6dda0",
      "assetIds": []
    },
    {
      "x": 98,
      "y": 5,
      "size": 1,
      "price": "1011000000000000000000",
      "reserved": "",
      "salt": "0xa5f49ab73ed187c97118c788941a861ba5347df44f1acb857a40afdc4ac21a3f",
      "assetIds": []
    },
    {
      "x": 98,
      "y": 12,
      "size": 1,
      "price": "1011000000000000000000",
      "reserved": "",
      "salt": "0x4b4a2d5c26213bd716e0cab9ba7f9cc31e4e918f0d819926cdc6771c68cef31d",
      "assetIds": []
    },
    {
      "x": 98,
      "y": 13,
      "size": 1,
      "price": "1011000000000000000000",
      "reserved": "",
      "salt": "0x8abfdc386ddbb9494bf4cebaae64bda93066de4baae411a05891ec5484642924",
      "assetIds": []
    },
    {
      "x": 98,
      "y": 14,
      "size": 1,
      "price": "1011000000000000000000",
      "reserved": "",
      "salt": "0xaee77e76759c251abc148e0c11ada3f2d3a236bd4f9ca46efc67e22bd4afc4d8",
      "assetIds": []
    },
    {
      "x": 98,
      "y": 21,
      "size": 1,
      "price": "4683000000000000000000",
      "reserved": "",
      "salt": "0x2a18960a7433078211bdd1f85e48e6720932ebd805e007e1bf4af72b15b97a60",
      "assetIds": [
        "41506478881403507969696680653240014914910929820314476107906210059990541021186"
      ]
    },
    {
      "x": 99,
      "y": 0,
      "size": 1,
      "price": "1011000000000000000000",
      "reserved": "",
      "salt": "0xc406d622bd24b7c7f22d7a1aa975e27416f5d97d092affe9f34304a20de77ffe",
      "assetIds": []
    },
    {
      "x": 99,
      "y": 1,
      "size": 1,
      "price": "1011000000000000000000",
      "reserved": "",
      "salt": "0xfaec376b50d2bc0684df8df065fa78e60f0f453d56362091be5b0cf3d1e83bce",
      "assetIds": []
    },
    {
      "x": 99,
      "y": 2,
      "size": 1,
      "price": "1011000000000000000000",
      "reserved": "",
      "salt": "0x6bbc50d86e0d024c12bffd211f5054b85813e96ede00294e23085ca98829eef7",
      "assetIds": []
    },
    {
      "x": 99,
      "y": 12,
      "size": 1,
      "price": "1011000000000000000000",
      "reserved": "",
      "salt": "0xc7df54876dbfd47fb6aaa9973df21ad2e77c5855f972595d70a962d5668b6011",
      "assetIds": []
    },
    {
      "x": 99,
      "y": 13,
      "size": 1,
      "price": "1011000000000000000000",
      "reserved": "",
      "salt": "0x997c8530c68c3dc8bfad4bdd2460b4cd68a045a02f79724abd5772e270b20a39",
      "assetIds": []
    },
    {
      "x": 99,
      "y": 14,
      "size": 1,
      "price": "1011000000000000000000",
      "reserved": "",
      "salt": "0x1185afea90e2949568e62486e76377d0c9b2514b144ebd0d5b1076fa7a7d309c",
      "assetIds": []
    },
    {
      "x": 99,
      "y": 15,
      "size": 1,
      "price": "1011000000000000000000",
      "reserved": "",
      "salt": "0x35425eea8cf48d599b4704a08a612960578362fc75b64c233f0c11f02302f3d8",
      "assetIds": []
    },
    {
      "x": 99,
      "y": 16,
      "size": 1,
      "price": "1011000000000000000000",
      "reserved": "",
      "salt": "0x8b49d91a208f8b729d5a325b4df61df2e0a6442be0318b2da6b95ed3d6a324c1",
      "assetIds": []
    },
    {
      "x": 99,
      "y": 17,
      "size": 1,
      "price": "1011000000000000000000",
      "reserved": "",
      "salt": "0x1d6f508b81a92d37a302bc97a47ae2819c37987ccd739cc86bfefdc2468cbdfa",
      "assetIds": []
    },
    {
      "x": 99,
      "y": 21,
      "size": 1,
      "price": "1011000000000000000000",
      "reserved": "",
      "salt": "0xbaf90a15b6291013a6bf15f59ac0f4351df94a484b3a7c32ddc990d8aee3a4c5",
      "assetIds": []
    },
    {
      "x": 100,
      "y": 0,
      "size": 1,
      "price": "1011000000000000000000",
      "reserved": "",
      "salt": "0x4618a69fbd9e5cf8ee7c422c3e9bacd37f6fa3da09c0f4cc98bd3710638ccaa1",
      "assetIds": []
    },
    {
      "x": 100,
      "y": 1,
      "size": 1,
      "price": "1011000000000000000000",
      "reserved": "",
      "salt": "0x37a43217fb8e658fa88440a5da9fc670d82682d0709a7549066dada663772e15",
      "assetIds": []
    },
    {
      "x": 100,
      "y": 2,
      "size": 1,
      "price": "1011000000000000000000",
      "reserved": "",
      "salt": "0xa6c40d3fa55f8fca7212f698ae33a1c0a30c0046729352320a1ff65a329ea148",
      "assetIds": []
    },
    {
      "x": 100,
      "y": 12,
      "size": 1,
      "price": "1011000000000000000000",
      "reserved": "",
      "salt": "0x9531de30da2fdc9b5117fbc1dfdf0e881613ca7f9e4b6feb7a30e7b90f2e5229",
      "assetIds": []
    },
    {
      "x": 100,
      "y": 13,
      "size": 1,
      "price": "1011000000000000000000",
      "reserved": "",
      "salt": "0xbd1adeb4cffd99617dd2982778987571845e8ac40b633eb5a2a6108240ee741e",
      "assetIds": []
    },
    {
      "x": 100,
      "y": 14,
      "size": 1,
      "price": "1011000000000000000000",
      "reserved": "",
      "salt": "0x7bd348735fdc2787c6fd3de2e56f656492d715314265d9f1f7d3ef04d7e01594",
      "assetIds": []
    },
    {
      "x": 100,
      "y": 15,
      "size": 1,
      "price": "1011000000000000000000",
      "reserved": "",
      "salt": "0x570a04a1d036d9abcc99d36798141f734306c12ded92e0f5bb3ba15d4d74c29e",
      "assetIds": []
    },
    {
      "x": 100,
      "y": 16,
      "size": 1,
      "price": "1011000000000000000000",
      "reserved": "",
      "salt": "0x5daf5645b8472e7e8396891aba30686cd037629d87a68cc396e0901eae3b054d",
      "assetIds": []
    },
    {
      "x": 100,
      "y": 17,
      "size": 1,
      "price": "1011000000000000000000",
      "reserved": "",
      "salt": "0xe26c97758764c5d4a99a39803a2dd90b9e20f0d228b50a2cac552123938819cc",
      "assetIds": []
    },
    {
      "x": 100,
      "y": 21,
      "size": 1,
      "price": "1011000000000000000000",
      "reserved": "",
      "salt": "0xdfb31f18a76be58ab64f475424377a2c5ec2eed7baed8364b5924f5b7902f165",
      "assetIds": []
    },
    {
      "x": 101,
      "y": 0,
      "size": 1,
      "price": "1011000000000000000000",
      "reserved": "",
      "salt": "0xd45af412bed464a5bb1b234d8cc525d47a3fca635bce443acda906fe9bd0ac55",
      "assetIds": []
    },
    {
      "x": 101,
      "y": 1,
      "size": 1,
      "price": "1011000000000000000000",
      "reserved": "",
      "salt": "0x5c1f6644b09fe9b9d0ed5946b3788f30cae19fe37878cda44b291818e3633784",
      "assetIds": []
    },
    {
      "x": 101,
      "y": 2,
      "size": 1,
      "price": "1011000000000000000000",
      "reserved": "",
      "salt": "0xe2c70961b715f7b9e289891f1d6fedfbbe43b2bca153c5040099a4313639ee1b",
      "assetIds": []
    },
    {
      "x": 101,
      "y": 12,
      "size": 1,
      "price": "4683000000000000000000",
      "reserved": "",
      "salt": "0x7fc62b35e182285524cd89183fc37df23d1cbebdc11b10d6cb0176195ff9f94c",
      "assetIds": [
        "41506478881403507969696680653240014914910929820314476107906210059990541021186"
      ]
    },
    {
      "x": 101,
      "y": 13,
      "size": 1,
      "price": "4683000000000000000000",
      "reserved": "",
      "salt": "0x2d109dbe08f24581994c81e0ef30de6e66a70f85f133cfda3b2a49a904be92bb",
      "assetIds": [
        "41506478881403507969696680653240014914910929820314476107906210059990541021186"
      ]
    },
    {
      "x": 101,
      "y": 14,
      "size": 1,
      "price": "4683000000000000000000",
      "reserved": "",
      "salt": "0xada1b361a61789eada1d5a3cf5d795bb1df674269cca3353e269a74458795b84",
      "assetIds": [
        "41506478881403507969696680653240014914910929820314476107906210059990541021186"
      ]
    },
    {
      "x": 101,
      "y": 15,
      "size": 1,
      "price": "4683000000000000000000",
      "reserved": "",
      "salt": "0x1345fcfd00881d6a1674b0311ec8c9e5d6b62cd4ecd0a447a6acb164af1e5f19",
      "assetIds": [
        "41506478881403507969696680653240014914910929820314476107906210059990541021185"
      ]
    },
    {
      "x": 101,
      "y": 16,
      "size": 1,
      "price": "4683000000000000000000",
      "reserved": "",
      "salt": "0x165d4a20cde5f92354673547c487f029312d856a13401daf89f8b067adede9a4",
      "assetIds": [
        "41506478881403507969696680653240014914910929820314476107906210059990541021185"
      ]
    },
    {
      "x": 101,
      "y": 17,
      "size": 1,
      "price": "4683000000000000000000",
      "reserved": "",
      "salt": "0xa6aae5094e07354a85cceb04347835c9de463c975cb8d48a51b4a21f1ddb59d7",
      "assetIds": [
        "41506478881403507969696680653240014914910929820314476107906210059990541021186"
      ]
    },
    {
      "x": 101,
      "y": 21,
      "size": 1,
      "price": "1011000000000000000000",
      "reserved": "",
      "salt": "0x812700539d575d6a07a74777a10a7c64e2945cec0e38bbffe9dee83163846a95",
      "assetIds": []
    },
    {
      "x": 102,
      "y": 0,
      "size": 1,
      "price": "1011000000000000000000",
      "reserved": "",
      "salt": "0x0683ba58e1c8eee217d0615e576496d28519792c655a478aea9aea7e4c4468eb",
      "assetIds": []
    },
    {
      "x": 102,
      "y": 1,
      "size": 1,
      "price": "1011000000000000000000",
      "reserved": "",
      "salt": "0xb6c1d28ce7d0f72c42135ac3a0670736008f7bd544d8edbafbd16184dd3c9458",
      "assetIds": []
    },
    {
      "x": 102,
      "y": 2,
      "size": 1,
      "price": "1011000000000000000000",
      "reserved": "",
      "salt": "0x798660cf01f96c9111a045e6bd6419f981cbc68316b6752ea76fc836bac48b6a",
      "assetIds": []
    },
    {
      "x": 102,
      "y": 3,
      "size": 1,
      "price": "1011000000000000000000",
      "reserved": "",
      "salt": "0xcef3c1f5630d88cfc770788dbcf6e83068fadd1a3b5b0ae1a4f3467299792ea2",
      "assetIds": []
    },
    {
      "x": 102,
      "y": 4,
      "size": 1,
      "price": "1011000000000000000000",
      "reserved": "",
      "salt": "0x9b14babdc2a5adb69a5d80fb5682b2423573bcf15a497514c798946a4dc290b6",
      "assetIds": []
    },
    {
      "x": 102,
      "y": 5,
      "size": 1,
      "price": "4683000000000000000000",
      "reserved": "",
      "salt": "0xbe656ba70da5f26633e25c1ba467cd4fb2e430ba7c6cd6236df1b6bb8680ac2d",
      "assetIds": [
        "41506478881403507969696680653240014914910929820314476107906210059990541021185"
      ]
    },
    {
      "x": 102,
      "y": 9,
      "size": 1,
      "price": "4683000000000000000000",
      "reserved": "",
      "salt": "0x3243a27cf12d01c08e1b9db060749dc19daa2e5399a89c909e5fe59bb86a1b82",
      "assetIds": [
        "41506478881403507969696680653240014914910929820314476107906210059990541021185"
      ]
    },
    {
      "x": 102,
      "y": 10,
      "size": 1,
      "price": "1011000000000000000000",
      "reserved": "",
      "salt": "0x65af830bc471968c0f040784c9fb763c4f686218633d9e522a6f7566ab14b8ce",
      "assetIds": []
    },
    {
      "x": 102,
      "y": 11,
      "size": 1,
      "price": "4683000000000000000000",
      "reserved": "",
      "salt": "0xb1ef7b347864818adf4fce919f003056c15263d9380755c14d8a5db85c083a72",
      "assetIds": [
        "41506478881403507969696680653240014914910929820314476107906210059990541021186"
      ]
    },
    {
      "x": 102,
      "y": 18,
      "size": 1,
      "price": "4683000000000000000000",
      "reserved": "",
      "salt": "0xee8662e889d5b49c87419cf7a228f3d8549d4c6f177d36caa92f68939cf172f4",
      "assetIds": [
        "41506478881403507969696680653240014914910929820314476107906210059990541021186"
      ]
    },
    {
      "x": 102,
      "y": 19,
      "size": 1,
      "price": "1011000000000000000000",
      "reserved": "",
      "salt": "0xfedfb05515e7a7069485e0e6988adb1ca9c7770c5ae80f5cc128d393e9ad6403",
      "assetIds": []
    },
    {
      "x": 102,
      "y": 20,
      "size": 1,
      "price": "1011000000000000000000",
      "reserved": "",
      "salt": "0x0e57e006a068a1836552c73afad0c49cda132878be700afe552ce643c2c6d77a",
      "assetIds": []
    },
    {
      "x": 102,
      "y": 21,
      "size": 1,
      "price": "1011000000000000000000",
      "reserved": "",
      "salt": "0x90fc1bdc127441a7af0b81f1224ae83065021753676d69322dcf8421a484a6a1",
      "assetIds": []
    },
    {
      "x": 103,
      "y": 0,
      "size": 1,
      "price": "1011000000000000000000",
      "reserved": "",
      "salt": "0xa5f9a0e1753bae53d3d653c9ab05f20482222430e89980afcc74fd03c82cee16",
      "assetIds": []
    },
    {
      "x": 103,
      "y": 1,
      "size": 1,
      "price": "1011000000000000000000",
      "reserved": "",
      "salt": "0x1588e5022cbe6e7ce04ca1b1dcbecc68bad11323fe19f4a02217dbbf9e07758b",
      "assetIds": []
    },
    {
      "x": 103,
      "y": 2,
      "size": 1,
      "price": "1011000000000000000000",
      "reserved": "",
      "salt": "0xfa4556f714e78c91e641d70ce31bcc4e8658b4461bf5a5466c0a1423881ab159",
      "assetIds": []
    },
    {
      "x": 103,
      "y": 3,
      "size": 1,
      "price": "1011000000000000000000",
      "reserved": "",
      "salt": "0x6adf1b7184db04dda742dc8650d6b1cef98e61b57aac680e15d052eafe16b927",
      "assetIds": []
    },
    {
      "x": 103,
      "y": 4,
      "size": 1,
      "price": "1011000000000000000000",
      "reserved": "",
      "salt": "0x7cf563dc7c68c579dd7615124720732fe5f15b391a946588ac1e431111b90232",
      "assetIds": []
    },
    {
      "x": 103,
      "y": 5,
      "size": 1,
      "price": "4683000000000000000000",
      "reserved": "",
      "salt": "0xd3be99e83feaac8ca9bdbbb062a174a37f921077bc3347c83deb16bb1dd7327b",
      "assetIds": [
        "41506478881403507969696680653240014914910929820314476107906210059990541021185"
      ]
    },
    {
      "x": 103,
      "y": 9,
      "size": 1,
      "price": "4683000000000000000000",
      "reserved": "",
      "salt": "0x79375516445738c32ed7509e3c6ad4264b8bed9993469fcdf9033c93e0e5d06a",
      "assetIds": [
        "41506478881403507969696680653240014914910929820314476107906210059990541021185"
      ]
    },
    {
      "x": 103,
      "y": 10,
      "size": 1,
      "price": "1011000000000000000000",
      "reserved": "",
      "salt": "0x24382d99aff9fd7dadda688f89a4da764023575cf7f47992a464d02263614368",
      "assetIds": []
    },
    {
      "x": 103,
      "y": 11,
      "size": 1,
      "price": "4683000000000000000000",
      "reserved": "",
      "salt": "0xb40cd2c6b7a36a622fb002efcca4247f0ec68a85e99cfd9b64d6fb615cf28d37",
      "assetIds": [
        "41506478881403507969696680653240014914910929820314476107906210059990541021185"
      ]
    },
    {
      "x": 103,
      "y": 18,
      "size": 1,
      "price": "4683000000000000000000",
      "reserved": "",
      "salt": "0x45ef9ed147806720100005202b66bf4df68edb3dc1ee3eac36e6f2c5157bdd7c",
      "assetIds": [
        "41506478881403507969696680653240014914910929820314476107906210059990541021185"
      ]
    },
    {
      "x": 103,
      "y": 19,
      "size": 1,
      "price": "1011000000000000000000",
      "reserved": "",
      "salt": "0xdc19761ca23318b6c76ac709761eeca9c12ce980e03835e36bd2388f7e632691",
      "assetIds": []
    },
    {
      "x": 103,
      "y": 20,
      "size": 1,
      "price": "1011000000000000000000",
      "reserved": "",
      "salt": "0x133490193e54489ffa2763680c9ac1d18d5db105567de547b454fdf4f5e9ca8a",
      "assetIds": []
    },
    {
      "x": 103,
      "y": 21,
      "size": 1,
      "price": "1011000000000000000000",
      "reserved": "",
      "salt": "0x8da12c9975eeb76c5872fbd2a8e9b34098856a3a80eb46090739366ed1e74cdf",
      "assetIds": []
    },
    {
      "x": 104,
      "y": 0,
      "size": 1,
      "price": "1011000000000000000000",
      "reserved": "",
      "salt": "0x7f75ff032f08497c23b6888f01171473f74dd0193af663a8da5c436542088614",
      "assetIds": []
    },
    {
      "x": 104,
      "y": 1,
      "size": 1,
      "price": "1011000000000000000000",
      "reserved": "",
      "salt": "0x78aad63fed48608a2e92273cd7be0a2a0cd6818b8c35d54cbd51c0e0da26fb1d",
      "assetIds": []
    },
    {
      "x": 104,
      "y": 2,
      "size": 1,
      "price": "1011000000000000000000",
      "reserved": "",
      "salt": "0xd02113e674dbd7e2791292aba5e235db0701a2fce28ef050ef3a5e69388bfdc2",
      "assetIds": []
    },
    {
      "x": 104,
      "y": 3,
      "size": 1,
      "price": "1011000000000000000000",
      "reserved": "",
      "salt": "0x2dda5bc10ca7e01222c4d490f7d54ee6069a30ff02f8f006608eb44870e17a07",
      "assetIds": []
    },
    {
      "x": 104,
      "y": 4,
      "size": 1,
      "price": "1011000000000000000000",
      "reserved": "",
      "salt": "0xe7b73cd8dd83c62aef62188fb0f0f7539161cfdd464038344eb5b8249f1cca93",
      "assetIds": []
    },
    {
      "x": 104,
      "y": 5,
      "size": 1,
      "price": "4683000000000000000000",
      "reserved": "",
      "salt": "0x3c709622e66bca3267e50264e202ede79dcf3582cd2b8f7cd38f53fad2c1ddc0",
      "assetIds": [
        "41506478881403507969696680653240014914910929820314476107906210059990541021186"
      ]
    },
    {
      "x": 104,
      "y": 9,
      "size": 1,
      "price": "4683000000000000000000",
      "reserved": "",
      "salt": "0xd9ac95dcddaad437e50e12f9b887abaa2155fa47c8c3df9c6cdec77c40cd94f1",
      "assetIds": [
        "41506478881403507969696680653240014914910929820314476107906210059990541021185"
      ]
    },
    {
      "x": 104,
      "y": 10,
      "size": 1,
      "price": "1011000000000000000000",
      "reserved": "",
      "salt": "0x7325754dddd327e5df591dbb748b64f105920c9ef62fe799ff97c35f7b2dc79a",
      "assetIds": []
    },
    {
      "x": 104,
      "y": 11,
      "size": 1,
      "price": "4683000000000000000000",
      "reserved": "",
      "salt": "0x897be3258975aa15c6663585ab304029c29db380a71de3f2a3de7299c5454604",
      "assetIds": [
        "41506478881403507969696680653240014914910929820314476107906210059990541021186"
      ]
    },
    {
      "x": 104,
      "y": 18,
      "size": 1,
      "price": "4683000000000000000000",
      "reserved": "",
      "salt": "0xd4771e3d4f5ca1cd0321e98c44f1c5f9a8445b025a43ac5462f5e8905db699d1",
      "assetIds": [
        "41506478881403507969696680653240014914910929820314476107906210059990541021186"
      ]
    },
    {
      "x": 104,
      "y": 19,
      "size": 1,
      "price": "1011000000000000000000",
      "reserved": "",
      "salt": "0x309d70606677bdd305b0808040da333ac2e3cbfbeab70a6ebaf899d6c7e37f83",
      "assetIds": []
    },
    {
      "x": 104,
      "y": 20,
      "size": 1,
      "price": "1011000000000000000000",
      "reserved": "",
      "salt": "0x5894027e637e575fe26c2ec9848214a0b9979e8f6e2fc0e0a4ff8ae08fcfa05d",
      "assetIds": []
    },
    {
      "x": 104,
      "y": 21,
      "size": 1,
      "price": "1011000000000000000000",
      "reserved": "",
      "salt": "0xecb6a1657b4c0415b94744bc63b6836b190f0d5e4a34ebf0c595e62dbe8158c1",
      "assetIds": []
    },
    {
      "x": 105,
      "y": 0,
      "size": 1,
      "price": "1011000000000000000000",
      "reserved": "",
      "salt": "0x56dc26e3bc255da74c03b4fed2fc61ef839f1eae854905a2990542cb4db801c4",
      "assetIds": []
    },
    {
      "x": 105,
      "y": 1,
      "size": 1,
      "price": "1011000000000000000000",
      "reserved": "",
      "salt": "0xa6e416611f8f8a4a92f4f9f9e61c3a04091a828b07b1e340a5507663b3d2af3f",
      "assetIds": []
    },
    {
      "x": 105,
      "y": 2,
      "size": 1,
      "price": "1011000000000000000000",
      "reserved": "",
      "salt": "0x25d4a7b2871afc2a80aa681d0bf6e6eae697d5fe10d37b08e265eff1e6c72ed0",
      "assetIds": []
    },
    {
      "x": 105,
      "y": 3,
      "size": 1,
      "price": "1011000000000000000000",
      "reserved": "",
      "salt": "0x0976b94b66c18a592823c34b32687289ca5002d872ba648d9e44ab2eb7cc2e2b",
      "assetIds": []
    },
    {
      "x": 105,
      "y": 4,
      "size": 1,
      "price": "1011000000000000000000",
      "reserved": "",
      "salt": "0x3a90cf0b7fe386b7e6894074069a52c135e6065d70c5cca458586b942b0b799a",
      "assetIds": []
    },
    {
      "x": 105,
      "y": 5,
      "size": 1,
      "price": "1011000000000000000000",
      "reserved": "",
      "salt": "0x5cf3dc469cce421a78f917bf6496cbb19ee7a420a723b12ef998c86680bf05e6",
      "assetIds": []
    },
    {
      "x": 105,
      "y": 6,
      "size": 1,
      "price": "4683000000000000000000",
      "reserved": "",
      "salt": "0xf2e0682423d3e13e10ab0b5a6fdf667b0bb18b76a488b1ddfd85e9e1b8d3fea7",
      "assetIds": [
        "41506478881403507969696680653240014914910929820314476107906210059990541021186"
      ]
    },
    {
      "x": 105,
      "y": 7,
      "size": 1,
      "price": "4683000000000000000000",
      "reserved": "",
      "salt": "0x9ec9f49a39668f9c15b65333a1d42dd05ac4f49b21781d95165938b506c4c326",
      "assetIds": [
        "41506478881403507969696680653240014914910929820314476107906210059990541021185"
      ]
    },
    {
      "x": 105,
      "y": 8,
      "size": 1,
      "price": "4683000000000000000000",
      "reserved": "",
      "salt": "0x232272286b375bdb8fb7651700d4a245140da27d13e7e732d99081b5a969ec6e",
      "assetIds": [
        "41506478881403507969696680653240014914910929820314476107906210059990541021185"
      ]
    },
    {
      "x": 105,
      "y": 18,
      "size": 1,
      "price": "4683000000000000000000",
      "reserved": "",
      "salt": "0xad8bff86839797faf10e6e69af4c6fc28d4bc4ec95173c32ba0fb6581d2fc740",
      "assetIds": [
        "41506478881403507969696680653240014914910929820314476107906210059990541021186"
      ]
    },
    {
      "x": 105,
      "y": 19,
      "size": 1,
      "price": "1011000000000000000000",
      "reserved": "",
      "salt": "0x744b4c1e2c1d2e6e89f4b776fc72f1f6d213dd2ad184d5d8044380350a3e71ee",
      "assetIds": []
    },
    {
      "x": 105,
      "y": 20,
      "size": 1,
      "price": "1011000000000000000000",
      "reserved": "",
      "salt": "0x33772fde112af0a6feefde56c900a945f6ac5ea01704ac814f48fcbc131d4cb8",
      "assetIds": []
    },
    {
      "x": 105,
      "y": 21,
      "size": 1,
      "price": "1011000000000000000000",
      "reserved": "",
      "salt": "0x8522d44b998dd51736d1b2d401ffe3a36d69f0da55806a98e5bb28c3d7e860f3",
      "assetIds": []
    },
    {
      "x": 106,
      "y": 0,
      "size": 1,
      "price": "1011000000000000000000",
      "reserved": "",
      "salt": "0x7abbd29880287bdcfba28138458d37576ac6f26101faf8c5cdf8d1b087ad991c",
      "assetIds": []
    },
    {
      "x": 106,
      "y": 1,
      "size": 1,
      "price": "1011000000000000000000",
      "reserved": "",
      "salt": "0x5e603c467692165057afac8fe7739e201dd19ed648249b83bf52686ec1fa4ecd",
      "assetIds": []
    },
    {
      "x": 106,
      "y": 2,
      "size": 1,
      "price": "1011000000000000000000",
      "reserved": "",
      "salt": "0xbfd223cfc34fcccc175b0ecfe84fc1d820ae571896cf1528fff9544f7625adf3",
      "assetIds": []
    },
    {
      "x": 106,
      "y": 3,
      "size": 1,
      "price": "1011000000000000000000",
      "reserved": "",
      "salt": "0xd005ce93802979f3ae8a1b292221a44bb62fc5a7fa563a479aad5f9b219ea60a",
      "assetIds": []
    },
    {
      "x": 106,
      "y": 4,
      "size": 1,
      "price": "1011000000000000000000",
      "reserved": "",
      "salt": "0x5514235e029a3806f712005fd7b3659bf62730669d5326ae6f20668874560b7d",
      "assetIds": []
    },
    {
      "x": 106,
      "y": 5,
      "size": 1,
      "price": "1011000000000000000000",
      "reserved": "",
      "salt": "0x0251266ef1ec37c5ee3973e948af6a243f75da1479c74928d5435413ab4f9c19",
      "assetIds": []
    },
    {
      "x": 106,
      "y": 6,
      "size": 1,
      "price": "1011000000000000000000",
      "reserved": "",
      "salt": "0x91864457d0585b849827fb75a500634ee16a2ce2983f51337e2f4eb0f410c554",
      "assetIds": []
    },
    {
      "x": 106,
      "y": 7,
      "size": 1,
      "price": "1011000000000000000000",
      "reserved": "",
      "salt": "0x7f04b29af9fcff0ebd10f1565c32bece01d15e326154463b705507b4c09356da",
      "assetIds": []
    },
    {
      "x": 106,
      "y": 8,
      "size": 1,
      "price": "4683000000000000000000",
      "reserved": "",
      "salt": "0x2a09c2ff9ba73510829099ac462af5e18fa291546be6f043dd9b65dd574b0efd",
      "assetIds": [
        "41506478881403507969696680653240014914910929820314476107906210059990541021185"
      ]
    },
    {
      "x": 106,
      "y": 18,
      "size": 1,
      "price": "4683000000000000000000",
      "reserved": "",
      "salt": "0x8fc191b75a043dc5bf8e1619eceb2bbfd18bb53e47add8aae6c9a4728652ac4d",
      "assetIds": [
        "41506478881403507969696680653240014914910929820314476107906210059990541021185"
      ]
    },
    {
      "x": 106,
      "y": 19,
      "size": 1,
      "price": "1011000000000000000000",
      "reserved": "",
      "salt": "0x746d48e0661ebe488d91076fff036588b30d59171be589080ac89fc8d74dca1a",
      "assetIds": []
    },
    {
      "x": 106,
      "y": 20,
      "size": 1,
      "price": "1011000000000000000000",
      "reserved": "",
      "salt": "0xba70179d2f51528355c21eef4b7e145959c929f80e5607b80ab00e72263016f9",
      "assetIds": []
    },
    {
      "x": 106,
      "y": 21,
      "size": 1,
      "price": "1011000000000000000000",
      "reserved": "",
      "salt": "0xb1c5b4779edd9beced5157e24ffba6e94dc95675f2582f964647b6cd31219eb0",
      "assetIds": []
    },
    {
      "x": 107,
      "y": 0,
      "size": 1,
      "price": "4683000000000000000000",
      "reserved": "",
      "salt": "0x30fda48d2e4cd6087ef9d591751dd08d81578dfa476b9ce7c5bd93ad1454385c",
      "assetIds": [
        "41506478881403507969696680653240014914910929820314476107906210059990541021186"
      ]
    },
    {
      "x": 107,
      "y": 1,
      "size": 1,
      "price": "4683000000000000000000",
      "reserved": "",
      "salt": "0xc15a754e50e23f055f3ed1348d8540d133598fdd42636f04676eae8f0e10a764",
      "assetIds": [
        "41506478881403507969696680653240014914910929820314476107906210059990541021185"
      ]
    },
    {
      "x": 107,
      "y": 2,
      "size": 1,
      "price": "4683000000000000000000",
      "reserved": "",
      "salt": "0x03ba81b3b7c26ca0395155991b80563f48947bb2249736df48dacf808a206e09",
      "assetIds": [
        "41506478881403507969696680653240014914910929820314476107906210059990541021185"
      ]
    },
    {
      "x": 107,
      "y": 3,
      "size": 1,
      "price": "4683000000000000000000",
      "reserved": "",
      "salt": "0x853dc8343fe26eefbcc96640dae51fd3fe0e167073e63bb612821fa995edec34",
      "assetIds": [
        "41506478881403507969696680653240014914910929820314476107906210059990541021185"
      ]
    },
    {
      "x": 107,
      "y": 4,
      "size": 1,
      "price": "4683000000000000000000",
      "reserved": "",
      "salt": "0xa20295be0a8540d8baf84d0384cdbaef68b09a00fbf7098be610061658d39baf",
      "assetIds": [
        "41506478881403507969696680653240014914910929820314476107906210059990541021185"
      ]
    },
    {
      "x": 107,
      "y": 5,
      "size": 1,
      "price": "4683000000000000000000",
      "reserved": "",
      "salt": "0x472183c78fbc378448ab2812d25a6c494417f75c5cf76fc5797be9514090ff53",
      "assetIds": [
        "41506478881403507969696680653240014914910929820314476107906210059990541021185"
      ]
    },
    {
      "x": 107,
      "y": 6,
      "size": 1,
      "price": "1011000000000000000000",
      "reserved": "",
      "salt": "0xccac804f3f5b9a33f0f64e4fa9f0aeaa7316a7aa3af611d43210faf3f3e7438d",
      "assetIds": []
    },
    {
      "x": 107,
      "y": 7,
      "size": 1,
      "price": "1011000000000000000000",
      "reserved": "",
      "salt": "0x34b77dc8fb84cb779fce7895bc7f3cfdb9688c22241ef7b650c915c95176b40c",
      "assetIds": []
    },
    {
      "x": 107,
      "y": 8,
      "size": 1,
      "price": "4683000000000000000000",
      "reserved": "",
      "salt": "0xcb3971fa0279fa308e772f90e9f1b461b0bc39ff26ed175753c670204eda72ec",
      "assetIds": [
        "41506478881403507969696680653240014914910929820314476107906210059990541021186"
      ]
    },
    {
      "x": 107,
      "y": 18,
      "size": 1,
      "price": "4683000000000000000000",
      "reserved": "",
      "salt": "0xef12f65e2382bc9afa988ea1a60e1b73e92d4aa6bfef3b9585cc02b6abcc2b7b",
      "assetIds": [
        "41506478881403507969696680653240014914910929820314476107906210059990541021185"
      ]
    },
    {
      "x": 107,
      "y": 19,
      "size": 1,
      "price": "1011000000000000000000",
      "reserved": "",
      "salt": "0x28a77ee4c6dd26b046a8da9007a9dae98278c8c4b35321de7a384a1fc9dd8291",
      "assetIds": []
    },
    {
      "x": 107,
      "y": 20,
      "size": 1,
      "price": "1011000000000000000000",
      "reserved": "",
      "salt": "0xf5b603cdf2ec7740d64ee49d5c04b5ec776f0e7742c8d872095cb2faf092004b",
      "assetIds": []
    },
    {
      "x": 107,
      "y": 21,
      "size": 1,
      "price": "1011000000000000000000",
      "reserved": "",
      "salt": "0x900bf262a26117e9045ef72469246df16cd90eac0d58d5659f0499cf4573a91b",
      "assetIds": []
    },
    {
      "x": 108,
      "y": 6,
      "size": 1,
      "price": "4683000000000000000000",
      "reserved": "",
      "salt": "0x1649dec4fcfb95cc99aff08cc95c2beb113f2587818cb2677a4e9182107c7f69",
      "assetIds": [
        "41506478881403507969696680653240014914910929820314476107906210059990541021185"
      ]
    },
    {
      "x": 108,
      "y": 7,
      "size": 1,
      "price": "1011000000000000000000",
      "reserved": "",
      "salt": "0xf002b3723e95469600360010413b4a45fd59ef12c0b11e943f282f0e5578ad14",
      "assetIds": []
    },
    {
      "x": 108,
      "y": 8,
      "size": 1,
      "price": "4683000000000000000000",
      "reserved": "",
      "salt": "0x2b00593d7fc9145716edfe704dcc26fbb94ac1435392cfe7cfe7622723fed3bc",
      "assetIds": [
        "41506478881403507969696680653240014914910929820314476107906210059990541021186"
      ]
    },
    {
      "x": 108,
      "y": 12,
      "size": 1,
      "price": "4683000000000000000000",
      "reserved": "",
      "salt": "0xff28344a32deca82e65d597f2cc9370ab1b117647b6c609ddfdf0bad91a6f86a",
      "assetIds": [
        "41506478881403507969696680653240014914910929820314476107906210059990541021186"
      ]
    },
    {
      "x": 108,
      "y": 13,
      "size": 1,
      "price": "4683000000000000000000",
      "reserved": "",
      "salt": "0x5e1124b94b6677c98ff0de5be47da2f0620af0605198afe7b41fe766c8584cfe",
      "assetIds": [
        "41506478881403507969696680653240014914910929820314476107906210059990541021186"
      ]
    },
    {
      "x": 108,
      "y": 14,
      "size": 1,
      "price": "4683000000000000000000",
      "reserved": "",
      "salt": "0x0bf8c3a56ab7e5f1330573d3203a72b01a63d82fa2eb5656770bac3691bac6e3",
      "assetIds": [
        "41506478881403507969696680653240014914910929820314476107906210059990541021185"
      ]
    },
    {
      "x": 108,
      "y": 15,
      "size": 1,
      "price": "4683000000000000000000",
      "reserved": "",
      "salt": "0x9068265cef7ba2668349689ccd447056bae272763951681c9271abd9317d1a7e",
      "assetIds": [
        "41506478881403507969696680653240014914910929820314476107906210059990541021186"
      ]
    },
    {
      "x": 108,
      "y": 16,
      "size": 1,
      "price": "4683000000000000000000",
      "reserved": "",
      "salt": "0x85c2ef4f4cff0dc8532bf65bbac137d511bf5e087254b43b898b5617df302951",
      "assetIds": [
        "41506478881403507969696680653240014914910929820314476107906210059990541021186"
      ]
    },
    {
      "x": 108,
      "y": 17,
      "size": 1,
      "price": "4683000000000000000000",
      "reserved": "",
      "salt": "0x810a087fdee871213f655fa35faf42c09adf895e07253fead6aba46aa9c87b18",
      "assetIds": [
        "41506478881403507969696680653240014914910929820314476107906210059990541021185"
      ]
    },
    {
      "x": 108,
      "y": 21,
      "size": 1,
      "price": "1011000000000000000000",
      "reserved": "",
      "salt": "0xd5987fd09276fba13f0320a8a403c2ea45493c7b730d855d8bfd613ace63a374",
      "assetIds": []
    },
    {
      "x": 109,
      "y": 6,
      "size": 1,
      "price": "4683000000000000000000",
      "reserved": "",
      "salt": "0x78380bbe8669117a437d5819d097b4808ebec93257384942c09ebcf2de32cb34",
      "assetIds": [
        "41506478881403507969696680653240014914910929820314476107906210059990541021186"
      ]
    },
    {
      "x": 109,
      "y": 7,
      "size": 1,
      "price": "1011000000000000000000",
      "reserved": "",
      "salt": "0xbe47e8a0e127a354b4f6b7947a65150951fa06d69767945136712731badcd530",
      "assetIds": []
    },
    {
      "x": 109,
      "y": 8,
      "size": 1,
      "price": "4683000000000000000000",
      "reserved": "",
      "salt": "0x7a0d4931038bed99b262cb9c044f6054504df02cde8ff0956a994b9d4e6ceab8",
      "assetIds": [
        "41506478881403507969696680653240014914910929820314476107906210059990541021185"
      ]
    },
    {
      "x": 109,
      "y": 12,
      "size": 1,
      "price": "1011000000000000000000",
      "reserved": "",
      "salt": "0x5751336c07fd53a3f40f9a3d200a52cd41a1ea258974e641651ad3d570e8f6c4",
      "assetIds": []
    },
    {
      "x": 109,
      "y": 13,
      "size": 1,
      "price": "1011000000000000000000",
      "reserved": "",
      "salt": "0x5ec0ca7e50154590501669f0d04f3de15e2a4c14c976bbf504c5d3afde74f245",
      "assetIds": []
    },
    {
      "x": 109,
      "y": 14,
      "size": 1,
      "price": "1011000000000000000000",
      "reserved": "",
      "salt": "0xa551b722a235dd317af231b7f5c7f2443b1a1d38d211274f42481529ec45fd26",
      "assetIds": []
    },
    {
      "x": 109,
      "y": 15,
      "size": 1,
      "price": "1011000000000000000000",
      "reserved": "",
      "salt": "0xd48ac72e26e7d6b17dc3f6c57d1aaf78c24f95ffedd57acb83f00dd1c6a2adee",
      "assetIds": []
    },
    {
      "x": 109,
      "y": 16,
      "size": 1,
      "price": "1011000000000000000000",
      "reserved": "",
      "salt": "0x8cf3af2bb081204acea33f367abda971f0bba9bdb21bbc5230cafb6c58a642e5",
      "assetIds": []
    },
    {
      "x": 109,
      "y": 17,
      "size": 1,
      "price": "1011000000000000000000",
      "reserved": "",
      "salt": "0x2cac875ce79de08f6c8bd072041e000a17ccdfbde3d2c9c939688a1ecf7c8059",
      "assetIds": []
    },
    {
      "x": 109,
      "y": 21,
      "size": 1,
      "price": "1011000000000000000000",
      "reserved": "",
      "salt": "0xb2d817573f3db1c126c498602297eced776708c58b9340a04b2e48239fd2ea28",
      "assetIds": []
    },
    {
      "x": 110,
      "y": 6,
      "size": 1,
      "price": "4683000000000000000000",
      "reserved": "",
      "salt": "0x165a2c467e0fd66bed05f2de3b8350648a1280857fb65376d0bc1d9a1e44e388",
      "assetIds": [
        "41506478881403507969696680653240014914910929820314476107906210059990541021185"
      ]
    },
    {
      "x": 110,
      "y": 7,
      "size": 1,
      "price": "1011000000000000000000",
      "reserved": "",
      "salt": "0x41f95c12db5eb72ecf09e8394c4749dd0135afd7c7b90f962cdf8f789f4efc82",
      "assetIds": []
    },
    {
      "x": 110,
      "y": 8,
      "size": 1,
      "price": "4683000000000000000000",
      "reserved": "",
      "salt": "0xa3ac7a777e47e55b1abfc3aba1e8f5f1df2b6220b08a762f8e49addac401ff02",
      "assetIds": [
        "41506478881403507969696680653240014914910929820314476107906210059990541021186"
      ]
    },
    {
      "x": 110,
      "y": 12,
      "size": 1,
      "price": "1011000000000000000000",
      "reserved": "",
      "salt": "0x3b15b792d4e617d5755b3675a2f6951265f540004ed85e770717e70e2e922fa6",
      "assetIds": []
    },
    {
      "x": 110,
      "y": 13,
      "size": 1,
      "price": "1011000000000000000000",
      "reserved": "",
      "salt": "0xc018d4ca8d8788120ff9586df7b7de16cf1c54ac42233138a701637c986ea539",
      "assetIds": []
    },
    {
      "x": 110,
      "y": 14,
      "size": 1,
      "price": "1011000000000000000000",
      "reserved": "",
      "salt": "0xfeb7b1178f53ad1d342a9493df7b36f7e5e84aafb554a0ae4cd7b8bb2df6a8f8",
      "assetIds": []
    },
    {
      "x": 110,
      "y": 15,
      "size": 1,
      "price": "1011000000000000000000",
      "reserved": "",
      "salt": "0x0848db96769d29119f2a60f11bef59da966c3b79ac2a5201728b9031d242ab88",
      "assetIds": []
    },
    {
      "x": 110,
      "y": 16,
      "size": 1,
      "price": "1011000000000000000000",
      "reserved": "",
      "salt": "0x4a8b987ad98411b54e3923cfa5d1cbdd1747723c80b37af8de367dfaa60c047f",
      "assetIds": []
    },
    {
      "x": 110,
      "y": 17,
      "size": 1,
      "price": "1011000000000000000000",
      "reserved": "",
      "salt": "0x1ecd05c9db13340c9f9c809051fcbe3402efc332f48095d06843b9d5a75e6475",
      "assetIds": []
    },
    {
      "x": 110,
      "y": 21,
      "size": 1,
      "price": "1011000000000000000000",
      "reserved": "",
      "salt": "0x83fea4494c2dbe8e651edf1d49ec811652fcf437509693d0733c9168108ee8fd",
      "assetIds": []
    },
    {
      "x": 111,
      "y": 6,
      "size": 1,
      "price": "4683000000000000000000",
      "reserved": "",
      "salt": "0x4c7ba1f4dc088d941014380d17b427e2326a5218c1fcb655f50b8d4c572fd6a8",
      "assetIds": [
        "41506478881403507969696680653240014914910929820314476107906210059990541021185"
      ]
    },
    {
      "x": 111,
      "y": 7,
      "size": 1,
      "price": "1011000000000000000000",
      "reserved": "",
      "salt": "0xf28124a1c1d8b4a56a1fde6555fd0f186144deabf84e2897494bde0d33b0fa46",
      "assetIds": []
    },
    {
      "x": 111,
      "y": 8,
      "size": 1,
      "price": "1011000000000000000000",
      "reserved": "",
      "salt": "0x97a435460cd381f3b4e539cec744d380cc0c5c1284292b85dfebc9f017896ffb",
      "assetIds": []
    },
    {
      "x": 111,
      "y": 9,
      "size": 1,
      "price": "4683000000000000000000",
      "reserved": "",
      "salt": "0x080c3ff2082ed3c01686adae4744ddc540567485d6f40a7aef882b17a0a41a0a",
      "assetIds": [
        "41506478881403507969696680653240014914910929820314476107906210059990541021186"
      ]
    },
    {
      "x": 111,
      "y": 10,
      "size": 1,
      "price": "4683000000000000000000",
      "reserved": "",
      "salt": "0x87e0d574fc953e71c47b498890d97ac2a3ea56353dd29b539b820df9ef9cf1a4",
      "assetIds": [
        "41506478881403507969696680653240014914910929820314476107906210059990541021186"
      ]
    },
    {
      "x": 111,
      "y": 11,
      "size": 1,
      "price": "4683000000000000000000",
      "reserved": "",
      "salt": "0x4636967c0dfe4897dba9262e34d4da777090d1539a605ac7b069f366c4ba4361",
      "assetIds": [
        "41506478881403507969696680653240014914910929820314476107906210059990541021186"
      ]
    },
    {
      "x": 111,
      "y": 15,
      "size": 1,
      "price": "1011000000000000000000",
      "reserved": "",
      "salt": "0xc6f2cbe7a312109b1f65dafd76f16290bb229c3dbbc50ff898dd10b28da1d163",
      "assetIds": []
    },
    {
      "x": 111,
      "y": 16,
      "size": 1,
      "price": "1011000000000000000000",
      "reserved": "",
      "salt": "0xdcda7ee75f0203cf2acb9d6807c27393da36cdf76e8c0559be122bb4ae5b422a",
      "assetIds": []
    },
    {
      "x": 111,
      "y": 17,
      "size": 1,
      "price": "1011000000000000000000",
      "reserved": "",
      "salt": "0x6c97d694915703091eb2aa1368cab73a6fad25615c152170dbdf0c0b4373eb2e",
      "assetIds": []
    },
    {
      "x": 111,
      "y": 21,
      "size": 1,
      "price": "4683000000000000000000",
      "reserved": "",
      "salt": "0xa7864eaca1c19133c5d7716b2a97760dc47970153c3d38528b5fb16c0ced5fad",
      "assetIds": [
        "41506478881403507969696680653240014914910929820314476107906210059990541021185"
      ]
    },
    {
      "x": 112,
      "y": 6,
      "size": 1,
      "price": "4683000000000000000000",
      "reserved": "",
      "salt": "0x66d4e0b9685a2ca7db83ec1ce5cf7e794bacd96d8a51307d9ff1bb33ffef5e31",
      "assetIds": [
        "41506478881403507969696680653240014914910929820314476107906210059990541021186"
      ]
    },
    {
      "x": 112,
      "y": 7,
      "size": 1,
      "price": "1011000000000000000000",
      "reserved": "",
      "salt": "0xf521726da2b7d50d949cbacf8873da3daab53ffa3de606773e621ef4fa92ec3e",
      "assetIds": []
    },
    {
      "x": 112,
      "y": 8,
      "size": 1,
      "price": "1011000000000000000000",
      "reserved": "",
      "salt": "0xaa59494151000f7bcab2693dd4f8d770ea928c5d32b67b449d552ce4e4f5d516",
      "assetIds": []
    },
    {
      "x": 112,
      "y": 9,
      "size": 1,
      "price": "1011000000000000000000",
      "reserved": "",
      "salt": "0x65a515eaf2eaf17a0a599905aac63ca1656ee3179130c14b24dfc5e6048bd63f",
      "assetIds": []
    },
    {
      "x": 112,
      "y": 10,
      "size": 1,
      "price": "1011000000000000000000",
      "reserved": "",
      "salt": "0x54b14864c110c309d239ea2a7ea14ffa6faf0f895c607b8291545673c35a65f2",
      "assetIds": []
    },
    {
      "x": 112,
      "y": 11,
      "size": 1,
      "price": "1011000000000000000000",
      "reserved": "",
      "salt": "0x11997a619d63baf7ecb4577f7fde062ac4f746dd4b868090df21ec124f068306",
      "assetIds": []
    },
    {
      "x": 112,
      "y": 15,
      "size": 1,
      "price": "1011000000000000000000",
      "reserved": "",
      "salt": "0x95daa78efd0b5d7fd7a01bd7333e965f0240087de3fc55001c33a877ad158dbf",
      "assetIds": []
    },
    {
      "x": 112,
      "y": 16,
      "size": 1,
      "price": "1011000000000000000000",
      "reserved": "",
      "salt": "0x98a47f459c319f97c3f2a013fe597bd1a03838d89507bf130bb532d991218b1e",
      "assetIds": []
    },
    {
      "x": 112,
      "y": 17,
      "size": 1,
      "price": "1011000000000000000000",
      "reserved": "",
      "salt": "0xda9252a1e870c0b0edf660b6f45abaa80a64f74d14831e1fd054a1c02bde796d",
      "assetIds": []
    },
    {
      "x": 112,
      "y": 21,
      "size": 1,
      "price": "4683000000000000000000",
      "reserved": "",
      "salt": "0x9ff081f429c733791ce05d2c64ac623efafcbdd7a36d3e22d429e125aacdd6e6",
      "assetIds": [
        "41506478881403507969696680653240014914910929820314476107906210059990541021186"
      ]
    },
    {
      "x": 113,
      "y": 6,
      "size": 1,
      "price": "4683000000000000000000",
      "reserved": "",
      "salt": "0xd2efd67ba568a4184344e249b9c1e7a011c40250a307e2478a4589de1ca7e2e6",
      "assetIds": [
        "41506478881403507969696680653240014914910929820314476107906210059990541021185"
      ]
    },
    {
      "x": 113,
      "y": 7,
      "size": 1,
      "price": "4683000000000000000000",
      "reserved": "",
      "salt": "0x7a27e6e9f263b3b8ba132afdeeb0578301f349df8cad01d7ba3cd59e891e516d",
      "assetIds": [
        "41506478881403507969696680653240014914910929820314476107906210059990541021185"
      ]
    },
    {
      "x": 113,
      "y": 8,
      "size": 1,
      "price": "4683000000000000000000",
      "reserved": "",
      "salt": "0xe18c4bca01524fca453150ea2bcbfc6838a4ab34346829380a618b24a1269f89",
      "assetIds": [
        "41506478881403507969696680653240014914910929820314476107906210059990541021185"
      ]
    },
    {
      "x": 113,
      "y": 9,
      "size": 1,
      "price": "4683000000000000000000",
      "reserved": "",
      "salt": "0x60726ce4206b21ef87ae584a5455f651a2ff13e4bd0d3d71af97817607873ec6",
      "assetIds": [
        "41506478881403507969696680653240014914910929820314476107906210059990541021185"
      ]
    },
    {
      "x": 113,
      "y": 10,
      "size": 1,
      "price": "4683000000000000000000",
      "reserved": "",
      "salt": "0x574c090367afbe14c7d7a46225a66fc0981026bb3f1302cec90d454e51ba63ec",
      "assetIds": [
        "41506478881403507969696680653240014914910929820314476107906210059990541021185"
      ]
    },
    {
      "x": 113,
      "y": 11,
      "size": 1,
      "price": "4683000000000000000000",
      "reserved": "",
      "salt": "0x400179e8773c30885172cc2b247a29f1b21dc2b6ff2b44fd7cd6e1131d27ed2c",
      "assetIds": [
        "41506478881403507969696680653240014914910929820314476107906210059990541021186"
      ]
    },
    {
      "x": 113,
      "y": 15,
      "size": 1,
      "price": "1011000000000000000000",
      "reserved": "",
      "salt": "0x8a3a5d37f60ae171eff784cb13b2babbd17b666cf818a05a45f1663110158866",
      "assetIds": []
    },
    {
      "x": 113,
      "y": 16,
      "size": 1,
      "price": "1011000000000000000000",
      "reserved": "",
      "salt": "0x50c2718bd15f893756b1478bfc612561f99707e05be3901af3f50509ca8cdfd8",
      "assetIds": []
    },
    {
      "x": 113,
      "y": 17,
      "size": 1,
      "price": "1011000000000000000000",
      "reserved": "",
      "salt": "0xa59cad0b3b04b16423087244ad0e2f2be66493f8b9dd38c4820b9cde486bfdfe",
      "assetIds": []
    },
    {
      "x": 113,
      "y": 21,
      "size": 1,
      "price": "4683000000000000000000",
      "reserved": "",
      "salt": "0x18066861441e5936920a64780c80bad316628d3b9c1a3d3b01a996de4afcb213",
      "assetIds": [
        "41506478881403507969696680653240014914910929820314476107906210059990541021186"
      ]
    },
    {
      "x": 114,
      "y": 0,
      "size": 1,
      "price": "4683000000000000000000",
      "reserved": "",
      "salt": "0xac85ca12fdfa9281c9b06afa0867d731928e9695f13f990f1cbcb19e1d8c4747",
      "assetIds": [
        "41506478881403507969696680653240014914910929820314476107906210059990541021185"
      ]
    },
    {
      "x": 114,
      "y": 1,
      "size": 1,
      "price": "4683000000000000000000",
      "reserved": "",
      "salt": "0xbacc646f085ee7f2bcf41924074639017c7605d05a344e13c5c766ec4923572e",
      "assetIds": [
        "41506478881403507969696680653240014914910929820314476107906210059990541021185"
      ]
    },
    {
      "x": 114,
      "y": 2,
      "size": 1,
      "price": "4683000000000000000000",
      "reserved": "",
      "salt": "0x0a65d6c7548dc251109f292ce58b902bdf81e1197e68a7073838bc5c95e0ce6d",
      "assetIds": [
        "41506478881403507969696680653240014914910929820314476107906210059990541021185"
      ]
    },
    {
      "x": 114,
      "y": 18,
      "size": 1,
      "price": "4683000000000000000000",
      "reserved": "",
      "salt": "0x0eb2e07f8add135da04e5f8200220958a629921a01e268331d2c062cb96df988",
      "assetIds": [
        "41506478881403507969696680653240014914910929820314476107906210059990541021185"
      ]
    },
    {
      "x": 114,
      "y": 19,
      "size": 1,
      "price": "4683000000000000000000",
      "reserved": "",
      "salt": "0xdd37672a4dcf42bb30769cd71901b11dc82fc95cf779f971bc880cbcad1111d1",
      "assetIds": [
        "41506478881403507969696680653240014914910929820314476107906210059990541021186"
      ]
    },
    {
      "x": 114,
      "y": 20,
      "size": 1,
      "price": "4683000000000000000000",
      "reserved": "",
      "salt": "0xd27ce48d0ca2d873b3fc99bbb4738ba087657fb7da8cc2321cf13752aca87b2c",
      "assetIds": [
        "41506478881403507969696680653240014914910929820314476107906210059990541021186"
      ]
    },
    {
      "x": 114,
      "y": 21,
      "size": 1,
      "price": "1011000000000000000000",
      "reserved": "",
      "salt": "0xe2ab2e28f22216be312b8d1b860cc524359a7211ec2a0643e9f25fc397fb47f6",
      "assetIds": []
    },
    {
      "x": 115,
      "y": 0,
      "size": 1,
      "price": "1011000000000000000000",
      "reserved": "",
      "salt": "0xcf6bfab9b64a0e6fd727523e5094e2504ec47726521653d89386ff4b8b8920d9",
      "assetIds": []
    },
    {
      "x": 115,
      "y": 1,
      "size": 1,
      "price": "1011000000000000000000",
      "reserved": "",
      "salt": "0x32adac25c68f6a39fd5261c8c0e427cbba8edf4662936af9cae356266c6dd924",
      "assetIds": []
    },
    {
      "x": 115,
      "y": 2,
      "size": 1,
      "price": "1011000000000000000000",
      "reserved": "",
      "salt": "0xb1d5d0410a8eacc344d082ae1ebf5474715cd83beb1a41266b133a6f50672aa5",
      "assetIds": []
    },
    {
      "x": 115,
      "y": 18,
      "size": 1,
      "price": "1011000000000000000000",
      "reserved": "",
      "salt": "0xe9c6cd36aa15b1cce7a3d9715d73cf720b9b0f79256e52a14e973601894aeaa4",
      "assetIds": []
    },
    {
      "x": 115,
      "y": 19,
      "size": 1,
      "price": "1011000000000000000000",
      "reserved": "",
      "salt": "0xef7f08f8372e404c11892c3775e72961d5f68150b67c201aec1ba99179dda30c",
      "assetIds": []
    },
    {
      "x": 115,
      "y": 20,
      "size": 1,
      "price": "1011000000000000000000",
      "reserved": "",
      "salt": "0x637d29de414c40ad960ad6d2dba10e26733fc72de45759475b02fbc2d9faee11",
      "assetIds": []
    },
    {
      "x": 115,
      "y": 21,
      "size": 1,
      "price": "1011000000000000000000",
      "reserved": "",
      "salt": "0x700fc51b53d0d21f43a71c22ceed50395bb846cf89cd642d3552d26bc45568d2",
      "assetIds": []
    },
    {
      "x": 116,
      "y": 0,
      "size": 1,
      "price": "1011000000000000000000",
      "reserved": "",
      "salt": "0x8fbf1cf47f30121ddcdc6d526ce612ff7e0213581bb9f760020d7d91789618fa",
      "assetIds": []
    },
    {
      "x": 116,
      "y": 1,
      "size": 1,
      "price": "1011000000000000000000",
      "reserved": "",
      "salt": "0xa43232571724c5fe2c8e2498a6e36c53d7ddc64d513cd5d1091679f931632d4c",
      "assetIds": []
    },
    {
      "x": 116,
      "y": 2,
      "size": 1,
      "price": "1011000000000000000000",
      "reserved": "",
      "salt": "0x6b8b0e1029058f1284905eb3c17c6d49a06044595d8349cff2646b98aada9ced",
      "assetIds": []
    },
    {
      "x": 116,
      "y": 18,
      "size": 1,
      "price": "4683000000000000000000",
      "reserved": "",
      "salt": "0x1007693a2348e2675f56bd9b89aa6fc418be449fe6eb1c12e21d21ede13ce82f",
      "assetIds": [
        "41506478881403507969696680653240014914910929820314476107906210059990541021185"
      ]
    },
    {
      "x": 116,
      "y": 19,
      "size": 1,
      "price": "4683000000000000000000",
      "reserved": "",
      "salt": "0xc975c8331e24b20a6c26c93807d384484505fb60b277cad60b9fec24b8a8b328",
      "assetIds": [
        "41506478881403507969696680653240014914910929820314476107906210059990541021185"
      ]
    },
    {
      "x": 116,
      "y": 20,
      "size": 1,
      "price": "4683000000000000000000",
      "reserved": "",
      "salt": "0x7a01f13d210f4b06f63f762705c7fe247e3e28f0cadb527b5e23dc3086939171",
      "assetIds": [
        "41506478881403507969696680653240014914910929820314476107906210059990541021186"
      ]
    },
    {
      "x": 116,
      "y": 21,
      "size": 1,
      "price": "1011000000000000000000",
      "reserved": "",
      "salt": "0x1ac9eaeae5cb89258017a2b00abe398f2e903439509afa3e5240a02995c62747",
      "assetIds": []
    },
    {
      "x": 117,
      "y": 0,
      "size": 1,
      "price": "1011000000000000000000",
      "reserved": "",
      "salt": "0xd6a0372ff20876204ac2f79fc7330cda12f34b35cf4061d52393df6c232567a7",
      "assetIds": []
    },
    {
      "x": 117,
      "y": 1,
      "size": 1,
      "price": "1011000000000000000000",
      "reserved": "",
      "salt": "0x9432de0321d8f142941a825d9dfa5043e951a5c683aa3b4e5ce52ec281bb0436",
      "assetIds": []
    },
    {
      "x": 117,
      "y": 2,
      "size": 1,
      "price": "1011000000000000000000",
      "reserved": "",
      "salt": "0x92fef7a62965f3491cf32f1923363e4d7d7e77e116a9ff7080e61fe2ad071256",
      "assetIds": []
    },
    {
      "x": 117,
      "y": 3,
      "size": 1,
      "price": "1011000000000000000000",
      "reserved": "",
      "salt": "0x260d748890e378f1b6de82efbad449a3d092d8cd694c27862b53acf67cbc0505",
      "assetIds": []
    },
    {
      "x": 117,
      "y": 4,
      "size": 1,
      "price": "1011000000000000000000",
      "reserved": "",
      "salt": "0x760b2317e806dec10023034a992d43676991c5da18713d4205be553a3ab9cdae",
      "assetIds": []
    },
    {
      "x": 117,
      "y": 5,
      "size": 1,
      "price": "1011000000000000000000",
      "reserved": "",
      "salt": "0xb6e3c3861cb3ad9588531006e7f61038a235bcffd414affcf764ed52443f7875",
      "assetIds": []
    },
    {
      "x": 117,
      "y": 21,
      "size": 1,
      "price": "1011000000000000000000",
      "reserved": "",
      "salt": "0xaef1e7b2cdbfa4f93831bfa759409d5f92ef04028b013fa6d7bd36bb50b66973",
      "assetIds": []
    },
    {
      "x": 118,
      "y": 0,
      "size": 1,
      "price": "1011000000000000000000",
      "reserved": "",
      "salt": "0xcb156d58435ec3332b0a32c3ce2908cd0076516b895f817e689d10c6aecac279",
      "assetIds": []
    },
    {
      "x": 118,
      "y": 1,
      "size": 1,
      "price": "1011000000000000000000",
      "reserved": "",
      "salt": "0xa2178b79bcc84acee04f12e93d68d88a406f81a79e870d9c544eabb013221769",
      "assetIds": []
    },
    {
      "x": 118,
      "y": 2,
      "size": 1,
      "price": "1011000000000000000000",
      "reserved": "",
      "salt": "0x67bd4f61e37ca6063c5fdf57db48e9ef3b376ef07df895076580a82393a8ebb5",
      "assetIds": []
    },
    {
      "x": 118,
      "y": 3,
      "size": 1,
      "price": "1011000000000000000000",
      "reserved": "",
      "salt": "0x7f9f5175b364899fd4e9d2e1dc898ab03c55c86ee010d85fce676dfe15253e11",
      "assetIds": []
    },
    {
      "x": 118,
      "y": 4,
      "size": 1,
      "price": "1011000000000000000000",
      "reserved": "",
      "salt": "0xa47d5e93e13b85d349a313c8997598f2a52707684c0567bb8c1fb97ac37c55c1",
      "assetIds": []
    },
    {
      "x": 118,
      "y": 5,
      "size": 1,
      "price": "1011000000000000000000",
      "reserved": "",
      "salt": "0x93dd6fefc89e824efcf8eb6271dafda22ff95cec6b71728b1297be9924883e64",
      "assetIds": []
    },
    {
      "x": 118,
      "y": 21,
      "size": 1,
      "price": "1011000000000000000000",
      "reserved": "",
      "salt": "0x1174a6d8d928adfc8f1110620731776e6ea3641cb6ce38e340d55db3e7ada03c",
      "assetIds": []
    },
    {
      "x": 119,
      "y": 0,
      "size": 1,
      "price": "4683000000000000000000",
      "reserved": "",
      "salt": "0x0aa01b7907365e744245ef0a7e1eb331d74bb8944fa5643c19bb7f9b6e8c3520",
      "assetIds": [
        "41506478881403507969696680653240014914910929820314476107906210059990541021185"
      ]
    },
    {
      "x": 119,
      "y": 1,
      "size": 1,
      "price": "4683000000000000000000",
      "reserved": "",
      "salt": "0xf849fd8868445d87f20badfcddd1802e19da2dfd9a394a9521469b20d03881c1",
      "assetIds": [
        "41506478881403507969696680653240014914910929820314476107906210059990541021186"
      ]
    },
    {
      "x": 119,
      "y": 2,
      "size": 1,
      "price": "4683000000000000000000",
      "reserved": "",
      "salt": "0x838bd6f9b8c50e23438a9253b563d2b8e638bff7f35b08b571796630a683decd",
      "assetIds": [
        "41506478881403507969696680653240014914910929820314476107906210059990541021186"
      ]
    },
    {
      "x": 119,
      "y": 3,
      "size": 1,
      "price": "4683000000000000000000",
      "reserved": "",
      "salt": "0x699132f9e3ed0837658c4142b7c72c0460dd9a1dedd625a196ee8c1334bf7eba",
      "assetIds": [
        "41506478881403507969696680653240014914910929820314476107906210059990541021186"
      ]
    },
    {
      "x": 119,
      "y": 4,
      "size": 1,
      "price": "4683000000000000000000",
      "reserved": "",
      "salt": "0x4d13b45e0eec86f8d13d010762d6ef43d9b1a51e58f3aec4890d1f9d5131c2b2",
      "assetIds": [
        "41506478881403507969696680653240014914910929820314476107906210059990541021185"
      ]
    },
    {
      "x": 119,
      "y": 5,
      "size": 1,
      "price": "4683000000000000000000",
      "reserved": "",
      "salt": "0x25690c0ed63e851834fa25a33b62f412668611748a6917be443ff7cace419f8e",
      "assetIds": [
        "41506478881403507969696680653240014914910929820314476107906210059990541021186"
      ]
    },
    {
      "x": 119,
      "y": 21,
      "size": 1,
      "price": "1011000000000000000000",
      "reserved": "",
      "salt": "0x96efcb7e2423fd9876bf37edfb2bde1014de402db91bea62e41b15b9933362f7",
      "assetIds": []
    },
    {
      "x": 120,
      "y": 9,
      "size": 1,
      "price": "4683000000000000000000",
      "reserved": "",
      "salt": "0x0ceeb4b544a430750695f31d84a02542916676173d45a26ca8682c5439bf80ae",
      "assetIds": [
        "41506478881403507969696680653240014914910929820314476107906210059990541021185"
      ]
    },
    {
      "x": 120,
      "y": 10,
      "size": 1,
      "price": "4683000000000000000000",
      "reserved": "",
      "salt": "0xa9b6ee3c07d1026c09eba40e429b7a2474391c55f4d09feec39c768fb05dcfdc",
      "assetIds": [
        "41506478881403507969696680653240014914910929820314476107906210059990541021185"
      ]
    },
    {
      "x": 120,
      "y": 11,
      "size": 1,
      "price": "4683000000000000000000",
      "reserved": "",
      "salt": "0xd4610c41d942b90065c5d550969f00cd0756f9dafce87e167a8f9b16fbc73f2d",
      "assetIds": [
        "41506478881403507969696680653240014914910929820314476107906210059990541021186"
      ]
    },
    {
      "x": 120,
      "y": 18,
      "size": 1,
      "price": "4683000000000000000000",
      "reserved": "",
      "salt": "0xe7eb7f184ecdfad37ecbbb1fa4be155ad957b6d7829893464ddc614429ddc171",
      "assetIds": [
        "41506478881403507969696680653240014914910929820314476107906210059990541021186"
      ]
    },
    {
      "x": 120,
      "y": 19,
      "size": 1,
      "price": "1011000000000000000000",
      "reserved": "",
      "salt": "0x82a3a74cddd815ead0a9dd74de65f2c6b1aa20aafb5286ec69dae370fd5da2b4",
      "assetIds": []
    },
    {
      "x": 120,
      "y": 20,
      "size": 1,
      "price": "1011000000000000000000",
      "reserved": "",
      "salt": "0x266fbc83e43662427fde9561bef7347b3cc06afab0fb731e4a43efca81bcb2da",
      "assetIds": []
    },
    {
      "x": 120,
      "y": 21,
      "size": 1,
      "price": "1011000000000000000000",
      "reserved": "",
      "salt": "0x0e60539629585265fdb4624a3e26c589f68a9450834048be3376bf6bb65249f5",
      "assetIds": []
    },
    {
      "x": 121,
      "y": 9,
      "size": 1,
      "price": "1011000000000000000000",
      "reserved": "",
      "salt": "0x901513b09c4ebfadfe7e18dbaf89da4f23ba02fc927125743e90f24d86e15c22",
      "assetIds": []
    },
    {
      "x": 121,
      "y": 10,
      "size": 1,
      "price": "1011000000000000000000",
      "reserved": "",
      "salt": "0x0ecb44ecc0c5e723eac10abd1e9c0bf135d3e875d2595de4d0b3ad2304c4b20b",
      "assetIds": []
    },
    {
      "x": 121,
      "y": 11,
      "size": 1,
      "price": "4683000000000000000000",
      "reserved": "",
      "salt": "0xb7a8c4f7993f086148d48a8c421463da1ed5bb342cda761949f1fd6869548c8d",
      "assetIds": [
        "41506478881403507969696680653240014914910929820314476107906210059990541021186"
      ]
    },
    {
      "x": 121,
      "y": 18,
      "size": 1,
      "price": "4683000000000000000000",
      "reserved": "",
      "salt": "0x8e059a49c4e7716473f3ea8291055ea4eeb96442d1d80c503c890959069c843a",
      "assetIds": [
        "41506478881403507969696680653240014914910929820314476107906210059990541021186"
      ]
    },
    {
      "x": 121,
      "y": 19,
      "size": 1,
      "price": "1011000000000000000000",
      "reserved": "",
      "salt": "0x36d26a7c512fd61cb66c167790d74112c5cebce63224c7f634db7dd2299c5052",
      "assetIds": []
    },
    {
      "x": 121,
      "y": 20,
      "size": 1,
      "price": "1011000000000000000000",
      "reserved": "",
      "salt": "0x3c2bf05686f3e96ad5b2e4bd8f758316c743039b4e76c27063c7f2ccffa97aa0",
      "assetIds": []
    },
    {
      "x": 121,
      "y": 21,
      "size": 1,
      "price": "1011000000000000000000",
      "reserved": "",
      "salt": "0xdd4117d4761e28609abf4d308d115204a32331d0c328f0f9a923197139a08e77",
      "assetIds": []
    },
    {
      "x": 122,
      "y": 9,
      "size": 1,
      "price": "1011000000000000000000",
      "reserved": "",
      "salt": "0xc463de1ec4d3a49105d695b93224271636ce553c0d6a3cf6077ef4888807b5a2",
      "assetIds": []
    },
    {
      "x": 122,
      "y": 10,
      "size": 1,
      "price": "1011000000000000000000",
      "reserved": "",
      "salt": "0x8bcab2a6fa114b636e606b171ea9379af75d14585fe4f4f20930d161779685a4",
      "assetIds": []
    },
    {
      "x": 122,
      "y": 11,
      "size": 1,
      "price": "4683000000000000000000",
      "reserved": "",
      "salt": "0x2166a464191b06b2bb4853eb9d7c6e81f95eb725bc8e21963bba498dfcc5f8c9",
      "assetIds": [
        "41506478881403507969696680653240014914910929820314476107906210059990541021185"
      ]
    },
    {
      "x": 122,
      "y": 18,
      "size": 1,
      "price": "4683000000000000000000",
      "reserved": "",
      "salt": "0x6b6e55b9023faa399ab311a2a19438d332ad322254274df1bbe30345d8cc1e49",
      "assetIds": [
        "41506478881403507969696680653240014914910929820314476107906210059990541021186"
      ]
    },
    {
      "x": 122,
      "y": 19,
      "size": 1,
      "price": "1011000000000000000000",
      "reserved": "",
      "salt": "0xa1e5fb0810c1d97a4a22b56b522464121469806f1674217b7350a959640d5ee1",
      "assetIds": []
    },
    {
      "x": 122,
      "y": 20,
      "size": 1,
      "price": "1011000000000000000000",
      "reserved": "",
      "salt": "0xe615ead2f7824d1bee53cb460fa96b8930aa034137521f588462a22ea47c135c",
      "assetIds": []
    },
    {
      "x": 122,
      "y": 21,
      "size": 1,
      "price": "1011000000000000000000",
      "reserved": "",
      "salt": "0xf59e0fcd722d3d8f3a24e163537d4955d410d47b47608b2eb450a39d3d20344b",
      "assetIds": []
    },
    {
      "x": 123,
      "y": 6,
      "size": 1,
      "price": "4683000000000000000000",
      "reserved": "",
      "salt": "0x39cc34eba72455ae236ac5633350c7d7ca677719b58761061ea80bb8cbeb0994",
      "assetIds": [
        "41506478881403507969696680653240014914910929820314476107906210059990541021186"
      ]
    },
    {
      "x": 123,
      "y": 7,
      "size": 1,
      "price": "1011000000000000000000",
      "reserved": "",
      "salt": "0xc2ef377b7b8d3d0c4cd2617bc305b9ba7a799fa058362c0e07d4e4ea61630c90",
      "assetIds": []
    },
    {
      "x": 123,
      "y": 8,
      "size": 1,
      "price": "1011000000000000000000",
      "reserved": "",
      "salt": "0x1f1e06d4bf9dfc7a11e84385267369b51f3b812e3432795ff15389286b218abc",
      "assetIds": []
    },
    {
      "x": 123,
      "y": 9,
      "size": 1,
      "price": "1011000000000000000000",
      "reserved": "",
      "salt": "0x3e53b61b59cd43ff1df14b72b72e9b175be29f98e4a8a898084750a67e7dc301",
      "assetIds": []
    },
    {
      "x": 123,
      "y": 10,
      "size": 1,
      "price": "1011000000000000000000",
      "reserved": "",
      "salt": "0xe989dcf1ecb8fe6337be6fa66142786d4459cef67971fb24b12dc4d3d4d33517",
      "assetIds": []
    },
    {
      "x": 123,
      "y": 11,
      "size": 1,
      "price": "4683000000000000000000",
      "reserved": "",
      "salt": "0x23517b2e1b950538dd81d12aa70c3115a81a4791813cfa7ee3d1ed4a4d1ee9c7",
      "assetIds": [
        "41506478881403507969696680653240014914910929820314476107906210059990541021186"
      ]
    },
    {
      "x": 123,
      "y": 18,
      "size": 1,
      "price": "4683000000000000000000",
      "reserved": "",
      "salt": "0x94f779ef4af91a2480edf90f24db640ad0d28b9ad1b13325715523e9fc8d65ae",
      "assetIds": [
        "41506478881403507969696680653240014914910929820314476107906210059990541021186"
      ]
    },
    {
      "x": 123,
      "y": 19,
      "size": 1,
      "price": "1011000000000000000000",
      "reserved": "",
      "salt": "0x11b3c8bf900137565c443fedb917f08319b80c3ba873349ca1b6224ef8cecb1c",
      "assetIds": []
    },
    {
      "x": 123,
      "y": 20,
      "size": 1,
      "price": "1011000000000000000000",
      "reserved": "",
      "salt": "0x0801c111e8e8fdec4bb70465292d4a972d57591733a887341d98ebb0c9b99242",
      "assetIds": []
    },
    {
      "x": 123,
      "y": 21,
      "size": 1,
      "price": "1011000000000000000000",
      "reserved": "",
      "salt": "0x558e1edac09d702bc371f001f2ec74480c89e1b3a1ada909c163d9be77143507",
      "assetIds": []
    },
    {
      "x": 124,
      "y": 6,
      "size": 1,
      "price": "4683000000000000000000",
      "reserved": "",
      "salt": "0x87de73bae71ab6205ab65757cc78f79c33ddc7eee4c8bad76b2c0171662c0e13",
      "assetIds": [
        "41506478881403507969696680653240014914910929820314476107906210059990541021185"
      ]
    },
    {
      "x": 124,
      "y": 7,
      "size": 1,
      "price": "1011000000000000000000",
      "reserved": "",
      "salt": "0x69b7aad4732c493c315b7d90f2ad074e1aca184b6405f6ea01dc107bef4b7c96",
      "assetIds": []
    },
    {
      "x": 124,
      "y": 8,
      "size": 1,
      "price": "1011000000000000000000",
      "reserved": "",
      "salt": "0x4415bb218eb51c8acddd10e39e9a1b9759cf2a8f47b6c47449aad20ed5a9c63f",
      "assetIds": []
    },
    {
      "x": 124,
      "y": 9,
      "size": 1,
      "price": "1011000000000000000000",
      "reserved": "",
      "salt": "0x0f177911751db5ab7fdd51a092ecd12918d77b856625aadcdf23c91edf66da73",
      "assetIds": []
    },
    {
      "x": 124,
      "y": 10,
      "size": 1,
      "price": "1011000000000000000000",
      "reserved": "",
      "salt": "0x8b95251dfc745ddd591960998c65c880e92d315655571c07b25d74598ca646ac",
      "assetIds": []
    },
    {
      "x": 124,
      "y": 11,
      "size": 1,
      "price": "4683000000000000000000",
      "reserved": "",
      "salt": "0xaed2e46f1d64cfb927c0489ecae14363cee5e66d01780308f9f7d70ff03eab20",
      "assetIds": [
        "41506478881403507969696680653240014914910929820314476107906210059990541021185"
      ]
    },
    {
      "x": 124,
      "y": 18,
      "size": 1,
      "price": "4683000000000000000000",
      "reserved": "",
      "salt": "0x3de17b7f5701b3ed6ab79ab3f80791b9c1fcc7a9b8d255bc9569279fc3df2069",
      "assetIds": [
        "41506478881403507969696680653240014914910929820314476107906210059990541021186"
      ]
    },
    {
      "x": 124,
      "y": 19,
      "size": 1,
      "price": "1011000000000000000000",
      "reserved": "",
      "salt": "0xf7769b4dd34856e053161fd4bdeaac71977d97571bcf3112ab38f062f4a1fab1",
      "assetIds": []
    },
    {
      "x": 124,
      "y": 20,
      "size": 1,
      "price": "1011000000000000000000",
      "reserved": "",
      "salt": "0x4ccf8b5de219c775837a3babdebee04ef2608d0e60a638eeee22ccbe0e08f0c4",
      "assetIds": []
    },
    {
      "x": 124,
      "y": 21,
      "size": 1,
      "price": "1011000000000000000000",
      "reserved": "",
      "salt": "0xa6e2bcd20e995e963bcadd7c1cc7bd1c7154b7067fbafa04c257f06daa864e0f",
      "assetIds": []
    },
    {
      "x": 125,
      "y": 6,
      "size": 1,
      "price": "4683000000000000000000",
      "reserved": "",
      "salt": "0x9639f5c0beab632b0cca991d1e7aee3ff1962402c50d2102f22d078317070131",
      "assetIds": [
        "41506478881403507969696680653240014914910929820314476107906210059990541021185"
      ]
    },
    {
      "x": 125,
      "y": 7,
      "size": 1,
      "price": "4683000000000000000000",
      "reserved": "",
      "salt": "0x432c3bdb50e8d051d5ec8ca2513fc509f3b7f97b9b523f05300c69d91497c750",
      "assetIds": [
        "41506478881403507969696680653240014914910929820314476107906210059990541021185"
      ]
    },
    {
      "x": 125,
      "y": 8,
      "size": 1,
      "price": "4683000000000000000000",
      "reserved": "",
      "salt": "0x5fad8c8940956c4f93bc2a92bbc5ec0e61dc4542e402b6ed38363515e2834ad0",
      "assetIds": [
        "41506478881403507969696680653240014914910929820314476107906210059990541021186"
      ]
    },
    {
      "x": 125,
      "y": 9,
      "size": 1,
      "price": "1011000000000000000000",
      "reserved": "",
      "salt": "0xd2619f905df6185265d2fd28fe6ad40eb50c6366092ad8002c2b37be4a777f90",
      "assetIds": []
    },
    {
      "x": 125,
      "y": 10,
      "size": 1,
      "price": "1011000000000000000000",
      "reserved": "",
      "salt": "0x6ad4b050468439e52ce7f02cfdb4915d66108655240523cdb8ed970da2f4c91d",
      "assetIds": []
    },
    {
      "x": 125,
      "y": 11,
      "size": 1,
      "price": "4683000000000000000000",
      "reserved": "",
      "salt": "0xe5a74ece1a8c5a98f47014d852605e02200ec1348b3db56a0deb58d039ea4256",
      "assetIds": [
        "41506478881403507969696680653240014914910929820314476107906210059990541021185"
      ]
    },
    {
      "x": 125,
      "y": 18,
      "size": 1,
      "price": "4683000000000000000000",
      "reserved": "",
      "salt": "0xb5dfb6e80a132892507fc5ea508ac97657d5bd3d6b1819475a107e5972a2676e",
      "assetIds": [
        "41506478881403507969696680653240014914910929820314476107906210059990541021186"
      ]
    },
    {
      "x": 125,
      "y": 19,
      "size": 1,
      "price": "1011000000000000000000",
      "reserved": "",
      "salt": "0x09342a72e20fb6cf5b33d1822208fcf6a28f9fe6efba30dd2277dc41bb81eace",
      "assetIds": []
    },
    {
      "x": 125,
      "y": 20,
      "size": 1,
      "price": "1011000000000000000000",
      "reserved": "",
      "salt": "0x8fca8c2ec25e7872e32d63d021c398137fd74074b850f21d98e84bb3b3237f6e",
      "assetIds": []
    },
    {
      "x": 125,
      "y": 21,
      "size": 1,
      "price": "1011000000000000000000",
      "reserved": "",
      "salt": "0xc4042a0fd5a85ea92feeaac13612a6bcddf333f888452edf6647f58d9bbd9966",
      "assetIds": []
    },
    {
      "x": 126,
      "y": 0,
      "size": 1,
      "price": "4683000000000000000000",
      "reserved": "",
      "salt": "0x9b7673dc3cdfc20a5d2055da56341070ee701df36fbbb2f4b1ae375608247a79",
      "assetIds": [
        "41506478881403507969696680653240014914910929820314476107906210059990541021185"
      ]
    },
    {
      "x": 126,
      "y": 1,
      "size": 1,
      "price": "4683000000000000000000",
      "reserved": "",
      "salt": "0x67cf5c2101d21e13baaafe7261fa094086eb4e170ae6c927bea1000708b0fa1b",
      "assetIds": [
        "41506478881403507969696680653240014914910929820314476107906210059990541021185"
      ]
    },
    {
      "x": 126,
      "y": 2,
      "size": 1,
      "price": "4683000000000000000000",
      "reserved": "",
      "salt": "0xf5f5faa067a95a3a5ef6cca7a1d5ae4a74a9af43c68cb5fdc2a04a6f8ca22c0c",
      "assetIds": [
        "41506478881403507969696680653240014914910929820314476107906210059990541021186"
      ]
    },
    {
      "x": 126,
      "y": 9,
      "size": 1,
      "price": "4683000000000000000000",
      "reserved": "",
      "salt": "0xcafff636321c32d9c6dab89e6c6fc570a24b140466804adc8b2ef6b9133e1ebb",
      "assetIds": [
        "41506478881403507969696680653240014914910929820314476107906210059990541021185"
      ]
    },
    {
      "x": 126,
      "y": 10,
      "size": 1,
      "price": "1011000000000000000000",
      "reserved": "",
      "salt": "0x20c4371774bb7e18de82a33bff296adca35f8c7180063fafd1e9ce30684971ac",
      "assetIds": []
    },
    {
      "x": 126,
      "y": 11,
      "size": 1,
      "price": "1011000000000000000000",
      "reserved": "",
      "salt": "0xdb777caca4ba26dbea1a86ddebb3693a9f9f70a884cf512d4da1d0f42104a081",
      "assetIds": []
    },
    {
      "x": 126,
      "y": 12,
      "size": 1,
      "price": "1011000000000000000000",
      "reserved": "",
      "salt": "0x1dd67de367dd9300ff62b0c3fb47a43a4ca73158d412d3735898a0aee39b12f1",
      "assetIds": []
    },
    {
      "x": 126,
      "y": 13,
      "size": 1,
      "price": "4683000000000000000000",
      "reserved": "",
      "salt": "0x0e8bd1dfaa97bd03b9dc7496473e06cf10ba201354ba48c0f0e4ade0709c071c",
      "assetIds": [
        "41506478881403507969696680653240014914910929820314476107906210059990541021185"
      ]
    },
    {
      "x": 126,
      "y": 14,
      "size": 1,
      "price": "4683000000000000000000",
      "reserved": "",
      "salt": "0xf327b327e7776a3cc6e7df74d1cb95fcda60e59fabb1c3082f984f14d981aeab",
      "assetIds": [
        "41506478881403507969696680653240014914910929820314476107906210059990541021185"
      ]
    },
    {
      "x": 126,
      "y": 18,
      "size": 1,
      "price": "1011000000000000000000",
      "reserved": "",
      "salt": "0x698a413abe097c2d843cf8e5b788322a5069c6a201a79ac04ba025fbd5ad9e60",
      "assetIds": []
    },
    {
      "x": 126,
      "y": 19,
      "size": 1,
      "price": "1011000000000000000000",
      "reserved": "",
      "salt": "0x1c2f4a0d7abdc3d861a59517247fa187b3eceb720f9bb72874dea68bccf50379",
      "assetIds": []
    },
    {
      "x": 126,
      "y": 20,
      "size": 1,
      "price": "1011000000000000000000",
      "reserved": "",
      "salt": "0xeaed36003d1d835a4dcf87f5bd0846463d6ac5cba52ee2e3ba8b9379a47fdab3",
      "assetIds": []
    },
    {
      "x": 126,
      "y": 21,
      "size": 1,
      "price": "1011000000000000000000",
      "reserved": "",
      "salt": "0x07a44e38e374e3a62e849f93b6bc9da0422840e3f65608736a0f5dadecfb1c64",
      "assetIds": []
    },
    {
      "x": 127,
      "y": 0,
      "size": 1,
      "price": "1011000000000000000000",
      "reserved": "",
      "salt": "0x87af055b245e14a4d757580529fbef5720ac00c930b69038d77bc06013c092fd",
      "assetIds": []
    },
    {
      "x": 127,
      "y": 1,
      "size": 1,
      "price": "1011000000000000000000",
      "reserved": "",
      "salt": "0x1ea2bff62e3411790ba8d6960f587a3df53bf858dc71320523a9e7763d4dc946",
      "assetIds": []
    },
    {
      "x": 127,
      "y": 2,
      "size": 1,
      "price": "1011000000000000000000",
      "reserved": "",
      "salt": "0x1861ea413bf698bf380de318e820e11bd4e485e14b3c0da3fb28014e847f3ee0",
      "assetIds": []
    },
    {
      "x": 127,
      "y": 9,
      "size": 1,
      "price": "4683000000000000000000",
      "reserved": "",
      "salt": "0x3606fe26e281c2c0faf12fcaee592d3b56215cfa9bf481e6bc92988a7385a8d0",
      "assetIds": [
        "41506478881403507969696680653240014914910929820314476107906210059990541021185"
      ]
    },
    {
      "x": 127,
      "y": 10,
      "size": 1,
      "price": "1011000000000000000000",
      "reserved": "",
      "salt": "0x2c0b94ae8ae5c762b690b95749a94c819f198b9b6e71e0bac46e2ec08c0055cb",
      "assetIds": []
    },
    {
      "x": 127,
      "y": 11,
      "size": 1,
      "price": "1011000000000000000000",
      "reserved": "",
      "salt": "0x4fb62cb9ca4ae9afae5c3744cd7621425a37f1838991d6b0c90287f4ce602ef9",
      "assetIds": []
    },
    {
      "x": 127,
      "y": 12,
      "size": 1,
      "price": "1011000000000000000000",
      "reserved": "",
      "salt": "0x7502a941a43419b5eb94de28d146a2103947a2224026f98ae76535d6a96913ca",
      "assetIds": []
    },
    {
      "x": 127,
      "y": 13,
      "size": 1,
      "price": "1011000000000000000000",
      "reserved": "",
      "salt": "0x813269baad936367b1bf9e43d5a3c4c458412f736d20107892ecce53d79a54a8",
      "assetIds": []
    },
    {
      "x": 127,
      "y": 14,
      "size": 1,
      "price": "1011000000000000000000",
      "reserved": "",
      "salt": "0x4ff500234c0fac56d192d2ef14c718ab21bbd5fd3550502a7de2001b71416c84",
      "assetIds": []
    },
    {
      "x": 127,
      "y": 18,
      "size": 1,
      "price": "1011000000000000000000",
      "reserved": "",
      "salt": "0x9b80c6d0b3bfe90fdd8234a962d1b66288f063e1cdbf1c5ece5499edd9681ca2",
      "assetIds": []
    },
    {
      "x": 127,
      "y": 19,
      "size": 1,
      "price": "1011000000000000000000",
      "reserved": "",
      "salt": "0xcc29d9fca90c0ec56e085a42bd644d716bc96b8e39f8bd0700318710a3703d03",
      "assetIds": []
    },
    {
      "x": 127,
      "y": 20,
      "size": 1,
      "price": "1011000000000000000000",
      "reserved": "",
      "salt": "0x4cc9c0e25e68e66119f3cafd7cd8bd60c33e07f6477e60b5622a5a9a44d476c4",
      "assetIds": []
    },
    {
      "x": 127,
      "y": 21,
      "size": 1,
      "price": "1011000000000000000000",
      "reserved": "",
      "salt": "0x37a1b453d42ba977f7bb3d485a8f340e78d56ec34720437ac1ae7453dbe98568",
      "assetIds": []
    },
    {
      "x": 128,
      "y": 0,
      "size": 1,
      "price": "1011000000000000000000",
      "reserved": "",
      "salt": "0xad1082c053335a30c2c562cf25faebf2fd05968c5b1f4342481807892d058cab",
      "assetIds": []
    },
    {
      "x": 128,
      "y": 1,
      "size": 1,
      "price": "1011000000000000000000",
      "reserved": "",
      "salt": "0x09fafa3956e4c886a4572a508b3a7fab473443b9d550ebd58064908e1f80b54b",
      "assetIds": []
    },
    {
      "x": 128,
      "y": 2,
      "size": 1,
      "price": "1011000000000000000000",
      "reserved": "",
      "salt": "0x382139d0c02d2ac631406ebe3eca4ce939d1711db25b178d1f7b6f70eac41e1a",
      "assetIds": []
    },
    {
      "x": 128,
      "y": 9,
      "size": 1,
      "price": "4683000000000000000000",
      "reserved": "",
      "salt": "0xaadc9311c3edb7590e70c2bcc9ee73fbb2ecdcc975146f979bf0e21da41ca179",
      "assetIds": [
        "41506478881403507969696680653240014914910929820314476107906210059990541021185"
      ]
    },
    {
      "x": 128,
      "y": 10,
      "size": 1,
      "price": "1011000000000000000000",
      "reserved": "",
      "salt": "0x08a7a29edf870eb122f5814654e6793d2b9cf8feae6f3520d9447f2ff9d3addb",
      "assetIds": []
    },
    {
      "x": 128,
      "y": 11,
      "size": 1,
      "price": "1011000000000000000000",
      "reserved": "",
      "salt": "0xcf6d360c5d4051dd27dbae9aa40a2e1534c805e30f9ba8e1d4abc40f3e5f2e13",
      "assetIds": []
    },
    {
      "x": 128,
      "y": 12,
      "size": 1,
      "price": "1011000000000000000000",
      "reserved": "",
      "salt": "0x7e7bd397b433e01cb4fa14d53d14f9284500e271c9cd68f58c02f75b7accadea",
      "assetIds": []
    },
    {
      "x": 128,
      "y": 13,
      "size": 1,
      "price": "1011000000000000000000",
      "reserved": "",
      "salt": "0x78806c427f5229d4f07c92392e67e9d2af7ef2fd7ce31b969145e5c376393bb1",
      "assetIds": []
    },
    {
      "x": 128,
      "y": 14,
      "size": 1,
      "price": "1011000000000000000000",
      "reserved": "",
      "salt": "0xc0640f839640af96e72181cc106830686e2e86fa119e749143e669acef2f68ed",
      "assetIds": []
    },
    {
      "x": 128,
      "y": 18,
      "size": 1,
      "price": "1011000000000000000000",
      "reserved": "",
      "salt": "0x0173d817c635f4074bff449d29b4fa4ddc97eb5d99977a87703eb67c9ba565d2",
      "assetIds": []
    },
    {
      "x": 128,
      "y": 19,
      "size": 1,
      "price": "1011000000000000000000",
      "reserved": "",
      "salt": "0x147a95024fa1bb2acf20673f8ffbf90a3a2cd205fa0664408df66643b38a5a59",
      "assetIds": []
    },
    {
      "x": 128,
      "y": 20,
      "size": 1,
      "price": "1011000000000000000000",
      "reserved": "",
      "salt": "0x0e1033fde88e959c050b31cda2695f1f4f66a6813e123eff96699ef5c81b9071",
      "assetIds": []
    },
    {
      "x": 128,
      "y": 21,
      "size": 1,
      "price": "1011000000000000000000",
      "reserved": "",
      "salt": "0x3a7ef74f50a5adf7083b7df5e4ceb1a60d033cf8b414a17f283f1d82f8e63fbc",
      "assetIds": []
    },
    {
      "x": 129,
      "y": 0,
      "size": 1,
      "price": "1011000000000000000000",
      "reserved": "",
      "salt": "0x9c638c00cdcfa0d69a7dcb023f99dfa25cb0b03de464a8a3649edc72d1c82736",
      "assetIds": []
    },
    {
      "x": 129,
      "y": 1,
      "size": 1,
      "price": "1011000000000000000000",
      "reserved": "",
      "salt": "0xc52650c09831e330a5a55b908782dad3e9f98b4a95402ffe276fab2159c108c9",
      "assetIds": []
    },
    {
      "x": 129,
      "y": 2,
      "size": 1,
      "price": "1011000000000000000000",
      "reserved": "",
      "salt": "0x85741278d23b63243e7fba55a1db186e6d68b217255438205eb977ea5cbe4d71",
      "assetIds": []
    },
    {
      "x": 129,
      "y": 3,
      "size": 1,
      "price": "1011000000000000000000",
      "reserved": "",
      "salt": "0x4506cd5ff34b012415586b3dbf71a37b8c75524ecab7af12097182aa349bfa4f",
      "assetIds": []
    },
    {
      "x": 129,
      "y": 4,
      "size": 1,
      "price": "1011000000000000000000",
      "reserved": "",
      "salt": "0x3b451fd4bdc4a304dacc3372b66d99c3b562f909e5002c5351e6bd8f7aa3a7ce",
      "assetIds": []
    },
    {
      "x": 129,
      "y": 5,
      "size": 1,
      "price": "1011000000000000000000",
      "reserved": "",
      "salt": "0x1d8b2067c8dbdcce86cc8225eb803b7c9b70cc2d181428b3582d379217acfa7f",
      "assetIds": []
    },
    {
      "x": 129,
      "y": 6,
      "size": 1,
      "price": "4683000000000000000000",
      "reserved": "",
      "salt": "0x44d1402d78108ff3926e9f535cacd77ffb10c0b8eceb70a0d6169db08a0a5f37",
      "assetIds": [
        "41506478881403507969696680653240014914910929820314476107906210059990541021185"
      ]
    },
    {
      "x": 129,
      "y": 7,
      "size": 1,
      "price": "4683000000000000000000",
      "reserved": "",
      "salt": "0x3048703fccdadafe24057829332da2bf4a1958d3808174c40d55b9a4f57aeb69",
      "assetIds": [
        "41506478881403507969696680653240014914910929820314476107906210059990541021186"
      ]
    },
    {
      "x": 129,
      "y": 8,
      "size": 1,
      "price": "4683000000000000000000",
      "reserved": "",
      "salt": "0xebf65d5e5f8768d0cbab2712dfa20721acdeed15551e098fc63df3a03c73b0ff",
      "assetIds": [
        "41506478881403507969696680653240014914910929820314476107906210059990541021185"
      ]
    },
    {
      "x": 129,
      "y": 9,
      "size": 1,
      "price": "1011000000000000000000",
      "reserved": "",
      "salt": "0x0bce4a3bced523c09de40170eb99bacefa2e3d7e0abe64bdf3bd127b330b931f",
      "assetIds": []
    },
    {
      "x": 129,
      "y": 10,
      "size": 1,
      "price": "1011000000000000000000",
      "reserved": "",
      "salt": "0x8f9c35548870de8ed450cda6249fba857ece072caf85f4b4709bfae13fbd7989",
      "assetIds": []
    },
    {
      "x": 129,
      "y": 11,
      "size": 1,
      "price": "1011000000000000000000",
      "reserved": "",
      "salt": "0x0144f10240b2130d9ebb324237340c41163ccdd9c36d18099022ff8f4b76310c",
      "assetIds": []
    },
    {
      "x": 129,
      "y": 12,
      "size": 1,
      "price": "1011000000000000000000",
      "reserved": "",
      "salt": "0x3bee06f37b13ebd17feb307dca2202b1eb17322865a0052a5f10e243149b7cad",
      "assetIds": []
    },
    {
      "x": 129,
      "y": 13,
      "size": 1,
      "price": "1011000000000000000000",
      "reserved": "",
      "salt": "0x37e978dc7028a5c1d0106cba4b9d655e5609d1c8de470c0ba294b001af6d4af6",
      "assetIds": []
    },
    {
      "x": 129,
      "y": 14,
      "size": 1,
      "price": "1011000000000000000000",
      "reserved": "",
      "salt": "0x7ab39db60e5fc72561413567b5f6be49244538ae764dd5c4340e0d08c4d4b359",
      "assetIds": []
    },
    {
      "x": 129,
      "y": 15,
      "size": 1,
      "price": "1011000000000000000000",
      "reserved": "",
      "salt": "0x8b6baddbf2d4e6e06d673a2c8b93c21177746ff26af37843bdb6da846de165ea",
      "assetIds": []
    },
    {
      "x": 129,
      "y": 16,
      "size": 1,
      "price": "1011000000000000000000",
      "reserved": "",
      "salt": "0xa3fa411f92bf5fbf9f7fb3c09791f9fa932d7e30598bcbf29b6b8c85eb06ffa7",
      "assetIds": []
    },
    {
      "x": 129,
      "y": 17,
      "size": 1,
      "price": "1011000000000000000000",
      "reserved": "",
      "salt": "0xb6dbbdafb912af1ee40dcfc2756a7c885f7508e5819e0482a5a10a4cc188148e",
      "assetIds": []
    },
    {
      "x": 129,
      "y": 18,
      "size": 1,
      "price": "1011000000000000000000",
      "reserved": "",
      "salt": "0x75358d2aff3778a98bcd336fe263e4d28633d1594c56f1d0d4130cdd1e4d00e0",
      "assetIds": []
    },
    {
      "x": 129,
      "y": 19,
      "size": 1,
      "price": "1011000000000000000000",
      "reserved": "",
      "salt": "0xc29a9aff7c0c8aa545584c36f9c05bf3b750de7b115c2b4c87fb5371b7261a06",
      "assetIds": []
    },
    {
      "x": 129,
      "y": 20,
      "size": 1,
      "price": "1011000000000000000000",
      "reserved": "",
      "salt": "0x0cfd26f30a9e0ecbe95e023d85807456eed3302bc7762c3d1c8e9f70789e3e30",
      "assetIds": []
    },
    {
      "x": 129,
      "y": 21,
      "size": 1,
      "price": "1011000000000000000000",
      "reserved": "",
      "salt": "0x75faa9e380741a0bfbbb8725a8364e5e04a6c2e40b0d28d8cf11c9464f6062f8",
      "assetIds": []
    },
    {
      "x": 84,
      "y": 6,
      "size": 3,
      "price": "8648000000000000000000",
      "reserved": "0x7a9fe22691c811ea339d9b73150e6911a5343dca",
      "salt": "0xc2dffde6e692d970e58a3969417ad37fd7e97092e4e30961ed2897bd572e61eb",
      "assetIds": []
    },
    {
      "x": 84,
      "y": 15,
      "size": 3,
      "price": "8648000000000000000000",
      "reserved": "0x7a9fe22691c811ea339d9b73150e6911a5343dca",
      "salt": "0xc4996af1d96c15f5bec41f5a3db0ac4605fde0a5b41253e1b70e19396a66d030",
      "assetIds": []
    },
    {
      "x": 87,
      "y": 0,
      "size": 3,
      "price": "8648000000000000000000",
      "reserved": "0x7a9fe22691c811ea339d9b73150e6911a5343dca",
      "salt": "0xa03bbd770ef0e37434cd23b3ec194cfba65c5fb32cd7cc39ff7f2dbdc44e9474",
      "assetIds": []
    },
    {
      "x": 87,
      "y": 9,
      "size": 3,
      "price": "8648000000000000000000",
      "reserved": "0x7a9fe22691c811ea339d9b73150e6911a5343dca",
      "salt": "0xd38f5b7585faa318a9d939cb086aa221c6f3c50d7dd3f62eb2423d9bc8c7a72d",
      "assetIds": []
    },
    {
      "x": 87,
      "y": 18,
      "size": 3,
      "price": "8648000000000000000000",
      "reserved": "0x7a9fe22691c811ea339d9b73150e6911a5343dca",
      "salt": "0xb9d570daade3976c9ad4d7983efc0b41622779a14eb3c830c7664f74cb1b540e",
      "assetIds": []
    },
    {
      "x": 96,
      "y": 15,
      "size": 3,
      "price": "8648000000000000000000",
      "reserved": "0x7a9fe22691c811ea339d9b73150e6911a5343dca",
      "salt": "0xef46e96bc72042e99e8dfe4529f6f57185a7e74089b3dfdb061cc6c51c2ded70",
      "assetIds": []
    },
    {
      "x": 96,
      "y": 18,
      "size": 3,
      "price": "8648000000000000000000",
      "reserved": "0x7a9fe22691c811ea339d9b73150e6911a5343dca",
      "salt": "0xdd66e8b71220477ba84aa250feec72ba6d65557b469d9a3158beea40ba4acd73",
      "assetIds": []
    },
    {
      "x": 99,
      "y": 3,
      "size": 3,
      "price": "8648000000000000000000",
      "reserved": "0x7a9fe22691c811ea339d9b73150e6911a5343dca",
      "salt": "0xce922b59fd54f6bbcc17b0c10a9ab710b109430c90e11573a18e0be5dca05de0",
      "assetIds": []
    },
    {
      "x": 99,
      "y": 18,
      "size": 3,
      "price": "8648000000000000000000",
      "reserved": "0x7a9fe22691c811ea339d9b73150e6911a5343dca",
      "salt": "0xe0b1f8bd6f2fc9472462becd516ec6d8ab3b22146f3ffcd53ab4967c71b94664",
      "assetIds": []
    },
    {
      "x": 102,
      "y": 6,
      "size": 3,
      "price": "8648000000000000000000",
      "reserved": "0x7a9fe22691c811ea339d9b73150e6911a5343dca",
      "salt": "0xa797e196769c728160542e9d246627698842d5fa9a1a529b37d152934ff99ec7",
      "assetIds": []
    },
    {
      "x": 105,
      "y": 9,
      "size": 3,
      "price": "8648000000000000000000",
      "reserved": "0x7a9fe22691c811ea339d9b73150e6911a5343dca",
      "salt": "0xb89644571013516a78c3fb998c4f1122ea0f2ea426c1f0335c98ae394bbf1c74",
      "assetIds": []
    },
    {
      "x": 108,
      "y": 9,
      "size": 3,
      "price": "8648000000000000000000",
      "reserved": "0x7a9fe22691c811ea339d9b73150e6911a5343dca",
      "salt": "0x2f1fad20a45a0067c2ecc8c6756d5175827373adbe781e0450f1b980bfe6a672",
      "assetIds": []
    },
    {
      "x": 108,
      "y": 18,
      "size": 3,
      "price": "8648000000000000000000",
      "reserved": "0x7a9fe22691c811ea339d9b73150e6911a5343dca",
      "salt": "0xb9e0260ee68a2d9982dd595a6571ccee6cbf344144f6091ec80be2b251c71497",
      "assetIds": []
    },
    {
      "x": 111,
      "y": 12,
      "size": 3,
      "price": "8648000000000000000000",
      "reserved": "0x7a9fe22691c811ea339d9b73150e6911a5343dca",
      "salt": "0x5799d912aefb8dec0e35aece6b141ab4435e141bd5ab01cc6f55cf4cad19f360",
      "assetIds": []
    },
    {
      "x": 111,
      "y": 18,
      "size": 3,
      "price": "8648000000000000000000",
      "reserved": "0x7a9fe22691c811ea339d9b73150e6911a5343dca",
      "salt": "0x4c4c80100db5827a7193379d356df79e361453fa741c6702684c3c2e6c103b0a",
      "assetIds": []
    },
    {
      "x": 114,
      "y": 3,
      "size": 3,
      "price": "8648000000000000000000",
      "reserved": "0x7a9fe22691c811ea339d9b73150e6911a5343dca",
      "salt": "0x8c2d1fd3adece2ba0d6b1d3dc931912996f4ede5d91790aa2a0f10cc186104b5",
      "assetIds": []
    },
    {
      "x": 117,
      "y": 18,
      "size": 3,
      "price": "8648000000000000000000",
      "reserved": "0x7a9fe22691c811ea339d9b73150e6911a5343dca",
      "salt": "0x9cf091a6df4985f539e9a3d9d35bccba47b037e37e2e447c47502c6079b8062c",
      "assetIds": []
    },
    {
      "x": 120,
      "y": 6,
      "size": 3,
      "price": "8648000000000000000000",
      "reserved": "0x7a9fe22691c811ea339d9b73150e6911a5343dca",
      "salt": "0xaa716714af8100c70c25d60d916a913ec0771d7135c7fcaa70ec066cd00cedf2",
      "assetIds": []
    },
    {
      "x": 126,
      "y": 3,
      "size": 3,
      "price": "8648000000000000000000",
      "reserved": "0x7a9fe22691c811ea339d9b73150e6911a5343dca",
      "salt": "0x7198e67378d06f13c6a424f721060fe96fa9249e872462ad75d84df63fa0a642",
      "assetIds": []
    },
    {
      "x": 126,
      "y": 6,
      "size": 3,
      "price": "8648000000000000000000",
      "reserved": "0x7a9fe22691c811ea339d9b73150e6911a5343dca",
      "salt": "0x856582e1352221c1e22e1bf18d2fcfda7b9a01eb67cf0130d4f422de65ed38a0",
      "assetIds": []
    },
    {
      "x": 126,
      "y": 15,
      "size": 3,
      "price": "8648000000000000000000",
      "reserved": "0x7a9fe22691c811ea339d9b73150e6911a5343dca",
      "salt": "0x874c447562c47c199be3567a3afc8ff2250e48f258e026e977e320243cc8abb5",
      "assetIds": []
    },
    {
      "x": 78,
      "y": 0,
      "size": 6,
      "price": "32772000000000000000000",
      "reserved": "0x7a9fe22691c811ea339d9b73150e6911a5343dca",
      "salt": "0x98e2bbbe6db2e8ed8bb0a34c6a708295956217cb3911d38e91e7f304e4b7a878",
      "assetIds": []
    },
    {
      "x": 78,
      "y": 12,
      "size": 6,
      "price": "32772000000000000000000",
      "reserved": "0x7a9fe22691c811ea339d9b73150e6911a5343dca",
      "salt": "0x5f94648a38966e19d4f91f7e450684d3496439b21bc68f47b320d0730525055a",
      "assetIds": []
    },
    {
      "x": 90,
      "y": 0,
      "size": 6,
      "price": "32772000000000000000000",
      "reserved": "0x7a9fe22691c811ea339d9b73150e6911a5343dca",
      "salt": "0xe796796130f68345e1707dde13756653f01439a351d2117d67a6156ac7e5442a",
      "assetIds": []
    },
    {
      "x": 90,
      "y": 12,
      "size": 6,
      "price": "32772000000000000000000",
      "reserved": "0x7a9fe22691c811ea339d9b73150e6911a5343dca",
      "salt": "0x38c5a97cfd84addc940b91c375afa1c833658efedfbfa44c4a87ed7b5b3840ef",
      "assetIds": []
    },
    {
      "x": 96,
      "y": 6,
      "size": 6,
      "price": "32772000000000000000000",
      "reserved": "0x7a9fe22691c811ea339d9b73150e6911a5343dca",
      "salt": "0xf3c7504f640a2c9593d0d3daa7303d102d64b59ed96000b8852b1d39219634a7",
      "assetIds": []
    },
    {
      "x": 102,
      "y": 12,
      "size": 6,
      "price": "32772000000000000000000",
      "reserved": "0x7a9fe22691c811ea339d9b73150e6911a5343dca",
      "salt": "0x991f08450fcb1df4956cb58c94545a6cc2dc2175c16172f656dfa921fda25c09",
      "assetIds": []
    },
    {
      "x": 108,
      "y": 0,
      "size": 6,
      "price": "32772000000000000000000",
      "reserved": "0x7a9fe22691c811ea339d9b73150e6911a5343dca",
      "salt": "0xf27ac63529d0d44e0319b70f1984b4232cee86a012029939ed160ba59f9e4529",
      "assetIds": []
    },
    {
      "x": 114,
      "y": 6,
      "size": 6,
      "price": "32772000000000000000000",
      "reserved": "0x7a9fe22691c811ea339d9b73150e6911a5343dca",
      "salt": "0x42b9b25020592a4a64a796eed17d5e0124e726d96e50a1bd68d37820cd092c3c",
      "assetIds": []
    },
    {
      "x": 114,
      "y": 12,
      "size": 6,
      "price": "32772000000000000000000",
      "reserved": "0x7a9fe22691c811ea339d9b73150e6911a5343dca",
      "salt": "0xa79d74590357e4321e435a2c875efe7ff039a4f5b94bbb4f22e681089fcf7df2",
      "assetIds": []
    },
    {
      "x": 120,
      "y": 0,
      "size": 6,
      "price": "32772000000000000000000",
      "reserved": "0x7a9fe22691c811ea339d9b73150e6911a5343dca",
      "salt": "0xd7891bba2755687df5377c564734df472635e8418cca079e6874135dd7c5c19f",
      "assetIds": []
    },
    {
      "x": 120,
      "y": 12,
      "size": 6,
      "price": "32772000000000000000000",
      "reserved": "0x7a9fe22691c811ea339d9b73150e6911a5343dca",
      "salt": "0xc748d8b7a041d792ec5098c87612c155ef1c3e0bb7a6baba7a9f2cf89fed9a2f",
      "assetIds": []
    }
  ],
  "solcInputHash": "e17a5bb930c92aaeeb80a52119ce77b7",
  "bytecode": "0x610160604052620d2f0060055534801561001857600080fd5b506040516200284d3803806200284d83398181016040526101a081101561003e57600080fd5b50805160208201516040830151606080850151608086015160a08088015160c0808a015160e08b01516101008c01516101208d01516101408e01516101608f0151610180909f0151600280546001600160a01b0319166001600160a01b03871617905560038490558e8c1b6001600160601b03199081169099529a8d901b9097169094529a9b999a98999698959793969195909490939091906100e28b600161015d565b600680546001600160a01b039a8b166001600160a01b031991821617909155610140989098526101209690965260008054998916998816999099179098556001600160601b0319606092831b811660e05290821b811660805296901b909516610100525060078054919093169116179055506101c192505050565b6001600160a01b038216600081815260016020908152604091829020805460ff191685151590811790915582519384529083015280517fb21eb88b4e33b3f1281830a7178d74d8aa73220416215726b68ae23d539515cb9281900390910190a15050565b60805160601c60a05160601c60c05160601c60e05160601c6101005160601c61012051610140516126066200024760003980610b3d528061206c525080610b1952806112ec5250806120da525080611841528061199e5250806117f75280611b9d528061210e525080611872528061196f525080610eb25280611c8952506126066000f3fe608060405234801561001057600080fd5b506004361061011b5760003560e01c80638f283970116100b2578063c10a420811610081578063dc5074af11610066578063dc5074af1461085f578063e56f8a9e14610885578063f23a6e61146108a25761011b565b8063c10a420814610780578063caed3500146108575761011b565b80638f28397014610500578063984d625214610526578063b522ecff146105f8578063bc197c811461061e5761011b565b806365194ce7116100ee57806365194ce7146103485780636e9960c3146104a657806377f1c3ac146104ca5780638a04af6a146104d25761011b565b80631187fd3c1461012057806325cb5bc014610300578063495906571461031a57806358bc294414610322575b600080fd5b6102fe600480360361012081101561013757600080fd5b6001600160a01b038235811692602081013582169260408201359092169181019060808101606082013564010000000081111561017357600080fd5b82018360208201111561018557600080fd5b803590602001918460208302840111640100000000831117156101a757600080fd5b919390928235926040810190602001356401000000008111156101c957600080fd5b8201836020820111156101db57600080fd5b803590602001918460208302840111640100000000831117156101fd57600080fd5b91939092909160208101903564010000000081111561021b57600080fd5b82018360208201111561022d57600080fd5b8035906020019184602083028401116401000000008311171561024f57600080fd5b91939092909160208101903564010000000081111561026d57600080fd5b82018360208201111561027f57600080fd5b803590602001918460018302840111640100000000831117156102a157600080fd5b9193909290916020810190356401000000008111156102bf57600080fd5b8201836020820111156102d157600080fd5b803590602001918460018302840111640100000000831117156102f357600080fd5b509092509050610937565b005b610308610b17565b60408051918252519081900360200190f35b610308610b3b565b6102fe6004803603602081101561033857600080fd5b50356001600160a01b0316610b5f565b6103ee6004803603602081101561035e57600080fd5b81019060208101813564010000000081111561037957600080fd5b82018360208201111561038b57600080fd5b803590602001918460018302840111640100000000831117156103ad57600080fd5b91908080601f016020809104026020016040519081016040528093929190818152602001838380828437600092019190915250929550610c0a945050505050565b6040518080602001866001600160a01b03166001600160a01b03168152602001856001600160a01b03166001600160a01b03168152602001848152602001838152602001828103825287818151815260200191508051906020019080838360005b8381101561046757818101518382015260200161044f565b50505050905090810190601f1680156104945780820380516001836020036101000a031916815260200191505b50965050505050505060405180910390f35b6104ae610d0f565b604080516001600160a01b039092168252519081900360200190f35b610308610d1e565b6102fe600480360360408110156104e857600080fd5b506001600160a01b0381351690602001351515610d24565b6102fe6004803603602081101561051657600080fd5b50356001600160a01b0316610d7b565b6102fe6004803603606081101561053c57600080fd5b6001600160a01b03823516919081019060408101602082013564010000000081111561056757600080fd5b82018360208201111561057957600080fd5b8035906020019184602083028401116401000000008311171561059b57600080fd5b9193909290916020810190356401000000008111156105b957600080fd5b8201836020820111156105cb57600080fd5b803590602001918460208302840111640100000000831117156105ed57600080fd5b509092509050610e51565b6102fe6004803603602081101561060e57600080fd5b50356001600160a01b0316610fdc565b61074b600480360360a081101561063457600080fd5b6001600160a01b03823581169260208101359091169181019060608101604082013564010000000081111561066857600080fd5b82018360208201111561067a57600080fd5b8035906020019184602083028401116401000000008311171561069c57600080fd5b9193909290916020810190356401000000008111156106ba57600080fd5b8201836020820111156106cc57600080fd5b803590602001918460208302840111640100000000831117156106ee57600080fd5b91939092909160208101903564010000000081111561070c57600080fd5b82018360208201111561071e57600080fd5b8035906020019184600183028401116401000000008311171561074057600080fd5b5090925090506110c5565b604080517fffffffff000000000000000000000000000000000000000000000000000000009092168252519081900360200190f35b610843600480360360a081101561079657600080fd5b8101906020810181356401000000008111156107b157600080fd5b8201836020820111156107c357600080fd5b803590602001918460018302840111640100000000831117156107e557600080fd5b91908080601f016020809104026020016040519081016040528093929190818152602001838380828437600092019190915250929550506001600160a01b0383358116945060208401351692604081013592506060013590506110f2565b604080519115158252519081900360200190f35b6104ae61122e565b6108436004803603602081101561087557600080fd5b50356001600160a01b031661123d565b6102fe6004803603602081101561089b57600080fd5b503561125b565b61074b600480360360a08110156108b857600080fd5b6001600160a01b03823581169260208101359091169160408201359160608101359181019060a0810160808201356401000000008111156108f857600080fd5b82018360208201111561090a57600080fd5b8035906020019184600183028401116401000000008311171561092c57600080fd5b5090925090506112bf565b6109418e8d6112ea565b610a388d8d8d8d80806020026020016040519081016040528093929190818152602001838360200280828437600081840152601f19601f820116905080830192505050505050508c8c8c80806020026020016040519081016040528093929190818152602001838360200280828437600081840152601f19601f820116905080830192505050505050508b8b8080602002602001604051908101604052809392919081815260200183836020028082843760009201919091525050604080516020601f8d018190048102820181019092528b815292508b91508a908190840183828082843760009201919091525061144d92505050565b610a8c8e8c8c6003818110610a4957fe5b9050602002013586868080601f0160208091040260200160405190810160405280939291908181526020018383808284376000920191909152506117d092505050565b610aca8e8e8d8d8080602002602001604051908101604052809392919081815260200183836020028082843760009201919091525061182192505050565b610b078d898980806020026020016040519081016040528093929190818152602001838360200280828437600092019190915250611c1292505050565b5050505050505050505050505050565b7f000000000000000000000000000000000000000000000000000000000000000090565b7f000000000000000000000000000000000000000000000000000000000000000090565b6000546001600160a01b03163314610bbe576040805162461bcd60e51b815260206004820152601060248201527f53656e646572206e6f742061646d696e00000000000000000000000000000000604482015290519081900360640190fd5b600554600280546001600160a01b03908116600090815260046020526040902042909301909255805473ffffffffffffffffffffffffffffffffffffffff191692909116919091179055565b606060008060008060606000806000808a80602001905160a0811015610c2f57600080fd5b8101908080516040519392919084640100000000821115610c4f57600080fd5b908301906020820185811115610c6457600080fd5b8251640100000000811182820188101715610c7e57600080fd5b82525081516020918201929091019080838360005b83811015610cab578181015183820152602001610c93565b50505050905090810190601f168015610cd85780820380516001836020036101000a031916815260200191505b5060409081526020820151908201516060830151608090930151959f50909d509b5099509197505050505050505091939590929450565b6000546001600160a01b031690565b60035490565b6000546001600160a01b03163314610d6d5760405162461bcd60e51b815260040180806020018281038252602e8152602001806125a3602e913960400191505060405180910390fd5b610d778282611dd6565b5050565b6000546001600160a01b03163314610dda576040805162461bcd60e51b815260206004820152601b60248201527f6f6e6c792061646d696e2063616e206368616e67652061646d696e0000000000604482015290519081900360640190fd5b600054604080516001600160a01b039283168152918316602083015280517f7e644d79422f17c01e4894b5f4f588d331ebfa28653d42ae832dc59e38c9798f9281900390910190a16000805473ffffffffffffffffffffffffffffffffffffffff19166001600160a01b0392909216919091179055565b6000546001600160a01b03163314610eb0576040805162461bcd60e51b815260206004820152600e60248201527f4e4f545f415554484f52495a4544000000000000000000000000000000000000604482015290519081900360640190fd5b7f00000000000000000000000000000000000000000000000000000000000000006001600160a01b0316632eb2c2d63087878787876040518763ffffffff1660e01b815260040180876001600160a01b03166001600160a01b03168152602001866001600160a01b03166001600160a01b031681526020018060200180602001806020018481038452888882818152602001925060200280828437600083820152601f01601f19169091018581038452868152602090810191508790870280828437600081840152601f19601f8201169050808301925050508481038252600081526020016020019950505050505050505050600060405180830381600087803b158015610fbd57600080fd5b505af1158015610fd1573d6000803e3d6000fd5b505050505050505050565b6001600160a01b038116611037576040805162461bcd60e51b815260206004820152600c60248201527f5a45524f5f414444524553530000000000000000000000000000000000000000604482015290519081900360640190fd5b6000546001600160a01b03163314611096576040805162461bcd60e51b815260206004820152600e60248201527f4e4f545f415554484f52495a4544000000000000000000000000000000000000604482015290519081900360640190fd5b6006805473ffffffffffffffffffffffffffffffffffffffff19166001600160a01b0392909216919091179055565b7fbc197c810000000000000000000000000000000000000000000000000000000098975050505050505050565b60006003548211806111155750836001600160a01b0316856001600160a01b0316145b8061111f57508242115b1561112c57506000611225565b60408051606087811b7fffffffffffffffffffffffffffffffffffffffff0000000000000000000000009081166020808501919091529188901b166034830152604882018690526068808301869052835180840390910181526088830184528051908201207f19457468657265756d205369676e6564204d6573736167653a0a33320000000060a884015260c48084018290528451808503909101815260e490930190935281519101206000906111e39089611e58565b6001600160a01b038116600090815260046020526040902054909150421161121057600192505050611225565b6002546001600160a01b039081169116149150505b95945050505050565b6002546001600160a01b031690565b6001600160a01b031660009081526001602052604090205460ff1690565b6000546001600160a01b031633146112ba576040805162461bcd60e51b815260206004820152601060248201527f53656e646572206e6f742061646d696e00000000000000000000000000000000604482015290519081900360640190fd5b600355565b7ff23a6e61000000000000000000000000000000000000000000000000000000009695505050505050565b7f0000000000000000000000000000000000000000000000000000000000000000421061135e576040805162461bcd60e51b815260206004820152600c60248201527f53414c455f49535f4f5645520000000000000000000000000000000000000000604482015290519081900360640190fd5b6001600160a01b03821633148061138457503360009081526001602052604090205460ff165b6113d5576040805162461bcd60e51b815260206004820152600e60248201527f4e4f545f415554484f52495a4544000000000000000000000000000000000000604482015290519081900360640190fd5b6001600160a01b03811615806113fc5750816001600160a01b0316816001600160a01b0316145b610d77576040805162461bcd60e51b815260206004820152600d60248201527f52455345525645445f4c414e4400000000000000000000000000000000000000604482015290519081900360640190fd5b600087878760008151811061145e57fe5b60200260200101518860018151811061147357fe5b60200260200101518960028151811061148857fe5b60200260200101518a60038151811061149d57fe5b60200260200101518a8a60405160200180828051906020019060200280838360005b838110156114d75781810151838201526020016114bf565b50505050905001915050604051602081830303815290604052805190602001208a60405160200180828051906020019060200280838360005b83811015611528578181015183820152602001611510565b5050505090500191505060405160208183030381529060405280519060200120604051602001808a6001600160a01b03166001600160a01b031660601b8152601401896001600160a01b03166001600160a01b031660601b81526014018881526020018781526020018681526020018581526020018481526020018381526020018281526020019950505050505050505050604051602081830303815290604052805190602001209050600760009054906101000a90046001600160a01b03166001600160a01b031663012847ed83836040518363ffffffff1660e01b81526004018080602001838152602001828103825284818151815260200191508051906020019080838360005b8381101561164a578181015183820152602001611632565b50505050905090810190601f1680156116775780820380516001836020036101000a031916815260200191505b50935050505060206040518083038186803b15801561169557600080fd5b505afa1580156116a9573d6000803e3d6000fd5b505050506040513d60208110156116bf57600080fd5b5051611712576040805162461bcd60e51b815260206004820152600c60248201527f494e56414c49445f415554480000000000000000000000000000000000000000604482015290519081900360640190fd5b60006117738760008151811061172457fe5b60200260200101518860018151811061173957fe5b60200260200101518960028151811061174e57fe5b60200260200101518a60038151811061176357fe5b60200260200101518c8b8b611f25565b905061177f8482611fca565b610fd1576040805162461bcd60e51b815260206004820152600c60248201527f494e56414c49445f4c414e440000000000000000000000000000000000000000604482015290519081900360640190fd5b60006117dc8484612095565b60065490915061181b908590839085906001600160a01b03167f00000000000000000000000000000000000000000000000000000000000000006121ee565b50505050565b8060028151811061182e57fe5b60200260200101516001148061186b57507f00000000000000000000000000000000000000000000000000000000000000006001600160a01b0316155b1561196d577f00000000000000000000000000000000000000000000000000000000000000006001600160a01b0316636e1e3bbf83836002815181106118ad57fe5b6020026020010151846000815181106118c257fe5b6020026020010151856001815181106118d757fe5b60200260200101516040518563ffffffff1660e01b815260040180856001600160a01b03166001600160a01b031681526020018481526020018381526020018281526020018060200182810382526000815260200160200195505050505050600060405180830381600087803b15801561195057600080fd5b505af1158015611964573d6000803e3d6000fd5b50505050611b0d565b7f00000000000000000000000000000000000000000000000000000000000000006001600160a01b0316636e1e3bbf7f0000000000000000000000000000000000000000000000000000000000000000836002815181106119ca57fe5b6020026020010151846000815181106119df57fe5b6020026020010151856001815181106119f457fe5b60200260200101518760405160200180826001600160a01b03166001600160a01b031681526020019150506040516020818303038152906040526040518663ffffffff1660e01b815260040180866001600160a01b03166001600160a01b0316815260200185815260200184815260200183815260200180602001828103825283818151815260200191508051906020019080838360005b83811015611aa4578181015183820152602001611a8c565b50505050905090810190601f168015611ad15780820380516001836020036101000a031916815260200191505b509650505050505050600060405180830381600087803b158015611af457600080fd5b505af1158015611b08573d6000803e3d6000fd5b505050505b61019881600181518110611b1d57fe5b60200260200101510281600081518110611b3357fe5b602002602001015101826001600160a01b0316846001600160a01b03167fe4dfa6ac11314892f3029b34a25b1a887da3b1cab2bbf8506d87128ba6e3ac0284600281518110611b7e57fe5b602002602001015185600381518110611b9357fe5b60200260200101517f000000000000000000000000000000000000000000000000000000000000000087600381518110611bc957fe5b602002602001015160405180858152602001848152602001836001600160a01b03166001600160a01b0316815260200182815260200194505050505060405180910390a4505050565b6060815167ffffffffffffffff81118015611c2c57600080fd5b50604051908082528060200260200182016040528015611c56578160200160208202803683370190505b50905060005b8251811015611c86576001828281518110611c7357fe5b6020908102919091010152600101611c5c565b507f00000000000000000000000000000000000000000000000000000000000000006001600160a01b0316632eb2c2d6308585856040518563ffffffff1660e01b815260040180856001600160a01b03166001600160a01b03168152602001846001600160a01b03166001600160a01b03168152602001806020018060200180602001848103845286818151815260200191508051906020019060200280838360005b83811015611d41578181015183820152602001611d29565b50505050905001848103835285818151815260200191508051906020019060200280838360005b83811015611d80578181015183820152602001611d68565b50505050905001848103825260008152602001602001975050505050505050600060405180830381600087803b158015611db957600080fd5b505af1158015611dcd573d6000803e3d6000fd5b50505050505050565b6001600160a01b03821660008181526001602090815260409182902080547fffffffffffffffffffffffffffffffffffffffffffffffffffffffffffffff001685151590811790915582519384529083015280517fb21eb88b4e33b3f1281830a7178d74d8aa73220416215726b68ae23d539515cb9281900390910190a15050565b60008151604114611e6857600080fd5b60208201516040830151606084015160001a601b811015611e8757601b015b8060ff16601b1480611e9c57508060ff16601c145b611ea557600080fd5b6040805160008152602080820180845289905260ff8416828401526060820186905260808201859052915160019260a0808401939192601f1981019281900390910190855afa158015611efc573d6000803e3d6000fd5b5050604051601f1901519450506001600160a01b038416611f1c57600080fd5b50505092915050565b60008787878787878760405160200180888152602001878152602001868152602001858152602001846001600160a01b03166001600160a01b031660601b8152601401838152602001828051906020019060200280838360005b83811015611f97578181015183820152602001611f7f565b50505050905001975050505050505050604051602081830303815290604052805190602001209050979650505050505050565b600081815b8451811015612069576000858281518110611fe657fe5b602002602001015190508083101561202e5782816040516020018083815260200182815260200192505050604051602081830303815290604052805190602001209250612060565b808360405160200180838152602001828152602001925050506040516020818303038152906040528051906020012092505b50600101611fcf565b507f00000000000000000000000000000000000000000000000000000000000000001490505b92915050565b6000806120ba60646120ae85600563ffffffff61247016565b9063ffffffff6124e016565b604080516323b872dd60e01b81526001600160a01b0387811660048301527f0000000000000000000000000000000000000000000000000000000000000000811660248301526044820184905291519293507f0000000000000000000000000000000000000000000000000000000000000000909116916323b872dd916064808201926020929091908290030181600087803b15801561215957600080fd5b505af115801561216d573d6000803e3d6000fd5b505050506040513d602081101561218357600080fd5b50516121d6576040805162461bcd60e51b815260206004820152601360248201527f4645455f5452414e534645525f4641494c454400000000000000000000000000604482015290519081900360640190fd5b6121e6838263ffffffff61254516565b949350505050565b8251819085901561239857606060008060008061220a8a610c0a565b939850919650945092509050600061222586868686866110f2565b156122b35761223f6122378d84612470565b6127106124e0565b9050886001600160a01b0316846001600160a01b0316866001600160a01b03167fac7a699eb95c3c6d390ec4626de17ef9a67b35891efdb197beba7c7fdd45fac48f858760405180848152602001838152602001828152602001935050505060405180910390a46122b08782612545565b96505b801561239157604080516323b872dd60e01b81526001600160a01b038f811660048301528781166024830152604482018490529151918a16916323b872dd916064808201926020929091908290030181600087803b15801561231457600080fd5b505af1158015612328573d6000803e3d6000fd5b505050506040513d602081101561233e57600080fd5b5051612391576040805162461bcd60e51b815260206004820152601960248201527f636f6d6d6973696f6e207472616e73666572206661696c656400000000000000604482015290519081900360640190fd5b5050505050505b604080516323b872dd60e01b81526001600160a01b0389811660048301528681166024830152604482018490529151918416916323b872dd916064808201926020929091908290030181600087803b1580156123f357600080fd5b505af1158015612407573d6000803e3d6000fd5b505050506040513d602081101561241d57600080fd5b5051611dcd576040805162461bcd60e51b815260206004820152601760248201527f7061796d656e74207472616e73666572206661696c6564000000000000000000604482015290519081900360640190fd5b60008261247f5750600061208f565b508181028183828161248d57fe5b041461208f576040805162461bcd60e51b815260206004820152600860248201527f6f766572666c6f77000000000000000000000000000000000000000000000000604482015290519081900360640190fd5b600081612534576040805162461bcd60e51b815260206004820152600960248201527f64697662797a65726f0000000000000000000000000000000000000000000000604482015290519081900360640190fd5b81838161253d57fe5b049392505050565b60008282111561259c576040805162461bcd60e51b815260206004820152600860248201527f756e6465666c6f77000000000000000000000000000000000000000000000000604482015290519081900360640190fd5b5090039056fe6f6e6c792061646d696e2063616e207365747570206d6574615472616e73616374696f6e50726f636573736f7273a2646970667358221220fc9205bafc138c1de206481f144dc3e7818922fbe1a20d2a71392e5e2e413c1a64736f6c63430006050033",
  "devdoc": {
    "methods": {
      "buyLandWithSand(address,address,address,uint256[],bytes32,uint256[],bytes32[],bytes,bytes)": {
        "params": {
          "buyer": "address that perform the payment",
          "info": "[X_INDEX=0] x coordinate of the Land [Y_INDEX=1] y coordinate of the Land [SIZE_INDEX=2] size of the pack of Land to purchase [PRICE_INDEX=3] price in SAND to purchase that Land",
          "proof": "merkleProof for that particular Land",
          "reserved": "the reserved address (if any)",
          "to": "address that will own the purchased Land"
        }
      },
      "changeAdmin(address)": {
        "details": "change the administrator to be `newAdmin`.",
        "params": {
          "newAdmin": "address of the new administrator."
        }
      },
      "getAdmin()": {
        "details": "gives the current administrator of this contract.",
        "returns": {
          "_0": "the current administrator of this contract."
        }
      },
      "getSigningWallet()": {
        "details": "signing wallet authorized for referral",
        "returns": {
          "_0": "the address of the signing wallet"
        }
      },
      "isMetaTransactionProcessor(address)": {
        "details": "check whether address `who` is given meta-transaction execution rights.",
        "params": {
          "who": "The address to query."
        },
        "returns": {
          "_0": "whether the address has meta-transaction execution rights."
        }
      },
      "isReferralValid(bytes,address,address,uint256,uint256)": {
        "params": {
          "commissionRate": "The commissionRate of the referral",
          "expiryTime": "The expiry time of the referral",
          "referee": "The address of the referee",
          "referrer": "The address of the referrer",
          "signature": "The signature to check (signed referral)"
        },
        "returns": {
          "_0": "True if the referral is valid"
        }
      },
      "setMetaTransactionProcessor(address,bool)": {
        "details": "Enable or disable the ability of `metaTransactionProcessor` to perform meta-tx (metaTransactionProcessor rights).",
        "params": {
          "enabled": "set whether the metaTransactionProcessor is enabled or disabled.",
          "metaTransactionProcessor": "address that will be given/removed metaTransactionProcessor rights."
        }
      },
      "setReceivingWallet(address)": {
        "params": {
          "newWallet": "address of the new receiving wallet"
        }
      },
      "updateMaxCommissionRate(uint256)": {
        "details": "Update the maximum commission rate",
        "params": {
          "newMaxCommissionRate": "The new maximum commission rate"
        }
      },
      "updateSigningWallet(address)": {
        "details": "Update the signing wallet",
        "params": {
          "newSigningWallet": "The new address of the signing wallet"
        }
      },
      "withdrawAssets(address,uint256[],uint256[])": {
        "params": {
          "assetIds": "the assetIds to be transferred",
          "to": "intended recipient of the asset tokens",
          "values": "the quantities of the assetIds to be transferred"
        }
      }
    },
    "title": "Estate Sale contract with referral"
  },
  "userdoc": {
    "methods": {
      "buyLandWithSand(address,address,address,uint256[],bytes32,uint256[],bytes32[],bytes,bytes)": {
        "notice": "buy Land with SAND using the merkle proof associated with it"
      },
      "getExpiryTime()": {
        "notice": "Gets the expiry time for the current sale"
      },
      "getMaxCommisionRate()": {
        "notice": "the max commision rate"
      },
      "getMerkleRoot()": {
        "notice": "Gets the Merkle root associated with the current sale"
      },
      "isReferralValid(bytes,address,address,uint256,uint256)": {
        "notice": "Check if a referral is valid"
      },
      "setReceivingWallet(address)": {
        "notice": "set the wallet receiving the proceeds"
      },
      "withdrawAssets(address,uint256[],uint256[])": {
        "notice": "enable Admin to withdraw remaining assets from EstateSaleWithFee contract"
      }
    },
    "notice": "This contract manages the sale of our lands as Estates"
  },
  "storageLayout": {
    "storage": [
      {
        "astId": 13650,
        "contract": "src/solc_0.6/EstateSale/EstateSaleWithAuth.sol:EstateSaleWithAuth",
        "label": "_admin",
        "offset": 0,
        "slot": "0",
        "type": "t_address"
      },
      {
        "astId": 13712,
        "contract": "src/solc_0.6/EstateSale/EstateSaleWithAuth.sol:EstateSaleWithAuth",
        "label": "_metaTransactionContracts",
        "offset": 0,
        "slot": "1",
        "type": "t_mapping(t_address,t_bool)"
      },
      {
        "astId": 11828,
        "contract": "src/solc_0.6/EstateSale/EstateSaleWithAuth.sol:EstateSaleWithAuth",
        "label": "_signingWallet",
        "offset": 0,
        "slot": "2",
        "type": "t_address"
      },
      {
        "astId": 11830,
        "contract": "src/solc_0.6/EstateSale/EstateSaleWithAuth.sol:EstateSaleWithAuth",
        "label": "_maxCommissionRate",
        "offset": 0,
        "slot": "3",
        "type": "t_uint256"
      },
      {
        "astId": 11834,
        "contract": "src/solc_0.6/EstateSale/EstateSaleWithAuth.sol:EstateSaleWithAuth",
        "label": "_previousSigningWallets",
        "offset": 0,
        "slot": "4",
        "type": "t_mapping(t_address,t_uint256)"
      },
      {
        "astId": 11843,
        "contract": "src/solc_0.6/EstateSale/EstateSaleWithAuth.sol:EstateSaleWithAuth",
        "label": "_previousSigningDelay",
        "offset": 0,
        "slot": "5",
        "type": "t_uint256"
      },
      {
        "astId": 7453,
        "contract": "src/solc_0.6/EstateSale/EstateSaleWithAuth.sol:EstateSaleWithAuth",
        "label": "_wallet",
        "offset": 0,
        "slot": "6",
        "type": "t_address_payable"
      },
      {
        "astId": 7455,
        "contract": "src/solc_0.6/EstateSale/EstateSaleWithAuth.sol:EstateSaleWithAuth",
        "label": "_authValidator",
        "offset": 0,
        "slot": "7",
        "type": "t_contract(AuthValidator)6784"
      }
    ],
    "types": {
      "t_address": {
        "encoding": "inplace",
        "label": "address",
        "numberOfBytes": "20"
      },
      "t_address_payable": {
        "encoding": "inplace",
        "label": "address payable",
        "numberOfBytes": "20"
      },
      "t_bool": {
        "encoding": "inplace",
        "label": "bool",
        "numberOfBytes": "1"
      },
      "t_contract(AuthValidator)6784": {
        "encoding": "inplace",
        "label": "contract AuthValidator",
        "numberOfBytes": "20"
      },
      "t_mapping(t_address,t_bool)": {
        "encoding": "mapping",
        "key": "t_address",
        "label": "mapping(address => bool)",
        "numberOfBytes": "32",
        "value": "t_bool"
      },
      "t_mapping(t_address,t_uint256)": {
        "encoding": "mapping",
        "key": "t_address",
        "label": "mapping(address => uint256)",
        "numberOfBytes": "32",
        "value": "t_uint256"
      },
      "t_uint256": {
        "encoding": "inplace",
        "label": "uint256",
        "numberOfBytes": "32"
      }
    }
  }
}