{
  "address": "0x156e28E054705a35265Fa566B90DfB195544aC63",
  "abi": [
    {
      "inputs": [
        {
          "internalType": "address",
          "name": "landAddress",
          "type": "address"
        },
        {
          "internalType": "address",
          "name": "sandContractAddress",
          "type": "address"
        },
        {
          "internalType": "address",
          "name": "initialMetaTx",
          "type": "address"
        },
        {
          "internalType": "address",
          "name": "admin",
          "type": "address"
        },
        {
          "internalType": "address payable",
          "name": "initialWalletAddress",
          "type": "address"
        },
        {
          "internalType": "bytes32",
          "name": "merkleRoot",
          "type": "bytes32"
        },
        {
          "internalType": "uint256",
          "name": "expiryTime",
          "type": "uint256"
        },
        {
          "internalType": "address",
          "name": "initialSigningWallet",
          "type": "address"
        },
        {
          "internalType": "uint256",
          "name": "initialMaxCommissionRate",
          "type": "uint256"
        },
        {
          "internalType": "address",
          "name": "estate",
          "type": "address"
        },
        {
          "internalType": "address",
          "name": "asset",
          "type": "address"
        },
        {
          "internalType": "address",
          "name": "feeDistributor",
          "type": "address"
        }
      ],
      "stateMutability": "nonpayable",
      "type": "constructor"
    },
    {
      "anonymous": false,
      "inputs": [
        {
          "indexed": false,
          "internalType": "address",
          "name": "oldAdmin",
          "type": "address"
        },
        {
          "indexed": false,
          "internalType": "address",
          "name": "newAdmin",
          "type": "address"
        }
      ],
      "name": "AdminChanged",
      "type": "event"
    },
    {
      "anonymous": false,
      "inputs": [
        {
          "indexed": true,
          "internalType": "address",
          "name": "buyer",
          "type": "address"
        },
        {
          "indexed": true,
          "internalType": "address",
          "name": "to",
          "type": "address"
        },
        {
          "indexed": true,
          "internalType": "uint256",
          "name": "topCornerId",
          "type": "uint256"
        },
        {
          "indexed": false,
          "internalType": "uint256",
          "name": "size",
          "type": "uint256"
        },
        {
          "indexed": false,
          "internalType": "uint256",
          "name": "price",
          "type": "uint256"
        },
        {
          "indexed": false,
          "internalType": "address",
          "name": "token",
          "type": "address"
        },
        {
          "indexed": false,
          "internalType": "uint256",
          "name": "amountPaid",
          "type": "uint256"
        }
      ],
      "name": "LandQuadPurchased",
      "type": "event"
    },
    {
      "anonymous": false,
      "inputs": [
        {
          "indexed": false,
          "internalType": "address",
          "name": "metaTransactionProcessor",
          "type": "address"
        },
        {
          "indexed": false,
          "internalType": "bool",
          "name": "enabled",
          "type": "bool"
        }
      ],
      "name": "MetaTransactionProcessor",
      "type": "event"
    },
    {
      "anonymous": false,
      "inputs": [
        {
          "indexed": true,
          "internalType": "address",
          "name": "referrer",
          "type": "address"
        },
        {
          "indexed": true,
          "internalType": "address",
          "name": "referee",
          "type": "address"
        },
        {
          "indexed": true,
          "internalType": "address",
          "name": "token",
          "type": "address"
        },
        {
          "indexed": false,
          "internalType": "uint256",
          "name": "amount",
          "type": "uint256"
        },
        {
          "indexed": false,
          "internalType": "uint256",
          "name": "commission",
          "type": "uint256"
        },
        {
          "indexed": false,
          "internalType": "uint256",
          "name": "commissionRate",
          "type": "uint256"
        }
      ],
      "name": "ReferralUsed",
      "type": "event"
    },
    {
      "inputs": [
        {
          "internalType": "address",
          "name": "buyer",
          "type": "address"
        },
        {
          "internalType": "address",
          "name": "to",
          "type": "address"
        },
        {
          "internalType": "address",
          "name": "reserved",
          "type": "address"
        },
        {
          "internalType": "uint256",
          "name": "x",
          "type": "uint256"
        },
        {
          "internalType": "uint256",
          "name": "y",
          "type": "uint256"
        },
        {
          "internalType": "uint256",
          "name": "size",
          "type": "uint256"
        },
        {
          "internalType": "uint256",
          "name": "priceInSand",
          "type": "uint256"
        },
        {
          "internalType": "uint256",
          "name": "adjustedPriceInSand",
          "type": "uint256"
        },
        {
          "internalType": "bytes32",
          "name": "salt",
          "type": "bytes32"
        },
        {
          "internalType": "uint256[]",
          "name": "assetIds",
          "type": "uint256[]"
        },
        {
          "internalType": "bytes32[]",
          "name": "proof",
          "type": "bytes32[]"
        },
        {
          "internalType": "bytes",
          "name": "referral",
          "type": "bytes"
        }
      ],
      "name": "buyLandWithSand",
      "outputs": [],
      "stateMutability": "nonpayable",
      "type": "function"
    },
    {
      "inputs": [
        {
          "internalType": "address",
          "name": "newAdmin",
          "type": "address"
        }
      ],
      "name": "changeAdmin",
      "outputs": [],
      "stateMutability": "nonpayable",
      "type": "function"
    },
    {
      "inputs": [
        {
          "internalType": "bytes",
          "name": "referral",
          "type": "bytes"
        }
      ],
      "name": "decodeReferral",
      "outputs": [
        {
          "internalType": "bytes",
          "name": "",
          "type": "bytes"
        },
        {
          "internalType": "address",
          "name": "",
          "type": "address"
        },
        {
          "internalType": "address",
          "name": "",
          "type": "address"
        },
        {
          "internalType": "uint256",
          "name": "",
          "type": "uint256"
        },
        {
          "internalType": "uint256",
          "name": "",
          "type": "uint256"
        }
      ],
      "stateMutability": "pure",
      "type": "function"
    },
    {
      "inputs": [],
      "name": "getAdmin",
      "outputs": [
        {
          "internalType": "address",
          "name": "",
          "type": "address"
        }
      ],
      "stateMutability": "view",
      "type": "function"
    },
    {
      "inputs": [],
      "name": "getExpiryTime",
      "outputs": [
        {
          "internalType": "uint256",
          "name": "",
          "type": "uint256"
        }
      ],
      "stateMutability": "view",
      "type": "function"
    },
    {
      "inputs": [],
      "name": "getMaxCommisionRate",
      "outputs": [
        {
          "internalType": "uint256",
          "name": "",
          "type": "uint256"
        }
      ],
      "stateMutability": "view",
      "type": "function"
    },
    {
      "inputs": [],
      "name": "getMerkleRoot",
      "outputs": [
        {
          "internalType": "bytes32",
          "name": "",
          "type": "bytes32"
        }
      ],
      "stateMutability": "view",
      "type": "function"
    },
    {
      "inputs": [],
      "name": "getSandMultiplier",
      "outputs": [
        {
          "internalType": "uint256",
          "name": "",
          "type": "uint256"
        }
      ],
      "stateMutability": "view",
      "type": "function"
    },
    {
      "inputs": [],
      "name": "getSigningWallet",
      "outputs": [
        {
          "internalType": "address",
          "name": "",
          "type": "address"
        }
      ],
      "stateMutability": "view",
      "type": "function"
    },
    {
      "inputs": [
        {
          "internalType": "address",
          "name": "who",
          "type": "address"
        }
      ],
      "name": "isMetaTransactionProcessor",
      "outputs": [
        {
          "internalType": "bool",
          "name": "",
          "type": "bool"
        }
      ],
      "stateMutability": "view",
      "type": "function"
    },
    {
      "inputs": [
        {
          "internalType": "bytes",
          "name": "signature",
          "type": "bytes"
        },
        {
          "internalType": "address",
          "name": "referrer",
          "type": "address"
        },
        {
          "internalType": "address",
          "name": "referee",
          "type": "address"
        },
        {
          "internalType": "uint256",
          "name": "expiryTime",
          "type": "uint256"
        },
        {
          "internalType": "uint256",
          "name": "commissionRate",
          "type": "uint256"
        }
      ],
      "name": "isReferralValid",
      "outputs": [
        {
          "internalType": "bool",
          "name": "",
          "type": "bool"
        }
      ],
      "stateMutability": "view",
      "type": "function"
    },
    {
      "inputs": [
        {
          "internalType": "address",
          "name": "",
          "type": "address"
        },
        {
          "internalType": "address",
          "name": "",
          "type": "address"
        },
        {
          "internalType": "uint256[]",
          "name": "",
          "type": "uint256[]"
        },
        {
          "internalType": "uint256[]",
          "name": "",
          "type": "uint256[]"
        },
        {
          "internalType": "bytes",
          "name": "",
          "type": "bytes"
        }
      ],
      "name": "onERC1155BatchReceived",
      "outputs": [
        {
          "internalType": "bytes4",
          "name": "",
          "type": "bytes4"
        }
      ],
      "stateMutability": "pure",
      "type": "function"
    },
    {
      "inputs": [
        {
          "internalType": "address",
          "name": "",
          "type": "address"
        },
        {
          "internalType": "address",
          "name": "",
          "type": "address"
        },
        {
          "internalType": "uint256",
          "name": "",
          "type": "uint256"
        },
        {
          "internalType": "uint256",
          "name": "",
          "type": "uint256"
        },
        {
          "internalType": "bytes",
          "name": "",
          "type": "bytes"
        }
      ],
      "name": "onERC1155Received",
      "outputs": [
        {
          "internalType": "bytes4",
          "name": "",
          "type": "bytes4"
        }
      ],
      "stateMutability": "pure",
      "type": "function"
    },
    {
      "inputs": [
        {
          "internalType": "uint256",
          "name": "newMultiplier",
          "type": "uint256"
        }
      ],
      "name": "rebalanceSand",
      "outputs": [],
      "stateMutability": "nonpayable",
      "type": "function"
    },
    {
      "inputs": [
        {
          "internalType": "address",
          "name": "metaTransactionProcessor",
          "type": "address"
        },
        {
          "internalType": "bool",
          "name": "enabled",
          "type": "bool"
        }
      ],
      "name": "setMetaTransactionProcessor",
      "outputs": [],
      "stateMutability": "nonpayable",
      "type": "function"
    },
    {
      "inputs": [
        {
          "internalType": "address payable",
          "name": "newWallet",
          "type": "address"
        }
      ],
      "name": "setReceivingWallet",
      "outputs": [],
      "stateMutability": "nonpayable",
      "type": "function"
    },
    {
      "inputs": [
        {
          "internalType": "uint256",
          "name": "newMaxCommissionRate",
          "type": "uint256"
        }
      ],
      "name": "updateMaxCommissionRate",
      "outputs": [],
      "stateMutability": "nonpayable",
      "type": "function"
    },
    {
      "inputs": [
        {
          "internalType": "address",
          "name": "newSigningWallet",
          "type": "address"
        }
      ],
      "name": "updateSigningWallet",
      "outputs": [],
      "stateMutability": "nonpayable",
      "type": "function"
    },
    {
      "inputs": [
        {
          "internalType": "address",
          "name": "to",
          "type": "address"
        },
        {
          "internalType": "uint256[]",
          "name": "assetIds",
          "type": "uint256[]"
        },
        {
          "internalType": "uint256[]",
          "name": "values",
          "type": "uint256[]"
        }
      ],
      "name": "withdrawAssets",
      "outputs": [],
      "stateMutability": "nonpayable",
      "type": "function"
    }
  ],
  "transactionHash": "0xde692400b2296ff050ed7f730e120523b2cad4714516669fe016f95fde820ec8",
  "args": [
    "0xaF40A483bF77AAb7b7D13dB18187E6D62C1EA41b",
    "0xCc933a862fc15379E441F2A16Cb943D385a4695f",
    "0xCc933a862fc15379E441F2A16Cb943D385a4695f",
    "0xa4519D601F43D0b8f167842a367465681F652252",
    "0x60927eB036621b801491B6c5e9A60A8d2dEeD75A",
    "0x7e0568affa2f6350df6d26f349729109718bbddf5467ee63f3a8e17f40999de5",
    1657890000,
    "0xB7060D3FeCAC3AE1F0A0AA416E3e8E472257950e",
    2000,
    "0x0000000000000000000000000000000000000000",
    "0x8055a2c0f7EB177BeaB357B70E6504402d2b5fF6",
    "0x5983532A5b9009E05428595b87F19e42068a232B"
  ],
  "linkedData": [
    {
      "x": 168,
      "y": 310,
      "size": 1,
      "price": "1011000000000000000000",
      "reserved": "",
      "salt": "0xb5e6559ed82e2de6f25e1424534abe06f93745f4370e0566ce909e5ce673f7bb",
      "assetIds": []
    },
    {
      "x": 168,
      "y": 311,
      "size": 1,
      "price": "1011000000000000000000",
      "reserved": "",
      "salt": "0xecf259d0802d77878669decd6022ab4d144947b6a8e19a5025c96e2b7a22c45b",
      "assetIds": []
    },
    {
      "x": 169,
      "y": 310,
      "size": 1,
      "price": "1011000000000000000000",
      "reserved": "",
      "salt": "0x63b744af2bc97891a0662b896344eb80430a978c408233412420b2683ab68d98",
      "assetIds": []
    },
    {
      "x": 169,
      "y": 311,
      "size": 1,
      "price": "1011000000000000000000",
      "reserved": "",
      "salt": "0x3ba6d1934d2047e9bf035208f9d50f49bbf88281fd79fec46f95f0d190138500",
      "assetIds": []
    },
    {
      "x": 170,
      "y": 310,
      "size": 1,
      "price": "1011000000000000000000",
      "reserved": "",
      "salt": "0xcc6e98dd7c5210f7fa310bab997941fc2e57646eef9d5a23fb77841705ade546",
      "assetIds": []
    },
    {
      "x": 170,
      "y": 311,
      "size": 1,
      "price": "1011000000000000000000",
      "reserved": "",
      "salt": "0xcad6bfa642325febd0f6fe92dfe93fec7338d9937aa3a3446a32e8409710ca06",
      "assetIds": []
    },
    {
      "x": 171,
      "y": 310,
      "size": 1,
      "price": "1011000000000000000000",
      "reserved": "",
      "salt": "0x86cf6f9eda111051f7da022f8dcf340928d11c421451c60a2b0c0977372336fe",
      "assetIds": []
    },
    {
      "x": 171,
      "y": 311,
      "size": 1,
      "price": "1011000000000000000000",
      "reserved": "",
      "salt": "0x84f2b99c961b093d86246721f3a074374aea0a680efffbf23cdc238dc359daee",
      "assetIds": []
    },
    {
      "x": 172,
      "y": 310,
      "size": 1,
      "price": "1011000000000000000000",
      "reserved": "",
      "salt": "0xae641859af1f364d17ce43a553c3783f6d32782eac4ba9a9cc74d048aecc2e6e",
      "assetIds": []
    },
    {
      "x": 172,
      "y": 311,
      "size": 1,
      "price": "1011000000000000000000",
      "reserved": "",
      "salt": "0x7f937b013a360a92994b4436e5307b8cc8c1c62722f283e09fb81dc3b4622199",
      "assetIds": []
    },
    {
      "x": 173,
      "y": 310,
      "size": 1,
      "price": "1011000000000000000000",
      "reserved": "",
      "salt": "0x232a77eca7b48bb3f96f15308acd4e1553c0e82508fec4dea27d3e936f5cdd6d",
      "assetIds": []
    },
    {
      "x": 173,
      "y": 311,
      "size": 1,
      "price": "1011000000000000000000",
      "reserved": "",
      "salt": "0xf1d7dfe30ebf78d4a0140d0969019a14fb20b61754ec6b2ea02b479f3fa217c6",
      "assetIds": []
    },
    {
      "x": 174,
      "y": 310,
      "size": 1,
      "price": "1011000000000000000000",
      "reserved": "",
      "salt": "0xca720da9a36948c3e6e7d2374a1fa1a378d7f9a0f0baca3f9d86e8a9475a612b",
      "assetIds": []
    },
    {
      "x": 174,
      "y": 311,
      "size": 1,
      "price": "1011000000000000000000",
      "reserved": "",
      "salt": "0x0321663385dd52ae62dbfd0c3a906b66dd93f17d8ab9890f98c04be54fbfeab9",
      "assetIds": []
    },
    {
      "x": 174,
      "y": 312,
      "size": 1,
      "price": "1011000000000000000000",
      "reserved": "",
      "salt": "0x09d73efda266b794fdafc36bf838fba2beff7baf443452cdd6fd396ef6ee98cf",
      "assetIds": []
    },
    {
      "x": 175,
      "y": 310,
      "size": 1,
      "price": "1011000000000000000000",
      "reserved": "",
      "salt": "0x5f1310d04131251a10a9119f80e161af33a6c1d7c3634bfc9d0b0a1c663e3e49",
      "assetIds": []
    },
    {
      "x": 175,
      "y": 311,
      "size": 1,
      "price": "1011000000000000000000",
      "reserved": "0x7a9fe22691c811ea339d9b73150e6911a5343dca",
      "salt": "0x9899207fa20207b257c9bd322edd65a82ee0e12b20d28e9fc435660d52c9f110",
      "assetIds": []
    },
    {
      "x": 175,
      "y": 312,
      "size": 1,
      "price": "1011000000000000000000",
      "reserved": "",
      "salt": "0x9a299533b0365d8ea40f239d4157b3f36c6241c21c0ba8c0b82a7d98fd12e2d6",
      "assetIds": []
    },
    {
      "x": 176,
      "y": 310,
      "size": 1,
      "price": "1011000000000000000000",
      "reserved": "",
      "salt": "0x6f85033fe4e92becc323c149a73132988d60fc02727c2f110f5ab4de70b50713",
      "assetIds": []
    },
    {
      "x": 176,
      "y": 311,
      "size": 1,
      "price": "1011000000000000000000",
      "reserved": "0x7a9fe22691c811ea339d9b73150e6911a5343dca",
      "salt": "0x82a5167079580af78b38b85ee01462360215558ba199cc53ab5ad55e6a7a9dfa",
      "assetIds": []
    },
    {
      "x": 176,
      "y": 312,
      "size": 1,
      "price": "1011000000000000000000",
      "reserved": "",
      "salt": "0xf79c26cfbf14473ba3fc6fc3c41ad54d5348d85d5af35ca6a14b306cffcafad2",
      "assetIds": []
    },
    {
      "x": 176,
      "y": 313,
      "size": 1,
      "price": "1011000000000000000000",
      "reserved": "",
      "salt": "0x0c999c2e94975fec2c51111950f85f7c774473a2664cca23a62bd9f3a1ffe668",
      "assetIds": []
    },
    {
      "x": 177,
      "y": 310,
      "size": 1,
      "price": "1011000000000000000000",
      "reserved": "",
      "salt": "0x75f9aa5797cf8aac40b62240b2bf52c09567c868372db9be888a36c38c8470cc",
      "assetIds": []
    },
    {
      "x": 177,
      "y": 311,
      "size": 1,
      "price": "1011000000000000000000",
      "reserved": "",
      "salt": "0xb7ca55f05d79fe69b0ba546da6b292248e7335b3beb8b6887e6a9cfd124a4339",
      "assetIds": []
    },
    {
      "x": 177,
      "y": 312,
      "size": 1,
      "price": "1011000000000000000000",
      "reserved": "",
      "salt": "0x2c7703ac256c54aa4d7389d01e77a9cf5d28d24e0f144f292fda4346f38f1514",
      "assetIds": []
    },
    {
      "x": 177,
      "y": 313,
      "size": 1,
      "price": "1011000000000000000000",
      "reserved": "0x7a9fe22691c811ea339d9b73150e6911a5343dca",
      "salt": "0x6226dcf550d0607a92b5ebb15df1774ee590fbb84423f6d28354eca5a51de1a9",
      "assetIds": []
    },
    {
      "x": 177,
      "y": 314,
      "size": 1,
      "price": "1011000000000000000000",
      "reserved": "",
      "salt": "0xa3130efc760f871de917cf3c3de19097caff088935997683f974ce09b5b7ae0e",
      "assetIds": []
    },
    {
      "x": 177,
      "y": 315,
      "size": 1,
      "price": "1011000000000000000000",
      "reserved": "",
      "salt": "0x8cdf8c904c113b28186be976d0ad730093803e4f2988ee662e6355caf1fbcfe0",
      "assetIds": []
    },
    {
      "x": 177,
      "y": 316,
      "size": 1,
      "price": "1011000000000000000000",
      "reserved": "",
      "salt": "0xfa42fe99c899148b12f7dd24654369e45496e2d35711ebf8e38a2638f4d96109",
      "assetIds": []
    },
    {
      "x": 177,
      "y": 317,
      "size": 1,
      "price": "1011000000000000000000",
      "reserved": "",
      "salt": "0x912ad0a2a2bfd9ebef2ce9bfd49f12d87ae8ac2bb6ff14477119ac67314f10e6",
      "assetIds": []
    },
    {
      "x": 177,
      "y": 318,
      "size": 1,
      "price": "1011000000000000000000",
      "reserved": "",
      "salt": "0xe9ec4b99abcf9655798fffed5a4429f58bd8ca8e323a0182eae3ae2bdb544b9b",
      "assetIds": []
    },
    {
      "x": 177,
      "y": 319,
      "size": 1,
      "price": "1011000000000000000000",
      "reserved": "",
      "salt": "0x20146001ec638bf06d0c404c3745a47dc75014df6fa11850cfb2b2c3fde68d48",
      "assetIds": []
    },
    {
      "x": 177,
      "y": 320,
      "size": 1,
      "price": "1011000000000000000000",
      "reserved": "",
      "salt": "0x815c520e196bbb2cce3e9239749ffc877c0b04663bdccff2e5107c14c6cf9844",
      "assetIds": []
    },
    {
      "x": 177,
      "y": 321,
      "size": 1,
      "price": "1011000000000000000000",
      "reserved": "",
      "salt": "0xbc2b91aebf406edd2824e9a8d75f8774fc9205812b9745d3fdb5d84107703c74",
      "assetIds": []
    },
    {
      "x": 177,
      "y": 322,
      "size": 1,
      "price": "1011000000000000000000",
      "reserved": "",
      "salt": "0x069fad4bb0d1e6b76da11e38bfccb7b1b8fb82ea5fa9f002e413716a73b8910c",
      "assetIds": []
    },
    {
      "x": 177,
      "y": 323,
      "size": 1,
      "price": "1011000000000000000000",
      "reserved": "",
      "salt": "0x53721a8ddfb5407763c1af4838beb88b55b770b8a2af357f7d7d2c62e95e35b1",
      "assetIds": []
    },
    {
      "x": 178,
      "y": 310,
      "size": 1,
      "price": "1011000000000000000000",
      "reserved": "",
      "salt": "0x61ea9d4acd22ecd3efcc2720de508f89a92c158681dd1001a20b4e97cf82a2e6",
      "assetIds": []
    },
    {
      "x": 178,
      "y": 311,
      "size": 1,
      "price": "1011000000000000000000",
      "reserved": "",
      "salt": "0xec09386c04ed0d21c88e5d80f1ac09224989a0398efc417d457689ecaa289abd",
      "assetIds": []
    },
    {
      "x": 178,
      "y": 312,
      "size": 1,
      "price": "4683000000000000000000",
      "reserved": "",
      "salt": "0x3878f6f916bbf300ece53d48327458b5b47aa8fc19ce090e9bbdc243d23d6e14",
      "assetIds": [
        "41506478881403507969696680653240014914910929820314476107906210059990541021186"
      ]
    },
    {
      "x": 178,
      "y": 313,
      "size": 1,
      "price": "1011000000000000000000",
      "reserved": "",
      "salt": "0xd8641bcfb3502d97952b330ea9f23f027098127ad37a6b8c39e7834010be3949",
      "assetIds": []
    },
    {
      "x": 178,
      "y": 314,
      "size": 1,
      "price": "1011000000000000000000",
      "reserved": "0x7a9fe22691c811ea339d9b73150e6911a5343dca",
      "salt": "0xaf2ded2d2adf9a473654966659dc52bda05c84f835530b9ec4a100f37bbdc8db",
      "assetIds": []
    },
    {
      "x": 178,
      "y": 315,
      "size": 1,
      "price": "1011000000000000000000",
      "reserved": "",
      "salt": "0x628e5b833c628261ae3a7325b265575a05a143554ac229be670499a90764e6d8",
      "assetIds": []
    },
    {
      "x": 178,
      "y": 316,
      "size": 1,
      "price": "1011000000000000000000",
      "reserved": "",
      "salt": "0x8c36b6485347aed617ba57d433939c253ddefe82e76a0d5ae31434716ad5341c",
      "assetIds": []
    },
    {
      "x": 178,
      "y": 317,
      "size": 1,
      "price": "1011000000000000000000",
      "reserved": "",
      "salt": "0xb3a8965225c40b1c27d185c3c5055e5223ee6895b30b3466c203cafd1da07567",
      "assetIds": []
    },
    {
      "x": 178,
      "y": 318,
      "size": 1,
      "price": "1011000000000000000000",
      "reserved": "",
      "salt": "0x0839a04047982ffc3c24d34fb4f6e6831741eb6f98752b892c650eb2fc2dd196",
      "assetIds": []
    },
    {
      "x": 178,
      "y": 319,
      "size": 1,
      "price": "1011000000000000000000",
      "reserved": "",
      "salt": "0xbd79e3c55892cbcc13db0098532f08888a4d988a7719bd67e5f79a701de3347f",
      "assetIds": []
    },
    {
      "x": 178,
      "y": 320,
      "size": 1,
      "price": "1011000000000000000000",
      "reserved": "0x7a9fe22691c811ea339d9b73150e6911a5343dca",
      "salt": "0x3321d50860e3a988c47cf3abd0038250422d4b0b3399fdd5da40a4a3f1c67314",
      "assetIds": []
    },
    {
      "x": 178,
      "y": 321,
      "size": 1,
      "price": "1011000000000000000000",
      "reserved": "",
      "salt": "0x0217570a87696b076741b4a0da2326c60d6219e90a79a8f90a45577461194219",
      "assetIds": []
    },
    {
      "x": 178,
      "y": 322,
      "size": 1,
      "price": "1011000000000000000000",
      "reserved": "0x7a9fe22691c811ea339d9b73150e6911a5343dca",
      "salt": "0x62508ae40c05dfe8ef35aa2962117c83f8b81118c5fb3e5a25cf0c90dc918cdd",
      "assetIds": []
    },
    {
      "x": 178,
      "y": 323,
      "size": 1,
      "price": "1011000000000000000000",
      "reserved": "",
      "salt": "0x72821baf008b1357d7249dc9895469a846857bf7e5fa8714cd6ff6ccae1d7290",
      "assetIds": []
    },
    {
      "x": 179,
      "y": 310,
      "size": 1,
      "price": "1011000000000000000000",
      "reserved": "",
      "salt": "0x81c4a1eee47b660fbd8653022a06d50e2552692b12f3678bd87a575ba06a121c",
      "assetIds": []
    },
    {
      "x": 179,
      "y": 311,
      "size": 1,
      "price": "4683000000000000000000",
      "reserved": "",
      "salt": "0xd6e7d412c15f0f7c41c72f00686985ab9eee7614bac43720b98f9224bac3ae14",
      "assetIds": [
        "41506478881403507969696680653240014914910929820314476107906210059990541021186"
      ]
    },
    {
      "x": 179,
      "y": 312,
      "size": 1,
      "price": "4683000000000000000000",
      "reserved": "",
      "salt": "0xd51262f7035acca688ee8c5d78057ffd836ffb616e0628ae5b044481bdeedf33",
      "assetIds": [
        "41506478881403507969696680653240014914910929820314476107906210059990541021186"
      ]
    },
    {
      "x": 179,
      "y": 313,
      "size": 1,
      "price": "4683000000000000000000",
      "reserved": "",
      "salt": "0x2efff490f043d732c29cec4ea15b4d729f426ac19d81bb28fa2c9dcdbc21a51b",
      "assetIds": [
        "41506478881403507969696680653240014914910929820314476107906210059990541021186"
      ]
    },
    {
      "x": 179,
      "y": 314,
      "size": 1,
      "price": "4683000000000000000000",
      "reserved": "",
      "salt": "0x85c681750eaeb4c8f353c85b0501acca5fbe3523adf4e3fce0846c7ca52ed2e7",
      "assetIds": [
        "41506478881403507969696680653240014914910929820314476107906210059990541021186"
      ]
    },
    {
      "x": 179,
      "y": 315,
      "size": 1,
      "price": "4683000000000000000000",
      "reserved": "",
      "salt": "0xdeab3d38025ce6b253a4677f27f86cb8939b7215f31a499248761c24d854fb51",
      "assetIds": [
        "41506478881403507969696680653240014914910929820314476107906210059990541021186"
      ]
    },
    {
      "x": 179,
      "y": 316,
      "size": 1,
      "price": "1011000000000000000000",
      "reserved": "0x7a9fe22691c811ea339d9b73150e6911a5343dca",
      "salt": "0x0268698cd6c062f4d7a9919749f8cdf6355c97f81d3d37d564cfe9538e7bbc00",
      "assetIds": []
    },
    {
      "x": 179,
      "y": 317,
      "size": 1,
      "price": "4683000000000000000000",
      "reserved": "",
      "salt": "0x7f855668c9e55541d0382cea3c3523537669d0f1cd1e53e78256ea1e1e032500",
      "assetIds": [
        "41506478881403507969696680653240014914910929820314476107906210059990541021186"
      ]
    },
    {
      "x": 179,
      "y": 318,
      "size": 1,
      "price": "4683000000000000000000",
      "reserved": "",
      "salt": "0xc91e2ef5faccd68662f579fff3b49c63ddd01d60894921c605a7235dd34d7d3a",
      "assetIds": [
        "41506478881403507969696680653240014914910929820314476107906210059990541021186"
      ]
    },
    {
      "x": 179,
      "y": 319,
      "size": 1,
      "price": "4683000000000000000000",
      "reserved": "",
      "salt": "0xfa2a41059ab13df5721c910d27fe2302a60a8c509320ef48211ba7698adfc8b6",
      "assetIds": [
        "41506478881403507969696680653240014914910929820314476107906210059990541021186"
      ]
    },
    {
      "x": 179,
      "y": 320,
      "size": 1,
      "price": "4683000000000000000000",
      "reserved": "",
      "salt": "0x73217ccd2d5cbcf8cc0ff1946a9bc6a3ce579467ee74e059af1bef4fca6ce88b",
      "assetIds": [
        "41506478881403507969696680653240014914910929820314476107906210059990541021186"
      ]
    },
    {
      "x": 179,
      "y": 321,
      "size": 1,
      "price": "1011000000000000000000",
      "reserved": "",
      "salt": "0xaca693a616394ad3ddf290d065a68a3641e78e2ce505327e2a9a3cd26b040155",
      "assetIds": []
    },
    {
      "x": 179,
      "y": 322,
      "size": 1,
      "price": "1011000000000000000000",
      "reserved": "",
      "salt": "0x4cee10c0c16699f799d1d545546ee926d1812ba8b4252970b23be2c3f57de247",
      "assetIds": []
    },
    {
      "x": 179,
      "y": 323,
      "size": 1,
      "price": "1011000000000000000000",
      "reserved": "",
      "salt": "0x2579959ec631752b278d7f5fdea4c24483e4e99685cded66e3881391dde86267",
      "assetIds": []
    },
    {
      "x": 179,
      "y": 324,
      "size": 1,
      "price": "1011000000000000000000",
      "reserved": "",
      "salt": "0x8398536028152c8e569a07e228ca5003260166e23bb51982554599d9a3700cef",
      "assetIds": []
    },
    {
      "x": 179,
      "y": 325,
      "size": 1,
      "price": "1011000000000000000000",
      "reserved": "0x7a9fe22691c811ea339d9b73150e6911a5343dca",
      "salt": "0x595461f05b53c0b817e90a1bf990f689eff928440b76ccfaab5c0d8463f2bc33",
      "assetIds": []
    },
    {
      "x": 180,
      "y": 310,
      "size": 1,
      "price": "1011000000000000000000",
      "reserved": "0x7a9fe22691c811ea339d9b73150e6911a5343dca",
      "salt": "0xbe1b1917f8198b9eb2d74ca95c4fef4e9589886167ebe26d601c2b7142e366d8",
      "assetIds": []
    },
    {
      "x": 180,
      "y": 311,
      "size": 1,
      "price": "1011000000000000000000",
      "reserved": "0x7a9fe22691c811ea339d9b73150e6911a5343dca",
      "salt": "0x09d9848d54e0cf9455d51b9e8a1d9345f1fd960ad79d4f927d6a76a03559f426",
      "assetIds": []
    },
    {
      "x": 180,
      "y": 321,
      "size": 1,
      "price": "4683000000000000000000",
      "reserved": "",
      "salt": "0x569af6406e68765bf4db014e884ac696710bf00b44319a94e9323497a19220eb",
      "assetIds": [
        "41506478881403507969696680653240014914910929820314476107906210059990541021186"
      ]
    },
    {
      "x": 180,
      "y": 322,
      "size": 1,
      "price": "1011000000000000000000",
      "reserved": "",
      "salt": "0x1dc2f56089b59989ae26041d5de8a0884081f4d1ed8bd4c2824bc1aac2910b1c",
      "assetIds": []
    },
    {
      "x": 180,
      "y": 323,
      "size": 1,
      "price": "1011000000000000000000",
      "reserved": "",
      "salt": "0x88a8ecd1bb93ead3d18712142c32e485bbbcde1c99e598b760a4818e4a448849",
      "assetIds": []
    },
    {
      "x": 180,
      "y": 324,
      "size": 1,
      "price": "1011000000000000000000",
      "reserved": "",
      "salt": "0x1d11fbb5a51bdb56d8c1e8a0d11680d9fb40d3e550caee045c691e37c44c3c45",
      "assetIds": []
    },
    {
      "x": 180,
      "y": 325,
      "size": 1,
      "price": "1011000000000000000000",
      "reserved": "0x7a9fe22691c811ea339d9b73150e6911a5343dca",
      "salt": "0xca053133591f66381e576f6ac685b7751365188f3aae72af09334685aac917e1",
      "assetIds": []
    },
    {
      "x": 181,
      "y": 310,
      "size": 1,
      "price": "1011000000000000000000",
      "reserved": "0x7a9fe22691c811ea339d9b73150e6911a5343dca",
      "salt": "0xaa0ddca7faaf6787e2f988d4fef39ca7eb9a769cc9b6dcf8aa91b494f812205f",
      "assetIds": []
    },
    {
      "x": 181,
      "y": 311,
      "size": 1,
      "price": "4683000000000000000000",
      "reserved": "",
      "salt": "0x3b4bd524bcf45e8551cd81c3174ec6ef41307b3414af93c34af89d29817f9727",
      "assetIds": [
        "41506478881403507969696680653240014914910929820314476107906210059990541021186"
      ]
    },
    {
      "x": 181,
      "y": 321,
      "size": 1,
      "price": "4683000000000000000000",
      "reserved": "",
      "salt": "0xe05810ecb06d8c2fd05ea82a5bac0147a1a1dd10235e2c4423a29444c3fa3937",
      "assetIds": [
        "41506478881403507969696680653240014914910929820314476107906210059990541021186"
      ]
    },
    {
      "x": 181,
      "y": 322,
      "size": 1,
      "price": "1011000000000000000000",
      "reserved": "",
      "salt": "0xcc74c2ff58f88e7621e826dee6691706b3ec74d0fa34da935328b98b58788922",
      "assetIds": []
    },
    {
      "x": 181,
      "y": 323,
      "size": 1,
      "price": "1011000000000000000000",
      "reserved": "0x7a9fe22691c811ea339d9b73150e6911a5343dca",
      "salt": "0xe9c5281f1710b8ec5c2f3cb179eddf7e82d6b7964e3ed4bee93bd7c6a57f5ec2",
      "assetIds": []
    },
    {
      "x": 181,
      "y": 324,
      "size": 1,
      "price": "1011000000000000000000",
      "reserved": "",
      "salt": "0xb987e434d8954c115bcef36ca42e4a341a383d8f0f65e452be74d757665af3cf",
      "assetIds": []
    },
    {
      "x": 181,
      "y": 325,
      "size": 1,
      "price": "1011000000000000000000",
      "reserved": "",
      "salt": "0x92ca3da2a64c072a3b67f757aa38928b437cfc93660a018a53e0e341f72d7a33",
      "assetIds": []
    },
    {
      "x": 181,
      "y": 326,
      "size": 1,
      "price": "1011000000000000000000",
      "reserved": "",
      "salt": "0x0e5e852d440b4ec2d6852449dda501d44a6d4ba03f6e53d91fb1fea037cb083a",
      "assetIds": []
    },
    {
      "x": 182,
      "y": 310,
      "size": 1,
      "price": "1011000000000000000000",
      "reserved": "",
      "salt": "0x0a8db8a9285c7f9be82025a70c8edc4cf9a21a22c469cee088a8def9189d0484",
      "assetIds": []
    },
    {
      "x": 182,
      "y": 311,
      "size": 1,
      "price": "4683000000000000000000",
      "reserved": "",
      "salt": "0xd511ffea712e46993170fd24aa49e65c113045acc0b90b93059895b94d0e40be",
      "assetIds": [
        "41506478881403507969696680653240014914910929820314476107906210059990541021186"
      ]
    },
    {
      "x": 182,
      "y": 321,
      "size": 1,
      "price": "4683000000000000000000",
      "reserved": "",
      "salt": "0x5e7f6dc4f5e8b74a24517d30192a7d3a9e019d24b33ff8cd675d679c48a3bff0",
      "assetIds": [
        "41506478881403507969696680653240014914910929820314476107906210059990541021186"
      ]
    },
    {
      "x": 182,
      "y": 322,
      "size": 1,
      "price": "1011000000000000000000",
      "reserved": "",
      "salt": "0x31a92e593ce1e39ee2cc9cb7943253a846642732b53dfc40f3f6bfead41de6b5",
      "assetIds": []
    },
    {
      "x": 182,
      "y": 323,
      "size": 1,
      "price": "1011000000000000000000",
      "reserved": "",
      "salt": "0xcd8ff0e7f307b929f5793f1cd5ac7169ded9b16bfd295d56e85089ff6e546445",
      "assetIds": []
    },
    {
      "x": 182,
      "y": 324,
      "size": 1,
      "price": "1011000000000000000000",
      "reserved": "",
      "salt": "0x40e1f0786db3a00d45d6d8fced41944666602f10d3631d1ba402e93120ab5206",
      "assetIds": []
    },
    {
      "x": 182,
      "y": 325,
      "size": 1,
      "price": "1011000000000000000000",
      "reserved": "",
      "salt": "0xfa154308773ca0aed61935f51816a93e61c5dc3e7a1c0f9d66de2f1d24d107ef",
      "assetIds": []
    },
    {
      "x": 182,
      "y": 326,
      "size": 1,
      "price": "1011000000000000000000",
      "reserved": "0x7a9fe22691c811ea339d9b73150e6911a5343dca",
      "salt": "0x36edd8d3d6f8d48896331d2f927cb72cc00ad59fcb5d246f58ff896be457a6eb",
      "assetIds": []
    },
    {
      "x": 183,
      "y": 310,
      "size": 1,
      "price": "1011000000000000000000",
      "reserved": "",
      "salt": "0xc47aedee33517ffc83daf7e1eee14f1b548972c1a5437309d5c4d5f5e9bda829",
      "assetIds": []
    },
    {
      "x": 183,
      "y": 311,
      "size": 1,
      "price": "4683000000000000000000",
      "reserved": "",
      "salt": "0xf90cbf5c354df5d98def687e3511c2f40f73654aff31ad6ff8856df6ea9a62a5",
      "assetIds": [
        "41506478881403507969696680653240014914910929820314476107906210059990541021186"
      ]
    },
    {
      "x": 183,
      "y": 318,
      "size": 1,
      "price": "4683000000000000000000",
      "reserved": "",
      "salt": "0x4aba9ce2573ed23d5db48f860e24cd367f4e1bb33f624377ff8468a43ff6f2a4",
      "assetIds": [
        "41506478881403507969696680653240014914910929820314476107906210059990541021186"
      ]
    },
    {
      "x": 183,
      "y": 319,
      "size": 1,
      "price": "4683000000000000000000",
      "reserved": "",
      "salt": "0x7332484f8e4090b5e3e7d800c0d67c21443eb08a700e3ef52583050508cae449",
      "assetIds": [
        "41506478881403507969696680653240014914910929820314476107906210059990541021186"
      ]
    },
    {
      "x": 183,
      "y": 320,
      "size": 1,
      "price": "4683000000000000000000",
      "reserved": "",
      "salt": "0x80e02048320fb9b3b9f9764b6b1a8e8c6a837c547a77d6ca4d9d72cf1b60c196",
      "assetIds": [
        "41506478881403507969696680653240014914910929820314476107906210059990541021186"
      ]
    },
    {
      "x": 183,
      "y": 321,
      "size": 1,
      "price": "4683000000000000000000",
      "reserved": "",
      "salt": "0x47024770995736498d4103299ca572e24be410aa7d04d6725e0b238aa6f18279",
      "assetIds": [
        "41506478881403507969696680653240014914910929820314476107906210059990541021186"
      ]
    },
    {
      "x": 183,
      "y": 322,
      "size": 1,
      "price": "1011000000000000000000",
      "reserved": "",
      "salt": "0xf5a82388c3b3ccee934bf1b2ca0775f3744fb24a3c51add6fc4f9e31ac94db37",
      "assetIds": []
    },
    {
      "x": 183,
      "y": 323,
      "size": 1,
      "price": "1011000000000000000000",
      "reserved": "",
      "salt": "0x5aa2253579479d93c13c403abd7370759213df02207bf63a8a60604a9f83a94e",
      "assetIds": []
    },
    {
      "x": 183,
      "y": 324,
      "size": 1,
      "price": "1011000000000000000000",
      "reserved": "",
      "salt": "0x95e2f8cbc2b815742e0f451ec5b89900d092740d3181d9c3c353a960e7ddaad6",
      "assetIds": []
    },
    {
      "x": 183,
      "y": 325,
      "size": 1,
      "price": "1011000000000000000000",
      "reserved": "",
      "salt": "0xf616b0fd5010a84df5c712804d0576618660ed92964f35d9c63de6b716e985d5",
      "assetIds": []
    },
    {
      "x": 183,
      "y": 326,
      "size": 1,
      "price": "1011000000000000000000",
      "reserved": "0x7a9fe22691c811ea339d9b73150e6911a5343dca",
      "salt": "0xae0aa6c4978dacfa79312bfe65d3eaed0fd0780baf1ab5b29b618d4b0320ed9e",
      "assetIds": []
    },
    {
      "x": 183,
      "y": 327,
      "size": 1,
      "price": "1011000000000000000000",
      "reserved": "",
      "salt": "0xf59973145f6ee41a2110aa927fb3afcbf91fca9ee8ecb9edf84ef7e7271a1141",
      "assetIds": []
    },
    {
      "x": 183,
      "y": 328,
      "size": 1,
      "price": "1011000000000000000000",
      "reserved": "",
      "salt": "0x1822b85e9701ceebea9c376375c57fcf7760ff001a7178b703c6cce2956b0445",
      "assetIds": []
    },
    {
      "x": 184,
      "y": 310,
      "size": 1,
      "price": "1011000000000000000000",
      "reserved": "",
      "salt": "0x2884659d31759bcb3462f6b1ce4209f348e0a5c2786adf4038d2226e43cbcc54",
      "assetIds": []
    },
    {
      "x": 184,
      "y": 311,
      "size": 1,
      "price": "4683000000000000000000",
      "reserved": "",
      "salt": "0xc20a371e99426de4f1ce14203be213ca71a90890bbb7bd1916dba06dea14d110",
      "assetIds": [
        "41506478881403507969696680653240014914910929820314476107906210059990541021186"
      ]
    },
    {
      "x": 184,
      "y": 318,
      "size": 1,
      "price": "4683000000000000000000",
      "reserved": "",
      "salt": "0x5c08f1c02ca11f03310253d917bbcee42cf69358f68db44ea97bc47d89f82b45",
      "assetIds": [
        "41506478881403507969696680653240014914910929820314476107906210059990541021186"
      ]
    },
    {
      "x": 184,
      "y": 319,
      "size": 1,
      "price": "4683000000000000000000",
      "reserved": "",
      "salt": "0xa031c8cda76fe1bb81cd59916f92ebdbac04ebf104b9039d84d35fa4254ecb03",
      "assetIds": [
        "41506478881403507969696680653240014914910929820314476107906210059990541021186"
      ]
    },
    {
      "x": 184,
      "y": 320,
      "size": 1,
      "price": "4683000000000000000000",
      "reserved": "",
      "salt": "0x2a5a7f4fdae05f4e991714a4c651eadbb6db32dca89e1c0d4d95544239654427",
      "assetIds": [
        "41506478881403507969696680653240014914910929820314476107906210059990541021186"
      ]
    },
    {
      "x": 184,
      "y": 321,
      "size": 1,
      "price": "1011000000000000000000",
      "reserved": "0x7a9fe22691c811ea339d9b73150e6911a5343dca",
      "salt": "0xccb2e0c3fb3f639dca90e16e1d649a5ac4398dac7087558594e256abc3cf43d1",
      "assetIds": []
    },
    {
      "x": 184,
      "y": 322,
      "size": 1,
      "price": "1011000000000000000000",
      "reserved": "",
      "salt": "0x7293b43315178e17d207ba07152a3a5254f515e657ffd5da105cc568b653e687",
      "assetIds": []
    },
    {
      "x": 184,
      "y": 323,
      "size": 1,
      "price": "1011000000000000000000",
      "reserved": "",
      "salt": "0x10c162313d0d5c1713f22d9d37e86cb595ee2c12cfbe913475d3f57733c02721",
      "assetIds": []
    },
    {
      "x": 184,
      "y": 324,
      "size": 1,
      "price": "1011000000000000000000",
      "reserved": "0x7a9fe22691c811ea339d9b73150e6911a5343dca",
      "salt": "0x24bd927ea006096a7cd5f2dddb7dfe200603b9fd42269288cf9b0c4fec906a23",
      "assetIds": []
    },
    {
      "x": 184,
      "y": 325,
      "size": 1,
      "price": "1011000000000000000000",
      "reserved": "",
      "salt": "0x7a5318f3837bc475df12b7d81301c3c8d086688cb9636a5a28be8aeeb1db307a",
      "assetIds": []
    },
    {
      "x": 184,
      "y": 326,
      "size": 1,
      "price": "1011000000000000000000",
      "reserved": "",
      "salt": "0x1eae1c48c28ac973f4ca9242fa954234d321d0cba267c290ef4e2c4739b6257b",
      "assetIds": []
    },
    {
      "x": 184,
      "y": 327,
      "size": 1,
      "price": "1011000000000000000000",
      "reserved": "",
      "salt": "0xa4644d84641c10b3780db3170b82718d1173716f24aa75b5d269e38799ced283",
      "assetIds": []
    },
    {
      "x": 184,
      "y": 328,
      "size": 1,
      "price": "1011000000000000000000",
      "reserved": "",
      "salt": "0x163dd08b14effe1a206c2ee1507b5ceb3b928e5171c9b19dd613e2734f41d1b0",
      "assetIds": []
    },
    {
      "x": 185,
      "y": 311,
      "size": 1,
      "price": "4683000000000000000000",
      "reserved": "",
      "salt": "0x22421fdd089af0fdbd535f31d9b01f2ab5fa929c0382d3a17d1c051b7a4103a0",
      "assetIds": [
        "41506478881403507969696680653240014914910929820314476107906210059990541021186"
      ]
    },
    {
      "x": 185,
      "y": 318,
      "size": 1,
      "price": "4683000000000000000000",
      "reserved": "",
      "salt": "0xc7b77790409073686d274bbaa1b86a3e1babf68f00970090938e565bea9baeed",
      "assetIds": [
        "41506478881403507969696680653240014914910929820314476107906210059990541021186"
      ]
    },
    {
      "x": 185,
      "y": 319,
      "size": 1,
      "price": "4683000000000000000000",
      "reserved": "",
      "salt": "0xf634a2adc8d51cc545195455069806d50609b8978787b1c2f1ca3ec60d19fcad",
      "assetIds": [
        "41506478881403507969696680653240014914910929820314476107906210059990541021186"
      ]
    },
    {
      "x": 185,
      "y": 320,
      "size": 1,
      "price": "1011000000000000000000",
      "reserved": "",
      "salt": "0xc735dfbaf40b20bac7c060f3d3cdd18937526ff67baca6d58c4efbc1da3c1b81",
      "assetIds": []
    },
    {
      "x": 185,
      "y": 321,
      "size": 1,
      "price": "1011000000000000000000",
      "reserved": "",
      "salt": "0x6780c17bb6513279322a80fd896253d9e3b5ddcf9fe41dd3d3646230fc666203",
      "assetIds": []
    },
    {
      "x": 185,
      "y": 322,
      "size": 1,
      "price": "1011000000000000000000",
      "reserved": "",
      "salt": "0x8477f21ef708201c259c10363a5ac10cef22fe4af3043d32dfc252564e3e0a6b",
      "assetIds": []
    },
    {
      "x": 185,
      "y": 323,
      "size": 1,
      "price": "1011000000000000000000",
      "reserved": "",
      "salt": "0xa10d80bb16b4eab77b6c0cf608a562c6ac8cf1bc0fda71c299e9d5d7f134e9dd",
      "assetIds": []
    },
    {
      "x": 185,
      "y": 324,
      "size": 1,
      "price": "1011000000000000000000",
      "reserved": "",
      "salt": "0x50d7c4428ae0d97bacf9d739838afa9296961ba6b7405f949e419e1ab5586f9d",
      "assetIds": []
    },
    {
      "x": 185,
      "y": 325,
      "size": 1,
      "price": "1011000000000000000000",
      "reserved": "",
      "salt": "0x8e7dc7e7f578f1f7b775e6a8f7730846826b7e3fba0720b29f5358f23515a48d",
      "assetIds": []
    },
    {
      "x": 185,
      "y": 326,
      "size": 1,
      "price": "1011000000000000000000",
      "reserved": "0x7a9fe22691c811ea339d9b73150e6911a5343dca",
      "salt": "0x4718e96552df997c5ed772402e3e604475e7ef0806f0a189b3b4824896100b87",
      "assetIds": []
    },
    {
      "x": 185,
      "y": 327,
      "size": 1,
      "price": "1011000000000000000000",
      "reserved": "0x7a9fe22691c811ea339d9b73150e6911a5343dca",
      "salt": "0xb36d5013e9f71386e8de074ab10d80d5825c78cc2629aad63dcde10869495eb7",
      "assetIds": []
    },
    {
      "x": 185,
      "y": 328,
      "size": 1,
      "price": "1011000000000000000000",
      "reserved": "",
      "salt": "0xec07dc861d820433fbbceff9bc2b455e347b2490c0afbb52f04d7adac3824d53",
      "assetIds": []
    },
    {
      "x": 186,
      "y": 311,
      "size": 1,
      "price": "1011000000000000000000",
      "reserved": "",
      "salt": "0x1a5cd3654a5d77f1b3a3fb7e7817d6d30f2b2594c0ee1404eeb5b1da2b8369e4",
      "assetIds": []
    },
    {
      "x": 186,
      "y": 318,
      "size": 1,
      "price": "1011000000000000000000",
      "reserved": "0x7a9fe22691c811ea339d9b73150e6911a5343dca",
      "salt": "0x7187958c8afd4bfec187bfe9db5454900516d88fc487d065ee355dc621ab1fc4",
      "assetIds": []
    },
    {
      "x": 186,
      "y": 319,
      "size": 1,
      "price": "1011000000000000000000",
      "reserved": "0x7a9fe22691c811ea339d9b73150e6911a5343dca",
      "salt": "0xf6398caa55d8cb51ee6c9f56af915677e8639f1c8ad169fd64a70cf02328d4eb",
      "assetIds": []
    },
    {
      "x": 186,
      "y": 320,
      "size": 1,
      "price": "1011000000000000000000",
      "reserved": "",
      "salt": "0x7e38fbe18985a34f2b095f6a7bd9d51b94c8b591ddb7f446ffc1e908ba74c366",
      "assetIds": []
    },
    {
      "x": 186,
      "y": 321,
      "size": 1,
      "price": "1011000000000000000000",
      "reserved": "0x7a9fe22691c811ea339d9b73150e6911a5343dca",
      "salt": "0xa838c749955e21d1ed90adc7f57e8f77cbb894bb83b7702df629fb764ba9cc28",
      "assetIds": []
    },
    {
      "x": 186,
      "y": 322,
      "size": 1,
      "price": "1011000000000000000000",
      "reserved": "",
      "salt": "0x8f136b2d6eb4f2de098baf1ee723b7ea71b29eab6b073d92cb15cfa277ba3b49",
      "assetIds": []
    },
    {
      "x": 186,
      "y": 323,
      "size": 1,
      "price": "1011000000000000000000",
      "reserved": "",
      "salt": "0x12a2c2a7bf7aea9eb77adb6541d8b3fcb59df7fb7ba2e62a5c73ae9e19fd41a0",
      "assetIds": []
    },
    {
      "x": 186,
      "y": 324,
      "size": 1,
      "price": "1011000000000000000000",
      "reserved": "",
      "salt": "0x7ee14060f3e4ea1b8c5968fac509a614a9c9fecadfe2d76b1d09f729f8cda418",
      "assetIds": []
    },
    {
      "x": 186,
      "y": 325,
      "size": 1,
      "price": "1011000000000000000000",
      "reserved": "",
      "salt": "0xf618d456c0f434cf6873f54c4aae9656448aa80007ff8659728ed79008dba797",
      "assetIds": []
    },
    {
      "x": 186,
      "y": 326,
      "size": 1,
      "price": "1011000000000000000000",
      "reserved": "",
      "salt": "0x39eaabe656d4ddf25ead768bbf07107e568a2a482b372655fe29d9aa860643fc",
      "assetIds": []
    },
    {
      "x": 186,
      "y": 327,
      "size": 1,
      "price": "1011000000000000000000",
      "reserved": "",
      "salt": "0x7eb6857a9a3e9e4c271de3239601f5bbdc20b53b651f46c4b7315deede3377ec",
      "assetIds": []
    },
    {
      "x": 186,
      "y": 328,
      "size": 1,
      "price": "1011000000000000000000",
      "reserved": "",
      "salt": "0x8892f5b10e8d156c780158fc25d325a17df5753b5107aebd7d2f950925a7c623",
      "assetIds": []
    },
    {
      "x": 187,
      "y": 311,
      "size": 1,
      "price": "1011000000000000000000",
      "reserved": "0x7a9fe22691c811ea339d9b73150e6911a5343dca",
      "salt": "0x8239ce9e50aa6a3fabf3a331e8236bc94e969ab6b48b645c429779bf378918de",
      "assetIds": []
    },
    {
      "x": 187,
      "y": 318,
      "size": 1,
      "price": "1011000000000000000000",
      "reserved": "",
      "salt": "0xb7216db9057b4b1d5abae92ffba4bbc0e0e7a92600363fa9d973e657a8f7b2d3",
      "assetIds": []
    },
    {
      "x": 187,
      "y": 319,
      "size": 1,
      "price": "1011000000000000000000",
      "reserved": "",
      "salt": "0x05e810055a76ea1af72b1aafc82e4439f47c5663a33a53867d6c56474a44542a",
      "assetIds": []
    },
    {
      "x": 187,
      "y": 320,
      "size": 1,
      "price": "1011000000000000000000",
      "reserved": "",
      "salt": "0xa6d2a0e8dd70d4c97649802592f4d6e9bea43b594cece93ce9bb785e4255db68",
      "assetIds": []
    },
    {
      "x": 187,
      "y": 321,
      "size": 1,
      "price": "4683000000000000000000",
      "reserved": "",
      "salt": "0x780e570a05df14719d2c403c593ce1b172efe6c85a9e606f799cc894f120707f",
      "assetIds": [
        "41506478881403507969696680653240014914910929820314476107906210059990541021186"
      ]
    },
    {
      "x": 187,
      "y": 322,
      "size": 1,
      "price": "1011000000000000000000",
      "reserved": "",
      "salt": "0xbe9e1662755f8a207a931bf7e5fecf3b1b2b3e536d8e06e09c30d9ac98d41c1b",
      "assetIds": []
    },
    {
      "x": 187,
      "y": 323,
      "size": 1,
      "price": "1011000000000000000000",
      "reserved": "",
      "salt": "0x52884c16ce990629ee48b4f8e98cf8122cf2e9b87decb22c4a5c25ab3a42a908",
      "assetIds": []
    },
    {
      "x": 187,
      "y": 324,
      "size": 1,
      "price": "4683000000000000000000",
      "reserved": "",
      "salt": "0x45303474ca55a90fe6e2343041f2132cf14e814b459b8aab376094e04b763cd4",
      "assetIds": [
        "41506478881403507969696680653240014914910929820314476107906210059990541021186"
      ]
    },
    {
      "x": 187,
      "y": 325,
      "size": 1,
      "price": "1011000000000000000000",
      "reserved": "",
      "salt": "0xc1bd875a3566965da2c1857f0adaa2b464969c6cb98ff60fc935b4bda2223224",
      "assetIds": []
    },
    {
      "x": 187,
      "y": 326,
      "size": 1,
      "price": "1011000000000000000000",
      "reserved": "",
      "salt": "0x6ae78ef33afde7029a4f9810575531b70530cea2897999948272564f78d0240c",
      "assetIds": []
    },
    {
      "x": 187,
      "y": 327,
      "size": 1,
      "price": "1011000000000000000000",
      "reserved": "0x7a9fe22691c811ea339d9b73150e6911a5343dca",
      "salt": "0xfc7e1e1671fd2000563ca8830e6f1454d7c2e00a204f110118298cd9599e6c1d",
      "assetIds": []
    },
    {
      "x": 187,
      "y": 328,
      "size": 1,
      "price": "1011000000000000000000",
      "reserved": "",
      "salt": "0xfaddc384584c18154b15ea5105ab388ccee57799079f279b946f44459dbb94fc",
      "assetIds": []
    },
    {
      "x": 187,
      "y": 329,
      "size": 1,
      "price": "1011000000000000000000",
      "reserved": "",
      "salt": "0xcfb193dd0157073ea2604009b701c9538982031acae69df6188c14c3a99f402f",
      "assetIds": []
    },
    {
      "x": 187,
      "y": 330,
      "size": 1,
      "price": "1011000000000000000000",
      "reserved": "",
      "salt": "0xe78cba241d6094d96207d6ef36401bfcfc20672bb4d9a207679528f356a24fe4",
      "assetIds": []
    },
    {
      "x": 188,
      "y": 311,
      "size": 1,
      "price": "1011000000000000000000",
      "reserved": "",
      "salt": "0x7e4f83346588cd062a5f704fb9c4099186af928e426b797daecec6d7f11aef29",
      "assetIds": []
    },
    {
      "x": 188,
      "y": 318,
      "size": 1,
      "price": "1011000000000000000000",
      "reserved": "",
      "salt": "0xd198e1d0d48f90419b1157fded6c81c65377a94072ecade5ff76e27dcfb065ab",
      "assetIds": []
    },
    {
      "x": 188,
      "y": 319,
      "size": 1,
      "price": "1011000000000000000000",
      "reserved": "0x7a9fe22691c811ea339d9b73150e6911a5343dca",
      "salt": "0x68a57635ce72e8f07d9568d71c924de622e65fd067d1b4e15e3251fa9602c173",
      "assetIds": []
    },
    {
      "x": 188,
      "y": 320,
      "size": 1,
      "price": "1011000000000000000000",
      "reserved": "",
      "salt": "0x2fd1371cb8ba5d75026a43b237daf2a5616537c7722d6943290feea5d143b8fe",
      "assetIds": []
    },
    {
      "x": 188,
      "y": 321,
      "size": 1,
      "price": "4683000000000000000000",
      "reserved": "",
      "salt": "0x1474db125a779e714764951b9870cced244aacb12d6ae9cd76d6d4a4fa20f3f6",
      "assetIds": [
        "41506478881403507969696680653240014914910929820314476107906210059990541021186"
      ]
    },
    {
      "x": 188,
      "y": 322,
      "size": 1,
      "price": "4683000000000000000000",
      "reserved": "",
      "salt": "0x5742b030c95913a3674f107f1cd9ce84386ccf28ef8bd7b3daf27f2c7607348f",
      "assetIds": [
        "41506478881403507969696680653240014914910929820314476107906210059990541021186"
      ]
    },
    {
      "x": 188,
      "y": 323,
      "size": 1,
      "price": "4683000000000000000000",
      "reserved": "",
      "salt": "0x3d3e2ddba324e7dbf0037efa94a5c00199f4915e1cef2719c1b15ed448309c46",
      "assetIds": [
        "41506478881403507969696680653240014914910929820314476107906210059990541021186"
      ]
    },
    {
      "x": 188,
      "y": 324,
      "size": 1,
      "price": "4683000000000000000000",
      "reserved": "",
      "salt": "0x9096350f9a38df9e3c4ff6a0c5d17ea8808adb6853de311f44a1be705840050b",
      "assetIds": [
        "41506478881403507969696680653240014914910929820314476107906210059990541021186"
      ]
    },
    {
      "x": 188,
      "y": 325,
      "size": 1,
      "price": "1011000000000000000000",
      "reserved": "",
      "salt": "0xa2f4d3c95aa784bb88771c2e00c4c6b685b3b27f45ab35624d9c02e81d662503",
      "assetIds": []
    },
    {
      "x": 188,
      "y": 326,
      "size": 1,
      "price": "1011000000000000000000",
      "reserved": "",
      "salt": "0x760e64b3d2a8be7b81a14155a6193668ded57ca2f94503c0776e2e09963138a3",
      "assetIds": []
    },
    {
      "x": 188,
      "y": 327,
      "size": 1,
      "price": "1011000000000000000000",
      "reserved": "",
      "salt": "0x8c9ca37844ce5d71ad6cc1f8ce14e505ea1b3b8bb0d06bf05c1e3a778a97c0e4",
      "assetIds": []
    },
    {
      "x": 188,
      "y": 328,
      "size": 1,
      "price": "1011000000000000000000",
      "reserved": "",
      "salt": "0x4f66ea57553067ab5ad40c4a583410e3240c6cfbe21d61e26d343474200d7037",
      "assetIds": []
    },
    {
      "x": 188,
      "y": 329,
      "size": 1,
      "price": "1011000000000000000000",
      "reserved": "",
      "salt": "0x530db8ceeb882de6700c878ee0ec1eb3688b67bf86d9592ac14ac2a75c2fe4eb",
      "assetIds": []
    },
    {
      "x": 188,
      "y": 330,
      "size": 1,
      "price": "1011000000000000000000",
      "reserved": "0x7a9fe22691c811ea339d9b73150e6911a5343dca",
      "salt": "0xba667b8e81512c4d2a3428dc4c96bd3c4b21033921df28b45f8319dbceb96af6",
      "assetIds": []
    },
    {
      "x": 189,
      "y": 311,
      "size": 1,
      "price": "1011000000000000000000",
      "reserved": "",
      "salt": "0x71b6cdece1684d360f93073f2fb2cd10ea35551bb89402db6ec55650a4cadaf1",
      "assetIds": []
    },
    {
      "x": 189,
      "y": 324,
      "size": 1,
      "price": "4683000000000000000000",
      "reserved": "",
      "salt": "0x32ca5bf9e9dc1582fee65684417f4592a9c78be919725bfd231551e89cbea066",
      "assetIds": [
        "41506478881403507969696680653240014914910929820314476107906210059990541021186"
      ]
    },
    {
      "x": 189,
      "y": 325,
      "size": 1,
      "price": "1011000000000000000000",
      "reserved": "",
      "salt": "0x1e66b782fe84ce7e9c13249a1abc99a5290d5c9406a39ea4b8577960e94bf1b9",
      "assetIds": []
    },
    {
      "x": 189,
      "y": 326,
      "size": 1,
      "price": "1011000000000000000000",
      "reserved": "0x7a9fe22691c811ea339d9b73150e6911a5343dca",
      "salt": "0x17de0a7cef36a02489c72de03c1b1e253e99a8bb4e83d95a2c44dbdee8a6467a",
      "assetIds": []
    },
    {
      "x": 189,
      "y": 327,
      "size": 1,
      "price": "1011000000000000000000",
      "reserved": "",
      "salt": "0x7af3f82f2d6f52b64911fc59644a51bcbce5c51c9f07f89888fed26c63f10657",
      "assetIds": []
    },
    {
      "x": 189,
      "y": 328,
      "size": 1,
      "price": "1011000000000000000000",
      "reserved": "0x7a9fe22691c811ea339d9b73150e6911a5343dca",
      "salt": "0xd06aac1b5882bbb9a6ab664b5358958350207777bedc9118922872b5fceb2793",
      "assetIds": []
    },
    {
      "x": 189,
      "y": 329,
      "size": 1,
      "price": "1011000000000000000000",
      "reserved": "",
      "salt": "0xce855ef6c36a030d2cd84c89eaefafffdfe9c96c23d96c2f5c67f955b98bc3d9",
      "assetIds": []
    },
    {
      "x": 189,
      "y": 330,
      "size": 1,
      "price": "1011000000000000000000",
      "reserved": "",
      "salt": "0x6aa307b57c1cfeb995ad090a7265917dffb48d8102619259eac8af2386ca6a79",
      "assetIds": []
    },
    {
      "x": 190,
      "y": 311,
      "size": 1,
      "price": "1011000000000000000000",
      "reserved": "",
      "salt": "0xdfffd295bffa4d553ea5c4124a40ad5796880f95721bf51d4e3c995375282510",
      "assetIds": []
    },
    {
      "x": 190,
      "y": 324,
      "size": 1,
      "price": "4683000000000000000000",
      "reserved": "",
      "salt": "0x6096887e9f09364d167b5d40f1926df37cbc11add488457626f209bad30fe3e3",
      "assetIds": [
        "41506478881403507969696680653240014914910929820314476107906210059990541021186"
      ]
    },
    {
      "x": 190,
      "y": 325,
      "size": 1,
      "price": "1011000000000000000000",
      "reserved": "",
      "salt": "0xfe2ea6ef1f468cb543aafd914106fd593871be6165f7668ba0e5e146ba3661de",
      "assetIds": []
    },
    {
      "x": 190,
      "y": 326,
      "size": 1,
      "price": "1011000000000000000000",
      "reserved": "",
      "salt": "0xdc5f68b6b7cd1b865e0e6ffb92ef207926c56d37fd26993b7d90cd6b41d70638",
      "assetIds": []
    },
    {
      "x": 190,
      "y": 327,
      "size": 1,
      "price": "1011000000000000000000",
      "reserved": "",
      "salt": "0x80dc287ffe02c7b3da61a205fcbc6d60ff9df32274ed7821eef95b41bf6e8392",
      "assetIds": []
    },
    {
      "x": 190,
      "y": 328,
      "size": 1,
      "price": "1011000000000000000000",
      "reserved": "",
      "salt": "0x7ac2a3b3048c5b62959a6352e44d7be0f880d1422485db43f177766d93268784",
      "assetIds": []
    },
    {
      "x": 190,
      "y": 329,
      "size": 1,
      "price": "4683000000000000000000",
      "reserved": "",
      "salt": "0xecf47af51d1aba6f135e7cb34bbaeeaf290168705fddd9ca65b82ae1af3b6d66",
      "assetIds": [
        "41506478881403507969696680653240014914910929820314476107906210059990541021186"
      ]
    },
    {
      "x": 190,
      "y": 330,
      "size": 1,
      "price": "4683000000000000000000",
      "reserved": "",
      "salt": "0xeaf7bb069b6e96dfe46968c75042e384152f9dca240c44bf297af8a53dcc636f",
      "assetIds": [
        "41506478881403507969696680653240014914910929820314476107906210059990541021186"
      ]
    },
    {
      "x": 191,
      "y": 311,
      "size": 1,
      "price": "1011000000000000000000",
      "reserved": "",
      "salt": "0x7fb3c866399c01accab9f7a10f1de9f0487690162f4004885b9aee6656c034c4",
      "assetIds": []
    },
    {
      "x": 191,
      "y": 324,
      "size": 1,
      "price": "4683000000000000000000",
      "reserved": "",
      "salt": "0x26247cc7fbfe999349ae21a7fe1aa4a3e19528290ce5c1de62739e9e587b2a34",
      "assetIds": [
        "41506478881403507969696680653240014914910929820314476107906210059990541021186"
      ]
    },
    {
      "x": 191,
      "y": 325,
      "size": 1,
      "price": "4683000000000000000000",
      "reserved": "",
      "salt": "0x6b45377d9ac4428c2ee75366a994746a6e0582aa1e4fddcdc41b4ff1054f03be",
      "assetIds": [
        "41506478881403507969696680653240014914910929820314476107906210059990541021186"
      ]
    },
    {
      "x": 191,
      "y": 326,
      "size": 1,
      "price": "4683000000000000000000",
      "reserved": "",
      "salt": "0x0e40f49fb2ec0078eee911c0b547bf028d61c40442e4cdab85ed817dbd0e51b2",
      "assetIds": [
        "41506478881403507969696680653240014914910929820314476107906210059990541021186"
      ]
    },
    {
      "x": 191,
      "y": 327,
      "size": 1,
      "price": "4683000000000000000000",
      "reserved": "",
      "salt": "0x3efc420406892cac0ccce5489537c0e7cdfbeb6dcca26b4099711c28a66713a0",
      "assetIds": [
        "41506478881403507969696680653240014914910929820314476107906210059990541021186"
      ]
    },
    {
      "x": 191,
      "y": 328,
      "size": 1,
      "price": "4683000000000000000000",
      "reserved": "",
      "salt": "0x6da626f649d6606d18e7e8dce15a28c10f3351d2212aa3d800d8b26d20bd4315",
      "assetIds": [
        "41506478881403507969696680653240014914910929820314476107906210059990541021186"
      ]
    },
    {
      "x": 191,
      "y": 329,
      "size": 1,
      "price": "4683000000000000000000",
      "reserved": "",
      "salt": "0x08bcf8b21b99a940126430fce7fcf4ccbb56fd307f3d6d664c0a2bb2c3b6a352",
      "assetIds": [
        "41506478881403507969696680653240014914910929820314476107906210059990541021186"
      ]
    },
    {
      "x": 191,
      "y": 330,
      "size": 1,
      "price": "4683000000000000000000",
      "reserved": "",
      "salt": "0xd684af40928ce25c2ca1bb1c7ae8a58d3b9753ce6c6b800de907452bcec9c633",
      "assetIds": [
        "41506478881403507969696680653240014914910929820314476107906210059990541021186"
      ]
    },
    {
      "x": 197,
      "y": 336,
      "size": 1,
      "price": "4683000000000000000000",
      "reserved": "",
      "salt": "0x678f1f07d4dea87d18d3e4d2e7dbc8986787d6feeb9495d39522df6ec98b8c19",
      "assetIds": [
        "41506478881403507969696680653240014914910929820314476107906210059990541021186"
      ]
    },
    {
      "x": 197,
      "y": 337,
      "size": 1,
      "price": "1011000000000000000000",
      "reserved": "",
      "salt": "0x430d306dd26b4c63ebc5c8aa23a0d80a26786986ab7273c823af4399692d7951",
      "assetIds": []
    },
    {
      "x": 198,
      "y": 336,
      "size": 1,
      "price": "4683000000000000000000",
      "reserved": "",
      "salt": "0x00ca3f3921a5fe6df77eb5a000503f1f36d4bce4c710ee6db4026a3a1cbf409c",
      "assetIds": [
        "41506478881403507969696680653240014914910929820314476107906210059990541021186"
      ]
    },
    {
      "x": 198,
      "y": 337,
      "size": 1,
      "price": "1011000000000000000000",
      "reserved": "",
      "salt": "0x5d5a74c18da43e294317e6b10f20527db07daf708cc48958e075450ca914a88b",
      "assetIds": []
    },
    {
      "x": 198,
      "y": 338,
      "size": 1,
      "price": "1011000000000000000000",
      "reserved": "",
      "salt": "0x9443dd456865b0ead27b0bfdd99644d53d0033b7aeacc5eb7a330a450754ec6f",
      "assetIds": []
    },
    {
      "x": 198,
      "y": 339,
      "size": 1,
      "price": "1011000000000000000000",
      "reserved": "",
      "salt": "0xf0088e7c3e366647530e6a58852de114b685604a80a8751f82c00c6c46ac4831",
      "assetIds": []
    },
    {
      "x": 198,
      "y": 340,
      "size": 1,
      "price": "1011000000000000000000",
      "reserved": "",
      "salt": "0xc0784f26157ae06f306b86d061eb9fd922e729455fd4a95c5cd98e702e6cf73b",
      "assetIds": []
    },
    {
      "x": 198,
      "y": 341,
      "size": 1,
      "price": "1011000000000000000000",
      "reserved": "0x7a9fe22691c811ea339d9b73150e6911a5343dca",
      "salt": "0x92cfd67a07c10a1b473b2b862d9cda0e4f6238d32231c67d0f11fb244dc8bd8a",
      "assetIds": []
    },
    {
      "x": 198,
      "y": 342,
      "size": 1,
      "price": "1011000000000000000000",
      "reserved": "",
      "salt": "0x28909686ea55193292fff63090aea6f9e41358f24e6420f3672428ffd5a001da",
      "assetIds": []
    },
    {
      "x": 198,
      "y": 343,
      "size": 1,
      "price": "1011000000000000000000",
      "reserved": "",
      "salt": "0x146304176c1150eaa369adf6f550bcfe9e6cc11f00eac71248137d15f0b830cf",
      "assetIds": []
    },
    {
      "x": 198,
      "y": 344,
      "size": 1,
      "price": "1011000000000000000000",
      "reserved": "",
      "salt": "0x2a15c13438d3e2def4681398ed9a1d108201299d3309726f463619a6c641aa42",
      "assetIds": []
    },
    {
      "x": 198,
      "y": 345,
      "size": 1,
      "price": "1011000000000000000000",
      "reserved": "",
      "salt": "0x7c5362a0b86c8f985e18b392b0b8dad1957e651148a82b307b03ac72379e4216",
      "assetIds": []
    },
    {
      "x": 198,
      "y": 346,
      "size": 1,
      "price": "1011000000000000000000",
      "reserved": "",
      "salt": "0x222334d64006afa0ff1958abaa7c43048591457721708a168a4cbc081d3cb7bd",
      "assetIds": []
    },
    {
      "x": 198,
      "y": 347,
      "size": 1,
      "price": "1011000000000000000000",
      "reserved": "",
      "salt": "0x80b933d98f458531d2b275a51752f151336a1eaa6b0da091703ff6b30d3887fe",
      "assetIds": []
    },
    {
      "x": 198,
      "y": 348,
      "size": 1,
      "price": "1011000000000000000000",
      "reserved": "0x7a9fe22691c811ea339d9b73150e6911a5343dca",
      "salt": "0xba62da7a5e2c35e4cb564749ff5a9b719c0d82c47e11f2e0f91632398b2dd7c2",
      "assetIds": []
    },
    {
      "x": 198,
      "y": 349,
      "size": 1,
      "price": "1011000000000000000000",
      "reserved": "",
      "salt": "0xdf8cbb0be560cce653e7c97533238d584a6931a72a366bf32d50b633b0c4cbde",
      "assetIds": []
    },
    {
      "x": 198,
      "y": 350,
      "size": 1,
      "price": "1011000000000000000000",
      "reserved": "",
      "salt": "0xbf53f2a812298f3eee9d17bab89aa61494fa21e6697bb4621ea0f5d909826175",
      "assetIds": []
    },
    {
      "x": 199,
      "y": 336,
      "size": 1,
      "price": "4683000000000000000000",
      "reserved": "",
      "salt": "0xc3c388eb9b23cedcb80aa550c5fa153ba1c1406c51efbf29b5e4e4e12b63c36e",
      "assetIds": [
        "41506478881403507969696680653240014914910929820314476107906210059990541021186"
      ]
    },
    {
      "x": 199,
      "y": 337,
      "size": 1,
      "price": "1011000000000000000000",
      "reserved": "",
      "salt": "0xffbe70493436d760c3584296fd2addc2f9a15cc714403a6a25ff27acddd4dfc3",
      "assetIds": []
    },
    {
      "x": 199,
      "y": 338,
      "size": 1,
      "price": "1011000000000000000000",
      "reserved": "",
      "salt": "0x6bd1719a677747261ccb3718d392f1479382b7d4c973c724e0e53d530c603b1a",
      "assetIds": []
    },
    {
      "x": 199,
      "y": 339,
      "size": 1,
      "price": "1011000000000000000000",
      "reserved": "",
      "salt": "0x84636e4813990aa41c1095364028d5f20237d35952414b7dbc20386e38a55772",
      "assetIds": []
    },
    {
      "x": 199,
      "y": 340,
      "size": 1,
      "price": "1011000000000000000000",
      "reserved": "",
      "salt": "0x41f2577c8f5d6244e7f7ca99b3e912d5ac22e18cd80f55ad442d42ca43fd079f",
      "assetIds": []
    },
    {
      "x": 199,
      "y": 341,
      "size": 1,
      "price": "1011000000000000000000",
      "reserved": "",
      "salt": "0xbde22eef9a70aa95a81c2f5dc9c26a9fd6a3900ac3064c6d6920405adec0b8f6",
      "assetIds": []
    },
    {
      "x": 199,
      "y": 342,
      "size": 1,
      "price": "1011000000000000000000",
      "reserved": "",
      "salt": "0xe072a73c582cf67bab226571319e8e792f685894e466ab47ea321f5c0a62478e",
      "assetIds": []
    },
    {
      "x": 199,
      "y": 343,
      "size": 1,
      "price": "1011000000000000000000",
      "reserved": "",
      "salt": "0xf6c30d596a034851f0bce54a418c694387aef09f822cff78c25af5ec50d009d4",
      "assetIds": []
    },
    {
      "x": 199,
      "y": 344,
      "size": 1,
      "price": "1011000000000000000000",
      "reserved": "0x7a9fe22691c811ea339d9b73150e6911a5343dca",
      "salt": "0x6d4de2944be3051115d3facd5e766447b36fc1701cf6e5e6a5cadebfe573f926",
      "assetIds": []
    },
    {
      "x": 199,
      "y": 345,
      "size": 1,
      "price": "1011000000000000000000",
      "reserved": "",
      "salt": "0x0a880b8f827c770295c0dfe8551a6aba364ea3f60f10eb3ee8dcd5a3f5f53eb9",
      "assetIds": []
    },
    {
      "x": 199,
      "y": 346,
      "size": 1,
      "price": "1011000000000000000000",
      "reserved": "",
      "salt": "0x8de89fbdb816a442f199dcec4200b4b3a69a24f8a5898c43dff071ad84c89b33",
      "assetIds": []
    },
    {
      "x": 199,
      "y": 347,
      "size": 1,
      "price": "1011000000000000000000",
      "reserved": "",
      "salt": "0x67609810ed965c993e9de5b2527226c056126723cb48faf46b22866b1e71f17b",
      "assetIds": []
    },
    {
      "x": 199,
      "y": 348,
      "size": 1,
      "price": "1011000000000000000000",
      "reserved": "0x7a9fe22691c811ea339d9b73150e6911a5343dca",
      "salt": "0xa523b8520b09d9abd672ebe2e618d5bf12a6b268970939d0f3b0c9f47f51a29b",
      "assetIds": []
    },
    {
      "x": 199,
      "y": 349,
      "size": 1,
      "price": "1011000000000000000000",
      "reserved": "",
      "salt": "0x04550c26f6eddf55859a036ed97b45371a5eee6675bc0023f8a3a89875318503",
      "assetIds": []
    },
    {
      "x": 199,
      "y": 350,
      "size": 1,
      "price": "1011000000000000000000",
      "reserved": "0x7a9fe22691c811ea339d9b73150e6911a5343dca",
      "salt": "0xa1749282c97b936a3224bc05e679d73f86e18fe0eb660a4f2ddea89a46e8b870",
      "assetIds": []
    },
    {
      "x": 200,
      "y": 336,
      "size": 1,
      "price": "4683000000000000000000",
      "reserved": "",
      "salt": "0x3e2c00663300b1df110b539601758c0e028e9fdb1795b06c2ce4c0f877b1946c",
      "assetIds": [
        "41506478881403507969696680653240014914910929820314476107906210059990541021186"
      ]
    },
    {
      "x": 200,
      "y": 337,
      "size": 1,
      "price": "1011000000000000000000",
      "reserved": "",
      "salt": "0x34f752d11098c6b9e5d0ce8a787111d1ece77e8644d2d3e9a053788e3001b19b",
      "assetIds": []
    },
    {
      "x": 200,
      "y": 338,
      "size": 1,
      "price": "1011000000000000000000",
      "reserved": "0x7a9fe22691c811ea339d9b73150e6911a5343dca",
      "salt": "0x54a17227c16df145480b1f9e1834121d5ed473925aeda3f5244263783ee073ea",
      "assetIds": []
    },
    {
      "x": 200,
      "y": 339,
      "size": 1,
      "price": "1011000000000000000000",
      "reserved": "",
      "salt": "0xd1182750a934f1979f668aa4ae6ac09e7ae23eb5ee78fb60cd2143c033c187d1",
      "assetIds": []
    },
    {
      "x": 200,
      "y": 340,
      "size": 1,
      "price": "1011000000000000000000",
      "reserved": "0x7a9fe22691c811ea339d9b73150e6911a5343dca",
      "salt": "0x0aacba13ee976042d4d4a961e4e369f981129177401c3744da716f2fac3b3249",
      "assetIds": []
    },
    {
      "x": 200,
      "y": 341,
      "size": 1,
      "price": "1011000000000000000000",
      "reserved": "",
      "salt": "0xfe3f6d15af94bc9893b6bbdb4b82d91c4f28ff2562aca0615c982eced535d8f8",
      "assetIds": []
    },
    {
      "x": 200,
      "y": 342,
      "size": 1,
      "price": "1011000000000000000000",
      "reserved": "0x7a9fe22691c811ea339d9b73150e6911a5343dca",
      "salt": "0x965b80f7b335207e85d8809a60e342f364cff1df551845277ee1441804504c28",
      "assetIds": []
    },
    {
      "x": 200,
      "y": 343,
      "size": 1,
      "price": "1011000000000000000000",
      "reserved": "",
      "salt": "0xfa6fa2cf46a71758ec14d0cb12754e7e2a1a7267245bb97d6bd2df735908ce29",
      "assetIds": []
    },
    {
      "x": 200,
      "y": 344,
      "size": 1,
      "price": "1011000000000000000000",
      "reserved": "",
      "salt": "0x8ea23e5296915d4072f40040317fa33fecc0c696db16327b9e77ec4a1635b185",
      "assetIds": []
    },
    {
      "x": 200,
      "y": 345,
      "size": 1,
      "price": "1011000000000000000000",
      "reserved": "",
      "salt": "0xee002826ac2deff0f805a0af046def9d2868c9ad3fccb274b254ecc5fbf248c1",
      "assetIds": []
    },
    {
      "x": 200,
      "y": 346,
      "size": 1,
      "price": "1011000000000000000000",
      "reserved": "",
      "salt": "0x2dff93162f12dde25e7157f69cf86e3af9fbfd35d05348933d9146be204a04be",
      "assetIds": []
    },
    {
      "x": 200,
      "y": 347,
      "size": 1,
      "price": "1011000000000000000000",
      "reserved": "",
      "salt": "0x424c2e3e376d6b46cd3713498543ac5dfd39514eed781e2c389da21ecad0558b",
      "assetIds": []
    },
    {
      "x": 200,
      "y": 348,
      "size": 1,
      "price": "1011000000000000000000",
      "reserved": "",
      "salt": "0x2f9f3c693132b606a2ea8ee2425ac8d251c3128b2b8f2112c9f16b2bca1b64d6",
      "assetIds": []
    },
    {
      "x": 200,
      "y": 349,
      "size": 1,
      "price": "1011000000000000000000",
      "reserved": "",
      "salt": "0xf880d22d43bf1b8f5d09439994cadf0e99563864c7b5ccc2de1477ccc917dd55",
      "assetIds": []
    },
    {
      "x": 200,
      "y": 350,
      "size": 1,
      "price": "1011000000000000000000",
      "reserved": "",
      "salt": "0xc42536994b848004b8996386ce90f482df64b03ca29b3b8947381c17c810104b",
      "assetIds": []
    },
    {
      "x": 201,
      "y": 336,
      "size": 1,
      "price": "4683000000000000000000",
      "reserved": "",
      "salt": "0x866b23f8feb66c779482768bb7023053671534121129c4b59f8b7ab5ff581021",
      "assetIds": [
        "41506478881403507969696680653240014914910929820314476107906210059990541021186"
      ]
    },
    {
      "x": 201,
      "y": 337,
      "size": 1,
      "price": "4683000000000000000000",
      "reserved": "",
      "salt": "0xf98fecf51a0dc5f07d6482428935638a720cc2c0b2c4714355a3359066c51e55",
      "assetIds": [
        "41506478881403507969696680653240014914910929820314476107906210059990541021186"
      ]
    },
    {
      "x": 201,
      "y": 338,
      "size": 1,
      "price": "1011000000000000000000",
      "reserved": "",
      "salt": "0x44bd3650e5fc0289a025c4894ff1403fbfea59005ddbf426e1c2204a13496204",
      "assetIds": []
    },
    {
      "x": 201,
      "y": 339,
      "size": 1,
      "price": "1011000000000000000000",
      "reserved": "",
      "salt": "0x1ccf98c90e80c54bac7025d6c225b6cdb3e1c01e6a134ecbba815086ac825000",
      "assetIds": []
    },
    {
      "x": 201,
      "y": 340,
      "size": 1,
      "price": "1011000000000000000000",
      "reserved": "",
      "salt": "0x25ed50686b9d6427432809a1eb397342479c00b89d7db6bea6861f794e82cba1",
      "assetIds": []
    },
    {
      "x": 201,
      "y": 341,
      "size": 1,
      "price": "4683000000000000000000",
      "reserved": "",
      "salt": "0x4a57c697d3859a8c60fb50add10e79dfbd044e633928bd321983d247ab38940a",
      "assetIds": [
        "41506478881403507969696680653240014914910929820314476107906210059990541021186"
      ]
    },
    {
      "x": 201,
      "y": 345,
      "size": 1,
      "price": "1011000000000000000000",
      "reserved": "",
      "salt": "0xfb97666cebbc483dd0f0dc175f632d2700014967e1e0ecf2499505e529f09a11",
      "assetIds": []
    },
    {
      "x": 201,
      "y": 346,
      "size": 1,
      "price": "1011000000000000000000",
      "reserved": "",
      "salt": "0x846275b67b9aa7be086c2c27665241700c339e66755a0bfb234af6c664dd3136",
      "assetIds": []
    },
    {
      "x": 201,
      "y": 347,
      "size": 1,
      "price": "1011000000000000000000",
      "reserved": "0x7a9fe22691c811ea339d9b73150e6911a5343dca",
      "salt": "0x2552c16ba81ade49f3096df7231b87ed37c0a7a6fda4dda09db94d194ffd6846",
      "assetIds": []
    },
    {
      "x": 201,
      "y": 348,
      "size": 1,
      "price": "4683000000000000000000",
      "reserved": "",
      "salt": "0xec4545cc42be3aed4b3ddb35b237505ac7c84f7b2a6bd8f829e58c5188996764",
      "assetIds": [
        "41506478881403507969696680653240014914910929820314476107906210059990541021186"
      ]
    },
    {
      "x": 201,
      "y": 349,
      "size": 1,
      "price": "1011000000000000000000",
      "reserved": "",
      "salt": "0xffdbe2ac364c1e29e14242c50e33da3d7232a09f54485ab2562d9742981f2205",
      "assetIds": []
    },
    {
      "x": 201,
      "y": 350,
      "size": 1,
      "price": "1011000000000000000000",
      "reserved": "",
      "salt": "0x1217bd9e6bea9be51f52cfd652cb1145d7946a3006495db7f155fe5d635b8286",
      "assetIds": []
    },
    {
      "x": 202,
      "y": 336,
      "size": 1,
      "price": "4683000000000000000000",
      "reserved": "",
      "salt": "0xe92e0b5f277ec8f8e319e71c17fcbec1d85058430feb94c107325eceaec2ac8f",
      "assetIds": [
        "41506478881403507969696680653240014914910929820314476107906210059990541021186"
      ]
    },
    {
      "x": 202,
      "y": 337,
      "size": 1,
      "price": "1011000000000000000000",
      "reserved": "",
      "salt": "0xe107cd94766bdbbfd8465f48d7c968c3e30f3b24e1d2ee2aca9af394481a1c81",
      "assetIds": []
    },
    {
      "x": 202,
      "y": 338,
      "size": 1,
      "price": "1011000000000000000000",
      "reserved": "0x7a9fe22691c811ea339d9b73150e6911a5343dca",
      "salt": "0xc5c9be3e4ab1a585c54d93284d1ddc931933901d83f980c5205c698f768c22f8",
      "assetIds": []
    },
    {
      "x": 202,
      "y": 339,
      "size": 1,
      "price": "1011000000000000000000",
      "reserved": "",
      "salt": "0x89c42667220b203582bb43e6d3032694a527e14c546438caf9591abb047df862",
      "assetIds": []
    },
    {
      "x": 202,
      "y": 340,
      "size": 1,
      "price": "1011000000000000000000",
      "reserved": "",
      "salt": "0x72bfacf8c2b35136d37e9bc1c989ddd1010123f1c235a2fc80613c100e6088d1",
      "assetIds": []
    },
    {
      "x": 202,
      "y": 341,
      "size": 1,
      "price": "4683000000000000000000",
      "reserved": "",
      "salt": "0xa604845409292145654257c33e22d021ac6336bb812512b45109347994b3f9d3",
      "assetIds": [
        "41506478881403507969696680653240014914910929820314476107906210059990541021186"
      ]
    },
    {
      "x": 202,
      "y": 345,
      "size": 1,
      "price": "4683000000000000000000",
      "reserved": "",
      "salt": "0xa283e4cdc59cb288378b59006ec3e128471bd407f9568d6dd15034ad2f59fbea",
      "assetIds": [
        "41506478881403507969696680653240014914910929820314476107906210059990541021186"
      ]
    },
    {
      "x": 202,
      "y": 346,
      "size": 1,
      "price": "4683000000000000000000",
      "reserved": "",
      "salt": "0x7610750af9889d3ec014b9713cfe328f34f00ce95e9d328a861d5015abec40c1",
      "assetIds": [
        "41506478881403507969696680653240014914910929820314476107906210059990541021186"
      ]
    },
    {
      "x": 202,
      "y": 347,
      "size": 1,
      "price": "4683000000000000000000",
      "reserved": "",
      "salt": "0xa8497d59b45fb7fd73601cacb00ad4755dd90e07ac93a2745b11b07c4be455d0",
      "assetIds": [
        "41506478881403507969696680653240014914910929820314476107906210059990541021186"
      ]
    },
    {
      "x": 202,
      "y": 348,
      "size": 1,
      "price": "4683000000000000000000",
      "reserved": "",
      "salt": "0xb98278ab9f8d0fac3943f0908c8dccca4c7c3db3b148f3ea3ba07832d140fb60",
      "assetIds": [
        "41506478881403507969696680653240014914910929820314476107906210059990541021186"
      ]
    },
    {
      "x": 202,
      "y": 349,
      "size": 1,
      "price": "1011000000000000000000",
      "reserved": "",
      "salt": "0x280c5ebc30b7fb9470833aacf6bb89bbfa36469bd43ea37d9e83cc9231cd745d",
      "assetIds": []
    },
    {
      "x": 202,
      "y": 350,
      "size": 1,
      "price": "1011000000000000000000",
      "reserved": "0x7a9fe22691c811ea339d9b73150e6911a5343dca",
      "salt": "0x46becf72f0118a911b28ff97e5579dab5ec1055d32e5dee8aa06ef1c11d7a90b",
      "assetIds": []
    },
    {
      "x": 203,
      "y": 336,
      "size": 1,
      "price": "4683000000000000000000",
      "reserved": "",
      "salt": "0xef9325fc3710fa857d74a391dee12b31e65e474ec0e7cd7c25bcc944cf0a095f",
      "assetIds": [
        "41506478881403507969696680653240014914910929820314476107906210059990541021186"
      ]
    },
    {
      "x": 203,
      "y": 337,
      "size": 1,
      "price": "1011000000000000000000",
      "reserved": "0x7a9fe22691c811ea339d9b73150e6911a5343dca",
      "salt": "0x98181ca9dd8e4fb46c1077b741320ec13204c29525d1267818bac0e603351215",
      "assetIds": []
    },
    {
      "x": 203,
      "y": 338,
      "size": 1,
      "price": "4683000000000000000000",
      "reserved": "",
      "salt": "0x7d343ed61cab7c1bb3c8ffc613ee8ef3b65c339df95e9129f3485640fef96dd7",
      "assetIds": [
        "41506478881403507969696680653240014914910929820314476107906210059990541021186"
      ]
    },
    {
      "x": 203,
      "y": 339,
      "size": 1,
      "price": "1011000000000000000000",
      "reserved": "",
      "salt": "0xb4a0005abb10f851475d996b5174ec59878bdffb6e3c8a993cd8acf2691247a8",
      "assetIds": []
    },
    {
      "x": 203,
      "y": 340,
      "size": 1,
      "price": "1011000000000000000000",
      "reserved": "",
      "salt": "0xb631c1292c7917ad880d76ab168dbc8fb1400a6786eee07eef4ab27bec080ea1",
      "assetIds": []
    },
    {
      "x": 203,
      "y": 341,
      "size": 1,
      "price": "4683000000000000000000",
      "reserved": "",
      "salt": "0xf90db4e7e039c5d0357823be2649df40be1fccc6ab313f0b62b9276eb656e03d",
      "assetIds": [
        "41506478881403507969696680653240014914910929820314476107906210059990541021186"
      ]
    },
    {
      "x": 203,
      "y": 345,
      "size": 1,
      "price": "1011000000000000000000",
      "reserved": "0x7a9fe22691c811ea339d9b73150e6911a5343dca",
      "salt": "0x6b3dcc2ec2b7fb9640b5715f9d4d86e300e62f016a752e2d270da7543488c6ae",
      "assetIds": []
    },
    {
      "x": 203,
      "y": 346,
      "size": 1,
      "price": "4683000000000000000000",
      "reserved": "",
      "salt": "0xbb4118140c1194e4176ac8abc7734dede9dbda31950cb2d86daa8700d951a628",
      "assetIds": [
        "41506478881403507969696680653240014914910929820314476107906210059990541021186"
      ]
    },
    {
      "x": 203,
      "y": 347,
      "size": 1,
      "price": "4683000000000000000000",
      "reserved": "",
      "salt": "0x1c488c7b119e0f93e1181cf298f60c185e4d1567559b206122841c9a29863933",
      "assetIds": [
        "41506478881403507969696680653240014914910929820314476107906210059990541021186"
      ]
    },
    {
      "x": 203,
      "y": 348,
      "size": 1,
      "price": "1011000000000000000000",
      "reserved": "0x7a9fe22691c811ea339d9b73150e6911a5343dca",
      "salt": "0x983dc177ee05b211b1d42328bdf20b7ecebe8ab12e1fb8aa96bc1896936704f7",
      "assetIds": []
    },
    {
      "x": 203,
      "y": 349,
      "size": 1,
      "price": "1011000000000000000000",
      "reserved": "",
      "salt": "0xa6c96002314674b0df60ab6189c05f6a4fee542592846d674f312f7941a82c09",
      "assetIds": []
    },
    {
      "x": 203,
      "y": 350,
      "size": 1,
      "price": "1011000000000000000000",
      "reserved": "",
      "salt": "0xe11f63717d7dba9322784fedbbd0ee94310f2ee2ee85714f26cacacb6caeffb2",
      "assetIds": []
    },
    {
      "x": 204,
      "y": 336,
      "size": 1,
      "price": "4683000000000000000000",
      "reserved": "",
      "salt": "0x665e7671c41425ee7be36aa7be1c92c65d4e0ca67a949097bfb323d089865b55",
      "assetIds": [
        "41506478881403507969696680653240014914910929820314476107906210059990541021186"
      ]
    },
    {
      "x": 204,
      "y": 337,
      "size": 1,
      "price": "4683000000000000000000",
      "reserved": "",
      "salt": "0xa775870bca431e1cdfae6353eb865b3102e1c47207010385132dd6e6e49abe1b",
      "assetIds": [
        "41506478881403507969696680653240014914910929820314476107906210059990541021186"
      ]
    },
    {
      "x": 204,
      "y": 338,
      "size": 1,
      "price": "1011000000000000000000",
      "reserved": "0x7a9fe22691c811ea339d9b73150e6911a5343dca",
      "salt": "0x16bd96fb80dc37bf0030ecd553e63bbbe5a76ff488b9b2e9c7bcd03e28c7ba65",
      "assetIds": []
    },
    {
      "x": 204,
      "y": 339,
      "size": 1,
      "price": "1011000000000000000000",
      "reserved": "",
      "salt": "0xd4ed140d5ed90dc81971e3b9bec36c3e3d195dfb0958d872d91ffab87e16b3b5",
      "assetIds": []
    },
    {
      "x": 204,
      "y": 340,
      "size": 1,
      "price": "1011000000000000000000",
      "reserved": "",
      "salt": "0x22c020f454b48f38a21b587a2057a2509b6466b3321868865c1dcc64a9b60fa7",
      "assetIds": []
    },
    {
      "x": 204,
      "y": 341,
      "size": 1,
      "price": "4683000000000000000000",
      "reserved": "",
      "salt": "0xcd8e22afdbdaf33d8847db1dda9a3c938750b241268f88ec9550cf62a6d43c51",
      "assetIds": [
        "41506478881403507969696680653240014914910929820314476107906210059990541021186"
      ]
    },
    {
      "x": 204,
      "y": 348,
      "size": 1,
      "price": "4683000000000000000000",
      "reserved": "",
      "salt": "0x6b2a65bc16cd86ea3c022566cf331b1ecbdfece88af7b39c531ac08f3470836d",
      "assetIds": [
        "41506478881403507969696680653240014914910929820314476107906210059990541021186"
      ]
    },
    {
      "x": 204,
      "y": 349,
      "size": 1,
      "price": "1011000000000000000000",
      "reserved": "",
      "salt": "0x45275024e0c383b9b95fada3ce616015c48b1e9390ce84468a91741d13d064c4",
      "assetIds": []
    },
    {
      "x": 204,
      "y": 350,
      "size": 1,
      "price": "1011000000000000000000",
      "reserved": "0x7a9fe22691c811ea339d9b73150e6911a5343dca",
      "salt": "0x839f403131329f1b73ad1bcba7147af55b97cf78516f9aabdb2038b2a8e7527b",
      "assetIds": []
    },
    {
      "x": 205,
      "y": 336,
      "size": 1,
      "price": "4683000000000000000000",
      "reserved": "",
      "salt": "0x150046960781f4be6b5ac898ffb1880ce2a78532418bf0180327536f7887df7d",
      "assetIds": [
        "41506478881403507969696680653240014914910929820314476107906210059990541021186"
      ]
    },
    {
      "x": 205,
      "y": 337,
      "size": 1,
      "price": "4683000000000000000000",
      "reserved": "",
      "salt": "0x75a1ba0b7a26447492be344640927fa22b44bdca5a039f2f9567fe59a4f67c48",
      "assetIds": [
        "41506478881403507969696680653240014914910929820314476107906210059990541021186"
      ]
    },
    {
      "x": 205,
      "y": 338,
      "size": 1,
      "price": "1011000000000000000000",
      "reserved": "",
      "salt": "0xaf293f8e951bdbe06f4bf9e2f3128851db4d32bf4b9b839a8dca4b0119c634ab",
      "assetIds": []
    },
    {
      "x": 205,
      "y": 339,
      "size": 1,
      "price": "1011000000000000000000",
      "reserved": "",
      "salt": "0x3ea06c9287d51f4655737a5236f6dff8854a2ed052f5c195f9e8cfa90dacf7f0",
      "assetIds": []
    },
    {
      "x": 205,
      "y": 340,
      "size": 1,
      "price": "1011000000000000000000",
      "reserved": "",
      "salt": "0x8169611ed89d5ed4b85a79beca233181de670dd57fab0864207884707d1906a8",
      "assetIds": []
    },
    {
      "x": 205,
      "y": 341,
      "size": 1,
      "price": "4683000000000000000000",
      "reserved": "",
      "salt": "0xff1bafd279f49765480522eeba059580ce9fda8264492b484eac42b2524a8064",
      "assetIds": [
        "41506478881403507969696680653240014914910929820314476107906210059990541021186"
      ]
    },
    {
      "x": 205,
      "y": 348,
      "size": 1,
      "price": "4683000000000000000000",
      "reserved": "",
      "salt": "0xfb3652af414ff4f9fa5837438d62786faf5f3dd3fa855b31697e01a2514cee90",
      "assetIds": [
        "41506478881403507969696680653240014914910929820314476107906210059990541021186"
      ]
    },
    {
      "x": 205,
      "y": 349,
      "size": 1,
      "price": "1011000000000000000000",
      "reserved": "",
      "salt": "0x8141716a2cf7861b1d16b054ba98e7723813f2120bf43799de7f9cf4649edb63",
      "assetIds": []
    },
    {
      "x": 205,
      "y": 350,
      "size": 1,
      "price": "1011000000000000000000",
      "reserved": "",
      "salt": "0x6b539127e748761906f5cc35f45851bc195e832f0cce7ac0201ef6b60a375306",
      "assetIds": []
    },
    {
      "x": 206,
      "y": 336,
      "size": 1,
      "price": "4683000000000000000000",
      "reserved": "",
      "salt": "0xee66a669396dfc186702908d3d8f1151342a89861d5230eb3367ac89f8fe921b",
      "assetIds": [
        "41506478881403507969696680653240014914910929820314476107906210059990541021186"
      ]
    },
    {
      "x": 206,
      "y": 337,
      "size": 1,
      "price": "4683000000000000000000",
      "reserved": "",
      "salt": "0x640c52e398798ba47e2354b3e53ad23635c684c1cc134f0c9a4b7b7534b2f93a",
      "assetIds": [
        "41506478881403507969696680653240014914910929820314476107906210059990541021186"
      ]
    },
    {
      "x": 206,
      "y": 338,
      "size": 1,
      "price": "1011000000000000000000",
      "reserved": "",
      "salt": "0x41426396978df7cbc24046db2a3fa664fc5a05cfd36a307e20bc5591ffc7a3a6",
      "assetIds": []
    },
    {
      "x": 206,
      "y": 339,
      "size": 1,
      "price": "1011000000000000000000",
      "reserved": "0x7a9fe22691c811ea339d9b73150e6911a5343dca",
      "salt": "0x8d7412ea7c507ca5eba0fc34e90c9a10f506096499d750d374fdb87857da3d44",
      "assetIds": []
    },
    {
      "x": 206,
      "y": 340,
      "size": 1,
      "price": "1011000000000000000000",
      "reserved": "",
      "salt": "0xd45d690dcbb2eef128ff6fd91929ff88d31774586f8b77e8440843d3755595f3",
      "assetIds": []
    },
    {
      "x": 206,
      "y": 341,
      "size": 1,
      "price": "4683000000000000000000",
      "reserved": "",
      "salt": "0xf069289c61ac77f77aedd5d5158006bb8a8b3921dd75c26b114ee5ac76fcff41",
      "assetIds": [
        "41506478881403507969696680653240014914910929820314476107906210059990541021186"
      ]
    },
    {
      "x": 206,
      "y": 348,
      "size": 1,
      "price": "4683000000000000000000",
      "reserved": "",
      "salt": "0xa26911af8fd147076af5339d1cbeb4efb582e87b8d15bfa38d611c34d491b61d",
      "assetIds": [
        "41506478881403507969696680653240014914910929820314476107906210059990541021186"
      ]
    },
    {
      "x": 206,
      "y": 349,
      "size": 1,
      "price": "1011000000000000000000",
      "reserved": "",
      "salt": "0xd6391d1288ef89a20db1667f9d68a7b14c5acc656711b82c57934d9a77bd65e5",
      "assetIds": []
    },
    {
      "x": 206,
      "y": 350,
      "size": 1,
      "price": "1011000000000000000000",
      "reserved": "",
      "salt": "0x1dc63f7c430998b04dfa9d9490f801bd6bfb6921abe3042bd580ceb62d142ab2",
      "assetIds": []
    },
    {
      "x": 207,
      "y": 336,
      "size": 1,
      "price": "4683000000000000000000",
      "reserved": "",
      "salt": "0xc3f3104338d89a4649d6a57dea0f7b35727223cf6ccc3c34c76678d098879168",
      "assetIds": [
        "41506478881403507969696680653240014914910929820314476107906210059990541021186"
      ]
    },
    {
      "x": 207,
      "y": 337,
      "size": 1,
      "price": "1011000000000000000000",
      "reserved": "0x7a9fe22691c811ea339d9b73150e6911a5343dca",
      "salt": "0x13a2a9e1f9323768636c59da7a46189a51e698474b3f16c4176679ebb1c261f1",
      "assetIds": []
    },
    {
      "x": 207,
      "y": 338,
      "size": 1,
      "price": "1011000000000000000000",
      "reserved": "",
      "salt": "0xb5028ec39cb4075c1ba16026bd04e7df14f5be2a622faf35f64d2993d499b16a",
      "assetIds": []
    },
    {
      "x": 207,
      "y": 339,
      "size": 1,
      "price": "1011000000000000000000",
      "reserved": "",
      "salt": "0x6548c63cf76aff4b070f5007ef4f2a336f2c2321069f54b72538348b002efb3d",
      "assetIds": []
    },
    {
      "x": 207,
      "y": 340,
      "size": 1,
      "price": "1011000000000000000000",
      "reserved": "",
      "salt": "0xa31d06840dd6101e2769759b2bb61ea51777bad4ac0c5ce581df308640af0ed9",
      "assetIds": []
    },
    {
      "x": 207,
      "y": 341,
      "size": 1,
      "price": "4683000000000000000000",
      "reserved": "",
      "salt": "0xd69b00e3edc6976e4485b93d1a2695249eae403695cb088845e032b0d0d8a4b2",
      "assetIds": [
        "41506478881403507969696680653240014914910929820314476107906210059990541021186"
      ]
    },
    {
      "x": 207,
      "y": 348,
      "size": 1,
      "price": "4683000000000000000000",
      "reserved": "",
      "salt": "0xae236eb0c8fc6cf40bef218a5b5e34ea7d4a67867094c414e7a8c3020693bde9",
      "assetIds": [
        "41506478881403507969696680653240014914910929820314476107906210059990541021186"
      ]
    },
    {
      "x": 207,
      "y": 349,
      "size": 1,
      "price": "1011000000000000000000",
      "reserved": "",
      "salt": "0xe1c0d591e521f5ec58b98b9c4cdd6b724b185ae8470810042222d1d3d275da7b",
      "assetIds": []
    },
    {
      "x": 207,
      "y": 350,
      "size": 1,
      "price": "1011000000000000000000",
      "reserved": "",
      "salt": "0xec26f34f77bbcc629434b4c369f6efe0f5db45462157313b43d26a2e83c226bc",
      "assetIds": []
    },
    {
      "x": 208,
      "y": 336,
      "size": 1,
      "price": "4683000000000000000000",
      "reserved": "",
      "salt": "0x5105e41f95b680107ad5e4615eb8ea58361ef7d395d629bf99971d4b4fa405db",
      "assetIds": [
        "41506478881403507969696680653240014914910929820314476107906210059990541021186"
      ]
    },
    {
      "x": 208,
      "y": 337,
      "size": 1,
      "price": "1011000000000000000000",
      "reserved": "0x7a9fe22691c811ea339d9b73150e6911a5343dca",
      "salt": "0x47822349ac3830d54398a3e61de2d731ca99de6f6a435bf735e39bf451178ed6",
      "assetIds": []
    },
    {
      "x": 208,
      "y": 338,
      "size": 1,
      "price": "1011000000000000000000",
      "reserved": "",
      "salt": "0xa3ace92a530d1ca295e5aaf38acac6bfda2584161533163aaa9a0cccdc94b5c7",
      "assetIds": []
    },
    {
      "x": 208,
      "y": 339,
      "size": 1,
      "price": "1011000000000000000000",
      "reserved": "",
      "salt": "0x6f6ade2edb3fb3bcbb46ef73660d51715b9b8fca653394dba89fad72ae5d167a",
      "assetIds": []
    },
    {
      "x": 208,
      "y": 340,
      "size": 1,
      "price": "1011000000000000000000",
      "reserved": "",
      "salt": "0x8a6020ab238840b018eff799032951ee39618e9b68e57d4b44ede656321ad696",
      "assetIds": []
    },
    {
      "x": 208,
      "y": 341,
      "size": 1,
      "price": "4683000000000000000000",
      "reserved": "",
      "salt": "0x8fc5c5a482b077b22da1871e6faa9aa12e987b33069ba9127e868bac2b316de8",
      "assetIds": [
        "41506478881403507969696680653240014914910929820314476107906210059990541021186"
      ]
    },
    {
      "x": 208,
      "y": 348,
      "size": 1,
      "price": "4683000000000000000000",
      "reserved": "",
      "salt": "0x68f33cfed3d53a8a9f8ac6efb36a0daaca4235dad6802665dbc246cc227df270",
      "assetIds": [
        "41506478881403507969696680653240014914910929820314476107906210059990541021186"
      ]
    },
    {
      "x": 208,
      "y": 349,
      "size": 1,
      "price": "1011000000000000000000",
      "reserved": "",
      "salt": "0xa8ba2fc0271416949a86dc21f750820ac43ae91d20a7eddaaf2963bfeb19c110",
      "assetIds": []
    },
    {
      "x": 208,
      "y": 350,
      "size": 1,
      "price": "1011000000000000000000",
      "reserved": "",
      "salt": "0x911cd3e1f380be4f0cbd3e4dc7665dc614c722b22fa722822512024ad26c61f1",
      "assetIds": []
    },
    {
      "x": 209,
      "y": 336,
      "size": 1,
      "price": "4683000000000000000000",
      "reserved": "",
      "salt": "0xae5f9716d221d45586e03676e69d86c7cb2edd0e0a06208efe97fdc7c54bda0b",
      "assetIds": [
        "41506478881403507969696680653240014914910929820314476107906210059990541021186"
      ]
    },
    {
      "x": 209,
      "y": 337,
      "size": 1,
      "price": "4683000000000000000000",
      "reserved": "",
      "salt": "0x474883ac4299f1c07a8f145439b49c2bd4a726adf945761237042782e86a16a8",
      "assetIds": [
        "41506478881403507969696680653240014914910929820314476107906210059990541021186"
      ]
    },
    {
      "x": 209,
      "y": 338,
      "size": 1,
      "price": "1011000000000000000000",
      "reserved": "",
      "salt": "0x822d2e4fba61de640b3a3cc2c9b43c5093510c158bc3d80d905474029d1daceb",
      "assetIds": []
    },
    {
      "x": 209,
      "y": 339,
      "size": 1,
      "price": "1011000000000000000000",
      "reserved": "",
      "salt": "0xe3c5f20e12229eb64d85960d598b73aaee3d5ead3e3c3070a2ec73d08592cd7b",
      "assetIds": []
    },
    {
      "x": 209,
      "y": 340,
      "size": 1,
      "price": "1011000000000000000000",
      "reserved": "0x7a9fe22691c811ea339d9b73150e6911a5343dca",
      "salt": "0x1cb6fb1a1ab62b2fe665a4cb0241a428aa2aded6f50a39d13324793c3f97637b",
      "assetIds": []
    },
    {
      "x": 209,
      "y": 341,
      "size": 1,
      "price": "4683000000000000000000",
      "reserved": "",
      "salt": "0x3b34beca0924b73219d71f83188f2df8f4ee65b89a34e7aa250f493134205ff4",
      "assetIds": [
        "41506478881403507969696680653240014914910929820314476107906210059990541021186"
      ]
    },
    {
      "x": 209,
      "y": 348,
      "size": 1,
      "price": "4683000000000000000000",
      "reserved": "",
      "salt": "0x97364f5536c2d3ebab6d12af9eb695303fa9dba49f45c19d3a73c3b37c1544e6",
      "assetIds": [
        "41506478881403507969696680653240014914910929820314476107906210059990541021186"
      ]
    },
    {
      "x": 209,
      "y": 349,
      "size": 1,
      "price": "1011000000000000000000",
      "reserved": "",
      "salt": "0x377f9c30053f02e207401e2f8ad709c860a936bb1edbcf26c8c660424b71ba07",
      "assetIds": []
    },
    {
      "x": 209,
      "y": 350,
      "size": 1,
      "price": "1011000000000000000000",
      "reserved": "",
      "salt": "0x01cecc88048ec9711300d8529f80f1f0fa2a91ba4fd7832895f57fc6fd74887b",
      "assetIds": []
    },
    {
      "x": 210,
      "y": 336,
      "size": 1,
      "price": "4683000000000000000000",
      "reserved": "",
      "salt": "0x3fb510048d4c24adbd28312cd19e7c65329f1f989d9ab12bee9169bcd55cddca",
      "assetIds": [
        "41506478881403507969696680653240014914910929820314476107906210059990541021186"
      ]
    },
    {
      "x": 210,
      "y": 337,
      "size": 1,
      "price": "1011000000000000000000",
      "reserved": "",
      "salt": "0x4093de9b9e9084150732c9b52f4ce61f8e8b52856bcf88842910f824bf26f36b",
      "assetIds": []
    },
    {
      "x": 210,
      "y": 338,
      "size": 1,
      "price": "1011000000000000000000",
      "reserved": "",
      "salt": "0xecd08402b7c881bf3da961919dd2ea658ec1d80c5401692c225d422ce46a56a4",
      "assetIds": []
    },
    {
      "x": 210,
      "y": 339,
      "size": 1,
      "price": "1011000000000000000000",
      "reserved": "",
      "salt": "0x0d22f10b7ff4f7f8beafc509be0c227d3ea7dd0c393b5abc70218c9b6e3127fa",
      "assetIds": []
    },
    {
      "x": 210,
      "y": 340,
      "size": 1,
      "price": "1011000000000000000000",
      "reserved": "",
      "salt": "0x0987dff90c990ee0ff363af8af74ae6e304a018668b615b6597a371f90fe56fd",
      "assetIds": []
    },
    {
      "x": 210,
      "y": 341,
      "size": 1,
      "price": "4683000000000000000000",
      "reserved": "",
      "salt": "0xdb536185bdaa1f581a67fe137e5d9245fa5d3817982e922661b8884f2e093ab6",
      "assetIds": [
        "41506478881403507969696680653240014914910929820314476107906210059990541021186"
      ]
    },
    {
      "x": 210,
      "y": 342,
      "size": 1,
      "price": "4683000000000000000000",
      "reserved": "",
      "salt": "0x5b193f2b25d1420a3e4411b73b1a22011e36e1bd2a785a4dff5cb05e7af0006c",
      "assetIds": [
        "41506478881403507969696680653240014914910929820314476107906210059990541021186"
      ]
    },
    {
      "x": 210,
      "y": 343,
      "size": 1,
      "price": "4683000000000000000000",
      "reserved": "",
      "salt": "0x48c4f0b39470ea8ca792ab6bcb33db19f612e73d4277b8b0e018613f4b3521b5",
      "assetIds": [
        "41506478881403507969696680653240014914910929820314476107906210059990541021186"
      ]
    },
    {
      "x": 210,
      "y": 344,
      "size": 1,
      "price": "4683000000000000000000",
      "reserved": "",
      "salt": "0x8314dbc5a8309785b8509c1f5da0e38927f8fa4849c38a1e2a9d2283a24b44f1",
      "assetIds": [
        "41506478881403507969696680653240014914910929820314476107906210059990541021186"
      ]
    },
    {
      "x": 210,
      "y": 345,
      "size": 1,
      "price": "4683000000000000000000",
      "reserved": "",
      "salt": "0x7703c02d712744e0779a61ecd4de92827b05464e1ff45466b08a8ed006d3d869",
      "assetIds": [
        "41506478881403507969696680653240014914910929820314476107906210059990541021186"
      ]
    },
    {
      "x": 210,
      "y": 346,
      "size": 1,
      "price": "4683000000000000000000",
      "reserved": "",
      "salt": "0xab7e09ccdeda85096ec85196417bdcffe3416c664d7c283dcb3d6e8ee569f10c",
      "assetIds": [
        "41506478881403507969696680653240014914910929820314476107906210059990541021186"
      ]
    },
    {
      "x": 210,
      "y": 347,
      "size": 1,
      "price": "4683000000000000000000",
      "reserved": "",
      "salt": "0xb544ae8fc4f61b2469c6c8c524ea3c72a66111751ce95e6d37802dc60d108234",
      "assetIds": [
        "41506478881403507969696680653240014914910929820314476107906210059990541021186"
      ]
    },
    {
      "x": 210,
      "y": 348,
      "size": 1,
      "price": "4683000000000000000000",
      "reserved": "",
      "salt": "0x66112798d2230abf1db3ec69ad56c8542240956160359380d477603f5b7d080a",
      "assetIds": [
        "41506478881403507969696680653240014914910929820314476107906210059990541021186"
      ]
    },
    {
      "x": 210,
      "y": 349,
      "size": 1,
      "price": "1011000000000000000000",
      "reserved": "",
      "salt": "0x8270dfdbc88ccfde066f25a632ff6a173785025ead5ad31f739bce19dd2b14d8",
      "assetIds": []
    },
    {
      "x": 210,
      "y": 350,
      "size": 1,
      "price": "1011000000000000000000",
      "reserved": "",
      "salt": "0xad1fee910073f22077157c46056b93decf040bb142b22b9ed307425916b45537",
      "assetIds": []
    },
    {
      "x": 211,
      "y": 336,
      "size": 1,
      "price": "4683000000000000000000",
      "reserved": "",
      "salt": "0x45767e422c1f6b60d849b640a1296b354b8bdf309df3bdc0beb04a909036e69d",
      "assetIds": [
        "41506478881403507969696680653240014914910929820314476107906210059990541021186"
      ]
    },
    {
      "x": 211,
      "y": 337,
      "size": 1,
      "price": "4683000000000000000000",
      "reserved": "",
      "salt": "0xd93b4bfc9a259bd94ddaf7033baf958170f6427893e4bcab711ac8b9483ad8f3",
      "assetIds": [
        "41506478881403507969696680653240014914910929820314476107906210059990541021186"
      ]
    },
    {
      "x": 211,
      "y": 338,
      "size": 1,
      "price": "1011000000000000000000",
      "reserved": "",
      "salt": "0xa742ad7b07658ec0820b64105169e3a953b24b5bff92cbe8cb7ecf0c30d46fdf",
      "assetIds": []
    },
    {
      "x": 211,
      "y": 339,
      "size": 1,
      "price": "1011000000000000000000",
      "reserved": "",
      "salt": "0x0e128fa78fc6b2774f5a9404a6e5bca624c03a97b32c3c71472a47c67349f284",
      "assetIds": []
    },
    {
      "x": 211,
      "y": 340,
      "size": 1,
      "price": "1011000000000000000000",
      "reserved": "",
      "salt": "0x3d3faa99be0e1b1aff46fa8aa097fec9a14f884f8a515a5ab1885c0f0f26d508",
      "assetIds": []
    },
    {
      "x": 211,
      "y": 341,
      "size": 1,
      "price": "1011000000000000000000",
      "reserved": "0x7a9fe22691c811ea339d9b73150e6911a5343dca",
      "salt": "0xa291cbabcc9fc2708b0a363de21fa1d7b81cf579cb4492a90ae329d507996cc5",
      "assetIds": []
    },
    {
      "x": 211,
      "y": 342,
      "size": 1,
      "price": "1011000000000000000000",
      "reserved": "",
      "salt": "0x4641a25a7a373724b36b416e8ae41a7290349d65728cfe4c680be8dfa5fb7e53",
      "assetIds": []
    },
    {
      "x": 211,
      "y": 343,
      "size": 1,
      "price": "1011000000000000000000",
      "reserved": "",
      "salt": "0x209a5f400c54b15abbcd6d3af13b47a68af19a2c3f72893ef802363e8e7c5e3d",
      "assetIds": []
    },
    {
      "x": 211,
      "y": 344,
      "size": 1,
      "price": "1011000000000000000000",
      "reserved": "",
      "salt": "0xc6bf6eb1dd0836bc3cdbbd4394c8a663fbc731129e377620a7d66792d88c2bd8",
      "assetIds": []
    },
    {
      "x": 211,
      "y": 345,
      "size": 1,
      "price": "1011000000000000000000",
      "reserved": "",
      "salt": "0xd25ce1250f9e76bb530d44ba2dd7e50da572fe653eb35160baad13791db56787",
      "assetIds": []
    },
    {
      "x": 211,
      "y": 346,
      "size": 1,
      "price": "1011000000000000000000",
      "reserved": "",
      "salt": "0x4cbdf8830dae4b262bc1dc992682845991408ed24c517c8cf6ddbeab77105557",
      "assetIds": []
    },
    {
      "x": 211,
      "y": 347,
      "size": 1,
      "price": "1011000000000000000000",
      "reserved": "",
      "salt": "0xda51a32634f6bc3cdae2de6c12c706019b0843c4985662c5b5af128ae3021450",
      "assetIds": []
    },
    {
      "x": 211,
      "y": 348,
      "size": 1,
      "price": "1011000000000000000000",
      "reserved": "",
      "salt": "0xb92c3b8da682970ccc867762f4765dd6a16cdad95d0db284b74e4f749067e384",
      "assetIds": []
    },
    {
      "x": 211,
      "y": 349,
      "size": 1,
      "price": "1011000000000000000000",
      "reserved": "0x7a9fe22691c811ea339d9b73150e6911a5343dca",
      "salt": "0x1eb260e6415dcc9beb886a2c58b97c13b695521b01cb976d92ae91e0528c1e56",
      "assetIds": []
    },
    {
      "x": 211,
      "y": 350,
      "size": 1,
      "price": "1011000000000000000000",
      "reserved": "",
      "salt": "0xbb75c0f017d51c19b193d8b0fa010b26772ae6fcabdb9a86ec12e37932dcb480",
      "assetIds": []
    },
    {
      "x": 212,
      "y": 336,
      "size": 1,
      "price": "4683000000000000000000",
      "reserved": "",
      "salt": "0xc9c42838cfa22369cce38a23cf5482af96d80e03b96c15cd1fff26726c7e39a4",
      "assetIds": [
        "41506478881403507969696680653240014914910929820314476107906210059990541021186"
      ]
    },
    {
      "x": 212,
      "y": 337,
      "size": 1,
      "price": "4683000000000000000000",
      "reserved": "",
      "salt": "0x68bae9dc6cf842fb381c09b321659c3186e25ea4c74038ba8f460dd00d3aac78",
      "assetIds": [
        "41506478881403507969696680653240014914910929820314476107906210059990541021186"
      ]
    },
    {
      "x": 212,
      "y": 338,
      "size": 1,
      "price": "1011000000000000000000",
      "reserved": "",
      "salt": "0x216b29e7b746fc7e471dd6a85b3fd4d9a0ef4d205a6f157fc6d61d52569b0011",
      "assetIds": []
    },
    {
      "x": 212,
      "y": 339,
      "size": 1,
      "price": "1011000000000000000000",
      "reserved": "",
      "salt": "0xae7332e3a9e21cebb2c80e467f7de6dbda00b06692ba03667651e1beaa5b816c",
      "assetIds": []
    },
    {
      "x": 212,
      "y": 340,
      "size": 1,
      "price": "1011000000000000000000",
      "reserved": "0x7a9fe22691c811ea339d9b73150e6911a5343dca",
      "salt": "0x8c8356d8f5ffec2cd1d5089b4d790d3169ce2120d3c41a5ad91ed943ad049ab8",
      "assetIds": []
    },
    {
      "x": 212,
      "y": 341,
      "size": 1,
      "price": "1011000000000000000000",
      "reserved": "0x7a9fe22691c811ea339d9b73150e6911a5343dca",
      "salt": "0x1d0a00df67e9f645c121d84e0179ac48e66c4e36930f8f291677fb116ee6efcb",
      "assetIds": []
    },
    {
      "x": 212,
      "y": 342,
      "size": 1,
      "price": "1011000000000000000000",
      "reserved": "",
      "salt": "0x51367ce7fa0b6d115afa69b30fe9e9a8d1c42ab13fa8066f35bbef6a43ada977",
      "assetIds": []
    },
    {
      "x": 212,
      "y": 343,
      "size": 1,
      "price": "1011000000000000000000",
      "reserved": "",
      "salt": "0x3f4b67d9275d237f04c4a499c537ea70c77aafd3a01606ae2bfaae24fe9a5972",
      "assetIds": []
    },
    {
      "x": 212,
      "y": 344,
      "size": 1,
      "price": "1011000000000000000000",
      "reserved": "0x7a9fe22691c811ea339d9b73150e6911a5343dca",
      "salt": "0xf6a314ad1a7c3bbbab1450ad86e19cf59d950e66167bc3e03108a728f3df84ba",
      "assetIds": []
    },
    {
      "x": 212,
      "y": 345,
      "size": 1,
      "price": "1011000000000000000000",
      "reserved": "",
      "salt": "0xebab855428ee7a7f556006acf57821dcd8b47a9d9550c6a09d39dcb1fd495e3b",
      "assetIds": []
    },
    {
      "x": 212,
      "y": 346,
      "size": 1,
      "price": "1011000000000000000000",
      "reserved": "",
      "salt": "0xabd7ede1d7830a36afa5e74cf72d67480a8c78b99a2a21368ea3dedf7db03919",
      "assetIds": []
    },
    {
      "x": 212,
      "y": 347,
      "size": 1,
      "price": "1011000000000000000000",
      "reserved": "",
      "salt": "0xf759ba3aea01f0865d125b7b9e78fe51231393676e56ab0480fbe527f2c092b2",
      "assetIds": []
    },
    {
      "x": 212,
      "y": 348,
      "size": 1,
      "price": "1011000000000000000000",
      "reserved": "",
      "salt": "0x0e0a91acfc50621cc6ed2aa7f8668c15188f243cd9273558747d8fc62a335bd6",
      "assetIds": []
    },
    {
      "x": 212,
      "y": 349,
      "size": 1,
      "price": "1011000000000000000000",
      "reserved": "",
      "salt": "0xece11d3de7abef92ae44c485547bbe9fe77c3a1c6352e9f130166d089436d3ca",
      "assetIds": []
    },
    {
      "x": 212,
      "y": 350,
      "size": 1,
      "price": "1011000000000000000000",
      "reserved": "",
      "salt": "0x6262221e7148d0e2adc0f72bd4feb85e95c9a9e128812247e1a340dff0f68892",
      "assetIds": []
    },
    {
      "x": 213,
      "y": 336,
      "size": 1,
      "price": "4683000000000000000000",
      "reserved": "",
      "salt": "0x7686cea2bd0ea7f268083164f311488f8f9a3958869801def82fe574528c1f6b",
      "assetIds": [
        "41506478881403507969696680653240014914910929820314476107906210059990541021186"
      ]
    },
    {
      "x": 213,
      "y": 337,
      "size": 1,
      "price": "1011000000000000000000",
      "reserved": "0x7a9fe22691c811ea339d9b73150e6911a5343dca",
      "salt": "0x2ca5dfff6026ec90f55c627c1703b2e5b3915cde26d04695a60bad780968716b",
      "assetIds": []
    },
    {
      "x": 213,
      "y": 338,
      "size": 1,
      "price": "1011000000000000000000",
      "reserved": "",
      "salt": "0x73790aa01f5185f6fabda0c33c4041c0ffb46bc1f5687e99148f33d3c938c377",
      "assetIds": []
    },
    {
      "x": 213,
      "y": 339,
      "size": 1,
      "price": "1011000000000000000000",
      "reserved": "",
      "salt": "0x1bb938f57ad2bcb12b9735457d94bd159c0bb6a6fbbba3e5523942b9e7004b22",
      "assetIds": []
    },
    {
      "x": 213,
      "y": 340,
      "size": 1,
      "price": "1011000000000000000000",
      "reserved": "",
      "salt": "0x21db6ae471e30a6577a14d6b73ba1084d02637aad9fce62069255e792ecbdf37",
      "assetIds": []
    },
    {
      "x": 213,
      "y": 341,
      "size": 1,
      "price": "1011000000000000000000",
      "reserved": "",
      "salt": "0xd2bcb65b2ebb745eb90fbadb7752eb2c04e6400202f2d1f925d4e9af0a57d5be",
      "assetIds": []
    },
    {
      "x": 213,
      "y": 342,
      "size": 1,
      "price": "1011000000000000000000",
      "reserved": "",
      "salt": "0x8e38b6568a8b610d0de9ca01ddb8646e768874ac48b919ba6014d79c09c04433",
      "assetIds": []
    },
    {
      "x": 213,
      "y": 343,
      "size": 1,
      "price": "1011000000000000000000",
      "reserved": "",
      "salt": "0x8aa9e156e59603b145e25d76dd5c598c85548fe5423bd6536c7c107aac2633c3",
      "assetIds": []
    },
    {
      "x": 213,
      "y": 344,
      "size": 1,
      "price": "1011000000000000000000",
      "reserved": "",
      "salt": "0xf462e987f19b5a17d476630c3dc86e2c115f4505708e5d24cbaf4adbecfa6ab5",
      "assetIds": []
    },
    {
      "x": 213,
      "y": 345,
      "size": 1,
      "price": "1011000000000000000000",
      "reserved": "",
      "salt": "0xc894403b8665dcef96d118ebcc3b906a47ed04d541fbb668ddc9ba974510f4a4",
      "assetIds": []
    },
    {
      "x": 213,
      "y": 346,
      "size": 1,
      "price": "1011000000000000000000",
      "reserved": "",
      "salt": "0x2d2bab59746bdc6fd918d5a7c5298a850ce7403a29e236c395a1632a77d1ae5e",
      "assetIds": []
    },
    {
      "x": 213,
      "y": 347,
      "size": 1,
      "price": "1011000000000000000000",
      "reserved": "0x7a9fe22691c811ea339d9b73150e6911a5343dca",
      "salt": "0xa3ce5025898d3f74085ac9dc64d977dbe65831190c3d04d37a5ef6961f73e73d",
      "assetIds": []
    },
    {
      "x": 213,
      "y": 348,
      "size": 1,
      "price": "1011000000000000000000",
      "reserved": "",
      "salt": "0x58f75b91ef28f85377ba6f7afcae48b7fabd0dc6fc3d949696b614f485058587",
      "assetIds": []
    },
    {
      "x": 213,
      "y": 349,
      "size": 1,
      "price": "1011000000000000000000",
      "reserved": "",
      "salt": "0x27b40db36abf10e8cc2b4f0d23293cb57d255f6a2b2a5cee0485c2f4d41c0ee5",
      "assetIds": []
    },
    {
      "x": 213,
      "y": 350,
      "size": 1,
      "price": "1011000000000000000000",
      "reserved": "",
      "salt": "0x0baa0aacbbae8a6b18ad35cfc5e26460badbe2822d120c95db7ad15250012f6b",
      "assetIds": []
    },
    {
      "x": 214,
      "y": 336,
      "size": 1,
      "price": "4683000000000000000000",
      "reserved": "",
      "salt": "0x28530d3c4915ed0c1928bfe7b1be84e90486ec7cb76d5e600e7c3f657c8b9636",
      "assetIds": [
        "41506478881403507969696680653240014914910929820314476107906210059990541021186"
      ]
    },
    {
      "x": 214,
      "y": 337,
      "size": 1,
      "price": "1011000000000000000000",
      "reserved": "",
      "salt": "0x7ff9a6323faeaa0f2407d0da1abfee70e0f8bc42c4fb36989962ad761e356715",
      "assetIds": []
    },
    {
      "x": 214,
      "y": 338,
      "size": 1,
      "price": "1011000000000000000000",
      "reserved": "",
      "salt": "0xb654614a0ca7a47814715b4faeefd68383cbfb13b021d929cc7f9dc0732e8bfc",
      "assetIds": []
    },
    {
      "x": 214,
      "y": 339,
      "size": 1,
      "price": "1011000000000000000000",
      "reserved": "0x7a9fe22691c811ea339d9b73150e6911a5343dca",
      "salt": "0xcacfbda16c0bfef6c2ac3fbc37fdfecb6b89d81c16b7e87dd1103826b65acda1",
      "assetIds": []
    },
    {
      "x": 214,
      "y": 340,
      "size": 1,
      "price": "1011000000000000000000",
      "reserved": "",
      "salt": "0x803a487ca905c602386a3c4f9a2dcdeab514a9700beea6474f4a0c17e39bb91d",
      "assetIds": []
    },
    {
      "x": 214,
      "y": 341,
      "size": 1,
      "price": "1011000000000000000000",
      "reserved": "",
      "salt": "0xf4cc7ec1963ed06e45e555a8aec35c5db26d269dcca3344c5b44ead7a6e4493b",
      "assetIds": []
    },
    {
      "x": 214,
      "y": 342,
      "size": 1,
      "price": "1011000000000000000000",
      "reserved": "",
      "salt": "0x92281f6b033e7281d95659c4c4e5125830271706900a6693261ce6ea91dd036c",
      "assetIds": []
    },
    {
      "x": 214,
      "y": 343,
      "size": 1,
      "price": "1011000000000000000000",
      "reserved": "0x7a9fe22691c811ea339d9b73150e6911a5343dca",
      "salt": "0x2c915c983bc41bec1df0d349a146df784af8ed394a495997bc5d4bc96724c490",
      "assetIds": []
    },
    {
      "x": 214,
      "y": 344,
      "size": 1,
      "price": "1011000000000000000000",
      "reserved": "",
      "salt": "0x131c92c3f680740dfcb6af13eafeb61caf6a49d1995337fa229253f5722813ae",
      "assetIds": []
    },
    {
      "x": 214,
      "y": 345,
      "size": 1,
      "price": "1011000000000000000000",
      "reserved": "",
      "salt": "0x48b8df698a3390297775f5b40070c2c1e58bde38f2cb3671f23177424f2c6704",
      "assetIds": []
    },
    {
      "x": 214,
      "y": 346,
      "size": 1,
      "price": "1011000000000000000000",
      "reserved": "",
      "salt": "0x646c59cd0ea92b2c06f01acbfe1dd09993bb3dcfaa225a625239d8bdfb068734",
      "assetIds": []
    },
    {
      "x": 214,
      "y": 347,
      "size": 1,
      "price": "1011000000000000000000",
      "reserved": "",
      "salt": "0x3d00c6dbd624e908c128976baa81d6af3ce33e2f67788fa5330090c9dd433856",
      "assetIds": []
    },
    {
      "x": 214,
      "y": 348,
      "size": 1,
      "price": "1011000000000000000000",
      "reserved": "",
      "salt": "0x47eaf7818cd5a8f51aad49cd0f73f1b23dde362e98e4a35357d196ac75184a4d",
      "assetIds": []
    },
    {
      "x": 214,
      "y": 349,
      "size": 1,
      "price": "1011000000000000000000",
      "reserved": "",
      "salt": "0x4c8a54050c431b7bdaa7f6f275b6a5875b9cd5b7debd6bede2dccdce055c7c47",
      "assetIds": []
    },
    {
      "x": 214,
      "y": 350,
      "size": 1,
      "price": "1011000000000000000000",
      "reserved": "",
      "salt": "0x92573c502b99d887a0d99a462f917135b234da5955f936c4a4537b0d5574fea8",
      "assetIds": []
    },
    {
      "x": 215,
      "y": 336,
      "size": 1,
      "price": "1011000000000000000000",
      "reserved": "",
      "salt": "0x7fc1819c14c287f2adc66d4138b6e4e9775da8565e6de7f3881677e0da92bd97",
      "assetIds": []
    },
    {
      "x": 215,
      "y": 337,
      "size": 1,
      "price": "1011000000000000000000",
      "reserved": "",
      "salt": "0x93590062ea9542d9fa54caaefa5da1bffc538af047d2abb8ba315d36126a7ccd",
      "assetIds": []
    },
    {
      "x": 215,
      "y": 338,
      "size": 1,
      "price": "1011000000000000000000",
      "reserved": "",
      "salt": "0xcab47c1d43569b3b22ee64d321bd71f6fbab0436115a4c46ef12393ab93e5d51",
      "assetIds": []
    },
    {
      "x": 215,
      "y": 339,
      "size": 1,
      "price": "1011000000000000000000",
      "reserved": "",
      "salt": "0x69a1f02a463b3bf2bc6d74f46f525e08ec061952119a42b87c3da9cfd3871b9f",
      "assetIds": []
    },
    {
      "x": 215,
      "y": 340,
      "size": 1,
      "price": "1011000000000000000000",
      "reserved": "",
      "salt": "0xce246ec13bf49bb8c62011e9bcb7dd3c67da5597563baa5eeed5cdcc2067b829",
      "assetIds": []
    },
    {
      "x": 215,
      "y": 341,
      "size": 1,
      "price": "1011000000000000000000",
      "reserved": "",
      "salt": "0xa2d407efff0754037abe003472c5ec6cdfaef8e367d9e4997ff42bb1ed8a53c5",
      "assetIds": []
    },
    {
      "x": 215,
      "y": 342,
      "size": 1,
      "price": "1011000000000000000000",
      "reserved": "",
      "salt": "0x980ba9ba463d5e37fe8a50cf76f8b0810d3df913efbf44544d9bb7812353997d",
      "assetIds": []
    },
    {
      "x": 215,
      "y": 343,
      "size": 1,
      "price": "1011000000000000000000",
      "reserved": "",
      "salt": "0xf176ef9125330352ca7459dae43a51e9134d4d9165953e5deb2025d3c6016a86",
      "assetIds": []
    },
    {
      "x": 215,
      "y": 344,
      "size": 1,
      "price": "1011000000000000000000",
      "reserved": "",
      "salt": "0x014675969915d4b7c006aa173bb90eb616f359c38c7eaba5116cc8b6146f695d",
      "assetIds": []
    },
    {
      "x": 215,
      "y": 345,
      "size": 1,
      "price": "1011000000000000000000",
      "reserved": "",
      "salt": "0x228e1d31bb0a3eb14bbd42bc2ad427ad508d01d98a68dafb8d82f836c1c944a5",
      "assetIds": []
    },
    {
      "x": 215,
      "y": 346,
      "size": 1,
      "price": "1011000000000000000000",
      "reserved": "",
      "salt": "0x419e2d5826e660402b91f3842f5eea4de8c259eb1ee1402ce9765c5d753e8175",
      "assetIds": []
    },
    {
      "x": 215,
      "y": 347,
      "size": 1,
      "price": "1011000000000000000000",
      "reserved": "",
      "salt": "0x09a3d43d8e22577f0f51b734a5993f2d14a5bba41501a02900a5f52da4075172",
      "assetIds": []
    },
    {
      "x": 215,
      "y": 348,
      "size": 1,
      "price": "1011000000000000000000",
      "reserved": "",
      "salt": "0x44ab85f434984cfd46b83d72cb3a1140c862779962d46b9f8348d62bfdf9a1c8",
      "assetIds": []
    },
    {
      "x": 215,
      "y": 349,
      "size": 1,
      "price": "1011000000000000000000",
      "reserved": "",
      "salt": "0xd01c1cc23a41623bd453a099100958d2ddeeb009675c7d31443c2aa13fd6b889",
      "assetIds": []
    },
    {
      "x": 215,
      "y": 350,
      "size": 1,
      "price": "1011000000000000000000",
      "reserved": "",
      "salt": "0xa20657131d6879fd7ed305ba208f170db3fa81922231019c8fbc909b8ab2bceb",
      "assetIds": []
    },
    {
      "x": 216,
      "y": 336,
      "size": 1,
      "price": "1011000000000000000000",
      "reserved": "",
      "salt": "0x94746c31f7a9cf08d6ac492f42d08138bad8fe7336178f3b65a9da6ee082322c",
      "assetIds": []
    },
    {
      "x": 216,
      "y": 337,
      "size": 1,
      "price": "1011000000000000000000",
      "reserved": "",
      "salt": "0xc720e01714c2719eed066e89c77bcbd054c8154baa5625100268589e704f3762",
      "assetIds": []
    },
    {
      "x": 216,
      "y": 338,
      "size": 1,
      "price": "1011000000000000000000",
      "reserved": "",
      "salt": "0xb58d96546ed70ca35e5974074739ca78e4bc415b4613e816200928959a4b4194",
      "assetIds": []
    },
    {
      "x": 216,
      "y": 339,
      "size": 1,
      "price": "1011000000000000000000",
      "reserved": "",
      "salt": "0x011c3c4ec1eb704f45d161cb6f8e9de8e67725b71de1594f06bb4a1a0f26088c",
      "assetIds": []
    },
    {
      "x": 216,
      "y": 340,
      "size": 1,
      "price": "1011000000000000000000",
      "reserved": "0x7a9fe22691c811ea339d9b73150e6911a5343dca",
      "salt": "0xf4e5f87ffe49ebd9ad8bbf8577692e536f4373af9608bfa0b4b80275f0af5b57",
      "assetIds": []
    },
    {
      "x": 216,
      "y": 341,
      "size": 1,
      "price": "1011000000000000000000",
      "reserved": "",
      "salt": "0xbb5921858544033a2a30f225d5e324afae3a90366f082198aaf73a494301479f",
      "assetIds": []
    },
    {
      "x": 216,
      "y": 342,
      "size": 1,
      "price": "1011000000000000000000",
      "reserved": "",
      "salt": "0x5bd80848541b6695aa8314eaaf22e83d01e6964a8b5cf38ad91fdab666f48b6e",
      "assetIds": []
    },
    {
      "x": 216,
      "y": 343,
      "size": 1,
      "price": "1011000000000000000000",
      "reserved": "",
      "salt": "0x727be7849b75c76a61195756dfb5d910431272a25066139ffeb2158b76daea99",
      "assetIds": []
    },
    {
      "x": 216,
      "y": 344,
      "size": 1,
      "price": "1011000000000000000000",
      "reserved": "",
      "salt": "0x89029f5fe8baba9e9db79bece3b5df4d3d16db660c155e02f2085f7092c2db90",
      "assetIds": []
    },
    {
      "x": 216,
      "y": 345,
      "size": 1,
      "price": "1011000000000000000000",
      "reserved": "",
      "salt": "0x151d7cbbb9709c16404d69fd9cd73c06ad3e605286b2ca288ea56f7267c3d9e7",
      "assetIds": []
    },
    {
      "x": 216,
      "y": 346,
      "size": 1,
      "price": "1011000000000000000000",
      "reserved": "",
      "salt": "0xb73970ecdcc8a5aa871ca3e573c4f21765a66f42cf4c4a2e4c6e86f9b2d86662",
      "assetIds": []
    },
    {
      "x": 216,
      "y": 347,
      "size": 1,
      "price": "1011000000000000000000",
      "reserved": "",
      "salt": "0x866d8906889fa21fbd7db6eae152ca5918f26ead30092308c51825289f2298a8",
      "assetIds": []
    },
    {
      "x": 216,
      "y": 348,
      "size": 1,
      "price": "1011000000000000000000",
      "reserved": "",
      "salt": "0xf3a761c1077e3be952a9d37c77bb824c8348b819288845173563ae47e7c3d6de",
      "assetIds": []
    },
    {
      "x": 216,
      "y": 349,
      "size": 1,
      "price": "1011000000000000000000",
      "reserved": "",
      "salt": "0x040029c5ec2f636dbe0a2aa9bf10cf1e86f0c2351c9db1897123bd600a8d1014",
      "assetIds": []
    },
    {
      "x": 216,
      "y": 350,
      "size": 1,
      "price": "1011000000000000000000",
      "reserved": "",
      "salt": "0x2cda291042af029ac8dfc71f2df725f8ff36aea6bf51cf833673716c3d5ec0a3",
      "assetIds": []
    },
    {
      "x": 217,
      "y": 336,
      "size": 1,
      "price": "1011000000000000000000",
      "reserved": "",
      "salt": "0x1a853a26c79f58dc1706335fb92315014ace32550a8f00dc76b2e46448a18a4d",
      "assetIds": []
    },
    {
      "x": 217,
      "y": 337,
      "size": 1,
      "price": "1011000000000000000000",
      "reserved": "",
      "salt": "0x4f9ec04c0f11e6ffc4a17bc0dbc3294188dd5290dadb9ae2b6b2818c9c1fc62c",
      "assetIds": []
    },
    {
      "x": 217,
      "y": 338,
      "size": 1,
      "price": "1011000000000000000000",
      "reserved": "0x7a9fe22691c811ea339d9b73150e6911a5343dca",
      "salt": "0xca1ff408ba6d4a4a0624586898ed12b0c10ed7c09b71528e7df6b473ad39c880",
      "assetIds": []
    },
    {
      "x": 217,
      "y": 339,
      "size": 1,
      "price": "1011000000000000000000",
      "reserved": "",
      "salt": "0x9dd1e81f14984faa54dc4f2d55e651cc80b2e5973d5ed092fbec90055c677e89",
      "assetIds": []
    },
    {
      "x": 217,
      "y": 340,
      "size": 1,
      "price": "1011000000000000000000",
      "reserved": "",
      "salt": "0x82a84e675692ee3f794e587a388710adff21d45e696792637804eb88ee39ae4f",
      "assetIds": []
    },
    {
      "x": 217,
      "y": 341,
      "size": 1,
      "price": "1011000000000000000000",
      "reserved": "",
      "salt": "0x2e79702ada9b9b42a29bff5fed34902977faab9cea7e1d72965479c2ccbee893",
      "assetIds": []
    },
    {
      "x": 217,
      "y": 342,
      "size": 1,
      "price": "1011000000000000000000",
      "reserved": "",
      "salt": "0x32d8a83bd5369fd79f1ac98496b6b80e88ad455da7b1712e280c069b171541ab",
      "assetIds": []
    },
    {
      "x": 217,
      "y": 343,
      "size": 1,
      "price": "1011000000000000000000",
      "reserved": "",
      "salt": "0x4fedfdf931ceab4786695f8ca1f2be3d7b4fc9089b0a6552aad6cabd602c4183",
      "assetIds": []
    },
    {
      "x": 217,
      "y": 344,
      "size": 1,
      "price": "1011000000000000000000",
      "reserved": "",
      "salt": "0x5598d79fa186aa269030f4a806d3264f4a04de4d32e117f64f743c653e5ea358",
      "assetIds": []
    },
    {
      "x": 217,
      "y": 345,
      "size": 1,
      "price": "1011000000000000000000",
      "reserved": "",
      "salt": "0x967e227b5efa9f425345c1ce12c6527372f6191bdb7f15989506dd288cb8a88b",
      "assetIds": []
    },
    {
      "x": 217,
      "y": 346,
      "size": 1,
      "price": "1011000000000000000000",
      "reserved": "",
      "salt": "0x47d9a296d9f20078eaffa22942f33652073300cbd77efae693ebc0ebeedd36b0",
      "assetIds": []
    },
    {
      "x": 217,
      "y": 347,
      "size": 1,
      "price": "1011000000000000000000",
      "reserved": "",
      "salt": "0xb44c2eeaf053a82080ab98843fc875403d62e1f2732ba24e3001a59de3c66f15",
      "assetIds": []
    },
    {
      "x": 217,
      "y": 348,
      "size": 1,
      "price": "1011000000000000000000",
      "reserved": "",
      "salt": "0xa66dacc2b5720526c24d32c24e063410dba45cff829d5d3412aa79d6bcd97508",
      "assetIds": []
    },
    {
      "x": 217,
      "y": 349,
      "size": 1,
      "price": "1011000000000000000000",
      "reserved": "",
      "salt": "0xf8696af88b68dd2c04e947f98ccd6fb008d1959e856d5288abaa7591a1d0d8e6",
      "assetIds": []
    },
    {
      "x": 218,
      "y": 336,
      "size": 1,
      "price": "1011000000000000000000",
      "reserved": "",
      "salt": "0x9362e10c635657d0407d30e38fba70cd319c05e08640d1cb58c5e9a6281f9f88",
      "assetIds": []
    },
    {
      "x": 218,
      "y": 337,
      "size": 1,
      "price": "1011000000000000000000",
      "reserved": "",
      "salt": "0xba23c91f5b6e1fb6ef582ca749619983b2000eecee540b89db0febb08af40b9e",
      "assetIds": []
    },
    {
      "x": 218,
      "y": 338,
      "size": 1,
      "price": "1011000000000000000000",
      "reserved": "",
      "salt": "0x1925189adb3ad6a726b5f24210c407c639410e6b806f4122907b7822ccd95a1a",
      "assetIds": []
    },
    {
      "x": 218,
      "y": 339,
      "size": 1,
      "price": "1011000000000000000000",
      "reserved": "",
      "salt": "0x7bb6a9586b8542d2adf9233dedb3abf72493e3890da195c1ba786cf943ca7114",
      "assetIds": []
    },
    {
      "x": 218,
      "y": 340,
      "size": 1,
      "price": "1011000000000000000000",
      "reserved": "",
      "salt": "0x559e6829fa6fb355f322ed7a112d672fd8966a9603c5ad311259cdb0cf30645b",
      "assetIds": []
    },
    {
      "x": 218,
      "y": 341,
      "size": 1,
      "price": "1011000000000000000000",
      "reserved": "",
      "salt": "0x7c9a722dc6234634f2cdc08d7732cb3285ba72f11a0be163606a30532355a38e",
      "assetIds": []
    },
    {
      "x": 218,
      "y": 342,
      "size": 1,
      "price": "1011000000000000000000",
      "reserved": "",
      "salt": "0x55b03344f52cac1cdc4eccb77f402946969b992d7a1b38d6c26508669b8bfff5",
      "assetIds": []
    },
    {
      "x": 218,
      "y": 343,
      "size": 1,
      "price": "1011000000000000000000",
      "reserved": "0x7a9fe22691c811ea339d9b73150e6911a5343dca",
      "salt": "0x3ddec11b6876b9c53466eef6833a1ffc4821cc4f0d770d5143ec9e24d0ef882a",
      "assetIds": []
    },
    {
      "x": 218,
      "y": 344,
      "size": 1,
      "price": "1011000000000000000000",
      "reserved": "",
      "salt": "0x8e67e881a46a57f2bdbceda3b79cc5f3841b613acced2ae09ab0c42425a4d38d",
      "assetIds": []
    },
    {
      "x": 218,
      "y": 345,
      "size": 1,
      "price": "1011000000000000000000",
      "reserved": "",
      "salt": "0x3e0cb524b49713934d0a37e472ddfcdb43aec1d45970866add7d551b9ff2254b",
      "assetIds": []
    },
    {
      "x": 218,
      "y": 346,
      "size": 1,
      "price": "1011000000000000000000",
      "reserved": "",
      "salt": "0x91cc582fdc9fb395141c66ffd0a098308085eeb3c22df87f6cf82ee438ffbbf9",
      "assetIds": []
    },
    {
      "x": 218,
      "y": 347,
      "size": 1,
      "price": "1011000000000000000000",
      "reserved": "",
      "salt": "0x59556b7f9a52936d864551841ab7ddd0dfbbdc2e53899577d41717b6b2372ef6",
      "assetIds": []
    },
    {
      "x": 218,
      "y": 348,
      "size": 1,
      "price": "1011000000000000000000",
      "reserved": "",
      "salt": "0x5af8a1f72e3732a3393cd375887e947dd24f10cb2f814520e45bbc9a96470d78",
      "assetIds": []
    },
    {
      "x": 180,
      "y": 318,
      "size": 3,
      "price": "8648000000000000000000",
      "reserved": "0x7a9fe22691c811ea339d9b73150e6911a5343dca",
      "salt": "0x62c57e3a3cd59fc06f3f433183e752acbd38ba06438d857fe7dad4cfb8e10dff",
      "assetIds": []
    },
    {
      "x": 189,
      "y": 318,
      "size": 3,
      "price": "8648000000000000000000",
      "reserved": "0x7a9fe22691c811ea339d9b73150e6911a5343dca",
      "salt": "0x450530ac564b41ef120336caddac86e3aa6b88ad3c9ab19c3386e6cd9c691352",
      "assetIds": []
    },
    {
      "x": 189,
      "y": 321,
      "size": 3,
      "price": "8648000000000000000000",
      "reserved": "0x7a9fe22691c811ea339d9b73150e6911a5343dca",
      "salt": "0xc1e66d44a2800a672f19b86d31b27ea3ebb4f064cec7ec93e342f573e363ffc2",
      "assetIds": []
    },
    {
      "x": 201,
      "y": 342,
      "size": 3,
      "price": "8648000000000000000000",
      "reserved": "0x7a9fe22691c811ea339d9b73150e6911a5343dca",
      "salt": "0xf1c6d6784d2d201c4a059c8de60398f60da75550d2bde8fc687153dd5ae3f813",
      "assetIds": []
    },
    {
      "x": 180,
      "y": 312,
      "size": 6,
      "price": "32772000000000000000000",
      "reserved": "0x7a9fe22691c811ea339d9b73150e6911a5343dca",
      "salt": "0x923939b61568b2e0477f8e952a205ee2fdf143b65feba3a47b3d740e69defe34",
      "assetIds": []
    },
    {
      "x": 186,
      "y": 312,
      "size": 6,
      "price": "32772000000000000000000",
      "reserved": "0x7a9fe22691c811ea339d9b73150e6911a5343dca",
      "salt": "0xa04168faa8acb93731c80e362aef2a20c0fe30bda6a6bf25501c2c8271114c3f",
      "assetIds": []
    },
    {
      "x": 204,
      "y": 342,
      "size": 6,
      "price": "32772000000000000000000",
      "reserved": "0x7a9fe22691c811ea339d9b73150e6911a5343dca",
      "salt": "0x23e00901bad4b3d4f4efc7a3abfa9269d3b4294046e28587a3128541305f5458",
      "assetIds": []
    },
    {
      "x": 192,
      "y": 312,
      "size": 24,
      "price": "466102000000000000000000",
      "reserved": "0x7a9fe22691c811ea339d9b73150e6911a5343dca",
      "salt": "0x27b5dc47829691948559128e2f636b06f59e5a4cddf20bf0e09b912f600ba8c3",
      "assetIds": []
    }
  ],
  "solcInputHash": "313f455adab9ae93096e43acc50d7d38",
  "bytecode": "0x610160604052620d2f006005556103e860075534801561001e57600080fd5b5060405161242e38038061242e833981810160405261018081101561004257600080fd5b50805160208201516040830151606080850151608086015160a08088015160c0808a015160e08b01516101008c01516101208d01516101408e0151610160909e0151600280546001600160a01b0319166001600160a01b03861617905560038390558d8b1b6001600160601b0319908116909852998c901b909616909352999a9899979895979496929590949391926100dc8a600161014a565b600680546001600160a01b03199081166001600160a01b039a8b1617909155610140979097526101209590955260008054909616979096169690961790935550606093841b6001600160601b031990811660e05292841b831660805290921b1661010052506101ae92505050565b6001600160a01b038216600081815260016020908152604091829020805460ff191685151590811790915582519384529083015280517fb21eb88b4e33b3f1281830a7178d74d8aa73220416215726b68ae23d539515cb9281900390910190a15050565b60805160601c60a05160601c60c05160601c60e05160601c6101005160601c61012051610140516121fb610233600039806109375280611d44525080610913528061139a525080611da45250806115d252806116f4525080610c50528061159c5280611dd852508061166152806116c5525080610dfa528061190852506121fb6000f3fe608060405234801561001057600080fd5b50600436106101515760003560e01c8063984d6252116100cd578063dc5074af11610081578063ecb255b511610066578063ecb255b514610857578063f23a6e6114610874578063f2e7b3811461090957610151565b8063dc5074af14610814578063e56f8a9e1461083a57610151565b8063bc197c81116100b2578063bc197c81146105d3578063c10a420814610735578063caed35001461080c57610151565b8063984d6252146104db578063b522ecff146105ad57610151565b80636e9960c3116101245780638a04af6a116101095780638a04af6a1461032a5780638a12b82f146103585780638f283970146104b557610151565b80636e9960c3146102fe57806377f1c3ac1461032257610151565b806325cb5bc014610156578063495906571461017057806358bc29441461017857806365194ce7146101a0575b600080fd5b61015e610911565b60408051918252519081900360200190f35b61015e610935565b61019e6004803603602081101561018e57600080fd5b50356001600160a01b0316610959565b005b610246600480360360208110156101b657600080fd5b8101906020810181356401000000008111156101d157600080fd5b8201836020820111156101e357600080fd5b8035906020019184600183028401116401000000008311171561020557600080fd5b91908080601f016020809104026020016040519081016040528093929190818152602001838380828437600092019190915250929550610a04945050505050565b6040518080602001866001600160a01b03166001600160a01b03168152602001856001600160a01b03166001600160a01b03168152602001848152602001838152602001828103825287818151815260200191508051906020019080838360005b838110156102bf5781810151838201526020016102a7565b50505050905090810190601f1680156102ec5780820380516001836020036101000a031916815260200191505b50965050505050505060405180910390f35b610306610b09565b604080516001600160a01b039092168252519081900360200190f35b61015e610b18565b61019e6004803603604081101561034057600080fd5b506001600160a01b0381351690602001351515610b1e565b61019e600480360361018081101561036f57600080fd5b6001600160a01b038235811692602081013582169260408201359092169160608201359160808101359160a08201359160c08101359160e0820135916101008101359181019061014081016101208201356401000000008111156103d257600080fd5b8201836020820111156103e457600080fd5b8035906020019184602083028401116401000000008311171561040657600080fd5b91939092909160208101903564010000000081111561042457600080fd5b82018360208201111561043657600080fd5b8035906020019184602083028401116401000000008311171561045857600080fd5b91939092909160208101903564010000000081111561047657600080fd5b82018360208201111561048857600080fd5b803590602001918460018302840111640100000000831117156104aa57600080fd5b509092509050610b75565b61019e600480360360208110156104cb57600080fd5b50356001600160a01b0316610cc3565b61019e600480360360608110156104f157600080fd5b6001600160a01b03823516919081019060408101602082013564010000000081111561051c57600080fd5b82018360208201111561052e57600080fd5b8035906020019184602083028401116401000000008311171561055057600080fd5b91939092909160208101903564010000000081111561056e57600080fd5b82018360208201111561058057600080fd5b803590602001918460208302840111640100000000831117156105a257600080fd5b509092509050610d99565b61019e600480360360208110156105c357600080fd5b50356001600160a01b0316610f24565b610700600480360360a08110156105e957600080fd5b6001600160a01b03823581169260208101359091169181019060608101604082013564010000000081111561061d57600080fd5b82018360208201111561062f57600080fd5b8035906020019184602083028401116401000000008311171561065157600080fd5b91939092909160208101903564010000000081111561066f57600080fd5b82018360208201111561068157600080fd5b803590602001918460208302840111640100000000831117156106a357600080fd5b9193909290916020810190356401000000008111156106c157600080fd5b8201836020820111156106d357600080fd5b803590602001918460018302840111640100000000831117156106f557600080fd5b50909250905061100d565b604080517fffffffff000000000000000000000000000000000000000000000000000000009092168252519081900360200190f35b6107f8600480360360a081101561074b57600080fd5b81019060208101813564010000000081111561076657600080fd5b82018360208201111561077857600080fd5b8035906020019184600183028401116401000000008311171561079a57600080fd5b91908080601f016020809104026020016040519081016040528093929190818152602001838380828437600092019190915250929550506001600160a01b03833581169450602084013516926040810135925060600135905061103a565b604080519115158252519081900360200190f35b610306611176565b6107f86004803603602081101561082a57600080fd5b50356001600160a01b0316611185565b61019e6004803603602081101561085057600080fd5b50356111a3565b61019e6004803603602081101561086d57600080fd5b5035611207565b610700600480360360a081101561088a57600080fd5b6001600160a01b03823581169260208101359091169160408201359160608101359181019060a0810160808201356401000000008111156108ca57600080fd5b8201836020820111156108dc57600080fd5b803590602001918460018302840111640100000000831117156108fe57600080fd5b50909250905061126b565b61015e611296565b7f000000000000000000000000000000000000000000000000000000000000000090565b7f000000000000000000000000000000000000000000000000000000000000000090565b6000546001600160a01b031633146109b8576040805162461bcd60e51b815260206004820152601060248201527f53656e646572206e6f742061646d696e00000000000000000000000000000000604482015290519081900360640190fd5b600554600280546001600160a01b03908116600090815260046020526040902042909301909255805473ffffffffffffffffffffffffffffffffffffffff191692909116919091179055565b606060008060008060606000806000808a80602001905160a0811015610a2957600080fd5b8101908080516040519392919084640100000000821115610a4957600080fd5b908301906020820185811115610a5e57600080fd5b8251640100000000811182820188101715610a7857600080fd5b82525081516020918201929091019080838360005b83811015610aa5578181015183820152602001610a8d565b50505050905090810190601f168015610ad25780820380516001836020036101000a031916815260200191505b5060409081526020820151908201516060830151608090930151959f50909d509b5099509197505050505050505091939590929450565b6000546001600160a01b031690565b60035490565b6000546001600160a01b03163314610b675760405162461bcd60e51b815260040180806020018281038252602e815260200180612198602e913960400191505060405180910390fd5b610b71828261129c565b5050565b610b7f898961131e565b610c048f8e8e8e8e8e8d8d8d80806020026020016040519081016040528093929190818152602001838360200280828437600081840152601f19601f820116905080830192505050505050508c8c8080602002602001604051908101604052809392919081815260200183836020028082843760009201919091525061139892505050565b610c458f8984848080601f01602080910402602001604051908101604052809392919081815260200183838082843760009201919091525061157592505050565b610c758f8f8e8e8e8d7f00000000000000000000000000000000000000000000000000000000000000008f6115c6565b610cb28e87878080602002602001604051908101604052809392919081815260200183836020028082843760009201919091525061189192505050565b505050505050505050505050505050565b6000546001600160a01b03163314610d22576040805162461bcd60e51b815260206004820152601b60248201527f6f6e6c792061646d696e2063616e206368616e67652061646d696e0000000000604482015290519081900360640190fd5b600054604080516001600160a01b039283168152918316602083015280517f7e644d79422f17c01e4894b5f4f588d331ebfa28653d42ae832dc59e38c9798f9281900390910190a16000805473ffffffffffffffffffffffffffffffffffffffff19166001600160a01b0392909216919091179055565b6000546001600160a01b03163314610df8576040805162461bcd60e51b815260206004820152600e60248201527f4e4f545f415554484f52495a4544000000000000000000000000000000000000604482015290519081900360640190fd5b7f00000000000000000000000000000000000000000000000000000000000000006001600160a01b0316632eb2c2d63087878787876040518763ffffffff1660e01b815260040180876001600160a01b03166001600160a01b03168152602001866001600160a01b03166001600160a01b031681526020018060200180602001806020018481038452888882818152602001925060200280828437600083820152601f01601f19169091018581038452868152602090810191508790870280828437600081840152601f19601f8201169050808301925050508481038252600081526020016020019950505050505050505050600060405180830381600087803b158015610f0557600080fd5b505af1158015610f19573d6000803e3d6000fd5b505050505050505050565b6001600160a01b038116610f7f576040805162461bcd60e51b815260206004820152600c60248201527f5a45524f5f414444524553530000000000000000000000000000000000000000604482015290519081900360640190fd5b6000546001600160a01b03163314610fde576040805162461bcd60e51b815260206004820152600e60248201527f4e4f545f415554484f52495a4544000000000000000000000000000000000000604482015290519081900360640190fd5b6006805473ffffffffffffffffffffffffffffffffffffffff19166001600160a01b0392909216919091179055565b7fbc197c810000000000000000000000000000000000000000000000000000000098975050505050505050565b600060035482118061105d5750836001600160a01b0316856001600160a01b0316145b8061106757508242115b156110745750600061116d565b60408051606087811b7fffffffffffffffffffffffffffffffffffffffff0000000000000000000000009081166020808501919091529188901b166034830152604882018690526068808301869052835180840390910181526088830184528051908201207f19457468657265756d205369676e6564204d6573736167653a0a33320000000060a884015260c48084018290528451808503909101815260e4909301909352815191012060009061112b9089611a55565b6001600160a01b03811660009081526004602052604090205490915042116111585760019250505061116d565b6002546001600160a01b039081169116149150505b95945050505050565b6002546001600160a01b031690565b6001600160a01b031660009081526001602052604090205460ff1690565b6000546001600160a01b03163314611202576040805162461bcd60e51b815260206004820152601060248201527f53656e646572206e6f742061646d696e00000000000000000000000000000000604482015290519081900360640190fd5b600355565b6000546001600160a01b03163314611266576040805162461bcd60e51b815260206004820152600e60248201527f4e4f545f415554484f52495a4544000000000000000000000000000000000000604482015290519081900360640190fd5b600755565b7ff23a6e61000000000000000000000000000000000000000000000000000000009695505050505050565b60075490565b6001600160a01b03821660008181526001602090815260409182902080547fffffffffffffffffffffffffffffffffffffffffffffffffffffffffffffff001685151590811790915582519384529083015280517fb21eb88b4e33b3f1281830a7178d74d8aa73220416215726b68ae23d539515cb9281900390910190a15050565b6113456103e861133960075485611b2290919063ffffffff16565b9063ffffffff611b9816565b8114610b71576040805162461bcd60e51b815260206004820152600d60248201527f494e56414c49445f505249434500000000000000000000000000000000000000604482015290519081900360640190fd5b7f0000000000000000000000000000000000000000000000000000000000000000421061140c576040805162461bcd60e51b815260206004820152600c60248201527f53414c455f49535f4f5645520000000000000000000000000000000000000000604482015290519081900360640190fd5b6001600160a01b03891633148061143257503360009081526001602052604090205460ff165b611483576040805162461bcd60e51b815260206004820152600e60248201527f4e4f545f415554484f52495a4544000000000000000000000000000000000000604482015290519081900360640190fd5b6001600160a01b03881615806114aa5750886001600160a01b0316886001600160a01b0316145b6114fb576040805162461bcd60e51b815260206004820152600d60248201527f52455345525645445f4c414e4400000000000000000000000000000000000000604482015290519081900360640190fd5b600061150c888888888d8989611bfd565b90506115188282611ca2565b611569576040805162461bcd60e51b815260206004820152600c60248201527f494e56414c49445f4c414e440000000000000000000000000000000000000000604482015290519081900360640190fd5b50505050505050505050565b60006115818484611d6b565b6006549091506115c0908590839085906001600160a01b03167f0000000000000000000000000000000000000000000000000000000000000000611eb8565b50505050565b83600114806115fc57507f00000000000000000000000000000000000000000000000000000000000000006001600160a01b0316155b156116c357604080517f6e1e3bbf0000000000000000000000000000000000000000000000000000000081526001600160a01b03898116600483015260248201879052604482018990526064820188905260a06084830152600060a4830181905292517f000000000000000000000000000000000000000000000000000000000000000090911692636e1e3bbf9260e4808201939182900301818387803b1580156116a657600080fd5b505af11580156116ba573d6000803e3d6000fd5b50505050611827565b7f00000000000000000000000000000000000000000000000000000000000000006001600160a01b0316636e1e3bbf7f00000000000000000000000000000000000000000000000000000000000000008689898c60405160200180826001600160a01b03166001600160a01b031681526020019150506040516020818303038152906040526040518663ffffffff1660e01b815260040180866001600160a01b03166001600160a01b0316815260200185815260200184815260200183815260200180602001828103825283818151815260200191508051906020019080838360005b838110156117be5781810151838201526020016117a6565b50505050905090810190601f1680156117eb5780820380516001836020036101000a031916815260200191505b509650505050505050600060405180830381600087803b15801561180e57600080fd5b505af1158015611822573d6000803e3d6000fd5b505050505b60408051858152602081018590526001600160a01b03848116828401526060820184905291516101988802890192808b1692908c16917fe4dfa6ac11314892f3029b34a25b1a887da3b1cab2bbf8506d87128ba6e3ac029181900360800190a45050505050505050565b6060815167ffffffffffffffff811180156118ab57600080fd5b506040519080825280602002602001820160405280156118d5578160200160208202803683370190505b50905060005b82518110156119055760018282815181106118f257fe5b60209081029190910101526001016118db565b507f00000000000000000000000000000000000000000000000000000000000000006001600160a01b0316632eb2c2d6308585856040518563ffffffff1660e01b815260040180856001600160a01b03166001600160a01b03168152602001846001600160a01b03166001600160a01b03168152602001806020018060200180602001848103845286818151815260200191508051906020019060200280838360005b838110156119c05781810151838201526020016119a8565b50505050905001848103835285818151815260200191508051906020019060200280838360005b838110156119ff5781810151838201526020016119e7565b50505050905001848103825260008152602001602001975050505050505050600060405180830381600087803b158015611a3857600080fd5b505af1158015611a4c573d6000803e3d6000fd5b50505050505050565b60008151604114611a6557600080fd5b60208201516040830151606084015160001a601b811015611a8457601b015b8060ff16601b1480611a9957508060ff16601c145b611aa257600080fd5b6040805160008152602080820180845289905260ff8416828401526060820186905260808201859052915160019260a0808401939192601f1981019281900390910190855afa158015611af9573d6000803e3d6000fd5b5050604051601f1901519450506001600160a01b038416611b1957600080fd5b50505092915050565b600082611b3157506000611b92565b5081810281838281611b3f57fe5b0414611b92576040805162461bcd60e51b815260206004820152600860248201527f6f766572666c6f77000000000000000000000000000000000000000000000000604482015290519081900360640190fd5b92915050565b600081611bec576040805162461bcd60e51b815260206004820152600960248201527f64697662797a65726f0000000000000000000000000000000000000000000000604482015290519081900360640190fd5b818381611bf557fe5b049392505050565b60008787878787878760405160200180888152602001878152602001868152602001858152602001846001600160a01b03166001600160a01b031660601b8152601401838152602001828051906020019060200280838360005b83811015611c6f578181015183820152602001611c57565b50505050905001975050505050505050604051602081830303815290604052805190602001209050979650505050505050565b600081815b8451811015611d41576000858281518110611cbe57fe5b6020026020010151905080831015611d065782816040516020018083815260200182815260200192505050604051602081830303815290604052805190602001209250611d38565b808360405160200180838152602001828152602001925050506040516020818303038152906040528051906020012092505b50600101611ca7565b507f0000000000000000000000000000000000000000000000000000000000000000149392505050565b600080611d84606461133985600563ffffffff611b2216565b604080516323b872dd60e01b81526001600160a01b0387811660048301527f0000000000000000000000000000000000000000000000000000000000000000811660248301526044820184905291519293507f0000000000000000000000000000000000000000000000000000000000000000909116916323b872dd916064808201926020929091908290030181600087803b158015611e2357600080fd5b505af1158015611e37573d6000803e3d6000fd5b505050506040513d6020811015611e4d57600080fd5b5051611ea0576040805162461bcd60e51b815260206004820152601360248201527f4645455f5452414e534645525f4641494c454400000000000000000000000000604482015290519081900360640190fd5b611eb0838263ffffffff61213a16565b949350505050565b82518190859015612062576060600080600080611ed48a610a04565b9398509196509450925090506000611eef868686868661103a565b15611f7d57611f09611f018d84611b22565b612710611b98565b9050886001600160a01b0316846001600160a01b0316866001600160a01b03167fac7a699eb95c3c6d390ec4626de17ef9a67b35891efdb197beba7c7fdd45fac48f858760405180848152602001838152602001828152602001935050505060405180910390a4611f7a878261213a565b96505b801561205b57604080516323b872dd60e01b81526001600160a01b038f811660048301528781166024830152604482018490529151918a16916323b872dd916064808201926020929091908290030181600087803b158015611fde57600080fd5b505af1158015611ff2573d6000803e3d6000fd5b505050506040513d602081101561200857600080fd5b505161205b576040805162461bcd60e51b815260206004820152601960248201527f636f6d6d6973696f6e207472616e73666572206661696c656400000000000000604482015290519081900360640190fd5b5050505050505b604080516323b872dd60e01b81526001600160a01b0389811660048301528681166024830152604482018490529151918416916323b872dd916064808201926020929091908290030181600087803b1580156120bd57600080fd5b505af11580156120d1573d6000803e3d6000fd5b505050506040513d60208110156120e757600080fd5b5051611a4c576040805162461bcd60e51b815260206004820152601760248201527f7061796d656e74207472616e73666572206661696c6564000000000000000000604482015290519081900360640190fd5b600082821115612191576040805162461bcd60e51b815260206004820152600860248201527f756e6465666c6f77000000000000000000000000000000000000000000000000604482015290519081900360640190fd5b5090039056fe6f6e6c792061646d696e2063616e207365747570206d6574615472616e73616374696f6e50726f636573736f7273a26469706673582212200ff38c5741c66b2a22a9a9ee2abe0f55626323082b6b4443921fd3b25484584a64736f6c63430006050033",
  "devdoc": {
    "methods": {
      "buyLandWithSand(address,address,address,uint256,uint256,uint256,uint256,uint256,bytes32,uint256[],bytes32[],bytes)": {
        "params": {
          "buyer": "address that perform the payment",
          "priceInSand": "price in SAND to purchase that Land",
          "proof": "merkleProof for that particular Land",
          "reserved": "the reserved address (if any)",
          "size": "size of the pack of Land to purchase",
          "to": "address that will own the purchased Land",
          "x": "x coordinate of the Land",
          "y": "y coordinate of the Land"
        }
      },
      "changeAdmin(address)": {
        "details": "change the administrator to be `newAdmin`.",
        "params": {
          "newAdmin": "address of the new administrator."
        }
      },
      "getAdmin()": {
        "details": "gives the current administrator of this contract.",
        "returns": {
          "_0": "the current administrator of this contract."
        }
      },
      "getSigningWallet()": {
        "details": "signing wallet authorized for referral",
        "returns": {
          "_0": "the address of the signing wallet"
        }
      },
      "isMetaTransactionProcessor(address)": {
        "details": "check whether address `who` is given meta-transaction execution rights.",
        "params": {
          "who": "The address to query."
        },
        "returns": {
          "_0": "whether the address has meta-transaction execution rights."
        }
      },
      "isReferralValid(bytes,address,address,uint256,uint256)": {
        "params": {
          "commissionRate": "The commissionRate of the referral",
          "expiryTime": "The expiry time of the referral",
          "referee": "The address of the referee",
          "referrer": "The address of the referrer",
          "signature": "The signature to check (signed referral)"
        },
        "returns": {
          "_0": "True if the referral is valid"
        }
      },
      "setMetaTransactionProcessor(address,bool)": {
        "details": "Enable or disable the ability of `metaTransactionProcessor` to perform meta-tx (metaTransactionProcessor rights).",
        "params": {
          "enabled": "set whether the metaTransactionProcessor is enabled or disabled.",
          "metaTransactionProcessor": "address that will be given/removed metaTransactionProcessor rights."
        }
      },
      "setReceivingWallet(address)": {
        "params": {
          "newWallet": "address of the new receiving wallet"
        }
      },
      "updateMaxCommissionRate(uint256)": {
        "details": "Update the maximum commission rate",
        "params": {
          "newMaxCommissionRate": "The new maximum commission rate"
        }
      },
      "updateSigningWallet(address)": {
        "details": "Update the signing wallet",
        "params": {
          "newSigningWallet": "The new address of the signing wallet"
        }
      },
      "withdrawAssets(address,uint256[],uint256[])": {
        "params": {
          "assetIds": "the assetIds to be transferred",
          "to": "intended recipient of the asset tokens",
          "values": "the quantities of the assetIds to be transferred"
        }
      }
    },
    "title": "Estate Sale contract with referral"
  },
  "userdoc": {
    "methods": {
      "buyLandWithSand(address,address,address,uint256,uint256,uint256,uint256,uint256,bytes32,uint256[],bytes32[],bytes)": {
        "notice": "buy Land with SAND using the merkle proof associated with it"
      },
      "getExpiryTime()": {
        "notice": "Gets the expiry time for the current sale"
      },
      "getMaxCommisionRate()": {
        "notice": "the max commision rate"
      },
      "getMerkleRoot()": {
        "notice": "Gets the Merkle root associated with the current sale"
      },
      "isReferralValid(bytes,address,address,uint256,uint256)": {
        "notice": "Check if a referral is valid"
      },
      "setReceivingWallet(address)": {
        "notice": "set the wallet receiving the proceeds"
      },
      "withdrawAssets(address,uint256[],uint256[])": {
        "notice": "enable Admin to withdraw remaining assets from EstateSaleWithFee contract"
      }
    },
    "notice": "This contract manages the sale of our lands as Estates"
  },
  "storageLayout": {
    "storage": [
      {
        "astId": 12779,
        "contract": "src/solc_0.6/EstateSale/EstateSaleWithFee.sol:EstateSaleWithFee",
        "label": "_admin",
        "offset": 0,
        "slot": "0",
        "type": "t_address"
      },
      {
        "astId": 12841,
        "contract": "src/solc_0.6/EstateSale/EstateSaleWithFee.sol:EstateSaleWithFee",
        "label": "_metaTransactionContracts",
        "offset": 0,
        "slot": "1",
        "type": "t_mapping(t_address,t_bool)"
      },
      {
        "astId": 10957,
        "contract": "src/solc_0.6/EstateSale/EstateSaleWithFee.sol:EstateSaleWithFee",
        "label": "_signingWallet",
        "offset": 0,
        "slot": "2",
        "type": "t_address"
      },
      {
        "astId": 10959,
        "contract": "src/solc_0.6/EstateSale/EstateSaleWithFee.sol:EstateSaleWithFee",
        "label": "_maxCommissionRate",
        "offset": 0,
        "slot": "3",
        "type": "t_uint256"
      },
      {
        "astId": 10963,
        "contract": "src/solc_0.6/EstateSale/EstateSaleWithFee.sol:EstateSaleWithFee",
        "label": "_previousSigningWallets",
        "offset": 0,
        "slot": "4",
        "type": "t_mapping(t_address,t_uint256)"
      },
      {
        "astId": 10972,
        "contract": "src/solc_0.6/EstateSale/EstateSaleWithFee.sol:EstateSaleWithFee",
        "label": "_previousSigningDelay",
        "offset": 0,
        "slot": "5",
        "type": "t_uint256"
      },
      {
        "astId": 7344,
        "contract": "src/solc_0.6/EstateSale/EstateSaleWithFee.sol:EstateSaleWithFee",
        "label": "_wallet",
        "offset": 0,
        "slot": "6",
        "type": "t_address_payable"
      },
      {
        "astId": 7354,
        "contract": "src/solc_0.6/EstateSale/EstateSaleWithFee.sol:EstateSaleWithFee",
        "label": "_multiplier",
        "offset": 0,
        "slot": "7",
        "type": "t_uint256"
      }
    ],
    "types": {
      "t_address": {
        "encoding": "inplace",
        "label": "address",
        "numberOfBytes": "20"
      },
      "t_address_payable": {
        "encoding": "inplace",
        "label": "address payable",
        "numberOfBytes": "20"
      },
      "t_bool": {
        "encoding": "inplace",
        "label": "bool",
        "numberOfBytes": "1"
      },
      "t_mapping(t_address,t_bool)": {
        "encoding": "mapping",
        "key": "t_address",
        "label": "mapping(address => bool)",
        "numberOfBytes": "32",
        "value": "t_bool"
      },
      "t_mapping(t_address,t_uint256)": {
        "encoding": "mapping",
        "key": "t_address",
        "label": "mapping(address => uint256)",
        "numberOfBytes": "32",
        "value": "t_uint256"
      },
      "t_uint256": {
        "encoding": "inplace",
        "label": "uint256",
        "numberOfBytes": "32"
      }
    }
  }
}