{
  "address": "0xa90eccddC71BB592d1a7Bd5cAC1a80Fc955a0C21",
  "abi": [
    {
      "inputs": [
        {
          "internalType": "address",
          "name": "landAddress",
          "type": "address"
        },
        {
          "internalType": "address",
          "name": "sandContractAddress",
          "type": "address"
        },
        {
          "internalType": "address",
          "name": "initialMetaTx",
          "type": "address"
        },
        {
          "internalType": "address",
          "name": "admin",
          "type": "address"
        },
        {
          "internalType": "address payable",
          "name": "initialWalletAddress",
          "type": "address"
        },
        {
          "internalType": "bytes32",
          "name": "merkleRoot",
          "type": "bytes32"
        },
        {
          "internalType": "uint256",
          "name": "expiryTime",
          "type": "uint256"
        },
        {
          "internalType": "address",
          "name": "initialSigningWallet",
          "type": "address"
        },
        {
          "internalType": "uint256",
          "name": "initialMaxCommissionRate",
          "type": "uint256"
        },
        {
          "internalType": "address",
          "name": "estate",
          "type": "address"
        },
        {
          "internalType": "address",
          "name": "asset",
          "type": "address"
        },
        {
          "internalType": "address",
          "name": "feeDistributor",
          "type": "address"
        },
        {
          "internalType": "address",
          "name": "authValidator",
          "type": "address"
        }
      ],
      "stateMutability": "nonpayable",
      "type": "constructor"
    },
    {
      "anonymous": false,
      "inputs": [
        {
          "indexed": false,
          "internalType": "address",
          "name": "oldAdmin",
          "type": "address"
        },
        {
          "indexed": false,
          "internalType": "address",
          "name": "newAdmin",
          "type": "address"
        }
      ],
      "name": "AdminChanged",
      "type": "event"
    },
    {
      "anonymous": false,
      "inputs": [
        {
          "indexed": true,
          "internalType": "address",
          "name": "buyer",
          "type": "address"
        },
        {
          "indexed": true,
          "internalType": "address",
          "name": "to",
          "type": "address"
        },
        {
          "indexed": true,
          "internalType": "uint256",
          "name": "topCornerId",
          "type": "uint256"
        },
        {
          "indexed": false,
          "internalType": "uint256",
          "name": "size",
          "type": "uint256"
        },
        {
          "indexed": false,
          "internalType": "uint256",
          "name": "price",
          "type": "uint256"
        },
        {
          "indexed": false,
          "internalType": "address",
          "name": "token",
          "type": "address"
        },
        {
          "indexed": false,
          "internalType": "uint256",
          "name": "amountPaid",
          "type": "uint256"
        }
      ],
      "name": "LandQuadPurchased",
      "type": "event"
    },
    {
      "anonymous": false,
      "inputs": [
        {
          "indexed": false,
          "internalType": "address",
          "name": "metaTransactionProcessor",
          "type": "address"
        },
        {
          "indexed": false,
          "internalType": "bool",
          "name": "enabled",
          "type": "bool"
        }
      ],
      "name": "MetaTransactionProcessor",
      "type": "event"
    },
    {
      "anonymous": false,
      "inputs": [
        {
          "indexed": true,
          "internalType": "address",
          "name": "referrer",
          "type": "address"
        },
        {
          "indexed": true,
          "internalType": "address",
          "name": "referee",
          "type": "address"
        },
        {
          "indexed": true,
          "internalType": "address",
          "name": "token",
          "type": "address"
        },
        {
          "indexed": false,
          "internalType": "uint256",
          "name": "amount",
          "type": "uint256"
        },
        {
          "indexed": false,
          "internalType": "uint256",
          "name": "commission",
          "type": "uint256"
        },
        {
          "indexed": false,
          "internalType": "uint256",
          "name": "commissionRate",
          "type": "uint256"
        }
      ],
      "name": "ReferralUsed",
      "type": "event"
    },
    {
      "inputs": [
        {
          "internalType": "address",
          "name": "buyer",
          "type": "address"
        },
        {
          "internalType": "address",
          "name": "to",
          "type": "address"
        },
        {
          "internalType": "address",
          "name": "reserved",
          "type": "address"
        },
        {
          "internalType": "uint256[]",
          "name": "info",
          "type": "uint256[]"
        },
        {
          "internalType": "bytes32",
          "name": "salt",
          "type": "bytes32"
        },
        {
          "internalType": "uint256[]",
          "name": "assetIds",
          "type": "uint256[]"
        },
        {
          "internalType": "bytes32[]",
          "name": "proof",
          "type": "bytes32[]"
        },
        {
          "internalType": "bytes",
          "name": "referral",
          "type": "bytes"
        },
        {
          "internalType": "bytes",
          "name": "signature",
          "type": "bytes"
        }
      ],
      "name": "buyLandWithSand",
      "outputs": [],
      "stateMutability": "nonpayable",
      "type": "function"
    },
    {
      "inputs": [
        {
          "internalType": "address",
          "name": "newAdmin",
          "type": "address"
        }
      ],
      "name": "changeAdmin",
      "outputs": [],
      "stateMutability": "nonpayable",
      "type": "function"
    },
    {
      "inputs": [
        {
          "internalType": "bytes",
          "name": "referral",
          "type": "bytes"
        }
      ],
      "name": "decodeReferral",
      "outputs": [
        {
          "internalType": "bytes",
          "name": "",
          "type": "bytes"
        },
        {
          "internalType": "address",
          "name": "",
          "type": "address"
        },
        {
          "internalType": "address",
          "name": "",
          "type": "address"
        },
        {
          "internalType": "uint256",
          "name": "",
          "type": "uint256"
        },
        {
          "internalType": "uint256",
          "name": "",
          "type": "uint256"
        }
      ],
      "stateMutability": "pure",
      "type": "function"
    },
    {
      "inputs": [],
      "name": "getAdmin",
      "outputs": [
        {
          "internalType": "address",
          "name": "",
          "type": "address"
        }
      ],
      "stateMutability": "view",
      "type": "function"
    },
    {
      "inputs": [],
      "name": "getExpiryTime",
      "outputs": [
        {
          "internalType": "uint256",
          "name": "",
          "type": "uint256"
        }
      ],
      "stateMutability": "view",
      "type": "function"
    },
    {
      "inputs": [],
      "name": "getMaxCommisionRate",
      "outputs": [
        {
          "internalType": "uint256",
          "name": "",
          "type": "uint256"
        }
      ],
      "stateMutability": "view",
      "type": "function"
    },
    {
      "inputs": [],
      "name": "getMerkleRoot",
      "outputs": [
        {
          "internalType": "bytes32",
          "name": "",
          "type": "bytes32"
        }
      ],
      "stateMutability": "view",
      "type": "function"
    },
    {
      "inputs": [],
      "name": "getSigningWallet",
      "outputs": [
        {
          "internalType": "address",
          "name": "",
          "type": "address"
        }
      ],
      "stateMutability": "view",
      "type": "function"
    },
    {
      "inputs": [
        {
          "internalType": "address",
          "name": "who",
          "type": "address"
        }
      ],
      "name": "isMetaTransactionProcessor",
      "outputs": [
        {
          "internalType": "bool",
          "name": "",
          "type": "bool"
        }
      ],
      "stateMutability": "view",
      "type": "function"
    },
    {
      "inputs": [
        {
          "internalType": "bytes",
          "name": "signature",
          "type": "bytes"
        },
        {
          "internalType": "address",
          "name": "referrer",
          "type": "address"
        },
        {
          "internalType": "address",
          "name": "referee",
          "type": "address"
        },
        {
          "internalType": "uint256",
          "name": "expiryTime",
          "type": "uint256"
        },
        {
          "internalType": "uint256",
          "name": "commissionRate",
          "type": "uint256"
        }
      ],
      "name": "isReferralValid",
      "outputs": [
        {
          "internalType": "bool",
          "name": "",
          "type": "bool"
        }
      ],
      "stateMutability": "view",
      "type": "function"
    },
    {
      "inputs": [
        {
          "internalType": "address",
          "name": "",
          "type": "address"
        },
        {
          "internalType": "address",
          "name": "",
          "type": "address"
        },
        {
          "internalType": "uint256[]",
          "name": "",
          "type": "uint256[]"
        },
        {
          "internalType": "uint256[]",
          "name": "",
          "type": "uint256[]"
        },
        {
          "internalType": "bytes",
          "name": "",
          "type": "bytes"
        }
      ],
      "name": "onERC1155BatchReceived",
      "outputs": [
        {
          "internalType": "bytes4",
          "name": "",
          "type": "bytes4"
        }
      ],
      "stateMutability": "pure",
      "type": "function"
    },
    {
      "inputs": [
        {
          "internalType": "address",
          "name": "",
          "type": "address"
        },
        {
          "internalType": "address",
          "name": "",
          "type": "address"
        },
        {
          "internalType": "uint256",
          "name": "",
          "type": "uint256"
        },
        {
          "internalType": "uint256",
          "name": "",
          "type": "uint256"
        },
        {
          "internalType": "bytes",
          "name": "",
          "type": "bytes"
        }
      ],
      "name": "onERC1155Received",
      "outputs": [
        {
          "internalType": "bytes4",
          "name": "",
          "type": "bytes4"
        }
      ],
      "stateMutability": "pure",
      "type": "function"
    },
    {
      "inputs": [
        {
          "internalType": "address",
          "name": "metaTransactionProcessor",
          "type": "address"
        },
        {
          "internalType": "bool",
          "name": "enabled",
          "type": "bool"
        }
      ],
      "name": "setMetaTransactionProcessor",
      "outputs": [],
      "stateMutability": "nonpayable",
      "type": "function"
    },
    {
      "inputs": [
        {
          "internalType": "address payable",
          "name": "newWallet",
          "type": "address"
        }
      ],
      "name": "setReceivingWallet",
      "outputs": [],
      "stateMutability": "nonpayable",
      "type": "function"
    },
    {
      "inputs": [
        {
          "internalType": "uint256",
          "name": "newMaxCommissionRate",
          "type": "uint256"
        }
      ],
      "name": "updateMaxCommissionRate",
      "outputs": [],
      "stateMutability": "nonpayable",
      "type": "function"
    },
    {
      "inputs": [
        {
          "internalType": "address",
          "name": "newSigningWallet",
          "type": "address"
        }
      ],
      "name": "updateSigningWallet",
      "outputs": [],
      "stateMutability": "nonpayable",
      "type": "function"
    },
    {
      "inputs": [
        {
          "internalType": "address",
          "name": "to",
          "type": "address"
        },
        {
          "internalType": "uint256[]",
          "name": "assetIds",
          "type": "uint256[]"
        },
        {
          "internalType": "uint256[]",
          "name": "values",
          "type": "uint256[]"
        }
      ],
      "name": "withdrawAssets",
      "outputs": [],
      "stateMutability": "nonpayable",
      "type": "function"
    }
  ],
  "transactionHash": "0x28decc9a8cfc87da1cb6e8b19388cd568a1a14429469b5bc9c6dab85128ccc27",
  "args": [
    "0xaF40A483bF77AAb7b7D13dB18187E6D62C1EA41b",
    "0xCc933a862fc15379E441F2A16Cb943D385a4695f",
    "0xCc933a862fc15379E441F2A16Cb943D385a4695f",
    "0xa4519D601F43D0b8f167842a367465681F652252",
    "0x60927eB036621b801491B6c5e9A60A8d2dEeD75A",
    "0xb69c5d7b1e74c045bec9187ce8cf897008a36c1e77c1271f7caa4c279e4f281e",
    1670590800,
    "0xB7060D3FeCAC3AE1F0A0AA416E3e8E472257950e",
    2000,
    "0x0000000000000000000000000000000000000000",
    "0x8055a2c0f7EB177BeaB357B70E6504402d2b5fF6",
    "0x5983532A5b9009E05428595b87F19e42068a232B",
    "0x94cA164E3d7B13700eC356a1540f7Ae7c239A2b3"
  ],
  "linkedData": [
    {
      "x": 204,
      "y": 108,
      "size": 1,
      "price": "4683000000000000000000",
      "reserved": "",
      "salt": "0xe0816bd70f1a938caf61bccf036b74a3d3c3db8a50119f2031d8ea51397ed652",
      "assetIds": [
        "41506478881403507969696680653240014914910929820314476107906210059990541021186"
      ]
    },
    {
      "x": 204,
      "y": 109,
      "size": 1,
      "price": "4683000000000000000000",
      "reserved": "",
      "salt": "0x11214b31b585424e21932327e337bbf645a30b84acafb2792b1a273b0582e063",
      "assetIds": [
        "41506478881403507969696680653240014914910929820314476107906210059990541021186"
      ]
    },
    {
      "x": 204,
      "y": 110,
      "size": 1,
      "price": "1011000000000000000000",
      "reserved": "",
      "salt": "0xc663d99e6f0bc36e19eb38ef7ab77f9f0e10d1ea5211c1e6d4adac2e20cb4b84",
      "assetIds": []
    },
    {
      "x": 204,
      "y": 111,
      "size": 1,
      "price": "1011000000000000000000",
      "reserved": "",
      "salt": "0xca57288a509ae4b8f251a10b69241aae03ff280b8252ef16a28ddb8835740422",
      "assetIds": []
    },
    {
      "x": 204,
      "y": 112,
      "size": 1,
      "price": "4683000000000000000000",
      "reserved": "",
      "salt": "0x46cc97a9c317e9cb4dd307c508aa7f98a8217e7b05406dac381a8bdb00233f36",
      "assetIds": [
        "41506478881403507969696680653240014914910929820314476107906210059990541021186"
      ]
    },
    {
      "x": 204,
      "y": 113,
      "size": 1,
      "price": "4683000000000000000000",
      "reserved": "",
      "salt": "0xed718bbbafbcb3b31b74017615bffc245be4e13b81dc1418468869704f5c59fe",
      "assetIds": [
        "41506478881403507969696680653240014914910929820314476107906210059990541021186"
      ]
    },
    {
      "x": 204,
      "y": 114,
      "size": 1,
      "price": "4683000000000000000000",
      "reserved": "",
      "salt": "0xeefe7509aeeec47f97e65afc2eb2da4ae50d02cc32cde11c695423c2f4a6857b",
      "assetIds": [
        "41506478881403507969696680653240014914910929820314476107906210059990541021186"
      ]
    },
    {
      "x": 204,
      "y": 115,
      "size": 1,
      "price": "4683000000000000000000",
      "reserved": "",
      "salt": "0xb33bafd120be625f57bd0789d519a6e13f9dd8eb3c04d6ec9e01d86ac8006ea8",
      "assetIds": [
        "41506478881403507969696680653240014914910929820314476107906210059990541021186"
      ]
    },
    {
      "x": 204,
      "y": 116,
      "size": 1,
      "price": "4683000000000000000000",
      "reserved": "",
      "salt": "0xfb99866e6abab5f3405e0c4709b5bdef69a98d5ab0f48e3f94dfea69998ef0cd",
      "assetIds": [
        "41506478881403507969696680653240014914910929820314476107906210059990541021186"
      ]
    },
    {
      "x": 204,
      "y": 117,
      "size": 1,
      "price": "4683000000000000000000",
      "reserved": "",
      "salt": "0x3ef2cc23fee91e09259fbb0522b6caa646ecec24e87bfab4827fab208086dac9",
      "assetIds": [
        "41506478881403507969696680653240014914910929820314476107906210059990541021186"
      ]
    },
    {
      "x": 204,
      "y": 118,
      "size": 1,
      "price": "4683000000000000000000",
      "reserved": "",
      "salt": "0xdbf665debdd183bb9de1418a464065003c25bf733898a751e57337213cd7fb5f",
      "assetIds": [
        "41506478881403507969696680653240014914910929820314476107906210059990541021186"
      ]
    },
    {
      "x": 204,
      "y": 119,
      "size": 1,
      "price": "4683000000000000000000",
      "reserved": "",
      "salt": "0x79c894ecf819b312b7ac8490aa87b4f02099a55000eac824e597f6f47bb51377",
      "assetIds": [
        "41506478881403507969696680653240014914910929820314476107906210059990541021186"
      ]
    },
    {
      "x": 205,
      "y": 108,
      "size": 1,
      "price": "4683000000000000000000",
      "reserved": "",
      "salt": "0x25aff6ab92ee69781148be3dd772c2b2f3ef39316ebe6399770800c3e7757292",
      "assetIds": [
        "41506478881403507969696680653240014914910929820314476107906210059990541021186"
      ]
    },
    {
      "x": 205,
      "y": 109,
      "size": 1,
      "price": "4683000000000000000000",
      "reserved": "",
      "salt": "0x1c5ba74a1c96c298fb7476c5d16f040c52e3729e7a6c81fd61fd3eadccc3ea28",
      "assetIds": [
        "41506478881403507969696680653240014914910929820314476107906210059990541021186"
      ]
    },
    {
      "x": 205,
      "y": 110,
      "size": 1,
      "price": "1011000000000000000000",
      "reserved": "",
      "salt": "0x74b62f6df12944f1c5e8202740f7a1e31182f58be04bbcbe9ba1205eceb41a73",
      "assetIds": []
    },
    {
      "x": 205,
      "y": 111,
      "size": 1,
      "price": "1011000000000000000000",
      "reserved": "",
      "salt": "0xef86b422fc6fe3f299f7fb38a9fff9d8657860a854b0d261a2c431791097d17e",
      "assetIds": []
    },
    {
      "x": 205,
      "y": 112,
      "size": 1,
      "price": "1011000000000000000000",
      "reserved": "",
      "salt": "0x1109e261011f11492105dac44ed0ff373405747658896f28cc1d81dbfbbec117",
      "assetIds": []
    },
    {
      "x": 205,
      "y": 113,
      "size": 1,
      "price": "4683000000000000000000",
      "reserved": "",
      "salt": "0x239d19542bb8d9267d4f3e9d99e3249b64dbf222ec9f4d0908f38330d886c51c",
      "assetIds": [
        "41506478881403507969696680653240014914910929820314476107906210059990541021186"
      ]
    },
    {
      "x": 205,
      "y": 114,
      "size": 1,
      "price": "4683000000000000000000",
      "reserved": "",
      "salt": "0x06949a3f73d6417bc7b2cf175fa91c331e42d13263380c50d6876d65b8007901",
      "assetIds": [
        "41506478881403507969696680653240014914910929820314476107906210059990541021186"
      ]
    },
    {
      "x": 205,
      "y": 115,
      "size": 1,
      "price": "4683000000000000000000",
      "reserved": "",
      "salt": "0xf697806ac35179cfe52656e1eab7d84637b3123de27ac884ae82f9ec583f21e4",
      "assetIds": [
        "41506478881403507969696680653240014914910929820314476107906210059990541021186"
      ]
    },
    {
      "x": 205,
      "y": 116,
      "size": 1,
      "price": "4683000000000000000000",
      "reserved": "",
      "salt": "0xd3a611bf235c63f2aba0b51ca87b7651b7000c1323b0ba8eaa0b8a87710f9317",
      "assetIds": [
        "41506478881403507969696680653240014914910929820314476107906210059990541021186"
      ]
    },
    {
      "x": 205,
      "y": 117,
      "size": 1,
      "price": "4683000000000000000000",
      "reserved": "",
      "salt": "0x877f04a554cbc94569dbd62a0d45159ed28ae204867561d4635441c1393b0e75",
      "assetIds": [
        "41506478881403507969696680653240014914910929820314476107906210059990541021186"
      ]
    },
    {
      "x": 205,
      "y": 118,
      "size": 1,
      "price": "4683000000000000000000",
      "reserved": "",
      "salt": "0xcab4b05c263cbccdbdb823f8f4aa8faec0173d0f08340c07799ba008997e654c",
      "assetIds": [
        "41506478881403507969696680653240014914910929820314476107906210059990541021186"
      ]
    },
    {
      "x": 205,
      "y": 119,
      "size": 1,
      "price": "4683000000000000000000",
      "reserved": "",
      "salt": "0x09437d0e5873177030b583e953759aacc4510947d4f7d498c47ced7bc2fb7575",
      "assetIds": [
        "41506478881403507969696680653240014914910929820314476107906210059990541021186"
      ]
    },
    {
      "x": 206,
      "y": 108,
      "size": 1,
      "price": "4683000000000000000000",
      "reserved": "",
      "salt": "0x1641e3a82d8cfe21d33f429d92e9508db60591d3ab0348a41d4657751367be5d",
      "assetIds": [
        "41506478881403507969696680653240014914910929820314476107906210059990541021186"
      ]
    },
    {
      "x": 206,
      "y": 109,
      "size": 1,
      "price": "4683000000000000000000",
      "reserved": "",
      "salt": "0x6f98864a76e6b5e126e534412289643f400780aee8a710faa4f282fcf91d779c",
      "assetIds": [
        "41506478881403507969696680653240014914910929820314476107906210059990541021186"
      ]
    },
    {
      "x": 206,
      "y": 110,
      "size": 1,
      "price": "1011000000000000000000",
      "reserved": "",
      "salt": "0x241e17215da367bcaf8630b1d5b02e0eb13338783f89be5796e5031d9e0e6af2",
      "assetIds": []
    },
    {
      "x": 206,
      "y": 111,
      "size": 1,
      "price": "1011000000000000000000",
      "reserved": "",
      "salt": "0x07ea4702158e6eea49b03e09a56af4acb100c8fbd9d0a2a02ab71aa5d1d4bdaa",
      "assetIds": []
    },
    {
      "x": 206,
      "y": 112,
      "size": 1,
      "price": "1011000000000000000000",
      "reserved": "",
      "salt": "0x7016e688b5265c49fc61df16078f707cf807f12e1ed44d1d7cc88f89439b5ca5",
      "assetIds": []
    },
    {
      "x": 206,
      "y": 113,
      "size": 1,
      "price": "1011000000000000000000",
      "reserved": "",
      "salt": "0x0bd7f872e085bf0fef54ea18bea78e0dbb62da18faba20fc278cff83eadf7f1a",
      "assetIds": []
    },
    {
      "x": 206,
      "y": 114,
      "size": 1,
      "price": "1011000000000000000000",
      "reserved": "",
      "salt": "0x15299b69285904706c850a809b5f98952bbf88deb9ced8c3feddc149c8f87206",
      "assetIds": []
    },
    {
      "x": 206,
      "y": 115,
      "size": 1,
      "price": "1011000000000000000000",
      "reserved": "",
      "salt": "0x0248a6f408eff320d3aae79b684589dd8d27979b50baa867f1edb9b55990dd31",
      "assetIds": []
    },
    {
      "x": 206,
      "y": 116,
      "size": 1,
      "price": "1011000000000000000000",
      "reserved": "",
      "salt": "0x26a54ecedb183811064faa209b7b9f979f8ba329de4f53857011c4381420c89d",
      "assetIds": []
    },
    {
      "x": 206,
      "y": 117,
      "size": 1,
      "price": "1011000000000000000000",
      "reserved": "",
      "salt": "0xc047841c4c712d134c53b56edea9e599613d64af745bec83205b136d67f116a2",
      "assetIds": []
    },
    {
      "x": 206,
      "y": 118,
      "size": 1,
      "price": "4683000000000000000000",
      "reserved": "",
      "salt": "0x355a7aed706d7251464d21bcb50c1414999334b888b1cc0cf7ff1280b69fb303",
      "assetIds": [
        "41506478881403507969696680653240014914910929820314476107906210059990541021186"
      ]
    },
    {
      "x": 206,
      "y": 119,
      "size": 1,
      "price": "4683000000000000000000",
      "reserved": "",
      "salt": "0x5a812c5f5640c1d6db905d4289390341a10870eaf4a0dcf136566b9730b39dbf",
      "assetIds": [
        "41506478881403507969696680653240014914910929820314476107906210059990541021186"
      ]
    },
    {
      "x": 207,
      "y": 108,
      "size": 1,
      "price": "4683000000000000000000",
      "reserved": "",
      "salt": "0x5092b2b79c546152888620363206a1a36212bf0807e5cf6d94f195c0314580ec",
      "assetIds": [
        "41506478881403507969696680653240014914910929820314476107906210059990541021186"
      ]
    },
    {
      "x": 207,
      "y": 109,
      "size": 1,
      "price": "4683000000000000000000",
      "reserved": "",
      "salt": "0x34eb0a93542e7467748db5de26743a021941220cbf92476a3e20213ab4448cda",
      "assetIds": [
        "41506478881403507969696680653240014914910929820314476107906210059990541021186"
      ]
    },
    {
      "x": 207,
      "y": 110,
      "size": 1,
      "price": "1011000000000000000000",
      "reserved": "",
      "salt": "0x5748618a305c0f89f331fbc7f9f92eb92b27844d5bef58c7b187aae8426028dd",
      "assetIds": []
    },
    {
      "x": 207,
      "y": 111,
      "size": 1,
      "price": "1011000000000000000000",
      "reserved": "",
      "salt": "0xa9218a7200c22a731d31580363af24173b92530bf42be8567723aba91fa26d38",
      "assetIds": []
    },
    {
      "x": 207,
      "y": 112,
      "size": 1,
      "price": "1011000000000000000000",
      "reserved": "",
      "salt": "0xc24b0fbc12718d73ec4c1fcfc080ac5fced342330e718696fd3061bc78e17ae9",
      "assetIds": []
    },
    {
      "x": 207,
      "y": 113,
      "size": 1,
      "price": "1011000000000000000000",
      "reserved": "",
      "salt": "0xdfcabcaae2e746a9335f553aab01628f4e9bcd2036dc11b95d75bbd32b9a810c",
      "assetIds": []
    },
    {
      "x": 207,
      "y": 114,
      "size": 1,
      "price": "1011000000000000000000",
      "reserved": "",
      "salt": "0x87f35c585570b851dcc91442359aef2cb6aabdc10b587a8a94c33162b77215f0",
      "assetIds": []
    },
    {
      "x": 207,
      "y": 115,
      "size": 1,
      "price": "1011000000000000000000",
      "reserved": "",
      "salt": "0x59c4428880e9c5998016de3d94c992a7be1868f7c83d605b990b818adbba7013",
      "assetIds": []
    },
    {
      "x": 207,
      "y": 116,
      "size": 1,
      "price": "1011000000000000000000",
      "reserved": "",
      "salt": "0x0ff455e2f9c3e9c3039429be3fce1c4e3f13b6502dacb179892d5f871a6c6cf7",
      "assetIds": []
    },
    {
      "x": 208,
      "y": 108,
      "size": 1,
      "price": "4683000000000000000000",
      "reserved": "",
      "salt": "0x4f29ce1cf2bc4567cb77a0e900aa8c5d3a8e7dcb4502b22faf9e81e737be9e4f",
      "assetIds": [
        "41506478881403507969696680653240014914910929820314476107906210059990541021186"
      ]
    },
    {
      "x": 208,
      "y": 109,
      "size": 1,
      "price": "4683000000000000000000",
      "reserved": "",
      "salt": "0x6c029aebfd976b0aac2c4dbf403e96b1237f54fbe487170c124d08b771ef08eb",
      "assetIds": [
        "41506478881403507969696680653240014914910929820314476107906210059990541021186"
      ]
    },
    {
      "x": 208,
      "y": 110,
      "size": 1,
      "price": "1011000000000000000000",
      "reserved": "",
      "salt": "0x12736a73f1ab96dbe7af1a1b5f9304005d1478a9883aac5c2c05e2a7362f05ad",
      "assetIds": []
    },
    {
      "x": 208,
      "y": 111,
      "size": 1,
      "price": "1011000000000000000000",
      "reserved": "",
      "salt": "0x166ceff847a01eee33a9a4871276091808508be4f673fdcac02eebadf4d73573",
      "assetIds": []
    },
    {
      "x": 208,
      "y": 112,
      "size": 1,
      "price": "1011000000000000000000",
      "reserved": "",
      "salt": "0xac259d758f4939330151c32a764a375c3f882f3aeda2582ad82e815771f44f11",
      "assetIds": []
    },
    {
      "x": 208,
      "y": 113,
      "size": 1,
      "price": "1011000000000000000000",
      "reserved": "",
      "salt": "0x560edb402341ad6b2a33836eb5c7dbea7f93abe846f7663bf12eeb7be6e7be3b",
      "assetIds": []
    },
    {
      "x": 208,
      "y": 114,
      "size": 1,
      "price": "1011000000000000000000",
      "reserved": "",
      "salt": "0x57b1007d41bb118189447cb9b881ff29a8e03b3895550b8f38bf56d73bdb8675",
      "assetIds": []
    },
    {
      "x": 208,
      "y": 115,
      "size": 1,
      "price": "1011000000000000000000",
      "reserved": "",
      "salt": "0xb35cbe2a9af8c5f32de0f59828140f312e6e07e8dab7baa42a07edd3cbbef719",
      "assetIds": []
    },
    {
      "x": 208,
      "y": 116,
      "size": 1,
      "price": "1011000000000000000000",
      "reserved": "",
      "salt": "0xedbb4a23e370157a380d229da6e7dd4b768dba314e21e623c3c799b53c178cb8",
      "assetIds": []
    },
    {
      "x": 209,
      "y": 108,
      "size": 1,
      "price": "4683000000000000000000",
      "reserved": "",
      "salt": "0x204579158156f6c70bf1527002f2246e158dccc0a4c2f7cad26bf5a6ad87ad27",
      "assetIds": [
        "41506478881403507969696680653240014914910929820314476107906210059990541021186"
      ]
    },
    {
      "x": 209,
      "y": 109,
      "size": 1,
      "price": "4683000000000000000000",
      "reserved": "",
      "salt": "0x42155fcf9ea4dc88478cc7794dd69a8e5ea43b1c743a1db914ab4d89a854f795",
      "assetIds": [
        "41506478881403507969696680653240014914910929820314476107906210059990541021186"
      ]
    },
    {
      "x": 209,
      "y": 110,
      "size": 1,
      "price": "1011000000000000000000",
      "reserved": "",
      "salt": "0x9c6fd18f2e4fcc2bfaeb2fac4b9c3d7ed6a91719985e4c5d65a5a4de207e179f",
      "assetIds": []
    },
    {
      "x": 209,
      "y": 111,
      "size": 1,
      "price": "1011000000000000000000",
      "reserved": "",
      "salt": "0x0c8b3a8e13cc1cc257fca2346db7fe7d826e83a0bd6a30b4b0d1fe21defc647b",
      "assetIds": []
    },
    {
      "x": 209,
      "y": 112,
      "size": 1,
      "price": "1011000000000000000000",
      "reserved": "",
      "salt": "0xc3492917902b42119713b77b00eaadc30ec2009b62be3d4c86a8d6c6307df52a",
      "assetIds": []
    },
    {
      "x": 209,
      "y": 113,
      "size": 1,
      "price": "1011000000000000000000",
      "reserved": "",
      "salt": "0x36ca352d972daf5ee26683f4eca44a42c903fba2e1ad5011b34bd0a97115cec0",
      "assetIds": []
    },
    {
      "x": 209,
      "y": 114,
      "size": 1,
      "price": "1011000000000000000000",
      "reserved": "",
      "salt": "0x8afe359f6b6dececeb3150f12668972cd8e50da8d4712b4ebc860aee71b438de",
      "assetIds": []
    },
    {
      "x": 209,
      "y": 115,
      "size": 1,
      "price": "1011000000000000000000",
      "reserved": "",
      "salt": "0x96028cff0de84398c62614b198259f8708467cebb5373ecd51042f911fd3378d",
      "assetIds": []
    },
    {
      "x": 209,
      "y": 116,
      "size": 1,
      "price": "1011000000000000000000",
      "reserved": "",
      "salt": "0xc32955115bc062bcbd3aa0a1bd8b0366cfbf9573d3fc8a7aa899de31c48f77a5",
      "assetIds": []
    },
    {
      "x": 210,
      "y": 102,
      "size": 1,
      "price": "4683000000000000000000",
      "reserved": "",
      "salt": "0x9c979c5ecdaca3b7cdbefacf0f6d2c55d9588a3828e2be56f2517f0f920ca781",
      "assetIds": [
        "41506478881403507969696680653240014914910929820314476107906210059990541021186"
      ]
    },
    {
      "x": 210,
      "y": 103,
      "size": 1,
      "price": "4683000000000000000000",
      "reserved": "",
      "salt": "0xb7d50a8bc357fb3227679a2f0f151e52a39260526aa62386eeb66b2e43553476",
      "assetIds": [
        "41506478881403507969696680653240014914910929820314476107906210059990541021186"
      ]
    },
    {
      "x": 210,
      "y": 104,
      "size": 1,
      "price": "4683000000000000000000",
      "reserved": "",
      "salt": "0x118f8505287ed5e75e4291ec71dd5dfa0c0ddd2677609348e43ac299648c395e",
      "assetIds": [
        "41506478881403507969696680653240014914910929820314476107906210059990541021186"
      ]
    },
    {
      "x": 210,
      "y": 105,
      "size": 1,
      "price": "4683000000000000000000",
      "reserved": "",
      "salt": "0x52367e2033f1553c52952a0ba29f8679a1f02fa7f7d45bae2af91242cffcbfd5",
      "assetIds": [
        "41506478881403507969696680653240014914910929820314476107906210059990541021186"
      ]
    },
    {
      "x": 210,
      "y": 106,
      "size": 1,
      "price": "4683000000000000000000",
      "reserved": "",
      "salt": "0x5cf067f2cc0e95d7176ad3e30b6921367e3e1c61527e4bc0dc7f04520a30ecff",
      "assetIds": [
        "41506478881403507969696680653240014914910929820314476107906210059990541021186"
      ]
    },
    {
      "x": 210,
      "y": 107,
      "size": 1,
      "price": "4683000000000000000000",
      "reserved": "",
      "salt": "0xb38f5b20889dfd18e52be9541ca757e3f648271ce42a4c9e0f54aaf1ac043691",
      "assetIds": [
        "41506478881403507969696680653240014914910929820314476107906210059990541021186"
      ]
    },
    {
      "x": 210,
      "y": 108,
      "size": 1,
      "price": "4683000000000000000000",
      "reserved": "",
      "salt": "0x522597b0dc10bcaa1e5a5a3d646469ba8bb8ab31bfd1bcc86b78294fdbb13c40",
      "assetIds": [
        "41506478881403507969696680653240014914910929820314476107906210059990541021186"
      ]
    },
    {
      "x": 210,
      "y": 109,
      "size": 1,
      "price": "4683000000000000000000",
      "reserved": "",
      "salt": "0x796b3ce4cf52f7e26d09a92d224ae462cd7e51ababa429f8cc7e6c125fbda3a1",
      "assetIds": [
        "41506478881403507969696680653240014914910929820314476107906210059990541021186"
      ]
    },
    {
      "x": 210,
      "y": 110,
      "size": 1,
      "price": "1011000000000000000000",
      "reserved": "",
      "salt": "0x6d1cbc397d04b57c492d24f83527520bd9a4b108753eca0be7f3b162b6b9d5b5",
      "assetIds": []
    },
    {
      "x": 210,
      "y": 111,
      "size": 1,
      "price": "1011000000000000000000",
      "reserved": "",
      "salt": "0xacdcbd8763918ca2f320108911ff09365ed7197e72e196e20eeddd314c25cbf8",
      "assetIds": []
    },
    {
      "x": 210,
      "y": 112,
      "size": 1,
      "price": "1011000000000000000000",
      "reserved": "",
      "salt": "0x93e99bcd56eed9198f8b842241bef44fbb544c414864c491264ec0a80a3cf166",
      "assetIds": []
    },
    {
      "x": 210,
      "y": 113,
      "size": 1,
      "price": "1011000000000000000000",
      "reserved": "",
      "salt": "0x8e900764dea590181eb2611161644338c50eef3b481a7533d111ecea1001e021",
      "assetIds": []
    },
    {
      "x": 210,
      "y": 114,
      "size": 1,
      "price": "1011000000000000000000",
      "reserved": "",
      "salt": "0x74c164bd8dcfc4fa4c02e0a8bfebfb2537d4e8318da52444d565447db88ac1ee",
      "assetIds": []
    },
    {
      "x": 210,
      "y": 115,
      "size": 1,
      "price": "1011000000000000000000",
      "reserved": "",
      "salt": "0xcbb0a203f6f5ad35503883b6f0096d53c05ab67f16f09d5bc41ceb4e6901f76c",
      "assetIds": []
    },
    {
      "x": 210,
      "y": 116,
      "size": 1,
      "price": "4683000000000000000000",
      "reserved": "",
      "salt": "0x3eaefe167d2ce009ede5e65b09727dbf36ad1d594d470c614315153ff332a5bb",
      "assetIds": [
        "41506478881403507969696680653240014914910929820314476107906210059990541021186"
      ]
    },
    {
      "x": 211,
      "y": 102,
      "size": 1,
      "price": "4683000000000000000000",
      "reserved": "",
      "salt": "0x379b42e22a5d4ef6a42b41eb79eaf303e0363beaf4784ab15b132fac015c9b4e",
      "assetIds": [
        "41506478881403507969696680653240014914910929820314476107906210059990541021186"
      ]
    },
    {
      "x": 211,
      "y": 103,
      "size": 1,
      "price": "4683000000000000000000",
      "reserved": "",
      "salt": "0xdb7640e87c6ced8e758986935329ef45689365c1af8b1ee643ead15bfddb449c",
      "assetIds": [
        "41506478881403507969696680653240014914910929820314476107906210059990541021186"
      ]
    },
    {
      "x": 211,
      "y": 104,
      "size": 1,
      "price": "4683000000000000000000",
      "reserved": "",
      "salt": "0x989c86cf3e90a449c6a739756d65e535b3d0a2b648656b1fa481170730c50111",
      "assetIds": [
        "41506478881403507969696680653240014914910929820314476107906210059990541021186"
      ]
    },
    {
      "x": 211,
      "y": 105,
      "size": 1,
      "price": "4683000000000000000000",
      "reserved": "",
      "salt": "0xe462e56d230401fa8418f0581da5cc62faecc10966c50e1c2138aee8e0cbde94",
      "assetIds": [
        "41506478881403507969696680653240014914910929820314476107906210059990541021186"
      ]
    },
    {
      "x": 211,
      "y": 106,
      "size": 1,
      "price": "4683000000000000000000",
      "reserved": "",
      "salt": "0xc03331d44d288d48073267d2d7e4d5d1c243fc59b151a5329ade10892c38f05b",
      "assetIds": [
        "41506478881403507969696680653240014914910929820314476107906210059990541021186"
      ]
    },
    {
      "x": 211,
      "y": 107,
      "size": 1,
      "price": "4683000000000000000000",
      "reserved": "",
      "salt": "0x7dcbd9f2c0dedc3f029ce5ac05aac82de932018dfd23899e7b2bbd15ea50ad1d",
      "assetIds": [
        "41506478881403507969696680653240014914910929820314476107906210059990541021186"
      ]
    },
    {
      "x": 211,
      "y": 108,
      "size": 1,
      "price": "4683000000000000000000",
      "reserved": "",
      "salt": "0x72046b6f366898ea5446cf91495ab176bc64b9a606f70f3441dc5084ce30327e",
      "assetIds": [
        "41506478881403507969696680653240014914910929820314476107906210059990541021186"
      ]
    },
    {
      "x": 211,
      "y": 109,
      "size": 1,
      "price": "1011000000000000000000",
      "reserved": "",
      "salt": "0x875dfaae7b25ac85ea70a5844faa203d72707712449c1b89b3da462658dc0784",
      "assetIds": []
    },
    {
      "x": 211,
      "y": 110,
      "size": 1,
      "price": "1011000000000000000000",
      "reserved": "",
      "salt": "0x451691f9ec6f6e637785750ded500cef1be594200b70bc1ee6cf43a24d96e572",
      "assetIds": []
    },
    {
      "x": 211,
      "y": 111,
      "size": 1,
      "price": "1011000000000000000000",
      "reserved": "",
      "salt": "0x374902fa1803b781299ef147692cfcb71c850f731d6553e747731dd5450e7d47",
      "assetIds": []
    },
    {
      "x": 211,
      "y": 112,
      "size": 1,
      "price": "1011000000000000000000",
      "reserved": "",
      "salt": "0x8eb6c747a0cc1b690f46ba7bc3368aae9005c20e16d4f72ab078e9d87e36d52f",
      "assetIds": []
    },
    {
      "x": 211,
      "y": 113,
      "size": 1,
      "price": "1011000000000000000000",
      "reserved": "",
      "salt": "0x30f7b396b31a692efacf40fbf8c2d9656012fa99da6764b80a8c00a29e562b7e",
      "assetIds": []
    },
    {
      "x": 211,
      "y": 114,
      "size": 1,
      "price": "1011000000000000000000",
      "reserved": "",
      "salt": "0xbc21aeb2024fa898b9067086e6b999651a6e09c2572f35fb6d9b6e9a507210a1",
      "assetIds": []
    },
    {
      "x": 211,
      "y": 115,
      "size": 1,
      "price": "1011000000000000000000",
      "reserved": "",
      "salt": "0xdc010094ae8f767534b927f5377cba11440e9390e1baf7582c14907aedea56cf",
      "assetIds": []
    },
    {
      "x": 211,
      "y": 116,
      "size": 1,
      "price": "4683000000000000000000",
      "reserved": "",
      "salt": "0x9a5f10f21833c6df40a9d85a5acc359cd6ab8d8661cc833c7dafecb5fbe26239",
      "assetIds": [
        "41506478881403507969696680653240014914910929820314476107906210059990541021186"
      ]
    },
    {
      "x": 212,
      "y": 102,
      "size": 1,
      "price": "1011000000000000000000",
      "reserved": "",
      "salt": "0x1d11db2e57253fe583c3fe751ffd22e5f7d79d50c95550578c3214c0300231fc",
      "assetIds": []
    },
    {
      "x": 212,
      "y": 103,
      "size": 1,
      "price": "1011000000000000000000",
      "reserved": "",
      "salt": "0xd415b6c5de9ef829c4525557b9808b18a67786bcae213e5d9a63eb37b826d6ac",
      "assetIds": []
    },
    {
      "x": 212,
      "y": 104,
      "size": 1,
      "price": "1011000000000000000000",
      "reserved": "",
      "salt": "0xa5cc7040988b0a91949e46160b1bb1350d76d5d02733ded15360e969d875596b",
      "assetIds": []
    },
    {
      "x": 212,
      "y": 105,
      "size": 1,
      "price": "1011000000000000000000",
      "reserved": "",
      "salt": "0x818ea9be9c5472a19e55c14a4a77b9a9ea49541bf61af063863090120c485a7b",
      "assetIds": []
    },
    {
      "x": 212,
      "y": 106,
      "size": 1,
      "price": "1011000000000000000000",
      "reserved": "",
      "salt": "0x0279a67df7ec573200a2fd1aeae8ad0240ac790b16da18016350279bca2267ae",
      "assetIds": []
    },
    {
      "x": 212,
      "y": 107,
      "size": 1,
      "price": "1011000000000000000000",
      "reserved": "",
      "salt": "0x6ea2febf54e939337ad131b5c0fa26556b91f140c06e7b564fce8adf105b297d",
      "assetIds": []
    },
    {
      "x": 212,
      "y": 108,
      "size": 1,
      "price": "1011000000000000000000",
      "reserved": "",
      "salt": "0x08bdf7af818337268203d51eee9a4304aa6d47609619324c180c9862e63eb23b",
      "assetIds": []
    },
    {
      "x": 212,
      "y": 109,
      "size": 1,
      "price": "1011000000000000000000",
      "reserved": "",
      "salt": "0x01584d4770dd62e3303737d64f194292b470632c1d89fa9183a3fd93b984845c",
      "assetIds": []
    },
    {
      "x": 212,
      "y": 110,
      "size": 1,
      "price": "1011000000000000000000",
      "reserved": "",
      "salt": "0x95d267973b4e06fb485d7d251847feb54ac82e9b837d8ca6e300848f95e75f02",
      "assetIds": []
    },
    {
      "x": 212,
      "y": 111,
      "size": 1,
      "price": "1011000000000000000000",
      "reserved": "",
      "salt": "0x1e79171e25a9bd3e7dbc1ca907db5250f06204b2f42dff6048b540018927b36a",
      "assetIds": []
    },
    {
      "x": 212,
      "y": 112,
      "size": 1,
      "price": "1011000000000000000000",
      "reserved": "",
      "salt": "0x08f572fd1737e82650c67c687764ef02893ed76b63123900301fe087bd3dab06",
      "assetIds": []
    },
    {
      "x": 212,
      "y": 113,
      "size": 1,
      "price": "1011000000000000000000",
      "reserved": "",
      "salt": "0x48a6168a9325ab12f4bce57afbc8d387e37a083257b18f4b1e0387139337c329",
      "assetIds": []
    },
    {
      "x": 212,
      "y": 114,
      "size": 1,
      "price": "1011000000000000000000",
      "reserved": "",
      "salt": "0x1595403c6a550d3783bb24e4d4af176560783667674f59231e4386b8ceba36f7",
      "assetIds": []
    },
    {
      "x": 212,
      "y": 115,
      "size": 1,
      "price": "1011000000000000000000",
      "reserved": "",
      "salt": "0x921e7543bd2bbbce4505683862598035006ebdf9f614f7f102c4a528e4662966",
      "assetIds": []
    },
    {
      "x": 212,
      "y": 116,
      "size": 1,
      "price": "4683000000000000000000",
      "reserved": "",
      "salt": "0xf92b1b3ff5e524e4b00c9b9a67b8aea906a15e8743266d30aa8951bc1845c63a",
      "assetIds": [
        "41506478881403507969696680653240014914910929820314476107906210059990541021186"
      ]
    },
    {
      "x": 213,
      "y": 102,
      "size": 1,
      "price": "1011000000000000000000",
      "reserved": "",
      "salt": "0xde6b5b42ec3ef4355f6fec1345382937def20b4b7d2d186c2c1164383cc62cba",
      "assetIds": []
    },
    {
      "x": 213,
      "y": 103,
      "size": 1,
      "price": "1011000000000000000000",
      "reserved": "",
      "salt": "0x34e30c3df646e4f5cc147cd1d5c8f244373597de6b5cf1b7ba4e08dbf9d21860",
      "assetIds": []
    },
    {
      "x": 213,
      "y": 104,
      "size": 1,
      "price": "1011000000000000000000",
      "reserved": "",
      "salt": "0x02b148b901b45c0fd91e370d5bcb45c1b9d1cc1e9d4fe32cc737f5bdc057245d",
      "assetIds": []
    },
    {
      "x": 213,
      "y": 105,
      "size": 1,
      "price": "1011000000000000000000",
      "reserved": "",
      "salt": "0x4b58ae7dabc70af780125c99c4e8c6dc208b54890de02bb43f4d67fbe9217575",
      "assetIds": []
    },
    {
      "x": 213,
      "y": 106,
      "size": 1,
      "price": "1011000000000000000000",
      "reserved": "",
      "salt": "0x68ff4417e0f4d8a8799fc9d3e886f8a212c688360fa6f542ef9dbcda558b1633",
      "assetIds": []
    },
    {
      "x": 213,
      "y": 107,
      "size": 1,
      "price": "1011000000000000000000",
      "reserved": "",
      "salt": "0x809f6cec77b1e2999aa94b897ab3a65b4f318132fcf40d93e6671b51382b9f90",
      "assetIds": []
    },
    {
      "x": 213,
      "y": 114,
      "size": 1,
      "price": "1011000000000000000000",
      "reserved": "",
      "salt": "0xd5868409a08bd3df05995ba5a935c34592bdbc9d507f1dbf32986118234c603b",
      "assetIds": []
    },
    {
      "x": 213,
      "y": 115,
      "size": 1,
      "price": "1011000000000000000000",
      "reserved": "",
      "salt": "0xb3a861d7dc49b101b1a6c3def2efad1c7830c600bd6f44aee38177f67e745b9f",
      "assetIds": []
    },
    {
      "x": 213,
      "y": 116,
      "size": 1,
      "price": "1011000000000000000000",
      "reserved": "",
      "salt": "0x736780992357eeeace3fc80a2745c5fbc8726e6facb753c176850e59ada1b753",
      "assetIds": []
    },
    {
      "x": 213,
      "y": 117,
      "size": 1,
      "price": "4683000000000000000000",
      "reserved": "",
      "salt": "0x01653fd4bdb7d1720a149438a8fc268302cf11d9390f738954b82cb2db37ef51",
      "assetIds": [
        "41506478881403507969696680653240014914910929820314476107906210059990541021186"
      ]
    },
    {
      "x": 213,
      "y": 118,
      "size": 1,
      "price": "4683000000000000000000",
      "reserved": "",
      "salt": "0xd030d2992ffe5148042133a19f9af4d9ae60a5a12b966370f69345e5ce8bd176",
      "assetIds": [
        "41506478881403507969696680653240014914910929820314476107906210059990541021186"
      ]
    },
    {
      "x": 213,
      "y": 119,
      "size": 1,
      "price": "4683000000000000000000",
      "reserved": "",
      "salt": "0x436b1734517f46472d19c1e8e70fe47e616bbedb293570b218de08fff54061cc",
      "assetIds": [
        "41506478881403507969696680653240014914910929820314476107906210059990541021186"
      ]
    },
    {
      "x": 214,
      "y": 102,
      "size": 1,
      "price": "1011000000000000000000",
      "reserved": "",
      "salt": "0xc8489fe8180b5178550ffa451f6686b561dd4b9ed3c6d3a9789e3a288ad5cc1b",
      "assetIds": []
    },
    {
      "x": 214,
      "y": 103,
      "size": 1,
      "price": "1011000000000000000000",
      "reserved": "",
      "salt": "0x8946c58605e2f42b5a501fe975e9d98c20373305a8ed7cfac504fecd2bb003d1",
      "assetIds": []
    },
    {
      "x": 214,
      "y": 104,
      "size": 1,
      "price": "1011000000000000000000",
      "reserved": "",
      "salt": "0xc1a2b22fe23d3783243404af5712a7f7bb50b7c3c54015a57da88c232caf2582",
      "assetIds": []
    },
    {
      "x": 214,
      "y": 105,
      "size": 1,
      "price": "1011000000000000000000",
      "reserved": "",
      "salt": "0xf46d2947d1277563b1691437377fa72b05c4171ead8a8c4673531d8eda2379d8",
      "assetIds": []
    },
    {
      "x": 214,
      "y": 106,
      "size": 1,
      "price": "1011000000000000000000",
      "reserved": "",
      "salt": "0x4284759d32b72ad9a44324704d45ca94cd4a08c9b1223770d1130786edcb1192",
      "assetIds": []
    },
    {
      "x": 214,
      "y": 107,
      "size": 1,
      "price": "1011000000000000000000",
      "reserved": "",
      "salt": "0xe3e8931d4b5eed8598f5990e7c7e7b859b8af050c00b1ff8a77f4e3db9848647",
      "assetIds": []
    },
    {
      "x": 214,
      "y": 114,
      "size": 1,
      "price": "1011000000000000000000",
      "reserved": "",
      "salt": "0x2ed1f9c22e2c42b44b95a0c16512ccb0be2bb27a0f02e57750e03fcfdc2149d5",
      "assetIds": []
    },
    {
      "x": 214,
      "y": 115,
      "size": 1,
      "price": "1011000000000000000000",
      "reserved": "",
      "salt": "0x5b3b68f3257bbb4a7c29b0be8bb65ff45e71367d0fe6f861809d3893b0b7c93b",
      "assetIds": []
    },
    {
      "x": 214,
      "y": 116,
      "size": 1,
      "price": "1011000000000000000000",
      "reserved": "",
      "salt": "0xd03eb525428fa74b4f8e42bdb0e2e8e27be1f9ab01f89a11c3b5e9829a0ef84b",
      "assetIds": []
    },
    {
      "x": 214,
      "y": 117,
      "size": 1,
      "price": "1011000000000000000000",
      "reserved": "",
      "salt": "0xd5a9580be527424dbda2889367c59c1e6a553387435d1a795ef901fd88578eb0",
      "assetIds": []
    },
    {
      "x": 214,
      "y": 118,
      "size": 1,
      "price": "4683000000000000000000",
      "reserved": "",
      "salt": "0x8859a1509e5431f33c009d6584d62c46e420e90846c7a10dd1d201cb01af9649",
      "assetIds": [
        "41506478881403507969696680653240014914910929820314476107906210059990541021186"
      ]
    },
    {
      "x": 214,
      "y": 119,
      "size": 1,
      "price": "4683000000000000000000",
      "reserved": "",
      "salt": "0x035e0200350df5f45e8286260e975bdba89d63525f20efbf9145829e48d41c0e",
      "assetIds": [
        "41506478881403507969696680653240014914910929820314476107906210059990541021186"
      ]
    },
    {
      "x": 215,
      "y": 102,
      "size": 1,
      "price": "1011000000000000000000",
      "reserved": "",
      "salt": "0x1ec86c37a7196c7a989e0baafc7eb0dc701262e06580e46031b816544034810a",
      "assetIds": []
    },
    {
      "x": 215,
      "y": 103,
      "size": 1,
      "price": "1011000000000000000000",
      "reserved": "",
      "salt": "0xa8aec9c1922356233ae0b60d97c67445f932c7949ecc16940636218b1150a405",
      "assetIds": []
    },
    {
      "x": 215,
      "y": 104,
      "size": 1,
      "price": "1011000000000000000000",
      "reserved": "",
      "salt": "0xe444cd9ba854630b47d5156a3ba84cf504bb34d0c119fe787b989367da806fd5",
      "assetIds": []
    },
    {
      "x": 215,
      "y": 105,
      "size": 1,
      "price": "1011000000000000000000",
      "reserved": "",
      "salt": "0x36cc2e6867436eafab11bb37cdac16165c0fe3b16bb829a89212332b095409e0",
      "assetIds": []
    },
    {
      "x": 215,
      "y": 106,
      "size": 1,
      "price": "1011000000000000000000",
      "reserved": "",
      "salt": "0xa8524cb20103217295727d2392f1e9deee144e19703baed3fbcf928f74ea76a6",
      "assetIds": []
    },
    {
      "x": 215,
      "y": 107,
      "size": 1,
      "price": "1011000000000000000000",
      "reserved": "",
      "salt": "0x5cc3cbb6b4ba07bde883ee2217d3fa5669aae4e46495432b824cb8caa7943d06",
      "assetIds": []
    },
    {
      "x": 215,
      "y": 114,
      "size": 1,
      "price": "1011000000000000000000",
      "reserved": "",
      "salt": "0x6892122879490368b6c252a7c36d40bf8ef30da42270423223bc8d423cc12c13",
      "assetIds": []
    },
    {
      "x": 215,
      "y": 115,
      "size": 1,
      "price": "1011000000000000000000",
      "reserved": "",
      "salt": "0x62b53b378a0574ffda33f1538e37363484fbf55fd3976d6af280114c54dfa84d",
      "assetIds": []
    },
    {
      "x": 215,
      "y": 116,
      "size": 1,
      "price": "1011000000000000000000",
      "reserved": "",
      "salt": "0xdfc6eab7764e6500dc1a7cc8d25a995e694660e3460ad7f7726aa541f97d3128",
      "assetIds": []
    },
    {
      "x": 215,
      "y": 117,
      "size": 1,
      "price": "1011000000000000000000",
      "reserved": "",
      "salt": "0xbabda32f65dbc091866b4f95a3de8accc6de47b98d579a76f513287e978bca5e",
      "assetIds": []
    },
    {
      "x": 215,
      "y": 118,
      "size": 1,
      "price": "4683000000000000000000",
      "reserved": "",
      "salt": "0xe0097ac2672e196435d04ca45e7d08a6817b59a127df732779344f34b4c7c5ab",
      "assetIds": [
        "41506478881403507969696680653240014914910929820314476107906210059990541021186"
      ]
    },
    {
      "x": 215,
      "y": 119,
      "size": 1,
      "price": "4683000000000000000000",
      "reserved": "",
      "salt": "0x84c12f3fb64467e1667864a73ae46a9ea8153d6b04b311ce926e9b66672a64f9",
      "assetIds": [
        "41506478881403507969696680653240014914910929820314476107906210059990541021186"
      ]
    },
    {
      "x": 216,
      "y": 117,
      "size": 1,
      "price": "1011000000000000000000",
      "reserved": "",
      "salt": "0xe27268a92ba7c0fb89db2259f27a4203a1c145029afe4516c5ed6cc726ceb7a8",
      "assetIds": []
    },
    {
      "x": 216,
      "y": 118,
      "size": 1,
      "price": "4683000000000000000000",
      "reserved": "",
      "salt": "0x1f80f56dc2e176e4f6f02ac7179b3a4b8c56f060f946d098f01e792fd3b29049",
      "assetIds": [
        "41506478881403507969696680653240014914910929820314476107906210059990541021186"
      ]
    },
    {
      "x": 216,
      "y": 119,
      "size": 1,
      "price": "4683000000000000000000",
      "reserved": "",
      "salt": "0x7ae81057ef9ff43502e1d7a13849155367ce512e411377a45148c1cbdef680b9",
      "assetIds": [
        "41506478881403507969696680653240014914910929820314476107906210059990541021186"
      ]
    },
    {
      "x": 216,
      "y": 126,
      "size": 1,
      "price": "4683000000000000000000",
      "reserved": "",
      "salt": "0x2144e5850d4324e8817fd78b821c4327fe914cda42786244b1a8f1837843921b",
      "assetIds": [
        "41506478881403507969696680653240014914910929820314476107906210059990541021186"
      ]
    },
    {
      "x": 216,
      "y": 127,
      "size": 1,
      "price": "4683000000000000000000",
      "reserved": "",
      "salt": "0xf4e92bc39347742d8a11e66498322824e51eb2b13accdb345400e2fe5de273a9",
      "assetIds": [
        "41506478881403507969696680653240014914910929820314476107906210059990541021186"
      ]
    },
    {
      "x": 216,
      "y": 128,
      "size": 1,
      "price": "4683000000000000000000",
      "reserved": "",
      "salt": "0xe2cad64b04f56c57922b753458aa350dec9b290ad374204fb95352bb22a50ea1",
      "assetIds": [
        "41506478881403507969696680653240014914910929820314476107906210059990541021186"
      ]
    },
    {
      "x": 217,
      "y": 117,
      "size": 1,
      "price": "1011000000000000000000",
      "reserved": "",
      "salt": "0x6dd67125ba8fdfaf6e2ef2273de9e6cd7aed430f8c0293ee3e326c9ba8d3dd3f",
      "assetIds": []
    },
    {
      "x": 217,
      "y": 118,
      "size": 1,
      "price": "1011000000000000000000",
      "reserved": "",
      "salt": "0x91a348475c441fba03a4f1343787d5da0418c32aca60233f13d363c9084783af",
      "assetIds": []
    },
    {
      "x": 217,
      "y": 119,
      "size": 1,
      "price": "4683000000000000000000",
      "reserved": "",
      "salt": "0x6743849ca761796af0f7d2bb0acd2ec072bd4f043b80aee4c8a61f2f44df2f46",
      "assetIds": [
        "41506478881403507969696680653240014914910929820314476107906210059990541021186"
      ]
    },
    {
      "x": 217,
      "y": 126,
      "size": 1,
      "price": "4683000000000000000000",
      "reserved": "",
      "salt": "0x6e88a3d7a4eb6193e2017837b241277a2eb40844771ca54e5155094f61d02ead",
      "assetIds": [
        "41506478881403507969696680653240014914910929820314476107906210059990541021186"
      ]
    },
    {
      "x": 217,
      "y": 127,
      "size": 1,
      "price": "4683000000000000000000",
      "reserved": "",
      "salt": "0x01867a31b21130e89a054365deb1cf3cd539c9220aec5e1a1472a2325f8ff51e",
      "assetIds": [
        "41506478881403507969696680653240014914910929820314476107906210059990541021186"
      ]
    },
    {
      "x": 217,
      "y": 128,
      "size": 1,
      "price": "4683000000000000000000",
      "reserved": "",
      "salt": "0xa77b2128832a313d6990b09967b1d8117a78d0cbea54ba31e6811eb4c2bcd2c6",
      "assetIds": [
        "41506478881403507969696680653240014914910929820314476107906210059990541021186"
      ]
    },
    {
      "x": 218,
      "y": 117,
      "size": 1,
      "price": "1011000000000000000000",
      "reserved": "",
      "salt": "0xb0edd7e1bc197063faa6cfba9a6437f65a14ce524565872ba134d1b401913f27",
      "assetIds": []
    },
    {
      "x": 218,
      "y": 118,
      "size": 1,
      "price": "1011000000000000000000",
      "reserved": "",
      "salt": "0xa4a85795bff41fd12f6f4893f94905d25f2b819f50614c1ac6ef277785605f44",
      "assetIds": []
    },
    {
      "x": 218,
      "y": 119,
      "size": 1,
      "price": "4683000000000000000000",
      "reserved": "",
      "salt": "0xaafea6c0ae0152397b23358b509b9d7775f9d7e5dc4a2f02db40ac5681230262",
      "assetIds": [
        "41506478881403507969696680653240014914910929820314476107906210059990541021186"
      ]
    },
    {
      "x": 218,
      "y": 126,
      "size": 1,
      "price": "1011000000000000000000",
      "reserved": "",
      "salt": "0x355c11f841f51ffd515c804d1ae33e77dd5f329c137571e6aa5762e2763bb1b3",
      "assetIds": []
    },
    {
      "x": 218,
      "y": 127,
      "size": 1,
      "price": "1011000000000000000000",
      "reserved": "",
      "salt": "0x37973f3cc710b260ea28f5230319c23086487d07663a052d1b1db100db635466",
      "assetIds": []
    },
    {
      "x": 218,
      "y": 128,
      "size": 1,
      "price": "1011000000000000000000",
      "reserved": "",
      "salt": "0x84d099bc47b1a884240e67a205bf386288fc133d7fcce34fa9077a3376bdbc8e",
      "assetIds": []
    },
    {
      "x": 219,
      "y": 120,
      "size": 1,
      "price": "4683000000000000000000",
      "reserved": "",
      "salt": "0x735115cb0b5154e6f569840ef3c7e2a5655e5b241dea629386f9e2e53f1d3e84",
      "assetIds": [
        "41506478881403507969696680653240014914910929820314476107906210059990541021186"
      ]
    },
    {
      "x": 219,
      "y": 121,
      "size": 1,
      "price": "4683000000000000000000",
      "reserved": "",
      "salt": "0x9a6e5f5ebc1fc5e734daaffc1be671765ee4a670b171dfe0adfb85dd4aca4278",
      "assetIds": [
        "41506478881403507969696680653240014914910929820314476107906210059990541021186"
      ]
    },
    {
      "x": 219,
      "y": 122,
      "size": 1,
      "price": "4683000000000000000000",
      "reserved": "",
      "salt": "0xcf8958a60741a4427d86fa14c97c02141dad0c5d61fe675759a759df1eaff443",
      "assetIds": [
        "41506478881403507969696680653240014914910929820314476107906210059990541021186"
      ]
    },
    {
      "x": 219,
      "y": 123,
      "size": 1,
      "price": "1011000000000000000000",
      "reserved": "",
      "salt": "0xb13e00e27bd2f4ffe9ad273bdb5e98ccfb63a171a43a4be9c7eaadd6279b8f44",
      "assetIds": []
    },
    {
      "x": 219,
      "y": 124,
      "size": 1,
      "price": "1011000000000000000000",
      "reserved": "",
      "salt": "0x302443e1f67bbe61e67c094e09b3d50a1cf8168a0433691b62093963ca56f5d5",
      "assetIds": []
    },
    {
      "x": 219,
      "y": 125,
      "size": 1,
      "price": "1011000000000000000000",
      "reserved": "",
      "salt": "0xc823805daaf884eacefbd7f0a88f15781a3609409e9198e16296b0bffc7a5b9a",
      "assetIds": []
    },
    {
      "x": 220,
      "y": 120,
      "size": 1,
      "price": "1011000000000000000000",
      "reserved": "",
      "salt": "0x6332101cd1e6d5e28d9366696f05120538fa2c9f17a6360e53df1fabdf5a206d",
      "assetIds": []
    },
    {
      "x": 220,
      "y": 121,
      "size": 1,
      "price": "1011000000000000000000",
      "reserved": "",
      "salt": "0x1f5dd74c2f54dbce09b51b673952066f3e056feae57c22654bd107b4fa67ebb6",
      "assetIds": []
    },
    {
      "x": 220,
      "y": 122,
      "size": 1,
      "price": "1011000000000000000000",
      "reserved": "",
      "salt": "0xd25e2336621c7a4a963cfa0ba55cb96984669570a2d0ef80f3b929561227fb08",
      "assetIds": []
    },
    {
      "x": 220,
      "y": 123,
      "size": 1,
      "price": "1011000000000000000000",
      "reserved": "",
      "salt": "0xf642b04d026fcd93202d3e7c65ec0d25a2937a9e62006e891429bce9b51affd1",
      "assetIds": []
    },
    {
      "x": 220,
      "y": 124,
      "size": 1,
      "price": "1011000000000000000000",
      "reserved": "",
      "salt": "0x2cbb99418081d02cf95ac0a30b0127b9b4febd0526dddc6902c79bb05208fef7",
      "assetIds": []
    },
    {
      "x": 220,
      "y": 125,
      "size": 1,
      "price": "1011000000000000000000",
      "reserved": "",
      "salt": "0xfa3aedf59e77062f60823c1aa8699cf2c2077a83bc4bdfe9b7232236da1d6aca",
      "assetIds": []
    },
    {
      "x": 221,
      "y": 120,
      "size": 1,
      "price": "1011000000000000000000",
      "reserved": "",
      "salt": "0x56affb78de0b04c8658afb934f0c9d108290593252b89f7c2d2099e181dd4791",
      "assetIds": []
    },
    {
      "x": 221,
      "y": 121,
      "size": 1,
      "price": "1011000000000000000000",
      "reserved": "",
      "salt": "0xfb7e5515762e33c780f23c05e53fed8d10c43d19e8095edd18289c9734d50261",
      "assetIds": []
    },
    {
      "x": 221,
      "y": 122,
      "size": 1,
      "price": "1011000000000000000000",
      "reserved": "",
      "salt": "0x2aec22373cea7e6d71e7054a3d7c5c84260516118ced6fc5d2c9880dedca9099",
      "assetIds": []
    },
    {
      "x": 221,
      "y": 123,
      "size": 1,
      "price": "1011000000000000000000",
      "reserved": "",
      "salt": "0x089ff98c8e24554f2469245b3eb5227af7f7ff47ccb338002dbaf066ef9551e2",
      "assetIds": []
    },
    {
      "x": 221,
      "y": 124,
      "size": 1,
      "price": "1011000000000000000000",
      "reserved": "",
      "salt": "0xabbc185123b474090b95bba23f0ccdcf020dd1ca14dfc28ed660182350a6cbc5",
      "assetIds": []
    },
    {
      "x": 221,
      "y": 125,
      "size": 1,
      "price": "1011000000000000000000",
      "reserved": "",
      "salt": "0x4269535d3c477586e9767d4c89ae26e9f03d0241fe6bea2fc5bfa673c344a6bc",
      "assetIds": []
    },
    {
      "x": 222,
      "y": 123,
      "size": 1,
      "price": "1011000000000000000000",
      "reserved": "",
      "salt": "0xf2d95b038748c674a5f93925c54c65e05f02145d7fec1aba5fcef1e1ac2ab2b6",
      "assetIds": []
    },
    {
      "x": 222,
      "y": 124,
      "size": 1,
      "price": "1011000000000000000000",
      "reserved": "",
      "salt": "0x4579cd0c03f116d2effc659d3af9f16b1603b112d9fdd3bf9cef9cc03ab415df",
      "assetIds": []
    },
    {
      "x": 222,
      "y": 125,
      "size": 1,
      "price": "1011000000000000000000",
      "reserved": "",
      "salt": "0xe8c083ae1c9c9cfe48900482907c4cd90eaa6db4f3acd979f3cd9c240eaaaf5a",
      "assetIds": []
    },
    {
      "x": 223,
      "y": 123,
      "size": 1,
      "price": "1011000000000000000000",
      "reserved": "",
      "salt": "0x4cb4729482112680d6e394913b010144662c3a8017d12aed7171273a1971eeb7",
      "assetIds": []
    },
    {
      "x": 223,
      "y": 124,
      "size": 1,
      "price": "1011000000000000000000",
      "reserved": "",
      "salt": "0x624f56a218500e93c9390c42e80aca9173a2aca59ffc812ead2d8e12b6a506bc",
      "assetIds": []
    },
    {
      "x": 223,
      "y": 125,
      "size": 1,
      "price": "1011000000000000000000",
      "reserved": "",
      "salt": "0xcfd74e2bd192e79efcb38c58c62285fce9ddb0d137f0885c06810f4fed450996",
      "assetIds": []
    },
    {
      "x": 224,
      "y": 123,
      "size": 1,
      "price": "1011000000000000000000",
      "reserved": "",
      "salt": "0x5226cf4b3156ba0c18dfb6d2aaf3d33b9d4570b3843f90c9aeafecd48f9b368a",
      "assetIds": []
    },
    {
      "x": 224,
      "y": 124,
      "size": 1,
      "price": "1011000000000000000000",
      "reserved": "",
      "salt": "0x043f4fe668ef88ad05ce3243c1432378a575f7a09df8a923001d1727f5c4c6e3",
      "assetIds": []
    },
    {
      "x": 224,
      "y": 125,
      "size": 1,
      "price": "1011000000000000000000",
      "reserved": "",
      "salt": "0x0b090100aed6e2d220b37a656eec00ac6eb66873f51cb2c43bd136be81264534",
      "assetIds": []
    },
    {
      "x": 207,
      "y": 117,
      "size": 3,
      "price": "8648000000000000000000",
      "reserved": "0x7a9fe22691c811ea339d9b73150e6911a5343dca",
      "salt": "0xc7445959874aab5aad49fd05a6b691a8ad984a29c8d112e9e5cda119f888de65",
      "assetIds": []
    },
    {
      "x": 210,
      "y": 117,
      "size": 3,
      "price": "8648000000000000000000",
      "reserved": "0x7a9fe22691c811ea339d9b73150e6911a5343dca",
      "salt": "0x8f58a5a68e065d640d9f292d6630ffaa4ce073cf7c11b27423f0afe8325b2302",
      "assetIds": []
    },
    {
      "x": 216,
      "y": 120,
      "size": 3,
      "price": "8648000000000000000000",
      "reserved": "0x7a9fe22691c811ea339d9b73150e6911a5343dca",
      "salt": "0xbfd5f38dfd6799975da1cd4de60319b30fe1ed6f0d496780b5b7e2f0b267c4e4",
      "assetIds": []
    },
    {
      "x": 216,
      "y": 123,
      "size": 3,
      "price": "8648000000000000000000",
      "reserved": "0x7a9fe22691c811ea339d9b73150e6911a5343dca",
      "salt": "0x033e27a4920e43b958663ae3018692f5c06b9d47417242f329eec48778e24faf",
      "assetIds": []
    },
    {
      "x": 216,
      "y": 129,
      "size": 3,
      "price": "8648000000000000000000",
      "reserved": "0x7a9fe22691c811ea339d9b73150e6911a5343dca",
      "salt": "0x96275443c97c35fc1eeaaa2e68f115eba46ad83c75fdd15308d736542dea5cb5",
      "assetIds": []
    },
    {
      "x": 204,
      "y": 102,
      "size": 6,
      "price": "32772000000000000000000",
      "reserved": "0x7a9fe22691c811ea339d9b73150e6911a5343dca",
      "salt": "0xad0a812454b81bcb05edf3114f8da5fea813667c8ba5a23688253064f719e071",
      "assetIds": []
    },
    {
      "x": 204,
      "y": 120,
      "size": 12,
      "price": "123806000000000000000000",
      "reserved": "0x7a9fe22691c811ea339d9b73150e6911a5343dca",
      "salt": "0x8dd7c246d12aa5560ac419b2d7379885e3713722dac8e5ed19b024585ebb794f",
      "assetIds": []
    }
  ],
  "solcInputHash": "e17a5bb930c92aaeeb80a52119ce77b7",
  "bytecode": "0x610160604052620d2f0060055534801561001857600080fd5b506040516200284d3803806200284d83398181016040526101a081101561003e57600080fd5b50805160208201516040830151606080850151608086015160a08088015160c0808a015160e08b01516101008c01516101208d01516101408e01516101608f0151610180909f0151600280546001600160a01b0319166001600160a01b03871617905560038490558e8c1b6001600160601b03199081169099529a8d901b9097169094529a9b999a98999698959793969195909490939091906100e28b600161015d565b600680546001600160a01b039a8b166001600160a01b031991821617909155610140989098526101209690965260008054998916998816999099179098556001600160601b0319606092831b811660e05290821b811660805296901b909516610100525060078054919093169116179055506101c192505050565b6001600160a01b038216600081815260016020908152604091829020805460ff191685151590811790915582519384529083015280517fb21eb88b4e33b3f1281830a7178d74d8aa73220416215726b68ae23d539515cb9281900390910190a15050565b60805160601c60a05160601c60c05160601c60e05160601c6101005160601c61012051610140516126066200024760003980610b3d528061206c525080610b1952806112ec5250806120da525080611841528061199e5250806117f75280611b9d528061210e525080611872528061196f525080610eb25280611c8952506126066000f3fe608060405234801561001057600080fd5b506004361061011b5760003560e01c80638f283970116100b2578063c10a420811610081578063dc5074af11610066578063dc5074af1461085f578063e56f8a9e14610885578063f23a6e61146108a25761011b565b8063c10a420814610780578063caed3500146108575761011b565b80638f28397014610500578063984d625214610526578063b522ecff146105f8578063bc197c811461061e5761011b565b806365194ce7116100ee57806365194ce7146103485780636e9960c3146104a657806377f1c3ac146104ca5780638a04af6a146104d25761011b565b80631187fd3c1461012057806325cb5bc014610300578063495906571461031a57806358bc294414610322575b600080fd5b6102fe600480360361012081101561013757600080fd5b6001600160a01b038235811692602081013582169260408201359092169181019060808101606082013564010000000081111561017357600080fd5b82018360208201111561018557600080fd5b803590602001918460208302840111640100000000831117156101a757600080fd5b919390928235926040810190602001356401000000008111156101c957600080fd5b8201836020820111156101db57600080fd5b803590602001918460208302840111640100000000831117156101fd57600080fd5b91939092909160208101903564010000000081111561021b57600080fd5b82018360208201111561022d57600080fd5b8035906020019184602083028401116401000000008311171561024f57600080fd5b91939092909160208101903564010000000081111561026d57600080fd5b82018360208201111561027f57600080fd5b803590602001918460018302840111640100000000831117156102a157600080fd5b9193909290916020810190356401000000008111156102bf57600080fd5b8201836020820111156102d157600080fd5b803590602001918460018302840111640100000000831117156102f357600080fd5b509092509050610937565b005b610308610b17565b60408051918252519081900360200190f35b610308610b3b565b6102fe6004803603602081101561033857600080fd5b50356001600160a01b0316610b5f565b6103ee6004803603602081101561035e57600080fd5b81019060208101813564010000000081111561037957600080fd5b82018360208201111561038b57600080fd5b803590602001918460018302840111640100000000831117156103ad57600080fd5b91908080601f016020809104026020016040519081016040528093929190818152602001838380828437600092019190915250929550610c0a945050505050565b6040518080602001866001600160a01b03166001600160a01b03168152602001856001600160a01b03166001600160a01b03168152602001848152602001838152602001828103825287818151815260200191508051906020019080838360005b8381101561046757818101518382015260200161044f565b50505050905090810190601f1680156104945780820380516001836020036101000a031916815260200191505b50965050505050505060405180910390f35b6104ae610d0f565b604080516001600160a01b039092168252519081900360200190f35b610308610d1e565b6102fe600480360360408110156104e857600080fd5b506001600160a01b0381351690602001351515610d24565b6102fe6004803603602081101561051657600080fd5b50356001600160a01b0316610d7b565b6102fe6004803603606081101561053c57600080fd5b6001600160a01b03823516919081019060408101602082013564010000000081111561056757600080fd5b82018360208201111561057957600080fd5b8035906020019184602083028401116401000000008311171561059b57600080fd5b9193909290916020810190356401000000008111156105b957600080fd5b8201836020820111156105cb57600080fd5b803590602001918460208302840111640100000000831117156105ed57600080fd5b509092509050610e51565b6102fe6004803603602081101561060e57600080fd5b50356001600160a01b0316610fdc565b61074b600480360360a081101561063457600080fd5b6001600160a01b03823581169260208101359091169181019060608101604082013564010000000081111561066857600080fd5b82018360208201111561067a57600080fd5b8035906020019184602083028401116401000000008311171561069c57600080fd5b9193909290916020810190356401000000008111156106ba57600080fd5b8201836020820111156106cc57600080fd5b803590602001918460208302840111640100000000831117156106ee57600080fd5b91939092909160208101903564010000000081111561070c57600080fd5b82018360208201111561071e57600080fd5b8035906020019184600183028401116401000000008311171561074057600080fd5b5090925090506110c5565b604080517fffffffff000000000000000000000000000000000000000000000000000000009092168252519081900360200190f35b610843600480360360a081101561079657600080fd5b8101906020810181356401000000008111156107b157600080fd5b8201836020820111156107c357600080fd5b803590602001918460018302840111640100000000831117156107e557600080fd5b91908080601f016020809104026020016040519081016040528093929190818152602001838380828437600092019190915250929550506001600160a01b0383358116945060208401351692604081013592506060013590506110f2565b604080519115158252519081900360200190f35b6104ae61122e565b6108436004803603602081101561087557600080fd5b50356001600160a01b031661123d565b6102fe6004803603602081101561089b57600080fd5b503561125b565b61074b600480360360a08110156108b857600080fd5b6001600160a01b03823581169260208101359091169160408201359160608101359181019060a0810160808201356401000000008111156108f857600080fd5b82018360208201111561090a57600080fd5b8035906020019184600183028401116401000000008311171561092c57600080fd5b5090925090506112bf565b6109418e8d6112ea565b610a388d8d8d8d80806020026020016040519081016040528093929190818152602001838360200280828437600081840152601f19601f820116905080830192505050505050508c8c8c80806020026020016040519081016040528093929190818152602001838360200280828437600081840152601f19601f820116905080830192505050505050508b8b8080602002602001604051908101604052809392919081815260200183836020028082843760009201919091525050604080516020601f8d018190048102820181019092528b815292508b91508a908190840183828082843760009201919091525061144d92505050565b610a8c8e8c8c6003818110610a4957fe5b9050602002013586868080601f0160208091040260200160405190810160405280939291908181526020018383808284376000920191909152506117d092505050565b610aca8e8e8d8d8080602002602001604051908101604052809392919081815260200183836020028082843760009201919091525061182192505050565b610b078d898980806020026020016040519081016040528093929190818152602001838360200280828437600092019190915250611c1292505050565b5050505050505050505050505050565b7f000000000000000000000000000000000000000000000000000000000000000090565b7f000000000000000000000000000000000000000000000000000000000000000090565b6000546001600160a01b03163314610bbe576040805162461bcd60e51b815260206004820152601060248201527f53656e646572206e6f742061646d696e00000000000000000000000000000000604482015290519081900360640190fd5b600554600280546001600160a01b03908116600090815260046020526040902042909301909255805473ffffffffffffffffffffffffffffffffffffffff191692909116919091179055565b606060008060008060606000806000808a80602001905160a0811015610c2f57600080fd5b8101908080516040519392919084640100000000821115610c4f57600080fd5b908301906020820185811115610c6457600080fd5b8251640100000000811182820188101715610c7e57600080fd5b82525081516020918201929091019080838360005b83811015610cab578181015183820152602001610c93565b50505050905090810190601f168015610cd85780820380516001836020036101000a031916815260200191505b5060409081526020820151908201516060830151608090930151959f50909d509b5099509197505050505050505091939590929450565b6000546001600160a01b031690565b60035490565b6000546001600160a01b03163314610d6d5760405162461bcd60e51b815260040180806020018281038252602e8152602001806125a3602e913960400191505060405180910390fd5b610d778282611dd6565b5050565b6000546001600160a01b03163314610dda576040805162461bcd60e51b815260206004820152601b60248201527f6f6e6c792061646d696e2063616e206368616e67652061646d696e0000000000604482015290519081900360640190fd5b600054604080516001600160a01b039283168152918316602083015280517f7e644d79422f17c01e4894b5f4f588d331ebfa28653d42ae832dc59e38c9798f9281900390910190a16000805473ffffffffffffffffffffffffffffffffffffffff19166001600160a01b0392909216919091179055565b6000546001600160a01b03163314610eb0576040805162461bcd60e51b815260206004820152600e60248201527f4e4f545f415554484f52495a4544000000000000000000000000000000000000604482015290519081900360640190fd5b7f00000000000000000000000000000000000000000000000000000000000000006001600160a01b0316632eb2c2d63087878787876040518763ffffffff1660e01b815260040180876001600160a01b03166001600160a01b03168152602001866001600160a01b03166001600160a01b031681526020018060200180602001806020018481038452888882818152602001925060200280828437600083820152601f01601f19169091018581038452868152602090810191508790870280828437600081840152601f19601f8201169050808301925050508481038252600081526020016020019950505050505050505050600060405180830381600087803b158015610fbd57600080fd5b505af1158015610fd1573d6000803e3d6000fd5b505050505050505050565b6001600160a01b038116611037576040805162461bcd60e51b815260206004820152600c60248201527f5a45524f5f414444524553530000000000000000000000000000000000000000604482015290519081900360640190fd5b6000546001600160a01b03163314611096576040805162461bcd60e51b815260206004820152600e60248201527f4e4f545f415554484f52495a4544000000000000000000000000000000000000604482015290519081900360640190fd5b6006805473ffffffffffffffffffffffffffffffffffffffff19166001600160a01b0392909216919091179055565b7fbc197c810000000000000000000000000000000000000000000000000000000098975050505050505050565b60006003548211806111155750836001600160a01b0316856001600160a01b0316145b8061111f57508242115b1561112c57506000611225565b60408051606087811b7fffffffffffffffffffffffffffffffffffffffff0000000000000000000000009081166020808501919091529188901b166034830152604882018690526068808301869052835180840390910181526088830184528051908201207f19457468657265756d205369676e6564204d6573736167653a0a33320000000060a884015260c48084018290528451808503909101815260e490930190935281519101206000906111e39089611e58565b6001600160a01b038116600090815260046020526040902054909150421161121057600192505050611225565b6002546001600160a01b039081169116149150505b95945050505050565b6002546001600160a01b031690565b6001600160a01b031660009081526001602052604090205460ff1690565b6000546001600160a01b031633146112ba576040805162461bcd60e51b815260206004820152601060248201527f53656e646572206e6f742061646d696e00000000000000000000000000000000604482015290519081900360640190fd5b600355565b7ff23a6e61000000000000000000000000000000000000000000000000000000009695505050505050565b7f0000000000000000000000000000000000000000000000000000000000000000421061135e576040805162461bcd60e51b815260206004820152600c60248201527f53414c455f49535f4f5645520000000000000000000000000000000000000000604482015290519081900360640190fd5b6001600160a01b03821633148061138457503360009081526001602052604090205460ff165b6113d5576040805162461bcd60e51b815260206004820152600e60248201527f4e4f545f415554484f52495a4544000000000000000000000000000000000000604482015290519081900360640190fd5b6001600160a01b03811615806113fc5750816001600160a01b0316816001600160a01b0316145b610d77576040805162461bcd60e51b815260206004820152600d60248201527f52455345525645445f4c414e4400000000000000000000000000000000000000604482015290519081900360640190fd5b600087878760008151811061145e57fe5b60200260200101518860018151811061147357fe5b60200260200101518960028151811061148857fe5b60200260200101518a60038151811061149d57fe5b60200260200101518a8a60405160200180828051906020019060200280838360005b838110156114d75781810151838201526020016114bf565b50505050905001915050604051602081830303815290604052805190602001208a60405160200180828051906020019060200280838360005b83811015611528578181015183820152602001611510565b5050505090500191505060405160208183030381529060405280519060200120604051602001808a6001600160a01b03166001600160a01b031660601b8152601401896001600160a01b03166001600160a01b031660601b81526014018881526020018781526020018681526020018581526020018481526020018381526020018281526020019950505050505050505050604051602081830303815290604052805190602001209050600760009054906101000a90046001600160a01b03166001600160a01b031663012847ed83836040518363ffffffff1660e01b81526004018080602001838152602001828103825284818151815260200191508051906020019080838360005b8381101561164a578181015183820152602001611632565b50505050905090810190601f1680156116775780820380516001836020036101000a031916815260200191505b50935050505060206040518083038186803b15801561169557600080fd5b505afa1580156116a9573d6000803e3d6000fd5b505050506040513d60208110156116bf57600080fd5b5051611712576040805162461bcd60e51b815260206004820152600c60248201527f494e56414c49445f415554480000000000000000000000000000000000000000604482015290519081900360640190fd5b60006117738760008151811061172457fe5b60200260200101518860018151811061173957fe5b60200260200101518960028151811061174e57fe5b60200260200101518a60038151811061176357fe5b60200260200101518c8b8b611f25565b905061177f8482611fca565b610fd1576040805162461bcd60e51b815260206004820152600c60248201527f494e56414c49445f4c414e440000000000000000000000000000000000000000604482015290519081900360640190fd5b60006117dc8484612095565b60065490915061181b908590839085906001600160a01b03167f00000000000000000000000000000000000000000000000000000000000000006121ee565b50505050565b8060028151811061182e57fe5b60200260200101516001148061186b57507f00000000000000000000000000000000000000000000000000000000000000006001600160a01b0316155b1561196d577f00000000000000000000000000000000000000000000000000000000000000006001600160a01b0316636e1e3bbf83836002815181106118ad57fe5b6020026020010151846000815181106118c257fe5b6020026020010151856001815181106118d757fe5b60200260200101516040518563ffffffff1660e01b815260040180856001600160a01b03166001600160a01b031681526020018481526020018381526020018281526020018060200182810382526000815260200160200195505050505050600060405180830381600087803b15801561195057600080fd5b505af1158015611964573d6000803e3d6000fd5b50505050611b0d565b7f00000000000000000000000000000000000000000000000000000000000000006001600160a01b0316636e1e3bbf7f0000000000000000000000000000000000000000000000000000000000000000836002815181106119ca57fe5b6020026020010151846000815181106119df57fe5b6020026020010151856001815181106119f457fe5b60200260200101518760405160200180826001600160a01b03166001600160a01b031681526020019150506040516020818303038152906040526040518663ffffffff1660e01b815260040180866001600160a01b03166001600160a01b0316815260200185815260200184815260200183815260200180602001828103825283818151815260200191508051906020019080838360005b83811015611aa4578181015183820152602001611a8c565b50505050905090810190601f168015611ad15780820380516001836020036101000a031916815260200191505b509650505050505050600060405180830381600087803b158015611af457600080fd5b505af1158015611b08573d6000803e3d6000fd5b505050505b61019881600181518110611b1d57fe5b60200260200101510281600081518110611b3357fe5b602002602001015101826001600160a01b0316846001600160a01b03167fe4dfa6ac11314892f3029b34a25b1a887da3b1cab2bbf8506d87128ba6e3ac0284600281518110611b7e57fe5b602002602001015185600381518110611b9357fe5b60200260200101517f000000000000000000000000000000000000000000000000000000000000000087600381518110611bc957fe5b602002602001015160405180858152602001848152602001836001600160a01b03166001600160a01b0316815260200182815260200194505050505060405180910390a4505050565b6060815167ffffffffffffffff81118015611c2c57600080fd5b50604051908082528060200260200182016040528015611c56578160200160208202803683370190505b50905060005b8251811015611c86576001828281518110611c7357fe5b6020908102919091010152600101611c5c565b507f00000000000000000000000000000000000000000000000000000000000000006001600160a01b0316632eb2c2d6308585856040518563ffffffff1660e01b815260040180856001600160a01b03166001600160a01b03168152602001846001600160a01b03166001600160a01b03168152602001806020018060200180602001848103845286818151815260200191508051906020019060200280838360005b83811015611d41578181015183820152602001611d29565b50505050905001848103835285818151815260200191508051906020019060200280838360005b83811015611d80578181015183820152602001611d68565b50505050905001848103825260008152602001602001975050505050505050600060405180830381600087803b158015611db957600080fd5b505af1158015611dcd573d6000803e3d6000fd5b50505050505050565b6001600160a01b03821660008181526001602090815260409182902080547fffffffffffffffffffffffffffffffffffffffffffffffffffffffffffffff001685151590811790915582519384529083015280517fb21eb88b4e33b3f1281830a7178d74d8aa73220416215726b68ae23d539515cb9281900390910190a15050565b60008151604114611e6857600080fd5b60208201516040830151606084015160001a601b811015611e8757601b015b8060ff16601b1480611e9c57508060ff16601c145b611ea557600080fd5b6040805160008152602080820180845289905260ff8416828401526060820186905260808201859052915160019260a0808401939192601f1981019281900390910190855afa158015611efc573d6000803e3d6000fd5b5050604051601f1901519450506001600160a01b038416611f1c57600080fd5b50505092915050565b60008787878787878760405160200180888152602001878152602001868152602001858152602001846001600160a01b03166001600160a01b031660601b8152601401838152602001828051906020019060200280838360005b83811015611f97578181015183820152602001611f7f565b50505050905001975050505050505050604051602081830303815290604052805190602001209050979650505050505050565b600081815b8451811015612069576000858281518110611fe657fe5b602002602001015190508083101561202e5782816040516020018083815260200182815260200192505050604051602081830303815290604052805190602001209250612060565b808360405160200180838152602001828152602001925050506040516020818303038152906040528051906020012092505b50600101611fcf565b507f00000000000000000000000000000000000000000000000000000000000000001490505b92915050565b6000806120ba60646120ae85600563ffffffff61247016565b9063ffffffff6124e016565b604080516323b872dd60e01b81526001600160a01b0387811660048301527f0000000000000000000000000000000000000000000000000000000000000000811660248301526044820184905291519293507f0000000000000000000000000000000000000000000000000000000000000000909116916323b872dd916064808201926020929091908290030181600087803b15801561215957600080fd5b505af115801561216d573d6000803e3d6000fd5b505050506040513d602081101561218357600080fd5b50516121d6576040805162461bcd60e51b815260206004820152601360248201527f4645455f5452414e534645525f4641494c454400000000000000000000000000604482015290519081900360640190fd5b6121e6838263ffffffff61254516565b949350505050565b8251819085901561239857606060008060008061220a8a610c0a565b939850919650945092509050600061222586868686866110f2565b156122b35761223f6122378d84612470565b6127106124e0565b9050886001600160a01b0316846001600160a01b0316866001600160a01b03167fac7a699eb95c3c6d390ec4626de17ef9a67b35891efdb197beba7c7fdd45fac48f858760405180848152602001838152602001828152602001935050505060405180910390a46122b08782612545565b96505b801561239157604080516323b872dd60e01b81526001600160a01b038f811660048301528781166024830152604482018490529151918a16916323b872dd916064808201926020929091908290030181600087803b15801561231457600080fd5b505af1158015612328573d6000803e3d6000fd5b505050506040513d602081101561233e57600080fd5b5051612391576040805162461bcd60e51b815260206004820152601960248201527f636f6d6d6973696f6e207472616e73666572206661696c656400000000000000604482015290519081900360640190fd5b5050505050505b604080516323b872dd60e01b81526001600160a01b0389811660048301528681166024830152604482018490529151918416916323b872dd916064808201926020929091908290030181600087803b1580156123f357600080fd5b505af1158015612407573d6000803e3d6000fd5b505050506040513d602081101561241d57600080fd5b5051611dcd576040805162461bcd60e51b815260206004820152601760248201527f7061796d656e74207472616e73666572206661696c6564000000000000000000604482015290519081900360640190fd5b60008261247f5750600061208f565b508181028183828161248d57fe5b041461208f576040805162461bcd60e51b815260206004820152600860248201527f6f766572666c6f77000000000000000000000000000000000000000000000000604482015290519081900360640190fd5b600081612534576040805162461bcd60e51b815260206004820152600960248201527f64697662797a65726f0000000000000000000000000000000000000000000000604482015290519081900360640190fd5b81838161253d57fe5b049392505050565b60008282111561259c576040805162461bcd60e51b815260206004820152600860248201527f756e6465666c6f77000000000000000000000000000000000000000000000000604482015290519081900360640190fd5b5090039056fe6f6e6c792061646d696e2063616e207365747570206d6574615472616e73616374696f6e50726f636573736f7273a2646970667358221220fc9205bafc138c1de206481f144dc3e7818922fbe1a20d2a71392e5e2e413c1a64736f6c63430006050033",
  "devdoc": {
    "methods": {
      "buyLandWithSand(address,address,address,uint256[],bytes32,uint256[],bytes32[],bytes,bytes)": {
        "params": {
          "buyer": "address that perform the payment",
          "info": "[X_INDEX=0] x coordinate of the Land [Y_INDEX=1] y coordinate of the Land [SIZE_INDEX=2] size of the pack of Land to purchase [PRICE_INDEX=3] price in SAND to purchase that Land",
          "proof": "merkleProof for that particular Land",
          "reserved": "the reserved address (if any)",
          "to": "address that will own the purchased Land"
        }
      },
      "changeAdmin(address)": {
        "details": "change the administrator to be `newAdmin`.",
        "params": {
          "newAdmin": "address of the new administrator."
        }
      },
      "getAdmin()": {
        "details": "gives the current administrator of this contract.",
        "returns": {
          "_0": "the current administrator of this contract."
        }
      },
      "getSigningWallet()": {
        "details": "signing wallet authorized for referral",
        "returns": {
          "_0": "the address of the signing wallet"
        }
      },
      "isMetaTransactionProcessor(address)": {
        "details": "check whether address `who` is given meta-transaction execution rights.",
        "params": {
          "who": "The address to query."
        },
        "returns": {
          "_0": "whether the address has meta-transaction execution rights."
        }
      },
      "isReferralValid(bytes,address,address,uint256,uint256)": {
        "params": {
          "commissionRate": "The commissionRate of the referral",
          "expiryTime": "The expiry time of the referral",
          "referee": "The address of the referee",
          "referrer": "The address of the referrer",
          "signature": "The signature to check (signed referral)"
        },
        "returns": {
          "_0": "True if the referral is valid"
        }
      },
      "setMetaTransactionProcessor(address,bool)": {
        "details": "Enable or disable the ability of `metaTransactionProcessor` to perform meta-tx (metaTransactionProcessor rights).",
        "params": {
          "enabled": "set whether the metaTransactionProcessor is enabled or disabled.",
          "metaTransactionProcessor": "address that will be given/removed metaTransactionProcessor rights."
        }
      },
      "setReceivingWallet(address)": {
        "params": {
          "newWallet": "address of the new receiving wallet"
        }
      },
      "updateMaxCommissionRate(uint256)": {
        "details": "Update the maximum commission rate",
        "params": {
          "newMaxCommissionRate": "The new maximum commission rate"
        }
      },
      "updateSigningWallet(address)": {
        "details": "Update the signing wallet",
        "params": {
          "newSigningWallet": "The new address of the signing wallet"
        }
      },
      "withdrawAssets(address,uint256[],uint256[])": {
        "params": {
          "assetIds": "the assetIds to be transferred",
          "to": "intended recipient of the asset tokens",
          "values": "the quantities of the assetIds to be transferred"
        }
      }
    },
    "title": "Estate Sale contract with referral"
  },
  "userdoc": {
    "methods": {
      "buyLandWithSand(address,address,address,uint256[],bytes32,uint256[],bytes32[],bytes,bytes)": {
        "notice": "buy Land with SAND using the merkle proof associated with it"
      },
      "getExpiryTime()": {
        "notice": "Gets the expiry time for the current sale"
      },
      "getMaxCommisionRate()": {
        "notice": "the max commision rate"
      },
      "getMerkleRoot()": {
        "notice": "Gets the Merkle root associated with the current sale"
      },
      "isReferralValid(bytes,address,address,uint256,uint256)": {
        "notice": "Check if a referral is valid"
      },
      "setReceivingWallet(address)": {
        "notice": "set the wallet receiving the proceeds"
      },
      "withdrawAssets(address,uint256[],uint256[])": {
        "notice": "enable Admin to withdraw remaining assets from EstateSaleWithFee contract"
      }
    },
    "notice": "This contract manages the sale of our lands as Estates"
  },
  "storageLayout": {
    "storage": [
      {
        "astId": 13650,
        "contract": "src/solc_0.6/EstateSale/EstateSaleWithAuth.sol:EstateSaleWithAuth",
        "label": "_admin",
        "offset": 0,
        "slot": "0",
        "type": "t_address"
      },
      {
        "astId": 13712,
        "contract": "src/solc_0.6/EstateSale/EstateSaleWithAuth.sol:EstateSaleWithAuth",
        "label": "_metaTransactionContracts",
        "offset": 0,
        "slot": "1",
        "type": "t_mapping(t_address,t_bool)"
      },
      {
        "astId": 11828,
        "contract": "src/solc_0.6/EstateSale/EstateSaleWithAuth.sol:EstateSaleWithAuth",
        "label": "_signingWallet",
        "offset": 0,
        "slot": "2",
        "type": "t_address"
      },
      {
        "astId": 11830,
        "contract": "src/solc_0.6/EstateSale/EstateSaleWithAuth.sol:EstateSaleWithAuth",
        "label": "_maxCommissionRate",
        "offset": 0,
        "slot": "3",
        "type": "t_uint256"
      },
      {
        "astId": 11834,
        "contract": "src/solc_0.6/EstateSale/EstateSaleWithAuth.sol:EstateSaleWithAuth",
        "label": "_previousSigningWallets",
        "offset": 0,
        "slot": "4",
        "type": "t_mapping(t_address,t_uint256)"
      },
      {
        "astId": 11843,
        "contract": "src/solc_0.6/EstateSale/EstateSaleWithAuth.sol:EstateSaleWithAuth",
        "label": "_previousSigningDelay",
        "offset": 0,
        "slot": "5",
        "type": "t_uint256"
      },
      {
        "astId": 7453,
        "contract": "src/solc_0.6/EstateSale/EstateSaleWithAuth.sol:EstateSaleWithAuth",
        "label": "_wallet",
        "offset": 0,
        "slot": "6",
        "type": "t_address_payable"
      },
      {
        "astId": 7455,
        "contract": "src/solc_0.6/EstateSale/EstateSaleWithAuth.sol:EstateSaleWithAuth",
        "label": "_authValidator",
        "offset": 0,
        "slot": "7",
        "type": "t_contract(AuthValidator)6784"
      }
    ],
    "types": {
      "t_address": {
        "encoding": "inplace",
        "label": "address",
        "numberOfBytes": "20"
      },
      "t_address_payable": {
        "encoding": "inplace",
        "label": "address payable",
        "numberOfBytes": "20"
      },
      "t_bool": {
        "encoding": "inplace",
        "label": "bool",
        "numberOfBytes": "1"
      },
      "t_contract(AuthValidator)6784": {
        "encoding": "inplace",
        "label": "contract AuthValidator",
        "numberOfBytes": "20"
      },
      "t_mapping(t_address,t_bool)": {
        "encoding": "mapping",
        "key": "t_address",
        "label": "mapping(address => bool)",
        "numberOfBytes": "32",
        "value": "t_bool"
      },
      "t_mapping(t_address,t_uint256)": {
        "encoding": "mapping",
        "key": "t_address",
        "label": "mapping(address => uint256)",
        "numberOfBytes": "32",
        "value": "t_uint256"
      },
      "t_uint256": {
        "encoding": "inplace",
        "label": "uint256",
        "numberOfBytes": "32"
      }
    }
  }
}