{
  "address": "0xB1Ac0879D2092349243d906B6E8C5D4e7881f2ea",
  "abi": [
    {
      "inputs": [
        {
          "internalType": "address",
          "name": "admin",
          "type": "address"
        }
      ],
      "stateMutability": "nonpayable",
      "type": "constructor"
    },
    {
      "anonymous": false,
      "inputs": [
        {
          "indexed": false,
          "internalType": "address",
          "name": "oldAdmin",
          "type": "address"
        },
        {
          "indexed": false,
          "internalType": "address",
          "name": "newAdmin",
          "type": "address"
        }
      ],
      "name": "AdminChanged",
      "type": "event"
    },
    {
      "anonymous": false,
      "inputs": [
        {
          "indexed": false,
          "internalType": "address",
          "name": "to",
          "type": "address"
        },
        {
          "components": [
            {
              "internalType": "uint256[]",
              "name": "ids",
              "type": "uint256[]"
            },
            {
              "internalType": "uint256[]",
              "name": "values",
              "type": "uint256[]"
            },
            {
              "internalType": "address",
              "name": "contractAddress",
              "type": "address"
            }
          ],
          "indexed": false,
          "internalType": "struct ClaimERC1155ERC721ERC20.ERC1155Claim[]",
          "name": "erc1155",
          "type": "tuple[]"
        },
        {
          "components": [
            {
              "internalType": "uint256[]",
              "name": "ids",
              "type": "uint256[]"
            },
            {
              "internalType": "address",
              "name": "contractAddress",
              "type": "address"
            }
          ],
          "indexed": false,
          "internalType": "struct ClaimERC1155ERC721ERC20.ERC721Claim[]",
          "name": "erc721",
          "type": "tuple[]"
        },
        {
          "components": [
            {
              "internalType": "uint256[]",
              "name": "amounts",
              "type": "uint256[]"
            },
            {
              "internalType": "address[]",
              "name": "contractAddresses",
              "type": "address[]"
            }
          ],
          "indexed": false,
          "internalType": "struct ClaimERC1155ERC721ERC20.ERC20Claim",
          "name": "erc20",
          "type": "tuple"
        }
      ],
      "name": "ClaimedMultipleTokens",
      "type": "event"
    },
    {
      "anonymous": false,
      "inputs": [
        {
          "indexed": false,
          "internalType": "bytes32",
          "name": "merkleRoot",
          "type": "bytes32"
        },
        {
          "indexed": false,
          "internalType": "uint256",
          "name": "expiryTime",
          "type": "uint256"
        }
      ],
      "name": "NewGiveaway",
      "type": "event"
    },
    {
      "inputs": [
        {
          "internalType": "bytes32",
          "name": "merkleRoot",
          "type": "bytes32"
        },
        {
          "internalType": "uint256",
          "name": "expiryTime",
          "type": "uint256"
        }
      ],
      "name": "addNewGiveaway",
      "outputs": [],
      "stateMutability": "nonpayable",
      "type": "function"
    },
    {
      "inputs": [
        {
          "internalType": "address",
          "name": "newAdmin",
          "type": "address"
        }
      ],
      "name": "changeAdmin",
      "outputs": [],
      "stateMutability": "nonpayable",
      "type": "function"
    },
    {
      "inputs": [
        {
          "internalType": "bytes32",
          "name": "merkleRoot",
          "type": "bytes32"
        },
        {
          "components": [
            {
              "internalType": "address",
              "name": "to",
              "type": "address"
            },
            {
              "components": [
                {
                  "internalType": "uint256[]",
                  "name": "ids",
                  "type": "uint256[]"
                },
                {
                  "internalType": "uint256[]",
                  "name": "values",
                  "type": "uint256[]"
                },
                {
                  "internalType": "address",
                  "name": "contractAddress",
                  "type": "address"
                }
              ],
              "internalType": "struct ClaimERC1155ERC721ERC20.ERC1155Claim[]",
              "name": "erc1155",
              "type": "tuple[]"
            },
            {
              "components": [
                {
                  "internalType": "uint256[]",
                  "name": "ids",
                  "type": "uint256[]"
                },
                {
                  "internalType": "address",
                  "name": "contractAddress",
                  "type": "address"
                }
              ],
              "internalType": "struct ClaimERC1155ERC721ERC20.ERC721Claim[]",
              "name": "erc721",
              "type": "tuple[]"
            },
            {
              "components": [
                {
                  "internalType": "uint256[]",
                  "name": "amounts",
                  "type": "uint256[]"
                },
                {
                  "internalType": "address[]",
                  "name": "contractAddresses",
                  "type": "address[]"
                }
              ],
              "internalType": "struct ClaimERC1155ERC721ERC20.ERC20Claim",
              "name": "erc20",
              "type": "tuple"
            },
            {
              "internalType": "bytes32",
              "name": "salt",
              "type": "bytes32"
            }
          ],
          "internalType": "struct ClaimERC1155ERC721ERC20.Claim",
          "name": "claim",
          "type": "tuple"
        },
        {
          "internalType": "bytes32[]",
          "name": "proof",
          "type": "bytes32[]"
        }
      ],
      "name": "claimMultipleTokens",
      "outputs": [],
      "stateMutability": "nonpayable",
      "type": "function"
    },
    {
      "inputs": [
        {
          "internalType": "bytes32[]",
          "name": "rootHashes",
          "type": "bytes32[]"
        },
        {
          "components": [
            {
              "internalType": "address",
              "name": "to",
              "type": "address"
            },
            {
              "components": [
                {
                  "internalType": "uint256[]",
                  "name": "ids",
                  "type": "uint256[]"
                },
                {
                  "internalType": "uint256[]",
                  "name": "values",
                  "type": "uint256[]"
                },
                {
                  "internalType": "address",
                  "name": "contractAddress",
                  "type": "address"
                }
              ],
              "internalType": "struct ClaimERC1155ERC721ERC20.ERC1155Claim[]",
              "name": "erc1155",
              "type": "tuple[]"
            },
            {
              "components": [
                {
                  "internalType": "uint256[]",
                  "name": "ids",
                  "type": "uint256[]"
                },
                {
                  "internalType": "address",
                  "name": "contractAddress",
                  "type": "address"
                }
              ],
              "internalType": "struct ClaimERC1155ERC721ERC20.ERC721Claim[]",
              "name": "erc721",
              "type": "tuple[]"
            },
            {
              "components": [
                {
                  "internalType": "uint256[]",
                  "name": "amounts",
                  "type": "uint256[]"
                },
                {
                  "internalType": "address[]",
                  "name": "contractAddresses",
                  "type": "address[]"
                }
              ],
              "internalType": "struct ClaimERC1155ERC721ERC20.ERC20Claim",
              "name": "erc20",
              "type": "tuple"
            },
            {
              "internalType": "bytes32",
              "name": "salt",
              "type": "bytes32"
            }
          ],
          "internalType": "struct ClaimERC1155ERC721ERC20.Claim[]",
          "name": "claims",
          "type": "tuple[]"
        },
        {
          "internalType": "bytes32[][]",
          "name": "proofs",
          "type": "bytes32[][]"
        }
      ],
      "name": "claimMultipleTokensFromMultipleMerkleTree",
      "outputs": [],
      "stateMutability": "nonpayable",
      "type": "function"
    },
    {
      "inputs": [
        {
          "internalType": "address",
          "name": "",
          "type": "address"
        },
        {
          "internalType": "bytes32",
          "name": "",
          "type": "bytes32"
        }
      ],
      "name": "claimed",
      "outputs": [
        {
          "internalType": "bool",
          "name": "",
          "type": "bool"
        }
      ],
      "stateMutability": "view",
      "type": "function"
    },
    {
      "inputs": [],
      "name": "getAdmin",
      "outputs": [
        {
          "internalType": "address",
          "name": "",
          "type": "address"
        }
      ],
      "stateMutability": "view",
      "type": "function"
    },
    {
      "inputs": [
        {
          "internalType": "address",
          "name": "user",
          "type": "address"
        },
        {
          "internalType": "bytes32[]",
          "name": "rootHashes",
          "type": "bytes32[]"
        }
      ],
      "name": "getClaimedStatus",
      "outputs": [
        {
          "internalType": "bool[]",
          "name": "",
          "type": "bool[]"
        }
      ],
      "stateMutability": "view",
      "type": "function"
    },
    {
      "inputs": [
        {
          "internalType": "address",
          "name": "",
          "type": "address"
        },
        {
          "internalType": "address",
          "name": "",
          "type": "address"
        },
        {
          "internalType": "uint256[]",
          "name": "",
          "type": "uint256[]"
        },
        {
          "internalType": "uint256[]",
          "name": "",
          "type": "uint256[]"
        },
        {
          "internalType": "bytes",
          "name": "",
          "type": "bytes"
        }
      ],
      "name": "onERC1155BatchReceived",
      "outputs": [
        {
          "internalType": "bytes4",
          "name": "",
          "type": "bytes4"
        }
      ],
      "stateMutability": "pure",
      "type": "function"
    },
    {
      "inputs": [
        {
          "internalType": "address",
          "name": "",
          "type": "address"
        },
        {
          "internalType": "address",
          "name": "",
          "type": "address"
        },
        {
          "internalType": "uint256",
          "name": "",
          "type": "uint256"
        },
        {
          "internalType": "uint256",
          "name": "",
          "type": "uint256"
        },
        {
          "internalType": "bytes",
          "name": "",
          "type": "bytes"
        }
      ],
      "name": "onERC1155Received",
      "outputs": [
        {
          "internalType": "bytes4",
          "name": "",
          "type": "bytes4"
        }
      ],
      "stateMutability": "pure",
      "type": "function"
    },
    {
      "inputs": [
        {
          "internalType": "address",
          "name": "",
          "type": "address"
        },
        {
          "internalType": "address",
          "name": "",
          "type": "address"
        },
        {
          "internalType": "uint256[]",
          "name": "",
          "type": "uint256[]"
        },
        {
          "internalType": "bytes",
          "name": "",
          "type": "bytes"
        }
      ],
      "name": "onERC721BatchReceived",
      "outputs": [
        {
          "internalType": "bytes4",
          "name": "",
          "type": "bytes4"
        }
      ],
      "stateMutability": "pure",
      "type": "function"
    },
    {
      "inputs": [
        {
          "internalType": "address",
          "name": "",
          "type": "address"
        },
        {
          "internalType": "address",
          "name": "",
          "type": "address"
        },
        {
          "internalType": "uint256",
          "name": "",
          "type": "uint256"
        },
        {
          "internalType": "bytes",
          "name": "",
          "type": "bytes"
        }
      ],
      "name": "onERC721Received",
      "outputs": [
        {
          "internalType": "bytes4",
          "name": "",
          "type": "bytes4"
        }
      ],
      "stateMutability": "pure",
      "type": "function"
    }
  ],
  "transactionHash": "0x17f6ea3a423401c9b33ec5a33981d102ef52ebef6f03e8e270c8b561319c61e9",
  "args": [
    "0xa4519D601F43D0b8f167842a367465681F652252"
  ],
  "solcInputHash": "03fb797234b3993780ca5854e51c66e9",
  "bytecode": "0x608060405234801561001057600080fd5b50604051611ec3380380611ec383398101604081905261002f91610054565b600080546001600160a01b0319166001600160a01b0392909216919091179055610082565b600060208284031215610065578081fd5b81516001600160a01b038116811461007b578182fd5b9392505050565b611e32806100916000396000f3fe608060405234801561001057600080fd5b50600436106100c95760003560e01c80636e9960c311610081578063bc197c811161005b578063bc197c811461019a578063c8509332146101ad578063f23a6e61146101c0576100c9565b80636e9960c3146101525780638f28397014610167578063a7d235be1461017a576100c9565b806325839ca7116100b257806325839ca7146101175780634b808c461461012c5780636aea75f11461013f576100c9565b80630f2d940b146100ce578063150b7a02146100f7575b600080fd5b6100e16100dc366004611607565b6101d3565b6040516100ee9190611a5f565b60405180910390f35b61010a6101053660046114e5565b6101f3565b6040516100ee9190611a78565b61012a6101253660046116fe565b61021d565b005b61010a61013a366004611457565b610368565b61012a61014d36600461176b565b610393565b61015a610441565b6040516100ee9190611921565b61012a610175366004611386565b610450565b61018d6101883660046115b6565b610531565b6040516100ee9190611a19565b61010a6101a83660046113a0565b6105fa565b61012a6101bb366004611630565b610627565b61010a6101ce366004611552565b6106ca565b600160209081526000928352604080842090915290825290205460ff1681565b7f150b7a020000000000000000000000000000000000000000000000000000000095945050505050565b60008481526002602052604090205483516001600160a01b031661025c5760405162461bcd60e51b815260040161025390611adc565b60405180910390fd5b83516001600160a01b03163014156102865760405162461bcd60e51b815260040161025390611bb8565b806102a35760405162461bcd60e51b815260040161025390611c15565b8042106102c25760405162461bcd60e51b815260040161025390611b81565b83516001600160a01b0316600090815260016020908152604080832088845290915290205460ff16156103075760405162461bcd60e51b815260040161025390611c4c565b83516001600160a01b0316600090815260016020818152604080842089855290915290912080547fffffffffffffffffffffffffffffffffffffffffffffffffffffffffffffff00169091179055610361858585856106f5565b5050505050565b7f4b808c46000000000000000000000000000000000000000000000000000000009695505050505050565b6000546001600160a01b031633146103f2576040805162461bcd60e51b815260206004820152600a60248201527f41444d494e5f4f4e4c5900000000000000000000000000000000000000000000604482015290519081900360640190fd5b60008281526002602052604090819020829055517fcf995c8d29c258a6c2056e0d5ddfa67f3634d25f5eed5dcf65ead06195b1a271906104359084908490611a6a565b60405180910390a15050565b6000546001600160a01b031690565b6000546001600160a01b031633146104af576040805162461bcd60e51b815260206004820152601360248201527f41444d494e5f4143434553535f44454e49454400000000000000000000000000604482015290519081900360640190fd5b600054604080516001600160a01b039283168152918316602083015280517f7e644d79422f17c01e4894b5f4f588d331ebfa28653d42ae832dc59e38c9798f9281900390910190a1600080547fffffffffffffffffffffffff0000000000000000000000000000000000000000166001600160a01b0392909216919091179055565b6060808267ffffffffffffffff8111801561054b57600080fd5b50604051908082528060200260200182016040528015610575578160200160208202803683370190505b50905060005b838110156105ef576001600160a01b0386166000908152600160205260408120908686848181106105a857fe5b90506020020135815260200190815260200160002060009054906101000a900460ff168282815181106105d757fe5b9115156020928302919091019091015260010161057b565b5090505b9392505050565b7fbc197c810000000000000000000000000000000000000000000000000000000098975050505050505050565b825184146106475760405162461bcd60e51b815260040161025390611b13565b825181146106675760405162461bcd60e51b815260040161025390611b13565b60005b848110156106c2576106ba86868381811061068157fe5b9050602002013585838151811061069457fe5b60200260200101518585858181106106a857fe5b90506020028101906101259190611d05565b60010161066a565b505050505050565b7ff23a6e61000000000000000000000000000000000000000000000000000000009695505050505050565b610733848484848080602002602001604051908101604052809392919081815260200183836020028082843760009201919091525061090692505050565b60005b836020015151811015610803578360200151818151811061075357fe5b602002602001015160200151518460200151828151811061077057fe5b602002602001015160000151511461079a5760405162461bcd60e51b815260040161025390611b13565b6107fb8460000151856020015183815181106107b257fe5b602002602001015160000151866020015184815181106107ce57fe5b602002602001015160200151876020015185815181106107ea57fe5b602002602001015160400151610940565b600101610736565b5060005b8360400151518110156108615761085984600001518560400151838151811061082c57fe5b6020026020010151600001518660400151848151811061084857fe5b6020026020010151602001516109e9565b600101610807565b5060608301515151156108b3576060830151602081015151905151146108995760405162461bcd60e51b815260040161025390611b13565b8251606084015180516020909101516108b3929190610a8f565b7fdbf330cc6723e4f92690af8e3d5103c1b06d58e85b16421cc981f407535d2f2783600001518460200151856040015186606001516040516108f894939291906119d1565b60405180910390a150505050565b600061091183610b1d565b905061091e848383610b4e565b61093a5760405162461bcd60e51b815260040161025390611aa5565b50505050565b6001600160a01b0381166109665760405162461bcd60e51b815260040161025390611b4a565b6040517f2eb2c2d60000000000000000000000000000000000000000000000000000000081526001600160a01b03821690632eb2c2d6906109b1903090889088908890600401611935565b600060405180830381600087803b1580156109cb57600080fd5b505af11580156109df573d6000803e3d6000fd5b5050505050505050565b6001600160a01b038116610a0f5760405162461bcd60e51b815260040161025390611b4a565b6040517f28cfbd460000000000000000000000000000000000000000000000000000000081526001600160a01b038216906328cfbd4690610a589030908790879060040161198d565b600060405180830381600087803b158015610a7257600080fd5b505af1158015610a86573d6000803e3d6000fd5b50505050505050565b60005b825181101561093a576000828281518110610aa957fe5b602002602001015190506000848381518110610ac157fe5b6020026020010151905060006001600160a01b0316826001600160a01b03161415610afe5760405162461bcd60e51b815260040161025390611b4a565b610b136001600160a01b038316308884610bf8565b5050600101610a92565b600081604051602001610b309190611c83565b6040516020818303038152906040528051906020012090505b919050565b600081815b8451811015610bed576000858281518110610b6a57fe5b6020026020010151905080831015610bb25782816040516020018083815260200182815260200192505050604051602081830303815290604052805190602001209250610be4565b808360405160200180838152602001828152602001925050506040516020818303038152906040528051906020012092505b50600101610b53565b509093149392505050565b604080516001600160a01b0380861660248301528416604482015260648082018490528251808303909101815260849091019091526020810180517bffffffffffffffffffffffffffffffffffffffffffffffffffffffff167f23b872dd0000000000000000000000000000000000000000000000000000000017905261093a9085906060610cd0826040518060400160405280602081526020017f5361666545524332303a206c6f772d6c6576656c2063616c6c206661696c6564815250856001600160a01b0316610d319092919063ffffffff16565b805190915015610d2c57808060200190516020811015610cef57600080fd5b5051610d2c5760405162461bcd60e51b815260040180806020018281038252602a815260200180611dd3602a913960400191505060405180910390fd5b505050565b6060610d408484600085610d48565b949350505050565b606082471015610d895760405162461bcd60e51b8152600401808060200182810382526026815260200180611dad6026913960400191505060405180910390fd5b610d9285610ea4565b610de3576040805162461bcd60e51b815260206004820152601d60248201527f416464726573733a2063616c6c20746f206e6f6e2d636f6e7472616374000000604482015290519081900360640190fd5b60006060866001600160a01b031685876040518082805190602001908083835b60208310610e225780518252601f199092019160209182019101610e03565b6001836020036101000a03801982511681845116808217855250505050505090500191505060006040518083038185875af1925050503d8060008114610e84576040519150601f19603f3d011682016040523d82523d6000602084013e610e89565b606091505b5091509150610e99828286610eaa565b979650505050505050565b3b151590565b60608315610eb95750816105f3565b825115610ec95782518084602001fd5b8160405162461bcd60e51b81526004018080602001828103825283818151815260200191508051906020019080838360005b83811015610f13578181015183820152602001610efb565b50505050905090810190601f168015610f405780820380516001836020036101000a031916815260200191505b509250505060405180910390fd5b80356001600160a01b0381168114610b4957600080fd5b60008083601f840112610f76578081fd5b50813567ffffffffffffffff811115610f8d578182fd5b6020830191508360208083028501011115610fa757600080fd5b9250929050565b600082601f830112610fbe578081fd5b8135610fd1610fcc82611d8e565b611d6a565b818152915060208083019084810160005b848110156110935781358701606080601f19838c0301121561100357600080fd5b6040805182810167ffffffffffffffff828210818311171561102157fe5b90835284880135908082111561103657600080fd5b6110448e8a84890101611154565b83528386013591508082111561105957600080fd5b506110688d8983880101611154565b8883015250611078838501610f4e565b91810191909152865250509282019290820190600101610fe2565b505050505092915050565b600082601f8301126110ae578081fd5b81356110bc610fcc82611d8e565b818152915060208083019084810160005b848110156110935781358701604080601f19838c030112156110ee57600080fd5b805181810167ffffffffffffffff828210818311171561110a57fe5b90835283870135908082111561111f57600080fd5b5061112e8c8883870101611154565b82525061113c828401610f4e565b818701528652505092820192908201906001016110cd565b600082601f830112611164578081fd5b8135611172610fcc82611d8e565b81815291506020808301908481018184028601820187101561119357600080fd5b60005b8481101561109357813584529282019290820190600101611196565b60008083601f8401126111c3578182fd5b50813567ffffffffffffffff8111156111da578182fd5b602083019150836020828501011115610fa757600080fd5b600060a08284031215611203578081fd5b61120d60a0611d6a565b905061121882610f4e565b8152602082013567ffffffffffffffff8082111561123557600080fd5b61124185838601610fae565b6020840152604084013591508082111561125a57600080fd5b6112668583860161109e565b6040840152606084013591508082111561127f57600080fd5b5061128c848285016112a2565b6060830152506080820135608082015292915050565b6000604082840312156112b3578081fd5b6040516040810167ffffffffffffffff82821081831117156112d157fe5b8160405282935084359150808211156112e957600080fd5b6112f586838701611154565b835260209150818501358181111561130c57600080fd5b85019050601f8101861361131f57600080fd5b803561132d610fcc82611d8e565b81815283810190838501858402850186018a101561134a57600080fd5b600094505b838510156113745761136081610f4e565b83526001949094019391850191850161134f565b50808587015250505050505092915050565b600060208284031215611397578081fd5b6105f382610f4e565b60008060008060008060008060a0898b0312156113bb578384fd5b6113c489610f4e565b97506113d260208a01610f4e565b9650604089013567ffffffffffffffff808211156113ee578586fd5b6113fa8c838d01610f65565b909850965060608b0135915080821115611412578586fd5b61141e8c838d01610f65565b909650945060808b0135915080821115611436578384fd5b506114438b828c016111b2565b999c989b5096995094979396929594505050565b6000806000806000806080878903121561146f578182fd5b61147887610f4e565b955061148660208801610f4e565b9450604087013567ffffffffffffffff808211156114a2578384fd5b6114ae8a838b01610f65565b909650945060608901359150808211156114c6578384fd5b506114d389828a016111b2565b979a9699509497509295939492505050565b6000806000806000608086880312156114fc578283fd5b61150586610f4e565b945061151360208701610f4e565b935060408601359250606086013567ffffffffffffffff811115611535578182fd5b611541888289016111b2565b969995985093965092949392505050565b60008060008060008060a0878903121561156a578384fd5b61157387610f4e565b955061158160208801610f4e565b94506040870135935060608701359250608087013567ffffffffffffffff8111156115aa578283fd5b6114d389828a016111b2565b6000806000604084860312156115ca578081fd5b6115d384610f4e565b9250602084013567ffffffffffffffff8111156115ee578182fd5b6115fa86828701610f65565b9497909650939450505050565b60008060408385031215611619578182fd5b61162283610f4e565b946020939093013593505050565b600080600080600060608688031215611647578283fd5b853567ffffffffffffffff8082111561165e578485fd5b61166a89838a01610f65565b9097509550602091508782013581811115611683578586fd5b8801601f81018a13611693578586fd5b80356116a1610fcc82611d8e565b81815284810190838601895b848110156116d6576116c48f8984358901016111f2565b845292870192908701906001016116ad565b509098505050506040890135925050808211156116f1578283fd5b5061154188828901610f65565b60008060008060608587031215611713578182fd5b84359350602085013567ffffffffffffffff80821115611731578384fd5b61173d888389016111f2565b94506040870135915080821115611752578384fd5b5061175f87828801610f65565b95989497509550505050565b6000806040838503121561177d578182fd5b50508035926020909101359150565b6000815180845260208085018081965082840281019150828601855b8581101561180c5782840389528151606081518187526117ca8288018261187e565b91505086820151868203888801526117e2828261187e565b6040938401516001600160a01b0316979093019690965250988501989350908401906001016117a8565b5091979650505050505050565b6000815180845260208085018081965082840281019150828601855b8581101561180c5782840389528151604081518187526118578288018261187e565b928801516001600160a01b0316968801969096525098850198935090840190600101611835565b6000815180845260208085019450808401835b838110156118ad57815187529582019590820190600101611891565b509495945050505050565b60008151604084526118cd604085018261187e565b602084810151868303878301528051808452908201935090918491908301905b808310156119165784516001600160a01b031682529383019360019290920191908301906118ed565b509695505050505050565b6001600160a01b0391909116815260200190565b60006001600160a01b03808716835280861660208401525060a0604083015261196160a083018561187e565b8281036060840152611973818561187e565b838103608090940193909352508152602001949350505050565b60006001600160a01b038086168352808516602084015250608060408301526119b9608083018461187e565b82810360609093019290925281526020019392505050565b60006001600160a01b0386168252608060208301526119f3608083018661178c565b8281036040840152611a058186611819565b90508281036060840152610e9981856118b8565b6020808252825182820181905260009190848201906040850190845b81811015611a53578351151583529284019291840191600101611a35565b50909695505050505050565b901515815260200190565b918252602082015260400190565b7fffffffff0000000000000000000000000000000000000000000000000000000091909116815260200190565b6020808252600d908201527f494e56414c49445f434c41494d00000000000000000000000000000000000000604082015260600190565b60208082526017908201527f494e56414c49445f544f5f5a45524f5f41444452455353000000000000000000604082015260600190565b6020808252600d908201527f494e56414c49445f494e50555400000000000000000000000000000000000000604082015260600190565b6020808252601d908201527f494e56414c49445f434f4e54524143545f5a45524f5f41444452455353000000604082015260600190565b60208082526014908201527f434c41494d5f504552494f445f49535f4f564552000000000000000000000000604082015260600190565b60208082526022908201527f44455354494e4154494f4e5f4d554c544947495645415741595f434f4e54524160408201527f4354000000000000000000000000000000000000000000000000000000000000606082015260800190565b60208082526017908201527f47495645415741595f444f45535f4e4f545f4558495354000000000000000000604082015260600190565b6020808252601b908201527f44455354494e4154494f4e5f414c52454144595f434c41494d45440000000000604082015260600190565b6000602082526001600160a01b038351166020830152602083015160a06040840152611cb260c084018261178c565b90506040840151601f1980858403016060860152611cd08383611819565b9250606086015191508085840301608086015250611cee82826118b8565b915050608084015160a08401528091505092915050565b60008083357fffffffffffffffffffffffffffffffffffffffffffffffffffffffffffffffe1843603018112611d39578283fd5b83018035915067ffffffffffffffff821115611d53578283fd5b6020908101925081023603821315610fa757600080fd5b60405181810167ffffffffffffffff81118282101715611d8657fe5b604052919050565b600067ffffffffffffffff821115611da257fe5b506020908102019056fe416464726573733a20696e73756666696369656e742062616c616e636520666f722063616c6c5361666545524332303a204552433230206f7065726174696f6e20646964206e6f742073756363656564a26469706673582212206bddece9bf2c3b925fc2f699b5d121272d0c01eb010dcd8196f7a314b7704dca64736f6c63430007050033",
  "devdoc": {
    "kind": "dev",
    "methods": {
      "addNewGiveaway(bytes32,uint256)": {
        "params": {
          "expiryTime": "The expiry time for the giveaway.",
          "merkleRoot": "The merkle root hash of the claim data."
        }
      },
      "changeAdmin(address)": {
        "details": "Change the administrator to be `newAdmin`.",
        "params": {
          "newAdmin": "The address of the new administrator."
        }
      },
      "claimMultipleTokens(bytes32,(address,(uint256[],uint256[],address)[],(uint256[],address)[],(uint256[],address[]),bytes32),bytes32[])": {
        "details": "Public function used to perform validity checks and progress to claim multiple token types in one claim.",
        "params": {
          "claim": "The claim struct containing the destination address, all items to be claimed and optional salt param.",
          "merkleRoot": "The merkle root hash for the specific set of items being claimed.",
          "proof": "The proof provided by the user performing the claim function."
        }
      },
      "claimMultipleTokensFromMultipleMerkleTree(bytes32[],(address,(uint256[],uint256[],address)[],(uint256[],address)[],(uint256[],address[]),bytes32)[],bytes32[][])": {
        "params": {
          "claims": "The array of claim structs, each containing a destination address, the giveaway items to be claimed and an optional salt param.",
          "proofs": "The proofs submitted for verification."
        }
      },
      "getAdmin()": {
        "details": "Get the current administrator of this contract.",
        "returns": {
          "_0": "The current administrator of this contract."
        }
      },
      "getClaimedStatus(address,bytes32[])": {
        "params": {
          "rootHashes": "The array of giveaway root hashes to check.",
          "user": "The user (intended token destination) address."
        },
        "returns": {
          "_0": "claimedGiveaways The array of bools confirming whether or not the giveaways relating to the root hashes provided have been claimed."
        }
      }
    },
    "title": "MultiGiveaway contract.",
    "version": 1
  },
  "userdoc": {
    "kind": "user",
    "methods": {
      "addNewGiveaway(bytes32,uint256)": {
        "notice": "Function to add a new giveaway."
      },
      "claimMultipleTokensFromMultipleMerkleTree(bytes32[],(address,(uint256[],uint256[],address)[],(uint256[],address)[],(uint256[],address[]),bytes32)[],bytes32[][])": {
        "notice": "Function to permit the claiming of multiple tokens from multiple giveaways to a reserved address."
      },
      "getClaimedStatus(address,bytes32[])": {
        "notice": "Function to check which giveaways have been claimed by a particular user."
      }
    },
    "notice": "This contract manages claims for multiple token types.",
    "version": 1
  },
  "storageLayout": {
    "storage": [
      {
        "astId": 7710,
        "contract": "src/solc_0.7/claims/MultiGiveaway/MultiGiveaway.sol:MultiGiveaway",
        "label": "_admin",
        "offset": 0,
        "slot": "0",
        "type": "t_address"
      },
      {
        "astId": 6052,
        "contract": "src/solc_0.7/claims/MultiGiveaway/MultiGiveaway.sol:MultiGiveaway",
        "label": "claimed",
        "offset": 0,
        "slot": "1",
        "type": "t_mapping(t_address,t_mapping(t_bytes32,t_bool))"
      },
      {
        "astId": 6056,
        "contract": "src/solc_0.7/claims/MultiGiveaway/MultiGiveaway.sol:MultiGiveaway",
        "label": "_expiryTime",
        "offset": 0,
        "slot": "2",
        "type": "t_mapping(t_bytes32,t_uint256)"
      }
    ],
    "types": {
      "t_address": {
        "encoding": "inplace",
        "label": "address",
        "numberOfBytes": "20"
      },
      "t_bool": {
        "encoding": "inplace",
        "label": "bool",
        "numberOfBytes": "1"
      },
      "t_bytes32": {
        "encoding": "inplace",
        "label": "bytes32",
        "numberOfBytes": "32"
      },
      "t_mapping(t_address,t_mapping(t_bytes32,t_bool))": {
        "encoding": "mapping",
        "key": "t_address",
        "label": "mapping(address => mapping(bytes32 => bool))",
        "numberOfBytes": "32",
        "value": "t_mapping(t_bytes32,t_bool)"
      },
      "t_mapping(t_bytes32,t_bool)": {
        "encoding": "mapping",
        "key": "t_bytes32",
        "label": "mapping(bytes32 => bool)",
        "numberOfBytes": "32",
        "value": "t_bool"
      },
      "t_mapping(t_bytes32,t_uint256)": {
        "encoding": "mapping",
        "key": "t_bytes32",
        "label": "mapping(bytes32 => uint256)",
        "numberOfBytes": "32",
        "value": "t_uint256"
      },
      "t_uint256": {
        "encoding": "inplace",
        "label": "uint256",
        "numberOfBytes": "32"
      }
    }
  }
}