{
  "abi": [
    {
      "inputs": [
        {
          "internalType": "address",
          "name": "starterPackAdmin",
          "type": "address"
        },
        {
          "internalType": "address",
          "name": "sandContractAddress",
          "type": "address"
        },
        {
          "internalType": "address",
          "name": "initialMetaTx",
          "type": "address"
        },
        {
          "internalType": "address payable",
          "name": "initialWalletAddress",
          "type": "address"
        },
        {
          "internalType": "address",
          "name": "medianizerContractAddress",
          "type": "address"
        },
        {
          "internalType": "address",
          "name": "daiTokenContractAddress",
          "type": "address"
        },
        {
          "internalType": "address",
          "name": "erc20GroupCatalystAddress",
          "type": "address"
        },
        {
          "internalType": "address",
          "name": "erc20GroupGemAddress",
          "type": "address"
        },
        {
          "internalType": "address",
          "name": "initialSigningWallet",
          "type": "address"
        },
        {
          "internalType": "uint256[]",
          "name": "initialStarterPackPrices",
          "type": "uint256[]"
        }
      ],
      "stateMutability": "nonpayable",
      "type": "constructor"
    },
    {
      "anonymous": false,
      "inputs": [
        {
          "indexed": false,
          "internalType": "address",
          "name": "oldAdmin",
          "type": "address"
        },
        {
          "indexed": false,
          "internalType": "address",
          "name": "newAdmin",
          "type": "address"
        }
      ],
      "name": "AdminChanged",
      "type": "event"
    },
    {
      "anonymous": false,
      "inputs": [
        {
          "indexed": false,
          "internalType": "address",
          "name": "metaTransactionProcessor",
          "type": "address"
        },
        {
          "indexed": false,
          "internalType": "bool",
          "name": "enabled",
          "type": "bool"
        }
      ],
      "name": "MetaTransactionProcessor",
      "type": "event"
    },
    {
      "anonymous": false,
      "inputs": [
        {
          "indexed": true,
          "internalType": "address",
          "name": "buyer",
          "type": "address"
        },
        {
          "components": [
            {
              "internalType": "uint256[]",
              "name": "catalystIds",
              "type": "uint256[]"
            },
            {
              "internalType": "uint256[]",
              "name": "catalystQuantities",
              "type": "uint256[]"
            },
            {
              "internalType": "uint256[]",
              "name": "gemIds",
              "type": "uint256[]"
            },
            {
              "internalType": "uint256[]",
              "name": "gemQuantities",
              "type": "uint256[]"
            },
            {
              "internalType": "uint256",
              "name": "nonce",
              "type": "uint256"
            }
          ],
          "indexed": false,
          "internalType": "struct StarterPackV1.Message",
          "name": "",
          "type": "tuple"
        },
        {
          "indexed": false,
          "internalType": "uint256",
          "name": "price",
          "type": "uint256"
        },
        {
          "indexed": false,
          "internalType": "address",
          "name": "token",
          "type": "address"
        },
        {
          "indexed": false,
          "internalType": "uint256",
          "name": "amountPaid",
          "type": "uint256"
        }
      ],
      "name": "Purchase",
      "type": "event"
    },
    {
      "anonymous": false,
      "inputs": [
        {
          "indexed": false,
          "internalType": "uint256[]",
          "name": "prices",
          "type": "uint256[]"
        }
      ],
      "name": "SetPrices",
      "type": "event"
    },
    {
      "inputs": [
        {
          "internalType": "address",
          "name": "newAdmin",
          "type": "address"
        }
      ],
      "name": "changeAdmin",
      "outputs": [],
      "stateMutability": "nonpayable",
      "type": "function"
    },
    {
      "inputs": [],
      "name": "getAdmin",
      "outputs": [
        {
          "internalType": "address",
          "name": "",
          "type": "address"
        }
      ],
      "stateMutability": "view",
      "type": "function"
    },
    {
      "inputs": [
        {
          "internalType": "uint256",
          "name": "sandAmount",
          "type": "uint256"
        }
      ],
      "name": "getEtherAmountWithSAND",
      "outputs": [
        {
          "internalType": "uint256",
          "name": "",
          "type": "uint256"
        }
      ],
      "stateMutability": "view",
      "type": "function"
    },
    {
      "inputs": [
        {
          "internalType": "address",
          "name": "_buyer",
          "type": "address"
        },
        {
          "internalType": "uint128",
          "name": "_queueId",
          "type": "uint128"
        }
      ],
      "name": "getNonceByBuyer",
      "outputs": [
        {
          "internalType": "uint128",
          "name": "",
          "type": "uint128"
        }
      ],
      "stateMutability": "view",
      "type": "function"
    },
    {
      "inputs": [],
      "name": "getSigningWallet",
      "outputs": [
        {
          "internalType": "address",
          "name": "",
          "type": "address"
        }
      ],
      "stateMutability": "view",
      "type": "function"
    },
    {
      "inputs": [],
      "name": "getStarterPackPrices",
      "outputs": [
        {
          "internalType": "uint256[]",
          "name": "prices",
          "type": "uint256[]"
        }
      ],
      "stateMutability": "view",
      "type": "function"
    },
    {
      "inputs": [],
      "name": "isDAIEnabled",
      "outputs": [
        {
          "internalType": "bool",
          "name": "",
          "type": "bool"
        }
      ],
      "stateMutability": "view",
      "type": "function"
    },
    {
      "inputs": [],
      "name": "isETHEnabled",
      "outputs": [
        {
          "internalType": "bool",
          "name": "",
          "type": "bool"
        }
      ],
      "stateMutability": "view",
      "type": "function"
    },
    {
      "inputs": [
        {
          "internalType": "address",
          "name": "who",
          "type": "address"
        }
      ],
      "name": "isMetaTransactionProcessor",
      "outputs": [
        {
          "internalType": "bool",
          "name": "",
          "type": "bool"
        }
      ],
      "stateMutability": "view",
      "type": "function"
    },
    {
      "inputs": [
        {
          "internalType": "address",
          "name": "buyer",
          "type": "address"
        },
        {
          "internalType": "uint256[]",
          "name": "catalystIds",
          "type": "uint256[]"
        },
        {
          "internalType": "uint256[]",
          "name": "catalystQuantities",
          "type": "uint256[]"
        },
        {
          "internalType": "uint256[]",
          "name": "gemIds",
          "type": "uint256[]"
        },
        {
          "internalType": "uint256[]",
          "name": "gemQuantities",
          "type": "uint256[]"
        },
        {
          "internalType": "uint256",
          "name": "nonce",
          "type": "uint256"
        },
        {
          "internalType": "bytes",
          "name": "signature",
          "type": "bytes"
        }
      ],
      "name": "isPurchaseValid",
      "outputs": [
        {
          "internalType": "bool",
          "name": "",
          "type": "bool"
        }
      ],
      "stateMutability": "nonpayable",
      "type": "function"
    },
    {
      "inputs": [],
      "name": "isSANDEnabled",
      "outputs": [
        {
          "internalType": "bool",
          "name": "",
          "type": "bool"
        }
      ],
      "stateMutability": "view",
      "type": "function"
    },
    {
      "inputs": [
        {
          "internalType": "address",
          "name": "buyer",
          "type": "address"
        },
        {
          "components": [
            {
              "internalType": "uint256[]",
              "name": "catalystIds",
              "type": "uint256[]"
            },
            {
              "internalType": "uint256[]",
              "name": "catalystQuantities",
              "type": "uint256[]"
            },
            {
              "internalType": "uint256[]",
              "name": "gemIds",
              "type": "uint256[]"
            },
            {
              "internalType": "uint256[]",
              "name": "gemQuantities",
              "type": "uint256[]"
            },
            {
              "internalType": "uint256",
              "name": "nonce",
              "type": "uint256"
            }
          ],
          "internalType": "struct StarterPackV1.Message",
          "name": "message",
          "type": "tuple"
        },
        {
          "internalType": "bytes",
          "name": "signature",
          "type": "bytes"
        }
      ],
      "name": "purchaseWithDAI",
      "outputs": [],
      "stateMutability": "nonpayable",
      "type": "function"
    },
    {
      "inputs": [
        {
          "internalType": "address",
          "name": "buyer",
          "type": "address"
        },
        {
          "components": [
            {
              "internalType": "uint256[]",
              "name": "catalystIds",
              "type": "uint256[]"
            },
            {
              "internalType": "uint256[]",
              "name": "catalystQuantities",
              "type": "uint256[]"
            },
            {
              "internalType": "uint256[]",
              "name": "gemIds",
              "type": "uint256[]"
            },
            {
              "internalType": "uint256[]",
              "name": "gemQuantities",
              "type": "uint256[]"
            },
            {
              "internalType": "uint256",
              "name": "nonce",
              "type": "uint256"
            }
          ],
          "internalType": "struct StarterPackV1.Message",
          "name": "message",
          "type": "tuple"
        },
        {
          "internalType": "bytes",
          "name": "signature",
          "type": "bytes"
        }
      ],
      "name": "purchaseWithETH",
      "outputs": [],
      "stateMutability": "payable",
      "type": "function"
    },
    {
      "inputs": [
        {
          "internalType": "address",
          "name": "buyer",
          "type": "address"
        },
        {
          "components": [
            {
              "internalType": "uint256[]",
              "name": "catalystIds",
              "type": "uint256[]"
            },
            {
              "internalType": "uint256[]",
              "name": "catalystQuantities",
              "type": "uint256[]"
            },
            {
              "internalType": "uint256[]",
              "name": "gemIds",
              "type": "uint256[]"
            },
            {
              "internalType": "uint256[]",
              "name": "gemQuantities",
              "type": "uint256[]"
            },
            {
              "internalType": "uint256",
              "name": "nonce",
              "type": "uint256"
            }
          ],
          "internalType": "struct StarterPackV1.Message",
          "name": "message",
          "type": "tuple"
        },
        {
          "internalType": "bytes",
          "name": "signature",
          "type": "bytes"
        }
      ],
      "name": "purchaseWithSand",
      "outputs": [],
      "stateMutability": "nonpayable",
      "type": "function"
    },
    {
      "inputs": [
        {
          "internalType": "address",
          "name": "",
          "type": "address"
        },
        {
          "internalType": "uint128",
          "name": "",
          "type": "uint128"
        }
      ],
      "name": "queuedNonces",
      "outputs": [
        {
          "internalType": "uint128",
          "name": "",
          "type": "uint128"
        }
      ],
      "stateMutability": "view",
      "type": "function"
    },
    {
      "inputs": [
        {
          "internalType": "bool",
          "name": "enabled",
          "type": "bool"
        }
      ],
      "name": "setDAIEnabled",
      "outputs": [],
      "stateMutability": "nonpayable",
      "type": "function"
    },
    {
      "inputs": [
        {
          "internalType": "bool",
          "name": "enabled",
          "type": "bool"
        }
      ],
      "name": "setETHEnabled",
      "outputs": [],
      "stateMutability": "nonpayable",
      "type": "function"
    },
    {
      "inputs": [
        {
          "internalType": "address",
          "name": "metaTransactionProcessor",
          "type": "address"
        },
        {
          "internalType": "bool",
          "name": "enabled",
          "type": "bool"
        }
      ],
      "name": "setMetaTransactionProcessor",
      "outputs": [],
      "stateMutability": "nonpayable",
      "type": "function"
    },
    {
      "inputs": [
        {
          "internalType": "uint256[]",
          "name": "prices",
          "type": "uint256[]"
        }
      ],
      "name": "setPrices",
      "outputs": [],
      "stateMutability": "nonpayable",
      "type": "function"
    },
    {
      "inputs": [
        {
          "internalType": "address payable",
          "name": "newWallet",
          "type": "address"
        }
      ],
      "name": "setReceivingWallet",
      "outputs": [],
      "stateMutability": "nonpayable",
      "type": "function"
    },
    {
      "inputs": [
        {
          "internalType": "bool",
          "name": "enabled",
          "type": "bool"
        }
      ],
      "name": "setSANDEnabled",
      "outputs": [],
      "stateMutability": "nonpayable",
      "type": "function"
    },
    {
      "inputs": [
        {
          "internalType": "address",
          "name": "newSigningWallet",
          "type": "address"
        }
      ],
      "name": "updateSigningWallet",
      "outputs": [],
      "stateMutability": "nonpayable",
      "type": "function"
    },
    {
      "inputs": [
        {
          "internalType": "address",
          "name": "to",
          "type": "address"
        },
        {
          "internalType": "uint256[]",
          "name": "catalystIds",
          "type": "uint256[]"
        },
        {
          "internalType": "uint256[]",
          "name": "gemIds",
          "type": "uint256[]"
        }
      ],
      "name": "withdrawAll",
      "outputs": [],
      "stateMutability": "nonpayable",
      "type": "function"
    }
  ],
  "address": "0x1df218be6eb661f9D2ccaA8037765fe05ca57876",
  "args": [
    "0xa4519D601F43D0b8f167842a367465681F652252",
    "0xCc933a862fc15379E441F2A16Cb943D385a4695f",
    "0xCc933a862fc15379E441F2A16Cb943D385a4695f",
    "0x60927eB036621b801491B6c5e9A60A8d2dEeD75A",
    "0x41A9Da774cD4c9323d5E73ccF4c68d1A06B67599",
    "0x6D288aA0a7c7aF331e795cBca04eE3b4026F2aE8",
    "0x5432103b4882dbdbe2D4FD1236D8123a88D423F7",
    "0x10525d460465ebb75818536A47ead0025D532461",
    "0xa4519D601F43D0b8f167842a367465681F652252",
    [
      "120000000000000000000",
      "361000000000000000000",
      "1205000000000000000000",
      "4819000000000000000000"
    ]
  ],
  "solcInputHash": "0x36c82ef8b84056b88ee8823aed5e1fc5519750de79c43c491e498b6e7f047cac",
  "bytecode": "0x610120604052610e106009553480156200001857600080fd5b50604051620031c5380380620031c58339810160408190526200003b916200029a565b600280546001600160a01b0319166001600160a01b038416179055620000638860016200011b565b600880546001600160a01b03808a166001600160a01b03199283161790925560008054928d16929091169190911790556001600160601b031960608a811b821660805287811b821660a05286811b821660c05285811b821660e05284901b16610100528051620000db9060059060208401906200017f565b508051620000f19060069060208401906200017f565b50506004805461ff001960ff199091166001171661010017905550620003c9975050505050505050565b6001600160a01b03821660009081526001602052604090819020805460ff1916831515179055517fb21eb88b4e33b3f1281830a7178d74d8aa73220416215726b68ae23d539515cb9062000173908490849062000395565b60405180910390a15050565b828054828255906000526020600020908101928215620001bd579160200282015b82811115620001bd578251825591602001919060010190620001a0565b50620001cb929150620001cf565b5090565b620001ec91905b80821115620001cb5760008155600101620001d6565b90565b8051620001fc81620003b0565b92915050565b600082601f83011262000213578081fd5b81516001600160401b03808211156200022a578283fd5b60208083026040518282820101818110858211171562000248578687fd5b6040528481529450818501925085820181870183018810156200026a57600080fd5b600091505b848210156200028f5780518452928201926001919091019082016200026f565b505050505092915050565b6000806000806000806000806000806101408b8d031215620002ba578586fd5b8a51620002c781620003b0565b60208c0151909a50620002da81620003b0565b60408c0151909950620002ed81620003b0565b60608c01519098506200030081620003b0565b60808c01519097506200031381620003b0565b9550620003248c60a08d01620001ef565b9450620003358c60c08d01620001ef565b9350620003468c60e08d01620001ef565b9250620003588c6101008d01620001ef565b6101208c01519092506001600160401b0381111562000375578182fd5b620003838d828e0162000202565b9150509295989b9194979a5092959850565b6001600160a01b039290921682521515602082015260400190565b6001600160a01b0381168114620003c657600080fd5b50565b60805160601c60a05160601c60c05160601c60e05160601c6101005160601c612d7b6200044a600039806109605280610f5e5280611301528061147352806116a05250806108c75280610ec5528061126e52806113d65280611607525080610e96528061102552508061182a5250806115d852806117675250612d7b6000f3fe6080604052600436106101805760003560e01c80638a04af6a116100d6578063bf5c3e9f1161007f578063d1b8f6b311610059578063d1b8f6b314610402578063dc5074af14610422578063e97eb0a21461044257610180565b8063bf5c3e9f146103ad578063c96f8902146103cd578063caed3500146103ed57610180565b8063a7e30684116100b0578063a7e3068414610358578063b0e6bfaa1461036d578063b522ecff1461038d57610180565b80638a04af6a146102f85780638f28397014610318578063915c85131461033857610180565b80635d8e3021116101385780636e9960c3116101125780636e9960c31461029657806379cf92d3146102b85780637c53ec4c146102d857610180565b80635d8e3021146102345780635f995c2d1461026157806369bdf25d1461027457610180565b80634a253778116101695780634a253778146101d25780634d08cbc1146101e757806358bc29441461021457610180565b80633b7c4c1514610185578063427b8d34146101a7575b600080fd5b34801561019157600080fd5b506101a56101a036600461237b565b610462565b005b3480156101b357600080fd5b506101bc6104cd565b6040516101c9919061275d565b60405180910390f35b3480156101de57600080fd5b506101bc6104dd565b3480156101f357600080fd5b50610207610202366004612267565b6104eb565b6040516101c99190612c1f565b34801561022057600080fd5b506101a561022f366004612006565b61052a565b34801561024057600080fd5b5061025461024f3660046123cb565b610583565b6040516101c99190612c3c565b6101a561026f3660046121c1565b6105be565b34801561028057600080fd5b50610289610a82565b6040516101c9919061274a565b3480156102a257600080fd5b506102ab610ada565b6040516101c991906125c7565b3480156102c457600080fd5b506101a56102d33660046122a8565b610ae9565b3480156102e457600080fd5b506101a56102f336600461237b565b610b73565b34801561030457600080fd5b506101a5610313366004612189565b610bb0565b34801561032457600080fd5b506101a5610333366004612006565b610be8565b34801561034457600080fd5b506101bc6103533660046120a2565b610c88565b34801561036457600080fd5b506101bc610d5d565b34801561037957600080fd5b506101a56103883660046121c1565b610d66565b34801561039957600080fd5b506101a56103a8366004612006565b611065565b3480156103b957600080fd5b506102076103c8366004612267565b6110e4565b3480156103d957600080fd5b506101a56103e8366004612022565b611113565b3480156103f957600080fd5b506102ab6114ef565b34801561040e57600080fd5b506101a561041d3660046121c1565b6114fe565b34801561042e57600080fd5b506101bc61043d366004612006565b6117a6565b34801561044e57600080fd5b506101a561045d36600461237b565b6117c4565b6000546001600160a01b031633146104955760405162461bcd60e51b815260040161048c90612b1c565b60405180910390fd5b6004805491151562010000027fffffffffffffffffffffffffffffffffffffffffffffffffffffffffff00ffff909216919091179055565b60045462010000900460ff165b90565b600454610100900460ff1690565b6001600160a01b03821660009081526003602090815260408083206fffffffffffffffffffffffffffffffff8086168552925290912054165b92915050565b6000546001600160a01b031633146105545760405162461bcd60e51b815260040161048c906129e3565b6002805473ffffffffffffffffffffffffffffffffffffffff19166001600160a01b0392909216919091179055565b60008061058e611825565b90506105b7816105ab85661d7cce57a2c00063ffffffff6118bf16565b9063ffffffff6118fa16565b9392505050565b336001600160a01b03851614806105e457503360009081526001602052604090205460ff165b6106005760405162461bcd60e51b815260040161048c90612a77565b600454610100900460ff166106275760405162461bcd60e51b815260040161048c90612907565b6001600160a01b03841661064d5760405162461bcd60e51b815260040161048c906127bd565b6001600160a01b0384163014156106765760405162461bcd60e51b815260040161048c90612b53565b6107b2846106848580612c45565b808060200260200160405190810160405280939291908181526020018383602002808284376000920191909152506106c3925050506020870187612c45565b80806020026020016040519081016040528093929190818152602001838360200280828437600092019190915250610702925050506040880188612c45565b80806020026020016040519081016040528093929190818152602001838360200280828437600092019190915250610741925050506060890189612c45565b8080602002602001604051908101604052809392919081815260200183836020028082843760009201919091525050604080516020601f8c018190048102820181019092528a815260808d0135935091508a908a9081908401838280828437600092019190915250610c8892505050565b6107ce5760405162461bcd60e51b815260040161048c90612975565b60006108536107dd8580612c45565b8080602002602001604051908101604052809392919081815260200183836020028082843760009201919091525061081c925050506020870187612c45565b8080602002602001604051908101604052809392919081815260200183836020028082843760009201919091525061192a92505050565b9050600061086082610583565b9050803410156108825760405162461bcd60e51b815260040161048c906127f4565b6008546040516001600160a01b039091169082156108fc029083906000818181858888f193505050501580156108bc573d6000803e3d6000fd5b506001600160a01b037f0000000000000000000000000000000000000000000000000000000000000000166317fad7fc30886108f88980612c45565b61090560208c018c612c45565b6040518763ffffffff1660e01b815260040161092696959493929190612619565b600060405180830381600087803b15801561094057600080fd5b505af1158015610954573d6000803e3d6000fd5b50506001600160a01b037f00000000000000000000000000000000000000000000000000000000000000001691506317fad7fc9050308861099860408a018a612c45565b6109a560608c018c612c45565b6040518763ffffffff1660e01b81526004016109c696959493929190612619565b600060405180830381600087803b1580156109e057600080fd5b505af11580156109f4573d6000803e3d6000fd5b50505050856001600160a01b03167fdfdb2e8aa552e0517bf744153975973b0beb2bedf0e81bbf58d7744b738197b88684600085604051610a389493929190612be7565b60405180910390a23481900315610a7a5760405133903483900380156108fc02916000818181858888f19350505050158015610a78573d6000803e3d6000fd5b505b505050505050565b60606005805480602002602001604051908101604052809291908181526020018280548015610ad057602002820191906000526020600020905b815481526020019060010190808311610abc575b5050505050905090565b6000546001600160a01b031690565b6000546001600160a01b03163314610b135760405162461bcd60e51b815260040161048c90612b1c565b60058054610b2391600691611e36565b50610b3060058383611e86565b50426007556040517f12d1878396fba767a3caf43b64d874fc1f51797ce34a657529f2e54b7813e8cc90610b67908490849061272e565b60405180910390a15050565b6000546001600160a01b03163314610b9d5760405162461bcd60e51b815260040161048c90612b1c565b6004805460ff1916911515919091179055565b6000546001600160a01b03163314610bda5760405162461bcd60e51b815260040161048c90612a1a565b610be482826119b2565b5050565b6000546001600160a01b03163314610c125760405162461bcd60e51b815260040161048c90612aae565b6000546040517f7e644d79422f17c01e4894b5f4f588d331ebfa28653d42ae832dc59e38c9798f91610c51916001600160a01b039091169084906125db565b60405180910390a16000805473ffffffffffffffffffffffffffffffffffffffff19166001600160a01b0392909216919091179055565b6000610c948884611a08565b610cb05760405162461bcd60e51b815260040161048c906129ac565b610cbb878786611adf565b610cd75760405162461bcd60e51b815260040161048c90612862565b6000878787878c88604051602001610cf496959493929190612533565b6040516020818303038152906040528051906020012090506000610d3e82604051602001610d229190612596565b6040516020818303038152906040528051906020012085611b9b565b6002546001600160a01b039081169116149a9950505050505050505050565b60045460ff1690565b336001600160a01b0385161480610d8c57503360009081526001602052604090205460ff165b610da85760405162461bcd60e51b815260040161048c90612a77565b60045462010000900460ff16610dd05760405162461bcd60e51b815260040161048c90612786565b6001600160a01b038416610df65760405162461bcd60e51b815260040161048c906127bd565b6001600160a01b038416301415610e1f5760405162461bcd60e51b815260040161048c90612b53565b610e2d846106848580612c45565b610e495760405162461bcd60e51b815260040161048c90612975565b6000610e586107dd8580612c45565b90506000610e7f670de0b6b3a76400006105ab84661d7cce57a2c00063ffffffff6118bf16565b600854909150610ebb9087906001600160a01b03167f000000000000000000000000000000000000000000000000000000000000000084611c56565b6001600160a01b037f0000000000000000000000000000000000000000000000000000000000000000166317fad7fc3088610ef68980612c45565b610f0360208c018c612c45565b6040518763ffffffff1660e01b8152600401610f2496959493929190612619565b600060405180830381600087803b158015610f3e57600080fd5b505af1158015610f52573d6000803e3d6000fd5b50506001600160a01b037f00000000000000000000000000000000000000000000000000000000000000001691506317fad7fc90503088610f9660408a018a612c45565b610fa360608c018c612c45565b6040518763ffffffff1660e01b8152600401610fc496959493929190612619565b600060405180830381600087803b158015610fde57600080fd5b505af1158015610ff2573d6000803e3d6000fd5b50505050856001600160a01b03167fdfdb2e8aa552e0517bf744153975973b0beb2bedf0e81bbf58d7744b738197b886847f0000000000000000000000000000000000000000000000000000000000000000856040516110559493929190612be7565b60405180910390a2505050505050565b6001600160a01b03811661108b5760405162461bcd60e51b815260040161048c9061293e565b6000546001600160a01b031633146110b55760405162461bcd60e51b815260040161048c90612b1c565b6008805473ffffffffffffffffffffffffffffffffffffffff19166001600160a01b0392909216919091179055565b60036020908152600092835260408084209091529082529020546fffffffffffffffffffffffffffffffff1681565b6000546001600160a01b0316331461113d5760405162461bcd60e51b815260040161048c90612b1c565b60608367ffffffffffffffff8111801561115657600080fd5b50604051908082528060200260200182016040528015611180578160200160208202803683370190505b50905060005b848110156111bb573082828151811061119b57fe5b6001600160a01b0390921660209283029190910190910152600101611186565b5060608267ffffffffffffffff811180156111d557600080fd5b506040519080825280602002602001820160405280156111ff578160200160208202803683370190505b50905060005b8381101561123a573082828151811061121a57fe5b6001600160a01b0390921660209283029190910190910152600101611205565b506040517f4e1273f40000000000000000000000000000000000000000000000000000000081526060906001600160a01b037f00000000000000000000000000000000000000000000000000000000000000001690634e1273f4906112a79086908b908b906004016126cc565b60006040518083038186803b1580156112bf57600080fd5b505afa1580156112d3573d6000803e3d6000fd5b505050506040513d6000823e601f3d908101601f191682016040526112fb91908101906122e8565b905060607f00000000000000000000000000000000000000000000000000000000000000006001600160a01b0316634e1273f48488886040518463ffffffff1660e01b815260040161134f939291906126cc565b60006040518083038186803b15801561136757600080fd5b505afa15801561137b573d6000803e3d6000fd5b505050506040513d6000823e601f3d908101601f191682016040526113a391908101906122e8565b6040517f17fad7fc0000000000000000000000000000000000000000000000000000000081529091506001600160a01b037f000000000000000000000000000000000000000000000000000000000000000016906317fad7fc906114139030908d908d908d908990600401612666565b600060405180830381600087803b15801561142d57600080fd5b505af1158015611441573d6000803e3d6000fd5b50506040517f17fad7fc0000000000000000000000000000000000000000000000000000000081526001600160a01b037f00000000000000000000000000000000000000000000000000000000000000001692506317fad7fc91506114b29030908d908b908b908890600401612666565b600060405180830381600087803b1580156114cc57600080fd5b505af11580156114e0573d6000803e3d6000fd5b50505050505050505050505050565b6002546001600160a01b031690565b336001600160a01b038516148061152457503360009081526001602052604090205460ff165b6115405760405162461bcd60e51b815260040161048c90612a77565b60045460ff166115625760405162461bcd60e51b815260040161048c90612899565b6001600160a01b0384166115885760405162461bcd60e51b815260040161048c906127bd565b611596846106848580612c45565b6115b25760405162461bcd60e51b815260040161048c90612975565b60006115c16107dd8580612c45565b6008549091506115fd9086906001600160a01b03167f000000000000000000000000000000000000000000000000000000000000000084611c56565b6001600160a01b037f0000000000000000000000000000000000000000000000000000000000000000166317fad7fc30876116388880612c45565b61164560208b018b612c45565b6040518763ffffffff1660e01b815260040161166696959493929190612619565b600060405180830381600087803b15801561168057600080fd5b505af1158015611694573d6000803e3d6000fd5b50506001600160a01b037f00000000000000000000000000000000000000000000000000000000000000001691506317fad7fc905030876116d86040890189612c45565b6116e560608b018b612c45565b6040518763ffffffff1660e01b815260040161170696959493929190612619565b600060405180830381600087803b15801561172057600080fd5b505af1158015611734573d6000803e3d6000fd5b50505050846001600160a01b03167fdfdb2e8aa552e0517bf744153975973b0beb2bedf0e81bbf58d7744b738197b885837f0000000000000000000000000000000000000000000000000000000000000000856040516117979493929190612be7565b60405180910390a25050505050565b6001600160a01b031660009081526001602052604090205460ff1690565b6000546001600160a01b031633146117ee5760405162461bcd60e51b815260040161048c90612b1c565b60048054911515610100027fffffffffffffffffffffffffffffffffffffffffffffffffffffffffffff00ff909216919091179055565b6000807f00000000000000000000000000000000000000000000000000000000000000006001600160a01b03166357de26a46040518163ffffffff1660e01b815260040160206040518083038186803b15801561188157600080fd5b505afa158015611895573d6000803e3d6000fd5b505050506040513d601f19601f820116820180604052508101906118b991906123b3565b91505090565b6000826118ce57506000610524565b50818102818382816118dc57fe5b04146105245760405162461bcd60e51b815260040161048c90612ae5565b6000816119195760405162461bcd60e51b815260040161048c90612bb0565b81838161192257fe5b049392505050565b60006060611936611d11565b90506000805b85518110156119a957600086828151811061195357fe5b60200260200101519050600086838151811061196b57fe5b6020026020010151905061199b8186848151811061198557fe5b60200260200101516118bf90919063ffffffff16565b90930192505060010161193c565b50949350505050565b6001600160a01b03821660009081526001602052604090819020805460ff1916831515179055517fb21eb88b4e33b3f1281830a7178d74d8aa73220416215726b68ae23d539515cb90610b6790849084906126b1565b6001600160a01b038216600090815260036020908152604080832070010000000000000000000000000000000085046fffffffffffffffffffffffffffffffff81811686529190935290832054848216911680821415611ad3576001600160a01b03861660009081526003602090815260408083206fffffffffffffffffffffffffffffffff9687168452909152902080547fffffffffffffffffffffffffffffffff0000000000000000000000000000000016600192830190941693909317909255509050610524565b50600095945050505050565b60008080805b8551811015611b5e576004878281518110611afc57fe5b602002602001015110611b215760405162461bcd60e51b815260040161048c906128d0565b868181518110611b2d57fe5b6020026020010151600101868281518110611b4457fe5b602002602001015102830192508080600101915050611ae5565b5060005b8451811015611b9057848181518110611b7757fe5b6020026020010151820191508080600101915050611b62565b501115949350505050565b60008151604114611bab57600080fd5b60208201516040830151606084015160001a601b811015611bca57601b015b8060ff16601b1480611bdf57508060ff16601c145b611be857600080fd5b60018682858560405160008152602001604052604051611c0b9493929190612768565b6020604051602081039080840390855afa158015611c2d573d6000803e3d6000fd5b5050604051601f1901519450506001600160a01b038416611c4d57600080fd5b50505092915050565b6040517f23b872dd000000000000000000000000000000000000000000000000000000008152829082906001600160a01b038316906323b872dd90611ca3908990899086906004016125f5565b602060405180830381600087803b158015611cbd57600080fd5b505af1158015611cd1573d6000803e3d6000fd5b505050506040513d601f19601f82011682018060405250810190611cf59190612397565b610a7a5760405162461bcd60e51b815260040161048c9061282b565b60608060075460001415611d77576005805480602002602001604051908101604052809291908181526020018280548015611d6b57602002820191906000526020600020905b815481526020019060010190808311611d57575b50505050509050611e31565b600754610e1001421115611ddd5760006007556005805460408051602080840282018101909252828152929190830182828015611d6b5760200282019190600052602060002090815481526020019060010190808311611d575750505050509050611e31565b6006805480602002602001604051908101604052809291908181526020018280548015611e2957602002820191906000526020600020905b815481526020019060010190808311611e15575b505050505090505b905090565b828054828255906000526020600020908101928215611e765760005260206000209182015b82811115611e76578254825591600101919060010190611e5b565b50611e82929150611ec1565b5090565b828054828255906000526020600020908101928215611e76579160200282015b82811115611e76578235825591602001919060010190611ea6565b6104da91905b80821115611e825760008155600101611ec7565b803561052481612d1f565b60008083601f840112611ef7578182fd5b50813567ffffffffffffffff811115611f0e578182fd5b6020830191508360208083028501011115611f2857600080fd5b9250929050565b600082601f830112611f3f578081fd5b8135611f52611f4d82612cb7565b612c90565b818152915060208083019084810181840286018201871015611f7357600080fd5b60005b84811015611f9257813584529282019290820190600101611f76565b505050505092915050565b600082601f830112611fad578081fd5b813567ffffffffffffffff811115611fc3578182fd5b611fd66020601f19601f84011601612c90565b9150808252836020828501011115611fed57600080fd5b8060208401602084013760009082016020015292915050565b600060208284031215612017578081fd5b81356105b781612d1f565b600080600080600060608688031215612039578081fd5b853561204481612d1f565b9450602086013567ffffffffffffffff80821115612060578283fd5b61206c89838a01611ee6565b90965094506040880135915080821115612084578283fd5b5061209188828901611ee6565b969995985093965092949392505050565b600080600080600080600060e0888a0312156120bc578182fd5b6120c68989611edb565b9650602088013567ffffffffffffffff808211156120e2578384fd5b6120ee8b838c01611f2f565b975060408a0135915080821115612103578384fd5b61210f8b838c01611f2f565b965060608a0135915080821115612124578384fd5b6121308b838c01611f2f565b955060808a0135915080821115612145578384fd5b6121518b838c01611f2f565b945060a08a0135935060c08a013591508082111561216d578283fd5b5061217a8a828b01611f9d565b91505092959891949750929550565b6000806040838503121561219b578182fd5b82356121a681612d1f565b915060208301356121b681612d37565b809150509250929050565b600080600080606085870312156121d6578384fd5b84356121e181612d1f565b9350602085013567ffffffffffffffff808211156121fd578485fd5b81870160a0818a03121561220f578586fd5b94506040870135915080821115612224578384fd5b81870188601f820112612235578485fd5b8035925081831115612245578485fd5b886020848301011115612256578485fd5b959894975050602090940194505050565b60008060408385031215612279578182fd5b823561228481612d1f565b915060208301356fffffffffffffffffffffffffffffffff811681146121b6578182fd5b600080602083850312156122ba578182fd5b823567ffffffffffffffff8111156122d0578283fd5b6122dc85828601611ee6565b90969095509350505050565b600060208083850312156122fa578182fd5b825167ffffffffffffffff811115612310578283fd5b80840185601f820112612321578384fd5b80519150612331611f4d83612cb7565b828152838101908285018585028401860189101561234d578687fd5b8693505b8484101561236f578051835260019390930192918501918501612351565b50979650505050505050565b60006020828403121561238c578081fd5b81356105b781612d37565b6000602082840312156123a8578081fd5b81516105b781612d37565b6000602082840312156123c4578081fd5b5051919050565b6000602082840312156123dc578081fd5b5035919050565b60008284527f07ffffffffffffffffffffffffffffffffffffffffffffffffffffffffffffff831115612414578081fd5b6020830280836020870137939093016020019283525090919050565b6000815180845260208085019450808401835b8381101561245f57815187529582019590820190600101612443565b509495945050505050565b8051600090602080840183831561245f57815187529582019590820190600101612443565b600061249b8283612cd7565b60a085526124ad60a0860182846123e3565b6124ba6020860186612cd7565b9350915085810360208701526124d18184846123e3565b6124de6040870187612cd7565b9450925086810360408801526124f58185856123e3565b9150506125056060860186612cd7565b93509150858103606087015261251c8184846123e3565b608086013560808801528094505050505092915050565b600061255a61255461254e612548858c61246a565b8a61246a565b8861246a565b8661246a565b60609490941b7fffffffffffffffffffffffffffffffffffffffff00000000000000000000000016845250506014820152603401949350505050565b7f19457468657265756d205369676e6564204d6573736167653a0a3332000000008152601c810191909152603c0190565b6001600160a01b0391909116815260200190565b6001600160a01b0392831681529116602082015260400190565b6001600160a01b039384168152919092166020820152604081019190915260600190565b60006001600160a01b038089168352808816602084015250608060408301526126466080830186886123e3565b82810360608401526126598185876123e3565b9998505050505050505050565b60006001600160a01b038088168352808716602084015250608060408301526126936080830185876123e3565b82810360608401526126a58185612430565b98975050505050505050565b6001600160a01b039290921682521515602082015260400190565b604080825284519082018190526000906020906060840190828801845b8281101561270e5781516001600160a01b0316845292840192908401906001016126e9565b505050838103828501526127238186886123e3565b979650505050505050565b6000602082526127426020830184866123e3565b949350505050565b6000602082526105b76020830184612430565b901515815260200190565b93845260ff9290921660208401526040830152606082015260800190565b60208082526012908201527f4441495f49535f4e4f545f454e41424c45440000000000000000000000000000604082015260600190565b60208082526018908201527f44455354494e4154494f4e5f5a45524f5f414444524553530000000000000000604082015260600190565b60208082526015908201527f4e4f545f454e4f5547485f45544845525f53454e540000000000000000000000604082015260600190565b60208082526017908201527f5041594d454e545f5452414e534645525f4641494c4544000000000000000000604082015260600190565b6020808252600c908201527f494e56414c49445f47454d530000000000000000000000000000000000000000604082015260600190565b60208082526013908201527f53414e445f49535f4e4f545f454e41424c454400000000000000000000000000604082015260600190565b60208082526010908201527f49445f4f55545f4f465f424f554e445300000000000000000000000000000000604082015260600190565b60208082526014908201527f45544845525f49535f4e4f545f454e41424c4544000000000000000000000000604082015260600190565b60208082526013908201527f57414c4c45545f5a45524f5f4144445245535300000000000000000000000000604082015260600190565b60208082526010908201527f494e56414c49445f505552434841534500000000000000000000000000000000604082015260600190565b6020808252600d908201527f494e56414c49445f4e4f4e434500000000000000000000000000000000000000604082015260600190565b60208082526010908201527f53454e4445525f4e4f545f41444d494e00000000000000000000000000000000604082015260600190565b6020808252602e908201527f6f6e6c792061646d696e2063616e207365747570206d6574615472616e73616360408201527f74696f6e50726f636573736f7273000000000000000000000000000000000000606082015260800190565b6020808252600e908201527f494e56414c49445f53454e444552000000000000000000000000000000000000604082015260600190565b6020808252601b908201527f6f6e6c792061646d696e2063616e206368616e67652061646d696e0000000000604082015260600190565b60208082526008908201527f6f766572666c6f77000000000000000000000000000000000000000000000000604082015260600190565b6020808252600e908201527f4e4f545f415554484f52495a4544000000000000000000000000000000000000604082015260600190565b60208082526022908201527f44455354494e4154494f4e5f535441525445525041434b56315f434f4e54524160408201527f4354000000000000000000000000000000000000000000000000000000000000606082015260800190565b60208082526009908201527f64697662797a65726f0000000000000000000000000000000000000000000000604082015260600190565b600060808252612bfa608083018761248f565b6020830195909552506001600160a01b03929092166040830152606090910152919050565b6fffffffffffffffffffffffffffffffff91909116815260200190565b90815260200190565b6000808335601e19843603018112612c5b578283fd5b8084018035925067ffffffffffffffff831115612c76578384fd5b6020810193505050602081023603821315611f2857600080fd5b60405181810167ffffffffffffffff81118282101715612caf57600080fd5b604052919050565b600067ffffffffffffffff821115612ccd578081fd5b5060209081020190565b6000808335601e19843603018112612ced578283fd5b830160208101925035905067ffffffffffffffff811115612d0d57600080fd5b602081023603831315611f2857600080fd5b6001600160a01b0381168114612d3457600080fd5b50565b8015158114612d3457600080fdfea26469706673582212207fd21696de7d068557edc38ca24e8479b49a0c1232015f2fb7e4101d1648d8bf64736f6c63430006050033",
  "devdoc": {
    "methods": {
      "changeAdmin(address)": {
        "details": "change the administrator to be `newAdmin`.",
        "params": {
          "newAdmin": "address of the new administrator."
        }
      },
      "getAdmin()": {
        "details": "gives the current administrator of this contract.",
        "returns": {
          "_0": "the current administrator of this contract."
        }
      },
      "getEtherAmountWithSAND(uint256)": {
        "params": {
          "sandAmount": "An amount of SAND"
        },
        "returns": {
          "_0": "The amount of ETH"
        }
      },
      "getNonceByBuyer(address,uint128)": {
        "params": {
          "_buyer": "The address of the starterPack purchaser",
          "_queueId": "The ID of the nonce queue for the given address. The default is queueID=0, and the max is queueID=2**128-1"
        },
        "returns": {
          "_0": "uint128 representing the requestied nonce"
        }
      },
      "isMetaTransactionProcessor(address)": {
        "details": "check whether address `who` is given meta-transaction execution rights.",
        "params": {
          "who": "The address to query."
        },
        "returns": {
          "_0": "whether the address has meta-transaction execution rights."
        }
      },
      "isPurchaseValid(address,uint256[],uint256[],uint256[],uint256[],uint256,bytes)": {
        "params": {
          "buyer": "The address paying for the purchase & receiving tokens",
          "catalystIds": "The catalyst IDs to be purchased",
          "catalystQuantities": "The quantities of the catalysts to be purchased",
          "gemIds": "The gem IDs to be purchased",
          "gemQuantities": "The quantities of the gems to be purchased",
          "nonce": "The current nonce for the user. This is represented as a uint256 value, but is actually 2 packed uint128's (queueId + nonce)",
          "signature": "A signed message specifying tx details"
        },
        "returns": {
          "_0": "True if the purchase is valid"
        }
      },
      "purchaseWithDAI(address,(uint256[],uint256[],uint256[],uint256[],uint256),bytes)": {
        "params": {
          "buyer": "The destination address for the purchased Catalysts and Gems and the address that will pay for the purchase; if not metaTx then buyer must be equal to msg.sender",
          "message": "A message containing information about the Catalysts and Gems to be purchased",
          "signature": "A signed message specifying tx details"
        }
      },
      "purchaseWithETH(address,(uint256[],uint256[],uint256[],uint256[],uint256),bytes)": {
        "params": {
          "buyer": "The destination address for the purchased Catalysts and Gems and the address that will pay for the purchase; if not metaTx then buyer must be equal to msg.sender",
          "message": "A message containing information about the Catalysts and Gems to be purchased",
          "signature": "A signed message specifying tx details"
        }
      },
      "purchaseWithSand(address,(uint256[],uint256[],uint256[],uint256[],uint256),bytes)": {
        "params": {
          "buyer": "The destination address for the purchased Catalysts and Gems and the address that will pay for the purchase; if not metaTx then buyer must be equal to msg.sender",
          "message": "A message containing information about the Catalysts and Gems to be purchased",
          "signature": "A signed message specifying tx details"
        }
      },
      "setDAIEnabled(bool)": {
        "params": {
          "enabled": "Whether to enable or disable"
        }
      },
      "setETHEnabled(bool)": {
        "params": {
          "enabled": "Whether to enable or disable"
        }
      },
      "setMetaTransactionProcessor(address,bool)": {
        "details": "Enable or disable the ability of `metaTransactionProcessor` to perform meta-tx (metaTransactionProcessor rights).",
        "params": {
          "enabled": "set whether the metaTransactionProcessor is enabled or disabled.",
          "metaTransactionProcessor": "address that will be given/removed metaTransactionProcessor rights."
        }
      },
      "setPrices(uint256[])": {
        "params": {
          "prices": "Array of new prices that wil take effect after a delay period"
        }
      },
      "setReceivingWallet(address)": {
        "params": {
          "newWallet": "Address of the new receiving wallet"
        }
      },
      "setSANDEnabled(bool)": {
        "details": "Enable / disable the specific SAND payment for StarterPacks",
        "params": {
          "enabled": "Whether to enable or disable"
        }
      },
      "updateSigningWallet(address)": {
        "params": {
          "newSigningWallet": "The new address of the signing wallet"
        }
      },
      "withdrawAll(address,uint256[],uint256[])": {
        "params": {
          "catalystIds": "The IDs of the catalysts to be transferred",
          "gemIds": "The IDs of the gems to be transferred",
          "to": "The destination address for the purchased Catalysts and Gems"
        }
      }
    },
    "title": "StarterPack contract that supports SAND, DAI and ETH as payment"
  },
  "userdoc": {
    "methods": {
      "getEtherAmountWithSAND(uint256)": {
        "notice": "Returns the amount of ETH for a specific amount of SAND"
      },
      "getNonceByBuyer(address,uint128)": {
        "notice": "Function to get the nonce for a given address and queue ID"
      },
      "getSigningWallet()": {
        "notice": "Get the wallet authorized for signing purchase-messages."
      },
      "getStarterPackPrices()": {
        "notice": "Get current StarterPack prices"
      },
      "isDAIEnabled()": {
        "notice": "Return whether DAI payments are enabled"
      },
      "isETHEnabled()": {
        "notice": "Return whether ETH payments are enabled"
      },
      "isPurchaseValid(address,uint256[],uint256[],uint256[],uint256[],uint256,bytes)": {
        "notice": "Check if a purchase message is valid"
      },
      "isSANDEnabled()": {
        "notice": "Return whether SAND payments are enabled"
      },
      "purchaseWithDAI(address,(uint256[],uint256[],uint256[],uint256[],uint256),bytes)": {
        "notice": "Purchase StarterPacks with DAI"
      },
      "purchaseWithETH(address,(uint256[],uint256[],uint256[],uint256[],uint256),bytes)": {
        "notice": "Purchase StarterPacks with Ether"
      },
      "purchaseWithSand(address,(uint256[],uint256[],uint256[],uint256[],uint256),bytes)": {
        "notice": "Purchase StarterPacks with SAND"
      },
      "setDAIEnabled(bool)": {
        "notice": "Enable / disable DAI payment for StarterPacks"
      },
      "setETHEnabled(bool)": {
        "notice": "Enable / disable ETH payment for StarterPacks"
      },
      "setPrices(uint256[])": {
        "notice": "Enables admin to change the prices of the StarterPack bundles"
      },
      "setReceivingWallet(address)": {
        "notice": "Set the wallet receiving the proceeds"
      },
      "updateSigningWallet(address)": {
        "notice": "Update the signing wallet address"
      },
      "withdrawAll(address,uint256[],uint256[])": {
        "notice": "Enables admin to withdraw all remaining tokens"
      }
    },
    "notice": "This contract manages the purchase and distribution of StarterPacks (bundles of Catalysts and Gems)"
  },
  "storageLayout": {
    "storage": [
      {
        "astId": 11788,
        "contract": "src/StarterPack/StarterPackV1.sol:StarterPackV1",
        "label": "_admin",
        "offset": 0,
        "slot": "0",
        "type": "t_address"
      },
      {
        "astId": 11850,
        "contract": "src/StarterPack/StarterPackV1.sol:StarterPackV1",
        "label": "_metaTransactionContracts",
        "offset": 0,
        "slot": "1",
        "type": "t_mapping(t_address,t_bool)"
      },
      {
        "astId": 10351,
        "contract": "src/StarterPack/StarterPackV1.sol:StarterPackV1",
        "label": "_signingWallet",
        "offset": 0,
        "slot": "2",
        "type": "t_address"
      },
      {
        "astId": 10357,
        "contract": "src/StarterPack/StarterPackV1.sol:StarterPackV1",
        "label": "queuedNonces",
        "offset": 0,
        "slot": "3",
        "type": "t_mapping(t_address,t_mapping(t_uint128,t_uint128))"
      },
      {
        "astId": 10664,
        "contract": "src/StarterPack/StarterPackV1.sol:StarterPackV1",
        "label": "_sandEnabled",
        "offset": 0,
        "slot": "4",
        "type": "t_bool"
      },
      {
        "astId": 10666,
        "contract": "src/StarterPack/StarterPackV1.sol:StarterPackV1",
        "label": "_etherEnabled",
        "offset": 1,
        "slot": "4",
        "type": "t_bool"
      },
      {
        "astId": 10668,
        "contract": "src/StarterPack/StarterPackV1.sol:StarterPackV1",
        "label": "_daiEnabled",
        "offset": 2,
        "slot": "4",
        "type": "t_bool"
      },
      {
        "astId": 10671,
        "contract": "src/StarterPack/StarterPackV1.sol:StarterPackV1",
        "label": "_starterPackPrices",
        "offset": 0,
        "slot": "5",
        "type": "t_array(t_uint256)dyn_storage"
      },
      {
        "astId": 10674,
        "contract": "src/StarterPack/StarterPackV1.sol:StarterPackV1",
        "label": "_previousStarterPackPrices",
        "offset": 0,
        "slot": "6",
        "type": "t_array(t_uint256)dyn_storage"
      },
      {
        "astId": 10676,
        "contract": "src/StarterPack/StarterPackV1.sol:StarterPackV1",
        "label": "_priceChangeTimestamp",
        "offset": 0,
        "slot": "7",
        "type": "t_uint256"
      },
      {
        "astId": 10678,
        "contract": "src/StarterPack/StarterPackV1.sol:StarterPackV1",
        "label": "_wallet",
        "offset": 0,
        "slot": "8",
        "type": "t_address_payable"
      },
      {
        "astId": 10681,
        "contract": "src/StarterPack/StarterPackV1.sol:StarterPackV1",
        "label": "_priceChangeDelay",
        "offset": 0,
        "slot": "9",
        "type": "t_uint256"
      }
    ],
    "types": {
      "t_address": {
        "encoding": "inplace",
        "label": "address",
        "numberOfBytes": "20"
      },
      "t_address_payable": {
        "encoding": "inplace",
        "label": "address payable",
        "numberOfBytes": "20"
      },
      "t_array(t_uint256)dyn_storage": {
        "base": "t_uint256",
        "encoding": "dynamic_array",
        "label": "uint256[]",
        "numberOfBytes": "32"
      },
      "t_bool": {
        "encoding": "inplace",
        "label": "bool",
        "numberOfBytes": "1"
      },
      "t_mapping(t_address,t_bool)": {
        "encoding": "mapping",
        "key": "t_address",
        "label": "mapping(address => bool)",
        "numberOfBytes": "32",
        "value": "t_bool"
      },
      "t_mapping(t_address,t_mapping(t_uint128,t_uint128))": {
        "encoding": "mapping",
        "key": "t_address",
        "label": "mapping(address => mapping(uint128 => uint128))",
        "numberOfBytes": "32",
        "value": "t_mapping(t_uint128,t_uint128)"
      },
      "t_mapping(t_uint128,t_uint128)": {
        "encoding": "mapping",
        "key": "t_uint128",
        "label": "mapping(uint128 => uint128)",
        "numberOfBytes": "32",
        "value": "t_uint128"
      },
      "t_uint128": {
        "encoding": "inplace",
        "label": "uint128",
        "numberOfBytes": "16"
      },
      "t_uint256": {
        "encoding": "inplace",
        "label": "uint256",
        "numberOfBytes": "32"
      }
    }
  },
  "gasEstimates": {
    "creation": {
      "codeDepositCost": "2328600",
      "executionCost": "infinite",
      "totalCost": "infinite"
    },
    "external": {
      "changeAdmin(address)": "24282",
      "getAdmin()": "1115",
      "getEtherAmountWithSAND(uint256)": "infinite",
      "getNonceByBuyer(address,uint128)": "1499",
      "getSigningWallet()": "1159",
      "getStarterPackPrices()": "infinite",
      "isDAIEnabled()": "1121",
      "isETHEnabled()": "1097",
      "isMetaTransactionProcessor(address)": "1342",
      "isPurchaseValid(address,uint256[],uint256[],uint256[],uint256[],uint256,bytes)": "infinite",
      "isSANDEnabled()": "1085",
      "purchaseWithDAI(address,(uint256[],uint256[],uint256[],uint256[],uint256),bytes)": "infinite",
      "purchaseWithETH(address,(uint256[],uint256[],uint256[],uint256[],uint256),bytes)": "infinite",
      "purchaseWithSand(address,(uint256[],uint256[],uint256[],uint256[],uint256),bytes)": "infinite",
      "queuedNonces(address,uint128)": "1441",
      "setDAIEnabled(bool)": "22021",
      "setETHEnabled(bool)": "22062",
      "setMetaTransactionProcessor(address,bool)": "infinite",
      "setPrices(uint256[])": "infinite",
      "setReceivingWallet(address)": "22117",
      "setSANDEnabled(bool)": "22052",
      "updateSigningWallet(address)": "22083",
      "withdrawAll(address,uint256[],uint256[])": "infinite"
    },
    "internal": {
      "_calculateTotalPriceInSand(uint256[] memory,uint256[] memory)": "infinite",
      "_getEthUsdPair()": "infinite",
      "_handlePurchaseWithERC20(address,address payable,address,uint256)": "infinite",
      "_priceSelector()": "infinite"
    }
  }
}