{
  "abi": [
    {
      "inputs": [
        {
          "internalType": "address",
          "name": "starterPackAdmin",
          "type": "address"
        },
        {
          "internalType": "address",
          "name": "sandContractAddress",
          "type": "address"
        },
        {
          "internalType": "address",
          "name": "initialMetaTx",
          "type": "address"
        },
        {
          "internalType": "address payable",
          "name": "initialWalletAddress",
          "type": "address"
        },
        {
          "internalType": "address",
          "name": "medianizerContractAddress",
          "type": "address"
        },
        {
          "internalType": "address",
          "name": "daiTokenContractAddress",
          "type": "address"
        },
        {
          "internalType": "address",
          "name": "erc20GroupCatalystAddress",
          "type": "address"
        },
        {
          "internalType": "address",
          "name": "erc20GroupGemAddress",
          "type": "address"
        },
        {
          "internalType": "address",
          "name": "initialSigningWallet",
          "type": "address"
        },
        {
          "internalType": "uint256[]",
          "name": "initialStarterPackPrices",
          "type": "uint256[]"
        }
      ],
      "stateMutability": "nonpayable",
      "type": "constructor"
    },
    {
      "anonymous": false,
      "inputs": [
        {
          "indexed": false,
          "internalType": "address",
          "name": "oldAdmin",
          "type": "address"
        },
        {
          "indexed": false,
          "internalType": "address",
          "name": "newAdmin",
          "type": "address"
        }
      ],
      "name": "AdminChanged",
      "type": "event"
    },
    {
      "anonymous": false,
      "inputs": [
        {
          "indexed": false,
          "internalType": "address",
          "name": "metaTransactionProcessor",
          "type": "address"
        },
        {
          "indexed": false,
          "internalType": "bool",
          "name": "enabled",
          "type": "bool"
        }
      ],
      "name": "MetaTransactionProcessor",
      "type": "event"
    },
    {
      "anonymous": false,
      "inputs": [
        {
          "indexed": true,
          "internalType": "address",
          "name": "buyer",
          "type": "address"
        },
        {
          "components": [
            {
              "internalType": "uint256[]",
              "name": "catalystIds",
              "type": "uint256[]"
            },
            {
              "internalType": "uint256[]",
              "name": "catalystQuantities",
              "type": "uint256[]"
            },
            {
              "internalType": "uint256[]",
              "name": "gemIds",
              "type": "uint256[]"
            },
            {
              "internalType": "uint256[]",
              "name": "gemQuantities",
              "type": "uint256[]"
            },
            {
              "internalType": "uint256",
              "name": "nonce",
              "type": "uint256"
            }
          ],
          "indexed": false,
          "internalType": "struct StarterPackV1.Message",
          "name": "message",
          "type": "tuple"
        },
        {
          "indexed": false,
          "internalType": "uint256",
          "name": "price",
          "type": "uint256"
        },
        {
          "indexed": false,
          "internalType": "address",
          "name": "token",
          "type": "address"
        },
        {
          "indexed": false,
          "internalType": "uint256",
          "name": "amountPaid",
          "type": "uint256"
        }
      ],
      "name": "Purchase",
      "type": "event"
    },
    {
      "anonymous": false,
      "inputs": [
        {
          "indexed": false,
          "internalType": "uint256[]",
          "name": "prices",
          "type": "uint256[]"
        }
      ],
      "name": "SetPrices",
      "type": "event"
    },
    {
      "inputs": [
        {
          "internalType": "address",
          "name": "newAdmin",
          "type": "address"
        }
      ],
      "name": "changeAdmin",
      "outputs": [],
      "stateMutability": "nonpayable",
      "type": "function"
    },
    {
      "inputs": [],
      "name": "getAdmin",
      "outputs": [
        {
          "internalType": "address",
          "name": "",
          "type": "address"
        }
      ],
      "stateMutability": "view",
      "type": "function"
    },
    {
      "inputs": [
        {
          "internalType": "uint256",
          "name": "sandAmount",
          "type": "uint256"
        }
      ],
      "name": "getEtherAmountWithSAND",
      "outputs": [
        {
          "internalType": "uint256",
          "name": "",
          "type": "uint256"
        }
      ],
      "stateMutability": "view",
      "type": "function"
    },
    {
      "inputs": [
        {
          "internalType": "address",
          "name": "_buyer",
          "type": "address"
        },
        {
          "internalType": "uint128",
          "name": "_queueId",
          "type": "uint128"
        }
      ],
      "name": "getNonceByBuyer",
      "outputs": [
        {
          "internalType": "uint128",
          "name": "",
          "type": "uint128"
        }
      ],
      "stateMutability": "view",
      "type": "function"
    },
    {
      "inputs": [],
      "name": "getPrices",
      "outputs": [
        {
          "internalType": "uint256[]",
          "name": "pricesBeforeSwitch",
          "type": "uint256[]"
        },
        {
          "internalType": "uint256[]",
          "name": "pricesAfterSwitch",
          "type": "uint256[]"
        },
        {
          "internalType": "uint256",
          "name": "switchTime",
          "type": "uint256"
        }
      ],
      "stateMutability": "view",
      "type": "function"
    },
    {
      "inputs": [],
      "name": "getSigningWallet",
      "outputs": [
        {
          "internalType": "address",
          "name": "",
          "type": "address"
        }
      ],
      "stateMutability": "view",
      "type": "function"
    },
    {
      "inputs": [],
      "name": "isDAIEnabled",
      "outputs": [
        {
          "internalType": "bool",
          "name": "",
          "type": "bool"
        }
      ],
      "stateMutability": "view",
      "type": "function"
    },
    {
      "inputs": [],
      "name": "isETHEnabled",
      "outputs": [
        {
          "internalType": "bool",
          "name": "",
          "type": "bool"
        }
      ],
      "stateMutability": "view",
      "type": "function"
    },
    {
      "inputs": [
        {
          "internalType": "address",
          "name": "who",
          "type": "address"
        }
      ],
      "name": "isMetaTransactionProcessor",
      "outputs": [
        {
          "internalType": "bool",
          "name": "",
          "type": "bool"
        }
      ],
      "stateMutability": "view",
      "type": "function"
    },
    {
      "inputs": [
        {
          "internalType": "address",
          "name": "buyer",
          "type": "address"
        },
        {
          "internalType": "uint256[]",
          "name": "catalystIds",
          "type": "uint256[]"
        },
        {
          "internalType": "uint256[]",
          "name": "catalystQuantities",
          "type": "uint256[]"
        },
        {
          "internalType": "uint256[]",
          "name": "gemIds",
          "type": "uint256[]"
        },
        {
          "internalType": "uint256[]",
          "name": "gemQuantities",
          "type": "uint256[]"
        },
        {
          "internalType": "uint256",
          "name": "nonce",
          "type": "uint256"
        },
        {
          "internalType": "bytes",
          "name": "signature",
          "type": "bytes"
        }
      ],
      "name": "isPurchaseValid",
      "outputs": [
        {
          "internalType": "bool",
          "name": "",
          "type": "bool"
        }
      ],
      "stateMutability": "nonpayable",
      "type": "function"
    },
    {
      "inputs": [],
      "name": "isSANDEnabled",
      "outputs": [
        {
          "internalType": "bool",
          "name": "",
          "type": "bool"
        }
      ],
      "stateMutability": "view",
      "type": "function"
    },
    {
      "inputs": [
        {
          "internalType": "address",
          "name": "buyer",
          "type": "address"
        },
        {
          "components": [
            {
              "internalType": "uint256[]",
              "name": "catalystIds",
              "type": "uint256[]"
            },
            {
              "internalType": "uint256[]",
              "name": "catalystQuantities",
              "type": "uint256[]"
            },
            {
              "internalType": "uint256[]",
              "name": "gemIds",
              "type": "uint256[]"
            },
            {
              "internalType": "uint256[]",
              "name": "gemQuantities",
              "type": "uint256[]"
            },
            {
              "internalType": "uint256",
              "name": "nonce",
              "type": "uint256"
            }
          ],
          "internalType": "struct StarterPackV1.Message",
          "name": "message",
          "type": "tuple"
        },
        {
          "internalType": "bytes",
          "name": "signature",
          "type": "bytes"
        }
      ],
      "name": "purchaseWithDAI",
      "outputs": [],
      "stateMutability": "nonpayable",
      "type": "function"
    },
    {
      "inputs": [
        {
          "internalType": "address",
          "name": "buyer",
          "type": "address"
        },
        {
          "components": [
            {
              "internalType": "uint256[]",
              "name": "catalystIds",
              "type": "uint256[]"
            },
            {
              "internalType": "uint256[]",
              "name": "catalystQuantities",
              "type": "uint256[]"
            },
            {
              "internalType": "uint256[]",
              "name": "gemIds",
              "type": "uint256[]"
            },
            {
              "internalType": "uint256[]",
              "name": "gemQuantities",
              "type": "uint256[]"
            },
            {
              "internalType": "uint256",
              "name": "nonce",
              "type": "uint256"
            }
          ],
          "internalType": "struct StarterPackV1.Message",
          "name": "message",
          "type": "tuple"
        },
        {
          "internalType": "bytes",
          "name": "signature",
          "type": "bytes"
        }
      ],
      "name": "purchaseWithETH",
      "outputs": [],
      "stateMutability": "payable",
      "type": "function"
    },
    {
      "inputs": [
        {
          "internalType": "address",
          "name": "buyer",
          "type": "address"
        },
        {
          "components": [
            {
              "internalType": "uint256[]",
              "name": "catalystIds",
              "type": "uint256[]"
            },
            {
              "internalType": "uint256[]",
              "name": "catalystQuantities",
              "type": "uint256[]"
            },
            {
              "internalType": "uint256[]",
              "name": "gemIds",
              "type": "uint256[]"
            },
            {
              "internalType": "uint256[]",
              "name": "gemQuantities",
              "type": "uint256[]"
            },
            {
              "internalType": "uint256",
              "name": "nonce",
              "type": "uint256"
            }
          ],
          "internalType": "struct StarterPackV1.Message",
          "name": "message",
          "type": "tuple"
        },
        {
          "internalType": "bytes",
          "name": "signature",
          "type": "bytes"
        }
      ],
      "name": "purchaseWithSand",
      "outputs": [],
      "stateMutability": "nonpayable",
      "type": "function"
    },
    {
      "inputs": [
        {
          "internalType": "address",
          "name": "",
          "type": "address"
        },
        {
          "internalType": "uint128",
          "name": "",
          "type": "uint128"
        }
      ],
      "name": "queuedNonces",
      "outputs": [
        {
          "internalType": "uint128",
          "name": "",
          "type": "uint128"
        }
      ],
      "stateMutability": "view",
      "type": "function"
    },
    {
      "inputs": [
        {
          "internalType": "bool",
          "name": "enabled",
          "type": "bool"
        }
      ],
      "name": "setDAIEnabled",
      "outputs": [],
      "stateMutability": "nonpayable",
      "type": "function"
    },
    {
      "inputs": [
        {
          "internalType": "bool",
          "name": "enabled",
          "type": "bool"
        }
      ],
      "name": "setETHEnabled",
      "outputs": [],
      "stateMutability": "nonpayable",
      "type": "function"
    },
    {
      "inputs": [
        {
          "internalType": "address",
          "name": "metaTransactionProcessor",
          "type": "address"
        },
        {
          "internalType": "bool",
          "name": "enabled",
          "type": "bool"
        }
      ],
      "name": "setMetaTransactionProcessor",
      "outputs": [],
      "stateMutability": "nonpayable",
      "type": "function"
    },
    {
      "inputs": [
        {
          "internalType": "uint256[]",
          "name": "prices",
          "type": "uint256[]"
        }
      ],
      "name": "setPrices",
      "outputs": [],
      "stateMutability": "nonpayable",
      "type": "function"
    },
    {
      "inputs": [
        {
          "internalType": "address payable",
          "name": "newWallet",
          "type": "address"
        }
      ],
      "name": "setReceivingWallet",
      "outputs": [],
      "stateMutability": "nonpayable",
      "type": "function"
    },
    {
      "inputs": [
        {
          "internalType": "bool",
          "name": "enabled",
          "type": "bool"
        }
      ],
      "name": "setSANDEnabled",
      "outputs": [],
      "stateMutability": "nonpayable",
      "type": "function"
    },
    {
      "inputs": [
        {
          "internalType": "address",
          "name": "newSigningWallet",
          "type": "address"
        }
      ],
      "name": "updateSigningWallet",
      "outputs": [],
      "stateMutability": "nonpayable",
      "type": "function"
    },
    {
      "inputs": [
        {
          "internalType": "address",
          "name": "to",
          "type": "address"
        },
        {
          "internalType": "uint256[]",
          "name": "catalystIds",
          "type": "uint256[]"
        },
        {
          "internalType": "uint256[]",
          "name": "gemIds",
          "type": "uint256[]"
        }
      ],
      "name": "withdrawAll",
      "outputs": [],
      "stateMutability": "nonpayable",
      "type": "function"
    }
  ],
  "address": "0x5646cFe3753FBb36Eb204091048a630422da9f10",
  "args": [
    "0xa4519D601F43D0b8f167842a367465681F652252",
    "0xCc933a862fc15379E441F2A16Cb943D385a4695f",
    "0xCc933a862fc15379E441F2A16Cb943D385a4695f",
    "0x60927eB036621b801491B6c5e9A60A8d2dEeD75A",
    "0x41A9Da774cD4c9323d5E73ccF4c68d1A06B67599",
    "0x6D288aA0a7c7aF331e795cBca04eE3b4026F2aE8",
    "0x5432103b4882dbdbe2D4FD1236D8123a88D423F7",
    "0x10525d460465ebb75818536A47ead0025D532461",
    "0xB7060D3FeCAC3AE1F0A0AA416E3e8E472257950e",
    [
      "120000000000000000000",
      "361000000000000000000",
      "1205000000000000000000",
      "4819000000000000000000"
    ]
  ],
  "solcInputHash": "0x1099a9549c1dce1245971c2a1dfa46080c1a3ed1cebe1c835c34d05bc276bff9",
  "bytecode": "0x610120604052610e106009553480156200001857600080fd5b506040516200325f3803806200325f8339810160408190526200003b916200029a565b600280546001600160a01b0319166001600160a01b038416179055620000638860016200011b565b600880546001600160a01b03808a166001600160a01b03199283161790925560008054928d16929091169190911790556001600160601b031960608a811b821660805287811b821660a05286811b821660c05285811b821660e05284901b16610100528051620000db9060059060208401906200017f565b508051620000f19060069060208401906200017f565b50506004805461ff001960ff199091166001171661010017905550620003c9975050505050505050565b6001600160a01b03821660009081526001602052604090819020805460ff1916831515179055517fb21eb88b4e33b3f1281830a7178d74d8aa73220416215726b68ae23d539515cb9062000173908490849062000395565b60405180910390a15050565b828054828255906000526020600020908101928215620001bd579160200282015b82811115620001bd578251825591602001919060010190620001a0565b50620001cb929150620001cf565b5090565b620001ec91905b80821115620001cb5760008155600101620001d6565b90565b8051620001fc81620003b0565b92915050565b600082601f83011262000213578081fd5b81516001600160401b03808211156200022a578283fd5b60208083026040518282820101818110858211171562000248578687fd5b6040528481529450818501925085820181870183018810156200026a57600080fd5b600091505b848210156200028f5780518452928201926001919091019082016200026f565b505050505092915050565b6000806000806000806000806000806101408b8d031215620002ba578586fd5b8a51620002c781620003b0565b60208c0151909a50620002da81620003b0565b60408c0151909950620002ed81620003b0565b60608c01519098506200030081620003b0565b60808c01519097506200031381620003b0565b9550620003248c60a08d01620001ef565b9450620003358c60c08d01620001ef565b9350620003468c60e08d01620001ef565b9250620003588c6101008d01620001ef565b6101208c01519092506001600160401b0381111562000375578182fd5b620003838d828e0162000202565b9150509295989b9194979a5092959850565b6001600160a01b039290921682521515602082015260400190565b6001600160a01b0381168114620003c657600080fd5b50565b60805160601c60a05160601c60c05160601c60e05160601c6101005160601c612e156200044a600039806109625280610f08528061137852806114ea52806117175250806108c95280610e6f52806112e5528061144d528061167e525080610e405280610fcf5250806118a152508061164f52806117de5250612e156000f3fe6080604052600436106101805760003560e01c80638f283970116100d6578063bf5c3e9f1161007f578063d1b8f6b311610059578063d1b8f6b314610404578063dc5074af14610424578063e97eb0a21461044457610180565b8063bf5c3e9f146103af578063c96f8902146103cf578063caed3500146103ef57610180565b8063b0e6bfaa116100b0578063b0e6bfaa1461034b578063b522ecff1461036b578063bd9a548b1461038b57610180565b80638f283970146102f6578063915c851314610316578063a7e306841461033657610180565b80635d8e30211161013857806379cf92d31161011257806379cf92d3146102965780637c53ec4c146102b65780638a04af6a146102d657610180565b80635d8e3021146102345780635f995c2d146102615780636e9960c31461027457610180565b80634a253778116101695780634a253778146101d25780634d08cbc1146101e757806358bc29441461021457610180565b80633b7c4c1514610185578063427b8d34146101a7575b600080fd5b34801561019157600080fd5b506101a56101a03660046123f2565b610464565b005b3480156101b357600080fd5b506101bc6104cf565b6040516101c991906127f7565b60405180910390f35b3480156101de57600080fd5b506101bc6104df565b3480156101f357600080fd5b506102076102023660046122de565b6104ed565b6040516101c99190612cb9565b34801561022057600080fd5b506101a561022f36600461207d565b61052c565b34801561024057600080fd5b5061025461024f366004612442565b610585565b6040516101c99190612cd6565b6101a561026f366004612238565b6105c0565b34801561028057600080fd5b50610289610a84565b6040516101c9919061263e565b3480156102a257600080fd5b506101a56102b136600461231f565b610a93565b3480156102c257600080fd5b506101a56102d13660046123f2565b610b1d565b3480156102e257600080fd5b506101a56102f1366004612200565b610b5a565b34801561030257600080fd5b506101a561031136600461207d565b610b92565b34801561032257600080fd5b506101bc610331366004612119565b610c32565b34801561034257600080fd5b506101bc610d07565b34801561035757600080fd5b506101a5610366366004612238565b610d10565b34801561037757600080fd5b506101a561038636600461207d565b61100f565b34801561039757600080fd5b506103a061108e565b6040516101c9939291906127c1565b3480156103bb57600080fd5b506102076103ca3660046122de565b61115b565b3480156103db57600080fd5b506101a56103ea366004612099565b61118a565b3480156103fb57600080fd5b50610289611566565b34801561041057600080fd5b506101a561041f366004612238565b611575565b34801561043057600080fd5b506101bc61043f36600461207d565b61181d565b34801561045057600080fd5b506101a561045f3660046123f2565b61183b565b6000546001600160a01b031633146104975760405162461bcd60e51b815260040161048e90612bb6565b60405180910390fd5b6004805491151562010000027fffffffffffffffffffffffffffffffffffffffffffffffffffffffffff00ffff909216919091179055565b60045462010000900460ff165b90565b600454610100900460ff1690565b6001600160a01b03821660009081526003602090815260408083206fffffffffffffffffffffffffffffffff8086168552925290912054165b92915050565b6000546001600160a01b031633146105565760405162461bcd60e51b815260040161048e90612a7d565b6002805473ffffffffffffffffffffffffffffffffffffffff19166001600160a01b0392909216919091179055565b60008061059061189c565b90506105b9816105ad85661d7cce57a2c00063ffffffff61193616565b9063ffffffff61197116565b9392505050565b336001600160a01b03851614806105e657503360009081526001602052604090205460ff165b6106025760405162461bcd60e51b815260040161048e90612b11565b600454610100900460ff166106295760405162461bcd60e51b815260040161048e906129a1565b6001600160a01b03841661064f5760405162461bcd60e51b815260040161048e90612857565b6001600160a01b0384163014156106785760405162461bcd60e51b815260040161048e90612bed565b6107b4846106868580612cdf565b808060200260200160405190810160405280939291908181526020018383602002808284376000920191909152506106c5925050506020870187612cdf565b80806020026020016040519081016040528093929190818152602001838360200280828437600092019190915250610704925050506040880188612cdf565b80806020026020016040519081016040528093929190818152602001838360200280828437600092019190915250610743925050506060890189612cdf565b8080602002602001604051908101604052809392919081815260200183836020028082843760009201919091525050604080516020601f8c018190048102820181019092528a815260808d0135935091508a908a9081908401838280828437600092019190915250610c3292505050565b6107d05760405162461bcd60e51b815260040161048e90612a0f565b60006108556107df8580612cdf565b8080602002602001604051908101604052809392919081815260200183836020028082843760009201919091525061081e925050506020870187612cdf565b808060200260200160405190810160405280939291908181526020018383602002808284376000920191909152506119a192505050565b9050600061086282610585565b9050803410156108845760405162461bcd60e51b815260040161048e9061288e565b6008546040516001600160a01b039091169082156108fc029083906000818181858888f193505050501580156108be573d6000803e3d6000fd5b506001600160a01b037f0000000000000000000000000000000000000000000000000000000000000000166317fad7fc30886108fa8980612cdf565b61090760208c018c612cdf565b6040518763ffffffff1660e01b815260040161092896959493929190612690565b600060405180830381600087803b15801561094257600080fd5b505af1158015610956573d6000803e3d6000fd5b50506001600160a01b037f00000000000000000000000000000000000000000000000000000000000000001691506317fad7fc9050308861099a60408a018a612cdf565b6109a760608c018c612cdf565b6040518763ffffffff1660e01b81526004016109c896959493929190612690565b600060405180830381600087803b1580156109e257600080fd5b505af11580156109f6573d6000803e3d6000fd5b50505050856001600160a01b03167fdfdb2e8aa552e0517bf744153975973b0beb2bedf0e81bbf58d7744b738197b88684600085604051610a3a9493929190612c81565b60405180910390a23481900315610a7c5760405133903483900380156108fc02916000818181858888f19350505050158015610a7a573d6000803e3d6000fd5b505b505050505050565b6000546001600160a01b031690565b6000546001600160a01b03163314610abd5760405162461bcd60e51b815260040161048e90612bb6565b60058054610acd91600691611ead565b50610ada60058383611efd565b50426007556040517f12d1878396fba767a3caf43b64d874fc1f51797ce34a657529f2e54b7813e8cc90610b1190849084906127a5565b60405180910390a15050565b6000546001600160a01b03163314610b475760405162461bcd60e51b815260040161048e90612bb6565b6004805460ff1916911515919091179055565b6000546001600160a01b03163314610b845760405162461bcd60e51b815260040161048e90612ab4565b610b8e8282611a29565b5050565b6000546001600160a01b03163314610bbc5760405162461bcd60e51b815260040161048e90612b48565b6000546040517f7e644d79422f17c01e4894b5f4f588d331ebfa28653d42ae832dc59e38c9798f91610bfb916001600160a01b03909116908490612652565b60405180910390a16000805473ffffffffffffffffffffffffffffffffffffffff19166001600160a01b0392909216919091179055565b6000610c3e8884611a7f565b610c5a5760405162461bcd60e51b815260040161048e90612a46565b610c65878786611b56565b610c815760405162461bcd60e51b815260040161048e906128fc565b6000878787878c88604051602001610c9e969594939291906125aa565b6040516020818303038152906040528051906020012090506000610ce882604051602001610ccc919061260d565b6040516020818303038152906040528051906020012085611c12565b6002546001600160a01b039081169116149a9950505050505050505050565b60045460ff1690565b336001600160a01b0385161480610d3657503360009081526001602052604090205460ff165b610d525760405162461bcd60e51b815260040161048e90612b11565b60045462010000900460ff16610d7a5760405162461bcd60e51b815260040161048e90612820565b6001600160a01b038416610da05760405162461bcd60e51b815260040161048e90612857565b6001600160a01b038416301415610dc95760405162461bcd60e51b815260040161048e90612bed565b610dd7846106868580612cdf565b610df35760405162461bcd60e51b815260040161048e90612a0f565b6000610e026107df8580612cdf565b90506000610e29670de0b6b3a76400006105ad84661d7cce57a2c00063ffffffff61193616565b600854909150610e659087906001600160a01b03167f000000000000000000000000000000000000000000000000000000000000000084611ccd565b6001600160a01b037f0000000000000000000000000000000000000000000000000000000000000000166317fad7fc3088610ea08980612cdf565b610ead60208c018c612cdf565b6040518763ffffffff1660e01b8152600401610ece96959493929190612690565b600060405180830381600087803b158015610ee857600080fd5b505af1158015610efc573d6000803e3d6000fd5b50506001600160a01b037f00000000000000000000000000000000000000000000000000000000000000001691506317fad7fc90503088610f4060408a018a612cdf565b610f4d60608c018c612cdf565b6040518763ffffffff1660e01b8152600401610f6e96959493929190612690565b600060405180830381600087803b158015610f8857600080fd5b505af1158015610f9c573d6000803e3d6000fd5b50505050856001600160a01b03167fdfdb2e8aa552e0517bf744153975973b0beb2bedf0e81bbf58d7744b738197b886847f000000000000000000000000000000000000000000000000000000000000000085604051610fff9493929190612c81565b60405180910390a2505050505050565b6001600160a01b0381166110355760405162461bcd60e51b815260040161048e906129d8565b6000546001600160a01b0316331461105f5760405162461bcd60e51b815260040161048e90612bb6565b6008805473ffffffffffffffffffffffffffffffffffffffff19166001600160a01b0392909216919091179055565b6007546060908190600090156110a75750600954600754015b6006600582828054806020026020016040519081016040528092919081815260200182805480156110f757602002820191906000526020600020905b8154815260200190600101908083116110e3575b505050505092508180548060200260200160405190810160405280929190818152602001828054801561114957602002820191906000526020600020905b815481526020019060010190808311611135575b50505050509150925092509250909192565b60036020908152600092835260408084209091529082529020546fffffffffffffffffffffffffffffffff1681565b6000546001600160a01b031633146111b45760405162461bcd60e51b815260040161048e90612bb6565b60608367ffffffffffffffff811180156111cd57600080fd5b506040519080825280602002602001820160405280156111f7578160200160208202803683370190505b50905060005b84811015611232573082828151811061121257fe5b6001600160a01b03909216602092830291909101909101526001016111fd565b5060608267ffffffffffffffff8111801561124c57600080fd5b50604051908082528060200260200182016040528015611276578160200160208202803683370190505b50905060005b838110156112b1573082828151811061129157fe5b6001600160a01b039092166020928302919091019091015260010161127c565b506040517f4e1273f40000000000000000000000000000000000000000000000000000000081526060906001600160a01b037f00000000000000000000000000000000000000000000000000000000000000001690634e1273f49061131e9086908b908b90600401612743565b60006040518083038186803b15801561133657600080fd5b505afa15801561134a573d6000803e3d6000fd5b505050506040513d6000823e601f3d908101601f19168201604052611372919081019061235f565b905060607f00000000000000000000000000000000000000000000000000000000000000006001600160a01b0316634e1273f48488886040518463ffffffff1660e01b81526004016113c693929190612743565b60006040518083038186803b1580156113de57600080fd5b505afa1580156113f2573d6000803e3d6000fd5b505050506040513d6000823e601f3d908101601f1916820160405261141a919081019061235f565b6040517f17fad7fc0000000000000000000000000000000000000000000000000000000081529091506001600160a01b037f000000000000000000000000000000000000000000000000000000000000000016906317fad7fc9061148a9030908d908d908d9089906004016126dd565b600060405180830381600087803b1580156114a457600080fd5b505af11580156114b8573d6000803e3d6000fd5b50506040517f17fad7fc0000000000000000000000000000000000000000000000000000000081526001600160a01b037f00000000000000000000000000000000000000000000000000000000000000001692506317fad7fc91506115299030908d908b908b9088906004016126dd565b600060405180830381600087803b15801561154357600080fd5b505af1158015611557573d6000803e3d6000fd5b50505050505050505050505050565b6002546001600160a01b031690565b336001600160a01b038516148061159b57503360009081526001602052604090205460ff165b6115b75760405162461bcd60e51b815260040161048e90612b11565b60045460ff166115d95760405162461bcd60e51b815260040161048e90612933565b6001600160a01b0384166115ff5760405162461bcd60e51b815260040161048e90612857565b61160d846106868580612cdf565b6116295760405162461bcd60e51b815260040161048e90612a0f565b60006116386107df8580612cdf565b6008549091506116749086906001600160a01b03167f000000000000000000000000000000000000000000000000000000000000000084611ccd565b6001600160a01b037f0000000000000000000000000000000000000000000000000000000000000000166317fad7fc30876116af8880612cdf565b6116bc60208b018b612cdf565b6040518763ffffffff1660e01b81526004016116dd96959493929190612690565b600060405180830381600087803b1580156116f757600080fd5b505af115801561170b573d6000803e3d6000fd5b50506001600160a01b037f00000000000000000000000000000000000000000000000000000000000000001691506317fad7fc9050308761174f6040890189612cdf565b61175c60608b018b612cdf565b6040518763ffffffff1660e01b815260040161177d96959493929190612690565b600060405180830381600087803b15801561179757600080fd5b505af11580156117ab573d6000803e3d6000fd5b50505050846001600160a01b03167fdfdb2e8aa552e0517bf744153975973b0beb2bedf0e81bbf58d7744b738197b885837f00000000000000000000000000000000000000000000000000000000000000008560405161180e9493929190612c81565b60405180910390a25050505050565b6001600160a01b031660009081526001602052604090205460ff1690565b6000546001600160a01b031633146118655760405162461bcd60e51b815260040161048e90612bb6565b60048054911515610100027fffffffffffffffffffffffffffffffffffffffffffffffffffffffffffff00ff909216919091179055565b6000807f00000000000000000000000000000000000000000000000000000000000000006001600160a01b03166357de26a46040518163ffffffff1660e01b815260040160206040518083038186803b1580156118f857600080fd5b505afa15801561190c573d6000803e3d6000fd5b505050506040513d601f19601f82011682018060405250810190611930919061242a565b91505090565b60008261194557506000610526565b508181028183828161195357fe5b04146105265760405162461bcd60e51b815260040161048e90612b7f565b6000816119905760405162461bcd60e51b815260040161048e90612c4a565b81838161199957fe5b049392505050565b600060606119ad611d88565b90506000805b8551811015611a205760008682815181106119ca57fe5b6020026020010151905060008683815181106119e257fe5b60200260200101519050611a12818684815181106119fc57fe5b602002602001015161193690919063ffffffff16565b9093019250506001016119b3565b50949350505050565b6001600160a01b03821660009081526001602052604090819020805460ff1916831515179055517fb21eb88b4e33b3f1281830a7178d74d8aa73220416215726b68ae23d539515cb90610b119084908490612728565b6001600160a01b038216600090815260036020908152604080832070010000000000000000000000000000000085046fffffffffffffffffffffffffffffffff81811686529190935290832054848216911680821415611b4a576001600160a01b03861660009081526003602090815260408083206fffffffffffffffffffffffffffffffff9687168452909152902080547fffffffffffffffffffffffffffffffff0000000000000000000000000000000016600192830190941693909317909255509050610526565b50600095945050505050565b60008080805b8551811015611bd5576004878281518110611b7357fe5b602002602001015110611b985760405162461bcd60e51b815260040161048e9061296a565b868181518110611ba457fe5b6020026020010151600101868281518110611bbb57fe5b602002602001015102830192508080600101915050611b5c565b5060005b8451811015611c0757848181518110611bee57fe5b6020026020010151820191508080600101915050611bd9565b501115949350505050565b60008151604114611c2257600080fd5b60208201516040830151606084015160001a601b811015611c4157601b015b8060ff16601b1480611c5657508060ff16601c145b611c5f57600080fd5b60018682858560405160008152602001604052604051611c829493929190612802565b6020604051602081039080840390855afa158015611ca4573d6000803e3d6000fd5b5050604051601f1901519450506001600160a01b038416611cc457600080fd5b50505092915050565b6040517f23b872dd000000000000000000000000000000000000000000000000000000008152829082906001600160a01b038316906323b872dd90611d1a9089908990869060040161266c565b602060405180830381600087803b158015611d3457600080fd5b505af1158015611d48573d6000803e3d6000fd5b505050506040513d601f19601f82011682018060405250810190611d6c919061240e565b610a7c5760405162461bcd60e51b815260040161048e906128c5565b60608060075460001415611dee576005805480602002602001604051908101604052809291908181526020018280548015611de257602002820191906000526020600020905b815481526020019060010190808311611dce575b50505050509050611ea8565b600754610e1001421115611e545760006007556005805460408051602080840282018101909252828152929190830182828015611de25760200282019190600052602060002090815481526020019060010190808311611dce5750505050509050611ea8565b6006805480602002602001604051908101604052809291908181526020018280548015611ea057602002820191906000526020600020905b815481526020019060010190808311611e8c575b505050505090505b905090565b828054828255906000526020600020908101928215611eed5760005260206000209182015b82811115611eed578254825591600101919060010190611ed2565b50611ef9929150611f38565b5090565b828054828255906000526020600020908101928215611eed579160200282015b82811115611eed578235825591602001919060010190611f1d565b6104dc91905b80821115611ef95760008155600101611f3e565b803561052681612db9565b60008083601f840112611f6e578182fd5b50813567ffffffffffffffff811115611f85578182fd5b6020830191508360208083028501011115611f9f57600080fd5b9250929050565b600082601f830112611fb6578081fd5b8135611fc9611fc482612d51565b612d2a565b818152915060208083019084810181840286018201871015611fea57600080fd5b60005b8481101561200957813584529282019290820190600101611fed565b505050505092915050565b600082601f830112612024578081fd5b813567ffffffffffffffff81111561203a578182fd5b61204d6020601f19601f84011601612d2a565b915080825283602082850101111561206457600080fd5b8060208401602084013760009082016020015292915050565b60006020828403121561208e578081fd5b81356105b981612db9565b6000806000806000606086880312156120b0578081fd5b85356120bb81612db9565b9450602086013567ffffffffffffffff808211156120d7578283fd5b6120e389838a01611f5d565b909650945060408801359150808211156120fb578283fd5b5061210888828901611f5d565b969995985093965092949392505050565b600080600080600080600060e0888a031215612133578182fd5b61213d8989611f52565b9650602088013567ffffffffffffffff80821115612159578384fd5b6121658b838c01611fa6565b975060408a013591508082111561217a578384fd5b6121868b838c01611fa6565b965060608a013591508082111561219b578384fd5b6121a78b838c01611fa6565b955060808a01359150808211156121bc578384fd5b6121c88b838c01611fa6565b945060a08a0135935060c08a01359150808211156121e4578283fd5b506121f18a828b01612014565b91505092959891949750929550565b60008060408385031215612212578182fd5b823561221d81612db9565b9150602083013561222d81612dd1565b809150509250929050565b6000806000806060858703121561224d578384fd5b843561225881612db9565b9350602085013567ffffffffffffffff80821115612274578485fd5b81870160a0818a031215612286578586fd5b9450604087013591508082111561229b578384fd5b81870188601f8201126122ac578485fd5b80359250818311156122bc578485fd5b8860208483010111156122cd578485fd5b959894975050602090940194505050565b600080604083850312156122f0578182fd5b82356122fb81612db9565b915060208301356fffffffffffffffffffffffffffffffff8116811461222d578182fd5b60008060208385031215612331578182fd5b823567ffffffffffffffff811115612347578283fd5b61235385828601611f5d565b90969095509350505050565b60006020808385031215612371578182fd5b825167ffffffffffffffff811115612387578283fd5b80840185601f820112612398578384fd5b805191506123a8611fc483612d51565b82815283810190828501858502840186018910156123c4578687fd5b8693505b848410156123e65780518352600193909301929185019185016123c8565b50979650505050505050565b600060208284031215612403578081fd5b81356105b981612dd1565b60006020828403121561241f578081fd5b81516105b981612dd1565b60006020828403121561243b578081fd5b5051919050565b600060208284031215612453578081fd5b5035919050565b60008284527f07ffffffffffffffffffffffffffffffffffffffffffffffffffffffffffffff83111561248b578081fd5b6020830280836020870137939093016020019283525090919050565b6000815180845260208085019450808401835b838110156124d6578151875295820195908201906001016124ba565b509495945050505050565b805160009060208084018383156124d6578151875295820195908201906001016124ba565b60006125128283612d71565b60a0855261252460a08601828461245a565b6125316020860186612d71565b93509150858103602087015261254881848461245a565b6125556040870187612d71565b94509250868103604088015261256c81858561245a565b91505061257c6060860186612d71565b93509150858103606087015261259381848461245a565b608086013560808801528094505050505092915050565b60006125d16125cb6125c56125bf858c6124e1565b8a6124e1565b886124e1565b866124e1565b60609490941b7fffffffffffffffffffffffffffffffffffffffff00000000000000000000000016845250506014820152603401949350505050565b7f19457468657265756d205369676e6564204d6573736167653a0a3332000000008152601c810191909152603c0190565b6001600160a01b0391909116815260200190565b6001600160a01b0392831681529116602082015260400190565b6001600160a01b039384168152919092166020820152604081019190915260600190565b60006001600160a01b038089168352808816602084015250608060408301526126bd60808301868861245a565b82810360608401526126d081858761245a565b9998505050505050505050565b60006001600160a01b0380881683528087166020840152506080604083015261270a60808301858761245a565b828103606084015261271c81856124a7565b98975050505050505050565b6001600160a01b039290921682521515602082015260400190565b604080825284519082018190526000906020906060840190828801845b828110156127855781516001600160a01b031684529284019290840190600101612760565b5050508381038285015261279a81868861245a565b979650505050505050565b6000602082526127b960208301848661245a565b949350505050565b6000606082526127d460608301866124a7565b82810360208401526127e681866124a7565b915050826040830152949350505050565b901515815260200190565b93845260ff9290921660208401526040830152606082015260800190565b60208082526012908201527f4441495f49535f4e4f545f454e41424c45440000000000000000000000000000604082015260600190565b60208082526018908201527f44455354494e4154494f4e5f5a45524f5f414444524553530000000000000000604082015260600190565b60208082526015908201527f4e4f545f454e4f5547485f45544845525f53454e540000000000000000000000604082015260600190565b60208082526017908201527f5041594d454e545f5452414e534645525f4641494c4544000000000000000000604082015260600190565b6020808252600c908201527f494e56414c49445f47454d530000000000000000000000000000000000000000604082015260600190565b60208082526013908201527f53414e445f49535f4e4f545f454e41424c454400000000000000000000000000604082015260600190565b60208082526010908201527f49445f4f55545f4f465f424f554e445300000000000000000000000000000000604082015260600190565b60208082526014908201527f45544845525f49535f4e4f545f454e41424c4544000000000000000000000000604082015260600190565b60208082526013908201527f57414c4c45545f5a45524f5f4144445245535300000000000000000000000000604082015260600190565b60208082526010908201527f494e56414c49445f505552434841534500000000000000000000000000000000604082015260600190565b6020808252600d908201527f494e56414c49445f4e4f4e434500000000000000000000000000000000000000604082015260600190565b60208082526010908201527f53454e4445525f4e4f545f41444d494e00000000000000000000000000000000604082015260600190565b6020808252602e908201527f6f6e6c792061646d696e2063616e207365747570206d6574615472616e73616360408201527f74696f6e50726f636573736f7273000000000000000000000000000000000000606082015260800190565b6020808252600e908201527f494e56414c49445f53454e444552000000000000000000000000000000000000604082015260600190565b6020808252601b908201527f6f6e6c792061646d696e2063616e206368616e67652061646d696e0000000000604082015260600190565b60208082526008908201527f6f766572666c6f77000000000000000000000000000000000000000000000000604082015260600190565b6020808252600e908201527f4e4f545f415554484f52495a4544000000000000000000000000000000000000604082015260600190565b60208082526022908201527f44455354494e4154494f4e5f535441525445525041434b56315f434f4e54524160408201527f4354000000000000000000000000000000000000000000000000000000000000606082015260800190565b60208082526009908201527f64697662797a65726f0000000000000000000000000000000000000000000000604082015260600190565b600060808252612c946080830187612506565b6020830195909552506001600160a01b03929092166040830152606090910152919050565b6fffffffffffffffffffffffffffffffff91909116815260200190565b90815260200190565b6000808335601e19843603018112612cf5578283fd5b8084018035925067ffffffffffffffff831115612d10578384fd5b6020810193505050602081023603821315611f9f57600080fd5b60405181810167ffffffffffffffff81118282101715612d4957600080fd5b604052919050565b600067ffffffffffffffff821115612d67578081fd5b5060209081020190565b6000808335601e19843603018112612d87578283fd5b830160208101925035905067ffffffffffffffff811115612da757600080fd5b602081023603831315611f9f57600080fd5b6001600160a01b0381168114612dce57600080fd5b50565b8015158114612dce57600080fdfea264697066735822122052c0893806f272a0e51c0a8513b25b2bb49f3a0227de3414544e8e980c39ac1564736f6c63430006050033",
  "devdoc": {
    "methods": {
      "changeAdmin(address)": {
        "details": "change the administrator to be `newAdmin`.",
        "params": {
          "newAdmin": "address of the new administrator."
        }
      },
      "getAdmin()": {
        "details": "gives the current administrator of this contract.",
        "returns": {
          "_0": "the current administrator of this contract."
        }
      },
      "getEtherAmountWithSAND(uint256)": {
        "params": {
          "sandAmount": "An amount of SAND"
        },
        "returns": {
          "_0": "The amount of ETH"
        }
      },
      "getNonceByBuyer(address,uint128)": {
        "params": {
          "_buyer": "The address of the starterPack purchaser",
          "_queueId": "The ID of the nonce queue for the given address. The default is queueID=0, and the max is queueID=2**128-1"
        },
        "returns": {
          "_0": "uint128 representing the requestied nonce"
        }
      },
      "isMetaTransactionProcessor(address)": {
        "details": "check whether address `who` is given meta-transaction execution rights.",
        "params": {
          "who": "The address to query."
        },
        "returns": {
          "_0": "whether the address has meta-transaction execution rights."
        }
      },
      "isPurchaseValid(address,uint256[],uint256[],uint256[],uint256[],uint256,bytes)": {
        "params": {
          "buyer": "The address paying for the purchase & receiving tokens",
          "catalystIds": "The catalyst IDs to be purchased",
          "catalystQuantities": "The quantities of the catalysts to be purchased",
          "gemIds": "The gem IDs to be purchased",
          "gemQuantities": "The quantities of the gems to be purchased",
          "nonce": "The current nonce for the user. This is represented as a uint256 value, but is actually 2 packed uint128's (queueId + nonce)",
          "signature": "A signed message specifying tx details"
        },
        "returns": {
          "_0": "True if the purchase is valid"
        }
      },
      "purchaseWithDAI(address,(uint256[],uint256[],uint256[],uint256[],uint256),bytes)": {
        "params": {
          "buyer": "The destination address for the purchased Catalysts and Gems and the address that will pay for the purchase; if not metaTx then buyer must be equal to msg.sender",
          "message": "A message containing information about the Catalysts and Gems to be purchased",
          "signature": "A signed message specifying tx details"
        }
      },
      "purchaseWithETH(address,(uint256[],uint256[],uint256[],uint256[],uint256),bytes)": {
        "params": {
          "buyer": "The destination address for the purchased Catalysts and Gems and the address that will pay for the purchase; if not metaTx then buyer must be equal to msg.sender",
          "message": "A message containing information about the Catalysts and Gems to be purchased",
          "signature": "A signed message specifying tx details"
        }
      },
      "purchaseWithSand(address,(uint256[],uint256[],uint256[],uint256[],uint256),bytes)": {
        "params": {
          "buyer": "The destination address for the purchased Catalysts and Gems and the address that will pay for the purchase; if not metaTx then buyer must be equal to msg.sender",
          "message": "A message containing information about the Catalysts and Gems to be purchased",
          "signature": "A signed message specifying tx details"
        }
      },
      "setDAIEnabled(bool)": {
        "params": {
          "enabled": "Whether to enable or disable"
        }
      },
      "setETHEnabled(bool)": {
        "params": {
          "enabled": "Whether to enable or disable"
        }
      },
      "setMetaTransactionProcessor(address,bool)": {
        "details": "Enable or disable the ability of `metaTransactionProcessor` to perform meta-tx (metaTransactionProcessor rights).",
        "params": {
          "enabled": "set whether the metaTransactionProcessor is enabled or disabled.",
          "metaTransactionProcessor": "address that will be given/removed metaTransactionProcessor rights."
        }
      },
      "setPrices(uint256[])": {
        "params": {
          "prices": "Array of new prices that wil take effect after a delay period"
        }
      },
      "setReceivingWallet(address)": {
        "params": {
          "newWallet": "Address of the new receiving wallet"
        }
      },
      "setSANDEnabled(bool)": {
        "details": "Enable / disable the specific SAND payment for StarterPacks",
        "params": {
          "enabled": "Whether to enable or disable"
        }
      },
      "updateSigningWallet(address)": {
        "params": {
          "newSigningWallet": "The new address of the signing wallet"
        }
      },
      "withdrawAll(address,uint256[],uint256[])": {
        "params": {
          "catalystIds": "The IDs of the catalysts to be transferred",
          "gemIds": "The IDs of the gems to be transferred",
          "to": "The destination address for the purchased Catalysts and Gems"
        }
      }
    },
    "title": "StarterPack contract that supports SAND, DAI and ETH as payment"
  },
  "userdoc": {
    "methods": {
      "getEtherAmountWithSAND(uint256)": {
        "notice": "Returns the amount of ETH for a specific amount of SAND"
      },
      "getNonceByBuyer(address,uint128)": {
        "notice": "Function to get the nonce for a given address and queue ID"
      },
      "getPrices()": {
        "notice": "Get current StarterPack prices"
      },
      "getSigningWallet()": {
        "notice": "Get the wallet authorized for signing purchase-messages."
      },
      "isDAIEnabled()": {
        "notice": "Return whether DAI payments are enabled"
      },
      "isETHEnabled()": {
        "notice": "Return whether ETH payments are enabled"
      },
      "isPurchaseValid(address,uint256[],uint256[],uint256[],uint256[],uint256,bytes)": {
        "notice": "Check if a purchase message is valid"
      },
      "isSANDEnabled()": {
        "notice": "Return whether SAND payments are enabled"
      },
      "purchaseWithDAI(address,(uint256[],uint256[],uint256[],uint256[],uint256),bytes)": {
        "notice": "Purchase StarterPacks with DAI"
      },
      "purchaseWithETH(address,(uint256[],uint256[],uint256[],uint256[],uint256),bytes)": {
        "notice": "Purchase StarterPacks with Ether"
      },
      "purchaseWithSand(address,(uint256[],uint256[],uint256[],uint256[],uint256),bytes)": {
        "notice": "Purchase StarterPacks with SAND"
      },
      "setDAIEnabled(bool)": {
        "notice": "Enable / disable DAI payment for StarterPacks"
      },
      "setETHEnabled(bool)": {
        "notice": "Enable / disable ETH payment for StarterPacks"
      },
      "setPrices(uint256[])": {
        "notice": "Enables admin to change the prices of the StarterPack bundles"
      },
      "setReceivingWallet(address)": {
        "notice": "Set the wallet receiving the proceeds"
      },
      "updateSigningWallet(address)": {
        "notice": "Update the signing wallet address"
      },
      "withdrawAll(address,uint256[],uint256[])": {
        "notice": "Enables admin to withdraw all remaining tokens"
      }
    },
    "notice": "This contract manages the purchase and distribution of StarterPacks (bundles of Catalysts and Gems)"
  },
  "storageLayout": {
    "storage": [
      {
        "astId": 12234,
        "contract": "src/StarterPack/StarterPackV1.sol:StarterPackV1",
        "label": "_admin",
        "offset": 0,
        "slot": "0",
        "type": "t_address"
      },
      {
        "astId": 12296,
        "contract": "src/StarterPack/StarterPackV1.sol:StarterPackV1",
        "label": "_metaTransactionContracts",
        "offset": 0,
        "slot": "1",
        "type": "t_mapping(t_address,t_bool)"
      },
      {
        "astId": 10774,
        "contract": "src/StarterPack/StarterPackV1.sol:StarterPackV1",
        "label": "_signingWallet",
        "offset": 0,
        "slot": "2",
        "type": "t_address"
      },
      {
        "astId": 10780,
        "contract": "src/StarterPack/StarterPackV1.sol:StarterPackV1",
        "label": "queuedNonces",
        "offset": 0,
        "slot": "3",
        "type": "t_mapping(t_address,t_mapping(t_uint128,t_uint128))"
      },
      {
        "astId": 11087,
        "contract": "src/StarterPack/StarterPackV1.sol:StarterPackV1",
        "label": "_sandEnabled",
        "offset": 0,
        "slot": "4",
        "type": "t_bool"
      },
      {
        "astId": 11089,
        "contract": "src/StarterPack/StarterPackV1.sol:StarterPackV1",
        "label": "_etherEnabled",
        "offset": 1,
        "slot": "4",
        "type": "t_bool"
      },
      {
        "astId": 11091,
        "contract": "src/StarterPack/StarterPackV1.sol:StarterPackV1",
        "label": "_daiEnabled",
        "offset": 2,
        "slot": "4",
        "type": "t_bool"
      },
      {
        "astId": 11094,
        "contract": "src/StarterPack/StarterPackV1.sol:StarterPackV1",
        "label": "_starterPackPrices",
        "offset": 0,
        "slot": "5",
        "type": "t_array(t_uint256)dyn_storage"
      },
      {
        "astId": 11097,
        "contract": "src/StarterPack/StarterPackV1.sol:StarterPackV1",
        "label": "_previousStarterPackPrices",
        "offset": 0,
        "slot": "6",
        "type": "t_array(t_uint256)dyn_storage"
      },
      {
        "astId": 11099,
        "contract": "src/StarterPack/StarterPackV1.sol:StarterPackV1",
        "label": "_priceChangeTimestamp",
        "offset": 0,
        "slot": "7",
        "type": "t_uint256"
      },
      {
        "astId": 11101,
        "contract": "src/StarterPack/StarterPackV1.sol:StarterPackV1",
        "label": "_wallet",
        "offset": 0,
        "slot": "8",
        "type": "t_address_payable"
      },
      {
        "astId": 11104,
        "contract": "src/StarterPack/StarterPackV1.sol:StarterPackV1",
        "label": "_priceChangeDelay",
        "offset": 0,
        "slot": "9",
        "type": "t_uint256"
      }
    ],
    "types": {
      "t_address": {
        "encoding": "inplace",
        "label": "address",
        "numberOfBytes": "20"
      },
      "t_address_payable": {
        "encoding": "inplace",
        "label": "address payable",
        "numberOfBytes": "20"
      },
      "t_array(t_uint256)dyn_storage": {
        "base": "t_uint256",
        "encoding": "dynamic_array",
        "label": "uint256[]",
        "numberOfBytes": "32"
      },
      "t_bool": {
        "encoding": "inplace",
        "label": "bool",
        "numberOfBytes": "1"
      },
      "t_mapping(t_address,t_bool)": {
        "encoding": "mapping",
        "key": "t_address",
        "label": "mapping(address => bool)",
        "numberOfBytes": "32",
        "value": "t_bool"
      },
      "t_mapping(t_address,t_mapping(t_uint128,t_uint128))": {
        "encoding": "mapping",
        "key": "t_address",
        "label": "mapping(address => mapping(uint128 => uint128))",
        "numberOfBytes": "32",
        "value": "t_mapping(t_uint128,t_uint128)"
      },
      "t_mapping(t_uint128,t_uint128)": {
        "encoding": "mapping",
        "key": "t_uint128",
        "label": "mapping(uint128 => uint128)",
        "numberOfBytes": "32",
        "value": "t_uint128"
      },
      "t_uint128": {
        "encoding": "inplace",
        "label": "uint128",
        "numberOfBytes": "16"
      },
      "t_uint256": {
        "encoding": "inplace",
        "label": "uint256",
        "numberOfBytes": "32"
      }
    }
  },
  "gasEstimates": {
    "creation": {
      "codeDepositCost": "2359400",
      "executionCost": "infinite",
      "totalCost": "infinite"
    },
    "external": {
      "changeAdmin(address)": "24260",
      "getAdmin()": "1160",
      "getEtherAmountWithSAND(uint256)": "infinite",
      "getNonceByBuyer(address,uint128)": "1499",
      "getPrices()": "infinite",
      "getSigningWallet()": "1159",
      "isDAIEnabled()": "1121",
      "isETHEnabled()": "1097",
      "isMetaTransactionProcessor(address)": "1342",
      "isPurchaseValid(address,uint256[],uint256[],uint256[],uint256[],uint256,bytes)": "infinite",
      "isSANDEnabled()": "1130",
      "purchaseWithDAI(address,(uint256[],uint256[],uint256[],uint256[],uint256),bytes)": "infinite",
      "purchaseWithETH(address,(uint256[],uint256[],uint256[],uint256[],uint256),bytes)": "infinite",
      "purchaseWithSand(address,(uint256[],uint256[],uint256[],uint256[],uint256),bytes)": "infinite",
      "queuedNonces(address,uint128)": "1441",
      "setDAIEnabled(bool)": "22021",
      "setETHEnabled(bool)": "22062",
      "setMetaTransactionProcessor(address,bool)": "infinite",
      "setPrices(uint256[])": "infinite",
      "setReceivingWallet(address)": "22095",
      "setSANDEnabled(bool)": "22030",
      "updateSigningWallet(address)": "22083",
      "withdrawAll(address,uint256[],uint256[])": "infinite"
    },
    "internal": {
      "_calculateTotalPriceInSand(uint256[] memory,uint256[] memory)": "infinite",
      "_getEthUsdPair()": "infinite",
      "_handlePurchaseWithERC20(address,address payable,address,uint256)": "infinite",
      "_priceSelector()": "infinite"
    }
  }
}