{
  "abi": [
    {
      "constant": false,
      "inputs": [
        {
          "name": "spender",
          "type": "address"
        },
        {
          "name": "amount",
          "type": "uint256"
        }
      ],
      "name": "approve",
      "outputs": [
        {
          "name": "success",
          "type": "bool"
        }
      ],
      "payable": false,
      "stateMutability": "nonpayable",
      "type": "function",
      "signature": "0x095ea7b3"
    },
    {
      "constant": true,
      "inputs": [],
      "name": "totalSupply",
      "outputs": [
        {
          "name": "",
          "type": "uint256"
        }
      ],
      "payable": false,
      "stateMutability": "view",
      "type": "function",
      "signature": "0x18160ddd"
    },
    {
      "constant": false,
      "inputs": [
        {
          "name": "owner",
          "type": "address"
        },
        {
          "name": "amount",
          "type": "uint256"
        }
      ],
      "name": "burnFor",
      "outputs": [
        {
          "name": "",
          "type": "bool"
        }
      ],
      "payable": false,
      "stateMutability": "nonpayable",
      "type": "function",
      "signature": "0x1dd319cb"
    },
    {
      "constant": false,
      "inputs": [
        {
          "name": "from",
          "type": "address"
        },
        {
          "name": "to",
          "type": "address"
        },
        {
          "name": "amount",
          "type": "uint256"
        }
      ],
      "name": "transferFrom",
      "outputs": [
        {
          "name": "success",
          "type": "bool"
        }
      ],
      "payable": false,
      "stateMutability": "nonpayable",
      "type": "function",
      "signature": "0x23b872dd"
    },
    {
      "constant": false,
      "inputs": [
        {
          "name": "owner",
          "type": "address"
        },
        {
          "name": "spender",
          "type": "address"
        },
        {
          "name": "amount",
          "type": "uint256"
        }
      ],
      "name": "approveFor",
      "outputs": [
        {
          "name": "success",
          "type": "bool"
        }
      ],
      "payable": false,
      "stateMutability": "nonpayable",
      "type": "function",
      "signature": "0x2b991746"
    },
    {
      "constant": true,
      "inputs": [],
      "name": "decimals",
      "outputs": [
        {
          "name": "",
          "type": "uint8"
        }
      ],
      "payable": false,
      "stateMutability": "view",
      "type": "function",
      "signature": "0x313ce567"
    },
    {
      "constant": false,
      "inputs": [
        {
          "name": "amount",
          "type": "uint256"
        }
      ],
      "name": "burn",
      "outputs": [
        {
          "name": "",
          "type": "bool"
        }
      ],
      "payable": false,
      "stateMutability": "nonpayable",
      "type": "function",
      "signature": "0x42966c68"
    },
    {
      "constant": true,
      "inputs": [
        {
          "name": "who",
          "type": "address"
        }
      ],
      "name": "isSuperOperator",
      "outputs": [
        {
          "name": "",
          "type": "bool"
        }
      ],
      "payable": false,
      "stateMutability": "view",
      "type": "function",
      "signature": "0x654b748a"
    },
    {
      "constant": true,
      "inputs": [],
      "name": "getAdmin",
      "outputs": [
        {
          "name": "",
          "type": "address"
        }
      ],
      "payable": false,
      "stateMutability": "view",
      "type": "function",
      "signature": "0x6e9960c3"
    },
    {
      "constant": true,
      "inputs": [
        {
          "name": "owner",
          "type": "address"
        }
      ],
      "name": "balanceOf",
      "outputs": [
        {
          "name": "",
          "type": "uint256"
        }
      ],
      "payable": false,
      "stateMutability": "view",
      "type": "function",
      "signature": "0x70a08231"
    },
    {
      "constant": false,
      "inputs": [
        {
          "name": "newAdmin",
          "type": "address"
        }
      ],
      "name": "changeAdmin",
      "outputs": [],
      "payable": false,
      "stateMutability": "nonpayable",
      "type": "function",
      "signature": "0x8f283970"
    },
    {
      "constant": false,
      "inputs": [
        {
          "name": "to",
          "type": "address"
        },
        {
          "name": "amount",
          "type": "uint256"
        }
      ],
      "name": "transfer",
      "outputs": [
        {
          "name": "success",
          "type": "bool"
        }
      ],
      "payable": false,
      "stateMutability": "nonpayable",
      "type": "function",
      "signature": "0xa9059cbb"
    },
    {
      "constant": false,
      "inputs": [
        {
          "name": "superOperator",
          "type": "address"
        },
        {
          "name": "enabled",
          "type": "bool"
        }
      ],
      "name": "setSuperOperator",
      "outputs": [],
      "payable": false,
      "stateMutability": "nonpayable",
      "type": "function",
      "signature": "0xac9fe421"
    },
    {
      "constant": true,
      "inputs": [
        {
          "name": "owner",
          "type": "address"
        },
        {
          "name": "spender",
          "type": "address"
        }
      ],
      "name": "allowance",
      "outputs": [
        {
          "name": "remaining",
          "type": "uint256"
        }
      ],
      "payable": false,
      "stateMutability": "view",
      "type": "function",
      "signature": "0xdd62ed3e"
    },
    {
      "inputs": [],
      "payable": false,
      "stateMutability": "nonpayable",
      "type": "constructor",
      "signature": "constructor"
    },
    {
      "anonymous": false,
      "inputs": [
        {
          "indexed": true,
          "name": "from",
          "type": "address"
        },
        {
          "indexed": true,
          "name": "to",
          "type": "address"
        },
        {
          "indexed": false,
          "name": "value",
          "type": "uint256"
        }
      ],
      "name": "Transfer",
      "type": "event",
      "signature": "0xddf252ad1be2c89b69c2b068fc378daa952ba7f163c4a11628f55a4df523b3ef"
    },
    {
      "anonymous": false,
      "inputs": [
        {
          "indexed": true,
          "name": "owner",
          "type": "address"
        },
        {
          "indexed": true,
          "name": "spender",
          "type": "address"
        },
        {
          "indexed": false,
          "name": "value",
          "type": "uint256"
        }
      ],
      "name": "Approval",
      "type": "event",
      "signature": "0x8c5be1e5ebec7d5bd14f71427d1e84f3dd0314c0f7b2291e5b200ac8c7c3b925"
    },
    {
      "anonymous": false,
      "inputs": [
        {
          "indexed": false,
          "name": "superOperator",
          "type": "address"
        },
        {
          "indexed": false,
          "name": "enabled",
          "type": "bool"
        }
      ],
      "name": "SuperOperator",
      "type": "event",
      "signature": "0x44f92d27abdf4cfb6a7d712c3af68f3be086d4ca747ab802c36f67d6790060d8"
    },
    {
      "anonymous": false,
      "inputs": [
        {
          "indexed": false,
          "name": "oldAdmin",
          "type": "address"
        },
        {
          "indexed": false,
          "name": "newAdmin",
          "type": "address"
        }
      ],
      "name": "AdminChanged",
      "type": "event",
      "signature": "0x7e644d79422f17c01e4894b5f4f588d331ebfa28653d42ae832dc59e38c9798f"
    }
  ],
  "address": "0xBD6bd726D722dbC74daD73a314d29C0508fc3299",
  "args": [],
  "solcInputHash": "0xb31b04c1a83525affbdbf047f7dc98805a17f0520df131e4cdc5c573e1044ddf",
  "bytecode": "0x608060405234801561001057600080fd5b50610030336b09b18ab5df7180b6b80000006001600160e01b0361003516565b6101eb565b6001600160a01b0382166100aa57604080517f08c379a000000000000000000000000000000000000000000000000000000000815260206004820152601260248201527f43616e6e6f74206d696e7420746f203078300000000000000000000000000000604482015290519081900360640190fd5b6000811161011957604080517f08c379a000000000000000000000000000000000000000000000000000000000815260206004820152601460248201527f63616e6e6f74206d696e74203020746f6b656e73000000000000000000000000604482015290519081900360640190fd5b60025481810181811161018d57604080517f08c379a000000000000000000000000000000000000000000000000000000000815260206004820152600860248201527f6f766572666c6f77000000000000000000000000000000000000000000000000604482015290519081900360640190fd5b60028190556001600160a01b0384166000818152600360209081526040808320805488019055805187815290517fddf252ad1be2c89b69c2b068fc378daa952ba7f163c4a11628f55a4df523b3ef929181900390910190a350505050565b610c1d806101fa6000396000f3fe608060405234801561001057600080fd5b50600436106100ea5760003560e01c8063654b748a1161008c5780638f283970116100665780638f2839701461028c578063a9059cbb146102b4578063ac9fe421146102e0578063dd62ed3e1461030e576100ea565b8063654b748a1461021c5780636e9960c31461024257806370a0823114610266576100ea565b806323b872dd116100c857806323b872dd146101755780632b991746146101ab578063313ce567146101e157806342966c68146101ff576100ea565b8063095ea7b3146100ef57806318160ddd1461012f5780631dd319cb14610149575b600080fd5b61011b6004803603604081101561010557600080fd5b506001600160a01b03813516906020013561033c565b604080519115158252519081900360200190f35b610137610352565b60408051918252519081900360200190f35b61011b6004803603604081101561015f57600080fd5b506001600160a01b038135169060200135610358565b61011b6004803603606081101561018b57600080fd5b506001600160a01b03813581169160208101359091169060400135610364565b61011b600480360360608110156101c157600080fd5b506001600160a01b03813581169160208101359091169060400135610456565b6101e96104c4565b6040805160ff9092168252519081900360200190f35b61011b6004803603602081101561021557600080fd5b50356104c9565b61011b6004803603602081101561023257600080fd5b50356001600160a01b03166104dd565b61024a6104fb565b604080516001600160a01b039092168252519081900360200190f35b6101376004803603602081101561027c57600080fd5b50356001600160a01b031661050a565b6102b2600480360360208110156102a257600080fd5b50356001600160a01b0316610525565b005b61011b600480360360408110156102ca57600080fd5b506001600160a01b038135169060200135610606565b6102b2600480360360408110156102f657600080fd5b506001600160a01b0381351690602001351515610613565b6101376004803603604081101561032457600080fd5b506001600160a01b03813581169160200135166106de565b6000610349338484610709565b50600192915050565b60025490565b600061034983836107dc565b6000336001600160a01b0385161480159061038f57503360009081526001602052604090205460ff16155b15610441576001600160a01b0384166000908152600460209081526040808320338452909152902054600019811461043f5782811015610416576040805162461bcd60e51b815260206004820152601860248201527f4e6f7420656e6f7567682066756e647320616c6c6f7765640000000000000000604482015290519081900360640190fd5b6001600160a01b0385166000908152600460209081526040808320338452909152902083820390555b505b61044c8484846109dd565b5060019392505050565b6000336001600160a01b038516148061047e57503360009081526001602052604090205460ff165b6104b95760405162461bcd60e51b8152600401808060200182810382526023815260200180610bc66023913960400191505060405180910390fd5b61044c848484610709565b601290565b60006104d533836107dc565b506001919050565b6001600160a01b031660009081526001602052604090205460ff1690565b6000546001600160a01b031690565b6001600160a01b031660009081526003602052604090205490565b6000546001600160a01b03163314610584576040805162461bcd60e51b815260206004820152601b60248201527f6f6e6c792061646d696e2063616e206368616e67652061646d696e0000000000604482015290519081900360640190fd5b600054604080516001600160a01b039283168152918316602083015280517f7e644d79422f17c01e4894b5f4f588d331ebfa28653d42ae832dc59e38c9798f9281900390910190a1600080547fffffffffffffffffffffffff0000000000000000000000000000000000000000166001600160a01b0392909216919091179055565b60006103493384846109dd565b6000546001600160a01b0316331461065c5760405162461bcd60e51b815260040180806020018281038252602c815260200180610b9a602c913960400191505060405180910390fd5b6001600160a01b03821660008181526001602090815260409182902080547fffffffffffffffffffffffffffffffffffffffffffffffffffffffffffffff001685151590811790915582519384529083015280517f44f92d27abdf4cfb6a7d712c3af68f3be086d4ca747ab802c36f67d6790060d89281900390910190a15050565b6001600160a01b03918216600090815260046020908152604080832093909416825291909152205490565b6001600160a01b0383161580159061072957506001600160a01b03821615155b61077a576040805162461bcd60e51b815260206004820152601760248201527f43616e6e6f7420617070726f7665207769746820307830000000000000000000604482015290519081900360640190fd5b6001600160a01b03808416600081815260046020908152604080832094871680845294825291829020859055815185815291517f8c5be1e5ebec7d5bd14f71427d1e84f3dd0314c0f7b2291e5b200ac8c7c3b9259281900390910190a3505050565b60008111610831576040805162461bcd60e51b815260206004820152601460248201527f63616e6e6f74206275726e203020746f6b656e73000000000000000000000000604482015290519081900360640190fd5b336001600160a01b0383161480159061085a57503360009081526001602052604090205460ff16155b1561090c576001600160a01b0382166000908152600460209081526040808320338452909152902054818110156108d8576040805162461bcd60e51b815260206004820152601860248201527f4e6f7420656e6f7567682066756e647320616c6c6f7765640000000000000000604482015290519081900360640190fd5b806000191461090a576001600160a01b0383166000908152600460209081526040808320338452909152902082820390555b505b6001600160a01b0382166000908152600360205260409020548181101561097a576040805162461bcd60e51b815260206004820152601060248201527f4e6f7420656e6f7567682066756e647300000000000000000000000000000000604482015290519081900360640190fd5b6001600160a01b03831660008181526003602090815260408083208686039055600280548790039055805186815290519293927fddf252ad1be2c89b69c2b068fc378daa952ba7f163c4a11628f55a4df523b3ef929181900390910190a3505050565b60008111610a32576040805162461bcd60e51b815260206004820152601660248201527f63616e2774207472616e73666572203020746f6b656e00000000000000000000604482015290519081900360640190fd5b610a3d838383610a4d565b610a48838383610b49565b505050565b6001600160a01b038216610aa8576040805162461bcd60e51b815260206004820152601260248201527f43616e6e6f742073656e6420746f203078300000000000000000000000000000604482015290519081900360640190fd5b6001600160a01b03831660009081526003602052604090205481811015610b16576040805162461bcd60e51b815260206004820152600f60248201527f6e6f7420656e6f7567682066756e640000000000000000000000000000000000604482015290519081900360640190fd5b6001600160a01b039384166000908152600360205260408082209284900390925592909316825291902080549091019055565b816001600160a01b0316836001600160a01b03167fddf252ad1be2c89b69c2b068fc378daa952ba7f163c4a11628f55a4df523b3ef836040518082815260200191505060405180910390a350505056fe6f6e6c792061646d696e20697320616c6c6f77656420746f20616464207375706572206f70657261746f72736d73672e73656e64657220213d2066726f6d207c7c2073757065724f70657261746f72a265627a7a72305820ff503e85d975d554cfcca42778fd893f2e5cc47f0a335ba72d700bdb3f8cf2b564736f6c63430005090032"
}