{
  "address": "0xD6e2D32196eE8F3019Ea25bdC9e42d28deCB35Fd",
  "abi": [
    {
      "inputs": [
        {
          "internalType": "address",
          "name": "asset",
          "type": "address"
        },
        {
          "internalType": "address",
          "name": "admin",
          "type": "address"
        },
        {
          "internalType": "bytes32",
          "name": "merkleRoot",
          "type": "bytes32"
        },
        {
          "internalType": "address",
          "name": "assetsHolder",
          "type": "address"
        },
        {
          "internalType": "uint256",
          "name": "expiryTime",
          "type": "uint256"
        }
      ],
      "stateMutability": "nonpayable",
      "type": "constructor"
    },
    {
      "anonymous": false,
      "inputs": [
        {
          "indexed": false,
          "internalType": "address",
          "name": "oldAdmin",
          "type": "address"
        },
        {
          "indexed": false,
          "internalType": "address",
          "name": "newAdmin",
          "type": "address"
        }
      ],
      "name": "AdminChanged",
      "type": "event"
    },
    {
      "anonymous": false,
      "inputs": [
        {
          "indexed": false,
          "internalType": "address",
          "name": "to",
          "type": "address"
        },
        {
          "indexed": false,
          "internalType": "uint256[]",
          "name": "assetIds",
          "type": "uint256[]"
        },
        {
          "indexed": false,
          "internalType": "uint256[]",
          "name": "assetValues",
          "type": "uint256[]"
        }
      ],
      "name": "ClaimedAssets",
      "type": "event"
    },
    {
      "inputs": [
        {
          "internalType": "address",
          "name": "newAdmin",
          "type": "address"
        }
      ],
      "name": "changeAdmin",
      "outputs": [],
      "stateMutability": "nonpayable",
      "type": "function"
    },
    {
      "inputs": [
        {
          "internalType": "address",
          "name": "to",
          "type": "address"
        },
        {
          "internalType": "uint256[]",
          "name": "assetIds",
          "type": "uint256[]"
        },
        {
          "internalType": "uint256[]",
          "name": "assetValues",
          "type": "uint256[]"
        },
        {
          "internalType": "bytes32[]",
          "name": "proof",
          "type": "bytes32[]"
        },
        {
          "internalType": "bytes32",
          "name": "salt",
          "type": "bytes32"
        }
      ],
      "name": "claimAssets",
      "outputs": [],
      "stateMutability": "nonpayable",
      "type": "function"
    },
    {
      "inputs": [
        {
          "internalType": "address",
          "name": "",
          "type": "address"
        }
      ],
      "name": "claimed",
      "outputs": [
        {
          "internalType": "bool",
          "name": "",
          "type": "bool"
        }
      ],
      "stateMutability": "view",
      "type": "function"
    },
    {
      "inputs": [],
      "name": "getAdmin",
      "outputs": [
        {
          "internalType": "address",
          "name": "",
          "type": "address"
        }
      ],
      "stateMutability": "view",
      "type": "function"
    },
    {
      "inputs": [
        {
          "internalType": "address",
          "name": "",
          "type": "address"
        },
        {
          "internalType": "address",
          "name": "",
          "type": "address"
        },
        {
          "internalType": "uint256[]",
          "name": "",
          "type": "uint256[]"
        },
        {
          "internalType": "uint256[]",
          "name": "",
          "type": "uint256[]"
        },
        {
          "internalType": "bytes",
          "name": "",
          "type": "bytes"
        }
      ],
      "name": "onERC1155BatchReceived",
      "outputs": [
        {
          "internalType": "bytes4",
          "name": "",
          "type": "bytes4"
        }
      ],
      "stateMutability": "pure",
      "type": "function"
    },
    {
      "inputs": [
        {
          "internalType": "address",
          "name": "",
          "type": "address"
        },
        {
          "internalType": "address",
          "name": "",
          "type": "address"
        },
        {
          "internalType": "uint256",
          "name": "",
          "type": "uint256"
        },
        {
          "internalType": "uint256",
          "name": "",
          "type": "uint256"
        },
        {
          "internalType": "bytes",
          "name": "",
          "type": "bytes"
        }
      ],
      "name": "onERC1155Received",
      "outputs": [
        {
          "internalType": "bytes4",
          "name": "",
          "type": "bytes4"
        }
      ],
      "stateMutability": "pure",
      "type": "function"
    },
    {
      "inputs": [
        {
          "internalType": "bytes32",
          "name": "merkleRoot",
          "type": "bytes32"
        }
      ],
      "name": "setMerkleRoot",
      "outputs": [],
      "stateMutability": "nonpayable",
      "type": "function"
    }
  ],
  "transactionHash": "0xa2e24dc6e7ba4beb331ddd68aef1cca6cac9812a74aba4e333e2adcdc1161955",
  "args": [
    "0xa342f5D851E866E18ff98F351f2c6637f4478dB5",
    "0x0000000000000000000000000000000000000000",
    "0x6934ba711d41e5e641164988330c6dd50899d1337eba6265139f53c19f1761fb",
    "0x0000000000000000000000000000000000000000",
    "0xFFFFFFFFFFFFFFFFFFFFFFFFFFFFFFFFFFFFFFFFFFFFFFFFFFFFFFFFFFFFFFFF"
  ],
  "linkedData": [
    {
      "reservedAddress": "0x12EF2cD4231D5CF655a6CDD4Ac1524FFaa439c17",
      "assetIds": [
        "55464657044963196816950587289035428064568320970692304673817341489687556012032"
      ],
      "assetValues": [
        1
      ]
    },
    {
      "reservedAddress": "0x558BC05E6aaCAC3Dda96C43FcD242a11AFd3865C",
      "assetIds": [
        "55464657044963196816950587289035428064568320970692304673817341489687556012032"
      ],
      "assetValues": [
        1
      ]
    },
    {
      "reservedAddress": "0x9F1f7957C0456157485a0Fc433a5f86403055432",
      "assetIds": [
        "55464657044963196816950587289035428064568320970692304673817341489687556012032"
      ],
      "assetValues": [
        1
      ]
    },
    {
      "reservedAddress": "0x95515617e50BD9A5aa175c3688C5f5917ed78f35",
      "assetIds": [
        "55464657044963196816950587289035428064568320970692304673817341489687556012032"
      ],
      "assetValues": [
        1
      ]
    },
    {
      "reservedAddress": "0x7acB8d992DF97EEA4b86bBE7C659D33902ca9e0a",
      "assetIds": [
        "55464657044963196816950587289035428064568320970692304673817341489687556012032"
      ],
      "assetValues": [
        1
      ]
    },
    {
      "reservedAddress": "0x3a296EDD14Dce0E900D1251f423fF3727b58b95d",
      "assetIds": [
        "55464657044963196816950587289035428064568320970692304673817341489687556012032"
      ],
      "assetValues": [
        1
      ]
    },
    {
      "reservedAddress": "0xe8f45ce27a75e8502a527aa790c2727f4a0a6059",
      "assetIds": [
        "55464657044963196816950587289035428064568320970692304673817341489687556012032"
      ],
      "assetValues": [
        1
      ]
    },
    {
      "reservedAddress": "0x725F82c096Bd72b500C2F6Dd7306C46C59dE1353",
      "assetIds": [
        "55464657044963196816950587289035428064568320970692304673817341489687556012032"
      ],
      "assetValues": [
        1
      ]
    },
    {
      "reservedAddress": "0xbe0AD698E5518E7721c1666e682CF288b50cDeCe",
      "assetIds": [
        "55464657044963196816950587289035428064568320970692304673817341489687556012032"
      ],
      "assetValues": [
        1
      ]
    },
    {
      "reservedAddress": "0x46307b20a0d9EDA54dA299E86c2711538a91d5D9",
      "assetIds": [
        "55464657044963196816950587289035428064568320970692304673817341489687556012032"
      ],
      "assetValues": [
        1
      ]
    },
    {
      "reservedAddress": "0xD69ae924914B9D5E8A8105E5806FD2023F67a7dB",
      "assetIds": [
        "55464657044963196816950587289035428064568320970692304673817341489687556012032"
      ],
      "assetValues": [
        1
      ]
    },
    {
      "reservedAddress": "0x0b5a78d7407F96A3e3129Cb166037D43770aeE31",
      "assetIds": [
        "55464657044963196816950587289035428064568320970692304673817341489687556012032"
      ],
      "assetValues": [
        1
      ]
    },
    {
      "reservedAddress": "0xc0B90a06d665c2043Aa5185BB49cB3E5a2dcB29c",
      "assetIds": [
        "55464657044963196816950587289035428064568320970692304673817341489687556012032"
      ],
      "assetValues": [
        1
      ]
    },
    {
      "reservedAddress": "0x9FAEfA1c4C779843DCbbCCc7b1A20827fEE7aA9B",
      "assetIds": [
        "55464657044963196816950587289035428064568320970692304673817341489687556012032"
      ],
      "assetValues": [
        1
      ]
    },
    {
      "reservedAddress": "0x4668EDf4438BFbF2152e25c201604F2239559452",
      "assetIds": [
        "55464657044963196816950587289035428064568320970692304673817341489687556012032"
      ],
      "assetValues": [
        1
      ]
    },
    {
      "reservedAddress": "0xe92F58495ef50dd6eD4326B8E7c5Eb29F6C4FE50",
      "assetIds": [
        "55464657044963196816950587289035428064568320970692304673817341489687556012032"
      ],
      "assetValues": [
        1
      ]
    },
    {
      "reservedAddress": "0x851DF6d473F2Bb61f19741f811C7a46AB129B7CA",
      "assetIds": [
        "55464657044963196816950587289035428064568320970692304673817341489687556012032"
      ],
      "assetValues": [
        1
      ]
    },
    {
      "reservedAddress": "0x302B9DfC92DA56A19477C891A7b95cB7e32A5A69",
      "assetIds": [
        "55464657044963196816950587289035428064568320970692304673817341489687556012032"
      ],
      "assetValues": [
        1
      ]
    },
    {
      "reservedAddress": "0x8DeD0cCB44415400d6a5A1B2AB8e7b192495ceeB",
      "assetIds": [
        "55464657044963196816950587289035428064568320970692304673817341489687556012032"
      ],
      "assetValues": [
        1
      ]
    },
    {
      "reservedAddress": "0xD7F82D004e49961f7e990ed28bf88c90E5884d97",
      "assetIds": [
        "55464657044963196816950587289035428064568320970692304673817341489687556012032"
      ],
      "assetValues": [
        1
      ]
    },
    {
      "reservedAddress": "0xd443C8b113779041f126b9514d0267036ae40f34",
      "assetIds": [
        "55464657044963196816950587289035428064568320970692304673817341489687556012032"
      ],
      "assetValues": [
        1
      ]
    },
    {
      "reservedAddress": "0x94c25eA64eB6c041f4F363cAE311777FfA1ADE2e",
      "assetIds": [
        "55464657044963196816950587289035428064568320970692304673817341489687556012032"
      ],
      "assetValues": [
        1
      ]
    },
    {
      "reservedAddress": "0xab4787b17BfB2004C4B074Ea64871dfA238bd50c",
      "assetIds": [
        "55464657044963196816950587289035428064568320970692304673817341489687556012032"
      ],
      "assetValues": [
        1
      ]
    },
    {
      "reservedAddress": "0xc8d1E4EF51D75b4b5d352d96ea3705586F08c890",
      "assetIds": [
        "55464657044963196816950587289035428064568320970692304673817341489687556012032"
      ],
      "assetValues": [
        1
      ]
    },
    {
      "reservedAddress": "0x8fd1ECe16EAF1a50755776399ecCF9BA2dcf7F4A",
      "assetIds": [
        "55464657044963196816950587289035428064568320970692304673817341489687556012032"
      ],
      "assetValues": [
        1
      ]
    },
    {
      "reservedAddress": "0xD1fA5F0F8cD5122EcC622CcD4624a9358d05B0c8",
      "assetIds": [
        "55464657044963196816950587289035428064568320970692304673817341489687556012032"
      ],
      "assetValues": [
        1
      ]
    },
    {
      "reservedAddress": "0xE43840e77829B2dF75959B7107D172060Ab6bd87",
      "assetIds": [
        "55464657044963196816950587289035428064568320970692304673817341489687556012032"
      ],
      "assetValues": [
        1
      ]
    },
    {
      "reservedAddress": "0x02C545e7E16afbBe405FaD98a8a5a9a9fEeCe114",
      "assetIds": [
        "55464657044963196816950587289035428064568320970692304673817341489687556012032"
      ],
      "assetValues": [
        1
      ]
    },
    {
      "reservedAddress": "0x956F1CE3ff2ea59A8b41DF83Ce9F85ED59D73F92",
      "assetIds": [
        "55464657044963196816950587289035428064568320970692304673817341489687556012032"
      ],
      "assetValues": [
        1
      ]
    },
    {
      "reservedAddress": "0x03Ea64a5CEd21E2CccFaEa0Aec283d0A0afE9424",
      "assetIds": [
        "55464657044963196816950587289035428064568320970692304673817341489687556012032"
      ],
      "assetValues": [
        1
      ]
    },
    {
      "reservedAddress": "0x8654B56FfE9eb4f14f3693D36b1c1C0B7dA29714",
      "assetIds": [
        "55464657044963196816950587289035428064568320970692304673817341489687556012032"
      ],
      "assetValues": [
        1
      ]
    },
    {
      "reservedAddress": "0x96b53E0508f8C990DfC00Fb0F2eB5F2855AE88C4",
      "assetIds": [
        "55464657044963196816950587289035428064568320970692304673817341489687556012032"
      ],
      "assetValues": [
        1
      ]
    },
    {
      "reservedAddress": "0xf60D2A9DE2A9e5dD827a6757aC1bCCB4EeECC7C4",
      "assetIds": [
        "55464657044963196816950587289035428064568320970692304673817341489687556012032"
      ],
      "assetValues": [
        1
      ]
    },
    {
      "reservedAddress": "0x31BA80FF9783F8D1fbf64Cc0eD094c81F94B1eaE",
      "assetIds": [
        "55464657044963196816950587289035428064568320970692304673817341489687556012032"
      ],
      "assetValues": [
        1
      ]
    },
    {
      "reservedAddress": "0x4935E37162b7357E5A36B56C34273FB9d9283AEA",
      "assetIds": [
        "55464657044963196816950587289035428064568320970692304673817341489687556012032"
      ],
      "assetValues": [
        1
      ]
    },
    {
      "reservedAddress": "0xc03B7A303ff86cCDEFE7A880568545D95925B230",
      "assetIds": [
        "55464657044963196816950587289035428064568320970692304673817341489687556012032"
      ],
      "assetValues": [
        1
      ]
    },
    {
      "reservedAddress": "0xCfe117E5AC62B43915f362b97B7C24B9EB10e160",
      "assetIds": [
        "55464657044963196816950587289035428064568320970692304673817341489687556012032"
      ],
      "assetValues": [
        1
      ]
    },
    {
      "reservedAddress": "0x9DF712718352d875aB2c294611bE974251604061",
      "assetIds": [
        "55464657044963196816950587289035428064568320970692304673817341489687556012032"
      ],
      "assetValues": [
        1
      ]
    },
    {
      "reservedAddress": "0x0A5aBC4eEF196994abb9cd34fa8FE9229Ce53e4f",
      "assetIds": [
        "55464657044963196816950587289035428064568320970692304673817341489687556012032"
      ],
      "assetValues": [
        1
      ]
    },
    {
      "reservedAddress": "0xCE561d5fA83Bcf498B30ecDd7c7F8bA11241271E",
      "assetIds": [
        "55464657044963196816950587289035428064568320970692304673817341489687556012032"
      ],
      "assetValues": [
        1
      ]
    },
    {
      "reservedAddress": "0x6Cd28541D19FF437Df6edD4555443d9e92D91196",
      "assetIds": [
        "55464657044963196816950587289035428064568320970692304673817341489687556012032"
      ],
      "assetValues": [
        1
      ]
    },
    {
      "reservedAddress": "0xa98f8043eb2c880765c952970988cd12d0b8664d",
      "assetIds": [
        "55464657044963196816950587289035428064568320970692304673817341489687556012032"
      ],
      "assetValues": [
        1
      ]
    },
    {
      "reservedAddress": "0x0a26E8a4305Ad5D9e6844e9D2aaD05262b1285E6",
      "assetIds": [
        "55464657044963196816950587289035428064568320970692304673817341489687556012032"
      ],
      "assetValues": [
        1
      ]
    },
    {
      "reservedAddress": "0x752184A2069c35f03d0216Ba806013693740B285",
      "assetIds": [
        "55464657044963196816950587289035428064568320970692304673817341489687556012032"
      ],
      "assetValues": [
        1
      ]
    },
    {
      "reservedAddress": "0x6b82ddfc6FDc0386Fb93822273950d4B22B3460b",
      "assetIds": [
        "55464657044963196816950587289035428064568320970692304673817341489687556012032"
      ],
      "assetValues": [
        1
      ]
    },
    {
      "reservedAddress": "0x50A1d51f094baDE5D056c300A2985a2272490e5b",
      "assetIds": [
        "55464657044963196816950587289035428064568320970692304673817341489687556012032"
      ],
      "assetValues": [
        1
      ]
    },
    {
      "reservedAddress": "0xf700084b07babd4cf44765da5a31ebbd2a63b680",
      "assetIds": [
        "55464657044963196816950587289035428064568320970692304673817341489687556012032"
      ],
      "assetValues": [
        1
      ]
    },
    {
      "reservedAddress": "0x431Bdd4cC4e0C54DBb71A8259245E575e436C275",
      "assetIds": [
        "55464657044963196816950587289035428064568320970692304673817341489687556012032"
      ],
      "assetValues": [
        1
      ]
    },
    {
      "reservedAddress": "0xbCAf6170e867af292326c809D5Df9d963275D2cb",
      "assetIds": [
        "55464657044963196816950587289035428064568320970692304673817341489687556012032"
      ],
      "assetValues": [
        1
      ]
    },
    {
      "reservedAddress": "0xB50f74390506Fb87B7847E6f6e562db9c7f741ae",
      "assetIds": [
        "55464657044963196816950587289035428064568320970692304673817341489687556012032"
      ],
      "assetValues": [
        1
      ]
    },
    {
      "reservedAddress": "0x931eB9d2E9b0e496aAc1DCDf778399aD762e3739",
      "assetIds": [
        "55464657044963196816950587289035428064568320970692304673817341489687556012032"
      ],
      "assetValues": [
        1
      ]
    },
    {
      "reservedAddress": "0x0C15513Fdc2c2d9AB0e2CD7750FEb1dEe116928c",
      "assetIds": [
        "55464657044963196816950587289035428064568320970692304673817341489687556012032"
      ],
      "assetValues": [
        1
      ]
    },
    {
      "reservedAddress": "0x46e76218f03dec4d72806ac689c8df874d928b2f",
      "assetIds": [
        "55464657044963196816950587289035428064568320970692304673817341489687556012032"
      ],
      "assetValues": [
        1
      ]
    },
    {
      "reservedAddress": "0xc212Fc9E1A61b8400E0323FDe83ed1Fe359e3312",
      "assetIds": [
        "55464657044963196816950587289035428064568320970692304673817341489687556012032"
      ],
      "assetValues": [
        1
      ]
    },
    {
      "reservedAddress": "0xE12071d8d9867a6CF7cca0C196b6aCBb567ACE37",
      "assetIds": [
        "55464657044963196816950587289035428064568320970692304673817341489687556012032"
      ],
      "assetValues": [
        1
      ]
    },
    {
      "reservedAddress": "0xf867410cEa18c04e8fAF8c87Ec801Fae0db4C3f2",
      "assetIds": [
        "55464657044963196816950587289035428064568320970692304673817341489687556012032"
      ],
      "assetValues": [
        1
      ]
    },
    {
      "reservedAddress": "0x03817a8e3d4ee706e4fd0d7598cf01cce1b05a85",
      "assetIds": [
        "55464657044963196816950587289035428064568320970692304673817341489687556012032"
      ],
      "assetValues": [
        1
      ]
    },
    {
      "reservedAddress": "0x95982c9b89861E27f7aD5b6d276Ac74029580bBD",
      "assetIds": [
        "55464657044963196816950587289035428064568320970692304673817341489687556012032"
      ],
      "assetValues": [
        1
      ]
    },
    {
      "reservedAddress": "0xfa0d87b081d2b045fe301649EaBa60bE4fDC5310",
      "assetIds": [
        "55464657044963196816950587289035428064568320970692304673817341489687556012032"
      ],
      "assetValues": [
        1
      ]
    },
    {
      "reservedAddress": "0x1B9Dba9C36724F25fb57aE62aDCD5d3d01DFec93",
      "assetIds": [
        "55464657044963196816950587289035428064568320970692304673817341489687556012032"
      ],
      "assetValues": [
        1
      ]
    },
    {
      "reservedAddress": "0xECf702898e29D402039d3410d950c79C377fd8bD",
      "assetIds": [
        "55464657044963196816950587289035428064568320970692304673817341489687556012032"
      ],
      "assetValues": [
        1
      ]
    },
    {
      "reservedAddress": "0xf39076f48d03943ad2284b4b0841a666bef5ca95",
      "assetIds": [
        "55464657044963196816950587289035428064568320970692304673817341489687556012032"
      ],
      "assetValues": [
        1
      ]
    },
    {
      "reservedAddress": "0xbAE0A2A26e9CcEe55b304C8D6475361C7Dc3aFF2",
      "assetIds": [
        "55464657044963196816950587289035428064568320970692304673817341489687556012032"
      ],
      "assetValues": [
        1
      ]
    },
    {
      "reservedAddress": "0x118E91075D90CB3197e4A7F055119D56419AEbF9",
      "assetIds": [
        "55464657044963196816950587289035428064568320970692304673817341489687556012032"
      ],
      "assetValues": [
        1
      ]
    },
    {
      "reservedAddress": "0x46E3F628A062A0Aa1DD615e77001690841F691d9",
      "assetIds": [
        "55464657044963196816950587289035428064568320970692304673817341489687556012032"
      ],
      "assetValues": [
        1
      ]
    },
    {
      "reservedAddress": "0xBE35171887d3ba015556D664ABF5792D0869796e",
      "assetIds": [
        "55464657044963196816950587289035428064568320970692304673817341489687556012032"
      ],
      "assetValues": [
        1
      ]
    },
    {
      "reservedAddress": "0x5c39F92890BeF1399bf03ceE81662994B6aC5C44",
      "assetIds": [
        "55464657044963196816950587289035428064568320970692304673817341489687556012032"
      ],
      "assetValues": [
        1
      ]
    },
    {
      "reservedAddress": "0x96332d7b13fc57ed5acf84855f593947efe2d2de",
      "assetIds": [
        "55464657044963196816950587289035428064568320970692304673817341489687556012032"
      ],
      "assetValues": [
        1
      ]
    },
    {
      "reservedAddress": "0x2776a75a0835c697c699640d49c619907e02d17d",
      "assetIds": [
        "55464657044963196816950587289035428064568320970692304673817341489687556012032"
      ],
      "assetValues": [
        1
      ]
    },
    {
      "reservedAddress": "0x0d10b33fF00522d5736b64CED92DBD5FAf24e598",
      "assetIds": [
        "55464657044963196816950587289035428064568320970692304673817341489687556012032"
      ],
      "assetValues": [
        1
      ]
    },
    {
      "reservedAddress": "0x3cd59579E11c437ae01b323c6c09e7a2F81F30dF",
      "assetIds": [
        "55464657044963196816950587289035428064568320970692304673817341489687556012032"
      ],
      "assetValues": [
        1
      ]
    },
    {
      "reservedAddress": "0xb1a9adf97efd976492d768ddba9235c9c23db321",
      "assetIds": [
        "55464657044963196816950587289035428064568320970692304673817341489687556012032"
      ],
      "assetValues": [
        1
      ]
    },
    {
      "reservedAddress": "0xbE7759e699234285759F005454FCd352F92851b2",
      "assetIds": [
        "55464657044963196816950587289035428064568320970692304673817341489687556012032"
      ],
      "assetValues": [
        1
      ]
    },
    {
      "reservedAddress": "0xc43feCA6Ac10DBd7C04b4c973a298F9227750902",
      "assetIds": [
        "55464657044963196816950587289035428064568320970692304673817341489687556012032"
      ],
      "assetValues": [
        1
      ]
    },
    {
      "reservedAddress": "0xf3cBE2FB844e4E33cC48Ad1Db04fc9BDd884a12a",
      "assetIds": [
        "55464657044963196816950587289035428064568320970692304673817341489687556012032"
      ],
      "assetValues": [
        1
      ]
    },
    {
      "reservedAddress": "0x39B30685EBca7391Fdde2984d758b56EaE5B19b8",
      "assetIds": [
        "55464657044963196816950587289035428064568320970692304673817341489687556012032"
      ],
      "assetValues": [
        1
      ]
    },
    {
      "reservedAddress": "0x8EC2b87953099a120449efFC8d00485C14caD13a",
      "assetIds": [
        "55464657044963196816950587289035428064568320970692304673817341489687556012032"
      ],
      "assetValues": [
        1
      ]
    },
    {
      "reservedAddress": "0xB2A6698Bb78b0A12eC721A68F7896842Bae10A1C",
      "assetIds": [
        "55464657044963196816950587289035428064568320970692304673817341489687556012032"
      ],
      "assetValues": [
        1
      ]
    },
    {
      "reservedAddress": "0x0b2558aed9b0b8dcee5b90dc0b8141a9630ff116",
      "assetIds": [
        "55464657044963196816950587289035428064568320970692304673817341489687556012032"
      ],
      "assetValues": [
        1
      ]
    },
    {
      "reservedAddress": "0xd40210b326133c2b76B0BbE9483eE4fcCC26c06F",
      "assetIds": [
        "55464657044963196816950587289035428064568320970692304673817341489687556012032"
      ],
      "assetValues": [
        1
      ]
    },
    {
      "reservedAddress": "0x2E2E60310DFDA2A312852063d3f8968C2Cd5CC8d",
      "assetIds": [
        "55464657044963196816950587289035428064568320970692304673817341489687556012032"
      ],
      "assetValues": [
        1
      ]
    },
    {
      "reservedAddress": "0x48dcda2f1afcd3887bb16484da4360da36793c74",
      "assetIds": [
        "55464657044963196816950587289035428064568320970692304673817341489687556012032"
      ],
      "assetValues": [
        1
      ]
    },
    {
      "reservedAddress": "0x5C8596B13212Da80E4B59f012BED8bF1d4098217",
      "assetIds": [
        "55464657044963196816950587289035428064568320970692304673817341489687556012032"
      ],
      "assetValues": [
        1
      ]
    },
    {
      "reservedAddress": "0x8c976B2d3725FE86443a0D443F71ECBCf297e577",
      "assetIds": [
        "55464657044963196816950587289035428064568320970692304673817341489687556012032"
      ],
      "assetValues": [
        1
      ]
    },
    {
      "reservedAddress": "0xe001a57292d62f989e3CA1190549bb39B5F2b579",
      "assetIds": [
        "55464657044963196816950587289035428064568320970692304673817341489687556012032"
      ],
      "assetValues": [
        1
      ]
    },
    {
      "reservedAddress": "0xf6a28F2b57bABFF25e794de2d2D6C6994ec67f55",
      "assetIds": [
        "55464657044963196816950587289035428064568320970692304673817341489687556012032"
      ],
      "assetValues": [
        1
      ]
    },
    {
      "reservedAddress": "0x286934bBAee844A88Ca9eF633D5E513cC404790F",
      "assetIds": [
        "55464657044963196816950587289035428064568320970692304673817341489687556012032"
      ],
      "assetValues": [
        1
      ]
    },
    {
      "reservedAddress": "0x1F1163c6c0a85E91fE60f8DD5d1a7007DdBf95c9",
      "assetIds": [
        "55464657044963196816950587289035428064568320970692304673817341489687556012032"
      ],
      "assetValues": [
        1
      ]
    },
    {
      "reservedAddress": "0x234A14fDdcc2e533156B5a636db9a071d54e9Baf",
      "assetIds": [
        "55464657044963196816950587289035428064568320970692304673817341489687556012032"
      ],
      "assetValues": [
        1
      ]
    },
    {
      "reservedAddress": "0xFFc00e4bB9A046126a20A533b9f1d29F44272544",
      "assetIds": [
        "55464657044963196816950587289035428064568320970692304673817341489687556012032"
      ],
      "assetValues": [
        1
      ]
    },
    {
      "reservedAddress": "0xA6b91EcA3847fdac28213bBEB8c97F279738B1B7",
      "assetIds": [
        "55464657044963196816950587289035428064568320970692304673817341489687556012032"
      ],
      "assetValues": [
        1
      ]
    },
    {
      "reservedAddress": "0xc427AeC17F6637E4C7cFcF22ae3DC6812A23c4bb",
      "assetIds": [
        "55464657044963196816950587289035428064568320970692304673817341489687556012032"
      ],
      "assetValues": [
        1
      ]
    },
    {
      "reservedAddress": "0x1099B5eAF607a0dF14f5da3c6C8fD06C74D23de0",
      "assetIds": [
        "55464657044963196816950587289035428064568320970692304673817341489687556012032"
      ],
      "assetValues": [
        1
      ]
    },
    {
      "reservedAddress": "0x7Ee567D2AC5dca4c422281Deb1e2334a805BA6C1",
      "assetIds": [
        "55464657044963196816950587289035428064568320970692304673817341489687556012032"
      ],
      "assetValues": [
        1
      ]
    },
    {
      "reservedAddress": "0xa05b2fe46f8D555b4ACc9a32Fcbf7EF8e73287CC",
      "assetIds": [
        "55464657044963196816950587289035428064568320970692304673817341489687556012032"
      ],
      "assetValues": [
        1
      ]
    },
    {
      "reservedAddress": "0xf9611E4EB31f17a6d4B9016C238371fDfD378676",
      "assetIds": [
        "55464657044963196816950587289035428064568320970692304673817341489687556012032"
      ],
      "assetValues": [
        1
      ]
    },
    {
      "reservedAddress": "0xa9CCFCFceDA22b98d6ab5729100b49e637326b2C",
      "assetIds": [
        "55464657044963196816950587289035428064568320970692304673817341489687556012032"
      ],
      "assetValues": [
        1
      ]
    },
    {
      "reservedAddress": "0xCEA2ce6235FFC99C5B2454541729F408dc0281C4",
      "assetIds": [
        "55464657044963196816950587289035428064568320970692304673817341489687556012032"
      ],
      "assetValues": [
        1
      ]
    },
    {
      "reservedAddress": "0x16F1760ED9321EAC4788514B1E5CCe598aB3C43a",
      "assetIds": [
        "55464657044963196816950587289035428064568320970692304673817341489687556012032"
      ],
      "assetValues": [
        1
      ]
    },
    {
      "reservedAddress": "0x01b3f674Eaeda38C7DD58830BbD08FC9B0834f28",
      "assetIds": [
        "55464657044963196816950587289035428064568320970692304673817341489687556012032"
      ],
      "assetValues": [
        1
      ]
    },
    {
      "reservedAddress": "0xc254E782f85038e18262d8B39aCa2EAB2AF40b8D",
      "assetIds": [
        "55464657044963196816950587289035428064568320970692304673817341489687556012032"
      ],
      "assetValues": [
        1
      ]
    },
    {
      "reservedAddress": "0x8FE593cFd4d0BFF1bd877A04c323821CaC1C9EA0",
      "assetIds": [
        "55464657044963196816950587289035428064568320970692304673817341489687556012032"
      ],
      "assetValues": [
        1
      ]
    },
    {
      "reservedAddress": "0x9B3Ab6e82700d470108f3229e64fe8397b60229D",
      "assetIds": [
        "55464657044963196816950587289035428064568320970692304673817341489687556012032"
      ],
      "assetValues": [
        1
      ]
    },
    {
      "reservedAddress": "0xE76a6619581dD7122Bc127a6F018BA035B182AAA",
      "assetIds": [
        "55464657044963196816950587289035428064568320970692304673817341489687556012032"
      ],
      "assetValues": [
        1
      ]
    },
    {
      "reservedAddress": "0xEf0E7A8Fb3B6f4e025bDEA6F560F91dF6502dfDb",
      "assetIds": [
        "55464657044963196816950587289035428064568320970692304673817341489687556012032"
      ],
      "assetValues": [
        1
      ]
    },
    {
      "reservedAddress": "0x6F98763ff5F6Ca0aFF91acdDF8b85032FE62F704",
      "assetIds": [
        "55464657044963196816950587289035428064568320970692304673817341489687556012032"
      ],
      "assetValues": [
        1
      ]
    },
    {
      "reservedAddress": "0xc637d110B89908617a8c5C153C3d737068165ce5",
      "assetIds": [
        "55464657044963196816950587289035428064568320970692304673817341489687556012032"
      ],
      "assetValues": [
        1
      ]
    },
    {
      "reservedAddress": "0x4260E8206c58cD0530d9A5cff55B77D6165c7BCd",
      "assetIds": [
        "55464657044963196816950587289035428064568320970692304673817341489687556012032"
      ],
      "assetValues": [
        1
      ]
    },
    {
      "reservedAddress": "0x3Ab765b40A9c0C939716874Ea75B5BC44B763e53",
      "assetIds": [
        "55464657044963196816950587289035428064568320970692304673817341489687556012032"
      ],
      "assetValues": [
        1
      ]
    },
    {
      "reservedAddress": "0xF4Cd1141EDC5d9DabDE73470F52bb3037723C35e",
      "assetIds": [
        "55464657044963196816950587289035428064568320970692304673817341489687556012032"
      ],
      "assetValues": [
        1
      ]
    },
    {
      "reservedAddress": "0x687670E9C58526D673aa22d6aB355d952819aFDF",
      "assetIds": [
        "55464657044963196816950587289035428064568320970692304673817341489687556012032"
      ],
      "assetValues": [
        1
      ]
    },
    {
      "reservedAddress": "0x108C07764a22DFCfFD08F0EB1a74e12F57002809",
      "assetIds": [
        "55464657044963196816950587289035428064568320970692304673817341489687556012032"
      ],
      "assetValues": [
        1
      ]
    },
    {
      "reservedAddress": "0x9f5Aa14327fB4b61F6F7f1B205501fD1A66bc183",
      "assetIds": [
        "55464657044963196816950587289035428064568320970692304673817341489687556012032"
      ],
      "assetValues": [
        1
      ]
    },
    {
      "reservedAddress": "0x302F8Bdc93bC0fDcadd358d8cDFB7A3fdF3e9C1D",
      "assetIds": [
        "55464657044963196816950587289035428064568320970692304673817341489687556012032"
      ],
      "assetValues": [
        1
      ]
    },
    {
      "reservedAddress": "0x270864586801F4Bdf2022A9C85071Ec9e7e08dd2",
      "assetIds": [
        "55464657044963196816950587289035428064568320970692304673817341489687556012032"
      ],
      "assetValues": [
        1
      ]
    },
    {
      "reservedAddress": "0x83ECc70DED53F499B8CCe37a4631B6532462daaE",
      "assetIds": [
        "55464657044963196816950587289035428064568320970692304673817341489687556012032"
      ],
      "assetValues": [
        1
      ]
    },
    {
      "reservedAddress": "0xf8664e2E0e19D7FDd60a982aA323f105D181eEAc",
      "assetIds": [
        "55464657044963196816950587289035428064568320970692304673817341489687556012032"
      ],
      "assetValues": [
        1
      ]
    },
    {
      "reservedAddress": "0x708D15d6B33B588a38FC9a822EA52B4A4c0f2894",
      "assetIds": [
        "55464657044963196816950587289035428064568320970692304673817341489687556012032"
      ],
      "assetValues": [
        1
      ]
    },
    {
      "reservedAddress": "0x52fEb6d182d8de8a60d6da1E79f5E79EB0dB807A",
      "assetIds": [
        "55464657044963196816950587289035428064568320970692304673817341489687556012032"
      ],
      "assetValues": [
        1
      ]
    },
    {
      "reservedAddress": "0x9025296D7caA64C10E1F2bE2e42C1b966D232378",
      "assetIds": [
        "55464657044963196816950587289035428064568320970692304673817341489687556012032"
      ],
      "assetValues": [
        1
      ]
    },
    {
      "reservedAddress": "0x279711a29BdDA80C8A725A9610F2f58F94F4e42B",
      "assetIds": [
        "55464657044963196816950587289035428064568320970692304673817341489687556012032"
      ],
      "assetValues": [
        1
      ]
    },
    {
      "reservedAddress": "0xf89be918c3d9989DD1e454bd21E1fc3aFb7E6EEB",
      "assetIds": [
        "55464657044963196816950587289035428064568320970692304673817341489687556012032"
      ],
      "assetValues": [
        1
      ]
    },
    {
      "reservedAddress": "0xB1882E3B9fa9eeD4A573D8Ce615CCA4EB77F3534",
      "assetIds": [
        "55464657044963196816950587289035428064568320970692304673817341489687556012032"
      ],
      "assetValues": [
        1
      ]
    },
    {
      "reservedAddress": "0xf8731e83ecda9d6170a64515a2ce5c73ca9fc44f",
      "assetIds": [
        "55464657044963196816950587289035428064568320970692304673817341489687556012032"
      ],
      "assetValues": [
        1
      ]
    },
    {
      "reservedAddress": "0x6fc5E1c761c74be7309bfcf64e5E49860fb78adD",
      "assetIds": [
        "55464657044963196816950587289035428064568320970692304673817341489687556012032"
      ],
      "assetValues": [
        1
      ]
    },
    {
      "reservedAddress": "0x07D63EcE2441f04A0A8954d3fcD0DD4B6822460D",
      "assetIds": [
        "55464657044963196816950587289035428064568320970692304673817341489687556012032"
      ],
      "assetValues": [
        1
      ]
    },
    {
      "reservedAddress": "0xA24db1Dc8CE36C960BC4517d4B1eB3f3e7c10FFF",
      "assetIds": [
        "55464657044963196816950587289035428064568320970692304673817341489687556012032"
      ],
      "assetValues": [
        1
      ]
    },
    {
      "reservedAddress": "0x80E205298Ec8C1B34952E43A7F52ab2659B99999",
      "assetIds": [
        "55464657044963196816950587289035428064568320970692304673817341489687556012032"
      ],
      "assetValues": [
        1
      ]
    },
    {
      "reservedAddress": "0xcE80cDae693ca9c57070Fa524E14cD516C0c5ceE",
      "assetIds": [
        "55464657044963196816950587289035428064568320970692304673817341489687556012032"
      ],
      "assetValues": [
        1
      ]
    },
    {
      "reservedAddress": "0x8095fC3ee377451AD59D685FaE968c378663FDaF",
      "assetIds": [
        "55464657044963196816950587289035428064568320970692304673817341489687556012032"
      ],
      "assetValues": [
        1
      ]
    },
    {
      "reservedAddress": "0x4232468adC1B059170c5E281db51a6ecEbA8dA4F",
      "assetIds": [
        "55464657044963196816950587289035428064568320970692304673817341489687556012032"
      ],
      "assetValues": [
        1
      ]
    },
    {
      "reservedAddress": "0x3585357Fbd020cD614d7289fea4DD7618fA59047",
      "assetIds": [
        "55464657044963196816950587289035428064568320970692304673817341489687556012032"
      ],
      "assetValues": [
        1
      ]
    },
    {
      "reservedAddress": "0xef6f8a8C65d2f0B8e5b51c411Ec6d65d599F203F",
      "assetIds": [
        "55464657044963196816950587289035428064568320970692304673817341489687556012032"
      ],
      "assetValues": [
        1
      ]
    },
    {
      "reservedAddress": "0xF3D882b029c658b076ad9b615BCC7d1535d2E053",
      "assetIds": [
        "55464657044963196816950587289035428064568320970692304673817341489687556012032"
      ],
      "assetValues": [
        1
      ]
    },
    {
      "reservedAddress": "0xFF78baD7F3FEfbf552a2978E1455D0126dA9BA76",
      "assetIds": [
        "55464657044963196816950587289035428064568320970692304673817341489687556012032"
      ],
      "assetValues": [
        1
      ]
    },
    {
      "reservedAddress": "0x6D6ed67479D02d63A4A0F111A6D76fF93Bb2D23D",
      "assetIds": [
        "55464657044963196816950587289035428064568320970692304673817341489687556012032"
      ],
      "assetValues": [
        1
      ]
    },
    {
      "reservedAddress": "0x9CCB89c59E0040Fe96814D02832Ed6533cBADA55",
      "assetIds": [
        "55464657044963196816950587289035428064568320970692304673817341489687556012032"
      ],
      "assetValues": [
        1
      ]
    },
    {
      "reservedAddress": "0xDc52350858b60853D93390Ab38DEe3ce7e147fa7",
      "assetIds": [
        "55464657044963196816950587289035428064568320970692304673817341489687556012032"
      ],
      "assetValues": [
        1
      ]
    },
    {
      "reservedAddress": "0x6be045Fc5CF6bdE69907edF8D3d99BE79f1929D7",
      "assetIds": [
        "55464657044963196816950587289035428064568320970692304673817341489687556012032"
      ],
      "assetValues": [
        1
      ]
    },
    {
      "reservedAddress": "0x184E30eE5Ce8121C0e1e9be1CbAfCa447C672043",
      "assetIds": [
        "55464657044963196816950587289035428064568320970692304673817341489687556012032"
      ],
      "assetValues": [
        1
      ]
    },
    {
      "reservedAddress": "0x4FAcEb3eC6a2Da04710e0540b8597C824a41edBD",
      "assetIds": [
        "55464657044963196816950587289035428064568320970692304673817341489687556012032"
      ],
      "assetValues": [
        1
      ]
    },
    {
      "reservedAddress": "0x08658eD3d0cE25F9F2736886669F7b1fc46c1168",
      "assetIds": [
        "55464657044963196816950587289035428064568320970692304673817341489687556012032"
      ],
      "assetValues": [
        1
      ]
    },
    {
      "reservedAddress": "0x836934266Efc00837A3E0D5AD132139C257dC8F8",
      "assetIds": [
        "55464657044963196816950587289035428064568320970692304673817341489687556012032"
      ],
      "assetValues": [
        1
      ]
    },
    {
      "reservedAddress": "0x774CbF99cB83Ce2b376A473Aca2592baa722FAe8",
      "assetIds": [
        "55464657044963196816950587289035428064568320970692304673817341489687556012032"
      ],
      "assetValues": [
        1
      ]
    },
    {
      "reservedAddress": "0xfa7F1B2e554427f6E9c154b497f7fB7Aa1447A17",
      "assetIds": [
        "55464657044963196816950587289035428064568320970692304673817341489687556012032"
      ],
      "assetValues": [
        1
      ]
    },
    {
      "reservedAddress": "0xddE39a0150A5fb4a92cF2936d5C5428687335A15",
      "assetIds": [
        "55464657044963196816950587289035428064568320970692304673817341489687556012032"
      ],
      "assetValues": [
        1
      ]
    },
    {
      "reservedAddress": "0xE8cd4cB68dd4c79d118368F36D8564F3134c180D",
      "assetIds": [
        "55464657044963196816950587289035428064568320970692304673817341489687556012032"
      ],
      "assetValues": [
        1
      ]
    },
    {
      "reservedAddress": "0x98173D41603A1Ca46326f2F4e06bfef7e16DF544",
      "assetIds": [
        "55464657044963196816950587289035428064568320970692304673817341489687556012032"
      ],
      "assetValues": [
        1
      ]
    },
    {
      "reservedAddress": "0xD30B4753a4FF2cC47A2AdA84a9a85058dA16d2E8",
      "assetIds": [
        "55464657044963196816950587289035428064568320970692304673817341489687556012032"
      ],
      "assetValues": [
        1
      ]
    },
    {
      "reservedAddress": "0xE5Ff71adC6101918F5d5b3fAb8358917bf3417d3",
      "assetIds": [
        "55464657044963196816950587289035428064568320970692304673817341489687556012032"
      ],
      "assetValues": [
        1
      ]
    },
    {
      "reservedAddress": "0xa25822E024Ff89809eD4f6EFA575Bf0c881Af784",
      "assetIds": [
        "55464657044963196816950587289035428064568320970692304673817341489687556012032"
      ],
      "assetValues": [
        1
      ]
    },
    {
      "reservedAddress": "0x9B2d6e2d5Ef25C0454AbaA392Fcd9796E05567C9",
      "assetIds": [
        "55464657044963196816950587289035428064568320970692304673817341489687556012032"
      ],
      "assetValues": [
        1
      ]
    },
    {
      "reservedAddress": "0xBE5420abc482b0EdDD1f03DC920D17A1bA1fD203",
      "assetIds": [
        "55464657044963196816950587289035428064568320970692304673817341489687556012032"
      ],
      "assetValues": [
        1
      ]
    },
    {
      "reservedAddress": "0xe58a903edC90F2425909DEf8f07df2c4Cd374Cfe",
      "assetIds": [
        "55464657044963196816950587289035428064568320970692304673817341489687556012032"
      ],
      "assetValues": [
        1
      ]
    },
    {
      "reservedAddress": "0xFdd43923340736FfBcB31C808aC644922c1dF05d",
      "assetIds": [
        "55464657044963196816950587289035428064568320970692304673817341489687556012032"
      ],
      "assetValues": [
        1
      ]
    },
    {
      "reservedAddress": "0x6E7149f9d15F316921fE5b1ED6183CEa1855ac86",
      "assetIds": [
        "55464657044963196816950587289035428064568320970692304673817341489687556012032"
      ],
      "assetValues": [
        1
      ]
    },
    {
      "reservedAddress": "0xc22DF065a81F6E0107E214991b9d7fB179d401B3",
      "assetIds": [
        "55464657044963196816950587289035428064568320970692304673817341489687556012032"
      ],
      "assetValues": [
        1
      ]
    },
    {
      "reservedAddress": "0xe73Cf564BD7b9961e6ddacbebDf0568C80673F8e",
      "assetIds": [
        "55464657044963196816950587289035428064568320970692304673817341489687556012032"
      ],
      "assetValues": [
        1
      ]
    },
    {
      "reservedAddress": "0x123e0b16Ab322b9A718D654AD1e6b35f690dc77F",
      "assetIds": [
        "55464657044963196816950587289035428064568320970692304673817341489687556012032"
      ],
      "assetValues": [
        1
      ]
    },
    {
      "reservedAddress": "0xBE8B08Df17eF78dd380EEDb712CD7cc21c8d03bd",
      "assetIds": [
        "55464657044963196816950587289035428064568320970692304673817341489687556012032"
      ],
      "assetValues": [
        1
      ]
    },
    {
      "reservedAddress": "0x3c2A368377684af6e7Dd52eFc0528353D5853745",
      "assetIds": [
        "55464657044963196816950587289035428064568320970692304673817341489687556012032"
      ],
      "assetValues": [
        1
      ]
    },
    {
      "reservedAddress": "0x9175A64882d239CD35D88aEF071e1657C6e03351",
      "assetIds": [
        "55464657044963196816950587289035428064568320970692304673817341489687556012032"
      ],
      "assetValues": [
        1
      ]
    },
    {
      "reservedAddress": "0x254f82C2459625a65a825F143cF1686a402Bb535",
      "assetIds": [
        "55464657044963196816950587289035428064568320970692304673817341489687556012032"
      ],
      "assetValues": [
        1
      ]
    },
    {
      "reservedAddress": "0xa606C7a93993435F51A7485027Ad9E748c493A57",
      "assetIds": [
        "55464657044963196816950587289035428064568320970692304673817341489687556012032"
      ],
      "assetValues": [
        1
      ]
    },
    {
      "reservedAddress": "0x9A6C4436eACEd8A99E14a395DA42525012E0b69F",
      "assetIds": [
        "55464657044963196816950587289035428064568320970692304673817341489687556012032"
      ],
      "assetValues": [
        1
      ]
    },
    {
      "reservedAddress": "0xdd13FCC1173aAB3567d67455F726C309Db18033A",
      "assetIds": [
        "55464657044963196816950587289035428064568320970692304673817341489687556012032"
      ],
      "assetValues": [
        1
      ]
    },
    {
      "reservedAddress": "0xe3AF3184C6e9F09da7aa53AA7fe9C496Ea359915",
      "assetIds": [
        "55464657044963196816950587289035428064568320970692304673817341489687556012032"
      ],
      "assetValues": [
        1
      ]
    },
    {
      "reservedAddress": "0xF4044D72389F8af3De05c67e9A8347A1636cE7bE",
      "assetIds": [
        "55464657044963196816950587289035428064568320970692304673817341489687556012032"
      ],
      "assetValues": [
        1
      ]
    },
    {
      "reservedAddress": "0xB637213b74c2f9270b286b1FfF9bd92282393947",
      "assetIds": [
        "55464657044963196816950587289035428064568320970692304673817341489687556012032"
      ],
      "assetValues": [
        1
      ]
    },
    {
      "reservedAddress": "0xf0ABCFEAA30A95D32569Fcf2B3a48bc7CB639871",
      "assetIds": [
        "55464657044963196816950587289035428064568320970692304673817341489687556012032"
      ],
      "assetValues": [
        1
      ]
    },
    {
      "reservedAddress": "0xa54e005E6dc621076704f7E744dDfC635445f93e",
      "assetIds": [
        "55464657044963196816950587289035428064568320970692304673817341489687556012032"
      ],
      "assetValues": [
        1
      ]
    },
    {
      "reservedAddress": "0xDC21e2f1C2860125c6434bf32d69a38815E2304b",
      "assetIds": [
        "55464657044963196816950587289035428064568320970692304673817341489687556012032"
      ],
      "assetValues": [
        1
      ]
    },
    {
      "reservedAddress": "0x68582dbAc4BD6D491590fd1284d32d005758104d",
      "assetIds": [
        "55464657044963196816950587289035428064568320970692304673817341489687556012032"
      ],
      "assetValues": [
        1
      ]
    },
    {
      "reservedAddress": "0x13e6591AE0A48864deC2D15B8e54Cc55A002604d",
      "assetIds": [
        "55464657044963196816950587289035428064568320970692304673817341489687556012032"
      ],
      "assetValues": [
        1
      ]
    },
    {
      "reservedAddress": "0x69442078271af02d897ff23f04ca6944713B325e",
      "assetIds": [
        "55464657044963196816950587289035428064568320970692304673817341489687556012032"
      ],
      "assetValues": [
        1
      ]
    },
    {
      "reservedAddress": "0xA003019940a2ab673d77A723e2110725B19ca04e",
      "assetIds": [
        "55464657044963196816950587289035428064568320970692304673817341489687556012032"
      ],
      "assetValues": [
        1
      ]
    },
    {
      "reservedAddress": "0x72b96d0DAbBeAe60e695B445378828D2a273b772",
      "assetIds": [
        "55464657044963196816950587289035428064568320970692304673817341489687556012032"
      ],
      "assetValues": [
        1
      ]
    },
    {
      "reservedAddress": "0x0d70530fc9e10517a076928df6640e0c2aac5c42",
      "assetIds": [
        "55464657044963196816950587289035428064568320970692304673817341489687556012032"
      ],
      "assetValues": [
        1
      ]
    },
    {
      "reservedAddress": "0x7f709BC5be1C1721a50aC1867BFEF62679986f5C",
      "assetIds": [
        "55464657044963196816950587289035428064568320970692304673817341489687556012032"
      ],
      "assetValues": [
        1
      ]
    },
    {
      "reservedAddress": "0xe8187a5d1C6219D3e39525A0B9e7E2991CAe473C",
      "assetIds": [
        "55464657044963196816950587289035428064568320970692304673817341489687556012032"
      ],
      "assetValues": [
        1
      ]
    },
    {
      "reservedAddress": "0xE00338f0DacfC4FCA0b4b19567D9d1bB6f211203",
      "assetIds": [
        "55464657044963196816950587289035428064568320970692304673817341489687556012032"
      ],
      "assetValues": [
        1
      ]
    },
    {
      "reservedAddress": "0x805953CcF5e21cebB21F645F02FC64F824fB4a71",
      "assetIds": [
        "55464657044963196816950587289035428064568320970692304673817341489687556012032"
      ],
      "assetValues": [
        1
      ]
    },
    {
      "reservedAddress": "0xbEc18112cfF2A8f4359654Caa87b32515b2505b5",
      "assetIds": [
        "55464657044963196816950587289035428064568320970692304673817341489687556012032"
      ],
      "assetValues": [
        1
      ]
    },
    {
      "reservedAddress": "0x156E6252Da59c0f424c4a9812b1189a008f488bA",
      "assetIds": [
        "55464657044963196816950587289035428064568320970692304673817341489687556012032"
      ],
      "assetValues": [
        1
      ]
    },
    {
      "reservedAddress": "0x0D5cCde6a52187F0E46067c0876C21862DaBfb1E",
      "assetIds": [
        "55464657044963196816950587289035428064568320970692304673817341489687556012032"
      ],
      "assetValues": [
        1
      ]
    },
    {
      "reservedAddress": "0x98EE235244a99FDE7AaDaFB0C0fC77845D9e055A",
      "assetIds": [
        "55464657044963196816950587289035428064568320970692304673817341489687556012032"
      ],
      "assetValues": [
        1
      ]
    },
    {
      "reservedAddress": "0xD4BEB1e7d13D593f73fEb34a99Ed6e1C88973185",
      "assetIds": [
        "55464657044963196816950587289035428064568320970692304673817341489687556012032"
      ],
      "assetValues": [
        1
      ]
    },
    {
      "reservedAddress": "0xcc488ad93B747Bd9b897e43877923be58de41cB8",
      "assetIds": [
        "55464657044963196816950587289035428064568320970692304673817341489687556012032"
      ],
      "assetValues": [
        1
      ]
    },
    {
      "reservedAddress": "0x8747719018E0E6bCD6FCfeF312a70a1eAc485Ad7",
      "assetIds": [
        "55464657044963196816950587289035428064568320970692304673817341489687556012032"
      ],
      "assetValues": [
        1
      ]
    },
    {
      "reservedAddress": "0x60Ebb3984fA9e9F4a036d6F8A0895066b5cbbc36",
      "assetIds": [
        "55464657044963196816950587289035428064568320970692304673817341489687556012032"
      ],
      "assetValues": [
        1
      ]
    },
    {
      "reservedAddress": "0x5Fc119Ab880C1910237d55b3381021D185c7f34f",
      "assetIds": [
        "55464657044963196816950587289035428064568320970692304673817341489687556012032"
      ],
      "assetValues": [
        1
      ]
    },
    {
      "reservedAddress": "0xc4feDf42f9d631a8C15C5Aab75742502B74011e3",
      "assetIds": [
        "55464657044963196816950587289035428064568320970692304673817341489687556012032"
      ],
      "assetValues": [
        1
      ]
    },
    {
      "reservedAddress": "0x970d06864EDA79e86fAfE445BdA002Cd865a930d",
      "assetIds": [
        "55464657044963196816950587289035428064568320970692304673817341489687556012032"
      ],
      "assetValues": [
        1
      ]
    },
    {
      "reservedAddress": "0xAf2F37C5f1322D031783aB97439bB70570Fca7a8",
      "assetIds": [
        "55464657044963196816950587289035428064568320970692304673817341489687556012032"
      ],
      "assetValues": [
        1
      ]
    },
    {
      "reservedAddress": "0x08d2cca0dda083f0dcd20e90cd51cffb07587596",
      "assetIds": [
        "55464657044963196816950587289035428064568320970692304673817341489687556012032"
      ],
      "assetValues": [
        1
      ]
    },
    {
      "reservedAddress": "0x8dba92fca6afaf48fbabb12337250f7bae672b98",
      "assetIds": [
        "55464657044963196816950587289035428064568320970692304673817341489687556012032"
      ],
      "assetValues": [
        1
      ]
    },
    {
      "reservedAddress": "0xA094B58A4A644891b8aa20478a0eb93D92a26ac5",
      "assetIds": [
        "55464657044963196816950587289035428064568320970692304673817341489687556012032"
      ],
      "assetValues": [
        1
      ]
    },
    {
      "reservedAddress": "0x75A08951340a388486062019515f1E75FdB733D1",
      "assetIds": [
        "55464657044963196816950587289035428064568320970692304673817341489687556012032"
      ],
      "assetValues": [
        1
      ]
    },
    {
      "reservedAddress": "0x8713215a005db81c301eb9e0969012c5a245003c",
      "assetIds": [
        "55464657044963196816950587289035428064568320970692304673817341489687556012032"
      ],
      "assetValues": [
        1
      ]
    },
    {
      "reservedAddress": "0xe7931239A57f98FBac1957A15376830884120A76",
      "assetIds": [
        "55464657044963196816950587289035428064568320970692304673817341489687556012032"
      ],
      "assetValues": [
        1
      ]
    },
    {
      "reservedAddress": "0xaACa59077a3cF09cd6Efe7C258A84AB1087687C2",
      "assetIds": [
        "55464657044963196816950587289035428064568320970692304673817341489687556012032"
      ],
      "assetValues": [
        1
      ]
    },
    {
      "reservedAddress": "0xbB53a3c7496efBfeDD9961A89F6F2372DB66B647",
      "assetIds": [
        "55464657044963196816950587289035428064568320970692304673817341489687556012032"
      ],
      "assetValues": [
        1
      ]
    },
    {
      "reservedAddress": "0x496ea957960Bf9A2BBC1D3c114EaA124e07D0543",
      "assetIds": [
        "55464657044963196816950587289035428064568320970692304673817341489687556012032"
      ],
      "assetValues": [
        1
      ]
    },
    {
      "reservedAddress": "0x0D341d16A207Ffb066ca102cdf37c89f56A5018b",
      "assetIds": [
        "55464657044963196816950587289035428064568320970692304673817341489687556012032"
      ],
      "assetValues": [
        1
      ]
    },
    {
      "reservedAddress": "0xF983aBa42430E66C07069edEE68a51E03D460A48",
      "assetIds": [
        "55464657044963196816950587289035428064568320970692304673817341489687556012032"
      ],
      "assetValues": [
        1
      ]
    },
    {
      "reservedAddress": "0x086972D010FE81E84bc1f583bfe110Da7Bb8832A",
      "assetIds": [
        "55464657044963196816950587289035428064568320970692304673817341489687556012032"
      ],
      "assetValues": [
        1
      ]
    },
    {
      "reservedAddress": "0xFf8a2Cb94831e4303A279c2a25e68256Beaf092A",
      "assetIds": [
        "55464657044963196816950587289035428064568320970692304673817341489687556012032"
      ],
      "assetValues": [
        1
      ]
    },
    {
      "reservedAddress": "0x2642F681ec87F87D7Eac5068165e31f468A5f05E",
      "assetIds": [
        "55464657044963196816950587289035428064568320970692304673817341489687556012032"
      ],
      "assetValues": [
        1
      ]
    },
    {
      "reservedAddress": "0x953c0972eEfDCF6C5846A1cDd2bbC3877cf78405",
      "assetIds": [
        "55464657044963196816950587289035428064568320970692304673817341489687556012032"
      ],
      "assetValues": [
        1
      ]
    },
    {
      "reservedAddress": "0x2eAaa9558328EC406A15C9C55a8FCa4899920781",
      "assetIds": [
        "55464657044963196816950587289035428064568320970692304673817341489687556012032"
      ],
      "assetValues": [
        1
      ]
    },
    {
      "reservedAddress": "0x3Aaed2Fa94A012Dc322e297924AEa8A6D019bA59",
      "assetIds": [
        "55464657044963196816950587289035428064568320970692304673817341489687556012032"
      ],
      "assetValues": [
        1
      ]
    },
    {
      "reservedAddress": "0xb09a080EDfFE28B62e1C962F1997F886012940d2",
      "assetIds": [
        "55464657044963196816950587289035428064568320970692304673817341489687556012032"
      ],
      "assetValues": [
        1
      ]
    },
    {
      "reservedAddress": "0xD67Bd925f57b427Cf48107EB69681074c04a1Dbd",
      "assetIds": [
        "55464657044963196816950587289035428064568320970692304673817341489687556012032"
      ],
      "assetValues": [
        1
      ]
    },
    {
      "reservedAddress": "0x696d866b222d3f363cae7eb944abd48e15a0edf9",
      "assetIds": [
        "55464657044963196816950587289035428064568320970692304673817341489687556012032"
      ],
      "assetValues": [
        1
      ]
    },
    {
      "reservedAddress": "0xEDBF3e389d6777a764E719439492c909D7228F69",
      "assetIds": [
        "55464657044963196816950587289035428064568320970692304673817341489687556012032"
      ],
      "assetValues": [
        1
      ]
    },
    {
      "reservedAddress": "0x9c5D719BA31Fc9E27D29D5C7c9933221E9E52873",
      "assetIds": [
        "55464657044963196816950587289035428064568320970692304673817341489687556012032"
      ],
      "assetValues": [
        1
      ]
    },
    {
      "reservedAddress": "0x21D53BFEe9Bb91B5D60D8890B79Fb6F652C0D709",
      "assetIds": [
        "55464657044963196816950587289035428064568320970692304673817341489687556012032"
      ],
      "assetValues": [
        1
      ]
    },
    {
      "reservedAddress": "0x6cd0363fcc00c57f35ebc838e8b907640ff220e8",
      "assetIds": [
        "55464657044963196816950587289035428064568320970692304673817341489687556012032"
      ],
      "assetValues": [
        1
      ]
    },
    {
      "reservedAddress": "0x04201B338004cE6ff88d230706f4eD567a3e0B39",
      "assetIds": [
        "55464657044963196816950587289035428064568320970692304673817341489687556012032"
      ],
      "assetValues": [
        1
      ]
    },
    {
      "reservedAddress": "0x10B69Ed1f265753Ec58D21f4093455E3dE80323E",
      "assetIds": [
        "55464657044963196816950587289035428064568320970692304673817341489687556012032"
      ],
      "assetValues": [
        1
      ]
    },
    {
      "reservedAddress": "0x272FCdE0475981d2Ae5fa60fF23DF30c4602b2aF",
      "assetIds": [
        "55464657044963196816950587289035428064568320970692304673817341489687556012032"
      ],
      "assetValues": [
        1
      ]
    },
    {
      "reservedAddress": "0x182aEAD48A8a8aa0f234C59E9efeEc4302442eD6",
      "assetIds": [
        "55464657044963196816950587289035428064568320970692304673817341489687556012032"
      ],
      "assetValues": [
        1
      ]
    },
    {
      "reservedAddress": "0x1591C0d65168C3214e8c7b1cA3887cbbEC05e1d7",
      "assetIds": [
        "55464657044963196816950587289035428064568320970692304673817341489687556012032"
      ],
      "assetValues": [
        1
      ]
    },
    {
      "reservedAddress": "0x487C94AB0c95dB758891FE63495e47bD43A91C27",
      "assetIds": [
        "55464657044963196816950587289035428064568320970692304673817341489687556012032"
      ],
      "assetValues": [
        1
      ]
    },
    {
      "reservedAddress": "0xb28ce2EB17d846184B06Cc5CDE0bd00c596B6c92",
      "assetIds": [
        "55464657044963196816950587289035428064568320970692304673817341489687556012032"
      ],
      "assetValues": [
        1
      ]
    },
    {
      "reservedAddress": "0x8B8d0B975B09100d6b0A3AA3F47c3275Eb082B93",
      "assetIds": [
        "55464657044963196816950587289035428064568320970692304673817341489687556012032"
      ],
      "assetValues": [
        1
      ]
    },
    {
      "reservedAddress": "0x1737A9D297E00c04184F14C78f312c28d03d4686",
      "assetIds": [
        "55464657044963196816950587289035428064568320970692304673817341489687556012032"
      ],
      "assetValues": [
        1
      ]
    },
    {
      "reservedAddress": "0xc3A6E2b72EE8478A85593Bfe86fCd612855BeAe2",
      "assetIds": [
        "55464657044963196816950587289035428064568320970692304673817341489687556012032"
      ],
      "assetValues": [
        1
      ]
    },
    {
      "reservedAddress": "0xD2e7FfDc2E81bDaf1968Ecc7Ca960612d646eCca",
      "assetIds": [
        "55464657044963196816950587289035428064568320970692304673817341489687556012032"
      ],
      "assetValues": [
        1
      ]
    },
    {
      "reservedAddress": "0x732cDE7B9d8eb15e27D0f550fB139D7eaA9ADa6F",
      "assetIds": [
        "55464657044963196816950587289035428064568320970692304673817341489687556012032"
      ],
      "assetValues": [
        1
      ]
    },
    {
      "reservedAddress": "0x865d7eb5db37cc02ec209dd778f4e3851a421a20",
      "assetIds": [
        "55464657044963196816950587289035428064568320970692304673817341489687556012032"
      ],
      "assetValues": [
        1
      ]
    },
    {
      "reservedAddress": "0x7ABf488B0914Ca53Ac7f8c0916a5f63897681965",
      "assetIds": [
        "55464657044963196816950587289035428064568320970692304673817341489687556012032"
      ],
      "assetValues": [
        1
      ]
    },
    {
      "reservedAddress": "0x9ad9bc974c8231e8ca6b25342534385847b9ca6d",
      "assetIds": [
        "55464657044963196816950587289035428064568320970692304673817341489687556012032"
      ],
      "assetValues": [
        1
      ]
    },
    {
      "reservedAddress": "0x5c66c56c053a147efd78debA73706A1B1e2F7fE5",
      "assetIds": [
        "55464657044963196816950587289035428064568320970692304673817341489687556012032"
      ],
      "assetValues": [
        1
      ]
    },
    {
      "reservedAddress": "0x34dd7030D85C1D95A638d55B1fD7e8E2F16DfB52",
      "assetIds": [
        "55464657044963196816950587289035428064568320970692304673817341489687556012032"
      ],
      "assetValues": [
        1
      ]
    },
    {
      "reservedAddress": "0x4b72F15a48CE627Fd95A3Fd5b1C2439a09530191",
      "assetIds": [
        "55464657044963196816950587289035428064568320970692304673817341489687556012032"
      ],
      "assetValues": [
        1
      ]
    },
    {
      "reservedAddress": "0x2B6a21269140fcafd2a73aF859083e8CDadBEeE6",
      "assetIds": [
        "55464657044963196816950587289035428064568320970692304673817341489687556012032"
      ],
      "assetValues": [
        1
      ]
    },
    {
      "reservedAddress": "0x1b88FF8Fcb1B677c3771e9eD56A620dF010B5829",
      "assetIds": [
        "55464657044963196816950587289035428064568320970692304673817341489687556012032"
      ],
      "assetValues": [
        1
      ]
    },
    {
      "reservedAddress": "0xDfaeF5e968b3b9C8059Ecb7d90815F9ce78BAEbc",
      "assetIds": [
        "55464657044963196816950587289035428064568320970692304673817341489687556012032"
      ],
      "assetValues": [
        1
      ]
    },
    {
      "reservedAddress": "0xC3e82A7AA9A83D3CcBE1206E3329d262C0a78FdF",
      "assetIds": [
        "55464657044963196816950587289035428064568320970692304673817341489687556012032"
      ],
      "assetValues": [
        1
      ]
    },
    {
      "reservedAddress": "0xb19aB092E1cF091137B840d6b632091DB6d650eF",
      "assetIds": [
        "55464657044963196816950587289035428064568320970692304673817341489687556012032"
      ],
      "assetValues": [
        1
      ]
    },
    {
      "reservedAddress": "0x16D5bf383fBa275834f57A5Ad6977f20776D8Be6",
      "assetIds": [
        "55464657044963196816950587289035428064568320970692304673817341489687556012032"
      ],
      "assetValues": [
        1
      ]
    },
    {
      "reservedAddress": "0xD57Ac8366eA0a6Ae4B5a6E25CdfE03590BAa24A6",
      "assetIds": [
        "55464657044963196816950587289035428064568320970692304673817341489687556012032"
      ],
      "assetValues": [
        1
      ]
    },
    {
      "reservedAddress": "0x1Bc35cAE544DF00BfdfEE6597c4E54850eFDD9af",
      "assetIds": [
        "55464657044963196816950587289035428064568320970692304673817341489687556012032"
      ],
      "assetValues": [
        1
      ]
    },
    {
      "reservedAddress": "0x2a1322b0ba1171c48b25909473120d080f83325a",
      "assetIds": [
        "55464657044963196816950587289035428064568320970692304673817341489687556012032"
      ],
      "assetValues": [
        1
      ]
    },
    {
      "reservedAddress": "0xdbE104e440c0de364E7cf478Bb66D9D770Fd2377",
      "assetIds": [
        "55464657044963196816950587289035428064568320970692304673817341489687556012032"
      ],
      "assetValues": [
        1
      ]
    },
    {
      "reservedAddress": "0x95557eF19f81632226bD33451dd19E00AAa62c51",
      "assetIds": [
        "55464657044963196816950587289035428064568320970692304673817341489687556012032"
      ],
      "assetValues": [
        1
      ]
    },
    {
      "reservedAddress": "0x6F530bec4ec89fB0A010488aAf786eCBDFD5D6BE",
      "assetIds": [
        "55464657044963196816950587289035428064568320970692304673817341489687556012032"
      ],
      "assetValues": [
        1
      ]
    },
    {
      "reservedAddress": "0x470346F05C46EEFfdf6c2c65020227784b763562",
      "assetIds": [
        "55464657044963196816950587289035428064568320970692304673817341489687556012032"
      ],
      "assetValues": [
        1
      ]
    },
    {
      "reservedAddress": "0x07994cFBB0932671e35b73E60374e3fc0136D831",
      "assetIds": [
        "55464657044963196816950587289035428064568320970692304673817341489687556012032"
      ],
      "assetValues": [
        1
      ]
    },
    {
      "reservedAddress": "0xb52E2dbf7f59adA1F56360Ab662041748650Ae06",
      "assetIds": [
        "55464657044963196816950587289035428064568320970692304673817341489687556012032"
      ],
      "assetValues": [
        1
      ]
    },
    {
      "reservedAddress": "0xB8A5674cdA2756326075aa17E5DeF50b539251b3",
      "assetIds": [
        "55464657044963196816950587289035428064568320970692304673817341489687556012032"
      ],
      "assetValues": [
        1
      ]
    },
    {
      "reservedAddress": "0x104Ed6811e02927db8dC22908B9b781128D5af52",
      "assetIds": [
        "55464657044963196816950587289035428064568320970692304673817341489687556012032"
      ],
      "assetValues": [
        1
      ]
    },
    {
      "reservedAddress": "0x0D9204053D90d7ca955740FAbDdd6d0CDD4Ea417",
      "assetIds": [
        "55464657044963196816950587289035428064568320970692304673817341489687556012032"
      ],
      "assetValues": [
        1
      ]
    },
    {
      "reservedAddress": "0xe85D0762f87d01a0828D1ae73f92060fE4bBd695",
      "assetIds": [
        "55464657044963196816950587289035428064568320970692304673817341489687556012032"
      ],
      "assetValues": [
        1
      ]
    },
    {
      "reservedAddress": "0x6CD2D60beB09e27743c4B09D99CA540010941C12",
      "assetIds": [
        "55464657044963196816950587289035428064568320970692304673817341489687556012032"
      ],
      "assetValues": [
        1
      ]
    },
    {
      "reservedAddress": "0xaaE8C7F87eB0BA3Ea4ce700F02B9E4F5bB75Ff69",
      "assetIds": [
        "55464657044963196816950587289035428064568320970692304673817341489687556012032"
      ],
      "assetValues": [
        1
      ]
    },
    {
      "reservedAddress": "0x46dBF113AEfEf487c461b715AB909075d09Ba307",
      "assetIds": [
        "55464657044963196816950587289035428064568320970692304673817341489687556012032"
      ],
      "assetValues": [
        1
      ]
    },
    {
      "reservedAddress": "0xA50089b6BBBDfdA1b60622f0088a52a589ba3B7d",
      "assetIds": [
        "55464657044963196816950587289035428064568320970692304673817341489687556012032"
      ],
      "assetValues": [
        1
      ]
    },
    {
      "reservedAddress": "0x8C2E4c5f20b0a0CcE314aAd725A390e254577bd0",
      "assetIds": [
        "55464657044963196816950587289035428064568320970692304673817341489687556012032"
      ],
      "assetValues": [
        1
      ]
    },
    {
      "reservedAddress": "0x26941e873F62726a956378561123885b5dC5B158",
      "assetIds": [
        "55464657044963196816950587289035428064568320970692304673817341489687556012032"
      ],
      "assetValues": [
        1
      ]
    },
    {
      "reservedAddress": "0x4D8bE8dcC4f78D4ecbdD77E260C113DBC17767A7",
      "assetIds": [
        "55464657044963196816950587289035428064568320970692304673817341489687556012032"
      ],
      "assetValues": [
        1
      ]
    },
    {
      "reservedAddress": "0x5D3677bc90174224d14d2ab6E2731cf538F22281",
      "assetIds": [
        "55464657044963196816950587289035428064568320970692304673817341489687556012032"
      ],
      "assetValues": [
        1
      ]
    },
    {
      "reservedAddress": "0x2399Cc4B01DE2633533aF9187dBA45973ec1d809",
      "assetIds": [
        "55464657044963196816950587289035428064568320970692304673817341489687556012032"
      ],
      "assetValues": [
        1
      ]
    },
    {
      "reservedAddress": "0xA17b82A62C8532704CA1e0bE19B04D705ffb8D1D",
      "assetIds": [
        "55464657044963196816950587289035428064568320970692304673817341489687556012032"
      ],
      "assetValues": [
        1
      ]
    },
    {
      "reservedAddress": "0x7B002C466bc13c273208C4716CE61ab32C156Ff3",
      "assetIds": [
        "55464657044963196816950587289035428064568320970692304673817341489687556012032"
      ],
      "assetValues": [
        1
      ]
    },
    {
      "reservedAddress": "0x8d189122AdF483a915010d1323304f904399EaD1",
      "assetIds": [
        "55464657044963196816950587289035428064568320970692304673817341489687556012032"
      ],
      "assetValues": [
        1
      ]
    },
    {
      "reservedAddress": "0x8460B752D49De926C8C623b4A836Eb7Bd402930C",
      "assetIds": [
        "55464657044963196816950587289035428064568320970692304673817341489687556012032"
      ],
      "assetValues": [
        1
      ]
    },
    {
      "reservedAddress": "0xa58Aa8C44FDceaB36091d103607bfE40a670175e",
      "assetIds": [
        "55464657044963196816950587289035428064568320970692304673817341489687556012032"
      ],
      "assetValues": [
        1
      ]
    },
    {
      "reservedAddress": "0x550aa14296D50bC8bA863C2c9D54BeC2Fb4549e2",
      "assetIds": [
        "55464657044963196816950587289035428064568320970692304673817341489687556012032"
      ],
      "assetValues": [
        1
      ]
    },
    {
      "reservedAddress": "0x807Ca5e597f12bFe849deCa251D158425bEa099c",
      "assetIds": [
        "55464657044963196816950587289035428064568320970692304673817341489687556012032"
      ],
      "assetValues": [
        1
      ]
    },
    {
      "reservedAddress": "0x3C9554077128f0a1fC2F43ed8A092762B43954b3",
      "assetIds": [
        "55464657044963196816950587289035428064568320970692304673817341489687556012032"
      ],
      "assetValues": [
        1
      ]
    },
    {
      "reservedAddress": "0xc39fC71a10F04deD41369c03DF5C03c85779Ac35",
      "assetIds": [
        "55464657044963196816950587289035428064568320970692304673817341489687556012032"
      ],
      "assetValues": [
        1
      ]
    },
    {
      "reservedAddress": "0xdd10A0756f2C431E4dc87D19D2Dc770adF3512f9",
      "assetIds": [
        "55464657044963196816950587289035428064568320970692304673817341489687556012032"
      ],
      "assetValues": [
        1
      ]
    },
    {
      "reservedAddress": "0x6C131d4a375dD19538bC31510b7c7d82eD4A7C06",
      "assetIds": [
        "55464657044963196816950587289035428064568320970692304673817341489687556012032"
      ],
      "assetValues": [
        1
      ]
    },
    {
      "reservedAddress": "0x91354D2F7ea901BE9D00Fa93F286c1D7445bc40e",
      "assetIds": [
        "55464657044963196816950587289035428064568320970692304673817341489687556012032"
      ],
      "assetValues": [
        1
      ]
    },
    {
      "reservedAddress": "0x293462f8A616Dc9989f21e1290C55Fd74Ff92530",
      "assetIds": [
        "55464657044963196816950587289035428064568320970692304673817341489687556012032"
      ],
      "assetValues": [
        1
      ]
    },
    {
      "reservedAddress": "0xC2bddfdf94170A616FFbA1f6fdf995Ec549cFd98",
      "assetIds": [
        "55464657044963196816950587289035428064568320970692304673817341489687556012032"
      ],
      "assetValues": [
        1
      ]
    },
    {
      "reservedAddress": "0xBb8Eb76cF6018A8413b7F91950a30df9CB3B5dA0",
      "assetIds": [
        "55464657044963196816950587289035428064568320970692304673817341489687556012032"
      ],
      "assetValues": [
        1
      ]
    },
    {
      "reservedAddress": "0xD7203A6f3502448A659db49495665f6bcc51b02e",
      "assetIds": [
        "55464657044963196816950587289035428064568320970692304673817341489687556012032"
      ],
      "assetValues": [
        1
      ]
    },
    {
      "reservedAddress": "0x2f0A2e33CaE1B92f37d076a6c051C5C790D35AeB",
      "assetIds": [
        "55464657044963196816950587289035428064568320970692304673817341489687556012032"
      ],
      "assetValues": [
        1
      ]
    },
    {
      "reservedAddress": "0x24073fcE0298D37a2B1E9eAc5Eb7AC33eD6513E1",
      "assetIds": [
        "55464657044963196816950587289035428064568320970692304673817341489687556012032"
      ],
      "assetValues": [
        1
      ]
    },
    {
      "reservedAddress": "0x8dc0256d1009793B224683580B75f20171FCeBcE",
      "assetIds": [
        "55464657044963196816950587289035428064568320970692304673817341489687556012032"
      ],
      "assetValues": [
        1
      ]
    },
    {
      "reservedAddress": "0x5B8c1e72beF645Fc4973A770146E91dccb1caE06",
      "assetIds": [
        "55464657044963196816950587289035428064568320970692304673817341489687556012032"
      ],
      "assetValues": [
        1
      ]
    },
    {
      "reservedAddress": "0xde8bffb87fd7085474ffedc4C932a4271fd6078e",
      "assetIds": [
        "55464657044963196816950587289035428064568320970692304673817341489687556012032"
      ],
      "assetValues": [
        1
      ]
    },
    {
      "reservedAddress": "0xC6FDe83F5C6b9dA2E78036076EC803a9dbD5B0A1",
      "assetIds": [
        "55464657044963196816950587289035428064568320970692304673817341489687556012032"
      ],
      "assetValues": [
        1
      ]
    },
    {
      "reservedAddress": "0x1FbB44498cA4450585b3BD5EcEA1Cf48C30c3112",
      "assetIds": [
        "55464657044963196816950587289035428064568320970692304673817341489687556012032"
      ],
      "assetValues": [
        1
      ]
    },
    {
      "reservedAddress": "0xe6AeE6ec5A83010859e350Cc07b16210a4641CBD",
      "assetIds": [
        "55464657044963196816950587289035428064568320970692304673817341489687556012032"
      ],
      "assetValues": [
        1
      ]
    },
    {
      "reservedAddress": "0x15CD1328b9fE4c05a9C668c2FF68A0D5A5D308E2",
      "assetIds": [
        "55464657044963196816950587289035428064568320970692304673817341489687556012032"
      ],
      "assetValues": [
        1
      ]
    },
    {
      "reservedAddress": "0x86B28AB5227e695b8081C7b034962166A8486d7b",
      "assetIds": [
        "55464657044963196816950587289035428064568320970692304673817341489687556012032"
      ],
      "assetValues": [
        1
      ]
    },
    {
      "reservedAddress": "0x4244EC4130Cb62891Ea1e0ccf3Dce90Bd323372E",
      "assetIds": [
        "55464657044963196816950587289035428064568320970692304673817341489687556012032"
      ],
      "assetValues": [
        1
      ]
    },
    {
      "reservedAddress": "0xc19f12d757644076e1e81605577ac64CD2e86b64",
      "assetIds": [
        "55464657044963196816950587289035428064568320970692304673817341489687556012032"
      ],
      "assetValues": [
        1
      ]
    },
    {
      "reservedAddress": "0xCC6c833436da13973061374C5E0f24e591b17dFD",
      "assetIds": [
        "55464657044963196816950587289035428064568320970692304673817341489687556012032"
      ],
      "assetValues": [
        1
      ]
    },
    {
      "reservedAddress": "0x9384Df9cFdeF8773E1aAb32fDCC8E9bb7Ed0EA2f",
      "assetIds": [
        "55464657044963196816950587289035428064568320970692304673817341489687556012032"
      ],
      "assetValues": [
        1
      ]
    },
    {
      "reservedAddress": "0x54c4b52C6f0cBfE97eB3E7187D380F9B875b3F1B",
      "assetIds": [
        "55464657044963196816950587289035428064568320970692304673817341489687556012032"
      ],
      "assetValues": [
        1
      ]
    },
    {
      "reservedAddress": "0x925462b3ddCc1e92cba13DDC3C922f7652a06B4F",
      "assetIds": [
        "55464657044963196816950587289035428064568320970692304673817341489687556012032"
      ],
      "assetValues": [
        1
      ]
    },
    {
      "reservedAddress": "0x62daf332c8c7cF85BD8595ba3bC308a95E1b98bf",
      "assetIds": [
        "55464657044963196816950587289035428064568320970692304673817341489687556012032"
      ],
      "assetValues": [
        1
      ]
    },
    {
      "reservedAddress": "0x7D7fdA374aB3eDf5EA8c36f131F20C43D8d9d739",
      "assetIds": [
        "55464657044963196816950587289035428064568320970692304673817341489687556012032"
      ],
      "assetValues": [
        1
      ]
    },
    {
      "reservedAddress": "0x42fdF3D412E575f0132CF8df0d0947d8bbE57515",
      "assetIds": [
        "55464657044963196816950587289035428064568320970692304673817341489687556012032"
      ],
      "assetValues": [
        1
      ]
    },
    {
      "reservedAddress": "0xDdCa0300a850784295a59084A3A4Fb5f1A6feF77",
      "assetIds": [
        "55464657044963196816950587289035428064568320970692304673817341489687556012032"
      ],
      "assetValues": [
        1
      ]
    },
    {
      "reservedAddress": "0x3c995db7c37A834e2eB88e318e04F5e15b0EC6b3",
      "assetIds": [
        "55464657044963196816950587289035428064568320970692304673817341489687556012032"
      ],
      "assetValues": [
        1
      ]
    },
    {
      "reservedAddress": "0xe632D2113b817ba54c9af806BCDC6940A9F882D0",
      "assetIds": [
        "55464657044963196816950587289035428064568320970692304673817341489687556012032"
      ],
      "assetValues": [
        1
      ]
    },
    {
      "reservedAddress": "0x05DB2D9d05E1b9c2a1f48DF29625F2D6c9940667",
      "assetIds": [
        "55464657044963196816950587289035428064568320970692304673817341489687556012032"
      ],
      "assetValues": [
        1
      ]
    },
    {
      "reservedAddress": "0xF7fca952A32670FbA9f089ca77fFC14CD952014f",
      "assetIds": [
        "55464657044963196816950587289035428064568320970692304673817341489687556012032"
      ],
      "assetValues": [
        1
      ]
    },
    {
      "reservedAddress": "0xc4e113c4e3372A531FB8dBa15C23AD29110fa499",
      "assetIds": [
        "55464657044963196816950587289035428064568320970692304673817341489687556012032"
      ],
      "assetValues": [
        1
      ]
    },
    {
      "reservedAddress": "0x8160684b00f59B8d2049C23c71bF42d6ea533c3c",
      "assetIds": [
        "55464657044963196816950587289035428064568320970692304673817341489687556012032"
      ],
      "assetValues": [
        1
      ]
    },
    {
      "reservedAddress": "0xF511a8922e9fD8935b6578d66D1ae6431ae293FF",
      "assetIds": [
        "55464657044963196816950587289035428064568320970692304673817341489687556012032"
      ],
      "assetValues": [
        1
      ]
    },
    {
      "reservedAddress": "0xBFdb50fD26fa57490208c189B80db8D62A0C6A2e",
      "assetIds": [
        "55464657044963196816950587289035428064568320970692304673817341489687556012032"
      ],
      "assetValues": [
        1
      ]
    },
    {
      "reservedAddress": "0xFAEd82c5e76E1927DE25F3050315f75dD46d5344",
      "assetIds": [
        "55464657044963196816950587289035428064568320970692304673817341489687556012032"
      ],
      "assetValues": [
        1
      ]
    },
    {
      "reservedAddress": "0x9c2f2EEF376f5fcbdd3CD8eFf6B74319D32054c5",
      "assetIds": [
        "55464657044963196816950587289035428064568320970692304673817341489687556012032"
      ],
      "assetValues": [
        1
      ]
    },
    {
      "reservedAddress": "0xb87BFA4a2D4B6909E37F023d385D4985D906d216",
      "assetIds": [
        "55464657044963196816950587289035428064568320970692304673817341489687556012032"
      ],
      "assetValues": [
        1
      ]
    },
    {
      "reservedAddress": "0x12FEd2CcEC3f42018461c5F1B36c78ad22b23AB9",
      "assetIds": [
        "55464657044963196816950587289035428064568320970692304673817341489687556012032"
      ],
      "assetValues": [
        1
      ]
    },
    {
      "reservedAddress": "0x6313b8676a440f4841De7478bB88A9587d62b802",
      "assetIds": [
        "55464657044963196816950587289035428064568320970692304673817341489687556012032"
      ],
      "assetValues": [
        1
      ]
    },
    {
      "reservedAddress": "0x9990c6823dDeDF4E384392BE05e2e77320b6E887",
      "assetIds": [
        "55464657044963196816950587289035428064568320970692304673817341489687556012032"
      ],
      "assetValues": [
        1
      ]
    },
    {
      "reservedAddress": "0xa007Ae5ebBbCEcb89A7D86561c13A86034e9B104",
      "assetIds": [
        "55464657044963196816950587289035428064568320970692304673817341489687556012032"
      ],
      "assetValues": [
        1
      ]
    },
    {
      "reservedAddress": "0x150e7dc500EAb6F54b217Edfe3983a5a389fb1d2",
      "assetIds": [
        "55464657044963196816950587289035428064568320970692304673817341489687556012032"
      ],
      "assetValues": [
        1
      ]
    },
    {
      "reservedAddress": "0xFb2dCbC91c34A2b77801D54077497851C1E45Fe2",
      "assetIds": [
        "55464657044963196816950587289035428064568320970692304673817341489687556012032"
      ],
      "assetValues": [
        1
      ]
    },
    {
      "reservedAddress": "0xED81029869971f55F479E21Ac1F7CF9E5Aa807e2",
      "assetIds": [
        "55464657044963196816950587289035428064568320970692304673817341489687556012032"
      ],
      "assetValues": [
        1
      ]
    },
    {
      "reservedAddress": "0xA1591D5e214397baC653409Bd27a0C00a46F4EB9",
      "assetIds": [
        "55464657044963196816950587289035428064568320970692304673817341489687556012032"
      ],
      "assetValues": [
        1
      ]
    },
    {
      "reservedAddress": "0x33B237D8ea26E8D4F10309878fc105a019410A0d",
      "assetIds": [
        "55464657044963196816950587289035428064568320970692304673817341489687556012032"
      ],
      "assetValues": [
        1
      ]
    },
    {
      "reservedAddress": "0x367cE96579686Cc3A4523BDdFE6636a3c5671313",
      "assetIds": [
        "55464657044963196816950587289035428064568320970692304673817341489687556012032"
      ],
      "assetValues": [
        1
      ]
    },
    {
      "reservedAddress": "0x1639be60c11a6c8d29e4235ceae50c192e7633d6",
      "assetIds": [
        "55464657044963196816950587289035428064568320970692304673817341489687556012032"
      ],
      "assetValues": [
        1
      ]
    },
    {
      "reservedAddress": "0x9b18a62b207b3b06279B8B5c2ec0406c391530F6",
      "assetIds": [
        "55464657044963196816950587289035428064568320970692304673817341489687556012032"
      ],
      "assetValues": [
        1
      ]
    },
    {
      "reservedAddress": "0xd49a676813DAC2607692ae8897314791529E8af6",
      "assetIds": [
        "55464657044963196816950587289035428064568320970692304673817341489687556012032"
      ],
      "assetValues": [
        1
      ]
    },
    {
      "reservedAddress": "0x755cac5Fd538339a82e9AEa4a3eA219E79149149",
      "assetIds": [
        "55464657044963196816950587289035428064568320970692304673817341489687556012032"
      ],
      "assetValues": [
        1
      ]
    },
    {
      "reservedAddress": "0x82C23FC25424f582021387267721BE080547beA3",
      "assetIds": [
        "55464657044963196816950587289035428064568320970692304673817341489687556012032"
      ],
      "assetValues": [
        1
      ]
    },
    {
      "reservedAddress": "0xE9eA3b6556DB9333646F404a689DC9a5aa50a756",
      "assetIds": [
        "55464657044963196816950587289035428064568320970692304673817341489687556012032"
      ],
      "assetValues": [
        1
      ]
    },
    {
      "reservedAddress": "0x16F731E379A0F1E971E01712F462B05C5137FE5E",
      "assetIds": [
        "55464657044963196816950587289035428064568320970692304673817341489687556012032"
      ],
      "assetValues": [
        1
      ]
    },
    {
      "reservedAddress": "0xeDBdAA42A04eF3cF95cE9A5eAD83F711F6860c9c",
      "assetIds": [
        "55464657044963196816950587289035428064568320970692304673817341489687556012032"
      ],
      "assetValues": [
        1
      ]
    },
    {
      "reservedAddress": "0xc07A18c4ccE7F95A413515d3D137De47BcFfb495",
      "assetIds": [
        "55464657044963196816950587289035428064568320970692304673817341489687556012032"
      ],
      "assetValues": [
        1
      ]
    },
    {
      "reservedAddress": "0x401D1aDbF45bF5aF519E38a12B7F08FC7102aCb2",
      "assetIds": [
        "55464657044963196816950587289035428064568320970692304673817341489687556012032"
      ],
      "assetValues": [
        1
      ]
    },
    {
      "reservedAddress": "0xf1DaBcbCE80fA215790155A273B1362c1789c083",
      "assetIds": [
        "55464657044963196816950587289035428064568320970692304673817341489687556012032"
      ],
      "assetValues": [
        1
      ]
    },
    {
      "reservedAddress": "0xD1eDEC12d3726255CE1A958e38E5E1aC39D76520",
      "assetIds": [
        "55464657044963196816950587289035428064568320970692304673817341489687556012032"
      ],
      "assetValues": [
        1
      ]
    },
    {
      "reservedAddress": "0xbb8990DBa108553b042f57159099240b1890194f",
      "assetIds": [
        "55464657044963196816950587289035428064568320970692304673817341489687556012032"
      ],
      "assetValues": [
        1
      ]
    },
    {
      "reservedAddress": "0x9Da2Ee83B7EAc61783C6b60C553CEbcAD934A495",
      "assetIds": [
        "55464657044963196816950587289035428064568320970692304673817341489687556012032"
      ],
      "assetValues": [
        1
      ]
    },
    {
      "reservedAddress": "0xAe80DBe878F791Cb10D286405b5b0278ED3580a9",
      "assetIds": [
        "55464657044963196816950587289035428064568320970692304673817341489687556012032"
      ],
      "assetValues": [
        1
      ]
    },
    {
      "reservedAddress": "0xeb490Aa24ea3d633555eCC0130639803A10c67ea",
      "assetIds": [
        "55464657044963196816950587289035428064568320970692304673817341489687556012032"
      ],
      "assetValues": [
        1
      ]
    },
    {
      "reservedAddress": "0x375DE1Cb18882D7960e9B7E7FeAAF76f7a85cdc0",
      "assetIds": [
        "55464657044963196816950587289035428064568320970692304673817341489687556012032"
      ],
      "assetValues": [
        1
      ]
    },
    {
      "reservedAddress": "0x10DbF82A8bb191bd1c082de5Ef915E998Aa5CCD7",
      "assetIds": [
        "55464657044963196816950587289035428064568320970692304673817341489687556012032"
      ],
      "assetValues": [
        1
      ]
    },
    {
      "reservedAddress": "0x3EFA558a7183E21499C95615eD41A4171Ec80806",
      "assetIds": [
        "55464657044963196816950587289035428064568320970692304673817341489687556012032"
      ],
      "assetValues": [
        1
      ]
    },
    {
      "reservedAddress": "0x067cA2c1715A016517B1003667e676C909d1d8C7",
      "assetIds": [
        "55464657044963196816950587289035428064568320970692304673817341489687556012032"
      ],
      "assetValues": [
        1
      ]
    },
    {
      "reservedAddress": "0xDB2Fcf4E85A62B3C2127821B4E60a7A82b9F4e8c",
      "assetIds": [
        "55464657044963196816950587289035428064568320970692304673817341489687556012032"
      ],
      "assetValues": [
        1
      ]
    },
    {
      "reservedAddress": "0x096fAfC785270cb06EAc55d48535FDcdDbC0C6De",
      "assetIds": [
        "55464657044963196816950587289035428064568320970692304673817341489687556012032"
      ],
      "assetValues": [
        1
      ]
    },
    {
      "reservedAddress": "0x916421ed84d8ccb631786683C50eCF4bBf5EF002",
      "assetIds": [
        "55464657044963196816950587289035428064568320970692304673817341489687556012032"
      ],
      "assetValues": [
        1
      ]
    },
    {
      "reservedAddress": "0x13dCe4F4dbC1f91a61001Ea6CA2ae471BFa6951b",
      "assetIds": [
        "55464657044963196816950587289035428064568320970692304673817341489687556012032"
      ],
      "assetValues": [
        1
      ]
    },
    {
      "reservedAddress": "0x0679F54b44c0DC037b996bFf72C6862554C595fF",
      "assetIds": [
        "55464657044963196816950587289035428064568320970692304673817341489687556012032"
      ],
      "assetValues": [
        1
      ]
    },
    {
      "reservedAddress": "0x069d161Fa7BFc60679F60f02BE0e407DD1A6Be64",
      "assetIds": [
        "55464657044963196816950587289035428064568320970692304673817341489687556012032"
      ],
      "assetValues": [
        1
      ]
    },
    {
      "reservedAddress": "0x2C94EaA24B3Af2054811679c099528C8e68D657a",
      "assetIds": [
        "55464657044963196816950587289035428064568320970692304673817341489687556012032"
      ],
      "assetValues": [
        1
      ]
    },
    {
      "reservedAddress": "0xA136D7670A773FF9bDDCD0a8184FB1D70DF33f18",
      "assetIds": [
        "55464657044963196816950587289035428064568320970692304673817341489687556012032"
      ],
      "assetValues": [
        1
      ]
    },
    {
      "reservedAddress": "0x144E7538116AF6949213489Ac535FB941D08406F",
      "assetIds": [
        "55464657044963196816950587289035428064568320970692304673817341489687556012032"
      ],
      "assetValues": [
        1
      ]
    },
    {
      "reservedAddress": "0xe5304aB6682ef9CaFe9207d069DcD91Dd7034de6",
      "assetIds": [
        "55464657044963196816950587289035428064568320970692304673817341489687556012032"
      ],
      "assetValues": [
        1
      ]
    },
    {
      "reservedAddress": "0xf704D54df8abDD81D8a512b755Dad7D508DDAFc9",
      "assetIds": [
        "55464657044963196816950587289035428064568320970692304673817341489687556012032"
      ],
      "assetValues": [
        1
      ]
    },
    {
      "reservedAddress": "0x1c03971b3041b93FD1460c6Fc4764E272bB86EA8",
      "assetIds": [
        "55464657044963196816950587289035428064568320970692304673817341489687556012032"
      ],
      "assetValues": [
        1
      ]
    },
    {
      "reservedAddress": "0xd6f11B1104c9cBBED58647A9995Fd13A5F7D9466",
      "assetIds": [
        "55464657044963196816950587289035428064568320970692304673817341489687556012032"
      ],
      "assetValues": [
        1
      ]
    },
    {
      "reservedAddress": "0x410f29ffeD55ac741324a9d67e337C1D4db5686d",
      "assetIds": [
        "55464657044963196816950587289035428064568320970692304673817341489687556012032"
      ],
      "assetValues": [
        1
      ]
    },
    {
      "reservedAddress": "0xc30f9996ccD802EAD447f6575AF16f394769A091",
      "assetIds": [
        "55464657044963196816950587289035428064568320970692304673817341489687556012032"
      ],
      "assetValues": [
        1
      ]
    },
    {
      "reservedAddress": "0x4e9F32ACE6f8f691043531D453573427a7a322C0",
      "assetIds": [
        "55464657044963196816950587289035428064568320970692304673817341489687556012032"
      ],
      "assetValues": [
        1
      ]
    },
    {
      "reservedAddress": "0x34BFa02517860f1df23c2285583C7CA737723990",
      "assetIds": [
        "55464657044963196816950587289035428064568320970692304673817341489687556012032"
      ],
      "assetValues": [
        1
      ]
    },
    {
      "reservedAddress": "0x22EADf872F790E6f582B69828710bC795E6Cc71e",
      "assetIds": [
        "55464657044963196816950587289035428064568320970692304673817341489687556012032"
      ],
      "assetValues": [
        1
      ]
    },
    {
      "reservedAddress": "0x545C60Ee00fE80E2d00C9Ef7E682A68F2F94D4A5",
      "assetIds": [
        "55464657044963196816950587289035428064568320970692304673817341489687556012032"
      ],
      "assetValues": [
        1
      ]
    },
    {
      "reservedAddress": "0x0f9eB04F27720cdbff4175396af6E2F6d4338def",
      "assetIds": [
        "55464657044963196816950587289035428064568320970692304673817341489687556012032"
      ],
      "assetValues": [
        1
      ]
    },
    {
      "reservedAddress": "0x12FF72835018CF0F01Ea5708055C0782EC947c23",
      "assetIds": [
        "55464657044963196816950587289035428064568320970692304673817341489687556012032"
      ],
      "assetValues": [
        1
      ]
    },
    {
      "reservedAddress": "0x3355f963Ca1cDf9315A37F03328Ecb019C4E3f8A",
      "assetIds": [
        "55464657044963196816950587289035428064568320970692304673817341489687556012032"
      ],
      "assetValues": [
        1
      ]
    },
    {
      "reservedAddress": "0x3C73FE4c7418894A9fBcF38a19253D6ea898e6E2",
      "assetIds": [
        "55464657044963196816950587289035428064568320970692304673817341489687556012032"
      ],
      "assetValues": [
        1
      ]
    },
    {
      "reservedAddress": "0x67311c4BbD764447bC110Cc6bdadDD2d73dD9266",
      "assetIds": [
        "55464657044963196816950587289035428064568320970692304673817341489687556012032"
      ],
      "assetValues": [
        1
      ]
    },
    {
      "reservedAddress": "0x7DCFAAFa8DefDe9014cfb274Aceee1892A1C0a7C",
      "assetIds": [
        "55464657044963196816950587289035428064568320970692304673817341489687556012032"
      ],
      "assetValues": [
        1
      ]
    },
    {
      "reservedAddress": "0xC4be76F26B04D0FBD654625dc65DdAe0C5cBa5D6",
      "assetIds": [
        "55464657044963196816950587289035428064568320970692304673817341489687556012032"
      ],
      "assetValues": [
        1
      ]
    },
    {
      "reservedAddress": "0xc8DDa553944945f3Cc1bde9A32274f39dd6492c7",
      "assetIds": [
        "55464657044963196816950587289035428064568320970692304673817341489687556012032"
      ],
      "assetValues": [
        1
      ]
    },
    {
      "reservedAddress": "0xe5Da7975D6DB4B0c5f123598CC6624c8a0a750D1",
      "assetIds": [
        "55464657044963196816950587289035428064568320970692304673817341489687556012032"
      ],
      "assetValues": [
        1
      ]
    },
    {
      "reservedAddress": "0x871C23FbcdC776989B8564243D4658Ec5c243E0E",
      "assetIds": [
        "55464657044963196816950587289035428064568320970692304673817341489687556012032"
      ],
      "assetValues": [
        1
      ]
    },
    {
      "reservedAddress": "0xa43579DBa5664393Af21088A432784Fb787d50Bb",
      "assetIds": [
        "55464657044963196816950587289035428064568320970692304673817341489687556012032"
      ],
      "assetValues": [
        1
      ]
    },
    {
      "reservedAddress": "0x3ee1014cf2a7B0ea8F38f52169779042023aEd6a",
      "assetIds": [
        "55464657044963196816950587289035428064568320970692304673817341489687556012032"
      ],
      "assetValues": [
        1
      ]
    },
    {
      "reservedAddress": "0xDcCAA8c805FB0e55492A7f073e8D847128234e39",
      "assetIds": [
        "55464657044963196816950587289035428064568320970692304673817341489687556012032"
      ],
      "assetValues": [
        1
      ]
    },
    {
      "reservedAddress": "0x5033d13Ef9825877CD599f0264A7fa64251Cf866",
      "assetIds": [
        "55464657044963196816950587289035428064568320970692304673817341489687556012032"
      ],
      "assetValues": [
        1
      ]
    },
    {
      "reservedAddress": "0xd912F5fa792a61b9a1cE13969d084d44EA63aD30",
      "assetIds": [
        "55464657044963196816950587289035428064568320970692304673817341489687556012032"
      ],
      "assetValues": [
        1
      ]
    },
    {
      "reservedAddress": "0x1332706a6b68B80c24F7D5Fe1d24379C34265e59",
      "assetIds": [
        "55464657044963196816950587289035428064568320970692304673817341489687556012032"
      ],
      "assetValues": [
        1
      ]
    },
    {
      "reservedAddress": "0x6ef238f7F97AA390c2beD247C1EE7E0FEBF9FaF4",
      "assetIds": [
        "55464657044963196816950587289035428064568320970692304673817341489687556012032"
      ],
      "assetValues": [
        1
      ]
    },
    {
      "reservedAddress": "0x1C399280B4B31E8Dd6b77b1Ca7b16bEA1a68Cbd6",
      "assetIds": [
        "55464657044963196816950587289035428064568320970692304673817341489687556012032"
      ],
      "assetValues": [
        1
      ]
    },
    {
      "reservedAddress": "0x8ABa7cCC59794F5c8Ad95a16f31DBc6Ff9D17DE2",
      "assetIds": [
        "55464657044963196816950587289035428064568320970692304673817341489687556012032"
      ],
      "assetValues": [
        1
      ]
    },
    {
      "reservedAddress": "0xA0F40d5a4a2c9BAbd5169142ae53015d50770456",
      "assetIds": [
        "55464657044963196816950587289035428064568320970692304673817341489687556012032"
      ],
      "assetValues": [
        1
      ]
    },
    {
      "reservedAddress": "0x7A8d0917337248F961e5155Bf9DAcEED33a1E3a3",
      "assetIds": [
        "55464657044963196816950587289035428064568320970692304673817341489687556012032"
      ],
      "assetValues": [
        1
      ]
    },
    {
      "reservedAddress": "0x7cC195030Ad6CeEC96fe79f64d27728B5FeeE065",
      "assetIds": [
        "55464657044963196816950587289035428064568320970692304673817341489687556012032"
      ],
      "assetValues": [
        1
      ]
    },
    {
      "reservedAddress": "0x307D32f8dFBD60e4c42D67412F3B083de3480036",
      "assetIds": [
        "55464657044963196816950587289035428064568320970692304673817341489687556012032"
      ],
      "assetValues": [
        1
      ]
    },
    {
      "reservedAddress": "0x16E5a0aaE26af213a2b13093a3000Ad843c1B4D0",
      "assetIds": [
        "55464657044963196816950587289035428064568320970692304673817341489687556012032"
      ],
      "assetValues": [
        1
      ]
    },
    {
      "reservedAddress": "0x760D2EB0C65b17903E3CEA9C210DCC5c4143C6c1",
      "assetIds": [
        "55464657044963196816950587289035428064568320970692304673817341489687556012032"
      ],
      "assetValues": [
        1
      ]
    },
    {
      "reservedAddress": "0x81d7810709D62285CC30eF2Ef89e197BC0D26C19",
      "assetIds": [
        "55464657044963196816950587289035428064568320970692304673817341489687556012032"
      ],
      "assetValues": [
        1
      ]
    },
    {
      "reservedAddress": "0x70f44Ff586Dc8A5AF3b3237125115D9cD0B43C0C",
      "assetIds": [
        "55464657044963196816950587289035428064568320970692304673817341489687556012032"
      ],
      "assetValues": [
        1
      ]
    },
    {
      "reservedAddress": "0x4366B789bA7ea67Eef90AED52D06e134795b8Ccb",
      "assetIds": [
        "55464657044963196816950587289035428064568320970692304673817341489687556012032"
      ],
      "assetValues": [
        1
      ]
    },
    {
      "reservedAddress": "0xCE11dC1f58CB351300B1989D9fb3353c7d5D312B",
      "assetIds": [
        "55464657044963196816950587289035428064568320970692304673817341489687556012032"
      ],
      "assetValues": [
        1
      ]
    },
    {
      "reservedAddress": "0xB6b3Adb9B67630D20Cd5314514a0FDc4C9bF067a",
      "assetIds": [
        "55464657044963196816950587289035428064568320970692304673817341489687556012032"
      ],
      "assetValues": [
        1
      ]
    },
    {
      "reservedAddress": "0x391DFc4E38D8796bE062c58f0B31819aa6b83c87",
      "assetIds": [
        "55464657044963196816950587289035428064568320970692304673817341489687556012032"
      ],
      "assetValues": [
        1
      ]
    },
    {
      "reservedAddress": "0x019E1436aE7B288Dd0Fe08503868C676829C5BFC",
      "assetIds": [
        "55464657044963196816950587289035428064568320970692304673817341489687556012032"
      ],
      "assetValues": [
        1
      ]
    },
    {
      "reservedAddress": "0x0Fd707368ACF8a4cC5447340bBe6CB8C1D3e18aE",
      "assetIds": [
        "55464657044963196816950587289035428064568320970692304673817341489687556012032"
      ],
      "assetValues": [
        1
      ]
    },
    {
      "reservedAddress": "0x8dceEBd001fA8B29A48C2231bf76ED76e91BfB00",
      "assetIds": [
        "55464657044963196816950587289035428064568320970692304673817341489687556012032"
      ],
      "assetValues": [
        1
      ]
    },
    {
      "reservedAddress": "0x1b21a2EEd9dd85394581646E9b38fD55644F8549",
      "assetIds": [
        "55464657044963196816950587289035428064568320970692304673817341489687556012032"
      ],
      "assetValues": [
        1
      ]
    },
    {
      "reservedAddress": "0x0555Ca6a14ffd8e4717ece749A1b92Df2ceE9c02",
      "assetIds": [
        "55464657044963196816950587289035428064568320970692304673817341489687556012032"
      ],
      "assetValues": [
        1
      ]
    },
    {
      "reservedAddress": "0x30B1f8B7034FB9eE7eE29630Ed66525369b0a730",
      "assetIds": [
        "55464657044963196816950587289035428064568320970692304673817341489687556012032"
      ],
      "assetValues": [
        1
      ]
    },
    {
      "reservedAddress": "0x64e38068E1A615B46C6E0E87e808fF96e335ae4c",
      "assetIds": [
        "55464657044963196816950587289035428064568320970692304673817341489687556012032"
      ],
      "assetValues": [
        1
      ]
    },
    {
      "reservedAddress": "0x81913057d97aadD5deEA7F93D2C7A2f8e39d5c6d",
      "assetIds": [
        "55464657044963196816950587289035428064568320970692304673817341489687556012032"
      ],
      "assetValues": [
        1
      ]
    },
    {
      "reservedAddress": "0x2524cd37A16727c0AaEdcaA5B2BabEbD1ebA8D96",
      "assetIds": [
        "55464657044963196816950587289035428064568320970692304673817341489687556012032"
      ],
      "assetValues": [
        1
      ]
    },
    {
      "reservedAddress": "0xa3ef48E613931f988Abf22d82c0bc43Da1740B5e",
      "assetIds": [
        "55464657044963196816950587289035428064568320970692304673817341489687556012032"
      ],
      "assetValues": [
        1
      ]
    },
    {
      "reservedAddress": "0x688F2f17613349C8620bB414c400439C8D0730eE",
      "assetIds": [
        "55464657044963196816950587289035428064568320970692304673817341489687556012032"
      ],
      "assetValues": [
        1
      ]
    },
    {
      "reservedAddress": "0x04F3FA83b420Bc9677dE736aD82eDb5DBf165cFA",
      "assetIds": [
        "55464657044963196816950587289035428064568320970692304673817341489687556012032"
      ],
      "assetValues": [
        1
      ]
    },
    {
      "reservedAddress": "0x7721c94a31b7863cB7D99Dd5438898a83BA2D209",
      "assetIds": [
        "55464657044963196816950587289035428064568320970692304673817341489687556012032"
      ],
      "assetValues": [
        1
      ]
    },
    {
      "reservedAddress": "0x816d63B563B0ea88C189AC69a828aac9d747BeA7",
      "assetIds": [
        "55464657044963196816950587289035428064568320970692304673817341489687556012032"
      ],
      "assetValues": [
        1
      ]
    },
    {
      "reservedAddress": "0x9D92eeeDa7CAA6E8532174ABda0213BD580c90f8",
      "assetIds": [
        "55464657044963196816950587289035428064568320970692304673817341489687556012032"
      ],
      "assetValues": [
        1
      ]
    },
    {
      "reservedAddress": "0x750bD8869aC3919f50c4603c96F884Cbe6f2A65A",
      "assetIds": [
        "55464657044963196816950587289035428064568320970692304673817341489687556012032"
      ],
      "assetValues": [
        1
      ]
    },
    {
      "reservedAddress": "0xC34831ACa2A54bf6a37a263E87bf71809eFbadb7",
      "assetIds": [
        "55464657044963196816950587289035428064568320970692304673817341489687556012032"
      ],
      "assetValues": [
        1
      ]
    },
    {
      "reservedAddress": "0x577f7BDA60bf5adAaA923F9Df8533A193C9546b1",
      "assetIds": [
        "55464657044963196816950587289035428064568320970692304673817341489687556012032"
      ],
      "assetValues": [
        1
      ]
    },
    {
      "reservedAddress": "0x32bd940ae745588AEEa2D8626a0C62bf1A566051",
      "assetIds": [
        "55464657044963196816950587289035428064568320970692304673817341489687556012032"
      ],
      "assetValues": [
        1
      ]
    },
    {
      "reservedAddress": "0x60963C919b837CfdB4793240fFC9575E56a1D905",
      "assetIds": [
        "55464657044963196816950587289035428064568320970692304673817341489687556012032"
      ],
      "assetValues": [
        1
      ]
    },
    {
      "reservedAddress": "0x5E28847AaD5d1967Ba1d74a6B66c2e7Fa8313545",
      "assetIds": [
        "55464657044963196816950587289035428064568320970692304673817341489687556012032"
      ],
      "assetValues": [
        1
      ]
    },
    {
      "reservedAddress": "0xda27CD1Ea169A6822E025FBa0Ecf665d0Be23409",
      "assetIds": [
        "55464657044963196816950587289035428064568320970692304673817341489687556012032"
      ],
      "assetValues": [
        1
      ]
    },
    {
      "reservedAddress": "0x2860958883bF5d234Dc864CE178C4dd638bB9E4F",
      "assetIds": [
        "55464657044963196816950587289035428064568320970692304673817341489687556012032"
      ],
      "assetValues": [
        1
      ]
    },
    {
      "reservedAddress": "0xd5939A027bdC760b4Fee890A6E068AB0F23Eaf2E",
      "assetIds": [
        "55464657044963196816950587289035428064568320970692304673817341489687556012032"
      ],
      "assetValues": [
        1
      ]
    },
    {
      "reservedAddress": "0x0DaE29B86b3d0EC0dF526Fa59C3c15b99D83244f",
      "assetIds": [
        "55464657044963196816950587289035428064568320970692304673817341489687556012032"
      ],
      "assetValues": [
        1
      ]
    },
    {
      "reservedAddress": "0x8c635dCc54eC4B1545f05D5bAf732e4F7a0FD82b",
      "assetIds": [
        "55464657044963196816950587289035428064568320970692304673817341489687556012032"
      ],
      "assetValues": [
        1
      ]
    },
    {
      "reservedAddress": "0x8b4c795D64a79F355432518B81E3c6544324352C",
      "assetIds": [
        "55464657044963196816950587289035428064568320970692304673817341489687556012032"
      ],
      "assetValues": [
        1
      ]
    },
    {
      "reservedAddress": "0x47DbBfA07b4C06E07bD03Bf03409a53cF5770BaC",
      "assetIds": [
        "55464657044963196816950587289035428064568320970692304673817341489687556012032"
      ],
      "assetValues": [
        1
      ]
    },
    {
      "reservedAddress": "0xa2b43950d40ae647070B2153FDA5175A256E89d4",
      "assetIds": [
        "55464657044963196816950587289035428064568320970692304673817341489687556012032"
      ],
      "assetValues": [
        1
      ]
    },
    {
      "reservedAddress": "0xE845B9154C2EE7Fec63686D4F61a7Bf8818D5379",
      "assetIds": [
        "55464657044963196816950587289035428064568320970692304673817341489687556012032"
      ],
      "assetValues": [
        1
      ]
    },
    {
      "reservedAddress": "0xd991896A5b7BAD96A2db6229A9aC3A88F87d84b0",
      "assetIds": [
        "55464657044963196816950587289035428064568320970692304673817341489687556012032"
      ],
      "assetValues": [
        1
      ]
    },
    {
      "reservedAddress": "0x7Cb41B578437aC12207B204ECc6D054811951E87",
      "assetIds": [
        "55464657044963196816950587289035428064568320970692304673817341489687556012032"
      ],
      "assetValues": [
        1
      ]
    },
    {
      "reservedAddress": "0x45D03A9f6612a88492C6a5E265455e788D731861",
      "assetIds": [
        "55464657044963196816950587289035428064568320970692304673817341489687556012032"
      ],
      "assetValues": [
        1
      ]
    },
    {
      "reservedAddress": "0x83eb3eA39b02eA5cfBD25fD4729501EF03E4d8e2",
      "assetIds": [
        "55464657044963196816950587289035428064568320970692304673817341489687556012032"
      ],
      "assetValues": [
        1
      ]
    },
    {
      "reservedAddress": "0xfe1eb2B6cb2BA828351fCAb9D2b487bD632Bcba3",
      "assetIds": [
        "55464657044963196816950587289035428064568320970692304673817341489687556012032"
      ],
      "assetValues": [
        1
      ]
    },
    {
      "reservedAddress": "0x8575b1CFFcc924Ea8E10D6C7C46e9635e6392116",
      "assetIds": [
        "55464657044963196816950587289035428064568320970692304673817341489687556012032"
      ],
      "assetValues": [
        1
      ]
    },
    {
      "reservedAddress": "0xe3C2045ab284935170Ff942a34eAd2C587382e9F",
      "assetIds": [
        "55464657044963196816950587289035428064568320970692304673817341489687556012032"
      ],
      "assetValues": [
        1
      ]
    },
    {
      "reservedAddress": "0x5B0e303fdaC2f18509793aEc7E53676540F434C2",
      "assetIds": [
        "55464657044963196816950587289035428064568320970692304673817341489687556012032"
      ],
      "assetValues": [
        1
      ]
    },
    {
      "reservedAddress": "0xD35Fac4A50eec5E755EC5ca1f6925D3a2dB4259E",
      "assetIds": [
        "55464657044963196816950587289035428064568320970692304673817341489687556012032"
      ],
      "assetValues": [
        1
      ]
    },
    {
      "reservedAddress": "0xc63Ab5B5a800c738D0Af55008fab923A96F8f5dB",
      "assetIds": [
        "55464657044963196816950587289035428064568320970692304673817341489687556012032"
      ],
      "assetValues": [
        1
      ]
    },
    {
      "reservedAddress": "0x8e0e3D4a18AA44904ebda87C5B42545d1cEC2e5f",
      "assetIds": [
        "55464657044963196816950587289035428064568320970692304673817341489687556012032"
      ],
      "assetValues": [
        1
      ]
    },
    {
      "reservedAddress": "0x35724714D4482d84f474221014fD6F397485F5E8",
      "assetIds": [
        "55464657044963196816950587289035428064568320970692304673817341489687556012032"
      ],
      "assetValues": [
        1
      ]
    },
    {
      "reservedAddress": "0xc6AA9a8F6033885c21f83e5309C1907E1d5F6025",
      "assetIds": [
        "55464657044963196816950587289035428064568320970692304673817341489687556012032"
      ],
      "assetValues": [
        1
      ]
    },
    {
      "reservedAddress": "0x983A46e22a9dEe3Fd1EdF5D7024780FFD88C5bB8",
      "assetIds": [
        "55464657044963196816950587289035428064568320970692304673817341489687556012032"
      ],
      "assetValues": [
        1
      ]
    },
    {
      "reservedAddress": "0x5348afd049f60cE5D9af4792E1521e5F45fD711D",
      "assetIds": [
        "55464657044963196816950587289035428064568320970692304673817341489687556012032"
      ],
      "assetValues": [
        1
      ]
    },
    {
      "reservedAddress": "0x4D78961eFbBC27C897fa72C351Dd42E638134846",
      "assetIds": [
        "55464657044963196816950587289035428064568320970692304673817341489687556012032"
      ],
      "assetValues": [
        1
      ]
    },
    {
      "reservedAddress": "0xaD3575ef688F5158Ad8ec6cd2A847B9919BBC31B",
      "assetIds": [
        "55464657044963196816950587289035428064568320970692304673817341489687556012032"
      ],
      "assetValues": [
        1
      ]
    },
    {
      "reservedAddress": "0x8AFBAFf0e533F3E886A5ee2311d0e2255287359f",
      "assetIds": [
        "55464657044963196816950587289035428064568320970692304673817341489687556012032"
      ],
      "assetValues": [
        1
      ]
    },
    {
      "reservedAddress": "0x273cC9074A4d2BE617A00F51d3493Ee988e44014",
      "assetIds": [
        "55464657044963196816950587289035428064568320970692304673817341489687556012032"
      ],
      "assetValues": [
        1
      ]
    },
    {
      "reservedAddress": "0xBa1AbFBc2a00786215D239846F4781340748Ee77",
      "assetIds": [
        "55464657044963196816950587289035428064568320970692304673817341489687556012032"
      ],
      "assetValues": [
        1
      ]
    },
    {
      "reservedAddress": "0xc580866bd21102Eef2be03d380624979F6C1987d",
      "assetIds": [
        "55464657044963196816950587289035428064568320970692304673817341489687556012032"
      ],
      "assetValues": [
        1
      ]
    },
    {
      "reservedAddress": "0x195869480830f0C8DdD0330ac553fda04E177f6e",
      "assetIds": [
        "55464657044963196816950587289035428064568320970692304673817341489687556012032"
      ],
      "assetValues": [
        1
      ]
    },
    {
      "reservedAddress": "0x95202516791826a931b16E3C077DeE18F9287602",
      "assetIds": [
        "55464657044963196816950587289035428064568320970692304673817341489687556012032"
      ],
      "assetValues": [
        1
      ]
    },
    {
      "reservedAddress": "0x2118870f7c88642443207Af8B7D09fCEaA3748Eb",
      "assetIds": [
        "55464657044963196816950587289035428064568320970692304673817341489687556012032"
      ],
      "assetValues": [
        1
      ]
    },
    {
      "reservedAddress": "0x1D3662D1DfC5e7d67F6A77ef2CF05A344317B918",
      "assetIds": [
        "55464657044963196816950587289035428064568320970692304673817341489687556012032"
      ],
      "assetValues": [
        1
      ]
    },
    {
      "reservedAddress": "0x99c9efcbAAc4F58e373B3fbB1E0A52B5d328B06B",
      "assetIds": [
        "55464657044963196816950587289035428064568320970692304673817341489687556012032"
      ],
      "assetValues": [
        1
      ]
    },
    {
      "reservedAddress": "0xe6FbD00c3f2dB97b3025D4e1c2066656d10f476D",
      "assetIds": [
        "55464657044963196816950587289035428064568320970692304673817341489687556012032"
      ],
      "assetValues": [
        1
      ]
    },
    {
      "reservedAddress": "0x4DFa835E82a420db40D472cFFbfCF46c4E5E75da",
      "assetIds": [
        "55464657044963196816950587289035428064568320970692304673817341489687556012032"
      ],
      "assetValues": [
        1
      ]
    },
    {
      "reservedAddress": "0x1D8F8c656483fCe916a5DC7A25A1caE681f0a82C",
      "assetIds": [
        "55464657044963196816950587289035428064568320970692304673817341489687556012032"
      ],
      "assetValues": [
        1
      ]
    },
    {
      "reservedAddress": "0x1e37e35A2D6b8c062044365BCAe72E193c9FEC05",
      "assetIds": [
        "55464657044963196816950587289035428064568320970692304673817341489687556012032"
      ],
      "assetValues": [
        1
      ]
    },
    {
      "reservedAddress": "0x1a0e2d49e253EFE86620007Fc9fbA9E0E959FFed",
      "assetIds": [
        "55464657044963196816950587289035428064568320970692304673817341489687556012032"
      ],
      "assetValues": [
        1
      ]
    },
    {
      "reservedAddress": "0x0BBd1291bAaF298f9f1C041F96509C23ced2bF4F",
      "assetIds": [
        "55464657044963196816950587289035428064568320970692304673817341489687556012032"
      ],
      "assetValues": [
        1
      ]
    },
    {
      "reservedAddress": "0x6c73d8c28c1Cc4Ac75aDC6953a81f063C4Eac1ef",
      "assetIds": [
        "55464657044963196816950587289035428064568320970692304673817341489687556012032"
      ],
      "assetValues": [
        1
      ]
    },
    {
      "reservedAddress": "0x71CabF455aDA085676A4bA6247E63Fbb8465Bb17",
      "assetIds": [
        "55464657044963196816950587289035428064568320970692304673817341489687556012032"
      ],
      "assetValues": [
        1
      ]
    },
    {
      "reservedAddress": "0x0EAAdfb2D23dF847d4251132A7381F8151582520",
      "assetIds": [
        "55464657044963196816950587289035428064568320970692304673817341489687556012032"
      ],
      "assetValues": [
        1
      ]
    },
    {
      "reservedAddress": "0x9cC7BdDab9026b385973b9cD4F0c68DFe6D6fF0F",
      "assetIds": [
        "55464657044963196816950587289035428064568320970692304673817341489687556012032"
      ],
      "assetValues": [
        1
      ]
    },
    {
      "reservedAddress": "0x9C896165932328De2C9A7dc7da7f8872B1BE20C8",
      "assetIds": [
        "55464657044963196816950587289035428064568320970692304673817341489687556012032"
      ],
      "assetValues": [
        1
      ]
    },
    {
      "reservedAddress": "0xc94CE906B103bA7F7127cb5EdF59A8233a9087Eb",
      "assetIds": [
        "55464657044963196816950587289035428064568320970692304673817341489687556012032"
      ],
      "assetValues": [
        1
      ]
    },
    {
      "reservedAddress": "0xf1E5fc5E962ed861ba5ea3bF152d1880783ceF8D",
      "assetIds": [
        "55464657044963196816950587289035428064568320970692304673817341489687556012032"
      ],
      "assetValues": [
        1
      ]
    },
    {
      "reservedAddress": "0x1b6249f43D94565Ec290E42d9703a2AECdbE2f85",
      "assetIds": [
        "55464657044963196816950587289035428064568320970692304673817341489687556012032"
      ],
      "assetValues": [
        1
      ]
    },
    {
      "reservedAddress": "0x7EF449eEE029A136bF7D43bA1E1ba2350252B1D4",
      "assetIds": [
        "55464657044963196816950587289035428064568320970692304673817341489687556012032"
      ],
      "assetValues": [
        1
      ]
    },
    {
      "reservedAddress": "0x7465F6DCE804Da639BF54EA8c70ffE5Fae8F943a",
      "assetIds": [
        "55464657044963196816950587289035428064568320970692304673817341489687556012032"
      ],
      "assetValues": [
        1
      ]
    },
    {
      "reservedAddress": "0xa5Af7A63f14541454c53ECaCAE3661A6dE1a6D9E",
      "assetIds": [
        "55464657044963196816950587289035428064568320970692304673817341489687556012032"
      ],
      "assetValues": [
        1
      ]
    },
    {
      "reservedAddress": "0x7926ed26f751E17bEdd0207A87cdfC12a8fd9Fb6",
      "assetIds": [
        "55464657044963196816950587289035428064568320970692304673817341489687556012032"
      ],
      "assetValues": [
        1
      ]
    },
    {
      "reservedAddress": "0x82BEC92eA70AedE7132dDFBe10651ed5c5969BAF",
      "assetIds": [
        "55464657044963196816950587289035428064568320970692304673817341489687556012032"
      ],
      "assetValues": [
        1
      ]
    },
    {
      "reservedAddress": "0x8ba9166819B417d9d4AE9ec3E370bfDAFC58fEf8",
      "assetIds": [
        "55464657044963196816950587289035428064568320970692304673817341489687556012032"
      ],
      "assetValues": [
        1
      ]
    },
    {
      "reservedAddress": "0xF0B481823Ce1FD808F2196A2Af17239F0F458B25",
      "assetIds": [
        "55464657044963196816950587289035428064568320970692304673817341489687556012032"
      ],
      "assetValues": [
        1
      ]
    },
    {
      "reservedAddress": "0xBddAb3a782F155F8fc331bA526339cc9BA54C69e",
      "assetIds": [
        "55464657044963196816950587289035428064568320970692304673817341489687556012032"
      ],
      "assetValues": [
        1
      ]
    },
    {
      "reservedAddress": "0xE73008450235770dB68c759755c58A55922Cc409",
      "assetIds": [
        "55464657044963196816950587289035428064568320970692304673817341489687556012032"
      ],
      "assetValues": [
        1
      ]
    },
    {
      "reservedAddress": "0xecFcC43898B90409Dd5812790CA204425008719f",
      "assetIds": [
        "55464657044963196816950587289035428064568320970692304673817341489687556012032"
      ],
      "assetValues": [
        1
      ]
    },
    {
      "reservedAddress": "0x0b54B8B83DfF437B8C559eA58A3c0bF817C019d7",
      "assetIds": [
        "55464657044963196816950587289035428064568320970692304673817341489687556012032"
      ],
      "assetValues": [
        1
      ]
    },
    {
      "reservedAddress": "0xDB5d9F951FF51216fAC9f2f7C11472b0eBF0e1BF",
      "assetIds": [
        "55464657044963196816950587289035428064568320970692304673817341489687556012032"
      ],
      "assetValues": [
        1
      ]
    },
    {
      "reservedAddress": "0x796cFf43e8A5aE9E517BB16Dd3AaA47572fAf78a",
      "assetIds": [
        "55464657044963196816950587289035428064568320970692304673817341489687556012032"
      ],
      "assetValues": [
        1
      ]
    },
    {
      "reservedAddress": "0xC3D969E9DeB206B7A757f0d28c6a5Ee4dC2E1965",
      "assetIds": [
        "55464657044963196816950587289035428064568320970692304673817341489687556012032"
      ],
      "assetValues": [
        1
      ]
    },
    {
      "reservedAddress": "0x5536fddd4042dC7C3593AafA0aE0E1E9eDe7960D",
      "assetIds": [
        "55464657044963196816950587289035428064568320970692304673817341489687556012032"
      ],
      "assetValues": [
        1
      ]
    },
    {
      "reservedAddress": "0x7Fe6e77fd56cC301FfD88e3F9B6e475D3f1739CA",
      "assetIds": [
        "55464657044963196816950587289035428064568320970692304673817341489687556012032"
      ],
      "assetValues": [
        1
      ]
    },
    {
      "reservedAddress": "0x9207B27514F6FE86BFc342Fd0f3b5E89B91a31DA",
      "assetIds": [
        "55464657044963196816950587289035428064568320970692304673817341489687556012032"
      ],
      "assetValues": [
        1
      ]
    },
    {
      "reservedAddress": "0x32F1EF668ae62A10c000dBAE41909A7d9d8D4684",
      "assetIds": [
        "55464657044963196816950587289035428064568320970692304673817341489687556012032"
      ],
      "assetValues": [
        1
      ]
    },
    {
      "reservedAddress": "0xF52d7B195667808B4De8A69D2d3BF2B3Dd3dBe7B",
      "assetIds": [
        "55464657044963196816950587289035428064568320970692304673817341489687556012032"
      ],
      "assetValues": [
        1
      ]
    },
    {
      "reservedAddress": "0xe1B2eB2D9Ec3498bfE3b7be0cd93CDc4B6465846",
      "assetIds": [
        "55464657044963196816950587289035428064568320970692304673817341489687556012032"
      ],
      "assetValues": [
        1
      ]
    },
    {
      "reservedAddress": "0x6c1947F570626F079C17e87acdcDF92aB059c2Ac",
      "assetIds": [
        "55464657044963196816950587289035428064568320970692304673817341489687556012032"
      ],
      "assetValues": [
        1
      ]
    },
    {
      "reservedAddress": "0x49084997deCA41454767F98dF1E9378b0B036638",
      "assetIds": [
        "55464657044963196816950587289035428064568320970692304673817341489687556012032"
      ],
      "assetValues": [
        1
      ]
    },
    {
      "reservedAddress": "0x219Ee507e451cC2E37Ff7c450230160bEccC9438",
      "assetIds": [
        "55464657044963196816950587289035428064568320970692304673817341489687556012032"
      ],
      "assetValues": [
        1
      ]
    },
    {
      "reservedAddress": "0x58eF0Dd873f475C0FA6823439f1421871476304D",
      "assetIds": [
        "55464657044963196816950587289035428064568320970692304673817341489687556012032"
      ],
      "assetValues": [
        1
      ]
    },
    {
      "reservedAddress": "0x8511c6478dC1729471461a569d654D367E2E7ff8",
      "assetIds": [
        "55464657044963196816950587289035428064568320970692304673817341489687556012032"
      ],
      "assetValues": [
        1
      ]
    },
    {
      "reservedAddress": "0xbe75C0934A6Da8De6A8Ac92A851bD5dc9ce0b859",
      "assetIds": [
        "55464657044963196816950587289035428064568320970692304673817341489687556012032"
      ],
      "assetValues": [
        1
      ]
    },
    {
      "reservedAddress": "0xb871eb2156AE46eD57b3bC94b1E4953056f79B9C",
      "assetIds": [
        "55464657044963196816950587289035428064568320970692304673817341489687556012032"
      ],
      "assetValues": [
        1
      ]
    },
    {
      "reservedAddress": "0xB176A13bed112E5273B6Bec4CA78C5e2dB2B422C",
      "assetIds": [
        "55464657044963196816950587289035428064568320970692304673817341489687556012032"
      ],
      "assetValues": [
        1
      ]
    },
    {
      "reservedAddress": "0x6f4d369b6A398Aeb63dd44889D9a45ab96193d82",
      "assetIds": [
        "55464657044963196816950587289035428064568320970692304673817341489687556012032"
      ],
      "assetValues": [
        1
      ]
    },
    {
      "reservedAddress": "0xa18c3624e75F408fC7EF3bd1ac95Ad2A26295e64",
      "assetIds": [
        "55464657044963196816950587289035428064568320970692304673817341489687556012032"
      ],
      "assetValues": [
        1
      ]
    },
    {
      "reservedAddress": "0x35a21408340ad6f5Cf1eD2Fd25B6C9FB5164175C",
      "assetIds": [
        "55464657044963196816950587289035428064568320970692304673817341489687556012032"
      ],
      "assetValues": [
        1
      ]
    },
    {
      "reservedAddress": "0xAF5CCcCb45BB77F37ac0d7Aa8d4C39dBEEE9CE06",
      "assetIds": [
        "55464657044963196816950587289035428064568320970692304673817341489687556012032"
      ],
      "assetValues": [
        1
      ]
    },
    {
      "reservedAddress": "0xa9A8fB0feb2eE1802763FBAe6290380c268c748E",
      "assetIds": [
        "55464657044963196816950587289035428064568320970692304673817341489687556012032"
      ],
      "assetValues": [
        1
      ]
    },
    {
      "reservedAddress": "0x2Def4a735D0B839DBcfa7c53092dFBbB7DED35eE",
      "assetIds": [
        "55464657044963196816950587289035428064568320970692304673817341489687556012032"
      ],
      "assetValues": [
        1
      ]
    },
    {
      "reservedAddress": "0x1C22D02f35c9838651207F23a678f929eF86DAe0",
      "assetIds": [
        "55464657044963196816950587289035428064568320970692304673817341489687556012032"
      ],
      "assetValues": [
        1
      ]
    },
    {
      "reservedAddress": "0x9b3295b892007d73C1a36A28b15741e2976f83FB",
      "assetIds": [
        "55464657044963196816950587289035428064568320970692304673817341489687556012032"
      ],
      "assetValues": [
        1
      ]
    },
    {
      "reservedAddress": "0x9bc22189DE337668f067E46A290a452FECc8a16c",
      "assetIds": [
        "55464657044963196816950587289035428064568320970692304673817341489687556012032"
      ],
      "assetValues": [
        1
      ]
    },
    {
      "reservedAddress": "0x4fCDdb896117e51D4E3899d027C121111A54fB68",
      "assetIds": [
        "55464657044963196816950587289035428064568320970692304673817341489687556012032"
      ],
      "assetValues": [
        1
      ]
    },
    {
      "reservedAddress": "0x7CE437F8CeB6afCb10b5Bcebdf639c698fecB24e",
      "assetIds": [
        "55464657044963196816950587289035428064568320970692304673817341489687556012032"
      ],
      "assetValues": [
        1
      ]
    },
    {
      "reservedAddress": "0x8C6B6a6986065ce4fcbBccA3a0e05B357891b8Ee",
      "assetIds": [
        "55464657044963196816950587289035428064568320970692304673817341489687556012032"
      ],
      "assetValues": [
        1
      ]
    },
    {
      "reservedAddress": "0xeCf8997768cEcfE6C1ef824f390761fAFA75e91e",
      "assetIds": [
        "55464657044963196816950587289035428064568320970692304673817341489687556012032"
      ],
      "assetValues": [
        1
      ]
    },
    {
      "reservedAddress": "0x8F7A8cAc62130ce0b7e797173C05218f728DAf75",
      "assetIds": [
        "55464657044963196816950587289035428064568320970692304673817341489687556012032"
      ],
      "assetValues": [
        1
      ]
    },
    {
      "reservedAddress": "0x1a829432A86D486a594A0004b885a212b48DC9Bc",
      "assetIds": [
        "55464657044963196816950587289035428064568320970692304673817341489687556012032"
      ],
      "assetValues": [
        1
      ]
    },
    {
      "reservedAddress": "0x447cfb445E2D445a48CFB5eD4F3Dc696EAffAC4b",
      "assetIds": [
        "55464657044963196816950587289035428064568320970692304673817341489687556012032"
      ],
      "assetValues": [
        1
      ]
    },
    {
      "reservedAddress": "0x563B2F8D313D09ac8fa3159a5671eC58EBD0A10c",
      "assetIds": [
        "55464657044963196816950587289035428064568320970692304673817341489687556012032"
      ],
      "assetValues": [
        1
      ]
    },
    {
      "reservedAddress": "0x082639d66bd8b29428B39ebC5abC21c42e98359C",
      "assetIds": [
        "55464657044963196816950587289035428064568320970692304673817341489687556012032"
      ],
      "assetValues": [
        1
      ]
    },
    {
      "reservedAddress": "0xd004d28Df51c72C7079E2E57D98af7E3771a4428",
      "assetIds": [
        "55464657044963196816950587289035428064568320970692304673817341489687556012032"
      ],
      "assetValues": [
        1
      ]
    },
    {
      "reservedAddress": "0xcCc20b5755df1E0d7015AE0Db59D95A85247B11A",
      "assetIds": [
        "55464657044963196816950587289035428064568320970692304673817341489687556012032"
      ],
      "assetValues": [
        1
      ]
    },
    {
      "reservedAddress": "0xdE9355770629D481C629c6a521d3617F914E3B77",
      "assetIds": [
        "55464657044963196816950587289035428064568320970692304673817341489687556012032"
      ],
      "assetValues": [
        1
      ]
    },
    {
      "reservedAddress": "0xb09a342c145c558b139e2162efc99b14b5654f3b",
      "assetIds": [
        "55464657044963196816950587289035428064568320970692304673817341489687556012032"
      ],
      "assetValues": [
        1
      ]
    },
    {
      "reservedAddress": "0x79b3D024Ae05Aa9df38d5cCa19CF2B48bC7E0b62",
      "assetIds": [
        "55464657044963196816950587289035428064568320970692304673817341489687556012032"
      ],
      "assetValues": [
        1
      ]
    },
    {
      "reservedAddress": "0x49741a4F8F49411ACFC1Bf6E8FDCF2987A257a5D",
      "assetIds": [
        "55464657044963196816950587289035428064568320970692304673817341489687556012032"
      ],
      "assetValues": [
        1
      ]
    },
    {
      "reservedAddress": "0x888C3036a868a607Eb3a829c2Bf3FFa285E0F4a0",
      "assetIds": [
        "55464657044963196816950587289035428064568320970692304673817341489687556012032"
      ],
      "assetValues": [
        1
      ]
    },
    {
      "reservedAddress": "0xc46F27fE1dA5BF845E6d0cb80059C50daeBFEAe3",
      "assetIds": [
        "55464657044963196816950587289035428064568320970692304673817341489687556012032"
      ],
      "assetValues": [
        1
      ]
    },
    {
      "reservedAddress": "0xA336D1F8A4966b9D5d0CE6cC2322255F29d8e756",
      "assetIds": [
        "55464657044963196816950587289035428064568320970692304673817341489687556012032"
      ],
      "assetValues": [
        1
      ]
    },
    {
      "reservedAddress": "0x979c67A42Cf213C899e7e6ffb480920f8bDAa18C",
      "assetIds": [
        "55464657044963196816950587289035428064568320970692304673817341489687556012032"
      ],
      "assetValues": [
        1
      ]
    },
    {
      "reservedAddress": "0x238927F8B226701298eeAcd500Ab4150659ACCf8",
      "assetIds": [
        "55464657044963196816950587289035428064568320970692304673817341489687556012032"
      ],
      "assetValues": [
        1
      ]
    },
    {
      "reservedAddress": "0x1957A491cdc2D04A33b265b2Dc6908B24176fb6A",
      "assetIds": [
        "55464657044963196816950587289035428064568320970692304673817341489687556012032"
      ],
      "assetValues": [
        1
      ]
    },
    {
      "reservedAddress": "0x3670c3736379Ac2d5C821344FBF7D0202c34BBD1",
      "assetIds": [
        "55464657044963196816950587289035428064568320970692304673817341489687556012032"
      ],
      "assetValues": [
        1
      ]
    },
    {
      "reservedAddress": "0x4F62D4eee6712f6DbaD4C56f9bB872753e7CF0e3",
      "assetIds": [
        "55464657044963196816950587289035428064568320970692304673817341489687556012032"
      ],
      "assetValues": [
        1
      ]
    },
    {
      "reservedAddress": "0x8C36A13A53bd73A2a8De0F16db6b238223B21374",
      "assetIds": [
        "55464657044963196816950587289035428064568320970692304673817341489687556012032"
      ],
      "assetValues": [
        1
      ]
    },
    {
      "reservedAddress": "0x013f82eb7Ac039AeB2746d4CADc4ce6179C74E2d",
      "assetIds": [
        "55464657044963196816950587289035428064568320970692304673817341489687556012032"
      ],
      "assetValues": [
        1
      ]
    },
    {
      "reservedAddress": "0x600fBDB790834261A97952F12adA3bc906E83D34",
      "assetIds": [
        "55464657044963196816950587289035428064568320970692304673817341489687556012032"
      ],
      "assetValues": [
        1
      ]
    },
    {
      "reservedAddress": "0x3483C637571682A7082CAF80b846e4a7cB48A4cA",
      "assetIds": [
        "55464657044963196816950587289035428064568320970692304673817341489687556012032"
      ],
      "assetValues": [
        1
      ]
    },
    {
      "reservedAddress": "0x949383470265442FFba27b1c760C140aa65f9d23",
      "assetIds": [
        "55464657044963196816950587289035428064568320970692304673817341489687556012032"
      ],
      "assetValues": [
        1
      ]
    },
    {
      "reservedAddress": "0xcF2256b01B4154F42805217408820ED3a1B7B589",
      "assetIds": [
        "55464657044963196816950587289035428064568320970692304673817341489687556012032"
      ],
      "assetValues": [
        1
      ]
    },
    {
      "reservedAddress": "0xB33f92a8e101c73b9D8f5b3Cdc630A17C9e62b59",
      "assetIds": [
        "55464657044963196816950587289035428064568320970692304673817341489687556012032"
      ],
      "assetValues": [
        1
      ]
    },
    {
      "reservedAddress": "0x71E592b406D682F962623ebcEe3A13FF211BdA3B",
      "assetIds": [
        "55464657044963196816950587289035428064568320970692304673817341489687556012032"
      ],
      "assetValues": [
        1
      ]
    },
    {
      "reservedAddress": "0x5A1954BF1c9e2A4245Eae1107c12231a3337cf6f",
      "assetIds": [
        "55464657044963196816950587289035428064568320970692304673817341489687556012032"
      ],
      "assetValues": [
        1
      ]
    },
    {
      "reservedAddress": "0x73C89b572bEA3b40ee07a727610882D0bE0da851",
      "assetIds": [
        "55464657044963196816950587289035428064568320970692304673817341489687556012032"
      ],
      "assetValues": [
        1
      ]
    },
    {
      "reservedAddress": "0xbE956Fc352fE7B22cbC91596B85101d0b49AC6b8",
      "assetIds": [
        "55464657044963196816950587289035428064568320970692304673817341489687556012032"
      ],
      "assetValues": [
        1
      ]
    },
    {
      "reservedAddress": "0xF155296c100A4035cB9b1901e39Ef0F2d1ee99c2",
      "assetIds": [
        "55464657044963196816950587289035428064568320970692304673817341489687556012032"
      ],
      "assetValues": [
        1
      ]
    },
    {
      "reservedAddress": "0xeCd54bE30CDa9ca1F2DBd18E1ffB2331cD534e92",
      "assetIds": [
        "55464657044963196816950587289035428064568320970692304673817341489687556012032"
      ],
      "assetValues": [
        1
      ]
    },
    {
      "reservedAddress": "0x6BdB55a069DF1aD48a76D4378b8505CC4b01aAEA",
      "assetIds": [
        "55464657044963196816950587289035428064568320970692304673817341489687556012032"
      ],
      "assetValues": [
        1
      ]
    },
    {
      "reservedAddress": "0x3D957FCEb9FD3b897B03b756a7bcac0D44836f4C",
      "assetIds": [
        "55464657044963196816950587289035428064568320970692304673817341489687556012032"
      ],
      "assetValues": [
        1
      ]
    },
    {
      "reservedAddress": "0x1734ed2675cdcee41848a2cf3d6022ff0abee64a",
      "assetIds": [
        "55464657044963196816950587289035428064568320970692304673817341489687556012032"
      ],
      "assetValues": [
        1
      ]
    },
    {
      "reservedAddress": "0xaAa3186f1549F02609A170E06FA870b4E672a482",
      "assetIds": [
        "55464657044963196816950587289035428064568320970692304673817341489687556012032"
      ],
      "assetValues": [
        1
      ]
    },
    {
      "reservedAddress": "0xe4da2f2aa1Dd0d906DF0Fd0745e6Ba9165eA9C2C",
      "assetIds": [
        "55464657044963196816950587289035428064568320970692304673817341489687556012032"
      ],
      "assetValues": [
        1
      ]
    },
    {
      "reservedAddress": "0xEcB3fd73406C666a26195a6C8aeE99d64D1Fb4Ae",
      "assetIds": [
        "55464657044963196816950587289035428064568320970692304673817341489687556012032"
      ],
      "assetValues": [
        1
      ]
    },
    {
      "reservedAddress": "0x5c251C0CA694525F9fef65Cca2867dF99A867820",
      "assetIds": [
        "55464657044963196816950587289035428064568320970692304673817341489687556012032"
      ],
      "assetValues": [
        1
      ]
    },
    {
      "reservedAddress": "0xC6e335B3F0a4dBc2B8418D4Cd90CB8881e77284d",
      "assetIds": [
        "55464657044963196816950587289035428064568320970692304673817341489687556012032"
      ],
      "assetValues": [
        1
      ]
    },
    {
      "reservedAddress": "0x5DD7a46C473b3cA2BE35024037BdC1555623632B",
      "assetIds": [
        "55464657044963196816950587289035428064568320970692304673817341489687556012032"
      ],
      "assetValues": [
        1
      ]
    },
    {
      "reservedAddress": "0xf0CB0535986832762568D06499777cf69c18E559",
      "assetIds": [
        "55464657044963196816950587289035428064568320970692304673817341489687556012032"
      ],
      "assetValues": [
        1
      ]
    },
    {
      "reservedAddress": "0x5AE3c027451b7528554465e6432CaB8Af68964F7",
      "assetIds": [
        "55464657044963196816950587289035428064568320970692304673817341489687556012032"
      ],
      "assetValues": [
        1
      ]
    },
    {
      "reservedAddress": "0xE18F46b38Ad88Db666080B11BCe8e10bf0146A06",
      "assetIds": [
        "55464657044963196816950587289035428064568320970692304673817341489687556012032"
      ],
      "assetValues": [
        1
      ]
    },
    {
      "reservedAddress": "0x0C99759a185fFEE9efc63456aF8C0F1305f7397c",
      "assetIds": [
        "55464657044963196816950587289035428064568320970692304673817341489687556012032"
      ],
      "assetValues": [
        1
      ]
    },
    {
      "reservedAddress": "0x928422Cc9d124545C79062B7cb16C2398b232033",
      "assetIds": [
        "55464657044963196816950587289035428064568320970692304673817341489687556012032"
      ],
      "assetValues": [
        1
      ]
    },
    {
      "reservedAddress": "0xa82b3c2ba2d82eb395248a8d53edfab21941f8cf",
      "assetIds": [
        "55464657044963196816950587289035428064568320970692304673817341489687556012032"
      ],
      "assetValues": [
        1
      ]
    },
    {
      "reservedAddress": "0xd874439CB490B39d77208e60bdB27Ad2A14Fda55",
      "assetIds": [
        "55464657044963196816950587289035428064568320970692304673817341489687556012032"
      ],
      "assetValues": [
        1
      ]
    },
    {
      "reservedAddress": "0x2D04FB4F94328E2DD539f820622720E236D27525",
      "assetIds": [
        "55464657044963196816950587289035428064568320970692304673817341489687556012032"
      ],
      "assetValues": [
        1
      ]
    },
    {
      "reservedAddress": "0x999334f9Cb4Ee4c158c493CBBd212ac581A20897",
      "assetIds": [
        "55464657044963196816950587289035428064568320970692304673817341489687556012032"
      ],
      "assetValues": [
        1
      ]
    },
    {
      "reservedAddress": "0x448a21f6688b364674bf29c77eA4c2BfB7FfEBA4",
      "assetIds": [
        "55464657044963196816950587289035428064568320970692304673817341489687556012032"
      ],
      "assetValues": [
        1
      ]
    },
    {
      "reservedAddress": "0x4Ef47ccDa63aA53E70407FBEEE8835af54F6f628",
      "assetIds": [
        "55464657044963196816950587289035428064568320970692304673817341489687556012032"
      ],
      "assetValues": [
        1
      ]
    },
    {
      "reservedAddress": "0x4d455322889D4b95ff9D6e45F439Fc0f73c705e1",
      "assetIds": [
        "55464657044963196816950587289035428064568320970692304673817341489687556012032"
      ],
      "assetValues": [
        1
      ]
    },
    {
      "reservedAddress": "0x1dFD1eb6f71272731A594588A29c6Ed1C9faEf6c",
      "assetIds": [
        "55464657044963196816950587289035428064568320970692304673817341489687556012032"
      ],
      "assetValues": [
        1
      ]
    },
    {
      "reservedAddress": "0xdb278189e797CD43580E5ad4A1BfCBfd28478FD7",
      "assetIds": [
        "55464657044963196816950587289035428064568320970692304673817341489687556012032"
      ],
      "assetValues": [
        1
      ]
    },
    {
      "reservedAddress": "0xDC3d5C2145cCA82d7324c27Ca3E9dcAFFB13cbe7",
      "assetIds": [
        "55464657044963196816950587289035428064568320970692304673817341489687556012032"
      ],
      "assetValues": [
        1
      ]
    },
    {
      "reservedAddress": "0x48AE5F212ae8Bfd7Cbe36b957f8A1ff4e834275F",
      "assetIds": [
        "55464657044963196816950587289035428064568320970692304673817341489687556012032"
      ],
      "assetValues": [
        1
      ]
    },
    {
      "reservedAddress": "0x75830c8A02E48C1B7Ded31D8f2D98A488b8893aB",
      "assetIds": [
        "55464657044963196816950587289035428064568320970692304673817341489687556012032"
      ],
      "assetValues": [
        1
      ]
    },
    {
      "reservedAddress": "0x5B4Dd9A2e398c5573Bd1F337467dFCf45079617a",
      "assetIds": [
        "55464657044963196816950587289035428064568320970692304673817341489687556012032"
      ],
      "assetValues": [
        1
      ]
    },
    {
      "reservedAddress": "0xc8Bc5dA3bD14e750F374A09DbAE8289C9697663d",
      "assetIds": [
        "55464657044963196816950587289035428064568320970692304673817341489687556012032"
      ],
      "assetValues": [
        1
      ]
    },
    {
      "reservedAddress": "0x092Fa9a98c1D99aD8fb6c860C8a25352076da8E3",
      "assetIds": [
        "55464657044963196816950587289035428064568320970692304673817341489687556012032"
      ],
      "assetValues": [
        1
      ]
    },
    {
      "reservedAddress": "0x9c744A7e56078cD79b3a0B82B3988E7B0a9bd3D0",
      "assetIds": [
        "55464657044963196816950587289035428064568320970692304673817341489687556012032"
      ],
      "assetValues": [
        1
      ]
    },
    {
      "reservedAddress": "0xd5bB75096337F16E8922cbeECEE872AAB5bb15c5",
      "assetIds": [
        "55464657044963196816950587289035428064568320970692304673817341489687556012032"
      ],
      "assetValues": [
        1
      ]
    },
    {
      "reservedAddress": "0xe5713ca1d1b5CBC83c25B5AF8A090B5CFC092dA1",
      "assetIds": [
        "55464657044963196816950587289035428064568320970692304673817341489687556012032"
      ],
      "assetValues": [
        1
      ]
    },
    {
      "reservedAddress": "0x18a59da152b2824fcf8b873b9bad4cddb210c03d",
      "assetIds": [
        "55464657044963196816950587289035428064568320970692304673817341489687556012032"
      ],
      "assetValues": [
        1
      ]
    },
    {
      "reservedAddress": "0x40563973a8Cf0C4e886186f84A9c3934afCE6414",
      "assetIds": [
        "55464657044963196816950587289035428064568320970692304673817341489687556012032"
      ],
      "assetValues": [
        1
      ]
    },
    {
      "reservedAddress": "0xBe9a11A8525c8cfe1970095e0e22a8c752Ab2247",
      "assetIds": [
        "55464657044963196816950587289035428064568320970692304673817341489687556012032"
      ],
      "assetValues": [
        1
      ]
    },
    {
      "reservedAddress": "0x1cC33bEA90ACfFaB0c104065002bc43aAa02e627",
      "assetIds": [
        "55464657044963196816950587289035428064568320970692304673817341489687556012032"
      ],
      "assetValues": [
        1
      ]
    },
    {
      "reservedAddress": "0x2B250103aA1ee27dB6e2e03EDA585cCAC4a92ef7",
      "assetIds": [
        "55464657044963196816950587289035428064568320970692304673817341489687556012032"
      ],
      "assetValues": [
        1
      ]
    },
    {
      "reservedAddress": "0xE1e20964542e740e496FD5e87e9dBA77A073ff6d",
      "assetIds": [
        "55464657044963196816950587289035428064568320970692304673817341489687556012032"
      ],
      "assetValues": [
        1
      ]
    },
    {
      "reservedAddress": "0x019669BEe0432c641749535dE005c56439132d14",
      "assetIds": [
        "55464657044963196816950587289035428064568320970692304673817341489687556012032"
      ],
      "assetValues": [
        1
      ]
    },
    {
      "reservedAddress": "0x8271a04582cBd21d05501459f3a3d8d6189A50ec",
      "assetIds": [
        "55464657044963196816950587289035428064568320970692304673817341489687556012032"
      ],
      "assetValues": [
        1
      ]
    },
    {
      "reservedAddress": "0x209FdC8c4E5BB94Cbac734121655DE2A8604Df3D",
      "assetIds": [
        "55464657044963196816950587289035428064568320970692304673817341489687556012032"
      ],
      "assetValues": [
        1
      ]
    },
    {
      "reservedAddress": "0xe40df1b5cf54E3C6e3fD1c4ce51bB3945628607f",
      "assetIds": [
        "55464657044963196816950587289035428064568320970692304673817341489687556012032"
      ],
      "assetValues": [
        1
      ]
    },
    {
      "reservedAddress": "0xE9d375F8A1547Df153f1D0290Ce7b3abfaF7775E",
      "assetIds": [
        "55464657044963196816950587289035428064568320970692304673817341489687556012032"
      ],
      "assetValues": [
        1
      ]
    },
    {
      "reservedAddress": "0xd5dcc11989916ff96b6aC4FF39244cA77686E603",
      "assetIds": [
        "55464657044963196816950587289035428064568320970692304673817341489687556012032"
      ],
      "assetValues": [
        1
      ]
    },
    {
      "reservedAddress": "0xDa2925850e8Ef33df28435b17e67D4348696cB7b",
      "assetIds": [
        "55464657044963196816950587289035428064568320970692304673817341489687556012032"
      ],
      "assetValues": [
        1
      ]
    },
    {
      "reservedAddress": "0x3e90186eC87659aD7C81F0984075CC9b3D5e387C",
      "assetIds": [
        "55464657044963196816950587289035428064568320970692304673817341489687556012032"
      ],
      "assetValues": [
        1
      ]
    },
    {
      "reservedAddress": "0x9533bb33890D058dAFa5FDE36147490376dCaD96",
      "assetIds": [
        "55464657044963196816950587289035428064568320970692304673817341489687556012032"
      ],
      "assetValues": [
        1
      ]
    },
    {
      "reservedAddress": "0xED5442209baB16FFfc738202b394453a7Cde0E55",
      "assetIds": [
        "55464657044963196816950587289035428064568320970692304673817341489687556012032"
      ],
      "assetValues": [
        1
      ]
    },
    {
      "reservedAddress": "0x4933F4d60ED6c3d8FB104De8B13eB9664a4381F8",
      "assetIds": [
        "55464657044963196816950587289035428064568320970692304673817341489687556012032"
      ],
      "assetValues": [
        1
      ]
    },
    {
      "reservedAddress": "0x944e1846A144f3813ECA449e0234730E28aAbf74",
      "assetIds": [
        "55464657044963196816950587289035428064568320970692304673817341489687556012032"
      ],
      "assetValues": [
        1
      ]
    },
    {
      "reservedAddress": "0xF70412A1Fe926B77E83521A886eF5726D78E8Cef",
      "assetIds": [
        "55464657044963196816950587289035428064568320970692304673817341489687556012032"
      ],
      "assetValues": [
        1
      ]
    },
    {
      "reservedAddress": "0x61799De902eDBeC73Efe8860100690b22ba26FA0",
      "assetIds": [
        "55464657044963196816950587289035428064568320970692304673817341489687556012032"
      ],
      "assetValues": [
        1
      ]
    },
    {
      "reservedAddress": "0x7AeF66448b47Da4cFd7B427F872c83428a09f039",
      "assetIds": [
        "55464657044963196816950587289035428064568320970692304673817341489687556012032"
      ],
      "assetValues": [
        1
      ]
    },
    {
      "reservedAddress": "0xAe730070A2b80E8a3F7Ac937f90c3e2f16b5b649",
      "assetIds": [
        "55464657044963196816950587289035428064568320970692304673817341489687556012032"
      ],
      "assetValues": [
        1
      ]
    },
    {
      "reservedAddress": "0x6858C3ED70e40279E60592f55C680243434B75d6",
      "assetIds": [
        "55464657044963196816950587289035428064568320970692304673817341489687556012032"
      ],
      "assetValues": [
        1
      ]
    },
    {
      "reservedAddress": "0x38F9c54a53085cf0d6a11d415B9f8d1489e167e6",
      "assetIds": [
        "55464657044963196816950587289035428064568320970692304673817341489687556012032"
      ],
      "assetValues": [
        1
      ]
    },
    {
      "reservedAddress": "0x7c75Cdd2cbcae5B40261371AFe9F703c6c45CFB6",
      "assetIds": [
        "55464657044963196816950587289035428064568320970692304673817341489687556012032"
      ],
      "assetValues": [
        1
      ]
    },
    {
      "reservedAddress": "0x04dc0f2eE3Bb3075d1354F89f6753b003bFF9ea6",
      "assetIds": [
        "55464657044963196816950587289035428064568320970692304673817341489687556012032"
      ],
      "assetValues": [
        1
      ]
    },
    {
      "reservedAddress": "0x10828C64a9dd8e957e7B46ec40A78275E79433bA",
      "assetIds": [
        "55464657044963196816950587289035428064568320970692304673817341489687556012032"
      ],
      "assetValues": [
        1
      ]
    },
    {
      "reservedAddress": "0xD926Cb6714326007Da085166e9b3513dCa7Ec971",
      "assetIds": [
        "55464657044963196816950587289035428064568320970692304673817341489687556012032"
      ],
      "assetValues": [
        1
      ]
    },
    {
      "reservedAddress": "0x404f41C25866B1F5717C029d75650Ad739DC3C77",
      "assetIds": [
        "55464657044963196816950587289035428064568320970692304673817341489687556012032"
      ],
      "assetValues": [
        1
      ]
    },
    {
      "reservedAddress": "0x45D6D753D3d56Ab5349C494AC134C36f27563Bd9",
      "assetIds": [
        "55464657044963196816950587289035428064568320970692304673817341489687556012032"
      ],
      "assetValues": [
        1
      ]
    },
    {
      "reservedAddress": "0xC2933176a9be2116721A2681e042111Ad22F8266",
      "assetIds": [
        "55464657044963196816950587289035428064568320970692304673817341489687556012032"
      ],
      "assetValues": [
        1
      ]
    },
    {
      "reservedAddress": "0x850b304ce05E832A55e6b1aAd27f0A60A52Aa94d",
      "assetIds": [
        "55464657044963196816950587289035428064568320970692304673817341489687556012032"
      ],
      "assetValues": [
        1
      ]
    },
    {
      "reservedAddress": "0xd5F6A94dF3e9D77227039bAE39fE10303dfC53A1",
      "assetIds": [
        "55464657044963196816950587289035428064568320970692304673817341489687556012032"
      ],
      "assetValues": [
        1
      ]
    },
    {
      "reservedAddress": "0xDa1F0D1BD397D9CEfa5801e9690e3EDd4Ece4c6C",
      "assetIds": [
        "55464657044963196816950587289035428064568320970692304673817341489687556012032"
      ],
      "assetValues": [
        1
      ]
    },
    {
      "reservedAddress": "0x2804F2b1A4144Ad979572aeD2DCc8958d2859228",
      "assetIds": [
        "55464657044963196816950587289035428064568320970692304673817341489687556012032"
      ],
      "assetValues": [
        1
      ]
    },
    {
      "reservedAddress": "0xD8cB6F473CA496BF4e78f0f9891816a1a1e28B2C",
      "assetIds": [
        "55464657044963196816950587289035428064568320970692304673817341489687556012032"
      ],
      "assetValues": [
        1
      ]
    },
    {
      "reservedAddress": "0x7FdFB631B92466e7508cC879419FD62809927F23",
      "assetIds": [
        "55464657044963196816950587289035428064568320970692304673817341489687556012032"
      ],
      "assetValues": [
        1
      ]
    },
    {
      "reservedAddress": "0x48E492c0acC7F277C0f0a8335a35Aa33cAA03652",
      "assetIds": [
        "55464657044963196816950587289035428064568320970692304673817341489687556012032"
      ],
      "assetValues": [
        1
      ]
    },
    {
      "reservedAddress": "0xd62657F86bd41E58edB05B0E472eDD88214D7aC7",
      "assetIds": [
        "55464657044963196816950587289035428064568320970692304673817341489687556012032"
      ],
      "assetValues": [
        1
      ]
    },
    {
      "reservedAddress": "0x48c3f65478B7c78F41D5b4D18Cf628871cc47419",
      "assetIds": [
        "55464657044963196816950587289035428064568320970692304673817341489687556012032"
      ],
      "assetValues": [
        1
      ]
    },
    {
      "reservedAddress": "0x934eA46B057338F77087f075F57A60AD8e16FA4D",
      "assetIds": [
        "55464657044963196816950587289035428064568320970692304673817341489687556012032"
      ],
      "assetValues": [
        1
      ]
    },
    {
      "reservedAddress": "0x6B2114526807bA81f4075a6925792C5Fb7392FdF",
      "assetIds": [
        "55464657044963196816950587289035428064568320970692304673817341489687556012032"
      ],
      "assetValues": [
        1
      ]
    },
    {
      "reservedAddress": "0x9517665f7573228EFf9a96eee0996a96FD8A6D72",
      "assetIds": [
        "55464657044963196816950587289035428064568320970692304673817341489687556012032"
      ],
      "assetValues": [
        1
      ]
    },
    {
      "reservedAddress": "0x4f869d21569AE8f3ecA4aEe5Fa91d93c9cADFDbD",
      "assetIds": [
        "55464657044963196816950587289035428064568320970692304673817341489687556012032"
      ],
      "assetValues": [
        1
      ]
    },
    {
      "reservedAddress": "0xbDF1c3a071517045000268eeDbD5055e4D30416F",
      "assetIds": [
        "55464657044963196816950587289035428064568320970692304673817341489687556012032"
      ],
      "assetValues": [
        1
      ]
    },
    {
      "reservedAddress": "0xE34D16DAbc3d18711b6F806149F31a1955627bb4",
      "assetIds": [
        "55464657044963196816950587289035428064568320970692304673817341489687556012032"
      ],
      "assetValues": [
        1
      ]
    },
    {
      "reservedAddress": "0x423B0E580a559ccd877475296c9B446138076D59",
      "assetIds": [
        "55464657044963196816950587289035428064568320970692304673817341489687556012032"
      ],
      "assetValues": [
        1
      ]
    },
    {
      "reservedAddress": "0xa89f7E1b72357A955549c39bf94BA3F78036Aab5",
      "assetIds": [
        "55464657044963196816950587289035428064568320970692304673817341489687556012032"
      ],
      "assetValues": [
        1
      ]
    },
    {
      "reservedAddress": "0x65c709E291be59c8371Fb581B366d04aD6B7459f",
      "assetIds": [
        "55464657044963196816950587289035428064568320970692304673817341489687556012032"
      ],
      "assetValues": [
        1
      ]
    },
    {
      "reservedAddress": "0x8EA40a883139A3C8682752fd7327A676D237531D",
      "assetIds": [
        "55464657044963196816950587289035428064568320970692304673817341489687556012032"
      ],
      "assetValues": [
        1
      ]
    },
    {
      "reservedAddress": "0x4E0A9B846175f56c9226e55edfb495AD7047495c",
      "assetIds": [
        "55464657044963196816950587289035428064568320970692304673817341489687556012032"
      ],
      "assetValues": [
        1
      ]
    },
    {
      "reservedAddress": "0xD3374308f4370c25Bac807862d5DC83CcF9Cd243",
      "assetIds": [
        "55464657044963196816950587289035428064568320970692304673817341489687556012032"
      ],
      "assetValues": [
        1
      ]
    },
    {
      "reservedAddress": "0x86AEb14c3CaD98Df23bD13C3d39E53Ef8e3674fb",
      "assetIds": [
        "55464657044963196816950587289035428064568320970692304673817341489687556012032"
      ],
      "assetValues": [
        1
      ]
    },
    {
      "reservedAddress": "0x44B1e7F3331CBC0cC8cA9796e25a50c9CC4E715E",
      "assetIds": [
        "55464657044963196816950587289035428064568320970692304673817341489687556012032"
      ],
      "assetValues": [
        1
      ]
    },
    {
      "reservedAddress": "0x3A3768bB564000B764c9C7c5197f1B5ebb8ed0a3",
      "assetIds": [
        "55464657044963196816950587289035428064568320970692304673817341489687556012032"
      ],
      "assetValues": [
        1
      ]
    },
    {
      "reservedAddress": "0xcEe58936456A059Eb44865D99Da1bB5164aD56A0",
      "assetIds": [
        "55464657044963196816950587289035428064568320970692304673817341489687556012032"
      ],
      "assetValues": [
        1
      ]
    },
    {
      "reservedAddress": "0x6f718e7ac6Ac72a0c030b26BA58078d8DbCD02Ae",
      "assetIds": [
        "55464657044963196816950587289035428064568320970692304673817341489687556012032"
      ],
      "assetValues": [
        1
      ]
    },
    {
      "reservedAddress": "0xAE89ad4f7D778503eCE0Ad818Ebc00b204F8119C",
      "assetIds": [
        "55464657044963196816950587289035428064568320970692304673817341489687556012032"
      ],
      "assetValues": [
        1
      ]
    },
    {
      "reservedAddress": "0x03FCC1ab180Fb450a642Ca901678b63B9E1426EE",
      "assetIds": [
        "55464657044963196816950587289035428064568320970692304673817341489687556012032"
      ],
      "assetValues": [
        1
      ]
    },
    {
      "reservedAddress": "0xBEbeD6E92e4f9D1baF7aB0E8a8cF99Af466b8C65",
      "assetIds": [
        "55464657044963196816950587289035428064568320970692304673817341489687556012032"
      ],
      "assetValues": [
        1
      ]
    },
    {
      "reservedAddress": "0x8d4873dfBBD05034B75d2879db8fF1937b55E793",
      "assetIds": [
        "55464657044963196816950587289035428064568320970692304673817341489687556012032"
      ],
      "assetValues": [
        1
      ]
    },
    {
      "reservedAddress": "0x40467cBB444f9bb8bA82b33eB4f5988E9fad4f57",
      "assetIds": [
        "55464657044963196816950587289035428064568320970692304673817341489687556012032"
      ],
      "assetValues": [
        1
      ]
    },
    {
      "reservedAddress": "0xb01305542F55137E5FDe9286F1c38d16Cb90Dcc2",
      "assetIds": [
        "55464657044963196816950587289035428064568320970692304673817341489687556012032"
      ],
      "assetValues": [
        1
      ]
    },
    {
      "reservedAddress": "0x1eD5914bBEe8FB735F111001C1B7Df82380F00F9",
      "assetIds": [
        "55464657044963196816950587289035428064568320970692304673817341489687556012032"
      ],
      "assetValues": [
        1
      ]
    },
    {
      "reservedAddress": "0xA8e55e9F3078156a5e7C1722d0B5D9bb59893502",
      "assetIds": [
        "55464657044963196816950587289035428064568320970692304673817341489687556012032"
      ],
      "assetValues": [
        1
      ]
    },
    {
      "reservedAddress": "0xFfBc9D9534Be444a2f745532cEA6553841f68Dc3",
      "assetIds": [
        "55464657044963196816950587289035428064568320970692304673817341489687556012032"
      ],
      "assetValues": [
        1
      ]
    },
    {
      "reservedAddress": "0xbDFc746C8edF82D7f09C047524115FD646C6A42E",
      "assetIds": [
        "55464657044963196816950587289035428064568320970692304673817341489687556012032"
      ],
      "assetValues": [
        1
      ]
    },
    {
      "reservedAddress": "0xDAF9D54ddeECec935fD9e93E2AB6301EC41c1dBC",
      "assetIds": [
        "55464657044963196816950587289035428064568320970692304673817341489687556012032"
      ],
      "assetValues": [
        1
      ]
    },
    {
      "reservedAddress": "0x18BA464C7575A9221C79FD07AE543542E8FD3292",
      "assetIds": [
        "55464657044963196816950587289035428064568320970692304673817341489687556012032"
      ],
      "assetValues": [
        1
      ]
    },
    {
      "reservedAddress": "0x8d1454D667CF348f1Bf1677d9A76F73d9e40e1c8",
      "assetIds": [
        "55464657044963196816950587289035428064568320970692304673817341489687556012032"
      ],
      "assetValues": [
        1
      ]
    },
    {
      "reservedAddress": "0xffA50fb0B7CE60a9F7aBB9bffCEf4B877211A510",
      "assetIds": [
        "55464657044963196816950587289035428064568320970692304673817341489687556012032"
      ],
      "assetValues": [
        1
      ]
    },
    {
      "reservedAddress": "0xf9596a3adE81d677678319ba997d8a0E389aE5f9",
      "assetIds": [
        "55464657044963196816950587289035428064568320970692304673817341489687556012032"
      ],
      "assetValues": [
        1
      ]
    },
    {
      "reservedAddress": "0xBD03f328bb4F6705Db7263BA697ABfe8Dae6cd97",
      "assetIds": [
        "55464657044963196816950587289035428064568320970692304673817341489687556012032"
      ],
      "assetValues": [
        1
      ]
    },
    {
      "reservedAddress": "0xe3f4a1008F40485E706fcD8fDa098207c73241bF",
      "assetIds": [
        "55464657044963196816950587289035428064568320970692304673817341489687556012032"
      ],
      "assetValues": [
        1
      ]
    },
    {
      "reservedAddress": "0x366246B46440A86DE8B86020a4f45b56a0662889",
      "assetIds": [
        "55464657044963196816950587289035428064568320970692304673817341489687556012032"
      ],
      "assetValues": [
        1
      ]
    },
    {
      "reservedAddress": "0xFAb738889b445D589f85727C05fCb16C935B19BE",
      "assetIds": [
        "55464657044963196816950587289035428064568320970692304673817341489687556012032"
      ],
      "assetValues": [
        1
      ]
    },
    {
      "reservedAddress": "0xD749D6b80C1f623d05FE54DF5c1A35cCffC0f69b",
      "assetIds": [
        "55464657044963196816950587289035428064568320970692304673817341489687556012032"
      ],
      "assetValues": [
        1
      ]
    },
    {
      "reservedAddress": "0x91f0dcE5Dc7710f71b021a0D4E97401dcAAa514b",
      "assetIds": [
        "55464657044963196816950587289035428064568320970692304673817341489687556012032"
      ],
      "assetValues": [
        1
      ]
    },
    {
      "reservedAddress": "0x39A0259Fe787f7b3Fa3f5328E53d945C2F5fFB33",
      "assetIds": [
        "55464657044963196816950587289035428064568320970692304673817341489687556012032"
      ],
      "assetValues": [
        1
      ]
    },
    {
      "reservedAddress": "0xfed257209796EeC486f2A1c0AF1B330857E463c4",
      "assetIds": [
        "55464657044963196816950587289035428064568320970692304673817341489687556012032"
      ],
      "assetValues": [
        1
      ]
    },
    {
      "reservedAddress": "0x48bf414F56d43847c1A6E4514ab4F6256FebF7f6",
      "assetIds": [
        "55464657044963196816950587289035428064568320970692304673817341489687556012032"
      ],
      "assetValues": [
        1
      ]
    },
    {
      "reservedAddress": "0xc526a8996Fa8aB0DEF1758d36778e51a3940b7c2",
      "assetIds": [
        "55464657044963196816950587289035428064568320970692304673817341489687556012032"
      ],
      "assetValues": [
        1
      ]
    },
    {
      "reservedAddress": "0x281b6bC9E7b0068EdF42b8E6e35FBF232d64f90d",
      "assetIds": [
        "55464657044963196816950587289035428064568320970692304673817341489687556012032"
      ],
      "assetValues": [
        1
      ]
    },
    {
      "reservedAddress": "0xA61FB1DE92ce6B961E6825DB8c5538c6B10452b8",
      "assetIds": [
        "55464657044963196816950587289035428064568320970692304673817341489687556012032"
      ],
      "assetValues": [
        1
      ]
    },
    {
      "reservedAddress": "0x6a1Be3C865bd537c988cFF02FC56f9Fb3ef25Cec",
      "assetIds": [
        "55464657044963196816950587289035428064568320970692304673817341489687556012032"
      ],
      "assetValues": [
        1
      ]
    },
    {
      "reservedAddress": "0x87CeE048669d58006C7C7fbC2a9fF2940BE07dBb",
      "assetIds": [
        "55464657044963196816950587289035428064568320970692304673817341489687556012032"
      ],
      "assetValues": [
        1
      ]
    },
    {
      "reservedAddress": "0xa24c4efbDc465823F67e14282b6F6F3B0ed156AC",
      "assetIds": [
        "55464657044963196816950587289035428064568320970692304673817341489687556012032"
      ],
      "assetValues": [
        1
      ]
    },
    {
      "reservedAddress": "0x0af9CD37f6463F1d52d4aC6Cd295a5525F83cEC1",
      "assetIds": [
        "55464657044963196816950587289035428064568320970692304673817341489687556012032"
      ],
      "assetValues": [
        1
      ]
    },
    {
      "reservedAddress": "0x4030A91190cCbd5de63310603AFf54168bbdf7F4",
      "assetIds": [
        "55464657044963196816950587289035428064568320970692304673817341489687556012032"
      ],
      "assetValues": [
        1
      ]
    },
    {
      "reservedAddress": "0xd106a950E8B199831bCd5e4804169740fc9eE2Fd",
      "assetIds": [
        "55464657044963196816950587289035428064568320970692304673817341489687556012032"
      ],
      "assetValues": [
        1
      ]
    },
    {
      "reservedAddress": "0x4c47bfa71DBb63ae26970b0970FE822cBdC27bf1",
      "assetIds": [
        "55464657044963196816950587289035428064568320970692304673817341489687556012032"
      ],
      "assetValues": [
        1
      ]
    },
    {
      "reservedAddress": "0x37646657988512016c77ab0a2C8491f0288C6d32",
      "assetIds": [
        "55464657044963196816950587289035428064568320970692304673817341489687556012032"
      ],
      "assetValues": [
        1
      ]
    },
    {
      "reservedAddress": "0x387f047BB2f1EBceEE94f64cF7f1d2237708918d",
      "assetIds": [
        "55464657044963196816950587289035428064568320970692304673817341489687556012032"
      ],
      "assetValues": [
        1
      ]
    },
    {
      "reservedAddress": "0x496F67fCfDE0671C956BceCd8d58E30A4A51d2FE",
      "assetIds": [
        "55464657044963196816950587289035428064568320970692304673817341489687556012032"
      ],
      "assetValues": [
        1
      ]
    },
    {
      "reservedAddress": "0x747d37bE993D9B0d3cc17f6257Eb465377671938",
      "assetIds": [
        "55464657044963196816950587289035428064568320970692304673817341489687556012032"
      ],
      "assetValues": [
        1
      ]
    },
    {
      "reservedAddress": "0x9417cae105c2E232C19f251A4b547c5ec34c5fd7",
      "assetIds": [
        "55464657044963196816950587289035428064568320970692304673817341489687556012032"
      ],
      "assetValues": [
        1
      ]
    },
    {
      "reservedAddress": "0x81069F658Da5Fac80bbeeE0023a21F0531d144DC",
      "assetIds": [
        "55464657044963196816950587289035428064568320970692304673817341489687556012032"
      ],
      "assetValues": [
        1
      ]
    },
    {
      "reservedAddress": "0xdFA6B86123046D72Ba46e972918CdbB4C66F7445",
      "assetIds": [
        "55464657044963196816950587289035428064568320970692304673817341489687556012032"
      ],
      "assetValues": [
        1
      ]
    },
    {
      "reservedAddress": "0xe32A4c7a2a5EfC52a79ccE5128189A5763589225",
      "assetIds": [
        "55464657044963196816950587289035428064568320970692304673817341489687556012032"
      ],
      "assetValues": [
        1
      ]
    },
    {
      "reservedAddress": "0xc23797ED6E52FD03e7943499d5d9bA178E3FC9C0",
      "assetIds": [
        "55464657044963196816950587289035428064568320970692304673817341489687556012032"
      ],
      "assetValues": [
        1
      ]
    },
    {
      "reservedAddress": "0xBE61e8b761D1aF2621d7911aac5565EF47825982",
      "assetIds": [
        "55464657044963196816950587289035428064568320970692304673817341489687556012032"
      ],
      "assetValues": [
        1
      ]
    },
    {
      "reservedAddress": "0x2Ac1F32BBb6EfaC908ED723FB7d73c9BF913c1a6",
      "assetIds": [
        "55464657044963196816950587289035428064568320970692304673817341489687556012032"
      ],
      "assetValues": [
        1
      ]
    },
    {
      "reservedAddress": "0x54B0CCAdCd15570De77a0D802dD2B1903F32685b",
      "assetIds": [
        "55464657044963196816950587289035428064568320970692304673817341489687556012032"
      ],
      "assetValues": [
        1
      ]
    },
    {
      "reservedAddress": "0xD1D9C41100A689274259BF04592e04f4756bEC1e",
      "assetIds": [
        "55464657044963196816950587289035428064568320970692304673817341489687556012032"
      ],
      "assetValues": [
        1
      ]
    },
    {
      "reservedAddress": "0xeBB12340a264796E33C0c6e49BB8C4BdBD1E6959",
      "assetIds": [
        "55464657044963196816950587289035428064568320970692304673817341489687556012032"
      ],
      "assetValues": [
        1
      ]
    },
    {
      "reservedAddress": "0xa91301A312F256aa4531e44631319b9739dA9Bb9",
      "assetIds": [
        "55464657044963196816950587289035428064568320970692304673817341489687556012032"
      ],
      "assetValues": [
        1
      ]
    },
    {
      "reservedAddress": "0xde5F2C061436F3dd8CDa25A5930c66b949Fd337F",
      "assetIds": [
        "55464657044963196816950587289035428064568320970692304673817341489687556012032"
      ],
      "assetValues": [
        1
      ]
    },
    {
      "reservedAddress": "0x68Cb89fB02987d698427AE199F2BbC59227F418a",
      "assetIds": [
        "55464657044963196816950587289035428064568320970692304673817341489687556012032"
      ],
      "assetValues": [
        1
      ]
    },
    {
      "reservedAddress": "0x534f41EDfee1039A5fec9cd65d26Dc6DcDbA7F93",
      "assetIds": [
        "55464657044963196816950587289035428064568320970692304673817341489687556012032"
      ],
      "assetValues": [
        1
      ]
    },
    {
      "reservedAddress": "0xAbDEb14703c5800E66579B39298A4F1Af26024D0",
      "assetIds": [
        "55464657044963196816950587289035428064568320970692304673817341489687556012032"
      ],
      "assetValues": [
        1
      ]
    },
    {
      "reservedAddress": "0x6d5cac633F0a2f0622c5ed31b694Fb9947099772",
      "assetIds": [
        "55464657044963196816950587289035428064568320970692304673817341489687556012032"
      ],
      "assetValues": [
        1
      ]
    },
    {
      "reservedAddress": "0x0d15e7c15A46A4f08A967bd7EEd0513456BE8738",
      "assetIds": [
        "55464657044963196816950587289035428064568320970692304673817341489687556012032"
      ],
      "assetValues": [
        1
      ]
    },
    {
      "reservedAddress": "0x57199dF71234140Bcb2050bbBB013c8eE34D5a9A",
      "assetIds": [
        "55464657044963196816950587289035428064568320970692304673817341489687556012032"
      ],
      "assetValues": [
        1
      ]
    },
    {
      "reservedAddress": "0x5B6C6FA53532772320b2924702e45E874f1663Ec",
      "assetIds": [
        "55464657044963196816950587289035428064568320970692304673817341489687556012032"
      ],
      "assetValues": [
        1
      ]
    },
    {
      "reservedAddress": "0x43B9e2E420b9767082cE37DABE55f3a1998aa652",
      "assetIds": [
        "55464657044963196816950587289035428064568320970692304673817341489687556012032"
      ],
      "assetValues": [
        1
      ]
    },
    {
      "reservedAddress": "0xEED230c9d6715E2984268473F2e080a7E58aD4f5",
      "assetIds": [
        "55464657044963196816950587289035428064568320970692304673817341489687556012032"
      ],
      "assetValues": [
        1
      ]
    },
    {
      "reservedAddress": "0x58269949b195418d3436FfF8db2D203506304FB8",
      "assetIds": [
        "55464657044963196816950587289035428064568320970692304673817341489687556012032"
      ],
      "assetValues": [
        1
      ]
    },
    {
      "reservedAddress": "0x41027f98494548CBEcc3F4c52249a9Fc8B3D17EF",
      "assetIds": [
        "55464657044963196816950587289035428064568320970692304673817341489687556012032"
      ],
      "assetValues": [
        1
      ]
    },
    {
      "reservedAddress": "0x5C1310881b1873b1B90a5516ae7EeB5337f3456E",
      "assetIds": [
        "55464657044963196816950587289035428064568320970692304673817341489687556012032"
      ],
      "assetValues": [
        1
      ]
    },
    {
      "reservedAddress": "0xd972B5260378032Cd15FC9ab8B3A2f1376E5c128",
      "assetIds": [
        "55464657044963196816950587289035428064568320970692304673817341489687556012032"
      ],
      "assetValues": [
        1
      ]
    },
    {
      "reservedAddress": "0xf76EED2FF05Aa8857aeFDe23FBFCA50d4f3f93b5",
      "assetIds": [
        "55464657044963196816950587289035428064568320970692304673817341489687556012032"
      ],
      "assetValues": [
        1
      ]
    },
    {
      "reservedAddress": "0x31Ae9673A634581B3048FefA8c193050a4990522",
      "assetIds": [
        "55464657044963196816950587289035428064568320970692304673817341489687556012032"
      ],
      "assetValues": [
        1
      ]
    },
    {
      "reservedAddress": "0x25e6E83668158F8C0831886A55c331b5aeB72377",
      "assetIds": [
        "55464657044963196816950587289035428064568320970692304673817341489687556012032"
      ],
      "assetValues": [
        1
      ]
    },
    {
      "reservedAddress": "0x63cbC4e382Da28930acfEb2534A5F96f3eAF5Bd7",
      "assetIds": [
        "55464657044963196816950587289035428064568320970692304673817341489687556012032"
      ],
      "assetValues": [
        1
      ]
    },
    {
      "reservedAddress": "0x4B83A2b48CE42d68CaE4f9F15b88CE4f21796E52",
      "assetIds": [
        "55464657044963196816950587289035428064568320970692304673817341489687556012032"
      ],
      "assetValues": [
        1
      ]
    },
    {
      "reservedAddress": "0x90f1bD5B68B8025101dF1c5deDF754BA71BA1abD",
      "assetIds": [
        "55464657044963196816950587289035428064568320970692304673817341489687556012032"
      ],
      "assetValues": [
        1
      ]
    },
    {
      "reservedAddress": "0xF3abCf0e73460D61b0660D1317e31bA4EE8e1873",
      "assetIds": [
        "55464657044963196816950587289035428064568320970692304673817341489687556012032"
      ],
      "assetValues": [
        1
      ]
    },
    {
      "reservedAddress": "0x6DD88D56c47E043ED074d42439b8925E4fcBA12a",
      "assetIds": [
        "55464657044963196816950587289035428064568320970692304673817341489687556012032"
      ],
      "assetValues": [
        1
      ]
    },
    {
      "reservedAddress": "0x83F26779bc4EdB2BC56e922d643857494fe11333",
      "assetIds": [
        "55464657044963196816950587289035428064568320970692304673817341489687556012032"
      ],
      "assetValues": [
        1
      ]
    },
    {
      "reservedAddress": "0xa4f1EfE1E2417d3bB31c2e9f14Dd6f241d0d9614",
      "assetIds": [
        "55464657044963196816950587289035428064568320970692304673817341489687556012032"
      ],
      "assetValues": [
        1
      ]
    },
    {
      "reservedAddress": "0x5dA70D2a1858A883B42d560EDEB5A4Ff4E7829fe",
      "assetIds": [
        "55464657044963196816950587289035428064568320970692304673817341489687556012032"
      ],
      "assetValues": [
        1
      ]
    },
    {
      "reservedAddress": "0x385c9F4a1AfC1190AC1bD9D89545fCC735e586cC",
      "assetIds": [
        "55464657044963196816950587289035428064568320970692304673817341489687556012032"
      ],
      "assetValues": [
        1
      ]
    },
    {
      "reservedAddress": "0x3167eDC8067Ac31430Eaeb4db4D52e22d2ea98a7",
      "assetIds": [
        "55464657044963196816950587289035428064568320970692304673817341489687556012032"
      ],
      "assetValues": [
        1
      ]
    },
    {
      "reservedAddress": "0xdcA378ff1Fb9Beddeefb85cFae4A40607d34Ba6d",
      "assetIds": [
        "55464657044963196816950587289035428064568320970692304673817341489687556012032"
      ],
      "assetValues": [
        1
      ]
    },
    {
      "reservedAddress": "0x00d2c6f5b3F7466B6356CfcAe7bce8a84EDEF4D8",
      "assetIds": [
        "55464657044963196816950587289035428064568320970692304673817341489687556012032"
      ],
      "assetValues": [
        1
      ]
    },
    {
      "reservedAddress": "0xe6ea29AD6887F8fca3DBd53648047fF56C539a6F",
      "assetIds": [
        "55464657044963196816950587289035428064568320970692304673817341489687556012032"
      ],
      "assetValues": [
        1
      ]
    },
    {
      "reservedAddress": "0xE12D754c712E84e697A44152D26a58e150929E23",
      "assetIds": [
        "55464657044963196816950587289035428064568320970692304673817341489687556012032"
      ],
      "assetValues": [
        1
      ]
    },
    {
      "reservedAddress": "0x7787be3CBa33572Ad3cd946150A08170D9B5b827",
      "assetIds": [
        "55464657044963196816950587289035428064568320970692304673817341489687556012032"
      ],
      "assetValues": [
        1
      ]
    },
    {
      "reservedAddress": "0x2d3C7aD77C87Dc171f2c3B083e18605103cf5F30",
      "assetIds": [
        "55464657044963196816950587289035428064568320970692304673817341489687556012032"
      ],
      "assetValues": [
        1
      ]
    },
    {
      "reservedAddress": "0x5f2254b11e8B2A556442D0B15F918B8E39af0C6e",
      "assetIds": [
        "55464657044963196816950587289035428064568320970692304673817341489687556012032"
      ],
      "assetValues": [
        1
      ]
    },
    {
      "reservedAddress": "0x8106B6c05A50830AF8b4a1Fc52D744A84Ade7E60",
      "assetIds": [
        "55464657044963196816950587289035428064568320970692304673817341489687556012032"
      ],
      "assetValues": [
        1
      ]
    },
    {
      "reservedAddress": "0x283A105Eaf1c00D9e357B0668e08bE483c77d021",
      "assetIds": [
        "55464657044963196816950587289035428064568320970692304673817341489687556012032"
      ],
      "assetValues": [
        1
      ]
    },
    {
      "reservedAddress": "0xa53043c2D23160b39341b1C0489FAEead104d4CE",
      "assetIds": [
        "55464657044963196816950587289035428064568320970692304673817341489687556012032"
      ],
      "assetValues": [
        1
      ]
    },
    {
      "reservedAddress": "0xFD019b9EDB84554d3271bF403Ab82790C5430739",
      "assetIds": [
        "55464657044963196816950587289035428064568320970692304673817341489687556012032"
      ],
      "assetValues": [
        1
      ]
    },
    {
      "reservedAddress": "0xf0B0F9a5418dc89f0ECFCB8116cc257ecBC5241A",
      "assetIds": [
        "55464657044963196816950587289035428064568320970692304673817341489687556012032"
      ],
      "assetValues": [
        1
      ]
    },
    {
      "reservedAddress": "0xB380C63a100305f94729e511EaF3d328cB127946",
      "assetIds": [
        "55464657044963196816950587289035428064568320970692304673817341489687556012032"
      ],
      "assetValues": [
        1
      ]
    },
    {
      "reservedAddress": "0x6EE4637D299Abb2EA2CFb878b15e14BfAAf2204f",
      "assetIds": [
        "55464657044963196816950587289035428064568320970692304673817341489687556012032"
      ],
      "assetValues": [
        1
      ]
    },
    {
      "reservedAddress": "0x48743181226485d07223349aaa408c01d559d738",
      "assetIds": [
        "55464657044963196816950587289035428064568320970692304673817341489687556012032"
      ],
      "assetValues": [
        1
      ]
    },
    {
      "reservedAddress": "0x36D137cBf125f37A194913e6d56677892492D66e",
      "assetIds": [
        "55464657044963196816950587289035428064568320970692304673817341489687556012032"
      ],
      "assetValues": [
        1
      ]
    },
    {
      "reservedAddress": "0x62a5702a9e6D7CB0B91E1FA3f14a6177aDda8458",
      "assetIds": [
        "55464657044963196816950587289035428064568320970692304673817341489687556012032"
      ],
      "assetValues": [
        1
      ]
    },
    {
      "reservedAddress": "0x64A1cA8B4F19571EBC7D92eC8EB8D04FA4D63e11",
      "assetIds": [
        "55464657044963196816950587289035428064568320970692304673817341489687556012032"
      ],
      "assetValues": [
        1
      ]
    },
    {
      "reservedAddress": "0xd3D504C10994876074E03002306B795D7B964795",
      "assetIds": [
        "55464657044963196816950587289035428064568320970692304673817341489687556012032"
      ],
      "assetValues": [
        1
      ]
    },
    {
      "reservedAddress": "0xD29cC77Ee806193A9A2d4A38C4fAC33e8529752F",
      "assetIds": [
        "55464657044963196816950587289035428064568320970692304673817341489687556012032"
      ],
      "assetValues": [
        1
      ]
    },
    {
      "reservedAddress": "0xEff20aa070D2F1BB1578a72BB46aBcb5fc7beE71",
      "assetIds": [
        "55464657044963196816950587289035428064568320970692304673817341489687556012032"
      ],
      "assetValues": [
        1
      ]
    },
    {
      "reservedAddress": "0x4d740dB5b4E20309739fF129D30B0f7451c3CAc8",
      "assetIds": [
        "55464657044963196816950587289035428064568320970692304673817341489687556012032"
      ],
      "assetValues": [
        1
      ]
    },
    {
      "reservedAddress": "0xbc0595eB317BFD9F6a86e63546a803001154d73b",
      "assetIds": [
        "55464657044963196816950587289035428064568320970692304673817341489687556012032"
      ],
      "assetValues": [
        1
      ]
    },
    {
      "reservedAddress": "0x3A6718B88DfE009d75f479c677D49831Ac775D10",
      "assetIds": [
        "55464657044963196816950587289035428064568320970692304673817341489687556012032"
      ],
      "assetValues": [
        1
      ]
    },
    {
      "reservedAddress": "0x89132603aF78841811f5C211D08F9454A2AbC81C",
      "assetIds": [
        "55464657044963196816950587289035428064568320970692304673817341489687556012032"
      ],
      "assetValues": [
        1
      ]
    },
    {
      "reservedAddress": "0xB8A6DFB5F976001F8A2686039B217C026F6E3CFB",
      "assetIds": [
        "55464657044963196816950587289035428064568320970692304673817341489687556012032"
      ],
      "assetValues": [
        1
      ]
    },
    {
      "reservedAddress": "0x2d431c258b5343d85d85B490762928363A19504f",
      "assetIds": [
        "55464657044963196816950587289035428064568320970692304673817341489687556012032"
      ],
      "assetValues": [
        1
      ]
    },
    {
      "reservedAddress": "0x602dF0A5C2A79217D7cF6a4fE28CDCe16AB075b4",
      "assetIds": [
        "55464657044963196816950587289035428064568320970692304673817341489687556012032"
      ],
      "assetValues": [
        1
      ]
    },
    {
      "reservedAddress": "0x8de1D39cf25A23a78DEaB5AF8A600E30b0680C0E",
      "assetIds": [
        "55464657044963196816950587289035428064568320970692304673817341489687556012032"
      ],
      "assetValues": [
        1
      ]
    },
    {
      "reservedAddress": "0x81D45b47f33F8d420860fC3452b1aded587adBE6",
      "assetIds": [
        "55464657044963196816950587289035428064568320970692304673817341489687556012032"
      ],
      "assetValues": [
        1
      ]
    },
    {
      "reservedAddress": "0x4608dDBD09dA62B2F92Cbb3661FC9040bacFdD44",
      "assetIds": [
        "55464657044963196816950587289035428064568320970692304673817341489687556012032"
      ],
      "assetValues": [
        1
      ]
    },
    {
      "reservedAddress": "0x51D1e21FEE495E8723A5Ef80CfAf38ae987E6E27",
      "assetIds": [
        "55464657044963196816950587289035428064568320970692304673817341489687556012032"
      ],
      "assetValues": [
        1
      ]
    },
    {
      "reservedAddress": "0xCa2A59A26dDfd56C69e3465DF66ee2986B4B0F4a",
      "assetIds": [
        "55464657044963196816950587289035428064568320970692304673817341489687556012032"
      ],
      "assetValues": [
        1
      ]
    },
    {
      "reservedAddress": "0xDD3cD454BD3ACC686547f7ACFD437c803dbb184F",
      "assetIds": [
        "55464657044963196816950587289035428064568320970692304673817341489687556012032"
      ],
      "assetValues": [
        1
      ]
    },
    {
      "reservedAddress": "0x3B768D62a68E0ffEbEf7996f29Da7C2ea70bFb80",
      "assetIds": [
        "55464657044963196816950587289035428064568320970692304673817341489687556012032"
      ],
      "assetValues": [
        1
      ]
    },
    {
      "reservedAddress": "0x46399392EB3745126fd00B23fD213Ec93f947692",
      "assetIds": [
        "55464657044963196816950587289035428064568320970692304673817341489687556012032"
      ],
      "assetValues": [
        1
      ]
    },
    {
      "reservedAddress": "0xbE4Ba97EBbBF170a6855bE2be4C68A264AD6a671",
      "assetIds": [
        "55464657044963196816950587289035428064568320970692304673817341489687556012032"
      ],
      "assetValues": [
        1
      ]
    },
    {
      "reservedAddress": "0x6B892039D5731E6AF067Ef162F0d88342B4a8c97",
      "assetIds": [
        "55464657044963196816950587289035428064568320970692304673817341489687556012032"
      ],
      "assetValues": [
        1
      ]
    },
    {
      "reservedAddress": "0x1bf74Fc7740ad909967Cd3863f591A8C750c381C",
      "assetIds": [
        "55464657044963196816950587289035428064568320970692304673817341489687556012032"
      ],
      "assetValues": [
        1
      ]
    },
    {
      "reservedAddress": "0xeefDc9c62FCF4Abe07770f52d55950C75BD8e501",
      "assetIds": [
        "55464657044963196816950587289035428064568320970692304673817341489687556012032"
      ],
      "assetValues": [
        1
      ]
    },
    {
      "reservedAddress": "0xfce9bDac7adf46F55Dba46Cf703DE05cb5EFD83b",
      "assetIds": [
        "55464657044963196816950587289035428064568320970692304673817341489687556012032"
      ],
      "assetValues": [
        1
      ]
    },
    {
      "reservedAddress": "0x9fAB4eB38048e65B546aC013182416B76DD4E426",
      "assetIds": [
        "55464657044963196816950587289035428064568320970692304673817341489687556012032"
      ],
      "assetValues": [
        1
      ]
    },
    {
      "reservedAddress": "0xaeC8d839283707620CDEfC3D99660969EE7e70e5",
      "assetIds": [
        "55464657044963196816950587289035428064568320970692304673817341489687556012032"
      ],
      "assetValues": [
        1
      ]
    },
    {
      "reservedAddress": "0xDB72888BE59a335Ad348F5FD2Ca9Db9299577066",
      "assetIds": [
        "55464657044963196816950587289035428064568320970692304673817341489687556012032"
      ],
      "assetValues": [
        1
      ]
    },
    {
      "reservedAddress": "0x32e5D4DBbe28ECE002bd99e630816F2355049Bc2",
      "assetIds": [
        "55464657044963196816950587289035428064568320970692304673817341489687556012032"
      ],
      "assetValues": [
        1
      ]
    },
    {
      "reservedAddress": "0xB0Bf5fa78F9B644a34c94F383afe79e45b97B3d6",
      "assetIds": [
        "55464657044963196816950587289035428064568320970692304673817341489687556012032"
      ],
      "assetValues": [
        1
      ]
    },
    {
      "reservedAddress": "0xE4AD78A8220ec17bF2Bd433Bb04cf1F39B9410B4",
      "assetIds": [
        "55464657044963196816950587289035428064568320970692304673817341489687556012032"
      ],
      "assetValues": [
        1
      ]
    },
    {
      "reservedAddress": "0xcEbf94a653848E503d2d56B31b8EA14Bdb6F5c30",
      "assetIds": [
        "55464657044963196816950587289035428064568320970692304673817341489687556012032"
      ],
      "assetValues": [
        1
      ]
    },
    {
      "reservedAddress": "0x85c70dBf231052708EDd6B4ea9f5b859b39BBb21",
      "assetIds": [
        "55464657044963196816950587289035428064568320970692304673817341489687556012032"
      ],
      "assetValues": [
        1
      ]
    },
    {
      "reservedAddress": "0x343a46a7a37ff0b7de4ae85cbda87f128818089d",
      "assetIds": [
        "55464657044963196816950587289035428064568320970692304673817341489687556012032"
      ],
      "assetValues": [
        1
      ]
    },
    {
      "reservedAddress": "0xf5fee848b14b158950b7B69a5FF27d03155198Bb",
      "assetIds": [
        "55464657044963196816950587289035428064568320970692304673817341489687556012032"
      ],
      "assetValues": [
        1
      ]
    },
    {
      "reservedAddress": "0x4e38408273Ca543097903E5d2ECb21B16B76Ad00",
      "assetIds": [
        "55464657044963196816950587289035428064568320970692304673817341489687556012032"
      ],
      "assetValues": [
        1
      ]
    },
    {
      "reservedAddress": "0x4F237FbFC04162BDB429C8Da524a76Ee94E4d2fb",
      "assetIds": [
        "55464657044963196816950587289035428064568320970692304673817341489687556012032"
      ],
      "assetValues": [
        1
      ]
    },
    {
      "reservedAddress": "0x699cd19b47C1dd51Da37C5c001136D65af008e91",
      "assetIds": [
        "55464657044963196816950587289035428064568320970692304673817341489687556012032"
      ],
      "assetValues": [
        1
      ]
    },
    {
      "reservedAddress": "0xA34f899cf3caCe1b84Ce6350390DdbC0436caf8b",
      "assetIds": [
        "55464657044963196816950587289035428064568320970692304673817341489687556012032"
      ],
      "assetValues": [
        1
      ]
    },
    {
      "reservedAddress": "0xaA6dBA69E3f4b17ad7Ff7e16D78631C70be9C6b3",
      "assetIds": [
        "55464657044963196816950587289035428064568320970692304673817341489687556012032"
      ],
      "assetValues": [
        1
      ]
    },
    {
      "reservedAddress": "0x9F46F0d00140499104Cb60240a563508eD81DF53",
      "assetIds": [
        "55464657044963196816950587289035428064568320970692304673817341489687556012032"
      ],
      "assetValues": [
        1
      ]
    },
    {
      "reservedAddress": "0x959fB1C08Bb6208655e46e1D29FC8423344F6Ae2",
      "assetIds": [
        "55464657044963196816950587289035428064568320970692304673817341489687556012032"
      ],
      "assetValues": [
        1
      ]
    },
    {
      "reservedAddress": "0xF51e846c13c26A3c54419a63b35182B7e2F1643F",
      "assetIds": [
        "55464657044963196816950587289035428064568320970692304673817341489687556012032"
      ],
      "assetValues": [
        1
      ]
    },
    {
      "reservedAddress": "0xD6774564B5d3CCEF5560837390224DB4712D6454",
      "assetIds": [
        "55464657044963196816950587289035428064568320970692304673817341489687556012032"
      ],
      "assetValues": [
        1
      ]
    },
    {
      "reservedAddress": "0x62eB322DEf993Df0ed0A0dC5fd65fA6ED5D0CFE3",
      "assetIds": [
        "55464657044963196816950587289035428064568320970692304673817341489687556012032"
      ],
      "assetValues": [
        1
      ]
    },
    {
      "reservedAddress": "0x821B65e2339EE5a8d53B3e46c8FC4Af6d05f4ba0",
      "assetIds": [
        "55464657044963196816950587289035428064568320970692304673817341489687556012032"
      ],
      "assetValues": [
        1
      ]
    },
    {
      "reservedAddress": "0xD2cdc54AA32bADf63319a5dbfF07939b6dd961BE",
      "assetIds": [
        "55464657044963196816950587289035428064568320970692304673817341489687556012032"
      ],
      "assetValues": [
        1
      ]
    },
    {
      "reservedAddress": "0x324F49e1b528d0d011A7368b50b2c0c5eA81D817",
      "assetIds": [
        "55464657044963196816950587289035428064568320970692304673817341489687556012032"
      ],
      "assetValues": [
        1
      ]
    },
    {
      "reservedAddress": "0x1Dda1ceC76Cddee22EFB2cA66865CC534CDEB45e",
      "assetIds": [
        "55464657044963196816950587289035428064568320970692304673817341489687556012032"
      ],
      "assetValues": [
        1
      ]
    },
    {
      "reservedAddress": "0xa75938F6F2132980A32239F29B8bF80E7F257DfD",
      "assetIds": [
        "55464657044963196816950587289035428064568320970692304673817341489687556012032"
      ],
      "assetValues": [
        1
      ]
    },
    {
      "reservedAddress": "0xb2477dfab104e6ae648A17C7663ee9D19F689DB1",
      "assetIds": [
        "55464657044963196816950587289035428064568320970692304673817341489687556012032"
      ],
      "assetValues": [
        1
      ]
    },
    {
      "reservedAddress": "0x1f53b606F7F501c6DB050ce37BD8f84aaF8874D0",
      "assetIds": [
        "55464657044963196816950587289035428064568320970692304673817341489687556012032"
      ],
      "assetValues": [
        1
      ]
    },
    {
      "reservedAddress": "0x8f135Ee66D59034b28A63D37a7872CDC50092a97",
      "assetIds": [
        "55464657044963196816950587289035428064568320970692304673817341489687556012032"
      ],
      "assetValues": [
        1
      ]
    },
    {
      "reservedAddress": "0x0c2A5b5fb8D480033E725d94645c5Dc680819014",
      "assetIds": [
        "55464657044963196816950587289035428064568320970692304673817341489687556012032"
      ],
      "assetValues": [
        1
      ]
    },
    {
      "reservedAddress": "0xc206aCDB23DE552a430aaba4b60FfcfF9A0d1783",
      "assetIds": [
        "55464657044963196816950587289035428064568320970692304673817341489687556012032"
      ],
      "assetValues": [
        1
      ]
    },
    {
      "reservedAddress": "0x7690af60697cbdd032d862371a826b90d40d4c2a",
      "assetIds": [
        "55464657044963196816950587289035428064568320970692304673817341489687556012032"
      ],
      "assetValues": [
        1
      ]
    },
    {
      "reservedAddress": "0x7DAc0D85cE5Cd20ff68C5d4932aC12f2Ec22dB1b",
      "assetIds": [
        "55464657044963196816950587289035428064568320970692304673817341489687556012032"
      ],
      "assetValues": [
        1
      ]
    },
    {
      "reservedAddress": "0x7Bf6d1cbCC3D9676473084a56FDE878760586023",
      "assetIds": [
        "55464657044963196816950587289035428064568320970692304673817341489687556012032"
      ],
      "assetValues": [
        1
      ]
    },
    {
      "reservedAddress": "0x8F072Ac9d80Af523672d93CfcB7350f51F00b4bD",
      "assetIds": [
        "55464657044963196816950587289035428064568320970692304673817341489687556012032"
      ],
      "assetValues": [
        1
      ]
    },
    {
      "reservedAddress": "0xBF888EDf69243D816bEe4ee642E285A5fdF94660",
      "assetIds": [
        "55464657044963196816950587289035428064568320970692304673817341489687556012032"
      ],
      "assetValues": [
        1
      ]
    },
    {
      "reservedAddress": "0x8D8c32519C2dEe00bf021E11540Ac5025920A7De",
      "assetIds": [
        "55464657044963196816950587289035428064568320970692304673817341489687556012032"
      ],
      "assetValues": [
        1
      ]
    },
    {
      "reservedAddress": "0x2D2e02DBA34EbeA26Ab267Bae4028Fdfe753A9c8",
      "assetIds": [
        "55464657044963196816950587289035428064568320970692304673817341489687556012032"
      ],
      "assetValues": [
        1
      ]
    },
    {
      "reservedAddress": "0xF16c1e4E7757b493a10E875fd8fcb69Fa52c5415",
      "assetIds": [
        "55464657044963196816950587289035428064568320970692304673817341489687556012032"
      ],
      "assetValues": [
        1
      ]
    },
    {
      "reservedAddress": "0x6D4ade48Cb5be90Ba9Bcdd9EF357CcC407F4d0ef",
      "assetIds": [
        "55464657044963196816950587289035428064568320970692304673817341489687556012032"
      ],
      "assetValues": [
        1
      ]
    },
    {
      "reservedAddress": "0xf418d1d50CACAd4A74419add1ad10F4dF48C9359",
      "assetIds": [
        "55464657044963196816950587289035428064568320970692304673817341489687556012032"
      ],
      "assetValues": [
        1
      ]
    },
    {
      "reservedAddress": "0x1647A23E90BB36af9921edd22Cff36B6D80b36cf",
      "assetIds": [
        "55464657044963196816950587289035428064568320970692304673817341489687556012032"
      ],
      "assetValues": [
        1
      ]
    },
    {
      "reservedAddress": "0x7A5e5BbdeDd5b9c78F634CcC5Dc61cef308066D8",
      "assetIds": [
        "55464657044963196816950587289035428064568320970692304673817341489687556012032"
      ],
      "assetValues": [
        1
      ]
    },
    {
      "reservedAddress": "0x693A181b4f670B0C5C5679a17F552ca389d76fd0",
      "assetIds": [
        "55464657044963196816950587289035428064568320970692304673817341489687556012032"
      ],
      "assetValues": [
        1
      ]
    },
    {
      "reservedAddress": "0x041831Ab04FFF125F65d77ded70A897DED0cF2eB",
      "assetIds": [
        "55464657044963196816950587289035428064568320970692304673817341489687556012032"
      ],
      "assetValues": [
        1
      ]
    },
    {
      "reservedAddress": "0x49f9D234E46E914EB59cF087585B0B08c3d340Fc",
      "assetIds": [
        "55464657044963196816950587289035428064568320970692304673817341489687556012032"
      ],
      "assetValues": [
        1
      ]
    },
    {
      "reservedAddress": "0x481B788835532AeF0b0BC6947ad881d681cd1351",
      "assetIds": [
        "55464657044963196816950587289035428064568320970692304673817341489687556012032"
      ],
      "assetValues": [
        1
      ]
    },
    {
      "reservedAddress": "0x5C4Ab97de860e4cFE5DB1D6f0F15Ef2bbb9Bc63C",
      "assetIds": [
        "55464657044963196816950587289035428064568320970692304673817341489687556012032"
      ],
      "assetValues": [
        1
      ]
    },
    {
      "reservedAddress": "0x4b7bB0Ed854Ddd10eAe33202905F0c1d06b1f95b",
      "assetIds": [
        "55464657044963196816950587289035428064568320970692304673817341489687556012032"
      ],
      "assetValues": [
        1
      ]
    },
    {
      "reservedAddress": "0x4FEa941570ea829cB16678DA55169C3Bc988C383",
      "assetIds": [
        "55464657044963196816950587289035428064568320970692304673817341489687556012032"
      ],
      "assetValues": [
        1
      ]
    },
    {
      "reservedAddress": "0xeC94acBf8BFE2bc08FFd1e9263fd71ef83ce6818",
      "assetIds": [
        "55464657044963196816950587289035428064568320970692304673817341489687556012032"
      ],
      "assetValues": [
        1
      ]
    },
    {
      "reservedAddress": "0x6C71592596a4B5be93B126B48403424242Dd5471",
      "assetIds": [
        "55464657044963196816950587289035428064568320970692304673817341489687556012032"
      ],
      "assetValues": [
        1
      ]
    },
    {
      "reservedAddress": "0xFAF32BeE93771E91c52E5B53e809833DBa685472",
      "assetIds": [
        "55464657044963196816950587289035428064568320970692304673817341489687556012032"
      ],
      "assetValues": [
        1
      ]
    },
    {
      "reservedAddress": "0xd99d9aa2995CeA75F601A22DdAd07A54D3fB9A20",
      "assetIds": [
        "55464657044963196816950587289035428064568320970692304673817341489687556012032"
      ],
      "assetValues": [
        1
      ]
    },
    {
      "reservedAddress": "0xe36587A9a611a4d5726eD35038cbfcAD37F0Eef1",
      "assetIds": [
        "55464657044963196816950587289035428064568320970692304673817341489687556012032"
      ],
      "assetValues": [
        1
      ]
    },
    {
      "reservedAddress": "0x7Ba1927741AA41d7E3753F159768dDC4Ccb3a06d",
      "assetIds": [
        "55464657044963196816950587289035428064568320970692304673817341489687556012032"
      ],
      "assetValues": [
        1
      ]
    },
    {
      "reservedAddress": "0x125320C9B63a5C89783Bba744e92654F349e6da2",
      "assetIds": [
        "55464657044963196816950587289035428064568320970692304673817341489687556012032"
      ],
      "assetValues": [
        1
      ]
    },
    {
      "reservedAddress": "0x1C076ced03Fd1D741Ec94d0e1DFa6530CCA0Ae5d",
      "assetIds": [
        "55464657044963196816950587289035428064568320970692304673817341489687556012032"
      ],
      "assetValues": [
        1
      ]
    },
    {
      "reservedAddress": "0xdA148648BFd801247e711f5B72d79dD4389f6E06",
      "assetIds": [
        "55464657044963196816950587289035428064568320970692304673817341489687556012032"
      ],
      "assetValues": [
        1
      ]
    },
    {
      "reservedAddress": "0x0b3356DF0120b6bEdd64658D885E4B1fcE7B7265",
      "assetIds": [
        "55464657044963196816950587289035428064568320970692304673817341489687556012032"
      ],
      "assetValues": [
        1
      ]
    },
    {
      "reservedAddress": "0x500bEA1E1DdF98CABA5EBCa9d289344eE9422a39",
      "assetIds": [
        "55464657044963196816950587289035428064568320970692304673817341489687556012032"
      ],
      "assetValues": [
        1
      ]
    },
    {
      "reservedAddress": "0x6c5B509F16B17E675928DC61f07D2954Bae395B2",
      "assetIds": [
        "55464657044963196816950587289035428064568320970692304673817341489687556012032"
      ],
      "assetValues": [
        1
      ]
    },
    {
      "reservedAddress": "0xd38122d9802fF02Fd54C251891782a59c35CeAfA",
      "assetIds": [
        "55464657044963196816950587289035428064568320970692304673817341489687556012032"
      ],
      "assetValues": [
        1
      ]
    },
    {
      "reservedAddress": "0x2a70918bd6dC99104c4D11929a063e452EBe1807",
      "assetIds": [
        "55464657044963196816950587289035428064568320970692304673817341489687556012032"
      ],
      "assetValues": [
        1
      ]
    },
    {
      "reservedAddress": "0x13be7c029eee8a64277d106f6293aca3af639378",
      "assetIds": [
        "55464657044963196816950587289035428064568320970692304673817341489687556012032"
      ],
      "assetValues": [
        1
      ]
    },
    {
      "reservedAddress": "0xB1Dcc0299de0f41981F8284FFB7129f484e1b529",
      "assetIds": [
        "55464657044963196816950587289035428064568320970692304673817341489687556012032"
      ],
      "assetValues": [
        1
      ]
    },
    {
      "reservedAddress": "0x5DB51C0911757F2b9aD5ac322A2258e85a8551eF",
      "assetIds": [
        "55464657044963196816950587289035428064568320970692304673817341489687556012032"
      ],
      "assetValues": [
        1
      ]
    },
    {
      "reservedAddress": "0xF0acad547B5422374787E2978dF72D1b328053BB",
      "assetIds": [
        "55464657044963196816950587289035428064568320970692304673817341489687556012032"
      ],
      "assetValues": [
        1
      ]
    },
    {
      "reservedAddress": "0xeaD3A9BA887c6cede2f6F38aC0a3c694DE0c745A",
      "assetIds": [
        "55464657044963196816950587289035428064568320970692304673817341489687556012032"
      ],
      "assetValues": [
        1
      ]
    },
    {
      "reservedAddress": "0x5914E6272e5BBfFA6A072B117BF975093e0778DA",
      "assetIds": [
        "55464657044963196816950587289035428064568320970692304673817341489687556012032"
      ],
      "assetValues": [
        1
      ]
    },
    {
      "reservedAddress": "0xa0e8e76524d6dffe6e755effbe3bcfb9f18db47f",
      "assetIds": [
        "55464657044963196816950587289035428064568320970692304673817341489687556012032"
      ],
      "assetValues": [
        1
      ]
    },
    {
      "reservedAddress": "0xDbD88E5a0D0288085E4DD5fC28959fF12e81562f",
      "assetIds": [
        "55464657044963196816950587289035428064568320970692304673817341489687556012032"
      ],
      "assetValues": [
        1
      ]
    },
    {
      "reservedAddress": "0x764f361788db4dF46522f1F74d0dfA12d9eAE3CB",
      "assetIds": [
        "55464657044963196816950587289035428064568320970692304673817341489687556012032"
      ],
      "assetValues": [
        1
      ]
    },
    {
      "reservedAddress": "0x8bc06C8f61d223e2f03ce4162819E6AECa0532C9",
      "assetIds": [
        "55464657044963196816950587289035428064568320970692304673817341489687556012032"
      ],
      "assetValues": [
        1
      ]
    },
    {
      "reservedAddress": "0x20d4D8098Cd3c266457F1c5c4c5D3E8A682a3D3d",
      "assetIds": [
        "55464657044963196816950587289035428064568320970692304673817341489687556012032"
      ],
      "assetValues": [
        1
      ]
    },
    {
      "reservedAddress": "0x8448A69210D54D11d7955FcD187c1d1303b0b785",
      "assetIds": [
        "55464657044963196816950587289035428064568320970692304673817341489687556012032"
      ],
      "assetValues": [
        1
      ]
    },
    {
      "reservedAddress": "0x29BC031C12690c1B05E0E2686F9655f5BE3BB650",
      "assetIds": [
        "55464657044963196816950587289035428064568320970692304673817341489687556012032"
      ],
      "assetValues": [
        1
      ]
    },
    {
      "reservedAddress": "0xf4401c780B184eA2933b0C7dc2c3a349EF2E2f82",
      "assetIds": [
        "55464657044963196816950587289035428064568320970692304673817341489687556012032"
      ],
      "assetValues": [
        1
      ]
    },
    {
      "reservedAddress": "0x13b1A7B3fB32f06060E5C77A236C6d6fA5F31590",
      "assetIds": [
        "55464657044963196816950587289035428064568320970692304673817341489687556012032"
      ],
      "assetValues": [
        1
      ]
    },
    {
      "reservedAddress": "0xB238c565e66C4c68fB827e57698A28590C49368e",
      "assetIds": [
        "55464657044963196816950587289035428064568320970692304673817341489687556012032"
      ],
      "assetValues": [
        1
      ]
    },
    {
      "reservedAddress": "0x9B278aAef429Cc4728e594F8fa0FBFe78e72CC26",
      "assetIds": [
        "55464657044963196816950587289035428064568320970692304673817341489687556012032"
      ],
      "assetValues": [
        1
      ]
    },
    {
      "reservedAddress": "0x9481D5D296f67aD8405aC01F3Bbe2649c90EdcB6",
      "assetIds": [
        "55464657044963196816950587289035428064568320970692304673817341489687556012032"
      ],
      "assetValues": [
        1
      ]
    },
    {
      "reservedAddress": "0xd47E6E980414Cb403D7FF796Ed9366Da4BC4D4eb",
      "assetIds": [
        "55464657044963196816950587289035428064568320970692304673817341489687556012032"
      ],
      "assetValues": [
        1
      ]
    },
    {
      "reservedAddress": "0x7B4135B69eaFe7A1283dC0982e7D3cAed473f0AD",
      "assetIds": [
        "55464657044963196816950587289035428064568320970692304673817341489687556012032"
      ],
      "assetValues": [
        1
      ]
    },
    {
      "reservedAddress": "0x9658443F18ddF0b75c0c7dCcD7397d37210375F1",
      "assetIds": [
        "55464657044963196816950587289035428064568320970692304673817341489687556012032"
      ],
      "assetValues": [
        1
      ]
    },
    {
      "reservedAddress": "0x49e718eCC7f5FfF65c7Ac1417f42bd8fdeE6cb13",
      "assetIds": [
        "55464657044963196816950587289035428064568320970692304673817341489687556012032"
      ],
      "assetValues": [
        1
      ]
    },
    {
      "reservedAddress": "0x8078C69e9d46F24c5573f2ece804CDc05A8481c8",
      "assetIds": [
        "55464657044963196816950587289035428064568320970692304673817341489687556012032"
      ],
      "assetValues": [
        1
      ]
    },
    {
      "reservedAddress": "0x36F6A065e35DCFED795dd94D45173b9B3079d0eC",
      "assetIds": [
        "55464657044963196816950587289035428064568320970692304673817341489687556012032"
      ],
      "assetValues": [
        1
      ]
    },
    {
      "reservedAddress": "0xe1ce71Aa7406b75B1CAd3E75DD4CBFD7B63332b0",
      "assetIds": [
        "55464657044963196816950587289035428064568320970692304673817341489687556012032"
      ],
      "assetValues": [
        1
      ]
    },
    {
      "reservedAddress": "0xefa9B0E755108bdA1309ea249a0668b6aCE601d0",
      "assetIds": [
        "55464657044963196816950587289035428064568320970692304673817341489687556012032"
      ],
      "assetValues": [
        1
      ]
    },
    {
      "reservedAddress": "0x1781934D028d2AD442e8bE9FAD0eFcfdc502605f",
      "assetIds": [
        "55464657044963196816950587289035428064568320970692304673817341489687556012032"
      ],
      "assetValues": [
        1
      ]
    },
    {
      "reservedAddress": "0x33cde8Ab5830C2bfEBe9b85947D40aF332a3f88e",
      "assetIds": [
        "55464657044963196816950587289035428064568320970692304673817341489687556012032"
      ],
      "assetValues": [
        1
      ]
    },
    {
      "reservedAddress": "0x2E0aCEDFF214f36781247620dcA2e2EeDC1F743E",
      "assetIds": [
        "55464657044963196816950587289035428064568320970692304673817341489687556012032"
      ],
      "assetValues": [
        1
      ]
    },
    {
      "reservedAddress": "0x39B3F837ae3a2Eba0d90419D5B9EFe0432c31424",
      "assetIds": [
        "55464657044963196816950587289035428064568320970692304673817341489687556012032"
      ],
      "assetValues": [
        1
      ]
    },
    {
      "reservedAddress": "0x631e6F7a14A902078089C927724E8Ea3147f58d4",
      "assetIds": [
        "55464657044963196816950587289035428064568320970692304673817341489687556012032"
      ],
      "assetValues": [
        1
      ]
    },
    {
      "reservedAddress": "0xB47fc50E809394A778753f5798b6D7be0702E8b2",
      "assetIds": [
        "55464657044963196816950587289035428064568320970692304673817341489687556012032"
      ],
      "assetValues": [
        1
      ]
    },
    {
      "reservedAddress": "0xF2B51bAA7444a0037CA69e3c225dea4F16eAe431",
      "assetIds": [
        "55464657044963196816950587289035428064568320970692304673817341489687556012032"
      ],
      "assetValues": [
        1
      ]
    },
    {
      "reservedAddress": "0x25b1e5e5FF00c5E5de640fEA0e08bc87D54e7673",
      "assetIds": [
        "55464657044963196816950587289035428064568320970692304673817341489687556012032"
      ],
      "assetValues": [
        1
      ]
    },
    {
      "reservedAddress": "0x6eeF2766525632cd0ae69f953FC495847511a145",
      "assetIds": [
        "55464657044963196816950587289035428064568320970692304673817341489687556012032"
      ],
      "assetValues": [
        1
      ]
    },
    {
      "reservedAddress": "0xC3ce019D85416d9159c96bDC71AA1F8Cfe13Ae6f",
      "assetIds": [
        "55464657044963196816950587289035428064568320970692304673817341489687556012032"
      ],
      "assetValues": [
        1
      ]
    },
    {
      "reservedAddress": "0x80219bc109755083aDAC6B6dBf2A1fDcA0cB59Dd",
      "assetIds": [
        "55464657044963196816950587289035428064568320970692304673817341489687556012032"
      ],
      "assetValues": [
        1
      ]
    },
    {
      "reservedAddress": "0x811a4B37AE9f25DBe24dcba4D218606AAc19BEFD",
      "assetIds": [
        "55464657044963196816950587289035428064568320970692304673817341489687556012032"
      ],
      "assetValues": [
        1
      ]
    },
    {
      "reservedAddress": "0xc5E73E4B049428E9A961e5cB41697D3dEC4A242b",
      "assetIds": [
        "55464657044963196816950587289035428064568320970692304673817341489687556012032"
      ],
      "assetValues": [
        1
      ]
    },
    {
      "reservedAddress": "0xEAA07C7Ff9DFF576330b5Bf123aFEf5eEe4Df36C",
      "assetIds": [
        "55464657044963196816950587289035428064568320970692304673817341489687556012032"
      ],
      "assetValues": [
        1
      ]
    },
    {
      "reservedAddress": "0xCeB46d78c067E04c730CB007FDaB8Dc8aa5e6F08",
      "assetIds": [
        "55464657044963196816950587289035428064568320970692304673817341489687556012032"
      ],
      "assetValues": [
        1
      ]
    },
    {
      "reservedAddress": "0x268f3E5ad9579925fA4DE1323dF746d1cf0953C8",
      "assetIds": [
        "55464657044963196816950587289035428064568320970692304673817341489687556012032"
      ],
      "assetValues": [
        1
      ]
    },
    {
      "reservedAddress": "0x20DDEaa77d1bf4f06d311881A9E73403094b74aa",
      "assetIds": [
        "55464657044963196816950587289035428064568320970692304673817341489687556012032"
      ],
      "assetValues": [
        1
      ]
    },
    {
      "reservedAddress": "0x9Cc3a991EeDaE937614D5945Aa90F6bc55C803e9",
      "assetIds": [
        "55464657044963196816950587289035428064568320970692304673817341489687556012032"
      ],
      "assetValues": [
        1
      ]
    },
    {
      "reservedAddress": "0x3cc45c1a70a0387868C91D0166aC3B663A3C5Cf0",
      "assetIds": [
        "55464657044963196816950587289035428064568320970692304673817341489687556012032"
      ],
      "assetValues": [
        1
      ]
    },
    {
      "reservedAddress": "0x4F2C7EDF318368f02BB2984Eb829F7f6AD78f8CE",
      "assetIds": [
        "55464657044963196816950587289035428064568320970692304673817341489687556012032"
      ],
      "assetValues": [
        1
      ]
    },
    {
      "reservedAddress": "0xd2B30a492E0DE0bD9842BEfA115dc769b32eCCCD",
      "assetIds": [
        "55464657044963196816950587289035428064568320970692304673817341489687556012032"
      ],
      "assetValues": [
        1
      ]
    },
    {
      "reservedAddress": "0x4706419D62B90795C498952159a4526251979c61",
      "assetIds": [
        "55464657044963196816950587289035428064568320970692304673817341489687556012032"
      ],
      "assetValues": [
        1
      ]
    },
    {
      "reservedAddress": "0x75f8A306893e0081f1882533BAeDC57f6b6465D5",
      "assetIds": [
        "55464657044963196816950587289035428064568320970692304673817341489687556012032"
      ],
      "assetValues": [
        1
      ]
    },
    {
      "reservedAddress": "0xA91be0034c13525F6f22F5C7cA1d1Ec9925396a6",
      "assetIds": [
        "55464657044963196816950587289035428064568320970692304673817341489687556012032"
      ],
      "assetValues": [
        1
      ]
    },
    {
      "reservedAddress": "0x25157B2DFd7eE138Ee08E289Dca4fC22BB53Ca5c",
      "assetIds": [
        "55464657044963196816950587289035428064568320970692304673817341489687556012032"
      ],
      "assetValues": [
        1
      ]
    },
    {
      "reservedAddress": "0xeA84d239ba4E7794758F76c6F4c61eB3BE28Bcf6",
      "assetIds": [
        "55464657044963196816950587289035428064568320970692304673817341489687556012032"
      ],
      "assetValues": [
        1
      ]
    },
    {
      "reservedAddress": "0x250Dfab301081ef1A45394bc43f1aE2d4D23E4D0",
      "assetIds": [
        "55464657044963196816950587289035428064568320970692304673817341489687556012032"
      ],
      "assetValues": [
        1
      ]
    },
    {
      "reservedAddress": "0xD6f0Ec0F16f7B4eDb646130771160BD1f58E7710",
      "assetIds": [
        "55464657044963196816950587289035428064568320970692304673817341489687556012032"
      ],
      "assetValues": [
        1
      ]
    },
    {
      "reservedAddress": "0x7306d50342F3C957673c06ae33E481285b7a9747",
      "assetIds": [
        "55464657044963196816950587289035428064568320970692304673817341489687556012032"
      ],
      "assetValues": [
        1
      ]
    },
    {
      "reservedAddress": "0x2a411A97fe280a61242649a8eE5Da86eAb12BA0D",
      "assetIds": [
        "55464657044963196816950587289035428064568320970692304673817341489687556012032"
      ],
      "assetValues": [
        1
      ]
    },
    {
      "reservedAddress": "0xcC5e3F398777800C27964efFaB0Ea30316b53FFb",
      "assetIds": [
        "55464657044963196816950587289035428064568320970692304673817341489687556012032"
      ],
      "assetValues": [
        1
      ]
    },
    {
      "reservedAddress": "0xFD503Ed2791117Ec773142E7e7E95960048Ff4C1",
      "assetIds": [
        "55464657044963196816950587289035428064568320970692304673817341489687556012032"
      ],
      "assetValues": [
        1
      ]
    },
    {
      "reservedAddress": "0xaC96121ABBD9CcBc2BC28B85A66375f7765CFa4E",
      "assetIds": [
        "55464657044963196816950587289035428064568320970692304673817341489687556012032"
      ],
      "assetValues": [
        1
      ]
    },
    {
      "reservedAddress": "0xc805bfD09ABE3904ec5b5ABa26f3066341422E2C",
      "assetIds": [
        "55464657044963196816950587289035428064568320970692304673817341489687556012032"
      ],
      "assetValues": [
        1
      ]
    },
    {
      "reservedAddress": "0xC166e045687ca9934aEb426Fa157c44F94937ed9",
      "assetIds": [
        "55464657044963196816950587289035428064568320970692304673817341489687556012032"
      ],
      "assetValues": [
        1
      ]
    },
    {
      "reservedAddress": "0x4edE2Dd5Ab6a1814957468B377105CF97e99C636",
      "assetIds": [
        "55464657044963196816950587289035428064568320970692304673817341489687556012032"
      ],
      "assetValues": [
        1
      ]
    },
    {
      "reservedAddress": "0x898e608b76969545c06f775d7826378bBB45eD5b",
      "assetIds": [
        "55464657044963196816950587289035428064568320970692304673817341489687556012032"
      ],
      "assetValues": [
        1
      ]
    },
    {
      "reservedAddress": "0xC6A265dFde65d5Cab98375E75c5881354CD6566f",
      "assetIds": [
        "55464657044963196816950587289035428064568320970692304673817341489687556012032"
      ],
      "assetValues": [
        1
      ]
    },
    {
      "reservedAddress": "0x1af16fbd6d09468505cc9f992f7695baa6500f97",
      "assetIds": [
        "55464657044963196816950587289035428064568320970692304673817341489687556012032"
      ],
      "assetValues": [
        1
      ]
    },
    {
      "reservedAddress": "0x23e58CC7336bDD910872BFa002Fa346BeFA9Ed3a",
      "assetIds": [
        "55464657044963196816950587289035428064568320970692304673817341489687556012032"
      ],
      "assetValues": [
        1
      ]
    },
    {
      "reservedAddress": "0x2108d0CDfA1669d92D1659DBB607147CBE771C3E",
      "assetIds": [
        "55464657044963196816950587289035428064568320970692304673817341489687556012032"
      ],
      "assetValues": [
        1
      ]
    },
    {
      "reservedAddress": "0x7601d6b25EFEfb7F02adBd1Cf21a05eDD3D9dc2A",
      "assetIds": [
        "55464657044963196816950587289035428064568320970692304673817341489687556012032"
      ],
      "assetValues": [
        1
      ]
    },
    {
      "reservedAddress": "0x17bFda93c69eEb594BaD73205E5BE1ee0FecFCd4",
      "assetIds": [
        "55464657044963196816950587289035428064568320970692304673817341489687556012032"
      ],
      "assetValues": [
        1
      ]
    },
    {
      "reservedAddress": "0x6629ac9ADEd31Ce446b9e232E33DACBc30A6Ba1f",
      "assetIds": [
        "55464657044963196816950587289035428064568320970692304673817341489687556012032"
      ],
      "assetValues": [
        1
      ]
    },
    {
      "reservedAddress": "0x902f9Dd0f16119C0728AaBa74B9C0c343b589a5a",
      "assetIds": [
        "55464657044963196816950587289035428064568320970692304673817341489687556012032"
      ],
      "assetValues": [
        1
      ]
    },
    {
      "reservedAddress": "0xaC4A315c49a1877215160638B6Cc8849d46Add84",
      "assetIds": [
        "55464657044963196816950587289035428064568320970692304673817341489687556012032"
      ],
      "assetValues": [
        1
      ]
    },
    {
      "reservedAddress": "0x4A1DdAdBA96F6C1408eE27D39bFE07191ad9510E",
      "assetIds": [
        "55464657044963196816950587289035428064568320970692304673817341489687556012032"
      ],
      "assetValues": [
        1
      ]
    },
    {
      "reservedAddress": "0x8cA16925096d63607c9BE0f5b169e6A72c047350",
      "assetIds": [
        "55464657044963196816950587289035428064568320970692304673817341489687556012032"
      ],
      "assetValues": [
        1
      ]
    },
    {
      "reservedAddress": "0xb9870b0f60830EBa81436aba367028D3340EFAFe",
      "assetIds": [
        "55464657044963196816950587289035428064568320970692304673817341489687556012032"
      ],
      "assetValues": [
        1
      ]
    },
    {
      "reservedAddress": "0xE04AEF1Ca6E55528F2aa660979402dD20aBF5f8B",
      "assetIds": [
        "55464657044963196816950587289035428064568320970692304673817341489687556012032"
      ],
      "assetValues": [
        1
      ]
    },
    {
      "reservedAddress": "0xBB21dA8B4a1eDc564DF53f009EB0b6a36a2165D4",
      "assetIds": [
        "55464657044963196816950587289035428064568320970692304673817341489687556012032"
      ],
      "assetValues": [
        1
      ]
    },
    {
      "reservedAddress": "0x33326a2337eBe03136508c767e5bDff40Ef3e8C8",
      "assetIds": [
        "55464657044963196816950587289035428064568320970692304673817341489687556012032"
      ],
      "assetValues": [
        1
      ]
    },
    {
      "reservedAddress": "0x5f3999e1f6FEaCad4c09f9bc53a54893b9AF7A73",
      "assetIds": [
        "55464657044963196816950587289035428064568320970692304673817341489687556012032"
      ],
      "assetValues": [
        1
      ]
    },
    {
      "reservedAddress": "0x5121d18EAE0bE5BB57D6BB7907A9D49D9e5aF1Ef",
      "assetIds": [
        "55464657044963196816950587289035428064568320970692304673817341489687556012032"
      ],
      "assetValues": [
        1
      ]
    },
    {
      "reservedAddress": "0x7AE9452f5285e40240886d563D6FCE0AFb73d5c4",
      "assetIds": [
        "55464657044963196816950587289035428064568320970692304673817341489687556012032"
      ],
      "assetValues": [
        1
      ]
    },
    {
      "reservedAddress": "0x10D00f8fced0fa076E0b2885F26aBf7a1abCd7b6",
      "assetIds": [
        "55464657044963196816950587289035428064568320970692304673817341489687556012032"
      ],
      "assetValues": [
        1
      ]
    },
    {
      "reservedAddress": "0x639dAec464Bfd4fc5173FD957d6f4363cC96282f",
      "assetIds": [
        "55464657044963196816950587289035428064568320970692304673817341489687556012032"
      ],
      "assetValues": [
        1
      ]
    },
    {
      "reservedAddress": "0xE9E78aA92bef678e01D596D22e87Dc52f6F9fb97",
      "assetIds": [
        "55464657044963196816950587289035428064568320970692304673817341489687556012032"
      ],
      "assetValues": [
        1
      ]
    },
    {
      "reservedAddress": "0xf06eC6A4787DE6304be41Ca785af82126553EF3e",
      "assetIds": [
        "55464657044963196816950587289035428064568320970692304673817341489687556012032"
      ],
      "assetValues": [
        1
      ]
    },
    {
      "reservedAddress": "0x2071b1055AD0A4393c76113475284CfE48acc699",
      "assetIds": [
        "55464657044963196816950587289035428064568320970692304673817341489687556012032"
      ],
      "assetValues": [
        1
      ]
    },
    {
      "reservedAddress": "0x97371De7F7E331b2b381385Ca4F819D596aBA2b1",
      "assetIds": [
        "55464657044963196816950587289035428064568320970692304673817341489687556012032"
      ],
      "assetValues": [
        1
      ]
    },
    {
      "reservedAddress": "0xcf18C8b7948c2A3b8f644Fe3FE2c58D940f68629",
      "assetIds": [
        "55464657044963196816950587289035428064568320970692304673817341489687556012032"
      ],
      "assetValues": [
        1
      ]
    },
    {
      "reservedAddress": "0xc6FDF1F808B3aB3924d849fA6d95a9E0BF0e2f0D",
      "assetIds": [
        "55464657044963196816950587289035428064568320970692304673817341489687556012032"
      ],
      "assetValues": [
        1
      ]
    },
    {
      "reservedAddress": "0xFCeC217404fD464737Ced528D37BeFe8f0a2c909",
      "assetIds": [
        "55464657044963196816950587289035428064568320970692304673817341489687556012032"
      ],
      "assetValues": [
        1
      ]
    },
    {
      "reservedAddress": "0x4b44041FA0A8924b54003710C62EbD0a41c326C1",
      "assetIds": [
        "55464657044963196816950587289035428064568320970692304673817341489687556012032"
      ],
      "assetValues": [
        1
      ]
    },
    {
      "reservedAddress": "0xb06b838E5e8bb4c974898BE6e6d9Fb0c24E59EB6",
      "assetIds": [
        "55464657044963196816950587289035428064568320970692304673817341489687556012032"
      ],
      "assetValues": [
        1
      ]
    },
    {
      "reservedAddress": "0x890c50b080e4Fe1eC7226d480A96677cB83f334d",
      "assetIds": [
        "55464657044963196816950587289035428064568320970692304673817341489687556012032"
      ],
      "assetValues": [
        1
      ]
    },
    {
      "reservedAddress": "0xEBDfD7147aa4912902Aefae1A21e6Ea217A5BC77",
      "assetIds": [
        "55464657044963196816950587289035428064568320970692304673817341489687556012032"
      ],
      "assetValues": [
        1
      ]
    },
    {
      "reservedAddress": "0x64527e746683568b7e81f2c15764b536ACf35099",
      "assetIds": [
        "55464657044963196816950587289035428064568320970692304673817341489687556012032"
      ],
      "assetValues": [
        1
      ]
    },
    {
      "reservedAddress": "0x3c8d8e33bf37a4ce07aadea31c42705b2c3b7b74",
      "assetIds": [
        "55464657044963196816950587289035428064568320970692304673817341489687556012032"
      ],
      "assetValues": [
        1
      ]
    },
    {
      "reservedAddress": "0x76ddA921cC7AF202Ee6bd24A8eb166e3962537b9",
      "assetIds": [
        "55464657044963196816950587289035428064568320970692304673817341489687556012032"
      ],
      "assetValues": [
        1
      ]
    },
    {
      "reservedAddress": "0xC58Bd22FBC92bbe87DFB07930004009681D4E080",
      "assetIds": [
        "55464657044963196816950587289035428064568320970692304673817341489687556012032"
      ],
      "assetValues": [
        1
      ]
    },
    {
      "reservedAddress": "0x1696E77F1B57F4886EbBB491b62dBdAF08a86DFc",
      "assetIds": [
        "55464657044963196816950587289035428064568320970692304673817341489687556012032"
      ],
      "assetValues": [
        1
      ]
    },
    {
      "reservedAddress": "0x178c0131E02e0875f90C1F5B34c218D8e8083B38",
      "assetIds": [
        "55464657044963196816950587289035428064568320970692304673817341489687556012032"
      ],
      "assetValues": [
        1
      ]
    },
    {
      "reservedAddress": "0x384C6C3Eee7bAef2d97bADd0A18235B6B03a1321",
      "assetIds": [
        "55464657044963196816950587289035428064568320970692304673817341489687556012032"
      ],
      "assetValues": [
        1
      ]
    },
    {
      "reservedAddress": "0xd5Cf8eD074C3C4D6f127939cec59e04C2F14570A",
      "assetIds": [
        "55464657044963196816950587289035428064568320970692304673817341489687556012032"
      ],
      "assetValues": [
        1
      ]
    },
    {
      "reservedAddress": "0xB508A3534515c52008f4aaB759CF3AbdD587c10C",
      "assetIds": [
        "55464657044963196816950587289035428064568320970692304673817341489687556012032"
      ],
      "assetValues": [
        1
      ]
    },
    {
      "reservedAddress": "0xEAf052E3E2d08484497a4D02474b06c3781D0ADB",
      "assetIds": [
        "55464657044963196816950587289035428064568320970692304673817341489687556012032"
      ],
      "assetValues": [
        1
      ]
    },
    {
      "reservedAddress": "0x93e9d720Ae9Bb1f3b52ad7e137Ca5E4Da5c6146f",
      "assetIds": [
        "55464657044963196816950587289035428064568320970692304673817341489687556012032"
      ],
      "assetValues": [
        1
      ]
    },
    {
      "reservedAddress": "0x33a003FCf9a84d32b40B7946d313c54451ce28b4",
      "assetIds": [
        "55464657044963196816950587289035428064568320970692304673817341489687556012032"
      ],
      "assetValues": [
        1
      ]
    },
    {
      "reservedAddress": "0x0B7c0403CF7C9cfD599b55c05049740e5Ff4DC2f",
      "assetIds": [
        "55464657044963196816950587289035428064568320970692304673817341489687556012032"
      ],
      "assetValues": [
        1
      ]
    },
    {
      "reservedAddress": "0x40C23d7e8aa6FEc1c4E81E26bbCADeB66Bb46850",
      "assetIds": [
        "55464657044963196816950587289035428064568320970692304673817341489687556012032"
      ],
      "assetValues": [
        1
      ]
    },
    {
      "reservedAddress": "0xc0767a6e5d2aB17642FD72157AE94b327F12F90d",
      "assetIds": [
        "55464657044963196816950587289035428064568320970692304673817341489687556012032"
      ],
      "assetValues": [
        1
      ]
    },
    {
      "reservedAddress": "0x6516E85893237B28Cf2165D414BEc5768CA2D060",
      "assetIds": [
        "55464657044963196816950587289035428064568320970692304673817341489687556012032"
      ],
      "assetValues": [
        1
      ]
    },
    {
      "reservedAddress": "0xB4e95f6d0ff05bF615033c86dCf1B638AC1AAE1B",
      "assetIds": [
        "55464657044963196816950587289035428064568320970692304673817341489687556012032"
      ],
      "assetValues": [
        1
      ]
    },
    {
      "reservedAddress": "0xC46497cD756Fa1a8266Fd033c24eF0ded44B76bD",
      "assetIds": [
        "55464657044963196816950587289035428064568320970692304673817341489687556012032"
      ],
      "assetValues": [
        1
      ]
    },
    {
      "reservedAddress": "0xa0C318E9001E71a25BEC44936719C33493768430",
      "assetIds": [
        "55464657044963196816950587289035428064568320970692304673817341489687556012032"
      ],
      "assetValues": [
        1
      ]
    },
    {
      "reservedAddress": "0x0906cEc99834E5f7D3826828Df92A471dE1bcfd5",
      "assetIds": [
        "55464657044963196816950587289035428064568320970692304673817341489687556012032"
      ],
      "assetValues": [
        1
      ]
    },
    {
      "reservedAddress": "0xA6c70679050189F65d86C6ee8EC5A90a61fBC09e",
      "assetIds": [
        "55464657044963196816950587289035428064568320970692304673817341489687556012032"
      ],
      "assetValues": [
        1
      ]
    },
    {
      "reservedAddress": "0x5b4F0Ed6d9BEAd66D7Cc497989a44428585764CC",
      "assetIds": [
        "55464657044963196816950587289035428064568320970692304673817341489687556012032"
      ],
      "assetValues": [
        1
      ]
    },
    {
      "reservedAddress": "0xccDd3AFCe7aFa6DDd03567e1Af08c8F4EF350E9c",
      "assetIds": [
        "55464657044963196816950587289035428064568320970692304673817341489687556012032"
      ],
      "assetValues": [
        1
      ]
    },
    {
      "reservedAddress": "0xF93BeE3e6c159f51581E39DCBf97Db9727690A6a",
      "assetIds": [
        "55464657044963196816950587289035428064568320970692304673817341489687556012032"
      ],
      "assetValues": [
        1
      ]
    },
    {
      "reservedAddress": "0xA1c9122485F0369FbF876E5c635A144a46BdBB85",
      "assetIds": [
        "55464657044963196816950587289035428064568320970692304673817341489687556012032"
      ],
      "assetValues": [
        1
      ]
    },
    {
      "reservedAddress": "0x4732fb56DBB4A9eCe99C37D08ca4073046f86609",
      "assetIds": [
        "55464657044963196816950587289035428064568320970692304673817341489687556012032"
      ],
      "assetValues": [
        1
      ]
    },
    {
      "reservedAddress": "0x7509129d80f58B199290975432A436D66332eaae",
      "assetIds": [
        "55464657044963196816950587289035428064568320970692304673817341489687556012032"
      ],
      "assetValues": [
        1
      ]
    },
    {
      "reservedAddress": "0xe9Bdf177d0A9EB7037fb5CCa60AaAC683b879F36",
      "assetIds": [
        "55464657044963196816950587289035428064568320970692304673817341489687556012032"
      ],
      "assetValues": [
        1
      ]
    },
    {
      "reservedAddress": "0x4124cE5c4412CC766811440133AB22Badb8f4D84",
      "assetIds": [
        "55464657044963196816950587289035428064568320970692304673817341489687556012032"
      ],
      "assetValues": [
        1
      ]
    },
    {
      "reservedAddress": "0x49D30c2C40f45f2B51e4CA8488b0FCa375E41e83",
      "assetIds": [
        "55464657044963196816950587289035428064568320970692304673817341489687556012032"
      ],
      "assetValues": [
        1
      ]
    },
    {
      "reservedAddress": "0x8Af3cC205d733884072436eBc94385C8aE4F9303",
      "assetIds": [
        "55464657044963196816950587289035428064568320970692304673817341489687556012032"
      ],
      "assetValues": [
        1
      ]
    },
    {
      "reservedAddress": "0xb63bE10116f9a914cc3ef0b10356d6B50f091dD4",
      "assetIds": [
        "55464657044963196816950587289035428064568320970692304673817341489687556012032"
      ],
      "assetValues": [
        1
      ]
    },
    {
      "reservedAddress": "0x181B529AABfd67cBC459f164b7a72C6534A0E87E",
      "assetIds": [
        "55464657044963196816950587289035428064568320970692304673817341489687556012032"
      ],
      "assetValues": [
        1
      ]
    },
    {
      "reservedAddress": "0xD0B307dd2df28f243fE8e99E21FB7120DBaB81f9",
      "assetIds": [
        "55464657044963196816950587289035428064568320970692304673817341489687556012032"
      ],
      "assetValues": [
        1
      ]
    },
    {
      "reservedAddress": "0xcEb703DD0D70723238E291F09fA9fbC4F50ab53b",
      "assetIds": [
        "55464657044963196816950587289035428064568320970692304673817341489687556012032"
      ],
      "assetValues": [
        1
      ]
    },
    {
      "reservedAddress": "0x8C56e0559ed4b3FA0e6b69ac2Bb51e2418B6B88A",
      "assetIds": [
        "55464657044963196816950587289035428064568320970692304673817341489687556012032"
      ],
      "assetValues": [
        1
      ]
    },
    {
      "reservedAddress": "0x4435C95E15F25801Ad6Ca48924E4e3aF6492D259",
      "assetIds": [
        "55464657044963196816950587289035428064568320970692304673817341489687556012032"
      ],
      "assetValues": [
        1
      ]
    },
    {
      "reservedAddress": "0xe519d9293b9Ef828603C3dB1140ED82982B467b2",
      "assetIds": [
        "55464657044963196816950587289035428064568320970692304673817341489687556012032"
      ],
      "assetValues": [
        1
      ]
    },
    {
      "reservedAddress": "0x1FFCF2C06DDb6Fb78eA0b513fFf7A218b33c0785",
      "assetIds": [
        "55464657044963196816950587289035428064568320970692304673817341489687556012032"
      ],
      "assetValues": [
        1
      ]
    },
    {
      "reservedAddress": "0x89E7A08CFB76Fd64a67D31B310007a41be653a97",
      "assetIds": [
        "55464657044963196816950587289035428064568320970692304673817341489687556012032"
      ],
      "assetValues": [
        1
      ]
    },
    {
      "reservedAddress": "0x79c586f28cA5C86186bb4E2FfBEA280CEb2A451f",
      "assetIds": [
        "55464657044963196816950587289035428064568320970692304673817341489687556012032"
      ],
      "assetValues": [
        1
      ]
    },
    {
      "reservedAddress": "0xBBfc74F1F4Acf3b67675ccb6e48BcDCDd355D43B",
      "assetIds": [
        "55464657044963196816950587289035428064568320970692304673817341489687556012032"
      ],
      "assetValues": [
        1
      ]
    },
    {
      "reservedAddress": "0xaE4E5cAFB9ce252BbC8dC2d77910ad6c68165ccf",
      "assetIds": [
        "55464657044963196816950587289035428064568320970692304673817341489687556012032"
      ],
      "assetValues": [
        1
      ]
    },
    {
      "reservedAddress": "0x35012CC02Fd206d721Cb12E3dAC4Db5b72899d25",
      "assetIds": [
        "55464657044963196816950587289035428064568320970692304673817341489687556012032"
      ],
      "assetValues": [
        1
      ]
    },
    {
      "reservedAddress": "0x795ebA815cF0262Ef878Dbd1C64BF2715975dD84",
      "assetIds": [
        "55464657044963196816950587289035428064568320970692304673817341489687556012032"
      ],
      "assetValues": [
        1
      ]
    },
    {
      "reservedAddress": "0xa88775DD3AEbF51a8341Ccfa0c222d857493C498",
      "assetIds": [
        "55464657044963196816950587289035428064568320970692304673817341489687556012032"
      ],
      "assetValues": [
        1
      ]
    },
    {
      "reservedAddress": "0xf0e75E114469f1C59d293aDb3F48D3a6623B6a2e",
      "assetIds": [
        "55464657044963196816950587289035428064568320970692304673817341489687556012032"
      ],
      "assetValues": [
        1
      ]
    },
    {
      "reservedAddress": "0x4fD672C25a03c9b80b6AacFede578c39C282d076",
      "assetIds": [
        "55464657044963196816950587289035428064568320970692304673817341489687556012032"
      ],
      "assetValues": [
        1
      ]
    },
    {
      "reservedAddress": "0x005dd995Fb1e18c464995fBCFB7502cf421b0035",
      "assetIds": [
        "55464657044963196816950587289035428064568320970692304673817341489687556012032"
      ],
      "assetValues": [
        1
      ]
    },
    {
      "reservedAddress": "0x920D09Bfcb2c6cE2334eBA6fcc54B8EA015Bc4E6",
      "assetIds": [
        "55464657044963196816950587289035428064568320970692304673817341489687556012032"
      ],
      "assetValues": [
        1
      ]
    },
    {
      "reservedAddress": "0x6312f5818a6db4ca82096f7e3879785802f3f575",
      "assetIds": [
        "55464657044963196816950587289035428064568320970692304673817341489687556012032"
      ],
      "assetValues": [
        1
      ]
    },
    {
      "reservedAddress": "0x8352EC6B95B8fc75f28E02adE4c363c52572BD7E",
      "assetIds": [
        "55464657044963196816950587289035428064568320970692304673817341489687556012032"
      ],
      "assetValues": [
        1
      ]
    },
    {
      "reservedAddress": "0x71572b85407fa0dEF2e73e6c45d931fCC77c278A",
      "assetIds": [
        "55464657044963196816950587289035428064568320970692304673817341489687556012032"
      ],
      "assetValues": [
        1
      ]
    },
    {
      "reservedAddress": "0xaD498b0eCA40670626d27E966567F7349A54a1d0",
      "assetIds": [
        "55464657044963196816950587289035428064568320970692304673817341489687556012032"
      ],
      "assetValues": [
        1
      ]
    },
    {
      "reservedAddress": "0x867BeCA90F5219DaFc144AA8Bfe73f2F84339eF9",
      "assetIds": [
        "55464657044963196816950587289035428064568320970692304673817341489687556012032"
      ],
      "assetValues": [
        1
      ]
    },
    {
      "reservedAddress": "0x1e6774fB85Fce506Da6d4db1f0C16a40f790d697",
      "assetIds": [
        "55464657044963196816950587289035428064568320970692304673817341489687556012032"
      ],
      "assetValues": [
        1
      ]
    },
    {
      "reservedAddress": "0x58F1004e857673343fCC2d438E1693C756564bb9",
      "assetIds": [
        "55464657044963196816950587289035428064568320970692304673817341489687556012032"
      ],
      "assetValues": [
        1
      ]
    },
    {
      "reservedAddress": "0x8AcB96E9594B84f2cDeC94C42506DA8c846f9A52",
      "assetIds": [
        "55464657044963196816950587289035428064568320970692304673817341489687556012032"
      ],
      "assetValues": [
        1
      ]
    },
    {
      "reservedAddress": "0x38B7eB8DaC3193b1759764968a0b018568359a0C",
      "assetIds": [
        "55464657044963196816950587289035428064568320970692304673817341489687556012032"
      ],
      "assetValues": [
        1
      ]
    },
    {
      "reservedAddress": "0x2D66939cF5e9e03980903Bc4aeEE98f67162e058",
      "assetIds": [
        "55464657044963196816950587289035428064568320970692304673817341489687556012032"
      ],
      "assetValues": [
        1
      ]
    },
    {
      "reservedAddress": "0xF4aA2513D767A308416382b93f3102682Cc4FD3C",
      "assetIds": [
        "55464657044963196816950587289035428064568320970692304673817341489687556012032"
      ],
      "assetValues": [
        1
      ]
    },
    {
      "reservedAddress": "0x3d844aA16254778912F11529e6B22e1d5D17331e",
      "assetIds": [
        "55464657044963196816950587289035428064568320970692304673817341489687556012032"
      ],
      "assetValues": [
        1
      ]
    },
    {
      "reservedAddress": "0x5DF4eA102ee0B0cABF02d811Ac846102Cd74a66B",
      "assetIds": [
        "55464657044963196816950587289035428064568320970692304673817341489687556012032"
      ],
      "assetValues": [
        1
      ]
    },
    {
      "reservedAddress": "0x4a5294Ee54Ef7efC84970655dd58D9Ec540b7202",
      "assetIds": [
        "55464657044963196816950587289035428064568320970692304673817341489687556012032"
      ],
      "assetValues": [
        1
      ]
    },
    {
      "reservedAddress": "0x60A8292DE4823e0dC617770d9Ee67E0992C489cc",
      "assetIds": [
        "55464657044963196816950587289035428064568320970692304673817341489687556012032"
      ],
      "assetValues": [
        1
      ]
    },
    {
      "reservedAddress": "0x9E7cb9cF62E3F4c611260f54e617631A8Bc94D94",
      "assetIds": [
        "55464657044963196816950587289035428064568320970692304673817341489687556012032"
      ],
      "assetValues": [
        1
      ]
    },
    {
      "reservedAddress": "0x4cd4C5FEbdb22125A16477f8CdDA333271f189F6",
      "assetIds": [
        "55464657044963196816950587289035428064568320970692304673817341489687556012032"
      ],
      "assetValues": [
        1
      ]
    },
    {
      "reservedAddress": "0xc8b369e74528ac092fabd96f60c8b51adf06e2e6",
      "assetIds": [
        "55464657044963196816950587289035428064568320970692304673817341489687556012032"
      ],
      "assetValues": [
        1
      ]
    },
    {
      "reservedAddress": "0xFF79Ad62D19066E43B99eEd19f94E11b0E0B5688",
      "assetIds": [
        "55464657044963196816950587289035428064568320970692304673817341489687556012032"
      ],
      "assetValues": [
        1
      ]
    },
    {
      "reservedAddress": "0x8a53C76368E108eE881eaafc2B5Ed3C36961dF4D",
      "assetIds": [
        "55464657044963196816950587289035428064568320970692304673817341489687556012032"
      ],
      "assetValues": [
        1
      ]
    },
    {
      "reservedAddress": "0x152218f06a3e8d21798bf9F81A01Fdb8A64026AA",
      "assetIds": [
        "55464657044963196816950587289035428064568320970692304673817341489687556012032"
      ],
      "assetValues": [
        1
      ]
    },
    {
      "reservedAddress": "0x5068535986cd55A0769b4985c4EB303C96E6251D",
      "assetIds": [
        "55464657044963196816950587289035428064568320970692304673817341489687556012032"
      ],
      "assetValues": [
        1
      ]
    },
    {
      "reservedAddress": "0x8Aa5d99a661F8206e3EF6A1E6c79316d964f4e30",
      "assetIds": [
        "55464657044963196816950587289035428064568320970692304673817341489687556012032"
      ],
      "assetValues": [
        1
      ]
    },
    {
      "reservedAddress": "0x9A81175554c84c5553e1c4Cad0c5042e0bAaa5aC",
      "assetIds": [
        "55464657044963196816950587289035428064568320970692304673817341489687556012032"
      ],
      "assetValues": [
        1
      ]
    },
    {
      "reservedAddress": "0x7F6241Da54B8affBA2d3Af05C976F4BD723A649f",
      "assetIds": [
        "55464657044963196816950587289035428064568320970692304673817341489687556012032"
      ],
      "assetValues": [
        1
      ]
    },
    {
      "reservedAddress": "0xf171C1F06a2591dDf698c2ae6064D1BCbCa4e395",
      "assetIds": [
        "55464657044963196816950587289035428064568320970692304673817341489687556012032"
      ],
      "assetValues": [
        1
      ]
    },
    {
      "reservedAddress": "0x4d966ae5174F0E47836C1a7bb83d9610DeA57EBe",
      "assetIds": [
        "55464657044963196816950587289035428064568320970692304673817341489687556012032"
      ],
      "assetValues": [
        1
      ]
    },
    {
      "reservedAddress": "0x2df31158A7d3600C31616a193af77906Ce225BF5",
      "assetIds": [
        "55464657044963196816950587289035428064568320970692304673817341489687556012032"
      ],
      "assetValues": [
        1
      ]
    },
    {
      "reservedAddress": "0xBDA1E7FeAAA0791Bde451497Df22fe0C648AD8C8",
      "assetIds": [
        "55464657044963196816950587289035428064568320970692304673817341489687556012032"
      ],
      "assetValues": [
        1
      ]
    },
    {
      "reservedAddress": "0x01CCC5332FaDE6B97afDFB493BCE15593BC61086",
      "assetIds": [
        "55464657044963196816950587289035428064568320970692304673817341489687556012032"
      ],
      "assetValues": [
        1
      ]
    },
    {
      "reservedAddress": "0xc33980bd61991199b2ca51accdd5f25d1686ab05",
      "assetIds": [
        "55464657044963196816950587289035428064568320970692304673817341489687556012032"
      ],
      "assetValues": [
        1
      ]
    },
    {
      "reservedAddress": "0x75178936054E89A56263eFF03Af543F8c7fd53b3",
      "assetIds": [
        "55464657044963196816950587289035428064568320970692304673817341489687556012032"
      ],
      "assetValues": [
        1
      ]
    },
    {
      "reservedAddress": "0x7F7D7b253b2384fCD28107DFF6BB9e326E0c1881",
      "assetIds": [
        "55464657044963196816950587289035428064568320970692304673817341489687556012032"
      ],
      "assetValues": [
        1
      ]
    },
    {
      "reservedAddress": "0x36Cd4e5766e09c4e86D04a8f8812021E84644ED6",
      "assetIds": [
        "55464657044963196816950587289035428064568320970692304673817341489687556012032"
      ],
      "assetValues": [
        1
      ]
    },
    {
      "reservedAddress": "0x0B08bAD27096BB7C025B92Ca9881D5c824610861",
      "assetIds": [
        "55464657044963196816950587289035428064568320970692304673817341489687556012032"
      ],
      "assetValues": [
        1
      ]
    },
    {
      "reservedAddress": "0x1C27Dd86eAB44a24432e93E909C77781cF3183b9",
      "assetIds": [
        "55464657044963196816950587289035428064568320970692304673817341489687556012032"
      ],
      "assetValues": [
        1
      ]
    },
    {
      "reservedAddress": "0x0E55Ae9Ee1d2F975786eC1eBB6f607eFc3aA0Ab5",
      "assetIds": [
        "55464657044963196816950587289035428064568320970692304673817341489687556012032"
      ],
      "assetValues": [
        1
      ]
    },
    {
      "reservedAddress": "0x759Eb72Ee03d3e3A1a1D08827220a99f2Ef10511",
      "assetIds": [
        "55464657044963196816950587289035428064568320970692304673817341489687556012032"
      ],
      "assetValues": [
        1
      ]
    },
    {
      "reservedAddress": "0xB6cDac4B17569459266035335CDe926A382E3c37",
      "assetIds": [
        "55464657044963196816950587289035428064568320970692304673817341489687556012032"
      ],
      "assetValues": [
        1
      ]
    },
    {
      "reservedAddress": "0x73bcB35C1452c8CA19361A544aE81232dC27ff24",
      "assetIds": [
        "55464657044963196816950587289035428064568320970692304673817341489687556012032"
      ],
      "assetValues": [
        1
      ]
    },
    {
      "reservedAddress": "0xBDC0d363e5606c8e4a646b160aDa121A825A2673",
      "assetIds": [
        "55464657044963196816950587289035428064568320970692304673817341489687556012032"
      ],
      "assetValues": [
        1
      ]
    },
    {
      "reservedAddress": "0x230A4F12cF3F1b39de136fA462b8A553dF2150f1",
      "assetIds": [
        "55464657044963196816950587289035428064568320970692304673817341489687556012032"
      ],
      "assetValues": [
        1
      ]
    },
    {
      "reservedAddress": "0xF19dAf5af6F88d604394647361E19306e83f08c2",
      "assetIds": [
        "55464657044963196816950587289035428064568320970692304673817341489687556012032"
      ],
      "assetValues": [
        1
      ]
    },
    {
      "reservedAddress": "0xc4C8a56f9392112c780DdC0e9DF9C49FA685831D",
      "assetIds": [
        "55464657044963196816950587289035428064568320970692304673817341489687556012032"
      ],
      "assetValues": [
        1
      ]
    },
    {
      "reservedAddress": "0x0910AEd2f4a4b3E7F399F3d5Cf6EdacA132b83D0",
      "assetIds": [
        "55464657044963196816950587289035428064568320970692304673817341489687556012032"
      ],
      "assetValues": [
        1
      ]
    },
    {
      "reservedAddress": "0x7c53db9f37F8Ad3fe201811bb6f02bA31231198A",
      "assetIds": [
        "55464657044963196816950587289035428064568320970692304673817341489687556012032"
      ],
      "assetValues": [
        1
      ]
    },
    {
      "reservedAddress": "0xc2c3b2175d60A96635Ff195938C76569b7DB337f",
      "assetIds": [
        "55464657044963196816950587289035428064568320970692304673817341489687556012032"
      ],
      "assetValues": [
        1
      ]
    },
    {
      "reservedAddress": "0x736151BD5F37f64AE9188A68639d1D9d4aD9C6F7",
      "assetIds": [
        "55464657044963196816950587289035428064568320970692304673817341489687556012032"
      ],
      "assetValues": [
        1
      ]
    },
    {
      "reservedAddress": "0xf3Cfc051A1DEF18B6816257C7a3b4283367715c5",
      "assetIds": [
        "55464657044963196816950587289035428064568320970692304673817341489687556012032"
      ],
      "assetValues": [
        1
      ]
    },
    {
      "reservedAddress": "0x548563d51c3492c01aD2EF34A41631c9230Ea265",
      "assetIds": [
        "55464657044963196816950587289035428064568320970692304673817341489687556012032"
      ],
      "assetValues": [
        1
      ]
    },
    {
      "reservedAddress": "0x00B9EBB374310fa44c8402e9Be97c8f6fd335BaB",
      "assetIds": [
        "55464657044963196816950587289035428064568320970692304673817341489687556012032"
      ],
      "assetValues": [
        1
      ]
    },
    {
      "reservedAddress": "0xe4C3f1FAd187C2cc508eF8eF145dCeC66bB864Ca",
      "assetIds": [
        "55464657044963196816950587289035428064568320970692304673817341489687556012032"
      ],
      "assetValues": [
        1
      ]
    },
    {
      "reservedAddress": "0x22eb6584A48d46afb0E6032CE6ce0510311d0184",
      "assetIds": [
        "55464657044963196816950587289035428064568320970692304673817341489687556012032"
      ],
      "assetValues": [
        1
      ]
    },
    {
      "reservedAddress": "0xED5196Eacac04a94dAbec83C2fA8387b69BcbBb7",
      "assetIds": [
        "55464657044963196816950587289035428064568320970692304673817341489687556012032"
      ],
      "assetValues": [
        1
      ]
    },
    {
      "reservedAddress": "0x6f46ffd84e986DB7a464EA8486186A47feF5eB4c",
      "assetIds": [
        "55464657044963196816950587289035428064568320970692304673817341489687556012032"
      ],
      "assetValues": [
        1
      ]
    },
    {
      "reservedAddress": "0xb5960421B01b4672f5DC7cC377dfF56df44D020B",
      "assetIds": [
        "55464657044963196816950587289035428064568320970692304673817341489687556012032"
      ],
      "assetValues": [
        1
      ]
    },
    {
      "reservedAddress": "0x04c160DfCe93DeDBc60B509B7dB84761c1B3A690",
      "assetIds": [
        "55464657044963196816950587289035428064568320970692304673817341489687556012032"
      ],
      "assetValues": [
        1
      ]
    },
    {
      "reservedAddress": "0x04D4265C040Cd7CA1e8d78e654C7b607cF1CD719",
      "assetIds": [
        "55464657044963196816950587289035428064568320970692304673817341489687556012032"
      ],
      "assetValues": [
        1
      ]
    },
    {
      "reservedAddress": "0x835d9f4Df3e7dAC9a3242fDD1768338E3A84Fc90",
      "assetIds": [
        "55464657044963196816950587289035428064568320970692304673817341489687556012032"
      ],
      "assetValues": [
        1
      ]
    },
    {
      "reservedAddress": "0xa08F235264EC058333DBbDF2be8dc57751dC2210",
      "assetIds": [
        "55464657044963196816950587289035428064568320970692304673817341489687556012032"
      ],
      "assetValues": [
        1
      ]
    },
    {
      "reservedAddress": "0x2369E2c607d62a3C1e947d9D917Cf1A1cf15b8eA",
      "assetIds": [
        "55464657044963196816950587289035428064568320970692304673817341489687556012032"
      ],
      "assetValues": [
        1
      ]
    },
    {
      "reservedAddress": "0xeBbAD0f3683Ec34f5924317dC071c723723E210f",
      "assetIds": [
        "55464657044963196816950587289035428064568320970692304673817341489687556012032"
      ],
      "assetValues": [
        1
      ]
    },
    {
      "reservedAddress": "0xe99243D0565F8646F4938792550459e60B42D7e6",
      "assetIds": [
        "55464657044963196816950587289035428064568320970692304673817341489687556012032"
      ],
      "assetValues": [
        1
      ]
    },
    {
      "reservedAddress": "0x405cD27aC6edfEA72369bD718E52458e6f0EE2bE",
      "assetIds": [
        "55464657044963196816950587289035428064568320970692304673817341489687556012032"
      ],
      "assetValues": [
        1
      ]
    },
    {
      "reservedAddress": "0xDA2e1aBBf7c35BCE835AeeF4fbfc1D6e84Dd8A19",
      "assetIds": [
        "55464657044963196816950587289035428064568320970692304673817341489687556012032"
      ],
      "assetValues": [
        1
      ]
    },
    {
      "reservedAddress": "0xE05E96B9F1bCDd88C75C4B14F867fDD13702dAFe",
      "assetIds": [
        "55464657044963196816950587289035428064568320970692304673817341489687556012032"
      ],
      "assetValues": [
        1
      ]
    },
    {
      "reservedAddress": "0xF3B90eeb2076fe19f05304f866BC225DFeCbc5dc",
      "assetIds": [
        "55464657044963196816950587289035428064568320970692304673817341489687556012032"
      ],
      "assetValues": [
        1
      ]
    },
    {
      "reservedAddress": "0xbb2C3B9702be77E19b997Dd3dC9f4e1F99A33904",
      "assetIds": [
        "55464657044963196816950587289035428064568320970692304673817341489687556012032"
      ],
      "assetValues": [
        1
      ]
    },
    {
      "reservedAddress": "0x862A140848c91d87b25A94faCF6A00bE68A0332D",
      "assetIds": [
        "55464657044963196816950587289035428064568320970692304673817341489687556012032"
      ],
      "assetValues": [
        1
      ]
    },
    {
      "reservedAddress": "0x5c6B46C14E2bcB4f2d1DE07799Fb50c974aE7ba9",
      "assetIds": [
        "55464657044963196816950587289035428064568320970692304673817341489687556012032"
      ],
      "assetValues": [
        1
      ]
    },
    {
      "reservedAddress": "0x4F0Ed8A9308941e7c39458946C76e6324855cC82",
      "assetIds": [
        "55464657044963196816950587289035428064568320970692304673817341489687556012032"
      ],
      "assetValues": [
        1
      ]
    },
    {
      "reservedAddress": "0xC49BC0aCFB61Dd7A1591328F24a13Fa45c0526A7",
      "assetIds": [
        "55464657044963196816950587289035428064568320970692304673817341489687556012032"
      ],
      "assetValues": [
        1
      ]
    },
    {
      "reservedAddress": "0xBb170c82D20B890614f1C0b5E34128F1dB93a479",
      "assetIds": [
        "55464657044963196816950587289035428064568320970692304673817341489687556012032"
      ],
      "assetValues": [
        1
      ]
    },
    {
      "reservedAddress": "0xaf1aC8DF171966CE5684304316c803C132D861DC",
      "assetIds": [
        "55464657044963196816950587289035428064568320970692304673817341489687556012032"
      ],
      "assetValues": [
        1
      ]
    },
    {
      "reservedAddress": "0xD5972EB267792C21bb76728301a8b0EAa0A75B26",
      "assetIds": [
        "55464657044963196816950587289035428064568320970692304673817341489687556012032"
      ],
      "assetValues": [
        1
      ]
    },
    {
      "reservedAddress": "0xeDa7D690f99c2500203b8A0262D066C4b5Bae732",
      "assetIds": [
        "55464657044963196816950587289035428064568320970692304673817341489687556012032"
      ],
      "assetValues": [
        1
      ]
    },
    {
      "reservedAddress": "0x7D2560234Df9e377766655AFe4C3Fe40944b3240",
      "assetIds": [
        "55464657044963196816950587289035428064568320970692304673817341489687556012032"
      ],
      "assetValues": [
        1
      ]
    },
    {
      "reservedAddress": "0x1AC380A50fd4B8FF2e8Eee9befa1986EDEB59F3f",
      "assetIds": [
        "55464657044963196816950587289035428064568320970692304673817341489687556012032"
      ],
      "assetValues": [
        1
      ]
    },
    {
      "reservedAddress": "0x31a226a2239C2277BC1A23b8010c05AF722Bef13",
      "assetIds": [
        "55464657044963196816950587289035428064568320970692304673817341489687556012032"
      ],
      "assetValues": [
        1
      ]
    },
    {
      "reservedAddress": "0xac97fA930E638297846D0bc132fCd76ed853028A",
      "assetIds": [
        "55464657044963196816950587289035428064568320970692304673817341489687556012032"
      ],
      "assetValues": [
        1
      ]
    },
    {
      "reservedAddress": "0xf7D1f1C12995796D1a5EaFEa8FFeC1Ac5A8e5FD5",
      "assetIds": [
        "55464657044963196816950587289035428064568320970692304673817341489687556012032"
      ],
      "assetValues": [
        1
      ]
    },
    {
      "reservedAddress": "0xEf33f37CF19502772C99Ca6d1E2D96dfe00FD063",
      "assetIds": [
        "55464657044963196816950587289035428064568320970692304673817341489687556012032"
      ],
      "assetValues": [
        1
      ]
    },
    {
      "reservedAddress": "0xF9cF042f63fC1379387D4E06340AeDf8afe56Ca2",
      "assetIds": [
        "55464657044963196816950587289035428064568320970692304673817341489687556012032"
      ],
      "assetValues": [
        1
      ]
    },
    {
      "reservedAddress": "0xD28C64Bf16106D4E80Da1Adcaafa774049D1DfBB",
      "assetIds": [
        "55464657044963196816950587289035428064568320970692304673817341489687556012032"
      ],
      "assetValues": [
        1
      ]
    },
    {
      "reservedAddress": "0x480E9473D4063396ab8DF82c89dF560a82aAf1dE",
      "assetIds": [
        "55464657044963196816950587289035428064568320970692304673817341489687556012032"
      ],
      "assetValues": [
        1
      ]
    },
    {
      "reservedAddress": "0x4D0562129A242d968886627efD62eB0DFB4D9658",
      "assetIds": [
        "55464657044963196816950587289035428064568320970692304673817341489687556012032"
      ],
      "assetValues": [
        1
      ]
    },
    {
      "reservedAddress": "0x2dcF79de1e29ED021A6486cCC9E28298E4a55380",
      "assetIds": [
        "55464657044963196816950587289035428064568320970692304673817341489687556012032"
      ],
      "assetValues": [
        1
      ]
    },
    {
      "reservedAddress": "0x54E13eC7c59Ccb6893E1b13Cb30A6081E7281caE",
      "assetIds": [
        "55464657044963196816950587289035428064568320970692304673817341489687556012032"
      ],
      "assetValues": [
        1
      ]
    },
    {
      "reservedAddress": "0x38FC00E4E3B80738D081d89F5A0f33607B3b6ee8",
      "assetIds": [
        "55464657044963196816950587289035428064568320970692304673817341489687556012032"
      ],
      "assetValues": [
        1
      ]
    },
    {
      "reservedAddress": "0xDf64Ae6530576f765A275dc36964B3239fdb5fCB",
      "assetIds": [
        "55464657044963196816950587289035428064568320970692304673817341489687556012032"
      ],
      "assetValues": [
        1
      ]
    },
    {
      "reservedAddress": "0xEaa82f0Ef5A84A92ce3F0Bd920E6AEF2340A73c7",
      "assetIds": [
        "55464657044963196816950587289035428064568320970692304673817341489687556012032"
      ],
      "assetValues": [
        1
      ]
    },
    {
      "reservedAddress": "0xc1d9af01a545C03b7EBf3E8bd72837c853B7f4a8",
      "assetIds": [
        "55464657044963196816950587289035428064568320970692304673817341489687556012032"
      ],
      "assetValues": [
        1
      ]
    },
    {
      "reservedAddress": "0xA0ad8E17b1ECA710bc9Ad905eA803DeEc595F3B1",
      "assetIds": [
        "55464657044963196816950587289035428064568320970692304673817341489687556012032"
      ],
      "assetValues": [
        1
      ]
    },
    {
      "reservedAddress": "0x400A7fBCb34072Cbbb6f9391674E86ca07efF107",
      "assetIds": [
        "55464657044963196816950587289035428064568320970692304673817341489687556012032"
      ],
      "assetValues": [
        1
      ]
    },
    {
      "reservedAddress": "0xe821c76EEa9Abde3b6F9D9A67D1c291D631ed7E7",
      "assetIds": [
        "55464657044963196816950587289035428064568320970692304673817341489687556012032"
      ],
      "assetValues": [
        1
      ]
    },
    {
      "reservedAddress": "0x74999A38AAC4185E10A0D1C9717c7dEBa4DCe857",
      "assetIds": [
        "55464657044963196816950587289035428064568320970692304673817341489687556012032"
      ],
      "assetValues": [
        1
      ]
    },
    {
      "reservedAddress": "0x926C705bf54feAB612C1036a57F5dCa2D4E0bB5f",
      "assetIds": [
        "55464657044963196816950587289035428064568320970692304673817341489687556012032"
      ],
      "assetValues": [
        1
      ]
    },
    {
      "reservedAddress": "0x6aFE2D802042E6aC56240075f1f5dE41a01DD806",
      "assetIds": [
        "55464657044963196816950587289035428064568320970692304673817341489687556012032"
      ],
      "assetValues": [
        1
      ]
    },
    {
      "reservedAddress": "0x891eF29F1bf141047caB10F9cBcbb9C7adC7e829",
      "assetIds": [
        "55464657044963196816950587289035428064568320970692304673817341489687556012032"
      ],
      "assetValues": [
        1
      ]
    },
    {
      "reservedAddress": "0x8E4D71960157C2CF5eC103ADBbcE2C342E01299B",
      "assetIds": [
        "55464657044963196816950587289035428064568320970692304673817341489687556012032"
      ],
      "assetValues": [
        1
      ]
    },
    {
      "reservedAddress": "0x7aD5De13BEd2D5FC10D2251f0b88e0D5A76fc4f7",
      "assetIds": [
        "55464657044963196816950587289035428064568320970692304673817341489687556012032"
      ],
      "assetValues": [
        1
      ]
    },
    {
      "reservedAddress": "0x1378FeeB233AC7F991D721bc5C238578305B45CC",
      "assetIds": [
        "55464657044963196816950587289035428064568320970692304673817341489687556012032"
      ],
      "assetValues": [
        1
      ]
    },
    {
      "reservedAddress": "0xFA257390CB399970281eCdFB57d13e21558384fA",
      "assetIds": [
        "55464657044963196816950587289035428064568320970692304673817341489687556012032"
      ],
      "assetValues": [
        1
      ]
    },
    {
      "reservedAddress": "0xC2A8002D73A0Fc47169F49eb3afE2F6C45079f6d",
      "assetIds": [
        "55464657044963196816950587289035428064568320970692304673817341489687556012032"
      ],
      "assetValues": [
        1
      ]
    },
    {
      "reservedAddress": "0xfb73fb56Ff3386a0046A1819a72B5ae653926bE9",
      "assetIds": [
        "55464657044963196816950587289035428064568320970692304673817341489687556012032"
      ],
      "assetValues": [
        1
      ]
    },
    {
      "reservedAddress": "0x679Ec3F8bd6151076abE72342f194aAaB606eb64",
      "assetIds": [
        "55464657044963196816950587289035428064568320970692304673817341489687556012032"
      ],
      "assetValues": [
        1
      ]
    },
    {
      "reservedAddress": "0xcC711a2599f75fBBAB498485d29AdD8bDE5465a4",
      "assetIds": [
        "55464657044963196816950587289035428064568320970692304673817341489687556012032"
      ],
      "assetValues": [
        1
      ]
    },
    {
      "reservedAddress": "0x3f18b8b7ea6a6F6715dE3b75434d45051B495B44",
      "assetIds": [
        "55464657044963196816950587289035428064568320970692304673817341489687556012032"
      ],
      "assetValues": [
        1
      ]
    },
    {
      "reservedAddress": "0x03948AE197157cC0d280B63c34392fD328852a2d",
      "assetIds": [
        "55464657044963196816950587289035428064568320970692304673817341489687556012032"
      ],
      "assetValues": [
        1
      ]
    },
    {
      "reservedAddress": "0x9Dd497e822Ab74801eA639600E844fAAB5D85534",
      "assetIds": [
        "55464657044963196816950587289035428064568320970692304673817341489687556012032"
      ],
      "assetValues": [
        1
      ]
    },
    {
      "reservedAddress": "0x192513387b1BC31597EbF9f858e19bcb410EaD6B",
      "assetIds": [
        "55464657044963196816950587289035428064568320970692304673817341489687556012032"
      ],
      "assetValues": [
        1
      ]
    },
    {
      "reservedAddress": "0x2Fc5fD599d3e3c1DeC8bEe2CfC7e51bC775a3baf",
      "assetIds": [
        "55464657044963196816950587289035428064568320970692304673817341489687556012032"
      ],
      "assetValues": [
        1
      ]
    },
    {
      "reservedAddress": "0x801986A185E89559bAc215848C312309b9f8D6cA",
      "assetIds": [
        "55464657044963196816950587289035428064568320970692304673817341489687556012032"
      ],
      "assetValues": [
        1
      ]
    },
    {
      "reservedAddress": "0x9377e83EE6ff2351E331F76260Ac794A81E6e35b",
      "assetIds": [
        "55464657044963196816950587289035428064568320970692304673817341489687556012032"
      ],
      "assetValues": [
        1
      ]
    },
    {
      "reservedAddress": "0x22e4B60cf5B300dE1FB07c8277e6330Da9EB2A76",
      "assetIds": [
        "55464657044963196816950587289035428064568320970692304673817341489687556012032"
      ],
      "assetValues": [
        1
      ]
    },
    {
      "reservedAddress": "0x303Dcf0Fe9856D209d38699B45a93345DCdeE2F8",
      "assetIds": [
        "55464657044963196816950587289035428064568320970692304673817341489687556012032"
      ],
      "assetValues": [
        1
      ]
    },
    {
      "reservedAddress": "0xE7972cfbcDB4F582662114C279D6Feee09d7544a",
      "assetIds": [
        "55464657044963196816950587289035428064568320970692304673817341489687556012032"
      ],
      "assetValues": [
        1
      ]
    },
    {
      "reservedAddress": "0x84ED2dD7925B5757d2a3ce1a12e1840E371E0067",
      "assetIds": [
        "55464657044963196816950587289035428064568320970692304673817341489687556012032"
      ],
      "assetValues": [
        1
      ]
    },
    {
      "reservedAddress": "0xdf8c962c1D938AB04A1D7EC9F00255256676E761",
      "assetIds": [
        "55464657044963196816950587289035428064568320970692304673817341489687556012032"
      ],
      "assetValues": [
        1
      ]
    },
    {
      "reservedAddress": "0x597dC4159a4b85c086c3C679a0B6c8Fe2836886F",
      "assetIds": [
        "55464657044963196816950587289035428064568320970692304673817341489687556012032"
      ],
      "assetValues": [
        1
      ]
    },
    {
      "reservedAddress": "0xb0e7c409706eb2D6Bd5B68C0722B0b1dd3627dCb",
      "assetIds": [
        "55464657044963196816950587289035428064568320970692304673817341489687556012032"
      ],
      "assetValues": [
        1
      ]
    },
    {
      "reservedAddress": "0x12CDB1a87d5fBf5fda153aACE9622090f879eDB3",
      "assetIds": [
        "55464657044963196816950587289035428064568320970692304673817341489687556012032"
      ],
      "assetValues": [
        1
      ]
    },
    {
      "reservedAddress": "0xDb54b7f05c977C67317a1315dEF94A0bca1D423b",
      "assetIds": [
        "55464657044963196816950587289035428064568320970692304673817341489687556012032"
      ],
      "assetValues": [
        1
      ]
    },
    {
      "reservedAddress": "0x4731bc96bb68bc98c4a66548bffd9884538bf4e2",
      "assetIds": [
        "55464657044963196816950587289035428064568320970692304673817341489687556012032"
      ],
      "assetValues": [
        1
      ]
    },
    {
      "reservedAddress": "0xDe4c4f03306B9EEA9bD70801F74648A86aF1E14D",
      "assetIds": [
        "55464657044963196816950587289035428064568320970692304673817341489687556012032"
      ],
      "assetValues": [
        1
      ]
    },
    {
      "reservedAddress": "0x30709238D0026A0733f958031Dede4208A1bffC6",
      "assetIds": [
        "55464657044963196816950587289035428064568320970692304673817341489687556012032"
      ],
      "assetValues": [
        1
      ]
    },
    {
      "reservedAddress": "0x4B3e6680D5787c052492572e1e1eE77Cd0733F55",
      "assetIds": [
        "55464657044963196816950587289035428064568320970692304673817341489687556012032"
      ],
      "assetValues": [
        1
      ]
    },
    {
      "reservedAddress": "0x70C5b45bc5E1ffb0f0fF15F2606e161B5DB35e72",
      "assetIds": [
        "55464657044963196816950587289035428064568320970692304673817341489687556012032"
      ],
      "assetValues": [
        1
      ]
    },
    {
      "reservedAddress": "0x64B0643e3fF95C7dAe0562356401D1827be1121f",
      "assetIds": [
        "55464657044963196816950587289035428064568320970692304673817341489687556012032"
      ],
      "assetValues": [
        1
      ]
    },
    {
      "reservedAddress": "0x83582e922147DffCc9021b5fFfC536A6fd537e31",
      "assetIds": [
        "55464657044963196816950587289035428064568320970692304673817341489687556012032"
      ],
      "assetValues": [
        1
      ]
    },
    {
      "reservedAddress": "0x60606e92777B6097a2C4D19C79433837f725C5Bb",
      "assetIds": [
        "55464657044963196816950587289035428064568320970692304673817341489687556012032"
      ],
      "assetValues": [
        1
      ]
    },
    {
      "reservedAddress": "0x649E59868CAF2F15d10899B4a9CBf1407fB61f15",
      "assetIds": [
        "55464657044963196816950587289035428064568320970692304673817341489687556012032"
      ],
      "assetValues": [
        1
      ]
    },
    {
      "reservedAddress": "0x487ef78eDEABA6ce7c27198D35999249c7502538",
      "assetIds": [
        "55464657044963196816950587289035428064568320970692304673817341489687556012032"
      ],
      "assetValues": [
        1
      ]
    },
    {
      "reservedAddress": "0x39419b9A58ed9Cf50C55eC4fcDaC91eCb056de22",
      "assetIds": [
        "55464657044963196816950587289035428064568320970692304673817341489687556012032"
      ],
      "assetValues": [
        1
      ]
    },
    {
      "reservedAddress": "0xB4FaA23A96234d39E63517B22ae0943D34e370A7",
      "assetIds": [
        "55464657044963196816950587289035428064568320970692304673817341489687556012032"
      ],
      "assetValues": [
        1
      ]
    },
    {
      "reservedAddress": "0xEFB0107CE936a889c15d3CF0a013Ad9Cd968bC29",
      "assetIds": [
        "55464657044963196816950587289035428064568320970692304673817341489687556012032"
      ],
      "assetValues": [
        1
      ]
    },
    {
      "reservedAddress": "0x8B3D3D0dDff457F3beDaB312b13fF2D81f21aaa4",
      "assetIds": [
        "55464657044963196816950587289035428064568320970692304673817341489687556012032"
      ],
      "assetValues": [
        1
      ]
    },
    {
      "reservedAddress": "0x7FE9dB29476c9A27c749A66F6Ea266b5b0490C69",
      "assetIds": [
        "55464657044963196816950587289035428064568320970692304673817341489687556012032"
      ],
      "assetValues": [
        1
      ]
    },
    {
      "reservedAddress": "0xbb7693201028aaB7c1970647C303D04736C20b97",
      "assetIds": [
        "55464657044963196816950587289035428064568320970692304673817341489687556012032"
      ],
      "assetValues": [
        1
      ]
    },
    {
      "reservedAddress": "0xFfF935BeD2Db033a048C1Eb8Ff58A3a4131a54A0",
      "assetIds": [
        "55464657044963196816950587289035428064568320970692304673817341489687556012032"
      ],
      "assetValues": [
        1
      ]
    },
    {
      "reservedAddress": "0x0CCB08f06faC0f4cAa58D6cDb2Cd7C48308F3227",
      "assetIds": [
        "55464657044963196816950587289035428064568320970692304673817341489687556012032"
      ],
      "assetValues": [
        1
      ]
    },
    {
      "reservedAddress": "0xd9ecc091956d41246da7a0a589b2c24e403eaabe",
      "assetIds": [
        "55464657044963196816950587289035428064568320970692304673817341489687556012032"
      ],
      "assetValues": [
        1
      ]
    },
    {
      "reservedAddress": "0x52D8CaCa7106F942b63d5c25Aa26DFdfBecd4fcd",
      "assetIds": [
        "55464657044963196816950587289035428064568320970692304673817341489687556012032"
      ],
      "assetValues": [
        1
      ]
    },
    {
      "reservedAddress": "0x6BdbD013B9E6D3D669A5C33673911AF794E92C58",
      "assetIds": [
        "55464657044963196816950587289035428064568320970692304673817341489687556012032"
      ],
      "assetValues": [
        1
      ]
    },
    {
      "reservedAddress": "0xe9895144c8aba9871e552ea56900abb5d435da45",
      "assetIds": [
        "55464657044963196816950587289035428064568320970692304673817341489687556012032"
      ],
      "assetValues": [
        1
      ]
    },
    {
      "reservedAddress": "0x18a9be8B046D77a82d0a37758A03d4a5dF74a837",
      "assetIds": [
        "55464657044963196816950587289035428064568320970692304673817341489687556012032"
      ],
      "assetValues": [
        1
      ]
    },
    {
      "reservedAddress": "0x08750eb0FE6861Be277E69b5fbaE401B5f98BD40",
      "assetIds": [
        "55464657044963196816950587289035428064568320970692304673817341489687556012032"
      ],
      "assetValues": [
        1
      ]
    },
    {
      "reservedAddress": "0x7D3B8Ba6E97eFD09acA212D79FC3b7ac0e267310",
      "assetIds": [
        "55464657044963196816950587289035428064568320970692304673817341489687556012032"
      ],
      "assetValues": [
        1
      ]
    },
    {
      "reservedAddress": "0xd278Ec91b63ce1ef111773c184909837e758b6e9",
      "assetIds": [
        "55464657044963196816950587289035428064568320970692304673817341489687556012032"
      ],
      "assetValues": [
        1
      ]
    },
    {
      "reservedAddress": "0x835b3e15898562F34620c99D9C076e5718cC9e2A",
      "assetIds": [
        "55464657044963196816950587289035428064568320970692304673817341489687556012032"
      ],
      "assetValues": [
        1
      ]
    },
    {
      "reservedAddress": "0xFe12fc6472dd9148e1809c6D0ECF0A6655CCc0B4",
      "assetIds": [
        "55464657044963196816950587289035428064568320970692304673817341489687556012032"
      ],
      "assetValues": [
        1
      ]
    },
    {
      "reservedAddress": "0xB8AB766CbD6831f208533C3E943e879700e7AD7b",
      "assetIds": [
        "55464657044963196816950587289035428064568320970692304673817341489687556012032"
      ],
      "assetValues": [
        1
      ]
    },
    {
      "reservedAddress": "0xc2cbf6E47294C642802052e934e8ac9cEBd68b94",
      "assetIds": [
        "55464657044963196816950587289035428064568320970692304673817341489687556012032"
      ],
      "assetValues": [
        1
      ]
    },
    {
      "reservedAddress": "0x723b2FabAD66247c025d85DFDd8Bd8453D6c3f28",
      "assetIds": [
        "55464657044963196816950587289035428064568320970692304673817341489687556012032"
      ],
      "assetValues": [
        1
      ]
    },
    {
      "reservedAddress": "0xe9B6f5BB5E77779963B78022A3eE1c23567BB140",
      "assetIds": [
        "55464657044963196816950587289035428064568320970692304673817341489687556012032"
      ],
      "assetValues": [
        1
      ]
    },
    {
      "reservedAddress": "0xC332cB1CBdF161601E483B2aA9832219778C9a19",
      "assetIds": [
        "55464657044963196816950587289035428064568320970692304673817341489687556012032"
      ],
      "assetValues": [
        1
      ]
    },
    {
      "reservedAddress": "0xC37e0308274c2741E1e221ddc1F1495Ae3B4d3a5",
      "assetIds": [
        "55464657044963196816950587289035428064568320970692304673817341489687556012032"
      ],
      "assetValues": [
        1
      ]
    },
    {
      "reservedAddress": "0x7F7b2629069C17868e429CEf8419416E573ceeEc",
      "assetIds": [
        "55464657044963196816950587289035428064568320970692304673817341489687556012032"
      ],
      "assetValues": [
        1
      ]
    },
    {
      "reservedAddress": "0xaCd58f395df0631056Ba3e498A120D293E3527d5",
      "assetIds": [
        "55464657044963196816950587289035428064568320970692304673817341489687556012032"
      ],
      "assetValues": [
        1
      ]
    },
    {
      "reservedAddress": "0xd6c046e4b92b77cb8b62afcd3f7285c871998211",
      "assetIds": [
        "55464657044963196816950587289035428064568320970692304673817341489687556012032"
      ],
      "assetValues": [
        1
      ]
    },
    {
      "reservedAddress": "0x395497f16bCE40a7E8d3fdc3b55DDC1a66C5CC27",
      "assetIds": [
        "55464657044963196816950587289035428064568320970692304673817341489687556012032"
      ],
      "assetValues": [
        1
      ]
    },
    {
      "reservedAddress": "0x99C13cB5f66Ad6e221426Ac5eED94a227809eB29",
      "assetIds": [
        "55464657044963196816950587289035428064568320970692304673817341489687556012032"
      ],
      "assetValues": [
        1
      ]
    },
    {
      "reservedAddress": "0xa8FfcCd919aA34c3f3C103B62a42cd42Daea81f1",
      "assetIds": [
        "55464657044963196816950587289035428064568320970692304673817341489687556012032"
      ],
      "assetValues": [
        1
      ]
    },
    {
      "reservedAddress": "0x7E69FC317D61F0F7045c60715dC18d7858731b4c",
      "assetIds": [
        "55464657044963196816950587289035428064568320970692304673817341489687556012032"
      ],
      "assetValues": [
        1
      ]
    },
    {
      "reservedAddress": "0x0cf5e05340b14c1d66dc056dd819ce27d1f3403d",
      "assetIds": [
        "55464657044963196816950587289035428064568320970692304673817341489687556012032"
      ],
      "assetValues": [
        1
      ]
    },
    {
      "reservedAddress": "0xddA42DA2cFce8F36d3D3b59B80075b378fB14f70",
      "assetIds": [
        "55464657044963196816950587289035428064568320970692304673817341489687556012032"
      ],
      "assetValues": [
        1
      ]
    },
    {
      "reservedAddress": "0x2E0f501Ab591C76407DBe386D0337EeF33D1797a",
      "assetIds": [
        "55464657044963196816950587289035428064568320970692304673817341489687556012032"
      ],
      "assetValues": [
        1
      ]
    },
    {
      "reservedAddress": "0x697fd4993D38cDA66D8cd78B26CDca35FE8fB767",
      "assetIds": [
        "55464657044963196816950587289035428064568320970692304673817341489687556012032"
      ],
      "assetValues": [
        1
      ]
    },
    {
      "reservedAddress": "0xf32918e01b5c25C7796B6CF2331736d490E79E67",
      "assetIds": [
        "55464657044963196816950587289035428064568320970692304673817341489687556012032"
      ],
      "assetValues": [
        1
      ]
    },
    {
      "reservedAddress": "0xd80954BF62e64fC6f3Bd7E532EB9c76B3bd887D3",
      "assetIds": [
        "55464657044963196816950587289035428064568320970692304673817341489687556012032"
      ],
      "assetValues": [
        1
      ]
    },
    {
      "reservedAddress": "0x77f390854088F0256823D4573d8035B76320fC4D",
      "assetIds": [
        "55464657044963196816950587289035428064568320970692304673817341489687556012032"
      ],
      "assetValues": [
        1
      ]
    },
    {
      "reservedAddress": "0xf575617f684262de60f0ad0cd7ffb762ae712340",
      "assetIds": [
        "55464657044963196816950587289035428064568320970692304673817341489687556012032"
      ],
      "assetValues": [
        1
      ]
    },
    {
      "reservedAddress": "0x09c96E2706c86B3C406f27a4C8d5204dC07A9B89",
      "assetIds": [
        "55464657044963196816950587289035428064568320970692304673817341489687556012032"
      ],
      "assetValues": [
        1
      ]
    },
    {
      "reservedAddress": "0xbC9570205Dd8397802e573526bf6107E5E21D811",
      "assetIds": [
        "55464657044963196816950587289035428064568320970692304673817341489687556012032"
      ],
      "assetValues": [
        1
      ]
    },
    {
      "reservedAddress": "0xa9cBF4d76F0127F91399D684D32F028CeFb0012f",
      "assetIds": [
        "55464657044963196816950587289035428064568320970692304673817341489687556012032"
      ],
      "assetValues": [
        1
      ]
    },
    {
      "reservedAddress": "0xDFD2144eb8CC1212551d50b00b18a2fEfcf6762b",
      "assetIds": [
        "55464657044963196816950587289035428064568320970692304673817341489687556012032"
      ],
      "assetValues": [
        1
      ]
    },
    {
      "reservedAddress": "0x6Afd5c8C665899Cf087A0D837Ff28818a3fabfE9",
      "assetIds": [
        "55464657044963196816950587289035428064568320970692304673817341489687556012032"
      ],
      "assetValues": [
        1
      ]
    },
    {
      "reservedAddress": "0x63dc5FfB1e1c6206fB590b6f10bf199c1dffc9BA",
      "assetIds": [
        "55464657044963196816950587289035428064568320970692304673817341489687556012032"
      ],
      "assetValues": [
        1
      ]
    },
    {
      "reservedAddress": "0x382116a3F4D890693a833C734dd8e15C4E368126",
      "assetIds": [
        "55464657044963196816950587289035428064568320970692304673817341489687556012032"
      ],
      "assetValues": [
        1
      ]
    },
    {
      "reservedAddress": "0x2424ae241ef3d6b7568982Ab5C83d7ca28eec803",
      "assetIds": [
        "55464657044963196816950587289035428064568320970692304673817341489687556012032"
      ],
      "assetValues": [
        1
      ]
    },
    {
      "reservedAddress": "0xcc226061d881Dc0495A6e0F9665F2B9f7FdAeE3D",
      "assetIds": [
        "55464657044963196816950587289035428064568320970692304673817341489687556012032"
      ],
      "assetValues": [
        1
      ]
    },
    {
      "reservedAddress": "0xC41efF6267392b7873004b8Db37FF50f51CA7Bb8",
      "assetIds": [
        "55464657044963196816950587289035428064568320970692304673817341489687556012032"
      ],
      "assetValues": [
        1
      ]
    },
    {
      "reservedAddress": "0x29F4bA0A51eb34D618f0e7d401E8b007C90b36a1",
      "assetIds": [
        "55464657044963196816950587289035428064568320970692304673817341489687556012032"
      ],
      "assetValues": [
        1
      ]
    },
    {
      "reservedAddress": "0x356793aE751aD7a938b5f25644275F8C590A2Eb2",
      "assetIds": [
        "55464657044963196816950587289035428064568320970692304673817341489687556012032"
      ],
      "assetValues": [
        1
      ]
    },
    {
      "reservedAddress": "0x2C229658788b7dF08C7aed0dD811FA5Cef5f646D",
      "assetIds": [
        "55464657044963196816950587289035428064568320970692304673817341489687556012032"
      ],
      "assetValues": [
        1
      ]
    },
    {
      "reservedAddress": "0xE6007328A20054FF61bd9a465D3B4C2F4A57cd80",
      "assetIds": [
        "55464657044963196816950587289035428064568320970692304673817341489687556012032"
      ],
      "assetValues": [
        1
      ]
    },
    {
      "reservedAddress": "0x890ef7A388253336C157368ea4F4E7144d3A8886",
      "assetIds": [
        "55464657044963196816950587289035428064568320970692304673817341489687556012032"
      ],
      "assetValues": [
        1
      ]
    },
    {
      "reservedAddress": "0x9727D70e08aC3177dc20fA416A04676F23b8E7ec",
      "assetIds": [
        "55464657044963196816950587289035428064568320970692304673817341489687556012032"
      ],
      "assetValues": [
        1
      ]
    },
    {
      "reservedAddress": "0x513E1d4b806f20BaF87E3Fa284c072369d04D8d7",
      "assetIds": [
        "55464657044963196816950587289035428064568320970692304673817341489687556012032"
      ],
      "assetValues": [
        1
      ]
    },
    {
      "reservedAddress": "0xc96865F806137Ea155546d7c2b1fA29B46cAa681",
      "assetIds": [
        "55464657044963196816950587289035428064568320970692304673817341489687556012032"
      ],
      "assetValues": [
        1
      ]
    },
    {
      "reservedAddress": "0xBbb46A908BF9389CC5Df019e14987EBC02c1837c",
      "assetIds": [
        "55464657044963196816950587289035428064568320970692304673817341489687556012032"
      ],
      "assetValues": [
        1
      ]
    },
    {
      "reservedAddress": "0xeD52de38db0E8defB8cCd084DdcB5A8121938A66",
      "assetIds": [
        "55464657044963196816950587289035428064568320970692304673817341489687556012032"
      ],
      "assetValues": [
        1
      ]
    },
    {
      "reservedAddress": "0x1495DA62DCce391A74b7AE3aa609f53093bf58e8",
      "assetIds": [
        "55464657044963196816950587289035428064568320970692304673817341489687556012032"
      ],
      "assetValues": [
        1
      ]
    },
    {
      "reservedAddress": "0x2adD57D7928720F6D3348DCA12dE8B6F285ebF09",
      "assetIds": [
        "55464657044963196816950587289035428064568320970692304673817341489687556012032"
      ],
      "assetValues": [
        1
      ]
    },
    {
      "reservedAddress": "0x9491E41D1B6B6E34c28307bd6f04fd6441e1329B",
      "assetIds": [
        "55464657044963196816950587289035428064568320970692304673817341489687556012032"
      ],
      "assetValues": [
        1
      ]
    },
    {
      "reservedAddress": "0x7878AD4371a62c953BD9Ba4230b6c4a87ea1470A",
      "assetIds": [
        "55464657044963196816950587289035428064568320970692304673817341489687556012032"
      ],
      "assetValues": [
        1
      ]
    },
    {
      "reservedAddress": "0x463fc8D6C65d165859D0439D332DF1b5ADCc36d3",
      "assetIds": [
        "55464657044963196816950587289035428064568320970692304673817341489687556012032"
      ],
      "assetValues": [
        1
      ]
    },
    {
      "reservedAddress": "0xD36e81d22C0988eA65E8D1e8cF01EA5626811f5A",
      "assetIds": [
        "55464657044963196816950587289035428064568320970692304673817341489687556012032"
      ],
      "assetValues": [
        1
      ]
    },
    {
      "reservedAddress": "0x77396Fd686bA1BBfBAf462ff304cd4AEe6E50542",
      "assetIds": [
        "55464657044963196816950587289035428064568320970692304673817341489687556012032"
      ],
      "assetValues": [
        1
      ]
    },
    {
      "reservedAddress": "0xfCf415F92A2ea94fEA1b78EF1b6fFd50204e4C10",
      "assetIds": [
        "55464657044963196816950587289035428064568320970692304673817341489687556012032"
      ],
      "assetValues": [
        1
      ]
    },
    {
      "reservedAddress": "0x821e89e04290346d21dA5014976408759A47Ef85",
      "assetIds": [
        "55464657044963196816950587289035428064568320970692304673817341489687556012032"
      ],
      "assetValues": [
        1
      ]
    },
    {
      "reservedAddress": "0x3763b0C49CD1640Aca236a14fe269a81d8051A6A",
      "assetIds": [
        "55464657044963196816950587289035428064568320970692304673817341489687556012032"
      ],
      "assetValues": [
        1
      ]
    },
    {
      "reservedAddress": "0xd1DeB04442699DdA28622E0A71973557514c83a6",
      "assetIds": [
        "55464657044963196816950587289035428064568320970692304673817341489687556012032"
      ],
      "assetValues": [
        1
      ]
    },
    {
      "reservedAddress": "0x07E0158aAEaDc0465DB7f30B34e6844A40A4C4A1",
      "assetIds": [
        "55464657044963196816950587289035428064568320970692304673817341489687556012032"
      ],
      "assetValues": [
        1
      ]
    },
    {
      "reservedAddress": "0x658AcDD5063fA27fE816f3923c7426A29Cb2421B",
      "assetIds": [
        "55464657044963196816950587289035428064568320970692304673817341489687556012032"
      ],
      "assetValues": [
        1
      ]
    },
    {
      "reservedAddress": "0x9A3D3b7C3A5EbE2ec46951B42C9D43EbFFeD54ee",
      "assetIds": [
        "55464657044963196816950587289035428064568320970692304673817341489687556012032"
      ],
      "assetValues": [
        1
      ]
    },
    {
      "reservedAddress": "0x981b68d6e2D0B35A6Ec29aC51426956dcfDF0883",
      "assetIds": [
        "55464657044963196816950587289035428064568320970692304673817341489687556012032"
      ],
      "assetValues": [
        1
      ]
    },
    {
      "reservedAddress": "0x8cf93F5652fa0E3C93CC5DDDC62F84065D8F3b73",
      "assetIds": [
        "55464657044963196816950587289035428064568320970692304673817341489687556012032"
      ],
      "assetValues": [
        1
      ]
    },
    {
      "reservedAddress": "0xB26Eaf24175Fe12386dF86fa4282feaEB8623864",
      "assetIds": [
        "55464657044963196816950587289035428064568320970692304673817341489687556012032"
      ],
      "assetValues": [
        1
      ]
    },
    {
      "reservedAddress": "0xEa17c92DaF412BBB26c60Bc7a673C65Dd34cA682",
      "assetIds": [
        "55464657044963196816950587289035428064568320970692304673817341489687556012032"
      ],
      "assetValues": [
        1
      ]
    },
    {
      "reservedAddress": "0xde1d7Fe47B7fbE18e2978da7B68255d2b91cde54",
      "assetIds": [
        "55464657044963196816950587289035428064568320970692304673817341489687556012032"
      ],
      "assetValues": [
        1
      ]
    },
    {
      "reservedAddress": "0x7B9dA5E487F0A83a4B27BF88316F5F76e012Dff6",
      "assetIds": [
        "55464657044963196816950587289035428064568320970692304673817341489687556012032"
      ],
      "assetValues": [
        1
      ]
    },
    {
      "reservedAddress": "0x8C0A38B8fBA529528d3Bb54cc9E50E557C6EfFcE",
      "assetIds": [
        "55464657044963196816950587289035428064568320970692304673817341489687556012032"
      ],
      "assetValues": [
        1
      ]
    },
    {
      "reservedAddress": "0x136932398cA783127689B83Cb09f9F378A820DD0",
      "assetIds": [
        "55464657044963196816950587289035428064568320970692304673817341489687556012032"
      ],
      "assetValues": [
        1
      ]
    },
    {
      "reservedAddress": "0xbbFd3781003274Fc5c8f7888aA4a183D15D5d8eE",
      "assetIds": [
        "55464657044963196816950587289035428064568320970692304673817341489687556012032"
      ],
      "assetValues": [
        1
      ]
    },
    {
      "reservedAddress": "0x2b4D8eFa8c4b5D9a3BD1FF59FA9f079F94a29CeF",
      "assetIds": [
        "55464657044963196816950587289035428064568320970692304673817341489687556012032"
      ],
      "assetValues": [
        1
      ]
    },
    {
      "reservedAddress": "0x3AB5E25Dc55cbc3C36eA11cCbd8cf7103d90Af03",
      "assetIds": [
        "55464657044963196816950587289035428064568320970692304673817341489687556012032"
      ],
      "assetValues": [
        1
      ]
    },
    {
      "reservedAddress": "0xD31E312EF798Ea3749e55d29a6B282571Df2dbcc",
      "assetIds": [
        "55464657044963196816950587289035428064568320970692304673817341489687556012032"
      ],
      "assetValues": [
        1
      ]
    },
    {
      "reservedAddress": "0x5Cde0B37AA43B7364DFF3939026C2AbeD6B16623",
      "assetIds": [
        "55464657044963196816950587289035428064568320970692304673817341489687556012032"
      ],
      "assetValues": [
        1
      ]
    },
    {
      "reservedAddress": "0x9b85acd4be5cc70ebad86dcfe5d9516b432a5fe6",
      "assetIds": [
        "55464657044963196816950587289035428064568320970692304673817341489687556012032"
      ],
      "assetValues": [
        1
      ]
    },
    {
      "reservedAddress": "0xD0Ee57361105Dfb7345242eCAc72335ac2126b2E",
      "assetIds": [
        "55464657044963196816950587289035428064568320970692304673817341489687556012032"
      ],
      "assetValues": [
        1
      ]
    },
    {
      "reservedAddress": "0xE82E5fd88E896Aba15e3cEe573f98383Feb03C59",
      "assetIds": [
        "55464657044963196816950587289035428064568320970692304673817341489687556012032"
      ],
      "assetValues": [
        1
      ]
    },
    {
      "reservedAddress": "0x9B267f92D070C88F110A3e009afE39F2D06F9D87",
      "assetIds": [
        "55464657044963196816950587289035428064568320970692304673817341489687556012032"
      ],
      "assetValues": [
        1
      ]
    },
    {
      "reservedAddress": "0xbED9D0Cf67265C805c3f7aABE51E9be909D0C937",
      "assetIds": [
        "55464657044963196816950587289035428064568320970692304673817341489687556012032"
      ],
      "assetValues": [
        1
      ]
    },
    {
      "reservedAddress": "0x25AF7861028049164dC824216393A9ff3510690D",
      "assetIds": [
        "55464657044963196816950587289035428064568320970692304673817341489687556012032"
      ],
      "assetValues": [
        1
      ]
    },
    {
      "reservedAddress": "0xbDA494Ac5291fC1699604b66522a216f3C866424",
      "assetIds": [
        "55464657044963196816950587289035428064568320970692304673817341489687556012032"
      ],
      "assetValues": [
        1
      ]
    },
    {
      "reservedAddress": "0x914bB6a45D6fFA3F8d2b76825a2df195Df2eE271",
      "assetIds": [
        "55464657044963196816950587289035428064568320970692304673817341489687556012032"
      ],
      "assetValues": [
        1
      ]
    },
    {
      "reservedAddress": "0x3258C54a70BE3Ee92f2Ac01627413Bb4C5B951a8",
      "assetIds": [
        "55464657044963196816950587289035428064568320970692304673817341489687556012032"
      ],
      "assetValues": [
        1
      ]
    },
    {
      "reservedAddress": "0xAe840D2866929f18d96CFe48328365Db81A3E727",
      "assetIds": [
        "55464657044963196816950587289035428064568320970692304673817341489687556012032"
      ],
      "assetValues": [
        1
      ]
    },
    {
      "reservedAddress": "0x5bae91E59f8b04a662D1EC95F3536f1cfe21578f",
      "assetIds": [
        "55464657044963196816950587289035428064568320970692304673817341489687556012032"
      ],
      "assetValues": [
        1
      ]
    },
    {
      "reservedAddress": "0xFf71c4edc3F6537d513e689A4Af5F90CbBbeB406",
      "assetIds": [
        "55464657044963196816950587289035428064568320970692304673817341489687556012032"
      ],
      "assetValues": [
        1
      ]
    },
    {
      "reservedAddress": "0xFDC85eBC957f1Ef641f6A550A3D14D97AcC99af0",
      "assetIds": [
        "55464657044963196816950587289035428064568320970692304673817341489687556012032"
      ],
      "assetValues": [
        1
      ]
    },
    {
      "reservedAddress": "0x75996Dc2857485504FA780cf54b5D430786e6e54",
      "assetIds": [
        "55464657044963196816950587289035428064568320970692304673817341489687556012032"
      ],
      "assetValues": [
        1
      ]
    },
    {
      "reservedAddress": "0x2864738984B3cAA176132e6983Fe1291Dcd355D0",
      "assetIds": [
        "55464657044963196816950587289035428064568320970692304673817341489687556012032"
      ],
      "assetValues": [
        1
      ]
    },
    {
      "reservedAddress": "0x61e9c1e5F65c0a59F7325AFfE3b2795C3F809e49",
      "assetIds": [
        "55464657044963196816950587289035428064568320970692304673817341489687556012032"
      ],
      "assetValues": [
        1
      ]
    },
    {
      "reservedAddress": "0xC7428300Df6258AC1EE1159D511529B0A255d26b",
      "assetIds": [
        "55464657044963196816950587289035428064568320970692304673817341489687556012032"
      ],
      "assetValues": [
        1
      ]
    },
    {
      "reservedAddress": "0x349CD488E8119b51C62a9C2c5117C69ea01B6b35",
      "assetIds": [
        "55464657044963196816950587289035428064568320970692304673817341489687556012032"
      ],
      "assetValues": [
        1
      ]
    },
    {
      "reservedAddress": "0x9B857F2F25b6a91282aA78EdfC391A2486a6003B",
      "assetIds": [
        "55464657044963196816950587289035428064568320970692304673817341489687556012032"
      ],
      "assetValues": [
        1
      ]
    },
    {
      "reservedAddress": "0x5b9F8E7E846AD79955542cb967C8EF3c8fF2b2bA",
      "assetIds": [
        "55464657044963196816950587289035428064568320970692304673817341489687556012032"
      ],
      "assetValues": [
        1
      ]
    },
    {
      "reservedAddress": "0xc4c12f679d05Ce875Ce878E48E93b3258fAB5d09",
      "assetIds": [
        "55464657044963196816950587289035428064568320970692304673817341489687556012032"
      ],
      "assetValues": [
        1
      ]
    },
    {
      "reservedAddress": "0x72c52164D72C1d4633ea3224080dd4e94174cBaC",
      "assetIds": [
        "55464657044963196816950587289035428064568320970692304673817341489687556012032"
      ],
      "assetValues": [
        1
      ]
    },
    {
      "reservedAddress": "0x47Ebf38Df7F4abe44F86fA80a2d8593Ed4601494",
      "assetIds": [
        "55464657044963196816950587289035428064568320970692304673817341489687556012032"
      ],
      "assetValues": [
        1
      ]
    },
    {
      "reservedAddress": "0x0123ed8b71fed4f374f588b25929a932b67b95f5",
      "assetIds": [
        "55464657044963196816950587289035428064568320970692304673817341489687556012032"
      ],
      "assetValues": [
        1
      ]
    },
    {
      "reservedAddress": "0x3cF410930B3E453f83004F52f60cBD4f1589B48F",
      "assetIds": [
        "55464657044963196816950587289035428064568320970692304673817341489687556012032"
      ],
      "assetValues": [
        1
      ]
    },
    {
      "reservedAddress": "0xe6467A826D35376FF0b3aC3B6ef47224005F19b6",
      "assetIds": [
        "55464657044963196816950587289035428064568320970692304673817341489687556012032"
      ],
      "assetValues": [
        1
      ]
    },
    {
      "reservedAddress": "0x943c43504023A5604E8a91920ef140f70AEDe89d",
      "assetIds": [
        "55464657044963196816950587289035428064568320970692304673817341489687556012032"
      ],
      "assetValues": [
        1
      ]
    },
    {
      "reservedAddress": "0x697e007A002bcD9DA6d32CaA543c12429D554282",
      "assetIds": [
        "55464657044963196816950587289035428064568320970692304673817341489687556012032"
      ],
      "assetValues": [
        1
      ]
    },
    {
      "reservedAddress": "0x06618DA0FD231844ac9a37f5eF86d946C45a4fdc",
      "assetIds": [
        "55464657044963196816950587289035428064568320970692304673817341489687556012032"
      ],
      "assetValues": [
        1
      ]
    },
    {
      "reservedAddress": "0x0Fc27c32398A7d09367dC6cB56cF41AA46605f34",
      "assetIds": [
        "55464657044963196816950587289035428064568320970692304673817341489687556012032"
      ],
      "assetValues": [
        1
      ]
    },
    {
      "reservedAddress": "0x66249B437aA74624de85e416091F7C7DEBb0B1ED",
      "assetIds": [
        "55464657044963196816950587289035428064568320970692304673817341489687556012032"
      ],
      "assetValues": [
        1
      ]
    },
    {
      "reservedAddress": "0xD612bC24E29fE977eC2E626AbE094eFB38C89046",
      "assetIds": [
        "55464657044963196816950587289035428064568320970692304673817341489687556012032"
      ],
      "assetValues": [
        1
      ]
    },
    {
      "reservedAddress": "0x41C2Cf6bafF63219925EE7e6696FF1398a198d3A",
      "assetIds": [
        "55464657044963196816950587289035428064568320970692304673817341489687556012032"
      ],
      "assetValues": [
        1
      ]
    },
    {
      "reservedAddress": "0xe7d4bc92431e9435339ee8927964a7e55a5e1c97",
      "assetIds": [
        "55464657044963196816950587289035428064568320970692304673817341489687556012032"
      ],
      "assetValues": [
        1
      ]
    },
    {
      "reservedAddress": "0x337Bed74690DbDCB2438BbaF96B774D52f1C7088",
      "assetIds": [
        "55464657044963196816950587289035428064568320970692304673817341489687556012032"
      ],
      "assetValues": [
        1
      ]
    },
    {
      "reservedAddress": "0x131CF8e36F9B03CE67277f83f53081f36428c550",
      "assetIds": [
        "55464657044963196816950587289035428064568320970692304673817341489687556012032"
      ],
      "assetValues": [
        1
      ]
    },
    {
      "reservedAddress": "0x248fDa68c522330e3c7DEfe56c10d5f299Df75a5",
      "assetIds": [
        "55464657044963196816950587289035428064568320970692304673817341489687556012032"
      ],
      "assetValues": [
        1
      ]
    },
    {
      "reservedAddress": "0xc9b08a82dEd4e363f2F4fAf42B974d8cC8d229d6",
      "assetIds": [
        "55464657044963196816950587289035428064568320970692304673817341489687556012032"
      ],
      "assetValues": [
        1
      ]
    },
    {
      "reservedAddress": "0x23c9Bb2a7564e78aeBE75F2FA1557F510E285C74",
      "assetIds": [
        "55464657044963196816950587289035428064568320970692304673817341489687556012032"
      ],
      "assetValues": [
        1
      ]
    },
    {
      "reservedAddress": "0x46066B5D9678DB56bDF1780733d93D25715450Ac",
      "assetIds": [
        "55464657044963196816950587289035428064568320970692304673817341489687556012032"
      ],
      "assetValues": [
        1
      ]
    },
    {
      "reservedAddress": "0xFdDf1E96Bf2AEaf43AC954c776E71D5D835211E9",
      "assetIds": [
        "55464657044963196816950587289035428064568320970692304673817341489687556012032"
      ],
      "assetValues": [
        1
      ]
    },
    {
      "reservedAddress": "0xAAEaA7737efb3E2a8714C5d9E459344DCA7b72Df",
      "assetIds": [
        "55464657044963196816950587289035428064568320970692304673817341489687556012032"
      ],
      "assetValues": [
        1
      ]
    },
    {
      "reservedAddress": "0xE1F048394202685CE4fB56635D9d0a3beb9768Da",
      "assetIds": [
        "55464657044963196816950587289035428064568320970692304673817341489687556012032"
      ],
      "assetValues": [
        1
      ]
    },
    {
      "reservedAddress": "0x4a6585C5a74c49b38A8291aEf6dF23239c73210a",
      "assetIds": [
        "55464657044963196816950587289035428064568320970692304673817341489687556012032"
      ],
      "assetValues": [
        1
      ]
    },
    {
      "reservedAddress": "0x335Fa2Be39d32B1bef0423BaEf06C42044ffA7f3",
      "assetIds": [
        "55464657044963196816950587289035428064568320970692304673817341489687556012032"
      ],
      "assetValues": [
        1
      ]
    },
    {
      "reservedAddress": "0xa71Ca868152bdB2a41f624d74288Ca1d12e4f975",
      "assetIds": [
        "55464657044963196816950587289035428064568320970692304673817341489687556012032"
      ],
      "assetValues": [
        1
      ]
    },
    {
      "reservedAddress": "0xb43e030D7B8adc63c50256bF5F38146456e2501e",
      "assetIds": [
        "55464657044963196816950587289035428064568320970692304673817341489687556012032"
      ],
      "assetValues": [
        1
      ]
    },
    {
      "reservedAddress": "0x35388a1E8Ea3Eb8fEC1B73EAA50cf225609a366A",
      "assetIds": [
        "55464657044963196816950587289035428064568320970692304673817341489687556012032"
      ],
      "assetValues": [
        1
      ]
    },
    {
      "reservedAddress": "0x6865a0D8E0664709B96de34c154b5E4dD6Ff140A",
      "assetIds": [
        "55464657044963196816950587289035428064568320970692304673817341489687556012032"
      ],
      "assetValues": [
        1
      ]
    },
    {
      "reservedAddress": "0x411a8995771F99b99284D469b9962647e0f12aF6",
      "assetIds": [
        "55464657044963196816950587289035428064568320970692304673817341489687556012032"
      ],
      "assetValues": [
        1
      ]
    },
    {
      "reservedAddress": "0xD71200fabb4751B2EEAa40a2b3321B486d39836f",
      "assetIds": [
        "55464657044963196816950587289035428064568320970692304673817341489687556012032"
      ],
      "assetValues": [
        1
      ]
    },
    {
      "reservedAddress": "0x71886f16F56A28b3B602c3E0CC3879E4ce269A00",
      "assetIds": [
        "55464657044963196816950587289035428064568320970692304673817341489687556012032"
      ],
      "assetValues": [
        1
      ]
    },
    {
      "reservedAddress": "0x6427AFd5EC15900197E0e04B91D6129bFd264991",
      "assetIds": [
        "55464657044963196816950587289035428064568320970692304673817341489687556012032"
      ],
      "assetValues": [
        1
      ]
    },
    {
      "reservedAddress": "0x43BcB483bBA8e11ba3a7B28Db9B0eC3EF022af7e",
      "assetIds": [
        "55464657044963196816950587289035428064568320970692304673817341489687556012032"
      ],
      "assetValues": [
        1
      ]
    },
    {
      "reservedAddress": "0xd1B093791f027d98fC3A05e40D21309425a620AE",
      "assetIds": [
        "55464657044963196816950587289035428064568320970692304673817341489687556012032"
      ],
      "assetValues": [
        1
      ]
    },
    {
      "reservedAddress": "0xe7e9947a04418F99328EdD70dA5404ffe26861ab",
      "assetIds": [
        "55464657044963196816950587289035428064568320970692304673817341489687556012032"
      ],
      "assetValues": [
        1
      ]
    },
    {
      "reservedAddress": "0xdDa76bB30BFa68022CDceF4A65bAd28e678060CA",
      "assetIds": [
        "55464657044963196816950587289035428064568320970692304673817341489687556012032"
      ],
      "assetValues": [
        1
      ]
    },
    {
      "reservedAddress": "0xc81660d6760C3aa0F7104536b3EE130DaE2c4A77",
      "assetIds": [
        "55464657044963196816950587289035428064568320970692304673817341489687556012032"
      ],
      "assetValues": [
        1
      ]
    },
    {
      "reservedAddress": "0xb8a6959b7cbf3a3246f432433bd9D179458184B9",
      "assetIds": [
        "55464657044963196816950587289035428064568320970692304673817341489687556012032"
      ],
      "assetValues": [
        1
      ]
    },
    {
      "reservedAddress": "0x0d72724bF16877bD814B8EC52b2B65A4A385D7fE",
      "assetIds": [
        "55464657044963196816950587289035428064568320970692304673817341489687556012032"
      ],
      "assetValues": [
        1
      ]
    },
    {
      "reservedAddress": "0x6033D60e13Ed981c6f7669eD4B7Af9Ab1820A96d",
      "assetIds": [
        "55464657044963196816950587289035428064568320970692304673817341489687556012032"
      ],
      "assetValues": [
        1
      ]
    },
    {
      "reservedAddress": "0x1227fc4cEE507AcE86261dDCeeD157238FFd114f",
      "assetIds": [
        "55464657044963196816950587289035428064568320970692304673817341489687556012032"
      ],
      "assetValues": [
        1
      ]
    },
    {
      "reservedAddress": "0x0Dd29A896E1f200efDF2f6DF76D27E23df04413d",
      "assetIds": [
        "55464657044963196816950587289035428064568320970692304673817341489687556012032"
      ],
      "assetValues": [
        1
      ]
    },
    {
      "reservedAddress": "0xF05700f99e85e1382F705AA85B7065D30d9D8F74",
      "assetIds": [
        "55464657044963196816950587289035428064568320970692304673817341489687556012032"
      ],
      "assetValues": [
        1
      ]
    },
    {
      "reservedAddress": "0x272d521319a25Ba2fb9E064DeCbD81F3Ee213B7F",
      "assetIds": [
        "55464657044963196816950587289035428064568320970692304673817341489687556012032"
      ],
      "assetValues": [
        1
      ]
    },
    {
      "reservedAddress": "0x11C13f5CE9A8D739fAeB7DbB893C2f278239c3C5",
      "assetIds": [
        "55464657044963196816950587289035428064568320970692304673817341489687556012032"
      ],
      "assetValues": [
        1
      ]
    },
    {
      "reservedAddress": "0x964e9805C88e4a20c4C4fbBc0EDf340325F44896",
      "assetIds": [
        "55464657044963196816950587289035428064568320970692304673817341489687556012032"
      ],
      "assetValues": [
        1
      ]
    },
    {
      "reservedAddress": "0xcfd7BaDaCC953D2a758073864669f2f107f66b5b",
      "assetIds": [
        "55464657044963196816950587289035428064568320970692304673817341489687556012032"
      ],
      "assetValues": [
        1
      ]
    },
    {
      "reservedAddress": "0xE408cFf0bf285a57c347e16C7E41DC652CaDAd90",
      "assetIds": [
        "55464657044963196816950587289035428064568320970692304673817341489687556012032"
      ],
      "assetValues": [
        1
      ]
    },
    {
      "reservedAddress": "0x982160400795773de8867C1CC6AA1fe34e8c80f6",
      "assetIds": [
        "55464657044963196816950587289035428064568320970692304673817341489687556012032"
      ],
      "assetValues": [
        1
      ]
    },
    {
      "reservedAddress": "0xad9cC294d0FB2B8222C9CD32e53B24F4Eb8FE211",
      "assetIds": [
        "55464657044963196816950587289035428064568320970692304673817341489687556012032"
      ],
      "assetValues": [
        1
      ]
    },
    {
      "reservedAddress": "0xe1B6daC82eabb2c645b58F0fB585103A84A1076C",
      "assetIds": [
        "55464657044963196816950587289035428064568320970692304673817341489687556012032"
      ],
      "assetValues": [
        1
      ]
    },
    {
      "reservedAddress": "0x5f664c1FE5276cFF3061D1389cD1373008d48960",
      "assetIds": [
        "55464657044963196816950587289035428064568320970692304673817341489687556012032"
      ],
      "assetValues": [
        1
      ]
    },
    {
      "reservedAddress": "0xB2c1618cD345748ffE6b8459f112b19515842603",
      "assetIds": [
        "55464657044963196816950587289035428064568320970692304673817341489687556012032"
      ],
      "assetValues": [
        1
      ]
    },
    {
      "reservedAddress": "0xa7Fa2630eee4a885c05FD70E7b3B0eaDd7516309",
      "assetIds": [
        "55464657044963196816950587289035428064568320970692304673817341489687556012032"
      ],
      "assetValues": [
        1
      ]
    },
    {
      "reservedAddress": "0x00E24941e8794498f501eCa7CED8CEFBE7f22783",
      "assetIds": [
        "55464657044963196816950587289035428064568320970692304673817341489687556012032"
      ],
      "assetValues": [
        1
      ]
    },
    {
      "reservedAddress": "0xA8c39309922319A61E76FBfFF7D6005753825800",
      "assetIds": [
        "55464657044963196816950587289035428064568320970692304673817341489687556012032"
      ],
      "assetValues": [
        1
      ]
    },
    {
      "reservedAddress": "0x617FAaf58414FC2457f324eC96073e4A9199Ad05",
      "assetIds": [
        "55464657044963196816950587289035428064568320970692304673817341489687556012032"
      ],
      "assetValues": [
        1
      ]
    },
    {
      "reservedAddress": "0x4425e3ae85B87f262220c28a894eA107f2f6c599",
      "assetIds": [
        "55464657044963196816950587289035428064568320970692304673817341489687556012032"
      ],
      "assetValues": [
        1
      ]
    },
    {
      "reservedAddress": "0xE1fF42f867810Ce49d6b7feEDD24B1d387932AD0",
      "assetIds": [
        "55464657044963196816950587289035428064568320970692304673817341489687556012032"
      ],
      "assetValues": [
        1
      ]
    },
    {
      "reservedAddress": "0x6c9C9dFc032530a97Fe1850a4Af90688fAAfAd3b",
      "assetIds": [
        "55464657044963196816950587289035428064568320970692304673817341489687556012032"
      ],
      "assetValues": [
        1
      ]
    },
    {
      "reservedAddress": "0x638790718c7A6a6CbA3AF661D0f8774148d681C4",
      "assetIds": [
        "55464657044963196816950587289035428064568320970692304673817341489687556012032"
      ],
      "assetValues": [
        1
      ]
    },
    {
      "reservedAddress": "0x969D10244E0E01b252B57836D2af189f97B1e9eE",
      "assetIds": [
        "55464657044963196816950587289035428064568320970692304673817341489687556012032"
      ],
      "assetValues": [
        1
      ]
    },
    {
      "reservedAddress": "0x3d10bBA64F01d9C71Be932bd07328bA30668C46a",
      "assetIds": [
        "55464657044963196816950587289035428064568320970692304673817341489687556012032"
      ],
      "assetValues": [
        1
      ]
    },
    {
      "reservedAddress": "0x30B3618C0017c30d9D0Cae8A74c335f3c2497981",
      "assetIds": [
        "55464657044963196816950587289035428064568320970692304673817341489687556012032"
      ],
      "assetValues": [
        1
      ]
    },
    {
      "reservedAddress": "0x540Ed099d8f6cd32A07deE95C29a0BC882449b05",
      "assetIds": [
        "55464657044963196816950587289035428064568320970692304673817341489687556012032"
      ],
      "assetValues": [
        1
      ]
    },
    {
      "reservedAddress": "0x6d2BccFC5e3EA87c94AB755c622A40036d4fE281",
      "assetIds": [
        "55464657044963196816950587289035428064568320970692304673817341489687556012032"
      ],
      "assetValues": [
        1
      ]
    },
    {
      "reservedAddress": "0xA66775DFd330bcc15e09bc0BAA3D8Fc60B20508B",
      "assetIds": [
        "55464657044963196816950587289035428064568320970692304673817341489687556012032"
      ],
      "assetValues": [
        1
      ]
    },
    {
      "reservedAddress": "0x1019c7bbbd273B0379f5914B96022d7DC8986133",
      "assetIds": [
        "55464657044963196816950587289035428064568320970692304673817341489687556012032"
      ],
      "assetValues": [
        1
      ]
    },
    {
      "reservedAddress": "0x5892A4593Cde6173517B0DcB5E93c9257eb6afA5",
      "assetIds": [
        "55464657044963196816950587289035428064568320970692304673817341489687556012032"
      ],
      "assetValues": [
        1
      ]
    },
    {
      "reservedAddress": "0xB96600214ac1f72d2D465fd4776510FdeeC450F2",
      "assetIds": [
        "55464657044963196816950587289035428064568320970692304673817341489687556012032"
      ],
      "assetValues": [
        1
      ]
    },
    {
      "reservedAddress": "0x84c11567FBCFc33b72D3A25a27d224A2fC3556DB",
      "assetIds": [
        "55464657044963196816950587289035428064568320970692304673817341489687556012032"
      ],
      "assetValues": [
        1
      ]
    },
    {
      "reservedAddress": "0xE44AEDE3F7D3849c4803C22ac8b65384298B7b0A",
      "assetIds": [
        "55464657044963196816950587289035428064568320970692304673817341489687556012032"
      ],
      "assetValues": [
        1
      ]
    },
    {
      "reservedAddress": "0x87DC826d63B40C690578F5b71698Ce7bb3d7d36F",
      "assetIds": [
        "55464657044963196816950587289035428064568320970692304673817341489687556012032"
      ],
      "assetValues": [
        1
      ]
    },
    {
      "reservedAddress": "0x4c809e2EB946849DcdAD769f590642BF9fAa8e78",
      "assetIds": [
        "55464657044963196816950587289035428064568320970692304673817341489687556012032"
      ],
      "assetValues": [
        1
      ]
    },
    {
      "reservedAddress": "0xe4D7bEfE67bDD12242c181D1Df32E0c5182d702F",
      "assetIds": [
        "55464657044963196816950587289035428064568320970692304673817341489687556012032"
      ],
      "assetValues": [
        1
      ]
    },
    {
      "reservedAddress": "0xc6ffD76DAc39538b2EFE48e083eAA6f12DaCAAee",
      "assetIds": [
        "55464657044963196816950587289035428064568320970692304673817341489687556012032"
      ],
      "assetValues": [
        1
      ]
    },
    {
      "reservedAddress": "0xAB086F9a848652398600DD5C2bFf0045571Ec9D0",
      "assetIds": [
        "55464657044963196816950587289035428064568320970692304673817341489687556012032"
      ],
      "assetValues": [
        1
      ]
    },
    {
      "reservedAddress": "0x5322AA99B3C7E2d46Ec05d574BEe3144e9234Cec",
      "assetIds": [
        "55464657044963196816950587289035428064568320970692304673817341489687556012032"
      ],
      "assetValues": [
        1
      ]
    },
    {
      "reservedAddress": "0xB411B261FE5E4f645484272bd6ECB92f4D191Fd9",
      "assetIds": [
        "55464657044963196816950587289035428064568320970692304673817341489687556012032"
      ],
      "assetValues": [
        1
      ]
    },
    {
      "reservedAddress": "0xaBCF00d690449e8C9bc2d2ffb551dA1AaF7D11ec",
      "assetIds": [
        "55464657044963196816950587289035428064568320970692304673817341489687556012032"
      ],
      "assetValues": [
        1
      ]
    },
    {
      "reservedAddress": "0x7610BFE746E5EEC84d71dc3a2b552bA317b7Bd48",
      "assetIds": [
        "55464657044963196816950587289035428064568320970692304673817341489687556012032"
      ],
      "assetValues": [
        1
      ]
    },
    {
      "reservedAddress": "0x05070F1b87F8a8828EB596Be7cA64aE787341996",
      "assetIds": [
        "55464657044963196816950587289035428064568320970692304673817341489687556012032"
      ],
      "assetValues": [
        1
      ]
    },
    {
      "reservedAddress": "0x7C34De21eecDE0C967f14d561556eBDEf40febA3",
      "assetIds": [
        "55464657044963196816950587289035428064568320970692304673817341489687556012032"
      ],
      "assetValues": [
        1
      ]
    },
    {
      "reservedAddress": "0xa05Afd331269a3368ce7b3bC6aAb48A0Ef34188a",
      "assetIds": [
        "55464657044963196816950587289035428064568320970692304673817341489687556012032"
      ],
      "assetValues": [
        1
      ]
    },
    {
      "reservedAddress": "0x804900a653C23172E8CD28e99045613c7A24189C",
      "assetIds": [
        "55464657044963196816950587289035428064568320970692304673817341489687556012032"
      ],
      "assetValues": [
        1
      ]
    },
    {
      "reservedAddress": "0x49e4c200926cd7e5Ffc45985b76179C3337E2867",
      "assetIds": [
        "55464657044963196816950587289035428064568320970692304673817341489687556012032"
      ],
      "assetValues": [
        1
      ]
    },
    {
      "reservedAddress": "0xFb86A0c493978f9b6e96dfD0b9c8B530Bf8D319e",
      "assetIds": [
        "55464657044963196816950587289035428064568320970692304673817341489687556012032"
      ],
      "assetValues": [
        1
      ]
    },
    {
      "reservedAddress": "0x854f2922C387C0d11698378f46DAB496433E449A",
      "assetIds": [
        "55464657044963196816950587289035428064568320970692304673817341489687556012032"
      ],
      "assetValues": [
        1
      ]
    },
    {
      "reservedAddress": "0xBAE0d176ACC5C21EC49f8261CAd65d7d2A2A9448",
      "assetIds": [
        "55464657044963196816950587289035428064568320970692304673817341489687556012032"
      ],
      "assetValues": [
        1
      ]
    },
    {
      "reservedAddress": "0x6737930a8D7AC4AfF3b0cf38B1F766254AC1eCCC",
      "assetIds": [
        "55464657044963196816950587289035428064568320970692304673817341489687556012032"
      ],
      "assetValues": [
        1
      ]
    },
    {
      "reservedAddress": "0xa000C909C7ffadFA11E8761c2160A4c35602900e",
      "assetIds": [
        "55464657044963196816950587289035428064568320970692304673817341489687556012032"
      ],
      "assetValues": [
        1
      ]
    },
    {
      "reservedAddress": "0xcCEB6442595F956157b5bCb91cEA3098ED3231Ab",
      "assetIds": [
        "55464657044963196816950587289035428064568320970692304673817341489687556012032"
      ],
      "assetValues": [
        1
      ]
    },
    {
      "reservedAddress": "0xf8ed2CE69a806363b5cED0DBF268A407406009F5",
      "assetIds": [
        "55464657044963196816950587289035428064568320970692304673817341489687556012032"
      ],
      "assetValues": [
        1
      ]
    },
    {
      "reservedAddress": "0xa53703027D7479F3CB38372c7D450B75d1489581",
      "assetIds": [
        "55464657044963196816950587289035428064568320970692304673817341489687556012032"
      ],
      "assetValues": [
        1
      ]
    },
    {
      "reservedAddress": "0xce695e581214424FCFFF9C9bCC8e8f6b84Cc2411",
      "assetIds": [
        "55464657044963196816950587289035428064568320970692304673817341489687556012032"
      ],
      "assetValues": [
        1
      ]
    },
    {
      "reservedAddress": "0xa080735bdB8BEbFaE8Aa4C3d14565884B8fdd9E9",
      "assetIds": [
        "55464657044963196816950587289035428064568320970692304673817341489687556012032"
      ],
      "assetValues": [
        1
      ]
    },
    {
      "reservedAddress": "0x445Bd2E9EB27AEdd8c57DB2464808be65DA28387",
      "assetIds": [
        "55464657044963196816950587289035428064568320970692304673817341489687556012032"
      ],
      "assetValues": [
        1
      ]
    },
    {
      "reservedAddress": "0xe1650FC35C866dCD2D5F9Ce9a01F7b35d74343b2",
      "assetIds": [
        "55464657044963196816950587289035428064568320970692304673817341489687556012032"
      ],
      "assetValues": [
        1
      ]
    },
    {
      "reservedAddress": "0xE0A7D28aD8a4E2d4b7076a08D3EC8700E2d9d60A",
      "assetIds": [
        "55464657044963196816950587289035428064568320970692304673817341489687556012032"
      ],
      "assetValues": [
        1
      ]
    },
    {
      "reservedAddress": "0x05D2109cfC48EBE17B66f750Bc19A1E948c6bD18",
      "assetIds": [
        "55464657044963196816950587289035428064568320970692304673817341489687556012032"
      ],
      "assetValues": [
        1
      ]
    },
    {
      "reservedAddress": "0xe3DDD34ba82f3137e7D6edB540bEb8B652C48E63",
      "assetIds": [
        "55464657044963196816950587289035428064568320970692304673817341489687556012032"
      ],
      "assetValues": [
        1
      ]
    },
    {
      "reservedAddress": "0xe102e568c31001cBfEf04D6F8d7c57Bd5a7043c5",
      "assetIds": [
        "55464657044963196816950587289035428064568320970692304673817341489687556012032"
      ],
      "assetValues": [
        1
      ]
    },
    {
      "reservedAddress": "0xBACB7BA59DDEd57397CCf905016671D5B75881b3",
      "assetIds": [
        "55464657044963196816950587289035428064568320970692304673817341489687556012032"
      ],
      "assetValues": [
        1
      ]
    },
    {
      "reservedAddress": "0xE13DC14B128869e39C643A85990EB2439B8A6c31",
      "assetIds": [
        "55464657044963196816950587289035428064568320970692304673817341489687556012032"
      ],
      "assetValues": [
        1
      ]
    },
    {
      "reservedAddress": "0x53E3bAAb1C52958e56FbF1037B904D7e4a5c4d46",
      "assetIds": [
        "55464657044963196816950587289035428064568320970692304673817341489687556012032"
      ],
      "assetValues": [
        1
      ]
    },
    {
      "reservedAddress": "0xFED50cd40724Ab6dbf63a16C2B31642a35DC223C",
      "assetIds": [
        "55464657044963196816950587289035428064568320970692304673817341489687556012032"
      ],
      "assetValues": [
        1
      ]
    },
    {
      "reservedAddress": "0x23b9E54E648cc64fE90e267c715Ae027c0D59988",
      "assetIds": [
        "55464657044963196816950587289035428064568320970692304673817341489687556012032"
      ],
      "assetValues": [
        1
      ]
    },
    {
      "reservedAddress": "0x12973816A7a82D7dF7040708ea12d6bDEB5F379A",
      "assetIds": [
        "55464657044963196816950587289035428064568320970692304673817341489687556012032"
      ],
      "assetValues": [
        1
      ]
    },
    {
      "reservedAddress": "0x695e9089fDD7D92037e525aC2CB59a509A0e9A84",
      "assetIds": [
        "55464657044963196816950587289035428064568320970692304673817341489687556012032"
      ],
      "assetValues": [
        1
      ]
    },
    {
      "reservedAddress": "0xc65b2311400B944063891CCCa0629A08f098a633",
      "assetIds": [
        "55464657044963196816950587289035428064568320970692304673817341489687556012032"
      ],
      "assetValues": [
        1
      ]
    },
    {
      "reservedAddress": "0x589773fee2E7D3dFb18Cdb08292d519809ae0a37",
      "assetIds": [
        "55464657044963196816950587289035428064568320970692304673817341489687556012032"
      ],
      "assetValues": [
        1
      ]
    },
    {
      "reservedAddress": "0x2481e8b2c6D6C9a80F3bA2C6eD914B1f41049f0A",
      "assetIds": [
        "55464657044963196816950587289035428064568320970692304673817341489687556012032"
      ],
      "assetValues": [
        1
      ]
    },
    {
      "reservedAddress": "0x187595B98cd80C997aC4072b12F4a6403A903bC2",
      "assetIds": [
        "55464657044963196816950587289035428064568320970692304673817341489687556012032"
      ],
      "assetValues": [
        1
      ]
    },
    {
      "reservedAddress": "0x2D7E1A4C28664B64545e468Cf6E641a7FF8863a2",
      "assetIds": [
        "55464657044963196816950587289035428064568320970692304673817341489687556012032"
      ],
      "assetValues": [
        1
      ]
    },
    {
      "reservedAddress": "0x0ca8786842fBABb8CF55Fe9Fb4BAE05DADBd0Bac",
      "assetIds": [
        "55464657044963196816950587289035428064568320970692304673817341489687556012032"
      ],
      "assetValues": [
        1
      ]
    },
    {
      "reservedAddress": "0xEeA131AbfD3ceD3D8927F416B9f910Dbf1Bef314",
      "assetIds": [
        "55464657044963196816950587289035428064568320970692304673817341489687556012032"
      ],
      "assetValues": [
        1
      ]
    },
    {
      "reservedAddress": "0x58AAAE3A1BC9A58225076F2A481A8D2D12607923",
      "assetIds": [
        "55464657044963196816950587289035428064568320970692304673817341489687556012032"
      ],
      "assetValues": [
        1
      ]
    },
    {
      "reservedAddress": "0x271b68a4aa515a78b8d6dd0b2628fed2f1224643",
      "assetIds": [
        "55464657044963196816950587289035428064568320970692304673817341489687556012032"
      ],
      "assetValues": [
        1
      ]
    },
    {
      "reservedAddress": "0x0c2ff5cec0D120F599A39A1d969a40411dd73d86",
      "assetIds": [
        "55464657044963196816950587289035428064568320970692304673817341489687556012032"
      ],
      "assetValues": [
        1
      ]
    },
    {
      "reservedAddress": "0xCdDc6ebe718c1DEab772B0965219f81052507a2d",
      "assetIds": [
        "55464657044963196816950587289035428064568320970692304673817341489687556012032"
      ],
      "assetValues": [
        1
      ]
    },
    {
      "reservedAddress": "0x7Eaf99f8F0385DEe2280CF10509280487f973555",
      "assetIds": [
        "55464657044963196816950587289035428064568320970692304673817341489687556012032"
      ],
      "assetValues": [
        1
      ]
    },
    {
      "reservedAddress": "0x3Bc046C63064A1d5B2d392aDbFA538834d7EC52f",
      "assetIds": [
        "55464657044963196816950587289035428064568320970692304673817341489687556012032"
      ],
      "assetValues": [
        1
      ]
    },
    {
      "reservedAddress": "0x50854e600d8db472ED2e98F48fFCBae2a5A32122",
      "assetIds": [
        "55464657044963196816950587289035428064568320970692304673817341489687556012032"
      ],
      "assetValues": [
        1
      ]
    },
    {
      "reservedAddress": "0xb6ede4101837Fa2746a7cab38fE25f72dE61D546",
      "assetIds": [
        "55464657044963196816950587289035428064568320970692304673817341489687556012032"
      ],
      "assetValues": [
        1
      ]
    },
    {
      "reservedAddress": "0x2A7cD0C045F60F3887829E290c88a207e55cfECE",
      "assetIds": [
        "55464657044963196816950587289035428064568320970692304673817341489687556012032"
      ],
      "assetValues": [
        1
      ]
    },
    {
      "reservedAddress": "0xD738cF6C8858F72d39FB651b75481B172da9f8c8",
      "assetIds": [
        "55464657044963196816950587289035428064568320970692304673817341489687556012032"
      ],
      "assetValues": [
        1
      ]
    },
    {
      "reservedAddress": "0x31d2447AB398d0b1e68aaB2d5e6F98C3560D05B6",
      "assetIds": [
        "55464657044963196816950587289035428064568320970692304673817341489687556012032"
      ],
      "assetValues": [
        1
      ]
    },
    {
      "reservedAddress": "0x33740108B7Fc9D3505BdA99010b18c2020b44471",
      "assetIds": [
        "55464657044963196816950587289035428064568320970692304673817341489687556012032"
      ],
      "assetValues": [
        1
      ]
    },
    {
      "reservedAddress": "0xbfa13A48954A5450708a8032e3aA8Db89dAb751B",
      "assetIds": [
        "55464657044963196816950587289035428064568320970692304673817341489687556012032"
      ],
      "assetValues": [
        1
      ]
    },
    {
      "reservedAddress": "0x254c62b0e0862a383dbba455dcf692e71fadcebf",
      "assetIds": [
        "55464657044963196816950587289035428064568320970692304673817341489687556012032"
      ],
      "assetValues": [
        1
      ]
    },
    {
      "reservedAddress": "0x066237c1D212a07B8F078A1d069Bd5d6214EED90",
      "assetIds": [
        "55464657044963196816950587289035428064568320970692304673817341489687556012032"
      ],
      "assetValues": [
        1
      ]
    },
    {
      "reservedAddress": "0xA09c3b5EaBF937E93dA67dFd33E17e15E044d928",
      "assetIds": [
        "55464657044963196816950587289035428064568320970692304673817341489687556012032"
      ],
      "assetValues": [
        1
      ]
    },
    {
      "reservedAddress": "0xD056D4B6FCdcEa982F7E70F085Bbb1f9AbcD19f9",
      "assetIds": [
        "55464657044963196816950587289035428064568320970692304673817341489687556012032"
      ],
      "assetValues": [
        1
      ]
    },
    {
      "reservedAddress": "0x7fb19B63e43Bf73F790fc1EEf5646835e708F298",
      "assetIds": [
        "55464657044963196816950587289035428064568320970692304673817341489687556012032"
      ],
      "assetValues": [
        1
      ]
    },
    {
      "reservedAddress": "0xE0B78e112afc505795bB2a538d00764515e91187",
      "assetIds": [
        "55464657044963196816950587289035428064568320970692304673817341489687556012032"
      ],
      "assetValues": [
        1
      ]
    },
    {
      "reservedAddress": "0x17E85d3c9729C1BC11d3C3511e0E254afcCf42Ee",
      "assetIds": [
        "55464657044963196816950587289035428064568320970692304673817341489687556012032"
      ],
      "assetValues": [
        1
      ]
    },
    {
      "reservedAddress": "0x727723E8E0C84444Daa7DFa22F38BdB220528461",
      "assetIds": [
        "55464657044963196816950587289035428064568320970692304673817341489687556012032"
      ],
      "assetValues": [
        1
      ]
    },
    {
      "reservedAddress": "0xA6c06DaE4a2C853A30D2eaDd6749160dE8518966",
      "assetIds": [
        "55464657044963196816950587289035428064568320970692304673817341489687556012032"
      ],
      "assetValues": [
        1
      ]
    },
    {
      "reservedAddress": "0x4FA0A34E715d6f703cC0b2752Be84CC556762c13",
      "assetIds": [
        "55464657044963196816950587289035428064568320970692304673817341489687556012032"
      ],
      "assetValues": [
        1
      ]
    },
    {
      "reservedAddress": "0x7a43dc785CeD8554478b2bA2E491347C0826AdDE",
      "assetIds": [
        "55464657044963196816950587289035428064568320970692304673817341489687556012032"
      ],
      "assetValues": [
        1
      ]
    },
    {
      "reservedAddress": "0x9E54B3d3b0d95b77009FfFFbC10461a16ADBb911",
      "assetIds": [
        "55464657044963196816950587289035428064568320970692304673817341489687556012032"
      ],
      "assetValues": [
        1
      ]
    },
    {
      "reservedAddress": "0xb14Ba5edA515c66f56adbD1F6BdfC88E17F7b76D",
      "assetIds": [
        "55464657044963196816950587289035428064568320970692304673817341489687556012032"
      ],
      "assetValues": [
        1
      ]
    },
    {
      "reservedAddress": "0xFc85edb6D52aaeD5283e112A9eac00A1b953ef91",
      "assetIds": [
        "55464657044963196816950587289035428064568320970692304673817341489687556012032"
      ],
      "assetValues": [
        1
      ]
    },
    {
      "reservedAddress": "0xC7754Ad9E918F2fF55520ffe76A7c358eC1D2b21",
      "assetIds": [
        "55464657044963196816950587289035428064568320970692304673817341489687556012032"
      ],
      "assetValues": [
        1
      ]
    },
    {
      "reservedAddress": "0x7CE6AC6341D75182633015464Ce13ad5054fCaa5",
      "assetIds": [
        "55464657044963196816950587289035428064568320970692304673817341489687556012032"
      ],
      "assetValues": [
        1
      ]
    },
    {
      "reservedAddress": "0x31012d1270A826a8a40259583a639f5963C778DC",
      "assetIds": [
        "55464657044963196816950587289035428064568320970692304673817341489687556012032"
      ],
      "assetValues": [
        1
      ]
    },
    {
      "reservedAddress": "0xdc492f37876c03d426f943c3ba5a738500b7f376",
      "assetIds": [
        "55464657044963196816950587289035428064568320970692304673817341489687556012032"
      ],
      "assetValues": [
        1
      ]
    },
    {
      "reservedAddress": "0x30625A3C4257d3AFb0B6A809ea84440f1434dcD5",
      "assetIds": [
        "55464657044963196816950587289035428064568320970692304673817341489687556012032"
      ],
      "assetValues": [
        1
      ]
    },
    {
      "reservedAddress": "0xc4c54ee47179f1f6B75556268Ad4AABd5C620aB3",
      "assetIds": [
        "55464657044963196816950587289035428064568320970692304673817341489687556012032"
      ],
      "assetValues": [
        1
      ]
    },
    {
      "reservedAddress": "0x52A11f06A30cBB704aBBd069a93FDf6d853FC3C5",
      "assetIds": [
        "55464657044963196816950587289035428064568320970692304673817341489687556012032"
      ],
      "assetValues": [
        1
      ]
    },
    {
      "reservedAddress": "0x0Dc69f398a6C1b6d1777FF4be17cDB97Ca7E5786",
      "assetIds": [
        "55464657044963196816950587289035428064568320970692304673817341489687556012032"
      ],
      "assetValues": [
        1
      ]
    },
    {
      "reservedAddress": "0xeeD62EA77d0a37FB7307722f5e5E4b1A9798413d",
      "assetIds": [
        "55464657044963196816950587289035428064568320970692304673817341489687556012032"
      ],
      "assetValues": [
        1
      ]
    },
    {
      "reservedAddress": "0xDE9F1317F3ab27023f62c4ef94AFC2Ce0cb15835",
      "assetIds": [
        "55464657044963196816950587289035428064568320970692304673817341489687556012032"
      ],
      "assetValues": [
        1
      ]
    },
    {
      "reservedAddress": "0xfDC46fBDd8AF50d9Bf7536Bf44ce8560E423352c",
      "assetIds": [
        "55464657044963196816950587289035428064568320970692304673817341489687556012032"
      ],
      "assetValues": [
        1
      ]
    },
    {
      "reservedAddress": "0x337d892aDd2395de9AF61d4c97237211dFf2B4b4",
      "assetIds": [
        "55464657044963196816950587289035428064568320970692304673817341489687556012032"
      ],
      "assetValues": [
        1
      ]
    },
    {
      "reservedAddress": "0xFd412844Ee4Db8FfbD6D0c5b8a673A6Ba98ECCE0",
      "assetIds": [
        "55464657044963196816950587289035428064568320970692304673817341489687556012032"
      ],
      "assetValues": [
        1
      ]
    },
    {
      "reservedAddress": "0x632A84DC35A1e43B8196B2d08630dC9e6a1F3692",
      "assetIds": [
        "55464657044963196816950587289035428064568320970692304673817341489687556012032"
      ],
      "assetValues": [
        1
      ]
    },
    {
      "reservedAddress": "0xC4351E52F10629B9Bdd6eb85C1a6468d368F209B",
      "assetIds": [
        "55464657044963196816950587289035428064568320970692304673817341489687556012032"
      ],
      "assetValues": [
        1
      ]
    },
    {
      "reservedAddress": "0x1Dc0402602B10EB2d86791EdA203f1A3003488e6",
      "assetIds": [
        "55464657044963196816950587289035428064568320970692304673817341489687556012032"
      ],
      "assetValues": [
        1
      ]
    },
    {
      "reservedAddress": "0x0Ab1D38754E9A3B1253C909DD82111957A635252",
      "assetIds": [
        "55464657044963196816950587289035428064568320970692304673817341489687556012032"
      ],
      "assetValues": [
        1
      ]
    },
    {
      "reservedAddress": "0x1B09eeF13D04b326dbA901c99f62EaB82387d366",
      "assetIds": [
        "55464657044963196816950587289035428064568320970692304673817341489687556012032"
      ],
      "assetValues": [
        1
      ]
    },
    {
      "reservedAddress": "0xdCb8384C387EDa8Dd725f375837051FD8762F39a",
      "assetIds": [
        "55464657044963196816950587289035428064568320970692304673817341489687556012032"
      ],
      "assetValues": [
        1
      ]
    },
    {
      "reservedAddress": "0xECFAACD495D3A63EA435C6A4B9A47EFB8E63AAF6",
      "assetIds": [
        "55464657044963196816950587289035428064568320970692304673817341489687556012032"
      ],
      "assetValues": [
        1
      ]
    },
    {
      "reservedAddress": "0xdd0a4223B501176c1cE551185C09C1Ab0BC0599c",
      "assetIds": [
        "55464657044963196816950587289035428064568320970692304673817341489687556012032"
      ],
      "assetValues": [
        1
      ]
    },
    {
      "reservedAddress": "0x2466E9367AdB080c4438AD32deDAeacb283A054F",
      "assetIds": [
        "55464657044963196816950587289035428064568320970692304673817341489687556012032"
      ],
      "assetValues": [
        1
      ]
    },
    {
      "reservedAddress": "0x7Fb289978970F10853C850CA547e599A27EafcF1",
      "assetIds": [
        "55464657044963196816950587289035428064568320970692304673817341489687556012032"
      ],
      "assetValues": [
        1
      ]
    },
    {
      "reservedAddress": "0x9250fe28376afdaf2c18EE97eE3b71caC2a8F522",
      "assetIds": [
        "55464657044963196816950587289035428064568320970692304673817341489687556012032"
      ],
      "assetValues": [
        1
      ]
    },
    {
      "reservedAddress": "0xB333A0C516bea686f063fe6C75394Db8B20d0c25",
      "assetIds": [
        "55464657044963196816950587289035428064568320970692304673817341489687556012032"
      ],
      "assetValues": [
        1
      ]
    },
    {
      "reservedAddress": "0xDc7ba6e431Df95F74Bb8ecb1DE56B445Cbe8199A",
      "assetIds": [
        "55464657044963196816950587289035428064568320970692304673817341489687556012032"
      ],
      "assetValues": [
        1
      ]
    },
    {
      "reservedAddress": "0xd3FcbFc0CDc52CD63B4D172D5728Fa6118D21086",
      "assetIds": [
        "55464657044963196816950587289035428064568320970692304673817341489687556012032"
      ],
      "assetValues": [
        1
      ]
    },
    {
      "reservedAddress": "0x2498991F0baDA48735e18E6066FdB0F832cCf80A",
      "assetIds": [
        "55464657044963196816950587289035428064568320970692304673817341489687556012032"
      ],
      "assetValues": [
        1
      ]
    },
    {
      "reservedAddress": "0x2C72205C0f63972dc6BFb412a1BE0EcDa8a22001",
      "assetIds": [
        "55464657044963196816950587289035428064568320970692304673817341489687556012032"
      ],
      "assetValues": [
        1
      ]
    },
    {
      "reservedAddress": "0x8cB32AfC67E7eBa702e86Ada407f3882eD2fA021",
      "assetIds": [
        "55464657044963196816950587289035428064568320970692304673817341489687556012032"
      ],
      "assetValues": [
        1
      ]
    },
    {
      "reservedAddress": "0x2f6bE2184972C7786Ef1c5cc2D92F11C55C33d08",
      "assetIds": [
        "55464657044963196816950587289035428064568320970692304673817341489687556012032"
      ],
      "assetValues": [
        1
      ]
    },
    {
      "reservedAddress": "0xF0DC1ACC7ABFBAC9289A9CEFB91E48F51A0F7FCE",
      "assetIds": [
        "55464657044963196816950587289035428064568320970692304673817341489687556012032"
      ],
      "assetValues": [
        1
      ]
    },
    {
      "reservedAddress": "0xCA6570EB6Dd057e05F000815f9Fe3fbe0b6798A5",
      "assetIds": [
        "55464657044963196816950587289035428064568320970692304673817341489687556012032"
      ],
      "assetValues": [
        1
      ]
    },
    {
      "reservedAddress": "0xEF29370c675D66Ca5130FD62F6f047a36FAa2Cde",
      "assetIds": [
        "55464657044963196816950587289035428064568320970692304673817341489687556012032"
      ],
      "assetValues": [
        1
      ]
    },
    {
      "reservedAddress": "0xB65e6425fcBa02008169fc9616Cd597d6c630D88",
      "assetIds": [
        "55464657044963196816950587289035428064568320970692304673817341489687556012032"
      ],
      "assetValues": [
        1
      ]
    },
    {
      "reservedAddress": "0xf140b2d783b0603cf8b8e036b8eb3c78c3a375f6",
      "assetIds": [
        "55464657044963196816950587289035428064568320970692304673817341489687556012032"
      ],
      "assetValues": [
        1
      ]
    },
    {
      "reservedAddress": "0x3421dD57D17C7071fD1Cef7ff88e4Af3EB0FdBc9",
      "assetIds": [
        "55464657044963196816950587289035428064568320970692304673817341489687556012032"
      ],
      "assetValues": [
        1
      ]
    },
    {
      "reservedAddress": "0x7638f4721471Ee7b0A1Edb112f9ff9Da8CF28BBF",
      "assetIds": [
        "55464657044963196816950587289035428064568320970692304673817341489687556012032"
      ],
      "assetValues": [
        1
      ]
    },
    {
      "reservedAddress": "0x0ecaA4EE8b5d67853fC50797537A5BDa59ea62f7",
      "assetIds": [
        "55464657044963196816950587289035428064568320970692304673817341489687556012032"
      ],
      "assetValues": [
        1
      ]
    },
    {
      "reservedAddress": "0x17a6b7fc4d460a9533b38d4e91955702e6323998",
      "assetIds": [
        "55464657044963196816950587289035428064568320970692304673817341489687556012032"
      ],
      "assetValues": [
        1
      ]
    },
    {
      "reservedAddress": "0xa3BdD0dBA8b3194Ae3c94caB9F950E990f6D8bc2",
      "assetIds": [
        "55464657044963196816950587289035428064568320970692304673817341489687556012032"
      ],
      "assetValues": [
        1
      ]
    },
    {
      "reservedAddress": "0xD21BC4cebC0402348d31124De9eF1AA7Ab1dd2cd",
      "assetIds": [
        "55464657044963196816950587289035428064568320970692304673817341489687556012032"
      ],
      "assetValues": [
        1
      ]
    },
    {
      "reservedAddress": "0xd1c3DA264B8c8D599A65fb67351367e71267E346",
      "assetIds": [
        "55464657044963196816950587289035428064568320970692304673817341489687556012032"
      ],
      "assetValues": [
        1
      ]
    },
    {
      "reservedAddress": "0xCA3B9275e38026532a6405D51b03f1d90785A549",
      "assetIds": [
        "55464657044963196816950587289035428064568320970692304673817341489687556012032"
      ],
      "assetValues": [
        1
      ]
    },
    {
      "reservedAddress": "0xfFBAEcBD0482e3dF6D71a571C3e2A88944aed37A",
      "assetIds": [
        "55464657044963196816950587289035428064568320970692304673817341489687556012032"
      ],
      "assetValues": [
        1
      ]
    },
    {
      "reservedAddress": "0x4Bef2187b265A7AafB5d788a755bd3F9add2b24A",
      "assetIds": [
        "55464657044963196816950587289035428064568320970692304673817341489687556012032"
      ],
      "assetValues": [
        1
      ]
    },
    {
      "reservedAddress": "0xecde1E6f391aE2324D3b0548A950c3015E8EeE07",
      "assetIds": [
        "55464657044963196816950587289035428064568320970692304673817341489687556012032"
      ],
      "assetValues": [
        1
      ]
    },
    {
      "reservedAddress": "0xb9139Ba2c5366BDE144f1dF4fDc56eD82bD646Bc",
      "assetIds": [
        "55464657044963196816950587289035428064568320970692304673817341489687556012032"
      ],
      "assetValues": [
        1
      ]
    },
    {
      "reservedAddress": "0xe71BAA9C2b8735A2d9c2d1c68bA37fC9af7fFd60",
      "assetIds": [
        "55464657044963196816950587289035428064568320970692304673817341489687556012032"
      ],
      "assetValues": [
        1
      ]
    },
    {
      "reservedAddress": "0x961416b1667979D406b6FAD326D2282c9A73C559",
      "assetIds": [
        "55464657044963196816950587289035428064568320970692304673817341489687556012032"
      ],
      "assetValues": [
        1
      ]
    },
    {
      "reservedAddress": "0x4a1c106660301B436585f73D249e3b195a6a611c",
      "assetIds": [
        "55464657044963196816950587289035428064568320970692304673817341489687556012032"
      ],
      "assetValues": [
        1
      ]
    },
    {
      "reservedAddress": "0x3f84999E34De17FE878D9286Bf2E4c7C5293FEB7",
      "assetIds": [
        "55464657044963196816950587289035428064568320970692304673817341489687556012032"
      ],
      "assetValues": [
        1
      ]
    },
    {
      "reservedAddress": "0xFcec08cC99D3c36486e067a2c53D1106f02379C9",
      "assetIds": [
        "55464657044963196816950587289035428064568320970692304673817341489687556012032"
      ],
      "assetValues": [
        1
      ]
    },
    {
      "reservedAddress": "0xabfee1ef5c152ce8955af0591a9041fc98e955ef",
      "assetIds": [
        "55464657044963196816950587289035428064568320970692304673817341489687556012032"
      ],
      "assetValues": [
        1
      ]
    },
    {
      "reservedAddress": "0x6E777e0684841c590ae82Df4105252b17E0E48a0",
      "assetIds": [
        "55464657044963196816950587289035428064568320970692304673817341489687556012032"
      ],
      "assetValues": [
        1
      ]
    },
    {
      "reservedAddress": "0x146c94C03C0Ce681041fE75D37fe70795093aFc6",
      "assetIds": [
        "55464657044963196816950587289035428064568320970692304673817341489687556012032"
      ],
      "assetValues": [
        1
      ]
    },
    {
      "reservedAddress": "0x26Daf0750B1AB7D1359412ed5656F4e9739D6c31",
      "assetIds": [
        "55464657044963196816950587289035428064568320970692304673817341489687556012032"
      ],
      "assetValues": [
        1
      ]
    },
    {
      "reservedAddress": "0x070a66Ad76AA135988A9F3F93604D7f6aC558fa3",
      "assetIds": [
        "55464657044963196816950587289035428064568320970692304673817341489687556012032"
      ],
      "assetValues": [
        1
      ]
    },
    {
      "reservedAddress": "0x9cab2657f8551c7dab6d4a770693fb7a49fe768b",
      "assetIds": [
        "55464657044963196816950587289035428064568320970692304673817341489687556012032"
      ],
      "assetValues": [
        1
      ]
    },
    {
      "reservedAddress": "0x8C86477DA0942Ecf8e6a36873a31e44899B651a2",
      "assetIds": [
        "55464657044963196816950587289035428064568320970692304673817341489687556012032"
      ],
      "assetValues": [
        1
      ]
    },
    {
      "reservedAddress": "0x92609e0EeE3bAC195A2dEEe71824cd89efA70e0E",
      "assetIds": [
        "55464657044963196816950587289035428064568320970692304673817341489687556012032"
      ],
      "assetValues": [
        1
      ]
    },
    {
      "reservedAddress": "0x149430401f2479271b1b747f29563862c8cd54c5",
      "assetIds": [
        "55464657044963196816950587289035428064568320970692304673817341489687556012032"
      ],
      "assetValues": [
        1
      ]
    },
    {
      "reservedAddress": "0xE1014b12287284b74FFccA417c659c9EF37a68C2",
      "assetIds": [
        "55464657044963196816950587289035428064568320970692304673817341489687556012032"
      ],
      "assetValues": [
        1
      ]
    },
    {
      "reservedAddress": "0xEb0b664f1C5f171BBc1C45E332a753f45bBc56D2",
      "assetIds": [
        "55464657044963196816950587289035428064568320970692304673817341489687556012032"
      ],
      "assetValues": [
        1
      ]
    },
    {
      "reservedAddress": "0xF69c7C3fAfD983d862dc00Ab219344205d50f7e9",
      "assetIds": [
        "55464657044963196816950587289035428064568320970692304673817341489687556012032"
      ],
      "assetValues": [
        1
      ]
    },
    {
      "reservedAddress": "0x59EC0EDb51AB373C94E1f93FA3CDAAa94AAE582b",
      "assetIds": [
        "55464657044963196816950587289035428064568320970692304673817341489687556012032"
      ],
      "assetValues": [
        1
      ]
    },
    {
      "reservedAddress": "0xf53C008636A4DE1E48002ea9f2dd92Ae27F5d04E",
      "assetIds": [
        "55464657044963196816950587289035428064568320970692304673817341489687556012032"
      ],
      "assetValues": [
        1
      ]
    },
    {
      "reservedAddress": "0x7d2A55456589E1d9b3f9e0F17228129af48C94eE",
      "assetIds": [
        "55464657044963196816950587289035428064568320970692304673817341489687556012032"
      ],
      "assetValues": [
        1
      ]
    },
    {
      "reservedAddress": "0x5938ec5d7a636aefd9B890360767Be410f6Eb440",
      "assetIds": [
        "55464657044963196816950587289035428064568320970692304673817341489687556012032"
      ],
      "assetValues": [
        1
      ]
    },
    {
      "reservedAddress": "0xffAd4836B73A1CE5D86230e98Cb3E52cde35379e",
      "assetIds": [
        "55464657044963196816950587289035428064568320970692304673817341489687556012032"
      ],
      "assetValues": [
        1
      ]
    },
    {
      "reservedAddress": "0x2F54Dc965fCF3149a6E4964565336a6caF5Cfa10",
      "assetIds": [
        "55464657044963196816950587289035428064568320970692304673817341489687556012032"
      ],
      "assetValues": [
        1
      ]
    },
    {
      "reservedAddress": "0x8e73fc71828a150ecd6dd28990f87b09301cd466",
      "assetIds": [
        "55464657044963196816950587289035428064568320970692304673817341489687556012032"
      ],
      "assetValues": [
        1
      ]
    },
    {
      "reservedAddress": "0x41c95a54e95667CAA0d0c4c734a2190e16fE0d60",
      "assetIds": [
        "55464657044963196816950587289035428064568320970692304673817341489687556012032"
      ],
      "assetValues": [
        1
      ]
    },
    {
      "reservedAddress": "0x2a28ea1F5bE7E0f2374362C0F7eE4ECf7884c5A3",
      "assetIds": [
        "55464657044963196816950587289035428064568320970692304673817341489687556012032"
      ],
      "assetValues": [
        1
      ]
    },
    {
      "reservedAddress": "0x77B09677dEa2bE5c0e50dba613D148d8475b417f",
      "assetIds": [
        "55464657044963196816950587289035428064568320970692304673817341489687556012032"
      ],
      "assetValues": [
        1
      ]
    },
    {
      "reservedAddress": "0x4e1075a9179897c7b88976a1591389ad23e5d9d0",
      "assetIds": [
        "55464657044963196816950587289035428064568320970692304673817341489687556012032"
      ],
      "assetValues": [
        1
      ]
    },
    {
      "reservedAddress": "0x2776dCA31dFC7cce9C30a94917D0d72605b52ADa",
      "assetIds": [
        "55464657044963196816950587289035428064568320970692304673817341489687556012032"
      ],
      "assetValues": [
        1
      ]
    },
    {
      "reservedAddress": "0x57632cC7371Bc8C85107E6deaf60B40DA263cD60",
      "assetIds": [
        "55464657044963196816950587289035428064568320970692304673817341489687556012032"
      ],
      "assetValues": [
        1
      ]
    },
    {
      "reservedAddress": "0x3996206d68d6d8D6FE162036956fBD08B3b37652",
      "assetIds": [
        "55464657044963196816950587289035428064568320970692304673817341489687556012032"
      ],
      "assetValues": [
        1
      ]
    },
    {
      "reservedAddress": "0x884B6238d6fE2833995B461DC92D61e81F9911EA",
      "assetIds": [
        "55464657044963196816950587289035428064568320970692304673817341489687556012032"
      ],
      "assetValues": [
        1
      ]
    },
    {
      "reservedAddress": "0x2E1f6F61dA866396EcE6992a9D7575eaAFf95368",
      "assetIds": [
        "55464657044963196816950587289035428064568320970692304673817341489687556012032"
      ],
      "assetValues": [
        1
      ]
    },
    {
      "reservedAddress": "0x7cb68102ab290e5add809c85180eecdc4ef48c98",
      "assetIds": [
        "55464657044963196816950587289035428064568320970692304673817341489687556012032"
      ],
      "assetValues": [
        1
      ]
    },
    {
      "reservedAddress": "0x18CcFa5744F679c5e37C7dcA74Ee3b34DBF78aE6",
      "assetIds": [
        "55464657044963196816950587289035428064568320970692304673817341489687556012032"
      ],
      "assetValues": [
        1
      ]
    },
    {
      "reservedAddress": "0x13796b4423CF5AbF59f9da9694C4a67200Dd1118",
      "assetIds": [
        "55464657044963196816950587289035428064568320970692304673817341489687556012032"
      ],
      "assetValues": [
        1
      ]
    },
    {
      "reservedAddress": "0x2213A3c4a1377439f2B866c3a0EAD7E9929EEc4B",
      "assetIds": [
        "55464657044963196816950587289035428064568320970692304673817341489687556012032"
      ],
      "assetValues": [
        1
      ]
    },
    {
      "reservedAddress": "0xe8A98A96Ba11e83D842C5dF09899FBc1c9710e71",
      "assetIds": [
        "55464657044963196816950587289035428064568320970692304673817341489687556012032"
      ],
      "assetValues": [
        1
      ]
    },
    {
      "reservedAddress": "0x8D0e6528A7FBfE12Cc381Ff35229AD6eaEdc9e46",
      "assetIds": [
        "55464657044963196816950587289035428064568320970692304673817341489687556012032"
      ],
      "assetValues": [
        1
      ]
    },
    {
      "reservedAddress": "0xe8aba0daf5bdca7b508ed1f3e14b4e32cc49377f",
      "assetIds": [
        "55464657044963196816950587289035428064568320970692304673817341489687556012032"
      ],
      "assetValues": [
        1
      ]
    },
    {
      "reservedAddress": "0xF1CD1Efe8368eC12db53D1503F10172e55E205fE",
      "assetIds": [
        "55464657044963196816950587289035428064568320970692304673817341489687556012032"
      ],
      "assetValues": [
        1
      ]
    },
    {
      "reservedAddress": "0xaDD6805b30eF7187A3B6CdFEE4060A3F0C98A248",
      "assetIds": [
        "55464657044963196816950587289035428064568320970692304673817341489687556012032"
      ],
      "assetValues": [
        1
      ]
    },
    {
      "reservedAddress": "0x22a37856DB876C11795832187aDE28E492b67c12",
      "assetIds": [
        "55464657044963196816950587289035428064568320970692304673817341489687556012032"
      ],
      "assetValues": [
        1
      ]
    },
    {
      "reservedAddress": "0x6Ea6e403192DCE9497E9866b8AfF3EFeb9Db56D7",
      "assetIds": [
        "55464657044963196816950587289035428064568320970692304673817341489687556012032"
      ],
      "assetValues": [
        1
      ]
    },
    {
      "reservedAddress": "0xe58e9D6244d9D206c2c9BC0Ea36b2aEA974B7D2A",
      "assetIds": [
        "55464657044963196816950587289035428064568320970692304673817341489687556012032"
      ],
      "assetValues": [
        1
      ]
    },
    {
      "reservedAddress": "0xBD14fAc5AA44ff0C8b9420Ea7d3Fd20BCAC11635",
      "assetIds": [
        "55464657044963196816950587289035428064568320970692304673817341489687556012032"
      ],
      "assetValues": [
        1
      ]
    },
    {
      "reservedAddress": "0xe719Cb23b3296018991cbc250b55124AC70159f8",
      "assetIds": [
        "55464657044963196816950587289035428064568320970692304673817341489687556012032"
      ],
      "assetValues": [
        1
      ]
    },
    {
      "reservedAddress": "0xC43DF0a4464E27D9bAF822e4B3833A45cE861700",
      "assetIds": [
        "55464657044963196816950587289035428064568320970692304673817341489687556012032"
      ],
      "assetValues": [
        1
      ]
    },
    {
      "reservedAddress": "0x5Ae560c948832e7EA780092d07FE503979bc93d1",
      "assetIds": [
        "55464657044963196816950587289035428064568320970692304673817341489687556012032"
      ],
      "assetValues": [
        1
      ]
    },
    {
      "reservedAddress": "0xE82153467d1b7c17cEaf6f3cA96B474cB49B8C51",
      "assetIds": [
        "55464657044963196816950587289035428064568320970692304673817341489687556012032"
      ],
      "assetValues": [
        1
      ]
    },
    {
      "reservedAddress": "0x2FcD93979e8060e4b0E37aa7F5c7dBae18A749D1",
      "assetIds": [
        "55464657044963196816950587289035428064568320970692304673817341489687556012032"
      ],
      "assetValues": [
        1
      ]
    },
    {
      "reservedAddress": "0x76C736061495bd87d533bb7a09cf64cFaFaf5CE6",
      "assetIds": [
        "55464657044963196816950587289035428064568320970692304673817341489687556012032"
      ],
      "assetValues": [
        1
      ]
    },
    {
      "reservedAddress": "0x7D5d29BA4354a4324D47C433eCa48194Acaff34d",
      "assetIds": [
        "55464657044963196816950587289035428064568320970692304673817341489687556012032"
      ],
      "assetValues": [
        1
      ]
    },
    {
      "reservedAddress": "0x005a36C1EAa64C5d0e580a80c58Ebd8EE3D8220B",
      "assetIds": [
        "55464657044963196816950587289035428064568320970692304673817341489687556012032"
      ],
      "assetValues": [
        1
      ]
    },
    {
      "reservedAddress": "0x77eBDc530a2572343da608E3EbB45A3C70D7531a",
      "assetIds": [
        "55464657044963196816950587289035428064568320970692304673817341489687556012032"
      ],
      "assetValues": [
        1
      ]
    },
    {
      "reservedAddress": "0x04168ccFDedf4b9aA96357A28230e8F0F9A2a848",
      "assetIds": [
        "55464657044963196816950587289035428064568320970692304673817341489687556012032"
      ],
      "assetValues": [
        1
      ]
    },
    {
      "reservedAddress": "0x9395E78EA234348A8Bd451A3f689b6062F4d867A",
      "assetIds": [
        "55464657044963196816950587289035428064568320970692304673817341489687556012032"
      ],
      "assetValues": [
        1
      ]
    },
    {
      "reservedAddress": "0xBcFBa64043d0be99eFfA6B6F4a97F4d620d0441d",
      "assetIds": [
        "55464657044963196816950587289035428064568320970692304673817341489687556012032"
      ],
      "assetValues": [
        1
      ]
    },
    {
      "reservedAddress": "0x1500Df5aD1b118181Fc39A80f3852dE69bAf6B5E",
      "assetIds": [
        "55464657044963196816950587289035428064568320970692304673817341489687556012032"
      ],
      "assetValues": [
        1
      ]
    },
    {
      "reservedAddress": "0x5340f36fb3B5d389cD483a29AEa6051D7B416BB5",
      "assetIds": [
        "55464657044963196816950587289035428064568320970692304673817341489687556012032"
      ],
      "assetValues": [
        1
      ]
    },
    {
      "reservedAddress": "0x41CFb96BDF9D9074949447585A4387453A659436",
      "assetIds": [
        "55464657044963196816950587289035428064568320970692304673817341489687556012032"
      ],
      "assetValues": [
        1
      ]
    },
    {
      "reservedAddress": "0x53942f8602002d0fcc2c697563Ee201f01Fd2Aa8",
      "assetIds": [
        "55464657044963196816950587289035428064568320970692304673817341489687556012032"
      ],
      "assetValues": [
        1
      ]
    },
    {
      "reservedAddress": "0x8847f2054ffae842444C8eB5015126F40555aABE",
      "assetIds": [
        "55464657044963196816950587289035428064568320970692304673817341489687556012032"
      ],
      "assetValues": [
        1
      ]
    },
    {
      "reservedAddress": "0xCdC9c71DCCC829CC054372E8f0B6CEfAcf8e0981",
      "assetIds": [
        "55464657044963196816950587289035428064568320970692304673817341489687556012032"
      ],
      "assetValues": [
        1
      ]
    },
    {
      "reservedAddress": "0xF5D07f819842de7D10976a86f7d75023C0278EE1",
      "assetIds": [
        "55464657044963196816950587289035428064568320970692304673817341489687556012032"
      ],
      "assetValues": [
        1
      ]
    },
    {
      "reservedAddress": "0x1bFDfA0127e021a63897bea27a1BBBd6f00Af7f1",
      "assetIds": [
        "55464657044963196816950587289035428064568320970692304673817341489687556012032"
      ],
      "assetValues": [
        1
      ]
    },
    {
      "reservedAddress": "0xD088d3a9079F591b04EC1Bc51b3ab4D1aCC118Ec",
      "assetIds": [
        "55464657044963196816950587289035428064568320970692304673817341489687556012032"
      ],
      "assetValues": [
        1
      ]
    },
    {
      "reservedAddress": "0xF06C670B51D1af675b223145f4c433a741aB9f3D",
      "assetIds": [
        "55464657044963196816950587289035428064568320970692304673817341489687556012032"
      ],
      "assetValues": [
        1
      ]
    },
    {
      "reservedAddress": "0x5d18306FD662C24Bda63Af7092656Dd893CFA68D",
      "assetIds": [
        "55464657044963196816950587289035428064568320970692304673817341489687556012032"
      ],
      "assetValues": [
        1
      ]
    },
    {
      "reservedAddress": "0x8Ab09267Cea4f338e5f4f7774c0381A1b9771EaE",
      "assetIds": [
        "55464657044963196816950587289035428064568320970692304673817341489687556012032"
      ],
      "assetValues": [
        1
      ]
    },
    {
      "reservedAddress": "0x6a0b08cb390a3d4903a27fff9dc989749468461b",
      "assetIds": [
        "55464657044963196816950587289035428064568320970692304673817341489687556012032"
      ],
      "assetValues": [
        1
      ]
    },
    {
      "reservedAddress": "0xf176308c5ce83751d105E62De6e203A1606D0685",
      "assetIds": [
        "55464657044963196816950587289035428064568320970692304673817341489687556012032"
      ],
      "assetValues": [
        1
      ]
    },
    {
      "reservedAddress": "0x93d5f964Bdc1A3820616a8757E786bD403A5a0c7",
      "assetIds": [
        "55464657044963196816950587289035428064568320970692304673817341489687556012032"
      ],
      "assetValues": [
        1
      ]
    },
    {
      "reservedAddress": "0x40dB2bf5D630A413035a9049Df2eD1776B0F7784",
      "assetIds": [
        "55464657044963196816950587289035428064568320970692304673817341489687556012032"
      ],
      "assetValues": [
        1
      ]
    },
    {
      "reservedAddress": "0x5661fc304CbaeE874Ffa43a337D6cD2BFf222fF8",
      "assetIds": [
        "55464657044963196816950587289035428064568320970692304673817341489687556012032"
      ],
      "assetValues": [
        1
      ]
    },
    {
      "reservedAddress": "0x8b1239fa91d5ae3238e7921c6a72df56323e51f5",
      "assetIds": [
        "55464657044963196816950587289035428064568320970692304673817341489687556012032"
      ],
      "assetValues": [
        1
      ]
    },
    {
      "reservedAddress": "0x5816DF16Eba3e433a050326c2b225Fb08fFD4c7e",
      "assetIds": [
        "55464657044963196816950587289035428064568320970692304673817341489687556012032"
      ],
      "assetValues": [
        1
      ]
    },
    {
      "reservedAddress": "0x43272A8942Bb841417f1937F879b6549739C6AF5",
      "assetIds": [
        "55464657044963196816950587289035428064568320970692304673817341489687556012032"
      ],
      "assetValues": [
        1
      ]
    },
    {
      "reservedAddress": "0xcA5581772Ca0a054286DA310A0D5db2080f951C7",
      "assetIds": [
        "55464657044963196816950587289035428064568320970692304673817341489687556012032"
      ],
      "assetValues": [
        1
      ]
    },
    {
      "reservedAddress": "0x9C2b6c1896e324898d994e8790baC1E34afbfbfD",
      "assetIds": [
        "55464657044963196816950587289035428064568320970692304673817341489687556012032"
      ],
      "assetValues": [
        1
      ]
    },
    {
      "reservedAddress": "0x7332a7474970fd719cf7BFCE4EE3C8355C444478",
      "assetIds": [
        "55464657044963196816950587289035428064568320970692304673817341489687556012032"
      ],
      "assetValues": [
        1
      ]
    },
    {
      "reservedAddress": "0x5b8f0E22563907741276a133DdAe4d4d80e40777",
      "assetIds": [
        "55464657044963196816950587289035428064568320970692304673817341489687556012032"
      ],
      "assetValues": [
        1
      ]
    },
    {
      "reservedAddress": "0xd1c45ab9F122ECAfF68582c14E420c97D161B555",
      "assetIds": [
        "55464657044963196816950587289035428064568320970692304673817341489687556012032"
      ],
      "assetValues": [
        1
      ]
    },
    {
      "reservedAddress": "0x929a95586381289E8CB0f12b4d30a50c80b3c15e",
      "assetIds": [
        "55464657044963196816950587289035428064568320970692304673817341489687556012032"
      ],
      "assetValues": [
        1
      ]
    },
    {
      "reservedAddress": "0x07F7a9888A0f6E29fBd23e46A84E7a53D4B362cD",
      "assetIds": [
        "55464657044963196816950587289035428064568320970692304673817341489687556012032"
      ],
      "assetValues": [
        1
      ]
    },
    {
      "reservedAddress": "0xe38beef13ca9001157fffeeb7a3285231dfaadea",
      "assetIds": [
        "55464657044963196816950587289035428064568320970692304673817341489687556012032"
      ],
      "assetValues": [
        1
      ]
    },
    {
      "reservedAddress": "0xDF14100B76a5b5fd46FbA22b7Ac124919CFfC92a",
      "assetIds": [
        "55464657044963196816950587289035428064568320970692304673817341489687556012032"
      ],
      "assetValues": [
        1
      ]
    },
    {
      "reservedAddress": "0x80D6364C875b68b5A1e83e5d6dde7Ad9b12b62B6",
      "assetIds": [
        "55464657044963196816950587289035428064568320970692304673817341489687556012032"
      ],
      "assetValues": [
        1
      ]
    },
    {
      "reservedAddress": "0x6674353e16B2a2Fc5aF172b90652aED7c9d7Cb90",
      "assetIds": [
        "55464657044963196816950587289035428064568320970692304673817341489687556012032"
      ],
      "assetValues": [
        1
      ]
    },
    {
      "reservedAddress": "0x74aCBfB51EcdD1e0f6136130A4e81faAcb8e7dd6",
      "assetIds": [
        "55464657044963196816950587289035428064568320970692304673817341489687556012032"
      ],
      "assetValues": [
        1
      ]
    },
    {
      "reservedAddress": "0x1d84a24aE1DdF2468defCD639155F72E7073631E",
      "assetIds": [
        "55464657044963196816950587289035428064568320970692304673817341489687556012032"
      ],
      "assetValues": [
        1
      ]
    },
    {
      "reservedAddress": "0xf39328db65f8834D2D1e03b2B6EEC10D9a63ca08",
      "assetIds": [
        "55464657044963196816950587289035428064568320970692304673817341489687556012032"
      ],
      "assetValues": [
        1
      ]
    },
    {
      "reservedAddress": "0x933c9F31aFB042bB2B0854645592eD677e8E1f69",
      "assetIds": [
        "55464657044963196816950587289035428064568320970692304673817341489687556012032"
      ],
      "assetValues": [
        1
      ]
    },
    {
      "reservedAddress": "0xcb53f0bfa2fc4c181bf4d9bdb4e265456276da02",
      "assetIds": [
        "55464657044963196816950587289035428064568320970692304673817341489687556012032"
      ],
      "assetValues": [
        1
      ]
    },
    {
      "reservedAddress": "0xE6D8441DaC6c23b2F4cD22c2Af64CC713965c454",
      "assetIds": [
        "55464657044963196816950587289035428064568320970692304673817341489687556012032"
      ],
      "assetValues": [
        1
      ]
    },
    {
      "reservedAddress": "0x33826b2367a70083C268D4b0fb2C0696F05FFc83",
      "assetIds": [
        "55464657044963196816950587289035428064568320970692304673817341489687556012032"
      ],
      "assetValues": [
        1
      ]
    },
    {
      "reservedAddress": "0x43eF6526Ad70C96731a5da40fD56E30E2bE49159",
      "assetIds": [
        "55464657044963196816950587289035428064568320970692304673817341489687556012032"
      ],
      "assetValues": [
        1
      ]
    },
    {
      "reservedAddress": "0x8AbAbE610a286dC6FD00f65BE7078c9088d48f15",
      "assetIds": [
        "55464657044963196816950587289035428064568320970692304673817341489687556012032"
      ],
      "assetValues": [
        1
      ]
    },
    {
      "reservedAddress": "0x5153aC5b84685907d17E6B8EF379527f58FFa69F",
      "assetIds": [
        "55464657044963196816950587289035428064568320970692304673817341489687556012032"
      ],
      "assetValues": [
        1
      ]
    },
    {
      "reservedAddress": "0xDBB317B5951C661395B3E93808a3722d8825822a",
      "assetIds": [
        "55464657044963196816950587289035428064568320970692304673817341489687556012032"
      ],
      "assetValues": [
        1
      ]
    },
    {
      "reservedAddress": "0x7eF2D488E3DAFe3e0aDf35949181a4813C5AB4BE",
      "assetIds": [
        "55464657044963196816950587289035428064568320970692304673817341489687556012032"
      ],
      "assetValues": [
        1
      ]
    },
    {
      "reservedAddress": "0x0e13C4ABe163d9B0ca663bB488Dd686d63a8A4ec",
      "assetIds": [
        "55464657044963196816950587289035428064568320970692304673817341489687556012032"
      ],
      "assetValues": [
        1
      ]
    },
    {
      "reservedAddress": "0x1cACB58ffd620003F50328bE80A0e52AE1d1d83E",
      "assetIds": [
        "55464657044963196816950587289035428064568320970692304673817341489687556012032"
      ],
      "assetValues": [
        1
      ]
    },
    {
      "reservedAddress": "0x3e4C62F0bCeA00BC14cCD87A4c36Ba92F24B80F6",
      "assetIds": [
        "55464657044963196816950587289035428064568320970692304673817341489687556012032"
      ],
      "assetValues": [
        1
      ]
    },
    {
      "reservedAddress": "0x62718C11A13890f8403eb93B900449A671ee45Db",
      "assetIds": [
        "55464657044963196816950587289035428064568320970692304673817341489687556012032"
      ],
      "assetValues": [
        1
      ]
    },
    {
      "reservedAddress": "0x62943e8F32316e9fabe65fa014e175209F27Bcd3",
      "assetIds": [
        "55464657044963196816950587289035428064568320970692304673817341489687556012032"
      ],
      "assetValues": [
        1
      ]
    },
    {
      "reservedAddress": "0xB769c527adff821C073F769cFc9813ce8F6B6277",
      "assetIds": [
        "55464657044963196816950587289035428064568320970692304673817341489687556012032"
      ],
      "assetValues": [
        1
      ]
    },
    {
      "reservedAddress": "0xc77dEead52F8F8596217bDFD0F381B96B0C7C710",
      "assetIds": [
        "55464657044963196816950587289035428064568320970692304673817341489687556012032"
      ],
      "assetValues": [
        1
      ]
    },
    {
      "reservedAddress": "0xcFcc9886CAfCf32B116b0608d2FDe225790B82E7",
      "assetIds": [
        "55464657044963196816950587289035428064568320970692304673817341489687556012032"
      ],
      "assetValues": [
        1
      ]
    },
    {
      "reservedAddress": "0xe1A85b6D5ED34000e30Bd4580203f324B14F38a0",
      "assetIds": [
        "55464657044963196816950587289035428064568320970692304673817341489687556012032"
      ],
      "assetValues": [
        1
      ]
    },
    {
      "reservedAddress": "0x09090813d3828275E7FD95cBeb5EBAe5a0525fa8",
      "assetIds": [
        "55464657044963196816950587289035428064568320970692304673817341489687556012032"
      ],
      "assetValues": [
        1
      ]
    },
    {
      "reservedAddress": "0x86a7ccEFe8DAFD7227B015616c780832aB0Bc1b0",
      "assetIds": [
        "55464657044963196816950587289035428064568320970692304673817341489687556012032"
      ],
      "assetValues": [
        1
      ]
    },
    {
      "reservedAddress": "0xb8e54ea0ae19b0b343Ae803A9D3Ae4833477b0ef",
      "assetIds": [
        "55464657044963196816950587289035428064568320970692304673817341489687556012032"
      ],
      "assetValues": [
        1
      ]
    },
    {
      "reservedAddress": "0x21F15434E5Dd67f6B5128A98fcAd224393932120",
      "assetIds": [
        "55464657044963196816950587289035428064568320970692304673817341489687556012032"
      ],
      "assetValues": [
        1
      ]
    },
    {
      "reservedAddress": "0xd5F5582560eab7d63b2d855D9b748E16DeF88Ecc",
      "assetIds": [
        "55464657044963196816950587289035428064568320970692304673817341489687556012032"
      ],
      "assetValues": [
        1
      ]
    },
    {
      "reservedAddress": "0x10cEc57bEe962919a0892BB1224Cb8b8DFDaa058",
      "assetIds": [
        "55464657044963196816950587289035428064568320970692304673817341489687556012032"
      ],
      "assetValues": [
        1
      ]
    },
    {
      "reservedAddress": "0x0E283650af7237B723BB6Be5594C12fA8606d3ec",
      "assetIds": [
        "55464657044963196816950587289035428064568320970692304673817341489687556012032"
      ],
      "assetValues": [
        1
      ]
    },
    {
      "reservedAddress": "0xD544446aE8B6D74ff0AAebf8bF9D8d609f8665bD",
      "assetIds": [
        "55464657044963196816950587289035428064568320970692304673817341489687556012032"
      ],
      "assetValues": [
        1
      ]
    },
    {
      "reservedAddress": "0x58bCF0289A0e6FD099495572c1C9b79A3D65269a",
      "assetIds": [
        "55464657044963196816950587289035428064568320970692304673817341489687556012032"
      ],
      "assetValues": [
        1
      ]
    },
    {
      "reservedAddress": "0x5Bb03B51210132D2A00008Eff9877052596721dd",
      "assetIds": [
        "55464657044963196816950587289035428064568320970692304673817341489687556012032"
      ],
      "assetValues": [
        1
      ]
    },
    {
      "reservedAddress": "0x05f4Bdbb4E44Fe9e0b90ba3cFa45AAa3ad5F6716",
      "assetIds": [
        "55464657044963196816950587289035428064568320970692304673817341489687556012032"
      ],
      "assetValues": [
        1
      ]
    },
    {
      "reservedAddress": "0xc580bBD13Aef1368e6d07de42Ca9420187562fd5",
      "assetIds": [
        "55464657044963196816950587289035428064568320970692304673817341489687556012032"
      ],
      "assetValues": [
        1
      ]
    },
    {
      "reservedAddress": "0xbf366f4816659e22c6f27BAD31f866023ef39f4b",
      "assetIds": [
        "55464657044963196816950587289035428064568320970692304673817341489687556012032"
      ],
      "assetValues": [
        1
      ]
    },
    {
      "reservedAddress": "0x841ea11eAA3D00f9aC4898C17782F41AA38BAB6B",
      "assetIds": [
        "55464657044963196816950587289035428064568320970692304673817341489687556012032"
      ],
      "assetValues": [
        1
      ]
    },
    {
      "reservedAddress": "0x7b2daebb553C3B349b2589819fd8bCEb54389bAB",
      "assetIds": [
        "55464657044963196816950587289035428064568320970692304673817341489687556012032"
      ],
      "assetValues": [
        1
      ]
    },
    {
      "reservedAddress": "0x4689d6581b12321bB480d343eb24b33Be4B07D9E",
      "assetIds": [
        "55464657044963196816950587289035428064568320970692304673817341489687556012032"
      ],
      "assetValues": [
        1
      ]
    },
    {
      "reservedAddress": "0x327794cbf07111aa6f8f4afcf4918b682fa24651",
      "assetIds": [
        "55464657044963196816950587289035428064568320970692304673817341489687556012032"
      ],
      "assetValues": [
        1
      ]
    },
    {
      "reservedAddress": "0xb99f589b02c6767D05a082Da86b1eEDeCBe19368",
      "assetIds": [
        "55464657044963196816950587289035428064568320970692304673817341489687556012032"
      ],
      "assetValues": [
        1
      ]
    },
    {
      "reservedAddress": "0x5FA2B68FC1593Cd19AE0e9413830Cd20261002ae",
      "assetIds": [
        "55464657044963196816950587289035428064568320970692304673817341489687556012032"
      ],
      "assetValues": [
        1
      ]
    },
    {
      "reservedAddress": "0x659445ec839059FFF0Fb36eF1cF994f53aca683F",
      "assetIds": [
        "55464657044963196816950587289035428064568320970692304673817341489687556012032"
      ],
      "assetValues": [
        1
      ]
    },
    {
      "reservedAddress": "0xF3CBEdB211a069Ec0e4B5C533D001D591356986B",
      "assetIds": [
        "55464657044963196816950587289035428064568320970692304673817341489687556012032"
      ],
      "assetValues": [
        1
      ]
    },
    {
      "reservedAddress": "0x81a7136ef5b0b54eE09Ee06EE9f4936CFf801667",
      "assetIds": [
        "55464657044963196816950587289035428064568320970692304673817341489687556012032"
      ],
      "assetValues": [
        1
      ]
    },
    {
      "reservedAddress": "0xdF3e18e87a9BBF4Ff39f0561c057f88F738BFe62",
      "assetIds": [
        "55464657044963196816950587289035428064568320970692304673817341489687556012032"
      ],
      "assetValues": [
        1
      ]
    },
    {
      "reservedAddress": "0xd1BCefeD0F0E7FEF0CF757Ad0cEb0fd9ea5A6290",
      "assetIds": [
        "55464657044963196816950587289035428064568320970692304673817341489687556012032"
      ],
      "assetValues": [
        1
      ]
    },
    {
      "reservedAddress": "0x81DD61b00484ef2D0ba10F839BB3137eF577fE8D",
      "assetIds": [
        "55464657044963196816950587289035428064568320970692304673817341489687556012032"
      ],
      "assetValues": [
        1
      ]
    },
    {
      "reservedAddress": "0x3050394a9A9B24C16511D35394493b2fA1022015",
      "assetIds": [
        "55464657044963196816950587289035428064568320970692304673817341489687556012032"
      ],
      "assetValues": [
        1
      ]
    },
    {
      "reservedAddress": "0x596f7C29537b62018a4fB91935B75600b27c8520",
      "assetIds": [
        "55464657044963196816950587289035428064568320970692304673817341489687556012032"
      ],
      "assetValues": [
        1
      ]
    },
    {
      "reservedAddress": "0x4D9BEfC19FeD135FE56D8785ca3d93F3D00fCC29",
      "assetIds": [
        "55464657044963196816950587289035428064568320970692304673817341489687556012032"
      ],
      "assetValues": [
        1
      ]
    },
    {
      "reservedAddress": "0x5CA7E5dd21C97F8B9f5254F76aE32B952b4B9c14",
      "assetIds": [
        "55464657044963196816950587289035428064568320970692304673817341489687556012032"
      ],
      "assetValues": [
        1
      ]
    },
    {
      "reservedAddress": "0xF647c936FA9064B67e59C962b069626cb688fFb1",
      "assetIds": [
        "55464657044963196816950587289035428064568320970692304673817341489687556012032"
      ],
      "assetValues": [
        1
      ]
    },
    {
      "reservedAddress": "0xFFdb1f9FFCF4e6C47033d2c75Eb3e2bAA8f8088B",
      "assetIds": [
        "55464657044963196816950587289035428064568320970692304673817341489687556012032"
      ],
      "assetValues": [
        1
      ]
    },
    {
      "reservedAddress": "0xD524bE35540D0Fc269326E7682889278B68FA6CC",
      "assetIds": [
        "55464657044963196816950587289035428064568320970692304673817341489687556012032"
      ],
      "assetValues": [
        1
      ]
    },
    {
      "reservedAddress": "0x6859c97c8E1857eF82b24f3B0326c3050fd49aA6",
      "assetIds": [
        "55464657044963196816950587289035428064568320970692304673817341489687556012032"
      ],
      "assetValues": [
        1
      ]
    },
    {
      "reservedAddress": "0x5bB59DB58252CF7485E6730f6803F26825d58C53",
      "assetIds": [
        "55464657044963196816950587289035428064568320970692304673817341489687556012032"
      ],
      "assetValues": [
        1
      ]
    }
  ],
  "solcInputHash": "41dc59db22a04a09569f893665365c4c",
  "bytecode": "0x60e060405234801561001057600080fd5b50604051610e3b380380610e3b833981810160405260a081101561003357600080fd5b508051602082015160408301516060808501516080958601519185901b6001600160601b0319169095529293919290919084826001600160a01b0381166100775750305b606081811b6001600160601b03191660a052600080546001600160a01b0319166001600160a01b0398891617815560019690965560c0849052608051901c965094909416935091610d5991506100e2903980610442525080610aa5525080610a765250610d596000f3fe608060405234801561001057600080fd5b506004361061007d5760003560e01c80638f2839701161005b5780638f283970146101e9578063bc197c811461020f578063c884ef8314610371578063f23a6e61146103ab5761007d565b80631703e85c146100825780636e9960c3146101a85780637cb64759146101cc575b600080fd5b6101a6600480360360a081101561009857600080fd5b6001600160a01b0382351691908101906040810160208201356401000000008111156100c357600080fd5b8201836020820111156100d557600080fd5b803590602001918460208302840111640100000000831117156100f757600080fd5b91939092909160208101903564010000000081111561011557600080fd5b82018360208201111561012757600080fd5b8035906020019184602083028401116401000000008311171561014957600080fd5b91939092909160208101903564010000000081111561016757600080fd5b82018360208201111561017957600080fd5b8035906020019184602083028401116401000000008311171561019b57600080fd5b919350915035610440565b005b6101b06105d8565b604080516001600160a01b039092168252519081900360200190f35b6101a6600480360360208110156101e257600080fd5b50356105e7565b6101a6600480360360208110156101ff57600080fd5b50356001600160a01b03166106a0565b61033c600480360360a081101561022557600080fd5b6001600160a01b03823581169260208101359091169181019060608101604082013564010000000081111561025957600080fd5b82018360208201111561026b57600080fd5b8035906020019184602083028401116401000000008311171561028d57600080fd5b9193909290916020810190356401000000008111156102ab57600080fd5b8201836020820111156102bd57600080fd5b803590602001918460208302840111640100000000831117156102df57600080fd5b9193909290916020810190356401000000008111156102fd57600080fd5b82018360208201111561030f57600080fd5b8035906020019184600183028401116401000000008311171561033157600080fd5b509092509050610781565b604080517fffffffff000000000000000000000000000000000000000000000000000000009092168252519081900360200190f35b6103976004803603602081101561038757600080fd5b50356001600160a01b03166107ae565b604080519115158252519081900360200190f35b61033c600480360360a08110156103c157600080fd5b6001600160a01b03823581169260208101359091169160408201359160608101359181019060a08101608082013564010000000081111561040157600080fd5b82018360208201111561041357600080fd5b8035906020019184600183028401116401000000008311171561043557600080fd5b5090925090506107c3565b7f000000000000000000000000000000000000000000000000000000000000000042106104b4576040805162461bcd60e51b815260206004820152601460248201527f434c41494d5f504552494f445f49535f4f564552000000000000000000000000604482015290519081900360640190fd5b6001600160a01b03881661050f576040805162461bcd60e51b815260206004820152601760248201527f494e56414c49445f544f5f5a45524f5f41444452455353000000000000000000604482015290519081900360640190fd5b6001600160a01b03881660009081526002602052604090205460ff161561057d576040805162461bcd60e51b815260206004820152601b60248201527f44455354494e4154494f4e5f414c52454144595f434c41494d45440000000000604482015290519081900360640190fd5b6001600160a01b038816600090815260026020526040902080547fffffffffffffffffffffffffffffffffffffffffffffffffffffffffffffff001660011790556105ce88888888888888886107ee565b5050505050505050565b6000546001600160a01b031690565b6000546001600160a01b03163314610646576040805162461bcd60e51b815260206004820152600a60248201527f41444d494e5f4f4e4c5900000000000000000000000000000000000000000000604482015290519081900360640190fd5b6001541561069b576040805162461bcd60e51b815260206004820152601760248201527f4d45524b4c455f524f4f545f414c52454144595f534554000000000000000000604482015290519081900360640190fd5b600155565b6000546001600160a01b031633146106ff576040805162461bcd60e51b815260206004820152601360248201527f41444d494e5f4143434553535f44454e49454400000000000000000000000000604482015290519081900360640190fd5b600054604080516001600160a01b039283168152918316602083015280517f7e644d79422f17c01e4894b5f4f588d331ebfa28653d42ae832dc59e38c9798f9281900390910190a1600080547fffffffffffffffffffffffff0000000000000000000000000000000000000000166001600160a01b0392909216919091179055565b7fbc197c810000000000000000000000000000000000000000000000000000000098975050505050505050565b60026020526000908152604090205460ff1681565b7ff23a6e61000000000000000000000000000000000000000000000000000000009695505050505050565b61088f8888888080602002602001604051908101604052809392919081815260200183836020028082843760009201919091525050604080516020808c0282810182019093528b82529093508b92508a91829185019084908082843760009201919091525050604080516020808b0282810182019093528a82529093508a9250899182918501908490808284376000920191909152508892506109ab915050565b6108fd8888888080602002602001604051908101604052809392919081815260200183836020028082843760009201919091525050604080516020808c0282810182019093528b82529093508b92508a918291850190849080828437600092019190915250610a7492505050565b7f7197de5398384ebaa85c57406356f07bec2ea8a342960e5445ac084ae8fa2651888888888860405180866001600160a01b0316815260200180602001806020018381038352878782818152602001925060200280828437600083820152601f01601f19169091018481038352858152602090810191508690860280828437600083820152604051601f909101601f1916909201829003995090975050505050505050a15050505050505050565b8251845114610a01576040805162461bcd60e51b815260206004820152600d60248201527f494e56414c49445f494e50555400000000000000000000000000000000000000604482015290519081900360640190fd5b6000610a0f86868685610bd1565b9050610a1b8382610c78565b610a6c576040805162461bcd60e51b815260206004820152600d60248201527f494e56414c49445f434c41494d00000000000000000000000000000000000000604482015290519081900360640190fd5b505050505050565b7f00000000000000000000000000000000000000000000000000000000000000006001600160a01b0316632eb2c2d67f00000000000000000000000000000000000000000000000000000000000000008585856040518563ffffffff1660e01b815260040180856001600160a01b03168152602001846001600160a01b03168152602001806020018060200180602001848103845286818151815260200191508051906020019060200280838360005b83811015610b3c578181015183820152602001610b24565b50505050905001848103835285818151815260200191508051906020019060200280838360005b83811015610b7b578181015183820152602001610b63565b50505050905001848103825260008152602001602001975050505050505050600060405180830381600087803b158015610bb457600080fd5b505af1158015610bc8573d6000803e3d6000fd5b50505050505050565b60008484848460405160200180856001600160a01b031660601b8152601401848051906020019060200280838360005b83811015610c19578181015183820152602001610c01565b50505050905001838051906020019060200280838360005b83811015610c49578181015183820152602001610c31565b505050509190910192835250506040805180830381526020928301909152805191012098975050505050505050565b600081815b8451811015610d17576000858281518110610c9457fe5b6020026020010151905080831015610cdc5782816040516020018083815260200182815260200192505050604051602081830303815290604052805190602001209250610d0e565b808360405160200180838152602001828152602001925050506040516020818303038152906040528051906020012092505b50600101610c7d565b5060015414939250505056fea2646970667358221220317bbaa3d47a7e1dfdd73913dadb7aa6fa00fb0add486bd7b2f7c5b04d03ccd464736f6c63430007050033",
  "devdoc": {
    "kind": "dev",
    "methods": {
      "changeAdmin(address)": {
        "details": "Change the administrator to be `newAdmin`.",
        "params": {
          "newAdmin": "The address of the new administrator."
        }
      },
      "claimAssets(address,uint256[],uint256[],bytes32[],bytes32)": {
        "params": {
          "assetIds": "The array of IDs of the asset tokens.",
          "assetValues": "The amounts of each token ID to transfer.",
          "proof": "The proof submitted for verification.",
          "salt": "The salt submitted for verification.",
          "to": "The intended recipient (reserved address) of the ERC1155 tokens."
        }
      },
      "getAdmin()": {
        "details": "Get the current administrator of this contract.",
        "returns": {
          "_0": "The current administrator of this contract."
        }
      },
      "setMerkleRoot(bytes32)": {
        "params": {
          "merkleRoot": "The merkle root hash of the asset data."
        }
      }
    },
    "title": "AssetGiveaway contract.",
    "version": 1
  },
  "userdoc": {
    "kind": "user",
    "methods": {
      "claimAssets(address,uint256[],uint256[],bytes32[],bytes32)": {
        "notice": "Function to permit the claiming of an asset to a reserved address."
      },
      "setMerkleRoot(bytes32)": {
        "notice": "Function to set the merkle root hash for the asset data, if it is 0."
      }
    },
    "notice": "This contract manages ERC1155 claims.",
    "version": 1
  },
  "storageLayout": {
    "storage": [
      {
        "astId": 7710,
        "contract": "src/solc_0.7/claims/AssetGiveaway/AssetGiveaway.sol:AssetGiveaway",
        "label": "_admin",
        "offset": 0,
        "slot": "0",
        "type": "t_address"
      },
      {
        "astId": 5404,
        "contract": "src/solc_0.7/claims/AssetGiveaway/AssetGiveaway.sol:AssetGiveaway",
        "label": "_merkleRoot",
        "offset": 0,
        "slot": "1",
        "type": "t_bytes32"
      },
      {
        "astId": 5249,
        "contract": "src/solc_0.7/claims/AssetGiveaway/AssetGiveaway.sol:AssetGiveaway",
        "label": "claimed",
        "offset": 0,
        "slot": "2",
        "type": "t_mapping(t_address,t_bool)"
      }
    ],
    "types": {
      "t_address": {
        "encoding": "inplace",
        "label": "address",
        "numberOfBytes": "20"
      },
      "t_bool": {
        "encoding": "inplace",
        "label": "bool",
        "numberOfBytes": "1"
      },
      "t_bytes32": {
        "encoding": "inplace",
        "label": "bytes32",
        "numberOfBytes": "32"
      },
      "t_mapping(t_address,t_bool)": {
        "encoding": "mapping",
        "key": "t_address",
        "label": "mapping(address => bool)",
        "numberOfBytes": "32",
        "value": "t_bool"
      }
    }
  }
}