{
  "address": "0xcd18fba2d6b12aa1ece197428b2de14804e74db0",
  "abi": [
    {
      "inputs": [
        {
          "internalType": "address",
          "name": "asset",
          "type": "address"
        },
        {
          "internalType": "address",
          "name": "admin",
          "type": "address"
        },
        {
          "internalType": "bytes32",
          "name": "merkleRoot",
          "type": "bytes32"
        },
        {
          "internalType": "address",
          "name": "assetsHolder",
          "type": "address"
        },
        {
          "internalType": "uint256",
          "name": "expiryTime",
          "type": "uint256"
        }
      ],
      "stateMutability": "nonpayable",
      "type": "constructor"
    },
    {
      "anonymous": false,
      "inputs": [
        {
          "indexed": false,
          "internalType": "address",
          "name": "oldAdmin",
          "type": "address"
        },
        {
          "indexed": false,
          "internalType": "address",
          "name": "newAdmin",
          "type": "address"
        }
      ],
      "name": "AdminChanged",
      "type": "event"
    },
    {
      "anonymous": false,
      "inputs": [
        {
          "indexed": false,
          "internalType": "address",
          "name": "to",
          "type": "address"
        },
        {
          "indexed": false,
          "internalType": "uint256[]",
          "name": "assetIds",
          "type": "uint256[]"
        },
        {
          "indexed": false,
          "internalType": "uint256[]",
          "name": "assetValues",
          "type": "uint256[]"
        }
      ],
      "name": "ClaimedAssets",
      "type": "event"
    },
    {
      "inputs": [
        {
          "internalType": "address",
          "name": "newAdmin",
          "type": "address"
        }
      ],
      "name": "changeAdmin",
      "outputs": [],
      "stateMutability": "nonpayable",
      "type": "function"
    },
    {
      "inputs": [
        {
          "internalType": "address",
          "name": "to",
          "type": "address"
        },
        {
          "internalType": "uint256[]",
          "name": "assetIds",
          "type": "uint256[]"
        },
        {
          "internalType": "uint256[]",
          "name": "assetValues",
          "type": "uint256[]"
        },
        {
          "internalType": "bytes32[]",
          "name": "proof",
          "type": "bytes32[]"
        },
        {
          "internalType": "bytes32",
          "name": "salt",
          "type": "bytes32"
        }
      ],
      "name": "claimAssets",
      "outputs": [],
      "stateMutability": "nonpayable",
      "type": "function"
    },
    {
      "inputs": [
        {
          "internalType": "address",
          "name": "",
          "type": "address"
        }
      ],
      "name": "claimed",
      "outputs": [
        {
          "internalType": "bool",
          "name": "",
          "type": "bool"
        }
      ],
      "stateMutability": "view",
      "type": "function"
    },
    {
      "inputs": [],
      "name": "getAdmin",
      "outputs": [
        {
          "internalType": "address",
          "name": "",
          "type": "address"
        }
      ],
      "stateMutability": "view",
      "type": "function"
    },
    {
      "inputs": [
        {
          "internalType": "address",
          "name": "",
          "type": "address"
        },
        {
          "internalType": "address",
          "name": "",
          "type": "address"
        },
        {
          "internalType": "uint256[]",
          "name": "",
          "type": "uint256[]"
        },
        {
          "internalType": "uint256[]",
          "name": "",
          "type": "uint256[]"
        },
        {
          "internalType": "bytes",
          "name": "",
          "type": "bytes"
        }
      ],
      "name": "onERC1155BatchReceived",
      "outputs": [
        {
          "internalType": "bytes4",
          "name": "",
          "type": "bytes4"
        }
      ],
      "stateMutability": "pure",
      "type": "function"
    },
    {
      "inputs": [
        {
          "internalType": "address",
          "name": "",
          "type": "address"
        },
        {
          "internalType": "address",
          "name": "",
          "type": "address"
        },
        {
          "internalType": "uint256",
          "name": "",
          "type": "uint256"
        },
        {
          "internalType": "uint256",
          "name": "",
          "type": "uint256"
        },
        {
          "internalType": "bytes",
          "name": "",
          "type": "bytes"
        }
      ],
      "name": "onERC1155Received",
      "outputs": [
        {
          "internalType": "bytes4",
          "name": "",
          "type": "bytes4"
        }
      ],
      "stateMutability": "pure",
      "type": "function"
    },
    {
      "inputs": [
        {
          "internalType": "bytes32",
          "name": "merkleRoot",
          "type": "bytes32"
        }
      ],
      "name": "setMerkleRoot",
      "outputs": [],
      "stateMutability": "nonpayable",
      "type": "function"
    }
  ],
  "transactionHash": "0x68d5dd2ccdad07487dfbd26e39bc607a6e4ee55222731e30f590fba9539556f5",
  "args": [
    "0xa342f5D851E866E18ff98F351f2c6637f4478dB5",
    "0x0000000000000000000000000000000000000000",
    "0x90eab537db3f20436f24aed55a31d6eb0465164581d17a5fd7400b51c5805e6d",
    "0x0000000000000000000000000000000000000000",
    "0xFFFFFFFFFFFFFFFFFFFFFFFFFFFFFFFFFFFFFFFFFFFFFFFFFFFFFFFFFFFFFFFF"
  ],
  "linkedData": [
    {
      "reservedAddress": "0x0002cf540a528d8680021c51d31166c792d51789",
      "assetIds": [
        "55464657044963196816950587289035428064568320970692304673817341489687505668096"
      ],
      "assetValues": [
        1
      ]
    },
    {
      "reservedAddress": "0x0002fd0f1d0708fdf065d3625b2ee83d210d58d9",
      "assetIds": [
        "55464657044963196816950587289035428064568320970692304673817341489687505668096"
      ],
      "assetValues": [
        1
      ]
    },
    {
      "reservedAddress": "0x0017cb941a7459de4877336b0b4b071a9ece4e39",
      "assetIds": [
        "55464657044963196816950587289035428064568320970692304673817341489687505668096"
      ],
      "assetValues": [
        1
      ]
    },
    {
      "reservedAddress": "0x002f6847ab1d67ea0262a169d9ec6ce834daafaf",
      "assetIds": [
        "55464657044963196816950587289035428064568320970692304673817341489687505668096"
      ],
      "assetValues": [
        1
      ]
    },
    {
      "reservedAddress": "0x003c52a71c887461087154eccced08cb1c5384a5",
      "assetIds": [
        "55464657044963196816950587289035428064568320970692304673817341489687505668096"
      ],
      "assetValues": [
        1
      ]
    },
    {
      "reservedAddress": "0x004115008b28540549d8e23fbe81f32c19403cc9",
      "assetIds": [
        "55464657044963196816950587289035428064568320970692304673817341489687505668096"
      ],
      "assetValues": [
        1
      ]
    },
    {
      "reservedAddress": "0x005f769fa289143419071cab9540f874c82602ea",
      "assetIds": [
        "55464657044963196816950587289035428064568320970692304673817341489687505668096"
      ],
      "assetValues": [
        1
      ]
    },
    {
      "reservedAddress": "0x008de25d57655acc4cbd2145cf4b0f8f8e6e71e4",
      "assetIds": [
        "55464657044963196816950587289035428064568320970692304673817341489687505668096"
      ],
      "assetValues": [
        1
      ]
    },
    {
      "reservedAddress": "0x00a2ddfa736214563cea9aef5100f2e90c402918",
      "assetIds": [
        "55464657044963196816950587289035428064568320970692304673817341489687505668096"
      ],
      "assetValues": [
        1
      ]
    },
    {
      "reservedAddress": "0x00a839de7922491683f547a67795204763ff8237",
      "assetIds": [
        "55464657044963196816950587289035428064568320970692304673817341489687505668096"
      ],
      "assetValues": [
        1
      ]
    },
    {
      "reservedAddress": "0x00c1164387d2c2c806c334ff6fa467bcfdc15411",
      "assetIds": [
        "55464657044963196816950587289035428064568320970692304673817341489687505668096"
      ],
      "assetValues": [
        1
      ]
    },
    {
      "reservedAddress": "0x00efca385aba315aeed288c8c6b0e70c299862bb",
      "assetIds": [
        "55464657044963196816950587289035428064568320970692304673817341489687505668096"
      ],
      "assetValues": [
        1
      ]
    },
    {
      "reservedAddress": "0x0100fc86641352cf6f230b82b1ea99cca115015a",
      "assetIds": [
        "55464657044963196816950587289035428064568320970692304673817341489687505668096"
      ],
      "assetValues": [
        1
      ]
    },
    {
      "reservedAddress": "0x0123ddc36f49c3c6ae3b5181f3a41f68321546d8",
      "assetIds": [
        "55464657044963196816950587289035428064568320970692304673817341489687505668096"
      ],
      "assetValues": [
        1
      ]
    },
    {
      "reservedAddress": "0x0149b80f4ec5664eccb32b0417480d7d0a34ba21",
      "assetIds": [
        "55464657044963196816950587289035428064568320970692304673817341489687505668096"
      ],
      "assetValues": [
        1
      ]
    },
    {
      "reservedAddress": "0x0155e31d9c01c28395277bd4210bf5c51965e8d6",
      "assetIds": [
        "55464657044963196816950587289035428064568320970692304673817341489687505668096"
      ],
      "assetValues": [
        1
      ]
    },
    {
      "reservedAddress": "0x01795fbebd90a9b1083c051be19cfeb90d4f2a39",
      "assetIds": [
        "55464657044963196816950587289035428064568320970692304673817341489687505668096"
      ],
      "assetValues": [
        1
      ]
    },
    {
      "reservedAddress": "0x0183d9be08db4024c2dc9aec10b9526fc6adeef7",
      "assetIds": [
        "55464657044963196816950587289035428064568320970692304673817341489687505668096"
      ],
      "assetValues": [
        1
      ]
    },
    {
      "reservedAddress": "0x018cff34840fed037657f4683c5e50614419b6fe",
      "assetIds": [
        "55464657044963196816950587289035428064568320970692304673817341489687505668096"
      ],
      "assetValues": [
        1
      ]
    },
    {
      "reservedAddress": "0x018f98df4915b64384ceed3606231cd6398a9b1f",
      "assetIds": [
        "55464657044963196816950587289035428064568320970692304673817341489687505668096"
      ],
      "assetValues": [
        1
      ]
    },
    {
      "reservedAddress": "0x01935f9095450e5d54b48ecdc10c476d099355e3",
      "assetIds": [
        "55464657044963196816950587289035428064568320970692304673817341489687505668096"
      ],
      "assetValues": [
        1
      ]
    },
    {
      "reservedAddress": "0x01b7c818f18c0bfb110ebe0a5ca2221aa018eae0",
      "assetIds": [
        "55464657044963196816950587289035428064568320970692304673817341489687505668096"
      ],
      "assetValues": [
        1
      ]
    },
    {
      "reservedAddress": "0x01c1d7334e2cfed733559edfec32aecb01813144",
      "assetIds": [
        "55464657044963196816950587289035428064568320970692304673817341489687505668096"
      ],
      "assetValues": [
        1
      ]
    },
    {
      "reservedAddress": "0x01e6fd0ae73d9194b19f9b376065577927a0d5f5",
      "assetIds": [
        "55464657044963196816950587289035428064568320970692304673817341489687505668096"
      ],
      "assetValues": [
        1
      ]
    },
    {
      "reservedAddress": "0x01e7f16e17c50d070eb66787f25ce3be405d6038",
      "assetIds": [
        "55464657044963196816950587289035428064568320970692304673817341489687505668096"
      ],
      "assetValues": [
        1
      ]
    },
    {
      "reservedAddress": "0x01f9adb4a1e8244047795b5a0d55697546afb6da",
      "assetIds": [
        "55464657044963196816950587289035428064568320970692304673817341489687505668096"
      ],
      "assetValues": [
        1
      ]
    },
    {
      "reservedAddress": "0x0297fb3040471c86dbb3d2902b63dfbc39ee0b45",
      "assetIds": [
        "55464657044963196816950587289035428064568320970692304673817341489687505668096"
      ],
      "assetValues": [
        1
      ]
    },
    {
      "reservedAddress": "0x02a3a92b339a742815a5a13d9afda5e3d344e540",
      "assetIds": [
        "55464657044963196816950587289035428064568320970692304673817341489687505668096"
      ],
      "assetValues": [
        1
      ]
    },
    {
      "reservedAddress": "0x02b339f3aeca4d3cda0e069f5c57fda5314804e6",
      "assetIds": [
        "55464657044963196816950587289035428064568320970692304673817341489687505668096"
      ],
      "assetValues": [
        1
      ]
    },
    {
      "reservedAddress": "0x02f67b2e6afbac5d1590c39097d03829bc0beda9",
      "assetIds": [
        "55464657044963196816950587289035428064568320970692304673817341489687505668096"
      ],
      "assetValues": [
        1
      ]
    },
    {
      "reservedAddress": "0x02fc26fc3c0feb16b67d6e164332fdce1aff09f0",
      "assetIds": [
        "55464657044963196816950587289035428064568320970692304673817341489687505668096"
      ],
      "assetValues": [
        1
      ]
    },
    {
      "reservedAddress": "0x030657c1a4d7049fce292d3dfd7f5e3ea14cf78d",
      "assetIds": [
        "55464657044963196816950587289035428064568320970692304673817341489687505668096"
      ],
      "assetValues": [
        1
      ]
    },
    {
      "reservedAddress": "0x033836b8c7c03647621fcc2d84ce8c0c39a26b05",
      "assetIds": [
        "55464657044963196816950587289035428064568320970692304673817341489687505668096"
      ],
      "assetValues": [
        1
      ]
    },
    {
      "reservedAddress": "0x0368bec04b11c47a6bb72d611282bb80e029c0c7",
      "assetIds": [
        "55464657044963196816950587289035428064568320970692304673817341489687505668096"
      ],
      "assetValues": [
        1
      ]
    },
    {
      "reservedAddress": "0x0371e2825658986dfee0c2205b7d0ea6e2cab42d",
      "assetIds": [
        "55464657044963196816950587289035428064568320970692304673817341489687505668096"
      ],
      "assetValues": [
        1
      ]
    },
    {
      "reservedAddress": "0x037b22bd2ed3df1e5bb8fbf7faa2feac9dda22b0",
      "assetIds": [
        "55464657044963196816950587289035428064568320970692304673817341489687505668096"
      ],
      "assetValues": [
        1
      ]
    },
    {
      "reservedAddress": "0x037c96f1dbebf8fa74d8893139c7576821a9d331",
      "assetIds": [
        "55464657044963196816950587289035428064568320970692304673817341489687505668096"
      ],
      "assetValues": [
        1
      ]
    },
    {
      "reservedAddress": "0x03892ea625e341859ac654150836d991f578e3be",
      "assetIds": [
        "55464657044963196816950587289035428064568320970692304673817341489687505668096"
      ],
      "assetValues": [
        1
      ]
    },
    {
      "reservedAddress": "0x038ce2f12e592dd1b9ed8a6e5aa213ca135417aa",
      "assetIds": [
        "55464657044963196816950587289035428064568320970692304673817341489687505668096"
      ],
      "assetValues": [
        1
      ]
    },
    {
      "reservedAddress": "0x03a4234e6ced7f3276b8d42fee83ca1ea64e34bb",
      "assetIds": [
        "55464657044963196816950587289035428064568320970692304673817341489687505668096"
      ],
      "assetValues": [
        1
      ]
    },
    {
      "reservedAddress": "0x03aa25efa105a6c1682a1e0a4c689951f27b5ef5",
      "assetIds": [
        "55464657044963196816950587289035428064568320970692304673817341489687505668096"
      ],
      "assetValues": [
        1
      ]
    },
    {
      "reservedAddress": "0x03c2f890b63eab088c5fcf037d918fcbf61507e3",
      "assetIds": [
        "55464657044963196816950587289035428064568320970692304673817341489687505668096"
      ],
      "assetValues": [
        1
      ]
    },
    {
      "reservedAddress": "0x03d15cd9eedecbec37bae097c98d53438ad83e84",
      "assetIds": [
        "55464657044963196816950587289035428064568320970692304673817341489687505668096"
      ],
      "assetValues": [
        1
      ]
    },
    {
      "reservedAddress": "0x03e5c2fb9b2845117459b0a9bf8884470aa86f13",
      "assetIds": [
        "55464657044963196816950587289035428064568320970692304673817341489687505668096"
      ],
      "assetValues": [
        1
      ]
    },
    {
      "reservedAddress": "0x0404fd7a66e5e41d3d3aef1cf6cf255bbb4c16ed",
      "assetIds": [
        "55464657044963196816950587289035428064568320970692304673817341489687505668096"
      ],
      "assetValues": [
        1
      ]
    },
    {
      "reservedAddress": "0x040758a6d09b4a9471a88ca2def239e7bd91efbe",
      "assetIds": [
        "55464657044963196816950587289035428064568320970692304673817341489687505668096"
      ],
      "assetValues": [
        1
      ]
    },
    {
      "reservedAddress": "0x042a876dede234cb3a403d533443e62ea6806029",
      "assetIds": [
        "55464657044963196816950587289035428064568320970692304673817341489687505668096"
      ],
      "assetValues": [
        1
      ]
    },
    {
      "reservedAddress": "0x044fac5112e762d405a40be089b27d0e3697219a",
      "assetIds": [
        "55464657044963196816950587289035428064568320970692304673817341489687505668096"
      ],
      "assetValues": [
        1
      ]
    },
    {
      "reservedAddress": "0x044fdc7e46b4bc3e3665bb05214860799d483337",
      "assetIds": [
        "55464657044963196816950587289035428064568320970692304673817341489687505668096"
      ],
      "assetValues": [
        1
      ]
    },
    {
      "reservedAddress": "0x0470690acc549644cf21798848c6a667412916d3",
      "assetIds": [
        "55464657044963196816950587289035428064568320970692304673817341489687505668096"
      ],
      "assetValues": [
        1
      ]
    },
    {
      "reservedAddress": "0x047cec53ad73db2ffb68d10a435ce8b95588ca5c",
      "assetIds": [
        "55464657044963196816950587289035428064568320970692304673817341489687505668096"
      ],
      "assetValues": [
        1
      ]
    },
    {
      "reservedAddress": "0x0499e5e525a8c216291bea0aa74d8b9f6bd310af",
      "assetIds": [
        "55464657044963196816950587289035428064568320970692304673817341489687505668096"
      ],
      "assetValues": [
        1
      ]
    },
    {
      "reservedAddress": "0x049cc5c5dc53ddbb313aafd7f576fb06be022046",
      "assetIds": [
        "55464657044963196816950587289035428064568320970692304673817341489687505668096"
      ],
      "assetValues": [
        1
      ]
    },
    {
      "reservedAddress": "0x049fa853e1d6cdcc0d91590aef2e3ce9f600a4b9",
      "assetIds": [
        "55464657044963196816950587289035428064568320970692304673817341489687505668096"
      ],
      "assetValues": [
        1
      ]
    },
    {
      "reservedAddress": "0x04bc436bf36ed0d65cd5b0619cc82740ee0027e2",
      "assetIds": [
        "55464657044963196816950587289035428064568320970692304673817341489687505668096"
      ],
      "assetValues": [
        1
      ]
    },
    {
      "reservedAddress": "0x04c2c1a16e518cecf91d76c6b16972d6b271abce",
      "assetIds": [
        "55464657044963196816950587289035428064568320970692304673817341489687505668096"
      ],
      "assetValues": [
        1
      ]
    },
    {
      "reservedAddress": "0x04c883651b9249698e9c8dce3cddc6b37fbaf962",
      "assetIds": [
        "55464657044963196816950587289035428064568320970692304673817341489687505668096"
      ],
      "assetValues": [
        1
      ]
    },
    {
      "reservedAddress": "0x0524c91701fcc461c90b3120769b5f295f706a16",
      "assetIds": [
        "55464657044963196816950587289035428064568320970692304673817341489687505668096"
      ],
      "assetValues": [
        1
      ]
    },
    {
      "reservedAddress": "0x05329a2a6a91bb66dac615d1426a40ae468a1255",
      "assetIds": [
        "55464657044963196816950587289035428064568320970692304673817341489687505668096"
      ],
      "assetValues": [
        1
      ]
    },
    {
      "reservedAddress": "0x0537544de3935408246ee2ad09949d046f92574d",
      "assetIds": [
        "55464657044963196816950587289035428064568320970692304673817341489687505668096"
      ],
      "assetValues": [
        1
      ]
    },
    {
      "reservedAddress": "0x0539c940ae6db86f9b9bb8707bdfc31eebb28746",
      "assetIds": [
        "55464657044963196816950587289035428064568320970692304673817341489687505668096"
      ],
      "assetValues": [
        1
      ]
    },
    {
      "reservedAddress": "0x0544fbed9b72aa036517b21d1db50201a17d09ce",
      "assetIds": [
        "55464657044963196816950587289035428064568320970692304673817341489687505668096"
      ],
      "assetValues": [
        1
      ]
    },
    {
      "reservedAddress": "0x056d2d46edd91692595a3c85f5bded037a2c9da2",
      "assetIds": [
        "55464657044963196816950587289035428064568320970692304673817341489687505668096"
      ],
      "assetValues": [
        1
      ]
    },
    {
      "reservedAddress": "0x05887f1c27e855df93b4d3747196fb9e07b68b15",
      "assetIds": [
        "55464657044963196816950587289035428064568320970692304673817341489687505668096"
      ],
      "assetValues": [
        1
      ]
    },
    {
      "reservedAddress": "0x05baca0bd84cac13d8ffb86c49dc58debcb54672",
      "assetIds": [
        "55464657044963196816950587289035428064568320970692304673817341489687505668096"
      ],
      "assetValues": [
        1
      ]
    },
    {
      "reservedAddress": "0x05c0d588fd49f69de8f0a68548b4abd45bc328d4",
      "assetIds": [
        "55464657044963196816950587289035428064568320970692304673817341489687505668096"
      ],
      "assetValues": [
        1
      ]
    },
    {
      "reservedAddress": "0x05c424607bde6762b36843f0f112fac6bbde98ba",
      "assetIds": [
        "55464657044963196816950587289035428064568320970692304673817341489687505668096"
      ],
      "assetValues": [
        1
      ]
    },
    {
      "reservedAddress": "0x0624fb098a94de948e4f9e57d5c4e84291e3403b",
      "assetIds": [
        "55464657044963196816950587289035428064568320970692304673817341489687505668096"
      ],
      "assetValues": [
        1
      ]
    },
    {
      "reservedAddress": "0x062afca2fba39eeba3da56dc066805b05f09d0a1",
      "assetIds": [
        "55464657044963196816950587289035428064568320970692304673817341489687505668096"
      ],
      "assetValues": [
        1
      ]
    },
    {
      "reservedAddress": "0x062ba4422fc5dadb165472865c7a6f918201025c",
      "assetIds": [
        "55464657044963196816950587289035428064568320970692304673817341489687505668096"
      ],
      "assetValues": [
        1
      ]
    },
    {
      "reservedAddress": "0x06618da0fd231844ac9a37f5ef86d946c45a4fdc",
      "assetIds": [
        "55464657044963196816950587289035428064568320970692304673817341489687505668096"
      ],
      "assetValues": [
        1
      ]
    },
    {
      "reservedAddress": "0x067018bacb704d9fb774fd00572d8eddb4adbbad",
      "assetIds": [
        "55464657044963196816950587289035428064568320970692304673817341489687505668096"
      ],
      "assetValues": [
        1
      ]
    },
    {
      "reservedAddress": "0x0672e0ccd57df9bf4d6fdeff3e86d60438544fbc",
      "assetIds": [
        "55464657044963196816950587289035428064568320970692304673817341489687505668096"
      ],
      "assetValues": [
        1
      ]
    },
    {
      "reservedAddress": "0x067dc2a11d33e9fd94949e7e27fbc0c4e73fafb5",
      "assetIds": [
        "55464657044963196816950587289035428064568320970692304673817341489687505668096"
      ],
      "assetValues": [
        1
      ]
    },
    {
      "reservedAddress": "0x0688d03b58d576de7d53ec1c3220c37bf6448e14",
      "assetIds": [
        "55464657044963196816950587289035428064568320970692304673817341489687505668096"
      ],
      "assetValues": [
        1
      ]
    },
    {
      "reservedAddress": "0x06899b851e0cc9b1e9348c0e985e6c5454bbd889",
      "assetIds": [
        "55464657044963196816950587289035428064568320970692304673817341489687505668096"
      ],
      "assetValues": [
        1
      ]
    },
    {
      "reservedAddress": "0x06a50d1a2fb27fb00373a2c33c3c0ed0e70cd34d",
      "assetIds": [
        "55464657044963196816950587289035428064568320970692304673817341489687505668096"
      ],
      "assetValues": [
        1
      ]
    },
    {
      "reservedAddress": "0x06a70e6973cd6fa1147e372db000c615e1b6a601",
      "assetIds": [
        "55464657044963196816950587289035428064568320970692304673817341489687505668096"
      ],
      "assetValues": [
        1
      ]
    },
    {
      "reservedAddress": "0x06c925fa7520e150d1cdc92e9f102d34f1b44ab9",
      "assetIds": [
        "55464657044963196816950587289035428064568320970692304673817341489687505668096"
      ],
      "assetValues": [
        1
      ]
    },
    {
      "reservedAddress": "0x06ccc6ab79d71fb8b3863339bc6ee6fb7887f2e0",
      "assetIds": [
        "55464657044963196816950587289035428064568320970692304673817341489687505668096"
      ],
      "assetValues": [
        1
      ]
    },
    {
      "reservedAddress": "0x06d0eb4fc30792beffa598147de57b266a3b9cb1",
      "assetIds": [
        "55464657044963196816950587289035428064568320970692304673817341489687505668096"
      ],
      "assetValues": [
        1
      ]
    },
    {
      "reservedAddress": "0x06efc8227390354cc596a3b5966ebd4c7ad8538c",
      "assetIds": [
        "55464657044963196816950587289035428064568320970692304673817341489687505668096"
      ],
      "assetValues": [
        1
      ]
    },
    {
      "reservedAddress": "0x07308c5af912a6f49f46be51ed5f76cf4481bff5",
      "assetIds": [
        "55464657044963196816950587289035428064568320970692304673817341489687505668096"
      ],
      "assetValues": [
        1
      ]
    },
    {
      "reservedAddress": "0x076e89fe9e24c191ebee53cceec5356600c8d059",
      "assetIds": [
        "55464657044963196816950587289035428064568320970692304673817341489687505668096"
      ],
      "assetValues": [
        1
      ]
    },
    {
      "reservedAddress": "0x07aa86e87e3f077c541b26678adb19d1899aabe5",
      "assetIds": [
        "55464657044963196816950587289035428064568320970692304673817341489687505668096"
      ],
      "assetValues": [
        1
      ]
    },
    {
      "reservedAddress": "0x07b84cb400f8f782f11554800fe2291b8b45127b",
      "assetIds": [
        "55464657044963196816950587289035428064568320970692304673817341489687505668096"
      ],
      "assetValues": [
        1
      ]
    },
    {
      "reservedAddress": "0x07d63ece2441f04a0a8954d3fcd0dd4b6822460d",
      "assetIds": [
        "55464657044963196816950587289035428064568320970692304673817341489687505668096"
      ],
      "assetValues": [
        1
      ]
    },
    {
      "reservedAddress": "0x07dbfd945f021f8842b4f96fd6018d0b4341cf90",
      "assetIds": [
        "55464657044963196816950587289035428064568320970692304673817341489687505668096"
      ],
      "assetValues": [
        1
      ]
    },
    {
      "reservedAddress": "0x07f3e34c3c23ff2a160c2213131f06d7aef61a47",
      "assetIds": [
        "55464657044963196816950587289035428064568320970692304673817341489687505668096"
      ],
      "assetValues": [
        1
      ]
    },
    {
      "reservedAddress": "0x0808c343e3395b348495edd585e32c0c147b8de2",
      "assetIds": [
        "55464657044963196816950587289035428064568320970692304673817341489687505668096"
      ],
      "assetValues": [
        1
      ]
    },
    {
      "reservedAddress": "0x082005cdd00a511ac07e575162488632552dd4b1",
      "assetIds": [
        "55464657044963196816950587289035428064568320970692304673817341489687505668096"
      ],
      "assetValues": [
        1
      ]
    },
    {
      "reservedAddress": "0x0850a1a79de3e3791eda1b20e70d7a1d4e72c037",
      "assetIds": [
        "55464657044963196816950587289035428064568320970692304673817341489687505668096"
      ],
      "assetValues": [
        1
      ]
    },
    {
      "reservedAddress": "0x085c228a67cf3eed91496081c3a363ab25fb4a91",
      "assetIds": [
        "55464657044963196816950587289035428064568320970692304673817341489687505668096"
      ],
      "assetValues": [
        1
      ]
    },
    {
      "reservedAddress": "0x08609ae25d14e53a4b67b067bcd856df61e88c5d",
      "assetIds": [
        "55464657044963196816950587289035428064568320970692304673817341489687505668096"
      ],
      "assetValues": [
        1
      ]
    },
    {
      "reservedAddress": "0x086a0422bc519499806d7f2d3c816e92104f9ebe",
      "assetIds": [
        "55464657044963196816950587289035428064568320970692304673817341489687505668096"
      ],
      "assetValues": [
        1
      ]
    },
    {
      "reservedAddress": "0x086ab7817edd266894607262ab6d36f397757261",
      "assetIds": [
        "55464657044963196816950587289035428064568320970692304673817341489687505668096"
      ],
      "assetValues": [
        1
      ]
    },
    {
      "reservedAddress": "0x087ee66cc7914c20b49ab2a2de3cfe3b08fb18f2",
      "assetIds": [
        "55464657044963196816950587289035428064568320970692304673817341489687505668096"
      ],
      "assetValues": [
        1
      ]
    },
    {
      "reservedAddress": "0x08dd65737605b29e24f18981b4e0c5552c8eb224",
      "assetIds": [
        "55464657044963196816950587289035428064568320970692304673817341489687505668096"
      ],
      "assetValues": [
        1
      ]
    },
    {
      "reservedAddress": "0x08e5dae9104c2795f898a468274e57d9f8a10468",
      "assetIds": [
        "55464657044963196816950587289035428064568320970692304673817341489687505668096"
      ],
      "assetValues": [
        1
      ]
    },
    {
      "reservedAddress": "0x08f07a8767d4034fc83903cbfdfaedc67a2812b3",
      "assetIds": [
        "55464657044963196816950587289035428064568320970692304673817341489687505668096"
      ],
      "assetValues": [
        1
      ]
    },
    {
      "reservedAddress": "0x08fddbb45e40d036865337526f671fb3506255ec",
      "assetIds": [
        "55464657044963196816950587289035428064568320970692304673817341489687505668096"
      ],
      "assetValues": [
        1
      ]
    },
    {
      "reservedAddress": "0x09238a2aa20600e9773990677d17fef91e688523",
      "assetIds": [
        "55464657044963196816950587289035428064568320970692304673817341489687505668096"
      ],
      "assetValues": [
        1
      ]
    },
    {
      "reservedAddress": "0x0941ae5a513cc77c99df2b8f9f35281003d49510",
      "assetIds": [
        "55464657044963196816950587289035428064568320970692304673817341489687505668096"
      ],
      "assetValues": [
        1
      ]
    },
    {
      "reservedAddress": "0x0945255148a4e0fafb31af7964d67a827442c8fd",
      "assetIds": [
        "55464657044963196816950587289035428064568320970692304673817341489687505668096"
      ],
      "assetValues": [
        1
      ]
    },
    {
      "reservedAddress": "0x09501d530f829a1f3d60f002d863579bdbe35c42",
      "assetIds": [
        "55464657044963196816950587289035428064568320970692304673817341489687505668096"
      ],
      "assetValues": [
        1
      ]
    },
    {
      "reservedAddress": "0x09720d260d791a3e2bc4c92fd0d2d3363064bb96",
      "assetIds": [
        "55464657044963196816950587289035428064568320970692304673817341489687505668096"
      ],
      "assetValues": [
        1
      ]
    },
    {
      "reservedAddress": "0x09757b3d217526312a5c9b04358fef81e3cf25cb",
      "assetIds": [
        "55464657044963196816950587289035428064568320970692304673817341489687505668096"
      ],
      "assetValues": [
        1
      ]
    },
    {
      "reservedAddress": "0x09874bcf772b96c455b9fa972815134d3f3dd735",
      "assetIds": [
        "55464657044963196816950587289035428064568320970692304673817341489687505668096"
      ],
      "assetValues": [
        1
      ]
    },
    {
      "reservedAddress": "0x099095ac7549b17d7037c70f2153a2583fe7bc22",
      "assetIds": [
        "55464657044963196816950587289035428064568320970692304673817341489687505668096"
      ],
      "assetValues": [
        1
      ]
    },
    {
      "reservedAddress": "0x099f72cefdb06ed1cb9c3babb82d8314f258fddc",
      "assetIds": [
        "55464657044963196816950587289035428064568320970692304673817341489687505668096"
      ],
      "assetValues": [
        1
      ]
    },
    {
      "reservedAddress": "0x09a5e9ffe158e81e677ff5b7ac7a966780ff2427",
      "assetIds": [
        "55464657044963196816950587289035428064568320970692304673817341489687505668096"
      ],
      "assetValues": [
        1
      ]
    },
    {
      "reservedAddress": "0x09cbc50d2c759fbe80a232c915586a97b27ed149",
      "assetIds": [
        "55464657044963196816950587289035428064568320970692304673817341489687505668096"
      ],
      "assetValues": [
        1
      ]
    },
    {
      "reservedAddress": "0x0a269666362819ccc2801640acdaa696b16d0d5c",
      "assetIds": [
        "55464657044963196816950587289035428064568320970692304673817341489687505668096"
      ],
      "assetValues": [
        1
      ]
    },
    {
      "reservedAddress": "0x0a34fba80ac3c1a389100263bc067a28e8530e7b",
      "assetIds": [
        "55464657044963196816950587289035428064568320970692304673817341489687505668096"
      ],
      "assetValues": [
        1
      ]
    },
    {
      "reservedAddress": "0x0a384b431190bc18b99311931a6ba9d22b3d4ad1",
      "assetIds": [
        "55464657044963196816950587289035428064568320970692304673817341489687505668096"
      ],
      "assetValues": [
        1
      ]
    },
    {
      "reservedAddress": "0x0a3b141f7870e4b877312e35f3dfc7e8b67cee5e",
      "assetIds": [
        "55464657044963196816950587289035428064568320970692304673817341489687505668096"
      ],
      "assetValues": [
        1
      ]
    },
    {
      "reservedAddress": "0x0a7d065e32354bf1d2c618118dd11be769065ab4",
      "assetIds": [
        "55464657044963196816950587289035428064568320970692304673817341489687505668096"
      ],
      "assetValues": [
        1
      ]
    },
    {
      "reservedAddress": "0x0aafdb971870cafd08d4e7ab5ff3ae1e846b4e85",
      "assetIds": [
        "55464657044963196816950587289035428064568320970692304673817341489687505668096"
      ],
      "assetValues": [
        1
      ]
    },
    {
      "reservedAddress": "0x0ad797185feb6eba4488045d0ce491cce7026340",
      "assetIds": [
        "55464657044963196816950587289035428064568320970692304673817341489687505668096"
      ],
      "assetValues": [
        1
      ]
    },
    {
      "reservedAddress": "0x0aeeb9b5ead0fbc909b9d2a8b6c83d70e6715e31",
      "assetIds": [
        "55464657044963196816950587289035428064568320970692304673817341489687505668096"
      ],
      "assetValues": [
        1
      ]
    },
    {
      "reservedAddress": "0x0af1938c6b186297b0603f11ba03e28eb9dcc09d",
      "assetIds": [
        "55464657044963196816950587289035428064568320970692304673817341489687505668096"
      ],
      "assetValues": [
        1
      ]
    },
    {
      "reservedAddress": "0x0b16f27877a3db0db994f61949cf7fd1bd602679",
      "assetIds": [
        "55464657044963196816950587289035428064568320970692304673817341489687505668096"
      ],
      "assetValues": [
        1
      ]
    },
    {
      "reservedAddress": "0x0b402b3e1336d8e0f84d7333622e87617b254f11",
      "assetIds": [
        "55464657044963196816950587289035428064568320970692304673817341489687505668096"
      ],
      "assetValues": [
        1
      ]
    },
    {
      "reservedAddress": "0x0b5e5c58f7ed150ae8b8ab6c902889cfe71e46c5",
      "assetIds": [
        "55464657044963196816950587289035428064568320970692304673817341489687505668096"
      ],
      "assetValues": [
        1
      ]
    },
    {
      "reservedAddress": "0x0b659335b505a10908f476190c7c3d8f92b90950",
      "assetIds": [
        "55464657044963196816950587289035428064568320970692304673817341489687505668096"
      ],
      "assetValues": [
        1
      ]
    },
    {
      "reservedAddress": "0x0b65f3f92bde7f90614b5c505ed2f0a646eedb90",
      "assetIds": [
        "55464657044963196816950587289035428064568320970692304673817341489687505668096"
      ],
      "assetValues": [
        1
      ]
    },
    {
      "reservedAddress": "0x0b9067a0c689d6f43b48f322405e18cc1acc2170",
      "assetIds": [
        "55464657044963196816950587289035428064568320970692304673817341489687505668096"
      ],
      "assetValues": [
        1
      ]
    },
    {
      "reservedAddress": "0x0b91bc9ab3cb7ae915b91da6489dcdd810dd55e4",
      "assetIds": [
        "55464657044963196816950587289035428064568320970692304673817341489687505668096"
      ],
      "assetValues": [
        1
      ]
    },
    {
      "reservedAddress": "0x0ba3061f2cc48787846aaf58b5cea3509151932a",
      "assetIds": [
        "55464657044963196816950587289035428064568320970692304673817341489687505668096"
      ],
      "assetValues": [
        1
      ]
    },
    {
      "reservedAddress": "0x0ba522d93f256c9cedd1beec19b533304e1bf81e",
      "assetIds": [
        "55464657044963196816950587289035428064568320970692304673817341489687505668096"
      ],
      "assetValues": [
        1
      ]
    },
    {
      "reservedAddress": "0x0baf7b79f9174c0840aa93a93a2c2a81044a09a2",
      "assetIds": [
        "55464657044963196816950587289035428064568320970692304673817341489687505668096"
      ],
      "assetValues": [
        1
      ]
    },
    {
      "reservedAddress": "0x0bc8cb198de8986431221a80ec4bf385b99c5283",
      "assetIds": [
        "55464657044963196816950587289035428064568320970692304673817341489687505668096"
      ],
      "assetValues": [
        1
      ]
    },
    {
      "reservedAddress": "0x0bd51e424db29f6ddc39e12506821129ff58f047",
      "assetIds": [
        "55464657044963196816950587289035428064568320970692304673817341489687505668096"
      ],
      "assetValues": [
        1
      ]
    },
    {
      "reservedAddress": "0x0bddcf122c7bd91ffb73fc8015ba1e03cc402ddd",
      "assetIds": [
        "55464657044963196816950587289035428064568320970692304673817341489687505668096"
      ],
      "assetValues": [
        1
      ]
    },
    {
      "reservedAddress": "0x0be9e6779a4dff6288cf48ea040494875f0412dc",
      "assetIds": [
        "55464657044963196816950587289035428064568320970692304673817341489687505668096"
      ],
      "assetValues": [
        1
      ]
    },
    {
      "reservedAddress": "0x0bfcbc34dbb7d367ea207a5c5fe54de61c3dd146",
      "assetIds": [
        "55464657044963196816950587289035428064568320970692304673817341489687505668096"
      ],
      "assetValues": [
        1
      ]
    },
    {
      "reservedAddress": "0x0c1dc2be47bebb487334c4d2e927d02ce910393f",
      "assetIds": [
        "55464657044963196816950587289035428064568320970692304673817341489687505668096"
      ],
      "assetValues": [
        1
      ]
    },
    {
      "reservedAddress": "0x0c233cf4e7adebdf37bf82d227bbb2b2411e728e",
      "assetIds": [
        "55464657044963196816950587289035428064568320970692304673817341489687505668096"
      ],
      "assetValues": [
        1
      ]
    },
    {
      "reservedAddress": "0x0c2ccccc447e7b86524f73c20ebac195e721c584",
      "assetIds": [
        "55464657044963196816950587289035428064568320970692304673817341489687505668096"
      ],
      "assetValues": [
        1
      ]
    },
    {
      "reservedAddress": "0x0c2ff5cec0d120f599a39a1d969a40411dd73d86",
      "assetIds": [
        "55464657044963196816950587289035428064568320970692304673817341489687505668096"
      ],
      "assetValues": [
        1
      ]
    },
    {
      "reservedAddress": "0x0c544e365cf829993c7d1851b0a662ba8a4236fa",
      "assetIds": [
        "55464657044963196816950587289035428064568320970692304673817341489687505668096"
      ],
      "assetValues": [
        1
      ]
    },
    {
      "reservedAddress": "0x0c655d8b5e3e70248366a8f22cb7f28ad5ee3070",
      "assetIds": [
        "55464657044963196816950587289035428064568320970692304673817341489687505668096"
      ],
      "assetValues": [
        1
      ]
    },
    {
      "reservedAddress": "0x0c979fe439edf676b0ac8188cf7dc4818bf2bdf4",
      "assetIds": [
        "55464657044963196816950587289035428064568320970692304673817341489687505668096"
      ],
      "assetValues": [
        1
      ]
    },
    {
      "reservedAddress": "0x0c97cce7f68f028cddf19cfa71f98e3eb68274ed",
      "assetIds": [
        "55464657044963196816950587289035428064568320970692304673817341489687505668096"
      ],
      "assetValues": [
        1
      ]
    },
    {
      "reservedAddress": "0x0cf45df98650bbe510f7c6e222fe5d917a4afe00",
      "assetIds": [
        "55464657044963196816950587289035428064568320970692304673817341489687505668096"
      ],
      "assetValues": [
        1
      ]
    },
    {
      "reservedAddress": "0x0d0d163362f6941b84e54b0c10397976f2c6fca4",
      "assetIds": [
        "55464657044963196816950587289035428064568320970692304673817341489687505668096"
      ],
      "assetValues": [
        1
      ]
    },
    {
      "reservedAddress": "0x0d284ae7d17a2d89c0e20cdcae2e7a180d694d04",
      "assetIds": [
        "55464657044963196816950587289035428064568320970692304673817341489687505668096"
      ],
      "assetValues": [
        1
      ]
    },
    {
      "reservedAddress": "0x0d2a2a3a5c5594de462c7747e3407c210d7b6fc2",
      "assetIds": [
        "55464657044963196816950587289035428064568320970692304673817341489687505668096"
      ],
      "assetValues": [
        1
      ]
    },
    {
      "reservedAddress": "0x0d2c7c4cab6396265dacb218694b2afba0bc0f67",
      "assetIds": [
        "55464657044963196816950587289035428064568320970692304673817341489687505668096"
      ],
      "assetValues": [
        1
      ]
    },
    {
      "reservedAddress": "0x0d627bbfcf1880d5f312f60b1ebe2b389c87a3d3",
      "assetIds": [
        "55464657044963196816950587289035428064568320970692304673817341489687505668096"
      ],
      "assetValues": [
        1
      ]
    },
    {
      "reservedAddress": "0x0d6e3b7206f3ad854f226dab30237af238372872",
      "assetIds": [
        "55464657044963196816950587289035428064568320970692304673817341489687505668096"
      ],
      "assetValues": [
        1
      ]
    },
    {
      "reservedAddress": "0x0d783d4961c4139e818d4367faf2026bed5cb6b5",
      "assetIds": [
        "55464657044963196816950587289035428064568320970692304673817341489687505668096"
      ],
      "assetValues": [
        1
      ]
    },
    {
      "reservedAddress": "0x0db5d47b0dcd0932396b0e585242d2fae0764e0c",
      "assetIds": [
        "55464657044963196816950587289035428064568320970692304673817341489687505668096"
      ],
      "assetValues": [
        1
      ]
    },
    {
      "reservedAddress": "0x0dc23062d8886b45a210325fe95fb4986b634561",
      "assetIds": [
        "55464657044963196816950587289035428064568320970692304673817341489687505668096"
      ],
      "assetValues": [
        1
      ]
    },
    {
      "reservedAddress": "0x0dee629a5961f0493a54283b88fc0da49558e27c",
      "assetIds": [
        "55464657044963196816950587289035428064568320970692304673817341489687505668096"
      ],
      "assetValues": [
        1
      ]
    },
    {
      "reservedAddress": "0x0df9dea882450052af8b17037b0b174e750c9327",
      "assetIds": [
        "55464657044963196816950587289035428064568320970692304673817341489687505668096"
      ],
      "assetValues": [
        1
      ]
    },
    {
      "reservedAddress": "0x0e038690449c99e982bb0ab9ff4cf1a9b84e304f",
      "assetIds": [
        "55464657044963196816950587289035428064568320970692304673817341489687505668096"
      ],
      "assetValues": [
        1
      ]
    },
    {
      "reservedAddress": "0x0e14c937ffcb54150a999bf3c71691b4d9a12e1e",
      "assetIds": [
        "55464657044963196816950587289035428064568320970692304673817341489687505668096"
      ],
      "assetValues": [
        1
      ]
    },
    {
      "reservedAddress": "0x0e1509a8bfd2ad3b14bdcadd6ea91068e69ea257",
      "assetIds": [
        "55464657044963196816950587289035428064568320970692304673817341489687505668096"
      ],
      "assetValues": [
        1
      ]
    },
    {
      "reservedAddress": "0x0e1bc5b221ba4705c94d143705cb1432caed3dfa",
      "assetIds": [
        "55464657044963196816950587289035428064568320970692304673817341489687505668096"
      ],
      "assetValues": [
        1
      ]
    },
    {
      "reservedAddress": "0x0e29f3582b78f3f5f5cb5f49d017a714b574c535",
      "assetIds": [
        "55464657044963196816950587289035428064568320970692304673817341489687505668096"
      ],
      "assetValues": [
        1
      ]
    },
    {
      "reservedAddress": "0x0e359dfc2e339594b10d6dcd71a94cff48fdc88a",
      "assetIds": [
        "55464657044963196816950587289035428064568320970692304673817341489687505668096"
      ],
      "assetValues": [
        1
      ]
    },
    {
      "reservedAddress": "0x0e54d4b9f71aa56e3f1549b994036ca70e6c5bb4",
      "assetIds": [
        "55464657044963196816950587289035428064568320970692304673817341489687505668096"
      ],
      "assetValues": [
        1
      ]
    },
    {
      "reservedAddress": "0x0e696de5be8166ddecc1bb69c547a7aa81bcf8a9",
      "assetIds": [
        "55464657044963196816950587289035428064568320970692304673817341489687505668096"
      ],
      "assetValues": [
        1
      ]
    },
    {
      "reservedAddress": "0x0e74aa4c99bb0a848fe9717825546d4b5dd2c3f0",
      "assetIds": [
        "55464657044963196816950587289035428064568320970692304673817341489687505668096"
      ],
      "assetValues": [
        1
      ]
    },
    {
      "reservedAddress": "0x0e91f1bf71d176052a127b6dd680b333b4284b89",
      "assetIds": [
        "55464657044963196816950587289035428064568320970692304673817341489687505668096"
      ],
      "assetValues": [
        1
      ]
    },
    {
      "reservedAddress": "0x0eabffd8ce94ab2387fc44ba32642af0c58af433",
      "assetIds": [
        "55464657044963196816950587289035428064568320970692304673817341489687505668096"
      ],
      "assetValues": [
        1
      ]
    },
    {
      "reservedAddress": "0x0eb9a7ff5cbf719251989caf1599c1270eafb531",
      "assetIds": [
        "55464657044963196816950587289035428064568320970692304673817341489687505668096"
      ],
      "assetValues": [
        1
      ]
    },
    {
      "reservedAddress": "0x0eeb17a66e7db9aead62bc61436cf12922b8a8a5",
      "assetIds": [
        "55464657044963196816950587289035428064568320970692304673817341489687505668096"
      ],
      "assetValues": [
        1
      ]
    },
    {
      "reservedAddress": "0x0f2e3e67cb000993d07e60261748963d3f4bd6d9",
      "assetIds": [
        "55464657044963196816950587289035428064568320970692304673817341489687505668096"
      ],
      "assetValues": [
        1
      ]
    },
    {
      "reservedAddress": "0x0f30a6be3ac1378ee0928a7af2cf71a07f575190",
      "assetIds": [
        "55464657044963196816950587289035428064568320970692304673817341489687505668096"
      ],
      "assetValues": [
        1
      ]
    },
    {
      "reservedAddress": "0x0f3dcbca0b755d35af27538acc41cd08ac09ff2f",
      "assetIds": [
        "55464657044963196816950587289035428064568320970692304673817341489687505668096"
      ],
      "assetValues": [
        1
      ]
    },
    {
      "reservedAddress": "0x0f71aed54c1a437e8faa8250c48ef26f8a6253e7",
      "assetIds": [
        "55464657044963196816950587289035428064568320970692304673817341489687505668096"
      ],
      "assetValues": [
        1
      ]
    },
    {
      "reservedAddress": "0x0fa24404c77293943c55ea9a94757e6738777011",
      "assetIds": [
        "55464657044963196816950587289035428064568320970692304673817341489687505668096"
      ],
      "assetValues": [
        1
      ]
    },
    {
      "reservedAddress": "0x0fa6ad90dc0f6cd7ec5a1a2d6fcda4c45a8bbed1",
      "assetIds": [
        "55464657044963196816950587289035428064568320970692304673817341489687505668096"
      ],
      "assetValues": [
        1
      ]
    },
    {
      "reservedAddress": "0x0fb8f437e2d237980724e6cf06065dcb52af1efd",
      "assetIds": [
        "55464657044963196816950587289035428064568320970692304673817341489687505668096"
      ],
      "assetValues": [
        1
      ]
    },
    {
      "reservedAddress": "0x0fc6f90be53fed9bd594633527969a0671a12186",
      "assetIds": [
        "55464657044963196816950587289035428064568320970692304673817341489687505668096"
      ],
      "assetValues": [
        1
      ]
    },
    {
      "reservedAddress": "0x0fccccbe9e064e2bd0a14b921701fa3fc0a2ff77",
      "assetIds": [
        "55464657044963196816950587289035428064568320970692304673817341489687505668096"
      ],
      "assetValues": [
        1
      ]
    },
    {
      "reservedAddress": "0x0fd87cfabbe4baeb639d7851583d8043ac06a662",
      "assetIds": [
        "55464657044963196816950587289035428064568320970692304673817341489687505668096"
      ],
      "assetValues": [
        1
      ]
    },
    {
      "reservedAddress": "0x0fec83783c801932c0602c2fa9ff324d56a9176e",
      "assetIds": [
        "55464657044963196816950587289035428064568320970692304673817341489687505668096"
      ],
      "assetValues": [
        1
      ]
    },
    {
      "reservedAddress": "0x101eb8257d669c3009a7be8f6ca3a469db5e07ea",
      "assetIds": [
        "55464657044963196816950587289035428064568320970692304673817341489687505668096"
      ],
      "assetValues": [
        1
      ]
    },
    {
      "reservedAddress": "0x10391d6fad544d134a860b7eed6e9f9d84cb9b81",
      "assetIds": [
        "55464657044963196816950587289035428064568320970692304673817341489687505668096"
      ],
      "assetValues": [
        1
      ]
    },
    {
      "reservedAddress": "0x103b3a31c6732c8615161757c64d2c5ed7daad38",
      "assetIds": [
        "55464657044963196816950587289035428064568320970692304673817341489687505668096"
      ],
      "assetValues": [
        1
      ]
    },
    {
      "reservedAddress": "0x104d2965d046978661b0a74fd54fe4eea6e69f5a",
      "assetIds": [
        "55464657044963196816950587289035428064568320970692304673817341489687505668096"
      ],
      "assetValues": [
        1
      ]
    },
    {
      "reservedAddress": "0x106ea65d056f808709b3f64a2306017df53b809c",
      "assetIds": [
        "55464657044963196816950587289035428064568320970692304673817341489687505668096"
      ],
      "assetValues": [
        1
      ]
    },
    {
      "reservedAddress": "0x1070ccd20d2bd203c5e687f2b6d76d3557b4e04d",
      "assetIds": [
        "55464657044963196816950587289035428064568320970692304673817341489687505668096"
      ],
      "assetValues": [
        1
      ]
    },
    {
      "reservedAddress": "0x10890742a1a20a936132072c20ae77b081486190",
      "assetIds": [
        "55464657044963196816950587289035428064568320970692304673817341489687505668096"
      ],
      "assetValues": [
        1
      ]
    },
    {
      "reservedAddress": "0x10b112108aa41262d05ce64967554252879bdcaa",
      "assetIds": [
        "55464657044963196816950587289035428064568320970692304673817341489687505668096"
      ],
      "assetValues": [
        1
      ]
    },
    {
      "reservedAddress": "0x10b33d9cbfd2e0ec50e410ae2273814fafdfdc0f",
      "assetIds": [
        "55464657044963196816950587289035428064568320970692304673817341489687505668096"
      ],
      "assetValues": [
        1
      ]
    },
    {
      "reservedAddress": "0x10c663c71dd117b84470aa2f9797d845bee01d9a",
      "assetIds": [
        "55464657044963196816950587289035428064568320970692304673817341489687505668096"
      ],
      "assetValues": [
        1
      ]
    },
    {
      "reservedAddress": "0x10d2ed17408a508bc1693d1fb7f3b9899a96cc98",
      "assetIds": [
        "55464657044963196816950587289035428064568320970692304673817341489687505668096"
      ],
      "assetValues": [
        1
      ]
    },
    {
      "reservedAddress": "0x10e71d52961a67ffc549f92e1c908f49897b186f",
      "assetIds": [
        "55464657044963196816950587289035428064568320970692304673817341489687505668096"
      ],
      "assetValues": [
        1
      ]
    },
    {
      "reservedAddress": "0x10f3d17a6d4e7beab85b6c9623c13b89ca3375f3",
      "assetIds": [
        "55464657044963196816950587289035428064568320970692304673817341489687505668096"
      ],
      "assetValues": [
        1
      ]
    },
    {
      "reservedAddress": "0x10f546a6f4d20d91e5a8506124384759c9f4bc79",
      "assetIds": [
        "55464657044963196816950587289035428064568320970692304673817341489687505668096"
      ],
      "assetValues": [
        1
      ]
    },
    {
      "reservedAddress": "0x11119e210747f543f1e08a4ed35a7f93fb2cd938",
      "assetIds": [
        "55464657044963196816950587289035428064568320970692304673817341489687505668096"
      ],
      "assetValues": [
        1
      ]
    },
    {
      "reservedAddress": "0x1138cdc8e85330c428562aa7849e252de63c089f",
      "assetIds": [
        "55464657044963196816950587289035428064568320970692304673817341489687505668096"
      ],
      "assetValues": [
        1
      ]
    },
    {
      "reservedAddress": "0x114f4e37d58da1d53f2f43cca7606d2d2884131f",
      "assetIds": [
        "55464657044963196816950587289035428064568320970692304673817341489687505668096"
      ],
      "assetValues": [
        1
      ]
    },
    {
      "reservedAddress": "0x115b72c42fa4d48777a26f612a26bdecf3d40b2d",
      "assetIds": [
        "55464657044963196816950587289035428064568320970692304673817341489687505668096"
      ],
      "assetValues": [
        1
      ]
    },
    {
      "reservedAddress": "0x11735a8a9f8b6dabc29f0cc67422f84142b43882",
      "assetIds": [
        "55464657044963196816950587289035428064568320970692304673817341489687505668096"
      ],
      "assetValues": [
        1
      ]
    },
    {
      "reservedAddress": "0x117fdd5fa955c2d9c3d0760da0a8acbc3ab5f949",
      "assetIds": [
        "55464657044963196816950587289035428064568320970692304673817341489687505668096"
      ],
      "assetValues": [
        1
      ]
    },
    {
      "reservedAddress": "0x1187a364dcb403897574ac135ea39549dacd8f0f",
      "assetIds": [
        "55464657044963196816950587289035428064568320970692304673817341489687505668096"
      ],
      "assetValues": [
        1
      ]
    },
    {
      "reservedAddress": "0x11ad9e232186996ee9198c67f82c82e042081d23",
      "assetIds": [
        "55464657044963196816950587289035428064568320970692304673817341489687505668096"
      ],
      "assetValues": [
        1
      ]
    },
    {
      "reservedAddress": "0x11b4e6e905bad1d039b2986882856b8def79eed3",
      "assetIds": [
        "55464657044963196816950587289035428064568320970692304673817341489687505668096"
      ],
      "assetValues": [
        1
      ]
    },
    {
      "reservedAddress": "0x11b505466d9f7177eee9316f553788329d98f792",
      "assetIds": [
        "55464657044963196816950587289035428064568320970692304673817341489687505668096"
      ],
      "assetValues": [
        1
      ]
    },
    {
      "reservedAddress": "0x11b7681ad0b91c23f734abda6048b9524f49518b",
      "assetIds": [
        "55464657044963196816950587289035428064568320970692304673817341489687505668096"
      ],
      "assetValues": [
        1
      ]
    },
    {
      "reservedAddress": "0x11fa4f109a1601bd1afdb509b3bdb1e23fd6a675",
      "assetIds": [
        "55464657044963196816950587289035428064568320970692304673817341489687505668096"
      ],
      "assetValues": [
        1
      ]
    },
    {
      "reservedAddress": "0x1200be738b266877c53df0f76a6e1beff472ae24",
      "assetIds": [
        "55464657044963196816950587289035428064568320970692304673817341489687505668096"
      ],
      "assetValues": [
        1
      ]
    },
    {
      "reservedAddress": "0x121222f36ad33e4aef2b0b8b5f8d230fa86bc488",
      "assetIds": [
        "55464657044963196816950587289035428064568320970692304673817341489687505668096"
      ],
      "assetValues": [
        1
      ]
    },
    {
      "reservedAddress": "0x121f02aedaa8a32c590963a47eed2d05bb968f03",
      "assetIds": [
        "55464657044963196816950587289035428064568320970692304673817341489687505668096"
      ],
      "assetValues": [
        1
      ]
    },
    {
      "reservedAddress": "0x1226b93ca3aa79dc172ae28411508dc619a3c68a",
      "assetIds": [
        "55464657044963196816950587289035428064568320970692304673817341489687505668096"
      ],
      "assetValues": [
        1
      ]
    },
    {
      "reservedAddress": "0x12288c52d4177d355ef9117fbe1e7b4197c181fd",
      "assetIds": [
        "55464657044963196816950587289035428064568320970692304673817341489687505668096"
      ],
      "assetValues": [
        1
      ]
    },
    {
      "reservedAddress": "0x12710513dab50f6982d5b7d7054c5a0a2af5ddfc",
      "assetIds": [
        "55464657044963196816950587289035428064568320970692304673817341489687505668096"
      ],
      "assetValues": [
        1
      ]
    },
    {
      "reservedAddress": "0x128ec01c3a4d5ee644e382efbe9e7e00d71533da",
      "assetIds": [
        "55464657044963196816950587289035428064568320970692304673817341489687505668096"
      ],
      "assetValues": [
        1
      ]
    },
    {
      "reservedAddress": "0x129cca387eacfe191d8edde1d8d9723b6b891a8b",
      "assetIds": [
        "55464657044963196816950587289035428064568320970692304673817341489687505668096"
      ],
      "assetValues": [
        1
      ]
    },
    {
      "reservedAddress": "0x129d784067e4bef907f504692e3963716ab21c30",
      "assetIds": [
        "55464657044963196816950587289035428064568320970692304673817341489687505668096"
      ],
      "assetValues": [
        1
      ]
    },
    {
      "reservedAddress": "0x12a4eec88a9a89cf2e1ffadb5549af3a0ed875bf",
      "assetIds": [
        "55464657044963196816950587289035428064568320970692304673817341489687505668096"
      ],
      "assetValues": [
        1
      ]
    },
    {
      "reservedAddress": "0x12aeaa309995ae134d7b610256f9d269b9b40e69",
      "assetIds": [
        "55464657044963196816950587289035428064568320970692304673817341489687505668096"
      ],
      "assetValues": [
        1
      ]
    },
    {
      "reservedAddress": "0x12c5bb996002b4fe34f96b923af97924be19d869",
      "assetIds": [
        "55464657044963196816950587289035428064568320970692304673817341489687505668096"
      ],
      "assetValues": [
        1
      ]
    },
    {
      "reservedAddress": "0x12c6f41ed5b067943a0346ddb7d661d789c7f6b8",
      "assetIds": [
        "55464657044963196816950587289035428064568320970692304673817341489687505668096"
      ],
      "assetValues": [
        1
      ]
    },
    {
      "reservedAddress": "0x12dc2ae7b787e68aac053cec9bdbeff372d14058",
      "assetIds": [
        "55464657044963196816950587289035428064568320970692304673817341489687505668096"
      ],
      "assetValues": [
        1
      ]
    },
    {
      "reservedAddress": "0x12eeaecc0eb2e1a9f759170b706d0e9954aff811",
      "assetIds": [
        "55464657044963196816950587289035428064568320970692304673817341489687505668096"
      ],
      "assetValues": [
        1
      ]
    },
    {
      "reservedAddress": "0x12f9eca250a979de314f25dd268fe1e15fac064f",
      "assetIds": [
        "55464657044963196816950587289035428064568320970692304673817341489687505668096"
      ],
      "assetValues": [
        1
      ]
    },
    {
      "reservedAddress": "0x12fc209236986b7e3604ef557f678a23a25bb5c5",
      "assetIds": [
        "55464657044963196816950587289035428064568320970692304673817341489687505668096"
      ],
      "assetValues": [
        1
      ]
    },
    {
      "reservedAddress": "0x131c04590dfe2cb36dc2c1f9ca1b7b6308a6b5e2",
      "assetIds": [
        "55464657044963196816950587289035428064568320970692304673817341489687505668096"
      ],
      "assetValues": [
        1
      ]
    },
    {
      "reservedAddress": "0x1323674423cb2dd3c2f30a3bd121d2c96d22016b",
      "assetIds": [
        "55464657044963196816950587289035428064568320970692304673817341489687505668096"
      ],
      "assetValues": [
        1
      ]
    },
    {
      "reservedAddress": "0x1339af394a378cddeb9231fa015c8c9c0c653f79",
      "assetIds": [
        "55464657044963196816950587289035428064568320970692304673817341489687505668096"
      ],
      "assetValues": [
        1
      ]
    },
    {
      "reservedAddress": "0x133abf61f515318658b91fdbd165eee0dd668bcd",
      "assetIds": [
        "55464657044963196816950587289035428064568320970692304673817341489687505668096"
      ],
      "assetValues": [
        1
      ]
    },
    {
      "reservedAddress": "0x133bcb92fce075e6680e440a9347c45a4509b430",
      "assetIds": [
        "55464657044963196816950587289035428064568320970692304673817341489687505668096"
      ],
      "assetValues": [
        1
      ]
    },
    {
      "reservedAddress": "0x13548e561eb9d205d80e96e5cc9a2fd241196092",
      "assetIds": [
        "55464657044963196816950587289035428064568320970692304673817341489687505668096"
      ],
      "assetValues": [
        1
      ]
    },
    {
      "reservedAddress": "0x1384c5878b87788e1af5c17bb61bf8adae21b1de",
      "assetIds": [
        "55464657044963196816950587289035428064568320970692304673817341489687505668096"
      ],
      "assetValues": [
        1
      ]
    },
    {
      "reservedAddress": "0x13977b4a08b0db130b67ffa9d7a8ce782b6dfb30",
      "assetIds": [
        "55464657044963196816950587289035428064568320970692304673817341489687505668096"
      ],
      "assetValues": [
        1
      ]
    },
    {
      "reservedAddress": "0x13c135a98fce2bd78a7c2d27375c2a027e66469f",
      "assetIds": [
        "55464657044963196816950587289035428064568320970692304673817341489687505668096"
      ],
      "assetValues": [
        1
      ]
    },
    {
      "reservedAddress": "0x13d245bed9d568e57ee7f6aad51d3958dea9da20",
      "assetIds": [
        "55464657044963196816950587289035428064568320970692304673817341489687505668096"
      ],
      "assetValues": [
        1
      ]
    },
    {
      "reservedAddress": "0x13f632fdbbf0c9ff63adc0156d5dff9744d81d28",
      "assetIds": [
        "55464657044963196816950587289035428064568320970692304673817341489687505668096"
      ],
      "assetValues": [
        1
      ]
    },
    {
      "reservedAddress": "0x14287e62b859a3a5e19b3c2d59ed1f12ac94ba4c",
      "assetIds": [
        "55464657044963196816950587289035428064568320970692304673817341489687505668096"
      ],
      "assetValues": [
        1
      ]
    },
    {
      "reservedAddress": "0x1457e7b64342a77682a88c842bfe76801aca3283",
      "assetIds": [
        "55464657044963196816950587289035428064568320970692304673817341489687505668096"
      ],
      "assetValues": [
        1
      ]
    },
    {
      "reservedAddress": "0x1479cff0793829332328c7878e577ac6d6d5a77c",
      "assetIds": [
        "55464657044963196816950587289035428064568320970692304673817341489687505668096"
      ],
      "assetValues": [
        1
      ]
    },
    {
      "reservedAddress": "0x149430401f2479271b1b747f29563862c8cd54c5",
      "assetIds": [
        "55464657044963196816950587289035428064568320970692304673817341489687505668096"
      ],
      "assetValues": [
        1
      ]
    },
    {
      "reservedAddress": "0x14c11393a02b4249b4689ee49c9eb67bf8b7dbb7",
      "assetIds": [
        "55464657044963196816950587289035428064568320970692304673817341489687505668096"
      ],
      "assetValues": [
        1
      ]
    },
    {
      "reservedAddress": "0x1510a0f92da06121b2a06a05a777458c794771ba",
      "assetIds": [
        "55464657044963196816950587289035428064568320970692304673817341489687505668096"
      ],
      "assetValues": [
        1
      ]
    },
    {
      "reservedAddress": "0x151cbeeaa78e4d8ebd1bde7c631073ff2a6adb16",
      "assetIds": [
        "55464657044963196816950587289035428064568320970692304673817341489687505668096"
      ],
      "assetValues": [
        1
      ]
    },
    {
      "reservedAddress": "0x151f441c27734e78544697e4e1d4e5a77837e6a2",
      "assetIds": [
        "55464657044963196816950587289035428064568320970692304673817341489687505668096"
      ],
      "assetValues": [
        1
      ]
    },
    {
      "reservedAddress": "0x1528138943e06f832f0fb12bf54c0701f6eedaaa",
      "assetIds": [
        "55464657044963196816950587289035428064568320970692304673817341489687505668096"
      ],
      "assetValues": [
        1
      ]
    },
    {
      "reservedAddress": "0x155457b6eef5bc35fba9abee3edb515a1d5e970d",
      "assetIds": [
        "55464657044963196816950587289035428064568320970692304673817341489687505668096"
      ],
      "assetValues": [
        1
      ]
    },
    {
      "reservedAddress": "0x156d8d41c63b66ca95492a499226e2596b58429d",
      "assetIds": [
        "55464657044963196816950587289035428064568320970692304673817341489687505668096"
      ],
      "assetValues": [
        1
      ]
    },
    {
      "reservedAddress": "0x1590aebcbc9c9541d9349990a5e048d23396dcde",
      "assetIds": [
        "55464657044963196816950587289035428064568320970692304673817341489687505668096"
      ],
      "assetValues": [
        1
      ]
    },
    {
      "reservedAddress": "0x1592faf8b6bd331ecf483fd73cacb2a1539407e4",
      "assetIds": [
        "55464657044963196816950587289035428064568320970692304673817341489687505668096"
      ],
      "assetValues": [
        1
      ]
    },
    {
      "reservedAddress": "0x15976bd81162790caa69ebbee3844a4f58e885b9",
      "assetIds": [
        "55464657044963196816950587289035428064568320970692304673817341489687505668096"
      ],
      "assetValues": [
        1
      ]
    },
    {
      "reservedAddress": "0x15b21f1747efda80eaeba052726eee0491aba0da",
      "assetIds": [
        "55464657044963196816950587289035428064568320970692304673817341489687505668096"
      ],
      "assetValues": [
        1
      ]
    },
    {
      "reservedAddress": "0x15b6171e1e385ff6fb2cff36030d2d08f0cc1358",
      "assetIds": [
        "55464657044963196816950587289035428064568320970692304673817341489687505668096"
      ],
      "assetValues": [
        1
      ]
    },
    {
      "reservedAddress": "0x15c5c0a6770bab411749ef4e9e2318c8a1f8d1b9",
      "assetIds": [
        "55464657044963196816950587289035428064568320970692304673817341489687505668096"
      ],
      "assetValues": [
        1
      ]
    },
    {
      "reservedAddress": "0x15d360988e31b459ca4b9578503c6762a689b2e8",
      "assetIds": [
        "55464657044963196816950587289035428064568320970692304673817341489687505668096"
      ],
      "assetValues": [
        1
      ]
    },
    {
      "reservedAddress": "0x15e97e9d9e5ac247bbfae4e7e39c634ba60e610f",
      "assetIds": [
        "55464657044963196816950587289035428064568320970692304673817341489687505668096"
      ],
      "assetValues": [
        1
      ]
    },
    {
      "reservedAddress": "0x15f2a5172c743c3886c266bcaad2d89eaae157ca",
      "assetIds": [
        "55464657044963196816950587289035428064568320970692304673817341489687505668096"
      ],
      "assetValues": [
        1
      ]
    },
    {
      "reservedAddress": "0x15f3ac04199873772ee1de8f9995e28aff21d50b",
      "assetIds": [
        "55464657044963196816950587289035428064568320970692304673817341489687505668096"
      ],
      "assetValues": [
        1
      ]
    },
    {
      "reservedAddress": "0x16108b4d8f21c1450aa898d57833f9153a801435",
      "assetIds": [
        "55464657044963196816950587289035428064568320970692304673817341489687505668096"
      ],
      "assetValues": [
        1
      ]
    },
    {
      "reservedAddress": "0x1627902c8aa6572894ce678d0703ead3dbf74d5e",
      "assetIds": [
        "55464657044963196816950587289035428064568320970692304673817341489687505668096"
      ],
      "assetValues": [
        1
      ]
    },
    {
      "reservedAddress": "0x165c830d28e41c0a2de9109876a627ddc0c2dc89",
      "assetIds": [
        "55464657044963196816950587289035428064568320970692304673817341489687505668096"
      ],
      "assetValues": [
        1
      ]
    },
    {
      "reservedAddress": "0x165f5b980292ce91856f52f2f003a783d34ba476",
      "assetIds": [
        "55464657044963196816950587289035428064568320970692304673817341489687505668096"
      ],
      "assetValues": [
        1
      ]
    },
    {
      "reservedAddress": "0x166b6770f7513ee4be7a88f7c8d250e5e8bcbfaf",
      "assetIds": [
        "55464657044963196816950587289035428064568320970692304673817341489687505668096"
      ],
      "assetValues": [
        1
      ]
    },
    {
      "reservedAddress": "0x1672044c7e7e0e1dcada77ae6a08b5429ca0b69c",
      "assetIds": [
        "55464657044963196816950587289035428064568320970692304673817341489687505668096"
      ],
      "assetValues": [
        1
      ]
    },
    {
      "reservedAddress": "0x167539702b5501aadd9b0b85e53532fd57cc71a9",
      "assetIds": [
        "55464657044963196816950587289035428064568320970692304673817341489687505668096"
      ],
      "assetValues": [
        1
      ]
    },
    {
      "reservedAddress": "0x168769fb24d7eaa3c680348ebccb4401504e4970",
      "assetIds": [
        "55464657044963196816950587289035428064568320970692304673817341489687505668096"
      ],
      "assetValues": [
        1
      ]
    },
    {
      "reservedAddress": "0x169e8af3b7669ac56a073f84c3cb3abf816fa33e",
      "assetIds": [
        "55464657044963196816950587289035428064568320970692304673817341489687505668096"
      ],
      "assetValues": [
        1
      ]
    },
    {
      "reservedAddress": "0x169eb4ec3a7b073f7393d1176c6009e1eadbe735",
      "assetIds": [
        "55464657044963196816950587289035428064568320970692304673817341489687505668096"
      ],
      "assetValues": [
        1
      ]
    },
    {
      "reservedAddress": "0x16e78027307c0670d7f03076e34bdcb1a92b2c6c",
      "assetIds": [
        "55464657044963196816950587289035428064568320970692304673817341489687505668096"
      ],
      "assetValues": [
        1
      ]
    },
    {
      "reservedAddress": "0x16fbdcd354f05b493e75fdfe24cd295972087d08",
      "assetIds": [
        "55464657044963196816950587289035428064568320970692304673817341489687505668096"
      ],
      "assetValues": [
        1
      ]
    },
    {
      "reservedAddress": "0x17284c1e1ecc659c7396952c7c68066fc3aa217d",
      "assetIds": [
        "55464657044963196816950587289035428064568320970692304673817341489687505668096"
      ],
      "assetValues": [
        1
      ]
    },
    {
      "reservedAddress": "0x1729fd4c79ca6515d40e07fbf2dd7345b1648662",
      "assetIds": [
        "55464657044963196816950587289035428064568320970692304673817341489687505668096"
      ],
      "assetValues": [
        1
      ]
    },
    {
      "reservedAddress": "0x1748b649604d035bfdd4c7c3a38c3d762cce9bf5",
      "assetIds": [
        "55464657044963196816950587289035428064568320970692304673817341489687505668096"
      ],
      "assetValues": [
        1
      ]
    },
    {
      "reservedAddress": "0x174d9fc753a8a7ed04d3475d4260ac0d4e07f29f",
      "assetIds": [
        "55464657044963196816950587289035428064568320970692304673817341489687505668096"
      ],
      "assetValues": [
        1
      ]
    },
    {
      "reservedAddress": "0x1765acd5b00c8cd123f2971e2608ce37b3b17c66",
      "assetIds": [
        "55464657044963196816950587289035428064568320970692304673817341489687505668096"
      ],
      "assetValues": [
        1
      ]
    },
    {
      "reservedAddress": "0x176ce93073de44b62c47292fcf4af4755f083a87",
      "assetIds": [
        "55464657044963196816950587289035428064568320970692304673817341489687505668096"
      ],
      "assetValues": [
        1
      ]
    },
    {
      "reservedAddress": "0x1779b5aa4fb5e471f1356f7a81e67e716bb69512",
      "assetIds": [
        "55464657044963196816950587289035428064568320970692304673817341489687505668096"
      ],
      "assetValues": [
        1
      ]
    },
    {
      "reservedAddress": "0x1780d63ca19eda0f15221f78cb8b3869ac1328c3",
      "assetIds": [
        "55464657044963196816950587289035428064568320970692304673817341489687505668096"
      ],
      "assetValues": [
        1
      ]
    },
    {
      "reservedAddress": "0x17869b78b0bcd9e20a068dacf06c77cd6bab9361",
      "assetIds": [
        "55464657044963196816950587289035428064568320970692304673817341489687505668096"
      ],
      "assetValues": [
        1
      ]
    },
    {
      "reservedAddress": "0x17c23316a101ca5f43f83be04ae66b5d279586ad",
      "assetIds": [
        "55464657044963196816950587289035428064568320970692304673817341489687505668096"
      ],
      "assetValues": [
        1
      ]
    },
    {
      "reservedAddress": "0x17c40177f38438fd8bf933bec648e9ef88f930a0",
      "assetIds": [
        "55464657044963196816950587289035428064568320970692304673817341489687505668096"
      ],
      "assetValues": [
        1
      ]
    },
    {
      "reservedAddress": "0x17fe4ed21e35b5ad800179b0c20447ca3f5280db",
      "assetIds": [
        "55464657044963196816950587289035428064568320970692304673817341489687505668096"
      ],
      "assetValues": [
        1
      ]
    },
    {
      "reservedAddress": "0x18057463877204e0bec8082abdc192bd717c311f",
      "assetIds": [
        "55464657044963196816950587289035428064568320970692304673817341489687505668096"
      ],
      "assetValues": [
        1
      ]
    },
    {
      "reservedAddress": "0x180a6d6ae351db269bed165683017215de5c7829",
      "assetIds": [
        "55464657044963196816950587289035428064568320970692304673817341489687505668096"
      ],
      "assetValues": [
        1
      ]
    },
    {
      "reservedAddress": "0x18126b10cb33cd62ae698faae7042f4b6fd3e9e8",
      "assetIds": [
        "55464657044963196816950587289035428064568320970692304673817341489687505668096"
      ],
      "assetValues": [
        1
      ]
    },
    {
      "reservedAddress": "0x182704ce9da6fcfa9bf8d7a44fc6ca6a288a28b5",
      "assetIds": [
        "55464657044963196816950587289035428064568320970692304673817341489687505668096"
      ],
      "assetValues": [
        1
      ]
    },
    {
      "reservedAddress": "0x1833e051ee6d766ba9d80bf7b97c816ce9cde299",
      "assetIds": [
        "55464657044963196816950587289035428064568320970692304673817341489687505668096"
      ],
      "assetValues": [
        1
      ]
    },
    {
      "reservedAddress": "0x18453135ea1917bc983dd3d655f1ea07fcfd5dea",
      "assetIds": [
        "55464657044963196816950587289035428064568320970692304673817341489687505668096"
      ],
      "assetValues": [
        1
      ]
    },
    {
      "reservedAddress": "0x1857034ef7c022c4373370ff5211be3da7ea27c1",
      "assetIds": [
        "55464657044963196816950587289035428064568320970692304673817341489687505668096"
      ],
      "assetValues": [
        1
      ]
    },
    {
      "reservedAddress": "0x1878637da33bd51910353da5a3beb039a8c8d0fc",
      "assetIds": [
        "55464657044963196816950587289035428064568320970692304673817341489687505668096"
      ],
      "assetValues": [
        1
      ]
    },
    {
      "reservedAddress": "0x187d6e8741af35c45198ebec83905eb23e742b15",
      "assetIds": [
        "55464657044963196816950587289035428064568320970692304673817341489687505668096"
      ],
      "assetValues": [
        1
      ]
    },
    {
      "reservedAddress": "0x187dad1e0dd5e599091c2ec88e89afb4cde4b7a3",
      "assetIds": [
        "55464657044963196816950587289035428064568320970692304673817341489687505668096"
      ],
      "assetValues": [
        1
      ]
    },
    {
      "reservedAddress": "0x188954f6dba1d0bc342596abf9788ec19762bc49",
      "assetIds": [
        "55464657044963196816950587289035428064568320970692304673817341489687505668096"
      ],
      "assetValues": [
        1
      ]
    },
    {
      "reservedAddress": "0x1891c5f6e7a566b2d8017573a807c14678a005af",
      "assetIds": [
        "55464657044963196816950587289035428064568320970692304673817341489687505668096"
      ],
      "assetValues": [
        1
      ]
    },
    {
      "reservedAddress": "0x189c7c007c6bede6080caf2b856ea7797fbd1b4b",
      "assetIds": [
        "55464657044963196816950587289035428064568320970692304673817341489687505668096"
      ],
      "assetValues": [
        1
      ]
    },
    {
      "reservedAddress": "0x18a902b117f1037346d4a7367d7bbd9e674be41b",
      "assetIds": [
        "55464657044963196816950587289035428064568320970692304673817341489687505668096"
      ],
      "assetValues": [
        1
      ]
    },
    {
      "reservedAddress": "0x18c0f8c58561a47f8356565e119d840fe2b112ed",
      "assetIds": [
        "55464657044963196816950587289035428064568320970692304673817341489687505668096"
      ],
      "assetValues": [
        1
      ]
    },
    {
      "reservedAddress": "0x18e7176af6ee7d9ebe02e820df38553ad2ecac98",
      "assetIds": [
        "55464657044963196816950587289035428064568320970692304673817341489687505668096"
      ],
      "assetValues": [
        1
      ]
    },
    {
      "reservedAddress": "0x190bff1e90e21b28c006ee548e443ab797e78977",
      "assetIds": [
        "55464657044963196816950587289035428064568320970692304673817341489687505668096"
      ],
      "assetValues": [
        1
      ]
    },
    {
      "reservedAddress": "0x19221de454ca78e846f0aee7273f20c02b9065c4",
      "assetIds": [
        "55464657044963196816950587289035428064568320970692304673817341489687505668096"
      ],
      "assetValues": [
        1
      ]
    },
    {
      "reservedAddress": "0x19285ccf752d4c08ed93d438d5ff37b7df3e2276",
      "assetIds": [
        "55464657044963196816950587289035428064568320970692304673817341489687505668096"
      ],
      "assetValues": [
        1
      ]
    },
    {
      "reservedAddress": "0x193655d9bd238fbc8bfd2420d7b0ee3d8ab5ce6e",
      "assetIds": [
        "55464657044963196816950587289035428064568320970692304673817341489687505668096"
      ],
      "assetValues": [
        1
      ]
    },
    {
      "reservedAddress": "0x19457afb95ccbd9ae720085683078a49cc0d18f5",
      "assetIds": [
        "55464657044963196816950587289035428064568320970692304673817341489687505668096"
      ],
      "assetValues": [
        1
      ]
    },
    {
      "reservedAddress": "0x19492458f2c7ede26349745eb5de17a99eae9a52",
      "assetIds": [
        "55464657044963196816950587289035428064568320970692304673817341489687505668096"
      ],
      "assetValues": [
        1
      ]
    },
    {
      "reservedAddress": "0x1960e793564d256a02406226acdc3a2163bd63a2",
      "assetIds": [
        "55464657044963196816950587289035428064568320970692304673817341489687505668096"
      ],
      "assetValues": [
        1
      ]
    },
    {
      "reservedAddress": "0x196228f5196f562f79b21996ad7309344a7f3626",
      "assetIds": [
        "55464657044963196816950587289035428064568320970692304673817341489687505668096"
      ],
      "assetValues": [
        1
      ]
    },
    {
      "reservedAddress": "0x19691f5915824b09f534add460bfcf16c53b300c",
      "assetIds": [
        "55464657044963196816950587289035428064568320970692304673817341489687505668096"
      ],
      "assetValues": [
        1
      ]
    },
    {
      "reservedAddress": "0x1979fda86dd6ce0d30fae4e4d914d421776c80f1",
      "assetIds": [
        "55464657044963196816950587289035428064568320970692304673817341489687505668096"
      ],
      "assetValues": [
        1
      ]
    },
    {
      "reservedAddress": "0x197e14f9cb20e411376891173f64f5c49ffa06bc",
      "assetIds": [
        "55464657044963196816950587289035428064568320970692304673817341489687505668096"
      ],
      "assetValues": [
        1
      ]
    },
    {
      "reservedAddress": "0x1993c70a2ca963455a253f15cdb42453fa52b840",
      "assetIds": [
        "55464657044963196816950587289035428064568320970692304673817341489687505668096"
      ],
      "assetValues": [
        1
      ]
    },
    {
      "reservedAddress": "0x19ab6c86115c25734dcfb017bba1686023c4e435",
      "assetIds": [
        "55464657044963196816950587289035428064568320970692304673817341489687505668096"
      ],
      "assetValues": [
        1
      ]
    },
    {
      "reservedAddress": "0x19ac63521615455415a716f5dcbb49d065ae8092",
      "assetIds": [
        "55464657044963196816950587289035428064568320970692304673817341489687505668096"
      ],
      "assetValues": [
        1
      ]
    },
    {
      "reservedAddress": "0x19b2dda7e0f834a25d079026428c7b66670cc488",
      "assetIds": [
        "55464657044963196816950587289035428064568320970692304673817341489687505668096"
      ],
      "assetValues": [
        1
      ]
    },
    {
      "reservedAddress": "0x19b43537292570dc60a5746b904d1b43aa07277d",
      "assetIds": [
        "55464657044963196816950587289035428064568320970692304673817341489687505668096"
      ],
      "assetValues": [
        1
      ]
    },
    {
      "reservedAddress": "0x19ba4782efadd1bf349e87a233515f24db496868",
      "assetIds": [
        "55464657044963196816950587289035428064568320970692304673817341489687505668096"
      ],
      "assetValues": [
        1
      ]
    },
    {
      "reservedAddress": "0x19c17cdaaccf97fd637d0d82702178029e690340",
      "assetIds": [
        "55464657044963196816950587289035428064568320970692304673817341489687505668096"
      ],
      "assetValues": [
        1
      ]
    },
    {
      "reservedAddress": "0x19caba240a2a31af56efef0166a21e7cf87e8451",
      "assetIds": [
        "55464657044963196816950587289035428064568320970692304673817341489687505668096"
      ],
      "assetValues": [
        1
      ]
    },
    {
      "reservedAddress": "0x1a1dfc69bcca1521ba39f87c7569c9a1db006415",
      "assetIds": [
        "55464657044963196816950587289035428064568320970692304673817341489687505668096"
      ],
      "assetValues": [
        1
      ]
    },
    {
      "reservedAddress": "0x1a234dba5f9025642676b8ee577431f9ba89a7f7",
      "assetIds": [
        "55464657044963196816950587289035428064568320970692304673817341489687505668096"
      ],
      "assetValues": [
        1
      ]
    },
    {
      "reservedAddress": "0x1a254886e570058f240ee19f63286f88d0657475",
      "assetIds": [
        "55464657044963196816950587289035428064568320970692304673817341489687505668096"
      ],
      "assetValues": [
        1
      ]
    },
    {
      "reservedAddress": "0x1a2b1ce21bbcbd6c3c16b5d8bea2ade4491561cf",
      "assetIds": [
        "55464657044963196816950587289035428064568320970692304673817341489687505668096"
      ],
      "assetValues": [
        1
      ]
    },
    {
      "reservedAddress": "0x1a35832c6db87868092bacd02b6e39305bc0edc9",
      "assetIds": [
        "55464657044963196816950587289035428064568320970692304673817341489687505668096"
      ],
      "assetValues": [
        1
      ]
    },
    {
      "reservedAddress": "0x1a420dfee9a50d5800ec8490504f31e59cfa8623",
      "assetIds": [
        "55464657044963196816950587289035428064568320970692304673817341489687505668096"
      ],
      "assetValues": [
        1
      ]
    },
    {
      "reservedAddress": "0x1a4e3df7173c827f95ba91934d7365f9bc2ea357",
      "assetIds": [
        "55464657044963196816950587289035428064568320970692304673817341489687505668096"
      ],
      "assetValues": [
        1
      ]
    },
    {
      "reservedAddress": "0x1a78a8cd7498535745dd9730f8029189815bc157",
      "assetIds": [
        "55464657044963196816950587289035428064568320970692304673817341489687505668096"
      ],
      "assetValues": [
        1
      ]
    },
    {
      "reservedAddress": "0x1abbb1b78e28f0ab911fdea77a4ddb36ffaf64bf",
      "assetIds": [
        "55464657044963196816950587289035428064568320970692304673817341489687505668096"
      ],
      "assetValues": [
        1
      ]
    },
    {
      "reservedAddress": "0x1b01983d3954fe256743c722902f8af138958e1e",
      "assetIds": [
        "55464657044963196816950587289035428064568320970692304673817341489687505668096"
      ],
      "assetValues": [
        1
      ]
    },
    {
      "reservedAddress": "0x1b3559d21f1d054b830ffd6640110579fcc56528",
      "assetIds": [
        "55464657044963196816950587289035428064568320970692304673817341489687505668096"
      ],
      "assetValues": [
        1
      ]
    },
    {
      "reservedAddress": "0x1b3afa7d55cde139a4c94cf861d9b941c17de9bb",
      "assetIds": [
        "55464657044963196816950587289035428064568320970692304673817341489687505668096"
      ],
      "assetValues": [
        1
      ]
    },
    {
      "reservedAddress": "0x1b3cd68b2fcea1e02b12bfcb83c7f167df55283c",
      "assetIds": [
        "55464657044963196816950587289035428064568320970692304673817341489687505668096"
      ],
      "assetValues": [
        1
      ]
    },
    {
      "reservedAddress": "0x1b469cb6c504a6ef183701630307b0c320a3774e",
      "assetIds": [
        "55464657044963196816950587289035428064568320970692304673817341489687505668096"
      ],
      "assetValues": [
        1
      ]
    },
    {
      "reservedAddress": "0x1b5d64c9603851b7f80e738c47353659ce3095fe",
      "assetIds": [
        "55464657044963196816950587289035428064568320970692304673817341489687505668096"
      ],
      "assetValues": [
        1
      ]
    },
    {
      "reservedAddress": "0x1b66d3c5b1fbad4bba42657ddb2b03dc682931d8",
      "assetIds": [
        "55464657044963196816950587289035428064568320970692304673817341489687505668096"
      ],
      "assetValues": [
        1
      ]
    },
    {
      "reservedAddress": "0x1b67dee1d9fbf11d94f1cf3006172db830d2a913",
      "assetIds": [
        "55464657044963196816950587289035428064568320970692304673817341489687505668096"
      ],
      "assetValues": [
        1
      ]
    },
    {
      "reservedAddress": "0x1b70cbd7d27d952c60c76f0cfa265f91602ec73e",
      "assetIds": [
        "55464657044963196816950587289035428064568320970692304673817341489687505668096"
      ],
      "assetValues": [
        1
      ]
    },
    {
      "reservedAddress": "0x1b842ffd56d2ff1819aae528d05661039ab614af",
      "assetIds": [
        "55464657044963196816950587289035428064568320970692304673817341489687505668096"
      ],
      "assetValues": [
        1
      ]
    },
    {
      "reservedAddress": "0x1b976af94caa1d9b2fe5ed038ef9818dd6d48870",
      "assetIds": [
        "55464657044963196816950587289035428064568320970692304673817341489687505668096"
      ],
      "assetValues": [
        1
      ]
    },
    {
      "reservedAddress": "0x1ba2a537a771aa4eac2f18427716557e4e744864",
      "assetIds": [
        "55464657044963196816950587289035428064568320970692304673817341489687505668096"
      ],
      "assetValues": [
        1
      ]
    },
    {
      "reservedAddress": "0x1bb7ba2e4104d68448567e75912c329fe9fa9204",
      "assetIds": [
        "55464657044963196816950587289035428064568320970692304673817341489687505668096"
      ],
      "assetValues": [
        1
      ]
    },
    {
      "reservedAddress": "0x1bbe3ecf1747b344d97c591a624dbddecb034d5a",
      "assetIds": [
        "55464657044963196816950587289035428064568320970692304673817341489687505668096"
      ],
      "assetValues": [
        1
      ]
    },
    {
      "reservedAddress": "0x1bc3fbc41f9dc3e92868ebb7cb4cf207ab8e62e2",
      "assetIds": [
        "55464657044963196816950587289035428064568320970692304673817341489687505668096"
      ],
      "assetValues": [
        1
      ]
    },
    {
      "reservedAddress": "0x1bcb573f74f5fbac10c56e1ea44f7bb065c0a856",
      "assetIds": [
        "55464657044963196816950587289035428064568320970692304673817341489687505668096"
      ],
      "assetValues": [
        1
      ]
    },
    {
      "reservedAddress": "0x1c01942e503116b1d075f641ab431a393d7ede28",
      "assetIds": [
        "55464657044963196816950587289035428064568320970692304673817341489687505668096"
      ],
      "assetValues": [
        1
      ]
    },
    {
      "reservedAddress": "0x1c050f36742644abbdb59fbd1876f37ba118aa2c",
      "assetIds": [
        "55464657044963196816950587289035428064568320970692304673817341489687505668096"
      ],
      "assetValues": [
        1
      ]
    },
    {
      "reservedAddress": "0x1c062628943a930b805849b494719c7d23c77bd5",
      "assetIds": [
        "55464657044963196816950587289035428064568320970692304673817341489687505668096"
      ],
      "assetValues": [
        1
      ]
    },
    {
      "reservedAddress": "0x1c5475a73e9b06e154cba404d23e201b1c2ba9e2",
      "assetIds": [
        "55464657044963196816950587289035428064568320970692304673817341489687505668096"
      ],
      "assetValues": [
        1
      ]
    },
    {
      "reservedAddress": "0x1c5a7e2250cc51ebec2b8fefe2ef705c01a483ce",
      "assetIds": [
        "55464657044963196816950587289035428064568320970692304673817341489687505668096"
      ],
      "assetValues": [
        1
      ]
    },
    {
      "reservedAddress": "0x1c80afd0ad12e57ae42f9eaea50d6a312e1132e5",
      "assetIds": [
        "55464657044963196816950587289035428064568320970692304673817341489687505668096"
      ],
      "assetValues": [
        1
      ]
    },
    {
      "reservedAddress": "0x1c9d31d64a7863969f83bb91dd027daf284a67d4",
      "assetIds": [
        "55464657044963196816950587289035428064568320970692304673817341489687505668096"
      ],
      "assetValues": [
        1
      ]
    },
    {
      "reservedAddress": "0x1c9e5aba9bce815ed3bb7d9455931b84c56d5114",
      "assetIds": [
        "55464657044963196816950587289035428064568320970692304673817341489687505668096"
      ],
      "assetValues": [
        1
      ]
    },
    {
      "reservedAddress": "0x1cb023fe391292a1ae708c7a4ebbb3cea322b065",
      "assetIds": [
        "55464657044963196816950587289035428064568320970692304673817341489687505668096"
      ],
      "assetValues": [
        1
      ]
    },
    {
      "reservedAddress": "0x1cbcd6ede54635e6a2eac0979e1efe7a62b66e56",
      "assetIds": [
        "55464657044963196816950587289035428064568320970692304673817341489687505668096"
      ],
      "assetValues": [
        1
      ]
    },
    {
      "reservedAddress": "0x1cbef0412bfa5eb7409c0d4266d4ac430d540770",
      "assetIds": [
        "55464657044963196816950587289035428064568320970692304673817341489687505668096"
      ],
      "assetValues": [
        1
      ]
    },
    {
      "reservedAddress": "0x1d18e6494ce1e5f12eae7df7a44a9156bbc9941f",
      "assetIds": [
        "55464657044963196816950587289035428064568320970692304673817341489687505668096"
      ],
      "assetValues": [
        1
      ]
    },
    {
      "reservedAddress": "0x1d1d3220c2a50458f1e1bf0337a5c51da3b4a027",
      "assetIds": [
        "55464657044963196816950587289035428064568320970692304673817341489687505668096"
      ],
      "assetValues": [
        1
      ]
    },
    {
      "reservedAddress": "0x1d28b009a7c7e7bf71e91d61fa82504d10a7c33c",
      "assetIds": [
        "55464657044963196816950587289035428064568320970692304673817341489687505668096"
      ],
      "assetValues": [
        1
      ]
    },
    {
      "reservedAddress": "0x1d3b416ddd86008cb30e3e7da33cce85efad8aca",
      "assetIds": [
        "55464657044963196816950587289035428064568320970692304673817341489687505668096"
      ],
      "assetValues": [
        1
      ]
    },
    {
      "reservedAddress": "0x1d3c68cba44315834beddccdab3aef75b4454e29",
      "assetIds": [
        "55464657044963196816950587289035428064568320970692304673817341489687505668096"
      ],
      "assetValues": [
        1
      ]
    },
    {
      "reservedAddress": "0x1d56e60853f1d5637ee4de22e6412aa40d333c06",
      "assetIds": [
        "55464657044963196816950587289035428064568320970692304673817341489687505668096"
      ],
      "assetValues": [
        1
      ]
    },
    {
      "reservedAddress": "0x1d6dffa58e900ad5ca447aedf96663eba5697c00",
      "assetIds": [
        "55464657044963196816950587289035428064568320970692304673817341489687505668096"
      ],
      "assetValues": [
        1
      ]
    },
    {
      "reservedAddress": "0x1d7d54c4b2cab08d0807fb8963db8ee278291deb",
      "assetIds": [
        "55464657044963196816950587289035428064568320970692304673817341489687505668096"
      ],
      "assetValues": [
        1
      ]
    },
    {
      "reservedAddress": "0x1d7fe43995fd37bb87c73094cd70b0649a6df75d",
      "assetIds": [
        "55464657044963196816950587289035428064568320970692304673817341489687505668096"
      ],
      "assetValues": [
        1
      ]
    },
    {
      "reservedAddress": "0x1d864c902281a5a930250fd8e6b4504b1cfd53e7",
      "assetIds": [
        "55464657044963196816950587289035428064568320970692304673817341489687505668096"
      ],
      "assetValues": [
        1
      ]
    },
    {
      "reservedAddress": "0x1d9cccde7fd1d11df9ca2578c692f03a05fd07df",
      "assetIds": [
        "55464657044963196816950587289035428064568320970692304673817341489687505668096"
      ],
      "assetValues": [
        1
      ]
    },
    {
      "reservedAddress": "0x1dbef87da31986391e9d16ab9f1793ab0c9a6276",
      "assetIds": [
        "55464657044963196816950587289035428064568320970692304673817341489687505668096"
      ],
      "assetValues": [
        1
      ]
    },
    {
      "reservedAddress": "0x1dec0824739076c75467f364c18052c6e78ac53b",
      "assetIds": [
        "55464657044963196816950587289035428064568320970692304673817341489687505668096"
      ],
      "assetValues": [
        1
      ]
    },
    {
      "reservedAddress": "0x1dee354a94ce147c6ee0d570dfba92f8a65660e6",
      "assetIds": [
        "55464657044963196816950587289035428064568320970692304673817341489687505668096"
      ],
      "assetValues": [
        1
      ]
    },
    {
      "reservedAddress": "0x1df0e8067d2f10c5a9b894cbffb7de47d45afc0c",
      "assetIds": [
        "55464657044963196816950587289035428064568320970692304673817341489687505668096"
      ],
      "assetValues": [
        1
      ]
    },
    {
      "reservedAddress": "0x1df4c50410e20c2210b60b95cd845672cbd437a7",
      "assetIds": [
        "55464657044963196816950587289035428064568320970692304673817341489687505668096"
      ],
      "assetValues": [
        1
      ]
    },
    {
      "reservedAddress": "0x1dfe6385b343fe6d83576ab8c42fdbd4378111e4",
      "assetIds": [
        "55464657044963196816950587289035428064568320970692304673817341489687505668096"
      ],
      "assetValues": [
        1
      ]
    },
    {
      "reservedAddress": "0x1e1a197ffc06f34e426ffc94704789e22ec8d565",
      "assetIds": [
        "55464657044963196816950587289035428064568320970692304673817341489687505668096"
      ],
      "assetValues": [
        1
      ]
    },
    {
      "reservedAddress": "0x1e2520bdcc56c78ac1c60ae9710656dbbdf6d5c9",
      "assetIds": [
        "55464657044963196816950587289035428064568320970692304673817341489687505668096"
      ],
      "assetValues": [
        1
      ]
    },
    {
      "reservedAddress": "0x1e33cae7c1ba940b17380c127af2c2d541bb8513",
      "assetIds": [
        "55464657044963196816950587289035428064568320970692304673817341489687505668096"
      ],
      "assetValues": [
        1
      ]
    },
    {
      "reservedAddress": "0x1e5a074bb44a6dd8cf259886c0816d15f999c11b",
      "assetIds": [
        "55464657044963196816950587289035428064568320970692304673817341489687505668096"
      ],
      "assetValues": [
        1
      ]
    },
    {
      "reservedAddress": "0x1e835fe1c20a0bc5d053bac71ee57e02c5b5c5f6",
      "assetIds": [
        "55464657044963196816950587289035428064568320970692304673817341489687505668096"
      ],
      "assetValues": [
        1
      ]
    },
    {
      "reservedAddress": "0x1e8f07ce0e40090ca0160e482c6c723f717e138f",
      "assetIds": [
        "55464657044963196816950587289035428064568320970692304673817341489687505668096"
      ],
      "assetValues": [
        1
      ]
    },
    {
      "reservedAddress": "0x1ea948c321e4d96a7b358ef0fe3cfc51d7db6424",
      "assetIds": [
        "55464657044963196816950587289035428064568320970692304673817341489687505668096"
      ],
      "assetValues": [
        1
      ]
    },
    {
      "reservedAddress": "0x1ea9e4cb0a95ea21ac5ce6dea187d7f998084845",
      "assetIds": [
        "55464657044963196816950587289035428064568320970692304673817341489687505668096"
      ],
      "assetValues": [
        1
      ]
    },
    {
      "reservedAddress": "0x1ebcee2fd9292a35ca4bb61af238ed98983b9df9",
      "assetIds": [
        "55464657044963196816950587289035428064568320970692304673817341489687505668096"
      ],
      "assetValues": [
        1
      ]
    },
    {
      "reservedAddress": "0x1efed205caede27da1135cd37a4192861a51100e",
      "assetIds": [
        "55464657044963196816950587289035428064568320970692304673817341489687505668096"
      ],
      "assetValues": [
        1
      ]
    },
    {
      "reservedAddress": "0x1f00c26ac7e3efff7a0b92aea2d6e709c561c19d",
      "assetIds": [
        "55464657044963196816950587289035428064568320970692304673817341489687505668096"
      ],
      "assetValues": [
        1
      ]
    },
    {
      "reservedAddress": "0x1f1eea7df8672cf97ad69ff264a83296145f6837",
      "assetIds": [
        "55464657044963196816950587289035428064568320970692304673817341489687505668096"
      ],
      "assetValues": [
        1
      ]
    },
    {
      "reservedAddress": "0x1f49bd8c40dfa91ce0e8c8b4b3db1cc71fbc10fb",
      "assetIds": [
        "55464657044963196816950587289035428064568320970692304673817341489687505668096"
      ],
      "assetValues": [
        1
      ]
    },
    {
      "reservedAddress": "0x1f5a39931bfcf3ed01fd2d33febb1aa385e26a0c",
      "assetIds": [
        "55464657044963196816950587289035428064568320970692304673817341489687505668096"
      ],
      "assetValues": [
        1
      ]
    },
    {
      "reservedAddress": "0x1f6076eb5cbc3b27acd7ceb24ecbe30b738c0396",
      "assetIds": [
        "55464657044963196816950587289035428064568320970692304673817341489687505668096"
      ],
      "assetValues": [
        1
      ]
    },
    {
      "reservedAddress": "0x1f70bd248e65b7b71eaa457c1a867cd8b68e43c3",
      "assetIds": [
        "55464657044963196816950587289035428064568320970692304673817341489687505668096"
      ],
      "assetValues": [
        1
      ]
    },
    {
      "reservedAddress": "0x1f7fcbb4a3b14f970948b9159f71c864e4a4d477",
      "assetIds": [
        "55464657044963196816950587289035428064568320970692304673817341489687505668096"
      ],
      "assetValues": [
        1
      ]
    },
    {
      "reservedAddress": "0x1fb90be15a3345554dddbe2bd241bd5b047598d3",
      "assetIds": [
        "55464657044963196816950587289035428064568320970692304673817341489687505668096"
      ],
      "assetValues": [
        1
      ]
    },
    {
      "reservedAddress": "0x1fd46943dc22c04fd38266452d0407a628f0f8a0",
      "assetIds": [
        "55464657044963196816950587289035428064568320970692304673817341489687505668096"
      ],
      "assetValues": [
        1
      ]
    },
    {
      "reservedAddress": "0x1fda7d3f0125fd2707aecd042cbe438dc7b67bbd",
      "assetIds": [
        "55464657044963196816950587289035428064568320970692304673817341489687505668096"
      ],
      "assetValues": [
        1
      ]
    },
    {
      "reservedAddress": "0x1fe9edce930f2921cb2e4615a27d56332df647e9",
      "assetIds": [
        "55464657044963196816950587289035428064568320970692304673817341489687505668096"
      ],
      "assetValues": [
        1
      ]
    },
    {
      "reservedAddress": "0x1fffaf00963b73008ad6e08630796185174a5d0b",
      "assetIds": [
        "55464657044963196816950587289035428064568320970692304673817341489687505668096"
      ],
      "assetValues": [
        1
      ]
    },
    {
      "reservedAddress": "0x202b38c2dd98f9549c5900eeba5c0839d9cd5893",
      "assetIds": [
        "55464657044963196816950587289035428064568320970692304673817341489687505668096"
      ],
      "assetValues": [
        1
      ]
    },
    {
      "reservedAddress": "0x204996003ca9e2b1f37cae2514aa2169687b0dd0",
      "assetIds": [
        "55464657044963196816950587289035428064568320970692304673817341489687505668096"
      ],
      "assetValues": [
        1
      ]
    },
    {
      "reservedAddress": "0x205c1c01f2336f710b97ff6421b2f9b629129f97",
      "assetIds": [
        "55464657044963196816950587289035428064568320970692304673817341489687505668096"
      ],
      "assetValues": [
        1
      ]
    },
    {
      "reservedAddress": "0x206f83ec8a1d66f0903a13e9caf49aa5df85c27b",
      "assetIds": [
        "55464657044963196816950587289035428064568320970692304673817341489687505668096"
      ],
      "assetValues": [
        1
      ]
    },
    {
      "reservedAddress": "0x2075fcc48b6737c14ab7ff9f84599069710d2470",
      "assetIds": [
        "55464657044963196816950587289035428064568320970692304673817341489687505668096"
      ],
      "assetValues": [
        1
      ]
    },
    {
      "reservedAddress": "0x207d6a2cfd7fe8a94177b618c476f98112c5333d",
      "assetIds": [
        "55464657044963196816950587289035428064568320970692304673817341489687505668096"
      ],
      "assetValues": [
        1
      ]
    },
    {
      "reservedAddress": "0x209583c38817f25c0dc5aed972eadf53bc6d69d0",
      "assetIds": [
        "55464657044963196816950587289035428064568320970692304673817341489687505668096"
      ],
      "assetValues": [
        1
      ]
    },
    {
      "reservedAddress": "0x20cc7e80d09a3b85055690eade45a7bb4e080993",
      "assetIds": [
        "55464657044963196816950587289035428064568320970692304673817341489687505668096"
      ],
      "assetValues": [
        1
      ]
    },
    {
      "reservedAddress": "0x20eb16296dddb1bb5144cacecf17bc53dcba35cd",
      "assetIds": [
        "55464657044963196816950587289035428064568320970692304673817341489687505668096"
      ],
      "assetValues": [
        1
      ]
    },
    {
      "reservedAddress": "0x20edc68f4def1c3d5f05e0333be2724d94e7191f",
      "assetIds": [
        "55464657044963196816950587289035428064568320970692304673817341489687505668096"
      ],
      "assetValues": [
        1
      ]
    },
    {
      "reservedAddress": "0x211c6ffb4fb308794ad507ad30a4503c220efc6c",
      "assetIds": [
        "55464657044963196816950587289035428064568320970692304673817341489687505668096"
      ],
      "assetValues": [
        1
      ]
    },
    {
      "reservedAddress": "0x21316e6a4f0af45e5f1503984e83b10c53b177d8",
      "assetIds": [
        "55464657044963196816950587289035428064568320970692304673817341489687505668096"
      ],
      "assetValues": [
        1
      ]
    },
    {
      "reservedAddress": "0x21404146053651905d3585fb0cf5e70614819b2e",
      "assetIds": [
        "55464657044963196816950587289035428064568320970692304673817341489687505668096"
      ],
      "assetValues": [
        1
      ]
    },
    {
      "reservedAddress": "0x215548d386b636b33040984f23a3fdb63b0eb1b1",
      "assetIds": [
        "55464657044963196816950587289035428064568320970692304673817341489687505668096"
      ],
      "assetValues": [
        1
      ]
    },
    {
      "reservedAddress": "0x215d203371be736d629962cbea0acac9c4a30bc5",
      "assetIds": [
        "55464657044963196816950587289035428064568320970692304673817341489687505668096"
      ],
      "assetValues": [
        1
      ]
    },
    {
      "reservedAddress": "0x21609d39c90dcc08ca6dd8b17d654564ba0eebe2",
      "assetIds": [
        "55464657044963196816950587289035428064568320970692304673817341489687505668096"
      ],
      "assetValues": [
        1
      ]
    },
    {
      "reservedAddress": "0x2175b7217d2939b54ad5fc925ebd7112f1ec2a41",
      "assetIds": [
        "55464657044963196816950587289035428064568320970692304673817341489687505668096"
      ],
      "assetValues": [
        1
      ]
    },
    {
      "reservedAddress": "0x21899fab7feeb22f7287f28675741753cc85a1c7",
      "assetIds": [
        "55464657044963196816950587289035428064568320970692304673817341489687505668096"
      ],
      "assetValues": [
        1
      ]
    },
    {
      "reservedAddress": "0x219688c6156edea2e2ca7e2036c1c5b7f6451169",
      "assetIds": [
        "55464657044963196816950587289035428064568320970692304673817341489687505668096"
      ],
      "assetValues": [
        1
      ]
    },
    {
      "reservedAddress": "0x21d15d354de0dc27a0a79ec2871606ea78532052",
      "assetIds": [
        "55464657044963196816950587289035428064568320970692304673817341489687505668096"
      ],
      "assetValues": [
        1
      ]
    },
    {
      "reservedAddress": "0x21e2fb232e9fc401201e34176cb5eea01f28c854",
      "assetIds": [
        "55464657044963196816950587289035428064568320970692304673817341489687505668096"
      ],
      "assetValues": [
        1
      ]
    },
    {
      "reservedAddress": "0x21e306c096027bc2c58d2dbc13d6b3c3f6285146",
      "assetIds": [
        "55464657044963196816950587289035428064568320970692304673817341489687505668096"
      ],
      "assetValues": [
        1
      ]
    },
    {
      "reservedAddress": "0x21eb14be414edc32a819525c231c3ee97dc811f8",
      "assetIds": [
        "55464657044963196816950587289035428064568320970692304673817341489687505668096"
      ],
      "assetValues": [
        1
      ]
    },
    {
      "reservedAddress": "0x21f6794882b0d38c28abc2b675afc0b413776640",
      "assetIds": [
        "55464657044963196816950587289035428064568320970692304673817341489687505668096"
      ],
      "assetValues": [
        1
      ]
    },
    {
      "reservedAddress": "0x21f98079a6d3fed7c9630b55ee884764fb8ac226",
      "assetIds": [
        "55464657044963196816950587289035428064568320970692304673817341489687505668096"
      ],
      "assetValues": [
        1
      ]
    },
    {
      "reservedAddress": "0x220a5edf8654679bd5cddb24501a0e72f9e6d029",
      "assetIds": [
        "55464657044963196816950587289035428064568320970692304673817341489687505668096"
      ],
      "assetValues": [
        1
      ]
    },
    {
      "reservedAddress": "0x22416889defefdc698b1b634cc266e17f39cd71e",
      "assetIds": [
        "55464657044963196816950587289035428064568320970692304673817341489687505668096"
      ],
      "assetValues": [
        1
      ]
    },
    {
      "reservedAddress": "0x22441e8f879ae7a0898873476e7f05003404066b",
      "assetIds": [
        "55464657044963196816950587289035428064568320970692304673817341489687505668096"
      ],
      "assetValues": [
        1
      ]
    },
    {
      "reservedAddress": "0x225f1f1067ac894a2a74e5638a8d8311151dfb9c",
      "assetIds": [
        "55464657044963196816950587289035428064568320970692304673817341489687505668096"
      ],
      "assetValues": [
        1
      ]
    },
    {
      "reservedAddress": "0x22787dc91e5e21e8235a1a6990570cf1a21482ea",
      "assetIds": [
        "55464657044963196816950587289035428064568320970692304673817341489687505668096"
      ],
      "assetValues": [
        1
      ]
    },
    {
      "reservedAddress": "0x22949b1e3ec3ac88fbc57df7b56d47e6bc487097",
      "assetIds": [
        "55464657044963196816950587289035428064568320970692304673817341489687505668096"
      ],
      "assetValues": [
        1
      ]
    },
    {
      "reservedAddress": "0x22dd61d01025f09780772f32942b07da053a4395",
      "assetIds": [
        "55464657044963196816950587289035428064568320970692304673817341489687505668096"
      ],
      "assetValues": [
        1
      ]
    },
    {
      "reservedAddress": "0x22e11e4b7f1c989f6ba459b35d1da2a08d26c9e8",
      "assetIds": [
        "55464657044963196816950587289035428064568320970692304673817341489687505668096"
      ],
      "assetValues": [
        1
      ]
    },
    {
      "reservedAddress": "0x22ff730ca420cca2e72443ffe9ef237d71964f5a",
      "assetIds": [
        "55464657044963196816950587289035428064568320970692304673817341489687505668096"
      ],
      "assetValues": [
        1
      ]
    },
    {
      "reservedAddress": "0x23032a3d92d72a857eb4eb2d9ea417ff103a4008",
      "assetIds": [
        "55464657044963196816950587289035428064568320970692304673817341489687505668096"
      ],
      "assetValues": [
        1
      ]
    },
    {
      "reservedAddress": "0x232df3b45c1187046f63f9fe4da80fe61cc46543",
      "assetIds": [
        "55464657044963196816950587289035428064568320970692304673817341489687505668096"
      ],
      "assetValues": [
        1
      ]
    },
    {
      "reservedAddress": "0x234e22a5027b151db3de3aa8b0979a395fc840ac",
      "assetIds": [
        "55464657044963196816950587289035428064568320970692304673817341489687505668096"
      ],
      "assetValues": [
        1
      ]
    },
    {
      "reservedAddress": "0x236053957214baad68796ef404ab720136cf571c",
      "assetIds": [
        "55464657044963196816950587289035428064568320970692304673817341489687505668096"
      ],
      "assetValues": [
        1
      ]
    },
    {
      "reservedAddress": "0x23b25dccc46cb7799262c8fa47bc8849a61eeab3",
      "assetIds": [
        "55464657044963196816950587289035428064568320970692304673817341489687505668096"
      ],
      "assetValues": [
        1
      ]
    },
    {
      "reservedAddress": "0x23b5eb5524f3cfb56dfe3289cf7dc713d4678a78",
      "assetIds": [
        "55464657044963196816950587289035428064568320970692304673817341489687505668096"
      ],
      "assetValues": [
        1
      ]
    },
    {
      "reservedAddress": "0x23b8f9458a777dc62c0e507011c0cc0a6e44f466",
      "assetIds": [
        "55464657044963196816950587289035428064568320970692304673817341489687505668096"
      ],
      "assetValues": [
        1
      ]
    },
    {
      "reservedAddress": "0x23f046bfaffee6a93f132d8d1f52bae012567432",
      "assetIds": [
        "55464657044963196816950587289035428064568320970692304673817341489687505668096"
      ],
      "assetValues": [
        1
      ]
    },
    {
      "reservedAddress": "0x23f5d1fede58f8ee01291377bad4790ce66eb6e3",
      "assetIds": [
        "55464657044963196816950587289035428064568320970692304673817341489687505668096"
      ],
      "assetValues": [
        1
      ]
    },
    {
      "reservedAddress": "0x23feadffd0f590a903b0aefdfd4e147f38c2f3d8",
      "assetIds": [
        "55464657044963196816950587289035428064568320970692304673817341489687505668096"
      ],
      "assetValues": [
        1
      ]
    },
    {
      "reservedAddress": "0x24037135bdf85a0c66194205315baf089d218413",
      "assetIds": [
        "55464657044963196816950587289035428064568320970692304673817341489687505668096"
      ],
      "assetValues": [
        1
      ]
    },
    {
      "reservedAddress": "0x244266b4fd55f852af587946c16f8d51b1b3b8fd",
      "assetIds": [
        "55464657044963196816950587289035428064568320970692304673817341489687505668096"
      ],
      "assetValues": [
        1
      ]
    },
    {
      "reservedAddress": "0x24539679a156c542abdb11b26b1cd8824d77c251",
      "assetIds": [
        "55464657044963196816950587289035428064568320970692304673817341489687505668096"
      ],
      "assetValues": [
        1
      ]
    },
    {
      "reservedAddress": "0x24597e27a708c8dbf2482ff145dc9196d56230ba",
      "assetIds": [
        "55464657044963196816950587289035428064568320970692304673817341489687505668096"
      ],
      "assetValues": [
        1
      ]
    },
    {
      "reservedAddress": "0x24711504bcd035aee04ad617b68ec9b2d0da3fcb",
      "assetIds": [
        "55464657044963196816950587289035428064568320970692304673817341489687505668096"
      ],
      "assetValues": [
        1
      ]
    },
    {
      "reservedAddress": "0x24769cf27cc33828a25a65b62810677049ebf74c",
      "assetIds": [
        "55464657044963196816950587289035428064568320970692304673817341489687505668096"
      ],
      "assetValues": [
        1
      ]
    },
    {
      "reservedAddress": "0x24a1b98204dc71952965c7fac7c1bfd13d6a3dd4",
      "assetIds": [
        "55464657044963196816950587289035428064568320970692304673817341489687505668096"
      ],
      "assetValues": [
        1
      ]
    },
    {
      "reservedAddress": "0x24a8d8f7659e911a719350c41de6283f57b2d307",
      "assetIds": [
        "55464657044963196816950587289035428064568320970692304673817341489687505668096"
      ],
      "assetValues": [
        1
      ]
    },
    {
      "reservedAddress": "0x24c6ff7b22825ce5dd56550c5a66615d38526c58",
      "assetIds": [
        "55464657044963196816950587289035428064568320970692304673817341489687505668096"
      ],
      "assetValues": [
        1
      ]
    },
    {
      "reservedAddress": "0x24e35432d0067f8ca827c2c83bbe2c9cfd999f71",
      "assetIds": [
        "55464657044963196816950587289035428064568320970692304673817341489687505668096"
      ],
      "assetValues": [
        1
      ]
    },
    {
      "reservedAddress": "0x25014257be6f984cd571d7e67f060520714aa54e",
      "assetIds": [
        "55464657044963196816950587289035428064568320970692304673817341489687505668096"
      ],
      "assetValues": [
        1
      ]
    },
    {
      "reservedAddress": "0x250b763d9e8b63d7c41f9c052d13650daa826917",
      "assetIds": [
        "55464657044963196816950587289035428064568320970692304673817341489687505668096"
      ],
      "assetValues": [
        1
      ]
    },
    {
      "reservedAddress": "0x2527e34495d30108f15e4b8254ee6e6abb32757c",
      "assetIds": [
        "55464657044963196816950587289035428064568320970692304673817341489687505668096"
      ],
      "assetValues": [
        1
      ]
    },
    {
      "reservedAddress": "0x2553ec3e10e01adbce77ae806cf08268632f2ca1",
      "assetIds": [
        "55464657044963196816950587289035428064568320970692304673817341489687505668096"
      ],
      "assetValues": [
        1
      ]
    },
    {
      "reservedAddress": "0x256c1f61c8bdd2866869dc09bc3e2f0cd46d0504",
      "assetIds": [
        "55464657044963196816950587289035428064568320970692304673817341489687505668096"
      ],
      "assetValues": [
        1
      ]
    },
    {
      "reservedAddress": "0x25711c85cf43ae5b6ccd8733e5a17b1d0db0a2a1",
      "assetIds": [
        "55464657044963196816950587289035428064568320970692304673817341489687505668096"
      ],
      "assetValues": [
        1
      ]
    },
    {
      "reservedAddress": "0x25720099cf7e104b8e3b7674b392f4d502da6255",
      "assetIds": [
        "55464657044963196816950587289035428064568320970692304673817341489687505668096"
      ],
      "assetValues": [
        1
      ]
    },
    {
      "reservedAddress": "0x259edf6e4ee7fb85f88b10007e014cb47f43c6d6",
      "assetIds": [
        "55464657044963196816950587289035428064568320970692304673817341489687505668096"
      ],
      "assetValues": [
        1
      ]
    },
    {
      "reservedAddress": "0x25a765834c56e5daa26ac110a671e54740129042",
      "assetIds": [
        "55464657044963196816950587289035428064568320970692304673817341489687505668096"
      ],
      "assetValues": [
        1
      ]
    },
    {
      "reservedAddress": "0x25c088dbcae6833f0a16025dd467ce63d7af512d",
      "assetIds": [
        "55464657044963196816950587289035428064568320970692304673817341489687505668096"
      ],
      "assetValues": [
        1
      ]
    },
    {
      "reservedAddress": "0x25de37c8b4220033c84933720f8dee67df2171f1",
      "assetIds": [
        "55464657044963196816950587289035428064568320970692304673817341489687505668096"
      ],
      "assetValues": [
        1
      ]
    },
    {
      "reservedAddress": "0x25e757720194230a541dda1355c9cbc53802921b",
      "assetIds": [
        "55464657044963196816950587289035428064568320970692304673817341489687505668096"
      ],
      "assetValues": [
        1
      ]
    },
    {
      "reservedAddress": "0x25fec9a78da3be5b19168fcab86743355772149f",
      "assetIds": [
        "55464657044963196816950587289035428064568320970692304673817341489687505668096"
      ],
      "assetValues": [
        1
      ]
    },
    {
      "reservedAddress": "0x2603f02c24fba2bacbde5c62fd2f0b6653a8009d",
      "assetIds": [
        "55464657044963196816950587289035428064568320970692304673817341489687505668096"
      ],
      "assetValues": [
        1
      ]
    },
    {
      "reservedAddress": "0x261377cfb52e6fd3048b0ab991d991ee43ef2d4a",
      "assetIds": [
        "55464657044963196816950587289035428064568320970692304673817341489687505668096"
      ],
      "assetValues": [
        1
      ]
    },
    {
      "reservedAddress": "0x2622e4e31e5984c152d9924160a4581bb2cc58ff",
      "assetIds": [
        "55464657044963196816950587289035428064568320970692304673817341489687505668096"
      ],
      "assetValues": [
        1
      ]
    },
    {
      "reservedAddress": "0x262cc07d1b598b545b1fed75fed95e63e4d1adb9",
      "assetIds": [
        "55464657044963196816950587289035428064568320970692304673817341489687505668096"
      ],
      "assetValues": [
        1
      ]
    },
    {
      "reservedAddress": "0x2638f91804b32190622ef82c6a265d8e9dae57a6",
      "assetIds": [
        "55464657044963196816950587289035428064568320970692304673817341489687505668096"
      ],
      "assetValues": [
        1
      ]
    },
    {
      "reservedAddress": "0x264b9eb45c236031eb220ab85a868097bc521371",
      "assetIds": [
        "55464657044963196816950587289035428064568320970692304673817341489687505668096"
      ],
      "assetValues": [
        1
      ]
    },
    {
      "reservedAddress": "0x268169a19bca3435451207f70be15436ed142f42",
      "assetIds": [
        "55464657044963196816950587289035428064568320970692304673817341489687505668096"
      ],
      "assetValues": [
        1
      ]
    },
    {
      "reservedAddress": "0x26a22514d3ac0b05e2f4f04df96ef302ba434cbe",
      "assetIds": [
        "55464657044963196816950587289035428064568320970692304673817341489687505668096"
      ],
      "assetValues": [
        1
      ]
    },
    {
      "reservedAddress": "0x26b1fb844799fb53b505be2ba7df057c5c899014",
      "assetIds": [
        "55464657044963196816950587289035428064568320970692304673817341489687505668096"
      ],
      "assetValues": [
        1
      ]
    },
    {
      "reservedAddress": "0x26e1763f76ab11ae5e54602303915ca377575cd4",
      "assetIds": [
        "55464657044963196816950587289035428064568320970692304673817341489687505668096"
      ],
      "assetValues": [
        1
      ]
    },
    {
      "reservedAddress": "0x2715b6a6c79c82106ddbaee9d5d82ab992ef41ff",
      "assetIds": [
        "55464657044963196816950587289035428064568320970692304673817341489687505668096"
      ],
      "assetValues": [
        1
      ]
    },
    {
      "reservedAddress": "0x2769be2a50ce4b108ef551fd1480c6bcda48ef96",
      "assetIds": [
        "55464657044963196816950587289035428064568320970692304673817341489687505668096"
      ],
      "assetValues": [
        1
      ]
    },
    {
      "reservedAddress": "0x27ade6b0ed040fb0a849fd1d4e1ed18971fd6b33",
      "assetIds": [
        "55464657044963196816950587289035428064568320970692304673817341489687505668096"
      ],
      "assetValues": [
        1
      ]
    },
    {
      "reservedAddress": "0x27ae1cce36c6c7027620921e58839116f34fa35e",
      "assetIds": [
        "55464657044963196816950587289035428064568320970692304673817341489687505668096"
      ],
      "assetValues": [
        1
      ]
    },
    {
      "reservedAddress": "0x27ccd32ded573767bc365afd929b653858093f8a",
      "assetIds": [
        "55464657044963196816950587289035428064568320970692304673817341489687505668096"
      ],
      "assetValues": [
        1
      ]
    },
    {
      "reservedAddress": "0x27cd61c3e4b7ec8b07eb960ebb8695f12b166c3d",
      "assetIds": [
        "55464657044963196816950587289035428064568320970692304673817341489687505668096"
      ],
      "assetValues": [
        1
      ]
    },
    {
      "reservedAddress": "0x27dcb67fe978cc420f8ac470dc22a0699d90da29",
      "assetIds": [
        "55464657044963196816950587289035428064568320970692304673817341489687505668096"
      ],
      "assetValues": [
        1
      ]
    },
    {
      "reservedAddress": "0x27e14bfcaee57e93125d13b0b4dd003a1c952049",
      "assetIds": [
        "55464657044963196816950587289035428064568320970692304673817341489687505668096"
      ],
      "assetValues": [
        1
      ]
    },
    {
      "reservedAddress": "0x27e46d068141e33ec14d23d0c3728511a261cd0a",
      "assetIds": [
        "55464657044963196816950587289035428064568320970692304673817341489687505668096"
      ],
      "assetValues": [
        1
      ]
    },
    {
      "reservedAddress": "0x27edb2d6c39ce07896db69e7339f6c8d42330117",
      "assetIds": [
        "55464657044963196816950587289035428064568320970692304673817341489687505668096"
      ],
      "assetValues": [
        1
      ]
    },
    {
      "reservedAddress": "0x280861cc74c137edea9dba294474c9ad4e2cbceb",
      "assetIds": [
        "55464657044963196816950587289035428064568320970692304673817341489687505668096"
      ],
      "assetValues": [
        1
      ]
    },
    {
      "reservedAddress": "0x280d31cd9934894ab51eb2bfb5be14da0240fa62",
      "assetIds": [
        "55464657044963196816950587289035428064568320970692304673817341489687505668096"
      ],
      "assetValues": [
        1
      ]
    },
    {
      "reservedAddress": "0x2823e06b94a4d846840473641c886a4f4dfdb1c2",
      "assetIds": [
        "55464657044963196816950587289035428064568320970692304673817341489687505668096"
      ],
      "assetValues": [
        1
      ]
    },
    {
      "reservedAddress": "0x2842c8bdd2ffb99fd1ba35b0554e1df280d74c6f",
      "assetIds": [
        "55464657044963196816950587289035428064568320970692304673817341489687505668096"
      ],
      "assetValues": [
        1
      ]
    },
    {
      "reservedAddress": "0x28686d89e90155d2390d7eb7a9b408f62a195927",
      "assetIds": [
        "55464657044963196816950587289035428064568320970692304673817341489687505668096"
      ],
      "assetValues": [
        1
      ]
    },
    {
      "reservedAddress": "0x28796154a3b187724cdfca37e0cdafe60bd86b78",
      "assetIds": [
        "55464657044963196816950587289035428064568320970692304673817341489687505668096"
      ],
      "assetValues": [
        1
      ]
    },
    {
      "reservedAddress": "0x288def8225b9e150dc8789e5291cfc5c7e35eb35",
      "assetIds": [
        "55464657044963196816950587289035428064568320970692304673817341489687505668096"
      ],
      "assetValues": [
        1
      ]
    },
    {
      "reservedAddress": "0x28a3c9c2e3522d621eb9c67fde8d461288d002cd",
      "assetIds": [
        "55464657044963196816950587289035428064568320970692304673817341489687505668096"
      ],
      "assetValues": [
        1
      ]
    },
    {
      "reservedAddress": "0x28b2d304ef768fe2582ed5c315a31523b7c3233d",
      "assetIds": [
        "55464657044963196816950587289035428064568320970692304673817341489687505668096"
      ],
      "assetValues": [
        1
      ]
    },
    {
      "reservedAddress": "0x28ba793c62f20ab8778743d5b9426b481f8d51bb",
      "assetIds": [
        "55464657044963196816950587289035428064568320970692304673817341489687505668096"
      ],
      "assetValues": [
        1
      ]
    },
    {
      "reservedAddress": "0x28cc9583881b3865a208ed8cea3f71981c5f5b19",
      "assetIds": [
        "55464657044963196816950587289035428064568320970692304673817341489687505668096"
      ],
      "assetValues": [
        1
      ]
    },
    {
      "reservedAddress": "0x28f0425970dda8b3ffc05ef4ddcd1b9dad0328aa",
      "assetIds": [
        "55464657044963196816950587289035428064568320970692304673817341489687505668096"
      ],
      "assetValues": [
        1
      ]
    },
    {
      "reservedAddress": "0x29131b49f09b1db5930185fe3a72442f1152e07c",
      "assetIds": [
        "55464657044963196816950587289035428064568320970692304673817341489687505668096"
      ],
      "assetValues": [
        1
      ]
    },
    {
      "reservedAddress": "0x291b1ebaf6c7b2b6a03581765b75f4bf55178383",
      "assetIds": [
        "55464657044963196816950587289035428064568320970692304673817341489687505668096"
      ],
      "assetValues": [
        1
      ]
    },
    {
      "reservedAddress": "0x2927a4026b2f12759492ca796d9b249f1e98efcb",
      "assetIds": [
        "55464657044963196816950587289035428064568320970692304673817341489687505668096"
      ],
      "assetValues": [
        1
      ]
    },
    {
      "reservedAddress": "0x295ee8adc01b6ab49fbc0b13cf2eb31ea9a22e19",
      "assetIds": [
        "55464657044963196816950587289035428064568320970692304673817341489687505668096"
      ],
      "assetValues": [
        1
      ]
    },
    {
      "reservedAddress": "0x2999377cd7a7b5fc9fd61db33610c891602ce037",
      "assetIds": [
        "55464657044963196816950587289035428064568320970692304673817341489687505668096"
      ],
      "assetValues": [
        1
      ]
    },
    {
      "reservedAddress": "0x29aa47270c625e671734945ab5ab2778a659794d",
      "assetIds": [
        "55464657044963196816950587289035428064568320970692304673817341489687505668096"
      ],
      "assetValues": [
        1
      ]
    },
    {
      "reservedAddress": "0x29abdca3472890a65244fbb38c3d1e7e8c44497a",
      "assetIds": [
        "55464657044963196816950587289035428064568320970692304673817341489687505668096"
      ],
      "assetValues": [
        1
      ]
    },
    {
      "reservedAddress": "0x29b97b9a126b0d78de403a5248681467192c3abf",
      "assetIds": [
        "55464657044963196816950587289035428064568320970692304673817341489687505668096"
      ],
      "assetValues": [
        1
      ]
    },
    {
      "reservedAddress": "0x29f4b975ead3302ef19b58b1b37b46f71b475638",
      "assetIds": [
        "55464657044963196816950587289035428064568320970692304673817341489687505668096"
      ],
      "assetValues": [
        1
      ]
    },
    {
      "reservedAddress": "0x29ff2d0f8e3588cda8c653af848e03e538fad5ca",
      "assetIds": [
        "55464657044963196816950587289035428064568320970692304673817341489687505668096"
      ],
      "assetValues": [
        1
      ]
    },
    {
      "reservedAddress": "0x2a0d3b42942a7a3bd38d4046e7c1eea98f5ac7a1",
      "assetIds": [
        "55464657044963196816950587289035428064568320970692304673817341489687505668096"
      ],
      "assetValues": [
        1
      ]
    },
    {
      "reservedAddress": "0x2a1152be99179ad4964a9f2a8c8d1bb905b79bf4",
      "assetIds": [
        "55464657044963196816950587289035428064568320970692304673817341489687505668096"
      ],
      "assetValues": [
        1
      ]
    },
    {
      "reservedAddress": "0x2a178c71863e0791cb51531790c872b4899f5766",
      "assetIds": [
        "55464657044963196816950587289035428064568320970692304673817341489687505668096"
      ],
      "assetValues": [
        1
      ]
    },
    {
      "reservedAddress": "0x2a345a2f4f9b4573cbb0145141df3cee17616e14",
      "assetIds": [
        "55464657044963196816950587289035428064568320970692304673817341489687505668096"
      ],
      "assetValues": [
        1
      ]
    },
    {
      "reservedAddress": "0x2a3f7e5170ea8ca967f85f091ef84591f639e031",
      "assetIds": [
        "55464657044963196816950587289035428064568320970692304673817341489687505668096"
      ],
      "assetValues": [
        1
      ]
    },
    {
      "reservedAddress": "0x2a44d606d423a6c3a40a840a17201595728008ad",
      "assetIds": [
        "55464657044963196816950587289035428064568320970692304673817341489687505668096"
      ],
      "assetValues": [
        1
      ]
    },
    {
      "reservedAddress": "0x2a4afb828f209670a97d90632b27f115ac4e0abc",
      "assetIds": [
        "55464657044963196816950587289035428064568320970692304673817341489687505668096"
      ],
      "assetValues": [
        1
      ]
    },
    {
      "reservedAddress": "0x2a58c8cc200fc9a7219b6cbe5a7f0bcaccd27306",
      "assetIds": [
        "55464657044963196816950587289035428064568320970692304673817341489687505668096"
      ],
      "assetValues": [
        1
      ]
    },
    {
      "reservedAddress": "0x2a649307f80419ca8767efc28bc404b94cc95b36",
      "assetIds": [
        "55464657044963196816950587289035428064568320970692304673817341489687505668096"
      ],
      "assetValues": [
        1
      ]
    },
    {
      "reservedAddress": "0x2a742a9b6e1d0ef9c28a0b8b202721eda5f75d47",
      "assetIds": [
        "55464657044963196816950587289035428064568320970692304673817341489687505668096"
      ],
      "assetValues": [
        1
      ]
    },
    {
      "reservedAddress": "0x2ac08bcf44dd4a6f7f07ca72152b0ce968667d3b",
      "assetIds": [
        "55464657044963196816950587289035428064568320970692304673817341489687505668096"
      ],
      "assetValues": [
        1
      ]
    },
    {
      "reservedAddress": "0x2ad11021babe82bcafa36890b4cdcd48d1568bc9",
      "assetIds": [
        "55464657044963196816950587289035428064568320970692304673817341489687505668096"
      ],
      "assetValues": [
        1
      ]
    },
    {
      "reservedAddress": "0x2ad6623ca66dc36610270fdd7327d904be6305d7",
      "assetIds": [
        "55464657044963196816950587289035428064568320970692304673817341489687505668096"
      ],
      "assetValues": [
        1
      ]
    },
    {
      "reservedAddress": "0x2b089dc47fc30650607b43f3a596481c22fc10c3",
      "assetIds": [
        "55464657044963196816950587289035428064568320970692304673817341489687505668096"
      ],
      "assetValues": [
        1
      ]
    },
    {
      "reservedAddress": "0x2b2d214bce661b1adad2d43820ab192cb9c4a2dd",
      "assetIds": [
        "55464657044963196816950587289035428064568320970692304673817341489687505668096"
      ],
      "assetValues": [
        1
      ]
    },
    {
      "reservedAddress": "0x2b30e74b85262df3b6e9b7110f2becc18ae9fba7",
      "assetIds": [
        "55464657044963196816950587289035428064568320970692304673817341489687505668096"
      ],
      "assetValues": [
        1
      ]
    },
    {
      "reservedAddress": "0x2b3e639bfb56f7c4d3b511029edbc804de03f35d",
      "assetIds": [
        "55464657044963196816950587289035428064568320970692304673817341489687505668096"
      ],
      "assetValues": [
        1
      ]
    },
    {
      "reservedAddress": "0x2b6336412636616e9158252999432e1d6938f89f",
      "assetIds": [
        "55464657044963196816950587289035428064568320970692304673817341489687505668096"
      ],
      "assetValues": [
        1
      ]
    },
    {
      "reservedAddress": "0x2b6eaa9f7f1b1de6d89762f3431f7859dd1c143a",
      "assetIds": [
        "55464657044963196816950587289035428064568320970692304673817341489687505668096"
      ],
      "assetValues": [
        1
      ]
    },
    {
      "reservedAddress": "0x2b7ae60ae962980bbfbbc3e979cbaaeac7be2b97",
      "assetIds": [
        "55464657044963196816950587289035428064568320970692304673817341489687505668096"
      ],
      "assetValues": [
        1
      ]
    },
    {
      "reservedAddress": "0x2ba9f1968b90fd5cd23a738168f56b74bb06d89a",
      "assetIds": [
        "55464657044963196816950587289035428064568320970692304673817341489687505668096"
      ],
      "assetValues": [
        1
      ]
    },
    {
      "reservedAddress": "0x2baf1556a3924948a10ab51f24d965480f397843",
      "assetIds": [
        "55464657044963196816950587289035428064568320970692304673817341489687505668096"
      ],
      "assetValues": [
        1
      ]
    },
    {
      "reservedAddress": "0x2bb39feda34269d453e422c26cbc4c46283cc5ce",
      "assetIds": [
        "55464657044963196816950587289035428064568320970692304673817341489687505668096"
      ],
      "assetValues": [
        1
      ]
    },
    {
      "reservedAddress": "0x2bb5e9f2abbda3c477f363a433b399e0610d1f4e",
      "assetIds": [
        "55464657044963196816950587289035428064568320970692304673817341489687505668096"
      ],
      "assetValues": [
        1
      ]
    },
    {
      "reservedAddress": "0x2bc588f56778be1d912dce4bf7c43c35a2c9375d",
      "assetIds": [
        "55464657044963196816950587289035428064568320970692304673817341489687505668096"
      ],
      "assetValues": [
        1
      ]
    },
    {
      "reservedAddress": "0x2bd595e7ffc811f0b46d7280f0bebacfe573408b",
      "assetIds": [
        "55464657044963196816950587289035428064568320970692304673817341489687505668096"
      ],
      "assetValues": [
        1
      ]
    },
    {
      "reservedAddress": "0x2bdc9a3f990930cb207742d79ebbec48b714e8ef",
      "assetIds": [
        "55464657044963196816950587289035428064568320970692304673817341489687505668096"
      ],
      "assetValues": [
        1
      ]
    },
    {
      "reservedAddress": "0x2be4aaa52893219ec124c8afc8168b7a6103811a",
      "assetIds": [
        "55464657044963196816950587289035428064568320970692304673817341489687505668096"
      ],
      "assetValues": [
        1
      ]
    },
    {
      "reservedAddress": "0x2beba030cdc9c4a47c5aa657974840428b9fefac",
      "assetIds": [
        "55464657044963196816950587289035428064568320970692304673817341489687505668096"
      ],
      "assetValues": [
        1
      ]
    },
    {
      "reservedAddress": "0x2bf732ff944a56b98ae2bd9fceef5ffa3dea89b4",
      "assetIds": [
        "55464657044963196816950587289035428064568320970692304673817341489687505668096"
      ],
      "assetValues": [
        1
      ]
    },
    {
      "reservedAddress": "0x2c1f5f7363a6b840e2072f4747f9137b42dd90c0",
      "assetIds": [
        "55464657044963196816950587289035428064568320970692304673817341489687505668096"
      ],
      "assetValues": [
        1
      ]
    },
    {
      "reservedAddress": "0x2c22aed67668817886920c758e870b2a8ec0b7cc",
      "assetIds": [
        "55464657044963196816950587289035428064568320970692304673817341489687505668096"
      ],
      "assetValues": [
        1
      ]
    },
    {
      "reservedAddress": "0x2c238ad3411bdcdc0e4175f9320924ebc335e9e0",
      "assetIds": [
        "55464657044963196816950587289035428064568320970692304673817341489687505668096"
      ],
      "assetValues": [
        1
      ]
    },
    {
      "reservedAddress": "0x2c384c9bad9260400d3e2b4c555f2f03d97ad2f0",
      "assetIds": [
        "55464657044963196816950587289035428064568320970692304673817341489687505668096"
      ],
      "assetValues": [
        1
      ]
    },
    {
      "reservedAddress": "0x2c4f6efbd532fe31af2ec4c343cb33ca74eb312c",
      "assetIds": [
        "55464657044963196816950587289035428064568320970692304673817341489687505668096"
      ],
      "assetValues": [
        1
      ]
    },
    {
      "reservedAddress": "0x2c63aa2505fe2e0ddefac0a83d7cdd39c70da66f",
      "assetIds": [
        "55464657044963196816950587289035428064568320970692304673817341489687505668096"
      ],
      "assetValues": [
        1
      ]
    },
    {
      "reservedAddress": "0x2c6a2bd4212cd6de651aa968f2296cb771be7a55",
      "assetIds": [
        "55464657044963196816950587289035428064568320970692304673817341489687505668096"
      ],
      "assetValues": [
        1
      ]
    },
    {
      "reservedAddress": "0x2c6ddcc3c25edb41235cb1afb515390eec05dc82",
      "assetIds": [
        "55464657044963196816950587289035428064568320970692304673817341489687505668096"
      ],
      "assetValues": [
        1
      ]
    },
    {
      "reservedAddress": "0x2c7c92377af58abcf3a1fe76b0837a8016b3033b",
      "assetIds": [
        "55464657044963196816950587289035428064568320970692304673817341489687505668096"
      ],
      "assetValues": [
        1
      ]
    },
    {
      "reservedAddress": "0x2c876ad44115f7cd985d8aefabee0aff2eb62f37",
      "assetIds": [
        "55464657044963196816950587289035428064568320970692304673817341489687505668096"
      ],
      "assetValues": [
        1
      ]
    },
    {
      "reservedAddress": "0x2ca3d722f63e2b7af4640d0059259139cbcce1d9",
      "assetIds": [
        "55464657044963196816950587289035428064568320970692304673817341489687505668096"
      ],
      "assetValues": [
        1
      ]
    },
    {
      "reservedAddress": "0x2cb86d919332d0369c66a2d5982419266f5e490f",
      "assetIds": [
        "55464657044963196816950587289035428064568320970692304673817341489687505668096"
      ],
      "assetValues": [
        1
      ]
    },
    {
      "reservedAddress": "0x2cd1aed560e79d6194d4c3c8bd18345f75a936b4",
      "assetIds": [
        "55464657044963196816950587289035428064568320970692304673817341489687505668096"
      ],
      "assetValues": [
        1
      ]
    },
    {
      "reservedAddress": "0x2ce851cf6eb7390983acb1da0cbb3dc7a3a9a07c",
      "assetIds": [
        "55464657044963196816950587289035428064568320970692304673817341489687505668096"
      ],
      "assetValues": [
        1
      ]
    },
    {
      "reservedAddress": "0x2d074d5eef19299a72c90ba8f8114f0d3123b022",
      "assetIds": [
        "55464657044963196816950587289035428064568320970692304673817341489687505668096"
      ],
      "assetValues": [
        1
      ]
    },
    {
      "reservedAddress": "0x2d2861a73e7e4c2739edfeecbd9673f1863cb22e",
      "assetIds": [
        "55464657044963196816950587289035428064568320970692304673817341489687505668096"
      ],
      "assetValues": [
        1
      ]
    },
    {
      "reservedAddress": "0x2d2e46da90c7918d5c8a92c1e395dd7991b2bf37",
      "assetIds": [
        "55464657044963196816950587289035428064568320970692304673817341489687505668096"
      ],
      "assetValues": [
        1
      ]
    },
    {
      "reservedAddress": "0x2d49715d125c00320e4e05457da707779622ab0f",
      "assetIds": [
        "55464657044963196816950587289035428064568320970692304673817341489687505668096"
      ],
      "assetValues": [
        1
      ]
    },
    {
      "reservedAddress": "0x2d54f67549f3c83ec8fd2ca667e57cd88bd1b7aa",
      "assetIds": [
        "55464657044963196816950587289035428064568320970692304673817341489687505668096"
      ],
      "assetValues": [
        1
      ]
    },
    {
      "reservedAddress": "0x2d5667fba9c4e94616be93101c8c11d129fd1128",
      "assetIds": [
        "55464657044963196816950587289035428064568320970692304673817341489687505668096"
      ],
      "assetValues": [
        1
      ]
    },
    {
      "reservedAddress": "0x2d5f9b252bcdb766b0d9282cd5eeaee6d1f3b0fb",
      "assetIds": [
        "55464657044963196816950587289035428064568320970692304673817341489687505668096"
      ],
      "assetValues": [
        1
      ]
    },
    {
      "reservedAddress": "0x2d788c48c27e135a72c91a52d18f389fd01ca99e",
      "assetIds": [
        "55464657044963196816950587289035428064568320970692304673817341489687505668096"
      ],
      "assetValues": [
        1
      ]
    },
    {
      "reservedAddress": "0x2d7aad44f4b5e3d024e89d7533f2cb1a37b9aaab",
      "assetIds": [
        "55464657044963196816950587289035428064568320970692304673817341489687505668096"
      ],
      "assetValues": [
        1
      ]
    },
    {
      "reservedAddress": "0x2d7e1a4c28664b64545e468cf6e641a7ff8863a2",
      "assetIds": [
        "55464657044963196816950587289035428064568320970692304673817341489687505668096"
      ],
      "assetValues": [
        1
      ]
    },
    {
      "reservedAddress": "0x2d891ed45c4c3eab978513df4b92a35cf131d2e2",
      "assetIds": [
        "55464657044963196816950587289035428064568320970692304673817341489687505668096"
      ],
      "assetValues": [
        1
      ]
    },
    {
      "reservedAddress": "0x2da23e9804cfa6ddeb12c2ad489bdb2c569ac32b",
      "assetIds": [
        "55464657044963196816950587289035428064568320970692304673817341489687505668096"
      ],
      "assetValues": [
        1
      ]
    },
    {
      "reservedAddress": "0x2daeed3d23dc30e5f2e4297844865222b546be14",
      "assetIds": [
        "55464657044963196816950587289035428064568320970692304673817341489687505668096"
      ],
      "assetValues": [
        1
      ]
    },
    {
      "reservedAddress": "0x2dc8b35b8183e78d6c86efb6a047603db6d9aece",
      "assetIds": [
        "55464657044963196816950587289035428064568320970692304673817341489687505668096"
      ],
      "assetValues": [
        1
      ]
    },
    {
      "reservedAddress": "0x2df8063c53ebd6270acde4e996a925c531fcfdfe",
      "assetIds": [
        "55464657044963196816950587289035428064568320970692304673817341489687505668096"
      ],
      "assetValues": [
        1
      ]
    },
    {
      "reservedAddress": "0x2dfc6e92f8f2f507f0254c11b703a5b09c1e2344",
      "assetIds": [
        "55464657044963196816950587289035428064568320970692304673817341489687505668096"
      ],
      "assetValues": [
        1
      ]
    },
    {
      "reservedAddress": "0x2e1f2d8317e396c50b71bad2d7d36af3f8946bc6",
      "assetIds": [
        "55464657044963196816950587289035428064568320970692304673817341489687505668096"
      ],
      "assetValues": [
        1
      ]
    },
    {
      "reservedAddress": "0x2e3771a50977eb784caa4b70cd0f506865c48147",
      "assetIds": [
        "55464657044963196816950587289035428064568320970692304673817341489687505668096"
      ],
      "assetValues": [
        1
      ]
    },
    {
      "reservedAddress": "0x2e6dc78be2e80ad3fc0d09e79c0160fa01b78057",
      "assetIds": [
        "55464657044963196816950587289035428064568320970692304673817341489687505668096"
      ],
      "assetValues": [
        1
      ]
    },
    {
      "reservedAddress": "0x2e77eac3e4e8e398246312ad8691666a48a31928",
      "assetIds": [
        "55464657044963196816950587289035428064568320970692304673817341489687505668096"
      ],
      "assetValues": [
        1
      ]
    },
    {
      "reservedAddress": "0x2e90eab144506e3662f2ee222e1d311516513b80",
      "assetIds": [
        "55464657044963196816950587289035428064568320970692304673817341489687505668096"
      ],
      "assetValues": [
        1
      ]
    },
    {
      "reservedAddress": "0x2ea55c0af9ebbe4543a805b3ce95c9b4be612238",
      "assetIds": [
        "55464657044963196816950587289035428064568320970692304673817341489687505668096"
      ],
      "assetValues": [
        1
      ]
    },
    {
      "reservedAddress": "0x2ed18fd2bd462822d6b615164befaa0432df5dae",
      "assetIds": [
        "55464657044963196816950587289035428064568320970692304673817341489687505668096"
      ],
      "assetValues": [
        1
      ]
    },
    {
      "reservedAddress": "0x2ed71cfc149d09634f06d0786f49b5f35a9d6a76",
      "assetIds": [
        "55464657044963196816950587289035428064568320970692304673817341489687505668096"
      ],
      "assetValues": [
        1
      ]
    },
    {
      "reservedAddress": "0x2edcf97f4406da5bc664b208427b9ae75778f7db",
      "assetIds": [
        "55464657044963196816950587289035428064568320970692304673817341489687505668096"
      ],
      "assetValues": [
        1
      ]
    },
    {
      "reservedAddress": "0x2ee5512487ef3e9ea1f4d3cc23b0337acfd92a2c",
      "assetIds": [
        "55464657044963196816950587289035428064568320970692304673817341489687505668096"
      ],
      "assetValues": [
        1
      ]
    },
    {
      "reservedAddress": "0x2f067301a5a5e4f001dcac40a4d155ac4c60f243",
      "assetIds": [
        "55464657044963196816950587289035428064568320970692304673817341489687505668096"
      ],
      "assetValues": [
        1
      ]
    },
    {
      "reservedAddress": "0x2f09775bb1217a5afc1b40757c854a8f7cb21a97",
      "assetIds": [
        "55464657044963196816950587289035428064568320970692304673817341489687505668096"
      ],
      "assetValues": [
        1
      ]
    },
    {
      "reservedAddress": "0x2f17190962ff50ccc279cfcc1db8e7762c73b8be",
      "assetIds": [
        "55464657044963196816950587289035428064568320970692304673817341489687505668096"
      ],
      "assetValues": [
        1
      ]
    },
    {
      "reservedAddress": "0x2f29dd2166910c60b4899b6cd78191971ac26c7c",
      "assetIds": [
        "55464657044963196816950587289035428064568320970692304673817341489687505668096"
      ],
      "assetValues": [
        1
      ]
    },
    {
      "reservedAddress": "0x2f41dbee86d683b5ae3c57a8be3d94b6550f6dbc",
      "assetIds": [
        "55464657044963196816950587289035428064568320970692304673817341489687505668096"
      ],
      "assetValues": [
        1
      ]
    },
    {
      "reservedAddress": "0x2f434b30e6b2b035e0d15ea1df15a60be21804fa",
      "assetIds": [
        "55464657044963196816950587289035428064568320970692304673817341489687505668096"
      ],
      "assetValues": [
        1
      ]
    },
    {
      "reservedAddress": "0x2f7cd9c9f5d0bbf0f55e299908d98cd016ac3390",
      "assetIds": [
        "55464657044963196816950587289035428064568320970692304673817341489687505668096"
      ],
      "assetValues": [
        1
      ]
    },
    {
      "reservedAddress": "0x2f9eb05f0c01f62e8b5ff5e72ab4f821b0f956ae",
      "assetIds": [
        "55464657044963196816950587289035428064568320970692304673817341489687505668096"
      ],
      "assetValues": [
        1
      ]
    },
    {
      "reservedAddress": "0x2fa9e3da421962ee6f66de60e66cc0cafb37c721",
      "assetIds": [
        "55464657044963196816950587289035428064568320970692304673817341489687505668096"
      ],
      "assetValues": [
        1
      ]
    },
    {
      "reservedAddress": "0x2fbc31aa67646d72cc76481ba3580b3eac793c5e",
      "assetIds": [
        "55464657044963196816950587289035428064568320970692304673817341489687505668096"
      ],
      "assetValues": [
        1
      ]
    },
    {
      "reservedAddress": "0x2fbdf51f981f7de8f6820d8d790d65a1e0645847",
      "assetIds": [
        "55464657044963196816950587289035428064568320970692304673817341489687505668096"
      ],
      "assetValues": [
        1
      ]
    },
    {
      "reservedAddress": "0x2fdd51a36ad4bebc477c2b0ed5b7cb8c26cbd61c",
      "assetIds": [
        "55464657044963196816950587289035428064568320970692304673817341489687505668096"
      ],
      "assetValues": [
        1
      ]
    },
    {
      "reservedAddress": "0x2fe0467dea51fb0dddf82db2f96709dd4d8b2259",
      "assetIds": [
        "55464657044963196816950587289035428064568320970692304673817341489687505668096"
      ],
      "assetValues": [
        1
      ]
    },
    {
      "reservedAddress": "0x2fe50c88f228dacfc24100de0c5167aa7a539dc6",
      "assetIds": [
        "55464657044963196816950587289035428064568320970692304673817341489687505668096"
      ],
      "assetValues": [
        1
      ]
    },
    {
      "reservedAddress": "0x2fec809b6c7f1c20de7746cd3d6180e410b4c6f6",
      "assetIds": [
        "55464657044963196816950587289035428064568320970692304673817341489687505668096"
      ],
      "assetValues": [
        1
      ]
    },
    {
      "reservedAddress": "0x2ff10dcd2771a71bf41c2cff679f9bcd0bb8fdd1",
      "assetIds": [
        "55464657044963196816950587289035428064568320970692304673817341489687505668096"
      ],
      "assetValues": [
        1
      ]
    },
    {
      "reservedAddress": "0x2fff223ef67ab5a7e245cdcac55643f81feeff3c",
      "assetIds": [
        "55464657044963196816950587289035428064568320970692304673817341489687505668096"
      ],
      "assetValues": [
        1
      ]
    },
    {
      "reservedAddress": "0x3019209f6dd39b23b190e25acf562044e380dbee",
      "assetIds": [
        "55464657044963196816950587289035428064568320970692304673817341489687505668096"
      ],
      "assetValues": [
        1
      ]
    },
    {
      "reservedAddress": "0x3020230a7bb5dad32e49d5ddcf1f7bd18955d134",
      "assetIds": [
        "55464657044963196816950587289035428064568320970692304673817341489687505668096"
      ],
      "assetValues": [
        1
      ]
    },
    {
      "reservedAddress": "0x302b9dfc92da56a19477c891a7b95cb7e32a5a69",
      "assetIds": [
        "55464657044963196816950587289035428064568320970692304673817341489687505668096"
      ],
      "assetValues": [
        1
      ]
    },
    {
      "reservedAddress": "0x304f380c57ff3df85578a06e81b89fb210bdce71",
      "assetIds": [
        "55464657044963196816950587289035428064568320970692304673817341489687505668096"
      ],
      "assetValues": [
        1
      ]
    },
    {
      "reservedAddress": "0x3056bdc47ad6edb397b0cb0ee4bd5da4de27ce61",
      "assetIds": [
        "55464657044963196816950587289035428064568320970692304673817341489687505668096"
      ],
      "assetValues": [
        1
      ]
    },
    {
      "reservedAddress": "0x3065c9ef99a80cefeee91e8be9fc7ddf91983cad",
      "assetIds": [
        "55464657044963196816950587289035428064568320970692304673817341489687505668096"
      ],
      "assetValues": [
        1
      ]
    },
    {
      "reservedAddress": "0x307814d99156d0216e0066cda3132b6f17adf0f7",
      "assetIds": [
        "55464657044963196816950587289035428064568320970692304673817341489687505668096"
      ],
      "assetValues": [
        1
      ]
    },
    {
      "reservedAddress": "0x3098970aee25a10abbb7f6fef15ca48fbe4a1f53",
      "assetIds": [
        "55464657044963196816950587289035428064568320970692304673817341489687505668096"
      ],
      "assetValues": [
        1
      ]
    },
    {
      "reservedAddress": "0x309934b6b1ef896d04f3536d50db456cd22d3b58",
      "assetIds": [
        "55464657044963196816950587289035428064568320970692304673817341489687505668096"
      ],
      "assetValues": [
        1
      ]
    },
    {
      "reservedAddress": "0x30c0de2e748a4ed2c92a662366f5c4175e3c9365",
      "assetIds": [
        "55464657044963196816950587289035428064568320970692304673817341489687505668096"
      ],
      "assetValues": [
        1
      ]
    },
    {
      "reservedAddress": "0x30d4ec0686359f94edecec63a10cb995e0088e22",
      "assetIds": [
        "55464657044963196816950587289035428064568320970692304673817341489687505668096"
      ],
      "assetValues": [
        1
      ]
    },
    {
      "reservedAddress": "0x30d9898afb994e489ad138e0e85d1a90c14d53a5",
      "assetIds": [
        "55464657044963196816950587289035428064568320970692304673817341489687505668096"
      ],
      "assetValues": [
        1
      ]
    },
    {
      "reservedAddress": "0x31053a91c2c4b74585c6dccbb6ddb51eda7d5ee0",
      "assetIds": [
        "55464657044963196816950587289035428064568320970692304673817341489687505668096"
      ],
      "assetValues": [
        1
      ]
    },
    {
      "reservedAddress": "0x3107789cbf36931331f1b745d8f8ccf7d3395444",
      "assetIds": [
        "55464657044963196816950587289035428064568320970692304673817341489687505668096"
      ],
      "assetValues": [
        1
      ]
    },
    {
      "reservedAddress": "0x310e1350f9b3aba82690fc9f1e4d8bcc8681b9a0",
      "assetIds": [
        "55464657044963196816950587289035428064568320970692304673817341489687505668096"
      ],
      "assetValues": [
        1
      ]
    },
    {
      "reservedAddress": "0x31618735b4ef5e251ea9a1b4f80388cf784080fa",
      "assetIds": [
        "55464657044963196816950587289035428064568320970692304673817341489687505668096"
      ],
      "assetValues": [
        1
      ]
    },
    {
      "reservedAddress": "0x3161b40300d70a986e15e153b19949b5167320f0",
      "assetIds": [
        "55464657044963196816950587289035428064568320970692304673817341489687505668096"
      ],
      "assetValues": [
        1
      ]
    },
    {
      "reservedAddress": "0x316e1af1f7501ff38f7468e74b08fb6dd3733c39",
      "assetIds": [
        "55464657044963196816950587289035428064568320970692304673817341489687505668096"
      ],
      "assetValues": [
        1
      ]
    },
    {
      "reservedAddress": "0x31768cb4f3efe514d94b68ae26cc22c27d2a1e58",
      "assetIds": [
        "55464657044963196816950587289035428064568320970692304673817341489687505668096"
      ],
      "assetValues": [
        1
      ]
    },
    {
      "reservedAddress": "0x318e8f41eeebf3812e0e91178d503d5c8456b822",
      "assetIds": [
        "55464657044963196816950587289035428064568320970692304673817341489687505668096"
      ],
      "assetValues": [
        1
      ]
    },
    {
      "reservedAddress": "0x319cefeb796f6ea9c99c04f22617b8168f1f7fd6",
      "assetIds": [
        "55464657044963196816950587289035428064568320970692304673817341489687505668096"
      ],
      "assetValues": [
        1
      ]
    },
    {
      "reservedAddress": "0x31be670ecd6600259d89d7633b0057f24d212fdf",
      "assetIds": [
        "55464657044963196816950587289035428064568320970692304673817341489687505668096"
      ],
      "assetValues": [
        1
      ]
    },
    {
      "reservedAddress": "0x31d32d1fb477c4f872e7e2928b966c01ef471b16",
      "assetIds": [
        "55464657044963196816950587289035428064568320970692304673817341489687505668096"
      ],
      "assetValues": [
        1
      ]
    },
    {
      "reservedAddress": "0x31e99699bccde902afc7c4b6b23bb322b8459d22",
      "assetIds": [
        "55464657044963196816950587289035428064568320970692304673817341489687505668096"
      ],
      "assetValues": [
        1
      ]
    },
    {
      "reservedAddress": "0x31efdec50e27afec237e24ff8fb6c37cfcd6c3c9",
      "assetIds": [
        "55464657044963196816950587289035428064568320970692304673817341489687505668096"
      ],
      "assetValues": [
        1
      ]
    },
    {
      "reservedAddress": "0x31f2010ce08d469985950be985a12af44b99edf8",
      "assetIds": [
        "55464657044963196816950587289035428064568320970692304673817341489687505668096"
      ],
      "assetValues": [
        1
      ]
    },
    {
      "reservedAddress": "0x31f26e61c1d92eed4031237650746241053d6c07",
      "assetIds": [
        "55464657044963196816950587289035428064568320970692304673817341489687505668096"
      ],
      "assetValues": [
        1
      ]
    },
    {
      "reservedAddress": "0x31fca1d8410a2496e671d23618d6fe7df571e54b",
      "assetIds": [
        "55464657044963196816950587289035428064568320970692304673817341489687505668096"
      ],
      "assetValues": [
        1
      ]
    },
    {
      "reservedAddress": "0x31fe8439f34ed04514288a6f0f19f26c647cd6ad",
      "assetIds": [
        "55464657044963196816950587289035428064568320970692304673817341489687505668096"
      ],
      "assetValues": [
        1
      ]
    },
    {
      "reservedAddress": "0x320b59e78ac335375d2ceb005d0e5aa22809954d",
      "assetIds": [
        "55464657044963196816950587289035428064568320970692304673817341489687505668096"
      ],
      "assetValues": [
        1
      ]
    },
    {
      "reservedAddress": "0x32373645359c9ccf1bd2d63afd153ff65d41a404",
      "assetIds": [
        "55464657044963196816950587289035428064568320970692304673817341489687505668096"
      ],
      "assetValues": [
        1
      ]
    },
    {
      "reservedAddress": "0x32476158d4171b3c963e2b01af28754b5ab9d188",
      "assetIds": [
        "55464657044963196816950587289035428064568320970692304673817341489687505668096"
      ],
      "assetValues": [
        1
      ]
    },
    {
      "reservedAddress": "0x3265d2198194c2c8dab026a1f72fb1b4512f4c37",
      "assetIds": [
        "55464657044963196816950587289035428064568320970692304673817341489687505668096"
      ],
      "assetValues": [
        1
      ]
    },
    {
      "reservedAddress": "0x32769651c655db12154b17910dd477592c54576d",
      "assetIds": [
        "55464657044963196816950587289035428064568320970692304673817341489687505668096"
      ],
      "assetValues": [
        1
      ]
    },
    {
      "reservedAddress": "0x328c79e136443a36743069f020a3ed3ac780d3f6",
      "assetIds": [
        "55464657044963196816950587289035428064568320970692304673817341489687505668096"
      ],
      "assetValues": [
        1
      ]
    },
    {
      "reservedAddress": "0x329357613eba20a8041d38437d7fb6848bbf2129",
      "assetIds": [
        "55464657044963196816950587289035428064568320970692304673817341489687505668096"
      ],
      "assetValues": [
        1
      ]
    },
    {
      "reservedAddress": "0x3293eacbfb52ffe426997ad25840f4e3894055ef",
      "assetIds": [
        "55464657044963196816950587289035428064568320970692304673817341489687505668096"
      ],
      "assetValues": [
        1
      ]
    },
    {
      "reservedAddress": "0x32a75c51ea891707c2ad76a5780b37f5bfd725ac",
      "assetIds": [
        "55464657044963196816950587289035428064568320970692304673817341489687505668096"
      ],
      "assetValues": [
        1
      ]
    },
    {
      "reservedAddress": "0x32ab4262df2c10ccc199f5f8e7332ed507ef3ea5",
      "assetIds": [
        "55464657044963196816950587289035428064568320970692304673817341489687505668096"
      ],
      "assetValues": [
        1
      ]
    },
    {
      "reservedAddress": "0x32bac5f895a13b1b03ad67625fa71aa345a3b462",
      "assetIds": [
        "55464657044963196816950587289035428064568320970692304673817341489687505668096"
      ],
      "assetValues": [
        1
      ]
    },
    {
      "reservedAddress": "0x32c2e520b901ec8f6d22d5a1eebec6c3747f2ecd",
      "assetIds": [
        "55464657044963196816950587289035428064568320970692304673817341489687505668096"
      ],
      "assetValues": [
        1
      ]
    },
    {
      "reservedAddress": "0x32cbcd20407ba8b729a30e40f8b477e62e7cdfaf",
      "assetIds": [
        "55464657044963196816950587289035428064568320970692304673817341489687505668096"
      ],
      "assetValues": [
        1
      ]
    },
    {
      "reservedAddress": "0x33574cbba05136424eea26071c867c42bca17016",
      "assetIds": [
        "55464657044963196816950587289035428064568320970692304673817341489687505668096"
      ],
      "assetValues": [
        1
      ]
    },
    {
      "reservedAddress": "0x336e86c566e3811b4031b17f477dfa2872adb544",
      "assetIds": [
        "55464657044963196816950587289035428064568320970692304673817341489687505668096"
      ],
      "assetValues": [
        1
      ]
    },
    {
      "reservedAddress": "0x33779967bb22990354f4d23a7be44080c9421d09",
      "assetIds": [
        "55464657044963196816950587289035428064568320970692304673817341489687505668096"
      ],
      "assetValues": [
        1
      ]
    },
    {
      "reservedAddress": "0x33845def8487e1965221d2b07ea6ff391fe86c99",
      "assetIds": [
        "55464657044963196816950587289035428064568320970692304673817341489687505668096"
      ],
      "assetValues": [
        1
      ]
    },
    {
      "reservedAddress": "0x338759f06c2d40d78959247d61dcfec8a08c34af",
      "assetIds": [
        "55464657044963196816950587289035428064568320970692304673817341489687505668096"
      ],
      "assetValues": [
        1
      ]
    },
    {
      "reservedAddress": "0x33a003fcf9a84d32b40b7946d313c54451ce28b4",
      "assetIds": [
        "55464657044963196816950587289035428064568320970692304673817341489687505668096"
      ],
      "assetValues": [
        1
      ]
    },
    {
      "reservedAddress": "0x33a12750de4af9a3e9cd814cfd38b658f05fc5dd",
      "assetIds": [
        "55464657044963196816950587289035428064568320970692304673817341489687505668096"
      ],
      "assetValues": [
        1
      ]
    },
    {
      "reservedAddress": "0x33ac220f92733c129722b46726b01a927f6c092c",
      "assetIds": [
        "55464657044963196816950587289035428064568320970692304673817341489687505668096"
      ],
      "assetValues": [
        1
      ]
    },
    {
      "reservedAddress": "0x33b115e9fb3d34177dd8f0d9f5beeef5e1dbe880",
      "assetIds": [
        "55464657044963196816950587289035428064568320970692304673817341489687505668096"
      ],
      "assetValues": [
        1
      ]
    },
    {
      "reservedAddress": "0x33b8a2c96f8b74de18492966313b3583c1a2f191",
      "assetIds": [
        "55464657044963196816950587289035428064568320970692304673817341489687505668096"
      ],
      "assetValues": [
        1
      ]
    },
    {
      "reservedAddress": "0x33ba18d5b6a353aec2788a8c68810d87c1653ef9",
      "assetIds": [
        "55464657044963196816950587289035428064568320970692304673817341489687505668096"
      ],
      "assetValues": [
        1
      ]
    },
    {
      "reservedAddress": "0x33dd6632ed8a08ae8c6b931edfcba8866478cc37",
      "assetIds": [
        "55464657044963196816950587289035428064568320970692304673817341489687505668096"
      ],
      "assetValues": [
        1
      ]
    },
    {
      "reservedAddress": "0x33fc2c5f5e49fb72f9e3df6ae1109f71098903f9",
      "assetIds": [
        "55464657044963196816950587289035428064568320970692304673817341489687505668096"
      ],
      "assetValues": [
        1
      ]
    },
    {
      "reservedAddress": "0x3401ea5a8d91c5e3944962c0148b08ac4a77f153",
      "assetIds": [
        "55464657044963196816950587289035428064568320970692304673817341489687505668096"
      ],
      "assetValues": [
        1
      ]
    },
    {
      "reservedAddress": "0x34485720474b33c2c06a4b21b85cbb3a379b5ddd",
      "assetIds": [
        "55464657044963196816950587289035428064568320970692304673817341489687505668096"
      ],
      "assetValues": [
        1
      ]
    },
    {
      "reservedAddress": "0x34496ccb7a3ef5d730665c7d4ce6694acbab7415",
      "assetIds": [
        "55464657044963196816950587289035428064568320970692304673817341489687505668096"
      ],
      "assetValues": [
        1
      ]
    },
    {
      "reservedAddress": "0x3457c683f93b95942a5f97475f74122f5c95ed6f",
      "assetIds": [
        "55464657044963196816950587289035428064568320970692304673817341489687505668096"
      ],
      "assetValues": [
        1
      ]
    },
    {
      "reservedAddress": "0x3467b5ba717f9c77048c1b8e4f9a5843519201ee",
      "assetIds": [
        "55464657044963196816950587289035428064568320970692304673817341489687505668096"
      ],
      "assetValues": [
        1
      ]
    },
    {
      "reservedAddress": "0x346b8d7e9475b40bdab095b7f3b068b47269a787",
      "assetIds": [
        "55464657044963196816950587289035428064568320970692304673817341489687505668096"
      ],
      "assetValues": [
        1
      ]
    },
    {
      "reservedAddress": "0x3478e1823d9c224e641125cef5846ebd294ae53d",
      "assetIds": [
        "55464657044963196816950587289035428064568320970692304673817341489687505668096"
      ],
      "assetValues": [
        1
      ]
    },
    {
      "reservedAddress": "0x34981c3167d83652428294b3a44134e261a03f8f",
      "assetIds": [
        "55464657044963196816950587289035428064568320970692304673817341489687505668096"
      ],
      "assetValues": [
        1
      ]
    },
    {
      "reservedAddress": "0x34aa3f359a9d614239015126635ce7732c18fdf3",
      "assetIds": [
        "55464657044963196816950587289035428064568320970692304673817341489687505668096"
      ],
      "assetValues": [
        1
      ]
    },
    {
      "reservedAddress": "0x34bdf17e0c029fb7e3b3a886e1e983a1c4751af1",
      "assetIds": [
        "55464657044963196816950587289035428064568320970692304673817341489687505668096"
      ],
      "assetValues": [
        1
      ]
    },
    {
      "reservedAddress": "0x34c3b1c7b44a2c824f6fa759bc9d61c6f88fd12c",
      "assetIds": [
        "55464657044963196816950587289035428064568320970692304673817341489687505668096"
      ],
      "assetValues": [
        1
      ]
    },
    {
      "reservedAddress": "0x34c788a526274b26cb84b620b59f82bf4d4bece7",
      "assetIds": [
        "55464657044963196816950587289035428064568320970692304673817341489687505668096"
      ],
      "assetValues": [
        1
      ]
    },
    {
      "reservedAddress": "0x34ce8e4b34f2ac3ae80f11864f8a43d008ff67b9",
      "assetIds": [
        "55464657044963196816950587289035428064568320970692304673817341489687505668096"
      ],
      "assetValues": [
        1
      ]
    },
    {
      "reservedAddress": "0x34f9ab54bbe0373032e4279caa459a42e0d29b37",
      "assetIds": [
        "55464657044963196816950587289035428064568320970692304673817341489687505668096"
      ],
      "assetValues": [
        1
      ]
    },
    {
      "reservedAddress": "0x35008b61ebfaa083c5d4b33ed500d1ca18ddf5f4",
      "assetIds": [
        "55464657044963196816950587289035428064568320970692304673817341489687505668096"
      ],
      "assetValues": [
        1
      ]
    },
    {
      "reservedAddress": "0x3505bb6fe4e88b37edf8074ecd3ee0ca9f0af316",
      "assetIds": [
        "55464657044963196816950587289035428064568320970692304673817341489687505668096"
      ],
      "assetValues": [
        1
      ]
    },
    {
      "reservedAddress": "0x35312e344d8e8689097c5c515b7a6ac830c1cf30",
      "assetIds": [
        "55464657044963196816950587289035428064568320970692304673817341489687505668096"
      ],
      "assetValues": [
        1
      ]
    },
    {
      "reservedAddress": "0x353807396aa42b7fea5a98d1da7cebcdd6e0406a",
      "assetIds": [
        "55464657044963196816950587289035428064568320970692304673817341489687505668096"
      ],
      "assetValues": [
        1
      ]
    },
    {
      "reservedAddress": "0x3551ee0967aa5dad566614ca99e9509cbfb19f2e",
      "assetIds": [
        "55464657044963196816950587289035428064568320970692304673817341489687505668096"
      ],
      "assetValues": [
        1
      ]
    },
    {
      "reservedAddress": "0x3585357fbd020cd614d7289fea4dd7618fa59047",
      "assetIds": [
        "55464657044963196816950587289035428064568320970692304673817341489687505668096"
      ],
      "assetValues": [
        1
      ]
    },
    {
      "reservedAddress": "0x35937462a74d3c64b173a755a40c916e912a8eb5",
      "assetIds": [
        "55464657044963196816950587289035428064568320970692304673817341489687505668096"
      ],
      "assetValues": [
        1
      ]
    },
    {
      "reservedAddress": "0x35938ad426e27f82f77a07956e4277a48609d461",
      "assetIds": [
        "55464657044963196816950587289035428064568320970692304673817341489687505668096"
      ],
      "assetValues": [
        1
      ]
    },
    {
      "reservedAddress": "0x35db91d3e8eb1ddd9c18139213a3c1a9b4b44851",
      "assetIds": [
        "55464657044963196816950587289035428064568320970692304673817341489687505668096"
      ],
      "assetValues": [
        1
      ]
    },
    {
      "reservedAddress": "0x35e642029b911a63c3bebca05fa5e1a1460e57f0",
      "assetIds": [
        "55464657044963196816950587289035428064568320970692304673817341489687505668096"
      ],
      "assetValues": [
        1
      ]
    },
    {
      "reservedAddress": "0x35f34185f753d5fef739d46dba7a26b2bd88c83d",
      "assetIds": [
        "55464657044963196816950587289035428064568320970692304673817341489687505668096"
      ],
      "assetValues": [
        1
      ]
    },
    {
      "reservedAddress": "0x35f5a3f01bb9cac58796b2c44b310fcf97a21e69",
      "assetIds": [
        "55464657044963196816950587289035428064568320970692304673817341489687505668096"
      ],
      "assetValues": [
        1
      ]
    },
    {
      "reservedAddress": "0x361f145ca9c1bc568ff8f39626042032138a8d06",
      "assetIds": [
        "55464657044963196816950587289035428064568320970692304673817341489687505668096"
      ],
      "assetValues": [
        1
      ]
    },
    {
      "reservedAddress": "0x36394987361eaf5369817b037541a021d3f4024e",
      "assetIds": [
        "55464657044963196816950587289035428064568320970692304673817341489687505668096"
      ],
      "assetValues": [
        1
      ]
    },
    {
      "reservedAddress": "0x366401d0c187eb5194488cbcf4ff7ebe6b8b221f",
      "assetIds": [
        "55464657044963196816950587289035428064568320970692304673817341489687505668096"
      ],
      "assetValues": [
        1
      ]
    },
    {
      "reservedAddress": "0x3664787775dcc190cf621d242f9c896e2f5bd9ab",
      "assetIds": [
        "55464657044963196816950587289035428064568320970692304673817341489687505668096"
      ],
      "assetValues": [
        1
      ]
    },
    {
      "reservedAddress": "0x3665e13ec88d60a490eb8b34acab4a52d46ec8c2",
      "assetIds": [
        "55464657044963196816950587289035428064568320970692304673817341489687505668096"
      ],
      "assetValues": [
        1
      ]
    },
    {
      "reservedAddress": "0x36803eaf64020a01d50d60d3b5eb823e355a40b2",
      "assetIds": [
        "55464657044963196816950587289035428064568320970692304673817341489687505668096"
      ],
      "assetValues": [
        1
      ]
    },
    {
      "reservedAddress": "0x3686102bcdf15bdec565be853b14953fb67b8f0c",
      "assetIds": [
        "55464657044963196816950587289035428064568320970692304673817341489687505668096"
      ],
      "assetValues": [
        1
      ]
    },
    {
      "reservedAddress": "0x3688fe07f868d07fcf7cb17f0a63f803cf44021c",
      "assetIds": [
        "55464657044963196816950587289035428064568320970692304673817341489687505668096"
      ],
      "assetValues": [
        1
      ]
    },
    {
      "reservedAddress": "0x368e15c9eba4f0e4b60869eb7e7ad43d4457875c",
      "assetIds": [
        "55464657044963196816950587289035428064568320970692304673817341489687505668096"
      ],
      "assetValues": [
        1
      ]
    },
    {
      "reservedAddress": "0x36a40e3319979587cd421a97d28ac1fb63ee22ae",
      "assetIds": [
        "55464657044963196816950587289035428064568320970692304673817341489687505668096"
      ],
      "assetValues": [
        1
      ]
    },
    {
      "reservedAddress": "0x36c4c53bb6b0b8c59e98b35a1eabb5d43b5bc27f",
      "assetIds": [
        "55464657044963196816950587289035428064568320970692304673817341489687505668096"
      ],
      "assetValues": [
        1
      ]
    },
    {
      "reservedAddress": "0x370143ae18cd5f3d50a3d5ef6224b6ff0fca996a",
      "assetIds": [
        "55464657044963196816950587289035428064568320970692304673817341489687505668096"
      ],
      "assetValues": [
        1
      ]
    },
    {
      "reservedAddress": "0x37432f74b1091e67ce9736026fc820a03cd69ba0",
      "assetIds": [
        "55464657044963196816950587289035428064568320970692304673817341489687505668096"
      ],
      "assetValues": [
        1
      ]
    },
    {
      "reservedAddress": "0x37544125e125a13179092ebe113bffe01396bccb",
      "assetIds": [
        "55464657044963196816950587289035428064568320970692304673817341489687505668096"
      ],
      "assetValues": [
        1
      ]
    },
    {
      "reservedAddress": "0x375f9c4628721f14461b56fd3e0e814d8737ff8f",
      "assetIds": [
        "55464657044963196816950587289035428064568320970692304673817341489687505668096"
      ],
      "assetValues": [
        1
      ]
    },
    {
      "reservedAddress": "0x378d6972a69247a5bf6613864599a8447ef38de4",
      "assetIds": [
        "55464657044963196816950587289035428064568320970692304673817341489687505668096"
      ],
      "assetValues": [
        1
      ]
    },
    {
      "reservedAddress": "0x37a617c29343f7f1398370c03f3a28bd7027af6e",
      "assetIds": [
        "55464657044963196816950587289035428064568320970692304673817341489687505668096"
      ],
      "assetValues": [
        1
      ]
    },
    {
      "reservedAddress": "0x37d6c1670f4fffe588433d7976eee1e2b0a9ba39",
      "assetIds": [
        "55464657044963196816950587289035428064568320970692304673817341489687505668096"
      ],
      "assetValues": [
        1
      ]
    },
    {
      "reservedAddress": "0x382c29bb63af1e6bd3fc818fea85bd25afb0e92e",
      "assetIds": [
        "55464657044963196816950587289035428064568320970692304673817341489687505668096"
      ],
      "assetValues": [
        1
      ]
    },
    {
      "reservedAddress": "0x3862e0b067450fa1182c3f96b469a3e04651fc26",
      "assetIds": [
        "55464657044963196816950587289035428064568320970692304673817341489687505668096"
      ],
      "assetValues": [
        1
      ]
    },
    {
      "reservedAddress": "0x3863c8199b660f6bb1e0b9b40c58edce5999b17f",
      "assetIds": [
        "55464657044963196816950587289035428064568320970692304673817341489687505668096"
      ],
      "assetValues": [
        1
      ]
    },
    {
      "reservedAddress": "0x3873ae2cdcd5f92d6a7b28fd67c5aeb6b5cde5ec",
      "assetIds": [
        "55464657044963196816950587289035428064568320970692304673817341489687505668096"
      ],
      "assetValues": [
        1
      ]
    },
    {
      "reservedAddress": "0x387a02a89dfb696d2a1827996ae69c66a8bdca5a",
      "assetIds": [
        "55464657044963196816950587289035428064568320970692304673817341489687505668096"
      ],
      "assetValues": [
        1
      ]
    },
    {
      "reservedAddress": "0x389fd4fb4d97c28a8b9d8b31b63d2e0c5f050fb3",
      "assetIds": [
        "55464657044963196816950587289035428064568320970692304673817341489687505668096"
      ],
      "assetValues": [
        1
      ]
    },
    {
      "reservedAddress": "0x38a5ab0421b1df2e9c3b5dd6aa47fd0ac620c142",
      "assetIds": [
        "55464657044963196816950587289035428064568320970692304673817341489687505668096"
      ],
      "assetValues": [
        1
      ]
    },
    {
      "reservedAddress": "0x38c64afffd6d126e94ec141933e25f7f197e332c",
      "assetIds": [
        "55464657044963196816950587289035428064568320970692304673817341489687505668096"
      ],
      "assetValues": [
        1
      ]
    },
    {
      "reservedAddress": "0x38cf48f297c9e246e4397f59f2aa187b0739353d",
      "assetIds": [
        "55464657044963196816950587289035428064568320970692304673817341489687505668096"
      ],
      "assetValues": [
        1
      ]
    },
    {
      "reservedAddress": "0x38d706af118c2a14d71c0520a40ce403b3cb5cc0",
      "assetIds": [
        "55464657044963196816950587289035428064568320970692304673817341489687505668096"
      ],
      "assetValues": [
        1
      ]
    },
    {
      "reservedAddress": "0x38dfe6658b46e1b8394434944a5ca93abbb1b498",
      "assetIds": [
        "55464657044963196816950587289035428064568320970692304673817341489687505668096"
      ],
      "assetValues": [
        1
      ]
    },
    {
      "reservedAddress": "0x38e481367e0c50f4166ad2a1c9fde0e3c662cfba",
      "assetIds": [
        "55464657044963196816950587289035428064568320970692304673817341489687505668096"
      ],
      "assetValues": [
        1
      ]
    },
    {
      "reservedAddress": "0x38f1dfdcaf2f0d70c29d4af6a4aa9e920efe8b18",
      "assetIds": [
        "55464657044963196816950587289035428064568320970692304673817341489687505668096"
      ],
      "assetValues": [
        1
      ]
    },
    {
      "reservedAddress": "0x3925339d77835751c385753a7f10cf9d2be014dd",
      "assetIds": [
        "55464657044963196816950587289035428064568320970692304673817341489687505668096"
      ],
      "assetValues": [
        1
      ]
    },
    {
      "reservedAddress": "0x392a2f4a845b0dc9c22577267043d7a77a8bf8a3",
      "assetIds": [
        "55464657044963196816950587289035428064568320970692304673817341489687505668096"
      ],
      "assetValues": [
        1
      ]
    },
    {
      "reservedAddress": "0x3937bb9c840f68778026015d7923a5dcee3845a2",
      "assetIds": [
        "55464657044963196816950587289035428064568320970692304673817341489687505668096"
      ],
      "assetValues": [
        1
      ]
    },
    {
      "reservedAddress": "0x393f6e021366962b49a770dc04bd4c25e48b92a4",
      "assetIds": [
        "55464657044963196816950587289035428064568320970692304673817341489687505668096"
      ],
      "assetValues": [
        1
      ]
    },
    {
      "reservedAddress": "0x395977a6899d4a8b77dcca486f95c28307a2ba9e",
      "assetIds": [
        "55464657044963196816950587289035428064568320970692304673817341489687505668096"
      ],
      "assetValues": [
        1
      ]
    },
    {
      "reservedAddress": "0x39a56df1fee3c27d29b89fac4d664d69ddd614b3",
      "assetIds": [
        "55464657044963196816950587289035428064568320970692304673817341489687505668096"
      ],
      "assetValues": [
        1
      ]
    },
    {
      "reservedAddress": "0x39b067f381e8051264ede438f0b8a01860720da5",
      "assetIds": [
        "55464657044963196816950587289035428064568320970692304673817341489687505668096"
      ],
      "assetValues": [
        1
      ]
    },
    {
      "reservedAddress": "0x39b618456e7e02d0aa0392f684f502eff1c5ac03",
      "assetIds": [
        "55464657044963196816950587289035428064568320970692304673817341489687505668096"
      ],
      "assetValues": [
        1
      ]
    },
    {
      "reservedAddress": "0x39f7f2d9cec9198252251c0231de457167fb0016",
      "assetIds": [
        "55464657044963196816950587289035428064568320970692304673817341489687505668096"
      ],
      "assetValues": [
        1
      ]
    },
    {
      "reservedAddress": "0x3a31455a51fd865c92a8f9563b1a5e0b3a7269ba",
      "assetIds": [
        "55464657044963196816950587289035428064568320970692304673817341489687505668096"
      ],
      "assetValues": [
        1
      ]
    },
    {
      "reservedAddress": "0x3a3355805181ba5752cb52cebe8c95c0f3ed3d61",
      "assetIds": [
        "55464657044963196816950587289035428064568320970692304673817341489687505668096"
      ],
      "assetValues": [
        1
      ]
    },
    {
      "reservedAddress": "0x3a395667771f29e920e42278d0f0ac6a1acbf588",
      "assetIds": [
        "55464657044963196816950587289035428064568320970692304673817341489687505668096"
      ],
      "assetValues": [
        1
      ]
    },
    {
      "reservedAddress": "0x3a4a07187629791f3de76f69a294593c2ccfe3d6",
      "assetIds": [
        "55464657044963196816950587289035428064568320970692304673817341489687505668096"
      ],
      "assetValues": [
        1
      ]
    },
    {
      "reservedAddress": "0x3a4e90e87c6770501057df095eb5edac400ecd11",
      "assetIds": [
        "55464657044963196816950587289035428064568320970692304673817341489687505668096"
      ],
      "assetValues": [
        1
      ]
    },
    {
      "reservedAddress": "0x3a651f92308bb5c2248de5485514d2715dbe0ff1",
      "assetIds": [
        "55464657044963196816950587289035428064568320970692304673817341489687505668096"
      ],
      "assetValues": [
        1
      ]
    },
    {
      "reservedAddress": "0x3a6dfe25701f040509ec40f2856089e04383bf06",
      "assetIds": [
        "55464657044963196816950587289035428064568320970692304673817341489687505668096"
      ],
      "assetValues": [
        1
      ]
    },
    {
      "reservedAddress": "0x3a6e99d804746f7ec5bc2cafe9ca5670607dfa84",
      "assetIds": [
        "55464657044963196816950587289035428064568320970692304673817341489687505668096"
      ],
      "assetValues": [
        1
      ]
    },
    {
      "reservedAddress": "0x3a70e8c00f3bcf3eb845b6b6928aba92b465c183",
      "assetIds": [
        "55464657044963196816950587289035428064568320970692304673817341489687505668096"
      ],
      "assetValues": [
        1
      ]
    },
    {
      "reservedAddress": "0x3a86d0077385444014c93c45f92322c67d832ab3",
      "assetIds": [
        "55464657044963196816950587289035428064568320970692304673817341489687505668096"
      ],
      "assetValues": [
        1
      ]
    },
    {
      "reservedAddress": "0x3a962a213f0d09509be05b8f8d3d6a2a210d94ef",
      "assetIds": [
        "55464657044963196816950587289035428064568320970692304673817341489687505668096"
      ],
      "assetValues": [
        1
      ]
    },
    {
      "reservedAddress": "0x3a9f465aabf2010cb476e82bf343d6b2c83d19e0",
      "assetIds": [
        "55464657044963196816950587289035428064568320970692304673817341489687505668096"
      ],
      "assetValues": [
        1
      ]
    },
    {
      "reservedAddress": "0x3aaed2fa94a012dc322e297924aea8a6d019ba59",
      "assetIds": [
        "55464657044963196816950587289035428064568320970692304673817341489687505668096"
      ],
      "assetValues": [
        1
      ]
    },
    {
      "reservedAddress": "0x3ab84dda0ee4bbc10c4bb73f310d140dbe94b9aa",
      "assetIds": [
        "55464657044963196816950587289035428064568320970692304673817341489687505668096"
      ],
      "assetValues": [
        1
      ]
    },
    {
      "reservedAddress": "0x3ac753ed33239486188c384ca792ea90f2fafaa1",
      "assetIds": [
        "55464657044963196816950587289035428064568320970692304673817341489687505668096"
      ],
      "assetValues": [
        1
      ]
    },
    {
      "reservedAddress": "0x3acb5eaecfab99d01e86f7068ae7b90479fb50e9",
      "assetIds": [
        "55464657044963196816950587289035428064568320970692304673817341489687505668096"
      ],
      "assetValues": [
        1
      ]
    },
    {
      "reservedAddress": "0x3acef6bad2e1bd0ed6f1f3c17d527856769a7081",
      "assetIds": [
        "55464657044963196816950587289035428064568320970692304673817341489687505668096"
      ],
      "assetValues": [
        1
      ]
    },
    {
      "reservedAddress": "0x3add5dd8c62cd0a44a5a17c878aca598b6f96f7a",
      "assetIds": [
        "55464657044963196816950587289035428064568320970692304673817341489687505668096"
      ],
      "assetValues": [
        1
      ]
    },
    {
      "reservedAddress": "0x3b0b4be1a3962e67273ea72ea34c95e06603d661",
      "assetIds": [
        "55464657044963196816950587289035428064568320970692304673817341489687505668096"
      ],
      "assetValues": [
        1
      ]
    },
    {
      "reservedAddress": "0x3b11ebe40a982de0029a612e427f48ce04502df8",
      "assetIds": [
        "55464657044963196816950587289035428064568320970692304673817341489687505668096"
      ],
      "assetValues": [
        1
      ]
    },
    {
      "reservedAddress": "0x3b1f03fc8e2ff11e0ca3ec94153f6ce0a9de8244",
      "assetIds": [
        "55464657044963196816950587289035428064568320970692304673817341489687505668096"
      ],
      "assetValues": [
        1
      ]
    },
    {
      "reservedAddress": "0x3b27b0e4f7678055f7f28462ea15a8c06005467d",
      "assetIds": [
        "55464657044963196816950587289035428064568320970692304673817341489687505668096"
      ],
      "assetValues": [
        1
      ]
    },
    {
      "reservedAddress": "0x3b326b5527b705ce9dddb276d6342506d043a607",
      "assetIds": [
        "55464657044963196816950587289035428064568320970692304673817341489687505668096"
      ],
      "assetValues": [
        1
      ]
    },
    {
      "reservedAddress": "0x3b408b5946b2cebf75066f6097f50d9382a4de64",
      "assetIds": [
        "55464657044963196816950587289035428064568320970692304673817341489687505668096"
      ],
      "assetValues": [
        1
      ]
    },
    {
      "reservedAddress": "0x3b41de7b86b38a96016caa6f0006d8666bcc5889",
      "assetIds": [
        "55464657044963196816950587289035428064568320970692304673817341489687505668096"
      ],
      "assetValues": [
        1
      ]
    },
    {
      "reservedAddress": "0x3b439ed42eb0ecf2f9badcebe3237248e5f8b29e",
      "assetIds": [
        "55464657044963196816950587289035428064568320970692304673817341489687505668096"
      ],
      "assetValues": [
        1
      ]
    },
    {
      "reservedAddress": "0x3b50af9a1fd063a5b4b6840bf54815357d26ccff",
      "assetIds": [
        "55464657044963196816950587289035428064568320970692304673817341489687505668096"
      ],
      "assetValues": [
        1
      ]
    },
    {
      "reservedAddress": "0x3b5fdf0009ab23153129fa95252a89c3cb1925f1",
      "assetIds": [
        "55464657044963196816950587289035428064568320970692304673817341489687505668096"
      ],
      "assetValues": [
        1
      ]
    },
    {
      "reservedAddress": "0x3b7f10e271fe749e7f437e15ca37becc3d36d88b",
      "assetIds": [
        "55464657044963196816950587289035428064568320970692304673817341489687505668096"
      ],
      "assetValues": [
        1
      ]
    },
    {
      "reservedAddress": "0x3b96b39bbdcd2981df86794db7c832fc98d8df38",
      "assetIds": [
        "55464657044963196816950587289035428064568320970692304673817341489687505668096"
      ],
      "assetValues": [
        1
      ]
    },
    {
      "reservedAddress": "0x3bf8d93bbe15c002a2c731d5139077aa1c7002cd",
      "assetIds": [
        "55464657044963196816950587289035428064568320970692304673817341489687505668096"
      ],
      "assetValues": [
        1
      ]
    },
    {
      "reservedAddress": "0x3c08573fff98a3931cb2cd75fa54eabc582aa5bd",
      "assetIds": [
        "55464657044963196816950587289035428064568320970692304673817341489687505668096"
      ],
      "assetValues": [
        1
      ]
    },
    {
      "reservedAddress": "0x3c08f2829b98e45d8e2c9d9b07704e62b6baccb7",
      "assetIds": [
        "55464657044963196816950587289035428064568320970692304673817341489687505668096"
      ],
      "assetValues": [
        1
      ]
    },
    {
      "reservedAddress": "0x3c1bf28d855812c22854697fa09a144c0a7ae399",
      "assetIds": [
        "55464657044963196816950587289035428064568320970692304673817341489687505668096"
      ],
      "assetValues": [
        1
      ]
    },
    {
      "reservedAddress": "0x3c3026c8f32e47b9018ec8c6159cd09394dfb91f",
      "assetIds": [
        "55464657044963196816950587289035428064568320970692304673817341489687505668096"
      ],
      "assetValues": [
        1
      ]
    },
    {
      "reservedAddress": "0x3c4718122e5218c06c8559137d536f4e2e4cb03b",
      "assetIds": [
        "55464657044963196816950587289035428064568320970692304673817341489687505668096"
      ],
      "assetValues": [
        1
      ]
    },
    {
      "reservedAddress": "0x3c657c5902a2b063765c25ec93d1d8359ec8f3d9",
      "assetIds": [
        "55464657044963196816950587289035428064568320970692304673817341489687505668096"
      ],
      "assetValues": [
        1
      ]
    },
    {
      "reservedAddress": "0x3c70daa90e9c876526426fcdcea3ab52255c72a3",
      "assetIds": [
        "55464657044963196816950587289035428064568320970692304673817341489687505668096"
      ],
      "assetValues": [
        1
      ]
    },
    {
      "reservedAddress": "0x3c8a038aaaee2a5c3768d917b8d4874e216be16e",
      "assetIds": [
        "55464657044963196816950587289035428064568320970692304673817341489687505668096"
      ],
      "assetValues": [
        1
      ]
    },
    {
      "reservedAddress": "0x3ccaa94e42ad6beb2a16487a08079f0b56552dd1",
      "assetIds": [
        "55464657044963196816950587289035428064568320970692304673817341489687505668096"
      ],
      "assetValues": [
        1
      ]
    },
    {
      "reservedAddress": "0x3cfc2d2b83dd6090fb340afe6bd450e448447586",
      "assetIds": [
        "55464657044963196816950587289035428064568320970692304673817341489687505668096"
      ],
      "assetValues": [
        1
      ]
    },
    {
      "reservedAddress": "0x3d0f4cac67369805cd75121dbf8bfdb7aa1dfa07",
      "assetIds": [
        "55464657044963196816950587289035428064568320970692304673817341489687505668096"
      ],
      "assetValues": [
        1
      ]
    },
    {
      "reservedAddress": "0x3d21442eef42fa1a2be56c1db01a60d3c9b5bac8",
      "assetIds": [
        "55464657044963196816950587289035428064568320970692304673817341489687505668096"
      ],
      "assetValues": [
        1
      ]
    },
    {
      "reservedAddress": "0x3d3ac4ca86e5e8304acea9c202fda747cdec45bb",
      "assetIds": [
        "55464657044963196816950587289035428064568320970692304673817341489687505668096"
      ],
      "assetValues": [
        1
      ]
    },
    {
      "reservedAddress": "0x3d9a6681855c7bd839e1571978da62da280c31ba",
      "assetIds": [
        "55464657044963196816950587289035428064568320970692304673817341489687505668096"
      ],
      "assetValues": [
        1
      ]
    },
    {
      "reservedAddress": "0x3d9c859b26735d43bbb644a025c209ea7a85e9a7",
      "assetIds": [
        "55464657044963196816950587289035428064568320970692304673817341489687505668096"
      ],
      "assetValues": [
        1
      ]
    },
    {
      "reservedAddress": "0x3dbb30d644cdf3f119a97522b05aa842d11458a7",
      "assetIds": [
        "55464657044963196816950587289035428064568320970692304673817341489687505668096"
      ],
      "assetValues": [
        1
      ]
    },
    {
      "reservedAddress": "0x3dbd9455244397b2204bc9abbfd2f0c62da8bd88",
      "assetIds": [
        "55464657044963196816950587289035428064568320970692304673817341489687505668096"
      ],
      "assetValues": [
        1
      ]
    },
    {
      "reservedAddress": "0x3dea70718e2d02e5d5367687b23a7e1d7e6b08da",
      "assetIds": [
        "55464657044963196816950587289035428064568320970692304673817341489687505668096"
      ],
      "assetValues": [
        1
      ]
    },
    {
      "reservedAddress": "0x3deaf8134c9aebf84e9c8870c4ac1dcdb5e37e15",
      "assetIds": [
        "55464657044963196816950587289035428064568320970692304673817341489687505668096"
      ],
      "assetValues": [
        1
      ]
    },
    {
      "reservedAddress": "0x3df364ed7e8a887f7f9c240f7e281a4ea05ce03f",
      "assetIds": [
        "55464657044963196816950587289035428064568320970692304673817341489687505668096"
      ],
      "assetValues": [
        1
      ]
    },
    {
      "reservedAddress": "0x3e0f589d68f839c5b9e92598370e4728a193edfb",
      "assetIds": [
        "55464657044963196816950587289035428064568320970692304673817341489687505668096"
      ],
      "assetValues": [
        1
      ]
    },
    {
      "reservedAddress": "0x3e14bc312d79fa62980ab1594a018470e9c2c528",
      "assetIds": [
        "55464657044963196816950587289035428064568320970692304673817341489687505668096"
      ],
      "assetValues": [
        1
      ]
    },
    {
      "reservedAddress": "0x3e4363669963edea9382c7e861e5139e1c31c84d",
      "assetIds": [
        "55464657044963196816950587289035428064568320970692304673817341489687505668096"
      ],
      "assetValues": [
        1
      ]
    },
    {
      "reservedAddress": "0x3e4984db5ccbd88a8e043090bff068a524c8c8c3",
      "assetIds": [
        "55464657044963196816950587289035428064568320970692304673817341489687505668096"
      ],
      "assetValues": [
        1
      ]
    },
    {
      "reservedAddress": "0x3e4b6083c48ec169e8837000c164e4dd179ed8a3",
      "assetIds": [
        "55464657044963196816950587289035428064568320970692304673817341489687505668096"
      ],
      "assetValues": [
        1
      ]
    },
    {
      "reservedAddress": "0x3e50613644c444e30870acb5e9a3be28ca5f63ae",
      "assetIds": [
        "55464657044963196816950587289035428064568320970692304673817341489687505668096"
      ],
      "assetValues": [
        1
      ]
    },
    {
      "reservedAddress": "0x3e569ecc7de9e14edd9c155b2c81485fb265a58c",
      "assetIds": [
        "55464657044963196816950587289035428064568320970692304673817341489687505668096"
      ],
      "assetValues": [
        1
      ]
    },
    {
      "reservedAddress": "0x3ea245fc5909a55e426a2c044aa4b48a143f9819",
      "assetIds": [
        "55464657044963196816950587289035428064568320970692304673817341489687505668096"
      ],
      "assetValues": [
        1
      ]
    },
    {
      "reservedAddress": "0x3eaa54ea594684dd8018d792de66cf6d6ea555d6",
      "assetIds": [
        "55464657044963196816950587289035428064568320970692304673817341489687505668096"
      ],
      "assetValues": [
        1
      ]
    },
    {
      "reservedAddress": "0x3ec2c64d57ed85755bdab8c76ee9ae63c5318555",
      "assetIds": [
        "55464657044963196816950587289035428064568320970692304673817341489687505668096"
      ],
      "assetValues": [
        1
      ]
    },
    {
      "reservedAddress": "0x3ed019a15af52525ef2f5620e079f8f5e4846128",
      "assetIds": [
        "55464657044963196816950587289035428064568320970692304673817341489687505668096"
      ],
      "assetValues": [
        1
      ]
    },
    {
      "reservedAddress": "0x3ef342908f3a8b20127bda3a11ad7a62adbfad5c",
      "assetIds": [
        "55464657044963196816950587289035428064568320970692304673817341489687505668096"
      ],
      "assetValues": [
        1
      ]
    },
    {
      "reservedAddress": "0x3efc977f468c50e163633088fdc9bbd54bcd2243",
      "assetIds": [
        "55464657044963196816950587289035428064568320970692304673817341489687505668096"
      ],
      "assetValues": [
        1
      ]
    },
    {
      "reservedAddress": "0x3f01940c87f09a351d422022d61bca0b682755c8",
      "assetIds": [
        "55464657044963196816950587289035428064568320970692304673817341489687505668096"
      ],
      "assetValues": [
        1
      ]
    },
    {
      "reservedAddress": "0x3f1385823f08615ca31359ea996fbedc869214ab",
      "assetIds": [
        "55464657044963196816950587289035428064568320970692304673817341489687505668096"
      ],
      "assetValues": [
        1
      ]
    },
    {
      "reservedAddress": "0x3f175a3100875a1415a66b2e5f5952a062171e5b",
      "assetIds": [
        "55464657044963196816950587289035428064568320970692304673817341489687505668096"
      ],
      "assetValues": [
        1
      ]
    },
    {
      "reservedAddress": "0x3f259e9b50b74a1ed39dec634b325fccbf5532a2",
      "assetIds": [
        "55464657044963196816950587289035428064568320970692304673817341489687505668096"
      ],
      "assetValues": [
        1
      ]
    },
    {
      "reservedAddress": "0x3f29d0c086dfcf1ed6b8000d4e1c7643929845a2",
      "assetIds": [
        "55464657044963196816950587289035428064568320970692304673817341489687505668096"
      ],
      "assetValues": [
        1
      ]
    },
    {
      "reservedAddress": "0x3f32ab7aa1588cf135bb3f72fac8f92bf6e788c9",
      "assetIds": [
        "55464657044963196816950587289035428064568320970692304673817341489687505668096"
      ],
      "assetValues": [
        1
      ]
    },
    {
      "reservedAddress": "0x3f417b86712fd6908c52b0443a54e8171d263e43",
      "assetIds": [
        "55464657044963196816950587289035428064568320970692304673817341489687505668096"
      ],
      "assetValues": [
        1
      ]
    },
    {
      "reservedAddress": "0x3f69b95c920078b23401e580f270585bec495cec",
      "assetIds": [
        "55464657044963196816950587289035428064568320970692304673817341489687505668096"
      ],
      "assetValues": [
        1
      ]
    },
    {
      "reservedAddress": "0x3f7da1dfb0e0369c8ee77ffcb65b6085ab8fa2ba",
      "assetIds": [
        "55464657044963196816950587289035428064568320970692304673817341489687505668096"
      ],
      "assetValues": [
        1
      ]
    },
    {
      "reservedAddress": "0x3fa65a1ea007019956906f7a55a11d19db872817",
      "assetIds": [
        "55464657044963196816950587289035428064568320970692304673817341489687505668096"
      ],
      "assetValues": [
        1
      ]
    },
    {
      "reservedAddress": "0x3fb99d2ba1d549c103d58c8c0d17233ad0bd2236",
      "assetIds": [
        "55464657044963196816950587289035428064568320970692304673817341489687505668096"
      ],
      "assetValues": [
        1
      ]
    },
    {
      "reservedAddress": "0x3fbd810ede131cf5312db41b342ad0b0488e0299",
      "assetIds": [
        "55464657044963196816950587289035428064568320970692304673817341489687505668096"
      ],
      "assetValues": [
        1
      ]
    },
    {
      "reservedAddress": "0x3fdbeedcbfd67cbc00fc169fcf557f77ea4ad4ed",
      "assetIds": [
        "55464657044963196816950587289035428064568320970692304673817341489687505668096"
      ],
      "assetValues": [
        1
      ]
    },
    {
      "reservedAddress": "0x3fdf6b7355c05ea6b3a224bb711cffbee8d20ac2",
      "assetIds": [
        "55464657044963196816950587289035428064568320970692304673817341489687505668096"
      ],
      "assetValues": [
        1
      ]
    },
    {
      "reservedAddress": "0x3ffc8b9721f96776bef8468f48f65e0ca573fcf2",
      "assetIds": [
        "55464657044963196816950587289035428064568320970692304673817341489687505668096"
      ],
      "assetValues": [
        1
      ]
    },
    {
      "reservedAddress": "0x4010e762ab5b23ec45c9dfd880b2f3f13d889606",
      "assetIds": [
        "55464657044963196816950587289035428064568320970692304673817341489687505668096"
      ],
      "assetValues": [
        1
      ]
    },
    {
      "reservedAddress": "0x4011d09a86d0aca8377a4a8bad691f1aceecd672",
      "assetIds": [
        "55464657044963196816950587289035428064568320970692304673817341489687505668096"
      ],
      "assetValues": [
        1
      ]
    },
    {
      "reservedAddress": "0x40171d94c3c433e2c2745223f4e9ee6389ba4b16",
      "assetIds": [
        "55464657044963196816950587289035428064568320970692304673817341489687505668096"
      ],
      "assetValues": [
        1
      ]
    },
    {
      "reservedAddress": "0x4050da825d515d1993ede7847cb95d0f1ef9b293",
      "assetIds": [
        "55464657044963196816950587289035428064568320970692304673817341489687505668096"
      ],
      "assetValues": [
        1
      ]
    },
    {
      "reservedAddress": "0x4064959ee4b2f3559301f94d91ef0ee2778979e6",
      "assetIds": [
        "55464657044963196816950587289035428064568320970692304673817341489687505668096"
      ],
      "assetValues": [
        1
      ]
    },
    {
      "reservedAddress": "0x4064b153664c7371d65c0454eeca2d252ce60eb4",
      "assetIds": [
        "55464657044963196816950587289035428064568320970692304673817341489687505668096"
      ],
      "assetValues": [
        1
      ]
    },
    {
      "reservedAddress": "0x407739cc47a268a85702c12453cba03917bba84b",
      "assetIds": [
        "55464657044963196816950587289035428064568320970692304673817341489687505668096"
      ],
      "assetValues": [
        1
      ]
    },
    {
      "reservedAddress": "0x408e68023e12bfc7d29ca7d3656395d3de0749e0",
      "assetIds": [
        "55464657044963196816950587289035428064568320970692304673817341489687505668096"
      ],
      "assetValues": [
        1
      ]
    },
    {
      "reservedAddress": "0x4096bc770f71ca10484a7ccb7dacb33da709d5c5",
      "assetIds": [
        "55464657044963196816950587289035428064568320970692304673817341489687505668096"
      ],
      "assetValues": [
        1
      ]
    },
    {
      "reservedAddress": "0x40f359f7335e4ea19ad28e60889e1853200918a3",
      "assetIds": [
        "55464657044963196816950587289035428064568320970692304673817341489687505668096"
      ],
      "assetValues": [
        1
      ]
    },
    {
      "reservedAddress": "0x414bf9fd6b7d441bae188679eef725af193927f4",
      "assetIds": [
        "55464657044963196816950587289035428064568320970692304673817341489687505668096"
      ],
      "assetValues": [
        1
      ]
    },
    {
      "reservedAddress": "0x415f78567c431a922f12fa29bc1455e8459feeb6",
      "assetIds": [
        "55464657044963196816950587289035428064568320970692304673817341489687505668096"
      ],
      "assetValues": [
        1
      ]
    },
    {
      "reservedAddress": "0x41709a8e4d590f8853478171456c65de37544922",
      "assetIds": [
        "55464657044963196816950587289035428064568320970692304673817341489687505668096"
      ],
      "assetValues": [
        1
      ]
    },
    {
      "reservedAddress": "0x4174b7ba417b51f063eaf41a5cdf71938d226545",
      "assetIds": [
        "55464657044963196816950587289035428064568320970692304673817341489687505668096"
      ],
      "assetValues": [
        1
      ]
    },
    {
      "reservedAddress": "0x4181005340fc5235e83161a8aaa6a0ac49438f6b",
      "assetIds": [
        "55464657044963196816950587289035428064568320970692304673817341489687505668096"
      ],
      "assetValues": [
        1
      ]
    },
    {
      "reservedAddress": "0x41a646c53d65a72b46f600e7d69a6091753840d5",
      "assetIds": [
        "55464657044963196816950587289035428064568320970692304673817341489687505668096"
      ],
      "assetValues": [
        1
      ]
    },
    {
      "reservedAddress": "0x41ab1ff35704b7a7b8f82682fcffe9801c0e2e0a",
      "assetIds": [
        "55464657044963196816950587289035428064568320970692304673817341489687505668096"
      ],
      "assetValues": [
        1
      ]
    },
    {
      "reservedAddress": "0x41af363578d38f6093a2b877fb08ac7f3d7bc578",
      "assetIds": [
        "55464657044963196816950587289035428064568320970692304673817341489687505668096"
      ],
      "assetValues": [
        1
      ]
    },
    {
      "reservedAddress": "0x41bd821897130e974246e7358464abf074ddc63e",
      "assetIds": [
        "55464657044963196816950587289035428064568320970692304673817341489687505668096"
      ],
      "assetValues": [
        1
      ]
    },
    {
      "reservedAddress": "0x41c1a8eaded5e1e783d58904eb080a549d0cb76d",
      "assetIds": [
        "55464657044963196816950587289035428064568320970692304673817341489687505668096"
      ],
      "assetValues": [
        1
      ]
    },
    {
      "reservedAddress": "0x41e4a765d6e8b0c8e8aac18aec6e63f4019aec70",
      "assetIds": [
        "55464657044963196816950587289035428064568320970692304673817341489687505668096"
      ],
      "assetValues": [
        1
      ]
    },
    {
      "reservedAddress": "0x422b1735a88ad5348ff0a503b898c431ff5d8268",
      "assetIds": [
        "55464657044963196816950587289035428064568320970692304673817341489687505668096"
      ],
      "assetValues": [
        1
      ]
    },
    {
      "reservedAddress": "0x42306deafdd12f040ab2ef63734b7cafde81103b",
      "assetIds": [
        "55464657044963196816950587289035428064568320970692304673817341489687505668096"
      ],
      "assetValues": [
        1
      ]
    },
    {
      "reservedAddress": "0x4282beb5d9ea69f50b54698e2760cf6e60adeff7",
      "assetIds": [
        "55464657044963196816950587289035428064568320970692304673817341489687505668096"
      ],
      "assetValues": [
        1
      ]
    },
    {
      "reservedAddress": "0x4298e1069f578788ff9e946baaf12ea6b822050d",
      "assetIds": [
        "55464657044963196816950587289035428064568320970692304673817341489687505668096"
      ],
      "assetValues": [
        1
      ]
    },
    {
      "reservedAddress": "0x42a60d2f2ffa2150c568010a8d425f0aad284fd2",
      "assetIds": [
        "55464657044963196816950587289035428064568320970692304673817341489687505668096"
      ],
      "assetValues": [
        1
      ]
    },
    {
      "reservedAddress": "0x42af29e15210706406cb326c256f8fe1bc14e7c5",
      "assetIds": [
        "55464657044963196816950587289035428064568320970692304673817341489687505668096"
      ],
      "assetValues": [
        1
      ]
    },
    {
      "reservedAddress": "0x42c3ce3aef0f22e225addd132d2a51788aab536d",
      "assetIds": [
        "55464657044963196816950587289035428064568320970692304673817341489687505668096"
      ],
      "assetValues": [
        1
      ]
    },
    {
      "reservedAddress": "0x432917834ce1197fc6606bf011bc6af92a9d2d8e",
      "assetIds": [
        "55464657044963196816950587289035428064568320970692304673817341489687505668096"
      ],
      "assetValues": [
        1
      ]
    },
    {
      "reservedAddress": "0x433ff4838b5dc609cc4172b0227726ec7df8f392",
      "assetIds": [
        "55464657044963196816950587289035428064568320970692304673817341489687505668096"
      ],
      "assetValues": [
        1
      ]
    },
    {
      "reservedAddress": "0x435607f9f75e89b7f10da6bc2d26515c34fb8cdd",
      "assetIds": [
        "55464657044963196816950587289035428064568320970692304673817341489687505668096"
      ],
      "assetValues": [
        1
      ]
    },
    {
      "reservedAddress": "0x435fe0a68feb35dfdbaabf3845c09f9a482564a2",
      "assetIds": [
        "55464657044963196816950587289035428064568320970692304673817341489687505668096"
      ],
      "assetValues": [
        1
      ]
    },
    {
      "reservedAddress": "0x436317eef036eb72e74812dcea5c31a945724f77",
      "assetIds": [
        "55464657044963196816950587289035428064568320970692304673817341489687505668096"
      ],
      "assetValues": [
        1
      ]
    },
    {
      "reservedAddress": "0x438550da3c0c79616f97afc76b77cee355ce2cb6",
      "assetIds": [
        "55464657044963196816950587289035428064568320970692304673817341489687505668096"
      ],
      "assetValues": [
        1
      ]
    },
    {
      "reservedAddress": "0x43c9cf4cfae3486d9a786214acc7ba5bdfcdcca0",
      "assetIds": [
        "55464657044963196816950587289035428064568320970692304673817341489687505668096"
      ],
      "assetValues": [
        1
      ]
    },
    {
      "reservedAddress": "0x43f15b52cc9364384f8b91f2e4124b66cf618a8e",
      "assetIds": [
        "55464657044963196816950587289035428064568320970692304673817341489687505668096"
      ],
      "assetValues": [
        1
      ]
    },
    {
      "reservedAddress": "0x43f6fab8bd5ea83ebb41ab37a8f1d5ef0dbb11a0",
      "assetIds": [
        "55464657044963196816950587289035428064568320970692304673817341489687505668096"
      ],
      "assetValues": [
        1
      ]
    },
    {
      "reservedAddress": "0x441e47e09b773952deaeee20cae19dcdf105cb2c",
      "assetIds": [
        "55464657044963196816950587289035428064568320970692304673817341489687505668096"
      ],
      "assetValues": [
        1
      ]
    },
    {
      "reservedAddress": "0x44326e11ffc28e5bccb0bfbc86c92dbeec81dcba",
      "assetIds": [
        "55464657044963196816950587289035428064568320970692304673817341489687505668096"
      ],
      "assetValues": [
        1
      ]
    },
    {
      "reservedAddress": "0x4447a659e64a0822d27cab75c1d453dc983620b8",
      "assetIds": [
        "55464657044963196816950587289035428064568320970692304673817341489687505668096"
      ],
      "assetValues": [
        1
      ]
    },
    {
      "reservedAddress": "0x444d235cba7c69ebad6dab0469a18b932c27a336",
      "assetIds": [
        "55464657044963196816950587289035428064568320970692304673817341489687505668096"
      ],
      "assetValues": [
        1
      ]
    },
    {
      "reservedAddress": "0x4464cd43f3645c43f82667ecf1019e3fc181ca4f",
      "assetIds": [
        "55464657044963196816950587289035428064568320970692304673817341489687505668096"
      ],
      "assetValues": [
        1
      ]
    },
    {
      "reservedAddress": "0x4476a2cef195c757a9c0febe4d72f0ac106c7aa8",
      "assetIds": [
        "55464657044963196816950587289035428064568320970692304673817341489687505668096"
      ],
      "assetValues": [
        1
      ]
    },
    {
      "reservedAddress": "0x44776d9f12d619793a4c19844fb7d0985badc92d",
      "assetIds": [
        "55464657044963196816950587289035428064568320970692304673817341489687505668096"
      ],
      "assetValues": [
        1
      ]
    },
    {
      "reservedAddress": "0x44bc008896076226ba6d5292721239b281ddf970",
      "assetIds": [
        "55464657044963196816950587289035428064568320970692304673817341489687505668096"
      ],
      "assetValues": [
        1
      ]
    },
    {
      "reservedAddress": "0x44c999fcaac661ea0bfb26a005f83efd9c2fc805",
      "assetIds": [
        "55464657044963196816950587289035428064568320970692304673817341489687505668096"
      ],
      "assetValues": [
        1
      ]
    },
    {
      "reservedAddress": "0x45242d71bb882a834b842b59dd043bb6d98afa7a",
      "assetIds": [
        "55464657044963196816950587289035428064568320970692304673817341489687505668096"
      ],
      "assetValues": [
        1
      ]
    },
    {
      "reservedAddress": "0x4536eff666ff7f68ab540857f73c9822d10ad236",
      "assetIds": [
        "55464657044963196816950587289035428064568320970692304673817341489687505668096"
      ],
      "assetValues": [
        1
      ]
    },
    {
      "reservedAddress": "0x453b755d9407033647655f050a60961c550c77dd",
      "assetIds": [
        "55464657044963196816950587289035428064568320970692304673817341489687505668096"
      ],
      "assetValues": [
        1
      ]
    },
    {
      "reservedAddress": "0x4552821b8e9fec8855c909ebed04f2df561e0b96",
      "assetIds": [
        "55464657044963196816950587289035428064568320970692304673817341489687505668096"
      ],
      "assetValues": [
        1
      ]
    },
    {
      "reservedAddress": "0x4582351787b3a5ce1fed66198e20c54a8b8eda11",
      "assetIds": [
        "55464657044963196816950587289035428064568320970692304673817341489687505668096"
      ],
      "assetValues": [
        1
      ]
    },
    {
      "reservedAddress": "0x45c374ce0c5e36cd1bc751577673583b4d61fd33",
      "assetIds": [
        "55464657044963196816950587289035428064568320970692304673817341489687505668096"
      ],
      "assetValues": [
        1
      ]
    },
    {
      "reservedAddress": "0x45cae7af663f7eb0edc5080156c9e3150839168e",
      "assetIds": [
        "55464657044963196816950587289035428064568320970692304673817341489687505668096"
      ],
      "assetValues": [
        1
      ]
    },
    {
      "reservedAddress": "0x45d0f9ec08b4a841b996cdd11117a260cb0cf458",
      "assetIds": [
        "55464657044963196816950587289035428064568320970692304673817341489687505668096"
      ],
      "assetValues": [
        1
      ]
    },
    {
      "reservedAddress": "0x45fabe75c0bbe420b9e5eaeaca02decf238ee37a",
      "assetIds": [
        "55464657044963196816950587289035428064568320970692304673817341489687505668096"
      ],
      "assetValues": [
        1
      ]
    },
    {
      "reservedAddress": "0x46102e4620adc8cd7920f27716f9311f4a4bd0de",
      "assetIds": [
        "55464657044963196816950587289035428064568320970692304673817341489687505668096"
      ],
      "assetValues": [
        1
      ]
    },
    {
      "reservedAddress": "0x463d5e23b9d49462d56994d411e5a9c2b7c4f1ad",
      "assetIds": [
        "55464657044963196816950587289035428064568320970692304673817341489687505668096"
      ],
      "assetValues": [
        1
      ]
    },
    {
      "reservedAddress": "0x46563ea13d6620e5f31ca1fb0b5caa3d58ca93c8",
      "assetIds": [
        "55464657044963196816950587289035428064568320970692304673817341489687505668096"
      ],
      "assetValues": [
        1
      ]
    },
    {
      "reservedAddress": "0x465e70acfef55e341cd811b3bf90851915eac6fb",
      "assetIds": [
        "55464657044963196816950587289035428064568320970692304673817341489687505668096"
      ],
      "assetValues": [
        1
      ]
    },
    {
      "reservedAddress": "0x46604351965c2246ffe78fe0ebb91b4140ad6cb6",
      "assetIds": [
        "55464657044963196816950587289035428064568320970692304673817341489687505668096"
      ],
      "assetValues": [
        1
      ]
    },
    {
      "reservedAddress": "0x46688be2355ae18c7271f98dcb797f3e8db607e8",
      "assetIds": [
        "55464657044963196816950587289035428064568320970692304673817341489687505668096"
      ],
      "assetValues": [
        1
      ]
    },
    {
      "reservedAddress": "0x467f5862ffd2c36f3e20211aa80962f501814a91",
      "assetIds": [
        "55464657044963196816950587289035428064568320970692304673817341489687505668096"
      ],
      "assetValues": [
        1
      ]
    },
    {
      "reservedAddress": "0x46c1794df805bfb5761726c60a8148158dab87e2",
      "assetIds": [
        "55464657044963196816950587289035428064568320970692304673817341489687505668096"
      ],
      "assetValues": [
        1
      ]
    },
    {
      "reservedAddress": "0x46c7aa74e35e21c996744f64707557f79244e3ac",
      "assetIds": [
        "55464657044963196816950587289035428064568320970692304673817341489687505668096"
      ],
      "assetValues": [
        1
      ]
    },
    {
      "reservedAddress": "0x46ddb287f1f6066dc9db2c13420f3347dabf2822",
      "assetIds": [
        "55464657044963196816950587289035428064568320970692304673817341489687505668096"
      ],
      "assetValues": [
        1
      ]
    },
    {
      "reservedAddress": "0x471c8f11ab702a13d20222eac546d90ca0abf665",
      "assetIds": [
        "55464657044963196816950587289035428064568320970692304673817341489687505668096"
      ],
      "assetValues": [
        1
      ]
    },
    {
      "reservedAddress": "0x4727bc2c10d40db96e694e2cf0820e217aa5fb68",
      "assetIds": [
        "55464657044963196816950587289035428064568320970692304673817341489687505668096"
      ],
      "assetValues": [
        1
      ]
    },
    {
      "reservedAddress": "0x4741d6b02c576c1437fbd8d81f543d28993c6b8e",
      "assetIds": [
        "55464657044963196816950587289035428064568320970692304673817341489687505668096"
      ],
      "assetValues": [
        1
      ]
    },
    {
      "reservedAddress": "0x4752d96a0564728c596ae067844c2d1edff37131",
      "assetIds": [
        "55464657044963196816950587289035428064568320970692304673817341489687505668096"
      ],
      "assetValues": [
        1
      ]
    },
    {
      "reservedAddress": "0x4761b143a8fd1340d6c021addc60583ee65161ae",
      "assetIds": [
        "55464657044963196816950587289035428064568320970692304673817341489687505668096"
      ],
      "assetValues": [
        1
      ]
    },
    {
      "reservedAddress": "0x4777d0ca4bed8807152a2bc3806defa226613a25",
      "assetIds": [
        "55464657044963196816950587289035428064568320970692304673817341489687505668096"
      ],
      "assetValues": [
        1
      ]
    },
    {
      "reservedAddress": "0x477af0aa0c9cb5b1708b5fbd87b953d76270e981",
      "assetIds": [
        "55464657044963196816950587289035428064568320970692304673817341489687505668096"
      ],
      "assetValues": [
        1
      ]
    },
    {
      "reservedAddress": "0x47cbb32d70e53c59290a32b7b806fe5aee02b43d",
      "assetIds": [
        "55464657044963196816950587289035428064568320970692304673817341489687505668096"
      ],
      "assetValues": [
        1
      ]
    },
    {
      "reservedAddress": "0x47d1c358fed1b8bd8cbdc041509b7a01a5a002dc",
      "assetIds": [
        "55464657044963196816950587289035428064568320970692304673817341489687505668096"
      ],
      "assetValues": [
        1
      ]
    },
    {
      "reservedAddress": "0x47de76492cf9fc04a01dbe042c3b39d957090639",
      "assetIds": [
        "55464657044963196816950587289035428064568320970692304673817341489687505668096"
      ],
      "assetValues": [
        1
      ]
    },
    {
      "reservedAddress": "0x47e2bc7475ef8a9a5e10aef076da53d3c446291e",
      "assetIds": [
        "55464657044963196816950587289035428064568320970692304673817341489687505668096"
      ],
      "assetValues": [
        1
      ]
    },
    {
      "reservedAddress": "0x47e33894ed60a691a5c795325dae461363863c8c",
      "assetIds": [
        "55464657044963196816950587289035428064568320970692304673817341489687505668096"
      ],
      "assetValues": [
        1
      ]
    },
    {
      "reservedAddress": "0x481d4c4174fa71a8947a303912a8692654463105",
      "assetIds": [
        "55464657044963196816950587289035428064568320970692304673817341489687505668096"
      ],
      "assetValues": [
        1
      ]
    },
    {
      "reservedAddress": "0x482249209cbce8cadd389dd9d205d9f6d8359ed6",
      "assetIds": [
        "55464657044963196816950587289035428064568320970692304673817341489687505668096"
      ],
      "assetValues": [
        1
      ]
    },
    {
      "reservedAddress": "0x483138a7491835b88c03b8f485fd49b9ab5b4f05",
      "assetIds": [
        "55464657044963196816950587289035428064568320970692304673817341489687505668096"
      ],
      "assetValues": [
        1
      ]
    },
    {
      "reservedAddress": "0x4831b73ee8feca6c8e5d196c070044cc1d63e249",
      "assetIds": [
        "55464657044963196816950587289035428064568320970692304673817341489687505668096"
      ],
      "assetValues": [
        1
      ]
    },
    {
      "reservedAddress": "0x484496ce2eae5bc982cbbb0bf3ffa1f09bd5cb63",
      "assetIds": [
        "55464657044963196816950587289035428064568320970692304673817341489687505668096"
      ],
      "assetValues": [
        1
      ]
    },
    {
      "reservedAddress": "0x4862ebd0e222e444949c2192400c78c25d85cf6b",
      "assetIds": [
        "55464657044963196816950587289035428064568320970692304673817341489687505668096"
      ],
      "assetValues": [
        1
      ]
    },
    {
      "reservedAddress": "0x488618ad3d6c74177b10e97dfaed5a07391238d9",
      "assetIds": [
        "55464657044963196816950587289035428064568320970692304673817341489687505668096"
      ],
      "assetValues": [
        1
      ]
    },
    {
      "reservedAddress": "0x488ce99018222796850820568601e476d5a68435",
      "assetIds": [
        "55464657044963196816950587289035428064568320970692304673817341489687505668096"
      ],
      "assetValues": [
        1
      ]
    },
    {
      "reservedAddress": "0x489e4ba59a5497d19abaed03ce67505ea0b3f5cb",
      "assetIds": [
        "55464657044963196816950587289035428064568320970692304673817341489687505668096"
      ],
      "assetValues": [
        1
      ]
    },
    {
      "reservedAddress": "0x48a2bbdfef7ca304cab49abbc24a99c8577dd1b5",
      "assetIds": [
        "55464657044963196816950587289035428064568320970692304673817341489687505668096"
      ],
      "assetValues": [
        1
      ]
    },
    {
      "reservedAddress": "0x48a8cfeab12d25a3e37a788360c5333784d1267f",
      "assetIds": [
        "55464657044963196816950587289035428064568320970692304673817341489687505668096"
      ],
      "assetValues": [
        1
      ]
    },
    {
      "reservedAddress": "0x48c0931d29f2454df417cb009983cc56ad7bd469",
      "assetIds": [
        "55464657044963196816950587289035428064568320970692304673817341489687505668096"
      ],
      "assetValues": [
        1
      ]
    },
    {
      "reservedAddress": "0x48c94e8f4c0f0a125bed72e292c8dc84673e4dfc",
      "assetIds": [
        "55464657044963196816950587289035428064568320970692304673817341489687505668096"
      ],
      "assetValues": [
        1
      ]
    },
    {
      "reservedAddress": "0x48dc93577f78b097132371fcafb6a28a9df81a07",
      "assetIds": [
        "55464657044963196816950587289035428064568320970692304673817341489687505668096"
      ],
      "assetValues": [
        1
      ]
    },
    {
      "reservedAddress": "0x4900d62465100ec25e7480ca31da2f3f634ba58d",
      "assetIds": [
        "55464657044963196816950587289035428064568320970692304673817341489687505668096"
      ],
      "assetValues": [
        1
      ]
    },
    {
      "reservedAddress": "0x4911e3049a846a2495c2474d45a4d578abdeaeab",
      "assetIds": [
        "55464657044963196816950587289035428064568320970692304673817341489687505668096"
      ],
      "assetValues": [
        1
      ]
    },
    {
      "reservedAddress": "0x4937c67b7649db616525d735d42931a1cf634102",
      "assetIds": [
        "55464657044963196816950587289035428064568320970692304673817341489687505668096"
      ],
      "assetValues": [
        1
      ]
    },
    {
      "reservedAddress": "0x498ad49d057ef7870761c8a9c163b56314ea638b",
      "assetIds": [
        "55464657044963196816950587289035428064568320970692304673817341489687505668096"
      ],
      "assetValues": [
        1
      ]
    },
    {
      "reservedAddress": "0x499aa79110538bcf4a72ab4d6808e1d712986927",
      "assetIds": [
        "55464657044963196816950587289035428064568320970692304673817341489687505668096"
      ],
      "assetValues": [
        1
      ]
    },
    {
      "reservedAddress": "0x499d5bd8bf6052de7bdb1ebb773f522e8aa47fce",
      "assetIds": [
        "55464657044963196816950587289035428064568320970692304673817341489687505668096"
      ],
      "assetValues": [
        1
      ]
    },
    {
      "reservedAddress": "0x49a405f78bcd4d720bc232260acc19d426cf4323",
      "assetIds": [
        "55464657044963196816950587289035428064568320970692304673817341489687505668096"
      ],
      "assetValues": [
        1
      ]
    },
    {
      "reservedAddress": "0x49b935284b7c307ca9538606e53554564b45a6e7",
      "assetIds": [
        "55464657044963196816950587289035428064568320970692304673817341489687505668096"
      ],
      "assetValues": [
        1
      ]
    },
    {
      "reservedAddress": "0x49bc1aab6bada6c4186ab4824d2a3c23426af817",
      "assetIds": [
        "55464657044963196816950587289035428064568320970692304673817341489687505668096"
      ],
      "assetValues": [
        1
      ]
    },
    {
      "reservedAddress": "0x49f5ab0cf42c24e83f653625e19f6b897b766c3a",
      "assetIds": [
        "55464657044963196816950587289035428064568320970692304673817341489687505668096"
      ],
      "assetValues": [
        1
      ]
    },
    {
      "reservedAddress": "0x4a03ab50fd5878bc21f0b6f652419c6d9ee737c2",
      "assetIds": [
        "55464657044963196816950587289035428064568320970692304673817341489687505668096"
      ],
      "assetValues": [
        1
      ]
    },
    {
      "reservedAddress": "0x4a1ffd0b161a7f5d5e80af622952944d5aaf49a8",
      "assetIds": [
        "55464657044963196816950587289035428064568320970692304673817341489687505668096"
      ],
      "assetValues": [
        1
      ]
    },
    {
      "reservedAddress": "0x4a33a29ade766580efb33bf8c35b7dd492c47e37",
      "assetIds": [
        "55464657044963196816950587289035428064568320970692304673817341489687505668096"
      ],
      "assetValues": [
        1
      ]
    },
    {
      "reservedAddress": "0x4a3dae1d6597b5ed2a0dddfa6ae8f8d2a25d4845",
      "assetIds": [
        "55464657044963196816950587289035428064568320970692304673817341489687505668096"
      ],
      "assetValues": [
        1
      ]
    },
    {
      "reservedAddress": "0x4a4dbdc8073dc56b8d49b4a0975aa0bd2babc13e",
      "assetIds": [
        "55464657044963196816950587289035428064568320970692304673817341489687505668096"
      ],
      "assetValues": [
        1
      ]
    },
    {
      "reservedAddress": "0x4a5d7da099698de249bad4a71d502c6a13a15b78",
      "assetIds": [
        "55464657044963196816950587289035428064568320970692304673817341489687505668096"
      ],
      "assetValues": [
        1
      ]
    },
    {
      "reservedAddress": "0x4a60796c0c8eb2d1eec40ac86cea3e3c6cf96e0b",
      "assetIds": [
        "55464657044963196816950587289035428064568320970692304673817341489687505668096"
      ],
      "assetValues": [
        1
      ]
    },
    {
      "reservedAddress": "0x4a66944539a5b5f8e467eb61ead026af1f4c206d",
      "assetIds": [
        "55464657044963196816950587289035428064568320970692304673817341489687505668096"
      ],
      "assetValues": [
        1
      ]
    },
    {
      "reservedAddress": "0x4a92ce5a2c2b3e9d11e7cd11affa3fd402d4c706",
      "assetIds": [
        "55464657044963196816950587289035428064568320970692304673817341489687505668096"
      ],
      "assetValues": [
        1
      ]
    },
    {
      "reservedAddress": "0x4ac5ed4b31f4f0e16bd96bf2d9f96200d7c266af",
      "assetIds": [
        "55464657044963196816950587289035428064568320970692304673817341489687505668096"
      ],
      "assetValues": [
        1
      ]
    },
    {
      "reservedAddress": "0x4ad610b4a338c9d1c4820ecc53ebc68d35b35962",
      "assetIds": [
        "55464657044963196816950587289035428064568320970692304673817341489687505668096"
      ],
      "assetValues": [
        1
      ]
    },
    {
      "reservedAddress": "0x4ae26f92a5b6cc29eebd7687782ca1c96f371f1b",
      "assetIds": [
        "55464657044963196816950587289035428064568320970692304673817341489687505668096"
      ],
      "assetValues": [
        1
      ]
    },
    {
      "reservedAddress": "0x4ae4974f9e680415fb12d295fd326d47e8ac1fec",
      "assetIds": [
        "55464657044963196816950587289035428064568320970692304673817341489687505668096"
      ],
      "assetValues": [
        1
      ]
    },
    {
      "reservedAddress": "0x4b03996b60fa7a901668e301fe3b22d9fbe20834",
      "assetIds": [
        "55464657044963196816950587289035428064568320970692304673817341489687505668096"
      ],
      "assetValues": [
        1
      ]
    },
    {
      "reservedAddress": "0x4b15915c30cc7973ce4c6283ff618a940087796d",
      "assetIds": [
        "55464657044963196816950587289035428064568320970692304673817341489687505668096"
      ],
      "assetValues": [
        1
      ]
    },
    {
      "reservedAddress": "0x4b17db0dcb32fc0fe00e851b20bbe701c19f17c2",
      "assetIds": [
        "55464657044963196816950587289035428064568320970692304673817341489687505668096"
      ],
      "assetValues": [
        1
      ]
    },
    {
      "reservedAddress": "0x4b48cc42f811510711eb0bcbdf7c5f614eb6cd2c",
      "assetIds": [
        "55464657044963196816950587289035428064568320970692304673817341489687505668096"
      ],
      "assetValues": [
        1
      ]
    },
    {
      "reservedAddress": "0x4b56b81041b12952d68c25b0fc0b541cbdfefe7b",
      "assetIds": [
        "55464657044963196816950587289035428064568320970692304673817341489687505668096"
      ],
      "assetValues": [
        1
      ]
    },
    {
      "reservedAddress": "0x4b6413ed1a2944ea0bc571a63ce967c4e5e59220",
      "assetIds": [
        "55464657044963196816950587289035428064568320970692304673817341489687505668096"
      ],
      "assetValues": [
        1
      ]
    },
    {
      "reservedAddress": "0x4b7959a5c58b274d014146f366fad48e6cb43a89",
      "assetIds": [
        "55464657044963196816950587289035428064568320970692304673817341489687505668096"
      ],
      "assetValues": [
        1
      ]
    },
    {
      "reservedAddress": "0x4b7cb5b29be1fcdd2a16058ea5d2a7b1ea727c35",
      "assetIds": [
        "55464657044963196816950587289035428064568320970692304673817341489687505668096"
      ],
      "assetValues": [
        1
      ]
    },
    {
      "reservedAddress": "0x4b903e31ebe158282a05d69a4e242e255a56e46a",
      "assetIds": [
        "55464657044963196816950587289035428064568320970692304673817341489687505668096"
      ],
      "assetValues": [
        1
      ]
    },
    {
      "reservedAddress": "0x4baf7fbe52dc8ec715607f36bf22871f83707eb7",
      "assetIds": [
        "55464657044963196816950587289035428064568320970692304673817341489687505668096"
      ],
      "assetValues": [
        1
      ]
    },
    {
      "reservedAddress": "0x4bd3d08bae19c45b3bce064bfec0d5865baf458a",
      "assetIds": [
        "55464657044963196816950587289035428064568320970692304673817341489687505668096"
      ],
      "assetValues": [
        1
      ]
    },
    {
      "reservedAddress": "0x4be5f7c9912afd58bcda39b0a4ec76e7b21ba0f1",
      "assetIds": [
        "55464657044963196816950587289035428064568320970692304673817341489687505668096"
      ],
      "assetValues": [
        1
      ]
    },
    {
      "reservedAddress": "0x4bed4878ac2855d54b6fe8c4f22b2fccb5aacca5",
      "assetIds": [
        "55464657044963196816950587289035428064568320970692304673817341489687505668096"
      ],
      "assetValues": [
        1
      ]
    },
    {
      "reservedAddress": "0x4c54c8c65789ed2d77b948f9aa9482daa6b4a582",
      "assetIds": [
        "55464657044963196816950587289035428064568320970692304673817341489687505668096"
      ],
      "assetValues": [
        1
      ]
    },
    {
      "reservedAddress": "0x4c59460ea8e5ac6f41a633e12034645d92aff45c",
      "assetIds": [
        "55464657044963196816950587289035428064568320970692304673817341489687505668096"
      ],
      "assetValues": [
        1
      ]
    },
    {
      "reservedAddress": "0x4c6deb122f1329c575ad7d5bfe2191a1474ea4aa",
      "assetIds": [
        "55464657044963196816950587289035428064568320970692304673817341489687505668096"
      ],
      "assetValues": [
        1
      ]
    },
    {
      "reservedAddress": "0x4c7bedfa26c744e6bd61cbdf86f3fc4a76dca073",
      "assetIds": [
        "55464657044963196816950587289035428064568320970692304673817341489687505668096"
      ],
      "assetValues": [
        1
      ]
    },
    {
      "reservedAddress": "0x4ca5cc4db5f9c8551b7c0fab1cabb04274abc1cf",
      "assetIds": [
        "55464657044963196816950587289035428064568320970692304673817341489687505668096"
      ],
      "assetValues": [
        1
      ]
    },
    {
      "reservedAddress": "0x4cb2ccbf80ddf2c12f8199b75c849cfa658ba9b5",
      "assetIds": [
        "55464657044963196816950587289035428064568320970692304673817341489687505668096"
      ],
      "assetValues": [
        1
      ]
    },
    {
      "reservedAddress": "0x4cbb0153fc1296c4741c006b6792b6b02149ed89",
      "assetIds": [
        "55464657044963196816950587289035428064568320970692304673817341489687505668096"
      ],
      "assetValues": [
        1
      ]
    },
    {
      "reservedAddress": "0x4ccadb03b6d53273e565732f0a472dde82365201",
      "assetIds": [
        "55464657044963196816950587289035428064568320970692304673817341489687505668096"
      ],
      "assetValues": [
        1
      ]
    },
    {
      "reservedAddress": "0x4cd8bda7c7dd00656f2fc7520ed1035e76b24399",
      "assetIds": [
        "55464657044963196816950587289035428064568320970692304673817341489687505668096"
      ],
      "assetValues": [
        1
      ]
    },
    {
      "reservedAddress": "0x4cddff23d036e15fe786508ffa39b27f73b4a01a",
      "assetIds": [
        "55464657044963196816950587289035428064568320970692304673817341489687505668096"
      ],
      "assetValues": [
        1
      ]
    },
    {
      "reservedAddress": "0x4ce7d126dcb606008a711b46c2d8df50d88e4244",
      "assetIds": [
        "55464657044963196816950587289035428064568320970692304673817341489687505668096"
      ],
      "assetValues": [
        1
      ]
    },
    {
      "reservedAddress": "0x4ceb8dc70813ffbb2d8d6dc0755086698f977613",
      "assetIds": [
        "55464657044963196816950587289035428064568320970692304673817341489687505668096"
      ],
      "assetValues": [
        1
      ]
    },
    {
      "reservedAddress": "0x4cf5b6035eb8e71262da447456e585e1b9b43eac",
      "assetIds": [
        "55464657044963196816950587289035428064568320970692304673817341489687505668096"
      ],
      "assetValues": [
        1
      ]
    },
    {
      "reservedAddress": "0x4d2179a536e4faf158d63234d935643abd62a605",
      "assetIds": [
        "55464657044963196816950587289035428064568320970692304673817341489687505668096"
      ],
      "assetValues": [
        1
      ]
    },
    {
      "reservedAddress": "0x4d3837173373a166f0be0e5d2a4f03a724c172f5",
      "assetIds": [
        "55464657044963196816950587289035428064568320970692304673817341489687505668096"
      ],
      "assetValues": [
        1
      ]
    },
    {
      "reservedAddress": "0x4d4637644c4727fb59dc06b943048ad117685fa4",
      "assetIds": [
        "55464657044963196816950587289035428064568320970692304673817341489687505668096"
      ],
      "assetValues": [
        1
      ]
    },
    {
      "reservedAddress": "0x4d4c9c95c7541c29c0e81315c118896faf0b692c",
      "assetIds": [
        "55464657044963196816950587289035428064568320970692304673817341489687505668096"
      ],
      "assetValues": [
        1
      ]
    },
    {
      "reservedAddress": "0x4d4e384f69687109595966cb48739d0630abaf33",
      "assetIds": [
        "55464657044963196816950587289035428064568320970692304673817341489687505668096"
      ],
      "assetValues": [
        1
      ]
    },
    {
      "reservedAddress": "0x4d583a361216334a261be47715569b857fab8e18",
      "assetIds": [
        "55464657044963196816950587289035428064568320970692304673817341489687505668096"
      ],
      "assetValues": [
        1
      ]
    },
    {
      "reservedAddress": "0x4d6009c350e5fc54801d692cb157f3e97e4ad81e",
      "assetIds": [
        "55464657044963196816950587289035428064568320970692304673817341489687505668096"
      ],
      "assetValues": [
        1
      ]
    },
    {
      "reservedAddress": "0x4d926265171a1f652657ad79408eefbc60925665",
      "assetIds": [
        "55464657044963196816950587289035428064568320970692304673817341489687505668096"
      ],
      "assetValues": [
        1
      ]
    },
    {
      "reservedAddress": "0x4db1578cf389b1cda470c08e61c406f3e8bc2e7d",
      "assetIds": [
        "55464657044963196816950587289035428064568320970692304673817341489687505668096"
      ],
      "assetValues": [
        1
      ]
    },
    {
      "reservedAddress": "0x4dbea90381ceb21925eb0a9ca39d7300afb7e5e1",
      "assetIds": [
        "55464657044963196816950587289035428064568320970692304673817341489687505668096"
      ],
      "assetValues": [
        1
      ]
    },
    {
      "reservedAddress": "0x4dd44dba4e5e88497cf3906a101441ffc9031b3a",
      "assetIds": [
        "55464657044963196816950587289035428064568320970692304673817341489687505668096"
      ],
      "assetValues": [
        1
      ]
    },
    {
      "reservedAddress": "0x4e19b57891c522bda7865a8cf9e5be4e878d493e",
      "assetIds": [
        "55464657044963196816950587289035428064568320970692304673817341489687505668096"
      ],
      "assetValues": [
        1
      ]
    },
    {
      "reservedAddress": "0x4e39fde5cae83e1e0846f76883588d4edbf09d7f",
      "assetIds": [
        "55464657044963196816950587289035428064568320970692304673817341489687505668096"
      ],
      "assetValues": [
        1
      ]
    },
    {
      "reservedAddress": "0x4e48667041405dda7b507332bd02d101da62bc49",
      "assetIds": [
        "55464657044963196816950587289035428064568320970692304673817341489687505668096"
      ],
      "assetValues": [
        1
      ]
    },
    {
      "reservedAddress": "0x4e6524146d6ac59707ed1d5473ac2fd2a59131b4",
      "assetIds": [
        "55464657044963196816950587289035428064568320970692304673817341489687505668096"
      ],
      "assetValues": [
        1
      ]
    },
    {
      "reservedAddress": "0x4e66c8fea449d7ac5c2a55061c0fcf24c4106a9c",
      "assetIds": [
        "55464657044963196816950587289035428064568320970692304673817341489687505668096"
      ],
      "assetValues": [
        1
      ]
    },
    {
      "reservedAddress": "0x4e7d1c72c1a8e3d58bbc1a37079f2dad1153bf96",
      "assetIds": [
        "55464657044963196816950587289035428064568320970692304673817341489687505668096"
      ],
      "assetValues": [
        1
      ]
    },
    {
      "reservedAddress": "0x4e8ed6b5f603ab93478baf9c5be961528246a627",
      "assetIds": [
        "55464657044963196816950587289035428064568320970692304673817341489687505668096"
      ],
      "assetValues": [
        1
      ]
    },
    {
      "reservedAddress": "0x4ea867b30c228c8a334c1d27e37102ad1055db80",
      "assetIds": [
        "55464657044963196816950587289035428064568320970692304673817341489687505668096"
      ],
      "assetValues": [
        1
      ]
    },
    {
      "reservedAddress": "0x4ee53dc80f34f11c04feae937309727146f676ff",
      "assetIds": [
        "55464657044963196816950587289035428064568320970692304673817341489687505668096"
      ],
      "assetValues": [
        1
      ]
    },
    {
      "reservedAddress": "0x4ef1a210a74fdfd9cc7507924e918b0f5c392b24",
      "assetIds": [
        "55464657044963196816950587289035428064568320970692304673817341489687505668096"
      ],
      "assetValues": [
        1
      ]
    },
    {
      "reservedAddress": "0x4f090ef7d90fa8fe0ced60dd4159cfbaedf5fb5b",
      "assetIds": [
        "55464657044963196816950587289035428064568320970692304673817341489687505668096"
      ],
      "assetValues": [
        1
      ]
    },
    {
      "reservedAddress": "0x4f62b37b30ec6bd8a49e8c8a6328a3b4c725a418",
      "assetIds": [
        "55464657044963196816950587289035428064568320970692304673817341489687505668096"
      ],
      "assetValues": [
        1
      ]
    },
    {
      "reservedAddress": "0x4f6c282090e3c158ba609975f33e26d26c181778",
      "assetIds": [
        "55464657044963196816950587289035428064568320970692304673817341489687505668096"
      ],
      "assetValues": [
        1
      ]
    },
    {
      "reservedAddress": "0x4f6cb155b513c6b917beab345a01be235a2db28e",
      "assetIds": [
        "55464657044963196816950587289035428064568320970692304673817341489687505668096"
      ],
      "assetValues": [
        1
      ]
    },
    {
      "reservedAddress": "0x4f6f08eacf86cae54f869027a9691d8e5714989b",
      "assetIds": [
        "55464657044963196816950587289035428064568320970692304673817341489687505668096"
      ],
      "assetValues": [
        1
      ]
    },
    {
      "reservedAddress": "0x4f74a486087b968798df4d1edf084adff911b3cb",
      "assetIds": [
        "55464657044963196816950587289035428064568320970692304673817341489687505668096"
      ],
      "assetValues": [
        1
      ]
    },
    {
      "reservedAddress": "0x4f809effb315a91093169e17e6e1bf8f27889240",
      "assetIds": [
        "55464657044963196816950587289035428064568320970692304673817341489687505668096"
      ],
      "assetValues": [
        1
      ]
    },
    {
      "reservedAddress": "0x4f9acd5f9f890e99723337cb69a083b238eaf2b4",
      "assetIds": [
        "55464657044963196816950587289035428064568320970692304673817341489687505668096"
      ],
      "assetValues": [
        1
      ]
    },
    {
      "reservedAddress": "0x4f9c6c6fa887581261df60701d748c14c6e8357d",
      "assetIds": [
        "55464657044963196816950587289035428064568320970692304673817341489687505668096"
      ],
      "assetValues": [
        1
      ]
    },
    {
      "reservedAddress": "0x4fa2155f92f87936bd47a4d0cf36a5a29f6f0a3c",
      "assetIds": [
        "55464657044963196816950587289035428064568320970692304673817341489687505668096"
      ],
      "assetValues": [
        1
      ]
    },
    {
      "reservedAddress": "0x4fab345549c6c184b8b867a31a122c1bfb2d085a",
      "assetIds": [
        "55464657044963196816950587289035428064568320970692304673817341489687505668096"
      ],
      "assetValues": [
        1
      ]
    },
    {
      "reservedAddress": "0x4fc53fa856a6a353aeaae7e1395949863026ef82",
      "assetIds": [
        "55464657044963196816950587289035428064568320970692304673817341489687505668096"
      ],
      "assetValues": [
        1
      ]
    },
    {
      "reservedAddress": "0x4fc8b0dcd38418422b1ac10ac35761877c52933a",
      "assetIds": [
        "55464657044963196816950587289035428064568320970692304673817341489687505668096"
      ],
      "assetValues": [
        1
      ]
    },
    {
      "reservedAddress": "0x4fcf49551eff7cc6b1f755c97c267059ca1cdc93",
      "assetIds": [
        "55464657044963196816950587289035428064568320970692304673817341489687505668096"
      ],
      "assetValues": [
        1
      ]
    },
    {
      "reservedAddress": "0x4fd626dfca943e380cadad02e65349b83ede4a7c",
      "assetIds": [
        "55464657044963196816950587289035428064568320970692304673817341489687505668096"
      ],
      "assetValues": [
        1
      ]
    },
    {
      "reservedAddress": "0x500464592ae136a888dbf8c3957a212be98c651d",
      "assetIds": [
        "55464657044963196816950587289035428064568320970692304673817341489687505668096"
      ],
      "assetValues": [
        1
      ]
    },
    {
      "reservedAddress": "0x50171dbff81287abc2153e1a4bf2cee98a094b16",
      "assetIds": [
        "55464657044963196816950587289035428064568320970692304673817341489687505668096"
      ],
      "assetValues": [
        1
      ]
    },
    {
      "reservedAddress": "0x5029c43bcb0ba8bd6e94845abd2aa5fbbd6e33db",
      "assetIds": [
        "55464657044963196816950587289035428064568320970692304673817341489687505668096"
      ],
      "assetValues": [
        1
      ]
    },
    {
      "reservedAddress": "0x503a15c27c23cef0c05aae6371a4a3079e531c7d",
      "assetIds": [
        "55464657044963196816950587289035428064568320970692304673817341489687505668096"
      ],
      "assetValues": [
        1
      ]
    },
    {
      "reservedAddress": "0x503ad4023c27efdab0bbc2c5fbb184b04e60ca60",
      "assetIds": [
        "55464657044963196816950587289035428064568320970692304673817341489687505668096"
      ],
      "assetValues": [
        1
      ]
    },
    {
      "reservedAddress": "0x50491bf5d8ea8d23aadeb482be496590dab34fb7",
      "assetIds": [
        "55464657044963196816950587289035428064568320970692304673817341489687505668096"
      ],
      "assetValues": [
        1
      ]
    },
    {
      "reservedAddress": "0x50512e647cee22c69485769ac2315aeb647aeb3b",
      "assetIds": [
        "55464657044963196816950587289035428064568320970692304673817341489687505668096"
      ],
      "assetValues": [
        1
      ]
    },
    {
      "reservedAddress": "0x5053b1ffb0fcec081a8fa9d66a48900b467529b4",
      "assetIds": [
        "55464657044963196816950587289035428064568320970692304673817341489687505668096"
      ],
      "assetValues": [
        1
      ]
    },
    {
      "reservedAddress": "0x50912dbfc6c94cb0c3f7657e1c06734524d14777",
      "assetIds": [
        "55464657044963196816950587289035428064568320970692304673817341489687505668096"
      ],
      "assetValues": [
        1
      ]
    },
    {
      "reservedAddress": "0x509ba648cba379d1d2a74552c40e8b8e3e1c5ded",
      "assetIds": [
        "55464657044963196816950587289035428064568320970692304673817341489687505668096"
      ],
      "assetValues": [
        1
      ]
    },
    {
      "reservedAddress": "0x509f7307dede86bbbd6b1bd8a4e51fabc36f0532",
      "assetIds": [
        "55464657044963196816950587289035428064568320970692304673817341489687505668096"
      ],
      "assetValues": [
        1
      ]
    },
    {
      "reservedAddress": "0x50c1293794c0e9f626ad3b9ac2a7631e36420502",
      "assetIds": [
        "55464657044963196816950587289035428064568320970692304673817341489687505668096"
      ],
      "assetValues": [
        1
      ]
    },
    {
      "reservedAddress": "0x50cfa0083494e54dd96d488373e2c4da7a1a6937",
      "assetIds": [
        "55464657044963196816950587289035428064568320970692304673817341489687505668096"
      ],
      "assetValues": [
        1
      ]
    },
    {
      "reservedAddress": "0x50de30c4b3e8c5d734b51a2643a36bbf07cd9018",
      "assetIds": [
        "55464657044963196816950587289035428064568320970692304673817341489687505668096"
      ],
      "assetValues": [
        1
      ]
    },
    {
      "reservedAddress": "0x50fc4c16a1af1633980f8effc45d66ebbd0f64a9",
      "assetIds": [
        "55464657044963196816950587289035428064568320970692304673817341489687505668096"
      ],
      "assetValues": [
        1
      ]
    },
    {
      "reservedAddress": "0x5100468941b3646e00e7c28d39945118abecb39d",
      "assetIds": [
        "55464657044963196816950587289035428064568320970692304673817341489687505668096"
      ],
      "assetValues": [
        1
      ]
    },
    {
      "reservedAddress": "0x5131228eb37cce3afe3e39817aa203b4e3891ff3",
      "assetIds": [
        "55464657044963196816950587289035428064568320970692304673817341489687505668096"
      ],
      "assetValues": [
        1
      ]
    },
    {
      "reservedAddress": "0x5136893e934a841bc4eaa096405253ceaf389c24",
      "assetIds": [
        "55464657044963196816950587289035428064568320970692304673817341489687505668096"
      ],
      "assetValues": [
        1
      ]
    },
    {
      "reservedAddress": "0x5139c2d023c638a5f5190858b2ba4886873ed027",
      "assetIds": [
        "55464657044963196816950587289035428064568320970692304673817341489687505668096"
      ],
      "assetValues": [
        1
      ]
    },
    {
      "reservedAddress": "0x513b3bc00b690c15b0a0f45621f282634f69edb3",
      "assetIds": [
        "55464657044963196816950587289035428064568320970692304673817341489687505668096"
      ],
      "assetValues": [
        1
      ]
    },
    {
      "reservedAddress": "0x514ab2aa447cdfec55dd63a8ea413d0976243b2d",
      "assetIds": [
        "55464657044963196816950587289035428064568320970692304673817341489687505668096"
      ],
      "assetValues": [
        1
      ]
    },
    {
      "reservedAddress": "0x514d497caa97973f6c47611bbbd4ac554132140f",
      "assetIds": [
        "55464657044963196816950587289035428064568320970692304673817341489687505668096"
      ],
      "assetValues": [
        1
      ]
    },
    {
      "reservedAddress": "0x516634b308319743f5192e3e54f68041239e8fe8",
      "assetIds": [
        "55464657044963196816950587289035428064568320970692304673817341489687505668096"
      ],
      "assetValues": [
        1
      ]
    },
    {
      "reservedAddress": "0x5169a46cf0b99c0c1e8d078d3b9f9b6ed9a215ea",
      "assetIds": [
        "55464657044963196816950587289035428064568320970692304673817341489687505668096"
      ],
      "assetValues": [
        1
      ]
    },
    {
      "reservedAddress": "0x517ff5b16c6059a5d9957420ccd05d7c8cabd9fb",
      "assetIds": [
        "55464657044963196816950587289035428064568320970692304673817341489687505668096"
      ],
      "assetValues": [
        1
      ]
    },
    {
      "reservedAddress": "0x51b038b9f6f6c1b6bc5acf1c89f4663432cc457d",
      "assetIds": [
        "55464657044963196816950587289035428064568320970692304673817341489687505668096"
      ],
      "assetValues": [
        1
      ]
    },
    {
      "reservedAddress": "0x51e4f595302818152ec84710787395d04a7d0e3c",
      "assetIds": [
        "55464657044963196816950587289035428064568320970692304673817341489687505668096"
      ],
      "assetValues": [
        1
      ]
    },
    {
      "reservedAddress": "0x51e9047a6bbec3c2a4c03c27382381b129e99e0e",
      "assetIds": [
        "55464657044963196816950587289035428064568320970692304673817341489687505668096"
      ],
      "assetValues": [
        1
      ]
    },
    {
      "reservedAddress": "0x52029325ab640c933e86fea95002c1b9a774a6b5",
      "assetIds": [
        "55464657044963196816950587289035428064568320970692304673817341489687505668096"
      ],
      "assetValues": [
        1
      ]
    },
    {
      "reservedAddress": "0x520d9567cd51a1ff7babb9139ecc63d8923c3252",
      "assetIds": [
        "55464657044963196816950587289035428064568320970692304673817341489687505668096"
      ],
      "assetValues": [
        1
      ]
    },
    {
      "reservedAddress": "0x5219b536f19651a008a366ed05bbbdcf013d2ae6",
      "assetIds": [
        "55464657044963196816950587289035428064568320970692304673817341489687505668096"
      ],
      "assetValues": [
        1
      ]
    },
    {
      "reservedAddress": "0x5221ba17aaa5719f39543aa02e32a6eb0c5f268f",
      "assetIds": [
        "55464657044963196816950587289035428064568320970692304673817341489687505668096"
      ],
      "assetValues": [
        1
      ]
    },
    {
      "reservedAddress": "0x52485ad4bf241105eea91126a76447ef87b4b55f",
      "assetIds": [
        "55464657044963196816950587289035428064568320970692304673817341489687505668096"
      ],
      "assetValues": [
        1
      ]
    },
    {
      "reservedAddress": "0x526f8b78387f153b038d6cc0fc69c1d63c75fe2a",
      "assetIds": [
        "55464657044963196816950587289035428064568320970692304673817341489687505668096"
      ],
      "assetValues": [
        1
      ]
    },
    {
      "reservedAddress": "0x52797a996f09e9467ab0754d3b3f5aee9e0df24d",
      "assetIds": [
        "55464657044963196816950587289035428064568320970692304673817341489687505668096"
      ],
      "assetValues": [
        1
      ]
    },
    {
      "reservedAddress": "0x5287f1fb8cc0d73f3e8c896a8c02a1d4e190b931",
      "assetIds": [
        "55464657044963196816950587289035428064568320970692304673817341489687505668096"
      ],
      "assetValues": [
        1
      ]
    },
    {
      "reservedAddress": "0x529202d3d171c0451b8186a9c90dfa3ab5ec62c6",
      "assetIds": [
        "55464657044963196816950587289035428064568320970692304673817341489687505668096"
      ],
      "assetValues": [
        1
      ]
    },
    {
      "reservedAddress": "0x52c2d084e523463f9e287f9b6aa85764cfd88f18",
      "assetIds": [
        "55464657044963196816950587289035428064568320970692304673817341489687505668096"
      ],
      "assetValues": [
        1
      ]
    },
    {
      "reservedAddress": "0x52f658f09f78bd8153beae59fb3099c2fb629fc2",
      "assetIds": [
        "55464657044963196816950587289035428064568320970692304673817341489687505668096"
      ],
      "assetValues": [
        1
      ]
    },
    {
      "reservedAddress": "0x533bbc6399315b1eb3f17f20548f93b50c13d3cf",
      "assetIds": [
        "55464657044963196816950587289035428064568320970692304673817341489687505668096"
      ],
      "assetValues": [
        1
      ]
    },
    {
      "reservedAddress": "0x538cc5a2aa2ce07e45c825a74d77a1877ad692a5",
      "assetIds": [
        "55464657044963196816950587289035428064568320970692304673817341489687505668096"
      ],
      "assetValues": [
        1
      ]
    },
    {
      "reservedAddress": "0x53941f4955fe7837cb9a2e923e5843d36dd5ce8b",
      "assetIds": [
        "55464657044963196816950587289035428064568320970692304673817341489687505668096"
      ],
      "assetValues": [
        1
      ]
    },
    {
      "reservedAddress": "0x539c82d5cb886c94dd3e2d76dd5c73936c1cf391",
      "assetIds": [
        "55464657044963196816950587289035428064568320970692304673817341489687505668096"
      ],
      "assetValues": [
        1
      ]
    },
    {
      "reservedAddress": "0x539e3023d19b662679e2c483cc2b419ded5aeb6e",
      "assetIds": [
        "55464657044963196816950587289035428064568320970692304673817341489687505668096"
      ],
      "assetValues": [
        1
      ]
    },
    {
      "reservedAddress": "0x539edd96b903c6bfda5a54a28a74a85432309a88",
      "assetIds": [
        "55464657044963196816950587289035428064568320970692304673817341489687505668096"
      ],
      "assetValues": [
        1
      ]
    },
    {
      "reservedAddress": "0x53b49e42d7e77cf6bd8fbf7b3627e8dc0b7d20c6",
      "assetIds": [
        "55464657044963196816950587289035428064568320970692304673817341489687505668096"
      ],
      "assetValues": [
        1
      ]
    },
    {
      "reservedAddress": "0x53fe88ceb39f23db1fcd4d6beb55965f6ac1764f",
      "assetIds": [
        "55464657044963196816950587289035428064568320970692304673817341489687505668096"
      ],
      "assetValues": [
        1
      ]
    },
    {
      "reservedAddress": "0x5402f369cfb8dbeb3d34f2f0f0097a2e20f709e8",
      "assetIds": [
        "55464657044963196816950587289035428064568320970692304673817341489687505668096"
      ],
      "assetValues": [
        1
      ]
    },
    {
      "reservedAddress": "0x5425a2d66764576a9c6dcd6d64371d314c6a8a30",
      "assetIds": [
        "55464657044963196816950587289035428064568320970692304673817341489687505668096"
      ],
      "assetValues": [
        1
      ]
    },
    {
      "reservedAddress": "0x543408d60396ab09ccee05ef236e763eb765efcc",
      "assetIds": [
        "55464657044963196816950587289035428064568320970692304673817341489687505668096"
      ],
      "assetValues": [
        1
      ]
    },
    {
      "reservedAddress": "0x543a3db2fe608ceff8131c8171dad8aea8b466c1",
      "assetIds": [
        "55464657044963196816950587289035428064568320970692304673817341489687505668096"
      ],
      "assetValues": [
        1
      ]
    },
    {
      "reservedAddress": "0x543a85ce5e13085b55eb17174a702243b245b22d",
      "assetIds": [
        "55464657044963196816950587289035428064568320970692304673817341489687505668096"
      ],
      "assetValues": [
        1
      ]
    },
    {
      "reservedAddress": "0x543de85ab0ebd50f271e313a13aef1878d1bb5da",
      "assetIds": [
        "55464657044963196816950587289035428064568320970692304673817341489687505668096"
      ],
      "assetValues": [
        1
      ]
    },
    {
      "reservedAddress": "0x544327173f818b2e06c751d131b5906878effcee",
      "assetIds": [
        "55464657044963196816950587289035428064568320970692304673817341489687505668096"
      ],
      "assetValues": [
        1
      ]
    },
    {
      "reservedAddress": "0x544bc024fd61e27b5002cffe446e52f2c5fbd9c7",
      "assetIds": [
        "55464657044963196816950587289035428064568320970692304673817341489687505668096"
      ],
      "assetValues": [
        1
      ]
    },
    {
      "reservedAddress": "0x54637365a3a11d2419addd73f987cc191ab35bc6",
      "assetIds": [
        "55464657044963196816950587289035428064568320970692304673817341489687505668096"
      ],
      "assetValues": [
        1
      ]
    },
    {
      "reservedAddress": "0x54665e2f0ce5c873879316fcd19af0d16798df8c",
      "assetIds": [
        "55464657044963196816950587289035428064568320970692304673817341489687505668096"
      ],
      "assetValues": [
        1
      ]
    },
    {
      "reservedAddress": "0x547f5b802486e881d4805aa9605e3d67e52a8904",
      "assetIds": [
        "55464657044963196816950587289035428064568320970692304673817341489687505668096"
      ],
      "assetValues": [
        1
      ]
    },
    {
      "reservedAddress": "0x54c3b62a768518dfd5ffe9fe7985908c0f3bb0d3",
      "assetIds": [
        "55464657044963196816950587289035428064568320970692304673817341489687505668096"
      ],
      "assetValues": [
        1
      ]
    },
    {
      "reservedAddress": "0x55039918028671a775225cb3616b469a246420ae",
      "assetIds": [
        "55464657044963196816950587289035428064568320970692304673817341489687505668096"
      ],
      "assetValues": [
        1
      ]
    },
    {
      "reservedAddress": "0x55192c02123f41cc84c04a5c6f3f002a005337b1",
      "assetIds": [
        "55464657044963196816950587289035428064568320970692304673817341489687505668096"
      ],
      "assetValues": [
        1
      ]
    },
    {
      "reservedAddress": "0x553475a59ce3d35793aa681b27e0bcf8630ee5ed",
      "assetIds": [
        "55464657044963196816950587289035428064568320970692304673817341489687505668096"
      ],
      "assetValues": [
        1
      ]
    },
    {
      "reservedAddress": "0x553e12b4b9400484103e1722542c86cf96a8f705",
      "assetIds": [
        "55464657044963196816950587289035428064568320970692304673817341489687505668096"
      ],
      "assetValues": [
        1
      ]
    },
    {
      "reservedAddress": "0x555f8816b3c7bb57bede05262cc98b646b9b494f",
      "assetIds": [
        "55464657044963196816950587289035428064568320970692304673817341489687505668096"
      ],
      "assetValues": [
        1
      ]
    },
    {
      "reservedAddress": "0x557fd9ced4e009bcedf57d81b5cd7655d9d52277",
      "assetIds": [
        "55464657044963196816950587289035428064568320970692304673817341489687505668096"
      ],
      "assetValues": [
        1
      ]
    },
    {
      "reservedAddress": "0x559486ff26f9abccb0c6db85a4b6d35991176701",
      "assetIds": [
        "55464657044963196816950587289035428064568320970692304673817341489687505668096"
      ],
      "assetValues": [
        1
      ]
    },
    {
      "reservedAddress": "0x55b71dbfbfd8809ce26574f78f3b7dc599ee06d5",
      "assetIds": [
        "55464657044963196816950587289035428064568320970692304673817341489687505668096"
      ],
      "assetValues": [
        1
      ]
    },
    {
      "reservedAddress": "0x55bea662230fb81c4d056aed391ec573477427f7",
      "assetIds": [
        "55464657044963196816950587289035428064568320970692304673817341489687505668096"
      ],
      "assetValues": [
        1
      ]
    },
    {
      "reservedAddress": "0x561f65f19bd1b802ff8e10ea06f0e5b06a4a02aa",
      "assetIds": [
        "55464657044963196816950587289035428064568320970692304673817341489687505668096"
      ],
      "assetValues": [
        1
      ]
    },
    {
      "reservedAddress": "0x563153823d702516f92fc24edd9358d6973f60f9",
      "assetIds": [
        "55464657044963196816950587289035428064568320970692304673817341489687505668096"
      ],
      "assetValues": [
        1
      ]
    },
    {
      "reservedAddress": "0x5641f7cc35adfd8e934515bae0c7c190eb63e519",
      "assetIds": [
        "55464657044963196816950587289035428064568320970692304673817341489687505668096"
      ],
      "assetValues": [
        1
      ]
    },
    {
      "reservedAddress": "0x564cfe21109f3d3099327907949871244419d139",
      "assetIds": [
        "55464657044963196816950587289035428064568320970692304673817341489687505668096"
      ],
      "assetValues": [
        1
      ]
    },
    {
      "reservedAddress": "0x56610aeee7a6f5ead02c6833a95cdbbdac7e17d9",
      "assetIds": [
        "55464657044963196816950587289035428064568320970692304673817341489687505668096"
      ],
      "assetValues": [
        1
      ]
    },
    {
      "reservedAddress": "0x569aa6d2bdbbf19da1eeee239b1526a855613981",
      "assetIds": [
        "55464657044963196816950587289035428064568320970692304673817341489687505668096"
      ],
      "assetValues": [
        1
      ]
    },
    {
      "reservedAddress": "0x56b899b143e703d5451be45f1b591928697c8365",
      "assetIds": [
        "55464657044963196816950587289035428064568320970692304673817341489687505668096"
      ],
      "assetValues": [
        1
      ]
    },
    {
      "reservedAddress": "0x573348fc35bae6716a0d67641a49cfa1797ed609",
      "assetIds": [
        "55464657044963196816950587289035428064568320970692304673817341489687505668096"
      ],
      "assetValues": [
        1
      ]
    },
    {
      "reservedAddress": "0x574319e245428c9f064006e49ad5f83947f763ec",
      "assetIds": [
        "55464657044963196816950587289035428064568320970692304673817341489687505668096"
      ],
      "assetValues": [
        1
      ]
    },
    {
      "reservedAddress": "0x5764cbd2f30ba9e9efcb46e15071df72a726fa30",
      "assetIds": [
        "55464657044963196816950587289035428064568320970692304673817341489687505668096"
      ],
      "assetValues": [
        1
      ]
    },
    {
      "reservedAddress": "0x57b02c630e4d43575081b18702699d887da3a2e6",
      "assetIds": [
        "55464657044963196816950587289035428064568320970692304673817341489687505668096"
      ],
      "assetValues": [
        1
      ]
    },
    {
      "reservedAddress": "0x57b750ba1bb2e7db8423186c959bb55c1eae5767",
      "assetIds": [
        "55464657044963196816950587289035428064568320970692304673817341489687505668096"
      ],
      "assetValues": [
        1
      ]
    },
    {
      "reservedAddress": "0x57c8bcc1c4af411d996a6317971b9b44439c9b75",
      "assetIds": [
        "55464657044963196816950587289035428064568320970692304673817341489687505668096"
      ],
      "assetValues": [
        1
      ]
    },
    {
      "reservedAddress": "0x57f0e4d183d8bb46383800c20b5816d0780af6ce",
      "assetIds": [
        "55464657044963196816950587289035428064568320970692304673817341489687505668096"
      ],
      "assetValues": [
        1
      ]
    },
    {
      "reservedAddress": "0x5802d51d7008fbfaa3df9baaf03663934c498064",
      "assetIds": [
        "55464657044963196816950587289035428064568320970692304673817341489687505668096"
      ],
      "assetValues": [
        1
      ]
    },
    {
      "reservedAddress": "0x581417f2ae6793c605f0d31a22d049c69ce4626d",
      "assetIds": [
        "55464657044963196816950587289035428064568320970692304673817341489687505668096"
      ],
      "assetValues": [
        1
      ]
    },
    {
      "reservedAddress": "0x5833ea6ad45bc5aade698b594d44a56dff5d697e",
      "assetIds": [
        "55464657044963196816950587289035428064568320970692304673817341489687505668096"
      ],
      "assetValues": [
        1
      ]
    },
    {
      "reservedAddress": "0x583d37df0965d651ca698398ea0a7ac3cd059ea7",
      "assetIds": [
        "55464657044963196816950587289035428064568320970692304673817341489687505668096"
      ],
      "assetValues": [
        1
      ]
    },
    {
      "reservedAddress": "0x5844615552283374dd1ba95ec54bf83fae63ff10",
      "assetIds": [
        "55464657044963196816950587289035428064568320970692304673817341489687505668096"
      ],
      "assetValues": [
        1
      ]
    },
    {
      "reservedAddress": "0x585b9d98571c905c35426a64d121aae645a7f8df",
      "assetIds": [
        "55464657044963196816950587289035428064568320970692304673817341489687505668096"
      ],
      "assetValues": [
        1
      ]
    },
    {
      "reservedAddress": "0x587a533ae239db6d5efad5b9906a4a4b2803951b",
      "assetIds": [
        "55464657044963196816950587289035428064568320970692304673817341489687505668096"
      ],
      "assetValues": [
        1
      ]
    },
    {
      "reservedAddress": "0x588dd4fcfea9fc6d4e24cb905b01782e47f217a6",
      "assetIds": [
        "55464657044963196816950587289035428064568320970692304673817341489687505668096"
      ],
      "assetValues": [
        1
      ]
    },
    {
      "reservedAddress": "0x58a11a82ad2deed98bf47028aaa8521b819fc14f",
      "assetIds": [
        "55464657044963196816950587289035428064568320970692304673817341489687505668096"
      ],
      "assetValues": [
        1
      ]
    },
    {
      "reservedAddress": "0x58a918ad52e995966d13e115b5f33c7d7001abe8",
      "assetIds": [
        "55464657044963196816950587289035428064568320970692304673817341489687505668096"
      ],
      "assetValues": [
        1
      ]
    },
    {
      "reservedAddress": "0x58d0f3da9c97de3c39f481e146f3568081d328a2",
      "assetIds": [
        "55464657044963196816950587289035428064568320970692304673817341489687505668096"
      ],
      "assetValues": [
        1
      ]
    },
    {
      "reservedAddress": "0x58e2fd7f4ef9f1d56b7b02d9528616fa11a67e4b",
      "assetIds": [
        "55464657044963196816950587289035428064568320970692304673817341489687505668096"
      ],
      "assetValues": [
        1
      ]
    },
    {
      "reservedAddress": "0x58e866691b3a36ad01a012f1e41b719de500f324",
      "assetIds": [
        "55464657044963196816950587289035428064568320970692304673817341489687505668096"
      ],
      "assetValues": [
        1
      ]
    },
    {
      "reservedAddress": "0x58f49b2e443caca27e90d0d3dc1bf80536f46884",
      "assetIds": [
        "55464657044963196816950587289035428064568320970692304673817341489687505668096"
      ],
      "assetValues": [
        1
      ]
    },
    {
      "reservedAddress": "0x58f80f39d948c69c09a11eefa17d06e4139bf7d7",
      "assetIds": [
        "55464657044963196816950587289035428064568320970692304673817341489687505668096"
      ],
      "assetValues": [
        1
      ]
    },
    {
      "reservedAddress": "0x5922233a62ed0ac08eb3d7d2ca3bd2f1080a81fe",
      "assetIds": [
        "55464657044963196816950587289035428064568320970692304673817341489687505668096"
      ],
      "assetValues": [
        1
      ]
    },
    {
      "reservedAddress": "0x593dc372ce1775094664d0158105cc0dc59231a6",
      "assetIds": [
        "55464657044963196816950587289035428064568320970692304673817341489687505668096"
      ],
      "assetValues": [
        1
      ]
    },
    {
      "reservedAddress": "0x596248e101ae4add17edf1217e9e2c5422528b0b",
      "assetIds": [
        "55464657044963196816950587289035428064568320970692304673817341489687505668096"
      ],
      "assetValues": [
        1
      ]
    },
    {
      "reservedAddress": "0x598dd22d2d0e6c3b71e610c1dc11e9524f2a8bbb",
      "assetIds": [
        "55464657044963196816950587289035428064568320970692304673817341489687505668096"
      ],
      "assetValues": [
        1
      ]
    },
    {
      "reservedAddress": "0x5990491f5d359e4043d126c36b03cf58146e3dda",
      "assetIds": [
        "55464657044963196816950587289035428064568320970692304673817341489687505668096"
      ],
      "assetValues": [
        1
      ]
    },
    {
      "reservedAddress": "0x5991d5212e4ff8ae5f2e218407e697ee345f3cff",
      "assetIds": [
        "55464657044963196816950587289035428064568320970692304673817341489687505668096"
      ],
      "assetValues": [
        1
      ]
    },
    {
      "reservedAddress": "0x599f5a9749078cf39685815a88f8e3ceec2f27b6",
      "assetIds": [
        "55464657044963196816950587289035428064568320970692304673817341489687505668096"
      ],
      "assetValues": [
        1
      ]
    },
    {
      "reservedAddress": "0x59cfa1d0b007c78069d425f90227e001ce746b4d",
      "assetIds": [
        "55464657044963196816950587289035428064568320970692304673817341489687505668096"
      ],
      "assetValues": [
        1
      ]
    },
    {
      "reservedAddress": "0x59d7f06ff6584f3a643ece51576a224b3052a431",
      "assetIds": [
        "55464657044963196816950587289035428064568320970692304673817341489687505668096"
      ],
      "assetValues": [
        1
      ]
    },
    {
      "reservedAddress": "0x5a001b0334cc3a38c40afd5824ae8d9740064839",
      "assetIds": [
        "55464657044963196816950587289035428064568320970692304673817341489687505668096"
      ],
      "assetValues": [
        1
      ]
    },
    {
      "reservedAddress": "0x5a048b01339aa42d48cac097ecb918f762491489",
      "assetIds": [
        "55464657044963196816950587289035428064568320970692304673817341489687505668096"
      ],
      "assetValues": [
        1
      ]
    },
    {
      "reservedAddress": "0x5a2bf6bd68641fa53eb32d6d6dc6279337a6cf79",
      "assetIds": [
        "55464657044963196816950587289035428064568320970692304673817341489687505668096"
      ],
      "assetValues": [
        1
      ]
    },
    {
      "reservedAddress": "0x5a2fb2500cdcdb06b5b2155e0e00300ff72aeacb",
      "assetIds": [
        "55464657044963196816950587289035428064568320970692304673817341489687505668096"
      ],
      "assetValues": [
        1
      ]
    },
    {
      "reservedAddress": "0x5a44e481928eb4ae535c04c3e3cd5c4d6585dd85",
      "assetIds": [
        "55464657044963196816950587289035428064568320970692304673817341489687505668096"
      ],
      "assetValues": [
        1
      ]
    },
    {
      "reservedAddress": "0x5a79dfc0d0d4e3e13fb19ef05b40fd420de517c0",
      "assetIds": [
        "55464657044963196816950587289035428064568320970692304673817341489687505668096"
      ],
      "assetValues": [
        1
      ]
    },
    {
      "reservedAddress": "0x5a8c9e714082f1af7eb9d12600fbcfb91dfe2258",
      "assetIds": [
        "55464657044963196816950587289035428064568320970692304673817341489687505668096"
      ],
      "assetValues": [
        1
      ]
    },
    {
      "reservedAddress": "0x5a8e28be7e9527c350913b9724b3307705b1561e",
      "assetIds": [
        "55464657044963196816950587289035428064568320970692304673817341489687505668096"
      ],
      "assetValues": [
        1
      ]
    },
    {
      "reservedAddress": "0x5a91e9bc958fceed132d49835fe1e28083eeaa06",
      "assetIds": [
        "55464657044963196816950587289035428064568320970692304673817341489687505668096"
      ],
      "assetValues": [
        1
      ]
    },
    {
      "reservedAddress": "0x5a95cd3ed06399249a78ae10ab6d6be3b3ae8ca2",
      "assetIds": [
        "55464657044963196816950587289035428064568320970692304673817341489687505668096"
      ],
      "assetValues": [
        1
      ]
    },
    {
      "reservedAddress": "0x5ab5844dd55ab73212d1527e4cf72fea884e39dd",
      "assetIds": [
        "55464657044963196816950587289035428064568320970692304673817341489687505668096"
      ],
      "assetValues": [
        1
      ]
    },
    {
      "reservedAddress": "0x5abdc3cb826fc0277d642c9fb52fa76fe3abb4e7",
      "assetIds": [
        "55464657044963196816950587289035428064568320970692304673817341489687505668096"
      ],
      "assetValues": [
        1
      ]
    },
    {
      "reservedAddress": "0x5abeef2611aeb90e11761a88f0c828764e949c7e",
      "assetIds": [
        "55464657044963196816950587289035428064568320970692304673817341489687505668096"
      ],
      "assetValues": [
        1
      ]
    },
    {
      "reservedAddress": "0x5ac6f09664b0cf3930ccbd9690ffc2a61c8e231e",
      "assetIds": [
        "55464657044963196816950587289035428064568320970692304673817341489687505668096"
      ],
      "assetValues": [
        1
      ]
    },
    {
      "reservedAddress": "0x5acb779b37522d00bf3cb38acb3aa23466d367c0",
      "assetIds": [
        "55464657044963196816950587289035428064568320970692304673817341489687505668096"
      ],
      "assetValues": [
        1
      ]
    },
    {
      "reservedAddress": "0x5aeedbc6b655c13950f32e5e8a0760d15bbe0afb",
      "assetIds": [
        "55464657044963196816950587289035428064568320970692304673817341489687505668096"
      ],
      "assetValues": [
        1
      ]
    },
    {
      "reservedAddress": "0x5b12015679e3a5fc58f2693062180a22b74a054d",
      "assetIds": [
        "55464657044963196816950587289035428064568320970692304673817341489687505668096"
      ],
      "assetValues": [
        1
      ]
    },
    {
      "reservedAddress": "0x5b54ff98e4210af295afea9150164e5d4c0c798f",
      "assetIds": [
        "55464657044963196816950587289035428064568320970692304673817341489687505668096"
      ],
      "assetValues": [
        1
      ]
    },
    {
      "reservedAddress": "0x5b75314698a0ff7f732430e8152772cdaec4eb67",
      "assetIds": [
        "55464657044963196816950587289035428064568320970692304673817341489687505668096"
      ],
      "assetValues": [
        1
      ]
    },
    {
      "reservedAddress": "0x5b93ff82faaf241c15997ea3975419dddd8362c5",
      "assetIds": [
        "55464657044963196816950587289035428064568320970692304673817341489687505668096"
      ],
      "assetValues": [
        1
      ]
    },
    {
      "reservedAddress": "0x5ba3e11abf8c93186637847ec590fcd3aa588bd2",
      "assetIds": [
        "55464657044963196816950587289035428064568320970692304673817341489687505668096"
      ],
      "assetValues": [
        1
      ]
    },
    {
      "reservedAddress": "0x5bac474d07c0d154a6ff8ad3291c76dd52f57a21",
      "assetIds": [
        "55464657044963196816950587289035428064568320970692304673817341489687505668096"
      ],
      "assetValues": [
        1
      ]
    },
    {
      "reservedAddress": "0x5be53d1bab5be6af6ea60f337b7d6fbfbf2b7a78",
      "assetIds": [
        "55464657044963196816950587289035428064568320970692304673817341489687505668096"
      ],
      "assetValues": [
        1
      ]
    },
    {
      "reservedAddress": "0x5be8a6315b9c0d002f67fdc77b2d5d4a898a7c0d",
      "assetIds": [
        "55464657044963196816950587289035428064568320970692304673817341489687505668096"
      ],
      "assetValues": [
        1
      ]
    },
    {
      "reservedAddress": "0x5be9f49f0fb6a308f3cf63ce165f6a999662e14c",
      "assetIds": [
        "55464657044963196816950587289035428064568320970692304673817341489687505668096"
      ],
      "assetValues": [
        1
      ]
    },
    {
      "reservedAddress": "0x5bf834ed10a0e980da72bd9a47df62e9dc61610f",
      "assetIds": [
        "55464657044963196816950587289035428064568320970692304673817341489687505668096"
      ],
      "assetValues": [
        1
      ]
    },
    {
      "reservedAddress": "0x5bff7766fe10f00b3b78c709590e27dac474bc9a",
      "assetIds": [
        "55464657044963196816950587289035428064568320970692304673817341489687505668096"
      ],
      "assetValues": [
        1
      ]
    },
    {
      "reservedAddress": "0x5c05da96f7b41e9b09660cc56f8e74dc7dcfa04a",
      "assetIds": [
        "55464657044963196816950587289035428064568320970692304673817341489687505668096"
      ],
      "assetValues": [
        1
      ]
    },
    {
      "reservedAddress": "0x5c2872be9bcca3e1c5be07a43243ce825b15f5eb",
      "assetIds": [
        "55464657044963196816950587289035428064568320970692304673817341489687505668096"
      ],
      "assetValues": [
        1
      ]
    },
    {
      "reservedAddress": "0x5c2b25c2fd3bd98f6ed0628238077f84916ea74a",
      "assetIds": [
        "55464657044963196816950587289035428064568320970692304673817341489687505668096"
      ],
      "assetValues": [
        1
      ]
    },
    {
      "reservedAddress": "0x5c31a139ba273ebad8d1b1ae22e4617ec0f32d4c",
      "assetIds": [
        "55464657044963196816950587289035428064568320970692304673817341489687505668096"
      ],
      "assetValues": [
        1
      ]
    },
    {
      "reservedAddress": "0x5c34f8e345908ae60b2b40658150156d949b64bb",
      "assetIds": [
        "55464657044963196816950587289035428064568320970692304673817341489687505668096"
      ],
      "assetValues": [
        1
      ]
    },
    {
      "reservedAddress": "0x5c4eab549a528bf15c47a01e174500010997235c",
      "assetIds": [
        "55464657044963196816950587289035428064568320970692304673817341489687505668096"
      ],
      "assetValues": [
        1
      ]
    },
    {
      "reservedAddress": "0x5c5f2d6b503ff195cb989cbcfe73d92858c491a9",
      "assetIds": [
        "55464657044963196816950587289035428064568320970692304673817341489687505668096"
      ],
      "assetValues": [
        1
      ]
    },
    {
      "reservedAddress": "0x5c888c980ad32ca97af5331fc7584a5ca97778b4",
      "assetIds": [
        "55464657044963196816950587289035428064568320970692304673817341489687505668096"
      ],
      "assetValues": [
        1
      ]
    },
    {
      "reservedAddress": "0x5ca323d77930c84524e9b06b20c5027ec4e54480",
      "assetIds": [
        "55464657044963196816950587289035428064568320970692304673817341489687505668096"
      ],
      "assetValues": [
        1
      ]
    },
    {
      "reservedAddress": "0x5cd20f7dcc6e923596777d5f69797ca457a690da",
      "assetIds": [
        "55464657044963196816950587289035428064568320970692304673817341489687505668096"
      ],
      "assetValues": [
        1
      ]
    },
    {
      "reservedAddress": "0x5cd479c2b35ead13d7bd6d90b4009146e18b1605",
      "assetIds": [
        "55464657044963196816950587289035428064568320970692304673817341489687505668096"
      ],
      "assetValues": [
        1
      ]
    },
    {
      "reservedAddress": "0x5cf7dc37d8872b417b15df399671435fa6029e46",
      "assetIds": [
        "55464657044963196816950587289035428064568320970692304673817341489687505668096"
      ],
      "assetValues": [
        1
      ]
    },
    {
      "reservedAddress": "0x5d264e24cbade84e149aa87e3338cfd9720cbb0b",
      "assetIds": [
        "55464657044963196816950587289035428064568320970692304673817341489687505668096"
      ],
      "assetValues": [
        1
      ]
    },
    {
      "reservedAddress": "0x5d4245928d717e3fa0f1ea4d918b7d401ed1c070",
      "assetIds": [
        "55464657044963196816950587289035428064568320970692304673817341489687505668096"
      ],
      "assetValues": [
        1
      ]
    },
    {
      "reservedAddress": "0x5d4696edc2340d4f1acb32a43a3fec14f8db83a8",
      "assetIds": [
        "55464657044963196816950587289035428064568320970692304673817341489687505668096"
      ],
      "assetValues": [
        1
      ]
    },
    {
      "reservedAddress": "0x5d9cf90cd2327b531e82a59e0be5c78ba6fc02c3",
      "assetIds": [
        "55464657044963196816950587289035428064568320970692304673817341489687505668096"
      ],
      "assetValues": [
        1
      ]
    },
    {
      "reservedAddress": "0x5da09edfcabb88880b4c923f682ef403514c2756",
      "assetIds": [
        "55464657044963196816950587289035428064568320970692304673817341489687505668096"
      ],
      "assetValues": [
        1
      ]
    },
    {
      "reservedAddress": "0x5da487ea7278e25288fd4f0f9243e3fa61bc7443",
      "assetIds": [
        "55464657044963196816950587289035428064568320970692304673817341489687505668096"
      ],
      "assetValues": [
        1
      ]
    },
    {
      "reservedAddress": "0x5db3f3e936c39a71c4b6e093e0e80731ae9080c9",
      "assetIds": [
        "55464657044963196816950587289035428064568320970692304673817341489687505668096"
      ],
      "assetValues": [
        1
      ]
    },
    {
      "reservedAddress": "0x5dc5a7a7f39471a21b977cdfbe796b039ae3df56",
      "assetIds": [
        "55464657044963196816950587289035428064568320970692304673817341489687505668096"
      ],
      "assetValues": [
        1
      ]
    },
    {
      "reservedAddress": "0x5dc86c124d40d399f52240a9bbe85debfd761502",
      "assetIds": [
        "55464657044963196816950587289035428064568320970692304673817341489687505668096"
      ],
      "assetValues": [
        1
      ]
    },
    {
      "reservedAddress": "0x5e1ddd11ccfa137a7b91c103f36c88a3e43f4ab1",
      "assetIds": [
        "55464657044963196816950587289035428064568320970692304673817341489687505668096"
      ],
      "assetValues": [
        1
      ]
    },
    {
      "reservedAddress": "0x5e2456412b1ce83a1e424b929bd26fc8b820b8f2",
      "assetIds": [
        "55464657044963196816950587289035428064568320970692304673817341489687505668096"
      ],
      "assetValues": [
        1
      ]
    },
    {
      "reservedAddress": "0x5e2af07597559cc63ca689bf463f67769fc8a6c3",
      "assetIds": [
        "55464657044963196816950587289035428064568320970692304673817341489687505668096"
      ],
      "assetValues": [
        1
      ]
    },
    {
      "reservedAddress": "0x5e3137cf3223686a2eaebc27c48b7576e5505d78",
      "assetIds": [
        "55464657044963196816950587289035428064568320970692304673817341489687505668096"
      ],
      "assetValues": [
        1
      ]
    },
    {
      "reservedAddress": "0x5e6062a18ff0cd415f987d269d977ecb29171c7e",
      "assetIds": [
        "55464657044963196816950587289035428064568320970692304673817341489687505668096"
      ],
      "assetValues": [
        1
      ]
    },
    {
      "reservedAddress": "0x5e79a38034862733788eefdc3ffedb094444c482",
      "assetIds": [
        "55464657044963196816950587289035428064568320970692304673817341489687505668096"
      ],
      "assetValues": [
        1
      ]
    },
    {
      "reservedAddress": "0x5eaeecf87cc07c3c23df29f01e84073fbf6694c3",
      "assetIds": [
        "55464657044963196816950587289035428064568320970692304673817341489687505668096"
      ],
      "assetValues": [
        1
      ]
    },
    {
      "reservedAddress": "0x5ee0ba0c6d64d42473c79090002c7f7675291819",
      "assetIds": [
        "55464657044963196816950587289035428064568320970692304673817341489687505668096"
      ],
      "assetValues": [
        1
      ]
    },
    {
      "reservedAddress": "0x5eed1d07fb52cc35c139075946a79afa44422794",
      "assetIds": [
        "55464657044963196816950587289035428064568320970692304673817341489687505668096"
      ],
      "assetValues": [
        1
      ]
    },
    {
      "reservedAddress": "0x5eef26e0dc4c724a9e86593dfb3f031d4625f3cc",
      "assetIds": [
        "55464657044963196816950587289035428064568320970692304673817341489687505668096"
      ],
      "assetValues": [
        1
      ]
    },
    {
      "reservedAddress": "0x5f01f41de9ffa1361032edf4c214d045455b0932",
      "assetIds": [
        "55464657044963196816950587289035428064568320970692304673817341489687505668096"
      ],
      "assetValues": [
        1
      ]
    },
    {
      "reservedAddress": "0x5f0e46bbf0826e19bfa004c059ad543f73c43d12",
      "assetIds": [
        "55464657044963196816950587289035428064568320970692304673817341489687505668096"
      ],
      "assetValues": [
        1
      ]
    },
    {
      "reservedAddress": "0x5f1088110edcba27fc206cdcc326b413b5867361",
      "assetIds": [
        "55464657044963196816950587289035428064568320970692304673817341489687505668096"
      ],
      "assetValues": [
        1
      ]
    },
    {
      "reservedAddress": "0x5f14e4f158a07a6a43144ef3ea71f459b94d0291",
      "assetIds": [
        "55464657044963196816950587289035428064568320970692304673817341489687505668096"
      ],
      "assetValues": [
        1
      ]
    },
    {
      "reservedAddress": "0x5f52e721f069dac1ac359db28cefe468e0c10fae",
      "assetIds": [
        "55464657044963196816950587289035428064568320970692304673817341489687505668096"
      ],
      "assetValues": [
        1
      ]
    },
    {
      "reservedAddress": "0x5f5be9ccb2db7e6493b26149d9347ea110aa80ab",
      "assetIds": [
        "55464657044963196816950587289035428064568320970692304673817341489687505668096"
      ],
      "assetValues": [
        1
      ]
    },
    {
      "reservedAddress": "0x5f5d0f52b53a2986c608ce9a984c4ce5503ef3c5",
      "assetIds": [
        "55464657044963196816950587289035428064568320970692304673817341489687505668096"
      ],
      "assetValues": [
        1
      ]
    },
    {
      "reservedAddress": "0x5f5ee55a39f31ed067927a3e5d96072277259cf7",
      "assetIds": [
        "55464657044963196816950587289035428064568320970692304673817341489687505668096"
      ],
      "assetValues": [
        1
      ]
    },
    {
      "reservedAddress": "0x5f74c2d99cef341896127d45d19452ec3fc54b9b",
      "assetIds": [
        "55464657044963196816950587289035428064568320970692304673817341489687505668096"
      ],
      "assetValues": [
        1
      ]
    },
    {
      "reservedAddress": "0x5f7b37dcbe4042854bbaae2ce8b5faac8cfc691b",
      "assetIds": [
        "55464657044963196816950587289035428064568320970692304673817341489687505668096"
      ],
      "assetValues": [
        1
      ]
    },
    {
      "reservedAddress": "0x5f8bad60d5467e6e877835a5ed913d52a4c6f2be",
      "assetIds": [
        "55464657044963196816950587289035428064568320970692304673817341489687505668096"
      ],
      "assetValues": [
        1
      ]
    },
    {
      "reservedAddress": "0x5fc15da150e5c09c5247e1487ef89db9fae2af60",
      "assetIds": [
        "55464657044963196816950587289035428064568320970692304673817341489687505668096"
      ],
      "assetValues": [
        1
      ]
    },
    {
      "reservedAddress": "0x5ff74fe2d1c66a7775968a9f375d36daf2ade91d",
      "assetIds": [
        "55464657044963196816950587289035428064568320970692304673817341489687505668096"
      ],
      "assetValues": [
        1
      ]
    },
    {
      "reservedAddress": "0x60206c1f2b51ac470cb0f71323474f7f9e4772e1",
      "assetIds": [
        "55464657044963196816950587289035428064568320970692304673817341489687505668096"
      ],
      "assetValues": [
        1
      ]
    },
    {
      "reservedAddress": "0x6033d60e13ed981c6f7669ed4b7af9ab1820a96d",
      "assetIds": [
        "55464657044963196816950587289035428064568320970692304673817341489687505668096"
      ],
      "assetValues": [
        1
      ]
    },
    {
      "reservedAddress": "0x603ed395616d5eff9f343aea2243f6415afa578f",
      "assetIds": [
        "55464657044963196816950587289035428064568320970692304673817341489687505668096"
      ],
      "assetValues": [
        1
      ]
    },
    {
      "reservedAddress": "0x60419e5ee8ca2a3d6bcbabf664588fa18e254f65",
      "assetIds": [
        "55464657044963196816950587289035428064568320970692304673817341489687505668096"
      ],
      "assetValues": [
        1
      ]
    },
    {
      "reservedAddress": "0x60428f62dcede60752c48868dd2b7e100911cfbb",
      "assetIds": [
        "55464657044963196816950587289035428064568320970692304673817341489687505668096"
      ],
      "assetValues": [
        1
      ]
    },
    {
      "reservedAddress": "0x606ef9175f02254953df331f9ebcfec3cd48b7ae",
      "assetIds": [
        "55464657044963196816950587289035428064568320970692304673817341489687505668096"
      ],
      "assetValues": [
        1
      ]
    },
    {
      "reservedAddress": "0x60785d49d0bb61dd0204b2f72a23e2f9775f0576",
      "assetIds": [
        "55464657044963196816950587289035428064568320970692304673817341489687505668096"
      ],
      "assetValues": [
        1
      ]
    },
    {
      "reservedAddress": "0x6094fda1ea8fba27c27446d906ead03fb7e3f2ba",
      "assetIds": [
        "55464657044963196816950587289035428064568320970692304673817341489687505668096"
      ],
      "assetValues": [
        1
      ]
    },
    {
      "reservedAddress": "0x60a1ad34ade02880b36dd8fdab2b0dab069dccb6",
      "assetIds": [
        "55464657044963196816950587289035428064568320970692304673817341489687505668096"
      ],
      "assetValues": [
        1
      ]
    },
    {
      "reservedAddress": "0x60f12ee9e2d0be632d25769ac89dff774d03b710",
      "assetIds": [
        "55464657044963196816950587289035428064568320970692304673817341489687505668096"
      ],
      "assetValues": [
        1
      ]
    },
    {
      "reservedAddress": "0x612219e1fb1f484ea4ccf0c047c92ec7688c7ba6",
      "assetIds": [
        "55464657044963196816950587289035428064568320970692304673817341489687505668096"
      ],
      "assetValues": [
        1
      ]
    },
    {
      "reservedAddress": "0x613b909325e0f7bf25beefb6254187f6d9ec7309",
      "assetIds": [
        "55464657044963196816950587289035428064568320970692304673817341489687505668096"
      ],
      "assetValues": [
        1
      ]
    },
    {
      "reservedAddress": "0x613ee38938ab8909a2a8af7784d89bfcbe49bf41",
      "assetIds": [
        "55464657044963196816950587289035428064568320970692304673817341489687505668096"
      ],
      "assetValues": [
        1
      ]
    },
    {
      "reservedAddress": "0x614a61a3b7f2fd8750acaad63b2a0cfe8b8524f1",
      "assetIds": [
        "55464657044963196816950587289035428064568320970692304673817341489687505668096"
      ],
      "assetValues": [
        1
      ]
    },
    {
      "reservedAddress": "0x6164a643f2c069135c144757dedc8725b6a5069f",
      "assetIds": [
        "55464657044963196816950587289035428064568320970692304673817341489687505668096"
      ],
      "assetValues": [
        1
      ]
    },
    {
      "reservedAddress": "0x61890ece2f4e474c7b1d45450451c948ad6e2e17",
      "assetIds": [
        "55464657044963196816950587289035428064568320970692304673817341489687505668096"
      ],
      "assetValues": [
        1
      ]
    },
    {
      "reservedAddress": "0x61987699055394c65355f2797d3e4e589f7fabf4",
      "assetIds": [
        "55464657044963196816950587289035428064568320970692304673817341489687505668096"
      ],
      "assetValues": [
        1
      ]
    },
    {
      "reservedAddress": "0x61de74d0263e915b2ff100e4e8e0ea112eaca37d",
      "assetIds": [
        "55464657044963196816950587289035428064568320970692304673817341489687505668096"
      ],
      "assetValues": [
        1
      ]
    },
    {
      "reservedAddress": "0x61dfa22b7e39c0048647009e5ba0d748a83131f9",
      "assetIds": [
        "55464657044963196816950587289035428064568320970692304673817341489687505668096"
      ],
      "assetValues": [
        1
      ]
    },
    {
      "reservedAddress": "0x6203e076d4f212b3fe94541cbc847079d896de21",
      "assetIds": [
        "55464657044963196816950587289035428064568320970692304673817341489687505668096"
      ],
      "assetValues": [
        1
      ]
    },
    {
      "reservedAddress": "0x621ca457e5f02965c0fc961e3dc9a7b6524a92fa",
      "assetIds": [
        "55464657044963196816950587289035428064568320970692304673817341489687505668096"
      ],
      "assetValues": [
        1
      ]
    },
    {
      "reservedAddress": "0x621ed2e42d5e8b1ef039dc5473c5b0776308deab",
      "assetIds": [
        "55464657044963196816950587289035428064568320970692304673817341489687505668096"
      ],
      "assetValues": [
        1
      ]
    },
    {
      "reservedAddress": "0x6263250b3c9bff0b53e53ec8304d366a74d87bd9",
      "assetIds": [
        "55464657044963196816950587289035428064568320970692304673817341489687505668096"
      ],
      "assetValues": [
        1
      ]
    },
    {
      "reservedAddress": "0x62abe7f56b87e9c41a5aa0b34516c9b21ee7b725",
      "assetIds": [
        "55464657044963196816950587289035428064568320970692304673817341489687505668096"
      ],
      "assetValues": [
        1
      ]
    },
    {
      "reservedAddress": "0x62b8d4a199a841f5fabfa03fd4c67e4ac68aad3c",
      "assetIds": [
        "55464657044963196816950587289035428064568320970692304673817341489687505668096"
      ],
      "assetValues": [
        1
      ]
    },
    {
      "reservedAddress": "0x62c04cc455520708958c9ce3fafff51745e42189",
      "assetIds": [
        "55464657044963196816950587289035428064568320970692304673817341489687505668096"
      ],
      "assetValues": [
        1
      ]
    },
    {
      "reservedAddress": "0x62d8db6fab19be9f6e961ecdd4b7fbebe2a25b9e",
      "assetIds": [
        "55464657044963196816950587289035428064568320970692304673817341489687505668096"
      ],
      "assetValues": [
        1
      ]
    },
    {
      "reservedAddress": "0x62f32ecc0839b80fd0b2c2516af3dd409b345828",
      "assetIds": [
        "55464657044963196816950587289035428064568320970692304673817341489687505668096"
      ],
      "assetValues": [
        1
      ]
    },
    {
      "reservedAddress": "0x62fee8398b9700c4866fd623a90e10c49d5385c2",
      "assetIds": [
        "55464657044963196816950587289035428064568320970692304673817341489687505668096"
      ],
      "assetValues": [
        1
      ]
    },
    {
      "reservedAddress": "0x6319039b876aa4a4e28593c2f2a223017765deee",
      "assetIds": [
        "55464657044963196816950587289035428064568320970692304673817341489687505668096"
      ],
      "assetValues": [
        1
      ]
    },
    {
      "reservedAddress": "0x631dcfb5202c62da8374489ae29e1e9f3031e7a4",
      "assetIds": [
        "55464657044963196816950587289035428064568320970692304673817341489687505668096"
      ],
      "assetValues": [
        1
      ]
    },
    {
      "reservedAddress": "0x631e2425bc4980d29352726808421fff16f8a927",
      "assetIds": [
        "55464657044963196816950587289035428064568320970692304673817341489687505668096"
      ],
      "assetValues": [
        1
      ]
    },
    {
      "reservedAddress": "0x63244b5f1ebcb999ea012da652dffee6653bf8f5",
      "assetIds": [
        "55464657044963196816950587289035428064568320970692304673817341489687505668096"
      ],
      "assetValues": [
        1
      ]
    },
    {
      "reservedAddress": "0x637b7abdd308dda60bd56d7e9012322fb89c863e",
      "assetIds": [
        "55464657044963196816950587289035428064568320970692304673817341489687505668096"
      ],
      "assetValues": [
        1
      ]
    },
    {
      "reservedAddress": "0x63e276975fa8e33b9b56c7d8abcf909d955c0c3b",
      "assetIds": [
        "55464657044963196816950587289035428064568320970692304673817341489687505668096"
      ],
      "assetValues": [
        1
      ]
    },
    {
      "reservedAddress": "0x63f842550fba9a97c0778b66410275e1ad51cbc5",
      "assetIds": [
        "55464657044963196816950587289035428064568320970692304673817341489687505668096"
      ],
      "assetValues": [
        1
      ]
    },
    {
      "reservedAddress": "0x640ef42db24fcf5f08f0b88d57134df077fa41fc",
      "assetIds": [
        "55464657044963196816950587289035428064568320970692304673817341489687505668096"
      ],
      "assetValues": [
        1
      ]
    },
    {
      "reservedAddress": "0x640f4bb7a5a8ecac6eaf31d63857a4f4a962a62e",
      "assetIds": [
        "55464657044963196816950587289035428064568320970692304673817341489687505668096"
      ],
      "assetValues": [
        1
      ]
    },
    {
      "reservedAddress": "0x646629f7363b26dac072238a77ee5e462e2b0097",
      "assetIds": [
        "55464657044963196816950587289035428064568320970692304673817341489687505668096"
      ],
      "assetValues": [
        1
      ]
    },
    {
      "reservedAddress": "0x6468b6907bf4d4cc7fa337a7d53b8253e6d76161",
      "assetIds": [
        "55464657044963196816950587289035428064568320970692304673817341489687505668096"
      ],
      "assetValues": [
        1
      ]
    },
    {
      "reservedAddress": "0x6486b9978194a3f2292c223df54368a7d2effe4d",
      "assetIds": [
        "55464657044963196816950587289035428064568320970692304673817341489687505668096"
      ],
      "assetValues": [
        1
      ]
    },
    {
      "reservedAddress": "0x6491bb221b3d5f7d264fd7c8020f56e7415b7124",
      "assetIds": [
        "55464657044963196816950587289035428064568320970692304673817341489687505668096"
      ],
      "assetValues": [
        1
      ]
    },
    {
      "reservedAddress": "0x64ab3a9ff712cfffd67e095287ca820073db9baf",
      "assetIds": [
        "55464657044963196816950587289035428064568320970692304673817341489687505668096"
      ],
      "assetValues": [
        1
      ]
    },
    {
      "reservedAddress": "0x64bbcfbe0d657374fc6148563a0b2be146ef0be1",
      "assetIds": [
        "55464657044963196816950587289035428064568320970692304673817341489687505668096"
      ],
      "assetValues": [
        1
      ]
    },
    {
      "reservedAddress": "0x650151c8de2e51243fe2c55b052eba51303a2e4a",
      "assetIds": [
        "55464657044963196816950587289035428064568320970692304673817341489687505668096"
      ],
      "assetValues": [
        1
      ]
    },
    {
      "reservedAddress": "0x65018d3cfc95981bf2c104a7c0a786009ba45e13",
      "assetIds": [
        "55464657044963196816950587289035428064568320970692304673817341489687505668096"
      ],
      "assetValues": [
        1
      ]
    },
    {
      "reservedAddress": "0x6502a41fe43e2251c2e596493d24dd9f36b3cc1f",
      "assetIds": [
        "55464657044963196816950587289035428064568320970692304673817341489687505668096"
      ],
      "assetValues": [
        1
      ]
    },
    {
      "reservedAddress": "0x6515a46069b84fc44b21de5a17bc740cb73e9676",
      "assetIds": [
        "55464657044963196816950587289035428064568320970692304673817341489687505668096"
      ],
      "assetValues": [
        1
      ]
    },
    {
      "reservedAddress": "0x652bd034330203b15eddb4ca443cbc59f025d6bd",
      "assetIds": [
        "55464657044963196816950587289035428064568320970692304673817341489687505668096"
      ],
      "assetValues": [
        1
      ]
    },
    {
      "reservedAddress": "0x653d63e4f2d7112a19f5eb993890a3f27b48ada5",
      "assetIds": [
        "55464657044963196816950587289035428064568320970692304673817341489687505668096"
      ],
      "assetValues": [
        1
      ]
    },
    {
      "reservedAddress": "0x6555f8fb6a02c9c73d55c72959a9e0cebff13489",
      "assetIds": [
        "55464657044963196816950587289035428064568320970692304673817341489687505668096"
      ],
      "assetValues": [
        1
      ]
    },
    {
      "reservedAddress": "0x6597fc0c312c0476ab66da465a7c3741f96d05c5",
      "assetIds": [
        "55464657044963196816950587289035428064568320970692304673817341489687505668096"
      ],
      "assetValues": [
        1
      ]
    },
    {
      "reservedAddress": "0x65a76b4829ddaeea1baf806d9c94f919753c1b63",
      "assetIds": [
        "55464657044963196816950587289035428064568320970692304673817341489687505668096"
      ],
      "assetValues": [
        1
      ]
    },
    {
      "reservedAddress": "0x65df131f3b0203335a2337d3eb3ebef0b5a2cefa",
      "assetIds": [
        "55464657044963196816950587289035428064568320970692304673817341489687505668096"
      ],
      "assetValues": [
        1
      ]
    },
    {
      "reservedAddress": "0x65ee9c601146f7542dfc4420704f4aa181e9a8c1",
      "assetIds": [
        "55464657044963196816950587289035428064568320970692304673817341489687505668096"
      ],
      "assetValues": [
        1
      ]
    },
    {
      "reservedAddress": "0x66248f251385c7ed13da0ad964b13d87793b45dd",
      "assetIds": [
        "55464657044963196816950587289035428064568320970692304673817341489687505668096"
      ],
      "assetValues": [
        1
      ]
    },
    {
      "reservedAddress": "0x6641f5827baa7beed40757c3772484e4b1ff4377",
      "assetIds": [
        "55464657044963196816950587289035428064568320970692304673817341489687505668096"
      ],
      "assetValues": [
        1
      ]
    },
    {
      "reservedAddress": "0x6655a448465f9f1522c02b6460e4226653c60546",
      "assetIds": [
        "55464657044963196816950587289035428064568320970692304673817341489687505668096"
      ],
      "assetValues": [
        1
      ]
    },
    {
      "reservedAddress": "0x666af247d6e0b739abf24cc424e617fc301e5b11",
      "assetIds": [
        "55464657044963196816950587289035428064568320970692304673817341489687505668096"
      ],
      "assetValues": [
        1
      ]
    },
    {
      "reservedAddress": "0x666f4ae593d457dc38fcdc9d3961f5c96ab7ce9f",
      "assetIds": [
        "55464657044963196816950587289035428064568320970692304673817341489687505668096"
      ],
      "assetValues": [
        1
      ]
    },
    {
      "reservedAddress": "0x667299a386c64a846f539da3530426dacdf128af",
      "assetIds": [
        "55464657044963196816950587289035428064568320970692304673817341489687505668096"
      ],
      "assetValues": [
        1
      ]
    },
    {
      "reservedAddress": "0x66a4baa286ed5e5e51a80c3620cc83e32651acca",
      "assetIds": [
        "55464657044963196816950587289035428064568320970692304673817341489687505668096"
      ],
      "assetValues": [
        1
      ]
    },
    {
      "reservedAddress": "0x66b064b5fac00eeb32cd6bce64bbf5fd98581b08",
      "assetIds": [
        "55464657044963196816950587289035428064568320970692304673817341489687505668096"
      ],
      "assetValues": [
        1
      ]
    },
    {
      "reservedAddress": "0x66efb1ca21ea9816de03b65fbe7c59d005b3df5d",
      "assetIds": [
        "55464657044963196816950587289035428064568320970692304673817341489687505668096"
      ],
      "assetValues": [
        1
      ]
    },
    {
      "reservedAddress": "0x670edeae3b73e27458b315c84f57ec5805bf5616",
      "assetIds": [
        "55464657044963196816950587289035428064568320970692304673817341489687505668096"
      ],
      "assetValues": [
        1
      ]
    },
    {
      "reservedAddress": "0x671294753e6627a7e6c4ca4d41578ac4d43dbaef",
      "assetIds": [
        "55464657044963196816950587289035428064568320970692304673817341489687505668096"
      ],
      "assetValues": [
        1
      ]
    },
    {
      "reservedAddress": "0x671b167604f5e7ed12e8e3bdf1dd692ed8b10675",
      "assetIds": [
        "55464657044963196816950587289035428064568320970692304673817341489687505668096"
      ],
      "assetValues": [
        1
      ]
    },
    {
      "reservedAddress": "0x671ca294bcaf35f303024c3b881637407d8257d4",
      "assetIds": [
        "55464657044963196816950587289035428064568320970692304673817341489687505668096"
      ],
      "assetValues": [
        1
      ]
    },
    {
      "reservedAddress": "0x6722846282868a9c084b423aee79eb8ff69fc497",
      "assetIds": [
        "55464657044963196816950587289035428064568320970692304673817341489687505668096"
      ],
      "assetValues": [
        1
      ]
    },
    {
      "reservedAddress": "0x672d721fd7ce5f7fd55e69d9a025a2101dec25f2",
      "assetIds": [
        "55464657044963196816950587289035428064568320970692304673817341489687505668096"
      ],
      "assetValues": [
        1
      ]
    },
    {
      "reservedAddress": "0x67309936c4a0a97107515d8ec2bcf29085c651ae",
      "assetIds": [
        "55464657044963196816950587289035428064568320970692304673817341489687505668096"
      ],
      "assetValues": [
        1
      ]
    },
    {
      "reservedAddress": "0x674c18be9d74c2ef31237970b5589b3df0b911f8",
      "assetIds": [
        "55464657044963196816950587289035428064568320970692304673817341489687505668096"
      ],
      "assetValues": [
        1
      ]
    },
    {
      "reservedAddress": "0x67501d3d3dbe56fb8b544f0fe4720b1d08c7e48f",
      "assetIds": [
        "55464657044963196816950587289035428064568320970692304673817341489687505668096"
      ],
      "assetValues": [
        1
      ]
    },
    {
      "reservedAddress": "0x6756476ec337933724444928ed08726158b516c0",
      "assetIds": [
        "55464657044963196816950587289035428064568320970692304673817341489687505668096"
      ],
      "assetValues": [
        1
      ]
    },
    {
      "reservedAddress": "0x67ab54829363e440dadbc84c0ff0a0b26bffe9e4",
      "assetIds": [
        "55464657044963196816950587289035428064568320970692304673817341489687505668096"
      ],
      "assetValues": [
        1
      ]
    },
    {
      "reservedAddress": "0x67ae43bbc63d20e57d6ef54c359194604579fb8e",
      "assetIds": [
        "55464657044963196816950587289035428064568320970692304673817341489687505668096"
      ],
      "assetValues": [
        1
      ]
    },
    {
      "reservedAddress": "0x67bdd6b5e42f2550942b2da9d84f40f86c61a20c",
      "assetIds": [
        "55464657044963196816950587289035428064568320970692304673817341489687505668096"
      ],
      "assetValues": [
        1
      ]
    },
    {
      "reservedAddress": "0x67f1c20f1c8effb32aa0aca5330be10a4e224b98",
      "assetIds": [
        "55464657044963196816950587289035428064568320970692304673817341489687505668096"
      ],
      "assetValues": [
        1
      ]
    },
    {
      "reservedAddress": "0x67ffb0c645f5843ff88a6ff0fc91fd1798974e57",
      "assetIds": [
        "55464657044963196816950587289035428064568320970692304673817341489687505668096"
      ],
      "assetValues": [
        1
      ]
    },
    {
      "reservedAddress": "0x680eb80f959c33f92bc23e173af93ad86fe0d873",
      "assetIds": [
        "55464657044963196816950587289035428064568320970692304673817341489687505668096"
      ],
      "assetValues": [
        1
      ]
    },
    {
      "reservedAddress": "0x680f63f7948702239fdfd5dcfa0e65498b431cb5",
      "assetIds": [
        "55464657044963196816950587289035428064568320970692304673817341489687505668096"
      ],
      "assetValues": [
        1
      ]
    },
    {
      "reservedAddress": "0x683d2cdcd2962c94b8d2700f3639a0a109daa095",
      "assetIds": [
        "55464657044963196816950587289035428064568320970692304673817341489687505668096"
      ],
      "assetValues": [
        1
      ]
    },
    {
      "reservedAddress": "0x6841ccc222018ba65432d1f753676562d6c12f10",
      "assetIds": [
        "55464657044963196816950587289035428064568320970692304673817341489687505668096"
      ],
      "assetValues": [
        1
      ]
    },
    {
      "reservedAddress": "0x685a6128b04dbf57d2919d3bcefd2b3e9897c783",
      "assetIds": [
        "55464657044963196816950587289035428064568320970692304673817341489687505668096"
      ],
      "assetValues": [
        1
      ]
    },
    {
      "reservedAddress": "0x6881f804b0d3c63d7ed0182af46a4198d9022bd8",
      "assetIds": [
        "55464657044963196816950587289035428064568320970692304673817341489687505668096"
      ],
      "assetValues": [
        1
      ]
    },
    {
      "reservedAddress": "0x68b92208c09bdb2949d94a26897ed004474947b3",
      "assetIds": [
        "55464657044963196816950587289035428064568320970692304673817341489687505668096"
      ],
      "assetValues": [
        1
      ]
    },
    {
      "reservedAddress": "0x6913f3bdbb7c303977d6244c0e0071b4ebc6f359",
      "assetIds": [
        "55464657044963196816950587289035428064568320970692304673817341489687505668096"
      ],
      "assetValues": [
        1
      ]
    },
    {
      "reservedAddress": "0x692fdd43247aa03de5c15a51688dc69fc420f534",
      "assetIds": [
        "55464657044963196816950587289035428064568320970692304673817341489687505668096"
      ],
      "assetValues": [
        1
      ]
    },
    {
      "reservedAddress": "0x69338d803a97c5f1b4f736f7ea43d19c0ff03620",
      "assetIds": [
        "55464657044963196816950587289035428064568320970692304673817341489687505668096"
      ],
      "assetValues": [
        1
      ]
    },
    {
      "reservedAddress": "0x693b4935ab829c42dbee619c2a3b68af689ae692",
      "assetIds": [
        "55464657044963196816950587289035428064568320970692304673817341489687505668096"
      ],
      "assetValues": [
        1
      ]
    },
    {
      "reservedAddress": "0x69424bb4f42807a2b5dc4d8509edb927ae83dce9",
      "assetIds": [
        "55464657044963196816950587289035428064568320970692304673817341489687505668096"
      ],
      "assetValues": [
        1
      ]
    },
    {
      "reservedAddress": "0x6952e29e8be0d681a1aca4e8e3aa9bc57245e01d",
      "assetIds": [
        "55464657044963196816950587289035428064568320970692304673817341489687505668096"
      ],
      "assetValues": [
        1
      ]
    },
    {
      "reservedAddress": "0x695c6103e3d7cb9dff2a2f6648c0951dd39f4952",
      "assetIds": [
        "55464657044963196816950587289035428064568320970692304673817341489687505668096"
      ],
      "assetValues": [
        1
      ]
    },
    {
      "reservedAddress": "0x696c1e8eb2bcfc4ad504e246ceec6ec853265506",
      "assetIds": [
        "55464657044963196816950587289035428064568320970692304673817341489687505668096"
      ],
      "assetValues": [
        1
      ]
    },
    {
      "reservedAddress": "0x6986aec5bc5fa1918516db522b6689a6897842a3",
      "assetIds": [
        "55464657044963196816950587289035428064568320970692304673817341489687505668096"
      ],
      "assetValues": [
        1
      ]
    },
    {
      "reservedAddress": "0x699ab6877d7b4449d4fabd4d8a782994263f1961",
      "assetIds": [
        "55464657044963196816950587289035428064568320970692304673817341489687505668096"
      ],
      "assetValues": [
        1
      ]
    },
    {
      "reservedAddress": "0x69a473c96c85785ef7eaf760c48907f3d2de77fb",
      "assetIds": [
        "55464657044963196816950587289035428064568320970692304673817341489687505668096"
      ],
      "assetValues": [
        1
      ]
    },
    {
      "reservedAddress": "0x69aad835cb3f62e435fc693443ce49bfe74b6dbe",
      "assetIds": [
        "55464657044963196816950587289035428064568320970692304673817341489687505668096"
      ],
      "assetValues": [
        1
      ]
    },
    {
      "reservedAddress": "0x69b6c8b92d973fce679e5ac31c0fd95cbde37f41",
      "assetIds": [
        "55464657044963196816950587289035428064568320970692304673817341489687505668096"
      ],
      "assetValues": [
        1
      ]
    },
    {
      "reservedAddress": "0x69d3e42954170c90f6d4b70a598c5386e1db392e",
      "assetIds": [
        "55464657044963196816950587289035428064568320970692304673817341489687505668096"
      ],
      "assetValues": [
        1
      ]
    },
    {
      "reservedAddress": "0x69df7dd293eeff309d8fa12126be3f5d2eb277e2",
      "assetIds": [
        "55464657044963196816950587289035428064568320970692304673817341489687505668096"
      ],
      "assetValues": [
        1
      ]
    },
    {
      "reservedAddress": "0x69faa59e22242667bdfa03c6aabee7cb6a57666c",
      "assetIds": [
        "55464657044963196816950587289035428064568320970692304673817341489687505668096"
      ],
      "assetValues": [
        1
      ]
    },
    {
      "reservedAddress": "0x6a2457ec880ffabc74700a690cc23eb31b625feb",
      "assetIds": [
        "55464657044963196816950587289035428064568320970692304673817341489687505668096"
      ],
      "assetValues": [
        1
      ]
    },
    {
      "reservedAddress": "0x6a4f575282c3a8be7f261eca11371f22ecf5b3d0",
      "assetIds": [
        "55464657044963196816950587289035428064568320970692304673817341489687505668096"
      ],
      "assetValues": [
        1
      ]
    },
    {
      "reservedAddress": "0x6a6429c3a8759396898e25cb2bb72139ce9e8ea8",
      "assetIds": [
        "55464657044963196816950587289035428064568320970692304673817341489687505668096"
      ],
      "assetValues": [
        1
      ]
    },
    {
      "reservedAddress": "0x6a6b71f9e00003130e9c98f26e6fa976512fb1d7",
      "assetIds": [
        "55464657044963196816950587289035428064568320970692304673817341489687505668096"
      ],
      "assetValues": [
        1
      ]
    },
    {
      "reservedAddress": "0x6a7cc5e205bce058454e1576419f3dab1ce21637",
      "assetIds": [
        "55464657044963196816950587289035428064568320970692304673817341489687505668096"
      ],
      "assetValues": [
        1
      ]
    },
    {
      "reservedAddress": "0x6aa46d0072e6974e59439b34b23cf831d0d46d10",
      "assetIds": [
        "55464657044963196816950587289035428064568320970692304673817341489687505668096"
      ],
      "assetValues": [
        1
      ]
    },
    {
      "reservedAddress": "0x6ac23a6e058205a2c8b6a35f9e812bf292337e2e",
      "assetIds": [
        "55464657044963196816950587289035428064568320970692304673817341489687505668096"
      ],
      "assetValues": [
        1
      ]
    },
    {
      "reservedAddress": "0x6ac625d107ceee595a35c464ed4c113cdbf20fed",
      "assetIds": [
        "55464657044963196816950587289035428064568320970692304673817341489687505668096"
      ],
      "assetValues": [
        1
      ]
    },
    {
      "reservedAddress": "0x6ae356f75dac7bb53203cc498e4c47e85f7c4f38",
      "assetIds": [
        "55464657044963196816950587289035428064568320970692304673817341489687505668096"
      ],
      "assetValues": [
        1
      ]
    },
    {
      "reservedAddress": "0x6aeb38dc0ec1d2b2725bda944b7eb6f8ad5ba8b3",
      "assetIds": [
        "55464657044963196816950587289035428064568320970692304673817341489687505668096"
      ],
      "assetValues": [
        1
      ]
    },
    {
      "reservedAddress": "0x6afb387241fcb51199398795e8355d9b11fc49a6",
      "assetIds": [
        "55464657044963196816950587289035428064568320970692304673817341489687505668096"
      ],
      "assetValues": [
        1
      ]
    },
    {
      "reservedAddress": "0x6b19f56b2d64ddba4b744987ec3160a053651e41",
      "assetIds": [
        "55464657044963196816950587289035428064568320970692304673817341489687505668096"
      ],
      "assetValues": [
        1
      ]
    },
    {
      "reservedAddress": "0x6b242ba4e320aab3208e88a6c580dfc7e1b46afe",
      "assetIds": [
        "55464657044963196816950587289035428064568320970692304673817341489687505668096"
      ],
      "assetValues": [
        1
      ]
    },
    {
      "reservedAddress": "0x6b30c6f5b7a08e0bb027657041840a99adc54418",
      "assetIds": [
        "55464657044963196816950587289035428064568320970692304673817341489687505668096"
      ],
      "assetValues": [
        1
      ]
    },
    {
      "reservedAddress": "0x6b31a57f8a7214386dae30cd90b723af2d55c3ea",
      "assetIds": [
        "55464657044963196816950587289035428064568320970692304673817341489687505668096"
      ],
      "assetValues": [
        1
      ]
    },
    {
      "reservedAddress": "0x6b532ac6d1416d68d506448854d8b396af7e1f23",
      "assetIds": [
        "55464657044963196816950587289035428064568320970692304673817341489687505668096"
      ],
      "assetValues": [
        1
      ]
    },
    {
      "reservedAddress": "0x6b642387b33718874305e85bd6660c7105907986",
      "assetIds": [
        "55464657044963196816950587289035428064568320970692304673817341489687505668096"
      ],
      "assetValues": [
        1
      ]
    },
    {
      "reservedAddress": "0x6bdaf8bb4906de6e26b8ec36776145fd219f6e09",
      "assetIds": [
        "55464657044963196816950587289035428064568320970692304673817341489687505668096"
      ],
      "assetValues": [
        1
      ]
    },
    {
      "reservedAddress": "0x6bf7740e1211d994e5c9f5179d5055b7105838bf",
      "assetIds": [
        "55464657044963196816950587289035428064568320970692304673817341489687505668096"
      ],
      "assetValues": [
        1
      ]
    },
    {
      "reservedAddress": "0x6c1058a00bc00d6aca3da8ae2d96573bd1c75ce1",
      "assetIds": [
        "55464657044963196816950587289035428064568320970692304673817341489687505668096"
      ],
      "assetValues": [
        1
      ]
    },
    {
      "reservedAddress": "0x6c12e55913926fb70accee403af5b73fda72f96c",
      "assetIds": [
        "55464657044963196816950587289035428064568320970692304673817341489687505668096"
      ],
      "assetValues": [
        1
      ]
    },
    {
      "reservedAddress": "0x6c18aab858f119cfc4965f0d83aeb7756fdaed65",
      "assetIds": [
        "55464657044963196816950587289035428064568320970692304673817341489687505668096"
      ],
      "assetValues": [
        1
      ]
    },
    {
      "reservedAddress": "0x6c18aeb9fa56a8a6a2d1350f35f1e9719ef4cd65",
      "assetIds": [
        "55464657044963196816950587289035428064568320970692304673817341489687505668096"
      ],
      "assetValues": [
        1
      ]
    },
    {
      "reservedAddress": "0x6c40d817bab364c328458f2067fcb052c148cbe4",
      "assetIds": [
        "55464657044963196816950587289035428064568320970692304673817341489687505668096"
      ],
      "assetValues": [
        1
      ]
    },
    {
      "reservedAddress": "0x6c426d6e564cc9f3c6cac423c0be8b3eb0b3bff1",
      "assetIds": [
        "55464657044963196816950587289035428064568320970692304673817341489687505668096"
      ],
      "assetValues": [
        1
      ]
    },
    {
      "reservedAddress": "0x6c66e510909bf70486e68fc5a0de7d301bff64d5",
      "assetIds": [
        "55464657044963196816950587289035428064568320970692304673817341489687505668096"
      ],
      "assetValues": [
        1
      ]
    },
    {
      "reservedAddress": "0x6c8ff8931817c53fc0697034fb36351bf77d0b1a",
      "assetIds": [
        "55464657044963196816950587289035428064568320970692304673817341489687505668096"
      ],
      "assetValues": [
        1
      ]
    },
    {
      "reservedAddress": "0x6c9b2781ed7970176129d880e608b0945da3ce84",
      "assetIds": [
        "55464657044963196816950587289035428064568320970692304673817341489687505668096"
      ],
      "assetValues": [
        1
      ]
    },
    {
      "reservedAddress": "0x6cca58c61269e1b7e0ec39542e9f4fcfdd53e12a",
      "assetIds": [
        "55464657044963196816950587289035428064568320970692304673817341489687505668096"
      ],
      "assetValues": [
        1
      ]
    },
    {
      "reservedAddress": "0x6ccad6c76e7f7a644b97c514a2e78ef16adbb0b7",
      "assetIds": [
        "55464657044963196816950587289035428064568320970692304673817341489687505668096"
      ],
      "assetValues": [
        1
      ]
    },
    {
      "reservedAddress": "0x6d253a1f74ae8a4169f0b0b6cf62c7e128766fcc",
      "assetIds": [
        "55464657044963196816950587289035428064568320970692304673817341489687505668096"
      ],
      "assetValues": [
        1
      ]
    },
    {
      "reservedAddress": "0x6d54ce2652a9a544b97352ff711a0598169b989f",
      "assetIds": [
        "55464657044963196816950587289035428064568320970692304673817341489687505668096"
      ],
      "assetValues": [
        1
      ]
    },
    {
      "reservedAddress": "0x6d6b776a63702ca3320863355e68d7a4d610bb99",
      "assetIds": [
        "55464657044963196816950587289035428064568320970692304673817341489687505668096"
      ],
      "assetValues": [
        1
      ]
    },
    {
      "reservedAddress": "0x6dc43be93a8b5fd37dc16f24872babc6da5e5e3e",
      "assetIds": [
        "55464657044963196816950587289035428064568320970692304673817341489687505668096"
      ],
      "assetValues": [
        1
      ]
    },
    {
      "reservedAddress": "0x6dcbffba85042471958448fdfea1d4772c3cece6",
      "assetIds": [
        "55464657044963196816950587289035428064568320970692304673817341489687505668096"
      ],
      "assetValues": [
        1
      ]
    },
    {
      "reservedAddress": "0x6dcde3f7c54d62d4a27726461519f6d65d3ac8ba",
      "assetIds": [
        "55464657044963196816950587289035428064568320970692304673817341489687505668096"
      ],
      "assetValues": [
        1
      ]
    },
    {
      "reservedAddress": "0x6dd5349cc67850712e69b576f0f51e21b9905152",
      "assetIds": [
        "55464657044963196816950587289035428064568320970692304673817341489687505668096"
      ],
      "assetValues": [
        1
      ]
    },
    {
      "reservedAddress": "0x6ddce2651c2a073b808a475ac58cd72aaec43bfe",
      "assetIds": [
        "55464657044963196816950587289035428064568320970692304673817341489687505668096"
      ],
      "assetValues": [
        1
      ]
    },
    {
      "reservedAddress": "0x6def58a5ec6ba5af194b2c566786f3b4a444e026",
      "assetIds": [
        "55464657044963196816950587289035428064568320970692304673817341489687505668096"
      ],
      "assetValues": [
        1
      ]
    },
    {
      "reservedAddress": "0x6df4cf8f66826481163076ff5e3e05f7f45035f2",
      "assetIds": [
        "55464657044963196816950587289035428064568320970692304673817341489687505668096"
      ],
      "assetValues": [
        1
      ]
    },
    {
      "reservedAddress": "0x6e155a81750d135b25c03b19e65ef88d7538579c",
      "assetIds": [
        "55464657044963196816950587289035428064568320970692304673817341489687505668096"
      ],
      "assetValues": [
        1
      ]
    },
    {
      "reservedAddress": "0x6e17e46371aba9b9a5592a472fa4b68df145dd36",
      "assetIds": [
        "55464657044963196816950587289035428064568320970692304673817341489687505668096"
      ],
      "assetValues": [
        1
      ]
    },
    {
      "reservedAddress": "0x6e37d29b046598fceb6a7c7e0da6a0af01ccbda5",
      "assetIds": [
        "55464657044963196816950587289035428064568320970692304673817341489687505668096"
      ],
      "assetValues": [
        1
      ]
    },
    {
      "reservedAddress": "0x6e4412105de91f33fbea0719766e1ea9121685bf",
      "assetIds": [
        "55464657044963196816950587289035428064568320970692304673817341489687505668096"
      ],
      "assetValues": [
        1
      ]
    },
    {
      "reservedAddress": "0x6e5c9f2834ee4ad928bb6205839e47c04b82a353",
      "assetIds": [
        "55464657044963196816950587289035428064568320970692304673817341489687505668096"
      ],
      "assetValues": [
        1
      ]
    },
    {
      "reservedAddress": "0x6e5d16b57e8ba136683089ea6c3d30c08b209bc5",
      "assetIds": [
        "55464657044963196816950587289035428064568320970692304673817341489687505668096"
      ],
      "assetValues": [
        1
      ]
    },
    {
      "reservedAddress": "0x6e602074bf2a49e901db6d51a6f87626b71208e2",
      "assetIds": [
        "55464657044963196816950587289035428064568320970692304673817341489687505668096"
      ],
      "assetValues": [
        1
      ]
    },
    {
      "reservedAddress": "0x6e6531b3d8946c2de68092e538ba84a821aa5ea9",
      "assetIds": [
        "55464657044963196816950587289035428064568320970692304673817341489687505668096"
      ],
      "assetValues": [
        1
      ]
    },
    {
      "reservedAddress": "0x6e71c080ca935f5e141d88d8d82057826d865f32",
      "assetIds": [
        "55464657044963196816950587289035428064568320970692304673817341489687505668096"
      ],
      "assetValues": [
        1
      ]
    },
    {
      "reservedAddress": "0x6e7b4903a076c1780522108fa03d9ecf9c325be4",
      "assetIds": [
        "55464657044963196816950587289035428064568320970692304673817341489687505668096"
      ],
      "assetValues": [
        1
      ]
    },
    {
      "reservedAddress": "0x6e7b6ff4944ef15cb5842dd1a53acb9199f29c69",
      "assetIds": [
        "55464657044963196816950587289035428064568320970692304673817341489687505668096"
      ],
      "assetValues": [
        1
      ]
    },
    {
      "reservedAddress": "0x6e93782ecd3b90eadb9424e22ce2ad9ce824d563",
      "assetIds": [
        "55464657044963196816950587289035428064568320970692304673817341489687505668096"
      ],
      "assetValues": [
        1
      ]
    },
    {
      "reservedAddress": "0x6ea4cdc6383d9acb55ef0231f7c3684da7ecaeba",
      "assetIds": [
        "55464657044963196816950587289035428064568320970692304673817341489687505668096"
      ],
      "assetValues": [
        1
      ]
    },
    {
      "reservedAddress": "0x6ea9c720666090d6e13e7355da8892266d684004",
      "assetIds": [
        "55464657044963196816950587289035428064568320970692304673817341489687505668096"
      ],
      "assetValues": [
        1
      ]
    },
    {
      "reservedAddress": "0x6eaf9398e2d17b84a8bb8d7b7aed30697c9a84f1",
      "assetIds": [
        "55464657044963196816950587289035428064568320970692304673817341489687505668096"
      ],
      "assetValues": [
        1
      ]
    },
    {
      "reservedAddress": "0x6ed7f81208839e31e11840049201201c469a7a56",
      "assetIds": [
        "55464657044963196816950587289035428064568320970692304673817341489687505668096"
      ],
      "assetValues": [
        1
      ]
    },
    {
      "reservedAddress": "0x6ef4fbfe735d7650783e83ca4528d48cbe66a538",
      "assetIds": [
        "55464657044963196816950587289035428064568320970692304673817341489687505668096"
      ],
      "assetValues": [
        1
      ]
    },
    {
      "reservedAddress": "0x6f054e110aad425b0969a6fe57fdb0f4b585ba2c",
      "assetIds": [
        "55464657044963196816950587289035428064568320970692304673817341489687505668096"
      ],
      "assetValues": [
        1
      ]
    },
    {
      "reservedAddress": "0x6f088f7c6c70dfe4556903515efdd3053ee41625",
      "assetIds": [
        "55464657044963196816950587289035428064568320970692304673817341489687505668096"
      ],
      "assetValues": [
        1
      ]
    },
    {
      "reservedAddress": "0x6f3132060581c01eed77fb03ca3191d64280d173",
      "assetIds": [
        "55464657044963196816950587289035428064568320970692304673817341489687505668096"
      ],
      "assetValues": [
        1
      ]
    },
    {
      "reservedAddress": "0x6f35b0cfc58eb1e21eef8a439bbb0ce4c929d32a",
      "assetIds": [
        "55464657044963196816950587289035428064568320970692304673817341489687505668096"
      ],
      "assetValues": [
        1
      ]
    },
    {
      "reservedAddress": "0x6f3e3cacff69aab557b810fe5844570c23426df9",
      "assetIds": [
        "55464657044963196816950587289035428064568320970692304673817341489687505668096"
      ],
      "assetValues": [
        1
      ]
    },
    {
      "reservedAddress": "0x6f5a8e75d94e652b84f6660b706c7770efea0472",
      "assetIds": [
        "55464657044963196816950587289035428064568320970692304673817341489687505668096"
      ],
      "assetValues": [
        1
      ]
    },
    {
      "reservedAddress": "0x6f93acf27101b8acbdc8a3f7f813ddfc76af74f1",
      "assetIds": [
        "55464657044963196816950587289035428064568320970692304673817341489687505668096"
      ],
      "assetValues": [
        1
      ]
    },
    {
      "reservedAddress": "0x6fa565dbd0fbbbb2ad7b0c5ba31730ae09209610",
      "assetIds": [
        "55464657044963196816950587289035428064568320970692304673817341489687505668096"
      ],
      "assetValues": [
        1
      ]
    },
    {
      "reservedAddress": "0x6fc33f6ab4540c16e3679fbd3fab0112b05b1e1d",
      "assetIds": [
        "55464657044963196816950587289035428064568320970692304673817341489687505668096"
      ],
      "assetValues": [
        1
      ]
    },
    {
      "reservedAddress": "0x6ff04ce4e6e016a7356b4801cae1639c2eae67c3",
      "assetIds": [
        "55464657044963196816950587289035428064568320970692304673817341489687505668096"
      ],
      "assetValues": [
        1
      ]
    },
    {
      "reservedAddress": "0x70077ff7f9bf4c61cf3955ec1935a479003b1473",
      "assetIds": [
        "55464657044963196816950587289035428064568320970692304673817341489687505668096"
      ],
      "assetValues": [
        1
      ]
    },
    {
      "reservedAddress": "0x7048445bb880249398334d03d3a08347c063d144",
      "assetIds": [
        "55464657044963196816950587289035428064568320970692304673817341489687505668096"
      ],
      "assetValues": [
        1
      ]
    },
    {
      "reservedAddress": "0x707823a4a01bd436c2417bcb26792f957d1b5435",
      "assetIds": [
        "55464657044963196816950587289035428064568320970692304673817341489687505668096"
      ],
      "assetValues": [
        1
      ]
    },
    {
      "reservedAddress": "0x707ea63b2b49a8e01da994759a6ebc86772e2daf",
      "assetIds": [
        "55464657044963196816950587289035428064568320970692304673817341489687505668096"
      ],
      "assetValues": [
        1
      ]
    },
    {
      "reservedAddress": "0x7085e73c76e6669e354bdda9dbc34901390a4e6a",
      "assetIds": [
        "55464657044963196816950587289035428064568320970692304673817341489687505668096"
      ],
      "assetValues": [
        1
      ]
    },
    {
      "reservedAddress": "0x708d8d1214cbfae932baa0e4ac12954ea2ae25a0",
      "assetIds": [
        "55464657044963196816950587289035428064568320970692304673817341489687505668096"
      ],
      "assetValues": [
        1
      ]
    },
    {
      "reservedAddress": "0x70e703ba15c43aa6d043b8c29e60927e3b01df73",
      "assetIds": [
        "55464657044963196816950587289035428064568320970692304673817341489687505668096"
      ],
      "assetValues": [
        1
      ]
    },
    {
      "reservedAddress": "0x71070ff05050a24907fe630fac9d30a8ff7285a2",
      "assetIds": [
        "55464657044963196816950587289035428064568320970692304673817341489687505668096"
      ],
      "assetValues": [
        1
      ]
    },
    {
      "reservedAddress": "0x713550ba382681510c66353b05e1b1274896743e",
      "assetIds": [
        "55464657044963196816950587289035428064568320970692304673817341489687505668096"
      ],
      "assetValues": [
        1
      ]
    },
    {
      "reservedAddress": "0x71356112b4ebe1cd2d0caf59d437bb70574e22da",
      "assetIds": [
        "55464657044963196816950587289035428064568320970692304673817341489687505668096"
      ],
      "assetValues": [
        1
      ]
    },
    {
      "reservedAddress": "0x7151fc80479cae33a33397a507257ff70dada0a1",
      "assetIds": [
        "55464657044963196816950587289035428064568320970692304673817341489687505668096"
      ],
      "assetValues": [
        1
      ]
    },
    {
      "reservedAddress": "0x7162cf340cbd6467d26292eb900bd2e9edf1a719",
      "assetIds": [
        "55464657044963196816950587289035428064568320970692304673817341489687505668096"
      ],
      "assetValues": [
        1
      ]
    },
    {
      "reservedAddress": "0x71c9dc8bd5e1224596c5e7ec418ea6aa359c959d",
      "assetIds": [
        "55464657044963196816950587289035428064568320970692304673817341489687505668096"
      ],
      "assetValues": [
        1
      ]
    },
    {
      "reservedAddress": "0x71d5b2f4b7b54b7ab3df8cc91cbcb98edf2796cb",
      "assetIds": [
        "55464657044963196816950587289035428064568320970692304673817341489687505668096"
      ],
      "assetValues": [
        1
      ]
    },
    {
      "reservedAddress": "0x71e5a61cddf1eca42e9b2cb1b02350ee683e8359",
      "assetIds": [
        "55464657044963196816950587289035428064568320970692304673817341489687505668096"
      ],
      "assetValues": [
        1
      ]
    },
    {
      "reservedAddress": "0x71ecd51a4306a92b5df0afbdd34db13b019a81a4",
      "assetIds": [
        "55464657044963196816950587289035428064568320970692304673817341489687505668096"
      ],
      "assetValues": [
        1
      ]
    },
    {
      "reservedAddress": "0x7212e581bbf34f7ad7fe693569267f4862b5883a",
      "assetIds": [
        "55464657044963196816950587289035428064568320970692304673817341489687505668096"
      ],
      "assetValues": [
        1
      ]
    },
    {
      "reservedAddress": "0x721931508df2764fd4f70c53da646cb8aed16ace",
      "assetIds": [
        "55464657044963196816950587289035428064568320970692304673817341489687505668096"
      ],
      "assetValues": [
        1
      ]
    },
    {
      "reservedAddress": "0x72194dac7beb999d01bd6b152f6787101e7a0b2e",
      "assetIds": [
        "55464657044963196816950587289035428064568320970692304673817341489687505668096"
      ],
      "assetValues": [
        1
      ]
    },
    {
      "reservedAddress": "0x721fef4a1f91f4cd59dede0f03d75675a1f022d6",
      "assetIds": [
        "55464657044963196816950587289035428064568320970692304673817341489687505668096"
      ],
      "assetValues": [
        1
      ]
    },
    {
      "reservedAddress": "0x7235dc0a662243a37f514dde132b9a2b0679152e",
      "assetIds": [
        "55464657044963196816950587289035428064568320970692304673817341489687505668096"
      ],
      "assetValues": [
        1
      ]
    },
    {
      "reservedAddress": "0x723d32943da715e3570c58cd5ff3994a2ec3b264",
      "assetIds": [
        "55464657044963196816950587289035428064568320970692304673817341489687505668096"
      ],
      "assetValues": [
        1
      ]
    },
    {
      "reservedAddress": "0x7245c68ba05d8fc06f5320faebe769ebd6923c13",
      "assetIds": [
        "55464657044963196816950587289035428064568320970692304673817341489687505668096"
      ],
      "assetValues": [
        1
      ]
    },
    {
      "reservedAddress": "0x724ee62b95a70afcc5f3e1e1430b5727136f79b3",
      "assetIds": [
        "55464657044963196816950587289035428064568320970692304673817341489687505668096"
      ],
      "assetValues": [
        1
      ]
    },
    {
      "reservedAddress": "0x726256355000cb00b596e841e802ea4c00ee57b1",
      "assetIds": [
        "55464657044963196816950587289035428064568320970692304673817341489687505668096"
      ],
      "assetValues": [
        1
      ]
    },
    {
      "reservedAddress": "0x728247292aad5355e8ee41d803c662a4763b0364",
      "assetIds": [
        "55464657044963196816950587289035428064568320970692304673817341489687505668096"
      ],
      "assetValues": [
        1
      ]
    },
    {
      "reservedAddress": "0x72b82453dd27c774f5488dc90685c26670c71144",
      "assetIds": [
        "55464657044963196816950587289035428064568320970692304673817341489687505668096"
      ],
      "assetValues": [
        1
      ]
    },
    {
      "reservedAddress": "0x72d2b655d74f2363c0a0f35665124f7de26e97fc",
      "assetIds": [
        "55464657044963196816950587289035428064568320970692304673817341489687505668096"
      ],
      "assetValues": [
        1
      ]
    },
    {
      "reservedAddress": "0x72da0207b8a04054d0fea1921124f9004d52ae6e",
      "assetIds": [
        "55464657044963196816950587289035428064568320970692304673817341489687505668096"
      ],
      "assetValues": [
        1
      ]
    },
    {
      "reservedAddress": "0x72fe5c6ee9dfea99403fb76054aae68deccea353",
      "assetIds": [
        "55464657044963196816950587289035428064568320970692304673817341489687505668096"
      ],
      "assetValues": [
        1
      ]
    },
    {
      "reservedAddress": "0x73000a5b78a42d99cbf81628a83c6760aa1dfe35",
      "assetIds": [
        "55464657044963196816950587289035428064568320970692304673817341489687505668096"
      ],
      "assetValues": [
        1
      ]
    },
    {
      "reservedAddress": "0x7332a7474970fd719cf7bfce4ee3c8355c444478",
      "assetIds": [
        "55464657044963196816950587289035428064568320970692304673817341489687505668096"
      ],
      "assetValues": [
        1
      ]
    },
    {
      "reservedAddress": "0x7352f1bcf32eb316a34faf3b9d6e0bef06413517",
      "assetIds": [
        "55464657044963196816950587289035428064568320970692304673817341489687505668096"
      ],
      "assetValues": [
        1
      ]
    },
    {
      "reservedAddress": "0x735cfccd86031563390b2c5453be0171b0787127",
      "assetIds": [
        "55464657044963196816950587289035428064568320970692304673817341489687505668096"
      ],
      "assetValues": [
        1
      ]
    },
    {
      "reservedAddress": "0x737240ede9e72ac15eebd2cb9d41a3071870b82d",
      "assetIds": [
        "55464657044963196816950587289035428064568320970692304673817341489687505668096"
      ],
      "assetValues": [
        1
      ]
    },
    {
      "reservedAddress": "0x73856db0d1d135f5b88922b329676e5b30d79e48",
      "assetIds": [
        "55464657044963196816950587289035428064568320970692304673817341489687505668096"
      ],
      "assetValues": [
        1
      ]
    },
    {
      "reservedAddress": "0x738a07d0a03e1321ed691a386adfabed1c6394a2",
      "assetIds": [
        "55464657044963196816950587289035428064568320970692304673817341489687505668096"
      ],
      "assetValues": [
        1
      ]
    },
    {
      "reservedAddress": "0x7398b0cfc18989824e38f68f2f45ecc1983cefd2",
      "assetIds": [
        "55464657044963196816950587289035428064568320970692304673817341489687505668096"
      ],
      "assetValues": [
        1
      ]
    },
    {
      "reservedAddress": "0x739dc8f3045f6ad394c62ed3ef043e8ce1ae2e1b",
      "assetIds": [
        "55464657044963196816950587289035428064568320970692304673817341489687505668096"
      ],
      "assetValues": [
        1
      ]
    },
    {
      "reservedAddress": "0x73cfba7ee894a77324c91e6398a22a0293637aae",
      "assetIds": [
        "55464657044963196816950587289035428064568320970692304673817341489687505668096"
      ],
      "assetValues": [
        1
      ]
    },
    {
      "reservedAddress": "0x73eaca2ceb41cc91f3b2a15c537c39197b84ba25",
      "assetIds": [
        "55464657044963196816950587289035428064568320970692304673817341489687505668096"
      ],
      "assetValues": [
        1
      ]
    },
    {
      "reservedAddress": "0x744ccd933f61c600562499483432241a9934e9e0",
      "assetIds": [
        "55464657044963196816950587289035428064568320970692304673817341489687505668096"
      ],
      "assetValues": [
        1
      ]
    },
    {
      "reservedAddress": "0x7463ee48a38a7097ffcaa9cdd860a49cac16283c",
      "assetIds": [
        "55464657044963196816950587289035428064568320970692304673817341489687505668096"
      ],
      "assetValues": [
        1
      ]
    },
    {
      "reservedAddress": "0x746e75df29cac805d2111dfe84935aa858d9ab99",
      "assetIds": [
        "55464657044963196816950587289035428064568320970692304673817341489687505668096"
      ],
      "assetValues": [
        1
      ]
    },
    {
      "reservedAddress": "0x7490e2cafd9c559866d0d34898979cb8abeb0856",
      "assetIds": [
        "55464657044963196816950587289035428064568320970692304673817341489687505668096"
      ],
      "assetValues": [
        1
      ]
    },
    {
      "reservedAddress": "0x749eea172df90714774a726e074c17bc92fd375a",
      "assetIds": [
        "55464657044963196816950587289035428064568320970692304673817341489687505668096"
      ],
      "assetValues": [
        1
      ]
    },
    {
      "reservedAddress": "0x74a231f77851d9f854a04197756b6a2508ff093a",
      "assetIds": [
        "55464657044963196816950587289035428064568320970692304673817341489687505668096"
      ],
      "assetValues": [
        1
      ]
    },
    {
      "reservedAddress": "0x74a5cce16554708e5e694070a09cf6e4527b89e1",
      "assetIds": [
        "55464657044963196816950587289035428064568320970692304673817341489687505668096"
      ],
      "assetValues": [
        1
      ]
    },
    {
      "reservedAddress": "0x74b6953a2c463c18293a6ad31cd5809e0c73a3bb",
      "assetIds": [
        "55464657044963196816950587289035428064568320970692304673817341489687505668096"
      ],
      "assetValues": [
        1
      ]
    },
    {
      "reservedAddress": "0x74b6a2072a4807aebe5f392b42020f41b083901d",
      "assetIds": [
        "55464657044963196816950587289035428064568320970692304673817341489687505668096"
      ],
      "assetValues": [
        1
      ]
    },
    {
      "reservedAddress": "0x74c3b4a05f68669c5d744f699c505168eeee4f96",
      "assetIds": [
        "55464657044963196816950587289035428064568320970692304673817341489687505668096"
      ],
      "assetValues": [
        1
      ]
    },
    {
      "reservedAddress": "0x74c7e81daf6420c9bf7fa0ad635c23fa11ba7ab4",
      "assetIds": [
        "55464657044963196816950587289035428064568320970692304673817341489687505668096"
      ],
      "assetValues": [
        1
      ]
    },
    {
      "reservedAddress": "0x74e2f04def059397d4a3382fd4a85df062d75bf4",
      "assetIds": [
        "55464657044963196816950587289035428064568320970692304673817341489687505668096"
      ],
      "assetValues": [
        1
      ]
    },
    {
      "reservedAddress": "0x7505f090e25e1511f80e2bf041caa158c32b7bd4",
      "assetIds": [
        "55464657044963196816950587289035428064568320970692304673817341489687505668096"
      ],
      "assetValues": [
        1
      ]
    },
    {
      "reservedAddress": "0x7529c3bed12ec42446796c356190c9bf7729c790",
      "assetIds": [
        "55464657044963196816950587289035428064568320970692304673817341489687505668096"
      ],
      "assetValues": [
        1
      ]
    },
    {
      "reservedAddress": "0x7532becd60d5a8dcda82176605df84c228fa94da",
      "assetIds": [
        "55464657044963196816950587289035428064568320970692304673817341489687505668096"
      ],
      "assetValues": [
        1
      ]
    },
    {
      "reservedAddress": "0x7554c46eb39c3ba5eb3c6d99b65a751832059605",
      "assetIds": [
        "55464657044963196816950587289035428064568320970692304673817341489687505668096"
      ],
      "assetValues": [
        1
      ]
    },
    {
      "reservedAddress": "0x756efccd8a781ff00d8a0e3640f94c45a542cfc4",
      "assetIds": [
        "55464657044963196816950587289035428064568320970692304673817341489687505668096"
      ],
      "assetValues": [
        1
      ]
    },
    {
      "reservedAddress": "0x757a04b5750b2f2d4546184c1fc17889366dd641",
      "assetIds": [
        "55464657044963196816950587289035428064568320970692304673817341489687505668096"
      ],
      "assetValues": [
        1
      ]
    },
    {
      "reservedAddress": "0x75a08951340a388486062019515f1e75fdb733d1",
      "assetIds": [
        "55464657044963196816950587289035428064568320970692304673817341489687505668096"
      ],
      "assetValues": [
        1
      ]
    },
    {
      "reservedAddress": "0x75aadf2d0ff7eb21e98eabc35ffec3602e207988",
      "assetIds": [
        "55464657044963196816950587289035428064568320970692304673817341489687505668096"
      ],
      "assetValues": [
        1
      ]
    },
    {
      "reservedAddress": "0x75b07e64161ace39d6eab54d25f25410ffd3d458",
      "assetIds": [
        "55464657044963196816950587289035428064568320970692304673817341489687505668096"
      ],
      "assetValues": [
        1
      ]
    },
    {
      "reservedAddress": "0x761599064123baf63413e5c7b84e25ed64531867",
      "assetIds": [
        "55464657044963196816950587289035428064568320970692304673817341489687505668096"
      ],
      "assetValues": [
        1
      ]
    },
    {
      "reservedAddress": "0x763489f80288435e0df77ed49cdc3f923c74d81d",
      "assetIds": [
        "55464657044963196816950587289035428064568320970692304673817341489687505668096"
      ],
      "assetValues": [
        1
      ]
    },
    {
      "reservedAddress": "0x7639aa448fbdcd62bbf2d2efcc7a2ff0e7be19c1",
      "assetIds": [
        "55464657044963196816950587289035428064568320970692304673817341489687505668096"
      ],
      "assetValues": [
        1
      ]
    },
    {
      "reservedAddress": "0x76496b467fb407239368aae15a8a690195d737ed",
      "assetIds": [
        "55464657044963196816950587289035428064568320970692304673817341489687505668096"
      ],
      "assetValues": [
        1
      ]
    },
    {
      "reservedAddress": "0x76516767b4d1420b2fd100a9a64a9a0b2db1a6c8",
      "assetIds": [
        "55464657044963196816950587289035428064568320970692304673817341489687505668096"
      ],
      "assetValues": [
        1
      ]
    },
    {
      "reservedAddress": "0x76586c6a7586c0f0d92c789d1f9530914ef4ea8f",
      "assetIds": [
        "55464657044963196816950587289035428064568320970692304673817341489687505668096"
      ],
      "assetValues": [
        1
      ]
    },
    {
      "reservedAddress": "0x765d4c00c65511cdc9f61015cb757a0dc38c7d50",
      "assetIds": [
        "55464657044963196816950587289035428064568320970692304673817341489687505668096"
      ],
      "assetValues": [
        1
      ]
    },
    {
      "reservedAddress": "0x7672b17d5eebb7194d57066f86fbcb4e85a7e10e",
      "assetIds": [
        "55464657044963196816950587289035428064568320970692304673817341489687505668096"
      ],
      "assetValues": [
        1
      ]
    },
    {
      "reservedAddress": "0x769dbe7d39da059cdd503ca347d22b21a4228627",
      "assetIds": [
        "55464657044963196816950587289035428064568320970692304673817341489687505668096"
      ],
      "assetValues": [
        1
      ]
    },
    {
      "reservedAddress": "0x76ab14edc42c86c33b17722dc75f5d881e21135f",
      "assetIds": [
        "55464657044963196816950587289035428064568320970692304673817341489687505668096"
      ],
      "assetValues": [
        1
      ]
    },
    {
      "reservedAddress": "0x76b6bcb5ee2ad8c9d71dfebb4cfbd18951b739b1",
      "assetIds": [
        "55464657044963196816950587289035428064568320970692304673817341489687505668096"
      ],
      "assetValues": [
        1
      ]
    },
    {
      "reservedAddress": "0x77044143ec0c4fd406b16cf7d96d8e6a111a51fe",
      "assetIds": [
        "55464657044963196816950587289035428064568320970692304673817341489687505668096"
      ],
      "assetValues": [
        1
      ]
    },
    {
      "reservedAddress": "0x771456a851108e7dbb2c03d063b8a1f45abeee4f",
      "assetIds": [
        "55464657044963196816950587289035428064568320970692304673817341489687505668096"
      ],
      "assetValues": [
        1
      ]
    },
    {
      "reservedAddress": "0x771605ada397cf5bd1134765eeab51dce7b54244",
      "assetIds": [
        "55464657044963196816950587289035428064568320970692304673817341489687505668096"
      ],
      "assetValues": [
        1
      ]
    },
    {
      "reservedAddress": "0x7726220d74920dd5beda209130807ea1241f4964",
      "assetIds": [
        "55464657044963196816950587289035428064568320970692304673817341489687505668096"
      ],
      "assetValues": [
        1
      ]
    },
    {
      "reservedAddress": "0x772ae620b22e852aea9e27a88544ce02e2053508",
      "assetIds": [
        "55464657044963196816950587289035428064568320970692304673817341489687505668096"
      ],
      "assetValues": [
        1
      ]
    },
    {
      "reservedAddress": "0x774d45c243e0cb635a6e11b2d486effed824a7be",
      "assetIds": [
        "55464657044963196816950587289035428064568320970692304673817341489687505668096"
      ],
      "assetValues": [
        1
      ]
    },
    {
      "reservedAddress": "0x7767fea8bc523ab250b505df3e89a43b9c658e64",
      "assetIds": [
        "55464657044963196816950587289035428064568320970692304673817341489687505668096"
      ],
      "assetValues": [
        1
      ]
    },
    {
      "reservedAddress": "0x776da6e8d3a9d7ff5757fa815b20a99e6b05c067",
      "assetIds": [
        "55464657044963196816950587289035428064568320970692304673817341489687505668096"
      ],
      "assetValues": [
        1
      ]
    },
    {
      "reservedAddress": "0x779a734214430a4188a9421533a884e7bdaab393",
      "assetIds": [
        "55464657044963196816950587289035428064568320970692304673817341489687505668096"
      ],
      "assetValues": [
        1
      ]
    },
    {
      "reservedAddress": "0x77be57be4a0a1c0892241501bb91754442ec18a4",
      "assetIds": [
        "55464657044963196816950587289035428064568320970692304673817341489687505668096"
      ],
      "assetValues": [
        1
      ]
    },
    {
      "reservedAddress": "0x77bf4005a7749eac3052b7d3f4f513a81280901c",
      "assetIds": [
        "55464657044963196816950587289035428064568320970692304673817341489687505668096"
      ],
      "assetValues": [
        1
      ]
    },
    {
      "reservedAddress": "0x77d41a1589f800cd487c2938fd78082df89c4f00",
      "assetIds": [
        "55464657044963196816950587289035428064568320970692304673817341489687505668096"
      ],
      "assetValues": [
        1
      ]
    },
    {
      "reservedAddress": "0x77d8c672d9fc98e44a036b2b24f51a9613da7e41",
      "assetIds": [
        "55464657044963196816950587289035428064568320970692304673817341489687505668096"
      ],
      "assetValues": [
        1
      ]
    },
    {
      "reservedAddress": "0x77e0441e260361e0792c1c0fb7dcef9b8b900df0",
      "assetIds": [
        "55464657044963196816950587289035428064568320970692304673817341489687505668096"
      ],
      "assetValues": [
        1
      ]
    },
    {
      "reservedAddress": "0x77f867b9bd0befbc7b70d00f7dc9cecd5f27eec0",
      "assetIds": [
        "55464657044963196816950587289035428064568320970692304673817341489687505668096"
      ],
      "assetValues": [
        1
      ]
    },
    {
      "reservedAddress": "0x77fccd013938dc08c92789b22ff99a05a8d302d3",
      "assetIds": [
        "55464657044963196816950587289035428064568320970692304673817341489687505668096"
      ],
      "assetValues": [
        1
      ]
    },
    {
      "reservedAddress": "0x7884d709c3c7a4d4384a3fc1e7dc47b79b1ee099",
      "assetIds": [
        "55464657044963196816950587289035428064568320970692304673817341489687505668096"
      ],
      "assetValues": [
        1
      ]
    },
    {
      "reservedAddress": "0x788bfe4a8685b1294a946d1f9c41112e41befba6",
      "assetIds": [
        "55464657044963196816950587289035428064568320970692304673817341489687505668096"
      ],
      "assetValues": [
        1
      ]
    },
    {
      "reservedAddress": "0x78ce72598a88bcc2812635cedc2b8a473757af5f",
      "assetIds": [
        "55464657044963196816950587289035428064568320970692304673817341489687505668096"
      ],
      "assetValues": [
        1
      ]
    },
    {
      "reservedAddress": "0x78d6acc2cd4d59af98cbc6041571ee1a791f25e1",
      "assetIds": [
        "55464657044963196816950587289035428064568320970692304673817341489687505668096"
      ],
      "assetValues": [
        1
      ]
    },
    {
      "reservedAddress": "0x78e2c4de212474d410456e9aa0c3acbc44f0643a",
      "assetIds": [
        "55464657044963196816950587289035428064568320970692304673817341489687505668096"
      ],
      "assetValues": [
        1
      ]
    },
    {
      "reservedAddress": "0x78fecc333ba664c67c67680fa198c48f4e0749ed",
      "assetIds": [
        "55464657044963196816950587289035428064568320970692304673817341489687505668096"
      ],
      "assetValues": [
        1
      ]
    },
    {
      "reservedAddress": "0x790992538e18e817b2d5666ace0d8d9024cc72eb",
      "assetIds": [
        "55464657044963196816950587289035428064568320970692304673817341489687505668096"
      ],
      "assetValues": [
        1
      ]
    },
    {
      "reservedAddress": "0x7921493ffd89e724de1a8665b13605ccea6bc3ef",
      "assetIds": [
        "55464657044963196816950587289035428064568320970692304673817341489687505668096"
      ],
      "assetValues": [
        1
      ]
    },
    {
      "reservedAddress": "0x7924afdecf45d815fb609b7a2da514327733e287",
      "assetIds": [
        "55464657044963196816950587289035428064568320970692304673817341489687505668096"
      ],
      "assetValues": [
        1
      ]
    },
    {
      "reservedAddress": "0x792d51f8c4bfb080f98ba4d25813ed570715e9fb",
      "assetIds": [
        "55464657044963196816950587289035428064568320970692304673817341489687505668096"
      ],
      "assetValues": [
        1
      ]
    },
    {
      "reservedAddress": "0x7948b33d5185edb76ed9d75fa7bb7b2fbd287097",
      "assetIds": [
        "55464657044963196816950587289035428064568320970692304673817341489687505668096"
      ],
      "assetValues": [
        1
      ]
    },
    {
      "reservedAddress": "0x79643fe57556167601352967dcd0e73bac09ed9e",
      "assetIds": [
        "55464657044963196816950587289035428064568320970692304673817341489687505668096"
      ],
      "assetValues": [
        1
      ]
    },
    {
      "reservedAddress": "0x796ef5a509e0335c4a98854e556045b0cfa7c26b",
      "assetIds": [
        "55464657044963196816950587289035428064568320970692304673817341489687505668096"
      ],
      "assetValues": [
        1
      ]
    },
    {
      "reservedAddress": "0x79706ffcc313c447af69652f34cdd70f767f0402",
      "assetIds": [
        "55464657044963196816950587289035428064568320970692304673817341489687505668096"
      ],
      "assetValues": [
        1
      ]
    },
    {
      "reservedAddress": "0x7979dbb8001e49561dda0d9731d86250f71d8014",
      "assetIds": [
        "55464657044963196816950587289035428064568320970692304673817341489687505668096"
      ],
      "assetValues": [
        1
      ]
    },
    {
      "reservedAddress": "0x79d45eff9a59b63dbb71ed94a90a832ca38f21e1",
      "assetIds": [
        "55464657044963196816950587289035428064568320970692304673817341489687505668096"
      ],
      "assetValues": [
        1
      ]
    },
    {
      "reservedAddress": "0x79d4d0df5733222047fc73e6097a144f51350009",
      "assetIds": [
        "55464657044963196816950587289035428064568320970692304673817341489687505668096"
      ],
      "assetValues": [
        1
      ]
    },
    {
      "reservedAddress": "0x79dc3ce6d5d41827089dbaa26b080eb1b0cbb832",
      "assetIds": [
        "55464657044963196816950587289035428064568320970692304673817341489687505668096"
      ],
      "assetValues": [
        1
      ]
    },
    {
      "reservedAddress": "0x79e088d5c4752d7a4a73b6a8d5ddd6d7efe6a873",
      "assetIds": [
        "55464657044963196816950587289035428064568320970692304673817341489687505668096"
      ],
      "assetValues": [
        1
      ]
    },
    {
      "reservedAddress": "0x79e9cf47fa600e829b3edc29225807b7f1f9b8fc",
      "assetIds": [
        "55464657044963196816950587289035428064568320970692304673817341489687505668096"
      ],
      "assetValues": [
        1
      ]
    },
    {
      "reservedAddress": "0x7a282701403dadb827a2f83cc3e714e7660537fa",
      "assetIds": [
        "55464657044963196816950587289035428064568320970692304673817341489687505668096"
      ],
      "assetValues": [
        1
      ]
    },
    {
      "reservedAddress": "0x7a38760c295f1ea086005214a279fb1280010483",
      "assetIds": [
        "55464657044963196816950587289035428064568320970692304673817341489687505668096"
      ],
      "assetValues": [
        1
      ]
    },
    {
      "reservedAddress": "0x7a40f8d50c926417437a37fed26044e8c8384515",
      "assetIds": [
        "55464657044963196816950587289035428064568320970692304673817341489687505668096"
      ],
      "assetValues": [
        1
      ]
    },
    {
      "reservedAddress": "0x7a48da8a23cfcb0b7e0096f37156e50d6aa59065",
      "assetIds": [
        "55464657044963196816950587289035428064568320970692304673817341489687505668096"
      ],
      "assetValues": [
        1
      ]
    },
    {
      "reservedAddress": "0x7a7e127261e1ead06e7f92070cf1e8b9789d8822",
      "assetIds": [
        "55464657044963196816950587289035428064568320970692304673817341489687505668096"
      ],
      "assetValues": [
        1
      ]
    },
    {
      "reservedAddress": "0x7a805877d6555de3543c157c78a63dab1128d6d2",
      "assetIds": [
        "55464657044963196816950587289035428064568320970692304673817341489687505668096"
      ],
      "assetValues": [
        1
      ]
    },
    {
      "reservedAddress": "0x7a97484f57d98a62b0195d79b9600624744de59c",
      "assetIds": [
        "55464657044963196816950587289035428064568320970692304673817341489687505668096"
      ],
      "assetValues": [
        1
      ]
    },
    {
      "reservedAddress": "0x7a9fe22691c811ea339d9b73150e6911a5343dca",
      "assetIds": [
        "55464657044963196816950587289035428064568320970692304673817341489687505668096"
      ],
      "assetValues": [
        1
      ]
    },
    {
      "reservedAddress": "0x7aacdddbdd4d951efb1e8a41eecf51125c681b2b",
      "assetIds": [
        "55464657044963196816950587289035428064568320970692304673817341489687505668096"
      ],
      "assetValues": [
        1
      ]
    },
    {
      "reservedAddress": "0x7aad8454d6b42c61ee050961157ff26ec1560130",
      "assetIds": [
        "55464657044963196816950587289035428064568320970692304673817341489687505668096"
      ],
      "assetValues": [
        1
      ]
    },
    {
      "reservedAddress": "0x7ab4e37482200cdad0b742cacdcc9ec63301e8a7",
      "assetIds": [
        "55464657044963196816950587289035428064568320970692304673817341489687505668096"
      ],
      "assetValues": [
        1
      ]
    },
    {
      "reservedAddress": "0x7ad31db902145888f889c4250ebfc20a9beff04c",
      "assetIds": [
        "55464657044963196816950587289035428064568320970692304673817341489687505668096"
      ],
      "assetValues": [
        1
      ]
    },
    {
      "reservedAddress": "0x7adaae445a5b494649e3db5c09364bd7020fb704",
      "assetIds": [
        "55464657044963196816950587289035428064568320970692304673817341489687505668096"
      ],
      "assetValues": [
        1
      ]
    },
    {
      "reservedAddress": "0x7ae02e3871f38d0ba4a5192d97621ba52083fd06",
      "assetIds": [
        "55464657044963196816950587289035428064568320970692304673817341489687505668096"
      ],
      "assetValues": [
        1
      ]
    },
    {
      "reservedAddress": "0x7aeea42ba02f9085248a09c6b6d9a7bf7240bd9f",
      "assetIds": [
        "55464657044963196816950587289035428064568320970692304673817341489687505668096"
      ],
      "assetValues": [
        1
      ]
    },
    {
      "reservedAddress": "0x7afbf25c055224bc95b9cd56e66d17f38a0903d8",
      "assetIds": [
        "55464657044963196816950587289035428064568320970692304673817341489687505668096"
      ],
      "assetValues": [
        1
      ]
    },
    {
      "reservedAddress": "0x7afd9f5396841ad270ad8becbd6e9c7aa128c866",
      "assetIds": [
        "55464657044963196816950587289035428064568320970692304673817341489687505668096"
      ],
      "assetValues": [
        1
      ]
    },
    {
      "reservedAddress": "0x7b1fafcb5f477441f0c86cf6645b7072ba109580",
      "assetIds": [
        "55464657044963196816950587289035428064568320970692304673817341489687505668096"
      ],
      "assetValues": [
        1
      ]
    },
    {
      "reservedAddress": "0x7b2ad6af37be6a77c95556d9453e4877b6a8437d",
      "assetIds": [
        "55464657044963196816950587289035428064568320970692304673817341489687505668096"
      ],
      "assetValues": [
        1
      ]
    },
    {
      "reservedAddress": "0x7b33b34d45a395518a4143846ac40da78cbcaa91",
      "assetIds": [
        "55464657044963196816950587289035428064568320970692304673817341489687505668096"
      ],
      "assetValues": [
        1
      ]
    },
    {
      "reservedAddress": "0x7b51fbff3aedd59a25b1cf899ca6d595f023b251",
      "assetIds": [
        "55464657044963196816950587289035428064568320970692304673817341489687505668096"
      ],
      "assetValues": [
        1
      ]
    },
    {
      "reservedAddress": "0x7b6dc4b5f15f7a094bb0f3ed66582e92c52b3851",
      "assetIds": [
        "55464657044963196816950587289035428064568320970692304673817341489687505668096"
      ],
      "assetValues": [
        1
      ]
    },
    {
      "reservedAddress": "0x7b8340672fd66ab15564580675203cb4a044b170",
      "assetIds": [
        "55464657044963196816950587289035428064568320970692304673817341489687505668096"
      ],
      "assetValues": [
        1
      ]
    },
    {
      "reservedAddress": "0x7bb243eeada7ef24da7f4f7e11c85b4c7b599c82",
      "assetIds": [
        "55464657044963196816950587289035428064568320970692304673817341489687505668096"
      ],
      "assetValues": [
        1
      ]
    },
    {
      "reservedAddress": "0x7bb373df40d495405a4764209130100feb7ea6e5",
      "assetIds": [
        "55464657044963196816950587289035428064568320970692304673817341489687505668096"
      ],
      "assetValues": [
        1
      ]
    },
    {
      "reservedAddress": "0x7bcbac1d9ee4fc6bd5b0013f7a44df27e8db67c2",
      "assetIds": [
        "55464657044963196816950587289035428064568320970692304673817341489687505668096"
      ],
      "assetValues": [
        1
      ]
    },
    {
      "reservedAddress": "0x7be256c9fa40d3158bb76a8a47b903c03721cf3f",
      "assetIds": [
        "55464657044963196816950587289035428064568320970692304673817341489687505668096"
      ],
      "assetValues": [
        1
      ]
    },
    {
      "reservedAddress": "0x7bea6804773a588d9e08c35ae5b51862f29bb698",
      "assetIds": [
        "55464657044963196816950587289035428064568320970692304673817341489687505668096"
      ],
      "assetValues": [
        1
      ]
    },
    {
      "reservedAddress": "0x7beed30332656ca4220cb2ce8e4508fb18013e8d",
      "assetIds": [
        "55464657044963196816950587289035428064568320970692304673817341489687505668096"
      ],
      "assetValues": [
        1
      ]
    },
    {
      "reservedAddress": "0x7c00c9f0e7aed440c0c730a9bd9ee4f49de20d5c",
      "assetIds": [
        "55464657044963196816950587289035428064568320970692304673817341489687505668096"
      ],
      "assetValues": [
        1
      ]
    },
    {
      "reservedAddress": "0x7c034c2d0bcb3c55cba6ca6270e9e57692ed34ec",
      "assetIds": [
        "55464657044963196816950587289035428064568320970692304673817341489687505668096"
      ],
      "assetValues": [
        1
      ]
    },
    {
      "reservedAddress": "0x7c36e612ebb0907f763fff1581abd5e99a97d2c6",
      "assetIds": [
        "55464657044963196816950587289035428064568320970692304673817341489687505668096"
      ],
      "assetValues": [
        1
      ]
    },
    {
      "reservedAddress": "0x7c6f5ae01a7e0afd2a57befa5fb4f9d7567d976b",
      "assetIds": [
        "55464657044963196816950587289035428064568320970692304673817341489687505668096"
      ],
      "assetValues": [
        1
      ]
    },
    {
      "reservedAddress": "0x7c7c7c801afda3c63098d592ce32ac563e1908ed",
      "assetIds": [
        "55464657044963196816950587289035428064568320970692304673817341489687505668096"
      ],
      "assetValues": [
        1
      ]
    },
    {
      "reservedAddress": "0x7c870bdd103937e30ef20ab31cdc4e43208a9a6c",
      "assetIds": [
        "55464657044963196816950587289035428064568320970692304673817341489687505668096"
      ],
      "assetValues": [
        1
      ]
    },
    {
      "reservedAddress": "0x7c8879c0ae2813571c08a005538492e77cb21233",
      "assetIds": [
        "55464657044963196816950587289035428064568320970692304673817341489687505668096"
      ],
      "assetValues": [
        1
      ]
    },
    {
      "reservedAddress": "0x7c8db97f875361fd603bc14e11b4a66b762a488d",
      "assetIds": [
        "55464657044963196816950587289035428064568320970692304673817341489687505668096"
      ],
      "assetValues": [
        1
      ]
    },
    {
      "reservedAddress": "0x7c9aaa82bc7fc11a2a9c568192afa9cef4413bb8",
      "assetIds": [
        "55464657044963196816950587289035428064568320970692304673817341489687505668096"
      ],
      "assetValues": [
        1
      ]
    },
    {
      "reservedAddress": "0x7cd446c49a92fb0291f476798f95d5d42e221458",
      "assetIds": [
        "55464657044963196816950587289035428064568320970692304673817341489687505668096"
      ],
      "assetValues": [
        1
      ]
    },
    {
      "reservedAddress": "0x7cff2ac51d92cc5e90dfa8beb59a353222371944",
      "assetIds": [
        "55464657044963196816950587289035428064568320970692304673817341489687505668096"
      ],
      "assetValues": [
        1
      ]
    },
    {
      "reservedAddress": "0x7d238bb0b5b3bf494144fa261d20522f6131b125",
      "assetIds": [
        "55464657044963196816950587289035428064568320970692304673817341489687505668096"
      ],
      "assetValues": [
        1
      ]
    },
    {
      "reservedAddress": "0x7d28ee4d23e2e3ac5157bd89a20cacf80a8e0a68",
      "assetIds": [
        "55464657044963196816950587289035428064568320970692304673817341489687505668096"
      ],
      "assetValues": [
        1
      ]
    },
    {
      "reservedAddress": "0x7d36b415ede934634c23f640254ed3b1feedf2da",
      "assetIds": [
        "55464657044963196816950587289035428064568320970692304673817341489687505668096"
      ],
      "assetValues": [
        1
      ]
    },
    {
      "reservedAddress": "0x7d3758fe093aa9e7eecd442427fdc53cc3e3291f",
      "assetIds": [
        "55464657044963196816950587289035428064568320970692304673817341489687505668096"
      ],
      "assetValues": [
        1
      ]
    },
    {
      "reservedAddress": "0x7d3fb47c5650c4f8e5cbe187cea4dc2846e6f45a",
      "assetIds": [
        "55464657044963196816950587289035428064568320970692304673817341489687505668096"
      ],
      "assetValues": [
        1
      ]
    },
    {
      "reservedAddress": "0x7d4ced15383b36f964cc6d34b2d58b2e5fdeb572",
      "assetIds": [
        "55464657044963196816950587289035428064568320970692304673817341489687505668096"
      ],
      "assetValues": [
        1
      ]
    },
    {
      "reservedAddress": "0x7d71899c62bbb5dde7121bdb3f6dbae17bc2a912",
      "assetIds": [
        "55464657044963196816950587289035428064568320970692304673817341489687505668096"
      ],
      "assetValues": [
        1
      ]
    },
    {
      "reservedAddress": "0x7d8391a9d2199b3afa76e7824164503bb2fcc4bd",
      "assetIds": [
        "55464657044963196816950587289035428064568320970692304673817341489687505668096"
      ],
      "assetValues": [
        1
      ]
    },
    {
      "reservedAddress": "0x7d8861e9c3ef1587164ccc9bb636bb84eb98f0a2",
      "assetIds": [
        "55464657044963196816950587289035428064568320970692304673817341489687505668096"
      ],
      "assetValues": [
        1
      ]
    },
    {
      "reservedAddress": "0x7da84b9f3be7819207262d1ce6da766b0e1cc8ab",
      "assetIds": [
        "55464657044963196816950587289035428064568320970692304673817341489687505668096"
      ],
      "assetValues": [
        1
      ]
    },
    {
      "reservedAddress": "0x7df2f70fd77db9ca7b2ab887237d012e3a5911a4",
      "assetIds": [
        "55464657044963196816950587289035428064568320970692304673817341489687505668096"
      ],
      "assetValues": [
        1
      ]
    },
    {
      "reservedAddress": "0x7e0de483a33bd04d2efe38686be5cb25cfd3e533",
      "assetIds": [
        "55464657044963196816950587289035428064568320970692304673817341489687505668096"
      ],
      "assetValues": [
        1
      ]
    },
    {
      "reservedAddress": "0x7e1dcf785f0353bf657c38ab7865c1f184efe208",
      "assetIds": [
        "55464657044963196816950587289035428064568320970692304673817341489687505668096"
      ],
      "assetValues": [
        1
      ]
    },
    {
      "reservedAddress": "0x7e28e6f93b0447f234624254a441c2f81218c842",
      "assetIds": [
        "55464657044963196816950587289035428064568320970692304673817341489687505668096"
      ],
      "assetValues": [
        1
      ]
    },
    {
      "reservedAddress": "0x7e2ae811d8dd76ec6503c6e5e430b52b12940478",
      "assetIds": [
        "55464657044963196816950587289035428064568320970692304673817341489687505668096"
      ],
      "assetValues": [
        1
      ]
    },
    {
      "reservedAddress": "0x7e30c4cffdbe6df08cd258ee723d1fcd8d234b4f",
      "assetIds": [
        "55464657044963196816950587289035428064568320970692304673817341489687505668096"
      ],
      "assetValues": [
        1
      ]
    },
    {
      "reservedAddress": "0x7e45c3e5faf9a73b309bbde7f248d912d5a42924",
      "assetIds": [
        "55464657044963196816950587289035428064568320970692304673817341489687505668096"
      ],
      "assetValues": [
        1
      ]
    },
    {
      "reservedAddress": "0x7e895353c001e81199fa940d4430656d72933d08",
      "assetIds": [
        "55464657044963196816950587289035428064568320970692304673817341489687505668096"
      ],
      "assetValues": [
        1
      ]
    },
    {
      "reservedAddress": "0x7e8bbb21c5ed1c1500444884280b0488f4b21bbc",
      "assetIds": [
        "55464657044963196816950587289035428064568320970692304673817341489687505668096"
      ],
      "assetValues": [
        1
      ]
    },
    {
      "reservedAddress": "0x7e8c360729a79e1111d1152feb3d703422a8a524",
      "assetIds": [
        "55464657044963196816950587289035428064568320970692304673817341489687505668096"
      ],
      "assetValues": [
        1
      ]
    },
    {
      "reservedAddress": "0x7ec2b7fb5e2d493d7783fcee7cfaa57630b6d977",
      "assetIds": [
        "55464657044963196816950587289035428064568320970692304673817341489687505668096"
      ],
      "assetValues": [
        1
      ]
    },
    {
      "reservedAddress": "0x7ee567d2ac5dca4c422281deb1e2334a805ba6c1",
      "assetIds": [
        "55464657044963196816950587289035428064568320970692304673817341489687505668096"
      ],
      "assetValues": [
        1
      ]
    },
    {
      "reservedAddress": "0x7ee93e58f1784f23956de508ed0ec33ec8be9701",
      "assetIds": [
        "55464657044963196816950587289035428064568320970692304673817341489687505668096"
      ],
      "assetValues": [
        1
      ]
    },
    {
      "reservedAddress": "0x7eed58b12372718087a267e75d0f4266a359b9d1",
      "assetIds": [
        "55464657044963196816950587289035428064568320970692304673817341489687505668096"
      ],
      "assetValues": [
        1
      ]
    },
    {
      "reservedAddress": "0x7ef1d97a009ff8a63f4d35eabd88f10e71b2e2a1",
      "assetIds": [
        "55464657044963196816950587289035428064568320970692304673817341489687505668096"
      ],
      "assetValues": [
        1
      ]
    },
    {
      "reservedAddress": "0x7f5195da61a6c49c91fa159c9fc6627fd9f73084",
      "assetIds": [
        "55464657044963196816950587289035428064568320970692304673817341489687505668096"
      ],
      "assetValues": [
        1
      ]
    },
    {
      "reservedAddress": "0x7f561b815786a13e97073979a9b149fb11498a3e",
      "assetIds": [
        "55464657044963196816950587289035428064568320970692304673817341489687505668096"
      ],
      "assetValues": [
        1
      ]
    },
    {
      "reservedAddress": "0x7f709bc5be1c1721a50ac1867bfef62679986f5c",
      "assetIds": [
        "55464657044963196816950587289035428064568320970692304673817341489687505668096"
      ],
      "assetValues": [
        1
      ]
    },
    {
      "reservedAddress": "0x7f73144dfcf372938bf1b29c2cffbaba9e8b7af6",
      "assetIds": [
        "55464657044963196816950587289035428064568320970692304673817341489687505668096"
      ],
      "assetValues": [
        1
      ]
    },
    {
      "reservedAddress": "0x7f8c1eeef952dd67765735af2173b6ed1f8606c2",
      "assetIds": [
        "55464657044963196816950587289035428064568320970692304673817341489687505668096"
      ],
      "assetValues": [
        1
      ]
    },
    {
      "reservedAddress": "0x7fe3c1622a7c1742d762a0259078540951ffb1e3",
      "assetIds": [
        "55464657044963196816950587289035428064568320970692304673817341489687505668096"
      ],
      "assetValues": [
        1
      ]
    },
    {
      "reservedAddress": "0x7ff049537742f2d2af82c0d3f5c74e15846afc99",
      "assetIds": [
        "55464657044963196816950587289035428064568320970692304673817341489687505668096"
      ],
      "assetValues": [
        1
      ]
    },
    {
      "reservedAddress": "0x8006bd30c6c02b5c19388fd525a76647562a3516",
      "assetIds": [
        "55464657044963196816950587289035428064568320970692304673817341489687505668096"
      ],
      "assetValues": [
        1
      ]
    },
    {
      "reservedAddress": "0x80316f8d7cb35919c00de0251b80c825a8b8c080",
      "assetIds": [
        "55464657044963196816950587289035428064568320970692304673817341489687505668096"
      ],
      "assetValues": [
        1
      ]
    },
    {
      "reservedAddress": "0x8052dc09e5fa2cad9d0df243b772f01436f2511a",
      "assetIds": [
        "55464657044963196816950587289035428064568320970692304673817341489687505668096"
      ],
      "assetValues": [
        1
      ]
    },
    {
      "reservedAddress": "0x80547ec1ff1f2f43a5f8d1d9badf71cb2f423b1b",
      "assetIds": [
        "55464657044963196816950587289035428064568320970692304673817341489687505668096"
      ],
      "assetValues": [
        1
      ]
    },
    {
      "reservedAddress": "0x8091587f4dd6019196e89fe82a5ee40400fa8bf9",
      "assetIds": [
        "55464657044963196816950587289035428064568320970692304673817341489687505668096"
      ],
      "assetValues": [
        1
      ]
    },
    {
      "reservedAddress": "0x80a900487e898c70d4e152041730aba838b9c931",
      "assetIds": [
        "55464657044963196816950587289035428064568320970692304673817341489687505668096"
      ],
      "assetValues": [
        1
      ]
    },
    {
      "reservedAddress": "0x80b89af7c79fea58da946a2d78511b96d8d87d05",
      "assetIds": [
        "55464657044963196816950587289035428064568320970692304673817341489687505668096"
      ],
      "assetValues": [
        1
      ]
    },
    {
      "reservedAddress": "0x80c1eaaa6e2db1feb70bddd471fee963d5fd3225",
      "assetIds": [
        "55464657044963196816950587289035428064568320970692304673817341489687505668096"
      ],
      "assetValues": [
        1
      ]
    },
    {
      "reservedAddress": "0x80df7bd86e13b4683d5ca810b171e6cde31b1c48",
      "assetIds": [
        "55464657044963196816950587289035428064568320970692304673817341489687505668096"
      ],
      "assetValues": [
        1
      ]
    },
    {
      "reservedAddress": "0x81233e7c14b4c7f006a85944effc6e981a2cab91",
      "assetIds": [
        "55464657044963196816950587289035428064568320970692304673817341489687505668096"
      ],
      "assetValues": [
        1
      ]
    },
    {
      "reservedAddress": "0x813f26dd83d078718a3e76c6967d20a233ce8a31",
      "assetIds": [
        "55464657044963196816950587289035428064568320970692304673817341489687505668096"
      ],
      "assetValues": [
        1
      ]
    },
    {
      "reservedAddress": "0x814dcd4f54a8f2e5ec50fe4de860fb3274632572",
      "assetIds": [
        "55464657044963196816950587289035428064568320970692304673817341489687505668096"
      ],
      "assetValues": [
        1
      ]
    },
    {
      "reservedAddress": "0x8160eaf97761427e28de5408c0bc50fa12455849",
      "assetIds": [
        "55464657044963196816950587289035428064568320970692304673817341489687505668096"
      ],
      "assetValues": [
        1
      ]
    },
    {
      "reservedAddress": "0x81d241698ce1eb9ea6a7155390ed3280d3ec93c0",
      "assetIds": [
        "55464657044963196816950587289035428064568320970692304673817341489687505668096"
      ],
      "assetValues": [
        1
      ]
    },
    {
      "reservedAddress": "0x8224a40c8fcb20c5e20d3971431dfd3e3629b426",
      "assetIds": [
        "55464657044963196816950587289035428064568320970692304673817341489687505668096"
      ],
      "assetValues": [
        1
      ]
    },
    {
      "reservedAddress": "0x8228f0c42f29178444fadb3a75a42ed694d3cb59",
      "assetIds": [
        "55464657044963196816950587289035428064568320970692304673817341489687505668096"
      ],
      "assetValues": [
        1
      ]
    },
    {
      "reservedAddress": "0x8245fd955d74d8afca5ae87cec03355181b5696a",
      "assetIds": [
        "55464657044963196816950587289035428064568320970692304673817341489687505668096"
      ],
      "assetValues": [
        1
      ]
    },
    {
      "reservedAddress": "0x825276202540030a28fc91269eff442e983001cd",
      "assetIds": [
        "55464657044963196816950587289035428064568320970692304673817341489687505668096"
      ],
      "assetValues": [
        1
      ]
    },
    {
      "reservedAddress": "0x82593b2c146cec9bb5dcaae0234da507bc095217",
      "assetIds": [
        "55464657044963196816950587289035428064568320970692304673817341489687505668096"
      ],
      "assetValues": [
        1
      ]
    },
    {
      "reservedAddress": "0x82760441b9e5e0efa15d361c04f2bb80269260da",
      "assetIds": [
        "55464657044963196816950587289035428064568320970692304673817341489687505668096"
      ],
      "assetValues": [
        1
      ]
    },
    {
      "reservedAddress": "0x82a7e02b745c24ba513b691d62487b21a0778e38",
      "assetIds": [
        "55464657044963196816950587289035428064568320970692304673817341489687505668096"
      ],
      "assetValues": [
        1
      ]
    },
    {
      "reservedAddress": "0x82b16206e6d54ec145835720e13c43ecdb57b814",
      "assetIds": [
        "55464657044963196816950587289035428064568320970692304673817341489687505668096"
      ],
      "assetValues": [
        1
      ]
    },
    {
      "reservedAddress": "0x82b1f29c5608238df2618f996827933c0d844079",
      "assetIds": [
        "55464657044963196816950587289035428064568320970692304673817341489687505668096"
      ],
      "assetValues": [
        1
      ]
    },
    {
      "reservedAddress": "0x82b3b3fffd8680967305debf1816fe49b090670d",
      "assetIds": [
        "55464657044963196816950587289035428064568320970692304673817341489687505668096"
      ],
      "assetValues": [
        1
      ]
    },
    {
      "reservedAddress": "0x82ba48aa14c05090f68e0e51bf5c1f041b59a7b4",
      "assetIds": [
        "55464657044963196816950587289035428064568320970692304673817341489687505668096"
      ],
      "assetValues": [
        1
      ]
    },
    {
      "reservedAddress": "0x82d62b76144cd5895475b7a7c08920e90b791734",
      "assetIds": [
        "55464657044963196816950587289035428064568320970692304673817341489687505668096"
      ],
      "assetValues": [
        1
      ]
    },
    {
      "reservedAddress": "0x82e7bb7391de6b49666980046f605ec2d8048771",
      "assetIds": [
        "55464657044963196816950587289035428064568320970692304673817341489687505668096"
      ],
      "assetValues": [
        1
      ]
    },
    {
      "reservedAddress": "0x82f251ef91635b0832e46ef829df5d3af04c7af1",
      "assetIds": [
        "55464657044963196816950587289035428064568320970692304673817341489687505668096"
      ],
      "assetValues": [
        1
      ]
    },
    {
      "reservedAddress": "0x82f9374e36a3bdba3994e89608b891a4658f4d0d",
      "assetIds": [
        "55464657044963196816950587289035428064568320970692304673817341489687505668096"
      ],
      "assetValues": [
        1
      ]
    },
    {
      "reservedAddress": "0x83015f93c97816768a3a66fddfd6b3a98df1ca00",
      "assetIds": [
        "55464657044963196816950587289035428064568320970692304673817341489687505668096"
      ],
      "assetValues": [
        1
      ]
    },
    {
      "reservedAddress": "0x8328940835dd26c7aefddd9fc333c6a60a9b0670",
      "assetIds": [
        "55464657044963196816950587289035428064568320970692304673817341489687505668096"
      ],
      "assetValues": [
        1
      ]
    },
    {
      "reservedAddress": "0x832e1f262364a3d131cc98406d2cc7d5cd0691cd",
      "assetIds": [
        "55464657044963196816950587289035428064568320970692304673817341489687505668096"
      ],
      "assetValues": [
        1
      ]
    },
    {
      "reservedAddress": "0x8332ab2043fc667ebfae07c6b0e24390fdd01d2b",
      "assetIds": [
        "55464657044963196816950587289035428064568320970692304673817341489687505668096"
      ],
      "assetValues": [
        1
      ]
    },
    {
      "reservedAddress": "0x83330c3936106cb8a804db621eab3d56eacbceea",
      "assetIds": [
        "55464657044963196816950587289035428064568320970692304673817341489687505668096"
      ],
      "assetValues": [
        1
      ]
    },
    {
      "reservedAddress": "0x836ef75811984b4c6450d9756f848ebe19cbad02",
      "assetIds": [
        "55464657044963196816950587289035428064568320970692304673817341489687505668096"
      ],
      "assetValues": [
        1
      ]
    },
    {
      "reservedAddress": "0x837d21cfda71e93e5257f95ce2c49751675ebcb1",
      "assetIds": [
        "55464657044963196816950587289035428064568320970692304673817341489687505668096"
      ],
      "assetValues": [
        1
      ]
    },
    {
      "reservedAddress": "0x837d9d23c9c655acfd22a5f1bb33145637091506",
      "assetIds": [
        "55464657044963196816950587289035428064568320970692304673817341489687505668096"
      ],
      "assetValues": [
        1
      ]
    },
    {
      "reservedAddress": "0x83a3b2e656fa61fdfb997dd66aff653af813a9d1",
      "assetIds": [
        "55464657044963196816950587289035428064568320970692304673817341489687505668096"
      ],
      "assetValues": [
        1
      ]
    },
    {
      "reservedAddress": "0x83a50ae53f483d4c2f65d646a69896551d6c5696",
      "assetIds": [
        "55464657044963196816950587289035428064568320970692304673817341489687505668096"
      ],
      "assetValues": [
        1
      ]
    },
    {
      "reservedAddress": "0x83c0599626e84871d85e0aa080d5813541fd4054",
      "assetIds": [
        "55464657044963196816950587289035428064568320970692304673817341489687505668096"
      ],
      "assetValues": [
        1
      ]
    },
    {
      "reservedAddress": "0x83f5e3bebe02425a6c2fbfd8915cb3250b619aae",
      "assetIds": [
        "55464657044963196816950587289035428064568320970692304673817341489687505668096"
      ],
      "assetValues": [
        1
      ]
    },
    {
      "reservedAddress": "0x840f2415fd40e84966a72ff0b28f47d27a705693",
      "assetIds": [
        "55464657044963196816950587289035428064568320970692304673817341489687505668096"
      ],
      "assetValues": [
        1
      ]
    },
    {
      "reservedAddress": "0x841f3a12d45651c21ecfa26546c9e77f5ff4fe80",
      "assetIds": [
        "55464657044963196816950587289035428064568320970692304673817341489687505668096"
      ],
      "assetValues": [
        1
      ]
    },
    {
      "reservedAddress": "0x843d02fd92cf881f7c344bf8f7ee1ae8d31a1e22",
      "assetIds": [
        "55464657044963196816950587289035428064568320970692304673817341489687505668096"
      ],
      "assetValues": [
        1
      ]
    },
    {
      "reservedAddress": "0x84418393d2c31c873811452550cf11da9059b9fe",
      "assetIds": [
        "55464657044963196816950587289035428064568320970692304673817341489687505668096"
      ],
      "assetValues": [
        1
      ]
    },
    {
      "reservedAddress": "0x84491bd79eb704247bdd1b2645094b87844f3202",
      "assetIds": [
        "55464657044963196816950587289035428064568320970692304673817341489687505668096"
      ],
      "assetValues": [
        1
      ]
    },
    {
      "reservedAddress": "0x8453592b28e19fc686f998c0c5c22f2ad3a13dfe",
      "assetIds": [
        "55464657044963196816950587289035428064568320970692304673817341489687505668096"
      ],
      "assetValues": [
        1
      ]
    },
    {
      "reservedAddress": "0x846131978a3fe908be67dc1889b4c2ab9b9874f4",
      "assetIds": [
        "55464657044963196816950587289035428064568320970692304673817341489687505668096"
      ],
      "assetValues": [
        1
      ]
    },
    {
      "reservedAddress": "0x8489974edbdd07ded7e1245f61570332b88e7b73",
      "assetIds": [
        "55464657044963196816950587289035428064568320970692304673817341489687505668096"
      ],
      "assetValues": [
        1
      ]
    },
    {
      "reservedAddress": "0x849a992852911a99965a009ab839fce6a0595ec4",
      "assetIds": [
        "55464657044963196816950587289035428064568320970692304673817341489687505668096"
      ],
      "assetValues": [
        1
      ]
    },
    {
      "reservedAddress": "0x84a3bc5c726c27e20e202ee0e50e3328164c0bca",
      "assetIds": [
        "55464657044963196816950587289035428064568320970692304673817341489687505668096"
      ],
      "assetValues": [
        1
      ]
    },
    {
      "reservedAddress": "0x84b2cdb60cf2f63d861a32abb67d4bf47a894d32",
      "assetIds": [
        "55464657044963196816950587289035428064568320970692304673817341489687505668096"
      ],
      "assetValues": [
        1
      ]
    },
    {
      "reservedAddress": "0x84e8027100025464d3ca7feab0b162bf7c189f4a",
      "assetIds": [
        "55464657044963196816950587289035428064568320970692304673817341489687505668096"
      ],
      "assetValues": [
        1
      ]
    },
    {
      "reservedAddress": "0x84f117fd2705ebeb82d4316d63e3c9d93764088c",
      "assetIds": [
        "55464657044963196816950587289035428064568320970692304673817341489687505668096"
      ],
      "assetValues": [
        1
      ]
    },
    {
      "reservedAddress": "0x85278b3f1dd0e13dcb0f31a4c637c7baaf06dde1",
      "assetIds": [
        "55464657044963196816950587289035428064568320970692304673817341489687505668096"
      ],
      "assetValues": [
        1
      ]
    },
    {
      "reservedAddress": "0x854560c6519bfb167c339caefd293149ee5f183b",
      "assetIds": [
        "55464657044963196816950587289035428064568320970692304673817341489687505668096"
      ],
      "assetValues": [
        1
      ]
    },
    {
      "reservedAddress": "0x8553a66fe406fbb0bba80346edfe878bdefc58f1",
      "assetIds": [
        "55464657044963196816950587289035428064568320970692304673817341489687505668096"
      ],
      "assetValues": [
        1
      ]
    },
    {
      "reservedAddress": "0x8563a42b99631c58385bd33594859c2eb61f8b36",
      "assetIds": [
        "55464657044963196816950587289035428064568320970692304673817341489687505668096"
      ],
      "assetValues": [
        1
      ]
    },
    {
      "reservedAddress": "0x8568870df0c68b17c9f93df2d6eae0cbb3735a60",
      "assetIds": [
        "55464657044963196816950587289035428064568320970692304673817341489687505668096"
      ],
      "assetValues": [
        1
      ]
    },
    {
      "reservedAddress": "0x856f6b6d542cdfcc5b8d6fb9a32c944b6c0f27bd",
      "assetIds": [
        "55464657044963196816950587289035428064568320970692304673817341489687505668096"
      ],
      "assetValues": [
        1
      ]
    },
    {
      "reservedAddress": "0x856fbe96b9b183b5b4018ef153631f6bca14475f",
      "assetIds": [
        "55464657044963196816950587289035428064568320970692304673817341489687505668096"
      ],
      "assetValues": [
        1
      ]
    },
    {
      "reservedAddress": "0x85716c90a15a6d5e53df1f30b835957f9696521b",
      "assetIds": [
        "55464657044963196816950587289035428064568320970692304673817341489687505668096"
      ],
      "assetValues": [
        1
      ]
    },
    {
      "reservedAddress": "0x85891324d91012c4456159aeaba03f77d390cb2c",
      "assetIds": [
        "55464657044963196816950587289035428064568320970692304673817341489687505668096"
      ],
      "assetValues": [
        1
      ]
    },
    {
      "reservedAddress": "0x858dbd5024a071b804b314d11b661ae4cbed5fe5",
      "assetIds": [
        "55464657044963196816950587289035428064568320970692304673817341489687505668096"
      ],
      "assetValues": [
        1
      ]
    },
    {
      "reservedAddress": "0x858e6ca4fad8b103f97b2cafc1ab181b1e3de6f1",
      "assetIds": [
        "55464657044963196816950587289035428064568320970692304673817341489687505668096"
      ],
      "assetValues": [
        1
      ]
    },
    {
      "reservedAddress": "0x8593b490d0d93626669d7fe61a9d750dbd7d346a",
      "assetIds": [
        "55464657044963196816950587289035428064568320970692304673817341489687505668096"
      ],
      "assetValues": [
        1
      ]
    },
    {
      "reservedAddress": "0x8593b4a8179175e20a486acb36a1eeb1dd1b94ad",
      "assetIds": [
        "55464657044963196816950587289035428064568320970692304673817341489687505668096"
      ],
      "assetValues": [
        1
      ]
    },
    {
      "reservedAddress": "0x85a9434f6e86d50815461d76262e36d8031d02dd",
      "assetIds": [
        "55464657044963196816950587289035428064568320970692304673817341489687505668096"
      ],
      "assetValues": [
        1
      ]
    },
    {
      "reservedAddress": "0x85ab29e76459466378b1919ec0450a6250fa8efb",
      "assetIds": [
        "55464657044963196816950587289035428064568320970692304673817341489687505668096"
      ],
      "assetValues": [
        1
      ]
    },
    {
      "reservedAddress": "0x85d73912545749d79bb1359ab5aec78724ccd682",
      "assetIds": [
        "55464657044963196816950587289035428064568320970692304673817341489687505668096"
      ],
      "assetValues": [
        1
      ]
    },
    {
      "reservedAddress": "0x85dc1f89de4f3513cb6ea94b4731768ecff10847",
      "assetIds": [
        "55464657044963196816950587289035428064568320970692304673817341489687505668096"
      ],
      "assetValues": [
        1
      ]
    },
    {
      "reservedAddress": "0x85e78b9c7128c95869d691e40ac6106f3190d9fd",
      "assetIds": [
        "55464657044963196816950587289035428064568320970692304673817341489687505668096"
      ],
      "assetValues": [
        1
      ]
    },
    {
      "reservedAddress": "0x8608a216a80e1d49ed970f3638702b611e271c76",
      "assetIds": [
        "55464657044963196816950587289035428064568320970692304673817341489687505668096"
      ],
      "assetValues": [
        1
      ]
    },
    {
      "reservedAddress": "0x860d03d6bf7418899e8a219bed3199ac9d9bb95a",
      "assetIds": [
        "55464657044963196816950587289035428064568320970692304673817341489687505668096"
      ],
      "assetValues": [
        1
      ]
    },
    {
      "reservedAddress": "0x86127c988b6d2c5a1e0f164754d743acac265203",
      "assetIds": [
        "55464657044963196816950587289035428064568320970692304673817341489687505668096"
      ],
      "assetValues": [
        1
      ]
    },
    {
      "reservedAddress": "0x86229964668d3c91af7d28afba3eec5da1cb82ed",
      "assetIds": [
        "55464657044963196816950587289035428064568320970692304673817341489687505668096"
      ],
      "assetValues": [
        1
      ]
    },
    {
      "reservedAddress": "0x86282513581c5295ab5157876e7687fc20dea071",
      "assetIds": [
        "55464657044963196816950587289035428064568320970692304673817341489687505668096"
      ],
      "assetValues": [
        1
      ]
    },
    {
      "reservedAddress": "0x864462f8bfdffee10b2336fd2aa3f01e44e10aa4",
      "assetIds": [
        "55464657044963196816950587289035428064568320970692304673817341489687505668096"
      ],
      "assetValues": [
        1
      ]
    },
    {
      "reservedAddress": "0x8654094efa46f8440d925fb4952df197bb08367c",
      "assetIds": [
        "55464657044963196816950587289035428064568320970692304673817341489687505668096"
      ],
      "assetValues": [
        1
      ]
    },
    {
      "reservedAddress": "0x865c2f85c9fea1c6ac7f53de07554d68cb92ed88",
      "assetIds": [
        "55464657044963196816950587289035428064568320970692304673817341489687505668096"
      ],
      "assetValues": [
        1
      ]
    },
    {
      "reservedAddress": "0x8688704f862b4eb6496555b2f4829a614117d0e1",
      "assetIds": [
        "55464657044963196816950587289035428064568320970692304673817341489687505668096"
      ],
      "assetValues": [
        1
      ]
    },
    {
      "reservedAddress": "0x86b4c5fab9683a37a598cd825ce8b456d569df41",
      "assetIds": [
        "55464657044963196816950587289035428064568320970692304673817341489687505668096"
      ],
      "assetValues": [
        1
      ]
    },
    {
      "reservedAddress": "0x86c060e1d9961827a5460d2076a3cf44faa5c329",
      "assetIds": [
        "55464657044963196816950587289035428064568320970692304673817341489687505668096"
      ],
      "assetValues": [
        1
      ]
    },
    {
      "reservedAddress": "0x86d3d0a700c42aa1742bba62e562c95c22311f52",
      "assetIds": [
        "55464657044963196816950587289035428064568320970692304673817341489687505668096"
      ],
      "assetValues": [
        1
      ]
    },
    {
      "reservedAddress": "0x86de2b6e55ddb8b3a6caaffb307fadb63cdcf4f9",
      "assetIds": [
        "55464657044963196816950587289035428064568320970692304673817341489687505668096"
      ],
      "assetValues": [
        1
      ]
    },
    {
      "reservedAddress": "0x86f687e7ca9a3fd578ce14612e000821c73951d2",
      "assetIds": [
        "55464657044963196816950587289035428064568320970692304673817341489687505668096"
      ],
      "assetValues": [
        1
      ]
    },
    {
      "reservedAddress": "0x8717c1212a51f2bdf2a160faf428ee1a04113c7f",
      "assetIds": [
        "55464657044963196816950587289035428064568320970692304673817341489687505668096"
      ],
      "assetValues": [
        1
      ]
    },
    {
      "reservedAddress": "0x873d76049ac71619538849d1f97bc50645a5e6ff",
      "assetIds": [
        "55464657044963196816950587289035428064568320970692304673817341489687505668096"
      ],
      "assetValues": [
        1
      ]
    },
    {
      "reservedAddress": "0x8751648e9efa29fc9895d2d809c47384cadea749",
      "assetIds": [
        "55464657044963196816950587289035428064568320970692304673817341489687505668096"
      ],
      "assetValues": [
        1
      ]
    },
    {
      "reservedAddress": "0x87af86b6c9a4fb16a0e01b45931a9498fbbeb0c8",
      "assetIds": [
        "55464657044963196816950587289035428064568320970692304673817341489687505668096"
      ],
      "assetValues": [
        1
      ]
    },
    {
      "reservedAddress": "0x87b9eabffd44c3552be55946fe4a0b4e1ffa32b2",
      "assetIds": [
        "55464657044963196816950587289035428064568320970692304673817341489687505668096"
      ],
      "assetValues": [
        1
      ]
    },
    {
      "reservedAddress": "0x87ca0b18b4549634d54db508c983af060af78674",
      "assetIds": [
        "55464657044963196816950587289035428064568320970692304673817341489687505668096"
      ],
      "assetValues": [
        1
      ]
    },
    {
      "reservedAddress": "0x87d2695cf602ab0ef8100c325a720c2e22fca802",
      "assetIds": [
        "55464657044963196816950587289035428064568320970692304673817341489687505668096"
      ],
      "assetValues": [
        1
      ]
    },
    {
      "reservedAddress": "0x87f0b3711abfe17cdba2a64357c034165ec16c06",
      "assetIds": [
        "55464657044963196816950587289035428064568320970692304673817341489687505668096"
      ],
      "assetValues": [
        1
      ]
    },
    {
      "reservedAddress": "0x87f16a2b51c79f7315571235bdf4d432879c9733",
      "assetIds": [
        "55464657044963196816950587289035428064568320970692304673817341489687505668096"
      ],
      "assetValues": [
        1
      ]
    },
    {
      "reservedAddress": "0x87fcfa7c0dfb5c23e960926ee892f541ba6537f7",
      "assetIds": [
        "55464657044963196816950587289035428064568320970692304673817341489687505668096"
      ],
      "assetValues": [
        1
      ]
    },
    {
      "reservedAddress": "0x880f4f8d2255116ec03fcb7eac51408b05bfa956",
      "assetIds": [
        "55464657044963196816950587289035428064568320970692304673817341489687505668096"
      ],
      "assetValues": [
        1
      ]
    },
    {
      "reservedAddress": "0x8820768caedc113ba97dd749d948ad0fd91c52b6",
      "assetIds": [
        "55464657044963196816950587289035428064568320970692304673817341489687505668096"
      ],
      "assetValues": [
        1
      ]
    },
    {
      "reservedAddress": "0x88214d6410945738e43c4ec12354bf6f3f12454a",
      "assetIds": [
        "55464657044963196816950587289035428064568320970692304673817341489687505668096"
      ],
      "assetValues": [
        1
      ]
    },
    {
      "reservedAddress": "0x88262e7a4c6693f72a908331dfe23a1dfb91b9f0",
      "assetIds": [
        "55464657044963196816950587289035428064568320970692304673817341489687505668096"
      ],
      "assetValues": [
        1
      ]
    },
    {
      "reservedAddress": "0x88341d1a8f672d2780c8dc725902aae72f143b0c",
      "assetIds": [
        "55464657044963196816950587289035428064568320970692304673817341489687505668096"
      ],
      "assetValues": [
        1
      ]
    },
    {
      "reservedAddress": "0x8834ada4a68c6f6c8e176c508340938da63396dd",
      "assetIds": [
        "55464657044963196816950587289035428064568320970692304673817341489687505668096"
      ],
      "assetValues": [
        1
      ]
    },
    {
      "reservedAddress": "0x8842e1e8556ab4a73a6e1f00da6b5e94c8701ec8",
      "assetIds": [
        "55464657044963196816950587289035428064568320970692304673817341489687505668096"
      ],
      "assetValues": [
        1
      ]
    },
    {
      "reservedAddress": "0x885e44a9c1eb67fdd379a109fd21f916ec3bcec6",
      "assetIds": [
        "55464657044963196816950587289035428064568320970692304673817341489687505668096"
      ],
      "assetValues": [
        1
      ]
    },
    {
      "reservedAddress": "0x88611ba5b29f8d5d337c991738ae01c9f8de696d",
      "assetIds": [
        "55464657044963196816950587289035428064568320970692304673817341489687505668096"
      ],
      "assetValues": [
        1
      ]
    },
    {
      "reservedAddress": "0x8862ece8f1a3513f6a386ba292747751c756743d",
      "assetIds": [
        "55464657044963196816950587289035428064568320970692304673817341489687505668096"
      ],
      "assetValues": [
        1
      ]
    },
    {
      "reservedAddress": "0x88aa61abb56633e665c87c015c7d1e25766de520",
      "assetIds": [
        "55464657044963196816950587289035428064568320970692304673817341489687505668096"
      ],
      "assetValues": [
        1
      ]
    },
    {
      "reservedAddress": "0x88b32c1b96ab6d43ff3ca5d561e7bb077996ee04",
      "assetIds": [
        "55464657044963196816950587289035428064568320970692304673817341489687505668096"
      ],
      "assetValues": [
        1
      ]
    },
    {
      "reservedAddress": "0x88d0472cd1726ccfca47622392a3371a1b9883bb",
      "assetIds": [
        "55464657044963196816950587289035428064568320970692304673817341489687505668096"
      ],
      "assetValues": [
        1
      ]
    },
    {
      "reservedAddress": "0x88db7628f124fb389d96421f48d351e06ea30716",
      "assetIds": [
        "55464657044963196816950587289035428064568320970692304673817341489687505668096"
      ],
      "assetValues": [
        1
      ]
    },
    {
      "reservedAddress": "0x8909c55f41ddeb7f711897d01743d879dc63e1b3",
      "assetIds": [
        "55464657044963196816950587289035428064568320970692304673817341489687505668096"
      ],
      "assetValues": [
        1
      ]
    },
    {
      "reservedAddress": "0x8910ff16c56415a408737812445aaaa78cef1c6b",
      "assetIds": [
        "55464657044963196816950587289035428064568320970692304673817341489687505668096"
      ],
      "assetValues": [
        1
      ]
    },
    {
      "reservedAddress": "0x891241e7446083a9c5de13e2726aa11d9a5104bf",
      "assetIds": [
        "55464657044963196816950587289035428064568320970692304673817341489687505668096"
      ],
      "assetValues": [
        1
      ]
    },
    {
      "reservedAddress": "0x8936fc8442f9d2738b7d6b2a1009d605246139fb",
      "assetIds": [
        "55464657044963196816950587289035428064568320970692304673817341489687505668096"
      ],
      "assetValues": [
        1
      ]
    },
    {
      "reservedAddress": "0x895537e51225476ac7d247e0a0438b17a3931c47",
      "assetIds": [
        "55464657044963196816950587289035428064568320970692304673817341489687505668096"
      ],
      "assetValues": [
        1
      ]
    },
    {
      "reservedAddress": "0x896f1dd687d5a098121cb0f047eef52d9f35fd20",
      "assetIds": [
        "55464657044963196816950587289035428064568320970692304673817341489687505668096"
      ],
      "assetValues": [
        1
      ]
    },
    {
      "reservedAddress": "0x8977b22c0b0059b2f9a4f9e58d53b0b0762ba070",
      "assetIds": [
        "55464657044963196816950587289035428064568320970692304673817341489687505668096"
      ],
      "assetValues": [
        1
      ]
    },
    {
      "reservedAddress": "0x89b4bbdb7185b5657df94bdb50fd2d604be75f40",
      "assetIds": [
        "55464657044963196816950587289035428064568320970692304673817341489687505668096"
      ],
      "assetValues": [
        1
      ]
    },
    {
      "reservedAddress": "0x89c2aa1c429179d872c796fd551d366792aaa791",
      "assetIds": [
        "55464657044963196816950587289035428064568320970692304673817341489687505668096"
      ],
      "assetValues": [
        1
      ]
    },
    {
      "reservedAddress": "0x89cf7ed9f0d969bdbabad2bcaab495f2d5b28355",
      "assetIds": [
        "55464657044963196816950587289035428064568320970692304673817341489687505668096"
      ],
      "assetValues": [
        1
      ]
    },
    {
      "reservedAddress": "0x89d638ad53c2d34ea2e9de5d71acfd8a3c7a3944",
      "assetIds": [
        "55464657044963196816950587289035428064568320970692304673817341489687505668096"
      ],
      "assetValues": [
        1
      ]
    },
    {
      "reservedAddress": "0x89d6e9b4bb90a86c0737f787739e5c252bdd81ad",
      "assetIds": [
        "55464657044963196816950587289035428064568320970692304673817341489687505668096"
      ],
      "assetValues": [
        1
      ]
    },
    {
      "reservedAddress": "0x89ef7b6818c10c587429920ce339d58f79f476c3",
      "assetIds": [
        "55464657044963196816950587289035428064568320970692304673817341489687505668096"
      ],
      "assetValues": [
        1
      ]
    },
    {
      "reservedAddress": "0x89f1e49e667f711c5cb64d064d9a72f5e3e42e52",
      "assetIds": [
        "55464657044963196816950587289035428064568320970692304673817341489687505668096"
      ],
      "assetValues": [
        1
      ]
    },
    {
      "reservedAddress": "0x8a101b5bd07187865a849f9b0e4b6002c4353b67",
      "assetIds": [
        "55464657044963196816950587289035428064568320970692304673817341489687505668096"
      ],
      "assetValues": [
        1
      ]
    },
    {
      "reservedAddress": "0x8a450f10ee471c20ac94cd23ff1b4e293915db34",
      "assetIds": [
        "55464657044963196816950587289035428064568320970692304673817341489687505668096"
      ],
      "assetValues": [
        1
      ]
    },
    {
      "reservedAddress": "0x8a7d2215f498ff1cb54b6691dc189c8e5e617766",
      "assetIds": [
        "55464657044963196816950587289035428064568320970692304673817341489687505668096"
      ],
      "assetValues": [
        1
      ]
    },
    {
      "reservedAddress": "0x8a8cae329538519248a6324309e6ce00cd77f93a",
      "assetIds": [
        "55464657044963196816950587289035428064568320970692304673817341489687505668096"
      ],
      "assetValues": [
        1
      ]
    },
    {
      "reservedAddress": "0x8a91536d364b96577b35b017ee95c54de2679d37",
      "assetIds": [
        "55464657044963196816950587289035428064568320970692304673817341489687505668096"
      ],
      "assetValues": [
        1
      ]
    },
    {
      "reservedAddress": "0x8aab06a592e42afd36005ac5478d80adeb8c5d69",
      "assetIds": [
        "55464657044963196816950587289035428064568320970692304673817341489687505668096"
      ],
      "assetValues": [
        1
      ]
    },
    {
      "reservedAddress": "0x8ab85cbe4c76738fad550074916ab5a6368b8425",
      "assetIds": [
        "55464657044963196816950587289035428064568320970692304673817341489687505668096"
      ],
      "assetValues": [
        1
      ]
    },
    {
      "reservedAddress": "0x8ad155b8645f3ded0959254ad911f1be52773159",
      "assetIds": [
        "55464657044963196816950587289035428064568320970692304673817341489687505668096"
      ],
      "assetValues": [
        1
      ]
    },
    {
      "reservedAddress": "0x8ad272ac86c6c88683d9a60eb8ed57e6c304bb0c",
      "assetIds": [
        "55464657044963196816950587289035428064568320970692304673817341489687505668096"
      ],
      "assetValues": [
        1
      ]
    },
    {
      "reservedAddress": "0x8ad5da7c0e1abb94df78bf261d26d8984756882e",
      "assetIds": [
        "55464657044963196816950587289035428064568320970692304673817341489687505668096"
      ],
      "assetValues": [
        1
      ]
    },
    {
      "reservedAddress": "0x8af54329111dbc4520286dbb93fd0ebd71ab468e",
      "assetIds": [
        "55464657044963196816950587289035428064568320970692304673817341489687505668096"
      ],
      "assetValues": [
        1
      ]
    },
    {
      "reservedAddress": "0x8b09b326f4027c576b5c9b3daa9d7fd785b757df",
      "assetIds": [
        "55464657044963196816950587289035428064568320970692304673817341489687505668096"
      ],
      "assetValues": [
        1
      ]
    },
    {
      "reservedAddress": "0x8b339e8aa9cb026e4c0b1bfd6fa57c63ebdfcd0b",
      "assetIds": [
        "55464657044963196816950587289035428064568320970692304673817341489687505668096"
      ],
      "assetValues": [
        1
      ]
    },
    {
      "reservedAddress": "0x8b3450d11b007e8df8ee755b7d71a983b3ba6813",
      "assetIds": [
        "55464657044963196816950587289035428064568320970692304673817341489687505668096"
      ],
      "assetValues": [
        1
      ]
    },
    {
      "reservedAddress": "0x8b4643b057dbe065497deb2acdad5e826c577413",
      "assetIds": [
        "55464657044963196816950587289035428064568320970692304673817341489687505668096"
      ],
      "assetValues": [
        1
      ]
    },
    {
      "reservedAddress": "0x8b546a9984e8acd2389f1b815c94ce7ee7cdbc9d",
      "assetIds": [
        "55464657044963196816950587289035428064568320970692304673817341489687505668096"
      ],
      "assetValues": [
        1
      ]
    },
    {
      "reservedAddress": "0x8b6965eb3c78f424d75649f74af86e0bcd93d203",
      "assetIds": [
        "55464657044963196816950587289035428064568320970692304673817341489687505668096"
      ],
      "assetValues": [
        1
      ]
    },
    {
      "reservedAddress": "0x8b8d0b975b09100d6b0a3aa3f47c3275eb082b93",
      "assetIds": [
        "55464657044963196816950587289035428064568320970692304673817341489687505668096"
      ],
      "assetValues": [
        1
      ]
    },
    {
      "reservedAddress": "0x8b8db5b327a3d051367d78b4a028722ee06555f1",
      "assetIds": [
        "55464657044963196816950587289035428064568320970692304673817341489687505668096"
      ],
      "assetValues": [
        1
      ]
    },
    {
      "reservedAddress": "0x8b99fd46350cbce0a16127cc0231f26bb0ebc7b0",
      "assetIds": [
        "55464657044963196816950587289035428064568320970692304673817341489687505668096"
      ],
      "assetValues": [
        1
      ]
    },
    {
      "reservedAddress": "0x8bcdc15b036495460d268f45326090ebb0992be1",
      "assetIds": [
        "55464657044963196816950587289035428064568320970692304673817341489687505668096"
      ],
      "assetValues": [
        1
      ]
    },
    {
      "reservedAddress": "0x8bce57b7b84218397ffb6cefae99f4792ee8161d",
      "assetIds": [
        "55464657044963196816950587289035428064568320970692304673817341489687505668096"
      ],
      "assetValues": [
        1
      ]
    },
    {
      "reservedAddress": "0x8bd2e89a22d62052f7f48e67acc66fcd3f525501",
      "assetIds": [
        "55464657044963196816950587289035428064568320970692304673817341489687505668096"
      ],
      "assetValues": [
        1
      ]
    },
    {
      "reservedAddress": "0x8bd414659c2c9f1ec76e9c991291d8a20f2f2712",
      "assetIds": [
        "55464657044963196816950587289035428064568320970692304673817341489687505668096"
      ],
      "assetValues": [
        1
      ]
    },
    {
      "reservedAddress": "0x8be0d914f9b53e5d29e3a75865f25208d9918ead",
      "assetIds": [
        "55464657044963196816950587289035428064568320970692304673817341489687505668096"
      ],
      "assetValues": [
        1
      ]
    },
    {
      "reservedAddress": "0x8c09f0d968384e7237c0a3a83ccc08e0bba43a2a",
      "assetIds": [
        "55464657044963196816950587289035428064568320970692304673817341489687505668096"
      ],
      "assetValues": [
        1
      ]
    },
    {
      "reservedAddress": "0x8c34ca311b63574cfad86f759254a64f2dccb923",
      "assetIds": [
        "55464657044963196816950587289035428064568320970692304673817341489687505668096"
      ],
      "assetValues": [
        1
      ]
    },
    {
      "reservedAddress": "0x8c3a0222d2302b5953dac3abbd675182ef989dbc",
      "assetIds": [
        "55464657044963196816950587289035428064568320970692304673817341489687505668096"
      ],
      "assetValues": [
        1
      ]
    },
    {
      "reservedAddress": "0x8c3a4f0c63df86e9d6cd5fddd527685001ea5b5a",
      "assetIds": [
        "55464657044963196816950587289035428064568320970692304673817341489687505668096"
      ],
      "assetValues": [
        1
      ]
    },
    {
      "reservedAddress": "0x8c421623e1a6faeb814d565d1aa1e38459aa04be",
      "assetIds": [
        "55464657044963196816950587289035428064568320970692304673817341489687505668096"
      ],
      "assetValues": [
        1
      ]
    },
    {
      "reservedAddress": "0x8c8cc1831a72db5ee2482ad9d7e1bc4a2e15a9eb",
      "assetIds": [
        "55464657044963196816950587289035428064568320970692304673817341489687505668096"
      ],
      "assetValues": [
        1
      ]
    },
    {
      "reservedAddress": "0x8c8f7a31be2dff8c094cd90c7cf018ede4b18f1f",
      "assetIds": [
        "55464657044963196816950587289035428064568320970692304673817341489687505668096"
      ],
      "assetValues": [
        1
      ]
    },
    {
      "reservedAddress": "0x8c9897c494deaa0e0b642f33770072ef5bcbf73d",
      "assetIds": [
        "55464657044963196816950587289035428064568320970692304673817341489687505668096"
      ],
      "assetValues": [
        1
      ]
    },
    {
      "reservedAddress": "0x8cd3bec93d81f900f4faef7f40259d392b616a7e",
      "assetIds": [
        "55464657044963196816950587289035428064568320970692304673817341489687505668096"
      ],
      "assetValues": [
        1
      ]
    },
    {
      "reservedAddress": "0x8cdf31e20efa14c8e5cdf5043edc41d1e74bce66",
      "assetIds": [
        "55464657044963196816950587289035428064568320970692304673817341489687505668096"
      ],
      "assetValues": [
        1
      ]
    },
    {
      "reservedAddress": "0x8d0deac93c879533276b122d0a116d838e4ceb52",
      "assetIds": [
        "55464657044963196816950587289035428064568320970692304673817341489687505668096"
      ],
      "assetValues": [
        1
      ]
    },
    {
      "reservedAddress": "0x8d3654761718d3a6d252a0e24e5711fd14a39eab",
      "assetIds": [
        "55464657044963196816950587289035428064568320970692304673817341489687505668096"
      ],
      "assetValues": [
        1
      ]
    },
    {
      "reservedAddress": "0x8d40bde1b3e972beded34a36dc0855b9d2cad6b1",
      "assetIds": [
        "55464657044963196816950587289035428064568320970692304673817341489687505668096"
      ],
      "assetValues": [
        1
      ]
    },
    {
      "reservedAddress": "0x8d4715907d786944cdb9bc79f1966d80f63567bf",
      "assetIds": [
        "55464657044963196816950587289035428064568320970692304673817341489687505668096"
      ],
      "assetValues": [
        1
      ]
    },
    {
      "reservedAddress": "0x8d61c148a41f67d3b4d19e1532b464121ef865c9",
      "assetIds": [
        "55464657044963196816950587289035428064568320970692304673817341489687505668096"
      ],
      "assetValues": [
        1
      ]
    },
    {
      "reservedAddress": "0x8d66b471c26fc5b78c23001547f63cd2d4ec5b96",
      "assetIds": [
        "55464657044963196816950587289035428064568320970692304673817341489687505668096"
      ],
      "assetValues": [
        1
      ]
    },
    {
      "reservedAddress": "0x8d73551b863feb34cf15b133ae9caeac1afe9395",
      "assetIds": [
        "55464657044963196816950587289035428064568320970692304673817341489687505668096"
      ],
      "assetValues": [
        1
      ]
    },
    {
      "reservedAddress": "0x8d7cd362ce140b44e025d0b7e35a9dd843a1ba82",
      "assetIds": [
        "55464657044963196816950587289035428064568320970692304673817341489687505668096"
      ],
      "assetValues": [
        1
      ]
    },
    {
      "reservedAddress": "0x8d87013b7c1339e2f584bfba76a6793702dfe819",
      "assetIds": [
        "55464657044963196816950587289035428064568320970692304673817341489687505668096"
      ],
      "assetValues": [
        1
      ]
    },
    {
      "reservedAddress": "0x8da0409f9f3499a70f11f6835090a26548306096",
      "assetIds": [
        "55464657044963196816950587289035428064568320970692304673817341489687505668096"
      ],
      "assetValues": [
        1
      ]
    },
    {
      "reservedAddress": "0x8da9ef68b4baf91e61951338289d77ba63a7d4a1",
      "assetIds": [
        "55464657044963196816950587289035428064568320970692304673817341489687505668096"
      ],
      "assetValues": [
        1
      ]
    },
    {
      "reservedAddress": "0x8db68740422443c8476c886758f95a8ec7278a55",
      "assetIds": [
        "55464657044963196816950587289035428064568320970692304673817341489687505668096"
      ],
      "assetValues": [
        1
      ]
    },
    {
      "reservedAddress": "0x8dbcbd5a3936091bd881d3c52edb14fe689633a1",
      "assetIds": [
        "55464657044963196816950587289035428064568320970692304673817341489687505668096"
      ],
      "assetValues": [
        1
      ]
    },
    {
      "reservedAddress": "0x8dc490643c58795e5c4dfb9b24682aa6d9dec6c0",
      "assetIds": [
        "55464657044963196816950587289035428064568320970692304673817341489687505668096"
      ],
      "assetValues": [
        1
      ]
    },
    {
      "reservedAddress": "0x8dd09026cbacb29a248c1e6a8082354e16e52067",
      "assetIds": [
        "55464657044963196816950587289035428064568320970692304673817341489687505668096"
      ],
      "assetValues": [
        1
      ]
    },
    {
      "reservedAddress": "0x8ddf3838009e7549e4d80223ddd1edeccd4beeb0",
      "assetIds": [
        "55464657044963196816950587289035428064568320970692304673817341489687505668096"
      ],
      "assetValues": [
        1
      ]
    },
    {
      "reservedAddress": "0x8de471fc57c58c705558e8578ea6580e494e5c00",
      "assetIds": [
        "55464657044963196816950587289035428064568320970692304673817341489687505668096"
      ],
      "assetValues": [
        1
      ]
    },
    {
      "reservedAddress": "0x8de7d53f4170cb1ad88bada96c6e6b2aef5e9fb1",
      "assetIds": [
        "55464657044963196816950587289035428064568320970692304673817341489687505668096"
      ],
      "assetValues": [
        1
      ]
    },
    {
      "reservedAddress": "0x8def8c101d1ac119964f53c1e612aa7169bcf8c6",
      "assetIds": [
        "55464657044963196816950587289035428064568320970692304673817341489687505668096"
      ],
      "assetValues": [
        1
      ]
    },
    {
      "reservedAddress": "0x8e063c7bd604a699be1e6356a4a8ed5a2c8aa065",
      "assetIds": [
        "55464657044963196816950587289035428064568320970692304673817341489687505668096"
      ],
      "assetValues": [
        1
      ]
    },
    {
      "reservedAddress": "0x8e0e3d4a18aa44904ebda87c5b42545d1cec2e5f",
      "assetIds": [
        "55464657044963196816950587289035428064568320970692304673817341489687505668096"
      ],
      "assetValues": [
        1
      ]
    },
    {
      "reservedAddress": "0x8e16130efeae0858cc6530f96cc18cfde1351dce",
      "assetIds": [
        "55464657044963196816950587289035428064568320970692304673817341489687505668096"
      ],
      "assetValues": [
        1
      ]
    },
    {
      "reservedAddress": "0x8e328de43fe4ca115d6fc0136d3daab420fc6039",
      "assetIds": [
        "55464657044963196816950587289035428064568320970692304673817341489687505668096"
      ],
      "assetValues": [
        1
      ]
    },
    {
      "reservedAddress": "0x8e494b03bd99bdca5f902a2359f3ce31efacfaa0",
      "assetIds": [
        "55464657044963196816950587289035428064568320970692304673817341489687505668096"
      ],
      "assetValues": [
        1
      ]
    },
    {
      "reservedAddress": "0x8e4d90efd81625061f7f79cd97e3a11e4a244569",
      "assetIds": [
        "55464657044963196816950587289035428064568320970692304673817341489687505668096"
      ],
      "assetValues": [
        1
      ]
    },
    {
      "reservedAddress": "0x8e662143178bb8c797620a3a61f34a71832475b0",
      "assetIds": [
        "55464657044963196816950587289035428064568320970692304673817341489687505668096"
      ],
      "assetValues": [
        1
      ]
    },
    {
      "reservedAddress": "0x8e6df33545b05e1e79dc159c1c2133a3b7cea769",
      "assetIds": [
        "55464657044963196816950587289035428064568320970692304673817341489687505668096"
      ],
      "assetValues": [
        1
      ]
    },
    {
      "reservedAddress": "0x8ec3f0d91a2d1a061c8645984c5d993e920ad2a2",
      "assetIds": [
        "55464657044963196816950587289035428064568320970692304673817341489687505668096"
      ],
      "assetValues": [
        1
      ]
    },
    {
      "reservedAddress": "0x8ed9bd0db58cde3d0ca8cf22c1eb96e77761ed6b",
      "assetIds": [
        "55464657044963196816950587289035428064568320970692304673817341489687505668096"
      ],
      "assetValues": [
        1
      ]
    },
    {
      "reservedAddress": "0x8ee0754a4fc25e79680820565a3bf2378c2883f0",
      "assetIds": [
        "55464657044963196816950587289035428064568320970692304673817341489687505668096"
      ],
      "assetValues": [
        1
      ]
    },
    {
      "reservedAddress": "0x8eef247014a9dbbe7af806c6166ca9570abc9b5e",
      "assetIds": [
        "55464657044963196816950587289035428064568320970692304673817341489687505668096"
      ],
      "assetValues": [
        1
      ]
    },
    {
      "reservedAddress": "0x8f08ee5e3e44bdc28127e050fcb13f5e4671433d",
      "assetIds": [
        "55464657044963196816950587289035428064568320970692304673817341489687505668096"
      ],
      "assetValues": [
        1
      ]
    },
    {
      "reservedAddress": "0x8f4378f1b82b393b0c05b5606eccb12a3de51426",
      "assetIds": [
        "55464657044963196816950587289035428064568320970692304673817341489687505668096"
      ],
      "assetValues": [
        1
      ]
    },
    {
      "reservedAddress": "0x8f64126c696b0f51a305fe44214d6b4c1b7fb91c",
      "assetIds": [
        "55464657044963196816950587289035428064568320970692304673817341489687505668096"
      ],
      "assetValues": [
        1
      ]
    },
    {
      "reservedAddress": "0x8f9634d2267ea65ef6567349d58086d39fc0b831",
      "assetIds": [
        "55464657044963196816950587289035428064568320970692304673817341489687505668096"
      ],
      "assetValues": [
        1
      ]
    },
    {
      "reservedAddress": "0x8fba0ebdef5392a9ecfaea4dc3f282bc81b70c5d",
      "assetIds": [
        "55464657044963196816950587289035428064568320970692304673817341489687505668096"
      ],
      "assetValues": [
        1
      ]
    },
    {
      "reservedAddress": "0x8fcce07a68b5871c4aa43c164a08bf518c5f83b6",
      "assetIds": [
        "55464657044963196816950587289035428064568320970692304673817341489687505668096"
      ],
      "assetValues": [
        1
      ]
    },
    {
      "reservedAddress": "0x8fda6b8890d87809a4e90fd63f1ec1b99e9e9083",
      "assetIds": [
        "55464657044963196816950587289035428064568320970692304673817341489687505668096"
      ],
      "assetValues": [
        1
      ]
    },
    {
      "reservedAddress": "0x8fe23a78d858eb72250ee7cddf31e41e819e7ae2",
      "assetIds": [
        "55464657044963196816950587289035428064568320970692304673817341489687505668096"
      ],
      "assetValues": [
        1
      ]
    },
    {
      "reservedAddress": "0x8feaa904ce3b7933f4070aca3b5e45dc67e808aa",
      "assetIds": [
        "55464657044963196816950587289035428064568320970692304673817341489687505668096"
      ],
      "assetValues": [
        1
      ]
    },
    {
      "reservedAddress": "0x90162ad4623910bd53ea3c1f64acbf360678f8ba",
      "assetIds": [
        "55464657044963196816950587289035428064568320970692304673817341489687505668096"
      ],
      "assetValues": [
        1
      ]
    },
    {
      "reservedAddress": "0x902fce0d5da95620344363d5d5df60591fb6ba17",
      "assetIds": [
        "55464657044963196816950587289035428064568320970692304673817341489687505668096"
      ],
      "assetValues": [
        1
      ]
    },
    {
      "reservedAddress": "0x90519bbbb0ec0c94e811e5a6a13e5da0a977be1f",
      "assetIds": [
        "55464657044963196816950587289035428064568320970692304673817341489687505668096"
      ],
      "assetValues": [
        1
      ]
    },
    {
      "reservedAddress": "0x908b770a12816b29796b1635bd2b5cc50e30982f",
      "assetIds": [
        "55464657044963196816950587289035428064568320970692304673817341489687505668096"
      ],
      "assetValues": [
        1
      ]
    },
    {
      "reservedAddress": "0x90b1edfb84271b6d98999d69f4cde2b856a928d9",
      "assetIds": [
        "55464657044963196816950587289035428064568320970692304673817341489687505668096"
      ],
      "assetValues": [
        1
      ]
    },
    {
      "reservedAddress": "0x90c685c31953c2b2675f723e7fa74efc83fa8fca",
      "assetIds": [
        "55464657044963196816950587289035428064568320970692304673817341489687505668096"
      ],
      "assetValues": [
        1
      ]
    },
    {
      "reservedAddress": "0x90e5825b94228aa421ac612c0ef044f99d7fa63c",
      "assetIds": [
        "55464657044963196816950587289035428064568320970692304673817341489687505668096"
      ],
      "assetValues": [
        1
      ]
    },
    {
      "reservedAddress": "0x90edc34171b1750c36bf86d990bfc42889a73c6e",
      "assetIds": [
        "55464657044963196816950587289035428064568320970692304673817341489687505668096"
      ],
      "assetValues": [
        1
      ]
    },
    {
      "reservedAddress": "0x90f440e449c47f4caf78c62c131dfc38ab491d4a",
      "assetIds": [
        "55464657044963196816950587289035428064568320970692304673817341489687505668096"
      ],
      "assetValues": [
        1
      ]
    },
    {
      "reservedAddress": "0x90faae2db20120d6b8bc60f1a8af79ab9d1eefc5",
      "assetIds": [
        "55464657044963196816950587289035428064568320970692304673817341489687505668096"
      ],
      "assetValues": [
        1
      ]
    },
    {
      "reservedAddress": "0x9102a4e4b20ebcccb5a09bf2fd03177c4ac9c089",
      "assetIds": [
        "55464657044963196816950587289035428064568320970692304673817341489687505668096"
      ],
      "assetValues": [
        1
      ]
    },
    {
      "reservedAddress": "0x910f50d0f8c5faf30d29fb9dd1b7ed65c5a444fd",
      "assetIds": [
        "55464657044963196816950587289035428064568320970692304673817341489687505668096"
      ],
      "assetValues": [
        1
      ]
    },
    {
      "reservedAddress": "0x911edbe1f92cc67f7baba6d38381ba16e76ff7df",
      "assetIds": [
        "55464657044963196816950587289035428064568320970692304673817341489687505668096"
      ],
      "assetValues": [
        1
      ]
    },
    {
      "reservedAddress": "0x913c7fa57e6690f96b4aeb65553f0ed3664caf8b",
      "assetIds": [
        "55464657044963196816950587289035428064568320970692304673817341489687505668096"
      ],
      "assetValues": [
        1
      ]
    },
    {
      "reservedAddress": "0x916f8593758567e572de04768ffa99402d448b57",
      "assetIds": [
        "55464657044963196816950587289035428064568320970692304673817341489687505668096"
      ],
      "assetValues": [
        1
      ]
    },
    {
      "reservedAddress": "0x91be4f086b311431345baf46713b2200e8b7348c",
      "assetIds": [
        "55464657044963196816950587289035428064568320970692304673817341489687505668096"
      ],
      "assetValues": [
        1
      ]
    },
    {
      "reservedAddress": "0x91cef060011815cf54d9bd669c547d8f87833ebb",
      "assetIds": [
        "55464657044963196816950587289035428064568320970692304673817341489687505668096"
      ],
      "assetValues": [
        1
      ]
    },
    {
      "reservedAddress": "0x920ae04c58aac191a772fb321c0f5dc382fba6e8",
      "assetIds": [
        "55464657044963196816950587289035428064568320970692304673817341489687505668096"
      ],
      "assetValues": [
        1
      ]
    },
    {
      "reservedAddress": "0x921cb80c1cd262e3942a618a168f90b9785bb625",
      "assetIds": [
        "55464657044963196816950587289035428064568320970692304673817341489687505668096"
      ],
      "assetValues": [
        1
      ]
    },
    {
      "reservedAddress": "0x922736173d515d66893c5a7747cd87a895c19df8",
      "assetIds": [
        "55464657044963196816950587289035428064568320970692304673817341489687505668096"
      ],
      "assetValues": [
        1
      ]
    },
    {
      "reservedAddress": "0x922e191a2a10490d7e70345d7af8afa4da05647c",
      "assetIds": [
        "55464657044963196816950587289035428064568320970692304673817341489687505668096"
      ],
      "assetValues": [
        1
      ]
    },
    {
      "reservedAddress": "0x9242719ea6179ea7afa68b01ad74829818785496",
      "assetIds": [
        "55464657044963196816950587289035428064568320970692304673817341489687505668096"
      ],
      "assetValues": [
        1
      ]
    },
    {
      "reservedAddress": "0x9262e905f1cabec1066ccc24cc6f585f2d0f4a34",
      "assetIds": [
        "55464657044963196816950587289035428064568320970692304673817341489687505668096"
      ],
      "assetValues": [
        1
      ]
    },
    {
      "reservedAddress": "0x926840e2c8dc9ae7d83457d5df048f0e150c87b0",
      "assetIds": [
        "55464657044963196816950587289035428064568320970692304673817341489687505668096"
      ],
      "assetValues": [
        1
      ]
    },
    {
      "reservedAddress": "0x927b9462ebb14cf725bdafdd4fd711c507c32cfe",
      "assetIds": [
        "55464657044963196816950587289035428064568320970692304673817341489687505668096"
      ],
      "assetValues": [
        1
      ]
    },
    {
      "reservedAddress": "0x92b982d690f67dc512d47371fc8a0f2f7883397a",
      "assetIds": [
        "55464657044963196816950587289035428064568320970692304673817341489687505668096"
      ],
      "assetValues": [
        1
      ]
    },
    {
      "reservedAddress": "0x92d07da081da3603fce208a29f40c22b8cc6a840",
      "assetIds": [
        "55464657044963196816950587289035428064568320970692304673817341489687505668096"
      ],
      "assetValues": [
        1
      ]
    },
    {
      "reservedAddress": "0x92ded57ca704e95488278468dc58deb69abbcbc0",
      "assetIds": [
        "55464657044963196816950587289035428064568320970692304673817341489687505668096"
      ],
      "assetValues": [
        1
      ]
    },
    {
      "reservedAddress": "0x92fab452e2f14c7730f79031906e06326c916946",
      "assetIds": [
        "55464657044963196816950587289035428064568320970692304673817341489687505668096"
      ],
      "assetValues": [
        1
      ]
    },
    {
      "reservedAddress": "0x92fc9f4c758ad86effc9d2962bfe52ed3d9aa996",
      "assetIds": [
        "55464657044963196816950587289035428064568320970692304673817341489687505668096"
      ],
      "assetValues": [
        1
      ]
    },
    {
      "reservedAddress": "0x931efa8261dd96f49f45c5b01cd70402ce00fb14",
      "assetIds": [
        "55464657044963196816950587289035428064568320970692304673817341489687505668096"
      ],
      "assetValues": [
        1
      ]
    },
    {
      "reservedAddress": "0x934cf84a7268a365baab2143e093c0cbe0d941f2",
      "assetIds": [
        "55464657044963196816950587289035428064568320970692304673817341489687505668096"
      ],
      "assetValues": [
        1
      ]
    },
    {
      "reservedAddress": "0x935996c8a6dbfc840416e24ca116e66027697c09",
      "assetIds": [
        "55464657044963196816950587289035428064568320970692304673817341489687505668096"
      ],
      "assetValues": [
        1
      ]
    },
    {
      "reservedAddress": "0x93681e7a57dabc0e57633d15dccf880de4831426",
      "assetIds": [
        "55464657044963196816950587289035428064568320970692304673817341489687505668096"
      ],
      "assetValues": [
        1
      ]
    },
    {
      "reservedAddress": "0x936b15b83204342a0960ea9a401b89e1969303c0",
      "assetIds": [
        "55464657044963196816950587289035428064568320970692304673817341489687505668096"
      ],
      "assetValues": [
        1
      ]
    },
    {
      "reservedAddress": "0x93721777bd5c0736076c20ddac0fb0f288fe868f",
      "assetIds": [
        "55464657044963196816950587289035428064568320970692304673817341489687505668096"
      ],
      "assetValues": [
        1
      ]
    },
    {
      "reservedAddress": "0x9379b82fd33e65cce9b58bebb80bc2c06eb4a88c",
      "assetIds": [
        "55464657044963196816950587289035428064568320970692304673817341489687505668096"
      ],
      "assetValues": [
        1
      ]
    },
    {
      "reservedAddress": "0x9380f37332b39cf359a152e022efba6b72f2ed5b",
      "assetIds": [
        "55464657044963196816950587289035428064568320970692304673817341489687505668096"
      ],
      "assetValues": [
        1
      ]
    },
    {
      "reservedAddress": "0x93811dabfbee9736035025cba91491d7747cfd47",
      "assetIds": [
        "55464657044963196816950587289035428064568320970692304673817341489687505668096"
      ],
      "assetValues": [
        1
      ]
    },
    {
      "reservedAddress": "0x939696e968998cf5b74d64ce4abcc822d8b1b77f",
      "assetIds": [
        "55464657044963196816950587289035428064568320970692304673817341489687505668096"
      ],
      "assetValues": [
        1
      ]
    },
    {
      "reservedAddress": "0x93a92c541dfaf1ff14715ebf9e5c5abdc29888f0",
      "assetIds": [
        "55464657044963196816950587289035428064568320970692304673817341489687505668096"
      ],
      "assetValues": [
        1
      ]
    },
    {
      "reservedAddress": "0x93a94f9e5c702c0f93b96a83949afb92556b0f1a",
      "assetIds": [
        "55464657044963196816950587289035428064568320970692304673817341489687505668096"
      ],
      "assetValues": [
        1
      ]
    },
    {
      "reservedAddress": "0x93b0018c67dc3523b0f16e19a721af8252df6e1b",
      "assetIds": [
        "55464657044963196816950587289035428064568320970692304673817341489687505668096"
      ],
      "assetValues": [
        1
      ]
    },
    {
      "reservedAddress": "0x93b6e9bba65b87abcba4639cdcbc25cc5e8a6d8c",
      "assetIds": [
        "55464657044963196816950587289035428064568320970692304673817341489687505668096"
      ],
      "assetValues": [
        1
      ]
    },
    {
      "reservedAddress": "0x93baf3beeed6088f73aace6119b372dd85ee2b3d",
      "assetIds": [
        "55464657044963196816950587289035428064568320970692304673817341489687505668096"
      ],
      "assetValues": [
        1
      ]
    },
    {
      "reservedAddress": "0x93c95190270d8b3b1efd95936403c8121d98342c",
      "assetIds": [
        "55464657044963196816950587289035428064568320970692304673817341489687505668096"
      ],
      "assetValues": [
        1
      ]
    },
    {
      "reservedAddress": "0x940dbb08c0895726214cd1db2241dad30166465b",
      "assetIds": [
        "55464657044963196816950587289035428064568320970692304673817341489687505668096"
      ],
      "assetValues": [
        1
      ]
    },
    {
      "reservedAddress": "0x9424bfc9f19d2c40d79ca20094a7da9d4024c44b",
      "assetIds": [
        "55464657044963196816950587289035428064568320970692304673817341489687505668096"
      ],
      "assetValues": [
        1
      ]
    },
    {
      "reservedAddress": "0x942a79202a94222819466594d6a0854cfea082cb",
      "assetIds": [
        "55464657044963196816950587289035428064568320970692304673817341489687505668096"
      ],
      "assetValues": [
        1
      ]
    },
    {
      "reservedAddress": "0x94396978a429a1505338bc44443575fb937d3a39",
      "assetIds": [
        "55464657044963196816950587289035428064568320970692304673817341489687505668096"
      ],
      "assetValues": [
        1
      ]
    },
    {
      "reservedAddress": "0x943fe61f37bc55c0078365e2ce3fce2b444dab41",
      "assetIds": [
        "55464657044963196816950587289035428064568320970692304673817341489687505668096"
      ],
      "assetValues": [
        1
      ]
    },
    {
      "reservedAddress": "0x94403a4d342c40860966c0344a88ac38b9dfc952",
      "assetIds": [
        "55464657044963196816950587289035428064568320970692304673817341489687505668096"
      ],
      "assetValues": [
        1
      ]
    },
    {
      "reservedAddress": "0x945294c67752bd0a453975c04e3078c487a858df",
      "assetIds": [
        "55464657044963196816950587289035428064568320970692304673817341489687505668096"
      ],
      "assetValues": [
        1
      ]
    },
    {
      "reservedAddress": "0x9452d07387fefead9fbec9bb38ce0d18eea9ba06",
      "assetIds": [
        "55464657044963196816950587289035428064568320970692304673817341489687505668096"
      ],
      "assetValues": [
        1
      ]
    },
    {
      "reservedAddress": "0x94aab6363b77f6b446054785eeb9f74edc575a09",
      "assetIds": [
        "55464657044963196816950587289035428064568320970692304673817341489687505668096"
      ],
      "assetValues": [
        1
      ]
    },
    {
      "reservedAddress": "0x94aff6c2c005567aa0e2a27f77701bb1b6679b6b",
      "assetIds": [
        "55464657044963196816950587289035428064568320970692304673817341489687505668096"
      ],
      "assetValues": [
        1
      ]
    },
    {
      "reservedAddress": "0x94ed29ced1a416cf4b51fa5ed6f97d3d1bc41958",
      "assetIds": [
        "55464657044963196816950587289035428064568320970692304673817341489687505668096"
      ],
      "assetValues": [
        1
      ]
    },
    {
      "reservedAddress": "0x94ff65184496d7be5d9ef4fc626bd4eb7dda54d4",
      "assetIds": [
        "55464657044963196816950587289035428064568320970692304673817341489687505668096"
      ],
      "assetValues": [
        1
      ]
    },
    {
      "reservedAddress": "0x95288ff04ab8706913cddfed21c34d98bfc43f19",
      "assetIds": [
        "55464657044963196816950587289035428064568320970692304673817341489687505668096"
      ],
      "assetValues": [
        1
      ]
    },
    {
      "reservedAddress": "0x954149c9febade512b1b6c5645bc7aad04053a58",
      "assetIds": [
        "55464657044963196816950587289035428064568320970692304673817341489687505668096"
      ],
      "assetValues": [
        1
      ]
    },
    {
      "reservedAddress": "0x954df49c765646b60a4d0377119d904e044541c2",
      "assetIds": [
        "55464657044963196816950587289035428064568320970692304673817341489687505668096"
      ],
      "assetValues": [
        1
      ]
    },
    {
      "reservedAddress": "0x95560988d4e4202e42fa11237abd3b6bd7749bf5",
      "assetIds": [
        "55464657044963196816950587289035428064568320970692304673817341489687505668096"
      ],
      "assetValues": [
        1
      ]
    },
    {
      "reservedAddress": "0x9557a8765ee9cecf1848131d69a36701bf73a0c1",
      "assetIds": [
        "55464657044963196816950587289035428064568320970692304673817341489687505668096"
      ],
      "assetValues": [
        1
      ]
    },
    {
      "reservedAddress": "0x9559aaa672f07a19b4a0b4a43fc707427a3b2f0a",
      "assetIds": [
        "55464657044963196816950587289035428064568320970692304673817341489687505668096"
      ],
      "assetValues": [
        1
      ]
    },
    {
      "reservedAddress": "0x955ef8223326b588fcf221077750bed4631a6d36",
      "assetIds": [
        "55464657044963196816950587289035428064568320970692304673817341489687505668096"
      ],
      "assetValues": [
        1
      ]
    },
    {
      "reservedAddress": "0x95784c6676e9d37f340e4c7c7d0e647456ddf22f",
      "assetIds": [
        "55464657044963196816950587289035428064568320970692304673817341489687505668096"
      ],
      "assetValues": [
        1
      ]
    },
    {
      "reservedAddress": "0x9589aadf0abea2f303b4c824444ea7fac4f3856a",
      "assetIds": [
        "55464657044963196816950587289035428064568320970692304673817341489687505668096"
      ],
      "assetValues": [
        1
      ]
    },
    {
      "reservedAddress": "0x959cb5427f734893cae815365302b7e08556dfa0",
      "assetIds": [
        "55464657044963196816950587289035428064568320970692304673817341489687505668096"
      ],
      "assetValues": [
        1
      ]
    },
    {
      "reservedAddress": "0x95b314f79e09de23331acb9b2077c5ad4d375b1e",
      "assetIds": [
        "55464657044963196816950587289035428064568320970692304673817341489687505668096"
      ],
      "assetValues": [
        1
      ]
    },
    {
      "reservedAddress": "0x95bf92f38f761ca192cef7e7c1210830f6829a3d",
      "assetIds": [
        "55464657044963196816950587289035428064568320970692304673817341489687505668096"
      ],
      "assetValues": [
        1
      ]
    },
    {
      "reservedAddress": "0x95ebf2dfd6213f5817c7f5868bd86fc1b854c1b1",
      "assetIds": [
        "55464657044963196816950587289035428064568320970692304673817341489687505668096"
      ],
      "assetValues": [
        1
      ]
    },
    {
      "reservedAddress": "0x96223b4c458f1b2e5663078bc39ab584ac0f650d",
      "assetIds": [
        "55464657044963196816950587289035428064568320970692304673817341489687505668096"
      ],
      "assetValues": [
        1
      ]
    },
    {
      "reservedAddress": "0x96332d7b13fc57ed5acf84855f593947efe2d2de",
      "assetIds": [
        "55464657044963196816950587289035428064568320970692304673817341489687505668096"
      ],
      "assetValues": [
        1
      ]
    },
    {
      "reservedAddress": "0x964d9d1a532b5a5daeacbac71d46320de313ae9c",
      "assetIds": [
        "55464657044963196816950587289035428064568320970692304673817341489687505668096"
      ],
      "assetValues": [
        1
      ]
    },
    {
      "reservedAddress": "0x964f5684fc3c57fff2d29e5ed4c9884c007037c6",
      "assetIds": [
        "55464657044963196816950587289035428064568320970692304673817341489687505668096"
      ],
      "assetValues": [
        1
      ]
    },
    {
      "reservedAddress": "0x96644bfd639667b3e182630c5e3bdcb5f7875c87",
      "assetIds": [
        "55464657044963196816950587289035428064568320970692304673817341489687505668096"
      ],
      "assetValues": [
        1
      ]
    },
    {
      "reservedAddress": "0x9668cae48024a291b8974a65483511155e8d06db",
      "assetIds": [
        "55464657044963196816950587289035428064568320970692304673817341489687505668096"
      ],
      "assetValues": [
        1
      ]
    },
    {
      "reservedAddress": "0x9671a3fbbfb13d68e5770afed424f8915ea0ada3",
      "assetIds": [
        "55464657044963196816950587289035428064568320970692304673817341489687505668096"
      ],
      "assetValues": [
        1
      ]
    },
    {
      "reservedAddress": "0x96732c2f1ac360f81af247061cb51758ab201511",
      "assetIds": [
        "55464657044963196816950587289035428064568320970692304673817341489687505668096"
      ],
      "assetValues": [
        1
      ]
    },
    {
      "reservedAddress": "0x968450a8bf1139d45151f694835549baf1e94041",
      "assetIds": [
        "55464657044963196816950587289035428064568320970692304673817341489687505668096"
      ],
      "assetValues": [
        1
      ]
    },
    {
      "reservedAddress": "0x968af8c01d117ac36abcd1374eee7799bf53cf42",
      "assetIds": [
        "55464657044963196816950587289035428064568320970692304673817341489687505668096"
      ],
      "assetValues": [
        1
      ]
    },
    {
      "reservedAddress": "0x968b61557a99b23e62be4adb77d26d7f21a4cca5",
      "assetIds": [
        "55464657044963196816950587289035428064568320970692304673817341489687505668096"
      ],
      "assetValues": [
        1
      ]
    },
    {
      "reservedAddress": "0x9699eceb875df99e3f5ec81bba9003083e986811",
      "assetIds": [
        "55464657044963196816950587289035428064568320970692304673817341489687505668096"
      ],
      "assetValues": [
        1
      ]
    },
    {
      "reservedAddress": "0x96a3ba33255a96634e98d108cc111ddc87376d7a",
      "assetIds": [
        "55464657044963196816950587289035428064568320970692304673817341489687505668096"
      ],
      "assetValues": [
        1
      ]
    },
    {
      "reservedAddress": "0x96cbd22d6d8cf5d7d5eb887efe27b1b0a69f4d20",
      "assetIds": [
        "55464657044963196816950587289035428064568320970692304673817341489687505668096"
      ],
      "assetValues": [
        1
      ]
    },
    {
      "reservedAddress": "0x96d5d16befcff1bb0fc0180094092716d3280278",
      "assetIds": [
        "55464657044963196816950587289035428064568320970692304673817341489687505668096"
      ],
      "assetValues": [
        1
      ]
    },
    {
      "reservedAddress": "0x96dff1d7fdef06d75aae491076088f98f5793a08",
      "assetIds": [
        "55464657044963196816950587289035428064568320970692304673817341489687505668096"
      ],
      "assetValues": [
        1
      ]
    },
    {
      "reservedAddress": "0x9735f524d62bfe51dabe03a214bf1f09a1ce266c",
      "assetIds": [
        "55464657044963196816950587289035428064568320970692304673817341489687505668096"
      ],
      "assetValues": [
        1
      ]
    },
    {
      "reservedAddress": "0x973c9d264d6c18df73a4d5d592a57770589c1cd9",
      "assetIds": [
        "55464657044963196816950587289035428064568320970692304673817341489687505668096"
      ],
      "assetValues": [
        1
      ]
    },
    {
      "reservedAddress": "0x974f1f935207358169164c20a441ec364ba1c00d",
      "assetIds": [
        "55464657044963196816950587289035428064568320970692304673817341489687505668096"
      ],
      "assetValues": [
        1
      ]
    },
    {
      "reservedAddress": "0x9753352b57942165c062efa9d857844245f9bf49",
      "assetIds": [
        "55464657044963196816950587289035428064568320970692304673817341489687505668096"
      ],
      "assetValues": [
        1
      ]
    },
    {
      "reservedAddress": "0x975e8a2da745c3ed3c53b7130d421320ebc6cb60",
      "assetIds": [
        "55464657044963196816950587289035428064568320970692304673817341489687505668096"
      ],
      "assetValues": [
        1
      ]
    },
    {
      "reservedAddress": "0x9767e4306ae83d1482b6909a131c2bbc5be7c47b",
      "assetIds": [
        "55464657044963196816950587289035428064568320970692304673817341489687505668096"
      ],
      "assetValues": [
        1
      ]
    },
    {
      "reservedAddress": "0x976a7cc0503b8a535a8d9471c88abac0f2690ce3",
      "assetIds": [
        "55464657044963196816950587289035428064568320970692304673817341489687505668096"
      ],
      "assetValues": [
        1
      ]
    },
    {
      "reservedAddress": "0x976dd445c0be0c3fdc08d8c30ef12fb2a32680f6",
      "assetIds": [
        "55464657044963196816950587289035428064568320970692304673817341489687505668096"
      ],
      "assetValues": [
        1
      ]
    },
    {
      "reservedAddress": "0x9773d06b39398589fa5f27b7371fd53fce016fa2",
      "assetIds": [
        "55464657044963196816950587289035428064568320970692304673817341489687505668096"
      ],
      "assetValues": [
        1
      ]
    },
    {
      "reservedAddress": "0x9788e8a2de43664da334c3cf8f69041fe5858470",
      "assetIds": [
        "55464657044963196816950587289035428064568320970692304673817341489687505668096"
      ],
      "assetValues": [
        1
      ]
    },
    {
      "reservedAddress": "0x9791b60c72b872e1f6bc82fddc0fc3816058c7f1",
      "assetIds": [
        "55464657044963196816950587289035428064568320970692304673817341489687505668096"
      ],
      "assetValues": [
        1
      ]
    },
    {
      "reservedAddress": "0x979e94c3ed003e7efa9415484a80dbecb22cbd22",
      "assetIds": [
        "55464657044963196816950587289035428064568320970692304673817341489687505668096"
      ],
      "assetValues": [
        1
      ]
    },
    {
      "reservedAddress": "0x97ace6aef9bc9a1dcaab199f4761069a51c10386",
      "assetIds": [
        "55464657044963196816950587289035428064568320970692304673817341489687505668096"
      ],
      "assetValues": [
        1
      ]
    },
    {
      "reservedAddress": "0x97b00eebfc135baf9fbcf1daeeddab2fde75d5ce",
      "assetIds": [
        "55464657044963196816950587289035428064568320970692304673817341489687505668096"
      ],
      "assetValues": [
        1
      ]
    },
    {
      "reservedAddress": "0x97d7255fe0b655e17728664c81b7802a5cfaa45c",
      "assetIds": [
        "55464657044963196816950587289035428064568320970692304673817341489687505668096"
      ],
      "assetValues": [
        1
      ]
    },
    {
      "reservedAddress": "0x97f20a625a39333be19c93ba163862d4a75935b0",
      "assetIds": [
        "55464657044963196816950587289035428064568320970692304673817341489687505668096"
      ],
      "assetValues": [
        1
      ]
    },
    {
      "reservedAddress": "0x97f8838c618a4804a7d7f9772b34b29481377b68",
      "assetIds": [
        "55464657044963196816950587289035428064568320970692304673817341489687505668096"
      ],
      "assetValues": [
        1
      ]
    },
    {
      "reservedAddress": "0x98234395e2a7232841b68daf5c1df54f727b4c5c",
      "assetIds": [
        "55464657044963196816950587289035428064568320970692304673817341489687505668096"
      ],
      "assetValues": [
        1
      ]
    },
    {
      "reservedAddress": "0x983961f34fc4cfc5eafec371cdba9d56ff8c1935",
      "assetIds": [
        "55464657044963196816950587289035428064568320970692304673817341489687505668096"
      ],
      "assetValues": [
        1
      ]
    },
    {
      "reservedAddress": "0x9845bc3476d1f891266d2a4c7be093e2527c489c",
      "assetIds": [
        "55464657044963196816950587289035428064568320970692304673817341489687505668096"
      ],
      "assetValues": [
        1
      ]
    },
    {
      "reservedAddress": "0x985b9aa6ec8db1c6ec3b4c9da68831acdf78a9f0",
      "assetIds": [
        "55464657044963196816950587289035428064568320970692304673817341489687505668096"
      ],
      "assetValues": [
        1
      ]
    },
    {
      "reservedAddress": "0x987b149157a80144e0e3aaf7ed3d83d3947e352a",
      "assetIds": [
        "55464657044963196816950587289035428064568320970692304673817341489687505668096"
      ],
      "assetValues": [
        1
      ]
    },
    {
      "reservedAddress": "0x98806b8d97efe273e87e5efbe53b959540091bf4",
      "assetIds": [
        "55464657044963196816950587289035428064568320970692304673817341489687505668096"
      ],
      "assetValues": [
        1
      ]
    },
    {
      "reservedAddress": "0x9897234207415ce76166192d20373b848f6d5254",
      "assetIds": [
        "55464657044963196816950587289035428064568320970692304673817341489687505668096"
      ],
      "assetValues": [
        1
      ]
    },
    {
      "reservedAddress": "0x98b83b8286a0fb02031e72a77515575a9928e5b5",
      "assetIds": [
        "55464657044963196816950587289035428064568320970692304673817341489687505668096"
      ],
      "assetValues": [
        1
      ]
    },
    {
      "reservedAddress": "0x98bce2cc31c3c05c6d28eecdb1476e7a133ea563",
      "assetIds": [
        "55464657044963196816950587289035428064568320970692304673817341489687505668096"
      ],
      "assetValues": [
        1
      ]
    },
    {
      "reservedAddress": "0x98d29d96b05c47bd32062298f3f18ef758427304",
      "assetIds": [
        "55464657044963196816950587289035428064568320970692304673817341489687505668096"
      ],
      "assetValues": [
        1
      ]
    },
    {
      "reservedAddress": "0x98f9350895fd5bd493b6e44e2340a191176fb8fb",
      "assetIds": [
        "55464657044963196816950587289035428064568320970692304673817341489687505668096"
      ],
      "assetValues": [
        1
      ]
    },
    {
      "reservedAddress": "0x99060e74d2e8d3cae79110b9c60385ced12a704e",
      "assetIds": [
        "55464657044963196816950587289035428064568320970692304673817341489687505668096"
      ],
      "assetValues": [
        1
      ]
    },
    {
      "reservedAddress": "0x990a43fa665ce8b3d61b106c24094136da5878e2",
      "assetIds": [
        "55464657044963196816950587289035428064568320970692304673817341489687505668096"
      ],
      "assetValues": [
        1
      ]
    },
    {
      "reservedAddress": "0x993894799d8ae6ed114766a603dd9f0dee1b67a4",
      "assetIds": [
        "55464657044963196816950587289035428064568320970692304673817341489687505668096"
      ],
      "assetValues": [
        1
      ]
    },
    {
      "reservedAddress": "0x994cc461e70537b35e46d490bccd0c0c33efe6e0",
      "assetIds": [
        "55464657044963196816950587289035428064568320970692304673817341489687505668096"
      ],
      "assetValues": [
        1
      ]
    },
    {
      "reservedAddress": "0x9960b1776e4db9673c5a14912bafdec6e4313589",
      "assetIds": [
        "55464657044963196816950587289035428064568320970692304673817341489687505668096"
      ],
      "assetValues": [
        1
      ]
    },
    {
      "reservedAddress": "0x9969a25825d0aa421fdf2e78cd35e0db765ccc5c",
      "assetIds": [
        "55464657044963196816950587289035428064568320970692304673817341489687505668096"
      ],
      "assetValues": [
        1
      ]
    },
    {
      "reservedAddress": "0x997202adee11ebeb3d5b6b3c0b3b2b3f3002bc31",
      "assetIds": [
        "55464657044963196816950587289035428064568320970692304673817341489687505668096"
      ],
      "assetValues": [
        1
      ]
    },
    {
      "reservedAddress": "0x997261b3b79fe539502aa990b0d74c7ed0013a8b",
      "assetIds": [
        "55464657044963196816950587289035428064568320970692304673817341489687505668096"
      ],
      "assetValues": [
        1
      ]
    },
    {
      "reservedAddress": "0x99834d041bfbe870ec0a9ed2851f2dc5ea712aae",
      "assetIds": [
        "55464657044963196816950587289035428064568320970692304673817341489687505668096"
      ],
      "assetValues": [
        1
      ]
    },
    {
      "reservedAddress": "0x998c1f93bcdb6ff23c10d0dc924728b73be2ff9f",
      "assetIds": [
        "55464657044963196816950587289035428064568320970692304673817341489687505668096"
      ],
      "assetValues": [
        1
      ]
    },
    {
      "reservedAddress": "0x998e35703770c7e7c67570e224463cc74fcc86e8",
      "assetIds": [
        "55464657044963196816950587289035428064568320970692304673817341489687505668096"
      ],
      "assetValues": [
        1
      ]
    },
    {
      "reservedAddress": "0x998fdfebf7f1dfaab1c48ce0555a2c51a3dd0817",
      "assetIds": [
        "55464657044963196816950587289035428064568320970692304673817341489687505668096"
      ],
      "assetValues": [
        1
      ]
    },
    {
      "reservedAddress": "0x99902368387ae8da8c9c7840af140a3bf1c31bea",
      "assetIds": [
        "55464657044963196816950587289035428064568320970692304673817341489687505668096"
      ],
      "assetValues": [
        1
      ]
    },
    {
      "reservedAddress": "0x99b27a8d2c8151f70c61c600532c403fe3ae2573",
      "assetIds": [
        "55464657044963196816950587289035428064568320970692304673817341489687505668096"
      ],
      "assetValues": [
        1
      ]
    },
    {
      "reservedAddress": "0x99bf1b453999d276d868f49475ecdb136f3819b1",
      "assetIds": [
        "55464657044963196816950587289035428064568320970692304673817341489687505668096"
      ],
      "assetValues": [
        1
      ]
    },
    {
      "reservedAddress": "0x99cbb4509625e621e0d614b2947276b0ff0fa6d4",
      "assetIds": [
        "55464657044963196816950587289035428064568320970692304673817341489687505668096"
      ],
      "assetValues": [
        1
      ]
    },
    {
      "reservedAddress": "0x99fe1a841d59379acd34da92ad01cf4244e73475",
      "assetIds": [
        "55464657044963196816950587289035428064568320970692304673817341489687505668096"
      ],
      "assetValues": [
        1
      ]
    },
    {
      "reservedAddress": "0x9a142c0625f0c9c85aa103581d1d97fe86a12fad",
      "assetIds": [
        "55464657044963196816950587289035428064568320970692304673817341489687505668096"
      ],
      "assetValues": [
        1
      ]
    },
    {
      "reservedAddress": "0x9a215304d686fe6ab67c79c3c273856798f8696d",
      "assetIds": [
        "55464657044963196816950587289035428064568320970692304673817341489687505668096"
      ],
      "assetValues": [
        1
      ]
    },
    {
      "reservedAddress": "0x9a3a55723dc8974289ec64ee6517fcfb20577b40",
      "assetIds": [
        "55464657044963196816950587289035428064568320970692304673817341489687505668096"
      ],
      "assetValues": [
        1
      ]
    },
    {
      "reservedAddress": "0x9a40324413a9f8fdab630f8818d713535901e14e",
      "assetIds": [
        "55464657044963196816950587289035428064568320970692304673817341489687505668096"
      ],
      "assetValues": [
        1
      ]
    },
    {
      "reservedAddress": "0x9a6c57c988151c0795be3fc1a59038a487b1d816",
      "assetIds": [
        "55464657044963196816950587289035428064568320970692304673817341489687505668096"
      ],
      "assetValues": [
        1
      ]
    },
    {
      "reservedAddress": "0x9ac0be2f97ad5d1ab4ebdc52204da1973d106730",
      "assetIds": [
        "55464657044963196816950587289035428064568320970692304673817341489687505668096"
      ],
      "assetValues": [
        1
      ]
    },
    {
      "reservedAddress": "0x9b0fbd87cd621482638abccb5bc18eb69f4c0f1c",
      "assetIds": [
        "55464657044963196816950587289035428064568320970692304673817341489687505668096"
      ],
      "assetValues": [
        1
      ]
    },
    {
      "reservedAddress": "0x9b19e7d322b048ccd151c2a20c89e5ca104a516c",
      "assetIds": [
        "55464657044963196816950587289035428064568320970692304673817341489687505668096"
      ],
      "assetValues": [
        1
      ]
    },
    {
      "reservedAddress": "0x9b1b71e08fa58750f18804fad71824b4bac425c6",
      "assetIds": [
        "55464657044963196816950587289035428064568320970692304673817341489687505668096"
      ],
      "assetValues": [
        1
      ]
    },
    {
      "reservedAddress": "0x9b23e7ea59bbff6676acf8702cbb234a60b4c059",
      "assetIds": [
        "55464657044963196816950587289035428064568320970692304673817341489687505668096"
      ],
      "assetValues": [
        1
      ]
    },
    {
      "reservedAddress": "0x9b5de1e51f1ed3ef7c8e6f3792847b10e3c0ad53",
      "assetIds": [
        "55464657044963196816950587289035428064568320970692304673817341489687505668096"
      ],
      "assetValues": [
        1
      ]
    },
    {
      "reservedAddress": "0x9bb97522a188daa3c39690b1f6ea5691dfa4e5ec",
      "assetIds": [
        "55464657044963196816950587289035428064568320970692304673817341489687505668096"
      ],
      "assetValues": [
        1
      ]
    },
    {
      "reservedAddress": "0x9bbca0577f97c34b7dc8ce35fad204f9878e3b7a",
      "assetIds": [
        "55464657044963196816950587289035428064568320970692304673817341489687505668096"
      ],
      "assetValues": [
        1
      ]
    },
    {
      "reservedAddress": "0x9bde9fde7944a4b51217af82f9dcd8ce6d6131c0",
      "assetIds": [
        "55464657044963196816950587289035428064568320970692304673817341489687505668096"
      ],
      "assetValues": [
        1
      ]
    },
    {
      "reservedAddress": "0x9be7cc1f5666afdae6bfb02fa0e3a170c5d46808",
      "assetIds": [
        "55464657044963196816950587289035428064568320970692304673817341489687505668096"
      ],
      "assetValues": [
        1
      ]
    },
    {
      "reservedAddress": "0x9c1363e8a8dac64147c3e5e6533dacf269471247",
      "assetIds": [
        "55464657044963196816950587289035428064568320970692304673817341489687505668096"
      ],
      "assetValues": [
        1
      ]
    },
    {
      "reservedAddress": "0x9c22d83fb0315263566740d018f08e8c075fc927",
      "assetIds": [
        "55464657044963196816950587289035428064568320970692304673817341489687505668096"
      ],
      "assetValues": [
        1
      ]
    },
    {
      "reservedAddress": "0x9c29b453c1e5d1d292d4f7eeebc3083fd91f1eb9",
      "assetIds": [
        "55464657044963196816950587289035428064568320970692304673817341489687505668096"
      ],
      "assetValues": [
        1
      ]
    },
    {
      "reservedAddress": "0x9c3aa4a2f8536d8a1d4d7468d9dbc0d78df5f10c",
      "assetIds": [
        "55464657044963196816950587289035428064568320970692304673817341489687505668096"
      ],
      "assetValues": [
        1
      ]
    },
    {
      "reservedAddress": "0x9c4dfbcd280418e97fab3fb8e250d5ae222654fc",
      "assetIds": [
        "55464657044963196816950587289035428064568320970692304673817341489687505668096"
      ],
      "assetValues": [
        1
      ]
    },
    {
      "reservedAddress": "0x9c5adcdcf90d4b151660b99c4e6dc6c9202210cf",
      "assetIds": [
        "55464657044963196816950587289035428064568320970692304673817341489687505668096"
      ],
      "assetValues": [
        1
      ]
    },
    {
      "reservedAddress": "0x9c6a68c20fd6dd00ae5f764a0035420e8bea78fd",
      "assetIds": [
        "55464657044963196816950587289035428064568320970692304673817341489687505668096"
      ],
      "assetValues": [
        1
      ]
    },
    {
      "reservedAddress": "0x9c9550871c8d714e90ee03e610b21f156381bdf1",
      "assetIds": [
        "55464657044963196816950587289035428064568320970692304673817341489687505668096"
      ],
      "assetValues": [
        1
      ]
    },
    {
      "reservedAddress": "0x9cd448377d6c86e47f0e8a8521086b6cf30b580c",
      "assetIds": [
        "55464657044963196816950587289035428064568320970692304673817341489687505668096"
      ],
      "assetValues": [
        1
      ]
    },
    {
      "reservedAddress": "0x9cd5f2a5d8f4a69ccb69469b47927f5f66b9448c",
      "assetIds": [
        "55464657044963196816950587289035428064568320970692304673817341489687505668096"
      ],
      "assetValues": [
        1
      ]
    },
    {
      "reservedAddress": "0x9ce9c899f6cb8a5c2f986292cb4f119542e106f4",
      "assetIds": [
        "55464657044963196816950587289035428064568320970692304673817341489687505668096"
      ],
      "assetValues": [
        1
      ]
    },
    {
      "reservedAddress": "0x9cfa73b8d300ec5bf204e4de4a58e5ee6b7dc93c",
      "assetIds": [
        "55464657044963196816950587289035428064568320970692304673817341489687505668096"
      ],
      "assetValues": [
        1
      ]
    },
    {
      "reservedAddress": "0x9d00cea7b9a5367bbe583b32b472fd8fc6fe137e",
      "assetIds": [
        "55464657044963196816950587289035428064568320970692304673817341489687505668096"
      ],
      "assetValues": [
        1
      ]
    },
    {
      "reservedAddress": "0x9d1dfefbc6a4af8ee33b184fa8a8cd14dd1d36d0",
      "assetIds": [
        "55464657044963196816950587289035428064568320970692304673817341489687505668096"
      ],
      "assetValues": [
        1
      ]
    },
    {
      "reservedAddress": "0x9d4fc2e42947da868c8705ba533f0f8a024789d3",
      "assetIds": [
        "55464657044963196816950587289035428064568320970692304673817341489687505668096"
      ],
      "assetValues": [
        1
      ]
    },
    {
      "reservedAddress": "0x9d5597266c626dfdefad49f05bbfe1a9c89eefb9",
      "assetIds": [
        "55464657044963196816950587289035428064568320970692304673817341489687505668096"
      ],
      "assetValues": [
        1
      ]
    },
    {
      "reservedAddress": "0x9d69a3228d510ebd7860b431576c47751431e459",
      "assetIds": [
        "55464657044963196816950587289035428064568320970692304673817341489687505668096"
      ],
      "assetValues": [
        1
      ]
    },
    {
      "reservedAddress": "0x9dc0028cf81d77df2f68e2c2478ea81019c8ccdb",
      "assetIds": [
        "55464657044963196816950587289035428064568320970692304673817341489687505668096"
      ],
      "assetValues": [
        1
      ]
    },
    {
      "reservedAddress": "0x9dcaf1445ffa749f9873fdfa004b86e3803fad25",
      "assetIds": [
        "55464657044963196816950587289035428064568320970692304673817341489687505668096"
      ],
      "assetValues": [
        1
      ]
    },
    {
      "reservedAddress": "0x9dea027f931f584939ba93bc1621dc71783cab5b",
      "assetIds": [
        "55464657044963196816950587289035428064568320970692304673817341489687505668096"
      ],
      "assetValues": [
        1
      ]
    },
    {
      "reservedAddress": "0x9df712718352d875ab2c294611be974251604061",
      "assetIds": [
        "55464657044963196816950587289035428064568320970692304673817341489687505668096"
      ],
      "assetValues": [
        1
      ]
    },
    {
      "reservedAddress": "0x9e0c7fa4d0a92bf9864a3d59c80e15c4d3a49f24",
      "assetIds": [
        "55464657044963196816950587289035428064568320970692304673817341489687505668096"
      ],
      "assetValues": [
        1
      ]
    },
    {
      "reservedAddress": "0x9e125bdaf3cb6f7fb01700203fb380df96e46c9d",
      "assetIds": [
        "55464657044963196816950587289035428064568320970692304673817341489687505668096"
      ],
      "assetValues": [
        1
      ]
    },
    {
      "reservedAddress": "0x9e512649417ff8f42b6b3f4cea3abd61d245b410",
      "assetIds": [
        "55464657044963196816950587289035428064568320970692304673817341489687505668096"
      ],
      "assetValues": [
        1
      ]
    },
    {
      "reservedAddress": "0x9e712d4d1b17b6adb046c8441045425f99f6a221",
      "assetIds": [
        "55464657044963196816950587289035428064568320970692304673817341489687505668096"
      ],
      "assetValues": [
        1
      ]
    },
    {
      "reservedAddress": "0x9e75d5cf5d6a1970e47bc3d37f3c21a878c321e9",
      "assetIds": [
        "55464657044963196816950587289035428064568320970692304673817341489687505668096"
      ],
      "assetValues": [
        1
      ]
    },
    {
      "reservedAddress": "0x9e8227f5bdd1cd0d79718f77f72fe82545ead962",
      "assetIds": [
        "55464657044963196816950587289035428064568320970692304673817341489687505668096"
      ],
      "assetValues": [
        1
      ]
    },
    {
      "reservedAddress": "0x9e90f268463cede92e0de40043fe40e5323241f3",
      "assetIds": [
        "55464657044963196816950587289035428064568320970692304673817341489687505668096"
      ],
      "assetValues": [
        1
      ]
    },
    {
      "reservedAddress": "0x9ed3db7a8ec964ef0813edb7bf3ff514a25fae70",
      "assetIds": [
        "55464657044963196816950587289035428064568320970692304673817341489687505668096"
      ],
      "assetValues": [
        1
      ]
    },
    {
      "reservedAddress": "0x9ee5e3ff06425cf972e77c195f70ecb18ac23d7f",
      "assetIds": [
        "55464657044963196816950587289035428064568320970692304673817341489687505668096"
      ],
      "assetValues": [
        1
      ]
    },
    {
      "reservedAddress": "0x9ee9dd2b8ed66f5f4abfc358b640aa6ff2da5457",
      "assetIds": [
        "55464657044963196816950587289035428064568320970692304673817341489687505668096"
      ],
      "assetValues": [
        1
      ]
    },
    {
      "reservedAddress": "0x9f0574a5f28779a1a682cfe4bbd090ee058d07aa",
      "assetIds": [
        "55464657044963196816950587289035428064568320970692304673817341489687505668096"
      ],
      "assetValues": [
        1
      ]
    },
    {
      "reservedAddress": "0x9f0c01ce31fcf414749bdb538cb97ffa9a1024e0",
      "assetIds": [
        "55464657044963196816950587289035428064568320970692304673817341489687505668096"
      ],
      "assetValues": [
        1
      ]
    },
    {
      "reservedAddress": "0x9f0d24b51fe4af114684f119503db9f17ee1c4a5",
      "assetIds": [
        "55464657044963196816950587289035428064568320970692304673817341489687505668096"
      ],
      "assetValues": [
        1
      ]
    },
    {
      "reservedAddress": "0x9f12587b7114c57d9d6584853447b70ad0c4b6f1",
      "assetIds": [
        "55464657044963196816950587289035428064568320970692304673817341489687505668096"
      ],
      "assetValues": [
        1
      ]
    },
    {
      "reservedAddress": "0x9f1ce370c9fa06ca6f9c0125de82278372092800",
      "assetIds": [
        "55464657044963196816950587289035428064568320970692304673817341489687505668096"
      ],
      "assetValues": [
        1
      ]
    },
    {
      "reservedAddress": "0x9f82432d89801ee6606d26a752062de0abb740cf",
      "assetIds": [
        "55464657044963196816950587289035428064568320970692304673817341489687505668096"
      ],
      "assetValues": [
        1
      ]
    },
    {
      "reservedAddress": "0x9f84b44b3717f25155c8123bc8ef65e7cbbd0ae5",
      "assetIds": [
        "55464657044963196816950587289035428064568320970692304673817341489687505668096"
      ],
      "assetValues": [
        1
      ]
    },
    {
      "reservedAddress": "0x9f96590ec2a148770ad7fc5d53b2e38ec30e3020",
      "assetIds": [
        "55464657044963196816950587289035428064568320970692304673817341489687505668096"
      ],
      "assetValues": [
        1
      ]
    },
    {
      "reservedAddress": "0x9fa02761fb829e10275f7971143c82dc029a061c",
      "assetIds": [
        "55464657044963196816950587289035428064568320970692304673817341489687505668096"
      ],
      "assetValues": [
        1
      ]
    },
    {
      "reservedAddress": "0x9faefa1c4c779843dcbbccc7b1a20827fee7aa9b",
      "assetIds": [
        "55464657044963196816950587289035428064568320970692304673817341489687505668096"
      ],
      "assetValues": [
        1
      ]
    },
    {
      "reservedAddress": "0x9fbd924960f91cdf4473747ecb91667ad8925f63",
      "assetIds": [
        "55464657044963196816950587289035428064568320970692304673817341489687505668096"
      ],
      "assetValues": [
        1
      ]
    },
    {
      "reservedAddress": "0x9fbdd6437840641b5dede244b084d31e109a0f23",
      "assetIds": [
        "55464657044963196816950587289035428064568320970692304673817341489687505668096"
      ],
      "assetValues": [
        1
      ]
    },
    {
      "reservedAddress": "0x9fc0adf057267e8887dd633d0616503ba2ad0842",
      "assetIds": [
        "55464657044963196816950587289035428064568320970692304673817341489687505668096"
      ],
      "assetValues": [
        1
      ]
    },
    {
      "reservedAddress": "0x9fc563afce79bca3aaf9672d18e0eb35bd231e50",
      "assetIds": [
        "55464657044963196816950587289035428064568320970692304673817341489687505668096"
      ],
      "assetValues": [
        1
      ]
    },
    {
      "reservedAddress": "0x9fc67f2338e6883254fc2a082d58233bea00fdd1",
      "assetIds": [
        "55464657044963196816950587289035428064568320970692304673817341489687505668096"
      ],
      "assetValues": [
        1
      ]
    },
    {
      "reservedAddress": "0x9fed225115a1374c7f0faef307d471c80fff1893",
      "assetIds": [
        "55464657044963196816950587289035428064568320970692304673817341489687505668096"
      ],
      "assetValues": [
        1
      ]
    },
    {
      "reservedAddress": "0xa003019940a2ab673d77a723e2110725b19ca04e",
      "assetIds": [
        "55464657044963196816950587289035428064568320970692304673817341489687505668096"
      ],
      "assetValues": [
        1
      ]
    },
    {
      "reservedAddress": "0xa005f646b9dc13e1f49b5f53c1c4552fd312f4fd",
      "assetIds": [
        "55464657044963196816950587289035428064568320970692304673817341489687505668096"
      ],
      "assetValues": [
        1
      ]
    },
    {
      "reservedAddress": "0xa00776576ce1749a9a75ca5bb7c6ae259b518ca8",
      "assetIds": [
        "55464657044963196816950587289035428064568320970692304673817341489687505668096"
      ],
      "assetValues": [
        1
      ]
    },
    {
      "reservedAddress": "0xa052656e9e9accc2a4c916aa55e1e226160b49ce",
      "assetIds": [
        "55464657044963196816950587289035428064568320970692304673817341489687505668096"
      ],
      "assetValues": [
        1
      ]
    },
    {
      "reservedAddress": "0xa07e04f54cb79558863906b3e96d4298ec63296e",
      "assetIds": [
        "55464657044963196816950587289035428064568320970692304673817341489687505668096"
      ],
      "assetValues": [
        1
      ]
    },
    {
      "reservedAddress": "0xa096b47ebf7727d01ff4f09c34fc6591f2c375f0",
      "assetIds": [
        "55464657044963196816950587289035428064568320970692304673817341489687505668096"
      ],
      "assetValues": [
        1
      ]
    },
    {
      "reservedAddress": "0xa0b574393d2da912e8d30b3723d82b4bf742ef93",
      "assetIds": [
        "55464657044963196816950587289035428064568320970692304673817341489687505668096"
      ],
      "assetValues": [
        1
      ]
    },
    {
      "reservedAddress": "0xa0bb2ddb75db32413fc65982e75113a286c68d44",
      "assetIds": [
        "55464657044963196816950587289035428064568320970692304673817341489687505668096"
      ],
      "assetValues": [
        1
      ]
    },
    {
      "reservedAddress": "0xa0e09c4bdb575fd9f31083fbed0f0d9a6683cfb7",
      "assetIds": [
        "55464657044963196816950587289035428064568320970692304673817341489687505668096"
      ],
      "assetValues": [
        1
      ]
    },
    {
      "reservedAddress": "0xa0f77c56b545818b64646e2de834b044573ce078",
      "assetIds": [
        "55464657044963196816950587289035428064568320970692304673817341489687505668096"
      ],
      "assetValues": [
        1
      ]
    },
    {
      "reservedAddress": "0xa13630682596fbc0f3fd067e93d40d0322118949",
      "assetIds": [
        "55464657044963196816950587289035428064568320970692304673817341489687505668096"
      ],
      "assetValues": [
        1
      ]
    },
    {
      "reservedAddress": "0xa13e1b3e5959378df847fce2161cee55df64cc1f",
      "assetIds": [
        "55464657044963196816950587289035428064568320970692304673817341489687505668096"
      ],
      "assetValues": [
        1
      ]
    },
    {
      "reservedAddress": "0xa141079fa74869400de530430475a77eeb116e86",
      "assetIds": [
        "55464657044963196816950587289035428064568320970692304673817341489687505668096"
      ],
      "assetValues": [
        1
      ]
    },
    {
      "reservedAddress": "0xa1491d0c75478c7ccb0dfabf4fdc842fba0800e7",
      "assetIds": [
        "55464657044963196816950587289035428064568320970692304673817341489687505668096"
      ],
      "assetValues": [
        1
      ]
    },
    {
      "reservedAddress": "0xa14ac1a9b3d52abd0652c5aca346099a6eb16b54",
      "assetIds": [
        "55464657044963196816950587289035428064568320970692304673817341489687505668096"
      ],
      "assetValues": [
        1
      ]
    },
    {
      "reservedAddress": "0xa16ce88f9f702d390244ce016f9416b23c9c3027",
      "assetIds": [
        "55464657044963196816950587289035428064568320970692304673817341489687505668096"
      ],
      "assetValues": [
        1
      ]
    },
    {
      "reservedAddress": "0xa17947890cf13b30147985a3ad02bde2431cb851",
      "assetIds": [
        "55464657044963196816950587289035428064568320970692304673817341489687505668096"
      ],
      "assetValues": [
        1
      ]
    },
    {
      "reservedAddress": "0xa186727fdaf90cd7d9972572e32c618ce04206f8",
      "assetIds": [
        "55464657044963196816950587289035428064568320970692304673817341489687505668096"
      ],
      "assetValues": [
        1
      ]
    },
    {
      "reservedAddress": "0xa18d11469653bd3a95b6742b793e41cac7786c6e",
      "assetIds": [
        "55464657044963196816950587289035428064568320970692304673817341489687505668096"
      ],
      "assetValues": [
        1
      ]
    },
    {
      "reservedAddress": "0xa196a68901fdc0868e7c3864f6df615f0cfc85fb",
      "assetIds": [
        "55464657044963196816950587289035428064568320970692304673817341489687505668096"
      ],
      "assetValues": [
        1
      ]
    },
    {
      "reservedAddress": "0xa19a949bb43fbb84ed5defbd41490383c90e88b6",
      "assetIds": [
        "55464657044963196816950587289035428064568320970692304673817341489687505668096"
      ],
      "assetValues": [
        1
      ]
    },
    {
      "reservedAddress": "0xa1d81e6756bb22f50c56db572930d0414b417cae",
      "assetIds": [
        "55464657044963196816950587289035428064568320970692304673817341489687505668096"
      ],
      "assetValues": [
        1
      ]
    },
    {
      "reservedAddress": "0xa1ecb46c0be223dff23efda8bd553d17b938af47",
      "assetIds": [
        "55464657044963196816950587289035428064568320970692304673817341489687505668096"
      ],
      "assetValues": [
        1
      ]
    },
    {
      "reservedAddress": "0xa1edca6728ea9979456eee3c45e18d98e96344df",
      "assetIds": [
        "55464657044963196816950587289035428064568320970692304673817341489687505668096"
      ],
      "assetValues": [
        1
      ]
    },
    {
      "reservedAddress": "0xa1ee9c66944f14df1015f79497a634685fac848a",
      "assetIds": [
        "55464657044963196816950587289035428064568320970692304673817341489687505668096"
      ],
      "assetValues": [
        1
      ]
    },
    {
      "reservedAddress": "0xa2032f5e16f4fcfd09992715e7d5d8b0d823c1fc",
      "assetIds": [
        "55464657044963196816950587289035428064568320970692304673817341489687505668096"
      ],
      "assetValues": [
        1
      ]
    },
    {
      "reservedAddress": "0xa208a0e5a1a74e6b9c3f053be2d1ea884067b925",
      "assetIds": [
        "55464657044963196816950587289035428064568320970692304673817341489687505668096"
      ],
      "assetValues": [
        1
      ]
    },
    {
      "reservedAddress": "0xa2165c20395f602b1bd91a6f311858386531ea93",
      "assetIds": [
        "55464657044963196816950587289035428064568320970692304673817341489687505668096"
      ],
      "assetValues": [
        1
      ]
    },
    {
      "reservedAddress": "0xa22121b4602a70a2b3b18940e85c20d8d0697c65",
      "assetIds": [
        "55464657044963196816950587289035428064568320970692304673817341489687505668096"
      ],
      "assetValues": [
        1
      ]
    },
    {
      "reservedAddress": "0xa22b52c5b28b4797ce6b46c6346b6bbe0400ea2c",
      "assetIds": [
        "55464657044963196816950587289035428064568320970692304673817341489687505668096"
      ],
      "assetValues": [
        1
      ]
    },
    {
      "reservedAddress": "0xa248c05514e11e19e0bb0bb1c409875c485f1c1b",
      "assetIds": [
        "55464657044963196816950587289035428064568320970692304673817341489687505668096"
      ],
      "assetValues": [
        1
      ]
    },
    {
      "reservedAddress": "0xa264b63474161fb70fd6e50e9ea73354bb8a289c",
      "assetIds": [
        "55464657044963196816950587289035428064568320970692304673817341489687505668096"
      ],
      "assetValues": [
        1
      ]
    },
    {
      "reservedAddress": "0xa265881fe0ae9379a15d9d944fa3a39abcd8bbcb",
      "assetIds": [
        "55464657044963196816950587289035428064568320970692304673817341489687505668096"
      ],
      "assetValues": [
        1
      ]
    },
    {
      "reservedAddress": "0xa2917120c698fb5f2a03e3fd3524bda85a3eaef6",
      "assetIds": [
        "55464657044963196816950587289035428064568320970692304673817341489687505668096"
      ],
      "assetValues": [
        1
      ]
    },
    {
      "reservedAddress": "0xa2aa32c4a61f0a673c52ae3b2f0353eb4a20e111",
      "assetIds": [
        "55464657044963196816950587289035428064568320970692304673817341489687505668096"
      ],
      "assetValues": [
        1
      ]
    },
    {
      "reservedAddress": "0xa2b5d852514113b1aec11bdda637f23c7c15cb26",
      "assetIds": [
        "55464657044963196816950587289035428064568320970692304673817341489687505668096"
      ],
      "assetValues": [
        1
      ]
    },
    {
      "reservedAddress": "0xa2e358abb6dad485704f01cb479bea5abbae902f",
      "assetIds": [
        "55464657044963196816950587289035428064568320970692304673817341489687505668096"
      ],
      "assetValues": [
        1
      ]
    },
    {
      "reservedAddress": "0xa30187ba41ce1e9b5a7df85d7d122dcd5ab8c7bf",
      "assetIds": [
        "55464657044963196816950587289035428064568320970692304673817341489687505668096"
      ],
      "assetValues": [
        1
      ]
    },
    {
      "reservedAddress": "0xa327711486c0ae0a9479637b9e00566fa16f4160",
      "assetIds": [
        "55464657044963196816950587289035428064568320970692304673817341489687505668096"
      ],
      "assetValues": [
        1
      ]
    },
    {
      "reservedAddress": "0xa338c42cd68dd24931f270836cdbddcea4132770",
      "assetIds": [
        "55464657044963196816950587289035428064568320970692304673817341489687505668096"
      ],
      "assetValues": [
        1
      ]
    },
    {
      "reservedAddress": "0xa34c363854c3896aa91deec0f7b882e06876296f",
      "assetIds": [
        "55464657044963196816950587289035428064568320970692304673817341489687505668096"
      ],
      "assetValues": [
        1
      ]
    },
    {
      "reservedAddress": "0xa34dbbb6cf4987a6e170b802f348635ba9c72fd5",
      "assetIds": [
        "55464657044963196816950587289035428064568320970692304673817341489687505668096"
      ],
      "assetValues": [
        1
      ]
    },
    {
      "reservedAddress": "0xa3540a412ef30255fb4d50fe6c0b41b9f28da499",
      "assetIds": [
        "55464657044963196816950587289035428064568320970692304673817341489687505668096"
      ],
      "assetValues": [
        1
      ]
    },
    {
      "reservedAddress": "0xa35efed1988c4c7618e69f4613b3e5b59168111f",
      "assetIds": [
        "55464657044963196816950587289035428064568320970692304673817341489687505668096"
      ],
      "assetValues": [
        1
      ]
    },
    {
      "reservedAddress": "0xa36fbe33ca34c03f400138ddf3fa1e4ed3da28c0",
      "assetIds": [
        "55464657044963196816950587289035428064568320970692304673817341489687505668096"
      ],
      "assetValues": [
        1
      ]
    },
    {
      "reservedAddress": "0xa37125ea3f7ebc450c103de30556554e9b3ce34a",
      "assetIds": [
        "55464657044963196816950587289035428064568320970692304673817341489687505668096"
      ],
      "assetValues": [
        1
      ]
    },
    {
      "reservedAddress": "0xa37562c6647aeaa997c26f1e7ac25b27e9c4a334",
      "assetIds": [
        "55464657044963196816950587289035428064568320970692304673817341489687505668096"
      ],
      "assetValues": [
        1
      ]
    },
    {
      "reservedAddress": "0xa38f5f822151292a8325786a53c1eef7bab70da5",
      "assetIds": [
        "55464657044963196816950587289035428064568320970692304673817341489687505668096"
      ],
      "assetValues": [
        1
      ]
    },
    {
      "reservedAddress": "0xa39121b7e2ca8aa8378e8da0f9e30e078c78c460",
      "assetIds": [
        "55464657044963196816950587289035428064568320970692304673817341489687505668096"
      ],
      "assetValues": [
        1
      ]
    },
    {
      "reservedAddress": "0xa391ad6dcedd3d070ffbfb538d0ff0089e78a27b",
      "assetIds": [
        "55464657044963196816950587289035428064568320970692304673817341489687505668096"
      ],
      "assetValues": [
        1
      ]
    },
    {
      "reservedAddress": "0xa3953352beab67861e5a7fff47f36611a1ff5335",
      "assetIds": [
        "55464657044963196816950587289035428064568320970692304673817341489687505668096"
      ],
      "assetValues": [
        1
      ]
    },
    {
      "reservedAddress": "0xa39f923e175ffa142ec2ac0e2e04cdeac0f8c73c",
      "assetIds": [
        "55464657044963196816950587289035428064568320970692304673817341489687505668096"
      ],
      "assetValues": [
        1
      ]
    },
    {
      "reservedAddress": "0xa3aae0ac1fcd1731d482bd80793075ebe8e81ed0",
      "assetIds": [
        "55464657044963196816950587289035428064568320970692304673817341489687505668096"
      ],
      "assetValues": [
        1
      ]
    },
    {
      "reservedAddress": "0xa3b25a8daad58eeecaabd2c95cd1800759dbe248",
      "assetIds": [
        "55464657044963196816950587289035428064568320970692304673817341489687505668096"
      ],
      "assetValues": [
        1
      ]
    },
    {
      "reservedAddress": "0xa3cf2afac75f8413383d5de9fdaa6160babbfde4",
      "assetIds": [
        "55464657044963196816950587289035428064568320970692304673817341489687505668096"
      ],
      "assetValues": [
        1
      ]
    },
    {
      "reservedAddress": "0xa3eea7917c07ad83bc486ee932d1dd1bc2fe5634",
      "assetIds": [
        "55464657044963196816950587289035428064568320970692304673817341489687505668096"
      ],
      "assetValues": [
        1
      ]
    },
    {
      "reservedAddress": "0xa41312a0fae3ac1180a1176f9786417a94f71d0c",
      "assetIds": [
        "55464657044963196816950587289035428064568320970692304673817341489687505668096"
      ],
      "assetValues": [
        1
      ]
    },
    {
      "reservedAddress": "0xa45b3dc03fcc38572195028564fe57909abd67a7",
      "assetIds": [
        "55464657044963196816950587289035428064568320970692304673817341489687505668096"
      ],
      "assetValues": [
        1
      ]
    },
    {
      "reservedAddress": "0xa46b7ec297e6a9af8d7185446baa6f4f9d563d4c",
      "assetIds": [
        "55464657044963196816950587289035428064568320970692304673817341489687505668096"
      ],
      "assetValues": [
        1
      ]
    },
    {
      "reservedAddress": "0xa470c97c4c5acec3fe4aa69d19390de0fad1ecd7",
      "assetIds": [
        "55464657044963196816950587289035428064568320970692304673817341489687505668096"
      ],
      "assetValues": [
        1
      ]
    },
    {
      "reservedAddress": "0xa478e7a8792b584845cfe27819761e16422154b4",
      "assetIds": [
        "55464657044963196816950587289035428064568320970692304673817341489687505668096"
      ],
      "assetValues": [
        1
      ]
    },
    {
      "reservedAddress": "0xa4ad045d62a493f0ed883b413866448afb13087c",
      "assetIds": [
        "55464657044963196816950587289035428064568320970692304673817341489687505668096"
      ],
      "assetValues": [
        1
      ]
    },
    {
      "reservedAddress": "0xa4bb0355c8d625c63a92ecae4dcba2ab3bea8c69",
      "assetIds": [
        "55464657044963196816950587289035428064568320970692304673817341489687505668096"
      ],
      "assetValues": [
        1
      ]
    },
    {
      "reservedAddress": "0xa4d0197d4c99c0362378809131d8788c85404bb3",
      "assetIds": [
        "55464657044963196816950587289035428064568320970692304673817341489687505668096"
      ],
      "assetValues": [
        1
      ]
    },
    {
      "reservedAddress": "0xa4e65af4878291324faba8456e5945e234682740",
      "assetIds": [
        "55464657044963196816950587289035428064568320970692304673817341489687505668096"
      ],
      "assetValues": [
        1
      ]
    },
    {
      "reservedAddress": "0xa4ed922ad17b9263340e324e81584f0fb7a38d18",
      "assetIds": [
        "55464657044963196816950587289035428064568320970692304673817341489687505668096"
      ],
      "assetValues": [
        1
      ]
    },
    {
      "reservedAddress": "0xa50b080f064e22b990776c90d004b0af843a4cd5",
      "assetIds": [
        "55464657044963196816950587289035428064568320970692304673817341489687505668096"
      ],
      "assetValues": [
        1
      ]
    },
    {
      "reservedAddress": "0xa50fa5f4105c90ed458cd00382b36dad54643e46",
      "assetIds": [
        "55464657044963196816950587289035428064568320970692304673817341489687505668096"
      ],
      "assetValues": [
        1
      ]
    },
    {
      "reservedAddress": "0xa53fe221bd861f75907d8fd496db1c70779721aa",
      "assetIds": [
        "55464657044963196816950587289035428064568320970692304673817341489687505668096"
      ],
      "assetValues": [
        1
      ]
    },
    {
      "reservedAddress": "0xa54e005e6dc621076704f7e744ddfc635445f93e",
      "assetIds": [
        "55464657044963196816950587289035428064568320970692304673817341489687505668096"
      ],
      "assetValues": [
        1
      ]
    },
    {
      "reservedAddress": "0xa55857bac7c7d485713b26325d79f580c5be6377",
      "assetIds": [
        "55464657044963196816950587289035428064568320970692304673817341489687505668096"
      ],
      "assetValues": [
        1
      ]
    },
    {
      "reservedAddress": "0xa5626ef329769866f95e7e0dc05ee11e102dc700",
      "assetIds": [
        "55464657044963196816950587289035428064568320970692304673817341489687505668096"
      ],
      "assetValues": [
        1
      ]
    },
    {
      "reservedAddress": "0xa56bb18f0e0a5b09a0e9f635891b13562a530e3d",
      "assetIds": [
        "55464657044963196816950587289035428064568320970692304673817341489687505668096"
      ],
      "assetValues": [
        1
      ]
    },
    {
      "reservedAddress": "0xa56bdf538e7b59aeb4ea216a47d78314b5f4f307",
      "assetIds": [
        "55464657044963196816950587289035428064568320970692304673817341489687505668096"
      ],
      "assetValues": [
        1
      ]
    },
    {
      "reservedAddress": "0xa577edbd1413f070733602d2baf78a4861c5d8d0",
      "assetIds": [
        "55464657044963196816950587289035428064568320970692304673817341489687505668096"
      ],
      "assetValues": [
        1
      ]
    },
    {
      "reservedAddress": "0xa59a77ad66f1a7ee5b1255a0de46b5e41c317d6d",
      "assetIds": [
        "55464657044963196816950587289035428064568320970692304673817341489687505668096"
      ],
      "assetValues": [
        1
      ]
    },
    {
      "reservedAddress": "0xa5a0b7c3dd5dddbfbd51e56b9170bb6d1253788b",
      "assetIds": [
        "55464657044963196816950587289035428064568320970692304673817341489687505668096"
      ],
      "assetValues": [
        1
      ]
    },
    {
      "reservedAddress": "0xa5be2382a421dba80540ab2999e003edc546f98e",
      "assetIds": [
        "55464657044963196816950587289035428064568320970692304673817341489687505668096"
      ],
      "assetValues": [
        1
      ]
    },
    {
      "reservedAddress": "0xa5bf874599c9e8be6233e50d3ea3e7826315b0d0",
      "assetIds": [
        "55464657044963196816950587289035428064568320970692304673817341489687505668096"
      ],
      "assetValues": [
        1
      ]
    },
    {
      "reservedAddress": "0xa5cb0648383b871de9d8c8a2f31bb985ec160187",
      "assetIds": [
        "55464657044963196816950587289035428064568320970692304673817341489687505668096"
      ],
      "assetValues": [
        1
      ]
    },
    {
      "reservedAddress": "0xa635a54b4305d786db7a2cb3a1c8bc90bb15123e",
      "assetIds": [
        "55464657044963196816950587289035428064568320970692304673817341489687505668096"
      ],
      "assetValues": [
        1
      ]
    },
    {
      "reservedAddress": "0xa63861ad6266014aa24d1f84d7108e5c090f03db",
      "assetIds": [
        "55464657044963196816950587289035428064568320970692304673817341489687505668096"
      ],
      "assetValues": [
        1
      ]
    },
    {
      "reservedAddress": "0xa63a4f417275fab7371a1c6f2504d8c1d0db8fb1",
      "assetIds": [
        "55464657044963196816950587289035428064568320970692304673817341489687505668096"
      ],
      "assetValues": [
        1
      ]
    },
    {
      "reservedAddress": "0xa6479fee9ac3b9c3241b9adb1187d4ccabea9216",
      "assetIds": [
        "55464657044963196816950587289035428064568320970692304673817341489687505668096"
      ],
      "assetValues": [
        1
      ]
    },
    {
      "reservedAddress": "0xa655c36eba808148497aed8bacd1c8cf6c59335c",
      "assetIds": [
        "55464657044963196816950587289035428064568320970692304673817341489687505668096"
      ],
      "assetValues": [
        1
      ]
    },
    {
      "reservedAddress": "0xa65774cef162f89c7df06f4d45fe9eed71e7cb63",
      "assetIds": [
        "55464657044963196816950587289035428064568320970692304673817341489687505668096"
      ],
      "assetValues": [
        1
      ]
    },
    {
      "reservedAddress": "0xa65e7063f9f527ce14cde8836cf038067117d224",
      "assetIds": [
        "55464657044963196816950587289035428064568320970692304673817341489687505668096"
      ],
      "assetValues": [
        1
      ]
    },
    {
      "reservedAddress": "0xa66a5bd3d2dfb3d3b098bc6319d3f88d0d2fe4d7",
      "assetIds": [
        "55464657044963196816950587289035428064568320970692304673817341489687505668096"
      ],
      "assetValues": [
        1
      ]
    },
    {
      "reservedAddress": "0xa69c20abc059c3104030aa8cf2da5396b6fd2528",
      "assetIds": [
        "55464657044963196816950587289035428064568320970692304673817341489687505668096"
      ],
      "assetValues": [
        1
      ]
    },
    {
      "reservedAddress": "0xa69e99be943076728a66f8d4e649e6551d12e42f",
      "assetIds": [
        "55464657044963196816950587289035428064568320970692304673817341489687505668096"
      ],
      "assetValues": [
        1
      ]
    },
    {
      "reservedAddress": "0xa6afd7cb265b0bbae062711f0b4853bd30487c31",
      "assetIds": [
        "55464657044963196816950587289035428064568320970692304673817341489687505668096"
      ],
      "assetValues": [
        1
      ]
    },
    {
      "reservedAddress": "0xa6b6fb6a424f4d107fbdd6f3bca610b568ccb2ea",
      "assetIds": [
        "55464657044963196816950587289035428064568320970692304673817341489687505668096"
      ],
      "assetValues": [
        1
      ]
    },
    {
      "reservedAddress": "0xa6deedd348161860eeeb8985a6acc299b6d83534",
      "assetIds": [
        "55464657044963196816950587289035428064568320970692304673817341489687505668096"
      ],
      "assetValues": [
        1
      ]
    },
    {
      "reservedAddress": "0xa6e9a7aac339a4c71a50a94a399087c8d0d0d5bc",
      "assetIds": [
        "55464657044963196816950587289035428064568320970692304673817341489687505668096"
      ],
      "assetValues": [
        1
      ]
    },
    {
      "reservedAddress": "0xa702e9bf8596f0110a071745cc704a638625c938",
      "assetIds": [
        "55464657044963196816950587289035428064568320970692304673817341489687505668096"
      ],
      "assetValues": [
        1
      ]
    },
    {
      "reservedAddress": "0xa729d76abec9e6170b7642f7fadc617d3b1fa5c0",
      "assetIds": [
        "55464657044963196816950587289035428064568320970692304673817341489687505668096"
      ],
      "assetValues": [
        1
      ]
    },
    {
      "reservedAddress": "0xa752912e1610c4655e77c9a1317fedfd9e6151fc",
      "assetIds": [
        "55464657044963196816950587289035428064568320970692304673817341489687505668096"
      ],
      "assetValues": [
        1
      ]
    },
    {
      "reservedAddress": "0xa752caf7592062ad2a162cbe437a5e7955f595ca",
      "assetIds": [
        "55464657044963196816950587289035428064568320970692304673817341489687505668096"
      ],
      "assetValues": [
        1
      ]
    },
    {
      "reservedAddress": "0xa76b3059fa1e75d40c6a06318c8680e1b5cf0251",
      "assetIds": [
        "55464657044963196816950587289035428064568320970692304673817341489687505668096"
      ],
      "assetValues": [
        1
      ]
    },
    {
      "reservedAddress": "0xa77f750ad214ea6705c972de9da1ca30b47fb03a",
      "assetIds": [
        "55464657044963196816950587289035428064568320970692304673817341489687505668096"
      ],
      "assetValues": [
        1
      ]
    },
    {
      "reservedAddress": "0xa796e1163b8deebf4b1b97181ee629bdd6f26f82",
      "assetIds": [
        "55464657044963196816950587289035428064568320970692304673817341489687505668096"
      ],
      "assetValues": [
        1
      ]
    },
    {
      "reservedAddress": "0xa7a68eab075ef7cf1cfe7394c3044f9514fe0bef",
      "assetIds": [
        "55464657044963196816950587289035428064568320970692304673817341489687505668096"
      ],
      "assetValues": [
        1
      ]
    },
    {
      "reservedAddress": "0xa7b33cd26f27f1c6b709db5cae442e42387ba69a",
      "assetIds": [
        "55464657044963196816950587289035428064568320970692304673817341489687505668096"
      ],
      "assetValues": [
        1
      ]
    },
    {
      "reservedAddress": "0xa7c4bb4ee927f41bc00cccf7e0ba5f83734c5c28",
      "assetIds": [
        "55464657044963196816950587289035428064568320970692304673817341489687505668096"
      ],
      "assetValues": [
        1
      ]
    },
    {
      "reservedAddress": "0xa7c7171f3e0392e297ad7dc2b85777f09528e7c7",
      "assetIds": [
        "55464657044963196816950587289035428064568320970692304673817341489687505668096"
      ],
      "assetValues": [
        1
      ]
    },
    {
      "reservedAddress": "0xa7dc3916079f53d9902d2538ae5b817a78fc0111",
      "assetIds": [
        "55464657044963196816950587289035428064568320970692304673817341489687505668096"
      ],
      "assetValues": [
        1
      ]
    },
    {
      "reservedAddress": "0xa7dfb2c03fb467bf57f8ad6bb5addd403c4a7ca8",
      "assetIds": [
        "55464657044963196816950587289035428064568320970692304673817341489687505668096"
      ],
      "assetValues": [
        1
      ]
    },
    {
      "reservedAddress": "0xa81b8d7774c1ea59559f426fcc7c9ff112b616ee",
      "assetIds": [
        "55464657044963196816950587289035428064568320970692304673817341489687505668096"
      ],
      "assetValues": [
        1
      ]
    },
    {
      "reservedAddress": "0xa8639fd740da768b44e6de6a3a9c27a062e27c4e",
      "assetIds": [
        "55464657044963196816950587289035428064568320970692304673817341489687505668096"
      ],
      "assetValues": [
        1
      ]
    },
    {
      "reservedAddress": "0xa891183826af953fbc321aae437889544324aa2a",
      "assetIds": [
        "55464657044963196816950587289035428064568320970692304673817341489687505668096"
      ],
      "assetValues": [
        1
      ]
    },
    {
      "reservedAddress": "0xa8a2c85edfbf96a1451e474754b8a80611b6c6d4",
      "assetIds": [
        "55464657044963196816950587289035428064568320970692304673817341489687505668096"
      ],
      "assetValues": [
        1
      ]
    },
    {
      "reservedAddress": "0xa8a73b87d653ecdb5eb974e80014f84bdb5dbe6c",
      "assetIds": [
        "55464657044963196816950587289035428064568320970692304673817341489687505668096"
      ],
      "assetValues": [
        1
      ]
    },
    {
      "reservedAddress": "0xa8d26d64c6cfa6417e81b069622e34bf061acbce",
      "assetIds": [
        "55464657044963196816950587289035428064568320970692304673817341489687505668096"
      ],
      "assetValues": [
        1
      ]
    },
    {
      "reservedAddress": "0xa8d83c6a5e37fde3a33372fa8d1c5eea2f09392a",
      "assetIds": [
        "55464657044963196816950587289035428064568320970692304673817341489687505668096"
      ],
      "assetValues": [
        1
      ]
    },
    {
      "reservedAddress": "0xa8e376248fb85dd9680fdbeecc3ec72e20c37cac",
      "assetIds": [
        "55464657044963196816950587289035428064568320970692304673817341489687505668096"
      ],
      "assetValues": [
        1
      ]
    },
    {
      "reservedAddress": "0xa8ec210100fa9b5028bf55221c2e60ddfa739a23",
      "assetIds": [
        "55464657044963196816950587289035428064568320970692304673817341489687505668096"
      ],
      "assetValues": [
        1
      ]
    },
    {
      "reservedAddress": "0xa8f4be1896539ce66952814de19dc23fe78f55fd",
      "assetIds": [
        "55464657044963196816950587289035428064568320970692304673817341489687505668096"
      ],
      "assetValues": [
        1
      ]
    },
    {
      "reservedAddress": "0xa8ff910bf1d8972cea6f046e152c302e0b0045df",
      "assetIds": [
        "55464657044963196816950587289035428064568320970692304673817341489687505668096"
      ],
      "assetValues": [
        1
      ]
    },
    {
      "reservedAddress": "0xa90b69e5fe78b2c8607e5a3d66598496fd34d244",
      "assetIds": [
        "55464657044963196816950587289035428064568320970692304673817341489687505668096"
      ],
      "assetValues": [
        1
      ]
    },
    {
      "reservedAddress": "0xa9105c17d188080fa0c56fd982d69c28f280176d",
      "assetIds": [
        "55464657044963196816950587289035428064568320970692304673817341489687505668096"
      ],
      "assetValues": [
        1
      ]
    },
    {
      "reservedAddress": "0xa9168f5b2174c0dfc0e8cee4f1cadcd9cfb10fe5",
      "assetIds": [
        "55464657044963196816950587289035428064568320970692304673817341489687505668096"
      ],
      "assetValues": [
        1
      ]
    },
    {
      "reservedAddress": "0xa9196e531ae237b3edfe0b10299932cfd5dd494b",
      "assetIds": [
        "55464657044963196816950587289035428064568320970692304673817341489687505668096"
      ],
      "assetValues": [
        1
      ]
    },
    {
      "reservedAddress": "0xa9276b295eae7539ba55e46abab9620ee65486b4",
      "assetIds": [
        "55464657044963196816950587289035428064568320970692304673817341489687505668096"
      ],
      "assetValues": [
        1
      ]
    },
    {
      "reservedAddress": "0xa9282d01ff03359700a265548cc10f1250239873",
      "assetIds": [
        "55464657044963196816950587289035428064568320970692304673817341489687505668096"
      ],
      "assetValues": [
        1
      ]
    },
    {
      "reservedAddress": "0xa93ee2d5ac5b802b9a8dbbc4db2cb3a772e89c7c",
      "assetIds": [
        "55464657044963196816950587289035428064568320970692304673817341489687505668096"
      ],
      "assetValues": [
        1
      ]
    },
    {
      "reservedAddress": "0xa949a61982fcfec3189bdb824e6d436817e001c2",
      "assetIds": [
        "55464657044963196816950587289035428064568320970692304673817341489687505668096"
      ],
      "assetValues": [
        1
      ]
    },
    {
      "reservedAddress": "0xa957e4643539456803f0ca75e456851c5e63701f",
      "assetIds": [
        "55464657044963196816950587289035428064568320970692304673817341489687505668096"
      ],
      "assetValues": [
        1
      ]
    },
    {
      "reservedAddress": "0xa967d8b2d5b623a4b09eaf985a4463fea19b7668",
      "assetIds": [
        "55464657044963196816950587289035428064568320970692304673817341489687505668096"
      ],
      "assetValues": [
        1
      ]
    },
    {
      "reservedAddress": "0xa9e5690369daff5fd8ce1d03f688347a2cd9c13a",
      "assetIds": [
        "55464657044963196816950587289035428064568320970692304673817341489687505668096"
      ],
      "assetValues": [
        1
      ]
    },
    {
      "reservedAddress": "0xa9f153d96fd06fac8b76759f42ea2f6174ce4e0c",
      "assetIds": [
        "55464657044963196816950587289035428064568320970692304673817341489687505668096"
      ],
      "assetValues": [
        1
      ]
    },
    {
      "reservedAddress": "0xaa183f379fb51c6ebcbce9331cb319f2e9da7350",
      "assetIds": [
        "55464657044963196816950587289035428064568320970692304673817341489687505668096"
      ],
      "assetValues": [
        1
      ]
    },
    {
      "reservedAddress": "0xaa3f52a79a477c2cc3618937a9a9b9fabd717cee",
      "assetIds": [
        "55464657044963196816950587289035428064568320970692304673817341489687505668096"
      ],
      "assetValues": [
        1
      ]
    },
    {
      "reservedAddress": "0xaa73a811a4898ca0e116376be752b3960d554021",
      "assetIds": [
        "55464657044963196816950587289035428064568320970692304673817341489687505668096"
      ],
      "assetValues": [
        1
      ]
    },
    {
      "reservedAddress": "0xaa8ef8cd6e63e7ec3ed2bce042090b0269771119",
      "assetIds": [
        "55464657044963196816950587289035428064568320970692304673817341489687505668096"
      ],
      "assetValues": [
        1
      ]
    },
    {
      "reservedAddress": "0xaa98da35f4b428030b1acbc6ea2b878f832a26de",
      "assetIds": [
        "55464657044963196816950587289035428064568320970692304673817341489687505668096"
      ],
      "assetValues": [
        1
      ]
    },
    {
      "reservedAddress": "0xaa9c00f679f5cb261af0606473efd9902324a5fd",
      "assetIds": [
        "55464657044963196816950587289035428064568320970692304673817341489687505668096"
      ],
      "assetValues": [
        1
      ]
    },
    {
      "reservedAddress": "0xaab961e1cde0eaea28be759cf120122cacc64ed5",
      "assetIds": [
        "55464657044963196816950587289035428064568320970692304673817341489687505668096"
      ],
      "assetValues": [
        1
      ]
    },
    {
      "reservedAddress": "0xaad566772812a743e7693a563827856536678c7e",
      "assetIds": [
        "55464657044963196816950587289035428064568320970692304673817341489687505668096"
      ],
      "assetValues": [
        1
      ]
    },
    {
      "reservedAddress": "0xaaf0eb7d49cddbb8d6d516689b9427cf69239c9f",
      "assetIds": [
        "55464657044963196816950587289035428064568320970692304673817341489687505668096"
      ],
      "assetValues": [
        1
      ]
    },
    {
      "reservedAddress": "0xab292a0b800865af489fab8eb55306e3df83575f",
      "assetIds": [
        "55464657044963196816950587289035428064568320970692304673817341489687505668096"
      ],
      "assetValues": [
        1
      ]
    },
    {
      "reservedAddress": "0xab3aab7481b1280830721ba0fb50bd05f41b37a1",
      "assetIds": [
        "55464657044963196816950587289035428064568320970692304673817341489687505668096"
      ],
      "assetValues": [
        1
      ]
    },
    {
      "reservedAddress": "0xab7ed206408a5e179407b27f5a6541b1d94d71ef",
      "assetIds": [
        "55464657044963196816950587289035428064568320970692304673817341489687505668096"
      ],
      "assetValues": [
        1
      ]
    },
    {
      "reservedAddress": "0xab98e6106d522665f44ac8a4666e65888861b90b",
      "assetIds": [
        "55464657044963196816950587289035428064568320970692304673817341489687505668096"
      ],
      "assetValues": [
        1
      ]
    },
    {
      "reservedAddress": "0xaba69a1b23f9099bb69c2f8fe93f93b05e7b9195",
      "assetIds": [
        "55464657044963196816950587289035428064568320970692304673817341489687505668096"
      ],
      "assetValues": [
        1
      ]
    },
    {
      "reservedAddress": "0xabbc850b919c09066c1becd961d536c4a394b031",
      "assetIds": [
        "55464657044963196816950587289035428064568320970692304673817341489687505668096"
      ],
      "assetValues": [
        1
      ]
    },
    {
      "reservedAddress": "0xabdf20d8b2448d56936b5be4b778c0a7e2fe0f2a",
      "assetIds": [
        "55464657044963196816950587289035428064568320970692304673817341489687505668096"
      ],
      "assetValues": [
        1
      ]
    },
    {
      "reservedAddress": "0xabe99db1f112370589d10c2960e57853b24da1a2",
      "assetIds": [
        "55464657044963196816950587289035428064568320970692304673817341489687505668096"
      ],
      "assetValues": [
        1
      ]
    },
    {
      "reservedAddress": "0xabf1232b33afcfe96d13cafe5ec8f683b13327ab",
      "assetIds": [
        "55464657044963196816950587289035428064568320970692304673817341489687505668096"
      ],
      "assetValues": [
        1
      ]
    },
    {
      "reservedAddress": "0xabf74ad1d57a787cdc2506616733a34933ac9f84",
      "assetIds": [
        "55464657044963196816950587289035428064568320970692304673817341489687505668096"
      ],
      "assetValues": [
        1
      ]
    },
    {
      "reservedAddress": "0xabfbe8b01750ecbbc949092d399742530fea4d70",
      "assetIds": [
        "55464657044963196816950587289035428064568320970692304673817341489687505668096"
      ],
      "assetValues": [
        1
      ]
    },
    {
      "reservedAddress": "0xac02ac67c8243650d820f4424e96da3db0476994",
      "assetIds": [
        "55464657044963196816950587289035428064568320970692304673817341489687505668096"
      ],
      "assetValues": [
        1
      ]
    },
    {
      "reservedAddress": "0xac069b79bafec5ba433f7fdd976dfd3e8bf970ac",
      "assetIds": [
        "55464657044963196816950587289035428064568320970692304673817341489687505668096"
      ],
      "assetValues": [
        1
      ]
    },
    {
      "reservedAddress": "0xac0acabcb584657b2a02edac6cd639eaba3dfbb4",
      "assetIds": [
        "55464657044963196816950587289035428064568320970692304673817341489687505668096"
      ],
      "assetValues": [
        1
      ]
    },
    {
      "reservedAddress": "0xac1c5131f0a85eafaa637a1ab342ed8e7771212d",
      "assetIds": [
        "55464657044963196816950587289035428064568320970692304673817341489687505668096"
      ],
      "assetValues": [
        1
      ]
    },
    {
      "reservedAddress": "0xac1e4f6b5d1ed1df3694fc6bf27a8f05bc46f4f1",
      "assetIds": [
        "55464657044963196816950587289035428064568320970692304673817341489687505668096"
      ],
      "assetValues": [
        1
      ]
    },
    {
      "reservedAddress": "0xac6dde31b81fb199ebffab674de7cb8a50023771",
      "assetIds": [
        "55464657044963196816950587289035428064568320970692304673817341489687505668096"
      ],
      "assetValues": [
        1
      ]
    },
    {
      "reservedAddress": "0xac8555fbf108e431e4c2a0ba7b0e65ccb20f37e5",
      "assetIds": [
        "55464657044963196816950587289035428064568320970692304673817341489687505668096"
      ],
      "assetValues": [
        1
      ]
    },
    {
      "reservedAddress": "0xaca056daaa8241843a2d90057272024e9583de93",
      "assetIds": [
        "55464657044963196816950587289035428064568320970692304673817341489687505668096"
      ],
      "assetValues": [
        1
      ]
    },
    {
      "reservedAddress": "0xacad92fe0f90820b3300f64436be3cbd5d2af725",
      "assetIds": [
        "55464657044963196816950587289035428064568320970692304673817341489687505668096"
      ],
      "assetValues": [
        1
      ]
    },
    {
      "reservedAddress": "0xacad9f0c8508024e13aa8065b4ae17391e0a43e2",
      "assetIds": [
        "55464657044963196816950587289035428064568320970692304673817341489687505668096"
      ],
      "assetValues": [
        1
      ]
    },
    {
      "reservedAddress": "0xacd2222f84a713ddfadffccfa866a7eae3e25014",
      "assetIds": [
        "55464657044963196816950587289035428064568320970692304673817341489687505668096"
      ],
      "assetValues": [
        1
      ]
    },
    {
      "reservedAddress": "0xacd55ef1b18daec06fa87c180cfe5de3dea3f04e",
      "assetIds": [
        "55464657044963196816950587289035428064568320970692304673817341489687505668096"
      ],
      "assetValues": [
        1
      ]
    },
    {
      "reservedAddress": "0xacf02aea68b1beb03705576703ba09ef1bb4a103",
      "assetIds": [
        "55464657044963196816950587289035428064568320970692304673817341489687505668096"
      ],
      "assetValues": [
        1
      ]
    },
    {
      "reservedAddress": "0xad13070c345d5b8243c8b7acd08322ee9f0db27f",
      "assetIds": [
        "55464657044963196816950587289035428064568320970692304673817341489687505668096"
      ],
      "assetValues": [
        1
      ]
    },
    {
      "reservedAddress": "0xad23a710e555594b74a81126e21f86cab4c70099",
      "assetIds": [
        "55464657044963196816950587289035428064568320970692304673817341489687505668096"
      ],
      "assetValues": [
        1
      ]
    },
    {
      "reservedAddress": "0xad38dd1ae27c09e4d394d5a10cfab999da7a30c3",
      "assetIds": [
        "55464657044963196816950587289035428064568320970692304673817341489687505668096"
      ],
      "assetValues": [
        1
      ]
    },
    {
      "reservedAddress": "0xad5930533b4636530512a15d94b78f2e6cadaa2a",
      "assetIds": [
        "55464657044963196816950587289035428064568320970692304673817341489687505668096"
      ],
      "assetValues": [
        1
      ]
    },
    {
      "reservedAddress": "0xad5ff5d231287e0b477f2a2d95f8f90d699f9f36",
      "assetIds": [
        "55464657044963196816950587289035428064568320970692304673817341489687505668096"
      ],
      "assetValues": [
        1
      ]
    },
    {
      "reservedAddress": "0xad6034c145530682ed7643478b6678e2e2bbaad6",
      "assetIds": [
        "55464657044963196816950587289035428064568320970692304673817341489687505668096"
      ],
      "assetValues": [
        1
      ]
    },
    {
      "reservedAddress": "0xad7e768df5a3e0724188866b229dc4eab82289b8",
      "assetIds": [
        "55464657044963196816950587289035428064568320970692304673817341489687505668096"
      ],
      "assetValues": [
        1
      ]
    },
    {
      "reservedAddress": "0xad95618e1023e490961842bc0580a826b0e78b48",
      "assetIds": [
        "55464657044963196816950587289035428064568320970692304673817341489687505668096"
      ],
      "assetValues": [
        1
      ]
    },
    {
      "reservedAddress": "0xadbf145993b6a3b00663b24a8dad3fd97e8114ae",
      "assetIds": [
        "55464657044963196816950587289035428064568320970692304673817341489687505668096"
      ],
      "assetValues": [
        1
      ]
    },
    {
      "reservedAddress": "0xadcb9638ef6bb85fe91b33ab33a6143248a2f2a5",
      "assetIds": [
        "55464657044963196816950587289035428064568320970692304673817341489687505668096"
      ],
      "assetValues": [
        1
      ]
    },
    {
      "reservedAddress": "0xaddc037b7cee4dac17a43d1db63f9f42e0b36ffc",
      "assetIds": [
        "55464657044963196816950587289035428064568320970692304673817341489687505668096"
      ],
      "assetValues": [
        1
      ]
    },
    {
      "reservedAddress": "0xaddc3f42da1863e3478a6006ae0e45a8ce749f17",
      "assetIds": [
        "55464657044963196816950587289035428064568320970692304673817341489687505668096"
      ],
      "assetValues": [
        1
      ]
    },
    {
      "reservedAddress": "0xade7dfbc532a01db67bfea3b728d4ea22869f381",
      "assetIds": [
        "55464657044963196816950587289035428064568320970692304673817341489687505668096"
      ],
      "assetValues": [
        1
      ]
    },
    {
      "reservedAddress": "0xae1b2f016364f20542287e96292b55539d5ea4c5",
      "assetIds": [
        "55464657044963196816950587289035428064568320970692304673817341489687505668096"
      ],
      "assetValues": [
        1
      ]
    },
    {
      "reservedAddress": "0xae2d581acbafc721f9591c106df362cf4b276f25",
      "assetIds": [
        "55464657044963196816950587289035428064568320970692304673817341489687505668096"
      ],
      "assetValues": [
        1
      ]
    },
    {
      "reservedAddress": "0xae50f24d3a514f24b4f9c9f9ae91ebc95a4df230",
      "assetIds": [
        "55464657044963196816950587289035428064568320970692304673817341489687505668096"
      ],
      "assetValues": [
        1
      ]
    },
    {
      "reservedAddress": "0xae5eca2176e3418fb5c871dd3f7e5c7cd07be812",
      "assetIds": [
        "55464657044963196816950587289035428064568320970692304673817341489687505668096"
      ],
      "assetValues": [
        1
      ]
    },
    {
      "reservedAddress": "0xaebabeab21526b38d7028c1baf0106807dada64a",
      "assetIds": [
        "55464657044963196816950587289035428064568320970692304673817341489687505668096"
      ],
      "assetValues": [
        1
      ]
    },
    {
      "reservedAddress": "0xaecd65c437d16db9b0ffc0b1d1f1d3502cd00653",
      "assetIds": [
        "55464657044963196816950587289035428064568320970692304673817341489687505668096"
      ],
      "assetValues": [
        1
      ]
    },
    {
      "reservedAddress": "0xaed13919309f45b9cf1eae7c97f4bb12dbb4f5ff",
      "assetIds": [
        "55464657044963196816950587289035428064568320970692304673817341489687505668096"
      ],
      "assetValues": [
        1
      ]
    },
    {
      "reservedAddress": "0xaf3f4643df1ea4d43ec0cdae693023c2b37001f3",
      "assetIds": [
        "55464657044963196816950587289035428064568320970692304673817341489687505668096"
      ],
      "assetValues": [
        1
      ]
    },
    {
      "reservedAddress": "0xaf5a1dbcc1ca4752a41524fc036ac23f3b5d6f5d",
      "assetIds": [
        "55464657044963196816950587289035428064568320970692304673817341489687505668096"
      ],
      "assetValues": [
        1
      ]
    },
    {
      "reservedAddress": "0xaf5b28b947ee8f7729fb7534cb34970cf8666660",
      "assetIds": [
        "55464657044963196816950587289035428064568320970692304673817341489687505668096"
      ],
      "assetValues": [
        1
      ]
    },
    {
      "reservedAddress": "0xaf5bdcfedad85f50eed8e9d3af0d24455b7c3d2e",
      "assetIds": [
        "55464657044963196816950587289035428064568320970692304673817341489687505668096"
      ],
      "assetValues": [
        1
      ]
    },
    {
      "reservedAddress": "0xaf669f10343a5a47f0972bbe1069ef774f1f6252",
      "assetIds": [
        "55464657044963196816950587289035428064568320970692304673817341489687505668096"
      ],
      "assetValues": [
        1
      ]
    },
    {
      "reservedAddress": "0xaf7245945fd8fea33bbe0dcb39bfc347e8c1e02f",
      "assetIds": [
        "55464657044963196816950587289035428064568320970692304673817341489687505668096"
      ],
      "assetValues": [
        1
      ]
    },
    {
      "reservedAddress": "0xaf97e3051287d0d76d65243941f5d93ef63e845e",
      "assetIds": [
        "55464657044963196816950587289035428064568320970692304673817341489687505668096"
      ],
      "assetValues": [
        1
      ]
    },
    {
      "reservedAddress": "0xafe41a04280f87bb74e99999ebdf16dcfee09f01",
      "assetIds": [
        "55464657044963196816950587289035428064568320970692304673817341489687505668096"
      ],
      "assetValues": [
        1
      ]
    },
    {
      "reservedAddress": "0xaff4a71467d7ea6843c097deac5a059c887b3c66",
      "assetIds": [
        "55464657044963196816950587289035428064568320970692304673817341489687505668096"
      ],
      "assetValues": [
        1
      ]
    },
    {
      "reservedAddress": "0xb02ae35b71fb0e4d963d8dd99077a2b4a53795a5",
      "assetIds": [
        "55464657044963196816950587289035428064568320970692304673817341489687505668096"
      ],
      "assetValues": [
        1
      ]
    },
    {
      "reservedAddress": "0xb04192b6cd37f2bb9a5f7086d55dc5b34074cbf0",
      "assetIds": [
        "55464657044963196816950587289035428064568320970692304673817341489687505668096"
      ],
      "assetValues": [
        1
      ]
    },
    {
      "reservedAddress": "0xb094d37fffb59f8c7fa784cf37b62fa75998006e",
      "assetIds": [
        "55464657044963196816950587289035428064568320970692304673817341489687505668096"
      ],
      "assetValues": [
        1
      ]
    },
    {
      "reservedAddress": "0xb0969bd7ed6c06263b2a419aacbeff228e42433a",
      "assetIds": [
        "55464657044963196816950587289035428064568320970692304673817341489687505668096"
      ],
      "assetValues": [
        1
      ]
    },
    {
      "reservedAddress": "0xb09f93d7aa0d0e8cbec2f36cbdcba2d7853f0fae",
      "assetIds": [
        "55464657044963196816950587289035428064568320970692304673817341489687505668096"
      ],
      "assetValues": [
        1
      ]
    },
    {
      "reservedAddress": "0xb0c304a931a6dad55e9a95a509a0e98405ea06a2",
      "assetIds": [
        "55464657044963196816950587289035428064568320970692304673817341489687505668096"
      ],
      "assetValues": [
        1
      ]
    },
    {
      "reservedAddress": "0xb1665d27e35c8f35954ee25a0b3e2e951e1470d7",
      "assetIds": [
        "55464657044963196816950587289035428064568320970692304673817341489687505668096"
      ],
      "assetValues": [
        1
      ]
    },
    {
      "reservedAddress": "0xb192e9c2d7d5e61784863cc103db380cd4a9ce69",
      "assetIds": [
        "55464657044963196816950587289035428064568320970692304673817341489687505668096"
      ],
      "assetValues": [
        1
      ]
    },
    {
      "reservedAddress": "0xb1a9adf97efd976492d768ddba9235c9c23db321",
      "assetIds": [
        "55464657044963196816950587289035428064568320970692304673817341489687505668096"
      ],
      "assetValues": [
        1
      ]
    },
    {
      "reservedAddress": "0xb1a9ba8e52c988d246c1156db52b1e3cedf0bde8",
      "assetIds": [
        "55464657044963196816950587289035428064568320970692304673817341489687505668096"
      ],
      "assetValues": [
        1
      ]
    },
    {
      "reservedAddress": "0xb1b36cf738036acb70efa6db78daece2f0c2f7e5",
      "assetIds": [
        "55464657044963196816950587289035428064568320970692304673817341489687505668096"
      ],
      "assetValues": [
        1
      ]
    },
    {
      "reservedAddress": "0xb1dd78e89c37c85ba76c5339e4324dda1f9d55f1",
      "assetIds": [
        "55464657044963196816950587289035428064568320970692304673817341489687505668096"
      ],
      "assetValues": [
        1
      ]
    },
    {
      "reservedAddress": "0xb1ef7441fdee4ce790e421511b0cae1604683637",
      "assetIds": [
        "55464657044963196816950587289035428064568320970692304673817341489687505668096"
      ],
      "assetValues": [
        1
      ]
    },
    {
      "reservedAddress": "0xb1f1607ea2d7006e817b25115eb74df75ec3d48d",
      "assetIds": [
        "55464657044963196816950587289035428064568320970692304673817341489687505668096"
      ],
      "assetValues": [
        1
      ]
    },
    {
      "reservedAddress": "0xb202c8c35d2011e6aae6879533c9eaf2d18f8336",
      "assetIds": [
        "55464657044963196816950587289035428064568320970692304673817341489687505668096"
      ],
      "assetValues": [
        1
      ]
    },
    {
      "reservedAddress": "0xb215cfebb90d91b1d2f499843800d3105b1366fc",
      "assetIds": [
        "55464657044963196816950587289035428064568320970692304673817341489687505668096"
      ],
      "assetValues": [
        1
      ]
    },
    {
      "reservedAddress": "0xb225096acfe47777f1d5dd88c6e280bee7c4c408",
      "assetIds": [
        "55464657044963196816950587289035428064568320970692304673817341489687505668096"
      ],
      "assetValues": [
        1
      ]
    },
    {
      "reservedAddress": "0xb2299149cdd796ab78415e80e99269e3d23d9b89",
      "assetIds": [
        "55464657044963196816950587289035428064568320970692304673817341489687505668096"
      ],
      "assetValues": [
        1
      ]
    },
    {
      "reservedAddress": "0xb23771e9d28fbd85e3bb4ca0f3012c52913eea55",
      "assetIds": [
        "55464657044963196816950587289035428064568320970692304673817341489687505668096"
      ],
      "assetValues": [
        1
      ]
    },
    {
      "reservedAddress": "0xb237a8f404ff6d50af0e989c769aec2020c35b1e",
      "assetIds": [
        "55464657044963196816950587289035428064568320970692304673817341489687505668096"
      ],
      "assetValues": [
        1
      ]
    },
    {
      "reservedAddress": "0xb23e54450c9c2e415a15ff6fb12eedef1eac5807",
      "assetIds": [
        "55464657044963196816950587289035428064568320970692304673817341489687505668096"
      ],
      "assetValues": [
        1
      ]
    },
    {
      "reservedAddress": "0xb24661b252570fb8d8248c8ad2278a934d30434c",
      "assetIds": [
        "55464657044963196816950587289035428064568320970692304673817341489687505668096"
      ],
      "assetValues": [
        1
      ]
    },
    {
      "reservedAddress": "0xb278ada59e7af95a0c3de7699d8946b853f1e38a",
      "assetIds": [
        "55464657044963196816950587289035428064568320970692304673817341489687505668096"
      ],
      "assetValues": [
        1
      ]
    },
    {
      "reservedAddress": "0xb294ce56b0b12d0f32d61dca52bd39dae74e1156",
      "assetIds": [
        "55464657044963196816950587289035428064568320970692304673817341489687505668096"
      ],
      "assetValues": [
        1
      ]
    },
    {
      "reservedAddress": "0xb2af293dce3a403191a522ce16ac4edd92fa2be4",
      "assetIds": [
        "55464657044963196816950587289035428064568320970692304673817341489687505668096"
      ],
      "assetValues": [
        1
      ]
    },
    {
      "reservedAddress": "0xb2ed0ae7c335482ae8b50f61d1dcfc1882233bfa",
      "assetIds": [
        "55464657044963196816950587289035428064568320970692304673817341489687505668096"
      ],
      "assetValues": [
        1
      ]
    },
    {
      "reservedAddress": "0xb2f1dea29c43cf9534324312cfd8ad5fa5e468cc",
      "assetIds": [
        "55464657044963196816950587289035428064568320970692304673817341489687505668096"
      ],
      "assetValues": [
        1
      ]
    },
    {
      "reservedAddress": "0xb312ff1e27202bef6f60d85c0c718dca7e270af6",
      "assetIds": [
        "55464657044963196816950587289035428064568320970692304673817341489687505668096"
      ],
      "assetValues": [
        1
      ]
    },
    {
      "reservedAddress": "0xb332f2ba08aa09372e21b5c3df5de4d5345a91a0",
      "assetIds": [
        "55464657044963196816950587289035428064568320970692304673817341489687505668096"
      ],
      "assetValues": [
        1
      ]
    },
    {
      "reservedAddress": "0xb338867bda37adf171b60a9aa59d924ac5548507",
      "assetIds": [
        "55464657044963196816950587289035428064568320970692304673817341489687505668096"
      ],
      "assetValues": [
        1
      ]
    },
    {
      "reservedAddress": "0xb33ab7c8076cc478c617e263963d6440514a2192",
      "assetIds": [
        "55464657044963196816950587289035428064568320970692304673817341489687505668096"
      ],
      "assetValues": [
        1
      ]
    },
    {
      "reservedAddress": "0xb34a4271906780955f437bb982f1f39685ac7940",
      "assetIds": [
        "55464657044963196816950587289035428064568320970692304673817341489687505668096"
      ],
      "assetValues": [
        1
      ]
    },
    {
      "reservedAddress": "0xb37790f1e62e0f1d0cd8af52970fb41ed8f7eea0",
      "assetIds": [
        "55464657044963196816950587289035428064568320970692304673817341489687505668096"
      ],
      "assetValues": [
        1
      ]
    },
    {
      "reservedAddress": "0xb3aad36446d709e6f07233a493d1ac9cbf9a210b",
      "assetIds": [
        "55464657044963196816950587289035428064568320970692304673817341489687505668096"
      ],
      "assetValues": [
        1
      ]
    },
    {
      "reservedAddress": "0xb3d7e2431a2e21dd9474fd39062568eeb5d1dae7",
      "assetIds": [
        "55464657044963196816950587289035428064568320970692304673817341489687505668096"
      ],
      "assetValues": [
        1
      ]
    },
    {
      "reservedAddress": "0xb3d9034ad62255f3911555c4ad03ac9d7145fb91",
      "assetIds": [
        "55464657044963196816950587289035428064568320970692304673817341489687505668096"
      ],
      "assetValues": [
        1
      ]
    },
    {
      "reservedAddress": "0xb3e2a7b1295d9ee03e1f300dfccaab2ecd47ee53",
      "assetIds": [
        "55464657044963196816950587289035428064568320970692304673817341489687505668096"
      ],
      "assetValues": [
        1
      ]
    },
    {
      "reservedAddress": "0xb3f3847ec98341e5e0790a0d3bcab4409b6665ea",
      "assetIds": [
        "55464657044963196816950587289035428064568320970692304673817341489687505668096"
      ],
      "assetValues": [
        1
      ]
    },
    {
      "reservedAddress": "0xb40bc077571e6cbd7bb3eec7a1e70fbf2a40da13",
      "assetIds": [
        "55464657044963196816950587289035428064568320970692304673817341489687505668096"
      ],
      "assetValues": [
        1
      ]
    },
    {
      "reservedAddress": "0xb41b8908ca21a4e401aaee47bd682311585ff53c",
      "assetIds": [
        "55464657044963196816950587289035428064568320970692304673817341489687505668096"
      ],
      "assetValues": [
        1
      ]
    },
    {
      "reservedAddress": "0xb41b98ff62322a1ab9cbc706fc98208c4ad12e2c",
      "assetIds": [
        "55464657044963196816950587289035428064568320970692304673817341489687505668096"
      ],
      "assetValues": [
        1
      ]
    },
    {
      "reservedAddress": "0xb424704c8b5048c3b8a81f930d98da63e4eaace0",
      "assetIds": [
        "55464657044963196816950587289035428064568320970692304673817341489687505668096"
      ],
      "assetValues": [
        1
      ]
    },
    {
      "reservedAddress": "0xb43332ad3c202b7c78d3320acd0340c5a4bab23f",
      "assetIds": [
        "55464657044963196816950587289035428064568320970692304673817341489687505668096"
      ],
      "assetValues": [
        1
      ]
    },
    {
      "reservedAddress": "0xb439fe77e31cacde56402665c244d9ad6eec47f4",
      "assetIds": [
        "55464657044963196816950587289035428064568320970692304673817341489687505668096"
      ],
      "assetValues": [
        1
      ]
    },
    {
      "reservedAddress": "0xb440d55d052e42e69784b5a6ba250dd15b6afacb",
      "assetIds": [
        "55464657044963196816950587289035428064568320970692304673817341489687505668096"
      ],
      "assetValues": [
        1
      ]
    },
    {
      "reservedAddress": "0xb452647ad3633a4c528f8fbc1fbc9db5cba471fa",
      "assetIds": [
        "55464657044963196816950587289035428064568320970692304673817341489687505668096"
      ],
      "assetValues": [
        1
      ]
    },
    {
      "reservedAddress": "0xb49b78791e4d45b38dabe1315d33a02ce44076f8",
      "assetIds": [
        "55464657044963196816950587289035428064568320970692304673817341489687505668096"
      ],
      "assetValues": [
        1
      ]
    },
    {
      "reservedAddress": "0xb4a93ddeeb9e2d507a6e20a68a4d41688c09aee3",
      "assetIds": [
        "55464657044963196816950587289035428064568320970692304673817341489687505668096"
      ],
      "assetValues": [
        1
      ]
    },
    {
      "reservedAddress": "0xb4a9eb0acbbab501690cb4266162c6dbaed465c0",
      "assetIds": [
        "55464657044963196816950587289035428064568320970692304673817341489687505668096"
      ],
      "assetValues": [
        1
      ]
    },
    {
      "reservedAddress": "0xb4f15e48b355cb3705014337dda4d93e330a7d43",
      "assetIds": [
        "55464657044963196816950587289035428064568320970692304673817341489687505668096"
      ],
      "assetValues": [
        1
      ]
    },
    {
      "reservedAddress": "0xb4f2f0cd5510d23e58c2bf7ca4bcb294e643e57d",
      "assetIds": [
        "55464657044963196816950587289035428064568320970692304673817341489687505668096"
      ],
      "assetValues": [
        1
      ]
    },
    {
      "reservedAddress": "0xb4f378fcb975abdf7b9fb000a23e84510ad574c4",
      "assetIds": [
        "55464657044963196816950587289035428064568320970692304673817341489687505668096"
      ],
      "assetValues": [
        1
      ]
    },
    {
      "reservedAddress": "0xb50477cf2126e94fb92d553d84f04b6e10ba2409",
      "assetIds": [
        "55464657044963196816950587289035428064568320970692304673817341489687505668096"
      ],
      "assetValues": [
        1
      ]
    },
    {
      "reservedAddress": "0xb520e2810b9194d2bd6a26c3a5b70ce524041812",
      "assetIds": [
        "55464657044963196816950587289035428064568320970692304673817341489687505668096"
      ],
      "assetValues": [
        1
      ]
    },
    {
      "reservedAddress": "0xb53f052f717a340147f71fdd9659c2c008b35a52",
      "assetIds": [
        "55464657044963196816950587289035428064568320970692304673817341489687505668096"
      ],
      "assetValues": [
        1
      ]
    },
    {
      "reservedAddress": "0xb54a6c54943fde887192c8dc077f8dae1de9b38f",
      "assetIds": [
        "55464657044963196816950587289035428064568320970692304673817341489687505668096"
      ],
      "assetValues": [
        1
      ]
    },
    {
      "reservedAddress": "0xb54f62c175414004bda3cd2ea7bd142b07aba89d",
      "assetIds": [
        "55464657044963196816950587289035428064568320970692304673817341489687505668096"
      ],
      "assetValues": [
        1
      ]
    },
    {
      "reservedAddress": "0xb55857d709dfab3a66e6d01101119212bf44574c",
      "assetIds": [
        "55464657044963196816950587289035428064568320970692304673817341489687505668096"
      ],
      "assetValues": [
        1
      ]
    },
    {
      "reservedAddress": "0xb56f303f149841dee162d29ba34280af4420323e",
      "assetIds": [
        "55464657044963196816950587289035428064568320970692304673817341489687505668096"
      ],
      "assetValues": [
        1
      ]
    },
    {
      "reservedAddress": "0xb5960421b01b4672f5dc7cc377dff56df44d020b",
      "assetIds": [
        "55464657044963196816950587289035428064568320970692304673817341489687505668096"
      ],
      "assetValues": [
        1
      ]
    },
    {
      "reservedAddress": "0xb5c4c2ef7d243764a6c211cad21870fb4aec6ba3",
      "assetIds": [
        "55464657044963196816950587289035428064568320970692304673817341489687505668096"
      ],
      "assetValues": [
        1
      ]
    },
    {
      "reservedAddress": "0xb5ccc4cebe8293cfc3da4e0299a769c5dd6ad085",
      "assetIds": [
        "55464657044963196816950587289035428064568320970692304673817341489687505668096"
      ],
      "assetValues": [
        1
      ]
    },
    {
      "reservedAddress": "0xb5cde1c5b905892cf0873cc43fddb56c1738888f",
      "assetIds": [
        "55464657044963196816950587289035428064568320970692304673817341489687505668096"
      ],
      "assetValues": [
        1
      ]
    },
    {
      "reservedAddress": "0xb6103b35c1dfcfbc66aa6aa59e5dec376b79dd6a",
      "assetIds": [
        "55464657044963196816950587289035428064568320970692304673817341489687505668096"
      ],
      "assetValues": [
        1
      ]
    },
    {
      "reservedAddress": "0xb6169bda4f040a8dec2f87eb26f83cd326e6b775",
      "assetIds": [
        "55464657044963196816950587289035428064568320970692304673817341489687505668096"
      ],
      "assetValues": [
        1
      ]
    },
    {
      "reservedAddress": "0xb61785f162675df248f43a30e1d30f469b6ab03b",
      "assetIds": [
        "55464657044963196816950587289035428064568320970692304673817341489687505668096"
      ],
      "assetValues": [
        1
      ]
    },
    {
      "reservedAddress": "0xb61a3ff9dd8441d1ed0621a460518338d4c8619c",
      "assetIds": [
        "55464657044963196816950587289035428064568320970692304673817341489687505668096"
      ],
      "assetValues": [
        1
      ]
    },
    {
      "reservedAddress": "0xb61f46f15bc42608b5905a4dc3e75755de9dbfe4",
      "assetIds": [
        "55464657044963196816950587289035428064568320970692304673817341489687505668096"
      ],
      "assetValues": [
        1
      ]
    },
    {
      "reservedAddress": "0xb6503678f55acfde73e30b37dd218845246b10f5",
      "assetIds": [
        "55464657044963196816950587289035428064568320970692304673817341489687505668096"
      ],
      "assetValues": [
        1
      ]
    },
    {
      "reservedAddress": "0xb673f4f3a27dc3b339a41e260696e7ba62d45be7",
      "assetIds": [
        "55464657044963196816950587289035428064568320970692304673817341489687505668096"
      ],
      "assetValues": [
        1
      ]
    },
    {
      "reservedAddress": "0xb6790e2d0e06f3272a3a8cc751e4fd35fa5e0681",
      "assetIds": [
        "55464657044963196816950587289035428064568320970692304673817341489687505668096"
      ],
      "assetValues": [
        1
      ]
    },
    {
      "reservedAddress": "0xb687d41c62674e0ca6fb6560cee24e20a3ed126f",
      "assetIds": [
        "55464657044963196816950587289035428064568320970692304673817341489687505668096"
      ],
      "assetValues": [
        1
      ]
    },
    {
      "reservedAddress": "0xb6965eab03c013b3dfedcc85344cd1df9252bf31",
      "assetIds": [
        "55464657044963196816950587289035428064568320970692304673817341489687505668096"
      ],
      "assetValues": [
        1
      ]
    },
    {
      "reservedAddress": "0xb6a9327592e7ca7d49d4b30bf165b7a6971d25ca",
      "assetIds": [
        "55464657044963196816950587289035428064568320970692304673817341489687505668096"
      ],
      "assetValues": [
        1
      ]
    },
    {
      "reservedAddress": "0xb6ad61b7558c718269a9129bd9ed9839d88a126a",
      "assetIds": [
        "55464657044963196816950587289035428064568320970692304673817341489687505668096"
      ],
      "assetValues": [
        1
      ]
    },
    {
      "reservedAddress": "0xb6b3b7fe6daa7294a740f7d46e6c07194e143d09",
      "assetIds": [
        "55464657044963196816950587289035428064568320970692304673817341489687505668096"
      ],
      "assetValues": [
        1
      ]
    },
    {
      "reservedAddress": "0xb6c9e6a2415ab8d26335498beac8eebed4bb2259",
      "assetIds": [
        "55464657044963196816950587289035428064568320970692304673817341489687505668096"
      ],
      "assetValues": [
        1
      ]
    },
    {
      "reservedAddress": "0xb6cdac4b17569459266035335cde926a382e3c37",
      "assetIds": [
        "55464657044963196816950587289035428064568320970692304673817341489687505668096"
      ],
      "assetValues": [
        1
      ]
    },
    {
      "reservedAddress": "0xb6d820e80a2a7c49f94c9d6c8ea08dccedc9ce4c",
      "assetIds": [
        "55464657044963196816950587289035428064568320970692304673817341489687505668096"
      ],
      "assetValues": [
        1
      ]
    },
    {
      "reservedAddress": "0xb702de07621eab1c764dc2b5e6762b2d2cb90d5e",
      "assetIds": [
        "55464657044963196816950587289035428064568320970692304673817341489687505668096"
      ],
      "assetValues": [
        1
      ]
    },
    {
      "reservedAddress": "0xb70760bf57c3295999f978fe404f4ec906669330",
      "assetIds": [
        "55464657044963196816950587289035428064568320970692304673817341489687505668096"
      ],
      "assetValues": [
        1
      ]
    },
    {
      "reservedAddress": "0xb70f7c153829fad080618e600dd2a7e131a2bde2",
      "assetIds": [
        "55464657044963196816950587289035428064568320970692304673817341489687505668096"
      ],
      "assetValues": [
        1
      ]
    },
    {
      "reservedAddress": "0xb7144974bb846f7386b92890dc1795758331cbc3",
      "assetIds": [
        "55464657044963196816950587289035428064568320970692304673817341489687505668096"
      ],
      "assetValues": [
        1
      ]
    },
    {
      "reservedAddress": "0xb74dec720c9d27da15155b23993fbd016667080e",
      "assetIds": [
        "55464657044963196816950587289035428064568320970692304673817341489687505668096"
      ],
      "assetValues": [
        1
      ]
    },
    {
      "reservedAddress": "0xb75320428f43887900bfd65b3bb68da1d09521b5",
      "assetIds": [
        "55464657044963196816950587289035428064568320970692304673817341489687505668096"
      ],
      "assetValues": [
        1
      ]
    },
    {
      "reservedAddress": "0xb784845804320b3b0f7ab2363c4fd5c5e642b157",
      "assetIds": [
        "55464657044963196816950587289035428064568320970692304673817341489687505668096"
      ],
      "assetValues": [
        1
      ]
    },
    {
      "reservedAddress": "0xb79bcb0cd6672662bf93aa2bee16726c654ca4b1",
      "assetIds": [
        "55464657044963196816950587289035428064568320970692304673817341489687505668096"
      ],
      "assetValues": [
        1
      ]
    },
    {
      "reservedAddress": "0xb7bd6b88e4df5c82469480d83b7b4cec18bb2cdc",
      "assetIds": [
        "55464657044963196816950587289035428064568320970692304673817341489687505668096"
      ],
      "assetValues": [
        1
      ]
    },
    {
      "reservedAddress": "0xb7c64046260610c12bc9c044e9d99e78a8f72c5e",
      "assetIds": [
        "55464657044963196816950587289035428064568320970692304673817341489687505668096"
      ],
      "assetValues": [
        1
      ]
    },
    {
      "reservedAddress": "0xb7d45edb7117b0cf49f2e17ce4569da61a865781",
      "assetIds": [
        "55464657044963196816950587289035428064568320970692304673817341489687505668096"
      ],
      "assetValues": [
        1
      ]
    },
    {
      "reservedAddress": "0xb7e3d3a5a7004849d267bfcfc8a432e740dedb75",
      "assetIds": [
        "55464657044963196816950587289035428064568320970692304673817341489687505668096"
      ],
      "assetValues": [
        1
      ]
    },
    {
      "reservedAddress": "0xb7eafe8a89a0391b5e5394078f57a9b0bda6702b",
      "assetIds": [
        "55464657044963196816950587289035428064568320970692304673817341489687505668096"
      ],
      "assetValues": [
        1
      ]
    },
    {
      "reservedAddress": "0xb8130d79468411de6d0bc4a87b85959ebb1e8c4f",
      "assetIds": [
        "55464657044963196816950587289035428064568320970692304673817341489687505668096"
      ],
      "assetValues": [
        1
      ]
    },
    {
      "reservedAddress": "0xb8221ccacf58d185de5d154c53a15eebb3b0e927",
      "assetIds": [
        "55464657044963196816950587289035428064568320970692304673817341489687505668096"
      ],
      "assetValues": [
        1
      ]
    },
    {
      "reservedAddress": "0xb84848ce4a46a44f06864b5decc2fe07b842cf30",
      "assetIds": [
        "55464657044963196816950587289035428064568320970692304673817341489687505668096"
      ],
      "assetValues": [
        1
      ]
    },
    {
      "reservedAddress": "0xb8556e090f3fda90ac8f8e5e8c2f4a50063848a4",
      "assetIds": [
        "55464657044963196816950587289035428064568320970692304673817341489687505668096"
      ],
      "assetValues": [
        1
      ]
    },
    {
      "reservedAddress": "0xb856267689d974f4e8f554e0335269f69b9acf20",
      "assetIds": [
        "55464657044963196816950587289035428064568320970692304673817341489687505668096"
      ],
      "assetValues": [
        1
      ]
    },
    {
      "reservedAddress": "0xb85d07e13866d3d363817c33d7f0c70bde64b874",
      "assetIds": [
        "55464657044963196816950587289035428064568320970692304673817341489687505668096"
      ],
      "assetValues": [
        1
      ]
    },
    {
      "reservedAddress": "0xb87293df7e1d33194e1d0fcce620ae1f9bcaecda",
      "assetIds": [
        "55464657044963196816950587289035428064568320970692304673817341489687505668096"
      ],
      "assetValues": [
        1
      ]
    },
    {
      "reservedAddress": "0xb87ed741edcdeb0db4c1f4fbb663b8f3345a4cf6",
      "assetIds": [
        "55464657044963196816950587289035428064568320970692304673817341489687505668096"
      ],
      "assetValues": [
        1
      ]
    },
    {
      "reservedAddress": "0xb883346ed7707101b451c8552eaee7dd41f79862",
      "assetIds": [
        "55464657044963196816950587289035428064568320970692304673817341489687505668096"
      ],
      "assetValues": [
        1
      ]
    },
    {
      "reservedAddress": "0xb8a49123c27f9ec420eabed179609cf4dc6fdec9",
      "assetIds": [
        "55464657044963196816950587289035428064568320970692304673817341489687505668096"
      ],
      "assetValues": [
        1
      ]
    },
    {
      "reservedAddress": "0xb8b7fbd673700f46215d2bf60baf20621b4412f4",
      "assetIds": [
        "55464657044963196816950587289035428064568320970692304673817341489687505668096"
      ],
      "assetValues": [
        1
      ]
    },
    {
      "reservedAddress": "0xb8f36028fe76de2afb8c013e8eeb2dd06233cb4a",
      "assetIds": [
        "55464657044963196816950587289035428064568320970692304673817341489687505668096"
      ],
      "assetValues": [
        1
      ]
    },
    {
      "reservedAddress": "0xb8f5855b2dbbe6c5cd9dea25571f945f14b99bb4",
      "assetIds": [
        "55464657044963196816950587289035428064568320970692304673817341489687505668096"
      ],
      "assetValues": [
        1
      ]
    },
    {
      "reservedAddress": "0xb94bcc8f16dd9f1ff9e6bbce4371dd24aa9c2262",
      "assetIds": [
        "55464657044963196816950587289035428064568320970692304673817341489687505668096"
      ],
      "assetValues": [
        1
      ]
    },
    {
      "reservedAddress": "0xb954eba728c4050eddfd04159d540f5479b701c4",
      "assetIds": [
        "55464657044963196816950587289035428064568320970692304673817341489687505668096"
      ],
      "assetValues": [
        1
      ]
    },
    {
      "reservedAddress": "0xb9787250110def1995705798841bfb03ca32254a",
      "assetIds": [
        "55464657044963196816950587289035428064568320970692304673817341489687505668096"
      ],
      "assetValues": [
        1
      ]
    },
    {
      "reservedAddress": "0xb9ce4ac1a45e24c4dae96ab567f6f14c2e53727a",
      "assetIds": [
        "55464657044963196816950587289035428064568320970692304673817341489687505668096"
      ],
      "assetValues": [
        1
      ]
    },
    {
      "reservedAddress": "0xb9d10940dae76c3e50d422c754009eeda22b4ea0",
      "assetIds": [
        "55464657044963196816950587289035428064568320970692304673817341489687505668096"
      ],
      "assetValues": [
        1
      ]
    },
    {
      "reservedAddress": "0xb9da4232aa9a2855a77d354038517ca335eb7698",
      "assetIds": [
        "55464657044963196816950587289035428064568320970692304673817341489687505668096"
      ],
      "assetValues": [
        1
      ]
    },
    {
      "reservedAddress": "0xb9e34cbf85a168cca8174951921b0ba4235d8398",
      "assetIds": [
        "55464657044963196816950587289035428064568320970692304673817341489687505668096"
      ],
      "assetValues": [
        1
      ]
    },
    {
      "reservedAddress": "0xb9f49851570f0c57e9f00353c442aaea6943bc05",
      "assetIds": [
        "55464657044963196816950587289035428064568320970692304673817341489687505668096"
      ],
      "assetValues": [
        1
      ]
    },
    {
      "reservedAddress": "0xb9ff4192cb64e92bcf38171b7bb1b8c760f0a7a1",
      "assetIds": [
        "55464657044963196816950587289035428064568320970692304673817341489687505668096"
      ],
      "assetValues": [
        1
      ]
    },
    {
      "reservedAddress": "0xba11610e28406a4cd34d9e993edd9e7f2ea90d53",
      "assetIds": [
        "55464657044963196816950587289035428064568320970692304673817341489687505668096"
      ],
      "assetValues": [
        1
      ]
    },
    {
      "reservedAddress": "0xba1c8ca13ab5d8a150ec7233694ee00c18243a53",
      "assetIds": [
        "55464657044963196816950587289035428064568320970692304673817341489687505668096"
      ],
      "assetValues": [
        1
      ]
    },
    {
      "reservedAddress": "0xba3e3aebc2e3bf60a1a49f6ff0da6a536c3b3a95",
      "assetIds": [
        "55464657044963196816950587289035428064568320970692304673817341489687505668096"
      ],
      "assetValues": [
        1
      ]
    },
    {
      "reservedAddress": "0xba4fe727d96d982b3e2cff4360eaedbfd361662c",
      "assetIds": [
        "55464657044963196816950587289035428064568320970692304673817341489687505668096"
      ],
      "assetValues": [
        1
      ]
    },
    {
      "reservedAddress": "0xba5ebecb14e6b951bac87996f737c80812819214",
      "assetIds": [
        "55464657044963196816950587289035428064568320970692304673817341489687505668096"
      ],
      "assetValues": [
        1
      ]
    },
    {
      "reservedAddress": "0xba86e2e692f7490ff0887ecbaf7e2c6bdca2fc2a",
      "assetIds": [
        "55464657044963196816950587289035428064568320970692304673817341489687505668096"
      ],
      "assetValues": [
        1
      ]
    },
    {
      "reservedAddress": "0xbabab233d70921e1f00a0fbbfc194fc2982dac51",
      "assetIds": [
        "55464657044963196816950587289035428064568320970692304673817341489687505668096"
      ],
      "assetValues": [
        1
      ]
    },
    {
      "reservedAddress": "0xbabab991e1cb07e177223c186a531ca010e303c6",
      "assetIds": [
        "55464657044963196816950587289035428064568320970692304673817341489687505668096"
      ],
      "assetValues": [
        1
      ]
    },
    {
      "reservedAddress": "0xbababb510ed40cd66e8afbe730ebf929a9bbd1b5",
      "assetIds": [
        "55464657044963196816950587289035428064568320970692304673817341489687505668096"
      ],
      "assetValues": [
        1
      ]
    },
    {
      "reservedAddress": "0xbababe13973ee11094c113e8bf32e928c8adde44",
      "assetIds": [
        "55464657044963196816950587289035428064568320970692304673817341489687505668096"
      ],
      "assetValues": [
        1
      ]
    },
    {
      "reservedAddress": "0xbababe4ee8020d8747201f1d38c069890b5aecdc",
      "assetIds": [
        "55464657044963196816950587289035428064568320970692304673817341489687505668096"
      ],
      "assetValues": [
        1
      ]
    },
    {
      "reservedAddress": "0xbac047c74c4d0a3da65fa4696e12f6c66435c9b1",
      "assetIds": [
        "55464657044963196816950587289035428064568320970692304673817341489687505668096"
      ],
      "assetValues": [
        1
      ]
    },
    {
      "reservedAddress": "0xbb1eb11e41262cd958ab11db8950b78d68407203",
      "assetIds": [
        "55464657044963196816950587289035428064568320970692304673817341489687505668096"
      ],
      "assetValues": [
        1
      ]
    },
    {
      "reservedAddress": "0xbb482c345feec07fc04f9ebbd82c549c078881ae",
      "assetIds": [
        "55464657044963196816950587289035428064568320970692304673817341489687505668096"
      ],
      "assetValues": [
        1
      ]
    },
    {
      "reservedAddress": "0xbb5322d5312e29107755464b67da48b354abfa0f",
      "assetIds": [
        "55464657044963196816950587289035428064568320970692304673817341489687505668096"
      ],
      "assetValues": [
        1
      ]
    },
    {
      "reservedAddress": "0xbb5e9f954fb0b190225f1b0f9f946d78ff0fa0e6",
      "assetIds": [
        "55464657044963196816950587289035428064568320970692304673817341489687505668096"
      ],
      "assetValues": [
        1
      ]
    },
    {
      "reservedAddress": "0xbb6643e3982689c4e8fdbe8f5bd7239e075377dd",
      "assetIds": [
        "55464657044963196816950587289035428064568320970692304673817341489687505668096"
      ],
      "assetValues": [
        1
      ]
    },
    {
      "reservedAddress": "0xbb67a02262268048e6e6d2930f144555019fb1a5",
      "assetIds": [
        "55464657044963196816950587289035428064568320970692304673817341489687505668096"
      ],
      "assetValues": [
        1
      ]
    },
    {
      "reservedAddress": "0xbb7e9532209bd82f6ee518acef2bea672c8c2bdb",
      "assetIds": [
        "55464657044963196816950587289035428064568320970692304673817341489687505668096"
      ],
      "assetValues": [
        1
      ]
    },
    {
      "reservedAddress": "0xbba7eacad88227a4cd6596806c49ecdebbc38f32",
      "assetIds": [
        "55464657044963196816950587289035428064568320970692304673817341489687505668096"
      ],
      "assetValues": [
        1
      ]
    },
    {
      "reservedAddress": "0xbbd5bebac63a25e11a959730f472eb9572813a5d",
      "assetIds": [
        "55464657044963196816950587289035428064568320970692304673817341489687505668096"
      ],
      "assetValues": [
        1
      ]
    },
    {
      "reservedAddress": "0xbc0997a4200aa10126f7a703414e1f4d5e58fae9",
      "assetIds": [
        "55464657044963196816950587289035428064568320970692304673817341489687505668096"
      ],
      "assetValues": [
        1
      ]
    },
    {
      "reservedAddress": "0xbc3297c20ee9f8242c91f0c844b200f91a444815",
      "assetIds": [
        "55464657044963196816950587289035428064568320970692304673817341489687505668096"
      ],
      "assetValues": [
        1
      ]
    },
    {
      "reservedAddress": "0xbc3312d7635c7e3eddc894e8dcc647ccd70928fb",
      "assetIds": [
        "55464657044963196816950587289035428064568320970692304673817341489687505668096"
      ],
      "assetValues": [
        1
      ]
    },
    {
      "reservedAddress": "0xbca7a1e8fe84b826b138680594e27886989be0d5",
      "assetIds": [
        "55464657044963196816950587289035428064568320970692304673817341489687505668096"
      ],
      "assetValues": [
        1
      ]
    },
    {
      "reservedAddress": "0xbcaf6170e867af292326c809d5df9d963275d2cb",
      "assetIds": [
        "55464657044963196816950587289035428064568320970692304673817341489687505668096"
      ],
      "assetValues": [
        1
      ]
    },
    {
      "reservedAddress": "0xbcc18b3db2f1b41cce1196c924199d983117b312",
      "assetIds": [
        "55464657044963196816950587289035428064568320970692304673817341489687505668096"
      ],
      "assetValues": [
        1
      ]
    },
    {
      "reservedAddress": "0xbcc224605383cb72dc603b1e3b4f4678b371c4dc",
      "assetIds": [
        "55464657044963196816950587289035428064568320970692304673817341489687505668096"
      ],
      "assetValues": [
        1
      ]
    },
    {
      "reservedAddress": "0xbce3bd3b206946abbe094903ae2b4244b52fb4e9",
      "assetIds": [
        "55464657044963196816950587289035428064568320970692304673817341489687505668096"
      ],
      "assetValues": [
        1
      ]
    },
    {
      "reservedAddress": "0xbce99845ee5886e6e1b28bab51693bd2c0f3709f",
      "assetIds": [
        "55464657044963196816950587289035428064568320970692304673817341489687505668096"
      ],
      "assetValues": [
        1
      ]
    },
    {
      "reservedAddress": "0xbcf29e21ef0daca21e3041a33ea43d0d80879d05",
      "assetIds": [
        "55464657044963196816950587289035428064568320970692304673817341489687505668096"
      ],
      "assetValues": [
        1
      ]
    },
    {
      "reservedAddress": "0xbd12aa424c207e90b66402c1f0aec357e8b1ded7",
      "assetIds": [
        "55464657044963196816950587289035428064568320970692304673817341489687505668096"
      ],
      "assetValues": [
        1
      ]
    },
    {
      "reservedAddress": "0xbd1836555aeb401defe2780c58b59089259f9910",
      "assetIds": [
        "55464657044963196816950587289035428064568320970692304673817341489687505668096"
      ],
      "assetValues": [
        1
      ]
    },
    {
      "reservedAddress": "0xbd1dbe55c0deadc5b1442cdb3314492096781c5e",
      "assetIds": [
        "55464657044963196816950587289035428064568320970692304673817341489687505668096"
      ],
      "assetValues": [
        1
      ]
    },
    {
      "reservedAddress": "0xbd261bda33b5812bbc5e330974d4a6b6f587ce66",
      "assetIds": [
        "55464657044963196816950587289035428064568320970692304673817341489687505668096"
      ],
      "assetValues": [
        1
      ]
    },
    {
      "reservedAddress": "0xbd366befd23af4102caba7e11100df3a0c645346",
      "assetIds": [
        "55464657044963196816950587289035428064568320970692304673817341489687505668096"
      ],
      "assetValues": [
        1
      ]
    },
    {
      "reservedAddress": "0xbd4eb0295468c80725017f74113f5aebbd6e8d12",
      "assetIds": [
        "55464657044963196816950587289035428064568320970692304673817341489687505668096"
      ],
      "assetValues": [
        1
      ]
    },
    {
      "reservedAddress": "0xbd54efb812a1c151a1144c5eed47ec817ad3217d",
      "assetIds": [
        "55464657044963196816950587289035428064568320970692304673817341489687505668096"
      ],
      "assetValues": [
        1
      ]
    },
    {
      "reservedAddress": "0xbd5e45e5b3ce3a90c5c7a4471e635f049faff6d3",
      "assetIds": [
        "55464657044963196816950587289035428064568320970692304673817341489687505668096"
      ],
      "assetValues": [
        1
      ]
    },
    {
      "reservedAddress": "0xbd6a886303d8bf96d06642e52e605c0fa02c6166",
      "assetIds": [
        "55464657044963196816950587289035428064568320970692304673817341489687505668096"
      ],
      "assetValues": [
        1
      ]
    },
    {
      "reservedAddress": "0xbd7007c9a458f4afd372bd3d8b71e65a16e52cc4",
      "assetIds": [
        "55464657044963196816950587289035428064568320970692304673817341489687505668096"
      ],
      "assetValues": [
        1
      ]
    },
    {
      "reservedAddress": "0xbd72d021d3cb334deb3151db905ee073b8eee518",
      "assetIds": [
        "55464657044963196816950587289035428064568320970692304673817341489687505668096"
      ],
      "assetValues": [
        1
      ]
    },
    {
      "reservedAddress": "0xbd9b7373aac15d9a93c810df3999343f4fe1ed88",
      "assetIds": [
        "55464657044963196816950587289035428064568320970692304673817341489687505668096"
      ],
      "assetValues": [
        1
      ]
    },
    {
      "reservedAddress": "0xbd9cf606a81da379d1ad3874363746f73295915a",
      "assetIds": [
        "55464657044963196816950587289035428064568320970692304673817341489687505668096"
      ],
      "assetValues": [
        1
      ]
    },
    {
      "reservedAddress": "0xbda3fc14f63d6556465698e225ef98109efd15e0",
      "assetIds": [
        "55464657044963196816950587289035428064568320970692304673817341489687505668096"
      ],
      "assetValues": [
        1
      ]
    },
    {
      "reservedAddress": "0xbda7ac81461d885b107a7f3a77d72f0ba334c336",
      "assetIds": [
        "55464657044963196816950587289035428064568320970692304673817341489687505668096"
      ],
      "assetValues": [
        1
      ]
    },
    {
      "reservedAddress": "0xbe135348b3742134c344f8bcccf783ae2a6dfabf",
      "assetIds": [
        "55464657044963196816950587289035428064568320970692304673817341489687505668096"
      ],
      "assetValues": [
        1
      ]
    },
    {
      "reservedAddress": "0xbe2ca6f56c541eea195f258d7db77d51dd6b106a",
      "assetIds": [
        "55464657044963196816950587289035428064568320970692304673817341489687505668096"
      ],
      "assetValues": [
        1
      ]
    },
    {
      "reservedAddress": "0xbe35171887d3ba015556d664abf5792d0869796e",
      "assetIds": [
        "55464657044963196816950587289035428064568320970692304673817341489687505668096"
      ],
      "assetValues": [
        1
      ]
    },
    {
      "reservedAddress": "0xbe3bf9bb42bf423695b792250be206c9a58e2de1",
      "assetIds": [
        "55464657044963196816950587289035428064568320970692304673817341489687505668096"
      ],
      "assetValues": [
        1
      ]
    },
    {
      "reservedAddress": "0xbe61b076a07a46fb68ba6c37dd4e27ceb6ed7453",
      "assetIds": [
        "55464657044963196816950587289035428064568320970692304673817341489687505668096"
      ],
      "assetValues": [
        1
      ]
    },
    {
      "reservedAddress": "0xbe63cd7e58944343e34fd75859f50b0a91ef8dbb",
      "assetIds": [
        "55464657044963196816950587289035428064568320970692304673817341489687505668096"
      ],
      "assetValues": [
        1
      ]
    },
    {
      "reservedAddress": "0xbe7abe5083ae893f05321c17bfb5a42fff7f3888",
      "assetIds": [
        "55464657044963196816950587289035428064568320970692304673817341489687505668096"
      ],
      "assetValues": [
        1
      ]
    },
    {
      "reservedAddress": "0xbeb3379f459acfdbfff90632961629715199bcf4",
      "assetIds": [
        "55464657044963196816950587289035428064568320970692304673817341489687505668096"
      ],
      "assetValues": [
        1
      ]
    },
    {
      "reservedAddress": "0xbed1c081698821b80f8974495f5f20c1e723ed57",
      "assetIds": [
        "55464657044963196816950587289035428064568320970692304673817341489687505668096"
      ],
      "assetValues": [
        1
      ]
    },
    {
      "reservedAddress": "0xbf06d42287bafa1d13121e3116a6a9f5f1266181",
      "assetIds": [
        "55464657044963196816950587289035428064568320970692304673817341489687505668096"
      ],
      "assetValues": [
        1
      ]
    },
    {
      "reservedAddress": "0xbf347b8eff022211dd17c08c29052364b5222db5",
      "assetIds": [
        "55464657044963196816950587289035428064568320970692304673817341489687505668096"
      ],
      "assetValues": [
        1
      ]
    },
    {
      "reservedAddress": "0xbf3bc5cda8cf2684e2f6c560734454ca62d3e97a",
      "assetIds": [
        "55464657044963196816950587289035428064568320970692304673817341489687505668096"
      ],
      "assetValues": [
        1
      ]
    },
    {
      "reservedAddress": "0xbf950f8a4e6b7a8769d11b86ca96f1aec4880ca5",
      "assetIds": [
        "55464657044963196816950587289035428064568320970692304673817341489687505668096"
      ],
      "assetValues": [
        1
      ]
    },
    {
      "reservedAddress": "0xbfb70c6a0cfeb060283c476981fafc9d061caf0b",
      "assetIds": [
        "55464657044963196816950587289035428064568320970692304673817341489687505668096"
      ],
      "assetValues": [
        1
      ]
    },
    {
      "reservedAddress": "0xbfbaecbc4266e8fcc52c6d1ef5e987932dccbc5f",
      "assetIds": [
        "55464657044963196816950587289035428064568320970692304673817341489687505668096"
      ],
      "assetValues": [
        1
      ]
    },
    {
      "reservedAddress": "0xbfbca6ad50b1ce9c6b82ef60eb5bb2b69e9b81bf",
      "assetIds": [
        "55464657044963196816950587289035428064568320970692304673817341489687505668096"
      ],
      "assetValues": [
        1
      ]
    },
    {
      "reservedAddress": "0xbffee9b0f7820aa4ffc1d7c3c2bf7ced81982e47",
      "assetIds": [
        "55464657044963196816950587289035428064568320970692304673817341489687505668096"
      ],
      "assetValues": [
        1
      ]
    },
    {
      "reservedAddress": "0xc0191f4da181273bdb54695a3df6e8195886f5ba",
      "assetIds": [
        "55464657044963196816950587289035428064568320970692304673817341489687505668096"
      ],
      "assetValues": [
        1
      ]
    },
    {
      "reservedAddress": "0xc03856fe33267cfd946de0f717ba5d1028d18c9b",
      "assetIds": [
        "55464657044963196816950587289035428064568320970692304673817341489687505668096"
      ],
      "assetValues": [
        1
      ]
    },
    {
      "reservedAddress": "0xc053eb3d04d14a3ebbebe03b9885a170aced3d36",
      "assetIds": [
        "55464657044963196816950587289035428064568320970692304673817341489687505668096"
      ],
      "assetValues": [
        1
      ]
    },
    {
      "reservedAddress": "0xc07324c3e0a867dee89576256330ceb19344c415",
      "assetIds": [
        "55464657044963196816950587289035428064568320970692304673817341489687505668096"
      ],
      "assetValues": [
        1
      ]
    },
    {
      "reservedAddress": "0xc07414f8fb3ee80dbf61f585abed4b8d001d17cd",
      "assetIds": [
        "55464657044963196816950587289035428064568320970692304673817341489687505668096"
      ],
      "assetValues": [
        1
      ]
    },
    {
      "reservedAddress": "0xc076f1f2a89407197744fd668dd07ea3d60c4f49",
      "assetIds": [
        "55464657044963196816950587289035428064568320970692304673817341489687505668096"
      ],
      "assetValues": [
        1
      ]
    },
    {
      "reservedAddress": "0xc08c5e8098a4cfc04de94ae2228429c1804fb613",
      "assetIds": [
        "55464657044963196816950587289035428064568320970692304673817341489687505668096"
      ],
      "assetValues": [
        1
      ]
    },
    {
      "reservedAddress": "0xc0a6cf40c65e9e742e9fcdfcff7a20e3b60368c8",
      "assetIds": [
        "55464657044963196816950587289035428064568320970692304673817341489687505668096"
      ],
      "assetValues": [
        1
      ]
    },
    {
      "reservedAddress": "0xc0b90a06d665c2043aa5185bb49cb3e5a2dcb29c",
      "assetIds": [
        "55464657044963196816950587289035428064568320970692304673817341489687505668096"
      ],
      "assetValues": [
        1
      ]
    },
    {
      "reservedAddress": "0xc0bde1757cbddcf7af0f66f762d86ae49f68d273",
      "assetIds": [
        "55464657044963196816950587289035428064568320970692304673817341489687505668096"
      ],
      "assetValues": [
        1
      ]
    },
    {
      "reservedAddress": "0xc0c7cfcc86a76063398673249f475c2b2709265f",
      "assetIds": [
        "55464657044963196816950587289035428064568320970692304673817341489687505668096"
      ],
      "assetValues": [
        1
      ]
    },
    {
      "reservedAddress": "0xc0d95fbb7bf19c7665a1c4042b683182b34e2150",
      "assetIds": [
        "55464657044963196816950587289035428064568320970692304673817341489687505668096"
      ],
      "assetValues": [
        1
      ]
    },
    {
      "reservedAddress": "0xc0e581d30a94759788ce355aae0bd6c444030942",
      "assetIds": [
        "55464657044963196816950587289035428064568320970692304673817341489687505668096"
      ],
      "assetValues": [
        1
      ]
    },
    {
      "reservedAddress": "0xc0f4e91e6a70560ce3f5608a81da0422101af174",
      "assetIds": [
        "55464657044963196816950587289035428064568320970692304673817341489687505668096"
      ],
      "assetValues": [
        1
      ]
    },
    {
      "reservedAddress": "0xc0ffeec7b8445c922cff53c7f672135346620499",
      "assetIds": [
        "55464657044963196816950587289035428064568320970692304673817341489687505668096"
      ],
      "assetValues": [
        1
      ]
    },
    {
      "reservedAddress": "0xc120903eedcbba2490409195fd9835bbbfb95521",
      "assetIds": [
        "55464657044963196816950587289035428064568320970692304673817341489687505668096"
      ],
      "assetValues": [
        1
      ]
    },
    {
      "reservedAddress": "0xc12787b02b996c0c23de426b60c4dd59548a5f86",
      "assetIds": [
        "55464657044963196816950587289035428064568320970692304673817341489687505668096"
      ],
      "assetValues": [
        1
      ]
    },
    {
      "reservedAddress": "0xc1338227548c8743e571ee27fc147f34bf3dfd84",
      "assetIds": [
        "55464657044963196816950587289035428064568320970692304673817341489687505668096"
      ],
      "assetValues": [
        1
      ]
    },
    {
      "reservedAddress": "0xc19832bfe80f18be65e39e18ebe525ab0389764d",
      "assetIds": [
        "55464657044963196816950587289035428064568320970692304673817341489687505668096"
      ],
      "assetValues": [
        1
      ]
    },
    {
      "reservedAddress": "0xc1b88ae15df4cb781e25fef2dac25c9a9f38adfc",
      "assetIds": [
        "55464657044963196816950587289035428064568320970692304673817341489687505668096"
      ],
      "assetValues": [
        1
      ]
    },
    {
      "reservedAddress": "0xc1c6c1f95f49999e2d95fb2b09f9efd3c232ef4c",
      "assetIds": [
        "55464657044963196816950587289035428064568320970692304673817341489687505668096"
      ],
      "assetValues": [
        1
      ]
    },
    {
      "reservedAddress": "0xc1cd31c394edc5c648dc376a51d43e4f9ad2465c",
      "assetIds": [
        "55464657044963196816950587289035428064568320970692304673817341489687505668096"
      ],
      "assetValues": [
        1
      ]
    },
    {
      "reservedAddress": "0xc1e52e39f8aacf0fdc78564f5ec760f1a4d4bd59",
      "assetIds": [
        "55464657044963196816950587289035428064568320970692304673817341489687505668096"
      ],
      "assetValues": [
        1
      ]
    },
    {
      "reservedAddress": "0xc1eb2aa437332acd25a8c7e23db4214216b58e4d",
      "assetIds": [
        "55464657044963196816950587289035428064568320970692304673817341489687505668096"
      ],
      "assetValues": [
        1
      ]
    },
    {
      "reservedAddress": "0xc23705922efa6be1e7077e9021969e47e35cca2c",
      "assetIds": [
        "55464657044963196816950587289035428064568320970692304673817341489687505668096"
      ],
      "assetValues": [
        1
      ]
    },
    {
      "reservedAddress": "0xc24ebf1eb3ff0780239974335b5edaa7d9f9fe55",
      "assetIds": [
        "55464657044963196816950587289035428064568320970692304673817341489687505668096"
      ],
      "assetValues": [
        1
      ]
    },
    {
      "reservedAddress": "0xc261d9dabd25b8cbf342d503daf5b2c0e0fa173d",
      "assetIds": [
        "55464657044963196816950587289035428064568320970692304673817341489687505668096"
      ],
      "assetValues": [
        1
      ]
    },
    {
      "reservedAddress": "0xc280a512ec1f0cbf31a15784401a32197b131a7b",
      "assetIds": [
        "55464657044963196816950587289035428064568320970692304673817341489687505668096"
      ],
      "assetValues": [
        1
      ]
    },
    {
      "reservedAddress": "0xc29029de05bf135a90c19f31f866f8774a39dbb6",
      "assetIds": [
        "55464657044963196816950587289035428064568320970692304673817341489687505668096"
      ],
      "assetValues": [
        1
      ]
    },
    {
      "reservedAddress": "0xc2a8d99386fa687c1f481e988d1f168b1b7b09e6",
      "assetIds": [
        "55464657044963196816950587289035428064568320970692304673817341489687505668096"
      ],
      "assetValues": [
        1
      ]
    },
    {
      "reservedAddress": "0xc2b158b45ee9f62860ddc320dcf25752d01b2f57",
      "assetIds": [
        "55464657044963196816950587289035428064568320970692304673817341489687505668096"
      ],
      "assetValues": [
        1
      ]
    },
    {
      "reservedAddress": "0xc2d7458eee4fb0c0ad809bd91de72a98e974cd14",
      "assetIds": [
        "55464657044963196816950587289035428064568320970692304673817341489687505668096"
      ],
      "assetValues": [
        1
      ]
    },
    {
      "reservedAddress": "0xc2dd5d984600fa7a1e791e7585d8fe88d391800e",
      "assetIds": [
        "55464657044963196816950587289035428064568320970692304673817341489687505668096"
      ],
      "assetValues": [
        1
      ]
    },
    {
      "reservedAddress": "0xc2dee067e4dd26f3213b209593144b690e089d36",
      "assetIds": [
        "55464657044963196816950587289035428064568320970692304673817341489687505668096"
      ],
      "assetValues": [
        1
      ]
    },
    {
      "reservedAddress": "0xc2e3763ca17f2c3e28e002dbd36fee7dec7ef1d7",
      "assetIds": [
        "55464657044963196816950587289035428064568320970692304673817341489687505668096"
      ],
      "assetValues": [
        1
      ]
    },
    {
      "reservedAddress": "0xc2e4af5c3e72d44be02ef922823d43f96790bbd6",
      "assetIds": [
        "55464657044963196816950587289035428064568320970692304673817341489687505668096"
      ],
      "assetValues": [
        1
      ]
    },
    {
      "reservedAddress": "0xc2ea113c212e265f2ce672e15fc97dc9b39b83b3",
      "assetIds": [
        "55464657044963196816950587289035428064568320970692304673817341489687505668096"
      ],
      "assetValues": [
        1
      ]
    },
    {
      "reservedAddress": "0xc2f2c9edc057cd577ead607c19a0f669d2435cd9",
      "assetIds": [
        "55464657044963196816950587289035428064568320970692304673817341489687505668096"
      ],
      "assetValues": [
        1
      ]
    },
    {
      "reservedAddress": "0xc2f82a1f287b5b5aebff7c19e83e0a16cf3bd041",
      "assetIds": [
        "55464657044963196816950587289035428064568320970692304673817341489687505668096"
      ],
      "assetValues": [
        1
      ]
    },
    {
      "reservedAddress": "0xc309f2db3d181ffa43b1422bd29b960ad2f26892",
      "assetIds": [
        "55464657044963196816950587289035428064568320970692304673817341489687505668096"
      ],
      "assetValues": [
        1
      ]
    },
    {
      "reservedAddress": "0xc31e30113f98ee71dbfbcbdb01e3e9c1fb354db9",
      "assetIds": [
        "55464657044963196816950587289035428064568320970692304673817341489687505668096"
      ],
      "assetValues": [
        1
      ]
    },
    {
      "reservedAddress": "0xc338a317daa7858c5c3266e0c0bcad1c41350818",
      "assetIds": [
        "55464657044963196816950587289035428064568320970692304673817341489687505668096"
      ],
      "assetValues": [
        1
      ]
    },
    {
      "reservedAddress": "0xc36068703af58b5b7475436082bb86f482e39d27",
      "assetIds": [
        "55464657044963196816950587289035428064568320970692304673817341489687505668096"
      ],
      "assetValues": [
        1
      ]
    },
    {
      "reservedAddress": "0xc363c2242b14d83dda9a8cdfc6685aa5b5eca819",
      "assetIds": [
        "55464657044963196816950587289035428064568320970692304673817341489687505668096"
      ],
      "assetValues": [
        1
      ]
    },
    {
      "reservedAddress": "0xc3a028a650b899162ff0140a44e5dfd5a8f12280",
      "assetIds": [
        "55464657044963196816950587289035428064568320970692304673817341489687505668096"
      ],
      "assetValues": [
        1
      ]
    },
    {
      "reservedAddress": "0xc3be33e9f69d3f1c308b46168f16483d61e66973",
      "assetIds": [
        "55464657044963196816950587289035428064568320970692304673817341489687505668096"
      ],
      "assetValues": [
        1
      ]
    },
    {
      "reservedAddress": "0xc3c2e1cf099bc6e1fa94ce358562bcbd5cc59fe5",
      "assetIds": [
        "55464657044963196816950587289035428064568320970692304673817341489687505668096"
      ],
      "assetValues": [
        1
      ]
    },
    {
      "reservedAddress": "0xc3d2e9c27654cd1628f912c2f2099b3929f6bc3b",
      "assetIds": [
        "55464657044963196816950587289035428064568320970692304673817341489687505668096"
      ],
      "assetValues": [
        1
      ]
    },
    {
      "reservedAddress": "0xc3f9eef6028101cfb6884a0c7d6dfdab0556a53c",
      "assetIds": [
        "55464657044963196816950587289035428064568320970692304673817341489687505668096"
      ],
      "assetValues": [
        1
      ]
    },
    {
      "reservedAddress": "0xc3fc8940da52aa2ce9838abc46e6c8912ec91485",
      "assetIds": [
        "55464657044963196816950587289035428064568320970692304673817341489687505668096"
      ],
      "assetValues": [
        1
      ]
    },
    {
      "reservedAddress": "0xc409e641136a2ac56779fbae733d6710e8bc8a9c",
      "assetIds": [
        "55464657044963196816950587289035428064568320970692304673817341489687505668096"
      ],
      "assetValues": [
        1
      ]
    },
    {
      "reservedAddress": "0xc423d6c2c0c5edf9f7805cad020eeecaae204ebb",
      "assetIds": [
        "55464657044963196816950587289035428064568320970692304673817341489687505668096"
      ],
      "assetValues": [
        1
      ]
    },
    {
      "reservedAddress": "0xc42a3c3e6ab0b3441131b2a6eda593ff53d84819",
      "assetIds": [
        "55464657044963196816950587289035428064568320970692304673817341489687505668096"
      ],
      "assetValues": [
        1
      ]
    },
    {
      "reservedAddress": "0xc44134bd5873331e9a47271b339f3704872e69ad",
      "assetIds": [
        "55464657044963196816950587289035428064568320970692304673817341489687505668096"
      ],
      "assetValues": [
        1
      ]
    },
    {
      "reservedAddress": "0xc44f621fd412714606c793d96dd31ee9275adbc4",
      "assetIds": [
        "55464657044963196816950587289035428064568320970692304673817341489687505668096"
      ],
      "assetValues": [
        1
      ]
    },
    {
      "reservedAddress": "0xc4573c4072e45f300ec0b6f0c38dc15cebaa7aee",
      "assetIds": [
        "55464657044963196816950587289035428064568320970692304673817341489687505668096"
      ],
      "assetValues": [
        1
      ]
    },
    {
      "reservedAddress": "0xc457b444df314e9b41d9c69c9fd5da977f0f0a41",
      "assetIds": [
        "55464657044963196816950587289035428064568320970692304673817341489687505668096"
      ],
      "assetValues": [
        1
      ]
    },
    {
      "reservedAddress": "0xc46c0fc9ef1f93d406806790c45de67854d40f66",
      "assetIds": [
        "55464657044963196816950587289035428064568320970692304673817341489687505668096"
      ],
      "assetValues": [
        1
      ]
    },
    {
      "reservedAddress": "0xc4a12866fa43fdeef3d8d317734d5c926a3a4805",
      "assetIds": [
        "55464657044963196816950587289035428064568320970692304673817341489687505668096"
      ],
      "assetValues": [
        1
      ]
    },
    {
      "reservedAddress": "0xc4d071c8279f58697f48e2431df86cfb945fb116",
      "assetIds": [
        "55464657044963196816950587289035428064568320970692304673817341489687505668096"
      ],
      "assetValues": [
        1
      ]
    },
    {
      "reservedAddress": "0xc4e9692a899663b107595f3548c4ef32de6fe833",
      "assetIds": [
        "55464657044963196816950587289035428064568320970692304673817341489687505668096"
      ],
      "assetValues": [
        1
      ]
    },
    {
      "reservedAddress": "0xc4eab1eaacbf628f0f9aee4b7375bde18dd173c4",
      "assetIds": [
        "55464657044963196816950587289035428064568320970692304673817341489687505668096"
      ],
      "assetValues": [
        1
      ]
    },
    {
      "reservedAddress": "0xc4fcadeaf8e77c4b859473142aef83a7ac7f4704",
      "assetIds": [
        "55464657044963196816950587289035428064568320970692304673817341489687505668096"
      ],
      "assetValues": [
        1
      ]
    },
    {
      "reservedAddress": "0xc504148f63993a1eab956a2161e4d033a3469e56",
      "assetIds": [
        "55464657044963196816950587289035428064568320970692304673817341489687505668096"
      ],
      "assetValues": [
        1
      ]
    },
    {
      "reservedAddress": "0xc506dbf903da5954dcfe65333463cd7c4c9004d4",
      "assetIds": [
        "55464657044963196816950587289035428064568320970692304673817341489687505668096"
      ],
      "assetValues": [
        1
      ]
    },
    {
      "reservedAddress": "0xc51d31dbf01505fffbe28fcf2c646ba3b8173817",
      "assetIds": [
        "55464657044963196816950587289035428064568320970692304673817341489687505668096"
      ],
      "assetValues": [
        1
      ]
    },
    {
      "reservedAddress": "0xc53c0eee7639a083c8553effc0a7e59f92ec5b0c",
      "assetIds": [
        "55464657044963196816950587289035428064568320970692304673817341489687505668096"
      ],
      "assetValues": [
        1
      ]
    },
    {
      "reservedAddress": "0xc55166f1369535a01b63722eb8be1dc46317778c",
      "assetIds": [
        "55464657044963196816950587289035428064568320970692304673817341489687505668096"
      ],
      "assetValues": [
        1
      ]
    },
    {
      "reservedAddress": "0xc56d5b822ddc7794c6cdcd362c6863871a3bb6b1",
      "assetIds": [
        "55464657044963196816950587289035428064568320970692304673817341489687505668096"
      ],
      "assetValues": [
        1
      ]
    },
    {
      "reservedAddress": "0xc59eade1be99e8660eb428e49c2bfb0130b3e242",
      "assetIds": [
        "55464657044963196816950587289035428064568320970692304673817341489687505668096"
      ],
      "assetValues": [
        1
      ]
    },
    {
      "reservedAddress": "0xc5e08104c19dafd00fe40737490da9552db5bfe5",
      "assetIds": [
        "55464657044963196816950587289035428064568320970692304673817341489687505668096"
      ],
      "assetValues": [
        1
      ]
    },
    {
      "reservedAddress": "0xc5e65326dfbb73cb83596dbb43239689b05d005b",
      "assetIds": [
        "55464657044963196816950587289035428064568320970692304673817341489687505668096"
      ],
      "assetValues": [
        1
      ]
    },
    {
      "reservedAddress": "0xc5e8f7970a1862b5635eadec87d0ff3e7f222c0d",
      "assetIds": [
        "55464657044963196816950587289035428064568320970692304673817341489687505668096"
      ],
      "assetValues": [
        1
      ]
    },
    {
      "reservedAddress": "0xc5ef867831cbeb3a87f79d6b6848fc8bd25c975d",
      "assetIds": [
        "55464657044963196816950587289035428064568320970692304673817341489687505668096"
      ],
      "assetValues": [
        1
      ]
    },
    {
      "reservedAddress": "0xc5f9b7277fd3ea02d84531a74bc9c8480db96fce",
      "assetIds": [
        "55464657044963196816950587289035428064568320970692304673817341489687505668096"
      ],
      "assetValues": [
        1
      ]
    },
    {
      "reservedAddress": "0xc6483c6ba019497b37ad8dcbd7c75ded8199a2f7",
      "assetIds": [
        "55464657044963196816950587289035428064568320970692304673817341489687505668096"
      ],
      "assetValues": [
        1
      ]
    },
    {
      "reservedAddress": "0xc674c649d6c2d2f32d1bc3e0759601e908f187d2",
      "assetIds": [
        "55464657044963196816950587289035428064568320970692304673817341489687505668096"
      ],
      "assetValues": [
        1
      ]
    },
    {
      "reservedAddress": "0xc67bbc455f81bcd16157941a7343c3eabe98caad",
      "assetIds": [
        "55464657044963196816950587289035428064568320970692304673817341489687505668096"
      ],
      "assetValues": [
        1
      ]
    },
    {
      "reservedAddress": "0xc6a4ac81dc5d3c5e1f5044ddc352e70e006df2ef",
      "assetIds": [
        "55464657044963196816950587289035428064568320970692304673817341489687505668096"
      ],
      "assetValues": [
        1
      ]
    },
    {
      "reservedAddress": "0xc6bf949ea80cae61ebe9001ea51813386f53df62",
      "assetIds": [
        "55464657044963196816950587289035428064568320970692304673817341489687505668096"
      ],
      "assetValues": [
        1
      ]
    },
    {
      "reservedAddress": "0xc6c3d0dbc4e7914601176ea3afe5cca46a29bed3",
      "assetIds": [
        "55464657044963196816950587289035428064568320970692304673817341489687505668096"
      ],
      "assetValues": [
        1
      ]
    },
    {
      "reservedAddress": "0xc6fc7a3d010ef314be188bb829723237bba10589",
      "assetIds": [
        "55464657044963196816950587289035428064568320970692304673817341489687505668096"
      ],
      "assetValues": [
        1
      ]
    },
    {
      "reservedAddress": "0xc70b2a343877dcf7d5aca6fda51b1a3db40f212c",
      "assetIds": [
        "55464657044963196816950587289035428064568320970692304673817341489687505668096"
      ],
      "assetValues": [
        1
      ]
    },
    {
      "reservedAddress": "0xc7100ec41a46a862ebd5a52415bddb785a526702",
      "assetIds": [
        "55464657044963196816950587289035428064568320970692304673817341489687505668096"
      ],
      "assetValues": [
        1
      ]
    },
    {
      "reservedAddress": "0xc7224f9bdde49b8b0151ba829c6a445a044099c5",
      "assetIds": [
        "55464657044963196816950587289035428064568320970692304673817341489687505668096"
      ],
      "assetValues": [
        1
      ]
    },
    {
      "reservedAddress": "0xc755431b6bc156af80f5377987649c538eddd63d",
      "assetIds": [
        "55464657044963196816950587289035428064568320970692304673817341489687505668096"
      ],
      "assetValues": [
        1
      ]
    },
    {
      "reservedAddress": "0xc75e735644dbbbae63ca2402cfadb2dab135338e",
      "assetIds": [
        "55464657044963196816950587289035428064568320970692304673817341489687505668096"
      ],
      "assetValues": [
        1
      ]
    },
    {
      "reservedAddress": "0xc76f90c9d21eb209450fa520ab7f0ce098b759f2",
      "assetIds": [
        "55464657044963196816950587289035428064568320970692304673817341489687505668096"
      ],
      "assetValues": [
        1
      ]
    },
    {
      "reservedAddress": "0xc79550c4555a05012757fe8e3305813b528f0edd",
      "assetIds": [
        "55464657044963196816950587289035428064568320970692304673817341489687505668096"
      ],
      "assetValues": [
        1
      ]
    },
    {
      "reservedAddress": "0xc7a906945c67303c29f7fc5942bc1495d38e550b",
      "assetIds": [
        "55464657044963196816950587289035428064568320970692304673817341489687505668096"
      ],
      "assetValues": [
        1
      ]
    },
    {
      "reservedAddress": "0xc7e1e9ea07111646009cf5a969fa4e85a521807d",
      "assetIds": [
        "55464657044963196816950587289035428064568320970692304673817341489687505668096"
      ],
      "assetValues": [
        1
      ]
    },
    {
      "reservedAddress": "0xc7ece7abfb4b09b4ecebb68ad5630f2d88e98d8f",
      "assetIds": [
        "55464657044963196816950587289035428064568320970692304673817341489687505668096"
      ],
      "assetValues": [
        1
      ]
    },
    {
      "reservedAddress": "0xc7efca477afa3c8fe231614b9dc0c78988baeb1d",
      "assetIds": [
        "55464657044963196816950587289035428064568320970692304673817341489687505668096"
      ],
      "assetValues": [
        1
      ]
    },
    {
      "reservedAddress": "0xc7f6de73163376642a1065eb720094816b4b8654",
      "assetIds": [
        "55464657044963196816950587289035428064568320970692304673817341489687505668096"
      ],
      "assetValues": [
        1
      ]
    },
    {
      "reservedAddress": "0xc82cb9d6dd3146a966aae9706c83a571dff2e99b",
      "assetIds": [
        "55464657044963196816950587289035428064568320970692304673817341489687505668096"
      ],
      "assetValues": [
        1
      ]
    },
    {
      "reservedAddress": "0xc8444e601f8bf50d6614349cdb384c0014f5add0",
      "assetIds": [
        "55464657044963196816950587289035428064568320970692304673817341489687505668096"
      ],
      "assetValues": [
        1
      ]
    },
    {
      "reservedAddress": "0xc8495f876d48e85f77652025423f7a0dfa28942c",
      "assetIds": [
        "55464657044963196816950587289035428064568320970692304673817341489687505668096"
      ],
      "assetValues": [
        1
      ]
    },
    {
      "reservedAddress": "0xc86de85a8509dc4e779c60f601cbe4784d63a896",
      "assetIds": [
        "55464657044963196816950587289035428064568320970692304673817341489687505668096"
      ],
      "assetValues": [
        1
      ]
    },
    {
      "reservedAddress": "0xc8768989e7073da4e42e5582e580f77be8450f21",
      "assetIds": [
        "55464657044963196816950587289035428064568320970692304673817341489687505668096"
      ],
      "assetValues": [
        1
      ]
    },
    {
      "reservedAddress": "0xc88fe9bfce6294c0faa5eb3fbed02cdd6b59cd95",
      "assetIds": [
        "55464657044963196816950587289035428064568320970692304673817341489687505668096"
      ],
      "assetValues": [
        1
      ]
    },
    {
      "reservedAddress": "0xc897fb3dd5114c3b6c561f50657a1cefd1759efa",
      "assetIds": [
        "55464657044963196816950587289035428064568320970692304673817341489687505668096"
      ],
      "assetValues": [
        1
      ]
    },
    {
      "reservedAddress": "0xc89c9aea70e1591f332f58ce1f3e555b5b7fbb29",
      "assetIds": [
        "55464657044963196816950587289035428064568320970692304673817341489687505668096"
      ],
      "assetValues": [
        1
      ]
    },
    {
      "reservedAddress": "0xc8c4ab6e1e7dcc4e2957244baba86ed937dc0ee8",
      "assetIds": [
        "55464657044963196816950587289035428064568320970692304673817341489687505668096"
      ],
      "assetValues": [
        1
      ]
    },
    {
      "reservedAddress": "0xc8e2e61c7c143c55e3f3cfd681233e3769d8e8aa",
      "assetIds": [
        "55464657044963196816950587289035428064568320970692304673817341489687505668096"
      ],
      "assetValues": [
        1
      ]
    },
    {
      "reservedAddress": "0xc8f41a04d9f7f932bde1853a4f34b7843b5f1210",
      "assetIds": [
        "55464657044963196816950587289035428064568320970692304673817341489687505668096"
      ],
      "assetValues": [
        1
      ]
    },
    {
      "reservedAddress": "0xc907b60fd4625374beb58a9f8bee146c75c11eee",
      "assetIds": [
        "55464657044963196816950587289035428064568320970692304673817341489687505668096"
      ],
      "assetValues": [
        1
      ]
    },
    {
      "reservedAddress": "0xc91faf934708a5e3b3ff8ed212904c4efd2aaf57",
      "assetIds": [
        "55464657044963196816950587289035428064568320970692304673817341489687505668096"
      ],
      "assetValues": [
        1
      ]
    },
    {
      "reservedAddress": "0xc92fd0e554b12eb10f584819eec2394a9a6f3d1d",
      "assetIds": [
        "55464657044963196816950587289035428064568320970692304673817341489687505668096"
      ],
      "assetValues": [
        1
      ]
    },
    {
      "reservedAddress": "0xc93a05bbd0e03c2c4a8f0d0165d52ff901ad659c",
      "assetIds": [
        "55464657044963196816950587289035428064568320970692304673817341489687505668096"
      ],
      "assetValues": [
        1
      ]
    },
    {
      "reservedAddress": "0xc96b8c5cf992b1f891db0ebfadfd315f5a80be3e",
      "assetIds": [
        "55464657044963196816950587289035428064568320970692304673817341489687505668096"
      ],
      "assetValues": [
        1
      ]
    },
    {
      "reservedAddress": "0xc993fc196b1654e206bb046e8196ca94ee195f36",
      "assetIds": [
        "55464657044963196816950587289035428064568320970692304673817341489687505668096"
      ],
      "assetValues": [
        1
      ]
    },
    {
      "reservedAddress": "0xc9a9178c925db8974952c2d58b8c9742023d918f",
      "assetIds": [
        "55464657044963196816950587289035428064568320970692304673817341489687505668096"
      ],
      "assetValues": [
        1
      ]
    },
    {
      "reservedAddress": "0xc9b47460e6c24f5972e458fae9b81b706d57122c",
      "assetIds": [
        "55464657044963196816950587289035428064568320970692304673817341489687505668096"
      ],
      "assetValues": [
        1
      ]
    },
    {
      "reservedAddress": "0xc9b706fe5925f51b997f1a5cf27ac55cdc74eb77",
      "assetIds": [
        "55464657044963196816950587289035428064568320970692304673817341489687505668096"
      ],
      "assetValues": [
        1
      ]
    },
    {
      "reservedAddress": "0xc9ccbefd041a85a2b9a90ec55394a4fb9dc96f90",
      "assetIds": [
        "55464657044963196816950587289035428064568320970692304673817341489687505668096"
      ],
      "assetValues": [
        1
      ]
    },
    {
      "reservedAddress": "0xc9e8bbd09773b5ed1d0520cc75e83ddc8a8a200e",
      "assetIds": [
        "55464657044963196816950587289035428064568320970692304673817341489687505668096"
      ],
      "assetValues": [
        1
      ]
    },
    {
      "reservedAddress": "0xc9eb1de7b76d6db0a986b9c4ba8a75719f74a38b",
      "assetIds": [
        "55464657044963196816950587289035428064568320970692304673817341489687505668096"
      ],
      "assetValues": [
        1
      ]
    },
    {
      "reservedAddress": "0xc9f084fbfc9afcc9f50883a2ab34be940f153d8e",
      "assetIds": [
        "55464657044963196816950587289035428064568320970692304673817341489687505668096"
      ],
      "assetValues": [
        1
      ]
    },
    {
      "reservedAddress": "0xc9fb13fac14cd2009549f4c30a58a3e9875980cd",
      "assetIds": [
        "55464657044963196816950587289035428064568320970692304673817341489687505668096"
      ],
      "assetValues": [
        1
      ]
    },
    {
      "reservedAddress": "0xca1c43a6acd6dbb85d22a9f69c7ea25fdbce4c5b",
      "assetIds": [
        "55464657044963196816950587289035428064568320970692304673817341489687505668096"
      ],
      "assetValues": [
        1
      ]
    },
    {
      "reservedAddress": "0xca3b9275e38026532a6405d51b03f1d90785a549",
      "assetIds": [
        "55464657044963196816950587289035428064568320970692304673817341489687505668096"
      ],
      "assetValues": [
        1
      ]
    },
    {
      "reservedAddress": "0xca4a5ba3650b6eecb99e33f81659036c5f7794e7",
      "assetIds": [
        "55464657044963196816950587289035428064568320970692304673817341489687505668096"
      ],
      "assetValues": [
        1
      ]
    },
    {
      "reservedAddress": "0xca658698c9a4224ae4b99dee29013c1d258e0a43",
      "assetIds": [
        "55464657044963196816950587289035428064568320970692304673817341489687505668096"
      ],
      "assetValues": [
        1
      ]
    },
    {
      "reservedAddress": "0xcaa7ede89e16c3f90dbfe1e5462c7299edbeb009",
      "assetIds": [
        "55464657044963196816950587289035428064568320970692304673817341489687505668096"
      ],
      "assetValues": [
        1
      ]
    },
    {
      "reservedAddress": "0xcac2d8e5680fab6fa3db0b9f1210d95b7b153ca1",
      "assetIds": [
        "55464657044963196816950587289035428064568320970692304673817341489687505668096"
      ],
      "assetValues": [
        1
      ]
    },
    {
      "reservedAddress": "0xcb03fec846675fadde405585138c563d0097da51",
      "assetIds": [
        "55464657044963196816950587289035428064568320970692304673817341489687505668096"
      ],
      "assetValues": [
        1
      ]
    },
    {
      "reservedAddress": "0xcb0b857c9b90c06e00e42b3179b703807ad4c3ab",
      "assetIds": [
        "55464657044963196816950587289035428064568320970692304673817341489687505668096"
      ],
      "assetValues": [
        1
      ]
    },
    {
      "reservedAddress": "0xcb25b216e4241535fe0e36d5f83f36a4a30b233e",
      "assetIds": [
        "55464657044963196816950587289035428064568320970692304673817341489687505668096"
      ],
      "assetValues": [
        1
      ]
    },
    {
      "reservedAddress": "0xcb2bbd8726f35cdb8e8f84dac8ba4afce00da867",
      "assetIds": [
        "55464657044963196816950587289035428064568320970692304673817341489687505668096"
      ],
      "assetValues": [
        1
      ]
    },
    {
      "reservedAddress": "0xcb478fd59aa8c9d4ca1c58368655d5eb0d86090a",
      "assetIds": [
        "55464657044963196816950587289035428064568320970692304673817341489687505668096"
      ],
      "assetValues": [
        1
      ]
    },
    {
      "reservedAddress": "0xcb4d6fb38afcc849535c44af96c0a568842ee5ae",
      "assetIds": [
        "55464657044963196816950587289035428064568320970692304673817341489687505668096"
      ],
      "assetValues": [
        1
      ]
    },
    {
      "reservedAddress": "0xcb68ec71201d8e35d177a267cf4e52a9ee972ecb",
      "assetIds": [
        "55464657044963196816950587289035428064568320970692304673817341489687505668096"
      ],
      "assetValues": [
        1
      ]
    },
    {
      "reservedAddress": "0xcb7e9e305fa4afa4cf5b414120c560ad3ed75a53",
      "assetIds": [
        "55464657044963196816950587289035428064568320970692304673817341489687505668096"
      ],
      "assetValues": [
        1
      ]
    },
    {
      "reservedAddress": "0xcb97a9e288e55a2f34ce86fe06f1e6c50b49c6c0",
      "assetIds": [
        "55464657044963196816950587289035428064568320970692304673817341489687505668096"
      ],
      "assetValues": [
        1
      ]
    },
    {
      "reservedAddress": "0xcbac238e343c83524fd4ba1ba0ac2b479f92aec7",
      "assetIds": [
        "55464657044963196816950587289035428064568320970692304673817341489687505668096"
      ],
      "assetValues": [
        1
      ]
    },
    {
      "reservedAddress": "0xcbb0d4c8bc8c6acdc40776fecb0d006779649cbd",
      "assetIds": [
        "55464657044963196816950587289035428064568320970692304673817341489687505668096"
      ],
      "assetValues": [
        1
      ]
    },
    {
      "reservedAddress": "0xcbd1a1deb4e16701d163ee4076be0a9bad01b791",
      "assetIds": [
        "55464657044963196816950587289035428064568320970692304673817341489687505668096"
      ],
      "assetValues": [
        1
      ]
    },
    {
      "reservedAddress": "0xcbe599f8e4777acf7ba7a403072dbc81cc0e2ad8",
      "assetIds": [
        "55464657044963196816950587289035428064568320970692304673817341489687505668096"
      ],
      "assetValues": [
        1
      ]
    },
    {
      "reservedAddress": "0xcc2884f4c3b509c5a92cca8ea525c4734e3037dc",
      "assetIds": [
        "55464657044963196816950587289035428064568320970692304673817341489687505668096"
      ],
      "assetValues": [
        1
      ]
    },
    {
      "reservedAddress": "0xcc2ce68b5efbbc686fcde06b0abdef2044e683d1",
      "assetIds": [
        "55464657044963196816950587289035428064568320970692304673817341489687505668096"
      ],
      "assetValues": [
        1
      ]
    },
    {
      "reservedAddress": "0xcc5f65d8ee278ec6052c66568002bdf0a731b364",
      "assetIds": [
        "55464657044963196816950587289035428064568320970692304673817341489687505668096"
      ],
      "assetValues": [
        1
      ]
    },
    {
      "reservedAddress": "0xcc7ab2f775d52ad43b3d4be1509afce47293c146",
      "assetIds": [
        "55464657044963196816950587289035428064568320970692304673817341489687505668096"
      ],
      "assetValues": [
        1
      ]
    },
    {
      "reservedAddress": "0xcc89eaae1aac15ce1d3a10cb25f9d67463f31c49",
      "assetIds": [
        "55464657044963196816950587289035428064568320970692304673817341489687505668096"
      ],
      "assetValues": [
        1
      ]
    },
    {
      "reservedAddress": "0xcc9abcfb8aefe827b210bcf10e3f34fd2c7991f6",
      "assetIds": [
        "55464657044963196816950587289035428064568320970692304673817341489687505668096"
      ],
      "assetValues": [
        1
      ]
    },
    {
      "reservedAddress": "0xcc9bb8cdc6eb46d35334125070c660fe068d7bd2",
      "assetIds": [
        "55464657044963196816950587289035428064568320970692304673817341489687505668096"
      ],
      "assetValues": [
        1
      ]
    },
    {
      "reservedAddress": "0xccbe50e2990879067ff58f7647438873e5d55009",
      "assetIds": [
        "55464657044963196816950587289035428064568320970692304673817341489687505668096"
      ],
      "assetValues": [
        1
      ]
    },
    {
      "reservedAddress": "0xcced6e6e5df667fc314814d32b9eb6b71655665a",
      "assetIds": [
        "55464657044963196816950587289035428064568320970692304673817341489687505668096"
      ],
      "assetValues": [
        1
      ]
    },
    {
      "reservedAddress": "0xccf24ab392b7e33bfd8a3d37767a31a724313efe",
      "assetIds": [
        "55464657044963196816950587289035428064568320970692304673817341489687505668096"
      ],
      "assetValues": [
        1
      ]
    },
    {
      "reservedAddress": "0xcd4baa67bbc52812fcfa4c277654b561ac995739",
      "assetIds": [
        "55464657044963196816950587289035428064568320970692304673817341489687505668096"
      ],
      "assetValues": [
        1
      ]
    },
    {
      "reservedAddress": "0xcd4fec10c8ad4873e209062b31defb684ff8cb7c",
      "assetIds": [
        "55464657044963196816950587289035428064568320970692304673817341489687505668096"
      ],
      "assetValues": [
        1
      ]
    },
    {
      "reservedAddress": "0xcd5aec89d74d272dd34c4dffce9c111123354e74",
      "assetIds": [
        "55464657044963196816950587289035428064568320970692304673817341489687505668096"
      ],
      "assetValues": [
        1
      ]
    },
    {
      "reservedAddress": "0xcd5ed16396a254e583e4cd3853d94a10a4bc6758",
      "assetIds": [
        "55464657044963196816950587289035428064568320970692304673817341489687505668096"
      ],
      "assetValues": [
        1
      ]
    },
    {
      "reservedAddress": "0xcd6d967c2576ac10cf9c79e306dc103358af88ed",
      "assetIds": [
        "55464657044963196816950587289035428064568320970692304673817341489687505668096"
      ],
      "assetValues": [
        1
      ]
    },
    {
      "reservedAddress": "0xcd6dc47a418ea7bff610d89b33f8353ff2c25202",
      "assetIds": [
        "55464657044963196816950587289035428064568320970692304673817341489687505668096"
      ],
      "assetValues": [
        1
      ]
    },
    {
      "reservedAddress": "0xcd793814531b98c3f9d60b3c18839510224d1069",
      "assetIds": [
        "55464657044963196816950587289035428064568320970692304673817341489687505668096"
      ],
      "assetValues": [
        1
      ]
    },
    {
      "reservedAddress": "0xcd85a0d1f265d3081d703949db392e985e952c24",
      "assetIds": [
        "55464657044963196816950587289035428064568320970692304673817341489687505668096"
      ],
      "assetValues": [
        1
      ]
    },
    {
      "reservedAddress": "0xcd8fe288b00c046303b2dbb65d150f9430a5882c",
      "assetIds": [
        "55464657044963196816950587289035428064568320970692304673817341489687505668096"
      ],
      "assetValues": [
        1
      ]
    },
    {
      "reservedAddress": "0xcd9375d40ff8cf1f34796b364870207a0fd88dec",
      "assetIds": [
        "55464657044963196816950587289035428064568320970692304673817341489687505668096"
      ],
      "assetValues": [
        1
      ]
    },
    {
      "reservedAddress": "0xcd9da2ab6ffa57976b93d3cb01cd5e4959a81bc7",
      "assetIds": [
        "55464657044963196816950587289035428064568320970692304673817341489687505668096"
      ],
      "assetValues": [
        1
      ]
    },
    {
      "reservedAddress": "0xcda1aa6bff0e13e2c963350903ac2ee8d6d48fc3",
      "assetIds": [
        "55464657044963196816950587289035428064568320970692304673817341489687505668096"
      ],
      "assetValues": [
        1
      ]
    },
    {
      "reservedAddress": "0xcdb8a9e44fe855488328cd6cef583b4d4fa08193",
      "assetIds": [
        "55464657044963196816950587289035428064568320970692304673817341489687505668096"
      ],
      "assetValues": [
        1
      ]
    },
    {
      "reservedAddress": "0xcdd755601978ff502f3d016f568ce5a4964bad0c",
      "assetIds": [
        "55464657044963196816950587289035428064568320970692304673817341489687505668096"
      ],
      "assetValues": [
        1
      ]
    },
    {
      "reservedAddress": "0xcddae2489c68aa4e63a8043501e118388f9c5a49",
      "assetIds": [
        "55464657044963196816950587289035428064568320970692304673817341489687505668096"
      ],
      "assetValues": [
        1
      ]
    },
    {
      "reservedAddress": "0xcde9395f6f183601caa5f5251de167531577119f",
      "assetIds": [
        "55464657044963196816950587289035428064568320970692304673817341489687505668096"
      ],
      "assetValues": [
        1
      ]
    },
    {
      "reservedAddress": "0xce039f903915e1a8bdbe417e43c8d0590690c88e",
      "assetIds": [
        "55464657044963196816950587289035428064568320970692304673817341489687505668096"
      ],
      "assetValues": [
        1
      ]
    },
    {
      "reservedAddress": "0xce1369f98f52138a7b6f82b416ddad0318f7c91a",
      "assetIds": [
        "55464657044963196816950587289035428064568320970692304673817341489687505668096"
      ],
      "assetValues": [
        1
      ]
    },
    {
      "reservedAddress": "0xce26f5db0b11590bc5d6fc0e736d35f82b654081",
      "assetIds": [
        "55464657044963196816950587289035428064568320970692304673817341489687505668096"
      ],
      "assetValues": [
        1
      ]
    },
    {
      "reservedAddress": "0xce592561bb826f44c383b115d966e9f4ad88078a",
      "assetIds": [
        "55464657044963196816950587289035428064568320970692304673817341489687505668096"
      ],
      "assetValues": [
        1
      ]
    },
    {
      "reservedAddress": "0xce64b057de6c232065b62d97b77bf423eb69ccb9",
      "assetIds": [
        "55464657044963196816950587289035428064568320970692304673817341489687505668096"
      ],
      "assetValues": [
        1
      ]
    },
    {
      "reservedAddress": "0xce6a1a7d49b2fbeb9e9fb719cb177fbec2154730",
      "assetIds": [
        "55464657044963196816950587289035428064568320970692304673817341489687505668096"
      ],
      "assetValues": [
        1
      ]
    },
    {
      "reservedAddress": "0xce80cdae693ca9c57070fa524e14cd516c0c5cee",
      "assetIds": [
        "55464657044963196816950587289035428064568320970692304673817341489687505668096"
      ],
      "assetValues": [
        1
      ]
    },
    {
      "reservedAddress": "0xce810c1ca6390063aca6c16adc095b2f0603c4ba",
      "assetIds": [
        "55464657044963196816950587289035428064568320970692304673817341489687505668096"
      ],
      "assetValues": [
        1
      ]
    },
    {
      "reservedAddress": "0xce8c6cfdf139209563a99c7d0deeccff9fcb16a9",
      "assetIds": [
        "55464657044963196816950587289035428064568320970692304673817341489687505668096"
      ],
      "assetValues": [
        1
      ]
    },
    {
      "reservedAddress": "0xceae4043d3d2e1e75e8a5fe16bab7176ea9d035c",
      "assetIds": [
        "55464657044963196816950587289035428064568320970692304673817341489687505668096"
      ],
      "assetValues": [
        1
      ]
    },
    {
      "reservedAddress": "0xcec23b3604a60698feea545f3a9d0b34f97c5d09",
      "assetIds": [
        "55464657044963196816950587289035428064568320970692304673817341489687505668096"
      ],
      "assetValues": [
        1
      ]
    },
    {
      "reservedAddress": "0xcec91cb51fbbdf2950ca609ab5fc551716860b51",
      "assetIds": [
        "55464657044963196816950587289035428064568320970692304673817341489687505668096"
      ],
      "assetValues": [
        1
      ]
    },
    {
      "reservedAddress": "0xced608aa29bb92185d9b6340adcbfa263dae075b",
      "assetIds": [
        "55464657044963196816950587289035428064568320970692304673817341489687505668096"
      ],
      "assetValues": [
        1
      ]
    },
    {
      "reservedAddress": "0xcf324385a2e6d44388eee624786b3c36369433bc",
      "assetIds": [
        "55464657044963196816950587289035428064568320970692304673817341489687505668096"
      ],
      "assetValues": [
        1
      ]
    },
    {
      "reservedAddress": "0xcf3726e5edfdcb6ec2decfcf1f46402f2a9175b8",
      "assetIds": [
        "55464657044963196816950587289035428064568320970692304673817341489687505668096"
      ],
      "assetValues": [
        1
      ]
    },
    {
      "reservedAddress": "0xcf4b1269daaf25c1fcb96bb75ebc201c7c6de65a",
      "assetIds": [
        "55464657044963196816950587289035428064568320970692304673817341489687505668096"
      ],
      "assetValues": [
        1
      ]
    },
    {
      "reservedAddress": "0xcf510cc870667a1064085a98d34b49da44d88fc9",
      "assetIds": [
        "55464657044963196816950587289035428064568320970692304673817341489687505668096"
      ],
      "assetValues": [
        1
      ]
    },
    {
      "reservedAddress": "0xcf5ebe07b64bb6b7ff66ba390b0a2c6eb2dedacf",
      "assetIds": [
        "55464657044963196816950587289035428064568320970692304673817341489687505668096"
      ],
      "assetValues": [
        1
      ]
    },
    {
      "reservedAddress": "0xcf61a06c01edefefa9e3f2973171196d637b2bc3",
      "assetIds": [
        "55464657044963196816950587289035428064568320970692304673817341489687505668096"
      ],
      "assetValues": [
        1
      ]
    },
    {
      "reservedAddress": "0xcf76b16888a50b496cdbee835b4ffae9f8f32908",
      "assetIds": [
        "55464657044963196816950587289035428064568320970692304673817341489687505668096"
      ],
      "assetValues": [
        1
      ]
    },
    {
      "reservedAddress": "0xcf7f3dc88c6ff7583f9f53b767e9e738733c3c3a",
      "assetIds": [
        "55464657044963196816950587289035428064568320970692304673817341489687505668096"
      ],
      "assetValues": [
        1
      ]
    },
    {
      "reservedAddress": "0xcf87c65cf5fa973bfa544a2a3acd1e2e3f18a50a",
      "assetIds": [
        "55464657044963196816950587289035428064568320970692304673817341489687505668096"
      ],
      "assetValues": [
        1
      ]
    },
    {
      "reservedAddress": "0xcfa1477e9739a64de77c6562dc145dfb06841b89",
      "assetIds": [
        "55464657044963196816950587289035428064568320970692304673817341489687505668096"
      ],
      "assetValues": [
        1
      ]
    },
    {
      "reservedAddress": "0xcfb285207476cabc70ebe99a2f8eecb45460d27a",
      "assetIds": [
        "55464657044963196816950587289035428064568320970692304673817341489687505668096"
      ],
      "assetValues": [
        1
      ]
    },
    {
      "reservedAddress": "0xcfbd2983f78c70b37632c4c8036fdd9553f258a3",
      "assetIds": [
        "55464657044963196816950587289035428064568320970692304673817341489687505668096"
      ],
      "assetValues": [
        1
      ]
    },
    {
      "reservedAddress": "0xcfbd41c6c2573480b7f4019cf58151b2b48f5eab",
      "assetIds": [
        "55464657044963196816950587289035428064568320970692304673817341489687505668096"
      ],
      "assetValues": [
        1
      ]
    },
    {
      "reservedAddress": "0xcfca8f21f164c29f87b5cb06d5ad938ae565ca11",
      "assetIds": [
        "55464657044963196816950587289035428064568320970692304673817341489687505668096"
      ],
      "assetValues": [
        1
      ]
    },
    {
      "reservedAddress": "0xcfd8dd6d3b1ae7636c8318f51ec0b4f96c576195",
      "assetIds": [
        "55464657044963196816950587289035428064568320970692304673817341489687505668096"
      ],
      "assetValues": [
        1
      ]
    },
    {
      "reservedAddress": "0xcfee73e9c1082ba7f6c00238de7dde1cce61b109",
      "assetIds": [
        "55464657044963196816950587289035428064568320970692304673817341489687505668096"
      ],
      "assetValues": [
        1
      ]
    },
    {
      "reservedAddress": "0xcffad0e20f17eea7597f94d4ff4cabe6a745edb6",
      "assetIds": [
        "55464657044963196816950587289035428064568320970692304673817341489687505668096"
      ],
      "assetValues": [
        1
      ]
    },
    {
      "reservedAddress": "0xd018681591834eb6c6163ad0e12ecfe98e3ca24e",
      "assetIds": [
        "55464657044963196816950587289035428064568320970692304673817341489687505668096"
      ],
      "assetValues": [
        1
      ]
    },
    {
      "reservedAddress": "0xd03a20bfea94773230f77abd9836ed93fe9aca0b",
      "assetIds": [
        "55464657044963196816950587289035428064568320970692304673817341489687505668096"
      ],
      "assetValues": [
        1
      ]
    },
    {
      "reservedAddress": "0xd040baeb020692d62a0ec7811fb6be9b96f9844e",
      "assetIds": [
        "55464657044963196816950587289035428064568320970692304673817341489687505668096"
      ],
      "assetValues": [
        1
      ]
    },
    {
      "reservedAddress": "0xd046b3c521c0f5513c8a47eb3c2011684ea80b27",
      "assetIds": [
        "55464657044963196816950587289035428064568320970692304673817341489687505668096"
      ],
      "assetValues": [
        1
      ]
    },
    {
      "reservedAddress": "0xd0516a8aa1527b8892493a02215c681e72ecaff2",
      "assetIds": [
        "55464657044963196816950587289035428064568320970692304673817341489687505668096"
      ],
      "assetValues": [
        1
      ]
    },
    {
      "reservedAddress": "0xd06a2f3e1d1044a6be69beccf0afc569f6dbbc81",
      "assetIds": [
        "55464657044963196816950587289035428064568320970692304673817341489687505668096"
      ],
      "assetValues": [
        1
      ]
    },
    {
      "reservedAddress": "0xd07a469441fb8f9a911f52058ca9fdaab1b965d7",
      "assetIds": [
        "55464657044963196816950587289035428064568320970692304673817341489687505668096"
      ],
      "assetValues": [
        1
      ]
    },
    {
      "reservedAddress": "0xd07f992158e06681d7ab949bd365150cbafbc281",
      "assetIds": [
        "55464657044963196816950587289035428064568320970692304673817341489687505668096"
      ],
      "assetValues": [
        1
      ]
    },
    {
      "reservedAddress": "0xd08517bf6de3eff1ee58ee8f59a4addb096f12e1",
      "assetIds": [
        "55464657044963196816950587289035428064568320970692304673817341489687505668096"
      ],
      "assetValues": [
        1
      ]
    },
    {
      "reservedAddress": "0xd0b56884cfe6e496ee21d78b5ee655a39f7530c4",
      "assetIds": [
        "55464657044963196816950587289035428064568320970692304673817341489687505668096"
      ],
      "assetValues": [
        1
      ]
    },
    {
      "reservedAddress": "0xd0c3339848fb597abd46fa650e3e411715f0bfb8",
      "assetIds": [
        "55464657044963196816950587289035428064568320970692304673817341489687505668096"
      ],
      "assetValues": [
        1
      ]
    },
    {
      "reservedAddress": "0xd0c877b474cd51959931a7f70d7a6c60f50cdae7",
      "assetIds": [
        "55464657044963196816950587289035428064568320970692304673817341489687505668096"
      ],
      "assetValues": [
        1
      ]
    },
    {
      "reservedAddress": "0xd0cf2d5eea10c741f2d66dd3a4081c463d2682fe",
      "assetIds": [
        "55464657044963196816950587289035428064568320970692304673817341489687505668096"
      ],
      "assetValues": [
        1
      ]
    },
    {
      "reservedAddress": "0xd119af57078e97e49350adb7f0f93398444fcf0f",
      "assetIds": [
        "55464657044963196816950587289035428064568320970692304673817341489687505668096"
      ],
      "assetValues": [
        1
      ]
    },
    {
      "reservedAddress": "0xd119e26b9f57a9656e2d1f516f055b820c6333dd",
      "assetIds": [
        "55464657044963196816950587289035428064568320970692304673817341489687505668096"
      ],
      "assetValues": [
        1
      ]
    },
    {
      "reservedAddress": "0xd1297fbc37295462322f28881dbd9a557d4317e0",
      "assetIds": [
        "55464657044963196816950587289035428064568320970692304673817341489687505668096"
      ],
      "assetValues": [
        1
      ]
    },
    {
      "reservedAddress": "0xd138bb878d632f99d181f2dcbce3f934b2dcb474",
      "assetIds": [
        "55464657044963196816950587289035428064568320970692304673817341489687505668096"
      ],
      "assetValues": [
        1
      ]
    },
    {
      "reservedAddress": "0xd1a19ae358c9ed941497ceac66478ac185e9a139",
      "assetIds": [
        "55464657044963196816950587289035428064568320970692304673817341489687505668096"
      ],
      "assetValues": [
        1
      ]
    },
    {
      "reservedAddress": "0xd1abd24e8615f27a252cf65f933f5b1abd1f51cd",
      "assetIds": [
        "55464657044963196816950587289035428064568320970692304673817341489687505668096"
      ],
      "assetValues": [
        1
      ]
    },
    {
      "reservedAddress": "0xd1af5e753c15df016e9cd19a0dbf247457e6db89",
      "assetIds": [
        "55464657044963196816950587289035428064568320970692304673817341489687505668096"
      ],
      "assetValues": [
        1
      ]
    },
    {
      "reservedAddress": "0xd1d618d67b643bd1f09c8ca7ee68ff929fd602b0",
      "assetIds": [
        "55464657044963196816950587289035428064568320970692304673817341489687505668096"
      ],
      "assetValues": [
        1
      ]
    },
    {
      "reservedAddress": "0xd1f32d718c6434278238fecd6a49f48d4db2f513",
      "assetIds": [
        "55464657044963196816950587289035428064568320970692304673817341489687505668096"
      ],
      "assetValues": [
        1
      ]
    },
    {
      "reservedAddress": "0xd1f33cff36494975fb724ba05627107cabf8b7e4",
      "assetIds": [
        "55464657044963196816950587289035428064568320970692304673817341489687505668096"
      ],
      "assetValues": [
        1
      ]
    },
    {
      "reservedAddress": "0xd221244685aa917080c3f33a36a7a0d4617edae5",
      "assetIds": [
        "55464657044963196816950587289035428064568320970692304673817341489687505668096"
      ],
      "assetValues": [
        1
      ]
    },
    {
      "reservedAddress": "0xd24b4f9bf4743c597ac59ecde086194a754c56bb",
      "assetIds": [
        "55464657044963196816950587289035428064568320970692304673817341489687505668096"
      ],
      "assetValues": [
        1
      ]
    },
    {
      "reservedAddress": "0xd264866b03944ca966e8f7bfb88c7b1ed55bbedd",
      "assetIds": [
        "55464657044963196816950587289035428064568320970692304673817341489687505668096"
      ],
      "assetValues": [
        1
      ]
    },
    {
      "reservedAddress": "0xd26e2f36e55ede92eed6613a32b987b7e8d61e09",
      "assetIds": [
        "55464657044963196816950587289035428064568320970692304673817341489687505668096"
      ],
      "assetValues": [
        1
      ]
    },
    {
      "reservedAddress": "0xd26ea3261a0e069554b62fbcc3c7fa9e80e15304",
      "assetIds": [
        "55464657044963196816950587289035428064568320970692304673817341489687505668096"
      ],
      "assetValues": [
        1
      ]
    },
    {
      "reservedAddress": "0xd27de71dc298f87e38c1cf8617239f0799258702",
      "assetIds": [
        "55464657044963196816950587289035428064568320970692304673817341489687505668096"
      ],
      "assetValues": [
        1
      ]
    },
    {
      "reservedAddress": "0xd2b2523eba6f19243c01f83d704f0cb3dae21787",
      "assetIds": [
        "55464657044963196816950587289035428064568320970692304673817341489687505668096"
      ],
      "assetValues": [
        1
      ]
    },
    {
      "reservedAddress": "0xd2e7ffdc2e81bdaf1968ecc7ca960612d646ecca",
      "assetIds": [
        "55464657044963196816950587289035428064568320970692304673817341489687505668096"
      ],
      "assetValues": [
        1
      ]
    },
    {
      "reservedAddress": "0xd2fb915130e092c25428149f631368f167d67683",
      "assetIds": [
        "55464657044963196816950587289035428064568320970692304673817341489687505668096"
      ],
      "assetValues": [
        1
      ]
    },
    {
      "reservedAddress": "0xd302037df04782c9aaf0beae7bf07d5043aed419",
      "assetIds": [
        "55464657044963196816950587289035428064568320970692304673817341489687505668096"
      ],
      "assetValues": [
        1
      ]
    },
    {
      "reservedAddress": "0xd30391e21741c54c32987bcfca3d880e6d261cb0",
      "assetIds": [
        "55464657044963196816950587289035428064568320970692304673817341489687505668096"
      ],
      "assetValues": [
        1
      ]
    },
    {
      "reservedAddress": "0xd30cf11ff9efa0c9f5b0e018686a4e9640720a4d",
      "assetIds": [
        "55464657044963196816950587289035428064568320970692304673817341489687505668096"
      ],
      "assetValues": [
        1
      ]
    },
    {
      "reservedAddress": "0xd311e934d9a1d9f71004976cd0268fd25f9cb77f",
      "assetIds": [
        "55464657044963196816950587289035428064568320970692304673817341489687505668096"
      ],
      "assetValues": [
        1
      ]
    },
    {
      "reservedAddress": "0xd32c9aaa32730460b673fcf3a4fad1df35da819d",
      "assetIds": [
        "55464657044963196816950587289035428064568320970692304673817341489687505668096"
      ],
      "assetValues": [
        1
      ]
    },
    {
      "reservedAddress": "0xd33ad2710f2ed5f0a2d6d89e365221b9d5401290",
      "assetIds": [
        "55464657044963196816950587289035428064568320970692304673817341489687505668096"
      ],
      "assetValues": [
        1
      ]
    },
    {
      "reservedAddress": "0xd376a6bbe9c88d9fe7a51bc79cb4557880b1132a",
      "assetIds": [
        "55464657044963196816950587289035428064568320970692304673817341489687505668096"
      ],
      "assetValues": [
        1
      ]
    },
    {
      "reservedAddress": "0xd37d0fb9189b585a97d27b2ddb1843504132c74a",
      "assetIds": [
        "55464657044963196816950587289035428064568320970692304673817341489687505668096"
      ],
      "assetValues": [
        1
      ]
    },
    {
      "reservedAddress": "0xd37de1e0078eac4e96e267b5e0153b6eead369a5",
      "assetIds": [
        "55464657044963196816950587289035428064568320970692304673817341489687505668096"
      ],
      "assetValues": [
        1
      ]
    },
    {
      "reservedAddress": "0xd393f4a33fa280dcb00a536a66a50386c47daa6a",
      "assetIds": [
        "55464657044963196816950587289035428064568320970692304673817341489687505668096"
      ],
      "assetValues": [
        1
      ]
    },
    {
      "reservedAddress": "0xd3aecf9e0856822bd320873e905ae9f78a2977e7",
      "assetIds": [
        "55464657044963196816950587289035428064568320970692304673817341489687505668096"
      ],
      "assetValues": [
        1
      ]
    },
    {
      "reservedAddress": "0xd3b9138cd344ca721eb9ee1d43e82bb98aa54835",
      "assetIds": [
        "55464657044963196816950587289035428064568320970692304673817341489687505668096"
      ],
      "assetValues": [
        1
      ]
    },
    {
      "reservedAddress": "0xd3f714357a3a5ab971941ca475a006814edd0d2b",
      "assetIds": [
        "55464657044963196816950587289035428064568320970692304673817341489687505668096"
      ],
      "assetValues": [
        1
      ]
    },
    {
      "reservedAddress": "0xd40de68e7649036834b25e37c3e8c71fe597a473",
      "assetIds": [
        "55464657044963196816950587289035428064568320970692304673817341489687505668096"
      ],
      "assetValues": [
        1
      ]
    },
    {
      "reservedAddress": "0xd415d2f890bff9b238aa4fc893f6a254f06cb4d9",
      "assetIds": [
        "55464657044963196816950587289035428064568320970692304673817341489687505668096"
      ],
      "assetValues": [
        1
      ]
    },
    {
      "reservedAddress": "0xd449175208274b6d9084edbf89e3a3879f9babb2",
      "assetIds": [
        "55464657044963196816950587289035428064568320970692304673817341489687505668096"
      ],
      "assetValues": [
        1
      ]
    },
    {
      "reservedAddress": "0xd46f7c5b3661bb2e4a81cd1eeef7fa8acff43491",
      "assetIds": [
        "55464657044963196816950587289035428064568320970692304673817341489687505668096"
      ],
      "assetValues": [
        1
      ]
    },
    {
      "reservedAddress": "0xd475c663544155529781322497b23ca4951cc194",
      "assetIds": [
        "55464657044963196816950587289035428064568320970692304673817341489687505668096"
      ],
      "assetValues": [
        1
      ]
    },
    {
      "reservedAddress": "0xd47da26264500ddc4da7c37d1ba77f7917d0bbd1",
      "assetIds": [
        "55464657044963196816950587289035428064568320970692304673817341489687505668096"
      ],
      "assetValues": [
        1
      ]
    },
    {
      "reservedAddress": "0xd493370434f81d0d9cb4b49d2b716635dab67b0c",
      "assetIds": [
        "55464657044963196816950587289035428064568320970692304673817341489687505668096"
      ],
      "assetValues": [
        1
      ]
    },
    {
      "reservedAddress": "0xd4c675708f91943802cf1917589706dfd6c5a0ab",
      "assetIds": [
        "55464657044963196816950587289035428064568320970692304673817341489687505668096"
      ],
      "assetValues": [
        1
      ]
    },
    {
      "reservedAddress": "0xd4d350e0e7730660e6cdf532d613cdfe775d6513",
      "assetIds": [
        "55464657044963196816950587289035428064568320970692304673817341489687505668096"
      ],
      "assetValues": [
        1
      ]
    },
    {
      "reservedAddress": "0xd50f6d1e35ce18be27373b28be33cb30393d3ba5",
      "assetIds": [
        "55464657044963196816950587289035428064568320970692304673817341489687505668096"
      ],
      "assetValues": [
        1
      ]
    },
    {
      "reservedAddress": "0xd514f2065fde42a02c73c913735e8e5a2fcc085e",
      "assetIds": [
        "55464657044963196816950587289035428064568320970692304673817341489687505668096"
      ],
      "assetValues": [
        1
      ]
    },
    {
      "reservedAddress": "0xd5157866f7bb8f490e13aba960f689178635ead2",
      "assetIds": [
        "55464657044963196816950587289035428064568320970692304673817341489687505668096"
      ],
      "assetValues": [
        1
      ]
    },
    {
      "reservedAddress": "0xd5272d601966d295b28fd2a506e77b00d7edb45a",
      "assetIds": [
        "55464657044963196816950587289035428064568320970692304673817341489687505668096"
      ],
      "assetValues": [
        1
      ]
    },
    {
      "reservedAddress": "0xd535889fc935dd58009f4e14b1ce3d41a83473ae",
      "assetIds": [
        "55464657044963196816950587289035428064568320970692304673817341489687505668096"
      ],
      "assetValues": [
        1
      ]
    },
    {
      "reservedAddress": "0xd590b7b94d870c95513d924c4b65c2ac87e84cb6",
      "assetIds": [
        "55464657044963196816950587289035428064568320970692304673817341489687505668096"
      ],
      "assetValues": [
        1
      ]
    },
    {
      "reservedAddress": "0xd59c88ab107d1e13b773aa63865382e5bbfb1fd4",
      "assetIds": [
        "55464657044963196816950587289035428064568320970692304673817341489687505668096"
      ],
      "assetValues": [
        1
      ]
    },
    {
      "reservedAddress": "0xd5a073c2d63b71187fa7546787a414fca87033fa",
      "assetIds": [
        "55464657044963196816950587289035428064568320970692304673817341489687505668096"
      ],
      "assetValues": [
        1
      ]
    },
    {
      "reservedAddress": "0xd5ab9e8547d89ae4aca4514baf466bd1a5680561",
      "assetIds": [
        "55464657044963196816950587289035428064568320970692304673817341489687505668096"
      ],
      "assetValues": [
        1
      ]
    },
    {
      "reservedAddress": "0xd5c042c22974d5103f906d6b5651c3dba153eedf",
      "assetIds": [
        "55464657044963196816950587289035428064568320970692304673817341489687505668096"
      ],
      "assetValues": [
        1
      ]
    },
    {
      "reservedAddress": "0xd5c72465457ff7c8b5095b3bb72825e284f3ef85",
      "assetIds": [
        "55464657044963196816950587289035428064568320970692304673817341489687505668096"
      ],
      "assetValues": [
        1
      ]
    },
    {
      "reservedAddress": "0xd5d65c4abf1b7a0d2cbfac530f30479716222d5c",
      "assetIds": [
        "55464657044963196816950587289035428064568320970692304673817341489687505668096"
      ],
      "assetValues": [
        1
      ]
    },
    {
      "reservedAddress": "0xd60599fc50c90c62d0def2019c2e954ec21013db",
      "assetIds": [
        "55464657044963196816950587289035428064568320970692304673817341489687505668096"
      ],
      "assetValues": [
        1
      ]
    },
    {
      "reservedAddress": "0xd60943b0d4ec9eb186e88c58dff87ab930c13901",
      "assetIds": [
        "55464657044963196816950587289035428064568320970692304673817341489687505668096"
      ],
      "assetValues": [
        1
      ]
    },
    {
      "reservedAddress": "0xd62d284e404ade4f76dd7095a135639fe953d331",
      "assetIds": [
        "55464657044963196816950587289035428064568320970692304673817341489687505668096"
      ],
      "assetValues": [
        1
      ]
    },
    {
      "reservedAddress": "0xd63299e65f1c66bb5303f7b4040ca4ef6a88ed5e",
      "assetIds": [
        "55464657044963196816950587289035428064568320970692304673817341489687505668096"
      ],
      "assetValues": [
        1
      ]
    },
    {
      "reservedAddress": "0xd66592aa2567e97318dfcabae6572348f998c127",
      "assetIds": [
        "55464657044963196816950587289035428064568320970692304673817341489687505668096"
      ],
      "assetValues": [
        1
      ]
    },
    {
      "reservedAddress": "0xd67c96873c6bf8929f55fedf81fc97214da68604",
      "assetIds": [
        "55464657044963196816950587289035428064568320970692304673817341489687505668096"
      ],
      "assetValues": [
        1
      ]
    },
    {
      "reservedAddress": "0xd6b533c21c3769227c53837745ace32c063c79a5",
      "assetIds": [
        "55464657044963196816950587289035428064568320970692304673817341489687505668096"
      ],
      "assetValues": [
        1
      ]
    },
    {
      "reservedAddress": "0xd6cf9db028728abd9b1080375b295b82db2db85f",
      "assetIds": [
        "55464657044963196816950587289035428064568320970692304673817341489687505668096"
      ],
      "assetValues": [
        1
      ]
    },
    {
      "reservedAddress": "0xd6d6533a41f5c5dd4d10cef8a008217b3a6532a2",
      "assetIds": [
        "55464657044963196816950587289035428064568320970692304673817341489687505668096"
      ],
      "assetValues": [
        1
      ]
    },
    {
      "reservedAddress": "0xd6e2b9696dc45642ebb84bb789ed68d2354d774d",
      "assetIds": [
        "55464657044963196816950587289035428064568320970692304673817341489687505668096"
      ],
      "assetValues": [
        1
      ]
    },
    {
      "reservedAddress": "0xd6ebd7b8e94fd8f36c99beed7976b9fa096e4a39",
      "assetIds": [
        "55464657044963196816950587289035428064568320970692304673817341489687505668096"
      ],
      "assetValues": [
        1
      ]
    },
    {
      "reservedAddress": "0xd6f15acaccfade57e2edd32d89f708668653b26e",
      "assetIds": [
        "55464657044963196816950587289035428064568320970692304673817341489687505668096"
      ],
      "assetValues": [
        1
      ]
    },
    {
      "reservedAddress": "0xd71928d635e906406eebbf99d8ebbd05bdc7a48a",
      "assetIds": [
        "55464657044963196816950587289035428064568320970692304673817341489687505668096"
      ],
      "assetValues": [
        1
      ]
    },
    {
      "reservedAddress": "0xd73bedae5de167deba6d89004ba8b88798bd7b27",
      "assetIds": [
        "55464657044963196816950587289035428064568320970692304673817341489687505668096"
      ],
      "assetValues": [
        1
      ]
    },
    {
      "reservedAddress": "0xd766c35684da0a61434842edb2a43b7f0c7161e2",
      "assetIds": [
        "55464657044963196816950587289035428064568320970692304673817341489687505668096"
      ],
      "assetValues": [
        1
      ]
    },
    {
      "reservedAddress": "0xd7affe7458d8b62dd303044557a11043981b72d2",
      "assetIds": [
        "55464657044963196816950587289035428064568320970692304673817341489687505668096"
      ],
      "assetValues": [
        1
      ]
    },
    {
      "reservedAddress": "0xd7f2c12f0a24a5c9dc51f5d1cad0f04de7ed022b",
      "assetIds": [
        "55464657044963196816950587289035428064568320970692304673817341489687505668096"
      ],
      "assetValues": [
        1
      ]
    },
    {
      "reservedAddress": "0xd7f82d004e49961f7e990ed28bf88c90e5884d97",
      "assetIds": [
        "55464657044963196816950587289035428064568320970692304673817341489687505668096"
      ],
      "assetValues": [
        1
      ]
    },
    {
      "reservedAddress": "0xd8063ee97405484a008e217a6daa35b6b61ad7a8",
      "assetIds": [
        "55464657044963196816950587289035428064568320970692304673817341489687505668096"
      ],
      "assetValues": [
        1
      ]
    },
    {
      "reservedAddress": "0xd81a19b8b3be4912018b32ad634c0ca873f45189",
      "assetIds": [
        "55464657044963196816950587289035428064568320970692304673817341489687505668096"
      ],
      "assetValues": [
        1
      ]
    },
    {
      "reservedAddress": "0xd81ac28dca9b4895d21f1003d2757a57c0d988ef",
      "assetIds": [
        "55464657044963196816950587289035428064568320970692304673817341489687505668096"
      ],
      "assetValues": [
        1
      ]
    },
    {
      "reservedAddress": "0xd81be2dd1fe5e3f9aada3ffea6d64e62506edacc",
      "assetIds": [
        "55464657044963196816950587289035428064568320970692304673817341489687505668096"
      ],
      "assetValues": [
        1
      ]
    },
    {
      "reservedAddress": "0xd84ae2bea7b3129d2cc69cfffd541b60c1ce6952",
      "assetIds": [
        "55464657044963196816950587289035428064568320970692304673817341489687505668096"
      ],
      "assetValues": [
        1
      ]
    },
    {
      "reservedAddress": "0xd8622dafa7dd10a567534ca5b0f31c2f7d392785",
      "assetIds": [
        "55464657044963196816950587289035428064568320970692304673817341489687505668096"
      ],
      "assetValues": [
        1
      ]
    },
    {
      "reservedAddress": "0xd86d6a09dc717fe99c2dc6b2e1be12004f06d10d",
      "assetIds": [
        "55464657044963196816950587289035428064568320970692304673817341489687505668096"
      ],
      "assetValues": [
        1
      ]
    },
    {
      "reservedAddress": "0xd8780abdfacdd152efc45d27c69199b2611cff36",
      "assetIds": [
        "55464657044963196816950587289035428064568320970692304673817341489687505668096"
      ],
      "assetValues": [
        1
      ]
    },
    {
      "reservedAddress": "0xd8affbf3cb0587e3e6750c65ef205039d6715e23",
      "assetIds": [
        "55464657044963196816950587289035428064568320970692304673817341489687505668096"
      ],
      "assetValues": [
        1
      ]
    },
    {
      "reservedAddress": "0xd8c9ac59dfa8d59a66e9fc055fbb5f99ecb5ee16",
      "assetIds": [
        "55464657044963196816950587289035428064568320970692304673817341489687505668096"
      ],
      "assetValues": [
        1
      ]
    },
    {
      "reservedAddress": "0xd8d9278c7f41974bc36151424da63bbe1ee66790",
      "assetIds": [
        "55464657044963196816950587289035428064568320970692304673817341489687505668096"
      ],
      "assetValues": [
        1
      ]
    },
    {
      "reservedAddress": "0xd8ed7adfb9884203d7f50f2f2abf29d3285ab3df",
      "assetIds": [
        "55464657044963196816950587289035428064568320970692304673817341489687505668096"
      ],
      "assetValues": [
        1
      ]
    },
    {
      "reservedAddress": "0xd907d3709e74b07f24fe159b435b2cebf0495062",
      "assetIds": [
        "55464657044963196816950587289035428064568320970692304673817341489687505668096"
      ],
      "assetValues": [
        1
      ]
    },
    {
      "reservedAddress": "0xd94b9bec764b7f16bd7ce3dc74ab8c936fb60573",
      "assetIds": [
        "55464657044963196816950587289035428064568320970692304673817341489687505668096"
      ],
      "assetValues": [
        1
      ]
    },
    {
      "reservedAddress": "0xd96a36a23161a73f55ac30e414e55d9ca2d6eaf1",
      "assetIds": [
        "55464657044963196816950587289035428064568320970692304673817341489687505668096"
      ],
      "assetValues": [
        1
      ]
    },
    {
      "reservedAddress": "0xd96e09913ee3e3afafe0921e2baf973aac8483d9",
      "assetIds": [
        "55464657044963196816950587289035428064568320970692304673817341489687505668096"
      ],
      "assetValues": [
        1
      ]
    },
    {
      "reservedAddress": "0xd976406cf6485ebaa86c26fe05added6730c0e1b",
      "assetIds": [
        "55464657044963196816950587289035428064568320970692304673817341489687505668096"
      ],
      "assetValues": [
        1
      ]
    },
    {
      "reservedAddress": "0xd9998d18c63a9caf0fdc64068c0765a3397c83a7",
      "assetIds": [
        "55464657044963196816950587289035428064568320970692304673817341489687505668096"
      ],
      "assetValues": [
        1
      ]
    },
    {
      "reservedAddress": "0xd99e4388e5cc567a393e7dada85e2ddda0fb68cf",
      "assetIds": [
        "55464657044963196816950587289035428064568320970692304673817341489687505668096"
      ],
      "assetValues": [
        1
      ]
    },
    {
      "reservedAddress": "0xd9a193131025f02800c6313781ffbce8e619c401",
      "assetIds": [
        "55464657044963196816950587289035428064568320970692304673817341489687505668096"
      ],
      "assetValues": [
        1
      ]
    },
    {
      "reservedAddress": "0xd9cb618e01e366a34c1ce89678f70753041767df",
      "assetIds": [
        "55464657044963196816950587289035428064568320970692304673817341489687505668096"
      ],
      "assetValues": [
        1
      ]
    },
    {
      "reservedAddress": "0xd9cc8ddabe7602c1863f4ec37d01c2882004b2d6",
      "assetIds": [
        "55464657044963196816950587289035428064568320970692304673817341489687505668096"
      ],
      "assetValues": [
        1
      ]
    },
    {
      "reservedAddress": "0xd9e8d15c616167f3ebf860b9adbd5bc1a006382e",
      "assetIds": [
        "55464657044963196816950587289035428064568320970692304673817341489687505668096"
      ],
      "assetValues": [
        1
      ]
    },
    {
      "reservedAddress": "0xd9f8f8a5d9ce34aeb2d94d0130d16d5668888250",
      "assetIds": [
        "55464657044963196816950587289035428064568320970692304673817341489687505668096"
      ],
      "assetValues": [
        1
      ]
    },
    {
      "reservedAddress": "0xda0415d732d6f3b8db8dc4f312fe214307e497ee",
      "assetIds": [
        "55464657044963196816950587289035428064568320970692304673817341489687505668096"
      ],
      "assetValues": [
        1
      ]
    },
    {
      "reservedAddress": "0xda152e1863a72616511fcf99186a87bb63277917",
      "assetIds": [
        "55464657044963196816950587289035428064568320970692304673817341489687505668096"
      ],
      "assetValues": [
        1
      ]
    },
    {
      "reservedAddress": "0xda3b087305a72574ec8414b83ce19ee9c1c4a600",
      "assetIds": [
        "55464657044963196816950587289035428064568320970692304673817341489687505668096"
      ],
      "assetValues": [
        1
      ]
    },
    {
      "reservedAddress": "0xda6659ad8f8e0e49f0643c00c8a71325d891f892",
      "assetIds": [
        "55464657044963196816950587289035428064568320970692304673817341489687505668096"
      ],
      "assetValues": [
        1
      ]
    },
    {
      "reservedAddress": "0xda82b5e456599de652752a557b85d5019b83ec00",
      "assetIds": [
        "55464657044963196816950587289035428064568320970692304673817341489687505668096"
      ],
      "assetValues": [
        1
      ]
    },
    {
      "reservedAddress": "0xdab7c13588c8c4ca93de046a15121afc5879ad1c",
      "assetIds": [
        "55464657044963196816950587289035428064568320970692304673817341489687505668096"
      ],
      "assetValues": [
        1
      ]
    },
    {
      "reservedAddress": "0xdac1943ee0cd62044617f0c830391c04eeb03455",
      "assetIds": [
        "55464657044963196816950587289035428064568320970692304673817341489687505668096"
      ],
      "assetValues": [
        1
      ]
    },
    {
      "reservedAddress": "0xdac21de83b7a99745b040808147b16f8f1f71191",
      "assetIds": [
        "55464657044963196816950587289035428064568320970692304673817341489687505668096"
      ],
      "assetValues": [
        1
      ]
    },
    {
      "reservedAddress": "0xdac9a18db000dac78db4d00fc6cec99ddc7e0a37",
      "assetIds": [
        "55464657044963196816950587289035428064568320970692304673817341489687505668096"
      ],
      "assetValues": [
        1
      ]
    },
    {
      "reservedAddress": "0xdad49d5196baa31bce95cf50308a49d7bc172440",
      "assetIds": [
        "55464657044963196816950587289035428064568320970692304673817341489687505668096"
      ],
      "assetValues": [
        1
      ]
    },
    {
      "reservedAddress": "0xdad6fa25f61a14a8320fb81af26903bfb57f270d",
      "assetIds": [
        "55464657044963196816950587289035428064568320970692304673817341489687505668096"
      ],
      "assetValues": [
        1
      ]
    },
    {
      "reservedAddress": "0xdb060d8ef2db0224e2111b44947fb0c47a8d6131",
      "assetIds": [
        "55464657044963196816950587289035428064568320970692304673817341489687505668096"
      ],
      "assetValues": [
        1
      ]
    },
    {
      "reservedAddress": "0xdb078c7b23f90f9d7e39097db0958d122f36d728",
      "assetIds": [
        "55464657044963196816950587289035428064568320970692304673817341489687505668096"
      ],
      "assetValues": [
        1
      ]
    },
    {
      "reservedAddress": "0xdb0c6f3108ca6b244286b08cb7d1d0ba6b5a8444",
      "assetIds": [
        "55464657044963196816950587289035428064568320970692304673817341489687505668096"
      ],
      "assetValues": [
        1
      ]
    },
    {
      "reservedAddress": "0xdb7296d0ed965f07bf2ac6392e4253609aee2198",
      "assetIds": [
        "55464657044963196816950587289035428064568320970692304673817341489687505668096"
      ],
      "assetValues": [
        1
      ]
    },
    {
      "reservedAddress": "0xdb8147ab8e79c7ada385a2abbe8d6cd791190f78",
      "assetIds": [
        "55464657044963196816950587289035428064568320970692304673817341489687505668096"
      ],
      "assetValues": [
        1
      ]
    },
    {
      "reservedAddress": "0xdb8cec459b905f94614e796a3741b0b7ba6350d2",
      "assetIds": [
        "55464657044963196816950587289035428064568320970692304673817341489687505668096"
      ],
      "assetValues": [
        1
      ]
    },
    {
      "reservedAddress": "0xdb9f1c06919adf39230e7441fc64b3c746f4de3e",
      "assetIds": [
        "55464657044963196816950587289035428064568320970692304673817341489687505668096"
      ],
      "assetValues": [
        1
      ]
    },
    {
      "reservedAddress": "0xdba9648ff976995bd31d9ee9a76d2a95813d6b6b",
      "assetIds": [
        "55464657044963196816950587289035428064568320970692304673817341489687505668096"
      ],
      "assetValues": [
        1
      ]
    },
    {
      "reservedAddress": "0xdbb59151b18dd72e9ac092706e93de5b5d7a9325",
      "assetIds": [
        "55464657044963196816950587289035428064568320970692304673817341489687505668096"
      ],
      "assetValues": [
        1
      ]
    },
    {
      "reservedAddress": "0xdbbf982063e1efeb950892efdc262062467700ab",
      "assetIds": [
        "55464657044963196816950587289035428064568320970692304673817341489687505668096"
      ],
      "assetValues": [
        1
      ]
    },
    {
      "reservedAddress": "0xdbd3b0f6a8a9eb2bb5d968d26e5565a4448919ac",
      "assetIds": [
        "55464657044963196816950587289035428064568320970692304673817341489687505668096"
      ],
      "assetValues": [
        1
      ]
    },
    {
      "reservedAddress": "0xdc64fec1894c360d4bf9654b0080d6a23612bcda",
      "assetIds": [
        "55464657044963196816950587289035428064568320970692304673817341489687505668096"
      ],
      "assetValues": [
        1
      ]
    },
    {
      "reservedAddress": "0xdc7cf74718321d647e550222c9b9955b7d8ce47e",
      "assetIds": [
        "55464657044963196816950587289035428064568320970692304673817341489687505668096"
      ],
      "assetValues": [
        1
      ]
    },
    {
      "reservedAddress": "0xdcbee0643b7d920da6c64f60ad31fb5be473e781",
      "assetIds": [
        "55464657044963196816950587289035428064568320970692304673817341489687505668096"
      ],
      "assetValues": [
        1
      ]
    },
    {
      "reservedAddress": "0xdcc1f0af33526f1fc3905fb0104d81919d2e1571",
      "assetIds": [
        "55464657044963196816950587289035428064568320970692304673817341489687505668096"
      ],
      "assetValues": [
        1
      ]
    },
    {
      "reservedAddress": "0xdcc44cbdfa7e9b6a874d93fbcfafc199a5d7c063",
      "assetIds": [
        "55464657044963196816950587289035428064568320970692304673817341489687505668096"
      ],
      "assetValues": [
        1
      ]
    },
    {
      "reservedAddress": "0xdcc9a1adeca6eef3f29ac95b78f5a6df45ce14b2",
      "assetIds": [
        "55464657044963196816950587289035428064568320970692304673817341489687505668096"
      ],
      "assetValues": [
        1
      ]
    },
    {
      "reservedAddress": "0xdcd436658711224b2474387ec9812991b19480c5",
      "assetIds": [
        "55464657044963196816950587289035428064568320970692304673817341489687505668096"
      ],
      "assetValues": [
        1
      ]
    },
    {
      "reservedAddress": "0xdcda4d0dc12713d8121c349c43731cd038a619e3",
      "assetIds": [
        "55464657044963196816950587289035428064568320970692304673817341489687505668096"
      ],
      "assetValues": [
        1
      ]
    },
    {
      "reservedAddress": "0xdce52ff71a87f968b2aca01a8ea1f073a73dcbf9",
      "assetIds": [
        "55464657044963196816950587289035428064568320970692304673817341489687505668096"
      ],
      "assetValues": [
        1
      ]
    },
    {
      "reservedAddress": "0xdcf95979f30a4f580599d1eb19021191d8269798",
      "assetIds": [
        "55464657044963196816950587289035428064568320970692304673817341489687505668096"
      ],
      "assetValues": [
        1
      ]
    },
    {
      "reservedAddress": "0xdcf9b38c1ede3256372502b6c3933eb2468e15ff",
      "assetIds": [
        "55464657044963196816950587289035428064568320970692304673817341489687505668096"
      ],
      "assetValues": [
        1
      ]
    },
    {
      "reservedAddress": "0xdd07d31f99840faf2e168e82a667a0dc4a159b6e",
      "assetIds": [
        "55464657044963196816950587289035428064568320970692304673817341489687505668096"
      ],
      "assetValues": [
        1
      ]
    },
    {
      "reservedAddress": "0xdd0a4223b501176c1ce551185c09c1ab0bc0599c",
      "assetIds": [
        "55464657044963196816950587289035428064568320970692304673817341489687505668096"
      ],
      "assetValues": [
        1
      ]
    },
    {
      "reservedAddress": "0xdd0bc30c507bdf975031f402fd49404ec897395c",
      "assetIds": [
        "55464657044963196816950587289035428064568320970692304673817341489687505668096"
      ],
      "assetValues": [
        1
      ]
    },
    {
      "reservedAddress": "0xdd49f678e116665180863f34debb9c9f2bda2406",
      "assetIds": [
        "55464657044963196816950587289035428064568320970692304673817341489687505668096"
      ],
      "assetValues": [
        1
      ]
    },
    {
      "reservedAddress": "0xdd5a223f9782fdd2da1ca0f6c5d9710ff28199ce",
      "assetIds": [
        "55464657044963196816950587289035428064568320970692304673817341489687505668096"
      ],
      "assetValues": [
        1
      ]
    },
    {
      "reservedAddress": "0xddab40fadc48ed1bee86044558cd415d6036076b",
      "assetIds": [
        "55464657044963196816950587289035428064568320970692304673817341489687505668096"
      ],
      "assetValues": [
        1
      ]
    },
    {
      "reservedAddress": "0xddac38ae13fc79f18fdc008c1cc3fc78acae971c",
      "assetIds": [
        "55464657044963196816950587289035428064568320970692304673817341489687505668096"
      ],
      "assetValues": [
        1
      ]
    },
    {
      "reservedAddress": "0xddd0ef442d8af0e350751decd5235dd85a4bbbe8",
      "assetIds": [
        "55464657044963196816950587289035428064568320970692304673817341489687505668096"
      ],
      "assetValues": [
        1
      ]
    },
    {
      "reservedAddress": "0xdde40d8d682013ea2b0b7cfd219879387cde2f25",
      "assetIds": [
        "55464657044963196816950587289035428064568320970692304673817341489687505668096"
      ],
      "assetValues": [
        1
      ]
    },
    {
      "reservedAddress": "0xdde471d1dad5352a461eebddffa67a695fb414eb",
      "assetIds": [
        "55464657044963196816950587289035428064568320970692304673817341489687505668096"
      ],
      "assetValues": [
        1
      ]
    },
    {
      "reservedAddress": "0xddf2be9fc5f3fcea8aa87636a2127057f3c8a32f",
      "assetIds": [
        "55464657044963196816950587289035428064568320970692304673817341489687505668096"
      ],
      "assetValues": [
        1
      ]
    },
    {
      "reservedAddress": "0xddf48f62e07c2e9f689ae903255d090e9bb9d725",
      "assetIds": [
        "55464657044963196816950587289035428064568320970692304673817341489687505668096"
      ],
      "assetValues": [
        1
      ]
    },
    {
      "reservedAddress": "0xde078c11e0885fb28057436a4ab751189c1b3416",
      "assetIds": [
        "55464657044963196816950587289035428064568320970692304673817341489687505668096"
      ],
      "assetValues": [
        1
      ]
    },
    {
      "reservedAddress": "0xde1bb976c2056495ccc3710e66b85a64241c628b",
      "assetIds": [
        "55464657044963196816950587289035428064568320970692304673817341489687505668096"
      ],
      "assetValues": [
        1
      ]
    },
    {
      "reservedAddress": "0xde1f20ac365fa7e562903cf6d63493be534dacfc",
      "assetIds": [
        "55464657044963196816950587289035428064568320970692304673817341489687505668096"
      ],
      "assetValues": [
        1
      ]
    },
    {
      "reservedAddress": "0xde2c8611747a9cf8cb2503199eda18703922e02c",
      "assetIds": [
        "55464657044963196816950587289035428064568320970692304673817341489687505668096"
      ],
      "assetValues": [
        1
      ]
    },
    {
      "reservedAddress": "0xde3669ac6ff1e45a4be3d669f0c18750c959c28d",
      "assetIds": [
        "55464657044963196816950587289035428064568320970692304673817341489687505668096"
      ],
      "assetValues": [
        1
      ]
    },
    {
      "reservedAddress": "0xde3be922e51ac87b7fec2bd75942d6d7ef11a6e5",
      "assetIds": [
        "55464657044963196816950587289035428064568320970692304673817341489687505668096"
      ],
      "assetValues": [
        1
      ]
    },
    {
      "reservedAddress": "0xde4de346f0fc0a553ada9e7ba7a1bbd72953c43d",
      "assetIds": [
        "55464657044963196816950587289035428064568320970692304673817341489687505668096"
      ],
      "assetValues": [
        1
      ]
    },
    {
      "reservedAddress": "0xde508bae7cf072cc9918a8ddc63aa7788424e9a3",
      "assetIds": [
        "55464657044963196816950587289035428064568320970692304673817341489687505668096"
      ],
      "assetValues": [
        1
      ]
    },
    {
      "reservedAddress": "0xde548e98848a8bf946deed1057b1e980e54096f9",
      "assetIds": [
        "55464657044963196816950587289035428064568320970692304673817341489687505668096"
      ],
      "assetValues": [
        1
      ]
    },
    {
      "reservedAddress": "0xde7752de753b02e259ae6cb95ab17b8c4a2f7a59",
      "assetIds": [
        "55464657044963196816950587289035428064568320970692304673817341489687505668096"
      ],
      "assetValues": [
        1
      ]
    },
    {
      "reservedAddress": "0xdea55cd134ca8f216f31cca1a83f2148540a407b",
      "assetIds": [
        "55464657044963196816950587289035428064568320970692304673817341489687505668096"
      ],
      "assetValues": [
        1
      ]
    },
    {
      "reservedAddress": "0xdec6c15126a94a507e2c27c6727cedc85bfdf3b7",
      "assetIds": [
        "55464657044963196816950587289035428064568320970692304673817341489687505668096"
      ],
      "assetValues": [
        1
      ]
    },
    {
      "reservedAddress": "0xdeea95b62c620bccc675bbcec3badc181c87c67a",
      "assetIds": [
        "55464657044963196816950587289035428064568320970692304673817341489687505668096"
      ],
      "assetValues": [
        1
      ]
    },
    {
      "reservedAddress": "0xdf29cfa7c8aea059966077e6f0c524049535ad0c",
      "assetIds": [
        "55464657044963196816950587289035428064568320970692304673817341489687505668096"
      ],
      "assetValues": [
        1
      ]
    },
    {
      "reservedAddress": "0xdf5a0b7ab2b2b2332106ef8bd34b2ab0e9e9cf45",
      "assetIds": [
        "55464657044963196816950587289035428064568320970692304673817341489687505668096"
      ],
      "assetValues": [
        1
      ]
    },
    {
      "reservedAddress": "0xdf5e7a6dcd10b1e3ead7c2576410f9160cc691ad",
      "assetIds": [
        "55464657044963196816950587289035428064568320970692304673817341489687505668096"
      ],
      "assetValues": [
        1
      ]
    },
    {
      "reservedAddress": "0xdf60cd005915fe83100a948c3cc074391df5a9ec",
      "assetIds": [
        "55464657044963196816950587289035428064568320970692304673817341489687505668096"
      ],
      "assetValues": [
        1
      ]
    },
    {
      "reservedAddress": "0xdf6351570d65c30dbc3bf9600181254787d6ef45",
      "assetIds": [
        "55464657044963196816950587289035428064568320970692304673817341489687505668096"
      ],
      "assetValues": [
        1
      ]
    },
    {
      "reservedAddress": "0xdf8261329bdd380abe59a54349a3f84ea3c882a7",
      "assetIds": [
        "55464657044963196816950587289035428064568320970692304673817341489687505668096"
      ],
      "assetValues": [
        1
      ]
    },
    {
      "reservedAddress": "0xdfb2adddbd668a575ec2260206d94e4404ec7375",
      "assetIds": [
        "55464657044963196816950587289035428064568320970692304673817341489687505668096"
      ],
      "assetValues": [
        1
      ]
    },
    {
      "reservedAddress": "0xdfd03aec50a0286632d77828cb487c4f96409323",
      "assetIds": [
        "55464657044963196816950587289035428064568320970692304673817341489687505668096"
      ],
      "assetValues": [
        1
      ]
    },
    {
      "reservedAddress": "0xdfdf3eb21ab8c777178ea930dad339b1226cf6d1",
      "assetIds": [
        "55464657044963196816950587289035428064568320970692304673817341489687505668096"
      ],
      "assetValues": [
        1
      ]
    },
    {
      "reservedAddress": "0xdfe7ad3e0cc6fb0798e66c67c72927c49fc42478",
      "assetIds": [
        "55464657044963196816950587289035428064568320970692304673817341489687505668096"
      ],
      "assetValues": [
        1
      ]
    },
    {
      "reservedAddress": "0xe00338f0dacfc4fca0b4b19567d9d1bb6f211203",
      "assetIds": [
        "55464657044963196816950587289035428064568320970692304673817341489687505668096"
      ],
      "assetValues": [
        1
      ]
    },
    {
      "reservedAddress": "0xe006d00d1efb591378ac46f0a52f1406eaf01a44",
      "assetIds": [
        "55464657044963196816950587289035428064568320970692304673817341489687505668096"
      ],
      "assetValues": [
        1
      ]
    },
    {
      "reservedAddress": "0xe008437ba0adb9aedf4d6d929f0a26a2ef1bdca0",
      "assetIds": [
        "55464657044963196816950587289035428064568320970692304673817341489687505668096"
      ],
      "assetValues": [
        1
      ]
    },
    {
      "reservedAddress": "0xe014b9491aafac52256ec8955cbaacb2b8db867b",
      "assetIds": [
        "55464657044963196816950587289035428064568320970692304673817341489687505668096"
      ],
      "assetValues": [
        1
      ]
    },
    {
      "reservedAddress": "0xe0184667f02f5d9210123be7f279ed7c67c3c54a",
      "assetIds": [
        "55464657044963196816950587289035428064568320970692304673817341489687505668096"
      ],
      "assetValues": [
        1
      ]
    },
    {
      "reservedAddress": "0xe04645d44d222b7ed4225f4d20cb20577b309fe5",
      "assetIds": [
        "55464657044963196816950587289035428064568320970692304673817341489687505668096"
      ],
      "assetValues": [
        1
      ]
    },
    {
      "reservedAddress": "0xe057a3a2221f776e19e7610024d197d8e602f94c",
      "assetIds": [
        "55464657044963196816950587289035428064568320970692304673817341489687505668096"
      ],
      "assetValues": [
        1
      ]
    },
    {
      "reservedAddress": "0xe06cab94829b5b7077e9526f0901ac4892fad65a",
      "assetIds": [
        "55464657044963196816950587289035428064568320970692304673817341489687505668096"
      ],
      "assetValues": [
        1
      ]
    },
    {
      "reservedAddress": "0xe07e487d5a5e1098bbb4d259dac5ef83ae273f4e",
      "assetIds": [
        "55464657044963196816950587289035428064568320970692304673817341489687505668096"
      ],
      "assetValues": [
        1
      ]
    },
    {
      "reservedAddress": "0xe07ef543c16431275718cc1f114b0241ff217278",
      "assetIds": [
        "55464657044963196816950587289035428064568320970692304673817341489687505668096"
      ],
      "assetValues": [
        1
      ]
    },
    {
      "reservedAddress": "0xe092e823d77227c7c093d2699b3178d19352f260",
      "assetIds": [
        "55464657044963196816950587289035428064568320970692304673817341489687505668096"
      ],
      "assetValues": [
        1
      ]
    },
    {
      "reservedAddress": "0xe0942cc38a7f274fd5a9561e1bd9e10381db96be",
      "assetIds": [
        "55464657044963196816950587289035428064568320970692304673817341489687505668096"
      ],
      "assetValues": [
        1
      ]
    },
    {
      "reservedAddress": "0xe094514690e136c0d0c23b5371f767bdef320506",
      "assetIds": [
        "55464657044963196816950587289035428064568320970692304673817341489687505668096"
      ],
      "assetValues": [
        1
      ]
    },
    {
      "reservedAddress": "0xe099e0e8fe51bc257418951f93e0e57aa38c0ae8",
      "assetIds": [
        "55464657044963196816950587289035428064568320970692304673817341489687505668096"
      ],
      "assetValues": [
        1
      ]
    },
    {
      "reservedAddress": "0xe0a78fb1be38fc9745a1fdd7cd93519b5e14a48e",
      "assetIds": [
        "55464657044963196816950587289035428064568320970692304673817341489687505668096"
      ],
      "assetValues": [
        1
      ]
    },
    {
      "reservedAddress": "0xe0bd5baf01946fd410f03b2e8a4930896dfa1dd5",
      "assetIds": [
        "55464657044963196816950587289035428064568320970692304673817341489687505668096"
      ],
      "assetValues": [
        1
      ]
    },
    {
      "reservedAddress": "0xe113e7b1e8ecd07973ea40978aed520241d17f27",
      "assetIds": [
        "55464657044963196816950587289035428064568320970692304673817341489687505668096"
      ],
      "assetValues": [
        1
      ]
    },
    {
      "reservedAddress": "0xe138c79ba6f4dc3073f2216da000369e5f9f369d",
      "assetIds": [
        "55464657044963196816950587289035428064568320970692304673817341489687505668096"
      ],
      "assetValues": [
        1
      ]
    },
    {
      "reservedAddress": "0xe13d306043895c0d846c80d26c72a723558258ba",
      "assetIds": [
        "55464657044963196816950587289035428064568320970692304673817341489687505668096"
      ],
      "assetValues": [
        1
      ]
    },
    {
      "reservedAddress": "0xe13d4abee4b304b67c52a56871141cad1b833aa7",
      "assetIds": [
        "55464657044963196816950587289035428064568320970692304673817341489687505668096"
      ],
      "assetValues": [
        1
      ]
    },
    {
      "reservedAddress": "0xe149581976c0d4c0feb534cad0362cfa3264f2fb",
      "assetIds": [
        "55464657044963196816950587289035428064568320970692304673817341489687505668096"
      ],
      "assetValues": [
        1
      ]
    },
    {
      "reservedAddress": "0xe15483e4adfd3131e11d3563c3f17988e7d6a875",
      "assetIds": [
        "55464657044963196816950587289035428064568320970692304673817341489687505668096"
      ],
      "assetValues": [
        1
      ]
    },
    {
      "reservedAddress": "0xe1584136d9daebaeee68cefb41b34023251c2d51",
      "assetIds": [
        "55464657044963196816950587289035428064568320970692304673817341489687505668096"
      ],
      "assetValues": [
        1
      ]
    },
    {
      "reservedAddress": "0xe175a11f7af6ced6930d74244cfd4cf7b443a855",
      "assetIds": [
        "55464657044963196816950587289035428064568320970692304673817341489687505668096"
      ],
      "assetValues": [
        1
      ]
    },
    {
      "reservedAddress": "0xe1874b684a454f0643f2419aa105715328c5bbd3",
      "assetIds": [
        "55464657044963196816950587289035428064568320970692304673817341489687505668096"
      ],
      "assetValues": [
        1
      ]
    },
    {
      "reservedAddress": "0xe1a1deeca808f8489c390281e3be60d703565bb9",
      "assetIds": [
        "55464657044963196816950587289035428064568320970692304673817341489687505668096"
      ],
      "assetValues": [
        1
      ]
    },
    {
      "reservedAddress": "0xe1bd1206a888a5cba2e750b7693d9cea6f5260ff",
      "assetIds": [
        "55464657044963196816950587289035428064568320970692304673817341489687505668096"
      ],
      "assetValues": [
        1
      ]
    },
    {
      "reservedAddress": "0xe1cce24824b91deb72818b5454768d48a2ccdc1e",
      "assetIds": [
        "55464657044963196816950587289035428064568320970692304673817341489687505668096"
      ],
      "assetValues": [
        1
      ]
    },
    {
      "reservedAddress": "0xe1f21a44b4315220ba6ed9ec299de6cbcfe6a5f5",
      "assetIds": [
        "55464657044963196816950587289035428064568320970692304673817341489687505668096"
      ],
      "assetValues": [
        1
      ]
    },
    {
      "reservedAddress": "0xe21771e9a95f5682644326b3a0702d559cad1444",
      "assetIds": [
        "55464657044963196816950587289035428064568320970692304673817341489687505668096"
      ],
      "assetValues": [
        1
      ]
    },
    {
      "reservedAddress": "0xe219a5fce0e056a68a1e4ab0c3d1fa21bfb01bd5",
      "assetIds": [
        "55464657044963196816950587289035428064568320970692304673817341489687505668096"
      ],
      "assetValues": [
        1
      ]
    },
    {
      "reservedAddress": "0xe227c7e6eb9615b428e943d3274b85be3b2ceed4",
      "assetIds": [
        "55464657044963196816950587289035428064568320970692304673817341489687505668096"
      ],
      "assetValues": [
        1
      ]
    },
    {
      "reservedAddress": "0xe22a930a4c9181f51793760936bfe62a0272e080",
      "assetIds": [
        "55464657044963196816950587289035428064568320970692304673817341489687505668096"
      ],
      "assetValues": [
        1
      ]
    },
    {
      "reservedAddress": "0xe23935c66e2630dc85eebc30af0991c4c38822ff",
      "assetIds": [
        "55464657044963196816950587289035428064568320970692304673817341489687505668096"
      ],
      "assetValues": [
        1
      ]
    },
    {
      "reservedAddress": "0xe24a3b31c15a67623249dea8c95d191ad87eb3d6",
      "assetIds": [
        "55464657044963196816950587289035428064568320970692304673817341489687505668096"
      ],
      "assetValues": [
        1
      ]
    },
    {
      "reservedAddress": "0xe251990761af021d58f8ce75f79f857267cefc44",
      "assetIds": [
        "55464657044963196816950587289035428064568320970692304673817341489687505668096"
      ],
      "assetValues": [
        1
      ]
    },
    {
      "reservedAddress": "0xe27969a2f7ee8386c6e9a7188a425c41c2044c08",
      "assetIds": [
        "55464657044963196816950587289035428064568320970692304673817341489687505668096"
      ],
      "assetValues": [
        1
      ]
    },
    {
      "reservedAddress": "0xe2ca7390e76c5a992749bb622087310d2e63ca29",
      "assetIds": [
        "55464657044963196816950587289035428064568320970692304673817341489687505668096"
      ],
      "assetValues": [
        1
      ]
    },
    {
      "reservedAddress": "0xe2cef7c90a93ea29af69e63de35fa853587bbfa4",
      "assetIds": [
        "55464657044963196816950587289035428064568320970692304673817341489687505668096"
      ],
      "assetValues": [
        1
      ]
    },
    {
      "reservedAddress": "0xe2d7c679aedc71dcfd65eb381107f8beb0f65666",
      "assetIds": [
        "55464657044963196816950587289035428064568320970692304673817341489687505668096"
      ],
      "assetValues": [
        1
      ]
    },
    {
      "reservedAddress": "0xe2f8e11632bfcefb384d61a64dc754bd22621fe3",
      "assetIds": [
        "55464657044963196816950587289035428064568320970692304673817341489687505668096"
      ],
      "assetValues": [
        1
      ]
    },
    {
      "reservedAddress": "0xe32c5673b152571e57976bf3a75068917da2da9c",
      "assetIds": [
        "55464657044963196816950587289035428064568320970692304673817341489687505668096"
      ],
      "assetValues": [
        1
      ]
    },
    {
      "reservedAddress": "0xe32dd632b462ec4a05eb026868f7b9be3eb59cd3",
      "assetIds": [
        "55464657044963196816950587289035428064568320970692304673817341489687505668096"
      ],
      "assetValues": [
        1
      ]
    },
    {
      "reservedAddress": "0xe3335ee519f9d696103a8ecc0b2d0ecb38e76257",
      "assetIds": [
        "55464657044963196816950587289035428064568320970692304673817341489687505668096"
      ],
      "assetValues": [
        1
      ]
    },
    {
      "reservedAddress": "0xe33d7c73946fd6a18a39a0a22e25508ba5289ede",
      "assetIds": [
        "55464657044963196816950587289035428064568320970692304673817341489687505668096"
      ],
      "assetValues": [
        1
      ]
    },
    {
      "reservedAddress": "0xe351ba276f107b10bedc489322cb10387ab08e54",
      "assetIds": [
        "55464657044963196816950587289035428064568320970692304673817341489687505668096"
      ],
      "assetValues": [
        1
      ]
    },
    {
      "reservedAddress": "0xe37582cb7ae307196d6e789b7f8ccb665d34ac77",
      "assetIds": [
        "55464657044963196816950587289035428064568320970692304673817341489687505668096"
      ],
      "assetValues": [
        1
      ]
    },
    {
      "reservedAddress": "0xe383023516abafc8166579ae163ac8045aa43a10",
      "assetIds": [
        "55464657044963196816950587289035428064568320970692304673817341489687505668096"
      ],
      "assetValues": [
        1
      ]
    },
    {
      "reservedAddress": "0xe38d978e500242e5e6df46be5dc1bd47cb06555f",
      "assetIds": [
        "55464657044963196816950587289035428064568320970692304673817341489687505668096"
      ],
      "assetValues": [
        1
      ]
    },
    {
      "reservedAddress": "0xe396fe40914009fdfca0c0c8cadf9acfbae751a1",
      "assetIds": [
        "55464657044963196816950587289035428064568320970692304673817341489687505668096"
      ],
      "assetValues": [
        1
      ]
    },
    {
      "reservedAddress": "0xe39cb745e8db0da1be665adb2eab58f4fd600927",
      "assetIds": [
        "55464657044963196816950587289035428064568320970692304673817341489687505668096"
      ],
      "assetValues": [
        1
      ]
    },
    {
      "reservedAddress": "0xe3ace06ffa96f25fd652d068cd133cbb6b1869eb",
      "assetIds": [
        "55464657044963196816950587289035428064568320970692304673817341489687505668096"
      ],
      "assetValues": [
        1
      ]
    },
    {
      "reservedAddress": "0xe3c223b28effb679796fcf16fef763b8cb0f8343",
      "assetIds": [
        "55464657044963196816950587289035428064568320970692304673817341489687505668096"
      ],
      "assetValues": [
        1
      ]
    },
    {
      "reservedAddress": "0xe3cbce2768fcff5cb0e1ecc63840de096a3bcb9d",
      "assetIds": [
        "55464657044963196816950587289035428064568320970692304673817341489687505668096"
      ],
      "assetValues": [
        1
      ]
    },
    {
      "reservedAddress": "0xe3faa8ca364f23479122f19b01c16e4046213f68",
      "assetIds": [
        "55464657044963196816950587289035428064568320970692304673817341489687505668096"
      ],
      "assetValues": [
        1
      ]
    },
    {
      "reservedAddress": "0xe4083f1e4ecde085bf7cfa1ac4f1f9a02905698c",
      "assetIds": [
        "55464657044963196816950587289035428064568320970692304673817341489687505668096"
      ],
      "assetValues": [
        1
      ]
    },
    {
      "reservedAddress": "0xe41ab63fe5483b206ea22e2803e0d383a786043a",
      "assetIds": [
        "55464657044963196816950587289035428064568320970692304673817341489687505668096"
      ],
      "assetValues": [
        1
      ]
    },
    {
      "reservedAddress": "0xe4203cefc0a62587096e836af05d729578f97ab8",
      "assetIds": [
        "55464657044963196816950587289035428064568320970692304673817341489687505668096"
      ],
      "assetValues": [
        1
      ]
    },
    {
      "reservedAddress": "0xe43840e77829b2df75959b7107d172060ab6bd87",
      "assetIds": [
        "55464657044963196816950587289035428064568320970692304673817341489687505668096"
      ],
      "assetValues": [
        1
      ]
    },
    {
      "reservedAddress": "0xe43ce2a21f12ea660915fe6286c84fd13f2aaf0b",
      "assetIds": [
        "55464657044963196816950587289035428064568320970692304673817341489687505668096"
      ],
      "assetValues": [
        1
      ]
    },
    {
      "reservedAddress": "0xe4479586d36aa5c84b79e3796f9a1f77e453ecbe",
      "assetIds": [
        "55464657044963196816950587289035428064568320970692304673817341489687505668096"
      ],
      "assetValues": [
        1
      ]
    },
    {
      "reservedAddress": "0xe44aede3f7d3849c4803c22ac8b65384298b7b0a",
      "assetIds": [
        "55464657044963196816950587289035428064568320970692304673817341489687505668096"
      ],
      "assetValues": [
        1
      ]
    },
    {
      "reservedAddress": "0xe45070318d240591a55cf295ab9adfaf6f0c6954",
      "assetIds": [
        "55464657044963196816950587289035428064568320970692304673817341489687505668096"
      ],
      "assetValues": [
        1
      ]
    },
    {
      "reservedAddress": "0xe45c7e4427aeef6a1bdcf266b61dc2b4741631ff",
      "assetIds": [
        "55464657044963196816950587289035428064568320970692304673817341489687505668096"
      ],
      "assetValues": [
        1
      ]
    },
    {
      "reservedAddress": "0xe45d1974ddd68826b4dca4efd575e84aee2ee216",
      "assetIds": [
        "55464657044963196816950587289035428064568320970692304673817341489687505668096"
      ],
      "assetValues": [
        1
      ]
    },
    {
      "reservedAddress": "0xe45f04bafa6eae1bf3ef7b534a8ec5ee0dc62b26",
      "assetIds": [
        "55464657044963196816950587289035428064568320970692304673817341489687505668096"
      ],
      "assetValues": [
        1
      ]
    },
    {
      "reservedAddress": "0xe48deafb74382a49c822b192f2d219598b4478a5",
      "assetIds": [
        "55464657044963196816950587289035428064568320970692304673817341489687505668096"
      ],
      "assetValues": [
        1
      ]
    },
    {
      "reservedAddress": "0xe48e6449efb6bff7ce0e3acad99c32db3d8b80b5",
      "assetIds": [
        "55464657044963196816950587289035428064568320970692304673817341489687505668096"
      ],
      "assetValues": [
        1
      ]
    },
    {
      "reservedAddress": "0xe49f5c743e10299d46cf02264eabef68a498b7c5",
      "assetIds": [
        "55464657044963196816950587289035428064568320970692304673817341489687505668096"
      ],
      "assetValues": [
        1
      ]
    },
    {
      "reservedAddress": "0xe4b95ce64959a9f5ff306e79e0bda764067cda54",
      "assetIds": [
        "55464657044963196816950587289035428064568320970692304673817341489687505668096"
      ],
      "assetValues": [
        1
      ]
    },
    {
      "reservedAddress": "0xe4c140a67a3a95913a6e2fcfc6d6434d94c07641",
      "assetIds": [
        "55464657044963196816950587289035428064568320970692304673817341489687505668096"
      ],
      "assetValues": [
        1
      ]
    },
    {
      "reservedAddress": "0xe4cd46df36b156337be51a247dff2d19c96b6dbe",
      "assetIds": [
        "55464657044963196816950587289035428064568320970692304673817341489687505668096"
      ],
      "assetValues": [
        1
      ]
    },
    {
      "reservedAddress": "0xe4ced6adf2ad7e373b0153ba79ec0d32edabc616",
      "assetIds": [
        "55464657044963196816950587289035428064568320970692304673817341489687505668096"
      ],
      "assetValues": [
        1
      ]
    },
    {
      "reservedAddress": "0xe4e917ea341ee728517d0f4c899de31d5b52eb1e",
      "assetIds": [
        "55464657044963196816950587289035428064568320970692304673817341489687505668096"
      ],
      "assetValues": [
        1
      ]
    },
    {
      "reservedAddress": "0xe4e9a7f5084015cbe4cc9e4284d6e0bef6a83b61",
      "assetIds": [
        "55464657044963196816950587289035428064568320970692304673817341489687505668096"
      ],
      "assetValues": [
        1
      ]
    },
    {
      "reservedAddress": "0xe4e9c6ef555c9548068089ccc4e1f27f6b7fa635",
      "assetIds": [
        "55464657044963196816950587289035428064568320970692304673817341489687505668096"
      ],
      "assetValues": [
        1
      ]
    },
    {
      "reservedAddress": "0xe52eb555f9c8d44c37d8af814493cbfa48e7e569",
      "assetIds": [
        "55464657044963196816950587289035428064568320970692304673817341489687505668096"
      ],
      "assetValues": [
        1
      ]
    },
    {
      "reservedAddress": "0xe5421d8907216d6239fcb761ee66af1fb5310284",
      "assetIds": [
        "55464657044963196816950587289035428064568320970692304673817341489687505668096"
      ],
      "assetValues": [
        1
      ]
    },
    {
      "reservedAddress": "0xe5818d70a9b5aed2bfde4e41fbcb07dd80f8fc84",
      "assetIds": [
        "55464657044963196816950587289035428064568320970692304673817341489687505668096"
      ],
      "assetValues": [
        1
      ]
    },
    {
      "reservedAddress": "0xe58394aa0ff30c6caaa5b1f34bdec5b44aabd337",
      "assetIds": [
        "55464657044963196816950587289035428064568320970692304673817341489687505668096"
      ],
      "assetValues": [
        1
      ]
    },
    {
      "reservedAddress": "0xe59d87e5298ac2fb24c2fc55d256cb8fcb696238",
      "assetIds": [
        "55464657044963196816950587289035428064568320970692304673817341489687505668096"
      ],
      "assetValues": [
        1
      ]
    },
    {
      "reservedAddress": "0xe5c2699cfd45c0501c61083a646168d6619912c7",
      "assetIds": [
        "55464657044963196816950587289035428064568320970692304673817341489687505668096"
      ],
      "assetValues": [
        1
      ]
    },
    {
      "reservedAddress": "0xe5fef9b9e2f687b1dc49d03e6d91ddc307f69a1f",
      "assetIds": [
        "55464657044963196816950587289035428064568320970692304673817341489687505668096"
      ],
      "assetValues": [
        1
      ]
    },
    {
      "reservedAddress": "0xe6604b51de1040f609f480e4a18ae208551e7887",
      "assetIds": [
        "55464657044963196816950587289035428064568320970692304673817341489687505668096"
      ],
      "assetValues": [
        1
      ]
    },
    {
      "reservedAddress": "0xe661d705d6f577cb6431bbb19b1fc839bee9662d",
      "assetIds": [
        "55464657044963196816950587289035428064568320970692304673817341489687505668096"
      ],
      "assetValues": [
        1
      ]
    },
    {
      "reservedAddress": "0xe6690a6cef204333ee0cf4be75b8fb98de07a79b",
      "assetIds": [
        "55464657044963196816950587289035428064568320970692304673817341489687505668096"
      ],
      "assetValues": [
        1
      ]
    },
    {
      "reservedAddress": "0xe672e3403732e6bff2c36209e6dbd3a63dc0ef61",
      "assetIds": [
        "55464657044963196816950587289035428064568320970692304673817341489687505668096"
      ],
      "assetValues": [
        1
      ]
    },
    {
      "reservedAddress": "0xe68f68b83d0a9410ea3e0c1ae0ac474ec890de30",
      "assetIds": [
        "55464657044963196816950587289035428064568320970692304673817341489687505668096"
      ],
      "assetValues": [
        1
      ]
    },
    {
      "reservedAddress": "0xe6c21bacb10ca69cc0b289f1f2e62c0c41aed876",
      "assetIds": [
        "55464657044963196816950587289035428064568320970692304673817341489687505668096"
      ],
      "assetValues": [
        1
      ]
    },
    {
      "reservedAddress": "0xe6d615ae7b8cf373cee85817c68d80431f6c99b3",
      "assetIds": [
        "55464657044963196816950587289035428064568320970692304673817341489687505668096"
      ],
      "assetValues": [
        1
      ]
    },
    {
      "reservedAddress": "0xe6fb03428d9ea5ca5774394f3565702b01a474fb",
      "assetIds": [
        "55464657044963196816950587289035428064568320970692304673817341489687505668096"
      ],
      "assetValues": [
        1
      ]
    },
    {
      "reservedAddress": "0xe7079eec020ddfc3f1c0abe1d946c55e6ed30eb3",
      "assetIds": [
        "55464657044963196816950587289035428064568320970692304673817341489687505668096"
      ],
      "assetValues": [
        1
      ]
    },
    {
      "reservedAddress": "0xe72566a60ab19d56b1285cdd8e76090c08cb4c01",
      "assetIds": [
        "55464657044963196816950587289035428064568320970692304673817341489687505668096"
      ],
      "assetValues": [
        1
      ]
    },
    {
      "reservedAddress": "0xe729657166acaf72f11abd9e7a7bb8c4188b2df8",
      "assetIds": [
        "55464657044963196816950587289035428064568320970692304673817341489687505668096"
      ],
      "assetValues": [
        1
      ]
    },
    {
      "reservedAddress": "0xe761c02f119081f9d4b6583253e100aac6be75ca",
      "assetIds": [
        "55464657044963196816950587289035428064568320970692304673817341489687505668096"
      ],
      "assetValues": [
        1
      ]
    },
    {
      "reservedAddress": "0xe76a6619581dd7122bc127a6f018ba035b182aaa",
      "assetIds": [
        "55464657044963196816950587289035428064568320970692304673817341489687505668096"
      ],
      "assetValues": [
        1
      ]
    },
    {
      "reservedAddress": "0xe7970ea678e186259587a1ad0ef87dab0ba41fca",
      "assetIds": [
        "55464657044963196816950587289035428064568320970692304673817341489687505668096"
      ],
      "assetValues": [
        1
      ]
    },
    {
      "reservedAddress": "0xe79e52f0de40fc965688703a47c519b93fc9ae0b",
      "assetIds": [
        "55464657044963196816950587289035428064568320970692304673817341489687505668096"
      ],
      "assetValues": [
        1
      ]
    },
    {
      "reservedAddress": "0xe7e7a05255f29f26b7fe6cfa20675bc7fe11f6a7",
      "assetIds": [
        "55464657044963196816950587289035428064568320970692304673817341489687505668096"
      ],
      "assetValues": [
        1
      ]
    },
    {
      "reservedAddress": "0xe7ee496ce3771fd95dfb9b8db18e42f1c1314e35",
      "assetIds": [
        "55464657044963196816950587289035428064568320970692304673817341489687505668096"
      ],
      "assetValues": [
        1
      ]
    },
    {
      "reservedAddress": "0xe7f03f396838ec75d659b8f44773502f9d26727c",
      "assetIds": [
        "55464657044963196816950587289035428064568320970692304673817341489687505668096"
      ],
      "assetValues": [
        1
      ]
    },
    {
      "reservedAddress": "0xe80069a000ead527b078010dd57ce45bd2589116",
      "assetIds": [
        "55464657044963196816950587289035428064568320970692304673817341489687505668096"
      ],
      "assetValues": [
        1
      ]
    },
    {
      "reservedAddress": "0xe8161ab952e064ad0e3ef44b29ce8d2dce39d60d",
      "assetIds": [
        "55464657044963196816950587289035428064568320970692304673817341489687505668096"
      ],
      "assetValues": [
        1
      ]
    },
    {
      "reservedAddress": "0xe819378e3f7ac155b99ee5f739baae69a365090f",
      "assetIds": [
        "55464657044963196816950587289035428064568320970692304673817341489687505668096"
      ],
      "assetValues": [
        1
      ]
    },
    {
      "reservedAddress": "0xe81eddc9d7870ee548709616bb89fecdcded0d97",
      "assetIds": [
        "55464657044963196816950587289035428064568320970692304673817341489687505668096"
      ],
      "assetValues": [
        1
      ]
    },
    {
      "reservedAddress": "0xe839b2e436782ec0f52724e72b68d1c70cbc8f35",
      "assetIds": [
        "55464657044963196816950587289035428064568320970692304673817341489687505668096"
      ],
      "assetValues": [
        1
      ]
    },
    {
      "reservedAddress": "0xe86556fcb094d4d9ba2717412ae5de225382ebed",
      "assetIds": [
        "55464657044963196816950587289035428064568320970692304673817341489687505668096"
      ],
      "assetValues": [
        1
      ]
    },
    {
      "reservedAddress": "0xe8a09d60703daf8e40f11cd577b9d66880516fee",
      "assetIds": [
        "55464657044963196816950587289035428064568320970692304673817341489687505668096"
      ],
      "assetValues": [
        1
      ]
    },
    {
      "reservedAddress": "0xe8f229eea40505bcf4a7fb309944be119ac8215a",
      "assetIds": [
        "55464657044963196816950587289035428064568320970692304673817341489687505668096"
      ],
      "assetValues": [
        1
      ]
    },
    {
      "reservedAddress": "0xe908691b57238d0acdb24da514ad5ecb6f4b45f3",
      "assetIds": [
        "55464657044963196816950587289035428064568320970692304673817341489687505668096"
      ],
      "assetValues": [
        1
      ]
    },
    {
      "reservedAddress": "0xe91b9f966405d7914cf879500aacfb7c85b9a37f",
      "assetIds": [
        "55464657044963196816950587289035428064568320970692304673817341489687505668096"
      ],
      "assetValues": [
        1
      ]
    },
    {
      "reservedAddress": "0xe961ef5bf1ab5c2509c91870a594d8e36f7fc91a",
      "assetIds": [
        "55464657044963196816950587289035428064568320970692304673817341489687505668096"
      ],
      "assetValues": [
        1
      ]
    },
    {
      "reservedAddress": "0xe99b5b4bfdd3ca9b798bfb23914b5e99af6c58eb",
      "assetIds": [
        "55464657044963196816950587289035428064568320970692304673817341489687505668096"
      ],
      "assetValues": [
        1
      ]
    },
    {
      "reservedAddress": "0xe99d42927aa32a4da951734b6f66f34a3945cd87",
      "assetIds": [
        "55464657044963196816950587289035428064568320970692304673817341489687505668096"
      ],
      "assetValues": [
        1
      ]
    },
    {
      "reservedAddress": "0xe9a408c56b0fbaa1b38f1164b7692bba909ba7bd",
      "assetIds": [
        "55464657044963196816950587289035428064568320970692304673817341489687505668096"
      ],
      "assetValues": [
        1
      ]
    },
    {
      "reservedAddress": "0xe9b599b67f02bdd56e531ed62f9b38f9ba5c0733",
      "assetIds": [
        "55464657044963196816950587289035428064568320970692304673817341489687505668096"
      ],
      "assetValues": [
        1
      ]
    },
    {
      "reservedAddress": "0xe9c8d988d5807c6539aa1e68e42769df966560bf",
      "assetIds": [
        "55464657044963196816950587289035428064568320970692304673817341489687505668096"
      ],
      "assetValues": [
        1
      ]
    },
    {
      "reservedAddress": "0xe9fb087587d0b1bb42f5987f39c188f15a8d8049",
      "assetIds": [
        "55464657044963196816950587289035428064568320970692304673817341489687505668096"
      ],
      "assetValues": [
        1
      ]
    },
    {
      "reservedAddress": "0xea21dab472f4c079bde860fde6f69a42834f3c68",
      "assetIds": [
        "55464657044963196816950587289035428064568320970692304673817341489687505668096"
      ],
      "assetValues": [
        1
      ]
    },
    {
      "reservedAddress": "0xea2f3a1a218ec6f67530485ea1e18a3728e1c155",
      "assetIds": [
        "55464657044963196816950587289035428064568320970692304673817341489687505668096"
      ],
      "assetValues": [
        1
      ]
    },
    {
      "reservedAddress": "0xea31369bdd775bf33820b7422407e70d625aa8ab",
      "assetIds": [
        "55464657044963196816950587289035428064568320970692304673817341489687505668096"
      ],
      "assetValues": [
        1
      ]
    },
    {
      "reservedAddress": "0xea4c9565a476d212cc4202eec43ebd4b9e1319a7",
      "assetIds": [
        "55464657044963196816950587289035428064568320970692304673817341489687505668096"
      ],
      "assetValues": [
        1
      ]
    },
    {
      "reservedAddress": "0xea5abc1a1689984ebfdc41130886bdaeb5c24078",
      "assetIds": [
        "55464657044963196816950587289035428064568320970692304673817341489687505668096"
      ],
      "assetValues": [
        1
      ]
    },
    {
      "reservedAddress": "0xea96dda93dfb2a3e81d53f11663c3af74aa07756",
      "assetIds": [
        "55464657044963196816950587289035428064568320970692304673817341489687505668096"
      ],
      "assetValues": [
        1
      ]
    },
    {
      "reservedAddress": "0xeb0739f81f7b40503310d895089e0ad309af1cdd",
      "assetIds": [
        "55464657044963196816950587289035428064568320970692304673817341489687505668096"
      ],
      "assetValues": [
        1
      ]
    },
    {
      "reservedAddress": "0xeb44e9278f552580eb80431c9e64f103fbe7a7e7",
      "assetIds": [
        "55464657044963196816950587289035428064568320970692304673817341489687505668096"
      ],
      "assetValues": [
        1
      ]
    },
    {
      "reservedAddress": "0xeb8ee9b48cbe8d900d58a6ac496960e8e6880acc",
      "assetIds": [
        "55464657044963196816950587289035428064568320970692304673817341489687505668096"
      ],
      "assetValues": [
        1
      ]
    },
    {
      "reservedAddress": "0xeb8fc997a11c96b2b20517e497d3b90c59bcb688",
      "assetIds": [
        "55464657044963196816950587289035428064568320970692304673817341489687505668096"
      ],
      "assetValues": [
        1
      ]
    },
    {
      "reservedAddress": "0xebb605ef79e377d47e28094f8e236c0f81922849",
      "assetIds": [
        "55464657044963196816950587289035428064568320970692304673817341489687505668096"
      ],
      "assetValues": [
        1
      ]
    },
    {
      "reservedAddress": "0xebc887b4cae1b22e1a7b93f035330a9587deba77",
      "assetIds": [
        "55464657044963196816950587289035428064568320970692304673817341489687505668096"
      ],
      "assetValues": [
        1
      ]
    },
    {
      "reservedAddress": "0xebfa867137eda1f330c723cc0c69aa9bf77a676c",
      "assetIds": [
        "55464657044963196816950587289035428064568320970692304673817341489687505668096"
      ],
      "assetValues": [
        1
      ]
    },
    {
      "reservedAddress": "0xec1ca01c9b364081aaa873e5a24693658ad15e6e",
      "assetIds": [
        "55464657044963196816950587289035428064568320970692304673817341489687505668096"
      ],
      "assetValues": [
        1
      ]
    },
    {
      "reservedAddress": "0xec214ee5d1c2a46e6b8e0c6c046fedea6e66be1e",
      "assetIds": [
        "55464657044963196816950587289035428064568320970692304673817341489687505668096"
      ],
      "assetValues": [
        1
      ]
    },
    {
      "reservedAddress": "0xec3f8f12940710c013d7116615cb69d25977e078",
      "assetIds": [
        "55464657044963196816950587289035428064568320970692304673817341489687505668096"
      ],
      "assetValues": [
        1
      ]
    },
    {
      "reservedAddress": "0xec4f93a158f27c3b3481f5754b0d9b1f3cf366d2",
      "assetIds": [
        "55464657044963196816950587289035428064568320970692304673817341489687505668096"
      ],
      "assetValues": [
        1
      ]
    },
    {
      "reservedAddress": "0xec6e6c0841a2ba474e92bf42baf76bfe80e8657c",
      "assetIds": [
        "55464657044963196816950587289035428064568320970692304673817341489687505668096"
      ],
      "assetValues": [
        1
      ]
    },
    {
      "reservedAddress": "0xec7ab6d28a3431bf69206b6a616b5fef598c2506",
      "assetIds": [
        "55464657044963196816950587289035428064568320970692304673817341489687505668096"
      ],
      "assetValues": [
        1
      ]
    },
    {
      "reservedAddress": "0xec82bdc4f81799e7bcb7c6594321a2324c10234d",
      "assetIds": [
        "55464657044963196816950587289035428064568320970692304673817341489687505668096"
      ],
      "assetValues": [
        1
      ]
    },
    {
      "reservedAddress": "0xecc3c9663e4648b9563e9812447ad4dd52a02b29",
      "assetIds": [
        "55464657044963196816950587289035428064568320970692304673817341489687505668096"
      ],
      "assetValues": [
        1
      ]
    },
    {
      "reservedAddress": "0xecd5e98bd002708868f36bb6daa29e16f11b98c0",
      "assetIds": [
        "55464657044963196816950587289035428064568320970692304673817341489687505668096"
      ],
      "assetValues": [
        1
      ]
    },
    {
      "reservedAddress": "0xecf0b84a4214aae98cc1662635b5e1f9d1a42efd",
      "assetIds": [
        "55464657044963196816950587289035428064568320970692304673817341489687505668096"
      ],
      "assetValues": [
        1
      ]
    },
    {
      "reservedAddress": "0xed1af456f32a96c5ee592d5315d836441c8a2544",
      "assetIds": [
        "55464657044963196816950587289035428064568320970692304673817341489687505668096"
      ],
      "assetValues": [
        1
      ]
    },
    {
      "reservedAddress": "0xed28d14fa643d0bdc10e74164a7d63909dbddbbd",
      "assetIds": [
        "55464657044963196816950587289035428064568320970692304673817341489687505668096"
      ],
      "assetValues": [
        1
      ]
    },
    {
      "reservedAddress": "0xed31be2c881ae9f91846e3d249157b9242ed7967",
      "assetIds": [
        "55464657044963196816950587289035428064568320970692304673817341489687505668096"
      ],
      "assetValues": [
        1
      ]
    },
    {
      "reservedAddress": "0xed32e5f84f4fb61e6120f1383809c5aed1197dc5",
      "assetIds": [
        "55464657044963196816950587289035428064568320970692304673817341489687505668096"
      ],
      "assetValues": [
        1
      ]
    },
    {
      "reservedAddress": "0xed3b9be5a3d44d81d28e90aec10fd18e9a9a3fcb",
      "assetIds": [
        "55464657044963196816950587289035428064568320970692304673817341489687505668096"
      ],
      "assetValues": [
        1
      ]
    },
    {
      "reservedAddress": "0xed61f8ed9c1e585be76d33fa6e6f2a286d577ca2",
      "assetIds": [
        "55464657044963196816950587289035428064568320970692304673817341489687505668096"
      ],
      "assetValues": [
        1
      ]
    },
    {
      "reservedAddress": "0xed64f5fceac19d05a48bbf09132a1f131465f27e",
      "assetIds": [
        "55464657044963196816950587289035428064568320970692304673817341489687505668096"
      ],
      "assetValues": [
        1
      ]
    },
    {
      "reservedAddress": "0xeda7ff0ab09da29a7eaa725e56be4898fdbcd288",
      "assetIds": [
        "55464657044963196816950587289035428064568320970692304673817341489687505668096"
      ],
      "assetValues": [
        1
      ]
    },
    {
      "reservedAddress": "0xeda996ac2c710ba00f3d7d4e222d6a9fb1a47bb4",
      "assetIds": [
        "55464657044963196816950587289035428064568320970692304673817341489687505668096"
      ],
      "assetValues": [
        1
      ]
    },
    {
      "reservedAddress": "0xedd7946d0baf007f062361c17382799ebe3cbb60",
      "assetIds": [
        "55464657044963196816950587289035428064568320970692304673817341489687505668096"
      ],
      "assetValues": [
        1
      ]
    },
    {
      "reservedAddress": "0xedffeb57f544573ff9dbbc7ca554a899d284b705",
      "assetIds": [
        "55464657044963196816950587289035428064568320970692304673817341489687505668096"
      ],
      "assetValues": [
        1
      ]
    },
    {
      "reservedAddress": "0xee231273a60e60c9d47f69b3acdbe2d07369328b",
      "assetIds": [
        "55464657044963196816950587289035428064568320970692304673817341489687505668096"
      ],
      "assetValues": [
        1
      ]
    },
    {
      "reservedAddress": "0xee2a4c51a54a02511c2a2b626bc519e91990447d",
      "assetIds": [
        "55464657044963196816950587289035428064568320970692304673817341489687505668096"
      ],
      "assetValues": [
        1
      ]
    },
    {
      "reservedAddress": "0xee2a78c239f1858e05f44113aa8c95051b9934c4",
      "assetIds": [
        "55464657044963196816950587289035428064568320970692304673817341489687505668096"
      ],
      "assetValues": [
        1
      ]
    },
    {
      "reservedAddress": "0xee6c526a3f3add5778b1c197e184d3c05e579ffb",
      "assetIds": [
        "55464657044963196816950587289035428064568320970692304673817341489687505668096"
      ],
      "assetValues": [
        1
      ]
    },
    {
      "reservedAddress": "0xee8955dc2837ed89bf85a1c15aa0bf05e07303d7",
      "assetIds": [
        "55464657044963196816950587289035428064568320970692304673817341489687505668096"
      ],
      "assetValues": [
        1
      ]
    },
    {
      "reservedAddress": "0xeeb2bd1412ed5a00bd4321697468d6cdbfc248e9",
      "assetIds": [
        "55464657044963196816950587289035428064568320970692304673817341489687505668096"
      ],
      "assetValues": [
        1
      ]
    },
    {
      "reservedAddress": "0xeef8a2846b5889086c2996bab62147f69635f919",
      "assetIds": [
        "55464657044963196816950587289035428064568320970692304673817341489687505668096"
      ],
      "assetValues": [
        1
      ]
    },
    {
      "reservedAddress": "0xeeff3793df0685d54805b8807d1fd63cc66f9c2f",
      "assetIds": [
        "55464657044963196816950587289035428064568320970692304673817341489687505668096"
      ],
      "assetValues": [
        1
      ]
    },
    {
      "reservedAddress": "0xef07c9f46d07267f44cb64466f021c58dcfd87bf",
      "assetIds": [
        "55464657044963196816950587289035428064568320970692304673817341489687505668096"
      ],
      "assetValues": [
        1
      ]
    },
    {
      "reservedAddress": "0xef0cb73c3828df427aa29b7ea744a69ae282b859",
      "assetIds": [
        "55464657044963196816950587289035428064568320970692304673817341489687505668096"
      ],
      "assetValues": [
        1
      ]
    },
    {
      "reservedAddress": "0xef1e1d248adf7c4689b927d7b6f57965dd29d2b6",
      "assetIds": [
        "55464657044963196816950587289035428064568320970692304673817341489687505668096"
      ],
      "assetValues": [
        1
      ]
    },
    {
      "reservedAddress": "0xef33198f1d168af94ea9b92f7ce3f7e168b4680a",
      "assetIds": [
        "55464657044963196816950587289035428064568320970692304673817341489687505668096"
      ],
      "assetValues": [
        1
      ]
    },
    {
      "reservedAddress": "0xef38f892e4722152fd8edb50cd84a96344fd47ce",
      "assetIds": [
        "55464657044963196816950587289035428064568320970692304673817341489687505668096"
      ],
      "assetValues": [
        1
      ]
    },
    {
      "reservedAddress": "0xef46ceadb2ace25e5f6a677318778ac6bfeaf6e9",
      "assetIds": [
        "55464657044963196816950587289035428064568320970692304673817341489687505668096"
      ],
      "assetValues": [
        1
      ]
    },
    {
      "reservedAddress": "0xef47f078c7186bd6e5f56a45c7a12e7632450b54",
      "assetIds": [
        "55464657044963196816950587289035428064568320970692304673817341489687505668096"
      ],
      "assetValues": [
        1
      ]
    },
    {
      "reservedAddress": "0xef6852027fe73aa5d38491e57a539364a9187270",
      "assetIds": [
        "55464657044963196816950587289035428064568320970692304673817341489687505668096"
      ],
      "assetValues": [
        1
      ]
    },
    {
      "reservedAddress": "0xef6f8a8c65d2f0b8e5b51c411ec6d65d599f203f",
      "assetIds": [
        "55464657044963196816950587289035428064568320970692304673817341489687505668096"
      ],
      "assetValues": [
        1
      ]
    },
    {
      "reservedAddress": "0xef7844b0c03278284115ffcbb8703a4077c7b949",
      "assetIds": [
        "55464657044963196816950587289035428064568320970692304673817341489687505668096"
      ],
      "assetValues": [
        1
      ]
    },
    {
      "reservedAddress": "0xef8e6cf22ae1d4dea30d06224cc9f30c1d0c0c5f",
      "assetIds": [
        "55464657044963196816950587289035428064568320970692304673817341489687505668096"
      ],
      "assetValues": [
        1
      ]
    },
    {
      "reservedAddress": "0xefdbca567822fe63700f8aa273aa3c04d147e7f8",
      "assetIds": [
        "55464657044963196816950587289035428064568320970692304673817341489687505668096"
      ],
      "assetValues": [
        1
      ]
    },
    {
      "reservedAddress": "0xefdfb1467895aa23c42fb656a2c34479cef03042",
      "assetIds": [
        "55464657044963196816950587289035428064568320970692304673817341489687505668096"
      ],
      "assetValues": [
        1
      ]
    },
    {
      "reservedAddress": "0xeff5b3bbc33c1c2835fcc75e77103c866ab0fc62",
      "assetIds": [
        "55464657044963196816950587289035428064568320970692304673817341489687505668096"
      ],
      "assetValues": [
        1
      ]
    },
    {
      "reservedAddress": "0xf00efbb20c82e3b85de58bf09d13c2f4dee9fff0",
      "assetIds": [
        "55464657044963196816950587289035428064568320970692304673817341489687505668096"
      ],
      "assetValues": [
        1
      ]
    },
    {
      "reservedAddress": "0xf0103243f4d22b5696588646b21313d85916a16a",
      "assetIds": [
        "55464657044963196816950587289035428064568320970692304673817341489687505668096"
      ],
      "assetValues": [
        1
      ]
    },
    {
      "reservedAddress": "0xf0190e7505c072577be3281eeada81c192c24684",
      "assetIds": [
        "55464657044963196816950587289035428064568320970692304673817341489687505668096"
      ],
      "assetValues": [
        1
      ]
    },
    {
      "reservedAddress": "0xf04928ec019e13753aca32e2ea2b39238dadcaba",
      "assetIds": [
        "55464657044963196816950587289035428064568320970692304673817341489687505668096"
      ],
      "assetValues": [
        1
      ]
    },
    {
      "reservedAddress": "0xf060bf50e8a1524b0939002b26a8a03999e9ac57",
      "assetIds": [
        "55464657044963196816950587289035428064568320970692304673817341489687505668096"
      ],
      "assetValues": [
        1
      ]
    },
    {
      "reservedAddress": "0xf07070ad1238d81da6010886f964893e57b1b30b",
      "assetIds": [
        "55464657044963196816950587289035428064568320970692304673817341489687505668096"
      ],
      "assetValues": [
        1
      ]
    },
    {
      "reservedAddress": "0xf08f59b44c8bff72ea4cae15be3377791aadc342",
      "assetIds": [
        "55464657044963196816950587289035428064568320970692304673817341489687505668096"
      ],
      "assetValues": [
        1
      ]
    },
    {
      "reservedAddress": "0xf0abcfeaa30a95d32569fcf2b3a48bc7cb639871",
      "assetIds": [
        "55464657044963196816950587289035428064568320970692304673817341489687505668096"
      ],
      "assetValues": [
        1
      ]
    },
    {
      "reservedAddress": "0xf0c6494e3165986111bd8ab9efa66c48d9f18bde",
      "assetIds": [
        "55464657044963196816950587289035428064568320970692304673817341489687505668096"
      ],
      "assetValues": [
        1
      ]
    },
    {
      "reservedAddress": "0xf0d79a80a0ca7fdd5b64443acce554e856984092",
      "assetIds": [
        "55464657044963196816950587289035428064568320970692304673817341489687505668096"
      ],
      "assetValues": [
        1
      ]
    },
    {
      "reservedAddress": "0xf106aa306abf8aa6fe5040c5f6a2641bf940a586",
      "assetIds": [
        "55464657044963196816950587289035428064568320970692304673817341489687505668096"
      ],
      "assetValues": [
        1
      ]
    },
    {
      "reservedAddress": "0xf135da7e3fd22187b51baaa72cb1c1040b33dcbc",
      "assetIds": [
        "55464657044963196816950587289035428064568320970692304673817341489687505668096"
      ],
      "assetValues": [
        1
      ]
    },
    {
      "reservedAddress": "0xf138b002f7f514936873081b9dfa56672cdae42b",
      "assetIds": [
        "55464657044963196816950587289035428064568320970692304673817341489687505668096"
      ],
      "assetValues": [
        1
      ]
    },
    {
      "reservedAddress": "0xf14d1052d354ea9f781363ff9e7e198a2d192c32",
      "assetIds": [
        "55464657044963196816950587289035428064568320970692304673817341489687505668096"
      ],
      "assetValues": [
        1
      ]
    },
    {
      "reservedAddress": "0xf155ead5ecc2e3de7a22142b81ebda85839ecd0f",
      "assetIds": [
        "55464657044963196816950587289035428064568320970692304673817341489687505668096"
      ],
      "assetValues": [
        1
      ]
    },
    {
      "reservedAddress": "0xf15657a6d448afc4f8378dd3bad52c0871c0e110",
      "assetIds": [
        "55464657044963196816950587289035428064568320970692304673817341489687505668096"
      ],
      "assetValues": [
        1
      ]
    },
    {
      "reservedAddress": "0xf176bc032c0f0f1f0a91aa8b91cc5c34ccaf0a54",
      "assetIds": [
        "55464657044963196816950587289035428064568320970692304673817341489687505668096"
      ],
      "assetValues": [
        1
      ]
    },
    {
      "reservedAddress": "0xf19c1b88a5149eeff04fa4438f45eead47397b1f",
      "assetIds": [
        "55464657044963196816950587289035428064568320970692304673817341489687505668096"
      ],
      "assetValues": [
        1
      ]
    },
    {
      "reservedAddress": "0xf1a31c7282e9f2a1509a945f33142ddf00429f4b",
      "assetIds": [
        "55464657044963196816950587289035428064568320970692304673817341489687505668096"
      ],
      "assetValues": [
        1
      ]
    },
    {
      "reservedAddress": "0xf1aadff3f17c124865808b403f083d25bda04fd8",
      "assetIds": [
        "55464657044963196816950587289035428064568320970692304673817341489687505668096"
      ],
      "assetValues": [
        1
      ]
    },
    {
      "reservedAddress": "0xf1b62b5ec00225b1399c9ac08592dfa2d06ab877",
      "assetIds": [
        "55464657044963196816950587289035428064568320970692304673817341489687505668096"
      ],
      "assetValues": [
        1
      ]
    },
    {
      "reservedAddress": "0xf1cadbc9d4c419748d8d7f8c330240dcca477fe4",
      "assetIds": [
        "55464657044963196816950587289035428064568320970692304673817341489687505668096"
      ],
      "assetValues": [
        1
      ]
    },
    {
      "reservedAddress": "0xf1cf76eb472936a3a79a5b7aea7203204de33e91",
      "assetIds": [
        "55464657044963196816950587289035428064568320970692304673817341489687505668096"
      ],
      "assetValues": [
        1
      ]
    },
    {
      "reservedAddress": "0xf1d310525c6b1253bd90e9a53ecb2c36d84bf27a",
      "assetIds": [
        "55464657044963196816950587289035428064568320970692304673817341489687505668096"
      ],
      "assetValues": [
        1
      ]
    },
    {
      "reservedAddress": "0xf1db92691fce362d6f54f23ce3e6e048d803debd",
      "assetIds": [
        "55464657044963196816950587289035428064568320970692304673817341489687505668096"
      ],
      "assetValues": [
        1
      ]
    },
    {
      "reservedAddress": "0xf1ea4404203f5688a35efb5d76b23a87b0975ae1",
      "assetIds": [
        "55464657044963196816950587289035428064568320970692304673817341489687505668096"
      ],
      "assetValues": [
        1
      ]
    },
    {
      "reservedAddress": "0xf1fd425dab572837d0e1bd1289bfbd44e7a9e5b5",
      "assetIds": [
        "55464657044963196816950587289035428064568320970692304673817341489687505668096"
      ],
      "assetValues": [
        1
      ]
    },
    {
      "reservedAddress": "0xf2672bba1371f721c8cbf4a35e878b59a4cc580e",
      "assetIds": [
        "55464657044963196816950587289035428064568320970692304673817341489687505668096"
      ],
      "assetValues": [
        1
      ]
    },
    {
      "reservedAddress": "0xf27078bf9bdc462fe72bc06e3273dde7c5a41bb5",
      "assetIds": [
        "55464657044963196816950587289035428064568320970692304673817341489687505668096"
      ],
      "assetValues": [
        1
      ]
    },
    {
      "reservedAddress": "0xf290a36cd4ae7a264de2a07e63ed39deae4f7abe",
      "assetIds": [
        "55464657044963196816950587289035428064568320970692304673817341489687505668096"
      ],
      "assetValues": [
        1
      ]
    },
    {
      "reservedAddress": "0xf29d426c63f527d1740b37cd692bf33a60663913",
      "assetIds": [
        "55464657044963196816950587289035428064568320970692304673817341489687505668096"
      ],
      "assetValues": [
        1
      ]
    },
    {
      "reservedAddress": "0xf2aeb4d58ed321ff80d3003d69bcfd4bbf67af35",
      "assetIds": [
        "55464657044963196816950587289035428064568320970692304673817341489687505668096"
      ],
      "assetValues": [
        1
      ]
    },
    {
      "reservedAddress": "0xf2b1ce712e1c2174af7ebdaf8c3c930b82bba21c",
      "assetIds": [
        "55464657044963196816950587289035428064568320970692304673817341489687505668096"
      ],
      "assetValues": [
        1
      ]
    },
    {
      "reservedAddress": "0xf2c6365a915c366aff7c17df36714190fb3f95cf",
      "assetIds": [
        "55464657044963196816950587289035428064568320970692304673817341489687505668096"
      ],
      "assetValues": [
        1
      ]
    },
    {
      "reservedAddress": "0xf2c97466b49994d88470e64ed434fac89a94f018",
      "assetIds": [
        "55464657044963196816950587289035428064568320970692304673817341489687505668096"
      ],
      "assetValues": [
        1
      ]
    },
    {
      "reservedAddress": "0xf2de48a38d4df6663431d6f94a5e722cb0fd6b17",
      "assetIds": [
        "55464657044963196816950587289035428064568320970692304673817341489687505668096"
      ],
      "assetValues": [
        1
      ]
    },
    {
      "reservedAddress": "0xf305d3ba21c32a5b7894207c43219d380db4d07d",
      "assetIds": [
        "55464657044963196816950587289035428064568320970692304673817341489687505668096"
      ],
      "assetValues": [
        1
      ]
    },
    {
      "reservedAddress": "0xf31c8415ec6f46952c8e0222a16c0121632527e8",
      "assetIds": [
        "55464657044963196816950587289035428064568320970692304673817341489687505668096"
      ],
      "assetValues": [
        1
      ]
    },
    {
      "reservedAddress": "0xf333d6b04d27a2c5e21a339478d8fe165f069ade",
      "assetIds": [
        "55464657044963196816950587289035428064568320970692304673817341489687505668096"
      ],
      "assetValues": [
        1
      ]
    },
    {
      "reservedAddress": "0xf3751b0a9006f835750b78d57979ed6c87ec65a1",
      "assetIds": [
        "55464657044963196816950587289035428064568320970692304673817341489687505668096"
      ],
      "assetValues": [
        1
      ]
    },
    {
      "reservedAddress": "0xf37cf16883f34f0ee767586991fae76ed54fc4a8",
      "assetIds": [
        "55464657044963196816950587289035428064568320970692304673817341489687505668096"
      ],
      "assetValues": [
        1
      ]
    },
    {
      "reservedAddress": "0xf381896eb9280dcb2099523149d42f7b1ed43e9a",
      "assetIds": [
        "55464657044963196816950587289035428064568320970692304673817341489687505668096"
      ],
      "assetValues": [
        1
      ]
    },
    {
      "reservedAddress": "0xf39f7de0fae07017362894690f3cc770a4809d90",
      "assetIds": [
        "55464657044963196816950587289035428064568320970692304673817341489687505668096"
      ],
      "assetValues": [
        1
      ]
    },
    {
      "reservedAddress": "0xf3b9640c32590bfb94b848f9dc5a84127f91fe33",
      "assetIds": [
        "55464657044963196816950587289035428064568320970692304673817341489687505668096"
      ],
      "assetValues": [
        1
      ]
    },
    {
      "reservedAddress": "0xf3cbe2fb844e4e33cc48ad1db04fc9bdd884a12a",
      "assetIds": [
        "55464657044963196816950587289035428064568320970692304673817341489687505668096"
      ],
      "assetValues": [
        1
      ]
    },
    {
      "reservedAddress": "0xf3d9281fa183b74f32b96e1c5244596045f4ede8",
      "assetIds": [
        "55464657044963196816950587289035428064568320970692304673817341489687505668096"
      ],
      "assetValues": [
        1
      ]
    },
    {
      "reservedAddress": "0xf3ddcfbd3c8ede1e216ad64d39d4ffcd25122c6f",
      "assetIds": [
        "55464657044963196816950587289035428064568320970692304673817341489687505668096"
      ],
      "assetValues": [
        1
      ]
    },
    {
      "reservedAddress": "0xf3f903efcf2349bd33001cd06cd2c85dfc9e1666",
      "assetIds": [
        "55464657044963196816950587289035428064568320970692304673817341489687505668096"
      ],
      "assetValues": [
        1
      ]
    },
    {
      "reservedAddress": "0xf41cbfb5233753afbb8bf2d836bcd7cb3e826743",
      "assetIds": [
        "55464657044963196816950587289035428064568320970692304673817341489687505668096"
      ],
      "assetValues": [
        1
      ]
    },
    {
      "reservedAddress": "0xf43bed4f81f1d4d9b48dc3ed6b691f4dacede5b3",
      "assetIds": [
        "55464657044963196816950587289035428064568320970692304673817341489687505668096"
      ],
      "assetValues": [
        1
      ]
    },
    {
      "reservedAddress": "0xf48d427fb3816766905fabeda28bb28d850713c2",
      "assetIds": [
        "55464657044963196816950587289035428064568320970692304673817341489687505668096"
      ],
      "assetValues": [
        1
      ]
    },
    {
      "reservedAddress": "0xf4aa47b22f93a1a9e46f794100587a32505f2e17",
      "assetIds": [
        "55464657044963196816950587289035428064568320970692304673817341489687505668096"
      ],
      "assetValues": [
        1
      ]
    },
    {
      "reservedAddress": "0xf4c172b6f3bba0f78d95a85ff990d662b8ba00f7",
      "assetIds": [
        "55464657044963196816950587289035428064568320970692304673817341489687505668096"
      ],
      "assetValues": [
        1
      ]
    },
    {
      "reservedAddress": "0xf4c2949edc28b09fbab45f4f6b15634f4a27df3c",
      "assetIds": [
        "55464657044963196816950587289035428064568320970692304673817341489687505668096"
      ],
      "assetValues": [
        1
      ]
    },
    {
      "reservedAddress": "0xf4d8a9e2200f9456549b6743ec58468f0ce92752",
      "assetIds": [
        "55464657044963196816950587289035428064568320970692304673817341489687505668096"
      ],
      "assetValues": [
        1
      ]
    },
    {
      "reservedAddress": "0xf4f56fa0d045ae0e6ba8f82e2c32887fe0b152ea",
      "assetIds": [
        "55464657044963196816950587289035428064568320970692304673817341489687505668096"
      ],
      "assetValues": [
        1
      ]
    },
    {
      "reservedAddress": "0xf4ff31639556035d77ed692458d3b260965eca07",
      "assetIds": [
        "55464657044963196816950587289035428064568320970692304673817341489687505668096"
      ],
      "assetValues": [
        1
      ]
    },
    {
      "reservedAddress": "0xf51a230d99c25a6897c583dbb488d2653258cf7f",
      "assetIds": [
        "55464657044963196816950587289035428064568320970692304673817341489687505668096"
      ],
      "assetValues": [
        1
      ]
    },
    {
      "reservedAddress": "0xf5295519adbd3647a9f70a1358bc93eca64b241d",
      "assetIds": [
        "55464657044963196816950587289035428064568320970692304673817341489687505668096"
      ],
      "assetValues": [
        1
      ]
    },
    {
      "reservedAddress": "0xf53151067f234f9f66474089b2e0de025a5d55d7",
      "assetIds": [
        "55464657044963196816950587289035428064568320970692304673817341489687505668096"
      ],
      "assetValues": [
        1
      ]
    },
    {
      "reservedAddress": "0xf54dd6f203771e2cc8fff9dbfe192d00c94f5e50",
      "assetIds": [
        "55464657044963196816950587289035428064568320970692304673817341489687505668096"
      ],
      "assetValues": [
        1
      ]
    },
    {
      "reservedAddress": "0xf551825ea3f24fa7826acc320252083cab028f29",
      "assetIds": [
        "55464657044963196816950587289035428064568320970692304673817341489687505668096"
      ],
      "assetValues": [
        1
      ]
    },
    {
      "reservedAddress": "0xf57d86f6bfcc76aa2c7f62616b2436c60ad397e2",
      "assetIds": [
        "55464657044963196816950587289035428064568320970692304673817341489687505668096"
      ],
      "assetValues": [
        1
      ]
    },
    {
      "reservedAddress": "0xf5ba9563e850e905e91f7c9008dbbf89982cfa4a",
      "assetIds": [
        "55464657044963196816950587289035428064568320970692304673817341489687505668096"
      ],
      "assetValues": [
        1
      ]
    },
    {
      "reservedAddress": "0xf5c5ce6b959cbdd273f2b763c51bb7925735114a",
      "assetIds": [
        "55464657044963196816950587289035428064568320970692304673817341489687505668096"
      ],
      "assetValues": [
        1
      ]
    },
    {
      "reservedAddress": "0xf5cbba32d1a4444489f7c5939299796dec9a4713",
      "assetIds": [
        "55464657044963196816950587289035428064568320970692304673817341489687505668096"
      ],
      "assetValues": [
        1
      ]
    },
    {
      "reservedAddress": "0xf6429893355335823bb076692a41b914cd0a1e71",
      "assetIds": [
        "55464657044963196816950587289035428064568320970692304673817341489687505668096"
      ],
      "assetValues": [
        1
      ]
    },
    {
      "reservedAddress": "0xf64cc12e851a473db1e8326c8bcb7350922548b8",
      "assetIds": [
        "55464657044963196816950587289035428064568320970692304673817341489687505668096"
      ],
      "assetValues": [
        1
      ]
    },
    {
      "reservedAddress": "0xf65f42c8248e13bd1dd1696e40a5d760c3dce329",
      "assetIds": [
        "55464657044963196816950587289035428064568320970692304673817341489687505668096"
      ],
      "assetValues": [
        1
      ]
    },
    {
      "reservedAddress": "0xf67f27b0c31067d0253d2f3e08fa925f235be5c5",
      "assetIds": [
        "55464657044963196816950587289035428064568320970692304673817341489687505668096"
      ],
      "assetValues": [
        1
      ]
    },
    {
      "reservedAddress": "0xf68c723c96859226119413ffea0b05c28328dfbf",
      "assetIds": [
        "55464657044963196816950587289035428064568320970692304673817341489687505668096"
      ],
      "assetValues": [
        1
      ]
    },
    {
      "reservedAddress": "0xf6927da648e257d96199295770f5bacb8fca4722",
      "assetIds": [
        "55464657044963196816950587289035428064568320970692304673817341489687505668096"
      ],
      "assetValues": [
        1
      ]
    },
    {
      "reservedAddress": "0xf6a5f14d5c12a00b75dc2e04b6dad5063f8529db",
      "assetIds": [
        "55464657044963196816950587289035428064568320970692304673817341489687505668096"
      ],
      "assetValues": [
        1
      ]
    },
    {
      "reservedAddress": "0xf6c530eed1279561d1369a56198f281faf2f5f2c",
      "assetIds": [
        "55464657044963196816950587289035428064568320970692304673817341489687505668096"
      ],
      "assetValues": [
        1
      ]
    },
    {
      "reservedAddress": "0xf6ed1b461a87d0bea2c2548c2cfd79f90d11b02b",
      "assetIds": [
        "55464657044963196816950587289035428064568320970692304673817341489687505668096"
      ],
      "assetValues": [
        1
      ]
    },
    {
      "reservedAddress": "0xf6f0217fab2fccd0d05914c7984d0580c8c0026c",
      "assetIds": [
        "55464657044963196816950587289035428064568320970692304673817341489687505668096"
      ],
      "assetValues": [
        1
      ]
    },
    {
      "reservedAddress": "0xf704f3e52b4f4c543148efbaa5c035a3a0b6c717",
      "assetIds": [
        "55464657044963196816950587289035428064568320970692304673817341489687505668096"
      ],
      "assetValues": [
        1
      ]
    },
    {
      "reservedAddress": "0xf736f96898fe99336f83da7d6f122289ec1a7e3e",
      "assetIds": [
        "55464657044963196816950587289035428064568320970692304673817341489687505668096"
      ],
      "assetValues": [
        1
      ]
    },
    {
      "reservedAddress": "0xf73c935815908ad9a056fc50269f95d8ba032e9d",
      "assetIds": [
        "55464657044963196816950587289035428064568320970692304673817341489687505668096"
      ],
      "assetValues": [
        1
      ]
    },
    {
      "reservedAddress": "0xf73d2b38a1e1bd0b5dd4030e6bdc91f5e43cd109",
      "assetIds": [
        "55464657044963196816950587289035428064568320970692304673817341489687505668096"
      ],
      "assetValues": [
        1
      ]
    },
    {
      "reservedAddress": "0xf75aadfb7f43b9bad2225a96860d3b43fb43063a",
      "assetIds": [
        "55464657044963196816950587289035428064568320970692304673817341489687505668096"
      ],
      "assetValues": [
        1
      ]
    },
    {
      "reservedAddress": "0xf75f4ef65cad7465f324b70a832fb9db65c16c0d",
      "assetIds": [
        "55464657044963196816950587289035428064568320970692304673817341489687505668096"
      ],
      "assetValues": [
        1
      ]
    },
    {
      "reservedAddress": "0xf760bd4540ea21919f405a846a3aa5a1cdd58585",
      "assetIds": [
        "55464657044963196816950587289035428064568320970692304673817341489687505668096"
      ],
      "assetValues": [
        1
      ]
    },
    {
      "reservedAddress": "0xf767a3ea91315a22ecba56e91f4060b3c70379cd",
      "assetIds": [
        "55464657044963196816950587289035428064568320970692304673817341489687505668096"
      ],
      "assetValues": [
        1
      ]
    },
    {
      "reservedAddress": "0xf77e9bdedabaff1ec4241fcaa54493d339700d5a",
      "assetIds": [
        "55464657044963196816950587289035428064568320970692304673817341489687505668096"
      ],
      "assetValues": [
        1
      ]
    },
    {
      "reservedAddress": "0xf78647527c243a0121e687d2b5a4da73a9990a71",
      "assetIds": [
        "55464657044963196816950587289035428064568320970692304673817341489687505668096"
      ],
      "assetValues": [
        1
      ]
    },
    {
      "reservedAddress": "0xf790adf6a0384eb7461335c5e2d9403c5f3efaa8",
      "assetIds": [
        "55464657044963196816950587289035428064568320970692304673817341489687505668096"
      ],
      "assetValues": [
        1
      ]
    },
    {
      "reservedAddress": "0xf7fc30b5c4f39a1c32bc6ca3949e833e9e7d1043",
      "assetIds": [
        "55464657044963196816950587289035428064568320970692304673817341489687505668096"
      ],
      "assetValues": [
        1
      ]
    },
    {
      "reservedAddress": "0xf8018abbafeaf9066dea038585fc45b5a1eae5a6",
      "assetIds": [
        "55464657044963196816950587289035428064568320970692304673817341489687505668096"
      ],
      "assetValues": [
        1
      ]
    },
    {
      "reservedAddress": "0xf862c9413f2cc21ebfda534ecfa6df4f59f0b197",
      "assetIds": [
        "55464657044963196816950587289035428064568320970692304673817341489687505668096"
      ],
      "assetValues": [
        1
      ]
    },
    {
      "reservedAddress": "0xf8731e83ecda9d6170a64515a2ce5c73ca9fc44f",
      "assetIds": [
        "55464657044963196816950587289035428064568320970692304673817341489687505668096"
      ],
      "assetValues": [
        1
      ]
    },
    {
      "reservedAddress": "0xf875478565d22bb9738466c8fdccd2f6e5ef09b0",
      "assetIds": [
        "55464657044963196816950587289035428064568320970692304673817341489687505668096"
      ],
      "assetValues": [
        1
      ]
    },
    {
      "reservedAddress": "0xf876e482887ec61d0a0c5ae21303b1ac23b5c9ba",
      "assetIds": [
        "55464657044963196816950587289035428064568320970692304673817341489687505668096"
      ],
      "assetValues": [
        1
      ]
    },
    {
      "reservedAddress": "0xf87737d96df3f39434fdbb4d366397302d9dbb74",
      "assetIds": [
        "55464657044963196816950587289035428064568320970692304673817341489687505668096"
      ],
      "assetValues": [
        1
      ]
    },
    {
      "reservedAddress": "0xf8796f9a77a32cd7f6ae881c7e726181da242c98",
      "assetIds": [
        "55464657044963196816950587289035428064568320970692304673817341489687505668096"
      ],
      "assetValues": [
        1
      ]
    },
    {
      "reservedAddress": "0xf87a55eef59ba920abbb37cde3d915d3e986a530",
      "assetIds": [
        "55464657044963196816950587289035428064568320970692304673817341489687505668096"
      ],
      "assetValues": [
        1
      ]
    },
    {
      "reservedAddress": "0xf87b54d6237d2f494216194d84c028cb0f80769e",
      "assetIds": [
        "55464657044963196816950587289035428064568320970692304673817341489687505668096"
      ],
      "assetValues": [
        1
      ]
    },
    {
      "reservedAddress": "0xf89be918c3d9989dd1e454bd21e1fc3afb7e6eeb",
      "assetIds": [
        "55464657044963196816950587289035428064568320970692304673817341489687505668096"
      ],
      "assetValues": [
        1
      ]
    },
    {
      "reservedAddress": "0xf8cd644baf494d13406187cf8628754dca0a10c2",
      "assetIds": [
        "55464657044963196816950587289035428064568320970692304673817341489687505668096"
      ],
      "assetValues": [
        1
      ]
    },
    {
      "reservedAddress": "0xf9007c3213083dbf056b43ba43d87da14379c773",
      "assetIds": [
        "55464657044963196816950587289035428064568320970692304673817341489687505668096"
      ],
      "assetValues": [
        1
      ]
    },
    {
      "reservedAddress": "0xf902d068920234957d2908b8b0156e61c0bea2c2",
      "assetIds": [
        "55464657044963196816950587289035428064568320970692304673817341489687505668096"
      ],
      "assetValues": [
        1
      ]
    },
    {
      "reservedAddress": "0xf90995764129b793e6b8b8b5e6171c47282273ff",
      "assetIds": [
        "55464657044963196816950587289035428064568320970692304673817341489687505668096"
      ],
      "assetValues": [
        1
      ]
    },
    {
      "reservedAddress": "0xf9107317b0ff77ed5b7adea15e50514a3564002b",
      "assetIds": [
        "55464657044963196816950587289035428064568320970692304673817341489687505668096"
      ],
      "assetValues": [
        1
      ]
    },
    {
      "reservedAddress": "0xf915368afecef588a754b452c85731551d5cc7be",
      "assetIds": [
        "55464657044963196816950587289035428064568320970692304673817341489687505668096"
      ],
      "assetValues": [
        1
      ]
    },
    {
      "reservedAddress": "0xf91569595bcdaf780c3f1662f204e157949af8b2",
      "assetIds": [
        "55464657044963196816950587289035428064568320970692304673817341489687505668096"
      ],
      "assetValues": [
        1
      ]
    },
    {
      "reservedAddress": "0xf9295cf1c2b20a552542b1fae1efbefe271330ac",
      "assetIds": [
        "55464657044963196816950587289035428064568320970692304673817341489687505668096"
      ],
      "assetValues": [
        1
      ]
    },
    {
      "reservedAddress": "0xf92af2bd80bd48cae7a85d3e98461176b4d88d7f",
      "assetIds": [
        "55464657044963196816950587289035428064568320970692304673817341489687505668096"
      ],
      "assetValues": [
        1
      ]
    },
    {
      "reservedAddress": "0xf93aa627c861b9ee05b8ef67ba829c2ce94558f8",
      "assetIds": [
        "55464657044963196816950587289035428064568320970692304673817341489687505668096"
      ],
      "assetValues": [
        1
      ]
    },
    {
      "reservedAddress": "0xf93f8c99b6367d0a7e46a5d743c6427dba4e3ed8",
      "assetIds": [
        "55464657044963196816950587289035428064568320970692304673817341489687505668096"
      ],
      "assetValues": [
        1
      ]
    },
    {
      "reservedAddress": "0xf95aaa968547c87f818a090aed3b549ed8d4e49e",
      "assetIds": [
        "55464657044963196816950587289035428064568320970692304673817341489687505668096"
      ],
      "assetValues": [
        1
      ]
    },
    {
      "reservedAddress": "0xf97664376416e9379f2354db444bfe3f00b6936b",
      "assetIds": [
        "55464657044963196816950587289035428064568320970692304673817341489687505668096"
      ],
      "assetValues": [
        1
      ]
    },
    {
      "reservedAddress": "0xf98904eaf443334af2a165e4d4940612455e134a",
      "assetIds": [
        "55464657044963196816950587289035428064568320970692304673817341489687505668096"
      ],
      "assetValues": [
        1
      ]
    },
    {
      "reservedAddress": "0xf990691d89f49a3d0114ac8db5c73f53e6d26708",
      "assetIds": [
        "55464657044963196816950587289035428064568320970692304673817341489687505668096"
      ],
      "assetValues": [
        1
      ]
    },
    {
      "reservedAddress": "0xf9d8b7a4581ef05f117a7653465700004eafa38f",
      "assetIds": [
        "55464657044963196816950587289035428064568320970692304673817341489687505668096"
      ],
      "assetValues": [
        1
      ]
    },
    {
      "reservedAddress": "0xf9efecb4ef6038283bb8b44ff0bf7b1a7dc20542",
      "assetIds": [
        "55464657044963196816950587289035428064568320970692304673817341489687505668096"
      ],
      "assetValues": [
        1
      ]
    },
    {
      "reservedAddress": "0xfa0b8d7e1f187ca0a593c13b1f1c8544f7d06634",
      "assetIds": [
        "55464657044963196816950587289035428064568320970692304673817341489687505668096"
      ],
      "assetValues": [
        1
      ]
    },
    {
      "reservedAddress": "0xfa17dac9c3d54c5c522baa0c2bb71b9cc8a5b275",
      "assetIds": [
        "55464657044963196816950587289035428064568320970692304673817341489687505668096"
      ],
      "assetValues": [
        1
      ]
    },
    {
      "reservedAddress": "0xfa327cbb1ef6372f0b666ed842d623ade4931f4d",
      "assetIds": [
        "55464657044963196816950587289035428064568320970692304673817341489687505668096"
      ],
      "assetValues": [
        1
      ]
    },
    {
      "reservedAddress": "0xfa49c9dc40fcf170972637533a835eacc60c502e",
      "assetIds": [
        "55464657044963196816950587289035428064568320970692304673817341489687505668096"
      ],
      "assetValues": [
        1
      ]
    },
    {
      "reservedAddress": "0xfa7530c68b9fdf2f8404641abd5aaae0ef526851",
      "assetIds": [
        "55464657044963196816950587289035428064568320970692304673817341489687505668096"
      ],
      "assetValues": [
        1
      ]
    },
    {
      "reservedAddress": "0xfa7e510d7506baa33cd2620b8d6c41b5b3234b6a",
      "assetIds": [
        "55464657044963196816950587289035428064568320970692304673817341489687505668096"
      ],
      "assetValues": [
        1
      ]
    },
    {
      "reservedAddress": "0xfa898fceaf8df531afd2a32ee8675302c21fb11f",
      "assetIds": [
        "55464657044963196816950587289035428064568320970692304673817341489687505668096"
      ],
      "assetValues": [
        1
      ]
    },
    {
      "reservedAddress": "0xfaaceb78da4c3c4b8d1470d37a3a7c4c151a7efa",
      "assetIds": [
        "55464657044963196816950587289035428064568320970692304673817341489687505668096"
      ],
      "assetValues": [
        1
      ]
    },
    {
      "reservedAddress": "0xfab1396f1a54d7a89bf7e860705e594acefb77b3",
      "assetIds": [
        "55464657044963196816950587289035428064568320970692304673817341489687505668096"
      ],
      "assetValues": [
        1
      ]
    },
    {
      "reservedAddress": "0xfabe8d3eddd353c4a162023b229157df29d7b306",
      "assetIds": [
        "55464657044963196816950587289035428064568320970692304673817341489687505668096"
      ],
      "assetValues": [
        1
      ]
    },
    {
      "reservedAddress": "0xfac9e5f339d264962caa0c6ef40978fc01c19bc7",
      "assetIds": [
        "55464657044963196816950587289035428064568320970692304673817341489687505668096"
      ],
      "assetValues": [
        1
      ]
    },
    {
      "reservedAddress": "0xfacef700458d4fc9746f7f3e0d37b462711ff09e",
      "assetIds": [
        "55464657044963196816950587289035428064568320970692304673817341489687505668096"
      ],
      "assetValues": [
        1
      ]
    },
    {
      "reservedAddress": "0xfb219617fd741a1df5292225aad7269223e2f7b7",
      "assetIds": [
        "55464657044963196816950587289035428064568320970692304673817341489687505668096"
      ],
      "assetValues": [
        1
      ]
    },
    {
      "reservedAddress": "0xfb2337f4fef5682283565a156aec1d25d8c4aa31",
      "assetIds": [
        "55464657044963196816950587289035428064568320970692304673817341489687505668096"
      ],
      "assetValues": [
        1
      ]
    },
    {
      "reservedAddress": "0xfb3fdbf732ce0b8a0a39b58d49d9b08d532d7327",
      "assetIds": [
        "55464657044963196816950587289035428064568320970692304673817341489687505668096"
      ],
      "assetValues": [
        1
      ]
    },
    {
      "reservedAddress": "0xfb589c82b58e681361c34a54472a668896f56da7",
      "assetIds": [
        "55464657044963196816950587289035428064568320970692304673817341489687505668096"
      ],
      "assetValues": [
        1
      ]
    },
    {
      "reservedAddress": "0xfb60bbae6896fc36b1db29e1a0dacaf21aa96fa5",
      "assetIds": [
        "55464657044963196816950587289035428064568320970692304673817341489687505668096"
      ],
      "assetValues": [
        1
      ]
    },
    {
      "reservedAddress": "0xfb9bdaa6895a91bb08ea6a0ab9aaea6d9e2e930f",
      "assetIds": [
        "55464657044963196816950587289035428064568320970692304673817341489687505668096"
      ],
      "assetValues": [
        1
      ]
    },
    {
      "reservedAddress": "0xfb9d7b1e4cf0d420d4ed8d3cc00a38054765a31b",
      "assetIds": [
        "55464657044963196816950587289035428064568320970692304673817341489687505668096"
      ],
      "assetValues": [
        1
      ]
    },
    {
      "reservedAddress": "0xfb9f5b574da3230b8dfa9caf64abd0d0979b232a",
      "assetIds": [
        "55464657044963196816950587289035428064568320970692304673817341489687505668096"
      ],
      "assetValues": [
        1
      ]
    },
    {
      "reservedAddress": "0xfbc9925bb99ccdf542e158cdcd06fc4d72524da0",
      "assetIds": [
        "55464657044963196816950587289035428064568320970692304673817341489687505668096"
      ],
      "assetValues": [
        1
      ]
    },
    {
      "reservedAddress": "0xfbce0cbb70bd0bf43b11f721beaf941980c5ff4a",
      "assetIds": [
        "55464657044963196816950587289035428064568320970692304673817341489687505668096"
      ],
      "assetValues": [
        1
      ]
    },
    {
      "reservedAddress": "0xfbce6c8978a9734d5d7d1dc8fe9ccfe412217f69",
      "assetIds": [
        "55464657044963196816950587289035428064568320970692304673817341489687505668096"
      ],
      "assetValues": [
        1
      ]
    },
    {
      "reservedAddress": "0xfc0ac081405ad9b335d6a2d5a0812a4959ad4372",
      "assetIds": [
        "55464657044963196816950587289035428064568320970692304673817341489687505668096"
      ],
      "assetValues": [
        1
      ]
    },
    {
      "reservedAddress": "0xfc8c395ede6a848e7cf4e8b5bd1cc0ac2c5c0dc4",
      "assetIds": [
        "55464657044963196816950587289035428064568320970692304673817341489687505668096"
      ],
      "assetValues": [
        1
      ]
    },
    {
      "reservedAddress": "0xfc9214acf2e128e2fa92cb57cf66b794f0459e16",
      "assetIds": [
        "55464657044963196816950587289035428064568320970692304673817341489687505668096"
      ],
      "assetValues": [
        1
      ]
    },
    {
      "reservedAddress": "0xfc9fb438c456c771c0b38a57cf0e8a3eab4704fe",
      "assetIds": [
        "55464657044963196816950587289035428064568320970692304673817341489687505668096"
      ],
      "assetValues": [
        1
      ]
    },
    {
      "reservedAddress": "0xfca1188561350b905b3b0406da843318beee3f49",
      "assetIds": [
        "55464657044963196816950587289035428064568320970692304673817341489687505668096"
      ],
      "assetValues": [
        1
      ]
    },
    {
      "reservedAddress": "0xfcbd2abf98cbf9c9d262c87d0576c938e0aba608",
      "assetIds": [
        "55464657044963196816950587289035428064568320970692304673817341489687505668096"
      ],
      "assetValues": [
        1
      ]
    },
    {
      "reservedAddress": "0xfcbe136beebd20fe96edd061a5ca22ddc61b39bc",
      "assetIds": [
        "55464657044963196816950587289035428064568320970692304673817341489687505668096"
      ],
      "assetValues": [
        1
      ]
    },
    {
      "reservedAddress": "0xfcdf962280f12f767fa43b3b63e4047c5b840a14",
      "assetIds": [
        "55464657044963196816950587289035428064568320970692304673817341489687505668096"
      ],
      "assetValues": [
        1
      ]
    },
    {
      "reservedAddress": "0xfcea4a977d433d4b82337b6a223646f26c841375",
      "assetIds": [
        "55464657044963196816950587289035428064568320970692304673817341489687505668096"
      ],
      "assetValues": [
        1
      ]
    },
    {
      "reservedAddress": "0xfcf22b67c90cad767e5df5bf27e8a896c2991927",
      "assetIds": [
        "55464657044963196816950587289035428064568320970692304673817341489687505668096"
      ],
      "assetValues": [
        1
      ]
    },
    {
      "reservedAddress": "0xfcfd8d62596079e17a0f87c2b3e6358a4fbcfafa",
      "assetIds": [
        "55464657044963196816950587289035428064568320970692304673817341489687505668096"
      ],
      "assetValues": [
        1
      ]
    },
    {
      "reservedAddress": "0xfd2b50216641843be134f9fef67c25dc102c623a",
      "assetIds": [
        "55464657044963196816950587289035428064568320970692304673817341489687505668096"
      ],
      "assetValues": [
        1
      ]
    },
    {
      "reservedAddress": "0xfd3548502225d7a494f768263fbfa96edb96f33d",
      "assetIds": [
        "55464657044963196816950587289035428064568320970692304673817341489687505668096"
      ],
      "assetValues": [
        1
      ]
    },
    {
      "reservedAddress": "0xfd40e8b61f8bd099c49ff1f35fd9ceb0254873f7",
      "assetIds": [
        "55464657044963196816950587289035428064568320970692304673817341489687505668096"
      ],
      "assetValues": [
        1
      ]
    },
    {
      "reservedAddress": "0xfd788074844930d4ae3d508eff7aa54d76dbe3ff",
      "assetIds": [
        "55464657044963196816950587289035428064568320970692304673817341489687505668096"
      ],
      "assetValues": [
        1
      ]
    },
    {
      "reservedAddress": "0xfdd43923340736ffbcb31c808ac644922c1df05d",
      "assetIds": [
        "55464657044963196816950587289035428064568320970692304673817341489687505668096"
      ],
      "assetValues": [
        1
      ]
    },
    {
      "reservedAddress": "0xfdf5a8ea5c82074a774f5d30df3f75cc4c5fb592",
      "assetIds": [
        "55464657044963196816950587289035428064568320970692304673817341489687505668096"
      ],
      "assetValues": [
        1
      ]
    },
    {
      "reservedAddress": "0xfe25d2c76b86cdbfdda9e52e808cdb25b46a5dad",
      "assetIds": [
        "55464657044963196816950587289035428064568320970692304673817341489687505668096"
      ],
      "assetValues": [
        1
      ]
    },
    {
      "reservedAddress": "0xfe293b421756739abfdd4ea489b27c337baaa11c",
      "assetIds": [
        "55464657044963196816950587289035428064568320970692304673817341489687505668096"
      ],
      "assetValues": [
        1
      ]
    },
    {
      "reservedAddress": "0xfe8480e7a07dbd8d5e5c184465c72ee44aaae916",
      "assetIds": [
        "55464657044963196816950587289035428064568320970692304673817341489687505668096"
      ],
      "assetValues": [
        1
      ]
    },
    {
      "reservedAddress": "0xfeaa3de5be57c224a692fe8824b1b9b3f0df406b",
      "assetIds": [
        "55464657044963196816950587289035428064568320970692304673817341489687505668096"
      ],
      "assetValues": [
        1
      ]
    },
    {
      "reservedAddress": "0xfeb28ecb6a1b69130665a28c9b6be1d97c44e905",
      "assetIds": [
        "55464657044963196816950587289035428064568320970692304673817341489687505668096"
      ],
      "assetValues": [
        1
      ]
    },
    {
      "reservedAddress": "0xfec33a90737254dcf9aa33188a11f32797197f93",
      "assetIds": [
        "55464657044963196816950587289035428064568320970692304673817341489687505668096"
      ],
      "assetValues": [
        1
      ]
    },
    {
      "reservedAddress": "0xfed9f5d42cd3eb6d77d9f8c286cd03ecf1667fec",
      "assetIds": [
        "55464657044963196816950587289035428064568320970692304673817341489687505668096"
      ],
      "assetValues": [
        1
      ]
    },
    {
      "reservedAddress": "0xfef2c33e1ca5c81e630c4c766f5860e3222848a6",
      "assetIds": [
        "55464657044963196816950587289035428064568320970692304673817341489687505668096"
      ],
      "assetValues": [
        1
      ]
    },
    {
      "reservedAddress": "0xfefca5df7ac2b7b2410f08bffee3fe0f6fa42cfa",
      "assetIds": [
        "55464657044963196816950587289035428064568320970692304673817341489687505668096"
      ],
      "assetValues": [
        1
      ]
    },
    {
      "reservedAddress": "0xff000785974b4368959c440628af70e93968d431",
      "assetIds": [
        "55464657044963196816950587289035428064568320970692304673817341489687505668096"
      ],
      "assetValues": [
        1
      ]
    },
    {
      "reservedAddress": "0xff0ffbee6c59071f1ebd8af08cf38bf8836a3371",
      "assetIds": [
        "55464657044963196816950587289035428064568320970692304673817341489687505668096"
      ],
      "assetValues": [
        1
      ]
    },
    {
      "reservedAddress": "0xff16cd160d655a728f2898e8ef1bea8bcf9893d0",
      "assetIds": [
        "55464657044963196816950587289035428064568320970692304673817341489687505668096"
      ],
      "assetValues": [
        1
      ]
    },
    {
      "reservedAddress": "0xff16d64179a02d6a56a1183a28f1d6293646e2dd",
      "assetIds": [
        "55464657044963196816950587289035428064568320970692304673817341489687505668096"
      ],
      "assetValues": [
        1
      ]
    },
    {
      "reservedAddress": "0xff1a9252def51ede4489c05998f5e7cf8ad2c1b3",
      "assetIds": [
        "55464657044963196816950587289035428064568320970692304673817341489687505668096"
      ],
      "assetValues": [
        1
      ]
    },
    {
      "reservedAddress": "0xff3fc772434505abff38eecde3c689d4b0254528",
      "assetIds": [
        "55464657044963196816950587289035428064568320970692304673817341489687505668096"
      ],
      "assetValues": [
        1
      ]
    },
    {
      "reservedAddress": "0xff78bad7f3fefbf552a2978e1455d0126da9ba76",
      "assetIds": [
        "55464657044963196816950587289035428064568320970692304673817341489687505668096"
      ],
      "assetValues": [
        1
      ]
    },
    {
      "reservedAddress": "0xff79ad62d19066e43b99eed19f94e11b0e0b5688",
      "assetIds": [
        "55464657044963196816950587289035428064568320970692304673817341489687505668096"
      ],
      "assetValues": [
        1
      ]
    },
    {
      "reservedAddress": "0xffb8f2cfa08e3a11e3b7bde26277fb322220f403",
      "assetIds": [
        "55464657044963196816950587289035428064568320970692304673817341489687505668096"
      ],
      "assetValues": [
        1
      ]
    },
    {
      "reservedAddress": "0xffd1ac3e8818adcbe5c597ea076e8d3210b45df5",
      "assetIds": [
        "55464657044963196816950587289035428064568320970692304673817341489687505668096"
      ],
      "assetValues": [
        1
      ]
    },
    {
      "reservedAddress": "0xffdaf18197f7ab147da4d036f95c73764b7a9530",
      "assetIds": [
        "55464657044963196816950587289035428064568320970692304673817341489687505668096"
      ],
      "assetValues": [
        1
      ]
    }
  ],
  "solcInputHash": "d69091a9bbfb40829ea61ac74df83f00",
  "bytecode": "0x60e060405234801561001057600080fd5b50604051610e3b380380610e3b833981810160405260a081101561003357600080fd5b508051602082015160408301516060808501516080958601519185901b6001600160601b0319169095529293919290919084826001600160a01b0381166100775750305b606081811b6001600160601b03191660a052600080546001600160a01b0319166001600160a01b0398891617815560019690965560c0849052608051901c965094909416935091610d5991506100e2903980610442525080610aa5525080610a765250610d596000f3fe608060405234801561001057600080fd5b506004361061007d5760003560e01c80638f2839701161005b5780638f283970146101e9578063bc197c811461020f578063c884ef8314610371578063f23a6e61146103ab5761007d565b80631703e85c146100825780636e9960c3146101a85780637cb64759146101cc575b600080fd5b6101a6600480360360a081101561009857600080fd5b6001600160a01b0382351691908101906040810160208201356401000000008111156100c357600080fd5b8201836020820111156100d557600080fd5b803590602001918460208302840111640100000000831117156100f757600080fd5b91939092909160208101903564010000000081111561011557600080fd5b82018360208201111561012757600080fd5b8035906020019184602083028401116401000000008311171561014957600080fd5b91939092909160208101903564010000000081111561016757600080fd5b82018360208201111561017957600080fd5b8035906020019184602083028401116401000000008311171561019b57600080fd5b919350915035610440565b005b6101b06105d8565b604080516001600160a01b039092168252519081900360200190f35b6101a6600480360360208110156101e257600080fd5b50356105e7565b6101a6600480360360208110156101ff57600080fd5b50356001600160a01b03166106a0565b61033c600480360360a081101561022557600080fd5b6001600160a01b03823581169260208101359091169181019060608101604082013564010000000081111561025957600080fd5b82018360208201111561026b57600080fd5b8035906020019184602083028401116401000000008311171561028d57600080fd5b9193909290916020810190356401000000008111156102ab57600080fd5b8201836020820111156102bd57600080fd5b803590602001918460208302840111640100000000831117156102df57600080fd5b9193909290916020810190356401000000008111156102fd57600080fd5b82018360208201111561030f57600080fd5b8035906020019184600183028401116401000000008311171561033157600080fd5b509092509050610781565b604080517fffffffff000000000000000000000000000000000000000000000000000000009092168252519081900360200190f35b6103976004803603602081101561038757600080fd5b50356001600160a01b03166107ae565b604080519115158252519081900360200190f35b61033c600480360360a08110156103c157600080fd5b6001600160a01b03823581169260208101359091169160408201359160608101359181019060a08101608082013564010000000081111561040157600080fd5b82018360208201111561041357600080fd5b8035906020019184600183028401116401000000008311171561043557600080fd5b5090925090506107c3565b7f000000000000000000000000000000000000000000000000000000000000000042106104b4576040805162461bcd60e51b815260206004820152601460248201527f434c41494d5f504552494f445f49535f4f564552000000000000000000000000604482015290519081900360640190fd5b6001600160a01b03881661050f576040805162461bcd60e51b815260206004820152601760248201527f494e56414c49445f544f5f5a45524f5f41444452455353000000000000000000604482015290519081900360640190fd5b6001600160a01b03881660009081526002602052604090205460ff161561057d576040805162461bcd60e51b815260206004820152601b60248201527f44455354494e4154494f4e5f414c52454144595f434c41494d45440000000000604482015290519081900360640190fd5b6001600160a01b038816600090815260026020526040902080547fffffffffffffffffffffffffffffffffffffffffffffffffffffffffffffff001660011790556105ce88888888888888886107ee565b5050505050505050565b6000546001600160a01b031690565b6000546001600160a01b03163314610646576040805162461bcd60e51b815260206004820152600a60248201527f41444d494e5f4f4e4c5900000000000000000000000000000000000000000000604482015290519081900360640190fd5b6001541561069b576040805162461bcd60e51b815260206004820152601760248201527f4d45524b4c455f524f4f545f414c52454144595f534554000000000000000000604482015290519081900360640190fd5b600155565b6000546001600160a01b031633146106ff576040805162461bcd60e51b815260206004820152601360248201527f41444d494e5f4143434553535f44454e49454400000000000000000000000000604482015290519081900360640190fd5b600054604080516001600160a01b039283168152918316602083015280517f7e644d79422f17c01e4894b5f4f588d331ebfa28653d42ae832dc59e38c9798f9281900390910190a1600080547fffffffffffffffffffffffff0000000000000000000000000000000000000000166001600160a01b0392909216919091179055565b7fbc197c810000000000000000000000000000000000000000000000000000000098975050505050505050565b60026020526000908152604090205460ff1681565b7ff23a6e61000000000000000000000000000000000000000000000000000000009695505050505050565b61088f8888888080602002602001604051908101604052809392919081815260200183836020028082843760009201919091525050604080516020808c0282810182019093528b82529093508b92508a91829185019084908082843760009201919091525050604080516020808b0282810182019093528a82529093508a9250899182918501908490808284376000920191909152508892506109ab915050565b6108fd8888888080602002602001604051908101604052809392919081815260200183836020028082843760009201919091525050604080516020808c0282810182019093528b82529093508b92508a918291850190849080828437600092019190915250610a7492505050565b7f7197de5398384ebaa85c57406356f07bec2ea8a342960e5445ac084ae8fa2651888888888860405180866001600160a01b0316815260200180602001806020018381038352878782818152602001925060200280828437600083820152601f01601f19169091018481038352858152602090810191508690860280828437600083820152604051601f909101601f1916909201829003995090975050505050505050a15050505050505050565b8251845114610a01576040805162461bcd60e51b815260206004820152600d60248201527f494e56414c49445f494e50555400000000000000000000000000000000000000604482015290519081900360640190fd5b6000610a0f86868685610bd1565b9050610a1b8382610c78565b610a6c576040805162461bcd60e51b815260206004820152600d60248201527f494e56414c49445f434c41494d00000000000000000000000000000000000000604482015290519081900360640190fd5b505050505050565b7f00000000000000000000000000000000000000000000000000000000000000006001600160a01b0316632eb2c2d67f00000000000000000000000000000000000000000000000000000000000000008585856040518563ffffffff1660e01b815260040180856001600160a01b03168152602001846001600160a01b03168152602001806020018060200180602001848103845286818151815260200191508051906020019060200280838360005b83811015610b3c578181015183820152602001610b24565b50505050905001848103835285818151815260200191508051906020019060200280838360005b83811015610b7b578181015183820152602001610b63565b50505050905001848103825260008152602001602001975050505050505050600060405180830381600087803b158015610bb457600080fd5b505af1158015610bc8573d6000803e3d6000fd5b50505050505050565b60008484848460405160200180856001600160a01b031660601b8152601401848051906020019060200280838360005b83811015610c19578181015183820152602001610c01565b50505050905001838051906020019060200280838360005b83811015610c49578181015183820152602001610c31565b505050509190910192835250506040805180830381526020928301909152805191012098975050505050505050565b600081815b8451811015610d17576000858281518110610c9457fe5b6020026020010151905080831015610cdc5782816040516020018083815260200182815260200192505050604051602081830303815290604052805190602001209250610d0e565b808360405160200180838152602001828152602001925050506040516020818303038152906040528051906020012092505b50600101610c7d565b5060015414939250505056fea264697066735822122068184c1374d369fb58b799429ca7c834b9ec90926aeab24926699d5a7d1ea41864736f6c63430007050033",
  "devdoc": {
    "kind": "dev",
    "methods": {
      "changeAdmin(address)": {
        "details": "Change the administrator to be `newAdmin`.",
        "params": {
          "newAdmin": "The address of the new administrator."
        }
      },
      "claimAssets(address,uint256[],uint256[],bytes32[],bytes32)": {
        "params": {
          "assetIds": "The array of IDs of the asset tokens",
          "assetValues": "The amounts of each token ID to transfer",
          "proof": "The proof submitted for verification",
          "salt": "The salt submitted for verification",
          "to": "The intended recipient (reserved address) of the ERC1155 tokens"
        }
      },
      "getAdmin()": {
        "details": "Get the current administrator of this contract.",
        "returns": {
          "_0": "The current administrator of this contract."
        }
      },
      "setMerkleRoot(bytes32)": {
        "params": {
          "merkleRoot": "The merkle root hash of the asset data"
        }
      }
    },
    "title": "AssetGiveaway contract",
    "version": 1
  },
  "userdoc": {
    "kind": "user",
    "methods": {
      "claimAssets(address,uint256[],uint256[],bytes32[],bytes32)": {
        "notice": "Function to permit the claiming of an asset to a reserved address"
      },
      "setMerkleRoot(bytes32)": {
        "notice": "Function to set the merkle root hash for the asset data, if it is 0"
      }
    },
    "notice": "This contract manages ERC1155 claims",
    "version": 1
  },
  "storageLayout": {
    "storage": [
      {
        "astId": 2992,
        "contract": "src/solc_0.7/AssetGiveaway/AssetGiveaway.sol:AssetGiveaway",
        "label": "_admin",
        "offset": 0,
        "slot": "0",
        "type": "t_address"
      },
      {
        "astId": 768,
        "contract": "src/solc_0.7/AssetGiveaway/AssetGiveaway.sol:AssetGiveaway",
        "label": "_merkleRoot",
        "offset": 0,
        "slot": "1",
        "type": "t_bytes32"
      },
      {
        "astId": 613,
        "contract": "src/solc_0.7/AssetGiveaway/AssetGiveaway.sol:AssetGiveaway",
        "label": "claimed",
        "offset": 0,
        "slot": "2",
        "type": "t_mapping(t_address,t_bool)"
      }
    ],
    "types": {
      "t_address": {
        "encoding": "inplace",
        "label": "address",
        "numberOfBytes": "20"
      },
      "t_bool": {
        "encoding": "inplace",
        "label": "bool",
        "numberOfBytes": "1"
      },
      "t_bytes32": {
        "encoding": "inplace",
        "label": "bytes32",
        "numberOfBytes": "32"
      },
      "t_mapping(t_address,t_bool)": {
        "encoding": "mapping",
        "key": "t_address",
        "label": "mapping(address => bool)",
        "numberOfBytes": "32",
        "value": "t_bool"
      }
    }
  }
}