{
  "address": "0xA0e1e9AD67b5B6C053489d9882d7b8eD4546D8cb",
  "abi": [
    {
      "inputs": [
        {
          "internalType": "address",
          "name": "landAddress",
          "type": "address"
        },
        {
          "internalType": "address",
          "name": "sandContractAddress",
          "type": "address"
        },
        {
          "internalType": "address",
          "name": "initialMetaTx",
          "type": "address"
        },
        {
          "internalType": "address",
          "name": "admin",
          "type": "address"
        },
        {
          "internalType": "address payable",
          "name": "initialWalletAddress",
          "type": "address"
        },
        {
          "internalType": "bytes32",
          "name": "merkleRoot",
          "type": "bytes32"
        },
        {
          "internalType": "uint256",
          "name": "expiryTime",
          "type": "uint256"
        },
        {
          "internalType": "address",
          "name": "initialSigningWallet",
          "type": "address"
        },
        {
          "internalType": "uint256",
          "name": "initialMaxCommissionRate",
          "type": "uint256"
        },
        {
          "internalType": "address",
          "name": "estate",
          "type": "address"
        },
        {
          "internalType": "address",
          "name": "asset",
          "type": "address"
        },
        {
          "internalType": "address",
          "name": "feeDistributor",
          "type": "address"
        }
      ],
      "stateMutability": "nonpayable",
      "type": "constructor"
    },
    {
      "anonymous": false,
      "inputs": [
        {
          "indexed": false,
          "internalType": "address",
          "name": "oldAdmin",
          "type": "address"
        },
        {
          "indexed": false,
          "internalType": "address",
          "name": "newAdmin",
          "type": "address"
        }
      ],
      "name": "AdminChanged",
      "type": "event"
    },
    {
      "anonymous": false,
      "inputs": [
        {
          "indexed": true,
          "internalType": "address",
          "name": "buyer",
          "type": "address"
        },
        {
          "indexed": true,
          "internalType": "address",
          "name": "to",
          "type": "address"
        },
        {
          "indexed": true,
          "internalType": "uint256",
          "name": "topCornerId",
          "type": "uint256"
        },
        {
          "indexed": false,
          "internalType": "uint256",
          "name": "size",
          "type": "uint256"
        },
        {
          "indexed": false,
          "internalType": "uint256",
          "name": "price",
          "type": "uint256"
        },
        {
          "indexed": false,
          "internalType": "address",
          "name": "token",
          "type": "address"
        },
        {
          "indexed": false,
          "internalType": "uint256",
          "name": "amountPaid",
          "type": "uint256"
        }
      ],
      "name": "LandQuadPurchased",
      "type": "event"
    },
    {
      "anonymous": false,
      "inputs": [
        {
          "indexed": false,
          "internalType": "address",
          "name": "metaTransactionProcessor",
          "type": "address"
        },
        {
          "indexed": false,
          "internalType": "bool",
          "name": "enabled",
          "type": "bool"
        }
      ],
      "name": "MetaTransactionProcessor",
      "type": "event"
    },
    {
      "anonymous": false,
      "inputs": [
        {
          "indexed": true,
          "internalType": "address",
          "name": "referrer",
          "type": "address"
        },
        {
          "indexed": true,
          "internalType": "address",
          "name": "referee",
          "type": "address"
        },
        {
          "indexed": true,
          "internalType": "address",
          "name": "token",
          "type": "address"
        },
        {
          "indexed": false,
          "internalType": "uint256",
          "name": "amount",
          "type": "uint256"
        },
        {
          "indexed": false,
          "internalType": "uint256",
          "name": "commission",
          "type": "uint256"
        },
        {
          "indexed": false,
          "internalType": "uint256",
          "name": "commissionRate",
          "type": "uint256"
        }
      ],
      "name": "ReferralUsed",
      "type": "event"
    },
    {
      "inputs": [
        {
          "internalType": "address",
          "name": "buyer",
          "type": "address"
        },
        {
          "internalType": "address",
          "name": "to",
          "type": "address"
        },
        {
          "internalType": "address",
          "name": "reserved",
          "type": "address"
        },
        {
          "internalType": "uint256",
          "name": "x",
          "type": "uint256"
        },
        {
          "internalType": "uint256",
          "name": "y",
          "type": "uint256"
        },
        {
          "internalType": "uint256",
          "name": "size",
          "type": "uint256"
        },
        {
          "internalType": "uint256",
          "name": "priceInSand",
          "type": "uint256"
        },
        {
          "internalType": "uint256",
          "name": "adjustedPriceInSand",
          "type": "uint256"
        },
        {
          "internalType": "bytes32",
          "name": "salt",
          "type": "bytes32"
        },
        {
          "internalType": "uint256[]",
          "name": "assetIds",
          "type": "uint256[]"
        },
        {
          "internalType": "bytes32[]",
          "name": "proof",
          "type": "bytes32[]"
        },
        {
          "internalType": "bytes",
          "name": "referral",
          "type": "bytes"
        }
      ],
      "name": "buyLandWithSand",
      "outputs": [],
      "stateMutability": "nonpayable",
      "type": "function"
    },
    {
      "inputs": [
        {
          "internalType": "address",
          "name": "newAdmin",
          "type": "address"
        }
      ],
      "name": "changeAdmin",
      "outputs": [],
      "stateMutability": "nonpayable",
      "type": "function"
    },
    {
      "inputs": [
        {
          "internalType": "bytes",
          "name": "referral",
          "type": "bytes"
        }
      ],
      "name": "decodeReferral",
      "outputs": [
        {
          "internalType": "bytes",
          "name": "",
          "type": "bytes"
        },
        {
          "internalType": "address",
          "name": "",
          "type": "address"
        },
        {
          "internalType": "address",
          "name": "",
          "type": "address"
        },
        {
          "internalType": "uint256",
          "name": "",
          "type": "uint256"
        },
        {
          "internalType": "uint256",
          "name": "",
          "type": "uint256"
        }
      ],
      "stateMutability": "pure",
      "type": "function"
    },
    {
      "inputs": [],
      "name": "getAdmin",
      "outputs": [
        {
          "internalType": "address",
          "name": "",
          "type": "address"
        }
      ],
      "stateMutability": "view",
      "type": "function"
    },
    {
      "inputs": [],
      "name": "getExpiryTime",
      "outputs": [
        {
          "internalType": "uint256",
          "name": "",
          "type": "uint256"
        }
      ],
      "stateMutability": "view",
      "type": "function"
    },
    {
      "inputs": [],
      "name": "getMaxCommisionRate",
      "outputs": [
        {
          "internalType": "uint256",
          "name": "",
          "type": "uint256"
        }
      ],
      "stateMutability": "view",
      "type": "function"
    },
    {
      "inputs": [],
      "name": "getMerkleRoot",
      "outputs": [
        {
          "internalType": "bytes32",
          "name": "",
          "type": "bytes32"
        }
      ],
      "stateMutability": "view",
      "type": "function"
    },
    {
      "inputs": [],
      "name": "getSandMultiplier",
      "outputs": [
        {
          "internalType": "uint256",
          "name": "",
          "type": "uint256"
        }
      ],
      "stateMutability": "view",
      "type": "function"
    },
    {
      "inputs": [],
      "name": "getSigningWallet",
      "outputs": [
        {
          "internalType": "address",
          "name": "",
          "type": "address"
        }
      ],
      "stateMutability": "view",
      "type": "function"
    },
    {
      "inputs": [
        {
          "internalType": "address",
          "name": "who",
          "type": "address"
        }
      ],
      "name": "isMetaTransactionProcessor",
      "outputs": [
        {
          "internalType": "bool",
          "name": "",
          "type": "bool"
        }
      ],
      "stateMutability": "view",
      "type": "function"
    },
    {
      "inputs": [
        {
          "internalType": "bytes",
          "name": "signature",
          "type": "bytes"
        },
        {
          "internalType": "address",
          "name": "referrer",
          "type": "address"
        },
        {
          "internalType": "address",
          "name": "referee",
          "type": "address"
        },
        {
          "internalType": "uint256",
          "name": "expiryTime",
          "type": "uint256"
        },
        {
          "internalType": "uint256",
          "name": "commissionRate",
          "type": "uint256"
        }
      ],
      "name": "isReferralValid",
      "outputs": [
        {
          "internalType": "bool",
          "name": "",
          "type": "bool"
        }
      ],
      "stateMutability": "view",
      "type": "function"
    },
    {
      "inputs": [
        {
          "internalType": "address",
          "name": "",
          "type": "address"
        },
        {
          "internalType": "address",
          "name": "",
          "type": "address"
        },
        {
          "internalType": "uint256[]",
          "name": "",
          "type": "uint256[]"
        },
        {
          "internalType": "uint256[]",
          "name": "",
          "type": "uint256[]"
        },
        {
          "internalType": "bytes",
          "name": "",
          "type": "bytes"
        }
      ],
      "name": "onERC1155BatchReceived",
      "outputs": [
        {
          "internalType": "bytes4",
          "name": "",
          "type": "bytes4"
        }
      ],
      "stateMutability": "pure",
      "type": "function"
    },
    {
      "inputs": [
        {
          "internalType": "address",
          "name": "",
          "type": "address"
        },
        {
          "internalType": "address",
          "name": "",
          "type": "address"
        },
        {
          "internalType": "uint256",
          "name": "",
          "type": "uint256"
        },
        {
          "internalType": "uint256",
          "name": "",
          "type": "uint256"
        },
        {
          "internalType": "bytes",
          "name": "",
          "type": "bytes"
        }
      ],
      "name": "onERC1155Received",
      "outputs": [
        {
          "internalType": "bytes4",
          "name": "",
          "type": "bytes4"
        }
      ],
      "stateMutability": "pure",
      "type": "function"
    },
    {
      "inputs": [
        {
          "internalType": "uint256",
          "name": "newMultiplier",
          "type": "uint256"
        }
      ],
      "name": "rebalanceSand",
      "outputs": [],
      "stateMutability": "nonpayable",
      "type": "function"
    },
    {
      "inputs": [
        {
          "internalType": "address",
          "name": "metaTransactionProcessor",
          "type": "address"
        },
        {
          "internalType": "bool",
          "name": "enabled",
          "type": "bool"
        }
      ],
      "name": "setMetaTransactionProcessor",
      "outputs": [],
      "stateMutability": "nonpayable",
      "type": "function"
    },
    {
      "inputs": [
        {
          "internalType": "address payable",
          "name": "newWallet",
          "type": "address"
        }
      ],
      "name": "setReceivingWallet",
      "outputs": [],
      "stateMutability": "nonpayable",
      "type": "function"
    },
    {
      "inputs": [
        {
          "internalType": "uint256",
          "name": "newMaxCommissionRate",
          "type": "uint256"
        }
      ],
      "name": "updateMaxCommissionRate",
      "outputs": [],
      "stateMutability": "nonpayable",
      "type": "function"
    },
    {
      "inputs": [
        {
          "internalType": "address",
          "name": "newSigningWallet",
          "type": "address"
        }
      ],
      "name": "updateSigningWallet",
      "outputs": [],
      "stateMutability": "nonpayable",
      "type": "function"
    },
    {
      "inputs": [
        {
          "internalType": "address",
          "name": "to",
          "type": "address"
        },
        {
          "internalType": "uint256[]",
          "name": "assetIds",
          "type": "uint256[]"
        },
        {
          "internalType": "uint256[]",
          "name": "values",
          "type": "uint256[]"
        }
      ],
      "name": "withdrawAssets",
      "outputs": [],
      "stateMutability": "nonpayable",
      "type": "function"
    }
  ],
  "transactionHash": "0xba7de01864f1f422188cfae1234c0bad5d06fcfa2a9abaef989f08ededa2d3da",
  "args": [
    "0x50f5474724e0Ee42D9a4e711ccFB275809Fd6d4a",
    "0x3845badAde8e6dFF049820680d1F14bD3903a5d0",
    "0x3845badAde8e6dFF049820680d1F14bD3903a5d0",
    "0xEAA0993E1d21c2103e4f172a20D29371FbAF6D06",
    "0x4489590a116618B506F0EfE885432F6A8ED998E9",
    "0x72c59ff5df43b1ba4cfa9076c7eac1ce7bc16b06200b8f92390fe84ea86a25c8",
    1631797200,
    "0x3044719d139F866a44c988823513eCB93060bF1b",
    2000,
    "0x0000000000000000000000000000000000000000",
    "0xa342f5D851E866E18ff98F351f2c6637f4478dB5",
    "0x0EB04462D69B1D267d269377E34f60b9De1c8510"
  ],
  "linkedData": [
    {
      "x": 285,
      "y": 168,
      "size": 1,
      "price": "1011000000000000000000",
      "reserved": "",
      "salt": "0x7a4091e0b81b82776396b2d84be61c31b8d227c29133b74d7c24ae5ae3fc506c",
      "assetIds": []
    },
    {
      "x": 285,
      "y": 169,
      "size": 1,
      "price": "1011000000000000000000",
      "reserved": "",
      "salt": "0x14318b77ec7eb13a340dc47f7e19aab6d780201cb1596903501f36b3250f30d5",
      "assetIds": []
    },
    {
      "x": 285,
      "y": 170,
      "size": 1,
      "price": "1011000000000000000000",
      "reserved": "",
      "salt": "0xe6e00e0afe29701200b7d4e066d2881ae5f5d0ee05595249898673961100c3b2",
      "assetIds": []
    },
    {
      "x": 285,
      "y": 171,
      "size": 1,
      "price": "1011000000000000000000",
      "reserved": "",
      "salt": "0x99f07fb504b3d8aebceeff08c891c4253100d40059704841085de34f0228702a",
      "assetIds": []
    },
    {
      "x": 285,
      "y": 172,
      "size": 1,
      "price": "1011000000000000000000",
      "reserved": "",
      "salt": "0x36e42f31b62b43427ef39783b7583d74ba1b2b1e111f4981599ef0e09ef7e152",
      "assetIds": []
    },
    {
      "x": 285,
      "y": 173,
      "size": 1,
      "price": "1011000000000000000000",
      "reserved": "",
      "salt": "0xd075a92538dc66415c9c4feec9c4a13975868566fe8a339f166cf8f2b0c3b017",
      "assetIds": []
    },
    {
      "x": 285,
      "y": 174,
      "size": 1,
      "price": "1011000000000000000000",
      "reserved": "",
      "salt": "0x5cbaabee5378eed32a43283ca2471b939cb3a832e8b7ff74040fab3c2cac9aac",
      "assetIds": []
    },
    {
      "x": 285,
      "y": 175,
      "size": 1,
      "price": "1011000000000000000000",
      "reserved": "",
      "salt": "0xe318e688cd67c0221b84ec01647a2b229072ee418f457ed544a161dfeb11195c",
      "assetIds": []
    },
    {
      "x": 285,
      "y": 176,
      "size": 1,
      "price": "1011000000000000000000",
      "reserved": "",
      "salt": "0xa8c94dbd4752d8c641a11e475a1027b66d293344fb214f9ce9ce2fc54191ed51",
      "assetIds": []
    },
    {
      "x": 285,
      "y": 177,
      "size": 1,
      "price": "1011000000000000000000",
      "reserved": "",
      "salt": "0xdaba73df5d4dd0680124d923a95110c37486a5c65ef7e17e20c8e52ff4806d4f",
      "assetIds": []
    },
    {
      "x": 285,
      "y": 178,
      "size": 1,
      "price": "1011000000000000000000",
      "reserved": "",
      "salt": "0xf17d4156cfffc4acbd41df721c95d27b01a95271ae6ca3b9c35602409a972e80",
      "assetIds": []
    },
    {
      "x": 285,
      "y": 179,
      "size": 1,
      "price": "1011000000000000000000",
      "reserved": "",
      "salt": "0x8b5fbfad65c7758f87717d147a036344b9c9568a756ac315120ea972c6b881db",
      "assetIds": []
    },
    {
      "x": 286,
      "y": 168,
      "size": 1,
      "price": "1011000000000000000000",
      "reserved": "",
      "salt": "0x2043793dbf8ae231c89bc6ddc00221dab2e7730e9cff775d9fe2ebefdd340ece",
      "assetIds": []
    },
    {
      "x": 286,
      "y": 169,
      "size": 1,
      "price": "1011000000000000000000",
      "reserved": "",
      "salt": "0xe5b6abcae598d9647a003d6b90cd3b4bb455c4d85ad3eb0d3dbf0df69da97b3d",
      "assetIds": []
    },
    {
      "x": 286,
      "y": 170,
      "size": 1,
      "price": "1011000000000000000000",
      "reserved": "",
      "salt": "0xc5fffb0d23cea822afc53ff27e2c19e40cbc2bc3226d45162f2952cd06d5168f",
      "assetIds": []
    },
    {
      "x": 286,
      "y": 171,
      "size": 1,
      "price": "1011000000000000000000",
      "reserved": "",
      "salt": "0x7a1f1d4e28147efa7a93cee1471c04157299a71567fbf75fde9b836c134f2439",
      "assetIds": []
    },
    {
      "x": 286,
      "y": 172,
      "size": 1,
      "price": "1011000000000000000000",
      "reserved": "",
      "salt": "0xad8a38853a9b6486fb3ffa3050c4effd9955bb5830defb8c91f6ee5aa1c2112e",
      "assetIds": []
    },
    {
      "x": 286,
      "y": 173,
      "size": 1,
      "price": "1011000000000000000000",
      "reserved": "",
      "salt": "0xaf23492095b188c8c0f35cd0cac110924944e95370cda5751735bd47741c9af2",
      "assetIds": []
    },
    {
      "x": 286,
      "y": 174,
      "size": 1,
      "price": "1011000000000000000000",
      "reserved": "",
      "salt": "0xa6fce2af0b0842d17b17387727adebb149f2d9d0ca054f53e459c26ac241ff48",
      "assetIds": []
    },
    {
      "x": 286,
      "y": 175,
      "size": 1,
      "price": "1011000000000000000000",
      "reserved": "",
      "salt": "0xe8062cd4d75227a56f6be293790fce2e1a4e414839305c3c9d3456771f9de790",
      "assetIds": []
    },
    {
      "x": 286,
      "y": 176,
      "size": 1,
      "price": "1011000000000000000000",
      "reserved": "",
      "salt": "0x512feb3de2bb0ce91628c422a88bbf4a28037fcce06d9e8ce23092f297d83818",
      "assetIds": []
    },
    {
      "x": 286,
      "y": 177,
      "size": 1,
      "price": "1011000000000000000000",
      "reserved": "",
      "salt": "0xb9c1e72eed0f573b6f1c462c77c5155bc79e4d2115c16d903b866ef198b1ee65",
      "assetIds": []
    },
    {
      "x": 286,
      "y": 178,
      "size": 1,
      "price": "1011000000000000000000",
      "reserved": "",
      "salt": "0x2e98baa0308c132682e90897709b8399e4b9d82d8ff160dae6db2bff1523451a",
      "assetIds": []
    },
    {
      "x": 286,
      "y": 179,
      "size": 1,
      "price": "1011000000000000000000",
      "reserved": "",
      "salt": "0x452c2c61f293d15c823963f7bb9c657bb18c31f0626578e43fbdefa9e6c874fb",
      "assetIds": []
    },
    {
      "x": 286,
      "y": 180,
      "size": 1,
      "price": "1011000000000000000000",
      "reserved": "",
      "salt": "0x6fc5d9a3be8150c2885d30c73362d8c0eb65722d499dac07052a255fb5663d04",
      "assetIds": []
    },
    {
      "x": 286,
      "y": 181,
      "size": 1,
      "price": "1011000000000000000000",
      "reserved": "",
      "salt": "0xd1e8772c276ab3d0315ce8e31dcef25d6403efe22fbdd28ec4f7597f07bf4b7e",
      "assetIds": []
    },
    {
      "x": 286,
      "y": 182,
      "size": 1,
      "price": "1011000000000000000000",
      "reserved": "",
      "salt": "0x97febaadd2976170c38b9efeecf99ac4a0da45cd64bac8d65b30b01ebff3f79f",
      "assetIds": []
    },
    {
      "x": 287,
      "y": 168,
      "size": 1,
      "price": "1011000000000000000000",
      "reserved": "",
      "salt": "0xa93d6d948588450e44e4fd7b81cdded95b581c508e5cf5dc037a4961733036c5",
      "assetIds": []
    },
    {
      "x": 287,
      "y": 169,
      "size": 1,
      "price": "1011000000000000000000",
      "reserved": "",
      "salt": "0x9e4ad9c5d17aad0e0946dca7654674261dc873716f6f60aadfd9068a9358575a",
      "assetIds": []
    },
    {
      "x": 287,
      "y": 170,
      "size": 1,
      "price": "1011000000000000000000",
      "reserved": "",
      "salt": "0xee0e98c3f3975aaa3067bd48a945ee62af70c3ddc3f3cfb4e9c645239435aa7b",
      "assetIds": []
    },
    {
      "x": 287,
      "y": 171,
      "size": 1,
      "price": "1011000000000000000000",
      "reserved": "",
      "salt": "0x528b6d416e25b0141f3c8a8173a1da61c790261a41d5b75a816213bbe78fb380",
      "assetIds": []
    },
    {
      "x": 287,
      "y": 172,
      "size": 1,
      "price": "1011000000000000000000",
      "reserved": "",
      "salt": "0x49dd9329887c9df655de29e5c32c70db778f84ec19ac47f7b02961df8d893c03",
      "assetIds": []
    },
    {
      "x": 287,
      "y": 173,
      "size": 1,
      "price": "1011000000000000000000",
      "reserved": "",
      "salt": "0x03c4c755fd57c99e266a25b4ec9e39fd63796c9bfc3e0fbbe320cb67bf85f5ff",
      "assetIds": []
    },
    {
      "x": 287,
      "y": 174,
      "size": 1,
      "price": "1011000000000000000000",
      "reserved": "",
      "salt": "0x861c8e250369cde79b3f738bd8bad88994ffbc20f7cc21207808da86c4bdb877",
      "assetIds": []
    },
    {
      "x": 287,
      "y": 175,
      "size": 1,
      "price": "1011000000000000000000",
      "reserved": "",
      "salt": "0xda49bc6512ee5a6d2acd9079d7fba03cd93a55b06b8434c8bc5aacefd3516798",
      "assetIds": []
    },
    {
      "x": 287,
      "y": 176,
      "size": 1,
      "price": "1011000000000000000000",
      "reserved": "",
      "salt": "0x350caf56a5e8afab288b788614040f4d847922f6bf0f617c8fa11221fd31c3ff",
      "assetIds": []
    },
    {
      "x": 287,
      "y": 177,
      "size": 1,
      "price": "1011000000000000000000",
      "reserved": "",
      "salt": "0x9b5de3e15d6f45aabbc336425a0732e562460fbb1c885e1c0a6bddfd12600b2c",
      "assetIds": []
    },
    {
      "x": 287,
      "y": 178,
      "size": 1,
      "price": "1011000000000000000000",
      "reserved": "",
      "salt": "0xea1dea06f14760113e0cc2ac75dd2fe1f67f85d6c76745c7ac05e3a7115e0afd",
      "assetIds": []
    },
    {
      "x": 287,
      "y": 179,
      "size": 1,
      "price": "1011000000000000000000",
      "reserved": "",
      "salt": "0x604b2b06085b0183e888c8ff5824dafd4f9c76f143a201ec63500b1feb8f14c3",
      "assetIds": []
    },
    {
      "x": 287,
      "y": 180,
      "size": 1,
      "price": "1011000000000000000000",
      "reserved": "",
      "salt": "0x567a52d13eb89791f4525cb1c2bffc478b2e21ce5ed0cff79bb203d3ea07be8e",
      "assetIds": []
    },
    {
      "x": 287,
      "y": 181,
      "size": 1,
      "price": "1011000000000000000000",
      "reserved": "",
      "salt": "0x8ecc14ae1d2c0d9d81cf5e702b1f64895f4d7f9a2aae975dba8735cb4874d46c",
      "assetIds": []
    },
    {
      "x": 287,
      "y": 182,
      "size": 1,
      "price": "1011000000000000000000",
      "reserved": "",
      "salt": "0xebf5decce034910460b66956861b6aa41dbbc7acac2c47477be0cb8e3ccc379c",
      "assetIds": []
    },
    {
      "x": 287,
      "y": 183,
      "size": 1,
      "price": "1011000000000000000000",
      "reserved": "",
      "salt": "0x39ef12c9e76ed313ac4771b640464cfc18fcf0409d056e7c73535091735a7046",
      "assetIds": []
    },
    {
      "x": 287,
      "y": 184,
      "size": 1,
      "price": "1011000000000000000000",
      "reserved": "",
      "salt": "0xc9ab54c48a365a35e2a445461a13299c2ee7e5249db2d9b8b837112b0c1278fb",
      "assetIds": []
    },
    {
      "x": 287,
      "y": 185,
      "size": 1,
      "price": "1011000000000000000000",
      "reserved": "",
      "salt": "0xf227a13f3abd325d34a3dc830cf6d13ce28e6ca84115a20816d2705467a85a8d",
      "assetIds": []
    },
    {
      "x": 287,
      "y": 186,
      "size": 1,
      "price": "1011000000000000000000",
      "reserved": "",
      "salt": "0x6d87fa3971a56ed1ea8f8965e493e2f88e93dd9439c99792a93d826714be2b4e",
      "assetIds": []
    },
    {
      "x": 288,
      "y": 168,
      "size": 1,
      "price": "1011000000000000000000",
      "reserved": "",
      "salt": "0x3c774f236af93163de965263a69962dab16f901658031c71fbadca1fe3a75cd8",
      "assetIds": []
    },
    {
      "x": 288,
      "y": 169,
      "size": 1,
      "price": "1011000000000000000000",
      "reserved": "",
      "salt": "0x111ba33d017f5c82c5adb61d02a0b355d3d1e11b99eace33c59428c77695aa19",
      "assetIds": []
    },
    {
      "x": 288,
      "y": 170,
      "size": 1,
      "price": "1011000000000000000000",
      "reserved": "",
      "salt": "0xb67454bc4b1e5b55784223fdb4db315fcce04413afcd6996f160763b3efb0f10",
      "assetIds": []
    },
    {
      "x": 288,
      "y": 171,
      "size": 1,
      "price": "1011000000000000000000",
      "reserved": "",
      "salt": "0x5e8ff8d7d0e94a3ac945cd129f4ddf7907574eb9fc747f2cc4318a20147c7a4b",
      "assetIds": []
    },
    {
      "x": 288,
      "y": 172,
      "size": 1,
      "price": "1011000000000000000000",
      "reserved": "",
      "salt": "0xceaac55b1e61d9be35cafa270e727e3eb72eb96105ebcb9fc04a2f054556eced",
      "assetIds": []
    },
    {
      "x": 288,
      "y": 173,
      "size": 1,
      "price": "1011000000000000000000",
      "reserved": "",
      "salt": "0x5f2abf3f140626ba59263be07b678450d8dd78eabe636397f5aa20815f5d6175",
      "assetIds": []
    },
    {
      "x": 288,
      "y": 174,
      "size": 1,
      "price": "1011000000000000000000",
      "reserved": "",
      "salt": "0xc996f12c2126b57fa655d535a9d0f937833b7eff1cc6fb7aa19524a89ab7252e",
      "assetIds": []
    },
    {
      "x": 288,
      "y": 175,
      "size": 1,
      "price": "1011000000000000000000",
      "reserved": "",
      "salt": "0x15b27985415c3c19035169db696a81b83b2683fa624b4177479fed7685e007b1",
      "assetIds": []
    },
    {
      "x": 288,
      "y": 176,
      "size": 1,
      "price": "1011000000000000000000",
      "reserved": "",
      "salt": "0x0b953b0dc90b24e4379b59445a8b298bbafec86763e178cdd3d635eadf85e87e",
      "assetIds": []
    },
    {
      "x": 288,
      "y": 177,
      "size": 1,
      "price": "1011000000000000000000",
      "reserved": "",
      "salt": "0x9276e6daf3ccbf5d7c720c1883cd42c74ea79045ea21408d913e53de7a2b5d04",
      "assetIds": []
    },
    {
      "x": 288,
      "y": 178,
      "size": 1,
      "price": "1011000000000000000000",
      "reserved": "",
      "salt": "0x0d2cbb1c857009f154ec0e8b17c78e35b0566f8c87ce4d33a34a30d71365efd9",
      "assetIds": []
    },
    {
      "x": 288,
      "y": 179,
      "size": 1,
      "price": "1011000000000000000000",
      "reserved": "",
      "salt": "0x9065e10cc99b1e60a8ec8b982e53368ed5699973d68ab3fc62df6ed60db8178e",
      "assetIds": []
    },
    {
      "x": 288,
      "y": 180,
      "size": 1,
      "price": "1011000000000000000000",
      "reserved": "",
      "salt": "0x545cc8d1cbb611389e01d6013ca656d01d2142ea585560bd0fe403bd4d03e44d",
      "assetIds": []
    },
    {
      "x": 288,
      "y": 181,
      "size": 1,
      "price": "1011000000000000000000",
      "reserved": "",
      "salt": "0xfeafdbf266c9462598a9f433c04c64a3fd0f6ff838c78bff3b50c2c40c387689",
      "assetIds": []
    },
    {
      "x": 288,
      "y": 182,
      "size": 1,
      "price": "1011000000000000000000",
      "reserved": "",
      "salt": "0x6a9425cd6e384293a1c67b68dc98654f292d6b61d26257b4b345d09d267dd487",
      "assetIds": []
    },
    {
      "x": 288,
      "y": 183,
      "size": 1,
      "price": "1011000000000000000000",
      "reserved": "",
      "salt": "0x378c5f8f9ef4dca34bbc5eae0a29eb60958bc405a37e45257315cbda10ba01a0",
      "assetIds": []
    },
    {
      "x": 288,
      "y": 184,
      "size": 1,
      "price": "1011000000000000000000",
      "reserved": "",
      "salt": "0x51fb96c580a49d8be29c43bd0aeaff753e812284c8b04e49b7e55bdd75e4d772",
      "assetIds": []
    },
    {
      "x": 288,
      "y": 185,
      "size": 1,
      "price": "1011000000000000000000",
      "reserved": "",
      "salt": "0x3836e3121b1e2f3c51556facabc8cccd42c7743e84a7e182e21cf40e01ad3242",
      "assetIds": []
    },
    {
      "x": 288,
      "y": 186,
      "size": 1,
      "price": "1011000000000000000000",
      "reserved": "",
      "salt": "0xb5051b66fc9fe987dd6978ab2ef053571f8d9e3876474fcaaae9d9ec63df2656",
      "assetIds": []
    },
    {
      "x": 289,
      "y": 168,
      "size": 1,
      "price": "1011000000000000000000",
      "reserved": "",
      "salt": "0x52f853008596743a97a7b8c28a29cdcae0377564b701b4da9ae967b31d6fa5b8",
      "assetIds": []
    },
    {
      "x": 289,
      "y": 169,
      "size": 1,
      "price": "1011000000000000000000",
      "reserved": "",
      "salt": "0x2f1ef90a57c3b70dc6831e630ed4e12335f6ae3f49f1a20e81ae29d4862fef29",
      "assetIds": []
    },
    {
      "x": 289,
      "y": 170,
      "size": 1,
      "price": "1011000000000000000000",
      "reserved": "",
      "salt": "0xb3d7f24316ec5ca88ae42864a647746d1d10bbace600b85dedb537a384e92047",
      "assetIds": []
    },
    {
      "x": 289,
      "y": 171,
      "size": 1,
      "price": "1011000000000000000000",
      "reserved": "",
      "salt": "0x9d1a98cf2f22f4410605fc274c119b375a51e64f0bcab1c98f6876b7665c2979",
      "assetIds": []
    },
    {
      "x": 289,
      "y": 172,
      "size": 1,
      "price": "1011000000000000000000",
      "reserved": "",
      "salt": "0xaa81c20047a9600e922f269037e194c0bed6285b88a57b42b4a8c9072ab6c1b1",
      "assetIds": []
    },
    {
      "x": 289,
      "y": 173,
      "size": 1,
      "price": "1011000000000000000000",
      "reserved": "",
      "salt": "0x9e1e13d09d7a2b8330105a07925d44533fa1bcfa2b2da246219aa8854c6c672b",
      "assetIds": []
    },
    {
      "x": 289,
      "y": 174,
      "size": 1,
      "price": "1011000000000000000000",
      "reserved": "",
      "salt": "0x29cb4c61f11595517449bdcac29ecfe68a7c99272ea873ff6192a375bb5afaab",
      "assetIds": []
    },
    {
      "x": 289,
      "y": 175,
      "size": 1,
      "price": "1011000000000000000000",
      "reserved": "",
      "salt": "0x7fe6b2047c35195eaf965aa5306d958969f4ea2fbe2c8bc55526bc814c12c652",
      "assetIds": []
    },
    {
      "x": 289,
      "y": 176,
      "size": 1,
      "price": "1011000000000000000000",
      "reserved": "",
      "salt": "0x9bc600e6d14fd5e796be4ad57f196e2b1dc63d882f5611cd54042a0cd20380ed",
      "assetIds": []
    },
    {
      "x": 289,
      "y": 177,
      "size": 1,
      "price": "1011000000000000000000",
      "reserved": "",
      "salt": "0x24ed364a6a681a1b7a7bd24b0bf226c9fcf42574308ffab6388c39e89054fb43",
      "assetIds": []
    },
    {
      "x": 289,
      "y": 178,
      "size": 1,
      "price": "1011000000000000000000",
      "reserved": "",
      "salt": "0x0dbf2b39fb02a76af48f9eb3817d43dd4b5334c3328c2735f44d23f05a6f7a7e",
      "assetIds": []
    },
    {
      "x": 289,
      "y": 179,
      "size": 1,
      "price": "1011000000000000000000",
      "reserved": "",
      "salt": "0x6f938ed9bac005ff86411a12062b567074d3af03d76e8bf68585a87b61a21841",
      "assetIds": []
    },
    {
      "x": 289,
      "y": 180,
      "size": 1,
      "price": "1011000000000000000000",
      "reserved": "",
      "salt": "0xb22e284e89648112cf19b17f343c87a63a549fde86b3cd5636959cddb70e4405",
      "assetIds": []
    },
    {
      "x": 289,
      "y": 181,
      "size": 1,
      "price": "1011000000000000000000",
      "reserved": "",
      "salt": "0x878b89a18aa8a22f58347636ef720281dafaeb4565d47cd3251e16dcb6b3574b",
      "assetIds": []
    },
    {
      "x": 289,
      "y": 182,
      "size": 1,
      "price": "1011000000000000000000",
      "reserved": "",
      "salt": "0x53f2cc7ac7db6666acaa80a7a9b08859a0305dcc0e0d2fabc0af592fcc95c344",
      "assetIds": []
    },
    {
      "x": 289,
      "y": 183,
      "size": 1,
      "price": "1011000000000000000000",
      "reserved": "",
      "salt": "0x26509d0f89b1e874fafc29ee050643d81011fb165b66711568f2c30cfbc29bb8",
      "assetIds": []
    },
    {
      "x": 289,
      "y": 184,
      "size": 1,
      "price": "1011000000000000000000",
      "reserved": "",
      "salt": "0xa2242d44e75c748867713709c0cb5322b2c57396c088c2f4928f2fd87eb93f81",
      "assetIds": []
    },
    {
      "x": 289,
      "y": 185,
      "size": 1,
      "price": "1011000000000000000000",
      "reserved": "",
      "salt": "0x84ef01672f1c8302109b1060be63588958225f35bcc36b33c0e26bd805988194",
      "assetIds": []
    },
    {
      "x": 289,
      "y": 186,
      "size": 1,
      "price": "1011000000000000000000",
      "reserved": "",
      "salt": "0x65b0d05a33bfe377dc0a1e01a6d49c0d574202d0d3dbc2920af3cf3193182066",
      "assetIds": []
    },
    {
      "x": 290,
      "y": 168,
      "size": 1,
      "price": "1011000000000000000000",
      "reserved": "",
      "salt": "0x8c9c6895b9f9fed2addaa65278aef61b29fe0c1f05075ae1cd0ffbaf2b77a8dc",
      "assetIds": []
    },
    {
      "x": 290,
      "y": 169,
      "size": 1,
      "price": "1011000000000000000000",
      "reserved": "",
      "salt": "0x0620025f9c9cc24e806cf747a8645528258863e40f86246d0f5838d49c1a4073",
      "assetIds": []
    },
    {
      "x": 290,
      "y": 170,
      "size": 1,
      "price": "1011000000000000000000",
      "reserved": "",
      "salt": "0x4e07668631bf409a10b45b89a0bd684b2cadb4b66d64fe093e7ac58305e3cd48",
      "assetIds": []
    },
    {
      "x": 290,
      "y": 171,
      "size": 1,
      "price": "1011000000000000000000",
      "reserved": "",
      "salt": "0xa5f08088f52944d6d738a7c52ea5b508b7080f77fcb35d62d80403e6a5863929",
      "assetIds": []
    },
    {
      "x": 290,
      "y": 172,
      "size": 1,
      "price": "1011000000000000000000",
      "reserved": "",
      "salt": "0x30c9ac18f53d3cbd5ed7462947ad1369aea1eb30bbd9c203919d02a83bff1ab1",
      "assetIds": []
    },
    {
      "x": 290,
      "y": 173,
      "size": 1,
      "price": "1011000000000000000000",
      "reserved": "",
      "salt": "0xed3cff4bfa1c46681e945d8a5a6cfe3907bd4a76c3a6cd8818bf4d04bc78ffe3",
      "assetIds": []
    },
    {
      "x": 290,
      "y": 174,
      "size": 1,
      "price": "1011000000000000000000",
      "reserved": "",
      "salt": "0x3e6cebbb34241124cc52409b9b4d601e7646a8356d29b9bdbfcd10078f7f849d",
      "assetIds": []
    },
    {
      "x": 290,
      "y": 175,
      "size": 1,
      "price": "1011000000000000000000",
      "reserved": "",
      "salt": "0x12d0ea166bcf14b8b3f22c4e6822ffd8ce2749c99472022e7b52777edbb2503c",
      "assetIds": []
    },
    {
      "x": 290,
      "y": 176,
      "size": 1,
      "price": "1011000000000000000000",
      "reserved": "",
      "salt": "0x8a7e4925b92bc8fed2ffbad2ea2b3eadb87fc32c25bef53aa87a2448c8c55e46",
      "assetIds": []
    },
    {
      "x": 290,
      "y": 177,
      "size": 1,
      "price": "1011000000000000000000",
      "reserved": "",
      "salt": "0xe1c3ddd95acbeffa4e4d1da85caa465efd3b9d9ebc67ee8a801831b608fb0456",
      "assetIds": []
    },
    {
      "x": 290,
      "y": 178,
      "size": 1,
      "price": "1011000000000000000000",
      "reserved": "",
      "salt": "0xe9f09d45a174e1c5295c5a177032332b9c3e40310dffb9d44c237039fb4e94b6",
      "assetIds": []
    },
    {
      "x": 290,
      "y": 179,
      "size": 1,
      "price": "1011000000000000000000",
      "reserved": "",
      "salt": "0x450a7630c9a93d4a4662496338f956eea4dcea4a173aea314eb7649eabb513bb",
      "assetIds": []
    },
    {
      "x": 290,
      "y": 180,
      "size": 1,
      "price": "1011000000000000000000",
      "reserved": "",
      "salt": "0x2ddc655d36c0879129c3938a47b60e4dad274694b1c6c31bebf70618f81053ff",
      "assetIds": []
    },
    {
      "x": 290,
      "y": 181,
      "size": 1,
      "price": "1011000000000000000000",
      "reserved": "",
      "salt": "0xe9efef6336b406c45d804483075c52f0fb219620982dde47d5954f60a6f461ac",
      "assetIds": []
    },
    {
      "x": 290,
      "y": 182,
      "size": 1,
      "price": "1011000000000000000000",
      "reserved": "",
      "salt": "0xeb838cd0ac1534ce2cccb91c606ade46d4f2943ad5ab8f7758e06ec2e43edf08",
      "assetIds": []
    },
    {
      "x": 290,
      "y": 183,
      "size": 1,
      "price": "1011000000000000000000",
      "reserved": "",
      "salt": "0xa0c63b0a3bfa01d8dec93ae7e358e01d03493d67ca7c7a622c7db8e811268755",
      "assetIds": []
    },
    {
      "x": 290,
      "y": 184,
      "size": 1,
      "price": "1011000000000000000000",
      "reserved": "",
      "salt": "0x60e20072ec94fd1768fb4434f4805114ee7fe8fe6def5cdf48edfb0cf4e776da",
      "assetIds": []
    },
    {
      "x": 290,
      "y": 185,
      "size": 1,
      "price": "1011000000000000000000",
      "reserved": "",
      "salt": "0x4a94feef2a63d1e35ba7c0e7ed8471c5eb485d826dc715aacc0203f82bbc015c",
      "assetIds": []
    },
    {
      "x": 290,
      "y": 186,
      "size": 1,
      "price": "1011000000000000000000",
      "reserved": "",
      "salt": "0x21339e300f1c4015f5f0766d0573f354c7af00519dbd9a2ad5539d009ee2b7a6",
      "assetIds": []
    },
    {
      "x": 291,
      "y": 168,
      "size": 1,
      "price": "1011000000000000000000",
      "reserved": "",
      "salt": "0x380861968446545cb3cdbe7c3a4571aabf812b29b77c22559096b64f65d80ce2",
      "assetIds": []
    },
    {
      "x": 291,
      "y": 169,
      "size": 1,
      "price": "1011000000000000000000",
      "reserved": "",
      "salt": "0x2e5f2ded908ee82100932814e4b516e8ec949baaf6ebc50d079eeb2403d1a086",
      "assetIds": []
    },
    {
      "x": 291,
      "y": 170,
      "size": 1,
      "price": "1011000000000000000000",
      "reserved": "",
      "salt": "0x591fa42669ff83e04bef2ef0bab74ed5c878518f79e40f15ba3ed885c0c482ec",
      "assetIds": []
    },
    {
      "x": 291,
      "y": 171,
      "size": 1,
      "price": "1011000000000000000000",
      "reserved": "",
      "salt": "0x89156b300ed312483bc95c3e27c02fff00bccf6f4d44125ff99a5f8e7efb5007",
      "assetIds": []
    },
    {
      "x": 291,
      "y": 172,
      "size": 1,
      "price": "1011000000000000000000",
      "reserved": "",
      "salt": "0x0aac2d10c6b2a0b93b562bd3a6d5ac5bbb40550e759c7191fd2d5f4c65139747",
      "assetIds": []
    },
    {
      "x": 291,
      "y": 173,
      "size": 1,
      "price": "1011000000000000000000",
      "reserved": "",
      "salt": "0xcf91ec85039218652e87a8841952f17137c5b58cc56912568493189b24169315",
      "assetIds": []
    },
    {
      "x": 291,
      "y": 174,
      "size": 1,
      "price": "1011000000000000000000",
      "reserved": "",
      "salt": "0xc776ace6c7d44d051fd7d8030320700b31ff57b867b336f251239196abfe54dc",
      "assetIds": []
    },
    {
      "x": 291,
      "y": 175,
      "size": 1,
      "price": "1011000000000000000000",
      "reserved": "",
      "salt": "0x1a011233356e2a291fc67173fa94c8c7c2e7f356a3698ce0b37190187052cf87",
      "assetIds": []
    },
    {
      "x": 291,
      "y": 176,
      "size": 1,
      "price": "1011000000000000000000",
      "reserved": "",
      "salt": "0xf4e8a880c91ea4a30740c0bb1d34602fdf33c3c1cee17df9b080e9e4c0ffb383",
      "assetIds": []
    },
    {
      "x": 291,
      "y": 177,
      "size": 1,
      "price": "1011000000000000000000",
      "reserved": "",
      "salt": "0x0bb5ad8c76280958c3156c99d71d9dc908fd70ec75bebeb9196ac23cd4d5b2db",
      "assetIds": []
    },
    {
      "x": 291,
      "y": 178,
      "size": 1,
      "price": "1011000000000000000000",
      "reserved": "",
      "salt": "0x0b1ea1b19773ba58a858d5853a2bb960efc84e2543fee0cc727dbdfc604e2c2f",
      "assetIds": []
    },
    {
      "x": 291,
      "y": 179,
      "size": 1,
      "price": "1011000000000000000000",
      "reserved": "",
      "salt": "0x38ed254ec0bf1e396ef272cf76c36ebca14efc5746467b01683bba264220f871",
      "assetIds": []
    },
    {
      "x": 291,
      "y": 183,
      "size": 1,
      "price": "1011000000000000000000",
      "reserved": "",
      "salt": "0xe7642a97b7c2b62d403a099a070327c407613b3adb4c22da8099b9345fa5bcf7",
      "assetIds": []
    },
    {
      "x": 291,
      "y": 184,
      "size": 1,
      "price": "1011000000000000000000",
      "reserved": "",
      "salt": "0xa0e73f8915bc585ad071bca921a57ae0f6a54f1317593dd71da409061c7c213d",
      "assetIds": []
    },
    {
      "x": 291,
      "y": 185,
      "size": 1,
      "price": "1011000000000000000000",
      "reserved": "",
      "salt": "0x66ef63b7b55d4c32fb56c404de27b4c113ec3f464f39616f5d7b183355e20cb2",
      "assetIds": []
    },
    {
      "x": 291,
      "y": 186,
      "size": 1,
      "price": "1011000000000000000000",
      "reserved": "",
      "salt": "0x9087a75163eeee818d5423f3217a3b748ccdc265c70b0e1d31bc4e715925ef7b",
      "assetIds": []
    },
    {
      "x": 292,
      "y": 168,
      "size": 1,
      "price": "1011000000000000000000",
      "reserved": "",
      "salt": "0x72b6bd531e879f30cf025c533e6e03d0bb14d273af87771cb5036cad85082bd5",
      "assetIds": []
    },
    {
      "x": 292,
      "y": 169,
      "size": 1,
      "price": "1011000000000000000000",
      "reserved": "",
      "salt": "0xf4a70de9631832bbd2983219f1b08f41b8a45f4c26294c2960051da394c267cf",
      "assetIds": []
    },
    {
      "x": 292,
      "y": 170,
      "size": 1,
      "price": "1011000000000000000000",
      "reserved": "",
      "salt": "0x83a470172199be19887ae2fac1616b34e400097f8b525afe1ea1bb7f54ca128b",
      "assetIds": []
    },
    {
      "x": 292,
      "y": 171,
      "size": 1,
      "price": "1011000000000000000000",
      "reserved": "",
      "salt": "0x4ee811be6b86f9fbc1bc36a87387d1bab390810f57e14d7bb11de7bc0cc847ff",
      "assetIds": []
    },
    {
      "x": 292,
      "y": 172,
      "size": 1,
      "price": "1011000000000000000000",
      "reserved": "",
      "salt": "0xbbcf909399cd28f29c7e87a430d7500f49e49c6e417ec5d268766ed61d903f3b",
      "assetIds": []
    },
    {
      "x": 292,
      "y": 173,
      "size": 1,
      "price": "1011000000000000000000",
      "reserved": "",
      "salt": "0x5853a5fa8868874837f3af4ffa988ab3107bb25a2e582e5fa09b84a8379634a9",
      "assetIds": []
    },
    {
      "x": 292,
      "y": 174,
      "size": 1,
      "price": "1011000000000000000000",
      "reserved": "",
      "salt": "0x6b36e09c7c1e21b285c4f48a9f61793ecbdefdc23fe1fba218322fef0d0c66c3",
      "assetIds": []
    },
    {
      "x": 292,
      "y": 175,
      "size": 1,
      "price": "1011000000000000000000",
      "reserved": "",
      "salt": "0xdfedda81b91669e6f3f0dcd21161896396399a70f6a7d600e14c975cde56eb46",
      "assetIds": []
    },
    {
      "x": 292,
      "y": 176,
      "size": 1,
      "price": "1011000000000000000000",
      "reserved": "",
      "salt": "0x126a5de1034b82027fe21ba365c331abe32c876f00db7ed5fad8a9e70009776e",
      "assetIds": []
    },
    {
      "x": 292,
      "y": 177,
      "size": 1,
      "price": "1011000000000000000000",
      "reserved": "",
      "salt": "0x881b0185fe2662b948ae47b903a8ef61ee044819a395822cc6627816259b7a3c",
      "assetIds": []
    },
    {
      "x": 292,
      "y": 178,
      "size": 1,
      "price": "1011000000000000000000",
      "reserved": "",
      "salt": "0x25aff5a609fe25a901a0fcbc2925417f22544340aa674034aa876751ef5dc6b8",
      "assetIds": []
    },
    {
      "x": 292,
      "y": 179,
      "size": 1,
      "price": "1011000000000000000000",
      "reserved": "",
      "salt": "0x83bd03f7382f43048ad079d40e63edb76e8636ae3c1fee6323f802a69e7c4c94",
      "assetIds": []
    },
    {
      "x": 292,
      "y": 183,
      "size": 1,
      "price": "1011000000000000000000",
      "reserved": "",
      "salt": "0x249268d58d437ca86ee6a3eda68455c5305804ee413d4d1c20611dae126d9202",
      "assetIds": []
    },
    {
      "x": 292,
      "y": 184,
      "size": 1,
      "price": "1011000000000000000000",
      "reserved": "",
      "salt": "0xebc21d5c21590080cf7fe06debc6b17bbbef9788c5c28d9516f3c9bb3b6fdda5",
      "assetIds": []
    },
    {
      "x": 292,
      "y": 185,
      "size": 1,
      "price": "1011000000000000000000",
      "reserved": "",
      "salt": "0x022c27a2a4ccb4241e4ece97c79d13986667ebf4932276a16be5ab07c9928118",
      "assetIds": []
    },
    {
      "x": 292,
      "y": 186,
      "size": 1,
      "price": "1011000000000000000000",
      "reserved": "",
      "salt": "0x71e6cb8f7d43990406cdb169a0f0cba9a4351eac4dc7337c7a8bc788c00be9ac",
      "assetIds": []
    },
    {
      "x": 292,
      "y": 187,
      "size": 1,
      "price": "1011000000000000000000",
      "reserved": "",
      "salt": "0x1d4dbea2d877d8f26e952c025251a6683b09af9a56394d5dcf39ae16c23b06a5",
      "assetIds": []
    },
    {
      "x": 293,
      "y": 168,
      "size": 1,
      "price": "1011000000000000000000",
      "reserved": "",
      "salt": "0x248889aba8a7fa74975976019377ed5a91b119089ba2ab12c95365d20c399b7a",
      "assetIds": []
    },
    {
      "x": 293,
      "y": 169,
      "size": 1,
      "price": "1011000000000000000000",
      "reserved": "",
      "salt": "0x42744287954cacd357ec72978cd150affc49d7a857f201f092fd470e4ccc363e",
      "assetIds": []
    },
    {
      "x": 293,
      "y": 170,
      "size": 1,
      "price": "1011000000000000000000",
      "reserved": "",
      "salt": "0xab47f7dd9f61ed6b6dfdd1e2bff12805e295d6067cb577ab00f136f6d3edf084",
      "assetIds": []
    },
    {
      "x": 293,
      "y": 171,
      "size": 1,
      "price": "1011000000000000000000",
      "reserved": "",
      "salt": "0xe62517e12c909fb6e03a8602eeaf8b2537b9950b9dad71eda328caf092691fb4",
      "assetIds": []
    },
    {
      "x": 293,
      "y": 172,
      "size": 1,
      "price": "1011000000000000000000",
      "reserved": "",
      "salt": "0x200323441f5d0e39fdd2f56dfa0afebe22eb8d01a1f7fd560d8eb63b3c8133a4",
      "assetIds": []
    },
    {
      "x": 293,
      "y": 173,
      "size": 1,
      "price": "1011000000000000000000",
      "reserved": "",
      "salt": "0xff3092813cf041a356a8b98383758961e4ab846e184eff6455ca02f0d5fdc12c",
      "assetIds": []
    },
    {
      "x": 293,
      "y": 174,
      "size": 1,
      "price": "1011000000000000000000",
      "reserved": "",
      "salt": "0x484f681d6b6409c371f51d211cf3e094ecdba48bfb9eab12320b602ec0530c44",
      "assetIds": []
    },
    {
      "x": 293,
      "y": 175,
      "size": 1,
      "price": "1011000000000000000000",
      "reserved": "",
      "salt": "0xe7bd7d5746208b85d4ffd3bf79cb67efde39471c3e59a9845f90bb1a448b010c",
      "assetIds": []
    },
    {
      "x": 293,
      "y": 176,
      "size": 1,
      "price": "1011000000000000000000",
      "reserved": "",
      "salt": "0xe44eaba547c8118fa67a69e65717f95c7dcb203f82204b3f9ca2e318d98e4b24",
      "assetIds": []
    },
    {
      "x": 293,
      "y": 177,
      "size": 1,
      "price": "1011000000000000000000",
      "reserved": "",
      "salt": "0x6eabba93f5f82c883b2974f6cd8e09bc587b8ed9d8ba1e673fc3533ea2bc9468",
      "assetIds": []
    },
    {
      "x": 293,
      "y": 178,
      "size": 1,
      "price": "1011000000000000000000",
      "reserved": "",
      "salt": "0x34318fe2d1ebb3ba8a672d97998f4f7e2502fcd4e1d5040b758841f561b0d232",
      "assetIds": []
    },
    {
      "x": 293,
      "y": 179,
      "size": 1,
      "price": "1011000000000000000000",
      "reserved": "",
      "salt": "0x8f0a1d7d61b080c9b9ac1ff728dd963ad2674af21fd3a644179afe37527eac13",
      "assetIds": []
    },
    {
      "x": 293,
      "y": 183,
      "size": 1,
      "price": "1011000000000000000000",
      "reserved": "",
      "salt": "0x8df5e1111ff8e1646dba23588c89fbbcb0190901b157cc4bb8ec8ce927d34939",
      "assetIds": []
    },
    {
      "x": 293,
      "y": 184,
      "size": 1,
      "price": "1011000000000000000000",
      "reserved": "",
      "salt": "0x37189d8a05fa9f398619565a5eb986e7c7abd722d879b1c78dd3882079dafd1f",
      "assetIds": []
    },
    {
      "x": 293,
      "y": 185,
      "size": 1,
      "price": "1011000000000000000000",
      "reserved": "",
      "salt": "0x8717c4e18c1a977a98bea1f4e7237e50244fb4d1fd6f7a470b872afcbb18041d",
      "assetIds": []
    },
    {
      "x": 293,
      "y": 186,
      "size": 1,
      "price": "1011000000000000000000",
      "reserved": "",
      "salt": "0x26154b43b0fca55eb6c7aa2c1193f605554fe60e101c41fda7658b3eb1bc6285",
      "assetIds": []
    },
    {
      "x": 293,
      "y": 187,
      "size": 1,
      "price": "1011000000000000000000",
      "reserved": "",
      "salt": "0xc5d81b06dc67db6cebd8c1908891a9d8e8b3c7710dcbc41ee1bf1a764b37799a",
      "assetIds": []
    },
    {
      "x": 294,
      "y": 165,
      "size": 1,
      "price": "1011000000000000000000",
      "reserved": "",
      "salt": "0x8f48fac6113c7611d49508c6b8958a1d1be6d7c05b85769d215b17ba458aee05",
      "assetIds": []
    },
    {
      "x": 294,
      "y": 166,
      "size": 1,
      "price": "1011000000000000000000",
      "reserved": "",
      "salt": "0x18cca1614e7589a5a52b0121999b68a9b732535db4072df491b0113eb45cc79f",
      "assetIds": []
    },
    {
      "x": 294,
      "y": 167,
      "size": 1,
      "price": "1011000000000000000000",
      "reserved": "",
      "salt": "0x08c2702dc73f058e296e71858a95b025c4c567d31032bf1789174d2d75e20280",
      "assetIds": []
    },
    {
      "x": 294,
      "y": 174,
      "size": 1,
      "price": "1011000000000000000000",
      "reserved": "",
      "salt": "0xd26e6d54027f5d9e4c237499f762c1654f89b594a99ca9bb7ceedec964ec2ba8",
      "assetIds": []
    },
    {
      "x": 294,
      "y": 175,
      "size": 1,
      "price": "1011000000000000000000",
      "reserved": "",
      "salt": "0xc2e0bd2e19727f1b029f7b7108f1381c3a231d342a95d7160b39bf49dd36eb7d",
      "assetIds": []
    },
    {
      "x": 294,
      "y": 176,
      "size": 1,
      "price": "1011000000000000000000",
      "reserved": "",
      "salt": "0xa71c02658f48d2b37bcd03717dbe94f18de788c603c236a6eb0b89364126cc10",
      "assetIds": []
    },
    {
      "x": 294,
      "y": 177,
      "size": 1,
      "price": "1011000000000000000000",
      "reserved": "",
      "salt": "0xb654044630a1891dca402ecf3aeff01d0b5895d433be0d26073062e1ff6fb94c",
      "assetIds": []
    },
    {
      "x": 294,
      "y": 178,
      "size": 1,
      "price": "1011000000000000000000",
      "reserved": "",
      "salt": "0x8db50007a87c742e04b8a1b50bb53854e945ae679935701bac7dfe3ad16b0ac0",
      "assetIds": []
    },
    {
      "x": 294,
      "y": 179,
      "size": 1,
      "price": "1011000000000000000000",
      "reserved": "",
      "salt": "0xc9fd1bf6b364d922717bc99da2a6cfeac7dd1082d2f53e77d487ac3f103e6954",
      "assetIds": []
    },
    {
      "x": 294,
      "y": 180,
      "size": 1,
      "price": "1011000000000000000000",
      "reserved": "",
      "salt": "0x40a7b63dcf02376e975e56b8897811910003462d746d9595afcbc15db36f5c7c",
      "assetIds": []
    },
    {
      "x": 294,
      "y": 181,
      "size": 1,
      "price": "1011000000000000000000",
      "reserved": "",
      "salt": "0x817fbb385d8ecb74361fb3653560a8a7d5c9f4ce13769073e9c69dfb6aaaeac6",
      "assetIds": []
    },
    {
      "x": 294,
      "y": 182,
      "size": 1,
      "price": "1011000000000000000000",
      "reserved": "",
      "salt": "0xb28a5f6b83b7ee072a70d6577b2cc45545e45261f24e8a28ab5709fdd772b709",
      "assetIds": []
    },
    {
      "x": 294,
      "y": 183,
      "size": 1,
      "price": "1011000000000000000000",
      "reserved": "",
      "salt": "0x840db5cdb1cb5b1f3ef3366718c11103ca7f57bbebd446147fd3bd07258245b9",
      "assetIds": []
    },
    {
      "x": 294,
      "y": 184,
      "size": 1,
      "price": "1011000000000000000000",
      "reserved": "",
      "salt": "0x69a918a1a299b7ef1896e7b1cc210549887b96ee39d449af4773a53024733949",
      "assetIds": []
    },
    {
      "x": 294,
      "y": 185,
      "size": 1,
      "price": "1011000000000000000000",
      "reserved": "",
      "salt": "0xb665e7691f8ce69d4e2266630682c411c4f747ce5ffdffb5d1c1be6bf0cb6ee1",
      "assetIds": []
    },
    {
      "x": 294,
      "y": 186,
      "size": 1,
      "price": "1011000000000000000000",
      "reserved": "",
      "salt": "0x1070a457a95e84922c37b4bc195b5b331bd17b4bae1232247a332d2cdd370d84",
      "assetIds": []
    },
    {
      "x": 294,
      "y": 187,
      "size": 1,
      "price": "1011000000000000000000",
      "reserved": "",
      "salt": "0xef9faef5e9372c10ea4ab3c5e94490b2f7f604e56e019a6bb1573850b82e0dd1",
      "assetIds": []
    },
    {
      "x": 295,
      "y": 165,
      "size": 1,
      "price": "1011000000000000000000",
      "reserved": "",
      "salt": "0x2a0cb10a0bd42843eb61c73b303cbfdbdcb05f362a202ac0e5b7d64f0c9386ed",
      "assetIds": []
    },
    {
      "x": 295,
      "y": 166,
      "size": 1,
      "price": "1011000000000000000000",
      "reserved": "",
      "salt": "0x3e43d475633a71204400e133a318341d8a4284b6aa3d98b6e55cfb0da92ac798",
      "assetIds": []
    },
    {
      "x": 295,
      "y": 167,
      "size": 1,
      "price": "1011000000000000000000",
      "reserved": "",
      "salt": "0x08f050866c3e39d3da5170c48f2f688ecb1fe53ec36cbb2af4c5af46bdb2540c",
      "assetIds": []
    },
    {
      "x": 295,
      "y": 174,
      "size": 1,
      "price": "1011000000000000000000",
      "reserved": "",
      "salt": "0xf856066fa44a26283f33f4f4543e9233c1907d66c67c346b5990128d6cad9250",
      "assetIds": []
    },
    {
      "x": 295,
      "y": 175,
      "size": 1,
      "price": "1011000000000000000000",
      "reserved": "",
      "salt": "0x2ecc8d46d568a2bea7f231cba6c2a198a314c03524142aa7827bd7c8daf5e7a8",
      "assetIds": []
    },
    {
      "x": 295,
      "y": 176,
      "size": 1,
      "price": "1011000000000000000000",
      "reserved": "",
      "salt": "0xb4e9c9a91081895af76a64b1f416045c2b60099c6ffeaf8de14b0a6d2eee4e03",
      "assetIds": []
    },
    {
      "x": 295,
      "y": 177,
      "size": 1,
      "price": "1011000000000000000000",
      "reserved": "",
      "salt": "0xac3258d821c7420545464774f7717d20015de36c6465730b75cc5288b023cc28",
      "assetIds": []
    },
    {
      "x": 295,
      "y": 178,
      "size": 1,
      "price": "1011000000000000000000",
      "reserved": "",
      "salt": "0xc485b5c6559ed13a58346168cd98e21110fc85b986e484f31cc17451adfe0269",
      "assetIds": []
    },
    {
      "x": 295,
      "y": 179,
      "size": 1,
      "price": "1011000000000000000000",
      "reserved": "",
      "salt": "0x2eb5154a03db62daee9e5676e1f21cd91f2010d61b627605855363409c7bf4a5",
      "assetIds": []
    },
    {
      "x": 295,
      "y": 180,
      "size": 1,
      "price": "1011000000000000000000",
      "reserved": "",
      "salt": "0x4c5ffcf54f56a4d4faa83c7b3409beb5794a5bece2e366725b203bc723b9dd8c",
      "assetIds": []
    },
    {
      "x": 295,
      "y": 181,
      "size": 1,
      "price": "1011000000000000000000",
      "reserved": "",
      "salt": "0x9a1325b3a9e8d9596e2bf12a9fefb443d5f9858be6762aa77c04bd2422a968bc",
      "assetIds": []
    },
    {
      "x": 295,
      "y": 182,
      "size": 1,
      "price": "1011000000000000000000",
      "reserved": "",
      "salt": "0x08e40a3befe15a88b3a64c37e0900e0560d02b9b0068e93d88b29c4054c7f749",
      "assetIds": []
    },
    {
      "x": 295,
      "y": 183,
      "size": 1,
      "price": "1011000000000000000000",
      "reserved": "",
      "salt": "0x352a24b806006b3a672ca50148b83a2aefac4637f9a6bd4e28d3da67095fc9b7",
      "assetIds": []
    },
    {
      "x": 295,
      "y": 184,
      "size": 1,
      "price": "1011000000000000000000",
      "reserved": "",
      "salt": "0xf9de265dcef1ad7184fbb4bb1fa5cbd1f4a0628d7937e5dd82d9d16b06a16035",
      "assetIds": []
    },
    {
      "x": 295,
      "y": 185,
      "size": 1,
      "price": "1011000000000000000000",
      "reserved": "",
      "salt": "0x15ce02805c3361274eebf5c7b7982cdbc349fcd00a5f410fb4027905cd52c9b8",
      "assetIds": []
    },
    {
      "x": 295,
      "y": 186,
      "size": 1,
      "price": "1011000000000000000000",
      "reserved": "",
      "salt": "0x0f23f2b151604eebf1b90c193e93e227a5c4d3957df4088d5f1092edfe90d491",
      "assetIds": []
    },
    {
      "x": 295,
      "y": 187,
      "size": 1,
      "price": "1011000000000000000000",
      "reserved": "",
      "salt": "0x515e9ea772a308e542a743cc777479cc9c7d11f5e72a40d77db636b967dd3da4",
      "assetIds": []
    },
    {
      "x": 296,
      "y": 165,
      "size": 1,
      "price": "1011000000000000000000",
      "reserved": "",
      "salt": "0x1bfb271867b93cb1202c947e404c5fc5596162b2ce820906db5113c819d671ce",
      "assetIds": []
    },
    {
      "x": 296,
      "y": 166,
      "size": 1,
      "price": "1011000000000000000000",
      "reserved": "",
      "salt": "0x988a4878bd9729016b7b86e4fe8739f680f0024b109495982a0e1979f880781c",
      "assetIds": []
    },
    {
      "x": 296,
      "y": 167,
      "size": 1,
      "price": "4683000000000000000000",
      "reserved": "",
      "salt": "0x9f11a67b27167afbbaf93426df4a19f1cb3b959136cb91a2523343c33299a318",
      "assetIds": [
        "55464657044963196816950587289035428064568320970692304673817341489687933519875",
        "55464657044963196816950587289035428064568320970692304673817341489687933519884",
        "55464657044963196816950587289035428064568320970692304673817341489687941879810",
        "55464657044963196816950587289035428064568320970692304673817341489687933519872",
        "55464657044963196816950587289035428064568320970692304673817341489687933519879",
        "55464657044963196816950587289035428064568320970692304673817341489687933519874"
      ]
    },
    {
      "x": 296,
      "y": 174,
      "size": 1,
      "price": "1011000000000000000000",
      "reserved": "",
      "salt": "0xe3b3ef2709025f6e549a48b3dfef5aa2aa4c77287e121d1569b5d71af849eb70",
      "assetIds": []
    },
    {
      "x": 296,
      "y": 175,
      "size": 1,
      "price": "1011000000000000000000",
      "reserved": "",
      "salt": "0x2c1b6a37d2d2ac969cde36294194fce94590dce1190915ec7263004975a66f35",
      "assetIds": []
    },
    {
      "x": 296,
      "y": 176,
      "size": 1,
      "price": "1011000000000000000000",
      "reserved": "",
      "salt": "0xab6243d007618195633f99d23e06acc37168816a9f9f0714df2b39f24fb490c0",
      "assetIds": []
    },
    {
      "x": 296,
      "y": 177,
      "size": 1,
      "price": "1011000000000000000000",
      "reserved": "",
      "salt": "0xade96182771487dcccbbf548c062cfd7eb2b17f080951016c812ee2a8c7cb2e2",
      "assetIds": []
    },
    {
      "x": 296,
      "y": 178,
      "size": 1,
      "price": "1011000000000000000000",
      "reserved": "",
      "salt": "0xb0c245144509c3b274b37970cf1ea0d0c43e074f7cafb0d60de8b163e5f0572f",
      "assetIds": []
    },
    {
      "x": 296,
      "y": 179,
      "size": 1,
      "price": "1011000000000000000000",
      "reserved": "",
      "salt": "0x32855f9040c30391e73dbe0a4c42b43363784357b55b7568b1a44e23aebc2e95",
      "assetIds": []
    },
    {
      "x": 296,
      "y": 180,
      "size": 1,
      "price": "1011000000000000000000",
      "reserved": "",
      "salt": "0x9e21b28c31f5ab265b39284266c3e1e9bbddc949b9e870534e2a38c0cf406f46",
      "assetIds": []
    },
    {
      "x": 296,
      "y": 181,
      "size": 1,
      "price": "1011000000000000000000",
      "reserved": "",
      "salt": "0x034ee6326322c897b9a77dda4daee666dff15af09d9d2efbe5499611f7d49bfb",
      "assetIds": []
    },
    {
      "x": 296,
      "y": 182,
      "size": 1,
      "price": "1011000000000000000000",
      "reserved": "",
      "salt": "0x68853b6289c6034df1b85fb6708823110140687f2c4dfb4abb795623e26fa773",
      "assetIds": []
    },
    {
      "x": 296,
      "y": 183,
      "size": 1,
      "price": "1011000000000000000000",
      "reserved": "",
      "salt": "0xafb71fa5fdb7b090c353e9dbacec5ec9ed8ebefae43dcf8a2b866f9e741b51ed",
      "assetIds": []
    },
    {
      "x": 296,
      "y": 184,
      "size": 1,
      "price": "1011000000000000000000",
      "reserved": "",
      "salt": "0x84eca19c306d0e46218a64f85231c63ded7068a4cb63faa2c591808e08eebdb8",
      "assetIds": []
    },
    {
      "x": 296,
      "y": 185,
      "size": 1,
      "price": "1011000000000000000000",
      "reserved": "",
      "salt": "0x84050573abc7cea2180e61f4dc1d5ece7496cbb69c8355415f300a540bf8495e",
      "assetIds": []
    },
    {
      "x": 296,
      "y": 186,
      "size": 1,
      "price": "1011000000000000000000",
      "reserved": "",
      "salt": "0x99e0d501eab1faaf0ba5691dac86877a8c701a3c290583bcdd7a98feffbb8236",
      "assetIds": []
    },
    {
      "x": 296,
      "y": 187,
      "size": 1,
      "price": "1011000000000000000000",
      "reserved": "",
      "salt": "0x8ac31b308a22b74b897881620c55d15d7f8b351ef49c24b2e182dc97e45cd25b",
      "assetIds": []
    },
    {
      "x": 297,
      "y": 162,
      "size": 1,
      "price": "1011000000000000000000",
      "reserved": "",
      "salt": "0x2dd9b4294787825d015a5f2eee97f33610ceb7a5f4eabd45dae7ac6b1d8934e7",
      "assetIds": []
    },
    {
      "x": 297,
      "y": 163,
      "size": 1,
      "price": "1011000000000000000000",
      "reserved": "",
      "salt": "0xf55dce19c5fe7c28186b44c00ce56a947cb06e75ac548b73769799cde79afe2f",
      "assetIds": []
    },
    {
      "x": 297,
      "y": 164,
      "size": 1,
      "price": "4683000000000000000000",
      "reserved": "",
      "salt": "0x5cab33a68759c0d78408135ec8a59e0c08fff9774f44208c1f7a03d1953f2e22",
      "assetIds": [
        "55464657044963196816950587289035428064568320970692304673817341489687933519875",
        "55464657044963196816950587289035428064568320970692304673817341489687933519884",
        "55464657044963196816950587289035428064568320970692304673817341489687941879810",
        "55464657044963196816950587289035428064568320970692304673817341489687933519872",
        "55464657044963196816950587289035428064568320970692304673817341489687933519879",
        "55464657044963196816950587289035428064568320970692304673817341489687933519874"
      ]
    },
    {
      "x": 297,
      "y": 165,
      "size": 1,
      "price": "4683000000000000000000",
      "reserved": "",
      "salt": "0x145297216f59deeb369c31d042f074b2b2d155f2d65e2d345a5dae3878c6f79c",
      "assetIds": [
        "55464657044963196816950587289035428064568320970692304673817341489687933519875",
        "55464657044963196816950587289035428064568320970692304673817341489687933519884",
        "55464657044963196816950587289035428064568320970692304673817341489687941879810",
        "55464657044963196816950587289035428064568320970692304673817341489687933519872",
        "55464657044963196816950587289035428064568320970692304673817341489687933519879",
        "55464657044963196816950587289035428064568320970692304673817341489687933519874"
      ]
    },
    {
      "x": 297,
      "y": 166,
      "size": 1,
      "price": "4683000000000000000000",
      "reserved": "",
      "salt": "0xa6feb2b513628d6437323dbd8d3db2898be8856f21409e95a63b97e6cb948ffd",
      "assetIds": [
        "55464657044963196816950587289035428064568320970692304673817341489687933519875",
        "55464657044963196816950587289035428064568320970692304673817341489687933519884",
        "55464657044963196816950587289035428064568320970692304673817341489687941879810",
        "55464657044963196816950587289035428064568320970692304673817341489687933519872",
        "55464657044963196816950587289035428064568320970692304673817341489687933519879",
        "55464657044963196816950587289035428064568320970692304673817341489687933519874"
      ]
    },
    {
      "x": 297,
      "y": 167,
      "size": 1,
      "price": "4683000000000000000000",
      "reserved": "",
      "salt": "0x0513e0aba2a7cc0757f53dad027c900db7a30a5eda8155ac6535be03b7f5a7f9",
      "assetIds": [
        "55464657044963196816950587289035428064568320970692304673817341489687933519875",
        "55464657044963196816950587289035428064568320970692304673817341489687933519884",
        "55464657044963196816950587289035428064568320970692304673817341489687941879810",
        "55464657044963196816950587289035428064568320970692304673817341489687933519872",
        "55464657044963196816950587289035428064568320970692304673817341489687933519879",
        "55464657044963196816950587289035428064568320970692304673817341489687933519874"
      ]
    },
    {
      "x": 297,
      "y": 174,
      "size": 1,
      "price": "1011000000000000000000",
      "reserved": "",
      "salt": "0xc6c4b5ae52513603cd97931234c979e5af2d783f4e6010524688341254d883e2",
      "assetIds": []
    },
    {
      "x": 297,
      "y": 175,
      "size": 1,
      "price": "1011000000000000000000",
      "reserved": "",
      "salt": "0xa87f81c959cb1017d3b6dd2b855f4bf0b5b386c2cf98dce5893d70728c4ebc00",
      "assetIds": []
    },
    {
      "x": 297,
      "y": 176,
      "size": 1,
      "price": "1011000000000000000000",
      "reserved": "",
      "salt": "0x64c1c0d244902ce03495bb52ec525ddfd09fbed02bd998b6b313fca6db7cabfb",
      "assetIds": []
    },
    {
      "x": 297,
      "y": 177,
      "size": 1,
      "price": "1011000000000000000000",
      "reserved": "",
      "salt": "0x086c87153644bf6bf702adf351ee2dba055e2aab403781fddd0e97ecb0ff9cab",
      "assetIds": []
    },
    {
      "x": 297,
      "y": 178,
      "size": 1,
      "price": "1011000000000000000000",
      "reserved": "",
      "salt": "0x6c49af15c8bcfd97c4192ce80c973bf25d33cd3c8c41c59e134e5ba92a8eddb2",
      "assetIds": []
    },
    {
      "x": 297,
      "y": 179,
      "size": 1,
      "price": "1011000000000000000000",
      "reserved": "",
      "salt": "0xc749d6fcfc2c07fc5a0747232a4bf5c32a2084355c2c522551700dfc7c40f72b",
      "assetIds": []
    },
    {
      "x": 297,
      "y": 180,
      "size": 1,
      "price": "1011000000000000000000",
      "reserved": "",
      "salt": "0x0d6052352cabe0354df03674efaa9721fb1ceaeda307195d1995b419d9afdaf0",
      "assetIds": []
    },
    {
      "x": 297,
      "y": 181,
      "size": 1,
      "price": "1011000000000000000000",
      "reserved": "",
      "salt": "0xe643e9c1bec6122ab8e078b7d7fae6ddd23d05a9bedb9e564f0a88e6822debdd",
      "assetIds": []
    },
    {
      "x": 297,
      "y": 182,
      "size": 1,
      "price": "1011000000000000000000",
      "reserved": "",
      "salt": "0xda24f257009fc649b643b06f3e366b705079a8169b825cd89aa5d5e0834c20c9",
      "assetIds": []
    },
    {
      "x": 297,
      "y": 183,
      "size": 1,
      "price": "1011000000000000000000",
      "reserved": "",
      "salt": "0x79e21cbe1fe7fef01085e05ab9857ded2d536ceb9fe757b3758408c86cd4e32a",
      "assetIds": []
    },
    {
      "x": 297,
      "y": 184,
      "size": 1,
      "price": "1011000000000000000000",
      "reserved": "",
      "salt": "0x448cc8bdef4aa12a8e662b452c0f2375b6a0681e9a74b2293b6938b310b17eb7",
      "assetIds": []
    },
    {
      "x": 297,
      "y": 185,
      "size": 1,
      "price": "1011000000000000000000",
      "reserved": "",
      "salt": "0xacb6e032779734d8716b31fc0c35f647a4361da18acd5e808345302646ddf22d",
      "assetIds": []
    },
    {
      "x": 297,
      "y": 186,
      "size": 1,
      "price": "1011000000000000000000",
      "reserved": "",
      "salt": "0x9e451c9370ebf30bb823384857bbbfe276008ac7beb0deec3cae5bd4ed03fe6e",
      "assetIds": []
    },
    {
      "x": 297,
      "y": 187,
      "size": 1,
      "price": "1011000000000000000000",
      "reserved": "",
      "salt": "0xd466efc1f51184d02ae8e90a55d259212ef2622fbaf596ec6a800e58c7975c0b",
      "assetIds": []
    },
    {
      "x": 298,
      "y": 162,
      "size": 1,
      "price": "1011000000000000000000",
      "reserved": "",
      "salt": "0x65ad5511c7cbde6dbe846e30749617e2d2cdd4ecc3e491b04075e38aadffd5f5",
      "assetIds": []
    },
    {
      "x": 298,
      "y": 163,
      "size": 1,
      "price": "4683000000000000000000",
      "reserved": "",
      "salt": "0x4a0dc5a4dc38352087d8cd6d0157a40a20ec989f7a4067733ea1eaa1fd932b69",
      "assetIds": [
        "55464657044963196816950587289035428064568320970692304673817341489687933519875",
        "55464657044963196816950587289035428064568320970692304673817341489687933519884",
        "55464657044963196816950587289035428064568320970692304673817341489687941879810",
        "55464657044963196816950587289035428064568320970692304673817341489687933519872",
        "55464657044963196816950587289035428064568320970692304673817341489687933519879",
        "55464657044963196816950587289035428064568320970692304673817341489687933519874"
      ]
    },
    {
      "x": 298,
      "y": 164,
      "size": 1,
      "price": "4683000000000000000000",
      "reserved": "",
      "salt": "0xb8f8e40725373618e3feb84aca22285b4f0d93f12cf9cfebf4653882da69b015",
      "assetIds": [
        "55464657044963196816950587289035428064568320970692304673817341489687933519875",
        "55464657044963196816950587289035428064568320970692304673817341489687933519884",
        "55464657044963196816950587289035428064568320970692304673817341489687941879810",
        "55464657044963196816950587289035428064568320970692304673817341489687933519872",
        "55464657044963196816950587289035428064568320970692304673817341489687933519879",
        "55464657044963196816950587289035428064568320970692304673817341489687933519874"
      ]
    },
    {
      "x": 298,
      "y": 165,
      "size": 1,
      "price": "4683000000000000000000",
      "reserved": "",
      "salt": "0xa57f20a60daefb50f899f2a5edb6049130928679787a9c07398c3ef8f5d73016",
      "assetIds": [
        "55464657044963196816950587289035428064568320970692304673817341489687933519875",
        "55464657044963196816950587289035428064568320970692304673817341489687933519884",
        "55464657044963196816950587289035428064568320970692304673817341489687941879810",
        "55464657044963196816950587289035428064568320970692304673817341489687933519872",
        "55464657044963196816950587289035428064568320970692304673817341489687933519879",
        "55464657044963196816950587289035428064568320970692304673817341489687933519874"
      ]
    },
    {
      "x": 298,
      "y": 166,
      "size": 1,
      "price": "4683000000000000000000",
      "reserved": "",
      "salt": "0x5fb6929cb729b801387e61add47bab44f92fc482e757b3487b1c777c06e4e18a",
      "assetIds": [
        "55464657044963196816950587289035428064568320970692304673817341489687933519875",
        "55464657044963196816950587289035428064568320970692304673817341489687933519884",
        "55464657044963196816950587289035428064568320970692304673817341489687941879810",
        "55464657044963196816950587289035428064568320970692304673817341489687933519872",
        "55464657044963196816950587289035428064568320970692304673817341489687933519879",
        "55464657044963196816950587289035428064568320970692304673817341489687933519874"
      ]
    },
    {
      "x": 298,
      "y": 167,
      "size": 1,
      "price": "4683000000000000000000",
      "reserved": "",
      "salt": "0xe2851b49aebe520329f64133f7ec2ec57a095a5bde65207d3b9ba8bb584c35c1",
      "assetIds": [
        "55464657044963196816950587289035428064568320970692304673817341489687933519875",
        "55464657044963196816950587289035428064568320970692304673817341489687933519884",
        "55464657044963196816950587289035428064568320970692304673817341489687941879810",
        "55464657044963196816950587289035428064568320970692304673817341489687933519872",
        "55464657044963196816950587289035428064568320970692304673817341489687933519879",
        "55464657044963196816950587289035428064568320970692304673817341489687933519874"
      ]
    },
    {
      "x": 298,
      "y": 174,
      "size": 1,
      "price": "4683000000000000000000",
      "reserved": "",
      "salt": "0x8c279f409e99b68874a6e258dbdddf117ef773e076fa125740b0d327b0b070c9",
      "assetIds": [
        "55464657044963196816950587289035428064568320970692304673817341489687933519875",
        "55464657044963196816950587289035428064568320970692304673817341489687933519884",
        "55464657044963196816950587289035428064568320970692304673817341489687941879810",
        "55464657044963196816950587289035428064568320970692304673817341489687933519872",
        "55464657044963196816950587289035428064568320970692304673817341489687933519879",
        "55464657044963196816950587289035428064568320970692304673817341489687933519874"
      ]
    },
    {
      "x": 298,
      "y": 175,
      "size": 1,
      "price": "1011000000000000000000",
      "reserved": "",
      "salt": "0x62ef696c10c0437d7f43fdb3974397bc89124ffe0929548a2729c2909702aef0",
      "assetIds": []
    },
    {
      "x": 298,
      "y": 176,
      "size": 1,
      "price": "1011000000000000000000",
      "reserved": "",
      "salt": "0x41a0bed714eee7e7f9f3ef8d41be9eba8968e7f54fe049d8711af528e44bfa46",
      "assetIds": []
    },
    {
      "x": 298,
      "y": 177,
      "size": 1,
      "price": "1011000000000000000000",
      "reserved": "",
      "salt": "0x61997551bc42295e58581e01b5eba009c957c4efebc3e7498028ea25d22cf11b",
      "assetIds": []
    },
    {
      "x": 298,
      "y": 178,
      "size": 1,
      "price": "1011000000000000000000",
      "reserved": "",
      "salt": "0xdaffa465575b08f57aac9c482c428bdc42cab47263126d804b63ff3db9c4111d",
      "assetIds": []
    },
    {
      "x": 298,
      "y": 179,
      "size": 1,
      "price": "1011000000000000000000",
      "reserved": "",
      "salt": "0x0b082d8cfed4990d3839890b5583a7dcb3cecce7c1d462ae14abb87dfcfe329e",
      "assetIds": []
    },
    {
      "x": 298,
      "y": 180,
      "size": 1,
      "price": "1011000000000000000000",
      "reserved": "",
      "salt": "0x7dfcba2e15b287fd9801402ca9e5d11997835fc258c609e6d008e71b54a62d28",
      "assetIds": []
    },
    {
      "x": 298,
      "y": 181,
      "size": 1,
      "price": "1011000000000000000000",
      "reserved": "",
      "salt": "0xd51562d03c4f9129f3adb50c00c27ea9759384a791fdffd5c10ce8564ed1e0f6",
      "assetIds": []
    },
    {
      "x": 298,
      "y": 182,
      "size": 1,
      "price": "1011000000000000000000",
      "reserved": "",
      "salt": "0x0684994b05a9672f952d0b1735fcd13893019c4ea1d18b3e250ca0d8e59b50ce",
      "assetIds": []
    },
    {
      "x": 298,
      "y": 183,
      "size": 1,
      "price": "1011000000000000000000",
      "reserved": "",
      "salt": "0x0e5951965133726795acf7a87dd46b00509c31f272dc844651f47d43487ca5d8",
      "assetIds": []
    },
    {
      "x": 298,
      "y": 184,
      "size": 1,
      "price": "1011000000000000000000",
      "reserved": "",
      "salt": "0x27c396d4bb9263c1cbd9223cb613a8d128562cc3ffb6238f570e5c3a17a53580",
      "assetIds": []
    },
    {
      "x": 298,
      "y": 185,
      "size": 1,
      "price": "1011000000000000000000",
      "reserved": "",
      "salt": "0xa6288b3c98883d91b623c4a5e201ddc36ace5e9d0eb5a766bab47d02d7721829",
      "assetIds": []
    },
    {
      "x": 298,
      "y": 186,
      "size": 1,
      "price": "1011000000000000000000",
      "reserved": "",
      "salt": "0x874929bd1c03e2b5a93109ca88d49e527d335e54db97d7a1b811d04731071719",
      "assetIds": []
    },
    {
      "x": 298,
      "y": 187,
      "size": 1,
      "price": "1011000000000000000000",
      "reserved": "",
      "salt": "0xe241444dd026dc24bee43be0ea8cc6563e320a729e89386132fecc27c562c488",
      "assetIds": []
    },
    {
      "x": 299,
      "y": 162,
      "size": 1,
      "price": "1011000000000000000000",
      "reserved": "",
      "salt": "0x1a5fd07b691a280d9a2a64c1c4fa4a837702d2fd0b84eb725d55771492b4197b",
      "assetIds": []
    },
    {
      "x": 299,
      "y": 163,
      "size": 1,
      "price": "4683000000000000000000",
      "reserved": "",
      "salt": "0x33ca7309d0eeeb05bed42656f4bdb199a4aee3a3c2c89bfc60b157895f140dca",
      "assetIds": [
        "55464657044963196816950587289035428064568320970692304673817341489687933519875",
        "55464657044963196816950587289035428064568320970692304673817341489687933519884",
        "55464657044963196816950587289035428064568320970692304673817341489687941879810",
        "55464657044963196816950587289035428064568320970692304673817341489687933519872",
        "55464657044963196816950587289035428064568320970692304673817341489687933519879",
        "55464657044963196816950587289035428064568320970692304673817341489687933519874"
      ]
    },
    {
      "x": 299,
      "y": 164,
      "size": 1,
      "price": "4683000000000000000000",
      "reserved": "",
      "salt": "0x99a0e5ba1a1fc9741bb95c13871488ec9dfea0266123755a534589b2c7d0c906",
      "assetIds": [
        "55464657044963196816950587289035428064568320970692304673817341489687933519875",
        "55464657044963196816950587289035428064568320970692304673817341489687933519884",
        "55464657044963196816950587289035428064568320970692304673817341489687941879810",
        "55464657044963196816950587289035428064568320970692304673817341489687933519872",
        "55464657044963196816950587289035428064568320970692304673817341489687933519879",
        "55464657044963196816950587289035428064568320970692304673817341489687933519874"
      ]
    },
    {
      "x": 299,
      "y": 165,
      "size": 1,
      "price": "4683000000000000000000",
      "reserved": "",
      "salt": "0x652f8aadf2890880b163e7824ffaff9c99432d2bade905cd2eccb21ff9ad68a6",
      "assetIds": [
        "55464657044963196816950587289035428064568320970692304673817341489687933519875",
        "55464657044963196816950587289035428064568320970692304673817341489687933519884",
        "55464657044963196816950587289035428064568320970692304673817341489687941879810",
        "55464657044963196816950587289035428064568320970692304673817341489687933519872",
        "55464657044963196816950587289035428064568320970692304673817341489687933519879",
        "55464657044963196816950587289035428064568320970692304673817341489687933519874"
      ]
    },
    {
      "x": 299,
      "y": 166,
      "size": 1,
      "price": "4683000000000000000000",
      "reserved": "",
      "salt": "0x930820f51e4986418836124755f61522bd4ad2e3e63d3e755568ddf4bafeb57d",
      "assetIds": [
        "55464657044963196816950587289035428064568320970692304673817341489687933519875",
        "55464657044963196816950587289035428064568320970692304673817341489687933519884",
        "55464657044963196816950587289035428064568320970692304673817341489687941879810",
        "55464657044963196816950587289035428064568320970692304673817341489687933519872",
        "55464657044963196816950587289035428064568320970692304673817341489687933519879",
        "55464657044963196816950587289035428064568320970692304673817341489687933519874"
      ]
    },
    {
      "x": 299,
      "y": 167,
      "size": 1,
      "price": "4683000000000000000000",
      "reserved": "",
      "salt": "0x3f9f71ed6dd9c0fcfd0091135670ad3c41f7204e68188e7a0dd000f5d9fc8a05",
      "assetIds": [
        "55464657044963196816950587289035428064568320970692304673817341489687933519875",
        "55464657044963196816950587289035428064568320970692304673817341489687933519884",
        "55464657044963196816950587289035428064568320970692304673817341489687941879810",
        "55464657044963196816950587289035428064568320970692304673817341489687933519872",
        "55464657044963196816950587289035428064568320970692304673817341489687933519879",
        "55464657044963196816950587289035428064568320970692304673817341489687933519874"
      ]
    },
    {
      "x": 299,
      "y": 174,
      "size": 1,
      "price": "4683000000000000000000",
      "reserved": "",
      "salt": "0x6b59ed575a119bd54841337d616d8e8a65652b92ac54dc57499984dbc25720b0",
      "assetIds": [
        "55464657044963196816950587289035428064568320970692304673817341489687933519875",
        "55464657044963196816950587289035428064568320970692304673817341489687933519884",
        "55464657044963196816950587289035428064568320970692304673817341489687941879810",
        "55464657044963196816950587289035428064568320970692304673817341489687933519872",
        "55464657044963196816950587289035428064568320970692304673817341489687933519879",
        "55464657044963196816950587289035428064568320970692304673817341489687933519874"
      ]
    },
    {
      "x": 299,
      "y": 175,
      "size": 1,
      "price": "1011000000000000000000",
      "reserved": "",
      "salt": "0x1c88eba5097a9b932d872eea33256dd02a1ae58dcec4e352022f0bbcaf105a9e",
      "assetIds": []
    },
    {
      "x": 299,
      "y": 176,
      "size": 1,
      "price": "1011000000000000000000",
      "reserved": "",
      "salt": "0x8b3b869b149b39c451ca0f2f6c76a5a3a7178501d35f26007054be70bad77fff",
      "assetIds": []
    },
    {
      "x": 299,
      "y": 177,
      "size": 1,
      "price": "1011000000000000000000",
      "reserved": "",
      "salt": "0x6d412506cfd2cc88d4a71f226be23aa6d6e914d6dc9a083a4b9c16746d13e683",
      "assetIds": []
    },
    {
      "x": 299,
      "y": 178,
      "size": 1,
      "price": "1011000000000000000000",
      "reserved": "",
      "salt": "0xdc461d42621b163f5fc088ee51353afbbf542fe395eca3aefe6f81248085578c",
      "assetIds": []
    },
    {
      "x": 299,
      "y": 179,
      "size": 1,
      "price": "1011000000000000000000",
      "reserved": "",
      "salt": "0xc036f83a7efee89162e7b9e129f34de159492a446bc412823abd686f0fcffd96",
      "assetIds": []
    },
    {
      "x": 299,
      "y": 180,
      "size": 1,
      "price": "1011000000000000000000",
      "reserved": "",
      "salt": "0x2562a7963a15d502647fec64ccb187420db3ff050eed072d2004e384dbf2aaa5",
      "assetIds": []
    },
    {
      "x": 299,
      "y": 181,
      "size": 1,
      "price": "1011000000000000000000",
      "reserved": "",
      "salt": "0xb53b96376c7d666957bf80f5e2b5c27b741903393ce5ed7d589628b403bde4a0",
      "assetIds": []
    },
    {
      "x": 299,
      "y": 182,
      "size": 1,
      "price": "1011000000000000000000",
      "reserved": "",
      "salt": "0x1c23ca0414cf9ed7f56392726ba9a8ec7e5ff0e0c8613016eed949eb6ba11761",
      "assetIds": []
    },
    {
      "x": 299,
      "y": 183,
      "size": 1,
      "price": "1011000000000000000000",
      "reserved": "",
      "salt": "0xf9b2e534ab6f817ba516f9200b0c0aa7b959065467a9a8648584dd26cd170c5c",
      "assetIds": []
    },
    {
      "x": 299,
      "y": 184,
      "size": 1,
      "price": "1011000000000000000000",
      "reserved": "",
      "salt": "0x318f4a7076efc0b032be2ea103de74a440246cf815c6e5848a11e168f25f9089",
      "assetIds": []
    },
    {
      "x": 299,
      "y": 185,
      "size": 1,
      "price": "1011000000000000000000",
      "reserved": "",
      "salt": "0x3e460359502c4b81fd730d34e212306b413c95e46b2498b7168132e1ad40df67",
      "assetIds": []
    },
    {
      "x": 299,
      "y": 186,
      "size": 1,
      "price": "1011000000000000000000",
      "reserved": "",
      "salt": "0x3b789ed3c80fdf20dfb6b7e4696e624d1c842cf7060ad3c3c4e47aec73a7456f",
      "assetIds": []
    },
    {
      "x": 299,
      "y": 187,
      "size": 1,
      "price": "1011000000000000000000",
      "reserved": "",
      "salt": "0x9bcb41ed01d46be3da1b8c921659ba8efcff97d00cf5c14d278e79d9055ff93d",
      "assetIds": []
    },
    {
      "x": 299,
      "y": 188,
      "size": 1,
      "price": "1011000000000000000000",
      "reserved": "",
      "salt": "0xb24cd3a015b7a7a283ead2bc28ea578fc94e59bfc6e62dc12bcd90259c70a14f",
      "assetIds": []
    },
    {
      "x": 300,
      "y": 162,
      "size": 1,
      "price": "1011000000000000000000",
      "reserved": "",
      "salt": "0x04aa5df0bbc6d3d52553506e05e0dca8b9a40e9c686dee966020ca88e4a58db7",
      "assetIds": []
    },
    {
      "x": 300,
      "y": 163,
      "size": 1,
      "price": "4683000000000000000000",
      "reserved": "",
      "salt": "0x990e536032f9eafe97bc4a9be73039b28e87d58e7f666ad9d98ea3e1853e70ce",
      "assetIds": [
        "55464657044963196816950587289035428064568320970692304673817341489687933519875",
        "55464657044963196816950587289035428064568320970692304673817341489687933519884",
        "55464657044963196816950587289035428064568320970692304673817341489687941879810",
        "55464657044963196816950587289035428064568320970692304673817341489687933519872",
        "55464657044963196816950587289035428064568320970692304673817341489687933519879",
        "55464657044963196816950587289035428064568320970692304673817341489687933519874"
      ]
    },
    {
      "x": 300,
      "y": 164,
      "size": 1,
      "price": "4683000000000000000000",
      "reserved": "",
      "salt": "0xb981113f21194c387bb137211d108208745fefe5c7ff96b17d5a1e7f3af4328f",
      "assetIds": [
        "55464657044963196816950587289035428064568320970692304673817341489687933519875",
        "55464657044963196816950587289035428064568320970692304673817341489687933519884",
        "55464657044963196816950587289035428064568320970692304673817341489687941879810",
        "55464657044963196816950587289035428064568320970692304673817341489687933519872",
        "55464657044963196816950587289035428064568320970692304673817341489687933519879",
        "55464657044963196816950587289035428064568320970692304673817341489687933519874"
      ]
    },
    {
      "x": 300,
      "y": 165,
      "size": 1,
      "price": "4683000000000000000000",
      "reserved": "",
      "salt": "0xa22aaad989c440cd264a74c133b233c3c6d2ab124c829879bdf4cedca217ff15",
      "assetIds": [
        "55464657044963196816950587289035428064568320970692304673817341489687933519875",
        "55464657044963196816950587289035428064568320970692304673817341489687933519884",
        "55464657044963196816950587289035428064568320970692304673817341489687941879810",
        "55464657044963196816950587289035428064568320970692304673817341489687933519872",
        "55464657044963196816950587289035428064568320970692304673817341489687933519879",
        "55464657044963196816950587289035428064568320970692304673817341489687933519874"
      ]
    },
    {
      "x": 300,
      "y": 166,
      "size": 1,
      "price": "4683000000000000000000",
      "reserved": "",
      "salt": "0x89773bf851fdfaec38ea2052dada52bfc152bea1e88b38e4198358926e6a4865",
      "assetIds": [
        "55464657044963196816950587289035428064568320970692304673817341489687933519875",
        "55464657044963196816950587289035428064568320970692304673817341489687933519884",
        "55464657044963196816950587289035428064568320970692304673817341489687941879810",
        "55464657044963196816950587289035428064568320970692304673817341489687933519872",
        "55464657044963196816950587289035428064568320970692304673817341489687933519879",
        "55464657044963196816950587289035428064568320970692304673817341489687933519874"
      ]
    },
    {
      "x": 300,
      "y": 167,
      "size": 1,
      "price": "4683000000000000000000",
      "reserved": "",
      "salt": "0x4667073b911a1e2f06adc824353f93042398f8bf31799b13c249a89dd23a787e",
      "assetIds": [
        "55464657044963196816950587289035428064568320970692304673817341489687933519875",
        "55464657044963196816950587289035428064568320970692304673817341489687933519884",
        "55464657044963196816950587289035428064568320970692304673817341489687941879810",
        "55464657044963196816950587289035428064568320970692304673817341489687933519872",
        "55464657044963196816950587289035428064568320970692304673817341489687933519879",
        "55464657044963196816950587289035428064568320970692304673817341489687933519874"
      ]
    },
    {
      "x": 300,
      "y": 171,
      "size": 1,
      "price": "4683000000000000000000",
      "reserved": "",
      "salt": "0x3e7985455ae919f7d5dcdf24dc857f6e187c67b52dd54851244db268b95b32e0",
      "assetIds": [
        "55464657044963196816950587289035428064568320970692304673817341489687933519875",
        "55464657044963196816950587289035428064568320970692304673817341489687933519884",
        "55464657044963196816950587289035428064568320970692304673817341489687941879810",
        "55464657044963196816950587289035428064568320970692304673817341489687933519872",
        "55464657044963196816950587289035428064568320970692304673817341489687933519879",
        "55464657044963196816950587289035428064568320970692304673817341489687933519874"
      ]
    },
    {
      "x": 300,
      "y": 172,
      "size": 1,
      "price": "4683000000000000000000",
      "reserved": "",
      "salt": "0x7592ef78e97f87f878b6cd7fdffbc312cecbbaba62cba90455daee987c531cbb",
      "assetIds": [
        "55464657044963196816950587289035428064568320970692304673817341489687933519875",
        "55464657044963196816950587289035428064568320970692304673817341489687933519884",
        "55464657044963196816950587289035428064568320970692304673817341489687941879810",
        "55464657044963196816950587289035428064568320970692304673817341489687933519872",
        "55464657044963196816950587289035428064568320970692304673817341489687933519879",
        "55464657044963196816950587289035428064568320970692304673817341489687933519874"
      ]
    },
    {
      "x": 300,
      "y": 173,
      "size": 1,
      "price": "4683000000000000000000",
      "reserved": "",
      "salt": "0x21949f785d0e4c4a0276b317b5793759560e78606f9a083db36777dd0e949000",
      "assetIds": [
        "55464657044963196816950587289035428064568320970692304673817341489687933519875",
        "55464657044963196816950587289035428064568320970692304673817341489687933519884",
        "55464657044963196816950587289035428064568320970692304673817341489687941879810",
        "55464657044963196816950587289035428064568320970692304673817341489687933519872",
        "55464657044963196816950587289035428064568320970692304673817341489687933519879",
        "55464657044963196816950587289035428064568320970692304673817341489687933519874"
      ]
    },
    {
      "x": 300,
      "y": 174,
      "size": 1,
      "price": "4683000000000000000000",
      "reserved": "",
      "salt": "0xcb9e50e231ae0d468243b84bab9300d7212c4ab16f1ad933715c178fe6a91f74",
      "assetIds": [
        "55464657044963196816950587289035428064568320970692304673817341489687933519875",
        "55464657044963196816950587289035428064568320970692304673817341489687933519884",
        "55464657044963196816950587289035428064568320970692304673817341489687941879810",
        "55464657044963196816950587289035428064568320970692304673817341489687933519872",
        "55464657044963196816950587289035428064568320970692304673817341489687933519879",
        "55464657044963196816950587289035428064568320970692304673817341489687933519874"
      ]
    },
    {
      "x": 300,
      "y": 175,
      "size": 1,
      "price": "4683000000000000000000",
      "reserved": "",
      "salt": "0xdfbaeef40ab3bd51246c823e6116366994b356fc0e45289f069b8df14d90573d",
      "assetIds": [
        "55464657044963196816950587289035428064568320970692304673817341489687933519875",
        "55464657044963196816950587289035428064568320970692304673817341489687933519884",
        "55464657044963196816950587289035428064568320970692304673817341489687941879810",
        "55464657044963196816950587289035428064568320970692304673817341489687933519872",
        "55464657044963196816950587289035428064568320970692304673817341489687933519879",
        "55464657044963196816950587289035428064568320970692304673817341489687933519874"
      ]
    },
    {
      "x": 300,
      "y": 176,
      "size": 1,
      "price": "1011000000000000000000",
      "reserved": "",
      "salt": "0xc1fbe39551a011cb553055a033a613ebbff0cade1a60f57c9ee4320a66d57ea5",
      "assetIds": []
    },
    {
      "x": 300,
      "y": 177,
      "size": 1,
      "price": "1011000000000000000000",
      "reserved": "",
      "salt": "0x75d2c15b92a7310e1ec9c0db6d3cb608110547d076779cda10966e2be6ccbc12",
      "assetIds": []
    },
    {
      "x": 300,
      "y": 178,
      "size": 1,
      "price": "1011000000000000000000",
      "reserved": "",
      "salt": "0xd10551205c360ad8c1d22ae4ad54737babd778ae061a549811f9981fc70ec343",
      "assetIds": []
    },
    {
      "x": 300,
      "y": 179,
      "size": 1,
      "price": "1011000000000000000000",
      "reserved": "",
      "salt": "0x57465a36b57d773f888149cb5c93424a435d4399eba03a7e276576377383a619",
      "assetIds": []
    },
    {
      "x": 300,
      "y": 183,
      "size": 1,
      "price": "1011000000000000000000",
      "reserved": "",
      "salt": "0x9feac19f55068c133c20f53d0eb1df25215ede74799c470c77f72d54f53694f9",
      "assetIds": []
    },
    {
      "x": 300,
      "y": 184,
      "size": 1,
      "price": "1011000000000000000000",
      "reserved": "",
      "salt": "0x6908089aabeff34cad4565f9b3fff40bc06e5a1df1748214ca8879890d2f004d",
      "assetIds": []
    },
    {
      "x": 300,
      "y": 185,
      "size": 1,
      "price": "1011000000000000000000",
      "reserved": "",
      "salt": "0x75cbc7f16454faa6d0ec318787c7fcb9c66ea40363dd3a35e7f41c429e3240e2",
      "assetIds": []
    },
    {
      "x": 300,
      "y": 186,
      "size": 1,
      "price": "1011000000000000000000",
      "reserved": "",
      "salt": "0x076e76aeb4ecc899893b66e64a538449b350bcdd0b864288ddfebd4098b4f7c5",
      "assetIds": []
    },
    {
      "x": 300,
      "y": 187,
      "size": 1,
      "price": "1011000000000000000000",
      "reserved": "",
      "salt": "0x9811327aa7c0ad5defd2d6ca4fa7a68da68495bba39c4f3f8ca2236d0ef43e8d",
      "assetIds": []
    },
    {
      "x": 300,
      "y": 188,
      "size": 1,
      "price": "1011000000000000000000",
      "reserved": "",
      "salt": "0x36639798c3fcd85a7fd678f5d0440d74dc550b38bf55a95640fe6c80d81b04cc",
      "assetIds": []
    },
    {
      "x": 301,
      "y": 162,
      "size": 1,
      "price": "1011000000000000000000",
      "reserved": "",
      "salt": "0x1bc759f177a05b73a69f0d06d03de8249bf3186226e69f9644518094d23318af",
      "assetIds": []
    },
    {
      "x": 301,
      "y": 163,
      "size": 1,
      "price": "4683000000000000000000",
      "reserved": "",
      "salt": "0x5902ab48f484ee081c2d421a4a22ed53ebc4e545269dc22cc353e7b7560c45c7",
      "assetIds": [
        "55464657044963196816950587289035428064568320970692304673817341489687933519875",
        "55464657044963196816950587289035428064568320970692304673817341489687933519884",
        "55464657044963196816950587289035428064568320970692304673817341489687941879810",
        "55464657044963196816950587289035428064568320970692304673817341489687933519872",
        "55464657044963196816950587289035428064568320970692304673817341489687933519879",
        "55464657044963196816950587289035428064568320970692304673817341489687933519874"
      ]
    },
    {
      "x": 301,
      "y": 164,
      "size": 1,
      "price": "4683000000000000000000",
      "reserved": "",
      "salt": "0x4c2d74437fd16dbcd2d0e074759285b5c83939e3714d54e2f9ca468e3c426e34",
      "assetIds": [
        "55464657044963196816950587289035428064568320970692304673817341489687933519875",
        "55464657044963196816950587289035428064568320970692304673817341489687933519884",
        "55464657044963196816950587289035428064568320970692304673817341489687941879810",
        "55464657044963196816950587289035428064568320970692304673817341489687933519872",
        "55464657044963196816950587289035428064568320970692304673817341489687933519879",
        "55464657044963196816950587289035428064568320970692304673817341489687933519874"
      ]
    },
    {
      "x": 301,
      "y": 165,
      "size": 1,
      "price": "4683000000000000000000",
      "reserved": "",
      "salt": "0xd523ab5fd457f65e5a0979f1b59e9536bb83b8bbf1131f0e6c8873132145d1ab",
      "assetIds": [
        "55464657044963196816950587289035428064568320970692304673817341489687933519875",
        "55464657044963196816950587289035428064568320970692304673817341489687933519884",
        "55464657044963196816950587289035428064568320970692304673817341489687941879810",
        "55464657044963196816950587289035428064568320970692304673817341489687933519872",
        "55464657044963196816950587289035428064568320970692304673817341489687933519879",
        "55464657044963196816950587289035428064568320970692304673817341489687933519874"
      ]
    },
    {
      "x": 301,
      "y": 166,
      "size": 1,
      "price": "4683000000000000000000",
      "reserved": "",
      "salt": "0xe279b7688abc69cecf0166b56cf0e7086610d595c70bc027fda0f88a15cf0793",
      "assetIds": [
        "55464657044963196816950587289035428064568320970692304673817341489687933519875",
        "55464657044963196816950587289035428064568320970692304673817341489687933519884",
        "55464657044963196816950587289035428064568320970692304673817341489687941879810",
        "55464657044963196816950587289035428064568320970692304673817341489687933519872",
        "55464657044963196816950587289035428064568320970692304673817341489687933519879",
        "55464657044963196816950587289035428064568320970692304673817341489687933519874"
      ]
    },
    {
      "x": 301,
      "y": 167,
      "size": 1,
      "price": "4683000000000000000000",
      "reserved": "",
      "salt": "0xb497a56cbf411f063b6d2ca902d007fcede2074b87100da1cb164ebd39eace09",
      "assetIds": [
        "55464657044963196816950587289035428064568320970692304673817341489687933519875",
        "55464657044963196816950587289035428064568320970692304673817341489687933519884",
        "55464657044963196816950587289035428064568320970692304673817341489687941879810",
        "55464657044963196816950587289035428064568320970692304673817341489687933519872",
        "55464657044963196816950587289035428064568320970692304673817341489687933519879",
        "55464657044963196816950587289035428064568320970692304673817341489687933519874"
      ]
    },
    {
      "x": 301,
      "y": 171,
      "size": 1,
      "price": "4683000000000000000000",
      "reserved": "",
      "salt": "0x89b6be279129294a17f1467bde4a6b553148cd4c51566349042515c60d1cfb33",
      "assetIds": [
        "55464657044963196816950587289035428064568320970692304673817341489687933519875",
        "55464657044963196816950587289035428064568320970692304673817341489687933519884",
        "55464657044963196816950587289035428064568320970692304673817341489687941879810",
        "55464657044963196816950587289035428064568320970692304673817341489687933519872",
        "55464657044963196816950587289035428064568320970692304673817341489687933519879",
        "55464657044963196816950587289035428064568320970692304673817341489687933519874"
      ]
    },
    {
      "x": 301,
      "y": 172,
      "size": 1,
      "price": "4683000000000000000000",
      "reserved": "",
      "salt": "0x22d4dc58d3aae91eb4fee6fdfb2da13cccc21a4e34a2183371e38cf2a92bea08",
      "assetIds": [
        "55464657044963196816950587289035428064568320970692304673817341489687933519875",
        "55464657044963196816950587289035428064568320970692304673817341489687933519884",
        "55464657044963196816950587289035428064568320970692304673817341489687941879810",
        "55464657044963196816950587289035428064568320970692304673817341489687933519872",
        "55464657044963196816950587289035428064568320970692304673817341489687933519879",
        "55464657044963196816950587289035428064568320970692304673817341489687933519874"
      ]
    },
    {
      "x": 301,
      "y": 173,
      "size": 1,
      "price": "4683000000000000000000",
      "reserved": "",
      "salt": "0xd6ebba65dce26407b3c4fc70bf09a2739f56548b5814bcb81f4f5331e38da0a3",
      "assetIds": [
        "55464657044963196816950587289035428064568320970692304673817341489687933519875",
        "55464657044963196816950587289035428064568320970692304673817341489687933519884",
        "55464657044963196816950587289035428064568320970692304673817341489687941879810",
        "55464657044963196816950587289035428064568320970692304673817341489687933519872",
        "55464657044963196816950587289035428064568320970692304673817341489687933519879",
        "55464657044963196816950587289035428064568320970692304673817341489687933519874"
      ]
    },
    {
      "x": 301,
      "y": 174,
      "size": 1,
      "price": "4683000000000000000000",
      "reserved": "",
      "salt": "0xd1999bc169d6ed10e71885a8e062a0693ecf93a629443481c2a18b557845688c",
      "assetIds": [
        "55464657044963196816950587289035428064568320970692304673817341489687933519875",
        "55464657044963196816950587289035428064568320970692304673817341489687933519884",
        "55464657044963196816950587289035428064568320970692304673817341489687941879810",
        "55464657044963196816950587289035428064568320970692304673817341489687933519872",
        "55464657044963196816950587289035428064568320970692304673817341489687933519879",
        "55464657044963196816950587289035428064568320970692304673817341489687933519874"
      ]
    },
    {
      "x": 301,
      "y": 175,
      "size": 1,
      "price": "4683000000000000000000",
      "reserved": "",
      "salt": "0x73eb3f4225a4edcf39e315c617d67e83a077bde499fa743bb2f7245c8622606b",
      "assetIds": [
        "55464657044963196816950587289035428064568320970692304673817341489687933519875",
        "55464657044963196816950587289035428064568320970692304673817341489687933519884",
        "55464657044963196816950587289035428064568320970692304673817341489687941879810",
        "55464657044963196816950587289035428064568320970692304673817341489687933519872",
        "55464657044963196816950587289035428064568320970692304673817341489687933519879",
        "55464657044963196816950587289035428064568320970692304673817341489687933519874"
      ]
    },
    {
      "x": 301,
      "y": 176,
      "size": 1,
      "price": "1011000000000000000000",
      "reserved": "",
      "salt": "0xa0778f53378f2a72ef0dd46b8f9fddcea497c16f95a65f8f25b60a4c265a201c",
      "assetIds": []
    },
    {
      "x": 301,
      "y": 177,
      "size": 1,
      "price": "1011000000000000000000",
      "reserved": "",
      "salt": "0xd4a9e703f3cef226544c4ea321ac9e6dd9b9ce40ce826661baa681572e74ba7b",
      "assetIds": []
    },
    {
      "x": 301,
      "y": 178,
      "size": 1,
      "price": "1011000000000000000000",
      "reserved": "",
      "salt": "0xeb5ca5227fd115b5cc11b047958d1cb240b7064df5732d5f8bbdbaa3bea310bb",
      "assetIds": []
    },
    {
      "x": 301,
      "y": 179,
      "size": 1,
      "price": "1011000000000000000000",
      "reserved": "",
      "salt": "0xe4edd2d10be5d1d3f1377c90e7dd387308fcd4c84bd134aa99d710e2be11e399",
      "assetIds": []
    },
    {
      "x": 301,
      "y": 183,
      "size": 1,
      "price": "1011000000000000000000",
      "reserved": "",
      "salt": "0x4b3a1d6350172a94735698eb04d85a4e1d98f945fe395a0dcf74c9f72b0f0a96",
      "assetIds": []
    },
    {
      "x": 301,
      "y": 184,
      "size": 1,
      "price": "1011000000000000000000",
      "reserved": "",
      "salt": "0x5e5a77c7c2d515edd235d944ab79c9c4f3cdb1584db9c1614271c21061aa3a74",
      "assetIds": []
    },
    {
      "x": 301,
      "y": 185,
      "size": 1,
      "price": "1011000000000000000000",
      "reserved": "",
      "salt": "0x4fd05a377ba8187a017536d2377924eba172263d9a26dd9b813e8d4dc625030f",
      "assetIds": []
    },
    {
      "x": 301,
      "y": 186,
      "size": 1,
      "price": "1011000000000000000000",
      "reserved": "",
      "salt": "0xd60400309ffbdb3dbd94d5bb6d13699e98ac810e14dc6b7e28f5e1a80256918b",
      "assetIds": []
    },
    {
      "x": 301,
      "y": 187,
      "size": 1,
      "price": "1011000000000000000000",
      "reserved": "",
      "salt": "0x4f66f60a27e391099811c1314acdc0563d378f287b0088313d0ecc5f4ed2107c",
      "assetIds": []
    },
    {
      "x": 301,
      "y": 188,
      "size": 1,
      "price": "1011000000000000000000",
      "reserved": "",
      "salt": "0x18cbcb134ea85547ff41ff98a6a7b9484b919f37e9f8dc1bda87105259f82ccc",
      "assetIds": []
    },
    {
      "x": 302,
      "y": 162,
      "size": 1,
      "price": "1011000000000000000000",
      "reserved": "",
      "salt": "0x0b4e8a5a295cb89206614badd62e32f848f46e72d0f376d5b70148777488aab8",
      "assetIds": []
    },
    {
      "x": 302,
      "y": 163,
      "size": 1,
      "price": "4683000000000000000000",
      "reserved": "",
      "salt": "0xb0d5efa8115ccd604e2c3876070f55d04074aafc9698d89ddfb63c74a7b1c653",
      "assetIds": [
        "55464657044963196816950587289035428064568320970692304673817341489687933519875",
        "55464657044963196816950587289035428064568320970692304673817341489687933519884",
        "55464657044963196816950587289035428064568320970692304673817341489687941879810",
        "55464657044963196816950587289035428064568320970692304673817341489687933519872",
        "55464657044963196816950587289035428064568320970692304673817341489687933519879",
        "55464657044963196816950587289035428064568320970692304673817341489687933519874"
      ]
    },
    {
      "x": 302,
      "y": 164,
      "size": 1,
      "price": "4683000000000000000000",
      "reserved": "",
      "salt": "0xb662344922c01fc78d0ceef3ba43e90c885b93f854823cd89deb043efba7dc4c",
      "assetIds": [
        "55464657044963196816950587289035428064568320970692304673817341489687933519875",
        "55464657044963196816950587289035428064568320970692304673817341489687933519884",
        "55464657044963196816950587289035428064568320970692304673817341489687941879810",
        "55464657044963196816950587289035428064568320970692304673817341489687933519872",
        "55464657044963196816950587289035428064568320970692304673817341489687933519879",
        "55464657044963196816950587289035428064568320970692304673817341489687933519874"
      ]
    },
    {
      "x": 302,
      "y": 165,
      "size": 1,
      "price": "4683000000000000000000",
      "reserved": "",
      "salt": "0xb3a1428c16100a13d6b00d09164bd82824edfa6972127a46bca4f70ce55461c9",
      "assetIds": [
        "55464657044963196816950587289035428064568320970692304673817341489687933519875",
        "55464657044963196816950587289035428064568320970692304673817341489687933519884",
        "55464657044963196816950587289035428064568320970692304673817341489687941879810",
        "55464657044963196816950587289035428064568320970692304673817341489687933519872",
        "55464657044963196816950587289035428064568320970692304673817341489687933519879",
        "55464657044963196816950587289035428064568320970692304673817341489687933519874"
      ]
    },
    {
      "x": 302,
      "y": 166,
      "size": 1,
      "price": "4683000000000000000000",
      "reserved": "",
      "salt": "0xa0d23ebc59743cf499c1393d84e3bd62016c64a3309d6dcd468f9e42d78d77ce",
      "assetIds": [
        "55464657044963196816950587289035428064568320970692304673817341489687933519875",
        "55464657044963196816950587289035428064568320970692304673817341489687933519884",
        "55464657044963196816950587289035428064568320970692304673817341489687941879810",
        "55464657044963196816950587289035428064568320970692304673817341489687933519872",
        "55464657044963196816950587289035428064568320970692304673817341489687933519879",
        "55464657044963196816950587289035428064568320970692304673817341489687933519874"
      ]
    },
    {
      "x": 302,
      "y": 167,
      "size": 1,
      "price": "4683000000000000000000",
      "reserved": "",
      "salt": "0xb3045a0a7d27737909d9f41ca30bc9bf3a778683b0018aa635671c9648874a98",
      "assetIds": [
        "55464657044963196816950587289035428064568320970692304673817341489687933519875",
        "55464657044963196816950587289035428064568320970692304673817341489687933519884",
        "55464657044963196816950587289035428064568320970692304673817341489687941879810",
        "55464657044963196816950587289035428064568320970692304673817341489687933519872",
        "55464657044963196816950587289035428064568320970692304673817341489687933519879",
        "55464657044963196816950587289035428064568320970692304673817341489687933519874"
      ]
    },
    {
      "x": 302,
      "y": 171,
      "size": 1,
      "price": "4683000000000000000000",
      "reserved": "",
      "salt": "0xa8794a65d4576156fbc76016d69e857801c68024baec2cbf0640912121a0e6d6",
      "assetIds": [
        "55464657044963196816950587289035428064568320970692304673817341489687933519875",
        "55464657044963196816950587289035428064568320970692304673817341489687933519884",
        "55464657044963196816950587289035428064568320970692304673817341489687941879810",
        "55464657044963196816950587289035428064568320970692304673817341489687933519872",
        "55464657044963196816950587289035428064568320970692304673817341489687933519879",
        "55464657044963196816950587289035428064568320970692304673817341489687933519874"
      ]
    },
    {
      "x": 302,
      "y": 172,
      "size": 1,
      "price": "4683000000000000000000",
      "reserved": "",
      "salt": "0x4bb0a6d43a6b4c7df4c818c41aec56264447cca874fb06d144054b81d2c154be",
      "assetIds": [
        "55464657044963196816950587289035428064568320970692304673817341489687933519875",
        "55464657044963196816950587289035428064568320970692304673817341489687933519884",
        "55464657044963196816950587289035428064568320970692304673817341489687941879810",
        "55464657044963196816950587289035428064568320970692304673817341489687933519872",
        "55464657044963196816950587289035428064568320970692304673817341489687933519879",
        "55464657044963196816950587289035428064568320970692304673817341489687933519874"
      ]
    },
    {
      "x": 302,
      "y": 173,
      "size": 1,
      "price": "4683000000000000000000",
      "reserved": "",
      "salt": "0xb85225b14f048fa5f2e71c2b65bf56dfdf8fe2fd4319226ce84276d5300617fe",
      "assetIds": [
        "55464657044963196816950587289035428064568320970692304673817341489687933519875",
        "55464657044963196816950587289035428064568320970692304673817341489687933519884",
        "55464657044963196816950587289035428064568320970692304673817341489687941879810",
        "55464657044963196816950587289035428064568320970692304673817341489687933519872",
        "55464657044963196816950587289035428064568320970692304673817341489687933519879",
        "55464657044963196816950587289035428064568320970692304673817341489687933519874"
      ]
    },
    {
      "x": 302,
      "y": 174,
      "size": 1,
      "price": "4683000000000000000000",
      "reserved": "",
      "salt": "0xe894c3e5a0bdebef8c4f8eef39aa8fe74400368ef3b1edc9e9b8395d6e671bed",
      "assetIds": [
        "55464657044963196816950587289035428064568320970692304673817341489687933519875",
        "55464657044963196816950587289035428064568320970692304673817341489687933519884",
        "55464657044963196816950587289035428064568320970692304673817341489687941879810",
        "55464657044963196816950587289035428064568320970692304673817341489687933519872",
        "55464657044963196816950587289035428064568320970692304673817341489687933519879",
        "55464657044963196816950587289035428064568320970692304673817341489687933519874"
      ]
    },
    {
      "x": 302,
      "y": 175,
      "size": 1,
      "price": "4683000000000000000000",
      "reserved": "",
      "salt": "0x68b22fb0965cc560e1a9e5f6793b872584607e5a89c831954bca6c592296b807",
      "assetIds": [
        "55464657044963196816950587289035428064568320970692304673817341489687933519875",
        "55464657044963196816950587289035428064568320970692304673817341489687933519884",
        "55464657044963196816950587289035428064568320970692304673817341489687941879810",
        "55464657044963196816950587289035428064568320970692304673817341489687933519872",
        "55464657044963196816950587289035428064568320970692304673817341489687933519879",
        "55464657044963196816950587289035428064568320970692304673817341489687933519874"
      ]
    },
    {
      "x": 302,
      "y": 176,
      "size": 1,
      "price": "4683000000000000000000",
      "reserved": "",
      "salt": "0x9cd1f43a964cdfa811f51d38a6021df747f4780e1dd4ad8d598507ea589a48f7",
      "assetIds": [
        "55464657044963196816950587289035428064568320970692304673817341489687933519875",
        "55464657044963196816950587289035428064568320970692304673817341489687933519884",
        "55464657044963196816950587289035428064568320970692304673817341489687941879810",
        "55464657044963196816950587289035428064568320970692304673817341489687933519872",
        "55464657044963196816950587289035428064568320970692304673817341489687933519879",
        "55464657044963196816950587289035428064568320970692304673817341489687933519874"
      ]
    },
    {
      "x": 302,
      "y": 177,
      "size": 1,
      "price": "1011000000000000000000",
      "reserved": "",
      "salt": "0x4375c2864f1f3597b81eb9c7863f18c6730b0fb4432a78a83e2e99ef96125083",
      "assetIds": []
    },
    {
      "x": 302,
      "y": 178,
      "size": 1,
      "price": "1011000000000000000000",
      "reserved": "",
      "salt": "0x0139873e0179373aa0731279d4a614c40ab2b5bcb1ab2a4058d640d27491ad9a",
      "assetIds": []
    },
    {
      "x": 302,
      "y": 179,
      "size": 1,
      "price": "1011000000000000000000",
      "reserved": "",
      "salt": "0xb4155b0fdd52c8abe82a6a503c90a3fb889c58706a535b04ca55a36b82d82815",
      "assetIds": []
    },
    {
      "x": 302,
      "y": 183,
      "size": 1,
      "price": "1011000000000000000000",
      "reserved": "",
      "salt": "0x9950e22373ed43fba851498558ba33639c5b4a0ce85163b82af796fb5345a288",
      "assetIds": []
    },
    {
      "x": 302,
      "y": 184,
      "size": 1,
      "price": "1011000000000000000000",
      "reserved": "",
      "salt": "0x33d57e57578b4e2fee3bf96e83d406de21fc097b51655f6b821199d7bf1f7205",
      "assetIds": []
    },
    {
      "x": 302,
      "y": 185,
      "size": 1,
      "price": "1011000000000000000000",
      "reserved": "",
      "salt": "0x17445662f0a16681e621817c80db7ce60b30ab9e1c24cf4b1816e61c9df777f9",
      "assetIds": []
    },
    {
      "x": 302,
      "y": 186,
      "size": 1,
      "price": "1011000000000000000000",
      "reserved": "",
      "salt": "0x6c1c99a27b685c0a12b7014356648ac01ad17acf9e5076790a64d0bea1bd93c4",
      "assetIds": []
    },
    {
      "x": 302,
      "y": 187,
      "size": 1,
      "price": "1011000000000000000000",
      "reserved": "",
      "salt": "0xeff18932f2bca464fefb5b821336f8dfbf7920c5c4652e0a9ca905ad5ba62b14",
      "assetIds": []
    },
    {
      "x": 302,
      "y": 188,
      "size": 1,
      "price": "1011000000000000000000",
      "reserved": "",
      "salt": "0x906daa66a9338a32fbb68baffa9ddf081809655eb5a05b77ead307aeb75276f3",
      "assetIds": []
    },
    {
      "x": 303,
      "y": 162,
      "size": 1,
      "price": "1011000000000000000000",
      "reserved": "",
      "salt": "0x61bfd3dfc53fb931a5592f7a1615d765e6001befb94edc430ed1f10e9a88e3f0",
      "assetIds": []
    },
    {
      "x": 303,
      "y": 163,
      "size": 1,
      "price": "4683000000000000000000",
      "reserved": "",
      "salt": "0x78951faf0068d4fd9d4afa98940875af20e9265a68bf13ae395b9ccc7fd03b18",
      "assetIds": [
        "55464657044963196816950587289035428064568320970692304673817341489687933519875",
        "55464657044963196816950587289035428064568320970692304673817341489687933519884",
        "55464657044963196816950587289035428064568320970692304673817341489687941879810",
        "55464657044963196816950587289035428064568320970692304673817341489687933519872",
        "55464657044963196816950587289035428064568320970692304673817341489687933519879",
        "55464657044963196816950587289035428064568320970692304673817341489687933519874"
      ]
    },
    {
      "x": 303,
      "y": 164,
      "size": 1,
      "price": "4683000000000000000000",
      "reserved": "",
      "salt": "0xc5a5ac92e3d7570b107651576b716ec8a1c8c9e3fba1a1fe3777b915b3a020d9",
      "assetIds": [
        "55464657044963196816950587289035428064568320970692304673817341489687933519875",
        "55464657044963196816950587289035428064568320970692304673817341489687933519884",
        "55464657044963196816950587289035428064568320970692304673817341489687941879810",
        "55464657044963196816950587289035428064568320970692304673817341489687933519872",
        "55464657044963196816950587289035428064568320970692304673817341489687933519879",
        "55464657044963196816950587289035428064568320970692304673817341489687933519874"
      ]
    },
    {
      "x": 303,
      "y": 165,
      "size": 1,
      "price": "4683000000000000000000",
      "reserved": "",
      "salt": "0xf3773de8f9b729736fd30d060ffa0ae2e2849ac549197249ded6a3c966c918e4",
      "assetIds": [
        "55464657044963196816950587289035428064568320970692304673817341489687933519875",
        "55464657044963196816950587289035428064568320970692304673817341489687933519884",
        "55464657044963196816950587289035428064568320970692304673817341489687941879810",
        "55464657044963196816950587289035428064568320970692304673817341489687933519872",
        "55464657044963196816950587289035428064568320970692304673817341489687933519879",
        "55464657044963196816950587289035428064568320970692304673817341489687933519874"
      ]
    },
    {
      "x": 303,
      "y": 166,
      "size": 1,
      "price": "4683000000000000000000",
      "reserved": "",
      "salt": "0xe824857f78e88d5af613880dd138aa0eb4cf42d5a17f38c1cf39e3c1ae120c49",
      "assetIds": [
        "55464657044963196816950587289035428064568320970692304673817341489687933519875",
        "55464657044963196816950587289035428064568320970692304673817341489687933519884",
        "55464657044963196816950587289035428064568320970692304673817341489687941879810",
        "55464657044963196816950587289035428064568320970692304673817341489687933519872",
        "55464657044963196816950587289035428064568320970692304673817341489687933519879",
        "55464657044963196816950587289035428064568320970692304673817341489687933519874"
      ]
    },
    {
      "x": 303,
      "y": 167,
      "size": 1,
      "price": "4683000000000000000000",
      "reserved": "",
      "salt": "0x3d031a83e821e35208272c91bf084dea46fa0ee3088a188c35e7d128973a3c85",
      "assetIds": [
        "55464657044963196816950587289035428064568320970692304673817341489687933519875",
        "55464657044963196816950587289035428064568320970692304673817341489687933519884",
        "55464657044963196816950587289035428064568320970692304673817341489687941879810",
        "55464657044963196816950587289035428064568320970692304673817341489687933519872",
        "55464657044963196816950587289035428064568320970692304673817341489687933519879",
        "55464657044963196816950587289035428064568320970692304673817341489687933519874"
      ]
    },
    {
      "x": 303,
      "y": 168,
      "size": 1,
      "price": "4683000000000000000000",
      "reserved": "",
      "salt": "0x9a9cf4314975d5709414999e8198fe4a8db8a5bbd083b6aa0a9ccd7088f9d6aa",
      "assetIds": [
        "55464657044963196816950587289035428064568320970692304673817341489687933519875",
        "55464657044963196816950587289035428064568320970692304673817341489687933519884",
        "55464657044963196816950587289035428064568320970692304673817341489687941879810",
        "55464657044963196816950587289035428064568320970692304673817341489687933519872",
        "55464657044963196816950587289035428064568320970692304673817341489687933519879",
        "55464657044963196816950587289035428064568320970692304673817341489687933519874"
      ]
    },
    {
      "x": 303,
      "y": 169,
      "size": 1,
      "price": "4683000000000000000000",
      "reserved": "",
      "salt": "0xb07c5e295eae79e480a039da9d67aa297dd37ec8c0fc8e739bde17318a6236e2",
      "assetIds": [
        "55464657044963196816950587289035428064568320970692304673817341489687933519875",
        "55464657044963196816950587289035428064568320970692304673817341489687933519884",
        "55464657044963196816950587289035428064568320970692304673817341489687941879810",
        "55464657044963196816950587289035428064568320970692304673817341489687933519872",
        "55464657044963196816950587289035428064568320970692304673817341489687933519879",
        "55464657044963196816950587289035428064568320970692304673817341489687933519874"
      ]
    },
    {
      "x": 303,
      "y": 170,
      "size": 1,
      "price": "4683000000000000000000",
      "reserved": "",
      "salt": "0x5799c6ce5c3141fba5d066d7ee2525d673d4b067c2309d205b4f73cf66c44d89",
      "assetIds": [
        "55464657044963196816950587289035428064568320970692304673817341489687933519875",
        "55464657044963196816950587289035428064568320970692304673817341489687933519884",
        "55464657044963196816950587289035428064568320970692304673817341489687941879810",
        "55464657044963196816950587289035428064568320970692304673817341489687933519872",
        "55464657044963196816950587289035428064568320970692304673817341489687933519879",
        "55464657044963196816950587289035428064568320970692304673817341489687933519874"
      ]
    },
    {
      "x": 303,
      "y": 171,
      "size": 1,
      "price": "4683000000000000000000",
      "reserved": "",
      "salt": "0xb64f9d3206e46d599767ab1ff727161dd324b35b318a78cd691ee26b72cefedb",
      "assetIds": [
        "55464657044963196816950587289035428064568320970692304673817341489687933519875",
        "55464657044963196816950587289035428064568320970692304673817341489687933519884",
        "55464657044963196816950587289035428064568320970692304673817341489687941879810",
        "55464657044963196816950587289035428064568320970692304673817341489687933519872",
        "55464657044963196816950587289035428064568320970692304673817341489687933519879",
        "55464657044963196816950587289035428064568320970692304673817341489687933519874"
      ]
    },
    {
      "x": 303,
      "y": 172,
      "size": 1,
      "price": "4683000000000000000000",
      "reserved": "",
      "salt": "0x231d641a9e35ebdf25514dc93ce5a18125c37a542737cfaa090dc703bdc8f998",
      "assetIds": [
        "55464657044963196816950587289035428064568320970692304673817341489687933519875",
        "55464657044963196816950587289035428064568320970692304673817341489687933519884",
        "55464657044963196816950587289035428064568320970692304673817341489687941879810",
        "55464657044963196816950587289035428064568320970692304673817341489687933519872",
        "55464657044963196816950587289035428064568320970692304673817341489687933519879",
        "55464657044963196816950587289035428064568320970692304673817341489687933519874"
      ]
    },
    {
      "x": 303,
      "y": 173,
      "size": 1,
      "price": "4683000000000000000000",
      "reserved": "",
      "salt": "0x5bab722ac2ffa16e41054042cab8c28cb9aaca414e4d645932e70378a7a8ba01",
      "assetIds": [
        "55464657044963196816950587289035428064568320970692304673817341489687933519875",
        "55464657044963196816950587289035428064568320970692304673817341489687933519884",
        "55464657044963196816950587289035428064568320970692304673817341489687941879810",
        "55464657044963196816950587289035428064568320970692304673817341489687933519872",
        "55464657044963196816950587289035428064568320970692304673817341489687933519879",
        "55464657044963196816950587289035428064568320970692304673817341489687933519874"
      ]
    },
    {
      "x": 303,
      "y": 174,
      "size": 1,
      "price": "4683000000000000000000",
      "reserved": "",
      "salt": "0xed704424e96451723624a84a2739afb747e9aa02ddae2056fbacbae6456d278b",
      "assetIds": [
        "55464657044963196816950587289035428064568320970692304673817341489687933519875",
        "55464657044963196816950587289035428064568320970692304673817341489687933519884",
        "55464657044963196816950587289035428064568320970692304673817341489687941879810",
        "55464657044963196816950587289035428064568320970692304673817341489687933519872",
        "55464657044963196816950587289035428064568320970692304673817341489687933519879",
        "55464657044963196816950587289035428064568320970692304673817341489687933519874"
      ]
    },
    {
      "x": 303,
      "y": 175,
      "size": 1,
      "price": "4683000000000000000000",
      "reserved": "",
      "salt": "0x8be92aa3bbbff75bc397f84d1059ecc269546b3dada6481004aba7011c5232b8",
      "assetIds": [
        "55464657044963196816950587289035428064568320970692304673817341489687933519875",
        "55464657044963196816950587289035428064568320970692304673817341489687933519884",
        "55464657044963196816950587289035428064568320970692304673817341489687941879810",
        "55464657044963196816950587289035428064568320970692304673817341489687933519872",
        "55464657044963196816950587289035428064568320970692304673817341489687933519879",
        "55464657044963196816950587289035428064568320970692304673817341489687933519874"
      ]
    },
    {
      "x": 303,
      "y": 176,
      "size": 1,
      "price": "4683000000000000000000",
      "reserved": "",
      "salt": "0x4c8482e059cb9b5385754b8d8b525a1e8e7bf25eca3afeaaeee53da98fc1529e",
      "assetIds": [
        "55464657044963196816950587289035428064568320970692304673817341489687933519875",
        "55464657044963196816950587289035428064568320970692304673817341489687933519884",
        "55464657044963196816950587289035428064568320970692304673817341489687941879810",
        "55464657044963196816950587289035428064568320970692304673817341489687933519872",
        "55464657044963196816950587289035428064568320970692304673817341489687933519879",
        "55464657044963196816950587289035428064568320970692304673817341489687933519874"
      ]
    },
    {
      "x": 303,
      "y": 183,
      "size": 1,
      "price": "1011000000000000000000",
      "reserved": "",
      "salt": "0x333e398f817376b9f28f5734daedfaa2002a55f10154ab15cec94fa2ea14c1c2",
      "assetIds": []
    },
    {
      "x": 303,
      "y": 184,
      "size": 1,
      "price": "1011000000000000000000",
      "reserved": "",
      "salt": "0x7d25db9948bbaa6a856797a2b6228ec70f4b4e9132aacbe4f54e0dd8cdf46d79",
      "assetIds": []
    },
    {
      "x": 303,
      "y": 185,
      "size": 1,
      "price": "1011000000000000000000",
      "reserved": "",
      "salt": "0xcb3e533a0c0d49bf09c4a3ab69ebe94f6e3768407569a42d4cb5cd75b4cc9648",
      "assetIds": []
    },
    {
      "x": 303,
      "y": 186,
      "size": 1,
      "price": "1011000000000000000000",
      "reserved": "",
      "salt": "0x67b2d603a79deec20db749c399f2cf414ac170093e0825973471a7278c8652b9",
      "assetIds": []
    },
    {
      "x": 303,
      "y": 187,
      "size": 1,
      "price": "1011000000000000000000",
      "reserved": "",
      "salt": "0xf616b0a15ae77bb5fb75a2690eace6afc08d79817bc945ff3d5406c33a7ae5fa",
      "assetIds": []
    },
    {
      "x": 303,
      "y": 188,
      "size": 1,
      "price": "1011000000000000000000",
      "reserved": "",
      "salt": "0xa35e44a805742fe4c2c0190f7bedc10268eba43fc3433e32f89398966de10f55",
      "assetIds": []
    },
    {
      "x": 304,
      "y": 162,
      "size": 1,
      "price": "1011000000000000000000",
      "reserved": "",
      "salt": "0xc542043022e87c30c89c01e3e26e20b1c8c91a6a896af292b06564f4a3302e8b",
      "assetIds": []
    },
    {
      "x": 304,
      "y": 163,
      "size": 1,
      "price": "4683000000000000000000",
      "reserved": "",
      "salt": "0x876eeb2ee2563fa4792642e5739d250017f9169c0dc5b1008ee473b74a0bbdef",
      "assetIds": [
        "55464657044963196816950587289035428064568320970692304673817341489687933519875",
        "55464657044963196816950587289035428064568320970692304673817341489687933519884",
        "55464657044963196816950587289035428064568320970692304673817341489687941879810",
        "55464657044963196816950587289035428064568320970692304673817341489687933519872",
        "55464657044963196816950587289035428064568320970692304673817341489687933519879",
        "55464657044963196816950587289035428064568320970692304673817341489687933519874"
      ]
    },
    {
      "x": 304,
      "y": 164,
      "size": 1,
      "price": "4683000000000000000000",
      "reserved": "",
      "salt": "0x6c9a1c4ce8cc97b494672653e74b20cc3458b9c9f7d253bcfe89670e3c79cbe4",
      "assetIds": [
        "55464657044963196816950587289035428064568320970692304673817341489687933519875",
        "55464657044963196816950587289035428064568320970692304673817341489687933519884",
        "55464657044963196816950587289035428064568320970692304673817341489687941879810",
        "55464657044963196816950587289035428064568320970692304673817341489687933519872",
        "55464657044963196816950587289035428064568320970692304673817341489687933519879",
        "55464657044963196816950587289035428064568320970692304673817341489687933519874"
      ]
    },
    {
      "x": 304,
      "y": 165,
      "size": 1,
      "price": "4683000000000000000000",
      "reserved": "",
      "salt": "0x1f61f87fbc6ffeb4d18fa7f2b861c53029ac9b2b14f37d299ed2b1f476bd80ef",
      "assetIds": [
        "55464657044963196816950587289035428064568320970692304673817341489687933519875",
        "55464657044963196816950587289035428064568320970692304673817341489687933519884",
        "55464657044963196816950587289035428064568320970692304673817341489687941879810",
        "55464657044963196816950587289035428064568320970692304673817341489687933519872",
        "55464657044963196816950587289035428064568320970692304673817341489687933519879",
        "55464657044963196816950587289035428064568320970692304673817341489687933519874"
      ]
    },
    {
      "x": 304,
      "y": 166,
      "size": 1,
      "price": "4683000000000000000000",
      "reserved": "",
      "salt": "0x2832312780cc9e5f9fa612633b95e75e61f74b5f2246db02259c86a1b100b589",
      "assetIds": [
        "55464657044963196816950587289035428064568320970692304673817341489687933519875",
        "55464657044963196816950587289035428064568320970692304673817341489687933519884",
        "55464657044963196816950587289035428064568320970692304673817341489687941879810",
        "55464657044963196816950587289035428064568320970692304673817341489687933519872",
        "55464657044963196816950587289035428064568320970692304673817341489687933519879",
        "55464657044963196816950587289035428064568320970692304673817341489687933519874"
      ]
    },
    {
      "x": 304,
      "y": 167,
      "size": 1,
      "price": "4683000000000000000000",
      "reserved": "",
      "salt": "0xcc6f340df652011f708e4a7ec7fe25f706d33a01a92a6e421e122bb1b4ebd4af",
      "assetIds": [
        "55464657044963196816950587289035428064568320970692304673817341489687933519875",
        "55464657044963196816950587289035428064568320970692304673817341489687933519884",
        "55464657044963196816950587289035428064568320970692304673817341489687941879810",
        "55464657044963196816950587289035428064568320970692304673817341489687933519872",
        "55464657044963196816950587289035428064568320970692304673817341489687933519879",
        "55464657044963196816950587289035428064568320970692304673817341489687933519874"
      ]
    },
    {
      "x": 304,
      "y": 168,
      "size": 1,
      "price": "4683000000000000000000",
      "reserved": "",
      "salt": "0xbc5dad763417e753fe54e6cc972ed147b2af28fdccdbdb4eb9747abcb6ff165b",
      "assetIds": [
        "55464657044963196816950587289035428064568320970692304673817341489687933519875",
        "55464657044963196816950587289035428064568320970692304673817341489687933519884",
        "55464657044963196816950587289035428064568320970692304673817341489687941879810",
        "55464657044963196816950587289035428064568320970692304673817341489687933519872",
        "55464657044963196816950587289035428064568320970692304673817341489687933519879",
        "55464657044963196816950587289035428064568320970692304673817341489687933519874"
      ]
    },
    {
      "x": 304,
      "y": 169,
      "size": 1,
      "price": "4683000000000000000000",
      "reserved": "",
      "salt": "0xf8325f02696803e8513184ed0ead93ed589d0e32abbab5315af13f2dfb2337e6",
      "assetIds": [
        "55464657044963196816950587289035428064568320970692304673817341489687933519875",
        "55464657044963196816950587289035428064568320970692304673817341489687933519884",
        "55464657044963196816950587289035428064568320970692304673817341489687941879810",
        "55464657044963196816950587289035428064568320970692304673817341489687933519872",
        "55464657044963196816950587289035428064568320970692304673817341489687933519879",
        "55464657044963196816950587289035428064568320970692304673817341489687933519874"
      ]
    },
    {
      "x": 304,
      "y": 170,
      "size": 1,
      "price": "4683000000000000000000",
      "reserved": "",
      "salt": "0x17c000bd724075b047d5e7bab4800bea525738e96a1718b2246b8b6682d058c6",
      "assetIds": [
        "55464657044963196816950587289035428064568320970692304673817341489687933519875",
        "55464657044963196816950587289035428064568320970692304673817341489687933519884",
        "55464657044963196816950587289035428064568320970692304673817341489687941879810",
        "55464657044963196816950587289035428064568320970692304673817341489687933519872",
        "55464657044963196816950587289035428064568320970692304673817341489687933519879",
        "55464657044963196816950587289035428064568320970692304673817341489687933519874"
      ]
    },
    {
      "x": 304,
      "y": 171,
      "size": 1,
      "price": "4683000000000000000000",
      "reserved": "",
      "salt": "0x14ce498ab05120046feefc2e0e5a558e3abdc07df15ebe09cb59e972c0410b52",
      "assetIds": [
        "55464657044963196816950587289035428064568320970692304673817341489687933519875",
        "55464657044963196816950587289035428064568320970692304673817341489687933519884",
        "55464657044963196816950587289035428064568320970692304673817341489687941879810",
        "55464657044963196816950587289035428064568320970692304673817341489687933519872",
        "55464657044963196816950587289035428064568320970692304673817341489687933519879",
        "55464657044963196816950587289035428064568320970692304673817341489687933519874"
      ]
    },
    {
      "x": 304,
      "y": 172,
      "size": 1,
      "price": "4683000000000000000000",
      "reserved": "",
      "salt": "0x96a3cf87dd073b2813afae4a89759f312c6992da79cba5f7170e3bd4464a4cbe",
      "assetIds": [
        "55464657044963196816950587289035428064568320970692304673817341489687933519875",
        "55464657044963196816950587289035428064568320970692304673817341489687933519884",
        "55464657044963196816950587289035428064568320970692304673817341489687941879810",
        "55464657044963196816950587289035428064568320970692304673817341489687933519872",
        "55464657044963196816950587289035428064568320970692304673817341489687933519879",
        "55464657044963196816950587289035428064568320970692304673817341489687933519874"
      ]
    },
    {
      "x": 304,
      "y": 173,
      "size": 1,
      "price": "4683000000000000000000",
      "reserved": "",
      "salt": "0xac371be1a453a0d2466c6e168090870ea0d599f3c83994fc8d040840738ff7d6",
      "assetIds": [
        "55464657044963196816950587289035428064568320970692304673817341489687933519875",
        "55464657044963196816950587289035428064568320970692304673817341489687933519884",
        "55464657044963196816950587289035428064568320970692304673817341489687941879810",
        "55464657044963196816950587289035428064568320970692304673817341489687933519872",
        "55464657044963196816950587289035428064568320970692304673817341489687933519879",
        "55464657044963196816950587289035428064568320970692304673817341489687933519874"
      ]
    },
    {
      "x": 304,
      "y": 174,
      "size": 1,
      "price": "4683000000000000000000",
      "reserved": "",
      "salt": "0x7ff112708f37d874b117f5263c244b924215cdbc0c5953f027604b9a31539e45",
      "assetIds": [
        "55464657044963196816950587289035428064568320970692304673817341489687933519875",
        "55464657044963196816950587289035428064568320970692304673817341489687933519884",
        "55464657044963196816950587289035428064568320970692304673817341489687941879810",
        "55464657044963196816950587289035428064568320970692304673817341489687933519872",
        "55464657044963196816950587289035428064568320970692304673817341489687933519879",
        "55464657044963196816950587289035428064568320970692304673817341489687933519874"
      ]
    },
    {
      "x": 304,
      "y": 175,
      "size": 1,
      "price": "4683000000000000000000",
      "reserved": "",
      "salt": "0x3edc870dc52393e5a89d8b28d557a23713d2705fd2678d16939f51d171f44471",
      "assetIds": [
        "55464657044963196816950587289035428064568320970692304673817341489687933519875",
        "55464657044963196816950587289035428064568320970692304673817341489687933519884",
        "55464657044963196816950587289035428064568320970692304673817341489687941879810",
        "55464657044963196816950587289035428064568320970692304673817341489687933519872",
        "55464657044963196816950587289035428064568320970692304673817341489687933519879",
        "55464657044963196816950587289035428064568320970692304673817341489687933519874"
      ]
    },
    {
      "x": 304,
      "y": 176,
      "size": 1,
      "price": "1011000000000000000000",
      "reserved": "",
      "salt": "0x7cc58fec2d93d64730ac8a09efbfa3364d64088ad0607bb744c1390121f945f5",
      "assetIds": []
    },
    {
      "x": 304,
      "y": 183,
      "size": 1,
      "price": "1011000000000000000000",
      "reserved": "",
      "salt": "0x9157201a4b51786555c0f26d7afb628572743359cc454a16b32f47fa679c7f57",
      "assetIds": []
    },
    {
      "x": 304,
      "y": 184,
      "size": 1,
      "price": "1011000000000000000000",
      "reserved": "",
      "salt": "0x3a009640e6f0ba8e974ee59350cf92a9085606141def2df445517c16b262b22e",
      "assetIds": []
    },
    {
      "x": 304,
      "y": 185,
      "size": 1,
      "price": "1011000000000000000000",
      "reserved": "",
      "salt": "0x238139103e4a354293a3701396e8fe3e0e9a2e9e001372ffdce943368e5d8aa1",
      "assetIds": []
    },
    {
      "x": 304,
      "y": 186,
      "size": 1,
      "price": "1011000000000000000000",
      "reserved": "",
      "salt": "0x2471fe553d583fded5e8d18b3c996b0825699ba52e96576ec1d698b601b0577d",
      "assetIds": []
    },
    {
      "x": 304,
      "y": 187,
      "size": 1,
      "price": "1011000000000000000000",
      "reserved": "",
      "salt": "0x33ceadd33b13a95c0c85dbaf06741cc4b5130e11aa0474ad0b6f1b19c12709c0",
      "assetIds": []
    },
    {
      "x": 304,
      "y": 188,
      "size": 1,
      "price": "1011000000000000000000",
      "reserved": "",
      "salt": "0x0182fad186da96807a4dae4bc8910bef498a5d7a9c592623adbea38b46ede2fc",
      "assetIds": []
    },
    {
      "x": 305,
      "y": 162,
      "size": 1,
      "price": "1011000000000000000000",
      "reserved": "",
      "salt": "0xcff6e9ced493eca4ac8086a32ff91d1c7177624e0e0612d674fc4fe9f252a837",
      "assetIds": []
    },
    {
      "x": 305,
      "y": 163,
      "size": 1,
      "price": "4683000000000000000000",
      "reserved": "",
      "salt": "0xb54a0cc35abad79ba5e94b5298ff9845a9e284f3229e9dee0849d5b6265138bf",
      "assetIds": [
        "55464657044963196816950587289035428064568320970692304673817341489687933519875",
        "55464657044963196816950587289035428064568320970692304673817341489687933519884",
        "55464657044963196816950587289035428064568320970692304673817341489687941879810",
        "55464657044963196816950587289035428064568320970692304673817341489687933519872",
        "55464657044963196816950587289035428064568320970692304673817341489687933519879",
        "55464657044963196816950587289035428064568320970692304673817341489687933519874"
      ]
    },
    {
      "x": 305,
      "y": 164,
      "size": 1,
      "price": "4683000000000000000000",
      "reserved": "",
      "salt": "0xdb2e5171aff4e74e392f35452db558493adbfd5f772fb22090b073d952c663d0",
      "assetIds": [
        "55464657044963196816950587289035428064568320970692304673817341489687933519875",
        "55464657044963196816950587289035428064568320970692304673817341489687933519884",
        "55464657044963196816950587289035428064568320970692304673817341489687941879810",
        "55464657044963196816950587289035428064568320970692304673817341489687933519872",
        "55464657044963196816950587289035428064568320970692304673817341489687933519879",
        "55464657044963196816950587289035428064568320970692304673817341489687933519874"
      ]
    },
    {
      "x": 305,
      "y": 165,
      "size": 1,
      "price": "4683000000000000000000",
      "reserved": "",
      "salt": "0x69d0b479eed75b20d878839398659329520182a87e3ad322f6e9d33ea3c2828e",
      "assetIds": [
        "55464657044963196816950587289035428064568320970692304673817341489687933519875",
        "55464657044963196816950587289035428064568320970692304673817341489687933519884",
        "55464657044963196816950587289035428064568320970692304673817341489687941879810",
        "55464657044963196816950587289035428064568320970692304673817341489687933519872",
        "55464657044963196816950587289035428064568320970692304673817341489687933519879",
        "55464657044963196816950587289035428064568320970692304673817341489687933519874"
      ]
    },
    {
      "x": 305,
      "y": 166,
      "size": 1,
      "price": "4683000000000000000000",
      "reserved": "",
      "salt": "0xab67f0ce5f7892d79d298ca2c3550997ed363cff9c9abd15c953216e688ae161",
      "assetIds": [
        "55464657044963196816950587289035428064568320970692304673817341489687933519875",
        "55464657044963196816950587289035428064568320970692304673817341489687933519884",
        "55464657044963196816950587289035428064568320970692304673817341489687941879810",
        "55464657044963196816950587289035428064568320970692304673817341489687933519872",
        "55464657044963196816950587289035428064568320970692304673817341489687933519879",
        "55464657044963196816950587289035428064568320970692304673817341489687933519874"
      ]
    },
    {
      "x": 305,
      "y": 167,
      "size": 1,
      "price": "4683000000000000000000",
      "reserved": "",
      "salt": "0x1ececfcb4965293090a0a53c80cf481369c433bd8ab520fcb5c7d353572be52f",
      "assetIds": [
        "55464657044963196816950587289035428064568320970692304673817341489687933519875",
        "55464657044963196816950587289035428064568320970692304673817341489687933519884",
        "55464657044963196816950587289035428064568320970692304673817341489687941879810",
        "55464657044963196816950587289035428064568320970692304673817341489687933519872",
        "55464657044963196816950587289035428064568320970692304673817341489687933519879",
        "55464657044963196816950587289035428064568320970692304673817341489687933519874"
      ]
    },
    {
      "x": 305,
      "y": 168,
      "size": 1,
      "price": "4683000000000000000000",
      "reserved": "",
      "salt": "0x87de82e92796c7b912131c95abe4ee471230a2407426b355bbf2ceb27f3fc31d",
      "assetIds": [
        "55464657044963196816950587289035428064568320970692304673817341489687933519875",
        "55464657044963196816950587289035428064568320970692304673817341489687933519884",
        "55464657044963196816950587289035428064568320970692304673817341489687941879810",
        "55464657044963196816950587289035428064568320970692304673817341489687933519872",
        "55464657044963196816950587289035428064568320970692304673817341489687933519879",
        "55464657044963196816950587289035428064568320970692304673817341489687933519874"
      ]
    },
    {
      "x": 305,
      "y": 169,
      "size": 1,
      "price": "4683000000000000000000",
      "reserved": "",
      "salt": "0xfa88680f66cfe9843320731b5e6a67b49b714672c4c80725b401bf10141ef051",
      "assetIds": [
        "55464657044963196816950587289035428064568320970692304673817341489687933519875",
        "55464657044963196816950587289035428064568320970692304673817341489687933519884",
        "55464657044963196816950587289035428064568320970692304673817341489687941879810",
        "55464657044963196816950587289035428064568320970692304673817341489687933519872",
        "55464657044963196816950587289035428064568320970692304673817341489687933519879",
        "55464657044963196816950587289035428064568320970692304673817341489687933519874"
      ]
    },
    {
      "x": 305,
      "y": 170,
      "size": 1,
      "price": "4683000000000000000000",
      "reserved": "",
      "salt": "0xadefae886232b3b020dc9451fe34900611d0f80ca01ea5098416e934288910e8",
      "assetIds": [
        "55464657044963196816950587289035428064568320970692304673817341489687933519875",
        "55464657044963196816950587289035428064568320970692304673817341489687933519884",
        "55464657044963196816950587289035428064568320970692304673817341489687941879810",
        "55464657044963196816950587289035428064568320970692304673817341489687933519872",
        "55464657044963196816950587289035428064568320970692304673817341489687933519879",
        "55464657044963196816950587289035428064568320970692304673817341489687933519874"
      ]
    },
    {
      "x": 305,
      "y": 171,
      "size": 1,
      "price": "4683000000000000000000",
      "reserved": "",
      "salt": "0x3df13fce3cbf552524451372730196fe0358a992032e28babe5ce4fdc6da5ab0",
      "assetIds": [
        "55464657044963196816950587289035428064568320970692304673817341489687933519875",
        "55464657044963196816950587289035428064568320970692304673817341489687933519884",
        "55464657044963196816950587289035428064568320970692304673817341489687941879810",
        "55464657044963196816950587289035428064568320970692304673817341489687933519872",
        "55464657044963196816950587289035428064568320970692304673817341489687933519879",
        "55464657044963196816950587289035428064568320970692304673817341489687933519874"
      ]
    },
    {
      "x": 305,
      "y": 172,
      "size": 1,
      "price": "4683000000000000000000",
      "reserved": "",
      "salt": "0xeb81b5ffbb6a1fc29752bc43578e91bbd8ec5025ca49648167d1a1cb3c55d0e2",
      "assetIds": [
        "55464657044963196816950587289035428064568320970692304673817341489687933519875",
        "55464657044963196816950587289035428064568320970692304673817341489687933519884",
        "55464657044963196816950587289035428064568320970692304673817341489687941879810",
        "55464657044963196816950587289035428064568320970692304673817341489687933519872",
        "55464657044963196816950587289035428064568320970692304673817341489687933519879",
        "55464657044963196816950587289035428064568320970692304673817341489687933519874"
      ]
    },
    {
      "x": 305,
      "y": 173,
      "size": 1,
      "price": "4683000000000000000000",
      "reserved": "",
      "salt": "0xc5b079ab8ca74408f51792d993ab98ecf0c85d4fa8f1034e5f9a2e46bf08f7a9",
      "assetIds": [
        "55464657044963196816950587289035428064568320970692304673817341489687933519875",
        "55464657044963196816950587289035428064568320970692304673817341489687933519884",
        "55464657044963196816950587289035428064568320970692304673817341489687941879810",
        "55464657044963196816950587289035428064568320970692304673817341489687933519872",
        "55464657044963196816950587289035428064568320970692304673817341489687933519879",
        "55464657044963196816950587289035428064568320970692304673817341489687933519874"
      ]
    },
    {
      "x": 305,
      "y": 174,
      "size": 1,
      "price": "4683000000000000000000",
      "reserved": "",
      "salt": "0x849308aa08911e327d03618593c083b5a10c22911130b8c1cb8d53a3b2fb11d5",
      "assetIds": [
        "55464657044963196816950587289035428064568320970692304673817341489687933519875",
        "55464657044963196816950587289035428064568320970692304673817341489687933519884",
        "55464657044963196816950587289035428064568320970692304673817341489687941879810",
        "55464657044963196816950587289035428064568320970692304673817341489687933519872",
        "55464657044963196816950587289035428064568320970692304673817341489687933519879",
        "55464657044963196816950587289035428064568320970692304673817341489687933519874"
      ]
    },
    {
      "x": 305,
      "y": 175,
      "size": 1,
      "price": "4683000000000000000000",
      "reserved": "",
      "salt": "0x6aef584114e358fbc121cf2a6df0512b7e748d3a66a13aee3ad69706758d649b",
      "assetIds": [
        "55464657044963196816950587289035428064568320970692304673817341489687933519875",
        "55464657044963196816950587289035428064568320970692304673817341489687933519884",
        "55464657044963196816950587289035428064568320970692304673817341489687941879810",
        "55464657044963196816950587289035428064568320970692304673817341489687933519872",
        "55464657044963196816950587289035428064568320970692304673817341489687933519879",
        "55464657044963196816950587289035428064568320970692304673817341489687933519874"
      ]
    },
    {
      "x": 305,
      "y": 176,
      "size": 1,
      "price": "1011000000000000000000",
      "reserved": "",
      "salt": "0x3d6d916d0513f55b234efeaee1a16a4d9942842421169bb82a2c014727e94c1f",
      "assetIds": []
    },
    {
      "x": 305,
      "y": 183,
      "size": 1,
      "price": "1011000000000000000000",
      "reserved": "",
      "salt": "0x4d0e07d332dae10caf10a53bc204e5b2c6257326e8c86c42045d8428e159f727",
      "assetIds": []
    },
    {
      "x": 305,
      "y": 184,
      "size": 1,
      "price": "1011000000000000000000",
      "reserved": "",
      "salt": "0xa777e6ec61df525b98a33019629e64acd9b53e683b42d2eb869203700ac139ef",
      "assetIds": []
    },
    {
      "x": 305,
      "y": 185,
      "size": 1,
      "price": "1011000000000000000000",
      "reserved": "",
      "salt": "0x1b57a013900e95121ba3f784d2f2fbc57201f7dbff140f2c0c609ef2ae8c0a6b",
      "assetIds": []
    },
    {
      "x": 305,
      "y": 186,
      "size": 1,
      "price": "1011000000000000000000",
      "reserved": "",
      "salt": "0xf8135def92a4483614d1a1acf9af572af3e3ce9f3bf4f94606f6d63147c508aa",
      "assetIds": []
    },
    {
      "x": 305,
      "y": 187,
      "size": 1,
      "price": "1011000000000000000000",
      "reserved": "",
      "salt": "0x3159d6b23b73970ad49a0e55905280c7e4d160e860cfee37b439d0f54d31133c",
      "assetIds": []
    },
    {
      "x": 305,
      "y": 188,
      "size": 1,
      "price": "1011000000000000000000",
      "reserved": "",
      "salt": "0x30f2e6a24593477dbd925b29408825127bf6f561160ab53418a91213200c27df",
      "assetIds": []
    },
    {
      "x": 306,
      "y": 168,
      "size": 1,
      "price": "4683000000000000000000",
      "reserved": "",
      "salt": "0x376135b91f2255cee50668d5c2fef88e0231aa26c5f50f84cddcca10d6c62fd7",
      "assetIds": [
        "55464657044963196816950587289035428064568320970692304673817341489687933519875",
        "55464657044963196816950587289035428064568320970692304673817341489687933519884",
        "55464657044963196816950587289035428064568320970692304673817341489687941879810",
        "55464657044963196816950587289035428064568320970692304673817341489687933519872",
        "55464657044963196816950587289035428064568320970692304673817341489687933519879",
        "55464657044963196816950587289035428064568320970692304673817341489687933519874"
      ]
    },
    {
      "x": 306,
      "y": 169,
      "size": 1,
      "price": "4683000000000000000000",
      "reserved": "",
      "salt": "0x17576d1e241890d289b01b2c2a5b4ac3715d46d92c91d9b2e37c2a94aa8398df",
      "assetIds": [
        "55464657044963196816950587289035428064568320970692304673817341489687933519875",
        "55464657044963196816950587289035428064568320970692304673817341489687933519884",
        "55464657044963196816950587289035428064568320970692304673817341489687941879810",
        "55464657044963196816950587289035428064568320970692304673817341489687933519872",
        "55464657044963196816950587289035428064568320970692304673817341489687933519879",
        "55464657044963196816950587289035428064568320970692304673817341489687933519874"
      ]
    },
    {
      "x": 306,
      "y": 170,
      "size": 1,
      "price": "4683000000000000000000",
      "reserved": "",
      "salt": "0x7751793079c3266c93998673b7ab8080bf82c4ab128688fb70302fe76073d67c",
      "assetIds": [
        "55464657044963196816950587289035428064568320970692304673817341489687933519875",
        "55464657044963196816950587289035428064568320970692304673817341489687933519884",
        "55464657044963196816950587289035428064568320970692304673817341489687941879810",
        "55464657044963196816950587289035428064568320970692304673817341489687933519872",
        "55464657044963196816950587289035428064568320970692304673817341489687933519879",
        "55464657044963196816950587289035428064568320970692304673817341489687933519874"
      ]
    },
    {
      "x": 306,
      "y": 171,
      "size": 1,
      "price": "1011000000000000000000",
      "reserved": "",
      "salt": "0xeae4dfba13f050d80c7c6e3f55722ead9dcafa1225648731634e948cdaab155a",
      "assetIds": []
    },
    {
      "x": 306,
      "y": 172,
      "size": 1,
      "price": "1011000000000000000000",
      "reserved": "",
      "salt": "0xbc4708cf8ce83bacc721eac72a7ec3fc1ecb2cea077723c5f806d3b04e333ee5",
      "assetIds": []
    },
    {
      "x": 306,
      "y": 173,
      "size": 1,
      "price": "1011000000000000000000",
      "reserved": "",
      "salt": "0x08bf6a15d8e8e9dae74b05f79df67984f10dddf005ab749efbf9f734b087eccc",
      "assetIds": []
    },
    {
      "x": 306,
      "y": 174,
      "size": 1,
      "price": "1011000000000000000000",
      "reserved": "",
      "salt": "0xf473217372ef81ed1f21402964c1b69a87e1e02cdeaa7729e3138cb019413997",
      "assetIds": []
    },
    {
      "x": 306,
      "y": 175,
      "size": 1,
      "price": "1011000000000000000000",
      "reserved": "",
      "salt": "0xa5c5ebb2d840ab1df8742b77d72f26a3e73d7ee411afdc551b15d5a2e6b1aebb",
      "assetIds": []
    },
    {
      "x": 306,
      "y": 176,
      "size": 1,
      "price": "1011000000000000000000",
      "reserved": "",
      "salt": "0xc3af1bb355062e6f408ec4d8d8dadff2753aec2fc437cf872e4d3bcd149631d8",
      "assetIds": []
    },
    {
      "x": 306,
      "y": 177,
      "size": 1,
      "price": "1011000000000000000000",
      "reserved": "",
      "salt": "0x42438e4228875ee712c9877e84dbc1ada009e4ea4babf03e8c173aac48cb9dcc",
      "assetIds": []
    },
    {
      "x": 306,
      "y": 178,
      "size": 1,
      "price": "1011000000000000000000",
      "reserved": "",
      "salt": "0xd960ca0069675b79a702bb2c73d56fea091616d9a69a8847dcc8bbcc68a0fd84",
      "assetIds": []
    },
    {
      "x": 306,
      "y": 179,
      "size": 1,
      "price": "1011000000000000000000",
      "reserved": "",
      "salt": "0x3ac2c76a3e3c8c9d1f0303427cadd8145135037789e30ae4b4d250bb47e37b16",
      "assetIds": []
    },
    {
      "x": 306,
      "y": 186,
      "size": 1,
      "price": "1011000000000000000000",
      "reserved": "",
      "salt": "0xf11bc945155b47b15d43c9603b099cb97cc747d0f2bc88f7d7fd86c0df609376",
      "assetIds": []
    },
    {
      "x": 306,
      "y": 187,
      "size": 1,
      "price": "1011000000000000000000",
      "reserved": "",
      "salt": "0xb711e174b74abf5a68115abc33976e8515b8abb6b6f5b14b6a5fc7f0d79dd1ab",
      "assetIds": []
    },
    {
      "x": 306,
      "y": 188,
      "size": 1,
      "price": "1011000000000000000000",
      "reserved": "",
      "salt": "0xa53384994bb01af70baaf2429b6141580d984c1769123dcc8e60e55fe7b124d4",
      "assetIds": []
    },
    {
      "x": 307,
      "y": 168,
      "size": 1,
      "price": "4683000000000000000000",
      "reserved": "",
      "salt": "0x8d679d9c309d9df044b2db8e303530da4d99801a8af353f47db1402fbe575e89",
      "assetIds": [
        "55464657044963196816950587289035428064568320970692304673817341489687933519875",
        "55464657044963196816950587289035428064568320970692304673817341489687933519884",
        "55464657044963196816950587289035428064568320970692304673817341489687941879810",
        "55464657044963196816950587289035428064568320970692304673817341489687933519872",
        "55464657044963196816950587289035428064568320970692304673817341489687933519879",
        "55464657044963196816950587289035428064568320970692304673817341489687933519874"
      ]
    },
    {
      "x": 307,
      "y": 169,
      "size": 1,
      "price": "4683000000000000000000",
      "reserved": "",
      "salt": "0xb34f596189652b9bcd3d99854f7e4c994bdb3e7c3dea708c7c58d4d201b80f60",
      "assetIds": [
        "55464657044963196816950587289035428064568320970692304673817341489687933519875",
        "55464657044963196816950587289035428064568320970692304673817341489687933519884",
        "55464657044963196816950587289035428064568320970692304673817341489687941879810",
        "55464657044963196816950587289035428064568320970692304673817341489687933519872",
        "55464657044963196816950587289035428064568320970692304673817341489687933519879",
        "55464657044963196816950587289035428064568320970692304673817341489687933519874"
      ]
    },
    {
      "x": 307,
      "y": 170,
      "size": 1,
      "price": "4683000000000000000000",
      "reserved": "",
      "salt": "0xdbe7109ee115c1818e43186ea2da68f9c43572158f5b03d4c0d4af77f06ea1fb",
      "assetIds": [
        "55464657044963196816950587289035428064568320970692304673817341489687933519875",
        "55464657044963196816950587289035428064568320970692304673817341489687933519884",
        "55464657044963196816950587289035428064568320970692304673817341489687941879810",
        "55464657044963196816950587289035428064568320970692304673817341489687933519872",
        "55464657044963196816950587289035428064568320970692304673817341489687933519879",
        "55464657044963196816950587289035428064568320970692304673817341489687933519874"
      ]
    },
    {
      "x": 307,
      "y": 171,
      "size": 1,
      "price": "1011000000000000000000",
      "reserved": "",
      "salt": "0x9e8fbb60caac6cf58239e90f75373f5ce1f4e0943ab136623251a8fb85908d22",
      "assetIds": []
    },
    {
      "x": 307,
      "y": 172,
      "size": 1,
      "price": "1011000000000000000000",
      "reserved": "",
      "salt": "0xcee24e95d3186c9ebfc9f424a4f52260baad94212b4d349205f4d144447892fc",
      "assetIds": []
    },
    {
      "x": 307,
      "y": 173,
      "size": 1,
      "price": "1011000000000000000000",
      "reserved": "",
      "salt": "0xe3f1a7c6fbdd33dc22ab5ffa2fe8f1ccb7446098f9a841a290cdc9e5271791fb",
      "assetIds": []
    },
    {
      "x": 307,
      "y": 174,
      "size": 1,
      "price": "1011000000000000000000",
      "reserved": "",
      "salt": "0x9c7a22e309fa02547512be7b9897b01484ad5380bd858185d88de2934c0645f4",
      "assetIds": []
    },
    {
      "x": 307,
      "y": 175,
      "size": 1,
      "price": "1011000000000000000000",
      "reserved": "",
      "salt": "0xbd5381b2634962fede09df86fa887f9dd319a93b90c0e7617bf0d14350cca7d6",
      "assetIds": []
    },
    {
      "x": 307,
      "y": 176,
      "size": 1,
      "price": "1011000000000000000000",
      "reserved": "",
      "salt": "0xdc38422ad4eb289e1ebe12d2dd937151677962fe82fa4a533f3da56c77cfaea6",
      "assetIds": []
    },
    {
      "x": 307,
      "y": 177,
      "size": 1,
      "price": "1011000000000000000000",
      "reserved": "",
      "salt": "0x005611d068e5d6dc8ff37d5a94fbc491807edd5de5d6004bff9b8a7d61867ec0",
      "assetIds": []
    },
    {
      "x": 307,
      "y": 178,
      "size": 1,
      "price": "1011000000000000000000",
      "reserved": "",
      "salt": "0xf0d33fe330a8ef328fd092ff8bbc7d2ddf4f8c0951eeb1e1ddbbbcaa50833107",
      "assetIds": []
    },
    {
      "x": 307,
      "y": 179,
      "size": 1,
      "price": "1011000000000000000000",
      "reserved": "",
      "salt": "0x54695dda283bb7cc8fb4098e75dbac1a2c5bd859950d92957eb66a6eee692282",
      "assetIds": []
    },
    {
      "x": 307,
      "y": 186,
      "size": 1,
      "price": "1011000000000000000000",
      "reserved": "",
      "salt": "0xf10623ee681fd760e4c6968614aa1e5ff16595c47c6a07d31d0678c1de9305a6",
      "assetIds": []
    },
    {
      "x": 307,
      "y": 187,
      "size": 1,
      "price": "1011000000000000000000",
      "reserved": "",
      "salt": "0x43423e23f229b6910cf83e68b96769bca79a141d619cecbf37a61473cb860ed2",
      "assetIds": []
    },
    {
      "x": 307,
      "y": 188,
      "size": 1,
      "price": "1011000000000000000000",
      "reserved": "",
      "salt": "0xae879c1666d147fa05bbc166e204563330e35c733375788d0bc2687d1fbb5845",
      "assetIds": []
    },
    {
      "x": 308,
      "y": 168,
      "size": 1,
      "price": "4683000000000000000000",
      "reserved": "",
      "salt": "0x0beea9441763cf1831db8603af26cd52d56b511fd0cbca5a190cc956510e0fee",
      "assetIds": [
        "55464657044963196816950587289035428064568320970692304673817341489687933519875",
        "55464657044963196816950587289035428064568320970692304673817341489687933519884",
        "55464657044963196816950587289035428064568320970692304673817341489687941879810",
        "55464657044963196816950587289035428064568320970692304673817341489687933519872",
        "55464657044963196816950587289035428064568320970692304673817341489687933519879",
        "55464657044963196816950587289035428064568320970692304673817341489687933519874"
      ]
    },
    {
      "x": 308,
      "y": 169,
      "size": 1,
      "price": "1011000000000000000000",
      "reserved": "",
      "salt": "0x82a801520317a5f60b573c22032740ac4f977f5cf92fab48e33cef9f111d5c00",
      "assetIds": []
    },
    {
      "x": 308,
      "y": 170,
      "size": 1,
      "price": "4683000000000000000000",
      "reserved": "",
      "salt": "0xc4330e7fdf910651f78a52630a29c48bd6359b16bbace8a4e1cc9af954e44ebf",
      "assetIds": [
        "55464657044963196816950587289035428064568320970692304673817341489687933519875",
        "55464657044963196816950587289035428064568320970692304673817341489687933519884",
        "55464657044963196816950587289035428064568320970692304673817341489687941879810",
        "55464657044963196816950587289035428064568320970692304673817341489687933519872",
        "55464657044963196816950587289035428064568320970692304673817341489687933519879",
        "55464657044963196816950587289035428064568320970692304673817341489687933519874"
      ]
    },
    {
      "x": 308,
      "y": 171,
      "size": 1,
      "price": "1011000000000000000000",
      "reserved": "",
      "salt": "0x5a88d06e5238e61fa756f5ae798baf537264e517847cdeb1fa503f38ab1ae657",
      "assetIds": []
    },
    {
      "x": 308,
      "y": 172,
      "size": 1,
      "price": "1011000000000000000000",
      "reserved": "",
      "salt": "0x3582cf4b12518b0c1472e8bbe0d017ec427fbb45e628d752a4768d0563cc178f",
      "assetIds": []
    },
    {
      "x": 308,
      "y": 173,
      "size": 1,
      "price": "1011000000000000000000",
      "reserved": "",
      "salt": "0x7fa6151422773137e30f77aebca49ff71b39d6de8b25c716930b2dc90369e0fd",
      "assetIds": []
    },
    {
      "x": 308,
      "y": 174,
      "size": 1,
      "price": "1011000000000000000000",
      "reserved": "",
      "salt": "0xabdcce0647da9edfac29594fc3e1e2363fe8c6435fad4d5beab3438feea06d44",
      "assetIds": []
    },
    {
      "x": 308,
      "y": 175,
      "size": 1,
      "price": "1011000000000000000000",
      "reserved": "",
      "salt": "0xb3db76ee456d4776406568986cec181cd517f2d88208111c34c491f641fd9dcf",
      "assetIds": []
    },
    {
      "x": 308,
      "y": 176,
      "size": 1,
      "price": "1011000000000000000000",
      "reserved": "",
      "salt": "0x7e42e6848e5254f76fb7a01d1d2976df1947f62c807579ddefc0fbcc6d48f32a",
      "assetIds": []
    },
    {
      "x": 308,
      "y": 177,
      "size": 1,
      "price": "1011000000000000000000",
      "reserved": "",
      "salt": "0x42baa05034d8575356400fc63e1305d275b41331411075553a57c0937fd80b6d",
      "assetIds": []
    },
    {
      "x": 308,
      "y": 178,
      "size": 1,
      "price": "1011000000000000000000",
      "reserved": "",
      "salt": "0x128de8629536582d612204b45d70b599debe71e5d2ec9685229beb3d5afe4299",
      "assetIds": []
    },
    {
      "x": 308,
      "y": 179,
      "size": 1,
      "price": "1011000000000000000000",
      "reserved": "",
      "salt": "0x98e4b3f8694bad377080eaeb9f13d2333a5cf3956c85f9e325aad1462df7ad6b",
      "assetIds": []
    },
    {
      "x": 308,
      "y": 186,
      "size": 1,
      "price": "1011000000000000000000",
      "reserved": "",
      "salt": "0x7e8c35064c837eeff628bd0610788033e94ea416eec451486464056047d101ee",
      "assetIds": []
    },
    {
      "x": 308,
      "y": 187,
      "size": 1,
      "price": "1011000000000000000000",
      "reserved": "",
      "salt": "0xf4472df3866692f776d0a8a9110d99b570fbf94d2f65b073121b2020d37c2ffc",
      "assetIds": []
    },
    {
      "x": 308,
      "y": 188,
      "size": 1,
      "price": "1011000000000000000000",
      "reserved": "",
      "salt": "0xf22317da12bfdf01ef23593a33ea07ae88fe9447e32ea94a1549c83a70dd3e26",
      "assetIds": []
    },
    {
      "x": 309,
      "y": 168,
      "size": 1,
      "price": "4683000000000000000000",
      "reserved": "",
      "salt": "0x7c9cc68cd2f24358fa7460d6e9c96efe28b1393bf5bef4e261983fc644db9a1c",
      "assetIds": [
        "55464657044963196816950587289035428064568320970692304673817341489687933519875",
        "55464657044963196816950587289035428064568320970692304673817341489687933519884",
        "55464657044963196816950587289035428064568320970692304673817341489687941879810",
        "55464657044963196816950587289035428064568320970692304673817341489687933519872",
        "55464657044963196816950587289035428064568320970692304673817341489687933519879",
        "55464657044963196816950587289035428064568320970692304673817341489687933519874"
      ]
    },
    {
      "x": 309,
      "y": 169,
      "size": 1,
      "price": "1011000000000000000000",
      "reserved": "",
      "salt": "0x8d6ce1b65cc154aceeca003484929e6ea334e3be1785d81671db4f7f304c8a94",
      "assetIds": []
    },
    {
      "x": 309,
      "y": 170,
      "size": 1,
      "price": "1011000000000000000000",
      "reserved": "",
      "salt": "0x9d0d8b4e5d3f670323b6e377a986e748dbc0716378939695c2bc4e0412a53d18",
      "assetIds": []
    },
    {
      "x": 309,
      "y": 171,
      "size": 1,
      "price": "1011000000000000000000",
      "reserved": "",
      "salt": "0x8cad3336fdfa0da92c47c1711f339596df9ad7a438b8b01aa1fc7e8777b561a8",
      "assetIds": []
    },
    {
      "x": 309,
      "y": 172,
      "size": 1,
      "price": "1011000000000000000000",
      "reserved": "",
      "salt": "0xdf5c1f48c8ba0f5e48e13d7648dc8ea21338440ac13d36c58c566eee9c8115b6",
      "assetIds": []
    },
    {
      "x": 309,
      "y": 173,
      "size": 1,
      "price": "1011000000000000000000",
      "reserved": "",
      "salt": "0xf52b6990fec73dcada43750b24ac9281ba2d2b0061688988cd4b7312ec6079f3",
      "assetIds": []
    },
    {
      "x": 309,
      "y": 174,
      "size": 1,
      "price": "1011000000000000000000",
      "reserved": "",
      "salt": "0x2a9d372418c5e940320caf56b2024ba2aacf808b5a4fc1f204898c30d4046127",
      "assetIds": []
    },
    {
      "x": 309,
      "y": 175,
      "size": 1,
      "price": "1011000000000000000000",
      "reserved": "",
      "salt": "0x052f2be3a561557e1a08e3e3e11a724b0a8ffdac824b54560068ad56ab2b7a44",
      "assetIds": []
    },
    {
      "x": 309,
      "y": 176,
      "size": 1,
      "price": "1011000000000000000000",
      "reserved": "",
      "salt": "0x9c060b3afd6deeed2fbf8be36c177dd0ad201ed3ce90b3e8ccbee7d637cc2e7e",
      "assetIds": []
    },
    {
      "x": 309,
      "y": 177,
      "size": 1,
      "price": "1011000000000000000000",
      "reserved": "",
      "salt": "0xf7c45844bd8442c7989cef6d53328f447961913d9fe7b56e1e2a279f8ed1515b",
      "assetIds": []
    },
    {
      "x": 309,
      "y": 178,
      "size": 1,
      "price": "1011000000000000000000",
      "reserved": "",
      "salt": "0x4a98b9189dbdf450b3e6b42531488513478184978aeb7aab82304757b4265856",
      "assetIds": []
    },
    {
      "x": 309,
      "y": 179,
      "size": 1,
      "price": "1011000000000000000000",
      "reserved": "",
      "salt": "0x8208a715736bfc575c44fab8cd54029ef7ca2aa801775e49906c7622e774793d",
      "assetIds": []
    },
    {
      "x": 310,
      "y": 168,
      "size": 1,
      "price": "1011000000000000000000",
      "reserved": "",
      "salt": "0x4c3233df6921f109212cb32a53b623bec62b2c77aae4d188933a4730515f51d3",
      "assetIds": []
    },
    {
      "x": 310,
      "y": 169,
      "size": 1,
      "price": "1011000000000000000000",
      "reserved": "",
      "salt": "0x1671925cb4c89a7d5a81bbbb82878de3151de0af08cffd61d76a69e87b30fbbd",
      "assetIds": []
    },
    {
      "x": 310,
      "y": 170,
      "size": 1,
      "price": "1011000000000000000000",
      "reserved": "",
      "salt": "0x81cc318e1d502251bcd6c6182bcc2a219a6b196bf8cefbe6f43c458acbcccc08",
      "assetIds": []
    },
    {
      "x": 310,
      "y": 171,
      "size": 1,
      "price": "1011000000000000000000",
      "reserved": "",
      "salt": "0xfcb6599e3476e3c5c529bdc3018e2d19de0e023e717d23702e0cd775d9fcf84e",
      "assetIds": []
    },
    {
      "x": 310,
      "y": 172,
      "size": 1,
      "price": "1011000000000000000000",
      "reserved": "",
      "salt": "0x5158a6292f3d30bfccdebac49d4eb437300b71256116fee6ad049a387003d88c",
      "assetIds": []
    },
    {
      "x": 310,
      "y": 173,
      "size": 1,
      "price": "1011000000000000000000",
      "reserved": "",
      "salt": "0x84bb02a2b5546045c781311a40e4bcf96cf5b4fc891db2c55c5695d3e396687b",
      "assetIds": []
    },
    {
      "x": 310,
      "y": 174,
      "size": 1,
      "price": "1011000000000000000000",
      "reserved": "",
      "salt": "0x709f1ce03999a3603713257e5cb901170ac0ddaa701fa59361769bf31d43a3a2",
      "assetIds": []
    },
    {
      "x": 310,
      "y": 175,
      "size": 1,
      "price": "1011000000000000000000",
      "reserved": "",
      "salt": "0xb01fc5b6f72435620787eb715b882d523e2aa1f143d84722aadbdc95cd17282a",
      "assetIds": []
    },
    {
      "x": 310,
      "y": 176,
      "size": 1,
      "price": "1011000000000000000000",
      "reserved": "",
      "salt": "0xfd20841b5942f6c23189bfe474bb58e1cb76ccbfe1963745b7249249f9c33cd2",
      "assetIds": []
    },
    {
      "x": 310,
      "y": 177,
      "size": 1,
      "price": "1011000000000000000000",
      "reserved": "",
      "salt": "0x4c8c757e07137a69d57509a95529ff4159edceed57f66c9bd92025228e804627",
      "assetIds": []
    },
    {
      "x": 310,
      "y": 178,
      "size": 1,
      "price": "1011000000000000000000",
      "reserved": "",
      "salt": "0x8a75c4d3edfc05d6f53c45d2513192edd6fd2b463fbef5454cded623cf0260b0",
      "assetIds": []
    },
    {
      "x": 310,
      "y": 179,
      "size": 1,
      "price": "1011000000000000000000",
      "reserved": "",
      "salt": "0x83c5274d5e84d59fad3e3767259f3d6ba1f78bbe651069bc906a6016b6d0a77a",
      "assetIds": []
    },
    {
      "x": 311,
      "y": 168,
      "size": 1,
      "price": "1011000000000000000000",
      "reserved": "",
      "salt": "0xf8f4cbca63380adeeeb282a7d4f5937a24ada2a042594db6e1e7e1df3eccfe9a",
      "assetIds": []
    },
    {
      "x": 311,
      "y": 169,
      "size": 1,
      "price": "1011000000000000000000",
      "reserved": "",
      "salt": "0x1c68cc8c968dc2920129ad5f9724aba1fdc50e476672611b2ff487c464acd3d7",
      "assetIds": []
    },
    {
      "x": 311,
      "y": 170,
      "size": 1,
      "price": "1011000000000000000000",
      "reserved": "",
      "salt": "0x1812744ed2d1698f00b28599d7f322527cc5dc88d26e7387d2cd11fa8173d306",
      "assetIds": []
    },
    {
      "x": 311,
      "y": 171,
      "size": 1,
      "price": "1011000000000000000000",
      "reserved": "",
      "salt": "0xe37c6dd9d68acd18f87ac65a886aec87c907bbc580349e6dd128ec46485821f7",
      "assetIds": []
    },
    {
      "x": 311,
      "y": 172,
      "size": 1,
      "price": "1011000000000000000000",
      "reserved": "",
      "salt": "0xcccd4587871af1a582a22d3bae335cba25e61b151861ff1b3d73b508c7e0781b",
      "assetIds": []
    },
    {
      "x": 311,
      "y": 173,
      "size": 1,
      "price": "1011000000000000000000",
      "reserved": "",
      "salt": "0x2bccd8f3106951e2a185c8768e51e63f8de1d3884cc9834eee5def85c05c3ec0",
      "assetIds": []
    },
    {
      "x": 311,
      "y": 174,
      "size": 1,
      "price": "1011000000000000000000",
      "reserved": "",
      "salt": "0x10397eb8becb1658cf5f337ae16a3ed1fc152c0cfd0833dcff6981b576f45d99",
      "assetIds": []
    },
    {
      "x": 311,
      "y": 175,
      "size": 1,
      "price": "1011000000000000000000",
      "reserved": "",
      "salt": "0x9a9c3239362d6ff3d5e15fe4a6a1a29d0699620379ef45580d04cbba6bd90d76",
      "assetIds": []
    },
    {
      "x": 311,
      "y": 176,
      "size": 1,
      "price": "1011000000000000000000",
      "reserved": "",
      "salt": "0x5e7f925674fbb7d0692d88a8cbd18383d24c609cff9b7668dcd63ed9c86347e4",
      "assetIds": []
    },
    {
      "x": 311,
      "y": 177,
      "size": 1,
      "price": "1011000000000000000000",
      "reserved": "",
      "salt": "0x2a9e497a7e8887f8068c32abdd6061c911c5cac82f3b81e7d07c356d3ab88107",
      "assetIds": []
    },
    {
      "x": 311,
      "y": 178,
      "size": 1,
      "price": "1011000000000000000000",
      "reserved": "",
      "salt": "0x5357241a2d5c3fc074c5eef98454c79840c712dc7340c115fb7976a7cd7c19d7",
      "assetIds": []
    },
    {
      "x": 311,
      "y": 179,
      "size": 1,
      "price": "1011000000000000000000",
      "reserved": "",
      "salt": "0x6df52b2f22580e222b01d129c3eefb1aee0675b702747748b317f9012a39e005",
      "assetIds": []
    },
    {
      "x": 312,
      "y": 159,
      "size": 1,
      "price": "1011000000000000000000",
      "reserved": "",
      "salt": "0xfdcd46eef2226f361dc9403a22d081044b3a1c0cdcd5da9f6cb1f541ac695656",
      "assetIds": []
    },
    {
      "x": 312,
      "y": 160,
      "size": 1,
      "price": "1011000000000000000000",
      "reserved": "",
      "salt": "0x044fad40351c4a7f630ea278ba164fffed3931336f28d4b08b1de869ead19117",
      "assetIds": []
    },
    {
      "x": 312,
      "y": 161,
      "size": 1,
      "price": "1011000000000000000000",
      "reserved": "",
      "salt": "0x19d4cd1208a314b57bf172b9fe119bf47c4f4ce0227e7207347266fa298912a8",
      "assetIds": []
    },
    {
      "x": 312,
      "y": 162,
      "size": 1,
      "price": "1011000000000000000000",
      "reserved": "",
      "salt": "0xde4e5eae6e74c8966c327bfb915273a7a784f6916c4b9d755bc70d4fc8301bb6",
      "assetIds": []
    },
    {
      "x": 312,
      "y": 163,
      "size": 1,
      "price": "1011000000000000000000",
      "reserved": "",
      "salt": "0x7061662cc4b95125e33e4cfdd688b133f12213472d3eeb3f8b64dcbec94ceef2",
      "assetIds": []
    },
    {
      "x": 312,
      "y": 164,
      "size": 1,
      "price": "1011000000000000000000",
      "reserved": "",
      "salt": "0x26b5b031f1930d1f9acbc89c3fc0a65b4d6179da1e7c251f4615f75976d020b2",
      "assetIds": []
    },
    {
      "x": 312,
      "y": 177,
      "size": 1,
      "price": "1011000000000000000000",
      "reserved": "",
      "salt": "0x37f7b56d5d9faf6f3e7ce04c37c2b52aeb885a72876b07116077f39e3d76af88",
      "assetIds": []
    },
    {
      "x": 312,
      "y": 178,
      "size": 1,
      "price": "1011000000000000000000",
      "reserved": "",
      "salt": "0x7652e97a011534c41ff227c80c0031420332c08f062974bc2128f50d40f50443",
      "assetIds": []
    },
    {
      "x": 312,
      "y": 179,
      "size": 1,
      "price": "1011000000000000000000",
      "reserved": "",
      "salt": "0xa9e6cae8959c812ee5f10e318f2ec74a3cc12fd04c9965d00235a9e924472ce4",
      "assetIds": []
    },
    {
      "x": 313,
      "y": 159,
      "size": 1,
      "price": "1011000000000000000000",
      "reserved": "",
      "salt": "0xb3d87e1e3829e7946abec67f559b19dcf8deb5008d8df8f97e9e13f088a017af",
      "assetIds": []
    },
    {
      "x": 313,
      "y": 160,
      "size": 1,
      "price": "1011000000000000000000",
      "reserved": "",
      "salt": "0xa5beecdf241fda44844019b447d045f33afc6b8e772cb7bf14cd8c3529fd08d4",
      "assetIds": []
    },
    {
      "x": 313,
      "y": 161,
      "size": 1,
      "price": "1011000000000000000000",
      "reserved": "",
      "salt": "0x7d5e9ef18b526df7c284da5db14b0184032cf8f642dbef8679e14ddbf5217827",
      "assetIds": []
    },
    {
      "x": 313,
      "y": 162,
      "size": 1,
      "price": "1011000000000000000000",
      "reserved": "",
      "salt": "0x5ccd91dd39b2ee8f87ad1c82c47b942b9712a1b7d2ae3ce5e8f477427d117f03",
      "assetIds": []
    },
    {
      "x": 313,
      "y": 163,
      "size": 1,
      "price": "1011000000000000000000",
      "reserved": "",
      "salt": "0x89e6569150d36c4c83d36ccad30b8575677584a519d186955cac8eadcd5e73d8",
      "assetIds": []
    },
    {
      "x": 313,
      "y": 164,
      "size": 1,
      "price": "1011000000000000000000",
      "reserved": "",
      "salt": "0xfeb4d5c76b026b38b16cfefb87862d9f07c780590c4ece6a8b0134caa319aa32",
      "assetIds": []
    },
    {
      "x": 313,
      "y": 177,
      "size": 1,
      "price": "1011000000000000000000",
      "reserved": "",
      "salt": "0x6b812cd3b09ed145d4f0a3ec2205839adbbecbaf689964b427e9806e3ecd442f",
      "assetIds": []
    },
    {
      "x": 313,
      "y": 178,
      "size": 1,
      "price": "1011000000000000000000",
      "reserved": "",
      "salt": "0xc790e9680bd5385011d0ce0f41166e5ac3e8b51449205308d9b175830dd8d9fe",
      "assetIds": []
    },
    {
      "x": 313,
      "y": 179,
      "size": 1,
      "price": "1011000000000000000000",
      "reserved": "",
      "salt": "0xfe137f33371bc214d004eceeed9594eafa27c03710ccfaa1245856c4f6a28229",
      "assetIds": []
    },
    {
      "x": 314,
      "y": 159,
      "size": 1,
      "price": "1011000000000000000000",
      "reserved": "",
      "salt": "0xabfa0c2bc482669e8f4b5526eee48bf473c06010f31194382f665da6975d9234",
      "assetIds": []
    },
    {
      "x": 314,
      "y": 160,
      "size": 1,
      "price": "1011000000000000000000",
      "reserved": "",
      "salt": "0x01a969b011a67739f51e75e425e0bc41c383f1967dec2ff28ebd48a368cd5c4a",
      "assetIds": []
    },
    {
      "x": 314,
      "y": 161,
      "size": 1,
      "price": "1011000000000000000000",
      "reserved": "",
      "salt": "0x12b29ffbf56c19fce43cd723b9f5540eac716ffedc8d2007fa6edb9214319e9b",
      "assetIds": []
    },
    {
      "x": 314,
      "y": 162,
      "size": 1,
      "price": "1011000000000000000000",
      "reserved": "",
      "salt": "0x7d03f41c3cc583d6b27dc02ae64344b36aa305c9e753b74f1daf4f6f645d1288",
      "assetIds": []
    },
    {
      "x": 314,
      "y": 163,
      "size": 1,
      "price": "1011000000000000000000",
      "reserved": "",
      "salt": "0x1772b2a058500bc6a25afbc2fa470a08d3ea38e348792bece09026bbe6b25e99",
      "assetIds": []
    },
    {
      "x": 314,
      "y": 164,
      "size": 1,
      "price": "1011000000000000000000",
      "reserved": "",
      "salt": "0x2d1afdc88d5195240cb2430f30f70c8540918213fd2b70060be7d4d9e5dd02d4",
      "assetIds": []
    },
    {
      "x": 314,
      "y": 177,
      "size": 1,
      "price": "1011000000000000000000",
      "reserved": "",
      "salt": "0x2fe8eae8797d5350a19c6a8af04b51148177924b5f3a962b00507efd605323c8",
      "assetIds": []
    },
    {
      "x": 314,
      "y": 178,
      "size": 1,
      "price": "1011000000000000000000",
      "reserved": "",
      "salt": "0x1f71fe0459124726899b4dbc57cebf4e9c49825f49cc87a7310108fcecd06dd1",
      "assetIds": []
    },
    {
      "x": 314,
      "y": 179,
      "size": 1,
      "price": "1011000000000000000000",
      "reserved": "",
      "salt": "0xfde22a515ca8326fc54728e47f0bf1d1254b2c66af270c7e370aaf6543cf282a",
      "assetIds": []
    },
    {
      "x": 315,
      "y": 162,
      "size": 1,
      "price": "1011000000000000000000",
      "reserved": "",
      "salt": "0x0c24ff5d38dedf2abc0ef29c7b8dbe4465e55bcb8189cf3bf18535b6a78858dc",
      "assetIds": []
    },
    {
      "x": 315,
      "y": 163,
      "size": 1,
      "price": "1011000000000000000000",
      "reserved": "",
      "salt": "0x2749ec0a56aaa58b577a53e37416f2bf7774a7b2f8bc6a514815d910c0372f7f",
      "assetIds": []
    },
    {
      "x": 315,
      "y": 164,
      "size": 1,
      "price": "1011000000000000000000",
      "reserved": "",
      "salt": "0xefb541a0c87f6bf4f52c4601d35d3cbe666e1ba7ba72d159f2ccbc5bd9c8c2e9",
      "assetIds": []
    },
    {
      "x": 315,
      "y": 165,
      "size": 1,
      "price": "1011000000000000000000",
      "reserved": "",
      "salt": "0x55b7f3185a7042d8704b3211308792bf42e35d381a479308216d5be26e4bdb73",
      "assetIds": []
    },
    {
      "x": 315,
      "y": 166,
      "size": 1,
      "price": "1011000000000000000000",
      "reserved": "",
      "salt": "0xd099a2de6e01e930a8c5852b8a9579293e50964968cb8ff983ecaba6ef992f83",
      "assetIds": []
    },
    {
      "x": 315,
      "y": 167,
      "size": 1,
      "price": "1011000000000000000000",
      "reserved": "",
      "salt": "0x69672f9741cd6cf4f52ead8250a75d928b9f85d8246f55a1364c88f1fcec59bb",
      "assetIds": []
    },
    {
      "x": 316,
      "y": 162,
      "size": 1,
      "price": "1011000000000000000000",
      "reserved": "",
      "salt": "0x082721022408ce6da260db96d3ac5d532087fa5d08eb6c49d0403dcc951c5a65",
      "assetIds": []
    },
    {
      "x": 316,
      "y": 163,
      "size": 1,
      "price": "1011000000000000000000",
      "reserved": "",
      "salt": "0xaeb6843c222eb3302035923f323e54575ac61c74359c9c6e593e0802aa6f0719",
      "assetIds": []
    },
    {
      "x": 316,
      "y": 164,
      "size": 1,
      "price": "1011000000000000000000",
      "reserved": "",
      "salt": "0xd3ace6b0a45eba4068f1d713483d0eadd2aa5140b73ca1ceb7ad50ad5f5ba0cc",
      "assetIds": []
    },
    {
      "x": 316,
      "y": 165,
      "size": 1,
      "price": "1011000000000000000000",
      "reserved": "",
      "salt": "0xc0a25d844d7dc3157ac4253853a5b3d4a90a00661b6e229b8ad8645b99175224",
      "assetIds": []
    },
    {
      "x": 316,
      "y": 166,
      "size": 1,
      "price": "1011000000000000000000",
      "reserved": "",
      "salt": "0x691d15bf4fe8d7eeb2de8ec4a1831dff9a8a21556f432c4398da1597d8605dbb",
      "assetIds": []
    },
    {
      "x": 316,
      "y": 167,
      "size": 1,
      "price": "1011000000000000000000",
      "reserved": "",
      "salt": "0x687ecd5b287e08714fe52bdf2cffc11b79f7f806316da1983020b1e134bac7f5",
      "assetIds": []
    },
    {
      "x": 317,
      "y": 162,
      "size": 1,
      "price": "1011000000000000000000",
      "reserved": "",
      "salt": "0x464c147f0241653cce1c84346aab756ad31f2e23b50c8de9c883a859c017bc44",
      "assetIds": []
    },
    {
      "x": 317,
      "y": 163,
      "size": 1,
      "price": "1011000000000000000000",
      "reserved": "",
      "salt": "0x925d335119fbee8f79103e036a6d1bbd62e80de968cf8e09ba124d66ab607fac",
      "assetIds": []
    },
    {
      "x": 317,
      "y": 164,
      "size": 1,
      "price": "1011000000000000000000",
      "reserved": "",
      "salt": "0x122738f0bf4ba5e5688b6e717ccf9a7a6cf3e7a4aa93cae56948c67a47a88448",
      "assetIds": []
    },
    {
      "x": 317,
      "y": 165,
      "size": 1,
      "price": "1011000000000000000000",
      "reserved": "",
      "salt": "0xde99b44bf7307bcdfedc6b77c1f2439a8b9e66c903dcb5bd31ffea96718d1eba",
      "assetIds": []
    },
    {
      "x": 317,
      "y": 166,
      "size": 1,
      "price": "1011000000000000000000",
      "reserved": "",
      "salt": "0x63cad7d9b5b4792dc7c9ed8cd4abb3c0cde6f807cfa414db2a96f15ad20437b0",
      "assetIds": []
    },
    {
      "x": 317,
      "y": 167,
      "size": 1,
      "price": "1011000000000000000000",
      "reserved": "",
      "salt": "0x8182305612a6775707a918380394f6a1c55de2b5a1056c3ac86d1fecfb1b03c9",
      "assetIds": []
    },
    {
      "x": 291,
      "y": 180,
      "size": 3,
      "price": "8648000000000000000000",
      "reserved": "0x7a9fe22691c811ea339d9b73150e6911a5343dca",
      "salt": "0x3ea0327b474e751cf12b388f53513dd1545570eb9fea89212647726e3c5ba238",
      "assetIds": []
    },
    {
      "x": 300,
      "y": 168,
      "size": 3,
      "price": "8648000000000000000000",
      "reserved": "0x7a9fe22691c811ea339d9b73150e6911a5343dca",
      "salt": "0xfa203ddedbb8f24b138f5b67a4c83c7dbb9d89f2722b08c4f919f5fe9fa749ff",
      "assetIds": []
    },
    {
      "x": 300,
      "y": 180,
      "size": 3,
      "price": "8648000000000000000000",
      "reserved": "0x7a9fe22691c811ea339d9b73150e6911a5343dca",
      "salt": "0x92587c4184cd096f9566b50a6be5dc03fc642f0cb5f8e9d2ffac695b59c54c0e",
      "assetIds": []
    },
    {
      "x": 303,
      "y": 177,
      "size": 3,
      "price": "8648000000000000000000",
      "reserved": "0x7a9fe22691c811ea339d9b73150e6911a5343dca",
      "salt": "0x3bbdbbc44bb2b3055859daefe3dc6a2c22167f8f1c60776ebdfb8462ba3faadd",
      "assetIds": []
    },
    {
      "x": 303,
      "y": 180,
      "size": 3,
      "price": "8648000000000000000000",
      "reserved": "0x7a9fe22691c811ea339d9b73150e6911a5343dca",
      "salt": "0xd8d907934a99400000cdcffd9cc3eef353c45ef834fe8aa94440c7d9539243d6",
      "assetIds": []
    },
    {
      "x": 312,
      "y": 165,
      "size": 3,
      "price": "8648000000000000000000",
      "reserved": "0x7a9fe22691c811ea339d9b73150e6911a5343dca",
      "salt": "0x986ca1a0cc684eae47b5cd80ab89de969a6985322d43c5780c7f9a735ab2478f",
      "assetIds": []
    },
    {
      "x": 312,
      "y": 168,
      "size": 3,
      "price": "8648000000000000000000",
      "reserved": "0x7a9fe22691c811ea339d9b73150e6911a5343dca",
      "salt": "0x4fb32e419b7dfbc770e7c3eb89e1dc79e628d7a358385654184cc94c9a9173a8",
      "assetIds": []
    },
    {
      "x": 294,
      "y": 168,
      "size": 6,
      "price": "32772000000000000000000",
      "reserved": "0x7a9fe22691c811ea339d9b73150e6911a5343dca",
      "salt": "0x5b41359ab9921d194ea934df3fdcde23046d819718e561784ac04cac6dfde59d",
      "assetIds": []
    },
    {
      "x": 306,
      "y": 162,
      "size": 6,
      "price": "32772000000000000000000",
      "reserved": "0x7a9fe22691c811ea339d9b73150e6911a5343dca",
      "salt": "0xb9eb6d7e5e0cad9d92b381e00e3f553d2dc8659ca15e2ed669324f87c52164d3",
      "assetIds": []
    },
    {
      "x": 306,
      "y": 180,
      "size": 6,
      "price": "32772000000000000000000",
      "reserved": "0x7a9fe22691c811ea339d9b73150e6911a5343dca",
      "salt": "0x72d1301ea79b4fd3b8633007121ddf3b378b3b6f54868ec91a50f8f5f45429b9",
      "assetIds": []
    },
    {
      "x": 156,
      "y": 156,
      "size": 12,
      "price": "123806000000000000000000",
      "reserved": "0x7a9fe22691c811ea339d9b73150e6911a5343dca",
      "salt": "0x13ec730c8b64d0c6a280c4f8e940b1c63cef6e7734eca64ed886b34b1e76ebc0",
      "assetIds": []
    }
  ],
  "solcInputHash": "ea3f750ed6a3f377b8756d8b7b11eedf",
  "bytecode": "0x610160604052620d2f006005556103e860075534801561001e57600080fd5b5060405161242e38038061242e833981810160405261018081101561004257600080fd5b50805160208201516040830151606080850151608086015160a08088015160c0808a015160e08b01516101008c01516101208d01516101408e0151610160909e0151600280546001600160a01b0319166001600160a01b03861617905560038390558d8b1b6001600160601b0319908116909852998c901b909616909352999a9899979895979496929590949391926100dc8a600161014a565b600680546001600160a01b03199081166001600160a01b039a8b1617909155610140979097526101209590955260008054909616979096169690961790935550606093841b6001600160601b031990811660e05292841b831660805290921b1661010052506101ae92505050565b6001600160a01b038216600081815260016020908152604091829020805460ff191685151590811790915582519384529083015280517fb21eb88b4e33b3f1281830a7178d74d8aa73220416215726b68ae23d539515cb9281900390910190a15050565b60805160601c60a05160601c60c05160601c60e05160601c6101005160601c61012051610140516121fb610233600039806109375280611d44525080610913528061139a525080611da45250806115d252806116f4525080610c50528061159c5280611dd852508061166152806116c5525080610dfa528061190852506121fb6000f3fe608060405234801561001057600080fd5b50600436106101515760003560e01c8063984d6252116100cd578063dc5074af11610081578063ecb255b511610066578063ecb255b514610857578063f23a6e6114610874578063f2e7b3811461090957610151565b8063dc5074af14610814578063e56f8a9e1461083a57610151565b8063bc197c81116100b2578063bc197c81146105d3578063c10a420814610735578063caed35001461080c57610151565b8063984d6252146104db578063b522ecff146105ad57610151565b80636e9960c3116101245780638a04af6a116101095780638a04af6a1461032a5780638a12b82f146103585780638f283970146104b557610151565b80636e9960c3146102fe57806377f1c3ac1461032257610151565b806325cb5bc014610156578063495906571461017057806358bc29441461017857806365194ce7146101a0575b600080fd5b61015e610911565b60408051918252519081900360200190f35b61015e610935565b61019e6004803603602081101561018e57600080fd5b50356001600160a01b0316610959565b005b610246600480360360208110156101b657600080fd5b8101906020810181356401000000008111156101d157600080fd5b8201836020820111156101e357600080fd5b8035906020019184600183028401116401000000008311171561020557600080fd5b91908080601f016020809104026020016040519081016040528093929190818152602001838380828437600092019190915250929550610a04945050505050565b6040518080602001866001600160a01b03166001600160a01b03168152602001856001600160a01b03166001600160a01b03168152602001848152602001838152602001828103825287818151815260200191508051906020019080838360005b838110156102bf5781810151838201526020016102a7565b50505050905090810190601f1680156102ec5780820380516001836020036101000a031916815260200191505b50965050505050505060405180910390f35b610306610b09565b604080516001600160a01b039092168252519081900360200190f35b61015e610b18565b61019e6004803603604081101561034057600080fd5b506001600160a01b0381351690602001351515610b1e565b61019e600480360361018081101561036f57600080fd5b6001600160a01b038235811692602081013582169260408201359092169160608201359160808101359160a08201359160c08101359160e0820135916101008101359181019061014081016101208201356401000000008111156103d257600080fd5b8201836020820111156103e457600080fd5b8035906020019184602083028401116401000000008311171561040657600080fd5b91939092909160208101903564010000000081111561042457600080fd5b82018360208201111561043657600080fd5b8035906020019184602083028401116401000000008311171561045857600080fd5b91939092909160208101903564010000000081111561047657600080fd5b82018360208201111561048857600080fd5b803590602001918460018302840111640100000000831117156104aa57600080fd5b509092509050610b75565b61019e600480360360208110156104cb57600080fd5b50356001600160a01b0316610cc3565b61019e600480360360608110156104f157600080fd5b6001600160a01b03823516919081019060408101602082013564010000000081111561051c57600080fd5b82018360208201111561052e57600080fd5b8035906020019184602083028401116401000000008311171561055057600080fd5b91939092909160208101903564010000000081111561056e57600080fd5b82018360208201111561058057600080fd5b803590602001918460208302840111640100000000831117156105a257600080fd5b509092509050610d99565b61019e600480360360208110156105c357600080fd5b50356001600160a01b0316610f24565b610700600480360360a08110156105e957600080fd5b6001600160a01b03823581169260208101359091169181019060608101604082013564010000000081111561061d57600080fd5b82018360208201111561062f57600080fd5b8035906020019184602083028401116401000000008311171561065157600080fd5b91939092909160208101903564010000000081111561066f57600080fd5b82018360208201111561068157600080fd5b803590602001918460208302840111640100000000831117156106a357600080fd5b9193909290916020810190356401000000008111156106c157600080fd5b8201836020820111156106d357600080fd5b803590602001918460018302840111640100000000831117156106f557600080fd5b50909250905061100d565b604080517fffffffff000000000000000000000000000000000000000000000000000000009092168252519081900360200190f35b6107f8600480360360a081101561074b57600080fd5b81019060208101813564010000000081111561076657600080fd5b82018360208201111561077857600080fd5b8035906020019184600183028401116401000000008311171561079a57600080fd5b91908080601f016020809104026020016040519081016040528093929190818152602001838380828437600092019190915250929550506001600160a01b03833581169450602084013516926040810135925060600135905061103a565b604080519115158252519081900360200190f35b610306611176565b6107f86004803603602081101561082a57600080fd5b50356001600160a01b0316611185565b61019e6004803603602081101561085057600080fd5b50356111a3565b61019e6004803603602081101561086d57600080fd5b5035611207565b610700600480360360a081101561088a57600080fd5b6001600160a01b03823581169260208101359091169160408201359160608101359181019060a0810160808201356401000000008111156108ca57600080fd5b8201836020820111156108dc57600080fd5b803590602001918460018302840111640100000000831117156108fe57600080fd5b50909250905061126b565b61015e611296565b7f000000000000000000000000000000000000000000000000000000000000000090565b7f000000000000000000000000000000000000000000000000000000000000000090565b6000546001600160a01b031633146109b8576040805162461bcd60e51b815260206004820152601060248201527f53656e646572206e6f742061646d696e00000000000000000000000000000000604482015290519081900360640190fd5b600554600280546001600160a01b03908116600090815260046020526040902042909301909255805473ffffffffffffffffffffffffffffffffffffffff191692909116919091179055565b606060008060008060606000806000808a80602001905160a0811015610a2957600080fd5b8101908080516040519392919084640100000000821115610a4957600080fd5b908301906020820185811115610a5e57600080fd5b8251640100000000811182820188101715610a7857600080fd5b82525081516020918201929091019080838360005b83811015610aa5578181015183820152602001610a8d565b50505050905090810190601f168015610ad25780820380516001836020036101000a031916815260200191505b5060409081526020820151908201516060830151608090930151959f50909d509b5099509197505050505050505091939590929450565b6000546001600160a01b031690565b60035490565b6000546001600160a01b03163314610b675760405162461bcd60e51b815260040180806020018281038252602e815260200180612198602e913960400191505060405180910390fd5b610b71828261129c565b5050565b610b7f898961131e565b610c048f8e8e8e8e8e8d8d8d80806020026020016040519081016040528093929190818152602001838360200280828437600081840152601f19601f820116905080830192505050505050508c8c8080602002602001604051908101604052809392919081815260200183836020028082843760009201919091525061139892505050565b610c458f8984848080601f01602080910402602001604051908101604052809392919081815260200183838082843760009201919091525061157592505050565b610c758f8f8e8e8e8d7f00000000000000000000000000000000000000000000000000000000000000008f6115c6565b610cb28e87878080602002602001604051908101604052809392919081815260200183836020028082843760009201919091525061189192505050565b505050505050505050505050505050565b6000546001600160a01b03163314610d22576040805162461bcd60e51b815260206004820152601b60248201527f6f6e6c792061646d696e2063616e206368616e67652061646d696e0000000000604482015290519081900360640190fd5b600054604080516001600160a01b039283168152918316602083015280517f7e644d79422f17c01e4894b5f4f588d331ebfa28653d42ae832dc59e38c9798f9281900390910190a16000805473ffffffffffffffffffffffffffffffffffffffff19166001600160a01b0392909216919091179055565b6000546001600160a01b03163314610df8576040805162461bcd60e51b815260206004820152600e60248201527f4e4f545f415554484f52495a4544000000000000000000000000000000000000604482015290519081900360640190fd5b7f00000000000000000000000000000000000000000000000000000000000000006001600160a01b0316632eb2c2d63087878787876040518763ffffffff1660e01b815260040180876001600160a01b03166001600160a01b03168152602001866001600160a01b03166001600160a01b031681526020018060200180602001806020018481038452888882818152602001925060200280828437600083820152601f01601f19169091018581038452868152602090810191508790870280828437600081840152601f19601f8201169050808301925050508481038252600081526020016020019950505050505050505050600060405180830381600087803b158015610f0557600080fd5b505af1158015610f19573d6000803e3d6000fd5b505050505050505050565b6001600160a01b038116610f7f576040805162461bcd60e51b815260206004820152600c60248201527f5a45524f5f414444524553530000000000000000000000000000000000000000604482015290519081900360640190fd5b6000546001600160a01b03163314610fde576040805162461bcd60e51b815260206004820152600e60248201527f4e4f545f415554484f52495a4544000000000000000000000000000000000000604482015290519081900360640190fd5b6006805473ffffffffffffffffffffffffffffffffffffffff19166001600160a01b0392909216919091179055565b7fbc197c810000000000000000000000000000000000000000000000000000000098975050505050505050565b600060035482118061105d5750836001600160a01b0316856001600160a01b0316145b8061106757508242115b156110745750600061116d565b60408051606087811b7fffffffffffffffffffffffffffffffffffffffff0000000000000000000000009081166020808501919091529188901b166034830152604882018690526068808301869052835180840390910181526088830184528051908201207f19457468657265756d205369676e6564204d6573736167653a0a33320000000060a884015260c48084018290528451808503909101815260e4909301909352815191012060009061112b9089611a55565b6001600160a01b03811660009081526004602052604090205490915042116111585760019250505061116d565b6002546001600160a01b039081169116149150505b95945050505050565b6002546001600160a01b031690565b6001600160a01b031660009081526001602052604090205460ff1690565b6000546001600160a01b03163314611202576040805162461bcd60e51b815260206004820152601060248201527f53656e646572206e6f742061646d696e00000000000000000000000000000000604482015290519081900360640190fd5b600355565b6000546001600160a01b03163314611266576040805162461bcd60e51b815260206004820152600e60248201527f4e4f545f415554484f52495a4544000000000000000000000000000000000000604482015290519081900360640190fd5b600755565b7ff23a6e61000000000000000000000000000000000000000000000000000000009695505050505050565b60075490565b6001600160a01b03821660008181526001602090815260409182902080547fffffffffffffffffffffffffffffffffffffffffffffffffffffffffffffff001685151590811790915582519384529083015280517fb21eb88b4e33b3f1281830a7178d74d8aa73220416215726b68ae23d539515cb9281900390910190a15050565b6113456103e861133960075485611b2290919063ffffffff16565b9063ffffffff611b9816565b8114610b71576040805162461bcd60e51b815260206004820152600d60248201527f494e56414c49445f505249434500000000000000000000000000000000000000604482015290519081900360640190fd5b7f0000000000000000000000000000000000000000000000000000000000000000421061140c576040805162461bcd60e51b815260206004820152600c60248201527f53414c455f49535f4f5645520000000000000000000000000000000000000000604482015290519081900360640190fd5b6001600160a01b03891633148061143257503360009081526001602052604090205460ff165b611483576040805162461bcd60e51b815260206004820152600e60248201527f4e4f545f415554484f52495a4544000000000000000000000000000000000000604482015290519081900360640190fd5b6001600160a01b03881615806114aa5750886001600160a01b0316886001600160a01b0316145b6114fb576040805162461bcd60e51b815260206004820152600d60248201527f52455345525645445f4c414e4400000000000000000000000000000000000000604482015290519081900360640190fd5b600061150c888888888d8989611bfd565b90506115188282611ca2565b611569576040805162461bcd60e51b815260206004820152600c60248201527f494e56414c49445f4c414e440000000000000000000000000000000000000000604482015290519081900360640190fd5b50505050505050505050565b60006115818484611d6b565b6006549091506115c0908590839085906001600160a01b03167f0000000000000000000000000000000000000000000000000000000000000000611eb8565b50505050565b83600114806115fc57507f00000000000000000000000000000000000000000000000000000000000000006001600160a01b0316155b156116c357604080517f6e1e3bbf0000000000000000000000000000000000000000000000000000000081526001600160a01b03898116600483015260248201879052604482018990526064820188905260a06084830152600060a4830181905292517f000000000000000000000000000000000000000000000000000000000000000090911692636e1e3bbf9260e4808201939182900301818387803b1580156116a657600080fd5b505af11580156116ba573d6000803e3d6000fd5b50505050611827565b7f00000000000000000000000000000000000000000000000000000000000000006001600160a01b0316636e1e3bbf7f00000000000000000000000000000000000000000000000000000000000000008689898c60405160200180826001600160a01b03166001600160a01b031681526020019150506040516020818303038152906040526040518663ffffffff1660e01b815260040180866001600160a01b03166001600160a01b0316815260200185815260200184815260200183815260200180602001828103825283818151815260200191508051906020019080838360005b838110156117be5781810151838201526020016117a6565b50505050905090810190601f1680156117eb5780820380516001836020036101000a031916815260200191505b509650505050505050600060405180830381600087803b15801561180e57600080fd5b505af1158015611822573d6000803e3d6000fd5b505050505b60408051858152602081018590526001600160a01b03848116828401526060820184905291516101988802890192808b1692908c16917fe4dfa6ac11314892f3029b34a25b1a887da3b1cab2bbf8506d87128ba6e3ac029181900360800190a45050505050505050565b6060815167ffffffffffffffff811180156118ab57600080fd5b506040519080825280602002602001820160405280156118d5578160200160208202803683370190505b50905060005b82518110156119055760018282815181106118f257fe5b60209081029190910101526001016118db565b507f00000000000000000000000000000000000000000000000000000000000000006001600160a01b0316632eb2c2d6308585856040518563ffffffff1660e01b815260040180856001600160a01b03166001600160a01b03168152602001846001600160a01b03166001600160a01b03168152602001806020018060200180602001848103845286818151815260200191508051906020019060200280838360005b838110156119c05781810151838201526020016119a8565b50505050905001848103835285818151815260200191508051906020019060200280838360005b838110156119ff5781810151838201526020016119e7565b50505050905001848103825260008152602001602001975050505050505050600060405180830381600087803b158015611a3857600080fd5b505af1158015611a4c573d6000803e3d6000fd5b50505050505050565b60008151604114611a6557600080fd5b60208201516040830151606084015160001a601b811015611a8457601b015b8060ff16601b1480611a9957508060ff16601c145b611aa257600080fd5b6040805160008152602080820180845289905260ff8416828401526060820186905260808201859052915160019260a0808401939192601f1981019281900390910190855afa158015611af9573d6000803e3d6000fd5b5050604051601f1901519450506001600160a01b038416611b1957600080fd5b50505092915050565b600082611b3157506000611b92565b5081810281838281611b3f57fe5b0414611b92576040805162461bcd60e51b815260206004820152600860248201527f6f766572666c6f77000000000000000000000000000000000000000000000000604482015290519081900360640190fd5b92915050565b600081611bec576040805162461bcd60e51b815260206004820152600960248201527f64697662797a65726f0000000000000000000000000000000000000000000000604482015290519081900360640190fd5b818381611bf557fe5b049392505050565b60008787878787878760405160200180888152602001878152602001868152602001858152602001846001600160a01b03166001600160a01b031660601b8152601401838152602001828051906020019060200280838360005b83811015611c6f578181015183820152602001611c57565b50505050905001975050505050505050604051602081830303815290604052805190602001209050979650505050505050565b600081815b8451811015611d41576000858281518110611cbe57fe5b6020026020010151905080831015611d065782816040516020018083815260200182815260200192505050604051602081830303815290604052805190602001209250611d38565b808360405160200180838152602001828152602001925050506040516020818303038152906040528051906020012092505b50600101611ca7565b507f0000000000000000000000000000000000000000000000000000000000000000149392505050565b600080611d84606461133985600563ffffffff611b2216565b604080516323b872dd60e01b81526001600160a01b0387811660048301527f0000000000000000000000000000000000000000000000000000000000000000811660248301526044820184905291519293507f0000000000000000000000000000000000000000000000000000000000000000909116916323b872dd916064808201926020929091908290030181600087803b158015611e2357600080fd5b505af1158015611e37573d6000803e3d6000fd5b505050506040513d6020811015611e4d57600080fd5b5051611ea0576040805162461bcd60e51b815260206004820152601360248201527f4645455f5452414e534645525f4641494c454400000000000000000000000000604482015290519081900360640190fd5b611eb0838263ffffffff61213a16565b949350505050565b82518190859015612062576060600080600080611ed48a610a04565b9398509196509450925090506000611eef868686868661103a565b15611f7d57611f09611f018d84611b22565b612710611b98565b9050886001600160a01b0316846001600160a01b0316866001600160a01b03167fac7a699eb95c3c6d390ec4626de17ef9a67b35891efdb197beba7c7fdd45fac48f858760405180848152602001838152602001828152602001935050505060405180910390a4611f7a878261213a565b96505b801561205b57604080516323b872dd60e01b81526001600160a01b038f811660048301528781166024830152604482018490529151918a16916323b872dd916064808201926020929091908290030181600087803b158015611fde57600080fd5b505af1158015611ff2573d6000803e3d6000fd5b505050506040513d602081101561200857600080fd5b505161205b576040805162461bcd60e51b815260206004820152601960248201527f636f6d6d6973696f6e207472616e73666572206661696c656400000000000000604482015290519081900360640190fd5b5050505050505b604080516323b872dd60e01b81526001600160a01b0389811660048301528681166024830152604482018490529151918416916323b872dd916064808201926020929091908290030181600087803b1580156120bd57600080fd5b505af11580156120d1573d6000803e3d6000fd5b505050506040513d60208110156120e757600080fd5b5051611a4c576040805162461bcd60e51b815260206004820152601760248201527f7061796d656e74207472616e73666572206661696c6564000000000000000000604482015290519081900360640190fd5b600082821115612191576040805162461bcd60e51b815260206004820152600860248201527f756e6465666c6f77000000000000000000000000000000000000000000000000604482015290519081900360640190fd5b5090039056fe6f6e6c792061646d696e2063616e207365747570206d6574615472616e73616374696f6e50726f636573736f7273a26469706673582212200ff38c5741c66b2a22a9a9ee2abe0f55626323082b6b4443921fd3b25484584a64736f6c63430006050033",
  "devdoc": {
    "methods": {
      "buyLandWithSand(address,address,address,uint256,uint256,uint256,uint256,uint256,bytes32,uint256[],bytes32[],bytes)": {
        "params": {
          "buyer": "address that perform the payment",
          "priceInSand": "price in SAND to purchase that Land",
          "proof": "merkleProof for that particular Land",
          "reserved": "the reserved address (if any)",
          "size": "size of the pack of Land to purchase",
          "to": "address that will own the purchased Land",
          "x": "x coordinate of the Land",
          "y": "y coordinate of the Land"
        }
      },
      "changeAdmin(address)": {
        "details": "change the administrator to be `newAdmin`.",
        "params": {
          "newAdmin": "address of the new administrator."
        }
      },
      "getAdmin()": {
        "details": "gives the current administrator of this contract.",
        "returns": {
          "_0": "the current administrator of this contract."
        }
      },
      "getSigningWallet()": {
        "details": "signing wallet authorized for referral",
        "returns": {
          "_0": "the address of the signing wallet"
        }
      },
      "isMetaTransactionProcessor(address)": {
        "details": "check whether address `who` is given meta-transaction execution rights.",
        "params": {
          "who": "The address to query."
        },
        "returns": {
          "_0": "whether the address has meta-transaction execution rights."
        }
      },
      "isReferralValid(bytes,address,address,uint256,uint256)": {
        "params": {
          "commissionRate": "The commissionRate of the referral",
          "expiryTime": "The expiry time of the referral",
          "referee": "The address of the referee",
          "referrer": "The address of the referrer",
          "signature": "The signature to check (signed referral)"
        },
        "returns": {
          "_0": "True if the referral is valid"
        }
      },
      "setMetaTransactionProcessor(address,bool)": {
        "details": "Enable or disable the ability of `metaTransactionProcessor` to perform meta-tx (metaTransactionProcessor rights).",
        "params": {
          "enabled": "set whether the metaTransactionProcessor is enabled or disabled.",
          "metaTransactionProcessor": "address that will be given/removed metaTransactionProcessor rights."
        }
      },
      "setReceivingWallet(address)": {
        "params": {
          "newWallet": "address of the new receiving wallet"
        }
      },
      "updateMaxCommissionRate(uint256)": {
        "details": "Update the maximum commission rate",
        "params": {
          "newMaxCommissionRate": "The new maximum commission rate"
        }
      },
      "updateSigningWallet(address)": {
        "details": "Update the signing wallet",
        "params": {
          "newSigningWallet": "The new address of the signing wallet"
        }
      },
      "withdrawAssets(address,uint256[],uint256[])": {
        "params": {
          "assetIds": "the assetIds to be transferred",
          "to": "intended recipient of the asset tokens",
          "values": "the quantities of the assetIds to be transferred"
        }
      }
    },
    "title": "Estate Sale contract with referral"
  },
  "userdoc": {
    "methods": {
      "buyLandWithSand(address,address,address,uint256,uint256,uint256,uint256,uint256,bytes32,uint256[],bytes32[],bytes)": {
        "notice": "buy Land with SAND using the merkle proof associated with it"
      },
      "getExpiryTime()": {
        "notice": "Gets the expiry time for the current sale"
      },
      "getMaxCommisionRate()": {
        "notice": "the max commision rate"
      },
      "getMerkleRoot()": {
        "notice": "Gets the Merkle root associated with the current sale"
      },
      "isReferralValid(bytes,address,address,uint256,uint256)": {
        "notice": "Check if a referral is valid"
      },
      "setReceivingWallet(address)": {
        "notice": "set the wallet receiving the proceeds"
      },
      "withdrawAssets(address,uint256[],uint256[])": {
        "notice": "enable Admin to withdraw remaining assets from EstateSaleWithFee contract"
      }
    },
    "notice": "This contract manages the sale of our lands as Estates"
  },
  "storageLayout": {
    "storage": [
      {
        "astId": 13640,
        "contract": "src/solc_0.6/EstateSale/EstateSaleWithFee.sol:EstateSaleWithFee",
        "label": "_admin",
        "offset": 0,
        "slot": "0",
        "type": "t_address"
      },
      {
        "astId": 13702,
        "contract": "src/solc_0.6/EstateSale/EstateSaleWithFee.sol:EstateSaleWithFee",
        "label": "_metaTransactionContracts",
        "offset": 0,
        "slot": "1",
        "type": "t_mapping(t_address,t_bool)"
      },
      {
        "astId": 11818,
        "contract": "src/solc_0.6/EstateSale/EstateSaleWithFee.sol:EstateSaleWithFee",
        "label": "_signingWallet",
        "offset": 0,
        "slot": "2",
        "type": "t_address"
      },
      {
        "astId": 11820,
        "contract": "src/solc_0.6/EstateSale/EstateSaleWithFee.sol:EstateSaleWithFee",
        "label": "_maxCommissionRate",
        "offset": 0,
        "slot": "3",
        "type": "t_uint256"
      },
      {
        "astId": 11824,
        "contract": "src/solc_0.6/EstateSale/EstateSaleWithFee.sol:EstateSaleWithFee",
        "label": "_previousSigningWallets",
        "offset": 0,
        "slot": "4",
        "type": "t_mapping(t_address,t_uint256)"
      },
      {
        "astId": 11833,
        "contract": "src/solc_0.6/EstateSale/EstateSaleWithFee.sol:EstateSaleWithFee",
        "label": "_previousSigningDelay",
        "offset": 0,
        "slot": "5",
        "type": "t_uint256"
      },
      {
        "astId": 8205,
        "contract": "src/solc_0.6/EstateSale/EstateSaleWithFee.sol:EstateSaleWithFee",
        "label": "_wallet",
        "offset": 0,
        "slot": "6",
        "type": "t_address_payable"
      },
      {
        "astId": 8215,
        "contract": "src/solc_0.6/EstateSale/EstateSaleWithFee.sol:EstateSaleWithFee",
        "label": "_multiplier",
        "offset": 0,
        "slot": "7",
        "type": "t_uint256"
      }
    ],
    "types": {
      "t_address": {
        "encoding": "inplace",
        "label": "address",
        "numberOfBytes": "20"
      },
      "t_address_payable": {
        "encoding": "inplace",
        "label": "address payable",
        "numberOfBytes": "20"
      },
      "t_bool": {
        "encoding": "inplace",
        "label": "bool",
        "numberOfBytes": "1"
      },
      "t_mapping(t_address,t_bool)": {
        "encoding": "mapping",
        "key": "t_address",
        "label": "mapping(address => bool)",
        "numberOfBytes": "32",
        "value": "t_bool"
      },
      "t_mapping(t_address,t_uint256)": {
        "encoding": "mapping",
        "key": "t_address",
        "label": "mapping(address => uint256)",
        "numberOfBytes": "32",
        "value": "t_uint256"
      },
      "t_uint256": {
        "encoding": "inplace",
        "label": "uint256",
        "numberOfBytes": "32"
      }
    }
  }
}