{
  "address": "0x089a55BAf7052321CBce4bDbF3bE568955648d9d",
  "abi": [
    {
      "inputs": [
        {
          "internalType": "address",
          "name": "landAddress",
          "type": "address"
        },
        {
          "internalType": "address",
          "name": "sandContractAddress",
          "type": "address"
        },
        {
          "internalType": "address",
          "name": "initialMetaTx",
          "type": "address"
        },
        {
          "internalType": "address",
          "name": "admin",
          "type": "address"
        },
        {
          "internalType": "address payable",
          "name": "initialWalletAddress",
          "type": "address"
        },
        {
          "internalType": "bytes32",
          "name": "merkleRoot",
          "type": "bytes32"
        },
        {
          "internalType": "uint256",
          "name": "expiryTime",
          "type": "uint256"
        },
        {
          "internalType": "address",
          "name": "initialSigningWallet",
          "type": "address"
        },
        {
          "internalType": "uint256",
          "name": "initialMaxCommissionRate",
          "type": "uint256"
        },
        {
          "internalType": "address",
          "name": "estate",
          "type": "address"
        },
        {
          "internalType": "address",
          "name": "asset",
          "type": "address"
        },
        {
          "internalType": "address",
          "name": "feeDistributor",
          "type": "address"
        }
      ],
      "stateMutability": "nonpayable",
      "type": "constructor"
    },
    {
      "anonymous": false,
      "inputs": [
        {
          "indexed": false,
          "internalType": "address",
          "name": "oldAdmin",
          "type": "address"
        },
        {
          "indexed": false,
          "internalType": "address",
          "name": "newAdmin",
          "type": "address"
        }
      ],
      "name": "AdminChanged",
      "type": "event"
    },
    {
      "anonymous": false,
      "inputs": [
        {
          "indexed": true,
          "internalType": "address",
          "name": "buyer",
          "type": "address"
        },
        {
          "indexed": true,
          "internalType": "address",
          "name": "to",
          "type": "address"
        },
        {
          "indexed": true,
          "internalType": "uint256",
          "name": "topCornerId",
          "type": "uint256"
        },
        {
          "indexed": false,
          "internalType": "uint256",
          "name": "size",
          "type": "uint256"
        },
        {
          "indexed": false,
          "internalType": "uint256",
          "name": "price",
          "type": "uint256"
        },
        {
          "indexed": false,
          "internalType": "address",
          "name": "token",
          "type": "address"
        },
        {
          "indexed": false,
          "internalType": "uint256",
          "name": "amountPaid",
          "type": "uint256"
        }
      ],
      "name": "LandQuadPurchased",
      "type": "event"
    },
    {
      "anonymous": false,
      "inputs": [
        {
          "indexed": false,
          "internalType": "address",
          "name": "metaTransactionProcessor",
          "type": "address"
        },
        {
          "indexed": false,
          "internalType": "bool",
          "name": "enabled",
          "type": "bool"
        }
      ],
      "name": "MetaTransactionProcessor",
      "type": "event"
    },
    {
      "anonymous": false,
      "inputs": [
        {
          "indexed": true,
          "internalType": "address",
          "name": "referrer",
          "type": "address"
        },
        {
          "indexed": true,
          "internalType": "address",
          "name": "referee",
          "type": "address"
        },
        {
          "indexed": true,
          "internalType": "address",
          "name": "token",
          "type": "address"
        },
        {
          "indexed": false,
          "internalType": "uint256",
          "name": "amount",
          "type": "uint256"
        },
        {
          "indexed": false,
          "internalType": "uint256",
          "name": "commission",
          "type": "uint256"
        },
        {
          "indexed": false,
          "internalType": "uint256",
          "name": "commissionRate",
          "type": "uint256"
        }
      ],
      "name": "ReferralUsed",
      "type": "event"
    },
    {
      "inputs": [
        {
          "internalType": "address",
          "name": "buyer",
          "type": "address"
        },
        {
          "internalType": "address",
          "name": "to",
          "type": "address"
        },
        {
          "internalType": "address",
          "name": "reserved",
          "type": "address"
        },
        {
          "internalType": "uint256",
          "name": "x",
          "type": "uint256"
        },
        {
          "internalType": "uint256",
          "name": "y",
          "type": "uint256"
        },
        {
          "internalType": "uint256",
          "name": "size",
          "type": "uint256"
        },
        {
          "internalType": "uint256",
          "name": "priceInSand",
          "type": "uint256"
        },
        {
          "internalType": "uint256",
          "name": "adjustedPriceInSand",
          "type": "uint256"
        },
        {
          "internalType": "bytes32",
          "name": "salt",
          "type": "bytes32"
        },
        {
          "internalType": "uint256[]",
          "name": "assetIds",
          "type": "uint256[]"
        },
        {
          "internalType": "bytes32[]",
          "name": "proof",
          "type": "bytes32[]"
        },
        {
          "internalType": "bytes",
          "name": "referral",
          "type": "bytes"
        }
      ],
      "name": "buyLandWithSand",
      "outputs": [],
      "stateMutability": "nonpayable",
      "type": "function"
    },
    {
      "inputs": [
        {
          "internalType": "address",
          "name": "newAdmin",
          "type": "address"
        }
      ],
      "name": "changeAdmin",
      "outputs": [],
      "stateMutability": "nonpayable",
      "type": "function"
    },
    {
      "inputs": [
        {
          "internalType": "bytes",
          "name": "referral",
          "type": "bytes"
        }
      ],
      "name": "decodeReferral",
      "outputs": [
        {
          "internalType": "bytes",
          "name": "",
          "type": "bytes"
        },
        {
          "internalType": "address",
          "name": "",
          "type": "address"
        },
        {
          "internalType": "address",
          "name": "",
          "type": "address"
        },
        {
          "internalType": "uint256",
          "name": "",
          "type": "uint256"
        },
        {
          "internalType": "uint256",
          "name": "",
          "type": "uint256"
        }
      ],
      "stateMutability": "pure",
      "type": "function"
    },
    {
      "inputs": [],
      "name": "getAdmin",
      "outputs": [
        {
          "internalType": "address",
          "name": "",
          "type": "address"
        }
      ],
      "stateMutability": "view",
      "type": "function"
    },
    {
      "inputs": [],
      "name": "getExpiryTime",
      "outputs": [
        {
          "internalType": "uint256",
          "name": "",
          "type": "uint256"
        }
      ],
      "stateMutability": "view",
      "type": "function"
    },
    {
      "inputs": [],
      "name": "getMaxCommisionRate",
      "outputs": [
        {
          "internalType": "uint256",
          "name": "",
          "type": "uint256"
        }
      ],
      "stateMutability": "view",
      "type": "function"
    },
    {
      "inputs": [],
      "name": "getMerkleRoot",
      "outputs": [
        {
          "internalType": "bytes32",
          "name": "",
          "type": "bytes32"
        }
      ],
      "stateMutability": "view",
      "type": "function"
    },
    {
      "inputs": [],
      "name": "getSandMultiplier",
      "outputs": [
        {
          "internalType": "uint256",
          "name": "",
          "type": "uint256"
        }
      ],
      "stateMutability": "view",
      "type": "function"
    },
    {
      "inputs": [],
      "name": "getSigningWallet",
      "outputs": [
        {
          "internalType": "address",
          "name": "",
          "type": "address"
        }
      ],
      "stateMutability": "view",
      "type": "function"
    },
    {
      "inputs": [
        {
          "internalType": "address",
          "name": "who",
          "type": "address"
        }
      ],
      "name": "isMetaTransactionProcessor",
      "outputs": [
        {
          "internalType": "bool",
          "name": "",
          "type": "bool"
        }
      ],
      "stateMutability": "view",
      "type": "function"
    },
    {
      "inputs": [
        {
          "internalType": "bytes",
          "name": "signature",
          "type": "bytes"
        },
        {
          "internalType": "address",
          "name": "referrer",
          "type": "address"
        },
        {
          "internalType": "address",
          "name": "referee",
          "type": "address"
        },
        {
          "internalType": "uint256",
          "name": "expiryTime",
          "type": "uint256"
        },
        {
          "internalType": "uint256",
          "name": "commissionRate",
          "type": "uint256"
        }
      ],
      "name": "isReferralValid",
      "outputs": [
        {
          "internalType": "bool",
          "name": "",
          "type": "bool"
        }
      ],
      "stateMutability": "view",
      "type": "function"
    },
    {
      "inputs": [
        {
          "internalType": "address",
          "name": "",
          "type": "address"
        },
        {
          "internalType": "address",
          "name": "",
          "type": "address"
        },
        {
          "internalType": "uint256[]",
          "name": "",
          "type": "uint256[]"
        },
        {
          "internalType": "uint256[]",
          "name": "",
          "type": "uint256[]"
        },
        {
          "internalType": "bytes",
          "name": "",
          "type": "bytes"
        }
      ],
      "name": "onERC1155BatchReceived",
      "outputs": [
        {
          "internalType": "bytes4",
          "name": "",
          "type": "bytes4"
        }
      ],
      "stateMutability": "pure",
      "type": "function"
    },
    {
      "inputs": [
        {
          "internalType": "address",
          "name": "",
          "type": "address"
        },
        {
          "internalType": "address",
          "name": "",
          "type": "address"
        },
        {
          "internalType": "uint256",
          "name": "",
          "type": "uint256"
        },
        {
          "internalType": "uint256",
          "name": "",
          "type": "uint256"
        },
        {
          "internalType": "bytes",
          "name": "",
          "type": "bytes"
        }
      ],
      "name": "onERC1155Received",
      "outputs": [
        {
          "internalType": "bytes4",
          "name": "",
          "type": "bytes4"
        }
      ],
      "stateMutability": "pure",
      "type": "function"
    },
    {
      "inputs": [
        {
          "internalType": "uint256",
          "name": "newMultiplier",
          "type": "uint256"
        }
      ],
      "name": "rebalanceSand",
      "outputs": [],
      "stateMutability": "nonpayable",
      "type": "function"
    },
    {
      "inputs": [
        {
          "internalType": "address",
          "name": "metaTransactionProcessor",
          "type": "address"
        },
        {
          "internalType": "bool",
          "name": "enabled",
          "type": "bool"
        }
      ],
      "name": "setMetaTransactionProcessor",
      "outputs": [],
      "stateMutability": "nonpayable",
      "type": "function"
    },
    {
      "inputs": [
        {
          "internalType": "address payable",
          "name": "newWallet",
          "type": "address"
        }
      ],
      "name": "setReceivingWallet",
      "outputs": [],
      "stateMutability": "nonpayable",
      "type": "function"
    },
    {
      "inputs": [
        {
          "internalType": "uint256",
          "name": "newMaxCommissionRate",
          "type": "uint256"
        }
      ],
      "name": "updateMaxCommissionRate",
      "outputs": [],
      "stateMutability": "nonpayable",
      "type": "function"
    },
    {
      "inputs": [
        {
          "internalType": "address",
          "name": "newSigningWallet",
          "type": "address"
        }
      ],
      "name": "updateSigningWallet",
      "outputs": [],
      "stateMutability": "nonpayable",
      "type": "function"
    },
    {
      "inputs": [
        {
          "internalType": "address",
          "name": "to",
          "type": "address"
        },
        {
          "internalType": "uint256[]",
          "name": "assetIds",
          "type": "uint256[]"
        },
        {
          "internalType": "uint256[]",
          "name": "values",
          "type": "uint256[]"
        }
      ],
      "name": "withdrawAssets",
      "outputs": [],
      "stateMutability": "nonpayable",
      "type": "function"
    }
  ],
  "transactionHash": "0x2777a1475e8f45bfab0ad4eba29e4f62248248a77f294f09ce8b0c7ef1c6d802",
  "args": [
    "0x50f5474724e0Ee42D9a4e711ccFB275809Fd6d4a",
    "0x3845badAde8e6dFF049820680d1F14bD3903a5d0",
    "0x3845badAde8e6dFF049820680d1F14bD3903a5d0",
    "0x18dd4e0eb8699eA4FeE238dE41ECfb95e32272f8",
    "0x4489590a116618B506F0EfE885432F6A8ED998E9",
    "0x9a82f7da3fee66fa07c79f9a2ebdbf7e3a9cab5ecf7fd250d97d7f0c3920faf4",
    1614776400,
    "0x3044719d139F866a44c988823513eCB93060bF1b",
    2000,
    "0x0000000000000000000000000000000000000000",
    "0xa342f5D851E866E18ff98F351f2c6637f4478dB5",
    "0x0EB04462D69B1D267d269377E34f60b9De1c8510"
  ],
  "linkedData": [
    {
      "x": 31,
      "y": 84,
      "size": 1,
      "price": "1011000000000000000000",
      "reserved": "",
      "salt": "0x1c0e1c2709774048526ad841d71f6e3060bb991e3ffd062d82b2410d5630e835",
      "assetIds": []
    },
    {
      "x": 31,
      "y": 85,
      "size": 1,
      "price": "1011000000000000000000",
      "reserved": "",
      "salt": "0xe3d36e9184536848263d01b87a12eeab137af624f3f05f5e84774ba91418d178",
      "assetIds": []
    },
    {
      "x": 31,
      "y": 86,
      "size": 1,
      "price": "1011000000000000000000",
      "reserved": "",
      "salt": "0x4a4597ad7586211964ede226b05865f9872e08491db1eb556735a443cc3e863c",
      "assetIds": []
    },
    {
      "x": 32,
      "y": 86,
      "size": 1,
      "price": "1011000000000000000000",
      "reserved": "",
      "salt": "0xd50ac7d0884b8d8cb299b7e7e9fea9521b29244048962c4c0365d3a6b93c78d6",
      "assetIds": []
    },
    {
      "x": 33,
      "y": 86,
      "size": 1,
      "price": "1011000000000000000000",
      "reserved": "",
      "salt": "0xe0db10a2cd063ede604e12a8f5eff0d61e59a1cfa965070cc3ccf475e7875c71",
      "assetIds": []
    },
    {
      "x": 34,
      "y": 86,
      "size": 1,
      "price": "1011000000000000000000",
      "reserved": "",
      "salt": "0x6e2b84c3d4b9b9e3ec82bf2d369ed059402502141d4563c3a916c0ffd05cd10f",
      "assetIds": []
    },
    {
      "x": 35,
      "y": 86,
      "size": 1,
      "price": "1011000000000000000000",
      "reserved": "",
      "salt": "0x600ee34b7a18e18cb261029a6159c2d7d4b72f32fc628e03fb04983cf39d2ce6",
      "assetIds": []
    },
    {
      "x": 30,
      "y": 84,
      "size": 1,
      "price": "1011000000000000000000",
      "reserved": "",
      "salt": "0x691b1412f7707df51a97a182b448f9b3b21f9d9fac6d3aac725f96adcd01a28e",
      "assetIds": []
    },
    {
      "x": 30,
      "y": 85,
      "size": 1,
      "price": "1011000000000000000000",
      "reserved": "",
      "salt": "0xe9b10a5ec887b833a064185050bd898496058a6b5edb49ce95dae39442d24a47",
      "assetIds": []
    },
    {
      "x": 30,
      "y": 86,
      "size": 1,
      "price": "1011000000000000000000",
      "reserved": "",
      "salt": "0xe023970a6f21a5b97a969720357d61e2423375f89e12e9996cbba99837d307f2",
      "assetIds": []
    },
    {
      "x": 30,
      "y": 87,
      "size": 1,
      "price": "1011000000000000000000",
      "reserved": "",
      "salt": "0xd259d2140e15fb278729d3280a8ef15506c05a33a2a12e990e8dcdc31bf94c8f",
      "assetIds": []
    },
    {
      "x": 30,
      "y": 88,
      "size": 1,
      "price": "1011000000000000000000",
      "reserved": "",
      "salt": "0xef9bc9fa30245d4e48b016fd632c5df4b196147d7fb27710ff2296f99e157d3d",
      "assetIds": []
    },
    {
      "x": 30,
      "y": 89,
      "size": 1,
      "price": "1011000000000000000000",
      "reserved": "",
      "salt": "0x8e8a8f0f91c410a58290b067f972c60cad5f3bb761838e6c46105aee4d5f6c81",
      "assetIds": []
    },
    {
      "x": 31,
      "y": 89,
      "size": 1,
      "price": "1011000000000000000000",
      "reserved": "",
      "salt": "0xdad111cb18019c8d820766e38dec1741f2d9b7a739165079337e4e560214ae3a",
      "assetIds": []
    },
    {
      "x": 31,
      "y": 90,
      "size": 1,
      "price": "1011000000000000000000",
      "reserved": "",
      "salt": "0x48876f49e011a3205f2a4fcc213bff103a0c786d1ab9ea6cf168c035be49bb8c",
      "assetIds": []
    },
    {
      "x": 31,
      "y": 91,
      "size": 1,
      "price": "1011000000000000000000",
      "reserved": "",
      "salt": "0xacb5b168968d87ebefbc5bfad415abe8fb09760f6051f38a7075fda64aa45f82",
      "assetIds": []
    },
    {
      "x": 31,
      "y": 92,
      "size": 1,
      "price": "1011000000000000000000",
      "reserved": "",
      "salt": "0x1a6ec9932c44599924f6a08d37ce7c9cb607a33429d91fabc6619f459d56386f",
      "assetIds": []
    },
    {
      "x": 32,
      "y": 92,
      "size": 1,
      "price": "1011000000000000000000",
      "reserved": "",
      "salt": "0x3e888a19384b4badadaaa6f05b89e7475dd17470cd4689bcde0a6920ebc54706",
      "assetIds": []
    },
    {
      "x": 32,
      "y": 93,
      "size": 1,
      "price": "1011000000000000000000",
      "reserved": "",
      "salt": "0x3b65769f93e1e909cdba8cbad2309cc26496cce136a5d943a48f9b0fc3b362f2",
      "assetIds": []
    },
    {
      "x": 31,
      "y": 93,
      "size": 1,
      "price": "1011000000000000000000",
      "reserved": "",
      "salt": "0x7e735deadb87e414266573860802db59beb797ea2d0ae187fdf3375796fdf88c",
      "assetIds": []
    },
    {
      "x": 31,
      "y": 94,
      "size": 1,
      "price": "1011000000000000000000",
      "reserved": "",
      "salt": "0x0602edae4dd0c3e017623453ed418ed4c7783894e160806300ff0761ba529164",
      "assetIds": []
    },
    {
      "x": 31,
      "y": 95,
      "size": 1,
      "price": "1011000000000000000000",
      "reserved": "",
      "salt": "0x984810cccb241cddcc61a6cdfa204aadaa85b4cc449af259cd271aa12b47af7e",
      "assetIds": []
    },
    {
      "x": 30,
      "y": 95,
      "size": 1,
      "price": "1011000000000000000000",
      "reserved": "",
      "salt": "0x614f782189a527359c3449fafe749954cd40d6f80a01fecc047e4fe77832c45a",
      "assetIds": []
    },
    {
      "x": 32,
      "y": 95,
      "size": 1,
      "price": "1011000000000000000000",
      "reserved": "",
      "salt": "0x234f5298e33428b1da0d6e10628ea641f48478ef4282a870c6cf07af9c371d95",
      "assetIds": []
    },
    {
      "x": 33,
      "y": 95,
      "size": 1,
      "price": "1011000000000000000000",
      "reserved": "",
      "salt": "0x45188ef43fbbeabf19d454fb7073064e6feacc6e9a8bdf3d4082e9d08b04007a",
      "assetIds": []
    },
    {
      "x": 34,
      "y": 95,
      "size": 1,
      "price": "1011000000000000000000",
      "reserved": "",
      "salt": "0x4465783afb4bbb3618c1a4e4184d7e7c8644f29e92b2a4695582436233d65660",
      "assetIds": []
    },
    {
      "x": 35,
      "y": 95,
      "size": 1,
      "price": "1011000000000000000000",
      "reserved": "",
      "salt": "0xc733f65704eb6661de8bd45a16ff5feacd754bcbdaef989f8ceac7c270606e20",
      "assetIds": []
    },
    {
      "x": 35,
      "y": 94,
      "size": 1,
      "price": "1011000000000000000000",
      "reserved": "",
      "salt": "0xcbf98c04c77956fa76ec38bfb903061cd6481e68bd194d316864511fefa5355e",
      "assetIds": []
    },
    {
      "x": 35,
      "y": 93,
      "size": 1,
      "price": "1011000000000000000000",
      "reserved": "",
      "salt": "0x0e81a940c1bc7f6dfe86f930fd209434a1eda96c0eebdc9bf4c73076a2c8b382",
      "assetIds": []
    },
    {
      "x": 35,
      "y": 92,
      "size": 1,
      "price": "1011000000000000000000",
      "reserved": "",
      "salt": "0x52c1d24a46ef77ee39810a77a70c1148fe65f09170447022bb53b79fd9fa8d04",
      "assetIds": []
    },
    {
      "x": 35,
      "y": 91,
      "size": 1,
      "price": "1011000000000000000000",
      "reserved": "",
      "salt": "0x949781a301702a7a28c63628ab9b1d6c0ce4af8fa0448b6283e61b9f295759c5",
      "assetIds": []
    },
    {
      "x": 35,
      "y": 90,
      "size": 1,
      "price": "1011000000000000000000",
      "reserved": "",
      "salt": "0x092683ac222305cdcaa9c5df9c8e8f1f9fcb05bda42348c769011993d8e75265",
      "assetIds": []
    },
    {
      "x": 32,
      "y": 89,
      "size": 1,
      "price": "1011000000000000000000",
      "reserved": "",
      "salt": "0x148da88ebe337e98593c2ea3a944c79a2386a3f70705d0cea080fd96f2009fe0",
      "assetIds": []
    },
    {
      "x": 32,
      "y": 88,
      "size": 1,
      "price": "1011000000000000000000",
      "reserved": "",
      "salt": "0xca3d6e112c6180805508f7023cfc4ee54050dea18d07cd1f8ee0d51489b05421",
      "assetIds": []
    },
    {
      "x": 31,
      "y": 88,
      "size": 1,
      "price": "1011000000000000000000",
      "reserved": "",
      "salt": "0xc10326a751ca00c370625ef003f79db2d06455773593d125f8151282fd6d5808",
      "assetIds": []
    },
    {
      "x": 31,
      "y": 87,
      "size": 1,
      "price": "1011000000000000000000",
      "reserved": "",
      "salt": "0xbe98201721b107a24ede03e08a477ab3551b0ed6b20961eb5d55e4f7556a1263",
      "assetIds": []
    },
    {
      "x": 30,
      "y": 90,
      "size": 1,
      "price": "1011000000000000000000",
      "reserved": "",
      "salt": "0xea893b7a4e07941133ef3135a867c1450993700c004b89d7b3ac3d906d4a84df",
      "assetIds": []
    },
    {
      "x": 30,
      "y": 91,
      "size": 1,
      "price": "1011000000000000000000",
      "reserved": "",
      "salt": "0xa0bb7bd3d0ac40779e33e6614478d23bb7e0480c5b74c686b61213a8dc735361",
      "assetIds": []
    },
    {
      "x": 30,
      "y": 92,
      "size": 1,
      "price": "1011000000000000000000",
      "reserved": "",
      "salt": "0x9a6dbcfb9a7fab75ee45cc9e94b945e819baec0fc77c16f29a64dce0f9d3dd18",
      "assetIds": []
    },
    {
      "x": 30,
      "y": 93,
      "size": 1,
      "price": "1011000000000000000000",
      "reserved": "",
      "salt": "0x17571cfa54fa9d94b88d2527aecd1b86c39b557780711e6a03372f1c48f25e99",
      "assetIds": []
    },
    {
      "x": 32,
      "y": 94,
      "size": 1,
      "price": "1011000000000000000000",
      "reserved": "",
      "salt": "0xc1d1196b55e094a748f1ca203c8cd7823e80fa30021eb7d34a6649c2327536d2",
      "assetIds": []
    },
    {
      "x": 33,
      "y": 92,
      "size": 1,
      "price": "1011000000000000000000",
      "reserved": "",
      "salt": "0x309cf18e360812f452c28195257305f8b02a2b47029e8a45e5ad9dd6ef08971c",
      "assetIds": []
    },
    {
      "x": 34,
      "y": 92,
      "size": 1,
      "price": "1011000000000000000000",
      "reserved": "",
      "salt": "0x5775644307fa89f299128cdf65b3ad60afb7a657c253070e5916706b55e4e1c3",
      "assetIds": []
    },
    {
      "x": 34,
      "y": 91,
      "size": 1,
      "price": "1011000000000000000000",
      "reserved": "",
      "salt": "0xa73e9eeb7f2cd3d89f435d9c7f2db4c971c991fdf10aa48f60d476ff32a8f909",
      "assetIds": []
    },
    {
      "x": 34,
      "y": 90,
      "size": 1,
      "price": "1011000000000000000000",
      "reserved": "",
      "salt": "0x6153dc5762d10a59513b9cbdb69eeba12cae16696f8a85596d939e313bf828d9",
      "assetIds": []
    },
    {
      "x": 32,
      "y": 90,
      "size": 1,
      "price": "1011000000000000000000",
      "reserved": "",
      "salt": "0x9649adc702cdb2783b1e2dab42a006725c1dd87fd5c9f68e5d22b7e7aa2f4ebd",
      "assetIds": []
    },
    {
      "x": 32,
      "y": 91,
      "size": 1,
      "price": "1011000000000000000000",
      "reserved": "",
      "salt": "0xe83a5599573eaaa79e3367a1263ac799f748d4d4b7bdaf4f440b8241de4f9256",
      "assetIds": []
    },
    {
      "x": 33,
      "y": 91,
      "size": 1,
      "price": "1011000000000000000000",
      "reserved": "",
      "salt": "0x801d3546ca0adf512ac57dac8883b3115ee5f28cfbd9eaacef36415ce81bb36b",
      "assetIds": []
    },
    {
      "x": 33,
      "y": 90,
      "size": 1,
      "price": "1011000000000000000000",
      "reserved": "",
      "salt": "0x6ffb61a9f85a918a482ab2c82630005fe12a95d843abd9472f57fd6b3d62a2db",
      "assetIds": []
    },
    {
      "x": 32,
      "y": 87,
      "size": 1,
      "price": "1011000000000000000000",
      "reserved": "",
      "salt": "0xc8aa359e1be0dd84fb846b45cf230dfb839d8c894e01097079c1dfb70b497239",
      "assetIds": []
    },
    {
      "x": 30,
      "y": 94,
      "size": 1,
      "price": "1011000000000000000000",
      "reserved": "",
      "salt": "0xd8789ee1ab4ea51e04fb18f7842bed4bb85be47f08743453529dc7ebda0f4c99",
      "assetIds": []
    },
    {
      "x": 33,
      "y": 94,
      "size": 1,
      "price": "1011000000000000000000",
      "reserved": "",
      "salt": "0xf77fefa4d26fc418d227fe43739bd45389dbb1c1190c1183e8549dfe1831fad1",
      "assetIds": []
    },
    {
      "x": 34,
      "y": 94,
      "size": 1,
      "price": "1011000000000000000000",
      "reserved": "",
      "salt": "0x1177540f1e629549f1b9dc9084aec98d053e2480a52d17c86ef64f4964a098ca",
      "assetIds": []
    },
    {
      "x": 34,
      "y": 93,
      "size": 1,
      "price": "1011000000000000000000",
      "reserved": "",
      "salt": "0x266ed0016c65d419b4d2ef973407e18e1b67c36eeacd275c25e10c2a53e6fd35",
      "assetIds": []
    },
    {
      "x": 33,
      "y": 93,
      "size": 1,
      "price": "1011000000000000000000",
      "reserved": "",
      "salt": "0x14be73044623f1df140f0e766341a9bf102f654668dd510fd99badb4b52f30aa",
      "assetIds": []
    },
    {
      "x": 15,
      "y": 95,
      "size": 1,
      "price": "1011000000000000000000",
      "reserved": "",
      "salt": "0xc775f8a95e3f41b70e0ba6a3740c0146a818f8607db0c20f1ff4ad4a011acc99",
      "assetIds": []
    },
    {
      "x": 15,
      "y": 94,
      "size": 1,
      "price": "1011000000000000000000",
      "reserved": "",
      "salt": "0xe5904e5039ee54fae923f91bbbe1b7fe36dffd2ef8bd7cfdd77cdc1f29e23df4",
      "assetIds": []
    },
    {
      "x": 15,
      "y": 93,
      "size": 1,
      "price": "1011000000000000000000",
      "reserved": "",
      "salt": "0x6aa1ef68009c247b7040b346b4a8aacb0cf5d7e2c646c5725c72ab08a3867de7",
      "assetIds": []
    },
    {
      "x": 15,
      "y": 92,
      "size": 1,
      "price": "1011000000000000000000",
      "reserved": "",
      "salt": "0xf2342d8382683a3bcccec4a86840efc70d7a261df5d3570ec26459d9d16d99d7",
      "assetIds": []
    },
    {
      "x": 15,
      "y": 91,
      "size": 1,
      "price": "1011000000000000000000",
      "reserved": "",
      "salt": "0x50e16d7524393b821015a44cab99c5a08b7d37b8fd1d1630c75345aee225dcd2",
      "assetIds": []
    },
    {
      "x": 16,
      "y": 91,
      "size": 1,
      "price": "1011000000000000000000",
      "reserved": "",
      "salt": "0x005bd90afe3588b07058344339d72b8a8c16a49f053cf9316eb006d23e25d6ba",
      "assetIds": []
    },
    {
      "x": 16,
      "y": 90,
      "size": 1,
      "price": "1011000000000000000000",
      "reserved": "",
      "salt": "0xc8030a261cedc6bd3edc5e417a5b10e7f6d295bd84aed3a608355ad4be6b24f1",
      "assetIds": []
    },
    {
      "x": 16,
      "y": 89,
      "size": 1,
      "price": "1011000000000000000000",
      "reserved": "",
      "salt": "0x610bdaa9f914de15ee9eb554f8b588be317b03fb50b06fd626a31f5f63fe2cca",
      "assetIds": []
    },
    {
      "x": 16,
      "y": 88,
      "size": 1,
      "price": "1011000000000000000000",
      "reserved": "",
      "salt": "0xa7873f98a38b1223f449423124fc4d8987a4bc084d17d3bdcc1989cff9737a6c",
      "assetIds": []
    },
    {
      "x": 15,
      "y": 88,
      "size": 1,
      "price": "1011000000000000000000",
      "reserved": "",
      "salt": "0x049e95ed20c960b7cc3f04a51bf39f553727fb5018dc81b8f78ff2bd40077e41",
      "assetIds": []
    },
    {
      "x": 15,
      "y": 89,
      "size": 1,
      "price": "1011000000000000000000",
      "reserved": "",
      "salt": "0x6cc4cdc70a80408e6f4b8ee251b7092d353f52039762c1e9a8a6617266281c81",
      "assetIds": []
    },
    {
      "x": 15,
      "y": 90,
      "size": 1,
      "price": "1011000000000000000000",
      "reserved": "",
      "salt": "0x9311c709499625c6dad1bf08f188ef537b8fef3c9d89a91211091ce5a8b5fdc7",
      "assetIds": []
    },
    {
      "x": 16,
      "y": 92,
      "size": 1,
      "price": "1011000000000000000000",
      "reserved": "",
      "salt": "0xe63a0bffeff8485980b9f263e209247cc6e794925691ef53728e4e8a76442a9b",
      "assetIds": []
    },
    {
      "x": 16,
      "y": 93,
      "size": 1,
      "price": "1011000000000000000000",
      "reserved": "",
      "salt": "0xbce871fd423bb147b8943874b92eb7a6095e891b0b499ab323f497b3366904a1",
      "assetIds": []
    },
    {
      "x": 16,
      "y": 94,
      "size": 1,
      "price": "1011000000000000000000",
      "reserved": "",
      "salt": "0xfb52848879638611b703a22737c810335b681bacba1201eb9a250a1fa67e8e3b",
      "assetIds": []
    },
    {
      "x": 16,
      "y": 95,
      "size": 1,
      "price": "1011000000000000000000",
      "reserved": "",
      "salt": "0x9fc13bb1766a8749e35c474b04eb90b2f9d2c4044b78f274a5c97ad41e1c97b9",
      "assetIds": []
    },
    {
      "x": 17,
      "y": 95,
      "size": 1,
      "price": "1011000000000000000000",
      "reserved": "",
      "salt": "0xd27a37d8239a5efb30315cb89b152dc10ccac4deb4ef3a3f75cffb1dc24c3a63",
      "assetIds": []
    },
    {
      "x": 18,
      "y": 95,
      "size": 1,
      "price": "1011000000000000000000",
      "reserved": "",
      "salt": "0xdc8485c90354725c3330f221b4371a33c85599a6752d7c8885fcab72845b836c",
      "assetIds": []
    },
    {
      "x": 19,
      "y": 95,
      "size": 1,
      "price": "1011000000000000000000",
      "reserved": "",
      "salt": "0x8fdb03a9a7e3a24ad5809c73d50541b0964fbdec92dd541a879bdccce25cdaf3",
      "assetIds": []
    },
    {
      "x": 20,
      "y": 95,
      "size": 1,
      "price": "1011000000000000000000",
      "reserved": "",
      "salt": "0x991969af79dfcb821e041b80edb2c30893ed81a85c267d7bfbaa0758276421f4",
      "assetIds": []
    },
    {
      "x": 21,
      "y": 95,
      "size": 1,
      "price": "1011000000000000000000",
      "reserved": "",
      "salt": "0xe10f443fb113249220f7398e719ee3519715ebfd1bd0f28c5554575957889fd0",
      "assetIds": []
    },
    {
      "x": 22,
      "y": 95,
      "size": 1,
      "price": "1011000000000000000000",
      "reserved": "",
      "salt": "0xd1afd14f1d83344967dbed8200b618e9d1aa3a08892a70f041fc4601ebdb3bf1",
      "assetIds": []
    },
    {
      "x": 23,
      "y": 95,
      "size": 1,
      "price": "1011000000000000000000",
      "reserved": "",
      "salt": "0x4c067569328b8f114b98b0c3be2bd508c29986fa69dcd19555412d0493d5e118",
      "assetIds": []
    },
    {
      "x": 23,
      "y": 94,
      "size": 1,
      "price": "1011000000000000000000",
      "reserved": "",
      "salt": "0x2bdcad9bc0f0c86e4e3308203d662c31d5c56e961c15792806bcfed77e5701f6",
      "assetIds": []
    },
    {
      "x": 23,
      "y": 93,
      "size": 1,
      "price": "1011000000000000000000",
      "reserved": "",
      "salt": "0x6583d6feed7390d4894ad4143ce612ee562daba14d86f04267a0dbff7d6c4e97",
      "assetIds": []
    },
    {
      "x": 23,
      "y": 92,
      "size": 1,
      "price": "1011000000000000000000",
      "reserved": "",
      "salt": "0xe1652f5f7b36007f3c17f88faa9c8cadd1d1df57cd094f3669c5fbc924e91429",
      "assetIds": []
    },
    {
      "x": 23,
      "y": 91,
      "size": 1,
      "price": "1011000000000000000000",
      "reserved": "",
      "salt": "0xaf4abd6e61419fe6be3d20055bfc3b27fe7df4c01ff0641a9fe28f38536aadb9",
      "assetIds": []
    },
    {
      "x": 22,
      "y": 91,
      "size": 1,
      "price": "1011000000000000000000",
      "reserved": "",
      "salt": "0xd7da11e32fc705634f5ba59b5cf388a5069687185bdde609224a26286656e697",
      "assetIds": []
    },
    {
      "x": 22,
      "y": 90,
      "size": 1,
      "price": "1011000000000000000000",
      "reserved": "",
      "salt": "0xca4803b885c1a6f5dc3145aa2233d20cb895799722fa32f5bd16bdde35ae55c6",
      "assetIds": []
    },
    {
      "x": 21,
      "y": 90,
      "size": 1,
      "price": "1011000000000000000000",
      "reserved": "",
      "salt": "0x98a00b05f238c7cf684a407475705ad7730813c8ca8ce33486527bb1a2890543",
      "assetIds": []
    },
    {
      "x": 20,
      "y": 90,
      "size": 1,
      "price": "1011000000000000000000",
      "reserved": "",
      "salt": "0x0b559385d9d937e4542c13967e18eca892f126add9e6aea6bce9a784f105b5b9",
      "assetIds": []
    },
    {
      "x": 19,
      "y": 90,
      "size": 1,
      "price": "1011000000000000000000",
      "reserved": "",
      "salt": "0x5d688f40e06ee56373619d23c72d725e26df78b1f02d0c68f2a4d3661b77a2ba",
      "assetIds": []
    },
    {
      "x": 18,
      "y": 90,
      "size": 1,
      "price": "1011000000000000000000",
      "reserved": "",
      "salt": "0x08962228e351c0a1ec01e9ffd512bf23b358a7df5861ac928f752437697c9b40",
      "assetIds": []
    },
    {
      "x": 17,
      "y": 90,
      "size": 1,
      "price": "1011000000000000000000",
      "reserved": "",
      "salt": "0x306fa2fe08206ea721bd99bc42dfbe465aa5914261818d5f705482028f0e3427",
      "assetIds": []
    },
    {
      "x": 17,
      "y": 91,
      "size": 1,
      "price": "1011000000000000000000",
      "reserved": "",
      "salt": "0x1dfcf5ecc491c0ab1eabc74a2c2dce9990b2ba0d218f0ebbdfce725c32ed300a",
      "assetIds": []
    },
    {
      "x": 17,
      "y": 92,
      "size": 1,
      "price": "1011000000000000000000",
      "reserved": "",
      "salt": "0x1cc54c15e4a854e1330b93cecee31c3950b4a055c3568d5067fd4bed6c2f9231",
      "assetIds": []
    },
    {
      "x": 17,
      "y": 93,
      "size": 1,
      "price": "1011000000000000000000",
      "reserved": "",
      "salt": "0x8cc03662c9ca87e248dc3011501ffd3a545f89f51edd76e207e385e2fedab3bb",
      "assetIds": []
    },
    {
      "x": 18,
      "y": 93,
      "size": 1,
      "price": "1011000000000000000000",
      "reserved": "",
      "salt": "0xecae5f7dc89b0e2d3537fc419d2221b5531e71eb88f28d7c844e3799f114aed7",
      "assetIds": []
    },
    {
      "x": 19,
      "y": 93,
      "size": 1,
      "price": "1011000000000000000000",
      "reserved": "",
      "salt": "0x79373888ca14b6d894c3023ad6d7cd170b73d0f7e66418ba6a0779bb3a7eb19b",
      "assetIds": []
    },
    {
      "x": 20,
      "y": 93,
      "size": 1,
      "price": "1011000000000000000000",
      "reserved": "",
      "salt": "0x438f63b5be7e4cb2b2ec83c1be9668f0d96ffd6b6d8cfdb04b3f85c353ede6c6",
      "assetIds": []
    },
    {
      "x": 21,
      "y": 93,
      "size": 1,
      "price": "1011000000000000000000",
      "reserved": "",
      "salt": "0xeaeb89ec561bc4d2afafa6cca859df244ee0724e5cc642f929c7c56994651990",
      "assetIds": []
    },
    {
      "x": 22,
      "y": 93,
      "size": 1,
      "price": "1011000000000000000000",
      "reserved": "",
      "salt": "0x350ce0164a2ba2a7463839afe928c89e1793bd9443f1f5f74c764f8b7aa40d29",
      "assetIds": []
    },
    {
      "x": 23,
      "y": 90,
      "size": 1,
      "price": "1011000000000000000000",
      "reserved": "",
      "salt": "0x48befc77e1f9de2e30ea0b1ac94da87956355c9337f83e1c9c672c342003556a",
      "assetIds": []
    },
    {
      "x": 19,
      "y": 91,
      "size": 1,
      "price": "1011000000000000000000",
      "reserved": "",
      "salt": "0x7c502ab1d5fe9cea40050faed2a0fc40e0c6ffd25ca212764f089185e8661acc",
      "assetIds": []
    },
    {
      "x": 19,
      "y": 92,
      "size": 1,
      "price": "1011000000000000000000",
      "reserved": "",
      "salt": "0xff75ffaa6032288c2abfc1c6dc4853120f27879a2ed696de77537af45edc610f",
      "assetIds": []
    },
    {
      "x": 20,
      "y": 92,
      "size": 1,
      "price": "1011000000000000000000",
      "reserved": "",
      "salt": "0xcdd010277319425bb77f4bd5cb30cb2028c538786050c79e7b8ed0719689f304",
      "assetIds": []
    },
    {
      "x": 21,
      "y": 92,
      "size": 1,
      "price": "1011000000000000000000",
      "reserved": "",
      "salt": "0xfde1f7e813b445e17846c7daf1ff7d7397d7d25f4b8b00e23b7063e09fde8cba",
      "assetIds": []
    },
    {
      "x": 22,
      "y": 92,
      "size": 1,
      "price": "1011000000000000000000",
      "reserved": "",
      "salt": "0xdaa7ef8c4b98d291c37ad29533bc674e3bc7e7e2b010197f5bab7a2e1cf28ddf",
      "assetIds": []
    },
    {
      "x": 18,
      "y": 91,
      "size": 1,
      "price": "1011000000000000000000",
      "reserved": "",
      "salt": "0x71cb286ccb7482a8a3ce48f9599bd553e6bc07cf0aae0e1fbd7002d70dac36ce",
      "assetIds": []
    },
    {
      "x": 17,
      "y": 89,
      "size": 1,
      "price": "1011000000000000000000",
      "reserved": "",
      "salt": "0xbd59c383da92c4e710e885a98abe74f75431d473fc00c644de8b5a8d37bcaab3",
      "assetIds": []
    },
    {
      "x": 17,
      "y": 88,
      "size": 1,
      "price": "1011000000000000000000",
      "reserved": "",
      "salt": "0xa37bdd27636cac31c4f002d0b0b0ec6d9d544c3236158beec0d2181410eafe0f",
      "assetIds": []
    },
    {
      "x": 21,
      "y": 91,
      "size": 1,
      "price": "1011000000000000000000",
      "reserved": "",
      "salt": "0x553d15b97c4964fbc895e49c66966122d0916d04155d81acf235440f379ac451",
      "assetIds": []
    },
    {
      "x": 20,
      "y": 91,
      "size": 1,
      "price": "1011000000000000000000",
      "reserved": "",
      "salt": "0xc8956690af2df6cdb44f27f77e862e4a727f4663a95e2fd4c63bbccfee2a3fd7",
      "assetIds": []
    },
    {
      "x": 18,
      "y": 94,
      "size": 1,
      "price": "1011000000000000000000",
      "reserved": "",
      "salt": "0xe5c5222fed9f1b2e736cad07cbfff55402d328e7c0f0d8645c78a6bcf841631a",
      "assetIds": []
    },
    {
      "x": 17,
      "y": 94,
      "size": 1,
      "price": "1011000000000000000000",
      "reserved": "",
      "salt": "0x557cbb2812f82ed4b710f6687d1f437e3ee0cd6b760f410f1321754f1043939c",
      "assetIds": []
    },
    {
      "x": 19,
      "y": 94,
      "size": 1,
      "price": "1011000000000000000000",
      "reserved": "",
      "salt": "0x37b43582b471b3920b2f510a0689795a1af45e5954d15c556adaa13f4d370721",
      "assetIds": []
    },
    {
      "x": 20,
      "y": 94,
      "size": 1,
      "price": "1011000000000000000000",
      "reserved": "",
      "salt": "0x0f5bd3f617b0fe2f0695ae023b65337f57d5f7e32de7343298bf818eda19742e",
      "assetIds": []
    },
    {
      "x": 21,
      "y": 94,
      "size": 1,
      "price": "1011000000000000000000",
      "reserved": "",
      "salt": "0xa899f2ecdebec5dfb9e1c948c3d8f466befd528406e01fc452ef6a4a66cfde46",
      "assetIds": []
    },
    {
      "x": 22,
      "y": 94,
      "size": 1,
      "price": "1011000000000000000000",
      "reserved": "",
      "salt": "0xc0f66061338b89a31995cc5c45eaec566d2842029ec963a268b6e4ab7f0530a2",
      "assetIds": []
    },
    {
      "x": 18,
      "y": 92,
      "size": 1,
      "price": "1011000000000000000000",
      "reserved": "",
      "salt": "0x511ab1d24705d201d9d8b1faf23d615edc0d62917c03eac76075a740d312cbb3",
      "assetIds": []
    },
    {
      "x": 13,
      "y": 126,
      "size": 1,
      "price": "1011000000000000000000",
      "reserved": "",
      "salt": "0x937e9f5e5be75cec3c9ebe586a902376973eb15bf39f9075333caf18a7ab9658",
      "assetIds": []
    },
    {
      "x": 13,
      "y": 127,
      "size": 1,
      "price": "1011000000000000000000",
      "reserved": "",
      "salt": "0x6dab7910d872491bb73e8bf1d90f4412b8c827bb6438f7276947c5e9afb3bd5a",
      "assetIds": []
    },
    {
      "x": 12,
      "y": 127,
      "size": 1,
      "price": "1011000000000000000000",
      "reserved": "",
      "salt": "0x2477866838c83bcf5724cc3a945e8bcc6f5cbc212190170eb5fc25c97f0a5885",
      "assetIds": []
    },
    {
      "x": 14,
      "y": 127,
      "size": 1,
      "price": "1011000000000000000000",
      "reserved": "",
      "salt": "0x947f6519414a6a57ea1933b46ea148b87c95001009580f3a9886a85b835ec341",
      "assetIds": []
    },
    {
      "x": 14,
      "y": 126,
      "size": 1,
      "price": "1011000000000000000000",
      "reserved": "",
      "salt": "0xe96b2d2823d6444fb6fb84c784a4a0d7f4b4faaed9214e721fdbd2d11cd79376",
      "assetIds": []
    },
    {
      "x": 13,
      "y": 128,
      "size": 1,
      "price": "1011000000000000000000",
      "reserved": "",
      "salt": "0x3c736eab4fc1cab40dfbe7794f984df2a2224bbfc023cdcd3663c727317a3e3c",
      "assetIds": []
    },
    {
      "x": 14,
      "y": 128,
      "size": 1,
      "price": "1011000000000000000000",
      "reserved": "",
      "salt": "0x0fdadb22e08bbe43abdcd42e0ac92485114df70a151333aea3cdc13f8648ff86",
      "assetIds": []
    },
    {
      "x": 12,
      "y": 126,
      "size": 1,
      "price": "1011000000000000000000",
      "reserved": "",
      "salt": "0x26c53f60d72d06ffd4037bebbc63ed292f23d09e65b814c189ecb3f7a447edd3",
      "assetIds": []
    },
    {
      "x": 12,
      "y": 128,
      "size": 1,
      "price": "1011000000000000000000",
      "reserved": "",
      "salt": "0x3a3f2064dcdc736b0a531f1b1bb811e86de69d90ff068aa25e93ab9d7b4e345c",
      "assetIds": []
    },
    {
      "x": 15,
      "y": 130,
      "size": 1,
      "price": "1011000000000000000000",
      "reserved": "",
      "salt": "0x2d10ba3d7dcbbf259ff5e95f58f495254055ce4fc1d9de4a9317f85b29573ba7",
      "assetIds": []
    },
    {
      "x": 16,
      "y": 130,
      "size": 1,
      "price": "1011000000000000000000",
      "reserved": "",
      "salt": "0xdef0bef5f3df3603232f5f14a1a604ae29e28d3483f253e496f9307148500975",
      "assetIds": []
    },
    {
      "x": 17,
      "y": 130,
      "size": 1,
      "price": "1011000000000000000000",
      "reserved": "",
      "salt": "0x8484be07c0fc1775a3afc76dfbbb94840233d376d0b90dce110a881264c08747",
      "assetIds": []
    },
    {
      "x": 17,
      "y": 129,
      "size": 1,
      "price": "1011000000000000000000",
      "reserved": "",
      "salt": "0x5c4856f4696a7dc708ab32b57ee8c8a848646c5146168ec8530ac0587dd08e70",
      "assetIds": []
    },
    {
      "x": 16,
      "y": 129,
      "size": 1,
      "price": "1011000000000000000000",
      "reserved": "",
      "salt": "0xa0b8fab6c425442a1a48789b5049bb8e715f9ce1dcdbfe877f483f4cfd357af6",
      "assetIds": []
    },
    {
      "x": 16,
      "y": 131,
      "size": 1,
      "price": "1011000000000000000000",
      "reserved": "",
      "salt": "0x44c1eaca72b3ac17503fdd6f52c54ebce75607f715ac3d99cf77340fe4311c1a",
      "assetIds": []
    },
    {
      "x": 15,
      "y": 129,
      "size": 1,
      "price": "1011000000000000000000",
      "reserved": "",
      "salt": "0x193bb96faae4bff44a9458ba68bb108ec540dbe2f813e5c2b405763743f6cc33",
      "assetIds": []
    },
    {
      "x": 15,
      "y": 131,
      "size": 1,
      "price": "1011000000000000000000",
      "reserved": "",
      "salt": "0x9820e92400d46e056d4fe8cb917c5367f6c03328ae4bfe943ad72530a7589c7a",
      "assetIds": []
    },
    {
      "x": 17,
      "y": 131,
      "size": 1,
      "price": "1011000000000000000000",
      "reserved": "",
      "salt": "0x1e7d481054f58e3d77849e8e6e2397cc064d7cad6101750b34a6a272eb224c99",
      "assetIds": []
    },
    {
      "x": 25,
      "y": 131,
      "size": 1,
      "price": "1011000000000000000000",
      "reserved": "",
      "salt": "0x8bef92efa8a12b070c72dc4c3599b1717b718d0c450512fe82ce33769a4f7702",
      "assetIds": []
    },
    {
      "x": 26,
      "y": 131,
      "size": 1,
      "price": "1011000000000000000000",
      "reserved": "",
      "salt": "0xfff225a9f967018fe24d3c12a498155897e72206eb0b6d57a034858b08146c69",
      "assetIds": []
    },
    {
      "x": 27,
      "y": 131,
      "size": 1,
      "price": "1011000000000000000000",
      "reserved": "",
      "salt": "0x204fcc744ee2905ee69aae569e792c69ca4760034af287fb6b412ab7f3072afb",
      "assetIds": []
    },
    {
      "x": 28,
      "y": 131,
      "size": 1,
      "price": "1011000000000000000000",
      "reserved": "",
      "salt": "0x165429b681ec8d48eb796c1810b2f2dd57c15e69f40bc6e27724f82f053ec3ff",
      "assetIds": []
    },
    {
      "x": 29,
      "y": 131,
      "size": 1,
      "price": "1011000000000000000000",
      "reserved": "",
      "salt": "0xab4b370ad9103392f1a408d67ec2cf9cbdee6e57225d76f9b05b4e0e11925f97",
      "assetIds": []
    },
    {
      "x": 29,
      "y": 130,
      "size": 1,
      "price": "1011000000000000000000",
      "reserved": "",
      "salt": "0x0c891731cbe1c380c3bffb7fc86b92965fa6409800f2da1158fd25a25f60d995",
      "assetIds": []
    },
    {
      "x": 29,
      "y": 129,
      "size": 1,
      "price": "1011000000000000000000",
      "reserved": "",
      "salt": "0x3368584289da32a27088c1aeecf732523e6dc81e942a2133344813020812786f",
      "assetIds": []
    },
    {
      "x": 29,
      "y": 128,
      "size": 1,
      "price": "1011000000000000000000",
      "reserved": "",
      "salt": "0x250117e284c1e28c9fb0110f07fec57fcb464e940118a62b795bb0d4b0ab4ef5",
      "assetIds": []
    },
    {
      "x": 29,
      "y": 127,
      "size": 1,
      "price": "1011000000000000000000",
      "reserved": "",
      "salt": "0x1799b3dab505eee77b0746854ca8ea5e173881119ab5ef921718b00b5625cf1b",
      "assetIds": []
    },
    {
      "x": 29,
      "y": 126,
      "size": 1,
      "price": "1011000000000000000000",
      "reserved": "",
      "salt": "0xc335af1d8822bbce7658d8bf8bfe05c55390c711c242094cd77d534e26bd4687",
      "assetIds": []
    },
    {
      "x": 29,
      "y": 125,
      "size": 1,
      "price": "1011000000000000000000",
      "reserved": "",
      "salt": "0x593485ac9eef2c8873a653596606fecad89775f46ed1d05f97bfd511412221a5",
      "assetIds": []
    },
    {
      "x": 29,
      "y": 124,
      "size": 1,
      "price": "1011000000000000000000",
      "reserved": "",
      "salt": "0x301e32e97437b6d2da16d5887bd6c099fc254b0566485f33f96817eb8b2b438c",
      "assetIds": []
    },
    {
      "x": 29,
      "y": 123,
      "size": 1,
      "price": "1011000000000000000000",
      "reserved": "",
      "salt": "0x2298c8d786c9e89901a1b52c3989186705ffb0103b5964e22aa5543d8c487e74",
      "assetIds": []
    },
    {
      "x": 29,
      "y": 122,
      "size": 1,
      "price": "1011000000000000000000",
      "reserved": "",
      "salt": "0x436d50956456610273fcca2c6b95b5031c3b968ebbc3c5d9185d123ed18200c7",
      "assetIds": []
    },
    {
      "x": 29,
      "y": 121,
      "size": 1,
      "price": "1011000000000000000000",
      "reserved": "",
      "salt": "0xa027730059efa2f21ff3c98d663e4b9c842fc33db51103d4c257992f17433199",
      "assetIds": []
    },
    {
      "x": 29,
      "y": 120,
      "size": 1,
      "price": "1011000000000000000000",
      "reserved": "",
      "salt": "0x1e0339abeb3d827736f1970619e6152346d2e5351ded25181947e6fc97ac575b",
      "assetIds": []
    },
    {
      "x": 29,
      "y": 119,
      "size": 1,
      "price": "1011000000000000000000",
      "reserved": "",
      "salt": "0xe343979c5742c4689f9efab1c38203b93c514d45dba38849bf242e51ceeae2db",
      "assetIds": []
    },
    {
      "x": 29,
      "y": 118,
      "size": 1,
      "price": "1011000000000000000000",
      "reserved": "",
      "salt": "0x917042a956051cce9327a4d2a774a9ee8db570b9bf01334a744a685f3231b546",
      "assetIds": []
    },
    {
      "x": 29,
      "y": 117,
      "size": 1,
      "price": "1011000000000000000000",
      "reserved": "",
      "salt": "0x4c5d3b741ea8f8f33ea026221d1a6ffbe08f6ec5d2eaeb261d24fe272c3a8c63",
      "assetIds": []
    },
    {
      "x": 29,
      "y": 116,
      "size": 1,
      "price": "1011000000000000000000",
      "reserved": "",
      "salt": "0x0fc8954c86123515fcd4d43b3d1e202dbb1bf8e5054b237c1a7a1fd7b6ac6e81",
      "assetIds": []
    },
    {
      "x": 29,
      "y": 115,
      "size": 1,
      "price": "1011000000000000000000",
      "reserved": "",
      "salt": "0xbf28d7a7523c78b65e4435bbefdf06b6fa822d69a24f5bfab4698bdef5023351",
      "assetIds": []
    },
    {
      "x": 29,
      "y": 114,
      "size": 1,
      "price": "1011000000000000000000",
      "reserved": "",
      "salt": "0x80e4df1d72048fda9781debc7bf93df2cb28a943459726aecdc360b588069b3a",
      "assetIds": []
    },
    {
      "x": 29,
      "y": 113,
      "size": 1,
      "price": "1011000000000000000000",
      "reserved": "",
      "salt": "0x01b84d9ae1678ce0ccd284feb67e7813809ea9044eafae91e23a94bd85d82b3b",
      "assetIds": []
    },
    {
      "x": 30,
      "y": 113,
      "size": 1,
      "price": "1011000000000000000000",
      "reserved": "",
      "salt": "0x3cecf909919482377a7b39723db85ec3c4cd62f6a2420913cea8dfc1a25159d9",
      "assetIds": []
    },
    {
      "x": 31,
      "y": 113,
      "size": 1,
      "price": "1011000000000000000000",
      "reserved": "",
      "salt": "0xbb8e7ba39db08ea98bf611681fde7c544f54d8215ab516c924d289d837192d69",
      "assetIds": []
    },
    {
      "x": 31,
      "y": 112,
      "size": 1,
      "price": "1011000000000000000000",
      "reserved": "",
      "salt": "0xeb1827a0c29cfddd003162d9c37683961eade94fffd534519045e8607789464d",
      "assetIds": []
    },
    {
      "x": 31,
      "y": 111,
      "size": 1,
      "price": "1011000000000000000000",
      "reserved": "",
      "salt": "0xd7c290ccbb47edaae69383069af7348f82710bf2c584c1b5606166ea79f1df35",
      "assetIds": []
    },
    {
      "x": 31,
      "y": 110,
      "size": 1,
      "price": "1011000000000000000000",
      "reserved": "",
      "salt": "0x022a37f7e1fe2cb18a66ebee42fc7da3fbc33bbcb7bcd0be90bb696733b3ec74",
      "assetIds": []
    },
    {
      "x": 31,
      "y": 109,
      "size": 1,
      "price": "1011000000000000000000",
      "reserved": "",
      "salt": "0x69b9ad162c89bbc78e6bbcddd85a27441f5583fe89cdd9efcd6b40315d4cb908",
      "assetIds": []
    },
    {
      "x": 32,
      "y": 109,
      "size": 1,
      "price": "1011000000000000000000",
      "reserved": "",
      "salt": "0x1904943433f6731ae23dbc5550181caaea6be79763f5e8427bf16c8f679be228",
      "assetIds": []
    },
    {
      "x": 32,
      "y": 108,
      "size": 1,
      "price": "1011000000000000000000",
      "reserved": "",
      "salt": "0x94fc2361af5a8f8aca198551851390eb20267c60384158623d323988d6fcbc27",
      "assetIds": []
    },
    {
      "x": 31,
      "y": 108,
      "size": 1,
      "price": "1011000000000000000000",
      "reserved": "",
      "salt": "0x9d9f498ab765d5ba8e02451aef389df9824883ee7a0e36268df32dda2abcb68a",
      "assetIds": []
    },
    {
      "x": 30,
      "y": 108,
      "size": 1,
      "price": "1011000000000000000000",
      "reserved": "",
      "salt": "0x6f4a158cd5f82edb62620f7128be83cb1daae0c74584de6144dfc498673b4fd3",
      "assetIds": []
    },
    {
      "x": 29,
      "y": 108,
      "size": 1,
      "price": "1011000000000000000000",
      "reserved": "",
      "salt": "0xd88fbc6c4567e02b0324842a2b833649ee3ffa5d23655f44fb56519bdd8c0868",
      "assetIds": []
    },
    {
      "x": 28,
      "y": 108,
      "size": 1,
      "price": "1011000000000000000000",
      "reserved": "",
      "salt": "0x4e13545ef34592124bfb7bd37907bf6708ceedb5fab5036cc7f0522a36ec0807",
      "assetIds": []
    },
    {
      "x": 27,
      "y": 108,
      "size": 1,
      "price": "1011000000000000000000",
      "reserved": "",
      "salt": "0xd5edde4cd76a341761d5b6e4715c065b0192885272d7fcc4bde37ae11f40348b",
      "assetIds": []
    },
    {
      "x": 26,
      "y": 108,
      "size": 1,
      "price": "1011000000000000000000",
      "reserved": "",
      "salt": "0xad3db7f0e1f5111be062addf435222be61dd08cfdc8a491d42f66642277c0d5f",
      "assetIds": []
    },
    {
      "x": 25,
      "y": 108,
      "size": 1,
      "price": "1011000000000000000000",
      "reserved": "",
      "salt": "0xf8a69b6ac37d3a337ecfe478c4081c8771b82737ebc830aedc9e340af02ebead",
      "assetIds": []
    },
    {
      "x": 24,
      "y": 108,
      "size": 1,
      "price": "1011000000000000000000",
      "reserved": "",
      "salt": "0x398cddebe9cea625c068fb37ad425d7d6f99e42df4c929a3ce9b5e93ac2125e3",
      "assetIds": []
    },
    {
      "x": 24,
      "y": 109,
      "size": 1,
      "price": "1011000000000000000000",
      "reserved": "",
      "salt": "0x0b1757032baffe6cfc9063f3a9b9a8f1677c1230eb65f1aadb343d815e3e89a6",
      "assetIds": []
    },
    {
      "x": 25,
      "y": 110,
      "size": 1,
      "price": "1011000000000000000000",
      "reserved": "",
      "salt": "0x70bb987493b8a5dd3634171fb94dcf6f53fade5a216cd783d688376b4ed172d9",
      "assetIds": []
    },
    {
      "x": 25,
      "y": 111,
      "size": 1,
      "price": "1011000000000000000000",
      "reserved": "",
      "salt": "0xe951266662abba7a7e556b61a31dd4a95bf42650d63197982f7ea70ece6b6586",
      "assetIds": []
    },
    {
      "x": 25,
      "y": 112,
      "size": 1,
      "price": "1011000000000000000000",
      "reserved": "",
      "salt": "0x3a6e99841367d9b10e5253f97a3745e046d88747d8868314fc73356c46300425",
      "assetIds": []
    },
    {
      "x": 26,
      "y": 112,
      "size": 1,
      "price": "1011000000000000000000",
      "reserved": "",
      "salt": "0x9556f15d1d8867fe6618475c91de8fb4f12d2b69d2ddd45bb52183e898decea6",
      "assetIds": []
    },
    {
      "x": 27,
      "y": 112,
      "size": 1,
      "price": "1011000000000000000000",
      "reserved": "",
      "salt": "0xffc4480f34595d55697f01d939d0355ea22dc9e823243e7c7654e9ff9fe1c79f",
      "assetIds": []
    },
    {
      "x": 28,
      "y": 112,
      "size": 1,
      "price": "1011000000000000000000",
      "reserved": "",
      "salt": "0xdc6e8353965858398292592e37cd869af4c9b2d6f4be7c2384c8a1c441f6ccf2",
      "assetIds": []
    },
    {
      "x": 29,
      "y": 112,
      "size": 1,
      "price": "1011000000000000000000",
      "reserved": "",
      "salt": "0x4e27f72e737428a741de131b9e16ac68f73a392cc155829ba0ab96ce15d7f870",
      "assetIds": []
    },
    {
      "x": 30,
      "y": 112,
      "size": 1,
      "price": "1011000000000000000000",
      "reserved": "",
      "salt": "0xb9481b586e63df422b3379ef03b8d4185d0fd086b07241131e118258a36da015",
      "assetIds": []
    },
    {
      "x": 32,
      "y": 113,
      "size": 1,
      "price": "1011000000000000000000",
      "reserved": "",
      "salt": "0x38ea68c3fbb4391f1970bb8547946ca350952f85b7bd72ac7ff199e95dfab5f0",
      "assetIds": []
    },
    {
      "x": 32,
      "y": 112,
      "size": 1,
      "price": "1011000000000000000000",
      "reserved": "",
      "salt": "0xf1d7bb580545d0eee3233567c31db4042fbf669971c1d5cfe0261c64245df8ea",
      "assetIds": []
    },
    {
      "x": 32,
      "y": 111,
      "size": 1,
      "price": "1011000000000000000000",
      "reserved": "",
      "salt": "0x5c2fd3ff983ae887b04da7c61bb43f8f44d75997fc72be46e58ff37fb211a621",
      "assetIds": []
    },
    {
      "x": 32,
      "y": 110,
      "size": 1,
      "price": "1011000000000000000000",
      "reserved": "",
      "salt": "0x245b1abd0ccdbf38457523e67c66070ff5317bb0db5738adcff637953e409cd2",
      "assetIds": []
    },
    {
      "x": 30,
      "y": 109,
      "size": 1,
      "price": "1011000000000000000000",
      "reserved": "",
      "salt": "0x5ab0233083df4681d8f92fa165e636ad244251e3c5d58776729be05c6c7bfeca",
      "assetIds": []
    },
    {
      "x": 29,
      "y": 109,
      "size": 1,
      "price": "1011000000000000000000",
      "reserved": "",
      "salt": "0xab553e2470a5b6a68fa3126ae9ff30355d4fce48275e0b54eb4d47a66ab7ae66",
      "assetIds": []
    },
    {
      "x": 28,
      "y": 109,
      "size": 1,
      "price": "1011000000000000000000",
      "reserved": "",
      "salt": "0x623ed1b8a06ad59f4e8bd86c8ba633c1728b3f675af20e02a1785ba5da627683",
      "assetIds": []
    },
    {
      "x": 27,
      "y": 109,
      "size": 1,
      "price": "1011000000000000000000",
      "reserved": "",
      "salt": "0x76b51dbbe01f0b54ac7424cb82c47420b7cc8ff89dd382facebb3f8ae0fd4a5e",
      "assetIds": []
    },
    {
      "x": 26,
      "y": 109,
      "size": 1,
      "price": "1011000000000000000000",
      "reserved": "",
      "salt": "0x1f4ab97b894dec05b5d6352f7ce968eb68b5bde09eb9550b18b3e1b2cc7ff043",
      "assetIds": []
    },
    {
      "x": 25,
      "y": 109,
      "size": 1,
      "price": "1011000000000000000000",
      "reserved": "",
      "salt": "0x83a2ca94ff379705d292bcf5b2013c91779d7b6ee5292ef880277df64e244778",
      "assetIds": []
    },
    {
      "x": 24,
      "y": 110,
      "size": 1,
      "price": "1011000000000000000000",
      "reserved": "",
      "salt": "0x51269408e98afe0cac04779763723c6e5ed37da5295ea71a0d4cdd11b14f8432",
      "assetIds": []
    },
    {
      "x": 24,
      "y": 111,
      "size": 1,
      "price": "1011000000000000000000",
      "reserved": "",
      "salt": "0x10c6867324121e3ed067316592429a6c45eaa674c1cef5541be1dbb1df49d2b1",
      "assetIds": []
    },
    {
      "x": 24,
      "y": 112,
      "size": 1,
      "price": "1011000000000000000000",
      "reserved": "",
      "salt": "0x99647e334ced1f6a46379c6ee92563268ae7f3c1481cf89cfb3ea48fbb647514",
      "assetIds": []
    },
    {
      "x": 24,
      "y": 113,
      "size": 1,
      "price": "1011000000000000000000",
      "reserved": "",
      "salt": "0x4074b8477fbccb5ee835c9f3a8866267c9998d1079f10484ac0d63fb5d4e509b",
      "assetIds": []
    },
    {
      "x": 25,
      "y": 113,
      "size": 1,
      "price": "1011000000000000000000",
      "reserved": "",
      "salt": "0x422167d8efc406bc8332c55a15389b37c64b8d899ed6b606cb88b8d768266e42",
      "assetIds": []
    },
    {
      "x": 26,
      "y": 113,
      "size": 1,
      "price": "1011000000000000000000",
      "reserved": "",
      "salt": "0x81a138e3b02b2c7cb0e4607de80984f37385ef07c851fb3cd107e48cd7680942",
      "assetIds": []
    },
    {
      "x": 29,
      "y": 111,
      "size": 1,
      "price": "1011000000000000000000",
      "reserved": "",
      "salt": "0xd7156dbd7d29f15d10da73c1a06ab5957bf9fc8b8147bdca2526c8bb033f9c61",
      "assetIds": []
    },
    {
      "x": 30,
      "y": 111,
      "size": 1,
      "price": "1011000000000000000000",
      "reserved": "",
      "salt": "0xb3792a2f2419eb3a43782caab86a5375c196c8dc7ed6dc49817a712a7226aeeb",
      "assetIds": []
    },
    {
      "x": 30,
      "y": 110,
      "size": 1,
      "price": "1011000000000000000000",
      "reserved": "",
      "salt": "0xe6d09a4bf8d335fff9e66d2fcee221d6968cf9889a79d91419647f000ae0907b",
      "assetIds": []
    },
    {
      "x": 29,
      "y": 110,
      "size": 1,
      "price": "1011000000000000000000",
      "reserved": "",
      "salt": "0xdedb26b1d2d0f773245683a3043d8869015062c506eac580869ab2e0e1182a9d",
      "assetIds": []
    },
    {
      "x": 28,
      "y": 110,
      "size": 1,
      "price": "1011000000000000000000",
      "reserved": "",
      "salt": "0xd7825e4df3d50bc9e32209e414a6609c29793c447c6ed54fa5811e7cc2d3b5d0",
      "assetIds": []
    },
    {
      "x": 27,
      "y": 110,
      "size": 1,
      "price": "1011000000000000000000",
      "reserved": "",
      "salt": "0xfb56ae5389ad39d60642e1cacd8b892daee5cd9e71d4eb871b8f29258304be5f",
      "assetIds": []
    },
    {
      "x": 26,
      "y": 110,
      "size": 1,
      "price": "1011000000000000000000",
      "reserved": "",
      "salt": "0x03f3dfaa2fe7d147f794e3d7d19f0d5742ee0d2f6cadd347e2bee88a98558160",
      "assetIds": []
    },
    {
      "x": 27,
      "y": 111,
      "size": 1,
      "price": "1011000000000000000000",
      "reserved": "",
      "salt": "0x23351de1a51811ff77049e85ac8c8ba15c3b091942045d0f4b62c5f7ab967ce8",
      "assetIds": []
    },
    {
      "x": 26,
      "y": 111,
      "size": 1,
      "price": "1011000000000000000000",
      "reserved": "",
      "salt": "0x7bd49ab8ddb8598a4228adbc35b3b12ab8eba571655a46dd9f76bc540d4686bb",
      "assetIds": []
    },
    {
      "x": 28,
      "y": 111,
      "size": 1,
      "price": "1011000000000000000000",
      "reserved": "",
      "salt": "0x87ebb7a43e6dd302930056ee6658a72010c910641762115cb96fcf3ea629fc11",
      "assetIds": []
    },
    {
      "x": 27,
      "y": 113,
      "size": 1,
      "price": "1011000000000000000000",
      "reserved": "",
      "salt": "0x981518925fed48ea4c56233e35fd177e6cda88a1aaa13119bd4341ceeeadc412",
      "assetIds": []
    },
    {
      "x": 27,
      "y": 114,
      "size": 1,
      "price": "1011000000000000000000",
      "reserved": "",
      "salt": "0x09cd887873c16950ed19aba5d023c3b0b616543f96f122904b5270c631cb3595",
      "assetIds": []
    },
    {
      "x": 27,
      "y": 115,
      "size": 1,
      "price": "1011000000000000000000",
      "reserved": "",
      "salt": "0x180def4365d1cc7a3329d8d3c039ee490bd0acf8fed89d99c158915f98843c34",
      "assetIds": []
    },
    {
      "x": 26,
      "y": 117,
      "size": 1,
      "price": "1011000000000000000000",
      "reserved": "",
      "salt": "0x7e61dba9d4078cce2d8ee8f8d1ea1cef765104ab5a23f395ca11049ed0fad316",
      "assetIds": []
    },
    {
      "x": 26,
      "y": 118,
      "size": 1,
      "price": "1011000000000000000000",
      "reserved": "",
      "salt": "0x652ff01bf7dd559cc8a383566c53213ce12505ead902477d5534f3b8d1d2b061",
      "assetIds": []
    },
    {
      "x": 26,
      "y": 119,
      "size": 1,
      "price": "1011000000000000000000",
      "reserved": "",
      "salt": "0x1a0291f848cb42c6e710367cd3a379f74698275bf84aa201c3dd245445614192",
      "assetIds": []
    },
    {
      "x": 26,
      "y": 120,
      "size": 1,
      "price": "1011000000000000000000",
      "reserved": "",
      "salt": "0x6b0f55996f1f8bd6c18927854c6f498c5a7d7afeb408c7b36f59bb3603aa908f",
      "assetIds": []
    },
    {
      "x": 26,
      "y": 121,
      "size": 1,
      "price": "1011000000000000000000",
      "reserved": "",
      "salt": "0x8865e6ba9a300b30fd8299a281ca53eb950f5f959313abefc0299bc35d28d446",
      "assetIds": []
    },
    {
      "x": 26,
      "y": 122,
      "size": 1,
      "price": "1011000000000000000000",
      "reserved": "",
      "salt": "0x67d4a60b22f34f9964a6fe30abce293d71f985d6d878294a78c828b7274401cc",
      "assetIds": []
    },
    {
      "x": 27,
      "y": 122,
      "size": 1,
      "price": "1011000000000000000000",
      "reserved": "",
      "salt": "0x8f090aa6f1f177a33561b7a3cbfd07bb771808d1f664cec2349c6818e2a8f862",
      "assetIds": []
    },
    {
      "x": 27,
      "y": 123,
      "size": 1,
      "price": "1011000000000000000000",
      "reserved": "",
      "salt": "0xf2edc1635cbb3ba113ab34ff303286cf02e655bde5a333904d2e2fb5a9787823",
      "assetIds": []
    },
    {
      "x": 27,
      "y": 124,
      "size": 1,
      "price": "1011000000000000000000",
      "reserved": "",
      "salt": "0xd4f2874b1746cd820a47693883518cf8a50229fe0e542a97e50ab6928a3efd1e",
      "assetIds": []
    },
    {
      "x": 26,
      "y": 125,
      "size": 1,
      "price": "1011000000000000000000",
      "reserved": "",
      "salt": "0x5e15dc977d0f374ed9b8c3103719c32e95ad14723b0a112282ec7a9fa73d17f6",
      "assetIds": []
    },
    {
      "x": 25,
      "y": 125,
      "size": 1,
      "price": "1011000000000000000000",
      "reserved": "",
      "salt": "0x5cd4b460569433d4e62d841918735d7bf1834d9a0bd46076a31e39178f0ead8a",
      "assetIds": []
    },
    {
      "x": 24,
      "y": 125,
      "size": 1,
      "price": "1011000000000000000000",
      "reserved": "",
      "salt": "0x746f8b2f602f68cc884a1f1e0cd2fdcb23127117e2eb6b75eb94aa5766eb9010",
      "assetIds": []
    },
    {
      "x": 23,
      "y": 124,
      "size": 1,
      "price": "1011000000000000000000",
      "reserved": "",
      "salt": "0x1b8b308b1bf56a64e2d4eccc5308974173f9d108215b7cf703f772bf91fb9a29",
      "assetIds": []
    },
    {
      "x": 22,
      "y": 124,
      "size": 1,
      "price": "1011000000000000000000",
      "reserved": "",
      "salt": "0x3c9089b4c3fb9015151392dc09fb201a5ea568c85ea258c4d59af7581ceea0f9",
      "assetIds": []
    },
    {
      "x": 21,
      "y": 124,
      "size": 1,
      "price": "1011000000000000000000",
      "reserved": "",
      "salt": "0x52aca557053e7e241039ddbcf79a5f5d3722ab6b53a3d1b679ac4f75ab2cd46b",
      "assetIds": []
    },
    {
      "x": 20,
      "y": 124,
      "size": 1,
      "price": "1011000000000000000000",
      "reserved": "",
      "salt": "0xcd99d9ff6991085f84804cebc435ed9cbdb96c5cbfc14f645af4200438a38a51",
      "assetIds": []
    },
    {
      "x": 20,
      "y": 125,
      "size": 1,
      "price": "1011000000000000000000",
      "reserved": "",
      "salt": "0xb6167575ba2b013fdee15474d8bb866f6e4382f4255097099bb873ec62c58cc9",
      "assetIds": []
    },
    {
      "x": 19,
      "y": 125,
      "size": 1,
      "price": "1011000000000000000000",
      "reserved": "",
      "salt": "0x3f573e5d0ada22acc099cf2667e6a0548f40c13e0a2c8484b078df3068991a3d",
      "assetIds": []
    },
    {
      "x": 18,
      "y": 125,
      "size": 1,
      "price": "1011000000000000000000",
      "reserved": "",
      "salt": "0x54119e09a153426c7e70d6917ec71d55a7f35f871aa958c27dceac2a84d36e96",
      "assetIds": []
    },
    {
      "x": 19,
      "y": 124,
      "size": 1,
      "price": "1011000000000000000000",
      "reserved": "",
      "salt": "0x61b738a81025fd5eb0dde26bdbf9a05e3e30f641258ac4bc781136c6aa7abaa3",
      "assetIds": []
    },
    {
      "x": 24,
      "y": 124,
      "size": 1,
      "price": "1011000000000000000000",
      "reserved": "",
      "salt": "0x7c997dd4c072f1d5b3cd178ff9d43120e8e12808e2328ad9b63a904c2b5086f4",
      "assetIds": []
    },
    {
      "x": 25,
      "y": 124,
      "size": 1,
      "price": "1011000000000000000000",
      "reserved": "",
      "salt": "0x3500194390f88fde0cf4643c0d0973dd4799f3110b0c08a86778cce19eae466f",
      "assetIds": []
    },
    {
      "x": 23,
      "y": 125,
      "size": 1,
      "price": "1011000000000000000000",
      "reserved": "",
      "salt": "0xf09fab7dce4791d895c683f91d7bad2ae3541677eda9acea191ad0b8ccb53854",
      "assetIds": []
    },
    {
      "x": 22,
      "y": 125,
      "size": 1,
      "price": "1011000000000000000000",
      "reserved": "",
      "salt": "0xf30a01635f8f19b11047b129e112dbd6ec7352e54e5308bff626f0da082fd051",
      "assetIds": []
    },
    {
      "x": 21,
      "y": 125,
      "size": 1,
      "price": "1011000000000000000000",
      "reserved": "",
      "salt": "0x0c72eac06f2ef3fbd5aff7079703aab8c6ec37fb904254c5b070c1f31dad6ee6",
      "assetIds": []
    },
    {
      "x": 28,
      "y": 125,
      "size": 1,
      "price": "1011000000000000000000",
      "reserved": "",
      "salt": "0x305e6534c98e1dd5fe644f733515e4ce91444f01a3a247ed1d63cbeed4e5adfd",
      "assetIds": []
    },
    {
      "x": 28,
      "y": 126,
      "size": 1,
      "price": "1011000000000000000000",
      "reserved": "",
      "salt": "0x1e4c52f864178179bbcef00fcec8e01ffe8175db4149492aa003e1d638decbb8",
      "assetIds": []
    },
    {
      "x": 27,
      "y": 126,
      "size": 1,
      "price": "1011000000000000000000",
      "reserved": "",
      "salt": "0x996f6fee46fcce4080a918ed00853160291b390a66ba26e64edbc155322b0a6b",
      "assetIds": []
    },
    {
      "x": 27,
      "y": 127,
      "size": 1,
      "price": "1011000000000000000000",
      "reserved": "",
      "salt": "0x2d04781c86b65798179758aaef9af42770047bc5c42bfe642b7b9c876944600c",
      "assetIds": []
    },
    {
      "x": 27,
      "y": 128,
      "size": 1,
      "price": "1011000000000000000000",
      "reserved": "",
      "salt": "0x5503953b4c7ab900c92f2479cc29184ee6d2fb5fb9c6f0049379cf1ba082c138",
      "assetIds": []
    },
    {
      "x": 27,
      "y": 129,
      "size": 1,
      "price": "1011000000000000000000",
      "reserved": "",
      "salt": "0xce03b1a3f062e8eb068266a051769abedd1be742b08bfa8fc1a03d29d002d828",
      "assetIds": []
    },
    {
      "x": 27,
      "y": 130,
      "size": 1,
      "price": "1011000000000000000000",
      "reserved": "",
      "salt": "0xd6f6b4424ed3128a7cdbf89f2638085259665ddf11a1d84e8850c7c264e289d8",
      "assetIds": []
    },
    {
      "x": 26,
      "y": 130,
      "size": 1,
      "price": "1011000000000000000000",
      "reserved": "",
      "salt": "0x55e1fe8d2fa9d7257d01b0bdf556607fe780de5ebb82de35f039830c67889268",
      "assetIds": []
    },
    {
      "x": 25,
      "y": 130,
      "size": 1,
      "price": "1011000000000000000000",
      "reserved": "",
      "salt": "0x9df7ba0e6960b75da93c7abb09d0577f631a728c74aeaee507224f3019085f61",
      "assetIds": []
    },
    {
      "x": 24,
      "y": 131,
      "size": 1,
      "price": "1011000000000000000000",
      "reserved": "",
      "salt": "0x6248ba7b763c18a17a5cc94ee4ef7bb1a9c0afc7e4b6caa7490ad5e1bac0a486",
      "assetIds": []
    },
    {
      "x": 24,
      "y": 130,
      "size": 1,
      "price": "1011000000000000000000",
      "reserved": "",
      "salt": "0x9d6569e0623e55fba3a82a42c5ad97eebb0e1f22d5aedccef70e80a0ae1dd100",
      "assetIds": []
    },
    {
      "x": 24,
      "y": 129,
      "size": 1,
      "price": "1011000000000000000000",
      "reserved": "",
      "salt": "0x979972e35b9e838d313bacf37b55e00ee7fdd3b5475e1eee5416a9bf567091b8",
      "assetIds": []
    },
    {
      "x": 24,
      "y": 126,
      "size": 1,
      "price": "1011000000000000000000",
      "reserved": "",
      "salt": "0x269daa61dc7034311fb6110a058eedc40e4ee69182456df1ac83758c9c8c3107",
      "assetIds": []
    },
    {
      "x": 24,
      "y": 127,
      "size": 1,
      "price": "1011000000000000000000",
      "reserved": "",
      "salt": "0x94839583a56716e37bc28607064d433ee7444b091e323718d289a2f096819fae",
      "assetIds": []
    },
    {
      "x": 24,
      "y": 128,
      "size": 1,
      "price": "1011000000000000000000",
      "reserved": "",
      "salt": "0xa834b4c26ae4111f07dfb5d41678375aab016777325877175492ee2bb85a5929",
      "assetIds": []
    },
    {
      "x": 25,
      "y": 126,
      "size": 1,
      "price": "1011000000000000000000",
      "reserved": "",
      "salt": "0xd0b8be9130c58ca40bc90457607e7b88ca93055eb045f6197712cb6230966792",
      "assetIds": []
    },
    {
      "x": 25,
      "y": 127,
      "size": 1,
      "price": "1011000000000000000000",
      "reserved": "",
      "salt": "0x48f801a5adc488fc81fc0ea9664a0215f38a1787ce9709efbf7932bf0afcf797",
      "assetIds": []
    },
    {
      "x": 25,
      "y": 128,
      "size": 1,
      "price": "1011000000000000000000",
      "reserved": "",
      "salt": "0x14309611dcc8529045467be43e56c4eb95022cc34a403b6c61a88588c10af7da",
      "assetIds": []
    },
    {
      "x": 25,
      "y": 129,
      "size": 1,
      "price": "1011000000000000000000",
      "reserved": "",
      "salt": "0xca73357fd063b21708585893cdad89afbff51dbcb8463f86b1ae21b0a538e38c",
      "assetIds": []
    },
    {
      "x": 26,
      "y": 126,
      "size": 1,
      "price": "1011000000000000000000",
      "reserved": "",
      "salt": "0x78a1ac7ade5381224dbfb82066e60e32e5a477a092d36d0ef3c5463066785721",
      "assetIds": []
    },
    {
      "x": 26,
      "y": 127,
      "size": 1,
      "price": "1011000000000000000000",
      "reserved": "",
      "salt": "0xb88460805f4ffbbcfe0ae3760689e6de551e663d9ebbc1d28a204a63247e08aa",
      "assetIds": []
    },
    {
      "x": 26,
      "y": 128,
      "size": 1,
      "price": "1011000000000000000000",
      "reserved": "",
      "salt": "0x7a4bb5f0bfe42fc3715aa94919833953899e8532e2587f592d15f9d09340aed1",
      "assetIds": []
    },
    {
      "x": 26,
      "y": 129,
      "size": 1,
      "price": "1011000000000000000000",
      "reserved": "",
      "salt": "0x080fc242fe5965170e06e3142593edf74e827fe6180b67d5119442def933f6d1",
      "assetIds": []
    },
    {
      "x": 28,
      "y": 129,
      "size": 1,
      "price": "1011000000000000000000",
      "reserved": "",
      "salt": "0x1510cbb09dc171e4b57b54a1a5029568760abfcecbb50b8be2c305ee564805fa",
      "assetIds": []
    },
    {
      "x": 28,
      "y": 130,
      "size": 1,
      "price": "1011000000000000000000",
      "reserved": "",
      "salt": "0xe17d8f90df24ebf38bea48b200414bc5ed99ca8e8fedca6c00a242a31bf0eefa",
      "assetIds": []
    },
    {
      "x": 28,
      "y": 128,
      "size": 1,
      "price": "1011000000000000000000",
      "reserved": "",
      "salt": "0xbe81b802d0083a7e711162c801ab7c51d8c5e6b1c4805658b3a24ff88f316d79",
      "assetIds": []
    },
    {
      "x": 28,
      "y": 127,
      "size": 1,
      "price": "1011000000000000000000",
      "reserved": "",
      "salt": "0x0fb81bd1718ba9d4c1cac12390d064cb4fa9228e0ef0c6ccb5bb0f89456ead46",
      "assetIds": []
    },
    {
      "x": 28,
      "y": 124,
      "size": 1,
      "price": "1011000000000000000000",
      "reserved": "",
      "salt": "0x2a3302241d4b20710ca5d4650925d1e25aca535b78097e71500c75c4385441b8",
      "assetIds": []
    },
    {
      "x": 28,
      "y": 123,
      "size": 1,
      "price": "1011000000000000000000",
      "reserved": "",
      "salt": "0xe14cd4f3aae62a67cfd43e4b18f31f5992ace9056eb7187497196a17bb88b653",
      "assetIds": []
    },
    {
      "x": 28,
      "y": 122,
      "size": 1,
      "price": "1011000000000000000000",
      "reserved": "",
      "salt": "0x10f93c99dfe57b79cc2d9e37e71e544bc2cc25379a8b687395aff7e81f78bf92",
      "assetIds": []
    },
    {
      "x": 26,
      "y": 124,
      "size": 1,
      "price": "1011000000000000000000",
      "reserved": "",
      "salt": "0x59e0276d51ec698ec6938a194624f88f32590b1ee4cc21a1af45b1a512c4fa0b",
      "assetIds": []
    },
    {
      "x": 27,
      "y": 125,
      "size": 1,
      "price": "1011000000000000000000",
      "reserved": "",
      "salt": "0x644c3dd6f3ec3cfd34e14aae10d8eb62fd34408c75f17cc2cf7d07c21149fb18",
      "assetIds": []
    },
    {
      "x": 25,
      "y": 122,
      "size": 1,
      "price": "1011000000000000000000",
      "reserved": "",
      "salt": "0x6fa46a706bcba77f64c212ab6290ac02f9ba9ef430d045112e35b3e0cd14d603",
      "assetIds": []
    },
    {
      "x": 25,
      "y": 123,
      "size": 1,
      "price": "1011000000000000000000",
      "reserved": "",
      "salt": "0x4217db9b7d8fc80bb8af371c2cd4c93cac9d3a00bb787d98e8d5cdd852e0aef5",
      "assetIds": []
    },
    {
      "x": 24,
      "y": 123,
      "size": 1,
      "price": "1011000000000000000000",
      "reserved": "",
      "salt": "0x7eaa93aa2db4f49c0625b1425006840fdb44b60550f47d464b7cbd21a69c1087",
      "assetIds": []
    },
    {
      "x": 23,
      "y": 123,
      "size": 1,
      "price": "1011000000000000000000",
      "reserved": "",
      "salt": "0xa57ae6831ddac730b5a6fc4b0df1add49f2823dd0ab190427f59d330d841c761",
      "assetIds": []
    },
    {
      "x": 22,
      "y": 123,
      "size": 1,
      "price": "1011000000000000000000",
      "reserved": "",
      "salt": "0xe846b32aba4a57e1aebab39276a39ca1dc731a6f01413b185f669bbe9cd5ab49",
      "assetIds": []
    },
    {
      "x": 21,
      "y": 123,
      "size": 1,
      "price": "1011000000000000000000",
      "reserved": "",
      "salt": "0xca9d83e682eee8acc0ef960cbf5e90507291c0ae5f36697a4481ab3ce4ac963f",
      "assetIds": []
    },
    {
      "x": 20,
      "y": 123,
      "size": 1,
      "price": "1011000000000000000000",
      "reserved": "",
      "salt": "0xe3e619c6662f42ba1f6ff28eb16e39361cfecd266d19607e52c3865357b2f0f7",
      "assetIds": []
    },
    {
      "x": 19,
      "y": 123,
      "size": 1,
      "price": "1011000000000000000000",
      "reserved": "",
      "salt": "0x67ca99ee359fa31a28d7994c20f360c01856ffa34f73b031407062ef4f6b0095",
      "assetIds": []
    },
    {
      "x": 18,
      "y": 123,
      "size": 1,
      "price": "1011000000000000000000",
      "reserved": "",
      "salt": "0x0f9be5a997388415ec174de60eb5c132ef29db19d25c4b8e8e64f593facd6db3",
      "assetIds": []
    },
    {
      "x": 18,
      "y": 124,
      "size": 1,
      "price": "1011000000000000000000",
      "reserved": "",
      "salt": "0x56dead894c1a81dfeda345a75f0ec85071fe0d385a563944adc6718a29f4d730",
      "assetIds": []
    },
    {
      "x": 19,
      "y": 122,
      "size": 1,
      "price": "1011000000000000000000",
      "reserved": "",
      "salt": "0xf29bade494fcd5a86818bb7ce9d92f6a8e4878bf120fc7715de8ded94c70c1ee",
      "assetIds": []
    },
    {
      "x": 19,
      "y": 121,
      "size": 1,
      "price": "1011000000000000000000",
      "reserved": "",
      "salt": "0x3e0a059d3853fc281e2e88ae6e9e232c8d5425e21d67169be2fec67975d5970b",
      "assetIds": []
    },
    {
      "x": 19,
      "y": 120,
      "size": 1,
      "price": "1011000000000000000000",
      "reserved": "",
      "salt": "0x479da26c4e3af049223d5dd42e0bb2df0946fdc2f2752752a9380d067a225de5",
      "assetIds": []
    },
    {
      "x": 20,
      "y": 120,
      "size": 1,
      "price": "1011000000000000000000",
      "reserved": "",
      "salt": "0x6df543f3f1879261032ad0220986be88991123d4ad1370ee25b37e5faabb5cf2",
      "assetIds": []
    },
    {
      "x": 22,
      "y": 120,
      "size": 1,
      "price": "1011000000000000000000",
      "reserved": "",
      "salt": "0x634b262bbcda2dbc2c126122a49d71ac1edf04ce033eb68cca7786d9971a17ea",
      "assetIds": []
    },
    {
      "x": 23,
      "y": 120,
      "size": 1,
      "price": "1011000000000000000000",
      "reserved": "",
      "salt": "0xe6784c4f15dec8df000d802529737e6a2c7dee5ef7495fef25cc83ce9f975320",
      "assetIds": []
    },
    {
      "x": 24,
      "y": 120,
      "size": 1,
      "price": "1011000000000000000000",
      "reserved": "",
      "salt": "0x53a595e0ef50b07737e0279d9021dbb3c0eeba59257e452de920f1e02dd258ff",
      "assetIds": []
    },
    {
      "x": 25,
      "y": 120,
      "size": 1,
      "price": "1011000000000000000000",
      "reserved": "",
      "salt": "0xdfe0cb8267a67c83b0ddbb45c9b638a78818b4f985b12685939f79eb88040533",
      "assetIds": []
    },
    {
      "x": 23,
      "y": 121,
      "size": 1,
      "price": "1011000000000000000000",
      "reserved": "",
      "salt": "0x845cffd512f6d4d421d154e225c61004dfc673c89562b9b46231be815131e6e1",
      "assetIds": []
    },
    {
      "x": 22,
      "y": 121,
      "size": 1,
      "price": "1011000000000000000000",
      "reserved": "",
      "salt": "0x1f74be89ace48b4c4b5501fdb1af724d15c3db9df80603dcdf1990197a382b38",
      "assetIds": []
    },
    {
      "x": 21,
      "y": 121,
      "size": 1,
      "price": "1011000000000000000000",
      "reserved": "",
      "salt": "0x998690e326f8ac131c33d9136bd26adfd9533cd81abed932d9d606db9647a0f8",
      "assetIds": []
    },
    {
      "x": 20,
      "y": 121,
      "size": 1,
      "price": "1011000000000000000000",
      "reserved": "",
      "salt": "0x1dd518ffc160417615e754a9135d8be5954b44406407a2d3e9122a79e7d05a96",
      "assetIds": []
    },
    {
      "x": 18,
      "y": 121,
      "size": 1,
      "price": "1011000000000000000000",
      "reserved": "",
      "salt": "0xc915f59b2e261b2a28c98f84dc88fdeb3988083387d80cc5b86c124da14f35f9",
      "assetIds": []
    },
    {
      "x": 20,
      "y": 122,
      "size": 1,
      "price": "1011000000000000000000",
      "reserved": "",
      "salt": "0xa5e0232fc2e3663516bc4a18a524ebde97595acc5d02777c4ea26814a350bb47",
      "assetIds": []
    },
    {
      "x": 21,
      "y": 122,
      "size": 1,
      "price": "1011000000000000000000",
      "reserved": "",
      "salt": "0xb34bb7cb093a396403858bea2544c0b082f4449805032dc7ef11f584c164a1c7",
      "assetIds": []
    },
    {
      "x": 22,
      "y": 122,
      "size": 1,
      "price": "1011000000000000000000",
      "reserved": "",
      "salt": "0x82084431a29581e22cf362d5c373bb8254af5b911fff9b224d0590c23ff41182",
      "assetIds": []
    },
    {
      "x": 23,
      "y": 122,
      "size": 1,
      "price": "1011000000000000000000",
      "reserved": "",
      "salt": "0xc29f40be0ff444f176c1e7eb5599bfc58f03a25f06554586bf4ca46fdba8e1fc",
      "assetIds": []
    },
    {
      "x": 24,
      "y": 122,
      "size": 1,
      "price": "1011000000000000000000",
      "reserved": "",
      "salt": "0xc827fceb41f4371b9992af7fe045617d7e113b6edf3a1049de4390d556e8edff",
      "assetIds": []
    },
    {
      "x": 18,
      "y": 122,
      "size": 1,
      "price": "1011000000000000000000",
      "reserved": "",
      "salt": "0x6d49ff4a6598d16eb645239aec1246e43feb1ead406a879017def28d13414ebc",
      "assetIds": []
    },
    {
      "x": 18,
      "y": 120,
      "size": 1,
      "price": "1011000000000000000000",
      "reserved": "",
      "salt": "0x1068dcb5d880f1349093fa7eb35818757c7996da007f696acd1d0b5b8c27ad8a",
      "assetIds": []
    },
    {
      "x": 24,
      "y": 119,
      "size": 1,
      "price": "1011000000000000000000",
      "reserved": "",
      "salt": "0xca25274ad2a097f5790c5e5318f3c22b16a9e6c51d0bd9c78f270dd3bf62cb5f",
      "assetIds": []
    },
    {
      "x": 25,
      "y": 119,
      "size": 1,
      "price": "1011000000000000000000",
      "reserved": "",
      "salt": "0x2fbc6c0bca350541db0891801b1dad06c331d0da5556b125703740b737c67bfe",
      "assetIds": []
    },
    {
      "x": 27,
      "y": 120,
      "size": 1,
      "price": "1011000000000000000000",
      "reserved": "",
      "salt": "0x1238fb3f8c93b6b743d9dc6b4a6ba25e121a319018a4952612527c991fa58073",
      "assetIds": []
    },
    {
      "x": 27,
      "y": 119,
      "size": 1,
      "price": "1011000000000000000000",
      "reserved": "",
      "salt": "0xce5d94adbb8481ea3fb9ba84026b0bd17b32467de46a2251d8de4948e1cae89c",
      "assetIds": []
    },
    {
      "x": 25,
      "y": 118,
      "size": 1,
      "price": "1011000000000000000000",
      "reserved": "",
      "salt": "0x72fbc5ebb945a5ff37e5befd837f69d6ee1ec86ed31083f55ca6adc899035e9b",
      "assetIds": []
    },
    {
      "x": 24,
      "y": 118,
      "size": 1,
      "price": "1011000000000000000000",
      "reserved": "",
      "salt": "0x924b625d551689124bd629f5b7ecc046478ce2f9cf38f3b1c8f41cf226016af8",
      "assetIds": []
    },
    {
      "x": 24,
      "y": 117,
      "size": 1,
      "price": "1011000000000000000000",
      "reserved": "",
      "salt": "0xa79be03e4e911cdfe5ff16de89770b9186cdc2bd1bfb133eaacdb8300c5df390",
      "assetIds": []
    },
    {
      "x": 25,
      "y": 117,
      "size": 1,
      "price": "1011000000000000000000",
      "reserved": "",
      "salt": "0x3067f8a1bc0a45b405ecf4bb6dcab01289787f9c37a434a7a7385f0a717933ba",
      "assetIds": []
    },
    {
      "x": 25,
      "y": 121,
      "size": 1,
      "price": "1011000000000000000000",
      "reserved": "",
      "salt": "0x55fdd9540413d584993ce102d9ce3a42f875b02a2d0f9f15e1cb735e0edb58be",
      "assetIds": []
    },
    {
      "x": 26,
      "y": 123,
      "size": 1,
      "price": "1011000000000000000000",
      "reserved": "",
      "salt": "0x7d020edccf3e360bfc2df70ef29ff34734902d24e4a0771ba038faf67d19e217",
      "assetIds": []
    },
    {
      "x": 24,
      "y": 121,
      "size": 1,
      "price": "1011000000000000000000",
      "reserved": "",
      "salt": "0x7c8bbe53b7c23c824bb1fd187d90e28fd130b30379574c974da93c4b1551213a",
      "assetIds": []
    },
    {
      "x": 21,
      "y": 120,
      "size": 1,
      "price": "1011000000000000000000",
      "reserved": "",
      "salt": "0xb8bed62344a8c8892813d7ce1e2c85424b329840cc2a2fdf6211e0d8ffd89ac6",
      "assetIds": []
    },
    {
      "x": 27,
      "y": 121,
      "size": 1,
      "price": "1011000000000000000000",
      "reserved": "",
      "salt": "0xadd5133d0140ed9dc0c0162bf313f87d8f9dbc6c64720dc753ec981fa45ad248",
      "assetIds": []
    },
    {
      "x": 28,
      "y": 121,
      "size": 1,
      "price": "1011000000000000000000",
      "reserved": "",
      "salt": "0x5b531cc065799991c9f870afb1b6bdc14f9d062f32657a8114a3b2ba5cb1cdbc",
      "assetIds": []
    },
    {
      "x": 28,
      "y": 120,
      "size": 1,
      "price": "1011000000000000000000",
      "reserved": "",
      "salt": "0xfe0c093a45c11f0178ef13d6d03674b70e7dc673c74e1b5418b0ceed49a83546",
      "assetIds": []
    },
    {
      "x": 28,
      "y": 119,
      "size": 1,
      "price": "1011000000000000000000",
      "reserved": "",
      "salt": "0x9c2675603f064f4958fcb7179bdf5c39f5d37b4a827675effd8393c053c88b40",
      "assetIds": []
    },
    {
      "x": 28,
      "y": 118,
      "size": 1,
      "price": "1011000000000000000000",
      "reserved": "",
      "salt": "0xab4f03eb9eb7d75a60e8bd4f973602196aa77860f6657c01a82b0bb9c67d1fbd",
      "assetIds": []
    },
    {
      "x": 28,
      "y": 117,
      "size": 1,
      "price": "1011000000000000000000",
      "reserved": "",
      "salt": "0x60b4a786685df3184696396964b8a17092ea2b4d223277ae469ea45c701a5135",
      "assetIds": []
    },
    {
      "x": 28,
      "y": 116,
      "size": 1,
      "price": "1011000000000000000000",
      "reserved": "",
      "salt": "0x9bd9ef619aeab13abc4ad7ee9f72db762037ae725f42ba86c6b5a2494ba62ef9",
      "assetIds": []
    },
    {
      "x": 28,
      "y": 115,
      "size": 1,
      "price": "1011000000000000000000",
      "reserved": "",
      "salt": "0xdb5073b6f436721ccba0ba3cddd442a303c718130c501f104c4a5b7a024e087c",
      "assetIds": []
    },
    {
      "x": 28,
      "y": 114,
      "size": 1,
      "price": "1011000000000000000000",
      "reserved": "",
      "salt": "0x2c272ff4bc02cb08604a52356c1a0ef3f08d20bea33bbdbd374dfd35bc02fcde",
      "assetIds": []
    },
    {
      "x": 28,
      "y": 113,
      "size": 1,
      "price": "1011000000000000000000",
      "reserved": "",
      "salt": "0x5ce61d69cdecd00e651646661698d868ca63a6ef7a16a8be7311a4577ec9f1c3",
      "assetIds": []
    },
    {
      "x": 27,
      "y": 116,
      "size": 1,
      "price": "1011000000000000000000",
      "reserved": "",
      "salt": "0xc390e146435c30df4aa1bd3a70edebedb50523ca53d7a46987e3631c08bcaf74",
      "assetIds": []
    },
    {
      "x": 27,
      "y": 117,
      "size": 1,
      "price": "1011000000000000000000",
      "reserved": "",
      "salt": "0xa50de724ee29cab49564b615a67abc6815b615c138f22f145a5980865e99561d",
      "assetIds": []
    },
    {
      "x": 0,
      "y": 191,
      "size": 1,
      "price": "1011000000000000000000",
      "reserved": "",
      "salt": "0x070127a04ae322f479085676cdb285f9dac1f76488c3f30a6198dbd6b1ddb5af",
      "assetIds": []
    },
    {
      "x": 1,
      "y": 191,
      "size": 1,
      "price": "1011000000000000000000",
      "reserved": "",
      "salt": "0x0a3abc48e515f468854729d7e552cf7b54ed01ac3abb53ca76ff93b33924a385",
      "assetIds": []
    },
    {
      "x": 2,
      "y": 191,
      "size": 1,
      "price": "1011000000000000000000",
      "reserved": "",
      "salt": "0x37202299c993ea8bdf15c58e0f4beae379903676c84401bcbb12fd8c2f50661e",
      "assetIds": []
    },
    {
      "x": 3,
      "y": 191,
      "size": 1,
      "price": "1011000000000000000000",
      "reserved": "",
      "salt": "0x02c5517db77159918edbca591483e80cd2569b27cc2ce0b5736559c74b11d198",
      "assetIds": []
    },
    {
      "x": 4,
      "y": 191,
      "size": 1,
      "price": "1011000000000000000000",
      "reserved": "",
      "salt": "0x98ae3f6e4b8407ba710ee62b97f3f1eccf5f36bef9a518e4c95708ceda5a10c8",
      "assetIds": []
    },
    {
      "x": 5,
      "y": 191,
      "size": 1,
      "price": "1011000000000000000000",
      "reserved": "",
      "salt": "0x03593f82bfd6668548dde83a2d5626604d821f72d2ff842893d9087290e7cf20",
      "assetIds": []
    },
    {
      "x": 6,
      "y": 191,
      "size": 1,
      "price": "1011000000000000000000",
      "reserved": "",
      "salt": "0x82d32f6be31b38b9ac02dde16dd725405b76ae68b1decef4e475801a6a34074b",
      "assetIds": []
    },
    {
      "x": 6,
      "y": 190,
      "size": 1,
      "price": "1011000000000000000000",
      "reserved": "",
      "salt": "0x0f1c40abac86fc530d524d51ce49e1a46454446204ab46678ca38f770c450535",
      "assetIds": []
    },
    {
      "x": 7,
      "y": 190,
      "size": 1,
      "price": "1011000000000000000000",
      "reserved": "",
      "salt": "0xfc1fd7a3c295adbe56d62097478d6ab9250363684283431994de2b92c48de0a1",
      "assetIds": []
    },
    {
      "x": 8,
      "y": 190,
      "size": 1,
      "price": "1011000000000000000000",
      "reserved": "",
      "salt": "0x026a3a257940eff5bcbebfb87c332c3d4bc88b09649ffd73768750370c2350d7",
      "assetIds": []
    },
    {
      "x": 9,
      "y": 189,
      "size": 1,
      "price": "1011000000000000000000",
      "reserved": "",
      "salt": "0x26c338498cf80e58b0d513cc8a316899e305f90ff5ad61784241341114779dfc",
      "assetIds": []
    },
    {
      "x": 10,
      "y": 189,
      "size": 1,
      "price": "1011000000000000000000",
      "reserved": "",
      "salt": "0x74334af610b82fa08e4aaea8f08db3217d913eb8c2314a30e82822e88bc69e7e",
      "assetIds": []
    },
    {
      "x": 11,
      "y": 189,
      "size": 1,
      "price": "1011000000000000000000",
      "reserved": "",
      "salt": "0x5171c17dd014c57ca2e49cfde0901360d945f020658088105184b04876c8bcc4",
      "assetIds": []
    },
    {
      "x": 10,
      "y": 190,
      "size": 1,
      "price": "1011000000000000000000",
      "reserved": "",
      "salt": "0xd7dd71859f5785234ba8fd52f422a8b9ae6869edf87aae01d80b454d07c798d3",
      "assetIds": []
    },
    {
      "x": 10,
      "y": 191,
      "size": 1,
      "price": "1011000000000000000000",
      "reserved": "",
      "salt": "0x3a65e73414fd10df484245ab1b43a5721dadf7d6f71448815dd687737e48ca9c",
      "assetIds": []
    },
    {
      "x": 11,
      "y": 191,
      "size": 1,
      "price": "1011000000000000000000",
      "reserved": "",
      "salt": "0x059b02ded2f05d8976ffa0bb3d2826f03f3e4b653a647edc019f827c9c3d45a3",
      "assetIds": []
    },
    {
      "x": 9,
      "y": 191,
      "size": 1,
      "price": "1011000000000000000000",
      "reserved": "",
      "salt": "0x933606936d02b0c3bf82accad192373a403e38791c7d9586e178a5386c2019dc",
      "assetIds": []
    },
    {
      "x": 8,
      "y": 191,
      "size": 1,
      "price": "1011000000000000000000",
      "reserved": "",
      "salt": "0x82791603a911e58a51d07af705cfa9e6d9ce3b67aea7a339054951737b5ad73c",
      "assetIds": []
    },
    {
      "x": 7,
      "y": 191,
      "size": 1,
      "price": "1011000000000000000000",
      "reserved": "",
      "salt": "0x201b072f2f28148ca2cbeae0e45a5a04bd7a84d32e9a7b387dfc5cb9f30a21fa",
      "assetIds": []
    },
    {
      "x": 9,
      "y": 190,
      "size": 1,
      "price": "1011000000000000000000",
      "reserved": "",
      "salt": "0xb5d5c4bb31b8de8b4276d60b3d4651819f92ed062b92d12f1ec3c49a1a6facc3",
      "assetIds": []
    },
    {
      "x": 11,
      "y": 190,
      "size": 1,
      "price": "1011000000000000000000",
      "reserved": "",
      "salt": "0x97185a09d570c681dfc20f1f05de5b0263d511c9eec11916c5ccd341b33400ff",
      "assetIds": []
    },
    {
      "x": 11,
      "y": 188,
      "size": 1,
      "price": "1011000000000000000000",
      "reserved": "",
      "salt": "0xafbb6a2c3a3de8f54e11efbb5c4e87961b894eaac35829fe245320d71700eeb3",
      "assetIds": []
    },
    {
      "x": 11,
      "y": 187,
      "size": 1,
      "price": "1011000000000000000000",
      "reserved": "",
      "salt": "0x857c7e04c0940bac56e171233b8ab8241d3c780ef270a0d02616677af25adaa7",
      "assetIds": []
    },
    {
      "x": 11,
      "y": 186,
      "size": 1,
      "price": "1011000000000000000000",
      "reserved": "",
      "salt": "0x39572da712930ce859bbcd2994d3bfdc01e1c6791f32997f99c3b68a241d2782",
      "assetIds": []
    },
    {
      "x": 11,
      "y": 185,
      "size": 1,
      "price": "1011000000000000000000",
      "reserved": "",
      "salt": "0x0420f2495ea1a4414dc73369be0fcd12fc0b0edf82271f384af04f3ab6ced349",
      "assetIds": []
    },
    {
      "x": 11,
      "y": 184,
      "size": 1,
      "price": "1011000000000000000000",
      "reserved": "",
      "salt": "0x502a290a83311a5cf960919d68cef8476c2ef4e2944b3a7b4f65a6e9b836573f",
      "assetIds": []
    },
    {
      "x": 11,
      "y": 183,
      "size": 1,
      "price": "1011000000000000000000",
      "reserved": "",
      "salt": "0x29cb69420bfe43bd369c7274f34454dc682dea77011bad7ca50abe27f71d9db5",
      "assetIds": []
    },
    {
      "x": 11,
      "y": 182,
      "size": 1,
      "price": "1011000000000000000000",
      "reserved": "",
      "salt": "0x3df09a40e473b34f2d1fc35637321aaf2754addb9359c25abf1c6d7062d0c6a1",
      "assetIds": []
    },
    {
      "x": 11,
      "y": 174,
      "size": 1,
      "price": "1011000000000000000000",
      "reserved": "",
      "salt": "0xd55dd12c6ad4281f7693a7b3dbaa0e033ea34ee272b5077fd9a73a07d557ed23",
      "assetIds": []
    },
    {
      "x": 11,
      "y": 175,
      "size": 1,
      "price": "1011000000000000000000",
      "reserved": "",
      "salt": "0x0330bf7e1ace44e2f7bee00b845a2f8e4823b87a52ce4fa01eb44d9ee2d2a997",
      "assetIds": []
    },
    {
      "x": 11,
      "y": 176,
      "size": 1,
      "price": "1011000000000000000000",
      "reserved": "",
      "salt": "0x88bdde0bd826c53b5f35613d8548d04eff6b2efa17c49ab57d2bea2e4192d2d5",
      "assetIds": []
    },
    {
      "x": 11,
      "y": 177,
      "size": 1,
      "price": "1011000000000000000000",
      "reserved": "",
      "salt": "0x1c402d12462889aec955dd78dc21fefa856b0c3395720bdd4990b7438e88b5cb",
      "assetIds": []
    },
    {
      "x": 11,
      "y": 178,
      "size": 1,
      "price": "1011000000000000000000",
      "reserved": "",
      "salt": "0x31d25fa7f80821fc55fafbad6ac4e45698ba22324c6e8c86ea42ff1ff0427317",
      "assetIds": []
    },
    {
      "x": 11,
      "y": 179,
      "size": 1,
      "price": "1011000000000000000000",
      "reserved": "",
      "salt": "0x87a8e329488c2c229f65b5d16776bf98ed74211571428eaddd63d9608ce6e6fe",
      "assetIds": []
    },
    {
      "x": 11,
      "y": 180,
      "size": 1,
      "price": "1011000000000000000000",
      "reserved": "",
      "salt": "0xf30480ceb4db2b3e5648fac7b74232dad51db0bb3a3131a22274dad2c7cdf16a",
      "assetIds": []
    },
    {
      "x": 11,
      "y": 181,
      "size": 1,
      "price": "1011000000000000000000",
      "reserved": "",
      "salt": "0xea15aafc778ef7803330111b0a50eeaa4ec9e565931623c04f3b90215b11be35",
      "assetIds": []
    },
    {
      "x": 12,
      "y": 173,
      "size": 1,
      "price": "1011000000000000000000",
      "reserved": "",
      "salt": "0xdd5f8bc3798b9bfa87171e9c517db7258c6add0b190ebcfdd68d793aae395f71",
      "assetIds": []
    },
    {
      "x": 12,
      "y": 172,
      "size": 1,
      "price": "1011000000000000000000",
      "reserved": "",
      "salt": "0x44a8af2adbddbb66a641fcab0dec5bed53dc3fa75178d979a3ff5f8e91a166f0",
      "assetIds": []
    },
    {
      "x": 12,
      "y": 171,
      "size": 1,
      "price": "1011000000000000000000",
      "reserved": "",
      "salt": "0x95c1150d926a13ad9daf5720e188ab3f5905976408cbef262abd70b804cf8a61",
      "assetIds": []
    },
    {
      "x": 12,
      "y": 170,
      "size": 1,
      "price": "1011000000000000000000",
      "reserved": "",
      "salt": "0xe0c7606ad40d3b716f709385f305ada5ce1c9b256c05f56373bdd8ae5dc4525e",
      "assetIds": []
    },
    {
      "x": 12,
      "y": 169,
      "size": 1,
      "price": "1011000000000000000000",
      "reserved": "",
      "salt": "0x7a6db5fa4928a23266525206b9af9c7df89a860555f045e5d7540ed18a8a2ec6",
      "assetIds": []
    },
    {
      "x": 12,
      "y": 168,
      "size": 1,
      "price": "1011000000000000000000",
      "reserved": "",
      "salt": "0x227fafdd952003b3917ae8073aacac2e281e8e163a243b6f8d77a3f3627f910a",
      "assetIds": []
    },
    {
      "x": 10,
      "y": 168,
      "size": 1,
      "price": "1011000000000000000000",
      "reserved": "",
      "salt": "0x7b56de31bdd2cb49834406d9779c23380d66199cc69dedcc64368fc319ab199f",
      "assetIds": []
    },
    {
      "x": 9,
      "y": 168,
      "size": 1,
      "price": "1011000000000000000000",
      "reserved": "",
      "salt": "0xad2ba46b4444cd0eef2bda559b976f8757894b998753d482c30250c6e6375c2b",
      "assetIds": []
    },
    {
      "x": 8,
      "y": 168,
      "size": 1,
      "price": "1011000000000000000000",
      "reserved": "",
      "salt": "0x4b410689d834e9b54385bd401714e103c2e258eb90913b23c147795d1dc21d52",
      "assetIds": []
    },
    {
      "x": 7,
      "y": 168,
      "size": 1,
      "price": "1011000000000000000000",
      "reserved": "",
      "salt": "0xc78bcc3153b652755bf5373fa8be960b996a4258c8162fcbdce55352a4885097",
      "assetIds": []
    },
    {
      "x": 6,
      "y": 168,
      "size": 1,
      "price": "1011000000000000000000",
      "reserved": "",
      "salt": "0xc45cbf0f16c7888c52ec597a162f10ce4843b2bef4500a907f25cf9c04906e53",
      "assetIds": []
    },
    {
      "x": 5,
      "y": 168,
      "size": 1,
      "price": "1011000000000000000000",
      "reserved": "",
      "salt": "0xc38c74a767210471de9e3ad26e413646f5a94b6082b4ddde7f7d8306c08ee7b5",
      "assetIds": []
    },
    {
      "x": 5,
      "y": 169,
      "size": 1,
      "price": "1011000000000000000000",
      "reserved": "",
      "salt": "0xe56b8d30446c19d6ba8135dbd379ecddae3e93abb7f36b363aa627ee96503237",
      "assetIds": []
    },
    {
      "x": 4,
      "y": 169,
      "size": 1,
      "price": "1011000000000000000000",
      "reserved": "",
      "salt": "0x0d317ef0b498db3d30cc5d26fa5d4c29d2790096d7abc7675b77c6cc1ac4a341",
      "assetIds": []
    },
    {
      "x": 3,
      "y": 169,
      "size": 1,
      "price": "1011000000000000000000",
      "reserved": "",
      "salt": "0x5323bfbb3aeea3ffd6300099b35339cdea3612a7192f357b1e4b6eabc5f81d05",
      "assetIds": []
    },
    {
      "x": 2,
      "y": 169,
      "size": 1,
      "price": "1011000000000000000000",
      "reserved": "",
      "salt": "0xb376d343bd8aefe9d12291fe3e9843878a1464841b526b9c778fb07a21b57601",
      "assetIds": []
    },
    {
      "x": 1,
      "y": 169,
      "size": 1,
      "price": "1011000000000000000000",
      "reserved": "",
      "salt": "0x070eb6f031e3e428bc79e962c5a4c6a65192e41486b840d6eae9c57326f621d8",
      "assetIds": []
    },
    {
      "x": 0,
      "y": 169,
      "size": 1,
      "price": "1011000000000000000000",
      "reserved": "",
      "salt": "0xed90341ed6b2fc15eb52dc510d6ce7a5c7cfed8caf27ecc6f27b8f26428bc621",
      "assetIds": []
    },
    {
      "x": 0,
      "y": 168,
      "size": 1,
      "price": "1011000000000000000000",
      "reserved": "",
      "salt": "0x079f1ae3a33818baa01e52575f3c0e632dd0bf8949d168b08b90a993925c328f",
      "assetIds": []
    },
    {
      "x": 11,
      "y": 168,
      "size": 1,
      "price": "1011000000000000000000",
      "reserved": "",
      "salt": "0x05654dab49ee99ab0b3e4018070e382189bb8e6500b84634174422c58eb7a8ff",
      "assetIds": []
    },
    {
      "x": 6,
      "y": 169,
      "size": 1,
      "price": "1011000000000000000000",
      "reserved": "",
      "salt": "0x67f653cff927a72f87a824fd47a964ec099d25c2291df398c5dbfda0e65425b0",
      "assetIds": []
    },
    {
      "x": 1,
      "y": 168,
      "size": 1,
      "price": "1011000000000000000000",
      "reserved": "",
      "salt": "0x955181f4c28f0b8b3a11e3628b46ade3e4cce269a5e6297cd157d34fde98d93f",
      "assetIds": []
    },
    {
      "x": 2,
      "y": 168,
      "size": 1,
      "price": "1011000000000000000000",
      "reserved": "",
      "salt": "0x4843cf1c4ee012a8966bf2c2405cd59bdf37933dd3d5571ea3c0929ef4ad05ed",
      "assetIds": []
    },
    {
      "x": 4,
      "y": 168,
      "size": 1,
      "price": "1011000000000000000000",
      "reserved": "",
      "salt": "0x9c8da01af0feeee47390943e1a1a0ab842a789d2b1398a4f8f24c2dc998be8af",
      "assetIds": []
    },
    {
      "x": 3,
      "y": 168,
      "size": 1,
      "price": "1011000000000000000000",
      "reserved": "",
      "salt": "0x05a6ea001f43c35ccd78e6614eaa4f156b59f57c0a28b911695076eb4ff6b78d",
      "assetIds": []
    },
    {
      "x": 2,
      "y": 170,
      "size": 1,
      "price": "1011000000000000000000",
      "reserved": "",
      "salt": "0x46e226d5728adb425a7aa81cf6b9f23cb0ccac068f0142fe2e165a9fed70ff36",
      "assetIds": []
    },
    {
      "x": 2,
      "y": 171,
      "size": 1,
      "price": "1011000000000000000000",
      "reserved": "",
      "salt": "0x1b96147033fda1881e9f4233f61d518d9bcaed0f1f6726b932fa484753498b96",
      "assetIds": []
    },
    {
      "x": 2,
      "y": 172,
      "size": 1,
      "price": "1011000000000000000000",
      "reserved": "",
      "salt": "0x4310724c620c3645ef30c8221f478fd697bea26f85976df7e4a51761b90dca5c",
      "assetIds": []
    },
    {
      "x": 2,
      "y": 173,
      "size": 1,
      "price": "1011000000000000000000",
      "reserved": "",
      "salt": "0x2a393dee66e7d847d10b20c8d8879be946477143fef52d74865232f073e71392",
      "assetIds": []
    },
    {
      "x": 2,
      "y": 174,
      "size": 1,
      "price": "1011000000000000000000",
      "reserved": "",
      "salt": "0x2703d57e65fd6c262155e53de3a3223c62d7d90fb8797e397f429fc5cc6a78c6",
      "assetIds": []
    },
    {
      "x": 2,
      "y": 175,
      "size": 1,
      "price": "1011000000000000000000",
      "reserved": "",
      "salt": "0xcac589b83d526cc774d22135bbd1e7bde1f8bcf3bd4da4d2097c73476be507db",
      "assetIds": []
    },
    {
      "x": 2,
      "y": 176,
      "size": 1,
      "price": "1011000000000000000000",
      "reserved": "",
      "salt": "0xe130dce2bb325c12e60624f4451e17c17539b05971490a0803305525957a800c",
      "assetIds": []
    },
    {
      "x": 2,
      "y": 177,
      "size": 1,
      "price": "1011000000000000000000",
      "reserved": "",
      "salt": "0x1433534774aa425f9194c9eac62e06438fb3744c028f615e61a5c0b1175d9e5f",
      "assetIds": []
    },
    {
      "x": 2,
      "y": 178,
      "size": 1,
      "price": "1011000000000000000000",
      "reserved": "",
      "salt": "0x4971ed7907415d5dc4061bdc65de2d38240d5f228dacbc0725428458a1b28097",
      "assetIds": []
    },
    {
      "x": 2,
      "y": 179,
      "size": 1,
      "price": "1011000000000000000000",
      "reserved": "",
      "salt": "0xd38125dc621ed3ec24beccba45b05a36239735b60620e30a418a3ba967bd3eb9",
      "assetIds": []
    },
    {
      "x": 3,
      "y": 180,
      "size": 1,
      "price": "1011000000000000000000",
      "reserved": "",
      "salt": "0xee135b4b9157d786e5d427bf249b10d7be003d808ffa5ffb21f812a1da372083",
      "assetIds": []
    },
    {
      "x": 3,
      "y": 181,
      "size": 1,
      "price": "1011000000000000000000",
      "reserved": "",
      "salt": "0xd25079163d5a719203fd0e850be99c1d3fb87c1bb52d874bc2d6b437d210ba6e",
      "assetIds": []
    },
    {
      "x": 4,
      "y": 182,
      "size": 1,
      "price": "1011000000000000000000",
      "reserved": "",
      "salt": "0x32835a8129f1b4796ddbf0588c95d014722559011652e25fafbd4d7d636ea7df",
      "assetIds": []
    },
    {
      "x": 4,
      "y": 183,
      "size": 1,
      "price": "1011000000000000000000",
      "reserved": "",
      "salt": "0x027abb9c45b88c48f1c8f6074c32ee691e17757487c1f97e9308714bd2ca69dc",
      "assetIds": []
    },
    {
      "x": 4,
      "y": 184,
      "size": 1,
      "price": "1011000000000000000000",
      "reserved": "",
      "salt": "0x5594543bffc327ad325b16403443e6eb9f2261592503b3b97fd78de5a4f52f7c",
      "assetIds": []
    },
    {
      "x": 4,
      "y": 185,
      "size": 1,
      "price": "1011000000000000000000",
      "reserved": "",
      "salt": "0x3b061e579a8e5a5d89caae5f82829c01a69145ad643de31a4bbf5c815f542d67",
      "assetIds": []
    },
    {
      "x": 4,
      "y": 186,
      "size": 1,
      "price": "1011000000000000000000",
      "reserved": "",
      "salt": "0x7faa9a92f8a8329ca454a584f253335e5b1ba803279ae1078360512026cc1482",
      "assetIds": []
    },
    {
      "x": 4,
      "y": 187,
      "size": 1,
      "price": "1011000000000000000000",
      "reserved": "",
      "salt": "0x3bb08b7638fbd1b690ae45f44a74da98248c3a7a8c557983182c9864004eecba",
      "assetIds": []
    },
    {
      "x": 4,
      "y": 188,
      "size": 1,
      "price": "1011000000000000000000",
      "reserved": "",
      "salt": "0x9f8e21c5f22dce16b6b9b8820788696adacf1856a514b995a3f31e42e92249c5",
      "assetIds": []
    },
    {
      "x": 4,
      "y": 189,
      "size": 1,
      "price": "1011000000000000000000",
      "reserved": "",
      "salt": "0xb7a8b08b433c4061339bbd445bf9375fd06a5bf589a99f4c983db68970390711",
      "assetIds": []
    },
    {
      "x": 4,
      "y": 190,
      "size": 1,
      "price": "1011000000000000000000",
      "reserved": "",
      "salt": "0x4b6154346cf0a1d05b9e17aa59bf5297d0a5355f484d152f49bafb7993d319c0",
      "assetIds": []
    },
    {
      "x": 1,
      "y": 190,
      "size": 1,
      "price": "1011000000000000000000",
      "reserved": "",
      "salt": "0xbd756817db1e05b4474e2fc0971ba9bb625e4d188f23ae521f5878edfd2a2857",
      "assetIds": []
    },
    {
      "x": 0,
      "y": 190,
      "size": 1,
      "price": "1011000000000000000000",
      "reserved": "",
      "salt": "0xa6fa9d73787c1c2f355351417f645fc4e5dde71d2c2cd6eea6a6c996c2de053d",
      "assetIds": []
    },
    {
      "x": 0,
      "y": 189,
      "size": 1,
      "price": "1011000000000000000000",
      "reserved": "",
      "salt": "0x836d7f1aa484258e7ce5e64b313979a5a95064c3907c4c6ab937daf2bbf768c6",
      "assetIds": []
    },
    {
      "x": 0,
      "y": 188,
      "size": 1,
      "price": "1011000000000000000000",
      "reserved": "",
      "salt": "0x973de0c38b2bc82dcc71b16cfeada58f61368485505064a097adc9c5f4296f75",
      "assetIds": []
    },
    {
      "x": 0,
      "y": 187,
      "size": 1,
      "price": "1011000000000000000000",
      "reserved": "",
      "salt": "0x518dbfa1de7f9a8c79efbc50817d1c45c86dba78eac7267671907a5b6364837f",
      "assetIds": []
    },
    {
      "x": 0,
      "y": 186,
      "size": 1,
      "price": "1011000000000000000000",
      "reserved": "",
      "salt": "0x3ed380ed1ba7ffcd9bcfda9157281ffe93d82cbefbba9acb319237c2e8a27709",
      "assetIds": []
    },
    {
      "x": 0,
      "y": 185,
      "size": 1,
      "price": "1011000000000000000000",
      "reserved": "",
      "salt": "0x86c41c3521994728711ba67d247a214658e311b1cd14242a615b429a0339a15a",
      "assetIds": []
    },
    {
      "x": 0,
      "y": 184,
      "size": 1,
      "price": "1011000000000000000000",
      "reserved": "",
      "salt": "0xd32843396df2f438a08a390472b96a40cd793924d1971f94520a9cbbc7d2be7f",
      "assetIds": []
    },
    {
      "x": 0,
      "y": 183,
      "size": 1,
      "price": "1011000000000000000000",
      "reserved": "",
      "salt": "0x913af3984cef330babf45608243992d915320fd567ea675035365e813d48e4c2",
      "assetIds": []
    },
    {
      "x": 0,
      "y": 182,
      "size": 1,
      "price": "1011000000000000000000",
      "reserved": "",
      "salt": "0x1a49256c56e928685e090ba1ce0bfbc1c0bac464608f1d25a6df772c6ea8a1a7",
      "assetIds": []
    },
    {
      "x": 0,
      "y": 181,
      "size": 1,
      "price": "1011000000000000000000",
      "reserved": "",
      "salt": "0xe57772e9b193a2468db8e62f02bc0f1f860f5aa2afb84d00d1361d815a84dc57",
      "assetIds": []
    },
    {
      "x": 0,
      "y": 180,
      "size": 1,
      "price": "1011000000000000000000",
      "reserved": "",
      "salt": "0x88a3a5382a527d7e73354ede386f763f882c7b49600ff9a4bd4f6095b8329bd4",
      "assetIds": []
    },
    {
      "x": 0,
      "y": 179,
      "size": 1,
      "price": "1011000000000000000000",
      "reserved": "",
      "salt": "0x8183eeeec9470f2866b2239eae0f8491aca9cf0cf1ba274b3f2e61d113d8e424",
      "assetIds": []
    },
    {
      "x": 0,
      "y": 178,
      "size": 1,
      "price": "1011000000000000000000",
      "reserved": "",
      "salt": "0x0f438f36ef818bfe47875455fd19469670f80ca713e96221bf699c5d6988ff48",
      "assetIds": []
    },
    {
      "x": 0,
      "y": 177,
      "size": 1,
      "price": "1011000000000000000000",
      "reserved": "",
      "salt": "0x08e895c5b69ba10198919e986f454fcd0456e4f9556b403ce4fc6b135c2f0932",
      "assetIds": []
    },
    {
      "x": 0,
      "y": 176,
      "size": 1,
      "price": "1011000000000000000000",
      "reserved": "",
      "salt": "0x70e88a4e737d3d2f4383a83248ed22785d29bdd26c5a913141ba70ce873f2382",
      "assetIds": []
    },
    {
      "x": 0,
      "y": 175,
      "size": 1,
      "price": "1011000000000000000000",
      "reserved": "",
      "salt": "0x0c167ce18be4e4930870221be61d48d6242aab7096890a239ef27854b0ca8889",
      "assetIds": []
    },
    {
      "x": 0,
      "y": 174,
      "size": 1,
      "price": "1011000000000000000000",
      "reserved": "",
      "salt": "0x45d15420fa5443e75b29cc455661e355e9bc33a51614875f75cccbb99c4750e7",
      "assetIds": []
    },
    {
      "x": 1,
      "y": 173,
      "size": 1,
      "price": "1011000000000000000000",
      "reserved": "",
      "salt": "0xe5d6888bc36317fe3caa1a9e70a36b74494442670fd9a53bc233cb6a32491e6b",
      "assetIds": []
    },
    {
      "x": 1,
      "y": 172,
      "size": 1,
      "price": "1011000000000000000000",
      "reserved": "",
      "salt": "0x9fa29ca8a5f36d903792b742f3a766761a03923351dc2e16fc7579e28c353bcd",
      "assetIds": []
    },
    {
      "x": 1,
      "y": 171,
      "size": 1,
      "price": "1011000000000000000000",
      "reserved": "",
      "salt": "0xfd9b2c28f07025108e19c467e5c74198583ec6882ea528c99cbdde7e801ef95d",
      "assetIds": []
    },
    {
      "x": 1,
      "y": 170,
      "size": 1,
      "price": "1011000000000000000000",
      "reserved": "",
      "salt": "0x677451637939b73a424521ab224deb023840ea14cdd80210f4d820ea5152e6cb",
      "assetIds": []
    },
    {
      "x": 0,
      "y": 170,
      "size": 1,
      "price": "1011000000000000000000",
      "reserved": "",
      "salt": "0x1cc9924b46c3608e84e653cecaea2e2f95726d805170249126d7c9b564402e65",
      "assetIds": []
    },
    {
      "x": 0,
      "y": 171,
      "size": 1,
      "price": "1011000000000000000000",
      "reserved": "",
      "salt": "0x1dbf6cca9f8ebb4e542b103615090191d2aa7a5b17f900ee27b9d468b820cb76",
      "assetIds": []
    },
    {
      "x": 0,
      "y": 173,
      "size": 1,
      "price": "1011000000000000000000",
      "reserved": "",
      "salt": "0xc50271aa717c1371aee002e8a24e2a41b5d30210f52ac42c1246abf9b0f504b6",
      "assetIds": []
    },
    {
      "x": 0,
      "y": 172,
      "size": 1,
      "price": "1011000000000000000000",
      "reserved": "",
      "salt": "0xfd5998b03ce6b0a57f914275ed407e106341613c809f24e3d6f401e4bb870ba8",
      "assetIds": []
    },
    {
      "x": 1,
      "y": 175,
      "size": 1,
      "price": "1011000000000000000000",
      "reserved": "",
      "salt": "0x207291a3c6d4f30c9f4bd77b34033aa3401362a2e10f32deeb468259ee5dfa4f",
      "assetIds": []
    },
    {
      "x": 1,
      "y": 176,
      "size": 1,
      "price": "1011000000000000000000",
      "reserved": "",
      "salt": "0x18844b18e589e4d0929cb1fab301d20a4ed18d4f980c7fdfc8aacada9bb2dee0",
      "assetIds": []
    },
    {
      "x": 1,
      "y": 177,
      "size": 1,
      "price": "1011000000000000000000",
      "reserved": "",
      "salt": "0x78f403865c988aef64d524d1ca7fab0692cf0a6bbea21ffae9ee525c2818116b",
      "assetIds": []
    },
    {
      "x": 2,
      "y": 180,
      "size": 1,
      "price": "1011000000000000000000",
      "reserved": "",
      "salt": "0x33d5e427625e4011a2d1b2a1963a56b022e2cff8d86b13787f89b25039e951c1",
      "assetIds": []
    },
    {
      "x": 2,
      "y": 181,
      "size": 1,
      "price": "1011000000000000000000",
      "reserved": "",
      "salt": "0x9b048deb7978a6202cd4c2ecea4e169576d7f0f68861b3c460a01f8097cefb83",
      "assetIds": []
    },
    {
      "x": 2,
      "y": 182,
      "size": 1,
      "price": "1011000000000000000000",
      "reserved": "",
      "salt": "0x326aebe5bcc7297f594ca59bd05df800796b62f05a427cba291cdb6bb116c21f",
      "assetIds": []
    },
    {
      "x": 2,
      "y": 183,
      "size": 1,
      "price": "1011000000000000000000",
      "reserved": "",
      "salt": "0x4ad8b0843fa2432e4ba20b9d04aea01e958727e54098c743bdcd5ceb1e0bca0a",
      "assetIds": []
    },
    {
      "x": 2,
      "y": 184,
      "size": 1,
      "price": "1011000000000000000000",
      "reserved": "",
      "salt": "0x72faccf94259908e414204686fb1cddac949836e33f944432dac85974b579a87",
      "assetIds": []
    },
    {
      "x": 2,
      "y": 185,
      "size": 1,
      "price": "1011000000000000000000",
      "reserved": "",
      "salt": "0x0125f9bcc0c5571de3e0a9e8a8f2bf4e6d27dd71a1461af4b0177d5939be1ebb",
      "assetIds": []
    },
    {
      "x": 2,
      "y": 186,
      "size": 1,
      "price": "1011000000000000000000",
      "reserved": "",
      "salt": "0x9e862d93150ae720ff8e7511bea000e6097d123488df2f2b27b8a53f6f6f90f4",
      "assetIds": []
    },
    {
      "x": 2,
      "y": 187,
      "size": 1,
      "price": "1011000000000000000000",
      "reserved": "",
      "salt": "0x00d791c293297fb2ff1461d1290f520f1ed4bcb29f18b4baebb5ced0cb421370",
      "assetIds": []
    },
    {
      "x": 1,
      "y": 174,
      "size": 1,
      "price": "1011000000000000000000",
      "reserved": "",
      "salt": "0x2ebc1d25f62df72bf9d64b16c4af38c209d2ee55463a91d960b48102bd776ef2",
      "assetIds": []
    },
    {
      "x": 1,
      "y": 178,
      "size": 1,
      "price": "1011000000000000000000",
      "reserved": "",
      "salt": "0x5ae8b727656f76ea562c0428e1988ea2773b6a58b2c368d313862957859e5941",
      "assetIds": []
    },
    {
      "x": 1,
      "y": 179,
      "size": 1,
      "price": "1011000000000000000000",
      "reserved": "",
      "salt": "0x939cbbd932d85b74df005fa18b50e7829ce4f03d14a808ddbcff2942487c043f",
      "assetIds": []
    },
    {
      "x": 1,
      "y": 180,
      "size": 1,
      "price": "1011000000000000000000",
      "reserved": "",
      "salt": "0x7468833c554584987791e6e0d736bbe3424aa81ececb98250ea1df8ab8865ca2",
      "assetIds": []
    },
    {
      "x": 1,
      "y": 181,
      "size": 1,
      "price": "1011000000000000000000",
      "reserved": "",
      "salt": "0xf0d746351f67e29fbafed0ebec55cd3c6f4309c7ac6524afb42b596d9d8a8b4b",
      "assetIds": []
    },
    {
      "x": 1,
      "y": 182,
      "size": 1,
      "price": "1011000000000000000000",
      "reserved": "",
      "salt": "0x3b90eac5aedbb04490e042c315dfd94140b8118a3bed0592a27ac6e383a7979f",
      "assetIds": []
    },
    {
      "x": 1,
      "y": 183,
      "size": 1,
      "price": "1011000000000000000000",
      "reserved": "",
      "salt": "0x76972baac3b34895c1fc70a1107a088ca8c8d80714c1cf6781e719ff6d4e1e6a",
      "assetIds": []
    },
    {
      "x": 1,
      "y": 184,
      "size": 1,
      "price": "1011000000000000000000",
      "reserved": "",
      "salt": "0xb538e0424870a56e87aaa60a7c435e14797e8ee65f347ee13648f0e0d21b2392",
      "assetIds": []
    },
    {
      "x": 1,
      "y": 185,
      "size": 1,
      "price": "1011000000000000000000",
      "reserved": "",
      "salt": "0x31f519fa2fa78d3a76e0f6fd9d3d8e9c54e33de8a63afb64a5d00b92953e1f23",
      "assetIds": []
    },
    {
      "x": 1,
      "y": 186,
      "size": 1,
      "price": "1011000000000000000000",
      "reserved": "",
      "salt": "0x95ce0cf4991463c0d40313af059fef3c4972fa96ae997db50e4753288168856a",
      "assetIds": []
    },
    {
      "x": 1,
      "y": 187,
      "size": 1,
      "price": "1011000000000000000000",
      "reserved": "",
      "salt": "0x13f2f9ff78470c8b6e7576776b785e72d64fdd526889140227a04cd1a73013be",
      "assetIds": []
    },
    {
      "x": 2,
      "y": 188,
      "size": 1,
      "price": "1011000000000000000000",
      "reserved": "",
      "salt": "0x001530d20eb79f833d85829d70d71fcf7e5a4b292331b1601f23ee971ceed7ca",
      "assetIds": []
    },
    {
      "x": 2,
      "y": 189,
      "size": 1,
      "price": "1011000000000000000000",
      "reserved": "",
      "salt": "0x25ac3843fb51b6d89185a52c407f99f8288ed2c5894e509898c8277cec5dc8ea",
      "assetIds": []
    },
    {
      "x": 1,
      "y": 189,
      "size": 1,
      "price": "1011000000000000000000",
      "reserved": "",
      "salt": "0x336e2650b62723466dc232a1157e5f46eefacf921ef7dc284d5e298ab5c147cb",
      "assetIds": []
    },
    {
      "x": 1,
      "y": 188,
      "size": 1,
      "price": "1011000000000000000000",
      "reserved": "",
      "salt": "0x91d950b85ff26be9cb2d33cb5422bea8a01f9460a91ea91cf2b293bc1aa465c5",
      "assetIds": []
    },
    {
      "x": 2,
      "y": 190,
      "size": 1,
      "price": "1011000000000000000000",
      "reserved": "",
      "salt": "0xb3db9273e6baa32d867aff5af7b95b15140af077ae46f4b91d817ac60ca93d22",
      "assetIds": []
    },
    {
      "x": 3,
      "y": 189,
      "size": 1,
      "price": "1011000000000000000000",
      "reserved": "",
      "salt": "0x034363853f7832425193cf3d8cba3995cf2318bf2e3079184b8e1a578740b818",
      "assetIds": []
    },
    {
      "x": 3,
      "y": 188,
      "size": 1,
      "price": "1011000000000000000000",
      "reserved": "",
      "salt": "0x8ca86755714920519d83a420693649695ca96b9ab0bef32231ba4e099189ecbe",
      "assetIds": []
    },
    {
      "x": 3,
      "y": 187,
      "size": 1,
      "price": "1011000000000000000000",
      "reserved": "",
      "salt": "0xb1fbcfe48899d563a76d92a886cf89e438485afce9a54ed7c8cca6b5785be974",
      "assetIds": []
    },
    {
      "x": 3,
      "y": 186,
      "size": 1,
      "price": "1011000000000000000000",
      "reserved": "",
      "salt": "0x36c8ef89dd475b091fc2512669191bd0af0b0008101aa6c9bce342d374a1d275",
      "assetIds": []
    },
    {
      "x": 3,
      "y": 185,
      "size": 1,
      "price": "1011000000000000000000",
      "reserved": "",
      "salt": "0x2e4c8753403a1e81a94ab5c879bbc8572b71f194e4bf141cb0863dc9764baad8",
      "assetIds": []
    },
    {
      "x": 3,
      "y": 184,
      "size": 1,
      "price": "1011000000000000000000",
      "reserved": "",
      "salt": "0xebaf628bfb55f93b9e5c6fa0679eb8400798bd524d1d5bddd67166d3dedc6786",
      "assetIds": []
    },
    {
      "x": 3,
      "y": 183,
      "size": 1,
      "price": "1011000000000000000000",
      "reserved": "",
      "salt": "0xd95fd403f3d285950c4b335c63d9be1f2851fd604a5cd0cb82ad06c1d4e36e53",
      "assetIds": []
    },
    {
      "x": 3,
      "y": 182,
      "size": 1,
      "price": "1011000000000000000000",
      "reserved": "",
      "salt": "0x297e504096491380a3e011f0db8658a231cc5bb388c3bd2f877e78d9a63b4989",
      "assetIds": []
    },
    {
      "x": 3,
      "y": 190,
      "size": 1,
      "price": "1011000000000000000000",
      "reserved": "",
      "salt": "0x0cdb2bc15cfbe348bdd8770b0651cc515ff5c5d77b5344247c40efc5eeaa05ae",
      "assetIds": []
    },
    {
      "x": 5,
      "y": 190,
      "size": 1,
      "price": "1011000000000000000000",
      "reserved": "",
      "salt": "0x5b9eebecd74ba0be09f0b768ca974f433165993f14178f71d7c0e482c690ed02",
      "assetIds": []
    },
    {
      "x": 6,
      "y": 189,
      "size": 1,
      "price": "1011000000000000000000",
      "reserved": "",
      "salt": "0xc1a50e5ea25dca783743bc5e7624eafc505d47a8d980d06fdc395786e8f5cb70",
      "assetIds": []
    },
    {
      "x": 6,
      "y": 188,
      "size": 1,
      "price": "1011000000000000000000",
      "reserved": "",
      "salt": "0xbcbb35a0dd3ac7cd687541601bbfe871551cbb7ed8f5c0ee0f5a1a2e1036775c",
      "assetIds": []
    },
    {
      "x": 6,
      "y": 187,
      "size": 1,
      "price": "1011000000000000000000",
      "reserved": "",
      "salt": "0xd51a7a66ccf2bd0e20d3c4746b7de160bf4eaa5e43035ad4468c943ce516ea4b",
      "assetIds": []
    },
    {
      "x": 6,
      "y": 186,
      "size": 1,
      "price": "1011000000000000000000",
      "reserved": "",
      "salt": "0xbefbf74f39141de9889bd663882eca091ed979a2e21055e556495c0e9f815a83",
      "assetIds": []
    },
    {
      "x": 6,
      "y": 185,
      "size": 1,
      "price": "1011000000000000000000",
      "reserved": "",
      "salt": "0x1d421b41a49c7b4604178b3800636f22765aefe552dc61311be89be926c6f0b2",
      "assetIds": []
    },
    {
      "x": 6,
      "y": 184,
      "size": 1,
      "price": "1011000000000000000000",
      "reserved": "",
      "salt": "0xd0e451d63161eb8e3e3e1cbc0c3f3f520618a0687b9e2447016ef6c7e92365b3",
      "assetIds": []
    },
    {
      "x": 6,
      "y": 183,
      "size": 1,
      "price": "1011000000000000000000",
      "reserved": "",
      "salt": "0x6418332200fab3d4c6b522c0fc62892c3b5b43ebd8533e1e02815d9d922b13b6",
      "assetIds": []
    },
    {
      "x": 6,
      "y": 182,
      "size": 1,
      "price": "1011000000000000000000",
      "reserved": "",
      "salt": "0x310f3688b7c8f085715eb6edfcfc8f7da0a12e3a3878650fe738554b15202012",
      "assetIds": []
    },
    {
      "x": 6,
      "y": 181,
      "size": 1,
      "price": "1011000000000000000000",
      "reserved": "",
      "salt": "0x3b7794197bcb716d7e4e4e686100a67173f2d69f318899dabb4a1653a20c47fe",
      "assetIds": []
    },
    {
      "x": 6,
      "y": 180,
      "size": 1,
      "price": "1011000000000000000000",
      "reserved": "",
      "salt": "0x29e14e14c3ebf44ddbd7bacd296d1e4a40ee281149f6899e5f0d4e1279be4c9d",
      "assetIds": []
    },
    {
      "x": 6,
      "y": 179,
      "size": 1,
      "price": "1011000000000000000000",
      "reserved": "",
      "salt": "0x9375c1c9ab08d30b4fe2bda347a359d4e36ef0a09794f66db6ab1e855c763975",
      "assetIds": []
    },
    {
      "x": 6,
      "y": 178,
      "size": 1,
      "price": "1011000000000000000000",
      "reserved": "",
      "salt": "0xafccc6ea172b1ff63fc1ce0ffe1544979ab0d8f37f461bacc0af44d0e073e2f9",
      "assetIds": []
    },
    {
      "x": 6,
      "y": 177,
      "size": 1,
      "price": "1011000000000000000000",
      "reserved": "",
      "salt": "0x78d0a223429592c09be793be2e7617707081d62158d7ce3043fffca6795d9541",
      "assetIds": []
    },
    {
      "x": 6,
      "y": 176,
      "size": 1,
      "price": "1011000000000000000000",
      "reserved": "",
      "salt": "0x23c4a8f293efc87a6d929e31e30d2b60e1a5ca8b56c02267a37da3b46664ee86",
      "assetIds": []
    },
    {
      "x": 6,
      "y": 175,
      "size": 1,
      "price": "1011000000000000000000",
      "reserved": "",
      "salt": "0x0107d57fdbfdad953d4cb6d84bc2710aa02287d7590e51081b0a283c64562b87",
      "assetIds": []
    },
    {
      "x": 6,
      "y": 174,
      "size": 1,
      "price": "1011000000000000000000",
      "reserved": "",
      "salt": "0x9672167d21fae6c65dcfda5b844073d6ee9d989fa7526230a0cca22178182360",
      "assetIds": []
    },
    {
      "x": 6,
      "y": 173,
      "size": 1,
      "price": "1011000000000000000000",
      "reserved": "",
      "salt": "0xb878d7b863f2affb43d6f4121e4202e58862fdfabc2252e2a337b428c91e059c",
      "assetIds": []
    },
    {
      "x": 6,
      "y": 172,
      "size": 1,
      "price": "1011000000000000000000",
      "reserved": "",
      "salt": "0x1bbb29ea854aeaae5b1d485b5eb1f6823d4770674811752f2374932cfb146a49",
      "assetIds": []
    },
    {
      "x": 6,
      "y": 171,
      "size": 1,
      "price": "1011000000000000000000",
      "reserved": "",
      "salt": "0x890798ebd26dcc0809c46cc337d88d79625254cce6c9472821a66ce5bef5d747",
      "assetIds": []
    },
    {
      "x": 6,
      "y": 170,
      "size": 1,
      "price": "1011000000000000000000",
      "reserved": "",
      "salt": "0x02ef25174798db6186a499643a30590e730a87000faae52f3471bc860b35bc99",
      "assetIds": []
    },
    {
      "x": 5,
      "y": 170,
      "size": 1,
      "price": "1011000000000000000000",
      "reserved": "",
      "salt": "0xe7c21f752e3069692fdaee64b16bd00e291129326b222559dbf1b643eba9b0ec",
      "assetIds": []
    },
    {
      "x": 4,
      "y": 170,
      "size": 1,
      "price": "1011000000000000000000",
      "reserved": "",
      "salt": "0xd66b1c42447ded3bf58e7dd5f0865ecbd65a8c408a1ee9fd8419ffe71dd4064e",
      "assetIds": []
    },
    {
      "x": 4,
      "y": 171,
      "size": 1,
      "price": "1011000000000000000000",
      "reserved": "",
      "salt": "0x03ccbb4431cc7358c56b2a624a5147981cd40504d238cb36b73931882389c612",
      "assetIds": []
    },
    {
      "x": 4,
      "y": 172,
      "size": 1,
      "price": "1011000000000000000000",
      "reserved": "",
      "salt": "0x8bfb3306193b813180a571776bf720c098c4c6cd1d0d8febb931fd0dc50716d0",
      "assetIds": []
    },
    {
      "x": 4,
      "y": 173,
      "size": 1,
      "price": "1011000000000000000000",
      "reserved": "",
      "salt": "0xf4eef796249054a279a6df823c9ce8b9405bb7d436989213a4b06187b967ef8b",
      "assetIds": []
    },
    {
      "x": 4,
      "y": 174,
      "size": 1,
      "price": "1011000000000000000000",
      "reserved": "",
      "salt": "0x5f78473005b7133fd154f73b7385bb7b5f3ddd45a9d016dc1fac575f714d0a4d",
      "assetIds": []
    },
    {
      "x": 4,
      "y": 175,
      "size": 1,
      "price": "1011000000000000000000",
      "reserved": "",
      "salt": "0x99a2ca017b1af00035ab3a843de5a2521c73246071f375f858b7f6b6d49d2040",
      "assetIds": []
    },
    {
      "x": 4,
      "y": 176,
      "size": 1,
      "price": "1011000000000000000000",
      "reserved": "",
      "salt": "0x7fe105c1391d1844e415664f4910383b4fb5b2e08abe332e22d5186a6922e7e5",
      "assetIds": []
    },
    {
      "x": 5,
      "y": 172,
      "size": 1,
      "price": "1011000000000000000000",
      "reserved": "",
      "salt": "0xf36a299c78cefb37e2263b926d3f304b3b14848df9a2c727154f9af14878fa75",
      "assetIds": []
    },
    {
      "x": 5,
      "y": 173,
      "size": 1,
      "price": "1011000000000000000000",
      "reserved": "",
      "salt": "0xfd48e85e06248dda2ce7f040baf5467e7d5f49ce2144dba1a85ffe92c1f3970f",
      "assetIds": []
    },
    {
      "x": 5,
      "y": 174,
      "size": 1,
      "price": "1011000000000000000000",
      "reserved": "",
      "salt": "0x0347d7370b035a3aaf9e19f5e448adb9844e62f615ff49ff549aa9b7e5b21bc6",
      "assetIds": []
    },
    {
      "x": 5,
      "y": 175,
      "size": 1,
      "price": "1011000000000000000000",
      "reserved": "",
      "salt": "0xa1b8f4ed8bd2dd76ce91e51b027ff50f4c9152441729a3869e09960089e54107",
      "assetIds": []
    },
    {
      "x": 5,
      "y": 176,
      "size": 1,
      "price": "1011000000000000000000",
      "reserved": "",
      "salt": "0xeb44cc11c9305f42cf04d36e876770a03005cf6899173bbc5f481aaadd6c342f",
      "assetIds": []
    },
    {
      "x": 5,
      "y": 180,
      "size": 1,
      "price": "1011000000000000000000",
      "reserved": "",
      "salt": "0x16027e9a60755ee1e9b523d52cc4bf660a6ee6e84c736f51ed54e1ffccc041e0",
      "assetIds": []
    },
    {
      "x": 5,
      "y": 181,
      "size": 1,
      "price": "1011000000000000000000",
      "reserved": "",
      "salt": "0xea1051a7d5e146556f2bf43f00f7eea924f8e8afabb8b5e1794766d9d778389a",
      "assetIds": []
    },
    {
      "x": 3,
      "y": 175,
      "size": 1,
      "price": "1011000000000000000000",
      "reserved": "",
      "salt": "0xa2a1960e81a73f08d3b7bb21a1d4e768558652ee2af890514991c521fb0d5943",
      "assetIds": []
    },
    {
      "x": 3,
      "y": 174,
      "size": 1,
      "price": "1011000000000000000000",
      "reserved": "",
      "salt": "0x64b42a2650c0bb30cd13749aaeb94623ffe24012b5ac8892ee871a45c87e8b42",
      "assetIds": []
    },
    {
      "x": 3,
      "y": 173,
      "size": 1,
      "price": "1011000000000000000000",
      "reserved": "",
      "salt": "0x722bf4517706f690f694e25d669f676ca831890507421d3a9bcba4e6a538e570",
      "assetIds": []
    },
    {
      "x": 3,
      "y": 172,
      "size": 1,
      "price": "1011000000000000000000",
      "reserved": "",
      "salt": "0xad2d70df02c3e702a6d270cce43b360a60e2b2dc6b30922f92075a15b45b3bfe",
      "assetIds": []
    },
    {
      "x": 3,
      "y": 171,
      "size": 1,
      "price": "1011000000000000000000",
      "reserved": "",
      "salt": "0x2b2a62238d1dd334befc8d38da9a0a59557e9603a02d7eefb96dc1bcff8b6a4b",
      "assetIds": []
    },
    {
      "x": 3,
      "y": 170,
      "size": 1,
      "price": "1011000000000000000000",
      "reserved": "",
      "salt": "0x2511e95354f6f2e7a49afece11ae9411c6ea440e7d9fcd130eb8a1bbd0ce7f01",
      "assetIds": []
    },
    {
      "x": 3,
      "y": 176,
      "size": 1,
      "price": "1011000000000000000000",
      "reserved": "",
      "salt": "0xb233333dc8a035a34046d036d18fc30498b35b830aceb759f399347726ae40f1",
      "assetIds": []
    },
    {
      "x": 5,
      "y": 182,
      "size": 1,
      "price": "1011000000000000000000",
      "reserved": "",
      "salt": "0x7e4c5a060c011efe18a2c39ba360eb75bb65bbbe700526445648248b31ab629a",
      "assetIds": []
    },
    {
      "x": 4,
      "y": 180,
      "size": 1,
      "price": "1011000000000000000000",
      "reserved": "",
      "salt": "0x98fd9eb4a32ba8c648ce08da92fad174ebe849803fdfa640aa0b60f97f39e2c6",
      "assetIds": []
    },
    {
      "x": 5,
      "y": 186,
      "size": 1,
      "price": "1011000000000000000000",
      "reserved": "",
      "salt": "0x06186d71e95499562745616cdae1f1e6963345c0a53e7ff57c341200e011ed56",
      "assetIds": []
    },
    {
      "x": 5,
      "y": 187,
      "size": 1,
      "price": "1011000000000000000000",
      "reserved": "",
      "salt": "0xb630446b1d973d913ae73631c9de724d7d746e0391dd4fb048c92f095d898fd6",
      "assetIds": []
    },
    {
      "x": 5,
      "y": 188,
      "size": 1,
      "price": "1011000000000000000000",
      "reserved": "",
      "salt": "0x52e045e3fc73ad34d33bd1c4af5fc368bccef0816835a0dce50d723e663bbaf0",
      "assetIds": []
    },
    {
      "x": 5,
      "y": 189,
      "size": 1,
      "price": "1011000000000000000000",
      "reserved": "",
      "salt": "0x8e2c15ab399a7e6d8a9a6dcbd16da96acd52ca1d0155f301a6357693ec01ad08",
      "assetIds": []
    },
    {
      "x": 5,
      "y": 185,
      "size": 1,
      "price": "1011000000000000000000",
      "reserved": "",
      "salt": "0x9feed660526ddeb8826c941d3144e6f766a340789b1be55f68b573767ed951d6",
      "assetIds": []
    },
    {
      "x": 5,
      "y": 184,
      "size": 1,
      "price": "1011000000000000000000",
      "reserved": "",
      "salt": "0xf29f03794dcd617816a8f27a944211e5d500b9f21760d21cb7ec700854e44c0e",
      "assetIds": []
    },
    {
      "x": 5,
      "y": 183,
      "size": 1,
      "price": "1011000000000000000000",
      "reserved": "",
      "salt": "0x5c4593a28aa2f40d033fabead6ebb6fd3c160e349b5c3a311a611a43f7db5d76",
      "assetIds": []
    },
    {
      "x": 4,
      "y": 181,
      "size": 1,
      "price": "1011000000000000000000",
      "reserved": "",
      "salt": "0x2c54c8537c30d8b5e60d0ff4708f4de69b52e77e67805386ce4a89cc5a2ddbac",
      "assetIds": []
    },
    {
      "x": 5,
      "y": 171,
      "size": 1,
      "price": "1011000000000000000000",
      "reserved": "",
      "salt": "0xf0bbc4728f40f1c2f2a0198309e96f1ffec711efe32658d862f8aaba296bc2c6",
      "assetIds": []
    },
    {
      "x": 7,
      "y": 170,
      "size": 1,
      "price": "1011000000000000000000",
      "reserved": "",
      "salt": "0xf8407a16228017153a3db9d2e129f324dd6b1d5dea97eb032866831fe9410885",
      "assetIds": []
    },
    {
      "x": 8,
      "y": 170,
      "size": 1,
      "price": "1011000000000000000000",
      "reserved": "",
      "salt": "0xb577613dec983c5605f3b9dd844533cfbc34f3e22875fdd107395ff536f1d7fa",
      "assetIds": []
    },
    {
      "x": 9,
      "y": 170,
      "size": 1,
      "price": "1011000000000000000000",
      "reserved": "",
      "salt": "0x53b3872f64f32199aaadb00cd6385b92b251127968dc1d015648e16cb68d4ecb",
      "assetIds": []
    },
    {
      "x": 10,
      "y": 170,
      "size": 1,
      "price": "1011000000000000000000",
      "reserved": "",
      "salt": "0xd0b1864c51aca1bc5e2d5a6e7324e8030d02aa248ba371a4d16d03ab024365ee",
      "assetIds": []
    },
    {
      "x": 10,
      "y": 169,
      "size": 1,
      "price": "1011000000000000000000",
      "reserved": "",
      "salt": "0x503747725d023042fc6f513e2e57931cb1c7060bdef176dd46c119c4365e5478",
      "assetIds": []
    },
    {
      "x": 11,
      "y": 169,
      "size": 1,
      "price": "1011000000000000000000",
      "reserved": "",
      "salt": "0x924d67cb8c86d533dd174dc80b3a5aeeef2b3024c8f891867c72d0112a6caec5",
      "assetIds": []
    },
    {
      "x": 9,
      "y": 169,
      "size": 1,
      "price": "1011000000000000000000",
      "reserved": "",
      "salt": "0x98877317bac27d6422ff033525c889f218da492a7a9b352b47d64fab896d601f",
      "assetIds": []
    },
    {
      "x": 8,
      "y": 169,
      "size": 1,
      "price": "1011000000000000000000",
      "reserved": "",
      "salt": "0x5522a9de7ea6c61821ddd8b3b2b7fd1c9efd64634b6e01a8b95d9d90dc625902",
      "assetIds": []
    },
    {
      "x": 7,
      "y": 169,
      "size": 1,
      "price": "1011000000000000000000",
      "reserved": "",
      "salt": "0x99bd50ba6b9e47c854eb9821405caf7d98ac357672e1402846feacf9db3f247d",
      "assetIds": []
    },
    {
      "x": 9,
      "y": 171,
      "size": 1,
      "price": "1011000000000000000000",
      "reserved": "",
      "salt": "0xbce7d51f74db813da44baffabbee5e2df85ed446a7dab49da095bbfa285f9ef9",
      "assetIds": []
    },
    {
      "x": 10,
      "y": 172,
      "size": 1,
      "price": "1011000000000000000000",
      "reserved": "",
      "salt": "0x5f522aa7031e6adfd0d2e80ce6c4a74b666426a5a7a601f1b564157940b84941",
      "assetIds": []
    },
    {
      "x": 11,
      "y": 172,
      "size": 1,
      "price": "1011000000000000000000",
      "reserved": "",
      "salt": "0xbb78d6437f9bf0a031bf96e32255157b788f816f3d58463cc077b7b66e4ab27c",
      "assetIds": []
    },
    {
      "x": 9,
      "y": 172,
      "size": 1,
      "price": "1011000000000000000000",
      "reserved": "",
      "salt": "0x0f4ed7941ee5bc6ab50147a9c60ae007944cdfe4b558a5bc64da15e791c7de58",
      "assetIds": []
    },
    {
      "x": 8,
      "y": 172,
      "size": 1,
      "price": "1011000000000000000000",
      "reserved": "",
      "salt": "0xef00b25215d94d29887c443ac4eb468e86e08bb79919bf78e8361cc745544533",
      "assetIds": []
    },
    {
      "x": 13,
      "y": 172,
      "size": 1,
      "price": "1011000000000000000000",
      "reserved": "",
      "salt": "0x1ef9fc365bfb83bf484e466a12649e43e7b2e6fc3a4e4729d714874ac7ff5993",
      "assetIds": []
    },
    {
      "x": 14,
      "y": 172,
      "size": 1,
      "price": "1011000000000000000000",
      "reserved": "",
      "salt": "0xed2549e1d3e4209f506ec70f8acd544692804a6cfd06a7bffee2fce7ecc959a3",
      "assetIds": []
    },
    {
      "x": 13,
      "y": 171,
      "size": 1,
      "price": "1011000000000000000000",
      "reserved": "",
      "salt": "0xd77368be425ed014d8c2f9d87dd856c13f1e3d839b5181968ee76564143e1eb1",
      "assetIds": []
    },
    {
      "x": 11,
      "y": 170,
      "size": 1,
      "price": "1011000000000000000000",
      "reserved": "",
      "salt": "0xcdd7fb776e7eab8287871c8500a3b4806f44f2b015dbadffc505f4280dc64885",
      "assetIds": []
    },
    {
      "x": 8,
      "y": 171,
      "size": 1,
      "price": "1011000000000000000000",
      "reserved": "",
      "salt": "0x9cb2ff72a6d4a8b309e02114a724d78c78be961f7961f7b5a13b1d36879301a7",
      "assetIds": []
    },
    {
      "x": 7,
      "y": 171,
      "size": 1,
      "price": "1011000000000000000000",
      "reserved": "",
      "salt": "0x4194c1a6de7fbb434ee4434341c996ae3802673c472de905669f1db5195899ab",
      "assetIds": []
    },
    {
      "x": 10,
      "y": 171,
      "size": 1,
      "price": "1011000000000000000000",
      "reserved": "",
      "salt": "0xa4767c29b88f3571c958f02c32cb4321d9f8e75017338ef61064e9f1986bc6e2",
      "assetIds": []
    },
    {
      "x": 11,
      "y": 171,
      "size": 1,
      "price": "1011000000000000000000",
      "reserved": "",
      "salt": "0x9569df37cb8db21acf34aa22c6337b27ea8450033806b56fe9252080226fde57",
      "assetIds": []
    },
    {
      "x": 7,
      "y": 172,
      "size": 1,
      "price": "1011000000000000000000",
      "reserved": "",
      "salt": "0x5895b810ff4e2e297308e611a232582c29914917bd2025f51311dc45d089599d",
      "assetIds": []
    },
    {
      "x": 7,
      "y": 173,
      "size": 1,
      "price": "1011000000000000000000",
      "reserved": "",
      "salt": "0xcd9f37b644f44a81c15cd3b53ff4cdba537a3ac8c36eb350abd34f372bfc66ed",
      "assetIds": []
    },
    {
      "x": 7,
      "y": 175,
      "size": 1,
      "price": "1011000000000000000000",
      "reserved": "",
      "salt": "0x80049f8473e0eedcc0f1254f95a4e2a561c7130920448000edb8e18caa949a8f",
      "assetIds": []
    },
    {
      "x": 7,
      "y": 176,
      "size": 1,
      "price": "1011000000000000000000",
      "reserved": "",
      "salt": "0x32eca799d5b6ae2cf4368fb051a1543099a2fe133ee0676bdcb5ee232bc08396",
      "assetIds": []
    },
    {
      "x": 7,
      "y": 177,
      "size": 1,
      "price": "1011000000000000000000",
      "reserved": "",
      "salt": "0x3991091eb0d9c26d4f524402075bf153f2bad19357564bb784f9079efbd03b0d",
      "assetIds": []
    },
    {
      "x": 8,
      "y": 177,
      "size": 1,
      "price": "1011000000000000000000",
      "reserved": "",
      "salt": "0xdb37a9c95e490a9c7e2a5462c9f19d6c9f776fce778df9b5cb09b370f0a6b7ce",
      "assetIds": []
    },
    {
      "x": 9,
      "y": 177,
      "size": 1,
      "price": "1011000000000000000000",
      "reserved": "",
      "salt": "0xeafeccf3b86e102ce5a0d3130668f1180b6e95d2d7da3eca38b28c29df46dcb8",
      "assetIds": []
    },
    {
      "x": 10,
      "y": 177,
      "size": 1,
      "price": "1011000000000000000000",
      "reserved": "",
      "salt": "0x0b4e5e98c4a931db9667256686a7266657efad7e6505c3ef0bf40f5b20fed89e",
      "assetIds": []
    },
    {
      "x": 10,
      "y": 176,
      "size": 1,
      "price": "1011000000000000000000",
      "reserved": "",
      "salt": "0xacfc206a4f267524c100d3e50e52ef592d57d5ef57b8622fafa62f389fec42fe",
      "assetIds": []
    },
    {
      "x": 10,
      "y": 175,
      "size": 1,
      "price": "1011000000000000000000",
      "reserved": "",
      "salt": "0x2869ea2daf4fdef70b00a8fbb0844b54c7ab5b9621250150ecd1dab09d2c7735",
      "assetIds": []
    },
    {
      "x": 9,
      "y": 175,
      "size": 1,
      "price": "1011000000000000000000",
      "reserved": "",
      "salt": "0xef6d6867c16ff62cbb619224408b00b0fb6d4f8fe6299b296cef931ca9039a42",
      "assetIds": []
    },
    {
      "x": 9,
      "y": 174,
      "size": 1,
      "price": "1011000000000000000000",
      "reserved": "",
      "salt": "0x2f00e299dc79d1ecacd11beca040feabcc3d0c4105f9eb3b8c11d18ff3ba1ef7",
      "assetIds": []
    },
    {
      "x": 8,
      "y": 173,
      "size": 1,
      "price": "1011000000000000000000",
      "reserved": "",
      "salt": "0x8a99ab77ef179a8bc5eebf205c5a8ed12a35b088c38ebc9ead1f47887f150cd9",
      "assetIds": []
    },
    {
      "x": 10,
      "y": 173,
      "size": 1,
      "price": "1011000000000000000000",
      "reserved": "",
      "salt": "0x4dbd074d75a5eef3c43fe68de27f3dc096d24823d3d77562eed79d2b21a6a5f5",
      "assetIds": []
    },
    {
      "x": 10,
      "y": 174,
      "size": 1,
      "price": "1011000000000000000000",
      "reserved": "",
      "salt": "0x57b53b2dc268779c9b1904c62850072caaa577ed764b91943a06531fbf27cfb9",
      "assetIds": []
    },
    {
      "x": 10,
      "y": 178,
      "size": 1,
      "price": "1011000000000000000000",
      "reserved": "",
      "salt": "0xb2cb30d9be26add258bd6902808be338f6ecb1c05fead6fe10a243117c585843",
      "assetIds": []
    },
    {
      "x": 10,
      "y": 179,
      "size": 1,
      "price": "1011000000000000000000",
      "reserved": "",
      "salt": "0x76e241a8793c75d6bcef185904135df45867265d6d48cac878a64b4e9909a467",
      "assetIds": []
    },
    {
      "x": 9,
      "y": 173,
      "size": 1,
      "price": "1011000000000000000000",
      "reserved": "",
      "salt": "0x0810cd8a11b54afcef7ba1d0e33ac70191b376c721c9dee2d95a45a71d305336",
      "assetIds": []
    },
    {
      "x": 11,
      "y": 173,
      "size": 1,
      "price": "1011000000000000000000",
      "reserved": "",
      "salt": "0x4835a89228289d6a7f1a3731bdbb92da9f311a16ada2056fb89fb0f62bba2aec",
      "assetIds": []
    },
    {
      "x": 10,
      "y": 181,
      "size": 1,
      "price": "1011000000000000000000",
      "reserved": "",
      "salt": "0x4f090a76878e3b73188ad9df124be2bcd9e57d273cc1a1c85bddb265f52d30ea",
      "assetIds": []
    },
    {
      "x": 10,
      "y": 182,
      "size": 1,
      "price": "1011000000000000000000",
      "reserved": "",
      "salt": "0xb4e1a25bb6f14355d5c1c67648848dbe27cc69c6325b28be82e8d5b91c20aca7",
      "assetIds": []
    },
    {
      "x": 10,
      "y": 180,
      "size": 1,
      "price": "1011000000000000000000",
      "reserved": "",
      "salt": "0xb8a2bba09a507108a255fc88c4a9a2f52feaced748f4a03f7522e1f8dd199baa",
      "assetIds": []
    },
    {
      "x": 9,
      "y": 183,
      "size": 1,
      "price": "1011000000000000000000",
      "reserved": "",
      "salt": "0xd4edbec7088ea72299aea89c8aaf9af2a8516fe164505a1cf8809d12f409ee51",
      "assetIds": []
    },
    {
      "x": 9,
      "y": 184,
      "size": 1,
      "price": "1011000000000000000000",
      "reserved": "",
      "salt": "0xa2c9b5f47e6b00d865bb06913254d873f1120b415e836693dd6885e9691ad67c",
      "assetIds": []
    },
    {
      "x": 9,
      "y": 182,
      "size": 1,
      "price": "1011000000000000000000",
      "reserved": "",
      "salt": "0x6cb4bf3244b53ba79dae63ff57ed78bf3d47b985b7f547ef3870715d5dbc0f69",
      "assetIds": []
    },
    {
      "x": 9,
      "y": 181,
      "size": 1,
      "price": "1011000000000000000000",
      "reserved": "",
      "salt": "0x59597ff94da038c77cd7460ce327377d448ac9e875b00a6aa7f2c57a8c72761a",
      "assetIds": []
    },
    {
      "x": 9,
      "y": 180,
      "size": 1,
      "price": "1011000000000000000000",
      "reserved": "",
      "salt": "0x7b1988d86bd18544170f9014d61dcce7e71ee7865e8c9b52e7f93015aea624a3",
      "assetIds": []
    },
    {
      "x": 9,
      "y": 179,
      "size": 1,
      "price": "1011000000000000000000",
      "reserved": "",
      "salt": "0xc4955149e7a41e156df2a51fdb43c7a17cb0177211f1a6e15186cd7ea255215a",
      "assetIds": []
    },
    {
      "x": 9,
      "y": 178,
      "size": 1,
      "price": "1011000000000000000000",
      "reserved": "",
      "salt": "0xb8cbd69e00cf56335b268e3258e785bdd25bc90e475965eaf04038746a7cfb28",
      "assetIds": []
    },
    {
      "x": 9,
      "y": 176,
      "size": 1,
      "price": "1011000000000000000000",
      "reserved": "",
      "salt": "0x67df58eb4efd33470b9c55e2155813d2b9c58ae235af3ab0b8b338ada37a31d4",
      "assetIds": []
    },
    {
      "x": 8,
      "y": 174,
      "size": 1,
      "price": "1011000000000000000000",
      "reserved": "",
      "salt": "0xcda59bf3e61dac4bae02d3b8bf77ca67dfef31c0205c071a5597fcd21f43a055",
      "assetIds": []
    },
    {
      "x": 8,
      "y": 175,
      "size": 1,
      "price": "1011000000000000000000",
      "reserved": "",
      "salt": "0x8f3fa790b9798ce48f7fe589eaf96680241a3f8337f9b17376e93f6b36a0a773",
      "assetIds": []
    },
    {
      "x": 8,
      "y": 176,
      "size": 1,
      "price": "1011000000000000000000",
      "reserved": "",
      "salt": "0xb73ccaa08e8834cc6ad58d8543735b3fcfa45d7e38db4dc2ddb9cee42aa64c9b",
      "assetIds": []
    },
    {
      "x": 7,
      "y": 178,
      "size": 1,
      "price": "1011000000000000000000",
      "reserved": "",
      "salt": "0x8c75ffb067a8579bbe020ab82f4cd3af97e63ab5436514453cc1cb9868c15902",
      "assetIds": []
    },
    {
      "x": 7,
      "y": 179,
      "size": 1,
      "price": "1011000000000000000000",
      "reserved": "",
      "salt": "0x1f18f06f4a2d6ae2d29ae41abc9746e6f63b13234cb005864cb5584566fc8503",
      "assetIds": []
    },
    {
      "x": 10,
      "y": 183,
      "size": 1,
      "price": "1011000000000000000000",
      "reserved": "",
      "salt": "0xcfd770ad8f717d79dcf89f33e8fbf38fbb7fe5ba694d95edfa22fe60b7994657",
      "assetIds": []
    },
    {
      "x": 10,
      "y": 184,
      "size": 1,
      "price": "1011000000000000000000",
      "reserved": "",
      "salt": "0x9112252666df05a4f68ef83bff1e8a92311879763a304c79f9e6444c976c8a4a",
      "assetIds": []
    },
    {
      "x": 10,
      "y": 185,
      "size": 1,
      "price": "1011000000000000000000",
      "reserved": "",
      "salt": "0xe739b64bd9e8c5c5561d31dc30ab2fee381e2ad837d20b5da05919546591b376",
      "assetIds": []
    },
    {
      "x": 8,
      "y": 181,
      "size": 1,
      "price": "1011000000000000000000",
      "reserved": "",
      "salt": "0x21b96b89fc3759ee5932fc5963083363a021b99514224b7ff53834febacc2668",
      "assetIds": []
    },
    {
      "x": 8,
      "y": 180,
      "size": 1,
      "price": "1011000000000000000000",
      "reserved": "",
      "salt": "0x545917e043339b6e844e8ff831f979e906b4b6d97a5a313984cfcd2806b37735",
      "assetIds": []
    },
    {
      "x": 8,
      "y": 178,
      "size": 1,
      "price": "1011000000000000000000",
      "reserved": "",
      "salt": "0x02b10d4bcc6cd396fea7155b7307d63bf1aeef3cdbc1d679951df08c89f73b02",
      "assetIds": []
    },
    {
      "x": 7,
      "y": 174,
      "size": 1,
      "price": "1011000000000000000000",
      "reserved": "",
      "salt": "0x646e05681a00dbbc685302a7c2cdcf76fc02956d717f7aa7edfaeceb3f4fb538",
      "assetIds": []
    },
    {
      "x": 8,
      "y": 182,
      "size": 1,
      "price": "1011000000000000000000",
      "reserved": "",
      "salt": "0x60d670bf352402c67a9bc901b666bb24999d69723fb15d5942257c378b381888",
      "assetIds": []
    },
    {
      "x": 8,
      "y": 179,
      "size": 1,
      "price": "1011000000000000000000",
      "reserved": "",
      "salt": "0x063f1b6be7ae1a25b6991492d1486a42b56ca43bbb74cc80940657d2545753f1",
      "assetIds": []
    },
    {
      "x": 7,
      "y": 183,
      "size": 1,
      "price": "1011000000000000000000",
      "reserved": "",
      "salt": "0x7862f6df55b8d8bcd695d7b1d1b5be106abe89a227af7ff63f312575977a9781",
      "assetIds": []
    },
    {
      "x": 7,
      "y": 184,
      "size": 1,
      "price": "1011000000000000000000",
      "reserved": "",
      "salt": "0xefaccd7c7689196a469e36555da7f8b7106a3276846c71fc8b8df283bdb520e8",
      "assetIds": []
    },
    {
      "x": 7,
      "y": 186,
      "size": 1,
      "price": "1011000000000000000000",
      "reserved": "",
      "salt": "0x87cbddb7eebbab3664f3da4e8b358cb16df77717a1c1cfc7ba86fb5c33442469",
      "assetIds": []
    },
    {
      "x": 7,
      "y": 187,
      "size": 1,
      "price": "1011000000000000000000",
      "reserved": "",
      "salt": "0x72a0eeee6e4c85ae429aa3baaacc5ca5dd43e0657c02ba625f6d1fdd16395ae3",
      "assetIds": []
    },
    {
      "x": 7,
      "y": 188,
      "size": 1,
      "price": "1011000000000000000000",
      "reserved": "",
      "salt": "0x3858dcdf7635d8bb396d4ede73ffe9f41d9a7d6a5bdbdd8657aa29524ddd9e4a",
      "assetIds": []
    },
    {
      "x": 7,
      "y": 189,
      "size": 1,
      "price": "1011000000000000000000",
      "reserved": "",
      "salt": "0xd53bb53d27cc0043740a65c846c18f5bd3689bdd5b2902aad91e0554127731ff",
      "assetIds": []
    },
    {
      "x": 7,
      "y": 185,
      "size": 1,
      "price": "1011000000000000000000",
      "reserved": "",
      "salt": "0x78bee03f12159d66201cba24f7b04dddd284dee986921c98d09141f0bd9f7007",
      "assetIds": []
    },
    {
      "x": 7,
      "y": 182,
      "size": 1,
      "price": "1011000000000000000000",
      "reserved": "",
      "salt": "0x16cb4e6e9e872c959885608e91243aa64e24d0f9f5423748202e0a354ef004cc",
      "assetIds": []
    },
    {
      "x": 8,
      "y": 186,
      "size": 1,
      "price": "1011000000000000000000",
      "reserved": "",
      "salt": "0xe2c92d37b295ec847db3eadef8d46cfc41f11402d6af49946410b5edc721a42d",
      "assetIds": []
    },
    {
      "x": 8,
      "y": 187,
      "size": 1,
      "price": "1011000000000000000000",
      "reserved": "",
      "salt": "0x8331e1809facfc0827ec1c7879366130f25aa69d91734aed3f04d0a430b8553c",
      "assetIds": []
    },
    {
      "x": 8,
      "y": 185,
      "size": 1,
      "price": "1011000000000000000000",
      "reserved": "",
      "salt": "0x4fa132740a2835328204b446abc54fb99511ca809203d6600be1f4b5f0c9c564",
      "assetIds": []
    },
    {
      "x": 8,
      "y": 184,
      "size": 1,
      "price": "1011000000000000000000",
      "reserved": "",
      "salt": "0xcb7a2a79193dc96ca3d88c56f25488e6b5f5d050200e2bad8671e1f0a696e4ae",
      "assetIds": []
    },
    {
      "x": 8,
      "y": 183,
      "size": 1,
      "price": "1011000000000000000000",
      "reserved": "",
      "salt": "0x4d6f22e4cc289bea7f8a4d3a7177d8272ee578c04680679d49be3eaba66f3c89",
      "assetIds": []
    },
    {
      "x": 7,
      "y": 181,
      "size": 1,
      "price": "1011000000000000000000",
      "reserved": "",
      "salt": "0xd5ea79e336f745b9d877d7c1adbcf58b405cb986979cc45b04eb7526940b48fd",
      "assetIds": []
    },
    {
      "x": 9,
      "y": 185,
      "size": 1,
      "price": "1011000000000000000000",
      "reserved": "",
      "salt": "0x379448e9bed5fcf255bdae2589da8b3ac594eee708263826e8bd0d6e25ae17ec",
      "assetIds": []
    },
    {
      "x": 9,
      "y": 186,
      "size": 1,
      "price": "1011000000000000000000",
      "reserved": "",
      "salt": "0x9f85c8ea9508f86d40ef2e4d66f02673ffcce7aed17ede7065fb21579e46be4f",
      "assetIds": []
    },
    {
      "x": 10,
      "y": 186,
      "size": 1,
      "price": "1011000000000000000000",
      "reserved": "",
      "salt": "0xf9384d4e86f9df27c6f28fdf651384482d70d02a31ec16c06689d3b667bb7382",
      "assetIds": []
    },
    {
      "x": 10,
      "y": 187,
      "size": 1,
      "price": "1011000000000000000000",
      "reserved": "",
      "salt": "0xfeee23eff23a73fbe91e625be2ba94d33ca70621d2f088561eaf3895ec661610",
      "assetIds": []
    },
    {
      "x": 10,
      "y": 188,
      "size": 1,
      "price": "1011000000000000000000",
      "reserved": "",
      "salt": "0x729bdde1d4243ccd59b20fb437274e3517334d53c5a7c7877f3511014928347a",
      "assetIds": []
    },
    {
      "x": 8,
      "y": 189,
      "size": 1,
      "price": "1011000000000000000000",
      "reserved": "",
      "salt": "0x7f92a2605c0b4d4a9ac7463d135400e06dab5b9d205846a619507d17f433a01e",
      "assetIds": []
    },
    {
      "x": 8,
      "y": 188,
      "size": 1,
      "price": "1011000000000000000000",
      "reserved": "",
      "salt": "0x084b43d302c56bcd4d761061ff422d2d698d2fec9e14692566d7564d118ff28d",
      "assetIds": []
    },
    {
      "x": 9,
      "y": 188,
      "size": 1,
      "price": "1011000000000000000000",
      "reserved": "",
      "salt": "0x11a92c17a2a3eec516243be204240c4787c7ad23085029d02abf27e16f6e59e1",
      "assetIds": []
    },
    {
      "x": 9,
      "y": 187,
      "size": 1,
      "price": "1011000000000000000000",
      "reserved": "",
      "salt": "0xb91e85f272e728ca4c8ec1919d839ed96029c5b37795c2bc61d41de65853926d",
      "assetIds": []
    },
    {
      "x": 7,
      "y": 180,
      "size": 1,
      "price": "1011000000000000000000",
      "reserved": "",
      "salt": "0xdd89509891dc18cd3a33de43e9182242168a937dffe8cba535f82b23c418310b",
      "assetIds": []
    },
    {
      "x": 24,
      "y": 200,
      "size": 1,
      "price": "1011000000000000000000",
      "reserved": "",
      "salt": "0x23068dac83d84063379e94aa551edfab50c07c36ba6244321fd9134c73e94125",
      "assetIds": []
    },
    {
      "x": 25,
      "y": 200,
      "size": 1,
      "price": "1011000000000000000000",
      "reserved": "",
      "salt": "0x463523b515aac2165421e04f22e7e551eba257fff05de1283b363ee543f7040b",
      "assetIds": []
    },
    {
      "x": 26,
      "y": 200,
      "size": 1,
      "price": "1011000000000000000000",
      "reserved": "",
      "salt": "0x62d89d0b49336ebb2d5fdb6cd5b36dd3e3af4265c9ba8069471b206856d5a509",
      "assetIds": []
    },
    {
      "x": 26,
      "y": 199,
      "size": 1,
      "price": "1011000000000000000000",
      "reserved": "",
      "salt": "0x7affe92a64fcf4f198b365adcdb6f2ccf7a294280931a3c24b9bea842ad75826",
      "assetIds": []
    },
    {
      "x": 26,
      "y": 198,
      "size": 1,
      "price": "1011000000000000000000",
      "reserved": "",
      "salt": "0x74f9150772aa7cf6749998440c19d1fec14d53b1309859c07f8f366dd32b4235",
      "assetIds": []
    },
    {
      "x": 26,
      "y": 197,
      "size": 1,
      "price": "1011000000000000000000",
      "reserved": "",
      "salt": "0x460662783fc7eb9fb69f1829686acc9d34f5115f8f08c4d81161295afba55d43",
      "assetIds": []
    },
    {
      "x": 26,
      "y": 196,
      "size": 1,
      "price": "1011000000000000000000",
      "reserved": "",
      "salt": "0xc64f0920425b0809e1420403eac1c8ba6e81af8734a175b646735a2f677944f8",
      "assetIds": []
    },
    {
      "x": 26,
      "y": 195,
      "size": 1,
      "price": "1011000000000000000000",
      "reserved": "",
      "salt": "0xc74bcb9de59930f82d7bd6395cbfb43f5e16ac62d15d46b7f134ebb1b12ccad8",
      "assetIds": []
    },
    {
      "x": 26,
      "y": 194,
      "size": 1,
      "price": "1011000000000000000000",
      "reserved": "",
      "salt": "0x120033f844fb479499eb09f9067b58fca49cab200de56573b89d8791ebe795fe",
      "assetIds": []
    },
    {
      "x": 27,
      "y": 194,
      "size": 1,
      "price": "1011000000000000000000",
      "reserved": "",
      "salt": "0xa666551626e4615ed97315f48bb6fe0ba4f8af0191e8a72ea8ab26c36db9c6a0",
      "assetIds": []
    },
    {
      "x": 28,
      "y": 194,
      "size": 1,
      "price": "1011000000000000000000",
      "reserved": "",
      "salt": "0xa7669b070aaefc65d0809aa69acaf1c72f897b73b58f02ee24fe44fd20889104",
      "assetIds": []
    },
    {
      "x": 28,
      "y": 193,
      "size": 1,
      "price": "1011000000000000000000",
      "reserved": "",
      "salt": "0xf5c8602277b8ade8769bb0f8649961d64ad20cd13297aae50df7e364b2553ce5",
      "assetIds": []
    },
    {
      "x": 28,
      "y": 192,
      "size": 1,
      "price": "1011000000000000000000",
      "reserved": "",
      "salt": "0xf76198ba85179f06d82528bd954cd3614783cdb368031b1d53ddb1a2fcc80bec",
      "assetIds": []
    },
    {
      "x": 29,
      "y": 192,
      "size": 1,
      "price": "1011000000000000000000",
      "reserved": "",
      "salt": "0x409e6ccad067476f7912ea47a8ce2c17c18849595546ec7ff3ae8a9e442f0747",
      "assetIds": []
    },
    {
      "x": 29,
      "y": 193,
      "size": 1,
      "price": "1011000000000000000000",
      "reserved": "",
      "salt": "0x726681194cd7c33550455c39c7617dbcd9ee39be98af7c4e28e6062f7c556600",
      "assetIds": []
    },
    {
      "x": 29,
      "y": 194,
      "size": 1,
      "price": "1011000000000000000000",
      "reserved": "",
      "salt": "0xb45157834d9200220b1093ef2054d0996ab52e74f9fde3cf3e14456e3eb1d7cf",
      "assetIds": []
    },
    {
      "x": 29,
      "y": 191,
      "size": 1,
      "price": "1011000000000000000000",
      "reserved": "",
      "salt": "0xada5fbd703028c45cfa32287b16c3e6e01658d6045fe4f926ffc200389d16257",
      "assetIds": []
    },
    {
      "x": 29,
      "y": 190,
      "size": 1,
      "price": "1011000000000000000000",
      "reserved": "",
      "salt": "0x9cfd5349021e0d0f94c665b47bdc7b698003a4994d6cc4e95a12e7f559c64af8",
      "assetIds": []
    },
    {
      "x": 29,
      "y": 189,
      "size": 1,
      "price": "1011000000000000000000",
      "reserved": "",
      "salt": "0x58354527c5fd503f9053a6abf6ec1440826a3a817499fb1bdc9a5ec1b01d17b9",
      "assetIds": []
    },
    {
      "x": 29,
      "y": 188,
      "size": 1,
      "price": "1011000000000000000000",
      "reserved": "",
      "salt": "0x0899e5bb910f6c6d024e22ef9bc44f000cda00d924aedb356ca40d7834839d35",
      "assetIds": []
    },
    {
      "x": 29,
      "y": 187,
      "size": 1,
      "price": "1011000000000000000000",
      "reserved": "",
      "salt": "0xeb92f217e68c4931d994781b5fb7bdc9760f880d65fdfc4c2f51284b61126e2f",
      "assetIds": []
    },
    {
      "x": 29,
      "y": 186,
      "size": 1,
      "price": "1011000000000000000000",
      "reserved": "",
      "salt": "0xb3bacd21a3a33f677c4900954f7454eff1f90c3e516a1251552f24930a0956e6",
      "assetIds": []
    },
    {
      "x": 29,
      "y": 185,
      "size": 1,
      "price": "1011000000000000000000",
      "reserved": "",
      "salt": "0x00356680c0ea489cafbd7ee0a83ad99914fb0684135a5ae4535b2b218b88ffad",
      "assetIds": []
    },
    {
      "x": 30,
      "y": 185,
      "size": 1,
      "price": "1011000000000000000000",
      "reserved": "",
      "salt": "0x21cd18542cc6d05824f41fcc29c1f048b952426d87422a3667544f0cd65c8603",
      "assetIds": []
    },
    {
      "x": 30,
      "y": 184,
      "size": 1,
      "price": "1011000000000000000000",
      "reserved": "",
      "salt": "0xc0e518735f7047cf285ead58bb91818f726fd28f5e839488c2e706f1ad9d5eaa",
      "assetIds": []
    },
    {
      "x": 30,
      "y": 183,
      "size": 1,
      "price": "1011000000000000000000",
      "reserved": "",
      "salt": "0xf9e9207c0d94da5e364f3f425ad368a6197e2cd5ddfda5970a235f123e0ee646",
      "assetIds": []
    },
    {
      "x": 30,
      "y": 182,
      "size": 1,
      "price": "1011000000000000000000",
      "reserved": "",
      "salt": "0x55171ec73f9fad61f16ea0dbb3a24e755325e79d47437725c33ef5431c274072",
      "assetIds": []
    },
    {
      "x": 31,
      "y": 185,
      "size": 1,
      "price": "1011000000000000000000",
      "reserved": "",
      "salt": "0x5841e9d502e929b773866b3a15a3b8b179b4ed7d05385e7b0f7aaf5b57ed0380",
      "assetIds": []
    },
    {
      "x": 32,
      "y": 185,
      "size": 1,
      "price": "1011000000000000000000",
      "reserved": "",
      "salt": "0x3382aa687fae0504f5f5b54429f121bc81804c03d94b1f92644c2647d3acc17a",
      "assetIds": []
    },
    {
      "x": 33,
      "y": 185,
      "size": 1,
      "price": "1011000000000000000000",
      "reserved": "",
      "salt": "0x61a37bf70527ce265fff95071402f740f7303f7830dac658e61588beb050ff12",
      "assetIds": []
    },
    {
      "x": 34,
      "y": 185,
      "size": 1,
      "price": "1011000000000000000000",
      "reserved": "",
      "salt": "0x02b5c4666946ded6c9d28468148c9844d08e0d019a65c06aaac19de9dad3b327",
      "assetIds": []
    },
    {
      "x": 35,
      "y": 185,
      "size": 1,
      "price": "1011000000000000000000",
      "reserved": "",
      "salt": "0x0eff96f8f74b3aad558b9d2b65d78f0f5cce4d3d7bc7020fba6c3fed6e1fcbc7",
      "assetIds": []
    },
    {
      "x": 35,
      "y": 184,
      "size": 1,
      "price": "1011000000000000000000",
      "reserved": "",
      "salt": "0x78d6125d508f73689b75d99a25d42f7a8f5d2ce341d3ed41ed5edd27fc317ffb",
      "assetIds": []
    },
    {
      "x": 35,
      "y": 183,
      "size": 1,
      "price": "1011000000000000000000",
      "reserved": "",
      "salt": "0xf6614d919fae78629cd930c14554b5fb6a6b508d5c30ed5bf7c90d4b466a3c47",
      "assetIds": []
    },
    {
      "x": 35,
      "y": 182,
      "size": 1,
      "price": "1011000000000000000000",
      "reserved": "",
      "salt": "0xcaff36aa49375964281a586ab85743a60757772301050802f20f543998eb8492",
      "assetIds": []
    },
    {
      "x": 35,
      "y": 181,
      "size": 1,
      "price": "1011000000000000000000",
      "reserved": "",
      "salt": "0x20efddbfefe5f4af81a3b4447d489237d1183565b1b18d080606f6fe3e7dbb8d",
      "assetIds": []
    },
    {
      "x": 35,
      "y": 180,
      "size": 1,
      "price": "1011000000000000000000",
      "reserved": "",
      "salt": "0x30efdd38ef26a11c812b5827ccf54eb9fc2732d1b282a837d31b1608ac3acff0",
      "assetIds": []
    },
    {
      "x": 34,
      "y": 180,
      "size": 1,
      "price": "1011000000000000000000",
      "reserved": "",
      "salt": "0x361f2975815ae20a472ac73fa7db3653c9e29c4ca227d22a8978ce10fe34f595",
      "assetIds": []
    },
    {
      "x": 33,
      "y": 180,
      "size": 1,
      "price": "1011000000000000000000",
      "reserved": "",
      "salt": "0x1b65997edb64a0ff01a93c3af0965d2d8601d30f8865d585d2b3ac3ce351de3c",
      "assetIds": []
    },
    {
      "x": 32,
      "y": 180,
      "size": 1,
      "price": "1011000000000000000000",
      "reserved": "",
      "salt": "0x7ea853ca5a278e2ec91db84874d43f4ba719226d0bebe9c437e2969e1de7db60",
      "assetIds": []
    },
    {
      "x": 31,
      "y": 180,
      "size": 1,
      "price": "1011000000000000000000",
      "reserved": "",
      "salt": "0x14e4dbe8b05f2c7fd0359cbc715479acd829dd9c725a6d1f790518b66a8e0e47",
      "assetIds": []
    },
    {
      "x": 30,
      "y": 180,
      "size": 1,
      "price": "1011000000000000000000",
      "reserved": "",
      "salt": "0x353c9ddaab11215fda3ad4acd4e1ce3532eb25b41ea193936343cf828f1fbda9",
      "assetIds": []
    },
    {
      "x": 35,
      "y": 173,
      "size": 1,
      "price": "1011000000000000000000",
      "reserved": "",
      "salt": "0xd0732750e296298dbc2054ac5abb7b6c104c884504d3faaf2cf1c7215169e512",
      "assetIds": []
    },
    {
      "x": 35,
      "y": 172,
      "size": 1,
      "price": "1011000000000000000000",
      "reserved": "",
      "salt": "0x2aef95b42546cfc932da108a882e525050dcddc1ef89340bd099eff8ea2c4b89",
      "assetIds": []
    },
    {
      "x": 35,
      "y": 171,
      "size": 1,
      "price": "1011000000000000000000",
      "reserved": "",
      "salt": "0x0847e52807a06b7a2ca4d892e5fbe9e2bad6f5765943d45df23922e05453b877",
      "assetIds": []
    },
    {
      "x": 35,
      "y": 170,
      "size": 1,
      "price": "1011000000000000000000",
      "reserved": "",
      "salt": "0xb61175801171f1ef8176afa8f8a6d27550dee6e1322b73ed25e400b01e11588d",
      "assetIds": []
    },
    {
      "x": 35,
      "y": 169,
      "size": 1,
      "price": "1011000000000000000000",
      "reserved": "",
      "salt": "0xca24e2134002bbf886fac33d48b64313a65e6ae2a045758f7b0a49ad0d3f7efb",
      "assetIds": []
    },
    {
      "x": 34,
      "y": 169,
      "size": 1,
      "price": "1011000000000000000000",
      "reserved": "",
      "salt": "0xb81c6dfd8af8844fbff4c326f17361fa26603cdb66c070042a5e938841a2f1c5",
      "assetIds": []
    },
    {
      "x": 34,
      "y": 168,
      "size": 1,
      "price": "1011000000000000000000",
      "reserved": "",
      "salt": "0x68251b411b377999501d9bfd7b2eefd38b6b3c0108de9dd99eeba66365cb8a22",
      "assetIds": []
    },
    {
      "x": 33,
      "y": 168,
      "size": 1,
      "price": "1011000000000000000000",
      "reserved": "",
      "salt": "0x513b23942b74e601904f821204850bd479cbc0227b6483f9bc248ea662bb5614",
      "assetIds": []
    },
    {
      "x": 32,
      "y": 168,
      "size": 1,
      "price": "1011000000000000000000",
      "reserved": "",
      "salt": "0x95cd5fd20a22eb3a77268ea1684dcf77a9b002da0749f12b05466ecf7c5e9f3d",
      "assetIds": []
    },
    {
      "x": 31,
      "y": 168,
      "size": 1,
      "price": "1011000000000000000000",
      "reserved": "",
      "salt": "0xd9583065276fc5965bfff02307559f8c7878b7df8b9715e738c746d0db000a5e",
      "assetIds": []
    },
    {
      "x": 30,
      "y": 168,
      "size": 1,
      "price": "1011000000000000000000",
      "reserved": "",
      "salt": "0xb0236934581c2ec040a2c397f6995bd251e02029b0ab997aec617ba3ab18f396",
      "assetIds": []
    },
    {
      "x": 35,
      "y": 168,
      "size": 1,
      "price": "1011000000000000000000",
      "reserved": "",
      "salt": "0x0e68ac1fd80347fd78349343e1cd1fed2d2817ec38830d039a80d54c2b805aac",
      "assetIds": []
    },
    {
      "x": 34,
      "y": 172,
      "size": 1,
      "price": "1011000000000000000000",
      "reserved": "",
      "salt": "0x311464d61a179aa5029862e7ce46b53257933de4e7570f413e2e3e96e34e9de3",
      "assetIds": []
    },
    {
      "x": 33,
      "y": 172,
      "size": 1,
      "price": "1011000000000000000000",
      "reserved": "",
      "salt": "0x86bdaea3848c1c29f9c8a13c8e6914d6fbb8ef950a060a5b90aa5c9bcedb8da5",
      "assetIds": []
    },
    {
      "x": 32,
      "y": 172,
      "size": 1,
      "price": "1011000000000000000000",
      "reserved": "",
      "salt": "0x3faff1b8c38e7b830ba0abbede9ce6cae9d924cb4222bc9fd425059ad40bba6e",
      "assetIds": []
    },
    {
      "x": 31,
      "y": 172,
      "size": 1,
      "price": "1011000000000000000000",
      "reserved": "",
      "salt": "0x95f9bcdb7b302c996dd06f9b274ffb5dcebdd81fc599cfaeb696c1ca68b91ce3",
      "assetIds": []
    },
    {
      "x": 30,
      "y": 172,
      "size": 1,
      "price": "1011000000000000000000",
      "reserved": "",
      "salt": "0xdeac809733a36f8ad5019afebfbbc96ba81bfe35fb8269ed3c2a4d7122c0281c",
      "assetIds": []
    },
    {
      "x": 31,
      "y": 171,
      "size": 1,
      "price": "1011000000000000000000",
      "reserved": "",
      "salt": "0xead45781fd5c533b45494ff4e8a5fac05a30070b8580bbde991ae150301dc94e",
      "assetIds": []
    },
    {
      "x": 31,
      "y": 170,
      "size": 1,
      "price": "1011000000000000000000",
      "reserved": "",
      "salt": "0x887016d9a40260c05c3a4c328afd70ec22d22bdfcc15de38bec97ce1c5977838",
      "assetIds": []
    },
    {
      "x": 32,
      "y": 170,
      "size": 1,
      "price": "1011000000000000000000",
      "reserved": "",
      "salt": "0xfa20cdfee83e452acc859800ecaa8c01ea94b4ec692ef7bde5998e4b956c2214",
      "assetIds": []
    },
    {
      "x": 33,
      "y": 170,
      "size": 1,
      "price": "1011000000000000000000",
      "reserved": "",
      "salt": "0x8fe2af779651c9cb56aa367c11dd2773894477b0aaf0463f642f7902a12dc268",
      "assetIds": []
    },
    {
      "x": 33,
      "y": 171,
      "size": 1,
      "price": "1011000000000000000000",
      "reserved": "",
      "salt": "0x6d402b8ac72f35a16e2f28a7f3509bb86a5d0ed699a6e6ba04352978740989c1",
      "assetIds": []
    },
    {
      "x": 32,
      "y": 171,
      "size": 1,
      "price": "1011000000000000000000",
      "reserved": "",
      "salt": "0x3e3118cfb20291c0c8b4695bb9c18c1c03399162dd1490a5deed9acde586c321",
      "assetIds": []
    },
    {
      "x": 30,
      "y": 171,
      "size": 1,
      "price": "1011000000000000000000",
      "reserved": "",
      "salt": "0xa137397ab249106a2669ac61ebf06bf0e602858099e0028ef178a606dc239f20",
      "assetIds": []
    },
    {
      "x": 30,
      "y": 170,
      "size": 1,
      "price": "1011000000000000000000",
      "reserved": "",
      "salt": "0xa36680150190c246fd3e437edff2f69963824bca72cc6d6ca969664096257339",
      "assetIds": []
    },
    {
      "x": 30,
      "y": 169,
      "size": 1,
      "price": "1011000000000000000000",
      "reserved": "",
      "salt": "0xce6f550fdba965c8066249e09b7eee70721cc839ce78d903ffbdf225ade1a198",
      "assetIds": []
    },
    {
      "x": 33,
      "y": 169,
      "size": 1,
      "price": "1011000000000000000000",
      "reserved": "",
      "salt": "0x270c00cfc4ae08831175f625769f7051dbde615c702278d68da5e8738d918146",
      "assetIds": []
    },
    {
      "x": 32,
      "y": 169,
      "size": 1,
      "price": "1011000000000000000000",
      "reserved": "",
      "salt": "0x7043dcc2873f25ef5a94bc4b675882d07d0fe98e3b0f28590285faf82a59bd2d",
      "assetIds": []
    },
    {
      "x": 31,
      "y": 169,
      "size": 1,
      "price": "1011000000000000000000",
      "reserved": "",
      "salt": "0xe3512a7b65cdb37dc4857d06e73e1d2d83857658c9e06c771cc030b11391af19",
      "assetIds": []
    },
    {
      "x": 34,
      "y": 170,
      "size": 1,
      "price": "1011000000000000000000",
      "reserved": "",
      "salt": "0x5385470ed134627f8c63a164d0f1579102ab471984266e4e5e95a18f9f90f082",
      "assetIds": []
    },
    {
      "x": 34,
      "y": 171,
      "size": 1,
      "price": "1011000000000000000000",
      "reserved": "",
      "salt": "0x6027ae80b013bcafad81ac56a94110f9b6942ad270528d8fc730cf44ae6fcc3a",
      "assetIds": []
    },
    {
      "x": 33,
      "y": 173,
      "size": 1,
      "price": "1011000000000000000000",
      "reserved": "",
      "salt": "0xea55d32d3b1089eede21bcb2840be5e5e87c92f4df96283ce784322b53c60207",
      "assetIds": []
    },
    {
      "x": 32,
      "y": 173,
      "size": 1,
      "price": "1011000000000000000000",
      "reserved": "",
      "salt": "0xabb59dca423b52253b0b8678acca706f38952a1d57d4a01e9fe72d2f6db16084",
      "assetIds": []
    },
    {
      "x": 31,
      "y": 173,
      "size": 1,
      "price": "1011000000000000000000",
      "reserved": "",
      "salt": "0xa1a54541cd26d39c4fc70591eece9abaddf7a46bc65dc87041ddbe6f58bf132a",
      "assetIds": []
    },
    {
      "x": 30,
      "y": 173,
      "size": 1,
      "price": "1011000000000000000000",
      "reserved": "",
      "salt": "0xfebeb667beb1c422144e1e560b623f6c8136dbefc77beda9d89de44d5032dbd2",
      "assetIds": []
    },
    {
      "x": 25,
      "y": 174,
      "size": 1,
      "price": "1011000000000000000000",
      "reserved": "",
      "salt": "0x46d38dbd00576b38511da1696ab98a767463f7eb0fed339c2d96ae6a5fda46a6",
      "assetIds": []
    },
    {
      "x": 24,
      "y": 174,
      "size": 1,
      "price": "1011000000000000000000",
      "reserved": "",
      "salt": "0xee666310e1d0beb76226fe87ad98cc61ee4c5b4ec0f20658e4f2d9e5748b8d71",
      "assetIds": []
    },
    {
      "x": 23,
      "y": 174,
      "size": 1,
      "price": "1011000000000000000000",
      "reserved": "",
      "salt": "0x213c4454ed59804816644db114e9e869626708e5ade97319c79491541f54a7d7",
      "assetIds": []
    },
    {
      "x": 22,
      "y": 174,
      "size": 1,
      "price": "1011000000000000000000",
      "reserved": "",
      "salt": "0x3f458617e398b8c21a1839ddcaa863066882b674773a80e26b7c6286e7a84caa",
      "assetIds": []
    },
    {
      "x": 21,
      "y": 174,
      "size": 1,
      "price": "1011000000000000000000",
      "reserved": "",
      "salt": "0x3aeb08130d93c970c1d9d7601b5a7db809ea62f1431b44f164fd04ca929df3ed",
      "assetIds": []
    },
    {
      "x": 20,
      "y": 174,
      "size": 1,
      "price": "1011000000000000000000",
      "reserved": "",
      "salt": "0x515875cc25e5f782bccd8030afa1c1c7a1316baa3eb2055a1924cb90d195add1",
      "assetIds": []
    },
    {
      "x": 19,
      "y": 174,
      "size": 1,
      "price": "1011000000000000000000",
      "reserved": "",
      "salt": "0x833fff348a6a6d418eabea09f4ee421469b907ed9881b8c23ad861c0975c9df5",
      "assetIds": []
    },
    {
      "x": 18,
      "y": 174,
      "size": 1,
      "price": "1011000000000000000000",
      "reserved": "",
      "salt": "0x357402741d201cea340e12b9c093c63b65fe9393905c25586567f3fa9c27d392",
      "assetIds": []
    },
    {
      "x": 17,
      "y": 173,
      "size": 1,
      "price": "1011000000000000000000",
      "reserved": "",
      "salt": "0x8f216103c562b05829acb18ec428d3d78f4df1aca9b2dd1b54d04506c9ed2b33",
      "assetIds": []
    },
    {
      "x": 16,
      "y": 173,
      "size": 1,
      "price": "1011000000000000000000",
      "reserved": "",
      "salt": "0xfba0643742819a6a3e6b209ebf948ebd72c112eac5c9e2e58482f332a7ac18a0",
      "assetIds": []
    },
    {
      "x": 15,
      "y": 173,
      "size": 1,
      "price": "1011000000000000000000",
      "reserved": "",
      "salt": "0xeb9583ef22c71e04b4061dc558c0d70e504316fa083473757d0b97f2c527f3a6",
      "assetIds": []
    },
    {
      "x": 15,
      "y": 172,
      "size": 1,
      "price": "1011000000000000000000",
      "reserved": "",
      "salt": "0x3e6e1ea235e06f3adbfc2d242419451d218619c7fea1f75d1ee5220ee1f8635d",
      "assetIds": []
    },
    {
      "x": 16,
      "y": 172,
      "size": 1,
      "price": "1011000000000000000000",
      "reserved": "",
      "salt": "0xa6bda03d0212990c88e9fd09fe454678936ffaf2e840523453d255d6273fe7ad",
      "assetIds": []
    },
    {
      "x": 17,
      "y": 172,
      "size": 1,
      "price": "1011000000000000000000",
      "reserved": "",
      "salt": "0xc0787d8f2d4383ea98ea79b5082a507279d54b1df638658376e9d8785bef7bbb",
      "assetIds": []
    },
    {
      "x": 18,
      "y": 172,
      "size": 1,
      "price": "1011000000000000000000",
      "reserved": "",
      "salt": "0x34d286840181e57a6b5c25ee26f19a9a26e0c21f10ea9e7d0cdddc5ab2674e60",
      "assetIds": []
    },
    {
      "x": 19,
      "y": 172,
      "size": 1,
      "price": "1011000000000000000000",
      "reserved": "",
      "salt": "0x0b4797b6b0b3bfdbeaa99970f5a8351f78eddcb8e96f983ab3ecbeef124af208",
      "assetIds": []
    },
    {
      "x": 20,
      "y": 172,
      "size": 1,
      "price": "1011000000000000000000",
      "reserved": "",
      "salt": "0xbab08aa1c1a58b35dc4247dd3f64ce0406973612b329ef38c612b1eb44e4a1f3",
      "assetIds": []
    },
    {
      "x": 21,
      "y": 172,
      "size": 1,
      "price": "1011000000000000000000",
      "reserved": "",
      "salt": "0xaa1d8c91d46d7964fe4b89c2bf9083bd93c19de9e4ef063296eb0f41aae8585c",
      "assetIds": []
    },
    {
      "x": 22,
      "y": 172,
      "size": 1,
      "price": "1011000000000000000000",
      "reserved": "",
      "salt": "0xa7f25d724f179d103a6c9fe47e52a0d245c1363ca6dd15c1c715992eb4a8893e",
      "assetIds": []
    },
    {
      "x": 23,
      "y": 172,
      "size": 1,
      "price": "1011000000000000000000",
      "reserved": "",
      "salt": "0x19405187a4479b7e802441c0c196c593324c1ac397bec16a5a651dddd30405c5",
      "assetIds": []
    },
    {
      "x": 34,
      "y": 173,
      "size": 1,
      "price": "1011000000000000000000",
      "reserved": "",
      "salt": "0x8e1221031d4b5abde23c0f43ae301f31c992c57dd344bfee7e1cb5f94b6377d0",
      "assetIds": []
    },
    {
      "x": 31,
      "y": 184,
      "size": 1,
      "price": "1011000000000000000000",
      "reserved": "",
      "salt": "0x5c5dea800c1fb53af0b44da534b6d3b89e88233d02261a01d47e85dc8ac989ce",
      "assetIds": []
    },
    {
      "x": 32,
      "y": 184,
      "size": 1,
      "price": "1011000000000000000000",
      "reserved": "",
      "salt": "0x0942a0be9a55e790b3c69616cfff650ab9465fc42dfeb5f5d4b8915ff8ed8703",
      "assetIds": []
    },
    {
      "x": 32,
      "y": 183,
      "size": 1,
      "price": "1011000000000000000000",
      "reserved": "",
      "salt": "0xd44ea2f275945096f72680c014a5ef66f974d3412da7bf102525c2be88f543b0",
      "assetIds": []
    },
    {
      "x": 33,
      "y": 183,
      "size": 1,
      "price": "1011000000000000000000",
      "reserved": "",
      "salt": "0x3830ef31d03917fc44ec9016d414f2d87d22c8ce01e6c9f6980ca1ec85547e29",
      "assetIds": []
    },
    {
      "x": 34,
      "y": 183,
      "size": 1,
      "price": "1011000000000000000000",
      "reserved": "",
      "salt": "0x0e80dbffd315a3a0872054a7ae576b8ccb4d2d78d2de2b003c3944cad82f5e57",
      "assetIds": []
    },
    {
      "x": 33,
      "y": 184,
      "size": 1,
      "price": "1011000000000000000000",
      "reserved": "",
      "salt": "0x91f9967875e9aa5c4a2ae6bd1d2b6abd4871cdc816ab8336b28e2f899e738e81",
      "assetIds": []
    },
    {
      "x": 34,
      "y": 184,
      "size": 1,
      "price": "1011000000000000000000",
      "reserved": "",
      "salt": "0x4fd9f6803961e9b9e527a3c17e5b906472b7334bd89a74f825d6bec717b85a17",
      "assetIds": []
    },
    {
      "x": 31,
      "y": 183,
      "size": 1,
      "price": "1011000000000000000000",
      "reserved": "",
      "salt": "0x87e60f0268076c27330a43040a0d7314e1a83707bd9f6d888ff52d5a34ec3c67",
      "assetIds": []
    },
    {
      "x": 31,
      "y": 182,
      "size": 1,
      "price": "1011000000000000000000",
      "reserved": "",
      "salt": "0xdaa08314ff92a4aa05df47670015af39af42685d68a7239d7d59a12be9b1d4fc",
      "assetIds": []
    },
    {
      "x": 32,
      "y": 182,
      "size": 1,
      "price": "1011000000000000000000",
      "reserved": "",
      "salt": "0x64f4ce24fd0f3de9646ab172f5df3e74781333defd80eba530057491e0767495",
      "assetIds": []
    },
    {
      "x": 33,
      "y": 182,
      "size": 1,
      "price": "1011000000000000000000",
      "reserved": "",
      "salt": "0xc657a7b70b75ec66a72606304daaa90ba47e7ac90fd397e925e1e6e2e414ea32",
      "assetIds": []
    },
    {
      "x": 34,
      "y": 182,
      "size": 1,
      "price": "1011000000000000000000",
      "reserved": "",
      "salt": "0xaa47984ea39d6321395ed478430ebcb4edbd1e99492ea7efc36b2be7dc363af9",
      "assetIds": []
    },
    {
      "x": 34,
      "y": 181,
      "size": 1,
      "price": "1011000000000000000000",
      "reserved": "",
      "salt": "0xb41cbb576aae781fa5a9d2a196915c659692f3a6b1c3d5320b647b9832e46b50",
      "assetIds": []
    },
    {
      "x": 29,
      "y": 180,
      "size": 1,
      "price": "1011000000000000000000",
      "reserved": "",
      "salt": "0xf3147487d0e7e536989e811ff539609991f4a237b4d26840ded74ab10a303d62",
      "assetIds": []
    },
    {
      "x": 28,
      "y": 180,
      "size": 1,
      "price": "1011000000000000000000",
      "reserved": "",
      "salt": "0xe027f99bc988a57b65d49418457258a30edd20e18ed8a524cd951b3e642d2d52",
      "assetIds": []
    },
    {
      "x": 31,
      "y": 181,
      "size": 1,
      "price": "1011000000000000000000",
      "reserved": "",
      "salt": "0xce3569e97de3231a58423daffac28eb26223dc97f77b2decdd949a661649f95a",
      "assetIds": []
    },
    {
      "x": 32,
      "y": 181,
      "size": 1,
      "price": "1011000000000000000000",
      "reserved": "",
      "salt": "0x7dd60371d57e6a741234dd93b4abbacbec1a26a0242a626aef6f07b23e888154",
      "assetIds": []
    },
    {
      "x": 33,
      "y": 181,
      "size": 1,
      "price": "1011000000000000000000",
      "reserved": "",
      "salt": "0x31eeb521efe857569bafcd9788537587cfce9589495b2eb90616b00119ca0fcc",
      "assetIds": []
    },
    {
      "x": 30,
      "y": 181,
      "size": 1,
      "price": "1011000000000000000000",
      "reserved": "",
      "salt": "0x9fa4ffa0600fc3d61b3249f674ad7ddb47d3a1bf7aeafac7603a1e757cd5cfd3",
      "assetIds": []
    },
    {
      "x": 29,
      "y": 181,
      "size": 1,
      "price": "1011000000000000000000",
      "reserved": "",
      "salt": "0xb5bfef73b292084481c9fe2b9f075ccd9a9eb8048a400503bd246d170d78921d",
      "assetIds": []
    },
    {
      "x": 28,
      "y": 181,
      "size": 1,
      "price": "1011000000000000000000",
      "reserved": "",
      "salt": "0x42b7c9f0e8797525ed1845ebf1155c19ddf98e913f63e6cc2494c6115078049e",
      "assetIds": []
    },
    {
      "x": 27,
      "y": 181,
      "size": 1,
      "price": "1011000000000000000000",
      "reserved": "",
      "salt": "0x1c1522e6eaa4726e9c8d3747b609b8db2abfca609d06b334f736473194054527",
      "assetIds": []
    },
    {
      "x": 27,
      "y": 182,
      "size": 1,
      "price": "1011000000000000000000",
      "reserved": "",
      "salt": "0xa2a0acbb6658fc41bb2f6ee6c21506e67f5ada0cc6390528a82517811a7f8787",
      "assetIds": []
    },
    {
      "x": 27,
      "y": 183,
      "size": 1,
      "price": "1011000000000000000000",
      "reserved": "",
      "salt": "0x0d57f181f8b3ff78d19bdafe2468442a7873c3583f18f2eb9a57faec44efc9b7",
      "assetIds": []
    },
    {
      "x": 27,
      "y": 184,
      "size": 1,
      "price": "1011000000000000000000",
      "reserved": "",
      "salt": "0xdbc4e42d2aae47c4af77c00af7d2be0db4cc570cf3b03f92f7f43a84a63cf9bf",
      "assetIds": []
    },
    {
      "x": 27,
      "y": 185,
      "size": 1,
      "price": "1011000000000000000000",
      "reserved": "",
      "salt": "0xaeadfa8b23165afd1e48c606beaf0592709a167603bef971ed191d4f965c9cdb",
      "assetIds": []
    },
    {
      "x": 27,
      "y": 186,
      "size": 1,
      "price": "1011000000000000000000",
      "reserved": "",
      "salt": "0x4231b875c09987056b326aff3818109e840b32e99373677c55a8b1a7769c4364",
      "assetIds": []
    },
    {
      "x": 27,
      "y": 187,
      "size": 1,
      "price": "1011000000000000000000",
      "reserved": "",
      "salt": "0x51f4fa11d3ba390931646154c8529136ff93511c9159da30ade147046ea3968e",
      "assetIds": []
    },
    {
      "x": 27,
      "y": 188,
      "size": 1,
      "price": "1011000000000000000000",
      "reserved": "",
      "salt": "0xc5c453bc65f0dc734209ccb12d1adabc9cd4f3af461e5de3fe74f1f6c7b3693a",
      "assetIds": []
    },
    {
      "x": 27,
      "y": 189,
      "size": 1,
      "price": "1011000000000000000000",
      "reserved": "",
      "salt": "0x49da4535516e872c2b76d31bdf763e0f6e5d252ca6931cce58ee13410cbad278",
      "assetIds": []
    },
    {
      "x": 27,
      "y": 190,
      "size": 1,
      "price": "1011000000000000000000",
      "reserved": "",
      "salt": "0x369093630585f088ba471293f0cbfd7c2e82930800d6440778258de02215958b",
      "assetIds": []
    },
    {
      "x": 27,
      "y": 191,
      "size": 1,
      "price": "1011000000000000000000",
      "reserved": "",
      "salt": "0x25b6434e08190d541be74cbdd98f22e994e31e9474a5a6b7367dd73c2421a5a2",
      "assetIds": []
    },
    {
      "x": 26,
      "y": 191,
      "size": 1,
      "price": "1011000000000000000000",
      "reserved": "",
      "salt": "0x14c4724336ef3bc96d7ad478ab282441adb84244603cb2c48ccea16d64265e51",
      "assetIds": []
    },
    {
      "x": 26,
      "y": 192,
      "size": 1,
      "price": "1011000000000000000000",
      "reserved": "",
      "salt": "0x2e9dbb657328a939c1a3e9af7da65b12ff1fde13867193d035c796e6f4475ac6",
      "assetIds": []
    },
    {
      "x": 26,
      "y": 193,
      "size": 1,
      "price": "1011000000000000000000",
      "reserved": "",
      "salt": "0x63168bc6e7a1bfaa12df8d7d95a8b563c929aba678c5d7c3156ce8b19b3c9212",
      "assetIds": []
    },
    {
      "x": 25,
      "y": 193,
      "size": 1,
      "price": "1011000000000000000000",
      "reserved": "",
      "salt": "0x1105ff6f227975c6ab851e4702cab9eb8c25721ee28bfb0f63239571e229f51a",
      "assetIds": []
    },
    {
      "x": 25,
      "y": 194,
      "size": 1,
      "price": "1011000000000000000000",
      "reserved": "",
      "salt": "0x1d6eddd6dcf614a8f4fd465b3497131bfffb03d583d3fe578aaf208237722bb2",
      "assetIds": []
    },
    {
      "x": 25,
      "y": 195,
      "size": 1,
      "price": "1011000000000000000000",
      "reserved": "",
      "salt": "0x34b6c1a2113abdb46d191b01f0f0d3a421989d547ca3a77d63148ddef02493ff",
      "assetIds": []
    },
    {
      "x": 25,
      "y": 196,
      "size": 1,
      "price": "1011000000000000000000",
      "reserved": "",
      "salt": "0x631beeaf2a639df5852f9659f1192ae9a9cd7bef795d8abd8bdf4245c83b272b",
      "assetIds": []
    },
    {
      "x": 25,
      "y": 197,
      "size": 1,
      "price": "1011000000000000000000",
      "reserved": "",
      "salt": "0x712395d3c92db6a10ac439032ba136ef81e8b3362a9655c7accce36a166b45ef",
      "assetIds": []
    },
    {
      "x": 24,
      "y": 197,
      "size": 1,
      "price": "1011000000000000000000",
      "reserved": "",
      "salt": "0x2c2d24863d9c408bf090e8e5e71d4df96727cd6d6bc6889e24e17c95af7f776e",
      "assetIds": []
    },
    {
      "x": 24,
      "y": 198,
      "size": 1,
      "price": "1011000000000000000000",
      "reserved": "",
      "salt": "0x9c7ccd99695a7efb601b3611baa1df2882cb25f402fcf9b354a02c6deb95314b",
      "assetIds": []
    },
    {
      "x": 24,
      "y": 199,
      "size": 1,
      "price": "1011000000000000000000",
      "reserved": "",
      "salt": "0x7e66b59e5675d65edafdd64900feb94f4abfe92bd250c2e7261b3a33b837ff36",
      "assetIds": []
    },
    {
      "x": 25,
      "y": 198,
      "size": 1,
      "price": "1011000000000000000000",
      "reserved": "",
      "salt": "0xc4a3b07a3a5fddfb42d9a02977b1f83aa18289ae51e8ac27d7c6a51b8ae980fd",
      "assetIds": []
    },
    {
      "x": 25,
      "y": 199,
      "size": 1,
      "price": "1011000000000000000000",
      "reserved": "",
      "salt": "0x44bbe1aff207962db5c98d99547d14d1d3fd47c8b538722ce0ab9597e2eb5622",
      "assetIds": []
    },
    {
      "x": 25,
      "y": 192,
      "size": 1,
      "price": "1011000000000000000000",
      "reserved": "",
      "salt": "0x0236fb9a1f6e35c0b66b9f0d914b5fe98ba4fe2ffe06b5e686c577c1bbeefb0b",
      "assetIds": []
    },
    {
      "x": 26,
      "y": 190,
      "size": 1,
      "price": "1011000000000000000000",
      "reserved": "",
      "salt": "0x44c6e3cbfc014598a8059ba3393f48a52787712ba22b13aca7897cdb14b73333",
      "assetIds": []
    },
    {
      "x": 26,
      "y": 189,
      "size": 1,
      "price": "1011000000000000000000",
      "reserved": "",
      "salt": "0xb1b5edb8904dd6d36a518b5a6c25909e3e33dddd04a37fe449261723d77050cc",
      "assetIds": []
    },
    {
      "x": 26,
      "y": 188,
      "size": 1,
      "price": "1011000000000000000000",
      "reserved": "",
      "salt": "0xd882fb4a7de7f13ee675aa49e3fcb4eebc5d725ad83814054c575d18e8bb9ef9",
      "assetIds": []
    },
    {
      "x": 28,
      "y": 182,
      "size": 1,
      "price": "1011000000000000000000",
      "reserved": "",
      "salt": "0x00341554eadac80baa019a04edf35f87d9c658b027ec926cd4b59a0c17011753",
      "assetIds": []
    },
    {
      "x": 28,
      "y": 183,
      "size": 1,
      "price": "1011000000000000000000",
      "reserved": "",
      "salt": "0xbb1104a87b9e61b3ee134c04f290a09053b0f2b92f17ed4c66e015bfdeb9b199",
      "assetIds": []
    },
    {
      "x": 29,
      "y": 183,
      "size": 1,
      "price": "1011000000000000000000",
      "reserved": "",
      "salt": "0xd38c9dc938c104ed6919c7ed950d6eed85f6422c923ab74ade1b7400d81fffed",
      "assetIds": []
    },
    {
      "x": 29,
      "y": 182,
      "size": 1,
      "price": "1011000000000000000000",
      "reserved": "",
      "salt": "0x4b6cd376a9faf84e2cc69a6f14ed49dc5664e39a5b7afdea9f2b61c2e3f1827c",
      "assetIds": []
    },
    {
      "x": 29,
      "y": 184,
      "size": 1,
      "price": "1011000000000000000000",
      "reserved": "",
      "salt": "0x6e283d8bfa17cf1fddc5b620e02fc04a57ecda72295e917d1e62a120bf99c98a",
      "assetIds": []
    },
    {
      "x": 28,
      "y": 185,
      "size": 1,
      "price": "1011000000000000000000",
      "reserved": "",
      "salt": "0x52876501c12315a42d7e3d823bf622d64c47db784f205f5b6e41a5c55694ccb0",
      "assetIds": []
    },
    {
      "x": 28,
      "y": 184,
      "size": 1,
      "price": "1011000000000000000000",
      "reserved": "",
      "salt": "0x6b2cc0da0c516968c758d4136549cc8e42db2a941bf38fd8cb351e39d320374f",
      "assetIds": []
    },
    {
      "x": 28,
      "y": 186,
      "size": 1,
      "price": "1011000000000000000000",
      "reserved": "",
      "salt": "0x759595d14cc11e32e016c6e815b11fce5b0c92a634456880c66e2c7dbb216a93",
      "assetIds": []
    },
    {
      "x": 28,
      "y": 187,
      "size": 1,
      "price": "1011000000000000000000",
      "reserved": "",
      "salt": "0x79bd6f335451622b8414c4bbb930ca07600a458a3a04325ab36511bbfe0ee69f",
      "assetIds": []
    },
    {
      "x": 28,
      "y": 188,
      "size": 1,
      "price": "1011000000000000000000",
      "reserved": "",
      "salt": "0x9f8eb532dd0479b750846f60f5673e69e851d716518ddae5020bac3d508d2460",
      "assetIds": []
    },
    {
      "x": 28,
      "y": 189,
      "size": 1,
      "price": "1011000000000000000000",
      "reserved": "",
      "salt": "0xf49edab29be391b034cd5aff1e7bc1e1d14aa6d7dbdcf908c83a35189051dbfd",
      "assetIds": []
    },
    {
      "x": 28,
      "y": 190,
      "size": 1,
      "price": "1011000000000000000000",
      "reserved": "",
      "salt": "0xfa1e0b8ecb2d931280695e564c8361e67b6f9d440bc6e5dbb31e312ae0be3b84",
      "assetIds": []
    },
    {
      "x": 28,
      "y": 191,
      "size": 1,
      "price": "1011000000000000000000",
      "reserved": "",
      "salt": "0x25817e9296a7c95568cf5f94120e8d65118d87657662e9b82c98766d3e0719a4",
      "assetIds": []
    },
    {
      "x": 27,
      "y": 192,
      "size": 1,
      "price": "1011000000000000000000",
      "reserved": "",
      "salt": "0xe7d4820b93e461a4a2a9f5f86e5f6827d404976c21a5699cce35cc009a3e8726",
      "assetIds": []
    },
    {
      "x": 27,
      "y": 193,
      "size": 1,
      "price": "1011000000000000000000",
      "reserved": "",
      "salt": "0xb5fdbbd26fb9ef40244795a277ad3f00d617c03b12a097e45fc68a9a67bdf37e",
      "assetIds": []
    },
    {
      "x": 24,
      "y": 196,
      "size": 1,
      "price": "1011000000000000000000",
      "reserved": "",
      "salt": "0x62437ce984ba8e338fa07cac23715a45f0b539064261085f2a38ec86357fba8e",
      "assetIds": []
    },
    {
      "x": 24,
      "y": 195,
      "size": 1,
      "price": "1011000000000000000000",
      "reserved": "",
      "salt": "0x56263cd67931a7f5285bef58532523fd6ee240e56ff413d681e02ae3934ee6ff",
      "assetIds": []
    },
    {
      "x": 25,
      "y": 191,
      "size": 1,
      "price": "1011000000000000000000",
      "reserved": "",
      "salt": "0x8ff7e7b9243057d00c0cab5aeacdbad16b2788d0e2c8ba159398ef82386cd686",
      "assetIds": []
    },
    {
      "x": 25,
      "y": 190,
      "size": 1,
      "price": "1011000000000000000000",
      "reserved": "",
      "salt": "0x17ce236c03685ab3f8550d59bb2a38860275aeb903072ac690ac1ffba5276eda",
      "assetIds": []
    },
    {
      "x": 25,
      "y": 189,
      "size": 1,
      "price": "1011000000000000000000",
      "reserved": "",
      "salt": "0x1e8a8e27bc09e5c64baf2cd87d763716bb3ac6d3cb4145b3b25938a3eb9b5367",
      "assetIds": []
    },
    {
      "x": 25,
      "y": 188,
      "size": 1,
      "price": "1011000000000000000000",
      "reserved": "",
      "salt": "0xb9d2fe20513844fa215d5cadba3d7889cb5919423c86d64b70126a80e0f52bee",
      "assetIds": []
    },
    {
      "x": 25,
      "y": 187,
      "size": 1,
      "price": "1011000000000000000000",
      "reserved": "",
      "salt": "0x4f5ea30ee9d1f9d653ff56176f8a72dc8bdcdd26cbecf2fcf8cb0aa6427aab2d",
      "assetIds": []
    },
    {
      "x": 25,
      "y": 186,
      "size": 1,
      "price": "1011000000000000000000",
      "reserved": "",
      "salt": "0x9a53e57661b37bfc27b0fea049dedad66922d7d69666c706209c8bc89a4d5f4c",
      "assetIds": []
    },
    {
      "x": 25,
      "y": 185,
      "size": 1,
      "price": "1011000000000000000000",
      "reserved": "",
      "salt": "0x95d8aca0fd5c4ba137e8c65be374df588706b99e3729d5d304b3948fbc8f7d00",
      "assetIds": []
    },
    {
      "x": 25,
      "y": 184,
      "size": 1,
      "price": "1011000000000000000000",
      "reserved": "",
      "salt": "0x78125ec1f6b6d55544f03549b7714f00844bab4fab8c15902c50042a0f994fb6",
      "assetIds": []
    },
    {
      "x": 25,
      "y": 183,
      "size": 1,
      "price": "1011000000000000000000",
      "reserved": "",
      "salt": "0x2a1aab72ea3c9d13cd47534f69ef59be3ec9b74165029431c198680882b0b437",
      "assetIds": []
    },
    {
      "x": 25,
      "y": 182,
      "size": 1,
      "price": "1011000000000000000000",
      "reserved": "",
      "salt": "0xfbb44428a948cffb6eb512c427c761bbac9ba4c0f0e9b3bf024dad63047e306d",
      "assetIds": []
    },
    {
      "x": 25,
      "y": 181,
      "size": 1,
      "price": "1011000000000000000000",
      "reserved": "",
      "salt": "0xbf0a3be7a9a39d2ee8df3aaa1bcbdcdac4c42b72c6e39a13ae3d2cc836be089c",
      "assetIds": []
    },
    {
      "x": 25,
      "y": 180,
      "size": 1,
      "price": "1011000000000000000000",
      "reserved": "",
      "salt": "0x05ed9feed89a40ac97e4d39d0b84287d2515a918326b621b7add026b831fa265",
      "assetIds": []
    },
    {
      "x": 25,
      "y": 179,
      "size": 1,
      "price": "1011000000000000000000",
      "reserved": "",
      "salt": "0xe828c2187015b8704604622e02b2fdbd684ff93cb8a4525487f5d0b041bca678",
      "assetIds": []
    },
    {
      "x": 26,
      "y": 179,
      "size": 1,
      "price": "1011000000000000000000",
      "reserved": "",
      "salt": "0xd611bccb8c1e509c02570a7b4c28f38c3168bab58b14b37598071ccada43ed80",
      "assetIds": []
    },
    {
      "x": 27,
      "y": 179,
      "size": 1,
      "price": "1011000000000000000000",
      "reserved": "",
      "salt": "0xadc2ed01945a3a1bdbf8c4e75bd2d3622af7b3fb9b60d142d79806566392af02",
      "assetIds": []
    },
    {
      "x": 28,
      "y": 179,
      "size": 1,
      "price": "1011000000000000000000",
      "reserved": "",
      "salt": "0x20e527d75bb49dc8a21d45c400b80688717f4ceb80b4ce2b5089915b08770ec0",
      "assetIds": []
    },
    {
      "x": 28,
      "y": 178,
      "size": 1,
      "price": "1011000000000000000000",
      "reserved": "",
      "salt": "0x0328a6680cb948a11e44be1070a5d4e9a663cd55f8a7b4f0ae63652c22d36e1e",
      "assetIds": []
    },
    {
      "x": 29,
      "y": 178,
      "size": 1,
      "price": "1011000000000000000000",
      "reserved": "",
      "salt": "0x008fe44f6f7595a71c89011902285dc52b144675ef8e031ae4813d5488bf5121",
      "assetIds": []
    },
    {
      "x": 29,
      "y": 179,
      "size": 1,
      "price": "1011000000000000000000",
      "reserved": "",
      "salt": "0x74d1d7b19ec34509d10a12613be60afc259ea146ad32b287ef22d131645cabdd",
      "assetIds": []
    },
    {
      "x": 26,
      "y": 180,
      "size": 1,
      "price": "1011000000000000000000",
      "reserved": "",
      "salt": "0x187f33726f90547a7264b1b55ccd927f0f0f03095e1b097d75581bed25db48bc",
      "assetIds": []
    },
    {
      "x": 26,
      "y": 181,
      "size": 1,
      "price": "1011000000000000000000",
      "reserved": "",
      "salt": "0xc36bb8cfa7230c04827da40e1bc11708400af073e820ba87d8bc841da0d4c59b",
      "assetIds": []
    },
    {
      "x": 26,
      "y": 182,
      "size": 1,
      "price": "1011000000000000000000",
      "reserved": "",
      "salt": "0x52e537607fb67472f8a1f26cb92d704d082baedb82e3635597f8319c7aabe42e",
      "assetIds": []
    },
    {
      "x": 27,
      "y": 180,
      "size": 1,
      "price": "1011000000000000000000",
      "reserved": "",
      "salt": "0x9b2d7758ac2f7760ceffb01280d116fdf3bb8216c34d3102ef231d22dfd8cf29",
      "assetIds": []
    },
    {
      "x": 26,
      "y": 183,
      "size": 1,
      "price": "1011000000000000000000",
      "reserved": "",
      "salt": "0x7d5c76b95bd90db02ea8035ce04b1ab023a10eb9d4998e8d02159995e20c114a",
      "assetIds": []
    },
    {
      "x": 26,
      "y": 184,
      "size": 1,
      "price": "1011000000000000000000",
      "reserved": "",
      "salt": "0x312b96107832baa26528cf76d4d8e0c539c7f49d445a76723ab3913cc2808399",
      "assetIds": []
    },
    {
      "x": 26,
      "y": 185,
      "size": 1,
      "price": "1011000000000000000000",
      "reserved": "",
      "salt": "0xb79918d3c05c43219922e5918bdadf0bf7da13f216dc83068c89f474fd5406d7",
      "assetIds": []
    },
    {
      "x": 26,
      "y": 186,
      "size": 1,
      "price": "1011000000000000000000",
      "reserved": "",
      "salt": "0x1cb54d198636e078fae2a24428831af66a5e238849e41ceaa44374733825dfb6",
      "assetIds": []
    },
    {
      "x": 26,
      "y": 187,
      "size": 1,
      "price": "1011000000000000000000",
      "reserved": "",
      "salt": "0xf0b5c8d68fa502d15d20277214ae15b794919465b60d67ec91d6da6f97629140",
      "assetIds": []
    },
    {
      "x": 24,
      "y": 194,
      "size": 1,
      "price": "1011000000000000000000",
      "reserved": "",
      "salt": "0x02af3ecd1b07d734ded1197ba0f97e64ede3a7f2d6c4014731fab4b236dfdba1",
      "assetIds": []
    },
    {
      "x": 24,
      "y": 193,
      "size": 1,
      "price": "1011000000000000000000",
      "reserved": "",
      "salt": "0x6f43db6d0f316c7cfde0b6894b05370f216c8b4e61bc18768db4766b645c9b92",
      "assetIds": []
    },
    {
      "x": 24,
      "y": 192,
      "size": 1,
      "price": "1011000000000000000000",
      "reserved": "",
      "salt": "0xb7c27af0d2adb109dc3f22b169e3433d35a57d006bc8ce7f7b0bece045ef8a25",
      "assetIds": []
    },
    {
      "x": 24,
      "y": 191,
      "size": 1,
      "price": "1011000000000000000000",
      "reserved": "",
      "salt": "0x48bbd5a806d5d550a90f7eb7a6d89047df26a576677e952d53b18362346f719a",
      "assetIds": []
    },
    {
      "x": 24,
      "y": 190,
      "size": 1,
      "price": "1011000000000000000000",
      "reserved": "",
      "salt": "0x36d8c577beeb48e6f079f63ce36355b64941c9c86f78a0afe8d320b12a9cbfa1",
      "assetIds": []
    },
    {
      "x": 24,
      "y": 189,
      "size": 1,
      "price": "1011000000000000000000",
      "reserved": "",
      "salt": "0x6da325d6bb0344cf90a9e2f4a4c4737a6fe643d580d12e8f09402dc16758aa4d",
      "assetIds": []
    },
    {
      "x": 24,
      "y": 188,
      "size": 1,
      "price": "1011000000000000000000",
      "reserved": "",
      "salt": "0xd6f644297711b7371d2bcfed4b58b8c70d9c5125689914e9d80938c8a4831118",
      "assetIds": []
    },
    {
      "x": 24,
      "y": 187,
      "size": 1,
      "price": "1011000000000000000000",
      "reserved": "",
      "salt": "0xcc17591631d864fc01a9f64a664b6f19668b77214d81e2eb5ca2e8080c68513f",
      "assetIds": []
    },
    {
      "x": 24,
      "y": 186,
      "size": 1,
      "price": "1011000000000000000000",
      "reserved": "",
      "salt": "0x143c508dfe8a19fc158acd88d2890bf6e7310c6cfd0a0b546e0e1c128e89c7a6",
      "assetIds": []
    },
    {
      "x": 24,
      "y": 185,
      "size": 1,
      "price": "1011000000000000000000",
      "reserved": "",
      "salt": "0x19757bf2b127fa5ce554280c4bb7b902943b8510e729455cca12e203f785ae6b",
      "assetIds": []
    },
    {
      "x": 24,
      "y": 184,
      "size": 1,
      "price": "1011000000000000000000",
      "reserved": "",
      "salt": "0xd852b1923acba8f4a59765854d005148bb85b80d8368f5915e5e42d2b09119a4",
      "assetIds": []
    },
    {
      "x": 24,
      "y": 183,
      "size": 1,
      "price": "1011000000000000000000",
      "reserved": "",
      "salt": "0x607b9b47c37be0e1791faa90ec3c4d270760e1d7d4bed1f99c4c1d0d21fe90eb",
      "assetIds": []
    },
    {
      "x": 24,
      "y": 182,
      "size": 1,
      "price": "1011000000000000000000",
      "reserved": "",
      "salt": "0x381f3b317cc8ba30f8365ed10e8b88c199d31e3fb747d4cb5bb4ae67aef8d302",
      "assetIds": []
    },
    {
      "x": 24,
      "y": 181,
      "size": 1,
      "price": "1011000000000000000000",
      "reserved": "",
      "salt": "0xf60af7f877d1e524ca2b57d2ccc20c619652202acb576756319c8bb2795ca581",
      "assetIds": []
    },
    {
      "x": 24,
      "y": 180,
      "size": 1,
      "price": "1011000000000000000000",
      "reserved": "",
      "salt": "0x60df780907f5b33119dbc101c85d4f63263659ad1af36daa529297f75caefba0",
      "assetIds": []
    },
    {
      "x": 24,
      "y": 179,
      "size": 1,
      "price": "1011000000000000000000",
      "reserved": "",
      "salt": "0xcc833d1d9618f79c397b64a5d1cddc8d3bbcb821d89350764e7434bf22eba46b",
      "assetIds": []
    },
    {
      "x": 24,
      "y": 178,
      "size": 1,
      "price": "1011000000000000000000",
      "reserved": "",
      "salt": "0xec84d50b9dcd8d4d0b4d05dcac49e510026a5e826a69ae3b87143c7e86b3f0c8",
      "assetIds": []
    },
    {
      "x": 23,
      "y": 178,
      "size": 1,
      "price": "1011000000000000000000",
      "reserved": "",
      "salt": "0x123d9821076f6f3a48a111a21addbea87ea1ad8359255ef33eefc663928cff91",
      "assetIds": []
    },
    {
      "x": 22,
      "y": 178,
      "size": 1,
      "price": "1011000000000000000000",
      "reserved": "",
      "salt": "0xf70a3022b2704050828a5e7f180da80c2f65af1cdebb29d59ffcee3396ee5990",
      "assetIds": []
    },
    {
      "x": 22,
      "y": 179,
      "size": 1,
      "price": "1011000000000000000000",
      "reserved": "",
      "salt": "0xce3b2efc358c98b440e464188220a1edec666f0cdf68ee402440d597075a9195",
      "assetIds": []
    },
    {
      "x": 21,
      "y": 179,
      "size": 1,
      "price": "1011000000000000000000",
      "reserved": "",
      "salt": "0x0bdd9a6acbfc293d87d2fe893e5db747324c57ff156057e44fbddce1273b6fb2",
      "assetIds": []
    },
    {
      "x": 20,
      "y": 179,
      "size": 1,
      "price": "1011000000000000000000",
      "reserved": "",
      "salt": "0x815e6c062c113e084a666492319951ccccfce549dcfcd1e6bd00be40b31ab93b",
      "assetIds": []
    },
    {
      "x": 19,
      "y": 179,
      "size": 1,
      "price": "1011000000000000000000",
      "reserved": "",
      "salt": "0x957b1bd19ffe6a76cd4a84deafa87cb33ad19eba873b369c72b78bb512accf35",
      "assetIds": []
    },
    {
      "x": 18,
      "y": 179,
      "size": 1,
      "price": "1011000000000000000000",
      "reserved": "",
      "salt": "0xe14ef639d1b03d83e92494ba13fd9c4da002d4ae1c6a6574a737cc4eeeaa5468",
      "assetIds": []
    },
    {
      "x": 18,
      "y": 178,
      "size": 1,
      "price": "1011000000000000000000",
      "reserved": "",
      "salt": "0xfe33659309a3cc1f415190626c05811c0966dd321aa55a8c4bdb9cfca63228f7",
      "assetIds": []
    },
    {
      "x": 19,
      "y": 178,
      "size": 1,
      "price": "1011000000000000000000",
      "reserved": "",
      "salt": "0x0239d3f8b4d92d0d20f68808701da78c8bd6a547b5c2bf4697d9ea668d9d99e6",
      "assetIds": []
    },
    {
      "x": 20,
      "y": 178,
      "size": 1,
      "price": "1011000000000000000000",
      "reserved": "",
      "salt": "0x3a95c50eec90a1552abbbb31feb3ec1faa6b5a6920681245d9132b5be579771a",
      "assetIds": []
    },
    {
      "x": 21,
      "y": 178,
      "size": 1,
      "price": "1011000000000000000000",
      "reserved": "",
      "salt": "0x6b415b0c351651ed5ebc6389ef02dccf74eb6b62dfdba3966c188d1b8e359d9b",
      "assetIds": []
    },
    {
      "x": 23,
      "y": 179,
      "size": 1,
      "price": "1011000000000000000000",
      "reserved": "",
      "salt": "0xbe1244e07dc90535166cb430015ef8ab772fd6da4a8a0ebab0ee1ba4d4a87973",
      "assetIds": []
    },
    {
      "x": 27,
      "y": 178,
      "size": 1,
      "price": "1011000000000000000000",
      "reserved": "",
      "salt": "0xc7d5a3f8c8ba84dc9d398ed65423652015cda8aee5064a03f980b3dcdc707219",
      "assetIds": []
    },
    {
      "x": 26,
      "y": 178,
      "size": 1,
      "price": "1011000000000000000000",
      "reserved": "",
      "salt": "0x4022b5ab6732ebab283d515cd3b8fade639f84785db6fc01cee2689206e04e3c",
      "assetIds": []
    },
    {
      "x": 25,
      "y": 178,
      "size": 1,
      "price": "1011000000000000000000",
      "reserved": "",
      "salt": "0x8c1abfc97d4e7a996ccae15c45676739faa8c020577d0784a16f2db9a1d329e7",
      "assetIds": []
    },
    {
      "x": 18,
      "y": 177,
      "size": 1,
      "price": "1011000000000000000000",
      "reserved": "",
      "salt": "0x487d4d3121e3d879959a496f78b5a9d1c75b746218eb1a3d3a6b46dc72387321",
      "assetIds": []
    },
    {
      "x": 19,
      "y": 177,
      "size": 1,
      "price": "1011000000000000000000",
      "reserved": "",
      "salt": "0x730cf4bcdef23237fa79163975171b1b7ffbb0db41d889cf998e2046e94ac0d8",
      "assetIds": []
    },
    {
      "x": 20,
      "y": 177,
      "size": 1,
      "price": "1011000000000000000000",
      "reserved": "",
      "salt": "0xbce1d1c7715a468ec2e95db3b8688e96e1f0749a33778e18df4ca770851a0cc3",
      "assetIds": []
    },
    {
      "x": 21,
      "y": 177,
      "size": 1,
      "price": "1011000000000000000000",
      "reserved": "",
      "salt": "0x31e91cd5361c63456efdd3efa6b119770301c4fc4cd0f037201945a72d39f12a",
      "assetIds": []
    },
    {
      "x": 22,
      "y": 177,
      "size": 1,
      "price": "1011000000000000000000",
      "reserved": "",
      "salt": "0x412bf5b425f13b45fe967f4b44dc207aaa9537e287f4992612a27168f82db038",
      "assetIds": []
    },
    {
      "x": 23,
      "y": 177,
      "size": 1,
      "price": "1011000000000000000000",
      "reserved": "",
      "salt": "0x4a851cf1ed21a5671fa5cb87bd39ed90c1c1d83ba5ac37c7a1f91a260422f039",
      "assetIds": []
    },
    {
      "x": 24,
      "y": 177,
      "size": 1,
      "price": "1011000000000000000000",
      "reserved": "",
      "salt": "0xeced970e3fc59bea7641fb244ff2e5e554c6590c50ba372b4af078c8b8234a59",
      "assetIds": []
    },
    {
      "x": 24,
      "y": 176,
      "size": 1,
      "price": "1011000000000000000000",
      "reserved": "",
      "salt": "0x6d80537390f67b0d0f595ea4f4a2cc7394f64439bb061425d1934b44a3a073ba",
      "assetIds": []
    },
    {
      "x": 25,
      "y": 176,
      "size": 1,
      "price": "1011000000000000000000",
      "reserved": "",
      "salt": "0x882627ab774141453c68a11a3db991268b51d21cb932d17bd96ea121cb5d53ac",
      "assetIds": []
    },
    {
      "x": 26,
      "y": 176,
      "size": 1,
      "price": "1011000000000000000000",
      "reserved": "",
      "salt": "0xc1c077cd5b5e4e3dda95f609c348010f7809ba30b9306c7819e87a3501bff950",
      "assetIds": []
    },
    {
      "x": 27,
      "y": 176,
      "size": 1,
      "price": "1011000000000000000000",
      "reserved": "",
      "salt": "0x5b6dbe1a544679e90a5837f3522b3ff00477bc77741853c854c7d16f28a2c053",
      "assetIds": []
    },
    {
      "x": 28,
      "y": 176,
      "size": 1,
      "price": "1011000000000000000000",
      "reserved": "",
      "salt": "0x561417747aa0f93245b7ddfc1f4d2eec57c3bce7842ef562b330b9f414aab80a",
      "assetIds": []
    },
    {
      "x": 29,
      "y": 176,
      "size": 1,
      "price": "1011000000000000000000",
      "reserved": "",
      "salt": "0xe4c019267106fdd9914b116ef54526293bd85fa002ba1e85ad4cd1f821678b85",
      "assetIds": []
    },
    {
      "x": 29,
      "y": 177,
      "size": 1,
      "price": "1011000000000000000000",
      "reserved": "",
      "salt": "0x31fdcdd22df512355965ec0f3f6e99078a30ee34eb08e158f5a9ed90cd21a8d5",
      "assetIds": []
    },
    {
      "x": 19,
      "y": 176,
      "size": 1,
      "price": "1011000000000000000000",
      "reserved": "",
      "salt": "0xa0ae4cd4385e9843527e9d0a9132de67cda2f1d0dd5a546805824ea6afe0bb9d",
      "assetIds": []
    },
    {
      "x": 18,
      "y": 176,
      "size": 1,
      "price": "1011000000000000000000",
      "reserved": "",
      "salt": "0x36d16bc387eb7eb9b02d9f6fe960c51ac95279c6559a6a96d9db03597766619f",
      "assetIds": []
    },
    {
      "x": 18,
      "y": 175,
      "size": 1,
      "price": "1011000000000000000000",
      "reserved": "",
      "salt": "0x9627caad8f5fe7bb996e20a1d7fb62000ba353c08c7abfc84134e1f75c232e41",
      "assetIds": []
    },
    {
      "x": 19,
      "y": 175,
      "size": 1,
      "price": "1011000000000000000000",
      "reserved": "",
      "salt": "0x28c609e7d026e8a605465029e0c2b00fc13ee1858589cd2f5f86f90871995395",
      "assetIds": []
    },
    {
      "x": 20,
      "y": 175,
      "size": 1,
      "price": "1011000000000000000000",
      "reserved": "",
      "salt": "0x113822cbd8b0e9654fab1d4f3f63db6f11e2089e12ad0842c0551f1d2bd8dcbb",
      "assetIds": []
    },
    {
      "x": 21,
      "y": 175,
      "size": 1,
      "price": "1011000000000000000000",
      "reserved": "",
      "salt": "0x87c2d64bb102cf2acf5358d834c96e69aaec58af3e5fa9b9091ab861b3c2e9cc",
      "assetIds": []
    },
    {
      "x": 26,
      "y": 174,
      "size": 1,
      "price": "1011000000000000000000",
      "reserved": "",
      "salt": "0x8c7c5e19f1612beb42eb5e674ff7acf30d09f0c0e7f0a940ba754442394225f5",
      "assetIds": []
    },
    {
      "x": 26,
      "y": 175,
      "size": 1,
      "price": "1011000000000000000000",
      "reserved": "",
      "salt": "0x80e75d88c464266ba1421e4fe8e17b03d64e043ea6dcbc2606b9e7d9cec65edf",
      "assetIds": []
    },
    {
      "x": 27,
      "y": 175,
      "size": 1,
      "price": "1011000000000000000000",
      "reserved": "",
      "salt": "0x6ff67cd41876d1f91e478511c887f26866548cc0632aff0072023bb051ff048b",
      "assetIds": []
    },
    {
      "x": 28,
      "y": 175,
      "size": 1,
      "price": "1011000000000000000000",
      "reserved": "",
      "salt": "0x2961899090ca69d426b2f3ef0a22146a6e6a49a528360ef7c831a3e68069f5a0",
      "assetIds": []
    },
    {
      "x": 29,
      "y": 175,
      "size": 1,
      "price": "1011000000000000000000",
      "reserved": "",
      "salt": "0x38ca689ebd4b5549d35603fff42bd234fd8c8d4ac2d28a86ad36c803271cfa15",
      "assetIds": []
    },
    {
      "x": 28,
      "y": 174,
      "size": 1,
      "price": "1011000000000000000000",
      "reserved": "",
      "salt": "0x20a246bc53f30be00363a0481832f57da5f875a85151b7bf5a746de2b9541918",
      "assetIds": []
    },
    {
      "x": 29,
      "y": 174,
      "size": 1,
      "price": "1011000000000000000000",
      "reserved": "",
      "salt": "0xfb11474ade7b27c048586d0a30366d91d6a49dd482de18f7379a724375c995db",
      "assetIds": []
    },
    {
      "x": 27,
      "y": 174,
      "size": 1,
      "price": "1011000000000000000000",
      "reserved": "",
      "salt": "0x93abecd0d65e3d61ad0c3cebd684e75167967b99706e2d0c11b0950712d3a7e9",
      "assetIds": []
    },
    {
      "x": 18,
      "y": 173,
      "size": 1,
      "price": "1011000000000000000000",
      "reserved": "",
      "salt": "0xcd32ebeaed0b423770bac298b7adc3bcce2f43d080af4d55a891b235d2743610",
      "assetIds": []
    },
    {
      "x": 14,
      "y": 173,
      "size": 1,
      "price": "1011000000000000000000",
      "reserved": "",
      "salt": "0x93e672e561baa6c589c098ece911d6acd339cd1a9ac831659fc0e1bc32aa7791",
      "assetIds": []
    },
    {
      "x": 13,
      "y": 173,
      "size": 1,
      "price": "1011000000000000000000",
      "reserved": "",
      "salt": "0x29ea8b00f745134d9151daa378b79e2812bc1c916fe4c0a753022e15d6434539",
      "assetIds": []
    },
    {
      "x": 21,
      "y": 173,
      "size": 1,
      "price": "1011000000000000000000",
      "reserved": "",
      "salt": "0x95834f62b5ee90a9c6d64b2b83893b895325a180e9e0310e81b2f7e8eacc1a9d",
      "assetIds": []
    },
    {
      "x": 22,
      "y": 175,
      "size": 1,
      "price": "1011000000000000000000",
      "reserved": "",
      "salt": "0xa8b5bed61102b34bd43c26680114bc88464f89db8882525e49b7dfee5c91166d",
      "assetIds": []
    },
    {
      "x": 23,
      "y": 175,
      "size": 1,
      "price": "1011000000000000000000",
      "reserved": "",
      "salt": "0xb6e4dfccdc1d2ea246e9d4e52528526cb147118efc4633f4484e08fd01b0877a",
      "assetIds": []
    },
    {
      "x": 24,
      "y": 175,
      "size": 1,
      "price": "1011000000000000000000",
      "reserved": "",
      "salt": "0x206a7d6e930d441b053955713274cac121cda46ab24f910f717242bab6693c0b",
      "assetIds": []
    },
    {
      "x": 25,
      "y": 175,
      "size": 1,
      "price": "1011000000000000000000",
      "reserved": "",
      "salt": "0x97d63ec9cf7a71e11d9a6bf0bb06148648c56d4cd1ade036a074aec7f188df9c",
      "assetIds": []
    },
    {
      "x": 22,
      "y": 176,
      "size": 1,
      "price": "1011000000000000000000",
      "reserved": "",
      "salt": "0x3a1fdf5bea171b4e880ec39d0cff247138aacc301d2b8524f39809654bd05486",
      "assetIds": []
    },
    {
      "x": 21,
      "y": 176,
      "size": 1,
      "price": "1011000000000000000000",
      "reserved": "",
      "salt": "0x1458fb6eb8647b89e7b0cd38094a2832fd9734c37c40161ee0649deabad7d4ea",
      "assetIds": []
    },
    {
      "x": 20,
      "y": 176,
      "size": 1,
      "price": "1011000000000000000000",
      "reserved": "",
      "salt": "0x0d828b7d3a1c1202115bf7b10d6799d41b4c99f4d6b9f997484fec3fff049730",
      "assetIds": []
    },
    {
      "x": 23,
      "y": 176,
      "size": 1,
      "price": "1011000000000000000000",
      "reserved": "",
      "salt": "0xdd86e3a7ac38a47e34c1542a877f1f530deedead5cae3ec0a35c112e58e1873b",
      "assetIds": []
    },
    {
      "x": 27,
      "y": 177,
      "size": 1,
      "price": "1011000000000000000000",
      "reserved": "",
      "salt": "0xcd6c7b1affefbde56b5159056fd1165ae6b8638acd5829f15a5f6f4404422235",
      "assetIds": []
    },
    {
      "x": 26,
      "y": 177,
      "size": 1,
      "price": "1011000000000000000000",
      "reserved": "",
      "salt": "0x980147edebc8a6120a049b68cfb3244efd4d07cbc6933c2ee1636820034b224c",
      "assetIds": []
    },
    {
      "x": 25,
      "y": 177,
      "size": 1,
      "price": "1011000000000000000000",
      "reserved": "",
      "salt": "0x88d45fdcfa87bb1c58dc410bf06da7ea95d6a226df8a0b1c14f1a1d7c514be7b",
      "assetIds": []
    },
    {
      "x": 28,
      "y": 177,
      "size": 1,
      "price": "1011000000000000000000",
      "reserved": "",
      "salt": "0xf5eb643880057c2cb59d1d57d792f7d82f653ee4d8c01b4c37d3f7e1135d1325",
      "assetIds": []
    },
    {
      "x": 23,
      "y": 173,
      "size": 1,
      "price": "1011000000000000000000",
      "reserved": "",
      "salt": "0x585bd3f43eb3de47d85146b4b03c2ce06d5104ae1c2165fef46fab274703091c",
      "assetIds": []
    },
    {
      "x": 22,
      "y": 173,
      "size": 1,
      "price": "1011000000000000000000",
      "reserved": "",
      "salt": "0xf7898076b29e15421f178c7664054efedaf29460d37df37717c3c1745ca5f107",
      "assetIds": []
    },
    {
      "x": 20,
      "y": 173,
      "size": 1,
      "price": "1011000000000000000000",
      "reserved": "",
      "salt": "0x604df85560a8c3ca496aa42f295eefa61bc3017d9bd4b148bffdc13b80f86398",
      "assetIds": []
    },
    {
      "x": 19,
      "y": 173,
      "size": 1,
      "price": "1011000000000000000000",
      "reserved": "",
      "salt": "0x623d6f905372a95f867b64acc0c9c3a96cf511f159e259846c2bd22440b7b863",
      "assetIds": []
    },
    {
      "x": 14,
      "y": 171,
      "size": 1,
      "price": "1011000000000000000000",
      "reserved": "",
      "salt": "0x4a87901ebdeeee275fca555a49afea5d801131e8ba8cac2a0e5e765cddd0e2e7",
      "assetIds": []
    },
    {
      "x": 14,
      "y": 170,
      "size": 1,
      "price": "1011000000000000000000",
      "reserved": "",
      "salt": "0x26b4847ebc7485d376d519a82cb135d90894d69058c87a6001bab23e684db389",
      "assetIds": []
    },
    {
      "x": 15,
      "y": 170,
      "size": 1,
      "price": "1011000000000000000000",
      "reserved": "",
      "salt": "0x027bba512ece4a276373358808a494110784fb518c4f371741cb87aff056872f",
      "assetIds": []
    },
    {
      "x": 16,
      "y": 170,
      "size": 1,
      "price": "1011000000000000000000",
      "reserved": "",
      "salt": "0x4b1b81ba9469f82bdd6c204a8306996a7ff1260907fc32a45a4d7f17e02f990e",
      "assetIds": []
    },
    {
      "x": 17,
      "y": 169,
      "size": 1,
      "price": "1011000000000000000000",
      "reserved": "",
      "salt": "0x95d791ba01331b1e86370740f9a38aae3311f52b88cfe119c49ca184c4319d98",
      "assetIds": []
    },
    {
      "x": 18,
      "y": 169,
      "size": 1,
      "price": "1011000000000000000000",
      "reserved": "",
      "salt": "0x77a7e4174ccb0f0e1c6d790bd4364ad9968b69dde3b3b57f0f24a8ec9a9c8bf0",
      "assetIds": []
    },
    {
      "x": 19,
      "y": 169,
      "size": 1,
      "price": "1011000000000000000000",
      "reserved": "",
      "salt": "0x27ecef993185387e66667f0cdd2442ad16c4163b462bc8ee23c69165b880da97",
      "assetIds": []
    },
    {
      "x": 20,
      "y": 169,
      "size": 1,
      "price": "1011000000000000000000",
      "reserved": "",
      "salt": "0x5313c0b12f1412a477ef0fde71cf305960ccd4900017fc129a9b14a6ec83c241",
      "assetIds": []
    },
    {
      "x": 21,
      "y": 169,
      "size": 1,
      "price": "1011000000000000000000",
      "reserved": "",
      "salt": "0x38f204ceb0b7211030b3a90d44501fd69b04e1674411d5742d8af91daf16ebd4",
      "assetIds": []
    },
    {
      "x": 22,
      "y": 169,
      "size": 1,
      "price": "1011000000000000000000",
      "reserved": "",
      "salt": "0xefb41ff47dd6ec266a08ef5aa6992340e2a599990f7bf37974ac4d4f9a5035e7",
      "assetIds": []
    },
    {
      "x": 22,
      "y": 170,
      "size": 1,
      "price": "1011000000000000000000",
      "reserved": "",
      "salt": "0x8324a5eda27b1c3e7fc2ff8df91fafc64917e18a5a703f6ee61562888e527960",
      "assetIds": []
    },
    {
      "x": 23,
      "y": 171,
      "size": 1,
      "price": "1011000000000000000000",
      "reserved": "",
      "salt": "0xebae5f9ff22c30038305be3f18f7e79b3ba666116b2aa80c11af86dd6b0006d3",
      "assetIds": []
    },
    {
      "x": 15,
      "y": 171,
      "size": 1,
      "price": "1011000000000000000000",
      "reserved": "",
      "salt": "0xbf692cf965a2d0b12bd90e1fbf7a2fcb7aae45ea3ebd18e09a1bdacbe7181f57",
      "assetIds": []
    },
    {
      "x": 16,
      "y": 171,
      "size": 1,
      "price": "1011000000000000000000",
      "reserved": "",
      "salt": "0xb6bb0a3bd9ccb6d2f801ff5b512a9e63d6e39b73bcc2124a1e95fbb0c497a6bb",
      "assetIds": []
    },
    {
      "x": 13,
      "y": 170,
      "size": 1,
      "price": "1011000000000000000000",
      "reserved": "",
      "salt": "0x03a2a4b45fa0035ee7e6d70b4077de21f353736102bbcc4b5e66f7d172fed4ee",
      "assetIds": []
    },
    {
      "x": 13,
      "y": 169,
      "size": 1,
      "price": "1011000000000000000000",
      "reserved": "",
      "salt": "0x65355ce869811e1133b07e23fec05a9cc0e7db2b913d908f0df6ec4b6a83fcb1",
      "assetIds": []
    },
    {
      "x": 14,
      "y": 169,
      "size": 1,
      "price": "1011000000000000000000",
      "reserved": "",
      "salt": "0x01c65ad9f2052caded6a1e1b556ce53316ec6224711df81d60e07a1a8973a59e",
      "assetIds": []
    },
    {
      "x": 14,
      "y": 168,
      "size": 1,
      "price": "1011000000000000000000",
      "reserved": "",
      "salt": "0x74aad12d71d46277dcea6d8abdb5ed9148756d2deebed6131e79c72c20a9dddc",
      "assetIds": []
    },
    {
      "x": 15,
      "y": 168,
      "size": 1,
      "price": "1011000000000000000000",
      "reserved": "",
      "salt": "0xde5695522268820bc7a76937ac7bfe82adb63d12dcd17041c05424b293ce10b2",
      "assetIds": []
    },
    {
      "x": 16,
      "y": 168,
      "size": 1,
      "price": "1011000000000000000000",
      "reserved": "",
      "salt": "0x5f5663194af6adf87e01abcd7f511bb73ab34d35d3742e11828ef720c5b2b963",
      "assetIds": []
    },
    {
      "x": 20,
      "y": 168,
      "size": 1,
      "price": "1011000000000000000000",
      "reserved": "",
      "salt": "0xf70f609803b643f9ea843caa69093a58456ff85158c25b9bf73e6b8c42491956",
      "assetIds": []
    },
    {
      "x": 19,
      "y": 168,
      "size": 1,
      "price": "1011000000000000000000",
      "reserved": "",
      "salt": "0xfbccacdeb48aabdff3a556cf183b7808b480e80a621e338823394f23706455f5",
      "assetIds": []
    },
    {
      "x": 18,
      "y": 168,
      "size": 1,
      "price": "1011000000000000000000",
      "reserved": "",
      "salt": "0xbd93f4df2ac81fac0038fba6916c6fefbc91e47d381d00ec93e179d81fcb75de",
      "assetIds": []
    },
    {
      "x": 17,
      "y": 168,
      "size": 1,
      "price": "1011000000000000000000",
      "reserved": "",
      "salt": "0x75b458976d7b562eacf7704cfb6398d38f84005e5a53185b4f5e49c937384a5b",
      "assetIds": []
    },
    {
      "x": 15,
      "y": 169,
      "size": 1,
      "price": "1011000000000000000000",
      "reserved": "",
      "salt": "0xbd68406b2218d9789c2decf3ca579b53283e34375b6884eed59a08f37a523f84",
      "assetIds": []
    },
    {
      "x": 21,
      "y": 168,
      "size": 1,
      "price": "1011000000000000000000",
      "reserved": "",
      "salt": "0xd562c87f26b7228954feaaca1ea813e306e26186509807b63ba323a13db8c8a6",
      "assetIds": []
    },
    {
      "x": 22,
      "y": 168,
      "size": 1,
      "price": "1011000000000000000000",
      "reserved": "",
      "salt": "0x612ddb6048f6bbb11836cdc55cb0938fce5051d0beb0274482e079b0a9c790a2",
      "assetIds": []
    },
    {
      "x": 23,
      "y": 168,
      "size": 1,
      "price": "1011000000000000000000",
      "reserved": "",
      "salt": "0x3beb8284c95277856f42ca3482ebebfd99314c2fd5f706c4ea42e1f2e5f7eea3",
      "assetIds": []
    },
    {
      "x": 23,
      "y": 169,
      "size": 1,
      "price": "1011000000000000000000",
      "reserved": "",
      "salt": "0xbaaa32a20432a8a68cb2d18412a7a189c8d7db70f50a8c154a91ca977d7d4085",
      "assetIds": []
    },
    {
      "x": 23,
      "y": 170,
      "size": 1,
      "price": "1011000000000000000000",
      "reserved": "",
      "salt": "0xf6df47510284d884c566f6102965f425b923c57b78efd99ca4d0e0aacf389a1a",
      "assetIds": []
    },
    {
      "x": 21,
      "y": 171,
      "size": 1,
      "price": "1011000000000000000000",
      "reserved": "",
      "salt": "0x5ffba6f8e6fa058680e5988d0a9e1b38257a0199752590b87936bb4a59d4f0be",
      "assetIds": []
    },
    {
      "x": 19,
      "y": 171,
      "size": 1,
      "price": "1011000000000000000000",
      "reserved": "",
      "salt": "0x375cee1b7fc0f61f3f6f00eb6167cacc8de413c900dbc007afd7bf03f4484f1e",
      "assetIds": []
    },
    {
      "x": 19,
      "y": 170,
      "size": 1,
      "price": "1011000000000000000000",
      "reserved": "",
      "salt": "0x72a7559ed8f188370588d8974b5ecf795da86ac6984c9af62489af6e51e109b0",
      "assetIds": []
    },
    {
      "x": 18,
      "y": 170,
      "size": 1,
      "price": "1011000000000000000000",
      "reserved": "",
      "salt": "0x2be70c31d3d47d369da6983937534f25f996df10e5f015808cbde0f272c64b1d",
      "assetIds": []
    },
    {
      "x": 16,
      "y": 169,
      "size": 1,
      "price": "1011000000000000000000",
      "reserved": "",
      "salt": "0x1623fecde52f0a89577805a507a118c7dfd25ede253ab4c9177e41fa173c17a0",
      "assetIds": []
    },
    {
      "x": 13,
      "y": 168,
      "size": 1,
      "price": "1011000000000000000000",
      "reserved": "",
      "salt": "0xb5dc2ac6b87899f54a716c65590bfdefed2db7d770b819782905564ea9250457",
      "assetIds": []
    },
    {
      "x": 17,
      "y": 170,
      "size": 1,
      "price": "1011000000000000000000",
      "reserved": "",
      "salt": "0xb0e35e23f4ebc1b0d1190eccf14ed16ccdbc4b472683e07bdcf91d5961b79b74",
      "assetIds": []
    },
    {
      "x": 17,
      "y": 171,
      "size": 1,
      "price": "1011000000000000000000",
      "reserved": "",
      "salt": "0x34b1cba85a549751f7b2ee76770a02e2e5496bd647e11650f65ba2cad01e6c45",
      "assetIds": []
    },
    {
      "x": 18,
      "y": 171,
      "size": 1,
      "price": "1011000000000000000000",
      "reserved": "",
      "salt": "0x1f59edad7d3c2aaae4fee1332618fe993678958b5fe25138ce912c8682e55477",
      "assetIds": []
    },
    {
      "x": 20,
      "y": 171,
      "size": 1,
      "price": "1011000000000000000000",
      "reserved": "",
      "salt": "0x953c17b392c130da8fd35b340ee82a364b2d98292f8587253a7905de7ee6622a",
      "assetIds": []
    },
    {
      "x": 20,
      "y": 170,
      "size": 1,
      "price": "1011000000000000000000",
      "reserved": "",
      "salt": "0xc3216175fac03ade304dbce80c946014269e473f33f87444966c187f79e159a6",
      "assetIds": []
    },
    {
      "x": 21,
      "y": 170,
      "size": 1,
      "price": "1011000000000000000000",
      "reserved": "",
      "salt": "0x412ba49720c1ba73c6bc2509529ce5be1c2cfb5c444e40f2ac3274879fafc2a2",
      "assetIds": []
    },
    {
      "x": 22,
      "y": 171,
      "size": 1,
      "price": "1011000000000000000000",
      "reserved": "",
      "salt": "0xcefca4a1cda3a66e98e8cc6f213e62f8d2ed33e7dd0398aa49600be8526977b0",
      "assetIds": []
    },
    {
      "x": 24,
      "y": 155,
      "size": 1,
      "price": "1011000000000000000000",
      "reserved": "",
      "salt": "0x89b001514bbe4385fcb3f660eb40ebcffa84efd1ae4ced4a7f466fb56eed2822",
      "assetIds": []
    },
    {
      "x": 25,
      "y": 155,
      "size": 1,
      "price": "1011000000000000000000",
      "reserved": "",
      "salt": "0x8c522d343fe0515284989ffa0ae422fa4566c72a88c638d6187ad95897b57609",
      "assetIds": []
    },
    {
      "x": 26,
      "y": 155,
      "size": 1,
      "price": "1011000000000000000000",
      "reserved": "",
      "salt": "0x675118dc8298000730adc6eec10e65f1aba1429ede66b2577969ac2145b8a79d",
      "assetIds": []
    },
    {
      "x": 27,
      "y": 155,
      "size": 1,
      "price": "1011000000000000000000",
      "reserved": "",
      "salt": "0x3e1b0e414563df2b99f507bd34ae33cc47869870a4d03b13559bc6c120ba7314",
      "assetIds": []
    },
    {
      "x": 28,
      "y": 155,
      "size": 1,
      "price": "1011000000000000000000",
      "reserved": "",
      "salt": "0x18167871cd2089ab39beb1c8a662319e23c3561e1882dc0ae7f67330a1ae56cd",
      "assetIds": []
    },
    {
      "x": 29,
      "y": 155,
      "size": 1,
      "price": "1011000000000000000000",
      "reserved": "",
      "salt": "0xd4096ecaf8c30f2c0052f944a138548acc7987b42396950726eae014e7e1ccd8",
      "assetIds": []
    },
    {
      "x": 29,
      "y": 154,
      "size": 1,
      "price": "1011000000000000000000",
      "reserved": "",
      "salt": "0x674bc01989426193d02e5cde98423b0868fb2dc2a50e71c16fb0d1a674b9f23f",
      "assetIds": []
    },
    {
      "x": 29,
      "y": 153,
      "size": 1,
      "price": "1011000000000000000000",
      "reserved": "",
      "salt": "0x6d46cccf0a6e9eab519596cd5f7ae84f1260e6a536d54f0c04eb73cd9591ef40",
      "assetIds": []
    },
    {
      "x": 29,
      "y": 152,
      "size": 1,
      "price": "1011000000000000000000",
      "reserved": "",
      "salt": "0x2d5dbcc493a37256cb20d36fcff0482669eab481e94137493727b00a26f3409f",
      "assetIds": []
    },
    {
      "x": 29,
      "y": 151,
      "size": 1,
      "price": "1011000000000000000000",
      "reserved": "",
      "salt": "0x740552ec8c6b5ca4733116a61bc891431db1e9d51b678fb183619f45776d2947",
      "assetIds": []
    },
    {
      "x": 28,
      "y": 151,
      "size": 1,
      "price": "1011000000000000000000",
      "reserved": "",
      "salt": "0x2b85fdb3dd05f53bbb4504bf875d0bd90895bfabac9dc39b7baf27e5933dbf57",
      "assetIds": []
    },
    {
      "x": 28,
      "y": 150,
      "size": 1,
      "price": "1011000000000000000000",
      "reserved": "",
      "salt": "0xec151983bf7fce2f2f03af036cf2c98acb97eb04eec9b462562029f419e10f10",
      "assetIds": []
    },
    {
      "x": 28,
      "y": 149,
      "size": 1,
      "price": "1011000000000000000000",
      "reserved": "",
      "salt": "0xa749c96e07ab5bc7b998c6c34ac939f8aca15a69fc2e4ed2218e8161c971014b",
      "assetIds": []
    },
    {
      "x": 29,
      "y": 149,
      "size": 1,
      "price": "1011000000000000000000",
      "reserved": "",
      "salt": "0xbc2b1910ba9473b2575c19c916663460a5fb83e6d08090621d12229389d0cce7",
      "assetIds": []
    },
    {
      "x": 29,
      "y": 148,
      "size": 1,
      "price": "1011000000000000000000",
      "reserved": "",
      "salt": "0xf19baac154ac26dd3f1ed696438342afdfc5b2fb5798c5c538e905a039ebd71e",
      "assetIds": []
    },
    {
      "x": 29,
      "y": 147,
      "size": 1,
      "price": "1011000000000000000000",
      "reserved": "",
      "salt": "0x1e08a7aac8b465ce5e296f4219be839685b4a44aef2e99ccd2406de4bb14d8bb",
      "assetIds": []
    },
    {
      "x": 29,
      "y": 146,
      "size": 1,
      "price": "1011000000000000000000",
      "reserved": "",
      "salt": "0x0798374fecb873676c04c7ab50ddabb72fad96038acf493b126bc08a9f0f1474",
      "assetIds": []
    },
    {
      "x": 29,
      "y": 145,
      "size": 1,
      "price": "1011000000000000000000",
      "reserved": "",
      "salt": "0x789e47c80d9d25f892c570a754c67612e100cfd71611c1da3313d26c3b6e4558",
      "assetIds": []
    },
    {
      "x": 28,
      "y": 145,
      "size": 1,
      "price": "1011000000000000000000",
      "reserved": "",
      "salt": "0xc2f73dfdc984bf4ae8db601b8941ed43e4e84e1096486a5cb7c4e2a7286f8ed9",
      "assetIds": []
    },
    {
      "x": 27,
      "y": 145,
      "size": 1,
      "price": "1011000000000000000000",
      "reserved": "",
      "salt": "0xd0ce3633795f050a6e2039ad3e74db890d99e61777d5091adf4397e697b61dc3",
      "assetIds": []
    },
    {
      "x": 26,
      "y": 145,
      "size": 1,
      "price": "1011000000000000000000",
      "reserved": "",
      "salt": "0xe81d59f5ad7b01da94d3125c20d7f5ee50a30f498b43aab9b92fbfa301ba2e6c",
      "assetIds": []
    },
    {
      "x": 25,
      "y": 145,
      "size": 1,
      "price": "1011000000000000000000",
      "reserved": "",
      "salt": "0x49de25746041634c0b233abb6f995cf24dba5e6a258a9cc383bbf20e7f6728c2",
      "assetIds": []
    },
    {
      "x": 24,
      "y": 145,
      "size": 1,
      "price": "1011000000000000000000",
      "reserved": "",
      "salt": "0x9def0125f4af5c343694e74f8be854eee08cae901337c2f70a0171c6820fb9dd",
      "assetIds": []
    },
    {
      "x": 25,
      "y": 144,
      "size": 1,
      "price": "1011000000000000000000",
      "reserved": "",
      "salt": "0x639575cddf7fce795d49676c37f937df8d66a885e2c72a37abd58f893a9b6aaa",
      "assetIds": []
    },
    {
      "x": 26,
      "y": 144,
      "size": 1,
      "price": "1011000000000000000000",
      "reserved": "",
      "salt": "0xf2fcd62d94017af04f849699e632adeab02609aa5b55b0d776f39d7c42d140ba",
      "assetIds": []
    },
    {
      "x": 27,
      "y": 144,
      "size": 1,
      "price": "1011000000000000000000",
      "reserved": "",
      "salt": "0xfd8f4a52e48d348515ca0f47e27a8938468063821b5845b55892fc086702df18",
      "assetIds": []
    },
    {
      "x": 28,
      "y": 144,
      "size": 1,
      "price": "1011000000000000000000",
      "reserved": "",
      "salt": "0xd96286e28e7f7aaa1b6ffcf0cd902fcce4ade29a4fb53b8e6f985d4566175071",
      "assetIds": []
    },
    {
      "x": 29,
      "y": 144,
      "size": 1,
      "price": "1011000000000000000000",
      "reserved": "",
      "salt": "0x4830db76a834f8019a423496d6e3ec32215040ec42beebcd30fc5cf8fa11d57b",
      "assetIds": []
    },
    {
      "x": 29,
      "y": 150,
      "size": 1,
      "price": "1011000000000000000000",
      "reserved": "",
      "salt": "0x0cc63c1598a50fd9752d3383ed97ef2f01dd515e667b93f5a50b316ce23573ff",
      "assetIds": []
    },
    {
      "x": 27,
      "y": 149,
      "size": 1,
      "price": "1011000000000000000000",
      "reserved": "",
      "salt": "0xa659190fce00963bd49a7ba778c3e79895051d4d9bd5bffdbb3182d433fbe524",
      "assetIds": []
    },
    {
      "x": 26,
      "y": 149,
      "size": 1,
      "price": "1011000000000000000000",
      "reserved": "",
      "salt": "0x805de87f9b682d1949b6ec09a01815138d8bc50041ff3c353571a48a05a6fc4f",
      "assetIds": []
    },
    {
      "x": 25,
      "y": 149,
      "size": 1,
      "price": "1011000000000000000000",
      "reserved": "",
      "salt": "0xa7d283dd11c227a9cb6276bcd6f017f957e0a9714d17ec1979d5e234a6f9594d",
      "assetIds": []
    },
    {
      "x": 24,
      "y": 149,
      "size": 1,
      "price": "1011000000000000000000",
      "reserved": "",
      "salt": "0xf25e8ec852efc06c8ff88809f5aec9f4677c5727c2e136c09d78427f1489c6a2",
      "assetIds": []
    },
    {
      "x": 24,
      "y": 148,
      "size": 1,
      "price": "1011000000000000000000",
      "reserved": "",
      "salt": "0x02383ad7817d8ea695031aa6fb28bd8e5f6d27e34c96d9326b78dda379a7aadb",
      "assetIds": []
    },
    {
      "x": 24,
      "y": 147,
      "size": 1,
      "price": "1011000000000000000000",
      "reserved": "",
      "salt": "0xcff257146ed59096fec5d87da8d441de83426d50fc06c021cec67129613ff62b",
      "assetIds": []
    },
    {
      "x": 24,
      "y": 146,
      "size": 1,
      "price": "1011000000000000000000",
      "reserved": "",
      "salt": "0xc0c0664d0b783e2f4fc8b49738d386feb2cee3a284749ad26cb239ee6df8edf2",
      "assetIds": []
    },
    {
      "x": 24,
      "y": 144,
      "size": 1,
      "price": "1011000000000000000000",
      "reserved": "",
      "salt": "0xd70253fd196a41c03932f2d9af3b7e714cd0e70370d987e9356f29c1b17f6947",
      "assetIds": []
    },
    {
      "x": 25,
      "y": 146,
      "size": 1,
      "price": "1011000000000000000000",
      "reserved": "",
      "salt": "0x23ee02fb9f95655a2e53b3108ae60890ee0472ff34cf74f8d14ff8a79f540a8e",
      "assetIds": []
    },
    {
      "x": 26,
      "y": 146,
      "size": 1,
      "price": "1011000000000000000000",
      "reserved": "",
      "salt": "0x8cc89f365005bf0706620012b0f75642b2f6b73bda22e906b46ad21b3ee3f507",
      "assetIds": []
    },
    {
      "x": 27,
      "y": 146,
      "size": 1,
      "price": "1011000000000000000000",
      "reserved": "",
      "salt": "0x63b7500511db6a6528b78002911ab1342dc2043e819e27665d2fe9dab4fb9689",
      "assetIds": []
    },
    {
      "x": 28,
      "y": 146,
      "size": 1,
      "price": "1011000000000000000000",
      "reserved": "",
      "salt": "0x03fee5079a8b49a52774bfd6a95f637b63352db2e3a55e8848fdee49e2a5f234",
      "assetIds": []
    },
    {
      "x": 28,
      "y": 147,
      "size": 1,
      "price": "1011000000000000000000",
      "reserved": "",
      "salt": "0x7bcec29d6a540026ce1b6e44b18fd15853d1a5c93c796ee0dfb63e18356f3ad8",
      "assetIds": []
    },
    {
      "x": 27,
      "y": 147,
      "size": 1,
      "price": "1011000000000000000000",
      "reserved": "",
      "salt": "0x53751aaa34fc205344710f05604b14bb51a1a261889968b1f4507cc4d021f78c",
      "assetIds": []
    },
    {
      "x": 26,
      "y": 147,
      "size": 1,
      "price": "1011000000000000000000",
      "reserved": "",
      "salt": "0x34ddcf216f7d579f6150a8d78542ade385f49f2b57fad2d23e19f58330fe3993",
      "assetIds": []
    },
    {
      "x": 25,
      "y": 147,
      "size": 1,
      "price": "1011000000000000000000",
      "reserved": "",
      "salt": "0xdb570dec7a90cf46d4a00f17771d83d3d06a644836452550c5160e90d9113b67",
      "assetIds": []
    },
    {
      "x": 25,
      "y": 148,
      "size": 1,
      "price": "1011000000000000000000",
      "reserved": "",
      "salt": "0xfd075fb8fcb6e88271ecc3eb0cc69b256249e97f91fe3172fdf4a97a99831d8f",
      "assetIds": []
    },
    {
      "x": 26,
      "y": 148,
      "size": 1,
      "price": "1011000000000000000000",
      "reserved": "",
      "salt": "0x659497b7d05a8c21114df00050e26ddfc412059ee29b69c1bc5d42adf093cb50",
      "assetIds": []
    },
    {
      "x": 27,
      "y": 148,
      "size": 1,
      "price": "1011000000000000000000",
      "reserved": "",
      "salt": "0x838e9330c649768d099ffd855717ea425202ca0808040ae5b3675e4a0c82cb3d",
      "assetIds": []
    },
    {
      "x": 28,
      "y": 148,
      "size": 1,
      "price": "1011000000000000000000",
      "reserved": "",
      "salt": "0x656f93d0afb26e14180e703491caef724ac23d948fa5fe0b2b2fa44d30adbd88",
      "assetIds": []
    },
    {
      "x": 28,
      "y": 152,
      "size": 1,
      "price": "1011000000000000000000",
      "reserved": "",
      "salt": "0x2b87ddcaf75d244d8ffae05f73d0ac83f42e78642223d7c640998ac1c2177a33",
      "assetIds": []
    },
    {
      "x": 28,
      "y": 153,
      "size": 1,
      "price": "1011000000000000000000",
      "reserved": "",
      "salt": "0xcc9a92379b84c3e99d6c3e87335b61d016ae235f5ed501ad7d61b65319ce0eec",
      "assetIds": []
    },
    {
      "x": 28,
      "y": 154,
      "size": 1,
      "price": "1011000000000000000000",
      "reserved": "",
      "salt": "0x113deb7f291125f440bb65fd8d09c89e22792946413f1ba4ff75f57c466c48e4",
      "assetIds": []
    },
    {
      "x": 27,
      "y": 154,
      "size": 1,
      "price": "1011000000000000000000",
      "reserved": "",
      "salt": "0x75ac7e6757e039dee7923401dc5230231fa894d1aed7ad0a9cd3aa5e275b4e75",
      "assetIds": []
    },
    {
      "x": 26,
      "y": 154,
      "size": 1,
      "price": "1011000000000000000000",
      "reserved": "",
      "salt": "0xdf54d04ce43f92d2fc50ae137596f22ea9cd8040fd32a29b376fd60b0bcf2592",
      "assetIds": []
    },
    {
      "x": 25,
      "y": 154,
      "size": 1,
      "price": "1011000000000000000000",
      "reserved": "",
      "salt": "0xb53f23c345546f11405ac4002c0790be06b8aaacf25a2b6598c49069b3102156",
      "assetIds": []
    },
    {
      "x": 24,
      "y": 154,
      "size": 1,
      "price": "1011000000000000000000",
      "reserved": "",
      "salt": "0x33969bf4e326711a4f9cd0d7bcd630c39801db8fa6b9d2c88dbd8f9aff6f5c6d",
      "assetIds": []
    },
    {
      "x": 24,
      "y": 153,
      "size": 1,
      "price": "1011000000000000000000",
      "reserved": "",
      "salt": "0x3d869323533e6bc48819afaf882b9eba1aa86b9271707062f2bee08a8d30907e",
      "assetIds": []
    },
    {
      "x": 25,
      "y": 153,
      "size": 1,
      "price": "1011000000000000000000",
      "reserved": "",
      "salt": "0x8bd7ae6e6e8f3809e2ceb6cb34b9bc3e3491e3514153826e177d82db1a583352",
      "assetIds": []
    },
    {
      "x": 26,
      "y": 153,
      "size": 1,
      "price": "1011000000000000000000",
      "reserved": "",
      "salt": "0xbf8cd6fa71b238c83f4714ef3bb312c95b47bd5b49ea2f33c6946b66c27b3f58",
      "assetIds": []
    },
    {
      "x": 27,
      "y": 153,
      "size": 1,
      "price": "1011000000000000000000",
      "reserved": "",
      "salt": "0x82d7a60476f330f9a9df868a024e13491bf27c581330dad1321c34f0b40dd5d7",
      "assetIds": []
    },
    {
      "x": 27,
      "y": 152,
      "size": 1,
      "price": "1011000000000000000000",
      "reserved": "",
      "salt": "0x4448779aa36861b858a224aaeac26cc70f8d417d0decb5f943dd76c856174d99",
      "assetIds": []
    },
    {
      "x": 27,
      "y": 151,
      "size": 1,
      "price": "1011000000000000000000",
      "reserved": "",
      "salt": "0x239af4ff58002c2e2f67d4d3af2e3fd495d54d541a68a89449dffdac1a63db5d",
      "assetIds": []
    },
    {
      "x": 27,
      "y": 150,
      "size": 1,
      "price": "1011000000000000000000",
      "reserved": "",
      "salt": "0xe52ca52860f2f1f7bedf0872e9d87401b67c2480c0a450d74227a2f38e8f85cd",
      "assetIds": []
    },
    {
      "x": 27,
      "y": 118,
      "size": 1,
      "price": "1011000000000000000000",
      "reserved": "",
      "salt": "0xc35b10a16c6d66be803582ee87f2615f844b7bcf262384f6023191f8143ba68f",
      "assetIds": []
    },
    {
      "x": 0,
      "y": 143,
      "size": 1,
      "price": "1011000000000000000000",
      "reserved": "",
      "salt": "0xf9727fba88ba605d1700e44f41cd396b8e5facdb50e561130a084907c8b14512",
      "assetIds": []
    },
    {
      "x": 0,
      "y": 142,
      "size": 1,
      "price": "1011000000000000000000",
      "reserved": "",
      "salt": "0x5cbdf221aa745c1246b17885d8bf4ba9b207b9380b253bdb2d52240ddca0d59b",
      "assetIds": []
    },
    {
      "x": 0,
      "y": 141,
      "size": 1,
      "price": "1011000000000000000000",
      "reserved": "",
      "salt": "0x9b428478cdc312d2f8b491acc583bc3bb7872b4ddc218c876d27d5141096ed64",
      "assetIds": []
    },
    {
      "x": 0,
      "y": 140,
      "size": 1,
      "price": "1011000000000000000000",
      "reserved": "",
      "salt": "0xec4adf950f8c11b90f91b6d85fc8723b79a2e423530c1986453e3810d03750be",
      "assetIds": []
    },
    {
      "x": 0,
      "y": 139,
      "size": 1,
      "price": "1011000000000000000000",
      "reserved": "",
      "salt": "0x42c748b7e3dc235cca99816f5bfc652a063d01bacdd843ebaa3dc9f5180b6548",
      "assetIds": []
    },
    {
      "x": 0,
      "y": 138,
      "size": 1,
      "price": "1011000000000000000000",
      "reserved": "",
      "salt": "0x4e1c9ea8047d1fa7ff23ee62ff222d35090c71c939b267b95e10cc7c67678956",
      "assetIds": []
    },
    {
      "x": 3,
      "y": 138,
      "size": 1,
      "price": "1011000000000000000000",
      "reserved": "",
      "salt": "0xbb97656a1ef2f3eca53774f32ade7792fd7684c084d1c2e9c3e9a7dedeb09b0a",
      "assetIds": []
    },
    {
      "x": 4,
      "y": 138,
      "size": 1,
      "price": "1011000000000000000000",
      "reserved": "",
      "salt": "0x9f865609a14026df79a415929c0cb8f69ee91002c9b9a069506bff71a35cee5f",
      "assetIds": []
    },
    {
      "x": 4,
      "y": 139,
      "size": 1,
      "price": "1011000000000000000000",
      "reserved": "",
      "salt": "0x5aa68b39d22f7db2786f1823fd591d6ecc2e2babf84ca17202e9afa70d0044f7",
      "assetIds": []
    },
    {
      "x": 5,
      "y": 139,
      "size": 1,
      "price": "1011000000000000000000",
      "reserved": "",
      "salt": "0x8d7d9d62bf873b98f1a15721284789c9017d28700cd9d531a6e41dd23a526869",
      "assetIds": []
    },
    {
      "x": 5,
      "y": 140,
      "size": 1,
      "price": "1011000000000000000000",
      "reserved": "",
      "salt": "0xd182f6923c61ad013a2c156a3b758ec9572ced6ae9415dcf201316f484e25ad8",
      "assetIds": []
    },
    {
      "x": 5,
      "y": 141,
      "size": 1,
      "price": "1011000000000000000000",
      "reserved": "",
      "salt": "0x640571690960309e33a5dc81fb0ede700da132c1b0996a72cf1d38d89fcc0cf6",
      "assetIds": []
    },
    {
      "x": 5,
      "y": 142,
      "size": 1,
      "price": "1011000000000000000000",
      "reserved": "",
      "salt": "0x6e99e05bf0c5924eb7f804ffe6cf43dbe5f5dbaeac534d02220f44e12775a9ec",
      "assetIds": []
    },
    {
      "x": 5,
      "y": 143,
      "size": 1,
      "price": "1011000000000000000000",
      "reserved": "",
      "salt": "0x8d121b64b01dae0659bf66701b2b4b504e63e74252c57cb64446039c5d473ca6",
      "assetIds": []
    },
    {
      "x": 4,
      "y": 143,
      "size": 1,
      "price": "1011000000000000000000",
      "reserved": "",
      "salt": "0x0df8856fbd6104e6378f66b54e79056934bd9ab79f036a03d70d11fee37ea966",
      "assetIds": []
    },
    {
      "x": 3,
      "y": 143,
      "size": 1,
      "price": "1011000000000000000000",
      "reserved": "",
      "salt": "0x057b84e2c160f3de849cc36ad7198ab4fa29189be855f97ad1c657a889563a61",
      "assetIds": []
    },
    {
      "x": 2,
      "y": 143,
      "size": 1,
      "price": "1011000000000000000000",
      "reserved": "",
      "salt": "0x5d59ce649702cba61302ddc3dea4ccb4bce2e1f21fed629358c01d3985148803",
      "assetIds": []
    },
    {
      "x": 1,
      "y": 143,
      "size": 1,
      "price": "1011000000000000000000",
      "reserved": "",
      "salt": "0x79629ffd1a3be6ffbc23c4d6ab0151340c508b4785682dedda5858b684c615bd",
      "assetIds": []
    },
    {
      "x": 1,
      "y": 139,
      "size": 1,
      "price": "1011000000000000000000",
      "reserved": "",
      "salt": "0x6cc220b6bef98b40e07e6d0a2f1eb17172474aa9f81fbc24ec775d552629a138",
      "assetIds": []
    },
    {
      "x": 2,
      "y": 138,
      "size": 1,
      "price": "1011000000000000000000",
      "reserved": "",
      "salt": "0x0952780184e5d515f335c127847f8d77140a6454f7f2e8c2b7610e0f18a6dc28",
      "assetIds": []
    },
    {
      "x": 5,
      "y": 138,
      "size": 1,
      "price": "1011000000000000000000",
      "reserved": "",
      "salt": "0x15709bb2ea9f3d4da3c5ccaf5ecc3e64139c295d4c46d2c750b6e4b60083baa5",
      "assetIds": []
    },
    {
      "x": 1,
      "y": 138,
      "size": 1,
      "price": "1011000000000000000000",
      "reserved": "",
      "salt": "0x15e78ddc7260083a6907677ae50693daaae9caa3ca9610e6ea72e34b12b72371",
      "assetIds": []
    },
    {
      "x": 2,
      "y": 139,
      "size": 1,
      "price": "1011000000000000000000",
      "reserved": "",
      "salt": "0xed8ac46384f7474eda19aa70c91329f2cc55083ac98cd60664f55ed9fd6dda94",
      "assetIds": []
    },
    {
      "x": 2,
      "y": 140,
      "size": 1,
      "price": "1011000000000000000000",
      "reserved": "",
      "salt": "0x10d2d217f42c0303fd1704eaf64e42267b37e6cf07b7e65cfdd602709bceeec6",
      "assetIds": []
    },
    {
      "x": 3,
      "y": 140,
      "size": 1,
      "price": "1011000000000000000000",
      "reserved": "",
      "salt": "0x4d488eb28ef3a9138d603ebd607afff6645c9d6fea4107449dc6670c209df99f",
      "assetIds": []
    },
    {
      "x": 3,
      "y": 141,
      "size": 1,
      "price": "1011000000000000000000",
      "reserved": "",
      "salt": "0x315e1a8d9a2e2610a902cd39b09fc91833270970219a241babc5d082a64c8775",
      "assetIds": []
    },
    {
      "x": 3,
      "y": 142,
      "size": 1,
      "price": "1011000000000000000000",
      "reserved": "",
      "salt": "0x2cc9868b16e282ff8a5a15d0761f92b19faf80c24e13e337d1378a6db9445b2c",
      "assetIds": []
    },
    {
      "x": 4,
      "y": 142,
      "size": 1,
      "price": "1011000000000000000000",
      "reserved": "",
      "salt": "0xf00e3f763b9f84d04db2cb0f3ad5eeed955e49018aeb4b2d71824f2ac4abddb1",
      "assetIds": []
    },
    {
      "x": 4,
      "y": 141,
      "size": 1,
      "price": "1011000000000000000000",
      "reserved": "",
      "salt": "0x9a54f5112aeab834a4341234d1daa1c10f7574316ab03520567db2ddee7ff47f",
      "assetIds": []
    },
    {
      "x": 4,
      "y": 140,
      "size": 1,
      "price": "1011000000000000000000",
      "reserved": "",
      "salt": "0xab86aa791dd323760bf7f51427c90f8fc19abc193e3fed30fcdf8b89bd1c1453",
      "assetIds": []
    },
    {
      "x": 3,
      "y": 139,
      "size": 1,
      "price": "1011000000000000000000",
      "reserved": "",
      "salt": "0x794d97029068a307e5a8d9f2e87c9d9c303cee24a0b64af7dfd747659a1e3c8c",
      "assetIds": []
    },
    {
      "x": 2,
      "y": 142,
      "size": 1,
      "price": "1011000000000000000000",
      "reserved": "",
      "salt": "0x55d3a2cff04a35711111539584d0c98d541e520e08a65d5dd534e18d90599228",
      "assetIds": []
    },
    {
      "x": 1,
      "y": 141,
      "size": 1,
      "price": "1011000000000000000000",
      "reserved": "",
      "salt": "0x2227eb1108df9818a4a6a6de9764892c66326d6a176296de1738e8d78dfbf0be",
      "assetIds": []
    },
    {
      "x": 1,
      "y": 140,
      "size": 1,
      "price": "1011000000000000000000",
      "reserved": "",
      "salt": "0x6cb7f8f395d36ef091f23efb52a59c68318ca78d30069e82e260ee16640aa2b2",
      "assetIds": []
    },
    {
      "x": 1,
      "y": 142,
      "size": 1,
      "price": "1011000000000000000000",
      "reserved": "",
      "salt": "0x5eecff156c20d2cb206c4f155a669266fb771e6c3d7cc3dadce96b81f22a900d",
      "assetIds": []
    },
    {
      "x": 2,
      "y": 141,
      "size": 1,
      "price": "1011000000000000000000",
      "reserved": "",
      "salt": "0x191c359c6d93cd57c15bce6faa3e07f25ef1ba56053a308eaf7f3a9dc1846618",
      "assetIds": []
    },
    {
      "x": 0,
      "y": 192,
      "size": 24,
      "price": "466102000000000000000000",
      "reserved": "0x8bb37fb0f0462bb3fc8995cf17721f8e4a399629",
      "salt": "0xc4c0603eafdf39840c066308acb09e6d70774815adf5974ae60735cca2db5e61",
      "assetIds": []
    },
    {
      "x": 0,
      "y": 96,
      "size": 24,
      "price": "466102000000000000000000",
      "reserved": "0xD387A6E4e84a6C86bd90C158C6028A58CC8Ac459",
      "salt": "0x1155870de45f577b6f34eed37b54b948179551f5bd08c46c3530e7ff4182b36e",
      "assetIds": []
    },
    {
      "x": 0,
      "y": 144,
      "size": 24,
      "price": "466102000000000000000000",
      "reserved": "0x7a9fe22691c811ea339d9b73150e6911a5343dca",
      "salt": "0x53b53f3cd31f518147bf89d1f7a37dc0e30133b67e4e55cd53d8e6b109cf8434",
      "assetIds": []
    },
    {
      "x": 12,
      "y": 180,
      "size": 12,
      "price": "123806000000000000000000",
      "reserved": "0x7a9fe22691c811ea339d9b73150e6911a5343dca",
      "salt": "0x95a2d71e8e68410cf3f5fe5dbd5d1011ccef73b9b1da7b64a0cc493e79ce753c",
      "assetIds": []
    },
    {
      "x": 24,
      "y": 156,
      "size": 12,
      "price": "123806000000000000000000",
      "reserved": "0x7a9fe22691c811ea339d9b73150e6911a5343dca",
      "salt": "0x48b5c8216ff856e9dd061c03e58978e2dadf28e954fdaf6a94e757e560567657",
      "assetIds": []
    },
    {
      "x": 12,
      "y": 132,
      "size": 12,
      "price": "123806000000000000000000",
      "reserved": "0xF0103243F4d22B5696588646b21313d85916A16A",
      "salt": "0xb449595676e7ec08ab62b5fb6816fe2ba65b6151259bc1689592a494b6e464fc",
      "assetIds": []
    },
    {
      "x": 24,
      "y": 96,
      "size": 12,
      "price": "123806000000000000000000",
      "reserved": "0x7a9fe22691c811ea339d9b73150e6911a5343dca",
      "salt": "0xc0dc027122ef032b679fe6078adbcda699c83de3be751a509ab7a4813c7f6aa2",
      "assetIds": []
    },
    {
      "x": 0,
      "y": 120,
      "size": 12,
      "price": "123806000000000000000000",
      "reserved": "0x7a9fe22691c811ea339d9b73150e6911a5343dca",
      "salt": "0x3e77fa5238f1b8ab988ec093eff71b34ea81a05ed559f1f7c0ed6d0477796d58",
      "assetIds": []
    },
    {
      "x": 12,
      "y": 174,
      "size": 6,
      "price": "32772000000000000000000",
      "reserved": "0x7a9fe22691c811ea339d9b73150e6911a5343dca",
      "salt": "0xb81621e793aefdde1131d9689ef0698c6b01bbe0f15d4e3daf126e8ccdd80045",
      "assetIds": []
    },
    {
      "x": 30,
      "y": 174,
      "size": 6,
      "price": "32772000000000000000000",
      "reserved": "0x7a9fe22691c811ea339d9b73150e6911a5343dca",
      "salt": "0xdcc1ffa23f1c3acfc2816d8c005a6ba5570f7788eea0d5be18bd0356ffcc03e3",
      "assetIds": []
    },
    {
      "x": 6,
      "y": 138,
      "size": 6,
      "price": "32772000000000000000000",
      "reserved": "0x7a9fe22691c811ea339d9b73150e6911a5343dca",
      "salt": "0xf65822c867aef9d5c602f78df17d7439a28602c87ec88295a87329f7f131247b",
      "assetIds": []
    },
    {
      "x": 6,
      "y": 132,
      "size": 6,
      "price": "32772000000000000000000",
      "reserved": "0x7a9fe22691c811ea339d9b73150e6911a5343dca",
      "salt": "0xb5148faed5378cc1269a04729e091aa122b19a04162b4c257d8d2024d7028f97",
      "assetIds": []
    },
    {
      "x": 0,
      "y": 132,
      "size": 6,
      "price": "32772000000000000000000",
      "reserved": "0x7a9fe22691c811ea339d9b73150e6911a5343dca",
      "salt": "0x69418e505e9d070c183476d8ab7c26e81a585eed39913a7025a89210a3c994e0",
      "assetIds": []
    },
    {
      "x": 12,
      "y": 120,
      "size": 6,
      "price": "32772000000000000000000",
      "reserved": "0x7a9fe22691c811ea339d9b73150e6911a5343dca",
      "salt": "0x6307901982172a844d8edd563ef86a08f01d0f5aefe576cd679686fd5212c1b1",
      "assetIds": []
    },
    {
      "x": 18,
      "y": 126,
      "size": 6,
      "price": "32772000000000000000000",
      "reserved": "0x7a9fe22691c811ea339d9b73150e6911a5343dca",
      "salt": "0xb0614212331666f0cfd6cd154f469d176241027736fceada7d79813e8bc9d3c2",
      "assetIds": []
    },
    {
      "x": 24,
      "y": 90,
      "size": 6,
      "price": "32772000000000000000000",
      "reserved": "0x7a9fe22691c811ea339d9b73150e6911a5343dca",
      "salt": "0x91ca4e8c2d9044b607b07f56dc7e1c4a217225661046bcbb2a771ecd375f2b3f",
      "assetIds": []
    },
    {
      "x": 24,
      "y": 84,
      "size": 6,
      "price": "32772000000000000000000",
      "reserved": "0x7a9fe22691c811ea339d9b73150e6911a5343dca",
      "salt": "0x6fba6c9fd667840ffc6e0528db229c99dc7e876fdd1460bba8ecf4d53e44b527",
      "assetIds": []
    },
    {
      "x": 18,
      "y": 84,
      "size": 6,
      "price": "32772000000000000000000",
      "reserved": "0x7a9fe22691c811ea339d9b73150e6911a5343dca",
      "salt": "0xdd757c0955864ad4f6139e4588eda50baf9054fb2d7168c69422c0ad3b9561f5",
      "assetIds": []
    },
    {
      "x": 24,
      "y": 168,
      "size": 6,
      "price": "32772000000000000000000",
      "reserved": "0x7a9fe22691c811ea339d9b73150e6911a5343dca",
      "salt": "0xc77840077e6614eed091202327804764a8797ef0049539cb8016fdc8e272ea67",
      "assetIds": []
    },
    {
      "x": 30,
      "y": 186,
      "size": 6,
      "price": "32772000000000000000000",
      "reserved": "0x7a9fe22691c811ea339d9b73150e6911a5343dca",
      "salt": "0xd1aa9ba4375008b29c2d9c1551dc3f0abc65d03b389f3d2af84d7502552030a4",
      "assetIds": []
    },
    {
      "x": 30,
      "y": 150,
      "size": 6,
      "price": "32772000000000000000000",
      "reserved": "0x7a9fe22691c811ea339d9b73150e6911a5343dca",
      "salt": "0x565e4a73593850ea96a47c3536f9fe42e1101f05052ea56715752b5bd0283836",
      "assetIds": []
    },
    {
      "x": 3,
      "y": 177,
      "size": 3,
      "price": "8648000000000000000000",
      "reserved": "",
      "salt": "0xffc2cf7a2a16111c48aac35437cf0cc8834b03f827a23e825d31e827f965070a",
      "assetIds": []
    },
    {
      "x": 24,
      "y": 150,
      "size": 3,
      "price": "8648000000000000000000",
      "reserved": "",
      "salt": "0xa691cbb5e79292f60b22affab39ea416869b19df246ea4ad5cdff90bdd20608b",
      "assetIds": []
    },
    {
      "x": 12,
      "y": 129,
      "size": 3,
      "price": "8648000000000000000000",
      "reserved": "",
      "salt": "0x3d2b3f8f8ef84438caa1ebdc1e9e4cf6604fe75a0f4a6676cfc623bed8daef8d",
      "assetIds": []
    },
    {
      "x": 15,
      "y": 126,
      "size": 3,
      "price": "8648000000000000000000",
      "reserved": "",
      "salt": "0xe8d9fcd5c04edb2d60892b1cd99d8446a198fe5ba2baf25627ef583d4316f7fc",
      "assetIds": []
    },
    {
      "x": 24,
      "y": 114,
      "size": 3,
      "price": "8648000000000000000000",
      "reserved": "",
      "salt": "0xcef58fcf59b53e3e088cadd43175dbed6cbc16184c14d246db8b96952cd52af6",
      "assetIds": []
    },
    {
      "x": 33,
      "y": 87,
      "size": 3,
      "price": "8648000000000000000000",
      "reserved": "",
      "salt": "0x1d5f6cbb73fe4338ec872a1b1172890d1d9416b03600de0f29e69bb42b5e36a6",
      "assetIds": []
    }
  ],
  "solcInputHash": "a4de1e9cf87be8a7daa33c15e9438e26",
  "bytecode": "0x610160604052620d2f006005556103e860075534801561001e57600080fd5b5060405161242e38038061242e833981810160405261018081101561004257600080fd5b50805160208201516040830151606080850151608086015160a08088015160c0808a015160e08b01516101008c01516101208d01516101408e0151610160909e0151600280546001600160a01b0319166001600160a01b03861617905560038390558d8b1b6001600160601b0319908116909852998c901b909616909352999a9899979895979496929590949391926100dc8a600161014a565b600680546001600160a01b03199081166001600160a01b039a8b1617909155610140979097526101209590955260008054909616979096169690961790935550606093841b6001600160601b031990811660e05292841b831660805290921b1661010052506101ae92505050565b6001600160a01b038216600081815260016020908152604091829020805460ff191685151590811790915582519384529083015280517fb21eb88b4e33b3f1281830a7178d74d8aa73220416215726b68ae23d539515cb9281900390910190a15050565b60805160601c60a05160601c60c05160601c60e05160601c6101005160601c61012051610140516121fb610233600039806109375280611d44525080610913528061139a525080611da45250806115d252806116f4525080610c50528061159c5280611dd852508061166152806116c5525080610dfa528061190852506121fb6000f3fe608060405234801561001057600080fd5b50600436106101515760003560e01c8063984d6252116100cd578063dc5074af11610081578063ecb255b511610066578063ecb255b514610857578063f23a6e6114610874578063f2e7b3811461090957610151565b8063dc5074af14610814578063e56f8a9e1461083a57610151565b8063bc197c81116100b2578063bc197c81146105d3578063c10a420814610735578063caed35001461080c57610151565b8063984d6252146104db578063b522ecff146105ad57610151565b80636e9960c3116101245780638a04af6a116101095780638a04af6a1461032a5780638a12b82f146103585780638f283970146104b557610151565b80636e9960c3146102fe57806377f1c3ac1461032257610151565b806325cb5bc014610156578063495906571461017057806358bc29441461017857806365194ce7146101a0575b600080fd5b61015e610911565b60408051918252519081900360200190f35b61015e610935565b61019e6004803603602081101561018e57600080fd5b50356001600160a01b0316610959565b005b610246600480360360208110156101b657600080fd5b8101906020810181356401000000008111156101d157600080fd5b8201836020820111156101e357600080fd5b8035906020019184600183028401116401000000008311171561020557600080fd5b91908080601f016020809104026020016040519081016040528093929190818152602001838380828437600092019190915250929550610a04945050505050565b6040518080602001866001600160a01b03166001600160a01b03168152602001856001600160a01b03166001600160a01b03168152602001848152602001838152602001828103825287818151815260200191508051906020019080838360005b838110156102bf5781810151838201526020016102a7565b50505050905090810190601f1680156102ec5780820380516001836020036101000a031916815260200191505b50965050505050505060405180910390f35b610306610b09565b604080516001600160a01b039092168252519081900360200190f35b61015e610b18565b61019e6004803603604081101561034057600080fd5b506001600160a01b0381351690602001351515610b1e565b61019e600480360361018081101561036f57600080fd5b6001600160a01b038235811692602081013582169260408201359092169160608201359160808101359160a08201359160c08101359160e0820135916101008101359181019061014081016101208201356401000000008111156103d257600080fd5b8201836020820111156103e457600080fd5b8035906020019184602083028401116401000000008311171561040657600080fd5b91939092909160208101903564010000000081111561042457600080fd5b82018360208201111561043657600080fd5b8035906020019184602083028401116401000000008311171561045857600080fd5b91939092909160208101903564010000000081111561047657600080fd5b82018360208201111561048857600080fd5b803590602001918460018302840111640100000000831117156104aa57600080fd5b509092509050610b75565b61019e600480360360208110156104cb57600080fd5b50356001600160a01b0316610cc3565b61019e600480360360608110156104f157600080fd5b6001600160a01b03823516919081019060408101602082013564010000000081111561051c57600080fd5b82018360208201111561052e57600080fd5b8035906020019184602083028401116401000000008311171561055057600080fd5b91939092909160208101903564010000000081111561056e57600080fd5b82018360208201111561058057600080fd5b803590602001918460208302840111640100000000831117156105a257600080fd5b509092509050610d99565b61019e600480360360208110156105c357600080fd5b50356001600160a01b0316610f24565b610700600480360360a08110156105e957600080fd5b6001600160a01b03823581169260208101359091169181019060608101604082013564010000000081111561061d57600080fd5b82018360208201111561062f57600080fd5b8035906020019184602083028401116401000000008311171561065157600080fd5b91939092909160208101903564010000000081111561066f57600080fd5b82018360208201111561068157600080fd5b803590602001918460208302840111640100000000831117156106a357600080fd5b9193909290916020810190356401000000008111156106c157600080fd5b8201836020820111156106d357600080fd5b803590602001918460018302840111640100000000831117156106f557600080fd5b50909250905061100d565b604080517fffffffff000000000000000000000000000000000000000000000000000000009092168252519081900360200190f35b6107f8600480360360a081101561074b57600080fd5b81019060208101813564010000000081111561076657600080fd5b82018360208201111561077857600080fd5b8035906020019184600183028401116401000000008311171561079a57600080fd5b91908080601f016020809104026020016040519081016040528093929190818152602001838380828437600092019190915250929550506001600160a01b03833581169450602084013516926040810135925060600135905061103a565b604080519115158252519081900360200190f35b610306611176565b6107f86004803603602081101561082a57600080fd5b50356001600160a01b0316611185565b61019e6004803603602081101561085057600080fd5b50356111a3565b61019e6004803603602081101561086d57600080fd5b5035611207565b610700600480360360a081101561088a57600080fd5b6001600160a01b03823581169260208101359091169160408201359160608101359181019060a0810160808201356401000000008111156108ca57600080fd5b8201836020820111156108dc57600080fd5b803590602001918460018302840111640100000000831117156108fe57600080fd5b50909250905061126b565b61015e611296565b7f000000000000000000000000000000000000000000000000000000000000000090565b7f000000000000000000000000000000000000000000000000000000000000000090565b6000546001600160a01b031633146109b8576040805162461bcd60e51b815260206004820152601060248201527f53656e646572206e6f742061646d696e00000000000000000000000000000000604482015290519081900360640190fd5b600554600280546001600160a01b03908116600090815260046020526040902042909301909255805473ffffffffffffffffffffffffffffffffffffffff191692909116919091179055565b606060008060008060606000806000808a80602001905160a0811015610a2957600080fd5b8101908080516040519392919084640100000000821115610a4957600080fd5b908301906020820185811115610a5e57600080fd5b8251640100000000811182820188101715610a7857600080fd5b82525081516020918201929091019080838360005b83811015610aa5578181015183820152602001610a8d565b50505050905090810190601f168015610ad25780820380516001836020036101000a031916815260200191505b5060409081526020820151908201516060830151608090930151959f50909d509b5099509197505050505050505091939590929450565b6000546001600160a01b031690565b60035490565b6000546001600160a01b03163314610b675760405162461bcd60e51b815260040180806020018281038252602e815260200180612198602e913960400191505060405180910390fd5b610b71828261129c565b5050565b610b7f898961131e565b610c048f8e8e8e8e8e8d8d8d80806020026020016040519081016040528093929190818152602001838360200280828437600081840152601f19601f820116905080830192505050505050508c8c8080602002602001604051908101604052809392919081815260200183836020028082843760009201919091525061139892505050565b610c458f8984848080601f01602080910402602001604051908101604052809392919081815260200183838082843760009201919091525061157592505050565b610c758f8f8e8e8e8d7f00000000000000000000000000000000000000000000000000000000000000008f6115c6565b610cb28e87878080602002602001604051908101604052809392919081815260200183836020028082843760009201919091525061189192505050565b505050505050505050505050505050565b6000546001600160a01b03163314610d22576040805162461bcd60e51b815260206004820152601b60248201527f6f6e6c792061646d696e2063616e206368616e67652061646d696e0000000000604482015290519081900360640190fd5b600054604080516001600160a01b039283168152918316602083015280517f7e644d79422f17c01e4894b5f4f588d331ebfa28653d42ae832dc59e38c9798f9281900390910190a16000805473ffffffffffffffffffffffffffffffffffffffff19166001600160a01b0392909216919091179055565b6000546001600160a01b03163314610df8576040805162461bcd60e51b815260206004820152600e60248201527f4e4f545f415554484f52495a4544000000000000000000000000000000000000604482015290519081900360640190fd5b7f00000000000000000000000000000000000000000000000000000000000000006001600160a01b0316632eb2c2d63087878787876040518763ffffffff1660e01b815260040180876001600160a01b03166001600160a01b03168152602001866001600160a01b03166001600160a01b031681526020018060200180602001806020018481038452888882818152602001925060200280828437600083820152601f01601f19169091018581038452868152602090810191508790870280828437600081840152601f19601f8201169050808301925050508481038252600081526020016020019950505050505050505050600060405180830381600087803b158015610f0557600080fd5b505af1158015610f19573d6000803e3d6000fd5b505050505050505050565b6001600160a01b038116610f7f576040805162461bcd60e51b815260206004820152600c60248201527f5a45524f5f414444524553530000000000000000000000000000000000000000604482015290519081900360640190fd5b6000546001600160a01b03163314610fde576040805162461bcd60e51b815260206004820152600e60248201527f4e4f545f415554484f52495a4544000000000000000000000000000000000000604482015290519081900360640190fd5b6006805473ffffffffffffffffffffffffffffffffffffffff19166001600160a01b0392909216919091179055565b7fbc197c810000000000000000000000000000000000000000000000000000000098975050505050505050565b600060035482118061105d5750836001600160a01b0316856001600160a01b0316145b8061106757508242115b156110745750600061116d565b60408051606087811b7fffffffffffffffffffffffffffffffffffffffff0000000000000000000000009081166020808501919091529188901b166034830152604882018690526068808301869052835180840390910181526088830184528051908201207f19457468657265756d205369676e6564204d6573736167653a0a33320000000060a884015260c48084018290528451808503909101815260e4909301909352815191012060009061112b9089611a55565b6001600160a01b03811660009081526004602052604090205490915042116111585760019250505061116d565b6002546001600160a01b039081169116149150505b95945050505050565b6002546001600160a01b031690565b6001600160a01b031660009081526001602052604090205460ff1690565b6000546001600160a01b03163314611202576040805162461bcd60e51b815260206004820152601060248201527f53656e646572206e6f742061646d696e00000000000000000000000000000000604482015290519081900360640190fd5b600355565b6000546001600160a01b03163314611266576040805162461bcd60e51b815260206004820152600e60248201527f4e4f545f415554484f52495a4544000000000000000000000000000000000000604482015290519081900360640190fd5b600755565b7ff23a6e61000000000000000000000000000000000000000000000000000000009695505050505050565b60075490565b6001600160a01b03821660008181526001602090815260409182902080547fffffffffffffffffffffffffffffffffffffffffffffffffffffffffffffff001685151590811790915582519384529083015280517fb21eb88b4e33b3f1281830a7178d74d8aa73220416215726b68ae23d539515cb9281900390910190a15050565b6113456103e861133960075485611b2290919063ffffffff16565b9063ffffffff611b9816565b8114610b71576040805162461bcd60e51b815260206004820152600d60248201527f494e56414c49445f505249434500000000000000000000000000000000000000604482015290519081900360640190fd5b7f0000000000000000000000000000000000000000000000000000000000000000421061140c576040805162461bcd60e51b815260206004820152600c60248201527f53414c455f49535f4f5645520000000000000000000000000000000000000000604482015290519081900360640190fd5b6001600160a01b03891633148061143257503360009081526001602052604090205460ff165b611483576040805162461bcd60e51b815260206004820152600e60248201527f4e4f545f415554484f52495a4544000000000000000000000000000000000000604482015290519081900360640190fd5b6001600160a01b03881615806114aa5750886001600160a01b0316886001600160a01b0316145b6114fb576040805162461bcd60e51b815260206004820152600d60248201527f52455345525645445f4c414e4400000000000000000000000000000000000000604482015290519081900360640190fd5b600061150c888888888d8989611bfd565b90506115188282611ca2565b611569576040805162461bcd60e51b815260206004820152600c60248201527f494e56414c49445f4c414e440000000000000000000000000000000000000000604482015290519081900360640190fd5b50505050505050505050565b60006115818484611d6b565b6006549091506115c0908590839085906001600160a01b03167f0000000000000000000000000000000000000000000000000000000000000000611eb8565b50505050565b83600114806115fc57507f00000000000000000000000000000000000000000000000000000000000000006001600160a01b0316155b156116c357604080517f6e1e3bbf0000000000000000000000000000000000000000000000000000000081526001600160a01b03898116600483015260248201879052604482018990526064820188905260a06084830152600060a4830181905292517f000000000000000000000000000000000000000000000000000000000000000090911692636e1e3bbf9260e4808201939182900301818387803b1580156116a657600080fd5b505af11580156116ba573d6000803e3d6000fd5b50505050611827565b7f00000000000000000000000000000000000000000000000000000000000000006001600160a01b0316636e1e3bbf7f00000000000000000000000000000000000000000000000000000000000000008689898c60405160200180826001600160a01b03166001600160a01b031681526020019150506040516020818303038152906040526040518663ffffffff1660e01b815260040180866001600160a01b03166001600160a01b0316815260200185815260200184815260200183815260200180602001828103825283818151815260200191508051906020019080838360005b838110156117be5781810151838201526020016117a6565b50505050905090810190601f1680156117eb5780820380516001836020036101000a031916815260200191505b509650505050505050600060405180830381600087803b15801561180e57600080fd5b505af1158015611822573d6000803e3d6000fd5b505050505b60408051858152602081018590526001600160a01b03848116828401526060820184905291516101988802890192808b1692908c16917fe4dfa6ac11314892f3029b34a25b1a887da3b1cab2bbf8506d87128ba6e3ac029181900360800190a45050505050505050565b6060815167ffffffffffffffff811180156118ab57600080fd5b506040519080825280602002602001820160405280156118d5578160200160208202803683370190505b50905060005b82518110156119055760018282815181106118f257fe5b60209081029190910101526001016118db565b507f00000000000000000000000000000000000000000000000000000000000000006001600160a01b0316632eb2c2d6308585856040518563ffffffff1660e01b815260040180856001600160a01b03166001600160a01b03168152602001846001600160a01b03166001600160a01b03168152602001806020018060200180602001848103845286818151815260200191508051906020019060200280838360005b838110156119c05781810151838201526020016119a8565b50505050905001848103835285818151815260200191508051906020019060200280838360005b838110156119ff5781810151838201526020016119e7565b50505050905001848103825260008152602001602001975050505050505050600060405180830381600087803b158015611a3857600080fd5b505af1158015611a4c573d6000803e3d6000fd5b50505050505050565b60008151604114611a6557600080fd5b60208201516040830151606084015160001a601b811015611a8457601b015b8060ff16601b1480611a9957508060ff16601c145b611aa257600080fd5b6040805160008152602080820180845289905260ff8416828401526060820186905260808201859052915160019260a0808401939192601f1981019281900390910190855afa158015611af9573d6000803e3d6000fd5b5050604051601f1901519450506001600160a01b038416611b1957600080fd5b50505092915050565b600082611b3157506000611b92565b5081810281838281611b3f57fe5b0414611b92576040805162461bcd60e51b815260206004820152600860248201527f6f766572666c6f77000000000000000000000000000000000000000000000000604482015290519081900360640190fd5b92915050565b600081611bec576040805162461bcd60e51b815260206004820152600960248201527f64697662797a65726f0000000000000000000000000000000000000000000000604482015290519081900360640190fd5b818381611bf557fe5b049392505050565b60008787878787878760405160200180888152602001878152602001868152602001858152602001846001600160a01b03166001600160a01b031660601b8152601401838152602001828051906020019060200280838360005b83811015611c6f578181015183820152602001611c57565b50505050905001975050505050505050604051602081830303815290604052805190602001209050979650505050505050565b600081815b8451811015611d41576000858281518110611cbe57fe5b6020026020010151905080831015611d065782816040516020018083815260200182815260200192505050604051602081830303815290604052805190602001209250611d38565b808360405160200180838152602001828152602001925050506040516020818303038152906040528051906020012092505b50600101611ca7565b507f0000000000000000000000000000000000000000000000000000000000000000149392505050565b600080611d84606461133985600563ffffffff611b2216565b604080516323b872dd60e01b81526001600160a01b0387811660048301527f0000000000000000000000000000000000000000000000000000000000000000811660248301526044820184905291519293507f0000000000000000000000000000000000000000000000000000000000000000909116916323b872dd916064808201926020929091908290030181600087803b158015611e2357600080fd5b505af1158015611e37573d6000803e3d6000fd5b505050506040513d6020811015611e4d57600080fd5b5051611ea0576040805162461bcd60e51b815260206004820152601360248201527f4645455f5452414e534645525f4641494c454400000000000000000000000000604482015290519081900360640190fd5b611eb0838263ffffffff61213a16565b949350505050565b82518190859015612062576060600080600080611ed48a610a04565b9398509196509450925090506000611eef868686868661103a565b15611f7d57611f09611f018d84611b22565b612710611b98565b9050886001600160a01b0316846001600160a01b0316866001600160a01b03167fac7a699eb95c3c6d390ec4626de17ef9a67b35891efdb197beba7c7fdd45fac48f858760405180848152602001838152602001828152602001935050505060405180910390a4611f7a878261213a565b96505b801561205b57604080516323b872dd60e01b81526001600160a01b038f811660048301528781166024830152604482018490529151918a16916323b872dd916064808201926020929091908290030181600087803b158015611fde57600080fd5b505af1158015611ff2573d6000803e3d6000fd5b505050506040513d602081101561200857600080fd5b505161205b576040805162461bcd60e51b815260206004820152601960248201527f636f6d6d6973696f6e207472616e73666572206661696c656400000000000000604482015290519081900360640190fd5b5050505050505b604080516323b872dd60e01b81526001600160a01b0389811660048301528681166024830152604482018490529151918416916323b872dd916064808201926020929091908290030181600087803b1580156120bd57600080fd5b505af11580156120d1573d6000803e3d6000fd5b505050506040513d60208110156120e757600080fd5b5051611a4c576040805162461bcd60e51b815260206004820152601760248201527f7061796d656e74207472616e73666572206661696c6564000000000000000000604482015290519081900360640190fd5b600082821115612191576040805162461bcd60e51b815260206004820152600860248201527f756e6465666c6f77000000000000000000000000000000000000000000000000604482015290519081900360640190fd5b5090039056fe6f6e6c792061646d696e2063616e207365747570206d6574615472616e73616374696f6e50726f636573736f7273a26469706673582212200ff38c5741c66b2a22a9a9ee2abe0f55626323082b6b4443921fd3b25484584a64736f6c63430006050033",
  "devdoc": {
    "methods": {
      "buyLandWithSand(address,address,address,uint256,uint256,uint256,uint256,uint256,bytes32,uint256[],bytes32[],bytes)": {
        "params": {
          "buyer": "address that perform the payment",
          "priceInSand": "price in SAND to purchase that Land",
          "proof": "merkleProof for that particular Land",
          "reserved": "the reserved address (if any)",
          "size": "size of the pack of Land to purchase",
          "to": "address that will own the purchased Land",
          "x": "x coordinate of the Land",
          "y": "y coordinate of the Land"
        }
      },
      "changeAdmin(address)": {
        "details": "change the administrator to be `newAdmin`.",
        "params": {
          "newAdmin": "address of the new administrator."
        }
      },
      "getAdmin()": {
        "details": "gives the current administrator of this contract.",
        "returns": {
          "_0": "the current administrator of this contract."
        }
      },
      "getSigningWallet()": {
        "details": "signing wallet authorized for referral",
        "returns": {
          "_0": "the address of the signing wallet"
        }
      },
      "isMetaTransactionProcessor(address)": {
        "details": "check whether address `who` is given meta-transaction execution rights.",
        "params": {
          "who": "The address to query."
        },
        "returns": {
          "_0": "whether the address has meta-transaction execution rights."
        }
      },
      "isReferralValid(bytes,address,address,uint256,uint256)": {
        "params": {
          "commissionRate": "The commissionRate of the referral",
          "expiryTime": "The expiry time of the referral",
          "referee": "The address of the referee",
          "referrer": "The address of the referrer",
          "signature": "The signature to check (signed referral)"
        },
        "returns": {
          "_0": "True if the referral is valid"
        }
      },
      "setMetaTransactionProcessor(address,bool)": {
        "details": "Enable or disable the ability of `metaTransactionProcessor` to perform meta-tx (metaTransactionProcessor rights).",
        "params": {
          "enabled": "set whether the metaTransactionProcessor is enabled or disabled.",
          "metaTransactionProcessor": "address that will be given/removed metaTransactionProcessor rights."
        }
      },
      "setReceivingWallet(address)": {
        "params": {
          "newWallet": "address of the new receiving wallet"
        }
      },
      "updateMaxCommissionRate(uint256)": {
        "details": "Update the maximum commission rate",
        "params": {
          "newMaxCommissionRate": "The new maximum commission rate"
        }
      },
      "updateSigningWallet(address)": {
        "details": "Update the signing wallet",
        "params": {
          "newSigningWallet": "The new address of the signing wallet"
        }
      },
      "withdrawAssets(address,uint256[],uint256[])": {
        "params": {
          "assetIds": "the assetIds to be transferred",
          "to": "intended recipient of the asset tokens",
          "values": "the quantities of the assetIds to be transferred"
        }
      }
    },
    "title": "Estate Sale contract with referral"
  },
  "userdoc": {
    "methods": {
      "buyLandWithSand(address,address,address,uint256,uint256,uint256,uint256,uint256,bytes32,uint256[],bytes32[],bytes)": {
        "notice": "buy Land with SAND using the merkle proof associated with it"
      },
      "getExpiryTime()": {
        "notice": "Gets the expiry time for the current sale"
      },
      "getMaxCommisionRate()": {
        "notice": "the max commision rate"
      },
      "getMerkleRoot()": {
        "notice": "Gets the Merkle root associated with the current sale"
      },
      "isReferralValid(bytes,address,address,uint256,uint256)": {
        "notice": "Check if a referral is valid"
      },
      "setReceivingWallet(address)": {
        "notice": "set the wallet receiving the proceeds"
      },
      "withdrawAssets(address,uint256[],uint256[])": {
        "notice": "enable Admin to withdraw remaining assets from EstateSaleWithFee contract"
      }
    },
    "notice": "This contract manages the sale of our lands as Estates"
  },
  "storageLayout": {
    "storage": [
      {
        "astId": 15353,
        "contract": "src/solc_0.6/EstateSale/EstateSaleWithFee.sol:EstateSaleWithFee",
        "label": "_admin",
        "offset": 0,
        "slot": "0",
        "type": "t_address"
      },
      {
        "astId": 15415,
        "contract": "src/solc_0.6/EstateSale/EstateSaleWithFee.sol:EstateSaleWithFee",
        "label": "_metaTransactionContracts",
        "offset": 0,
        "slot": "1",
        "type": "t_mapping(t_address,t_bool)"
      },
      {
        "astId": 13531,
        "contract": "src/solc_0.6/EstateSale/EstateSaleWithFee.sol:EstateSaleWithFee",
        "label": "_signingWallet",
        "offset": 0,
        "slot": "2",
        "type": "t_address"
      },
      {
        "astId": 13533,
        "contract": "src/solc_0.6/EstateSale/EstateSaleWithFee.sol:EstateSaleWithFee",
        "label": "_maxCommissionRate",
        "offset": 0,
        "slot": "3",
        "type": "t_uint256"
      },
      {
        "astId": 13537,
        "contract": "src/solc_0.6/EstateSale/EstateSaleWithFee.sol:EstateSaleWithFee",
        "label": "_previousSigningWallets",
        "offset": 0,
        "slot": "4",
        "type": "t_mapping(t_address,t_uint256)"
      },
      {
        "astId": 13546,
        "contract": "src/solc_0.6/EstateSale/EstateSaleWithFee.sol:EstateSaleWithFee",
        "label": "_previousSigningDelay",
        "offset": 0,
        "slot": "5",
        "type": "t_uint256"
      },
      {
        "astId": 9918,
        "contract": "src/solc_0.6/EstateSale/EstateSaleWithFee.sol:EstateSaleWithFee",
        "label": "_wallet",
        "offset": 0,
        "slot": "6",
        "type": "t_address_payable"
      },
      {
        "astId": 9928,
        "contract": "src/solc_0.6/EstateSale/EstateSaleWithFee.sol:EstateSaleWithFee",
        "label": "_multiplier",
        "offset": 0,
        "slot": "7",
        "type": "t_uint256"
      }
    ],
    "types": {
      "t_address": {
        "encoding": "inplace",
        "label": "address",
        "numberOfBytes": "20"
      },
      "t_address_payable": {
        "encoding": "inplace",
        "label": "address payable",
        "numberOfBytes": "20"
      },
      "t_bool": {
        "encoding": "inplace",
        "label": "bool",
        "numberOfBytes": "1"
      },
      "t_mapping(t_address,t_bool)": {
        "encoding": "mapping",
        "key": "t_address",
        "label": "mapping(address => bool)",
        "numberOfBytes": "32",
        "value": "t_bool"
      },
      "t_mapping(t_address,t_uint256)": {
        "encoding": "mapping",
        "key": "t_address",
        "label": "mapping(address => uint256)",
        "numberOfBytes": "32",
        "value": "t_uint256"
      },
      "t_uint256": {
        "encoding": "inplace",
        "label": "uint256",
        "numberOfBytes": "32"
      }
    }
  }
}