{
  "address": "0x83b541c5b52f9778E1DA8106DE1dc38ED1aB1ab6",
  "abi": [
    {
      "inputs": [
        {
          "internalType": "address",
          "name": "landAddress",
          "type": "address"
        },
        {
          "internalType": "address",
          "name": "sandContractAddress",
          "type": "address"
        },
        {
          "internalType": "address",
          "name": "initialMetaTx",
          "type": "address"
        },
        {
          "internalType": "address",
          "name": "admin",
          "type": "address"
        },
        {
          "internalType": "address payable",
          "name": "initialWalletAddress",
          "type": "address"
        },
        {
          "internalType": "bytes32",
          "name": "merkleRoot",
          "type": "bytes32"
        },
        {
          "internalType": "uint256",
          "name": "expiryTime",
          "type": "uint256"
        },
        {
          "internalType": "address",
          "name": "initialSigningWallet",
          "type": "address"
        },
        {
          "internalType": "uint256",
          "name": "initialMaxCommissionRate",
          "type": "uint256"
        },
        {
          "internalType": "address",
          "name": "estate",
          "type": "address"
        },
        {
          "internalType": "address",
          "name": "asset",
          "type": "address"
        },
        {
          "internalType": "address",
          "name": "feeDistributor",
          "type": "address"
        }
      ],
      "stateMutability": "nonpayable",
      "type": "constructor"
    },
    {
      "anonymous": false,
      "inputs": [
        {
          "indexed": false,
          "internalType": "address",
          "name": "oldAdmin",
          "type": "address"
        },
        {
          "indexed": false,
          "internalType": "address",
          "name": "newAdmin",
          "type": "address"
        }
      ],
      "name": "AdminChanged",
      "type": "event"
    },
    {
      "anonymous": false,
      "inputs": [
        {
          "indexed": true,
          "internalType": "address",
          "name": "buyer",
          "type": "address"
        },
        {
          "indexed": true,
          "internalType": "address",
          "name": "to",
          "type": "address"
        },
        {
          "indexed": true,
          "internalType": "uint256",
          "name": "topCornerId",
          "type": "uint256"
        },
        {
          "indexed": false,
          "internalType": "uint256",
          "name": "size",
          "type": "uint256"
        },
        {
          "indexed": false,
          "internalType": "uint256",
          "name": "price",
          "type": "uint256"
        },
        {
          "indexed": false,
          "internalType": "address",
          "name": "token",
          "type": "address"
        },
        {
          "indexed": false,
          "internalType": "uint256",
          "name": "amountPaid",
          "type": "uint256"
        }
      ],
      "name": "LandQuadPurchased",
      "type": "event"
    },
    {
      "anonymous": false,
      "inputs": [
        {
          "indexed": false,
          "internalType": "address",
          "name": "metaTransactionProcessor",
          "type": "address"
        },
        {
          "indexed": false,
          "internalType": "bool",
          "name": "enabled",
          "type": "bool"
        }
      ],
      "name": "MetaTransactionProcessor",
      "type": "event"
    },
    {
      "anonymous": false,
      "inputs": [
        {
          "indexed": true,
          "internalType": "address",
          "name": "referrer",
          "type": "address"
        },
        {
          "indexed": true,
          "internalType": "address",
          "name": "referee",
          "type": "address"
        },
        {
          "indexed": true,
          "internalType": "address",
          "name": "token",
          "type": "address"
        },
        {
          "indexed": false,
          "internalType": "uint256",
          "name": "amount",
          "type": "uint256"
        },
        {
          "indexed": false,
          "internalType": "uint256",
          "name": "commission",
          "type": "uint256"
        },
        {
          "indexed": false,
          "internalType": "uint256",
          "name": "commissionRate",
          "type": "uint256"
        }
      ],
      "name": "ReferralUsed",
      "type": "event"
    },
    {
      "inputs": [
        {
          "internalType": "address",
          "name": "buyer",
          "type": "address"
        },
        {
          "internalType": "address",
          "name": "to",
          "type": "address"
        },
        {
          "internalType": "address",
          "name": "reserved",
          "type": "address"
        },
        {
          "internalType": "uint256",
          "name": "x",
          "type": "uint256"
        },
        {
          "internalType": "uint256",
          "name": "y",
          "type": "uint256"
        },
        {
          "internalType": "uint256",
          "name": "size",
          "type": "uint256"
        },
        {
          "internalType": "uint256",
          "name": "priceInSand",
          "type": "uint256"
        },
        {
          "internalType": "uint256",
          "name": "adjustedPriceInSand",
          "type": "uint256"
        },
        {
          "internalType": "bytes32",
          "name": "salt",
          "type": "bytes32"
        },
        {
          "internalType": "uint256[]",
          "name": "assetIds",
          "type": "uint256[]"
        },
        {
          "internalType": "bytes32[]",
          "name": "proof",
          "type": "bytes32[]"
        },
        {
          "internalType": "bytes",
          "name": "referral",
          "type": "bytes"
        }
      ],
      "name": "buyLandWithSand",
      "outputs": [],
      "stateMutability": "nonpayable",
      "type": "function"
    },
    {
      "inputs": [
        {
          "internalType": "address",
          "name": "newAdmin",
          "type": "address"
        }
      ],
      "name": "changeAdmin",
      "outputs": [],
      "stateMutability": "nonpayable",
      "type": "function"
    },
    {
      "inputs": [
        {
          "internalType": "bytes",
          "name": "referral",
          "type": "bytes"
        }
      ],
      "name": "decodeReferral",
      "outputs": [
        {
          "internalType": "bytes",
          "name": "",
          "type": "bytes"
        },
        {
          "internalType": "address",
          "name": "",
          "type": "address"
        },
        {
          "internalType": "address",
          "name": "",
          "type": "address"
        },
        {
          "internalType": "uint256",
          "name": "",
          "type": "uint256"
        },
        {
          "internalType": "uint256",
          "name": "",
          "type": "uint256"
        }
      ],
      "stateMutability": "pure",
      "type": "function"
    },
    {
      "inputs": [],
      "name": "getAdmin",
      "outputs": [
        {
          "internalType": "address",
          "name": "",
          "type": "address"
        }
      ],
      "stateMutability": "view",
      "type": "function"
    },
    {
      "inputs": [],
      "name": "getExpiryTime",
      "outputs": [
        {
          "internalType": "uint256",
          "name": "",
          "type": "uint256"
        }
      ],
      "stateMutability": "view",
      "type": "function"
    },
    {
      "inputs": [],
      "name": "getMaxCommisionRate",
      "outputs": [
        {
          "internalType": "uint256",
          "name": "",
          "type": "uint256"
        }
      ],
      "stateMutability": "view",
      "type": "function"
    },
    {
      "inputs": [],
      "name": "getMerkleRoot",
      "outputs": [
        {
          "internalType": "bytes32",
          "name": "",
          "type": "bytes32"
        }
      ],
      "stateMutability": "view",
      "type": "function"
    },
    {
      "inputs": [],
      "name": "getSandMultiplier",
      "outputs": [
        {
          "internalType": "uint256",
          "name": "",
          "type": "uint256"
        }
      ],
      "stateMutability": "view",
      "type": "function"
    },
    {
      "inputs": [],
      "name": "getSigningWallet",
      "outputs": [
        {
          "internalType": "address",
          "name": "",
          "type": "address"
        }
      ],
      "stateMutability": "view",
      "type": "function"
    },
    {
      "inputs": [
        {
          "internalType": "address",
          "name": "who",
          "type": "address"
        }
      ],
      "name": "isMetaTransactionProcessor",
      "outputs": [
        {
          "internalType": "bool",
          "name": "",
          "type": "bool"
        }
      ],
      "stateMutability": "view",
      "type": "function"
    },
    {
      "inputs": [
        {
          "internalType": "bytes",
          "name": "signature",
          "type": "bytes"
        },
        {
          "internalType": "address",
          "name": "referrer",
          "type": "address"
        },
        {
          "internalType": "address",
          "name": "referee",
          "type": "address"
        },
        {
          "internalType": "uint256",
          "name": "expiryTime",
          "type": "uint256"
        },
        {
          "internalType": "uint256",
          "name": "commissionRate",
          "type": "uint256"
        }
      ],
      "name": "isReferralValid",
      "outputs": [
        {
          "internalType": "bool",
          "name": "",
          "type": "bool"
        }
      ],
      "stateMutability": "view",
      "type": "function"
    },
    {
      "inputs": [
        {
          "internalType": "address",
          "name": "",
          "type": "address"
        },
        {
          "internalType": "address",
          "name": "",
          "type": "address"
        },
        {
          "internalType": "uint256[]",
          "name": "",
          "type": "uint256[]"
        },
        {
          "internalType": "uint256[]",
          "name": "",
          "type": "uint256[]"
        },
        {
          "internalType": "bytes",
          "name": "",
          "type": "bytes"
        }
      ],
      "name": "onERC1155BatchReceived",
      "outputs": [
        {
          "internalType": "bytes4",
          "name": "",
          "type": "bytes4"
        }
      ],
      "stateMutability": "pure",
      "type": "function"
    },
    {
      "inputs": [
        {
          "internalType": "address",
          "name": "",
          "type": "address"
        },
        {
          "internalType": "address",
          "name": "",
          "type": "address"
        },
        {
          "internalType": "uint256",
          "name": "",
          "type": "uint256"
        },
        {
          "internalType": "uint256",
          "name": "",
          "type": "uint256"
        },
        {
          "internalType": "bytes",
          "name": "",
          "type": "bytes"
        }
      ],
      "name": "onERC1155Received",
      "outputs": [
        {
          "internalType": "bytes4",
          "name": "",
          "type": "bytes4"
        }
      ],
      "stateMutability": "pure",
      "type": "function"
    },
    {
      "inputs": [
        {
          "internalType": "uint256",
          "name": "newMultiplier",
          "type": "uint256"
        }
      ],
      "name": "rebalanceSand",
      "outputs": [],
      "stateMutability": "nonpayable",
      "type": "function"
    },
    {
      "inputs": [
        {
          "internalType": "address",
          "name": "metaTransactionProcessor",
          "type": "address"
        },
        {
          "internalType": "bool",
          "name": "enabled",
          "type": "bool"
        }
      ],
      "name": "setMetaTransactionProcessor",
      "outputs": [],
      "stateMutability": "nonpayable",
      "type": "function"
    },
    {
      "inputs": [
        {
          "internalType": "address payable",
          "name": "newWallet",
          "type": "address"
        }
      ],
      "name": "setReceivingWallet",
      "outputs": [],
      "stateMutability": "nonpayable",
      "type": "function"
    },
    {
      "inputs": [
        {
          "internalType": "uint256",
          "name": "newMaxCommissionRate",
          "type": "uint256"
        }
      ],
      "name": "updateMaxCommissionRate",
      "outputs": [],
      "stateMutability": "nonpayable",
      "type": "function"
    },
    {
      "inputs": [
        {
          "internalType": "address",
          "name": "newSigningWallet",
          "type": "address"
        }
      ],
      "name": "updateSigningWallet",
      "outputs": [],
      "stateMutability": "nonpayable",
      "type": "function"
    },
    {
      "inputs": [
        {
          "internalType": "address",
          "name": "to",
          "type": "address"
        },
        {
          "internalType": "uint256[]",
          "name": "assetIds",
          "type": "uint256[]"
        },
        {
          "internalType": "uint256[]",
          "name": "values",
          "type": "uint256[]"
        }
      ],
      "name": "withdrawAssets",
      "outputs": [],
      "stateMutability": "nonpayable",
      "type": "function"
    }
  ],
  "transactionHash": "0x2f117f77df58147d9a4f1ea950262b31f616bc78ce947d575f80c0d186e3f88f",
  "args": [
    "0x50f5474724e0Ee42D9a4e711ccFB275809Fd6d4a",
    "0x3845badAde8e6dFF049820680d1F14bD3903a5d0",
    "0x3845badAde8e6dFF049820680d1F14bD3903a5d0",
    "0xEAA0993E1d21c2103e4f172a20D29371FbAF6D06",
    "0x4489590a116618B506F0EfE885432F6A8ED998E9",
    "0x26494f7e44895eca0ae498611aa325e7bf73346248162068c6d9abbdbcf711a4",
    1629378000,
    "0x3044719d139F866a44c988823513eCB93060bF1b",
    2000,
    "0x0000000000000000000000000000000000000000",
    "0xa342f5D851E866E18ff98F351f2c6637f4478dB5",
    "0x0EB04462D69B1D267d269377E34f60b9De1c8510"
  ],
  "linkedData": [
    {
      "x": 0,
      "y": 357,
      "size": 1,
      "price": "1011000000000000000000",
      "reserved": "",
      "salt": "0x36b5f2b2d23979009e4914cb673a5be529857195cc7b443aafd325b7c89f0d21",
      "assetIds": []
    },
    {
      "x": 0,
      "y": 358,
      "size": 1,
      "price": "1011000000000000000000",
      "reserved": "",
      "salt": "0xbc9c97911ed98f17b1ea6aa11b19c82bb415d7a3e5493b4835f62f516ebf26c9",
      "assetIds": []
    },
    {
      "x": 0,
      "y": 359,
      "size": 1,
      "price": "1011000000000000000000",
      "reserved": "",
      "salt": "0x603be5d7cf4b53b7273c3b1d722a844cf9b6d94e1ceb4ba9622e81d8e8a3709d",
      "assetIds": []
    },
    {
      "x": 0,
      "y": 372,
      "size": 1,
      "price": "1011000000000000000000",
      "reserved": "",
      "salt": "0xfedafb0d34509bd6838dfef2e35d36969865eede973cb649192f09840f2e3044",
      "assetIds": []
    },
    {
      "x": 0,
      "y": 373,
      "size": 1,
      "price": "1011000000000000000000",
      "reserved": "",
      "salt": "0x69111cf7b4e63e8b4e91a8a1c6f81e80fef94647fce6a7bcdff7fd86341b9144",
      "assetIds": []
    },
    {
      "x": 0,
      "y": 374,
      "size": 1,
      "price": "1011000000000000000000",
      "reserved": "",
      "salt": "0xf7caf5d495d2fd86fe6930121914d0995ff6ffc91c6d6b0d9afcf4f8cea0585b",
      "assetIds": []
    },
    {
      "x": 0,
      "y": 375,
      "size": 1,
      "price": "1011000000000000000000",
      "reserved": "",
      "salt": "0xdb580779c722646a854188b3e664e7ca9d45aad1d8f2296266d942c106115ceb",
      "assetIds": []
    },
    {
      "x": 0,
      "y": 376,
      "size": 1,
      "price": "1011000000000000000000",
      "reserved": "",
      "salt": "0xbfbb0965e1622f46dcf93aad90d1f9412207bbeebf93f728e87c71fe736591d7",
      "assetIds": []
    },
    {
      "x": 0,
      "y": 377,
      "size": 1,
      "price": "1011000000000000000000",
      "reserved": "",
      "salt": "0xa5f354ee0e216bb7c704d936437dd5d42842afff418e89fb76568c8da295448c",
      "assetIds": []
    },
    {
      "x": 0,
      "y": 378,
      "size": 1,
      "price": "1011000000000000000000",
      "reserved": "",
      "salt": "0xe41d0303b3b1b6400e8c797ff06bf338aec239b5b232b175827ae4de75ea5cdd",
      "assetIds": []
    },
    {
      "x": 0,
      "y": 379,
      "size": 1,
      "price": "1011000000000000000000",
      "reserved": "",
      "salt": "0x53ef521cc3e6a0b8d7115e69c97545ead29899336196ba4d90239258ec6ba901",
      "assetIds": []
    },
    {
      "x": 0,
      "y": 380,
      "size": 1,
      "price": "1011000000000000000000",
      "reserved": "",
      "salt": "0x13ed421454bb3a6398c8b9142278bd360e9e2245cfd3925b9e292a4496a1a756",
      "assetIds": []
    },
    {
      "x": 0,
      "y": 381,
      "size": 1,
      "price": "4683000000000000000000",
      "reserved": "",
      "salt": "0x1e16ca925381bda0058b24ebf1024d27f8d1cdc65272573c611ea7e165babb17",
      "assetIds": [
        "55464657044963196816950587289035428064568320970692304673817341489687891546112",
        "55464657044963196816950587289035428064568320970692304673817341489687891546113",
        "55464657044963196816950587289035428064568320970692304673817341489687899934720",
        "55464657044963196816950587289035428064568320970692304673817341489687899934721",
        "55464657044963196816950587289035428064568320970692304673817341489687908321280"
      ]
    },
    {
      "x": 0,
      "y": 382,
      "size": 1,
      "price": "4683000000000000000000",
      "reserved": "",
      "salt": "0xfc957f1c8f5b41d1227f606f34a01bb05323be0f42cb7b1e73a394141b307d1d",
      "assetIds": [
        "55464657044963196816950587289035428064568320970692304673817341489687891546112",
        "55464657044963196816950587289035428064568320970692304673817341489687891546113",
        "55464657044963196816950587289035428064568320970692304673817341489687899934720",
        "55464657044963196816950587289035428064568320970692304673817341489687899934721",
        "55464657044963196816950587289035428064568320970692304673817341489687908321280"
      ]
    },
    {
      "x": 0,
      "y": 383,
      "size": 1,
      "price": "4683000000000000000000",
      "reserved": "",
      "salt": "0x58c3a32473cb686138eaf939883fe97857f04765c37941c1045965389da7ab25",
      "assetIds": [
        "55464657044963196816950587289035428064568320970692304673817341489687891546112",
        "55464657044963196816950587289035428064568320970692304673817341489687891546113",
        "55464657044963196816950587289035428064568320970692304673817341489687899934720",
        "55464657044963196816950587289035428064568320970692304673817341489687899934721",
        "55464657044963196816950587289035428064568320970692304673817341489687908321280"
      ]
    },
    {
      "x": 0,
      "y": 390,
      "size": 1,
      "price": "4683000000000000000000",
      "reserved": "",
      "salt": "0x6f77940203b4a2efb45ca19431b7de12f2e208df3ce81ab8408d50a9ee798cde",
      "assetIds": [
        "55464657044963196816950587289035428064568320970692304673817341489687891546112",
        "55464657044963196816950587289035428064568320970692304673817341489687891546113",
        "55464657044963196816950587289035428064568320970692304673817341489687899934720",
        "55464657044963196816950587289035428064568320970692304673817341489687899934721",
        "55464657044963196816950587289035428064568320970692304673817341489687908321280"
      ]
    },
    {
      "x": 0,
      "y": 391,
      "size": 1,
      "price": "1011000000000000000000",
      "reserved": "0x7a9fe22691c811ea339d9b73150e6911a5343dca",
      "salt": "0x660ed3d0c761b328506a9f6e831e3bed6f715ebcecf33b107ea46812a2e4ab36",
      "assetIds": []
    },
    {
      "x": 0,
      "y": 392,
      "size": 1,
      "price": "4683000000000000000000",
      "reserved": "",
      "salt": "0xee80d6d9c51d7f4ccb4158792d695f800ce9d219e24f12d6b3a9d6f05d58a772",
      "assetIds": [
        "55464657044963196816950587289035428064568320970692304673817341489687891546112",
        "55464657044963196816950587289035428064568320970692304673817341489687891546113",
        "55464657044963196816950587289035428064568320970692304673817341489687899934720",
        "55464657044963196816950587289035428064568320970692304673817341489687899934721",
        "55464657044963196816950587289035428064568320970692304673817341489687908321280"
      ]
    },
    {
      "x": 0,
      "y": 393,
      "size": 1,
      "price": "1011000000000000000000",
      "reserved": "",
      "salt": "0xf1667a74aa2d6ac9f79f09377f4d0f14af529b2c6f0f52954673f7fcff2c1fe3",
      "assetIds": []
    },
    {
      "x": 0,
      "y": 394,
      "size": 1,
      "price": "1011000000000000000000",
      "reserved": "",
      "salt": "0x1e134127d314003637df03fc05da627a74fcf9a65d869a8c1f1e98823a68f872",
      "assetIds": []
    },
    {
      "x": 0,
      "y": 395,
      "size": 1,
      "price": "1011000000000000000000",
      "reserved": "",
      "salt": "0x4e291927e1300d1ae4431e78c113b4ecd8dda285b59a62d87e99d53a8cca6139",
      "assetIds": []
    },
    {
      "x": 1,
      "y": 357,
      "size": 1,
      "price": "1011000000000000000000",
      "reserved": "",
      "salt": "0x1a735341d32c801cdbbd9e68bc14153d24c5b85575f1c8574b92aef97c36d2db",
      "assetIds": []
    },
    {
      "x": 1,
      "y": 358,
      "size": 1,
      "price": "1011000000000000000000",
      "reserved": "",
      "salt": "0x625f50600e3fa3b69b8415058574ce4a9da8fc78ee76cb6961cc1a3ef650ab53",
      "assetIds": []
    },
    {
      "x": 1,
      "y": 359,
      "size": 1,
      "price": "1011000000000000000000",
      "reserved": "",
      "salt": "0x75673a014901f6b559cc4d4f2e97a3afe9c3df240b375fe3ee226b3900254d18",
      "assetIds": []
    },
    {
      "x": 1,
      "y": 372,
      "size": 1,
      "price": "1011000000000000000000",
      "reserved": "",
      "salt": "0x8bcbc1cb134257c99ee79f8d273284cb03a4a189894abdb67ee62eb97575c1a8",
      "assetIds": []
    },
    {
      "x": 1,
      "y": 373,
      "size": 1,
      "price": "1011000000000000000000",
      "reserved": "0x7a9fe22691c811ea339d9b73150e6911a5343dca",
      "salt": "0x1f4354b1ce03178cdcd07b5db333fa44bf847b4e8b371cc2deae119f053e6721",
      "assetIds": []
    },
    {
      "x": 1,
      "y": 374,
      "size": 1,
      "price": "1011000000000000000000",
      "reserved": "",
      "salt": "0x029f844d3d7a6dec70e815ff4683f74d0c6b96db4e8d926e3c9e4753e285ed2b",
      "assetIds": []
    },
    {
      "x": 1,
      "y": 375,
      "size": 1,
      "price": "1011000000000000000000",
      "reserved": "",
      "salt": "0xb095daf6f93f705f051fe78cdcd394c311c3b3d61b24ad2bafa200b2c6716ad4",
      "assetIds": []
    },
    {
      "x": 1,
      "y": 376,
      "size": 1,
      "price": "1011000000000000000000",
      "reserved": "",
      "salt": "0x4cdb42e8f667a20315e41960f5da1e3b436841e7c053527f2475db76f6237ec6",
      "assetIds": []
    },
    {
      "x": 1,
      "y": 377,
      "size": 1,
      "price": "1011000000000000000000",
      "reserved": "",
      "salt": "0x4376f03ad9d62d3dd7fd6deff1adb4aba4daba9a617246a36b36d7b777c7dfad",
      "assetIds": []
    },
    {
      "x": 1,
      "y": 378,
      "size": 1,
      "price": "1011000000000000000000",
      "reserved": "0x7a9fe22691c811ea339d9b73150e6911a5343dca",
      "salt": "0xd0c6c5f256fa854cb2321a084558bd2d2555fd0d7134c424b04af3e2ec16f907",
      "assetIds": []
    },
    {
      "x": 1,
      "y": 379,
      "size": 1,
      "price": "1011000000000000000000",
      "reserved": "",
      "salt": "0x907d55861a5164d0143d19ad84d6e179f7baec686fd431dc522f746aa4febe09",
      "assetIds": []
    },
    {
      "x": 1,
      "y": 380,
      "size": 1,
      "price": "1011000000000000000000",
      "reserved": "",
      "salt": "0x9b9c36fea4b13bf18a132b0feb17ea41519f349ec165173394c77d41ac9f9473",
      "assetIds": []
    },
    {
      "x": 1,
      "y": 381,
      "size": 1,
      "price": "4683000000000000000000",
      "reserved": "",
      "salt": "0x8058dde9b8758d2a4c11458d91b5ba0fffbe109e57243bc5a216982f140ad2ba",
      "assetIds": [
        "55464657044963196816950587289035428064568320970692304673817341489687891546112",
        "55464657044963196816950587289035428064568320970692304673817341489687891546113",
        "55464657044963196816950587289035428064568320970692304673817341489687899934720",
        "55464657044963196816950587289035428064568320970692304673817341489687899934721",
        "55464657044963196816950587289035428064568320970692304673817341489687908321280"
      ]
    },
    {
      "x": 1,
      "y": 382,
      "size": 1,
      "price": "4683000000000000000000",
      "reserved": "",
      "salt": "0x59978c8c21b0d7caa54a9672465820d519955202428e2de48bfdb3758f6c23bc",
      "assetIds": [
        "55464657044963196816950587289035428064568320970692304673817341489687891546112",
        "55464657044963196816950587289035428064568320970692304673817341489687891546113",
        "55464657044963196816950587289035428064568320970692304673817341489687899934720",
        "55464657044963196816950587289035428064568320970692304673817341489687899934721",
        "55464657044963196816950587289035428064568320970692304673817341489687908321280"
      ]
    },
    {
      "x": 1,
      "y": 383,
      "size": 1,
      "price": "4683000000000000000000",
      "reserved": "",
      "salt": "0x27b3b36f865f65e5ea692c6d12df49fab12a61f64a85d3cbafaedb36697b01f9",
      "assetIds": [
        "55464657044963196816950587289035428064568320970692304673817341489687891546112",
        "55464657044963196816950587289035428064568320970692304673817341489687891546113",
        "55464657044963196816950587289035428064568320970692304673817341489687899934720",
        "55464657044963196816950587289035428064568320970692304673817341489687899934721",
        "55464657044963196816950587289035428064568320970692304673817341489687908321280"
      ]
    },
    {
      "x": 1,
      "y": 390,
      "size": 1,
      "price": "4683000000000000000000",
      "reserved": "",
      "salt": "0xeae107747ab633cfbd6e6f3295062f6baf38ef13c1a105459cc2300804247d87",
      "assetIds": [
        "55464657044963196816950587289035428064568320970692304673817341489687891546112",
        "55464657044963196816950587289035428064568320970692304673817341489687891546113",
        "55464657044963196816950587289035428064568320970692304673817341489687899934720",
        "55464657044963196816950587289035428064568320970692304673817341489687899934721",
        "55464657044963196816950587289035428064568320970692304673817341489687908321280"
      ]
    },
    {
      "x": 1,
      "y": 391,
      "size": 1,
      "price": "1011000000000000000000",
      "reserved": "0x7a9fe22691c811ea339d9b73150e6911a5343dca",
      "salt": "0x1906b3b7960906c1fa4c3350628a48eb59da48aa34c1845e7d72a378c747cb18",
      "assetIds": []
    },
    {
      "x": 1,
      "y": 392,
      "size": 1,
      "price": "4683000000000000000000",
      "reserved": "",
      "salt": "0x0fb23c15ba6fbbe4585c726ce380305362ed191c58e5d8828796e1067e0aeee7",
      "assetIds": [
        "55464657044963196816950587289035428064568320970692304673817341489687891546112",
        "55464657044963196816950587289035428064568320970692304673817341489687891546113",
        "55464657044963196816950587289035428064568320970692304673817341489687899934720",
        "55464657044963196816950587289035428064568320970692304673817341489687899934721",
        "55464657044963196816950587289035428064568320970692304673817341489687908321280"
      ]
    },
    {
      "x": 1,
      "y": 393,
      "size": 1,
      "price": "1011000000000000000000",
      "reserved": "",
      "salt": "0x48de3a389e4ef28ea241e208e582fa2903ea632e906b6595689afcffa67095f1",
      "assetIds": []
    },
    {
      "x": 1,
      "y": 394,
      "size": 1,
      "price": "1011000000000000000000",
      "reserved": "0x7a9fe22691c811ea339d9b73150e6911a5343dca",
      "salt": "0xf916fdd14892e99c697b6b788a6692489ba75850184e913a1dcd1ed975d4c251",
      "assetIds": []
    },
    {
      "x": 1,
      "y": 395,
      "size": 1,
      "price": "1011000000000000000000",
      "reserved": "",
      "salt": "0xd3ddd57c90bacdab3ed9afd6c352e5024da8cb3481639248bbe0e159ab77cd18",
      "assetIds": []
    },
    {
      "x": 2,
      "y": 357,
      "size": 1,
      "price": "1011000000000000000000",
      "reserved": "0x7a9fe22691c811ea339d9b73150e6911a5343dca",
      "salt": "0x6b3d9eef03fa0ca44ccd3688ce7eed3317bfacba8b93984e5d2cc248b1d723c8",
      "assetIds": []
    },
    {
      "x": 2,
      "y": 358,
      "size": 1,
      "price": "1011000000000000000000",
      "reserved": "",
      "salt": "0xb9a146741ebdf3386d3a747f2e25007e95c141de77b57e1cb25c2bde838af0ee",
      "assetIds": []
    },
    {
      "x": 2,
      "y": 359,
      "size": 1,
      "price": "1011000000000000000000",
      "reserved": "",
      "salt": "0x60c5a0968ea7d3c3b14b4f7a9457a481d669ce86b169e8db39c3c4273dc18c3f",
      "assetIds": []
    },
    {
      "x": 2,
      "y": 372,
      "size": 1,
      "price": "1011000000000000000000",
      "reserved": "",
      "salt": "0x6397467ce0a3508dda872b9da31c0d8e6065afd292cd8d13a4d4c815422ab8e0",
      "assetIds": []
    },
    {
      "x": 2,
      "y": 373,
      "size": 1,
      "price": "1011000000000000000000",
      "reserved": "",
      "salt": "0x611497c600e1f657fd62b8df2780f1cf7bdb63db144b6382a4f29362d9da2837",
      "assetIds": []
    },
    {
      "x": 2,
      "y": 374,
      "size": 1,
      "price": "1011000000000000000000",
      "reserved": "",
      "salt": "0x5119141a531e273a70df739d4737914f504bc9fad99d9cc7bb9e4e4076a8b466",
      "assetIds": []
    },
    {
      "x": 2,
      "y": 375,
      "size": 1,
      "price": "1011000000000000000000",
      "reserved": "",
      "salt": "0xac343b13bf9f63bf743eb247924e79adfa140ff5de2e180dede2cca88413f295",
      "assetIds": []
    },
    {
      "x": 2,
      "y": 376,
      "size": 1,
      "price": "1011000000000000000000",
      "reserved": "",
      "salt": "0x88b891ca814bb2bd068fce32ae0e4ebec8cdaa18a5d12e566edae1274c1a528b",
      "assetIds": []
    },
    {
      "x": 2,
      "y": 377,
      "size": 1,
      "price": "1011000000000000000000",
      "reserved": "",
      "salt": "0x74902c36b0941a5f460ffebf2495a083310ac4dfed32f8e7b53d1023e0af6c49",
      "assetIds": []
    },
    {
      "x": 2,
      "y": 378,
      "size": 1,
      "price": "1011000000000000000000",
      "reserved": "",
      "salt": "0xc3eae0b0a4732472b2f0b1387b615ed17027c025ebca5a366b6bcd069c2190e9",
      "assetIds": []
    },
    {
      "x": 2,
      "y": 379,
      "size": 1,
      "price": "1011000000000000000000",
      "reserved": "",
      "salt": "0x664b6c92a0524968ea3a78bc78a2603fd10379854dab84f5f68392394fe1e047",
      "assetIds": []
    },
    {
      "x": 2,
      "y": 380,
      "size": 1,
      "price": "1011000000000000000000",
      "reserved": "",
      "salt": "0xa9590d65cb0a4878d1c13f4748e02d66796a69f7a6b9566c5239e7e37736abab",
      "assetIds": []
    },
    {
      "x": 2,
      "y": 381,
      "size": 1,
      "price": "1011000000000000000000",
      "reserved": "0x7a9fe22691c811ea339d9b73150e6911a5343dca",
      "salt": "0x797bce6612824a0dc4839af44a7e540bb279cce11ff37818720948b70bcaf329",
      "assetIds": []
    },
    {
      "x": 2,
      "y": 382,
      "size": 1,
      "price": "4683000000000000000000",
      "reserved": "",
      "salt": "0x7e674df4b5c3ffbc1f8b99bb7a8d32af646e8c0ccc913550b508bf4db1c92e25",
      "assetIds": [
        "55464657044963196816950587289035428064568320970692304673817341489687891546112",
        "55464657044963196816950587289035428064568320970692304673817341489687891546113",
        "55464657044963196816950587289035428064568320970692304673817341489687899934720",
        "55464657044963196816950587289035428064568320970692304673817341489687899934721",
        "55464657044963196816950587289035428064568320970692304673817341489687908321280"
      ]
    },
    {
      "x": 2,
      "y": 383,
      "size": 1,
      "price": "4683000000000000000000",
      "reserved": "",
      "salt": "0x4612dc074e6a3dcfc821a4b1f71edd5aabe062c5f0edbe107aefb28cbb123458",
      "assetIds": [
        "55464657044963196816950587289035428064568320970692304673817341489687891546112",
        "55464657044963196816950587289035428064568320970692304673817341489687891546113",
        "55464657044963196816950587289035428064568320970692304673817341489687899934720",
        "55464657044963196816950587289035428064568320970692304673817341489687899934721",
        "55464657044963196816950587289035428064568320970692304673817341489687908321280"
      ]
    },
    {
      "x": 2,
      "y": 390,
      "size": 1,
      "price": "4683000000000000000000",
      "reserved": "",
      "salt": "0x31050d8a47bea741028e12f7019aea428fd14ad4e66c5fc2cbfd8b8b0e0999f1",
      "assetIds": [
        "55464657044963196816950587289035428064568320970692304673817341489687891546112",
        "55464657044963196816950587289035428064568320970692304673817341489687891546113",
        "55464657044963196816950587289035428064568320970692304673817341489687899934720",
        "55464657044963196816950587289035428064568320970692304673817341489687899934721",
        "55464657044963196816950587289035428064568320970692304673817341489687908321280"
      ]
    },
    {
      "x": 2,
      "y": 391,
      "size": 1,
      "price": "4683000000000000000000",
      "reserved": "",
      "salt": "0x85f9f72841035638f81c414cea57b8637a5da4184ff5ddfaadbffa1b100c77a6",
      "assetIds": [
        "55464657044963196816950587289035428064568320970692304673817341489687891546112",
        "55464657044963196816950587289035428064568320970692304673817341489687891546113",
        "55464657044963196816950587289035428064568320970692304673817341489687899934720",
        "55464657044963196816950587289035428064568320970692304673817341489687899934721",
        "55464657044963196816950587289035428064568320970692304673817341489687908321280"
      ]
    },
    {
      "x": 2,
      "y": 392,
      "size": 1,
      "price": "4683000000000000000000",
      "reserved": "",
      "salt": "0x474ace1eeb8f86d0e4f16c43a49c420ea3a070838539c0b63cf99245ea9d7587",
      "assetIds": [
        "55464657044963196816950587289035428064568320970692304673817341489687891546112",
        "55464657044963196816950587289035428064568320970692304673817341489687891546113",
        "55464657044963196816950587289035428064568320970692304673817341489687899934720",
        "55464657044963196816950587289035428064568320970692304673817341489687899934721",
        "55464657044963196816950587289035428064568320970692304673817341489687908321280"
      ]
    },
    {
      "x": 2,
      "y": 393,
      "size": 1,
      "price": "1011000000000000000000",
      "reserved": "",
      "salt": "0x141d6cb7a70c1bd04aab62d47a2fb4fb64314f703d021c9ab81193b1b088a4a5",
      "assetIds": []
    },
    {
      "x": 2,
      "y": 394,
      "size": 1,
      "price": "1011000000000000000000",
      "reserved": "",
      "salt": "0x0a3aaa38931e7201ba5088126476545c8b11019ec7dcdaadd3407ae9859c82ce",
      "assetIds": []
    },
    {
      "x": 2,
      "y": 395,
      "size": 1,
      "price": "1011000000000000000000",
      "reserved": "",
      "salt": "0x51ac346a8fb2981e6ea474c0bc8d36b3138616747838412e6bc9a561fd355307",
      "assetIds": []
    },
    {
      "x": 3,
      "y": 357,
      "size": 1,
      "price": "1011000000000000000000",
      "reserved": "",
      "salt": "0xbd3467a5578361c2d77af5e0f8c67d3fa92857fa4eb72ac8929113ecfb4b954d",
      "assetIds": []
    },
    {
      "x": 3,
      "y": 358,
      "size": 1,
      "price": "1011000000000000000000",
      "reserved": "",
      "salt": "0x478b2ad7902f9bca3d2205264fc132d39584d07cd8ecc4642d3dce64cb001823",
      "assetIds": []
    },
    {
      "x": 3,
      "y": 359,
      "size": 1,
      "price": "1011000000000000000000",
      "reserved": "",
      "salt": "0xad3d3299ff7b1fe1287586f22eee7f69447651cfaac4becdf9e6f97061e67c31",
      "assetIds": []
    },
    {
      "x": 3,
      "y": 375,
      "size": 1,
      "price": "1011000000000000000000",
      "reserved": "",
      "salt": "0xac5df419d6fd3ca28298eb83d666b254db460e8628505a23e266dc75ef5190d3",
      "assetIds": []
    },
    {
      "x": 3,
      "y": 376,
      "size": 1,
      "price": "1011000000000000000000",
      "reserved": "",
      "salt": "0x049aa396431ac67e50951022d92b75bddcb59ba86add39de26f4c42a54e5d630",
      "assetIds": []
    },
    {
      "x": 3,
      "y": 377,
      "size": 1,
      "price": "1011000000000000000000",
      "reserved": "",
      "salt": "0xf777797a06caf8b00bb70d15f16d140e0175c46f9f8a643ece74a46345d4983a",
      "assetIds": []
    },
    {
      "x": 3,
      "y": 378,
      "size": 1,
      "price": "1011000000000000000000",
      "reserved": "",
      "salt": "0xfb066c207dc4008e40eb9aa7ea52e3f771037af08a7ce27a1934f85f72640084",
      "assetIds": []
    },
    {
      "x": 3,
      "y": 379,
      "size": 1,
      "price": "1011000000000000000000",
      "reserved": "",
      "salt": "0xe0593ff5edc69c6bf3a57b671ee9f07254fe7f8594503e8510e4456d23994608",
      "assetIds": []
    },
    {
      "x": 3,
      "y": 380,
      "size": 1,
      "price": "1011000000000000000000",
      "reserved": "",
      "salt": "0xbfe23adf84145f9c43539bb1046f7bd995922a9e5536b48ea4db6a640ba918cf",
      "assetIds": []
    },
    {
      "x": 3,
      "y": 381,
      "size": 1,
      "price": "4683000000000000000000",
      "reserved": "",
      "salt": "0x2454119c3b8aacd56fbfd1cf23527795e034810e216b0528fb807b174a236de3",
      "assetIds": [
        "55464657044963196816950587289035428064568320970692304673817341489687891546112",
        "55464657044963196816950587289035428064568320970692304673817341489687891546113",
        "55464657044963196816950587289035428064568320970692304673817341489687899934720",
        "55464657044963196816950587289035428064568320970692304673817341489687899934721",
        "55464657044963196816950587289035428064568320970692304673817341489687908321280"
      ]
    },
    {
      "x": 3,
      "y": 382,
      "size": 1,
      "price": "4683000000000000000000",
      "reserved": "",
      "salt": "0x185b8657876f7b7b7dd7b3039c3cfecefff64bf59a1e079329c8649398a3ab8f",
      "assetIds": [
        "55464657044963196816950587289035428064568320970692304673817341489687891546112",
        "55464657044963196816950587289035428064568320970692304673817341489687891546113",
        "55464657044963196816950587289035428064568320970692304673817341489687899934720",
        "55464657044963196816950587289035428064568320970692304673817341489687899934721",
        "55464657044963196816950587289035428064568320970692304673817341489687908321280"
      ]
    },
    {
      "x": 3,
      "y": 383,
      "size": 1,
      "price": "4683000000000000000000",
      "reserved": "",
      "salt": "0x10b5e098807b24eb3232ace1d092d9dbab223da8b4a935bd236ac3d9d86bb9ff",
      "assetIds": [
        "55464657044963196816950587289035428064568320970692304673817341489687891546112",
        "55464657044963196816950587289035428064568320970692304673817341489687891546113",
        "55464657044963196816950587289035428064568320970692304673817341489687899934720",
        "55464657044963196816950587289035428064568320970692304673817341489687899934721",
        "55464657044963196816950587289035428064568320970692304673817341489687908321280"
      ]
    },
    {
      "x": 3,
      "y": 390,
      "size": 1,
      "price": "4683000000000000000000",
      "reserved": "",
      "salt": "0x5a5abcdcae1396f92cdfcc4e1b7bb6c8aab465ccb647e8c804c550f022653d9e",
      "assetIds": [
        "55464657044963196816950587289035428064568320970692304673817341489687891546112",
        "55464657044963196816950587289035428064568320970692304673817341489687891546113",
        "55464657044963196816950587289035428064568320970692304673817341489687899934720",
        "55464657044963196816950587289035428064568320970692304673817341489687899934721",
        "55464657044963196816950587289035428064568320970692304673817341489687908321280"
      ]
    },
    {
      "x": 3,
      "y": 391,
      "size": 1,
      "price": "4683000000000000000000",
      "reserved": "",
      "salt": "0xca153f7d5eeb4e092106957b8d85882fd5a63bb01d7a9decba78fe31ae375f1c",
      "assetIds": [
        "55464657044963196816950587289035428064568320970692304673817341489687891546112",
        "55464657044963196816950587289035428064568320970692304673817341489687891546113",
        "55464657044963196816950587289035428064568320970692304673817341489687899934720",
        "55464657044963196816950587289035428064568320970692304673817341489687899934721",
        "55464657044963196816950587289035428064568320970692304673817341489687908321280"
      ]
    },
    {
      "x": 3,
      "y": 392,
      "size": 1,
      "price": "4683000000000000000000",
      "reserved": "",
      "salt": "0x99f43248d37be23cf0c5642e61559b9062469a5030ddc7db8c025f589dace6c1",
      "assetIds": [
        "55464657044963196816950587289035428064568320970692304673817341489687891546112",
        "55464657044963196816950587289035428064568320970692304673817341489687891546113",
        "55464657044963196816950587289035428064568320970692304673817341489687899934720",
        "55464657044963196816950587289035428064568320970692304673817341489687899934721",
        "55464657044963196816950587289035428064568320970692304673817341489687908321280"
      ]
    },
    {
      "x": 4,
      "y": 357,
      "size": 1,
      "price": "1011000000000000000000",
      "reserved": "",
      "salt": "0x637e8e21ccd3e88992a47553c98a5800c6bda63529e70b4c7a7cf711cf72c609",
      "assetIds": []
    },
    {
      "x": 4,
      "y": 358,
      "size": 1,
      "price": "1011000000000000000000",
      "reserved": "",
      "salt": "0x3bc1d7f7a4b6e5183e563b5566529be0dbffa198c24107223a84b7cc1349bceb",
      "assetIds": []
    },
    {
      "x": 4,
      "y": 359,
      "size": 1,
      "price": "1011000000000000000000",
      "reserved": "",
      "salt": "0xf13d7bb3209478b6f1a218a60aa7166a72194a00cc851ad650d21218968126c9",
      "assetIds": []
    },
    {
      "x": 4,
      "y": 375,
      "size": 1,
      "price": "4683000000000000000000",
      "reserved": "",
      "salt": "0x53a650b212c24c614614143807632086934a3f5c007c90c2fa015c852a9c1a02",
      "assetIds": [
        "55464657044963196816950587289035428064568320970692304673817341489687891546112",
        "55464657044963196816950587289035428064568320970692304673817341489687891546113",
        "55464657044963196816950587289035428064568320970692304673817341489687899934720",
        "55464657044963196816950587289035428064568320970692304673817341489687899934721",
        "55464657044963196816950587289035428064568320970692304673817341489687908321280"
      ]
    },
    {
      "x": 4,
      "y": 376,
      "size": 1,
      "price": "1011000000000000000000",
      "reserved": "",
      "salt": "0xddc3e030ce95db94b59bed4e3a6e96eb3bcc02785bee7cd0df58ed7c14d2d82e",
      "assetIds": []
    },
    {
      "x": 4,
      "y": 377,
      "size": 1,
      "price": "1011000000000000000000",
      "reserved": "0x7a9fe22691c811ea339d9b73150e6911a5343dca",
      "salt": "0x9b775b499a9d1e228a769cb86667983710c23c9046d8a2cbfe82dc945d9bfb5e",
      "assetIds": []
    },
    {
      "x": 4,
      "y": 378,
      "size": 1,
      "price": "1011000000000000000000",
      "reserved": "",
      "salt": "0xff61ca934fa3e8cb9472934971154a23bf89c3e2f173bafea1efcefd86ef238e",
      "assetIds": []
    },
    {
      "x": 4,
      "y": 379,
      "size": 1,
      "price": "1011000000000000000000",
      "reserved": "",
      "salt": "0x700459f1db54df4b7b00d708e7ba347ee383b0db14f3a3d87f01b1a7c29fec9c",
      "assetIds": []
    },
    {
      "x": 4,
      "y": 380,
      "size": 1,
      "price": "1011000000000000000000",
      "reserved": "0x7a9fe22691c811ea339d9b73150e6911a5343dca",
      "salt": "0x376848a6b27d98120752bc8aabff040f4f71b8e7458b528c655e7fa43d76e69b",
      "assetIds": []
    },
    {
      "x": 4,
      "y": 381,
      "size": 1,
      "price": "1011000000000000000000",
      "reserved": "",
      "salt": "0x03c8424e6dd6f399927868ee30be77232eb90b611b1ee24995cf2cf1b7de4b1b",
      "assetIds": []
    },
    {
      "x": 4,
      "y": 382,
      "size": 1,
      "price": "4683000000000000000000",
      "reserved": "",
      "salt": "0x0942973b99737c268c3a7c763ac999124ecfdf0cfa36410cbbb833a90bea7520",
      "assetIds": [
        "55464657044963196816950587289035428064568320970692304673817341489687891546112",
        "55464657044963196816950587289035428064568320970692304673817341489687891546113",
        "55464657044963196816950587289035428064568320970692304673817341489687899934720",
        "55464657044963196816950587289035428064568320970692304673817341489687899934721",
        "55464657044963196816950587289035428064568320970692304673817341489687908321280"
      ]
    },
    {
      "x": 4,
      "y": 383,
      "size": 1,
      "price": "4683000000000000000000",
      "reserved": "",
      "salt": "0x3d1bac8d5cbc223cbd6c754d5d2e0e9cb54b9c43318189e1f169b3e58323d305",
      "assetIds": [
        "55464657044963196816950587289035428064568320970692304673817341489687891546112",
        "55464657044963196816950587289035428064568320970692304673817341489687891546113",
        "55464657044963196816950587289035428064568320970692304673817341489687899934720",
        "55464657044963196816950587289035428064568320970692304673817341489687899934721",
        "55464657044963196816950587289035428064568320970692304673817341489687908321280"
      ]
    },
    {
      "x": 4,
      "y": 390,
      "size": 1,
      "price": "4683000000000000000000",
      "reserved": "",
      "salt": "0xecd4b062a46f2302785c37af5eb1a75ddb0794ddb93575397d43c65a2af49307",
      "assetIds": [
        "55464657044963196816950587289035428064568320970692304673817341489687891546112",
        "55464657044963196816950587289035428064568320970692304673817341489687891546113",
        "55464657044963196816950587289035428064568320970692304673817341489687899934720",
        "55464657044963196816950587289035428064568320970692304673817341489687899934721",
        "55464657044963196816950587289035428064568320970692304673817341489687908321280"
      ]
    },
    {
      "x": 4,
      "y": 391,
      "size": 1,
      "price": "4683000000000000000000",
      "reserved": "",
      "salt": "0x71be17c51658dcf4acc5ef3c3e8403781baadddb301acd9196ac09dbcef81a52",
      "assetIds": [
        "55464657044963196816950587289035428064568320970692304673817341489687891546112",
        "55464657044963196816950587289035428064568320970692304673817341489687891546113",
        "55464657044963196816950587289035428064568320970692304673817341489687899934720",
        "55464657044963196816950587289035428064568320970692304673817341489687899934721",
        "55464657044963196816950587289035428064568320970692304673817341489687908321280"
      ]
    },
    {
      "x": 4,
      "y": 392,
      "size": 1,
      "price": "4683000000000000000000",
      "reserved": "",
      "salt": "0x25756229dd109f68a53698367bd1766fc7d8268bb671a3279d77223a2a98fdc2",
      "assetIds": [
        "55464657044963196816950587289035428064568320970692304673817341489687891546112",
        "55464657044963196816950587289035428064568320970692304673817341489687891546113",
        "55464657044963196816950587289035428064568320970692304673817341489687899934720",
        "55464657044963196816950587289035428064568320970692304673817341489687899934721",
        "55464657044963196816950587289035428064568320970692304673817341489687908321280"
      ]
    },
    {
      "x": 5,
      "y": 357,
      "size": 1,
      "price": "1011000000000000000000",
      "reserved": "",
      "salt": "0xf22efc4f2801c5b07e5257dabbd8d400dff1f171b6a630b84871503ebdd0bcdb",
      "assetIds": []
    },
    {
      "x": 5,
      "y": 358,
      "size": 1,
      "price": "1011000000000000000000",
      "reserved": "",
      "salt": "0x42d84f13fc9dc6f0ac3a4c56d731bc0f0fa0274ef9e4c0a6a8c620fb093a83af",
      "assetIds": []
    },
    {
      "x": 5,
      "y": 359,
      "size": 1,
      "price": "1011000000000000000000",
      "reserved": "",
      "salt": "0xa4b23b3333e38d0e4fe7f0275bac0f16cdf6c52fc43701a8be647c1ede0bab59",
      "assetIds": []
    },
    {
      "x": 5,
      "y": 375,
      "size": 1,
      "price": "4683000000000000000000",
      "reserved": "",
      "salt": "0x5bd70b40ccb4418db28e0140e54d8023d518aa0eb24726a236e6ae1f08a08b16",
      "assetIds": [
        "55464657044963196816950587289035428064568320970692304673817341489687891546112",
        "55464657044963196816950587289035428064568320970692304673817341489687891546113",
        "55464657044963196816950587289035428064568320970692304673817341489687899934720",
        "55464657044963196816950587289035428064568320970692304673817341489687899934721",
        "55464657044963196816950587289035428064568320970692304673817341489687908321280"
      ]
    },
    {
      "x": 5,
      "y": 376,
      "size": 1,
      "price": "4683000000000000000000",
      "reserved": "",
      "salt": "0x779971a5a909151132ed42985e92efbe586335930b3f3b125dafc80482c63b43",
      "assetIds": [
        "55464657044963196816950587289035428064568320970692304673817341489687891546112",
        "55464657044963196816950587289035428064568320970692304673817341489687891546113",
        "55464657044963196816950587289035428064568320970692304673817341489687899934720",
        "55464657044963196816950587289035428064568320970692304673817341489687899934721",
        "55464657044963196816950587289035428064568320970692304673817341489687908321280"
      ]
    },
    {
      "x": 5,
      "y": 377,
      "size": 1,
      "price": "4683000000000000000000",
      "reserved": "",
      "salt": "0x637d5e08e7f3b1813cdd1e1983f79abc5807f05e6f0d2e5abcc4bca77474868b",
      "assetIds": [
        "55464657044963196816950587289035428064568320970692304673817341489687891546112",
        "55464657044963196816950587289035428064568320970692304673817341489687891546113",
        "55464657044963196816950587289035428064568320970692304673817341489687899934720",
        "55464657044963196816950587289035428064568320970692304673817341489687899934721",
        "55464657044963196816950587289035428064568320970692304673817341489687908321280"
      ]
    },
    {
      "x": 5,
      "y": 378,
      "size": 1,
      "price": "4683000000000000000000",
      "reserved": "",
      "salt": "0x303823d2178615b743c108c7d0df21d212469cf262464516e2071caa14f70857",
      "assetIds": [
        "55464657044963196816950587289035428064568320970692304673817341489687891546112",
        "55464657044963196816950587289035428064568320970692304673817341489687891546113",
        "55464657044963196816950587289035428064568320970692304673817341489687899934720",
        "55464657044963196816950587289035428064568320970692304673817341489687899934721",
        "55464657044963196816950587289035428064568320970692304673817341489687908321280"
      ]
    },
    {
      "x": 5,
      "y": 379,
      "size": 1,
      "price": "1011000000000000000000",
      "reserved": "",
      "salt": "0xef65949f3eabfe5a1fa8300456519bdb479201124aa4db4ae05b55bafb152c92",
      "assetIds": []
    },
    {
      "x": 5,
      "y": 380,
      "size": 1,
      "price": "1011000000000000000000",
      "reserved": "",
      "salt": "0x26eb6f8db7ca61f4be05b968dbdc9683f6a2f6d31e23354553e24f83d7b68425",
      "assetIds": []
    },
    {
      "x": 5,
      "y": 381,
      "size": 1,
      "price": "1011000000000000000000",
      "reserved": "",
      "salt": "0x76e057aea02be56b4ef9d8a6b56bb915b09232ab7adf28b3042c3e86fb1d26bc",
      "assetIds": []
    },
    {
      "x": 5,
      "y": 382,
      "size": 1,
      "price": "1011000000000000000000",
      "reserved": "0x7a9fe22691c811ea339d9b73150e6911a5343dca",
      "salt": "0x33a863476401e8d51303cb10acf5f52c4fcdf6d0b60c2f633b629bea60bad98c",
      "assetIds": []
    },
    {
      "x": 5,
      "y": 383,
      "size": 1,
      "price": "4683000000000000000000",
      "reserved": "",
      "salt": "0x8b02f13b7c845b94b88ec3d06b98c757fbfe3f290c97881ac1b84aa60bff9eac",
      "assetIds": [
        "55464657044963196816950587289035428064568320970692304673817341489687891546112",
        "55464657044963196816950587289035428064568320970692304673817341489687891546113",
        "55464657044963196816950587289035428064568320970692304673817341489687899934720",
        "55464657044963196816950587289035428064568320970692304673817341489687899934721",
        "55464657044963196816950587289035428064568320970692304673817341489687908321280"
      ]
    },
    {
      "x": 5,
      "y": 390,
      "size": 1,
      "price": "4683000000000000000000",
      "reserved": "",
      "salt": "0x7107162337ed1ed4aab76201e71e903ec1e97be7ff60745d4f4df30bc269be02",
      "assetIds": [
        "55464657044963196816950587289035428064568320970692304673817341489687891546112",
        "55464657044963196816950587289035428064568320970692304673817341489687891546113",
        "55464657044963196816950587289035428064568320970692304673817341489687899934720",
        "55464657044963196816950587289035428064568320970692304673817341489687899934721",
        "55464657044963196816950587289035428064568320970692304673817341489687908321280"
      ]
    },
    {
      "x": 5,
      "y": 391,
      "size": 1,
      "price": "1011000000000000000000",
      "reserved": "0x7a9fe22691c811ea339d9b73150e6911a5343dca",
      "salt": "0xafc699a9096d2a656dfbd84219656b7bf595c4bbdefc17863e61b5eca2c3b331",
      "assetIds": []
    },
    {
      "x": 5,
      "y": 392,
      "size": 1,
      "price": "4683000000000000000000",
      "reserved": "",
      "salt": "0xa2fdf00302b03e66d1d3619410d3497cb3acae3b9b5aad6f25df09599206dc30",
      "assetIds": [
        "55464657044963196816950587289035428064568320970692304673817341489687891546112",
        "55464657044963196816950587289035428064568320970692304673817341489687891546113",
        "55464657044963196816950587289035428064568320970692304673817341489687899934720",
        "55464657044963196816950587289035428064568320970692304673817341489687899934721",
        "55464657044963196816950587289035428064568320970692304673817341489687908321280"
      ]
    },
    {
      "x": 6,
      "y": 357,
      "size": 1,
      "price": "1011000000000000000000",
      "reserved": "0x7a9fe22691c811ea339d9b73150e6911a5343dca",
      "salt": "0xf36827636113a43e1c4ca77d00a5e5e979b18f0c1d2fcb8f1ab85c7f6c6b9788",
      "assetIds": []
    },
    {
      "x": 6,
      "y": 358,
      "size": 1,
      "price": "1011000000000000000000",
      "reserved": "",
      "salt": "0x9ced3a90fd201d034adb3e5caf7735dbc1667b2f3acffaf99f1b6eff7e18d71e",
      "assetIds": []
    },
    {
      "x": 6,
      "y": 359,
      "size": 1,
      "price": "1011000000000000000000",
      "reserved": "",
      "salt": "0x54e191ba0de26e40affff2f96e60f3d92b179492d0e9a365e3c229a6a299a8ed",
      "assetIds": []
    },
    {
      "x": 6,
      "y": 378,
      "size": 1,
      "price": "4683000000000000000000",
      "reserved": "",
      "salt": "0xe75af3336b0fb9fa83e5d823b93e6316aa6c2f0bf88a7db6785a5b6bb7d56ea3",
      "assetIds": [
        "55464657044963196816950587289035428064568320970692304673817341489687891546112",
        "55464657044963196816950587289035428064568320970692304673817341489687891546113",
        "55464657044963196816950587289035428064568320970692304673817341489687899934720",
        "55464657044963196816950587289035428064568320970692304673817341489687899934721",
        "55464657044963196816950587289035428064568320970692304673817341489687908321280"
      ]
    },
    {
      "x": 6,
      "y": 379,
      "size": 1,
      "price": "4683000000000000000000",
      "reserved": "",
      "salt": "0xc66ba2a94bb4fb453394f1161f38248c18b621cd2aa23fb47951aec165df395d",
      "assetIds": [
        "55464657044963196816950587289035428064568320970692304673817341489687891546112",
        "55464657044963196816950587289035428064568320970692304673817341489687891546113",
        "55464657044963196816950587289035428064568320970692304673817341489687899934720",
        "55464657044963196816950587289035428064568320970692304673817341489687899934721",
        "55464657044963196816950587289035428064568320970692304673817341489687908321280"
      ]
    },
    {
      "x": 6,
      "y": 380,
      "size": 1,
      "price": "4683000000000000000000",
      "reserved": "",
      "salt": "0xe6721773ebeca4b3fdcbb7d25eebd84429454291651b9a185b210fc42cbbefe5",
      "assetIds": [
        "55464657044963196816950587289035428064568320970692304673817341489687891546112",
        "55464657044963196816950587289035428064568320970692304673817341489687891546113",
        "55464657044963196816950587289035428064568320970692304673817341489687899934720",
        "55464657044963196816950587289035428064568320970692304673817341489687899934721",
        "55464657044963196816950587289035428064568320970692304673817341489687908321280"
      ]
    },
    {
      "x": 6,
      "y": 381,
      "size": 1,
      "price": "1011000000000000000000",
      "reserved": "",
      "salt": "0x8e00b1dfcd0079a1db3492c8b42d652864d5fd3d96bc45f16033f1a607b73e8c",
      "assetIds": []
    },
    {
      "x": 6,
      "y": 382,
      "size": 1,
      "price": "4683000000000000000000",
      "reserved": "",
      "salt": "0xbc61e758e994a8a32e40983bc03abfd90265c44a026e9fdd6ddbb16c2229b18b",
      "assetIds": [
        "55464657044963196816950587289035428064568320970692304673817341489687891546112",
        "55464657044963196816950587289035428064568320970692304673817341489687891546113",
        "55464657044963196816950587289035428064568320970692304673817341489687899934720",
        "55464657044963196816950587289035428064568320970692304673817341489687899934721",
        "55464657044963196816950587289035428064568320970692304673817341489687908321280"
      ]
    },
    {
      "x": 6,
      "y": 383,
      "size": 1,
      "price": "1011000000000000000000",
      "reserved": "0x7a9fe22691c811ea339d9b73150e6911a5343dca",
      "salt": "0xc9ede92ea3e28ac28163c84d807d458c4d6f7edfdf44a14bb589ee12cb300125",
      "assetIds": []
    },
    {
      "x": 6,
      "y": 384,
      "size": 1,
      "price": "4683000000000000000000",
      "reserved": "",
      "salt": "0xd864b73e12be4b5fbad08786938ee974e96a5f2377dc02e2ba17db79d0aa6d36",
      "assetIds": [
        "55464657044963196816950587289035428064568320970692304673817341489687891546112",
        "55464657044963196816950587289035428064568320970692304673817341489687891546113",
        "55464657044963196816950587289035428064568320970692304673817341489687899934720",
        "55464657044963196816950587289035428064568320970692304673817341489687899934721",
        "55464657044963196816950587289035428064568320970692304673817341489687908321280"
      ]
    },
    {
      "x": 6,
      "y": 385,
      "size": 1,
      "price": "4683000000000000000000",
      "reserved": "",
      "salt": "0x240951b62d7ac16f5cb606a51ef1a4e57d5c187987fcb56822fcbeb592995013",
      "assetIds": [
        "55464657044963196816950587289035428064568320970692304673817341489687891546112",
        "55464657044963196816950587289035428064568320970692304673817341489687891546113",
        "55464657044963196816950587289035428064568320970692304673817341489687899934720",
        "55464657044963196816950587289035428064568320970692304673817341489687899934721",
        "55464657044963196816950587289035428064568320970692304673817341489687908321280"
      ]
    },
    {
      "x": 6,
      "y": 386,
      "size": 1,
      "price": "4683000000000000000000",
      "reserved": "",
      "salt": "0xe64758e043a2ae3dd9b4b3e69cecf53de1f0bfc515554f60d99e171d3675d83c",
      "assetIds": [
        "55464657044963196816950587289035428064568320970692304673817341489687891546112",
        "55464657044963196816950587289035428064568320970692304673817341489687891546113",
        "55464657044963196816950587289035428064568320970692304673817341489687899934720",
        "55464657044963196816950587289035428064568320970692304673817341489687899934721",
        "55464657044963196816950587289035428064568320970692304673817341489687908321280"
      ]
    },
    {
      "x": 6,
      "y": 387,
      "size": 1,
      "price": "4683000000000000000000",
      "reserved": "",
      "salt": "0xd4e957cea6a179d9d1b99c55b39f301a170c57829ecdc2d74aefc1de0581d62b",
      "assetIds": [
        "55464657044963196816950587289035428064568320970692304673817341489687891546112",
        "55464657044963196816950587289035428064568320970692304673817341489687891546113",
        "55464657044963196816950587289035428064568320970692304673817341489687899934720",
        "55464657044963196816950587289035428064568320970692304673817341489687899934721",
        "55464657044963196816950587289035428064568320970692304673817341489687908321280"
      ]
    },
    {
      "x": 6,
      "y": 388,
      "size": 1,
      "price": "4683000000000000000000",
      "reserved": "",
      "salt": "0x396d84e17b2a5100cbc5300a8842d4e369c4cc314bc51e894ea44eb171f1e9e6",
      "assetIds": [
        "55464657044963196816950587289035428064568320970692304673817341489687891546112",
        "55464657044963196816950587289035428064568320970692304673817341489687891546113",
        "55464657044963196816950587289035428064568320970692304673817341489687899934720",
        "55464657044963196816950587289035428064568320970692304673817341489687899934721",
        "55464657044963196816950587289035428064568320970692304673817341489687908321280"
      ]
    },
    {
      "x": 6,
      "y": 389,
      "size": 1,
      "price": "4683000000000000000000",
      "reserved": "",
      "salt": "0x673a319391ec9a8876f022642ca9ca532eae5cf6538ffcee7badcd86b2310761",
      "assetIds": [
        "55464657044963196816950587289035428064568320970692304673817341489687891546112",
        "55464657044963196816950587289035428064568320970692304673817341489687891546113",
        "55464657044963196816950587289035428064568320970692304673817341489687899934720",
        "55464657044963196816950587289035428064568320970692304673817341489687899934721",
        "55464657044963196816950587289035428064568320970692304673817341489687908321280"
      ]
    },
    {
      "x": 6,
      "y": 390,
      "size": 1,
      "price": "4683000000000000000000",
      "reserved": "",
      "salt": "0xfb6cc564584e81ff474467be01e0b99505c44fc561d734bb49ed596e2920b35f",
      "assetIds": [
        "55464657044963196816950587289035428064568320970692304673817341489687891546112",
        "55464657044963196816950587289035428064568320970692304673817341489687891546113",
        "55464657044963196816950587289035428064568320970692304673817341489687899934720",
        "55464657044963196816950587289035428064568320970692304673817341489687899934721",
        "55464657044963196816950587289035428064568320970692304673817341489687908321280"
      ]
    },
    {
      "x": 6,
      "y": 391,
      "size": 1,
      "price": "4683000000000000000000",
      "reserved": "",
      "salt": "0xf40a992d98dbb75f334d6fa1b3b590d5907964e71e9bac44d4d986a3689701bf",
      "assetIds": [
        "55464657044963196816950587289035428064568320970692304673817341489687891546112",
        "55464657044963196816950587289035428064568320970692304673817341489687891546113",
        "55464657044963196816950587289035428064568320970692304673817341489687899934720",
        "55464657044963196816950587289035428064568320970692304673817341489687899934721",
        "55464657044963196816950587289035428064568320970692304673817341489687908321280"
      ]
    },
    {
      "x": 6,
      "y": 392,
      "size": 1,
      "price": "4683000000000000000000",
      "reserved": "",
      "salt": "0xa2ee39689575fc1219654ba49eb8a7a4d6eec90e9a3b969137cabf2edde53b0c",
      "assetIds": [
        "55464657044963196816950587289035428064568320970692304673817341489687891546112",
        "55464657044963196816950587289035428064568320970692304673817341489687891546113",
        "55464657044963196816950587289035428064568320970692304673817341489687899934720",
        "55464657044963196816950587289035428064568320970692304673817341489687899934721",
        "55464657044963196816950587289035428064568320970692304673817341489687908321280"
      ]
    },
    {
      "x": 6,
      "y": 393,
      "size": 1,
      "price": "1011000000000000000000",
      "reserved": "",
      "salt": "0xb0321fcec53311620b70ee3f42aa7b9a7cefb0e4127d5a9e96b05e776ec9ab24",
      "assetIds": []
    },
    {
      "x": 6,
      "y": 394,
      "size": 1,
      "price": "1011000000000000000000",
      "reserved": "",
      "salt": "0xb14a1354b956d34e2605123702795d33e18332d5d585fca4d1d5f62cfb859336",
      "assetIds": []
    },
    {
      "x": 6,
      "y": 395,
      "size": 1,
      "price": "1011000000000000000000",
      "reserved": "",
      "salt": "0x1a4c710e1cd3d5120d4d1d8aa53369cf43313cc51ed7348af9019953c3d9ebff",
      "assetIds": []
    },
    {
      "x": 7,
      "y": 357,
      "size": 1,
      "price": "1011000000000000000000",
      "reserved": "",
      "salt": "0x7191c8337e3fd44c90d25c38bfeb4a5ea549433dfcea5ed88e9e60b4d6e0d128",
      "assetIds": []
    },
    {
      "x": 7,
      "y": 358,
      "size": 1,
      "price": "1011000000000000000000",
      "reserved": "",
      "salt": "0x2de02c02e560287d043deab5cf3bcbfc90a763860a08301d5074fdf6ef442c0f",
      "assetIds": []
    },
    {
      "x": 7,
      "y": 359,
      "size": 1,
      "price": "1011000000000000000000",
      "reserved": "",
      "salt": "0x62c7bb4c2c66bbca8f13cf55f39bda16a0e3428ff2a8fc9032aecac6c08bb4d1",
      "assetIds": []
    },
    {
      "x": 7,
      "y": 378,
      "size": 1,
      "price": "4683000000000000000000",
      "reserved": "",
      "salt": "0x15cc723fe81d5a69615495c1a61d2f6834b4cfaa97e2a7d87091ff1d7094d694",
      "assetIds": [
        "55464657044963196816950587289035428064568320970692304673817341489687891546112",
        "55464657044963196816950587289035428064568320970692304673817341489687891546113",
        "55464657044963196816950587289035428064568320970692304673817341489687899934720",
        "55464657044963196816950587289035428064568320970692304673817341489687899934721",
        "55464657044963196816950587289035428064568320970692304673817341489687908321280"
      ]
    },
    {
      "x": 7,
      "y": 379,
      "size": 1,
      "price": "4683000000000000000000",
      "reserved": "",
      "salt": "0x1133a101ef596c538034f22204f69d7ad423b69ef154cd3f3c6371f8bf93ac44",
      "assetIds": [
        "55464657044963196816950587289035428064568320970692304673817341489687891546112",
        "55464657044963196816950587289035428064568320970692304673817341489687891546113",
        "55464657044963196816950587289035428064568320970692304673817341489687899934720",
        "55464657044963196816950587289035428064568320970692304673817341489687899934721",
        "55464657044963196816950587289035428064568320970692304673817341489687908321280"
      ]
    },
    {
      "x": 7,
      "y": 380,
      "size": 1,
      "price": "1011000000000000000000",
      "reserved": "",
      "salt": "0x7ac7f1326b29956c7cffc444a42ef195c3c1fb690ba2d2cc36a9b4dc615d508f",
      "assetIds": []
    },
    {
      "x": 7,
      "y": 381,
      "size": 1,
      "price": "1011000000000000000000",
      "reserved": "",
      "salt": "0x57bcc0655f7c09761636d62dae114c402770fe54beac93552d31f881316ab2e8",
      "assetIds": []
    },
    {
      "x": 7,
      "y": 382,
      "size": 1,
      "price": "1011000000000000000000",
      "reserved": "",
      "salt": "0xf227a4cffaf5e33b3a22dba6e9ddfc80e6d0ad7a020a376030644e5a93d4d140",
      "assetIds": []
    },
    {
      "x": 7,
      "y": 383,
      "size": 1,
      "price": "4683000000000000000000",
      "reserved": "",
      "salt": "0x0c34e9fa2efe0b16efb157940670f293b850ab23e149079c2ea38e93092c78ed",
      "assetIds": [
        "55464657044963196816950587289035428064568320970692304673817341489687891546112",
        "55464657044963196816950587289035428064568320970692304673817341489687891546113",
        "55464657044963196816950587289035428064568320970692304673817341489687899934720",
        "55464657044963196816950587289035428064568320970692304673817341489687899934721",
        "55464657044963196816950587289035428064568320970692304673817341489687908321280"
      ]
    },
    {
      "x": 7,
      "y": 384,
      "size": 1,
      "price": "4683000000000000000000",
      "reserved": "",
      "salt": "0x1e63b4a2073fb138c79d35613d981f4731367da008a9af25753cd971afb32ccc",
      "assetIds": [
        "55464657044963196816950587289035428064568320970692304673817341489687891546112",
        "55464657044963196816950587289035428064568320970692304673817341489687891546113",
        "55464657044963196816950587289035428064568320970692304673817341489687899934720",
        "55464657044963196816950587289035428064568320970692304673817341489687899934721",
        "55464657044963196816950587289035428064568320970692304673817341489687908321280"
      ]
    },
    {
      "x": 7,
      "y": 385,
      "size": 1,
      "price": "4683000000000000000000",
      "reserved": "",
      "salt": "0xe50916468086dc704a34d3efc815a8446bc7b2f3686b4ffdb508b2f243acd060",
      "assetIds": [
        "55464657044963196816950587289035428064568320970692304673817341489687891546112",
        "55464657044963196816950587289035428064568320970692304673817341489687891546113",
        "55464657044963196816950587289035428064568320970692304673817341489687899934720",
        "55464657044963196816950587289035428064568320970692304673817341489687899934721",
        "55464657044963196816950587289035428064568320970692304673817341489687908321280"
      ]
    },
    {
      "x": 7,
      "y": 386,
      "size": 1,
      "price": "4683000000000000000000",
      "reserved": "",
      "salt": "0x79296ee36262e509d7f49dc177d8a611b9faecbc27f7750e458fac1c8090e822",
      "assetIds": [
        "55464657044963196816950587289035428064568320970692304673817341489687891546112",
        "55464657044963196816950587289035428064568320970692304673817341489687891546113",
        "55464657044963196816950587289035428064568320970692304673817341489687899934720",
        "55464657044963196816950587289035428064568320970692304673817341489687899934721",
        "55464657044963196816950587289035428064568320970692304673817341489687908321280"
      ]
    },
    {
      "x": 7,
      "y": 387,
      "size": 1,
      "price": "4683000000000000000000",
      "reserved": "",
      "salt": "0xd52615cfb9ade66140f85ca686a9184498252a14df0fbae6665efcf886b47ef8",
      "assetIds": [
        "55464657044963196816950587289035428064568320970692304673817341489687891546112",
        "55464657044963196816950587289035428064568320970692304673817341489687891546113",
        "55464657044963196816950587289035428064568320970692304673817341489687899934720",
        "55464657044963196816950587289035428064568320970692304673817341489687899934721",
        "55464657044963196816950587289035428064568320970692304673817341489687908321280"
      ]
    },
    {
      "x": 7,
      "y": 388,
      "size": 1,
      "price": "4683000000000000000000",
      "reserved": "",
      "salt": "0x806fd277980600b94b93dd54a575587068cdeafadab74800a59033651fdaf4cd",
      "assetIds": [
        "55464657044963196816950587289035428064568320970692304673817341489687891546112",
        "55464657044963196816950587289035428064568320970692304673817341489687891546113",
        "55464657044963196816950587289035428064568320970692304673817341489687899934720",
        "55464657044963196816950587289035428064568320970692304673817341489687899934721",
        "55464657044963196816950587289035428064568320970692304673817341489687908321280"
      ]
    },
    {
      "x": 7,
      "y": 389,
      "size": 1,
      "price": "4683000000000000000000",
      "reserved": "",
      "salt": "0xe6e9561beee0d9b0a96873fb2e34f8fbf5731df05a74f78f628a0dda01faa4af",
      "assetIds": [
        "55464657044963196816950587289035428064568320970692304673817341489687891546112",
        "55464657044963196816950587289035428064568320970692304673817341489687891546113",
        "55464657044963196816950587289035428064568320970692304673817341489687899934720",
        "55464657044963196816950587289035428064568320970692304673817341489687899934721",
        "55464657044963196816950587289035428064568320970692304673817341489687908321280"
      ]
    },
    {
      "x": 7,
      "y": 390,
      "size": 1,
      "price": "4683000000000000000000",
      "reserved": "",
      "salt": "0x78e4586828017ca384a0f2a4c1f07aaa41dffb82f49c2c8bac2e7107c9bcbb3c",
      "assetIds": [
        "55464657044963196816950587289035428064568320970692304673817341489687891546112",
        "55464657044963196816950587289035428064568320970692304673817341489687891546113",
        "55464657044963196816950587289035428064568320970692304673817341489687899934720",
        "55464657044963196816950587289035428064568320970692304673817341489687899934721",
        "55464657044963196816950587289035428064568320970692304673817341489687908321280"
      ]
    },
    {
      "x": 7,
      "y": 391,
      "size": 1,
      "price": "4683000000000000000000",
      "reserved": "",
      "salt": "0x26b9fc31a3c1654c5a1ff7408230d66b45e0d582f099eb31c9915b5a54d8448a",
      "assetIds": [
        "55464657044963196816950587289035428064568320970692304673817341489687891546112",
        "55464657044963196816950587289035428064568320970692304673817341489687891546113",
        "55464657044963196816950587289035428064568320970692304673817341489687899934720",
        "55464657044963196816950587289035428064568320970692304673817341489687899934721",
        "55464657044963196816950587289035428064568320970692304673817341489687908321280"
      ]
    },
    {
      "x": 7,
      "y": 392,
      "size": 1,
      "price": "1011000000000000000000",
      "reserved": "",
      "salt": "0x82617a3b2b476f4f36f16fd9bd9d0d6551d643f54ab80daafe184f698e403485",
      "assetIds": []
    },
    {
      "x": 7,
      "y": 393,
      "size": 1,
      "price": "1011000000000000000000",
      "reserved": "",
      "salt": "0x17aa5ea2fb3debc2a3e451d37e0d4510360594f1a3897e4871cdaf70d61f550a",
      "assetIds": []
    },
    {
      "x": 7,
      "y": 394,
      "size": 1,
      "price": "1011000000000000000000",
      "reserved": "0x7a9fe22691c811ea339d9b73150e6911a5343dca",
      "salt": "0x7a1d1b3f7647855b5e1f8fd1e55589fb8a81e772c76f5228542cbc2982ed9158",
      "assetIds": []
    },
    {
      "x": 7,
      "y": 395,
      "size": 1,
      "price": "1011000000000000000000",
      "reserved": "",
      "salt": "0x370df7e625a5a9d35d773b03e23e6a449c86e702ff715ef8a526d143122466b4",
      "assetIds": []
    },
    {
      "x": 8,
      "y": 357,
      "size": 1,
      "price": "1011000000000000000000",
      "reserved": "",
      "salt": "0xa7ad89aa6dda42f515d13e4eb15180850a3e8c9ae417d5d38e7e63b9b853eb35",
      "assetIds": []
    },
    {
      "x": 8,
      "y": 358,
      "size": 1,
      "price": "1011000000000000000000",
      "reserved": "",
      "salt": "0x6df088e06a4c0306072c8fa1270cb6f74911d890f27aed45ce1a5dc9cf4f4b62",
      "assetIds": []
    },
    {
      "x": 8,
      "y": 359,
      "size": 1,
      "price": "1011000000000000000000",
      "reserved": "",
      "salt": "0xd6734445588ffb0ea782442f0c34530d3a87579f7b576ed421c42c25c8569859",
      "assetIds": []
    },
    {
      "x": 8,
      "y": 378,
      "size": 1,
      "price": "4683000000000000000000",
      "reserved": "",
      "salt": "0xc6a2f1e3be77dfc13a77788d6fa091184406f1285154e5df8a85bc5e8b4bb73d",
      "assetIds": [
        "55464657044963196816950587289035428064568320970692304673817341489687891546112",
        "55464657044963196816950587289035428064568320970692304673817341489687891546113",
        "55464657044963196816950587289035428064568320970692304673817341489687899934720",
        "55464657044963196816950587289035428064568320970692304673817341489687899934721",
        "55464657044963196816950587289035428064568320970692304673817341489687908321280"
      ]
    },
    {
      "x": 8,
      "y": 379,
      "size": 1,
      "price": "4683000000000000000000",
      "reserved": "",
      "salt": "0x46e7c430948441b65e966eeccc9369f0cf771e3f0e535c2209c1bed4c5d58626",
      "assetIds": [
        "55464657044963196816950587289035428064568320970692304673817341489687891546112",
        "55464657044963196816950587289035428064568320970692304673817341489687891546113",
        "55464657044963196816950587289035428064568320970692304673817341489687899934720",
        "55464657044963196816950587289035428064568320970692304673817341489687899934721",
        "55464657044963196816950587289035428064568320970692304673817341489687908321280"
      ]
    },
    {
      "x": 8,
      "y": 380,
      "size": 1,
      "price": "1011000000000000000000",
      "reserved": "",
      "salt": "0x55c5b0ff398ba63eccb6f2d9da66595c62416514388c2e309aba0d2ec5be5e1a",
      "assetIds": []
    },
    {
      "x": 8,
      "y": 381,
      "size": 1,
      "price": "1011000000000000000000",
      "reserved": "",
      "salt": "0x285c7871ccf1e19311545757c953aac8a95f8e206c3c9edf0ad1819ca2dbb4e9",
      "assetIds": []
    },
    {
      "x": 8,
      "y": 382,
      "size": 1,
      "price": "1011000000000000000000",
      "reserved": "",
      "salt": "0x46ce01b9c79c41e1687141fc5ee31ba871ba18ba69f8ec9d7c7816377466c78d",
      "assetIds": []
    },
    {
      "x": 8,
      "y": 383,
      "size": 1,
      "price": "1011000000000000000000",
      "reserved": "",
      "salt": "0x8203d68512b0733137fa79d69ba808f71494f695b79d5b62ef2f8566abbd3163",
      "assetIds": []
    },
    {
      "x": 8,
      "y": 384,
      "size": 1,
      "price": "4683000000000000000000",
      "reserved": "",
      "salt": "0x81fa5a0c0666b11f775a2c19963aae700f1730cb1573f93bc858c02ec5212876",
      "assetIds": [
        "55464657044963196816950587289035428064568320970692304673817341489687891546112",
        "55464657044963196816950587289035428064568320970692304673817341489687891546113",
        "55464657044963196816950587289035428064568320970692304673817341489687899934720",
        "55464657044963196816950587289035428064568320970692304673817341489687899934721",
        "55464657044963196816950587289035428064568320970692304673817341489687908321280"
      ]
    },
    {
      "x": 8,
      "y": 385,
      "size": 1,
      "price": "4683000000000000000000",
      "reserved": "",
      "salt": "0xd342e81a59935cf02e02ec215546b9e12298c030448bb9cc39b2f03804707f92",
      "assetIds": [
        "55464657044963196816950587289035428064568320970692304673817341489687891546112",
        "55464657044963196816950587289035428064568320970692304673817341489687891546113",
        "55464657044963196816950587289035428064568320970692304673817341489687899934720",
        "55464657044963196816950587289035428064568320970692304673817341489687899934721",
        "55464657044963196816950587289035428064568320970692304673817341489687908321280"
      ]
    },
    {
      "x": 8,
      "y": 386,
      "size": 1,
      "price": "4683000000000000000000",
      "reserved": "",
      "salt": "0x7288f90dbd1ac149df65c87ba4f5e735a48d3003c678eaa0eda4eef6e7184cbd",
      "assetIds": [
        "55464657044963196816950587289035428064568320970692304673817341489687891546112",
        "55464657044963196816950587289035428064568320970692304673817341489687891546113",
        "55464657044963196816950587289035428064568320970692304673817341489687899934720",
        "55464657044963196816950587289035428064568320970692304673817341489687899934721",
        "55464657044963196816950587289035428064568320970692304673817341489687908321280"
      ]
    },
    {
      "x": 8,
      "y": 387,
      "size": 1,
      "price": "4683000000000000000000",
      "reserved": "",
      "salt": "0x210485bfaccb726592c8b61e7cc6f48bc6a91f632c1071032a2fd9982c388f5c",
      "assetIds": [
        "55464657044963196816950587289035428064568320970692304673817341489687891546112",
        "55464657044963196816950587289035428064568320970692304673817341489687891546113",
        "55464657044963196816950587289035428064568320970692304673817341489687899934720",
        "55464657044963196816950587289035428064568320970692304673817341489687899934721",
        "55464657044963196816950587289035428064568320970692304673817341489687908321280"
      ]
    },
    {
      "x": 8,
      "y": 388,
      "size": 1,
      "price": "1011000000000000000000",
      "reserved": "",
      "salt": "0x5b8a8dfb362c47f0dbc16dde70a31bd5fca8d0131f721c544c33418e5181ec83",
      "assetIds": []
    },
    {
      "x": 8,
      "y": 389,
      "size": 1,
      "price": "4683000000000000000000",
      "reserved": "",
      "salt": "0x5fa7c17b65999137a0da848e5a71d65084158781c5452955b97d89e78f5f4509",
      "assetIds": [
        "55464657044963196816950587289035428064568320970692304673817341489687891546112",
        "55464657044963196816950587289035428064568320970692304673817341489687891546113",
        "55464657044963196816950587289035428064568320970692304673817341489687899934720",
        "55464657044963196816950587289035428064568320970692304673817341489687899934721",
        "55464657044963196816950587289035428064568320970692304673817341489687908321280"
      ]
    },
    {
      "x": 8,
      "y": 390,
      "size": 1,
      "price": "1011000000000000000000",
      "reserved": "",
      "salt": "0x28f856524b84c7443491303bd970fa7e3d29cfde181036f064494a730f5e98ce",
      "assetIds": []
    },
    {
      "x": 8,
      "y": 391,
      "size": 1,
      "price": "1011000000000000000000",
      "reserved": "",
      "salt": "0xa6cdccc739f395b01d976491353a4215ab7ba7d4f8a3b064fd516d3388fb7656",
      "assetIds": []
    },
    {
      "x": 8,
      "y": 392,
      "size": 1,
      "price": "1011000000000000000000",
      "reserved": "",
      "salt": "0x414baa093ffefefdc3d08826e4b1f44be30bce4ea71912dd860fe8cba08e6bb1",
      "assetIds": []
    },
    {
      "x": 8,
      "y": 393,
      "size": 1,
      "price": "1011000000000000000000",
      "reserved": "",
      "salt": "0x894f4c5866462a01da6545fa1e0d950ffa00394d37371e2ceb7e51aa41fbc250",
      "assetIds": []
    },
    {
      "x": 8,
      "y": 394,
      "size": 1,
      "price": "1011000000000000000000",
      "reserved": "",
      "salt": "0x4ec5b0963d924df04558d84b28c1567272825481c31031931341fde05614078e",
      "assetIds": []
    },
    {
      "x": 8,
      "y": 395,
      "size": 1,
      "price": "1011000000000000000000",
      "reserved": "",
      "salt": "0x222d52b4ad4199faafe9987b7c330e1f6b223f692fe9035f323ca85eb6b0a55e",
      "assetIds": []
    },
    {
      "x": 9,
      "y": 357,
      "size": 1,
      "price": "1011000000000000000000",
      "reserved": "",
      "salt": "0xa876eaf270df02ec11ae677f65e32f6fb07843b4e5291fe41c2a76f5865ab18a",
      "assetIds": []
    },
    {
      "x": 9,
      "y": 358,
      "size": 1,
      "price": "1011000000000000000000",
      "reserved": "",
      "salt": "0xa191c644232b89747f38787e9a87257b0fcd8d40126122e3573e6e616005bbca",
      "assetIds": []
    },
    {
      "x": 9,
      "y": 359,
      "size": 1,
      "price": "1011000000000000000000",
      "reserved": "",
      "salt": "0xb426681474554cfa1551ac96d41f2a0d41b6f75a6c6ee28520394fc8a07284d6",
      "assetIds": []
    },
    {
      "x": 9,
      "y": 378,
      "size": 1,
      "price": "4683000000000000000000",
      "reserved": "",
      "salt": "0x90c8eb9819fc21b64e8d8cd35f74c60e691e66b77eda5abe14be81f0ee6cc660",
      "assetIds": [
        "55464657044963196816950587289035428064568320970692304673817341489687891546112",
        "55464657044963196816950587289035428064568320970692304673817341489687891546113",
        "55464657044963196816950587289035428064568320970692304673817341489687899934720",
        "55464657044963196816950587289035428064568320970692304673817341489687899934721",
        "55464657044963196816950587289035428064568320970692304673817341489687908321280"
      ]
    },
    {
      "x": 9,
      "y": 379,
      "size": 1,
      "price": "1011000000000000000000",
      "reserved": "0x7a9fe22691c811ea339d9b73150e6911a5343dca",
      "salt": "0x182ffd638023baecbab56a105084aad7816f3e4e39aee05e271b50d9852151ba",
      "assetIds": []
    },
    {
      "x": 9,
      "y": 380,
      "size": 1,
      "price": "1011000000000000000000",
      "reserved": "",
      "salt": "0xcf2ac437bb373971ac4053ca9fce647bc43ecf624b5c1b571d100732431fcba7",
      "assetIds": []
    },
    {
      "x": 9,
      "y": 381,
      "size": 1,
      "price": "1011000000000000000000",
      "reserved": "",
      "salt": "0x872532280db20bcf0eff35b71467658abaa636367404ce98ebbc78496460860f",
      "assetIds": []
    },
    {
      "x": 9,
      "y": 382,
      "size": 1,
      "price": "1011000000000000000000",
      "reserved": "",
      "salt": "0xadd3980f2e47f19cb6ff0d0a8167342e8d0f0b01d68ecc57883c8ac90a8a373a",
      "assetIds": []
    },
    {
      "x": 9,
      "y": 383,
      "size": 1,
      "price": "1011000000000000000000",
      "reserved": "",
      "salt": "0xfb250d189743957be45f4a0ecacf27bcaf7feaf62809131b789c8ac7b9a31f22",
      "assetIds": []
    },
    {
      "x": 9,
      "y": 384,
      "size": 1,
      "price": "1011000000000000000000",
      "reserved": "",
      "salt": "0xa30951e6d6959127358b5ac9b8c30d1444df890320489c9b30742bc989151802",
      "assetIds": []
    },
    {
      "x": 9,
      "y": 385,
      "size": 1,
      "price": "1011000000000000000000",
      "reserved": "",
      "salt": "0xc9c1ab5c5e99403f5705df61f1f6cfec206a65185e869f3bf5602fe15554895a",
      "assetIds": []
    },
    {
      "x": 9,
      "y": 386,
      "size": 1,
      "price": "1011000000000000000000",
      "reserved": "",
      "salt": "0x6d1a1a43f68723aa07211dd047c906a5fe38d861f25edf093b008feb68f6c440",
      "assetIds": []
    },
    {
      "x": 9,
      "y": 387,
      "size": 1,
      "price": "1011000000000000000000",
      "reserved": "",
      "salt": "0x3a774a5432f04e1a960697cabac38fb6d506583d3e669e53fcbc20e2e36ddc38",
      "assetIds": []
    },
    {
      "x": 9,
      "y": 388,
      "size": 1,
      "price": "4683000000000000000000",
      "reserved": "",
      "salt": "0xbce860882ad97db90c685b2d17fca8a2a9217b85358e95578d19abdd65e708e6",
      "assetIds": [
        "55464657044963196816950587289035428064568320970692304673817341489687891546112",
        "55464657044963196816950587289035428064568320970692304673817341489687891546113",
        "55464657044963196816950587289035428064568320970692304673817341489687899934720",
        "55464657044963196816950587289035428064568320970692304673817341489687899934721",
        "55464657044963196816950587289035428064568320970692304673817341489687908321280"
      ]
    },
    {
      "x": 9,
      "y": 389,
      "size": 1,
      "price": "1011000000000000000000",
      "reserved": "",
      "salt": "0x12167fca0fd8c3fb164ff9ea0194b7e7392c627af5df2599a9480039befca05e",
      "assetIds": []
    },
    {
      "x": 9,
      "y": 390,
      "size": 1,
      "price": "1011000000000000000000",
      "reserved": "",
      "salt": "0x59b6e9afb9e32602a4ee28ffeab1e7d40f4e87978d5d35fb446173f7d5003297",
      "assetIds": []
    },
    {
      "x": 9,
      "y": 391,
      "size": 1,
      "price": "1011000000000000000000",
      "reserved": "",
      "salt": "0x4ef024337eac18ad4f0a7dba5b4d0a692ef2b12fc982315ade59e7e593fbe5a0",
      "assetIds": []
    },
    {
      "x": 9,
      "y": 392,
      "size": 1,
      "price": "1011000000000000000000",
      "reserved": "",
      "salt": "0xf3ced3a43043746d9ad011967d1818fd8c345544658105e4bf6e671facd492a0",
      "assetIds": []
    },
    {
      "x": 9,
      "y": 393,
      "size": 1,
      "price": "4683000000000000000000",
      "reserved": "",
      "salt": "0x064d973883b948c671183bee1eac80f5ae0f683b02d4b33a368309c26adaeafc",
      "assetIds": [
        "55464657044963196816950587289035428064568320970692304673817341489687891546112",
        "55464657044963196816950587289035428064568320970692304673817341489687891546113",
        "55464657044963196816950587289035428064568320970692304673817341489687899934720",
        "55464657044963196816950587289035428064568320970692304673817341489687899934721",
        "55464657044963196816950587289035428064568320970692304673817341489687908321280"
      ]
    },
    {
      "x": 9,
      "y": 394,
      "size": 1,
      "price": "4683000000000000000000",
      "reserved": "",
      "salt": "0x975eca2001bab007620c3d619a7523db5f0fd900b209af8809f4bcca75d836a4",
      "assetIds": [
        "55464657044963196816950587289035428064568320970692304673817341489687891546112",
        "55464657044963196816950587289035428064568320970692304673817341489687891546113",
        "55464657044963196816950587289035428064568320970692304673817341489687899934720",
        "55464657044963196816950587289035428064568320970692304673817341489687899934721",
        "55464657044963196816950587289035428064568320970692304673817341489687908321280"
      ]
    },
    {
      "x": 9,
      "y": 395,
      "size": 1,
      "price": "4683000000000000000000",
      "reserved": "",
      "salt": "0xe50e6dbe91a7073d0f415eb9ef073a02608a8515f182f8651b48cf39e89e4176",
      "assetIds": [
        "55464657044963196816950587289035428064568320970692304673817341489687891546112",
        "55464657044963196816950587289035428064568320970692304673817341489687891546113",
        "55464657044963196816950587289035428064568320970692304673817341489687899934720",
        "55464657044963196816950587289035428064568320970692304673817341489687899934721",
        "55464657044963196816950587289035428064568320970692304673817341489687908321280"
      ]
    },
    {
      "x": 10,
      "y": 357,
      "size": 1,
      "price": "1011000000000000000000",
      "reserved": "",
      "salt": "0xf6b9f25aabc77dee74cbe307003f7578b34e29982d0e8baa980aece42853faa7",
      "assetIds": []
    },
    {
      "x": 10,
      "y": 358,
      "size": 1,
      "price": "1011000000000000000000",
      "reserved": "",
      "salt": "0xbc6c47ff0162b57bdd6f27350ab7376db147b03996f7b339e408a0970ee70411",
      "assetIds": []
    },
    {
      "x": 10,
      "y": 359,
      "size": 1,
      "price": "1011000000000000000000",
      "reserved": "",
      "salt": "0xa95290168a206113f7b5fa92b4b2d8e8e9243f0ffc2ec98913b4e2912e3814e9",
      "assetIds": []
    },
    {
      "x": 10,
      "y": 378,
      "size": 1,
      "price": "4683000000000000000000",
      "reserved": "",
      "salt": "0xfe611fd6dc9152cc677fb4305f4da9c31e4f1adb132df4f9903ac953a1dc2baa",
      "assetIds": [
        "55464657044963196816950587289035428064568320970692304673817341489687891546112",
        "55464657044963196816950587289035428064568320970692304673817341489687891546113",
        "55464657044963196816950587289035428064568320970692304673817341489687899934720",
        "55464657044963196816950587289035428064568320970692304673817341489687899934721",
        "55464657044963196816950587289035428064568320970692304673817341489687908321280"
      ]
    },
    {
      "x": 10,
      "y": 379,
      "size": 1,
      "price": "4683000000000000000000",
      "reserved": "",
      "salt": "0x9d1504c1a34152b326849ebcc2c7ae8ba1e8312e13019f1d59f78a1fb2b093b1",
      "assetIds": [
        "55464657044963196816950587289035428064568320970692304673817341489687891546112",
        "55464657044963196816950587289035428064568320970692304673817341489687891546113",
        "55464657044963196816950587289035428064568320970692304673817341489687899934720",
        "55464657044963196816950587289035428064568320970692304673817341489687899934721",
        "55464657044963196816950587289035428064568320970692304673817341489687908321280"
      ]
    },
    {
      "x": 10,
      "y": 380,
      "size": 1,
      "price": "1011000000000000000000",
      "reserved": "",
      "salt": "0x56fae2fc8094fdda9f3596cf3c25aa9a393beebd61916649dee9272904f3c137",
      "assetIds": []
    },
    {
      "x": 10,
      "y": 381,
      "size": 1,
      "price": "1011000000000000000000",
      "reserved": "",
      "salt": "0x9dff380b79fcc1e073bff46cc5e1c13b275a0991a53848eae95e6b16f0c29ecb",
      "assetIds": []
    },
    {
      "x": 10,
      "y": 382,
      "size": 1,
      "price": "1011000000000000000000",
      "reserved": "0x7a9fe22691c811ea339d9b73150e6911a5343dca",
      "salt": "0x8cf0a8d39d7cf5d37e26b42dcb7f9810e6d6fad1668a61a3058dc021a36a0cb0",
      "assetIds": []
    },
    {
      "x": 10,
      "y": 383,
      "size": 1,
      "price": "1011000000000000000000",
      "reserved": "0x7a9fe22691c811ea339d9b73150e6911a5343dca",
      "salt": "0x6dac0e932410d03bc597249f6a69bfb9fe94de3dc5f12009c5828a495c07d6f8",
      "assetIds": []
    },
    {
      "x": 10,
      "y": 384,
      "size": 1,
      "price": "4683000000000000000000",
      "reserved": "",
      "salt": "0xf7180d273939f6d76a45b0b9bdeeb4d0b0ee2d9ca71a707d983faa5f38d6c00f",
      "assetIds": [
        "55464657044963196816950587289035428064568320970692304673817341489687891546112",
        "55464657044963196816950587289035428064568320970692304673817341489687891546113",
        "55464657044963196816950587289035428064568320970692304673817341489687899934720",
        "55464657044963196816950587289035428064568320970692304673817341489687899934721",
        "55464657044963196816950587289035428064568320970692304673817341489687908321280"
      ]
    },
    {
      "x": 10,
      "y": 385,
      "size": 1,
      "price": "4683000000000000000000",
      "reserved": "",
      "salt": "0x6956cbd045752fafc0b1cefcf3497ed406d49e0be7716f0d6cce6ccc64037368",
      "assetIds": [
        "55464657044963196816950587289035428064568320970692304673817341489687891546112",
        "55464657044963196816950587289035428064568320970692304673817341489687891546113",
        "55464657044963196816950587289035428064568320970692304673817341489687899934720",
        "55464657044963196816950587289035428064568320970692304673817341489687899934721",
        "55464657044963196816950587289035428064568320970692304673817341489687908321280"
      ]
    },
    {
      "x": 10,
      "y": 386,
      "size": 1,
      "price": "1011000000000000000000",
      "reserved": "0x7a9fe22691c811ea339d9b73150e6911a5343dca",
      "salt": "0x572d2b682dafedf74911c22123b8ba6317aadb1a656ea27ea2cf40823924e415",
      "assetIds": []
    },
    {
      "x": 10,
      "y": 387,
      "size": 1,
      "price": "4683000000000000000000",
      "reserved": "",
      "salt": "0xd40123eb5458a5dcd5ea8654437d24ef07f96a3a81d2812c569f6d71dfd22b1a",
      "assetIds": [
        "55464657044963196816950587289035428064568320970692304673817341489687891546112",
        "55464657044963196816950587289035428064568320970692304673817341489687891546113",
        "55464657044963196816950587289035428064568320970692304673817341489687899934720",
        "55464657044963196816950587289035428064568320970692304673817341489687899934721",
        "55464657044963196816950587289035428064568320970692304673817341489687908321280"
      ]
    },
    {
      "x": 10,
      "y": 388,
      "size": 1,
      "price": "4683000000000000000000",
      "reserved": "",
      "salt": "0x06922dce44759f9919ff5c874a8c3f05f202701fbf8d029484f9822890cf081f",
      "assetIds": [
        "55464657044963196816950587289035428064568320970692304673817341489687891546112",
        "55464657044963196816950587289035428064568320970692304673817341489687891546113",
        "55464657044963196816950587289035428064568320970692304673817341489687899934720",
        "55464657044963196816950587289035428064568320970692304673817341489687899934721",
        "55464657044963196816950587289035428064568320970692304673817341489687908321280"
      ]
    },
    {
      "x": 10,
      "y": 389,
      "size": 1,
      "price": "4683000000000000000000",
      "reserved": "",
      "salt": "0x8978a5f30b817abb2d667d44b343c9c9d347801d33917b7d62fe0841b93e95f5",
      "assetIds": [
        "55464657044963196816950587289035428064568320970692304673817341489687891546112",
        "55464657044963196816950587289035428064568320970692304673817341489687891546113",
        "55464657044963196816950587289035428064568320970692304673817341489687899934720",
        "55464657044963196816950587289035428064568320970692304673817341489687899934721",
        "55464657044963196816950587289035428064568320970692304673817341489687908321280"
      ]
    },
    {
      "x": 10,
      "y": 390,
      "size": 1,
      "price": "1011000000000000000000",
      "reserved": "0x7a9fe22691c811ea339d9b73150e6911a5343dca",
      "salt": "0x3832fe08c5a620f47c1f286f6a7cb637b065d54485bd558501c7adb5110bf2e0",
      "assetIds": []
    },
    {
      "x": 10,
      "y": 391,
      "size": 1,
      "price": "4683000000000000000000",
      "reserved": "",
      "salt": "0x5f53a564f498851226491f72c43375f16d4635ca5a83d04e78dc9cb888419e65",
      "assetIds": [
        "55464657044963196816950587289035428064568320970692304673817341489687891546112",
        "55464657044963196816950587289035428064568320970692304673817341489687891546113",
        "55464657044963196816950587289035428064568320970692304673817341489687899934720",
        "55464657044963196816950587289035428064568320970692304673817341489687899934721",
        "55464657044963196816950587289035428064568320970692304673817341489687908321280"
      ]
    },
    {
      "x": 10,
      "y": 392,
      "size": 1,
      "price": "1011000000000000000000",
      "reserved": "0x7a9fe22691c811ea339d9b73150e6911a5343dca",
      "salt": "0x0a751260c101c999bc34ddb2f01085550d32f610dfd3084459d1899f7af6f50b",
      "assetIds": []
    },
    {
      "x": 10,
      "y": 393,
      "size": 1,
      "price": "4683000000000000000000",
      "reserved": "",
      "salt": "0x3ada0a54bdfc17a93f6965763124385305cdc63a9f749e2c83e63e8cb6f90ff9",
      "assetIds": [
        "55464657044963196816950587289035428064568320970692304673817341489687891546112",
        "55464657044963196816950587289035428064568320970692304673817341489687891546113",
        "55464657044963196816950587289035428064568320970692304673817341489687899934720",
        "55464657044963196816950587289035428064568320970692304673817341489687899934721",
        "55464657044963196816950587289035428064568320970692304673817341489687908321280"
      ]
    },
    {
      "x": 10,
      "y": 394,
      "size": 1,
      "price": "4683000000000000000000",
      "reserved": "",
      "salt": "0xf69dbb0178185810d0fc9718189527123a8eb640030ecf4d7387daee04ca939a",
      "assetIds": [
        "55464657044963196816950587289035428064568320970692304673817341489687891546112",
        "55464657044963196816950587289035428064568320970692304673817341489687891546113",
        "55464657044963196816950587289035428064568320970692304673817341489687899934720",
        "55464657044963196816950587289035428064568320970692304673817341489687899934721",
        "55464657044963196816950587289035428064568320970692304673817341489687908321280"
      ]
    },
    {
      "x": 10,
      "y": 395,
      "size": 1,
      "price": "4683000000000000000000",
      "reserved": "",
      "salt": "0x811412085feb742fc71667021d85229ea3086e8192a92a2328bf47518d78bc3b",
      "assetIds": [
        "55464657044963196816950587289035428064568320970692304673817341489687891546112",
        "55464657044963196816950587289035428064568320970692304673817341489687891546113",
        "55464657044963196816950587289035428064568320970692304673817341489687899934720",
        "55464657044963196816950587289035428064568320970692304673817341489687899934721",
        "55464657044963196816950587289035428064568320970692304673817341489687908321280"
      ]
    },
    {
      "x": 11,
      "y": 357,
      "size": 1,
      "price": "1011000000000000000000",
      "reserved": "",
      "salt": "0x49a3673e403bfb716bcc304da3291060b3faa327ba72e541e09e99933c309466",
      "assetIds": []
    },
    {
      "x": 11,
      "y": 358,
      "size": 1,
      "price": "1011000000000000000000",
      "reserved": "",
      "salt": "0x9598044f4ffc6e37a019c50d69b26235ed517842f9722354a8d613fca5d86747",
      "assetIds": []
    },
    {
      "x": 11,
      "y": 359,
      "size": 1,
      "price": "1011000000000000000000",
      "reserved": "0x7a9fe22691c811ea339d9b73150e6911a5343dca",
      "salt": "0xc42aa5c4404358bc20b5a3edbb55b23ac589d84b5eb8ba887478be7947d5603f",
      "assetIds": []
    },
    {
      "x": 11,
      "y": 378,
      "size": 1,
      "price": "4683000000000000000000",
      "reserved": "",
      "salt": "0xc07d25eb5dc5e9629439b54bd6652da98714332ed2d0c5a548bf2f67ec4e7223",
      "assetIds": [
        "55464657044963196816950587289035428064568320970692304673817341489687891546112",
        "55464657044963196816950587289035428064568320970692304673817341489687891546113",
        "55464657044963196816950587289035428064568320970692304673817341489687899934720",
        "55464657044963196816950587289035428064568320970692304673817341489687899934721",
        "55464657044963196816950587289035428064568320970692304673817341489687908321280"
      ]
    },
    {
      "x": 11,
      "y": 379,
      "size": 1,
      "price": "4683000000000000000000",
      "reserved": "",
      "salt": "0xa121c334d69f8746da70bfc9663ee1615c17761c6601dbfc89dd14776e9c22e4",
      "assetIds": [
        "55464657044963196816950587289035428064568320970692304673817341489687891546112",
        "55464657044963196816950587289035428064568320970692304673817341489687891546113",
        "55464657044963196816950587289035428064568320970692304673817341489687899934720",
        "55464657044963196816950587289035428064568320970692304673817341489687899934721",
        "55464657044963196816950587289035428064568320970692304673817341489687908321280"
      ]
    },
    {
      "x": 11,
      "y": 380,
      "size": 1,
      "price": "1011000000000000000000",
      "reserved": "0x7a9fe22691c811ea339d9b73150e6911a5343dca",
      "salt": "0x4ebaa0b50bcb66212045ebdad1edb992258e270948dee68234e8ae46ba9223a8",
      "assetIds": []
    },
    {
      "x": 11,
      "y": 381,
      "size": 1,
      "price": "1011000000000000000000",
      "reserved": "",
      "salt": "0xb272567c38549045afdf9881cb186b90ca9192e80ec88fb5c6cbbc44b9764c42",
      "assetIds": []
    },
    {
      "x": 11,
      "y": 382,
      "size": 1,
      "price": "4683000000000000000000",
      "reserved": "",
      "salt": "0x65b9fe229a99b8739b90fdebf15a51c091b99651cebb2be47afa9182316defce",
      "assetIds": [
        "55464657044963196816950587289035428064568320970692304673817341489687891546112",
        "55464657044963196816950587289035428064568320970692304673817341489687891546113",
        "55464657044963196816950587289035428064568320970692304673817341489687899934720",
        "55464657044963196816950587289035428064568320970692304673817341489687899934721",
        "55464657044963196816950587289035428064568320970692304673817341489687908321280"
      ]
    },
    {
      "x": 11,
      "y": 383,
      "size": 1,
      "price": "4683000000000000000000",
      "reserved": "",
      "salt": "0xb8c2b78bd8ac811d94b532177e9b36d74d09f274833ae0c665eee823c3fb8c0b",
      "assetIds": [
        "55464657044963196816950587289035428064568320970692304673817341489687891546112",
        "55464657044963196816950587289035428064568320970692304673817341489687891546113",
        "55464657044963196816950587289035428064568320970692304673817341489687899934720",
        "55464657044963196816950587289035428064568320970692304673817341489687899934721",
        "55464657044963196816950587289035428064568320970692304673817341489687908321280"
      ]
    },
    {
      "x": 11,
      "y": 384,
      "size": 1,
      "price": "4683000000000000000000",
      "reserved": "",
      "salt": "0x0504d4a661ecf4dd8eeaebc65973a3a9dcd10e7c6a4160104af4e75f53e05d95",
      "assetIds": [
        "55464657044963196816950587289035428064568320970692304673817341489687891546112",
        "55464657044963196816950587289035428064568320970692304673817341489687891546113",
        "55464657044963196816950587289035428064568320970692304673817341489687899934720",
        "55464657044963196816950587289035428064568320970692304673817341489687899934721",
        "55464657044963196816950587289035428064568320970692304673817341489687908321280"
      ]
    },
    {
      "x": 11,
      "y": 385,
      "size": 1,
      "price": "4683000000000000000000",
      "reserved": "",
      "salt": "0x22b57d3d7aca2944af80a64f48bdfd18b21a49789ae542d1c6b8fa5802738171",
      "assetIds": [
        "55464657044963196816950587289035428064568320970692304673817341489687891546112",
        "55464657044963196816950587289035428064568320970692304673817341489687891546113",
        "55464657044963196816950587289035428064568320970692304673817341489687899934720",
        "55464657044963196816950587289035428064568320970692304673817341489687899934721",
        "55464657044963196816950587289035428064568320970692304673817341489687908321280"
      ]
    },
    {
      "x": 11,
      "y": 386,
      "size": 1,
      "price": "4683000000000000000000",
      "reserved": "",
      "salt": "0xef6f90ca6894a021bbe85d1be9a3a51f2598b91526134125ee91e1ab774ac397",
      "assetIds": [
        "55464657044963196816950587289035428064568320970692304673817341489687891546112",
        "55464657044963196816950587289035428064568320970692304673817341489687891546113",
        "55464657044963196816950587289035428064568320970692304673817341489687899934720",
        "55464657044963196816950587289035428064568320970692304673817341489687899934721",
        "55464657044963196816950587289035428064568320970692304673817341489687908321280"
      ]
    },
    {
      "x": 11,
      "y": 387,
      "size": 1,
      "price": "4683000000000000000000",
      "reserved": "",
      "salt": "0xb432d3ca7d86927b1dce734691840c07d623cee3e86cc88af985dc6a653526e6",
      "assetIds": [
        "55464657044963196816950587289035428064568320970692304673817341489687891546112",
        "55464657044963196816950587289035428064568320970692304673817341489687891546113",
        "55464657044963196816950587289035428064568320970692304673817341489687899934720",
        "55464657044963196816950587289035428064568320970692304673817341489687899934721",
        "55464657044963196816950587289035428064568320970692304673817341489687908321280"
      ]
    },
    {
      "x": 11,
      "y": 388,
      "size": 1,
      "price": "4683000000000000000000",
      "reserved": "",
      "salt": "0xaa48156c586c567d5b802d7e8dc41a7dcd470fcaf3cc5777514b46ad17addba4",
      "assetIds": [
        "55464657044963196816950587289035428064568320970692304673817341489687891546112",
        "55464657044963196816950587289035428064568320970692304673817341489687891546113",
        "55464657044963196816950587289035428064568320970692304673817341489687899934720",
        "55464657044963196816950587289035428064568320970692304673817341489687899934721",
        "55464657044963196816950587289035428064568320970692304673817341489687908321280"
      ]
    },
    {
      "x": 11,
      "y": 389,
      "size": 1,
      "price": "4683000000000000000000",
      "reserved": "",
      "salt": "0x549dc50e2ba8d1ef00f1567f72a037cd7631345cecabb9b22bb14f554d418570",
      "assetIds": [
        "55464657044963196816950587289035428064568320970692304673817341489687891546112",
        "55464657044963196816950587289035428064568320970692304673817341489687891546113",
        "55464657044963196816950587289035428064568320970692304673817341489687899934720",
        "55464657044963196816950587289035428064568320970692304673817341489687899934721",
        "55464657044963196816950587289035428064568320970692304673817341489687908321280"
      ]
    },
    {
      "x": 11,
      "y": 390,
      "size": 1,
      "price": "4683000000000000000000",
      "reserved": "",
      "salt": "0x7b5bb10bf90f52d1e0e605ea645b748be2251e5a808614b47ba5ffd2e977deaa",
      "assetIds": [
        "55464657044963196816950587289035428064568320970692304673817341489687891546112",
        "55464657044963196816950587289035428064568320970692304673817341489687891546113",
        "55464657044963196816950587289035428064568320970692304673817341489687899934720",
        "55464657044963196816950587289035428064568320970692304673817341489687899934721",
        "55464657044963196816950587289035428064568320970692304673817341489687908321280"
      ]
    },
    {
      "x": 11,
      "y": 391,
      "size": 1,
      "price": "4683000000000000000000",
      "reserved": "",
      "salt": "0x6169c856e92026237610ec53f23c38057ff40d147b77fba3f1af34c0f9eaeed2",
      "assetIds": [
        "55464657044963196816950587289035428064568320970692304673817341489687891546112",
        "55464657044963196816950587289035428064568320970692304673817341489687891546113",
        "55464657044963196816950587289035428064568320970692304673817341489687899934720",
        "55464657044963196816950587289035428064568320970692304673817341489687899934721",
        "55464657044963196816950587289035428064568320970692304673817341489687908321280"
      ]
    },
    {
      "x": 11,
      "y": 392,
      "size": 1,
      "price": "4683000000000000000000",
      "reserved": "",
      "salt": "0x40ce565bef8b01cc46656858b2f03d93a59a63070bfddc7cbca483ffd6d9d6d8",
      "assetIds": [
        "55464657044963196816950587289035428064568320970692304673817341489687891546112",
        "55464657044963196816950587289035428064568320970692304673817341489687891546113",
        "55464657044963196816950587289035428064568320970692304673817341489687899934720",
        "55464657044963196816950587289035428064568320970692304673817341489687899934721",
        "55464657044963196816950587289035428064568320970692304673817341489687908321280"
      ]
    },
    {
      "x": 11,
      "y": 393,
      "size": 1,
      "price": "4683000000000000000000",
      "reserved": "",
      "salt": "0x23ad17aaff8257c8818646c0e23073766272ede62cec3ddece4fca7f49220b04",
      "assetIds": [
        "55464657044963196816950587289035428064568320970692304673817341489687891546112",
        "55464657044963196816950587289035428064568320970692304673817341489687891546113",
        "55464657044963196816950587289035428064568320970692304673817341489687899934720",
        "55464657044963196816950587289035428064568320970692304673817341489687899934721",
        "55464657044963196816950587289035428064568320970692304673817341489687908321280"
      ]
    },
    {
      "x": 11,
      "y": 394,
      "size": 1,
      "price": "4683000000000000000000",
      "reserved": "",
      "salt": "0xa49ab9910ba0f579d247d592a0de466344f273de8ae905ed047b8191998c4600",
      "assetIds": [
        "55464657044963196816950587289035428064568320970692304673817341489687891546112",
        "55464657044963196816950587289035428064568320970692304673817341489687891546113",
        "55464657044963196816950587289035428064568320970692304673817341489687899934720",
        "55464657044963196816950587289035428064568320970692304673817341489687899934721",
        "55464657044963196816950587289035428064568320970692304673817341489687908321280"
      ]
    },
    {
      "x": 11,
      "y": 395,
      "size": 1,
      "price": "4683000000000000000000",
      "reserved": "",
      "salt": "0x69f24bd8b1c5c86532605802903e66baa45eaa26e463e90d6e39c72688cf50d2",
      "assetIds": [
        "55464657044963196816950587289035428064568320970692304673817341489687891546112",
        "55464657044963196816950587289035428064568320970692304673817341489687891546113",
        "55464657044963196816950587289035428064568320970692304673817341489687899934720",
        "55464657044963196816950587289035428064568320970692304673817341489687899934721",
        "55464657044963196816950587289035428064568320970692304673817341489687908321280"
      ]
    },
    {
      "x": 12,
      "y": 366,
      "size": 1,
      "price": "1011000000000000000000",
      "reserved": "",
      "salt": "0xe97fae2bb26613ad44edfc4064db4f9340bc6bf78aed690f5109786095b8e86c",
      "assetIds": []
    },
    {
      "x": 12,
      "y": 367,
      "size": 1,
      "price": "1011000000000000000000",
      "reserved": "",
      "salt": "0xef70d153759bf2f16da1b003d2dbf4d0f21ecdce0f3f3644162f827d62f4b6c5",
      "assetIds": []
    },
    {
      "x": 12,
      "y": 368,
      "size": 1,
      "price": "1011000000000000000000",
      "reserved": "",
      "salt": "0x2b52b4f6d6e904f2ee091f94190c0c0383b42ac8dd8eb189462900e36e8a4784",
      "assetIds": []
    },
    {
      "x": 12,
      "y": 369,
      "size": 1,
      "price": "1011000000000000000000",
      "reserved": "",
      "salt": "0x31551d7ee02e091b2f0d69484b4d50d5f9ee60a6c77eb69187aa5b5234b7be28",
      "assetIds": []
    },
    {
      "x": 12,
      "y": 370,
      "size": 1,
      "price": "1011000000000000000000",
      "reserved": "",
      "salt": "0xbfd855acbd2907e6b3eb4bdaa11e4451d84df3759b995beeb5f5b95e76c57e6b",
      "assetIds": []
    },
    {
      "x": 12,
      "y": 371,
      "size": 1,
      "price": "1011000000000000000000",
      "reserved": "",
      "salt": "0x3bc7628deb297b6b8413c5934b5afdfcad7257e1866dd7fdda2965ba5b4641b3",
      "assetIds": []
    },
    {
      "x": 12,
      "y": 372,
      "size": 1,
      "price": "4683000000000000000000",
      "reserved": "",
      "salt": "0x4c45dc910ef4788fdd9e38fc63fbbdc260af873932fc5beb4eef7f5128a85fb2",
      "assetIds": [
        "55464657044963196816950587289035428064568320970692304673817341489687891546112",
        "55464657044963196816950587289035428064568320970692304673817341489687891546113",
        "55464657044963196816950587289035428064568320970692304673817341489687899934720",
        "55464657044963196816950587289035428064568320970692304673817341489687899934721",
        "55464657044963196816950587289035428064568320970692304673817341489687908321280"
      ]
    },
    {
      "x": 12,
      "y": 373,
      "size": 1,
      "price": "4683000000000000000000",
      "reserved": "",
      "salt": "0xe39fb53539efd9399384c1a02d11dc9058768fcc68c018ee3a17e3519f869ba7",
      "assetIds": [
        "55464657044963196816950587289035428064568320970692304673817341489687891546112",
        "55464657044963196816950587289035428064568320970692304673817341489687891546113",
        "55464657044963196816950587289035428064568320970692304673817341489687899934720",
        "55464657044963196816950587289035428064568320970692304673817341489687899934721",
        "55464657044963196816950587289035428064568320970692304673817341489687908321280"
      ]
    },
    {
      "x": 12,
      "y": 374,
      "size": 1,
      "price": "4683000000000000000000",
      "reserved": "",
      "salt": "0x168fdd95ad7e6a28053466815ecda89b70d4058d51669267391fd1234e1499a0",
      "assetIds": [
        "55464657044963196816950587289035428064568320970692304673817341489687891546112",
        "55464657044963196816950587289035428064568320970692304673817341489687891546113",
        "55464657044963196816950587289035428064568320970692304673817341489687899934720",
        "55464657044963196816950587289035428064568320970692304673817341489687899934721",
        "55464657044963196816950587289035428064568320970692304673817341489687908321280"
      ]
    },
    {
      "x": 12,
      "y": 375,
      "size": 1,
      "price": "4683000000000000000000",
      "reserved": "",
      "salt": "0x2e65f9aaedbe967f17ac3ea3e7c0bed674fb0235a1eb1e154d146ab6338aceda",
      "assetIds": [
        "55464657044963196816950587289035428064568320970692304673817341489687891546112",
        "55464657044963196816950587289035428064568320970692304673817341489687891546113",
        "55464657044963196816950587289035428064568320970692304673817341489687899934720",
        "55464657044963196816950587289035428064568320970692304673817341489687899934721",
        "55464657044963196816950587289035428064568320970692304673817341489687908321280"
      ]
    },
    {
      "x": 12,
      "y": 376,
      "size": 1,
      "price": "4683000000000000000000",
      "reserved": "",
      "salt": "0xe9051474e7eaa7e4eb7219855c85a455fff3cfa4d50979ad5edf6dc5cdb498ee",
      "assetIds": [
        "55464657044963196816950587289035428064568320970692304673817341489687891546112",
        "55464657044963196816950587289035428064568320970692304673817341489687891546113",
        "55464657044963196816950587289035428064568320970692304673817341489687899934720",
        "55464657044963196816950587289035428064568320970692304673817341489687899934721",
        "55464657044963196816950587289035428064568320970692304673817341489687908321280"
      ]
    },
    {
      "x": 12,
      "y": 377,
      "size": 1,
      "price": "4683000000000000000000",
      "reserved": "",
      "salt": "0xcf052414dc2a705e4b66db24768950cf296ed349abbbd50add3d6081f990291f",
      "assetIds": [
        "55464657044963196816950587289035428064568320970692304673817341489687891546112",
        "55464657044963196816950587289035428064568320970692304673817341489687891546113",
        "55464657044963196816950587289035428064568320970692304673817341489687899934720",
        "55464657044963196816950587289035428064568320970692304673817341489687899934721",
        "55464657044963196816950587289035428064568320970692304673817341489687908321280"
      ]
    },
    {
      "x": 12,
      "y": 378,
      "size": 1,
      "price": "4683000000000000000000",
      "reserved": "",
      "salt": "0x98464f90d35f5f29a2a5df8dc26ce17877746691da2313ff7858448fcdc47468",
      "assetIds": [
        "55464657044963196816950587289035428064568320970692304673817341489687891546112",
        "55464657044963196816950587289035428064568320970692304673817341489687891546113",
        "55464657044963196816950587289035428064568320970692304673817341489687899934720",
        "55464657044963196816950587289035428064568320970692304673817341489687899934721",
        "55464657044963196816950587289035428064568320970692304673817341489687908321280"
      ]
    },
    {
      "x": 12,
      "y": 379,
      "size": 1,
      "price": "4683000000000000000000",
      "reserved": "",
      "salt": "0x4b6e089aecc2fb8184b22f5df0613e8619a9888aba6a25987dd1130a5b128e8a",
      "assetIds": [
        "55464657044963196816950587289035428064568320970692304673817341489687891546112",
        "55464657044963196816950587289035428064568320970692304673817341489687891546113",
        "55464657044963196816950587289035428064568320970692304673817341489687899934720",
        "55464657044963196816950587289035428064568320970692304673817341489687899934721",
        "55464657044963196816950587289035428064568320970692304673817341489687908321280"
      ]
    },
    {
      "x": 12,
      "y": 380,
      "size": 1,
      "price": "1011000000000000000000",
      "reserved": "",
      "salt": "0x179a9a599d26a946b3a823bd3a2ce3c38222a0c386096d7823b2e2c951290530",
      "assetIds": []
    },
    {
      "x": 12,
      "y": 381,
      "size": 1,
      "price": "1011000000000000000000",
      "reserved": "",
      "salt": "0x4e823959ccf9058636e1ab9509f3d8d50f185ecce3fd1993463a9b33d386f0be",
      "assetIds": []
    },
    {
      "x": 12,
      "y": 382,
      "size": 1,
      "price": "1011000000000000000000",
      "reserved": "",
      "salt": "0x236521f4ee90d95c650e8daccbaa2d0826081dd164c1bf4ccdb051015a5b0c2a",
      "assetIds": []
    },
    {
      "x": 12,
      "y": 383,
      "size": 1,
      "price": "4683000000000000000000",
      "reserved": "",
      "salt": "0x6061b2ac8de4bfba3389b2d5bdfd10e673e4e01f4ee7e92a67795e66021debd9",
      "assetIds": [
        "55464657044963196816950587289035428064568320970692304673817341489687891546112",
        "55464657044963196816950587289035428064568320970692304673817341489687891546113",
        "55464657044963196816950587289035428064568320970692304673817341489687899934720",
        "55464657044963196816950587289035428064568320970692304673817341489687899934721",
        "55464657044963196816950587289035428064568320970692304673817341489687908321280"
      ]
    },
    {
      "x": 12,
      "y": 396,
      "size": 1,
      "price": "4683000000000000000000",
      "reserved": "",
      "salt": "0x8d9c3a1ad783fe4b0ba40a785efb93431c3f31e7dad9acdeef3907bc8d42fc25",
      "assetIds": [
        "55464657044963196816950587289035428064568320970692304673817341489687891546112",
        "55464657044963196816950587289035428064568320970692304673817341489687891546113",
        "55464657044963196816950587289035428064568320970692304673817341489687899934720",
        "55464657044963196816950587289035428064568320970692304673817341489687899934721",
        "55464657044963196816950587289035428064568320970692304673817341489687908321280"
      ]
    },
    {
      "x": 12,
      "y": 397,
      "size": 1,
      "price": "1011000000000000000000",
      "reserved": "0x7a9fe22691c811ea339d9b73150e6911a5343dca",
      "salt": "0xdfca690a4a60e63e00df971a1694574cc16cc5188af48bebcffdee5ee18bcfbf",
      "assetIds": []
    },
    {
      "x": 12,
      "y": 398,
      "size": 1,
      "price": "4683000000000000000000",
      "reserved": "",
      "salt": "0xb40ec12bd1c5dada7ef4f4f0aee85817ca7e79f12b9457d2ec0b58096d6f969c",
      "assetIds": [
        "55464657044963196816950587289035428064568320970692304673817341489687891546112",
        "55464657044963196816950587289035428064568320970692304673817341489687891546113",
        "55464657044963196816950587289035428064568320970692304673817341489687899934720",
        "55464657044963196816950587289035428064568320970692304673817341489687899934721",
        "55464657044963196816950587289035428064568320970692304673817341489687908321280"
      ]
    },
    {
      "x": 12,
      "y": 399,
      "size": 1,
      "price": "1011000000000000000000",
      "reserved": "",
      "salt": "0x4e8d6565a0b9fa8abf72d49ee75a8ac339b640280144f9d8e6e8bc0a6b36e377",
      "assetIds": []
    },
    {
      "x": 12,
      "y": 400,
      "size": 1,
      "price": "1011000000000000000000",
      "reserved": "",
      "salt": "0xa08fddad3fc602898476ac8b3661489c69bf72613e21ffdbd9323affab57c35f",
      "assetIds": []
    },
    {
      "x": 12,
      "y": 401,
      "size": 1,
      "price": "1011000000000000000000",
      "reserved": "",
      "salt": "0x5c933f851fdab658bfcdf8f03f2f1a58ab267f972a72e651a5de5700773b2181",
      "assetIds": []
    },
    {
      "x": 13,
      "y": 366,
      "size": 1,
      "price": "1011000000000000000000",
      "reserved": "",
      "salt": "0x1b4907fcfd21ae505411b0e91866faf8a5a05fdbeb53efabe4feef96ad19ada5",
      "assetIds": []
    },
    {
      "x": 13,
      "y": 367,
      "size": 1,
      "price": "1011000000000000000000",
      "reserved": "",
      "salt": "0x88ed7f3a7709b2e1a88a4e067d4465b7852e6e64f3740d0c4297e8615f735b7c",
      "assetIds": []
    },
    {
      "x": 13,
      "y": 368,
      "size": 1,
      "price": "1011000000000000000000",
      "reserved": "",
      "salt": "0xc92d1620a27bfcba8dc744c1c89422661610945ee068c7264c0417c8c7cbc869",
      "assetIds": []
    },
    {
      "x": 13,
      "y": 369,
      "size": 1,
      "price": "1011000000000000000000",
      "reserved": "",
      "salt": "0x7e74c9699804ac866392da53c2549cbfc441385d244279a400a53aa1384b33ca",
      "assetIds": []
    },
    {
      "x": 13,
      "y": 370,
      "size": 1,
      "price": "1011000000000000000000",
      "reserved": "",
      "salt": "0xe8a05638722e3fba5a4eeac62204ad0b0d57c67ea1a7da4776b8bf0d708e882c",
      "assetIds": []
    },
    {
      "x": 13,
      "y": 371,
      "size": 1,
      "price": "1011000000000000000000",
      "reserved": "",
      "salt": "0x7b980012ebc02ce047c9aa262611b0607faf158cc7811c480be8f63c9d1c013e",
      "assetIds": []
    },
    {
      "x": 13,
      "y": 372,
      "size": 1,
      "price": "4683000000000000000000",
      "reserved": "",
      "salt": "0x346c1ba4fd9838497adbf0b9e53843b40c99a3c40e6035b8a43c31c0a189698d",
      "assetIds": [
        "55464657044963196816950587289035428064568320970692304673817341489687891546112",
        "55464657044963196816950587289035428064568320970692304673817341489687891546113",
        "55464657044963196816950587289035428064568320970692304673817341489687899934720",
        "55464657044963196816950587289035428064568320970692304673817341489687899934721",
        "55464657044963196816950587289035428064568320970692304673817341489687908321280"
      ]
    },
    {
      "x": 13,
      "y": 373,
      "size": 1,
      "price": "4683000000000000000000",
      "reserved": "",
      "salt": "0xaf41a1d71e07c9fbf713be679f6177864041cdcd12040c49f5f798c99a63fe2c",
      "assetIds": [
        "55464657044963196816950587289035428064568320970692304673817341489687891546112",
        "55464657044963196816950587289035428064568320970692304673817341489687891546113",
        "55464657044963196816950587289035428064568320970692304673817341489687899934720",
        "55464657044963196816950587289035428064568320970692304673817341489687899934721",
        "55464657044963196816950587289035428064568320970692304673817341489687908321280"
      ]
    },
    {
      "x": 13,
      "y": 374,
      "size": 1,
      "price": "1011000000000000000000",
      "reserved": "0x7a9fe22691c811ea339d9b73150e6911a5343dca",
      "salt": "0x4aa4522e9bbc0e8c05474c6ed29c4de5932597d4e28c2abd1cbd68e27d11c807",
      "assetIds": []
    },
    {
      "x": 13,
      "y": 375,
      "size": 1,
      "price": "4683000000000000000000",
      "reserved": "",
      "salt": "0xa2a1d7372141988818f0d6b3d88267ddce79fab47022e0e115b936dc79a1562a",
      "assetIds": [
        "55464657044963196816950587289035428064568320970692304673817341489687891546112",
        "55464657044963196816950587289035428064568320970692304673817341489687891546113",
        "55464657044963196816950587289035428064568320970692304673817341489687899934720",
        "55464657044963196816950587289035428064568320970692304673817341489687899934721",
        "55464657044963196816950587289035428064568320970692304673817341489687908321280"
      ]
    },
    {
      "x": 13,
      "y": 376,
      "size": 1,
      "price": "1011000000000000000000",
      "reserved": "0x7a9fe22691c811ea339d9b73150e6911a5343dca",
      "salt": "0x225e6e67ca1722925a640ecbde35eb8cbe162911ac8d70038dab16964f5a6635",
      "assetIds": []
    },
    {
      "x": 13,
      "y": 377,
      "size": 1,
      "price": "4683000000000000000000",
      "reserved": "",
      "salt": "0xd924093df293c63e30ad3b30a6dfda13110494299b96a824ae8ac7fdfcfa76cf",
      "assetIds": [
        "55464657044963196816950587289035428064568320970692304673817341489687891546112",
        "55464657044963196816950587289035428064568320970692304673817341489687891546113",
        "55464657044963196816950587289035428064568320970692304673817341489687899934720",
        "55464657044963196816950587289035428064568320970692304673817341489687899934721",
        "55464657044963196816950587289035428064568320970692304673817341489687908321280"
      ]
    },
    {
      "x": 13,
      "y": 378,
      "size": 1,
      "price": "4683000000000000000000",
      "reserved": "",
      "salt": "0xdd5b8c3a99b74dfe1b37301c8f2000ad53b74a7a0538a9641199d672eb33b983",
      "assetIds": [
        "55464657044963196816950587289035428064568320970692304673817341489687891546112",
        "55464657044963196816950587289035428064568320970692304673817341489687891546113",
        "55464657044963196816950587289035428064568320970692304673817341489687899934720",
        "55464657044963196816950587289035428064568320970692304673817341489687899934721",
        "55464657044963196816950587289035428064568320970692304673817341489687908321280"
      ]
    },
    {
      "x": 13,
      "y": 379,
      "size": 1,
      "price": "4683000000000000000000",
      "reserved": "",
      "salt": "0xe22f6ee1140f968a2f0a435a104cf21f35b4a6d020f48c79f1787d1dc6358e7b",
      "assetIds": [
        "55464657044963196816950587289035428064568320970692304673817341489687891546112",
        "55464657044963196816950587289035428064568320970692304673817341489687891546113",
        "55464657044963196816950587289035428064568320970692304673817341489687899934720",
        "55464657044963196816950587289035428064568320970692304673817341489687899934721",
        "55464657044963196816950587289035428064568320970692304673817341489687908321280"
      ]
    },
    {
      "x": 13,
      "y": 380,
      "size": 1,
      "price": "1011000000000000000000",
      "reserved": "",
      "salt": "0x4b9a53d90d8c7d49789355f95ba73e2673ace988fa56125989d7d16620e084a0",
      "assetIds": []
    },
    {
      "x": 13,
      "y": 381,
      "size": 1,
      "price": "1011000000000000000000",
      "reserved": "",
      "salt": "0xbb22f0840387897c07bdf2e5c016e0da1762c240564f4f13f41932cb78dae1da",
      "assetIds": []
    },
    {
      "x": 13,
      "y": 382,
      "size": 1,
      "price": "4683000000000000000000",
      "reserved": "",
      "salt": "0xe0a1130d3e134122eb1e6e7c1ce7fd6eaf6067f9ddae173477c2297b28478e98",
      "assetIds": [
        "55464657044963196816950587289035428064568320970692304673817341489687891546112",
        "55464657044963196816950587289035428064568320970692304673817341489687891546113",
        "55464657044963196816950587289035428064568320970692304673817341489687899934720",
        "55464657044963196816950587289035428064568320970692304673817341489687899934721",
        "55464657044963196816950587289035428064568320970692304673817341489687908321280"
      ]
    },
    {
      "x": 13,
      "y": 383,
      "size": 1,
      "price": "4683000000000000000000",
      "reserved": "",
      "salt": "0xc6b9e323a615a1e62e1df49ee719bdf3d6f8cae63fdac7c090880755f9cdf23b",
      "assetIds": [
        "55464657044963196816950587289035428064568320970692304673817341489687891546112",
        "55464657044963196816950587289035428064568320970692304673817341489687891546113",
        "55464657044963196816950587289035428064568320970692304673817341489687899934720",
        "55464657044963196816950587289035428064568320970692304673817341489687899934721",
        "55464657044963196816950587289035428064568320970692304673817341489687908321280"
      ]
    },
    {
      "x": 13,
      "y": 396,
      "size": 1,
      "price": "4683000000000000000000",
      "reserved": "",
      "salt": "0x404c4239365e2bbada1023a3552b6b3a79f5c80e274ba25272116d7a942869f1",
      "assetIds": [
        "55464657044963196816950587289035428064568320970692304673817341489687891546112",
        "55464657044963196816950587289035428064568320970692304673817341489687891546113",
        "55464657044963196816950587289035428064568320970692304673817341489687899934720",
        "55464657044963196816950587289035428064568320970692304673817341489687899934721",
        "55464657044963196816950587289035428064568320970692304673817341489687908321280"
      ]
    },
    {
      "x": 13,
      "y": 397,
      "size": 1,
      "price": "4683000000000000000000",
      "reserved": "",
      "salt": "0x6f4c043f6919e582ba4b1fb9e23c455947235b1a53a633a96ca2062ae306e011",
      "assetIds": [
        "55464657044963196816950587289035428064568320970692304673817341489687891546112",
        "55464657044963196816950587289035428064568320970692304673817341489687891546113",
        "55464657044963196816950587289035428064568320970692304673817341489687899934720",
        "55464657044963196816950587289035428064568320970692304673817341489687899934721",
        "55464657044963196816950587289035428064568320970692304673817341489687908321280"
      ]
    },
    {
      "x": 13,
      "y": 398,
      "size": 1,
      "price": "4683000000000000000000",
      "reserved": "",
      "salt": "0xdadfeb30676382b86fc5e37d7b3545708af664095f5c35c96e8e3871bbc9d369",
      "assetIds": [
        "55464657044963196816950587289035428064568320970692304673817341489687891546112",
        "55464657044963196816950587289035428064568320970692304673817341489687891546113",
        "55464657044963196816950587289035428064568320970692304673817341489687899934720",
        "55464657044963196816950587289035428064568320970692304673817341489687899934721",
        "55464657044963196816950587289035428064568320970692304673817341489687908321280"
      ]
    },
    {
      "x": 13,
      "y": 399,
      "size": 1,
      "price": "1011000000000000000000",
      "reserved": "",
      "salt": "0x1972f3544b513ab4126d66c304a473ac890c67a51d234f68d3c7b379e2450801",
      "assetIds": []
    },
    {
      "x": 13,
      "y": 400,
      "size": 1,
      "price": "1011000000000000000000",
      "reserved": "",
      "salt": "0xca588a36de6d8074f5c04944f5f6c38ec00137b27701b81d435ef939e23aceb3",
      "assetIds": []
    },
    {
      "x": 13,
      "y": 401,
      "size": 1,
      "price": "1011000000000000000000",
      "reserved": "",
      "salt": "0x2fc81289ef64342c957adc7cdb9b78e256deb65800a4a272790ba7e40a677f41",
      "assetIds": []
    },
    {
      "x": 14,
      "y": 366,
      "size": 1,
      "price": "1011000000000000000000",
      "reserved": "",
      "salt": "0xdb19a1bf9c1d173eb4a4459d505c6a8e04ec061441cc45bad16fc1c95e283bd6",
      "assetIds": []
    },
    {
      "x": 14,
      "y": 367,
      "size": 1,
      "price": "1011000000000000000000",
      "reserved": "",
      "salt": "0xf9eba1c2f2ac96b17719299d889f5d9872991c40f34076b55b4f1113c4ef2188",
      "assetIds": []
    },
    {
      "x": 14,
      "y": 368,
      "size": 1,
      "price": "1011000000000000000000",
      "reserved": "0x7a9fe22691c811ea339d9b73150e6911a5343dca",
      "salt": "0xe565ab9cb4c583c768e44e8f393299ba8bbc5bc810bb2dca50c18e362e10adb9",
      "assetIds": []
    },
    {
      "x": 14,
      "y": 369,
      "size": 1,
      "price": "1011000000000000000000",
      "reserved": "",
      "salt": "0xe57d8f1521c0e7aa42bd2fa25d3e1dd20cc1ad9f77d75935208aaf1f272fd508",
      "assetIds": []
    },
    {
      "x": 14,
      "y": 370,
      "size": 1,
      "price": "1011000000000000000000",
      "reserved": "",
      "salt": "0xf163bfcd880381c4a35e819e4d6ac107bc5fa1a544c50ff8c0eaccc26bea92c7",
      "assetIds": []
    },
    {
      "x": 14,
      "y": 371,
      "size": 1,
      "price": "1011000000000000000000",
      "reserved": "",
      "salt": "0x329af5b3e8ebf07a046f9d9e085a7cc7f80295fc55bc2ec09d5b98457433601d",
      "assetIds": []
    },
    {
      "x": 14,
      "y": 372,
      "size": 1,
      "price": "1011000000000000000000",
      "reserved": "0x7a9fe22691c811ea339d9b73150e6911a5343dca",
      "salt": "0x8f357f37474d3895c5009c315daa1a7e87e4f19ca6e8f79d6c8c742aaa2a2c85",
      "assetIds": []
    },
    {
      "x": 14,
      "y": 373,
      "size": 1,
      "price": "4683000000000000000000",
      "reserved": "",
      "salt": "0xaeb7552d2122d83edf1493d9d6de9c180dd88379e4ad86257eec84a5a99b3275",
      "assetIds": [
        "55464657044963196816950587289035428064568320970692304673817341489687891546112",
        "55464657044963196816950587289035428064568320970692304673817341489687891546113",
        "55464657044963196816950587289035428064568320970692304673817341489687899934720",
        "55464657044963196816950587289035428064568320970692304673817341489687899934721",
        "55464657044963196816950587289035428064568320970692304673817341489687908321280"
      ]
    },
    {
      "x": 14,
      "y": 374,
      "size": 1,
      "price": "1011000000000000000000",
      "reserved": "",
      "salt": "0x6d7a1b3273c41024b84f82f9e10cd40a00112a32970125970262d621977281ee",
      "assetIds": []
    },
    {
      "x": 14,
      "y": 375,
      "size": 1,
      "price": "1011000000000000000000",
      "reserved": "",
      "salt": "0x14575f86a329e591158efe17ff996757d7a7e15400cdfeb816febaf821194b7f",
      "assetIds": []
    },
    {
      "x": 14,
      "y": 376,
      "size": 1,
      "price": "1011000000000000000000",
      "reserved": "",
      "salt": "0xe8a48a8e3e576eb51fad9ff248cc8cebde820f6d17d3ab3cf86f614c495eb46d",
      "assetIds": []
    },
    {
      "x": 14,
      "y": 377,
      "size": 1,
      "price": "1011000000000000000000",
      "reserved": "",
      "salt": "0xc78e3b5beca56c8b71d9f1e53f8a94584af500b38563d7849a5cbce35a838106",
      "assetIds": []
    },
    {
      "x": 14,
      "y": 378,
      "size": 1,
      "price": "1011000000000000000000",
      "reserved": "",
      "salt": "0xefd26d18ec88671a8dd655a3754253dc02166e73720db95f5e6375972e6846b3",
      "assetIds": []
    },
    {
      "x": 14,
      "y": 379,
      "size": 1,
      "price": "1011000000000000000000",
      "reserved": "",
      "salt": "0x3484981774f35e4e009cec6cbbbd0a417030a4b6ae5dbddc01da6bfd4ebb3b1b",
      "assetIds": []
    },
    {
      "x": 14,
      "y": 380,
      "size": 1,
      "price": "1011000000000000000000",
      "reserved": "",
      "salt": "0x658dfba8f68bf6ce10fae0e0c60e1ef788d88d5203922ecdee1e804bb40c1361",
      "assetIds": []
    },
    {
      "x": 14,
      "y": 381,
      "size": 1,
      "price": "1011000000000000000000",
      "reserved": "",
      "salt": "0x8111f8af62fbe998f7f8be7b6f8d06f92b3628c7952b7bac722c2bbffbee1d36",
      "assetIds": []
    },
    {
      "x": 14,
      "y": 382,
      "size": 1,
      "price": "4683000000000000000000",
      "reserved": "",
      "salt": "0xd71dbcb30398c44708ba2a0df75b2639426207c27126e41b5b5d9d41dc736b55",
      "assetIds": [
        "55464657044963196816950587289035428064568320970692304673817341489687891546112",
        "55464657044963196816950587289035428064568320970692304673817341489687891546113",
        "55464657044963196816950587289035428064568320970692304673817341489687899934720",
        "55464657044963196816950587289035428064568320970692304673817341489687899934721",
        "55464657044963196816950587289035428064568320970692304673817341489687908321280"
      ]
    },
    {
      "x": 14,
      "y": 383,
      "size": 1,
      "price": "4683000000000000000000",
      "reserved": "",
      "salt": "0x57bec1eefcda5ba22202077467ec47d505db1bd40516d3a4209d21ed2d1df266",
      "assetIds": [
        "55464657044963196816950587289035428064568320970692304673817341489687891546112",
        "55464657044963196816950587289035428064568320970692304673817341489687891546113",
        "55464657044963196816950587289035428064568320970692304673817341489687899934720",
        "55464657044963196816950587289035428064568320970692304673817341489687899934721",
        "55464657044963196816950587289035428064568320970692304673817341489687908321280"
      ]
    },
    {
      "x": 14,
      "y": 396,
      "size": 1,
      "price": "4683000000000000000000",
      "reserved": "",
      "salt": "0x7d924e6a16a4298b3084a330b93f410b95683fff72fcd6d997bd5f35ca9b3cca",
      "assetIds": [
        "55464657044963196816950587289035428064568320970692304673817341489687891546112",
        "55464657044963196816950587289035428064568320970692304673817341489687891546113",
        "55464657044963196816950587289035428064568320970692304673817341489687899934720",
        "55464657044963196816950587289035428064568320970692304673817341489687899934721",
        "55464657044963196816950587289035428064568320970692304673817341489687908321280"
      ]
    },
    {
      "x": 14,
      "y": 397,
      "size": 1,
      "price": "1011000000000000000000",
      "reserved": "0x7a9fe22691c811ea339d9b73150e6911a5343dca",
      "salt": "0x3d998edc75a585aa8639fbd198ff7ed02508ee0b33f3daf54c11ba4aa224f8cc",
      "assetIds": []
    },
    {
      "x": 14,
      "y": 398,
      "size": 1,
      "price": "4683000000000000000000",
      "reserved": "",
      "salt": "0x4ab047e7eefc293958b0a66d20d0dabad1f22a57f1758165efc3a3e57cc99300",
      "assetIds": [
        "55464657044963196816950587289035428064568320970692304673817341489687891546112",
        "55464657044963196816950587289035428064568320970692304673817341489687891546113",
        "55464657044963196816950587289035428064568320970692304673817341489687899934720",
        "55464657044963196816950587289035428064568320970692304673817341489687899934721",
        "55464657044963196816950587289035428064568320970692304673817341489687908321280"
      ]
    },
    {
      "x": 14,
      "y": 399,
      "size": 1,
      "price": "1011000000000000000000",
      "reserved": "",
      "salt": "0x05526649d3cc84dc2d93379dca6ee62638fbc2ca31062f70c6d3836f0daf3e5f",
      "assetIds": []
    },
    {
      "x": 14,
      "y": 400,
      "size": 1,
      "price": "1011000000000000000000",
      "reserved": "0x7a9fe22691c811ea339d9b73150e6911a5343dca",
      "salt": "0xe74a79186a3de8d0a5ae04a1c4b542285f5ace3a07a226264dba5d4ea6a8f50d",
      "assetIds": []
    },
    {
      "x": 14,
      "y": 401,
      "size": 1,
      "price": "1011000000000000000000",
      "reserved": "",
      "salt": "0x6245a573fe3d2f75e41b99a69f29713f3244c2c5855d1f6d5e5ec303b162ad31",
      "assetIds": []
    },
    {
      "x": 15,
      "y": 366,
      "size": 1,
      "price": "1011000000000000000000",
      "reserved": "",
      "salt": "0x76e300a124f82fb023a6b2831b7ab35affa47bb5089fd42572b717aacbd7e1ec",
      "assetIds": []
    },
    {
      "x": 15,
      "y": 367,
      "size": 1,
      "price": "1011000000000000000000",
      "reserved": "",
      "salt": "0x9bbd7f24d76d774decddc1ac2b928578344d44c09abb9033f090fb2ff9378980",
      "assetIds": []
    },
    {
      "x": 15,
      "y": 368,
      "size": 1,
      "price": "1011000000000000000000",
      "reserved": "",
      "salt": "0x6633795fb91fa28c2262f4f990d402a0ebef3d2cf82cf715877f39f830c5aaa3",
      "assetIds": []
    },
    {
      "x": 15,
      "y": 369,
      "size": 1,
      "price": "1011000000000000000000",
      "reserved": "",
      "salt": "0xcd256c415152f80bdf729b6060116b2d59e7599881caa87c703b3b5864c06990",
      "assetIds": []
    },
    {
      "x": 15,
      "y": 370,
      "size": 1,
      "price": "1011000000000000000000",
      "reserved": "",
      "salt": "0x4aad3bf0d3b50ff288499985a93f4916bc9c3f91374cfeadca1581eff7a1431d",
      "assetIds": []
    },
    {
      "x": 15,
      "y": 371,
      "size": 1,
      "price": "1011000000000000000000",
      "reserved": "",
      "salt": "0xe820cd63bf08f3c132d343f0818ef180d5a4bffa1ffd884243519924d49f46b6",
      "assetIds": []
    },
    {
      "x": 15,
      "y": 372,
      "size": 1,
      "price": "1011000000000000000000",
      "reserved": "",
      "salt": "0xd5ea4675862838718f37368369d0eb45833cfa7bdbf9addbd736534842ac9051",
      "assetIds": []
    },
    {
      "x": 15,
      "y": 373,
      "size": 1,
      "price": "1011000000000000000000",
      "reserved": "",
      "salt": "0xf761b6f886aeb2ba8f3c47607a6155da9b80b51b0bc9db6b6ef9d6f38acb0fc9",
      "assetIds": []
    },
    {
      "x": 15,
      "y": 374,
      "size": 1,
      "price": "1011000000000000000000",
      "reserved": "",
      "salt": "0x90a39657e7c7088cea950e2cf4f0326f37ff64261390fce58547f74009f7494d",
      "assetIds": []
    },
    {
      "x": 15,
      "y": 375,
      "size": 1,
      "price": "1011000000000000000000",
      "reserved": "",
      "salt": "0x558eacc6e7dcf021155329b08aab5ab573b59d0626aeabf07ad712657e0b2c47",
      "assetIds": []
    },
    {
      "x": 15,
      "y": 376,
      "size": 1,
      "price": "1011000000000000000000",
      "reserved": "0x7a9fe22691c811ea339d9b73150e6911a5343dca",
      "salt": "0xe2a13a7da6e9a6a3619e641c01f90b1ad332b76394d1e2b7598b8269cf45cf13",
      "assetIds": []
    },
    {
      "x": 15,
      "y": 377,
      "size": 1,
      "price": "1011000000000000000000",
      "reserved": "",
      "salt": "0x749ac7c341dc7967668f1711428d079ca0f53b6d3e141814920f3f857c2ec08e",
      "assetIds": []
    },
    {
      "x": 15,
      "y": 378,
      "size": 1,
      "price": "1011000000000000000000",
      "reserved": "",
      "salt": "0x8e87fd8ab209a1f34ccc2a4b4d5e51f630e309d9f5cbadca1fe78acd552a96ee",
      "assetIds": []
    },
    {
      "x": 15,
      "y": 379,
      "size": 1,
      "price": "1011000000000000000000",
      "reserved": "",
      "salt": "0xae72d3a1ced457efe862c0a5aa1a92aadf2acf0e691b1438171728383381a96d",
      "assetIds": []
    },
    {
      "x": 15,
      "y": 380,
      "size": 1,
      "price": "1011000000000000000000",
      "reserved": "",
      "salt": "0x107a00f14869cf16d0df2634d61821a6437f1c8f2189168cfd761152c2f9f333",
      "assetIds": []
    },
    {
      "x": 15,
      "y": 381,
      "size": 1,
      "price": "1011000000000000000000",
      "reserved": "",
      "salt": "0x13285d8d90f838efb20b526f2e60705d09b5318ab13cab5a183d762f041cc121",
      "assetIds": []
    },
    {
      "x": 15,
      "y": 382,
      "size": 1,
      "price": "4683000000000000000000",
      "reserved": "",
      "salt": "0x48d4555b73cbc28ff4fc596e78c5bcc2ed4a0bd567c35ac42c57d506137a53fa",
      "assetIds": [
        "55464657044963196816950587289035428064568320970692304673817341489687891546112",
        "55464657044963196816950587289035428064568320970692304673817341489687891546113",
        "55464657044963196816950587289035428064568320970692304673817341489687899934720",
        "55464657044963196816950587289035428064568320970692304673817341489687899934721",
        "55464657044963196816950587289035428064568320970692304673817341489687908321280"
      ]
    },
    {
      "x": 15,
      "y": 383,
      "size": 1,
      "price": "4683000000000000000000",
      "reserved": "",
      "salt": "0x778ab0cfbf18a589d166560f2a5d972731ac155584553da70dc2b3456c1b1167",
      "assetIds": [
        "55464657044963196816950587289035428064568320970692304673817341489687891546112",
        "55464657044963196816950587289035428064568320970692304673817341489687891546113",
        "55464657044963196816950587289035428064568320970692304673817341489687899934720",
        "55464657044963196816950587289035428064568320970692304673817341489687899934721",
        "55464657044963196816950587289035428064568320970692304673817341489687908321280"
      ]
    },
    {
      "x": 15,
      "y": 396,
      "size": 1,
      "price": "4683000000000000000000",
      "reserved": "",
      "salt": "0xce5ba3012c95c0608f2d9322f8cc5bc9e3a237001b1abbba82f9d7f05ed4f878",
      "assetIds": [
        "55464657044963196816950587289035428064568320970692304673817341489687891546112",
        "55464657044963196816950587289035428064568320970692304673817341489687891546113",
        "55464657044963196816950587289035428064568320970692304673817341489687899934720",
        "55464657044963196816950587289035428064568320970692304673817341489687899934721",
        "55464657044963196816950587289035428064568320970692304673817341489687908321280"
      ]
    },
    {
      "x": 15,
      "y": 397,
      "size": 1,
      "price": "4683000000000000000000",
      "reserved": "",
      "salt": "0xe0dd903fa383415aace4e21acd059f1f3333d8864061e78a3fb1fe21daf4a2bc",
      "assetIds": [
        "55464657044963196816950587289035428064568320970692304673817341489687891546112",
        "55464657044963196816950587289035428064568320970692304673817341489687891546113",
        "55464657044963196816950587289035428064568320970692304673817341489687899934720",
        "55464657044963196816950587289035428064568320970692304673817341489687899934721",
        "55464657044963196816950587289035428064568320970692304673817341489687908321280"
      ]
    },
    {
      "x": 15,
      "y": 398,
      "size": 1,
      "price": "4683000000000000000000",
      "reserved": "",
      "salt": "0xf11a6c04b573cd8d627ed3de50761bcdbdc38f1e5264cc48998f4640ebeb6e08",
      "assetIds": [
        "55464657044963196816950587289035428064568320970692304673817341489687891546112",
        "55464657044963196816950587289035428064568320970692304673817341489687891546113",
        "55464657044963196816950587289035428064568320970692304673817341489687899934720",
        "55464657044963196816950587289035428064568320970692304673817341489687899934721",
        "55464657044963196816950587289035428064568320970692304673817341489687908321280"
      ]
    },
    {
      "x": 15,
      "y": 399,
      "size": 1,
      "price": "1011000000000000000000",
      "reserved": "",
      "salt": "0x9cedfae3961328157f3154091396e3f6c5df637acd1098375408caf6d119bfab",
      "assetIds": []
    },
    {
      "x": 15,
      "y": 400,
      "size": 1,
      "price": "1011000000000000000000",
      "reserved": "",
      "salt": "0xa8717845de94ed65bfe6b7082f0760fbf1649834be9e9ab872c35de72d1b229a",
      "assetIds": []
    },
    {
      "x": 15,
      "y": 401,
      "size": 1,
      "price": "1011000000000000000000",
      "reserved": "",
      "salt": "0x2f8b2f1d41f1f96c7c6dad374531cf6a58df1a54a7d305000d8d91a2862f2955",
      "assetIds": []
    },
    {
      "x": 15,
      "y": 402,
      "size": 1,
      "price": "1011000000000000000000",
      "reserved": "",
      "salt": "0x97b748b63bd8e801284bfe625dae8884e6fc1b10751351c12b9d396083c30fc3",
      "assetIds": []
    },
    {
      "x": 15,
      "y": 403,
      "size": 1,
      "price": "1011000000000000000000",
      "reserved": "",
      "salt": "0x201f715861e47bc69e70c71b1afc31ec858513cbb49a344aafea6b08427b6312",
      "assetIds": []
    },
    {
      "x": 15,
      "y": 404,
      "size": 1,
      "price": "1011000000000000000000",
      "reserved": "",
      "salt": "0x2291c652a3340375e2f1b569cb1234331229c7d146a428fdddf0c0296d21c384",
      "assetIds": []
    },
    {
      "x": 15,
      "y": 405,
      "size": 1,
      "price": "1011000000000000000000",
      "reserved": "",
      "salt": "0x5ad37b971d31319e662f39a035cf85d1521c8a8b13a1a526e1996b1422083eb7",
      "assetIds": []
    },
    {
      "x": 15,
      "y": 406,
      "size": 1,
      "price": "1011000000000000000000",
      "reserved": "",
      "salt": "0x5a98442f0bef9bf20a9f603e4ff2ddb5de9f72eec8a493a7ebdaba0edc7921ce",
      "assetIds": []
    },
    {
      "x": 15,
      "y": 407,
      "size": 1,
      "price": "1011000000000000000000",
      "reserved": "",
      "salt": "0x8d62f0509cacd645044bcace6db141117587a5cf9df7135d495215fc5f31b052",
      "assetIds": []
    },
    {
      "x": 16,
      "y": 366,
      "size": 1,
      "price": "1011000000000000000000",
      "reserved": "",
      "salt": "0x5c4a34a5766d6e515abf4483921e5f374fb17a81da44744b0a8737eb32551a4c",
      "assetIds": []
    },
    {
      "x": 16,
      "y": 367,
      "size": 1,
      "price": "1011000000000000000000",
      "reserved": "0x7a9fe22691c811ea339d9b73150e6911a5343dca",
      "salt": "0x3971dc25878dfea22a39be9d1e13db05631fb48a88773d66e2d4a3b4a596715c",
      "assetIds": []
    },
    {
      "x": 16,
      "y": 368,
      "size": 1,
      "price": "1011000000000000000000",
      "reserved": "",
      "salt": "0x4c445e763131ecc775a0f2bc220f0a02e7504aa47aeace6fbdbe5165c40317c5",
      "assetIds": []
    },
    {
      "x": 16,
      "y": 369,
      "size": 1,
      "price": "1011000000000000000000",
      "reserved": "",
      "salt": "0xe6ce6a2a59b5d0aca5de103722d1d2934c9fc687af6e35e474c763da80936af9",
      "assetIds": []
    },
    {
      "x": 16,
      "y": 370,
      "size": 1,
      "price": "1011000000000000000000",
      "reserved": "",
      "salt": "0x5c58e56bb7f977494efaea7d25408ded1407cc2e1bb541e2cb7e6aaac6b31579",
      "assetIds": []
    },
    {
      "x": 16,
      "y": 371,
      "size": 1,
      "price": "1011000000000000000000",
      "reserved": "",
      "salt": "0x2b171c416f4c250be1a300e821db4ee954709a124d0bbd5159a9d2d7f7f0184a",
      "assetIds": []
    },
    {
      "x": 16,
      "y": 372,
      "size": 1,
      "price": "1011000000000000000000",
      "reserved": "",
      "salt": "0x59380a3a63ea5c9b93cb499bd6d7ccfc97e449a6d2235d5e054b9193e35ca049",
      "assetIds": []
    },
    {
      "x": 16,
      "y": 373,
      "size": 1,
      "price": "1011000000000000000000",
      "reserved": "0x7a9fe22691c811ea339d9b73150e6911a5343dca",
      "salt": "0x0371e8b0aebe8962ac3ea4e7b85bb63b7665c26f9d05d868f32a27178819488f",
      "assetIds": []
    },
    {
      "x": 16,
      "y": 374,
      "size": 1,
      "price": "1011000000000000000000",
      "reserved": "",
      "salt": "0x0e4dd046103ca2a8d0fe4f70e085177be2b007cc09e8313b00da3c66a221fdb9",
      "assetIds": []
    },
    {
      "x": 16,
      "y": 375,
      "size": 1,
      "price": "1011000000000000000000",
      "reserved": "",
      "salt": "0x2f3245b21e2ba5f2a6d1de2a8450535bb1e7f7af8121f6e0cde5dbac58682550",
      "assetIds": []
    },
    {
      "x": 16,
      "y": 376,
      "size": 1,
      "price": "1011000000000000000000",
      "reserved": "",
      "salt": "0xd94729e6a5d3980de93db88d49d71be1e5ffc26817aff064be76b0124a46c482",
      "assetIds": []
    },
    {
      "x": 16,
      "y": 377,
      "size": 1,
      "price": "1011000000000000000000",
      "reserved": "",
      "salt": "0xee9d2fedda534fb6907cd5a30ac42131ed14f38faf8efde3e3e4535f6ef6be44",
      "assetIds": []
    },
    {
      "x": 16,
      "y": 378,
      "size": 1,
      "price": "1011000000000000000000",
      "reserved": "",
      "salt": "0x50e411a29793e7ee46f0ec5c9943ac12d4566a057fc6fa1d9d3f04d702e51e89",
      "assetIds": []
    },
    {
      "x": 16,
      "y": 379,
      "size": 1,
      "price": "1011000000000000000000",
      "reserved": "",
      "salt": "0x7ae974578937e5f3235c5d41b48b73e05fe31a695a610dc9c006f11e1ab53325",
      "assetIds": []
    },
    {
      "x": 16,
      "y": 380,
      "size": 1,
      "price": "1011000000000000000000",
      "reserved": "",
      "salt": "0x692b0cbc70b37580830e33d2a79ee21a71dd11e6d92ee7c49034129dc2fd2d89",
      "assetIds": []
    },
    {
      "x": 16,
      "y": 381,
      "size": 1,
      "price": "1011000000000000000000",
      "reserved": "",
      "salt": "0x566efabfbb8b8d85f35e699def64b96d34369db518afc0baf2b47a1af47300d5",
      "assetIds": []
    },
    {
      "x": 16,
      "y": 382,
      "size": 1,
      "price": "4683000000000000000000",
      "reserved": "",
      "salt": "0xd3133cd9f61c980f236c95f61cb5336c29ff3abfaec5ff23b03afb395b029793",
      "assetIds": [
        "55464657044963196816950587289035428064568320970692304673817341489687891546112",
        "55464657044963196816950587289035428064568320970692304673817341489687891546113",
        "55464657044963196816950587289035428064568320970692304673817341489687899934720",
        "55464657044963196816950587289035428064568320970692304673817341489687899934721",
        "55464657044963196816950587289035428064568320970692304673817341489687908321280"
      ]
    },
    {
      "x": 16,
      "y": 383,
      "size": 1,
      "price": "4683000000000000000000",
      "reserved": "",
      "salt": "0x41dfd7317aca6fbb888beda09e2a3ca37d05ab2c37a9700f1d5f489a98a7c396",
      "assetIds": [
        "55464657044963196816950587289035428064568320970692304673817341489687891546112",
        "55464657044963196816950587289035428064568320970692304673817341489687891546113",
        "55464657044963196816950587289035428064568320970692304673817341489687899934720",
        "55464657044963196816950587289035428064568320970692304673817341489687899934721",
        "55464657044963196816950587289035428064568320970692304673817341489687908321280"
      ]
    },
    {
      "x": 16,
      "y": 396,
      "size": 1,
      "price": "4683000000000000000000",
      "reserved": "",
      "salt": "0xf2cae6e5946c0ba64169ea796a358fd5b9fca0ea5b2adf2415bd4c5d95c5f4f5",
      "assetIds": [
        "55464657044963196816950587289035428064568320970692304673817341489687891546112",
        "55464657044963196816950587289035428064568320970692304673817341489687891546113",
        "55464657044963196816950587289035428064568320970692304673817341489687899934720",
        "55464657044963196816950587289035428064568320970692304673817341489687899934721",
        "55464657044963196816950587289035428064568320970692304673817341489687908321280"
      ]
    },
    {
      "x": 16,
      "y": 397,
      "size": 1,
      "price": "4683000000000000000000",
      "reserved": "",
      "salt": "0x6b685752c435c3da3a448d50a73e3e92a56e33d846df78f47bea2759cf65c3e2",
      "assetIds": [
        "55464657044963196816950587289035428064568320970692304673817341489687891546112",
        "55464657044963196816950587289035428064568320970692304673817341489687891546113",
        "55464657044963196816950587289035428064568320970692304673817341489687899934720",
        "55464657044963196816950587289035428064568320970692304673817341489687899934721",
        "55464657044963196816950587289035428064568320970692304673817341489687908321280"
      ]
    },
    {
      "x": 16,
      "y": 398,
      "size": 1,
      "price": "1011000000000000000000",
      "reserved": "0x7a9fe22691c811ea339d9b73150e6911a5343dca",
      "salt": "0x877f8b023594df08724d206ad08fa40ea941303b576fe957b8e23b9e49f31655",
      "assetIds": []
    },
    {
      "x": 16,
      "y": 399,
      "size": 1,
      "price": "1011000000000000000000",
      "reserved": "",
      "salt": "0x63c82d03a650f555166bb11742edfe15c24018af698b4b1a671c40a43f4bfad0",
      "assetIds": []
    },
    {
      "x": 16,
      "y": 400,
      "size": 1,
      "price": "1011000000000000000000",
      "reserved": "",
      "salt": "0x28b1533a383bd5000ec22303b50769656bb0f7e87d16bc32ec1a28486d55afaa",
      "assetIds": []
    },
    {
      "x": 16,
      "y": 401,
      "size": 1,
      "price": "1011000000000000000000",
      "reserved": "",
      "salt": "0xd0e60de894a2adcc1ceaecd769b8b8c0198d0894f7e13c5ab7eb43a5103cbdad",
      "assetIds": []
    },
    {
      "x": 16,
      "y": 402,
      "size": 1,
      "price": "1011000000000000000000",
      "reserved": "0x7a9fe22691c811ea339d9b73150e6911a5343dca",
      "salt": "0x480b53ac39cf30de8ab4887b0379058007ca3655b727036938f9e97b131523c6",
      "assetIds": []
    },
    {
      "x": 16,
      "y": 403,
      "size": 1,
      "price": "4683000000000000000000",
      "reserved": "",
      "salt": "0xacd96cf5b0213146d2479ea42f2faafc27c2a41c11d3c6e7fe8caf6092325913",
      "assetIds": [
        "55464657044963196816950587289035428064568320970692304673817341489687891546112",
        "55464657044963196816950587289035428064568320970692304673817341489687891546113",
        "55464657044963196816950587289035428064568320970692304673817341489687899934720",
        "55464657044963196816950587289035428064568320970692304673817341489687899934721",
        "55464657044963196816950587289035428064568320970692304673817341489687908321280"
      ]
    },
    {
      "x": 16,
      "y": 404,
      "size": 1,
      "price": "4683000000000000000000",
      "reserved": "",
      "salt": "0xf989f8d2bde61f8f0eb8713822d9cf8fdc1c9a8dac83742aef277d5ea9070aba",
      "assetIds": [
        "55464657044963196816950587289035428064568320970692304673817341489687891546112",
        "55464657044963196816950587289035428064568320970692304673817341489687891546113",
        "55464657044963196816950587289035428064568320970692304673817341489687899934720",
        "55464657044963196816950587289035428064568320970692304673817341489687899934721",
        "55464657044963196816950587289035428064568320970692304673817341489687908321280"
      ]
    },
    {
      "x": 16,
      "y": 405,
      "size": 1,
      "price": "4683000000000000000000",
      "reserved": "",
      "salt": "0x84ca43edabf449e5e929256af89445a86c98acc54e1e725ae3132b112e597727",
      "assetIds": [
        "55464657044963196816950587289035428064568320970692304673817341489687891546112",
        "55464657044963196816950587289035428064568320970692304673817341489687891546113",
        "55464657044963196816950587289035428064568320970692304673817341489687899934720",
        "55464657044963196816950587289035428064568320970692304673817341489687899934721",
        "55464657044963196816950587289035428064568320970692304673817341489687908321280"
      ]
    },
    {
      "x": 16,
      "y": 406,
      "size": 1,
      "price": "1011000000000000000000",
      "reserved": "",
      "salt": "0x3fa41708a950a756679a40456585761628a65f0eec81997cd21f0fd532881f73",
      "assetIds": []
    },
    {
      "x": 16,
      "y": 407,
      "size": 1,
      "price": "1011000000000000000000",
      "reserved": "0x7a9fe22691c811ea339d9b73150e6911a5343dca",
      "salt": "0xea0d4fc5a75747a07d2057c900778d26dd4feb8a2f86e8dc5d3e169216a7c8de",
      "assetIds": []
    },
    {
      "x": 17,
      "y": 366,
      "size": 1,
      "price": "1011000000000000000000",
      "reserved": "",
      "salt": "0xb20ca3b379d61bc4e0bfa60820694c56dd3bb3c08c76af4d906ed20ead694326",
      "assetIds": []
    },
    {
      "x": 17,
      "y": 367,
      "size": 1,
      "price": "1011000000000000000000",
      "reserved": "",
      "salt": "0xe528e53db949ad42438fff5234dcc5e0fce31789238bc487d26dd19fc5edf503",
      "assetIds": []
    },
    {
      "x": 17,
      "y": 368,
      "size": 1,
      "price": "1011000000000000000000",
      "reserved": "",
      "salt": "0xef953405dc8b775d7ed85394fe86506ba8741accf16b0871711e0e144eac7824",
      "assetIds": []
    },
    {
      "x": 17,
      "y": 369,
      "size": 1,
      "price": "1011000000000000000000",
      "reserved": "",
      "salt": "0x86f743f37629439ada50e993931c4d07382304a73aaec84ecd39b42b9400d7b2",
      "assetIds": []
    },
    {
      "x": 17,
      "y": 370,
      "size": 1,
      "price": "1011000000000000000000",
      "reserved": "",
      "salt": "0xb8d9f76b36cffa68c21859ca82ecbf53fdaf71a73da8716223ed6839d04fb7ed",
      "assetIds": []
    },
    {
      "x": 17,
      "y": 371,
      "size": 1,
      "price": "1011000000000000000000",
      "reserved": "",
      "salt": "0xeb622b4fcc6e7b76c209e7692550661dfd9e498deb9bfabd03e7e8dea27d8ed7",
      "assetIds": []
    },
    {
      "x": 17,
      "y": 372,
      "size": 1,
      "price": "1011000000000000000000",
      "reserved": "",
      "salt": "0x907927ded5e2b9481c1f0f5ccdf78b9c58a073a966a0ce1c98e515d573536b82",
      "assetIds": []
    },
    {
      "x": 17,
      "y": 373,
      "size": 1,
      "price": "1011000000000000000000",
      "reserved": "",
      "salt": "0xb25d97fadf57443ccf171e8faa05dc7c5dea9fac5fa39b1aaba7fa4aba46c1e9",
      "assetIds": []
    },
    {
      "x": 17,
      "y": 374,
      "size": 1,
      "price": "1011000000000000000000",
      "reserved": "",
      "salt": "0x5c38d648726ea8a3ad09424b7c05f5973f7ea5be85f69f88d2751b55ffa2a8a5",
      "assetIds": []
    },
    {
      "x": 17,
      "y": 375,
      "size": 1,
      "price": "1011000000000000000000",
      "reserved": "",
      "salt": "0x33203e72ece520134c4e8a6714d9c8206ac3985a4f700412f134b9a246ec6a1b",
      "assetIds": []
    },
    {
      "x": 17,
      "y": 376,
      "size": 1,
      "price": "1011000000000000000000",
      "reserved": "",
      "salt": "0x318114b74125005711f99c6990b7209d73aa4feef3eb7c202e98933d95b88ac9",
      "assetIds": []
    },
    {
      "x": 17,
      "y": 377,
      "size": 1,
      "price": "1011000000000000000000",
      "reserved": "",
      "salt": "0x8c4e2b5c40f504195795f613ba9ca83e0da9ddf5fe627612457ddb3c63803f8c",
      "assetIds": []
    },
    {
      "x": 17,
      "y": 378,
      "size": 1,
      "price": "1011000000000000000000",
      "reserved": "",
      "salt": "0xa0cb68b39b512119de8e27b6985b60a6e2dd97a47841e317862ec230426a13b0",
      "assetIds": []
    },
    {
      "x": 17,
      "y": 379,
      "size": 1,
      "price": "1011000000000000000000",
      "reserved": "0x7a9fe22691c811ea339d9b73150e6911a5343dca",
      "salt": "0x170626858c71853c0201e78815f12a659d3fb69cd882f60c0c79f8dd52531cdc",
      "assetIds": []
    },
    {
      "x": 17,
      "y": 380,
      "size": 1,
      "price": "1011000000000000000000",
      "reserved": "",
      "salt": "0xb4f3ada4ffe50497f568e113a79d9c5ed2c63777a8570d1e5789174c3b92e8ee",
      "assetIds": []
    },
    {
      "x": 17,
      "y": 381,
      "size": 1,
      "price": "1011000000000000000000",
      "reserved": "",
      "salt": "0x015dfbc7dde355143d3b245ad87ddc9219cb8f22e0d00e564f1ec1febca73797",
      "assetIds": []
    },
    {
      "x": 17,
      "y": 382,
      "size": 1,
      "price": "1011000000000000000000",
      "reserved": "0x7a9fe22691c811ea339d9b73150e6911a5343dca",
      "salt": "0x871d6a3c271425032f5abd4f4dcf808250e4e2c406e0cbf105dffca5bf24ea8b",
      "assetIds": []
    },
    {
      "x": 17,
      "y": 383,
      "size": 1,
      "price": "4683000000000000000000",
      "reserved": "",
      "salt": "0x1f5de9cbc5c5031cb9e0dd4760f749f2073f4903dbdc0931274a773696c82be4",
      "assetIds": [
        "55464657044963196816950587289035428064568320970692304673817341489687891546112",
        "55464657044963196816950587289035428064568320970692304673817341489687891546113",
        "55464657044963196816950587289035428064568320970692304673817341489687899934720",
        "55464657044963196816950587289035428064568320970692304673817341489687899934721",
        "55464657044963196816950587289035428064568320970692304673817341489687908321280"
      ]
    },
    {
      "x": 17,
      "y": 396,
      "size": 1,
      "price": "4683000000000000000000",
      "reserved": "",
      "salt": "0x89b0f3b877d0b0de7311b81315a8428d0e736db212536f5dd44708739f832830",
      "assetIds": [
        "55464657044963196816950587289035428064568320970692304673817341489687891546112",
        "55464657044963196816950587289035428064568320970692304673817341489687891546113",
        "55464657044963196816950587289035428064568320970692304673817341489687899934720",
        "55464657044963196816950587289035428064568320970692304673817341489687899934721",
        "55464657044963196816950587289035428064568320970692304673817341489687908321280"
      ]
    },
    {
      "x": 17,
      "y": 397,
      "size": 1,
      "price": "1011000000000000000000",
      "reserved": "0x7a9fe22691c811ea339d9b73150e6911a5343dca",
      "salt": "0xb8e45a94bc5bc5d90b18819d1de16695a477ec5805315339ab1a01f4c5bc7466",
      "assetIds": []
    },
    {
      "x": 17,
      "y": 398,
      "size": 1,
      "price": "4683000000000000000000",
      "reserved": "",
      "salt": "0x8adb3d57fae912dd21e2b40dd3106522245f16fdb336690b8f4682c50097cb31",
      "assetIds": [
        "55464657044963196816950587289035428064568320970692304673817341489687891546112",
        "55464657044963196816950587289035428064568320970692304673817341489687891546113",
        "55464657044963196816950587289035428064568320970692304673817341489687899934720",
        "55464657044963196816950587289035428064568320970692304673817341489687899934721",
        "55464657044963196816950587289035428064568320970692304673817341489687908321280"
      ]
    },
    {
      "x": 17,
      "y": 399,
      "size": 1,
      "price": "1011000000000000000000",
      "reserved": "",
      "salt": "0xace57abc149438ce9b94ecb7578c34aa1efa97d09f0ac100e266c21e76c91a10",
      "assetIds": []
    },
    {
      "x": 17,
      "y": 400,
      "size": 1,
      "price": "4683000000000000000000",
      "reserved": "",
      "salt": "0xdb4962db23be51619d0a36fe3b73da4c566b7d712fa5dddface105852637be76",
      "assetIds": [
        "55464657044963196816950587289035428064568320970692304673817341489687891546112",
        "55464657044963196816950587289035428064568320970692304673817341489687891546113",
        "55464657044963196816950587289035428064568320970692304673817341489687899934720",
        "55464657044963196816950587289035428064568320970692304673817341489687899934721",
        "55464657044963196816950587289035428064568320970692304673817341489687908321280"
      ]
    },
    {
      "x": 17,
      "y": 401,
      "size": 1,
      "price": "1011000000000000000000",
      "reserved": "0x7a9fe22691c811ea339d9b73150e6911a5343dca",
      "salt": "0xb8b977b810fe563f0721502d8b9ed7438b09f5651d464dabf598bb68e51d0e74",
      "assetIds": []
    },
    {
      "x": 17,
      "y": 402,
      "size": 1,
      "price": "4683000000000000000000",
      "reserved": "",
      "salt": "0xf3591510e3646a641c4d8d8dcc5032701964dd507c75771f270e016d48f6cef7",
      "assetIds": [
        "55464657044963196816950587289035428064568320970692304673817341489687891546112",
        "55464657044963196816950587289035428064568320970692304673817341489687891546113",
        "55464657044963196816950587289035428064568320970692304673817341489687899934720",
        "55464657044963196816950587289035428064568320970692304673817341489687899934721",
        "55464657044963196816950587289035428064568320970692304673817341489687908321280"
      ]
    },
    {
      "x": 17,
      "y": 403,
      "size": 1,
      "price": "4683000000000000000000",
      "reserved": "",
      "salt": "0x7d0749031400019227593cd23018cdc9993b279ba481117d56dd7688dddb8126",
      "assetIds": [
        "55464657044963196816950587289035428064568320970692304673817341489687891546112",
        "55464657044963196816950587289035428064568320970692304673817341489687891546113",
        "55464657044963196816950587289035428064568320970692304673817341489687899934720",
        "55464657044963196816950587289035428064568320970692304673817341489687899934721",
        "55464657044963196816950587289035428064568320970692304673817341489687908321280"
      ]
    },
    {
      "x": 17,
      "y": 404,
      "size": 1,
      "price": "4683000000000000000000",
      "reserved": "",
      "salt": "0x2f181737bb8ab373b05feaad72f534beabb4db1f251dec108e7ecc83bc9ec847",
      "assetIds": [
        "55464657044963196816950587289035428064568320970692304673817341489687891546112",
        "55464657044963196816950587289035428064568320970692304673817341489687891546113",
        "55464657044963196816950587289035428064568320970692304673817341489687899934720",
        "55464657044963196816950587289035428064568320970692304673817341489687899934721",
        "55464657044963196816950587289035428064568320970692304673817341489687908321280"
      ]
    },
    {
      "x": 17,
      "y": 405,
      "size": 1,
      "price": "1011000000000000000000",
      "reserved": "0x7a9fe22691c811ea339d9b73150e6911a5343dca",
      "salt": "0x92463c62f05debd53f538d677b6cad9f3e6a2bc4cb00228a7133fd27917c618c",
      "assetIds": []
    },
    {
      "x": 17,
      "y": 406,
      "size": 1,
      "price": "4683000000000000000000",
      "reserved": "",
      "salt": "0xa4072f8ea1b8d80ce6e8ac503c06c7c159c7b49eda187668188ebc0bf046dbc7",
      "assetIds": [
        "55464657044963196816950587289035428064568320970692304673817341489687891546112",
        "55464657044963196816950587289035428064568320970692304673817341489687891546113",
        "55464657044963196816950587289035428064568320970692304673817341489687899934720",
        "55464657044963196816950587289035428064568320970692304673817341489687899934721",
        "55464657044963196816950587289035428064568320970692304673817341489687908321280"
      ]
    },
    {
      "x": 17,
      "y": 407,
      "size": 1,
      "price": "1011000000000000000000",
      "reserved": "",
      "salt": "0xe3bbadaeaee12e7c9e38af6604cc8af647a553f78e0612de56ebd8d11d08fc7a",
      "assetIds": []
    },
    {
      "x": 18,
      "y": 354,
      "size": 1,
      "price": "1011000000000000000000",
      "reserved": "",
      "salt": "0xe729769c5c7954d30c8c077a826620ed3eff9885f92ec569a769117bc3ec6d7f",
      "assetIds": []
    },
    {
      "x": 18,
      "y": 355,
      "size": 1,
      "price": "1011000000000000000000",
      "reserved": "",
      "salt": "0x4bea33180c84c0363196930ad1e5a9c3af2b83a2ca4d89aa619d0499b2700e19",
      "assetIds": []
    },
    {
      "x": 18,
      "y": 356,
      "size": 1,
      "price": "1011000000000000000000",
      "reserved": "",
      "salt": "0x1dcca81dc24a972ac4777c4fb1246f6315d1954d5088786ef27805772aff6878",
      "assetIds": []
    },
    {
      "x": 18,
      "y": 357,
      "size": 1,
      "price": "1011000000000000000000",
      "reserved": "",
      "salt": "0x473f54cb388299e46001bc4d75cccc56fc111eab77b2a8511652986d2a877300",
      "assetIds": []
    },
    {
      "x": 18,
      "y": 358,
      "size": 1,
      "price": "1011000000000000000000",
      "reserved": "",
      "salt": "0xc2a2fa7fd0e30279046e1febb18246f352f8b1b77a1e34ee9176d8c5f4b45738",
      "assetIds": []
    },
    {
      "x": 18,
      "y": 359,
      "size": 1,
      "price": "1011000000000000000000",
      "reserved": "",
      "salt": "0x7fbf3d0d742d6a6e481b466efdf184895bc6b324896a0cc0fd5452f15d8f6e2a",
      "assetIds": []
    },
    {
      "x": 18,
      "y": 360,
      "size": 1,
      "price": "1011000000000000000000",
      "reserved": "",
      "salt": "0x353ac4e65522128246ca573926aa9d9164caf4ca696125afec5292dded0637cb",
      "assetIds": []
    },
    {
      "x": 18,
      "y": 361,
      "size": 1,
      "price": "1011000000000000000000",
      "reserved": "",
      "salt": "0xf7d1f71e718672173c2a42d4b4e63b596b3ab9480237bb008bcf586e9ec66901",
      "assetIds": []
    },
    {
      "x": 18,
      "y": 362,
      "size": 1,
      "price": "1011000000000000000000",
      "reserved": "",
      "salt": "0xc0da4fc954745e8f05c62d3fdb0ff860e6cb07d9919bf80c8c25c15114949a5f",
      "assetIds": []
    },
    {
      "x": 18,
      "y": 363,
      "size": 1,
      "price": "1011000000000000000000",
      "reserved": "",
      "salt": "0x581a2981db52d0ab1cd64c5cefd07950cf089a42690b9362004e22cf6d1826e9",
      "assetIds": []
    },
    {
      "x": 18,
      "y": 364,
      "size": 1,
      "price": "1011000000000000000000",
      "reserved": "",
      "salt": "0xb7cbd00c396925f589907e9fff5c15066d26e57573b7690ccee438ca2a4d4497",
      "assetIds": []
    },
    {
      "x": 18,
      "y": 365,
      "size": 1,
      "price": "1011000000000000000000",
      "reserved": "",
      "salt": "0x3ded0e5f68f3334b8e9682aa4615666647ceebf15a0d95a3fcc358675cb9b1a0",
      "assetIds": []
    },
    {
      "x": 18,
      "y": 369,
      "size": 1,
      "price": "1011000000000000000000",
      "reserved": "",
      "salt": "0xa747761076a0ceb1fbb587bd0928f4e70e20c8b0db033ea0fa8613e591996755",
      "assetIds": []
    },
    {
      "x": 18,
      "y": 370,
      "size": 1,
      "price": "1011000000000000000000",
      "reserved": "",
      "salt": "0xe1ba7982bd222546f0ded71c5c7d843887aab9539ee5a812d7b3d6341e665587",
      "assetIds": []
    },
    {
      "x": 18,
      "y": 371,
      "size": 1,
      "price": "1011000000000000000000",
      "reserved": "",
      "salt": "0xe91df706eda7e62da8ab64c9388776416ed9bf16a75bb63a538d5d3186140e6c",
      "assetIds": []
    },
    {
      "x": 18,
      "y": 396,
      "size": 1,
      "price": "4683000000000000000000",
      "reserved": "",
      "salt": "0x0193da563e4504839381e35139a8ef09cac75e3ad339f25323d3729e8202cbe4",
      "assetIds": [
        "55464657044963196816950587289035428064568320970692304673817341489687891546112",
        "55464657044963196816950587289035428064568320970692304673817341489687891546113",
        "55464657044963196816950587289035428064568320970692304673817341489687899934720",
        "55464657044963196816950587289035428064568320970692304673817341489687899934721",
        "55464657044963196816950587289035428064568320970692304673817341489687908321280"
      ]
    },
    {
      "x": 18,
      "y": 397,
      "size": 1,
      "price": "4683000000000000000000",
      "reserved": "",
      "salt": "0xbcb8f9712388416e0b3ac0ff3d926515d33deb7d28090c446d616525fd1f695c",
      "assetIds": [
        "55464657044963196816950587289035428064568320970692304673817341489687891546112",
        "55464657044963196816950587289035428064568320970692304673817341489687891546113",
        "55464657044963196816950587289035428064568320970692304673817341489687899934720",
        "55464657044963196816950587289035428064568320970692304673817341489687899934721",
        "55464657044963196816950587289035428064568320970692304673817341489687908321280"
      ]
    },
    {
      "x": 18,
      "y": 398,
      "size": 1,
      "price": "4683000000000000000000",
      "reserved": "",
      "salt": "0xed060d256fb6b177bfc7c8cceb104a6b9892a48a074f2a005cb5875eaabb7ac6",
      "assetIds": [
        "55464657044963196816950587289035428064568320970692304673817341489687891546112",
        "55464657044963196816950587289035428064568320970692304673817341489687891546113",
        "55464657044963196816950587289035428064568320970692304673817341489687899934720",
        "55464657044963196816950587289035428064568320970692304673817341489687899934721",
        "55464657044963196816950587289035428064568320970692304673817341489687908321280"
      ]
    },
    {
      "x": 18,
      "y": 399,
      "size": 1,
      "price": "1011000000000000000000",
      "reserved": "",
      "salt": "0xeabe5ed4062b4106b40f7d043af7f8930b2656fb1dd92530a37518ce0614789e",
      "assetIds": []
    },
    {
      "x": 18,
      "y": 400,
      "size": 1,
      "price": "4683000000000000000000",
      "reserved": "",
      "salt": "0xe226cccf07570c1bfd0845a70c22016a2fe05e432537d66cf1d9bf4ca42a8fd7",
      "assetIds": [
        "55464657044963196816950587289035428064568320970692304673817341489687891546112",
        "55464657044963196816950587289035428064568320970692304673817341489687891546113",
        "55464657044963196816950587289035428064568320970692304673817341489687899934720",
        "55464657044963196816950587289035428064568320970692304673817341489687899934721",
        "55464657044963196816950587289035428064568320970692304673817341489687908321280"
      ]
    },
    {
      "x": 18,
      "y": 401,
      "size": 1,
      "price": "4683000000000000000000",
      "reserved": "",
      "salt": "0xafba721545f7f9029403da2794a1cfc1a8a19471d0674ede89c03ef48bebec09",
      "assetIds": [
        "55464657044963196816950587289035428064568320970692304673817341489687891546112",
        "55464657044963196816950587289035428064568320970692304673817341489687891546113",
        "55464657044963196816950587289035428064568320970692304673817341489687899934720",
        "55464657044963196816950587289035428064568320970692304673817341489687899934721",
        "55464657044963196816950587289035428064568320970692304673817341489687908321280"
      ]
    },
    {
      "x": 18,
      "y": 405,
      "size": 1,
      "price": "4683000000000000000000",
      "reserved": "",
      "salt": "0x463d3f6461dd3d807ea49e8c73336632f39ab220e9067452361cc42457fb5a9f",
      "assetIds": [
        "55464657044963196816950587289035428064568320970692304673817341489687891546112",
        "55464657044963196816950587289035428064568320970692304673817341489687891546113",
        "55464657044963196816950587289035428064568320970692304673817341489687899934720",
        "55464657044963196816950587289035428064568320970692304673817341489687899934721",
        "55464657044963196816950587289035428064568320970692304673817341489687908321280"
      ]
    },
    {
      "x": 18,
      "y": 406,
      "size": 1,
      "price": "4683000000000000000000",
      "reserved": "",
      "salt": "0xbf1fe090bd201e562492e1eba52a2db571353e66156fcab4ea60c787f445ae99",
      "assetIds": [
        "55464657044963196816950587289035428064568320970692304673817341489687891546112",
        "55464657044963196816950587289035428064568320970692304673817341489687891546113",
        "55464657044963196816950587289035428064568320970692304673817341489687899934720",
        "55464657044963196816950587289035428064568320970692304673817341489687899934721",
        "55464657044963196816950587289035428064568320970692304673817341489687908321280"
      ]
    },
    {
      "x": 18,
      "y": 407,
      "size": 1,
      "price": "1011000000000000000000",
      "reserved": "",
      "salt": "0xe1dfbf85f70429b3d701521815ccdb6c620d11a7b058b9174bd1fefa4622a907",
      "assetIds": []
    },
    {
      "x": 19,
      "y": 354,
      "size": 1,
      "price": "1011000000000000000000",
      "reserved": "",
      "salt": "0x584dba559b1d909812bec75b2edcccbfed7be0218ea576aae24c16c25fc9d152",
      "assetIds": []
    },
    {
      "x": 19,
      "y": 355,
      "size": 1,
      "price": "1011000000000000000000",
      "reserved": "",
      "salt": "0x391d24ae84c74b81bdfbcb85bf8948d1408a09edbc5cec562431d78c195d2d37",
      "assetIds": []
    },
    {
      "x": 19,
      "y": 356,
      "size": 1,
      "price": "1011000000000000000000",
      "reserved": "",
      "salt": "0x9219ac5e2d3b64517c4d512afe1ae1a940e5d221d03e11d7eea279ad2c63eafd",
      "assetIds": []
    },
    {
      "x": 19,
      "y": 357,
      "size": 1,
      "price": "1011000000000000000000",
      "reserved": "",
      "salt": "0x89b74a8bd6c0f65f27369d3a50f696dcae0d47fbd19e6b173f5ac96870597ab2",
      "assetIds": []
    },
    {
      "x": 19,
      "y": 358,
      "size": 1,
      "price": "1011000000000000000000",
      "reserved": "",
      "salt": "0xc877de7ff91db44bd2d089ac6509e8c8cd98cdaecc99e56ed88c55197aa20258",
      "assetIds": []
    },
    {
      "x": 19,
      "y": 359,
      "size": 1,
      "price": "1011000000000000000000",
      "reserved": "",
      "salt": "0x493dc7b5d3b85a030b27b3287084d4bac3a23bea34ebed4d525839de8a031e2a",
      "assetIds": []
    },
    {
      "x": 19,
      "y": 360,
      "size": 1,
      "price": "1011000000000000000000",
      "reserved": "",
      "salt": "0xbc760065db822e2cf955f9d0991851f20b42f8085fb8eeaf8854e08ca800731b",
      "assetIds": []
    },
    {
      "x": 19,
      "y": 361,
      "size": 1,
      "price": "4683000000000000000000",
      "reserved": "",
      "salt": "0xf1d7aba98a5f4d0b2a4c8f17b2fb64e753bdd89803a4cd8239a20a1b1c90892b",
      "assetIds": [
        "55464657044963196816950587289035428064568320970692304673817341489687891546112",
        "55464657044963196816950587289035428064568320970692304673817341489687891546113",
        "55464657044963196816950587289035428064568320970692304673817341489687899934720",
        "55464657044963196816950587289035428064568320970692304673817341489687899934721",
        "55464657044963196816950587289035428064568320970692304673817341489687908321280"
      ]
    },
    {
      "x": 19,
      "y": 362,
      "size": 1,
      "price": "1011000000000000000000",
      "reserved": "0x7a9fe22691c811ea339d9b73150e6911a5343dca",
      "salt": "0x17d560f5a9ae5a51093e154efb7985b907e7a09ebb544ccde16f92dd045eed35",
      "assetIds": []
    },
    {
      "x": 19,
      "y": 363,
      "size": 1,
      "price": "1011000000000000000000",
      "reserved": "0x7a9fe22691c811ea339d9b73150e6911a5343dca",
      "salt": "0xc6cd1ad85f884a780bfce282f3ec78e04e7c6f59bc2764dd71b44fe918efeb5d",
      "assetIds": []
    },
    {
      "x": 19,
      "y": 364,
      "size": 1,
      "price": "4683000000000000000000",
      "reserved": "",
      "salt": "0x902c0d2996f6e46fce4143eaa4b4e66d50984829050bfcecb666270f17270f3d",
      "assetIds": [
        "55464657044963196816950587289035428064568320970692304673817341489687891546112",
        "55464657044963196816950587289035428064568320970692304673817341489687891546113",
        "55464657044963196816950587289035428064568320970692304673817341489687899934720",
        "55464657044963196816950587289035428064568320970692304673817341489687899934721",
        "55464657044963196816950587289035428064568320970692304673817341489687908321280"
      ]
    },
    {
      "x": 19,
      "y": 365,
      "size": 1,
      "price": "1011000000000000000000",
      "reserved": "0x7a9fe22691c811ea339d9b73150e6911a5343dca",
      "salt": "0x40108fb127177eef6d03d7bf1b0d57c1e0387aba1d3ef730a168cab71127d065",
      "assetIds": []
    },
    {
      "x": 19,
      "y": 369,
      "size": 1,
      "price": "1011000000000000000000",
      "reserved": "",
      "salt": "0xab417ab5b551c94b92185c5e221197f6de38fd4ad38c8ad53d4495d906b0d1fd",
      "assetIds": []
    },
    {
      "x": 19,
      "y": 370,
      "size": 1,
      "price": "1011000000000000000000",
      "reserved": "0x7a9fe22691c811ea339d9b73150e6911a5343dca",
      "salt": "0xc8f47e8af9d18885d08b0ccd83df4925fc29f4c404f91774c5dcea50c51f2c93",
      "assetIds": []
    },
    {
      "x": 19,
      "y": 371,
      "size": 1,
      "price": "1011000000000000000000",
      "reserved": "",
      "salt": "0x12f4440732e6d9063a68b5364dd021b338b68f0f2b3f83ebbedd1fdf42f5b4b3",
      "assetIds": []
    },
    {
      "x": 19,
      "y": 396,
      "size": 1,
      "price": "4683000000000000000000",
      "reserved": "",
      "salt": "0x798f54d08d69e54dd472f7a06dd5d7d330cf4d449f28cc0b6aa5ab0bee39808c",
      "assetIds": [
        "55464657044963196816950587289035428064568320970692304673817341489687891546112",
        "55464657044963196816950587289035428064568320970692304673817341489687891546113",
        "55464657044963196816950587289035428064568320970692304673817341489687899934720",
        "55464657044963196816950587289035428064568320970692304673817341489687899934721",
        "55464657044963196816950587289035428064568320970692304673817341489687908321280"
      ]
    },
    {
      "x": 19,
      "y": 397,
      "size": 1,
      "price": "4683000000000000000000",
      "reserved": "",
      "salt": "0xd9c45dc4fe506dd9f32bdb9fd3199e24c033ce1a587518134bdd6b4ca4da31bf",
      "assetIds": [
        "55464657044963196816950587289035428064568320970692304673817341489687891546112",
        "55464657044963196816950587289035428064568320970692304673817341489687891546113",
        "55464657044963196816950587289035428064568320970692304673817341489687899934720",
        "55464657044963196816950587289035428064568320970692304673817341489687899934721",
        "55464657044963196816950587289035428064568320970692304673817341489687908321280"
      ]
    },
    {
      "x": 19,
      "y": 398,
      "size": 1,
      "price": "1011000000000000000000",
      "reserved": "",
      "salt": "0x8c80de50082034b8184580febda74af515a751beee9bbaadd86ed8bc253263c1",
      "assetIds": []
    },
    {
      "x": 19,
      "y": 399,
      "size": 1,
      "price": "1011000000000000000000",
      "reserved": "",
      "salt": "0xbcb22b4a1689dfbd72f8e3a1243f1b17e1fbab3cf10e432d26ea2e8ae3848fc5",
      "assetIds": []
    },
    {
      "x": 19,
      "y": 400,
      "size": 1,
      "price": "1011000000000000000000",
      "reserved": "0x7a9fe22691c811ea339d9b73150e6911a5343dca",
      "salt": "0xe907689d5a536c2954f2c20e78604e3741a61238fcd3b2e37035b148bc84ada3",
      "assetIds": []
    },
    {
      "x": 19,
      "y": 401,
      "size": 1,
      "price": "4683000000000000000000",
      "reserved": "",
      "salt": "0x96d49d0ee6c15873cb66c170f26b6c740634a4f8e3b1759fefcbee9573218a5e",
      "assetIds": [
        "55464657044963196816950587289035428064568320970692304673817341489687891546112",
        "55464657044963196816950587289035428064568320970692304673817341489687891546113",
        "55464657044963196816950587289035428064568320970692304673817341489687899934720",
        "55464657044963196816950587289035428064568320970692304673817341489687899934721",
        "55464657044963196816950587289035428064568320970692304673817341489687908321280"
      ]
    },
    {
      "x": 19,
      "y": 405,
      "size": 1,
      "price": "4683000000000000000000",
      "reserved": "",
      "salt": "0xd809a98135c326789591b3402d9693791281cafa3b2228cf6eacc143e533c153",
      "assetIds": [
        "55464657044963196816950587289035428064568320970692304673817341489687891546112",
        "55464657044963196816950587289035428064568320970692304673817341489687891546113",
        "55464657044963196816950587289035428064568320970692304673817341489687899934720",
        "55464657044963196816950587289035428064568320970692304673817341489687899934721",
        "55464657044963196816950587289035428064568320970692304673817341489687908321280"
      ]
    },
    {
      "x": 19,
      "y": 406,
      "size": 1,
      "price": "4683000000000000000000",
      "reserved": "",
      "salt": "0x8b956bfeda72a13b1289ac41f11a494147039926bcb6a22eacb4745d4f7da375",
      "assetIds": [
        "55464657044963196816950587289035428064568320970692304673817341489687891546112",
        "55464657044963196816950587289035428064568320970692304673817341489687891546113",
        "55464657044963196816950587289035428064568320970692304673817341489687899934720",
        "55464657044963196816950587289035428064568320970692304673817341489687899934721",
        "55464657044963196816950587289035428064568320970692304673817341489687908321280"
      ]
    },
    {
      "x": 19,
      "y": 407,
      "size": 1,
      "price": "1011000000000000000000",
      "reserved": "",
      "salt": "0x4ef172438647fbc7034ae9c35e46333dc8a622a30b3400c929ddf68f9b1612ff",
      "assetIds": []
    },
    {
      "x": 20,
      "y": 354,
      "size": 1,
      "price": "1011000000000000000000",
      "reserved": "0x7a9fe22691c811ea339d9b73150e6911a5343dca",
      "salt": "0x71b73e8ae3bcc91c3de9d488f9ed4eee10cc67cdf51d8b2ba58c57de60879d27",
      "assetIds": []
    },
    {
      "x": 20,
      "y": 355,
      "size": 1,
      "price": "1011000000000000000000",
      "reserved": "",
      "salt": "0x608f11c45d4d79fac59bbe4eca5897ddf6c7a27b38ffe3a487c9289a78e74ebf",
      "assetIds": []
    },
    {
      "x": 20,
      "y": 356,
      "size": 1,
      "price": "1011000000000000000000",
      "reserved": "",
      "salt": "0x15cbca35cda25968f28d533ffa5accbe59c541aaa07e5820c71004baa05bc06d",
      "assetIds": []
    },
    {
      "x": 20,
      "y": 357,
      "size": 1,
      "price": "1011000000000000000000",
      "reserved": "",
      "salt": "0xd52ffe87c2e54d724e980a887a2960df62a6f606a5a7e22302fc63cea52a821e",
      "assetIds": []
    },
    {
      "x": 20,
      "y": 358,
      "size": 1,
      "price": "1011000000000000000000",
      "reserved": "0x7a9fe22691c811ea339d9b73150e6911a5343dca",
      "salt": "0x3a5fec0dcd948a91e25e3d5e3fa70c9464c34833b8f25ab2b1bbaced0e1d5db6",
      "assetIds": []
    },
    {
      "x": 20,
      "y": 359,
      "size": 1,
      "price": "1011000000000000000000",
      "reserved": "",
      "salt": "0xf5ceb5416052c9541e7bc879a6e923f572348aceeb0a171a3e3e9c2a97096cca",
      "assetIds": []
    },
    {
      "x": 20,
      "y": 360,
      "size": 1,
      "price": "4683000000000000000000",
      "reserved": "",
      "salt": "0x09b3c9709a8d7dadeb9b771e62f219d3e5295ab655958e0ed29dda8ae6e51866",
      "assetIds": [
        "55464657044963196816950587289035428064568320970692304673817341489687891546112",
        "55464657044963196816950587289035428064568320970692304673817341489687891546113",
        "55464657044963196816950587289035428064568320970692304673817341489687899934720",
        "55464657044963196816950587289035428064568320970692304673817341489687899934721",
        "55464657044963196816950587289035428064568320970692304673817341489687908321280"
      ]
    },
    {
      "x": 20,
      "y": 361,
      "size": 1,
      "price": "1011000000000000000000",
      "reserved": "0x7a9fe22691c811ea339d9b73150e6911a5343dca",
      "salt": "0xb49d29621a91c0329800fae37e5642aef61624e7f0b8fe30203fa03ad424b109",
      "assetIds": []
    },
    {
      "x": 20,
      "y": 362,
      "size": 1,
      "price": "4683000000000000000000",
      "reserved": "",
      "salt": "0x712050d9c0fac5269854d8bed588f91262680ac545292e212e8596f4b94fe755",
      "assetIds": [
        "55464657044963196816950587289035428064568320970692304673817341489687891546112",
        "55464657044963196816950587289035428064568320970692304673817341489687891546113",
        "55464657044963196816950587289035428064568320970692304673817341489687899934720",
        "55464657044963196816950587289035428064568320970692304673817341489687899934721",
        "55464657044963196816950587289035428064568320970692304673817341489687908321280"
      ]
    },
    {
      "x": 20,
      "y": 363,
      "size": 1,
      "price": "4683000000000000000000",
      "reserved": "",
      "salt": "0xd096fd218f1610c75e58f39f6707e4d77567bcdce39f8a846329c4d21a17c30f",
      "assetIds": [
        "55464657044963196816950587289035428064568320970692304673817341489687891546112",
        "55464657044963196816950587289035428064568320970692304673817341489687891546113",
        "55464657044963196816950587289035428064568320970692304673817341489687899934720",
        "55464657044963196816950587289035428064568320970692304673817341489687899934721",
        "55464657044963196816950587289035428064568320970692304673817341489687908321280"
      ]
    },
    {
      "x": 20,
      "y": 364,
      "size": 1,
      "price": "4683000000000000000000",
      "reserved": "",
      "salt": "0x07bf771b7cc6fd9700d3db6d56359d43dc186a8327f94d77b437fa06742af5ad",
      "assetIds": [
        "55464657044963196816950587289035428064568320970692304673817341489687891546112",
        "55464657044963196816950587289035428064568320970692304673817341489687891546113",
        "55464657044963196816950587289035428064568320970692304673817341489687899934720",
        "55464657044963196816950587289035428064568320970692304673817341489687899934721",
        "55464657044963196816950587289035428064568320970692304673817341489687908321280"
      ]
    },
    {
      "x": 20,
      "y": 365,
      "size": 1,
      "price": "4683000000000000000000",
      "reserved": "",
      "salt": "0x2e6253eb2d7826e3ce8483bf0165e1ceb4dc524c875c5cc8dec3cc38a08fc03d",
      "assetIds": [
        "55464657044963196816950587289035428064568320970692304673817341489687891546112",
        "55464657044963196816950587289035428064568320970692304673817341489687891546113",
        "55464657044963196816950587289035428064568320970692304673817341489687899934720",
        "55464657044963196816950587289035428064568320970692304673817341489687899934721",
        "55464657044963196816950587289035428064568320970692304673817341489687908321280"
      ]
    },
    {
      "x": 20,
      "y": 369,
      "size": 1,
      "price": "1011000000000000000000",
      "reserved": "",
      "salt": "0x0f5ed55c8342c895901a250b266874e7c3a11ab42d26f25e34412d66218857bb",
      "assetIds": []
    },
    {
      "x": 20,
      "y": 370,
      "size": 1,
      "price": "1011000000000000000000",
      "reserved": "",
      "salt": "0x15ec12070ce85821c2bbd689157f0c36fe57f81936f02e7489cc8da009837bc1",
      "assetIds": []
    },
    {
      "x": 20,
      "y": 371,
      "size": 1,
      "price": "1011000000000000000000",
      "reserved": "",
      "salt": "0xb4c2c301340c898b13aa98890a98a3219f6f9151ef7e670b288f38923e87dbe8",
      "assetIds": []
    },
    {
      "x": 20,
      "y": 396,
      "size": 1,
      "price": "4683000000000000000000",
      "reserved": "",
      "salt": "0xe0b1e10ebb63fd01d3a8f838a1688c21c900f1afc451b475e05200dfafa7d155",
      "assetIds": [
        "55464657044963196816950587289035428064568320970692304673817341489687891546112",
        "55464657044963196816950587289035428064568320970692304673817341489687891546113",
        "55464657044963196816950587289035428064568320970692304673817341489687899934720",
        "55464657044963196816950587289035428064568320970692304673817341489687899934721",
        "55464657044963196816950587289035428064568320970692304673817341489687908321280"
      ]
    },
    {
      "x": 20,
      "y": 397,
      "size": 1,
      "price": "4683000000000000000000",
      "reserved": "",
      "salt": "0xcfb69ba160bad564350b492d0b1cdf4309ab5e75507404b249db7acc2a275132",
      "assetIds": [
        "55464657044963196816950587289035428064568320970692304673817341489687891546112",
        "55464657044963196816950587289035428064568320970692304673817341489687891546113",
        "55464657044963196816950587289035428064568320970692304673817341489687899934720",
        "55464657044963196816950587289035428064568320970692304673817341489687899934721",
        "55464657044963196816950587289035428064568320970692304673817341489687908321280"
      ]
    },
    {
      "x": 20,
      "y": 398,
      "size": 1,
      "price": "1011000000000000000000",
      "reserved": "",
      "salt": "0x909391660965f581773b066fdc5d3f52f7956e3096ac761aa8146fa6895c7034",
      "assetIds": []
    },
    {
      "x": 20,
      "y": 399,
      "size": 1,
      "price": "4683000000000000000000",
      "reserved": "",
      "salt": "0xe4a96957aea3c69662a68bf8afb8237f852b2d0d0df584c60453016b7a007169",
      "assetIds": [
        "55464657044963196816950587289035428064568320970692304673817341489687891546112",
        "55464657044963196816950587289035428064568320970692304673817341489687891546113",
        "55464657044963196816950587289035428064568320970692304673817341489687899934720",
        "55464657044963196816950587289035428064568320970692304673817341489687899934721",
        "55464657044963196816950587289035428064568320970692304673817341489687908321280"
      ]
    },
    {
      "x": 20,
      "y": 400,
      "size": 1,
      "price": "4683000000000000000000",
      "reserved": "",
      "salt": "0x0648a7d9f125a7211f14faa44d82dca0429e10d1cabceb035930fc91e9671077",
      "assetIds": [
        "55464657044963196816950587289035428064568320970692304673817341489687891546112",
        "55464657044963196816950587289035428064568320970692304673817341489687891546113",
        "55464657044963196816950587289035428064568320970692304673817341489687899934720",
        "55464657044963196816950587289035428064568320970692304673817341489687899934721",
        "55464657044963196816950587289035428064568320970692304673817341489687908321280"
      ]
    },
    {
      "x": 20,
      "y": 401,
      "size": 1,
      "price": "4683000000000000000000",
      "reserved": "",
      "salt": "0x7d0b414466a27b806c220df20dd9d538c1f0f798d66e64a250be98ad22ceac51",
      "assetIds": [
        "55464657044963196816950587289035428064568320970692304673817341489687891546112",
        "55464657044963196816950587289035428064568320970692304673817341489687891546113",
        "55464657044963196816950587289035428064568320970692304673817341489687899934720",
        "55464657044963196816950587289035428064568320970692304673817341489687899934721",
        "55464657044963196816950587289035428064568320970692304673817341489687908321280"
      ]
    },
    {
      "x": 20,
      "y": 405,
      "size": 1,
      "price": "4683000000000000000000",
      "reserved": "",
      "salt": "0x340bb780ef276a31440196fef4a8dfd7c23054917b91e69e14e401e09454ca84",
      "assetIds": [
        "55464657044963196816950587289035428064568320970692304673817341489687891546112",
        "55464657044963196816950587289035428064568320970692304673817341489687891546113",
        "55464657044963196816950587289035428064568320970692304673817341489687899934720",
        "55464657044963196816950587289035428064568320970692304673817341489687899934721",
        "55464657044963196816950587289035428064568320970692304673817341489687908321280"
      ]
    },
    {
      "x": 20,
      "y": 406,
      "size": 1,
      "price": "4683000000000000000000",
      "reserved": "",
      "salt": "0x6470c2342bef790ad3318900e69505436f4c761282b26320407ce55bc32a2af3",
      "assetIds": [
        "55464657044963196816950587289035428064568320970692304673817341489687891546112",
        "55464657044963196816950587289035428064568320970692304673817341489687891546113",
        "55464657044963196816950587289035428064568320970692304673817341489687899934720",
        "55464657044963196816950587289035428064568320970692304673817341489687899934721",
        "55464657044963196816950587289035428064568320970692304673817341489687908321280"
      ]
    },
    {
      "x": 20,
      "y": 407,
      "size": 1,
      "price": "1011000000000000000000",
      "reserved": "",
      "salt": "0xbb0815c245ea1a9c0f4abd1c05dabd9c00945476d189e1f8378360ac47fcb2f6",
      "assetIds": []
    },
    {
      "x": 21,
      "y": 355,
      "size": 1,
      "price": "1011000000000000000000",
      "reserved": "",
      "salt": "0x4438e70e9eec7e82ae0382cdd4a908c278cf716871b943f043539c4ed5b054f7",
      "assetIds": []
    },
    {
      "x": 21,
      "y": 356,
      "size": 1,
      "price": "1011000000000000000000",
      "reserved": "",
      "salt": "0xdc3063d2cb281ff7392ae01f83fdde185a12263c3f2f1ecf4639379ca9924f42",
      "assetIds": []
    },
    {
      "x": 21,
      "y": 357,
      "size": 1,
      "price": "1011000000000000000000",
      "reserved": "",
      "salt": "0x7dcf8f1316d1627e7b0134c15904ae139e97943c3eed1e9f184539c925927597",
      "assetIds": []
    },
    {
      "x": 21,
      "y": 358,
      "size": 1,
      "price": "1011000000000000000000",
      "reserved": "",
      "salt": "0x335a29f9abeea462aeda687c5addf0681f1b9d41e94d63c22ca24f70e859bc22",
      "assetIds": []
    },
    {
      "x": 21,
      "y": 359,
      "size": 1,
      "price": "1011000000000000000000",
      "reserved": "",
      "salt": "0x4fede297adf9e520d58db15906b06d8b26977669b4ef6d7edce8c5ac7161756f",
      "assetIds": []
    },
    {
      "x": 21,
      "y": 360,
      "size": 1,
      "price": "4683000000000000000000",
      "reserved": "",
      "salt": "0xa234a642856fdd7ae138a9dd4692ea4c0197a1d120317bb31dce2103892df3ae",
      "assetIds": [
        "55464657044963196816950587289035428064568320970692304673817341489687891546112",
        "55464657044963196816950587289035428064568320970692304673817341489687891546113",
        "55464657044963196816950587289035428064568320970692304673817341489687899934720",
        "55464657044963196816950587289035428064568320970692304673817341489687899934721",
        "55464657044963196816950587289035428064568320970692304673817341489687908321280"
      ]
    },
    {
      "x": 21,
      "y": 361,
      "size": 1,
      "price": "4683000000000000000000",
      "reserved": "",
      "salt": "0x0df601e07ace9e45c99457dd084f6b48d675c41703c909a06b401757f7a0d495",
      "assetIds": [
        "55464657044963196816950587289035428064568320970692304673817341489687891546112",
        "55464657044963196816950587289035428064568320970692304673817341489687891546113",
        "55464657044963196816950587289035428064568320970692304673817341489687899934720",
        "55464657044963196816950587289035428064568320970692304673817341489687899934721",
        "55464657044963196816950587289035428064568320970692304673817341489687908321280"
      ]
    },
    {
      "x": 21,
      "y": 362,
      "size": 1,
      "price": "4683000000000000000000",
      "reserved": "",
      "salt": "0xf585a00766ffa6b284508582b9f6b9f902fabf66af51626ede0359c5ec05af7e",
      "assetIds": [
        "55464657044963196816950587289035428064568320970692304673817341489687891546112",
        "55464657044963196816950587289035428064568320970692304673817341489687891546113",
        "55464657044963196816950587289035428064568320970692304673817341489687899934720",
        "55464657044963196816950587289035428064568320970692304673817341489687899934721",
        "55464657044963196816950587289035428064568320970692304673817341489687908321280"
      ]
    },
    {
      "x": 21,
      "y": 366,
      "size": 1,
      "price": "4683000000000000000000",
      "reserved": "",
      "salt": "0xca787d58db34e360353e0f79e0a6a0adfbfbd3edcc1b5856d7da9b58ca52902b",
      "assetIds": [
        "55464657044963196816950587289035428064568320970692304673817341489687891546112",
        "55464657044963196816950587289035428064568320970692304673817341489687891546113",
        "55464657044963196816950587289035428064568320970692304673817341489687899934720",
        "55464657044963196816950587289035428064568320970692304673817341489687899934721",
        "55464657044963196816950587289035428064568320970692304673817341489687908321280"
      ]
    },
    {
      "x": 21,
      "y": 367,
      "size": 1,
      "price": "4683000000000000000000",
      "reserved": "",
      "salt": "0x028f91eaaa9708a6abbf4dba06f310ea328f7341832f9f6bf3f8fabf03c7b952",
      "assetIds": [
        "55464657044963196816950587289035428064568320970692304673817341489687891546112",
        "55464657044963196816950587289035428064568320970692304673817341489687891546113",
        "55464657044963196816950587289035428064568320970692304673817341489687899934720",
        "55464657044963196816950587289035428064568320970692304673817341489687899934721",
        "55464657044963196816950587289035428064568320970692304673817341489687908321280"
      ]
    },
    {
      "x": 21,
      "y": 368,
      "size": 1,
      "price": "4683000000000000000000",
      "reserved": "",
      "salt": "0x9227f2bbd5bc401e61cd0c852ecb4831352437e7720c40210bb3d235388e031a",
      "assetIds": [
        "55464657044963196816950587289035428064568320970692304673817341489687891546112",
        "55464657044963196816950587289035428064568320970692304673817341489687891546113",
        "55464657044963196816950587289035428064568320970692304673817341489687899934720",
        "55464657044963196816950587289035428064568320970692304673817341489687899934721",
        "55464657044963196816950587289035428064568320970692304673817341489687908321280"
      ]
    },
    {
      "x": 21,
      "y": 369,
      "size": 1,
      "price": "1011000000000000000000",
      "reserved": "",
      "salt": "0xbc869c8d5c2ceec46f86405c3baf4940d2d7f2dd55e0b019a11c613ca7cac604",
      "assetIds": []
    },
    {
      "x": 21,
      "y": 370,
      "size": 1,
      "price": "1011000000000000000000",
      "reserved": "",
      "salt": "0x2cf1b1c2ac17e4a7d6e64db6d35f5962c16f4e337c2121d06efe8ed4f6d64142",
      "assetIds": []
    },
    {
      "x": 21,
      "y": 371,
      "size": 1,
      "price": "1011000000000000000000",
      "reserved": "",
      "salt": "0x7f4f4a97633d124ff38ce8b0e1d1408487ad5b6abcfab7948d770dce2fc51569",
      "assetIds": []
    },
    {
      "x": 21,
      "y": 396,
      "size": 1,
      "price": "4683000000000000000000",
      "reserved": "",
      "salt": "0xd3b2290a315fa6589a5288b9e41654b4bad798516e01450de0d6369d6590b1d7",
      "assetIds": [
        "55464657044963196816950587289035428064568320970692304673817341489687891546112",
        "55464657044963196816950587289035428064568320970692304673817341489687891546113",
        "55464657044963196816950587289035428064568320970692304673817341489687899934720",
        "55464657044963196816950587289035428064568320970692304673817341489687899934721",
        "55464657044963196816950587289035428064568320970692304673817341489687908321280"
      ]
    },
    {
      "x": 21,
      "y": 397,
      "size": 1,
      "price": "1011000000000000000000",
      "reserved": "0x7a9fe22691c811ea339d9b73150e6911a5343dca",
      "salt": "0x3d1ec8fbd8f306c57c510eb5e89e3d3de1b4bcc06b7910ee532d8d9c188deeb6",
      "assetIds": []
    },
    {
      "x": 21,
      "y": 398,
      "size": 1,
      "price": "1011000000000000000000",
      "reserved": "",
      "salt": "0xa3116fdeee725fc6393daaf2dfafbc0a11e52a25c908710d1569cc7758b74b06",
      "assetIds": []
    },
    {
      "x": 21,
      "y": 399,
      "size": 1,
      "price": "4683000000000000000000",
      "reserved": "",
      "salt": "0xeed97365be03149a43fe2cb7d6390914f552c470c487fa303c65ad51e13a8dac",
      "assetIds": [
        "55464657044963196816950587289035428064568320970692304673817341489687891546112",
        "55464657044963196816950587289035428064568320970692304673817341489687891546113",
        "55464657044963196816950587289035428064568320970692304673817341489687899934720",
        "55464657044963196816950587289035428064568320970692304673817341489687899934721",
        "55464657044963196816950587289035428064568320970692304673817341489687908321280"
      ]
    },
    {
      "x": 21,
      "y": 400,
      "size": 1,
      "price": "4683000000000000000000",
      "reserved": "",
      "salt": "0x8f9c3e582bfbf1c0de7431f3fcafb8996932f94afb6d09614c9e17d3c3ff0eea",
      "assetIds": [
        "55464657044963196816950587289035428064568320970692304673817341489687891546112",
        "55464657044963196816950587289035428064568320970692304673817341489687891546113",
        "55464657044963196816950587289035428064568320970692304673817341489687899934720",
        "55464657044963196816950587289035428064568320970692304673817341489687899934721",
        "55464657044963196816950587289035428064568320970692304673817341489687908321280"
      ]
    },
    {
      "x": 21,
      "y": 401,
      "size": 1,
      "price": "1011000000000000000000",
      "reserved": "0x7a9fe22691c811ea339d9b73150e6911a5343dca",
      "salt": "0x8e5478d29b6f98a6b4898a33f67f6db44ff7a868ef5153e3e0221115c4b7a9e7",
      "assetIds": []
    },
    {
      "x": 21,
      "y": 402,
      "size": 1,
      "price": "4683000000000000000000",
      "reserved": "",
      "salt": "0xcebd1421bf294802de73e1df4a8c330f84a6af2bd99ecec2dc370198bf2c573b",
      "assetIds": [
        "55464657044963196816950587289035428064568320970692304673817341489687891546112",
        "55464657044963196816950587289035428064568320970692304673817341489687891546113",
        "55464657044963196816950587289035428064568320970692304673817341489687899934720",
        "55464657044963196816950587289035428064568320970692304673817341489687899934721",
        "55464657044963196816950587289035428064568320970692304673817341489687908321280"
      ]
    },
    {
      "x": 21,
      "y": 403,
      "size": 1,
      "price": "4683000000000000000000",
      "reserved": "",
      "salt": "0xbbb98e0c663995cea72a8655b74051f1f03206a5c7eff6d74bcb3fc4cc98a8ee",
      "assetIds": [
        "55464657044963196816950587289035428064568320970692304673817341489687891546112",
        "55464657044963196816950587289035428064568320970692304673817341489687891546113",
        "55464657044963196816950587289035428064568320970692304673817341489687899934720",
        "55464657044963196816950587289035428064568320970692304673817341489687899934721",
        "55464657044963196816950587289035428064568320970692304673817341489687908321280"
      ]
    },
    {
      "x": 21,
      "y": 404,
      "size": 1,
      "price": "4683000000000000000000",
      "reserved": "",
      "salt": "0x0d82f1b6cc9bf625dcfbc5c493f5f6bfa8cd4cf27009e1c790314888c76eb286",
      "assetIds": [
        "55464657044963196816950587289035428064568320970692304673817341489687891546112",
        "55464657044963196816950587289035428064568320970692304673817341489687891546113",
        "55464657044963196816950587289035428064568320970692304673817341489687899934720",
        "55464657044963196816950587289035428064568320970692304673817341489687899934721",
        "55464657044963196816950587289035428064568320970692304673817341489687908321280"
      ]
    },
    {
      "x": 21,
      "y": 405,
      "size": 1,
      "price": "4683000000000000000000",
      "reserved": "",
      "salt": "0x738b12936349d512fd8307579c059fc94888b680a7ad8af80976430a8bdb6659",
      "assetIds": [
        "55464657044963196816950587289035428064568320970692304673817341489687891546112",
        "55464657044963196816950587289035428064568320970692304673817341489687891546113",
        "55464657044963196816950587289035428064568320970692304673817341489687899934720",
        "55464657044963196816950587289035428064568320970692304673817341489687899934721",
        "55464657044963196816950587289035428064568320970692304673817341489687908321280"
      ]
    },
    {
      "x": 21,
      "y": 406,
      "size": 1,
      "price": "1011000000000000000000",
      "reserved": "0x7a9fe22691c811ea339d9b73150e6911a5343dca",
      "salt": "0x4f564a7ce58d341df386ea5e8670efeec2673da4a6bec172c7f1adc2e5d39557",
      "assetIds": []
    },
    {
      "x": 21,
      "y": 407,
      "size": 1,
      "price": "1011000000000000000000",
      "reserved": "",
      "salt": "0x06046f592f3fa4c4b290dcc094820c326a84538ca3544a1a304916ddb5971f68",
      "assetIds": []
    },
    {
      "x": 22,
      "y": 355,
      "size": 1,
      "price": "1011000000000000000000",
      "reserved": "",
      "salt": "0x440715d8ae07cadfc7518b49665ac17e4dcfd456cc594a829888681a18fd08df",
      "assetIds": []
    },
    {
      "x": 22,
      "y": 356,
      "size": 1,
      "price": "1011000000000000000000",
      "reserved": "",
      "salt": "0xcfdfd214093ca57974e818cf17218496cfc1f874f9ad4bad6629cb59653ad551",
      "assetIds": []
    },
    {
      "x": 22,
      "y": 357,
      "size": 1,
      "price": "1011000000000000000000",
      "reserved": "",
      "salt": "0x582a8c1257c59008014d88cdf3e1df58fa8fee4bbf14e306cab62e02f6fd852d",
      "assetIds": []
    },
    {
      "x": 22,
      "y": 358,
      "size": 1,
      "price": "1011000000000000000000",
      "reserved": "",
      "salt": "0xbcd5cf743c35dc93256a20eb70c124e5c56c70e911e78264645e5a45726e6502",
      "assetIds": []
    },
    {
      "x": 22,
      "y": 359,
      "size": 1,
      "price": "1011000000000000000000",
      "reserved": "",
      "salt": "0xddd47df1b17fc636496b9ceb4c2e93cbcb0fc5bafd5df609e3e5b89164b687aa",
      "assetIds": []
    },
    {
      "x": 22,
      "y": 360,
      "size": 1,
      "price": "4683000000000000000000",
      "reserved": "",
      "salt": "0x24797ac0318887801166e4d5fb9279a8b544046d34337bd0c98feb4c0d9196a8",
      "assetIds": [
        "55464657044963196816950587289035428064568320970692304673817341489687891546112",
        "55464657044963196816950587289035428064568320970692304673817341489687891546113",
        "55464657044963196816950587289035428064568320970692304673817341489687899934720",
        "55464657044963196816950587289035428064568320970692304673817341489687899934721",
        "55464657044963196816950587289035428064568320970692304673817341489687908321280"
      ]
    },
    {
      "x": 22,
      "y": 361,
      "size": 1,
      "price": "1011000000000000000000",
      "reserved": "0x7a9fe22691c811ea339d9b73150e6911a5343dca",
      "salt": "0xfc8d5fd8a8680297928af72904bd73c6af049d378d4e4ac5234a17ded604ff8c",
      "assetIds": []
    },
    {
      "x": 22,
      "y": 362,
      "size": 1,
      "price": "4683000000000000000000",
      "reserved": "",
      "salt": "0xacda4bc99182b7500fc1962c827a27a4f060cba69155e1e0ded6df08b3a8df7b",
      "assetIds": [
        "55464657044963196816950587289035428064568320970692304673817341489687891546112",
        "55464657044963196816950587289035428064568320970692304673817341489687891546113",
        "55464657044963196816950587289035428064568320970692304673817341489687899934720",
        "55464657044963196816950587289035428064568320970692304673817341489687899934721",
        "55464657044963196816950587289035428064568320970692304673817341489687908321280"
      ]
    },
    {
      "x": 22,
      "y": 366,
      "size": 1,
      "price": "4683000000000000000000",
      "reserved": "",
      "salt": "0xbf3bd3d2aa5f2af0111b5c52f1200ecbff40c50e3e7f5c28170f28b7f6d571fa",
      "assetIds": [
        "55464657044963196816950587289035428064568320970692304673817341489687891546112",
        "55464657044963196816950587289035428064568320970692304673817341489687891546113",
        "55464657044963196816950587289035428064568320970692304673817341489687899934720",
        "55464657044963196816950587289035428064568320970692304673817341489687899934721",
        "55464657044963196816950587289035428064568320970692304673817341489687908321280"
      ]
    },
    {
      "x": 22,
      "y": 367,
      "size": 1,
      "price": "4683000000000000000000",
      "reserved": "",
      "salt": "0x9a8f8a44efc6eb255c56125bbbf618c9a5cc3e7a8dbc59359dab98901045bfe7",
      "assetIds": [
        "55464657044963196816950587289035428064568320970692304673817341489687891546112",
        "55464657044963196816950587289035428064568320970692304673817341489687891546113",
        "55464657044963196816950587289035428064568320970692304673817341489687899934720",
        "55464657044963196816950587289035428064568320970692304673817341489687899934721",
        "55464657044963196816950587289035428064568320970692304673817341489687908321280"
      ]
    },
    {
      "x": 22,
      "y": 368,
      "size": 1,
      "price": "1011000000000000000000",
      "reserved": "0x7a9fe22691c811ea339d9b73150e6911a5343dca",
      "salt": "0xfcf9d8219b74ad7f3008acf055ee93b85ff9f373d11b09f4362107986746024a",
      "assetIds": []
    },
    {
      "x": 22,
      "y": 369,
      "size": 1,
      "price": "1011000000000000000000",
      "reserved": "",
      "salt": "0x27e5d3064eae29da0f86549838e69cae20528b21b6e4399f4c265d547c27268b",
      "assetIds": []
    },
    {
      "x": 22,
      "y": 370,
      "size": 1,
      "price": "1011000000000000000000",
      "reserved": "",
      "salt": "0x33bcf501d20e33b97f0fd400d91befb99f3545d2f4fb1a930dbaea015df30fb3",
      "assetIds": []
    },
    {
      "x": 22,
      "y": 371,
      "size": 1,
      "price": "1011000000000000000000",
      "reserved": "",
      "salt": "0x8b3742547c8eb9580fddbc04b22035d85278425891ca4c052aae0e04a689cffa",
      "assetIds": []
    },
    {
      "x": 22,
      "y": 396,
      "size": 1,
      "price": "4683000000000000000000",
      "reserved": "",
      "salt": "0x3246ab4606bb9102f466e7d9a69f620fae2910a7dd97997b863720431f8293b2",
      "assetIds": [
        "55464657044963196816950587289035428064568320970692304673817341489687891546112",
        "55464657044963196816950587289035428064568320970692304673817341489687891546113",
        "55464657044963196816950587289035428064568320970692304673817341489687899934720",
        "55464657044963196816950587289035428064568320970692304673817341489687899934721",
        "55464657044963196816950587289035428064568320970692304673817341489687908321280"
      ]
    },
    {
      "x": 22,
      "y": 397,
      "size": 1,
      "price": "4683000000000000000000",
      "reserved": "",
      "salt": "0xb50349110c11ec5327881832ab6fa11cd03e22d7dc8fad4bdc17425d23341e17",
      "assetIds": [
        "55464657044963196816950587289035428064568320970692304673817341489687891546112",
        "55464657044963196816950587289035428064568320970692304673817341489687891546113",
        "55464657044963196816950587289035428064568320970692304673817341489687899934720",
        "55464657044963196816950587289035428064568320970692304673817341489687899934721",
        "55464657044963196816950587289035428064568320970692304673817341489687908321280"
      ]
    },
    {
      "x": 22,
      "y": 398,
      "size": 1,
      "price": "4683000000000000000000",
      "reserved": "",
      "salt": "0x0943fb76d4ac48b20ac056f40e0495b782dac4a22787e1bfbbe869f784cfbf59",
      "assetIds": [
        "55464657044963196816950587289035428064568320970692304673817341489687891546112",
        "55464657044963196816950587289035428064568320970692304673817341489687891546113",
        "55464657044963196816950587289035428064568320970692304673817341489687899934720",
        "55464657044963196816950587289035428064568320970692304673817341489687899934721",
        "55464657044963196816950587289035428064568320970692304673817341489687908321280"
      ]
    },
    {
      "x": 22,
      "y": 399,
      "size": 1,
      "price": "4683000000000000000000",
      "reserved": "",
      "salt": "0x45b0d1e4a76ec7bd59b23a6dba5f7ca3ea2a3d17b2ddedb790bf1af2f02a8cc7",
      "assetIds": [
        "55464657044963196816950587289035428064568320970692304673817341489687891546112",
        "55464657044963196816950587289035428064568320970692304673817341489687891546113",
        "55464657044963196816950587289035428064568320970692304673817341489687899934720",
        "55464657044963196816950587289035428064568320970692304673817341489687899934721",
        "55464657044963196816950587289035428064568320970692304673817341489687908321280"
      ]
    },
    {
      "x": 22,
      "y": 400,
      "size": 1,
      "price": "4683000000000000000000",
      "reserved": "",
      "salt": "0x7ed0f59bba8635b3e39887ebe014ab17f3231e2175dd05b1d9ccc630a8d2a9f0",
      "assetIds": [
        "55464657044963196816950587289035428064568320970692304673817341489687891546112",
        "55464657044963196816950587289035428064568320970692304673817341489687891546113",
        "55464657044963196816950587289035428064568320970692304673817341489687899934720",
        "55464657044963196816950587289035428064568320970692304673817341489687899934721",
        "55464657044963196816950587289035428064568320970692304673817341489687908321280"
      ]
    },
    {
      "x": 22,
      "y": 401,
      "size": 1,
      "price": "1011000000000000000000",
      "reserved": "",
      "salt": "0x5b16df7696bccc6933ae2b33e3ebffa9646e16a33e1b744ff2916b9a8db04a3a",
      "assetIds": []
    },
    {
      "x": 22,
      "y": 402,
      "size": 1,
      "price": "1011000000000000000000",
      "reserved": "0x7a9fe22691c811ea339d9b73150e6911a5343dca",
      "salt": "0xebc77aa1372f540bfc64374911b9dfb30e03b5c3ff7d2453db79a051ec803840",
      "assetIds": []
    },
    {
      "x": 22,
      "y": 403,
      "size": 1,
      "price": "4683000000000000000000",
      "reserved": "",
      "salt": "0xbf3890edcdab70cdda6dcd1b1403df622906c4e55769b9998dccfeb6ebb90c1d",
      "assetIds": [
        "55464657044963196816950587289035428064568320970692304673817341489687891546112",
        "55464657044963196816950587289035428064568320970692304673817341489687891546113",
        "55464657044963196816950587289035428064568320970692304673817341489687899934720",
        "55464657044963196816950587289035428064568320970692304673817341489687899934721",
        "55464657044963196816950587289035428064568320970692304673817341489687908321280"
      ]
    },
    {
      "x": 22,
      "y": 404,
      "size": 1,
      "price": "1011000000000000000000",
      "reserved": "0x7a9fe22691c811ea339d9b73150e6911a5343dca",
      "salt": "0x9a82ffbcc6cd561175f986665e8fdb2a17ca0bf89832de8a39934258be0a87ed",
      "assetIds": []
    },
    {
      "x": 22,
      "y": 405,
      "size": 1,
      "price": "1011000000000000000000",
      "reserved": "",
      "salt": "0x5d1e5f60a47b3a729915217345c10a2d7d86a6f293f76e5da604462b6574ff99",
      "assetIds": []
    },
    {
      "x": 22,
      "y": 406,
      "size": 1,
      "price": "1011000000000000000000",
      "reserved": "",
      "salt": "0x2301935cd283bc37ca5bb69ba71b7a38f518a0d197bab275b1ee3beb3fe53c06",
      "assetIds": []
    },
    {
      "x": 22,
      "y": 407,
      "size": 1,
      "price": "1011000000000000000000",
      "reserved": "",
      "salt": "0x38ffb82d348fbfa17f16f2acbe144a3749d85af6785f15703111a56c71fb9690",
      "assetIds": []
    },
    {
      "x": 23,
      "y": 355,
      "size": 1,
      "price": "1011000000000000000000",
      "reserved": "",
      "salt": "0x3e07942e21c7088152665a9947b805405d1bbf2ca78830a8b1064234b9fb5cbe",
      "assetIds": []
    },
    {
      "x": 23,
      "y": 356,
      "size": 1,
      "price": "1011000000000000000000",
      "reserved": "",
      "salt": "0xcc3024d67fd0df513bc868c6bc9ce72c4ef9a32d4ebf2047c0aecfb5267bc893",
      "assetIds": []
    },
    {
      "x": 23,
      "y": 357,
      "size": 1,
      "price": "1011000000000000000000",
      "reserved": "",
      "salt": "0x708c8882271bd2a5030eb47dd0e2f611a661ff14458eb115380e0f579121b968",
      "assetIds": []
    },
    {
      "x": 23,
      "y": 358,
      "size": 1,
      "price": "1011000000000000000000",
      "reserved": "",
      "salt": "0x76bfba5c2dd5ca58b5ef7238bd42265b4af189aaef8abbb8d3e5cfed32c1e26a",
      "assetIds": []
    },
    {
      "x": 23,
      "y": 359,
      "size": 1,
      "price": "1011000000000000000000",
      "reserved": "",
      "salt": "0xcc4d4b60457e797751b723d3741f0a5fc0708a7e0eb544fa07040bbdb59688af",
      "assetIds": []
    },
    {
      "x": 23,
      "y": 360,
      "size": 1,
      "price": "4683000000000000000000",
      "reserved": "",
      "salt": "0x24a586f48103faabb824ff0739738b722d57b1c4bb0c450fbb20b41ee64f13c1",
      "assetIds": [
        "55464657044963196816950587289035428064568320970692304673817341489687891546112",
        "55464657044963196816950587289035428064568320970692304673817341489687891546113",
        "55464657044963196816950587289035428064568320970692304673817341489687899934720",
        "55464657044963196816950587289035428064568320970692304673817341489687899934721",
        "55464657044963196816950587289035428064568320970692304673817341489687908321280"
      ]
    },
    {
      "x": 23,
      "y": 361,
      "size": 1,
      "price": "4683000000000000000000",
      "reserved": "",
      "salt": "0xa057f8c58f61637ef4940c1bfe46b1981729c1e70e0e441e37fc73b2d0d800fe",
      "assetIds": [
        "55464657044963196816950587289035428064568320970692304673817341489687891546112",
        "55464657044963196816950587289035428064568320970692304673817341489687891546113",
        "55464657044963196816950587289035428064568320970692304673817341489687899934720",
        "55464657044963196816950587289035428064568320970692304673817341489687899934721",
        "55464657044963196816950587289035428064568320970692304673817341489687908321280"
      ]
    },
    {
      "x": 23,
      "y": 362,
      "size": 1,
      "price": "4683000000000000000000",
      "reserved": "",
      "salt": "0x639fac207c4d2efa2dd75b26f8c78835d3b2f2bef40e5477896a2f2aca78df06",
      "assetIds": [
        "55464657044963196816950587289035428064568320970692304673817341489687891546112",
        "55464657044963196816950587289035428064568320970692304673817341489687891546113",
        "55464657044963196816950587289035428064568320970692304673817341489687899934720",
        "55464657044963196816950587289035428064568320970692304673817341489687899934721",
        "55464657044963196816950587289035428064568320970692304673817341489687908321280"
      ]
    },
    {
      "x": 23,
      "y": 366,
      "size": 1,
      "price": "4683000000000000000000",
      "reserved": "",
      "salt": "0xc8f3a0703b55b2e22a3ed548c174950dd3aed2f2650ff33eeb63bdc44589781b",
      "assetIds": [
        "55464657044963196816950587289035428064568320970692304673817341489687891546112",
        "55464657044963196816950587289035428064568320970692304673817341489687891546113",
        "55464657044963196816950587289035428064568320970692304673817341489687899934720",
        "55464657044963196816950587289035428064568320970692304673817341489687899934721",
        "55464657044963196816950587289035428064568320970692304673817341489687908321280"
      ]
    },
    {
      "x": 23,
      "y": 367,
      "size": 1,
      "price": "4683000000000000000000",
      "reserved": "",
      "salt": "0xecf4bf9e2966e472a070ae5e6fb956ae19f05cda26c755959ce2577b5c17da8a",
      "assetIds": [
        "55464657044963196816950587289035428064568320970692304673817341489687891546112",
        "55464657044963196816950587289035428064568320970692304673817341489687891546113",
        "55464657044963196816950587289035428064568320970692304673817341489687899934720",
        "55464657044963196816950587289035428064568320970692304673817341489687899934721",
        "55464657044963196816950587289035428064568320970692304673817341489687908321280"
      ]
    },
    {
      "x": 23,
      "y": 368,
      "size": 1,
      "price": "1011000000000000000000",
      "reserved": "",
      "salt": "0x33d31e38e653fb5f1d8b63b71a28f43f2436431c92a0d38e9a4fbd2af0fbed5b",
      "assetIds": []
    },
    {
      "x": 23,
      "y": 369,
      "size": 1,
      "price": "1011000000000000000000",
      "reserved": "",
      "salt": "0x6bb2441bfea7d53e6f49598faf91ef5a43d7c37657e1feb058db8ad2a4116190",
      "assetIds": []
    },
    {
      "x": 23,
      "y": 370,
      "size": 1,
      "price": "1011000000000000000000",
      "reserved": "",
      "salt": "0x4271340d3ab7fc0fe6fcdde58c5558bb48a15f25027f8ab8944f01b63249e262",
      "assetIds": []
    },
    {
      "x": 23,
      "y": 371,
      "size": 1,
      "price": "1011000000000000000000",
      "reserved": "",
      "salt": "0x3a43c6252d99eaf94604d62e79478c596af7397a90f8b600d958f61ce463a06f",
      "assetIds": []
    },
    {
      "x": 23,
      "y": 396,
      "size": 1,
      "price": "4683000000000000000000",
      "reserved": "",
      "salt": "0xcbb8f0878bbb344a5d37e28ec439aef3e89e228256a29031983287ec12971881",
      "assetIds": [
        "55464657044963196816950587289035428064568320970692304673817341489687891546112",
        "55464657044963196816950587289035428064568320970692304673817341489687891546113",
        "55464657044963196816950587289035428064568320970692304673817341489687899934720",
        "55464657044963196816950587289035428064568320970692304673817341489687899934721",
        "55464657044963196816950587289035428064568320970692304673817341489687908321280"
      ]
    },
    {
      "x": 23,
      "y": 397,
      "size": 1,
      "price": "1011000000000000000000",
      "reserved": "0x7a9fe22691c811ea339d9b73150e6911a5343dca",
      "salt": "0x05b7c2940ac1a63f73b49c1ec0f6954421c964f2bbae3c915d9cf8e03e845bc8",
      "assetIds": []
    },
    {
      "x": 23,
      "y": 398,
      "size": 1,
      "price": "1011000000000000000000",
      "reserved": "",
      "salt": "0xc564f7a4a310bbdee954b254b769e088ecb7629abe0ec3141c253bc4f6062056",
      "assetIds": []
    },
    {
      "x": 23,
      "y": 399,
      "size": 1,
      "price": "1011000000000000000000",
      "reserved": "",
      "salt": "0xc9c44eb395c86fd7ee8044f4a0c01a328cc002cb93a570214d3389edae21fa80",
      "assetIds": []
    },
    {
      "x": 23,
      "y": 400,
      "size": 1,
      "price": "1011000000000000000000",
      "reserved": "",
      "salt": "0xdf874cda392abadf129aa37d5b749037b18061c99ca691fbe40bf24baf8f5a02",
      "assetIds": []
    },
    {
      "x": 23,
      "y": 401,
      "size": 1,
      "price": "1011000000000000000000",
      "reserved": "",
      "salt": "0x4bff71bbf7e7df2516c78ff4f77bea2a1fc3d5f5718afee7149544b3bd6575ab",
      "assetIds": []
    },
    {
      "x": 23,
      "y": 402,
      "size": 1,
      "price": "1011000000000000000000",
      "reserved": "",
      "salt": "0xc184cdb6fc17f4578b5da21b04eda71e1be8d5ee1b498d4ff0ee8bfd90b7b36c",
      "assetIds": []
    },
    {
      "x": 23,
      "y": 403,
      "size": 1,
      "price": "1011000000000000000000",
      "reserved": "",
      "salt": "0xbc78931f77960cced0868cb7547d47a9cdee4ef8fec100b3a4030f039520fb9c",
      "assetIds": []
    },
    {
      "x": 23,
      "y": 404,
      "size": 1,
      "price": "1011000000000000000000",
      "reserved": "",
      "salt": "0xc4cd7d932d20db551cb37e8a7ce3c9c630e820be7dc8d7b1c011051d45bceada",
      "assetIds": []
    },
    {
      "x": 23,
      "y": 405,
      "size": 1,
      "price": "1011000000000000000000",
      "reserved": "",
      "salt": "0xfe7441d3f105db31072e0c6f0190b94c83bb3e38d6023872a9b214f551ed8f35",
      "assetIds": []
    },
    {
      "x": 23,
      "y": 406,
      "size": 1,
      "price": "1011000000000000000000",
      "reserved": "",
      "salt": "0x0770d58cea668ec5a9c1cee60077ddf5767b972659a3bf7197d1eb0eeaec8f2f",
      "assetIds": []
    },
    {
      "x": 23,
      "y": 407,
      "size": 1,
      "price": "1011000000000000000000",
      "reserved": "",
      "salt": "0x59f20472069cc993ba45165e5132d769de5744d4fa982f6f56fad466ef994af2",
      "assetIds": []
    },
    {
      "x": 24,
      "y": 355,
      "size": 1,
      "price": "1011000000000000000000",
      "reserved": "",
      "salt": "0xc5e7a85ecff9dfb7db84c025bbcc3efacfe4ff71e323133bf1cee2f97bbb1c20",
      "assetIds": []
    },
    {
      "x": 24,
      "y": 356,
      "size": 1,
      "price": "1011000000000000000000",
      "reserved": "",
      "salt": "0x6431e8137f249354f618a777b3ce59dd8853ccd3d7e056e6952f6a1b45b3bd44",
      "assetIds": []
    },
    {
      "x": 24,
      "y": 357,
      "size": 1,
      "price": "1011000000000000000000",
      "reserved": "",
      "salt": "0x52e4fa0c2f12e0a8f7fa0372e938ac694ec7e63c2882d3467b973ed17bcff2da",
      "assetIds": []
    },
    {
      "x": 24,
      "y": 358,
      "size": 1,
      "price": "1011000000000000000000",
      "reserved": "",
      "salt": "0x448b701822522b0e8b29d8559145acd7345cfdb2b2bbc7b8e63e28ad35c8a8c1",
      "assetIds": []
    },
    {
      "x": 24,
      "y": 359,
      "size": 1,
      "price": "1011000000000000000000",
      "reserved": "",
      "salt": "0x2fbd33ddee84e998955db2a436055b40d26fb62f5e2a0c574ff52e1d82caa3d0",
      "assetIds": []
    },
    {
      "x": 24,
      "y": 384,
      "size": 1,
      "price": "4683000000000000000000",
      "reserved": "",
      "salt": "0x2aafe71679c75fe95b7986d03af5913878321f0e56bde37905b440a24cd5d8cb",
      "assetIds": [
        "55464657044963196816950587289035428064568320970692304673817341489687891546112",
        "55464657044963196816950587289035428064568320970692304673817341489687891546113",
        "55464657044963196816950587289035428064568320970692304673817341489687899934720",
        "55464657044963196816950587289035428064568320970692304673817341489687899934721",
        "55464657044963196816950587289035428064568320970692304673817341489687908321280"
      ]
    },
    {
      "x": 24,
      "y": 385,
      "size": 1,
      "price": "4683000000000000000000",
      "reserved": "",
      "salt": "0x3541072f3b19ad0c9fc666941e7f9a9a14f81596b4ddd183db70fbac51017d0b",
      "assetIds": [
        "55464657044963196816950587289035428064568320970692304673817341489687891546112",
        "55464657044963196816950587289035428064568320970692304673817341489687891546113",
        "55464657044963196816950587289035428064568320970692304673817341489687899934720",
        "55464657044963196816950587289035428064568320970692304673817341489687899934721",
        "55464657044963196816950587289035428064568320970692304673817341489687908321280"
      ]
    },
    {
      "x": 24,
      "y": 386,
      "size": 1,
      "price": "4683000000000000000000",
      "reserved": "",
      "salt": "0x5d9e2dbad5d8fdf39a0f3f23fcee5324e92b0d90683a0e75fd406fd660da0cd4",
      "assetIds": [
        "55464657044963196816950587289035428064568320970692304673817341489687891546112",
        "55464657044963196816950587289035428064568320970692304673817341489687891546113",
        "55464657044963196816950587289035428064568320970692304673817341489687899934720",
        "55464657044963196816950587289035428064568320970692304673817341489687899934721",
        "55464657044963196816950587289035428064568320970692304673817341489687908321280"
      ]
    },
    {
      "x": 24,
      "y": 387,
      "size": 1,
      "price": "4683000000000000000000",
      "reserved": "",
      "salt": "0x8c834663466aef4c3c688f052e287caff7b8e17ff647c83d8cb3f398d16f0bc7",
      "assetIds": [
        "55464657044963196816950587289035428064568320970692304673817341489687891546112",
        "55464657044963196816950587289035428064568320970692304673817341489687891546113",
        "55464657044963196816950587289035428064568320970692304673817341489687899934720",
        "55464657044963196816950587289035428064568320970692304673817341489687899934721",
        "55464657044963196816950587289035428064568320970692304673817341489687908321280"
      ]
    },
    {
      "x": 24,
      "y": 388,
      "size": 1,
      "price": "4683000000000000000000",
      "reserved": "",
      "salt": "0x46c9c99bc148957adbe6481544df0f7f7763d9e8d669cba5dec887a432c424ce",
      "assetIds": [
        "55464657044963196816950587289035428064568320970692304673817341489687891546112",
        "55464657044963196816950587289035428064568320970692304673817341489687891546113",
        "55464657044963196816950587289035428064568320970692304673817341489687899934720",
        "55464657044963196816950587289035428064568320970692304673817341489687899934721",
        "55464657044963196816950587289035428064568320970692304673817341489687908321280"
      ]
    },
    {
      "x": 24,
      "y": 389,
      "size": 1,
      "price": "4683000000000000000000",
      "reserved": "",
      "salt": "0x8cd567e5fbe3765833304b67e3fd23a0aa2f467802de9fedc989ff39fbe8231c",
      "assetIds": [
        "55464657044963196816950587289035428064568320970692304673817341489687891546112",
        "55464657044963196816950587289035428064568320970692304673817341489687891546113",
        "55464657044963196816950587289035428064568320970692304673817341489687899934720",
        "55464657044963196816950587289035428064568320970692304673817341489687899934721",
        "55464657044963196816950587289035428064568320970692304673817341489687908321280"
      ]
    },
    {
      "x": 24,
      "y": 390,
      "size": 1,
      "price": "4683000000000000000000",
      "reserved": "",
      "salt": "0xaabfb7214769081ba289ecae3491a81ea9e4ea45c4af4442bc1da62c7f8535e3",
      "assetIds": [
        "55464657044963196816950587289035428064568320970692304673817341489687891546112",
        "55464657044963196816950587289035428064568320970692304673817341489687891546113",
        "55464657044963196816950587289035428064568320970692304673817341489687899934720",
        "55464657044963196816950587289035428064568320970692304673817341489687899934721",
        "55464657044963196816950587289035428064568320970692304673817341489687908321280"
      ]
    },
    {
      "x": 24,
      "y": 391,
      "size": 1,
      "price": "4683000000000000000000",
      "reserved": "",
      "salt": "0x8f6ce9be8254585fbac7ec8bdd3308d838cbdf62382f977afb7f0333561d9e9b",
      "assetIds": [
        "55464657044963196816950587289035428064568320970692304673817341489687891546112",
        "55464657044963196816950587289035428064568320970692304673817341489687891546113",
        "55464657044963196816950587289035428064568320970692304673817341489687899934720",
        "55464657044963196816950587289035428064568320970692304673817341489687899934721",
        "55464657044963196816950587289035428064568320970692304673817341489687908321280"
      ]
    },
    {
      "x": 24,
      "y": 392,
      "size": 1,
      "price": "4683000000000000000000",
      "reserved": "",
      "salt": "0xd2702066e86f87991ae9d4e318cc66b15bbc6e61665158b17fd5161388f4bc8f",
      "assetIds": [
        "55464657044963196816950587289035428064568320970692304673817341489687891546112",
        "55464657044963196816950587289035428064568320970692304673817341489687891546113",
        "55464657044963196816950587289035428064568320970692304673817341489687899934720",
        "55464657044963196816950587289035428064568320970692304673817341489687899934721",
        "55464657044963196816950587289035428064568320970692304673817341489687908321280"
      ]
    },
    {
      "x": 24,
      "y": 393,
      "size": 1,
      "price": "4683000000000000000000",
      "reserved": "",
      "salt": "0xf31c397b4c78389e738812225b91ee510148d32880c5b2961602c4c06c42f1a1",
      "assetIds": [
        "55464657044963196816950587289035428064568320970692304673817341489687891546112",
        "55464657044963196816950587289035428064568320970692304673817341489687891546113",
        "55464657044963196816950587289035428064568320970692304673817341489687899934720",
        "55464657044963196816950587289035428064568320970692304673817341489687899934721",
        "55464657044963196816950587289035428064568320970692304673817341489687908321280"
      ]
    },
    {
      "x": 24,
      "y": 394,
      "size": 1,
      "price": "4683000000000000000000",
      "reserved": "",
      "salt": "0xeb5f3bd95a3ef0714c6d53292d18166e6dc4e2347b3ad4fb73e0a0a68c804d42",
      "assetIds": [
        "55464657044963196816950587289035428064568320970692304673817341489687891546112",
        "55464657044963196816950587289035428064568320970692304673817341489687891546113",
        "55464657044963196816950587289035428064568320970692304673817341489687899934720",
        "55464657044963196816950587289035428064568320970692304673817341489687899934721",
        "55464657044963196816950587289035428064568320970692304673817341489687908321280"
      ]
    },
    {
      "x": 24,
      "y": 395,
      "size": 1,
      "price": "4683000000000000000000",
      "reserved": "",
      "salt": "0x9aa89d10eb82afa3fa6acf2097b95da20b41e29f9f767ca662d8a0cacbb2a6c9",
      "assetIds": [
        "55464657044963196816950587289035428064568320970692304673817341489687891546112",
        "55464657044963196816950587289035428064568320970692304673817341489687891546113",
        "55464657044963196816950587289035428064568320970692304673817341489687899934720",
        "55464657044963196816950587289035428064568320970692304673817341489687899934721",
        "55464657044963196816950587289035428064568320970692304673817341489687908321280"
      ]
    },
    {
      "x": 24,
      "y": 396,
      "size": 1,
      "price": "1011000000000000000000",
      "reserved": "",
      "salt": "0xaa6edd5e2ef5491cef6274cce7c2b0a4105993382d36b1b36d769eac5c231960",
      "assetIds": []
    },
    {
      "x": 24,
      "y": 397,
      "size": 1,
      "price": "1011000000000000000000",
      "reserved": "",
      "salt": "0x5dc34f1277c7982ba99a8213c05c6cd04c7bf358af9103fa52fa0e8b4e8ec179",
      "assetIds": []
    },
    {
      "x": 24,
      "y": 398,
      "size": 1,
      "price": "1011000000000000000000",
      "reserved": "",
      "salt": "0xee9bcf5db4ec686e4038725545121cb3c73c341e8127eb32acc61397199010b8",
      "assetIds": []
    },
    {
      "x": 24,
      "y": 399,
      "size": 1,
      "price": "1011000000000000000000",
      "reserved": "",
      "salt": "0x1dd7ba50804fad25241abc0e4904415148b3d678aa0da8bee538c2f12db1c002",
      "assetIds": []
    },
    {
      "x": 24,
      "y": 400,
      "size": 1,
      "price": "1011000000000000000000",
      "reserved": "",
      "salt": "0x6be57e404b37b741bdfe7d5dfd81da7fe9afa474d9ccedc996dc31beff3b5ef3",
      "assetIds": []
    },
    {
      "x": 24,
      "y": 401,
      "size": 1,
      "price": "1011000000000000000000",
      "reserved": "",
      "salt": "0x44a6e078e74875c58f91f135519d5a92fd5c720d47ed37d15699cd52e6ad4e4a",
      "assetIds": []
    },
    {
      "x": 24,
      "y": 402,
      "size": 1,
      "price": "1011000000000000000000",
      "reserved": "",
      "salt": "0xb5995d3cf4d141c1388c30c8696476358eaf2b792dbf1936c5acd9487618520a",
      "assetIds": []
    },
    {
      "x": 24,
      "y": 403,
      "size": 1,
      "price": "1011000000000000000000",
      "reserved": "",
      "salt": "0x0aa933d0538477ab77395eab3b209cff987fce525d92677457e2ab9a4dca62cc",
      "assetIds": []
    },
    {
      "x": 24,
      "y": 404,
      "size": 1,
      "price": "1011000000000000000000",
      "reserved": "",
      "salt": "0xfa559afd0173726acbabbaa701a40b00186c451a0d8283484da782b2612d3e00",
      "assetIds": []
    },
    {
      "x": 24,
      "y": 405,
      "size": 1,
      "price": "1011000000000000000000",
      "reserved": "",
      "salt": "0x46ec763e37dcb24a9b1b9bd49509108c229c88c5e8222e18fa1c507c94643a42",
      "assetIds": []
    },
    {
      "x": 24,
      "y": 406,
      "size": 1,
      "price": "1011000000000000000000",
      "reserved": "",
      "salt": "0x3dd05d52f7e59d40d2961c501b449c47ad7dc0da2b482332d1d241228bc597ef",
      "assetIds": []
    },
    {
      "x": 24,
      "y": 407,
      "size": 1,
      "price": "1011000000000000000000",
      "reserved": "",
      "salt": "0x67fbba74172e3672ed3888915370b4e1aac900ccb8b14a2947f643e1918df52a",
      "assetIds": []
    },
    {
      "x": 25,
      "y": 346,
      "size": 1,
      "price": "1011000000000000000000",
      "reserved": "",
      "salt": "0xffaefd5ffc4d69beca67538293dd28e54650bd01712cd74b8dd759a5b6d19a45",
      "assetIds": []
    },
    {
      "x": 25,
      "y": 347,
      "size": 1,
      "price": "1011000000000000000000",
      "reserved": "0x7a9fe22691c811ea339d9b73150e6911a5343dca",
      "salt": "0xda40c466b7c5435f25f9bf43618e3e96e85ab7d518876351da0782aa5b887f4f",
      "assetIds": []
    },
    {
      "x": 25,
      "y": 355,
      "size": 1,
      "price": "1011000000000000000000",
      "reserved": "",
      "salt": "0x054d87b7e3078f10fc026f9721afcd8e453dfe6c18ddce0fcf9aecf09ea6cb2a",
      "assetIds": []
    },
    {
      "x": 25,
      "y": 356,
      "size": 1,
      "price": "1011000000000000000000",
      "reserved": "",
      "salt": "0x0fe860ceda9169ced0ce0b5ca745464136b1d81604986a618b8a78a3d5d7a180",
      "assetIds": []
    },
    {
      "x": 25,
      "y": 357,
      "size": 1,
      "price": "1011000000000000000000",
      "reserved": "",
      "salt": "0x3563669416a0142c4258844e98316761ac257a98927dd68f5f632d2d560dc713",
      "assetIds": []
    },
    {
      "x": 25,
      "y": 358,
      "size": 1,
      "price": "1011000000000000000000",
      "reserved": "",
      "salt": "0xd790414532370be1246b70742ef2d6286f0412331c26e32da422270b19d1daa6",
      "assetIds": []
    },
    {
      "x": 25,
      "y": 359,
      "size": 1,
      "price": "1011000000000000000000",
      "reserved": "",
      "salt": "0xf201dc1630bc78411f13457a7016d4ead38ccdb6bd098fb9af8cbbb383a218a9",
      "assetIds": []
    },
    {
      "x": 25,
      "y": 384,
      "size": 1,
      "price": "4683000000000000000000",
      "reserved": "",
      "salt": "0xdcedeba5f4ce00e2f6cfaf0853acb072c2a681bb7558c71d4b5e2d35a834f369",
      "assetIds": [
        "55464657044963196816950587289035428064568320970692304673817341489687891546112",
        "55464657044963196816950587289035428064568320970692304673817341489687891546113",
        "55464657044963196816950587289035428064568320970692304673817341489687899934720",
        "55464657044963196816950587289035428064568320970692304673817341489687899934721",
        "55464657044963196816950587289035428064568320970692304673817341489687908321280"
      ]
    },
    {
      "x": 25,
      "y": 385,
      "size": 1,
      "price": "4683000000000000000000",
      "reserved": "",
      "salt": "0xc15ecf3f6c62ff9daffc97449c264811b3284f12b8cbe5ae07e8a107d6b1f3b3",
      "assetIds": [
        "55464657044963196816950587289035428064568320970692304673817341489687891546112",
        "55464657044963196816950587289035428064568320970692304673817341489687891546113",
        "55464657044963196816950587289035428064568320970692304673817341489687899934720",
        "55464657044963196816950587289035428064568320970692304673817341489687899934721",
        "55464657044963196816950587289035428064568320970692304673817341489687908321280"
      ]
    },
    {
      "x": 25,
      "y": 386,
      "size": 1,
      "price": "4683000000000000000000",
      "reserved": "",
      "salt": "0x909fcde13e2ed5b6c1247dc6e0fe0f297a5db1b430e337c99c4262b720252b7f",
      "assetIds": [
        "55464657044963196816950587289035428064568320970692304673817341489687891546112",
        "55464657044963196816950587289035428064568320970692304673817341489687891546113",
        "55464657044963196816950587289035428064568320970692304673817341489687899934720",
        "55464657044963196816950587289035428064568320970692304673817341489687899934721",
        "55464657044963196816950587289035428064568320970692304673817341489687908321280"
      ]
    },
    {
      "x": 25,
      "y": 387,
      "size": 1,
      "price": "4683000000000000000000",
      "reserved": "",
      "salt": "0x0d130176d6241253672ab9f74824e5cd6453dd398635e0163ec47b5f311bcb4b",
      "assetIds": [
        "55464657044963196816950587289035428064568320970692304673817341489687891546112",
        "55464657044963196816950587289035428064568320970692304673817341489687891546113",
        "55464657044963196816950587289035428064568320970692304673817341489687899934720",
        "55464657044963196816950587289035428064568320970692304673817341489687899934721",
        "55464657044963196816950587289035428064568320970692304673817341489687908321280"
      ]
    },
    {
      "x": 25,
      "y": 388,
      "size": 1,
      "price": "1011000000000000000000",
      "reserved": "0x7a9fe22691c811ea339d9b73150e6911a5343dca",
      "salt": "0x1aeb99b00482d1348c22ca2ac77c96ec20d0a5ae5aca92cb861f425f1ec6c504",
      "assetIds": []
    },
    {
      "x": 25,
      "y": 389,
      "size": 1,
      "price": "4683000000000000000000",
      "reserved": "",
      "salt": "0x8f6b66d0ac7f4764d3ded5a742707efbda78dee0d5affa5908bd3ca68cd0e66e",
      "assetIds": [
        "55464657044963196816950587289035428064568320970692304673817341489687891546112",
        "55464657044963196816950587289035428064568320970692304673817341489687891546113",
        "55464657044963196816950587289035428064568320970692304673817341489687899934720",
        "55464657044963196816950587289035428064568320970692304673817341489687899934721",
        "55464657044963196816950587289035428064568320970692304673817341489687908321280"
      ]
    },
    {
      "x": 25,
      "y": 390,
      "size": 1,
      "price": "4683000000000000000000",
      "reserved": "",
      "salt": "0xc5e760a7c06b17cd3fd0040fd6568f89eabde5e9b1b0d0eae1e7577a44463004",
      "assetIds": [
        "55464657044963196816950587289035428064568320970692304673817341489687891546112",
        "55464657044963196816950587289035428064568320970692304673817341489687891546113",
        "55464657044963196816950587289035428064568320970692304673817341489687899934720",
        "55464657044963196816950587289035428064568320970692304673817341489687899934721",
        "55464657044963196816950587289035428064568320970692304673817341489687908321280"
      ]
    },
    {
      "x": 25,
      "y": 391,
      "size": 1,
      "price": "1011000000000000000000",
      "reserved": "0x7a9fe22691c811ea339d9b73150e6911a5343dca",
      "salt": "0x66f1068237471ed4d1e13bf661c15f6e720c1d30d8ff7c3ce003614265e08845",
      "assetIds": []
    },
    {
      "x": 25,
      "y": 392,
      "size": 1,
      "price": "1011000000000000000000",
      "reserved": "0x7a9fe22691c811ea339d9b73150e6911a5343dca",
      "salt": "0xd71cdd6922c50ff7b6e158d1947a93389912752668c987658d3c644962f840e1",
      "assetIds": []
    },
    {
      "x": 25,
      "y": 393,
      "size": 1,
      "price": "4683000000000000000000",
      "reserved": "",
      "salt": "0xf74a511033f3318869c0ee623ec09a0ba9cd6db252b9edcceed8c67b936763e6",
      "assetIds": [
        "55464657044963196816950587289035428064568320970692304673817341489687891546112",
        "55464657044963196816950587289035428064568320970692304673817341489687891546113",
        "55464657044963196816950587289035428064568320970692304673817341489687899934720",
        "55464657044963196816950587289035428064568320970692304673817341489687899934721",
        "55464657044963196816950587289035428064568320970692304673817341489687908321280"
      ]
    },
    {
      "x": 25,
      "y": 394,
      "size": 1,
      "price": "4683000000000000000000",
      "reserved": "",
      "salt": "0x26a692c3996afc52fe79112f3b514d083c6adb50ea60e089da12e900db658258",
      "assetIds": [
        "55464657044963196816950587289035428064568320970692304673817341489687891546112",
        "55464657044963196816950587289035428064568320970692304673817341489687891546113",
        "55464657044963196816950587289035428064568320970692304673817341489687899934720",
        "55464657044963196816950587289035428064568320970692304673817341489687899934721",
        "55464657044963196816950587289035428064568320970692304673817341489687908321280"
      ]
    },
    {
      "x": 25,
      "y": 395,
      "size": 1,
      "price": "4683000000000000000000",
      "reserved": "",
      "salt": "0x49a15b50e4107cd96170901821b8879a206860a39a20b2ac0149420ce4b02511",
      "assetIds": [
        "55464657044963196816950587289035428064568320970692304673817341489687891546112",
        "55464657044963196816950587289035428064568320970692304673817341489687891546113",
        "55464657044963196816950587289035428064568320970692304673817341489687899934720",
        "55464657044963196816950587289035428064568320970692304673817341489687899934721",
        "55464657044963196816950587289035428064568320970692304673817341489687908321280"
      ]
    },
    {
      "x": 25,
      "y": 396,
      "size": 1,
      "price": "1011000000000000000000",
      "reserved": "0x7a9fe22691c811ea339d9b73150e6911a5343dca",
      "salt": "0x169d62f193a9262332eca99cf213afada44178bf3a7c5ea80a0820ef3646ee15",
      "assetIds": []
    },
    {
      "x": 25,
      "y": 397,
      "size": 1,
      "price": "1011000000000000000000",
      "reserved": "",
      "salt": "0x103a1e4f70b062b88ce9f42fdc190e374d54c01e7d17900a7333a5ebc628f982",
      "assetIds": []
    },
    {
      "x": 25,
      "y": 398,
      "size": 1,
      "price": "1011000000000000000000",
      "reserved": "",
      "salt": "0xda1c0074926554b677fa20a028d24852cc87a6287fb533d7edb63a2a2e61f93c",
      "assetIds": []
    },
    {
      "x": 25,
      "y": 399,
      "size": 1,
      "price": "1011000000000000000000",
      "reserved": "",
      "salt": "0xc74e47c14c5b1a9cfca012904cf3a891e49f974c4c45a66cc1ceb9bd457442aa",
      "assetIds": []
    },
    {
      "x": 25,
      "y": 400,
      "size": 1,
      "price": "1011000000000000000000",
      "reserved": "",
      "salt": "0xcaeaafc21fd3fb739f30a490399432bef82e291f103c689f10f157478011c68d",
      "assetIds": []
    },
    {
      "x": 25,
      "y": 401,
      "size": 1,
      "price": "1011000000000000000000",
      "reserved": "",
      "salt": "0x2466da60f8e88d09b009c972e41b23f50ded512559c269f38d210f856b5bea9a",
      "assetIds": []
    },
    {
      "x": 25,
      "y": 402,
      "size": 1,
      "price": "1011000000000000000000",
      "reserved": "",
      "salt": "0x7592c66b7dc3381a32d6fc1c4a7b16d6a440b43a9ea8ce485c677c40b28468a5",
      "assetIds": []
    },
    {
      "x": 25,
      "y": 403,
      "size": 1,
      "price": "1011000000000000000000",
      "reserved": "",
      "salt": "0x1604dd31289ab7ae84e4124bf249dc128e73a9fb1397c9aa4210817afe798559",
      "assetIds": []
    },
    {
      "x": 25,
      "y": 404,
      "size": 1,
      "price": "1011000000000000000000",
      "reserved": "",
      "salt": "0x0875132fdfc0e5e9ca30982d0e6d3af859252d2b3d227a7b30060bf1a0b26eb8",
      "assetIds": []
    },
    {
      "x": 25,
      "y": 405,
      "size": 1,
      "price": "1011000000000000000000",
      "reserved": "0x7a9fe22691c811ea339d9b73150e6911a5343dca",
      "salt": "0x913216146c91888baf34d8c573461cb25052f5ce44d74dbc3728e27743e91636",
      "assetIds": []
    },
    {
      "x": 25,
      "y": 406,
      "size": 1,
      "price": "1011000000000000000000",
      "reserved": "",
      "salt": "0xa839ef7cc04150413706f80bda8e0aba665eab7de0744aadd5f26c704b51bc77",
      "assetIds": []
    },
    {
      "x": 25,
      "y": 407,
      "size": 1,
      "price": "1011000000000000000000",
      "reserved": "",
      "salt": "0x791ee845e3cca5a530770c54b85537dcf2bd153214a409e7216073fb2ca99f70",
      "assetIds": []
    },
    {
      "x": 26,
      "y": 346,
      "size": 1,
      "price": "1011000000000000000000",
      "reserved": "",
      "salt": "0x90f20075aaa14d0364487440d65e1b1e7038f77215fe785654fc2ca599a3ac8d",
      "assetIds": []
    },
    {
      "x": 26,
      "y": 347,
      "size": 1,
      "price": "1011000000000000000000",
      "reserved": "",
      "salt": "0x580510edf17b46c50d5c7db0e74c6ecae53b39d336501c39c90569a9dc3c99c7",
      "assetIds": []
    },
    {
      "x": 26,
      "y": 348,
      "size": 1,
      "price": "1011000000000000000000",
      "reserved": "",
      "salt": "0x0f52772ff5717ae9dade87d40634bc342171b4186e3467286a6a8ba7da38e9cb",
      "assetIds": []
    },
    {
      "x": 26,
      "y": 349,
      "size": 1,
      "price": "1011000000000000000000",
      "reserved": "",
      "salt": "0xa5c5258746712c88da4341ce46318d56844944030d39140cbbc0efac4e3c8fc2",
      "assetIds": []
    },
    {
      "x": 26,
      "y": 350,
      "size": 1,
      "price": "1011000000000000000000",
      "reserved": "",
      "salt": "0x9f655e06be0d6259b72d097b9b8c8e0e8c4b5aa4c3a42912a3b48e1b192add1f",
      "assetIds": []
    },
    {
      "x": 26,
      "y": 351,
      "size": 1,
      "price": "1011000000000000000000",
      "reserved": "0x7a9fe22691c811ea339d9b73150e6911a5343dca",
      "salt": "0xd97d502777ea0cb03166cb376266245a8e0a000c61bf35bb566184f49ec43e83",
      "assetIds": []
    },
    {
      "x": 26,
      "y": 352,
      "size": 1,
      "price": "1011000000000000000000",
      "reserved": "",
      "salt": "0x146e228c092de7973699a91d272eb121ebf5dfd982d134bf2c6356cc2941146c",
      "assetIds": []
    },
    {
      "x": 26,
      "y": 353,
      "size": 1,
      "price": "1011000000000000000000",
      "reserved": "0x7a9fe22691c811ea339d9b73150e6911a5343dca",
      "salt": "0x37b41c5ad284dc421b124027cdeac28d04ef81638ec7cc111eeb16ec053dad58",
      "assetIds": []
    },
    {
      "x": 26,
      "y": 354,
      "size": 1,
      "price": "1011000000000000000000",
      "reserved": "",
      "salt": "0x155781861caf96c73600fc23ed225f7fdf30a3a77f8d83485590d800f60b7057",
      "assetIds": []
    },
    {
      "x": 26,
      "y": 355,
      "size": 1,
      "price": "1011000000000000000000",
      "reserved": "",
      "salt": "0x9d2909b8a6598b005ea7921c0ae3eda63a4b3717c0d7e0eac1a832b9309fb6e0",
      "assetIds": []
    },
    {
      "x": 26,
      "y": 356,
      "size": 1,
      "price": "1011000000000000000000",
      "reserved": "",
      "salt": "0xe711efb9a0e3aa196ca47058b8e05bbf7b967f099dce78a501075793e270f6a5",
      "assetIds": []
    },
    {
      "x": 26,
      "y": 357,
      "size": 1,
      "price": "1011000000000000000000",
      "reserved": "",
      "salt": "0x22ecc857e761eb9deba6a046909c89a9a6dae92b83c57d82f73fbb00215f521a",
      "assetIds": []
    },
    {
      "x": 26,
      "y": 358,
      "size": 1,
      "price": "1011000000000000000000",
      "reserved": "0x7a9fe22691c811ea339d9b73150e6911a5343dca",
      "salt": "0x5aa9732dd89e12fa1efdbbd033b4e6c7afde1e70df147c230a58ca7078661be7",
      "assetIds": []
    },
    {
      "x": 26,
      "y": 359,
      "size": 1,
      "price": "1011000000000000000000",
      "reserved": "",
      "salt": "0x44ae4df9f6f114f7a263a5aec9a3b509ff1b75f346d9f4fe4b5961d0725e6a30",
      "assetIds": []
    },
    {
      "x": 26,
      "y": 384,
      "size": 1,
      "price": "1011000000000000000000",
      "reserved": "",
      "salt": "0xce9e51d78fb4f273eaca16c4c59902c0b8c2d103a31f4efff56c313a11dfc64b",
      "assetIds": []
    },
    {
      "x": 26,
      "y": 385,
      "size": 1,
      "price": "1011000000000000000000",
      "reserved": "",
      "salt": "0xbebe9230cb61ea5e6d32e864a60998b32e4a9f0db01f0e95250f80f230eb2126",
      "assetIds": []
    },
    {
      "x": 26,
      "y": 386,
      "size": 1,
      "price": "1011000000000000000000",
      "reserved": "",
      "salt": "0xaa05db1900fcdf3c31d3eb49087a75827f205f1340d618d4288fc18b124fae52",
      "assetIds": []
    },
    {
      "x": 26,
      "y": 387,
      "size": 1,
      "price": "1011000000000000000000",
      "reserved": "",
      "salt": "0x410a2a3b337697262209c1e32bd93b3fbf16a6dfa537b86e1b090b588529d910",
      "assetIds": []
    },
    {
      "x": 26,
      "y": 388,
      "size": 1,
      "price": "1011000000000000000000",
      "reserved": "",
      "salt": "0xcafd0e98a9b54e7c1d118838c3dcfced6ecefafae595a82eee8116a689d8326c",
      "assetIds": []
    },
    {
      "x": 26,
      "y": 389,
      "size": 1,
      "price": "1011000000000000000000",
      "reserved": "",
      "salt": "0x983dbb43cd20b3405a542a5eb256b58b435f21105ed1fda035885877b9d07e0e",
      "assetIds": []
    },
    {
      "x": 26,
      "y": 390,
      "size": 1,
      "price": "4683000000000000000000",
      "reserved": "",
      "salt": "0x9dfa928746d52c9f941cc0522b9967a3fe8521abf51f872461b71d829d173bb6",
      "assetIds": [
        "55464657044963196816950587289035428064568320970692304673817341489687891546112",
        "55464657044963196816950587289035428064568320970692304673817341489687891546113",
        "55464657044963196816950587289035428064568320970692304673817341489687899934720",
        "55464657044963196816950587289035428064568320970692304673817341489687899934721",
        "55464657044963196816950587289035428064568320970692304673817341489687908321280"
      ]
    },
    {
      "x": 26,
      "y": 391,
      "size": 1,
      "price": "4683000000000000000000",
      "reserved": "",
      "salt": "0x25f5500b906efa9c9f0ff35477d993344749b4c88a1491102acaa86a677f72b0",
      "assetIds": [
        "55464657044963196816950587289035428064568320970692304673817341489687891546112",
        "55464657044963196816950587289035428064568320970692304673817341489687891546113",
        "55464657044963196816950587289035428064568320970692304673817341489687899934720",
        "55464657044963196816950587289035428064568320970692304673817341489687899934721",
        "55464657044963196816950587289035428064568320970692304673817341489687908321280"
      ]
    },
    {
      "x": 26,
      "y": 392,
      "size": 1,
      "price": "4683000000000000000000",
      "reserved": "",
      "salt": "0x2cd407dd503592f4a1326b0c21304b4f4b08b7115f509cc67ff2a70aba59cc6d",
      "assetIds": [
        "55464657044963196816950587289035428064568320970692304673817341489687891546112",
        "55464657044963196816950587289035428064568320970692304673817341489687891546113",
        "55464657044963196816950587289035428064568320970692304673817341489687899934720",
        "55464657044963196816950587289035428064568320970692304673817341489687899934721",
        "55464657044963196816950587289035428064568320970692304673817341489687908321280"
      ]
    },
    {
      "x": 26,
      "y": 393,
      "size": 1,
      "price": "4683000000000000000000",
      "reserved": "",
      "salt": "0x63f8abe8741a916fb479e57674a706e73cd246f811b8dff1fbc7abf928fffb38",
      "assetIds": [
        "55464657044963196816950587289035428064568320970692304673817341489687891546112",
        "55464657044963196816950587289035428064568320970692304673817341489687891546113",
        "55464657044963196816950587289035428064568320970692304673817341489687899934720",
        "55464657044963196816950587289035428064568320970692304673817341489687899934721",
        "55464657044963196816950587289035428064568320970692304673817341489687908321280"
      ]
    },
    {
      "x": 26,
      "y": 394,
      "size": 1,
      "price": "4683000000000000000000",
      "reserved": "",
      "salt": "0x61e10f7976e44afa63ab5cffea9f8640d48a2694ade5261fe9b00eb57841a1e4",
      "assetIds": [
        "55464657044963196816950587289035428064568320970692304673817341489687891546112",
        "55464657044963196816950587289035428064568320970692304673817341489687891546113",
        "55464657044963196816950587289035428064568320970692304673817341489687899934720",
        "55464657044963196816950587289035428064568320970692304673817341489687899934721",
        "55464657044963196816950587289035428064568320970692304673817341489687908321280"
      ]
    },
    {
      "x": 26,
      "y": 395,
      "size": 1,
      "price": "4683000000000000000000",
      "reserved": "",
      "salt": "0xf7d59a589fe72af3d4b99aaa842bc1991b617ff68fda5de12a310820fb72a33e",
      "assetIds": [
        "55464657044963196816950587289035428064568320970692304673817341489687891546112",
        "55464657044963196816950587289035428064568320970692304673817341489687891546113",
        "55464657044963196816950587289035428064568320970692304673817341489687899934720",
        "55464657044963196816950587289035428064568320970692304673817341489687899934721",
        "55464657044963196816950587289035428064568320970692304673817341489687908321280"
      ]
    },
    {
      "x": 26,
      "y": 396,
      "size": 1,
      "price": "1011000000000000000000",
      "reserved": "",
      "salt": "0x91c29544d2669d439c583a6db1ca96e4d449b5572fbc191cc92821e5879105b7",
      "assetIds": []
    },
    {
      "x": 26,
      "y": 397,
      "size": 1,
      "price": "1011000000000000000000",
      "reserved": "",
      "salt": "0xefbcec92e4f2aaa43dd2d1ee7014a946531a949c98970c334bc222811e926f08",
      "assetIds": []
    },
    {
      "x": 26,
      "y": 398,
      "size": 1,
      "price": "1011000000000000000000",
      "reserved": "",
      "salt": "0x837428b49e90ae271090cf6d228403132b94a2425c5e5f45608fc6595ad54e47",
      "assetIds": []
    },
    {
      "x": 26,
      "y": 399,
      "size": 1,
      "price": "1011000000000000000000",
      "reserved": "",
      "salt": "0xdc82d6d09ee3fdf76ca43f90e89e7dcafa28d88e66cbcffb5be612fe7be7cd2b",
      "assetIds": []
    },
    {
      "x": 26,
      "y": 400,
      "size": 1,
      "price": "1011000000000000000000",
      "reserved": "",
      "salt": "0x5cd963c9244579ae2be0c1e5cf9133e11bc8fad3ad3be0833994465913c032b2",
      "assetIds": []
    },
    {
      "x": 26,
      "y": 401,
      "size": 1,
      "price": "1011000000000000000000",
      "reserved": "",
      "salt": "0x98a38df9c12a082cf753fdbea4036b405c8c6c705918e37a911a0346661cec3a",
      "assetIds": []
    },
    {
      "x": 26,
      "y": 402,
      "size": 1,
      "price": "1011000000000000000000",
      "reserved": "",
      "salt": "0xb86eb9e4587fcea0309bcbf175c61bd8d74ec9e5967898909bb6e62de7e00d57",
      "assetIds": []
    },
    {
      "x": 26,
      "y": 403,
      "size": 1,
      "price": "1011000000000000000000",
      "reserved": "",
      "salt": "0x47847318647081515d51cc5ee10c704430b00546b28c1b7461f36a054fb1a1e6",
      "assetIds": []
    },
    {
      "x": 26,
      "y": 404,
      "size": 1,
      "price": "1011000000000000000000",
      "reserved": "",
      "salt": "0xc86720b1508b82b9fca88617e2d781fa26a73b4b74e5957f43d559fc3a5dcfb8",
      "assetIds": []
    },
    {
      "x": 26,
      "y": 405,
      "size": 1,
      "price": "1011000000000000000000",
      "reserved": "",
      "salt": "0x0af201db6d431e2f3132900dd17e4ee3520baed5150174e0029bfee988394d09",
      "assetIds": []
    },
    {
      "x": 26,
      "y": 406,
      "size": 1,
      "price": "1011000000000000000000",
      "reserved": "",
      "salt": "0xbf359f3db79eaae19a883d770aba42fa0a7adb29a9d397e55362aa05692ac84d",
      "assetIds": []
    },
    {
      "x": 26,
      "y": 407,
      "size": 1,
      "price": "1011000000000000000000",
      "reserved": "",
      "salt": "0xb3a7e4d905a79510940f3365da7edb2ad37265adee538aa00301f39375acd622",
      "assetIds": []
    },
    {
      "x": 27,
      "y": 346,
      "size": 1,
      "price": "1011000000000000000000",
      "reserved": "0x7a9fe22691c811ea339d9b73150e6911a5343dca",
      "salt": "0x149399009d4bec9c69833518028a5ca7d1b458542039aceba53f824c1f883cad",
      "assetIds": []
    },
    {
      "x": 27,
      "y": 347,
      "size": 1,
      "price": "1011000000000000000000",
      "reserved": "",
      "salt": "0x58119552df4649cd06d035a5fd0e1f321d95c90f159c1fd4395888c00ada8372",
      "assetIds": []
    },
    {
      "x": 27,
      "y": 348,
      "size": 1,
      "price": "1011000000000000000000",
      "reserved": "",
      "salt": "0x368869ff8b88bac3b3bd87b0aeac0e65b5df55d28add6cd1e7c582e2a09d7b13",
      "assetIds": []
    },
    {
      "x": 27,
      "y": 349,
      "size": 1,
      "price": "1011000000000000000000",
      "reserved": "",
      "salt": "0x60003d4e7f94a3445b3ffde428e4bc1b988c3c290dadf541de33251cf0c3195e",
      "assetIds": []
    },
    {
      "x": 27,
      "y": 350,
      "size": 1,
      "price": "1011000000000000000000",
      "reserved": "",
      "salt": "0x405b4604d06cb89183db9781f24becb9f4aa43f854ac8dd5ae2d4d88b81381f3",
      "assetIds": []
    },
    {
      "x": 27,
      "y": 351,
      "size": 1,
      "price": "1011000000000000000000",
      "reserved": "",
      "salt": "0x37bea6fe6d2a8e57530fbf81fe89c8d4b87e4ad258e9b06da2d27ad52576eb09",
      "assetIds": []
    },
    {
      "x": 27,
      "y": 352,
      "size": 1,
      "price": "1011000000000000000000",
      "reserved": "",
      "salt": "0xb9b4840415eea91bc4c32535af3665b5ba1f503e5e3a8f009f8bc59c5d14fd84",
      "assetIds": []
    },
    {
      "x": 27,
      "y": 353,
      "size": 1,
      "price": "1011000000000000000000",
      "reserved": "",
      "salt": "0x39981b9868402df4b0926edc4f89fac98dd49c01576bf501fe102b318cfa0530",
      "assetIds": []
    },
    {
      "x": 27,
      "y": 354,
      "size": 1,
      "price": "1011000000000000000000",
      "reserved": "",
      "salt": "0x88d6cf8f3ea08a19a09d030dd2c9d9d41d1a62fa10eae32442a86b50bd53bfd3",
      "assetIds": []
    },
    {
      "x": 27,
      "y": 355,
      "size": 1,
      "price": "1011000000000000000000",
      "reserved": "",
      "salt": "0xb59b035011e5d13ea6bf6ca592b3a7cdea468cdaf8f04044a9b436d2701c6920",
      "assetIds": []
    },
    {
      "x": 27,
      "y": 356,
      "size": 1,
      "price": "1011000000000000000000",
      "reserved": "",
      "salt": "0x5d59ccf202c7f5f4b976d912bc2db94f178ab8de7b38413240f68368ad3341ff",
      "assetIds": []
    },
    {
      "x": 27,
      "y": 357,
      "size": 1,
      "price": "1011000000000000000000",
      "reserved": "",
      "salt": "0x6e71c8ec465b7de0915fed1b5ebfea0ea86ca5653702eea901e54d670d656262",
      "assetIds": []
    },
    {
      "x": 27,
      "y": 358,
      "size": 1,
      "price": "1011000000000000000000",
      "reserved": "",
      "salt": "0x9bd79ad3ac20123fa9e0724a0f7a4e9cc855103049c570655a612c6de92d05b1",
      "assetIds": []
    },
    {
      "x": 27,
      "y": 359,
      "size": 1,
      "price": "1011000000000000000000",
      "reserved": "",
      "salt": "0x8e842bc59455dfefe442fee80b62208919e17743143c420e94a85c96b2f85671",
      "assetIds": []
    },
    {
      "x": 27,
      "y": 384,
      "size": 1,
      "price": "1011000000000000000000",
      "reserved": "",
      "salt": "0x89793b860d6923af29a9ee60cd0520c17df3430971cdf022daf259985695fefe",
      "assetIds": []
    },
    {
      "x": 27,
      "y": 385,
      "size": 1,
      "price": "1011000000000000000000",
      "reserved": "",
      "salt": "0xd42d3b293e15157413a6f6a2f01a301e73809f41c54428aef5de6233e9d1f5d5",
      "assetIds": []
    },
    {
      "x": 27,
      "y": 386,
      "size": 1,
      "price": "1011000000000000000000",
      "reserved": "",
      "salt": "0x51b1c471505eda5956e9c131b669de7c6f34870d068531ade4b71134158c289a",
      "assetIds": []
    },
    {
      "x": 27,
      "y": 387,
      "size": 1,
      "price": "1011000000000000000000",
      "reserved": "",
      "salt": "0x7242587bd7ab9b22dff93c75de548795c7405bd3c8742fcdf60bd0ecb9d5045c",
      "assetIds": []
    },
    {
      "x": 27,
      "y": 388,
      "size": 1,
      "price": "1011000000000000000000",
      "reserved": "",
      "salt": "0x61026366ae505599c256d144f2b7852c11affab07899ec5267f0d8c8f7037fd2",
      "assetIds": []
    },
    {
      "x": 27,
      "y": 389,
      "size": 1,
      "price": "1011000000000000000000",
      "reserved": "",
      "salt": "0xd0ce67c9e5f4562ab0c5685a2c1b17dbb9b4d578b8a75d99fdf8acc13c3f5b2c",
      "assetIds": []
    },
    {
      "x": 27,
      "y": 390,
      "size": 1,
      "price": "1011000000000000000000",
      "reserved": "",
      "salt": "0xfa64c915e3a6e8c7ee1cb3a5ebd25fc8b6638987f40d2fced5f2d96911bb4972",
      "assetIds": []
    },
    {
      "x": 27,
      "y": 391,
      "size": 1,
      "price": "1011000000000000000000",
      "reserved": "",
      "salt": "0x9b76d0969978cef6ded5ff2230f8e40b0ca12b4d96b4c3572209e2262ee5ee1e",
      "assetIds": []
    },
    {
      "x": 27,
      "y": 392,
      "size": 1,
      "price": "1011000000000000000000",
      "reserved": "",
      "salt": "0x85d2e7d34f17043269ece81b0f1007ba4eb49cbf3ba0a709c79fb8d5698219f4",
      "assetIds": []
    },
    {
      "x": 27,
      "y": 393,
      "size": 1,
      "price": "1011000000000000000000",
      "reserved": "",
      "salt": "0xeb34a4408ffa288ab92edf71f86c48d48f6695299a7f36b0f783661d534c9416",
      "assetIds": []
    },
    {
      "x": 27,
      "y": 394,
      "size": 1,
      "price": "1011000000000000000000",
      "reserved": "",
      "salt": "0xa6004289e4a25e442ce48d950b73fb18c3de10ca0446f0884d4f19b70096c5d5",
      "assetIds": []
    },
    {
      "x": 27,
      "y": 395,
      "size": 1,
      "price": "1011000000000000000000",
      "reserved": "",
      "salt": "0x24c02ca054067e2fa8ea0284ca8a1ea1e6f79c509d466af9312a042f7e06d825",
      "assetIds": []
    },
    {
      "x": 27,
      "y": 396,
      "size": 1,
      "price": "1011000000000000000000",
      "reserved": "",
      "salt": "0xaa4b9c6f0e0023e3c05af8088500df9933cc1e338aa7b3914cc4f6733c44fa8b",
      "assetIds": []
    },
    {
      "x": 27,
      "y": 397,
      "size": 1,
      "price": "1011000000000000000000",
      "reserved": "",
      "salt": "0xb27d30835c9369329cc577297df013d8592846af369b331d7947bb89035ca378",
      "assetIds": []
    },
    {
      "x": 27,
      "y": 398,
      "size": 1,
      "price": "1011000000000000000000",
      "reserved": "",
      "salt": "0x5f6727b71c0ed7e49ea0e3034b00d8b9a6a2cc802c14f6ede84b91b1b6cbd8d0",
      "assetIds": []
    },
    {
      "x": 27,
      "y": 399,
      "size": 1,
      "price": "1011000000000000000000",
      "reserved": "",
      "salt": "0x171d4b54356c2aee8e6d00d6acabb43206cdc2a759df11162d34c48acb1b03d8",
      "assetIds": []
    },
    {
      "x": 27,
      "y": 400,
      "size": 1,
      "price": "1011000000000000000000",
      "reserved": "",
      "salt": "0x7f602d965e18c95753f2540fe05d3aa2ceb154a27b0604e7cb5c4d709fad9524",
      "assetIds": []
    },
    {
      "x": 27,
      "y": 401,
      "size": 1,
      "price": "1011000000000000000000",
      "reserved": "",
      "salt": "0x871ee20380bc358c9295a3a68db3e389b56bb5a267258e57e6a9ad7b6000c715",
      "assetIds": []
    },
    {
      "x": 27,
      "y": 402,
      "size": 1,
      "price": "1011000000000000000000",
      "reserved": "",
      "salt": "0x48d23a57bc2553146b981af66ec6112f5eb3a4bd52a302045168ffd689277afc",
      "assetIds": []
    },
    {
      "x": 27,
      "y": 403,
      "size": 1,
      "price": "1011000000000000000000",
      "reserved": "",
      "salt": "0xdddf7bf846a639da6df0fb1eedc231f183818cf80822402bdf058ebe4eb6e0b6",
      "assetIds": []
    },
    {
      "x": 27,
      "y": 404,
      "size": 1,
      "price": "1011000000000000000000",
      "reserved": "",
      "salt": "0x5a098968a2f3c99f94b56b1b6e4466db3914bd30a4d1dd2f1ac38f9f7392eab0",
      "assetIds": []
    },
    {
      "x": 27,
      "y": 405,
      "size": 1,
      "price": "1011000000000000000000",
      "reserved": "",
      "salt": "0xa37d269b14d8d94a1a050582df3058fac016d3a6a3a01e0c1bd97c06286db6c0",
      "assetIds": []
    },
    {
      "x": 27,
      "y": 406,
      "size": 1,
      "price": "1011000000000000000000",
      "reserved": "",
      "salt": "0x0bbf1ffb59db47d5741425eada8055e66b68656031c7d46460d08c795dd43621",
      "assetIds": []
    },
    {
      "x": 27,
      "y": 407,
      "size": 1,
      "price": "1011000000000000000000",
      "reserved": "",
      "salt": "0x2666f5d2088fc615d2931b09e6c54350be292d8714c76273864b8d67d6de9bb2",
      "assetIds": []
    },
    {
      "x": 28,
      "y": 346,
      "size": 1,
      "price": "1011000000000000000000",
      "reserved": "0x7a9fe22691c811ea339d9b73150e6911a5343dca",
      "salt": "0x513e00861aa5dd1b25c5e983e0ab3e743ebb0d497a58ac4e726b346350615a11",
      "assetIds": []
    },
    {
      "x": 28,
      "y": 347,
      "size": 1,
      "price": "1011000000000000000000",
      "reserved": "",
      "salt": "0x6a202e02fad63b1614f30bfe58547983a65002a838c66919dcb93419b3e6e076",
      "assetIds": []
    },
    {
      "x": 28,
      "y": 348,
      "size": 1,
      "price": "1011000000000000000000",
      "reserved": "",
      "salt": "0x24d93589b06677f3e5046a09fa3ed094599da21ca755bb9284915f8f9d0a165d",
      "assetIds": []
    },
    {
      "x": 28,
      "y": 349,
      "size": 1,
      "price": "1011000000000000000000",
      "reserved": "0x7a9fe22691c811ea339d9b73150e6911a5343dca",
      "salt": "0x88610ea691e818b6471dd1f55fc27f2f12330ce1a1dd17eae8f0f4f0c873524d",
      "assetIds": []
    },
    {
      "x": 28,
      "y": 350,
      "size": 1,
      "price": "1011000000000000000000",
      "reserved": "",
      "salt": "0x33aaf987ad72860932c3f4ee44614f49749a3e95de42313c590a994dfcfd13bf",
      "assetIds": []
    },
    {
      "x": 28,
      "y": 351,
      "size": 1,
      "price": "1011000000000000000000",
      "reserved": "",
      "salt": "0xef44f328724f1a923e8b1d940bdfdc31308ac759147fc32159bdce0f03ef1405",
      "assetIds": []
    },
    {
      "x": 28,
      "y": 352,
      "size": 1,
      "price": "1011000000000000000000",
      "reserved": "0x7a9fe22691c811ea339d9b73150e6911a5343dca",
      "salt": "0x30ab6e1fa676dbb50dffcf196f68f0d29df2b4985b4b00dbc5c540ec199ccd24",
      "assetIds": []
    },
    {
      "x": 28,
      "y": 353,
      "size": 1,
      "price": "1011000000000000000000",
      "reserved": "",
      "salt": "0x4d19acd18ebd98d5602f0f83dfa8cda5dc261c27f84de28f20d3d35404625760",
      "assetIds": []
    },
    {
      "x": 28,
      "y": 354,
      "size": 1,
      "price": "1011000000000000000000",
      "reserved": "",
      "salt": "0x0ae7f0ab0e884c4ac03984537758b1c70e03996e0be46caa673f21375dff47f0",
      "assetIds": []
    },
    {
      "x": 28,
      "y": 355,
      "size": 1,
      "price": "1011000000000000000000",
      "reserved": "",
      "salt": "0xf857e2c6fb7ca7ccf1c197f2504c839b4a34db6e1055b96bb3869c3b5c31894c",
      "assetIds": []
    },
    {
      "x": 28,
      "y": 356,
      "size": 1,
      "price": "1011000000000000000000",
      "reserved": "0x7a9fe22691c811ea339d9b73150e6911a5343dca",
      "salt": "0xf777660c6f3d9a2112121dfee6862060939b4696c818a2b0ae1c296cc1846c5c",
      "assetIds": []
    },
    {
      "x": 28,
      "y": 357,
      "size": 1,
      "price": "1011000000000000000000",
      "reserved": "",
      "salt": "0x924e94036fc2e35466778c6e0c3b79405fa19777e508891a53bba7c6ece5f713",
      "assetIds": []
    },
    {
      "x": 28,
      "y": 358,
      "size": 1,
      "price": "1011000000000000000000",
      "reserved": "",
      "salt": "0x1dc7d1686d8c2807230672d58c24c1dc88c1fe5fc144fc936ceee4c55c57961a",
      "assetIds": []
    },
    {
      "x": 28,
      "y": 359,
      "size": 1,
      "price": "1011000000000000000000",
      "reserved": "",
      "salt": "0xf806d003d4deee6075d905bb8e3c2cb41d9c4fac242fed3fa250edaa6e80715d",
      "assetIds": []
    },
    {
      "x": 28,
      "y": 384,
      "size": 1,
      "price": "1011000000000000000000",
      "reserved": "",
      "salt": "0xa46bdc9f72875fc28c3e3d3c3b4ca2e3b0ab9b9511f6b42365a930c140901523",
      "assetIds": []
    },
    {
      "x": 28,
      "y": 385,
      "size": 1,
      "price": "1011000000000000000000",
      "reserved": "",
      "salt": "0xcf70b800c29d26a230c1265960309cea6b97548bab58c334ddc004923943aa27",
      "assetIds": []
    },
    {
      "x": 28,
      "y": 386,
      "size": 1,
      "price": "1011000000000000000000",
      "reserved": "",
      "salt": "0x76b24dac614483b031f9b2cf04fcba68f278e2b2cbb50001e272ef52154e4339",
      "assetIds": []
    },
    {
      "x": 28,
      "y": 387,
      "size": 1,
      "price": "1011000000000000000000",
      "reserved": "",
      "salt": "0x753f94d74501df871c0472cfdb998ecc7f108f42e598f8d7a5abdf8c77c54ee8",
      "assetIds": []
    },
    {
      "x": 28,
      "y": 388,
      "size": 1,
      "price": "4683000000000000000000",
      "reserved": "",
      "salt": "0x14f4c2854cc8ffd001eb2d494ef18fb019dda2b2f136aae24d42d349cacfafd5",
      "assetIds": [
        "55464657044963196816950587289035428064568320970692304673817341489687891546112",
        "55464657044963196816950587289035428064568320970692304673817341489687891546113",
        "55464657044963196816950587289035428064568320970692304673817341489687899934720",
        "55464657044963196816950587289035428064568320970692304673817341489687899934721",
        "55464657044963196816950587289035428064568320970692304673817341489687908321280"
      ]
    },
    {
      "x": 28,
      "y": 389,
      "size": 1,
      "price": "4683000000000000000000",
      "reserved": "",
      "salt": "0x49c16da5b73059303712f02cf476840c2293234036c61775db0b672581b6ddda",
      "assetIds": [
        "55464657044963196816950587289035428064568320970692304673817341489687891546112",
        "55464657044963196816950587289035428064568320970692304673817341489687891546113",
        "55464657044963196816950587289035428064568320970692304673817341489687899934720",
        "55464657044963196816950587289035428064568320970692304673817341489687899934721",
        "55464657044963196816950587289035428064568320970692304673817341489687908321280"
      ]
    },
    {
      "x": 28,
      "y": 390,
      "size": 1,
      "price": "4683000000000000000000",
      "reserved": "",
      "salt": "0x2be8481263f970819561ffebfc376e42032514dbf7d81f9826a01e89585ad2d7",
      "assetIds": [
        "55464657044963196816950587289035428064568320970692304673817341489687891546112",
        "55464657044963196816950587289035428064568320970692304673817341489687891546113",
        "55464657044963196816950587289035428064568320970692304673817341489687899934720",
        "55464657044963196816950587289035428064568320970692304673817341489687899934721",
        "55464657044963196816950587289035428064568320970692304673817341489687908321280"
      ]
    },
    {
      "x": 28,
      "y": 391,
      "size": 1,
      "price": "4683000000000000000000",
      "reserved": "",
      "salt": "0xbacf592d0530163957ed7e5a4419233ff81fdbbf90ce60ce237070b52fe17ea5",
      "assetIds": [
        "55464657044963196816950587289035428064568320970692304673817341489687891546112",
        "55464657044963196816950587289035428064568320970692304673817341489687891546113",
        "55464657044963196816950587289035428064568320970692304673817341489687899934720",
        "55464657044963196816950587289035428064568320970692304673817341489687899934721",
        "55464657044963196816950587289035428064568320970692304673817341489687908321280"
      ]
    },
    {
      "x": 28,
      "y": 392,
      "size": 1,
      "price": "4683000000000000000000",
      "reserved": "",
      "salt": "0xc53fd6702f638986b7fe8e3585451999e0684c04a4c1e60d12a697dfc7d71f06",
      "assetIds": [
        "55464657044963196816950587289035428064568320970692304673817341489687891546112",
        "55464657044963196816950587289035428064568320970692304673817341489687891546113",
        "55464657044963196816950587289035428064568320970692304673817341489687899934720",
        "55464657044963196816950587289035428064568320970692304673817341489687899934721",
        "55464657044963196816950587289035428064568320970692304673817341489687908321280"
      ]
    },
    {
      "x": 28,
      "y": 393,
      "size": 1,
      "price": "1011000000000000000000",
      "reserved": "",
      "salt": "0xeb9647af688b396e88078ae7db4fe736351a7b5511f6293416a8511e5e92e6be",
      "assetIds": []
    },
    {
      "x": 28,
      "y": 394,
      "size": 1,
      "price": "1011000000000000000000",
      "reserved": "",
      "salt": "0x8368c6371784bfd4ff258579ed1a9e7ecbe5bbf384b82c4439bebf0c1d101ded",
      "assetIds": []
    },
    {
      "x": 28,
      "y": 395,
      "size": 1,
      "price": "1011000000000000000000",
      "reserved": "",
      "salt": "0xf87a95526ebed66ed3c16ded326216897dbbaf0fde3947a4e0f8aed2f20404b5",
      "assetIds": []
    },
    {
      "x": 28,
      "y": 396,
      "size": 1,
      "price": "1011000000000000000000",
      "reserved": "",
      "salt": "0x59d3df004bb33555fb1fbc1737d22cdd7ba709ca2dfda67c62facfe5adffdabb",
      "assetIds": []
    },
    {
      "x": 28,
      "y": 397,
      "size": 1,
      "price": "1011000000000000000000",
      "reserved": "",
      "salt": "0xca3ad587e2921ae295192d9e7ddfface49685c8b372e0dbad07c66d326b47c19",
      "assetIds": []
    },
    {
      "x": 28,
      "y": 398,
      "size": 1,
      "price": "1011000000000000000000",
      "reserved": "",
      "salt": "0x5116fe5db2e4e633d136141b77d7d2cfea9726dc27bb9fb342904cbdcf545278",
      "assetIds": []
    },
    {
      "x": 28,
      "y": 399,
      "size": 1,
      "price": "1011000000000000000000",
      "reserved": "0x7a9fe22691c811ea339d9b73150e6911a5343dca",
      "salt": "0xc09b7c4838b55275eed2ac027e26bc903621896f9d3b97e370ccfe51eca88e05",
      "assetIds": []
    },
    {
      "x": 28,
      "y": 400,
      "size": 1,
      "price": "1011000000000000000000",
      "reserved": "",
      "salt": "0x7a9da0cc74e9a757962eac120e8bc953cc21eea247887d35fdb51e331b8f6faf",
      "assetIds": []
    },
    {
      "x": 28,
      "y": 401,
      "size": 1,
      "price": "1011000000000000000000",
      "reserved": "",
      "salt": "0xca66a413c078dd7bad0473c06bfcf5999fb135d65465fa50d08f6d19a4d1b730",
      "assetIds": []
    },
    {
      "x": 28,
      "y": 402,
      "size": 1,
      "price": "1011000000000000000000",
      "reserved": "",
      "salt": "0xe821f96d945d74523dcfce1f4c56abe6f8947a6e04103dff9c504223b74194c0",
      "assetIds": []
    },
    {
      "x": 28,
      "y": 403,
      "size": 1,
      "price": "1011000000000000000000",
      "reserved": "",
      "salt": "0x2ec5fc8536136a99e5f318509a91c87691bbc34ff0fe7e5293e1284b7669ba70",
      "assetIds": []
    },
    {
      "x": 28,
      "y": 404,
      "size": 1,
      "price": "1011000000000000000000",
      "reserved": "",
      "salt": "0x76dfaf6739adc16646214b0b4beb3bb4920dbb5d026be3b34da669b6db7b52ee",
      "assetIds": []
    },
    {
      "x": 28,
      "y": 405,
      "size": 1,
      "price": "1011000000000000000000",
      "reserved": "",
      "salt": "0x24f00b1a1a90c34e0259162c8cdb5cfd48fa037ffa8da2675f2b757119a430dd",
      "assetIds": []
    },
    {
      "x": 28,
      "y": 406,
      "size": 1,
      "price": "1011000000000000000000",
      "reserved": "",
      "salt": "0x0f687c55ec69bdcde1bc97c619b8dbf73ea5e9bc49a7264c22ab24d74c5dd321",
      "assetIds": []
    },
    {
      "x": 28,
      "y": 407,
      "size": 1,
      "price": "1011000000000000000000",
      "reserved": "",
      "salt": "0xf997c8fa8b98b0e2a50a136b033626f676af9d624a83fb3614cd3ef4828a8f02",
      "assetIds": []
    },
    {
      "x": 29,
      "y": 346,
      "size": 1,
      "price": "1011000000000000000000",
      "reserved": "",
      "salt": "0xc64e57a64a8878444ad46696ab04f640e5b6d63ed5e2562605a02138fcd6f372",
      "assetIds": []
    },
    {
      "x": 29,
      "y": 347,
      "size": 1,
      "price": "1011000000000000000000",
      "reserved": "",
      "salt": "0x4f094cf5cdbee417d1bdb9efd694286262bb5d7b94f1a2432a07133ff0b25300",
      "assetIds": []
    },
    {
      "x": 29,
      "y": 348,
      "size": 1,
      "price": "1011000000000000000000",
      "reserved": "",
      "salt": "0x8ea7dab112ca6d1249c879be8b7ca8d09cb20b0f59430c3e634d340b299dca8d",
      "assetIds": []
    },
    {
      "x": 29,
      "y": 349,
      "size": 1,
      "price": "1011000000000000000000",
      "reserved": "",
      "salt": "0xe84214c36350fec944fcf616d8a8f262f66c9102c2d3b618a2763d15a12fc05d",
      "assetIds": []
    },
    {
      "x": 29,
      "y": 350,
      "size": 1,
      "price": "1011000000000000000000",
      "reserved": "",
      "salt": "0xd90e0f65ee3a6728bdade2b2bc0e195114b51d505f5ffdc10b93e37d9eaa3947",
      "assetIds": []
    },
    {
      "x": 29,
      "y": 351,
      "size": 1,
      "price": "1011000000000000000000",
      "reserved": "",
      "salt": "0xe308eecfad7088dcb335abfecfb4a701d1d0c1e07b6b4fb89dce39ed420d48c1",
      "assetIds": []
    },
    {
      "x": 29,
      "y": 352,
      "size": 1,
      "price": "1011000000000000000000",
      "reserved": "",
      "salt": "0x507c9cc80e9fb6ea1b4a9e9800129fa0c77a9d913b341e6c34574a1d8f61d46c",
      "assetIds": []
    },
    {
      "x": 29,
      "y": 353,
      "size": 1,
      "price": "1011000000000000000000",
      "reserved": "",
      "salt": "0x25c2054c22dca53acf78a7c962711cfacfd55f755e86fc249fcd4235a33e73f7",
      "assetIds": []
    },
    {
      "x": 29,
      "y": 354,
      "size": 1,
      "price": "1011000000000000000000",
      "reserved": "",
      "salt": "0xc9f88b81e0da17382dc33191fbc581037f7f2ebd928611da07ae2d4fa907215f",
      "assetIds": []
    },
    {
      "x": 29,
      "y": 355,
      "size": 1,
      "price": "1011000000000000000000",
      "reserved": "",
      "salt": "0xa65ac0af7bf64dd8ed06485f8a6e6f7f8a68d8835e5d7c2f0b2a8191af2db023",
      "assetIds": []
    },
    {
      "x": 29,
      "y": 356,
      "size": 1,
      "price": "1011000000000000000000",
      "reserved": "",
      "salt": "0x2e2f7d63edb60dfaf0c351b6adc183e995f02ddd4ec21b5a2b23842955f22015",
      "assetIds": []
    },
    {
      "x": 29,
      "y": 357,
      "size": 1,
      "price": "1011000000000000000000",
      "reserved": "",
      "salt": "0x7249e6a8f5a9cdc1efea2dc0c09893f0d0f472c5934c94c0d96d380fa9e9bd56",
      "assetIds": []
    },
    {
      "x": 29,
      "y": 358,
      "size": 1,
      "price": "1011000000000000000000",
      "reserved": "",
      "salt": "0xf56a6110894613239abe5343f5aaef04c684d24c4da3734151518b0483b9d137",
      "assetIds": []
    },
    {
      "x": 29,
      "y": 359,
      "size": 1,
      "price": "1011000000000000000000",
      "reserved": "",
      "salt": "0x06f8f23260fae4b91f11f0f2c910a2630d5042c7da237bd68d5c5bfa8f36eb4e",
      "assetIds": []
    },
    {
      "x": 29,
      "y": 384,
      "size": 1,
      "price": "1011000000000000000000",
      "reserved": "",
      "salt": "0xa7d3eb556406b5aa55ba7798d44cbeafbe43ab1df3da91ef53ee52b25f00294d",
      "assetIds": []
    },
    {
      "x": 29,
      "y": 385,
      "size": 1,
      "price": "1011000000000000000000",
      "reserved": "",
      "salt": "0x33972b635214a064b71fee84b90e768d3dde567b8ab0f4075cd05f2ca50aeaeb",
      "assetIds": []
    },
    {
      "x": 29,
      "y": 386,
      "size": 1,
      "price": "1011000000000000000000",
      "reserved": "",
      "salt": "0xc1171e2218c6585299fdaeb051515fb939e595ddcd2d8cea74408e6e7bbcdd61",
      "assetIds": []
    },
    {
      "x": 29,
      "y": 387,
      "size": 1,
      "price": "1011000000000000000000",
      "reserved": "",
      "salt": "0xbf5877ba5a8681305ba4b2a57dc553b0968ebec79c493211398996ae06f84cb4",
      "assetIds": []
    },
    {
      "x": 29,
      "y": 388,
      "size": 1,
      "price": "1011000000000000000000",
      "reserved": "0x7a9fe22691c811ea339d9b73150e6911a5343dca",
      "salt": "0x85e626d54501ce130681eda2a1bb25ba516fcdbe1cb2d3c1a6e3b05e68113645",
      "assetIds": []
    },
    {
      "x": 29,
      "y": 389,
      "size": 1,
      "price": "4683000000000000000000",
      "reserved": "",
      "salt": "0x80781aa39dc4933ea99d6247780a9fac352e1a15272788c3ca62cc1a39ec4d0c",
      "assetIds": [
        "55464657044963196816950587289035428064568320970692304673817341489687891546112",
        "55464657044963196816950587289035428064568320970692304673817341489687891546113",
        "55464657044963196816950587289035428064568320970692304673817341489687899934720",
        "55464657044963196816950587289035428064568320970692304673817341489687899934721",
        "55464657044963196816950587289035428064568320970692304673817341489687908321280"
      ]
    },
    {
      "x": 29,
      "y": 390,
      "size": 1,
      "price": "4683000000000000000000",
      "reserved": "",
      "salt": "0xb3ff3bc0ee6d457773d1490bd5ba5aede89508767730b5561164570b8d3cd5cc",
      "assetIds": [
        "55464657044963196816950587289035428064568320970692304673817341489687891546112",
        "55464657044963196816950587289035428064568320970692304673817341489687891546113",
        "55464657044963196816950587289035428064568320970692304673817341489687899934720",
        "55464657044963196816950587289035428064568320970692304673817341489687899934721",
        "55464657044963196816950587289035428064568320970692304673817341489687908321280"
      ]
    },
    {
      "x": 29,
      "y": 391,
      "size": 1,
      "price": "4683000000000000000000",
      "reserved": "",
      "salt": "0xcfc447eb2985411250ed131c51ddcc259d7a7ed857c5e511b389fc1ca245c2d6",
      "assetIds": [
        "55464657044963196816950587289035428064568320970692304673817341489687891546112",
        "55464657044963196816950587289035428064568320970692304673817341489687891546113",
        "55464657044963196816950587289035428064568320970692304673817341489687899934720",
        "55464657044963196816950587289035428064568320970692304673817341489687899934721",
        "55464657044963196816950587289035428064568320970692304673817341489687908321280"
      ]
    },
    {
      "x": 29,
      "y": 392,
      "size": 1,
      "price": "4683000000000000000000",
      "reserved": "",
      "salt": "0x762c47a8291dccffa849a8d784ef6e65faf8cb1319ba5d90637a09b3a372a74b",
      "assetIds": [
        "55464657044963196816950587289035428064568320970692304673817341489687891546112",
        "55464657044963196816950587289035428064568320970692304673817341489687891546113",
        "55464657044963196816950587289035428064568320970692304673817341489687899934720",
        "55464657044963196816950587289035428064568320970692304673817341489687899934721",
        "55464657044963196816950587289035428064568320970692304673817341489687908321280"
      ]
    },
    {
      "x": 29,
      "y": 393,
      "size": 1,
      "price": "4683000000000000000000",
      "reserved": "",
      "salt": "0x3e75564de3986a4c88b60cb49f58b24e761b121aa0752b03401564c554e36e02",
      "assetIds": [
        "55464657044963196816950587289035428064568320970692304673817341489687891546112",
        "55464657044963196816950587289035428064568320970692304673817341489687891546113",
        "55464657044963196816950587289035428064568320970692304673817341489687899934720",
        "55464657044963196816950587289035428064568320970692304673817341489687899934721",
        "55464657044963196816950587289035428064568320970692304673817341489687908321280"
      ]
    },
    {
      "x": 29,
      "y": 394,
      "size": 1,
      "price": "4683000000000000000000",
      "reserved": "",
      "salt": "0xa2b798de60a1b22caf57c818e1170f371e2b14f4ad37e298da9a947c3d6bbf4a",
      "assetIds": [
        "55464657044963196816950587289035428064568320970692304673817341489687891546112",
        "55464657044963196816950587289035428064568320970692304673817341489687891546113",
        "55464657044963196816950587289035428064568320970692304673817341489687899934720",
        "55464657044963196816950587289035428064568320970692304673817341489687899934721",
        "55464657044963196816950587289035428064568320970692304673817341489687908321280"
      ]
    },
    {
      "x": 29,
      "y": 395,
      "size": 1,
      "price": "1011000000000000000000",
      "reserved": "",
      "salt": "0x4fe833fe56c433eeee44f81bace215e6b00905cab6346424267b3c1cd4e9f5d4",
      "assetIds": []
    },
    {
      "x": 29,
      "y": 396,
      "size": 1,
      "price": "1011000000000000000000",
      "reserved": "0x7a9fe22691c811ea339d9b73150e6911a5343dca",
      "salt": "0xa46ab05ea5d0dc5f550c4635813768e320853691cd23badd1395deb0d7f69bdc",
      "assetIds": []
    },
    {
      "x": 29,
      "y": 397,
      "size": 1,
      "price": "1011000000000000000000",
      "reserved": "",
      "salt": "0x619cfdd4a38c70c8213c9471f7661d15d33ab6ad81be9e25835e7623c6b7d746",
      "assetIds": []
    },
    {
      "x": 29,
      "y": 398,
      "size": 1,
      "price": "1011000000000000000000",
      "reserved": "",
      "salt": "0x74313b7a37e53038ecde922cfffd717c0f755fa03eb7fe057580fabdad6d71d4",
      "assetIds": []
    },
    {
      "x": 29,
      "y": 399,
      "size": 1,
      "price": "1011000000000000000000",
      "reserved": "",
      "salt": "0x96d16a1187f5db0ef5e2657d0b4a558615f688031c446804256d676d973f0e99",
      "assetIds": []
    },
    {
      "x": 29,
      "y": 400,
      "size": 1,
      "price": "1011000000000000000000",
      "reserved": "",
      "salt": "0xb1f2f5a8adfca3b2b59700a3ebfb8973bb824e72876dc61a7b101c5a97332e2c",
      "assetIds": []
    },
    {
      "x": 29,
      "y": 401,
      "size": 1,
      "price": "1011000000000000000000",
      "reserved": "",
      "salt": "0xd98f2fe22b4c9573d311ec2db765bdcc29b62e0d542de8b3f0f71c6ef6747d89",
      "assetIds": []
    },
    {
      "x": 29,
      "y": 402,
      "size": 1,
      "price": "1011000000000000000000",
      "reserved": "",
      "salt": "0x9f879ae9edbd321884d827134df7c09ebd2b1bf180f306bd443b7333ad199fbb",
      "assetIds": []
    },
    {
      "x": 29,
      "y": 403,
      "size": 1,
      "price": "1011000000000000000000",
      "reserved": "",
      "salt": "0x153d7cef39ab6a393628962bbe5fa72dcfb461611d7bf9e836ace907ec626e3e",
      "assetIds": []
    },
    {
      "x": 29,
      "y": 404,
      "size": 1,
      "price": "1011000000000000000000",
      "reserved": "",
      "salt": "0x330741ff93d9654d69fe0b6381d7f09c5fdf6d9d272ec6823ea38bb08e8bc35e",
      "assetIds": []
    },
    {
      "x": 29,
      "y": 405,
      "size": 1,
      "price": "1011000000000000000000",
      "reserved": "",
      "salt": "0x5db34c55c14b44c3fc44a8d644dad59f5103a3fea7025076c6caa0078c156110",
      "assetIds": []
    },
    {
      "x": 29,
      "y": 406,
      "size": 1,
      "price": "1011000000000000000000",
      "reserved": "",
      "salt": "0x02be937d1689535b91a7ba79d4c9e17a62471b97f407f6571136c51d11d1d0a3",
      "assetIds": []
    },
    {
      "x": 29,
      "y": 407,
      "size": 1,
      "price": "1011000000000000000000",
      "reserved": "",
      "salt": "0xc30a1a9f8cbf5794924395b43d959f7514ed4b464c5c12bdfa716d0763a36441",
      "assetIds": []
    },
    {
      "x": 30,
      "y": 346,
      "size": 1,
      "price": "1011000000000000000000",
      "reserved": "",
      "salt": "0x8d51fdf2c4623850198661f658f13f0067f12872815eb8590971d60a400fb801",
      "assetIds": []
    },
    {
      "x": 30,
      "y": 347,
      "size": 1,
      "price": "1011000000000000000000",
      "reserved": "",
      "salt": "0x52ae698e61bb7f285b16efe038f73162dca903af87ff8a2ba47cedcbba19a83e",
      "assetIds": []
    },
    {
      "x": 30,
      "y": 348,
      "size": 1,
      "price": "1011000000000000000000",
      "reserved": "",
      "salt": "0x3e2fd13b621c62386c5e96a01c82e41f9d231f37e2dcf1f6c58c37743051ca90",
      "assetIds": []
    },
    {
      "x": 30,
      "y": 349,
      "size": 1,
      "price": "1011000000000000000000",
      "reserved": "",
      "salt": "0xb81c383e23e8f6a7888a7ba2ffdb92bff41fdd6d52ac6198271248397de6126c",
      "assetIds": []
    },
    {
      "x": 30,
      "y": 350,
      "size": 1,
      "price": "1011000000000000000000",
      "reserved": "0x7a9fe22691c811ea339d9b73150e6911a5343dca",
      "salt": "0x721fe335888caa3a452113e208bbd147ba4ee9e31719c1a1092a7d4e28a033ac",
      "assetIds": []
    },
    {
      "x": 30,
      "y": 351,
      "size": 1,
      "price": "1011000000000000000000",
      "reserved": "",
      "salt": "0xddcf018dc238e89282188104e1e9ff63cfd0336c168c2408310b08dc096bcfc0",
      "assetIds": []
    },
    {
      "x": 30,
      "y": 352,
      "size": 1,
      "price": "1011000000000000000000",
      "reserved": "",
      "salt": "0xe814f32c3aa7375a91ad6e3ea0460eccb695cc49a45663033d741a1e17ae0cd3",
      "assetIds": []
    },
    {
      "x": 30,
      "y": 353,
      "size": 1,
      "price": "1011000000000000000000",
      "reserved": "",
      "salt": "0xe25e6fc2ab24c435a53759fec98189f452ec6d2d8b3a15f93bf2e782d284b374",
      "assetIds": []
    },
    {
      "x": 30,
      "y": 354,
      "size": 1,
      "price": "1011000000000000000000",
      "reserved": "",
      "salt": "0x8ff86615a06ef95a59d697825b0100c51e56f6e74ada58387156f982bfa7c3d6",
      "assetIds": []
    },
    {
      "x": 30,
      "y": 355,
      "size": 1,
      "price": "1011000000000000000000",
      "reserved": "",
      "salt": "0xd3516602dce3e436b7c4d4ad100c6219be67ea027082291b8e74b2f68750a73a",
      "assetIds": []
    },
    {
      "x": 30,
      "y": 356,
      "size": 1,
      "price": "1011000000000000000000",
      "reserved": "",
      "salt": "0x40b9ebfa23968563bd5c4263c8c9164ab060cf94cc0770adc342f33e5d579059",
      "assetIds": []
    },
    {
      "x": 30,
      "y": 357,
      "size": 1,
      "price": "1011000000000000000000",
      "reserved": "",
      "salt": "0xb411a9030d1337d5e22b33d1c1216be2315688339feb6e32274e61d61c9bc1a4",
      "assetIds": []
    },
    {
      "x": 30,
      "y": 358,
      "size": 1,
      "price": "1011000000000000000000",
      "reserved": "",
      "salt": "0x7a2d63c945c2941b49d84193643da0c18fb3527b22ce05d1b8a3bba7dc68f8a5",
      "assetIds": []
    },
    {
      "x": 30,
      "y": 359,
      "size": 1,
      "price": "1011000000000000000000",
      "reserved": "",
      "salt": "0x3199a6e9774acfcb1b0f15846ec484200e9df33f8c20891ee7335aed03859071",
      "assetIds": []
    },
    {
      "x": 30,
      "y": 387,
      "size": 1,
      "price": "4683000000000000000000",
      "reserved": "",
      "salt": "0x18adb6ce6130bef2f32cee146be0c0726cb771888f51209945a8ba01cb49c45b",
      "assetIds": [
        "55464657044963196816950587289035428064568320970692304673817341489687891546112",
        "55464657044963196816950587289035428064568320970692304673817341489687891546113",
        "55464657044963196816950587289035428064568320970692304673817341489687899934720",
        "55464657044963196816950587289035428064568320970692304673817341489687899934721",
        "55464657044963196816950587289035428064568320970692304673817341489687908321280"
      ]
    },
    {
      "x": 30,
      "y": 388,
      "size": 1,
      "price": "4683000000000000000000",
      "reserved": "",
      "salt": "0x5b66ea0ccc9e9da3a9bb8009fcee404c7de4ba1c26b091c3b7554510626b9132",
      "assetIds": [
        "55464657044963196816950587289035428064568320970692304673817341489687891546112",
        "55464657044963196816950587289035428064568320970692304673817341489687891546113",
        "55464657044963196816950587289035428064568320970692304673817341489687899934720",
        "55464657044963196816950587289035428064568320970692304673817341489687899934721",
        "55464657044963196816950587289035428064568320970692304673817341489687908321280"
      ]
    },
    {
      "x": 30,
      "y": 389,
      "size": 1,
      "price": "4683000000000000000000",
      "reserved": "",
      "salt": "0xdd04d36778c33c8949339f545ca9ef4a71e3ddce706c7dac5cf2f38345d1d4e3",
      "assetIds": [
        "55464657044963196816950587289035428064568320970692304673817341489687891546112",
        "55464657044963196816950587289035428064568320970692304673817341489687891546113",
        "55464657044963196816950587289035428064568320970692304673817341489687899934720",
        "55464657044963196816950587289035428064568320970692304673817341489687899934721",
        "55464657044963196816950587289035428064568320970692304673817341489687908321280"
      ]
    },
    {
      "x": 30,
      "y": 393,
      "size": 1,
      "price": "4683000000000000000000",
      "reserved": "",
      "salt": "0x0d567aa09ed7421360aa2322b75dd237e7b297d05b78d985c13506b06582962d",
      "assetIds": [
        "55464657044963196816950587289035428064568320970692304673817341489687891546112",
        "55464657044963196816950587289035428064568320970692304673817341489687891546113",
        "55464657044963196816950587289035428064568320970692304673817341489687899934720",
        "55464657044963196816950587289035428064568320970692304673817341489687899934721",
        "55464657044963196816950587289035428064568320970692304673817341489687908321280"
      ]
    },
    {
      "x": 30,
      "y": 394,
      "size": 1,
      "price": "1011000000000000000000",
      "reserved": "",
      "salt": "0xac4854444b5816f54dd3b8c8c11abbebc63b9e939c975e1fb82189bc43696e74",
      "assetIds": []
    },
    {
      "x": 30,
      "y": 395,
      "size": 1,
      "price": "1011000000000000000000",
      "reserved": "",
      "salt": "0xafe071ccb199460642594af9776c1bfa92de7fb504de8ffec0361f83558f1d70",
      "assetIds": []
    },
    {
      "x": 30,
      "y": 402,
      "size": 1,
      "price": "1011000000000000000000",
      "reserved": "",
      "salt": "0xdd606fb3872bbf2c3443ec7fe4d90a15f13d6c7e3f6bd1162ce3da7786d605dd",
      "assetIds": []
    },
    {
      "x": 30,
      "y": 403,
      "size": 1,
      "price": "1011000000000000000000",
      "reserved": "",
      "salt": "0x80aa6af5eccdc8cc7b8169d2fe3f514b6910199faa598681a1dbd0b9c6116baf",
      "assetIds": []
    },
    {
      "x": 30,
      "y": 404,
      "size": 1,
      "price": "1011000000000000000000",
      "reserved": "",
      "salt": "0x8d6e7ba196763e7f9336b28719f7b3a8e2e735430e1f9e0b6c5a7e00ca78c989",
      "assetIds": []
    },
    {
      "x": 30,
      "y": 405,
      "size": 1,
      "price": "1011000000000000000000",
      "reserved": "",
      "salt": "0xe93f3e352ab2d7cdb8c75265101e20ee992fcaa60ba05b259e70062e4a14f391",
      "assetIds": []
    },
    {
      "x": 30,
      "y": 406,
      "size": 1,
      "price": "1011000000000000000000",
      "reserved": "",
      "salt": "0xbc0b341ab9658e82dec73a441cb0f7f768ff5ea9ae387ec920b1a0a9d7a80dc2",
      "assetIds": []
    },
    {
      "x": 30,
      "y": 407,
      "size": 1,
      "price": "1011000000000000000000",
      "reserved": "",
      "salt": "0xdf66e34827a4a61e3b7d7bcc423083608b58d38c4172e45f79df528af58ccb3e",
      "assetIds": []
    },
    {
      "x": 31,
      "y": 346,
      "size": 1,
      "price": "1011000000000000000000",
      "reserved": "",
      "salt": "0x0621ad366b69c8d8e4184720549bd89e255f4a17ac6d18a1c2dc0e99517c2e0d",
      "assetIds": []
    },
    {
      "x": 31,
      "y": 347,
      "size": 1,
      "price": "1011000000000000000000",
      "reserved": "",
      "salt": "0x9657ec93546843cd73f8ffc7dc6d1ac57d3f873a7bd3075dc40b8664f64bb8d0",
      "assetIds": []
    },
    {
      "x": 31,
      "y": 348,
      "size": 1,
      "price": "1011000000000000000000",
      "reserved": "",
      "salt": "0xd89563642df0e0ec9602e229c8c96ec306921949203f38bb2d3a108c4cceaa04",
      "assetIds": []
    },
    {
      "x": 31,
      "y": 349,
      "size": 1,
      "price": "1011000000000000000000",
      "reserved": "",
      "salt": "0x1fc23a72fa6f99f72144a530a93621c7f35a08256e5f83b493877a6eb88382d3",
      "assetIds": []
    },
    {
      "x": 31,
      "y": 350,
      "size": 1,
      "price": "1011000000000000000000",
      "reserved": "",
      "salt": "0xd4bb15617af31a81f0ebc81c0a693d188a45c7d68c4756dd41b5f5b8a57c0350",
      "assetIds": []
    },
    {
      "x": 31,
      "y": 351,
      "size": 1,
      "price": "1011000000000000000000",
      "reserved": "",
      "salt": "0xdb0b808dedccbb0309c7c82fe7ec5ed9ca468bb8685cc73f81a1c83ff3da1253",
      "assetIds": []
    },
    {
      "x": 31,
      "y": 352,
      "size": 1,
      "price": "1011000000000000000000",
      "reserved": "",
      "salt": "0xa6157160c65034a39bc99d6d026456d63f5b028310074302f130b25cfd2a50dd",
      "assetIds": []
    },
    {
      "x": 31,
      "y": 353,
      "size": 1,
      "price": "1011000000000000000000",
      "reserved": "",
      "salt": "0x29befe0923a58dc025a52b564da3eff993cdb7d181fc0d441ff6ec8cf7182a40",
      "assetIds": []
    },
    {
      "x": 31,
      "y": 354,
      "size": 1,
      "price": "1011000000000000000000",
      "reserved": "",
      "salt": "0x29989acfd62957ce85d086152ad8028d0dc24fcc6ab063659b8217a56ea3cd5a",
      "assetIds": []
    },
    {
      "x": 31,
      "y": 355,
      "size": 1,
      "price": "1011000000000000000000",
      "reserved": "",
      "salt": "0x3400e6c9e23f507461403be31158736b8c2572c19cd8d60c0ea0544553ba98c9",
      "assetIds": []
    },
    {
      "x": 31,
      "y": 356,
      "size": 1,
      "price": "1011000000000000000000",
      "reserved": "",
      "salt": "0x53c1c763635961ed7b3f103f2fe638e46ae560ed394821452702bc9578233003",
      "assetIds": []
    },
    {
      "x": 31,
      "y": 357,
      "size": 1,
      "price": "1011000000000000000000",
      "reserved": "",
      "salt": "0xa971aa0452e2159a3727c6f57ff626f8d5a1276e2376c5d986b7d4301865f36b",
      "assetIds": []
    },
    {
      "x": 31,
      "y": 358,
      "size": 1,
      "price": "1011000000000000000000",
      "reserved": "",
      "salt": "0x06440ff9649822edf639d53a4ba094333dbf5adf970329aa63ccb202ea1a864f",
      "assetIds": []
    },
    {
      "x": 31,
      "y": 359,
      "size": 1,
      "price": "1011000000000000000000",
      "reserved": "",
      "salt": "0x641c9aeb99bf5eed927eef48e458bb13b39dd7f7863b35405f30f4e6cd5fa8f9",
      "assetIds": []
    },
    {
      "x": 31,
      "y": 387,
      "size": 1,
      "price": "1011000000000000000000",
      "reserved": "",
      "salt": "0x03d3cb24b076044a6834cdc9dfb53cdd40c52f2dce5d3bd889f1493f9b1eeed2",
      "assetIds": []
    },
    {
      "x": 31,
      "y": 388,
      "size": 1,
      "price": "4683000000000000000000",
      "reserved": "",
      "salt": "0xd47048e0e0068a1b4d0a8cfcd30cff37238e75a37aa1665f643db2d5f63df32b",
      "assetIds": [
        "55464657044963196816950587289035428064568320970692304673817341489687891546112",
        "55464657044963196816950587289035428064568320970692304673817341489687891546113",
        "55464657044963196816950587289035428064568320970692304673817341489687899934720",
        "55464657044963196816950587289035428064568320970692304673817341489687899934721",
        "55464657044963196816950587289035428064568320970692304673817341489687908321280"
      ]
    },
    {
      "x": 31,
      "y": 389,
      "size": 1,
      "price": "4683000000000000000000",
      "reserved": "",
      "salt": "0x3d35c28de1352a14ac3b6138bcb493926ac22b54c3c09cdf87cf568d21953528",
      "assetIds": [
        "55464657044963196816950587289035428064568320970692304673817341489687891546112",
        "55464657044963196816950587289035428064568320970692304673817341489687891546113",
        "55464657044963196816950587289035428064568320970692304673817341489687899934720",
        "55464657044963196816950587289035428064568320970692304673817341489687899934721",
        "55464657044963196816950587289035428064568320970692304673817341489687908321280"
      ]
    },
    {
      "x": 31,
      "y": 393,
      "size": 1,
      "price": "4683000000000000000000",
      "reserved": "",
      "salt": "0xb53fe914601be5ceffe7732ba4fded2dc58cef595c20f602a1b2e05018af0957",
      "assetIds": [
        "55464657044963196816950587289035428064568320970692304673817341489687891546112",
        "55464657044963196816950587289035428064568320970692304673817341489687891546113",
        "55464657044963196816950587289035428064568320970692304673817341489687899934720",
        "55464657044963196816950587289035428064568320970692304673817341489687899934721",
        "55464657044963196816950587289035428064568320970692304673817341489687908321280"
      ]
    },
    {
      "x": 31,
      "y": 394,
      "size": 1,
      "price": "4683000000000000000000",
      "reserved": "",
      "salt": "0x00c5591eb07a761a39f445d9f2f9bd40f0aac887882ba8c6488ce65309a21bfe",
      "assetIds": [
        "55464657044963196816950587289035428064568320970692304673817341489687891546112",
        "55464657044963196816950587289035428064568320970692304673817341489687891546113",
        "55464657044963196816950587289035428064568320970692304673817341489687899934720",
        "55464657044963196816950587289035428064568320970692304673817341489687899934721",
        "55464657044963196816950587289035428064568320970692304673817341489687908321280"
      ]
    },
    {
      "x": 31,
      "y": 395,
      "size": 1,
      "price": "1011000000000000000000",
      "reserved": "",
      "salt": "0xfd883934b893157fec57677dd52221b4a07b992de3f8e0ffe58a67d82d2bb39f",
      "assetIds": []
    },
    {
      "x": 31,
      "y": 402,
      "size": 1,
      "price": "1011000000000000000000",
      "reserved": "",
      "salt": "0xc47b21943ffbe6fe180dad350430edf7789e479b903866a37e539a34fd3048ba",
      "assetIds": []
    },
    {
      "x": 31,
      "y": 403,
      "size": 1,
      "price": "1011000000000000000000",
      "reserved": "",
      "salt": "0x105e6a6e2ca98542ad909771cfc4392e99cc178b61ef04fe2dae4dd85c4510fa",
      "assetIds": []
    },
    {
      "x": 31,
      "y": 404,
      "size": 1,
      "price": "1011000000000000000000",
      "reserved": "",
      "salt": "0x38e754edae77cb7d27726376c67e90d3884d20bce6d588b794568a12cafa367f",
      "assetIds": []
    },
    {
      "x": 31,
      "y": 405,
      "size": 1,
      "price": "1011000000000000000000",
      "reserved": "",
      "salt": "0x7b36cc74bac5345467b9c236ae5d4d9f1c65e4b0274da093791824936a75d8e4",
      "assetIds": []
    },
    {
      "x": 31,
      "y": 406,
      "size": 1,
      "price": "1011000000000000000000",
      "reserved": "",
      "salt": "0x7c406cac0dcd1b8f545900a715ed0471341e92e86dd177e8812fabc3b401ffdd",
      "assetIds": []
    },
    {
      "x": 31,
      "y": 407,
      "size": 1,
      "price": "1011000000000000000000",
      "reserved": "",
      "salt": "0xe042efeee5c46af0619443812ebfd387c8669f61480bac548088efb511ec3bc7",
      "assetIds": []
    },
    {
      "x": 32,
      "y": 346,
      "size": 1,
      "price": "1011000000000000000000",
      "reserved": "",
      "salt": "0x538ac4c3c9ddb15655b3cd5b842b45ea0e6981099e16fc944da5bb93f915e937",
      "assetIds": []
    },
    {
      "x": 32,
      "y": 347,
      "size": 1,
      "price": "1011000000000000000000",
      "reserved": "",
      "salt": "0xbf09be2ff81e2cfeac840179e9822735c19c8557c77d837fb2823a629d132147",
      "assetIds": []
    },
    {
      "x": 32,
      "y": 348,
      "size": 1,
      "price": "1011000000000000000000",
      "reserved": "",
      "salt": "0xe93a74ae82ede9a8835a2f75e747cc21213d823877f1a7ba890cc8cc5f799e53",
      "assetIds": []
    },
    {
      "x": 32,
      "y": 349,
      "size": 1,
      "price": "1011000000000000000000",
      "reserved": "",
      "salt": "0xf45cc0814aeb077b75d0d0d6163555177ce51b062fa1596e79e61ba5fea1941a",
      "assetIds": []
    },
    {
      "x": 32,
      "y": 350,
      "size": 1,
      "price": "1011000000000000000000",
      "reserved": "",
      "salt": "0x7fda05baf93af73862aa1b7a4d8c030c75b64fbed7dccb67386395438ee2ca59",
      "assetIds": []
    },
    {
      "x": 32,
      "y": 351,
      "size": 1,
      "price": "1011000000000000000000",
      "reserved": "",
      "salt": "0x5a5efa0c7a916f3125560f05dc433deea7933cdebc0fb733b30bb141eda2847b",
      "assetIds": []
    },
    {
      "x": 32,
      "y": 352,
      "size": 1,
      "price": "1011000000000000000000",
      "reserved": "",
      "salt": "0x8f10fc016203ffee4e1f21dbf8739fc79fa219a270cf00d276bf2b611e46fe3c",
      "assetIds": []
    },
    {
      "x": 32,
      "y": 353,
      "size": 1,
      "price": "1011000000000000000000",
      "reserved": "",
      "salt": "0x5a08af099f66167dd23a8dd5d88916e58525b1ac5794fb20d9f1701faba1ea9b",
      "assetIds": []
    },
    {
      "x": 32,
      "y": 354,
      "size": 1,
      "price": "1011000000000000000000",
      "reserved": "",
      "salt": "0x5b6185677fb56e757d9c5b30e738bef246f54a45b5945cb44cac6484fa70fca9",
      "assetIds": []
    },
    {
      "x": 32,
      "y": 355,
      "size": 1,
      "price": "1011000000000000000000",
      "reserved": "0x7a9fe22691c811ea339d9b73150e6911a5343dca",
      "salt": "0xd665af6ab6129925432f6c40c1c27aaa726cc9db7e6bdf6ee779a47969047502",
      "assetIds": []
    },
    {
      "x": 32,
      "y": 356,
      "size": 1,
      "price": "1011000000000000000000",
      "reserved": "",
      "salt": "0x3fb5d7a740f8e0c02747587a2b956615147ae1f1f3e30e7f29d29b1919dd7432",
      "assetIds": []
    },
    {
      "x": 32,
      "y": 357,
      "size": 1,
      "price": "1011000000000000000000",
      "reserved": "",
      "salt": "0x230933210803378ace69bd4c442966064860134ebfbed7fdad10994c0b5a239f",
      "assetIds": []
    },
    {
      "x": 32,
      "y": 358,
      "size": 1,
      "price": "1011000000000000000000",
      "reserved": "",
      "salt": "0x50277845ae34882e8107313e49db294538b227fcdb4ac17b32ef49dea3e5bf03",
      "assetIds": []
    },
    {
      "x": 32,
      "y": 359,
      "size": 1,
      "price": "1011000000000000000000",
      "reserved": "",
      "salt": "0x92dfb1bf2e87f29f62de84a2ff11b162469db862d9ea34b7364a2888b67192ca",
      "assetIds": []
    },
    {
      "x": 32,
      "y": 387,
      "size": 1,
      "price": "4683000000000000000000",
      "reserved": "",
      "salt": "0x7d5662f04767867f9208a1a9b8224996aa5371937417cad7bd4525df69cb8494",
      "assetIds": [
        "55464657044963196816950587289035428064568320970692304673817341489687891546112",
        "55464657044963196816950587289035428064568320970692304673817341489687891546113",
        "55464657044963196816950587289035428064568320970692304673817341489687899934720",
        "55464657044963196816950587289035428064568320970692304673817341489687899934721",
        "55464657044963196816950587289035428064568320970692304673817341489687908321280"
      ]
    },
    {
      "x": 32,
      "y": 388,
      "size": 1,
      "price": "1011000000000000000000",
      "reserved": "0x7a9fe22691c811ea339d9b73150e6911a5343dca",
      "salt": "0xb66fe60231fe64418f4c3ee17d71a45fada6253963a2fadade67c5136b00bb47",
      "assetIds": []
    },
    {
      "x": 32,
      "y": 389,
      "size": 1,
      "price": "4683000000000000000000",
      "reserved": "",
      "salt": "0x5e27487030c7d59a786e7bd9f4fe0e56aa7d2862efc261b4302a4afbbb6525bb",
      "assetIds": [
        "55464657044963196816950587289035428064568320970692304673817341489687891546112",
        "55464657044963196816950587289035428064568320970692304673817341489687891546113",
        "55464657044963196816950587289035428064568320970692304673817341489687899934720",
        "55464657044963196816950587289035428064568320970692304673817341489687899934721",
        "55464657044963196816950587289035428064568320970692304673817341489687908321280"
      ]
    },
    {
      "x": 32,
      "y": 393,
      "size": 1,
      "price": "4683000000000000000000",
      "reserved": "",
      "salt": "0xd05fb03f93adb6e246e840253c241bacb73597c793df03d0f19402cb44bd3c6f",
      "assetIds": [
        "55464657044963196816950587289035428064568320970692304673817341489687891546112",
        "55464657044963196816950587289035428064568320970692304673817341489687891546113",
        "55464657044963196816950587289035428064568320970692304673817341489687899934720",
        "55464657044963196816950587289035428064568320970692304673817341489687899934721",
        "55464657044963196816950587289035428064568320970692304673817341489687908321280"
      ]
    },
    {
      "x": 32,
      "y": 394,
      "size": 1,
      "price": "4683000000000000000000",
      "reserved": "",
      "salt": "0x459b82560cbc6847a390f0d83af3c8f545cf594a2e98c94a2b46b9d89d8169fb",
      "assetIds": [
        "55464657044963196816950587289035428064568320970692304673817341489687891546112",
        "55464657044963196816950587289035428064568320970692304673817341489687891546113",
        "55464657044963196816950587289035428064568320970692304673817341489687899934720",
        "55464657044963196816950587289035428064568320970692304673817341489687899934721",
        "55464657044963196816950587289035428064568320970692304673817341489687908321280"
      ]
    },
    {
      "x": 32,
      "y": 395,
      "size": 1,
      "price": "1011000000000000000000",
      "reserved": "",
      "salt": "0xdaf61c38c15c530325f688e3a15e8dfd7bcc7d820524878412326269443daa6b",
      "assetIds": []
    },
    {
      "x": 32,
      "y": 402,
      "size": 1,
      "price": "1011000000000000000000",
      "reserved": "",
      "salt": "0x080586ae5ead99810e1431f5eb445ccd9f603c4927c4cd416ed3a625fb7b571c",
      "assetIds": []
    },
    {
      "x": 32,
      "y": 403,
      "size": 1,
      "price": "1011000000000000000000",
      "reserved": "",
      "salt": "0x6acb78e9b71d4476f0f7647efd81ee7af31dd375568be989f085a944190c1f0c",
      "assetIds": []
    },
    {
      "x": 32,
      "y": 404,
      "size": 1,
      "price": "1011000000000000000000",
      "reserved": "",
      "salt": "0xd2ec4d293c2fab428f86d2b1f9f42acd645df799f092e8a05580adfb74665c58",
      "assetIds": []
    },
    {
      "x": 32,
      "y": 405,
      "size": 1,
      "price": "1011000000000000000000",
      "reserved": "",
      "salt": "0x37291f3c919d75b0cb76c0a381a3d100f3193bb3c6283d2690130db4ca4d3baa",
      "assetIds": []
    },
    {
      "x": 32,
      "y": 406,
      "size": 1,
      "price": "1011000000000000000000",
      "reserved": "",
      "salt": "0x171a85dfcf95cd3ee3a60cd7760ed4f20914ee21c5ba4dc4d8421e94b6fab100",
      "assetIds": []
    },
    {
      "x": 32,
      "y": 407,
      "size": 1,
      "price": "1011000000000000000000",
      "reserved": "",
      "salt": "0x80e534427d74261d07073954f2377c91771b2f76168a70c01a5819a376b1fcdb",
      "assetIds": []
    },
    {
      "x": 33,
      "y": 346,
      "size": 1,
      "price": "1011000000000000000000",
      "reserved": "",
      "salt": "0xc5d79f539429b879eccb3f7870aca8d8179af462e410df9d43f6a4755b2f6099",
      "assetIds": []
    },
    {
      "x": 33,
      "y": 347,
      "size": 1,
      "price": "1011000000000000000000",
      "reserved": "",
      "salt": "0x84fe208af67cca6a8e2a701998a1bbba5a15c2145f2bd13749b4edadf4bd1f9d",
      "assetIds": []
    },
    {
      "x": 33,
      "y": 348,
      "size": 1,
      "price": "1011000000000000000000",
      "reserved": "",
      "salt": "0xc66d31ccb4de86905e0ad57953b27caf6e942e3b9e7816c8031f9ccbb9ec8b9d",
      "assetIds": []
    },
    {
      "x": 33,
      "y": 349,
      "size": 1,
      "price": "1011000000000000000000",
      "reserved": "0x7a9fe22691c811ea339d9b73150e6911a5343dca",
      "salt": "0x07b7404cee7249866060330f4ca60620316178365e3beacf0cfd2b569a2271ef",
      "assetIds": []
    },
    {
      "x": 33,
      "y": 350,
      "size": 1,
      "price": "1011000000000000000000",
      "reserved": "",
      "salt": "0x17d361c1f2edec726a8e2f5aa257888a288b39b3159bb958c947b774b9c212dd",
      "assetIds": []
    },
    {
      "x": 33,
      "y": 351,
      "size": 1,
      "price": "1011000000000000000000",
      "reserved": "",
      "salt": "0xb1d59ede862ca594a4717624075030bfb5e761d85e0b089ac3266ba337e16eca",
      "assetIds": []
    },
    {
      "x": 33,
      "y": 352,
      "size": 1,
      "price": "1011000000000000000000",
      "reserved": "",
      "salt": "0x063aa13c3da8606344c2c57ba54c8129379a7ef7fb9405dc68097b1166003325",
      "assetIds": []
    },
    {
      "x": 33,
      "y": 353,
      "size": 1,
      "price": "1011000000000000000000",
      "reserved": "",
      "salt": "0xc1fa27aeba562c36adf18821665e9ca28e967886732152491bae7f2a0534c048",
      "assetIds": []
    },
    {
      "x": 33,
      "y": 354,
      "size": 1,
      "price": "1011000000000000000000",
      "reserved": "",
      "salt": "0x94865e0aef8497ee235926cfb96ec734dfc1ccba792ae5d8a5b1614fb7566ff8",
      "assetIds": []
    },
    {
      "x": 33,
      "y": 355,
      "size": 1,
      "price": "1011000000000000000000",
      "reserved": "",
      "salt": "0x890e9d6fcc8cfda8ebbd85e27365a43d272606e83a96a087ccefc1df3e4438bc",
      "assetIds": []
    },
    {
      "x": 33,
      "y": 356,
      "size": 1,
      "price": "1011000000000000000000",
      "reserved": "",
      "salt": "0x9e55e2e05f4e34fa4c15c8326e147e4360abef75ca4c3765d2a78bcd05d4b4e4",
      "assetIds": []
    },
    {
      "x": 33,
      "y": 357,
      "size": 1,
      "price": "1011000000000000000000",
      "reserved": "0x7a9fe22691c811ea339d9b73150e6911a5343dca",
      "salt": "0xd968f95ed2c7395f642f756ddb8e700fd9930e35553b1c1ea4e6ab97de7741f1",
      "assetIds": []
    },
    {
      "x": 33,
      "y": 358,
      "size": 1,
      "price": "1011000000000000000000",
      "reserved": "",
      "salt": "0xc115a874eae7ee8f57c11a0c3a813f989ae192ccd5107d22654d36c1070f45d8",
      "assetIds": []
    },
    {
      "x": 33,
      "y": 359,
      "size": 1,
      "price": "1011000000000000000000",
      "reserved": "",
      "salt": "0x55be07a1b93ccb50b54d8729bebe4a0be60faa0ae71cf1e318180574457bee0e",
      "assetIds": []
    },
    {
      "x": 33,
      "y": 384,
      "size": 1,
      "price": "1011000000000000000000",
      "reserved": "",
      "salt": "0xcae1555086548da853f38dab5b0efcd66e47c8a03a565fcb9ba9355ca3db4039",
      "assetIds": []
    },
    {
      "x": 33,
      "y": 385,
      "size": 1,
      "price": "1011000000000000000000",
      "reserved": "",
      "salt": "0xbd582740aaa2abcac0b7825042103bfbd4b36105c0c85654d3a3cb9a2aca177e",
      "assetIds": []
    },
    {
      "x": 33,
      "y": 386,
      "size": 1,
      "price": "1011000000000000000000",
      "reserved": "",
      "salt": "0x1ffd1b187a2de869c3deca31e4328454a435a903cd30e869a53c23e7a0c23f6a",
      "assetIds": []
    },
    {
      "x": 33,
      "y": 387,
      "size": 1,
      "price": "1011000000000000000000",
      "reserved": "",
      "salt": "0x0f04a29312d1448468ca01f84152b07ebb988a67205334e20fa742dfe70d6a55",
      "assetIds": []
    },
    {
      "x": 33,
      "y": 388,
      "size": 1,
      "price": "4683000000000000000000",
      "reserved": "",
      "salt": "0x7a28036bd4fa2840e5f495f7954b70b26365665e06dab9a1d182992da5c20ae9",
      "assetIds": [
        "55464657044963196816950587289035428064568320970692304673817341489687891546112",
        "55464657044963196816950587289035428064568320970692304673817341489687891546113",
        "55464657044963196816950587289035428064568320970692304673817341489687899934720",
        "55464657044963196816950587289035428064568320970692304673817341489687899934721",
        "55464657044963196816950587289035428064568320970692304673817341489687908321280"
      ]
    },
    {
      "x": 33,
      "y": 389,
      "size": 1,
      "price": "4683000000000000000000",
      "reserved": "",
      "salt": "0x7083786b34fc27601bcbb48bd8dfd514338db18349bc14148a5ba0d052cf66ec",
      "assetIds": [
        "55464657044963196816950587289035428064568320970692304673817341489687891546112",
        "55464657044963196816950587289035428064568320970692304673817341489687891546113",
        "55464657044963196816950587289035428064568320970692304673817341489687899934720",
        "55464657044963196816950587289035428064568320970692304673817341489687899934721",
        "55464657044963196816950587289035428064568320970692304673817341489687908321280"
      ]
    },
    {
      "x": 33,
      "y": 390,
      "size": 1,
      "price": "4683000000000000000000",
      "reserved": "",
      "salt": "0xe8d3d48bb15df8c5791e28622be24089254017e7d2c2f034feb13c3e1d1f110e",
      "assetIds": [
        "55464657044963196816950587289035428064568320970692304673817341489687891546112",
        "55464657044963196816950587289035428064568320970692304673817341489687891546113",
        "55464657044963196816950587289035428064568320970692304673817341489687899934720",
        "55464657044963196816950587289035428064568320970692304673817341489687899934721",
        "55464657044963196816950587289035428064568320970692304673817341489687908321280"
      ]
    },
    {
      "x": 33,
      "y": 391,
      "size": 1,
      "price": "4683000000000000000000",
      "reserved": "",
      "salt": "0xe4f562159cd9da6346ed5df8e14a70fc50f28f9f745c72d1f9a153ab277ad090",
      "assetIds": [
        "55464657044963196816950587289035428064568320970692304673817341489687891546112",
        "55464657044963196816950587289035428064568320970692304673817341489687891546113",
        "55464657044963196816950587289035428064568320970692304673817341489687899934720",
        "55464657044963196816950587289035428064568320970692304673817341489687899934721",
        "55464657044963196816950587289035428064568320970692304673817341489687908321280"
      ]
    },
    {
      "x": 33,
      "y": 392,
      "size": 1,
      "price": "4683000000000000000000",
      "reserved": "",
      "salt": "0x6f980b9957ef74c72d78f771ade43f78f8bb9ea39030b05cdfc008fd090f59a3",
      "assetIds": [
        "55464657044963196816950587289035428064568320970692304673817341489687891546112",
        "55464657044963196816950587289035428064568320970692304673817341489687891546113",
        "55464657044963196816950587289035428064568320970692304673817341489687899934720",
        "55464657044963196816950587289035428064568320970692304673817341489687899934721",
        "55464657044963196816950587289035428064568320970692304673817341489687908321280"
      ]
    },
    {
      "x": 33,
      "y": 393,
      "size": 1,
      "price": "4683000000000000000000",
      "reserved": "",
      "salt": "0x7b4945ceabbd5ab0344a8df49124459a6f32c9be99a9fa0d38d407361914510e",
      "assetIds": [
        "55464657044963196816950587289035428064568320970692304673817341489687891546112",
        "55464657044963196816950587289035428064568320970692304673817341489687891546113",
        "55464657044963196816950587289035428064568320970692304673817341489687899934720",
        "55464657044963196816950587289035428064568320970692304673817341489687899934721",
        "55464657044963196816950587289035428064568320970692304673817341489687908321280"
      ]
    },
    {
      "x": 33,
      "y": 394,
      "size": 1,
      "price": "1011000000000000000000",
      "reserved": "0x7a9fe22691c811ea339d9b73150e6911a5343dca",
      "salt": "0x3c5440e0fc96890479be76af6c40a999237876c859fce201da041edf7804a595",
      "assetIds": []
    },
    {
      "x": 33,
      "y": 395,
      "size": 1,
      "price": "1011000000000000000000",
      "reserved": "",
      "salt": "0x95281b8de2ea99b0b34fb2e100caecc5b773be89a1089bf6ce8c69ee6049b8a9",
      "assetIds": []
    },
    {
      "x": 33,
      "y": 402,
      "size": 1,
      "price": "1011000000000000000000",
      "reserved": "0x7a9fe22691c811ea339d9b73150e6911a5343dca",
      "salt": "0x38bee5b702cda85ef7cc96beec34d3d45099f1e45b0ce25010848ecf13f0fdeb",
      "assetIds": []
    },
    {
      "x": 33,
      "y": 403,
      "size": 1,
      "price": "1011000000000000000000",
      "reserved": "",
      "salt": "0x69ffbe3b1e548e171c6af1fb98efa13c3c3f1d92af1e57e85d861cfa69d1acad",
      "assetIds": []
    },
    {
      "x": 33,
      "y": 404,
      "size": 1,
      "price": "1011000000000000000000",
      "reserved": "",
      "salt": "0x9aa9be1138489d8c6a19f94bf07d2d67a3bd973411d70811c1c9e92bf2cac9d7",
      "assetIds": []
    },
    {
      "x": 33,
      "y": 405,
      "size": 1,
      "price": "1011000000000000000000",
      "reserved": "",
      "salt": "0x9f1383cc8837fc59e6eda9c69be151b2e771ecb6a703339e62601adba7378cb4",
      "assetIds": []
    },
    {
      "x": 33,
      "y": 406,
      "size": 1,
      "price": "1011000000000000000000",
      "reserved": "",
      "salt": "0xc1f8f9c1ca5f091a83745d2f43a0d732a21e96448f814332b519ca9622dd9a73",
      "assetIds": []
    },
    {
      "x": 33,
      "y": 407,
      "size": 1,
      "price": "1011000000000000000000",
      "reserved": "",
      "salt": "0xd8d288a806e3ab9eb467d753cb3590372446014e30982458136d5e63e19388aa",
      "assetIds": []
    },
    {
      "x": 34,
      "y": 346,
      "size": 1,
      "price": "1011000000000000000000",
      "reserved": "",
      "salt": "0x6d1ad605701c3c91f3fb52b97785c163aab6b9dc3f29ebb5ab780bfcc24c09df",
      "assetIds": []
    },
    {
      "x": 34,
      "y": 347,
      "size": 1,
      "price": "1011000000000000000000",
      "reserved": "",
      "salt": "0xfa72985fd3c1ecda85a3b160710a6e477f44efad4eacbc792db10a4d225345e7",
      "assetIds": []
    },
    {
      "x": 34,
      "y": 348,
      "size": 1,
      "price": "1011000000000000000000",
      "reserved": "",
      "salt": "0x525ae7ababdceccbbd0defb4622c26ba803fe21d00ec56e8f9540f67629a0006",
      "assetIds": []
    },
    {
      "x": 34,
      "y": 349,
      "size": 1,
      "price": "1011000000000000000000",
      "reserved": "",
      "salt": "0x2244edeb11705cfa3c67bafaa20c023f1dcf7bc17bd4d9c598a25118671c927a",
      "assetIds": []
    },
    {
      "x": 34,
      "y": 350,
      "size": 1,
      "price": "1011000000000000000000",
      "reserved": "",
      "salt": "0xafb66662b7d7811614359766c62368a71a8804d17a282f0746368cb64c2d3102",
      "assetIds": []
    },
    {
      "x": 34,
      "y": 351,
      "size": 1,
      "price": "1011000000000000000000",
      "reserved": "",
      "salt": "0x7a3b7f17e48278ad089a4b515b92260e36698d468bcaad952e124beeb6e914b8",
      "assetIds": []
    },
    {
      "x": 34,
      "y": 352,
      "size": 1,
      "price": "1011000000000000000000",
      "reserved": "",
      "salt": "0xba2811208c02700c65ae5dc7a69907971ddd1d9f2c1b056440f5744e195bbad1",
      "assetIds": []
    },
    {
      "x": 34,
      "y": 353,
      "size": 1,
      "price": "1011000000000000000000",
      "reserved": "",
      "salt": "0xebafcb0ca51a7dda9b8d5c4a66d87e86951c25c68147410ab31a78a8acd7dea7",
      "assetIds": []
    },
    {
      "x": 34,
      "y": 354,
      "size": 1,
      "price": "1011000000000000000000",
      "reserved": "",
      "salt": "0x7a1c37decd15d6e7c63bfa89b44d11a2a78e91d9cf4877d11b8a5e3ab548229c",
      "assetIds": []
    },
    {
      "x": 34,
      "y": 355,
      "size": 1,
      "price": "1011000000000000000000",
      "reserved": "",
      "salt": "0xa7fb73e28d0659c80af8b8b870d9e25ec7bfcaa9aa40e2b92dd86be6d86cc0ca",
      "assetIds": []
    },
    {
      "x": 34,
      "y": 356,
      "size": 1,
      "price": "1011000000000000000000",
      "reserved": "",
      "salt": "0x8ac8827a435f0e6a837806bffd03eee646a34596fad708140c1ff548874870f3",
      "assetIds": []
    },
    {
      "x": 34,
      "y": 357,
      "size": 1,
      "price": "1011000000000000000000",
      "reserved": "",
      "salt": "0x7f29f724b7e229ad77d0d27421c556eca272e4d809c67eea10dedf6929d1d825",
      "assetIds": []
    },
    {
      "x": 34,
      "y": 358,
      "size": 1,
      "price": "1011000000000000000000",
      "reserved": "",
      "salt": "0x8a5b73193ed4acc0ccaba7cdf8daa15607aae9d57ea5cfeddf46e8716aacd97c",
      "assetIds": []
    },
    {
      "x": 34,
      "y": 359,
      "size": 1,
      "price": "1011000000000000000000",
      "reserved": "",
      "salt": "0x38264def2b23a11a26d1e70ea493391d25964341fa8c1d820ad4179ad077c500",
      "assetIds": []
    },
    {
      "x": 34,
      "y": 384,
      "size": 1,
      "price": "1011000000000000000000",
      "reserved": "",
      "salt": "0x974cb844743ddadabb0d9d6cb245690fa1f89e3c5fb334f3cc338408b4bfd88d",
      "assetIds": []
    },
    {
      "x": 34,
      "y": 385,
      "size": 1,
      "price": "1011000000000000000000",
      "reserved": "",
      "salt": "0x5630914a49862ce7c374fc14d32c278da1ce3baa3022ecc5d218e38b6da9cafd",
      "assetIds": []
    },
    {
      "x": 34,
      "y": 386,
      "size": 1,
      "price": "1011000000000000000000",
      "reserved": "",
      "salt": "0x7f851ec409bbe673d093f39e1a1ed563d336ed65b701037858671a5577f2a53f",
      "assetIds": []
    },
    {
      "x": 34,
      "y": 387,
      "size": 1,
      "price": "1011000000000000000000",
      "reserved": "0x7a9fe22691c811ea339d9b73150e6911a5343dca",
      "salt": "0xc4450d75d6bf480611225e660f8d1c5542afaa4665b5ae44a5bb102f03e65bdf",
      "assetIds": []
    },
    {
      "x": 34,
      "y": 388,
      "size": 1,
      "price": "4683000000000000000000",
      "reserved": "",
      "salt": "0xc9374cd29b726be9f8619caa5ef931dff86a5f1f1acd934684c99eb83433fbcf",
      "assetIds": [
        "55464657044963196816950587289035428064568320970692304673817341489687891546112",
        "55464657044963196816950587289035428064568320970692304673817341489687891546113",
        "55464657044963196816950587289035428064568320970692304673817341489687899934720",
        "55464657044963196816950587289035428064568320970692304673817341489687899934721",
        "55464657044963196816950587289035428064568320970692304673817341489687908321280"
      ]
    },
    {
      "x": 34,
      "y": 389,
      "size": 1,
      "price": "1011000000000000000000",
      "reserved": "",
      "salt": "0x0a2a3df3ee216a27cef8f0f183fbda5da3ad500b598480b8f1e07ab3d017a897",
      "assetIds": []
    },
    {
      "x": 34,
      "y": 390,
      "size": 1,
      "price": "4683000000000000000000",
      "reserved": "",
      "salt": "0xc633e74fe65ba516ade077742b500a8fc482a25ba35e9196889c4c13f0e637d6",
      "assetIds": [
        "55464657044963196816950587289035428064568320970692304673817341489687891546112",
        "55464657044963196816950587289035428064568320970692304673817341489687891546113",
        "55464657044963196816950587289035428064568320970692304673817341489687899934720",
        "55464657044963196816950587289035428064568320970692304673817341489687899934721",
        "55464657044963196816950587289035428064568320970692304673817341489687908321280"
      ]
    },
    {
      "x": 34,
      "y": 391,
      "size": 1,
      "price": "4683000000000000000000",
      "reserved": "",
      "salt": "0xd89f95e969b8cb6fac48f4eddaa7cc871c193278315801597599c84a1ef3f316",
      "assetIds": [
        "55464657044963196816950587289035428064568320970692304673817341489687891546112",
        "55464657044963196816950587289035428064568320970692304673817341489687891546113",
        "55464657044963196816950587289035428064568320970692304673817341489687899934720",
        "55464657044963196816950587289035428064568320970692304673817341489687899934721",
        "55464657044963196816950587289035428064568320970692304673817341489687908321280"
      ]
    },
    {
      "x": 34,
      "y": 392,
      "size": 1,
      "price": "1011000000000000000000",
      "reserved": "0x7a9fe22691c811ea339d9b73150e6911a5343dca",
      "salt": "0xf3f8904c2faf1aa2230434a615b3223a43154ec64dbe60798a6e3d943c821406",
      "assetIds": []
    },
    {
      "x": 34,
      "y": 393,
      "size": 1,
      "price": "4683000000000000000000",
      "reserved": "",
      "salt": "0xd3ef0e8483d57d3bddebf12acf4caae336013736e7de132fa35c9fb0cff55f2c",
      "assetIds": [
        "55464657044963196816950587289035428064568320970692304673817341489687891546112",
        "55464657044963196816950587289035428064568320970692304673817341489687891546113",
        "55464657044963196816950587289035428064568320970692304673817341489687899934720",
        "55464657044963196816950587289035428064568320970692304673817341489687899934721",
        "55464657044963196816950587289035428064568320970692304673817341489687908321280"
      ]
    },
    {
      "x": 34,
      "y": 394,
      "size": 1,
      "price": "1011000000000000000000",
      "reserved": "",
      "salt": "0xcd0465e3ffdc0586eb50530ae68af64ef07b4a02d2cf290ba5ef24e19025cce1",
      "assetIds": []
    },
    {
      "x": 34,
      "y": 395,
      "size": 1,
      "price": "1011000000000000000000",
      "reserved": "",
      "salt": "0xd4234935c97a04f6afa12f1e16d3677df004229c93eed5134fb9125310d7133c",
      "assetIds": []
    },
    {
      "x": 34,
      "y": 402,
      "size": 1,
      "price": "1011000000000000000000",
      "reserved": "",
      "salt": "0x819c082aa117c834eccfebfa587f7f2726d59814140bdfad8911c9758c155481",
      "assetIds": []
    },
    {
      "x": 34,
      "y": 403,
      "size": 1,
      "price": "1011000000000000000000",
      "reserved": "",
      "salt": "0x56b39e04d70ac13974eb7986fce82efb8f3cc99bf67fd60d518a900e0cc79b3d",
      "assetIds": []
    },
    {
      "x": 34,
      "y": 404,
      "size": 1,
      "price": "1011000000000000000000",
      "reserved": "",
      "salt": "0xd8d1ad506824369053c798f3b1d5706b09b1dc62dee00203adbc70f95eb222c4",
      "assetIds": []
    },
    {
      "x": 34,
      "y": 405,
      "size": 1,
      "price": "1011000000000000000000",
      "reserved": "",
      "salt": "0x5f63c043cad598e91bfa9cfca02fbc7ddeaff4549b590035d024ae2c958bc8a2",
      "assetIds": []
    },
    {
      "x": 34,
      "y": 406,
      "size": 1,
      "price": "1011000000000000000000",
      "reserved": "0x7a9fe22691c811ea339d9b73150e6911a5343dca",
      "salt": "0x6d2b942e4d3e44ec00b60300c0c6b30185eebee98e30292b2bb866e0597248ce",
      "assetIds": []
    },
    {
      "x": 34,
      "y": 407,
      "size": 1,
      "price": "1011000000000000000000",
      "reserved": "",
      "salt": "0x032ef7a437c9d3dc7a6f9070c522f6df47da677521f82b1b284e10e2234ca79a",
      "assetIds": []
    },
    {
      "x": 35,
      "y": 346,
      "size": 1,
      "price": "1011000000000000000000",
      "reserved": "",
      "salt": "0x1e8d9b45807556b2626a54c1f9adad6ef84ec940c48807371d895aee9324178e",
      "assetIds": []
    },
    {
      "x": 35,
      "y": 347,
      "size": 1,
      "price": "1011000000000000000000",
      "reserved": "",
      "salt": "0x20675e73d5d08eac123d6c3dfa444a6b9aab7c2aaa04dc3e270c21cd70bb9a29",
      "assetIds": []
    },
    {
      "x": 35,
      "y": 348,
      "size": 1,
      "price": "1011000000000000000000",
      "reserved": "",
      "salt": "0xfb9d27591524082a600a9db553fa6a10b5178e51245d08b6994786430d83b653",
      "assetIds": []
    },
    {
      "x": 35,
      "y": 349,
      "size": 1,
      "price": "1011000000000000000000",
      "reserved": "",
      "salt": "0x445d319b47626fba25349a2b73bfd013d0c4f547ebc7590674b34f0fd35061c3",
      "assetIds": []
    },
    {
      "x": 35,
      "y": 350,
      "size": 1,
      "price": "1011000000000000000000",
      "reserved": "",
      "salt": "0x14768641d6262b4caae57da029e37a3cdb9384fdf15253b2a9b2ec04a23f18b7",
      "assetIds": []
    },
    {
      "x": 35,
      "y": 351,
      "size": 1,
      "price": "1011000000000000000000",
      "reserved": "",
      "salt": "0x72d5da6ff1f76c7f8dd9d560461b2c4417e99b32cd951ce72fa22fb362f6934b",
      "assetIds": []
    },
    {
      "x": 35,
      "y": 352,
      "size": 1,
      "price": "1011000000000000000000",
      "reserved": "",
      "salt": "0x4f4c8d0cb0e6a83bc64400f5dc5a10d0cc52caab798e6fa1625638dcc1fd01ee",
      "assetIds": []
    },
    {
      "x": 35,
      "y": 353,
      "size": 1,
      "price": "1011000000000000000000",
      "reserved": "",
      "salt": "0xca462a412ae838c21fa2ad1aa5692862ab4b6a1e87d323d093e5c82856afb477",
      "assetIds": []
    },
    {
      "x": 35,
      "y": 354,
      "size": 1,
      "price": "1011000000000000000000",
      "reserved": "",
      "salt": "0xe7b3fcdf654d04a40e5031ec73053925aeea4f56cbd4a0f23d90e5c0f0efe7a9",
      "assetIds": []
    },
    {
      "x": 35,
      "y": 355,
      "size": 1,
      "price": "1011000000000000000000",
      "reserved": "",
      "salt": "0xdaae0b88f073fe653060f961bf9bd899382a0614335c159ef588b899a8ba3e03",
      "assetIds": []
    },
    {
      "x": 35,
      "y": 356,
      "size": 1,
      "price": "1011000000000000000000",
      "reserved": "",
      "salt": "0xa7625f8fd9eae9454729df4515e557edf6baab615bc0c7dacaec994bdf4e1a36",
      "assetIds": []
    },
    {
      "x": 35,
      "y": 357,
      "size": 1,
      "price": "1011000000000000000000",
      "reserved": "",
      "salt": "0xe9fca59f62819ed2c317781d4378469f86a49fc7ae90829f6cb8961f8870561b",
      "assetIds": []
    },
    {
      "x": 35,
      "y": 358,
      "size": 1,
      "price": "1011000000000000000000",
      "reserved": "",
      "salt": "0x27d7ba3ac3d42f480c5972bbff0bf001da5b0fb63dd92ea54bc08a318b0af3ab",
      "assetIds": []
    },
    {
      "x": 35,
      "y": 359,
      "size": 1,
      "price": "1011000000000000000000",
      "reserved": "",
      "salt": "0xdb6c9be83b16acbb83e86e10db8226020539ba79a7b96611848608f7ca29b1c7",
      "assetIds": []
    },
    {
      "x": 35,
      "y": 384,
      "size": 1,
      "price": "1011000000000000000000",
      "reserved": "",
      "salt": "0xb7fdd77dee2fdb9b63dd79f8ff9db17abdefbf515ec00a0a5741b0bb6703e12c",
      "assetIds": []
    },
    {
      "x": 35,
      "y": 385,
      "size": 1,
      "price": "1011000000000000000000",
      "reserved": "",
      "salt": "0x7c1e514a5ba17c8056a7996dfad29e1b010a83dec7508f3c84c82fa39f0475ec",
      "assetIds": []
    },
    {
      "x": 35,
      "y": 386,
      "size": 1,
      "price": "1011000000000000000000",
      "reserved": "",
      "salt": "0xfa2117e8e9039d79c94dde8d8982ecf7e827265b842f185f80c4c59e163a8f5f",
      "assetIds": []
    },
    {
      "x": 35,
      "y": 387,
      "size": 1,
      "price": "1011000000000000000000",
      "reserved": "",
      "salt": "0x3780424f97446d75f4992a40ddfc3d9c3d7d06fe09247d661f08fc12efe6eccc",
      "assetIds": []
    },
    {
      "x": 35,
      "y": 388,
      "size": 1,
      "price": "1011000000000000000000",
      "reserved": "",
      "salt": "0x12bd06a96cfe2d58b94fdf3e3fd066e502e565c1ac6c7f2b573e53e146f63322",
      "assetIds": []
    },
    {
      "x": 35,
      "y": 389,
      "size": 1,
      "price": "1011000000000000000000",
      "reserved": "",
      "salt": "0xf3ec9bacee90ccddf830a821c7be9907f85a02185902eee7debfe76409f7e6d2",
      "assetIds": []
    },
    {
      "x": 35,
      "y": 390,
      "size": 1,
      "price": "1011000000000000000000",
      "reserved": "0x7a9fe22691c811ea339d9b73150e6911a5343dca",
      "salt": "0xc7833e7560ecbd8170821db0703e1ee670a3855aca484a41fd228f3fe1e36d5c",
      "assetIds": []
    },
    {
      "x": 35,
      "y": 391,
      "size": 1,
      "price": "1011000000000000000000",
      "reserved": "",
      "salt": "0x65a5c73179d89f32d0c922779fe5e1c6df7447dad9859361106cd5fae489e230",
      "assetIds": []
    },
    {
      "x": 35,
      "y": 392,
      "size": 1,
      "price": "4683000000000000000000",
      "reserved": "",
      "salt": "0x43df3f1314d6d72604ea40982bf2ccb817687319771c3101c6432cebab301c1c",
      "assetIds": [
        "55464657044963196816950587289035428064568320970692304673817341489687891546112",
        "55464657044963196816950587289035428064568320970692304673817341489687891546113",
        "55464657044963196816950587289035428064568320970692304673817341489687899934720",
        "55464657044963196816950587289035428064568320970692304673817341489687899934721",
        "55464657044963196816950587289035428064568320970692304673817341489687908321280"
      ]
    },
    {
      "x": 35,
      "y": 393,
      "size": 1,
      "price": "1011000000000000000000",
      "reserved": "",
      "salt": "0x9285441db77f977b7f0011c20ed1fe0b2b025f46ab16030bd14517ab181566ef",
      "assetIds": []
    },
    {
      "x": 35,
      "y": 394,
      "size": 1,
      "price": "1011000000000000000000",
      "reserved": "",
      "salt": "0x660997825e5ae6dd4cf3c8b02d3b3ea9638ce35c662f4f1ee4c3311df9ef8d8b",
      "assetIds": []
    },
    {
      "x": 35,
      "y": 395,
      "size": 1,
      "price": "1011000000000000000000",
      "reserved": "",
      "salt": "0x16df167826fd617eba2ca98444d1cd9aedb13c96de1e7bc4875558b9f5c1505d",
      "assetIds": []
    },
    {
      "x": 35,
      "y": 402,
      "size": 1,
      "price": "1011000000000000000000",
      "reserved": "",
      "salt": "0x92b1d1c565ab9900dfc66799c15fe82b47274d018ecf0ca346a38c0e6d5197a4",
      "assetIds": []
    },
    {
      "x": 35,
      "y": 403,
      "size": 1,
      "price": "1011000000000000000000",
      "reserved": "",
      "salt": "0xe2fdbcd8f916e80f9c80846237af8f2c1a7dbe1859e668efa4df2f3a4b416bc0",
      "assetIds": []
    },
    {
      "x": 35,
      "y": 404,
      "size": 1,
      "price": "1011000000000000000000",
      "reserved": "",
      "salt": "0xa91ad308660c62139be59c5467857acb4d8a92491c9160cacf95f8563ff63848",
      "assetIds": []
    },
    {
      "x": 35,
      "y": 405,
      "size": 1,
      "price": "1011000000000000000000",
      "reserved": "",
      "salt": "0x4f125c734a98539159c825a18aeaa8f073a0c50cbdfb130509a395eddc83fe08",
      "assetIds": []
    },
    {
      "x": 35,
      "y": 406,
      "size": 1,
      "price": "1011000000000000000000",
      "reserved": "",
      "salt": "0x398100603886f8eb2c72502dd0f1e5b483d893e72231b2a1f65678b016bdcb0a",
      "assetIds": []
    },
    {
      "x": 35,
      "y": 407,
      "size": 1,
      "price": "1011000000000000000000",
      "reserved": "",
      "salt": "0xa39a40e000aa7b48e5b0f4abefaaed300201b45d66969647aada2405e74cf44a",
      "assetIds": []
    },
    {
      "x": 36,
      "y": 346,
      "size": 1,
      "price": "1011000000000000000000",
      "reserved": "",
      "salt": "0x33833995625627a95b8ce34ce42df4a3c766d89368bbc807f3bd02dd52917307",
      "assetIds": []
    },
    {
      "x": 36,
      "y": 347,
      "size": 1,
      "price": "1011000000000000000000",
      "reserved": "",
      "salt": "0x91c9103e79cece2d6553c526d0d9f5a4ef5e353f7ca236e16c04e2d5b295c110",
      "assetIds": []
    },
    {
      "x": 36,
      "y": 348,
      "size": 1,
      "price": "1011000000000000000000",
      "reserved": "",
      "salt": "0x4d4656328d2fa2bfa33938cddb9e3e072bfb1bc71cca6531b62087c426f50856",
      "assetIds": []
    },
    {
      "x": 36,
      "y": 349,
      "size": 1,
      "price": "1011000000000000000000",
      "reserved": "",
      "salt": "0x18ef9eb85a6c7ef9990af196df6b225b9650abbf75290a8ca9f7bad9899d2f6c",
      "assetIds": []
    },
    {
      "x": 36,
      "y": 350,
      "size": 1,
      "price": "1011000000000000000000",
      "reserved": "",
      "salt": "0xf22f92b3e8114623990c15c0823a0e10bf898bb8aafade4a6a9cc24f3f458110",
      "assetIds": []
    },
    {
      "x": 36,
      "y": 351,
      "size": 1,
      "price": "1011000000000000000000",
      "reserved": "",
      "salt": "0x46b8af239ec4033b22a5b730f29af6d713fd470873f8f824142da23b1453e4f1",
      "assetIds": []
    },
    {
      "x": 36,
      "y": 352,
      "size": 1,
      "price": "1011000000000000000000",
      "reserved": "",
      "salt": "0xfe99158393de4c5555cc98ff903963f399f6496d6c68172771c71470c226f7a2",
      "assetIds": []
    },
    {
      "x": 36,
      "y": 353,
      "size": 1,
      "price": "1011000000000000000000",
      "reserved": "",
      "salt": "0x9ad22c65aca0e393bf4cbb75ba3077b9d5676969f9a7601736d391b3d7475025",
      "assetIds": []
    },
    {
      "x": 37,
      "y": 346,
      "size": 1,
      "price": "1011000000000000000000",
      "reserved": "",
      "salt": "0x208840ce4acdbf0522fc540d35ad167caab592a37334150477877b59ba2cfba0",
      "assetIds": []
    },
    {
      "x": 37,
      "y": 347,
      "size": 1,
      "price": "1011000000000000000000",
      "reserved": "",
      "salt": "0x8c70f35c1ca267ddcd59f9ecfc04e1f429217df9955b156d007d48ce66bfdb19",
      "assetIds": []
    },
    {
      "x": 37,
      "y": 348,
      "size": 1,
      "price": "1011000000000000000000",
      "reserved": "",
      "salt": "0xcf75ec4a500023b629ffd46627937faa92a3ca701ef42f745b6e3e5b87a64d00",
      "assetIds": []
    },
    {
      "x": 37,
      "y": 349,
      "size": 1,
      "price": "1011000000000000000000",
      "reserved": "",
      "salt": "0x2948dbe983ecef3abe206383d67e1ad72fc3cb2ea09f9b848ba6173d67d5eb68",
      "assetIds": []
    },
    {
      "x": 37,
      "y": 350,
      "size": 1,
      "price": "1011000000000000000000",
      "reserved": "",
      "salt": "0xf439d01df71e5394a991d6d36a3a3411338015d12b78b74bef99e3ed1d31e331",
      "assetIds": []
    },
    {
      "x": 37,
      "y": 351,
      "size": 1,
      "price": "1011000000000000000000",
      "reserved": "0x7a9fe22691c811ea339d9b73150e6911a5343dca",
      "salt": "0x34b5f462e7056fb23b535328ceb187045db1daed85b2e67ab638681f6cbf032c",
      "assetIds": []
    },
    {
      "x": 37,
      "y": 352,
      "size": 1,
      "price": "1011000000000000000000",
      "reserved": "",
      "salt": "0x03968c935d680e0294a4a6fb03fb874af624b05ef40224fdc3f2d81842053673",
      "assetIds": []
    },
    {
      "x": 37,
      "y": 353,
      "size": 1,
      "price": "1011000000000000000000",
      "reserved": "",
      "salt": "0xf849bcd05995912848ae8dea81b4eed724102d8abc92cc65a80c3943ad03ebc2",
      "assetIds": []
    },
    {
      "x": 38,
      "y": 346,
      "size": 1,
      "price": "1011000000000000000000",
      "reserved": "",
      "salt": "0xa67f47d419f75419c82d3e1b9253e9dce13038689a5fafc76c83a62d2d763ea4",
      "assetIds": []
    },
    {
      "x": 38,
      "y": 347,
      "size": 1,
      "price": "1011000000000000000000",
      "reserved": "0x7a9fe22691c811ea339d9b73150e6911a5343dca",
      "salt": "0xdd61dad249376a0001d549b6937d75b3074cc652191fdf30edac0691cc25cf00",
      "assetIds": []
    },
    {
      "x": 38,
      "y": 348,
      "size": 1,
      "price": "1011000000000000000000",
      "reserved": "",
      "salt": "0x2aade09db11b93e20e2464bc966dbcb01a9cc2fcce1d491f3bf56ce50773e6f7",
      "assetIds": []
    },
    {
      "x": 38,
      "y": 349,
      "size": 1,
      "price": "1011000000000000000000",
      "reserved": "",
      "salt": "0x4442f4b9ed2789871a78f359430880f147f6a24c057a7a255a49fbee6b612adc",
      "assetIds": []
    },
    {
      "x": 38,
      "y": 350,
      "size": 1,
      "price": "1011000000000000000000",
      "reserved": "",
      "salt": "0x3ac88cc652bf0a684832101ad3257f7204849eb8e3d0a45a576a7cc83dc78ce7",
      "assetIds": []
    },
    {
      "x": 38,
      "y": 351,
      "size": 1,
      "price": "1011000000000000000000",
      "reserved": "",
      "salt": "0x3644a7d20d220884cc4c46c3c864786f3b95aabbd142aeba42b8385a81a4d6db",
      "assetIds": []
    },
    {
      "x": 38,
      "y": 352,
      "size": 1,
      "price": "1011000000000000000000",
      "reserved": "",
      "salt": "0xe85c89b6e39d5a158cdb41f6bec5db2223ce88e5d5d63d7da57b6db3915e8846",
      "assetIds": []
    },
    {
      "x": 38,
      "y": 353,
      "size": 1,
      "price": "1011000000000000000000",
      "reserved": "0x7a9fe22691c811ea339d9b73150e6911a5343dca",
      "salt": "0x3b393ba7dd57d62eb94fbc9c9587cb03c541e2456c39d83a8aadc393ef763084",
      "assetIds": []
    },
    {
      "x": 39,
      "y": 348,
      "size": 1,
      "price": "1011000000000000000000",
      "reserved": "",
      "salt": "0x106e80f78eae67d296e20e47e29af3d1fd17fb7094f2e15d91a8c3dedf7f10b5",
      "assetIds": []
    },
    {
      "x": 39,
      "y": 349,
      "size": 1,
      "price": "1011000000000000000000",
      "reserved": "",
      "salt": "0x685bdd968ff7f52db11fb34ccdecf6f7f93653bac27c31e0bd4e64eed834734b",
      "assetIds": []
    },
    {
      "x": 39,
      "y": 350,
      "size": 1,
      "price": "1011000000000000000000",
      "reserved": "",
      "salt": "0x3dc75f1de5de379a2a12c1e9f417d97135539ec66d135856713fbeb3d0d90c41",
      "assetIds": []
    },
    {
      "x": 39,
      "y": 351,
      "size": 1,
      "price": "1011000000000000000000",
      "reserved": "",
      "salt": "0xde9f22b2f661384c4bf57c4d663455a0de9e471ad9957aa25de23e3596197eb6",
      "assetIds": []
    },
    {
      "x": 39,
      "y": 352,
      "size": 1,
      "price": "1011000000000000000000",
      "reserved": "",
      "salt": "0xb2919ecea1ea6881622a79a8ce65d98017ce446ebb44afcfd08ffc2765271a68",
      "assetIds": []
    },
    {
      "x": 39,
      "y": 353,
      "size": 1,
      "price": "1011000000000000000000",
      "reserved": "",
      "salt": "0xea28aab73814c2285e4606721b10e13242cb678d2213df685b1d679e372e2c02",
      "assetIds": []
    },
    {
      "x": 40,
      "y": 348,
      "size": 1,
      "price": "1011000000000000000000",
      "reserved": "",
      "salt": "0x07ded184e191a247afebd7a0ca094e5b28b965b7c15c9f9a05ef426fb01f8afc",
      "assetIds": []
    },
    {
      "x": 40,
      "y": 349,
      "size": 1,
      "price": "1011000000000000000000",
      "reserved": "",
      "salt": "0x456d7b19f19704a92c68cf2954a77190b073faf004c765422e6c5c2fc303c9e4",
      "assetIds": []
    },
    {
      "x": 40,
      "y": 350,
      "size": 1,
      "price": "1011000000000000000000",
      "reserved": "",
      "salt": "0xb7cc4c9fe2238ca112e35cac59666178668157e895af8be462c454aab005bc94",
      "assetIds": []
    },
    {
      "x": 40,
      "y": 351,
      "size": 1,
      "price": "1011000000000000000000",
      "reserved": "",
      "salt": "0x2bf27057f9532201cf649d9d0200ba1e3bf2f67bba946fb712f8c08f9c3b2921",
      "assetIds": []
    },
    {
      "x": 40,
      "y": 352,
      "size": 1,
      "price": "1011000000000000000000",
      "reserved": "",
      "salt": "0x8ce0b9a53c7258cea9daf22ccac3334d92251a95744f15bfcb7ee6f98831ec85",
      "assetIds": []
    },
    {
      "x": 40,
      "y": 353,
      "size": 1,
      "price": "1011000000000000000000",
      "reserved": "",
      "salt": "0x6ea0c8b7152b9d31489449e580bafb5c40222da8dabf904b610c7ac0b08fe8d2",
      "assetIds": []
    },
    {
      "x": 41,
      "y": 348,
      "size": 1,
      "price": "1011000000000000000000",
      "reserved": "",
      "salt": "0xc042fc11363776c453872841ce3d846d93f90b80bd1a9058ca29885bcc359c33",
      "assetIds": []
    },
    {
      "x": 41,
      "y": 349,
      "size": 1,
      "price": "1011000000000000000000",
      "reserved": "0x7a9fe22691c811ea339d9b73150e6911a5343dca",
      "salt": "0x468bf0e1dc4591ff6153858d27bd101a2732a6690ab63360348cf5abe366e209",
      "assetIds": []
    },
    {
      "x": 41,
      "y": 350,
      "size": 1,
      "price": "1011000000000000000000",
      "reserved": "",
      "salt": "0xdb5adb5341fd12454d26f9b28e3f102ed6fb308990b77c03319f63f3aac2d8d7",
      "assetIds": []
    },
    {
      "x": 41,
      "y": 351,
      "size": 1,
      "price": "1011000000000000000000",
      "reserved": "",
      "salt": "0xcb6e0a9cdf3f1d20e30ac79a4777a92a02b7604cefec544a834f39c3587c243f",
      "assetIds": []
    },
    {
      "x": 41,
      "y": 352,
      "size": 1,
      "price": "1011000000000000000000",
      "reserved": "",
      "salt": "0x67e6f0cdec9b0b72fa7404dfc79fa8eaa118e98f68a138ce4d414e90a42ebcfe",
      "assetIds": []
    },
    {
      "x": 41,
      "y": 353,
      "size": 1,
      "price": "1011000000000000000000",
      "reserved": "",
      "salt": "0xbcbbefa93a27c86e690506c17cf72ce61906ccf0e0887513cad519ac15063085",
      "assetIds": []
    },
    {
      "x": 42,
      "y": 351,
      "size": 1,
      "price": "1011000000000000000000",
      "reserved": "",
      "salt": "0xd52a6d4e1e094409919176817d13af015af4d71c8cfcaef90b62fc8cfa87f026",
      "assetIds": []
    },
    {
      "x": 42,
      "y": 352,
      "size": 1,
      "price": "1011000000000000000000",
      "reserved": "",
      "salt": "0xf63a7d69308860be48a5b686c9d5d3bdc5aa2caa4224556d85fdbdd266615f07",
      "assetIds": []
    },
    {
      "x": 42,
      "y": 353,
      "size": 1,
      "price": "1011000000000000000000",
      "reserved": "",
      "salt": "0x75e23764e41b37a97e61ddec405ee0ae83cadafebaf9e46188242c8fd5af5d49",
      "assetIds": []
    },
    {
      "x": 42,
      "y": 354,
      "size": 1,
      "price": "1011000000000000000000",
      "reserved": "",
      "salt": "0xd3e7b439a558524437885fc9cd2cb635fd0d73d135402c463d4a077dc7f103ae",
      "assetIds": []
    },
    {
      "x": 42,
      "y": 355,
      "size": 1,
      "price": "1011000000000000000000",
      "reserved": "",
      "salt": "0xa143a7999c524a225a0ec434d986f6f3c66489ab76be1897ad9868a2dcf237b5",
      "assetIds": []
    },
    {
      "x": 42,
      "y": 356,
      "size": 1,
      "price": "1011000000000000000000",
      "reserved": "",
      "salt": "0x7d94ca06887975b4f6b37ee229e924ab3d9e9d191746e1eb5cf1cd917c39d5a3",
      "assetIds": []
    },
    {
      "x": 42,
      "y": 357,
      "size": 1,
      "price": "1011000000000000000000",
      "reserved": "",
      "salt": "0x2988e8500762397b28c1ef8bf65a53294a15cfb4f32f5937e05d1eed4d6af52f",
      "assetIds": []
    },
    {
      "x": 42,
      "y": 358,
      "size": 1,
      "price": "1011000000000000000000",
      "reserved": "",
      "salt": "0x1596e913fdfeef554d8550356c709acc4a21ebc60a96bcb37c049d5520108e97",
      "assetIds": []
    },
    {
      "x": 42,
      "y": 359,
      "size": 1,
      "price": "1011000000000000000000",
      "reserved": "",
      "salt": "0x41314a19255cb671137a0702dc891559df6a4e91f396f4cfcd238888e09a62b4",
      "assetIds": []
    },
    {
      "x": 43,
      "y": 351,
      "size": 1,
      "price": "1011000000000000000000",
      "reserved": "",
      "salt": "0x4410bb62a4d8e0d6b1b27a1b741b652f4536e9f4bcef58aa55a12799904a1799",
      "assetIds": []
    },
    {
      "x": 43,
      "y": 352,
      "size": 1,
      "price": "1011000000000000000000",
      "reserved": "",
      "salt": "0xea6da849f8285eb7f5d48a5b6541c485a402e1b2984fac4e4873fed6d62b70c4",
      "assetIds": []
    },
    {
      "x": 43,
      "y": 353,
      "size": 1,
      "price": "1011000000000000000000",
      "reserved": "",
      "salt": "0x43721b18060c043d1e336e4f869f1b52467b9a1712ec375fc203de12844d50dc",
      "assetIds": []
    },
    {
      "x": 43,
      "y": 354,
      "size": 1,
      "price": "1011000000000000000000",
      "reserved": "",
      "salt": "0xeb8b8fb762049b62f725272646816bb8770b27de4ffc5dcd339368d83d3c5b6d",
      "assetIds": []
    },
    {
      "x": 43,
      "y": 355,
      "size": 1,
      "price": "1011000000000000000000",
      "reserved": "",
      "salt": "0xc156d2de99429210e8bc391fb793d5a9bf26d71d5df8b08cfd2c79b0520293a1",
      "assetIds": []
    },
    {
      "x": 43,
      "y": 356,
      "size": 1,
      "price": "1011000000000000000000",
      "reserved": "",
      "salt": "0xd506d53bec4d8e8f9d8f939f2d186a8a024f146bf7d218ef8026520b32bd8d53",
      "assetIds": []
    },
    {
      "x": 43,
      "y": 357,
      "size": 1,
      "price": "1011000000000000000000",
      "reserved": "",
      "salt": "0x547a695d2f973d1ffafe47096caa363f06aaeeb3af133049e1ab3ca65bfc7b8d",
      "assetIds": []
    },
    {
      "x": 43,
      "y": 358,
      "size": 1,
      "price": "1011000000000000000000",
      "reserved": "",
      "salt": "0x18338257a3ac335581a8d644e89286d6972088d933ccc830b83851d801c62c27",
      "assetIds": []
    },
    {
      "x": 43,
      "y": 359,
      "size": 1,
      "price": "1011000000000000000000",
      "reserved": "",
      "salt": "0xe14de71fa1e1f723de76717f83a9e8f794c00ebcc6719ff9dd9672065acbd966",
      "assetIds": []
    },
    {
      "x": 44,
      "y": 351,
      "size": 1,
      "price": "4683000000000000000000",
      "reserved": "",
      "salt": "0x0e393ea6dcaa9d62a234050489880eacad91021906a6c0416ad836d2a754268a",
      "assetIds": [
        "55464657044963196816950587289035428064568320970692304673817341489687891546112",
        "55464657044963196816950587289035428064568320970692304673817341489687891546113",
        "55464657044963196816950587289035428064568320970692304673817341489687899934720",
        "55464657044963196816950587289035428064568320970692304673817341489687899934721",
        "55464657044963196816950587289035428064568320970692304673817341489687908321280"
      ]
    },
    {
      "x": 44,
      "y": 352,
      "size": 1,
      "price": "4683000000000000000000",
      "reserved": "",
      "salt": "0xbdc9b783d54a58e41f176b0286cb4e4062a767177dfed1a5ac289e39bcda45ef",
      "assetIds": [
        "55464657044963196816950587289035428064568320970692304673817341489687891546112",
        "55464657044963196816950587289035428064568320970692304673817341489687891546113",
        "55464657044963196816950587289035428064568320970692304673817341489687899934720",
        "55464657044963196816950587289035428064568320970692304673817341489687899934721",
        "55464657044963196816950587289035428064568320970692304673817341489687908321280"
      ]
    },
    {
      "x": 44,
      "y": 353,
      "size": 1,
      "price": "1011000000000000000000",
      "reserved": "0x7a9fe22691c811ea339d9b73150e6911a5343dca",
      "salt": "0x7f0a5ac67d3ad2dd8816cf9284f876bebeab9ae20a440178066dc647cfcf2707",
      "assetIds": []
    },
    {
      "x": 44,
      "y": 354,
      "size": 1,
      "price": "4683000000000000000000",
      "reserved": "",
      "salt": "0x467d2d6e253e85371450f3106cbf0da25c9a3148429ee072edbd165dd9a6b74c",
      "assetIds": [
        "55464657044963196816950587289035428064568320970692304673817341489687891546112",
        "55464657044963196816950587289035428064568320970692304673817341489687891546113",
        "55464657044963196816950587289035428064568320970692304673817341489687899934720",
        "55464657044963196816950587289035428064568320970692304673817341489687899934721",
        "55464657044963196816950587289035428064568320970692304673817341489687908321280"
      ]
    },
    {
      "x": 44,
      "y": 355,
      "size": 1,
      "price": "1011000000000000000000",
      "reserved": "0x7a9fe22691c811ea339d9b73150e6911a5343dca",
      "salt": "0x36900eb96edbcd3bfb2cf6bf36abea6716088301af903593ad615d2c43ccc4be",
      "assetIds": []
    },
    {
      "x": 44,
      "y": 356,
      "size": 1,
      "price": "1011000000000000000000",
      "reserved": "",
      "salt": "0x840cab10f98f41b94c3c6876095c763916d368994cd100ca6b097d6e7f95005b",
      "assetIds": []
    },
    {
      "x": 44,
      "y": 357,
      "size": 1,
      "price": "1011000000000000000000",
      "reserved": "",
      "salt": "0xab2995e9e59f8b47560a590a70fdb040d8966feffafafbc56b873696ec838b79",
      "assetIds": []
    },
    {
      "x": 44,
      "y": 358,
      "size": 1,
      "price": "1011000000000000000000",
      "reserved": "",
      "salt": "0x47549cf6eb6443ebc2d395c87f979da02a92668619ae64e2e6f7eb71e5b2e617",
      "assetIds": []
    },
    {
      "x": 44,
      "y": 359,
      "size": 1,
      "price": "1011000000000000000000",
      "reserved": "",
      "salt": "0x2a26553f74765d41c091980aa623b3820f25a13ac748a7cf5251956e964679fd",
      "assetIds": []
    },
    {
      "x": 45,
      "y": 351,
      "size": 1,
      "price": "4683000000000000000000",
      "reserved": "",
      "salt": "0xfb4a5264f555243ccf87cb6ae83846ce5a2ac892931ee8e967e85d4da67c99c4",
      "assetIds": [
        "55464657044963196816950587289035428064568320970692304673817341489687891546112",
        "55464657044963196816950587289035428064568320970692304673817341489687891546113",
        "55464657044963196816950587289035428064568320970692304673817341489687899934720",
        "55464657044963196816950587289035428064568320970692304673817341489687899934721",
        "55464657044963196816950587289035428064568320970692304673817341489687908321280"
      ]
    },
    {
      "x": 45,
      "y": 352,
      "size": 1,
      "price": "4683000000000000000000",
      "reserved": "",
      "salt": "0x7a75f4c2611ca7e99215acca3ae888fdd4c2fbc23af4f704e4d04128758ee68b",
      "assetIds": [
        "55464657044963196816950587289035428064568320970692304673817341489687891546112",
        "55464657044963196816950587289035428064568320970692304673817341489687891546113",
        "55464657044963196816950587289035428064568320970692304673817341489687899934720",
        "55464657044963196816950587289035428064568320970692304673817341489687899934721",
        "55464657044963196816950587289035428064568320970692304673817341489687908321280"
      ]
    },
    {
      "x": 45,
      "y": 353,
      "size": 1,
      "price": "4683000000000000000000",
      "reserved": "",
      "salt": "0xd9c253766fe1640f74ecbfdb3c90481b605498085147c5a770800023cc6349c5",
      "assetIds": [
        "55464657044963196816950587289035428064568320970692304673817341489687891546112",
        "55464657044963196816950587289035428064568320970692304673817341489687891546113",
        "55464657044963196816950587289035428064568320970692304673817341489687899934720",
        "55464657044963196816950587289035428064568320970692304673817341489687899934721",
        "55464657044963196816950587289035428064568320970692304673817341489687908321280"
      ]
    },
    {
      "x": 45,
      "y": 354,
      "size": 1,
      "price": "4683000000000000000000",
      "reserved": "",
      "salt": "0x22e2350f6a6e0b5c614b0bb31db177f4417c30af9c0a243e3ee28c5af024033f",
      "assetIds": [
        "55464657044963196816950587289035428064568320970692304673817341489687891546112",
        "55464657044963196816950587289035428064568320970692304673817341489687891546113",
        "55464657044963196816950587289035428064568320970692304673817341489687899934720",
        "55464657044963196816950587289035428064568320970692304673817341489687899934721",
        "55464657044963196816950587289035428064568320970692304673817341489687908321280"
      ]
    },
    {
      "x": 45,
      "y": 355,
      "size": 1,
      "price": "4683000000000000000000",
      "reserved": "",
      "salt": "0x5c6b0ff0c7dd276dc62e7eeacf2e0bb02a4a0f82f4985f8660b279f684180bdf",
      "assetIds": [
        "55464657044963196816950587289035428064568320970692304673817341489687891546112",
        "55464657044963196816950587289035428064568320970692304673817341489687891546113",
        "55464657044963196816950587289035428064568320970692304673817341489687899934720",
        "55464657044963196816950587289035428064568320970692304673817341489687899934721",
        "55464657044963196816950587289035428064568320970692304673817341489687908321280"
      ]
    },
    {
      "x": 45,
      "y": 356,
      "size": 1,
      "price": "1011000000000000000000",
      "reserved": "",
      "salt": "0xfaf5c01679fecdf60c05ff25466cf75eb4d60e72ea24e7c65f0ee4fcf5a4e312",
      "assetIds": []
    },
    {
      "x": 45,
      "y": 357,
      "size": 1,
      "price": "1011000000000000000000",
      "reserved": "",
      "salt": "0xae3d1aad8d1019cdd03679224ae221558a1af55dca47ca311e6238960ee572a0",
      "assetIds": []
    },
    {
      "x": 45,
      "y": 358,
      "size": 1,
      "price": "1011000000000000000000",
      "reserved": "",
      "salt": "0x62dce64a2d73675db27ce6800b40487dad4657be733f84f34b36891f726c1011",
      "assetIds": []
    },
    {
      "x": 45,
      "y": 359,
      "size": 1,
      "price": "1011000000000000000000",
      "reserved": "",
      "salt": "0xe9406505e2731bcaa4960fd8799f3f8dab7ba1fb20afc56e1f02bd3de869485c",
      "assetIds": []
    },
    {
      "x": 46,
      "y": 351,
      "size": 1,
      "price": "4683000000000000000000",
      "reserved": "",
      "salt": "0x8d1626917a856920ff7b555253e819cb692dc223f8702c74baf9bd85d475409a",
      "assetIds": [
        "55464657044963196816950587289035428064568320970692304673817341489687891546112",
        "55464657044963196816950587289035428064568320970692304673817341489687891546113",
        "55464657044963196816950587289035428064568320970692304673817341489687899934720",
        "55464657044963196816950587289035428064568320970692304673817341489687899934721",
        "55464657044963196816950587289035428064568320970692304673817341489687908321280"
      ]
    },
    {
      "x": 46,
      "y": 352,
      "size": 1,
      "price": "4683000000000000000000",
      "reserved": "",
      "salt": "0x37aa9774a812c2743cef888a4d68e22167537c1502321b1047305c26a269ead1",
      "assetIds": [
        "55464657044963196816950587289035428064568320970692304673817341489687891546112",
        "55464657044963196816950587289035428064568320970692304673817341489687891546113",
        "55464657044963196816950587289035428064568320970692304673817341489687899934720",
        "55464657044963196816950587289035428064568320970692304673817341489687899934721",
        "55464657044963196816950587289035428064568320970692304673817341489687908321280"
      ]
    },
    {
      "x": 46,
      "y": 353,
      "size": 1,
      "price": "4683000000000000000000",
      "reserved": "",
      "salt": "0x7b8dd544d6c1eff9df0f2904f4de3cee0b7cd30787a41c0e12728a80756978a4",
      "assetIds": [
        "55464657044963196816950587289035428064568320970692304673817341489687891546112",
        "55464657044963196816950587289035428064568320970692304673817341489687891546113",
        "55464657044963196816950587289035428064568320970692304673817341489687899934720",
        "55464657044963196816950587289035428064568320970692304673817341489687899934721",
        "55464657044963196816950587289035428064568320970692304673817341489687908321280"
      ]
    },
    {
      "x": 46,
      "y": 354,
      "size": 1,
      "price": "4683000000000000000000",
      "reserved": "",
      "salt": "0x2886e5bce41e164d2e858524f232051b66a9f285c4fe3a678d0a4a44db75fbd8",
      "assetIds": [
        "55464657044963196816950587289035428064568320970692304673817341489687891546112",
        "55464657044963196816950587289035428064568320970692304673817341489687891546113",
        "55464657044963196816950587289035428064568320970692304673817341489687899934720",
        "55464657044963196816950587289035428064568320970692304673817341489687899934721",
        "55464657044963196816950587289035428064568320970692304673817341489687908321280"
      ]
    },
    {
      "x": 46,
      "y": 355,
      "size": 1,
      "price": "4683000000000000000000",
      "reserved": "",
      "salt": "0x2e126dd39e2d0ebfc94a221445205799ff4897b07666ea1b1e081154a694f78d",
      "assetIds": [
        "55464657044963196816950587289035428064568320970692304673817341489687891546112",
        "55464657044963196816950587289035428064568320970692304673817341489687891546113",
        "55464657044963196816950587289035428064568320970692304673817341489687899934720",
        "55464657044963196816950587289035428064568320970692304673817341489687899934721",
        "55464657044963196816950587289035428064568320970692304673817341489687908321280"
      ]
    },
    {
      "x": 46,
      "y": 356,
      "size": 1,
      "price": "1011000000000000000000",
      "reserved": "",
      "salt": "0xb5156aeba69d022679665b5e13fa7246dddea9504c205748dff3956ff48dd9e3",
      "assetIds": []
    },
    {
      "x": 46,
      "y": 357,
      "size": 1,
      "price": "1011000000000000000000",
      "reserved": "",
      "salt": "0xe513a77500f893fedf2be2180aa9e0c041e1cbcb9d544d31c73e975fc5c77c6f",
      "assetIds": []
    },
    {
      "x": 46,
      "y": 358,
      "size": 1,
      "price": "1011000000000000000000",
      "reserved": "",
      "salt": "0x0dccc38b6beac173b67d013658ed584c202f2c896c12e7be2636181088a20aab",
      "assetIds": []
    },
    {
      "x": 46,
      "y": 359,
      "size": 1,
      "price": "1011000000000000000000",
      "reserved": "",
      "salt": "0xe3f7dccc9971be4b4889d55bc947d93ef52e12839c4a38620d2bcea6f81bf203",
      "assetIds": []
    },
    {
      "x": 47,
      "y": 351,
      "size": 1,
      "price": "4683000000000000000000",
      "reserved": "",
      "salt": "0x1a5c3cee2dd73b877a91e8a0f1d586c787a8b9d33cd79348f21905d0b4dfd829",
      "assetIds": [
        "55464657044963196816950587289035428064568320970692304673817341489687891546112",
        "55464657044963196816950587289035428064568320970692304673817341489687891546113",
        "55464657044963196816950587289035428064568320970692304673817341489687899934720",
        "55464657044963196816950587289035428064568320970692304673817341489687899934721",
        "55464657044963196816950587289035428064568320970692304673817341489687908321280"
      ]
    },
    {
      "x": 47,
      "y": 352,
      "size": 1,
      "price": "4683000000000000000000",
      "reserved": "",
      "salt": "0x7b9e058234c59afe9bdbbca7fb11989e523c486c50f3122a0879946d5e02f08c",
      "assetIds": [
        "55464657044963196816950587289035428064568320970692304673817341489687891546112",
        "55464657044963196816950587289035428064568320970692304673817341489687891546113",
        "55464657044963196816950587289035428064568320970692304673817341489687899934720",
        "55464657044963196816950587289035428064568320970692304673817341489687899934721",
        "55464657044963196816950587289035428064568320970692304673817341489687908321280"
      ]
    },
    {
      "x": 47,
      "y": 353,
      "size": 1,
      "price": "4683000000000000000000",
      "reserved": "",
      "salt": "0xb0aa52e8583b3a104a7cec539c55106caa473af34929742f052e621bf65818a8",
      "assetIds": [
        "55464657044963196816950587289035428064568320970692304673817341489687891546112",
        "55464657044963196816950587289035428064568320970692304673817341489687891546113",
        "55464657044963196816950587289035428064568320970692304673817341489687899934720",
        "55464657044963196816950587289035428064568320970692304673817341489687899934721",
        "55464657044963196816950587289035428064568320970692304673817341489687908321280"
      ]
    },
    {
      "x": 47,
      "y": 354,
      "size": 1,
      "price": "4683000000000000000000",
      "reserved": "",
      "salt": "0x9f7828ed1904080a6579f87ba8f71a6e143a2abb0298b50b963d11810fc9c0b3",
      "assetIds": [
        "55464657044963196816950587289035428064568320970692304673817341489687891546112",
        "55464657044963196816950587289035428064568320970692304673817341489687891546113",
        "55464657044963196816950587289035428064568320970692304673817341489687899934720",
        "55464657044963196816950587289035428064568320970692304673817341489687899934721",
        "55464657044963196816950587289035428064568320970692304673817341489687908321280"
      ]
    },
    {
      "x": 47,
      "y": 355,
      "size": 1,
      "price": "4683000000000000000000",
      "reserved": "",
      "salt": "0x8a3f929545f60f5f72f6ac92da3798bf0cd4aed3c2125d6711277d44a8b6ea45",
      "assetIds": [
        "55464657044963196816950587289035428064568320970692304673817341489687891546112",
        "55464657044963196816950587289035428064568320970692304673817341489687891546113",
        "55464657044963196816950587289035428064568320970692304673817341489687899934720",
        "55464657044963196816950587289035428064568320970692304673817341489687899934721",
        "55464657044963196816950587289035428064568320970692304673817341489687908321280"
      ]
    },
    {
      "x": 47,
      "y": 356,
      "size": 1,
      "price": "1011000000000000000000",
      "reserved": "",
      "salt": "0xe194fcd7023d476e368fece584aa23e719c3766928cb255ae5ce544bdbd5553f",
      "assetIds": []
    },
    {
      "x": 47,
      "y": 357,
      "size": 1,
      "price": "1011000000000000000000",
      "reserved": "",
      "salt": "0x4c0504a6eb8085969c4dbaf835bc8bb4021507df34c62d10bdd064212e74e00f",
      "assetIds": []
    },
    {
      "x": 47,
      "y": 358,
      "size": 1,
      "price": "1011000000000000000000",
      "reserved": "",
      "salt": "0x7cf2898c29446dfd771a67ef89d182a3c22088f08b9a86344cdc4a7030a6c680",
      "assetIds": []
    },
    {
      "x": 47,
      "y": 359,
      "size": 1,
      "price": "1011000000000000000000",
      "reserved": "",
      "salt": "0x273cb7226c5fa46b85cea31047852a96ef74e5f72fc96cf5f8606bfd1228b52b",
      "assetIds": []
    },
    {
      "x": 54,
      "y": 348,
      "size": 1,
      "price": "4683000000000000000000",
      "reserved": "",
      "salt": "0x3981dd20026f326d812757aeff78e1733b4d5fcc8c9b5b4fa45ee65cdfc15bac",
      "assetIds": [
        "55464657044963196816950587289035428064568320970692304673817341489687891546112",
        "55464657044963196816950587289035428064568320970692304673817341489687891546113",
        "55464657044963196816950587289035428064568320970692304673817341489687899934720",
        "55464657044963196816950587289035428064568320970692304673817341489687899934721",
        "55464657044963196816950587289035428064568320970692304673817341489687908321280"
      ]
    },
    {
      "x": 54,
      "y": 349,
      "size": 1,
      "price": "4683000000000000000000",
      "reserved": "",
      "salt": "0xea4bec5f2e54dd8b9cfce4b610c315347aa0ef597a1a85bd35ca18618c3561d8",
      "assetIds": [
        "55464657044963196816950587289035428064568320970692304673817341489687891546112",
        "55464657044963196816950587289035428064568320970692304673817341489687891546113",
        "55464657044963196816950587289035428064568320970692304673817341489687899934720",
        "55464657044963196816950587289035428064568320970692304673817341489687899934721",
        "55464657044963196816950587289035428064568320970692304673817341489687908321280"
      ]
    },
    {
      "x": 54,
      "y": 350,
      "size": 1,
      "price": "4683000000000000000000",
      "reserved": "",
      "salt": "0x4b2d671988199c9f81477780ba1734252aa995d22ca59f78aaec662904e550e6",
      "assetIds": [
        "55464657044963196816950587289035428064568320970692304673817341489687891546112",
        "55464657044963196816950587289035428064568320970692304673817341489687891546113",
        "55464657044963196816950587289035428064568320970692304673817341489687899934720",
        "55464657044963196816950587289035428064568320970692304673817341489687899934721",
        "55464657044963196816950587289035428064568320970692304673817341489687908321280"
      ]
    },
    {
      "x": 54,
      "y": 351,
      "size": 1,
      "price": "4683000000000000000000",
      "reserved": "",
      "salt": "0xecbb23680284cadd8d0c3e3a10e7f58b31314ee56c0fd3b51670fea87f1cc59b",
      "assetIds": [
        "55464657044963196816950587289035428064568320970692304673817341489687891546112",
        "55464657044963196816950587289035428064568320970692304673817341489687891546113",
        "55464657044963196816950587289035428064568320970692304673817341489687899934720",
        "55464657044963196816950587289035428064568320970692304673817341489687899934721",
        "55464657044963196816950587289035428064568320970692304673817341489687908321280"
      ]
    },
    {
      "x": 54,
      "y": 352,
      "size": 1,
      "price": "4683000000000000000000",
      "reserved": "",
      "salt": "0x67a20d672679f18865fe41a1f001f6c61edd8e0e2d10f4c2c1c2d86d105a1fcd",
      "assetIds": [
        "55464657044963196816950587289035428064568320970692304673817341489687891546112",
        "55464657044963196816950587289035428064568320970692304673817341489687891546113",
        "55464657044963196816950587289035428064568320970692304673817341489687899934720",
        "55464657044963196816950587289035428064568320970692304673817341489687899934721",
        "55464657044963196816950587289035428064568320970692304673817341489687908321280"
      ]
    },
    {
      "x": 54,
      "y": 353,
      "size": 1,
      "price": "4683000000000000000000",
      "reserved": "",
      "salt": "0x1a272c5e9d527c0287c2dfbdad6e4ca545de9d516f934f4e24e00eda44ead5c7",
      "assetIds": [
        "55464657044963196816950587289035428064568320970692304673817341489687891546112",
        "55464657044963196816950587289035428064568320970692304673817341489687891546113",
        "55464657044963196816950587289035428064568320970692304673817341489687899934720",
        "55464657044963196816950587289035428064568320970692304673817341489687899934721",
        "55464657044963196816950587289035428064568320970692304673817341489687908321280"
      ]
    },
    {
      "x": 55,
      "y": 348,
      "size": 1,
      "price": "4683000000000000000000",
      "reserved": "",
      "salt": "0x8cf0a4ccdfdd53f5eebdf14210acca8fdd8b42eac797f123852e3cd8475fb5ec",
      "assetIds": [
        "55464657044963196816950587289035428064568320970692304673817341489687891546112",
        "55464657044963196816950587289035428064568320970692304673817341489687891546113",
        "55464657044963196816950587289035428064568320970692304673817341489687899934720",
        "55464657044963196816950587289035428064568320970692304673817341489687899934721",
        "55464657044963196816950587289035428064568320970692304673817341489687908321280"
      ]
    },
    {
      "x": 55,
      "y": 349,
      "size": 1,
      "price": "4683000000000000000000",
      "reserved": "",
      "salt": "0xdbb78e88209b13aad0dd848c5710b65ce5b18740c9c972140522fb6ed0e5c9ee",
      "assetIds": [
        "55464657044963196816950587289035428064568320970692304673817341489687891546112",
        "55464657044963196816950587289035428064568320970692304673817341489687891546113",
        "55464657044963196816950587289035428064568320970692304673817341489687899934720",
        "55464657044963196816950587289035428064568320970692304673817341489687899934721",
        "55464657044963196816950587289035428064568320970692304673817341489687908321280"
      ]
    },
    {
      "x": 55,
      "y": 350,
      "size": 1,
      "price": "4683000000000000000000",
      "reserved": "",
      "salt": "0xb62fafdf33f18eafbb30518016abbdf2485d790154a3dfc87852171ee1c4acb3",
      "assetIds": [
        "55464657044963196816950587289035428064568320970692304673817341489687891546112",
        "55464657044963196816950587289035428064568320970692304673817341489687891546113",
        "55464657044963196816950587289035428064568320970692304673817341489687899934720",
        "55464657044963196816950587289035428064568320970692304673817341489687899934721",
        "55464657044963196816950587289035428064568320970692304673817341489687908321280"
      ]
    },
    {
      "x": 55,
      "y": 351,
      "size": 1,
      "price": "4683000000000000000000",
      "reserved": "",
      "salt": "0x968e3f65ec1826b52f3fbf1c8d015b85070dd76480b9031c81939a5eda67f480",
      "assetIds": [
        "55464657044963196816950587289035428064568320970692304673817341489687891546112",
        "55464657044963196816950587289035428064568320970692304673817341489687891546113",
        "55464657044963196816950587289035428064568320970692304673817341489687899934720",
        "55464657044963196816950587289035428064568320970692304673817341489687899934721",
        "55464657044963196816950587289035428064568320970692304673817341489687908321280"
      ]
    },
    {
      "x": 55,
      "y": 352,
      "size": 1,
      "price": "4683000000000000000000",
      "reserved": "",
      "salt": "0x8d9f766b569f8c4be6a24f224d0dba81c08519644e29a126c29d613d6e2a6c44",
      "assetIds": [
        "55464657044963196816950587289035428064568320970692304673817341489687891546112",
        "55464657044963196816950587289035428064568320970692304673817341489687891546113",
        "55464657044963196816950587289035428064568320970692304673817341489687899934720",
        "55464657044963196816950587289035428064568320970692304673817341489687899934721",
        "55464657044963196816950587289035428064568320970692304673817341489687908321280"
      ]
    },
    {
      "x": 55,
      "y": 353,
      "size": 1,
      "price": "4683000000000000000000",
      "reserved": "",
      "salt": "0x0e88fa1c1ab649de76733d121e17c055167a1b86b3831f3ad844f98e66b3e544",
      "assetIds": [
        "55464657044963196816950587289035428064568320970692304673817341489687891546112",
        "55464657044963196816950587289035428064568320970692304673817341489687891546113",
        "55464657044963196816950587289035428064568320970692304673817341489687899934720",
        "55464657044963196816950587289035428064568320970692304673817341489687899934721",
        "55464657044963196816950587289035428064568320970692304673817341489687908321280"
      ]
    },
    {
      "x": 56,
      "y": 348,
      "size": 1,
      "price": "4683000000000000000000",
      "reserved": "",
      "salt": "0x53c0d67d55a6c413fd0ca1b82a7e13c26388b08de1f41ea71ea5b181c6b8ece7",
      "assetIds": [
        "55464657044963196816950587289035428064568320970692304673817341489687891546112",
        "55464657044963196816950587289035428064568320970692304673817341489687891546113",
        "55464657044963196816950587289035428064568320970692304673817341489687899934720",
        "55464657044963196816950587289035428064568320970692304673817341489687899934721",
        "55464657044963196816950587289035428064568320970692304673817341489687908321280"
      ]
    },
    {
      "x": 56,
      "y": 349,
      "size": 1,
      "price": "4683000000000000000000",
      "reserved": "",
      "salt": "0xc158510a73956e8cc7b067d53f54c7035b475615a288a9fbff8af6c604099cfd",
      "assetIds": [
        "55464657044963196816950587289035428064568320970692304673817341489687891546112",
        "55464657044963196816950587289035428064568320970692304673817341489687891546113",
        "55464657044963196816950587289035428064568320970692304673817341489687899934720",
        "55464657044963196816950587289035428064568320970692304673817341489687899934721",
        "55464657044963196816950587289035428064568320970692304673817341489687908321280"
      ]
    },
    {
      "x": 56,
      "y": 350,
      "size": 1,
      "price": "4683000000000000000000",
      "reserved": "",
      "salt": "0x76871684e830ffabc74e41038f15ce2a8677edac6a1f137ea7642c1fb449990f",
      "assetIds": [
        "55464657044963196816950587289035428064568320970692304673817341489687891546112",
        "55464657044963196816950587289035428064568320970692304673817341489687891546113",
        "55464657044963196816950587289035428064568320970692304673817341489687899934720",
        "55464657044963196816950587289035428064568320970692304673817341489687899934721",
        "55464657044963196816950587289035428064568320970692304673817341489687908321280"
      ]
    },
    {
      "x": 56,
      "y": 351,
      "size": 1,
      "price": "4683000000000000000000",
      "reserved": "",
      "salt": "0x97ad3857fdeda684b2dc4599121f94e86bc641563ff0a8a0272c9d83e456525b",
      "assetIds": [
        "55464657044963196816950587289035428064568320970692304673817341489687891546112",
        "55464657044963196816950587289035428064568320970692304673817341489687891546113",
        "55464657044963196816950587289035428064568320970692304673817341489687899934720",
        "55464657044963196816950587289035428064568320970692304673817341489687899934721",
        "55464657044963196816950587289035428064568320970692304673817341489687908321280"
      ]
    },
    {
      "x": 56,
      "y": 352,
      "size": 1,
      "price": "4683000000000000000000",
      "reserved": "",
      "salt": "0xd7d3ed12bd4b22bfb1e3f8162f330eec91afcc06013896e8de155f5d4913f8bb",
      "assetIds": [
        "55464657044963196816950587289035428064568320970692304673817341489687891546112",
        "55464657044963196816950587289035428064568320970692304673817341489687891546113",
        "55464657044963196816950587289035428064568320970692304673817341489687899934720",
        "55464657044963196816950587289035428064568320970692304673817341489687899934721",
        "55464657044963196816950587289035428064568320970692304673817341489687908321280"
      ]
    },
    {
      "x": 56,
      "y": 353,
      "size": 1,
      "price": "4683000000000000000000",
      "reserved": "",
      "salt": "0xf47c7ba07fcd3015487e03bbbda4908287b4a0989f315f3ba1709e96b9e1cf1a",
      "assetIds": [
        "55464657044963196816950587289035428064568320970692304673817341489687891546112",
        "55464657044963196816950587289035428064568320970692304673817341489687891546113",
        "55464657044963196816950587289035428064568320970692304673817341489687899934720",
        "55464657044963196816950587289035428064568320970692304673817341489687899934721",
        "55464657044963196816950587289035428064568320970692304673817341489687908321280"
      ]
    },
    {
      "x": 57,
      "y": 348,
      "size": 1,
      "price": "4683000000000000000000",
      "reserved": "",
      "salt": "0x947cbfbb0c88b1244d4755b13d98818aefaca32177c067ca4eeea38f05b95b38",
      "assetIds": [
        "55464657044963196816950587289035428064568320970692304673817341489687891546112",
        "55464657044963196816950587289035428064568320970692304673817341489687891546113",
        "55464657044963196816950587289035428064568320970692304673817341489687899934720",
        "55464657044963196816950587289035428064568320970692304673817341489687899934721",
        "55464657044963196816950587289035428064568320970692304673817341489687908321280"
      ]
    },
    {
      "x": 57,
      "y": 349,
      "size": 1,
      "price": "1011000000000000000000",
      "reserved": "0x7a9fe22691c811ea339d9b73150e6911a5343dca",
      "salt": "0xad8862e0aae29e55a14eec2ae8c184d1ebfc1200adf1cd597fc9aa0ee1edf9ff",
      "assetIds": []
    },
    {
      "x": 57,
      "y": 350,
      "size": 1,
      "price": "4683000000000000000000",
      "reserved": "",
      "salt": "0x2603f77f4b32fca19400d939d9278b6c2fe39848f9d11d10f9446c1cfe9411ea",
      "assetIds": [
        "55464657044963196816950587289035428064568320970692304673817341489687891546112",
        "55464657044963196816950587289035428064568320970692304673817341489687891546113",
        "55464657044963196816950587289035428064568320970692304673817341489687899934720",
        "55464657044963196816950587289035428064568320970692304673817341489687899934721",
        "55464657044963196816950587289035428064568320970692304673817341489687908321280"
      ]
    },
    {
      "x": 57,
      "y": 351,
      "size": 1,
      "price": "4683000000000000000000",
      "reserved": "",
      "salt": "0xd73718546ceb028ed3c2e8d0d0d3bab72455c3e1ab7e7a83dce9cd343fc4f0a5",
      "assetIds": [
        "55464657044963196816950587289035428064568320970692304673817341489687891546112",
        "55464657044963196816950587289035428064568320970692304673817341489687891546113",
        "55464657044963196816950587289035428064568320970692304673817341489687899934720",
        "55464657044963196816950587289035428064568320970692304673817341489687899934721",
        "55464657044963196816950587289035428064568320970692304673817341489687908321280"
      ]
    },
    {
      "x": 57,
      "y": 352,
      "size": 1,
      "price": "4683000000000000000000",
      "reserved": "",
      "salt": "0xebfc747f00c5473751cba5f6676d8d8fa9c08211a13dfc5026735e6e4751a18b",
      "assetIds": [
        "55464657044963196816950587289035428064568320970692304673817341489687891546112",
        "55464657044963196816950587289035428064568320970692304673817341489687891546113",
        "55464657044963196816950587289035428064568320970692304673817341489687899934720",
        "55464657044963196816950587289035428064568320970692304673817341489687899934721",
        "55464657044963196816950587289035428064568320970692304673817341489687908321280"
      ]
    },
    {
      "x": 57,
      "y": 353,
      "size": 1,
      "price": "4683000000000000000000",
      "reserved": "",
      "salt": "0x674aa1a442c576e916a3cc4ed0774d742013ad20ab3cb8be5bcac2f9a83610e8",
      "assetIds": [
        "55464657044963196816950587289035428064568320970692304673817341489687891546112",
        "55464657044963196816950587289035428064568320970692304673817341489687891546113",
        "55464657044963196816950587289035428064568320970692304673817341489687899934720",
        "55464657044963196816950587289035428064568320970692304673817341489687899934721",
        "55464657044963196816950587289035428064568320970692304673817341489687908321280"
      ]
    },
    {
      "x": 58,
      "y": 348,
      "size": 1,
      "price": "1011000000000000000000",
      "reserved": "",
      "salt": "0x5f6b86cae73e34df4ceacc16828b65ebfc7418a3af252ac4595a7d0ccc8fa177",
      "assetIds": []
    },
    {
      "x": 58,
      "y": 349,
      "size": 1,
      "price": "4683000000000000000000",
      "reserved": "",
      "salt": "0xca43fed483e11b86536e9ed220ba9aad451742b0b1abbeb3ed8e7a98f40cf85e",
      "assetIds": [
        "55464657044963196816950587289035428064568320970692304673817341489687891546112",
        "55464657044963196816950587289035428064568320970692304673817341489687891546113",
        "55464657044963196816950587289035428064568320970692304673817341489687899934720",
        "55464657044963196816950587289035428064568320970692304673817341489687899934721",
        "55464657044963196816950587289035428064568320970692304673817341489687908321280"
      ]
    },
    {
      "x": 58,
      "y": 350,
      "size": 1,
      "price": "1011000000000000000000",
      "reserved": "",
      "salt": "0x222764161b56d0f39e7ba7d42b24db65d0f9ecb00c769487d86e7c5c9800ea0f",
      "assetIds": []
    },
    {
      "x": 58,
      "y": 351,
      "size": 1,
      "price": "1011000000000000000000",
      "reserved": "",
      "salt": "0x64ff0b141402893040ee5d48a427d3f8fa039bf651487d58f8817203b6f4df92",
      "assetIds": []
    },
    {
      "x": 58,
      "y": 352,
      "size": 1,
      "price": "1011000000000000000000",
      "reserved": "",
      "salt": "0xe5fc999c6971d72e96d3c4681b70300b472cf7e7c3f299a964779fc77df013fb",
      "assetIds": []
    },
    {
      "x": 58,
      "y": 353,
      "size": 1,
      "price": "1011000000000000000000",
      "reserved": "0x7a9fe22691c811ea339d9b73150e6911a5343dca",
      "salt": "0x36b2dd732fae91f6182ce47268f48c8d5b7c3aebcd1cddd6506503be36666574",
      "assetIds": []
    },
    {
      "x": 59,
      "y": 348,
      "size": 1,
      "price": "1011000000000000000000",
      "reserved": "",
      "salt": "0x08dc74f90ff4faf33d0ec41b0ab66dd45ad1223bf8beeae795f5a6877a9c8710",
      "assetIds": []
    },
    {
      "x": 59,
      "y": 349,
      "size": 1,
      "price": "1011000000000000000000",
      "reserved": "",
      "salt": "0x0848149f034a3292493ebc5c6bb7999064cdcfdf16ef9d9bd79ed913e92b3ddb",
      "assetIds": []
    },
    {
      "x": 59,
      "y": 350,
      "size": 1,
      "price": "1011000000000000000000",
      "reserved": "",
      "salt": "0x82a6ea6cfa923a40219d5ad607d8a08150935ac90e303003ee6a22837c51ad66",
      "assetIds": []
    },
    {
      "x": 59,
      "y": 351,
      "size": 1,
      "price": "1011000000000000000000",
      "reserved": "",
      "salt": "0x1a00c7b193d31edb258226dbbdd5af48e307832bed007b165baff2c610e54bd8",
      "assetIds": []
    },
    {
      "x": 59,
      "y": 352,
      "size": 1,
      "price": "1011000000000000000000",
      "reserved": "",
      "salt": "0x66286629a23f0357ffcd85422139c730f80618f89533403d37ab0e98c7633f4b",
      "assetIds": []
    },
    {
      "x": 59,
      "y": 353,
      "size": 1,
      "price": "1011000000000000000000",
      "reserved": "",
      "salt": "0x3fe8ce9716f026f8b64fd3c8ff09d23442dab8feaa2a2166e98d02f65fd50b37",
      "assetIds": []
    },
    {
      "x": 60,
      "y": 348,
      "size": 1,
      "price": "1011000000000000000000",
      "reserved": "",
      "salt": "0x77a403605587cd3b283eefb6667c735e8ecef84464ec65b3b3670fa929fd73aa",
      "assetIds": []
    },
    {
      "x": 60,
      "y": 349,
      "size": 1,
      "price": "1011000000000000000000",
      "reserved": "",
      "salt": "0x3132b8b4030b18ab4cc7b656caf645fd2954995af080dc77a724d22714e4a71e",
      "assetIds": []
    },
    {
      "x": 60,
      "y": 350,
      "size": 1,
      "price": "1011000000000000000000",
      "reserved": "",
      "salt": "0xdd56ed7d51c941e5b46b3eb3196a6fd4fa95ecfd067107b825299f7fd9fc73bf",
      "assetIds": []
    },
    {
      "x": 60,
      "y": 351,
      "size": 1,
      "price": "1011000000000000000000",
      "reserved": "",
      "salt": "0x125f8933ea42cca19da6f14bd050eec624c0678456b863887a3cd7752e891862",
      "assetIds": []
    },
    {
      "x": 60,
      "y": 352,
      "size": 1,
      "price": "1011000000000000000000",
      "reserved": "",
      "salt": "0x5beda9faa94700d9b3ee0216e80cb60794402f9db3ac0ecb66c277d6b65a1562",
      "assetIds": []
    },
    {
      "x": 60,
      "y": 353,
      "size": 1,
      "price": "1011000000000000000000",
      "reserved": "",
      "salt": "0x80dbb9a6b088fec0f6ffee1a0fa3d35fe0521a5dee176dd8ae6a204d10cea462",
      "assetIds": []
    },
    {
      "x": 60,
      "y": 354,
      "size": 1,
      "price": "1011000000000000000000",
      "reserved": "",
      "salt": "0xfd4396f9e9bbf7d54f165dc1f05743819116988574c11c4b99879ed862c8e63c",
      "assetIds": []
    },
    {
      "x": 61,
      "y": 348,
      "size": 1,
      "price": "1011000000000000000000",
      "reserved": "",
      "salt": "0x36679b5dc7b9d10cfcedc68124e5aa1ca37fc1e8a4b2959e806e5be910bfb399",
      "assetIds": []
    },
    {
      "x": 61,
      "y": 349,
      "size": 1,
      "price": "1011000000000000000000",
      "reserved": "",
      "salt": "0x28be1e540503c8df54b51e8d4cd647e04e11f807395a551c5cb98c0d2487ea88",
      "assetIds": []
    },
    {
      "x": 61,
      "y": 350,
      "size": 1,
      "price": "1011000000000000000000",
      "reserved": "",
      "salt": "0xb7f1ca8c7033bbcabe5f41d23fd623a152550bb088a2da6ee2449334328cef87",
      "assetIds": []
    },
    {
      "x": 61,
      "y": 351,
      "size": 1,
      "price": "1011000000000000000000",
      "reserved": "",
      "salt": "0x0d35f0396e819e21e1fbf1d804ddc543df7f54eb1d635821cd4c4042dbdbb4de",
      "assetIds": []
    },
    {
      "x": 61,
      "y": 352,
      "size": 1,
      "price": "1011000000000000000000",
      "reserved": "",
      "salt": "0xc7512f1e499268653e767c00079fda4ddc8a2bc7c2d1c0a2e9f23ce68e7aad07",
      "assetIds": []
    },
    {
      "x": 61,
      "y": 353,
      "size": 1,
      "price": "1011000000000000000000",
      "reserved": "",
      "salt": "0xe75b261c57d6c9ac4ebf09c111b0b1b6a521979606d92a777ed65436fa914c79",
      "assetIds": []
    },
    {
      "x": 61,
      "y": 354,
      "size": 1,
      "price": "1011000000000000000000",
      "reserved": "",
      "salt": "0x569a06c6fb0263a4a64af4aa3cd61bca1020594335184194b1c3c3e32f9cf91a",
      "assetIds": []
    },
    {
      "x": 62,
      "y": 348,
      "size": 1,
      "price": "1011000000000000000000",
      "reserved": "",
      "salt": "0x268a2ba49a0a01b9de4d15900cd9ca01b334242d609ad93cee5b2147c523e6d4",
      "assetIds": []
    },
    {
      "x": 62,
      "y": 349,
      "size": 1,
      "price": "1011000000000000000000",
      "reserved": "",
      "salt": "0x7302b4fd77273240d6bd7c52e6c34225c68db675113183b1ee536b4472707979",
      "assetIds": []
    },
    {
      "x": 62,
      "y": 350,
      "size": 1,
      "price": "1011000000000000000000",
      "reserved": "",
      "salt": "0xf7fe92b90c331d1fa13f5f2eb4189ece2fe18852e5804beb5848d07d6f3bdc61",
      "assetIds": []
    },
    {
      "x": 62,
      "y": 351,
      "size": 1,
      "price": "1011000000000000000000",
      "reserved": "0x7a9fe22691c811ea339d9b73150e6911a5343dca",
      "salt": "0xdc4a8b2373bd74c4f0134cccbb0530f3461d4cd4727c02ca41ad4affffb04028",
      "assetIds": []
    },
    {
      "x": 62,
      "y": 352,
      "size": 1,
      "price": "1011000000000000000000",
      "reserved": "",
      "salt": "0x15df770ed12e49e681b8661234a3d5004b28469db1dd71e6246c9ae2f7c8a1ea",
      "assetIds": []
    },
    {
      "x": 62,
      "y": 353,
      "size": 1,
      "price": "1011000000000000000000",
      "reserved": "",
      "salt": "0x58c355b0aa341e0d1b6465b3a5671079acfe8c1284fd4dabc31025b369eaade0",
      "assetIds": []
    },
    {
      "x": 62,
      "y": 354,
      "size": 1,
      "price": "1011000000000000000000",
      "reserved": "0x7a9fe22691c811ea339d9b73150e6911a5343dca",
      "salt": "0xf7c833d037dac5c40c4b655efc275febb93f89efba54ff6c08d64b5217823432",
      "assetIds": []
    },
    {
      "x": 63,
      "y": 348,
      "size": 1,
      "price": "1011000000000000000000",
      "reserved": "0x7a9fe22691c811ea339d9b73150e6911a5343dca",
      "salt": "0xe3f4302472f164073de2b190d5c5ad3f23fc7253a665dfcab2e48187a9c6ed9a",
      "assetIds": []
    },
    {
      "x": 63,
      "y": 349,
      "size": 1,
      "price": "1011000000000000000000",
      "reserved": "",
      "salt": "0x633e9ebca6d84fa4a8f0cb075ab373e0b027ded1ec76c01a1f99f58e5d1e89ea",
      "assetIds": []
    },
    {
      "x": 63,
      "y": 350,
      "size": 1,
      "price": "1011000000000000000000",
      "reserved": "",
      "salt": "0xb67d7659d4ce18c971cdd3f186e94a20332196f712641de04d0412d60e4d92d2",
      "assetIds": []
    },
    {
      "x": 63,
      "y": 351,
      "size": 1,
      "price": "1011000000000000000000",
      "reserved": "",
      "salt": "0x506e2c57f47b616c6f327fb8964f891df97469d1c2fc72a40d1d108654192c37",
      "assetIds": []
    },
    {
      "x": 63,
      "y": 352,
      "size": 1,
      "price": "1011000000000000000000",
      "reserved": "",
      "salt": "0x519a2c9c8f78cba29878647e1b9baaf2d6461c7e113b6c1d0432562a4c96d1b7",
      "assetIds": []
    },
    {
      "x": 63,
      "y": 353,
      "size": 1,
      "price": "1011000000000000000000",
      "reserved": "",
      "salt": "0x39d0a3dc2659c31e2428a1c0017c0e5eeb5bbee2db3e504769c52180e3023f27",
      "assetIds": []
    },
    {
      "x": 63,
      "y": 354,
      "size": 1,
      "price": "1011000000000000000000",
      "reserved": "",
      "salt": "0xa26eb7404cb2fcbf188d5e8fb9965bad731083beb68c1c3397b7498c2575258f",
      "assetIds": []
    },
    {
      "x": 64,
      "y": 348,
      "size": 1,
      "price": "1011000000000000000000",
      "reserved": "",
      "salt": "0x09d7544c4753dfa1f7fa9559740838f1d65c6708c15ad93879aab1963ee533f5",
      "assetIds": []
    },
    {
      "x": 64,
      "y": 349,
      "size": 1,
      "price": "1011000000000000000000",
      "reserved": "",
      "salt": "0xa82d6785e4ae1195c289ad5de5ead4d7536d5d8d2be03e87c11f587567df2513",
      "assetIds": []
    },
    {
      "x": 64,
      "y": 350,
      "size": 1,
      "price": "1011000000000000000000",
      "reserved": "",
      "salt": "0x711d72c26c9c41dfe51adacfede07e621262623ee5ac82fe880f3ed4d194a9b0",
      "assetIds": []
    },
    {
      "x": 64,
      "y": 351,
      "size": 1,
      "price": "1011000000000000000000",
      "reserved": "0x7a9fe22691c811ea339d9b73150e6911a5343dca",
      "salt": "0x9cf48b464990fa54e8fe85d2bb71758f4153c131fd97bb5746ec8c3aabdc1ebe",
      "assetIds": []
    },
    {
      "x": 64,
      "y": 352,
      "size": 1,
      "price": "1011000000000000000000",
      "reserved": "",
      "salt": "0xa26be432a58e3521fdb0f128936b2f5378ebf81891ea87435befc0caf952e7fc",
      "assetIds": []
    },
    {
      "x": 64,
      "y": 353,
      "size": 1,
      "price": "1011000000000000000000",
      "reserved": "",
      "salt": "0xd0abc038005ba91fecaa5d976659fe40050afba06c984c7fbacc31dee08138a4",
      "assetIds": []
    },
    {
      "x": 64,
      "y": 354,
      "size": 1,
      "price": "1011000000000000000000",
      "reserved": "",
      "salt": "0x1f636f9b3b5e42b1d5783e4617aad7a667871af7cb4dd6f4633375bb68b7c2c9",
      "assetIds": []
    },
    {
      "x": 64,
      "y": 355,
      "size": 1,
      "price": "1011000000000000000000",
      "reserved": "",
      "salt": "0x5b8084d57c458e59bf8d7567d0dc14f250807d65cc9aa779bde0f8caf10568a2",
      "assetIds": []
    },
    {
      "x": 65,
      "y": 348,
      "size": 1,
      "price": "1011000000000000000000",
      "reserved": "",
      "salt": "0x88e497bc4118a607fab3b87f739fc42253e04bac66354c4fdfa1fb95b567f65b",
      "assetIds": []
    },
    {
      "x": 65,
      "y": 349,
      "size": 1,
      "price": "1011000000000000000000",
      "reserved": "",
      "salt": "0xc3e883565e828c20646a565418dd1f3789d68c563b61f392e1e7a4da9d440418",
      "assetIds": []
    },
    {
      "x": 65,
      "y": 350,
      "size": 1,
      "price": "1011000000000000000000",
      "reserved": "",
      "salt": "0xfc6d2378c45cee0fb167205d1b53f549bbd643de97569781823bbb2d42150b68",
      "assetIds": []
    },
    {
      "x": 65,
      "y": 351,
      "size": 1,
      "price": "1011000000000000000000",
      "reserved": "",
      "salt": "0x72d4b8501d83e2191f8f5a24466f39a74c13855e5e0b548b458bf6b749842048",
      "assetIds": []
    },
    {
      "x": 65,
      "y": 352,
      "size": 1,
      "price": "1011000000000000000000",
      "reserved": "",
      "salt": "0x3429b7bca9438cd95d1cfe40f0ada759e865c5d2fd69b6c2fb2d89128cf67636",
      "assetIds": []
    },
    {
      "x": 65,
      "y": 353,
      "size": 1,
      "price": "1011000000000000000000",
      "reserved": "0x7a9fe22691c811ea339d9b73150e6911a5343dca",
      "salt": "0x62a2e345f69e5d40c2475cc4258e8a7bc27b1bc1f0f757964a3742c418999ea2",
      "assetIds": []
    },
    {
      "x": 65,
      "y": 354,
      "size": 1,
      "price": "1011000000000000000000",
      "reserved": "",
      "salt": "0xbbbed7536008c4c498ba745e53b964391c1c3da5cf31802cee972ff155b78eda",
      "assetIds": []
    },
    {
      "x": 65,
      "y": 355,
      "size": 1,
      "price": "1011000000000000000000",
      "reserved": "",
      "salt": "0x751fa825b2c89ecfef3c51d7b80c3373992480c85ba9d9e641b5e98b5a3bdaeb",
      "assetIds": []
    },
    {
      "x": 66,
      "y": 348,
      "size": 1,
      "price": "1011000000000000000000",
      "reserved": "0x7a9fe22691c811ea339d9b73150e6911a5343dca",
      "salt": "0x042763b0317090c145e0dbe351afd1b06dffda639b1e0f06cca00abfa16254c6",
      "assetIds": []
    },
    {
      "x": 66,
      "y": 349,
      "size": 1,
      "price": "1011000000000000000000",
      "reserved": "",
      "salt": "0x8fd794bbdbc34a67b2743d71667c41b1d5ef4b76b9b8bde8a57436731256d92a",
      "assetIds": []
    },
    {
      "x": 66,
      "y": 350,
      "size": 1,
      "price": "1011000000000000000000",
      "reserved": "",
      "salt": "0x0e9efb280cd32d96e5155ada9c006a5ad5e3107b9a7d417ab25a270d5795dc94",
      "assetIds": []
    },
    {
      "x": 66,
      "y": 351,
      "size": 1,
      "price": "1011000000000000000000",
      "reserved": "",
      "salt": "0xff1305353b9631dd90052b111b0204657a5edfddf91c0f498f4d4b6638b34d44",
      "assetIds": []
    },
    {
      "x": 66,
      "y": 352,
      "size": 1,
      "price": "1011000000000000000000",
      "reserved": "",
      "salt": "0xb7d80ea41781125985f7b1963d8bc06e8225ceb1dddc89744f5aee7e36a39322",
      "assetIds": []
    },
    {
      "x": 66,
      "y": 353,
      "size": 1,
      "price": "1011000000000000000000",
      "reserved": "",
      "salt": "0xa5e23498ff5c089ee5464511c578c1322570d1df8ff5ca847808e8d5a334c9d6",
      "assetIds": []
    },
    {
      "x": 66,
      "y": 354,
      "size": 1,
      "price": "1011000000000000000000",
      "reserved": "",
      "salt": "0xd890764f4e0ef0d53a2a519f3362bd567eeeeebf0197a40010d90fa2a246cd27",
      "assetIds": []
    },
    {
      "x": 66,
      "y": 355,
      "size": 1,
      "price": "1011000000000000000000",
      "reserved": "",
      "salt": "0xa2395925bc6b5075d697cd2e3cd9b518341dae333f92e2fdd90b0792197946f8",
      "assetIds": []
    },
    {
      "x": 67,
      "y": 348,
      "size": 1,
      "price": "1011000000000000000000",
      "reserved": "",
      "salt": "0xcbe4b8642b8c6bfa90d68acc4db42bfa4e153e4a7200d0ea6f25ea44ba95c495",
      "assetIds": []
    },
    {
      "x": 67,
      "y": 349,
      "size": 1,
      "price": "1011000000000000000000",
      "reserved": "",
      "salt": "0x3bb84690c1662a16cfe2a190f376fa26018ab95c5b6718716bb86c1fd5e1b646",
      "assetIds": []
    },
    {
      "x": 67,
      "y": 350,
      "size": 1,
      "price": "1011000000000000000000",
      "reserved": "",
      "salt": "0xd56acba7dbe503d5e5ac030edc4b0607f7c693cfce60ad3b9586e73840a57037",
      "assetIds": []
    },
    {
      "x": 67,
      "y": 351,
      "size": 1,
      "price": "1011000000000000000000",
      "reserved": "",
      "salt": "0xfe7d6fb623845a099ffa3f2c108b0f29b07125f44850107b20d7ad48b2d1d2a8",
      "assetIds": []
    },
    {
      "x": 67,
      "y": 352,
      "size": 1,
      "price": "1011000000000000000000",
      "reserved": "",
      "salt": "0x81960858a32d7bff2270a1eca28906d9a9ca4551f2cff4cf10d113131d0802ed",
      "assetIds": []
    },
    {
      "x": 67,
      "y": 353,
      "size": 1,
      "price": "1011000000000000000000",
      "reserved": "",
      "salt": "0x12e3941253ce4dee232e4985093acaa35e3ff414837539ed8111bb27b35d0073",
      "assetIds": []
    },
    {
      "x": 67,
      "y": 354,
      "size": 1,
      "price": "1011000000000000000000",
      "reserved": "",
      "salt": "0x25c87d46c6c8397bea77f2b3e3bbf6cb8a42581b216498f951e77e98d9c65da4",
      "assetIds": []
    },
    {
      "x": 67,
      "y": 355,
      "size": 1,
      "price": "1011000000000000000000",
      "reserved": "",
      "salt": "0xf98e9029c2aceb1ecf80943415c7766430b502b903e02a18c56ff2ba770b4008",
      "assetIds": []
    },
    {
      "x": 68,
      "y": 348,
      "size": 1,
      "price": "1011000000000000000000",
      "reserved": "",
      "salt": "0x19e1bbc79f5e257793d6f233599fe3516e682190b5fb348a75c1aed5e7879fe6",
      "assetIds": []
    },
    {
      "x": 68,
      "y": 349,
      "size": 1,
      "price": "1011000000000000000000",
      "reserved": "",
      "salt": "0xe10b9b91253eaa21e0c3f299f3b22900e6894dede30c89a43b6dfa9e9dcf51d2",
      "assetIds": []
    },
    {
      "x": 68,
      "y": 350,
      "size": 1,
      "price": "1011000000000000000000",
      "reserved": "",
      "salt": "0x3552ed5afeb341a0a76e4bc44ed3ae57212170d6e5099dd8898f62df03c4e235",
      "assetIds": []
    },
    {
      "x": 68,
      "y": 351,
      "size": 1,
      "price": "1011000000000000000000",
      "reserved": "",
      "salt": "0xe64443a20bc49195d2aba28855ac19a7fb543e3d6a6e4c975be06f328ab34023",
      "assetIds": []
    },
    {
      "x": 68,
      "y": 352,
      "size": 1,
      "price": "1011000000000000000000",
      "reserved": "",
      "salt": "0x908cd316f88521b640b832c9cff9b93b2a695b4e7f0036e5eefd1d98098e69b5",
      "assetIds": []
    },
    {
      "x": 68,
      "y": 353,
      "size": 1,
      "price": "1011000000000000000000",
      "reserved": "",
      "salt": "0x7f42611c46cb4af8460e86d632fe0f52b6a3607fff488073c6881b2988c5ca00",
      "assetIds": []
    },
    {
      "x": 68,
      "y": 354,
      "size": 1,
      "price": "1011000000000000000000",
      "reserved": "",
      "salt": "0xd36fff6f996f71459626067daedad498678f27310bcf567d5960de2b51f6ad2c",
      "assetIds": []
    },
    {
      "x": 68,
      "y": 355,
      "size": 1,
      "price": "1011000000000000000000",
      "reserved": "",
      "salt": "0x692224571921d1801ad7f8a24b2d3ff3e18fa0da4f77a9700a92b6a1265e91da",
      "assetIds": []
    },
    {
      "x": 69,
      "y": 348,
      "size": 1,
      "price": "1011000000000000000000",
      "reserved": "",
      "salt": "0x5ca5a310096816a8f034087b3639cca55e27937bda98deb4ed937483acd0eb44",
      "assetIds": []
    },
    {
      "x": 69,
      "y": 349,
      "size": 1,
      "price": "1011000000000000000000",
      "reserved": "",
      "salt": "0xeaa3c5557f285abed6d35011ba06ada2e3d24e78e927cdf47ae7ae4b197241ce",
      "assetIds": []
    },
    {
      "x": 69,
      "y": 350,
      "size": 1,
      "price": "1011000000000000000000",
      "reserved": "",
      "salt": "0x65303aad9dc1a95853bb8aff8478530bd7804385b8fe06b6dbbfd064900e2972",
      "assetIds": []
    },
    {
      "x": 69,
      "y": 351,
      "size": 1,
      "price": "1011000000000000000000",
      "reserved": "",
      "salt": "0x1447f07ce4f716e38c5d3b0e0cadde5022c5f5386a547387e2de42bdf43bdbe2",
      "assetIds": []
    },
    {
      "x": 69,
      "y": 352,
      "size": 1,
      "price": "1011000000000000000000",
      "reserved": "",
      "salt": "0x8c9f2fd6f66fd16cb7a325b17dbbbebcd518d77bad8e5768b61be287e6c6ba2e",
      "assetIds": []
    },
    {
      "x": 69,
      "y": 353,
      "size": 1,
      "price": "1011000000000000000000",
      "reserved": "",
      "salt": "0x880860a14bbfeb88e4eef936b889be5abda25e940e30d596732fdcc02f78470e",
      "assetIds": []
    },
    {
      "x": 69,
      "y": 354,
      "size": 1,
      "price": "1011000000000000000000",
      "reserved": "",
      "salt": "0xe91a4af20b0637f7f0e163fd76ae2e89b3c61ced604850797345bf1aa4760510",
      "assetIds": []
    },
    {
      "x": 69,
      "y": 355,
      "size": 1,
      "price": "1011000000000000000000",
      "reserved": "",
      "salt": "0x4d57ce775e77d2d6170ebf898fcbb6f72fa232d5b3e3ad37d3987b48fd52a288",
      "assetIds": []
    },
    {
      "x": 70,
      "y": 348,
      "size": 1,
      "price": "1011000000000000000000",
      "reserved": "",
      "salt": "0xb523d636633919b21d26ccfad040d235020f264aa693e711248ab7618011dabc",
      "assetIds": []
    },
    {
      "x": 70,
      "y": 349,
      "size": 1,
      "price": "1011000000000000000000",
      "reserved": "",
      "salt": "0xc291fbc5641195d6a96e81943a2fe877d3f44ec8465239fc07f03c611310d9f2",
      "assetIds": []
    },
    {
      "x": 70,
      "y": 350,
      "size": 1,
      "price": "1011000000000000000000",
      "reserved": "",
      "salt": "0x5e8c8f4a2f4a5d2f6aec6c81084378127f5839df607f908f1074e5761e7491dd",
      "assetIds": []
    },
    {
      "x": 70,
      "y": 351,
      "size": 1,
      "price": "1011000000000000000000",
      "reserved": "",
      "salt": "0x659a261536273b8651112468d597f4fee0dad95e809970e66a379059ab7c7b26",
      "assetIds": []
    },
    {
      "x": 70,
      "y": 352,
      "size": 1,
      "price": "1011000000000000000000",
      "reserved": "",
      "salt": "0xd1d574b82390c5ab6f6033abd14035a155a16027c10fabe2e8d92d9b40e810cf",
      "assetIds": []
    },
    {
      "x": 70,
      "y": 353,
      "size": 1,
      "price": "1011000000000000000000",
      "reserved": "",
      "salt": "0x7b50fa10a6226bc2ea9d67e590a0fafceb8b662334b30481021815e3d5213e87",
      "assetIds": []
    },
    {
      "x": 70,
      "y": 354,
      "size": 1,
      "price": "1011000000000000000000",
      "reserved": "",
      "salt": "0x9a889b5b905049be7be3b906a640b186f44bdee11e2547bef9ad9fa43fcf1571",
      "assetIds": []
    },
    {
      "x": 70,
      "y": 355,
      "size": 1,
      "price": "1011000000000000000000",
      "reserved": "",
      "salt": "0x8a868c8fc81dd21c0b1a984b236f3695936d98aeac2332401d51e73b6c0bf4ed",
      "assetIds": []
    },
    {
      "x": 71,
      "y": 348,
      "size": 1,
      "price": "1011000000000000000000",
      "reserved": "",
      "salt": "0x8a9c94a6326e6f68b3bdd5fa1f3b5e7f7d253854d4d17b11dedcb726334165a6",
      "assetIds": []
    },
    {
      "x": 71,
      "y": 349,
      "size": 1,
      "price": "1011000000000000000000",
      "reserved": "",
      "salt": "0xb7980edbf24843afd02fcd2d19da3b0c709c2f1e16623a7635b866ee6f336967",
      "assetIds": []
    },
    {
      "x": 71,
      "y": 350,
      "size": 1,
      "price": "1011000000000000000000",
      "reserved": "",
      "salt": "0x4699643390b7798288fa7f317de91cb239244785dedff7dbb0e737574e022cc5",
      "assetIds": []
    },
    {
      "x": 71,
      "y": 351,
      "size": 1,
      "price": "1011000000000000000000",
      "reserved": "",
      "salt": "0xb36da2f83336a82920edf49cf174ab758b10966bfaa29452bd124181b1fd3c4f",
      "assetIds": []
    },
    {
      "x": 71,
      "y": 352,
      "size": 1,
      "price": "1011000000000000000000",
      "reserved": "",
      "salt": "0xda83d9a456ff858c7def9cda6b7a62353ca6442990609e4ea37ee2ed55ee3c8c",
      "assetIds": []
    },
    {
      "x": 71,
      "y": 353,
      "size": 1,
      "price": "1011000000000000000000",
      "reserved": "",
      "salt": "0xb185dd2ea636b4c2319afbc4f6eca9298098dc50efad53b8080f44a2ab6c1552",
      "assetIds": []
    },
    {
      "x": 71,
      "y": 354,
      "size": 1,
      "price": "1011000000000000000000",
      "reserved": "",
      "salt": "0xf5fa592e50377a6c67c0c0b486a04b2abc0da552b706e8c9d0f1eb46026b4d01",
      "assetIds": []
    },
    {
      "x": 71,
      "y": 355,
      "size": 1,
      "price": "1011000000000000000000",
      "reserved": "",
      "salt": "0x7345aa63a317c91302cd048aeb89a3bc29db277d2247419f84f40458ce2b2ecf",
      "assetIds": []
    },
    {
      "x": 3,
      "y": 372,
      "size": 3,
      "price": "8648000000000000000000",
      "reserved": "",
      "salt": "0x7189a6d7fa6b6ae4f310da583de18babe329ab4ae0392b1ce738ab3f9f3b6896",
      "assetIds": []
    },
    {
      "x": 3,
      "y": 393,
      "size": 3,
      "price": "8648000000000000000000",
      "reserved": "0x7a9fe22691c811ea339d9b73150e6911a5343dca",
      "salt": "0x2645fb9c009eeae3de0f6d384c8a3f7981a3d46bd9e4fd46f4a59446de8f0253",
      "assetIds": []
    },
    {
      "x": 12,
      "y": 402,
      "size": 3,
      "price": "8648000000000000000000",
      "reserved": "",
      "salt": "0x2818433345bccdef6126db239ed637bd408ce45d2cee5f084a72d112caec1f73",
      "assetIds": []
    },
    {
      "x": 12,
      "y": 405,
      "size": 3,
      "price": "8648000000000000000000",
      "reserved": "0x7a9fe22691c811ea339d9b73150e6911a5343dca",
      "salt": "0x94b690a25c30f1d8d14cdc0586a397fd3bd1b512d183f0bcbbf9fc8936157361",
      "assetIds": []
    },
    {
      "x": 18,
      "y": 366,
      "size": 3,
      "price": "8648000000000000000000",
      "reserved": "0x7a9fe22691c811ea339d9b73150e6911a5343dca",
      "salt": "0x0919aa67ecb29fdac733d09079ebddb6dba0eba80337cbe26f40053b2f399e1b",
      "assetIds": []
    },
    {
      "x": 18,
      "y": 402,
      "size": 3,
      "price": "8648000000000000000000",
      "reserved": "0x7a9fe22691c811ea339d9b73150e6911a5343dca",
      "salt": "0x8a4eb472d87d262a19642bd5d8782a121ca2cf91fe1fd3e9161526e5faf942a3",
      "assetIds": []
    },
    {
      "x": 21,
      "y": 363,
      "size": 3,
      "price": "8648000000000000000000",
      "reserved": "0x7a9fe22691c811ea339d9b73150e6911a5343dca",
      "salt": "0xf9b73819d6ba5a93c84b67c822c02bc7afe0f0a94e3831d8874c6261ff8166e7",
      "assetIds": []
    },
    {
      "x": 30,
      "y": 384,
      "size": 3,
      "price": "8648000000000000000000",
      "reserved": "",
      "salt": "0x436e69d0fd49066c1f31b5d613a7d47700e57cb2271698755c480f73ff462755",
      "assetIds": []
    },
    {
      "x": 30,
      "y": 390,
      "size": 3,
      "price": "8648000000000000000000",
      "reserved": "0x7a9fe22691c811ea339d9b73150e6911a5343dca",
      "salt": "0x023c4e75fa08648e334620657d32dfa9168108a88e08ba42379cc570255f9b1b",
      "assetIds": []
    },
    {
      "x": 0,
      "y": 384,
      "size": 6,
      "price": "32772000000000000000000",
      "reserved": "0x7a9fe22691c811ea339d9b73150e6911a5343dca",
      "salt": "0x77e5379f18e0f47a44f862fbae784475df84be2b13bbd5a1bc31e43b9c4d5d42",
      "assetIds": []
    },
    {
      "x": 6,
      "y": 372,
      "size": 6,
      "price": "32772000000000000000000",
      "reserved": "0x7a9fe22691c811ea339d9b73150e6911a5343dca",
      "salt": "0xbbf6287f1563783b419f83ad440e6e20b523ffa2ac84ab0997d45a2c3dc9e4a3",
      "assetIds": []
    },
    {
      "x": 12,
      "y": 360,
      "size": 6,
      "price": "32772000000000000000000",
      "reserved": "",
      "salt": "0x668f37f2b27635d94b0d3583beefa6c16ffbca2302e6840226eef9e31607974e",
      "assetIds": []
    },
    {
      "x": 18,
      "y": 378,
      "size": 6,
      "price": "32772000000000000000000",
      "reserved": "",
      "salt": "0x56cb88ac4a18a5bf9f52b53ae2d64e5ee2d0b43d5a2e460ca0028901760fafe7",
      "assetIds": []
    },
    {
      "x": 30,
      "y": 396,
      "size": 6,
      "price": "32772000000000000000000",
      "reserved": "",
      "salt": "0x4f38f47aebe03e55e1da8bbcad249a4b71240dbd66f7f44ba0564833a6c58859",
      "assetIds": []
    },
    {
      "x": 36,
      "y": 354,
      "size": 6,
      "price": "32772000000000000000000",
      "reserved": "0x7a9fe22691c811ea339d9b73150e6911a5343dca",
      "salt": "0xdd1506c7b373bb0d0204c8a7a65191d4146e6a62e7fe5ad78d0270a5957cceff",
      "assetIds": []
    },
    {
      "x": 48,
      "y": 348,
      "size": 6,
      "price": "32772000000000000000000",
      "reserved": "0x7a9fe22691c811ea339d9b73150e6911a5343dca",
      "salt": "0x250442427f9beefee6569af54985230b11a9ba5fe07ed4f0a150ce0f55f2f53a",
      "assetIds": []
    },
    {
      "x": 48,
      "y": 354,
      "size": 6,
      "price": "32772000000000000000000",
      "reserved": "",
      "salt": "0x51002e592a58fd2d9a2d6cac5702992266449fa81d5f40baef3cb879cde4686b",
      "assetIds": []
    },
    {
      "x": 54,
      "y": 342,
      "size": 6,
      "price": "32772000000000000000000",
      "reserved": "0x7a9fe22691c811ea339d9b73150e6911a5343dca",
      "salt": "0xa995bf73b2e51516bdcf3863e6365db86238601c873ae9701394170fea278383",
      "assetIds": []
    },
    {
      "x": 0,
      "y": 360,
      "size": 12,
      "price": "123806000000000000000000",
      "reserved": "0x7a9fe22691c811ea339d9b73150e6911a5343dca",
      "salt": "0xbd656517218b1e2db51dbbc842dafd74466c30e228bda7f741c464a44e85608a",
      "assetIds": []
    },
    {
      "x": 0,
      "y": 396,
      "size": 12,
      "price": "123806000000000000000000",
      "reserved": "",
      "salt": "0x8337c69c2859b619249c135f15268132a94f50b95b8d9dd8a81dccc13714b07d",
      "assetIds": []
    },
    {
      "x": 12,
      "y": 384,
      "size": 12,
      "price": "123806000000000000000000",
      "reserved": "0x7a9fe22691c811ea339d9b73150e6911a5343dca",
      "salt": "0x058b9f2dac3a4b08570140be41dd548e618b68f51ca94c2ef2a6c63b3eb92ccc",
      "assetIds": []
    },
    {
      "x": 36,
      "y": 384,
      "size": 12,
      "price": "123806000000000000000000",
      "reserved": "",
      "salt": "0x90752219cf0a3909fce95071d3865506c97e9632b9629c7c0e94e54316f6be00",
      "assetIds": []
    },
    {
      "x": 36,
      "y": 396,
      "size": 12,
      "price": "123806000000000000000000",
      "reserved": "0x7a9fe22691c811ea339d9b73150e6911a5343dca",
      "salt": "0x3f3af1ae0f724804829e711aaf5c1350b0f203a612efef7ed279e38feb7d5f38",
      "assetIds": []
    }
  ],
  "solcInputHash": "313f455adab9ae93096e43acc50d7d38",
  "bytecode": "0x610160604052620d2f006005556103e860075534801561001e57600080fd5b5060405161242e38038061242e833981810160405261018081101561004257600080fd5b50805160208201516040830151606080850151608086015160a08088015160c0808a015160e08b01516101008c01516101208d01516101408e0151610160909e0151600280546001600160a01b0319166001600160a01b03861617905560038390558d8b1b6001600160601b0319908116909852998c901b909616909352999a9899979895979496929590949391926100dc8a600161014a565b600680546001600160a01b03199081166001600160a01b039a8b1617909155610140979097526101209590955260008054909616979096169690961790935550606093841b6001600160601b031990811660e05292841b831660805290921b1661010052506101ae92505050565b6001600160a01b038216600081815260016020908152604091829020805460ff191685151590811790915582519384529083015280517fb21eb88b4e33b3f1281830a7178d74d8aa73220416215726b68ae23d539515cb9281900390910190a15050565b60805160601c60a05160601c60c05160601c60e05160601c6101005160601c61012051610140516121fb610233600039806109375280611d44525080610913528061139a525080611da45250806115d252806116f4525080610c50528061159c5280611dd852508061166152806116c5525080610dfa528061190852506121fb6000f3fe608060405234801561001057600080fd5b50600436106101515760003560e01c8063984d6252116100cd578063dc5074af11610081578063ecb255b511610066578063ecb255b514610857578063f23a6e6114610874578063f2e7b3811461090957610151565b8063dc5074af14610814578063e56f8a9e1461083a57610151565b8063bc197c81116100b2578063bc197c81146105d3578063c10a420814610735578063caed35001461080c57610151565b8063984d6252146104db578063b522ecff146105ad57610151565b80636e9960c3116101245780638a04af6a116101095780638a04af6a1461032a5780638a12b82f146103585780638f283970146104b557610151565b80636e9960c3146102fe57806377f1c3ac1461032257610151565b806325cb5bc014610156578063495906571461017057806358bc29441461017857806365194ce7146101a0575b600080fd5b61015e610911565b60408051918252519081900360200190f35b61015e610935565b61019e6004803603602081101561018e57600080fd5b50356001600160a01b0316610959565b005b610246600480360360208110156101b657600080fd5b8101906020810181356401000000008111156101d157600080fd5b8201836020820111156101e357600080fd5b8035906020019184600183028401116401000000008311171561020557600080fd5b91908080601f016020809104026020016040519081016040528093929190818152602001838380828437600092019190915250929550610a04945050505050565b6040518080602001866001600160a01b03166001600160a01b03168152602001856001600160a01b03166001600160a01b03168152602001848152602001838152602001828103825287818151815260200191508051906020019080838360005b838110156102bf5781810151838201526020016102a7565b50505050905090810190601f1680156102ec5780820380516001836020036101000a031916815260200191505b50965050505050505060405180910390f35b610306610b09565b604080516001600160a01b039092168252519081900360200190f35b61015e610b18565b61019e6004803603604081101561034057600080fd5b506001600160a01b0381351690602001351515610b1e565b61019e600480360361018081101561036f57600080fd5b6001600160a01b038235811692602081013582169260408201359092169160608201359160808101359160a08201359160c08101359160e0820135916101008101359181019061014081016101208201356401000000008111156103d257600080fd5b8201836020820111156103e457600080fd5b8035906020019184602083028401116401000000008311171561040657600080fd5b91939092909160208101903564010000000081111561042457600080fd5b82018360208201111561043657600080fd5b8035906020019184602083028401116401000000008311171561045857600080fd5b91939092909160208101903564010000000081111561047657600080fd5b82018360208201111561048857600080fd5b803590602001918460018302840111640100000000831117156104aa57600080fd5b509092509050610b75565b61019e600480360360208110156104cb57600080fd5b50356001600160a01b0316610cc3565b61019e600480360360608110156104f157600080fd5b6001600160a01b03823516919081019060408101602082013564010000000081111561051c57600080fd5b82018360208201111561052e57600080fd5b8035906020019184602083028401116401000000008311171561055057600080fd5b91939092909160208101903564010000000081111561056e57600080fd5b82018360208201111561058057600080fd5b803590602001918460208302840111640100000000831117156105a257600080fd5b509092509050610d99565b61019e600480360360208110156105c357600080fd5b50356001600160a01b0316610f24565b610700600480360360a08110156105e957600080fd5b6001600160a01b03823581169260208101359091169181019060608101604082013564010000000081111561061d57600080fd5b82018360208201111561062f57600080fd5b8035906020019184602083028401116401000000008311171561065157600080fd5b91939092909160208101903564010000000081111561066f57600080fd5b82018360208201111561068157600080fd5b803590602001918460208302840111640100000000831117156106a357600080fd5b9193909290916020810190356401000000008111156106c157600080fd5b8201836020820111156106d357600080fd5b803590602001918460018302840111640100000000831117156106f557600080fd5b50909250905061100d565b604080517fffffffff000000000000000000000000000000000000000000000000000000009092168252519081900360200190f35b6107f8600480360360a081101561074b57600080fd5b81019060208101813564010000000081111561076657600080fd5b82018360208201111561077857600080fd5b8035906020019184600183028401116401000000008311171561079a57600080fd5b91908080601f016020809104026020016040519081016040528093929190818152602001838380828437600092019190915250929550506001600160a01b03833581169450602084013516926040810135925060600135905061103a565b604080519115158252519081900360200190f35b610306611176565b6107f86004803603602081101561082a57600080fd5b50356001600160a01b0316611185565b61019e6004803603602081101561085057600080fd5b50356111a3565b61019e6004803603602081101561086d57600080fd5b5035611207565b610700600480360360a081101561088a57600080fd5b6001600160a01b03823581169260208101359091169160408201359160608101359181019060a0810160808201356401000000008111156108ca57600080fd5b8201836020820111156108dc57600080fd5b803590602001918460018302840111640100000000831117156108fe57600080fd5b50909250905061126b565b61015e611296565b7f000000000000000000000000000000000000000000000000000000000000000090565b7f000000000000000000000000000000000000000000000000000000000000000090565b6000546001600160a01b031633146109b8576040805162461bcd60e51b815260206004820152601060248201527f53656e646572206e6f742061646d696e00000000000000000000000000000000604482015290519081900360640190fd5b600554600280546001600160a01b03908116600090815260046020526040902042909301909255805473ffffffffffffffffffffffffffffffffffffffff191692909116919091179055565b606060008060008060606000806000808a80602001905160a0811015610a2957600080fd5b8101908080516040519392919084640100000000821115610a4957600080fd5b908301906020820185811115610a5e57600080fd5b8251640100000000811182820188101715610a7857600080fd5b82525081516020918201929091019080838360005b83811015610aa5578181015183820152602001610a8d565b50505050905090810190601f168015610ad25780820380516001836020036101000a031916815260200191505b5060409081526020820151908201516060830151608090930151959f50909d509b5099509197505050505050505091939590929450565b6000546001600160a01b031690565b60035490565b6000546001600160a01b03163314610b675760405162461bcd60e51b815260040180806020018281038252602e815260200180612198602e913960400191505060405180910390fd5b610b71828261129c565b5050565b610b7f898961131e565b610c048f8e8e8e8e8e8d8d8d80806020026020016040519081016040528093929190818152602001838360200280828437600081840152601f19601f820116905080830192505050505050508c8c8080602002602001604051908101604052809392919081815260200183836020028082843760009201919091525061139892505050565b610c458f8984848080601f01602080910402602001604051908101604052809392919081815260200183838082843760009201919091525061157592505050565b610c758f8f8e8e8e8d7f00000000000000000000000000000000000000000000000000000000000000008f6115c6565b610cb28e87878080602002602001604051908101604052809392919081815260200183836020028082843760009201919091525061189192505050565b505050505050505050505050505050565b6000546001600160a01b03163314610d22576040805162461bcd60e51b815260206004820152601b60248201527f6f6e6c792061646d696e2063616e206368616e67652061646d696e0000000000604482015290519081900360640190fd5b600054604080516001600160a01b039283168152918316602083015280517f7e644d79422f17c01e4894b5f4f588d331ebfa28653d42ae832dc59e38c9798f9281900390910190a16000805473ffffffffffffffffffffffffffffffffffffffff19166001600160a01b0392909216919091179055565b6000546001600160a01b03163314610df8576040805162461bcd60e51b815260206004820152600e60248201527f4e4f545f415554484f52495a4544000000000000000000000000000000000000604482015290519081900360640190fd5b7f00000000000000000000000000000000000000000000000000000000000000006001600160a01b0316632eb2c2d63087878787876040518763ffffffff1660e01b815260040180876001600160a01b03166001600160a01b03168152602001866001600160a01b03166001600160a01b031681526020018060200180602001806020018481038452888882818152602001925060200280828437600083820152601f01601f19169091018581038452868152602090810191508790870280828437600081840152601f19601f8201169050808301925050508481038252600081526020016020019950505050505050505050600060405180830381600087803b158015610f0557600080fd5b505af1158015610f19573d6000803e3d6000fd5b505050505050505050565b6001600160a01b038116610f7f576040805162461bcd60e51b815260206004820152600c60248201527f5a45524f5f414444524553530000000000000000000000000000000000000000604482015290519081900360640190fd5b6000546001600160a01b03163314610fde576040805162461bcd60e51b815260206004820152600e60248201527f4e4f545f415554484f52495a4544000000000000000000000000000000000000604482015290519081900360640190fd5b6006805473ffffffffffffffffffffffffffffffffffffffff19166001600160a01b0392909216919091179055565b7fbc197c810000000000000000000000000000000000000000000000000000000098975050505050505050565b600060035482118061105d5750836001600160a01b0316856001600160a01b0316145b8061106757508242115b156110745750600061116d565b60408051606087811b7fffffffffffffffffffffffffffffffffffffffff0000000000000000000000009081166020808501919091529188901b166034830152604882018690526068808301869052835180840390910181526088830184528051908201207f19457468657265756d205369676e6564204d6573736167653a0a33320000000060a884015260c48084018290528451808503909101815260e4909301909352815191012060009061112b9089611a55565b6001600160a01b03811660009081526004602052604090205490915042116111585760019250505061116d565b6002546001600160a01b039081169116149150505b95945050505050565b6002546001600160a01b031690565b6001600160a01b031660009081526001602052604090205460ff1690565b6000546001600160a01b03163314611202576040805162461bcd60e51b815260206004820152601060248201527f53656e646572206e6f742061646d696e00000000000000000000000000000000604482015290519081900360640190fd5b600355565b6000546001600160a01b03163314611266576040805162461bcd60e51b815260206004820152600e60248201527f4e4f545f415554484f52495a4544000000000000000000000000000000000000604482015290519081900360640190fd5b600755565b7ff23a6e61000000000000000000000000000000000000000000000000000000009695505050505050565b60075490565b6001600160a01b03821660008181526001602090815260409182902080547fffffffffffffffffffffffffffffffffffffffffffffffffffffffffffffff001685151590811790915582519384529083015280517fb21eb88b4e33b3f1281830a7178d74d8aa73220416215726b68ae23d539515cb9281900390910190a15050565b6113456103e861133960075485611b2290919063ffffffff16565b9063ffffffff611b9816565b8114610b71576040805162461bcd60e51b815260206004820152600d60248201527f494e56414c49445f505249434500000000000000000000000000000000000000604482015290519081900360640190fd5b7f0000000000000000000000000000000000000000000000000000000000000000421061140c576040805162461bcd60e51b815260206004820152600c60248201527f53414c455f49535f4f5645520000000000000000000000000000000000000000604482015290519081900360640190fd5b6001600160a01b03891633148061143257503360009081526001602052604090205460ff165b611483576040805162461bcd60e51b815260206004820152600e60248201527f4e4f545f415554484f52495a4544000000000000000000000000000000000000604482015290519081900360640190fd5b6001600160a01b03881615806114aa5750886001600160a01b0316886001600160a01b0316145b6114fb576040805162461bcd60e51b815260206004820152600d60248201527f52455345525645445f4c414e4400000000000000000000000000000000000000604482015290519081900360640190fd5b600061150c888888888d8989611bfd565b90506115188282611ca2565b611569576040805162461bcd60e51b815260206004820152600c60248201527f494e56414c49445f4c414e440000000000000000000000000000000000000000604482015290519081900360640190fd5b50505050505050505050565b60006115818484611d6b565b6006549091506115c0908590839085906001600160a01b03167f0000000000000000000000000000000000000000000000000000000000000000611eb8565b50505050565b83600114806115fc57507f00000000000000000000000000000000000000000000000000000000000000006001600160a01b0316155b156116c357604080517f6e1e3bbf0000000000000000000000000000000000000000000000000000000081526001600160a01b03898116600483015260248201879052604482018990526064820188905260a06084830152600060a4830181905292517f000000000000000000000000000000000000000000000000000000000000000090911692636e1e3bbf9260e4808201939182900301818387803b1580156116a657600080fd5b505af11580156116ba573d6000803e3d6000fd5b50505050611827565b7f00000000000000000000000000000000000000000000000000000000000000006001600160a01b0316636e1e3bbf7f00000000000000000000000000000000000000000000000000000000000000008689898c60405160200180826001600160a01b03166001600160a01b031681526020019150506040516020818303038152906040526040518663ffffffff1660e01b815260040180866001600160a01b03166001600160a01b0316815260200185815260200184815260200183815260200180602001828103825283818151815260200191508051906020019080838360005b838110156117be5781810151838201526020016117a6565b50505050905090810190601f1680156117eb5780820380516001836020036101000a031916815260200191505b509650505050505050600060405180830381600087803b15801561180e57600080fd5b505af1158015611822573d6000803e3d6000fd5b505050505b60408051858152602081018590526001600160a01b03848116828401526060820184905291516101988802890192808b1692908c16917fe4dfa6ac11314892f3029b34a25b1a887da3b1cab2bbf8506d87128ba6e3ac029181900360800190a45050505050505050565b6060815167ffffffffffffffff811180156118ab57600080fd5b506040519080825280602002602001820160405280156118d5578160200160208202803683370190505b50905060005b82518110156119055760018282815181106118f257fe5b60209081029190910101526001016118db565b507f00000000000000000000000000000000000000000000000000000000000000006001600160a01b0316632eb2c2d6308585856040518563ffffffff1660e01b815260040180856001600160a01b03166001600160a01b03168152602001846001600160a01b03166001600160a01b03168152602001806020018060200180602001848103845286818151815260200191508051906020019060200280838360005b838110156119c05781810151838201526020016119a8565b50505050905001848103835285818151815260200191508051906020019060200280838360005b838110156119ff5781810151838201526020016119e7565b50505050905001848103825260008152602001602001975050505050505050600060405180830381600087803b158015611a3857600080fd5b505af1158015611a4c573d6000803e3d6000fd5b50505050505050565b60008151604114611a6557600080fd5b60208201516040830151606084015160001a601b811015611a8457601b015b8060ff16601b1480611a9957508060ff16601c145b611aa257600080fd5b6040805160008152602080820180845289905260ff8416828401526060820186905260808201859052915160019260a0808401939192601f1981019281900390910190855afa158015611af9573d6000803e3d6000fd5b5050604051601f1901519450506001600160a01b038416611b1957600080fd5b50505092915050565b600082611b3157506000611b92565b5081810281838281611b3f57fe5b0414611b92576040805162461bcd60e51b815260206004820152600860248201527f6f766572666c6f77000000000000000000000000000000000000000000000000604482015290519081900360640190fd5b92915050565b600081611bec576040805162461bcd60e51b815260206004820152600960248201527f64697662797a65726f0000000000000000000000000000000000000000000000604482015290519081900360640190fd5b818381611bf557fe5b049392505050565b60008787878787878760405160200180888152602001878152602001868152602001858152602001846001600160a01b03166001600160a01b031660601b8152601401838152602001828051906020019060200280838360005b83811015611c6f578181015183820152602001611c57565b50505050905001975050505050505050604051602081830303815290604052805190602001209050979650505050505050565b600081815b8451811015611d41576000858281518110611cbe57fe5b6020026020010151905080831015611d065782816040516020018083815260200182815260200192505050604051602081830303815290604052805190602001209250611d38565b808360405160200180838152602001828152602001925050506040516020818303038152906040528051906020012092505b50600101611ca7565b507f0000000000000000000000000000000000000000000000000000000000000000149392505050565b600080611d84606461133985600563ffffffff611b2216565b604080516323b872dd60e01b81526001600160a01b0387811660048301527f0000000000000000000000000000000000000000000000000000000000000000811660248301526044820184905291519293507f0000000000000000000000000000000000000000000000000000000000000000909116916323b872dd916064808201926020929091908290030181600087803b158015611e2357600080fd5b505af1158015611e37573d6000803e3d6000fd5b505050506040513d6020811015611e4d57600080fd5b5051611ea0576040805162461bcd60e51b815260206004820152601360248201527f4645455f5452414e534645525f4641494c454400000000000000000000000000604482015290519081900360640190fd5b611eb0838263ffffffff61213a16565b949350505050565b82518190859015612062576060600080600080611ed48a610a04565b9398509196509450925090506000611eef868686868661103a565b15611f7d57611f09611f018d84611b22565b612710611b98565b9050886001600160a01b0316846001600160a01b0316866001600160a01b03167fac7a699eb95c3c6d390ec4626de17ef9a67b35891efdb197beba7c7fdd45fac48f858760405180848152602001838152602001828152602001935050505060405180910390a4611f7a878261213a565b96505b801561205b57604080516323b872dd60e01b81526001600160a01b038f811660048301528781166024830152604482018490529151918a16916323b872dd916064808201926020929091908290030181600087803b158015611fde57600080fd5b505af1158015611ff2573d6000803e3d6000fd5b505050506040513d602081101561200857600080fd5b505161205b576040805162461bcd60e51b815260206004820152601960248201527f636f6d6d6973696f6e207472616e73666572206661696c656400000000000000604482015290519081900360640190fd5b5050505050505b604080516323b872dd60e01b81526001600160a01b0389811660048301528681166024830152604482018490529151918416916323b872dd916064808201926020929091908290030181600087803b1580156120bd57600080fd5b505af11580156120d1573d6000803e3d6000fd5b505050506040513d60208110156120e757600080fd5b5051611a4c576040805162461bcd60e51b815260206004820152601760248201527f7061796d656e74207472616e73666572206661696c6564000000000000000000604482015290519081900360640190fd5b600082821115612191576040805162461bcd60e51b815260206004820152600860248201527f756e6465666c6f77000000000000000000000000000000000000000000000000604482015290519081900360640190fd5b5090039056fe6f6e6c792061646d696e2063616e207365747570206d6574615472616e73616374696f6e50726f636573736f7273a26469706673582212200ff38c5741c66b2a22a9a9ee2abe0f55626323082b6b4443921fd3b25484584a64736f6c63430006050033",
  "devdoc": {
    "methods": {
      "buyLandWithSand(address,address,address,uint256,uint256,uint256,uint256,uint256,bytes32,uint256[],bytes32[],bytes)": {
        "params": {
          "buyer": "address that perform the payment",
          "priceInSand": "price in SAND to purchase that Land",
          "proof": "merkleProof for that particular Land",
          "reserved": "the reserved address (if any)",
          "size": "size of the pack of Land to purchase",
          "to": "address that will own the purchased Land",
          "x": "x coordinate of the Land",
          "y": "y coordinate of the Land"
        }
      },
      "changeAdmin(address)": {
        "details": "change the administrator to be `newAdmin`.",
        "params": {
          "newAdmin": "address of the new administrator."
        }
      },
      "getAdmin()": {
        "details": "gives the current administrator of this contract.",
        "returns": {
          "_0": "the current administrator of this contract."
        }
      },
      "getSigningWallet()": {
        "details": "signing wallet authorized for referral",
        "returns": {
          "_0": "the address of the signing wallet"
        }
      },
      "isMetaTransactionProcessor(address)": {
        "details": "check whether address `who` is given meta-transaction execution rights.",
        "params": {
          "who": "The address to query."
        },
        "returns": {
          "_0": "whether the address has meta-transaction execution rights."
        }
      },
      "isReferralValid(bytes,address,address,uint256,uint256)": {
        "params": {
          "commissionRate": "The commissionRate of the referral",
          "expiryTime": "The expiry time of the referral",
          "referee": "The address of the referee",
          "referrer": "The address of the referrer",
          "signature": "The signature to check (signed referral)"
        },
        "returns": {
          "_0": "True if the referral is valid"
        }
      },
      "setMetaTransactionProcessor(address,bool)": {
        "details": "Enable or disable the ability of `metaTransactionProcessor` to perform meta-tx (metaTransactionProcessor rights).",
        "params": {
          "enabled": "set whether the metaTransactionProcessor is enabled or disabled.",
          "metaTransactionProcessor": "address that will be given/removed metaTransactionProcessor rights."
        }
      },
      "setReceivingWallet(address)": {
        "params": {
          "newWallet": "address of the new receiving wallet"
        }
      },
      "updateMaxCommissionRate(uint256)": {
        "details": "Update the maximum commission rate",
        "params": {
          "newMaxCommissionRate": "The new maximum commission rate"
        }
      },
      "updateSigningWallet(address)": {
        "details": "Update the signing wallet",
        "params": {
          "newSigningWallet": "The new address of the signing wallet"
        }
      },
      "withdrawAssets(address,uint256[],uint256[])": {
        "params": {
          "assetIds": "the assetIds to be transferred",
          "to": "intended recipient of the asset tokens",
          "values": "the quantities of the assetIds to be transferred"
        }
      }
    },
    "title": "Estate Sale contract with referral"
  },
  "userdoc": {
    "methods": {
      "buyLandWithSand(address,address,address,uint256,uint256,uint256,uint256,uint256,bytes32,uint256[],bytes32[],bytes)": {
        "notice": "buy Land with SAND using the merkle proof associated with it"
      },
      "getExpiryTime()": {
        "notice": "Gets the expiry time for the current sale"
      },
      "getMaxCommisionRate()": {
        "notice": "the max commision rate"
      },
      "getMerkleRoot()": {
        "notice": "Gets the Merkle root associated with the current sale"
      },
      "isReferralValid(bytes,address,address,uint256,uint256)": {
        "notice": "Check if a referral is valid"
      },
      "setReceivingWallet(address)": {
        "notice": "set the wallet receiving the proceeds"
      },
      "withdrawAssets(address,uint256[],uint256[])": {
        "notice": "enable Admin to withdraw remaining assets from EstateSaleWithFee contract"
      }
    },
    "notice": "This contract manages the sale of our lands as Estates"
  },
  "storageLayout": {
    "storage": [
      {
        "astId": 12779,
        "contract": "src/solc_0.6/EstateSale/EstateSaleWithFee.sol:EstateSaleWithFee",
        "label": "_admin",
        "offset": 0,
        "slot": "0",
        "type": "t_address"
      },
      {
        "astId": 12841,
        "contract": "src/solc_0.6/EstateSale/EstateSaleWithFee.sol:EstateSaleWithFee",
        "label": "_metaTransactionContracts",
        "offset": 0,
        "slot": "1",
        "type": "t_mapping(t_address,t_bool)"
      },
      {
        "astId": 10957,
        "contract": "src/solc_0.6/EstateSale/EstateSaleWithFee.sol:EstateSaleWithFee",
        "label": "_signingWallet",
        "offset": 0,
        "slot": "2",
        "type": "t_address"
      },
      {
        "astId": 10959,
        "contract": "src/solc_0.6/EstateSale/EstateSaleWithFee.sol:EstateSaleWithFee",
        "label": "_maxCommissionRate",
        "offset": 0,
        "slot": "3",
        "type": "t_uint256"
      },
      {
        "astId": 10963,
        "contract": "src/solc_0.6/EstateSale/EstateSaleWithFee.sol:EstateSaleWithFee",
        "label": "_previousSigningWallets",
        "offset": 0,
        "slot": "4",
        "type": "t_mapping(t_address,t_uint256)"
      },
      {
        "astId": 10972,
        "contract": "src/solc_0.6/EstateSale/EstateSaleWithFee.sol:EstateSaleWithFee",
        "label": "_previousSigningDelay",
        "offset": 0,
        "slot": "5",
        "type": "t_uint256"
      },
      {
        "astId": 7344,
        "contract": "src/solc_0.6/EstateSale/EstateSaleWithFee.sol:EstateSaleWithFee",
        "label": "_wallet",
        "offset": 0,
        "slot": "6",
        "type": "t_address_payable"
      },
      {
        "astId": 7354,
        "contract": "src/solc_0.6/EstateSale/EstateSaleWithFee.sol:EstateSaleWithFee",
        "label": "_multiplier",
        "offset": 0,
        "slot": "7",
        "type": "t_uint256"
      }
    ],
    "types": {
      "t_address": {
        "encoding": "inplace",
        "label": "address",
        "numberOfBytes": "20"
      },
      "t_address_payable": {
        "encoding": "inplace",
        "label": "address payable",
        "numberOfBytes": "20"
      },
      "t_bool": {
        "encoding": "inplace",
        "label": "bool",
        "numberOfBytes": "1"
      },
      "t_mapping(t_address,t_bool)": {
        "encoding": "mapping",
        "key": "t_address",
        "label": "mapping(address => bool)",
        "numberOfBytes": "32",
        "value": "t_bool"
      },
      "t_mapping(t_address,t_uint256)": {
        "encoding": "mapping",
        "key": "t_address",
        "label": "mapping(address => uint256)",
        "numberOfBytes": "32",
        "value": "t_uint256"
      },
      "t_uint256": {
        "encoding": "inplace",
        "label": "uint256",
        "numberOfBytes": "32"
      }
    }
  }
}