{
  "address": "0xB6206D66971D3798f400847F2577954516BFE82e",
  "abi": [
    {
      "inputs": [
        {
          "internalType": "address",
          "name": "landAddress",
          "type": "address"
        },
        {
          "internalType": "address",
          "name": "sandContractAddress",
          "type": "address"
        },
        {
          "internalType": "address",
          "name": "initialMetaTx",
          "type": "address"
        },
        {
          "internalType": "address",
          "name": "admin",
          "type": "address"
        },
        {
          "internalType": "address payable",
          "name": "initialWalletAddress",
          "type": "address"
        },
        {
          "internalType": "bytes32",
          "name": "merkleRoot",
          "type": "bytes32"
        },
        {
          "internalType": "uint256",
          "name": "expiryTime",
          "type": "uint256"
        },
        {
          "internalType": "address",
          "name": "initialSigningWallet",
          "type": "address"
        },
        {
          "internalType": "uint256",
          "name": "initialMaxCommissionRate",
          "type": "uint256"
        },
        {
          "internalType": "address",
          "name": "estate",
          "type": "address"
        },
        {
          "internalType": "address",
          "name": "asset",
          "type": "address"
        },
        {
          "internalType": "address",
          "name": "feeDistributor",
          "type": "address"
        },
        {
          "internalType": "address",
          "name": "authValidator",
          "type": "address"
        }
      ],
      "stateMutability": "nonpayable",
      "type": "constructor"
    },
    {
      "anonymous": false,
      "inputs": [
        {
          "indexed": false,
          "internalType": "address",
          "name": "oldAdmin",
          "type": "address"
        },
        {
          "indexed": false,
          "internalType": "address",
          "name": "newAdmin",
          "type": "address"
        }
      ],
      "name": "AdminChanged",
      "type": "event"
    },
    {
      "anonymous": false,
      "inputs": [
        {
          "indexed": true,
          "internalType": "address",
          "name": "buyer",
          "type": "address"
        },
        {
          "indexed": true,
          "internalType": "address",
          "name": "to",
          "type": "address"
        },
        {
          "indexed": true,
          "internalType": "uint256",
          "name": "topCornerId",
          "type": "uint256"
        },
        {
          "indexed": false,
          "internalType": "uint256",
          "name": "size",
          "type": "uint256"
        },
        {
          "indexed": false,
          "internalType": "uint256",
          "name": "price",
          "type": "uint256"
        },
        {
          "indexed": false,
          "internalType": "address",
          "name": "token",
          "type": "address"
        },
        {
          "indexed": false,
          "internalType": "uint256",
          "name": "amountPaid",
          "type": "uint256"
        }
      ],
      "name": "LandQuadPurchased",
      "type": "event"
    },
    {
      "anonymous": false,
      "inputs": [
        {
          "indexed": false,
          "internalType": "address",
          "name": "metaTransactionProcessor",
          "type": "address"
        },
        {
          "indexed": false,
          "internalType": "bool",
          "name": "enabled",
          "type": "bool"
        }
      ],
      "name": "MetaTransactionProcessor",
      "type": "event"
    },
    {
      "anonymous": false,
      "inputs": [
        {
          "indexed": true,
          "internalType": "address",
          "name": "referrer",
          "type": "address"
        },
        {
          "indexed": true,
          "internalType": "address",
          "name": "referee",
          "type": "address"
        },
        {
          "indexed": true,
          "internalType": "address",
          "name": "token",
          "type": "address"
        },
        {
          "indexed": false,
          "internalType": "uint256",
          "name": "amount",
          "type": "uint256"
        },
        {
          "indexed": false,
          "internalType": "uint256",
          "name": "commission",
          "type": "uint256"
        },
        {
          "indexed": false,
          "internalType": "uint256",
          "name": "commissionRate",
          "type": "uint256"
        }
      ],
      "name": "ReferralUsed",
      "type": "event"
    },
    {
      "inputs": [
        {
          "internalType": "address",
          "name": "buyer",
          "type": "address"
        },
        {
          "internalType": "address",
          "name": "to",
          "type": "address"
        },
        {
          "internalType": "address",
          "name": "reserved",
          "type": "address"
        },
        {
          "internalType": "uint256[]",
          "name": "info",
          "type": "uint256[]"
        },
        {
          "internalType": "bytes32",
          "name": "salt",
          "type": "bytes32"
        },
        {
          "internalType": "uint256[]",
          "name": "assetIds",
          "type": "uint256[]"
        },
        {
          "internalType": "bytes32[]",
          "name": "proof",
          "type": "bytes32[]"
        },
        {
          "internalType": "bytes",
          "name": "referral",
          "type": "bytes"
        },
        {
          "internalType": "bytes",
          "name": "signature",
          "type": "bytes"
        }
      ],
      "name": "buyLandWithSand",
      "outputs": [],
      "stateMutability": "nonpayable",
      "type": "function"
    },
    {
      "inputs": [
        {
          "internalType": "address",
          "name": "newAdmin",
          "type": "address"
        }
      ],
      "name": "changeAdmin",
      "outputs": [],
      "stateMutability": "nonpayable",
      "type": "function"
    },
    {
      "inputs": [
        {
          "internalType": "bytes",
          "name": "referral",
          "type": "bytes"
        }
      ],
      "name": "decodeReferral",
      "outputs": [
        {
          "internalType": "bytes",
          "name": "",
          "type": "bytes"
        },
        {
          "internalType": "address",
          "name": "",
          "type": "address"
        },
        {
          "internalType": "address",
          "name": "",
          "type": "address"
        },
        {
          "internalType": "uint256",
          "name": "",
          "type": "uint256"
        },
        {
          "internalType": "uint256",
          "name": "",
          "type": "uint256"
        }
      ],
      "stateMutability": "pure",
      "type": "function"
    },
    {
      "inputs": [],
      "name": "getAdmin",
      "outputs": [
        {
          "internalType": "address",
          "name": "",
          "type": "address"
        }
      ],
      "stateMutability": "view",
      "type": "function"
    },
    {
      "inputs": [],
      "name": "getExpiryTime",
      "outputs": [
        {
          "internalType": "uint256",
          "name": "",
          "type": "uint256"
        }
      ],
      "stateMutability": "view",
      "type": "function"
    },
    {
      "inputs": [],
      "name": "getMaxCommisionRate",
      "outputs": [
        {
          "internalType": "uint256",
          "name": "",
          "type": "uint256"
        }
      ],
      "stateMutability": "view",
      "type": "function"
    },
    {
      "inputs": [],
      "name": "getMerkleRoot",
      "outputs": [
        {
          "internalType": "bytes32",
          "name": "",
          "type": "bytes32"
        }
      ],
      "stateMutability": "view",
      "type": "function"
    },
    {
      "inputs": [],
      "name": "getSigningWallet",
      "outputs": [
        {
          "internalType": "address",
          "name": "",
          "type": "address"
        }
      ],
      "stateMutability": "view",
      "type": "function"
    },
    {
      "inputs": [
        {
          "internalType": "address",
          "name": "who",
          "type": "address"
        }
      ],
      "name": "isMetaTransactionProcessor",
      "outputs": [
        {
          "internalType": "bool",
          "name": "",
          "type": "bool"
        }
      ],
      "stateMutability": "view",
      "type": "function"
    },
    {
      "inputs": [
        {
          "internalType": "bytes",
          "name": "signature",
          "type": "bytes"
        },
        {
          "internalType": "address",
          "name": "referrer",
          "type": "address"
        },
        {
          "internalType": "address",
          "name": "referee",
          "type": "address"
        },
        {
          "internalType": "uint256",
          "name": "expiryTime",
          "type": "uint256"
        },
        {
          "internalType": "uint256",
          "name": "commissionRate",
          "type": "uint256"
        }
      ],
      "name": "isReferralValid",
      "outputs": [
        {
          "internalType": "bool",
          "name": "",
          "type": "bool"
        }
      ],
      "stateMutability": "view",
      "type": "function"
    },
    {
      "inputs": [
        {
          "internalType": "address",
          "name": "",
          "type": "address"
        },
        {
          "internalType": "address",
          "name": "",
          "type": "address"
        },
        {
          "internalType": "uint256[]",
          "name": "",
          "type": "uint256[]"
        },
        {
          "internalType": "uint256[]",
          "name": "",
          "type": "uint256[]"
        },
        {
          "internalType": "bytes",
          "name": "",
          "type": "bytes"
        }
      ],
      "name": "onERC1155BatchReceived",
      "outputs": [
        {
          "internalType": "bytes4",
          "name": "",
          "type": "bytes4"
        }
      ],
      "stateMutability": "pure",
      "type": "function"
    },
    {
      "inputs": [
        {
          "internalType": "address",
          "name": "",
          "type": "address"
        },
        {
          "internalType": "address",
          "name": "",
          "type": "address"
        },
        {
          "internalType": "uint256",
          "name": "",
          "type": "uint256"
        },
        {
          "internalType": "uint256",
          "name": "",
          "type": "uint256"
        },
        {
          "internalType": "bytes",
          "name": "",
          "type": "bytes"
        }
      ],
      "name": "onERC1155Received",
      "outputs": [
        {
          "internalType": "bytes4",
          "name": "",
          "type": "bytes4"
        }
      ],
      "stateMutability": "pure",
      "type": "function"
    },
    {
      "inputs": [
        {
          "internalType": "address",
          "name": "metaTransactionProcessor",
          "type": "address"
        },
        {
          "internalType": "bool",
          "name": "enabled",
          "type": "bool"
        }
      ],
      "name": "setMetaTransactionProcessor",
      "outputs": [],
      "stateMutability": "nonpayable",
      "type": "function"
    },
    {
      "inputs": [
        {
          "internalType": "address payable",
          "name": "newWallet",
          "type": "address"
        }
      ],
      "name": "setReceivingWallet",
      "outputs": [],
      "stateMutability": "nonpayable",
      "type": "function"
    },
    {
      "inputs": [
        {
          "internalType": "uint256",
          "name": "newMaxCommissionRate",
          "type": "uint256"
        }
      ],
      "name": "updateMaxCommissionRate",
      "outputs": [],
      "stateMutability": "nonpayable",
      "type": "function"
    },
    {
      "inputs": [
        {
          "internalType": "address",
          "name": "newSigningWallet",
          "type": "address"
        }
      ],
      "name": "updateSigningWallet",
      "outputs": [],
      "stateMutability": "nonpayable",
      "type": "function"
    },
    {
      "inputs": [
        {
          "internalType": "address",
          "name": "to",
          "type": "address"
        },
        {
          "internalType": "uint256[]",
          "name": "assetIds",
          "type": "uint256[]"
        },
        {
          "internalType": "uint256[]",
          "name": "values",
          "type": "uint256[]"
        }
      ],
      "name": "withdrawAssets",
      "outputs": [],
      "stateMutability": "nonpayable",
      "type": "function"
    }
  ],
  "transactionHash": "0xe5229be026c4d8abf3c9ab73e14ad98cec7ebae633ea06e0b24b867f0feed8af",
  "args": [
    "0x5CC5B05a8A13E3fBDB0BB9FcCd98D38e50F90c38",
    "0x3845badAde8e6dFF049820680d1F14bD3903a5d0",
    "0x3845badAde8e6dFF049820680d1F14bD3903a5d0",
    "0xEAA0993E1d21c2103e4f172a20D29371FbAF6D06",
    "0x4489590a116618B506F0EfE885432F6A8ED998E9",
    "0xbd68a9e0e806f124d57bce58243a64d7ad882f4549e59c2592777bea8b43ff8b",
    1651755600,
    "0x3044719d139F866a44c988823513eCB93060bF1b",
    2000,
    "0x0000000000000000000000000000000000000000",
    "0xa342f5D851E866E18ff98F351f2c6637f4478dB5",
    "0x0EB04462D69B1D267d269377E34f60b9De1c8510",
    "0x459EA8c295069d4cd16c025b9fa5cA3E4C5AA468"
  ],
  "numDeployments": 1,
  "linkedData": [
    {
      "x": 312,
      "y": 393,
      "size": 1,
      "price": "4683000000000000000000",
      "reserved": "",
      "salt": "0xa566a5f7c0c4b92d7828bd0c0b0b55d4c7470cce3261be5b3d8ae34bbd7b428b",
      "assetIds": [
        "55464657044963196816950587289035428064568320970692304673817341489688596187136",
        "55464657044963196816950587289035428064568320970692304673817341489688587816962",
        "55464657044963196816950587289035428064568320970692304673817341489688587816968",
        "55464657044963196816950587289035428064568320970692304673817341489688587816961"
      ]
    },
    {
      "x": 312,
      "y": 394,
      "size": 1,
      "price": "4683000000000000000000",
      "reserved": "",
      "salt": "0x816ff6f65f6714d366f4ba003c9208b583065f46dd36aebb738e91fd405d100d",
      "assetIds": [
        "55464657044963196816950587289035428064568320970692304673817341489688587816968",
        "55464657044963196816950587289035428064568320970692304673817341489688587816964",
        "55464657044963196816950587289035428064568320970692304673817341489688587816963",
        "55464657044963196816950587289035428064568320970692304673817341489688587816960"
      ]
    },
    {
      "x": 312,
      "y": 395,
      "size": 1,
      "price": "4683000000000000000000",
      "reserved": "",
      "salt": "0x99a99985c7cecc61ecc963a2f90b214fb84a45b08cb71f3db26521f0c3edec9f",
      "assetIds": [
        "55464657044963196816950587289035428064568320970692304673817341489688587816968",
        "55464657044963196816950587289035428064568320970692304673817341489688587816964",
        "55464657044963196816950587289035428064568320970692304673817341489688587816963",
        "55464657044963196816950587289035428064568320970692304673817341489688587816960"
      ]
    },
    {
      "x": 312,
      "y": 396,
      "size": 1,
      "price": "4683000000000000000000",
      "reserved": "",
      "salt": "0xc126b04eddf5123ab066c485bd56f46dffc9bbed02102868663ed2077839087c",
      "assetIds": [
        "55464657044963196816950587289035428064568320970692304673817341489688596187136",
        "55464657044963196816950587289035428064568320970692304673817341489688587816962",
        "55464657044963196816950587289035428064568320970692304673817341489688587816968",
        "55464657044963196816950587289035428064568320970692304673817341489688587816961"
      ]
    },
    {
      "x": 312,
      "y": 397,
      "size": 1,
      "price": "4683000000000000000000",
      "reserved": "",
      "salt": "0xa9204f518264949d638797537b70f7f6d709b5de5cfa7d3839b207c63c3b9830",
      "assetIds": [
        "55464657044963196816950587289035428064568320970692304673817341489688596187136",
        "55464657044963196816950587289035428064568320970692304673817341489688587816962",
        "55464657044963196816950587289035428064568320970692304673817341489688587816961",
        "55464657044963196816950587289035428064568320970692304673817341489688587816963"
      ]
    },
    {
      "x": 312,
      "y": 398,
      "size": 1,
      "price": "4683000000000000000000",
      "reserved": "",
      "salt": "0x434ec5532c1090f2d36785b61b98632ea29f8fbc229007b60a01849fecce578c",
      "assetIds": [
        "55464657044963196816950587289035428064568320970692304673817341489688596187136",
        "55464657044963196816950587289035428064568320970692304673817341489688587816962",
        "55464657044963196816950587289035428064568320970692304673817341489688587816968",
        "55464657044963196816950587289035428064568320970692304673817341489688587816961"
      ]
    },
    {
      "x": 312,
      "y": 399,
      "size": 1,
      "price": "4683000000000000000000",
      "reserved": "",
      "salt": "0x4f54f2e0e0c89f9e0df8eefaf1718e349ef37ec2012d687a21c4be36e524a607",
      "assetIds": [
        "55464657044963196816950587289035428064568320970692304673817341489688587816967",
        "55464657044963196816950587289035428064568320970692304673817341489688587816968",
        "55464657044963196816950587289035428064568320970692304673817341489688587816965",
        "55464657044963196816950587289035428064568320970692304673817341489688587816966"
      ]
    },
    {
      "x": 312,
      "y": 400,
      "size": 1,
      "price": "4683000000000000000000",
      "reserved": "",
      "salt": "0x3dfbbc00fed8cdf9424d8090ae8729f1d6b5fbffc4b9f162a3ee2dab124d4b60",
      "assetIds": [
        "55464657044963196816950587289035428064568320970692304673817341489688596187136",
        "55464657044963196816950587289035428064568320970692304673817341489688587816962",
        "55464657044963196816950587289035428064568320970692304673817341489688587816961",
        "55464657044963196816950587289035428064568320970692304673817341489688587816963"
      ]
    },
    {
      "x": 312,
      "y": 401,
      "size": 1,
      "price": "4683000000000000000000",
      "reserved": "",
      "salt": "0xcfce10e9408eb5477cb9418483ca67dc729da70f5317fa143e7cc7c56a49e51c",
      "assetIds": [
        "55464657044963196816950587289035428064568320970692304673817341489688587816967",
        "55464657044963196816950587289035428064568320970692304673817341489688587816968",
        "55464657044963196816950587289035428064568320970692304673817341489688587816965",
        "55464657044963196816950587289035428064568320970692304673817341489688587816966"
      ]
    },
    {
      "x": 312,
      "y": 405,
      "size": 1,
      "price": "4683000000000000000000",
      "reserved": "",
      "salt": "0x1162b9dc748d06b4ea2e16ea6cd4668204e36101267743973f9caeb3c4708a04",
      "assetIds": [
        "55464657044963196816950587289035428064568320970692304673817341489688596187136",
        "55464657044963196816950587289035428064568320970692304673817341489688587816965",
        "55464657044963196816950587289035428064568320970692304673817341489688587816964",
        "55464657044963196816950587289035428064568320970692304673817341489688587816966"
      ]
    },
    {
      "x": 312,
      "y": 406,
      "size": 1,
      "price": "4683000000000000000000",
      "reserved": "",
      "salt": "0xec7ff45ce59598e1d3cad66adab2773afe73f886ed25bd9bb4beec933c41c2cd",
      "assetIds": [
        "55464657044963196816950587289035428064568320970692304673817341489688596187136",
        "55464657044963196816950587289035428064568320970692304673817341489688587816962",
        "55464657044963196816950587289035428064568320970692304673817341489688587816967",
        "55464657044963196816950587289035428064568320970692304673817341489688587816961"
      ]
    },
    {
      "x": 312,
      "y": 407,
      "size": 1,
      "price": "4683000000000000000000",
      "reserved": "",
      "salt": "0xd749ad438c7a5150f149820d88b7b04e84cfb6cf343b33cf9f7bb12afeb38137",
      "assetIds": [
        "55464657044963196816950587289035428064568320970692304673817341489688587816967",
        "55464657044963196816950587289035428064568320970692304673817341489688587816968",
        "55464657044963196816950587289035428064568320970692304673817341489688587816965",
        "55464657044963196816950587289035428064568320970692304673817341489688587816966"
      ]
    },
    {
      "x": 313,
      "y": 393,
      "size": 1,
      "price": "4683000000000000000000",
      "reserved": "",
      "salt": "0x2faaf26f1e9d03c204e544bf9b9e0f57b71eccabe6ef59a15cf383c9b91b02c0",
      "assetIds": [
        "55464657044963196816950587289035428064568320970692304673817341489688596187136",
        "55464657044963196816950587289035428064568320970692304673817341489688587816965",
        "55464657044963196816950587289035428064568320970692304673817341489688587816964",
        "55464657044963196816950587289035428064568320970692304673817341489688587816966"
      ]
    },
    {
      "x": 313,
      "y": 394,
      "size": 1,
      "price": "4683000000000000000000",
      "reserved": "",
      "salt": "0xb113f0c81179f5af078d1391b9d63db30e930c0c17f99975ada47b17e9f6a977",
      "assetIds": [
        "55464657044963196816950587289035428064568320970692304673817341489688596187136",
        "55464657044963196816950587289035428064568320970692304673817341489688587816965",
        "55464657044963196816950587289035428064568320970692304673817341489688587816964",
        "55464657044963196816950587289035428064568320970692304673817341489688587816966"
      ]
    },
    {
      "x": 313,
      "y": 395,
      "size": 1,
      "price": "4683000000000000000000",
      "reserved": "",
      "salt": "0x5c0b3d7cc44e462e0a40cea840aa92799b6a7dafcbe59228aeecd26189cb1b89",
      "assetIds": [
        "55464657044963196816950587289035428064568320970692304673817341489688596187136",
        "55464657044963196816950587289035428064568320970692304673817341489688587816962",
        "55464657044963196816950587289035428064568320970692304673817341489688587816961",
        "55464657044963196816950587289035428064568320970692304673817341489688587816963"
      ]
    },
    {
      "x": 313,
      "y": 396,
      "size": 1,
      "price": "4683000000000000000000",
      "reserved": "",
      "salt": "0x6ad5dc9933d99d420b2a758ce21df37698515ca635688e1c615585fb00be98d5",
      "assetIds": [
        "55464657044963196816950587289035428064568320970692304673817341489688596187136",
        "55464657044963196816950587289035428064568320970692304673817341489688587816962",
        "55464657044963196816950587289035428064568320970692304673817341489688587816968",
        "55464657044963196816950587289035428064568320970692304673817341489688587816961"
      ]
    },
    {
      "x": 313,
      "y": 397,
      "size": 1,
      "price": "4683000000000000000000",
      "reserved": "",
      "salt": "0xeab95c653f64c1640ce0b36394657a717109e5c04681e83d0c4a3b7887793e70",
      "assetIds": [
        "55464657044963196816950587289035428064568320970692304673817341489688596187136",
        "55464657044963196816950587289035428064568320970692304673817341489688587816965",
        "55464657044963196816950587289035428064568320970692304673817341489688587816964",
        "55464657044963196816950587289035428064568320970692304673817341489688587816966"
      ]
    },
    {
      "x": 313,
      "y": 398,
      "size": 1,
      "price": "4683000000000000000000",
      "reserved": "",
      "salt": "0x40bb289b3c450b55ed354dffba6a2a840d0b119be5352df5fa22b37628f1fdba",
      "assetIds": [
        "55464657044963196816950587289035428064568320970692304673817341489688596187136",
        "55464657044963196816950587289035428064568320970692304673817341489688587816965",
        "55464657044963196816950587289035428064568320970692304673817341489688587816964",
        "55464657044963196816950587289035428064568320970692304673817341489688587816966"
      ]
    },
    {
      "x": 313,
      "y": 399,
      "size": 1,
      "price": "4683000000000000000000",
      "reserved": "",
      "salt": "0xb7d377344da5231f8e4d291002fe0e61a6bcf1ed17156c467d787929730e4c1f",
      "assetIds": [
        "55464657044963196816950587289035428064568320970692304673817341489688587816967",
        "55464657044963196816950587289035428064568320970692304673817341489688587816968",
        "55464657044963196816950587289035428064568320970692304673817341489688587816965",
        "55464657044963196816950587289035428064568320970692304673817341489688587816966"
      ]
    },
    {
      "x": 313,
      "y": 400,
      "size": 1,
      "price": "4683000000000000000000",
      "reserved": "",
      "salt": "0xf908354932961d928fdd01f308da74e37a7400be167496056549149c5e151edc",
      "assetIds": [
        "55464657044963196816950587289035428064568320970692304673817341489688587816967",
        "55464657044963196816950587289035428064568320970692304673817341489688587816965",
        "55464657044963196816950587289035428064568320970692304673817341489688587816964",
        "55464657044963196816950587289035428064568320970692304673817341489688587816960"
      ]
    },
    {
      "x": 313,
      "y": 401,
      "size": 1,
      "price": "4683000000000000000000",
      "reserved": "",
      "salt": "0x60d73bc429e3cc480524272f1526868538374416fabe91209c1c53aec31eca3f",
      "assetIds": [
        "55464657044963196816950587289035428064568320970692304673817341489688596187136",
        "55464657044963196816950587289035428064568320970692304673817341489688587816962",
        "55464657044963196816950587289035428064568320970692304673817341489688587816968",
        "55464657044963196816950587289035428064568320970692304673817341489688587816961"
      ]
    },
    {
      "x": 313,
      "y": 405,
      "size": 1,
      "price": "4683000000000000000000",
      "reserved": "",
      "salt": "0x6e5d748d6af10acad9950381d09895f13723f3b3b97fe054adb6bf4af9aa5436",
      "assetIds": [
        "55464657044963196816950587289035428064568320970692304673817341489688587816968",
        "55464657044963196816950587289035428064568320970692304673817341489688587816964",
        "55464657044963196816950587289035428064568320970692304673817341489688587816963",
        "55464657044963196816950587289035428064568320970692304673817341489688587816960"
      ]
    },
    {
      "x": 313,
      "y": 406,
      "size": 1,
      "price": "4683000000000000000000",
      "reserved": "",
      "salt": "0x2256602715454a5fefc0786a016c0c2c84a161b92a82e0787195735e554868c0",
      "assetIds": [
        "55464657044963196816950587289035428064568320970692304673817341489688587816967",
        "55464657044963196816950587289035428064568320970692304673817341489688587816965",
        "55464657044963196816950587289035428064568320970692304673817341489688587816964",
        "55464657044963196816950587289035428064568320970692304673817341489688587816960"
      ]
    },
    {
      "x": 313,
      "y": 407,
      "size": 1,
      "price": "4683000000000000000000",
      "reserved": "",
      "salt": "0x77163ecd48759bf72d073f8e24f4ab10fbd6a07e22e85876060088b5a8e622d3",
      "assetIds": [
        "55464657044963196816950587289035428064568320970692304673817341489688596187136",
        "55464657044963196816950587289035428064568320970692304673817341489688587816962",
        "55464657044963196816950587289035428064568320970692304673817341489688587816967",
        "55464657044963196816950587289035428064568320970692304673817341489688587816961"
      ]
    },
    {
      "x": 314,
      "y": 393,
      "size": 1,
      "price": "1011000000000000000000",
      "reserved": "",
      "salt": "0x9ddaa9a713475d7fbf2b2faae0739384b2f5bba7cc1e41877be2d37197f862a4",
      "assetIds": []
    },
    {
      "x": 314,
      "y": 394,
      "size": 1,
      "price": "1011000000000000000000",
      "reserved": "",
      "salt": "0xf42b0f64bb569b0c77e8548fb714ba5207c34bed3bb4b6dffe0d551f8405b445",
      "assetIds": []
    },
    {
      "x": 314,
      "y": 395,
      "size": 1,
      "price": "1011000000000000000000",
      "reserved": "",
      "salt": "0xcc6d174d13cbf4754204c95b7f5913ce1c6cef2896be30b7ba2115a37a721e3d",
      "assetIds": []
    },
    {
      "x": 314,
      "y": 396,
      "size": 1,
      "price": "1011000000000000000000",
      "reserved": "",
      "salt": "0x5e47e1001af7a8dc02699321d822ca430e221d0611d7d56e2953f2c192716ecf",
      "assetIds": []
    },
    {
      "x": 314,
      "y": 397,
      "size": 1,
      "price": "4683000000000000000000",
      "reserved": "",
      "salt": "0xc7f7d3c59a8b8b0120a412f7cf6cfa252d8e48a0f8154ab0598c196be57e6472",
      "assetIds": [
        "55464657044963196816950587289035428064568320970692304673817341489688587816967",
        "55464657044963196816950587289035428064568320970692304673817341489688587816965",
        "55464657044963196816950587289035428064568320970692304673817341489688587816964",
        "55464657044963196816950587289035428064568320970692304673817341489688587816960"
      ]
    },
    {
      "x": 314,
      "y": 398,
      "size": 1,
      "price": "4683000000000000000000",
      "reserved": "",
      "salt": "0x987db0107dc149115825e0d046b9838f9364642e238bb212e9d46f12b4c45801",
      "assetIds": [
        "55464657044963196816950587289035428064568320970692304673817341489688596187136",
        "55464657044963196816950587289035428064568320970692304673817341489688587816965",
        "55464657044963196816950587289035428064568320970692304673817341489688587816964",
        "55464657044963196816950587289035428064568320970692304673817341489688587816966"
      ]
    },
    {
      "x": 314,
      "y": 399,
      "size": 1,
      "price": "1011000000000000000000",
      "reserved": "0x7a9fe22691c811ea339d9b73150e6911a5343dca",
      "salt": "0x736e111f341e4f180aca77e93eededed3688755b8d72b3392e194f4fc3362647",
      "assetIds": []
    },
    {
      "x": 314,
      "y": 400,
      "size": 1,
      "price": "4683000000000000000000",
      "reserved": "",
      "salt": "0x47e7b734c1ed097b6fa6a04661f7800ce9488f5e6e51160a81b17023e74cc3aa",
      "assetIds": [
        "55464657044963196816950587289035428064568320970692304673817341489688587816968",
        "55464657044963196816950587289035428064568320970692304673817341489688587816964",
        "55464657044963196816950587289035428064568320970692304673817341489688587816963",
        "55464657044963196816950587289035428064568320970692304673817341489688587816960"
      ]
    },
    {
      "x": 314,
      "y": 401,
      "size": 1,
      "price": "1011000000000000000000",
      "reserved": "0x7a9fe22691c811ea339d9b73150e6911a5343dca",
      "salt": "0x82f8db769f9a3b4c025908c8b1262548f6b59b3e88278bd53b2b576ce5a94be4",
      "assetIds": []
    },
    {
      "x": 314,
      "y": 405,
      "size": 1,
      "price": "1011000000000000000000",
      "reserved": "0x7a9fe22691c811ea339d9b73150e6911a5343dca",
      "salt": "0x8972431c23d0243cb234cb17b921b6b24b7e966e72e66b4190202d6da5a2f615",
      "assetIds": []
    },
    {
      "x": 314,
      "y": 406,
      "size": 1,
      "price": "4683000000000000000000",
      "reserved": "",
      "salt": "0x716f67c13ccff64499d7182377f91fb7b52df8e4c7c03abd095511cf35092fbc",
      "assetIds": [
        "55464657044963196816950587289035428064568320970692304673817341489688596187136",
        "55464657044963196816950587289035428064568320970692304673817341489688587816965",
        "55464657044963196816950587289035428064568320970692304673817341489688587816964",
        "55464657044963196816950587289035428064568320970692304673817341489688587816966"
      ]
    },
    {
      "x": 314,
      "y": 407,
      "size": 1,
      "price": "1011000000000000000000",
      "reserved": "0x7a9fe22691c811ea339d9b73150e6911a5343dca",
      "salt": "0x50f59b5f500d9dccc49d648e3834192c45978a29c654a78dfcaeeee4284bd0b4",
      "assetIds": []
    },
    {
      "x": 315,
      "y": 390,
      "size": 1,
      "price": "1011000000000000000000",
      "reserved": "",
      "salt": "0x866d6cb3b0c2afbacf706244ff5614faf3658e4d319b97066a8eb19bcfc2c130",
      "assetIds": []
    },
    {
      "x": 315,
      "y": 391,
      "size": 1,
      "price": "1011000000000000000000",
      "reserved": "",
      "salt": "0x629c98b0c4de8a87eefb01082a845723d0e813cc02cfbddf2a1d3c58a58733a4",
      "assetIds": []
    },
    {
      "x": 315,
      "y": 392,
      "size": 1,
      "price": "1011000000000000000000",
      "reserved": "",
      "salt": "0xe0b92629176b5d4b6a9f695c6fcc8183c654f3b889408c46a234faf7994b2fd6",
      "assetIds": []
    },
    {
      "x": 315,
      "y": 396,
      "size": 1,
      "price": "1011000000000000000000",
      "reserved": "",
      "salt": "0x645aff8c9cd0ad0c665dfcc5592e89447271ac3e53401544bfaba371e9bc3cae",
      "assetIds": []
    },
    {
      "x": 315,
      "y": 397,
      "size": 1,
      "price": "4683000000000000000000",
      "reserved": "",
      "salt": "0x53ca183371001fcbb91223d643aa879153891764cd061b8a7f863f5d567995d4",
      "assetIds": [
        "55464657044963196816950587289035428064568320970692304673817341489688596187136",
        "55464657044963196816950587289035428064568320970692304673817341489688587816962",
        "55464657044963196816950587289035428064568320970692304673817341489688587816967",
        "55464657044963196816950587289035428064568320970692304673817341489688587816961"
      ]
    },
    {
      "x": 315,
      "y": 398,
      "size": 1,
      "price": "1011000000000000000000",
      "reserved": "0x7a9fe22691c811ea339d9b73150e6911a5343dca",
      "salt": "0x4adb681e7af291c02ef552b4a211de712a501bd89022aab56deb3d26d588fc45",
      "assetIds": []
    },
    {
      "x": 316,
      "y": 390,
      "size": 1,
      "price": "1011000000000000000000",
      "reserved": "",
      "salt": "0x81577fc89904e992167ea46882ffa9cafcb605551202800613f3a09b7d807aa6",
      "assetIds": []
    },
    {
      "x": 316,
      "y": 391,
      "size": 1,
      "price": "1011000000000000000000",
      "reserved": "",
      "salt": "0xf8513da269ce4182dc9a980cb8664975edfc6841ac15657c2ed0f02be95bd855",
      "assetIds": []
    },
    {
      "x": 316,
      "y": 392,
      "size": 1,
      "price": "4683000000000000000000",
      "reserved": "",
      "salt": "0x52e6cddf031713109a406b8f4e2457057aa4dbbe716c2b01d8affa2297023e3e",
      "assetIds": [
        "55464657044963196816950587289035428064568320970692304673817341489688587816967",
        "55464657044963196816950587289035428064568320970692304673817341489688587816965",
        "55464657044963196816950587289035428064568320970692304673817341489688587816964",
        "55464657044963196816950587289035428064568320970692304673817341489688587816960"
      ]
    },
    {
      "x": 316,
      "y": 396,
      "size": 1,
      "price": "4683000000000000000000",
      "reserved": "",
      "salt": "0x3fda1201886b42a93de7c7c3c7a09939cb112eb19b9ccbd984d6d109e3760dcb",
      "assetIds": [
        "55464657044963196816950587289035428064568320970692304673817341489688596187136",
        "55464657044963196816950587289035428064568320970692304673817341489688587816962",
        "55464657044963196816950587289035428064568320970692304673817341489688587816961",
        "55464657044963196816950587289035428064568320970692304673817341489688587816963"
      ]
    },
    {
      "x": 316,
      "y": 397,
      "size": 1,
      "price": "4683000000000000000000",
      "reserved": "",
      "salt": "0x17cb9e32e00c05ac5a5aa76d84115f9404424820cd240ba9eb5a49d33a0c133e",
      "assetIds": [
        "55464657044963196816950587289035428064568320970692304673817341489688596187136",
        "55464657044963196816950587289035428064568320970692304673817341489688587816965",
        "55464657044963196816950587289035428064568320970692304673817341489688587816964",
        "55464657044963196816950587289035428064568320970692304673817341489688587816966"
      ]
    },
    {
      "x": 316,
      "y": 398,
      "size": 1,
      "price": "4683000000000000000000",
      "reserved": "",
      "salt": "0xbbc1de09a658e300fbeb3f36bb82f4fd0d4736c2f48460344afdefd664e959d1",
      "assetIds": [
        "55464657044963196816950587289035428064568320970692304673817341489688596187136",
        "55464657044963196816950587289035428064568320970692304673817341489688587816962",
        "55464657044963196816950587289035428064568320970692304673817341489688587816968",
        "55464657044963196816950587289035428064568320970692304673817341489688587816961"
      ]
    },
    {
      "x": 317,
      "y": 390,
      "size": 1,
      "price": "1011000000000000000000",
      "reserved": "0x7a9fe22691c811ea339d9b73150e6911a5343dca",
      "salt": "0x6e04d9666764cd50f4f6e3975b113afe4cc3f8250d93a48f45b7121e825bdf13",
      "assetIds": []
    },
    {
      "x": 317,
      "y": 391,
      "size": 1,
      "price": "4683000000000000000000",
      "reserved": "",
      "salt": "0x34670b5904f5444a979e3e3c9e6c815bd9a9affe0e9b812518e11f69e2cf085b",
      "assetIds": [
        "55464657044963196816950587289035428064568320970692304673817341489688596187136",
        "55464657044963196816950587289035428064568320970692304673817341489688587816962",
        "55464657044963196816950587289035428064568320970692304673817341489688587816961",
        "55464657044963196816950587289035428064568320970692304673817341489688587816963"
      ]
    },
    {
      "x": 317,
      "y": 392,
      "size": 1,
      "price": "1011000000000000000000",
      "reserved": "0x7a9fe22691c811ea339d9b73150e6911a5343dca",
      "salt": "0xe78e9e98f00f2c8b800cb0e1ea856309b6ec6225ed387da076619c3dbff247f6",
      "assetIds": []
    },
    {
      "x": 317,
      "y": 396,
      "size": 1,
      "price": "1011000000000000000000",
      "reserved": "0x7a9fe22691c811ea339d9b73150e6911a5343dca",
      "salt": "0x05f067bc960ac3e461adde3bf832f760ca94d35c1fde63525eaa6b9d10721ae4",
      "assetIds": []
    },
    {
      "x": 317,
      "y": 397,
      "size": 1,
      "price": "4683000000000000000000",
      "reserved": "",
      "salt": "0x38fa5efa96e87d2e288de2a94e006511e0aafc7d0d53ae92eb98084f8cd3939b",
      "assetIds": [
        "55464657044963196816950587289035428064568320970692304673817341489688596187136",
        "55464657044963196816950587289035428064568320970692304673817341489688587816962",
        "55464657044963196816950587289035428064568320970692304673817341489688587816961",
        "55464657044963196816950587289035428064568320970692304673817341489688587816963"
      ]
    },
    {
      "x": 317,
      "y": 398,
      "size": 1,
      "price": "1011000000000000000000",
      "reserved": "0x7a9fe22691c811ea339d9b73150e6911a5343dca",
      "salt": "0x20ef2a63b08092ae46dc17d15479459024d243064427369439fe11fde5d81834",
      "assetIds": []
    },
    {
      "x": 318,
      "y": 384,
      "size": 1,
      "price": "1011000000000000000000",
      "reserved": "",
      "salt": "0xf91753a6be859a9acaf01c0879fce774248869961c0bb74559116dfbbfe02fda",
      "assetIds": []
    },
    {
      "x": 318,
      "y": 385,
      "size": 1,
      "price": "1011000000000000000000",
      "reserved": "",
      "salt": "0xa432fb59035a03a1e4230591f5de07673dd6d5a6c508aa26717de29a339117e4",
      "assetIds": []
    },
    {
      "x": 318,
      "y": 386,
      "size": 1,
      "price": "1011000000000000000000",
      "reserved": "",
      "salt": "0xe18e72a469fd0d32168583611b72c6d6951d2c8b40b91f37c593cae014dd9a3f",
      "assetIds": []
    },
    {
      "x": 318,
      "y": 387,
      "size": 1,
      "price": "1011000000000000000000",
      "reserved": "",
      "salt": "0x7bdbbea45139c1edcbe77234b0a7244b2758b3181bc25e2ea73756f9e4e4fc27",
      "assetIds": []
    },
    {
      "x": 318,
      "y": 388,
      "size": 1,
      "price": "1011000000000000000000",
      "reserved": "",
      "salt": "0x722e9343e6ad378bb6b274e7391852af8d3670b1de58134970902539788e18a0",
      "assetIds": []
    },
    {
      "x": 318,
      "y": 389,
      "size": 1,
      "price": "4683000000000000000000",
      "reserved": "",
      "salt": "0xf2a48d408ea6baa6484c441934c8db2b010705a4fe6c0a7e32a5e0d1915182c4",
      "assetIds": [
        "55464657044963196816950587289035428064568320970692304673817341489688587816967",
        "55464657044963196816950587289035428064568320970692304673817341489688587816968",
        "55464657044963196816950587289035428064568320970692304673817341489688587816965",
        "55464657044963196816950587289035428064568320970692304673817341489688587816966"
      ]
    },
    {
      "x": 318,
      "y": 399,
      "size": 1,
      "price": "1011000000000000000000",
      "reserved": "0x7a9fe22691c811ea339d9b73150e6911a5343dca",
      "salt": "0xaa291e171628fe18d3e0ca19d44bd5a76a64f2bcfb21ff23f5a631229be664e3",
      "assetIds": []
    },
    {
      "x": 318,
      "y": 400,
      "size": 1,
      "price": "4683000000000000000000",
      "reserved": "",
      "salt": "0x37cf11373d912d32e2495f54a01e803020a86c8895540d336b005711389788a9",
      "assetIds": [
        "55464657044963196816950587289035428064568320970692304673817341489688596187136",
        "55464657044963196816950587289035428064568320970692304673817341489688587816962",
        "55464657044963196816950587289035428064568320970692304673817341489688587816967",
        "55464657044963196816950587289035428064568320970692304673817341489688587816961"
      ]
    },
    {
      "x": 318,
      "y": 401,
      "size": 1,
      "price": "1011000000000000000000",
      "reserved": "0x7a9fe22691c811ea339d9b73150e6911a5343dca",
      "salt": "0x6ae9d823516b4409198fdfb85286eb583e993e39a0b2913c2519458519a22069",
      "assetIds": []
    },
    {
      "x": 318,
      "y": 402,
      "size": 1,
      "price": "1011000000000000000000",
      "reserved": "",
      "salt": "0x64013f91d2c1c8d31fc6f338e2a49bedbcbcba5159d383269a1ed940ad4a1eee",
      "assetIds": []
    },
    {
      "x": 318,
      "y": 403,
      "size": 1,
      "price": "1011000000000000000000",
      "reserved": "",
      "salt": "0x806786762aad158133a7ff3ff24bc1cf664013dd7181e36b7f2da47d4b912f56",
      "assetIds": []
    },
    {
      "x": 318,
      "y": 404,
      "size": 1,
      "price": "1011000000000000000000",
      "reserved": "",
      "salt": "0x9ea3c46134a43f08883cc6e0a5dea38abcb6769c32e6455e95c16b53c509dcfe",
      "assetIds": []
    },
    {
      "x": 318,
      "y": 405,
      "size": 1,
      "price": "1011000000000000000000",
      "reserved": "0x7a9fe22691c811ea339d9b73150e6911a5343dca",
      "salt": "0xb711c768bc13fb1a124af2bcd7454784a6620bbb05f5a6645c797cdb3236d343",
      "assetIds": []
    },
    {
      "x": 318,
      "y": 406,
      "size": 1,
      "price": "4683000000000000000000",
      "reserved": "",
      "salt": "0x1b0682ec3e0df83e7a3ee7062562d7fd6132a8df37b316bbb2237bf7b7efe036",
      "assetIds": [
        "55464657044963196816950587289035428064568320970692304673817341489688587816967",
        "55464657044963196816950587289035428064568320970692304673817341489688587816965",
        "55464657044963196816950587289035428064568320970692304673817341489688587816964",
        "55464657044963196816950587289035428064568320970692304673817341489688587816960"
      ]
    },
    {
      "x": 318,
      "y": 407,
      "size": 1,
      "price": "1011000000000000000000",
      "reserved": "0x7a9fe22691c811ea339d9b73150e6911a5343dca",
      "salt": "0xe0b16c5f82ea2e0a21c74de6c913a6521468fbbd763d40132d874ce89e874d39",
      "assetIds": []
    },
    {
      "x": 319,
      "y": 384,
      "size": 1,
      "price": "4683000000000000000000",
      "reserved": "",
      "salt": "0x4ed87c1ba35910d36c6fe3975f455510742c3a476012fdc07f6aad63b93e7014",
      "assetIds": [
        "55464657044963196816950587289035428064568320970692304673817341489688587816967",
        "55464657044963196816950587289035428064568320970692304673817341489688587816968",
        "55464657044963196816950587289035428064568320970692304673817341489688587816965",
        "55464657044963196816950587289035428064568320970692304673817341489688587816966"
      ]
    },
    {
      "x": 319,
      "y": 385,
      "size": 1,
      "price": "4683000000000000000000",
      "reserved": "",
      "salt": "0x014ac8caa6ddbb932815a6d8ec936ffa7a069982df6fc84c23e6ba4a3e83cae3",
      "assetIds": [
        "55464657044963196816950587289035428064568320970692304673817341489688596187136",
        "55464657044963196816950587289035428064568320970692304673817341489688587816962",
        "55464657044963196816950587289035428064568320970692304673817341489688587816968",
        "55464657044963196816950587289035428064568320970692304673817341489688587816961"
      ]
    },
    {
      "x": 319,
      "y": 386,
      "size": 1,
      "price": "4683000000000000000000",
      "reserved": "",
      "salt": "0xecad17659cb8cfe8d24cde6dabd4a7fe05243484908ded5c90b1b7c8363fcda4",
      "assetIds": [
        "55464657044963196816950587289035428064568320970692304673817341489688587816968",
        "55464657044963196816950587289035428064568320970692304673817341489688587816964",
        "55464657044963196816950587289035428064568320970692304673817341489688587816963",
        "55464657044963196816950587289035428064568320970692304673817341489688587816960"
      ]
    },
    {
      "x": 319,
      "y": 387,
      "size": 1,
      "price": "1011000000000000000000",
      "reserved": "",
      "salt": "0x9cba8652044493cbd731a1bad412c398dab4f1678df95ba27c0851c4bb996840",
      "assetIds": []
    },
    {
      "x": 319,
      "y": 388,
      "size": 1,
      "price": "1011000000000000000000",
      "reserved": "",
      "salt": "0x3c013548b790e2a61472a307780e682791978e3dd27e9f05164858ba6d4720e6",
      "assetIds": []
    },
    {
      "x": 319,
      "y": 389,
      "size": 1,
      "price": "1011000000000000000000",
      "reserved": "0x7a9fe22691c811ea339d9b73150e6911a5343dca",
      "salt": "0x8e088f1e2857fc7cb57bd7a8cc22c6491fea52371870d0815e0fc22b41c5e1c7",
      "assetIds": []
    },
    {
      "x": 319,
      "y": 399,
      "size": 1,
      "price": "4683000000000000000000",
      "reserved": "",
      "salt": "0x9d69e59a7442d1ce10ba6e49f557f6af55d669ff933817f687eb1ee0ec5c8d77",
      "assetIds": [
        "55464657044963196816950587289035428064568320970692304673817341489688587816967",
        "55464657044963196816950587289035428064568320970692304673817341489688587816965",
        "55464657044963196816950587289035428064568320970692304673817341489688587816964",
        "55464657044963196816950587289035428064568320970692304673817341489688587816960"
      ]
    },
    {
      "x": 319,
      "y": 400,
      "size": 1,
      "price": "4683000000000000000000",
      "reserved": "",
      "salt": "0xb0d1564de57c359d4fdf52e2a26ec77dd4f77194d2295914fd6850b42df49eb0",
      "assetIds": [
        "55464657044963196816950587289035428064568320970692304673817341489688596187136",
        "55464657044963196816950587289035428064568320970692304673817341489688587816962",
        "55464657044963196816950587289035428064568320970692304673817341489688587816961",
        "55464657044963196816950587289035428064568320970692304673817341489688587816963"
      ]
    },
    {
      "x": 319,
      "y": 401,
      "size": 1,
      "price": "4683000000000000000000",
      "reserved": "",
      "salt": "0x2726d2de9fe1509b2ae4a7585c52b81b2edc1261fbe9fd8b387d0cfbdf2da6a7",
      "assetIds": [
        "55464657044963196816950587289035428064568320970692304673817341489688596187136",
        "55464657044963196816950587289035428064568320970692304673817341489688587816965",
        "55464657044963196816950587289035428064568320970692304673817341489688587816964",
        "55464657044963196816950587289035428064568320970692304673817341489688587816966"
      ]
    },
    {
      "x": 319,
      "y": 402,
      "size": 1,
      "price": "1011000000000000000000",
      "reserved": "",
      "salt": "0x163ee53f1e3662b46bae78a59126e423117e2c9a216207a703a2f6504ad13906",
      "assetIds": []
    },
    {
      "x": 319,
      "y": 403,
      "size": 1,
      "price": "1011000000000000000000",
      "reserved": "",
      "salt": "0xc1c337d864d263418308214733bbc5c3a0ce9fc2866b64fecfc3bdbcac2bdd6b",
      "assetIds": []
    },
    {
      "x": 319,
      "y": 404,
      "size": 1,
      "price": "1011000000000000000000",
      "reserved": "",
      "salt": "0xa983675f5768f8602fff761087639de00be8f30698e72e5167bdd73c269fea2f",
      "assetIds": []
    },
    {
      "x": 319,
      "y": 405,
      "size": 1,
      "price": "4683000000000000000000",
      "reserved": "",
      "salt": "0x2ba2b6c33a99dd31d90a3d1cca1fb670c7d1f9aab046fcebba8161512b798a5f",
      "assetIds": [
        "55464657044963196816950587289035428064568320970692304673817341489688587816967",
        "55464657044963196816950587289035428064568320970692304673817341489688587816968",
        "55464657044963196816950587289035428064568320970692304673817341489688587816965",
        "55464657044963196816950587289035428064568320970692304673817341489688587816966"
      ]
    },
    {
      "x": 319,
      "y": 406,
      "size": 1,
      "price": "4683000000000000000000",
      "reserved": "",
      "salt": "0x2d2c9a97f4fc25c91b822462ee6360e8350155a486db77e3fdc6bc94ef27dbb5",
      "assetIds": [
        "55464657044963196816950587289035428064568320970692304673817341489688596187136",
        "55464657044963196816950587289035428064568320970692304673817341489688587816962",
        "55464657044963196816950587289035428064568320970692304673817341489688587816968",
        "55464657044963196816950587289035428064568320970692304673817341489688587816961"
      ]
    },
    {
      "x": 319,
      "y": 407,
      "size": 1,
      "price": "4683000000000000000000",
      "reserved": "",
      "salt": "0x3be86bcd473fe4fde83b5d7821b24b41d3f3357df756cc500f80c0613d1b91ea",
      "assetIds": [
        "55464657044963196816950587289035428064568320970692304673817341489688587816967",
        "55464657044963196816950587289035428064568320970692304673817341489688587816965",
        "55464657044963196816950587289035428064568320970692304673817341489688587816964",
        "55464657044963196816950587289035428064568320970692304673817341489688587816960"
      ]
    },
    {
      "x": 320,
      "y": 384,
      "size": 1,
      "price": "1011000000000000000000",
      "reserved": "0x7a9fe22691c811ea339d9b73150e6911a5343dca",
      "salt": "0x4be9963f0caf665a9955994e35f83ceec04d2284a1cc2064a762ae57630c6c21",
      "assetIds": []
    },
    {
      "x": 320,
      "y": 385,
      "size": 1,
      "price": "4683000000000000000000",
      "reserved": "",
      "salt": "0xface7b4c584499b797ac4ac01eaa5c4cde00a4f636ead42c30a7c4f6e248cb2d",
      "assetIds": [
        "55464657044963196816950587289035428064568320970692304673817341489688596187136",
        "55464657044963196816950587289035428064568320970692304673817341489688587816962",
        "55464657044963196816950587289035428064568320970692304673817341489688587816961",
        "55464657044963196816950587289035428064568320970692304673817341489688587816963"
      ]
    },
    {
      "x": 320,
      "y": 386,
      "size": 1,
      "price": "1011000000000000000000",
      "reserved": "0x7a9fe22691c811ea339d9b73150e6911a5343dca",
      "salt": "0x5b6f46fe750c363d2c93a1dc19ce505c3b39d78829ef9ddfa3234391f4c8c592",
      "assetIds": []
    },
    {
      "x": 320,
      "y": 387,
      "size": 1,
      "price": "1011000000000000000000",
      "reserved": "",
      "salt": "0x7e0ef1c1ba22006db4675a9fbf470c0ad99557f377486d20e373010b18246b8b",
      "assetIds": []
    },
    {
      "x": 320,
      "y": 388,
      "size": 1,
      "price": "1011000000000000000000",
      "reserved": "",
      "salt": "0x6964ef234ed8de77b166070364481578cf3b59c016b2e02c59b3482ea7672c73",
      "assetIds": []
    },
    {
      "x": 320,
      "y": 389,
      "size": 1,
      "price": "4683000000000000000000",
      "reserved": "",
      "salt": "0x5eaa767b92586184ff29f4c85675e3865af7c7092480de9b2e625533d128a308",
      "assetIds": [
        "55464657044963196816950587289035428064568320970692304673817341489688587816967",
        "55464657044963196816950587289035428064568320970692304673817341489688587816968",
        "55464657044963196816950587289035428064568320970692304673817341489688587816965",
        "55464657044963196816950587289035428064568320970692304673817341489688587816966"
      ]
    },
    {
      "x": 320,
      "y": 399,
      "size": 1,
      "price": "1011000000000000000000",
      "reserved": "0x7a9fe22691c811ea339d9b73150e6911a5343dca",
      "salt": "0xa935c486d8cb2c3b17d95de6eb9644c037f97f072d6a58b9f659d672d8dbc249",
      "assetIds": []
    },
    {
      "x": 320,
      "y": 400,
      "size": 1,
      "price": "1011000000000000000000",
      "reserved": "",
      "salt": "0x3b20f9cc1134a91246bb590f6540d3a4bc5bff2b4e642c6770965c89d0a4d6fd",
      "assetIds": []
    },
    {
      "x": 320,
      "y": 401,
      "size": 1,
      "price": "1011000000000000000000",
      "reserved": "",
      "salt": "0x7c3027a0bdbf558a60955d111617585fe6f029956a2a480a1fb25c4d329870b6",
      "assetIds": []
    },
    {
      "x": 320,
      "y": 402,
      "size": 1,
      "price": "1011000000000000000000",
      "reserved": "",
      "salt": "0xb820bf084cc857a5e62c5122d9e0d0053c084b8cacd0496bd702df6859849fe4",
      "assetIds": []
    },
    {
      "x": 320,
      "y": 403,
      "size": 1,
      "price": "1011000000000000000000",
      "reserved": "",
      "salt": "0xc0042e4ae66f01d546c75871fd733e4dcb54f26542cbd55e8d23ee3dc5ea1608",
      "assetIds": []
    },
    {
      "x": 320,
      "y": 404,
      "size": 1,
      "price": "1011000000000000000000",
      "reserved": "",
      "salt": "0x8d5ee9e661661b8f9acc1c687efcb6fb9f18371d30d14b9c68e4b6b8b64562ba",
      "assetIds": []
    },
    {
      "x": 320,
      "y": 405,
      "size": 1,
      "price": "1011000000000000000000",
      "reserved": "0x7a9fe22691c811ea339d9b73150e6911a5343dca",
      "salt": "0x41614e1bba0226d0a8f33d1c3552e98606f5cfd763c558ee031c1f0e96c11dd7",
      "assetIds": []
    },
    {
      "x": 320,
      "y": 406,
      "size": 1,
      "price": "4683000000000000000000",
      "reserved": "",
      "salt": "0x0ee20ad4804db2e60ef59d36b78b6dbdd3d5cebbbc6d385e6ed8e145371728c4",
      "assetIds": [
        "55464657044963196816950587289035428064568320970692304673817341489688587816967",
        "55464657044963196816950587289035428064568320970692304673817341489688587816968",
        "55464657044963196816950587289035428064568320970692304673817341489688587816965",
        "55464657044963196816950587289035428064568320970692304673817341489688587816966"
      ]
    },
    {
      "x": 320,
      "y": 407,
      "size": 1,
      "price": "1011000000000000000000",
      "reserved": "0x7a9fe22691c811ea339d9b73150e6911a5343dca",
      "salt": "0xeca107c02fd2ca32189439b7fae0b017737a43cb268abc6feea9d8c35ecc13f9",
      "assetIds": []
    },
    {
      "x": 321,
      "y": 387,
      "size": 1,
      "price": "1011000000000000000000",
      "reserved": "0x7a9fe22691c811ea339d9b73150e6911a5343dca",
      "salt": "0x52749afe978fc757f70b8096260691b5fc1689a76ac418df555a254e8b995905",
      "assetIds": []
    },
    {
      "x": 321,
      "y": 388,
      "size": 1,
      "price": "4683000000000000000000",
      "reserved": "",
      "salt": "0x6751ed86bfe1d857bd99d6a9f7b6c44709454f19d59ef92101af040d5bb8edc6",
      "assetIds": [
        "55464657044963196816950587289035428064568320970692304673817341489688587816968",
        "55464657044963196816950587289035428064568320970692304673817341489688587816964",
        "55464657044963196816950587289035428064568320970692304673817341489688587816963",
        "55464657044963196816950587289035428064568320970692304673817341489688587816960"
      ]
    },
    {
      "x": 321,
      "y": 389,
      "size": 1,
      "price": "1011000000000000000000",
      "reserved": "0x7a9fe22691c811ea339d9b73150e6911a5343dca",
      "salt": "0x1253d77d4001c510bd5460262b50f4d567569a2f2a3a710230dccccad9f4e6c5",
      "assetIds": []
    },
    {
      "x": 321,
      "y": 396,
      "size": 1,
      "price": "1011000000000000000000",
      "reserved": "0x7a9fe22691c811ea339d9b73150e6911a5343dca",
      "salt": "0x61a6f246711272126ca77f7eb7f4d29b71898efe731bb2186bb6d8c4dc39cceb",
      "assetIds": []
    },
    {
      "x": 321,
      "y": 397,
      "size": 1,
      "price": "4683000000000000000000",
      "reserved": "",
      "salt": "0xbb76662b60a4f0260277931e5e4139bb321cb94ac24dc702a57fc54d434edcef",
      "assetIds": [
        "55464657044963196816950587289035428064568320970692304673817341489688587816968",
        "55464657044963196816950587289035428064568320970692304673817341489688587816964",
        "55464657044963196816950587289035428064568320970692304673817341489688587816963",
        "55464657044963196816950587289035428064568320970692304673817341489688587816960"
      ]
    },
    {
      "x": 321,
      "y": 398,
      "size": 1,
      "price": "1011000000000000000000",
      "reserved": "0x7a9fe22691c811ea339d9b73150e6911a5343dca",
      "salt": "0x4a4d6538a8eee05fecc1739e05d1c36f2e7d897b81000163ffbeae1172364fa2",
      "assetIds": []
    },
    {
      "x": 321,
      "y": 399,
      "size": 1,
      "price": "4683000000000000000000",
      "reserved": "",
      "salt": "0x9773b6daf67f2104c443d4a3e9c15c3f4c958e5f785b0e43dc858c90a2b9c164",
      "assetIds": [
        "55464657044963196816950587289035428064568320970692304673817341489688596187136",
        "55464657044963196816950587289035428064568320970692304673817341489688587816962",
        "55464657044963196816950587289035428064568320970692304673817341489688587816967",
        "55464657044963196816950587289035428064568320970692304673817341489688587816961"
      ]
    },
    {
      "x": 321,
      "y": 400,
      "size": 1,
      "price": "1011000000000000000000",
      "reserved": "",
      "salt": "0xba3baf696be18568aa6d7b77dbf855579cfd430390fe71b8636618a031799a60",
      "assetIds": []
    },
    {
      "x": 321,
      "y": 401,
      "size": 1,
      "price": "1011000000000000000000",
      "reserved": "",
      "salt": "0x92117b796f489efb38f960eec22989850bec5f6c4a6dd2ec1106e1a041fa018e",
      "assetIds": []
    },
    {
      "x": 322,
      "y": 387,
      "size": 1,
      "price": "4683000000000000000000",
      "reserved": "",
      "salt": "0x579ba0dbfd1748ce760ba6b3ef9a3ebdc0dac8003d38dd30df7012418c297e54",
      "assetIds": [
        "55464657044963196816950587289035428064568320970692304673817341489688596187136",
        "55464657044963196816950587289035428064568320970692304673817341489688587816965",
        "55464657044963196816950587289035428064568320970692304673817341489688587816964",
        "55464657044963196816950587289035428064568320970692304673817341489688587816966"
      ]
    },
    {
      "x": 322,
      "y": 388,
      "size": 1,
      "price": "4683000000000000000000",
      "reserved": "",
      "salt": "0xeaa560d870a8062315defb99970bd85a897dcd543022f2292e67148490d18ede",
      "assetIds": [
        "55464657044963196816950587289035428064568320970692304673817341489688596187136",
        "55464657044963196816950587289035428064568320970692304673817341489688587816962",
        "55464657044963196816950587289035428064568320970692304673817341489688587816961",
        "55464657044963196816950587289035428064568320970692304673817341489688587816963"
      ]
    },
    {
      "x": 322,
      "y": 389,
      "size": 1,
      "price": "4683000000000000000000",
      "reserved": "",
      "salt": "0x0c9504400ecacd98bc19d1febab6fd71cf0a25f1242ce2c4e4927991f31bfc9b",
      "assetIds": [
        "55464657044963196816950587289035428064568320970692304673817341489688596187136",
        "55464657044963196816950587289035428064568320970692304673817341489688587816962",
        "55464657044963196816950587289035428064568320970692304673817341489688587816961",
        "55464657044963196816950587289035428064568320970692304673817341489688587816963"
      ]
    },
    {
      "x": 322,
      "y": 396,
      "size": 1,
      "price": "4683000000000000000000",
      "reserved": "",
      "salt": "0xda5a9f9e5358ba7dbfe13edfc3c784b2f7c3bb219d4d1100a8525fa11fd420d9",
      "assetIds": [
        "55464657044963196816950587289035428064568320970692304673817341489688596187136",
        "55464657044963196816950587289035428064568320970692304673817341489688587816962",
        "55464657044963196816950587289035428064568320970692304673817341489688587816967",
        "55464657044963196816950587289035428064568320970692304673817341489688587816961"
      ]
    },
    {
      "x": 322,
      "y": 397,
      "size": 1,
      "price": "1011000000000000000000",
      "reserved": "",
      "salt": "0x2118b0212e5fe91821708b731c3c363613f797f646467a6b459a285b3fe77f1f",
      "assetIds": []
    },
    {
      "x": 322,
      "y": 398,
      "size": 1,
      "price": "1011000000000000000000",
      "reserved": "",
      "salt": "0x5c6c778a6d89a846555adc2344dff66cd09537a6e8dbf412a383e1e6d8bca6c5",
      "assetIds": []
    },
    {
      "x": 322,
      "y": 399,
      "size": 1,
      "price": "1011000000000000000000",
      "reserved": "",
      "salt": "0x3030d6a9f162caa571decbd09b5faf7520b8f22177922d6a1258504d407ecc8d",
      "assetIds": []
    },
    {
      "x": 322,
      "y": 400,
      "size": 1,
      "price": "1011000000000000000000",
      "reserved": "",
      "salt": "0x36cc92f6027ebbf3adf4a860b18b0974e9600de51290196424ab78be9cd81bcd",
      "assetIds": []
    },
    {
      "x": 322,
      "y": 401,
      "size": 1,
      "price": "1011000000000000000000",
      "reserved": "",
      "salt": "0xc6a4326c030cfe52854ddcb97265d907eeb5ce37b68907f335b14fef843a2fa1",
      "assetIds": []
    },
    {
      "x": 323,
      "y": 387,
      "size": 1,
      "price": "1011000000000000000000",
      "reserved": "0x7a9fe22691c811ea339d9b73150e6911a5343dca",
      "salt": "0x7614de284d572306327c569c6f05fffec96d56ea957f0b478929487b850b6189",
      "assetIds": []
    },
    {
      "x": 323,
      "y": 388,
      "size": 1,
      "price": "4683000000000000000000",
      "reserved": "",
      "salt": "0x15c7a1f6dc0bb37f33b1186fae76109cd28460806500b823af9ca5475a505ffd",
      "assetIds": [
        "55464657044963196816950587289035428064568320970692304673817341489688587816968",
        "55464657044963196816950587289035428064568320970692304673817341489688587816964",
        "55464657044963196816950587289035428064568320970692304673817341489688587816963",
        "55464657044963196816950587289035428064568320970692304673817341489688587816960"
      ]
    },
    {
      "x": 323,
      "y": 389,
      "size": 1,
      "price": "1011000000000000000000",
      "reserved": "0x7a9fe22691c811ea339d9b73150e6911a5343dca",
      "salt": "0x6bb0f9f783bc9ffc9c23662aeaed25f7103bcd220e7c119e1796c830628824db",
      "assetIds": []
    },
    {
      "x": 323,
      "y": 396,
      "size": 1,
      "price": "1011000000000000000000",
      "reserved": "0x7a9fe22691c811ea339d9b73150e6911a5343dca",
      "salt": "0x04602f9c558072fddc85ba17bdb9cc70cdd07904298b458a02e93ca3a2831dfc",
      "assetIds": []
    },
    {
      "x": 323,
      "y": 397,
      "size": 1,
      "price": "1011000000000000000000",
      "reserved": "",
      "salt": "0xd0bd3c9f16c8b64bf5d69b41431d71a35283bc3b5ea520ad5ce5d2ac8b2699ec",
      "assetIds": []
    },
    {
      "x": 323,
      "y": 398,
      "size": 1,
      "price": "1011000000000000000000",
      "reserved": "",
      "salt": "0x072ab69754a342223cafc2d67068b68817805471fcb3d084d60c88736ff6e836",
      "assetIds": []
    },
    {
      "x": 323,
      "y": 399,
      "size": 1,
      "price": "1011000000000000000000",
      "reserved": "",
      "salt": "0xffe2004859258dbee3201b94c0d1a63c319272e66036fc5f9ba557dcf328b4c2",
      "assetIds": []
    },
    {
      "x": 323,
      "y": 400,
      "size": 1,
      "price": "1011000000000000000000",
      "reserved": "",
      "salt": "0xd5204b7f6395c2f748ade06e20336cab015157da53ef458b8954cdd3a4f6bbe5",
      "assetIds": []
    },
    {
      "x": 323,
      "y": 401,
      "size": 1,
      "price": "1011000000000000000000",
      "reserved": "",
      "salt": "0x8a8708212bc35305e8ea863264c854070493be1a96aad4b04381808c88570a36",
      "assetIds": []
    },
    {
      "x": 324,
      "y": 390,
      "size": 1,
      "price": "1011000000000000000000",
      "reserved": "0x7a9fe22691c811ea339d9b73150e6911a5343dca",
      "salt": "0xaef6ed551498aadcf1d40ec1836c7e6e49099bd8c0fe429ca0bd5a42ffa25642",
      "assetIds": []
    },
    {
      "x": 324,
      "y": 391,
      "size": 1,
      "price": "4683000000000000000000",
      "reserved": "",
      "salt": "0xc176e28ce6b04b018385db9387e922ded665f5195a352fcfade4f94fcad292f9",
      "assetIds": [
        "55464657044963196816950587289035428064568320970692304673817341489688596187136",
        "55464657044963196816950587289035428064568320970692304673817341489688587816965",
        "55464657044963196816950587289035428064568320970692304673817341489688587816964",
        "55464657044963196816950587289035428064568320970692304673817341489688587816966"
      ]
    },
    {
      "x": 324,
      "y": 392,
      "size": 1,
      "price": "1011000000000000000000",
      "reserved": "0x7a9fe22691c811ea339d9b73150e6911a5343dca",
      "salt": "0x6d9accded45f7f3ac45236744d0491c565a4a74b2309886c202be2422dbf7797",
      "assetIds": []
    },
    {
      "x": 325,
      "y": 390,
      "size": 1,
      "price": "4683000000000000000000",
      "reserved": "",
      "salt": "0x90e2869f5fd96385b0fd2d1d5102482938d89aafce56a08278e47511f22c1220",
      "assetIds": [
        "55464657044963196816950587289035428064568320970692304673817341489688587816967",
        "55464657044963196816950587289035428064568320970692304673817341489688587816965",
        "55464657044963196816950587289035428064568320970692304673817341489688587816964",
        "55464657044963196816950587289035428064568320970692304673817341489688587816960"
      ]
    },
    {
      "x": 325,
      "y": 391,
      "size": 1,
      "price": "4683000000000000000000",
      "reserved": "",
      "salt": "0xe86c408d437b1a986e4eae816a015132297a8756f13cf3d2d147f5baa621ae85",
      "assetIds": [
        "55464657044963196816950587289035428064568320970692304673817341489688596187136",
        "55464657044963196816950587289035428064568320970692304673817341489688587816965",
        "55464657044963196816950587289035428064568320970692304673817341489688587816964",
        "55464657044963196816950587289035428064568320970692304673817341489688587816966"
      ]
    },
    {
      "x": 325,
      "y": 392,
      "size": 1,
      "price": "4683000000000000000000",
      "reserved": "",
      "salt": "0x94ecee14be0d384686e9de57ed6d5c6e89152b718edff32e646515c136474c6a",
      "assetIds": [
        "55464657044963196816950587289035428064568320970692304673817341489688596187136",
        "55464657044963196816950587289035428064568320970692304673817341489688587816962",
        "55464657044963196816950587289035428064568320970692304673817341489688587816967",
        "55464657044963196816950587289035428064568320970692304673817341489688587816961"
      ]
    },
    {
      "x": 326,
      "y": 390,
      "size": 1,
      "price": "1011000000000000000000",
      "reserved": "0x7a9fe22691c811ea339d9b73150e6911a5343dca",
      "salt": "0xb24522d9b2604df3641e60a1330c71cd0fd73fd4c7a00e8bb8cb1df9a4127045",
      "assetIds": []
    },
    {
      "x": 326,
      "y": 391,
      "size": 1,
      "price": "4683000000000000000000",
      "reserved": "",
      "salt": "0x8d328f41c5f6281f0b6f0e7ce99e12dffdb89ab3053c16fcffc07bd1f086ada4",
      "assetIds": [
        "55464657044963196816950587289035428064568320970692304673817341489688587816967",
        "55464657044963196816950587289035428064568320970692304673817341489688587816965",
        "55464657044963196816950587289035428064568320970692304673817341489688587816964",
        "55464657044963196816950587289035428064568320970692304673817341489688587816960"
      ]
    },
    {
      "x": 326,
      "y": 392,
      "size": 1,
      "price": "1011000000000000000000",
      "reserved": "0x7a9fe22691c811ea339d9b73150e6911a5343dca",
      "salt": "0x25a562f2aa851dec6fa9c4e8850e979a6f80156ec5814bee284121cfa859c03d",
      "assetIds": []
    },
    {
      "x": 327,
      "y": 384,
      "size": 1,
      "price": "1011000000000000000000",
      "reserved": "",
      "salt": "0x849895bff7b0e5bf3b6acbdb9f8f7add89424af1fc4ae386b7dc9e4ce43fb088",
      "assetIds": []
    },
    {
      "x": 327,
      "y": 385,
      "size": 1,
      "price": "1011000000000000000000",
      "reserved": "",
      "salt": "0x7e5d4f258913575673e8d3c703825e11b274f4b4d1cf086eaa76110e41b5f00c",
      "assetIds": []
    },
    {
      "x": 327,
      "y": 386,
      "size": 1,
      "price": "1011000000000000000000",
      "reserved": "",
      "salt": "0xe5a1850068caa551e68b1837f62847c7489706e2524661545194bd2ab8029039",
      "assetIds": []
    },
    {
      "x": 327,
      "y": 387,
      "size": 1,
      "price": "1011000000000000000000",
      "reserved": "0x7a9fe22691c811ea339d9b73150e6911a5343dca",
      "salt": "0x2475fcf3b460144db7e95d6181ffad24a4dfc53979977ecfd1004ca8d924ad44",
      "assetIds": []
    },
    {
      "x": 327,
      "y": 388,
      "size": 1,
      "price": "4683000000000000000000",
      "reserved": "",
      "salt": "0x0cee0707f074cf76112c06b94cb10ae0c1cd6f40fa02d02099ba866ee590adcb",
      "assetIds": [
        "55464657044963196816950587289035428064568320970692304673817341489688587816967",
        "55464657044963196816950587289035428064568320970692304673817341489688587816965",
        "55464657044963196816950587289035428064568320970692304673817341489688587816964",
        "55464657044963196816950587289035428064568320970692304673817341489688587816960"
      ]
    },
    {
      "x": 327,
      "y": 389,
      "size": 1,
      "price": "1011000000000000000000",
      "reserved": "0x7a9fe22691c811ea339d9b73150e6911a5343dca",
      "salt": "0x5915595c448c31c931b2b39d0dc3cc874d098fcf7da46b4369e440fb7ad66f66",
      "assetIds": []
    },
    {
      "x": 327,
      "y": 393,
      "size": 1,
      "price": "1011000000000000000000",
      "reserved": "0x7a9fe22691c811ea339d9b73150e6911a5343dca",
      "salt": "0x125c0d4868f7419f8a5d4f1eeee5e62fca9d0392714622184a591e0e7e57f246",
      "assetIds": []
    },
    {
      "x": 327,
      "y": 394,
      "size": 1,
      "price": "4683000000000000000000",
      "reserved": "",
      "salt": "0x419f6912dd6fef9d0ec61a8c88201fd4403e731921d6d407477375b1baeffc3c",
      "assetIds": [
        "55464657044963196816950587289035428064568320970692304673817341489688596187136",
        "55464657044963196816950587289035428064568320970692304673817341489688587816962",
        "55464657044963196816950587289035428064568320970692304673817341489688587816968",
        "55464657044963196816950587289035428064568320970692304673817341489688587816961"
      ]
    },
    {
      "x": 327,
      "y": 395,
      "size": 1,
      "price": "4683000000000000000000",
      "reserved": "",
      "salt": "0xc35dcfd194b84162fd5905dee7841c5bd35ab8081647cfc3218e29377ce4e1da",
      "assetIds": [
        "55464657044963196816950587289035428064568320970692304673817341489688596187136",
        "55464657044963196816950587289035428064568320970692304673817341489688587816962",
        "55464657044963196816950587289035428064568320970692304673817341489688587816961",
        "55464657044963196816950587289035428064568320970692304673817341489688587816963"
      ]
    },
    {
      "x": 328,
      "y": 384,
      "size": 1,
      "price": "1011000000000000000000",
      "reserved": "",
      "salt": "0x27314604b9678f26c7481d54b3a659e0b5fa2a9eabdce4ae26ff67f7d9851281",
      "assetIds": []
    },
    {
      "x": 328,
      "y": 385,
      "size": 1,
      "price": "1011000000000000000000",
      "reserved": "",
      "salt": "0x71420d711cc2ae2864705c294f5d104ecdd0615f112f1fa9d1413d9283844fff",
      "assetIds": []
    },
    {
      "x": 328,
      "y": 386,
      "size": 1,
      "price": "1011000000000000000000",
      "reserved": "",
      "salt": "0x39131c0e2edf02df4c74127b0d7c12627de9a1d1e71fcb0937e848972b502320",
      "assetIds": []
    },
    {
      "x": 328,
      "y": 387,
      "size": 1,
      "price": "4683000000000000000000",
      "reserved": "",
      "salt": "0xbf437e8ede95c947ab713167386b02888af92acc74b15c4266f248d18c5bcd11",
      "assetIds": [
        "55464657044963196816950587289035428064568320970692304673817341489688587816967",
        "55464657044963196816950587289035428064568320970692304673817341489688587816965",
        "55464657044963196816950587289035428064568320970692304673817341489688587816964",
        "55464657044963196816950587289035428064568320970692304673817341489688587816960"
      ]
    },
    {
      "x": 328,
      "y": 388,
      "size": 1,
      "price": "4683000000000000000000",
      "reserved": "",
      "salt": "0xf8bb9e2f167e8ba42e5ced3e483bdb13ba77447382cd921de3a2293d982a72a1",
      "assetIds": [
        "55464657044963196816950587289035428064568320970692304673817341489688596187136",
        "55464657044963196816950587289035428064568320970692304673817341489688587816962",
        "55464657044963196816950587289035428064568320970692304673817341489688587816967",
        "55464657044963196816950587289035428064568320970692304673817341489688587816961"
      ]
    },
    {
      "x": 328,
      "y": 389,
      "size": 1,
      "price": "4683000000000000000000",
      "reserved": "",
      "salt": "0xc6750e7f1d1ad9d3d2df75e17aadbfd8ddba7b340c167c82ecb9fff737ba180e",
      "assetIds": [
        "55464657044963196816950587289035428064568320970692304673817341489688587816968",
        "55464657044963196816950587289035428064568320970692304673817341489688587816964",
        "55464657044963196816950587289035428064568320970692304673817341489688587816963",
        "55464657044963196816950587289035428064568320970692304673817341489688587816960"
      ]
    },
    {
      "x": 328,
      "y": 393,
      "size": 1,
      "price": "4683000000000000000000",
      "reserved": "",
      "salt": "0x35b2e9f55cc62501051db4381410d438ff16cded3b90a1d891396ec77ca54e6e",
      "assetIds": [
        "55464657044963196816950587289035428064568320970692304673817341489688587816968",
        "55464657044963196816950587289035428064568320970692304673817341489688587816964",
        "55464657044963196816950587289035428064568320970692304673817341489688587816963",
        "55464657044963196816950587289035428064568320970692304673817341489688587816960"
      ]
    },
    {
      "x": 328,
      "y": 394,
      "size": 1,
      "price": "4683000000000000000000",
      "reserved": "",
      "salt": "0xcfebd4aa38ac7686a9b174f2bb00259dcf05dfc0aa90f9f89c8a163acdd31078",
      "assetIds": [
        "55464657044963196816950587289035428064568320970692304673817341489688587816968",
        "55464657044963196816950587289035428064568320970692304673817341489688587816964",
        "55464657044963196816950587289035428064568320970692304673817341489688587816963",
        "55464657044963196816950587289035428064568320970692304673817341489688587816960"
      ]
    },
    {
      "x": 328,
      "y": 395,
      "size": 1,
      "price": "4683000000000000000000",
      "reserved": "",
      "salt": "0x4ef1355c24680464da91a78f46d1e1e3ba4820230bdbd52025e65f04ba7b6adf",
      "assetIds": [
        "55464657044963196816950587289035428064568320970692304673817341489688596187136",
        "55464657044963196816950587289035428064568320970692304673817341489688587816962",
        "55464657044963196816950587289035428064568320970692304673817341489688587816968",
        "55464657044963196816950587289035428064568320970692304673817341489688587816961"
      ]
    },
    {
      "x": 329,
      "y": 384,
      "size": 1,
      "price": "4683000000000000000000",
      "reserved": "",
      "salt": "0xb16180743315f6260ef9bb5ba8e894279b699db17a3a8ca8ed341b1ed150914b",
      "assetIds": [
        "55464657044963196816950587289035428064568320970692304673817341489688596187136",
        "55464657044963196816950587289035428064568320970692304673817341489688587816962",
        "55464657044963196816950587289035428064568320970692304673817341489688587816961",
        "55464657044963196816950587289035428064568320970692304673817341489688587816963"
      ]
    },
    {
      "x": 329,
      "y": 385,
      "size": 1,
      "price": "4683000000000000000000",
      "reserved": "",
      "salt": "0xd9149621411c8d2b818363532b2edf6e30dd8ae51b3e633baa4b88d067dfeb85",
      "assetIds": [
        "55464657044963196816950587289035428064568320970692304673817341489688596187136",
        "55464657044963196816950587289035428064568320970692304673817341489688587816962",
        "55464657044963196816950587289035428064568320970692304673817341489688587816967",
        "55464657044963196816950587289035428064568320970692304673817341489688587816961"
      ]
    },
    {
      "x": 329,
      "y": 386,
      "size": 1,
      "price": "4683000000000000000000",
      "reserved": "",
      "salt": "0x436dc15e810da63e79b9921141e3898fe155caaa773e2f60d31b4d0399dd51bb",
      "assetIds": [
        "55464657044963196816950587289035428064568320970692304673817341489688587816967",
        "55464657044963196816950587289035428064568320970692304673817341489688587816968",
        "55464657044963196816950587289035428064568320970692304673817341489688587816965",
        "55464657044963196816950587289035428064568320970692304673817341489688587816966"
      ]
    },
    {
      "x": 329,
      "y": 387,
      "size": 1,
      "price": "1011000000000000000000",
      "reserved": "0x7a9fe22691c811ea339d9b73150e6911a5343dca",
      "salt": "0x0eda5d1aba0038c2c460b0d0752a2bd4a4d93a7bb248c54d03935fc3907ae212",
      "assetIds": []
    },
    {
      "x": 329,
      "y": 388,
      "size": 1,
      "price": "4683000000000000000000",
      "reserved": "",
      "salt": "0x137b0189b389e056b4b0b6158e6f5ad139b3735a9a97a244b06cd1a21b3b3889",
      "assetIds": [
        "55464657044963196816950587289035428064568320970692304673817341489688596187136",
        "55464657044963196816950587289035428064568320970692304673817341489688587816962",
        "55464657044963196816950587289035428064568320970692304673817341489688587816968",
        "55464657044963196816950587289035428064568320970692304673817341489688587816961"
      ]
    },
    {
      "x": 329,
      "y": 389,
      "size": 1,
      "price": "1011000000000000000000",
      "reserved": "0x7a9fe22691c811ea339d9b73150e6911a5343dca",
      "salt": "0x7166e733a90346a1da3791d0f599e4c549d99967a4d5eddb6173a7a70391bb9c",
      "assetIds": []
    },
    {
      "x": 329,
      "y": 393,
      "size": 1,
      "price": "1011000000000000000000",
      "reserved": "0x7a9fe22691c811ea339d9b73150e6911a5343dca",
      "salt": "0x719150de24c2758bc4854c30a9ec5538fff9da74b388fe99b4213fcdc5d8ebe1",
      "assetIds": []
    },
    {
      "x": 329,
      "y": 394,
      "size": 1,
      "price": "4683000000000000000000",
      "reserved": "",
      "salt": "0xb370f8027fe6b2cf941dc27256be43e5b8e61e46217c31c43da340478e953ca1",
      "assetIds": [
        "55464657044963196816950587289035428064568320970692304673817341489688596187136",
        "55464657044963196816950587289035428064568320970692304673817341489688587816962",
        "55464657044963196816950587289035428064568320970692304673817341489688587816967",
        "55464657044963196816950587289035428064568320970692304673817341489688587816961"
      ]
    },
    {
      "x": 329,
      "y": 395,
      "size": 1,
      "price": "4683000000000000000000",
      "reserved": "",
      "salt": "0x841d38ca2e9573600d69c277dfb1fccfce47593ca622e09676f7d399731297fd",
      "assetIds": [
        "55464657044963196816950587289035428064568320970692304673817341489688596187136",
        "55464657044963196816950587289035428064568320970692304673817341489688587816962",
        "55464657044963196816950587289035428064568320970692304673817341489688587816967",
        "55464657044963196816950587289035428064568320970692304673817341489688587816961"
      ]
    },
    {
      "x": 330,
      "y": 384,
      "size": 1,
      "price": "1011000000000000000000",
      "reserved": "0x7a9fe22691c811ea339d9b73150e6911a5343dca",
      "salt": "0x8c996d2e2d5b19ab3b91ff63e9272cdf338b68b1060bae2c063b60e5da27f779",
      "assetIds": []
    },
    {
      "x": 330,
      "y": 385,
      "size": 1,
      "price": "1011000000000000000000",
      "reserved": "0x7a9fe22691c811ea339d9b73150e6911a5343dca",
      "salt": "0x0cc873d02dfbd3bfb5e0de356542103c9ff768205b34a4db0a3d541fdbcc60c6",
      "assetIds": []
    },
    {
      "x": 330,
      "y": 386,
      "size": 1,
      "price": "1011000000000000000000",
      "reserved": "0x7a9fe22691c811ea339d9b73150e6911a5343dca",
      "salt": "0x6eb9283fc61845e01a24a278b7000730e78c83b1a68d99649e2529362e217d8e",
      "assetIds": []
    },
    {
      "x": 331,
      "y": 384,
      "size": 1,
      "price": "4683000000000000000000",
      "reserved": "",
      "salt": "0x21358ae329e274e90a10d94925e5a9fa7231e4c5299e0b11e92fae854ef66104",
      "assetIds": [
        "55464657044963196816950587289035428064568320970692304673817341489688596187136",
        "55464657044963196816950587289035428064568320970692304673817341489688587816962",
        "55464657044963196816950587289035428064568320970692304673817341489688587816968",
        "55464657044963196816950587289035428064568320970692304673817341489688587816961"
      ]
    },
    {
      "x": 331,
      "y": 385,
      "size": 1,
      "price": "4683000000000000000000",
      "reserved": "",
      "salt": "0x3fceb28edebc2383bd28655658ee049e739a0f0e71829602344ddfa7380f716b",
      "assetIds": [
        "55464657044963196816950587289035428064568320970692304673817341489688587816967",
        "55464657044963196816950587289035428064568320970692304673817341489688587816968",
        "55464657044963196816950587289035428064568320970692304673817341489688587816965",
        "55464657044963196816950587289035428064568320970692304673817341489688587816966"
      ]
    },
    {
      "x": 331,
      "y": 386,
      "size": 1,
      "price": "4683000000000000000000",
      "reserved": "",
      "salt": "0x54b0ee446080defdf109efead5f32d9966da3f89918ebacb5ebf41786b437726",
      "assetIds": [
        "55464657044963196816950587289035428064568320970692304673817341489688587816967",
        "55464657044963196816950587289035428064568320970692304673817341489688587816968",
        "55464657044963196816950587289035428064568320970692304673817341489688587816965",
        "55464657044963196816950587289035428064568320970692304673817341489688587816966"
      ]
    },
    {
      "x": 332,
      "y": 384,
      "size": 1,
      "price": "1011000000000000000000",
      "reserved": "0x7a9fe22691c811ea339d9b73150e6911a5343dca",
      "salt": "0x1b0a8fd27bf3be03ccaececa2755df39c5b78adf1fda295bc4694bfbfa20c7c7",
      "assetIds": []
    },
    {
      "x": 332,
      "y": 385,
      "size": 1,
      "price": "4683000000000000000000",
      "reserved": "",
      "salt": "0x1c59ba6210ece4085a6599abb9e4a1e5db20972182000bd48f42b377c4af92f3",
      "assetIds": [
        "55464657044963196816950587289035428064568320970692304673817341489688596187136",
        "55464657044963196816950587289035428064568320970692304673817341489688587816962",
        "55464657044963196816950587289035428064568320970692304673817341489688587816967",
        "55464657044963196816950587289035428064568320970692304673817341489688587816961"
      ]
    },
    {
      "x": 332,
      "y": 386,
      "size": 1,
      "price": "1011000000000000000000",
      "reserved": "0x7a9fe22691c811ea339d9b73150e6911a5343dca",
      "salt": "0x37e699d1705c6d9675019b954ffc686a2fcc1d7bd8782bdc7bfa61b3bfea8f00",
      "assetIds": []
    },
    {
      "x": 312,
      "y": 390,
      "size": 3,
      "price": "8648000000000000000000",
      "reserved": "0x7a9fe22691c811ea339d9b73150e6911a5343dca",
      "salt": "0xb99ffc496ec75e16e9af08437c28905e7b1988323c8b24a1bcccf42b70c523fe",
      "assetIds": []
    },
    {
      "x": 312,
      "y": 402,
      "size": 3,
      "price": "8648000000000000000000",
      "reserved": "0x7a9fe22691c811ea339d9b73150e6911a5343dca",
      "salt": "0xca42b4740e1b1c336b5194002d779ae4519930dcd8d8c6717622eda6feee47db",
      "assetIds": []
    },
    {
      "x": 315,
      "y": 393,
      "size": 3,
      "price": "8648000000000000000000",
      "reserved": "0x7a9fe22691c811ea339d9b73150e6911a5343dca",
      "salt": "0x8fb3eb5559b36a4a8e68364d22acd760cedef4054f3c4ec457bca8bea386d232",
      "assetIds": []
    },
    {
      "x": 315,
      "y": 399,
      "size": 3,
      "price": "8648000000000000000000",
      "reserved": "0x7a9fe22691c811ea339d9b73150e6911a5343dca",
      "salt": "0xe93008d6d0587999b3bea3825191a18983060dba1133b754f0e1f863896a3041",
      "assetIds": []
    },
    {
      "x": 315,
      "y": 402,
      "size": 3,
      "price": "8648000000000000000000",
      "reserved": "0x7a9fe22691c811ea339d9b73150e6911a5343dca",
      "salt": "0xe99c395bdeb2e736c4288eadd200e920714c4f9e23636688ed2319c4962931b7",
      "assetIds": []
    },
    {
      "x": 315,
      "y": 405,
      "size": 3,
      "price": "8648000000000000000000",
      "reserved": "0x7a9fe22691c811ea339d9b73150e6911a5343dca",
      "salt": "0x72456b1f7aac45433418dc91b5373403283817915f781bbdf9d0793875d437ab",
      "assetIds": []
    },
    {
      "x": 318,
      "y": 396,
      "size": 3,
      "price": "8648000000000000000000",
      "reserved": "0x7a9fe22691c811ea339d9b73150e6911a5343dca",
      "salt": "0x40d973d7f6dfc1614c2f4e822409030c4857908f0b9ac6e49584f0cc41b929d8",
      "assetIds": []
    },
    {
      "x": 321,
      "y": 384,
      "size": 3,
      "price": "8648000000000000000000",
      "reserved": "0x7a9fe22691c811ea339d9b73150e6911a5343dca",
      "salt": "0xa9e9ebe76d39fc49171e56ac9a1d61efa1b3528e151c8c5ea57792325a28c788",
      "assetIds": []
    },
    {
      "x": 321,
      "y": 402,
      "size": 3,
      "price": "8648000000000000000000",
      "reserved": "0x7a9fe22691c811ea339d9b73150e6911a5343dca",
      "salt": "0x0e6ee06c8d80ade6245b57ca0db9d0da6b5d8bde6113567a44b687d08ad9aeeb",
      "assetIds": []
    },
    {
      "x": 321,
      "y": 405,
      "size": 3,
      "price": "8648000000000000000000",
      "reserved": "0x7a9fe22691c811ea339d9b73150e6911a5343dca",
      "salt": "0xe93ab721e1916e8202a2a673b42b74d67c50d63a8564f592ce54c3e2e045e19f",
      "assetIds": []
    },
    {
      "x": 324,
      "y": 384,
      "size": 3,
      "price": "8648000000000000000000",
      "reserved": "0x7a9fe22691c811ea339d9b73150e6911a5343dca",
      "salt": "0x7be47bb2a61be845f0c6a61a07c70eded156a39f092ecf650fa8085988a6d07c",
      "assetIds": []
    },
    {
      "x": 324,
      "y": 387,
      "size": 3,
      "price": "8648000000000000000000",
      "reserved": "0x7a9fe22691c811ea339d9b73150e6911a5343dca",
      "salt": "0xd30acffc2647d93d76bb99e4fbeb29ea1d4d9e7fdb9a66bd36ddcc8d81f0149b",
      "assetIds": []
    },
    {
      "x": 324,
      "y": 393,
      "size": 3,
      "price": "8648000000000000000000",
      "reserved": "0x7a9fe22691c811ea339d9b73150e6911a5343dca",
      "salt": "0x4a0b4abfeb8f070bdd03eb3cf95115b74c8b7def7bb77d9f5d18946a56204fa3",
      "assetIds": []
    },
    {
      "x": 327,
      "y": 390,
      "size": 3,
      "price": "8648000000000000000000",
      "reserved": "0x7a9fe22691c811ea339d9b73150e6911a5343dca",
      "salt": "0x9986de3f4cf3b3ffa3accdc89c20f0b63e075276fb4fa0c8e2837debefc789d2",
      "assetIds": []
    },
    {
      "x": 330,
      "y": 387,
      "size": 3,
      "price": "8648000000000000000000",
      "reserved": "0x7a9fe22691c811ea339d9b73150e6911a5343dca",
      "salt": "0xbe7bc03d3783534aad7ed7e8c2ec4af0fc0139821c2d9546cd03a40b2bdd1517",
      "assetIds": []
    },
    {
      "x": 333,
      "y": 384,
      "size": 3,
      "price": "8648000000000000000000",
      "reserved": "0x7a9fe22691c811ea339d9b73150e6911a5343dca",
      "salt": "0x5586f719ed1d3fb8ccd6bbadf1f0d70ed95ac97844476e528d12b006c8c7d79a",
      "assetIds": []
    },
    {
      "x": 333,
      "y": 387,
      "size": 3,
      "price": "8648000000000000000000",
      "reserved": "0x7a9fe22691c811ea339d9b73150e6911a5343dca",
      "salt": "0x500f4a8979df34b5f22f02279f937e5def98883348d1cdad6089cd8faa0b90f4",
      "assetIds": []
    },
    {
      "x": 312,
      "y": 384,
      "size": 6,
      "price": "32772000000000000000000",
      "reserved": "0x7a9fe22691c811ea339d9b73150e6911a5343dca",
      "salt": "0x6275cf9aea490547df5b5e5ef18f49efca8202c57166425c4eda175f33f39cd7",
      "assetIds": []
    },
    {
      "x": 318,
      "y": 390,
      "size": 6,
      "price": "32772000000000000000000",
      "reserved": "0x7a9fe22691c811ea339d9b73150e6911a5343dca",
      "salt": "0x4364f215af987457deb18d551ab970c98a7aa3218cf2f69661681c6641fa8539",
      "assetIds": []
    },
    {
      "x": 330,
      "y": 390,
      "size": 6,
      "price": "32772000000000000000000",
      "reserved": "0x7a9fe22691c811ea339d9b73150e6911a5343dca",
      "salt": "0x66b4c5906589090be73c9f936e97245480d9a9fbfb08eaa43dd2ad70fb4d8611",
      "assetIds": []
    },
    {
      "x": 324,
      "y": 396,
      "size": 12,
      "price": "123806000000000000000000",
      "reserved": "0x7a9fe22691c811ea339d9b73150e6911a5343dca",
      "salt": "0x218b2dc52b64d1bb9fb9d9ae2147bb7676d56c7acd1cfdf1cfdfc0c6ece5ea53",
      "assetIds": []
    }
  ],
  "solcInputHash": "e17a5bb930c92aaeeb80a52119ce77b7",
  "bytecode": "0x610160604052620d2f0060055534801561001857600080fd5b506040516200284d3803806200284d83398181016040526101a081101561003e57600080fd5b50805160208201516040830151606080850151608086015160a08088015160c0808a015160e08b01516101008c01516101208d01516101408e01516101608f0151610180909f0151600280546001600160a01b0319166001600160a01b03871617905560038490558e8c1b6001600160601b03199081169099529a8d901b9097169094529a9b999a98999698959793969195909490939091906100e28b600161015d565b600680546001600160a01b039a8b166001600160a01b031991821617909155610140989098526101209690965260008054998916998816999099179098556001600160601b0319606092831b811660e05290821b811660805296901b909516610100525060078054919093169116179055506101c192505050565b6001600160a01b038216600081815260016020908152604091829020805460ff191685151590811790915582519384529083015280517fb21eb88b4e33b3f1281830a7178d74d8aa73220416215726b68ae23d539515cb9281900390910190a15050565b60805160601c60a05160601c60c05160601c60e05160601c6101005160601c61012051610140516126066200024760003980610b3d528061206c525080610b1952806112ec5250806120da525080611841528061199e5250806117f75280611b9d528061210e525080611872528061196f525080610eb25280611c8952506126066000f3fe608060405234801561001057600080fd5b506004361061011b5760003560e01c80638f283970116100b2578063c10a420811610081578063dc5074af11610066578063dc5074af1461085f578063e56f8a9e14610885578063f23a6e61146108a25761011b565b8063c10a420814610780578063caed3500146108575761011b565b80638f28397014610500578063984d625214610526578063b522ecff146105f8578063bc197c811461061e5761011b565b806365194ce7116100ee57806365194ce7146103485780636e9960c3146104a657806377f1c3ac146104ca5780638a04af6a146104d25761011b565b80631187fd3c1461012057806325cb5bc014610300578063495906571461031a57806358bc294414610322575b600080fd5b6102fe600480360361012081101561013757600080fd5b6001600160a01b038235811692602081013582169260408201359092169181019060808101606082013564010000000081111561017357600080fd5b82018360208201111561018557600080fd5b803590602001918460208302840111640100000000831117156101a757600080fd5b919390928235926040810190602001356401000000008111156101c957600080fd5b8201836020820111156101db57600080fd5b803590602001918460208302840111640100000000831117156101fd57600080fd5b91939092909160208101903564010000000081111561021b57600080fd5b82018360208201111561022d57600080fd5b8035906020019184602083028401116401000000008311171561024f57600080fd5b91939092909160208101903564010000000081111561026d57600080fd5b82018360208201111561027f57600080fd5b803590602001918460018302840111640100000000831117156102a157600080fd5b9193909290916020810190356401000000008111156102bf57600080fd5b8201836020820111156102d157600080fd5b803590602001918460018302840111640100000000831117156102f357600080fd5b509092509050610937565b005b610308610b17565b60408051918252519081900360200190f35b610308610b3b565b6102fe6004803603602081101561033857600080fd5b50356001600160a01b0316610b5f565b6103ee6004803603602081101561035e57600080fd5b81019060208101813564010000000081111561037957600080fd5b82018360208201111561038b57600080fd5b803590602001918460018302840111640100000000831117156103ad57600080fd5b91908080601f016020809104026020016040519081016040528093929190818152602001838380828437600092019190915250929550610c0a945050505050565b6040518080602001866001600160a01b03166001600160a01b03168152602001856001600160a01b03166001600160a01b03168152602001848152602001838152602001828103825287818151815260200191508051906020019080838360005b8381101561046757818101518382015260200161044f565b50505050905090810190601f1680156104945780820380516001836020036101000a031916815260200191505b50965050505050505060405180910390f35b6104ae610d0f565b604080516001600160a01b039092168252519081900360200190f35b610308610d1e565b6102fe600480360360408110156104e857600080fd5b506001600160a01b0381351690602001351515610d24565b6102fe6004803603602081101561051657600080fd5b50356001600160a01b0316610d7b565b6102fe6004803603606081101561053c57600080fd5b6001600160a01b03823516919081019060408101602082013564010000000081111561056757600080fd5b82018360208201111561057957600080fd5b8035906020019184602083028401116401000000008311171561059b57600080fd5b9193909290916020810190356401000000008111156105b957600080fd5b8201836020820111156105cb57600080fd5b803590602001918460208302840111640100000000831117156105ed57600080fd5b509092509050610e51565b6102fe6004803603602081101561060e57600080fd5b50356001600160a01b0316610fdc565b61074b600480360360a081101561063457600080fd5b6001600160a01b03823581169260208101359091169181019060608101604082013564010000000081111561066857600080fd5b82018360208201111561067a57600080fd5b8035906020019184602083028401116401000000008311171561069c57600080fd5b9193909290916020810190356401000000008111156106ba57600080fd5b8201836020820111156106cc57600080fd5b803590602001918460208302840111640100000000831117156106ee57600080fd5b91939092909160208101903564010000000081111561070c57600080fd5b82018360208201111561071e57600080fd5b8035906020019184600183028401116401000000008311171561074057600080fd5b5090925090506110c5565b604080517fffffffff000000000000000000000000000000000000000000000000000000009092168252519081900360200190f35b610843600480360360a081101561079657600080fd5b8101906020810181356401000000008111156107b157600080fd5b8201836020820111156107c357600080fd5b803590602001918460018302840111640100000000831117156107e557600080fd5b91908080601f016020809104026020016040519081016040528093929190818152602001838380828437600092019190915250929550506001600160a01b0383358116945060208401351692604081013592506060013590506110f2565b604080519115158252519081900360200190f35b6104ae61122e565b6108436004803603602081101561087557600080fd5b50356001600160a01b031661123d565b6102fe6004803603602081101561089b57600080fd5b503561125b565b61074b600480360360a08110156108b857600080fd5b6001600160a01b03823581169260208101359091169160408201359160608101359181019060a0810160808201356401000000008111156108f857600080fd5b82018360208201111561090a57600080fd5b8035906020019184600183028401116401000000008311171561092c57600080fd5b5090925090506112bf565b6109418e8d6112ea565b610a388d8d8d8d80806020026020016040519081016040528093929190818152602001838360200280828437600081840152601f19601f820116905080830192505050505050508c8c8c80806020026020016040519081016040528093929190818152602001838360200280828437600081840152601f19601f820116905080830192505050505050508b8b8080602002602001604051908101604052809392919081815260200183836020028082843760009201919091525050604080516020601f8d018190048102820181019092528b815292508b91508a908190840183828082843760009201919091525061144d92505050565b610a8c8e8c8c6003818110610a4957fe5b9050602002013586868080601f0160208091040260200160405190810160405280939291908181526020018383808284376000920191909152506117d092505050565b610aca8e8e8d8d8080602002602001604051908101604052809392919081815260200183836020028082843760009201919091525061182192505050565b610b078d898980806020026020016040519081016040528093929190818152602001838360200280828437600092019190915250611c1292505050565b5050505050505050505050505050565b7f000000000000000000000000000000000000000000000000000000000000000090565b7f000000000000000000000000000000000000000000000000000000000000000090565b6000546001600160a01b03163314610bbe576040805162461bcd60e51b815260206004820152601060248201527f53656e646572206e6f742061646d696e00000000000000000000000000000000604482015290519081900360640190fd5b600554600280546001600160a01b03908116600090815260046020526040902042909301909255805473ffffffffffffffffffffffffffffffffffffffff191692909116919091179055565b606060008060008060606000806000808a80602001905160a0811015610c2f57600080fd5b8101908080516040519392919084640100000000821115610c4f57600080fd5b908301906020820185811115610c6457600080fd5b8251640100000000811182820188101715610c7e57600080fd5b82525081516020918201929091019080838360005b83811015610cab578181015183820152602001610c93565b50505050905090810190601f168015610cd85780820380516001836020036101000a031916815260200191505b5060409081526020820151908201516060830151608090930151959f50909d509b5099509197505050505050505091939590929450565b6000546001600160a01b031690565b60035490565b6000546001600160a01b03163314610d6d5760405162461bcd60e51b815260040180806020018281038252602e8152602001806125a3602e913960400191505060405180910390fd5b610d778282611dd6565b5050565b6000546001600160a01b03163314610dda576040805162461bcd60e51b815260206004820152601b60248201527f6f6e6c792061646d696e2063616e206368616e67652061646d696e0000000000604482015290519081900360640190fd5b600054604080516001600160a01b039283168152918316602083015280517f7e644d79422f17c01e4894b5f4f588d331ebfa28653d42ae832dc59e38c9798f9281900390910190a16000805473ffffffffffffffffffffffffffffffffffffffff19166001600160a01b0392909216919091179055565b6000546001600160a01b03163314610eb0576040805162461bcd60e51b815260206004820152600e60248201527f4e4f545f415554484f52495a4544000000000000000000000000000000000000604482015290519081900360640190fd5b7f00000000000000000000000000000000000000000000000000000000000000006001600160a01b0316632eb2c2d63087878787876040518763ffffffff1660e01b815260040180876001600160a01b03166001600160a01b03168152602001866001600160a01b03166001600160a01b031681526020018060200180602001806020018481038452888882818152602001925060200280828437600083820152601f01601f19169091018581038452868152602090810191508790870280828437600081840152601f19601f8201169050808301925050508481038252600081526020016020019950505050505050505050600060405180830381600087803b158015610fbd57600080fd5b505af1158015610fd1573d6000803e3d6000fd5b505050505050505050565b6001600160a01b038116611037576040805162461bcd60e51b815260206004820152600c60248201527f5a45524f5f414444524553530000000000000000000000000000000000000000604482015290519081900360640190fd5b6000546001600160a01b03163314611096576040805162461bcd60e51b815260206004820152600e60248201527f4e4f545f415554484f52495a4544000000000000000000000000000000000000604482015290519081900360640190fd5b6006805473ffffffffffffffffffffffffffffffffffffffff19166001600160a01b0392909216919091179055565b7fbc197c810000000000000000000000000000000000000000000000000000000098975050505050505050565b60006003548211806111155750836001600160a01b0316856001600160a01b0316145b8061111f57508242115b1561112c57506000611225565b60408051606087811b7fffffffffffffffffffffffffffffffffffffffff0000000000000000000000009081166020808501919091529188901b166034830152604882018690526068808301869052835180840390910181526088830184528051908201207f19457468657265756d205369676e6564204d6573736167653a0a33320000000060a884015260c48084018290528451808503909101815260e490930190935281519101206000906111e39089611e58565b6001600160a01b038116600090815260046020526040902054909150421161121057600192505050611225565b6002546001600160a01b039081169116149150505b95945050505050565b6002546001600160a01b031690565b6001600160a01b031660009081526001602052604090205460ff1690565b6000546001600160a01b031633146112ba576040805162461bcd60e51b815260206004820152601060248201527f53656e646572206e6f742061646d696e00000000000000000000000000000000604482015290519081900360640190fd5b600355565b7ff23a6e61000000000000000000000000000000000000000000000000000000009695505050505050565b7f0000000000000000000000000000000000000000000000000000000000000000421061135e576040805162461bcd60e51b815260206004820152600c60248201527f53414c455f49535f4f5645520000000000000000000000000000000000000000604482015290519081900360640190fd5b6001600160a01b03821633148061138457503360009081526001602052604090205460ff165b6113d5576040805162461bcd60e51b815260206004820152600e60248201527f4e4f545f415554484f52495a4544000000000000000000000000000000000000604482015290519081900360640190fd5b6001600160a01b03811615806113fc5750816001600160a01b0316816001600160a01b0316145b610d77576040805162461bcd60e51b815260206004820152600d60248201527f52455345525645445f4c414e4400000000000000000000000000000000000000604482015290519081900360640190fd5b600087878760008151811061145e57fe5b60200260200101518860018151811061147357fe5b60200260200101518960028151811061148857fe5b60200260200101518a60038151811061149d57fe5b60200260200101518a8a60405160200180828051906020019060200280838360005b838110156114d75781810151838201526020016114bf565b50505050905001915050604051602081830303815290604052805190602001208a60405160200180828051906020019060200280838360005b83811015611528578181015183820152602001611510565b5050505090500191505060405160208183030381529060405280519060200120604051602001808a6001600160a01b03166001600160a01b031660601b8152601401896001600160a01b03166001600160a01b031660601b81526014018881526020018781526020018681526020018581526020018481526020018381526020018281526020019950505050505050505050604051602081830303815290604052805190602001209050600760009054906101000a90046001600160a01b03166001600160a01b031663012847ed83836040518363ffffffff1660e01b81526004018080602001838152602001828103825284818151815260200191508051906020019080838360005b8381101561164a578181015183820152602001611632565b50505050905090810190601f1680156116775780820380516001836020036101000a031916815260200191505b50935050505060206040518083038186803b15801561169557600080fd5b505afa1580156116a9573d6000803e3d6000fd5b505050506040513d60208110156116bf57600080fd5b5051611712576040805162461bcd60e51b815260206004820152600c60248201527f494e56414c49445f415554480000000000000000000000000000000000000000604482015290519081900360640190fd5b60006117738760008151811061172457fe5b60200260200101518860018151811061173957fe5b60200260200101518960028151811061174e57fe5b60200260200101518a60038151811061176357fe5b60200260200101518c8b8b611f25565b905061177f8482611fca565b610fd1576040805162461bcd60e51b815260206004820152600c60248201527f494e56414c49445f4c414e440000000000000000000000000000000000000000604482015290519081900360640190fd5b60006117dc8484612095565b60065490915061181b908590839085906001600160a01b03167f00000000000000000000000000000000000000000000000000000000000000006121ee565b50505050565b8060028151811061182e57fe5b60200260200101516001148061186b57507f00000000000000000000000000000000000000000000000000000000000000006001600160a01b0316155b1561196d577f00000000000000000000000000000000000000000000000000000000000000006001600160a01b0316636e1e3bbf83836002815181106118ad57fe5b6020026020010151846000815181106118c257fe5b6020026020010151856001815181106118d757fe5b60200260200101516040518563ffffffff1660e01b815260040180856001600160a01b03166001600160a01b031681526020018481526020018381526020018281526020018060200182810382526000815260200160200195505050505050600060405180830381600087803b15801561195057600080fd5b505af1158015611964573d6000803e3d6000fd5b50505050611b0d565b7f00000000000000000000000000000000000000000000000000000000000000006001600160a01b0316636e1e3bbf7f0000000000000000000000000000000000000000000000000000000000000000836002815181106119ca57fe5b6020026020010151846000815181106119df57fe5b6020026020010151856001815181106119f457fe5b60200260200101518760405160200180826001600160a01b03166001600160a01b031681526020019150506040516020818303038152906040526040518663ffffffff1660e01b815260040180866001600160a01b03166001600160a01b0316815260200185815260200184815260200183815260200180602001828103825283818151815260200191508051906020019080838360005b83811015611aa4578181015183820152602001611a8c565b50505050905090810190601f168015611ad15780820380516001836020036101000a031916815260200191505b509650505050505050600060405180830381600087803b158015611af457600080fd5b505af1158015611b08573d6000803e3d6000fd5b505050505b61019881600181518110611b1d57fe5b60200260200101510281600081518110611b3357fe5b602002602001015101826001600160a01b0316846001600160a01b03167fe4dfa6ac11314892f3029b34a25b1a887da3b1cab2bbf8506d87128ba6e3ac0284600281518110611b7e57fe5b602002602001015185600381518110611b9357fe5b60200260200101517f000000000000000000000000000000000000000000000000000000000000000087600381518110611bc957fe5b602002602001015160405180858152602001848152602001836001600160a01b03166001600160a01b0316815260200182815260200194505050505060405180910390a4505050565b6060815167ffffffffffffffff81118015611c2c57600080fd5b50604051908082528060200260200182016040528015611c56578160200160208202803683370190505b50905060005b8251811015611c86576001828281518110611c7357fe5b6020908102919091010152600101611c5c565b507f00000000000000000000000000000000000000000000000000000000000000006001600160a01b0316632eb2c2d6308585856040518563ffffffff1660e01b815260040180856001600160a01b03166001600160a01b03168152602001846001600160a01b03166001600160a01b03168152602001806020018060200180602001848103845286818151815260200191508051906020019060200280838360005b83811015611d41578181015183820152602001611d29565b50505050905001848103835285818151815260200191508051906020019060200280838360005b83811015611d80578181015183820152602001611d68565b50505050905001848103825260008152602001602001975050505050505050600060405180830381600087803b158015611db957600080fd5b505af1158015611dcd573d6000803e3d6000fd5b50505050505050565b6001600160a01b03821660008181526001602090815260409182902080547fffffffffffffffffffffffffffffffffffffffffffffffffffffffffffffff001685151590811790915582519384529083015280517fb21eb88b4e33b3f1281830a7178d74d8aa73220416215726b68ae23d539515cb9281900390910190a15050565b60008151604114611e6857600080fd5b60208201516040830151606084015160001a601b811015611e8757601b015b8060ff16601b1480611e9c57508060ff16601c145b611ea557600080fd5b6040805160008152602080820180845289905260ff8416828401526060820186905260808201859052915160019260a0808401939192601f1981019281900390910190855afa158015611efc573d6000803e3d6000fd5b5050604051601f1901519450506001600160a01b038416611f1c57600080fd5b50505092915050565b60008787878787878760405160200180888152602001878152602001868152602001858152602001846001600160a01b03166001600160a01b031660601b8152601401838152602001828051906020019060200280838360005b83811015611f97578181015183820152602001611f7f565b50505050905001975050505050505050604051602081830303815290604052805190602001209050979650505050505050565b600081815b8451811015612069576000858281518110611fe657fe5b602002602001015190508083101561202e5782816040516020018083815260200182815260200192505050604051602081830303815290604052805190602001209250612060565b808360405160200180838152602001828152602001925050506040516020818303038152906040528051906020012092505b50600101611fcf565b507f00000000000000000000000000000000000000000000000000000000000000001490505b92915050565b6000806120ba60646120ae85600563ffffffff61247016565b9063ffffffff6124e016565b604080516323b872dd60e01b81526001600160a01b0387811660048301527f0000000000000000000000000000000000000000000000000000000000000000811660248301526044820184905291519293507f0000000000000000000000000000000000000000000000000000000000000000909116916323b872dd916064808201926020929091908290030181600087803b15801561215957600080fd5b505af115801561216d573d6000803e3d6000fd5b505050506040513d602081101561218357600080fd5b50516121d6576040805162461bcd60e51b815260206004820152601360248201527f4645455f5452414e534645525f4641494c454400000000000000000000000000604482015290519081900360640190fd5b6121e6838263ffffffff61254516565b949350505050565b8251819085901561239857606060008060008061220a8a610c0a565b939850919650945092509050600061222586868686866110f2565b156122b35761223f6122378d84612470565b6127106124e0565b9050886001600160a01b0316846001600160a01b0316866001600160a01b03167fac7a699eb95c3c6d390ec4626de17ef9a67b35891efdb197beba7c7fdd45fac48f858760405180848152602001838152602001828152602001935050505060405180910390a46122b08782612545565b96505b801561239157604080516323b872dd60e01b81526001600160a01b038f811660048301528781166024830152604482018490529151918a16916323b872dd916064808201926020929091908290030181600087803b15801561231457600080fd5b505af1158015612328573d6000803e3d6000fd5b505050506040513d602081101561233e57600080fd5b5051612391576040805162461bcd60e51b815260206004820152601960248201527f636f6d6d6973696f6e207472616e73666572206661696c656400000000000000604482015290519081900360640190fd5b5050505050505b604080516323b872dd60e01b81526001600160a01b0389811660048301528681166024830152604482018490529151918416916323b872dd916064808201926020929091908290030181600087803b1580156123f357600080fd5b505af1158015612407573d6000803e3d6000fd5b505050506040513d602081101561241d57600080fd5b5051611dcd576040805162461bcd60e51b815260206004820152601760248201527f7061796d656e74207472616e73666572206661696c6564000000000000000000604482015290519081900360640190fd5b60008261247f5750600061208f565b508181028183828161248d57fe5b041461208f576040805162461bcd60e51b815260206004820152600860248201527f6f766572666c6f77000000000000000000000000000000000000000000000000604482015290519081900360640190fd5b600081612534576040805162461bcd60e51b815260206004820152600960248201527f64697662797a65726f0000000000000000000000000000000000000000000000604482015290519081900360640190fd5b81838161253d57fe5b049392505050565b60008282111561259c576040805162461bcd60e51b815260206004820152600860248201527f756e6465666c6f77000000000000000000000000000000000000000000000000604482015290519081900360640190fd5b5090039056fe6f6e6c792061646d696e2063616e207365747570206d6574615472616e73616374696f6e50726f636573736f7273a2646970667358221220fc9205bafc138c1de206481f144dc3e7818922fbe1a20d2a71392e5e2e413c1a64736f6c63430006050033",
  "devdoc": {
    "methods": {
      "buyLandWithSand(address,address,address,uint256[],bytes32,uint256[],bytes32[],bytes,bytes)": {
        "params": {
          "buyer": "address that perform the payment",
          "info": "[X_INDEX=0] x coordinate of the Land [Y_INDEX=1] y coordinate of the Land [SIZE_INDEX=2] size of the pack of Land to purchase [PRICE_INDEX=3] price in SAND to purchase that Land",
          "proof": "merkleProof for that particular Land",
          "reserved": "the reserved address (if any)",
          "to": "address that will own the purchased Land"
        }
      },
      "changeAdmin(address)": {
        "details": "change the administrator to be `newAdmin`.",
        "params": {
          "newAdmin": "address of the new administrator."
        }
      },
      "getAdmin()": {
        "details": "gives the current administrator of this contract.",
        "returns": {
          "_0": "the current administrator of this contract."
        }
      },
      "getSigningWallet()": {
        "details": "signing wallet authorized for referral",
        "returns": {
          "_0": "the address of the signing wallet"
        }
      },
      "isMetaTransactionProcessor(address)": {
        "details": "check whether address `who` is given meta-transaction execution rights.",
        "params": {
          "who": "The address to query."
        },
        "returns": {
          "_0": "whether the address has meta-transaction execution rights."
        }
      },
      "isReferralValid(bytes,address,address,uint256,uint256)": {
        "params": {
          "commissionRate": "The commissionRate of the referral",
          "expiryTime": "The expiry time of the referral",
          "referee": "The address of the referee",
          "referrer": "The address of the referrer",
          "signature": "The signature to check (signed referral)"
        },
        "returns": {
          "_0": "True if the referral is valid"
        }
      },
      "setMetaTransactionProcessor(address,bool)": {
        "details": "Enable or disable the ability of `metaTransactionProcessor` to perform meta-tx (metaTransactionProcessor rights).",
        "params": {
          "enabled": "set whether the metaTransactionProcessor is enabled or disabled.",
          "metaTransactionProcessor": "address that will be given/removed metaTransactionProcessor rights."
        }
      },
      "setReceivingWallet(address)": {
        "params": {
          "newWallet": "address of the new receiving wallet"
        }
      },
      "updateMaxCommissionRate(uint256)": {
        "details": "Update the maximum commission rate",
        "params": {
          "newMaxCommissionRate": "The new maximum commission rate"
        }
      },
      "updateSigningWallet(address)": {
        "details": "Update the signing wallet",
        "params": {
          "newSigningWallet": "The new address of the signing wallet"
        }
      },
      "withdrawAssets(address,uint256[],uint256[])": {
        "params": {
          "assetIds": "the assetIds to be transferred",
          "to": "intended recipient of the asset tokens",
          "values": "the quantities of the assetIds to be transferred"
        }
      }
    },
    "title": "Estate Sale contract with referral"
  },
  "userdoc": {
    "methods": {
      "buyLandWithSand(address,address,address,uint256[],bytes32,uint256[],bytes32[],bytes,bytes)": {
        "notice": "buy Land with SAND using the merkle proof associated with it"
      },
      "getExpiryTime()": {
        "notice": "Gets the expiry time for the current sale"
      },
      "getMaxCommisionRate()": {
        "notice": "the max commision rate"
      },
      "getMerkleRoot()": {
        "notice": "Gets the Merkle root associated with the current sale"
      },
      "isReferralValid(bytes,address,address,uint256,uint256)": {
        "notice": "Check if a referral is valid"
      },
      "setReceivingWallet(address)": {
        "notice": "set the wallet receiving the proceeds"
      },
      "withdrawAssets(address,uint256[],uint256[])": {
        "notice": "enable Admin to withdraw remaining assets from EstateSaleWithFee contract"
      }
    },
    "notice": "This contract manages the sale of our lands as Estates"
  },
  "storageLayout": {
    "storage": [
      {
        "astId": 13650,
        "contract": "src/solc_0.6/EstateSale/EstateSaleWithAuth.sol:EstateSaleWithAuth",
        "label": "_admin",
        "offset": 0,
        "slot": "0",
        "type": "t_address"
      },
      {
        "astId": 13712,
        "contract": "src/solc_0.6/EstateSale/EstateSaleWithAuth.sol:EstateSaleWithAuth",
        "label": "_metaTransactionContracts",
        "offset": 0,
        "slot": "1",
        "type": "t_mapping(t_address,t_bool)"
      },
      {
        "astId": 11828,
        "contract": "src/solc_0.6/EstateSale/EstateSaleWithAuth.sol:EstateSaleWithAuth",
        "label": "_signingWallet",
        "offset": 0,
        "slot": "2",
        "type": "t_address"
      },
      {
        "astId": 11830,
        "contract": "src/solc_0.6/EstateSale/EstateSaleWithAuth.sol:EstateSaleWithAuth",
        "label": "_maxCommissionRate",
        "offset": 0,
        "slot": "3",
        "type": "t_uint256"
      },
      {
        "astId": 11834,
        "contract": "src/solc_0.6/EstateSale/EstateSaleWithAuth.sol:EstateSaleWithAuth",
        "label": "_previousSigningWallets",
        "offset": 0,
        "slot": "4",
        "type": "t_mapping(t_address,t_uint256)"
      },
      {
        "astId": 11843,
        "contract": "src/solc_0.6/EstateSale/EstateSaleWithAuth.sol:EstateSaleWithAuth",
        "label": "_previousSigningDelay",
        "offset": 0,
        "slot": "5",
        "type": "t_uint256"
      },
      {
        "astId": 7453,
        "contract": "src/solc_0.6/EstateSale/EstateSaleWithAuth.sol:EstateSaleWithAuth",
        "label": "_wallet",
        "offset": 0,
        "slot": "6",
        "type": "t_address_payable"
      },
      {
        "astId": 7455,
        "contract": "src/solc_0.6/EstateSale/EstateSaleWithAuth.sol:EstateSaleWithAuth",
        "label": "_authValidator",
        "offset": 0,
        "slot": "7",
        "type": "t_contract(AuthValidator)6784"
      }
    ],
    "types": {
      "t_address": {
        "encoding": "inplace",
        "label": "address",
        "numberOfBytes": "20"
      },
      "t_address_payable": {
        "encoding": "inplace",
        "label": "address payable",
        "numberOfBytes": "20"
      },
      "t_bool": {
        "encoding": "inplace",
        "label": "bool",
        "numberOfBytes": "1"
      },
      "t_contract(AuthValidator)6784": {
        "encoding": "inplace",
        "label": "contract AuthValidator",
        "numberOfBytes": "20"
      },
      "t_mapping(t_address,t_bool)": {
        "encoding": "mapping",
        "key": "t_address",
        "label": "mapping(address => bool)",
        "numberOfBytes": "32",
        "value": "t_bool"
      },
      "t_mapping(t_address,t_uint256)": {
        "encoding": "mapping",
        "key": "t_address",
        "label": "mapping(address => uint256)",
        "numberOfBytes": "32",
        "value": "t_uint256"
      },
      "t_uint256": {
        "encoding": "inplace",
        "label": "uint256",
        "numberOfBytes": "32"
      }
    }
  }
}