{
  "address": "0xEAa95488ADD154A4e3686638e5b38D61F6Ca728e",
  "abi": [
    {
      "inputs": [
        {
          "internalType": "address",
          "name": "landAddress",
          "type": "address"
        },
        {
          "internalType": "address",
          "name": "sandContractAddress",
          "type": "address"
        },
        {
          "internalType": "address",
          "name": "initialMetaTx",
          "type": "address"
        },
        {
          "internalType": "address",
          "name": "admin",
          "type": "address"
        },
        {
          "internalType": "address payable",
          "name": "initialWalletAddress",
          "type": "address"
        },
        {
          "internalType": "bytes32",
          "name": "merkleRoot",
          "type": "bytes32"
        },
        {
          "internalType": "uint256",
          "name": "expiryTime",
          "type": "uint256"
        },
        {
          "internalType": "address",
          "name": "initialSigningWallet",
          "type": "address"
        },
        {
          "internalType": "uint256",
          "name": "initialMaxCommissionRate",
          "type": "uint256"
        },
        {
          "internalType": "address",
          "name": "estate",
          "type": "address"
        },
        {
          "internalType": "address",
          "name": "asset",
          "type": "address"
        },
        {
          "internalType": "address",
          "name": "feeDistributor",
          "type": "address"
        }
      ],
      "stateMutability": "nonpayable",
      "type": "constructor"
    },
    {
      "anonymous": false,
      "inputs": [
        {
          "indexed": false,
          "internalType": "address",
          "name": "oldAdmin",
          "type": "address"
        },
        {
          "indexed": false,
          "internalType": "address",
          "name": "newAdmin",
          "type": "address"
        }
      ],
      "name": "AdminChanged",
      "type": "event"
    },
    {
      "anonymous": false,
      "inputs": [
        {
          "indexed": true,
          "internalType": "address",
          "name": "buyer",
          "type": "address"
        },
        {
          "indexed": true,
          "internalType": "address",
          "name": "to",
          "type": "address"
        },
        {
          "indexed": true,
          "internalType": "uint256",
          "name": "topCornerId",
          "type": "uint256"
        },
        {
          "indexed": false,
          "internalType": "uint256",
          "name": "size",
          "type": "uint256"
        },
        {
          "indexed": false,
          "internalType": "uint256",
          "name": "price",
          "type": "uint256"
        },
        {
          "indexed": false,
          "internalType": "address",
          "name": "token",
          "type": "address"
        },
        {
          "indexed": false,
          "internalType": "uint256",
          "name": "amountPaid",
          "type": "uint256"
        }
      ],
      "name": "LandQuadPurchased",
      "type": "event"
    },
    {
      "anonymous": false,
      "inputs": [
        {
          "indexed": false,
          "internalType": "address",
          "name": "metaTransactionProcessor",
          "type": "address"
        },
        {
          "indexed": false,
          "internalType": "bool",
          "name": "enabled",
          "type": "bool"
        }
      ],
      "name": "MetaTransactionProcessor",
      "type": "event"
    },
    {
      "anonymous": false,
      "inputs": [
        {
          "indexed": true,
          "internalType": "address",
          "name": "referrer",
          "type": "address"
        },
        {
          "indexed": true,
          "internalType": "address",
          "name": "referee",
          "type": "address"
        },
        {
          "indexed": true,
          "internalType": "address",
          "name": "token",
          "type": "address"
        },
        {
          "indexed": false,
          "internalType": "uint256",
          "name": "amount",
          "type": "uint256"
        },
        {
          "indexed": false,
          "internalType": "uint256",
          "name": "commission",
          "type": "uint256"
        },
        {
          "indexed": false,
          "internalType": "uint256",
          "name": "commissionRate",
          "type": "uint256"
        }
      ],
      "name": "ReferralUsed",
      "type": "event"
    },
    {
      "inputs": [
        {
          "internalType": "address",
          "name": "buyer",
          "type": "address"
        },
        {
          "internalType": "address",
          "name": "to",
          "type": "address"
        },
        {
          "internalType": "address",
          "name": "reserved",
          "type": "address"
        },
        {
          "internalType": "uint256",
          "name": "x",
          "type": "uint256"
        },
        {
          "internalType": "uint256",
          "name": "y",
          "type": "uint256"
        },
        {
          "internalType": "uint256",
          "name": "size",
          "type": "uint256"
        },
        {
          "internalType": "uint256",
          "name": "priceInSand",
          "type": "uint256"
        },
        {
          "internalType": "uint256",
          "name": "adjustedPriceInSand",
          "type": "uint256"
        },
        {
          "internalType": "bytes32",
          "name": "salt",
          "type": "bytes32"
        },
        {
          "internalType": "uint256[]",
          "name": "assetIds",
          "type": "uint256[]"
        },
        {
          "internalType": "bytes32[]",
          "name": "proof",
          "type": "bytes32[]"
        },
        {
          "internalType": "bytes",
          "name": "referral",
          "type": "bytes"
        }
      ],
      "name": "buyLandWithSand",
      "outputs": [],
      "stateMutability": "nonpayable",
      "type": "function"
    },
    {
      "inputs": [
        {
          "internalType": "address",
          "name": "newAdmin",
          "type": "address"
        }
      ],
      "name": "changeAdmin",
      "outputs": [],
      "stateMutability": "nonpayable",
      "type": "function"
    },
    {
      "inputs": [
        {
          "internalType": "bytes",
          "name": "referral",
          "type": "bytes"
        }
      ],
      "name": "decodeReferral",
      "outputs": [
        {
          "internalType": "bytes",
          "name": "",
          "type": "bytes"
        },
        {
          "internalType": "address",
          "name": "",
          "type": "address"
        },
        {
          "internalType": "address",
          "name": "",
          "type": "address"
        },
        {
          "internalType": "uint256",
          "name": "",
          "type": "uint256"
        },
        {
          "internalType": "uint256",
          "name": "",
          "type": "uint256"
        }
      ],
      "stateMutability": "pure",
      "type": "function"
    },
    {
      "inputs": [],
      "name": "getAdmin",
      "outputs": [
        {
          "internalType": "address",
          "name": "",
          "type": "address"
        }
      ],
      "stateMutability": "view",
      "type": "function"
    },
    {
      "inputs": [],
      "name": "getExpiryTime",
      "outputs": [
        {
          "internalType": "uint256",
          "name": "",
          "type": "uint256"
        }
      ],
      "stateMutability": "view",
      "type": "function"
    },
    {
      "inputs": [],
      "name": "getMaxCommisionRate",
      "outputs": [
        {
          "internalType": "uint256",
          "name": "",
          "type": "uint256"
        }
      ],
      "stateMutability": "view",
      "type": "function"
    },
    {
      "inputs": [],
      "name": "getMerkleRoot",
      "outputs": [
        {
          "internalType": "bytes32",
          "name": "",
          "type": "bytes32"
        }
      ],
      "stateMutability": "view",
      "type": "function"
    },
    {
      "inputs": [],
      "name": "getSandMultiplier",
      "outputs": [
        {
          "internalType": "uint256",
          "name": "",
          "type": "uint256"
        }
      ],
      "stateMutability": "view",
      "type": "function"
    },
    {
      "inputs": [],
      "name": "getSigningWallet",
      "outputs": [
        {
          "internalType": "address",
          "name": "",
          "type": "address"
        }
      ],
      "stateMutability": "view",
      "type": "function"
    },
    {
      "inputs": [
        {
          "internalType": "address",
          "name": "who",
          "type": "address"
        }
      ],
      "name": "isMetaTransactionProcessor",
      "outputs": [
        {
          "internalType": "bool",
          "name": "",
          "type": "bool"
        }
      ],
      "stateMutability": "view",
      "type": "function"
    },
    {
      "inputs": [
        {
          "internalType": "bytes",
          "name": "signature",
          "type": "bytes"
        },
        {
          "internalType": "address",
          "name": "referrer",
          "type": "address"
        },
        {
          "internalType": "address",
          "name": "referee",
          "type": "address"
        },
        {
          "internalType": "uint256",
          "name": "expiryTime",
          "type": "uint256"
        },
        {
          "internalType": "uint256",
          "name": "commissionRate",
          "type": "uint256"
        }
      ],
      "name": "isReferralValid",
      "outputs": [
        {
          "internalType": "bool",
          "name": "",
          "type": "bool"
        }
      ],
      "stateMutability": "view",
      "type": "function"
    },
    {
      "inputs": [
        {
          "internalType": "address",
          "name": "",
          "type": "address"
        },
        {
          "internalType": "address",
          "name": "",
          "type": "address"
        },
        {
          "internalType": "uint256[]",
          "name": "",
          "type": "uint256[]"
        },
        {
          "internalType": "uint256[]",
          "name": "",
          "type": "uint256[]"
        },
        {
          "internalType": "bytes",
          "name": "",
          "type": "bytes"
        }
      ],
      "name": "onERC1155BatchReceived",
      "outputs": [
        {
          "internalType": "bytes4",
          "name": "",
          "type": "bytes4"
        }
      ],
      "stateMutability": "pure",
      "type": "function"
    },
    {
      "inputs": [
        {
          "internalType": "address",
          "name": "",
          "type": "address"
        },
        {
          "internalType": "address",
          "name": "",
          "type": "address"
        },
        {
          "internalType": "uint256",
          "name": "",
          "type": "uint256"
        },
        {
          "internalType": "uint256",
          "name": "",
          "type": "uint256"
        },
        {
          "internalType": "bytes",
          "name": "",
          "type": "bytes"
        }
      ],
      "name": "onERC1155Received",
      "outputs": [
        {
          "internalType": "bytes4",
          "name": "",
          "type": "bytes4"
        }
      ],
      "stateMutability": "pure",
      "type": "function"
    },
    {
      "inputs": [
        {
          "internalType": "uint256",
          "name": "newMultiplier",
          "type": "uint256"
        }
      ],
      "name": "rebalanceSand",
      "outputs": [],
      "stateMutability": "nonpayable",
      "type": "function"
    },
    {
      "inputs": [
        {
          "internalType": "address",
          "name": "metaTransactionProcessor",
          "type": "address"
        },
        {
          "internalType": "bool",
          "name": "enabled",
          "type": "bool"
        }
      ],
      "name": "setMetaTransactionProcessor",
      "outputs": [],
      "stateMutability": "nonpayable",
      "type": "function"
    },
    {
      "inputs": [
        {
          "internalType": "address payable",
          "name": "newWallet",
          "type": "address"
        }
      ],
      "name": "setReceivingWallet",
      "outputs": [],
      "stateMutability": "nonpayable",
      "type": "function"
    },
    {
      "inputs": [
        {
          "internalType": "uint256",
          "name": "newMaxCommissionRate",
          "type": "uint256"
        }
      ],
      "name": "updateMaxCommissionRate",
      "outputs": [],
      "stateMutability": "nonpayable",
      "type": "function"
    },
    {
      "inputs": [
        {
          "internalType": "address",
          "name": "newSigningWallet",
          "type": "address"
        }
      ],
      "name": "updateSigningWallet",
      "outputs": [],
      "stateMutability": "nonpayable",
      "type": "function"
    },
    {
      "inputs": [
        {
          "internalType": "address",
          "name": "to",
          "type": "address"
        },
        {
          "internalType": "uint256[]",
          "name": "assetIds",
          "type": "uint256[]"
        },
        {
          "internalType": "uint256[]",
          "name": "values",
          "type": "uint256[]"
        }
      ],
      "name": "withdrawAssets",
      "outputs": [],
      "stateMutability": "nonpayable",
      "type": "function"
    }
  ],
  "transactionHash": "0xd6997af38dcbb5926575977b03cec8dbf6c6b98b0014b60fd6e0b3faf475cb8d",
  "args": [
    "0x50f5474724e0Ee42D9a4e711ccFB275809Fd6d4a",
    "0x3845badAde8e6dFF049820680d1F14bD3903a5d0",
    "0x3845badAde8e6dFF049820680d1F14bD3903a5d0",
    "0xEAA0993E1d21c2103e4f172a20D29371FbAF6D06",
    "0x4489590a116618B506F0EfE885432F6A8ED998E9",
    "0xe9c9fe4673ba28415daa0d91410dda21140c423c5a6a24ed206b10cf5a1dccdf",
    1631192400,
    "0x3044719d139F866a44c988823513eCB93060bF1b",
    2000,
    "0x0000000000000000000000000000000000000000",
    "0xa342f5D851E866E18ff98F351f2c6637f4478dB5",
    "0x0EB04462D69B1D267d269377E34f60b9De1c8510"
  ],
  "linkedData": [
    {
      "x": 0,
      "y": 328,
      "size": 1,
      "price": "1011000000000000000000",
      "reserved": "",
      "salt": "0x28766aa5531c0fbf8e64504902bdbae097d938c3f069bf794e08f38fd62a0930",
      "assetIds": []
    },
    {
      "x": 0,
      "y": 329,
      "size": 1,
      "price": "1011000000000000000000",
      "reserved": "0x7a9fe22691c811ea339d9b73150e6911a5343dca",
      "salt": "0xcf2865be0a51a3e9b966868c5ce7a70c653f1eaffc8007cb0aa4b144f0094365",
      "assetIds": []
    },
    {
      "x": 0,
      "y": 330,
      "size": 1,
      "price": "1011000000000000000000",
      "reserved": "",
      "salt": "0xeb826c6e31cc09407906dcd8c88eab3e0524cabf488f92184f59c3e35cc77973",
      "assetIds": []
    },
    {
      "x": 0,
      "y": 331,
      "size": 1,
      "price": "1011000000000000000000",
      "reserved": "",
      "salt": "0x00c7c5de1979cf1329f4fc9f107041947722a17618eabe4685579196d48556b8",
      "assetIds": []
    },
    {
      "x": 0,
      "y": 332,
      "size": 1,
      "price": "1011000000000000000000",
      "reserved": "",
      "salt": "0x46fba833779a282460aa25be4a5e7e02f653025b71da1032809a152e4a582854",
      "assetIds": []
    },
    {
      "x": 0,
      "y": 333,
      "size": 1,
      "price": "1011000000000000000000",
      "reserved": "",
      "salt": "0x690b49350159aa1aa8f901fa34a6d1d08df0994748e3ed2e2a0074978480a3b5",
      "assetIds": []
    },
    {
      "x": 0,
      "y": 334,
      "size": 1,
      "price": "1011000000000000000000",
      "reserved": "0x7a9fe22691c811ea339d9b73150e6911a5343dca",
      "salt": "0x5de1372e2db55662a1730b00877af094268c00f3b7201fb08ae071d616fbc956",
      "assetIds": []
    },
    {
      "x": 0,
      "y": 335,
      "size": 1,
      "price": "1011000000000000000000",
      "reserved": "",
      "salt": "0x68dc60efe19f64cac33213bf1700f223b0a5c5e032b9ec1bbdec33d14c2c2a4b",
      "assetIds": []
    },
    {
      "x": 0,
      "y": 336,
      "size": 1,
      "price": "1011000000000000000000",
      "reserved": "",
      "salt": "0x27d62a7467175678f0f21b8aabc0586ce740f666948e8fe1448e765a40cec15f",
      "assetIds": []
    },
    {
      "x": 0,
      "y": 337,
      "size": 1,
      "price": "1011000000000000000000",
      "reserved": "",
      "salt": "0xe7faf3641a6fdfed6d44a878154558560a0574b2edd547addb85e3daa8f0d084",
      "assetIds": []
    },
    {
      "x": 0,
      "y": 338,
      "size": 1,
      "price": "1011000000000000000000",
      "reserved": "0x7a9fe22691c811ea339d9b73150e6911a5343dca",
      "salt": "0x9331fce39a56bff216e8521617f3a21bd628f57276903e62369b36b9e89501f9",
      "assetIds": []
    },
    {
      "x": 0,
      "y": 339,
      "size": 1,
      "price": "4683000000000000000000",
      "reserved": "",
      "salt": "0xc04c577c418ce9d50bb7c66b2a753020147394d7bb5b771373813aea67bf121d",
      "assetIds": [
        "55464657044963196816950587289035428064568320970692304673817341489687933519878",
        "55464657044963196816950587289035428064568320970692304673817341489687933519885",
        "55464657044963196816950587289035428064568320970692304673817341489687933519888",
        "55464657044963196816950587289035428064568320970692304673817341489687933519877",
        "55464657044963196816950587289035428064568320970692304673817341489687941879809",
        "55464657044963196816950587289035428064568320970692304673817341489687933519881"
      ]
    },
    {
      "x": 0,
      "y": 340,
      "size": 1,
      "price": "4683000000000000000000",
      "reserved": "",
      "salt": "0xb1824307dc274178defc4b28ef0d4b366c0167a667f465d14d67cc130b1855ea",
      "assetIds": [
        "55464657044963196816950587289035428064568320970692304673817341489687933519878",
        "55464657044963196816950587289035428064568320970692304673817341489687933519885",
        "55464657044963196816950587289035428064568320970692304673817341489687933519888",
        "55464657044963196816950587289035428064568320970692304673817341489687933519877",
        "55464657044963196816950587289035428064568320970692304673817341489687941879809",
        "55464657044963196816950587289035428064568320970692304673817341489687933519881"
      ]
    },
    {
      "x": 0,
      "y": 341,
      "size": 1,
      "price": "4683000000000000000000",
      "reserved": "",
      "salt": "0x12b212f4526199674774206206b94fbf8c7394ebdbe4eca8cd509580cb533166",
      "assetIds": [
        "55464657044963196816950587289035428064568320970692304673817341489687933519878",
        "55464657044963196816950587289035428064568320970692304673817341489687933519885",
        "55464657044963196816950587289035428064568320970692304673817341489687933519888",
        "55464657044963196816950587289035428064568320970692304673817341489687933519877",
        "55464657044963196816950587289035428064568320970692304673817341489687941879809",
        "55464657044963196816950587289035428064568320970692304673817341489687933519881"
      ]
    },
    {
      "x": 0,
      "y": 342,
      "size": 1,
      "price": "1011000000000000000000",
      "reserved": "0x7a9fe22691c811ea339d9b73150e6911a5343dca",
      "salt": "0x02ea72c7f268ba753cc251d4f22ed90671fc5a472067430600047ec23a9ad580",
      "assetIds": []
    },
    {
      "x": 0,
      "y": 343,
      "size": 1,
      "price": "1011000000000000000000",
      "reserved": "0x7a9fe22691c811ea339d9b73150e6911a5343dca",
      "salt": "0x60508f884bb7dedcb30459cb11d10f263fb2cba0109d2c45c2a525410d0c7f8f",
      "assetIds": []
    },
    {
      "x": 0,
      "y": 344,
      "size": 1,
      "price": "1011000000000000000000",
      "reserved": "0x7a9fe22691c811ea339d9b73150e6911a5343dca",
      "salt": "0x99a07ae39bf78bb02213c6693287c7bc9822c4ffddd6b5f7d1a9a58e63ae0cda",
      "assetIds": []
    },
    {
      "x": 0,
      "y": 348,
      "size": 1,
      "price": "1011000000000000000000",
      "reserved": "",
      "salt": "0xef3758f2d9ce7745c35ecdaf5914e2ab6370b01d15752332552cee6f06f7d2af",
      "assetIds": []
    },
    {
      "x": 0,
      "y": 349,
      "size": 1,
      "price": "1011000000000000000000",
      "reserved": "0x7a9fe22691c811ea339d9b73150e6911a5343dca",
      "salt": "0xf9692237a6c7967750a3e2bd30524139e4a2a6e860da1788e644ec8f217019df",
      "assetIds": []
    },
    {
      "x": 0,
      "y": 350,
      "size": 1,
      "price": "1011000000000000000000",
      "reserved": "",
      "salt": "0x7b3ac579fb315aaf759a9ea4a512d2e3cab9442647e944335575cebe2de0b0cc",
      "assetIds": []
    },
    {
      "x": 0,
      "y": 351,
      "size": 1,
      "price": "1011000000000000000000",
      "reserved": "",
      "salt": "0x5aa14cde59d637223769dc32292588a7b63818a1f67665383e56dd15546717a1",
      "assetIds": []
    },
    {
      "x": 0,
      "y": 352,
      "size": 1,
      "price": "1011000000000000000000",
      "reserved": "0x7a9fe22691c811ea339d9b73150e6911a5343dca",
      "salt": "0x5edc2c7d2d817325f28c50afc93d0871dd9812528fd65d526c04cc981595dd3a",
      "assetIds": []
    },
    {
      "x": 0,
      "y": 353,
      "size": 1,
      "price": "1011000000000000000000",
      "reserved": "",
      "salt": "0x4954abfdc1905ea582c86882f21541151ee452fc17912fff4277594e706d7d83",
      "assetIds": []
    },
    {
      "x": 0,
      "y": 354,
      "size": 1,
      "price": "1011000000000000000000",
      "reserved": "",
      "salt": "0xf5d08c459940b34c693b0d44461fba888de327aa4851b22f0c980106aa5292a6",
      "assetIds": []
    },
    {
      "x": 0,
      "y": 355,
      "size": 1,
      "price": "1011000000000000000000",
      "reserved": "",
      "salt": "0x6a441ad20ff54919800ea6740de82f915c1ddd96083f6f9fb8638357eadc3351",
      "assetIds": []
    },
    {
      "x": 0,
      "y": 356,
      "size": 1,
      "price": "1011000000000000000000",
      "reserved": "0x7a9fe22691c811ea339d9b73150e6911a5343dca",
      "salt": "0xb84ee2dd362cc76b7eb635e6bc06b2817cb5e943189dde90661608aea89be535",
      "assetIds": []
    },
    {
      "x": 1,
      "y": 328,
      "size": 1,
      "price": "1011000000000000000000",
      "reserved": "",
      "salt": "0xc874aa836e96e46b419b35daff655c4f48ca4b3e265a6c1bb832940df98ba0ad",
      "assetIds": []
    },
    {
      "x": 1,
      "y": 329,
      "size": 1,
      "price": "1011000000000000000000",
      "reserved": "",
      "salt": "0x5794bd5a087935fc6c8b1efffdd567805f1414cbf14ec766199f838a3faa7509",
      "assetIds": []
    },
    {
      "x": 1,
      "y": 330,
      "size": 1,
      "price": "1011000000000000000000",
      "reserved": "",
      "salt": "0x2dea7ab16a1a771f9040d1ded634af8947f409f6407d44916708146f15bfc39d",
      "assetIds": []
    },
    {
      "x": 1,
      "y": 331,
      "size": 1,
      "price": "1011000000000000000000",
      "reserved": "",
      "salt": "0x9f0b01b060b66594a47f7b476044e766a6e2d095321b8264ee1f1e73d22ea6fd",
      "assetIds": []
    },
    {
      "x": 1,
      "y": 332,
      "size": 1,
      "price": "1011000000000000000000",
      "reserved": "",
      "salt": "0x2ac989f88b91ef3e349d4b633bd6932e4c0760bca5a44ad13a032dc19fadd510",
      "assetIds": []
    },
    {
      "x": 1,
      "y": 333,
      "size": 1,
      "price": "1011000000000000000000",
      "reserved": "",
      "salt": "0xd64a0459ed309d01c902dc54526570b4b44f335610f2d178475681fed6dee3f7",
      "assetIds": []
    },
    {
      "x": 1,
      "y": 334,
      "size": 1,
      "price": "1011000000000000000000",
      "reserved": "",
      "salt": "0x636f058e8fb8e8e7a17d79f5fdb1d0e272a548aed4ac080f3576793c32c8144d",
      "assetIds": []
    },
    {
      "x": 1,
      "y": 335,
      "size": 1,
      "price": "1011000000000000000000",
      "reserved": "",
      "salt": "0x6fdd15ac51d9f85d3175494c38fef8fe0b17957feff98e802fcbf903b3e11104",
      "assetIds": []
    },
    {
      "x": 1,
      "y": 336,
      "size": 1,
      "price": "1011000000000000000000",
      "reserved": "0x7a9fe22691c811ea339d9b73150e6911a5343dca",
      "salt": "0xf36e6e8feaa05b398b480540b3e5b126d3126d0fa1aa6de348dad4b6beef6b87",
      "assetIds": []
    },
    {
      "x": 1,
      "y": 337,
      "size": 1,
      "price": "4683000000000000000000",
      "reserved": "",
      "salt": "0x5c4b47a98d705d1623fc538d6d66ff0a347084a4c0e544928af1b6bb7f982de8",
      "assetIds": [
        "55464657044963196816950587289035428064568320970692304673817341489687933519878",
        "55464657044963196816950587289035428064568320970692304673817341489687933519885",
        "55464657044963196816950587289035428064568320970692304673817341489687933519888",
        "55464657044963196816950587289035428064568320970692304673817341489687933519877",
        "55464657044963196816950587289035428064568320970692304673817341489687941879809",
        "55464657044963196816950587289035428064568320970692304673817341489687933519881"
      ]
    },
    {
      "x": 1,
      "y": 338,
      "size": 1,
      "price": "4683000000000000000000",
      "reserved": "",
      "salt": "0xc58850623743d952ab390cab1643472283bb1edc3f6214233fc3ef4975798c01",
      "assetIds": [
        "55464657044963196816950587289035428064568320970692304673817341489687933519878",
        "55464657044963196816950587289035428064568320970692304673817341489687933519885",
        "55464657044963196816950587289035428064568320970692304673817341489687933519888",
        "55464657044963196816950587289035428064568320970692304673817341489687933519877",
        "55464657044963196816950587289035428064568320970692304673817341489687941879809",
        "55464657044963196816950587289035428064568320970692304673817341489687933519881"
      ]
    },
    {
      "x": 1,
      "y": 339,
      "size": 1,
      "price": "4683000000000000000000",
      "reserved": "",
      "salt": "0xa77bcb065e4892c4a1032699457a03ca8ab80bee71198fa441f04740a4586f1e",
      "assetIds": [
        "55464657044963196816950587289035428064568320970692304673817341489687933519878",
        "55464657044963196816950587289035428064568320970692304673817341489687933519885",
        "55464657044963196816950587289035428064568320970692304673817341489687933519888",
        "55464657044963196816950587289035428064568320970692304673817341489687933519877",
        "55464657044963196816950587289035428064568320970692304673817341489687941879809",
        "55464657044963196816950587289035428064568320970692304673817341489687933519881"
      ]
    },
    {
      "x": 1,
      "y": 340,
      "size": 1,
      "price": "4683000000000000000000",
      "reserved": "",
      "salt": "0xbd0637ce73786a0a3ccbbee4c3c8643a0638ca7bf902437631c58c1c595ef171",
      "assetIds": [
        "55464657044963196816950587289035428064568320970692304673817341489687933519878",
        "55464657044963196816950587289035428064568320970692304673817341489687933519885",
        "55464657044963196816950587289035428064568320970692304673817341489687933519888",
        "55464657044963196816950587289035428064568320970692304673817341489687933519877",
        "55464657044963196816950587289035428064568320970692304673817341489687941879809",
        "55464657044963196816950587289035428064568320970692304673817341489687933519881"
      ]
    },
    {
      "x": 1,
      "y": 341,
      "size": 1,
      "price": "4683000000000000000000",
      "reserved": "",
      "salt": "0x15bdb92f1845ccd0502a550533dbe9349f4af1124d53b0f9abea1bf74cb9b82c",
      "assetIds": [
        "55464657044963196816950587289035428064568320970692304673817341489687933519878",
        "55464657044963196816950587289035428064568320970692304673817341489687933519885",
        "55464657044963196816950587289035428064568320970692304673817341489687933519888",
        "55464657044963196816950587289035428064568320970692304673817341489687933519877",
        "55464657044963196816950587289035428064568320970692304673817341489687941879809",
        "55464657044963196816950587289035428064568320970692304673817341489687933519881"
      ]
    },
    {
      "x": 1,
      "y": 342,
      "size": 1,
      "price": "4683000000000000000000",
      "reserved": "",
      "salt": "0x3355338cf464f9acc4f19f2c9c761c18c190fbd76ff802bc65ffc9ff8826570a",
      "assetIds": [
        "55464657044963196816950587289035428064568320970692304673817341489687933519878",
        "55464657044963196816950587289035428064568320970692304673817341489687933519885",
        "55464657044963196816950587289035428064568320970692304673817341489687933519888",
        "55464657044963196816950587289035428064568320970692304673817341489687933519877",
        "55464657044963196816950587289035428064568320970692304673817341489687941879809",
        "55464657044963196816950587289035428064568320970692304673817341489687933519881"
      ]
    },
    {
      "x": 1,
      "y": 343,
      "size": 1,
      "price": "4683000000000000000000",
      "reserved": "",
      "salt": "0x37c4361ce518453823519131c6ca9e33f8840a0265b83b4b0edd2f53965d2640",
      "assetIds": [
        "55464657044963196816950587289035428064568320970692304673817341489687933519878",
        "55464657044963196816950587289035428064568320970692304673817341489687933519885",
        "55464657044963196816950587289035428064568320970692304673817341489687933519888",
        "55464657044963196816950587289035428064568320970692304673817341489687933519877",
        "55464657044963196816950587289035428064568320970692304673817341489687941879809",
        "55464657044963196816950587289035428064568320970692304673817341489687933519881"
      ]
    },
    {
      "x": 1,
      "y": 344,
      "size": 1,
      "price": "4683000000000000000000",
      "reserved": "",
      "salt": "0xd50f1fe8cb44fec67fd457eb7c9ecab6e7796a865ebbd6e5c02973b609f8d946",
      "assetIds": [
        "55464657044963196816950587289035428064568320970692304673817341489687933519878",
        "55464657044963196816950587289035428064568320970692304673817341489687933519885",
        "55464657044963196816950587289035428064568320970692304673817341489687933519888",
        "55464657044963196816950587289035428064568320970692304673817341489687933519877",
        "55464657044963196816950587289035428064568320970692304673817341489687941879809",
        "55464657044963196816950587289035428064568320970692304673817341489687933519881"
      ]
    },
    {
      "x": 1,
      "y": 348,
      "size": 1,
      "price": "1011000000000000000000",
      "reserved": "",
      "salt": "0x3d2439d0e7e82bfeabf461e05973b7053f150e873dc5522b55d048402436708f",
      "assetIds": []
    },
    {
      "x": 1,
      "y": 349,
      "size": 1,
      "price": "1011000000000000000000",
      "reserved": "0x7a9fe22691c811ea339d9b73150e6911a5343dca",
      "salt": "0x359e79ed9e88c9f1f8fdaa7122b086f109cd52be45e041f3a0122370a89b8f2a",
      "assetIds": []
    },
    {
      "x": 1,
      "y": 350,
      "size": 1,
      "price": "1011000000000000000000",
      "reserved": "",
      "salt": "0x8a7032c08f52c5a22225c7733ab268b0d452488dd862e347fb160503831a1d89",
      "assetIds": []
    },
    {
      "x": 1,
      "y": 351,
      "size": 1,
      "price": "1011000000000000000000",
      "reserved": "",
      "salt": "0xaf04911170833cfab95281faaf8efcf2328a536dc2787f4837b0612278bc50ab",
      "assetIds": []
    },
    {
      "x": 1,
      "y": 352,
      "size": 1,
      "price": "1011000000000000000000",
      "reserved": "",
      "salt": "0x30a0baed67db7bb9addceceef7d043d0c5a553f862a9634c5e80600aaef03f5d",
      "assetIds": []
    },
    {
      "x": 1,
      "y": 353,
      "size": 1,
      "price": "1011000000000000000000",
      "reserved": "0x7a9fe22691c811ea339d9b73150e6911a5343dca",
      "salt": "0xd83820ba7cf139c816e6b33f010feb414c2ec4ced58f83e962c33f0639ee6205",
      "assetIds": []
    },
    {
      "x": 1,
      "y": 354,
      "size": 1,
      "price": "1011000000000000000000",
      "reserved": "",
      "salt": "0x192ecb78d64dd4494998dd2911d75c49ff9ccae9778e480dfb857a387095f5a7",
      "assetIds": []
    },
    {
      "x": 1,
      "y": 355,
      "size": 1,
      "price": "1011000000000000000000",
      "reserved": "0x7a9fe22691c811ea339d9b73150e6911a5343dca",
      "salt": "0x23d514d90278afd4d51c4b99ee716aae402e8be6bd67049c3b314404da5956c9",
      "assetIds": []
    },
    {
      "x": 1,
      "y": 356,
      "size": 1,
      "price": "1011000000000000000000",
      "reserved": "",
      "salt": "0x0d7ca9379bb79983b1bf057f19e4999a69b4f548a6ad305093b8292ce187fa24",
      "assetIds": []
    },
    {
      "x": 2,
      "y": 328,
      "size": 1,
      "price": "1011000000000000000000",
      "reserved": "0x7a9fe22691c811ea339d9b73150e6911a5343dca",
      "salt": "0x720b9348d4d8cb0b2c1943cbc2d3fa3d84ffa14d000e22a565fcc2e2f8fe08f3",
      "assetIds": []
    },
    {
      "x": 2,
      "y": 329,
      "size": 1,
      "price": "1011000000000000000000",
      "reserved": "",
      "salt": "0xaeab4ed5ad39fcb341c4fc519df2aab6ba59cd63901d75828c178357bb752752",
      "assetIds": []
    },
    {
      "x": 2,
      "y": 330,
      "size": 1,
      "price": "1011000000000000000000",
      "reserved": "0x7a9fe22691c811ea339d9b73150e6911a5343dca",
      "salt": "0xd566af802d0a0e2d27720793d92427ecb78f580f5cb85acf442625a61c0e2894",
      "assetIds": []
    },
    {
      "x": 2,
      "y": 331,
      "size": 1,
      "price": "1011000000000000000000",
      "reserved": "",
      "salt": "0xef06d96666045dd08392673d0d78a673d6a0be35253ef67a24cf1625f0aad5c1",
      "assetIds": []
    },
    {
      "x": 2,
      "y": 332,
      "size": 1,
      "price": "1011000000000000000000",
      "reserved": "",
      "salt": "0x096d86024be89a14052037d4f91e7bb02148838a261c91616170c435d535dfa7",
      "assetIds": []
    },
    {
      "x": 2,
      "y": 333,
      "size": 1,
      "price": "1011000000000000000000",
      "reserved": "",
      "salt": "0xb92c9bf686fe0d7e42a0efd63b0880924cdf522ee470cc8f36d462672e9699a1",
      "assetIds": []
    },
    {
      "x": 2,
      "y": 334,
      "size": 1,
      "price": "1011000000000000000000",
      "reserved": "",
      "salt": "0xa68aa48f5fe90d9c2f2ff9bb9cf560a7011854c8695a9d8a7e1e3b91a38dee8d",
      "assetIds": []
    },
    {
      "x": 2,
      "y": 335,
      "size": 1,
      "price": "1011000000000000000000",
      "reserved": "0x7a9fe22691c811ea339d9b73150e6911a5343dca",
      "salt": "0xabda0d306943ddbcf7adeccd1da905cfec803505e3140c4fbe0e41308c1465c0",
      "assetIds": []
    },
    {
      "x": 2,
      "y": 336,
      "size": 1,
      "price": "4683000000000000000000",
      "reserved": "",
      "salt": "0x1090c75ee5ee17d1bc5ef2d8709eb17e270cc12e6d018715a640c33fd149bec2",
      "assetIds": [
        "55464657044963196816950587289035428064568320970692304673817341489687933519878",
        "55464657044963196816950587289035428064568320970692304673817341489687933519885",
        "55464657044963196816950587289035428064568320970692304673817341489687933519888",
        "55464657044963196816950587289035428064568320970692304673817341489687933519877",
        "55464657044963196816950587289035428064568320970692304673817341489687941879809",
        "55464657044963196816950587289035428064568320970692304673817341489687933519881"
      ]
    },
    {
      "x": 2,
      "y": 337,
      "size": 1,
      "price": "4683000000000000000000",
      "reserved": "",
      "salt": "0x8480cace36506a410cd9eb3561739181994977b5aaa218fa641244e35bf68077",
      "assetIds": [
        "55464657044963196816950587289035428064568320970692304673817341489687933519878",
        "55464657044963196816950587289035428064568320970692304673817341489687933519885",
        "55464657044963196816950587289035428064568320970692304673817341489687933519888",
        "55464657044963196816950587289035428064568320970692304673817341489687933519877",
        "55464657044963196816950587289035428064568320970692304673817341489687941879809",
        "55464657044963196816950587289035428064568320970692304673817341489687933519881"
      ]
    },
    {
      "x": 2,
      "y": 338,
      "size": 1,
      "price": "4683000000000000000000",
      "reserved": "",
      "salt": "0x919a8d766d698e30d5dfa63758726b9528a3fdf8a50516911595773022af502d",
      "assetIds": [
        "55464657044963196816950587289035428064568320970692304673817341489687933519878",
        "55464657044963196816950587289035428064568320970692304673817341489687933519885",
        "55464657044963196816950587289035428064568320970692304673817341489687933519888",
        "55464657044963196816950587289035428064568320970692304673817341489687933519877",
        "55464657044963196816950587289035428064568320970692304673817341489687941879809",
        "55464657044963196816950587289035428064568320970692304673817341489687933519881"
      ]
    },
    {
      "x": 2,
      "y": 339,
      "size": 1,
      "price": "4683000000000000000000",
      "reserved": "",
      "salt": "0x8c6c2f8f3dd71391ad2bc9ec8c51cc47982324b63b375362eba38e99a7ae8bda",
      "assetIds": [
        "55464657044963196816950587289035428064568320970692304673817341489687933519878",
        "55464657044963196816950587289035428064568320970692304673817341489687933519885",
        "55464657044963196816950587289035428064568320970692304673817341489687933519888",
        "55464657044963196816950587289035428064568320970692304673817341489687933519877",
        "55464657044963196816950587289035428064568320970692304673817341489687941879809",
        "55464657044963196816950587289035428064568320970692304673817341489687933519881"
      ]
    },
    {
      "x": 2,
      "y": 340,
      "size": 1,
      "price": "4683000000000000000000",
      "reserved": "",
      "salt": "0x8122ae2d8e881c306d0a81f3b4a5599bb366eea159b1f7b4e49d6e48522f38f8",
      "assetIds": [
        "55464657044963196816950587289035428064568320970692304673817341489687933519878",
        "55464657044963196816950587289035428064568320970692304673817341489687933519885",
        "55464657044963196816950587289035428064568320970692304673817341489687933519888",
        "55464657044963196816950587289035428064568320970692304673817341489687933519877",
        "55464657044963196816950587289035428064568320970692304673817341489687941879809",
        "55464657044963196816950587289035428064568320970692304673817341489687933519881"
      ]
    },
    {
      "x": 2,
      "y": 341,
      "size": 1,
      "price": "4683000000000000000000",
      "reserved": "",
      "salt": "0x6b9cf62dc2ea8b8d4be3a65ed567f02a022be1772a7edf88e415aea19e55c6d3",
      "assetIds": [
        "55464657044963196816950587289035428064568320970692304673817341489687933519878",
        "55464657044963196816950587289035428064568320970692304673817341489687933519885",
        "55464657044963196816950587289035428064568320970692304673817341489687933519888",
        "55464657044963196816950587289035428064568320970692304673817341489687933519877",
        "55464657044963196816950587289035428064568320970692304673817341489687941879809",
        "55464657044963196816950587289035428064568320970692304673817341489687933519881"
      ]
    },
    {
      "x": 2,
      "y": 342,
      "size": 1,
      "price": "4683000000000000000000",
      "reserved": "",
      "salt": "0x32aca05c5aa69f525f808188b67106f5b416c91b57998b251d0aea309a6c866d",
      "assetIds": [
        "55464657044963196816950587289035428064568320970692304673817341489687933519878",
        "55464657044963196816950587289035428064568320970692304673817341489687933519885",
        "55464657044963196816950587289035428064568320970692304673817341489687933519888",
        "55464657044963196816950587289035428064568320970692304673817341489687933519877",
        "55464657044963196816950587289035428064568320970692304673817341489687941879809",
        "55464657044963196816950587289035428064568320970692304673817341489687933519881"
      ]
    },
    {
      "x": 2,
      "y": 343,
      "size": 1,
      "price": "4683000000000000000000",
      "reserved": "",
      "salt": "0x947429b8d92125000a0aefd1e3a66a8431654b003f0a835f46b91857d8df2475",
      "assetIds": [
        "55464657044963196816950587289035428064568320970692304673817341489687933519878",
        "55464657044963196816950587289035428064568320970692304673817341489687933519885",
        "55464657044963196816950587289035428064568320970692304673817341489687933519888",
        "55464657044963196816950587289035428064568320970692304673817341489687933519877",
        "55464657044963196816950587289035428064568320970692304673817341489687941879809",
        "55464657044963196816950587289035428064568320970692304673817341489687933519881"
      ]
    },
    {
      "x": 2,
      "y": 344,
      "size": 1,
      "price": "4683000000000000000000",
      "reserved": "",
      "salt": "0x85948d284c1757ad20d600efbbc9626a61d370983fbbf2e257da648cc559edcb",
      "assetIds": [
        "55464657044963196816950587289035428064568320970692304673817341489687933519878",
        "55464657044963196816950587289035428064568320970692304673817341489687933519885",
        "55464657044963196816950587289035428064568320970692304673817341489687933519888",
        "55464657044963196816950587289035428064568320970692304673817341489687933519877",
        "55464657044963196816950587289035428064568320970692304673817341489687941879809",
        "55464657044963196816950587289035428064568320970692304673817341489687933519881"
      ]
    },
    {
      "x": 2,
      "y": 348,
      "size": 1,
      "price": "1011000000000000000000",
      "reserved": "",
      "salt": "0xaa0d4523e69ca9d4ae0a98eec0af9ec127bdaf18a619a9df4ab2e67ac0da438a",
      "assetIds": []
    },
    {
      "x": 2,
      "y": 349,
      "size": 1,
      "price": "1011000000000000000000",
      "reserved": "",
      "salt": "0xe084da38b61e7378e87214ba0c36ec42b92b8f29c21ccccd26e67f73b13fd54f",
      "assetIds": []
    },
    {
      "x": 2,
      "y": 350,
      "size": 1,
      "price": "1011000000000000000000",
      "reserved": "",
      "salt": "0x7b927bee2901da13e2dd8e21b6ffd9002cbf8408e13c1d9a874ee941b2352311",
      "assetIds": []
    },
    {
      "x": 2,
      "y": 351,
      "size": 1,
      "price": "1011000000000000000000",
      "reserved": "",
      "salt": "0x548386c539f26af8b4cac02a77fa2abdb7d004434296bb8bc9d23b888b56ca76",
      "assetIds": []
    },
    {
      "x": 2,
      "y": 352,
      "size": 1,
      "price": "1011000000000000000000",
      "reserved": "",
      "salt": "0xb8b44ec89d1a9daf289f791f67dbe8712f100b37392db90017f3c39f24284169",
      "assetIds": []
    },
    {
      "x": 2,
      "y": 353,
      "size": 1,
      "price": "1011000000000000000000",
      "reserved": "",
      "salt": "0xc482aa269070610f533ef625586e3daeb327952aab922915aae655f5ad20ea5e",
      "assetIds": []
    },
    {
      "x": 2,
      "y": 354,
      "size": 1,
      "price": "1011000000000000000000",
      "reserved": "",
      "salt": "0x825bb8dc5cc4feb739cbdda614cecb856f767770a86faf87eb61d4a497f0b16e",
      "assetIds": []
    },
    {
      "x": 2,
      "y": 355,
      "size": 1,
      "price": "1011000000000000000000",
      "reserved": "",
      "salt": "0xee0a8f5b5a271d89d177e90f388f32c74b6ac99851848e38d88a964537dcbe33",
      "assetIds": []
    },
    {
      "x": 2,
      "y": 356,
      "size": 1,
      "price": "1011000000000000000000",
      "reserved": "",
      "salt": "0x9867e09490d287ffd8a39a743fa0f86f51f1f84a0ff58c5b17c9f68e528751f6",
      "assetIds": []
    },
    {
      "x": 3,
      "y": 328,
      "size": 1,
      "price": "1011000000000000000000",
      "reserved": "",
      "salt": "0xd6cc7c3551183ab9936fb5ac2a48943db7ef29695225a45f42e57a2fd7a83c54",
      "assetIds": []
    },
    {
      "x": 3,
      "y": 329,
      "size": 1,
      "price": "1011000000000000000000",
      "reserved": "",
      "salt": "0x396c23067f18aa4509a88509243f76ed6e28dfe55b9fdf2aed90d742cfbea324",
      "assetIds": []
    },
    {
      "x": 3,
      "y": 330,
      "size": 1,
      "price": "1011000000000000000000",
      "reserved": "0x7a9fe22691c811ea339d9b73150e6911a5343dca",
      "salt": "0x0a0bd232f62138ea507cf50a2652d219fc729ef32f4d72b5ca484ac950e4beed",
      "assetIds": []
    },
    {
      "x": 3,
      "y": 331,
      "size": 1,
      "price": "1011000000000000000000",
      "reserved": "",
      "salt": "0xd9f8ad14c42f3d9b8fcf79780e7c3586ba0b193662363cc79137cdc308e1c054",
      "assetIds": []
    },
    {
      "x": 3,
      "y": 332,
      "size": 1,
      "price": "1011000000000000000000",
      "reserved": "0x7a9fe22691c811ea339d9b73150e6911a5343dca",
      "salt": "0x306ef0522551863c4537d95f3be5c96716e027acf1945048986d175484598a18",
      "assetIds": []
    },
    {
      "x": 3,
      "y": 333,
      "size": 1,
      "price": "1011000000000000000000",
      "reserved": "",
      "salt": "0xfcecd17b5d15e772640d9ac85270f713a9a048022ff1f60a35ec49a90b816b02",
      "assetIds": []
    },
    {
      "x": 3,
      "y": 334,
      "size": 1,
      "price": "1011000000000000000000",
      "reserved": "0x7a9fe22691c811ea339d9b73150e6911a5343dca",
      "salt": "0xfcd07c87ac6b8f69f23da2b88a8b76ac98fd4e5980a4098ce2394ba45353d85f",
      "assetIds": []
    },
    {
      "x": 3,
      "y": 335,
      "size": 1,
      "price": "1011000000000000000000",
      "reserved": "",
      "salt": "0x48cb05de90fe89c287ada6b5f3b2951883820657697519853f52dea15f1f9e17",
      "assetIds": []
    },
    {
      "x": 3,
      "y": 336,
      "size": 1,
      "price": "4683000000000000000000",
      "reserved": "",
      "salt": "0x557a1edefd4ae1d5bbba686cfcf3fbbc17c1f4285d838959ffceec3b029ef013",
      "assetIds": [
        "55464657044963196816950587289035428064568320970692304673817341489687933519878",
        "55464657044963196816950587289035428064568320970692304673817341489687933519885",
        "55464657044963196816950587289035428064568320970692304673817341489687933519888",
        "55464657044963196816950587289035428064568320970692304673817341489687933519877",
        "55464657044963196816950587289035428064568320970692304673817341489687941879809",
        "55464657044963196816950587289035428064568320970692304673817341489687933519881"
      ]
    },
    {
      "x": 3,
      "y": 337,
      "size": 1,
      "price": "4683000000000000000000",
      "reserved": "",
      "salt": "0x4951db6f2b2a9a3525f25d54aa245a8c03ded6ad2a8874455589d8ee6076f918",
      "assetIds": [
        "55464657044963196816950587289035428064568320970692304673817341489687933519878",
        "55464657044963196816950587289035428064568320970692304673817341489687933519885",
        "55464657044963196816950587289035428064568320970692304673817341489687933519888",
        "55464657044963196816950587289035428064568320970692304673817341489687933519877",
        "55464657044963196816950587289035428064568320970692304673817341489687941879809",
        "55464657044963196816950587289035428064568320970692304673817341489687933519881"
      ]
    },
    {
      "x": 3,
      "y": 338,
      "size": 1,
      "price": "1011000000000000000000",
      "reserved": "0x7a9fe22691c811ea339d9b73150e6911a5343dca",
      "salt": "0x46cb0b3fd2ecebfce614dd2fd5ff722cb97c3a66cf19e668b9aca58fc17d12f5",
      "assetIds": []
    },
    {
      "x": 3,
      "y": 339,
      "size": 1,
      "price": "4683000000000000000000",
      "reserved": "",
      "salt": "0x316ebb1b8b4c68b81eb4ee8232109361a16568ca630254ad1abf6ff035d149b7",
      "assetIds": [
        "55464657044963196816950587289035428064568320970692304673817341489687933519878",
        "55464657044963196816950587289035428064568320970692304673817341489687933519885",
        "55464657044963196816950587289035428064568320970692304673817341489687933519888",
        "55464657044963196816950587289035428064568320970692304673817341489687933519877",
        "55464657044963196816950587289035428064568320970692304673817341489687941879809",
        "55464657044963196816950587289035428064568320970692304673817341489687933519881"
      ]
    },
    {
      "x": 3,
      "y": 340,
      "size": 1,
      "price": "4683000000000000000000",
      "reserved": "",
      "salt": "0x54540de2d766056804d12b316008f543f4b83ba6d6aa6561c92fa74b513040d9",
      "assetIds": [
        "55464657044963196816950587289035428064568320970692304673817341489687933519878",
        "55464657044963196816950587289035428064568320970692304673817341489687933519885",
        "55464657044963196816950587289035428064568320970692304673817341489687933519888",
        "55464657044963196816950587289035428064568320970692304673817341489687933519877",
        "55464657044963196816950587289035428064568320970692304673817341489687941879809",
        "55464657044963196816950587289035428064568320970692304673817341489687933519881"
      ]
    },
    {
      "x": 3,
      "y": 341,
      "size": 1,
      "price": "4683000000000000000000",
      "reserved": "",
      "salt": "0x26959429bde5d90cda227df19b507cfbfbf793f7494643dc8e9c0613646d82b3",
      "assetIds": [
        "55464657044963196816950587289035428064568320970692304673817341489687933519878",
        "55464657044963196816950587289035428064568320970692304673817341489687933519885",
        "55464657044963196816950587289035428064568320970692304673817341489687933519888",
        "55464657044963196816950587289035428064568320970692304673817341489687933519877",
        "55464657044963196816950587289035428064568320970692304673817341489687941879809",
        "55464657044963196816950587289035428064568320970692304673817341489687933519881"
      ]
    },
    {
      "x": 3,
      "y": 342,
      "size": 1,
      "price": "4683000000000000000000",
      "reserved": "",
      "salt": "0xcffdf41d68d1aedb50e3cc8a90d59734f0808a09a2a6cde89771ac5e67d78704",
      "assetIds": [
        "55464657044963196816950587289035428064568320970692304673817341489687933519878",
        "55464657044963196816950587289035428064568320970692304673817341489687933519885",
        "55464657044963196816950587289035428064568320970692304673817341489687933519888",
        "55464657044963196816950587289035428064568320970692304673817341489687933519877",
        "55464657044963196816950587289035428064568320970692304673817341489687941879809",
        "55464657044963196816950587289035428064568320970692304673817341489687933519881"
      ]
    },
    {
      "x": 3,
      "y": 343,
      "size": 1,
      "price": "4683000000000000000000",
      "reserved": "",
      "salt": "0x359645a8871dcc3fbcd65dc93ea55333398e7d07bbc3fa8c12cd47c7bca2961c",
      "assetIds": [
        "55464657044963196816950587289035428064568320970692304673817341489687933519878",
        "55464657044963196816950587289035428064568320970692304673817341489687933519885",
        "55464657044963196816950587289035428064568320970692304673817341489687933519888",
        "55464657044963196816950587289035428064568320970692304673817341489687933519877",
        "55464657044963196816950587289035428064568320970692304673817341489687941879809",
        "55464657044963196816950587289035428064568320970692304673817341489687933519881"
      ]
    },
    {
      "x": 3,
      "y": 344,
      "size": 1,
      "price": "4683000000000000000000",
      "reserved": "",
      "salt": "0x2ef5ff9441fefe5418fdaefeb3b252777afdd476be64c818ba6bc980164796cf",
      "assetIds": [
        "55464657044963196816950587289035428064568320970692304673817341489687933519878",
        "55464657044963196816950587289035428064568320970692304673817341489687933519885",
        "55464657044963196816950587289035428064568320970692304673817341489687933519888",
        "55464657044963196816950587289035428064568320970692304673817341489687933519877",
        "55464657044963196816950587289035428064568320970692304673817341489687941879809",
        "55464657044963196816950587289035428064568320970692304673817341489687933519881"
      ]
    },
    {
      "x": 3,
      "y": 345,
      "size": 1,
      "price": "4683000000000000000000",
      "reserved": "",
      "salt": "0x47a58c57173bc9f64300563cebcefe6d01b2c192b42b87df3a020847d4a7ec1c",
      "assetIds": [
        "55464657044963196816950587289035428064568320970692304673817341489687933519878",
        "55464657044963196816950587289035428064568320970692304673817341489687933519885",
        "55464657044963196816950587289035428064568320970692304673817341489687933519888",
        "55464657044963196816950587289035428064568320970692304673817341489687933519877",
        "55464657044963196816950587289035428064568320970692304673817341489687941879809",
        "55464657044963196816950587289035428064568320970692304673817341489687933519881"
      ]
    },
    {
      "x": 3,
      "y": 346,
      "size": 1,
      "price": "1011000000000000000000",
      "reserved": "0x7a9fe22691c811ea339d9b73150e6911a5343dca",
      "salt": "0x30f064ae0b549f86d7bd7d76ab46bb98bb871e7dcc48666de9065366d04ce51c",
      "assetIds": []
    },
    {
      "x": 3,
      "y": 347,
      "size": 1,
      "price": "1011000000000000000000",
      "reserved": "",
      "salt": "0x0f9994a3171fe9cc69e24bd4615f0d843a80113e012bcb2c50f933bd0323c6a3",
      "assetIds": []
    },
    {
      "x": 3,
      "y": 354,
      "size": 1,
      "price": "1011000000000000000000",
      "reserved": "",
      "salt": "0xbc1e2ef2aa3212c8878f71cdb85cbf2a5597dfbe8f0c404b90e685f51167ee94",
      "assetIds": []
    },
    {
      "x": 3,
      "y": 355,
      "size": 1,
      "price": "1011000000000000000000",
      "reserved": "",
      "salt": "0xb16b5e7d1218659acdb14175fb96e181842944830d7876c7a9e0a32a5ba7be74",
      "assetIds": []
    },
    {
      "x": 3,
      "y": 356,
      "size": 1,
      "price": "1011000000000000000000",
      "reserved": "0x7a9fe22691c811ea339d9b73150e6911a5343dca",
      "salt": "0x0cf11d27e75ade6fefae8a435214f1dd86256beaf3011dcd49ea0e62ca07b735",
      "assetIds": []
    },
    {
      "x": 4,
      "y": 328,
      "size": 1,
      "price": "1011000000000000000000",
      "reserved": "",
      "salt": "0xb91a24f37d80119be08912a107c3b73d851a40c9ee03968a0dbbbcf998ab9293",
      "assetIds": []
    },
    {
      "x": 4,
      "y": 329,
      "size": 1,
      "price": "1011000000000000000000",
      "reserved": "",
      "salt": "0x4c9bd4891de64b9f775a72249d24efad85933c8bcc5470d7604cc1440a055bb3",
      "assetIds": []
    },
    {
      "x": 4,
      "y": 330,
      "size": 1,
      "price": "1011000000000000000000",
      "reserved": "",
      "salt": "0x6f39b6b58fbfbae6bfe7f2707753d985c52c09b19298099f348309005d715de5",
      "assetIds": []
    },
    {
      "x": 4,
      "y": 331,
      "size": 1,
      "price": "1011000000000000000000",
      "reserved": "",
      "salt": "0x1af042ea8e5c9c171cc1c583bb1af068db9873eadf5bd3ca2fe37e701cf32e5f",
      "assetIds": []
    },
    {
      "x": 4,
      "y": 332,
      "size": 1,
      "price": "1011000000000000000000",
      "reserved": "0x7a9fe22691c811ea339d9b73150e6911a5343dca",
      "salt": "0x0d3dfd3e1635612d09e8bddee91d6cca40556cd98be18d46eb921e3b58e10c11",
      "assetIds": []
    },
    {
      "x": 4,
      "y": 333,
      "size": 1,
      "price": "1011000000000000000000",
      "reserved": "",
      "salt": "0x9f9aa3ccd1601442f2e92f5427a7e01da22c14501b09650938f82985097e00c5",
      "assetIds": []
    },
    {
      "x": 4,
      "y": 334,
      "size": 1,
      "price": "1011000000000000000000",
      "reserved": "0x7a9fe22691c811ea339d9b73150e6911a5343dca",
      "salt": "0x80be00fa378a72a605a19c83f5f5b3102ab09cdc6b68d61e5687c6de6801f3e3",
      "assetIds": []
    },
    {
      "x": 4,
      "y": 335,
      "size": 1,
      "price": "1011000000000000000000",
      "reserved": "",
      "salt": "0x98f2ccfaf37a23536ea8b7967bd7df308e4ba98f03d6c29450d59404646a1fe4",
      "assetIds": []
    },
    {
      "x": 4,
      "y": 336,
      "size": 1,
      "price": "4683000000000000000000",
      "reserved": "",
      "salt": "0xc0b039d0f26a4f3408f0306c4973e6185887d22b29bc81ee40b6865739247042",
      "assetIds": [
        "55464657044963196816950587289035428064568320970692304673817341489687933519878",
        "55464657044963196816950587289035428064568320970692304673817341489687933519885",
        "55464657044963196816950587289035428064568320970692304673817341489687933519888",
        "55464657044963196816950587289035428064568320970692304673817341489687933519877",
        "55464657044963196816950587289035428064568320970692304673817341489687941879809",
        "55464657044963196816950587289035428064568320970692304673817341489687933519881"
      ]
    },
    {
      "x": 4,
      "y": 337,
      "size": 1,
      "price": "4683000000000000000000",
      "reserved": "",
      "salt": "0x739f59ef2dde30545cfb2d080c8a4ddb3dab18f3ca0dce1add5622304355b57f",
      "assetIds": [
        "55464657044963196816950587289035428064568320970692304673817341489687933519878",
        "55464657044963196816950587289035428064568320970692304673817341489687933519885",
        "55464657044963196816950587289035428064568320970692304673817341489687933519888",
        "55464657044963196816950587289035428064568320970692304673817341489687933519877",
        "55464657044963196816950587289035428064568320970692304673817341489687941879809",
        "55464657044963196816950587289035428064568320970692304673817341489687933519881"
      ]
    },
    {
      "x": 4,
      "y": 338,
      "size": 1,
      "price": "4683000000000000000000",
      "reserved": "",
      "salt": "0xc5cca0deca87fec10b433f2280c211affec496c18fabfeeafa2f85439790fce2",
      "assetIds": [
        "55464657044963196816950587289035428064568320970692304673817341489687933519878",
        "55464657044963196816950587289035428064568320970692304673817341489687933519885",
        "55464657044963196816950587289035428064568320970692304673817341489687933519888",
        "55464657044963196816950587289035428064568320970692304673817341489687933519877",
        "55464657044963196816950587289035428064568320970692304673817341489687941879809",
        "55464657044963196816950587289035428064568320970692304673817341489687933519881"
      ]
    },
    {
      "x": 4,
      "y": 339,
      "size": 1,
      "price": "4683000000000000000000",
      "reserved": "",
      "salt": "0x7fd6a84c61b5b77bc7539f8d66c8f3eaa9d43faece8d004b90d81924b92f7cef",
      "assetIds": [
        "55464657044963196816950587289035428064568320970692304673817341489687933519878",
        "55464657044963196816950587289035428064568320970692304673817341489687933519885",
        "55464657044963196816950587289035428064568320970692304673817341489687933519888",
        "55464657044963196816950587289035428064568320970692304673817341489687933519877",
        "55464657044963196816950587289035428064568320970692304673817341489687941879809",
        "55464657044963196816950587289035428064568320970692304673817341489687933519881"
      ]
    },
    {
      "x": 4,
      "y": 340,
      "size": 1,
      "price": "4683000000000000000000",
      "reserved": "",
      "salt": "0x6046edaec622c88372181c86fda1e7ea5e0842ec37bdea55bebf21350dc93960",
      "assetIds": [
        "55464657044963196816950587289035428064568320970692304673817341489687933519878",
        "55464657044963196816950587289035428064568320970692304673817341489687933519885",
        "55464657044963196816950587289035428064568320970692304673817341489687933519888",
        "55464657044963196816950587289035428064568320970692304673817341489687933519877",
        "55464657044963196816950587289035428064568320970692304673817341489687941879809",
        "55464657044963196816950587289035428064568320970692304673817341489687933519881"
      ]
    },
    {
      "x": 4,
      "y": 341,
      "size": 1,
      "price": "4683000000000000000000",
      "reserved": "",
      "salt": "0x3afe0800bbb4a59c9613fae5b408235878d668c940c4a6401f284478b688c746",
      "assetIds": [
        "55464657044963196816950587289035428064568320970692304673817341489687933519878",
        "55464657044963196816950587289035428064568320970692304673817341489687933519885",
        "55464657044963196816950587289035428064568320970692304673817341489687933519888",
        "55464657044963196816950587289035428064568320970692304673817341489687933519877",
        "55464657044963196816950587289035428064568320970692304673817341489687941879809",
        "55464657044963196816950587289035428064568320970692304673817341489687933519881"
      ]
    },
    {
      "x": 4,
      "y": 342,
      "size": 1,
      "price": "4683000000000000000000",
      "reserved": "",
      "salt": "0x04e83c89d38c43044d59c61b353f5da41737cd811740a07c1e89d6f483013441",
      "assetIds": [
        "55464657044963196816950587289035428064568320970692304673817341489687933519878",
        "55464657044963196816950587289035428064568320970692304673817341489687933519885",
        "55464657044963196816950587289035428064568320970692304673817341489687933519888",
        "55464657044963196816950587289035428064568320970692304673817341489687933519877",
        "55464657044963196816950587289035428064568320970692304673817341489687941879809",
        "55464657044963196816950587289035428064568320970692304673817341489687933519881"
      ]
    },
    {
      "x": 4,
      "y": 343,
      "size": 1,
      "price": "4683000000000000000000",
      "reserved": "",
      "salt": "0x6f0758b4ebbf52f3fce9fc38eea14851aba6bb20bef7c8821ec274f869678496",
      "assetIds": [
        "55464657044963196816950587289035428064568320970692304673817341489687933519878",
        "55464657044963196816950587289035428064568320970692304673817341489687933519885",
        "55464657044963196816950587289035428064568320970692304673817341489687933519888",
        "55464657044963196816950587289035428064568320970692304673817341489687933519877",
        "55464657044963196816950587289035428064568320970692304673817341489687941879809",
        "55464657044963196816950587289035428064568320970692304673817341489687933519881"
      ]
    },
    {
      "x": 4,
      "y": 344,
      "size": 1,
      "price": "4683000000000000000000",
      "reserved": "",
      "salt": "0xa752e67e9a41491788888a5a08a47424059b486eb4783382f9f044dbabe06327",
      "assetIds": [
        "55464657044963196816950587289035428064568320970692304673817341489687933519878",
        "55464657044963196816950587289035428064568320970692304673817341489687933519885",
        "55464657044963196816950587289035428064568320970692304673817341489687933519888",
        "55464657044963196816950587289035428064568320970692304673817341489687933519877",
        "55464657044963196816950587289035428064568320970692304673817341489687941879809",
        "55464657044963196816950587289035428064568320970692304673817341489687933519881"
      ]
    },
    {
      "x": 4,
      "y": 345,
      "size": 1,
      "price": "4683000000000000000000",
      "reserved": "",
      "salt": "0x04914528a0f0c2eb2b43136c5497c1d0efafd9e279dc0a3600dc0f33587a87d5",
      "assetIds": [
        "55464657044963196816950587289035428064568320970692304673817341489687933519878",
        "55464657044963196816950587289035428064568320970692304673817341489687933519885",
        "55464657044963196816950587289035428064568320970692304673817341489687933519888",
        "55464657044963196816950587289035428064568320970692304673817341489687933519877",
        "55464657044963196816950587289035428064568320970692304673817341489687941879809",
        "55464657044963196816950587289035428064568320970692304673817341489687933519881"
      ]
    },
    {
      "x": 4,
      "y": 346,
      "size": 1,
      "price": "4683000000000000000000",
      "reserved": "",
      "salt": "0xd35fba8a9506b60e735b89ff509ff223b4aaae584b4f1471e41bfd4409aba31e",
      "assetIds": [
        "55464657044963196816950587289035428064568320970692304673817341489687933519878",
        "55464657044963196816950587289035428064568320970692304673817341489687933519885",
        "55464657044963196816950587289035428064568320970692304673817341489687933519888",
        "55464657044963196816950587289035428064568320970692304673817341489687933519877",
        "55464657044963196816950587289035428064568320970692304673817341489687941879809",
        "55464657044963196816950587289035428064568320970692304673817341489687933519881"
      ]
    },
    {
      "x": 4,
      "y": 347,
      "size": 1,
      "price": "1011000000000000000000",
      "reserved": "0x7a9fe22691c811ea339d9b73150e6911a5343dca",
      "salt": "0x1273fc971faa0222370ba345f973fda27fcbd282adb1320908d8fe6ef99739ea",
      "assetIds": []
    },
    {
      "x": 4,
      "y": 354,
      "size": 1,
      "price": "1011000000000000000000",
      "reserved": "",
      "salt": "0x54deab86df3e457c9842ea13effbf99d76397686849a6227f8b641b5dc047194",
      "assetIds": []
    },
    {
      "x": 4,
      "y": 355,
      "size": 1,
      "price": "1011000000000000000000",
      "reserved": "0x7a9fe22691c811ea339d9b73150e6911a5343dca",
      "salt": "0xdedaf9873aa6da1df8eff124bb4ab924d08d0a523481cf8c43e1b67f5bc7b164",
      "assetIds": []
    },
    {
      "x": 4,
      "y": 356,
      "size": 1,
      "price": "1011000000000000000000",
      "reserved": "",
      "salt": "0xf262729e75d963ddeb212cb4835001eb569189c492a60f1d9ec27d3a75b70e7f",
      "assetIds": []
    },
    {
      "x": 5,
      "y": 328,
      "size": 1,
      "price": "1011000000000000000000",
      "reserved": "",
      "salt": "0xb3fe8c658df8c5e63d526626f5676eed6aa2e7dd4769b1abbf89e16a2dc68cad",
      "assetIds": []
    },
    {
      "x": 5,
      "y": 329,
      "size": 1,
      "price": "1011000000000000000000",
      "reserved": "",
      "salt": "0x11a4a7de80a6f2e75fb33448fb707bfd9e6bee6884a9a82c3fc28da08b7fd534",
      "assetIds": []
    },
    {
      "x": 5,
      "y": 330,
      "size": 1,
      "price": "1011000000000000000000",
      "reserved": "",
      "salt": "0x6f1830b486d84c229e5db069d93da765fe99419d776eccf1b91764c9602d5e10",
      "assetIds": []
    },
    {
      "x": 5,
      "y": 331,
      "size": 1,
      "price": "1011000000000000000000",
      "reserved": "",
      "salt": "0xedc8f0daead84ae7f88b9fcc07d88f2c4cef462db1ffd728383ff139fe7bb87c",
      "assetIds": []
    },
    {
      "x": 5,
      "y": 332,
      "size": 1,
      "price": "1011000000000000000000",
      "reserved": "",
      "salt": "0x27cf75544b78c24c1a4922bfc18f7610c7b946136a2bb34388c225d52c661120",
      "assetIds": []
    },
    {
      "x": 5,
      "y": 333,
      "size": 1,
      "price": "1011000000000000000000",
      "reserved": "",
      "salt": "0x368755eec4c5416ca68e4d334ef2e6f364f052444c884e9fdfea22265b213d4c",
      "assetIds": []
    },
    {
      "x": 5,
      "y": 334,
      "size": 1,
      "price": "1011000000000000000000",
      "reserved": "",
      "salt": "0x0c8fb16d1b2f937a05f96771910b4a72fa9656ac7d9760b0adfb949c5a9d23a9",
      "assetIds": []
    },
    {
      "x": 5,
      "y": 335,
      "size": 1,
      "price": "1011000000000000000000",
      "reserved": "",
      "salt": "0x15fdc42df6633c6a17c8178d8b3b4e673bbff84233613a264a3229d30d79f969",
      "assetIds": []
    },
    {
      "x": 5,
      "y": 336,
      "size": 1,
      "price": "4683000000000000000000",
      "reserved": "",
      "salt": "0x542fb9248cefb2aaba226d5b32bf55b94619960bdf07776f9ab805c936a05582",
      "assetIds": [
        "55464657044963196816950587289035428064568320970692304673817341489687933519878",
        "55464657044963196816950587289035428064568320970692304673817341489687933519885",
        "55464657044963196816950587289035428064568320970692304673817341489687933519888",
        "55464657044963196816950587289035428064568320970692304673817341489687933519877",
        "55464657044963196816950587289035428064568320970692304673817341489687941879809",
        "55464657044963196816950587289035428064568320970692304673817341489687933519881"
      ]
    },
    {
      "x": 5,
      "y": 337,
      "size": 1,
      "price": "4683000000000000000000",
      "reserved": "",
      "salt": "0xf0613f59134654ce38c8a3d04754c06417b93997f00ae5dd42426f9dc01dac6a",
      "assetIds": [
        "55464657044963196816950587289035428064568320970692304673817341489687933519878",
        "55464657044963196816950587289035428064568320970692304673817341489687933519885",
        "55464657044963196816950587289035428064568320970692304673817341489687933519888",
        "55464657044963196816950587289035428064568320970692304673817341489687933519877",
        "55464657044963196816950587289035428064568320970692304673817341489687941879809",
        "55464657044963196816950587289035428064568320970692304673817341489687933519881"
      ]
    },
    {
      "x": 5,
      "y": 338,
      "size": 1,
      "price": "4683000000000000000000",
      "reserved": "",
      "salt": "0x933e749bea219663cb132891f68e881df8648c62fe465656e7d843eb1ca132ca",
      "assetIds": [
        "55464657044963196816950587289035428064568320970692304673817341489687933519878",
        "55464657044963196816950587289035428064568320970692304673817341489687933519885",
        "55464657044963196816950587289035428064568320970692304673817341489687933519888",
        "55464657044963196816950587289035428064568320970692304673817341489687933519877",
        "55464657044963196816950587289035428064568320970692304673817341489687941879809",
        "55464657044963196816950587289035428064568320970692304673817341489687933519881"
      ]
    },
    {
      "x": 5,
      "y": 339,
      "size": 1,
      "price": "4683000000000000000000",
      "reserved": "",
      "salt": "0xd4a37d9524028e886c72c930754a73eb59801794ade54c8232e44323b664b204",
      "assetIds": [
        "55464657044963196816950587289035428064568320970692304673817341489687933519878",
        "55464657044963196816950587289035428064568320970692304673817341489687933519885",
        "55464657044963196816950587289035428064568320970692304673817341489687933519888",
        "55464657044963196816950587289035428064568320970692304673817341489687933519877",
        "55464657044963196816950587289035428064568320970692304673817341489687941879809",
        "55464657044963196816950587289035428064568320970692304673817341489687933519881"
      ]
    },
    {
      "x": 5,
      "y": 340,
      "size": 1,
      "price": "4683000000000000000000",
      "reserved": "",
      "salt": "0x405a6ff48fc33544c06ca3b5e9aa6f2fa9ceebb047959d9d4f1ea320783a69dd",
      "assetIds": [
        "55464657044963196816950587289035428064568320970692304673817341489687933519878",
        "55464657044963196816950587289035428064568320970692304673817341489687933519885",
        "55464657044963196816950587289035428064568320970692304673817341489687933519888",
        "55464657044963196816950587289035428064568320970692304673817341489687933519877",
        "55464657044963196816950587289035428064568320970692304673817341489687941879809",
        "55464657044963196816950587289035428064568320970692304673817341489687933519881"
      ]
    },
    {
      "x": 5,
      "y": 341,
      "size": 1,
      "price": "4683000000000000000000",
      "reserved": "",
      "salt": "0x3686b58d3ba7b17a0ea12aa1123592ab0a529150752b1b2137d780a824d38e7f",
      "assetIds": [
        "55464657044963196816950587289035428064568320970692304673817341489687933519878",
        "55464657044963196816950587289035428064568320970692304673817341489687933519885",
        "55464657044963196816950587289035428064568320970692304673817341489687933519888",
        "55464657044963196816950587289035428064568320970692304673817341489687933519877",
        "55464657044963196816950587289035428064568320970692304673817341489687941879809",
        "55464657044963196816950587289035428064568320970692304673817341489687933519881"
      ]
    },
    {
      "x": 5,
      "y": 342,
      "size": 1,
      "price": "4683000000000000000000",
      "reserved": "",
      "salt": "0xdaaccebc5da39271eed764b697b84263fa77538e87d709c93a789fb9ae029084",
      "assetIds": [
        "55464657044963196816950587289035428064568320970692304673817341489687933519878",
        "55464657044963196816950587289035428064568320970692304673817341489687933519885",
        "55464657044963196816950587289035428064568320970692304673817341489687933519888",
        "55464657044963196816950587289035428064568320970692304673817341489687933519877",
        "55464657044963196816950587289035428064568320970692304673817341489687941879809",
        "55464657044963196816950587289035428064568320970692304673817341489687933519881"
      ]
    },
    {
      "x": 5,
      "y": 343,
      "size": 1,
      "price": "1011000000000000000000",
      "reserved": "0x7a9fe22691c811ea339d9b73150e6911a5343dca",
      "salt": "0x1f9ceeb410b9deb6fb0eb7b876cdb1e40f9fd27f7cdc2214c080d76d547ea8bc",
      "assetIds": []
    },
    {
      "x": 5,
      "y": 344,
      "size": 1,
      "price": "4683000000000000000000",
      "reserved": "",
      "salt": "0xe51db077d2522fe45028e70b7e81c9f400ef1d5854e27d8bd9200b47b91012ff",
      "assetIds": [
        "55464657044963196816950587289035428064568320970692304673817341489687933519878",
        "55464657044963196816950587289035428064568320970692304673817341489687933519885",
        "55464657044963196816950587289035428064568320970692304673817341489687933519888",
        "55464657044963196816950587289035428064568320970692304673817341489687933519877",
        "55464657044963196816950587289035428064568320970692304673817341489687941879809",
        "55464657044963196816950587289035428064568320970692304673817341489687933519881"
      ]
    },
    {
      "x": 5,
      "y": 345,
      "size": 1,
      "price": "4683000000000000000000",
      "reserved": "",
      "salt": "0x3183ad00b3c5a95725a96aa95ff2585a7fcfccdf97032d4eca7300490acae9c1",
      "assetIds": [
        "55464657044963196816950587289035428064568320970692304673817341489687933519878",
        "55464657044963196816950587289035428064568320970692304673817341489687933519885",
        "55464657044963196816950587289035428064568320970692304673817341489687933519888",
        "55464657044963196816950587289035428064568320970692304673817341489687933519877",
        "55464657044963196816950587289035428064568320970692304673817341489687941879809",
        "55464657044963196816950587289035428064568320970692304673817341489687933519881"
      ]
    },
    {
      "x": 5,
      "y": 346,
      "size": 1,
      "price": "4683000000000000000000",
      "reserved": "",
      "salt": "0x387aa59bc894e0727531c5ac660f8f8e4638fd3cf30d24140a01fe1783417116",
      "assetIds": [
        "55464657044963196816950587289035428064568320970692304673817341489687933519878",
        "55464657044963196816950587289035428064568320970692304673817341489687933519885",
        "55464657044963196816950587289035428064568320970692304673817341489687933519888",
        "55464657044963196816950587289035428064568320970692304673817341489687933519877",
        "55464657044963196816950587289035428064568320970692304673817341489687941879809",
        "55464657044963196816950587289035428064568320970692304673817341489687933519881"
      ]
    },
    {
      "x": 5,
      "y": 347,
      "size": 1,
      "price": "1011000000000000000000",
      "reserved": "0x7a9fe22691c811ea339d9b73150e6911a5343dca",
      "salt": "0x338134908fe37daf640fd2ae5a3d20619f840d680cd7ba47800f5d0f8e6e55f8",
      "assetIds": []
    },
    {
      "x": 5,
      "y": 354,
      "size": 1,
      "price": "1011000000000000000000",
      "reserved": "",
      "salt": "0xbb1644f05328cb90ffdc3e9848f623c2ae9149c525735c886c70b3df374ee585",
      "assetIds": []
    },
    {
      "x": 5,
      "y": 355,
      "size": 1,
      "price": "1011000000000000000000",
      "reserved": "",
      "salt": "0x8e001ce2fe3209c3ff303d064dd98a429f55f59c61600a08b3fe9edd9fdc32b8",
      "assetIds": []
    },
    {
      "x": 5,
      "y": 356,
      "size": 1,
      "price": "1011000000000000000000",
      "reserved": "",
      "salt": "0x26e8955397e46c267c651fda08a60d5710ff1f193cbc6b05bd9437ba6aad5e6a",
      "assetIds": []
    },
    {
      "x": 6,
      "y": 328,
      "size": 1,
      "price": "1011000000000000000000",
      "reserved": "0x7a9fe22691c811ea339d9b73150e6911a5343dca",
      "salt": "0x5ba1bf4f0e0e70ac74c04da32b58ea1d1cab076f98fd30b721b1060f97e43ac2",
      "assetIds": []
    },
    {
      "x": 6,
      "y": 329,
      "size": 1,
      "price": "1011000000000000000000",
      "reserved": "",
      "salt": "0x6e58faf920a8078aee979b525835ee76cb74580e05eb4200c2684672f297234a",
      "assetIds": []
    },
    {
      "x": 6,
      "y": 330,
      "size": 1,
      "price": "1011000000000000000000",
      "reserved": "",
      "salt": "0x8fd91cce82eef8c823eb9665e49b0e2b06a1c24b3777ed0b1e928c7f0095a0e6",
      "assetIds": []
    },
    {
      "x": 6,
      "y": 331,
      "size": 1,
      "price": "1011000000000000000000",
      "reserved": "0x7a9fe22691c811ea339d9b73150e6911a5343dca",
      "salt": "0x86e77ad054cf9ca472c996c91f407ed07b4ca5c1398076fa9e9294fa930ef899",
      "assetIds": []
    },
    {
      "x": 6,
      "y": 332,
      "size": 1,
      "price": "1011000000000000000000",
      "reserved": "",
      "salt": "0x3e3ee54b7f404b603346ee18d85f4936a0c8cdcb315d338a559f53b6c99d223e",
      "assetIds": []
    },
    {
      "x": 6,
      "y": 333,
      "size": 1,
      "price": "1011000000000000000000",
      "reserved": "",
      "salt": "0xf57e5aedf090f1b5584f77679f51a258ddd7f0e0445e6960f9e5df548e3590a8",
      "assetIds": []
    },
    {
      "x": 6,
      "y": 334,
      "size": 1,
      "price": "1011000000000000000000",
      "reserved": "",
      "salt": "0x6791923b8f24851f0f84d1bb9bbe23680478b3491946d15a34a4598ebdbb0f57",
      "assetIds": []
    },
    {
      "x": 6,
      "y": 335,
      "size": 1,
      "price": "1011000000000000000000",
      "reserved": "",
      "salt": "0xc99c4739ee0614df9f81b74b6ac5fed0587c2a336d70f84e389f22f01585df97",
      "assetIds": []
    },
    {
      "x": 6,
      "y": 342,
      "size": 1,
      "price": "4683000000000000000000",
      "reserved": "",
      "salt": "0xb28207763f1f965ea4f4c00c7d12761ed912bd42761d387d2518f2706dc71457",
      "assetIds": [
        "55464657044963196816950587289035428064568320970692304673817341489687933519878",
        "55464657044963196816950587289035428064568320970692304673817341489687933519885",
        "55464657044963196816950587289035428064568320970692304673817341489687933519888",
        "55464657044963196816950587289035428064568320970692304673817341489687933519877",
        "55464657044963196816950587289035428064568320970692304673817341489687941879809",
        "55464657044963196816950587289035428064568320970692304673817341489687933519881"
      ]
    },
    {
      "x": 6,
      "y": 343,
      "size": 1,
      "price": "4683000000000000000000",
      "reserved": "",
      "salt": "0x75033fe94752bd386588941788ff44f0980502ad871ca37bdbd16055df612cc6",
      "assetIds": [
        "55464657044963196816950587289035428064568320970692304673817341489687933519878",
        "55464657044963196816950587289035428064568320970692304673817341489687933519885",
        "55464657044963196816950587289035428064568320970692304673817341489687933519888",
        "55464657044963196816950587289035428064568320970692304673817341489687933519877",
        "55464657044963196816950587289035428064568320970692304673817341489687941879809",
        "55464657044963196816950587289035428064568320970692304673817341489687933519881"
      ]
    },
    {
      "x": 6,
      "y": 344,
      "size": 1,
      "price": "4683000000000000000000",
      "reserved": "",
      "salt": "0x42fe76b1b9c785aa5f4e461a624b1352aa0c3ef848769dc9a276e13ecf46c84d",
      "assetIds": [
        "55464657044963196816950587289035428064568320970692304673817341489687933519878",
        "55464657044963196816950587289035428064568320970692304673817341489687933519885",
        "55464657044963196816950587289035428064568320970692304673817341489687933519888",
        "55464657044963196816950587289035428064568320970692304673817341489687933519877",
        "55464657044963196816950587289035428064568320970692304673817341489687941879809",
        "55464657044963196816950587289035428064568320970692304673817341489687933519881"
      ]
    },
    {
      "x": 6,
      "y": 345,
      "size": 1,
      "price": "4683000000000000000000",
      "reserved": "",
      "salt": "0x8c0815389f33ce0b5a6f62f19ea39961ee3067da6b532a291bc3c6c94869dae1",
      "assetIds": [
        "55464657044963196816950587289035428064568320970692304673817341489687933519878",
        "55464657044963196816950587289035428064568320970692304673817341489687933519885",
        "55464657044963196816950587289035428064568320970692304673817341489687933519888",
        "55464657044963196816950587289035428064568320970692304673817341489687933519877",
        "55464657044963196816950587289035428064568320970692304673817341489687941879809",
        "55464657044963196816950587289035428064568320970692304673817341489687933519881"
      ]
    },
    {
      "x": 6,
      "y": 346,
      "size": 1,
      "price": "4683000000000000000000",
      "reserved": "",
      "salt": "0x0487d632c42d1be5fb1a07fc90a89ae11cb892d1117193eb23f6c13be752fac3",
      "assetIds": [
        "55464657044963196816950587289035428064568320970692304673817341489687933519878",
        "55464657044963196816950587289035428064568320970692304673817341489687933519885",
        "55464657044963196816950587289035428064568320970692304673817341489687933519888",
        "55464657044963196816950587289035428064568320970692304673817341489687933519877",
        "55464657044963196816950587289035428064568320970692304673817341489687941879809",
        "55464657044963196816950587289035428064568320970692304673817341489687933519881"
      ]
    },
    {
      "x": 6,
      "y": 347,
      "size": 1,
      "price": "1011000000000000000000",
      "reserved": "",
      "salt": "0x0530c51eda58f4f4a4501a04e40ce45ff4457c0bb9f8a588a9e3c54103c5c79d",
      "assetIds": []
    },
    {
      "x": 6,
      "y": 348,
      "size": 1,
      "price": "1011000000000000000000",
      "reserved": "0x7a9fe22691c811ea339d9b73150e6911a5343dca",
      "salt": "0x8f75177f913013ebe9c122a3173d291434f32d707c5bc4b8e0237cff750a7a13",
      "assetIds": []
    },
    {
      "x": 6,
      "y": 349,
      "size": 1,
      "price": "1011000000000000000000",
      "reserved": "",
      "salt": "0xa495abdc9cead2dfe153f18319e9e75c8de550fa483084de57400ab6496ead18",
      "assetIds": []
    },
    {
      "x": 6,
      "y": 350,
      "size": 1,
      "price": "1011000000000000000000",
      "reserved": "",
      "salt": "0xd32c06235f1a1963a7ede24055edfafe793e1b2cb516f489d205447a15f464bc",
      "assetIds": []
    },
    {
      "x": 6,
      "y": 351,
      "size": 1,
      "price": "1011000000000000000000",
      "reserved": "",
      "salt": "0xd881ffdea92d11f4a794ac2a5fbbef305fe50d402e636e282c98c523aac873c8",
      "assetIds": []
    },
    {
      "x": 6,
      "y": 352,
      "size": 1,
      "price": "1011000000000000000000",
      "reserved": "",
      "salt": "0x3db4b64dbd2b66472080236e1c9ebcd2e6c1c6a1f5b42574080d183aa1914918",
      "assetIds": []
    },
    {
      "x": 6,
      "y": 353,
      "size": 1,
      "price": "1011000000000000000000",
      "reserved": "",
      "salt": "0x441d12e68afcf8c6a3977f0b2890ff645d2bc3649b3cfacc4709ca1567374465",
      "assetIds": []
    },
    {
      "x": 6,
      "y": 354,
      "size": 1,
      "price": "1011000000000000000000",
      "reserved": "",
      "salt": "0x55b5256cd5107795cc3938d032f6d81d1b6b7737546624df05759f937689ea8e",
      "assetIds": []
    },
    {
      "x": 6,
      "y": 355,
      "size": 1,
      "price": "1011000000000000000000",
      "reserved": "",
      "salt": "0x3965ca4a537da25f9f7c149bb784e58906a4c5ce4eaccd6c08d4e78c6428012f",
      "assetIds": []
    },
    {
      "x": 6,
      "y": 356,
      "size": 1,
      "price": "1011000000000000000000",
      "reserved": "",
      "salt": "0x7dffa7aba756c5808a5cf15973ba6877fa193d7ad1a859bfd55e4b3a96efd934",
      "assetIds": []
    },
    {
      "x": 7,
      "y": 328,
      "size": 1,
      "price": "1011000000000000000000",
      "reserved": "0x7a9fe22691c811ea339d9b73150e6911a5343dca",
      "salt": "0xf59c55b7b41958f989dbf300f69bafb9c9cda783c2a171ad1e1c0a826f3fd36d",
      "assetIds": []
    },
    {
      "x": 7,
      "y": 329,
      "size": 1,
      "price": "1011000000000000000000",
      "reserved": "",
      "salt": "0xd06bd15e8252604d3dc787b94c621b2a906c4ae462cae17167cd63760576cfe0",
      "assetIds": []
    },
    {
      "x": 7,
      "y": 330,
      "size": 1,
      "price": "1011000000000000000000",
      "reserved": "",
      "salt": "0x5662572c79f372b1ae14e3aa7f95f1050d6cc3a5fad6409f39d55f0330616ee1",
      "assetIds": []
    },
    {
      "x": 7,
      "y": 331,
      "size": 1,
      "price": "1011000000000000000000",
      "reserved": "",
      "salt": "0x853b0bba6a3fab1d0e12ecfdcb1ad022280b4508097363aa6ce0ed18c89e7a0f",
      "assetIds": []
    },
    {
      "x": 7,
      "y": 332,
      "size": 1,
      "price": "1011000000000000000000",
      "reserved": "",
      "salt": "0xb8dee08c19ec697864713769100a96364927f4e1bbc14e52a9d6247b4d1bf366",
      "assetIds": []
    },
    {
      "x": 7,
      "y": 333,
      "size": 1,
      "price": "1011000000000000000000",
      "reserved": "0x7a9fe22691c811ea339d9b73150e6911a5343dca",
      "salt": "0xa0ff2a42692f8eeb01cc8e86cafd1feb972040c9558efd6fdce5a913275dfa5e",
      "assetIds": []
    },
    {
      "x": 7,
      "y": 334,
      "size": 1,
      "price": "1011000000000000000000",
      "reserved": "",
      "salt": "0x2c45d5de5acdff9d32c2b0de7018dc15855b4c127f0c35f4810c8a01a7b6e627",
      "assetIds": []
    },
    {
      "x": 7,
      "y": 335,
      "size": 1,
      "price": "1011000000000000000000",
      "reserved": "0x7a9fe22691c811ea339d9b73150e6911a5343dca",
      "salt": "0x61e8dbb9992b85b05cc957f1e1902c362b370fe31830eb542178c36f5420b4bf",
      "assetIds": []
    },
    {
      "x": 7,
      "y": 342,
      "size": 1,
      "price": "4683000000000000000000",
      "reserved": "",
      "salt": "0x9d6d697119fc6a6fa9abc5354a3249399d884c68ce42ec2b2bb2797f66507c81",
      "assetIds": [
        "55464657044963196816950587289035428064568320970692304673817341489687933519878",
        "55464657044963196816950587289035428064568320970692304673817341489687933519885",
        "55464657044963196816950587289035428064568320970692304673817341489687933519888",
        "55464657044963196816950587289035428064568320970692304673817341489687933519877",
        "55464657044963196816950587289035428064568320970692304673817341489687941879809",
        "55464657044963196816950587289035428064568320970692304673817341489687933519881"
      ]
    },
    {
      "x": 7,
      "y": 343,
      "size": 1,
      "price": "4683000000000000000000",
      "reserved": "",
      "salt": "0xaace3f0b5f3aa428cd634b1d0fe483f2c5e923d6e92f692211641ea17d328fc7",
      "assetIds": [
        "55464657044963196816950587289035428064568320970692304673817341489687933519878",
        "55464657044963196816950587289035428064568320970692304673817341489687933519885",
        "55464657044963196816950587289035428064568320970692304673817341489687933519888",
        "55464657044963196816950587289035428064568320970692304673817341489687933519877",
        "55464657044963196816950587289035428064568320970692304673817341489687941879809",
        "55464657044963196816950587289035428064568320970692304673817341489687933519881"
      ]
    },
    {
      "x": 7,
      "y": 344,
      "size": 1,
      "price": "4683000000000000000000",
      "reserved": "",
      "salt": "0xc180f4f48bd80750fd33e5a0849ec7f38fecc5f0f334a1adc5bd64488547a888",
      "assetIds": [
        "55464657044963196816950587289035428064568320970692304673817341489687933519878",
        "55464657044963196816950587289035428064568320970692304673817341489687933519885",
        "55464657044963196816950587289035428064568320970692304673817341489687933519888",
        "55464657044963196816950587289035428064568320970692304673817341489687933519877",
        "55464657044963196816950587289035428064568320970692304673817341489687941879809",
        "55464657044963196816950587289035428064568320970692304673817341489687933519881"
      ]
    },
    {
      "x": 7,
      "y": 345,
      "size": 1,
      "price": "4683000000000000000000",
      "reserved": "",
      "salt": "0x7e3a32a42491226a5f28d8760a964ae16b133d5a6adc992dde71030fab120f52",
      "assetIds": [
        "55464657044963196816950587289035428064568320970692304673817341489687933519878",
        "55464657044963196816950587289035428064568320970692304673817341489687933519885",
        "55464657044963196816950587289035428064568320970692304673817341489687933519888",
        "55464657044963196816950587289035428064568320970692304673817341489687933519877",
        "55464657044963196816950587289035428064568320970692304673817341489687941879809",
        "55464657044963196816950587289035428064568320970692304673817341489687933519881"
      ]
    },
    {
      "x": 7,
      "y": 346,
      "size": 1,
      "price": "4683000000000000000000",
      "reserved": "",
      "salt": "0xe5c881e58cac8fdb6dc3a8784f390b9c480b13ddd5f082681301a2b9ec9daab9",
      "assetIds": [
        "55464657044963196816950587289035428064568320970692304673817341489687933519878",
        "55464657044963196816950587289035428064568320970692304673817341489687933519885",
        "55464657044963196816950587289035428064568320970692304673817341489687933519888",
        "55464657044963196816950587289035428064568320970692304673817341489687933519877",
        "55464657044963196816950587289035428064568320970692304673817341489687941879809",
        "55464657044963196816950587289035428064568320970692304673817341489687933519881"
      ]
    },
    {
      "x": 7,
      "y": 347,
      "size": 1,
      "price": "1011000000000000000000",
      "reserved": "",
      "salt": "0x5c376adc0d03f438a149b31b4fe0eb6eece7a744008adfefd08193e7c8a3a21c",
      "assetIds": []
    },
    {
      "x": 7,
      "y": 348,
      "size": 1,
      "price": "1011000000000000000000",
      "reserved": "0x7a9fe22691c811ea339d9b73150e6911a5343dca",
      "salt": "0x6eda1bdd37e54127452d078c87cdb2e7ac3d56c99d51968b36c46380c350c470",
      "assetIds": []
    },
    {
      "x": 7,
      "y": 349,
      "size": 1,
      "price": "1011000000000000000000",
      "reserved": "",
      "salt": "0x679906321f88ca6cda629a21186f76e62e83e4e979f2598d32d0f856a526ef7c",
      "assetIds": []
    },
    {
      "x": 7,
      "y": 350,
      "size": 1,
      "price": "1011000000000000000000",
      "reserved": "",
      "salt": "0x620dda980687eb4994e73efb659158c8a55c2c0088b735e8adaed0b6b919baa2",
      "assetIds": []
    },
    {
      "x": 7,
      "y": 351,
      "size": 1,
      "price": "1011000000000000000000",
      "reserved": "0x7a9fe22691c811ea339d9b73150e6911a5343dca",
      "salt": "0x0c37d3dd21f6690fefb9ff2744d35c813891991ccd459a839dfd467252750315",
      "assetIds": []
    },
    {
      "x": 7,
      "y": 352,
      "size": 1,
      "price": "1011000000000000000000",
      "reserved": "",
      "salt": "0x208749ddfee08ed7c0382966e48947d77a60e2887f778db29258c5a354a21f91",
      "assetIds": []
    },
    {
      "x": 7,
      "y": 353,
      "size": 1,
      "price": "1011000000000000000000",
      "reserved": "0x7a9fe22691c811ea339d9b73150e6911a5343dca",
      "salt": "0x6b3bbf8e9b447fdb5e05ab4cd97030560d3e6149e774297d7c3f11be76514fcd",
      "assetIds": []
    },
    {
      "x": 7,
      "y": 354,
      "size": 1,
      "price": "1011000000000000000000",
      "reserved": "",
      "salt": "0x1869b4c292d670fb40a760ffe4ea0088d3756dcaf2a38892c870b5b9b31454e0",
      "assetIds": []
    },
    {
      "x": 7,
      "y": 355,
      "size": 1,
      "price": "1011000000000000000000",
      "reserved": "",
      "salt": "0xc8c22f7b41f04f2a8617caad08f4ea43d357bca8113fdeda15d84f7024a38213",
      "assetIds": []
    },
    {
      "x": 7,
      "y": 356,
      "size": 1,
      "price": "1011000000000000000000",
      "reserved": "",
      "salt": "0xa1801f361a7e435b039267e706045233344d0b389328e2fa179bc980695ad069",
      "assetIds": []
    },
    {
      "x": 8,
      "y": 328,
      "size": 1,
      "price": "1011000000000000000000",
      "reserved": "",
      "salt": "0x7c37caa9eb0f887a219b29ffa1e8b4405184c9d460afcccc7cabc735643bd5fe",
      "assetIds": []
    },
    {
      "x": 8,
      "y": 329,
      "size": 1,
      "price": "1011000000000000000000",
      "reserved": "",
      "salt": "0x5b41dcd46d9e7512514a705bde790fdb495c0fd2bcd487d74fba73e6694ad8a8",
      "assetIds": []
    },
    {
      "x": 8,
      "y": 330,
      "size": 1,
      "price": "1011000000000000000000",
      "reserved": "",
      "salt": "0xfb75ea67c0a9ff4a1efb3f69f950b6e38782d78118dcccfe4439956fd776028a",
      "assetIds": []
    },
    {
      "x": 8,
      "y": 331,
      "size": 1,
      "price": "1011000000000000000000",
      "reserved": "",
      "salt": "0x8eb1e6c2f6b988d43321c0bbac12b6a0ccfac61e8b39576f741cb38ac803125c",
      "assetIds": []
    },
    {
      "x": 8,
      "y": 332,
      "size": 1,
      "price": "1011000000000000000000",
      "reserved": "",
      "salt": "0x47a8efc340ac9eff805082496c05c8a698093fd2ebec5426e8231fc123b6c3df",
      "assetIds": []
    },
    {
      "x": 8,
      "y": 333,
      "size": 1,
      "price": "1011000000000000000000",
      "reserved": "",
      "salt": "0xe7529f8394c2d6481c063deecb8df686f05f1508b919e794e0a586e33451d62f",
      "assetIds": []
    },
    {
      "x": 8,
      "y": 334,
      "size": 1,
      "price": "1011000000000000000000",
      "reserved": "",
      "salt": "0xcdda64532911490e98660a428e5e52afa2d50d2b017236bd4df9ecdcb0be2f9a",
      "assetIds": []
    },
    {
      "x": 8,
      "y": 335,
      "size": 1,
      "price": "1011000000000000000000",
      "reserved": "",
      "salt": "0x3e1502900666c2bd7c876e4e96cf19d27ab8a6ffa8b6fa4ce1dc3409ac466c33",
      "assetIds": []
    },
    {
      "x": 8,
      "y": 342,
      "size": 1,
      "price": "4683000000000000000000",
      "reserved": "",
      "salt": "0x5cc87f7e592947119f26767a1e497a22cc3a4f5068fd3ecd9fb6c2ca97dee395",
      "assetIds": [
        "55464657044963196816950587289035428064568320970692304673817341489687933519878",
        "55464657044963196816950587289035428064568320970692304673817341489687933519885",
        "55464657044963196816950587289035428064568320970692304673817341489687933519888",
        "55464657044963196816950587289035428064568320970692304673817341489687933519877",
        "55464657044963196816950587289035428064568320970692304673817341489687941879809",
        "55464657044963196816950587289035428064568320970692304673817341489687933519881"
      ]
    },
    {
      "x": 8,
      "y": 343,
      "size": 1,
      "price": "4683000000000000000000",
      "reserved": "",
      "salt": "0xe50dd8b67997b962305c678a80693fcd9d17e788c1989986fa1988115be2298b",
      "assetIds": [
        "55464657044963196816950587289035428064568320970692304673817341489687933519878",
        "55464657044963196816950587289035428064568320970692304673817341489687933519885",
        "55464657044963196816950587289035428064568320970692304673817341489687933519888",
        "55464657044963196816950587289035428064568320970692304673817341489687933519877",
        "55464657044963196816950587289035428064568320970692304673817341489687941879809",
        "55464657044963196816950587289035428064568320970692304673817341489687933519881"
      ]
    },
    {
      "x": 8,
      "y": 344,
      "size": 1,
      "price": "4683000000000000000000",
      "reserved": "",
      "salt": "0xd8e1381f866642b2418638ee0cb01c9a4d89f5feb367e80826559615a6362368",
      "assetIds": [
        "55464657044963196816950587289035428064568320970692304673817341489687933519878",
        "55464657044963196816950587289035428064568320970692304673817341489687933519885",
        "55464657044963196816950587289035428064568320970692304673817341489687933519888",
        "55464657044963196816950587289035428064568320970692304673817341489687933519877",
        "55464657044963196816950587289035428064568320970692304673817341489687941879809",
        "55464657044963196816950587289035428064568320970692304673817341489687933519881"
      ]
    },
    {
      "x": 8,
      "y": 345,
      "size": 1,
      "price": "4683000000000000000000",
      "reserved": "",
      "salt": "0x635f42034a1bbc7d8e127efc25b2987cee65285940faa8f2b77c7c19500d820c",
      "assetIds": [
        "55464657044963196816950587289035428064568320970692304673817341489687933519878",
        "55464657044963196816950587289035428064568320970692304673817341489687933519885",
        "55464657044963196816950587289035428064568320970692304673817341489687933519888",
        "55464657044963196816950587289035428064568320970692304673817341489687933519877",
        "55464657044963196816950587289035428064568320970692304673817341489687941879809",
        "55464657044963196816950587289035428064568320970692304673817341489687933519881"
      ]
    },
    {
      "x": 8,
      "y": 346,
      "size": 1,
      "price": "4683000000000000000000",
      "reserved": "",
      "salt": "0xfdd7c2af30787aa7a9113068bd0f0432160b2411ad243ba9328e6cd298023c0e",
      "assetIds": [
        "55464657044963196816950587289035428064568320970692304673817341489687933519878",
        "55464657044963196816950587289035428064568320970692304673817341489687933519885",
        "55464657044963196816950587289035428064568320970692304673817341489687933519888",
        "55464657044963196816950587289035428064568320970692304673817341489687933519877",
        "55464657044963196816950587289035428064568320970692304673817341489687941879809",
        "55464657044963196816950587289035428064568320970692304673817341489687933519881"
      ]
    },
    {
      "x": 8,
      "y": 347,
      "size": 1,
      "price": "1011000000000000000000",
      "reserved": "",
      "salt": "0x43b008d1e97714d16f2aa4cc47981294678f05a8e280d03b37f8a6c23ebc6363",
      "assetIds": []
    },
    {
      "x": 8,
      "y": 348,
      "size": 1,
      "price": "1011000000000000000000",
      "reserved": "",
      "salt": "0xed0540419c8abc5a67328cc206822242388883adb1ef41e6347bceffe5697379",
      "assetIds": []
    },
    {
      "x": 8,
      "y": 349,
      "size": 1,
      "price": "1011000000000000000000",
      "reserved": "",
      "salt": "0x3d33dd62ae90b91ab75eda480851c32fe3620b027ce23bca8a967e39613066e4",
      "assetIds": []
    },
    {
      "x": 8,
      "y": 350,
      "size": 1,
      "price": "1011000000000000000000",
      "reserved": "",
      "salt": "0x68a35466e36b45041a3bd63028186c6f0a837f69ca419f7a4a6885cfc688093e",
      "assetIds": []
    },
    {
      "x": 8,
      "y": 351,
      "size": 1,
      "price": "1011000000000000000000",
      "reserved": "",
      "salt": "0xea1fc6f2f429290a5bafe691015da310df524326333cf4f18f15ebcbbf118bf4",
      "assetIds": []
    },
    {
      "x": 8,
      "y": 352,
      "size": 1,
      "price": "1011000000000000000000",
      "reserved": "",
      "salt": "0x7533b6b0cedb582740c26fa4bd7ceab13e0cefe2ea98b9ef8dd2535b52d9ebe6",
      "assetIds": []
    },
    {
      "x": 8,
      "y": 353,
      "size": 1,
      "price": "1011000000000000000000",
      "reserved": "",
      "salt": "0x38aaf07046ba70fad155a763745baa319eb5bab2be5b141355460018f07adc50",
      "assetIds": []
    },
    {
      "x": 8,
      "y": 354,
      "size": 1,
      "price": "1011000000000000000000",
      "reserved": "",
      "salt": "0xd12d2c12a88b763029bdb6f0a4955f728527406cb27cf5228c25647b8d7ce963",
      "assetIds": []
    },
    {
      "x": 8,
      "y": 355,
      "size": 1,
      "price": "1011000000000000000000",
      "reserved": "",
      "salt": "0xc1d3ddd2027851c340c8d3992be5072cdebf1126fc4cc789221cdebd4688dd76",
      "assetIds": []
    },
    {
      "x": 8,
      "y": 356,
      "size": 1,
      "price": "1011000000000000000000",
      "reserved": "0x7a9fe22691c811ea339d9b73150e6911a5343dca",
      "salt": "0x8ca94ea07f0a3ebe32aa7db0113bf53ba6909e49fc341d5a55fe1d28b2d25500",
      "assetIds": []
    },
    {
      "x": 9,
      "y": 328,
      "size": 1,
      "price": "1011000000000000000000",
      "reserved": "",
      "salt": "0x43a66f0b8fe86e6465462e7826d6ca6a8b24a194b8609769888cc8f3bdc2053e",
      "assetIds": []
    },
    {
      "x": 9,
      "y": 329,
      "size": 1,
      "price": "1011000000000000000000",
      "reserved": "",
      "salt": "0x4e0b201b50dcd6f3daa7c861ecab767e48bc2ca51bd6671e4e87c9703ad302dd",
      "assetIds": []
    },
    {
      "x": 9,
      "y": 330,
      "size": 1,
      "price": "1011000000000000000000",
      "reserved": "",
      "salt": "0x8d4d76549897dba35fbf334336241581813b153d4dcd6d9ee2e625afa8f1934f",
      "assetIds": []
    },
    {
      "x": 9,
      "y": 331,
      "size": 1,
      "price": "1011000000000000000000",
      "reserved": "",
      "salt": "0xaaff70da04c1019f1bed8afbfab58ca0538dbe68271aa886a5376930f0809f0e",
      "assetIds": []
    },
    {
      "x": 9,
      "y": 332,
      "size": 1,
      "price": "1011000000000000000000",
      "reserved": "",
      "salt": "0x1af95e8b0d3d17a2b1688cef70c6947becc3280f374cbb91e6ca25a680b1ab24",
      "assetIds": []
    },
    {
      "x": 9,
      "y": 333,
      "size": 1,
      "price": "1011000000000000000000",
      "reserved": "",
      "salt": "0x66da6123cdba9961834bbf8f5d1060cb080d4c8b59bda786e545a804c0127ace",
      "assetIds": []
    },
    {
      "x": 9,
      "y": 334,
      "size": 1,
      "price": "1011000000000000000000",
      "reserved": "",
      "salt": "0xdc523bd4561931c5d13717b51a538687d30c4a9d0fe9d912fd6427e2b4f08065",
      "assetIds": []
    },
    {
      "x": 9,
      "y": 335,
      "size": 1,
      "price": "4683000000000000000000",
      "reserved": "",
      "salt": "0x0b54f43d7baa7af8868b3e5877c505e5641eef0f023bc0e94b633113179655d8",
      "assetIds": [
        "55464657044963196816950587289035428064568320970692304673817341489687933519878",
        "55464657044963196816950587289035428064568320970692304673817341489687933519885",
        "55464657044963196816950587289035428064568320970692304673817341489687933519888",
        "55464657044963196816950587289035428064568320970692304673817341489687933519877",
        "55464657044963196816950587289035428064568320970692304673817341489687941879809",
        "55464657044963196816950587289035428064568320970692304673817341489687933519881"
      ]
    },
    {
      "x": 9,
      "y": 336,
      "size": 1,
      "price": "4683000000000000000000",
      "reserved": "",
      "salt": "0x3caf69654c002dc8f15c8251366a7c9ff9647fb1574c8251115afa3b0999c381",
      "assetIds": [
        "55464657044963196816950587289035428064568320970692304673817341489687933519878",
        "55464657044963196816950587289035428064568320970692304673817341489687933519885",
        "55464657044963196816950587289035428064568320970692304673817341489687933519888",
        "55464657044963196816950587289035428064568320970692304673817341489687933519877",
        "55464657044963196816950587289035428064568320970692304673817341489687941879809",
        "55464657044963196816950587289035428064568320970692304673817341489687933519881"
      ]
    },
    {
      "x": 9,
      "y": 337,
      "size": 1,
      "price": "1011000000000000000000",
      "reserved": "0x7a9fe22691c811ea339d9b73150e6911a5343dca",
      "salt": "0x072cff4cfa16ee8e76195b556b21fc4008b35fbb3860a3c0f7ee941be0383b23",
      "assetIds": []
    },
    {
      "x": 9,
      "y": 338,
      "size": 1,
      "price": "4683000000000000000000",
      "reserved": "",
      "salt": "0x7ad812fab2135bfb5566aed54e9221292e6c7a94d60b920e8bfd8200e8d99f03",
      "assetIds": [
        "55464657044963196816950587289035428064568320970692304673817341489687933519878",
        "55464657044963196816950587289035428064568320970692304673817341489687933519885",
        "55464657044963196816950587289035428064568320970692304673817341489687933519888",
        "55464657044963196816950587289035428064568320970692304673817341489687933519877",
        "55464657044963196816950587289035428064568320970692304673817341489687941879809",
        "55464657044963196816950587289035428064568320970692304673817341489687933519881"
      ]
    },
    {
      "x": 9,
      "y": 339,
      "size": 1,
      "price": "4683000000000000000000",
      "reserved": "",
      "salt": "0x2af848b610bec2865ee50e5cc7a7e42ee232e86df0902425668de81fe8bb14fc",
      "assetIds": [
        "55464657044963196816950587289035428064568320970692304673817341489687933519878",
        "55464657044963196816950587289035428064568320970692304673817341489687933519885",
        "55464657044963196816950587289035428064568320970692304673817341489687933519888",
        "55464657044963196816950587289035428064568320970692304673817341489687933519877",
        "55464657044963196816950587289035428064568320970692304673817341489687941879809",
        "55464657044963196816950587289035428064568320970692304673817341489687933519881"
      ]
    },
    {
      "x": 9,
      "y": 340,
      "size": 1,
      "price": "4683000000000000000000",
      "reserved": "",
      "salt": "0x3cb485489a486ba135003ee723442328ed069d781fd3fd90aab8cd1844748509",
      "assetIds": [
        "55464657044963196816950587289035428064568320970692304673817341489687933519878",
        "55464657044963196816950587289035428064568320970692304673817341489687933519885",
        "55464657044963196816950587289035428064568320970692304673817341489687933519888",
        "55464657044963196816950587289035428064568320970692304673817341489687933519877",
        "55464657044963196816950587289035428064568320970692304673817341489687941879809",
        "55464657044963196816950587289035428064568320970692304673817341489687933519881"
      ]
    },
    {
      "x": 9,
      "y": 341,
      "size": 1,
      "price": "4683000000000000000000",
      "reserved": "",
      "salt": "0x5cb0464d605e4841482ddaeb83346410064b46c2766679633640dd4e14a8f382",
      "assetIds": [
        "55464657044963196816950587289035428064568320970692304673817341489687933519878",
        "55464657044963196816950587289035428064568320970692304673817341489687933519885",
        "55464657044963196816950587289035428064568320970692304673817341489687933519888",
        "55464657044963196816950587289035428064568320970692304673817341489687933519877",
        "55464657044963196816950587289035428064568320970692304673817341489687941879809",
        "55464657044963196816950587289035428064568320970692304673817341489687933519881"
      ]
    },
    {
      "x": 9,
      "y": 342,
      "size": 1,
      "price": "4683000000000000000000",
      "reserved": "",
      "salt": "0xba11f692c055469cbdd453f233124eef962c92e1912c5112197e91162505d9e7",
      "assetIds": [
        "55464657044963196816950587289035428064568320970692304673817341489687933519878",
        "55464657044963196816950587289035428064568320970692304673817341489687933519885",
        "55464657044963196816950587289035428064568320970692304673817341489687933519888",
        "55464657044963196816950587289035428064568320970692304673817341489687933519877",
        "55464657044963196816950587289035428064568320970692304673817341489687941879809",
        "55464657044963196816950587289035428064568320970692304673817341489687933519881"
      ]
    },
    {
      "x": 9,
      "y": 343,
      "size": 1,
      "price": "4683000000000000000000",
      "reserved": "",
      "salt": "0x0303c05b060ccc5a6f516e1144a51a613bdd0f71c7b117fadd2cbd3d1a56fac5",
      "assetIds": [
        "55464657044963196816950587289035428064568320970692304673817341489687933519878",
        "55464657044963196816950587289035428064568320970692304673817341489687933519885",
        "55464657044963196816950587289035428064568320970692304673817341489687933519888",
        "55464657044963196816950587289035428064568320970692304673817341489687933519877",
        "55464657044963196816950587289035428064568320970692304673817341489687941879809",
        "55464657044963196816950587289035428064568320970692304673817341489687933519881"
      ]
    },
    {
      "x": 9,
      "y": 344,
      "size": 1,
      "price": "4683000000000000000000",
      "reserved": "",
      "salt": "0x948bad9deeabbd6e0f88c47fa24af967d0386f93c47a5d019ab1aab12275a49c",
      "assetIds": [
        "55464657044963196816950587289035428064568320970692304673817341489687933519878",
        "55464657044963196816950587289035428064568320970692304673817341489687933519885",
        "55464657044963196816950587289035428064568320970692304673817341489687933519888",
        "55464657044963196816950587289035428064568320970692304673817341489687933519877",
        "55464657044963196816950587289035428064568320970692304673817341489687941879809",
        "55464657044963196816950587289035428064568320970692304673817341489687933519881"
      ]
    },
    {
      "x": 9,
      "y": 345,
      "size": 1,
      "price": "4683000000000000000000",
      "reserved": "",
      "salt": "0x58f6fc8c6e0c6be02be99fb77a556ea7d43c25f3c6b3a0a24aafa77ffbcf42fb",
      "assetIds": [
        "55464657044963196816950587289035428064568320970692304673817341489687933519878",
        "55464657044963196816950587289035428064568320970692304673817341489687933519885",
        "55464657044963196816950587289035428064568320970692304673817341489687933519888",
        "55464657044963196816950587289035428064568320970692304673817341489687933519877",
        "55464657044963196816950587289035428064568320970692304673817341489687941879809",
        "55464657044963196816950587289035428064568320970692304673817341489687933519881"
      ]
    },
    {
      "x": 9,
      "y": 346,
      "size": 1,
      "price": "1011000000000000000000",
      "reserved": "0x7a9fe22691c811ea339d9b73150e6911a5343dca",
      "salt": "0x962ec9497a444b0b7a10de60ee4fc1dd85e6e16959a16409dab5b134629c3232",
      "assetIds": []
    },
    {
      "x": 9,
      "y": 347,
      "size": 1,
      "price": "1011000000000000000000",
      "reserved": "0x7a9fe22691c811ea339d9b73150e6911a5343dca",
      "salt": "0x8e43f2ab71aceeb8bc79ab168650a369eef15f223c2fb7e8aa55fbbda9185923",
      "assetIds": []
    },
    {
      "x": 9,
      "y": 348,
      "size": 1,
      "price": "1011000000000000000000",
      "reserved": "",
      "salt": "0x7fb63a082e5b1b695ef80d1bee4e2451090d1a603d1bdaceaffc4911e3aa1150",
      "assetIds": []
    },
    {
      "x": 9,
      "y": 349,
      "size": 1,
      "price": "1011000000000000000000",
      "reserved": "0x7a9fe22691c811ea339d9b73150e6911a5343dca",
      "salt": "0x8ec078000f091db06961f4eb66f067ab66f8f26d325ba6cfc73d247b55db453b",
      "assetIds": []
    },
    {
      "x": 9,
      "y": 350,
      "size": 1,
      "price": "1011000000000000000000",
      "reserved": "",
      "salt": "0x17f8333c6f2034bf00d4bd8146a890585fa53547fa77a4b3149240fcbb2b92f4",
      "assetIds": []
    },
    {
      "x": 9,
      "y": 351,
      "size": 1,
      "price": "1011000000000000000000",
      "reserved": "",
      "salt": "0x62a767a82478dc4d116d6c4253a3f876f6dd7ff30031acad7020a61b4b4aae65",
      "assetIds": []
    },
    {
      "x": 9,
      "y": 352,
      "size": 1,
      "price": "1011000000000000000000",
      "reserved": "",
      "salt": "0x18506087978ec52bb6c72629015c04485e559bf7c5d1ff16646efbf05676a621",
      "assetIds": []
    },
    {
      "x": 9,
      "y": 353,
      "size": 1,
      "price": "1011000000000000000000",
      "reserved": "",
      "salt": "0x29723c65895a38f5d7c18e8090061b47a796d7dfd35db297843611f90b07acd7",
      "assetIds": []
    },
    {
      "x": 9,
      "y": 354,
      "size": 1,
      "price": "1011000000000000000000",
      "reserved": "",
      "salt": "0xe944746c740813b5c450a2f80e8b1fe528c5fa398d2dd432cb2fb824c357986d",
      "assetIds": []
    },
    {
      "x": 9,
      "y": 355,
      "size": 1,
      "price": "1011000000000000000000",
      "reserved": "0x7a9fe22691c811ea339d9b73150e6911a5343dca",
      "salt": "0x1a97b19e4e2a80a09af252db1f97ea4ffe7f5e77b4993fbff8cd78b7259b6aca",
      "assetIds": []
    },
    {
      "x": 9,
      "y": 356,
      "size": 1,
      "price": "1011000000000000000000",
      "reserved": "",
      "salt": "0x0851a6769b1e7ce99b7dcd601b10dcabc355ffd3f91c4566627ae632a91c1b1b",
      "assetIds": []
    },
    {
      "x": 10,
      "y": 328,
      "size": 1,
      "price": "1011000000000000000000",
      "reserved": "",
      "salt": "0xa81c1a00d16ce421b5ad7f1ed74414beba40db53deb0922619fa40c339867570",
      "assetIds": []
    },
    {
      "x": 10,
      "y": 329,
      "size": 1,
      "price": "1011000000000000000000",
      "reserved": "0x7a9fe22691c811ea339d9b73150e6911a5343dca",
      "salt": "0xa64ecc4b091c9194f4cb4550b481015c37d33e82a36766183531fdedc2bf562e",
      "assetIds": []
    },
    {
      "x": 10,
      "y": 330,
      "size": 1,
      "price": "1011000000000000000000",
      "reserved": "",
      "salt": "0x3930c7bf9fba950776131bd5cdaab625ff94032f8ceb09804dd9aded2a82ae76",
      "assetIds": []
    },
    {
      "x": 10,
      "y": 331,
      "size": 1,
      "price": "1011000000000000000000",
      "reserved": "0x7a9fe22691c811ea339d9b73150e6911a5343dca",
      "salt": "0x2dce9feef1cac62085659471234f8d9fee215e22605cef5d916f74b8aba1dcf4",
      "assetIds": []
    },
    {
      "x": 10,
      "y": 332,
      "size": 1,
      "price": "1011000000000000000000",
      "reserved": "",
      "salt": "0xf90fde2d678396a30235edcae127ee68f9cfc469a0bd7786351d0885363cb6ed",
      "assetIds": []
    },
    {
      "x": 10,
      "y": 333,
      "size": 1,
      "price": "1011000000000000000000",
      "reserved": "",
      "salt": "0x253fbff1a961b7a3971d5e8b96b74089b2d512790cd4bbc031220ba3ff9f3d02",
      "assetIds": []
    },
    {
      "x": 10,
      "y": 334,
      "size": 1,
      "price": "1011000000000000000000",
      "reserved": "",
      "salt": "0xe81871d923b9786a00fd773ab5e6d1f133eb7f36a9507d94978c611146ef711e",
      "assetIds": []
    },
    {
      "x": 10,
      "y": 335,
      "size": 1,
      "price": "4683000000000000000000",
      "reserved": "",
      "salt": "0x324cba0f23a1fce20e540f8e1405bea13871a4115f19b12b669aec5da2c79c3d",
      "assetIds": [
        "55464657044963196816950587289035428064568320970692304673817341489687933519878",
        "55464657044963196816950587289035428064568320970692304673817341489687933519885",
        "55464657044963196816950587289035428064568320970692304673817341489687933519888",
        "55464657044963196816950587289035428064568320970692304673817341489687933519877",
        "55464657044963196816950587289035428064568320970692304673817341489687941879809",
        "55464657044963196816950587289035428064568320970692304673817341489687933519881"
      ]
    },
    {
      "x": 10,
      "y": 336,
      "size": 1,
      "price": "4683000000000000000000",
      "reserved": "",
      "salt": "0xc233865121093db68dd3abcf13b5a821633ab8f2c80a016c43e67169dfa92202",
      "assetIds": [
        "55464657044963196816950587289035428064568320970692304673817341489687933519878",
        "55464657044963196816950587289035428064568320970692304673817341489687933519885",
        "55464657044963196816950587289035428064568320970692304673817341489687933519888",
        "55464657044963196816950587289035428064568320970692304673817341489687933519877",
        "55464657044963196816950587289035428064568320970692304673817341489687941879809",
        "55464657044963196816950587289035428064568320970692304673817341489687933519881"
      ]
    },
    {
      "x": 10,
      "y": 337,
      "size": 1,
      "price": "4683000000000000000000",
      "reserved": "",
      "salt": "0xea32aa0d99db9ef130b3e0e2c8c991007ed97d938fecea5318b455bec06effc4",
      "assetIds": [
        "55464657044963196816950587289035428064568320970692304673817341489687933519878",
        "55464657044963196816950587289035428064568320970692304673817341489687933519885",
        "55464657044963196816950587289035428064568320970692304673817341489687933519888",
        "55464657044963196816950587289035428064568320970692304673817341489687933519877",
        "55464657044963196816950587289035428064568320970692304673817341489687941879809",
        "55464657044963196816950587289035428064568320970692304673817341489687933519881"
      ]
    },
    {
      "x": 10,
      "y": 338,
      "size": 1,
      "price": "4683000000000000000000",
      "reserved": "",
      "salt": "0x73f1631c1a0244cc2b5e270cab563c05c0e3522058fd6689823734ce2318aa4e",
      "assetIds": [
        "55464657044963196816950587289035428064568320970692304673817341489687933519878",
        "55464657044963196816950587289035428064568320970692304673817341489687933519885",
        "55464657044963196816950587289035428064568320970692304673817341489687933519888",
        "55464657044963196816950587289035428064568320970692304673817341489687933519877",
        "55464657044963196816950587289035428064568320970692304673817341489687941879809",
        "55464657044963196816950587289035428064568320970692304673817341489687933519881"
      ]
    },
    {
      "x": 10,
      "y": 339,
      "size": 1,
      "price": "4683000000000000000000",
      "reserved": "",
      "salt": "0x02f813f696e78c7ffa5ad697e244587a9529c9248f13625f41bb0eae8dffbf63",
      "assetIds": [
        "55464657044963196816950587289035428064568320970692304673817341489687933519878",
        "55464657044963196816950587289035428064568320970692304673817341489687933519885",
        "55464657044963196816950587289035428064568320970692304673817341489687933519888",
        "55464657044963196816950587289035428064568320970692304673817341489687933519877",
        "55464657044963196816950587289035428064568320970692304673817341489687941879809",
        "55464657044963196816950587289035428064568320970692304673817341489687933519881"
      ]
    },
    {
      "x": 10,
      "y": 340,
      "size": 1,
      "price": "4683000000000000000000",
      "reserved": "",
      "salt": "0x3acdc4b855d9168167b0a5a64ac1ca08fa3d8e3ffac98d2aa5c6578f578ed3a6",
      "assetIds": [
        "55464657044963196816950587289035428064568320970692304673817341489687933519878",
        "55464657044963196816950587289035428064568320970692304673817341489687933519885",
        "55464657044963196816950587289035428064568320970692304673817341489687933519888",
        "55464657044963196816950587289035428064568320970692304673817341489687933519877",
        "55464657044963196816950587289035428064568320970692304673817341489687941879809",
        "55464657044963196816950587289035428064568320970692304673817341489687933519881"
      ]
    },
    {
      "x": 10,
      "y": 341,
      "size": 1,
      "price": "4683000000000000000000",
      "reserved": "",
      "salt": "0x750d7c7a74ef951f88afffe07f46ee201bc8eef71378a2ca33d18c97960a2f1f",
      "assetIds": [
        "55464657044963196816950587289035428064568320970692304673817341489687933519878",
        "55464657044963196816950587289035428064568320970692304673817341489687933519885",
        "55464657044963196816950587289035428064568320970692304673817341489687933519888",
        "55464657044963196816950587289035428064568320970692304673817341489687933519877",
        "55464657044963196816950587289035428064568320970692304673817341489687941879809",
        "55464657044963196816950587289035428064568320970692304673817341489687933519881"
      ]
    },
    {
      "x": 10,
      "y": 342,
      "size": 1,
      "price": "4683000000000000000000",
      "reserved": "",
      "salt": "0x26ef7ce8cb93466441af5422bda6c9cfd077bfbc727f1b887c3154584b11292e",
      "assetIds": [
        "55464657044963196816950587289035428064568320970692304673817341489687933519878",
        "55464657044963196816950587289035428064568320970692304673817341489687933519885",
        "55464657044963196816950587289035428064568320970692304673817341489687933519888",
        "55464657044963196816950587289035428064568320970692304673817341489687933519877",
        "55464657044963196816950587289035428064568320970692304673817341489687941879809",
        "55464657044963196816950587289035428064568320970692304673817341489687933519881"
      ]
    },
    {
      "x": 10,
      "y": 343,
      "size": 1,
      "price": "4683000000000000000000",
      "reserved": "",
      "salt": "0x26ba76a83560b9e4280b7d55a226bd75d50f0272312a41788fa77e31036d40cc",
      "assetIds": [
        "55464657044963196816950587289035428064568320970692304673817341489687933519878",
        "55464657044963196816950587289035428064568320970692304673817341489687933519885",
        "55464657044963196816950587289035428064568320970692304673817341489687933519888",
        "55464657044963196816950587289035428064568320970692304673817341489687933519877",
        "55464657044963196816950587289035428064568320970692304673817341489687941879809",
        "55464657044963196816950587289035428064568320970692304673817341489687933519881"
      ]
    },
    {
      "x": 10,
      "y": 344,
      "size": 1,
      "price": "1011000000000000000000",
      "reserved": "0x7a9fe22691c811ea339d9b73150e6911a5343dca",
      "salt": "0x2e8c06989e46e4b56a32b9cfc1a5325902de1ca04aac3c9800bb6f183415dcdd",
      "assetIds": []
    },
    {
      "x": 10,
      "y": 345,
      "size": 1,
      "price": "4683000000000000000000",
      "reserved": "",
      "salt": "0x5991915938fa53c2ff4408996d52368249de73d139d5b895b40f1b8f8bcc1d10",
      "assetIds": [
        "55464657044963196816950587289035428064568320970692304673817341489687933519878",
        "55464657044963196816950587289035428064568320970692304673817341489687933519885",
        "55464657044963196816950587289035428064568320970692304673817341489687933519888",
        "55464657044963196816950587289035428064568320970692304673817341489687933519877",
        "55464657044963196816950587289035428064568320970692304673817341489687941879809",
        "55464657044963196816950587289035428064568320970692304673817341489687933519881"
      ]
    },
    {
      "x": 10,
      "y": 346,
      "size": 1,
      "price": "1011000000000000000000",
      "reserved": "0x7a9fe22691c811ea339d9b73150e6911a5343dca",
      "salt": "0x451dc807fba88cc82fe9a208d98b5cd89fcf4c31f84351ad1ee9092812f4595f",
      "assetIds": []
    },
    {
      "x": 10,
      "y": 347,
      "size": 1,
      "price": "1011000000000000000000",
      "reserved": "",
      "salt": "0xb64e5fd70f9c89be559e50f0688d6471242ffaf26169ad896f1ea37447bac4e6",
      "assetIds": []
    },
    {
      "x": 10,
      "y": 348,
      "size": 1,
      "price": "1011000000000000000000",
      "reserved": "0x7a9fe22691c811ea339d9b73150e6911a5343dca",
      "salt": "0x3ddb59cdbdf790cebc9d0601aaa705a92f8afb83a2241d5d10fc1fb0728bda6e",
      "assetIds": []
    },
    {
      "x": 10,
      "y": 349,
      "size": 1,
      "price": "1011000000000000000000",
      "reserved": "",
      "salt": "0x4b10affa8ddf254a9fb4b82f252b8c59be9eeb3b299990ad4dd302180417cdd3",
      "assetIds": []
    },
    {
      "x": 10,
      "y": 350,
      "size": 1,
      "price": "1011000000000000000000",
      "reserved": "",
      "salt": "0x8cce2e17ac36c7df611c282d27b49da7733a8e1c29a467bcdf518a7862499d70",
      "assetIds": []
    },
    {
      "x": 10,
      "y": 351,
      "size": 1,
      "price": "1011000000000000000000",
      "reserved": "0x7a9fe22691c811ea339d9b73150e6911a5343dca",
      "salt": "0xabeeb552c2582d127330abf9e5fde190d48b00860fe5b5f2cfea6709e9d92a62",
      "assetIds": []
    },
    {
      "x": 10,
      "y": 352,
      "size": 1,
      "price": "1011000000000000000000",
      "reserved": "",
      "salt": "0x4357e502f7b261d7500106f34595e914c8bb8270494a1d1d19faaf8ecc7208f0",
      "assetIds": []
    },
    {
      "x": 10,
      "y": 353,
      "size": 1,
      "price": "1011000000000000000000",
      "reserved": "0x7a9fe22691c811ea339d9b73150e6911a5343dca",
      "salt": "0x00342861c1ebf0046960502ae4478b2db87cc630b89189c36358f317990e9ba5",
      "assetIds": []
    },
    {
      "x": 10,
      "y": 354,
      "size": 1,
      "price": "1011000000000000000000",
      "reserved": "",
      "salt": "0x9d140a6b784d8ca0417f0417ecbce4594dd48345964787b34c004e465d868dd2",
      "assetIds": []
    },
    {
      "x": 10,
      "y": 355,
      "size": 1,
      "price": "1011000000000000000000",
      "reserved": "0x7a9fe22691c811ea339d9b73150e6911a5343dca",
      "salt": "0x9f3f6cbf419dcaae67fda0ed0dccf8d459caf8aaeb78c90674cae4ebee0d7ff7",
      "assetIds": []
    },
    {
      "x": 10,
      "y": 356,
      "size": 1,
      "price": "1011000000000000000000",
      "reserved": "",
      "salt": "0xa94153f088835e0f2de8735de9471b828fb3f054e7e3aeb0d10bd17e8793cf7c",
      "assetIds": []
    },
    {
      "x": 11,
      "y": 328,
      "size": 1,
      "price": "1011000000000000000000",
      "reserved": "",
      "salt": "0xc1187c6985354c74358ddc627e8e03797430a2ee21cab8dd22893856c06e2596",
      "assetIds": []
    },
    {
      "x": 11,
      "y": 329,
      "size": 1,
      "price": "1011000000000000000000",
      "reserved": "",
      "salt": "0x1009e2da75698385e7288bfd85205bc3dd676acb7eb7ba6b873c99fe34357698",
      "assetIds": []
    },
    {
      "x": 11,
      "y": 330,
      "size": 1,
      "price": "1011000000000000000000",
      "reserved": "",
      "salt": "0x6b651f4d647dd6918916303bb9eecdc4a7b501e283044a4388f3984c7fa65901",
      "assetIds": []
    },
    {
      "x": 11,
      "y": 331,
      "size": 1,
      "price": "1011000000000000000000",
      "reserved": "",
      "salt": "0xa1b349abc1019b059d4b34a8b64c3d7618ad0de9ae5d90ead035599a86bc87be",
      "assetIds": []
    },
    {
      "x": 11,
      "y": 332,
      "size": 1,
      "price": "1011000000000000000000",
      "reserved": "0x7a9fe22691c811ea339d9b73150e6911a5343dca",
      "salt": "0xeaf2a093986e847fa4abeb8f4590cacc95d8ca5904d30c59239b2f1e58521a85",
      "assetIds": []
    },
    {
      "x": 11,
      "y": 333,
      "size": 1,
      "price": "1011000000000000000000",
      "reserved": "",
      "salt": "0xcace8c93b614cc0fe6f27005377f92def360e4350453b477a5504e41ff08883f",
      "assetIds": []
    },
    {
      "x": 11,
      "y": 334,
      "size": 1,
      "price": "1011000000000000000000",
      "reserved": "",
      "salt": "0x9f637e8d1c01d22dd7b72f17755be07aa68dfbc777841a56a1849597cdd4ab6b",
      "assetIds": []
    },
    {
      "x": 11,
      "y": 335,
      "size": 1,
      "price": "1011000000000000000000",
      "reserved": "0x7a9fe22691c811ea339d9b73150e6911a5343dca",
      "salt": "0x479d56ef42f5bf9fb147cbd6754fe8514f6c0a872a2062fb4283b92215f6fed8",
      "assetIds": []
    },
    {
      "x": 11,
      "y": 336,
      "size": 1,
      "price": "4683000000000000000000",
      "reserved": "",
      "salt": "0x1497950e4a6c15e8995b597b16796b76570cae16378adc29e6eb83a14da875b3",
      "assetIds": [
        "55464657044963196816950587289035428064568320970692304673817341489687933519878",
        "55464657044963196816950587289035428064568320970692304673817341489687933519885",
        "55464657044963196816950587289035428064568320970692304673817341489687933519888",
        "55464657044963196816950587289035428064568320970692304673817341489687933519877",
        "55464657044963196816950587289035428064568320970692304673817341489687941879809",
        "55464657044963196816950587289035428064568320970692304673817341489687933519881"
      ]
    },
    {
      "x": 11,
      "y": 337,
      "size": 1,
      "price": "4683000000000000000000",
      "reserved": "",
      "salt": "0x2c6ad32f9c6cb2db726f3621e9df914fcb9cc219474b09a00bd7934ca3bce04e",
      "assetIds": [
        "55464657044963196816950587289035428064568320970692304673817341489687933519878",
        "55464657044963196816950587289035428064568320970692304673817341489687933519885",
        "55464657044963196816950587289035428064568320970692304673817341489687933519888",
        "55464657044963196816950587289035428064568320970692304673817341489687933519877",
        "55464657044963196816950587289035428064568320970692304673817341489687941879809",
        "55464657044963196816950587289035428064568320970692304673817341489687933519881"
      ]
    },
    {
      "x": 11,
      "y": 338,
      "size": 1,
      "price": "4683000000000000000000",
      "reserved": "",
      "salt": "0xc1c255d9e27ee53b14d09ebaead5d7d42ef01f61a0694945c0c714253bedd42f",
      "assetIds": [
        "55464657044963196816950587289035428064568320970692304673817341489687933519878",
        "55464657044963196816950587289035428064568320970692304673817341489687933519885",
        "55464657044963196816950587289035428064568320970692304673817341489687933519888",
        "55464657044963196816950587289035428064568320970692304673817341489687933519877",
        "55464657044963196816950587289035428064568320970692304673817341489687941879809",
        "55464657044963196816950587289035428064568320970692304673817341489687933519881"
      ]
    },
    {
      "x": 11,
      "y": 339,
      "size": 1,
      "price": "4683000000000000000000",
      "reserved": "",
      "salt": "0xf7eb518f17326e42ae5dd56fb6149e6d277896418109ee38fa9a854854d875b9",
      "assetIds": [
        "55464657044963196816950587289035428064568320970692304673817341489687933519878",
        "55464657044963196816950587289035428064568320970692304673817341489687933519885",
        "55464657044963196816950587289035428064568320970692304673817341489687933519888",
        "55464657044963196816950587289035428064568320970692304673817341489687933519877",
        "55464657044963196816950587289035428064568320970692304673817341489687941879809",
        "55464657044963196816950587289035428064568320970692304673817341489687933519881"
      ]
    },
    {
      "x": 11,
      "y": 340,
      "size": 1,
      "price": "4683000000000000000000",
      "reserved": "",
      "salt": "0x202af7edfd93292b95372c41b59d6e8d424e12fca18158263cd4ebf1e4f18bc0",
      "assetIds": [
        "55464657044963196816950587289035428064568320970692304673817341489687933519878",
        "55464657044963196816950587289035428064568320970692304673817341489687933519885",
        "55464657044963196816950587289035428064568320970692304673817341489687933519888",
        "55464657044963196816950587289035428064568320970692304673817341489687933519877",
        "55464657044963196816950587289035428064568320970692304673817341489687941879809",
        "55464657044963196816950587289035428064568320970692304673817341489687933519881"
      ]
    },
    {
      "x": 11,
      "y": 341,
      "size": 1,
      "price": "4683000000000000000000",
      "reserved": "",
      "salt": "0xa6d6cad3ec449e2ca08d863eaba917e0f0995c8a0d43bab3bb29d209cec08c65",
      "assetIds": [
        "55464657044963196816950587289035428064568320970692304673817341489687933519878",
        "55464657044963196816950587289035428064568320970692304673817341489687933519885",
        "55464657044963196816950587289035428064568320970692304673817341489687933519888",
        "55464657044963196816950587289035428064568320970692304673817341489687933519877",
        "55464657044963196816950587289035428064568320970692304673817341489687941879809",
        "55464657044963196816950587289035428064568320970692304673817341489687933519881"
      ]
    },
    {
      "x": 11,
      "y": 342,
      "size": 1,
      "price": "4683000000000000000000",
      "reserved": "",
      "salt": "0xc8d1063f0005337bd82c6f38fdab73b1513f839e002cfc264c716e1bd0f4fca7",
      "assetIds": [
        "55464657044963196816950587289035428064568320970692304673817341489687933519878",
        "55464657044963196816950587289035428064568320970692304673817341489687933519885",
        "55464657044963196816950587289035428064568320970692304673817341489687933519888",
        "55464657044963196816950587289035428064568320970692304673817341489687933519877",
        "55464657044963196816950587289035428064568320970692304673817341489687941879809",
        "55464657044963196816950587289035428064568320970692304673817341489687933519881"
      ]
    },
    {
      "x": 11,
      "y": 343,
      "size": 1,
      "price": "4683000000000000000000",
      "reserved": "",
      "salt": "0xf12faf82cabe741db1510685d2008b4841c00d275cd805dccd7cd8af29027c91",
      "assetIds": [
        "55464657044963196816950587289035428064568320970692304673817341489687933519878",
        "55464657044963196816950587289035428064568320970692304673817341489687933519885",
        "55464657044963196816950587289035428064568320970692304673817341489687933519888",
        "55464657044963196816950587289035428064568320970692304673817341489687933519877",
        "55464657044963196816950587289035428064568320970692304673817341489687941879809",
        "55464657044963196816950587289035428064568320970692304673817341489687933519881"
      ]
    },
    {
      "x": 11,
      "y": 344,
      "size": 1,
      "price": "4683000000000000000000",
      "reserved": "",
      "salt": "0x895d71d01a4c63d0a1a9c1c367bc225723106c5485ca336fcf42d005ad6d8d0f",
      "assetIds": [
        "55464657044963196816950587289035428064568320970692304673817341489687933519878",
        "55464657044963196816950587289035428064568320970692304673817341489687933519885",
        "55464657044963196816950587289035428064568320970692304673817341489687933519888",
        "55464657044963196816950587289035428064568320970692304673817341489687933519877",
        "55464657044963196816950587289035428064568320970692304673817341489687941879809",
        "55464657044963196816950587289035428064568320970692304673817341489687933519881"
      ]
    },
    {
      "x": 11,
      "y": 345,
      "size": 1,
      "price": "4683000000000000000000",
      "reserved": "",
      "salt": "0x5c3d580690afa490c14bd1c5e071160fda69d25f3bc9ea5f8995050603e8aa40",
      "assetIds": [
        "55464657044963196816950587289035428064568320970692304673817341489687933519878",
        "55464657044963196816950587289035428064568320970692304673817341489687933519885",
        "55464657044963196816950587289035428064568320970692304673817341489687933519888",
        "55464657044963196816950587289035428064568320970692304673817341489687933519877",
        "55464657044963196816950587289035428064568320970692304673817341489687941879809",
        "55464657044963196816950587289035428064568320970692304673817341489687933519881"
      ]
    },
    {
      "x": 11,
      "y": 346,
      "size": 1,
      "price": "1011000000000000000000",
      "reserved": "",
      "salt": "0x3577cdce82815caca67a2d031d37455a75a9d04678ae5769308b12bae273a17e",
      "assetIds": []
    },
    {
      "x": 11,
      "y": 347,
      "size": 1,
      "price": "1011000000000000000000",
      "reserved": "",
      "salt": "0x099667f25b74870f75841c3cbcd276e015383171cbce2a0d6245c7dfd56a13ec",
      "assetIds": []
    },
    {
      "x": 11,
      "y": 348,
      "size": 1,
      "price": "1011000000000000000000",
      "reserved": "",
      "salt": "0x74caae2bd7acfe3a6c14c97e9f8307aa241ed34f9408dbc4c239af21ab14278f",
      "assetIds": []
    },
    {
      "x": 11,
      "y": 349,
      "size": 1,
      "price": "1011000000000000000000",
      "reserved": "0x7a9fe22691c811ea339d9b73150e6911a5343dca",
      "salt": "0x02d53307fab9886826afff49b75433620a9576a6bf0b26e5f2272c49dde15e14",
      "assetIds": []
    },
    {
      "x": 11,
      "y": 350,
      "size": 1,
      "price": "1011000000000000000000",
      "reserved": "0x7a9fe22691c811ea339d9b73150e6911a5343dca",
      "salt": "0x7dea08c6c103360a632103cfa14a1eb17ade24a24cc48c114124a5afdb6ad60e",
      "assetIds": []
    },
    {
      "x": 11,
      "y": 351,
      "size": 1,
      "price": "1011000000000000000000",
      "reserved": "",
      "salt": "0x1fd0b2d05a3befe60cbf3926f91163835a400b16bd8df6eced46972a8bd1d991",
      "assetIds": []
    },
    {
      "x": 11,
      "y": 352,
      "size": 1,
      "price": "1011000000000000000000",
      "reserved": "",
      "salt": "0x9600ddc7f4318ae0c3219cacb7a24caada840b2921a6afec3f1fa9f689c83184",
      "assetIds": []
    },
    {
      "x": 11,
      "y": 353,
      "size": 1,
      "price": "1011000000000000000000",
      "reserved": "",
      "salt": "0x907ffa80aff5d4dadf6879566688106d696679543fcbc21a44a2f1be70db698b",
      "assetIds": []
    },
    {
      "x": 11,
      "y": 354,
      "size": 1,
      "price": "1011000000000000000000",
      "reserved": "",
      "salt": "0xa6188d33ab7c162b203e862fd040be41fbde3e86f3e4c9a48210fff4c40e4e03",
      "assetIds": []
    },
    {
      "x": 11,
      "y": 355,
      "size": 1,
      "price": "1011000000000000000000",
      "reserved": "",
      "salt": "0x333ffb0ef326a8fb34b4b596ddef453d1933b9ec359331125bf942e1c104d64a",
      "assetIds": []
    },
    {
      "x": 11,
      "y": 356,
      "size": 1,
      "price": "1011000000000000000000",
      "reserved": "",
      "salt": "0x147c350f644bbc5538f4448151e4b708106db937592756688d46ddbd17c72794",
      "assetIds": []
    },
    {
      "x": 12,
      "y": 328,
      "size": 1,
      "price": "1011000000000000000000",
      "reserved": "0x7a9fe22691c811ea339d9b73150e6911a5343dca",
      "salt": "0xb005fcca83b83d0bee096085894079a7bc0e3583428eb5a9b61226654c9d2278",
      "assetIds": []
    },
    {
      "x": 12,
      "y": 329,
      "size": 1,
      "price": "1011000000000000000000",
      "reserved": "",
      "salt": "0xc23f03330fef20cce04ce0d86834ca108b97eb34e531d6a3eb30a126aabb176f",
      "assetIds": []
    },
    {
      "x": 12,
      "y": 330,
      "size": 1,
      "price": "1011000000000000000000",
      "reserved": "0x7a9fe22691c811ea339d9b73150e6911a5343dca",
      "salt": "0xd14524103ad01a0837681ed22addb8a1d8b6212ea9bda9271f59f8c53417ae13",
      "assetIds": []
    },
    {
      "x": 12,
      "y": 331,
      "size": 1,
      "price": "1011000000000000000000",
      "reserved": "",
      "salt": "0xd1fd5403438098d1a157ed00495758f2ff9ad0cb6f0745ffbd7bd2d31f4ebdce",
      "assetIds": []
    },
    {
      "x": 12,
      "y": 332,
      "size": 1,
      "price": "1011000000000000000000",
      "reserved": "",
      "salt": "0x2be7102ee524a23770022209292acb849f8d78d84256cfef7342b559567d157a",
      "assetIds": []
    },
    {
      "x": 12,
      "y": 333,
      "size": 1,
      "price": "1011000000000000000000",
      "reserved": "",
      "salt": "0x651b512806b7d096b77daa1d3e658ceb8d4017622257c0f6205ccb20f8e15547",
      "assetIds": []
    },
    {
      "x": 12,
      "y": 334,
      "size": 1,
      "price": "1011000000000000000000",
      "reserved": "",
      "salt": "0xea7a0a87b33ad1e3901118d8eab3ec7f541d2da9d20b2008938d5e836d02c475",
      "assetIds": []
    },
    {
      "x": 12,
      "y": 335,
      "size": 1,
      "price": "1011000000000000000000",
      "reserved": "",
      "salt": "0x0d0696341037b8d49480b9507f6ab1f2230ac9a8031bcaad333a6da030937d8f",
      "assetIds": []
    },
    {
      "x": 12,
      "y": 354,
      "size": 1,
      "price": "1011000000000000000000",
      "reserved": "",
      "salt": "0x7dc779b1d343ea0567ec1f19e60a2b10845a3fa7adbc53bcb13b5a412db62031",
      "assetIds": []
    },
    {
      "x": 12,
      "y": 355,
      "size": 1,
      "price": "1011000000000000000000",
      "reserved": "0x7a9fe22691c811ea339d9b73150e6911a5343dca",
      "salt": "0x704f89534c255ab284a23e1a1a890b3b66d47fb18c8e3a86fb343a1163d22fec",
      "assetIds": []
    },
    {
      "x": 12,
      "y": 356,
      "size": 1,
      "price": "1011000000000000000000",
      "reserved": "0x7a9fe22691c811ea339d9b73150e6911a5343dca",
      "salt": "0xaec62001e6c51788263415453c11edd668cd354c57d6d3c96b473898661e05fe",
      "assetIds": []
    },
    {
      "x": 12,
      "y": 357,
      "size": 1,
      "price": "1011000000000000000000",
      "reserved": "",
      "salt": "0x2534bb879791d55d46012d38690845f87701c57e7ed18c88eaec8407ccc1f7d5",
      "assetIds": []
    },
    {
      "x": 12,
      "y": 358,
      "size": 1,
      "price": "1011000000000000000000",
      "reserved": "",
      "salt": "0xa06824742f5280896ca9ce38aac1de42873444df969212873f1e81ec93e3a883",
      "assetIds": []
    },
    {
      "x": 12,
      "y": 359,
      "size": 1,
      "price": "1011000000000000000000",
      "reserved": "0x7a9fe22691c811ea339d9b73150e6911a5343dca",
      "salt": "0xe026a55d5764e87eef5548cc55a45e19e5aaf01522fc760cb1b15460a4287908",
      "assetIds": []
    },
    {
      "x": 13,
      "y": 328,
      "size": 1,
      "price": "1011000000000000000000",
      "reserved": "0x7a9fe22691c811ea339d9b73150e6911a5343dca",
      "salt": "0xf122d98dc7db767752737e49cfbfcbd5edb0a5439b799f15085a7a215c02e92a",
      "assetIds": []
    },
    {
      "x": 13,
      "y": 329,
      "size": 1,
      "price": "1011000000000000000000",
      "reserved": "",
      "salt": "0x9f4c0d99e58aa1c1a2fa63adcfb1935cd58e9e72382ff16a5d5d4acf8bb0eecd",
      "assetIds": []
    },
    {
      "x": 13,
      "y": 330,
      "size": 1,
      "price": "1011000000000000000000",
      "reserved": "0x7a9fe22691c811ea339d9b73150e6911a5343dca",
      "salt": "0x5deb6238f392668a8c746ce4acb8a7ad40077de2897706a96834cfbedc1dca83",
      "assetIds": []
    },
    {
      "x": 13,
      "y": 331,
      "size": 1,
      "price": "1011000000000000000000",
      "reserved": "",
      "salt": "0x884cca052cba12201300bb8c1bc08d700d6a8cba0dc272274d371b54632eefdd",
      "assetIds": []
    },
    {
      "x": 13,
      "y": 332,
      "size": 1,
      "price": "1011000000000000000000",
      "reserved": "",
      "salt": "0x341f53e079be5de60fc19676310cef3a90a5b33bd2f95699c9a6b62bc1ad986f",
      "assetIds": []
    },
    {
      "x": 13,
      "y": 333,
      "size": 1,
      "price": "1011000000000000000000",
      "reserved": "",
      "salt": "0x98806ef5417366f83672d3ae335029b1235320eb7d19c2570c2e2aafad7289ff",
      "assetIds": []
    },
    {
      "x": 13,
      "y": 334,
      "size": 1,
      "price": "1011000000000000000000",
      "reserved": "",
      "salt": "0xf8e6663d1fdd3735d0c605118830f38ec8ed96b5de2583781de74294e35bfad6",
      "assetIds": []
    },
    {
      "x": 13,
      "y": 335,
      "size": 1,
      "price": "1011000000000000000000",
      "reserved": "",
      "salt": "0x28aeb56a1c21453baed13f56943b393ba8bd7c5a52d843ddbbd2676d87d0a188",
      "assetIds": []
    },
    {
      "x": 13,
      "y": 354,
      "size": 1,
      "price": "1011000000000000000000",
      "reserved": "",
      "salt": "0xbf92b326d50bf6bdb2d5333eefb0744a84aa77579171c5d29c5af0013027ae0b",
      "assetIds": []
    },
    {
      "x": 13,
      "y": 355,
      "size": 1,
      "price": "1011000000000000000000",
      "reserved": "",
      "salt": "0x55172f638d1fe26bfb247720ee5e1f708a31638f413162efd43dedb172fc1873",
      "assetIds": []
    },
    {
      "x": 13,
      "y": 356,
      "size": 1,
      "price": "1011000000000000000000",
      "reserved": "",
      "salt": "0x1ffb3ea051b1b93b729df9cd8947e63ca065986b0622f896dd37b3bf2074e731",
      "assetIds": []
    },
    {
      "x": 13,
      "y": 357,
      "size": 1,
      "price": "1011000000000000000000",
      "reserved": "",
      "salt": "0xf955b5c18ae961458ac99b985ae08285cea1a2b5c0d04e35fcbcf08e94f54a8b",
      "assetIds": []
    },
    {
      "x": 13,
      "y": 358,
      "size": 1,
      "price": "1011000000000000000000",
      "reserved": "",
      "salt": "0x48edec1385634474579b3a8b1c1192188365cf76432b038430bb4b0d9e4a897f",
      "assetIds": []
    },
    {
      "x": 13,
      "y": 359,
      "size": 1,
      "price": "1011000000000000000000",
      "reserved": "",
      "salt": "0x2b17a689a945bce5ec4548b97e9479aa02ef49c7a5d090d70362406f283e1476",
      "assetIds": []
    },
    {
      "x": 14,
      "y": 328,
      "size": 1,
      "price": "1011000000000000000000",
      "reserved": "",
      "salt": "0x887a8e4299a5c3c090be133be885f129af20ee1df20a118ecfe61424b8c3db1f",
      "assetIds": []
    },
    {
      "x": 14,
      "y": 329,
      "size": 1,
      "price": "1011000000000000000000",
      "reserved": "",
      "salt": "0xb0f37e14172bd41391dcf100a25e43b07f05ca6ce82d61955049461c400a52f4",
      "assetIds": []
    },
    {
      "x": 14,
      "y": 330,
      "size": 1,
      "price": "1011000000000000000000",
      "reserved": "",
      "salt": "0xf1fd3761a21a70579d1ce2e2c07c6a991469b8a6f1fa5374787493fc32f132c1",
      "assetIds": []
    },
    {
      "x": 14,
      "y": 331,
      "size": 1,
      "price": "1011000000000000000000",
      "reserved": "",
      "salt": "0x91c96b3a00e18747e06217f38baa18472c76852969628ee5900737eebec588b1",
      "assetIds": []
    },
    {
      "x": 14,
      "y": 332,
      "size": 1,
      "price": "1011000000000000000000",
      "reserved": "0x7a9fe22691c811ea339d9b73150e6911a5343dca",
      "salt": "0x10eba8fad9950b63d61b7b9b9368238d35e84780b9ae0772154c0d55f6182277",
      "assetIds": []
    },
    {
      "x": 14,
      "y": 333,
      "size": 1,
      "price": "1011000000000000000000",
      "reserved": "",
      "salt": "0x2bb32462ca54951c23d331da6b2ae0b5de6cfcb8b4edcb02988e71fdda555d8c",
      "assetIds": []
    },
    {
      "x": 14,
      "y": 334,
      "size": 1,
      "price": "1011000000000000000000",
      "reserved": "0x7a9fe22691c811ea339d9b73150e6911a5343dca",
      "salt": "0x3dce26f379b392bee2c87df237506f571fea2c7637fa3223395b5c636e68aa05",
      "assetIds": []
    },
    {
      "x": 14,
      "y": 335,
      "size": 1,
      "price": "1011000000000000000000",
      "reserved": "0x7a9fe22691c811ea339d9b73150e6911a5343dca",
      "salt": "0xf4c2223664d17de45cd128ad2c110be18e9f13ff8a2e0a54422ccaed54de2758",
      "assetIds": []
    },
    {
      "x": 14,
      "y": 354,
      "size": 1,
      "price": "1011000000000000000000",
      "reserved": "",
      "salt": "0xe90e0c7e7c05c9cd3b324d9cc5139612d151bf9d37e54b9a6f3df053afc87e06",
      "assetIds": []
    },
    {
      "x": 14,
      "y": 355,
      "size": 1,
      "price": "1011000000000000000000",
      "reserved": "0x7a9fe22691c811ea339d9b73150e6911a5343dca",
      "salt": "0x7c330b1d20e52507ab71f3c36982f3b30db87be1df0387f8cbd7537194ccb3da",
      "assetIds": []
    },
    {
      "x": 14,
      "y": 356,
      "size": 1,
      "price": "1011000000000000000000",
      "reserved": "",
      "salt": "0x86847459124f4bbb1a2cc530bc6e48136506e578c7fb2127d64bd088b95feb83",
      "assetIds": []
    },
    {
      "x": 14,
      "y": 357,
      "size": 1,
      "price": "1011000000000000000000",
      "reserved": "",
      "salt": "0x39ad67f6d3c40a4d47aea65e232502977e0fa643af740585c14d63c9799be4b2",
      "assetIds": []
    },
    {
      "x": 14,
      "y": 358,
      "size": 1,
      "price": "1011000000000000000000",
      "reserved": "0x7a9fe22691c811ea339d9b73150e6911a5343dca",
      "salt": "0x638882575991d526329440f865223ab6d5de644faa556e36d270619c9355276d",
      "assetIds": []
    },
    {
      "x": 14,
      "y": 359,
      "size": 1,
      "price": "1011000000000000000000",
      "reserved": "",
      "salt": "0x02801c433234bf813a224ff0f1c2042ee8b8b4e121a048139473fec5f94ce453",
      "assetIds": []
    },
    {
      "x": 15,
      "y": 328,
      "size": 1,
      "price": "1011000000000000000000",
      "reserved": "",
      "salt": "0xd599125a97851b2d49751235b49ee2a54cdd96fcaa23739845f41d7f4edda5d9",
      "assetIds": []
    },
    {
      "x": 15,
      "y": 329,
      "size": 1,
      "price": "1011000000000000000000",
      "reserved": "0x7a9fe22691c811ea339d9b73150e6911a5343dca",
      "salt": "0x00bd085bb3d895c273478aac9c7baa58a7e397d26c58e7761c243786815d17ae",
      "assetIds": []
    },
    {
      "x": 15,
      "y": 330,
      "size": 1,
      "price": "1011000000000000000000",
      "reserved": "",
      "salt": "0x27b6d38a8dd193e0c0d8ecf33f619584c76119b87547879599a35970238e41a8",
      "assetIds": []
    },
    {
      "x": 15,
      "y": 331,
      "size": 1,
      "price": "1011000000000000000000",
      "reserved": "",
      "salt": "0x84cc48c6f5079b998f65f2e33f554c2d76f1be333ef1c0a5a23ff754c6ecfbdb",
      "assetIds": []
    },
    {
      "x": 15,
      "y": 332,
      "size": 1,
      "price": "1011000000000000000000",
      "reserved": "",
      "salt": "0x18fdcc4968861c9a6e05aebf39ef9b2ab7187dd6a8a1babb789cc0ba6e0600d0",
      "assetIds": []
    },
    {
      "x": 15,
      "y": 333,
      "size": 1,
      "price": "1011000000000000000000",
      "reserved": "",
      "salt": "0xbecdf0d2dbebe966feabb587b17e36a402c8ea6190ab3bf0bb4e2a996f392813",
      "assetIds": []
    },
    {
      "x": 15,
      "y": 334,
      "size": 1,
      "price": "1011000000000000000000",
      "reserved": "",
      "salt": "0x91636c5d26c0dd189531a0f0cb0cea7497d8593b4adcf04b0b4d2f8dfc74f27b",
      "assetIds": []
    },
    {
      "x": 15,
      "y": 335,
      "size": 1,
      "price": "1011000000000000000000",
      "reserved": "",
      "salt": "0xbbd275cf85662be0946f99f158aaa16671b647e9a697c7b3d4274c54418c240f",
      "assetIds": []
    },
    {
      "x": 15,
      "y": 354,
      "size": 1,
      "price": "1011000000000000000000",
      "reserved": "",
      "salt": "0xa1d4afa374d82ceec67e50c176734c46ce6f850cdeeda9e660dfb7f4a7ad767a",
      "assetIds": []
    },
    {
      "x": 15,
      "y": 355,
      "size": 1,
      "price": "1011000000000000000000",
      "reserved": "",
      "salt": "0x10c9e8d1c8e39542f16efffc291ef52272d0f6fa94d66213b8c20f4117796253",
      "assetIds": []
    },
    {
      "x": 15,
      "y": 356,
      "size": 1,
      "price": "1011000000000000000000",
      "reserved": "",
      "salt": "0x996762c4e84cc6370d9e0c2da3fcfb3ae2dad0db64dd1911623ce610ad4ac9f3",
      "assetIds": []
    },
    {
      "x": 15,
      "y": 357,
      "size": 1,
      "price": "1011000000000000000000",
      "reserved": "",
      "salt": "0x801f824f2c4165b84f3ea42ad57ac1a45098201965b6fedf3a594a717216f163",
      "assetIds": []
    },
    {
      "x": 15,
      "y": 358,
      "size": 1,
      "price": "1011000000000000000000",
      "reserved": "",
      "salt": "0x63866e085c370ebfe12d22186bed579fb07ca4a0660cbbc541306d9ff9f84e7d",
      "assetIds": []
    },
    {
      "x": 15,
      "y": 359,
      "size": 1,
      "price": "1011000000000000000000",
      "reserved": "",
      "salt": "0x35fe7fce1fb1eabebd8931a355758dfe01fdfa36b695751482b46301f3933169",
      "assetIds": []
    },
    {
      "x": 16,
      "y": 328,
      "size": 1,
      "price": "1011000000000000000000",
      "reserved": "",
      "salt": "0xb5420b85bf71251ba5fee95c92a58fe8922dde57d6bd1df6346cdfceafbcbf00",
      "assetIds": []
    },
    {
      "x": 16,
      "y": 329,
      "size": 1,
      "price": "1011000000000000000000",
      "reserved": "",
      "salt": "0x777e3aeafcb70a453650dce5ee368d5fa6f30fe242fc150980495b7997a6abe6",
      "assetIds": []
    },
    {
      "x": 16,
      "y": 330,
      "size": 1,
      "price": "1011000000000000000000",
      "reserved": "",
      "salt": "0xdf8c125c4e88004c3f648098b78bf7e332854674e1f59029b845914b13885ab5",
      "assetIds": []
    },
    {
      "x": 16,
      "y": 331,
      "size": 1,
      "price": "1011000000000000000000",
      "reserved": "0x7a9fe22691c811ea339d9b73150e6911a5343dca",
      "salt": "0x9d90461026675b76f0fd98f3856bc30399ffe158683b255b1bd9277c61b9ca1c",
      "assetIds": []
    },
    {
      "x": 16,
      "y": 332,
      "size": 1,
      "price": "1011000000000000000000",
      "reserved": "",
      "salt": "0x808f50ffb93c3b67e772fd03a9c167e7feddc2b1a2be77021a31c8026d2a1484",
      "assetIds": []
    },
    {
      "x": 16,
      "y": 333,
      "size": 1,
      "price": "1011000000000000000000",
      "reserved": "",
      "salt": "0xd5dbbf7dff17f5f6518735fe879ebaed8fe099a03502397575b70c83795e0e65",
      "assetIds": []
    },
    {
      "x": 16,
      "y": 334,
      "size": 1,
      "price": "1011000000000000000000",
      "reserved": "",
      "salt": "0x348e5e693a8cb439f489e17685c31b6f1c2b68856c4249b56cb84c891d9fe045",
      "assetIds": []
    },
    {
      "x": 16,
      "y": 335,
      "size": 1,
      "price": "1011000000000000000000",
      "reserved": "",
      "salt": "0x24d46c8757c0563a2cac4afd3899adfcead96ba1cfc31caad28d1b36cb1851ba",
      "assetIds": []
    },
    {
      "x": 16,
      "y": 354,
      "size": 1,
      "price": "1011000000000000000000",
      "reserved": "",
      "salt": "0x9f7071c41c7ba87ba4c1cfdda1433d20e16c6b044d5b14aff8506f6eef796f9d",
      "assetIds": []
    },
    {
      "x": 16,
      "y": 355,
      "size": 1,
      "price": "1011000000000000000000",
      "reserved": "0x7a9fe22691c811ea339d9b73150e6911a5343dca",
      "salt": "0x1ed5aa833d84cb1fe8aadbb0c57c7a9b664fd76e3646a6cdd7238e91ae805064",
      "assetIds": []
    },
    {
      "x": 16,
      "y": 356,
      "size": 1,
      "price": "1011000000000000000000",
      "reserved": "0x7a9fe22691c811ea339d9b73150e6911a5343dca",
      "salt": "0x47143e77a4456d7eca2b30728d643f1d4f082d972541d2dcd2c5713a2b0f942d",
      "assetIds": []
    },
    {
      "x": 16,
      "y": 357,
      "size": 1,
      "price": "1011000000000000000000",
      "reserved": "",
      "salt": "0x32554451d1d598c5454a2a4e7ce752967165f0b7ff40ae3783090c7361949965",
      "assetIds": []
    },
    {
      "x": 16,
      "y": 358,
      "size": 1,
      "price": "1011000000000000000000",
      "reserved": "",
      "salt": "0x21817b955580c6236dd7f0c84b066819bc2bd8205984a56f47b472354fd095ad",
      "assetIds": []
    },
    {
      "x": 16,
      "y": 359,
      "size": 1,
      "price": "1011000000000000000000",
      "reserved": "",
      "salt": "0x7ece67022ab3c8eff69928b9c21a331b3b04ede677faa13942700652b5b88f32",
      "assetIds": []
    },
    {
      "x": 17,
      "y": 328,
      "size": 1,
      "price": "1011000000000000000000",
      "reserved": "",
      "salt": "0x754b018a6a57ec859ca288315f346c322d211d0ad79c4d33c74fa8f8c641b9d6",
      "assetIds": []
    },
    {
      "x": 17,
      "y": 329,
      "size": 1,
      "price": "1011000000000000000000",
      "reserved": "0x7a9fe22691c811ea339d9b73150e6911a5343dca",
      "salt": "0x46b8ba9d2a91d226d1287971f04f1f9ff62f4f8d01b4fbab90a5988ca75d8b1d",
      "assetIds": []
    },
    {
      "x": 17,
      "y": 330,
      "size": 1,
      "price": "1011000000000000000000",
      "reserved": "",
      "salt": "0x47f851364b3a2f6b75789daf1811801a76600b7cc9ed99c09e60a6632ca0b63e",
      "assetIds": []
    },
    {
      "x": 17,
      "y": 331,
      "size": 1,
      "price": "1011000000000000000000",
      "reserved": "",
      "salt": "0xbddc999cc1a79b25fbb1df4fe8c58c89ab4b4462a9522926edffbe5ea43a2a0a",
      "assetIds": []
    },
    {
      "x": 17,
      "y": 332,
      "size": 1,
      "price": "1011000000000000000000",
      "reserved": "",
      "salt": "0xc36e771f5be99d99912e68870578d872cd9922cadcd7a9c9b6fe0117de5f5858",
      "assetIds": []
    },
    {
      "x": 17,
      "y": 333,
      "size": 1,
      "price": "1011000000000000000000",
      "reserved": "",
      "salt": "0x3d97419f3291a038d1b91b559c0678eb299615dd8281da67f94781b0b89bf0d6",
      "assetIds": []
    },
    {
      "x": 17,
      "y": 334,
      "size": 1,
      "price": "1011000000000000000000",
      "reserved": "",
      "salt": "0x5582a1dbc2ce093e85d8673b2fccf6badafab893f035ccaf7402943e576748e9",
      "assetIds": []
    },
    {
      "x": 17,
      "y": 335,
      "size": 1,
      "price": "1011000000000000000000",
      "reserved": "",
      "salt": "0x2da4a62b76b3fd2b11f0818a0e9b38de39a8a5385a30f4cec0cb86d0dfb8936f",
      "assetIds": []
    },
    {
      "x": 17,
      "y": 354,
      "size": 1,
      "price": "1011000000000000000000",
      "reserved": "",
      "salt": "0x3cf72303c59e2f7ce929e632922fb4bafe344782803f1570fd8da91650091925",
      "assetIds": []
    },
    {
      "x": 17,
      "y": 355,
      "size": 1,
      "price": "1011000000000000000000",
      "reserved": "",
      "salt": "0x70b6aa31fb538675820c64f614e5cd3a063631bd76320c2f49e52c8b6070d314",
      "assetIds": []
    },
    {
      "x": 17,
      "y": 356,
      "size": 1,
      "price": "1011000000000000000000",
      "reserved": "",
      "salt": "0x2a77c5e5951b598ee01bb256e81432c1aa75866e343736ae7b545206d38bbb43",
      "assetIds": []
    },
    {
      "x": 17,
      "y": 357,
      "size": 1,
      "price": "1011000000000000000000",
      "reserved": "",
      "salt": "0x08f5ffcd608747ad263cd64062da6f4ca3c4c3bdbf02456f845cb0e1f74a7aa5",
      "assetIds": []
    },
    {
      "x": 17,
      "y": 358,
      "size": 1,
      "price": "1011000000000000000000",
      "reserved": "0x7a9fe22691c811ea339d9b73150e6911a5343dca",
      "salt": "0xefb82d507605ee05634c74cf14f3338bd4b7fff53e4bd4da0de4be312a531419",
      "assetIds": []
    },
    {
      "x": 17,
      "y": 359,
      "size": 1,
      "price": "1011000000000000000000",
      "reserved": "0x7a9fe22691c811ea339d9b73150e6911a5343dca",
      "salt": "0xbcb8c585622729018db003584293671e5e26ebf77840efb86f3554963d1f1143",
      "assetIds": []
    },
    {
      "x": 18,
      "y": 328,
      "size": 1,
      "price": "1011000000000000000000",
      "reserved": "",
      "salt": "0xc662e091e0f0689a18de17ed67dc4f51753ee54cdb5646139b200b2e398fe615",
      "assetIds": []
    },
    {
      "x": 18,
      "y": 329,
      "size": 1,
      "price": "1011000000000000000000",
      "reserved": "",
      "salt": "0x264188075d9359fcc24568c1a146be7d104360725f88b05d84a70b5c52f7b733",
      "assetIds": []
    },
    {
      "x": 18,
      "y": 330,
      "size": 1,
      "price": "1011000000000000000000",
      "reserved": "",
      "salt": "0x302ffbc66f0897ab3c6551d4bac84f94218e813afbb5f8b5f7d2936a7992b316",
      "assetIds": []
    },
    {
      "x": 18,
      "y": 331,
      "size": 1,
      "price": "1011000000000000000000",
      "reserved": "",
      "salt": "0x571778adea3de9e6d4e4dd7477270be04a5ce39642d257d980332facc5036736",
      "assetIds": []
    },
    {
      "x": 18,
      "y": 332,
      "size": 1,
      "price": "1011000000000000000000",
      "reserved": "",
      "salt": "0x7f831e270647d39abd4d54326b2b2f97d86eda98dc046990a69a424d1763edb8",
      "assetIds": []
    },
    {
      "x": 18,
      "y": 333,
      "size": 1,
      "price": "1011000000000000000000",
      "reserved": "0x7a9fe22691c811ea339d9b73150e6911a5343dca",
      "salt": "0x7f758db0453d45642d1521463698df49092f0ccf86c08da95b1abf858db0b8cb",
      "assetIds": []
    },
    {
      "x": 18,
      "y": 334,
      "size": 1,
      "price": "1011000000000000000000",
      "reserved": "",
      "salt": "0x6a5dd0619c131651b4444511642bb3f37767469264b50fe2523dfe36b4e70062",
      "assetIds": []
    },
    {
      "x": 18,
      "y": 335,
      "size": 1,
      "price": "1011000000000000000000",
      "reserved": "",
      "salt": "0x1f6d0ffdb175200d1445c69ca70df93a5b14517d485a3b3c61264e68eac797a9",
      "assetIds": []
    },
    {
      "x": 18,
      "y": 348,
      "size": 1,
      "price": "1011000000000000000000",
      "reserved": "",
      "salt": "0xfcf9849980111ef3c43ff4293036f6c857426871e6f7c3dedd752c079b13dddd",
      "assetIds": []
    },
    {
      "x": 18,
      "y": 349,
      "size": 1,
      "price": "1011000000000000000000",
      "reserved": "0x7a9fe22691c811ea339d9b73150e6911a5343dca",
      "salt": "0xc4343ff03181282cddc95aed3d067df2bbf469cbda596eb6904548f3125edbc6",
      "assetIds": []
    },
    {
      "x": 18,
      "y": 350,
      "size": 1,
      "price": "1011000000000000000000",
      "reserved": "",
      "salt": "0x9face0fb0c7964a02b9aac3cec198f06521ff1ca6c1ca1b349822b0de96f997e",
      "assetIds": []
    },
    {
      "x": 18,
      "y": 351,
      "size": 1,
      "price": "1011000000000000000000",
      "reserved": "0x7a9fe22691c811ea339d9b73150e6911a5343dca",
      "salt": "0xc6b82fd0e90b9a47cba6c44fa8e99b356a0272493412133de9902d8bf5f8970f",
      "assetIds": []
    },
    {
      "x": 18,
      "y": 352,
      "size": 1,
      "price": "1011000000000000000000",
      "reserved": "",
      "salt": "0x982c5165e71a429285f1541e18035025fdb74fbecfe8720202828afea85b9a14",
      "assetIds": []
    },
    {
      "x": 18,
      "y": 353,
      "size": 1,
      "price": "1011000000000000000000",
      "reserved": "0x7a9fe22691c811ea339d9b73150e6911a5343dca",
      "salt": "0xbadd59c742514d490b43c072a1bd86725602ea0c7a9049aae5507238c13e4f39",
      "assetIds": []
    },
    {
      "x": 19,
      "y": 328,
      "size": 1,
      "price": "1011000000000000000000",
      "reserved": "",
      "salt": "0xe044fd61b28147912d61d5130268792d3f7b0d7ad3b8fb3103e1aa9272968633",
      "assetIds": []
    },
    {
      "x": 19,
      "y": 329,
      "size": 1,
      "price": "1011000000000000000000",
      "reserved": "",
      "salt": "0x7d1c9b58caa577423ced4381991970b402d18f27c498cbe0a5c42ca00819d2f4",
      "assetIds": []
    },
    {
      "x": 19,
      "y": 330,
      "size": 1,
      "price": "1011000000000000000000",
      "reserved": "",
      "salt": "0xe662217594a7b4cf83212905c6c8488500f1cd79169fe550b0e58d9d0780a284",
      "assetIds": []
    },
    {
      "x": 19,
      "y": 331,
      "size": 1,
      "price": "1011000000000000000000",
      "reserved": "",
      "salt": "0x477ddb3a077c07d160908f149f05ef4730a9bc707ebf4cf59e6519fcf0049549",
      "assetIds": []
    },
    {
      "x": 19,
      "y": 332,
      "size": 1,
      "price": "1011000000000000000000",
      "reserved": "",
      "salt": "0x18b5dd631a377574665fd58e8ffd22ebd559b9a3720e73c330eac8dd6ede1630",
      "assetIds": []
    },
    {
      "x": 19,
      "y": 333,
      "size": 1,
      "price": "1011000000000000000000",
      "reserved": "",
      "salt": "0xd281c0d65f493044c1777a0163eb1ab9715ab16108c4e7775755796d6f36977f",
      "assetIds": []
    },
    {
      "x": 19,
      "y": 334,
      "size": 1,
      "price": "1011000000000000000000",
      "reserved": "",
      "salt": "0x27aa5d03303ab0d0d00fc642e5cde235f83fbfdee93dd48f829ed51e32f3e06c",
      "assetIds": []
    },
    {
      "x": 19,
      "y": 335,
      "size": 1,
      "price": "1011000000000000000000",
      "reserved": "0x7a9fe22691c811ea339d9b73150e6911a5343dca",
      "salt": "0x860105f1929a83e56b500871b32e073a7aec55a832f18bbcce8f47945c9f8ca6",
      "assetIds": []
    },
    {
      "x": 19,
      "y": 348,
      "size": 1,
      "price": "1011000000000000000000",
      "reserved": "",
      "salt": "0x9557183646bab54e04155ddfd98711855b10b647637ec8e2ea633706e4120789",
      "assetIds": []
    },
    {
      "x": 19,
      "y": 349,
      "size": 1,
      "price": "1011000000000000000000",
      "reserved": "0x7a9fe22691c811ea339d9b73150e6911a5343dca",
      "salt": "0xfa3e328d534fdcaae84fd8b33a521c6d78c76baf222c906a70fed50b661ccc81",
      "assetIds": []
    },
    {
      "x": 19,
      "y": 350,
      "size": 1,
      "price": "1011000000000000000000",
      "reserved": "",
      "salt": "0x674a772bc6a15d02c75e58f4568744c5cc5c93b83fc6249dbd9aac50de74c759",
      "assetIds": []
    },
    {
      "x": 19,
      "y": 351,
      "size": 1,
      "price": "1011000000000000000000",
      "reserved": "",
      "salt": "0xdb449c10712d72a90a5c7a3a513e353955b84846d969f28e3e4b22adb38f5f90",
      "assetIds": []
    },
    {
      "x": 19,
      "y": 352,
      "size": 1,
      "price": "1011000000000000000000",
      "reserved": "0x7a9fe22691c811ea339d9b73150e6911a5343dca",
      "salt": "0x8ed9a463db1c30e0d783aa5044b00705d01757b967d7e7b723e6affe0e80953a",
      "assetIds": []
    },
    {
      "x": 19,
      "y": 353,
      "size": 1,
      "price": "1011000000000000000000",
      "reserved": "",
      "salt": "0xf4d7a729eea8f42f9910b2565a746fbb9a9d5b652173ff2f1f830019f783bd41",
      "assetIds": []
    },
    {
      "x": 20,
      "y": 328,
      "size": 1,
      "price": "1011000000000000000000",
      "reserved": "0x7a9fe22691c811ea339d9b73150e6911a5343dca",
      "salt": "0x8a41be73a9576ce65946661567052b6975309eb7e1406e24d60f45cca5b976ca",
      "assetIds": []
    },
    {
      "x": 20,
      "y": 329,
      "size": 1,
      "price": "1011000000000000000000",
      "reserved": "",
      "salt": "0x40d108d8e67486eeb544372717fa854b50b41cc03b73af12e54714f5c747ee3a",
      "assetIds": []
    },
    {
      "x": 20,
      "y": 330,
      "size": 1,
      "price": "1011000000000000000000",
      "reserved": "0x7a9fe22691c811ea339d9b73150e6911a5343dca",
      "salt": "0x416dc77a64d84d73703f80dc7b01030923cf97352f0f6ca8ee0cdec4994df515",
      "assetIds": []
    },
    {
      "x": 20,
      "y": 331,
      "size": 1,
      "price": "1011000000000000000000",
      "reserved": "",
      "salt": "0x000a2d84cc060b60112d21a964bf6f9ca7bbe9fbe209cf49e1649de83cc880ce",
      "assetIds": []
    },
    {
      "x": 20,
      "y": 332,
      "size": 1,
      "price": "1011000000000000000000",
      "reserved": "",
      "salt": "0x4893c12b65b2d99eda7dc37a137c0f7ad0774db7f138e6986d6e38392f83cefa",
      "assetIds": []
    },
    {
      "x": 20,
      "y": 333,
      "size": 1,
      "price": "1011000000000000000000",
      "reserved": "0x7a9fe22691c811ea339d9b73150e6911a5343dca",
      "salt": "0x31be1ca400af6c2fcb2f1787b799cfeb362e4a22021012f8f6a9ea15d8dc571a",
      "assetIds": []
    },
    {
      "x": 20,
      "y": 334,
      "size": 1,
      "price": "1011000000000000000000",
      "reserved": "",
      "salt": "0xd97379d25381317b363b4f8359cc62b480405cd5b181e9fa6be0ad68cb666c5e",
      "assetIds": []
    },
    {
      "x": 20,
      "y": 335,
      "size": 1,
      "price": "1011000000000000000000",
      "reserved": "0x7a9fe22691c811ea339d9b73150e6911a5343dca",
      "salt": "0x9eb253d1f804024a53b7079115b17fca69118e391f42e5008ac7cb44ff469737",
      "assetIds": []
    },
    {
      "x": 20,
      "y": 348,
      "size": 1,
      "price": "1011000000000000000000",
      "reserved": "",
      "salt": "0xc5f8f598d18a8532b385218eb66f73137d4625f1e3a74f20b029c089ee1a75c9",
      "assetIds": []
    },
    {
      "x": 20,
      "y": 349,
      "size": 1,
      "price": "1011000000000000000000",
      "reserved": "",
      "salt": "0x4ecb6aace1969526c9d298216c52750b4f9161c43370aaa9cb5b8dc6a2e87cd4",
      "assetIds": []
    },
    {
      "x": 20,
      "y": 350,
      "size": 1,
      "price": "1011000000000000000000",
      "reserved": "",
      "salt": "0xaeb69318eda528bcb468f3302a8996e5a640eaf43309e943509bb6f28724fd73",
      "assetIds": []
    },
    {
      "x": 20,
      "y": 351,
      "size": 1,
      "price": "1011000000000000000000",
      "reserved": "",
      "salt": "0xe9c2ac6fbfe718a42b55af87e728d7d2c9bb290fda7f5b946278e2637c79de50",
      "assetIds": []
    },
    {
      "x": 20,
      "y": 352,
      "size": 1,
      "price": "1011000000000000000000",
      "reserved": "",
      "salt": "0xee9ea239fa37be794f1bb4dc19dbe2b0ed6bd64448181a2c931de63d2fd4c367",
      "assetIds": []
    },
    {
      "x": 20,
      "y": 353,
      "size": 1,
      "price": "1011000000000000000000",
      "reserved": "",
      "salt": "0x95d12e3da45778dd3a52c7b56ceba50cd30d003b45db07bd39635f2fd2236110",
      "assetIds": []
    },
    {
      "x": 21,
      "y": 328,
      "size": 1,
      "price": "1011000000000000000000",
      "reserved": "",
      "salt": "0x668f4a944ea2d8b1a8bdb1441011de07d0bf88ef129b00419ccfe1a1fac29418",
      "assetIds": []
    },
    {
      "x": 21,
      "y": 329,
      "size": 1,
      "price": "1011000000000000000000",
      "reserved": "",
      "salt": "0xc71fa6857afb15de3581b9791abb71657d9fee6b6aac5fbb6aa5be74d447759a",
      "assetIds": []
    },
    {
      "x": 21,
      "y": 330,
      "size": 1,
      "price": "1011000000000000000000",
      "reserved": "",
      "salt": "0x25fb11aeb75f28e999927f4d4789d620559f86165087f9d12942967a968ff9d6",
      "assetIds": []
    },
    {
      "x": 21,
      "y": 331,
      "size": 1,
      "price": "1011000000000000000000",
      "reserved": "",
      "salt": "0x2f4592404b600177535cee4a43ad3668bab840519ae78bf70c034838f6671dba",
      "assetIds": []
    },
    {
      "x": 21,
      "y": 332,
      "size": 1,
      "price": "1011000000000000000000",
      "reserved": "",
      "salt": "0xf54310844472496fec74efcc204aec76907ad6fa58fed3816907d9d804bc3351",
      "assetIds": []
    },
    {
      "x": 21,
      "y": 333,
      "size": 1,
      "price": "1011000000000000000000",
      "reserved": "",
      "salt": "0xb13378a23eef1f3a3a415c0c7a4b06408cddb22bf6587faf152ba59b6cab4d1b",
      "assetIds": []
    },
    {
      "x": 21,
      "y": 334,
      "size": 1,
      "price": "1011000000000000000000",
      "reserved": "",
      "salt": "0x38e89ae2d95f7cd2a6a8d18c02767b5241ed0bd11c18e3d9ef9fbcbf95f2283a",
      "assetIds": []
    },
    {
      "x": 21,
      "y": 335,
      "size": 1,
      "price": "1011000000000000000000",
      "reserved": "",
      "salt": "0x4680a67e0ce7e96b630fbc74c78595471ab68a819910142527f770e1e872f994",
      "assetIds": []
    },
    {
      "x": 21,
      "y": 348,
      "size": 1,
      "price": "1011000000000000000000",
      "reserved": "",
      "salt": "0x2a1712029e4b6550478aa4f8b1022920ec364f1959974259358858ba230c6b42",
      "assetIds": []
    },
    {
      "x": 21,
      "y": 349,
      "size": 1,
      "price": "1011000000000000000000",
      "reserved": "",
      "salt": "0xaca615938fb095141dcba558703692badcec0b5442e77a96a3b06ec668fadbf0",
      "assetIds": []
    },
    {
      "x": 21,
      "y": 350,
      "size": 1,
      "price": "1011000000000000000000",
      "reserved": "0x7a9fe22691c811ea339d9b73150e6911a5343dca",
      "salt": "0x1e8fb125956646e4a49b412709e9d731669e3fa54cc5ce6aa637ae49cd29ad96",
      "assetIds": []
    },
    {
      "x": 21,
      "y": 351,
      "size": 1,
      "price": "1011000000000000000000",
      "reserved": "",
      "salt": "0xa56f05e1f7f221f0196af191b0d0d288c9a1506bfc83812f66b885b1800ce36c",
      "assetIds": []
    },
    {
      "x": 21,
      "y": 352,
      "size": 1,
      "price": "1011000000000000000000",
      "reserved": "",
      "salt": "0xef7d6a4fe7f11b65f9a32307a6f0560da9b280f316455edc66c025025a5beada",
      "assetIds": []
    },
    {
      "x": 21,
      "y": 353,
      "size": 1,
      "price": "1011000000000000000000",
      "reserved": "",
      "salt": "0x2f4d3a5396082efaf22699ce3f224fa97438acbba40359d224325b17bd3dc9a4",
      "assetIds": []
    },
    {
      "x": 21,
      "y": 354,
      "size": 1,
      "price": "1011000000000000000000",
      "reserved": "0x7a9fe22691c811ea339d9b73150e6911a5343dca",
      "salt": "0xf6d32bb5d5028109fe8a9bbf9fb4d558a194b50ac8f20c8029d220daa31c665f",
      "assetIds": []
    },
    {
      "x": 22,
      "y": 328,
      "size": 1,
      "price": "1011000000000000000000",
      "reserved": "",
      "salt": "0x1812c03fc0da70025c5e4f5c328c311f3b7db8451e6d29d102412cd3551caddc",
      "assetIds": []
    },
    {
      "x": 22,
      "y": 329,
      "size": 1,
      "price": "1011000000000000000000",
      "reserved": "0x7a9fe22691c811ea339d9b73150e6911a5343dca",
      "salt": "0x06abc9ea95e6ce2a5e0d3d1dc5a16611bf90d87586b89f934c9c818f4ccd3c9d",
      "assetIds": []
    },
    {
      "x": 22,
      "y": 330,
      "size": 1,
      "price": "1011000000000000000000",
      "reserved": "",
      "salt": "0x61eb9e137dab34dcc3cf32496237f582ddfe3cbb069f8f6726cffd7f464bc81f",
      "assetIds": []
    },
    {
      "x": 22,
      "y": 331,
      "size": 1,
      "price": "1011000000000000000000",
      "reserved": "0x7a9fe22691c811ea339d9b73150e6911a5343dca",
      "salt": "0xa57cb413ee26469d04a2dd263a31880f603b7480400d16d1ea5fe1a87315c125",
      "assetIds": []
    },
    {
      "x": 22,
      "y": 332,
      "size": 1,
      "price": "1011000000000000000000",
      "reserved": "0x7a9fe22691c811ea339d9b73150e6911a5343dca",
      "salt": "0x81ca920d5bf93da7d52ebd56b311e7a854f7dcf75572fb0028e04658b48607d8",
      "assetIds": []
    },
    {
      "x": 22,
      "y": 333,
      "size": 1,
      "price": "1011000000000000000000",
      "reserved": "",
      "salt": "0x378d7b8d9155d04440488bf6e2b909ff255c03ef570e5395355e2d83def923c8",
      "assetIds": []
    },
    {
      "x": 22,
      "y": 334,
      "size": 1,
      "price": "1011000000000000000000",
      "reserved": "",
      "salt": "0xb93349edeb7259ee128df40e5f72bf21c3d7bdf5070ee27b87d72c8cc04c41f9",
      "assetIds": []
    },
    {
      "x": 22,
      "y": 335,
      "size": 1,
      "price": "1011000000000000000000",
      "reserved": "0x7a9fe22691c811ea339d9b73150e6911a5343dca",
      "salt": "0x67a982717d6cb8cb2582d3e82e1b9effbcfff8dd878d860ae4950526054eb884",
      "assetIds": []
    },
    {
      "x": 22,
      "y": 348,
      "size": 1,
      "price": "1011000000000000000000",
      "reserved": "",
      "salt": "0xc67ddf1fde00500144974986d7c10e97dbb3e3ecb4c1a86439950b9a35c6f0a4",
      "assetIds": []
    },
    {
      "x": 22,
      "y": 349,
      "size": 1,
      "price": "1011000000000000000000",
      "reserved": "0x7a9fe22691c811ea339d9b73150e6911a5343dca",
      "salt": "0x19b74f03379f08b903d5188b8b844f31db3e9bb4c6c9da0d3dafd847bae7e32e",
      "assetIds": []
    },
    {
      "x": 22,
      "y": 350,
      "size": 1,
      "price": "1011000000000000000000",
      "reserved": "",
      "salt": "0xb7207944524a7af33b4fc8fb9b30c8ffb33452a44f34b073f4515b6a5a5fecb9",
      "assetIds": []
    },
    {
      "x": 22,
      "y": 351,
      "size": 1,
      "price": "1011000000000000000000",
      "reserved": "",
      "salt": "0xd6567c2c4c93c81ea139a82bdaf9b8f7237d762227f6cf01a17393d057fb97a1",
      "assetIds": []
    },
    {
      "x": 22,
      "y": 352,
      "size": 1,
      "price": "1011000000000000000000",
      "reserved": "0x7a9fe22691c811ea339d9b73150e6911a5343dca",
      "salt": "0x6769d319c66e268e520c431b12199df2963c36940aec8452eb888c25f2cf101a",
      "assetIds": []
    },
    {
      "x": 22,
      "y": 353,
      "size": 1,
      "price": "1011000000000000000000",
      "reserved": "",
      "salt": "0x3dea2382e95da7f0b188a4a52852bef9aa9f4cffaa6afb8c16db4a6747c58b7a",
      "assetIds": []
    },
    {
      "x": 22,
      "y": 354,
      "size": 1,
      "price": "1011000000000000000000",
      "reserved": "",
      "salt": "0x5f02df37fe2cebd1aca2415ad05eb78cd6af5af79adeb449b29ceaeaaf3bcee3",
      "assetIds": []
    },
    {
      "x": 23,
      "y": 327,
      "size": 1,
      "price": "1011000000000000000000",
      "reserved": "",
      "salt": "0xbfcb76c6e2e18c03bd93e6f343f01060baa6949e4caad3f21c8c8950044b1118",
      "assetIds": []
    },
    {
      "x": 23,
      "y": 328,
      "size": 1,
      "price": "1011000000000000000000",
      "reserved": "",
      "salt": "0xfcd19037cc0cd61023e468dfd581e5ac609e9625a232207d459d8c02ce8eedba",
      "assetIds": []
    },
    {
      "x": 23,
      "y": 329,
      "size": 1,
      "price": "1011000000000000000000",
      "reserved": "",
      "salt": "0xba4afec0fed86515066dcc3b4c5efad87abe288e873596143df9492b5e787f17",
      "assetIds": []
    },
    {
      "x": 23,
      "y": 330,
      "size": 1,
      "price": "1011000000000000000000",
      "reserved": "",
      "salt": "0xaa5cc859cf07fd5223f01c83a99792d21f5d1b761077677c0802b7285c94987f",
      "assetIds": []
    },
    {
      "x": 23,
      "y": 331,
      "size": 1,
      "price": "1011000000000000000000",
      "reserved": "",
      "salt": "0x5a31fd42f1b9ad5cfdbdad649d5027462a80e60fbe7982f5d1ccb458a4ba9568",
      "assetIds": []
    },
    {
      "x": 23,
      "y": 332,
      "size": 1,
      "price": "1011000000000000000000",
      "reserved": "",
      "salt": "0x45fe6a213e40fc28a6622d809566dad76b6b9ae453c0f8d9670ab98ddca533ac",
      "assetIds": []
    },
    {
      "x": 23,
      "y": 333,
      "size": 1,
      "price": "1011000000000000000000",
      "reserved": "",
      "salt": "0x429f874947a83c620cf6d687226c743d603838034c06b55b79970ee0208ad9f9",
      "assetIds": []
    },
    {
      "x": 23,
      "y": 334,
      "size": 1,
      "price": "1011000000000000000000",
      "reserved": "",
      "salt": "0xc4011964d08e46528b7b84a6bd628413e38b2a39041a811288ca5729c9ac99d5",
      "assetIds": []
    },
    {
      "x": 23,
      "y": 335,
      "size": 1,
      "price": "1011000000000000000000",
      "reserved": "0x7a9fe22691c811ea339d9b73150e6911a5343dca",
      "salt": "0xd4306643b946db2b6ad5f7eec40b813cd128284427cb523099528d6aac5bb5e7",
      "assetIds": []
    },
    {
      "x": 23,
      "y": 348,
      "size": 1,
      "price": "1011000000000000000000",
      "reserved": "",
      "salt": "0x8e43dc2672943247b43961489caf3cc7e7a818ba746174504272a2e0793e2b66",
      "assetIds": []
    },
    {
      "x": 23,
      "y": 349,
      "size": 1,
      "price": "1011000000000000000000",
      "reserved": "",
      "salt": "0x323a6b0bb0a5eb4693d5a1456650c924c3d886878c70611e309c8d940fdfda36",
      "assetIds": []
    },
    {
      "x": 23,
      "y": 350,
      "size": 1,
      "price": "1011000000000000000000",
      "reserved": "",
      "salt": "0xaa3c8e580aec1c5f3fbe76e1c80ca07052aa2a91bf50b9b0369451defb15b76f",
      "assetIds": []
    },
    {
      "x": 23,
      "y": 351,
      "size": 1,
      "price": "1011000000000000000000",
      "reserved": "",
      "salt": "0x39d417fba5b793df24ac68f483712a4abca406dde660551b61703429e47e4064",
      "assetIds": []
    },
    {
      "x": 23,
      "y": 352,
      "size": 1,
      "price": "1011000000000000000000",
      "reserved": "0x7a9fe22691c811ea339d9b73150e6911a5343dca",
      "salt": "0x3d751f6f05a3e8c84a8920b1886dbccf62de8050de7bd247861cf6bc6e7d7fc6",
      "assetIds": []
    },
    {
      "x": 23,
      "y": 353,
      "size": 1,
      "price": "1011000000000000000000",
      "reserved": "",
      "salt": "0xec5b0483ccf380b0a2110f771c11f7c543e92906ece4e4fcfa10aa9edfcea74e",
      "assetIds": []
    },
    {
      "x": 23,
      "y": 354,
      "size": 1,
      "price": "1011000000000000000000",
      "reserved": "",
      "salt": "0x483cf77702d79f5ea78e26e33aa7d4cc8cdfb6b13ec1c3f0ab4824d1c48ec72e",
      "assetIds": []
    },
    {
      "x": 24,
      "y": 327,
      "size": 1,
      "price": "1011000000000000000000",
      "reserved": "",
      "salt": "0x4c7663d35dee555dcc587b40be71db9cab447114f886cfed6dcc8b551761fe77",
      "assetIds": []
    },
    {
      "x": 24,
      "y": 328,
      "size": 1,
      "price": "1011000000000000000000",
      "reserved": "",
      "salt": "0x2eb2f9a0b13ebe3c8c0380fd38ede5ad04bac3d5a16b1f7ff4a6c18725a1bdef",
      "assetIds": []
    },
    {
      "x": 24,
      "y": 329,
      "size": 1,
      "price": "1011000000000000000000",
      "reserved": "0x7a9fe22691c811ea339d9b73150e6911a5343dca",
      "salt": "0x2da18ee0d4b37c2ed4e8c83e12613f87eee8542b406742916543dcfc669fb1e3",
      "assetIds": []
    },
    {
      "x": 24,
      "y": 330,
      "size": 1,
      "price": "1011000000000000000000",
      "reserved": "",
      "salt": "0xa8990b94c32c7ba8e254feb72446560b37f3cec9b57197574059bba4bdc88647",
      "assetIds": []
    },
    {
      "x": 24,
      "y": 331,
      "size": 1,
      "price": "1011000000000000000000",
      "reserved": "",
      "salt": "0x3ba16696ffd24c0bc1d475b228c6c29a335776c05a6892602cb281732f668876",
      "assetIds": []
    },
    {
      "x": 24,
      "y": 332,
      "size": 1,
      "price": "1011000000000000000000",
      "reserved": "",
      "salt": "0xd04fd87f672bd786b1373649309ef12c8740591588660a02a4a898673af2ebf2",
      "assetIds": []
    },
    {
      "x": 24,
      "y": 333,
      "size": 1,
      "price": "1011000000000000000000",
      "reserved": "",
      "salt": "0xd0af1ef6eed441409b1dd6377a42e909078f24b8dbfa6453d8cc5cedaa88e1fc",
      "assetIds": []
    },
    {
      "x": 24,
      "y": 334,
      "size": 1,
      "price": "1011000000000000000000",
      "reserved": "",
      "salt": "0x9a7851f18e0e3d6b667ab0f432b4ad2e097fccce5bab113a7379f6b312deb1cf",
      "assetIds": []
    },
    {
      "x": 24,
      "y": 335,
      "size": 1,
      "price": "1011000000000000000000",
      "reserved": "",
      "salt": "0x5eb64ea938d49cc1c9cf57855a4583777be4eace66c2d7ccc7769dc736b16f0a",
      "assetIds": []
    },
    {
      "x": 24,
      "y": 342,
      "size": 1,
      "price": "1011000000000000000000",
      "reserved": "",
      "salt": "0x2ea2208476629f834798bee66e0b496b906f31e2ee57478f15679797aebb25e7",
      "assetIds": []
    },
    {
      "x": 24,
      "y": 343,
      "size": 1,
      "price": "1011000000000000000000",
      "reserved": "",
      "salt": "0x08f31cb0b115eebc27d4063162240c0fd0cf83d50e047c4569a588844f430cd6",
      "assetIds": []
    },
    {
      "x": 24,
      "y": 344,
      "size": 1,
      "price": "1011000000000000000000",
      "reserved": "",
      "salt": "0xf97b15189d04e76a6eb3839aefe2f653460e1c8c8c086d6dd3966115e38245a8",
      "assetIds": []
    },
    {
      "x": 24,
      "y": 345,
      "size": 1,
      "price": "1011000000000000000000",
      "reserved": "",
      "salt": "0x4dc0995f2f47f97160265cf2cfbbee489aa3e066b42ea23c4344eb47fb6edf57",
      "assetIds": []
    },
    {
      "x": 24,
      "y": 346,
      "size": 1,
      "price": "1011000000000000000000",
      "reserved": "0x7a9fe22691c811ea339d9b73150e6911a5343dca",
      "salt": "0xfe9316c206d73731b429810a8ed1748650c553cbb5a394f0bd9113ce24ed7fc7",
      "assetIds": []
    },
    {
      "x": 24,
      "y": 347,
      "size": 1,
      "price": "1011000000000000000000",
      "reserved": "",
      "salt": "0xdde17f694614ab64ac0b207185b2f8c6b794cb9acf0ae57ae4bdc55709b1eb1f",
      "assetIds": []
    },
    {
      "x": 24,
      "y": 348,
      "size": 1,
      "price": "1011000000000000000000",
      "reserved": "",
      "salt": "0x4d1f2ebc795440fb928b4678ff27c414b645c496a2e2155645065fda46e79026",
      "assetIds": []
    },
    {
      "x": 24,
      "y": 349,
      "size": 1,
      "price": "1011000000000000000000",
      "reserved": "",
      "salt": "0x815b9ff570510e7c027e3b57a79bd4bcf05acf84c64677bf2f4846fe15a35986",
      "assetIds": []
    },
    {
      "x": 24,
      "y": 350,
      "size": 1,
      "price": "1011000000000000000000",
      "reserved": "",
      "salt": "0xad0cc070f5ba09739f864fc74e35ee2dcea93035bbf8246a4b03a76464c14627",
      "assetIds": []
    },
    {
      "x": 24,
      "y": 351,
      "size": 1,
      "price": "1011000000000000000000",
      "reserved": "",
      "salt": "0x164933fc15d99172e0bb4fae43310484986dbac78101b01c7f2e3f5d1dd2bf42",
      "assetIds": []
    },
    {
      "x": 24,
      "y": 352,
      "size": 1,
      "price": "1011000000000000000000",
      "reserved": "",
      "salt": "0x92574fddcdf994911e36facc2062dd6a365344a7fa2c7108afc41b00b9dfb9ad",
      "assetIds": []
    },
    {
      "x": 24,
      "y": 353,
      "size": 1,
      "price": "1011000000000000000000",
      "reserved": "0x7a9fe22691c811ea339d9b73150e6911a5343dca",
      "salt": "0xa2c36794224f3901f87b18862ee1b0bae6a295aa678b64d3903d4bf7238cfe3d",
      "assetIds": []
    },
    {
      "x": 24,
      "y": 354,
      "size": 1,
      "price": "1011000000000000000000",
      "reserved": "",
      "salt": "0x42434356e37ba950f8b087e799bc66ed422ff786aba6a779d1ee39e2caaf4933",
      "assetIds": []
    },
    {
      "x": 25,
      "y": 327,
      "size": 1,
      "price": "1011000000000000000000",
      "reserved": "",
      "salt": "0x4176de5369492c3b736adca1ec23b7089c70e915c4f4313e5addcd674d76998c",
      "assetIds": []
    },
    {
      "x": 25,
      "y": 328,
      "size": 1,
      "price": "1011000000000000000000",
      "reserved": "",
      "salt": "0xa36f9a8d5601dc4b4e5c3833bec9d4736b4da8b0c7a96f46e6eeae09cf9c79e1",
      "assetIds": []
    },
    {
      "x": 25,
      "y": 329,
      "size": 1,
      "price": "1011000000000000000000",
      "reserved": "0x7a9fe22691c811ea339d9b73150e6911a5343dca",
      "salt": "0xbc59c594ecd8842bfeb1fe569b02f0097315aedfaaf0b985bbbc03632af8933d",
      "assetIds": []
    },
    {
      "x": 25,
      "y": 330,
      "size": 1,
      "price": "1011000000000000000000",
      "reserved": "",
      "salt": "0xb63e6e86612cf55fe175a776e9f56fefb79d9803e6d6f341d492c6eea4b642fe",
      "assetIds": []
    },
    {
      "x": 25,
      "y": 331,
      "size": 1,
      "price": "1011000000000000000000",
      "reserved": "",
      "salt": "0xa6dd473ef9a4733fdd7af74a27f99b5e87698c26057bbf9752106d93460e2b90",
      "assetIds": []
    },
    {
      "x": 25,
      "y": 332,
      "size": 1,
      "price": "1011000000000000000000",
      "reserved": "0x7a9fe22691c811ea339d9b73150e6911a5343dca",
      "salt": "0x49ae14b81649895b0aa0761074f827644963a1cb575db404e4406fb8ecb7bf9e",
      "assetIds": []
    },
    {
      "x": 25,
      "y": 333,
      "size": 1,
      "price": "1011000000000000000000",
      "reserved": "",
      "salt": "0xc6d53f34f2bb6c8b4b11dab3e341771262196d932df8a09b110963fc6450473d",
      "assetIds": []
    },
    {
      "x": 25,
      "y": 334,
      "size": 1,
      "price": "1011000000000000000000",
      "reserved": "0x7a9fe22691c811ea339d9b73150e6911a5343dca",
      "salt": "0x7c665a375b00291a55cc5bb981aacc15b4445fbdc7cc06958062421cbbd9932b",
      "assetIds": []
    },
    {
      "x": 25,
      "y": 335,
      "size": 1,
      "price": "1011000000000000000000",
      "reserved": "",
      "salt": "0x700d468d933b9a2f8fcf37eec2d8638d80b090bf1598c221ee86144718cce524",
      "assetIds": []
    },
    {
      "x": 25,
      "y": 342,
      "size": 1,
      "price": "1011000000000000000000",
      "reserved": "0x7a9fe22691c811ea339d9b73150e6911a5343dca",
      "salt": "0xebec8f79a5fd5f6e65b198175ede5c6785967d87025ef01e7465c02c7eb37f2a",
      "assetIds": []
    },
    {
      "x": 25,
      "y": 343,
      "size": 1,
      "price": "1011000000000000000000",
      "reserved": "",
      "salt": "0x1e89918d840fae524d54f8a319a6ccdde912b6d061b5d315a5c467f8ca4785be",
      "assetIds": []
    },
    {
      "x": 25,
      "y": 344,
      "size": 1,
      "price": "1011000000000000000000",
      "reserved": "0x7a9fe22691c811ea339d9b73150e6911a5343dca",
      "salt": "0x9f43fe32c918e4039fb6324d9b3e29141904d677fd4b9b9e9903e7e3ca4f7e30",
      "assetIds": []
    },
    {
      "x": 25,
      "y": 345,
      "size": 1,
      "price": "1011000000000000000000",
      "reserved": "",
      "salt": "0x2bb0296436176cce8534ac75b895ee2ddcfb5634e887de1f2a0583369c426f13",
      "assetIds": []
    },
    {
      "x": 25,
      "y": 348,
      "size": 1,
      "price": "1011000000000000000000",
      "reserved": "",
      "salt": "0xccce82e0e9fba45d25dd6894373882c429aa56f85c3a902c347070f794669d57",
      "assetIds": []
    },
    {
      "x": 25,
      "y": 349,
      "size": 1,
      "price": "1011000000000000000000",
      "reserved": "0x7a9fe22691c811ea339d9b73150e6911a5343dca",
      "salt": "0x47e9a8ba1fd86170c55c24b6f41a6f8e572f0d84cc8144aaae5c64d2d5f3b62b",
      "assetIds": []
    },
    {
      "x": 25,
      "y": 350,
      "size": 1,
      "price": "1011000000000000000000",
      "reserved": "0x7a9fe22691c811ea339d9b73150e6911a5343dca",
      "salt": "0xe3a2d046fc680b756daa6893e8b6818c0bd731a98a9196bf4c13aa93f1cd0220",
      "assetIds": []
    },
    {
      "x": 25,
      "y": 351,
      "size": 1,
      "price": "1011000000000000000000",
      "reserved": "",
      "salt": "0x51a7a96fc156c725c2fe3fa171e894c2c0c83fdf9905ace8a5b5b574bde46587",
      "assetIds": []
    },
    {
      "x": 25,
      "y": 352,
      "size": 1,
      "price": "1011000000000000000000",
      "reserved": "",
      "salt": "0xedef9d47c6eec3794e924b68facd83351fdbd528de4d1aa9e44c7e981cdbc3cb",
      "assetIds": []
    },
    {
      "x": 25,
      "y": 353,
      "size": 1,
      "price": "1011000000000000000000",
      "reserved": "",
      "salt": "0x70eb79c79191e543b6d42bf46382fe53e450eeb69791da694d9a1f1e3b17fa36",
      "assetIds": []
    },
    {
      "x": 25,
      "y": 354,
      "size": 1,
      "price": "1011000000000000000000",
      "reserved": "",
      "salt": "0x0f30af49b1302d4577b7cabde72dc88fd387bcd7808d292dc4cc162bf208ab34",
      "assetIds": []
    },
    {
      "x": 26,
      "y": 327,
      "size": 1,
      "price": "1011000000000000000000",
      "reserved": "",
      "salt": "0xb271eb877ed5ee0ac52f233ba3419744ad1fa6b7a18c72babb007f162d490dcf",
      "assetIds": []
    },
    {
      "x": 26,
      "y": 328,
      "size": 1,
      "price": "1011000000000000000000",
      "reserved": "",
      "salt": "0xe18bf4fc90edcedfe448ed2fe1e415374b871d746885d8e9dda71cc8155dbe73",
      "assetIds": []
    },
    {
      "x": 26,
      "y": 329,
      "size": 1,
      "price": "1011000000000000000000",
      "reserved": "",
      "salt": "0xb6704f6f679d24859bb3611019f6e90cbfa3629d74383f4116df2b6153d14d08",
      "assetIds": []
    },
    {
      "x": 26,
      "y": 330,
      "size": 1,
      "price": "1011000000000000000000",
      "reserved": "",
      "salt": "0x45af36bd0c1fab32bb5079c7e803626eb2473cfac7759d2ee372096b8ec83d80",
      "assetIds": []
    },
    {
      "x": 26,
      "y": 331,
      "size": 1,
      "price": "1011000000000000000000",
      "reserved": "",
      "salt": "0x7c3e8b93b91423318825b198a0af9648fdcba64ece271066d1095cc4ede267ba",
      "assetIds": []
    },
    {
      "x": 26,
      "y": 332,
      "size": 1,
      "price": "1011000000000000000000",
      "reserved": "",
      "salt": "0x9856e9f6b350d924e1650cafc01397854a8be31ee7d77c39f8254deeb291e492",
      "assetIds": []
    },
    {
      "x": 26,
      "y": 333,
      "size": 1,
      "price": "1011000000000000000000",
      "reserved": "",
      "salt": "0x817b992a240359e97d7e48ffa651293836c1bc77011ce62dfcd2bfd18344bf14",
      "assetIds": []
    },
    {
      "x": 26,
      "y": 334,
      "size": 1,
      "price": "1011000000000000000000",
      "reserved": "",
      "salt": "0x9a8fb83db8779d3964980fe7ac532acb0793568f740931028e4fb014692c61fc",
      "assetIds": []
    },
    {
      "x": 26,
      "y": 335,
      "size": 1,
      "price": "1011000000000000000000",
      "reserved": "",
      "salt": "0xbf9628055719fcbad59edbc84b3e81dbc5b9db72d6966aef0d4161f7f137a85f",
      "assetIds": []
    },
    {
      "x": 26,
      "y": 342,
      "size": 1,
      "price": "1011000000000000000000",
      "reserved": "",
      "salt": "0x9e1b0b04dcec7b1b17ec9e4d8581b6eebe6f15ad6de0af806725e0bb6614135e",
      "assetIds": []
    },
    {
      "x": 26,
      "y": 343,
      "size": 1,
      "price": "1011000000000000000000",
      "reserved": "",
      "salt": "0x19584651198c7ea9302422f77cf21bc4545f5938beb8fdb98dd517502526c165",
      "assetIds": []
    },
    {
      "x": 26,
      "y": 344,
      "size": 1,
      "price": "1011000000000000000000",
      "reserved": "0x7a9fe22691c811ea339d9b73150e6911a5343dca",
      "salt": "0xc0df7704cd4ced9211bce808d7069f3443deab592dc4906debf95512975cc3d5",
      "assetIds": []
    },
    {
      "x": 26,
      "y": 345,
      "size": 1,
      "price": "1011000000000000000000",
      "reserved": "",
      "salt": "0x99d16b689d55e38fdf3d39cf73a8bc7aa5903cc96726ea4641b769e9726586ef",
      "assetIds": []
    },
    {
      "x": 27,
      "y": 325,
      "size": 1,
      "price": "1011000000000000000000",
      "reserved": "",
      "salt": "0x7cc8a8a546f5828f18b2bbf91eb0a86dc99860dad2943d77b8fc0f130ba7b5b0",
      "assetIds": []
    },
    {
      "x": 27,
      "y": 326,
      "size": 1,
      "price": "1011000000000000000000",
      "reserved": "",
      "salt": "0x4ebd07e076d9e32548962fcd066474ee2f29de11ec6f1858094fae884c0933bf",
      "assetIds": []
    },
    {
      "x": 27,
      "y": 327,
      "size": 1,
      "price": "1011000000000000000000",
      "reserved": "",
      "salt": "0x78911f00e877c2f3c408d5200e624e4116fb6847fa65160da6ce2d9faee57e1c",
      "assetIds": []
    },
    {
      "x": 27,
      "y": 328,
      "size": 1,
      "price": "1011000000000000000000",
      "reserved": "",
      "salt": "0x0f373c8ff55be9985a70bc065f95bc8e8b4518b10e2d057299486a0872019d2d",
      "assetIds": []
    },
    {
      "x": 27,
      "y": 329,
      "size": 1,
      "price": "1011000000000000000000",
      "reserved": "",
      "salt": "0xd8e21dd29cf2da13ddec80ddea9c70538957b0cd076b1fd02bf5ff8a690f10a5",
      "assetIds": []
    },
    {
      "x": 27,
      "y": 330,
      "size": 1,
      "price": "1011000000000000000000",
      "reserved": "",
      "salt": "0xc0f8909373d3b3cc7a68e80c8b04d8c30371777a440b3291b250867066d5a955",
      "assetIds": []
    },
    {
      "x": 27,
      "y": 331,
      "size": 1,
      "price": "1011000000000000000000",
      "reserved": "",
      "salt": "0x6f28d875bfba9c69a066a79c4fced680e4cdd5a347aaaddf55d605339b824fdd",
      "assetIds": []
    },
    {
      "x": 27,
      "y": 332,
      "size": 1,
      "price": "1011000000000000000000",
      "reserved": "",
      "salt": "0xf55bb7b8d2b0088c79ff0aa6125016edf4c240fcd8ca70695e5b7f0a1b6a5934",
      "assetIds": []
    },
    {
      "x": 27,
      "y": 333,
      "size": 1,
      "price": "1011000000000000000000",
      "reserved": "",
      "salt": "0xed09561e2180977125fc040b50f814ba611568b98aa1a921aecd3761e876af97",
      "assetIds": []
    },
    {
      "x": 27,
      "y": 334,
      "size": 1,
      "price": "1011000000000000000000",
      "reserved": "",
      "salt": "0x510c8abbb46932b83bfd64543b7d5cb4d09b63698a0007ec814717659faedd44",
      "assetIds": []
    },
    {
      "x": 27,
      "y": 335,
      "size": 1,
      "price": "1011000000000000000000",
      "reserved": "",
      "salt": "0xb2456587ceedd5492b9d4b1be8011093c02f827514329ed56d19bd26b1deaef5",
      "assetIds": []
    },
    {
      "x": 27,
      "y": 342,
      "size": 1,
      "price": "1011000000000000000000",
      "reserved": "",
      "salt": "0x98ce0bda8e625a1a223e076949b4cf92cef0d87e20fc941a5b4e6d771f51c405",
      "assetIds": []
    },
    {
      "x": 27,
      "y": 343,
      "size": 1,
      "price": "1011000000000000000000",
      "reserved": "",
      "salt": "0x03af663dc3c123bc5a642e4961875100f1d8c03b6758545acb77921387ffa996",
      "assetIds": []
    },
    {
      "x": 27,
      "y": 344,
      "size": 1,
      "price": "1011000000000000000000",
      "reserved": "",
      "salt": "0x590888e775f57ba9097c1c36dc81617c4f037b1a6d16c3b0f4cc19a7fb9646cd",
      "assetIds": []
    },
    {
      "x": 27,
      "y": 345,
      "size": 1,
      "price": "1011000000000000000000",
      "reserved": "",
      "salt": "0x7c816f3cb38c9be1f3dd336c2f592fef5c64d79bb0e2a2f7bee74a3d24bdef10",
      "assetIds": []
    },
    {
      "x": 28,
      "y": 325,
      "size": 1,
      "price": "1011000000000000000000",
      "reserved": "",
      "salt": "0x778357d740ecd97b7236e3aa620f27cc6acf55fc3bf865373742f4fa737952f6",
      "assetIds": []
    },
    {
      "x": 28,
      "y": 326,
      "size": 1,
      "price": "1011000000000000000000",
      "reserved": "0x7a9fe22691c811ea339d9b73150e6911a5343dca",
      "salt": "0x2529f844f881621cb9fe1fad7879d35df64d555b034ae197b8476516d7345219",
      "assetIds": []
    },
    {
      "x": 28,
      "y": 327,
      "size": 1,
      "price": "1011000000000000000000",
      "reserved": "",
      "salt": "0x4f7097487f5d1d72ce3376c11cd890c5713e4d0c7b866e95320705e9a90ac2d0",
      "assetIds": []
    },
    {
      "x": 28,
      "y": 328,
      "size": 1,
      "price": "1011000000000000000000",
      "reserved": "",
      "salt": "0x95018bd46f03300baaf87e823e920f3efa99a8bfd0f25491d2b8b8bc8d94247a",
      "assetIds": []
    },
    {
      "x": 28,
      "y": 329,
      "size": 1,
      "price": "1011000000000000000000",
      "reserved": "",
      "salt": "0x7dc366a7633dd3c01e23b84ea15c987dffcdd2374955f6e147a50c421de7fe5a",
      "assetIds": []
    },
    {
      "x": 28,
      "y": 330,
      "size": 1,
      "price": "1011000000000000000000",
      "reserved": "",
      "salt": "0xfb69081316707d26cea4234d431eca34f0351ee2f737a031a6d6451eb0d77945",
      "assetIds": []
    },
    {
      "x": 28,
      "y": 331,
      "size": 1,
      "price": "1011000000000000000000",
      "reserved": "0x7a9fe22691c811ea339d9b73150e6911a5343dca",
      "salt": "0x7e157bb3b3b4375743d4d7bca2fb77aabb5e6a34979b28bf1a09d3456e1d95eb",
      "assetIds": []
    },
    {
      "x": 28,
      "y": 332,
      "size": 1,
      "price": "1011000000000000000000",
      "reserved": "",
      "salt": "0x5b7bd8c0b66f14e2a6fefa7ea0508ec3e6f9c6d5f749046fcc6eba263b356a16",
      "assetIds": []
    },
    {
      "x": 28,
      "y": 333,
      "size": 1,
      "price": "1011000000000000000000",
      "reserved": "",
      "salt": "0xe3f9aacc7c76200a33c726540b5b86b384487f97a6845746b97dea2f4249b416",
      "assetIds": []
    },
    {
      "x": 28,
      "y": 334,
      "size": 1,
      "price": "1011000000000000000000",
      "reserved": "",
      "salt": "0xb4c3b49286ce1747735662d8691849838090c55b6e9c1297321f60096a92eaf8",
      "assetIds": []
    },
    {
      "x": 28,
      "y": 335,
      "size": 1,
      "price": "1011000000000000000000",
      "reserved": "0x7a9fe22691c811ea339d9b73150e6911a5343dca",
      "salt": "0xb6a3b94175d0b690c48bcbba0a7808576f35476f8370dc02aba05d27cda97eb4",
      "assetIds": []
    },
    {
      "x": 28,
      "y": 342,
      "size": 1,
      "price": "1011000000000000000000",
      "reserved": "0x7a9fe22691c811ea339d9b73150e6911a5343dca",
      "salt": "0x1b3a1a96c2b341adada39c701f55535e378fcf10fbe9328b1a2ecb3f9c6f573c",
      "assetIds": []
    },
    {
      "x": 28,
      "y": 343,
      "size": 1,
      "price": "1011000000000000000000",
      "reserved": "",
      "salt": "0xac63d33e3ac7a844a044e143b4b9e50cb673db38c02bc2d273444cec2f9f6db9",
      "assetIds": []
    },
    {
      "x": 28,
      "y": 344,
      "size": 1,
      "price": "1011000000000000000000",
      "reserved": "",
      "salt": "0x9bcef9f70d8c2d36ad6b97a774c9567778616e41b16c89c760c9c7255e2a9aa3",
      "assetIds": []
    },
    {
      "x": 28,
      "y": 345,
      "size": 1,
      "price": "1011000000000000000000",
      "reserved": "",
      "salt": "0x6ddadd4ac679ff4510b5cf42996abeca899b0c4b9e87ea3caeecb714765340a8",
      "assetIds": []
    },
    {
      "x": 29,
      "y": 324,
      "size": 1,
      "price": "1011000000000000000000",
      "reserved": "0x7a9fe22691c811ea339d9b73150e6911a5343dca",
      "salt": "0xe229cf7b9ff5716464c2e489040a39e15a2393fd5a321e748926915234f43d10",
      "assetIds": []
    },
    {
      "x": 29,
      "y": 325,
      "size": 1,
      "price": "1011000000000000000000",
      "reserved": "",
      "salt": "0x07f8f5510d51f46b2b5aa04a7fed4fe587f9e19d3b3c3bd0e867cb273a5b2b31",
      "assetIds": []
    },
    {
      "x": 29,
      "y": 326,
      "size": 1,
      "price": "1011000000000000000000",
      "reserved": "0x7a9fe22691c811ea339d9b73150e6911a5343dca",
      "salt": "0x22ffda0766120968cbcda1204390fa5b7652d6dc4149e02c9bd2e4dc71a07cda",
      "assetIds": []
    },
    {
      "x": 29,
      "y": 327,
      "size": 1,
      "price": "1011000000000000000000",
      "reserved": "",
      "salt": "0xd28e8723204740f74b99b41f47f9f38ecaabf6f788bbf89ce5b57c2bd32f05e8",
      "assetIds": []
    },
    {
      "x": 29,
      "y": 328,
      "size": 1,
      "price": "1011000000000000000000",
      "reserved": "",
      "salt": "0xa9973b560688814c95b75d88fac433a56b1e24eb24f0685faeba57e4255e1a5d",
      "assetIds": []
    },
    {
      "x": 29,
      "y": 329,
      "size": 1,
      "price": "1011000000000000000000",
      "reserved": "",
      "salt": "0xa209fd3ddb711d21dfeea5634ec659d47c1fdf15f3fcaf404b8cc90758a49430",
      "assetIds": []
    },
    {
      "x": 29,
      "y": 330,
      "size": 1,
      "price": "1011000000000000000000",
      "reserved": "0x7a9fe22691c811ea339d9b73150e6911a5343dca",
      "salt": "0xb1d0e9a9118f937193d45060a759bf4158bd4a19887ed2fab9b9b216418da839",
      "assetIds": []
    },
    {
      "x": 29,
      "y": 331,
      "size": 1,
      "price": "1011000000000000000000",
      "reserved": "",
      "salt": "0x8e03f37f25bfad4e961ad062010e1668a2a49f6f1a35947384f1ae1dd98a95e9",
      "assetIds": []
    },
    {
      "x": 29,
      "y": 332,
      "size": 1,
      "price": "1011000000000000000000",
      "reserved": "",
      "salt": "0x67938042fd294e1dcd307514b59f254164547b8bdd452ffbe7081454ab4cb207",
      "assetIds": []
    },
    {
      "x": 29,
      "y": 333,
      "size": 1,
      "price": "1011000000000000000000",
      "reserved": "0x7a9fe22691c811ea339d9b73150e6911a5343dca",
      "salt": "0x1f6b5f659117641e7516e3ec0194c51de2abf89ef23712939891e188b6b14eab",
      "assetIds": []
    },
    {
      "x": 29,
      "y": 334,
      "size": 1,
      "price": "1011000000000000000000",
      "reserved": "",
      "salt": "0xd1baf0227ace49f718ab91bd92f4c1035124a57784d158012e5bcff90524d67f",
      "assetIds": []
    },
    {
      "x": 29,
      "y": 335,
      "size": 1,
      "price": "1011000000000000000000",
      "reserved": "",
      "salt": "0x96a437f2ea41c11e77891148a13507ae36f1b9528eba86d5dc1c3851fbe7119b",
      "assetIds": []
    },
    {
      "x": 29,
      "y": 342,
      "size": 1,
      "price": "1011000000000000000000",
      "reserved": "0x7a9fe22691c811ea339d9b73150e6911a5343dca",
      "salt": "0x4cf5015162813d0c42235c59574f67003cd1ceecebff0e8759a53b4e7312f6a7",
      "assetIds": []
    },
    {
      "x": 29,
      "y": 343,
      "size": 1,
      "price": "1011000000000000000000",
      "reserved": "",
      "salt": "0x1475ef423cddb98a5415b8d4ab6bdf311d5bcbd1ab5005892cbb204a9d2929a7",
      "assetIds": []
    },
    {
      "x": 29,
      "y": 344,
      "size": 1,
      "price": "1011000000000000000000",
      "reserved": "",
      "salt": "0xb48b83af847d5988d60375bc57d2512d1e10956f58f84aebeeb7bb21c8b00796",
      "assetIds": []
    },
    {
      "x": 29,
      "y": 345,
      "size": 1,
      "price": "1011000000000000000000",
      "reserved": "0x7a9fe22691c811ea339d9b73150e6911a5343dca",
      "salt": "0x291a328a629aced6ba23f9af528fcc3298b6d4fd0615a2d37bd044a37c46dd2b",
      "assetIds": []
    },
    {
      "x": 30,
      "y": 324,
      "size": 1,
      "price": "1011000000000000000000",
      "reserved": "",
      "salt": "0x529575adcf3f3e688187bf266ab5d31fd44d1003261d0d4569798b99ff6e305b",
      "assetIds": []
    },
    {
      "x": 30,
      "y": 325,
      "size": 1,
      "price": "1011000000000000000000",
      "reserved": "",
      "salt": "0xdca6db0bde6425887decb9884ac8e156182944bc5e40edcec4fb9bdf24f88188",
      "assetIds": []
    },
    {
      "x": 30,
      "y": 326,
      "size": 1,
      "price": "1011000000000000000000",
      "reserved": "",
      "salt": "0x173d604f62d9b5619a37433ca9aa1597ac2969e3c3f5a2e396a41f13416571e4",
      "assetIds": []
    },
    {
      "x": 30,
      "y": 327,
      "size": 1,
      "price": "1011000000000000000000",
      "reserved": "",
      "salt": "0xe7d6828b6e5e0fbb7a8a0fb3129a3a6c005ec2af699745226a8331065ca81810",
      "assetIds": []
    },
    {
      "x": 30,
      "y": 328,
      "size": 1,
      "price": "1011000000000000000000",
      "reserved": "0x7a9fe22691c811ea339d9b73150e6911a5343dca",
      "salt": "0x11e585385ba28b0a95ad13c32bf850249cbcf55f82ede7e9035d6022ab4cdf8c",
      "assetIds": []
    },
    {
      "x": 30,
      "y": 329,
      "size": 1,
      "price": "1011000000000000000000",
      "reserved": "",
      "salt": "0x7312c8dd41134d0672cb5856713e565520f373213e87b34346946b62612460dc",
      "assetIds": []
    },
    {
      "x": 30,
      "y": 342,
      "size": 1,
      "price": "1011000000000000000000",
      "reserved": "",
      "salt": "0x0c47d5b5c20a6cb305875895e4d738508ed36517e9b74bdc13b723ccb02aec59",
      "assetIds": []
    },
    {
      "x": 30,
      "y": 343,
      "size": 1,
      "price": "1011000000000000000000",
      "reserved": "0x7a9fe22691c811ea339d9b73150e6911a5343dca",
      "salt": "0x92258d2bb6de9d2cafdd7933bbe4e10d849c4ddba0241de3118549c70c1e8230",
      "assetIds": []
    },
    {
      "x": 30,
      "y": 344,
      "size": 1,
      "price": "1011000000000000000000",
      "reserved": "",
      "salt": "0xb94686c4fbba1913f46c0e26fa1f91c523f625bb1d002dd6c9b4ba936ddad776",
      "assetIds": []
    },
    {
      "x": 30,
      "y": 345,
      "size": 1,
      "price": "1011000000000000000000",
      "reserved": "",
      "salt": "0x3de9d465ab0ccdc68f1bcc2753b74942e663b19f7e3f3feecb83c15976278223",
      "assetIds": []
    },
    {
      "x": 31,
      "y": 324,
      "size": 1,
      "price": "1011000000000000000000",
      "reserved": "",
      "salt": "0x59b87225be33404fd5264a88e5c99f23e5f49830b6274578a8433eae7062e8ca",
      "assetIds": []
    },
    {
      "x": 31,
      "y": 325,
      "size": 1,
      "price": "1011000000000000000000",
      "reserved": "0x7a9fe22691c811ea339d9b73150e6911a5343dca",
      "salt": "0xfe245b8a0f4e3e0b06b2a161147804dc0bd6467676aa64441c70099a97e0603d",
      "assetIds": []
    },
    {
      "x": 31,
      "y": 326,
      "size": 1,
      "price": "1011000000000000000000",
      "reserved": "0x7a9fe22691c811ea339d9b73150e6911a5343dca",
      "salt": "0xff59162a032b9dd40401d7632cebf01802576e911fe2fee6a5bbf295185000e5",
      "assetIds": []
    },
    {
      "x": 31,
      "y": 327,
      "size": 1,
      "price": "1011000000000000000000",
      "reserved": "",
      "salt": "0x9257e1ab2f5b5b51d09ae7edbf9e366c8a9d5ea85478abb4086577e840219e4f",
      "assetIds": []
    },
    {
      "x": 31,
      "y": 328,
      "size": 1,
      "price": "1011000000000000000000",
      "reserved": "0x7a9fe22691c811ea339d9b73150e6911a5343dca",
      "salt": "0x81db6ec433dcb23f54ab25a8b658c5c0224ff8fcc69d17537a3b95a1dc1684a9",
      "assetIds": []
    },
    {
      "x": 31,
      "y": 329,
      "size": 1,
      "price": "1011000000000000000000",
      "reserved": "",
      "salt": "0xa099ac75562399f951c071a25886c6ff8a8f6deea9b4e0ad5551638e75f25e8a",
      "assetIds": []
    },
    {
      "x": 31,
      "y": 342,
      "size": 1,
      "price": "1011000000000000000000",
      "reserved": "",
      "salt": "0x7e1b8b02675dc51c86a07404ece285de57fbbe4d3ca145563e00b325711a1b4c",
      "assetIds": []
    },
    {
      "x": 31,
      "y": 343,
      "size": 1,
      "price": "1011000000000000000000",
      "reserved": "0x7a9fe22691c811ea339d9b73150e6911a5343dca",
      "salt": "0xea0100cc40d69dfa41edd0efa109180a1fa7d217e5c94b35e1b72b84fc50ef53",
      "assetIds": []
    },
    {
      "x": 31,
      "y": 344,
      "size": 1,
      "price": "1011000000000000000000",
      "reserved": "",
      "salt": "0x5e12db982abaa94f52172bdca9534a4db20eaeda9142a1b36c824c8418a1ce11",
      "assetIds": []
    },
    {
      "x": 31,
      "y": 345,
      "size": 1,
      "price": "1011000000000000000000",
      "reserved": "",
      "salt": "0x3db8e366889ee78b1313788b32b80447dbad67b9f902ca3d336c4370e5963238",
      "assetIds": []
    },
    {
      "x": 32,
      "y": 324,
      "size": 1,
      "price": "1011000000000000000000",
      "reserved": "",
      "salt": "0x79d2012870a0ea596921e94c899421f2c54634a0f0807867a6cf5b1d8e0d989a",
      "assetIds": []
    },
    {
      "x": 32,
      "y": 325,
      "size": 1,
      "price": "1011000000000000000000",
      "reserved": "",
      "salt": "0x86851a8fad8f00fc25b97f62bdfe4ccb529f4671e8109b3def65a6886814d4d4",
      "assetIds": []
    },
    {
      "x": 32,
      "y": 326,
      "size": 1,
      "price": "1011000000000000000000",
      "reserved": "",
      "salt": "0x193837d4f34dd836025ad76ccf19a73ca1a9d245bbdb8cc790aecaf21c470865",
      "assetIds": []
    },
    {
      "x": 32,
      "y": 327,
      "size": 1,
      "price": "1011000000000000000000",
      "reserved": "",
      "salt": "0x96416e7e179bc7cc46c3cdbc3593e19a82aa571f5f3f87b359d3533cbdd63d9c",
      "assetIds": []
    },
    {
      "x": 32,
      "y": 328,
      "size": 1,
      "price": "1011000000000000000000",
      "reserved": "",
      "salt": "0x7f1708c86ef85e20b5d5408f9f683ad997ae2a5a4d88830e3ab9cffaeb4bf7eb",
      "assetIds": []
    },
    {
      "x": 32,
      "y": 329,
      "size": 1,
      "price": "1011000000000000000000",
      "reserved": "",
      "salt": "0x647e1100fa2dd229eb61a260e3a234ff69e167373bbe37e99c51b30ff49febe1",
      "assetIds": []
    },
    {
      "x": 32,
      "y": 342,
      "size": 1,
      "price": "1011000000000000000000",
      "reserved": "",
      "salt": "0xa8a21424f74be69f284ad5a0eda4b2c4c9ea9eb7d723ed25be68b3340f5e32bf",
      "assetIds": []
    },
    {
      "x": 32,
      "y": 343,
      "size": 1,
      "price": "1011000000000000000000",
      "reserved": "",
      "salt": "0x3834a6d0a1c87b80b5fdbc03552388f1f533100fd06d11bdd26ac10e73cf538f",
      "assetIds": []
    },
    {
      "x": 32,
      "y": 344,
      "size": 1,
      "price": "1011000000000000000000",
      "reserved": "",
      "salt": "0xb0781cc17c15bb3d9cff97c4186f6530dc1785594e0db018c66fb5f3512f3399",
      "assetIds": []
    },
    {
      "x": 32,
      "y": 345,
      "size": 1,
      "price": "1011000000000000000000",
      "reserved": "0x7a9fe22691c811ea339d9b73150e6911a5343dca",
      "salt": "0x5378b6df61a7addfdb759e3597b7018040e5d46c7dfaba47c7df9bcc5a509d49",
      "assetIds": []
    },
    {
      "x": 33,
      "y": 324,
      "size": 1,
      "price": "1011000000000000000000",
      "reserved": "",
      "salt": "0xedaf8e9252fe27dc718bb0ebe2e5990068a1ed2c3ea944fa6ca68392ca1a8b6f",
      "assetIds": []
    },
    {
      "x": 33,
      "y": 325,
      "size": 1,
      "price": "1011000000000000000000",
      "reserved": "",
      "salt": "0x60010ffc9f6a9958fb38aa34dcac26e833bae64e35d232e2a2001ebd43167965",
      "assetIds": []
    },
    {
      "x": 33,
      "y": 326,
      "size": 1,
      "price": "1011000000000000000000",
      "reserved": "",
      "salt": "0x26ff9f57567f0c06210f3d512f4756bd8f65c66193158014131a9d3471781055",
      "assetIds": []
    },
    {
      "x": 33,
      "y": 327,
      "size": 1,
      "price": "1011000000000000000000",
      "reserved": "",
      "salt": "0x2bf60d021f44cccdb7c2237e9e73e0fe0c7f6df4258c6b9591a217da15115126",
      "assetIds": []
    },
    {
      "x": 33,
      "y": 328,
      "size": 1,
      "price": "1011000000000000000000",
      "reserved": "",
      "salt": "0xe597ac9edf78ae5b07507f51580d4f3eb5f81c0eb7e67fbe35a184893b22b417",
      "assetIds": []
    },
    {
      "x": 33,
      "y": 329,
      "size": 1,
      "price": "1011000000000000000000",
      "reserved": "",
      "salt": "0x649c94b5345d7d87133a9f44eb5dadbf49885677f4459342cb0803b53de192e1",
      "assetIds": []
    },
    {
      "x": 33,
      "y": 342,
      "size": 1,
      "price": "1011000000000000000000",
      "reserved": "",
      "salt": "0xac0abbb5f76f863057650a777de131a1efa9edfb1708a371da61958c739c14b7",
      "assetIds": []
    },
    {
      "x": 33,
      "y": 343,
      "size": 1,
      "price": "1011000000000000000000",
      "reserved": "",
      "salt": "0x2ac59f1dbac4f0adc97f10b9170621eb5f877bb6d170b59abd2a6b601fab274d",
      "assetIds": []
    },
    {
      "x": 33,
      "y": 344,
      "size": 1,
      "price": "1011000000000000000000",
      "reserved": "",
      "salt": "0x1cf7e245aceb73b637fcd3eab7621d635110d9d4011c3713343c4b3f14668804",
      "assetIds": []
    },
    {
      "x": 33,
      "y": 345,
      "size": 1,
      "price": "1011000000000000000000",
      "reserved": "",
      "salt": "0x91d633b168a8102f8fad5c6addf4d33655e230d2f6701a39cdbfe44cfd8cc34c",
      "assetIds": []
    },
    {
      "x": 34,
      "y": 324,
      "size": 1,
      "price": "1011000000000000000000",
      "reserved": "",
      "salt": "0x9cfc4feb81f31f0723d6e1852934b1b840ee35d3845e21d8d24ddcb43ffce790",
      "assetIds": []
    },
    {
      "x": 34,
      "y": 325,
      "size": 1,
      "price": "1011000000000000000000",
      "reserved": "0x7a9fe22691c811ea339d9b73150e6911a5343dca",
      "salt": "0xfef0a002b556d51a5d8ce3b939207b3c1492632c9b11fadd9d968171200fe043",
      "assetIds": []
    },
    {
      "x": 34,
      "y": 326,
      "size": 1,
      "price": "1011000000000000000000",
      "reserved": "0x7a9fe22691c811ea339d9b73150e6911a5343dca",
      "salt": "0x13b730f034b19c9c4f49c4093c9261d5da26034666af45015f07f74c0d6cc0ed",
      "assetIds": []
    },
    {
      "x": 34,
      "y": 327,
      "size": 1,
      "price": "1011000000000000000000",
      "reserved": "",
      "salt": "0x24dfd6cce3558d40c6f5855c1fe43564d7fb711405f3655470b05d711f8cdce8",
      "assetIds": []
    },
    {
      "x": 34,
      "y": 328,
      "size": 1,
      "price": "1011000000000000000000",
      "reserved": "",
      "salt": "0x68f8adcce95d8ec2d38f80dc05830e969a4d6ca22d55234b50f5111f092b4d29",
      "assetIds": []
    },
    {
      "x": 34,
      "y": 329,
      "size": 1,
      "price": "1011000000000000000000",
      "reserved": "0x7a9fe22691c811ea339d9b73150e6911a5343dca",
      "salt": "0xc08d5a3349accc32bd6f9b7d506c0f90dc117ef4a0584dca64b119f63e0bcfc0",
      "assetIds": []
    },
    {
      "x": 34,
      "y": 342,
      "size": 1,
      "price": "1011000000000000000000",
      "reserved": "0x7a9fe22691c811ea339d9b73150e6911a5343dca",
      "salt": "0x2d2143168928172b6ba67c05de981f944a67d19ff36fbb09cd3a4cc287861b41",
      "assetIds": []
    },
    {
      "x": 34,
      "y": 343,
      "size": 1,
      "price": "1011000000000000000000",
      "reserved": "",
      "salt": "0xa826f1e432822a6434203947a6dbf12f3301928a6d3b9b2dd65ec483bea09185",
      "assetIds": []
    },
    {
      "x": 34,
      "y": 344,
      "size": 1,
      "price": "1011000000000000000000",
      "reserved": "",
      "salt": "0x7b9bfcc5755b8819df0ad3684530e47cbb74f266b8433bda2a0a9c37d495ba0f",
      "assetIds": []
    },
    {
      "x": 34,
      "y": 345,
      "size": 1,
      "price": "1011000000000000000000",
      "reserved": "",
      "salt": "0x92d2596a7888a5e4bbc201a2ddc1d631ed2dd9e571cce12c96e70a256eb923e0",
      "assetIds": []
    },
    {
      "x": 35,
      "y": 324,
      "size": 1,
      "price": "1011000000000000000000",
      "reserved": "",
      "salt": "0x1aad6c773434ff8e5bbb725763c15555277d99f43b7a9b2241440931f9fc21b6",
      "assetIds": []
    },
    {
      "x": 35,
      "y": 325,
      "size": 1,
      "price": "1011000000000000000000",
      "reserved": "",
      "salt": "0x981848801d45a4142430a5fcfc6ab61cc13a6aca1b00b3aeb294b9a06e2ec694",
      "assetIds": []
    },
    {
      "x": 35,
      "y": 326,
      "size": 1,
      "price": "1011000000000000000000",
      "reserved": "",
      "salt": "0x2b7b8560664ae7374e060ea3f1d36e70d16842862b5aa49702419e0f29302887",
      "assetIds": []
    },
    {
      "x": 35,
      "y": 327,
      "size": 1,
      "price": "1011000000000000000000",
      "reserved": "",
      "salt": "0x24ead685cbb2ae842bcc305b7ca91d61ae42c7516e9990d115047ac3705c8fb3",
      "assetIds": []
    },
    {
      "x": 35,
      "y": 328,
      "size": 1,
      "price": "1011000000000000000000",
      "reserved": "",
      "salt": "0xb3ef39119bfc517f782f8a687e42d1e5694348c968363b060ce64e44ab3d045e",
      "assetIds": []
    },
    {
      "x": 35,
      "y": 329,
      "size": 1,
      "price": "1011000000000000000000",
      "reserved": "",
      "salt": "0x18b409604bd2924ccc3f12bcf21a89c2a02223e33e1717a66197d22be81697c2",
      "assetIds": []
    },
    {
      "x": 35,
      "y": 342,
      "size": 1,
      "price": "1011000000000000000000",
      "reserved": "",
      "salt": "0x18608f870df00564c33c1f63934c4f8975e5263a14b6d77d811a14c4138c0c54",
      "assetIds": []
    },
    {
      "x": 35,
      "y": 343,
      "size": 1,
      "price": "1011000000000000000000",
      "reserved": "0x7a9fe22691c811ea339d9b73150e6911a5343dca",
      "salt": "0x28690851693abd7bf55d1d669c126d0249c7b1b0b50dea5b112e01b4e20f741d",
      "assetIds": []
    },
    {
      "x": 35,
      "y": 344,
      "size": 1,
      "price": "1011000000000000000000",
      "reserved": "",
      "salt": "0xc2e7f9547d38045db2bd9603ae09ad691b82cc7f98e216bac2b39ff870d64b11",
      "assetIds": []
    },
    {
      "x": 35,
      "y": 345,
      "size": 1,
      "price": "1011000000000000000000",
      "reserved": "",
      "salt": "0x93c606fc3ccaf6dcc3ff9e181d5043e6de234aae37d2f21d37fcf139c3b0d05a",
      "assetIds": []
    },
    {
      "x": 36,
      "y": 324,
      "size": 1,
      "price": "1011000000000000000000",
      "reserved": "",
      "salt": "0xc44546ff43eefe79f5d1f859d9063f5e7cd586acfc41e5d3b329345f1248c26f",
      "assetIds": []
    },
    {
      "x": 36,
      "y": 325,
      "size": 1,
      "price": "1011000000000000000000",
      "reserved": "",
      "salt": "0x1eabd38da30c0da42dd68f9ea4494327551019591dcf3b7fcab013da70b56a9d",
      "assetIds": []
    },
    {
      "x": 36,
      "y": 326,
      "size": 1,
      "price": "1011000000000000000000",
      "reserved": "",
      "salt": "0xdff2187d99e9a44b3fd395b48451353fb011aa03daec6940c5e49fd02dbf680a",
      "assetIds": []
    },
    {
      "x": 36,
      "y": 327,
      "size": 1,
      "price": "1011000000000000000000",
      "reserved": "",
      "salt": "0x37dfcd28c774678b67eb9c80ef5767f0efa91ef7f36d1b3aafb154e94b2647dc",
      "assetIds": []
    },
    {
      "x": 36,
      "y": 328,
      "size": 1,
      "price": "1011000000000000000000",
      "reserved": "0x7a9fe22691c811ea339d9b73150e6911a5343dca",
      "salt": "0x8afb00b2aab8734ef8d8078eb15d3fee7ce1bd049e0ccbbdc6993e13cc83326a",
      "assetIds": []
    },
    {
      "x": 36,
      "y": 329,
      "size": 1,
      "price": "1011000000000000000000",
      "reserved": "",
      "salt": "0x6796ecbd1659ca2ab8a1684245d8b4e0a36ffca0437c458f8071931e56298a64",
      "assetIds": []
    },
    {
      "x": 36,
      "y": 333,
      "size": 1,
      "price": "1011000000000000000000",
      "reserved": "",
      "salt": "0x031dd506d112f718b5dcc6a913711729f52e56f76fd6a38b06f7983ba5320606",
      "assetIds": []
    },
    {
      "x": 36,
      "y": 334,
      "size": 1,
      "price": "1011000000000000000000",
      "reserved": "",
      "salt": "0x3d20c354965bc9a74db0024e8002ad9b4de10415c593d7cfb2b781cb13c7f530",
      "assetIds": []
    },
    {
      "x": 36,
      "y": 335,
      "size": 1,
      "price": "1011000000000000000000",
      "reserved": "",
      "salt": "0xafde3d9e3f1d1e3dadf9585ef9837da66e7ee4dd5c299987d85b4ad86424b263",
      "assetIds": []
    },
    {
      "x": 36,
      "y": 336,
      "size": 1,
      "price": "1011000000000000000000",
      "reserved": "",
      "salt": "0xfc87c8de1400797235f904a7a2882c1819c5b384bc643f9c977054be9c41df5b",
      "assetIds": []
    },
    {
      "x": 36,
      "y": 337,
      "size": 1,
      "price": "1011000000000000000000",
      "reserved": "0x7a9fe22691c811ea339d9b73150e6911a5343dca",
      "salt": "0x65b00ff530ecceeff932bd413e6e41468e7fc49f27ef3c6416118560c1748c50",
      "assetIds": []
    },
    {
      "x": 36,
      "y": 338,
      "size": 1,
      "price": "1011000000000000000000",
      "reserved": "",
      "salt": "0xd9b954e4cb9d9950754fbabe77dff3c319cc10141b4eea281f4b51a1abfc62be",
      "assetIds": []
    },
    {
      "x": 36,
      "y": 339,
      "size": 1,
      "price": "1011000000000000000000",
      "reserved": "",
      "salt": "0x351f25efaaff503e8137830fb61340b387517ab7892d33bed8aac68282ce747e",
      "assetIds": []
    },
    {
      "x": 36,
      "y": 340,
      "size": 1,
      "price": "1011000000000000000000",
      "reserved": "",
      "salt": "0x10d97346d6741944a1cf464cea7268ccd6e5ec3278beac2fa7ff52bddf5feed4",
      "assetIds": []
    },
    {
      "x": 36,
      "y": 341,
      "size": 1,
      "price": "1011000000000000000000",
      "reserved": "0x7a9fe22691c811ea339d9b73150e6911a5343dca",
      "salt": "0xa27cd0a58c8b4d0a2d1b4062f1e8ee2043702c6ccb5592672fd486c58015efdb",
      "assetIds": []
    },
    {
      "x": 36,
      "y": 342,
      "size": 1,
      "price": "1011000000000000000000",
      "reserved": "",
      "salt": "0xbf5983d4920086e0136b98e0c59bb8f48007cec4ea36f1c66ecfff12781f9281",
      "assetIds": []
    },
    {
      "x": 36,
      "y": 343,
      "size": 1,
      "price": "1011000000000000000000",
      "reserved": "0x7a9fe22691c811ea339d9b73150e6911a5343dca",
      "salt": "0x590b1e3b0e986a6c7c4816bad590207b8003fe4dd1bdd1dd011b73fbab93d52d",
      "assetIds": []
    },
    {
      "x": 36,
      "y": 344,
      "size": 1,
      "price": "1011000000000000000000",
      "reserved": "",
      "salt": "0xda8fdef9336edb609358c4ecd56259a48374e934c68118fbfeb5e1446a84e12c",
      "assetIds": []
    },
    {
      "x": 36,
      "y": 345,
      "size": 1,
      "price": "1011000000000000000000",
      "reserved": "0x7a9fe22691c811ea339d9b73150e6911a5343dca",
      "salt": "0x407e6073b05c6187eea460dfc1b766d3e75923b351230b568c56a7ef0867d6e1",
      "assetIds": []
    },
    {
      "x": 37,
      "y": 324,
      "size": 1,
      "price": "1011000000000000000000",
      "reserved": "",
      "salt": "0x53bb654bab44a9679a18b65d25d8056503cf4983aaa8097da4fbb2c409aeff68",
      "assetIds": []
    },
    {
      "x": 37,
      "y": 325,
      "size": 1,
      "price": "1011000000000000000000",
      "reserved": "",
      "salt": "0xae9f8445aa1c6d3b8354315db72d52d0ef6efadaebcf255ba071a669a2112d0e",
      "assetIds": []
    },
    {
      "x": 37,
      "y": 326,
      "size": 1,
      "price": "1011000000000000000000",
      "reserved": "",
      "salt": "0xf9c1dce47f667de903c8e1bc32d28a5dbbaaeaf1a6b49dd57d8b0c020b3eda74",
      "assetIds": []
    },
    {
      "x": 37,
      "y": 327,
      "size": 1,
      "price": "1011000000000000000000",
      "reserved": "0x7a9fe22691c811ea339d9b73150e6911a5343dca",
      "salt": "0xa9de11a6fe7db4cbfff95e9918961ec5eafeef3ab41be3dad3d2c9a3b1ae2607",
      "assetIds": []
    },
    {
      "x": 37,
      "y": 328,
      "size": 1,
      "price": "1011000000000000000000",
      "reserved": "",
      "salt": "0x4c006216c91b65dedd9afe995b8689144aace1e0af2722e3f3d40da9574e5c5e",
      "assetIds": []
    },
    {
      "x": 37,
      "y": 329,
      "size": 1,
      "price": "1011000000000000000000",
      "reserved": "",
      "salt": "0x902758777e11925aaf16697aa26228d937d803aa4ce23dea7ffa9f9db6d1a343",
      "assetIds": []
    },
    {
      "x": 37,
      "y": 333,
      "size": 1,
      "price": "1011000000000000000000",
      "reserved": "",
      "salt": "0x03cb03252fb449556795f94fb3ba11b71b900bf82693cd0777ace131769ae1c9",
      "assetIds": []
    },
    {
      "x": 37,
      "y": 334,
      "size": 1,
      "price": "1011000000000000000000",
      "reserved": "0x7a9fe22691c811ea339d9b73150e6911a5343dca",
      "salt": "0xc3f196a0cdd0888aee12b936f31153798d0c1a5b037c225dad6fb2f0096c5266",
      "assetIds": []
    },
    {
      "x": 37,
      "y": 335,
      "size": 1,
      "price": "1011000000000000000000",
      "reserved": "",
      "salt": "0xd97c8603f80e483e64c149caee4834a310f933dc00f5d920dc81bed966fbdd63",
      "assetIds": []
    },
    {
      "x": 37,
      "y": 336,
      "size": 1,
      "price": "1011000000000000000000",
      "reserved": "",
      "salt": "0x920c5d27c2abed2e4b327a0d0a04d4f5f6ffbc261bc3c3dc239d60c25edf8c53",
      "assetIds": []
    },
    {
      "x": 37,
      "y": 337,
      "size": 1,
      "price": "1011000000000000000000",
      "reserved": "",
      "salt": "0xf9ab90e232217f5498b1088f77028f64d68a8a6cb7caa7e773ed6798d507d6b8",
      "assetIds": []
    },
    {
      "x": 37,
      "y": 338,
      "size": 1,
      "price": "1011000000000000000000",
      "reserved": "",
      "salt": "0xae6a7f6703687f00ef3d558f123a2d33429bb2b7a34eb4ea0c28eaa41d02790c",
      "assetIds": []
    },
    {
      "x": 37,
      "y": 339,
      "size": 1,
      "price": "1011000000000000000000",
      "reserved": "",
      "salt": "0x4bcd0bb240b496170112979b3f456ea5a99bef2d66c262e4d823f66792992f89",
      "assetIds": []
    },
    {
      "x": 37,
      "y": 340,
      "size": 1,
      "price": "1011000000000000000000",
      "reserved": "",
      "salt": "0x00fc1a39c51f1c268f26c6e04b4c2cfdeaf0d91f696f0eadb653fab8a5815895",
      "assetIds": []
    },
    {
      "x": 37,
      "y": 341,
      "size": 1,
      "price": "1011000000000000000000",
      "reserved": "",
      "salt": "0x193c911d2076bab3e9431e3a4e849abcde0708196a2520490b1beae9983bfc98",
      "assetIds": []
    },
    {
      "x": 37,
      "y": 342,
      "size": 1,
      "price": "1011000000000000000000",
      "reserved": "",
      "salt": "0x10088426595d7c9c07bf55c35d9ac01383b430d8a5deab536be3f1b01afbd263",
      "assetIds": []
    },
    {
      "x": 37,
      "y": 343,
      "size": 1,
      "price": "1011000000000000000000",
      "reserved": "0x7a9fe22691c811ea339d9b73150e6911a5343dca",
      "salt": "0xaef4b85cf90c1ed0d97f0f996251a5d66b5d2d59bdc8a255f704ed303a4c556b",
      "assetIds": []
    },
    {
      "x": 37,
      "y": 344,
      "size": 1,
      "price": "1011000000000000000000",
      "reserved": "",
      "salt": "0xe042ae451e1dacb6321c19e50d3e62ec130dbb00b26b97c7b447559ff22944cd",
      "assetIds": []
    },
    {
      "x": 37,
      "y": 345,
      "size": 1,
      "price": "1011000000000000000000",
      "reserved": "",
      "salt": "0x67bbcb782f3ae385f55092f3c33a9a393864a7d7587064d1203000a207cf8dc2",
      "assetIds": []
    },
    {
      "x": 38,
      "y": 324,
      "size": 1,
      "price": "1011000000000000000000",
      "reserved": "0x7a9fe22691c811ea339d9b73150e6911a5343dca",
      "salt": "0x0f404bcb553c9630394e5b35d582d7e3fcf33bae0982378a2613772bf61e6a4e",
      "assetIds": []
    },
    {
      "x": 38,
      "y": 325,
      "size": 1,
      "price": "1011000000000000000000",
      "reserved": "",
      "salt": "0x3afec59bab4db154905abcc91f6844aa258edac14bd069b74a359a3d6ccc85f1",
      "assetIds": []
    },
    {
      "x": 38,
      "y": 326,
      "size": 1,
      "price": "1011000000000000000000",
      "reserved": "",
      "salt": "0xcd0e4958ab5b4db638e5bb6ffe35640a640ca6dc9c404c67e7316eb0b3cb72dd",
      "assetIds": []
    },
    {
      "x": 38,
      "y": 327,
      "size": 1,
      "price": "1011000000000000000000",
      "reserved": "",
      "salt": "0x01a2c87d66cca17dbace9a72133291f821045a8da36ba90a3b6d517be4fd4591",
      "assetIds": []
    },
    {
      "x": 38,
      "y": 328,
      "size": 1,
      "price": "1011000000000000000000",
      "reserved": "0x7a9fe22691c811ea339d9b73150e6911a5343dca",
      "salt": "0x37b9011ac9bd625a640d43123c90ea42a03890e95ed03695865f370e14f729d8",
      "assetIds": []
    },
    {
      "x": 38,
      "y": 329,
      "size": 1,
      "price": "1011000000000000000000",
      "reserved": "",
      "salt": "0x59b34a1ae75a35d34e0697851ba39396471c38b4b8395d15e34f4043b996ca49",
      "assetIds": []
    },
    {
      "x": 38,
      "y": 333,
      "size": 1,
      "price": "1011000000000000000000",
      "reserved": "",
      "salt": "0xa76e629ca55224c415416073d3b9b3cba8471d8da5f329afdb9dd10642992484",
      "assetIds": []
    },
    {
      "x": 38,
      "y": 334,
      "size": 1,
      "price": "1011000000000000000000",
      "reserved": "",
      "salt": "0x448d426ee53ac504b76d18eb8d59bf622aff270c28fae14ee8067094fc5e51dc",
      "assetIds": []
    },
    {
      "x": 38,
      "y": 335,
      "size": 1,
      "price": "1011000000000000000000",
      "reserved": "",
      "salt": "0xbee0ea59d80d9eb0b6722d1cf0b21f0627b024a4e5c5041d8bfcf82b68bda2fd",
      "assetIds": []
    },
    {
      "x": 38,
      "y": 336,
      "size": 1,
      "price": "1011000000000000000000",
      "reserved": "",
      "salt": "0xc0ed997326b24e8b96e02c21a507673a2a84d1753e750e41f5fb014f14ef99f6",
      "assetIds": []
    },
    {
      "x": 38,
      "y": 337,
      "size": 1,
      "price": "1011000000000000000000",
      "reserved": "",
      "salt": "0xe7a440944924dcbb2d928ab3eccd107e441d33f568cb975817e5fe9f88fd00a3",
      "assetIds": []
    },
    {
      "x": 38,
      "y": 338,
      "size": 1,
      "price": "1011000000000000000000",
      "reserved": "",
      "salt": "0x8c8049248f29596486aeea7e9b01162885d1af591b147679f31bc0577ad25fa0",
      "assetIds": []
    },
    {
      "x": 38,
      "y": 339,
      "size": 1,
      "price": "1011000000000000000000",
      "reserved": "0x7a9fe22691c811ea339d9b73150e6911a5343dca",
      "salt": "0xbaddf2827014a9a08725d426ae05256ce39d0de903209a0dd959af3735a8f8ab",
      "assetIds": []
    },
    {
      "x": 38,
      "y": 340,
      "size": 1,
      "price": "1011000000000000000000",
      "reserved": "",
      "salt": "0xca0784d8b6bfaf0b7ffe69f9fdc9f2a2d25d68c9b6ce15e358a4d17870b21384",
      "assetIds": []
    },
    {
      "x": 38,
      "y": 341,
      "size": 1,
      "price": "1011000000000000000000",
      "reserved": "",
      "salt": "0x4f5363a7b51439f77abd6b651008c9f3c1c198ac308a5d0952f7bafa2072e442",
      "assetIds": []
    },
    {
      "x": 38,
      "y": 342,
      "size": 1,
      "price": "1011000000000000000000",
      "reserved": "",
      "salt": "0xbcdecb757b11126d3fa1ff6018b0a3cf0d736461990a0877a3e0e2b794dae9a2",
      "assetIds": []
    },
    {
      "x": 38,
      "y": 343,
      "size": 1,
      "price": "1011000000000000000000",
      "reserved": "",
      "salt": "0x4909dcc5e73edf994121fd6b76b7e2308cace4a9945c93445d01477ab64e4e5e",
      "assetIds": []
    },
    {
      "x": 38,
      "y": 344,
      "size": 1,
      "price": "1011000000000000000000",
      "reserved": "",
      "salt": "0x44cb49c359a53540f36b1cd55efd7e516b5b9abc4bc034b175353c7886df614e",
      "assetIds": []
    },
    {
      "x": 38,
      "y": 345,
      "size": 1,
      "price": "1011000000000000000000",
      "reserved": "",
      "salt": "0x14a99b1071628ee6f3decdb307b0b90bf2e3d4c175de521ca9b20832e24772dc",
      "assetIds": []
    },
    {
      "x": 39,
      "y": 324,
      "size": 1,
      "price": "1011000000000000000000",
      "reserved": "0x7a9fe22691c811ea339d9b73150e6911a5343dca",
      "salt": "0x7b825213b67b2ef9978a1d5b2f750ef094d815de9901fa9d3a04d1a23d1f6229",
      "assetIds": []
    },
    {
      "x": 39,
      "y": 325,
      "size": 1,
      "price": "1011000000000000000000",
      "reserved": "",
      "salt": "0xbff35709fc83752795a748fe8cada92b78293bce2a67ed5b598c1dec422683d4",
      "assetIds": []
    },
    {
      "x": 39,
      "y": 326,
      "size": 1,
      "price": "1011000000000000000000",
      "reserved": "",
      "salt": "0x5e179631c8ae5b2789a50f4f4b15954f4f24db7aff749c6d0a866bc2ca4b27bf",
      "assetIds": []
    },
    {
      "x": 39,
      "y": 327,
      "size": 1,
      "price": "1011000000000000000000",
      "reserved": "",
      "salt": "0x790f199c1fa7eea720c6d6f1179077eb887a41b46b8cbed7252b95b8df49c5f0",
      "assetIds": []
    },
    {
      "x": 39,
      "y": 328,
      "size": 1,
      "price": "1011000000000000000000",
      "reserved": "",
      "salt": "0xd98003469d96e44d54c34e3826e07848c1d62ff0f4fa16b44ee3bd3f8fe4411c",
      "assetIds": []
    },
    {
      "x": 39,
      "y": 329,
      "size": 1,
      "price": "1011000000000000000000",
      "reserved": "",
      "salt": "0xdacddd4ff66dc8ea5111149a01fa9b4786830a8cb7d314bf83e1b945b3f9afb2",
      "assetIds": []
    },
    {
      "x": 39,
      "y": 330,
      "size": 1,
      "price": "1011000000000000000000",
      "reserved": "",
      "salt": "0x7e1e0056de732af46744a7bfd2249a9e878fe16f310d03ab2df7862847ad65cf",
      "assetIds": []
    },
    {
      "x": 39,
      "y": 331,
      "size": 1,
      "price": "1011000000000000000000",
      "reserved": "",
      "salt": "0xf7d8243262a228e3341a35bd6d4cffed000b1c8d2ab9559c837774970b6dd8de",
      "assetIds": []
    },
    {
      "x": 39,
      "y": 332,
      "size": 1,
      "price": "1011000000000000000000",
      "reserved": "",
      "salt": "0x60fa3f53e3aeb58a20a32183fbc8febd821b9a0382037981328d7bff2796f021",
      "assetIds": []
    },
    {
      "x": 39,
      "y": 333,
      "size": 1,
      "price": "1011000000000000000000",
      "reserved": "",
      "salt": "0x7bdc6e92831668cb097b7fbb0dc2166c6458365c6f8c73d2e4fb0a87653bec6d",
      "assetIds": []
    },
    {
      "x": 39,
      "y": 334,
      "size": 1,
      "price": "1011000000000000000000",
      "reserved": "",
      "salt": "0x2be750261ca9fcd694fa4d7b6749fe2a13ca310b316538d24a5963397140bbaa",
      "assetIds": []
    },
    {
      "x": 39,
      "y": 335,
      "size": 1,
      "price": "1011000000000000000000",
      "reserved": "0x7a9fe22691c811ea339d9b73150e6911a5343dca",
      "salt": "0x0af1365c574f0446426967aea6d04f5695130a49dc121e36865732eea178082f",
      "assetIds": []
    },
    {
      "x": 39,
      "y": 336,
      "size": 1,
      "price": "1011000000000000000000",
      "reserved": "",
      "salt": "0x08b513a8bf17bd20356cea399c8e75e67a7bd351681e1d410d6706eb5ed57d03",
      "assetIds": []
    },
    {
      "x": 39,
      "y": 337,
      "size": 1,
      "price": "1011000000000000000000",
      "reserved": "",
      "salt": "0x1be36cb9dd8fcb16fccece9b052c6f041e381acc8504befb362dcf0b079e4435",
      "assetIds": []
    },
    {
      "x": 39,
      "y": 338,
      "size": 1,
      "price": "1011000000000000000000",
      "reserved": "",
      "salt": "0x1cef29c8d4e09992fe4d45f745cdb5f8e621cd5c1e85648a5068aacce85616a2",
      "assetIds": []
    },
    {
      "x": 39,
      "y": 339,
      "size": 1,
      "price": "1011000000000000000000",
      "reserved": "",
      "salt": "0x4b9eab5ee6888cb722da3312ba427ea64a9c5add8a6720166def8b6317594c9c",
      "assetIds": []
    },
    {
      "x": 39,
      "y": 340,
      "size": 1,
      "price": "1011000000000000000000",
      "reserved": "",
      "salt": "0x70e099995da8e3b33c5ad7eeafe660a0770c4906bdfe32885b2992f9bbba082a",
      "assetIds": []
    },
    {
      "x": 39,
      "y": 341,
      "size": 1,
      "price": "1011000000000000000000",
      "reserved": "",
      "salt": "0x514391bd636f1ccbdbe851a46131a39193453cf0b779185fce0588cc5214e45c",
      "assetIds": []
    },
    {
      "x": 40,
      "y": 324,
      "size": 1,
      "price": "1011000000000000000000",
      "reserved": "0x7a9fe22691c811ea339d9b73150e6911a5343dca",
      "salt": "0x6d84a723163591ca194ae2490011bdb9d25319005ef268c024dcba71e9ef5f26",
      "assetIds": []
    },
    {
      "x": 40,
      "y": 325,
      "size": 1,
      "price": "1011000000000000000000",
      "reserved": "",
      "salt": "0x688377a20fa98e97c3c797fa94e426fe2b716e1c57c38a7d81c438c15effbe83",
      "assetIds": []
    },
    {
      "x": 40,
      "y": 326,
      "size": 1,
      "price": "1011000000000000000000",
      "reserved": "0x7a9fe22691c811ea339d9b73150e6911a5343dca",
      "salt": "0x2c2e2bea6a8bb3b9375c269757650bf261497cf613815910c700024bdd506ba2",
      "assetIds": []
    },
    {
      "x": 40,
      "y": 327,
      "size": 1,
      "price": "1011000000000000000000",
      "reserved": "",
      "salt": "0xf27abccb53184ab7a865bd420020ac6e47d9bbbecc4ddadce567dfef2e342b0c",
      "assetIds": []
    },
    {
      "x": 40,
      "y": 328,
      "size": 1,
      "price": "1011000000000000000000",
      "reserved": "",
      "salt": "0x60b986514f0f8ec359afd0881ad3eaf45b3881c8ab05f6bbeefed63f76c1709b",
      "assetIds": []
    },
    {
      "x": 40,
      "y": 329,
      "size": 1,
      "price": "1011000000000000000000",
      "reserved": "",
      "salt": "0x5a6fde8605e0abde0fb93606ee197e282a7277e1f465a364ee013771201e8330",
      "assetIds": []
    },
    {
      "x": 40,
      "y": 330,
      "size": 1,
      "price": "1011000000000000000000",
      "reserved": "",
      "salt": "0x42a21f9ec1deeb35b3f6ca01698a90efc58f989bcfae884d3230d3576e619d06",
      "assetIds": []
    },
    {
      "x": 40,
      "y": 331,
      "size": 1,
      "price": "1011000000000000000000",
      "reserved": "",
      "salt": "0x5ef9d9b0a20600f92ff7b9ee4a54a03de3f83e9f843bd54dd7369db4c55f695a",
      "assetIds": []
    },
    {
      "x": 40,
      "y": 332,
      "size": 1,
      "price": "1011000000000000000000",
      "reserved": "",
      "salt": "0xd71c88ca8a9cc2dc9e78af38cbe2e2d4e872ab4ade4a59f0c6a19510ab08a073",
      "assetIds": []
    },
    {
      "x": 40,
      "y": 333,
      "size": 1,
      "price": "1011000000000000000000",
      "reserved": "",
      "salt": "0xa79a9592debe2ac3ddaa0b8ce9ef9c75ffa9bc9967ad58d1967dfc7bf9c45a4e",
      "assetIds": []
    },
    {
      "x": 40,
      "y": 334,
      "size": 1,
      "price": "1011000000000000000000",
      "reserved": "0x7a9fe22691c811ea339d9b73150e6911a5343dca",
      "salt": "0x0efb669c9ab24869ec35cd7259ad7648e1c25cf2c3f86739625b343bc1bcd432",
      "assetIds": []
    },
    {
      "x": 40,
      "y": 335,
      "size": 1,
      "price": "1011000000000000000000",
      "reserved": "",
      "salt": "0xe313664603979064bc91f419c0fcf9c31969a2b1b3cd44adeef700090c55e476",
      "assetIds": []
    },
    {
      "x": 40,
      "y": 336,
      "size": 1,
      "price": "1011000000000000000000",
      "reserved": "",
      "salt": "0xc2f86acd4bbeecb22dba7e7d286680b232f6264a03aa0e29be55a53f5a2a1416",
      "assetIds": []
    },
    {
      "x": 40,
      "y": 337,
      "size": 1,
      "price": "1011000000000000000000",
      "reserved": "",
      "salt": "0x6ac17cec136c4af877686dd0bc4ed7421b4315daaffd37fbf5b9f1609dde180b",
      "assetIds": []
    },
    {
      "x": 40,
      "y": 338,
      "size": 1,
      "price": "1011000000000000000000",
      "reserved": "",
      "salt": "0x9ab9fca920c56f001a77d2c3311be30a5a571366c5d37386d0ed30bb4015cbc8",
      "assetIds": []
    },
    {
      "x": 40,
      "y": 339,
      "size": 1,
      "price": "1011000000000000000000",
      "reserved": "",
      "salt": "0x36f5c3b8c5dd67bcdad5cbae205cbdd5d18c92b54d09c556a150d50b9ee9975b",
      "assetIds": []
    },
    {
      "x": 40,
      "y": 340,
      "size": 1,
      "price": "1011000000000000000000",
      "reserved": "",
      "salt": "0x0367ef652a4c3c231035f9c342dac201f20a53c15a395c5cd08f6ae8daafba74",
      "assetIds": []
    },
    {
      "x": 40,
      "y": 341,
      "size": 1,
      "price": "1011000000000000000000",
      "reserved": "",
      "salt": "0x9f5d3d7b4d61e0d194eb2483bfc5a7ca688feecf840a641c89fec3d45c4ef158",
      "assetIds": []
    },
    {
      "x": 41,
      "y": 324,
      "size": 1,
      "price": "1011000000000000000000",
      "reserved": "",
      "salt": "0x96e0135d68779434cdfae793c4b430273a7f4adcca0a269bbea1b36eaad69fde",
      "assetIds": []
    },
    {
      "x": 41,
      "y": 325,
      "size": 1,
      "price": "1011000000000000000000",
      "reserved": "",
      "salt": "0xfcd8e2b4b83e30845e64849a7784cd590e412c6b810d5a74734e1613d5b1e954",
      "assetIds": []
    },
    {
      "x": 41,
      "y": 326,
      "size": 1,
      "price": "1011000000000000000000",
      "reserved": "",
      "salt": "0xdaa9740c32a92ab3b5774ed1630be9335c1bba675af8daf3b5355481dbc1a38b",
      "assetIds": []
    },
    {
      "x": 41,
      "y": 327,
      "size": 1,
      "price": "1011000000000000000000",
      "reserved": "",
      "salt": "0xa6c4362af476543f1d4a88c4d0acc445fd0e221d376c5823b695c6502f3f3075",
      "assetIds": []
    },
    {
      "x": 41,
      "y": 328,
      "size": 1,
      "price": "1011000000000000000000",
      "reserved": "0x7a9fe22691c811ea339d9b73150e6911a5343dca",
      "salt": "0x5bfd2ecd8dbd6e219ddd7486447df8a35c033a5f54f89018a136c79adfc9f366",
      "assetIds": []
    },
    {
      "x": 41,
      "y": 329,
      "size": 1,
      "price": "1011000000000000000000",
      "reserved": "0x7a9fe22691c811ea339d9b73150e6911a5343dca",
      "salt": "0xcae8301bfcf2828b99d584ab8fa7959a3f4fb8a2ac68174d207eb5fdf234eadb",
      "assetIds": []
    },
    {
      "x": 41,
      "y": 330,
      "size": 1,
      "price": "1011000000000000000000",
      "reserved": "",
      "salt": "0xc90db5240501638c8cb5f602022ddb510defc0047fea01066bdedac32744850c",
      "assetIds": []
    },
    {
      "x": 41,
      "y": 331,
      "size": 1,
      "price": "1011000000000000000000",
      "reserved": "0x7a9fe22691c811ea339d9b73150e6911a5343dca",
      "salt": "0x0b1d6c7da2f9d9fc902c3169fc33f97c8a55a1de44db1299d44c57664877336b",
      "assetIds": []
    },
    {
      "x": 41,
      "y": 332,
      "size": 1,
      "price": "1011000000000000000000",
      "reserved": "",
      "salt": "0x93e56b98e7c6d4f5e60916697242ddb73fc82c8ae49b697382d3f71802e11789",
      "assetIds": []
    },
    {
      "x": 41,
      "y": 333,
      "size": 1,
      "price": "1011000000000000000000",
      "reserved": "",
      "salt": "0x7cf70b55dc6dbe5184dcad0c6963b426fd8630f1f4a6edb24b114584ab5f16ba",
      "assetIds": []
    },
    {
      "x": 41,
      "y": 334,
      "size": 1,
      "price": "1011000000000000000000",
      "reserved": "",
      "salt": "0xa2b2cfcb523eb0b39e4d5aaf32f22a5dde981c713d7eb53ca531d82ddea67856",
      "assetIds": []
    },
    {
      "x": 41,
      "y": 335,
      "size": 1,
      "price": "1011000000000000000000",
      "reserved": "",
      "salt": "0x4b3c65c09c5cb8666e04e4ad39daabe8b7254c4fe5b0125eb205f8797789200a",
      "assetIds": []
    },
    {
      "x": 41,
      "y": 336,
      "size": 1,
      "price": "1011000000000000000000",
      "reserved": "",
      "salt": "0xeabb87844968d19213c6cb90f50d3aa12a9a23b8518411b557e33d19ac1e66f5",
      "assetIds": []
    },
    {
      "x": 41,
      "y": 337,
      "size": 1,
      "price": "1011000000000000000000",
      "reserved": "0x7a9fe22691c811ea339d9b73150e6911a5343dca",
      "salt": "0x66f6245a1beb2e7fe953c288779dd96d442b28a17349bed42949eb15a37b3f5a",
      "assetIds": []
    },
    {
      "x": 41,
      "y": 338,
      "size": 1,
      "price": "1011000000000000000000",
      "reserved": "0x7a9fe22691c811ea339d9b73150e6911a5343dca",
      "salt": "0xea40969b5ff1db37edf2f36dad947d6386948d41ad18487576e8345323ea77c8",
      "assetIds": []
    },
    {
      "x": 41,
      "y": 339,
      "size": 1,
      "price": "1011000000000000000000",
      "reserved": "",
      "salt": "0xec405d9bff7f4c026a7d113e5bb20c3368fd33de3b66ba921fc6be06ef994091",
      "assetIds": []
    },
    {
      "x": 41,
      "y": 340,
      "size": 1,
      "price": "1011000000000000000000",
      "reserved": "",
      "salt": "0xcbffbe82036cb18ff361cbabe1f1b30d7ee7a0f56bea1d274f43797410972a18",
      "assetIds": []
    },
    {
      "x": 41,
      "y": 341,
      "size": 1,
      "price": "1011000000000000000000",
      "reserved": "0x7a9fe22691c811ea339d9b73150e6911a5343dca",
      "salt": "0x5c35eaea6b48dec75df2cfc7acb8f32c70b042c7d9d9b687e7334c9da71466c5",
      "assetIds": []
    },
    {
      "x": 0,
      "y": 345,
      "size": 3,
      "price": "8648000000000000000000",
      "reserved": "0x7a9fe22691c811ea339d9b73150e6911a5343dca",
      "salt": "0xe3aaafca65c228c04009c33f011fae15a930088f122814a44173331b4006f4d8",
      "assetIds": []
    },
    {
      "x": 3,
      "y": 348,
      "size": 3,
      "price": "8648000000000000000000",
      "reserved": "0x7a9fe22691c811ea339d9b73150e6911a5343dca",
      "salt": "0xfafa3d538578e8a0e012e160e498e0b80d92c663027eb6e16165140a5c16f23f",
      "assetIds": []
    },
    {
      "x": 3,
      "y": 351,
      "size": 3,
      "price": "8648000000000000000000",
      "reserved": "0x7a9fe22691c811ea339d9b73150e6911a5343dca",
      "salt": "0xafc5ceb98820dfd191b09a4eed817cd70ef964350ad4ff2801b6560ef226264f",
      "assetIds": []
    },
    {
      "x": 6,
      "y": 336,
      "size": 3,
      "price": "8648000000000000000000",
      "reserved": "0x7a9fe22691c811ea339d9b73150e6911a5343dca",
      "salt": "0xfc39dabafd38a5b5d01c8733cbcc41f199236adffa9cffddc5f7d4ee0afff89c",
      "assetIds": []
    },
    {
      "x": 6,
      "y": 339,
      "size": 3,
      "price": "8648000000000000000000",
      "reserved": "0x7a9fe22691c811ea339d9b73150e6911a5343dca",
      "salt": "0xf9d9c4154c1d2ea8a902d7e5a0971032388290af6f1fe1b046a5ee3334f347df",
      "assetIds": []
    },
    {
      "x": 36,
      "y": 330,
      "size": 3,
      "price": "8648000000000000000000",
      "reserved": "0x7a9fe22691c811ea339d9b73150e6911a5343dca",
      "salt": "0x259ffe18faa04d9da0c62cdbe180e0c2c9909b08cb3ba802f6adeb7c0aef43ac",
      "assetIds": []
    },
    {
      "x": 12,
      "y": 348,
      "size": 6,
      "price": "32772000000000000000000",
      "reserved": "0x7a9fe22691c811ea339d9b73150e6911a5343dca",
      "salt": "0x8a8d31c71e10dfcacb2eeb2fa9afd352542683b586a99726d39ba5dc36ba3f18",
      "assetIds": []
    },
    {
      "x": 24,
      "y": 336,
      "size": 6,
      "price": "32772000000000000000000",
      "reserved": "0x7a9fe22691c811ea339d9b73150e6911a5343dca",
      "salt": "0x8cca063ccbb6cab657eab15bdc2e46789e69d425ff0736a5df63f5e2b4aea24e",
      "assetIds": []
    },
    {
      "x": 30,
      "y": 330,
      "size": 6,
      "price": "32772000000000000000000",
      "reserved": "0x7a9fe22691c811ea339d9b73150e6911a5343dca",
      "salt": "0x88fb7bae71105c0d4d5c7d6546820e45416c8b9dd634a5b0b28f9eadc75a9537",
      "assetIds": []
    },
    {
      "x": 30,
      "y": 336,
      "size": 6,
      "price": "32772000000000000000000",
      "reserved": "0x7a9fe22691c811ea339d9b73150e6911a5343dca",
      "salt": "0x5f68631e8c01839bb38db193a604a7311e810c7d55e07df22ccbac3312b1e192",
      "assetIds": []
    },
    {
      "x": 12,
      "y": 336,
      "size": 12,
      "price": "123806000000000000000000",
      "reserved": "0x7a9fe22691c811ea339d9b73150e6911a5343dca",
      "salt": "0xdfee7846d2c4747602dbc3b8f843ab5d3e83ff8511765f344c64d3117d0d7447",
      "assetIds": []
    },
    {
      "x": 144,
      "y": 192,
      "size": 12,
      "price": "123806000000000000000000",
      "reserved": "0x7a9fe22691c811ea339d9b73150e6911a5343dca",
      "salt": "0x50ec861268bb844f7c8445ecd3242b92e0a856d7443ec1a304782a676fa27a3a",
      "assetIds": []
    }
  ],
  "solcInputHash": "ea3f750ed6a3f377b8756d8b7b11eedf",
  "bytecode": "0x610160604052620d2f006005556103e860075534801561001e57600080fd5b5060405161242e38038061242e833981810160405261018081101561004257600080fd5b50805160208201516040830151606080850151608086015160a08088015160c0808a015160e08b01516101008c01516101208d01516101408e0151610160909e0151600280546001600160a01b0319166001600160a01b03861617905560038390558d8b1b6001600160601b0319908116909852998c901b909616909352999a9899979895979496929590949391926100dc8a600161014a565b600680546001600160a01b03199081166001600160a01b039a8b1617909155610140979097526101209590955260008054909616979096169690961790935550606093841b6001600160601b031990811660e05292841b831660805290921b1661010052506101ae92505050565b6001600160a01b038216600081815260016020908152604091829020805460ff191685151590811790915582519384529083015280517fb21eb88b4e33b3f1281830a7178d74d8aa73220416215726b68ae23d539515cb9281900390910190a15050565b60805160601c60a05160601c60c05160601c60e05160601c6101005160601c61012051610140516121fb610233600039806109375280611d44525080610913528061139a525080611da45250806115d252806116f4525080610c50528061159c5280611dd852508061166152806116c5525080610dfa528061190852506121fb6000f3fe608060405234801561001057600080fd5b50600436106101515760003560e01c8063984d6252116100cd578063dc5074af11610081578063ecb255b511610066578063ecb255b514610857578063f23a6e6114610874578063f2e7b3811461090957610151565b8063dc5074af14610814578063e56f8a9e1461083a57610151565b8063bc197c81116100b2578063bc197c81146105d3578063c10a420814610735578063caed35001461080c57610151565b8063984d6252146104db578063b522ecff146105ad57610151565b80636e9960c3116101245780638a04af6a116101095780638a04af6a1461032a5780638a12b82f146103585780638f283970146104b557610151565b80636e9960c3146102fe57806377f1c3ac1461032257610151565b806325cb5bc014610156578063495906571461017057806358bc29441461017857806365194ce7146101a0575b600080fd5b61015e610911565b60408051918252519081900360200190f35b61015e610935565b61019e6004803603602081101561018e57600080fd5b50356001600160a01b0316610959565b005b610246600480360360208110156101b657600080fd5b8101906020810181356401000000008111156101d157600080fd5b8201836020820111156101e357600080fd5b8035906020019184600183028401116401000000008311171561020557600080fd5b91908080601f016020809104026020016040519081016040528093929190818152602001838380828437600092019190915250929550610a04945050505050565b6040518080602001866001600160a01b03166001600160a01b03168152602001856001600160a01b03166001600160a01b03168152602001848152602001838152602001828103825287818151815260200191508051906020019080838360005b838110156102bf5781810151838201526020016102a7565b50505050905090810190601f1680156102ec5780820380516001836020036101000a031916815260200191505b50965050505050505060405180910390f35b610306610b09565b604080516001600160a01b039092168252519081900360200190f35b61015e610b18565b61019e6004803603604081101561034057600080fd5b506001600160a01b0381351690602001351515610b1e565b61019e600480360361018081101561036f57600080fd5b6001600160a01b038235811692602081013582169260408201359092169160608201359160808101359160a08201359160c08101359160e0820135916101008101359181019061014081016101208201356401000000008111156103d257600080fd5b8201836020820111156103e457600080fd5b8035906020019184602083028401116401000000008311171561040657600080fd5b91939092909160208101903564010000000081111561042457600080fd5b82018360208201111561043657600080fd5b8035906020019184602083028401116401000000008311171561045857600080fd5b91939092909160208101903564010000000081111561047657600080fd5b82018360208201111561048857600080fd5b803590602001918460018302840111640100000000831117156104aa57600080fd5b509092509050610b75565b61019e600480360360208110156104cb57600080fd5b50356001600160a01b0316610cc3565b61019e600480360360608110156104f157600080fd5b6001600160a01b03823516919081019060408101602082013564010000000081111561051c57600080fd5b82018360208201111561052e57600080fd5b8035906020019184602083028401116401000000008311171561055057600080fd5b91939092909160208101903564010000000081111561056e57600080fd5b82018360208201111561058057600080fd5b803590602001918460208302840111640100000000831117156105a257600080fd5b509092509050610d99565b61019e600480360360208110156105c357600080fd5b50356001600160a01b0316610f24565b610700600480360360a08110156105e957600080fd5b6001600160a01b03823581169260208101359091169181019060608101604082013564010000000081111561061d57600080fd5b82018360208201111561062f57600080fd5b8035906020019184602083028401116401000000008311171561065157600080fd5b91939092909160208101903564010000000081111561066f57600080fd5b82018360208201111561068157600080fd5b803590602001918460208302840111640100000000831117156106a357600080fd5b9193909290916020810190356401000000008111156106c157600080fd5b8201836020820111156106d357600080fd5b803590602001918460018302840111640100000000831117156106f557600080fd5b50909250905061100d565b604080517fffffffff000000000000000000000000000000000000000000000000000000009092168252519081900360200190f35b6107f8600480360360a081101561074b57600080fd5b81019060208101813564010000000081111561076657600080fd5b82018360208201111561077857600080fd5b8035906020019184600183028401116401000000008311171561079a57600080fd5b91908080601f016020809104026020016040519081016040528093929190818152602001838380828437600092019190915250929550506001600160a01b03833581169450602084013516926040810135925060600135905061103a565b604080519115158252519081900360200190f35b610306611176565b6107f86004803603602081101561082a57600080fd5b50356001600160a01b0316611185565b61019e6004803603602081101561085057600080fd5b50356111a3565b61019e6004803603602081101561086d57600080fd5b5035611207565b610700600480360360a081101561088a57600080fd5b6001600160a01b03823581169260208101359091169160408201359160608101359181019060a0810160808201356401000000008111156108ca57600080fd5b8201836020820111156108dc57600080fd5b803590602001918460018302840111640100000000831117156108fe57600080fd5b50909250905061126b565b61015e611296565b7f000000000000000000000000000000000000000000000000000000000000000090565b7f000000000000000000000000000000000000000000000000000000000000000090565b6000546001600160a01b031633146109b8576040805162461bcd60e51b815260206004820152601060248201527f53656e646572206e6f742061646d696e00000000000000000000000000000000604482015290519081900360640190fd5b600554600280546001600160a01b03908116600090815260046020526040902042909301909255805473ffffffffffffffffffffffffffffffffffffffff191692909116919091179055565b606060008060008060606000806000808a80602001905160a0811015610a2957600080fd5b8101908080516040519392919084640100000000821115610a4957600080fd5b908301906020820185811115610a5e57600080fd5b8251640100000000811182820188101715610a7857600080fd5b82525081516020918201929091019080838360005b83811015610aa5578181015183820152602001610a8d565b50505050905090810190601f168015610ad25780820380516001836020036101000a031916815260200191505b5060409081526020820151908201516060830151608090930151959f50909d509b5099509197505050505050505091939590929450565b6000546001600160a01b031690565b60035490565b6000546001600160a01b03163314610b675760405162461bcd60e51b815260040180806020018281038252602e815260200180612198602e913960400191505060405180910390fd5b610b71828261129c565b5050565b610b7f898961131e565b610c048f8e8e8e8e8e8d8d8d80806020026020016040519081016040528093929190818152602001838360200280828437600081840152601f19601f820116905080830192505050505050508c8c8080602002602001604051908101604052809392919081815260200183836020028082843760009201919091525061139892505050565b610c458f8984848080601f01602080910402602001604051908101604052809392919081815260200183838082843760009201919091525061157592505050565b610c758f8f8e8e8e8d7f00000000000000000000000000000000000000000000000000000000000000008f6115c6565b610cb28e87878080602002602001604051908101604052809392919081815260200183836020028082843760009201919091525061189192505050565b505050505050505050505050505050565b6000546001600160a01b03163314610d22576040805162461bcd60e51b815260206004820152601b60248201527f6f6e6c792061646d696e2063616e206368616e67652061646d696e0000000000604482015290519081900360640190fd5b600054604080516001600160a01b039283168152918316602083015280517f7e644d79422f17c01e4894b5f4f588d331ebfa28653d42ae832dc59e38c9798f9281900390910190a16000805473ffffffffffffffffffffffffffffffffffffffff19166001600160a01b0392909216919091179055565b6000546001600160a01b03163314610df8576040805162461bcd60e51b815260206004820152600e60248201527f4e4f545f415554484f52495a4544000000000000000000000000000000000000604482015290519081900360640190fd5b7f00000000000000000000000000000000000000000000000000000000000000006001600160a01b0316632eb2c2d63087878787876040518763ffffffff1660e01b815260040180876001600160a01b03166001600160a01b03168152602001866001600160a01b03166001600160a01b031681526020018060200180602001806020018481038452888882818152602001925060200280828437600083820152601f01601f19169091018581038452868152602090810191508790870280828437600081840152601f19601f8201169050808301925050508481038252600081526020016020019950505050505050505050600060405180830381600087803b158015610f0557600080fd5b505af1158015610f19573d6000803e3d6000fd5b505050505050505050565b6001600160a01b038116610f7f576040805162461bcd60e51b815260206004820152600c60248201527f5a45524f5f414444524553530000000000000000000000000000000000000000604482015290519081900360640190fd5b6000546001600160a01b03163314610fde576040805162461bcd60e51b815260206004820152600e60248201527f4e4f545f415554484f52495a4544000000000000000000000000000000000000604482015290519081900360640190fd5b6006805473ffffffffffffffffffffffffffffffffffffffff19166001600160a01b0392909216919091179055565b7fbc197c810000000000000000000000000000000000000000000000000000000098975050505050505050565b600060035482118061105d5750836001600160a01b0316856001600160a01b0316145b8061106757508242115b156110745750600061116d565b60408051606087811b7fffffffffffffffffffffffffffffffffffffffff0000000000000000000000009081166020808501919091529188901b166034830152604882018690526068808301869052835180840390910181526088830184528051908201207f19457468657265756d205369676e6564204d6573736167653a0a33320000000060a884015260c48084018290528451808503909101815260e4909301909352815191012060009061112b9089611a55565b6001600160a01b03811660009081526004602052604090205490915042116111585760019250505061116d565b6002546001600160a01b039081169116149150505b95945050505050565b6002546001600160a01b031690565b6001600160a01b031660009081526001602052604090205460ff1690565b6000546001600160a01b03163314611202576040805162461bcd60e51b815260206004820152601060248201527f53656e646572206e6f742061646d696e00000000000000000000000000000000604482015290519081900360640190fd5b600355565b6000546001600160a01b03163314611266576040805162461bcd60e51b815260206004820152600e60248201527f4e4f545f415554484f52495a4544000000000000000000000000000000000000604482015290519081900360640190fd5b600755565b7ff23a6e61000000000000000000000000000000000000000000000000000000009695505050505050565b60075490565b6001600160a01b03821660008181526001602090815260409182902080547fffffffffffffffffffffffffffffffffffffffffffffffffffffffffffffff001685151590811790915582519384529083015280517fb21eb88b4e33b3f1281830a7178d74d8aa73220416215726b68ae23d539515cb9281900390910190a15050565b6113456103e861133960075485611b2290919063ffffffff16565b9063ffffffff611b9816565b8114610b71576040805162461bcd60e51b815260206004820152600d60248201527f494e56414c49445f505249434500000000000000000000000000000000000000604482015290519081900360640190fd5b7f0000000000000000000000000000000000000000000000000000000000000000421061140c576040805162461bcd60e51b815260206004820152600c60248201527f53414c455f49535f4f5645520000000000000000000000000000000000000000604482015290519081900360640190fd5b6001600160a01b03891633148061143257503360009081526001602052604090205460ff165b611483576040805162461bcd60e51b815260206004820152600e60248201527f4e4f545f415554484f52495a4544000000000000000000000000000000000000604482015290519081900360640190fd5b6001600160a01b03881615806114aa5750886001600160a01b0316886001600160a01b0316145b6114fb576040805162461bcd60e51b815260206004820152600d60248201527f52455345525645445f4c414e4400000000000000000000000000000000000000604482015290519081900360640190fd5b600061150c888888888d8989611bfd565b90506115188282611ca2565b611569576040805162461bcd60e51b815260206004820152600c60248201527f494e56414c49445f4c414e440000000000000000000000000000000000000000604482015290519081900360640190fd5b50505050505050505050565b60006115818484611d6b565b6006549091506115c0908590839085906001600160a01b03167f0000000000000000000000000000000000000000000000000000000000000000611eb8565b50505050565b83600114806115fc57507f00000000000000000000000000000000000000000000000000000000000000006001600160a01b0316155b156116c357604080517f6e1e3bbf0000000000000000000000000000000000000000000000000000000081526001600160a01b03898116600483015260248201879052604482018990526064820188905260a06084830152600060a4830181905292517f000000000000000000000000000000000000000000000000000000000000000090911692636e1e3bbf9260e4808201939182900301818387803b1580156116a657600080fd5b505af11580156116ba573d6000803e3d6000fd5b50505050611827565b7f00000000000000000000000000000000000000000000000000000000000000006001600160a01b0316636e1e3bbf7f00000000000000000000000000000000000000000000000000000000000000008689898c60405160200180826001600160a01b03166001600160a01b031681526020019150506040516020818303038152906040526040518663ffffffff1660e01b815260040180866001600160a01b03166001600160a01b0316815260200185815260200184815260200183815260200180602001828103825283818151815260200191508051906020019080838360005b838110156117be5781810151838201526020016117a6565b50505050905090810190601f1680156117eb5780820380516001836020036101000a031916815260200191505b509650505050505050600060405180830381600087803b15801561180e57600080fd5b505af1158015611822573d6000803e3d6000fd5b505050505b60408051858152602081018590526001600160a01b03848116828401526060820184905291516101988802890192808b1692908c16917fe4dfa6ac11314892f3029b34a25b1a887da3b1cab2bbf8506d87128ba6e3ac029181900360800190a45050505050505050565b6060815167ffffffffffffffff811180156118ab57600080fd5b506040519080825280602002602001820160405280156118d5578160200160208202803683370190505b50905060005b82518110156119055760018282815181106118f257fe5b60209081029190910101526001016118db565b507f00000000000000000000000000000000000000000000000000000000000000006001600160a01b0316632eb2c2d6308585856040518563ffffffff1660e01b815260040180856001600160a01b03166001600160a01b03168152602001846001600160a01b03166001600160a01b03168152602001806020018060200180602001848103845286818151815260200191508051906020019060200280838360005b838110156119c05781810151838201526020016119a8565b50505050905001848103835285818151815260200191508051906020019060200280838360005b838110156119ff5781810151838201526020016119e7565b50505050905001848103825260008152602001602001975050505050505050600060405180830381600087803b158015611a3857600080fd5b505af1158015611a4c573d6000803e3d6000fd5b50505050505050565b60008151604114611a6557600080fd5b60208201516040830151606084015160001a601b811015611a8457601b015b8060ff16601b1480611a9957508060ff16601c145b611aa257600080fd5b6040805160008152602080820180845289905260ff8416828401526060820186905260808201859052915160019260a0808401939192601f1981019281900390910190855afa158015611af9573d6000803e3d6000fd5b5050604051601f1901519450506001600160a01b038416611b1957600080fd5b50505092915050565b600082611b3157506000611b92565b5081810281838281611b3f57fe5b0414611b92576040805162461bcd60e51b815260206004820152600860248201527f6f766572666c6f77000000000000000000000000000000000000000000000000604482015290519081900360640190fd5b92915050565b600081611bec576040805162461bcd60e51b815260206004820152600960248201527f64697662797a65726f0000000000000000000000000000000000000000000000604482015290519081900360640190fd5b818381611bf557fe5b049392505050565b60008787878787878760405160200180888152602001878152602001868152602001858152602001846001600160a01b03166001600160a01b031660601b8152601401838152602001828051906020019060200280838360005b83811015611c6f578181015183820152602001611c57565b50505050905001975050505050505050604051602081830303815290604052805190602001209050979650505050505050565b600081815b8451811015611d41576000858281518110611cbe57fe5b6020026020010151905080831015611d065782816040516020018083815260200182815260200192505050604051602081830303815290604052805190602001209250611d38565b808360405160200180838152602001828152602001925050506040516020818303038152906040528051906020012092505b50600101611ca7565b507f0000000000000000000000000000000000000000000000000000000000000000149392505050565b600080611d84606461133985600563ffffffff611b2216565b604080516323b872dd60e01b81526001600160a01b0387811660048301527f0000000000000000000000000000000000000000000000000000000000000000811660248301526044820184905291519293507f0000000000000000000000000000000000000000000000000000000000000000909116916323b872dd916064808201926020929091908290030181600087803b158015611e2357600080fd5b505af1158015611e37573d6000803e3d6000fd5b505050506040513d6020811015611e4d57600080fd5b5051611ea0576040805162461bcd60e51b815260206004820152601360248201527f4645455f5452414e534645525f4641494c454400000000000000000000000000604482015290519081900360640190fd5b611eb0838263ffffffff61213a16565b949350505050565b82518190859015612062576060600080600080611ed48a610a04565b9398509196509450925090506000611eef868686868661103a565b15611f7d57611f09611f018d84611b22565b612710611b98565b9050886001600160a01b0316846001600160a01b0316866001600160a01b03167fac7a699eb95c3c6d390ec4626de17ef9a67b35891efdb197beba7c7fdd45fac48f858760405180848152602001838152602001828152602001935050505060405180910390a4611f7a878261213a565b96505b801561205b57604080516323b872dd60e01b81526001600160a01b038f811660048301528781166024830152604482018490529151918a16916323b872dd916064808201926020929091908290030181600087803b158015611fde57600080fd5b505af1158015611ff2573d6000803e3d6000fd5b505050506040513d602081101561200857600080fd5b505161205b576040805162461bcd60e51b815260206004820152601960248201527f636f6d6d6973696f6e207472616e73666572206661696c656400000000000000604482015290519081900360640190fd5b5050505050505b604080516323b872dd60e01b81526001600160a01b0389811660048301528681166024830152604482018490529151918416916323b872dd916064808201926020929091908290030181600087803b1580156120bd57600080fd5b505af11580156120d1573d6000803e3d6000fd5b505050506040513d60208110156120e757600080fd5b5051611a4c576040805162461bcd60e51b815260206004820152601760248201527f7061796d656e74207472616e73666572206661696c6564000000000000000000604482015290519081900360640190fd5b600082821115612191576040805162461bcd60e51b815260206004820152600860248201527f756e6465666c6f77000000000000000000000000000000000000000000000000604482015290519081900360640190fd5b5090039056fe6f6e6c792061646d696e2063616e207365747570206d6574615472616e73616374696f6e50726f636573736f7273a26469706673582212200ff38c5741c66b2a22a9a9ee2abe0f55626323082b6b4443921fd3b25484584a64736f6c63430006050033",
  "devdoc": {
    "methods": {
      "buyLandWithSand(address,address,address,uint256,uint256,uint256,uint256,uint256,bytes32,uint256[],bytes32[],bytes)": {
        "params": {
          "buyer": "address that perform the payment",
          "priceInSand": "price in SAND to purchase that Land",
          "proof": "merkleProof for that particular Land",
          "reserved": "the reserved address (if any)",
          "size": "size of the pack of Land to purchase",
          "to": "address that will own the purchased Land",
          "x": "x coordinate of the Land",
          "y": "y coordinate of the Land"
        }
      },
      "changeAdmin(address)": {
        "details": "change the administrator to be `newAdmin`.",
        "params": {
          "newAdmin": "address of the new administrator."
        }
      },
      "getAdmin()": {
        "details": "gives the current administrator of this contract.",
        "returns": {
          "_0": "the current administrator of this contract."
        }
      },
      "getSigningWallet()": {
        "details": "signing wallet authorized for referral",
        "returns": {
          "_0": "the address of the signing wallet"
        }
      },
      "isMetaTransactionProcessor(address)": {
        "details": "check whether address `who` is given meta-transaction execution rights.",
        "params": {
          "who": "The address to query."
        },
        "returns": {
          "_0": "whether the address has meta-transaction execution rights."
        }
      },
      "isReferralValid(bytes,address,address,uint256,uint256)": {
        "params": {
          "commissionRate": "The commissionRate of the referral",
          "expiryTime": "The expiry time of the referral",
          "referee": "The address of the referee",
          "referrer": "The address of the referrer",
          "signature": "The signature to check (signed referral)"
        },
        "returns": {
          "_0": "True if the referral is valid"
        }
      },
      "setMetaTransactionProcessor(address,bool)": {
        "details": "Enable or disable the ability of `metaTransactionProcessor` to perform meta-tx (metaTransactionProcessor rights).",
        "params": {
          "enabled": "set whether the metaTransactionProcessor is enabled or disabled.",
          "metaTransactionProcessor": "address that will be given/removed metaTransactionProcessor rights."
        }
      },
      "setReceivingWallet(address)": {
        "params": {
          "newWallet": "address of the new receiving wallet"
        }
      },
      "updateMaxCommissionRate(uint256)": {
        "details": "Update the maximum commission rate",
        "params": {
          "newMaxCommissionRate": "The new maximum commission rate"
        }
      },
      "updateSigningWallet(address)": {
        "details": "Update the signing wallet",
        "params": {
          "newSigningWallet": "The new address of the signing wallet"
        }
      },
      "withdrawAssets(address,uint256[],uint256[])": {
        "params": {
          "assetIds": "the assetIds to be transferred",
          "to": "intended recipient of the asset tokens",
          "values": "the quantities of the assetIds to be transferred"
        }
      }
    },
    "title": "Estate Sale contract with referral"
  },
  "userdoc": {
    "methods": {
      "buyLandWithSand(address,address,address,uint256,uint256,uint256,uint256,uint256,bytes32,uint256[],bytes32[],bytes)": {
        "notice": "buy Land with SAND using the merkle proof associated with it"
      },
      "getExpiryTime()": {
        "notice": "Gets the expiry time for the current sale"
      },
      "getMaxCommisionRate()": {
        "notice": "the max commision rate"
      },
      "getMerkleRoot()": {
        "notice": "Gets the Merkle root associated with the current sale"
      },
      "isReferralValid(bytes,address,address,uint256,uint256)": {
        "notice": "Check if a referral is valid"
      },
      "setReceivingWallet(address)": {
        "notice": "set the wallet receiving the proceeds"
      },
      "withdrawAssets(address,uint256[],uint256[])": {
        "notice": "enable Admin to withdraw remaining assets from EstateSaleWithFee contract"
      }
    },
    "notice": "This contract manages the sale of our lands as Estates"
  },
  "storageLayout": {
    "storage": [
      {
        "astId": 13640,
        "contract": "src/solc_0.6/EstateSale/EstateSaleWithFee.sol:EstateSaleWithFee",
        "label": "_admin",
        "offset": 0,
        "slot": "0",
        "type": "t_address"
      },
      {
        "astId": 13702,
        "contract": "src/solc_0.6/EstateSale/EstateSaleWithFee.sol:EstateSaleWithFee",
        "label": "_metaTransactionContracts",
        "offset": 0,
        "slot": "1",
        "type": "t_mapping(t_address,t_bool)"
      },
      {
        "astId": 11818,
        "contract": "src/solc_0.6/EstateSale/EstateSaleWithFee.sol:EstateSaleWithFee",
        "label": "_signingWallet",
        "offset": 0,
        "slot": "2",
        "type": "t_address"
      },
      {
        "astId": 11820,
        "contract": "src/solc_0.6/EstateSale/EstateSaleWithFee.sol:EstateSaleWithFee",
        "label": "_maxCommissionRate",
        "offset": 0,
        "slot": "3",
        "type": "t_uint256"
      },
      {
        "astId": 11824,
        "contract": "src/solc_0.6/EstateSale/EstateSaleWithFee.sol:EstateSaleWithFee",
        "label": "_previousSigningWallets",
        "offset": 0,
        "slot": "4",
        "type": "t_mapping(t_address,t_uint256)"
      },
      {
        "astId": 11833,
        "contract": "src/solc_0.6/EstateSale/EstateSaleWithFee.sol:EstateSaleWithFee",
        "label": "_previousSigningDelay",
        "offset": 0,
        "slot": "5",
        "type": "t_uint256"
      },
      {
        "astId": 8205,
        "contract": "src/solc_0.6/EstateSale/EstateSaleWithFee.sol:EstateSaleWithFee",
        "label": "_wallet",
        "offset": 0,
        "slot": "6",
        "type": "t_address_payable"
      },
      {
        "astId": 8215,
        "contract": "src/solc_0.6/EstateSale/EstateSaleWithFee.sol:EstateSaleWithFee",
        "label": "_multiplier",
        "offset": 0,
        "slot": "7",
        "type": "t_uint256"
      }
    ],
    "types": {
      "t_address": {
        "encoding": "inplace",
        "label": "address",
        "numberOfBytes": "20"
      },
      "t_address_payable": {
        "encoding": "inplace",
        "label": "address payable",
        "numberOfBytes": "20"
      },
      "t_bool": {
        "encoding": "inplace",
        "label": "bool",
        "numberOfBytes": "1"
      },
      "t_mapping(t_address,t_bool)": {
        "encoding": "mapping",
        "key": "t_address",
        "label": "mapping(address => bool)",
        "numberOfBytes": "32",
        "value": "t_bool"
      },
      "t_mapping(t_address,t_uint256)": {
        "encoding": "mapping",
        "key": "t_address",
        "label": "mapping(address => uint256)",
        "numberOfBytes": "32",
        "value": "t_uint256"
      },
      "t_uint256": {
        "encoding": "inplace",
        "label": "uint256",
        "numberOfBytes": "32"
      }
    }
  }
}