{
  "address": "0xdc1be37F4eA2876b199b45ba8fD73b15aa3c5266",
  "abi": [
    {
      "inputs": [
        {
          "internalType": "address",
          "name": "landAddress",
          "type": "address"
        },
        {
          "internalType": "address",
          "name": "sandContractAddress",
          "type": "address"
        },
        {
          "internalType": "address",
          "name": "initialMetaTx",
          "type": "address"
        },
        {
          "internalType": "address",
          "name": "admin",
          "type": "address"
        },
        {
          "internalType": "address payable",
          "name": "initialWalletAddress",
          "type": "address"
        },
        {
          "internalType": "bytes32",
          "name": "merkleRoot",
          "type": "bytes32"
        },
        {
          "internalType": "uint256",
          "name": "expiryTime",
          "type": "uint256"
        },
        {
          "internalType": "address",
          "name": "initialSigningWallet",
          "type": "address"
        },
        {
          "internalType": "uint256",
          "name": "initialMaxCommissionRate",
          "type": "uint256"
        },
        {
          "internalType": "address",
          "name": "estate",
          "type": "address"
        },
        {
          "internalType": "address",
          "name": "asset",
          "type": "address"
        },
        {
          "internalType": "address",
          "name": "feeDistributor",
          "type": "address"
        },
        {
          "internalType": "address",
          "name": "authValidator",
          "type": "address"
        }
      ],
      "stateMutability": "nonpayable",
      "type": "constructor"
    },
    {
      "anonymous": false,
      "inputs": [
        {
          "indexed": false,
          "internalType": "address",
          "name": "oldAdmin",
          "type": "address"
        },
        {
          "indexed": false,
          "internalType": "address",
          "name": "newAdmin",
          "type": "address"
        }
      ],
      "name": "AdminChanged",
      "type": "event"
    },
    {
      "anonymous": false,
      "inputs": [
        {
          "indexed": true,
          "internalType": "address",
          "name": "buyer",
          "type": "address"
        },
        {
          "indexed": true,
          "internalType": "address",
          "name": "to",
          "type": "address"
        },
        {
          "indexed": true,
          "internalType": "uint256",
          "name": "topCornerId",
          "type": "uint256"
        },
        {
          "indexed": false,
          "internalType": "uint256",
          "name": "size",
          "type": "uint256"
        },
        {
          "indexed": false,
          "internalType": "uint256",
          "name": "price",
          "type": "uint256"
        },
        {
          "indexed": false,
          "internalType": "address",
          "name": "token",
          "type": "address"
        },
        {
          "indexed": false,
          "internalType": "uint256",
          "name": "amountPaid",
          "type": "uint256"
        }
      ],
      "name": "LandQuadPurchased",
      "type": "event"
    },
    {
      "anonymous": false,
      "inputs": [
        {
          "indexed": false,
          "internalType": "address",
          "name": "metaTransactionProcessor",
          "type": "address"
        },
        {
          "indexed": false,
          "internalType": "bool",
          "name": "enabled",
          "type": "bool"
        }
      ],
      "name": "MetaTransactionProcessor",
      "type": "event"
    },
    {
      "anonymous": false,
      "inputs": [
        {
          "indexed": true,
          "internalType": "address",
          "name": "referrer",
          "type": "address"
        },
        {
          "indexed": true,
          "internalType": "address",
          "name": "referee",
          "type": "address"
        },
        {
          "indexed": true,
          "internalType": "address",
          "name": "token",
          "type": "address"
        },
        {
          "indexed": false,
          "internalType": "uint256",
          "name": "amount",
          "type": "uint256"
        },
        {
          "indexed": false,
          "internalType": "uint256",
          "name": "commission",
          "type": "uint256"
        },
        {
          "indexed": false,
          "internalType": "uint256",
          "name": "commissionRate",
          "type": "uint256"
        }
      ],
      "name": "ReferralUsed",
      "type": "event"
    },
    {
      "inputs": [
        {
          "internalType": "address",
          "name": "buyer",
          "type": "address"
        },
        {
          "internalType": "address",
          "name": "to",
          "type": "address"
        },
        {
          "internalType": "address",
          "name": "reserved",
          "type": "address"
        },
        {
          "internalType": "uint256[]",
          "name": "info",
          "type": "uint256[]"
        },
        {
          "internalType": "bytes32",
          "name": "salt",
          "type": "bytes32"
        },
        {
          "internalType": "uint256[]",
          "name": "assetIds",
          "type": "uint256[]"
        },
        {
          "internalType": "bytes32[]",
          "name": "proof",
          "type": "bytes32[]"
        },
        {
          "internalType": "bytes",
          "name": "referral",
          "type": "bytes"
        },
        {
          "internalType": "bytes",
          "name": "signature",
          "type": "bytes"
        }
      ],
      "name": "buyLandWithSand",
      "outputs": [],
      "stateMutability": "nonpayable",
      "type": "function"
    },
    {
      "inputs": [
        {
          "internalType": "address",
          "name": "newAdmin",
          "type": "address"
        }
      ],
      "name": "changeAdmin",
      "outputs": [],
      "stateMutability": "nonpayable",
      "type": "function"
    },
    {
      "inputs": [
        {
          "internalType": "bytes",
          "name": "referral",
          "type": "bytes"
        }
      ],
      "name": "decodeReferral",
      "outputs": [
        {
          "internalType": "bytes",
          "name": "",
          "type": "bytes"
        },
        {
          "internalType": "address",
          "name": "",
          "type": "address"
        },
        {
          "internalType": "address",
          "name": "",
          "type": "address"
        },
        {
          "internalType": "uint256",
          "name": "",
          "type": "uint256"
        },
        {
          "internalType": "uint256",
          "name": "",
          "type": "uint256"
        }
      ],
      "stateMutability": "pure",
      "type": "function"
    },
    {
      "inputs": [],
      "name": "getAdmin",
      "outputs": [
        {
          "internalType": "address",
          "name": "",
          "type": "address"
        }
      ],
      "stateMutability": "view",
      "type": "function"
    },
    {
      "inputs": [],
      "name": "getExpiryTime",
      "outputs": [
        {
          "internalType": "uint256",
          "name": "",
          "type": "uint256"
        }
      ],
      "stateMutability": "view",
      "type": "function"
    },
    {
      "inputs": [],
      "name": "getMaxCommisionRate",
      "outputs": [
        {
          "internalType": "uint256",
          "name": "",
          "type": "uint256"
        }
      ],
      "stateMutability": "view",
      "type": "function"
    },
    {
      "inputs": [],
      "name": "getMerkleRoot",
      "outputs": [
        {
          "internalType": "bytes32",
          "name": "",
          "type": "bytes32"
        }
      ],
      "stateMutability": "view",
      "type": "function"
    },
    {
      "inputs": [],
      "name": "getSigningWallet",
      "outputs": [
        {
          "internalType": "address",
          "name": "",
          "type": "address"
        }
      ],
      "stateMutability": "view",
      "type": "function"
    },
    {
      "inputs": [
        {
          "internalType": "address",
          "name": "who",
          "type": "address"
        }
      ],
      "name": "isMetaTransactionProcessor",
      "outputs": [
        {
          "internalType": "bool",
          "name": "",
          "type": "bool"
        }
      ],
      "stateMutability": "view",
      "type": "function"
    },
    {
      "inputs": [
        {
          "internalType": "bytes",
          "name": "signature",
          "type": "bytes"
        },
        {
          "internalType": "address",
          "name": "referrer",
          "type": "address"
        },
        {
          "internalType": "address",
          "name": "referee",
          "type": "address"
        },
        {
          "internalType": "uint256",
          "name": "expiryTime",
          "type": "uint256"
        },
        {
          "internalType": "uint256",
          "name": "commissionRate",
          "type": "uint256"
        }
      ],
      "name": "isReferralValid",
      "outputs": [
        {
          "internalType": "bool",
          "name": "",
          "type": "bool"
        }
      ],
      "stateMutability": "view",
      "type": "function"
    },
    {
      "inputs": [
        {
          "internalType": "address",
          "name": "",
          "type": "address"
        },
        {
          "internalType": "address",
          "name": "",
          "type": "address"
        },
        {
          "internalType": "uint256[]",
          "name": "",
          "type": "uint256[]"
        },
        {
          "internalType": "uint256[]",
          "name": "",
          "type": "uint256[]"
        },
        {
          "internalType": "bytes",
          "name": "",
          "type": "bytes"
        }
      ],
      "name": "onERC1155BatchReceived",
      "outputs": [
        {
          "internalType": "bytes4",
          "name": "",
          "type": "bytes4"
        }
      ],
      "stateMutability": "pure",
      "type": "function"
    },
    {
      "inputs": [
        {
          "internalType": "address",
          "name": "",
          "type": "address"
        },
        {
          "internalType": "address",
          "name": "",
          "type": "address"
        },
        {
          "internalType": "uint256",
          "name": "",
          "type": "uint256"
        },
        {
          "internalType": "uint256",
          "name": "",
          "type": "uint256"
        },
        {
          "internalType": "bytes",
          "name": "",
          "type": "bytes"
        }
      ],
      "name": "onERC1155Received",
      "outputs": [
        {
          "internalType": "bytes4",
          "name": "",
          "type": "bytes4"
        }
      ],
      "stateMutability": "pure",
      "type": "function"
    },
    {
      "inputs": [
        {
          "internalType": "address",
          "name": "metaTransactionProcessor",
          "type": "address"
        },
        {
          "internalType": "bool",
          "name": "enabled",
          "type": "bool"
        }
      ],
      "name": "setMetaTransactionProcessor",
      "outputs": [],
      "stateMutability": "nonpayable",
      "type": "function"
    },
    {
      "inputs": [
        {
          "internalType": "address payable",
          "name": "newWallet",
          "type": "address"
        }
      ],
      "name": "setReceivingWallet",
      "outputs": [],
      "stateMutability": "nonpayable",
      "type": "function"
    },
    {
      "inputs": [
        {
          "internalType": "uint256",
          "name": "newMaxCommissionRate",
          "type": "uint256"
        }
      ],
      "name": "updateMaxCommissionRate",
      "outputs": [],
      "stateMutability": "nonpayable",
      "type": "function"
    },
    {
      "inputs": [
        {
          "internalType": "address",
          "name": "newSigningWallet",
          "type": "address"
        }
      ],
      "name": "updateSigningWallet",
      "outputs": [],
      "stateMutability": "nonpayable",
      "type": "function"
    },
    {
      "inputs": [
        {
          "internalType": "address",
          "name": "to",
          "type": "address"
        },
        {
          "internalType": "uint256[]",
          "name": "assetIds",
          "type": "uint256[]"
        },
        {
          "internalType": "uint256[]",
          "name": "values",
          "type": "uint256[]"
        }
      ],
      "name": "withdrawAssets",
      "outputs": [],
      "stateMutability": "nonpayable",
      "type": "function"
    }
  ],
  "transactionHash": "0xaf1689310fbc393f3c0797f4d88f3ee4f0133d4e5ff5936534f3505093eda0fc",
  "args": [
    "0x50f5474724e0Ee42D9a4e711ccFB275809Fd6d4a",
    "0x3845badAde8e6dFF049820680d1F14bD3903a5d0",
    "0x3845badAde8e6dFF049820680d1F14bD3903a5d0",
    "0xEAA0993E1d21c2103e4f172a20D29371FbAF6D06",
    "0x4489590a116618B506F0EfE885432F6A8ED998E9",
    "0x7aef61e1f1d62d00cbd13c91d2d7311f6a5ad994395368c7dacc3f6d6ea18305",
    1640264400,
    "0x3044719d139F866a44c988823513eCB93060bF1b",
    2000,
    "0x0000000000000000000000000000000000000000",
    "0xa342f5D851E866E18ff98F351f2c6637f4478dB5",
    "0x0EB04462D69B1D267d269377E34f60b9De1c8510",
    "0x459EA8c295069d4cd16c025b9fa5cA3E4C5AA468"
  ],
  "linkedData": [
    {
      "x": 192,
      "y": 114,
      "size": 1,
      "price": "1011000000000000000000",
      "reserved": "",
      "salt": "0x760ef34530da23bf981ae0715dbba027604c13c643bb33f6c6d6939c00a71d25",
      "assetIds": []
    },
    {
      "x": 192,
      "y": 115,
      "size": 1,
      "price": "1011000000000000000000",
      "reserved": "",
      "salt": "0xb7549f255d3dbc666d07e3c1fdef25c709a4c151b15584a8509c0c983c1d9d9f",
      "assetIds": []
    },
    {
      "x": 192,
      "y": 116,
      "size": 1,
      "price": "1011000000000000000000",
      "reserved": "",
      "salt": "0x8dd5db76e4274ad23a691905db806c77800d84937ddc44642d684aa768545285",
      "assetIds": []
    },
    {
      "x": 192,
      "y": 120,
      "size": 1,
      "price": "1011000000000000000000",
      "reserved": "",
      "salt": "0xec71434d8abc76437dad3a5b35eecf6c4cba342bcf7db14af0ca3261086bcc99",
      "assetIds": []
    },
    {
      "x": 192,
      "y": 121,
      "size": 1,
      "price": "1011000000000000000000",
      "reserved": "",
      "salt": "0x2975b46d5f5b7915a964fd300925741c8f92a6872684789634538067014e78c1",
      "assetIds": []
    },
    {
      "x": 192,
      "y": 122,
      "size": 1,
      "price": "1011000000000000000000",
      "reserved": "",
      "salt": "0xed946df775fbf7674773e6eb2821461bb62255c4dedac71876b12153e73aa733",
      "assetIds": []
    },
    {
      "x": 192,
      "y": 123,
      "size": 1,
      "price": "1011000000000000000000",
      "reserved": "",
      "salt": "0x727bbf3aeb2ac806626eb67979bf59d36c0221cacf00b5c321b1b575cf4f3cb1",
      "assetIds": []
    },
    {
      "x": 192,
      "y": 124,
      "size": 1,
      "price": "1011000000000000000000",
      "reserved": "",
      "salt": "0xafa718d84a6175272ff9754ac0937be9f28b15c0b4e9d623b8b3fcb2a405b332",
      "assetIds": []
    },
    {
      "x": 192,
      "y": 125,
      "size": 1,
      "price": "1011000000000000000000",
      "reserved": "",
      "salt": "0x4d35d5ff97e50673116214019bee969b2fb7bf966fa9b6361fa4cc61c3fafdbc",
      "assetIds": []
    },
    {
      "x": 192,
      "y": 129,
      "size": 1,
      "price": "1011000000000000000000",
      "reserved": "",
      "salt": "0x1504e5ed275f95a18ca6140b292c64cfd3b9aece9fb4464c75d904cde29835ea",
      "assetIds": []
    },
    {
      "x": 192,
      "y": 130,
      "size": 1,
      "price": "1011000000000000000000",
      "reserved": "",
      "salt": "0x0add95069079dc58b3f27654aca8ebfbc450f0897e17612397efc55bb509c392",
      "assetIds": []
    },
    {
      "x": 192,
      "y": 131,
      "size": 1,
      "price": "1011000000000000000000",
      "reserved": "",
      "salt": "0x28365c9a0e50bffa47f7c5996ec3050603d5eb84ede09f61bcb0089f2b16b6dc",
      "assetIds": []
    },
    {
      "x": 193,
      "y": 114,
      "size": 1,
      "price": "1011000000000000000000",
      "reserved": "",
      "salt": "0x406f55a74343d6adf40d677e3168478acb15839eee13909da4d945f69a2ee85b",
      "assetIds": []
    },
    {
      "x": 193,
      "y": 115,
      "size": 1,
      "price": "1011000000000000000000",
      "reserved": "",
      "salt": "0x5577c8a0e42dd85041bdf21ec0495542534dc9162ece7bda5cdbda3e88145a75",
      "assetIds": []
    },
    {
      "x": 193,
      "y": 116,
      "size": 1,
      "price": "1011000000000000000000",
      "reserved": "",
      "salt": "0xd044c1b269b6ffa059db1e6b9d0e5345da38a029cff068c1ec94b8c917aa0b60",
      "assetIds": []
    },
    {
      "x": 193,
      "y": 120,
      "size": 1,
      "price": "1011000000000000000000",
      "reserved": "",
      "salt": "0x10477755a93e254d7c9f65ac3b9d25169cb7df01722d5b7238642b37d4f11c78",
      "assetIds": []
    },
    {
      "x": 193,
      "y": 121,
      "size": 1,
      "price": "1011000000000000000000",
      "reserved": "",
      "salt": "0x50f091ef15a4d16efb00eecba8d9348857b49f44b6a45ccc81bc633a95a9518d",
      "assetIds": []
    },
    {
      "x": 193,
      "y": 122,
      "size": 1,
      "price": "1011000000000000000000",
      "reserved": "",
      "salt": "0xae2e3b0a6f248dee83a06ef409a3e5d31cbfadc5b10d2af227b9abae4428bb16",
      "assetIds": []
    },
    {
      "x": 193,
      "y": 123,
      "size": 1,
      "price": "1011000000000000000000",
      "reserved": "",
      "salt": "0x181832a317071c0935d1450ecdeeb5a40cc558092c79d20e7d9083d22aed657a",
      "assetIds": []
    },
    {
      "x": 193,
      "y": 124,
      "size": 1,
      "price": "1011000000000000000000",
      "reserved": "",
      "salt": "0x460d072fa620ea6d0a3c22348e0daa1e82c4404cfb02b6a67ed45f6bdbe8629f",
      "assetIds": []
    },
    {
      "x": 193,
      "y": 125,
      "size": 1,
      "price": "1011000000000000000000",
      "reserved": "",
      "salt": "0x2205bd02d40c1217cfd8e53dd3b01d0ea0572703e4f4a8d0a2a255a3932c9eb4",
      "assetIds": []
    },
    {
      "x": 193,
      "y": 129,
      "size": 1,
      "price": "1011000000000000000000",
      "reserved": "",
      "salt": "0x08c5b2e06a960f8a2b94ecab82d4f611171626394e7ca5b4a6bc9746a48424ce",
      "assetIds": []
    },
    {
      "x": 193,
      "y": 130,
      "size": 1,
      "price": "1011000000000000000000",
      "reserved": "",
      "salt": "0xb0dfd8a8028d222bbd17793927367726baaa9a2abd0f527f12ec51dab9e98a09",
      "assetIds": []
    },
    {
      "x": 193,
      "y": 131,
      "size": 1,
      "price": "1011000000000000000000",
      "reserved": "",
      "salt": "0x78b720f31b3ea939e2c4da45f38d72ee68215750282391d1ab25cf6a5b0fe2ae",
      "assetIds": []
    },
    {
      "x": 194,
      "y": 114,
      "size": 1,
      "price": "1011000000000000000000",
      "reserved": "",
      "salt": "0xe6bb818b4db138994bc26910b04ccbb9d0a774bad5847682263c690a338a5c0c",
      "assetIds": []
    },
    {
      "x": 194,
      "y": 115,
      "size": 1,
      "price": "1011000000000000000000",
      "reserved": "",
      "salt": "0x99ff320edc16f84a3ed668d1d63a56c428e786d432cd1da95b12640407082cde",
      "assetIds": []
    },
    {
      "x": 194,
      "y": 116,
      "size": 1,
      "price": "1011000000000000000000",
      "reserved": "",
      "salt": "0x5100167e22c35e5172ca4f2eed9ed9ecf8fd65850a1df4f0c322a7ec85292ca6",
      "assetIds": []
    },
    {
      "x": 194,
      "y": 120,
      "size": 1,
      "price": "1011000000000000000000",
      "reserved": "",
      "salt": "0x4b34ea12719e7a220725bc7f8ea7440ebd48ca80021c7303a174d7dd9a82f0ce",
      "assetIds": []
    },
    {
      "x": 194,
      "y": 121,
      "size": 1,
      "price": "1011000000000000000000",
      "reserved": "",
      "salt": "0x737471ca872a113b5ff79719c3b82390553eb9b11c2d1981e9ced2bc13c17519",
      "assetIds": []
    },
    {
      "x": 194,
      "y": 122,
      "size": 1,
      "price": "1011000000000000000000",
      "reserved": "",
      "salt": "0xe5a459a030f6494fe4aa5ef37e7966e7c6f16ae75019e00a0c1bebca1c9a3a9b",
      "assetIds": []
    },
    {
      "x": 194,
      "y": 123,
      "size": 1,
      "price": "1011000000000000000000",
      "reserved": "",
      "salt": "0x30271150031b06a3beb2ca2f3ba335b2fba92dcfbb8f88939fc9647e315a2ea7",
      "assetIds": []
    },
    {
      "x": 194,
      "y": 124,
      "size": 1,
      "price": "1011000000000000000000",
      "reserved": "",
      "salt": "0xe37c40978d967856e0fea58209e74ef6e9c471673625fbc3f57d31a3c24988b5",
      "assetIds": []
    },
    {
      "x": 194,
      "y": 125,
      "size": 1,
      "price": "1011000000000000000000",
      "reserved": "",
      "salt": "0x389c2b6b3037b19b82da99104bf5bc275c545d5272f4e123ce438e50a25734ff",
      "assetIds": []
    },
    {
      "x": 194,
      "y": 129,
      "size": 1,
      "price": "4683000000000000000000",
      "reserved": "",
      "salt": "0x369da89c0a4bb627095d43aabeacdf1a5d956abd51a8bcbf1c1417b394cc06e2",
      "assetIds": [
        "55464657044963196816950587289035428064568320970692304673817341489688059316224",
        "55464657044963196816950587289035428064568320970692304673817341489688277422080",
        "55464657044963196816950587289035428064568320970692304673817341489688285808640",
        "55464657044963196816950587289035428064568320970692304673817341489688294197248"
      ]
    },
    {
      "x": 194,
      "y": 130,
      "size": 1,
      "price": "4683000000000000000000",
      "reserved": "",
      "salt": "0x77ff712b0e8da4f58c1b1191730f83321e3f735716553148baad229c098317a7",
      "assetIds": [
        "55464657044963196816950587289035428064568320970692304673817341489688059316224",
        "55464657044963196816950587289035428064568320970692304673817341489688277422080",
        "55464657044963196816950587289035428064568320970692304673817341489688285808640",
        "55464657044963196816950587289035428064568320970692304673817341489688294197248"
      ]
    },
    {
      "x": 194,
      "y": 131,
      "size": 1,
      "price": "4683000000000000000000",
      "reserved": "",
      "salt": "0x15e979d1a857f79abb051156027ab452b9b4500d8b3f43010e4b32488913ffcb",
      "assetIds": [
        "55464657044963196816950587289035428064568320970692304673817341489688059316224",
        "55464657044963196816950587289035428064568320970692304673817341489688277422080",
        "55464657044963196816950587289035428064568320970692304673817341489688285808640",
        "55464657044963196816950587289035428064568320970692304673817341489688294197248"
      ]
    },
    {
      "x": 195,
      "y": 102,
      "size": 1,
      "price": "1011000000000000000000",
      "reserved": "",
      "salt": "0xb83c5318b762c66fc657a6e279d4077f8949008cc0a7cffc5bb4eb66a84f8230",
      "assetIds": []
    },
    {
      "x": 195,
      "y": 103,
      "size": 1,
      "price": "1011000000000000000000",
      "reserved": "",
      "salt": "0x084e055f4da0e8de8489d4537f628e9da3a6bfa11270c1ae13689c1029d37d8d",
      "assetIds": []
    },
    {
      "x": 195,
      "y": 104,
      "size": 1,
      "price": "1011000000000000000000",
      "reserved": "",
      "salt": "0xdf66f107b9f7c30162f5f6cd4be42c04503bb689c1cb7dde2848da4d0204e987",
      "assetIds": []
    },
    {
      "x": 195,
      "y": 105,
      "size": 1,
      "price": "1011000000000000000000",
      "reserved": "",
      "salt": "0xbcfddaa0ddf4a81d754c1e24781ff64b8da373a8e7739aac0cd068ca0d6762d6",
      "assetIds": []
    },
    {
      "x": 195,
      "y": 106,
      "size": 1,
      "price": "1011000000000000000000",
      "reserved": "",
      "salt": "0x058cbd4eef5f05a756f3edc77eef6ad6157c512cf465e1370ee734c131979536",
      "assetIds": []
    },
    {
      "x": 195,
      "y": 107,
      "size": 1,
      "price": "1011000000000000000000",
      "reserved": "",
      "salt": "0x81674504a0035bb8d9ae78d8f4fdc5a7f985c21261a1446ceb8d8714dc9cbb44",
      "assetIds": []
    },
    {
      "x": 195,
      "y": 114,
      "size": 1,
      "price": "1011000000000000000000",
      "reserved": "",
      "salt": "0x71810cfe0cd113d25950c1057aceba2211dd67dbec292ff720108b5bf430bcae",
      "assetIds": []
    },
    {
      "x": 195,
      "y": 115,
      "size": 1,
      "price": "1011000000000000000000",
      "reserved": "",
      "salt": "0xe3aac1f8dc7d742026eb33d83a204c1c78c0f7314e1ee47424e59279de5fe2d6",
      "assetIds": []
    },
    {
      "x": 195,
      "y": 116,
      "size": 1,
      "price": "1011000000000000000000",
      "reserved": "",
      "salt": "0x1dd298ae7ee5fc70af1e0f2845ad93d33645e73be0f083839ad7617d86d84732",
      "assetIds": []
    },
    {
      "x": 195,
      "y": 117,
      "size": 1,
      "price": "1011000000000000000000",
      "reserved": "",
      "salt": "0xfef2b1e637e0cbcc7162eb51d713ccce179364b6db55cc4d3cce4024e2ec1286",
      "assetIds": []
    },
    {
      "x": 195,
      "y": 118,
      "size": 1,
      "price": "1011000000000000000000",
      "reserved": "",
      "salt": "0x80ca9ff7f110f8a655e242d562a6035648ba3fa4673d49a39b9201856f90d538",
      "assetIds": []
    },
    {
      "x": 195,
      "y": 119,
      "size": 1,
      "price": "1011000000000000000000",
      "reserved": "",
      "salt": "0xd32ad156dd871c0b215f15cb92f15c22f85a9b6447298ebdce1c355cbf3062ff",
      "assetIds": []
    },
    {
      "x": 195,
      "y": 120,
      "size": 1,
      "price": "1011000000000000000000",
      "reserved": "",
      "salt": "0xffc68227fb6aefbff87cd989e5be8ce364fecc6f17eda25979274110f22e1f01",
      "assetIds": []
    },
    {
      "x": 195,
      "y": 121,
      "size": 1,
      "price": "1011000000000000000000",
      "reserved": "",
      "salt": "0x0a746f2cda441391c7c8b9d4f2481597fc1c92fef7cb73ec9ae42af9fa33e633",
      "assetIds": []
    },
    {
      "x": 195,
      "y": 122,
      "size": 1,
      "price": "1011000000000000000000",
      "reserved": "",
      "salt": "0xac37792db50092c4432ef17987a9416b8cb400d7786e8988df35d5c69ee3222e",
      "assetIds": []
    },
    {
      "x": 195,
      "y": 123,
      "size": 1,
      "price": "1011000000000000000000",
      "reserved": "",
      "salt": "0xb0e9542e1324e5f6a9f19e948c810a8d13d92c8d7eed9a80d04a0762533969d7",
      "assetIds": []
    },
    {
      "x": 195,
      "y": 124,
      "size": 1,
      "price": "1011000000000000000000",
      "reserved": "",
      "salt": "0xf4d94e4789e3acb88883adfe91401fc5b609ed9aae7732d9175f028605d0e8cc",
      "assetIds": []
    },
    {
      "x": 195,
      "y": 125,
      "size": 1,
      "price": "1011000000000000000000",
      "reserved": "",
      "salt": "0x6bf63b47a3c410591998db30119527b0b33ac76c61b17a74700070dd05d92dd7",
      "assetIds": []
    },
    {
      "x": 195,
      "y": 126,
      "size": 1,
      "price": "1011000000000000000000",
      "reserved": "",
      "salt": "0xf05432b7733cb68c7a8907baa4abba4132f9cbdc891fb7120aebca34f930a508",
      "assetIds": []
    },
    {
      "x": 195,
      "y": 127,
      "size": 1,
      "price": "1011000000000000000000",
      "reserved": "",
      "salt": "0x307a2585c6b84ee30ddff46067204fb1b4018bcb09e05e555114fe38b6bd321f",
      "assetIds": []
    },
    {
      "x": 195,
      "y": 128,
      "size": 1,
      "price": "4683000000000000000000",
      "reserved": "",
      "salt": "0x3d59245961bf3ca9d0f3f89c4f3d9ce4de2feab06265990e9213a81d30036028",
      "assetIds": [
        "55464657044963196816950587289035428064568320970692304673817341489688059316224",
        "55464657044963196816950587289035428064568320970692304673817341489688277422080",
        "55464657044963196816950587289035428064568320970692304673817341489688285808640",
        "55464657044963196816950587289035428064568320970692304673817341489688294197248"
      ]
    },
    {
      "x": 196,
      "y": 102,
      "size": 1,
      "price": "1011000000000000000000",
      "reserved": "",
      "salt": "0xa55607744f00cabb71e320ef188abf0cdcc80eff9a1784c96f4e3229bb74c3bc",
      "assetIds": []
    },
    {
      "x": 196,
      "y": 103,
      "size": 1,
      "price": "1011000000000000000000",
      "reserved": "",
      "salt": "0x1740bb3c12d4cd5db3acbbf0f323f1c5e96db129dcb281f67068b5573640945c",
      "assetIds": []
    },
    {
      "x": 196,
      "y": 104,
      "size": 1,
      "price": "1011000000000000000000",
      "reserved": "",
      "salt": "0x2710d7f87c0fd03860af3bf42eb1d15afdc1fb256e5bb6233d5f8cee985e612f",
      "assetIds": []
    },
    {
      "x": 196,
      "y": 105,
      "size": 1,
      "price": "1011000000000000000000",
      "reserved": "",
      "salt": "0x37f12c8dd10a6a43216a18c6fe1fd5e1ef6cd6174357199d14c83009da5f1fe4",
      "assetIds": []
    },
    {
      "x": 196,
      "y": 106,
      "size": 1,
      "price": "1011000000000000000000",
      "reserved": "",
      "salt": "0xd27511a4fdf6ffad9cf93e0c8c7f1234e1f1f75f13926a21f427f68aacfc7454",
      "assetIds": []
    },
    {
      "x": 196,
      "y": 107,
      "size": 1,
      "price": "1011000000000000000000",
      "reserved": "",
      "salt": "0xa0881d4cdbf868e62d43771fde5cd60b77ce515e9bdceb5a8a76173000e98768",
      "assetIds": []
    },
    {
      "x": 196,
      "y": 114,
      "size": 1,
      "price": "4683000000000000000000",
      "reserved": "",
      "salt": "0x64a06440cc5a3ac49e8987f7403970a6256324ea07f19c2ca1d1acc989d857e3",
      "assetIds": [
        "55464657044963196816950587289035428064568320970692304673817341489688059316224",
        "55464657044963196816950587289035428064568320970692304673817341489688277422080",
        "55464657044963196816950587289035428064568320970692304673817341489688285808640",
        "55464657044963196816950587289035428064568320970692304673817341489688294197248"
      ]
    },
    {
      "x": 196,
      "y": 115,
      "size": 1,
      "price": "4683000000000000000000",
      "reserved": "",
      "salt": "0xc9a9fceab3c93934031fedf80d99fbd915980f27c2a8d178ae126f13a5a3b0fc",
      "assetIds": [
        "55464657044963196816950587289035428064568320970692304673817341489688059316224",
        "55464657044963196816950587289035428064568320970692304673817341489688277422080",
        "55464657044963196816950587289035428064568320970692304673817341489688285808640",
        "55464657044963196816950587289035428064568320970692304673817341489688294197248"
      ]
    },
    {
      "x": 196,
      "y": 116,
      "size": 1,
      "price": "4683000000000000000000",
      "reserved": "",
      "salt": "0xcb9d6fe416fa3265e248be59bac8613fc570c2e7e374153b9c059893cf30e8af",
      "assetIds": [
        "55464657044963196816950587289035428064568320970692304673817341489688059316224",
        "55464657044963196816950587289035428064568320970692304673817341489688277422080",
        "55464657044963196816950587289035428064568320970692304673817341489688285808640",
        "55464657044963196816950587289035428064568320970692304673817341489688294197248"
      ]
    },
    {
      "x": 196,
      "y": 117,
      "size": 1,
      "price": "4683000000000000000000",
      "reserved": "",
      "salt": "0x432f6db9a2789423edbdb83396408ec9e19516b0081d317d56ce2c12dd4d6045",
      "assetIds": [
        "55464657044963196816950587289035428064568320970692304673817341489688059316224",
        "55464657044963196816950587289035428064568320970692304673817341489688277422080",
        "55464657044963196816950587289035428064568320970692304673817341489688285808640",
        "55464657044963196816950587289035428064568320970692304673817341489688294197248"
      ]
    },
    {
      "x": 196,
      "y": 118,
      "size": 1,
      "price": "4683000000000000000000",
      "reserved": "",
      "salt": "0xc0846da17e537de1fa0108ce2e4471b59c5454ee454674765b98f4b90efe6d8e",
      "assetIds": [
        "55464657044963196816950587289035428064568320970692304673817341489688059316224",
        "55464657044963196816950587289035428064568320970692304673817341489688277422080",
        "55464657044963196816950587289035428064568320970692304673817341489688285808640",
        "55464657044963196816950587289035428064568320970692304673817341489688294197248"
      ]
    },
    {
      "x": 196,
      "y": 119,
      "size": 1,
      "price": "4683000000000000000000",
      "reserved": "",
      "salt": "0x0e02ea7fa219d0347fabc87aa8cec5839d792ddc4ea4ab8a9605f890e9448ad0",
      "assetIds": [
        "55464657044963196816950587289035428064568320970692304673817341489688059316224",
        "55464657044963196816950587289035428064568320970692304673817341489688277422080",
        "55464657044963196816950587289035428064568320970692304673817341489688285808640",
        "55464657044963196816950587289035428064568320970692304673817341489688294197248"
      ]
    },
    {
      "x": 196,
      "y": 120,
      "size": 1,
      "price": "1011000000000000000000",
      "reserved": "",
      "salt": "0x7076cd04a18721adf9e4aef9031e74131f1729f00af1883b635b37b237eda3a2",
      "assetIds": []
    },
    {
      "x": 196,
      "y": 121,
      "size": 1,
      "price": "1011000000000000000000",
      "reserved": "",
      "salt": "0x6f7ac484b5ccaaa80d1fa57dd8cc7b014feaff3ccadf16b1c3b297d23a19a878",
      "assetIds": []
    },
    {
      "x": 196,
      "y": 122,
      "size": 1,
      "price": "1011000000000000000000",
      "reserved": "",
      "salt": "0x13cf9e03c5a1ea2d755e5581a57c3d507781534ab3af453016eab1bca2a69bfc",
      "assetIds": []
    },
    {
      "x": 196,
      "y": 123,
      "size": 1,
      "price": "1011000000000000000000",
      "reserved": "",
      "salt": "0xc0bbe90a7c4441291571fb65387564cb721a01ab020827cf176a15385e8cf05a",
      "assetIds": []
    },
    {
      "x": 196,
      "y": 124,
      "size": 1,
      "price": "1011000000000000000000",
      "reserved": "",
      "salt": "0x88221a5cfe369f481a08039230db66006c3334058985843e80b56ad306018ca5",
      "assetIds": []
    },
    {
      "x": 196,
      "y": 125,
      "size": 1,
      "price": "1011000000000000000000",
      "reserved": "",
      "salt": "0x6a6ad8fe20d225af2cc9ff8f6ecd9ca0dbb49e741ec997670c657cc86a534271",
      "assetIds": []
    },
    {
      "x": 196,
      "y": 126,
      "size": 1,
      "price": "1011000000000000000000",
      "reserved": "",
      "salt": "0x3287ca34b9612c2b9ce31e16b2e7458e1c21ce0f17952ef578a7bdd8c996457f",
      "assetIds": []
    },
    {
      "x": 196,
      "y": 127,
      "size": 1,
      "price": "1011000000000000000000",
      "reserved": "",
      "salt": "0x18c91b46866524cdd25f5d3174863978b85bb0a7ec62a7434a9e1328d8327755",
      "assetIds": []
    },
    {
      "x": 196,
      "y": 128,
      "size": 1,
      "price": "4683000000000000000000",
      "reserved": "",
      "salt": "0x572efd97d1b4b80e518c511583ddfc2c1fbb5f21ea43351a3926b465db37f701",
      "assetIds": [
        "55464657044963196816950587289035428064568320970692304673817341489688059316224",
        "55464657044963196816950587289035428064568320970692304673817341489688277422080",
        "55464657044963196816950587289035428064568320970692304673817341489688285808640",
        "55464657044963196816950587289035428064568320970692304673817341489688294197248"
      ]
    },
    {
      "x": 197,
      "y": 102,
      "size": 1,
      "price": "1011000000000000000000",
      "reserved": "",
      "salt": "0x03b1e254a7dc44b8443b226b90ce249632265795d39af4c839362cd383f9c5b0",
      "assetIds": []
    },
    {
      "x": 197,
      "y": 103,
      "size": 1,
      "price": "1011000000000000000000",
      "reserved": "",
      "salt": "0xe93ffa770816e281101fef13d6d759cb7e7a8195db679e6fa555c48c61e4dda7",
      "assetIds": []
    },
    {
      "x": 197,
      "y": 104,
      "size": 1,
      "price": "1011000000000000000000",
      "reserved": "",
      "salt": "0x6af4503dca513dc3d10425b5c37582272b5fedba55a9cb088cb4ef121be7001a",
      "assetIds": []
    },
    {
      "x": 197,
      "y": 105,
      "size": 1,
      "price": "1011000000000000000000",
      "reserved": "",
      "salt": "0xbee9fbe315baac98aaeac0c168e08b6a06e3ff2fe31f4ed49677e864f911d502",
      "assetIds": []
    },
    {
      "x": 197,
      "y": 106,
      "size": 1,
      "price": "1011000000000000000000",
      "reserved": "",
      "salt": "0x52f5dfcd2c04313d7a4a99c831582e68eb1700ab9e0c79b25a3b9f7c6b82d3c5",
      "assetIds": []
    },
    {
      "x": 197,
      "y": 107,
      "size": 1,
      "price": "1011000000000000000000",
      "reserved": "",
      "salt": "0x905efe80503aa4c2846e4f13567a28181f7ebf722b21c1797a04d7e5005f6562",
      "assetIds": []
    },
    {
      "x": 197,
      "y": 114,
      "size": 1,
      "price": "4683000000000000000000",
      "reserved": "",
      "salt": "0x57f4d7e282ea70be990b029e6b9911f46fb494dc0b67ab0e69fb2446ee98c1fd",
      "assetIds": [
        "55464657044963196816950587289035428064568320970692304673817341489688059316224",
        "55464657044963196816950587289035428064568320970692304673817341489688277422080",
        "55464657044963196816950587289035428064568320970692304673817341489688285808640",
        "55464657044963196816950587289035428064568320970692304673817341489688294197248"
      ]
    },
    {
      "x": 197,
      "y": 115,
      "size": 1,
      "price": "4683000000000000000000",
      "reserved": "",
      "salt": "0x8da64cc5d0d319420082d50d1f52592672e61389d51da18529ca64f060db924b",
      "assetIds": [
        "55464657044963196816950587289035428064568320970692304673817341489688059316224",
        "55464657044963196816950587289035428064568320970692304673817341489688277422080",
        "55464657044963196816950587289035428064568320970692304673817341489688285808640",
        "55464657044963196816950587289035428064568320970692304673817341489688294197248"
      ]
    },
    {
      "x": 197,
      "y": 116,
      "size": 1,
      "price": "4683000000000000000000",
      "reserved": "",
      "salt": "0xfc9c568416856dc7afa9d2e223da947990c7e79c9e6be51bccdd9728fecebf24",
      "assetIds": [
        "55464657044963196816950587289035428064568320970692304673817341489688059316224",
        "55464657044963196816950587289035428064568320970692304673817341489688277422080",
        "55464657044963196816950587289035428064568320970692304673817341489688285808640",
        "55464657044963196816950587289035428064568320970692304673817341489688294197248"
      ]
    },
    {
      "x": 197,
      "y": 117,
      "size": 1,
      "price": "4683000000000000000000",
      "reserved": "",
      "salt": "0x27ea3e107a201526eeb7c81f9ac73d52290e10ae8a3f5706d9e89ffc3afa1099",
      "assetIds": [
        "55464657044963196816950587289035428064568320970692304673817341489688059316224",
        "55464657044963196816950587289035428064568320970692304673817341489688277422080",
        "55464657044963196816950587289035428064568320970692304673817341489688285808640",
        "55464657044963196816950587289035428064568320970692304673817341489688294197248"
      ]
    },
    {
      "x": 197,
      "y": 118,
      "size": 1,
      "price": "4683000000000000000000",
      "reserved": "",
      "salt": "0x3342841bf926adf5500b524b95f9db60d60f62d7689b9d512152ea9dcba73bcb",
      "assetIds": [
        "55464657044963196816950587289035428064568320970692304673817341489688059316224",
        "55464657044963196816950587289035428064568320970692304673817341489688277422080",
        "55464657044963196816950587289035428064568320970692304673817341489688285808640",
        "55464657044963196816950587289035428064568320970692304673817341489688294197248"
      ]
    },
    {
      "x": 197,
      "y": 119,
      "size": 1,
      "price": "4683000000000000000000",
      "reserved": "",
      "salt": "0x1beca6c669379b45f2742ae6b83f01d6b4cb48ac720205e4b5d31538cffb76a5",
      "assetIds": [
        "55464657044963196816950587289035428064568320970692304673817341489688059316224",
        "55464657044963196816950587289035428064568320970692304673817341489688277422080",
        "55464657044963196816950587289035428064568320970692304673817341489688285808640",
        "55464657044963196816950587289035428064568320970692304673817341489688294197248"
      ]
    },
    {
      "x": 197,
      "y": 120,
      "size": 1,
      "price": "4683000000000000000000",
      "reserved": "",
      "salt": "0x5320d1ae6a18c736e04d4ad1abd1920a9f5d69b44249b13b86946d14c3ebf26e",
      "assetIds": [
        "55464657044963196816950587289035428064568320970692304673817341489688059316224",
        "55464657044963196816950587289035428064568320970692304673817341489688277422080",
        "55464657044963196816950587289035428064568320970692304673817341489688285808640",
        "55464657044963196816950587289035428064568320970692304673817341489688294197248"
      ]
    },
    {
      "x": 197,
      "y": 121,
      "size": 1,
      "price": "1011000000000000000000",
      "reserved": "",
      "salt": "0xd325c5736c6f0df94cb56ed0f9bc5b825bd27192a87da7d5b6572cf4df8d4f97",
      "assetIds": []
    },
    {
      "x": 197,
      "y": 122,
      "size": 1,
      "price": "1011000000000000000000",
      "reserved": "",
      "salt": "0xa32b4bab9a63f56fe2e70ed9e69b8fb49439d382efb5edfda3713fae355e34c8",
      "assetIds": []
    },
    {
      "x": 197,
      "y": 123,
      "size": 1,
      "price": "1011000000000000000000",
      "reserved": "",
      "salt": "0x943aef0c119e5490723b842c028a58f9a21d86e422e1a1077ef3ba8761c16ee9",
      "assetIds": []
    },
    {
      "x": 197,
      "y": 124,
      "size": 1,
      "price": "1011000000000000000000",
      "reserved": "",
      "salt": "0x1add7704a1a53dd8aebfea467c6fe854a0cbcfdbe4c25706a60e651512c95c94",
      "assetIds": []
    },
    {
      "x": 197,
      "y": 125,
      "size": 1,
      "price": "1011000000000000000000",
      "reserved": "",
      "salt": "0x02b49e026b954beb55bcc7b503894a281ae0aba775cc994b5f6e0b82d2d54a25",
      "assetIds": []
    },
    {
      "x": 197,
      "y": 126,
      "size": 1,
      "price": "1011000000000000000000",
      "reserved": "",
      "salt": "0xfb7a6e7d440036e1ce03b29d94b12d47cb7a908c6b2ee02afa589f488f953839",
      "assetIds": []
    },
    {
      "x": 197,
      "y": 127,
      "size": 1,
      "price": "1011000000000000000000",
      "reserved": "",
      "salt": "0x5487e48a083151b7ef49b955622ce64e848c2ac60b15b387e6eea1e390e55ded",
      "assetIds": []
    },
    {
      "x": 197,
      "y": 128,
      "size": 1,
      "price": "4683000000000000000000",
      "reserved": "",
      "salt": "0xee863a81b07a0688b4f1c2b151a29b62fdf298b043e80404c2dfac5fff14dc2a",
      "assetIds": [
        "55464657044963196816950587289035428064568320970692304673817341489688059316224",
        "55464657044963196816950587289035428064568320970692304673817341489688277422080",
        "55464657044963196816950587289035428064568320970692304673817341489688285808640",
        "55464657044963196816950587289035428064568320970692304673817341489688294197248"
      ]
    },
    {
      "x": 198,
      "y": 102,
      "size": 1,
      "price": "1011000000000000000000",
      "reserved": "",
      "salt": "0xf452a5c06f0764fc7e8b88fdd9933cb8e999dc1e07ce8910a1c25e49c60800b7",
      "assetIds": []
    },
    {
      "x": 198,
      "y": 103,
      "size": 1,
      "price": "1011000000000000000000",
      "reserved": "",
      "salt": "0x03a32dbc9acc93caa66ada679c56133f7c1d9c530c900719b5efe1e864ffeb4d",
      "assetIds": []
    },
    {
      "x": 198,
      "y": 104,
      "size": 1,
      "price": "1011000000000000000000",
      "reserved": "",
      "salt": "0x78a01220fbb34cb320e33222b03df8b7f3af5b4d20f9291f516f1fd629a1c161",
      "assetIds": []
    },
    {
      "x": 198,
      "y": 105,
      "size": 1,
      "price": "1011000000000000000000",
      "reserved": "",
      "salt": "0xae2cb3d9e7368680ef835c5196cb00bc3d7809a724779331e60133e304cdc5e3",
      "assetIds": []
    },
    {
      "x": 198,
      "y": 106,
      "size": 1,
      "price": "1011000000000000000000",
      "reserved": "",
      "salt": "0xdb96258e16846c9379cca6ce0f367c1f6312ab40c76d47af8dcb9229730d77de",
      "assetIds": []
    },
    {
      "x": 198,
      "y": 107,
      "size": 1,
      "price": "1011000000000000000000",
      "reserved": "",
      "salt": "0x822e782255a15bee4930328f56892e3007fa5e51d64b2f2cd5bf5810fb721672",
      "assetIds": []
    },
    {
      "x": 198,
      "y": 108,
      "size": 1,
      "price": "1011000000000000000000",
      "reserved": "",
      "salt": "0xf61225e37b4ae16727bcce503ba41590ab4f797597460109b6f22c0642e5c393",
      "assetIds": []
    },
    {
      "x": 198,
      "y": 109,
      "size": 1,
      "price": "1011000000000000000000",
      "reserved": "",
      "salt": "0xb6a1317a994ba81b0c2e9a7c533f3c241d60a492b5f3c2f6efa785113a1c8298",
      "assetIds": []
    },
    {
      "x": 198,
      "y": 110,
      "size": 1,
      "price": "1011000000000000000000",
      "reserved": "",
      "salt": "0xe8eea8914216bcd4e9d9ddc381dbe6ae490fef24c0d30141f34e609f3466d9c3",
      "assetIds": []
    },
    {
      "x": 198,
      "y": 111,
      "size": 1,
      "price": "1011000000000000000000",
      "reserved": "",
      "salt": "0x2778b64014de0fdae648a17fa67966a249ca2cc5ac701c551f37c00d1aa98cff",
      "assetIds": []
    },
    {
      "x": 198,
      "y": 112,
      "size": 1,
      "price": "4683000000000000000000",
      "reserved": "",
      "salt": "0xbe7f04d5e600b9440989b4e9570b58e7e28614481246c9e984bbb632a1865ebc",
      "assetIds": [
        "55464657044963196816950587289035428064568320970692304673817341489688059316224",
        "55464657044963196816950587289035428064568320970692304673817341489688277422080",
        "55464657044963196816950587289035428064568320970692304673817341489688285808640",
        "55464657044963196816950587289035428064568320970692304673817341489688294197248"
      ]
    },
    {
      "x": 198,
      "y": 113,
      "size": 1,
      "price": "4683000000000000000000",
      "reserved": "",
      "salt": "0x5a0a4f1fedf059b9bd1652bd31478d85791d2bae40f23d9740a9483a08e31814",
      "assetIds": [
        "55464657044963196816950587289035428064568320970692304673817341489688059316224",
        "55464657044963196816950587289035428064568320970692304673817341489688277422080",
        "55464657044963196816950587289035428064568320970692304673817341489688285808640",
        "55464657044963196816950587289035428064568320970692304673817341489688294197248"
      ]
    },
    {
      "x": 198,
      "y": 123,
      "size": 1,
      "price": "1011000000000000000000",
      "reserved": "",
      "salt": "0x86a1534c77200121866e813b0171481f1cab4d302dc03ef0cab351112a3f8d82",
      "assetIds": []
    },
    {
      "x": 198,
      "y": 124,
      "size": 1,
      "price": "1011000000000000000000",
      "reserved": "",
      "salt": "0xe0d648039eaa20089afcc9755f8871d1941df53fd7a481c1ffeedd292011c6d9",
      "assetIds": []
    },
    {
      "x": 198,
      "y": 125,
      "size": 1,
      "price": "1011000000000000000000",
      "reserved": "",
      "salt": "0x819dcc78e9ce483901fa3d9334fffe07b0353275b67abea0556f2ce5c09fa74b",
      "assetIds": []
    },
    {
      "x": 198,
      "y": 129,
      "size": 1,
      "price": "4683000000000000000000",
      "reserved": "",
      "salt": "0xd3d63cd445ed5ba04e1e7fb27536cc0497d3c65b4f6e97d9dce931d29cc7dcbc",
      "assetIds": [
        "55464657044963196816950587289035428064568320970692304673817341489688059316224",
        "55464657044963196816950587289035428064568320970692304673817341489688277422080",
        "55464657044963196816950587289035428064568320970692304673817341489688285808640",
        "55464657044963196816950587289035428064568320970692304673817341489688294197248"
      ]
    },
    {
      "x": 198,
      "y": 130,
      "size": 1,
      "price": "4683000000000000000000",
      "reserved": "",
      "salt": "0xdadfe0178323a5a161530899aebd5123e92f021bdfa6a00032e9bbdde04819a5",
      "assetIds": [
        "55464657044963196816950587289035428064568320970692304673817341489688059316224",
        "55464657044963196816950587289035428064568320970692304673817341489688277422080",
        "55464657044963196816950587289035428064568320970692304673817341489688285808640",
        "55464657044963196816950587289035428064568320970692304673817341489688294197248"
      ]
    },
    {
      "x": 198,
      "y": 131,
      "size": 1,
      "price": "4683000000000000000000",
      "reserved": "",
      "salt": "0x7e8c5d9385d16e373b76b064c1740daae6fa69b9bd7971955e311052a045a772",
      "assetIds": [
        "55464657044963196816950587289035428064568320970692304673817341489688059316224",
        "55464657044963196816950587289035428064568320970692304673817341489688277422080",
        "55464657044963196816950587289035428064568320970692304673817341489688285808640",
        "55464657044963196816950587289035428064568320970692304673817341489688294197248"
      ]
    },
    {
      "x": 199,
      "y": 102,
      "size": 1,
      "price": "1011000000000000000000",
      "reserved": "",
      "salt": "0xd6ba963280519d2641a4b919059ab9e4063b72f80ea06a321a027ec127bae3be",
      "assetIds": []
    },
    {
      "x": 199,
      "y": 103,
      "size": 1,
      "price": "1011000000000000000000",
      "reserved": "",
      "salt": "0xa1895a72210b9e8774ae5c656091d367cea3b6034fcd1e7ba9062c8dff409017",
      "assetIds": []
    },
    {
      "x": 199,
      "y": 104,
      "size": 1,
      "price": "1011000000000000000000",
      "reserved": "",
      "salt": "0xe984eaa5c0d9d3805fca8c027ec915f56e44dc689f00d053de32a3ac615caba3",
      "assetIds": []
    },
    {
      "x": 199,
      "y": 105,
      "size": 1,
      "price": "1011000000000000000000",
      "reserved": "",
      "salt": "0x415dbb95f5f2cb4e3d36792131f041c875d8f9721c1893405f7ab2ab795a3794",
      "assetIds": []
    },
    {
      "x": 199,
      "y": 106,
      "size": 1,
      "price": "1011000000000000000000",
      "reserved": "",
      "salt": "0x1897cdf717173625466d9fc4cf79e5e35819e32ac46b32ac76f3dc700164ca54",
      "assetIds": []
    },
    {
      "x": 199,
      "y": 107,
      "size": 1,
      "price": "1011000000000000000000",
      "reserved": "",
      "salt": "0x3d65ff63bd16f7e1bc086b2d1deca980c1512216fdb0f7f46473d5bc5053cb95",
      "assetIds": []
    },
    {
      "x": 199,
      "y": 108,
      "size": 1,
      "price": "1011000000000000000000",
      "reserved": "",
      "salt": "0x0ba7c90b552762ed633f7710d386d5cb3702f8444dc13e3f4dd3a18ef3f47cf4",
      "assetIds": []
    },
    {
      "x": 199,
      "y": 109,
      "size": 1,
      "price": "1011000000000000000000",
      "reserved": "",
      "salt": "0x59a7ec01fd1b6f17961af1f3a8fa2f00e9ee17e216a066f2f0ad98f5c5169947",
      "assetIds": []
    },
    {
      "x": 199,
      "y": 110,
      "size": 1,
      "price": "1011000000000000000000",
      "reserved": "",
      "salt": "0x822751b1be4ded906be8e35211702b1c4eba23d94c52cc8a3c7a813efb087bcd",
      "assetIds": []
    },
    {
      "x": 199,
      "y": 111,
      "size": 1,
      "price": "1011000000000000000000",
      "reserved": "",
      "salt": "0x07806ef6c9659863b5960a3b7a5fd67368be0eb30ae516ba956cdabc545aeb2f",
      "assetIds": []
    },
    {
      "x": 199,
      "y": 112,
      "size": 1,
      "price": "4683000000000000000000",
      "reserved": "",
      "salt": "0xb226c888cb16c90eb0bf0a2136b676417c8c538ab7a5a71abb3e5bdd17c45bd3",
      "assetIds": [
        "55464657044963196816950587289035428064568320970692304673817341489688059316224",
        "55464657044963196816950587289035428064568320970692304673817341489688277422080",
        "55464657044963196816950587289035428064568320970692304673817341489688285808640",
        "55464657044963196816950587289035428064568320970692304673817341489688294197248"
      ]
    },
    {
      "x": 199,
      "y": 113,
      "size": 1,
      "price": "4683000000000000000000",
      "reserved": "",
      "salt": "0xeb8fb45e68440c25db7151c4e5b825ee2bb15ce1be50c4bf9136b9eb0e881035",
      "assetIds": [
        "55464657044963196816950587289035428064568320970692304673817341489688059316224",
        "55464657044963196816950587289035428064568320970692304673817341489688277422080",
        "55464657044963196816950587289035428064568320970692304673817341489688285808640",
        "55464657044963196816950587289035428064568320970692304673817341489688294197248"
      ]
    },
    {
      "x": 199,
      "y": 123,
      "size": 1,
      "price": "1011000000000000000000",
      "reserved": "",
      "salt": "0x881173922886e0def159b147359e135a92ba7af062a2e8f9c5a601c011795a24",
      "assetIds": []
    },
    {
      "x": 199,
      "y": 124,
      "size": 1,
      "price": "1011000000000000000000",
      "reserved": "",
      "salt": "0xc585a3bc3d14418b69c404fbc57fe972fbdce8492d0d58fa470bbfb3ebcba162",
      "assetIds": []
    },
    {
      "x": 199,
      "y": 125,
      "size": 1,
      "price": "1011000000000000000000",
      "reserved": "",
      "salt": "0x712d5d2310da9287ecfa649f3b56b0207ea8d7fcea05950176f2fd068ffde61f",
      "assetIds": []
    },
    {
      "x": 199,
      "y": 129,
      "size": 1,
      "price": "1011000000000000000000",
      "reserved": "",
      "salt": "0xe050d05c654494109d497d83846f417b0db2c65980d2139b99b2968c8896c783",
      "assetIds": []
    },
    {
      "x": 199,
      "y": 130,
      "size": 1,
      "price": "1011000000000000000000",
      "reserved": "",
      "salt": "0xe3f879aec5c37046ace059242d3dce2ad925c8d5036786dea52cb65a2d8f620e",
      "assetIds": []
    },
    {
      "x": 199,
      "y": 131,
      "size": 1,
      "price": "1011000000000000000000",
      "reserved": "",
      "salt": "0xe8a315aaca2eda84c91af26789a8d8bc6bc983d09a82a9ae00897297cf99fe18",
      "assetIds": []
    },
    {
      "x": 200,
      "y": 102,
      "size": 1,
      "price": "1011000000000000000000",
      "reserved": "",
      "salt": "0xabef28f6c3fb0b0ef815a52663199b284e40c0f546acaa2632a57f5b52d383ea",
      "assetIds": []
    },
    {
      "x": 200,
      "y": 103,
      "size": 1,
      "price": "1011000000000000000000",
      "reserved": "",
      "salt": "0x0cd43e48485f2ef59ffac5c3f9fcdf2e4ef70a1902660196b313d4ffc04f5432",
      "assetIds": []
    },
    {
      "x": 200,
      "y": 104,
      "size": 1,
      "price": "1011000000000000000000",
      "reserved": "",
      "salt": "0x34ba75bf718edb16b1d828c0be44db2d9bb1996dcaee19c36123ee23d4100195",
      "assetIds": []
    },
    {
      "x": 200,
      "y": 105,
      "size": 1,
      "price": "1011000000000000000000",
      "reserved": "",
      "salt": "0x31b68eff0d727f76ed13d0f3b650a08964cca86bebf44fe35148684807bec1f4",
      "assetIds": []
    },
    {
      "x": 200,
      "y": 106,
      "size": 1,
      "price": "1011000000000000000000",
      "reserved": "",
      "salt": "0x80880ef51dbd6e3154eb78cf5cfcffef730244fab41a0ac56aaf3edbe68d4f83",
      "assetIds": []
    },
    {
      "x": 200,
      "y": 107,
      "size": 1,
      "price": "1011000000000000000000",
      "reserved": "",
      "salt": "0xf9aa8c46f8227060e345b1d8cd5a1cfa93049ef1ff2ac445887ea7756b211f89",
      "assetIds": []
    },
    {
      "x": 200,
      "y": 108,
      "size": 1,
      "price": "1011000000000000000000",
      "reserved": "",
      "salt": "0xbd84d43273ec5ec3112c14bc1954865b78ab9f4c44664cfc70b2654e7fd8bad8",
      "assetIds": []
    },
    {
      "x": 200,
      "y": 109,
      "size": 1,
      "price": "1011000000000000000000",
      "reserved": "",
      "salt": "0x8e1590a77892e6ecaf72b8f2e0ab460fec55ed8b7ded5ba5a3b1dd4f60360ba4",
      "assetIds": []
    },
    {
      "x": 200,
      "y": 110,
      "size": 1,
      "price": "1011000000000000000000",
      "reserved": "",
      "salt": "0x41d479d48f71a9456d572478aa0d7d9f75607a3b6e464f2c6a757d4e153b6c98",
      "assetIds": []
    },
    {
      "x": 200,
      "y": 111,
      "size": 1,
      "price": "1011000000000000000000",
      "reserved": "",
      "salt": "0x5705a49826ac3a08e3c02999ef0742cee61b0fc9ebe215ef6854c6b81c271eee",
      "assetIds": []
    },
    {
      "x": 200,
      "y": 112,
      "size": 1,
      "price": "4683000000000000000000",
      "reserved": "",
      "salt": "0x9861340e0f622622b4fdecf531e4d098ec3262efeeadea158b1e32f7f2efb5fe",
      "assetIds": [
        "55464657044963196816950587289035428064568320970692304673817341489688059316224",
        "55464657044963196816950587289035428064568320970692304673817341489688277422080",
        "55464657044963196816950587289035428064568320970692304673817341489688285808640",
        "55464657044963196816950587289035428064568320970692304673817341489688294197248"
      ]
    },
    {
      "x": 200,
      "y": 113,
      "size": 1,
      "price": "4683000000000000000000",
      "reserved": "",
      "salt": "0xc28164f4ba1de6f24d49df40d15428ac2324401e3bb160e2a24ec16ce93bc4c2",
      "assetIds": [
        "55464657044963196816950587289035428064568320970692304673817341489688059316224",
        "55464657044963196816950587289035428064568320970692304673817341489688277422080",
        "55464657044963196816950587289035428064568320970692304673817341489688285808640",
        "55464657044963196816950587289035428064568320970692304673817341489688294197248"
      ]
    },
    {
      "x": 200,
      "y": 123,
      "size": 1,
      "price": "1011000000000000000000",
      "reserved": "",
      "salt": "0x85f865aade518bdf3fe756dbfd398db55aa9f4c891516989bc9717e4c3a15c94",
      "assetIds": []
    },
    {
      "x": 200,
      "y": 124,
      "size": 1,
      "price": "1011000000000000000000",
      "reserved": "",
      "salt": "0x772ea0e09f63e38de448f1230c1b78de159d3bb4810de7d94344f32dc84ec1b8",
      "assetIds": []
    },
    {
      "x": 200,
      "y": 125,
      "size": 1,
      "price": "1011000000000000000000",
      "reserved": "",
      "salt": "0x31f22381c0519b1fb5e2914985d059f9331eba62785c534e3529f649140ac146",
      "assetIds": []
    },
    {
      "x": 200,
      "y": 129,
      "size": 1,
      "price": "1011000000000000000000",
      "reserved": "",
      "salt": "0x219e15f9daa6d2ea689db2ea07fdbcda4d4eb0db0daee3b54cb4be6eec838a38",
      "assetIds": []
    },
    {
      "x": 200,
      "y": 130,
      "size": 1,
      "price": "1011000000000000000000",
      "reserved": "",
      "salt": "0xe1884316e04c1af29764eda55c066f156941d5faf5aeda1187235dce39865265",
      "assetIds": []
    },
    {
      "x": 200,
      "y": 131,
      "size": 1,
      "price": "1011000000000000000000",
      "reserved": "",
      "salt": "0x3afad1a6973bb9968530b0e65cdb45a03ee42d99d05b5cbf49ea30d8f7c07fcc",
      "assetIds": []
    },
    {
      "x": 201,
      "y": 102,
      "size": 1,
      "price": "1011000000000000000000",
      "reserved": "",
      "salt": "0xa647a271003fe34ae915638d9b43aaf67b0fdb459b9221bc44c338bd21b910cc",
      "assetIds": []
    },
    {
      "x": 201,
      "y": 103,
      "size": 1,
      "price": "1011000000000000000000",
      "reserved": "",
      "salt": "0xccdf753d83971b1331c8193e1d8debad66db81faaf2ef0ce1bccea533cb12625",
      "assetIds": []
    },
    {
      "x": 201,
      "y": 104,
      "size": 1,
      "price": "1011000000000000000000",
      "reserved": "",
      "salt": "0x95d6cae7b8be7609bcc7a48df7b5b882b1e885c1f5f94b902e28798225d95f4d",
      "assetIds": []
    },
    {
      "x": 201,
      "y": 111,
      "size": 1,
      "price": "1011000000000000000000",
      "reserved": "",
      "salt": "0x716b13053a45ebf3333534d42e7063b338e99d6c505c0530d118e317b3b1c0b4",
      "assetIds": []
    },
    {
      "x": 201,
      "y": 112,
      "size": 1,
      "price": "4683000000000000000000",
      "reserved": "",
      "salt": "0x33a50d188fd4ebca1bdde03de189ba4dcdbad79296a5090bf004013d4bd44dd8",
      "assetIds": [
        "55464657044963196816950587289035428064568320970692304673817341489688059316224",
        "55464657044963196816950587289035428064568320970692304673817341489688277422080",
        "55464657044963196816950587289035428064568320970692304673817341489688285808640",
        "55464657044963196816950587289035428064568320970692304673817341489688294197248"
      ]
    },
    {
      "x": 201,
      "y": 113,
      "size": 1,
      "price": "4683000000000000000000",
      "reserved": "",
      "salt": "0xd91ef06d959acbb1f2c6d0bf318ebdebea50f5dc3fc2aed87cd9cb280d3c366c",
      "assetIds": [
        "55464657044963196816950587289035428064568320970692304673817341489688059316224",
        "55464657044963196816950587289035428064568320970692304673817341489688277422080",
        "55464657044963196816950587289035428064568320970692304673817341489688285808640",
        "55464657044963196816950587289035428064568320970692304673817341489688294197248"
      ]
    },
    {
      "x": 201,
      "y": 120,
      "size": 1,
      "price": "4683000000000000000000",
      "reserved": "",
      "salt": "0x3e7c3ee80db20d9d5682ea88788b6ee81b048b1fc674f1acb6c49e347141d40f",
      "assetIds": [
        "55464657044963196816950587289035428064568320970692304673817341489688059316224",
        "55464657044963196816950587289035428064568320970692304673817341489688277422080",
        "55464657044963196816950587289035428064568320970692304673817341489688285808640",
        "55464657044963196816950587289035428064568320970692304673817341489688294197248"
      ]
    },
    {
      "x": 201,
      "y": 121,
      "size": 1,
      "price": "4683000000000000000000",
      "reserved": "",
      "salt": "0xde2235d85148ed6bc1a4848ea484896df87d9a0cd2a7aa3231330cd152cc2e25",
      "assetIds": [
        "55464657044963196816950587289035428064568320970692304673817341489688059316224",
        "55464657044963196816950587289035428064568320970692304673817341489688277422080",
        "55464657044963196816950587289035428064568320970692304673817341489688285808640",
        "55464657044963196816950587289035428064568320970692304673817341489688294197248"
      ]
    },
    {
      "x": 201,
      "y": 122,
      "size": 1,
      "price": "1011000000000000000000",
      "reserved": "",
      "salt": "0xd06698aa75ffaa8a9f7e9299c575235de3b64cd820b9a5cfec87e864bcc6807f",
      "assetIds": []
    },
    {
      "x": 201,
      "y": 126,
      "size": 1,
      "price": "4683000000000000000000",
      "reserved": "",
      "salt": "0xe10bf69228a7b0e0c9da60f9476549efecf15a6a1b0276c8d883813a51eecd25",
      "assetIds": [
        "55464657044963196816950587289035428064568320970692304673817341489688059316224",
        "55464657044963196816950587289035428064568320970692304673817341489688277422080",
        "55464657044963196816950587289035428064568320970692304673817341489688285808640",
        "55464657044963196816950587289035428064568320970692304673817341489688294197248"
      ]
    },
    {
      "x": 201,
      "y": 127,
      "size": 1,
      "price": "4683000000000000000000",
      "reserved": "",
      "salt": "0x767c70970979b20bd9d61b61cccdd8d0900aee1c9cdd9bbc5124170c1ff3426a",
      "assetIds": [
        "55464657044963196816950587289035428064568320970692304673817341489688059316224",
        "55464657044963196816950587289035428064568320970692304673817341489688277422080",
        "55464657044963196816950587289035428064568320970692304673817341489688285808640",
        "55464657044963196816950587289035428064568320970692304673817341489688294197248"
      ]
    },
    {
      "x": 201,
      "y": 128,
      "size": 1,
      "price": "1011000000000000000000",
      "reserved": "",
      "salt": "0xbfa4b02f06b9a0fc276c67ad7a9cf148b1abe1375258ceb8c8b84588eee7130e",
      "assetIds": []
    },
    {
      "x": 201,
      "y": 129,
      "size": 1,
      "price": "1011000000000000000000",
      "reserved": "",
      "salt": "0x2e1693f0750250aedc59fd27d7ddf77929837e490775a6b4fd82dbf8181caaf8",
      "assetIds": []
    },
    {
      "x": 201,
      "y": 130,
      "size": 1,
      "price": "1011000000000000000000",
      "reserved": "",
      "salt": "0xee793db57aab6fc372ac91c7900846919623353c3d7e449dea6fb68d6fa53c66",
      "assetIds": []
    },
    {
      "x": 201,
      "y": 131,
      "size": 1,
      "price": "1011000000000000000000",
      "reserved": "",
      "salt": "0x1fda83a412a1face9905a2c32b3f1491b3cd61707017fb37111392ccbd2b08a3",
      "assetIds": []
    },
    {
      "x": 202,
      "y": 102,
      "size": 1,
      "price": "4683000000000000000000",
      "reserved": "",
      "salt": "0xf984254a333b5ce41fde1e6862efa637e6dd187675974db3a43ef30bdc37c39e",
      "assetIds": [
        "55464657044963196816950587289035428064568320970692304673817341489688059316224",
        "55464657044963196816950587289035428064568320970692304673817341489688277422080",
        "55464657044963196816950587289035428064568320970692304673817341489688285808640",
        "55464657044963196816950587289035428064568320970692304673817341489688294197248"
      ]
    },
    {
      "x": 202,
      "y": 103,
      "size": 1,
      "price": "4683000000000000000000",
      "reserved": "",
      "salt": "0x518ec0b907caa289c6f40d87c6dac5f92a627b2e2cab80b54daeee04b41e5762",
      "assetIds": [
        "55464657044963196816950587289035428064568320970692304673817341489688059316224",
        "55464657044963196816950587289035428064568320970692304673817341489688277422080",
        "55464657044963196816950587289035428064568320970692304673817341489688285808640",
        "55464657044963196816950587289035428064568320970692304673817341489688294197248"
      ]
    },
    {
      "x": 202,
      "y": 104,
      "size": 1,
      "price": "4683000000000000000000",
      "reserved": "",
      "salt": "0x70933065139887ef5ae03f4c3a313c5fb9ed6a66807de7e123818d323cd2856a",
      "assetIds": [
        "55464657044963196816950587289035428064568320970692304673817341489688059316224",
        "55464657044963196816950587289035428064568320970692304673817341489688277422080",
        "55464657044963196816950587289035428064568320970692304673817341489688285808640",
        "55464657044963196816950587289035428064568320970692304673817341489688294197248"
      ]
    },
    {
      "x": 202,
      "y": 111,
      "size": 1,
      "price": "4683000000000000000000",
      "reserved": "",
      "salt": "0x361e027af7b5b9c2d5101ef8690596a4c929b11151de6e5d1e3751201d0de219",
      "assetIds": [
        "55464657044963196816950587289035428064568320970692304673817341489688059316224",
        "55464657044963196816950587289035428064568320970692304673817341489688277422080",
        "55464657044963196816950587289035428064568320970692304673817341489688285808640",
        "55464657044963196816950587289035428064568320970692304673817341489688294197248"
      ]
    },
    {
      "x": 202,
      "y": 112,
      "size": 1,
      "price": "4683000000000000000000",
      "reserved": "",
      "salt": "0xebf23d8bf6c59a8c8129d47ae2f98f8df13b8b8959d7703970e5e260782407f5",
      "assetIds": [
        "55464657044963196816950587289035428064568320970692304673817341489688059316224",
        "55464657044963196816950587289035428064568320970692304673817341489688277422080",
        "55464657044963196816950587289035428064568320970692304673817341489688285808640",
        "55464657044963196816950587289035428064568320970692304673817341489688294197248"
      ]
    },
    {
      "x": 202,
      "y": 113,
      "size": 1,
      "price": "4683000000000000000000",
      "reserved": "",
      "salt": "0x21b8ffc142546fb4cf72a2a4423ce2a4915b135a0942312d01590083db0f963c",
      "assetIds": [
        "55464657044963196816950587289035428064568320970692304673817341489688059316224",
        "55464657044963196816950587289035428064568320970692304673817341489688277422080",
        "55464657044963196816950587289035428064568320970692304673817341489688285808640",
        "55464657044963196816950587289035428064568320970692304673817341489688294197248"
      ]
    },
    {
      "x": 202,
      "y": 120,
      "size": 1,
      "price": "4683000000000000000000",
      "reserved": "",
      "salt": "0x471ba9f7bfb1c2c8b7a3e0557667558508f2030768b4f9c5e8b844d0a8b6d74e",
      "assetIds": [
        "55464657044963196816950587289035428064568320970692304673817341489688059316224",
        "55464657044963196816950587289035428064568320970692304673817341489688277422080",
        "55464657044963196816950587289035428064568320970692304673817341489688285808640",
        "55464657044963196816950587289035428064568320970692304673817341489688294197248"
      ]
    },
    {
      "x": 202,
      "y": 121,
      "size": 1,
      "price": "4683000000000000000000",
      "reserved": "",
      "salt": "0x2a07260ea42ab520cb2964513c67573f20bae4fbe70fffdab929460adbc76d0b",
      "assetIds": [
        "55464657044963196816950587289035428064568320970692304673817341489688059316224",
        "55464657044963196816950587289035428064568320970692304673817341489688277422080",
        "55464657044963196816950587289035428064568320970692304673817341489688285808640",
        "55464657044963196816950587289035428064568320970692304673817341489688294197248"
      ]
    },
    {
      "x": 202,
      "y": 122,
      "size": 1,
      "price": "4683000000000000000000",
      "reserved": "",
      "salt": "0xb76c2b1827b7c546c2becc5ed0897c7dc6e47d6e710b342892451377bc1628c6",
      "assetIds": [
        "55464657044963196816950587289035428064568320970692304673817341489688059316224",
        "55464657044963196816950587289035428064568320970692304673817341489688277422080",
        "55464657044963196816950587289035428064568320970692304673817341489688285808640",
        "55464657044963196816950587289035428064568320970692304673817341489688294197248"
      ]
    },
    {
      "x": 202,
      "y": 126,
      "size": 1,
      "price": "4683000000000000000000",
      "reserved": "",
      "salt": "0xb6a82c8542358ffb460b65cfb1ab0ad3da4f05c104a117ecc39395a78ba2a118",
      "assetIds": [
        "55464657044963196816950587289035428064568320970692304673817341489688059316224",
        "55464657044963196816950587289035428064568320970692304673817341489688277422080",
        "55464657044963196816950587289035428064568320970692304673817341489688285808640",
        "55464657044963196816950587289035428064568320970692304673817341489688294197248"
      ]
    },
    {
      "x": 202,
      "y": 127,
      "size": 1,
      "price": "4683000000000000000000",
      "reserved": "",
      "salt": "0x369b0ceaa10fe264bd89f671e27c12a54df47759336d8faf9f7db7f8513e7c04",
      "assetIds": [
        "55464657044963196816950587289035428064568320970692304673817341489688059316224",
        "55464657044963196816950587289035428064568320970692304673817341489688277422080",
        "55464657044963196816950587289035428064568320970692304673817341489688285808640",
        "55464657044963196816950587289035428064568320970692304673817341489688294197248"
      ]
    },
    {
      "x": 202,
      "y": 128,
      "size": 1,
      "price": "4683000000000000000000",
      "reserved": "",
      "salt": "0x1b01bed702744238e3ed76b7a591fe5839f5cf3ea1de4901fb90ac6c1e2f77f0",
      "assetIds": [
        "55464657044963196816950587289035428064568320970692304673817341489688059316224",
        "55464657044963196816950587289035428064568320970692304673817341489688277422080",
        "55464657044963196816950587289035428064568320970692304673817341489688285808640",
        "55464657044963196816950587289035428064568320970692304673817341489688294197248"
      ]
    },
    {
      "x": 202,
      "y": 129,
      "size": 1,
      "price": "4683000000000000000000",
      "reserved": "",
      "salt": "0x417583f95cd70444c641e0b77efe9a46d9b383b0f301078dc2e06fc6eb5ecda3",
      "assetIds": [
        "55464657044963196816950587289035428064568320970692304673817341489688059316224",
        "55464657044963196816950587289035428064568320970692304673817341489688277422080",
        "55464657044963196816950587289035428064568320970692304673817341489688285808640",
        "55464657044963196816950587289035428064568320970692304673817341489688294197248"
      ]
    },
    {
      "x": 202,
      "y": 130,
      "size": 1,
      "price": "4683000000000000000000",
      "reserved": "",
      "salt": "0xffcc3ca1f9b99d103ccf846cf2427f23a7a1b2ba2187f25e9623f90e3dc50a0b",
      "assetIds": [
        "55464657044963196816950587289035428064568320970692304673817341489688059316224",
        "55464657044963196816950587289035428064568320970692304673817341489688277422080",
        "55464657044963196816950587289035428064568320970692304673817341489688285808640",
        "55464657044963196816950587289035428064568320970692304673817341489688294197248"
      ]
    },
    {
      "x": 202,
      "y": 131,
      "size": 1,
      "price": "4683000000000000000000",
      "reserved": "",
      "salt": "0x3157c4821f8a055215ce99749662a1f19c06966bf4eb3ebbc3eb44f3d900566c",
      "assetIds": [
        "55464657044963196816950587289035428064568320970692304673817341489688059316224",
        "55464657044963196816950587289035428064568320970692304673817341489688277422080",
        "55464657044963196816950587289035428064568320970692304673817341489688285808640",
        "55464657044963196816950587289035428064568320970692304673817341489688294197248"
      ]
    },
    {
      "x": 203,
      "y": 102,
      "size": 1,
      "price": "4683000000000000000000",
      "reserved": "",
      "salt": "0x5cdd52c378a2e42b71ad4ba29b182fbdc35a9257bbadeffcf8585fb25390d278",
      "assetIds": [
        "55464657044963196816950587289035428064568320970692304673817341489688059316224",
        "55464657044963196816950587289035428064568320970692304673817341489688277422080",
        "55464657044963196816950587289035428064568320970692304673817341489688285808640",
        "55464657044963196816950587289035428064568320970692304673817341489688294197248"
      ]
    },
    {
      "x": 203,
      "y": 103,
      "size": 1,
      "price": "4683000000000000000000",
      "reserved": "",
      "salt": "0x757a5570cde7a559480b9ed39042539269f3d5b171ab2bdd6c525759fc54c12e",
      "assetIds": [
        "55464657044963196816950587289035428064568320970692304673817341489688059316224",
        "55464657044963196816950587289035428064568320970692304673817341489688277422080",
        "55464657044963196816950587289035428064568320970692304673817341489688285808640",
        "55464657044963196816950587289035428064568320970692304673817341489688294197248"
      ]
    },
    {
      "x": 203,
      "y": 104,
      "size": 1,
      "price": "4683000000000000000000",
      "reserved": "",
      "salt": "0x3e7369abd826e6d21805eb00ba57ef0a919c531fa393ff12ae24d6c996ded620",
      "assetIds": [
        "55464657044963196816950587289035428064568320970692304673817341489688059316224",
        "55464657044963196816950587289035428064568320970692304673817341489688277422080",
        "55464657044963196816950587289035428064568320970692304673817341489688285808640",
        "55464657044963196816950587289035428064568320970692304673817341489688294197248"
      ]
    },
    {
      "x": 203,
      "y": 111,
      "size": 1,
      "price": "4683000000000000000000",
      "reserved": "",
      "salt": "0x7cd0369808adabc0f1be540d07ce0a7918f8a1acc2a37bd8a692fb32d9f2d60a",
      "assetIds": [
        "55464657044963196816950587289035428064568320970692304673817341489688059316224",
        "55464657044963196816950587289035428064568320970692304673817341489688277422080",
        "55464657044963196816950587289035428064568320970692304673817341489688285808640",
        "55464657044963196816950587289035428064568320970692304673817341489688294197248"
      ]
    },
    {
      "x": 203,
      "y": 112,
      "size": 1,
      "price": "4683000000000000000000",
      "reserved": "",
      "salt": "0xc55e17c10ebdd940c43390e1193b8504c61f41e4c4c01099ee9d5603f5657e7a",
      "assetIds": [
        "55464657044963196816950587289035428064568320970692304673817341489688059316224",
        "55464657044963196816950587289035428064568320970692304673817341489688277422080",
        "55464657044963196816950587289035428064568320970692304673817341489688285808640",
        "55464657044963196816950587289035428064568320970692304673817341489688294197248"
      ]
    },
    {
      "x": 203,
      "y": 113,
      "size": 1,
      "price": "4683000000000000000000",
      "reserved": "",
      "salt": "0x2ef5a8c9aad1f08a16c41cb7858c6c91abf079b8c82e997a30eafc73ea369372",
      "assetIds": [
        "55464657044963196816950587289035428064568320970692304673817341489688059316224",
        "55464657044963196816950587289035428064568320970692304673817341489688277422080",
        "55464657044963196816950587289035428064568320970692304673817341489688285808640",
        "55464657044963196816950587289035428064568320970692304673817341489688294197248"
      ]
    },
    {
      "x": 203,
      "y": 120,
      "size": 1,
      "price": "4683000000000000000000",
      "reserved": "",
      "salt": "0xed56437e3d22a8ba673f47fdd8476a1afdf3d85e98c294d71f7dde52e780e4f9",
      "assetIds": [
        "55464657044963196816950587289035428064568320970692304673817341489688059316224",
        "55464657044963196816950587289035428064568320970692304673817341489688277422080",
        "55464657044963196816950587289035428064568320970692304673817341489688285808640",
        "55464657044963196816950587289035428064568320970692304673817341489688294197248"
      ]
    },
    {
      "x": 203,
      "y": 121,
      "size": 1,
      "price": "4683000000000000000000",
      "reserved": "",
      "salt": "0x0c9ecd00854e76e8037ef80895e419321f90446fddcc401a8886fa610ddeb851",
      "assetIds": [
        "55464657044963196816950587289035428064568320970692304673817341489688059316224",
        "55464657044963196816950587289035428064568320970692304673817341489688277422080",
        "55464657044963196816950587289035428064568320970692304673817341489688285808640",
        "55464657044963196816950587289035428064568320970692304673817341489688294197248"
      ]
    },
    {
      "x": 203,
      "y": 122,
      "size": 1,
      "price": "4683000000000000000000",
      "reserved": "",
      "salt": "0xf38f3778725f9862ccd978af3e187d0a030b1d4a2c75620b0b901ae3f19b76dc",
      "assetIds": [
        "55464657044963196816950587289035428064568320970692304673817341489688059316224",
        "55464657044963196816950587289035428064568320970692304673817341489688277422080",
        "55464657044963196816950587289035428064568320970692304673817341489688285808640",
        "55464657044963196816950587289035428064568320970692304673817341489688294197248"
      ]
    },
    {
      "x": 203,
      "y": 126,
      "size": 1,
      "price": "4683000000000000000000",
      "reserved": "",
      "salt": "0x8a9a5b22cf51e4aa3c893162a1c06c0c4e0a5f02080a0f0495d278e50df095bd",
      "assetIds": [
        "55464657044963196816950587289035428064568320970692304673817341489688059316224",
        "55464657044963196816950587289035428064568320970692304673817341489688277422080",
        "55464657044963196816950587289035428064568320970692304673817341489688285808640",
        "55464657044963196816950587289035428064568320970692304673817341489688294197248"
      ]
    },
    {
      "x": 203,
      "y": 127,
      "size": 1,
      "price": "4683000000000000000000",
      "reserved": "",
      "salt": "0xc3477ce895b474eb6405d8b44476419dd7e7e75c4ab997ef6ddf7b71da791dff",
      "assetIds": [
        "55464657044963196816950587289035428064568320970692304673817341489688059316224",
        "55464657044963196816950587289035428064568320970692304673817341489688277422080",
        "55464657044963196816950587289035428064568320970692304673817341489688285808640",
        "55464657044963196816950587289035428064568320970692304673817341489688294197248"
      ]
    },
    {
      "x": 203,
      "y": 128,
      "size": 1,
      "price": "4683000000000000000000",
      "reserved": "",
      "salt": "0x6a41909e3b05749f4a4cadd860c50291cfb731ef85fcdecfa966543f5c3811c2",
      "assetIds": [
        "55464657044963196816950587289035428064568320970692304673817341489688059316224",
        "55464657044963196816950587289035428064568320970692304673817341489688277422080",
        "55464657044963196816950587289035428064568320970692304673817341489688285808640",
        "55464657044963196816950587289035428064568320970692304673817341489688294197248"
      ]
    },
    {
      "x": 203,
      "y": 129,
      "size": 1,
      "price": "4683000000000000000000",
      "reserved": "",
      "salt": "0xa58a759a0b61a127475cf00532114b031af68e3de4fb0c4a5bb22a4b8c2588f3",
      "assetIds": [
        "55464657044963196816950587289035428064568320970692304673817341489688059316224",
        "55464657044963196816950587289035428064568320970692304673817341489688277422080",
        "55464657044963196816950587289035428064568320970692304673817341489688285808640",
        "55464657044963196816950587289035428064568320970692304673817341489688294197248"
      ]
    },
    {
      "x": 203,
      "y": 130,
      "size": 1,
      "price": "4683000000000000000000",
      "reserved": "",
      "salt": "0xd025992c008182cd8ad7d8007a13b686a8ff1ef27607061eba9e4dd991efd910",
      "assetIds": [
        "55464657044963196816950587289035428064568320970692304673817341489688059316224",
        "55464657044963196816950587289035428064568320970692304673817341489688277422080",
        "55464657044963196816950587289035428064568320970692304673817341489688285808640",
        "55464657044963196816950587289035428064568320970692304673817341489688294197248"
      ]
    },
    {
      "x": 203,
      "y": 131,
      "size": 1,
      "price": "4683000000000000000000",
      "reserved": "",
      "salt": "0x05b0c2f1e8e539b1777c8275cbbf12d971ffd87437e1126bc2adc8a65eabfdf0",
      "assetIds": [
        "55464657044963196816950587289035428064568320970692304673817341489688059316224",
        "55464657044963196816950587289035428064568320970692304673817341489688277422080",
        "55464657044963196816950587289035428064568320970692304673817341489688285808640",
        "55464657044963196816950587289035428064568320970692304673817341489688294197248"
      ]
    },
    {
      "x": 192,
      "y": 117,
      "size": 3,
      "price": "8648000000000000000000",
      "reserved": "0x7a9fe22691c811ea339d9b73150e6911a5343dca",
      "salt": "0xe0c6335ad9a745d00a294201970858a2b4cc75e3bd489adcd57b573a5bebf4cb",
      "assetIds": []
    },
    {
      "x": 192,
      "y": 126,
      "size": 3,
      "price": "8648000000000000000000",
      "reserved": "0x7a9fe22691c811ea339d9b73150e6911a5343dca",
      "salt": "0x8d03af27e1a9ad4008f7d79618116d1641aa07d506e6f2d39cb960dfb0f36500",
      "assetIds": []
    },
    {
      "x": 195,
      "y": 129,
      "size": 3,
      "price": "8648000000000000000000",
      "reserved": "0x7a9fe22691c811ea339d9b73150e6911a5343dca",
      "salt": "0x4fbbe94152fff6a6a76505a5236fca329a6505a1b90623f5240dda2a87dce71c",
      "assetIds": []
    },
    {
      "x": 198,
      "y": 120,
      "size": 3,
      "price": "8648000000000000000000",
      "reserved": "0x7a9fe22691c811ea339d9b73150e6911a5343dca",
      "salt": "0x9e55de775b51eb51675dcda3b974ec652dbd77c1f0a46aad20297fd484f67666",
      "assetIds": []
    },
    {
      "x": 198,
      "y": 126,
      "size": 3,
      "price": "8648000000000000000000",
      "reserved": "0x7a9fe22691c811ea339d9b73150e6911a5343dca",
      "salt": "0x9203507188657a231d3d267f52b0a7f01cdedea7cbdb32b55fcd54813b51a9f0",
      "assetIds": []
    },
    {
      "x": 201,
      "y": 105,
      "size": 3,
      "price": "8648000000000000000000",
      "reserved": "0x7a9fe22691c811ea339d9b73150e6911a5343dca",
      "salt": "0xfba3c2b8c55a356a582f535b69d3e3df695789d48126d2a3a067d79682cdcf94",
      "assetIds": []
    },
    {
      "x": 201,
      "y": 108,
      "size": 3,
      "price": "8648000000000000000000",
      "reserved": "0x7a9fe22691c811ea339d9b73150e6911a5343dca",
      "salt": "0x6dd457d07b239b233e72ca412e70b6e30e8e12cda00f842a2b2dcd7960dc2f5c",
      "assetIds": []
    },
    {
      "x": 201,
      "y": 123,
      "size": 3,
      "price": "8648000000000000000000",
      "reserved": "0x7a9fe22691c811ea339d9b73150e6911a5343dca",
      "salt": "0x8581f380f1ee1cc5a94ac6d5d3ab8ab24b8c81e009d6267aa385a1a294cc7249",
      "assetIds": []
    },
    {
      "x": 186,
      "y": 114,
      "size": 6,
      "price": "32772000000000000000000",
      "reserved": "0x7a9fe22691c811ea339d9b73150e6911a5343dca",
      "salt": "0x574fd0aa2e86e908e69f46550dbf65bb32ecc9d4c0c2f3fae72f08206e1a8f21",
      "assetIds": []
    },
    {
      "x": 198,
      "y": 114,
      "size": 6,
      "price": "32772000000000000000000",
      "reserved": "0x7a9fe22691c811ea339d9b73150e6911a5343dca",
      "salt": "0x98b992a704add58e190c64e57fd926e3dd77bfaaaf2ada599e6e753c0c12d856",
      "assetIds": []
    }
  ],
  "solcInputHash": "e17a5bb930c92aaeeb80a52119ce77b7",
  "bytecode": "0x610160604052620d2f0060055534801561001857600080fd5b506040516200284d3803806200284d83398181016040526101a081101561003e57600080fd5b50805160208201516040830151606080850151608086015160a08088015160c0808a015160e08b01516101008c01516101208d01516101408e01516101608f0151610180909f0151600280546001600160a01b0319166001600160a01b03871617905560038490558e8c1b6001600160601b03199081169099529a8d901b9097169094529a9b999a98999698959793969195909490939091906100e28b600161015d565b600680546001600160a01b039a8b166001600160a01b031991821617909155610140989098526101209690965260008054998916998816999099179098556001600160601b0319606092831b811660e05290821b811660805296901b909516610100525060078054919093169116179055506101c192505050565b6001600160a01b038216600081815260016020908152604091829020805460ff191685151590811790915582519384529083015280517fb21eb88b4e33b3f1281830a7178d74d8aa73220416215726b68ae23d539515cb9281900390910190a15050565b60805160601c60a05160601c60c05160601c60e05160601c6101005160601c61012051610140516126066200024760003980610b3d528061206c525080610b1952806112ec5250806120da525080611841528061199e5250806117f75280611b9d528061210e525080611872528061196f525080610eb25280611c8952506126066000f3fe608060405234801561001057600080fd5b506004361061011b5760003560e01c80638f283970116100b2578063c10a420811610081578063dc5074af11610066578063dc5074af1461085f578063e56f8a9e14610885578063f23a6e61146108a25761011b565b8063c10a420814610780578063caed3500146108575761011b565b80638f28397014610500578063984d625214610526578063b522ecff146105f8578063bc197c811461061e5761011b565b806365194ce7116100ee57806365194ce7146103485780636e9960c3146104a657806377f1c3ac146104ca5780638a04af6a146104d25761011b565b80631187fd3c1461012057806325cb5bc014610300578063495906571461031a57806358bc294414610322575b600080fd5b6102fe600480360361012081101561013757600080fd5b6001600160a01b038235811692602081013582169260408201359092169181019060808101606082013564010000000081111561017357600080fd5b82018360208201111561018557600080fd5b803590602001918460208302840111640100000000831117156101a757600080fd5b919390928235926040810190602001356401000000008111156101c957600080fd5b8201836020820111156101db57600080fd5b803590602001918460208302840111640100000000831117156101fd57600080fd5b91939092909160208101903564010000000081111561021b57600080fd5b82018360208201111561022d57600080fd5b8035906020019184602083028401116401000000008311171561024f57600080fd5b91939092909160208101903564010000000081111561026d57600080fd5b82018360208201111561027f57600080fd5b803590602001918460018302840111640100000000831117156102a157600080fd5b9193909290916020810190356401000000008111156102bf57600080fd5b8201836020820111156102d157600080fd5b803590602001918460018302840111640100000000831117156102f357600080fd5b509092509050610937565b005b610308610b17565b60408051918252519081900360200190f35b610308610b3b565b6102fe6004803603602081101561033857600080fd5b50356001600160a01b0316610b5f565b6103ee6004803603602081101561035e57600080fd5b81019060208101813564010000000081111561037957600080fd5b82018360208201111561038b57600080fd5b803590602001918460018302840111640100000000831117156103ad57600080fd5b91908080601f016020809104026020016040519081016040528093929190818152602001838380828437600092019190915250929550610c0a945050505050565b6040518080602001866001600160a01b03166001600160a01b03168152602001856001600160a01b03166001600160a01b03168152602001848152602001838152602001828103825287818151815260200191508051906020019080838360005b8381101561046757818101518382015260200161044f565b50505050905090810190601f1680156104945780820380516001836020036101000a031916815260200191505b50965050505050505060405180910390f35b6104ae610d0f565b604080516001600160a01b039092168252519081900360200190f35b610308610d1e565b6102fe600480360360408110156104e857600080fd5b506001600160a01b0381351690602001351515610d24565b6102fe6004803603602081101561051657600080fd5b50356001600160a01b0316610d7b565b6102fe6004803603606081101561053c57600080fd5b6001600160a01b03823516919081019060408101602082013564010000000081111561056757600080fd5b82018360208201111561057957600080fd5b8035906020019184602083028401116401000000008311171561059b57600080fd5b9193909290916020810190356401000000008111156105b957600080fd5b8201836020820111156105cb57600080fd5b803590602001918460208302840111640100000000831117156105ed57600080fd5b509092509050610e51565b6102fe6004803603602081101561060e57600080fd5b50356001600160a01b0316610fdc565b61074b600480360360a081101561063457600080fd5b6001600160a01b03823581169260208101359091169181019060608101604082013564010000000081111561066857600080fd5b82018360208201111561067a57600080fd5b8035906020019184602083028401116401000000008311171561069c57600080fd5b9193909290916020810190356401000000008111156106ba57600080fd5b8201836020820111156106cc57600080fd5b803590602001918460208302840111640100000000831117156106ee57600080fd5b91939092909160208101903564010000000081111561070c57600080fd5b82018360208201111561071e57600080fd5b8035906020019184600183028401116401000000008311171561074057600080fd5b5090925090506110c5565b604080517fffffffff000000000000000000000000000000000000000000000000000000009092168252519081900360200190f35b610843600480360360a081101561079657600080fd5b8101906020810181356401000000008111156107b157600080fd5b8201836020820111156107c357600080fd5b803590602001918460018302840111640100000000831117156107e557600080fd5b91908080601f016020809104026020016040519081016040528093929190818152602001838380828437600092019190915250929550506001600160a01b0383358116945060208401351692604081013592506060013590506110f2565b604080519115158252519081900360200190f35b6104ae61122e565b6108436004803603602081101561087557600080fd5b50356001600160a01b031661123d565b6102fe6004803603602081101561089b57600080fd5b503561125b565b61074b600480360360a08110156108b857600080fd5b6001600160a01b03823581169260208101359091169160408201359160608101359181019060a0810160808201356401000000008111156108f857600080fd5b82018360208201111561090a57600080fd5b8035906020019184600183028401116401000000008311171561092c57600080fd5b5090925090506112bf565b6109418e8d6112ea565b610a388d8d8d8d80806020026020016040519081016040528093929190818152602001838360200280828437600081840152601f19601f820116905080830192505050505050508c8c8c80806020026020016040519081016040528093929190818152602001838360200280828437600081840152601f19601f820116905080830192505050505050508b8b8080602002602001604051908101604052809392919081815260200183836020028082843760009201919091525050604080516020601f8d018190048102820181019092528b815292508b91508a908190840183828082843760009201919091525061144d92505050565b610a8c8e8c8c6003818110610a4957fe5b9050602002013586868080601f0160208091040260200160405190810160405280939291908181526020018383808284376000920191909152506117d092505050565b610aca8e8e8d8d8080602002602001604051908101604052809392919081815260200183836020028082843760009201919091525061182192505050565b610b078d898980806020026020016040519081016040528093929190818152602001838360200280828437600092019190915250611c1292505050565b5050505050505050505050505050565b7f000000000000000000000000000000000000000000000000000000000000000090565b7f000000000000000000000000000000000000000000000000000000000000000090565b6000546001600160a01b03163314610bbe576040805162461bcd60e51b815260206004820152601060248201527f53656e646572206e6f742061646d696e00000000000000000000000000000000604482015290519081900360640190fd5b600554600280546001600160a01b03908116600090815260046020526040902042909301909255805473ffffffffffffffffffffffffffffffffffffffff191692909116919091179055565b606060008060008060606000806000808a80602001905160a0811015610c2f57600080fd5b8101908080516040519392919084640100000000821115610c4f57600080fd5b908301906020820185811115610c6457600080fd5b8251640100000000811182820188101715610c7e57600080fd5b82525081516020918201929091019080838360005b83811015610cab578181015183820152602001610c93565b50505050905090810190601f168015610cd85780820380516001836020036101000a031916815260200191505b5060409081526020820151908201516060830151608090930151959f50909d509b5099509197505050505050505091939590929450565b6000546001600160a01b031690565b60035490565b6000546001600160a01b03163314610d6d5760405162461bcd60e51b815260040180806020018281038252602e8152602001806125a3602e913960400191505060405180910390fd5b610d778282611dd6565b5050565b6000546001600160a01b03163314610dda576040805162461bcd60e51b815260206004820152601b60248201527f6f6e6c792061646d696e2063616e206368616e67652061646d696e0000000000604482015290519081900360640190fd5b600054604080516001600160a01b039283168152918316602083015280517f7e644d79422f17c01e4894b5f4f588d331ebfa28653d42ae832dc59e38c9798f9281900390910190a16000805473ffffffffffffffffffffffffffffffffffffffff19166001600160a01b0392909216919091179055565b6000546001600160a01b03163314610eb0576040805162461bcd60e51b815260206004820152600e60248201527f4e4f545f415554484f52495a4544000000000000000000000000000000000000604482015290519081900360640190fd5b7f00000000000000000000000000000000000000000000000000000000000000006001600160a01b0316632eb2c2d63087878787876040518763ffffffff1660e01b815260040180876001600160a01b03166001600160a01b03168152602001866001600160a01b03166001600160a01b031681526020018060200180602001806020018481038452888882818152602001925060200280828437600083820152601f01601f19169091018581038452868152602090810191508790870280828437600081840152601f19601f8201169050808301925050508481038252600081526020016020019950505050505050505050600060405180830381600087803b158015610fbd57600080fd5b505af1158015610fd1573d6000803e3d6000fd5b505050505050505050565b6001600160a01b038116611037576040805162461bcd60e51b815260206004820152600c60248201527f5a45524f5f414444524553530000000000000000000000000000000000000000604482015290519081900360640190fd5b6000546001600160a01b03163314611096576040805162461bcd60e51b815260206004820152600e60248201527f4e4f545f415554484f52495a4544000000000000000000000000000000000000604482015290519081900360640190fd5b6006805473ffffffffffffffffffffffffffffffffffffffff19166001600160a01b0392909216919091179055565b7fbc197c810000000000000000000000000000000000000000000000000000000098975050505050505050565b60006003548211806111155750836001600160a01b0316856001600160a01b0316145b8061111f57508242115b1561112c57506000611225565b60408051606087811b7fffffffffffffffffffffffffffffffffffffffff0000000000000000000000009081166020808501919091529188901b166034830152604882018690526068808301869052835180840390910181526088830184528051908201207f19457468657265756d205369676e6564204d6573736167653a0a33320000000060a884015260c48084018290528451808503909101815260e490930190935281519101206000906111e39089611e58565b6001600160a01b038116600090815260046020526040902054909150421161121057600192505050611225565b6002546001600160a01b039081169116149150505b95945050505050565b6002546001600160a01b031690565b6001600160a01b031660009081526001602052604090205460ff1690565b6000546001600160a01b031633146112ba576040805162461bcd60e51b815260206004820152601060248201527f53656e646572206e6f742061646d696e00000000000000000000000000000000604482015290519081900360640190fd5b600355565b7ff23a6e61000000000000000000000000000000000000000000000000000000009695505050505050565b7f0000000000000000000000000000000000000000000000000000000000000000421061135e576040805162461bcd60e51b815260206004820152600c60248201527f53414c455f49535f4f5645520000000000000000000000000000000000000000604482015290519081900360640190fd5b6001600160a01b03821633148061138457503360009081526001602052604090205460ff165b6113d5576040805162461bcd60e51b815260206004820152600e60248201527f4e4f545f415554484f52495a4544000000000000000000000000000000000000604482015290519081900360640190fd5b6001600160a01b03811615806113fc5750816001600160a01b0316816001600160a01b0316145b610d77576040805162461bcd60e51b815260206004820152600d60248201527f52455345525645445f4c414e4400000000000000000000000000000000000000604482015290519081900360640190fd5b600087878760008151811061145e57fe5b60200260200101518860018151811061147357fe5b60200260200101518960028151811061148857fe5b60200260200101518a60038151811061149d57fe5b60200260200101518a8a60405160200180828051906020019060200280838360005b838110156114d75781810151838201526020016114bf565b50505050905001915050604051602081830303815290604052805190602001208a60405160200180828051906020019060200280838360005b83811015611528578181015183820152602001611510565b5050505090500191505060405160208183030381529060405280519060200120604051602001808a6001600160a01b03166001600160a01b031660601b8152601401896001600160a01b03166001600160a01b031660601b81526014018881526020018781526020018681526020018581526020018481526020018381526020018281526020019950505050505050505050604051602081830303815290604052805190602001209050600760009054906101000a90046001600160a01b03166001600160a01b031663012847ed83836040518363ffffffff1660e01b81526004018080602001838152602001828103825284818151815260200191508051906020019080838360005b8381101561164a578181015183820152602001611632565b50505050905090810190601f1680156116775780820380516001836020036101000a031916815260200191505b50935050505060206040518083038186803b15801561169557600080fd5b505afa1580156116a9573d6000803e3d6000fd5b505050506040513d60208110156116bf57600080fd5b5051611712576040805162461bcd60e51b815260206004820152600c60248201527f494e56414c49445f415554480000000000000000000000000000000000000000604482015290519081900360640190fd5b60006117738760008151811061172457fe5b60200260200101518860018151811061173957fe5b60200260200101518960028151811061174e57fe5b60200260200101518a60038151811061176357fe5b60200260200101518c8b8b611f25565b905061177f8482611fca565b610fd1576040805162461bcd60e51b815260206004820152600c60248201527f494e56414c49445f4c414e440000000000000000000000000000000000000000604482015290519081900360640190fd5b60006117dc8484612095565b60065490915061181b908590839085906001600160a01b03167f00000000000000000000000000000000000000000000000000000000000000006121ee565b50505050565b8060028151811061182e57fe5b60200260200101516001148061186b57507f00000000000000000000000000000000000000000000000000000000000000006001600160a01b0316155b1561196d577f00000000000000000000000000000000000000000000000000000000000000006001600160a01b0316636e1e3bbf83836002815181106118ad57fe5b6020026020010151846000815181106118c257fe5b6020026020010151856001815181106118d757fe5b60200260200101516040518563ffffffff1660e01b815260040180856001600160a01b03166001600160a01b031681526020018481526020018381526020018281526020018060200182810382526000815260200160200195505050505050600060405180830381600087803b15801561195057600080fd5b505af1158015611964573d6000803e3d6000fd5b50505050611b0d565b7f00000000000000000000000000000000000000000000000000000000000000006001600160a01b0316636e1e3bbf7f0000000000000000000000000000000000000000000000000000000000000000836002815181106119ca57fe5b6020026020010151846000815181106119df57fe5b6020026020010151856001815181106119f457fe5b60200260200101518760405160200180826001600160a01b03166001600160a01b031681526020019150506040516020818303038152906040526040518663ffffffff1660e01b815260040180866001600160a01b03166001600160a01b0316815260200185815260200184815260200183815260200180602001828103825283818151815260200191508051906020019080838360005b83811015611aa4578181015183820152602001611a8c565b50505050905090810190601f168015611ad15780820380516001836020036101000a031916815260200191505b509650505050505050600060405180830381600087803b158015611af457600080fd5b505af1158015611b08573d6000803e3d6000fd5b505050505b61019881600181518110611b1d57fe5b60200260200101510281600081518110611b3357fe5b602002602001015101826001600160a01b0316846001600160a01b03167fe4dfa6ac11314892f3029b34a25b1a887da3b1cab2bbf8506d87128ba6e3ac0284600281518110611b7e57fe5b602002602001015185600381518110611b9357fe5b60200260200101517f000000000000000000000000000000000000000000000000000000000000000087600381518110611bc957fe5b602002602001015160405180858152602001848152602001836001600160a01b03166001600160a01b0316815260200182815260200194505050505060405180910390a4505050565b6060815167ffffffffffffffff81118015611c2c57600080fd5b50604051908082528060200260200182016040528015611c56578160200160208202803683370190505b50905060005b8251811015611c86576001828281518110611c7357fe5b6020908102919091010152600101611c5c565b507f00000000000000000000000000000000000000000000000000000000000000006001600160a01b0316632eb2c2d6308585856040518563ffffffff1660e01b815260040180856001600160a01b03166001600160a01b03168152602001846001600160a01b03166001600160a01b03168152602001806020018060200180602001848103845286818151815260200191508051906020019060200280838360005b83811015611d41578181015183820152602001611d29565b50505050905001848103835285818151815260200191508051906020019060200280838360005b83811015611d80578181015183820152602001611d68565b50505050905001848103825260008152602001602001975050505050505050600060405180830381600087803b158015611db957600080fd5b505af1158015611dcd573d6000803e3d6000fd5b50505050505050565b6001600160a01b03821660008181526001602090815260409182902080547fffffffffffffffffffffffffffffffffffffffffffffffffffffffffffffff001685151590811790915582519384529083015280517fb21eb88b4e33b3f1281830a7178d74d8aa73220416215726b68ae23d539515cb9281900390910190a15050565b60008151604114611e6857600080fd5b60208201516040830151606084015160001a601b811015611e8757601b015b8060ff16601b1480611e9c57508060ff16601c145b611ea557600080fd5b6040805160008152602080820180845289905260ff8416828401526060820186905260808201859052915160019260a0808401939192601f1981019281900390910190855afa158015611efc573d6000803e3d6000fd5b5050604051601f1901519450506001600160a01b038416611f1c57600080fd5b50505092915050565b60008787878787878760405160200180888152602001878152602001868152602001858152602001846001600160a01b03166001600160a01b031660601b8152601401838152602001828051906020019060200280838360005b83811015611f97578181015183820152602001611f7f565b50505050905001975050505050505050604051602081830303815290604052805190602001209050979650505050505050565b600081815b8451811015612069576000858281518110611fe657fe5b602002602001015190508083101561202e5782816040516020018083815260200182815260200192505050604051602081830303815290604052805190602001209250612060565b808360405160200180838152602001828152602001925050506040516020818303038152906040528051906020012092505b50600101611fcf565b507f00000000000000000000000000000000000000000000000000000000000000001490505b92915050565b6000806120ba60646120ae85600563ffffffff61247016565b9063ffffffff6124e016565b604080516323b872dd60e01b81526001600160a01b0387811660048301527f0000000000000000000000000000000000000000000000000000000000000000811660248301526044820184905291519293507f0000000000000000000000000000000000000000000000000000000000000000909116916323b872dd916064808201926020929091908290030181600087803b15801561215957600080fd5b505af115801561216d573d6000803e3d6000fd5b505050506040513d602081101561218357600080fd5b50516121d6576040805162461bcd60e51b815260206004820152601360248201527f4645455f5452414e534645525f4641494c454400000000000000000000000000604482015290519081900360640190fd5b6121e6838263ffffffff61254516565b949350505050565b8251819085901561239857606060008060008061220a8a610c0a565b939850919650945092509050600061222586868686866110f2565b156122b35761223f6122378d84612470565b6127106124e0565b9050886001600160a01b0316846001600160a01b0316866001600160a01b03167fac7a699eb95c3c6d390ec4626de17ef9a67b35891efdb197beba7c7fdd45fac48f858760405180848152602001838152602001828152602001935050505060405180910390a46122b08782612545565b96505b801561239157604080516323b872dd60e01b81526001600160a01b038f811660048301528781166024830152604482018490529151918a16916323b872dd916064808201926020929091908290030181600087803b15801561231457600080fd5b505af1158015612328573d6000803e3d6000fd5b505050506040513d602081101561233e57600080fd5b5051612391576040805162461bcd60e51b815260206004820152601960248201527f636f6d6d6973696f6e207472616e73666572206661696c656400000000000000604482015290519081900360640190fd5b5050505050505b604080516323b872dd60e01b81526001600160a01b0389811660048301528681166024830152604482018490529151918416916323b872dd916064808201926020929091908290030181600087803b1580156123f357600080fd5b505af1158015612407573d6000803e3d6000fd5b505050506040513d602081101561241d57600080fd5b5051611dcd576040805162461bcd60e51b815260206004820152601760248201527f7061796d656e74207472616e73666572206661696c6564000000000000000000604482015290519081900360640190fd5b60008261247f5750600061208f565b508181028183828161248d57fe5b041461208f576040805162461bcd60e51b815260206004820152600860248201527f6f766572666c6f77000000000000000000000000000000000000000000000000604482015290519081900360640190fd5b600081612534576040805162461bcd60e51b815260206004820152600960248201527f64697662797a65726f0000000000000000000000000000000000000000000000604482015290519081900360640190fd5b81838161253d57fe5b049392505050565b60008282111561259c576040805162461bcd60e51b815260206004820152600860248201527f756e6465666c6f77000000000000000000000000000000000000000000000000604482015290519081900360640190fd5b5090039056fe6f6e6c792061646d696e2063616e207365747570206d6574615472616e73616374696f6e50726f636573736f7273a2646970667358221220fc9205bafc138c1de206481f144dc3e7818922fbe1a20d2a71392e5e2e413c1a64736f6c63430006050033",
  "devdoc": {
    "methods": {
      "buyLandWithSand(address,address,address,uint256[],bytes32,uint256[],bytes32[],bytes,bytes)": {
        "params": {
          "buyer": "address that perform the payment",
          "info": "[X_INDEX=0] x coordinate of the Land [Y_INDEX=1] y coordinate of the Land [SIZE_INDEX=2] size of the pack of Land to purchase [PRICE_INDEX=3] price in SAND to purchase that Land",
          "proof": "merkleProof for that particular Land",
          "reserved": "the reserved address (if any)",
          "to": "address that will own the purchased Land"
        }
      },
      "changeAdmin(address)": {
        "details": "change the administrator to be `newAdmin`.",
        "params": {
          "newAdmin": "address of the new administrator."
        }
      },
      "getAdmin()": {
        "details": "gives the current administrator of this contract.",
        "returns": {
          "_0": "the current administrator of this contract."
        }
      },
      "getSigningWallet()": {
        "details": "signing wallet authorized for referral",
        "returns": {
          "_0": "the address of the signing wallet"
        }
      },
      "isMetaTransactionProcessor(address)": {
        "details": "check whether address `who` is given meta-transaction execution rights.",
        "params": {
          "who": "The address to query."
        },
        "returns": {
          "_0": "whether the address has meta-transaction execution rights."
        }
      },
      "isReferralValid(bytes,address,address,uint256,uint256)": {
        "params": {
          "commissionRate": "The commissionRate of the referral",
          "expiryTime": "The expiry time of the referral",
          "referee": "The address of the referee",
          "referrer": "The address of the referrer",
          "signature": "The signature to check (signed referral)"
        },
        "returns": {
          "_0": "True if the referral is valid"
        }
      },
      "setMetaTransactionProcessor(address,bool)": {
        "details": "Enable or disable the ability of `metaTransactionProcessor` to perform meta-tx (metaTransactionProcessor rights).",
        "params": {
          "enabled": "set whether the metaTransactionProcessor is enabled or disabled.",
          "metaTransactionProcessor": "address that will be given/removed metaTransactionProcessor rights."
        }
      },
      "setReceivingWallet(address)": {
        "params": {
          "newWallet": "address of the new receiving wallet"
        }
      },
      "updateMaxCommissionRate(uint256)": {
        "details": "Update the maximum commission rate",
        "params": {
          "newMaxCommissionRate": "The new maximum commission rate"
        }
      },
      "updateSigningWallet(address)": {
        "details": "Update the signing wallet",
        "params": {
          "newSigningWallet": "The new address of the signing wallet"
        }
      },
      "withdrawAssets(address,uint256[],uint256[])": {
        "params": {
          "assetIds": "the assetIds to be transferred",
          "to": "intended recipient of the asset tokens",
          "values": "the quantities of the assetIds to be transferred"
        }
      }
    },
    "title": "Estate Sale contract with referral"
  },
  "userdoc": {
    "methods": {
      "buyLandWithSand(address,address,address,uint256[],bytes32,uint256[],bytes32[],bytes,bytes)": {
        "notice": "buy Land with SAND using the merkle proof associated with it"
      },
      "getExpiryTime()": {
        "notice": "Gets the expiry time for the current sale"
      },
      "getMaxCommisionRate()": {
        "notice": "the max commision rate"
      },
      "getMerkleRoot()": {
        "notice": "Gets the Merkle root associated with the current sale"
      },
      "isReferralValid(bytes,address,address,uint256,uint256)": {
        "notice": "Check if a referral is valid"
      },
      "setReceivingWallet(address)": {
        "notice": "set the wallet receiving the proceeds"
      },
      "withdrawAssets(address,uint256[],uint256[])": {
        "notice": "enable Admin to withdraw remaining assets from EstateSaleWithFee contract"
      }
    },
    "notice": "This contract manages the sale of our lands as Estates"
  },
  "storageLayout": {
    "storage": [
      {
        "astId": 13650,
        "contract": "src/solc_0.6/EstateSale/EstateSaleWithAuth.sol:EstateSaleWithAuth",
        "label": "_admin",
        "offset": 0,
        "slot": "0",
        "type": "t_address"
      },
      {
        "astId": 13712,
        "contract": "src/solc_0.6/EstateSale/EstateSaleWithAuth.sol:EstateSaleWithAuth",
        "label": "_metaTransactionContracts",
        "offset": 0,
        "slot": "1",
        "type": "t_mapping(t_address,t_bool)"
      },
      {
        "astId": 11828,
        "contract": "src/solc_0.6/EstateSale/EstateSaleWithAuth.sol:EstateSaleWithAuth",
        "label": "_signingWallet",
        "offset": 0,
        "slot": "2",
        "type": "t_address"
      },
      {
        "astId": 11830,
        "contract": "src/solc_0.6/EstateSale/EstateSaleWithAuth.sol:EstateSaleWithAuth",
        "label": "_maxCommissionRate",
        "offset": 0,
        "slot": "3",
        "type": "t_uint256"
      },
      {
        "astId": 11834,
        "contract": "src/solc_0.6/EstateSale/EstateSaleWithAuth.sol:EstateSaleWithAuth",
        "label": "_previousSigningWallets",
        "offset": 0,
        "slot": "4",
        "type": "t_mapping(t_address,t_uint256)"
      },
      {
        "astId": 11843,
        "contract": "src/solc_0.6/EstateSale/EstateSaleWithAuth.sol:EstateSaleWithAuth",
        "label": "_previousSigningDelay",
        "offset": 0,
        "slot": "5",
        "type": "t_uint256"
      },
      {
        "astId": 7453,
        "contract": "src/solc_0.6/EstateSale/EstateSaleWithAuth.sol:EstateSaleWithAuth",
        "label": "_wallet",
        "offset": 0,
        "slot": "6",
        "type": "t_address_payable"
      },
      {
        "astId": 7455,
        "contract": "src/solc_0.6/EstateSale/EstateSaleWithAuth.sol:EstateSaleWithAuth",
        "label": "_authValidator",
        "offset": 0,
        "slot": "7",
        "type": "t_contract(AuthValidator)6784"
      }
    ],
    "types": {
      "t_address": {
        "encoding": "inplace",
        "label": "address",
        "numberOfBytes": "20"
      },
      "t_address_payable": {
        "encoding": "inplace",
        "label": "address payable",
        "numberOfBytes": "20"
      },
      "t_bool": {
        "encoding": "inplace",
        "label": "bool",
        "numberOfBytes": "1"
      },
      "t_contract(AuthValidator)6784": {
        "encoding": "inplace",
        "label": "contract AuthValidator",
        "numberOfBytes": "20"
      },
      "t_mapping(t_address,t_bool)": {
        "encoding": "mapping",
        "key": "t_address",
        "label": "mapping(address => bool)",
        "numberOfBytes": "32",
        "value": "t_bool"
      },
      "t_mapping(t_address,t_uint256)": {
        "encoding": "mapping",
        "key": "t_address",
        "label": "mapping(address => uint256)",
        "numberOfBytes": "32",
        "value": "t_uint256"
      },
      "t_uint256": {
        "encoding": "inplace",
        "label": "uint256",
        "numberOfBytes": "32"
      }
    }
  }
}