{
  "address": "0x3f1ec7a85d0ff1acabd5c7fD4A9F938C4158AFe1",
  "abi": [
    {
      "inputs": [
        {
          "internalType": "address",
          "name": "landAddress",
          "type": "address"
        },
        {
          "internalType": "address",
          "name": "sandContractAddress",
          "type": "address"
        },
        {
          "internalType": "address",
          "name": "initialMetaTx",
          "type": "address"
        },
        {
          "internalType": "address",
          "name": "admin",
          "type": "address"
        },
        {
          "internalType": "address payable",
          "name": "initialWalletAddress",
          "type": "address"
        },
        {
          "internalType": "bytes32",
          "name": "merkleRoot",
          "type": "bytes32"
        },
        {
          "internalType": "uint256",
          "name": "expiryTime",
          "type": "uint256"
        },
        {
          "internalType": "address",
          "name": "initialSigningWallet",
          "type": "address"
        },
        {
          "internalType": "uint256",
          "name": "initialMaxCommissionRate",
          "type": "uint256"
        },
        {
          "internalType": "address",
          "name": "estate",
          "type": "address"
        },
        {
          "internalType": "address",
          "name": "asset",
          "type": "address"
        },
        {
          "internalType": "address",
          "name": "feeDistributor",
          "type": "address"
        }
      ],
      "stateMutability": "nonpayable",
      "type": "constructor"
    },
    {
      "anonymous": false,
      "inputs": [
        {
          "indexed": false,
          "internalType": "address",
          "name": "oldAdmin",
          "type": "address"
        },
        {
          "indexed": false,
          "internalType": "address",
          "name": "newAdmin",
          "type": "address"
        }
      ],
      "name": "AdminChanged",
      "type": "event"
    },
    {
      "anonymous": false,
      "inputs": [
        {
          "indexed": true,
          "internalType": "address",
          "name": "buyer",
          "type": "address"
        },
        {
          "indexed": true,
          "internalType": "address",
          "name": "to",
          "type": "address"
        },
        {
          "indexed": true,
          "internalType": "uint256",
          "name": "topCornerId",
          "type": "uint256"
        },
        {
          "indexed": false,
          "internalType": "uint256",
          "name": "size",
          "type": "uint256"
        },
        {
          "indexed": false,
          "internalType": "uint256",
          "name": "price",
          "type": "uint256"
        },
        {
          "indexed": false,
          "internalType": "address",
          "name": "token",
          "type": "address"
        },
        {
          "indexed": false,
          "internalType": "uint256",
          "name": "amountPaid",
          "type": "uint256"
        }
      ],
      "name": "LandQuadPurchased",
      "type": "event"
    },
    {
      "anonymous": false,
      "inputs": [
        {
          "indexed": false,
          "internalType": "address",
          "name": "metaTransactionProcessor",
          "type": "address"
        },
        {
          "indexed": false,
          "internalType": "bool",
          "name": "enabled",
          "type": "bool"
        }
      ],
      "name": "MetaTransactionProcessor",
      "type": "event"
    },
    {
      "anonymous": false,
      "inputs": [
        {
          "indexed": true,
          "internalType": "address",
          "name": "referrer",
          "type": "address"
        },
        {
          "indexed": true,
          "internalType": "address",
          "name": "referee",
          "type": "address"
        },
        {
          "indexed": true,
          "internalType": "address",
          "name": "token",
          "type": "address"
        },
        {
          "indexed": false,
          "internalType": "uint256",
          "name": "amount",
          "type": "uint256"
        },
        {
          "indexed": false,
          "internalType": "uint256",
          "name": "commission",
          "type": "uint256"
        },
        {
          "indexed": false,
          "internalType": "uint256",
          "name": "commissionRate",
          "type": "uint256"
        }
      ],
      "name": "ReferralUsed",
      "type": "event"
    },
    {
      "inputs": [
        {
          "internalType": "address",
          "name": "buyer",
          "type": "address"
        },
        {
          "internalType": "address",
          "name": "to",
          "type": "address"
        },
        {
          "internalType": "address",
          "name": "reserved",
          "type": "address"
        },
        {
          "internalType": "uint256",
          "name": "x",
          "type": "uint256"
        },
        {
          "internalType": "uint256",
          "name": "y",
          "type": "uint256"
        },
        {
          "internalType": "uint256",
          "name": "size",
          "type": "uint256"
        },
        {
          "internalType": "uint256",
          "name": "priceInSand",
          "type": "uint256"
        },
        {
          "internalType": "uint256",
          "name": "adjustedPriceInSand",
          "type": "uint256"
        },
        {
          "internalType": "bytes32",
          "name": "salt",
          "type": "bytes32"
        },
        {
          "internalType": "uint256[]",
          "name": "assetIds",
          "type": "uint256[]"
        },
        {
          "internalType": "bytes32[]",
          "name": "proof",
          "type": "bytes32[]"
        },
        {
          "internalType": "bytes",
          "name": "referral",
          "type": "bytes"
        }
      ],
      "name": "buyLandWithSand",
      "outputs": [],
      "stateMutability": "nonpayable",
      "type": "function"
    },
    {
      "inputs": [
        {
          "internalType": "address",
          "name": "newAdmin",
          "type": "address"
        }
      ],
      "name": "changeAdmin",
      "outputs": [],
      "stateMutability": "nonpayable",
      "type": "function"
    },
    {
      "inputs": [
        {
          "internalType": "bytes",
          "name": "referral",
          "type": "bytes"
        }
      ],
      "name": "decodeReferral",
      "outputs": [
        {
          "internalType": "bytes",
          "name": "",
          "type": "bytes"
        },
        {
          "internalType": "address",
          "name": "",
          "type": "address"
        },
        {
          "internalType": "address",
          "name": "",
          "type": "address"
        },
        {
          "internalType": "uint256",
          "name": "",
          "type": "uint256"
        },
        {
          "internalType": "uint256",
          "name": "",
          "type": "uint256"
        }
      ],
      "stateMutability": "pure",
      "type": "function"
    },
    {
      "inputs": [],
      "name": "getAdmin",
      "outputs": [
        {
          "internalType": "address",
          "name": "",
          "type": "address"
        }
      ],
      "stateMutability": "view",
      "type": "function"
    },
    {
      "inputs": [],
      "name": "getExpiryTime",
      "outputs": [
        {
          "internalType": "uint256",
          "name": "",
          "type": "uint256"
        }
      ],
      "stateMutability": "view",
      "type": "function"
    },
    {
      "inputs": [],
      "name": "getMaxCommisionRate",
      "outputs": [
        {
          "internalType": "uint256",
          "name": "",
          "type": "uint256"
        }
      ],
      "stateMutability": "view",
      "type": "function"
    },
    {
      "inputs": [],
      "name": "getMerkleRoot",
      "outputs": [
        {
          "internalType": "bytes32",
          "name": "",
          "type": "bytes32"
        }
      ],
      "stateMutability": "view",
      "type": "function"
    },
    {
      "inputs": [],
      "name": "getSandMultiplier",
      "outputs": [
        {
          "internalType": "uint256",
          "name": "",
          "type": "uint256"
        }
      ],
      "stateMutability": "view",
      "type": "function"
    },
    {
      "inputs": [],
      "name": "getSigningWallet",
      "outputs": [
        {
          "internalType": "address",
          "name": "",
          "type": "address"
        }
      ],
      "stateMutability": "view",
      "type": "function"
    },
    {
      "inputs": [
        {
          "internalType": "address",
          "name": "who",
          "type": "address"
        }
      ],
      "name": "isMetaTransactionProcessor",
      "outputs": [
        {
          "internalType": "bool",
          "name": "",
          "type": "bool"
        }
      ],
      "stateMutability": "view",
      "type": "function"
    },
    {
      "inputs": [
        {
          "internalType": "bytes",
          "name": "signature",
          "type": "bytes"
        },
        {
          "internalType": "address",
          "name": "referrer",
          "type": "address"
        },
        {
          "internalType": "address",
          "name": "referee",
          "type": "address"
        },
        {
          "internalType": "uint256",
          "name": "expiryTime",
          "type": "uint256"
        },
        {
          "internalType": "uint256",
          "name": "commissionRate",
          "type": "uint256"
        }
      ],
      "name": "isReferralValid",
      "outputs": [
        {
          "internalType": "bool",
          "name": "",
          "type": "bool"
        }
      ],
      "stateMutability": "view",
      "type": "function"
    },
    {
      "inputs": [
        {
          "internalType": "address",
          "name": "",
          "type": "address"
        },
        {
          "internalType": "address",
          "name": "",
          "type": "address"
        },
        {
          "internalType": "uint256[]",
          "name": "",
          "type": "uint256[]"
        },
        {
          "internalType": "uint256[]",
          "name": "",
          "type": "uint256[]"
        },
        {
          "internalType": "bytes",
          "name": "",
          "type": "bytes"
        }
      ],
      "name": "onERC1155BatchReceived",
      "outputs": [
        {
          "internalType": "bytes4",
          "name": "",
          "type": "bytes4"
        }
      ],
      "stateMutability": "pure",
      "type": "function"
    },
    {
      "inputs": [
        {
          "internalType": "address",
          "name": "",
          "type": "address"
        },
        {
          "internalType": "address",
          "name": "",
          "type": "address"
        },
        {
          "internalType": "uint256",
          "name": "",
          "type": "uint256"
        },
        {
          "internalType": "uint256",
          "name": "",
          "type": "uint256"
        },
        {
          "internalType": "bytes",
          "name": "",
          "type": "bytes"
        }
      ],
      "name": "onERC1155Received",
      "outputs": [
        {
          "internalType": "bytes4",
          "name": "",
          "type": "bytes4"
        }
      ],
      "stateMutability": "pure",
      "type": "function"
    },
    {
      "inputs": [
        {
          "internalType": "uint256",
          "name": "newMultiplier",
          "type": "uint256"
        }
      ],
      "name": "rebalanceSand",
      "outputs": [],
      "stateMutability": "nonpayable",
      "type": "function"
    },
    {
      "inputs": [
        {
          "internalType": "address",
          "name": "metaTransactionProcessor",
          "type": "address"
        },
        {
          "internalType": "bool",
          "name": "enabled",
          "type": "bool"
        }
      ],
      "name": "setMetaTransactionProcessor",
      "outputs": [],
      "stateMutability": "nonpayable",
      "type": "function"
    },
    {
      "inputs": [
        {
          "internalType": "address payable",
          "name": "newWallet",
          "type": "address"
        }
      ],
      "name": "setReceivingWallet",
      "outputs": [],
      "stateMutability": "nonpayable",
      "type": "function"
    },
    {
      "inputs": [
        {
          "internalType": "uint256",
          "name": "newMaxCommissionRate",
          "type": "uint256"
        }
      ],
      "name": "updateMaxCommissionRate",
      "outputs": [],
      "stateMutability": "nonpayable",
      "type": "function"
    },
    {
      "inputs": [
        {
          "internalType": "address",
          "name": "newSigningWallet",
          "type": "address"
        }
      ],
      "name": "updateSigningWallet",
      "outputs": [],
      "stateMutability": "nonpayable",
      "type": "function"
    },
    {
      "inputs": [
        {
          "internalType": "address",
          "name": "to",
          "type": "address"
        },
        {
          "internalType": "uint256[]",
          "name": "assetIds",
          "type": "uint256[]"
        },
        {
          "internalType": "uint256[]",
          "name": "values",
          "type": "uint256[]"
        }
      ],
      "name": "withdrawAssets",
      "outputs": [],
      "stateMutability": "nonpayable",
      "type": "function"
    }
  ],
  "transactionHash": "0xcb6bb0078f52deff364c248318ba984b2fd65088bd3668f9fa37c7d0b7838de1",
  "args": [
    "0x50f5474724e0Ee42D9a4e711ccFB275809Fd6d4a",
    "0x3845badAde8e6dFF049820680d1F14bD3903a5d0",
    "0x3845badAde8e6dFF049820680d1F14bD3903a5d0",
    "0xEAA0993E1d21c2103e4f172a20D29371FbAF6D06",
    "0x4489590a116618B506F0EfE885432F6A8ED998E9",
    "0x4153f3b9e3d25aa75139ad21256a93a9fb8d91feedcb8a536ba2c95a2428b5e8",
    1625749200,
    "0x3044719d139F866a44c988823513eCB93060bF1b",
    2000,
    "0x0000000000000000000000000000000000000000",
    "0xa342f5D851E866E18ff98F351f2c6637f4478dB5",
    "0x0EB04462D69B1D267d269377E34f60b9De1c8510"
  ],
  "linkedData": [
    {
      "x": 168,
      "y": 396,
      "size": 1,
      "price": "1011000000000000000000",
      "reserved": "",
      "salt": "0x97f4bddc8c6e92d28d5e7a96c7182eb8d10f175d73fa807235ceadc648301fc0",
      "assetIds": []
    },
    {
      "x": 168,
      "y": 397,
      "size": 1,
      "price": "1011000000000000000000",
      "reserved": "",
      "salt": "0xdbad19b7e7c4a0e637bc416fb970e825815c484e228bed225cc92a1d6f87d9b8",
      "assetIds": []
    },
    {
      "x": 168,
      "y": 398,
      "size": 1,
      "price": "1011000000000000000000",
      "reserved": "",
      "salt": "0x898c8a5ae8175afc193b9b44f9bf04b8c3a2a750afe31d1aaa5c52daade91e16",
      "assetIds": []
    },
    {
      "x": 168,
      "y": 399,
      "size": 1,
      "price": "1011000000000000000000",
      "reserved": "",
      "salt": "0x6884f6d4a8642d5aee5cae4839cbc65c7047fffc80c7fa38fbfe2787b2d20016",
      "assetIds": []
    },
    {
      "x": 168,
      "y": 400,
      "size": 1,
      "price": "1011000000000000000000",
      "reserved": "",
      "salt": "0x08bd7a63b6120e96e02b4689c1b5f0c35d8902f8c15514a423a86b26b16630e9",
      "assetIds": []
    },
    {
      "x": 168,
      "y": 401,
      "size": 1,
      "price": "1011000000000000000000",
      "reserved": "",
      "salt": "0x8a86e8456d834fcb613234fccbe9a141a09118f6f09edb5aee0dea060828f483",
      "assetIds": []
    },
    {
      "x": 168,
      "y": 402,
      "size": 1,
      "price": "1011000000000000000000",
      "reserved": "",
      "salt": "0x445bdd4ef3134cce1b4406f047cb259760d8e286b0bcf9ef561117b9b36761c7",
      "assetIds": []
    },
    {
      "x": 168,
      "y": 403,
      "size": 1,
      "price": "1011000000000000000000",
      "reserved": "0x7a9fe22691c811ea339d9b73150e6911a5343dca",
      "salt": "0xa82dcc2c379ec2dab60b771d4bcb3652a312c8e8e174654b46265bad83f29269",
      "assetIds": []
    },
    {
      "x": 168,
      "y": 404,
      "size": 1,
      "price": "1011000000000000000000",
      "reserved": "",
      "salt": "0x0d31b6eaca8bed52a31b6fa3b9baaa56397e7999dcf7696a69e45679841532cf",
      "assetIds": []
    },
    {
      "x": 168,
      "y": 405,
      "size": 1,
      "price": "1011000000000000000000",
      "reserved": "",
      "salt": "0x3426ccd4a3f8c6ae14270ab63c10a73dbee53722814cf0103c6a7f3241d2fa33",
      "assetIds": []
    },
    {
      "x": 168,
      "y": 406,
      "size": 1,
      "price": "1011000000000000000000",
      "reserved": "",
      "salt": "0xe5af8fc1bf9a3f329d53d825bf0b5e3ca39e61875630505da24c7d132e130903",
      "assetIds": []
    },
    {
      "x": 168,
      "y": 407,
      "size": 1,
      "price": "1011000000000000000000",
      "reserved": "",
      "salt": "0x02ad9fda1d580a0f2cd88afdb429673cb543d0c3a02cff539389bfb69f67a113",
      "assetIds": []
    },
    {
      "x": 169,
      "y": 396,
      "size": 1,
      "price": "1011000000000000000000",
      "reserved": "",
      "salt": "0x550ce04ce0fbb75cec60f9aea5c00eceabf8267cff506caf2b61a56f5be548e6",
      "assetIds": []
    },
    {
      "x": 169,
      "y": 397,
      "size": 1,
      "price": "1011000000000000000000",
      "reserved": "0x7a9fe22691c811ea339d9b73150e6911a5343dca",
      "salt": "0x392046f80c5926295aa423301bce236fbccdef1312b03328fd6a10a135b58c20",
      "assetIds": []
    },
    {
      "x": 169,
      "y": 398,
      "size": 1,
      "price": "1011000000000000000000",
      "reserved": "",
      "salt": "0xee5f2971285c1dbac5fa7e658225ad8ec8105e5e282efe5abff04c8b6455af23",
      "assetIds": []
    },
    {
      "x": 169,
      "y": 399,
      "size": 1,
      "price": "1011000000000000000000",
      "reserved": "",
      "salt": "0x8bb4ef802e7ab4d91feabd3c449c2edaeb28a045eaa9290c51d6b5852834e40c",
      "assetIds": []
    },
    {
      "x": 169,
      "y": 400,
      "size": 1,
      "price": "1011000000000000000000",
      "reserved": "0x7a9fe22691c811ea339d9b73150e6911a5343dca",
      "salt": "0x91ea8314d79583e38674fc00619fb9656b8f13848e9691056c2622334facb92b",
      "assetIds": []
    },
    {
      "x": 169,
      "y": 401,
      "size": 1,
      "price": "1011000000000000000000",
      "reserved": "",
      "salt": "0xe19ecea69a543f90179382bf95a925a463b88531734c077aed78d9542e86caa3",
      "assetIds": []
    },
    {
      "x": 169,
      "y": 402,
      "size": 1,
      "price": "1011000000000000000000",
      "reserved": "",
      "salt": "0x7e389566bd67fbf1bf435b9f9863bf714f9c8004698adf75475973af3383cfcf",
      "assetIds": []
    },
    {
      "x": 169,
      "y": 403,
      "size": 1,
      "price": "1011000000000000000000",
      "reserved": "",
      "salt": "0x2e5e48ea6939a9fb2720be5972f3a905e564020aeea003fc1adf695612c7926e",
      "assetIds": []
    },
    {
      "x": 169,
      "y": 404,
      "size": 1,
      "price": "1011000000000000000000",
      "reserved": "",
      "salt": "0xf3b168c87dc89700a17c7e3312b050f0c60e08a8d8178b872c50e56414c9f64b",
      "assetIds": []
    },
    {
      "x": 169,
      "y": 405,
      "size": 1,
      "price": "1011000000000000000000",
      "reserved": "",
      "salt": "0x5a8fe95ed7d8710209fba608556a397217df31c6fcd1a1741e3305a505109f6e",
      "assetIds": []
    },
    {
      "x": 169,
      "y": 406,
      "size": 1,
      "price": "1011000000000000000000",
      "reserved": "",
      "salt": "0x88f6381bb614e44fea66264ac6c5c515c96e9151d24c58e8977b54fe12bc37fb",
      "assetIds": []
    },
    {
      "x": 169,
      "y": 407,
      "size": 1,
      "price": "1011000000000000000000",
      "reserved": "",
      "salt": "0x7e0fa3cd53070ffab548fb6c07f821e7ef4b71dcc3048b32a51c8d82df1e36e2",
      "assetIds": []
    },
    {
      "x": 170,
      "y": 384,
      "size": 1,
      "price": "1011000000000000000000",
      "reserved": "0x7a9fe22691c811ea339d9b73150e6911a5343dca",
      "salt": "0xee381c997fff276838eadd1a6f5e0e618a0dab3a8a0aa21dfefed4826a69d779",
      "assetIds": []
    },
    {
      "x": 170,
      "y": 385,
      "size": 1,
      "price": "1011000000000000000000",
      "reserved": "",
      "salt": "0xe2cad1d3a74f9aff8ff2da12f149821be4d963802d566dafd3d12ba9a9aa1ca6",
      "assetIds": []
    },
    {
      "x": 170,
      "y": 386,
      "size": 1,
      "price": "1011000000000000000000",
      "reserved": "",
      "salt": "0x0437dc00fe740faa856a4b29ed6ca4e6cd46ae7e5fcf29c715b744aac1106ade",
      "assetIds": []
    },
    {
      "x": 170,
      "y": 387,
      "size": 1,
      "price": "1011000000000000000000",
      "reserved": "",
      "salt": "0xa8d0e0890dfa64accbf8fa3ace9f80a3bf056a53b663dacb64409710d275d61f",
      "assetIds": []
    },
    {
      "x": 170,
      "y": 388,
      "size": 1,
      "price": "1011000000000000000000",
      "reserved": "",
      "salt": "0xa3ee8ae2c28bb792407b1ece1b7bf816bd09155e7cf56dd17a53fe4b6808ae84",
      "assetIds": []
    },
    {
      "x": 170,
      "y": 389,
      "size": 1,
      "price": "1011000000000000000000",
      "reserved": "",
      "salt": "0xd00c73b0279061a565613085b38d5e2e893a069e0b3c27e999a3f87c166fbebe",
      "assetIds": []
    },
    {
      "x": 170,
      "y": 390,
      "size": 1,
      "price": "1011000000000000000000",
      "reserved": "",
      "salt": "0x10a30cbe3744b313710153328bbb479e517e6ca705a83b969c8e6b20adce74f3",
      "assetIds": []
    },
    {
      "x": 170,
      "y": 391,
      "size": 1,
      "price": "1011000000000000000000",
      "reserved": "",
      "salt": "0x96fc6cec2c531f577c68d42a70c1863e21cb33efcddd873a5590d306be2abfe6",
      "assetIds": []
    },
    {
      "x": 170,
      "y": 392,
      "size": 1,
      "price": "1011000000000000000000",
      "reserved": "",
      "salt": "0xa3ad8be60a01aa64e35cbb5b55fd2fd1e8f8d44287a180ac5beddea5f349e8ab",
      "assetIds": []
    },
    {
      "x": 170,
      "y": 393,
      "size": 1,
      "price": "1011000000000000000000",
      "reserved": "0x7a9fe22691c811ea339d9b73150e6911a5343dca",
      "salt": "0x5fd6ac665aa2468838e911047099310725c096dbed69ff6c1558447e42eec10a",
      "assetIds": []
    },
    {
      "x": 170,
      "y": 394,
      "size": 1,
      "price": "1011000000000000000000",
      "reserved": "",
      "salt": "0x8ca04d298bd40be4e656703444203f68752c471dd54786ac0263a6877b722a75",
      "assetIds": []
    },
    {
      "x": 170,
      "y": 395,
      "size": 1,
      "price": "1011000000000000000000",
      "reserved": "",
      "salt": "0x344c0d8bef2b0ceda0c6c4819ac56bd5d3303e2dfa34415fb6283cee98e905b0",
      "assetIds": []
    },
    {
      "x": 170,
      "y": 396,
      "size": 1,
      "price": "1011000000000000000000",
      "reserved": "",
      "salt": "0x858888a04058ded1539a8fe3a655313bd25e043a5a03308a9f4271209e575059",
      "assetIds": []
    },
    {
      "x": 170,
      "y": 397,
      "size": 1,
      "price": "1011000000000000000000",
      "reserved": "",
      "salt": "0x1c21e18e3a0ada97da60315b27890f8451b2af855436359dce65274e490a0fce",
      "assetIds": []
    },
    {
      "x": 170,
      "y": 398,
      "size": 1,
      "price": "1011000000000000000000",
      "reserved": "",
      "salt": "0x227f481d01a25ac1ba9497cd0701c5b8b7dbace9bb2227dee87a31431fed8e65",
      "assetIds": []
    },
    {
      "x": 170,
      "y": 399,
      "size": 1,
      "price": "1011000000000000000000",
      "reserved": "",
      "salt": "0x5e42065e7123356868e8d44848c3569e5a63536f41a7e8ab7ca808f6944af636",
      "assetIds": []
    },
    {
      "x": 170,
      "y": 400,
      "size": 1,
      "price": "1011000000000000000000",
      "reserved": "",
      "salt": "0x35940d61a4ad9d20c12a120b7062943dcb38c71deffd6418d5216905406ae1d7",
      "assetIds": []
    },
    {
      "x": 170,
      "y": 401,
      "size": 1,
      "price": "1011000000000000000000",
      "reserved": "",
      "salt": "0x2f1225a04ef5098882b31e44906acbb192957f97a81d809ed7f420355b50b8b5",
      "assetIds": []
    },
    {
      "x": 170,
      "y": 402,
      "size": 1,
      "price": "1011000000000000000000",
      "reserved": "",
      "salt": "0x2e0dc42430135887dcfe85c591271ff717d0120f3155f3392754957329ee523e",
      "assetIds": []
    },
    {
      "x": 170,
      "y": 403,
      "size": 1,
      "price": "1011000000000000000000",
      "reserved": "",
      "salt": "0xc4807c2d5d663fdd53294c93b1739da7fbe8c5ec77a71f33eccd1770924c7324",
      "assetIds": []
    },
    {
      "x": 170,
      "y": 404,
      "size": 1,
      "price": "1011000000000000000000",
      "reserved": "",
      "salt": "0x6c34997793f519065e68133e6d3c9381d8f321a67adeb5b283b7be9b333c85a6",
      "assetIds": []
    },
    {
      "x": 170,
      "y": 405,
      "size": 1,
      "price": "1011000000000000000000",
      "reserved": "",
      "salt": "0xf441d1a5d426b2c1184468274d896c479e0a2ce734f63fce279a454a95938f7e",
      "assetIds": []
    },
    {
      "x": 170,
      "y": 406,
      "size": 1,
      "price": "1011000000000000000000",
      "reserved": "0x7a9fe22691c811ea339d9b73150e6911a5343dca",
      "salt": "0xc0999eb87caadf9ae07fe41cbaa5715aaad136ca64ceea722713ab619677a0b4",
      "assetIds": []
    },
    {
      "x": 170,
      "y": 407,
      "size": 1,
      "price": "1011000000000000000000",
      "reserved": "",
      "salt": "0x683a1727b8e865db92648409c14bc625abad6b97f948ed6278b7f35c3be8c41c",
      "assetIds": []
    },
    {
      "x": 171,
      "y": 384,
      "size": 1,
      "price": "1011000000000000000000",
      "reserved": "",
      "salt": "0x4075c499485309e2bb53d05d64f77bd85a8489757607f24bccf57a34d2bbf74c",
      "assetIds": []
    },
    {
      "x": 171,
      "y": 385,
      "size": 1,
      "price": "1011000000000000000000",
      "reserved": "",
      "salt": "0x74a356a4b03edb836cc4e46d48dcaaae3c605f79ed436910a24777c79ec8c92b",
      "assetIds": []
    },
    {
      "x": 171,
      "y": 386,
      "size": 1,
      "price": "1011000000000000000000",
      "reserved": "",
      "salt": "0xc54743a00496d2f774a9d9e125ea978cd9053ea76483d9ae0371454d27162dec",
      "assetIds": []
    },
    {
      "x": 171,
      "y": 387,
      "size": 1,
      "price": "1011000000000000000000",
      "reserved": "0x7a9fe22691c811ea339d9b73150e6911a5343dca",
      "salt": "0x8c215d77bf8db106edcc1a7540500e53c385f33986febbdc5f78c35b69a8aaa3",
      "assetIds": []
    },
    {
      "x": 171,
      "y": 388,
      "size": 1,
      "price": "1011000000000000000000",
      "reserved": "",
      "salt": "0xe37a1747384c60231ad61b208afbf60419a9312d4edb76a21106df524abf72f1",
      "assetIds": []
    },
    {
      "x": 171,
      "y": 389,
      "size": 1,
      "price": "1011000000000000000000",
      "reserved": "",
      "salt": "0x03d2bd2cc2d2d1f3e589ae1cb1529eb84a3e493dedc01a32da4a288f496ee024",
      "assetIds": []
    },
    {
      "x": 171,
      "y": 390,
      "size": 1,
      "price": "1011000000000000000000",
      "reserved": "",
      "salt": "0x6a1b6d221191d7312ff06084be3ad0b5bb3d70ade4ad6e12f8fce2c94194d00a",
      "assetIds": []
    },
    {
      "x": 171,
      "y": 391,
      "size": 1,
      "price": "1011000000000000000000",
      "reserved": "",
      "salt": "0x4c571c5ce1be10c49b6ae786eac14c7b73c795c7f3bf0a7606d39f46c1997a72",
      "assetIds": []
    },
    {
      "x": 171,
      "y": 392,
      "size": 1,
      "price": "1011000000000000000000",
      "reserved": "",
      "salt": "0xb39d5c05a953fe4ef104aee70030db5bc6d3981b3338e268177f454986f2d87b",
      "assetIds": []
    },
    {
      "x": 171,
      "y": 396,
      "size": 1,
      "price": "1011000000000000000000",
      "reserved": "",
      "salt": "0x7e2f4fe596dbbc4a981eb1f1dbadb535f2d74530df607742743738a4cde28bb3",
      "assetIds": []
    },
    {
      "x": 171,
      "y": 397,
      "size": 1,
      "price": "1011000000000000000000",
      "reserved": "",
      "salt": "0x1aab2423ed2e4ecd6ba7fe61247be96b02c10497641c857d68992456e48a4a48",
      "assetIds": []
    },
    {
      "x": 171,
      "y": 398,
      "size": 1,
      "price": "1011000000000000000000",
      "reserved": "",
      "salt": "0xa1d73d43e34da3fd3725da82e4059e34c57a44268e571ee6f49d4503fc202564",
      "assetIds": []
    },
    {
      "x": 171,
      "y": 399,
      "size": 1,
      "price": "1011000000000000000000",
      "reserved": "0x7a9fe22691c811ea339d9b73150e6911a5343dca",
      "salt": "0xc5af201ec6da32284a229b8bc1af017639c0175f1f351534b8d7118cec3e8148",
      "assetIds": []
    },
    {
      "x": 171,
      "y": 400,
      "size": 1,
      "price": "1011000000000000000000",
      "reserved": "",
      "salt": "0x35cbc746add1d9a84266b2c402749b2b1183d450634e6315979a6cd3d059cc75",
      "assetIds": []
    },
    {
      "x": 171,
      "y": 401,
      "size": 1,
      "price": "1011000000000000000000",
      "reserved": "",
      "salt": "0xe0b847af5e147a43d756c4bce4247b6325ce88d214f1621504d72b4e3b35f76f",
      "assetIds": []
    },
    {
      "x": 171,
      "y": 402,
      "size": 1,
      "price": "1011000000000000000000",
      "reserved": "",
      "salt": "0xc6d0fe788eeb9bf58717e36bfc7865e18edb9bd4c75788125b7d201c54eb8ddc",
      "assetIds": []
    },
    {
      "x": 171,
      "y": 403,
      "size": 1,
      "price": "1011000000000000000000",
      "reserved": "",
      "salt": "0xa0c5241b8cea709a6e3ff6516b9b7dcb8f2c1fe951ebdb4b94fa93a4e0630e11",
      "assetIds": []
    },
    {
      "x": 171,
      "y": 404,
      "size": 1,
      "price": "1011000000000000000000",
      "reserved": "",
      "salt": "0x2502b7d52ac6f2fd457b974319d64d0156148ab5c554060ad197ab65750cdd85",
      "assetIds": []
    },
    {
      "x": 171,
      "y": 405,
      "size": 1,
      "price": "1011000000000000000000",
      "reserved": "",
      "salt": "0x47a755cf343b02fc12588fd2df89c91714515b88971c23456135dbf9f8a9737e",
      "assetIds": []
    },
    {
      "x": 171,
      "y": 406,
      "size": 1,
      "price": "1011000000000000000000",
      "reserved": "",
      "salt": "0x9079dc211c01243fe5e83e97f97ba9c08a5c27c2bc170f320ab630643f9a926b",
      "assetIds": []
    },
    {
      "x": 171,
      "y": 407,
      "size": 1,
      "price": "1011000000000000000000",
      "reserved": "",
      "salt": "0x1c59f02fd1e3fb198139de6d7b5383471b88590c0bdd70d8091cdb62923fd83e",
      "assetIds": []
    },
    {
      "x": 172,
      "y": 384,
      "size": 1,
      "price": "1011000000000000000000",
      "reserved": "",
      "salt": "0x810773e25eef427dad1b57797232f4aff982e7a4a9cd8c2241728920ca05294c",
      "assetIds": []
    },
    {
      "x": 172,
      "y": 385,
      "size": 1,
      "price": "1011000000000000000000",
      "reserved": "",
      "salt": "0x0ac1e426ab854b3a746d9937576e7985c8a0fdeade72271154e6c96e351cc332",
      "assetIds": []
    },
    {
      "x": 172,
      "y": 386,
      "size": 1,
      "price": "1011000000000000000000",
      "reserved": "",
      "salt": "0x3c49f0595c22816463d94b8bd3696f397fff8a9a41585686c84c82f55efe9ddb",
      "assetIds": []
    },
    {
      "x": 172,
      "y": 387,
      "size": 1,
      "price": "1011000000000000000000",
      "reserved": "",
      "salt": "0xfe3b44f738ecb5209e69ec86d9d39e7eff6d96732889a5d34121d431d7ae35a6",
      "assetIds": []
    },
    {
      "x": 172,
      "y": 388,
      "size": 1,
      "price": "1011000000000000000000",
      "reserved": "",
      "salt": "0xe19322085851723d420492d2b654c0fa79d769aeba531f93d56f1aa60228f870",
      "assetIds": []
    },
    {
      "x": 172,
      "y": 389,
      "size": 1,
      "price": "1011000000000000000000",
      "reserved": "",
      "salt": "0x9758e71e376864c30679caf097236ded1bb700272a10f69d8d4d249ed2d85dfb",
      "assetIds": []
    },
    {
      "x": 172,
      "y": 390,
      "size": 1,
      "price": "1011000000000000000000",
      "reserved": "",
      "salt": "0xc09884f361e9e669ec4e9a7ffdb8101dba70888eb2fb9cc9f7c03b519c66d6da",
      "assetIds": []
    },
    {
      "x": 172,
      "y": 391,
      "size": 1,
      "price": "1011000000000000000000",
      "reserved": "0x7a9fe22691c811ea339d9b73150e6911a5343dca",
      "salt": "0x74dada45e301eb767b3a6b75148ae63f2ad2eaf0198bc2d1ce29b7ec4a2ccd37",
      "assetIds": []
    },
    {
      "x": 172,
      "y": 392,
      "size": 1,
      "price": "1011000000000000000000",
      "reserved": "",
      "salt": "0x8f91e616ed2c883f4d1e793d20781973b195ce05339cfd54751067a0d6425eea",
      "assetIds": []
    },
    {
      "x": 172,
      "y": 396,
      "size": 1,
      "price": "1011000000000000000000",
      "reserved": "",
      "salt": "0xdce1ce700cbf4345b562df9f0be9a67d93d4e4a2ece585df99f1af6702d1f8f9",
      "assetIds": []
    },
    {
      "x": 172,
      "y": 397,
      "size": 1,
      "price": "1011000000000000000000",
      "reserved": "",
      "salt": "0x0402ddf305e5aca17dba08d6a7edba7c475f107e2f7f0b4ff07ec0a448613ed8",
      "assetIds": []
    },
    {
      "x": 172,
      "y": 398,
      "size": 1,
      "price": "1011000000000000000000",
      "reserved": "",
      "salt": "0xeb7bb7b2de6e51e79d1d7017105a5f2c424d9e7ee830db822eccb9f139b005ba",
      "assetIds": []
    },
    {
      "x": 172,
      "y": 399,
      "size": 1,
      "price": "4683000000000000000000",
      "reserved": "",
      "salt": "0x74c82d8c4480856291464bc35d6c1a132e7a9bde7a2d6dcc3b77c31754a802d8",
      "assetIds": [
        "55464657044963196816950587289035428064568320970692304673817341489687790884865",
        "55464657044963196816950587289035428064568320970692304673817341489687782494208",
        "55464657044963196816950587289035428064568320970692304673817341489687790884866",
        "55464657044963196816950587289035428064568320970692304673817341489687782494209",
        "55464657044963196816950587289035428064568320970692304673817341489687790884864"
      ]
    },
    {
      "x": 172,
      "y": 400,
      "size": 1,
      "price": "4683000000000000000000",
      "reserved": "",
      "salt": "0xd3be2aa9dd8742f4492c41bc40adae1475d2997874eab3cb49fb2177934496fb",
      "assetIds": [
        "55464657044963196816950587289035428064568320970692304673817341489687790884865",
        "55464657044963196816950587289035428064568320970692304673817341489687782494208",
        "55464657044963196816950587289035428064568320970692304673817341489687790884866",
        "55464657044963196816950587289035428064568320970692304673817341489687782494209",
        "55464657044963196816950587289035428064568320970692304673817341489687790884864"
      ]
    },
    {
      "x": 172,
      "y": 401,
      "size": 1,
      "price": "4683000000000000000000",
      "reserved": "",
      "salt": "0x1490489c918be24c2e29ec461dbcf4f19d23f73292409271de235153e64fef2f",
      "assetIds": [
        "55464657044963196816950587289035428064568320970692304673817341489687790884865",
        "55464657044963196816950587289035428064568320970692304673817341489687782494208",
        "55464657044963196816950587289035428064568320970692304673817341489687790884866",
        "55464657044963196816950587289035428064568320970692304673817341489687782494209",
        "55464657044963196816950587289035428064568320970692304673817341489687790884864"
      ]
    },
    {
      "x": 172,
      "y": 402,
      "size": 1,
      "price": "1011000000000000000000",
      "reserved": "",
      "salt": "0xfd3b5ee7d11c2681a19860289cc6f0eb449c7081c81b9a48432a0a1844b9a35b",
      "assetIds": []
    },
    {
      "x": 172,
      "y": 403,
      "size": 1,
      "price": "1011000000000000000000",
      "reserved": "",
      "salt": "0x583765c2cdad225ca5a1e1ba382d720c943db4faa0f274d66b589c3ed8647135",
      "assetIds": []
    },
    {
      "x": 172,
      "y": 404,
      "size": 1,
      "price": "1011000000000000000000",
      "reserved": "0x7a9fe22691c811ea339d9b73150e6911a5343dca",
      "salt": "0xaa92922abb50dd0bbeb4a8e50b0685457afaf3a98b1cb73eda97111467ce0265",
      "assetIds": []
    },
    {
      "x": 172,
      "y": 405,
      "size": 1,
      "price": "1011000000000000000000",
      "reserved": "",
      "salt": "0x8b0c4b0332cf3a1b18212d5ca8cb44e0d0cd7f0aced40cd422f845877c65672d",
      "assetIds": []
    },
    {
      "x": 172,
      "y": 406,
      "size": 1,
      "price": "1011000000000000000000",
      "reserved": "",
      "salt": "0xa9af715b8f7cc227e479ceab108a1cf564a35f39fc295c9f103bd594f1c5e973",
      "assetIds": []
    },
    {
      "x": 172,
      "y": 407,
      "size": 1,
      "price": "1011000000000000000000",
      "reserved": "",
      "salt": "0x6b3003aaac156cb066913b8258978c060067c1219215132ded07ae437fabe7a2",
      "assetIds": []
    },
    {
      "x": 173,
      "y": 384,
      "size": 1,
      "price": "1011000000000000000000",
      "reserved": "",
      "salt": "0x6ff2c30118b126a45f874bdf48b868704c2278f61298058a8e077bcb7db08eac",
      "assetIds": []
    },
    {
      "x": 173,
      "y": 385,
      "size": 1,
      "price": "1011000000000000000000",
      "reserved": "",
      "salt": "0xb5b6185e87361ce65b1271072101ff20386b478c78a3a12b11572f939f28f89b",
      "assetIds": []
    },
    {
      "x": 173,
      "y": 386,
      "size": 1,
      "price": "1011000000000000000000",
      "reserved": "0x7a9fe22691c811ea339d9b73150e6911a5343dca",
      "salt": "0x8ac749b76f7112325f8e745e3d83fb9017d81f3b7e857fb04861ef9b3af4d607",
      "assetIds": []
    },
    {
      "x": 173,
      "y": 387,
      "size": 1,
      "price": "1011000000000000000000",
      "reserved": "",
      "salt": "0x4458eb350e3bb25c8e57e7e00fc7df18500867826b5264b682676864edcbc44a",
      "assetIds": []
    },
    {
      "x": 173,
      "y": 388,
      "size": 1,
      "price": "1011000000000000000000",
      "reserved": "",
      "salt": "0x13906f8bf0d6e1a2a4343be0d25c90c953f213d53754a512997d644041310bfe",
      "assetIds": []
    },
    {
      "x": 173,
      "y": 389,
      "size": 1,
      "price": "1011000000000000000000",
      "reserved": "0x7a9fe22691c811ea339d9b73150e6911a5343dca",
      "salt": "0x99460badb38a85f539af645e8803c48bf1268603605a207dc2538c251120d3d0",
      "assetIds": []
    },
    {
      "x": 173,
      "y": 390,
      "size": 1,
      "price": "1011000000000000000000",
      "reserved": "",
      "salt": "0x55ac370ca7a2975a0235142510ec52c15fe3d61cf27b28c016cf2d2627bf036d",
      "assetIds": []
    },
    {
      "x": 173,
      "y": 391,
      "size": 1,
      "price": "1011000000000000000000",
      "reserved": "",
      "salt": "0xb31bbd75b80e064824cd6276fd6947b6da111eae09e3cef87629a97d8bafe65b",
      "assetIds": []
    },
    {
      "x": 173,
      "y": 392,
      "size": 1,
      "price": "1011000000000000000000",
      "reserved": "",
      "salt": "0x278e6459031acf3892f8c66efc68528261a87c25bd67143a48219945bebe7cc5",
      "assetIds": []
    },
    {
      "x": 173,
      "y": 396,
      "size": 1,
      "price": "4683000000000000000000",
      "reserved": "",
      "salt": "0x74ac7f7fa6f7a8adb818e16fd2ebfd5f647f106265e86e14b886ca9a224d52b6",
      "assetIds": [
        "55464657044963196816950587289035428064568320970692304673817341489687790884865",
        "55464657044963196816950587289035428064568320970692304673817341489687782494208",
        "55464657044963196816950587289035428064568320970692304673817341489687790884866",
        "55464657044963196816950587289035428064568320970692304673817341489687782494209",
        "55464657044963196816950587289035428064568320970692304673817341489687790884864"
      ]
    },
    {
      "x": 173,
      "y": 397,
      "size": 1,
      "price": "4683000000000000000000",
      "reserved": "",
      "salt": "0xf95c1cd4794ab5a72b6ff1900255af6d0d9ebf13e61e914e9cf178df40ff85d4",
      "assetIds": [
        "55464657044963196816950587289035428064568320970692304673817341489687790884865",
        "55464657044963196816950587289035428064568320970692304673817341489687782494208",
        "55464657044963196816950587289035428064568320970692304673817341489687790884866",
        "55464657044963196816950587289035428064568320970692304673817341489687782494209",
        "55464657044963196816950587289035428064568320970692304673817341489687790884864"
      ]
    },
    {
      "x": 173,
      "y": 398,
      "size": 1,
      "price": "4683000000000000000000",
      "reserved": "",
      "salt": "0x6f69536d15d4a7b36abb171e421039785b4d8373d86162cacdc918004813d0d9",
      "assetIds": [
        "55464657044963196816950587289035428064568320970692304673817341489687790884865",
        "55464657044963196816950587289035428064568320970692304673817341489687782494208",
        "55464657044963196816950587289035428064568320970692304673817341489687790884866",
        "55464657044963196816950587289035428064568320970692304673817341489687782494209",
        "55464657044963196816950587289035428064568320970692304673817341489687790884864"
      ]
    },
    {
      "x": 173,
      "y": 399,
      "size": 1,
      "price": "4683000000000000000000",
      "reserved": "",
      "salt": "0xc2c86afd962a748ddbafee9686499f1cd58a680c0c6284af50692b9b51e426df",
      "assetIds": [
        "55464657044963196816950587289035428064568320970692304673817341489687790884865",
        "55464657044963196816950587289035428064568320970692304673817341489687782494208",
        "55464657044963196816950587289035428064568320970692304673817341489687790884866",
        "55464657044963196816950587289035428064568320970692304673817341489687782494209",
        "55464657044963196816950587289035428064568320970692304673817341489687790884864"
      ]
    },
    {
      "x": 173,
      "y": 400,
      "size": 1,
      "price": "4683000000000000000000",
      "reserved": "",
      "salt": "0x3311f046b53fd3e86b30d3bcf5104f6170cf0cebfe5c55e9c2c1a9b28b5cf86f",
      "assetIds": [
        "55464657044963196816950587289035428064568320970692304673817341489687790884865",
        "55464657044963196816950587289035428064568320970692304673817341489687782494208",
        "55464657044963196816950587289035428064568320970692304673817341489687790884866",
        "55464657044963196816950587289035428064568320970692304673817341489687782494209",
        "55464657044963196816950587289035428064568320970692304673817341489687790884864"
      ]
    },
    {
      "x": 173,
      "y": 401,
      "size": 1,
      "price": "4683000000000000000000",
      "reserved": "",
      "salt": "0x88a83be1e04be4d47ab7e34b756b3962ce5d6cd614e2991dbe4d50d14ce63a49",
      "assetIds": [
        "55464657044963196816950587289035428064568320970692304673817341489687790884865",
        "55464657044963196816950587289035428064568320970692304673817341489687782494208",
        "55464657044963196816950587289035428064568320970692304673817341489687790884866",
        "55464657044963196816950587289035428064568320970692304673817341489687782494209",
        "55464657044963196816950587289035428064568320970692304673817341489687790884864"
      ]
    },
    {
      "x": 173,
      "y": 402,
      "size": 1,
      "price": "1011000000000000000000",
      "reserved": "",
      "salt": "0x3328e5b93c81c276f2556d2ecca101e626ad9aa6d881082b1e6bcfc6e8a6cb89",
      "assetIds": []
    },
    {
      "x": 173,
      "y": 403,
      "size": 1,
      "price": "1011000000000000000000",
      "reserved": "",
      "salt": "0x71fc54c61c438f99cda163b35d225ff17b0d549e9aadbc4114d3964a7d77d13c",
      "assetIds": []
    },
    {
      "x": 173,
      "y": 404,
      "size": 1,
      "price": "1011000000000000000000",
      "reserved": "",
      "salt": "0x4809275939c7296d0015b3dd17f858f6fd527639da9ef45a78c7e4719fdd49b4",
      "assetIds": []
    },
    {
      "x": 173,
      "y": 405,
      "size": 1,
      "price": "1011000000000000000000",
      "reserved": "",
      "salt": "0x2b3aeafb1bbbfc4b27421572fdc0b1ab56aad8ed13597a5f84589d091b859970",
      "assetIds": []
    },
    {
      "x": 173,
      "y": 406,
      "size": 1,
      "price": "1011000000000000000000",
      "reserved": "",
      "salt": "0x49f16b0362ee99a018bf61e3b335efcf7725e46d5385dccdd2cccc04675a2320",
      "assetIds": []
    },
    {
      "x": 173,
      "y": 407,
      "size": 1,
      "price": "1011000000000000000000",
      "reserved": "",
      "salt": "0x9e1a35d042623f3ef010f8a398c809344b7175fd21d38122380bc81abe3f20e1",
      "assetIds": []
    },
    {
      "x": 174,
      "y": 384,
      "size": 1,
      "price": "1011000000000000000000",
      "reserved": "",
      "salt": "0x6df2953947dc6a4102645409efb6b874077956b1a68d4cdc4aa833c52550b808",
      "assetIds": []
    },
    {
      "x": 174,
      "y": 385,
      "size": 1,
      "price": "1011000000000000000000",
      "reserved": "",
      "salt": "0x530e37f0610f4fea4e53eae4d9febc71f2063e9e7dfc91c99596a94daec18f4f",
      "assetIds": []
    },
    {
      "x": 174,
      "y": 386,
      "size": 1,
      "price": "1011000000000000000000",
      "reserved": "",
      "salt": "0x87ae61200fbc15a09890bf8e0815b45341fddcd87c4707dc86f569b6d0d5f5fe",
      "assetIds": []
    },
    {
      "x": 174,
      "y": 387,
      "size": 1,
      "price": "1011000000000000000000",
      "reserved": "",
      "salt": "0xd64cb04747ae547ab9b1f00a235351e724529f08c27ad8f99996ae713075beda",
      "assetIds": []
    },
    {
      "x": 174,
      "y": 388,
      "size": 1,
      "price": "1011000000000000000000",
      "reserved": "",
      "salt": "0xbef078556d24bb9258d70243a76fe658b7017e511c21a0d91a199a648f08a206",
      "assetIds": []
    },
    {
      "x": 174,
      "y": 389,
      "size": 1,
      "price": "1011000000000000000000",
      "reserved": "",
      "salt": "0xbb78a05669ea3bd1de7f5f44dd6c31edcc6c1a4b109f7a5512d67b839fb28c41",
      "assetIds": []
    },
    {
      "x": 174,
      "y": 390,
      "size": 1,
      "price": "1011000000000000000000",
      "reserved": "",
      "salt": "0x66d831a167833591037c1f01423d7134d054ca8e9898662ce0361c159903b406",
      "assetIds": []
    },
    {
      "x": 174,
      "y": 391,
      "size": 1,
      "price": "1011000000000000000000",
      "reserved": "",
      "salt": "0xe9245f8ba68f64061c3a7d9791ac10958893d9e9d313903cf7cd930a3c993247",
      "assetIds": []
    },
    {
      "x": 174,
      "y": 392,
      "size": 1,
      "price": "1011000000000000000000",
      "reserved": "",
      "salt": "0xeb449bab96639d68723b1ab19d7de8b35920b5ea8755e33851f43fb69e92f945",
      "assetIds": []
    },
    {
      "x": 174,
      "y": 393,
      "size": 1,
      "price": "1011000000000000000000",
      "reserved": "0x7a9fe22691c811ea339d9b73150e6911a5343dca",
      "salt": "0x3f170560ac7791c191b043f8f22c9cf61a7b02bc76223e928525a7ba0f229e5f",
      "assetIds": []
    },
    {
      "x": 174,
      "y": 394,
      "size": 1,
      "price": "1011000000000000000000",
      "reserved": "0x7a9fe22691c811ea339d9b73150e6911a5343dca",
      "salt": "0x7800eeaf249ee2e6bcb63d1bb458751126052384e74e2769ce52820d9b37a0e9",
      "assetIds": []
    },
    {
      "x": 174,
      "y": 395,
      "size": 1,
      "price": "4683000000000000000000",
      "reserved": "",
      "salt": "0xb8360fa4431312f6dddaed017231869c70c9339e0eed7a972842fd3c4ff72528",
      "assetIds": [
        "55464657044963196816950587289035428064568320970692304673817341489687790884865",
        "55464657044963196816950587289035428064568320970692304673817341489687782494208",
        "55464657044963196816950587289035428064568320970692304673817341489687790884866",
        "55464657044963196816950587289035428064568320970692304673817341489687782494209",
        "55464657044963196816950587289035428064568320970692304673817341489687790884864"
      ]
    },
    {
      "x": 174,
      "y": 402,
      "size": 1,
      "price": "4683000000000000000000",
      "reserved": "",
      "salt": "0x18552a33f4df1454ea896329eee3ae03edb35b811466f46830d0869ee710261c",
      "assetIds": [
        "55464657044963196816950587289035428064568320970692304673817341489687790884865",
        "55464657044963196816950587289035428064568320970692304673817341489687782494208",
        "55464657044963196816950587289035428064568320970692304673817341489687790884866",
        "55464657044963196816950587289035428064568320970692304673817341489687782494209",
        "55464657044963196816950587289035428064568320970692304673817341489687790884864"
      ]
    },
    {
      "x": 174,
      "y": 403,
      "size": 1,
      "price": "1011000000000000000000",
      "reserved": "",
      "salt": "0x42f6236a99b855d438001379808ea720e0bbee4a29d6ab923f7f4adcffafed9a",
      "assetIds": []
    },
    {
      "x": 174,
      "y": 404,
      "size": 1,
      "price": "1011000000000000000000",
      "reserved": "0x7a9fe22691c811ea339d9b73150e6911a5343dca",
      "salt": "0x7a44ab371cbec8e9c5b8b16be41dae676442055683fa37f5b0262dc4dcc2f974",
      "assetIds": []
    },
    {
      "x": 174,
      "y": 405,
      "size": 1,
      "price": "1011000000000000000000",
      "reserved": "",
      "salt": "0xd78a9f6bb4b62394950afb377c5454f348b5078dd2886b2251543ae8a054f922",
      "assetIds": []
    },
    {
      "x": 174,
      "y": 406,
      "size": 1,
      "price": "1011000000000000000000",
      "reserved": "",
      "salt": "0xe1f407602433258c2e2ebbb16411b26429bedf5411e3cc93be4a75a60a001bba",
      "assetIds": []
    },
    {
      "x": 174,
      "y": 407,
      "size": 1,
      "price": "1011000000000000000000",
      "reserved": "",
      "salt": "0xc75f58363ca5b340233ad086e959c7a6362d8ebfe0cb56c3ad4af9c4a1d85fb4",
      "assetIds": []
    },
    {
      "x": 175,
      "y": 384,
      "size": 1,
      "price": "1011000000000000000000",
      "reserved": "",
      "salt": "0x8f20deb5615c288a16b9161553d4ca59f1042228105a92ab91f20ab427f3671c",
      "assetIds": []
    },
    {
      "x": 175,
      "y": 385,
      "size": 1,
      "price": "1011000000000000000000",
      "reserved": "0x7a9fe22691c811ea339d9b73150e6911a5343dca",
      "salt": "0xc41ada91b0521ff1e7745e548a2e9f3fb3fb7f9163938aba71b2e94d15c175e1",
      "assetIds": []
    },
    {
      "x": 175,
      "y": 386,
      "size": 1,
      "price": "1011000000000000000000",
      "reserved": "",
      "salt": "0x8745cae70f71f1d76ac4ab09940058036a0006623cde4087c0c71282e88ad39a",
      "assetIds": []
    },
    {
      "x": 175,
      "y": 387,
      "size": 1,
      "price": "1011000000000000000000",
      "reserved": "",
      "salt": "0xb152ed2d6a7bc56a45b9a7d5f10406ce1ec96627b4da6af010838b4b01ebc0d7",
      "assetIds": []
    },
    {
      "x": 175,
      "y": 388,
      "size": 1,
      "price": "1011000000000000000000",
      "reserved": "",
      "salt": "0xb233c9f6d20122fd6f74ba7aff4d6b89b09c9e135987087c7d45563e5144d46f",
      "assetIds": []
    },
    {
      "x": 175,
      "y": 389,
      "size": 1,
      "price": "1011000000000000000000",
      "reserved": "",
      "salt": "0x4c628a91aaad44acbb2105d490941fee908836a0eba6ccb6fa44985b1e888bb1",
      "assetIds": []
    },
    {
      "x": 175,
      "y": 390,
      "size": 1,
      "price": "1011000000000000000000",
      "reserved": "",
      "salt": "0x6f3c835dbeb293dfe547dddb9f25f2d994d8725127b54a42364ff886d04acdd3",
      "assetIds": []
    },
    {
      "x": 175,
      "y": 391,
      "size": 1,
      "price": "1011000000000000000000",
      "reserved": "0x7a9fe22691c811ea339d9b73150e6911a5343dca",
      "salt": "0x45e2ae030f619d607a21b985ccc9af0700e44cef0770181f30e51b5b78836640",
      "assetIds": []
    },
    {
      "x": 175,
      "y": 392,
      "size": 1,
      "price": "1011000000000000000000",
      "reserved": "",
      "salt": "0xde130a9c0e663d49910334e55fe5b580735e0bf3036f8479e2a7fca12ba50f7d",
      "assetIds": []
    },
    {
      "x": 175,
      "y": 393,
      "size": 1,
      "price": "1011000000000000000000",
      "reserved": "",
      "salt": "0xa6385ec453a727863219710397c59d19ad7bd10a3ea48e6eba6be1867978cf2e",
      "assetIds": []
    },
    {
      "x": 175,
      "y": 394,
      "size": 1,
      "price": "4683000000000000000000",
      "reserved": "",
      "salt": "0x4fbe18ce1fca8659a057f0c29431013c52456bdaf0e291440806b645a2f361ad",
      "assetIds": [
        "55464657044963196816950587289035428064568320970692304673817341489687790884865",
        "55464657044963196816950587289035428064568320970692304673817341489687782494208",
        "55464657044963196816950587289035428064568320970692304673817341489687790884866",
        "55464657044963196816950587289035428064568320970692304673817341489687782494209",
        "55464657044963196816950587289035428064568320970692304673817341489687790884864"
      ]
    },
    {
      "x": 175,
      "y": 395,
      "size": 1,
      "price": "4683000000000000000000",
      "reserved": "",
      "salt": "0x0a6313f9af3a98cd8bf039899223382c3ddaf9d2d042c27bfdbb380fbb3aa292",
      "assetIds": [
        "55464657044963196816950587289035428064568320970692304673817341489687790884865",
        "55464657044963196816950587289035428064568320970692304673817341489687782494208",
        "55464657044963196816950587289035428064568320970692304673817341489687790884866",
        "55464657044963196816950587289035428064568320970692304673817341489687782494209",
        "55464657044963196816950587289035428064568320970692304673817341489687790884864"
      ]
    },
    {
      "x": 175,
      "y": 402,
      "size": 1,
      "price": "4683000000000000000000",
      "reserved": "",
      "salt": "0xa2f8e9657aa1642c1be66a51ee211e621d65409c0d6a3483df06ed273eb7f96a",
      "assetIds": [
        "55464657044963196816950587289035428064568320970692304673817341489687790884865",
        "55464657044963196816950587289035428064568320970692304673817341489687782494208",
        "55464657044963196816950587289035428064568320970692304673817341489687790884866",
        "55464657044963196816950587289035428064568320970692304673817341489687782494209",
        "55464657044963196816950587289035428064568320970692304673817341489687790884864"
      ]
    },
    {
      "x": 175,
      "y": 403,
      "size": 1,
      "price": "1011000000000000000000",
      "reserved": "0x7a9fe22691c811ea339d9b73150e6911a5343dca",
      "salt": "0xee57ffb03af214fe5dccad6259d2a7e70adcb6ca4a24b5c2ff7bdd5371679c25",
      "assetIds": []
    },
    {
      "x": 175,
      "y": 404,
      "size": 1,
      "price": "1011000000000000000000",
      "reserved": "",
      "salt": "0xe09007ff718ef31c1f8aff94fc917978ba6bdf2960799953e61dac2a2c2af014",
      "assetIds": []
    },
    {
      "x": 175,
      "y": 405,
      "size": 1,
      "price": "1011000000000000000000",
      "reserved": "",
      "salt": "0xa4295759e033eb5eb12b9a854b4c0c7e1e45728052a98a58f2b128e2267da6ef",
      "assetIds": []
    },
    {
      "x": 175,
      "y": 406,
      "size": 1,
      "price": "1011000000000000000000",
      "reserved": "0x7a9fe22691c811ea339d9b73150e6911a5343dca",
      "salt": "0x9adc59b6e03f28691269a7e9e92bcf5eaaacc3a99f7a9448d177334659dee5bc",
      "assetIds": []
    },
    {
      "x": 175,
      "y": 407,
      "size": 1,
      "price": "1011000000000000000000",
      "reserved": "",
      "salt": "0xc10f03b68290d664970b38e4316e91c5c623162d425d4ed8eca55a9ac34e8ad6",
      "assetIds": []
    },
    {
      "x": 176,
      "y": 384,
      "size": 1,
      "price": "1011000000000000000000",
      "reserved": "",
      "salt": "0xd3751d55234407543a15ba74eb0325efa6d135e2a5d963881535bcb9f6ca39bd",
      "assetIds": []
    },
    {
      "x": 176,
      "y": 385,
      "size": 1,
      "price": "1011000000000000000000",
      "reserved": "",
      "salt": "0x97cf87fe48eb81444609d8209398aa9556e44454a4d7aae76350fca31936dade",
      "assetIds": []
    },
    {
      "x": 176,
      "y": 386,
      "size": 1,
      "price": "1011000000000000000000",
      "reserved": "",
      "salt": "0x00cd7b035b631b7983a7c43a48bfa190f032b2a13ba5e11a47aaf7d74022a353",
      "assetIds": []
    },
    {
      "x": 176,
      "y": 387,
      "size": 1,
      "price": "1011000000000000000000",
      "reserved": "0x7a9fe22691c811ea339d9b73150e6911a5343dca",
      "salt": "0xde2612cce57d9133ad0bdc1490fa74c4bf5ecb1ffc805f225ee4a28fe01fdf8d",
      "assetIds": []
    },
    {
      "x": 176,
      "y": 388,
      "size": 1,
      "price": "1011000000000000000000",
      "reserved": "",
      "salt": "0x5e077431d4322934db3c230ca5e144ed46a1b9d261e72310038f5bdadf4273ff",
      "assetIds": []
    },
    {
      "x": 176,
      "y": 389,
      "size": 1,
      "price": "1011000000000000000000",
      "reserved": "0x7a9fe22691c811ea339d9b73150e6911a5343dca",
      "salt": "0x874fe49db6993d267678bba93c9f4288d8783076bfab784b4bb9f68baf0b74b9",
      "assetIds": []
    },
    {
      "x": 176,
      "y": 390,
      "size": 1,
      "price": "1011000000000000000000",
      "reserved": "",
      "salt": "0xc80b8c80294f247da1e57287d16d5127038413de545a17fefc70f453e83d8c9e",
      "assetIds": []
    },
    {
      "x": 176,
      "y": 391,
      "size": 1,
      "price": "1011000000000000000000",
      "reserved": "",
      "salt": "0xc86c7f4fd52fbbc788bb1a92850076bc3e47de21709f631de204141cd90b8207",
      "assetIds": []
    },
    {
      "x": 176,
      "y": 392,
      "size": 1,
      "price": "1011000000000000000000",
      "reserved": "",
      "salt": "0xf34cef1a05221e8a200c3322741c4c5a3a5dfa2ec07861d0aa9b281a5d767106",
      "assetIds": []
    },
    {
      "x": 176,
      "y": 393,
      "size": 1,
      "price": "1011000000000000000000",
      "reserved": "0x7a9fe22691c811ea339d9b73150e6911a5343dca",
      "salt": "0xbef463df02bd2ade0aca0ece9c3f9d48565cde49f933d3cf5cb1e5693ce2bca2",
      "assetIds": []
    },
    {
      "x": 176,
      "y": 394,
      "size": 1,
      "price": "4683000000000000000000",
      "reserved": "",
      "salt": "0xd16290c782b499f7e624de305838b09679cc95d5001697a0c9c71b98e87a1f18",
      "assetIds": [
        "55464657044963196816950587289035428064568320970692304673817341489687790884865",
        "55464657044963196816950587289035428064568320970692304673817341489687782494208",
        "55464657044963196816950587289035428064568320970692304673817341489687790884866",
        "55464657044963196816950587289035428064568320970692304673817341489687782494209",
        "55464657044963196816950587289035428064568320970692304673817341489687790884864"
      ]
    },
    {
      "x": 176,
      "y": 395,
      "size": 1,
      "price": "4683000000000000000000",
      "reserved": "",
      "salt": "0xdb1dac36e55934aa5b77dcb49aff08950e32be5f29b838b88918193b5d09291b",
      "assetIds": [
        "55464657044963196816950587289035428064568320970692304673817341489687790884865",
        "55464657044963196816950587289035428064568320970692304673817341489687782494208",
        "55464657044963196816950587289035428064568320970692304673817341489687790884866",
        "55464657044963196816950587289035428064568320970692304673817341489687782494209",
        "55464657044963196816950587289035428064568320970692304673817341489687790884864"
      ]
    },
    {
      "x": 176,
      "y": 402,
      "size": 1,
      "price": "4683000000000000000000",
      "reserved": "",
      "salt": "0xa01d08094a29dc83f9a4aef93b54404b5bc6e533f164aa821a244484940a0ecc",
      "assetIds": [
        "55464657044963196816950587289035428064568320970692304673817341489687790884865",
        "55464657044963196816950587289035428064568320970692304673817341489687782494208",
        "55464657044963196816950587289035428064568320970692304673817341489687790884866",
        "55464657044963196816950587289035428064568320970692304673817341489687782494209",
        "55464657044963196816950587289035428064568320970692304673817341489687790884864"
      ]
    },
    {
      "x": 176,
      "y": 403,
      "size": 1,
      "price": "1011000000000000000000",
      "reserved": "",
      "salt": "0x8e114520df623d83c99638d927d7d8651eb0c1d5dfde685360cfbf9dc4940a32",
      "assetIds": []
    },
    {
      "x": 176,
      "y": 404,
      "size": 1,
      "price": "1011000000000000000000",
      "reserved": "",
      "salt": "0x2a6247e7e083b3c8938baf5798c2293396579e64829bf1e9e86d9257e697a2bc",
      "assetIds": []
    },
    {
      "x": 176,
      "y": 405,
      "size": 1,
      "price": "1011000000000000000000",
      "reserved": "",
      "salt": "0x93a97d62c135d016182a8d8959d0afef6a2ba4ee8fc09bd15eda158252ec98d3",
      "assetIds": []
    },
    {
      "x": 176,
      "y": 406,
      "size": 1,
      "price": "1011000000000000000000",
      "reserved": "",
      "salt": "0x3d2cc098880de55ab52b940ce116a0cf59335db1f282005d79706a7853436ec7",
      "assetIds": []
    },
    {
      "x": 176,
      "y": 407,
      "size": 1,
      "price": "1011000000000000000000",
      "reserved": "",
      "salt": "0x7bde3d8f52bce682452d9d0ce95a9c26c4bcac96dcb917e7d4947aa41117e494",
      "assetIds": []
    },
    {
      "x": 177,
      "y": 384,
      "size": 1,
      "price": "1011000000000000000000",
      "reserved": "",
      "salt": "0x8efe1541dc96867e3a5e23709aa1091c858f03446e945ca2feffece3f0208586",
      "assetIds": []
    },
    {
      "x": 177,
      "y": 385,
      "size": 1,
      "price": "1011000000000000000000",
      "reserved": "",
      "salt": "0x2b306e54cd42c545202b92868822cc7fc7e267a2d0638ab54ec501c394cc4bf1",
      "assetIds": []
    },
    {
      "x": 177,
      "y": 386,
      "size": 1,
      "price": "1011000000000000000000",
      "reserved": "",
      "salt": "0x89d647ecd729baa454b0932933220f5c2214c53a82ffda1dacde34dae81c2e4b",
      "assetIds": []
    },
    {
      "x": 177,
      "y": 387,
      "size": 1,
      "price": "1011000000000000000000",
      "reserved": "",
      "salt": "0x820cd8505d5d53e5441cbaab64aaff9faf890601dfa8836534dcf161596abc20",
      "assetIds": []
    },
    {
      "x": 177,
      "y": 388,
      "size": 1,
      "price": "1011000000000000000000",
      "reserved": "",
      "salt": "0xb944e5090c6f1597ee3ea4d541311b90168e5f30f0e0e59862e3b147843d0d68",
      "assetIds": []
    },
    {
      "x": 177,
      "y": 389,
      "size": 1,
      "price": "1011000000000000000000",
      "reserved": "",
      "salt": "0x0656d622236cd3d695a453de6f376542e1f536fb5201aeab3c4a2dabfbc0ab10",
      "assetIds": []
    },
    {
      "x": 177,
      "y": 390,
      "size": 1,
      "price": "1011000000000000000000",
      "reserved": "",
      "salt": "0x230a98284b59708effe1bcec3e5d8119b890eadfa1b4586f9ab30ea9c459fc89",
      "assetIds": []
    },
    {
      "x": 177,
      "y": 391,
      "size": 1,
      "price": "1011000000000000000000",
      "reserved": "",
      "salt": "0xbae7295aa77f612805eca8308f419bef7f9e1276af02a17dda6512406f010092",
      "assetIds": []
    },
    {
      "x": 177,
      "y": 392,
      "size": 1,
      "price": "1011000000000000000000",
      "reserved": "",
      "salt": "0x0394d961905639eac5dd7887e17f97c7852a3c7ec4ebc2ccb256b6c311507894",
      "assetIds": []
    },
    {
      "x": 177,
      "y": 393,
      "size": 1,
      "price": "1011000000000000000000",
      "reserved": "",
      "salt": "0x65adaa27a94028415bbdfab3c672052cb49c2fb3b4d2cb2fbea64c9191c492df",
      "assetIds": []
    },
    {
      "x": 177,
      "y": 394,
      "size": 1,
      "price": "1011000000000000000000",
      "reserved": "0x7a9fe22691c811ea339d9b73150e6911a5343dca",
      "salt": "0xb61084ce228e6a2cf003e1af48d161bb54a6a80150708c93fc34ab204c124e0a",
      "assetIds": []
    },
    {
      "x": 177,
      "y": 395,
      "size": 1,
      "price": "4683000000000000000000",
      "reserved": "",
      "salt": "0xbacca8e6945030fd6792f27b11d050479530833d1b2894e21e24e5e7b3e51046",
      "assetIds": [
        "55464657044963196816950587289035428064568320970692304673817341489687790884865",
        "55464657044963196816950587289035428064568320970692304673817341489687782494208",
        "55464657044963196816950587289035428064568320970692304673817341489687790884866",
        "55464657044963196816950587289035428064568320970692304673817341489687782494209",
        "55464657044963196816950587289035428064568320970692304673817341489687790884864"
      ]
    },
    {
      "x": 177,
      "y": 402,
      "size": 1,
      "price": "4683000000000000000000",
      "reserved": "",
      "salt": "0xf4af4cb4f3810ef01058466f4d2cbea5e5a4cc15aaa6ac0c5c053223a703bae7",
      "assetIds": [
        "55464657044963196816950587289035428064568320970692304673817341489687790884865",
        "55464657044963196816950587289035428064568320970692304673817341489687782494208",
        "55464657044963196816950587289035428064568320970692304673817341489687790884866",
        "55464657044963196816950587289035428064568320970692304673817341489687782494209",
        "55464657044963196816950587289035428064568320970692304673817341489687790884864"
      ]
    },
    {
      "x": 177,
      "y": 403,
      "size": 1,
      "price": "4683000000000000000000",
      "reserved": "",
      "salt": "0x63d56d9e1c53e2dfbd868733332565b4dcb68391f3a84f5ba5fac498cdd6cb25",
      "assetIds": [
        "55464657044963196816950587289035428064568320970692304673817341489687790884865",
        "55464657044963196816950587289035428064568320970692304673817341489687782494208",
        "55464657044963196816950587289035428064568320970692304673817341489687790884866",
        "55464657044963196816950587289035428064568320970692304673817341489687782494209",
        "55464657044963196816950587289035428064568320970692304673817341489687790884864"
      ]
    },
    {
      "x": 177,
      "y": 404,
      "size": 1,
      "price": "1011000000000000000000",
      "reserved": "",
      "salt": "0x7094c340d99c1193be8dbab7e8d4a4307a38df3b59c21f340c5d9c4ca90462ce",
      "assetIds": []
    },
    {
      "x": 177,
      "y": 405,
      "size": 1,
      "price": "1011000000000000000000",
      "reserved": "",
      "salt": "0xddd936a6e061c7e69efc6521cb89a5faae6fce5cbcd436ec34faf3659c3ef896",
      "assetIds": []
    },
    {
      "x": 177,
      "y": 406,
      "size": 1,
      "price": "1011000000000000000000",
      "reserved": "",
      "salt": "0xd2d2668be2809586b43ac0aed4597ea89c991fd64771188421bf799b7cf75228",
      "assetIds": []
    },
    {
      "x": 177,
      "y": 407,
      "size": 1,
      "price": "1011000000000000000000",
      "reserved": "",
      "salt": "0x69f293df2e8ecce5c6a18c3538dd69e13e4b5f1902d46c7a6bc39933e7ed6b04",
      "assetIds": []
    },
    {
      "x": 178,
      "y": 384,
      "size": 1,
      "price": "1011000000000000000000",
      "reserved": "",
      "salt": "0x176b824ccde21f78c658735a0e1df89830a8b6e8f43f0044d75869cb76236b0b",
      "assetIds": []
    },
    {
      "x": 178,
      "y": 385,
      "size": 1,
      "price": "1011000000000000000000",
      "reserved": "0x7a9fe22691c811ea339d9b73150e6911a5343dca",
      "salt": "0x4c8ab33ba8ff65db8beba957e1700db2103b0cad7119fea76454ac37241ba390",
      "assetIds": []
    },
    {
      "x": 178,
      "y": 386,
      "size": 1,
      "price": "1011000000000000000000",
      "reserved": "",
      "salt": "0x6086738152a14f72e5dedac10264705b19e89001169cd70adcd7c32f1713de44",
      "assetIds": []
    },
    {
      "x": 178,
      "y": 387,
      "size": 1,
      "price": "1011000000000000000000",
      "reserved": "",
      "salt": "0x3dbfc5742f7c40b0cf86aae6ae83cbbfa49e36766c1b2d53d72fd594fc92de9f",
      "assetIds": []
    },
    {
      "x": 178,
      "y": 388,
      "size": 1,
      "price": "1011000000000000000000",
      "reserved": "",
      "salt": "0xa1efdec764b104b25b30c367b466eb1cbed09552dfc1427f32404d9a94105ac1",
      "assetIds": []
    },
    {
      "x": 178,
      "y": 389,
      "size": 1,
      "price": "1011000000000000000000",
      "reserved": "",
      "salt": "0x570e5d50247b2a19a5d9d0ee45cb4e9252c143c562cc8f0343b6005c3a07456a",
      "assetIds": []
    },
    {
      "x": 178,
      "y": 390,
      "size": 1,
      "price": "1011000000000000000000",
      "reserved": "",
      "salt": "0x129121ffaf7f4f7fadbeb4b9be5053c695c5af725fa223ab3de0d70160a7728f",
      "assetIds": []
    },
    {
      "x": 178,
      "y": 391,
      "size": 1,
      "price": "1011000000000000000000",
      "reserved": "0x7a9fe22691c811ea339d9b73150e6911a5343dca",
      "salt": "0x0c0c830f0efd0a13f7e7a30558df85070ee1f30aa9875d924a6d6d7f6db89c93",
      "assetIds": []
    },
    {
      "x": 178,
      "y": 392,
      "size": 1,
      "price": "1011000000000000000000",
      "reserved": "",
      "salt": "0x283942de20aca0f465e7e57b6db6a810063a1dc3d01881480c4df2f6c94cd123",
      "assetIds": []
    },
    {
      "x": 178,
      "y": 393,
      "size": 1,
      "price": "1011000000000000000000",
      "reserved": "0x7a9fe22691c811ea339d9b73150e6911a5343dca",
      "salt": "0xa8fb9778e52ad516f37793f2f6446c96079127ee522e3c7aae0aa7d772e115ab",
      "assetIds": []
    },
    {
      "x": 178,
      "y": 394,
      "size": 1,
      "price": "4683000000000000000000",
      "reserved": "",
      "salt": "0x0abb52ece4cca8df16fa8a69bac3846303462f8b3f31cd5346910eecf40282cb",
      "assetIds": [
        "55464657044963196816950587289035428064568320970692304673817341489687790884865",
        "55464657044963196816950587289035428064568320970692304673817341489687782494208",
        "55464657044963196816950587289035428064568320970692304673817341489687790884866",
        "55464657044963196816950587289035428064568320970692304673817341489687782494209",
        "55464657044963196816950587289035428064568320970692304673817341489687790884864"
      ]
    },
    {
      "x": 178,
      "y": 395,
      "size": 1,
      "price": "4683000000000000000000",
      "reserved": "",
      "salt": "0x510737a01aba00446ac83c52377c4d23fcb519fbc855e76dfd2a783f73bfbf24",
      "assetIds": [
        "55464657044963196816950587289035428064568320970692304673817341489687790884865",
        "55464657044963196816950587289035428064568320970692304673817341489687782494208",
        "55464657044963196816950587289035428064568320970692304673817341489687790884866",
        "55464657044963196816950587289035428064568320970692304673817341489687782494209",
        "55464657044963196816950587289035428064568320970692304673817341489687790884864"
      ]
    },
    {
      "x": 178,
      "y": 402,
      "size": 1,
      "price": "4683000000000000000000",
      "reserved": "",
      "salt": "0x86908aac16b5244da522baa14559a98645a9f7bf70512db365057b5e6a9b76e7",
      "assetIds": [
        "55464657044963196816950587289035428064568320970692304673817341489687790884865",
        "55464657044963196816950587289035428064568320970692304673817341489687782494208",
        "55464657044963196816950587289035428064568320970692304673817341489687790884866",
        "55464657044963196816950587289035428064568320970692304673817341489687782494209",
        "55464657044963196816950587289035428064568320970692304673817341489687790884864"
      ]
    },
    {
      "x": 178,
      "y": 403,
      "size": 1,
      "price": "4683000000000000000000",
      "reserved": "",
      "salt": "0xc25547aed003da5fdbeea2aa357a367830785e1a65fff361f66637ec9ce4cde1",
      "assetIds": [
        "55464657044963196816950587289035428064568320970692304673817341489687790884865",
        "55464657044963196816950587289035428064568320970692304673817341489687782494208",
        "55464657044963196816950587289035428064568320970692304673817341489687790884866",
        "55464657044963196816950587289035428064568320970692304673817341489687782494209",
        "55464657044963196816950587289035428064568320970692304673817341489687790884864"
      ]
    },
    {
      "x": 178,
      "y": 404,
      "size": 1,
      "price": "1011000000000000000000",
      "reserved": "0x7a9fe22691c811ea339d9b73150e6911a5343dca",
      "salt": "0xdcdf55bd6afcbde75424b13e22e1921cd0aefb142d09eabceb18ff4f5c6c6e3d",
      "assetIds": []
    },
    {
      "x": 178,
      "y": 405,
      "size": 1,
      "price": "1011000000000000000000",
      "reserved": "",
      "salt": "0x25e4c5ac0544fd9ce215cdc35f8c84978810983b9be3c4ed05b2c4ed70a76086",
      "assetIds": []
    },
    {
      "x": 178,
      "y": 406,
      "size": 1,
      "price": "1011000000000000000000",
      "reserved": "",
      "salt": "0x43f0657d7cd79e7d332a229ba9bbf45587699bfee2b584951303291c6a0e167c",
      "assetIds": []
    },
    {
      "x": 178,
      "y": 407,
      "size": 1,
      "price": "1011000000000000000000",
      "reserved": "",
      "salt": "0xc825d97d91e33a3bfac4b8895408bf2f4957de824fe7561ac302b55990adf50b",
      "assetIds": []
    },
    {
      "x": 179,
      "y": 384,
      "size": 1,
      "price": "1011000000000000000000",
      "reserved": "",
      "salt": "0xfdb0dba6cfd653262a66728d795c8433ba3f3e7d0d70e1042afa91c66eff63c7",
      "assetIds": []
    },
    {
      "x": 179,
      "y": 385,
      "size": 1,
      "price": "1011000000000000000000",
      "reserved": "",
      "salt": "0xaff8d471f7b3d66194344aa9dfa3b9bcb0aac878ad9efd70aba96a1bb7a1d902",
      "assetIds": []
    },
    {
      "x": 179,
      "y": 386,
      "size": 1,
      "price": "1011000000000000000000",
      "reserved": "",
      "salt": "0x2709e2f912f5a7f16d623c0bc66e5ff066f7e21155752fb301b277ab64a767fd",
      "assetIds": []
    },
    {
      "x": 179,
      "y": 387,
      "size": 1,
      "price": "1011000000000000000000",
      "reserved": "0x7a9fe22691c811ea339d9b73150e6911a5343dca",
      "salt": "0x24d194e472ce61908a8ae6163c1f097de0eabee9faa36b9540524f95104aa96b",
      "assetIds": []
    },
    {
      "x": 179,
      "y": 388,
      "size": 1,
      "price": "1011000000000000000000",
      "reserved": "",
      "salt": "0x1d035792e0ff437396bcddadcec2f4e523ad4da3506f6181bc21273daa2d9037",
      "assetIds": []
    },
    {
      "x": 179,
      "y": 389,
      "size": 1,
      "price": "1011000000000000000000",
      "reserved": "",
      "salt": "0xa07d95847c8d895e91d2e69ca7cbef45999b4c1b5ee1ab9730d746d42d8685dd",
      "assetIds": []
    },
    {
      "x": 179,
      "y": 390,
      "size": 1,
      "price": "1011000000000000000000",
      "reserved": "",
      "salt": "0xcd60e6a68347e8d3a25ac02e0b8e694b2f1bb4b3fcb16ceef6629c0933f4c0ef",
      "assetIds": []
    },
    {
      "x": 179,
      "y": 391,
      "size": 1,
      "price": "1011000000000000000000",
      "reserved": "",
      "salt": "0x84e055fd3194d447aad4edf7d927fd2a9aafea4f884ca514666ad99d315d9fd0",
      "assetIds": []
    },
    {
      "x": 179,
      "y": 392,
      "size": 1,
      "price": "1011000000000000000000",
      "reserved": "",
      "salt": "0x3a558e571473f3939bc47f5a30ddfa1ae3d43ace46cc9d67cd22b27918cd3df1",
      "assetIds": []
    },
    {
      "x": 179,
      "y": 393,
      "size": 1,
      "price": "1011000000000000000000",
      "reserved": "",
      "salt": "0x426b55d2659c5a4e9c52f8b08893fda0c542e272d54a05c73a40f1e91a40bbab",
      "assetIds": []
    },
    {
      "x": 179,
      "y": 394,
      "size": 1,
      "price": "1011000000000000000000",
      "reserved": "0x7a9fe22691c811ea339d9b73150e6911a5343dca",
      "salt": "0xf10fb2960045fd0f87300680fd862cbc08540b5cdd99265946e52b4b175e4b4e",
      "assetIds": []
    },
    {
      "x": 179,
      "y": 395,
      "size": 1,
      "price": "4683000000000000000000",
      "reserved": "",
      "salt": "0x764bb193fe66bc6a266dee268b3490e1ae8cb73951f79d8f434d6299601ae155",
      "assetIds": [
        "55464657044963196816950587289035428064568320970692304673817341489687790884865",
        "55464657044963196816950587289035428064568320970692304673817341489687782494208",
        "55464657044963196816950587289035428064568320970692304673817341489687790884866",
        "55464657044963196816950587289035428064568320970692304673817341489687782494209",
        "55464657044963196816950587289035428064568320970692304673817341489687790884864"
      ]
    },
    {
      "x": 179,
      "y": 402,
      "size": 1,
      "price": "4683000000000000000000",
      "reserved": "",
      "salt": "0x12392121ba4b0e7e3d74ff88da41d2d8ae60c8be723f0fe507b3f964f12089b8",
      "assetIds": [
        "55464657044963196816950587289035428064568320970692304673817341489687790884865",
        "55464657044963196816950587289035428064568320970692304673817341489687782494208",
        "55464657044963196816950587289035428064568320970692304673817341489687790884866",
        "55464657044963196816950587289035428064568320970692304673817341489687782494209",
        "55464657044963196816950587289035428064568320970692304673817341489687790884864"
      ]
    },
    {
      "x": 179,
      "y": 403,
      "size": 1,
      "price": "4683000000000000000000",
      "reserved": "",
      "salt": "0x7af2f81c3400ea14cd7c35f7a388ff07f5d56600859eddb9b8f870dea409acc7",
      "assetIds": [
        "55464657044963196816950587289035428064568320970692304673817341489687790884865",
        "55464657044963196816950587289035428064568320970692304673817341489687782494208",
        "55464657044963196816950587289035428064568320970692304673817341489687790884866",
        "55464657044963196816950587289035428064568320970692304673817341489687782494209",
        "55464657044963196816950587289035428064568320970692304673817341489687790884864"
      ]
    },
    {
      "x": 179,
      "y": 404,
      "size": 1,
      "price": "1011000000000000000000",
      "reserved": "",
      "salt": "0x8431bd1a0ad53186c33d0e8e599607940490e38d97cb46ef6d564ba52ed706b7",
      "assetIds": []
    },
    {
      "x": 179,
      "y": 405,
      "size": 1,
      "price": "1011000000000000000000",
      "reserved": "",
      "salt": "0xb94612287fe03022227e9bee120fabeb306cab2838278157c90c8fc153887529",
      "assetIds": []
    },
    {
      "x": 179,
      "y": 406,
      "size": 1,
      "price": "1011000000000000000000",
      "reserved": "0x7a9fe22691c811ea339d9b73150e6911a5343dca",
      "salt": "0x2e1a226b6bc2858ade39372e2af2f84aad8c85751479ffea3a5bdb44610cddf5",
      "assetIds": []
    },
    {
      "x": 179,
      "y": 407,
      "size": 1,
      "price": "1011000000000000000000",
      "reserved": "",
      "salt": "0xb69f0bb3f5f281ac0c072e87304d783e4e1e95ecb70baee6e8720269eb187856",
      "assetIds": []
    },
    {
      "x": 180,
      "y": 384,
      "size": 1,
      "price": "1011000000000000000000",
      "reserved": "",
      "salt": "0xca53e5defe0384b181bca55ecc48442acc4d1c90bd469523737139faa10f3092",
      "assetIds": []
    },
    {
      "x": 180,
      "y": 385,
      "size": 1,
      "price": "1011000000000000000000",
      "reserved": "",
      "salt": "0x9e14ba40254bba5216197f203cbe8aafc09ccedf9f586470f90cc3625236ede6",
      "assetIds": []
    },
    {
      "x": 180,
      "y": 386,
      "size": 1,
      "price": "1011000000000000000000",
      "reserved": "",
      "salt": "0x89c21c7642b358600929ced1be2a813e32d224cbf6de9623f467dbb49ceec298",
      "assetIds": []
    },
    {
      "x": 180,
      "y": 387,
      "size": 1,
      "price": "1011000000000000000000",
      "reserved": "",
      "salt": "0x5c04dbab7c11aa95dfafe76244c75be8176388a5fcd08f05373da806cd57f178",
      "assetIds": []
    },
    {
      "x": 180,
      "y": 388,
      "size": 1,
      "price": "1011000000000000000000",
      "reserved": "",
      "salt": "0xb395400607e9d5d2ae6a1352a3cbba14e540899770fa075dca5eed78ae27b441",
      "assetIds": []
    },
    {
      "x": 180,
      "y": 389,
      "size": 1,
      "price": "1011000000000000000000",
      "reserved": "0x7a9fe22691c811ea339d9b73150e6911a5343dca",
      "salt": "0x7bd75a3900eb63e4dcdc561cb10f311f31658cb3c868f441632a744a4292fd5e",
      "assetIds": []
    },
    {
      "x": 180,
      "y": 390,
      "size": 1,
      "price": "1011000000000000000000",
      "reserved": "",
      "salt": "0xc7c08f00e113e4fac1847ee5bcbdcc543376136e95b2e5520368b2b57cf9c635",
      "assetIds": []
    },
    {
      "x": 180,
      "y": 391,
      "size": 1,
      "price": "1011000000000000000000",
      "reserved": "0x7a9fe22691c811ea339d9b73150e6911a5343dca",
      "salt": "0x6bdb677d522ae30e4ad96721a1b327b681c5ab1517baa4dec51aada79e112bf2",
      "assetIds": []
    },
    {
      "x": 180,
      "y": 392,
      "size": 1,
      "price": "1011000000000000000000",
      "reserved": "",
      "salt": "0x74092949c6b4a45bf50ad6d9f48578109e711f552aecede2d0a03dc20671e669",
      "assetIds": []
    },
    {
      "x": 180,
      "y": 393,
      "size": 1,
      "price": "1011000000000000000000",
      "reserved": "0x7a9fe22691c811ea339d9b73150e6911a5343dca",
      "salt": "0x409254985477baa3c7a62f05a0a5963ddae2b0b281b06d7b6cb489976f23e564",
      "assetIds": []
    },
    {
      "x": 180,
      "y": 394,
      "size": 1,
      "price": "1011000000000000000000",
      "reserved": "",
      "salt": "0xbfdbcde9588b8aa997f28ad9f9ede320bb04c51d00701ed1d941d92558506772",
      "assetIds": []
    },
    {
      "x": 180,
      "y": 395,
      "size": 1,
      "price": "4683000000000000000000",
      "reserved": "",
      "salt": "0x92ac03278ae871f8ec582e1b7f6ef0c4c48d6723b16b66adb793a950bf97897b",
      "assetIds": [
        "55464657044963196816950587289035428064568320970692304673817341489687790884865",
        "55464657044963196816950587289035428064568320970692304673817341489687782494208",
        "55464657044963196816950587289035428064568320970692304673817341489687790884866",
        "55464657044963196816950587289035428064568320970692304673817341489687782494209",
        "55464657044963196816950587289035428064568320970692304673817341489687790884864"
      ]
    },
    {
      "x": 180,
      "y": 396,
      "size": 1,
      "price": "4683000000000000000000",
      "reserved": "",
      "salt": "0xcb3b373e8a4cdd032cf73bf3a2e527237bf139c6754be63dbbddf57644ac5d16",
      "assetIds": [
        "55464657044963196816950587289035428064568320970692304673817341489687790884865",
        "55464657044963196816950587289035428064568320970692304673817341489687782494208",
        "55464657044963196816950587289035428064568320970692304673817341489687790884866",
        "55464657044963196816950587289035428064568320970692304673817341489687782494209",
        "55464657044963196816950587289035428064568320970692304673817341489687790884864"
      ]
    },
    {
      "x": 180,
      "y": 397,
      "size": 1,
      "price": "4683000000000000000000",
      "reserved": "",
      "salt": "0x06498b9647693390cf938114dc5f2c132fed610f62cd157b43cc280b6e89e102",
      "assetIds": [
        "55464657044963196816950587289035428064568320970692304673817341489687790884865",
        "55464657044963196816950587289035428064568320970692304673817341489687782494208",
        "55464657044963196816950587289035428064568320970692304673817341489687790884866",
        "55464657044963196816950587289035428064568320970692304673817341489687782494209",
        "55464657044963196816950587289035428064568320970692304673817341489687790884864"
      ]
    },
    {
      "x": 180,
      "y": 398,
      "size": 1,
      "price": "4683000000000000000000",
      "reserved": "",
      "salt": "0xd5d44928c9b6f5b39556f9da1b09b31e89caeae4193c5d91deb64615fbffaee9",
      "assetIds": [
        "55464657044963196816950587289035428064568320970692304673817341489687790884865",
        "55464657044963196816950587289035428064568320970692304673817341489687782494208",
        "55464657044963196816950587289035428064568320970692304673817341489687790884866",
        "55464657044963196816950587289035428064568320970692304673817341489687782494209",
        "55464657044963196816950587289035428064568320970692304673817341489687790884864"
      ]
    },
    {
      "x": 180,
      "y": 402,
      "size": 1,
      "price": "1011000000000000000000",
      "reserved": "",
      "salt": "0x57aaed25459fa34c1007c9ac2e30b961a2c9b04c14d10c491474e7edec9a037e",
      "assetIds": []
    },
    {
      "x": 180,
      "y": 403,
      "size": 1,
      "price": "1011000000000000000000",
      "reserved": "",
      "salt": "0x8db4fadd4ff18a6acca6498b5b3dd583dd024e0a3051561946f5380f53e8bd74",
      "assetIds": []
    },
    {
      "x": 180,
      "y": 404,
      "size": 1,
      "price": "1011000000000000000000",
      "reserved": "",
      "salt": "0x8f754f0837c5d1e27a55564e91d0feb20201b8d8ab3bf4376ef73a94c5c6f743",
      "assetIds": []
    },
    {
      "x": 180,
      "y": 405,
      "size": 1,
      "price": "1011000000000000000000",
      "reserved": "",
      "salt": "0xa9bb660f7303a619859b9c23dd55c42045a7257311ca831986f05991e6eb10d7",
      "assetIds": []
    },
    {
      "x": 180,
      "y": 406,
      "size": 1,
      "price": "1011000000000000000000",
      "reserved": "",
      "salt": "0x9e0534a71aa57a8e5c7147be75221c1fd849f114063108c3e5249a590f6f8fc9",
      "assetIds": []
    },
    {
      "x": 180,
      "y": 407,
      "size": 1,
      "price": "1011000000000000000000",
      "reserved": "",
      "salt": "0x00455371dcd02dfb096c73b3606be45bd5a1fbacf9665561c5bd9d5e6ca59e8b",
      "assetIds": []
    },
    {
      "x": 181,
      "y": 384,
      "size": 1,
      "price": "1011000000000000000000",
      "reserved": "",
      "salt": "0x50ef8a232f5076762feafd42f86adbf22d2ae81ab1203a6557d9141039896c2f",
      "assetIds": []
    },
    {
      "x": 181,
      "y": 385,
      "size": 1,
      "price": "1011000000000000000000",
      "reserved": "",
      "salt": "0x33c450fd2939a456589ccd2462357f894f7bdd622e835a24aacc8a150d4d9ad4",
      "assetIds": []
    },
    {
      "x": 181,
      "y": 386,
      "size": 1,
      "price": "1011000000000000000000",
      "reserved": "",
      "salt": "0xbdce23c54d84780b64d440082e01b880b04e4e5595e160b6de6081265aec97f6",
      "assetIds": []
    },
    {
      "x": 181,
      "y": 387,
      "size": 1,
      "price": "1011000000000000000000",
      "reserved": "",
      "salt": "0x31858b86913bde8392e5070357426d491997f55381629b899a384586f304b6e5",
      "assetIds": []
    },
    {
      "x": 181,
      "y": 388,
      "size": 1,
      "price": "1011000000000000000000",
      "reserved": "",
      "salt": "0x3421f7996067f0fdbd4befe3b8b185c72a9fa54db229be8de05c342e9c485479",
      "assetIds": []
    },
    {
      "x": 181,
      "y": 389,
      "size": 1,
      "price": "1011000000000000000000",
      "reserved": "",
      "salt": "0x3b92023a21066cdbcae4c10c670977c8521cf75c4d9244598070d55df660d59d",
      "assetIds": []
    },
    {
      "x": 181,
      "y": 390,
      "size": 1,
      "price": "1011000000000000000000",
      "reserved": "",
      "salt": "0xe63250190f7d7a654fb44c976eeb89063a3aac03845b4b47a0261b20bced4e77",
      "assetIds": []
    },
    {
      "x": 181,
      "y": 391,
      "size": 1,
      "price": "1011000000000000000000",
      "reserved": "",
      "salt": "0xf5126c58cd184593d2e2f8a03b826a7925de5d6461027557c6fec3127520e7b8",
      "assetIds": []
    },
    {
      "x": 181,
      "y": 392,
      "size": 1,
      "price": "1011000000000000000000",
      "reserved": "",
      "salt": "0xf154a0e090b68fa292ad1e8199f581c144e64d5760ad11d4720b5d70256c7acd",
      "assetIds": []
    },
    {
      "x": 181,
      "y": 393,
      "size": 1,
      "price": "1011000000000000000000",
      "reserved": "",
      "salt": "0xcc5af2599aa35fefa048505b9669d722df0f9e75b01dd05e74b0415e258ab285",
      "assetIds": []
    },
    {
      "x": 181,
      "y": 394,
      "size": 1,
      "price": "1011000000000000000000",
      "reserved": "0x7a9fe22691c811ea339d9b73150e6911a5343dca",
      "salt": "0x544e22276907ee243f7c16129829c30d783ac3281013b65c9a397f793a9b3951",
      "assetIds": []
    },
    {
      "x": 181,
      "y": 395,
      "size": 1,
      "price": "1011000000000000000000",
      "reserved": "0x7a9fe22691c811ea339d9b73150e6911a5343dca",
      "salt": "0xd829a28c28433c4cd716958bfca66449a001ae9669eac4ebbd5c7217a1055322",
      "assetIds": []
    },
    {
      "x": 181,
      "y": 396,
      "size": 1,
      "price": "4683000000000000000000",
      "reserved": "",
      "salt": "0x434de82704a0ae41e00d6df7174eb35077007d69f1d67be72fd5ec5f61902270",
      "assetIds": [
        "55464657044963196816950587289035428064568320970692304673817341489687790884865",
        "55464657044963196816950587289035428064568320970692304673817341489687782494208",
        "55464657044963196816950587289035428064568320970692304673817341489687790884866",
        "55464657044963196816950587289035428064568320970692304673817341489687782494209",
        "55464657044963196816950587289035428064568320970692304673817341489687790884864"
      ]
    },
    {
      "x": 181,
      "y": 397,
      "size": 1,
      "price": "4683000000000000000000",
      "reserved": "",
      "salt": "0x2c3ecbc52f35c2b0b23af031c1debc9848dd3c4968a7fe6d783cf7ac34b2159d",
      "assetIds": [
        "55464657044963196816950587289035428064568320970692304673817341489687790884865",
        "55464657044963196816950587289035428064568320970692304673817341489687782494208",
        "55464657044963196816950587289035428064568320970692304673817341489687790884866",
        "55464657044963196816950587289035428064568320970692304673817341489687782494209",
        "55464657044963196816950587289035428064568320970692304673817341489687790884864"
      ]
    },
    {
      "x": 181,
      "y": 398,
      "size": 1,
      "price": "4683000000000000000000",
      "reserved": "",
      "salt": "0x1833de8d4d3f7b6c5752edea4ce909d2f98ac1894a56266544b76feebd467cc5",
      "assetIds": [
        "55464657044963196816950587289035428064568320970692304673817341489687790884865",
        "55464657044963196816950587289035428064568320970692304673817341489687782494208",
        "55464657044963196816950587289035428064568320970692304673817341489687790884866",
        "55464657044963196816950587289035428064568320970692304673817341489687782494209",
        "55464657044963196816950587289035428064568320970692304673817341489687790884864"
      ]
    },
    {
      "x": 181,
      "y": 402,
      "size": 1,
      "price": "1011000000000000000000",
      "reserved": "",
      "salt": "0xb10deb8d13195ea0d1eecdc7d7d945bf84c0d760245b03c6bcaffb9264dbfaf7",
      "assetIds": []
    },
    {
      "x": 181,
      "y": 403,
      "size": 1,
      "price": "1011000000000000000000",
      "reserved": "",
      "salt": "0xdaca19c9f904daa21dd139b5ccda4494b1a5d2af81b4af60e39f5d038e289ddb",
      "assetIds": []
    },
    {
      "x": 181,
      "y": 404,
      "size": 1,
      "price": "1011000000000000000000",
      "reserved": "0x7a9fe22691c811ea339d9b73150e6911a5343dca",
      "salt": "0x4afc8dc7afac6d164e93c6f8f35c16566f74be46d6493711cad41351f85af3ea",
      "assetIds": []
    },
    {
      "x": 181,
      "y": 405,
      "size": 1,
      "price": "1011000000000000000000",
      "reserved": "",
      "salt": "0x00c78141aaaafed840b3f92780657528505dd1c8d4ec069d447e08cdfbd59ef0",
      "assetIds": []
    },
    {
      "x": 181,
      "y": 406,
      "size": 1,
      "price": "1011000000000000000000",
      "reserved": "",
      "salt": "0xe143a7cf4438a1f9e72535e8d72d184735fda4513db2c0eb989da366c1a0c6bd",
      "assetIds": []
    },
    {
      "x": 181,
      "y": 407,
      "size": 1,
      "price": "1011000000000000000000",
      "reserved": "",
      "salt": "0xf78e7b017e6b1b2123ce9587af62d72acee16bb0158470f893201ef2249091d8",
      "assetIds": []
    },
    {
      "x": 182,
      "y": 384,
      "size": 1,
      "price": "1011000000000000000000",
      "reserved": "0x7a9fe22691c811ea339d9b73150e6911a5343dca",
      "salt": "0x4b6cbd2ae31579757bdf802aba3eacf16c88856373f805497204543970c64996",
      "assetIds": []
    },
    {
      "x": 182,
      "y": 385,
      "size": 1,
      "price": "1011000000000000000000",
      "reserved": "",
      "salt": "0x553937921d0a51ed47a7823c2f35c93ee04d9baff3b8cc6186d76853fda4b984",
      "assetIds": []
    },
    {
      "x": 182,
      "y": 386,
      "size": 1,
      "price": "1011000000000000000000",
      "reserved": "",
      "salt": "0xdea393a2c058f49ac113da0ab5cd699e1e023d430db14daadd8e70153fa4699d",
      "assetIds": []
    },
    {
      "x": 182,
      "y": 387,
      "size": 1,
      "price": "1011000000000000000000",
      "reserved": "0x7a9fe22691c811ea339d9b73150e6911a5343dca",
      "salt": "0x2fee16df63f5bf66c6f09ca05aba8a1b3129632f42b7e9402ab9e379b7731e65",
      "assetIds": []
    },
    {
      "x": 182,
      "y": 388,
      "size": 1,
      "price": "1011000000000000000000",
      "reserved": "",
      "salt": "0x85dbfcab8d479245845aff2a1f07448757a9163ca0ae128f43bd7f21851eaf24",
      "assetIds": []
    },
    {
      "x": 182,
      "y": 389,
      "size": 1,
      "price": "1011000000000000000000",
      "reserved": "0x7a9fe22691c811ea339d9b73150e6911a5343dca",
      "salt": "0x8975692427ff621dcebbfabece0f5ec44a82a1e01577a78152b9a529bed181cb",
      "assetIds": []
    },
    {
      "x": 182,
      "y": 390,
      "size": 1,
      "price": "1011000000000000000000",
      "reserved": "0x7a9fe22691c811ea339d9b73150e6911a5343dca",
      "salt": "0x60ad1a553220cfae9b7d5de54ba89cce07d5beab160b70b2fbcf32061a56669d",
      "assetIds": []
    },
    {
      "x": 182,
      "y": 391,
      "size": 1,
      "price": "1011000000000000000000",
      "reserved": "0x7a9fe22691c811ea339d9b73150e6911a5343dca",
      "salt": "0x62c78c0487b99814264e4b005134f259556329ebf477149d097d5551255652c6",
      "assetIds": []
    },
    {
      "x": 182,
      "y": 392,
      "size": 1,
      "price": "1011000000000000000000",
      "reserved": "0x7a9fe22691c811ea339d9b73150e6911a5343dca",
      "salt": "0x83173b3115c9bb057fee278d974b7bdc3a4697f143eb9d3cd497695190b99d3c",
      "assetIds": []
    },
    {
      "x": 182,
      "y": 393,
      "size": 1,
      "price": "1011000000000000000000",
      "reserved": "",
      "salt": "0xe7ea6041663650f89de5b9dbeda32622b8f7d62c0d2ce657cf64c501cf6bc754",
      "assetIds": []
    },
    {
      "x": 182,
      "y": 394,
      "size": 1,
      "price": "1011000000000000000000",
      "reserved": "0x7a9fe22691c811ea339d9b73150e6911a5343dca",
      "salt": "0x87b46d244e13c11aa3fcf896a9540ab0a0da46c20b7ff991e7bd16349dbb64b3",
      "assetIds": []
    },
    {
      "x": 182,
      "y": 395,
      "size": 1,
      "price": "1011000000000000000000",
      "reserved": "0x7a9fe22691c811ea339d9b73150e6911a5343dca",
      "salt": "0xd103ffcbbdc42bc45682e22b8d586119b667f9d45b580368a15b6a4ca2d43196",
      "assetIds": []
    },
    {
      "x": 182,
      "y": 396,
      "size": 1,
      "price": "1011000000000000000000",
      "reserved": "0x7a9fe22691c811ea339d9b73150e6911a5343dca",
      "salt": "0x0435d14f9057e2914afdba7683ab984d500f790bb94febeeb0e7e79fe5ba4113",
      "assetIds": []
    },
    {
      "x": 182,
      "y": 397,
      "size": 1,
      "price": "4683000000000000000000",
      "reserved": "",
      "salt": "0x1e2a1bb89d6e992567aeba645265798dd301a58afcff6516c9d822d60fa615a8",
      "assetIds": [
        "55464657044963196816950587289035428064568320970692304673817341489687790884865",
        "55464657044963196816950587289035428064568320970692304673817341489687782494208",
        "55464657044963196816950587289035428064568320970692304673817341489687790884866",
        "55464657044963196816950587289035428064568320970692304673817341489687782494209",
        "55464657044963196816950587289035428064568320970692304673817341489687790884864"
      ]
    },
    {
      "x": 182,
      "y": 398,
      "size": 1,
      "price": "4683000000000000000000",
      "reserved": "",
      "salt": "0x3b8106a1a414bf924984485cd158f0a719950e6f8f20a77ed1ec07ee02405334",
      "assetIds": [
        "55464657044963196816950587289035428064568320970692304673817341489687790884865",
        "55464657044963196816950587289035428064568320970692304673817341489687782494208",
        "55464657044963196816950587289035428064568320970692304673817341489687790884866",
        "55464657044963196816950587289035428064568320970692304673817341489687782494209",
        "55464657044963196816950587289035428064568320970692304673817341489687790884864"
      ]
    },
    {
      "x": 182,
      "y": 402,
      "size": 1,
      "price": "1011000000000000000000",
      "reserved": "",
      "salt": "0xcb409ae20344028a69814c65ea0b202c41ad34528911ff452eb5764246321c40",
      "assetIds": []
    },
    {
      "x": 182,
      "y": 403,
      "size": 1,
      "price": "1011000000000000000000",
      "reserved": "",
      "salt": "0xf402f557c1a603e24ab7661b57d566a0308fe08d6443bf397fe05565c7c92df0",
      "assetIds": []
    },
    {
      "x": 182,
      "y": 404,
      "size": 1,
      "price": "1011000000000000000000",
      "reserved": "",
      "salt": "0xb597e5e08a4d6563617da65e4cf8cbd232092412761fc1e36bd2fde655edf08e",
      "assetIds": []
    },
    {
      "x": 182,
      "y": 405,
      "size": 1,
      "price": "1011000000000000000000",
      "reserved": "",
      "salt": "0x4026d7aaf430fa7e4ab194d1773629ea984db54a2b30348ead094e3df0edb291",
      "assetIds": []
    },
    {
      "x": 182,
      "y": 406,
      "size": 1,
      "price": "1011000000000000000000",
      "reserved": "",
      "salt": "0x59f3cead5b047b67f5ea8bf3ab81aa402b7c8185e8d9276e9e6a8c8d5a46431d",
      "assetIds": []
    },
    {
      "x": 182,
      "y": 407,
      "size": 1,
      "price": "1011000000000000000000",
      "reserved": "",
      "salt": "0x0e51d5e3cbcac822eb8a99584843b920a39fde726a1b6f9e85f101493f3bc88d",
      "assetIds": []
    },
    {
      "x": 183,
      "y": 384,
      "size": 1,
      "price": "1011000000000000000000",
      "reserved": "",
      "salt": "0x5db7d9572fe1afeb62d3ba5359fb6aacb466c6ba07b3830234ff1b29b312bcd7",
      "assetIds": []
    },
    {
      "x": 183,
      "y": 385,
      "size": 1,
      "price": "1011000000000000000000",
      "reserved": "",
      "salt": "0x76e53bacfe96e807bdef36a97be4b42a64cbc33fcb6861007f1a67a96c91e968",
      "assetIds": []
    },
    {
      "x": 183,
      "y": 386,
      "size": 1,
      "price": "1011000000000000000000",
      "reserved": "",
      "salt": "0x1c27486b74f1e2963c04279622e3070c556b64d406caa60db8d9f5aa568cd0d1",
      "assetIds": []
    },
    {
      "x": 183,
      "y": 387,
      "size": 1,
      "price": "1011000000000000000000",
      "reserved": "0x7a9fe22691c811ea339d9b73150e6911a5343dca",
      "salt": "0x1a82d1d1bf26d5ee40b54c2e4d93bb82253902f022f86d859b3770be3526cfac",
      "assetIds": []
    },
    {
      "x": 183,
      "y": 388,
      "size": 1,
      "price": "1011000000000000000000",
      "reserved": "0x7a9fe22691c811ea339d9b73150e6911a5343dca",
      "salt": "0x35b2fff1d46b663b8bf8fd6775b6e7f5a3c4b47be4531bc9898edd32acf568cf",
      "assetIds": []
    },
    {
      "x": 183,
      "y": 389,
      "size": 1,
      "price": "1011000000000000000000",
      "reserved": "",
      "salt": "0x7aabbadc783c8b0c9bc99a2ce381297c12289850a0d18d457be14abd9158e8a4",
      "assetIds": []
    },
    {
      "x": 183,
      "y": 390,
      "size": 1,
      "price": "1011000000000000000000",
      "reserved": "",
      "salt": "0x7d09667f996122adca2f77b83ae4b59ab5a257b69a32f0e04d2064ce4619a243",
      "assetIds": []
    },
    {
      "x": 183,
      "y": 391,
      "size": 1,
      "price": "1011000000000000000000",
      "reserved": "",
      "salt": "0x96bc9c128165d7f49bd94ccdad053b3ddb158eb596977722c558865d6d92bc37",
      "assetIds": []
    },
    {
      "x": 183,
      "y": 392,
      "size": 1,
      "price": "1011000000000000000000",
      "reserved": "",
      "salt": "0x1aa3f18a92e37eb89e9a0774709286cfe67ed8eeed56f51b86d2dd78659b2675",
      "assetIds": []
    },
    {
      "x": 183,
      "y": 393,
      "size": 1,
      "price": "1011000000000000000000",
      "reserved": "",
      "salt": "0x4b3b9372298a6a3631cda72f97b12da9039440323c52f6cf77a20bd76e0e8505",
      "assetIds": []
    },
    {
      "x": 183,
      "y": 394,
      "size": 1,
      "price": "1011000000000000000000",
      "reserved": "",
      "salt": "0x384bb3b5813fd3e910b8ea669322546c48aef0de99215937c616543b3a8502fb",
      "assetIds": []
    },
    {
      "x": 183,
      "y": 395,
      "size": 1,
      "price": "1011000000000000000000",
      "reserved": "",
      "salt": "0x4fa6e7a9073c6a047c3d9a9550003f387136c9f4e773251aa63aa109c8f4117c",
      "assetIds": []
    },
    {
      "x": 183,
      "y": 396,
      "size": 1,
      "price": "1011000000000000000000",
      "reserved": "",
      "salt": "0xa211e60111ad198ce0511232c1d6fc6bd61f748f95dae96c9e2b707e79ad2f14",
      "assetIds": []
    },
    {
      "x": 183,
      "y": 397,
      "size": 1,
      "price": "1011000000000000000000",
      "reserved": "",
      "salt": "0xc983a8fe2d55897a68c39031824753691f6a3a90411c7deb3ca6bbcb24798a2f",
      "assetIds": []
    },
    {
      "x": 183,
      "y": 398,
      "size": 1,
      "price": "1011000000000000000000",
      "reserved": "",
      "salt": "0x234c688002c69ee2b90ec271e9462ed746d27f58bebe91b257d5c9e394607844",
      "assetIds": []
    },
    {
      "x": 183,
      "y": 399,
      "size": 1,
      "price": "1011000000000000000000",
      "reserved": "",
      "salt": "0x65b93d44617705b6cd094111de8206bdb81d6fdf2f7ea4255a276fb8475af6e9",
      "assetIds": []
    },
    {
      "x": 183,
      "y": 400,
      "size": 1,
      "price": "1011000000000000000000",
      "reserved": "0x7a9fe22691c811ea339d9b73150e6911a5343dca",
      "salt": "0x9149f1854dce2b803692e3b1f2b191fce6841d2ae74379e4b558b6138e0b5d7f",
      "assetIds": []
    },
    {
      "x": 183,
      "y": 401,
      "size": 1,
      "price": "1011000000000000000000",
      "reserved": "",
      "salt": "0xefd72ca27d03d1239e7d83a92110814a7c0c3fff212b80058bb93023103fda58",
      "assetIds": []
    },
    {
      "x": 183,
      "y": 402,
      "size": 1,
      "price": "1011000000000000000000",
      "reserved": "",
      "salt": "0xd1c2a3592a6ac95ac2aa915babb0e716b75e1a294cfaa8fff6348d49d18385b9",
      "assetIds": []
    },
    {
      "x": 183,
      "y": 403,
      "size": 1,
      "price": "1011000000000000000000",
      "reserved": "",
      "salt": "0xf218b4db9bc6be43df2e180feae0f97f2f9ea2fed19799d8ecfed8231fd8826b",
      "assetIds": []
    },
    {
      "x": 183,
      "y": 404,
      "size": 1,
      "price": "1011000000000000000000",
      "reserved": "",
      "salt": "0x461834f930719a897f35f574b09166e8ac0500095dc57cc1a5e2645143ce849c",
      "assetIds": []
    },
    {
      "x": 183,
      "y": 405,
      "size": 1,
      "price": "1011000000000000000000",
      "reserved": "",
      "salt": "0xe5f4c7efd65c7c2acc7e473c5c86dc21422eabdc03f1e24b466616d809fb7139",
      "assetIds": []
    },
    {
      "x": 183,
      "y": 406,
      "size": 1,
      "price": "1011000000000000000000",
      "reserved": "",
      "salt": "0x2940aede1ac080f75b3cc9afae7fb081e654c71050d2e17f2dcb2a3e4784cf90",
      "assetIds": []
    },
    {
      "x": 183,
      "y": 407,
      "size": 1,
      "price": "1011000000000000000000",
      "reserved": "",
      "salt": "0x324b2e28389158968e3aa951fc77fec9ff8c19d5a16583d9bc7527312857602a",
      "assetIds": []
    },
    {
      "x": 184,
      "y": 384,
      "size": 1,
      "price": "1011000000000000000000",
      "reserved": "0x7a9fe22691c811ea339d9b73150e6911a5343dca",
      "salt": "0x854c471220b03dfc26c6163511105c85db1b130f22550a1709bd782f6405e15d",
      "assetIds": []
    },
    {
      "x": 184,
      "y": 385,
      "size": 1,
      "price": "1011000000000000000000",
      "reserved": "",
      "salt": "0x7f4eb91e2e53a623c30da2045e89f341ea629796044eb93b88e44403858aafc7",
      "assetIds": []
    },
    {
      "x": 184,
      "y": 386,
      "size": 1,
      "price": "1011000000000000000000",
      "reserved": "0x7a9fe22691c811ea339d9b73150e6911a5343dca",
      "salt": "0xf5495e4244b735d7801ec0e7cd51f65990102f476718b9ba0acaee9fe90fb7ee",
      "assetIds": []
    },
    {
      "x": 184,
      "y": 387,
      "size": 1,
      "price": "4683000000000000000000",
      "reserved": "",
      "salt": "0x01b5d169539c4b97d14bea6fa95ef7ccf24e5dc4b4b309f278b984c946224cd3",
      "assetIds": [
        "55464657044963196816950587289035428064568320970692304673817341489687790884865",
        "55464657044963196816950587289035428064568320970692304673817341489687782494208",
        "55464657044963196816950587289035428064568320970692304673817341489687790884866",
        "55464657044963196816950587289035428064568320970692304673817341489687782494209",
        "55464657044963196816950587289035428064568320970692304673817341489687790884864"
      ]
    },
    {
      "x": 184,
      "y": 388,
      "size": 1,
      "price": "4683000000000000000000",
      "reserved": "",
      "salt": "0x648876772d73a5d54dca67cd53c6ca1c6aec1dd7310d3b26d04f4ee56ce3fd4c",
      "assetIds": [
        "55464657044963196816950587289035428064568320970692304673817341489687790884865",
        "55464657044963196816950587289035428064568320970692304673817341489687782494208",
        "55464657044963196816950587289035428064568320970692304673817341489687790884866",
        "55464657044963196816950587289035428064568320970692304673817341489687782494209",
        "55464657044963196816950587289035428064568320970692304673817341489687790884864"
      ]
    },
    {
      "x": 184,
      "y": 389,
      "size": 1,
      "price": "4683000000000000000000",
      "reserved": "",
      "salt": "0x82874b0d1a2a73542d1aab8b146b7070723832db418fb4c6b33797d38a306cf4",
      "assetIds": [
        "55464657044963196816950587289035428064568320970692304673817341489687790884865",
        "55464657044963196816950587289035428064568320970692304673817341489687782494208",
        "55464657044963196816950587289035428064568320970692304673817341489687790884866",
        "55464657044963196816950587289035428064568320970692304673817341489687782494209",
        "55464657044963196816950587289035428064568320970692304673817341489687790884864"
      ]
    },
    {
      "x": 184,
      "y": 390,
      "size": 1,
      "price": "1011000000000000000000",
      "reserved": "",
      "salt": "0x7c8e11f6d4d4595cc262dbf3f2c601e2cb08bc55765a1ceda76287485fedd3ef",
      "assetIds": []
    },
    {
      "x": 184,
      "y": 391,
      "size": 1,
      "price": "1011000000000000000000",
      "reserved": "",
      "salt": "0x2e3a3d4dc468f7f73a326b541eece2f48cc4781f9ea4c5fe9d86f5bafb9f9316",
      "assetIds": []
    },
    {
      "x": 184,
      "y": 392,
      "size": 1,
      "price": "1011000000000000000000",
      "reserved": "",
      "salt": "0x2ee42478dbdcb5791821916fbd9cee50614608eaf5e209e8d131fca77d594e18",
      "assetIds": []
    },
    {
      "x": 184,
      "y": 393,
      "size": 1,
      "price": "1011000000000000000000",
      "reserved": "",
      "salt": "0x7cb9c42875e27dfa476b9322afa23bf4934f5ce1785187f0cf063078f59de063",
      "assetIds": []
    },
    {
      "x": 184,
      "y": 394,
      "size": 1,
      "price": "1011000000000000000000",
      "reserved": "0x7a9fe22691c811ea339d9b73150e6911a5343dca",
      "salt": "0x2ef279e58508fdf23dade00215be9cc8fc4350c24525044bb54778a77a3a0de9",
      "assetIds": []
    },
    {
      "x": 184,
      "y": 395,
      "size": 1,
      "price": "1011000000000000000000",
      "reserved": "",
      "salt": "0xaedb410057d48dd3d8e646a4fe92c84391696e60546014f58319ea0ce97b4eb9",
      "assetIds": []
    },
    {
      "x": 184,
      "y": 396,
      "size": 1,
      "price": "1011000000000000000000",
      "reserved": "0x7a9fe22691c811ea339d9b73150e6911a5343dca",
      "salt": "0xf3b2c9f0096479fc00170efd5129beb1de68d506c3ce88686068acebb4be5e00",
      "assetIds": []
    },
    {
      "x": 184,
      "y": 397,
      "size": 1,
      "price": "1011000000000000000000",
      "reserved": "",
      "salt": "0xe3a252d0de15e949d5b51c0c9f433acfc585358312f223a92d812a471d576fa1",
      "assetIds": []
    },
    {
      "x": 184,
      "y": 398,
      "size": 1,
      "price": "1011000000000000000000",
      "reserved": "",
      "salt": "0xfbc8dab67d4209ee9d1952340e3c086ef0c74ea4d268762c7388a88eb337e140",
      "assetIds": []
    },
    {
      "x": 184,
      "y": 399,
      "size": 1,
      "price": "1011000000000000000000",
      "reserved": "",
      "salt": "0x91f336100afbe3a46eb55f4b40a56a7fe2b412be5cb77a53f5b34a1b903376fd",
      "assetIds": []
    },
    {
      "x": 184,
      "y": 400,
      "size": 1,
      "price": "1011000000000000000000",
      "reserved": "",
      "salt": "0xce5e78a021c9f9e383a173ea530f1000c94814ce871f4f1f8e9bb7b0a82efa8a",
      "assetIds": []
    },
    {
      "x": 184,
      "y": 401,
      "size": 1,
      "price": "1011000000000000000000",
      "reserved": "",
      "salt": "0x4a347d3aa126621e9c80bb12cf00edb489803be13d9b1858770e00bc181ff76b",
      "assetIds": []
    },
    {
      "x": 184,
      "y": 402,
      "size": 1,
      "price": "1011000000000000000000",
      "reserved": "0x7a9fe22691c811ea339d9b73150e6911a5343dca",
      "salt": "0xa9124ba6c496cf1d1a20516634bd8d812a41660092e5dcc21f754bc987570c31",
      "assetIds": []
    },
    {
      "x": 184,
      "y": 403,
      "size": 1,
      "price": "1011000000000000000000",
      "reserved": "",
      "salt": "0x09c5c0afa1391ee99b70a6f27c1f69d855b5bc10fb85714dd25478ae4537cf0b",
      "assetIds": []
    },
    {
      "x": 184,
      "y": 404,
      "size": 1,
      "price": "1011000000000000000000",
      "reserved": "",
      "salt": "0x8b52603f89b5c3fbd393145edabe268166cae6d91925d8e2583d19ee6b75d970",
      "assetIds": []
    },
    {
      "x": 184,
      "y": 405,
      "size": 1,
      "price": "1011000000000000000000",
      "reserved": "",
      "salt": "0x52ff5f11d91b4965cde7a4ba19ed9ad8ddaf6773c93dd2ed6e6e98e5981f7ed6",
      "assetIds": []
    },
    {
      "x": 184,
      "y": 406,
      "size": 1,
      "price": "1011000000000000000000",
      "reserved": "0x7a9fe22691c811ea339d9b73150e6911a5343dca",
      "salt": "0xf6c6c88a6a077501a549453023ccce5edbfd317bbfad8c39e31c3b4828073940",
      "assetIds": []
    },
    {
      "x": 184,
      "y": 407,
      "size": 1,
      "price": "1011000000000000000000",
      "reserved": "",
      "salt": "0x4eae39fa56ad5cb180eeddc91260827ea1bb035fd13c44e0e683f0a4873c2517",
      "assetIds": []
    },
    {
      "x": 185,
      "y": 384,
      "size": 1,
      "price": "4683000000000000000000",
      "reserved": "",
      "salt": "0x2123c2cd159c7a85be4cc4bc80b7587f0a3cde3d13e4efdaa4cff6149c2e7274",
      "assetIds": [
        "55464657044963196816950587289035428064568320970692304673817341489687790884865",
        "55464657044963196816950587289035428064568320970692304673817341489687782494208",
        "55464657044963196816950587289035428064568320970692304673817341489687790884866",
        "55464657044963196816950587289035428064568320970692304673817341489687782494209",
        "55464657044963196816950587289035428064568320970692304673817341489687790884864"
      ]
    },
    {
      "x": 185,
      "y": 385,
      "size": 1,
      "price": "4683000000000000000000",
      "reserved": "",
      "salt": "0x9e1d190d284b453a1c93307a5c48267515fdd8d63365aca691dc189483e496e0",
      "assetIds": [
        "55464657044963196816950587289035428064568320970692304673817341489687790884865",
        "55464657044963196816950587289035428064568320970692304673817341489687782494208",
        "55464657044963196816950587289035428064568320970692304673817341489687790884866",
        "55464657044963196816950587289035428064568320970692304673817341489687782494209",
        "55464657044963196816950587289035428064568320970692304673817341489687790884864"
      ]
    },
    {
      "x": 185,
      "y": 386,
      "size": 1,
      "price": "4683000000000000000000",
      "reserved": "",
      "salt": "0x30d35b7134f2f13770559a5c2a7daadc520909e2696558bd6ff48d10d9253a56",
      "assetIds": [
        "55464657044963196816950587289035428064568320970692304673817341489687790884865",
        "55464657044963196816950587289035428064568320970692304673817341489687782494208",
        "55464657044963196816950587289035428064568320970692304673817341489687790884866",
        "55464657044963196816950587289035428064568320970692304673817341489687782494209",
        "55464657044963196816950587289035428064568320970692304673817341489687790884864"
      ]
    },
    {
      "x": 185,
      "y": 387,
      "size": 1,
      "price": "4683000000000000000000",
      "reserved": "",
      "salt": "0x4b4f83cbf938dcf824b607d8055459aa4ad87e06166a07dc80c733f50313c82e",
      "assetIds": [
        "55464657044963196816950587289035428064568320970692304673817341489687790884865",
        "55464657044963196816950587289035428064568320970692304673817341489687782494208",
        "55464657044963196816950587289035428064568320970692304673817341489687790884866",
        "55464657044963196816950587289035428064568320970692304673817341489687782494209",
        "55464657044963196816950587289035428064568320970692304673817341489687790884864"
      ]
    },
    {
      "x": 185,
      "y": 388,
      "size": 1,
      "price": "4683000000000000000000",
      "reserved": "",
      "salt": "0xa3986f8e1d228363bd31077b69cf1bad364a13e362cfd9a494377b04679fe46b",
      "assetIds": [
        "55464657044963196816950587289035428064568320970692304673817341489687790884865",
        "55464657044963196816950587289035428064568320970692304673817341489687782494208",
        "55464657044963196816950587289035428064568320970692304673817341489687790884866",
        "55464657044963196816950587289035428064568320970692304673817341489687782494209",
        "55464657044963196816950587289035428064568320970692304673817341489687790884864"
      ]
    },
    {
      "x": 185,
      "y": 389,
      "size": 1,
      "price": "4683000000000000000000",
      "reserved": "",
      "salt": "0xdc0a98c723c58045d2afa87bd874d461d817593ed531ea8792874f74a85b770e",
      "assetIds": [
        "55464657044963196816950587289035428064568320970692304673817341489687790884865",
        "55464657044963196816950587289035428064568320970692304673817341489687782494208",
        "55464657044963196816950587289035428064568320970692304673817341489687790884866",
        "55464657044963196816950587289035428064568320970692304673817341489687782494209",
        "55464657044963196816950587289035428064568320970692304673817341489687790884864"
      ]
    },
    {
      "x": 185,
      "y": 390,
      "size": 1,
      "price": "1011000000000000000000",
      "reserved": "",
      "salt": "0x0553ba0ec2a63baebe85979932ed444c1b1499750b2aed184e66761076e632de",
      "assetIds": []
    },
    {
      "x": 185,
      "y": 391,
      "size": 1,
      "price": "1011000000000000000000",
      "reserved": "",
      "salt": "0x0c0b8bb391b4be1a59099d9e1361305c7d56fa62ab22ea5e8d6d6338f23d8c54",
      "assetIds": []
    },
    {
      "x": 185,
      "y": 392,
      "size": 1,
      "price": "1011000000000000000000",
      "reserved": "",
      "salt": "0x25ba53c282999edbbc37e0a07e7c13614fbadef83edecd4d2bc1193a532a6da0",
      "assetIds": []
    },
    {
      "x": 185,
      "y": 393,
      "size": 1,
      "price": "1011000000000000000000",
      "reserved": "",
      "salt": "0x4a972df18ce70b49f49c2aee225f2917f544f54a0be017447b4062c210c6dadd",
      "assetIds": []
    },
    {
      "x": 185,
      "y": 394,
      "size": 1,
      "price": "1011000000000000000000",
      "reserved": "",
      "salt": "0xa68d4f7184d1a40e9b0bf797dd35161fdd40ad431a1bfd4685fa258a47474d69",
      "assetIds": []
    },
    {
      "x": 185,
      "y": 395,
      "size": 1,
      "price": "1011000000000000000000",
      "reserved": "",
      "salt": "0xb7d930fdc15102f0659bf2760346b23235095308bcf3e0126962bf35eed802e4",
      "assetIds": []
    },
    {
      "x": 185,
      "y": 396,
      "size": 1,
      "price": "1011000000000000000000",
      "reserved": "",
      "salt": "0x51de7988cf1cb9c7d266373e41740eead82e941282a07c853a0009731df9cdaf",
      "assetIds": []
    },
    {
      "x": 185,
      "y": 397,
      "size": 1,
      "price": "1011000000000000000000",
      "reserved": "",
      "salt": "0xa86a80060f0e282c4f62243c85bb57bd423e70b12d83cfb9ae11d6824b2966e2",
      "assetIds": []
    },
    {
      "x": 185,
      "y": 398,
      "size": 1,
      "price": "1011000000000000000000",
      "reserved": "",
      "salt": "0xdeca3cdac7240fa6e0c7ac7763c6413912730f11ee4003b5a703e46d496e294d",
      "assetIds": []
    },
    {
      "x": 185,
      "y": 399,
      "size": 1,
      "price": "1011000000000000000000",
      "reserved": "",
      "salt": "0x61d18e72eb72b54580c37c55a054e00c4520bca83adf70988997ca5d58cd36d1",
      "assetIds": []
    },
    {
      "x": 185,
      "y": 400,
      "size": 1,
      "price": "1011000000000000000000",
      "reserved": "",
      "salt": "0xb7a9e541c1991239a4ff852fd5ef378fd7023196fdaad44eed3abe860308d470",
      "assetIds": []
    },
    {
      "x": 185,
      "y": 401,
      "size": 1,
      "price": "1011000000000000000000",
      "reserved": "",
      "salt": "0x6c0d5fb9807c14c7b272ac690711b67f57c77f7ddd8017d6c39a5cbb8a08dc5a",
      "assetIds": []
    },
    {
      "x": 185,
      "y": 402,
      "size": 1,
      "price": "1011000000000000000000",
      "reserved": "",
      "salt": "0x81b04ce8dec2ff7a31c068e350c7fcc1126ade2b2b3414b9c58887ce4078387b",
      "assetIds": []
    },
    {
      "x": 185,
      "y": 403,
      "size": 1,
      "price": "1011000000000000000000",
      "reserved": "",
      "salt": "0x762961db33cd80229a9e9f7ea2803caf87ee495296e88e1645c966d8b3226b72",
      "assetIds": []
    },
    {
      "x": 185,
      "y": 404,
      "size": 1,
      "price": "1011000000000000000000",
      "reserved": "",
      "salt": "0xf0fabe8baf3a111f5d9bf06daad793bc355bc6ee3e7ab97cad9c5dad86c8fd34",
      "assetIds": []
    },
    {
      "x": 185,
      "y": 405,
      "size": 1,
      "price": "1011000000000000000000",
      "reserved": "",
      "salt": "0x99f2428c9f5f682614e8ab1cb7176fb5f19dae5d6fd7bfd3c079a62d8667647b",
      "assetIds": []
    },
    {
      "x": 185,
      "y": 406,
      "size": 1,
      "price": "1011000000000000000000",
      "reserved": "",
      "salt": "0x50e5edcecd4c9ba84653d04c941bc759e2f997c555758c0e00c1ad05990f4c94",
      "assetIds": []
    },
    {
      "x": 185,
      "y": 407,
      "size": 1,
      "price": "1011000000000000000000",
      "reserved": "",
      "salt": "0x07baddd7c309312c482e08b6a446258d06e6a414e5c26e036cebe61be88578d9",
      "assetIds": []
    },
    {
      "x": 186,
      "y": 390,
      "size": 1,
      "price": "4683000000000000000000",
      "reserved": "",
      "salt": "0xa2f3c8f945fb0deff3f6f62c2fae0b143687b28dbc6c85a80fb2284d5431d024",
      "assetIds": [
        "55464657044963196816950587289035428064568320970692304673817341489687790884865",
        "55464657044963196816950587289035428064568320970692304673817341489687782494208",
        "55464657044963196816950587289035428064568320970692304673817341489687790884866",
        "55464657044963196816950587289035428064568320970692304673817341489687782494209",
        "55464657044963196816950587289035428064568320970692304673817341489687790884864"
      ]
    },
    {
      "x": 186,
      "y": 391,
      "size": 1,
      "price": "4683000000000000000000",
      "reserved": "",
      "salt": "0x70c5608f9c40ca1884aac066fc6102df8cf8534c2eae2347fa8f46b0990fdbf3",
      "assetIds": [
        "55464657044963196816950587289035428064568320970692304673817341489687790884865",
        "55464657044963196816950587289035428064568320970692304673817341489687782494208",
        "55464657044963196816950587289035428064568320970692304673817341489687790884866",
        "55464657044963196816950587289035428064568320970692304673817341489687782494209",
        "55464657044963196816950587289035428064568320970692304673817341489687790884864"
      ]
    },
    {
      "x": 186,
      "y": 392,
      "size": 1,
      "price": "1011000000000000000000",
      "reserved": "0x7a9fe22691c811ea339d9b73150e6911a5343dca",
      "salt": "0x95d14f2c625a78af3703b4ec3e96b3b5611c18f3ef4bc50a04a4c3d2d973f154",
      "assetIds": []
    },
    {
      "x": 186,
      "y": 393,
      "size": 1,
      "price": "1011000000000000000000",
      "reserved": "",
      "salt": "0x3079daa51ea258926fabaed320c3be00237e29226779a06ce8a6fed0aac73cec",
      "assetIds": []
    },
    {
      "x": 186,
      "y": 394,
      "size": 1,
      "price": "1011000000000000000000",
      "reserved": "0x7a9fe22691c811ea339d9b73150e6911a5343dca",
      "salt": "0xb12ffa6a158a67f33c4f58f3c99b6fd250a3c11468b3cd861fdf5eb9633ca7bf",
      "assetIds": []
    },
    {
      "x": 186,
      "y": 395,
      "size": 1,
      "price": "1011000000000000000000",
      "reserved": "0x7a9fe22691c811ea339d9b73150e6911a5343dca",
      "salt": "0xc3e7d517c34cf007bb9a1f40312581752d274a8ca30f6da115332a78b1c441f9",
      "assetIds": []
    },
    {
      "x": 186,
      "y": 396,
      "size": 1,
      "price": "1011000000000000000000",
      "reserved": "",
      "salt": "0xce61b1d42ef74021a8aeac6d32a69c3e45c97b280edcb2f7c4ce6966644cd2d2",
      "assetIds": []
    },
    {
      "x": 186,
      "y": 397,
      "size": 1,
      "price": "1011000000000000000000",
      "reserved": "",
      "salt": "0x476377cfe61ecf3a101561965b1f647a30c41b2fbc9f75db288e0a5c103db6e0",
      "assetIds": []
    },
    {
      "x": 186,
      "y": 398,
      "size": 1,
      "price": "1011000000000000000000",
      "reserved": "0x7a9fe22691c811ea339d9b73150e6911a5343dca",
      "salt": "0x5de9a6edba713c54f2c9f7b411fbd758d50a4155cb0ebc6f470c5e1a550792fe",
      "assetIds": []
    },
    {
      "x": 186,
      "y": 399,
      "size": 1,
      "price": "1011000000000000000000",
      "reserved": "",
      "salt": "0xc9b3f56132a3c6b7de51d175b466d011c13aa603ca6e6cfae8fd73b1933dce60",
      "assetIds": []
    },
    {
      "x": 186,
      "y": 400,
      "size": 1,
      "price": "1011000000000000000000",
      "reserved": "",
      "salt": "0xa750602ef1a2f524610563a94aabeed91f049098199eabc342aeb0e7c868edfe",
      "assetIds": []
    },
    {
      "x": 186,
      "y": 401,
      "size": 1,
      "price": "1011000000000000000000",
      "reserved": "",
      "salt": "0x90d3eb8760392d1781557b7a3f6b737e1f0275f0c467dc1e6c39b988664c8a77",
      "assetIds": []
    },
    {
      "x": 186,
      "y": 402,
      "size": 1,
      "price": "1011000000000000000000",
      "reserved": "",
      "salt": "0x6ed5fe546e1f6f570aa6e2e413b36a4fece902ecbb3c21b766da1756b6628eff",
      "assetIds": []
    },
    {
      "x": 186,
      "y": 403,
      "size": 1,
      "price": "1011000000000000000000",
      "reserved": "",
      "salt": "0xd3dbfd31639d0b4035b522dd5c196b5db875cfda28c4dcb9170835e80638acf7",
      "assetIds": []
    },
    {
      "x": 186,
      "y": 404,
      "size": 1,
      "price": "1011000000000000000000",
      "reserved": "0x7a9fe22691c811ea339d9b73150e6911a5343dca",
      "salt": "0x2447da457a2182656b67aab774405c9643a99b3707d7a8dd93bdcaaeff899d68",
      "assetIds": []
    },
    {
      "x": 186,
      "y": 405,
      "size": 1,
      "price": "1011000000000000000000",
      "reserved": "",
      "salt": "0x18cc6ce6f0423152ca9458416594966648fe92b2860ff267403e95b45c33f5c7",
      "assetIds": []
    },
    {
      "x": 186,
      "y": 406,
      "size": 1,
      "price": "1011000000000000000000",
      "reserved": "",
      "salt": "0x7a299624e911a89f40208cb193a391fbcfc6ccdd64a87c568315b0a3d4a2d662",
      "assetIds": []
    },
    {
      "x": 186,
      "y": 407,
      "size": 1,
      "price": "1011000000000000000000",
      "reserved": "",
      "salt": "0x4bc25556616a08831c2f3ba0a0024eb77ef65cbc0da4ffdd87d836a5412e4901",
      "assetIds": []
    },
    {
      "x": 187,
      "y": 390,
      "size": 1,
      "price": "4683000000000000000000",
      "reserved": "",
      "salt": "0xd43c0b0222760df4dd85b493a680dc38efb30364711c56fd986555831c908640",
      "assetIds": [
        "55464657044963196816950587289035428064568320970692304673817341489687790884865",
        "55464657044963196816950587289035428064568320970692304673817341489687782494208",
        "55464657044963196816950587289035428064568320970692304673817341489687790884866",
        "55464657044963196816950587289035428064568320970692304673817341489687782494209",
        "55464657044963196816950587289035428064568320970692304673817341489687790884864"
      ]
    },
    {
      "x": 187,
      "y": 391,
      "size": 1,
      "price": "4683000000000000000000",
      "reserved": "",
      "salt": "0xc26c703360867421851abd3007a11d88ce722b966d272a5643014f8c997dbf1e",
      "assetIds": [
        "55464657044963196816950587289035428064568320970692304673817341489687790884865",
        "55464657044963196816950587289035428064568320970692304673817341489687782494208",
        "55464657044963196816950587289035428064568320970692304673817341489687790884866",
        "55464657044963196816950587289035428064568320970692304673817341489687782494209",
        "55464657044963196816950587289035428064568320970692304673817341489687790884864"
      ]
    },
    {
      "x": 187,
      "y": 392,
      "size": 1,
      "price": "1011000000000000000000",
      "reserved": "0x7a9fe22691c811ea339d9b73150e6911a5343dca",
      "salt": "0xb0b45e225047958932ca496242c6ba88a8be6d6a59e63a5c074078931b55814c",
      "assetIds": []
    },
    {
      "x": 187,
      "y": 393,
      "size": 1,
      "price": "1011000000000000000000",
      "reserved": "",
      "salt": "0xf9447371998f08d603d851e15120bb70217c6ea86ec18d5053db91e39336652d",
      "assetIds": []
    },
    {
      "x": 187,
      "y": 394,
      "size": 1,
      "price": "1011000000000000000000",
      "reserved": "",
      "salt": "0x29c66216b85d357b5a64e646976fda8d292d04b4d7793656790acaf54471760f",
      "assetIds": []
    },
    {
      "x": 187,
      "y": 395,
      "size": 1,
      "price": "1011000000000000000000",
      "reserved": "",
      "salt": "0x18687e8e53c9bfe5943d75285bd695dfa9f05e8f38c14a3acf7727dc5564126e",
      "assetIds": []
    },
    {
      "x": 187,
      "y": 396,
      "size": 1,
      "price": "1011000000000000000000",
      "reserved": "",
      "salt": "0x2a05b41a93e7ea7ff5d29beb282c45136a267904ad32e3a479de826623f057d5",
      "assetIds": []
    },
    {
      "x": 187,
      "y": 397,
      "size": 1,
      "price": "1011000000000000000000",
      "reserved": "",
      "salt": "0xef49120971457fc990afbe68b3472dbef0da7120b71883b3ff4a93cc22e5dda9",
      "assetIds": []
    },
    {
      "x": 187,
      "y": 398,
      "size": 1,
      "price": "1011000000000000000000",
      "reserved": "",
      "salt": "0x930fac31edc920677e22e85fbe28e5e83e94f912e744d0e877ca590f374e8f99",
      "assetIds": []
    },
    {
      "x": 187,
      "y": 399,
      "size": 1,
      "price": "1011000000000000000000",
      "reserved": "",
      "salt": "0x0e53fd8dd0eae27b5577450dc51d9f30ac2f2326b3117b747083f820dd69d66d",
      "assetIds": []
    },
    {
      "x": 187,
      "y": 400,
      "size": 1,
      "price": "1011000000000000000000",
      "reserved": "0x7a9fe22691c811ea339d9b73150e6911a5343dca",
      "salt": "0x5334cdf5fa795c1cde67c84e8fade2c3898b4649bb16cea55f8218ca30c936b1",
      "assetIds": []
    },
    {
      "x": 187,
      "y": 401,
      "size": 1,
      "price": "1011000000000000000000",
      "reserved": "",
      "salt": "0x2c0b52b783a654face340fb23fd56f81cede104db4681d5e5b9b29b4adbf2d18",
      "assetIds": []
    },
    {
      "x": 187,
      "y": 402,
      "size": 1,
      "price": "1011000000000000000000",
      "reserved": "0x7a9fe22691c811ea339d9b73150e6911a5343dca",
      "salt": "0x3fa1c95aae14f6825eab1211c2e0dbb498ea14ad68dc01551051f6ef4fd5e95a",
      "assetIds": []
    },
    {
      "x": 187,
      "y": 403,
      "size": 1,
      "price": "1011000000000000000000",
      "reserved": "",
      "salt": "0x81e2db24330ff5b92689eaf9ea759265aab9f2afe8734c6bcdf6c932ea5697ae",
      "assetIds": []
    },
    {
      "x": 187,
      "y": 404,
      "size": 1,
      "price": "1011000000000000000000",
      "reserved": "",
      "salt": "0xab9b44ddc123b28bcd62edf9dcff07699c7d8e7356333d499dc9f00b01fede2a",
      "assetIds": []
    },
    {
      "x": 187,
      "y": 405,
      "size": 1,
      "price": "1011000000000000000000",
      "reserved": "",
      "salt": "0x161c1b9435a54b113b4e9dd4320daa236e98541a2d7101aca189e115054be81f",
      "assetIds": []
    },
    {
      "x": 187,
      "y": 406,
      "size": 1,
      "price": "1011000000000000000000",
      "reserved": "0x7a9fe22691c811ea339d9b73150e6911a5343dca",
      "salt": "0xe5d646168e63e4dbb1e17269d60bc9bd4320ffffee7423cb717dd83f9a052e18",
      "assetIds": []
    },
    {
      "x": 187,
      "y": 407,
      "size": 1,
      "price": "1011000000000000000000",
      "reserved": "",
      "salt": "0x23db11d8cfb8c65e0865468c8219dcae00bfafe46e18cf8267358253860fb278",
      "assetIds": []
    },
    {
      "x": 188,
      "y": 390,
      "size": 1,
      "price": "4683000000000000000000",
      "reserved": "",
      "salt": "0x6866279335401e634012085c8af079717324d17285eee73d4aa585d80afa6a8a",
      "assetIds": [
        "55464657044963196816950587289035428064568320970692304673817341489687790884865",
        "55464657044963196816950587289035428064568320970692304673817341489687782494208",
        "55464657044963196816950587289035428064568320970692304673817341489687790884866",
        "55464657044963196816950587289035428064568320970692304673817341489687782494209",
        "55464657044963196816950587289035428064568320970692304673817341489687790884864"
      ]
    },
    {
      "x": 188,
      "y": 391,
      "size": 1,
      "price": "4683000000000000000000",
      "reserved": "",
      "salt": "0xd8f669fa78b358468b2b5810b098be68b861750bad4f6720058896def1699548",
      "assetIds": [
        "55464657044963196816950587289035428064568320970692304673817341489687790884865",
        "55464657044963196816950587289035428064568320970692304673817341489687782494208",
        "55464657044963196816950587289035428064568320970692304673817341489687790884866",
        "55464657044963196816950587289035428064568320970692304673817341489687782494209",
        "55464657044963196816950587289035428064568320970692304673817341489687790884864"
      ]
    },
    {
      "x": 188,
      "y": 392,
      "size": 1,
      "price": "1011000000000000000000",
      "reserved": "",
      "salt": "0x5d8da9970c8533a9402fb449835546bda17ff81c3652296532f81b16b7d21d18",
      "assetIds": []
    },
    {
      "x": 188,
      "y": 393,
      "size": 1,
      "price": "1011000000000000000000",
      "reserved": "",
      "salt": "0x60d83c7ea759459f7094f512bbe104ae661d378c0c0ca60e1ba49de77e8fe53e",
      "assetIds": []
    },
    {
      "x": 188,
      "y": 394,
      "size": 1,
      "price": "1011000000000000000000",
      "reserved": "0x7a9fe22691c811ea339d9b73150e6911a5343dca",
      "salt": "0x62329deef7a9595eda59b60540885104e7b986d16ce161a51b8a546ce11985d0",
      "assetIds": []
    },
    {
      "x": 188,
      "y": 395,
      "size": 1,
      "price": "1011000000000000000000",
      "reserved": "",
      "salt": "0x625c95880184210ae6465fd1ea9019d585c562412f0f6afa32bbcb52dd949528",
      "assetIds": []
    },
    {
      "x": 188,
      "y": 396,
      "size": 1,
      "price": "1011000000000000000000",
      "reserved": "0x7a9fe22691c811ea339d9b73150e6911a5343dca",
      "salt": "0x9e15bac8d3eb61eeb9224390a88a9c31622e30dbd35e293bcd68a8e981f033ca",
      "assetIds": []
    },
    {
      "x": 188,
      "y": 397,
      "size": 1,
      "price": "1011000000000000000000",
      "reserved": "0x7a9fe22691c811ea339d9b73150e6911a5343dca",
      "salt": "0xc1a28c8b64e3d642abf83787fa51f642c54e8c42d989ce878042167c3e7f658f",
      "assetIds": []
    },
    {
      "x": 188,
      "y": 398,
      "size": 1,
      "price": "1011000000000000000000",
      "reserved": "",
      "salt": "0x3edc108b45c0f8ec8c53d4bdb4334086b3cdb40d1ab32c3025a237d3c67bffe3",
      "assetIds": []
    },
    {
      "x": 188,
      "y": 399,
      "size": 1,
      "price": "1011000000000000000000",
      "reserved": "",
      "salt": "0x11acb1b8cbb6f935734ab03e0c1ee3146694742a4adfee381b12f6036a505324",
      "assetIds": []
    },
    {
      "x": 188,
      "y": 400,
      "size": 1,
      "price": "1011000000000000000000",
      "reserved": "",
      "salt": "0x32fca4a2975ee4ef996c9565d8a0b16ae3664b66ee71efbdf09673f4c6f1ce64",
      "assetIds": []
    },
    {
      "x": 188,
      "y": 401,
      "size": 1,
      "price": "1011000000000000000000",
      "reserved": "",
      "salt": "0xa16da203ead7ab82a97eef0c94455db429899a565e89f519cacaf20e8b238597",
      "assetIds": []
    },
    {
      "x": 188,
      "y": 402,
      "size": 1,
      "price": "1011000000000000000000",
      "reserved": "0x7a9fe22691c811ea339d9b73150e6911a5343dca",
      "salt": "0x1976bd2255715b39b4769a147d6c900a9f6e626cc3d79f735dea085e020775e0",
      "assetIds": []
    },
    {
      "x": 188,
      "y": 403,
      "size": 1,
      "price": "1011000000000000000000",
      "reserved": "",
      "salt": "0x5b6866ef6d92153187289856828c5507920179ec5dc5fa5a604f7b5281cbf3d1",
      "assetIds": []
    },
    {
      "x": 188,
      "y": 404,
      "size": 1,
      "price": "1011000000000000000000",
      "reserved": "0x7a9fe22691c811ea339d9b73150e6911a5343dca",
      "salt": "0x7664785a06f0deef1a76dd09db5dc115add04baced1e7649d889031dec843b7d",
      "assetIds": []
    },
    {
      "x": 188,
      "y": 405,
      "size": 1,
      "price": "1011000000000000000000",
      "reserved": "",
      "salt": "0xb5ae0e425073c687f0922cfbda608827ae1f9254f4080a66cc2f2780eed83c69",
      "assetIds": []
    },
    {
      "x": 188,
      "y": 406,
      "size": 1,
      "price": "1011000000000000000000",
      "reserved": "0x7a9fe22691c811ea339d9b73150e6911a5343dca",
      "salt": "0x601175198909074cebbbc2d49e37984f999980823474676dca898ddcc847b32c",
      "assetIds": []
    },
    {
      "x": 188,
      "y": 407,
      "size": 1,
      "price": "1011000000000000000000",
      "reserved": "",
      "salt": "0xe509b975d732e7c2f5b4ac2c6176317ce48e1073896b07c82f16c99e5aa8b6ba",
      "assetIds": []
    },
    {
      "x": 189,
      "y": 390,
      "size": 1,
      "price": "4683000000000000000000",
      "reserved": "",
      "salt": "0x1e3a71bdd94a9d5721552eb920477b1a9cce6d827003e6995087587d3f7c37a1",
      "assetIds": [
        "55464657044963196816950587289035428064568320970692304673817341489687790884865",
        "55464657044963196816950587289035428064568320970692304673817341489687782494208",
        "55464657044963196816950587289035428064568320970692304673817341489687790884866",
        "55464657044963196816950587289035428064568320970692304673817341489687782494209",
        "55464657044963196816950587289035428064568320970692304673817341489687790884864"
      ]
    },
    {
      "x": 189,
      "y": 391,
      "size": 1,
      "price": "1011000000000000000000",
      "reserved": "",
      "salt": "0x39fed538e66dedce81bd27c0176430698ee1a21bbb16cf5a6ed750a4d406dcb8",
      "assetIds": []
    },
    {
      "x": 189,
      "y": 392,
      "size": 1,
      "price": "1011000000000000000000",
      "reserved": "",
      "salt": "0xaf33e6a75b1f5acd99789fa74cac8d2b7b5afb18475534fd4899a456adc91454",
      "assetIds": []
    },
    {
      "x": 189,
      "y": 393,
      "size": 1,
      "price": "1011000000000000000000",
      "reserved": "",
      "salt": "0xe5b9653e60a89637c7a1fdeb1f72af88e178d97a5cccab32431578c12c14dc8e",
      "assetIds": []
    },
    {
      "x": 189,
      "y": 394,
      "size": 1,
      "price": "1011000000000000000000",
      "reserved": "",
      "salt": "0x172065c6f6663c722a2f3994751f5ea2bd2409417511b4618d8367e8a7252f1c",
      "assetIds": []
    },
    {
      "x": 189,
      "y": 395,
      "size": 1,
      "price": "1011000000000000000000",
      "reserved": "",
      "salt": "0xcaa678b4202ea9db19471a3c3f81b23ea44937b53586fb50dc2622771662f27a",
      "assetIds": []
    },
    {
      "x": 189,
      "y": 396,
      "size": 1,
      "price": "1011000000000000000000",
      "reserved": "",
      "salt": "0x451aeab475462d08217f5782965155d71494f264d5711fd08abf117d85c5ff78",
      "assetIds": []
    },
    {
      "x": 189,
      "y": 397,
      "size": 1,
      "price": "1011000000000000000000",
      "reserved": "",
      "salt": "0x11038af338975523905758170452a6796a918ce55e8744bb6e8d7ff23a716d5f",
      "assetIds": []
    },
    {
      "x": 189,
      "y": 398,
      "size": 1,
      "price": "1011000000000000000000",
      "reserved": "",
      "salt": "0x3457eb59bdd0267ae78d06b67fda59d7eaad817fefc30c945a9e88af391c0422",
      "assetIds": []
    },
    {
      "x": 189,
      "y": 399,
      "size": 1,
      "price": "1011000000000000000000",
      "reserved": "",
      "salt": "0x476bfc1bfc5e36069bd472f946ba7793593ce45aebe7c6ea51fff696ca0c4a63",
      "assetIds": []
    },
    {
      "x": 189,
      "y": 400,
      "size": 1,
      "price": "1011000000000000000000",
      "reserved": "0x7a9fe22691c811ea339d9b73150e6911a5343dca",
      "salt": "0xd315eeaa8fd9092daba8c2eb09caccf372097d9aa2b438baf9f9118e6800c5e2",
      "assetIds": []
    },
    {
      "x": 189,
      "y": 401,
      "size": 1,
      "price": "1011000000000000000000",
      "reserved": "",
      "salt": "0x2615efe1b49fa39b733c4884165c11cb1290f4968252ebb20e1f7fb1cbfceaeb",
      "assetIds": []
    },
    {
      "x": 189,
      "y": 402,
      "size": 1,
      "price": "1011000000000000000000",
      "reserved": "",
      "salt": "0xc189d012b8220545d3bc6c2465a433428aa28ff32603bf6692c3be897d30557e",
      "assetIds": []
    },
    {
      "x": 189,
      "y": 403,
      "size": 1,
      "price": "1011000000000000000000",
      "reserved": "",
      "salt": "0x18cd7c1f47c389a438a2be702f0baaca310888c6cd18fe36d627f2328b40c506",
      "assetIds": []
    },
    {
      "x": 189,
      "y": 404,
      "size": 1,
      "price": "1011000000000000000000",
      "reserved": "",
      "salt": "0x8149db4ade61a26823296d86c14217927b6dbf356b68d499c71ab40e8b8cf0a1",
      "assetIds": []
    },
    {
      "x": 189,
      "y": 405,
      "size": 1,
      "price": "1011000000000000000000",
      "reserved": "",
      "salt": "0xe7e7311a125ea5c0ea55f5b66d4e948fe57065015539d4076ee453d70667657d",
      "assetIds": []
    },
    {
      "x": 189,
      "y": 406,
      "size": 1,
      "price": "1011000000000000000000",
      "reserved": "",
      "salt": "0x30dc93774fe991d56c05591c08f2a8fe41e9c5282bd33320bdec2568f92be003",
      "assetIds": []
    },
    {
      "x": 189,
      "y": 407,
      "size": 1,
      "price": "1011000000000000000000",
      "reserved": "",
      "salt": "0xd7aa1d521b888db3cf621fc42fa259fa7ce2547c68b043d087055d3564b0e267",
      "assetIds": []
    },
    {
      "x": 190,
      "y": 390,
      "size": 1,
      "price": "4683000000000000000000",
      "reserved": "",
      "salt": "0x3800ea1f5ce6450db21c964264e3d71bdff52b755bee715caedc923a289a8222",
      "assetIds": [
        "55464657044963196816950587289035428064568320970692304673817341489687790884865",
        "55464657044963196816950587289035428064568320970692304673817341489687782494208",
        "55464657044963196816950587289035428064568320970692304673817341489687790884866",
        "55464657044963196816950587289035428064568320970692304673817341489687782494209",
        "55464657044963196816950587289035428064568320970692304673817341489687790884864"
      ]
    },
    {
      "x": 190,
      "y": 391,
      "size": 1,
      "price": "1011000000000000000000",
      "reserved": "0x7a9fe22691c811ea339d9b73150e6911a5343dca",
      "salt": "0x21ca40eee8eb69ab31c8799246e0874d06a0e1283d5a211b9c31d2224852018b",
      "assetIds": []
    },
    {
      "x": 190,
      "y": 392,
      "size": 1,
      "price": "1011000000000000000000",
      "reserved": "",
      "salt": "0xffe3212b35875313d26f2deb55f7c918fc541f94da44faf00c09f9d748cc5a22",
      "assetIds": []
    },
    {
      "x": 190,
      "y": 393,
      "size": 1,
      "price": "1011000000000000000000",
      "reserved": "",
      "salt": "0x81dccf7e75c91c7e27461349b201282f2972d7b7a034150da7e9178759528bd2",
      "assetIds": []
    },
    {
      "x": 190,
      "y": 394,
      "size": 1,
      "price": "1011000000000000000000",
      "reserved": "",
      "salt": "0x6baaf8c6db095ac3c1c0c8491bf710f39b7086e1b6890b66e13dac9de6233691",
      "assetIds": []
    },
    {
      "x": 190,
      "y": 395,
      "size": 1,
      "price": "1011000000000000000000",
      "reserved": "",
      "salt": "0x207c24a45dc32f3f1d632bf67af538fd9e66b272dc4cc961adcaa4cd1608714b",
      "assetIds": []
    },
    {
      "x": 190,
      "y": 396,
      "size": 1,
      "price": "1011000000000000000000",
      "reserved": "",
      "salt": "0x4873c7e68d3dbe8813f37ebf6289d78e547b4770aae9544cd1aab7aa348d1da2",
      "assetIds": []
    },
    {
      "x": 190,
      "y": 397,
      "size": 1,
      "price": "1011000000000000000000",
      "reserved": "0x7a9fe22691c811ea339d9b73150e6911a5343dca",
      "salt": "0xb648b3bfce72a12ef8180c972d7492872bef35bfa4f8ea267626e33d4a131876",
      "assetIds": []
    },
    {
      "x": 190,
      "y": 398,
      "size": 1,
      "price": "1011000000000000000000",
      "reserved": "",
      "salt": "0xa085e2989fb3eac92dfa9eb9542abef9375c1b75865f09f38f1d7874b757f137",
      "assetIds": []
    },
    {
      "x": 190,
      "y": 399,
      "size": 1,
      "price": "1011000000000000000000",
      "reserved": "",
      "salt": "0xeac56a08b58c31d287afea82bc301ac8868b7ca3d86451c5cfababcc3818625f",
      "assetIds": []
    },
    {
      "x": 190,
      "y": 400,
      "size": 1,
      "price": "1011000000000000000000",
      "reserved": "",
      "salt": "0x902439e66c179f7d627d011100b7bb1d789f120d5cbeb96e26282834d0526853",
      "assetIds": []
    },
    {
      "x": 190,
      "y": 401,
      "size": 1,
      "price": "1011000000000000000000",
      "reserved": "",
      "salt": "0x77dfdeff688a4571fd0a2760512ccf7f281acc2d5d8ea47e4f46b3b22e961d8c",
      "assetIds": []
    },
    {
      "x": 190,
      "y": 402,
      "size": 1,
      "price": "1011000000000000000000",
      "reserved": "",
      "salt": "0x14759bca0d297bff013769cf75ca796accc2ccc8d83923fef0926e81e933f6b2",
      "assetIds": []
    },
    {
      "x": 190,
      "y": 403,
      "size": 1,
      "price": "1011000000000000000000",
      "reserved": "",
      "salt": "0xbf2219c33a2f67f976e97ab41e883ee047acc01bfc8ea56fa3cd4c3ceabfc5ca",
      "assetIds": []
    },
    {
      "x": 190,
      "y": 404,
      "size": 1,
      "price": "1011000000000000000000",
      "reserved": "",
      "salt": "0x0f0e0e8ea4bea6486875f2d65437c920c3da25cb433c4ac1fc1831ff60e76377",
      "assetIds": []
    },
    {
      "x": 190,
      "y": 405,
      "size": 1,
      "price": "1011000000000000000000",
      "reserved": "",
      "salt": "0xf8937b64969000772efe3e53b378f9d39ba44a56c2e83a6487d120c1dcd181e7",
      "assetIds": []
    },
    {
      "x": 190,
      "y": 406,
      "size": 1,
      "price": "1011000000000000000000",
      "reserved": "0x7a9fe22691c811ea339d9b73150e6911a5343dca",
      "salt": "0xcd7baebc2244403d4f02222360d58db6d0dbd16d0d4d2a1502b838c6aff3e066",
      "assetIds": []
    },
    {
      "x": 190,
      "y": 407,
      "size": 1,
      "price": "1011000000000000000000",
      "reserved": "",
      "salt": "0x5dbe168ef3fb21c8d19954d97188db49e13289c58f3564615659b6d145fdecb3",
      "assetIds": []
    },
    {
      "x": 191,
      "y": 390,
      "size": 1,
      "price": "4683000000000000000000",
      "reserved": "",
      "salt": "0x2f4084902f1d0a38b8b0c8a040ea1af149e146712a39d0b82d1fb8e1f0e64976",
      "assetIds": [
        "55464657044963196816950587289035428064568320970692304673817341489687790884865",
        "55464657044963196816950587289035428064568320970692304673817341489687782494208",
        "55464657044963196816950587289035428064568320970692304673817341489687790884866",
        "55464657044963196816950587289035428064568320970692304673817341489687782494209",
        "55464657044963196816950587289035428064568320970692304673817341489687790884864"
      ]
    },
    {
      "x": 191,
      "y": 391,
      "size": 1,
      "price": "1011000000000000000000",
      "reserved": "",
      "salt": "0x59a4d72879badd20ecd96a45b7d4c9401ee3b02c8723b0cc939e416b3f1e1aa7",
      "assetIds": []
    },
    {
      "x": 191,
      "y": 392,
      "size": 1,
      "price": "1011000000000000000000",
      "reserved": "0x7a9fe22691c811ea339d9b73150e6911a5343dca",
      "salt": "0xe37cf4ae40c3ae933ef60d196f4c8c5b00c0414be0c1914acad93a335d3a7487",
      "assetIds": []
    },
    {
      "x": 191,
      "y": 393,
      "size": 1,
      "price": "1011000000000000000000",
      "reserved": "",
      "salt": "0x6ac780527bf6c697355456afc4368955b3bcbc5107e2a2c158cdf54ad32c9cd6",
      "assetIds": []
    },
    {
      "x": 191,
      "y": 394,
      "size": 1,
      "price": "1011000000000000000000",
      "reserved": "0x7a9fe22691c811ea339d9b73150e6911a5343dca",
      "salt": "0x5f19d5ce6877cca8a65e98523af6223a8b7efd4929b425023bf582fbbcf894e2",
      "assetIds": []
    },
    {
      "x": 191,
      "y": 395,
      "size": 1,
      "price": "1011000000000000000000",
      "reserved": "",
      "salt": "0x738760229115d389da5865696f4ed7fec9df61deb67e4403142f8e56471c37ab",
      "assetIds": []
    },
    {
      "x": 191,
      "y": 396,
      "size": 1,
      "price": "1011000000000000000000",
      "reserved": "",
      "salt": "0x5d442da613a25c4d7807ce65122d3ef1bd2360589021435a44c6a0201096a05f",
      "assetIds": []
    },
    {
      "x": 191,
      "y": 397,
      "size": 1,
      "price": "1011000000000000000000",
      "reserved": "",
      "salt": "0x7469088ba73cd4afb20feb3df6a4972b8ceac2d2fc5f5a4105c7fcfa2286812f",
      "assetIds": []
    },
    {
      "x": 191,
      "y": 398,
      "size": 1,
      "price": "1011000000000000000000",
      "reserved": "",
      "salt": "0x91a6d4fd49b9388e5e08b878c7aa3360a1752f998b9233530bddf93c10b353d7",
      "assetIds": []
    },
    {
      "x": 191,
      "y": 399,
      "size": 1,
      "price": "1011000000000000000000",
      "reserved": "",
      "salt": "0x3d81a6a72232960634c218366c43528cff2f5f17cf448197d305e9b4dd04f13a",
      "assetIds": []
    },
    {
      "x": 191,
      "y": 400,
      "size": 1,
      "price": "1011000000000000000000",
      "reserved": "",
      "salt": "0x0043df8e86e8a6092ee7ac84c2aba6053ab8f220a328c79071a0102246820b5e",
      "assetIds": []
    },
    {
      "x": 191,
      "y": 401,
      "size": 1,
      "price": "1011000000000000000000",
      "reserved": "",
      "salt": "0x9e413ae80d02eea0e59938128f5cbd7788d9a41393b104ce6fb46c8ffcba7cec",
      "assetIds": []
    },
    {
      "x": 191,
      "y": 402,
      "size": 1,
      "price": "1011000000000000000000",
      "reserved": "",
      "salt": "0x343aa3881de0a5dbfef6a1339cb319a3eede1412262c9ef3c5f41f471ef66ace",
      "assetIds": []
    },
    {
      "x": 191,
      "y": 403,
      "size": 1,
      "price": "1011000000000000000000",
      "reserved": "",
      "salt": "0x2bc8c7c3345fdfdb63c0759d227560399df9a2aff7137f52dc1bffa582cb6795",
      "assetIds": []
    },
    {
      "x": 191,
      "y": 404,
      "size": 1,
      "price": "1011000000000000000000",
      "reserved": "",
      "salt": "0x06bb9f0b9e04b316a7e2d41a722ade4062bf8533eaeb1a3cd335b219aef9c3d4",
      "assetIds": []
    },
    {
      "x": 191,
      "y": 405,
      "size": 1,
      "price": "1011000000000000000000",
      "reserved": "",
      "salt": "0x737acfcb686055d7ad242edd73190347da89a0e1b3bbf05f7e0b8ba66ee5f2c1",
      "assetIds": []
    },
    {
      "x": 191,
      "y": 406,
      "size": 1,
      "price": "1011000000000000000000",
      "reserved": "",
      "salt": "0x4673bf9470bd7582ed9d25fa0104b8343df87102e916f2c590be6e54d5c9dfc5",
      "assetIds": []
    },
    {
      "x": 191,
      "y": 407,
      "size": 1,
      "price": "1011000000000000000000",
      "reserved": "",
      "salt": "0x256dd51e956c270c8a3dce54909853dcfb485df1ad5ea65c8e1ef28b33ecbaed",
      "assetIds": []
    },
    {
      "x": 192,
      "y": 372,
      "size": 1,
      "price": "4683000000000000000000",
      "reserved": "",
      "salt": "0x6fc4793fe7c4f98b0066117a9a65347ba44b17ce7cabeda8abec3bfb2f165b37",
      "assetIds": [
        "55464657044963196816950587289035428064568320970692304673817341489687790884865",
        "55464657044963196816950587289035428064568320970692304673817341489687782494208",
        "55464657044963196816950587289035428064568320970692304673817341489687790884866",
        "55464657044963196816950587289035428064568320970692304673817341489687782494209",
        "55464657044963196816950587289035428064568320970692304673817341489687790884864"
      ]
    },
    {
      "x": 192,
      "y": 373,
      "size": 1,
      "price": "4683000000000000000000",
      "reserved": "",
      "salt": "0x4ade3e4577f397e840c8c494ad4578d71c9c23a099dc3183a2fa315fbaec6b00",
      "assetIds": [
        "55464657044963196816950587289035428064568320970692304673817341489687790884865",
        "55464657044963196816950587289035428064568320970692304673817341489687782494208",
        "55464657044963196816950587289035428064568320970692304673817341489687790884866",
        "55464657044963196816950587289035428064568320970692304673817341489687782494209",
        "55464657044963196816950587289035428064568320970692304673817341489687790884864"
      ]
    },
    {
      "x": 192,
      "y": 374,
      "size": 1,
      "price": "4683000000000000000000",
      "reserved": "",
      "salt": "0x7ad760c1c501b7da47b956fc25aca843185307ddc73092e9c24561e9ab9fb87b",
      "assetIds": [
        "55464657044963196816950587289035428064568320970692304673817341489687790884865",
        "55464657044963196816950587289035428064568320970692304673817341489687782494208",
        "55464657044963196816950587289035428064568320970692304673817341489687790884866",
        "55464657044963196816950587289035428064568320970692304673817341489687782494209",
        "55464657044963196816950587289035428064568320970692304673817341489687790884864"
      ]
    },
    {
      "x": 192,
      "y": 375,
      "size": 1,
      "price": "1011000000000000000000",
      "reserved": "",
      "salt": "0x688a659ee8028748fc2212d75030369d0558b3df7939f987abae890d17fcff55",
      "assetIds": []
    },
    {
      "x": 192,
      "y": 376,
      "size": 1,
      "price": "1011000000000000000000",
      "reserved": "",
      "salt": "0x7f6fb3e5665b09cdc0005b0bc2f1729ae3189f6f7757ad4173ab58e59949029c",
      "assetIds": []
    },
    {
      "x": 192,
      "y": 377,
      "size": 1,
      "price": "1011000000000000000000",
      "reserved": "",
      "salt": "0x7ff8a8503f664bb06ba6632d7877a2cecb432813d1646b36309f6017d87e9367",
      "assetIds": []
    },
    {
      "x": 192,
      "y": 378,
      "size": 1,
      "price": "1011000000000000000000",
      "reserved": "",
      "salt": "0x9ecfcbc4fb8798981dc576d36d211ebd1c84324c9df6d3963e9545e51ecb3368",
      "assetIds": []
    },
    {
      "x": 192,
      "y": 379,
      "size": 1,
      "price": "1011000000000000000000",
      "reserved": "",
      "salt": "0x19fd8ddf562d58546caff897ed2fa940c2e86e07d3cde8e25ee75b1175ac90ef",
      "assetIds": []
    },
    {
      "x": 192,
      "y": 380,
      "size": 1,
      "price": "1011000000000000000000",
      "reserved": "",
      "salt": "0x3e2fc502d9322f61f58e4c550cecdd4e073f9ce830af6c069d67ca6b9fae262e",
      "assetIds": []
    },
    {
      "x": 192,
      "y": 381,
      "size": 1,
      "price": "1011000000000000000000",
      "reserved": "",
      "salt": "0x3284f039cc64145767e7d42f74c59f8c498e358aa20df179d9783171ef2d36e4",
      "assetIds": []
    },
    {
      "x": 192,
      "y": 382,
      "size": 1,
      "price": "1011000000000000000000",
      "reserved": "",
      "salt": "0x9e41c0d4ddb7237a5c2c73050be7937316d29e5793cba35e5dcd99530d5f1240",
      "assetIds": []
    },
    {
      "x": 192,
      "y": 383,
      "size": 1,
      "price": "1011000000000000000000",
      "reserved": "",
      "salt": "0x9c916dcb98a141e1e5d1ccc4a5bcbdf61c9a1e8f322b672a0a30fdbe8624d9c4",
      "assetIds": []
    },
    {
      "x": 192,
      "y": 384,
      "size": 1,
      "price": "4683000000000000000000",
      "reserved": "",
      "salt": "0x8d1782ffc2972fb796bc5cbb859cd8c9242f2fcba63a2e5adc768c3ca60bcfa9",
      "assetIds": [
        "55464657044963196816950587289035428064568320970692304673817341489687790884865",
        "55464657044963196816950587289035428064568320970692304673817341489687782494208",
        "55464657044963196816950587289035428064568320970692304673817341489687790884866",
        "55464657044963196816950587289035428064568320970692304673817341489687782494209",
        "55464657044963196816950587289035428064568320970692304673817341489687790884864"
      ]
    },
    {
      "x": 192,
      "y": 385,
      "size": 1,
      "price": "4683000000000000000000",
      "reserved": "",
      "salt": "0x6b35f1dec4864d153ec1390e6b6447f528116a28b9bd63456d4c7744b3e94510",
      "assetIds": [
        "55464657044963196816950587289035428064568320970692304673817341489687790884865",
        "55464657044963196816950587289035428064568320970692304673817341489687782494208",
        "55464657044963196816950587289035428064568320970692304673817341489687790884866",
        "55464657044963196816950587289035428064568320970692304673817341489687782494209",
        "55464657044963196816950587289035428064568320970692304673817341489687790884864"
      ]
    },
    {
      "x": 192,
      "y": 386,
      "size": 1,
      "price": "4683000000000000000000",
      "reserved": "",
      "salt": "0xd125c8fd8f6fb66e9cd765d322e22f03c815a340c76c454c772ef3e951619f9b",
      "assetIds": [
        "55464657044963196816950587289035428064568320970692304673817341489687790884865",
        "55464657044963196816950587289035428064568320970692304673817341489687782494208",
        "55464657044963196816950587289035428064568320970692304673817341489687790884866",
        "55464657044963196816950587289035428064568320970692304673817341489687782494209",
        "55464657044963196816950587289035428064568320970692304673817341489687790884864"
      ]
    },
    {
      "x": 192,
      "y": 387,
      "size": 1,
      "price": "4683000000000000000000",
      "reserved": "",
      "salt": "0xc3fb1c7a623cc1eb1c903714eb966e378ed77049d3455efd6750e86e9329d899",
      "assetIds": [
        "55464657044963196816950587289035428064568320970692304673817341489687790884865",
        "55464657044963196816950587289035428064568320970692304673817341489687782494208",
        "55464657044963196816950587289035428064568320970692304673817341489687790884866",
        "55464657044963196816950587289035428064568320970692304673817341489687782494209",
        "55464657044963196816950587289035428064568320970692304673817341489687790884864"
      ]
    },
    {
      "x": 192,
      "y": 388,
      "size": 1,
      "price": "4683000000000000000000",
      "reserved": "",
      "salt": "0x854e5b5e8d4d9eedf3bb8b9ee6376d1e2c1946d871efeb57226a4a1008d2c448",
      "assetIds": [
        "55464657044963196816950587289035428064568320970692304673817341489687790884865",
        "55464657044963196816950587289035428064568320970692304673817341489687782494208",
        "55464657044963196816950587289035428064568320970692304673817341489687790884866",
        "55464657044963196816950587289035428064568320970692304673817341489687782494209",
        "55464657044963196816950587289035428064568320970692304673817341489687790884864"
      ]
    },
    {
      "x": 192,
      "y": 389,
      "size": 1,
      "price": "4683000000000000000000",
      "reserved": "",
      "salt": "0xb9eaf2f9b737e46af755a6319377f5c7ea0bf01b589e841ab6f84210a13a0777",
      "assetIds": [
        "55464657044963196816950587289035428064568320970692304673817341489687790884865",
        "55464657044963196816950587289035428064568320970692304673817341489687782494208",
        "55464657044963196816950587289035428064568320970692304673817341489687790884866",
        "55464657044963196816950587289035428064568320970692304673817341489687782494209",
        "55464657044963196816950587289035428064568320970692304673817341489687790884864"
      ]
    },
    {
      "x": 192,
      "y": 390,
      "size": 1,
      "price": "4683000000000000000000",
      "reserved": "",
      "salt": "0x840b3a9b5e4525b3024bbdc13de99e32707b9b352963889092b46674be3c0830",
      "assetIds": [
        "55464657044963196816950587289035428064568320970692304673817341489687790884865",
        "55464657044963196816950587289035428064568320970692304673817341489687782494208",
        "55464657044963196816950587289035428064568320970692304673817341489687790884866",
        "55464657044963196816950587289035428064568320970692304673817341489687782494209",
        "55464657044963196816950587289035428064568320970692304673817341489687790884864"
      ]
    },
    {
      "x": 192,
      "y": 391,
      "size": 1,
      "price": "1011000000000000000000",
      "reserved": "",
      "salt": "0x2842fb9c50b660e2a3425f72132d46553dafc58a292ee3a52cb166a964319983",
      "assetIds": []
    },
    {
      "x": 192,
      "y": 392,
      "size": 1,
      "price": "1011000000000000000000",
      "reserved": "",
      "salt": "0x75b129256fb9fd17b220e402bb3957d40bfbff07229cb8c2b8ec028bd5c557f5",
      "assetIds": []
    },
    {
      "x": 192,
      "y": 393,
      "size": 1,
      "price": "1011000000000000000000",
      "reserved": "",
      "salt": "0x9a4ed69bd149cd4f434e30a7677942f7ad457dc9fc675695f26ee699a3fefc86",
      "assetIds": []
    },
    {
      "x": 192,
      "y": 394,
      "size": 1,
      "price": "1011000000000000000000",
      "reserved": "",
      "salt": "0x3693c3c3a1e20bae4b54fc8125a5dd74bc78d56dac432b6e9aac3082d3f3f1ce",
      "assetIds": []
    },
    {
      "x": 192,
      "y": 395,
      "size": 1,
      "price": "1011000000000000000000",
      "reserved": "",
      "salt": "0xfd049bc84e6c5f1cbdaa34e08b9c1e32d97b7c4adf4a034a0d7a9def9dd89523",
      "assetIds": []
    },
    {
      "x": 192,
      "y": 396,
      "size": 1,
      "price": "1011000000000000000000",
      "reserved": "0x7a9fe22691c811ea339d9b73150e6911a5343dca",
      "salt": "0x3131f306bdccd4d73f4c09b3bc8e0ac54b3e61a13772ca7af81b7f8a210bf953",
      "assetIds": []
    },
    {
      "x": 192,
      "y": 397,
      "size": 1,
      "price": "1011000000000000000000",
      "reserved": "",
      "salt": "0xab3f99933fd8c369025991f43ee5477a8c35b8ba432d51b3ccdd8f31ed599943",
      "assetIds": []
    },
    {
      "x": 192,
      "y": 398,
      "size": 1,
      "price": "1011000000000000000000",
      "reserved": "",
      "salt": "0x2ea13b41b8e931a4e5df1178206777bc7fe5cb1aa60c1d6863cd54ddc8c41e10",
      "assetIds": []
    },
    {
      "x": 192,
      "y": 399,
      "size": 1,
      "price": "1011000000000000000000",
      "reserved": "0x7a9fe22691c811ea339d9b73150e6911a5343dca",
      "salt": "0x5b6a43c841d0a2d317f9c4dcfd30dc948165ef930c6e6f9a83a7adeeb20b1cbd",
      "assetIds": []
    },
    {
      "x": 192,
      "y": 400,
      "size": 1,
      "price": "1011000000000000000000",
      "reserved": "",
      "salt": "0x1f48457369e23acce5077de8f5681e98be37ae52df42ca6a185b94e7daeae728",
      "assetIds": []
    },
    {
      "x": 192,
      "y": 401,
      "size": 1,
      "price": "1011000000000000000000",
      "reserved": "",
      "salt": "0x7cd7d6adc22e7c2b78ca2e08be45c870baaf7b288ac3d358513e94c2e0d69551",
      "assetIds": []
    },
    {
      "x": 192,
      "y": 402,
      "size": 1,
      "price": "1011000000000000000000",
      "reserved": "",
      "salt": "0x6581f1dbcf72485ed7423304e3636d858bd30ce10aa98790efd18f5fe795ea4e",
      "assetIds": []
    },
    {
      "x": 192,
      "y": 403,
      "size": 1,
      "price": "1011000000000000000000",
      "reserved": "",
      "salt": "0x4fc4604cda5f636c1955782ec9d25b406651dfd3b0c5708867f43d2c1ba410b5",
      "assetIds": []
    },
    {
      "x": 192,
      "y": 404,
      "size": 1,
      "price": "1011000000000000000000",
      "reserved": "",
      "salt": "0x1339b4a98a5c9a914fb205627ffefe62855ef1899498c04cb79174bb183bcf08",
      "assetIds": []
    },
    {
      "x": 192,
      "y": 405,
      "size": 1,
      "price": "1011000000000000000000",
      "reserved": "",
      "salt": "0x7312b3064c9b0d81905d3d8d1d0f365b5bdd4050353f82c622a683865fa83501",
      "assetIds": []
    },
    {
      "x": 192,
      "y": 406,
      "size": 1,
      "price": "1011000000000000000000",
      "reserved": "",
      "salt": "0xc05679735e5b556cf3c3e2ba37ae4d3d324d0e528f4622b5c25937792c47d35f",
      "assetIds": []
    },
    {
      "x": 192,
      "y": 407,
      "size": 1,
      "price": "1011000000000000000000",
      "reserved": "",
      "salt": "0x367b03617808ba5e5a314d1fcd5182ef2f9a238afdc92f17bbc9d0971235e9a2",
      "assetIds": []
    },
    {
      "x": 193,
      "y": 372,
      "size": 1,
      "price": "4683000000000000000000",
      "reserved": "",
      "salt": "0x1e7d4d86b556a2fb922e4bc003bcb2e4f8b8ca5b7613b777e342ab56e6fa1ec1",
      "assetIds": [
        "55464657044963196816950587289035428064568320970692304673817341489687790884865",
        "55464657044963196816950587289035428064568320970692304673817341489687782494208",
        "55464657044963196816950587289035428064568320970692304673817341489687790884866",
        "55464657044963196816950587289035428064568320970692304673817341489687782494209",
        "55464657044963196816950587289035428064568320970692304673817341489687790884864"
      ]
    },
    {
      "x": 193,
      "y": 373,
      "size": 1,
      "price": "4683000000000000000000",
      "reserved": "",
      "salt": "0xa09a4b976386e5ba2854f1a4e39c9292a96140bf3095fd51edda0bea326e8c47",
      "assetIds": [
        "55464657044963196816950587289035428064568320970692304673817341489687790884865",
        "55464657044963196816950587289035428064568320970692304673817341489687782494208",
        "55464657044963196816950587289035428064568320970692304673817341489687790884866",
        "55464657044963196816950587289035428064568320970692304673817341489687782494209",
        "55464657044963196816950587289035428064568320970692304673817341489687790884864"
      ]
    },
    {
      "x": 193,
      "y": 374,
      "size": 1,
      "price": "4683000000000000000000",
      "reserved": "",
      "salt": "0x090546c6b2a87f64b429c51a01d1b7afa13cdc2d096b7c2d1dfc10660160194b",
      "assetIds": [
        "55464657044963196816950587289035428064568320970692304673817341489687790884865",
        "55464657044963196816950587289035428064568320970692304673817341489687782494208",
        "55464657044963196816950587289035428064568320970692304673817341489687790884866",
        "55464657044963196816950587289035428064568320970692304673817341489687782494209",
        "55464657044963196816950587289035428064568320970692304673817341489687790884864"
      ]
    },
    {
      "x": 193,
      "y": 375,
      "size": 1,
      "price": "1011000000000000000000",
      "reserved": "",
      "salt": "0x71b97db1ec4e5f3623c4199e19808543f03bb9c916b0111c7211f7ec639e4324",
      "assetIds": []
    },
    {
      "x": 193,
      "y": 376,
      "size": 1,
      "price": "1011000000000000000000",
      "reserved": "",
      "salt": "0x4a69da1dd9aa93389118b165482f8632ff2a48ce058b70adadc9b16a8632be2d",
      "assetIds": []
    },
    {
      "x": 193,
      "y": 377,
      "size": 1,
      "price": "1011000000000000000000",
      "reserved": "",
      "salt": "0x8f51989d283d117ef453e93b84f10702728875ef117837eac660fd76fb3a990c",
      "assetIds": []
    },
    {
      "x": 193,
      "y": 378,
      "size": 1,
      "price": "1011000000000000000000",
      "reserved": "",
      "salt": "0x0ae7c858673ecbf388fa3906099f85f0a6215f9207fc1aff39d0a059daa6c4f1",
      "assetIds": []
    },
    {
      "x": 193,
      "y": 379,
      "size": 1,
      "price": "1011000000000000000000",
      "reserved": "0x7a9fe22691c811ea339d9b73150e6911a5343dca",
      "salt": "0x515a56097feefcdf400e2fa131c63787994c4ab98a274afcd04a51e215f58fd4",
      "assetIds": []
    },
    {
      "x": 193,
      "y": 380,
      "size": 1,
      "price": "1011000000000000000000",
      "reserved": "",
      "salt": "0x707338c6f7c8e6dc66cfef206d09af0b45a3ea9b3cad6363c83d806afdfddc4f",
      "assetIds": []
    },
    {
      "x": 193,
      "y": 381,
      "size": 1,
      "price": "1011000000000000000000",
      "reserved": "",
      "salt": "0xdeffb12251825e161576f02f680335ff0436ab2299f536bbac04268285220826",
      "assetIds": []
    },
    {
      "x": 193,
      "y": 382,
      "size": 1,
      "price": "1011000000000000000000",
      "reserved": "0x7a9fe22691c811ea339d9b73150e6911a5343dca",
      "salt": "0x85cdda402986d4b3f18dffd2a308d7a78cc30ac1df2b7877a1754b9a419fa37c",
      "assetIds": []
    },
    {
      "x": 193,
      "y": 383,
      "size": 1,
      "price": "1011000000000000000000",
      "reserved": "",
      "salt": "0x152754eeb219775df3323c7f14c026816d5b1a26a83f29cb9f056aece88e9dba",
      "assetIds": []
    },
    {
      "x": 193,
      "y": 384,
      "size": 1,
      "price": "1011000000000000000000",
      "reserved": "0x7a9fe22691c811ea339d9b73150e6911a5343dca",
      "salt": "0xd00fa044e222674ab4598f8dbbaf304ed2855e7a0af71712ddc0b9c06d37b45f",
      "assetIds": []
    },
    {
      "x": 193,
      "y": 385,
      "size": 1,
      "price": "1011000000000000000000",
      "reserved": "",
      "salt": "0xb2323489db0e9aa1dbb909a5f28844085ded0c5c600261b00db6339afa4f4007",
      "assetIds": []
    },
    {
      "x": 193,
      "y": 386,
      "size": 1,
      "price": "1011000000000000000000",
      "reserved": "0x7a9fe22691c811ea339d9b73150e6911a5343dca",
      "salt": "0x8eb7be417d0875c613f9fd12cce84f51b6c0f842dd326bdfc5f347a227fea98d",
      "assetIds": []
    },
    {
      "x": 193,
      "y": 387,
      "size": 1,
      "price": "4683000000000000000000",
      "reserved": "",
      "salt": "0x5ff8af31b7a3966a20c2a8447cb01aa469baf4675b6ccd2881cf4768d39c6a28",
      "assetIds": [
        "55464657044963196816950587289035428064568320970692304673817341489687790884865",
        "55464657044963196816950587289035428064568320970692304673817341489687782494208",
        "55464657044963196816950587289035428064568320970692304673817341489687790884866",
        "55464657044963196816950587289035428064568320970692304673817341489687782494209",
        "55464657044963196816950587289035428064568320970692304673817341489687790884864"
      ]
    },
    {
      "x": 193,
      "y": 388,
      "size": 1,
      "price": "4683000000000000000000",
      "reserved": "",
      "salt": "0xc1671d2993dfa4db99117afeae48a1aa41f76e15cf5858bc94f6f1fb830e516e",
      "assetIds": [
        "55464657044963196816950587289035428064568320970692304673817341489687790884865",
        "55464657044963196816950587289035428064568320970692304673817341489687782494208",
        "55464657044963196816950587289035428064568320970692304673817341489687790884866",
        "55464657044963196816950587289035428064568320970692304673817341489687782494209",
        "55464657044963196816950587289035428064568320970692304673817341489687790884864"
      ]
    },
    {
      "x": 193,
      "y": 389,
      "size": 1,
      "price": "1011000000000000000000",
      "reserved": "",
      "salt": "0xdc8b938ddc59210e3dbb17bf043fec50b8912b8d7e30d2cfa4487c53cb7df7ce",
      "assetIds": []
    },
    {
      "x": 193,
      "y": 390,
      "size": 1,
      "price": "1011000000000000000000",
      "reserved": "",
      "salt": "0x43d16815a646c55cb6e307978325d26fc2fd94243e4c25e94458b55f876e3447",
      "assetIds": []
    },
    {
      "x": 193,
      "y": 391,
      "size": 1,
      "price": "1011000000000000000000",
      "reserved": "",
      "salt": "0x28ab3c5ce97f7f8c5a59612024cf78aeb3089b760b4f9dbbb49f58984d0ea21b",
      "assetIds": []
    },
    {
      "x": 193,
      "y": 392,
      "size": 1,
      "price": "1011000000000000000000",
      "reserved": "",
      "salt": "0x6e4fa8019ffdd1ff95800967a09e6fd36656652cb4fb877951af112aad24ce75",
      "assetIds": []
    },
    {
      "x": 193,
      "y": 393,
      "size": 1,
      "price": "1011000000000000000000",
      "reserved": "0x7a9fe22691c811ea339d9b73150e6911a5343dca",
      "salt": "0xc1d9c5951fa2296f30b4a5c9161932c934203ad3ef74e69ee2fe51ddfe5521d6",
      "assetIds": []
    },
    {
      "x": 193,
      "y": 394,
      "size": 1,
      "price": "1011000000000000000000",
      "reserved": "0x7a9fe22691c811ea339d9b73150e6911a5343dca",
      "salt": "0x95b016274afec5e5c1adf43c3d332c0822dffaab45524886831533b61d10649b",
      "assetIds": []
    },
    {
      "x": 193,
      "y": 395,
      "size": 1,
      "price": "1011000000000000000000",
      "reserved": "",
      "salt": "0x01a81bde1e81fc4f7e044cbfb5b83806b33db9703ee38f00822bf4a6a850e3f0",
      "assetIds": []
    },
    {
      "x": 193,
      "y": 396,
      "size": 1,
      "price": "1011000000000000000000",
      "reserved": "",
      "salt": "0x073a01325a3e7b6db43bf2fa6e7c05dfac6ab4c5e6431a842e0c86bb722323ac",
      "assetIds": []
    },
    {
      "x": 193,
      "y": 397,
      "size": 1,
      "price": "1011000000000000000000",
      "reserved": "",
      "salt": "0x53ef496945aa743dfa4613151b7e562cf6eb720981e4044ffc935230fd699610",
      "assetIds": []
    },
    {
      "x": 193,
      "y": 398,
      "size": 1,
      "price": "1011000000000000000000",
      "reserved": "",
      "salt": "0x0527bb4e0be0634a87cab4be21fea3a80763ec72cc2ce61f8b96ebc5d18fa89b",
      "assetIds": []
    },
    {
      "x": 193,
      "y": 399,
      "size": 1,
      "price": "1011000000000000000000",
      "reserved": "",
      "salt": "0x535fa11cad25aab11765c89f5b50073a1f349fad217882e6958b92b8981102de",
      "assetIds": []
    },
    {
      "x": 193,
      "y": 400,
      "size": 1,
      "price": "1011000000000000000000",
      "reserved": "",
      "salt": "0x1f8b776c882f2cd5d72d2629a0f4915cc8c24325403f93e3e7d09324e5103c9c",
      "assetIds": []
    },
    {
      "x": 193,
      "y": 401,
      "size": 1,
      "price": "1011000000000000000000",
      "reserved": "",
      "salt": "0x61ca16e06bbfc29081b433be177d31d27f22533d41c2f85de804d2ea2387d28c",
      "assetIds": []
    },
    {
      "x": 193,
      "y": 402,
      "size": 1,
      "price": "1011000000000000000000",
      "reserved": "",
      "salt": "0x68ead2bccb5a83aae41475a4842452d362495b6b4a76fbf512493371db943bdc",
      "assetIds": []
    },
    {
      "x": 193,
      "y": 403,
      "size": 1,
      "price": "1011000000000000000000",
      "reserved": "",
      "salt": "0x229ce01eb559ac2815faa74d8b4934766a1846683a8f232ca82be1c758ee34e5",
      "assetIds": []
    },
    {
      "x": 193,
      "y": 404,
      "size": 1,
      "price": "1011000000000000000000",
      "reserved": "",
      "salt": "0x74d0acbd659e8b29ac66c0e1a67be8d4e5f8ad6d5ecc4af7a48b6d953356a33c",
      "assetIds": []
    },
    {
      "x": 193,
      "y": 405,
      "size": 1,
      "price": "1011000000000000000000",
      "reserved": "",
      "salt": "0x4eb72de81ceeb121162d051ba7f7f3eb3c8d095b45ba294f9da7282aca1356a6",
      "assetIds": []
    },
    {
      "x": 193,
      "y": 406,
      "size": 1,
      "price": "1011000000000000000000",
      "reserved": "0x7a9fe22691c811ea339d9b73150e6911a5343dca",
      "salt": "0x114e0284351fea3e201f392c62d80426c27c7ba6f9c7a5e28565074606224396",
      "assetIds": []
    },
    {
      "x": 193,
      "y": 407,
      "size": 1,
      "price": "1011000000000000000000",
      "reserved": "",
      "salt": "0x98eaeec7119deb16a49c4a336f9f69380d1578a639d2f8724502ecaedc4970b5",
      "assetIds": []
    },
    {
      "x": 194,
      "y": 372,
      "size": 1,
      "price": "4683000000000000000000",
      "reserved": "",
      "salt": "0x311bca668c01a4c2dc7bef0709d8c1b8b06d34774da42631e6457ff44970ee84",
      "assetIds": [
        "55464657044963196816950587289035428064568320970692304673817341489687790884865",
        "55464657044963196816950587289035428064568320970692304673817341489687782494208",
        "55464657044963196816950587289035428064568320970692304673817341489687790884866",
        "55464657044963196816950587289035428064568320970692304673817341489687782494209",
        "55464657044963196816950587289035428064568320970692304673817341489687790884864"
      ]
    },
    {
      "x": 194,
      "y": 373,
      "size": 1,
      "price": "4683000000000000000000",
      "reserved": "",
      "salt": "0x73b9f6187f530bd26e617dcafe638258b3b3e4c9c0bd42478c55501c7d018a86",
      "assetIds": [
        "55464657044963196816950587289035428064568320970692304673817341489687790884865",
        "55464657044963196816950587289035428064568320970692304673817341489687782494208",
        "55464657044963196816950587289035428064568320970692304673817341489687790884866",
        "55464657044963196816950587289035428064568320970692304673817341489687782494209",
        "55464657044963196816950587289035428064568320970692304673817341489687790884864"
      ]
    },
    {
      "x": 194,
      "y": 374,
      "size": 1,
      "price": "4683000000000000000000",
      "reserved": "",
      "salt": "0x70d74c7a3c9f6be3b3c0ccfda9901d7438016a776abdd3cb4b818c4802443b3d",
      "assetIds": [
        "55464657044963196816950587289035428064568320970692304673817341489687790884865",
        "55464657044963196816950587289035428064568320970692304673817341489687782494208",
        "55464657044963196816950587289035428064568320970692304673817341489687790884866",
        "55464657044963196816950587289035428064568320970692304673817341489687782494209",
        "55464657044963196816950587289035428064568320970692304673817341489687790884864"
      ]
    },
    {
      "x": 194,
      "y": 375,
      "size": 1,
      "price": "1011000000000000000000",
      "reserved": "",
      "salt": "0xe1113e4257216b2426de201eb4d709759bcecd147773330fccbf05d164329909",
      "assetIds": []
    },
    {
      "x": 194,
      "y": 376,
      "size": 1,
      "price": "1011000000000000000000",
      "reserved": "",
      "salt": "0xd27daee12d0f4b925eb839473f68b4665517b52dc7b6d5441dfb0fc28bc8270d",
      "assetIds": []
    },
    {
      "x": 194,
      "y": 377,
      "size": 1,
      "price": "1011000000000000000000",
      "reserved": "",
      "salt": "0x9edf51c4dae2f60de0d4e5a404b0640462397ae0d3c3b5abb4cb3b2fd7eb57e3",
      "assetIds": []
    },
    {
      "x": 194,
      "y": 378,
      "size": 1,
      "price": "1011000000000000000000",
      "reserved": "",
      "salt": "0x06b51818113d2aa771266c298812ca16ca872fc6cf8de195b5ecff965cd4dc74",
      "assetIds": []
    },
    {
      "x": 194,
      "y": 379,
      "size": 1,
      "price": "1011000000000000000000",
      "reserved": "",
      "salt": "0xb83eb1c0608bdf4883516ea0922a72ed8bfc66f103ab00b8357071dbf73c16d0",
      "assetIds": []
    },
    {
      "x": 194,
      "y": 380,
      "size": 1,
      "price": "1011000000000000000000",
      "reserved": "",
      "salt": "0x6e377040c2689f93dd58858df22e782ea32e474402791b83b879655c88d4f887",
      "assetIds": []
    },
    {
      "x": 194,
      "y": 381,
      "size": 1,
      "price": "1011000000000000000000",
      "reserved": "",
      "salt": "0xafc869dd62415c1cbe4c4221ebab5051aaaca621745edc9b0e5f0a1dd3475032",
      "assetIds": []
    },
    {
      "x": 194,
      "y": 382,
      "size": 1,
      "price": "1011000000000000000000",
      "reserved": "",
      "salt": "0x2678419763c1bd0c083ba746cf2be834169431271bfcf40887c4dcda8406284c",
      "assetIds": []
    },
    {
      "x": 194,
      "y": 383,
      "size": 1,
      "price": "1011000000000000000000",
      "reserved": "",
      "salt": "0x685cf3e4e97057e6caa398c716ddfb0a65d75742406381b13827ded3e719aef8",
      "assetIds": []
    },
    {
      "x": 194,
      "y": 384,
      "size": 1,
      "price": "1011000000000000000000",
      "reserved": "0x7a9fe22691c811ea339d9b73150e6911a5343dca",
      "salt": "0xa2a31d1cb9f8bc35c7a58503fadb23154b38403a9816c701293365314d2a1448",
      "assetIds": []
    },
    {
      "x": 194,
      "y": 385,
      "size": 1,
      "price": "1011000000000000000000",
      "reserved": "",
      "salt": "0x39712d94b83fc51598ff523c986836bd5b586a6d43ee04e4114e8197968462ce",
      "assetIds": []
    },
    {
      "x": 194,
      "y": 386,
      "size": 1,
      "price": "1011000000000000000000",
      "reserved": "",
      "salt": "0x7146eee7606dbda4608dd73f7641259a5f5bc46dbac4cdd168349590e55fd485",
      "assetIds": []
    },
    {
      "x": 194,
      "y": 387,
      "size": 1,
      "price": "1011000000000000000000",
      "reserved": "",
      "salt": "0x873bcb0d3f8f58f7336b35ebde92c7e84283006de0488c6f2f7d4731060e68ac",
      "assetIds": []
    },
    {
      "x": 194,
      "y": 388,
      "size": 1,
      "price": "1011000000000000000000",
      "reserved": "0x7a9fe22691c811ea339d9b73150e6911a5343dca",
      "salt": "0xb4f0fcda36beacfcb1ece36e6e2b35c901e722971c83355b657d1e6b0b41aa5b",
      "assetIds": []
    },
    {
      "x": 194,
      "y": 389,
      "size": 1,
      "price": "1011000000000000000000",
      "reserved": "0x7a9fe22691c811ea339d9b73150e6911a5343dca",
      "salt": "0xfeb02c99407f40566a6de18980562afc27d80d36ef7dfaea2e75d9daaa6c7a72",
      "assetIds": []
    },
    {
      "x": 194,
      "y": 390,
      "size": 1,
      "price": "1011000000000000000000",
      "reserved": "",
      "salt": "0x2ed5f570a05e549deca22fa6bdaf43d3e00850590acba4a913272a724da014db",
      "assetIds": []
    },
    {
      "x": 194,
      "y": 391,
      "size": 1,
      "price": "1011000000000000000000",
      "reserved": "0x7a9fe22691c811ea339d9b73150e6911a5343dca",
      "salt": "0xd45f77f8d072c76dac1c2e974638359e0d8e981bb378bf9f51254767aa89989c",
      "assetIds": []
    },
    {
      "x": 194,
      "y": 392,
      "size": 1,
      "price": "1011000000000000000000",
      "reserved": "",
      "salt": "0x9b2352c62448696d8284d5fee026621b8520cf27375570e817720c3d7597caa1",
      "assetIds": []
    },
    {
      "x": 194,
      "y": 393,
      "size": 1,
      "price": "1011000000000000000000",
      "reserved": "",
      "salt": "0xd2773e6c9c5d7747a91a70f4db02f722d0b23ec5f8c2d98a653a4b3691ca3d40",
      "assetIds": []
    },
    {
      "x": 194,
      "y": 394,
      "size": 1,
      "price": "1011000000000000000000",
      "reserved": "",
      "salt": "0xd5c9d1a083684ac0bc31c9b212fc0c4e32887b861b8cefaf94f8f19edef9d6f1",
      "assetIds": []
    },
    {
      "x": 194,
      "y": 395,
      "size": 1,
      "price": "1011000000000000000000",
      "reserved": "",
      "salt": "0x7d63769f74682e4cd97b68c396cdede1565d5b43e245bf6f79de19534812bf00",
      "assetIds": []
    },
    {
      "x": 194,
      "y": 396,
      "size": 1,
      "price": "1011000000000000000000",
      "reserved": "",
      "salt": "0x0d04542af7dcaccc2c50cdc1006aa101915d026873ffce7c1897bc3185e0d35c",
      "assetIds": []
    },
    {
      "x": 194,
      "y": 397,
      "size": 1,
      "price": "1011000000000000000000",
      "reserved": "",
      "salt": "0x3e9752eeca10b195b6489128fd81665fa009fb470cd4928542535b1d882f7a23",
      "assetIds": []
    },
    {
      "x": 194,
      "y": 398,
      "size": 1,
      "price": "1011000000000000000000",
      "reserved": "",
      "salt": "0xd0d532a5b9664d44899b5973fe188f5de47822461b0b1344116d44ef4f08ef8e",
      "assetIds": []
    },
    {
      "x": 194,
      "y": 399,
      "size": 1,
      "price": "1011000000000000000000",
      "reserved": "",
      "salt": "0xd618ca585b534d4dccecde5b8eae305aeaeb7bfe98761cebca6a633ff5a5fb8d",
      "assetIds": []
    },
    {
      "x": 194,
      "y": 400,
      "size": 1,
      "price": "1011000000000000000000",
      "reserved": "",
      "salt": "0x0b115def57a096e45f2bbe3509b11f27ef76409eaa9b99e79b18dc1dc339bc06",
      "assetIds": []
    },
    {
      "x": 194,
      "y": 401,
      "size": 1,
      "price": "1011000000000000000000",
      "reserved": "",
      "salt": "0xb2acc2ec3e82e7058b1d13990507f1b9622a9c467afed6e48dc36e83d5a48ff9",
      "assetIds": []
    },
    {
      "x": 194,
      "y": 402,
      "size": 1,
      "price": "1011000000000000000000",
      "reserved": "",
      "salt": "0xc9328cc87981c43ecaa0feace8ba709ddaccd21dc0a58e6298fc75cd728eb336",
      "assetIds": []
    },
    {
      "x": 194,
      "y": 403,
      "size": 1,
      "price": "1011000000000000000000",
      "reserved": "",
      "salt": "0x9c9d40beafdd65e79909d0bde9908eb41b4c47a8430f8a7a81725270ed798580",
      "assetIds": []
    },
    {
      "x": 194,
      "y": 404,
      "size": 1,
      "price": "1011000000000000000000",
      "reserved": "0x7a9fe22691c811ea339d9b73150e6911a5343dca",
      "salt": "0x9ec98016c5f3f77a4f20b4ca7cbc1cf968b30d10dc1b3a0c8d0ea7ac114de3b1",
      "assetIds": []
    },
    {
      "x": 194,
      "y": 405,
      "size": 1,
      "price": "1011000000000000000000",
      "reserved": "",
      "salt": "0xe0a26246a4cdf5ad07784ff6f669c23158bc58d6444bddd3ca906d27318a27ff",
      "assetIds": []
    },
    {
      "x": 194,
      "y": 406,
      "size": 1,
      "price": "1011000000000000000000",
      "reserved": "",
      "salt": "0xa0555ea37c8880b931eb37edf1d9cb78e07338ce897f9bf231f2622ac82c8b0c",
      "assetIds": []
    },
    {
      "x": 194,
      "y": 407,
      "size": 1,
      "price": "1011000000000000000000",
      "reserved": "",
      "salt": "0xdbbadaaa2e7642fc1aa93f23481255fbd83a8aebc9bad8ff1a440c9362b614b2",
      "assetIds": []
    },
    {
      "x": 195,
      "y": 372,
      "size": 1,
      "price": "4683000000000000000000",
      "reserved": "",
      "salt": "0xd05da58aec131113a89aaebaf039c0e3fb7e0e01439b43d8ea58bc9f6fd3a9c7",
      "assetIds": [
        "55464657044963196816950587289035428064568320970692304673817341489687790884865",
        "55464657044963196816950587289035428064568320970692304673817341489687782494208",
        "55464657044963196816950587289035428064568320970692304673817341489687790884866",
        "55464657044963196816950587289035428064568320970692304673817341489687782494209",
        "55464657044963196816950587289035428064568320970692304673817341489687790884864"
      ]
    },
    {
      "x": 195,
      "y": 373,
      "size": 1,
      "price": "4683000000000000000000",
      "reserved": "",
      "salt": "0xbd8d309a0e861cab48dcf91c357a97d119116cbbe3246b7bc2176e3f1a28e925",
      "assetIds": [
        "55464657044963196816950587289035428064568320970692304673817341489687790884865",
        "55464657044963196816950587289035428064568320970692304673817341489687782494208",
        "55464657044963196816950587289035428064568320970692304673817341489687790884866",
        "55464657044963196816950587289035428064568320970692304673817341489687782494209",
        "55464657044963196816950587289035428064568320970692304673817341489687790884864"
      ]
    },
    {
      "x": 195,
      "y": 374,
      "size": 1,
      "price": "1011000000000000000000",
      "reserved": "",
      "salt": "0x0945ab4d2d8aee93d76fbbf274dcd080d546fcf558927517cb021ce6504ad928",
      "assetIds": []
    },
    {
      "x": 195,
      "y": 375,
      "size": 1,
      "price": "1011000000000000000000",
      "reserved": "0x7a9fe22691c811ea339d9b73150e6911a5343dca",
      "salt": "0x812e60bb484e29457d18e5c4a6311aa3de8c0aff33321706b13c536f0db3d3b0",
      "assetIds": []
    },
    {
      "x": 195,
      "y": 376,
      "size": 1,
      "price": "1011000000000000000000",
      "reserved": "",
      "salt": "0xd2b4d0cf4602b6192439f83738590502a9756cae57807581b3c02c0d1f1510ba",
      "assetIds": []
    },
    {
      "x": 195,
      "y": 377,
      "size": 1,
      "price": "1011000000000000000000",
      "reserved": "0x7a9fe22691c811ea339d9b73150e6911a5343dca",
      "salt": "0xd1cfaf019e405a1b7d0b7a3438494fa19aa536ad33d384f3a9015ce21a90cbe7",
      "assetIds": []
    },
    {
      "x": 195,
      "y": 378,
      "size": 1,
      "price": "1011000000000000000000",
      "reserved": "",
      "salt": "0xbe7b53db3d8f58e16a753c48bd9d79bcf3c032c9377d3a3a6f6725f740e13d6b",
      "assetIds": []
    },
    {
      "x": 195,
      "y": 379,
      "size": 1,
      "price": "1011000000000000000000",
      "reserved": "",
      "salt": "0xcdf882c69812895f0e4e7d00d5a7c70a39e2530c86278a77fe89cc417e8ff1ba",
      "assetIds": []
    },
    {
      "x": 195,
      "y": 380,
      "size": 1,
      "price": "1011000000000000000000",
      "reserved": "",
      "salt": "0xf583924aed40df7de6c3a9fa60742142bb87fbe90219d17a4182c9ee3da65f91",
      "assetIds": []
    },
    {
      "x": 195,
      "y": 381,
      "size": 1,
      "price": "1011000000000000000000",
      "reserved": "",
      "salt": "0x6cb9be9cc8dff8b4d4d59ab20805ef1bb31f8cd0506ebb20493f89634d356a96",
      "assetIds": []
    },
    {
      "x": 195,
      "y": 382,
      "size": 1,
      "price": "1011000000000000000000",
      "reserved": "",
      "salt": "0x1cb32e2c8eebd70e4eb5688df6de9ca7b3f78ca4135d203a62592fa946fdef40",
      "assetIds": []
    },
    {
      "x": 195,
      "y": 383,
      "size": 1,
      "price": "1011000000000000000000",
      "reserved": "",
      "salt": "0x084722d15c96fe15346f4a748e1d127e60410722fdb0d0d5c5730e6c28f60929",
      "assetIds": []
    },
    {
      "x": 195,
      "y": 384,
      "size": 1,
      "price": "1011000000000000000000",
      "reserved": "",
      "salt": "0x13827646f8d9588a9f5bf1dece5ba88bb226a0db5d597984bd1608181ccb4f44",
      "assetIds": []
    },
    {
      "x": 195,
      "y": 385,
      "size": 1,
      "price": "1011000000000000000000",
      "reserved": "",
      "salt": "0x10be6687f4fbef55ac985cb6271513d5aebbcfa9650c0f5a5ad0d7fd83d33983",
      "assetIds": []
    },
    {
      "x": 195,
      "y": 386,
      "size": 1,
      "price": "1011000000000000000000",
      "reserved": "",
      "salt": "0x69e6ad4be2bb9863e793552a47bccf1c7f9c7b6d0e5b05ea33a5f2ada4f39066",
      "assetIds": []
    },
    {
      "x": 195,
      "y": 387,
      "size": 1,
      "price": "1011000000000000000000",
      "reserved": "",
      "salt": "0x4bf4373fc0644ad8af837379424ce4cb45524b45c380201346484c6d915c72ea",
      "assetIds": []
    },
    {
      "x": 195,
      "y": 388,
      "size": 1,
      "price": "1011000000000000000000",
      "reserved": "",
      "salt": "0x8c6fb323d1d19e470580dfe1fa9a12eab6a454b74139c8f3bc916bfdca5f9eb9",
      "assetIds": []
    },
    {
      "x": 195,
      "y": 389,
      "size": 1,
      "price": "1011000000000000000000",
      "reserved": "",
      "salt": "0x97163e07b65357f5c9f016ddfdae5fc229d53641cffd8afae587f137aeeea3ed",
      "assetIds": []
    },
    {
      "x": 195,
      "y": 390,
      "size": 1,
      "price": "1011000000000000000000",
      "reserved": "",
      "salt": "0xb184346cb03024cf3f53956c5dd014a7a4ba5a6021a82254b002f6a10cb2d342",
      "assetIds": []
    },
    {
      "x": 195,
      "y": 391,
      "size": 1,
      "price": "1011000000000000000000",
      "reserved": "",
      "salt": "0x2dffc899905c0edd40d4be749d579c1e9e23510182c30641b214adc2705413cf",
      "assetIds": []
    },
    {
      "x": 195,
      "y": 392,
      "size": 1,
      "price": "1011000000000000000000",
      "reserved": "",
      "salt": "0x09d73c58bc41c676bb28c6dfef2724602177fbc9e3fa22a68e68319d6b5b46e5",
      "assetIds": []
    },
    {
      "x": 195,
      "y": 393,
      "size": 1,
      "price": "1011000000000000000000",
      "reserved": "",
      "salt": "0xcaaeb6f2527ad0eab24e54b77f0322ec537cdd57faf0012bd3acf3d7c2832ba5",
      "assetIds": []
    },
    {
      "x": 195,
      "y": 394,
      "size": 1,
      "price": "1011000000000000000000",
      "reserved": "0x7a9fe22691c811ea339d9b73150e6911a5343dca",
      "salt": "0xb8ea9eef6cc0da12c03259fcd58840d8560470ec7f65289395f0c8542b097d44",
      "assetIds": []
    },
    {
      "x": 195,
      "y": 395,
      "size": 1,
      "price": "1011000000000000000000",
      "reserved": "",
      "salt": "0xa05867406c1c3e8a7863023c302172f22c12ae22b4eb706446df232744c8afc9",
      "assetIds": []
    },
    {
      "x": 195,
      "y": 396,
      "size": 1,
      "price": "1011000000000000000000",
      "reserved": "",
      "salt": "0x35cc514d3fc1f4908100eb7d173303b0111c047a47c745e69d14197cc83bee89",
      "assetIds": []
    },
    {
      "x": 195,
      "y": 397,
      "size": 1,
      "price": "1011000000000000000000",
      "reserved": "0x7a9fe22691c811ea339d9b73150e6911a5343dca",
      "salt": "0xae3296e65c12c3c35aa51fe4d3d627278370f14ab942ee5da424a0d5bdeaa47a",
      "assetIds": []
    },
    {
      "x": 195,
      "y": 398,
      "size": 1,
      "price": "1011000000000000000000",
      "reserved": "",
      "salt": "0x49f215e60f9217f8de66dc1add1e9367e52233d4bf454ffbcc3ffc5d4e5edd34",
      "assetIds": []
    },
    {
      "x": 195,
      "y": 399,
      "size": 1,
      "price": "1011000000000000000000",
      "reserved": "",
      "salt": "0xd7d90d470ee211e81930c0ca721431dd9ff4b15907a01dd209b769e51a5f361a",
      "assetIds": []
    },
    {
      "x": 195,
      "y": 400,
      "size": 1,
      "price": "1011000000000000000000",
      "reserved": "0x7a9fe22691c811ea339d9b73150e6911a5343dca",
      "salt": "0xf2cfa77bd18a7e58085dbbad85600fdfca965e53e5270812516598659e1f454d",
      "assetIds": []
    },
    {
      "x": 195,
      "y": 401,
      "size": 1,
      "price": "1011000000000000000000",
      "reserved": "0x7a9fe22691c811ea339d9b73150e6911a5343dca",
      "salt": "0xe4ffc41dbc0e6ab43b2ccc2a3bde76b15142c02bb99ff39ea7849d609fd60f79",
      "assetIds": []
    },
    {
      "x": 195,
      "y": 402,
      "size": 1,
      "price": "1011000000000000000000",
      "reserved": "",
      "salt": "0xa7bbc44e319bcbffbf300bc8b15dc5e99b946b260fdf61c7a174b73dd81347ae",
      "assetIds": []
    },
    {
      "x": 195,
      "y": 403,
      "size": 1,
      "price": "1011000000000000000000",
      "reserved": "",
      "salt": "0x86679339b04d3f722ef5d26fd3d900324aebdb9ac1a3a9149aeba4523ee74d97",
      "assetIds": []
    },
    {
      "x": 195,
      "y": 404,
      "size": 1,
      "price": "1011000000000000000000",
      "reserved": "",
      "salt": "0xa043d4fc624d87ef1fbc56da0b248c3ec8e7517ead419b73f9597b0a17965aa0",
      "assetIds": []
    },
    {
      "x": 195,
      "y": 405,
      "size": 1,
      "price": "1011000000000000000000",
      "reserved": "",
      "salt": "0x7d317b0814ad258da6f8588c0cf0492bdb57c572c42e39afe64150db27c78ef3",
      "assetIds": []
    },
    {
      "x": 195,
      "y": 406,
      "size": 1,
      "price": "1011000000000000000000",
      "reserved": "",
      "salt": "0x0f1a1fa90df7aa7ed307829adbbf63105498c789f5c6d860f8ecbb6c35d27033",
      "assetIds": []
    },
    {
      "x": 195,
      "y": 407,
      "size": 1,
      "price": "1011000000000000000000",
      "reserved": "",
      "salt": "0xc8a367854450a1676e5f98c73648f868d5f774bfee170139bf6d3095692e055e",
      "assetIds": []
    },
    {
      "x": 196,
      "y": 372,
      "size": 1,
      "price": "4683000000000000000000",
      "reserved": "",
      "salt": "0x2b39272182b0f4b3545ee609126f3a104b7328261b112c998da522052b4d6e91",
      "assetIds": [
        "55464657044963196816950587289035428064568320970692304673817341489687790884865",
        "55464657044963196816950587289035428064568320970692304673817341489687782494208",
        "55464657044963196816950587289035428064568320970692304673817341489687790884866",
        "55464657044963196816950587289035428064568320970692304673817341489687782494209",
        "55464657044963196816950587289035428064568320970692304673817341489687790884864"
      ]
    },
    {
      "x": 196,
      "y": 373,
      "size": 1,
      "price": "4683000000000000000000",
      "reserved": "",
      "salt": "0x5bf8395aa0bd78039bd282875906ec27bb14c436a4ef52d406aeb86c1bfca113",
      "assetIds": [
        "55464657044963196816950587289035428064568320970692304673817341489687790884865",
        "55464657044963196816950587289035428064568320970692304673817341489687782494208",
        "55464657044963196816950587289035428064568320970692304673817341489687790884866",
        "55464657044963196816950587289035428064568320970692304673817341489687782494209",
        "55464657044963196816950587289035428064568320970692304673817341489687790884864"
      ]
    },
    {
      "x": 196,
      "y": 374,
      "size": 1,
      "price": "1011000000000000000000",
      "reserved": "0x7a9fe22691c811ea339d9b73150e6911a5343dca",
      "salt": "0xf224b031c06372f180f82faee245397e2f1f0093297dcee6bd5c62a00a48b272",
      "assetIds": []
    },
    {
      "x": 196,
      "y": 375,
      "size": 1,
      "price": "1011000000000000000000",
      "reserved": "",
      "salt": "0x91b0506061c1c0bc22025e5cbea977046d2dc452503002066bfe21193329d70e",
      "assetIds": []
    },
    {
      "x": 196,
      "y": 376,
      "size": 1,
      "price": "1011000000000000000000",
      "reserved": "",
      "salt": "0x39b690b7539d162d7340bdff4919461afecd14c3acb0a2158107055f6970eef2",
      "assetIds": []
    },
    {
      "x": 196,
      "y": 377,
      "size": 1,
      "price": "1011000000000000000000",
      "reserved": "",
      "salt": "0x45c5ea98b85edd1f25ec24c4d9c03b03481a5d6e32d9c4e732a0d398388ffe5e",
      "assetIds": []
    },
    {
      "x": 196,
      "y": 378,
      "size": 1,
      "price": "1011000000000000000000",
      "reserved": "",
      "salt": "0x87e60b4d7386e0875d2c48049f8d0ce64637ff6d2cb47ef2e1d03c9c02a807ce",
      "assetIds": []
    },
    {
      "x": 196,
      "y": 379,
      "size": 1,
      "price": "1011000000000000000000",
      "reserved": "0x7a9fe22691c811ea339d9b73150e6911a5343dca",
      "salt": "0x4324cd4331db0a813981d298b6641aa9317a52561c1848c18e1a134910482055",
      "assetIds": []
    },
    {
      "x": 196,
      "y": 380,
      "size": 1,
      "price": "1011000000000000000000",
      "reserved": "",
      "salt": "0x302836dca1837c0e1fe87dcd764ac5a0c8c4c1abe3b7242de5aec45474919ecf",
      "assetIds": []
    },
    {
      "x": 196,
      "y": 381,
      "size": 1,
      "price": "1011000000000000000000",
      "reserved": "",
      "salt": "0xc975f76dce192cae4bcd748456addc52a3545efdd1f5a27087e6dc51170f7487",
      "assetIds": []
    },
    {
      "x": 196,
      "y": 382,
      "size": 1,
      "price": "1011000000000000000000",
      "reserved": "0x7a9fe22691c811ea339d9b73150e6911a5343dca",
      "salt": "0xdee2b1aea499eccfc88258801bbdde30c3c06aaf503f604712423612bfd533b6",
      "assetIds": []
    },
    {
      "x": 196,
      "y": 383,
      "size": 1,
      "price": "1011000000000000000000",
      "reserved": "",
      "salt": "0x81a7e0450c72fbac6f3f4aa99d87ad84c49bc13486fc03d3f2ae6bb9aad54311",
      "assetIds": []
    },
    {
      "x": 196,
      "y": 384,
      "size": 1,
      "price": "1011000000000000000000",
      "reserved": "",
      "salt": "0x7680f5f4a75e514fe8edb6f559d4b9e61d2c471791ffe88bb1f5ede93f60cb87",
      "assetIds": []
    },
    {
      "x": 196,
      "y": 385,
      "size": 1,
      "price": "1011000000000000000000",
      "reserved": "0x7a9fe22691c811ea339d9b73150e6911a5343dca",
      "salt": "0x703a8151e6fce0fd44f007a26131b87a58d23e73cd9f942f432406892874bb1d",
      "assetIds": []
    },
    {
      "x": 196,
      "y": 386,
      "size": 1,
      "price": "1011000000000000000000",
      "reserved": "",
      "salt": "0xb3841406134ed5571cf5979d4a3089ca6a009e6c7af91abcfdf96a5e40a65c9d",
      "assetIds": []
    },
    {
      "x": 196,
      "y": 387,
      "size": 1,
      "price": "1011000000000000000000",
      "reserved": "",
      "salt": "0x885b093612e081f81d70a11a8eb19de97543925e283e9d7e05efbf5ee5005672",
      "assetIds": []
    },
    {
      "x": 196,
      "y": 388,
      "size": 1,
      "price": "1011000000000000000000",
      "reserved": "0x7a9fe22691c811ea339d9b73150e6911a5343dca",
      "salt": "0xaaab9200d91d9971d9c72a22439b31939fccf6d8a2a2b8c6ba763b0212d3acea",
      "assetIds": []
    },
    {
      "x": 196,
      "y": 389,
      "size": 1,
      "price": "1011000000000000000000",
      "reserved": "",
      "salt": "0x35d41c3f729ef44ab1672968b4dd27c5a6de6dca87295cb35e7ac8c483dbf8e4",
      "assetIds": []
    },
    {
      "x": 196,
      "y": 390,
      "size": 1,
      "price": "1011000000000000000000",
      "reserved": "",
      "salt": "0x66addd07ebd37b34de6f4b6f74dca909c0fcd4849244afb86c25990c0d316d1f",
      "assetIds": []
    },
    {
      "x": 196,
      "y": 391,
      "size": 1,
      "price": "1011000000000000000000",
      "reserved": "0x7a9fe22691c811ea339d9b73150e6911a5343dca",
      "salt": "0xe6c73d9fe2faca1ba5f1fbcecedf3b37a054aedac58bc52f648c5bb472c8108c",
      "assetIds": []
    },
    {
      "x": 196,
      "y": 392,
      "size": 1,
      "price": "1011000000000000000000",
      "reserved": "",
      "salt": "0xa67174eebdf96943e80f917e22dd8ab026817cf16b0dbe967e7decb9c6268d6c",
      "assetIds": []
    },
    {
      "x": 196,
      "y": 393,
      "size": 1,
      "price": "1011000000000000000000",
      "reserved": "0x7a9fe22691c811ea339d9b73150e6911a5343dca",
      "salt": "0x318469df241a42ae5e1acd716ec74ce6a3d0de89c5e4355e3fb8795ff0fcb9bb",
      "assetIds": []
    },
    {
      "x": 196,
      "y": 394,
      "size": 1,
      "price": "1011000000000000000000",
      "reserved": "",
      "salt": "0xe0d8826799ccf40784c2497d985a84535ed3242a79fdc63aef52a17e34817732",
      "assetIds": []
    },
    {
      "x": 196,
      "y": 395,
      "size": 1,
      "price": "1011000000000000000000",
      "reserved": "",
      "salt": "0xc2737450df19cc78ed084ec25e1fa9a209e65cacf7b50a339aee6fb0b4c15375",
      "assetIds": []
    },
    {
      "x": 196,
      "y": 396,
      "size": 1,
      "price": "1011000000000000000000",
      "reserved": "",
      "salt": "0x3759ef3ef9d7e38aad4824404b4fa589f738fb4e360fe2ab28c868182cd51f1f",
      "assetIds": []
    },
    {
      "x": 196,
      "y": 397,
      "size": 1,
      "price": "1011000000000000000000",
      "reserved": "",
      "salt": "0x9f53705ee05b7e80bcafbbad4027d43ad09930a5170e205d5e584d7fb010d5f4",
      "assetIds": []
    },
    {
      "x": 196,
      "y": 398,
      "size": 1,
      "price": "1011000000000000000000",
      "reserved": "",
      "salt": "0xa060d6dc3562910ac8a92097632a1cbe92632e5bdcf7875aa6483b7e456c69e3",
      "assetIds": []
    },
    {
      "x": 196,
      "y": 399,
      "size": 1,
      "price": "1011000000000000000000",
      "reserved": "0x7a9fe22691c811ea339d9b73150e6911a5343dca",
      "salt": "0x4fc81824bdc8b098c3c39bef7fbc4a3bcf4b4d235fe5bc17b4f66a8458c7b4e9",
      "assetIds": []
    },
    {
      "x": 196,
      "y": 400,
      "size": 1,
      "price": "1011000000000000000000",
      "reserved": "",
      "salt": "0xc0bc674efd1ada75e3b96607a796b7e06a28de25b2995661a278996090306bc4",
      "assetIds": []
    },
    {
      "x": 196,
      "y": 401,
      "size": 1,
      "price": "1011000000000000000000",
      "reserved": "",
      "salt": "0x2ea2ecd74361c6907a658690c770e1a00a22ef7ef265f26df7c411828296fe67",
      "assetIds": []
    },
    {
      "x": 196,
      "y": 402,
      "size": 1,
      "price": "1011000000000000000000",
      "reserved": "",
      "salt": "0x351b6141b8196ca31bb402943613cd3f081ef521578c61c519b023ae1f11bf6a",
      "assetIds": []
    },
    {
      "x": 196,
      "y": 403,
      "size": 1,
      "price": "1011000000000000000000",
      "reserved": "",
      "salt": "0xb45c90bb340dbc712fd7f69e807dddb360f5e507fb781e164349b8da3d05ce96",
      "assetIds": []
    },
    {
      "x": 196,
      "y": 404,
      "size": 1,
      "price": "1011000000000000000000",
      "reserved": "",
      "salt": "0xff430bf4b21571018db1ad588d615596c4cb7e029a8f49927a78cd02cc13b83c",
      "assetIds": []
    },
    {
      "x": 196,
      "y": 405,
      "size": 1,
      "price": "1011000000000000000000",
      "reserved": "",
      "salt": "0x1524f83827c53cd732e5a882a4e9c70737fc786daf812ed5da8d65cf1462b72b",
      "assetIds": []
    },
    {
      "x": 196,
      "y": 406,
      "size": 1,
      "price": "1011000000000000000000",
      "reserved": "0x7a9fe22691c811ea339d9b73150e6911a5343dca",
      "salt": "0x10484331d46820eeced0ba1848661b20091bec9ecdd1faac4b25ba9bc5220fc4",
      "assetIds": []
    },
    {
      "x": 196,
      "y": 407,
      "size": 1,
      "price": "1011000000000000000000",
      "reserved": "",
      "salt": "0x2de3d410a179eaf2ac4876cb14b1b5dc786315c0b68baf8a1889537b331b2cad",
      "assetIds": []
    },
    {
      "x": 197,
      "y": 372,
      "size": 1,
      "price": "4683000000000000000000",
      "reserved": "",
      "salt": "0x86e2725beb1b918d8033253e7969fd69a2e2c61fd178ed89c410e345f1dc1c82",
      "assetIds": [
        "55464657044963196816950587289035428064568320970692304673817341489687790884865",
        "55464657044963196816950587289035428064568320970692304673817341489687782494208",
        "55464657044963196816950587289035428064568320970692304673817341489687790884866",
        "55464657044963196816950587289035428064568320970692304673817341489687782494209",
        "55464657044963196816950587289035428064568320970692304673817341489687790884864"
      ]
    },
    {
      "x": 197,
      "y": 373,
      "size": 1,
      "price": "4683000000000000000000",
      "reserved": "",
      "salt": "0x8a9fd9dbb9697ef221e2abf1f6968c6d86b298fcd171dcffbfefaaa858203afc",
      "assetIds": [
        "55464657044963196816950587289035428064568320970692304673817341489687790884865",
        "55464657044963196816950587289035428064568320970692304673817341489687782494208",
        "55464657044963196816950587289035428064568320970692304673817341489687790884866",
        "55464657044963196816950587289035428064568320970692304673817341489687782494209",
        "55464657044963196816950587289035428064568320970692304673817341489687790884864"
      ]
    },
    {
      "x": 197,
      "y": 374,
      "size": 1,
      "price": "4683000000000000000000",
      "reserved": "",
      "salt": "0xd58e2a990492eb4e8654ff1c6de790e167bb72f6a885137d27dfba5d803fdab2",
      "assetIds": [
        "55464657044963196816950587289035428064568320970692304673817341489687790884865",
        "55464657044963196816950587289035428064568320970692304673817341489687782494208",
        "55464657044963196816950587289035428064568320970692304673817341489687790884866",
        "55464657044963196816950587289035428064568320970692304673817341489687782494209",
        "55464657044963196816950587289035428064568320970692304673817341489687790884864"
      ]
    },
    {
      "x": 197,
      "y": 375,
      "size": 1,
      "price": "4683000000000000000000",
      "reserved": "",
      "salt": "0xfbe481f8c87b4bcd9c92819ee63d5945c8717eed550578067788ded65f3b60af",
      "assetIds": [
        "55464657044963196816950587289035428064568320970692304673817341489687790884865",
        "55464657044963196816950587289035428064568320970692304673817341489687782494208",
        "55464657044963196816950587289035428064568320970692304673817341489687790884866",
        "55464657044963196816950587289035428064568320970692304673817341489687782494209",
        "55464657044963196816950587289035428064568320970692304673817341489687790884864"
      ]
    },
    {
      "x": 197,
      "y": 376,
      "size": 1,
      "price": "4683000000000000000000",
      "reserved": "",
      "salt": "0x38c2a926016bb755aa03767df487de8934194a3fdba1dc8cb946adf900d08470",
      "assetIds": [
        "55464657044963196816950587289035428064568320970692304673817341489687790884865",
        "55464657044963196816950587289035428064568320970692304673817341489687782494208",
        "55464657044963196816950587289035428064568320970692304673817341489687790884866",
        "55464657044963196816950587289035428064568320970692304673817341489687782494209",
        "55464657044963196816950587289035428064568320970692304673817341489687790884864"
      ]
    },
    {
      "x": 197,
      "y": 377,
      "size": 1,
      "price": "1011000000000000000000",
      "reserved": "0x7a9fe22691c811ea339d9b73150e6911a5343dca",
      "salt": "0x2490e8776fed1244a38bd24cd6443d92365a4bf45a1f7169419b09a8a51e7dd5",
      "assetIds": []
    },
    {
      "x": 197,
      "y": 378,
      "size": 1,
      "price": "1011000000000000000000",
      "reserved": "",
      "salt": "0xb91c686e60802c506b89fa2456b713d4b04979dae526233f53dcad855542ed43",
      "assetIds": []
    },
    {
      "x": 197,
      "y": 379,
      "size": 1,
      "price": "1011000000000000000000",
      "reserved": "",
      "salt": "0x5b8152d84b1f2ededa554cb94f67efb46831915bf1d467407d4bfdc26ddc94f8",
      "assetIds": []
    },
    {
      "x": 197,
      "y": 380,
      "size": 1,
      "price": "1011000000000000000000",
      "reserved": "",
      "salt": "0x7453326f3c5b12b1a614a85953fc1a6ebe6064449655719fbe143d4e36138d05",
      "assetIds": []
    },
    {
      "x": 197,
      "y": 381,
      "size": 1,
      "price": "1011000000000000000000",
      "reserved": "",
      "salt": "0x87a7887e9584dffd1f3a3877a7ad5b1c40d1ea56dd812500368884a3bc978952",
      "assetIds": []
    },
    {
      "x": 197,
      "y": 382,
      "size": 1,
      "price": "1011000000000000000000",
      "reserved": "",
      "salt": "0x79b553530243fc0fa9414875baa3e3fee75442acca202378862ac16962e08e64",
      "assetIds": []
    },
    {
      "x": 197,
      "y": 383,
      "size": 1,
      "price": "1011000000000000000000",
      "reserved": "",
      "salt": "0x9314054bd9edaa3e03d8f8f49dc12892e151dbe46854843fee8249961373de64",
      "assetIds": []
    },
    {
      "x": 197,
      "y": 384,
      "size": 1,
      "price": "1011000000000000000000",
      "reserved": "",
      "salt": "0xe3c7a0239b6cd9928a20ec12584f664990bf75585f3e9945918cee2d7eff721f",
      "assetIds": []
    },
    {
      "x": 197,
      "y": 385,
      "size": 1,
      "price": "1011000000000000000000",
      "reserved": "",
      "salt": "0xa9b473c52fcac9dfa714958b588ebbecb1b42402754b212e4ad269a9f31dfc84",
      "assetIds": []
    },
    {
      "x": 197,
      "y": 386,
      "size": 1,
      "price": "1011000000000000000000",
      "reserved": "",
      "salt": "0x33a71366c7129f4e20cc53396a22f61541f71631ce4ad5f69ed2067549d987ae",
      "assetIds": []
    },
    {
      "x": 197,
      "y": 387,
      "size": 1,
      "price": "1011000000000000000000",
      "reserved": "",
      "salt": "0x9455faa4b15a8485643c27db7ccd05f8e358e70924097f961b5280eb47f2f127",
      "assetIds": []
    },
    {
      "x": 197,
      "y": 388,
      "size": 1,
      "price": "1011000000000000000000",
      "reserved": "",
      "salt": "0x87d9d90b2843d4b0c2acf1d5a5907c5fea672bcd631fc3de2c27a17121c800ab",
      "assetIds": []
    },
    {
      "x": 197,
      "y": 389,
      "size": 1,
      "price": "1011000000000000000000",
      "reserved": "",
      "salt": "0xb7dabc8a72c531567df33af556f380b21de7874da7bc306a14fa9b96b31b28bd",
      "assetIds": []
    },
    {
      "x": 197,
      "y": 390,
      "size": 1,
      "price": "1011000000000000000000",
      "reserved": "",
      "salt": "0x5779c89b23337b17cdcfda01f4e7bba1a0e8973b86ab1aa542b03a5fdbc40386",
      "assetIds": []
    },
    {
      "x": 197,
      "y": 391,
      "size": 1,
      "price": "1011000000000000000000",
      "reserved": "",
      "salt": "0xdfe10786248afc1b9cb90a74bba8544237fd28ffc085cc16176b38daf99d7cc1",
      "assetIds": []
    },
    {
      "x": 197,
      "y": 392,
      "size": 1,
      "price": "1011000000000000000000",
      "reserved": "",
      "salt": "0x14712fae2eb0e29f6040b82cefa7199d64b078705ed33b3b85545aff715b505a",
      "assetIds": []
    },
    {
      "x": 197,
      "y": 393,
      "size": 1,
      "price": "1011000000000000000000",
      "reserved": "",
      "salt": "0x35d980cf3469c4d9ec392f44b08a60eb1d64cbf4166d85ac27dd0b78a2c27804",
      "assetIds": []
    },
    {
      "x": 197,
      "y": 394,
      "size": 1,
      "price": "1011000000000000000000",
      "reserved": "",
      "salt": "0x3922fd4426ef3fde295d7b5e4498e95f5cea52fbf935ce3366d41fdf8902c5eb",
      "assetIds": []
    },
    {
      "x": 197,
      "y": 395,
      "size": 1,
      "price": "1011000000000000000000",
      "reserved": "",
      "salt": "0xec5789120db5dd413e06c144014ee0fff2e8c0d83222cd4dfedc44b95325d179",
      "assetIds": []
    },
    {
      "x": 197,
      "y": 396,
      "size": 1,
      "price": "1011000000000000000000",
      "reserved": "",
      "salt": "0xd538831c7c84dd729fe259f0f4cc1f508e187da030c6d1614e61264b48b1fa1a",
      "assetIds": []
    },
    {
      "x": 197,
      "y": 397,
      "size": 1,
      "price": "1011000000000000000000",
      "reserved": "",
      "salt": "0xf8a872878d6baa94e30e3e3080b038d8c7c6b1214b84503df1a14b014de6ee8f",
      "assetIds": []
    },
    {
      "x": 197,
      "y": 398,
      "size": 1,
      "price": "1011000000000000000000",
      "reserved": "",
      "salt": "0xe5edabdcd4d2e5f9c0dd12b133cfedfae70c3b83632d348bb7ecddb698b13d59",
      "assetIds": []
    },
    {
      "x": 197,
      "y": 399,
      "size": 1,
      "price": "1011000000000000000000",
      "reserved": "",
      "salt": "0xcd0a1704f6acca1d33ab48bb553e3d63411795f789d15c185bca731a235b98ad",
      "assetIds": []
    },
    {
      "x": 197,
      "y": 400,
      "size": 1,
      "price": "1011000000000000000000",
      "reserved": "",
      "salt": "0x4faed1848b1426e8dd9154473b86259841e6d212323b03e860af6157faa53dda",
      "assetIds": []
    },
    {
      "x": 197,
      "y": 401,
      "size": 1,
      "price": "1011000000000000000000",
      "reserved": "",
      "salt": "0x1d090d0379123396fe19786529147db2c33c4fab315394295a21406c9ef50b41",
      "assetIds": []
    },
    {
      "x": 197,
      "y": 402,
      "size": 1,
      "price": "1011000000000000000000",
      "reserved": "",
      "salt": "0xe6f3643ee74092049186513cfd08123822fb646d9cfa03b5e2b873c0ce249044",
      "assetIds": []
    },
    {
      "x": 197,
      "y": 403,
      "size": 1,
      "price": "1011000000000000000000",
      "reserved": "0x7a9fe22691c811ea339d9b73150e6911a5343dca",
      "salt": "0x1a3c8eaf5e87af13a29c98664bfabc71f564a0c893038066b80d9a1f320901a4",
      "assetIds": []
    },
    {
      "x": 197,
      "y": 404,
      "size": 1,
      "price": "1011000000000000000000",
      "reserved": "0x7a9fe22691c811ea339d9b73150e6911a5343dca",
      "salt": "0x9a2516c99015bfbcb342027f10c6a4eef779ffec714ad3c7e0b04db5c0a18cbe",
      "assetIds": []
    },
    {
      "x": 197,
      "y": 405,
      "size": 1,
      "price": "1011000000000000000000",
      "reserved": "",
      "salt": "0xa673940212fa9b27cd2cf08abc029dbc21dc7684973c3cd04f7c875e82198bc0",
      "assetIds": []
    },
    {
      "x": 197,
      "y": 406,
      "size": 1,
      "price": "1011000000000000000000",
      "reserved": "",
      "salt": "0xf2c48360af75983626107a5122e847d265af4df9095b0b9c4a2650614c3a2e25",
      "assetIds": []
    },
    {
      "x": 197,
      "y": 407,
      "size": 1,
      "price": "1011000000000000000000",
      "reserved": "",
      "salt": "0xa18ec206c4a2b54b9e152ca0189c24fdb18f98481251ed28e4d0dd6387409c92",
      "assetIds": []
    },
    {
      "x": 198,
      "y": 378,
      "size": 1,
      "price": "1011000000000000000000",
      "reserved": "",
      "salt": "0xe4986b6e2b862a49de2b03731c675c67ecc7f0bd4ab29c5182a3dab6e4aba7b7",
      "assetIds": []
    },
    {
      "x": 198,
      "y": 379,
      "size": 1,
      "price": "1011000000000000000000",
      "reserved": "",
      "salt": "0x158576308c9f816e5a06b825e8129443cc80b324a8fd7e7edab3a620c92341db",
      "assetIds": []
    },
    {
      "x": 198,
      "y": 380,
      "size": 1,
      "price": "1011000000000000000000",
      "reserved": "",
      "salt": "0xfb2f35f3b65f2f17a8ce29300e680faf33527b8737b511f3b380ac4a3edff5c3",
      "assetIds": []
    },
    {
      "x": 198,
      "y": 381,
      "size": 1,
      "price": "1011000000000000000000",
      "reserved": "0x7a9fe22691c811ea339d9b73150e6911a5343dca",
      "salt": "0xc3961a397a7f7bfa855375e635f6960c7ca92c75b923a925b2ec3465ae93df05",
      "assetIds": []
    },
    {
      "x": 198,
      "y": 382,
      "size": 1,
      "price": "1011000000000000000000",
      "reserved": "",
      "salt": "0x80cad47397e0d98ab10798ccf2848a7f0fc77c228be1fe576dee35f44be7381d",
      "assetIds": []
    },
    {
      "x": 198,
      "y": 383,
      "size": 1,
      "price": "1011000000000000000000",
      "reserved": "",
      "salt": "0x9ef3081996f0a93a3612d988f6b3241c94a72c1b2d48dc8256eb37f8cb896af8",
      "assetIds": []
    },
    {
      "x": 198,
      "y": 384,
      "size": 1,
      "price": "1011000000000000000000",
      "reserved": "",
      "salt": "0x39c755f194e14dafde161c021984f9336905f54b3dfb3765a04617e3c7ea383e",
      "assetIds": []
    },
    {
      "x": 198,
      "y": 385,
      "size": 1,
      "price": "1011000000000000000000",
      "reserved": "",
      "salt": "0x2f7587d5e4d62eb9c6f148913784d3e77ca1d16179305d9ab598a16f4ed27ad0",
      "assetIds": []
    },
    {
      "x": 198,
      "y": 386,
      "size": 1,
      "price": "1011000000000000000000",
      "reserved": "",
      "salt": "0xdc0a744bb6691fe2f1b9dbd1a34ee776ec64d3a9c5420e55015b8d428a925918",
      "assetIds": []
    },
    {
      "x": 198,
      "y": 387,
      "size": 1,
      "price": "1011000000000000000000",
      "reserved": "",
      "salt": "0x86f24f6cb688a913ccfc2f291514a40766ef00023e62a2e17fef117f42124b5d",
      "assetIds": []
    },
    {
      "x": 198,
      "y": 388,
      "size": 1,
      "price": "1011000000000000000000",
      "reserved": "",
      "salt": "0x06b25e7878e09521f8a71cb494a76c97c7568e7c1cbd35d714c40a3297468550",
      "assetIds": []
    },
    {
      "x": 198,
      "y": 389,
      "size": 1,
      "price": "1011000000000000000000",
      "reserved": "",
      "salt": "0x22d066698b05ed7f84ed345280b8385f9f8a5013edc6ae64246bc1f48cab82c3",
      "assetIds": []
    },
    {
      "x": 198,
      "y": 396,
      "size": 1,
      "price": "1011000000000000000000",
      "reserved": "0x7a9fe22691c811ea339d9b73150e6911a5343dca",
      "salt": "0xab06798278e554637e66430cbb118d337389554561f2dce34f7ca2b80e42a035",
      "assetIds": []
    },
    {
      "x": 198,
      "y": 397,
      "size": 1,
      "price": "1011000000000000000000",
      "reserved": "",
      "salt": "0xe0ab7ac297f425a94f0205eb5beee6b48e8c425e1c8bd266fc2b3d12ab33714f",
      "assetIds": []
    },
    {
      "x": 198,
      "y": 398,
      "size": 1,
      "price": "1011000000000000000000",
      "reserved": "",
      "salt": "0x9ba8c6b66504ef4ad21d112c2067dc1b9bb4a3cb4246229def03651ed8f4811e",
      "assetIds": []
    },
    {
      "x": 198,
      "y": 399,
      "size": 1,
      "price": "1011000000000000000000",
      "reserved": "",
      "salt": "0x9b2c25b60014ce254ac9bcb6b8684c6991854727f4384e9fa1e1f0c78e26a252",
      "assetIds": []
    },
    {
      "x": 198,
      "y": 400,
      "size": 1,
      "price": "1011000000000000000000",
      "reserved": "",
      "salt": "0x4cf39a7e74136190edc3465ad4b756085a8d42d8ada0e44ae3816619c9a3dc43",
      "assetIds": []
    },
    {
      "x": 198,
      "y": 401,
      "size": 1,
      "price": "1011000000000000000000",
      "reserved": "",
      "salt": "0x55e4d1d7eb67710255aff3f059f1bd6c43854816318dcb6d412c6e8575bfa493",
      "assetIds": []
    },
    {
      "x": 198,
      "y": 402,
      "size": 1,
      "price": "1011000000000000000000",
      "reserved": "",
      "salt": "0x71839a20208951451f701e72cb925ed28c5f19731f8b269ce019bc298924a5d6",
      "assetIds": []
    },
    {
      "x": 198,
      "y": 403,
      "size": 1,
      "price": "1011000000000000000000",
      "reserved": "",
      "salt": "0x968afc681010bfa9875a12eb7806d4925b09c68e28c504910a6ecd8520e0957c",
      "assetIds": []
    },
    {
      "x": 198,
      "y": 404,
      "size": 1,
      "price": "1011000000000000000000",
      "reserved": "",
      "salt": "0x4d4016f8b8e1c8bd6a9b1a00942a911682a78a0db3730ebf95de1029f723bdf4",
      "assetIds": []
    },
    {
      "x": 198,
      "y": 405,
      "size": 1,
      "price": "1011000000000000000000",
      "reserved": "",
      "salt": "0x5e677fa0c41eb5188e823012d8759d6bee581479057e4e883e543c0821fb3f9a",
      "assetIds": []
    },
    {
      "x": 198,
      "y": 406,
      "size": 1,
      "price": "1011000000000000000000",
      "reserved": "",
      "salt": "0xcb0874880dba6e0d4fcceec24f77f821d798e7b0748a99772511adb33f368eee",
      "assetIds": []
    },
    {
      "x": 198,
      "y": 407,
      "size": 1,
      "price": "1011000000000000000000",
      "reserved": "",
      "salt": "0x5f64fbc20200733ab60c80100bcd90b729cfe92bdd99faf895e3da3eae224a04",
      "assetIds": []
    },
    {
      "x": 199,
      "y": 378,
      "size": 1,
      "price": "1011000000000000000000",
      "reserved": "",
      "salt": "0x2589c3ed578ef8636199f020a31dee70f4e4a09db34616889cc54b2f9df79ec8",
      "assetIds": []
    },
    {
      "x": 199,
      "y": 379,
      "size": 1,
      "price": "1011000000000000000000",
      "reserved": "0x7a9fe22691c811ea339d9b73150e6911a5343dca",
      "salt": "0xa13bfdb8a75bef7289d715d547a5feffa9c326b81381f6bf1580c15166c792c9",
      "assetIds": []
    },
    {
      "x": 199,
      "y": 380,
      "size": 1,
      "price": "1011000000000000000000",
      "reserved": "",
      "salt": "0x907e20ad0702b18bac722e8ebdb786200542bc0b5749fb7dc494d2aa9e8c9cc7",
      "assetIds": []
    },
    {
      "x": 199,
      "y": 381,
      "size": 1,
      "price": "1011000000000000000000",
      "reserved": "",
      "salt": "0xe24b2e358f6f2c5c17557845d257b84b27321a41ffcf55a8fb5a4bfd68b6771f",
      "assetIds": []
    },
    {
      "x": 199,
      "y": 382,
      "size": 1,
      "price": "1011000000000000000000",
      "reserved": "",
      "salt": "0x8d437fbbbb51d417baf28a746aa4f9d12a77caacf718d560c547318a7841e548",
      "assetIds": []
    },
    {
      "x": 199,
      "y": 383,
      "size": 1,
      "price": "1011000000000000000000",
      "reserved": "",
      "salt": "0x60f3500b07da958b430d74b449c6e3923ac8763efffebf6bec86c5190b985df0",
      "assetIds": []
    },
    {
      "x": 199,
      "y": 384,
      "size": 1,
      "price": "1011000000000000000000",
      "reserved": "",
      "salt": "0xe396f43577e62f7e09af0c609ab161c2026dbbbec440de4e5afd9e2b7eb1ef4a",
      "assetIds": []
    },
    {
      "x": 199,
      "y": 385,
      "size": 1,
      "price": "1011000000000000000000",
      "reserved": "",
      "salt": "0xe4cc4da122cfef83b23e29bad8c03e18f60c3939b809b02d092ead6aed3fcc63",
      "assetIds": []
    },
    {
      "x": 199,
      "y": 386,
      "size": 1,
      "price": "1011000000000000000000",
      "reserved": "",
      "salt": "0xa4a3fcc79b562a3eb5b05a5bd19f2039e61f732c1683fe7aa75ad32e831d2762",
      "assetIds": []
    },
    {
      "x": 199,
      "y": 387,
      "size": 1,
      "price": "1011000000000000000000",
      "reserved": "0x7a9fe22691c811ea339d9b73150e6911a5343dca",
      "salt": "0xc56aabee1aadb2207f3cbddd4750807f5c2d862f52c6518ee7fce15022164109",
      "assetIds": []
    },
    {
      "x": 199,
      "y": 388,
      "size": 1,
      "price": "1011000000000000000000",
      "reserved": "",
      "salt": "0xb6fe6bae44d76577563b6870d2245211a8ee6246acb6be8761e8c7a1de7420c6",
      "assetIds": []
    },
    {
      "x": 199,
      "y": 389,
      "size": 1,
      "price": "1011000000000000000000",
      "reserved": "",
      "salt": "0x0ce3bfa4da90e0101a73b67c4dd1b7b16f50ca698473e520efba48138ffcd245",
      "assetIds": []
    },
    {
      "x": 199,
      "y": 396,
      "size": 1,
      "price": "1011000000000000000000",
      "reserved": "0x7a9fe22691c811ea339d9b73150e6911a5343dca",
      "salt": "0xfc331e725032e392e7b2794342dd11f2c6f8e25c0c9494e61cbb86f1781f11b3",
      "assetIds": []
    },
    {
      "x": 199,
      "y": 397,
      "size": 1,
      "price": "1011000000000000000000",
      "reserved": "",
      "salt": "0x6de9636b9fa57d02eee8f1181c9fe96ab756eca33d36eb317d74f010948f0601",
      "assetIds": []
    },
    {
      "x": 199,
      "y": 398,
      "size": 1,
      "price": "1011000000000000000000",
      "reserved": "",
      "salt": "0xc01ad24401ea1a1efba3ab337569a431acdd22d0123599de18f3213d619de298",
      "assetIds": []
    },
    {
      "x": 199,
      "y": 399,
      "size": 1,
      "price": "1011000000000000000000",
      "reserved": "",
      "salt": "0x17dbf566ced7a1019771bc7d191e653bafbf4889ae50bf3be357b56f34694988",
      "assetIds": []
    },
    {
      "x": 199,
      "y": 400,
      "size": 1,
      "price": "1011000000000000000000",
      "reserved": "",
      "salt": "0x00ec3ad2bb74325f09815614ecc3c3e8ee8e7a5170969a362120f7f4a08f980b",
      "assetIds": []
    },
    {
      "x": 199,
      "y": 401,
      "size": 1,
      "price": "1011000000000000000000",
      "reserved": "",
      "salt": "0x2fb88d640a69036efef18935edac8f0d5dc3978c1bdaf1686dacdf3d2c930611",
      "assetIds": []
    },
    {
      "x": 199,
      "y": 402,
      "size": 1,
      "price": "1011000000000000000000",
      "reserved": "",
      "salt": "0x276b799cd6b083eb123edebef353ded2b14e8193ff9b8f8416921e22265e6860",
      "assetIds": []
    },
    {
      "x": 199,
      "y": 403,
      "size": 1,
      "price": "1011000000000000000000",
      "reserved": "",
      "salt": "0x84c1b7ac1333a996968f5064b8a6a400e86f67d8812f0f678206201fadf31f4d",
      "assetIds": []
    },
    {
      "x": 199,
      "y": 404,
      "size": 1,
      "price": "1011000000000000000000",
      "reserved": "0x7a9fe22691c811ea339d9b73150e6911a5343dca",
      "salt": "0xcf98ea984d9da4ae7374fa8a7bb6a20214f826f436f08239befcf6877ff6dfed",
      "assetIds": []
    },
    {
      "x": 199,
      "y": 405,
      "size": 1,
      "price": "1011000000000000000000",
      "reserved": "",
      "salt": "0xf86c1a2e2dafb4ab2c6c44d4215bf019500eed2eb6ce8b37b6c5fc51f7bc59e7",
      "assetIds": []
    },
    {
      "x": 199,
      "y": 406,
      "size": 1,
      "price": "1011000000000000000000",
      "reserved": "0x7a9fe22691c811ea339d9b73150e6911a5343dca",
      "salt": "0xaf531c3bc7eec15aa3a4fd4170fd28604d2a9f8cbca15d84b21394dc081e016a",
      "assetIds": []
    },
    {
      "x": 199,
      "y": 407,
      "size": 1,
      "price": "1011000000000000000000",
      "reserved": "",
      "salt": "0xfe5eab85f0835a6f0108f9e7fce888aa7ec80e52c0f3d785dbc0272813ff1b87",
      "assetIds": []
    },
    {
      "x": 200,
      "y": 378,
      "size": 1,
      "price": "1011000000000000000000",
      "reserved": "",
      "salt": "0x30395d25dce882a01c2d6b785983421c2ebaf75866c70814d877387bde657104",
      "assetIds": []
    },
    {
      "x": 200,
      "y": 379,
      "size": 1,
      "price": "1011000000000000000000",
      "reserved": "",
      "salt": "0xf5fc358a16204d4e6834b6bdf21bd91c5a5c0208c367a1ca70961b41cf2fda39",
      "assetIds": []
    },
    {
      "x": 200,
      "y": 380,
      "size": 1,
      "price": "1011000000000000000000",
      "reserved": "",
      "salt": "0xe3d63b292bbb7405f9da8adf43eb19e7e8c3351cdee56fec4088ff0dbcc595f1",
      "assetIds": []
    },
    {
      "x": 200,
      "y": 381,
      "size": 1,
      "price": "1011000000000000000000",
      "reserved": "",
      "salt": "0x2364f03018028610e7d416d7f5bc79fac9bf02c5910b33e8e1b18dfb4b1560c7",
      "assetIds": []
    },
    {
      "x": 200,
      "y": 382,
      "size": 1,
      "price": "1011000000000000000000",
      "reserved": "",
      "salt": "0xd369f4e8f3f0206ba825155456b2c876aa5f941af5261637adca132d8210f401",
      "assetIds": []
    },
    {
      "x": 200,
      "y": 383,
      "size": 1,
      "price": "1011000000000000000000",
      "reserved": "",
      "salt": "0xfe7fb5320884e3c1a5bca8ac77cdb5b1492add8e984f183ba34b00b2709103cb",
      "assetIds": []
    },
    {
      "x": 200,
      "y": 384,
      "size": 1,
      "price": "1011000000000000000000",
      "reserved": "",
      "salt": "0x64f59c1f671abd8ed7ed0b5f438c20eb2d05e1d73c007737273312b9df54d312",
      "assetIds": []
    },
    {
      "x": 200,
      "y": 385,
      "size": 1,
      "price": "1011000000000000000000",
      "reserved": "",
      "salt": "0x8dcdba7f24b63ec0876faa028ceed61c9da93649406b5af3e440eccde5ab5dee",
      "assetIds": []
    },
    {
      "x": 200,
      "y": 386,
      "size": 1,
      "price": "1011000000000000000000",
      "reserved": "",
      "salt": "0x4549c61f1160045239b58c28a72663ec587223c3103a63f1cfd59c69c73d96f9",
      "assetIds": []
    },
    {
      "x": 200,
      "y": 387,
      "size": 1,
      "price": "1011000000000000000000",
      "reserved": "",
      "salt": "0x2b02c8dc3a9eba984430bd082c70094a63bfef98ae93fbfd2e2f8123148b2c07",
      "assetIds": []
    },
    {
      "x": 200,
      "y": 388,
      "size": 1,
      "price": "1011000000000000000000",
      "reserved": "",
      "salt": "0x4ea270e0c02044a69d1a37884c0bcb12c1d8ff77c7236bc3f61bc977a33abe49",
      "assetIds": []
    },
    {
      "x": 200,
      "y": 389,
      "size": 1,
      "price": "1011000000000000000000",
      "reserved": "",
      "salt": "0x102afef3b951ca9c1a1329d7d601068ed8f72f8ea5805d9742299713162dae6f",
      "assetIds": []
    },
    {
      "x": 200,
      "y": 396,
      "size": 1,
      "price": "1011000000000000000000",
      "reserved": "",
      "salt": "0xebc82c4e201fd7caa68daae57f37d5eda73eccc3b6de2294a2fb50b4fe6556dc",
      "assetIds": []
    },
    {
      "x": 200,
      "y": 397,
      "size": 1,
      "price": "1011000000000000000000",
      "reserved": "",
      "salt": "0xfceea51798c2fcb3d667d71f32ba0a63e33d1524ab5114b76b496e564d7a1cbf",
      "assetIds": []
    },
    {
      "x": 200,
      "y": 398,
      "size": 1,
      "price": "1011000000000000000000",
      "reserved": "",
      "salt": "0x443c0f6827a43a983fd8fdbfba8d0001b18cba0a66271c8f61b889f9683d1be1",
      "assetIds": []
    },
    {
      "x": 200,
      "y": 399,
      "size": 1,
      "price": "1011000000000000000000",
      "reserved": "",
      "salt": "0x49268cfd2b30ecbb03a20869025445bb934656c83254f889351e986176b8c209",
      "assetIds": []
    },
    {
      "x": 200,
      "y": 400,
      "size": 1,
      "price": "1011000000000000000000",
      "reserved": "",
      "salt": "0x87f911dfbb2634ec2e3d50897fecbf672726b9ce9e0f668141c3dc1c94232853",
      "assetIds": []
    },
    {
      "x": 200,
      "y": 401,
      "size": 1,
      "price": "1011000000000000000000",
      "reserved": "",
      "salt": "0xbaff48e69b04ad367023b1a4e8ea74090bc69514d7ca847a6554d994a635ca1c",
      "assetIds": []
    },
    {
      "x": 200,
      "y": 402,
      "size": 1,
      "price": "1011000000000000000000",
      "reserved": "",
      "salt": "0xd6d533239b72c9206ede1422ee0ce15a10bbfaf3cf3ff08659a0c12f1c428ec4",
      "assetIds": []
    },
    {
      "x": 200,
      "y": 403,
      "size": 1,
      "price": "1011000000000000000000",
      "reserved": "",
      "salt": "0xfc9f43d531802c2887a93b24acfff2a8888ee3bf87760977695b12809adc05ca",
      "assetIds": []
    },
    {
      "x": 200,
      "y": 404,
      "size": 1,
      "price": "1011000000000000000000",
      "reserved": "",
      "salt": "0x1e0312ebd7cac3d23a1e950292e84d5fba6d28dbd672d8d2a73f77d5078d3aac",
      "assetIds": []
    },
    {
      "x": 200,
      "y": 405,
      "size": 1,
      "price": "1011000000000000000000",
      "reserved": "",
      "salt": "0x18db46b16cd62b0e8f1192a0c6c3efb889ea045d617c84cdb61d912057c04c5e",
      "assetIds": []
    },
    {
      "x": 200,
      "y": 406,
      "size": 1,
      "price": "1011000000000000000000",
      "reserved": "",
      "salt": "0xc5c61aaa48a351554f71a86082e5833de28ab213c4723ef07e7a53f7e7509331",
      "assetIds": []
    },
    {
      "x": 200,
      "y": 407,
      "size": 1,
      "price": "1011000000000000000000",
      "reserved": "",
      "salt": "0xc81bd3188b2884e6144bc0ae35187bc0f69d448928453e1cb77635410163e832",
      "assetIds": []
    },
    {
      "x": 201,
      "y": 378,
      "size": 1,
      "price": "1011000000000000000000",
      "reserved": "",
      "salt": "0x6627f3e8c268de3fb3255f1b9b7d87d9a8516b516ff6f17a751e45b24296e61c",
      "assetIds": []
    },
    {
      "x": 201,
      "y": 379,
      "size": 1,
      "price": "1011000000000000000000",
      "reserved": "",
      "salt": "0x5dcda27243acb06187bfbed93003ba7656b5169c9c9eb39e0348e65198d4bb0e",
      "assetIds": []
    },
    {
      "x": 201,
      "y": 380,
      "size": 1,
      "price": "1011000000000000000000",
      "reserved": "",
      "salt": "0x7c4403455bf501971d78e32b0cdfd4692132f789c548c6899ea81ba24b7d8bb3",
      "assetIds": []
    },
    {
      "x": 201,
      "y": 381,
      "size": 1,
      "price": "1011000000000000000000",
      "reserved": "",
      "salt": "0x1797c3ea97578fb3ebbc37169d7fcb743a7b22b55e387cdf89c566584998551b",
      "assetIds": []
    },
    {
      "x": 201,
      "y": 382,
      "size": 1,
      "price": "1011000000000000000000",
      "reserved": "",
      "salt": "0xd470489bfc936df70708c39e0f03b75d61033d970b49f3aff161fc2e6a601f79",
      "assetIds": []
    },
    {
      "x": 201,
      "y": 383,
      "size": 1,
      "price": "1011000000000000000000",
      "reserved": "0x7a9fe22691c811ea339d9b73150e6911a5343dca",
      "salt": "0x8728787af4b519d2d8e9e07ef4e5f016e348a5a69d2c93cf6d1c3a6b7262d1cb",
      "assetIds": []
    },
    {
      "x": 201,
      "y": 384,
      "size": 1,
      "price": "1011000000000000000000",
      "reserved": "",
      "salt": "0x8c1eacb6c7e39fb41791f052481478ac08361f86b75c6b8cc003b920cf42eb78",
      "assetIds": []
    },
    {
      "x": 201,
      "y": 385,
      "size": 1,
      "price": "1011000000000000000000",
      "reserved": "",
      "salt": "0x9357e32416e4b20e7d25c52434c824a7a0c3fcaeb574c6b4626520ad66251d7a",
      "assetIds": []
    },
    {
      "x": 201,
      "y": 386,
      "size": 1,
      "price": "1011000000000000000000",
      "reserved": "",
      "salt": "0x81c86a3f087008f7b8f62c8f8c205087e475f838e5b4b9c9ef13a0932fb4f29c",
      "assetIds": []
    },
    {
      "x": 201,
      "y": 396,
      "size": 1,
      "price": "1011000000000000000000",
      "reserved": "",
      "salt": "0x19826be71202a082c28de59074d5afe7f5a863d03f3614dee1b400b5fab38c1b",
      "assetIds": []
    },
    {
      "x": 201,
      "y": 397,
      "size": 1,
      "price": "1011000000000000000000",
      "reserved": "",
      "salt": "0xea250e59abffac29e1d7d2d6660c206d422570361f51b92fd2235d2227260edd",
      "assetIds": []
    },
    {
      "x": 201,
      "y": 398,
      "size": 1,
      "price": "1011000000000000000000",
      "reserved": "",
      "salt": "0x7e87575f8bba0c6252d3e39463f3aa4b9ab19668a1a18efb83d375d48777484a",
      "assetIds": []
    },
    {
      "x": 201,
      "y": 399,
      "size": 1,
      "price": "1011000000000000000000",
      "reserved": "0x7a9fe22691c811ea339d9b73150e6911a5343dca",
      "salt": "0x49c91bc6c861ffe1ae426fc8583023df16888f2535feff80d63174989e6d8614",
      "assetIds": []
    },
    {
      "x": 201,
      "y": 400,
      "size": 1,
      "price": "1011000000000000000000",
      "reserved": "",
      "salt": "0x8ef4f69c63b80be6ac034cd94f34bb78c7ff447f446bbd51b89b4149fc4857d9",
      "assetIds": []
    },
    {
      "x": 201,
      "y": 401,
      "size": 1,
      "price": "1011000000000000000000",
      "reserved": "",
      "salt": "0x710fd0fc028eec94b31da67c6f50541765b317d190350622d4a65a104df0b125",
      "assetIds": []
    },
    {
      "x": 201,
      "y": 402,
      "size": 1,
      "price": "1011000000000000000000",
      "reserved": "",
      "salt": "0x3a2d336a199ba779da9f0415cf8ed9095f7abd1f4a8a3ae3e5a60e970625a926",
      "assetIds": []
    },
    {
      "x": 201,
      "y": 403,
      "size": 1,
      "price": "1011000000000000000000",
      "reserved": "",
      "salt": "0xc467e2b1e3f4d94c67dc8edd7d4d48cab782aa6179ed117b607553afe9ecb6ee",
      "assetIds": []
    },
    {
      "x": 201,
      "y": 404,
      "size": 1,
      "price": "1011000000000000000000",
      "reserved": "",
      "salt": "0x798a4dde1280e499c2a7759ab934a43282a270b7595709afff600d43025b4d36",
      "assetIds": []
    },
    {
      "x": 201,
      "y": 405,
      "size": 1,
      "price": "1011000000000000000000",
      "reserved": "",
      "salt": "0xcef8c4961cc416876aaca275b9ee6c3c7bc83d497cb1b2c09b58c9ab6b987c4b",
      "assetIds": []
    },
    {
      "x": 201,
      "y": 406,
      "size": 1,
      "price": "1011000000000000000000",
      "reserved": "",
      "salt": "0x0f2551199da5ddea3816a04834a9da88fdd53919eebf405bfc679f1f027f0986",
      "assetIds": []
    },
    {
      "x": 201,
      "y": 407,
      "size": 1,
      "price": "1011000000000000000000",
      "reserved": "",
      "salt": "0xd007796245c7bbe5384bae01520d90907c0e91e483dbb1c5741489b62e58afe0",
      "assetIds": []
    },
    {
      "x": 202,
      "y": 378,
      "size": 1,
      "price": "1011000000000000000000",
      "reserved": "",
      "salt": "0x617c2b342d65461a7232cc10b786630de7ee17b830a9184a93c2d2605687590d",
      "assetIds": []
    },
    {
      "x": 202,
      "y": 379,
      "size": 1,
      "price": "1011000000000000000000",
      "reserved": "",
      "salt": "0x5c3d8e79e81700aa7ca1f2403a735bc4ccff35b927b75b1665bd382f90767aa3",
      "assetIds": []
    },
    {
      "x": 202,
      "y": 380,
      "size": 1,
      "price": "1011000000000000000000",
      "reserved": "0x7a9fe22691c811ea339d9b73150e6911a5343dca",
      "salt": "0x011bc2df046e47e9af0982a71b5215e3bf2850e88c1cf5563ed9a429c9b15a4e",
      "assetIds": []
    },
    {
      "x": 202,
      "y": 381,
      "size": 1,
      "price": "1011000000000000000000",
      "reserved": "",
      "salt": "0xc7e94b4fc0cc76ecf15dae77d28fe194dcaa39c4c3d78071166e449099f598a5",
      "assetIds": []
    },
    {
      "x": 202,
      "y": 382,
      "size": 1,
      "price": "1011000000000000000000",
      "reserved": "",
      "salt": "0xaac19b4df8d0a0d12c04943e5d6cc6953337b74b23b628a68f3262b532c0d70b",
      "assetIds": []
    },
    {
      "x": 202,
      "y": 383,
      "size": 1,
      "price": "1011000000000000000000",
      "reserved": "",
      "salt": "0x761f2d221797197963fe82bcb6954c5d453a4c8193c9490c627564a2ca832971",
      "assetIds": []
    },
    {
      "x": 202,
      "y": 384,
      "size": 1,
      "price": "1011000000000000000000",
      "reserved": "",
      "salt": "0x34c1b2659415a3d0fd49b2590d3691e9cbd3af0f05f36eafb76e1648e9905f93",
      "assetIds": []
    },
    {
      "x": 202,
      "y": 385,
      "size": 1,
      "price": "1011000000000000000000",
      "reserved": "",
      "salt": "0x9cd78d7f4cb5c5445d027258bb97b0f156eae42c71c03de52488553fb87dad61",
      "assetIds": []
    },
    {
      "x": 202,
      "y": 386,
      "size": 1,
      "price": "1011000000000000000000",
      "reserved": "",
      "salt": "0xf75dea38bdadb611512dc6d4c9593a0247a0a5bd80d4d865be09f7f77d75367c",
      "assetIds": []
    },
    {
      "x": 202,
      "y": 396,
      "size": 1,
      "price": "1011000000000000000000",
      "reserved": "",
      "salt": "0xaaccb36283f6b5deeee2dda6a4a44488a2b43fef6f6f33fedad3f7cd09d407ee",
      "assetIds": []
    },
    {
      "x": 202,
      "y": 397,
      "size": 1,
      "price": "1011000000000000000000",
      "reserved": "",
      "salt": "0xc03bbe9224d9688a18cdb31d191d5c803f1eda35804a3f2177b02c49355eb073",
      "assetIds": []
    },
    {
      "x": 202,
      "y": 398,
      "size": 1,
      "price": "1011000000000000000000",
      "reserved": "",
      "salt": "0x3f9bb28aced0ceca30aec2f3a0c3156fb7bc1381ddb0333aac6a200063da704e",
      "assetIds": []
    },
    {
      "x": 202,
      "y": 399,
      "size": 1,
      "price": "1011000000000000000000",
      "reserved": "",
      "salt": "0x75e5e0d32180b78bf8f619b1e27dd418e92da8b69ff89390cfc9a1d6727d2096",
      "assetIds": []
    },
    {
      "x": 202,
      "y": 400,
      "size": 1,
      "price": "1011000000000000000000",
      "reserved": "",
      "salt": "0x3d1c9ddba71540b556038129ef06e06ea8ef7ae4db710521e2abf8b9179d109f",
      "assetIds": []
    },
    {
      "x": 202,
      "y": 401,
      "size": 1,
      "price": "1011000000000000000000",
      "reserved": "",
      "salt": "0xb943a220f15937467eaa697097e7244936025eb06c94dc08c99b18ebb02f34cb",
      "assetIds": []
    },
    {
      "x": 202,
      "y": 402,
      "size": 1,
      "price": "1011000000000000000000",
      "reserved": "",
      "salt": "0xd2f59d554c9b5686daad4a186893d2580ee88f8580327752ff8b447260c8848e",
      "assetIds": []
    },
    {
      "x": 202,
      "y": 403,
      "size": 1,
      "price": "1011000000000000000000",
      "reserved": "0x7a9fe22691c811ea339d9b73150e6911a5343dca",
      "salt": "0xf053a8217f28df065fdf77d9124d8a48a448dfa692db09c465249d5009a52a6c",
      "assetIds": []
    },
    {
      "x": 202,
      "y": 404,
      "size": 1,
      "price": "1011000000000000000000",
      "reserved": "",
      "salt": "0xf956f4c15993227f51127e901bb4ece37d0245112a7091fdf623ce67a1a2b37e",
      "assetIds": []
    },
    {
      "x": 202,
      "y": 405,
      "size": 1,
      "price": "1011000000000000000000",
      "reserved": "",
      "salt": "0xbe2f32478ec1124b29dd8787f7532d3386a0974dccef3adf4c85df5d6db76369",
      "assetIds": []
    },
    {
      "x": 202,
      "y": 406,
      "size": 1,
      "price": "1011000000000000000000",
      "reserved": "0x7a9fe22691c811ea339d9b73150e6911a5343dca",
      "salt": "0x24a893cdd549cd068809a139a5457480ee0d1d713d8d5b31730e1802bdb4e061",
      "assetIds": []
    },
    {
      "x": 202,
      "y": 407,
      "size": 1,
      "price": "1011000000000000000000",
      "reserved": "",
      "salt": "0x75bf5c4df21a0277bad9af19e30dbf4df0b2e175634dce2cd479078e8aff598b",
      "assetIds": []
    },
    {
      "x": 203,
      "y": 378,
      "size": 1,
      "price": "1011000000000000000000",
      "reserved": "",
      "salt": "0x7e45f59dcb45f4b8924ea2b1e6e4a9d59eb4698cbebcdc4cfd768812c80747ea",
      "assetIds": []
    },
    {
      "x": 203,
      "y": 379,
      "size": 1,
      "price": "1011000000000000000000",
      "reserved": "",
      "salt": "0x585a923f96769724630b5831fbb56c00f082d445dca2883f855a0df2ea7e5462",
      "assetIds": []
    },
    {
      "x": 203,
      "y": 380,
      "size": 1,
      "price": "1011000000000000000000",
      "reserved": "",
      "salt": "0x77f63fcf671830bcaf224148b2820766776eb9411c583825c20b87a86fcafecd",
      "assetIds": []
    },
    {
      "x": 203,
      "y": 381,
      "size": 1,
      "price": "1011000000000000000000",
      "reserved": "",
      "salt": "0xf014972217edd1dd695e886d998e4d2911b88593ce5adc50d5eb49c2f70c97d5",
      "assetIds": []
    },
    {
      "x": 203,
      "y": 382,
      "size": 1,
      "price": "1011000000000000000000",
      "reserved": "",
      "salt": "0xca5319ee7673d1ad0636c90cbfabf3912bcb73af45d7e14ed1dd56844bed8683",
      "assetIds": []
    },
    {
      "x": 203,
      "y": 383,
      "size": 1,
      "price": "1011000000000000000000",
      "reserved": "",
      "salt": "0xe3b839a9896e6d4304d52840dbe5c5d2f34c0c20626f685dcd0c749745e8c4c5",
      "assetIds": []
    },
    {
      "x": 203,
      "y": 384,
      "size": 1,
      "price": "1011000000000000000000",
      "reserved": "0x7a9fe22691c811ea339d9b73150e6911a5343dca",
      "salt": "0xb64dd246ada1912b0b86c79a380c89cbf3e441a71ae387ac94a0f2fdc0abbec0",
      "assetIds": []
    },
    {
      "x": 203,
      "y": 385,
      "size": 1,
      "price": "1011000000000000000000",
      "reserved": "0x7a9fe22691c811ea339d9b73150e6911a5343dca",
      "salt": "0x25f68261820c63dbfb0d2594d8f69f0cf251d69dacce4ed98d90fb22ff42ad48",
      "assetIds": []
    },
    {
      "x": 203,
      "y": 386,
      "size": 1,
      "price": "1011000000000000000000",
      "reserved": "",
      "salt": "0x506938ab597b83811cb065a5312672562ceb46fc4abc6699bc45790165308267",
      "assetIds": []
    },
    {
      "x": 203,
      "y": 396,
      "size": 1,
      "price": "1011000000000000000000",
      "reserved": "",
      "salt": "0xc9feaf9d87e8d9ac2933ebd8a654072487bedb270d9d51326ef12c5a764ece75",
      "assetIds": []
    },
    {
      "x": 203,
      "y": 397,
      "size": 1,
      "price": "1011000000000000000000",
      "reserved": "",
      "salt": "0x1ecd95555f6ce48eaee3dc5c05cf73584a384ab1845e4771fcf71ca37e44557a",
      "assetIds": []
    },
    {
      "x": 203,
      "y": 398,
      "size": 1,
      "price": "1011000000000000000000",
      "reserved": "",
      "salt": "0x46062b2028d6150db1f177bf244ee1eee76bec321559b8717dc34f83bcbb366d",
      "assetIds": []
    },
    {
      "x": 203,
      "y": 399,
      "size": 1,
      "price": "1011000000000000000000",
      "reserved": "",
      "salt": "0x74d4305722812c46c2c8c3fe9fd4ffe83878f462bf78aefa5ced97a67cc483a1",
      "assetIds": []
    },
    {
      "x": 203,
      "y": 400,
      "size": 1,
      "price": "1011000000000000000000",
      "reserved": "",
      "salt": "0x475461454e9c72cd119122a53d764e2a03ca8337e0124b0ea3d03bdff65b86aa",
      "assetIds": []
    },
    {
      "x": 203,
      "y": 401,
      "size": 1,
      "price": "1011000000000000000000",
      "reserved": "",
      "salt": "0xc15bc1796bb66a8bcacd6deea7fe3cd78e5e4c0d3cd127b31f574fe4ab9e2840",
      "assetIds": []
    },
    {
      "x": 203,
      "y": 402,
      "size": 1,
      "price": "1011000000000000000000",
      "reserved": "",
      "salt": "0xc838f03f0a4667ddb2e4f7387011e5ec9999baef1d515634769deae2b7e4f15c",
      "assetIds": []
    },
    {
      "x": 203,
      "y": 403,
      "size": 1,
      "price": "1011000000000000000000",
      "reserved": "",
      "salt": "0x9902ce9a0547b19d069d21a2e1235ee8f99613e8e8127c6f56b0f88604c97f31",
      "assetIds": []
    },
    {
      "x": 203,
      "y": 404,
      "size": 1,
      "price": "1011000000000000000000",
      "reserved": "0x7a9fe22691c811ea339d9b73150e6911a5343dca",
      "salt": "0x63c13e6f2a672f40ae0b9e2b870bf5c1cd18f26e41ccf0c24156fb366030da6f",
      "assetIds": []
    },
    {
      "x": 203,
      "y": 405,
      "size": 1,
      "price": "1011000000000000000000",
      "reserved": "",
      "salt": "0x3bcfef9b269821f5c149f8e1c9a5c37db1571a4064a6bfdc1acd1996ced0014c",
      "assetIds": []
    },
    {
      "x": 203,
      "y": 406,
      "size": 1,
      "price": "1011000000000000000000",
      "reserved": "",
      "salt": "0xc1f3b86f5be7fe0e70f646ef81dcb8bb9564624f7cd9c666b2a5fa0146f4b7ce",
      "assetIds": []
    },
    {
      "x": 203,
      "y": 407,
      "size": 1,
      "price": "1011000000000000000000",
      "reserved": "",
      "salt": "0x90d86daca49bdd1dcbc4a9ac7046156aa5e0d2e048cf728fef899afc31107b6b",
      "assetIds": []
    },
    {
      "x": 204,
      "y": 360,
      "size": 1,
      "price": "4683000000000000000000",
      "reserved": "",
      "salt": "0xf619606d9be7473919a0705fb7ae76b6e2bb4fe7fc5e004ce64e9a0376a5ffe9",
      "assetIds": [
        "55464657044963196816950587289035428064568320970692304673817341489687790884865",
        "55464657044963196816950587289035428064568320970692304673817341489687782494208",
        "55464657044963196816950587289035428064568320970692304673817341489687790884866",
        "55464657044963196816950587289035428064568320970692304673817341489687782494209",
        "55464657044963196816950587289035428064568320970692304673817341489687790884864"
      ]
    },
    {
      "x": 204,
      "y": 361,
      "size": 1,
      "price": "4683000000000000000000",
      "reserved": "",
      "salt": "0xa5968de3b5eb6e31ed9425b8791d0d54fcff492dfcd216b86c5d4a088c88f263",
      "assetIds": [
        "55464657044963196816950587289035428064568320970692304673817341489687790884865",
        "55464657044963196816950587289035428064568320970692304673817341489687782494208",
        "55464657044963196816950587289035428064568320970692304673817341489687790884866",
        "55464657044963196816950587289035428064568320970692304673817341489687782494209",
        "55464657044963196816950587289035428064568320970692304673817341489687790884864"
      ]
    },
    {
      "x": 204,
      "y": 362,
      "size": 1,
      "price": "4683000000000000000000",
      "reserved": "",
      "salt": "0xb8926567cb6d842b071e461cce3432bdb3c36334f3793cf8ca69cf5e0c0dfd3e",
      "assetIds": [
        "55464657044963196816950587289035428064568320970692304673817341489687790884865",
        "55464657044963196816950587289035428064568320970692304673817341489687782494208",
        "55464657044963196816950587289035428064568320970692304673817341489687790884866",
        "55464657044963196816950587289035428064568320970692304673817341489687782494209",
        "55464657044963196816950587289035428064568320970692304673817341489687790884864"
      ]
    },
    {
      "x": 204,
      "y": 363,
      "size": 1,
      "price": "4683000000000000000000",
      "reserved": "",
      "salt": "0x85aa48b1759ff4dbcc44d2bde4bb1b739be266818b0be1339d6476d5124e4c67",
      "assetIds": [
        "55464657044963196816950587289035428064568320970692304673817341489687790884865",
        "55464657044963196816950587289035428064568320970692304673817341489687782494208",
        "55464657044963196816950587289035428064568320970692304673817341489687790884866",
        "55464657044963196816950587289035428064568320970692304673817341489687782494209",
        "55464657044963196816950587289035428064568320970692304673817341489687790884864"
      ]
    },
    {
      "x": 204,
      "y": 364,
      "size": 1,
      "price": "4683000000000000000000",
      "reserved": "",
      "salt": "0x35c96ebb736cc210e94c4d9cbfbbc01eb4265026e41ca613c69631dd01d3117c",
      "assetIds": [
        "55464657044963196816950587289035428064568320970692304673817341489687790884865",
        "55464657044963196816950587289035428064568320970692304673817341489687782494208",
        "55464657044963196816950587289035428064568320970692304673817341489687790884866",
        "55464657044963196816950587289035428064568320970692304673817341489687782494209",
        "55464657044963196816950587289035428064568320970692304673817341489687790884864"
      ]
    },
    {
      "x": 204,
      "y": 365,
      "size": 1,
      "price": "4683000000000000000000",
      "reserved": "",
      "salt": "0x0bd26d8367e1145f91f44b9f3e40d85c60ee23a779782ac3728435d15f955c3a",
      "assetIds": [
        "55464657044963196816950587289035428064568320970692304673817341489687790884865",
        "55464657044963196816950587289035428064568320970692304673817341489687782494208",
        "55464657044963196816950587289035428064568320970692304673817341489687790884866",
        "55464657044963196816950587289035428064568320970692304673817341489687782494209",
        "55464657044963196816950587289035428064568320970692304673817341489687790884864"
      ]
    },
    {
      "x": 204,
      "y": 366,
      "size": 1,
      "price": "4683000000000000000000",
      "reserved": "",
      "salt": "0xed2922d45292fa3a1c8d59ebe70da4ccb1b6cacc082bd698de4d98e148f4cae0",
      "assetIds": [
        "55464657044963196816950587289035428064568320970692304673817341489687790884865",
        "55464657044963196816950587289035428064568320970692304673817341489687782494208",
        "55464657044963196816950587289035428064568320970692304673817341489687790884866",
        "55464657044963196816950587289035428064568320970692304673817341489687782494209",
        "55464657044963196816950587289035428064568320970692304673817341489687790884864"
      ]
    },
    {
      "x": 204,
      "y": 367,
      "size": 1,
      "price": "4683000000000000000000",
      "reserved": "",
      "salt": "0xe9ea650799813f1202dbc5ff195896aa774a18f4fcfd093c26bf2e626c8ac10d",
      "assetIds": [
        "55464657044963196816950587289035428064568320970692304673817341489687790884865",
        "55464657044963196816950587289035428064568320970692304673817341489687782494208",
        "55464657044963196816950587289035428064568320970692304673817341489687790884866",
        "55464657044963196816950587289035428064568320970692304673817341489687782494209",
        "55464657044963196816950587289035428064568320970692304673817341489687790884864"
      ]
    },
    {
      "x": 204,
      "y": 368,
      "size": 1,
      "price": "4683000000000000000000",
      "reserved": "",
      "salt": "0x9adf9dff5892342931852b8ae1744d441d13e576089f916653c7af3d23654065",
      "assetIds": [
        "55464657044963196816950587289035428064568320970692304673817341489687790884865",
        "55464657044963196816950587289035428064568320970692304673817341489687782494208",
        "55464657044963196816950587289035428064568320970692304673817341489687790884866",
        "55464657044963196816950587289035428064568320970692304673817341489687782494209",
        "55464657044963196816950587289035428064568320970692304673817341489687790884864"
      ]
    },
    {
      "x": 204,
      "y": 369,
      "size": 1,
      "price": "4683000000000000000000",
      "reserved": "",
      "salt": "0xf283f92c250ad844f6c0dc4d90008b9a84b4269472013aa9e8d57c9b5580e7b8",
      "assetIds": [
        "55464657044963196816950587289035428064568320970692304673817341489687790884865",
        "55464657044963196816950587289035428064568320970692304673817341489687782494208",
        "55464657044963196816950587289035428064568320970692304673817341489687790884866",
        "55464657044963196816950587289035428064568320970692304673817341489687782494209",
        "55464657044963196816950587289035428064568320970692304673817341489687790884864"
      ]
    },
    {
      "x": 204,
      "y": 370,
      "size": 1,
      "price": "4683000000000000000000",
      "reserved": "",
      "salt": "0xaa638127145b6b07ad40cba0f4706483db4b224c29c014d2bfefe594d5217d31",
      "assetIds": [
        "55464657044963196816950587289035428064568320970692304673817341489687790884865",
        "55464657044963196816950587289035428064568320970692304673817341489687782494208",
        "55464657044963196816950587289035428064568320970692304673817341489687790884866",
        "55464657044963196816950587289035428064568320970692304673817341489687782494209",
        "55464657044963196816950587289035428064568320970692304673817341489687790884864"
      ]
    },
    {
      "x": 204,
      "y": 371,
      "size": 1,
      "price": "4683000000000000000000",
      "reserved": "",
      "salt": "0x7a5882754542accdae4e0cbe6e3635483700d6cdf2b3ba541342846202f01d72",
      "assetIds": [
        "55464657044963196816950587289035428064568320970692304673817341489687790884865",
        "55464657044963196816950587289035428064568320970692304673817341489687782494208",
        "55464657044963196816950587289035428064568320970692304673817341489687790884866",
        "55464657044963196816950587289035428064568320970692304673817341489687782494209",
        "55464657044963196816950587289035428064568320970692304673817341489687790884864"
      ]
    },
    {
      "x": 204,
      "y": 372,
      "size": 1,
      "price": "4683000000000000000000",
      "reserved": "",
      "salt": "0xca1c2535cd1008c668f5a3f58c45b3254c8933290793fd9840cca456a7d096d9",
      "assetIds": [
        "55464657044963196816950587289035428064568320970692304673817341489687790884865",
        "55464657044963196816950587289035428064568320970692304673817341489687782494208",
        "55464657044963196816950587289035428064568320970692304673817341489687790884866",
        "55464657044963196816950587289035428064568320970692304673817341489687782494209",
        "55464657044963196816950587289035428064568320970692304673817341489687790884864"
      ]
    },
    {
      "x": 204,
      "y": 373,
      "size": 1,
      "price": "4683000000000000000000",
      "reserved": "",
      "salt": "0x7d6df13a56b75b84cb7f83a7eca4cb65f2602e55eae1dba6862f80a2dfee7c73",
      "assetIds": [
        "55464657044963196816950587289035428064568320970692304673817341489687790884865",
        "55464657044963196816950587289035428064568320970692304673817341489687782494208",
        "55464657044963196816950587289035428064568320970692304673817341489687790884866",
        "55464657044963196816950587289035428064568320970692304673817341489687782494209",
        "55464657044963196816950587289035428064568320970692304673817341489687790884864"
      ]
    },
    {
      "x": 204,
      "y": 374,
      "size": 1,
      "price": "1011000000000000000000",
      "reserved": "0x7a9fe22691c811ea339d9b73150e6911a5343dca",
      "salt": "0x747292d7378e273dd53fe046cd86002c16e33b52f04334777f170e2f3b424511",
      "assetIds": []
    },
    {
      "x": 204,
      "y": 375,
      "size": 1,
      "price": "1011000000000000000000",
      "reserved": "",
      "salt": "0x6fc1b71409921dd1aee2d54bf37ad57b295161a55b57ec281becda8db0e38e1a",
      "assetIds": []
    },
    {
      "x": 204,
      "y": 376,
      "size": 1,
      "price": "1011000000000000000000",
      "reserved": "",
      "salt": "0x49dd61d1e8ee553a85885f06bcc3fa0dacd2ae322ccc5b3e833a0adafbb44741",
      "assetIds": []
    },
    {
      "x": 204,
      "y": 377,
      "size": 1,
      "price": "1011000000000000000000",
      "reserved": "",
      "salt": "0xa6755eb0b04d67a290651c7e034b84b8a48e1b18c4250cc9762c520807ed74d5",
      "assetIds": []
    },
    {
      "x": 204,
      "y": 378,
      "size": 1,
      "price": "1011000000000000000000",
      "reserved": "",
      "salt": "0x33058a36a2da9d2aa91d630566cacf5d20cf6764b3f16d36cef7fa17b7e873ba",
      "assetIds": []
    },
    {
      "x": 204,
      "y": 379,
      "size": 1,
      "price": "1011000000000000000000",
      "reserved": "0x7a9fe22691c811ea339d9b73150e6911a5343dca",
      "salt": "0x98ab59610415b233940753985bbb2b732fbcf325c200811a94d00dda9cfa0afa",
      "assetIds": []
    },
    {
      "x": 204,
      "y": 380,
      "size": 1,
      "price": "1011000000000000000000",
      "reserved": "",
      "salt": "0xa85aa8d253992bca58dab26058fca0905fea143fc6cfee341982b1e69e8882de",
      "assetIds": []
    },
    {
      "x": 204,
      "y": 381,
      "size": 1,
      "price": "1011000000000000000000",
      "reserved": "0x7a9fe22691c811ea339d9b73150e6911a5343dca",
      "salt": "0x1dc2594ff094edd3e34a896f05c15386796145e6136a89118967018c95bda0d5",
      "assetIds": []
    },
    {
      "x": 204,
      "y": 382,
      "size": 1,
      "price": "1011000000000000000000",
      "reserved": "",
      "salt": "0x291986530aa6e05eb8474e775fad028582af1750cd36d9efb3a6be8973c4bfb1",
      "assetIds": []
    },
    {
      "x": 204,
      "y": 383,
      "size": 1,
      "price": "1011000000000000000000",
      "reserved": "",
      "salt": "0xff29172c86d01b0480dcb384b3ebe7022ff43ffaf638599f37268746e1aa3cf9",
      "assetIds": []
    },
    {
      "x": 204,
      "y": 384,
      "size": 1,
      "price": "1011000000000000000000",
      "reserved": "",
      "salt": "0x6814e9f3633f4eb942dc7d511dc34e2b6e1ae4c00bef736efd0d97bf0c11f1ac",
      "assetIds": []
    },
    {
      "x": 204,
      "y": 385,
      "size": 1,
      "price": "1011000000000000000000",
      "reserved": "",
      "salt": "0x7a2259356b1d5d72aa76488c507b9711bd559b59370d7f38a3282013c70a0b91",
      "assetIds": []
    },
    {
      "x": 204,
      "y": 386,
      "size": 1,
      "price": "1011000000000000000000",
      "reserved": "",
      "salt": "0x53eb432692d6d39c74f3dd105616cbf8c3dcc910fe828bd4bd7a46cc3b4f3618",
      "assetIds": []
    },
    {
      "x": 204,
      "y": 387,
      "size": 1,
      "price": "1011000000000000000000",
      "reserved": "",
      "salt": "0x3be0e949136169a86fc2a94815a901b5d86872b4a63b2a26bc3ec9b9f8e3552e",
      "assetIds": []
    },
    {
      "x": 204,
      "y": 388,
      "size": 1,
      "price": "1011000000000000000000",
      "reserved": "",
      "salt": "0xc06dc9fecae1dfa8ab2289d95cd6a201a2553cdae7aa450dd76399f33f928911",
      "assetIds": []
    },
    {
      "x": 204,
      "y": 389,
      "size": 1,
      "price": "1011000000000000000000",
      "reserved": "",
      "salt": "0xcfdef3f0746c6560bc22acc8b461e2b11c8c58e64afd215bc6d5acba47dbb0d5",
      "assetIds": []
    },
    {
      "x": 204,
      "y": 390,
      "size": 1,
      "price": "1011000000000000000000",
      "reserved": "",
      "salt": "0xc2c415a2ca6343491cb0269b6d94bd475ee16cd5667fd51d9577287d3764e4ad",
      "assetIds": []
    },
    {
      "x": 204,
      "y": 391,
      "size": 1,
      "price": "1011000000000000000000",
      "reserved": "0x7a9fe22691c811ea339d9b73150e6911a5343dca",
      "salt": "0x733f95ded6d3c4b4228a09e0ead4b86305e1c3a1545df43215b4cb572191f209",
      "assetIds": []
    },
    {
      "x": 204,
      "y": 392,
      "size": 1,
      "price": "1011000000000000000000",
      "reserved": "",
      "salt": "0x824eb5ecff1ee83ba396d35212805930c37d21ffda01b5531b7959d81d1533b9",
      "assetIds": []
    },
    {
      "x": 204,
      "y": 393,
      "size": 1,
      "price": "1011000000000000000000",
      "reserved": "",
      "salt": "0x73aa18eea39220a8cff9fc40cdad6ac1fb494ca24e9d36a8f24796ea58912e95",
      "assetIds": []
    },
    {
      "x": 204,
      "y": 394,
      "size": 1,
      "price": "1011000000000000000000",
      "reserved": "",
      "salt": "0xa57337aaa962a02bc081e3d821608c2fda660e59eded03e47d29a47c5f7d51e2",
      "assetIds": []
    },
    {
      "x": 204,
      "y": 395,
      "size": 1,
      "price": "1011000000000000000000",
      "reserved": "",
      "salt": "0x5bc02e34aa93869e2bdd2d4d4521a4f66768856ee6a5ac45b3113f3b5cd5784c",
      "assetIds": []
    },
    {
      "x": 204,
      "y": 396,
      "size": 1,
      "price": "1011000000000000000000",
      "reserved": "",
      "salt": "0x3d082d8736af06879965bbb0bda88b312e074f17de00df2df6b16068559de1c8",
      "assetIds": []
    },
    {
      "x": 204,
      "y": 397,
      "size": 1,
      "price": "1011000000000000000000",
      "reserved": "",
      "salt": "0xe77fe3886d9aee55aa5133e77d1be9d6809839589414be27fe959647088824eb",
      "assetIds": []
    },
    {
      "x": 204,
      "y": 398,
      "size": 1,
      "price": "1011000000000000000000",
      "reserved": "",
      "salt": "0x839ec56b44e113d01daf0f3799b95b1f8cfa8d60f5a2fd362513c62f55b8b3b6",
      "assetIds": []
    },
    {
      "x": 204,
      "y": 399,
      "size": 1,
      "price": "1011000000000000000000",
      "reserved": "",
      "salt": "0x1fa94bd8265031377bb82cb4957053e3c2da2306312e5aa5112778fed9fd39c5",
      "assetIds": []
    },
    {
      "x": 204,
      "y": 400,
      "size": 1,
      "price": "1011000000000000000000",
      "reserved": "",
      "salt": "0xfe66119da5e22c5851f33c2c4592daf0b8ac8517c46d7d5bc4d7111b8f9d5a85",
      "assetIds": []
    },
    {
      "x": 204,
      "y": 401,
      "size": 1,
      "price": "1011000000000000000000",
      "reserved": "",
      "salt": "0x164416c72a2ad89e59dcd0f1890e09d9d8a4779942b114ccadfec30b7be5662c",
      "assetIds": []
    },
    {
      "x": 204,
      "y": 402,
      "size": 1,
      "price": "1011000000000000000000",
      "reserved": "",
      "salt": "0x0626bb539b3558bfecf9c5721fc8bdcbaf47b42e89eeaf2c046aca4af18b957a",
      "assetIds": []
    },
    {
      "x": 204,
      "y": 403,
      "size": 1,
      "price": "1011000000000000000000",
      "reserved": "",
      "salt": "0x6e9dd48336428e8062474bb6da4c7399c84f6468a3bb0ad6510f49a13e0b2482",
      "assetIds": []
    },
    {
      "x": 204,
      "y": 404,
      "size": 1,
      "price": "1011000000000000000000",
      "reserved": "0x7a9fe22691c811ea339d9b73150e6911a5343dca",
      "salt": "0x135162e861f5a1c36ecf49c9ff2b440e5d1db8b34f2f00b6a8b9decd9a5f8a9b",
      "assetIds": []
    },
    {
      "x": 204,
      "y": 405,
      "size": 1,
      "price": "1011000000000000000000",
      "reserved": "",
      "salt": "0x57ec73fdb870cd50dc87648dd21078687d06e6af24ecde6abbe75e7204ef3424",
      "assetIds": []
    },
    {
      "x": 204,
      "y": 406,
      "size": 1,
      "price": "1011000000000000000000",
      "reserved": "",
      "salt": "0x435a2b055ef1c8b0631282362b63476c1c3e271c56a581cfe94144360fbfa129",
      "assetIds": []
    },
    {
      "x": 204,
      "y": 407,
      "size": 1,
      "price": "1011000000000000000000",
      "reserved": "",
      "salt": "0x6a5241c9e835f6969c5106360be65e2766f3de7bc136cc2c4d36114da30044a3",
      "assetIds": []
    },
    {
      "x": 205,
      "y": 360,
      "size": 1,
      "price": "1011000000000000000000",
      "reserved": "",
      "salt": "0x47d8946c4300ad030cbd0fd1c97828188b1bd0e3a09d0d177443c807648791f6",
      "assetIds": []
    },
    {
      "x": 205,
      "y": 361,
      "size": 1,
      "price": "1011000000000000000000",
      "reserved": "",
      "salt": "0x6978d7911cb327ea1cb28348a8afda9309bdbbb4b878232b9cf89419bbe1e960",
      "assetIds": []
    },
    {
      "x": 205,
      "y": 362,
      "size": 1,
      "price": "1011000000000000000000",
      "reserved": "",
      "salt": "0x2bd3a31c8f2fb5623946389c4d777a0f94c96609fa80537d769f3f16ea81adf0",
      "assetIds": []
    },
    {
      "x": 205,
      "y": 363,
      "size": 1,
      "price": "4683000000000000000000",
      "reserved": "",
      "salt": "0x5c5451b67a167585de13521f820e8d4e705fa82b099971f868f72e9d0fc4b86e",
      "assetIds": [
        "55464657044963196816950587289035428064568320970692304673817341489687790884865",
        "55464657044963196816950587289035428064568320970692304673817341489687782494208",
        "55464657044963196816950587289035428064568320970692304673817341489687790884866",
        "55464657044963196816950587289035428064568320970692304673817341489687782494209",
        "55464657044963196816950587289035428064568320970692304673817341489687790884864"
      ]
    },
    {
      "x": 205,
      "y": 364,
      "size": 1,
      "price": "4683000000000000000000",
      "reserved": "",
      "salt": "0x55c3ee5ba6716a72d01c18a96b4039bfedf4419274942b303916aef6164679ad",
      "assetIds": [
        "55464657044963196816950587289035428064568320970692304673817341489687790884865",
        "55464657044963196816950587289035428064568320970692304673817341489687782494208",
        "55464657044963196816950587289035428064568320970692304673817341489687790884866",
        "55464657044963196816950587289035428064568320970692304673817341489687782494209",
        "55464657044963196816950587289035428064568320970692304673817341489687790884864"
      ]
    },
    {
      "x": 205,
      "y": 365,
      "size": 1,
      "price": "4683000000000000000000",
      "reserved": "",
      "salt": "0x5f6905b87eb18f4413130154f15a2ce6985defe4e76fe1caf452c8e0cbc24c92",
      "assetIds": [
        "55464657044963196816950587289035428064568320970692304673817341489687790884865",
        "55464657044963196816950587289035428064568320970692304673817341489687782494208",
        "55464657044963196816950587289035428064568320970692304673817341489687790884866",
        "55464657044963196816950587289035428064568320970692304673817341489687782494209",
        "55464657044963196816950587289035428064568320970692304673817341489687790884864"
      ]
    },
    {
      "x": 205,
      "y": 366,
      "size": 1,
      "price": "1011000000000000000000",
      "reserved": "0x7a9fe22691c811ea339d9b73150e6911a5343dca",
      "salt": "0xd9739acced431d93ceb0ecd10615bdc169f35b53676cf0caf4d1755129136ac8",
      "assetIds": []
    },
    {
      "x": 205,
      "y": 367,
      "size": 1,
      "price": "1011000000000000000000",
      "reserved": "",
      "salt": "0x7387434516b192ff6e2e070b241e603d385f0c84283a343a24b6d396842ed75c",
      "assetIds": []
    },
    {
      "x": 205,
      "y": 368,
      "size": 1,
      "price": "1011000000000000000000",
      "reserved": "",
      "salt": "0x17e72d5b5e156f4cc3b497435ec369a79e877994315fc32871b483856bd19ea7",
      "assetIds": []
    },
    {
      "x": 205,
      "y": 369,
      "size": 1,
      "price": "4683000000000000000000",
      "reserved": "",
      "salt": "0xc10d7b2729c1787d8d73fac30b5c2ecc8a2d4e298cd45847a5903eb3b382e977",
      "assetIds": [
        "55464657044963196816950587289035428064568320970692304673817341489687790884865",
        "55464657044963196816950587289035428064568320970692304673817341489687782494208",
        "55464657044963196816950587289035428064568320970692304673817341489687790884866",
        "55464657044963196816950587289035428064568320970692304673817341489687782494209",
        "55464657044963196816950587289035428064568320970692304673817341489687790884864"
      ]
    },
    {
      "x": 205,
      "y": 370,
      "size": 1,
      "price": "4683000000000000000000",
      "reserved": "",
      "salt": "0xf88fb6c2b68485adbefdbf41fe8b47445b15a03ebe06d4a404b8fd980271e50a",
      "assetIds": [
        "55464657044963196816950587289035428064568320970692304673817341489687790884865",
        "55464657044963196816950587289035428064568320970692304673817341489687782494208",
        "55464657044963196816950587289035428064568320970692304673817341489687790884866",
        "55464657044963196816950587289035428064568320970692304673817341489687782494209",
        "55464657044963196816950587289035428064568320970692304673817341489687790884864"
      ]
    },
    {
      "x": 205,
      "y": 371,
      "size": 1,
      "price": "4683000000000000000000",
      "reserved": "",
      "salt": "0xf0603ac789be496649d9d41d89c6d44694f3fc61e6ae1e40ced804c549424d46",
      "assetIds": [
        "55464657044963196816950587289035428064568320970692304673817341489687790884865",
        "55464657044963196816950587289035428064568320970692304673817341489687782494208",
        "55464657044963196816950587289035428064568320970692304673817341489687790884866",
        "55464657044963196816950587289035428064568320970692304673817341489687782494209",
        "55464657044963196816950587289035428064568320970692304673817341489687790884864"
      ]
    },
    {
      "x": 205,
      "y": 372,
      "size": 1,
      "price": "1011000000000000000000",
      "reserved": "",
      "salt": "0xaa305ac380290c6b7ce23a18ad62f6ba7730fc6a3c845f5fb61fb9c7fa3463fc",
      "assetIds": []
    },
    {
      "x": 205,
      "y": 373,
      "size": 1,
      "price": "1011000000000000000000",
      "reserved": "0x7a9fe22691c811ea339d9b73150e6911a5343dca",
      "salt": "0x360de3cd2afc092b836456486c43a2b3140e10108c2762455b631632c7226aa5",
      "assetIds": []
    },
    {
      "x": 205,
      "y": 374,
      "size": 1,
      "price": "1011000000000000000000",
      "reserved": "",
      "salt": "0xfa960cd567acce8c6095248d4b37bd5652c7a0dfe226c4d20ebfdbf7f408d281",
      "assetIds": []
    },
    {
      "x": 205,
      "y": 375,
      "size": 1,
      "price": "1011000000000000000000",
      "reserved": "0x7a9fe22691c811ea339d9b73150e6911a5343dca",
      "salt": "0xe4d8de351489ba1ddf22b1d88c6af1ee104345047d0b72fa36dbf2b29d5fe1cb",
      "assetIds": []
    },
    {
      "x": 205,
      "y": 376,
      "size": 1,
      "price": "1011000000000000000000",
      "reserved": "",
      "salt": "0xb92d196113789e7b2a392ef98a85182b7e28441af8744b31268a7df1f49e56b1",
      "assetIds": []
    },
    {
      "x": 205,
      "y": 377,
      "size": 1,
      "price": "1011000000000000000000",
      "reserved": "",
      "salt": "0x6a197ec87547809f82eae68b2a2dd3a0929c8e01eb161aa12507427288c50de0",
      "assetIds": []
    },
    {
      "x": 205,
      "y": 378,
      "size": 1,
      "price": "1011000000000000000000",
      "reserved": "",
      "salt": "0x9a27bdba8586ecd589da0bda393e20bfe9b26ea4a8edbbd03db671ad267c3307",
      "assetIds": []
    },
    {
      "x": 205,
      "y": 379,
      "size": 1,
      "price": "1011000000000000000000",
      "reserved": "",
      "salt": "0xeaaaa3f4c211b1843937849ec8aa7f5929be0ff169f84bb93fd9999d1bed5699",
      "assetIds": []
    },
    {
      "x": 205,
      "y": 380,
      "size": 1,
      "price": "1011000000000000000000",
      "reserved": "",
      "salt": "0x3df92e60a04633cb87cf27e774c2334593fe95312f89ccd92e888470c0d23dca",
      "assetIds": []
    },
    {
      "x": 205,
      "y": 381,
      "size": 1,
      "price": "1011000000000000000000",
      "reserved": "",
      "salt": "0xda28ae6cbf753026ace2f70d4e3f98763d844c5e40d226fb410c0f4035cdb2e3",
      "assetIds": []
    },
    {
      "x": 205,
      "y": 382,
      "size": 1,
      "price": "1011000000000000000000",
      "reserved": "",
      "salt": "0xbbfc020cda1e1443d73f17fb20daf70a593ba5a6ddba13c3986e502b03c4960a",
      "assetIds": []
    },
    {
      "x": 205,
      "y": 383,
      "size": 1,
      "price": "1011000000000000000000",
      "reserved": "",
      "salt": "0xf429ca71280a340d8c71fe7f72e074af8f3548d054f15365f9fb17c3bf989836",
      "assetIds": []
    },
    {
      "x": 205,
      "y": 384,
      "size": 1,
      "price": "1011000000000000000000",
      "reserved": "0x7a9fe22691c811ea339d9b73150e6911a5343dca",
      "salt": "0x22dd8cd0ad3657d084ed62fe4147726623ec11079bc9eec660c8b27acbbba0d0",
      "assetIds": []
    },
    {
      "x": 205,
      "y": 385,
      "size": 1,
      "price": "1011000000000000000000",
      "reserved": "",
      "salt": "0xfb39bb37e8f68eb5b09e6d080e38efb2ab4347e97875afcb33386a8461e1e162",
      "assetIds": []
    },
    {
      "x": 205,
      "y": 386,
      "size": 1,
      "price": "1011000000000000000000",
      "reserved": "",
      "salt": "0xf76c12b28857feafd48a0d35d0b8606e4e1f763ceab71c7e867a754b849fc67b",
      "assetIds": []
    },
    {
      "x": 205,
      "y": 387,
      "size": 1,
      "price": "1011000000000000000000",
      "reserved": "0x7a9fe22691c811ea339d9b73150e6911a5343dca",
      "salt": "0x00e45bcd280fbd62255c565e4b350791a07dcf9e64072338b706c6e9980dcff2",
      "assetIds": []
    },
    {
      "x": 205,
      "y": 388,
      "size": 1,
      "price": "1011000000000000000000",
      "reserved": "",
      "salt": "0xecf5e8f615107b2574c74530f91a4407f419edb98327b18850cd1cc80a48310e",
      "assetIds": []
    },
    {
      "x": 205,
      "y": 389,
      "size": 1,
      "price": "1011000000000000000000",
      "reserved": "0x7a9fe22691c811ea339d9b73150e6911a5343dca",
      "salt": "0xd00af2ec16ca6fa074304ecff344e8742dc8f14165ca42525492fcea52f97004",
      "assetIds": []
    },
    {
      "x": 205,
      "y": 390,
      "size": 1,
      "price": "1011000000000000000000",
      "reserved": "",
      "salt": "0xae0cb38e4adff576c11e8767c107559bf078e66dde4b1ed8a944c98e5c8ba5f5",
      "assetIds": []
    },
    {
      "x": 205,
      "y": 391,
      "size": 1,
      "price": "1011000000000000000000",
      "reserved": "",
      "salt": "0xcba0d885c782b10cd39519b57c3c3bd9ef46b6e4330498b28d2e4e906f4fb184",
      "assetIds": []
    },
    {
      "x": 205,
      "y": 392,
      "size": 1,
      "price": "1011000000000000000000",
      "reserved": "",
      "salt": "0x60c589ab70d596116c6e68da0e95b39a24301c5505c432c003f44067076501c7",
      "assetIds": []
    },
    {
      "x": 205,
      "y": 393,
      "size": 1,
      "price": "1011000000000000000000",
      "reserved": "",
      "salt": "0xe0fdff21135bab72ec476cedb323569b9ed613e5da292536e7b7307a1f740697",
      "assetIds": []
    },
    {
      "x": 205,
      "y": 394,
      "size": 1,
      "price": "1011000000000000000000",
      "reserved": "",
      "salt": "0x42157a8725ac0ad2c6982bf179fcc214b6dfe5da6a624a076ef07e5b76b753e9",
      "assetIds": []
    },
    {
      "x": 205,
      "y": 395,
      "size": 1,
      "price": "1011000000000000000000",
      "reserved": "",
      "salt": "0xd5cc911e818870ec202648f76e9f0c57f0b62ea4f7e0afac983773d97b226bf4",
      "assetIds": []
    },
    {
      "x": 205,
      "y": 396,
      "size": 1,
      "price": "1011000000000000000000",
      "reserved": "",
      "salt": "0x3a8075d36fdf0271939cf31532ff5f1430c87fbc6e10d60e6235e79a57378010",
      "assetIds": []
    },
    {
      "x": 205,
      "y": 397,
      "size": 1,
      "price": "1011000000000000000000",
      "reserved": "",
      "salt": "0x2ae9aa60a11ab75b92d0ca7f7ca78601bba2b506616126f817afdf0f907c7c66",
      "assetIds": []
    },
    {
      "x": 205,
      "y": 398,
      "size": 1,
      "price": "1011000000000000000000",
      "reserved": "0x7a9fe22691c811ea339d9b73150e6911a5343dca",
      "salt": "0xbf9be9d7e1f156e2cbdcce53a0940ba73e77efa590c7f4e3d976a316cef2c002",
      "assetIds": []
    },
    {
      "x": 205,
      "y": 399,
      "size": 1,
      "price": "1011000000000000000000",
      "reserved": "",
      "salt": "0x739d3c2d3921fc01be91bfa5225ed1c2e6e22067582d685339a35e56387aa0ee",
      "assetIds": []
    },
    {
      "x": 205,
      "y": 400,
      "size": 1,
      "price": "1011000000000000000000",
      "reserved": "",
      "salt": "0xc8a5ceefd23adf2098ea5923a577377dbdac325c5abb2556cb3267c4877dea96",
      "assetIds": []
    },
    {
      "x": 205,
      "y": 401,
      "size": 1,
      "price": "1011000000000000000000",
      "reserved": "0x7a9fe22691c811ea339d9b73150e6911a5343dca",
      "salt": "0xdedcea40fcd1f598e797307a06521f2083b8a99ad9f278912df8069668930fa9",
      "assetIds": []
    },
    {
      "x": 205,
      "y": 402,
      "size": 1,
      "price": "1011000000000000000000",
      "reserved": "",
      "salt": "0x1a9f8ee4779864ead8367cdc733746e89f9fa85ab9695dd270d47bc2c7303542",
      "assetIds": []
    },
    {
      "x": 205,
      "y": 403,
      "size": 1,
      "price": "1011000000000000000000",
      "reserved": "",
      "salt": "0xe1c29875a62e0b69324a01f3b7afd0698e2e94ef9e99293cce3eb212d880f988",
      "assetIds": []
    },
    {
      "x": 205,
      "y": 404,
      "size": 1,
      "price": "1011000000000000000000",
      "reserved": "",
      "salt": "0x92490dacbf1df4aea52e16daa83aa46c14b83831ee8fcc9ede3d723314df76c4",
      "assetIds": []
    },
    {
      "x": 205,
      "y": 405,
      "size": 1,
      "price": "1011000000000000000000",
      "reserved": "",
      "salt": "0x6b02a080d9a2f68692281b38402f791790dfe61826a6561c23cd90850a37c7eb",
      "assetIds": []
    },
    {
      "x": 205,
      "y": 406,
      "size": 1,
      "price": "1011000000000000000000",
      "reserved": "",
      "salt": "0xdc9752f4b5aec4006756670d2e5b1792205e68aff246a33670f6002a8195d089",
      "assetIds": []
    },
    {
      "x": 205,
      "y": 407,
      "size": 1,
      "price": "1011000000000000000000",
      "reserved": "",
      "salt": "0x73934d68aecd3c2d4b9180b2dee000b879ae9e9e4c1324eb765f617b6360fb75",
      "assetIds": []
    },
    {
      "x": 206,
      "y": 360,
      "size": 1,
      "price": "1011000000000000000000",
      "reserved": "",
      "salt": "0x5420c4ec8d529294a318a7101ccce1ac9a441be430c34c021ee86091a51cc794",
      "assetIds": []
    },
    {
      "x": 206,
      "y": 361,
      "size": 1,
      "price": "1011000000000000000000",
      "reserved": "",
      "salt": "0xba687e7123206cc17788246575110853e36785292ddd8e229d29573331929778",
      "assetIds": []
    },
    {
      "x": 206,
      "y": 362,
      "size": 1,
      "price": "1011000000000000000000",
      "reserved": "",
      "salt": "0x63d9a0a76c653e15c30bcbe432359ecd2cc09f51a30d1f59bebc73fa4c9dff40",
      "assetIds": []
    },
    {
      "x": 206,
      "y": 363,
      "size": 1,
      "price": "1011000000000000000000",
      "reserved": "",
      "salt": "0x09cb51aed9322d71bba60fb40abefc2977fde8d0be4dca601ba1ea055c165bfe",
      "assetIds": []
    },
    {
      "x": 206,
      "y": 364,
      "size": 1,
      "price": "1011000000000000000000",
      "reserved": "0x7a9fe22691c811ea339d9b73150e6911a5343dca",
      "salt": "0x0889011ecfc27ee850e6f794f3471093bd73213511afca7dc596e3185ee0abdb",
      "assetIds": []
    },
    {
      "x": 206,
      "y": 365,
      "size": 1,
      "price": "1011000000000000000000",
      "reserved": "",
      "salt": "0x3a19b6a5cda23dd4d49846f1e563183f27be02b6b0ecc7b5da426504cb6b118c",
      "assetIds": []
    },
    {
      "x": 206,
      "y": 366,
      "size": 1,
      "price": "1011000000000000000000",
      "reserved": "",
      "salt": "0xc391828b366d1d7c3dc02eeba328b590afb74b209bb6cdc36caedd6b00189518",
      "assetIds": []
    },
    {
      "x": 206,
      "y": 367,
      "size": 1,
      "price": "1011000000000000000000",
      "reserved": "",
      "salt": "0xaaeb40cabaae172a0c939e9313feb75d247dd63f87fdd6e449f436b0a0622f24",
      "assetIds": []
    },
    {
      "x": 206,
      "y": 368,
      "size": 1,
      "price": "1011000000000000000000",
      "reserved": "0x7a9fe22691c811ea339d9b73150e6911a5343dca",
      "salt": "0x761a311fa9e1f0722e1d3147e054f1e051b61d5a4013686cdd39c40ce4033ba5",
      "assetIds": []
    },
    {
      "x": 206,
      "y": 369,
      "size": 1,
      "price": "4683000000000000000000",
      "reserved": "",
      "salt": "0xf9faca3210b572708df8ae843e0ec48f20569a0ef1d687edd2d229ce55ab45e1",
      "assetIds": [
        "55464657044963196816950587289035428064568320970692304673817341489687790884865",
        "55464657044963196816950587289035428064568320970692304673817341489687782494208",
        "55464657044963196816950587289035428064568320970692304673817341489687790884866",
        "55464657044963196816950587289035428064568320970692304673817341489687782494209",
        "55464657044963196816950587289035428064568320970692304673817341489687790884864"
      ]
    },
    {
      "x": 206,
      "y": 370,
      "size": 1,
      "price": "1011000000000000000000",
      "reserved": "0x7a9fe22691c811ea339d9b73150e6911a5343dca",
      "salt": "0x08a5931893097964bb0dbc717b20d4d46aa2fdb322f9ae6feb69f7fce5a3cf3d",
      "assetIds": []
    },
    {
      "x": 206,
      "y": 371,
      "size": 1,
      "price": "1011000000000000000000",
      "reserved": "",
      "salt": "0x2f2a026ebc278dded57f9f011607a8e5b17caae43917d5a1d524a5cf666493df",
      "assetIds": []
    },
    {
      "x": 206,
      "y": 372,
      "size": 1,
      "price": "1011000000000000000000",
      "reserved": "0x7a9fe22691c811ea339d9b73150e6911a5343dca",
      "salt": "0xccd57188285d18e44d75b8e3ae2186b135619ce884335dca27ffd177abdf3ae7",
      "assetIds": []
    },
    {
      "x": 206,
      "y": 373,
      "size": 1,
      "price": "1011000000000000000000",
      "reserved": "",
      "salt": "0x20be079e67f4e16ca648c1325b7f2f2c857974d6ebef2e36e58aeeb652b43e31",
      "assetIds": []
    },
    {
      "x": 206,
      "y": 374,
      "size": 1,
      "price": "1011000000000000000000",
      "reserved": "0x7a9fe22691c811ea339d9b73150e6911a5343dca",
      "salt": "0x4a3c84c1f7cb3ec0cffda5317a54df2ba7bdf89cc8135044fac3006843b8a37c",
      "assetIds": []
    },
    {
      "x": 206,
      "y": 375,
      "size": 1,
      "price": "1011000000000000000000",
      "reserved": "",
      "salt": "0x10113d874902c3652031aafa191957ace9f3a3d64cbf5560efa1585cfbd06994",
      "assetIds": []
    },
    {
      "x": 206,
      "y": 376,
      "size": 1,
      "price": "1011000000000000000000",
      "reserved": "",
      "salt": "0x3aec2a2c2e9977ff8f65077dbe7e703bf308fb410f5909245eb29f14aed979ee",
      "assetIds": []
    },
    {
      "x": 206,
      "y": 377,
      "size": 1,
      "price": "1011000000000000000000",
      "reserved": "",
      "salt": "0x5f4ae26c9476fbd38134dbbf32db2318ac44583fbbaa1a9b745d4cf4bfdce765",
      "assetIds": []
    },
    {
      "x": 206,
      "y": 378,
      "size": 1,
      "price": "1011000000000000000000",
      "reserved": "",
      "salt": "0xc2dadc36e4efb5266f539fb2d19cf4c0c4ff8781c7961a828b67425e264f0a6e",
      "assetIds": []
    },
    {
      "x": 206,
      "y": 379,
      "size": 1,
      "price": "1011000000000000000000",
      "reserved": "0x7a9fe22691c811ea339d9b73150e6911a5343dca",
      "salt": "0xfec78575f80c516b3a4498fbf9342268c8d9fe216f82a03683eb3d4fcde16d84",
      "assetIds": []
    },
    {
      "x": 206,
      "y": 380,
      "size": 1,
      "price": "1011000000000000000000",
      "reserved": "",
      "salt": "0x6bc5511f059f3154cdc940f4882cd47d732d3d5596d8e633ed4dbc5e1ec2bae2",
      "assetIds": []
    },
    {
      "x": 206,
      "y": 381,
      "size": 1,
      "price": "1011000000000000000000",
      "reserved": "",
      "salt": "0xafd90a16ea7322601971d57442fb1750fc009bcf2b8d8cf5c69666d8d04342e2",
      "assetIds": []
    },
    {
      "x": 206,
      "y": 382,
      "size": 1,
      "price": "1011000000000000000000",
      "reserved": "0x7a9fe22691c811ea339d9b73150e6911a5343dca",
      "salt": "0xc02260cf47ee6b81d7aedef4779a3ed0ecbdc8672a14b0e2f35ee4a6d726789c",
      "assetIds": []
    },
    {
      "x": 206,
      "y": 383,
      "size": 1,
      "price": "1011000000000000000000",
      "reserved": "",
      "salt": "0xc4541570c22c0311b1c6e4177294a716f127c7be6c8f95db97acda2d100fccd1",
      "assetIds": []
    },
    {
      "x": 206,
      "y": 384,
      "size": 1,
      "price": "1011000000000000000000",
      "reserved": "",
      "salt": "0x0a5de538f3a6a13a9175484dd2d721702514468e3ddb5cc6c8013bbf3efbafb2",
      "assetIds": []
    },
    {
      "x": 206,
      "y": 385,
      "size": 1,
      "price": "1011000000000000000000",
      "reserved": "",
      "salt": "0xb26c4d90e3b4a4cd8d5b1aed50c6cdbf35bde1de080fc8e0081bf4761d62dbaa",
      "assetIds": []
    },
    {
      "x": 206,
      "y": 386,
      "size": 1,
      "price": "1011000000000000000000",
      "reserved": "",
      "salt": "0xb2c88e613bb7889ac4ac8dfa7131293ff7708379ea104e42e5ded051ddcae2ed",
      "assetIds": []
    },
    {
      "x": 206,
      "y": 387,
      "size": 1,
      "price": "1011000000000000000000",
      "reserved": "",
      "salt": "0xa58e17475a8788d4e03a002ad4ee1a92f9a947f8e35f3a1c71c9954dc6281dec",
      "assetIds": []
    },
    {
      "x": 206,
      "y": 388,
      "size": 1,
      "price": "1011000000000000000000",
      "reserved": "",
      "salt": "0x401bad4f6d02c25404ef04f933d8f823b3d3cea9b42b2b461e6661137df10693",
      "assetIds": []
    },
    {
      "x": 206,
      "y": 389,
      "size": 1,
      "price": "1011000000000000000000",
      "reserved": "",
      "salt": "0x41d44374ed9009091f9cc51195fe5560c7ba12c8f2ab40b5d53f3dd2c6848afc",
      "assetIds": []
    },
    {
      "x": 206,
      "y": 390,
      "size": 1,
      "price": "1011000000000000000000",
      "reserved": "",
      "salt": "0x754c76b12189a08f31f6d60993778406722d64e293b2212373349465dbc708a1",
      "assetIds": []
    },
    {
      "x": 206,
      "y": 391,
      "size": 1,
      "price": "1011000000000000000000",
      "reserved": "",
      "salt": "0xd751788eab133289562eda8405103cb1fd1845d5fda3495768384291777449a1",
      "assetIds": []
    },
    {
      "x": 206,
      "y": 392,
      "size": 1,
      "price": "1011000000000000000000",
      "reserved": "",
      "salt": "0xbd6311448ecb0f6feea32174fd1a625a5a58ff8464c09a6a407fc75b4717b6a7",
      "assetIds": []
    },
    {
      "x": 206,
      "y": 393,
      "size": 1,
      "price": "1011000000000000000000",
      "reserved": "",
      "salt": "0x7d463b2e73c100b055a7f81b356faf54627f5a040455b5ceccdcc7e59ee8bb19",
      "assetIds": []
    },
    {
      "x": 206,
      "y": 394,
      "size": 1,
      "price": "1011000000000000000000",
      "reserved": "0x7a9fe22691c811ea339d9b73150e6911a5343dca",
      "salt": "0x0cbc3d76f36b074a33d5262fd1c54d0e52c4914f1f3770f57551ae1e20e8eb9a",
      "assetIds": []
    },
    {
      "x": 206,
      "y": 395,
      "size": 1,
      "price": "1011000000000000000000",
      "reserved": "0x7a9fe22691c811ea339d9b73150e6911a5343dca",
      "salt": "0x8f1d2887d886ff729295929ecac6cf8bdbafb225ae1fc31bec732cb3d016e09b",
      "assetIds": []
    },
    {
      "x": 206,
      "y": 396,
      "size": 1,
      "price": "1011000000000000000000",
      "reserved": "",
      "salt": "0xbb434bc48b8870932cbedd10bcda2bc851730d3613436856b20dae941d5e46e7",
      "assetIds": []
    },
    {
      "x": 206,
      "y": 397,
      "size": 1,
      "price": "4683000000000000000000",
      "reserved": "",
      "salt": "0x8debbca50e231e21df10148856abd9687295e0a76949008c4632d25d0632643a",
      "assetIds": [
        "55464657044963196816950587289035428064568320970692304673817341489687790884865",
        "55464657044963196816950587289035428064568320970692304673817341489687782494208",
        "55464657044963196816950587289035428064568320970692304673817341489687790884866",
        "55464657044963196816950587289035428064568320970692304673817341489687782494209",
        "55464657044963196816950587289035428064568320970692304673817341489687790884864"
      ]
    },
    {
      "x": 206,
      "y": 398,
      "size": 1,
      "price": "1011000000000000000000",
      "reserved": "",
      "salt": "0xf2ca800f34e8ef576ec1d809bd814a2d46cee29bcf9d3753d9e65f9a7b9f3dde",
      "assetIds": []
    },
    {
      "x": 206,
      "y": 399,
      "size": 1,
      "price": "1011000000000000000000",
      "reserved": "0x7a9fe22691c811ea339d9b73150e6911a5343dca",
      "salt": "0xe20171fb78d615e2c97cf1c5f7f255a3913e04f016dbefaabf4bbf96a6fd4c00",
      "assetIds": []
    },
    {
      "x": 206,
      "y": 400,
      "size": 1,
      "price": "1011000000000000000000",
      "reserved": "",
      "salt": "0xbb644fb785dfcbcb3b68be7fb5971022a9c29d61db7df89c089410f2ad74b421",
      "assetIds": []
    },
    {
      "x": 206,
      "y": 401,
      "size": 1,
      "price": "1011000000000000000000",
      "reserved": "0x7a9fe22691c811ea339d9b73150e6911a5343dca",
      "salt": "0xaa4015dbeddcdb291627aff214d1b7829de9ae4de36051f830e26946d1b95cb7",
      "assetIds": []
    },
    {
      "x": 206,
      "y": 402,
      "size": 1,
      "price": "1011000000000000000000",
      "reserved": "0x7a9fe22691c811ea339d9b73150e6911a5343dca",
      "salt": "0x63a3afc17b8fec02d1c1f4f6ba6b4f1da4b9a31b2c7583f7879baf317b81af2e",
      "assetIds": []
    },
    {
      "x": 206,
      "y": 403,
      "size": 1,
      "price": "1011000000000000000000",
      "reserved": "",
      "salt": "0xeab21d43a8ff7ca36fcbef74d1f13feb5308c34a4bc0b4ae79911e7ccbd58243",
      "assetIds": []
    },
    {
      "x": 206,
      "y": 404,
      "size": 1,
      "price": "1011000000000000000000",
      "reserved": "0x7a9fe22691c811ea339d9b73150e6911a5343dca",
      "salt": "0x6e18b92eade8ecf49da7c3cc87f1e73580f2a64e726d73c907edbdd9a28f4d40",
      "assetIds": []
    },
    {
      "x": 206,
      "y": 405,
      "size": 1,
      "price": "1011000000000000000000",
      "reserved": "",
      "salt": "0x84c1ebf1578e9d3186251dd98110f31907febf1d6adf0388f8c628940373ec92",
      "assetIds": []
    },
    {
      "x": 206,
      "y": 406,
      "size": 1,
      "price": "1011000000000000000000",
      "reserved": "",
      "salt": "0x423f8487c463e236bead537ab2b2e7571f722bf8f566431e25eb9a92f0f9cb94",
      "assetIds": []
    },
    {
      "x": 206,
      "y": 407,
      "size": 1,
      "price": "1011000000000000000000",
      "reserved": "",
      "salt": "0x6366014c41efcf2cf88fe371300983a02659190edf2f11a863c1b51ae323da78",
      "assetIds": []
    },
    {
      "x": 207,
      "y": 359,
      "size": 1,
      "price": "1011000000000000000000",
      "reserved": "",
      "salt": "0x97ea93f6bc3ccf63b747b2116a2347c752420c549bd854f805ef38d0e054b0f4",
      "assetIds": []
    },
    {
      "x": 207,
      "y": 360,
      "size": 1,
      "price": "1011000000000000000000",
      "reserved": "",
      "salt": "0xcecab782b31570994eff37cab15a14dffc834de35b3e2d45301dca27b91ca10f",
      "assetIds": []
    },
    {
      "x": 207,
      "y": 361,
      "size": 1,
      "price": "1011000000000000000000",
      "reserved": "",
      "salt": "0x018705df2b3545d1c397a9798052f8d2f295894bd2a80f18863148700e2501f8",
      "assetIds": []
    },
    {
      "x": 207,
      "y": 362,
      "size": 1,
      "price": "1011000000000000000000",
      "reserved": "",
      "salt": "0x22090495040e151cb4abd13b972c517ae24c7e83cda62a25ae28869663dc71c4",
      "assetIds": []
    },
    {
      "x": 207,
      "y": 363,
      "size": 1,
      "price": "1011000000000000000000",
      "reserved": "",
      "salt": "0x11f24f5f9e66deeedbe5ec48e10968764f231b9d60898f6f05169b115baf0b73",
      "assetIds": []
    },
    {
      "x": 207,
      "y": 364,
      "size": 1,
      "price": "1011000000000000000000",
      "reserved": "",
      "salt": "0xf70a00504215cd02cb053ea961226c1f5bd1e7216a12bc3257daf136fd8395ec",
      "assetIds": []
    },
    {
      "x": 207,
      "y": 365,
      "size": 1,
      "price": "1011000000000000000000",
      "reserved": "",
      "salt": "0xb909616c0cc4e12e27d8952468abbee663cc11bb580710e3532ca1a24fa115b2",
      "assetIds": []
    },
    {
      "x": 207,
      "y": 366,
      "size": 1,
      "price": "1011000000000000000000",
      "reserved": "",
      "salt": "0x0641bd98e2b4092c0b32004ece407368144af10f0c1471cb95769eedcccfed28",
      "assetIds": []
    },
    {
      "x": 207,
      "y": 367,
      "size": 1,
      "price": "1011000000000000000000",
      "reserved": "",
      "salt": "0x601103d08070f71bfa0a5298e454431ecc1e47c5c95d303bd579b25fe77ce520",
      "assetIds": []
    },
    {
      "x": 207,
      "y": 368,
      "size": 1,
      "price": "1011000000000000000000",
      "reserved": "",
      "salt": "0x3f0bc4028cbf21483cef8666ddc2f1bc6de845cc4960a49a0a175ea4ce59dd41",
      "assetIds": []
    },
    {
      "x": 207,
      "y": 369,
      "size": 1,
      "price": "1011000000000000000000",
      "reserved": "",
      "salt": "0xc937c1746c53add38f394f5a8441294dc74b59e127125a5ddc5920f6756d8fd5",
      "assetIds": []
    },
    {
      "x": 207,
      "y": 370,
      "size": 1,
      "price": "1011000000000000000000",
      "reserved": "",
      "salt": "0xa7ce6ddf49ed0830368217ba20b64496e78666a6d2995bffccfd3042435ab021",
      "assetIds": []
    },
    {
      "x": 207,
      "y": 371,
      "size": 1,
      "price": "1011000000000000000000",
      "reserved": "",
      "salt": "0xf2955eaf26e1269d25bab77fcaea89e7840ae7add5c789778f77c877d6a5b00f",
      "assetIds": []
    },
    {
      "x": 207,
      "y": 372,
      "size": 1,
      "price": "4683000000000000000000",
      "reserved": "",
      "salt": "0x9466145b975d510d88f2f3c1bbf45ad4f46d675553678e5c6a2d185c0aec00ff",
      "assetIds": [
        "55464657044963196816950587289035428064568320970692304673817341489687790884865",
        "55464657044963196816950587289035428064568320970692304673817341489687782494208",
        "55464657044963196816950587289035428064568320970692304673817341489687790884866",
        "55464657044963196816950587289035428064568320970692304673817341489687782494209",
        "55464657044963196816950587289035428064568320970692304673817341489687790884864"
      ]
    },
    {
      "x": 207,
      "y": 373,
      "size": 1,
      "price": "1011000000000000000000",
      "reserved": "",
      "salt": "0xe555e80d1472a05739e28a3178378ad3ea12d710dfa1c9b8e1867c76b2bcbcf9",
      "assetIds": []
    },
    {
      "x": 207,
      "y": 374,
      "size": 1,
      "price": "1011000000000000000000",
      "reserved": "",
      "salt": "0x5e711fd9d6a2d21001ea2a7f18da4ab5150b4ef555de3406f70afc0ac23e6cf8",
      "assetIds": []
    },
    {
      "x": 207,
      "y": 375,
      "size": 1,
      "price": "1011000000000000000000",
      "reserved": "",
      "salt": "0x2834143163189a2697483dcbb291da9ece533e6354b01003ea454feec7118142",
      "assetIds": []
    },
    {
      "x": 207,
      "y": 376,
      "size": 1,
      "price": "1011000000000000000000",
      "reserved": "",
      "salt": "0x0889ac9623314d52e3e9563af18c960f27a189b07e3b611b8575340df7fed5de",
      "assetIds": []
    },
    {
      "x": 207,
      "y": 377,
      "size": 1,
      "price": "1011000000000000000000",
      "reserved": "0x7a9fe22691c811ea339d9b73150e6911a5343dca",
      "salt": "0x85e81a751ba9c6ddf8455178fabc5fb2d3ae5978b54a6400481ac001108977d9",
      "assetIds": []
    },
    {
      "x": 207,
      "y": 378,
      "size": 1,
      "price": "1011000000000000000000",
      "reserved": "",
      "salt": "0xea708e7e8aebab62ca69dbfd40ae4c0228cd55972fdeca293fead5f12870d21d",
      "assetIds": []
    },
    {
      "x": 207,
      "y": 379,
      "size": 1,
      "price": "1011000000000000000000",
      "reserved": "",
      "salt": "0x302ac307043b97caff2e12a2d3e5bc2f19807c4887f1c7185a6b626c1e9c65ea",
      "assetIds": []
    },
    {
      "x": 207,
      "y": 380,
      "size": 1,
      "price": "1011000000000000000000",
      "reserved": "",
      "salt": "0x49e11f9326f806f55e0d022880c132384deb1992fcee49657b428f3be0156af3",
      "assetIds": []
    },
    {
      "x": 207,
      "y": 381,
      "size": 1,
      "price": "1011000000000000000000",
      "reserved": "",
      "salt": "0x448c5f9a81e52381df13df446a10e79a8afd489391f0244dbfddb08d6b116858",
      "assetIds": []
    },
    {
      "x": 207,
      "y": 382,
      "size": 1,
      "price": "1011000000000000000000",
      "reserved": "",
      "salt": "0x195086d22b505bcd1ded42a2eaf3d3282b72d3b5c00a0aa8641c08e02343faea",
      "assetIds": []
    },
    {
      "x": 207,
      "y": 383,
      "size": 1,
      "price": "1011000000000000000000",
      "reserved": "",
      "salt": "0x7c27588aede9be9982eed9bd42a0395826b66c11fa4b9504ffeea0a7e1ed748a",
      "assetIds": []
    },
    {
      "x": 207,
      "y": 384,
      "size": 1,
      "price": "1011000000000000000000",
      "reserved": "0x7a9fe22691c811ea339d9b73150e6911a5343dca",
      "salt": "0x192b5cce6a8d40c3dd57fa1eb77ffbf3d927307305c0c52a9db6f765326bc2e1",
      "assetIds": []
    },
    {
      "x": 207,
      "y": 385,
      "size": 1,
      "price": "1011000000000000000000",
      "reserved": "",
      "salt": "0x6a6a0f9141450b4a7ac7987b2b034abac2d5fb2c412f0ee3b33fe2aa60832c7f",
      "assetIds": []
    },
    {
      "x": 207,
      "y": 386,
      "size": 1,
      "price": "1011000000000000000000",
      "reserved": "0x7a9fe22691c811ea339d9b73150e6911a5343dca",
      "salt": "0xa5fd4443c32b4fd7b9a5d3770b3c89e318fffcf219168d3027d73d149f49d4de",
      "assetIds": []
    },
    {
      "x": 207,
      "y": 387,
      "size": 1,
      "price": "1011000000000000000000",
      "reserved": "",
      "salt": "0xbf02176fba764474c9ada514b5b4fb1b9e47487fad7932bb6b41c9f561295b56",
      "assetIds": []
    },
    {
      "x": 207,
      "y": 388,
      "size": 1,
      "price": "1011000000000000000000",
      "reserved": "",
      "salt": "0x5b9e043a479333125941fe795b267d319e6c646e62d2f217eadab945fc26ce6a",
      "assetIds": []
    },
    {
      "x": 207,
      "y": 389,
      "size": 1,
      "price": "1011000000000000000000",
      "reserved": "0x7a9fe22691c811ea339d9b73150e6911a5343dca",
      "salt": "0x6e9ac975097185978826d016646667b4e61d474bc5c436116e5fd8bcc7bd07a6",
      "assetIds": []
    },
    {
      "x": 207,
      "y": 390,
      "size": 1,
      "price": "4683000000000000000000",
      "reserved": "",
      "salt": "0xf842ff08207a9c7d4ff11f7cfe6f9832a76fbc5de58d5c74084ed8c3bc053a2e",
      "assetIds": [
        "55464657044963196816950587289035428064568320970692304673817341489687790884865",
        "55464657044963196816950587289035428064568320970692304673817341489687782494208",
        "55464657044963196816950587289035428064568320970692304673817341489687790884866",
        "55464657044963196816950587289035428064568320970692304673817341489687782494209",
        "55464657044963196816950587289035428064568320970692304673817341489687790884864"
      ]
    },
    {
      "x": 207,
      "y": 391,
      "size": 1,
      "price": "1011000000000000000000",
      "reserved": "",
      "salt": "0x6d0daa9f3c392e77dc470d9713490a026735bace5cc962f373c76ce53fd081f4",
      "assetIds": []
    },
    {
      "x": 207,
      "y": 392,
      "size": 1,
      "price": "1011000000000000000000",
      "reserved": "0x7a9fe22691c811ea339d9b73150e6911a5343dca",
      "salt": "0x2cea056b78bd9eb82c5ae526f45cb17be389c4ceb4f8a676f451297a47bfb6c5",
      "assetIds": []
    },
    {
      "x": 207,
      "y": 393,
      "size": 1,
      "price": "4683000000000000000000",
      "reserved": "",
      "salt": "0xe0bef0a50a3eb6d1501f0f1c06cb62c51b1d61237601374121e1c537f12974c1",
      "assetIds": [
        "55464657044963196816950587289035428064568320970692304673817341489687790884865",
        "55464657044963196816950587289035428064568320970692304673817341489687782494208",
        "55464657044963196816950587289035428064568320970692304673817341489687790884866",
        "55464657044963196816950587289035428064568320970692304673817341489687782494209",
        "55464657044963196816950587289035428064568320970692304673817341489687790884864"
      ]
    },
    {
      "x": 207,
      "y": 394,
      "size": 1,
      "price": "4683000000000000000000",
      "reserved": "",
      "salt": "0x298657fdc1257668f85f5a713412fdaf1759112c434c63ba0c9bb43e1edd66a8",
      "assetIds": [
        "55464657044963196816950587289035428064568320970692304673817341489687790884865",
        "55464657044963196816950587289035428064568320970692304673817341489687782494208",
        "55464657044963196816950587289035428064568320970692304673817341489687790884866",
        "55464657044963196816950587289035428064568320970692304673817341489687782494209",
        "55464657044963196816950587289035428064568320970692304673817341489687790884864"
      ]
    },
    {
      "x": 207,
      "y": 395,
      "size": 1,
      "price": "1011000000000000000000",
      "reserved": "0x7a9fe22691c811ea339d9b73150e6911a5343dca",
      "salt": "0x5ffef38cf6c08e652e334978cfce6719882ce5f2d8eb10a9d19e640cec28ed54",
      "assetIds": []
    },
    {
      "x": 207,
      "y": 396,
      "size": 1,
      "price": "4683000000000000000000",
      "reserved": "",
      "salt": "0x1cca1640d6c8ba278fba2efc008c63288b40a1496939d2a1955e436a1b81621b",
      "assetIds": [
        "55464657044963196816950587289035428064568320970692304673817341489687790884865",
        "55464657044963196816950587289035428064568320970692304673817341489687782494208",
        "55464657044963196816950587289035428064568320970692304673817341489687790884866",
        "55464657044963196816950587289035428064568320970692304673817341489687782494209",
        "55464657044963196816950587289035428064568320970692304673817341489687790884864"
      ]
    },
    {
      "x": 207,
      "y": 397,
      "size": 1,
      "price": "4683000000000000000000",
      "reserved": "",
      "salt": "0x2d0426aec3f65b9dedb925f18a33f94c56640f5145368a7e9bb5820c7d71a34f",
      "assetIds": [
        "55464657044963196816950587289035428064568320970692304673817341489687790884865",
        "55464657044963196816950587289035428064568320970692304673817341489687782494208",
        "55464657044963196816950587289035428064568320970692304673817341489687790884866",
        "55464657044963196816950587289035428064568320970692304673817341489687782494209",
        "55464657044963196816950587289035428064568320970692304673817341489687790884864"
      ]
    },
    {
      "x": 207,
      "y": 398,
      "size": 1,
      "price": "1011000000000000000000",
      "reserved": "",
      "salt": "0x9889a465438fa0cd798c0a06b8f29cc0148ae9ddc56d962dc713a7b3daa76d55",
      "assetIds": []
    },
    {
      "x": 207,
      "y": 399,
      "size": 1,
      "price": "1011000000000000000000",
      "reserved": "",
      "salt": "0x659d4eb49d5b1c3024714cc102febf559e1418dadfa328289d1d39fff8ad60d2",
      "assetIds": []
    },
    {
      "x": 207,
      "y": 400,
      "size": 1,
      "price": "1011000000000000000000",
      "reserved": "",
      "salt": "0x6e3d09d55e8628381101cf230bb7367c2fc9da02dfae92071f28e81cb100a04a",
      "assetIds": []
    },
    {
      "x": 207,
      "y": 401,
      "size": 1,
      "price": "1011000000000000000000",
      "reserved": "",
      "salt": "0x923c8f39a4a146ca1a832fef8165d965365c9c201574aa2ed7eb58ded464ecc5",
      "assetIds": []
    },
    {
      "x": 207,
      "y": 405,
      "size": 1,
      "price": "1011000000000000000000",
      "reserved": "",
      "salt": "0xc4ae0997f5c9758635d18c69231ce8cf4517d731237d75597b15f74b36f893fc",
      "assetIds": []
    },
    {
      "x": 207,
      "y": 406,
      "size": 1,
      "price": "1011000000000000000000",
      "reserved": "0x7a9fe22691c811ea339d9b73150e6911a5343dca",
      "salt": "0x37966e8fc18fe409b8834cfd37ecc74087a85af374a2240058e5bb62325574c7",
      "assetIds": []
    },
    {
      "x": 207,
      "y": 407,
      "size": 1,
      "price": "1011000000000000000000",
      "reserved": "",
      "salt": "0x7a385de02a4d96f7622b9f3914a928abf2a194a5e38f9c4b03b1a7fdb380fc38",
      "assetIds": []
    },
    {
      "x": 208,
      "y": 359,
      "size": 1,
      "price": "1011000000000000000000",
      "reserved": "",
      "salt": "0xd4a4f96435f95a217a0fcb591480d514cd2616075ce7a932f635e321510fd995",
      "assetIds": []
    },
    {
      "x": 208,
      "y": 360,
      "size": 1,
      "price": "1011000000000000000000",
      "reserved": "0x7a9fe22691c811ea339d9b73150e6911a5343dca",
      "salt": "0xf20b6ce9677e2243a59d95b32417e799b4dcf3b1802ce4d4c4b888523f21efc6",
      "assetIds": []
    },
    {
      "x": 208,
      "y": 361,
      "size": 1,
      "price": "1011000000000000000000",
      "reserved": "",
      "salt": "0x1b7f41f9722ad6cc3f8d6d68026e4ef3e6f72bc8f4011579f880a8a25319cad1",
      "assetIds": []
    },
    {
      "x": 208,
      "y": 362,
      "size": 1,
      "price": "1011000000000000000000",
      "reserved": "",
      "salt": "0x4632b77a7a2d94d8e58211eaef24770f0bae173571c0de79a1221d1c9ba7ba06",
      "assetIds": []
    },
    {
      "x": 208,
      "y": 363,
      "size": 1,
      "price": "1011000000000000000000",
      "reserved": "",
      "salt": "0xa085a50b82157067f361cc3a1c6f277bfcc08c756841a2568e7d2be62400d1ef",
      "assetIds": []
    },
    {
      "x": 208,
      "y": 364,
      "size": 1,
      "price": "1011000000000000000000",
      "reserved": "",
      "salt": "0xa9126620d0f2864039a42e561fb464af606610e4a9bd3027ea4724d2ea3c2924",
      "assetIds": []
    },
    {
      "x": 208,
      "y": 365,
      "size": 1,
      "price": "1011000000000000000000",
      "reserved": "",
      "salt": "0xd25644ab7da4440dd16f2862227e0c38b492b01d55f068e892c2ef6b8074a40e",
      "assetIds": []
    },
    {
      "x": 208,
      "y": 366,
      "size": 1,
      "price": "1011000000000000000000",
      "reserved": "",
      "salt": "0xae5f5b4acaebce61b74ff3a21fca4956bf39827d63524cf88060545f6c2c1549",
      "assetIds": []
    },
    {
      "x": 208,
      "y": 367,
      "size": 1,
      "price": "1011000000000000000000",
      "reserved": "",
      "salt": "0xd9a0f65009f4cd9927cfc80bf90f382de9e2a2780a2dac6aa71a324cd2f58e3d",
      "assetIds": []
    },
    {
      "x": 208,
      "y": 368,
      "size": 1,
      "price": "1011000000000000000000",
      "reserved": "",
      "salt": "0xfd1d0a6579df283c8ec592ee612fe75210a38d66925e907ce741ef84b4f84468",
      "assetIds": []
    },
    {
      "x": 208,
      "y": 369,
      "size": 1,
      "price": "1011000000000000000000",
      "reserved": "",
      "salt": "0x5dc7c67d8eb3cc9cb77d774bbb9dbe7b1928cba42bf7c2679d496cb314ad0b48",
      "assetIds": []
    },
    {
      "x": 208,
      "y": 370,
      "size": 1,
      "price": "1011000000000000000000",
      "reserved": "0x7a9fe22691c811ea339d9b73150e6911a5343dca",
      "salt": "0xbc39b142cb7c952bc1c6d84b152bb2b909d727f9d9ab86fb8f2893628a1bc78a",
      "assetIds": []
    },
    {
      "x": 208,
      "y": 371,
      "size": 1,
      "price": "1011000000000000000000",
      "reserved": "",
      "salt": "0xb0d47d4dd74fc45ee552fbfb9d34164c797ca6d7d95e35351b88c691bb3e0cea",
      "assetIds": []
    },
    {
      "x": 208,
      "y": 372,
      "size": 1,
      "price": "4683000000000000000000",
      "reserved": "",
      "salt": "0x497ddb979426caa689d84e66e31ec121ba7ebe2e6565667d3b94ab9b67b13ee0",
      "assetIds": [
        "55464657044963196816950587289035428064568320970692304673817341489687790884865",
        "55464657044963196816950587289035428064568320970692304673817341489687782494208",
        "55464657044963196816950587289035428064568320970692304673817341489687790884866",
        "55464657044963196816950587289035428064568320970692304673817341489687782494209",
        "55464657044963196816950587289035428064568320970692304673817341489687790884864"
      ]
    },
    {
      "x": 208,
      "y": 373,
      "size": 1,
      "price": "1011000000000000000000",
      "reserved": "",
      "salt": "0x9d44cacb881233f81b7b6d0df520bf06e9d6374cfb0f60d0a6bfcd2eaac3ddd4",
      "assetIds": []
    },
    {
      "x": 208,
      "y": 374,
      "size": 1,
      "price": "1011000000000000000000",
      "reserved": "",
      "salt": "0x382df4bc937c52a8018865b56ea57d34cdbd848b6ff30458b15839a176ad151b",
      "assetIds": []
    },
    {
      "x": 208,
      "y": 375,
      "size": 1,
      "price": "1011000000000000000000",
      "reserved": "0x7a9fe22691c811ea339d9b73150e6911a5343dca",
      "salt": "0xbda67c726f9c88be6902c020ec23f352baddee4e47cfd33f062c979f8a921062",
      "assetIds": []
    },
    {
      "x": 208,
      "y": 376,
      "size": 1,
      "price": "1011000000000000000000",
      "reserved": "",
      "salt": "0x988eac64a6dd4f51536fe20424643864226cd99af22b7cfdfa5eae5be8b0c982",
      "assetIds": []
    },
    {
      "x": 208,
      "y": 377,
      "size": 1,
      "price": "1011000000000000000000",
      "reserved": "",
      "salt": "0x4033d4d60c4a49620f0d1286242f4f2079a91c6bd4d8abe178abc6c0a25ab1d9",
      "assetIds": []
    },
    {
      "x": 208,
      "y": 378,
      "size": 1,
      "price": "1011000000000000000000",
      "reserved": "",
      "salt": "0x862c28de4b2e00f23532e2591bf0b0c2139a479745e4798568595cdfb1147bbf",
      "assetIds": []
    },
    {
      "x": 208,
      "y": 379,
      "size": 1,
      "price": "1011000000000000000000",
      "reserved": "",
      "salt": "0x58b82b260489c0441879de2bb47c74adcbb0a1c0cc4879520f6baff3f7a01c98",
      "assetIds": []
    },
    {
      "x": 208,
      "y": 380,
      "size": 1,
      "price": "1011000000000000000000",
      "reserved": "0x7a9fe22691c811ea339d9b73150e6911a5343dca",
      "salt": "0x9e1a74dd75ea330798493e767b07403f2518a8fd11b6ac9dc342d676189b8477",
      "assetIds": []
    },
    {
      "x": 208,
      "y": 381,
      "size": 1,
      "price": "1011000000000000000000",
      "reserved": "",
      "salt": "0x9cb7b80d2de78d0371643aadafc5745af979bfbdc1bdf93830fe551002600f37",
      "assetIds": []
    },
    {
      "x": 208,
      "y": 382,
      "size": 1,
      "price": "1011000000000000000000",
      "reserved": "",
      "salt": "0x1e8eeaf1c88cf5cc224bbba79d96a5659979df7c38817636b089e460730238fa",
      "assetIds": []
    },
    {
      "x": 208,
      "y": 383,
      "size": 1,
      "price": "1011000000000000000000",
      "reserved": "",
      "salt": "0x868ab7151bfb57b49233bc6bef74a31d0c459c05bee4aa8786c7715342e660ff",
      "assetIds": []
    },
    {
      "x": 208,
      "y": 384,
      "size": 1,
      "price": "1011000000000000000000",
      "reserved": "",
      "salt": "0x440f296da044a743d7d0ec59bbaef64fe8829176bf96db6b859e4dfab6d56cac",
      "assetIds": []
    },
    {
      "x": 208,
      "y": 385,
      "size": 1,
      "price": "1011000000000000000000",
      "reserved": "",
      "salt": "0x3cc5375be9bcc342c472b0fd4058b037eedb50e66195041400a0de1aff47a3c3",
      "assetIds": []
    },
    {
      "x": 208,
      "y": 386,
      "size": 1,
      "price": "1011000000000000000000",
      "reserved": "",
      "salt": "0x11eb6fe28d5efe055c470f91f688682ce3a292a71ba0f6230dc8d544f9f0406d",
      "assetIds": []
    },
    {
      "x": 208,
      "y": 387,
      "size": 1,
      "price": "1011000000000000000000",
      "reserved": "",
      "salt": "0xd738da43073f7dccd56630f10b6eb0f7dc04a677998477a8c208efa57150c037",
      "assetIds": []
    },
    {
      "x": 208,
      "y": 388,
      "size": 1,
      "price": "1011000000000000000000",
      "reserved": "",
      "salt": "0xcc2a21874bb8e47f43f48d0db4f71070fecd1866384be5dd027ce8d150abc5ee",
      "assetIds": []
    },
    {
      "x": 208,
      "y": 389,
      "size": 1,
      "price": "1011000000000000000000",
      "reserved": "0x7a9fe22691c811ea339d9b73150e6911a5343dca",
      "salt": "0x25f5735a33cf2610781e57fe47ca511f5281a70a30281079fff0c99f0975af50",
      "assetIds": []
    },
    {
      "x": 208,
      "y": 390,
      "size": 1,
      "price": "4683000000000000000000",
      "reserved": "",
      "salt": "0x9f1720b47bfb72d41f8fd53792c0cbf72543cffc0fb93bb3b3de7f64a66ca860",
      "assetIds": [
        "55464657044963196816950587289035428064568320970692304673817341489687790884865",
        "55464657044963196816950587289035428064568320970692304673817341489687782494208",
        "55464657044963196816950587289035428064568320970692304673817341489687790884866",
        "55464657044963196816950587289035428064568320970692304673817341489687782494209",
        "55464657044963196816950587289035428064568320970692304673817341489687790884864"
      ]
    },
    {
      "x": 208,
      "y": 391,
      "size": 1,
      "price": "4683000000000000000000",
      "reserved": "",
      "salt": "0x7aaad9e73206f27184c4785d7f6e01bcead26d818b6e1e2ceb31e0c17c309f15",
      "assetIds": [
        "55464657044963196816950587289035428064568320970692304673817341489687790884865",
        "55464657044963196816950587289035428064568320970692304673817341489687782494208",
        "55464657044963196816950587289035428064568320970692304673817341489687790884866",
        "55464657044963196816950587289035428064568320970692304673817341489687782494209",
        "55464657044963196816950587289035428064568320970692304673817341489687790884864"
      ]
    },
    {
      "x": 208,
      "y": 392,
      "size": 1,
      "price": "4683000000000000000000",
      "reserved": "",
      "salt": "0xc93abb06805503214b3b090142b1025acf6fd7eeb38db80fe27dbe40d77155f6",
      "assetIds": [
        "55464657044963196816950587289035428064568320970692304673817341489687790884865",
        "55464657044963196816950587289035428064568320970692304673817341489687782494208",
        "55464657044963196816950587289035428064568320970692304673817341489687790884866",
        "55464657044963196816950587289035428064568320970692304673817341489687782494209",
        "55464657044963196816950587289035428064568320970692304673817341489687790884864"
      ]
    },
    {
      "x": 208,
      "y": 393,
      "size": 1,
      "price": "1011000000000000000000",
      "reserved": "0x7a9fe22691c811ea339d9b73150e6911a5343dca",
      "salt": "0x736cf6e8644c7a974ca82db668a783f7d3e17dbb2c1798bc41a4e0874990b966",
      "assetIds": []
    },
    {
      "x": 208,
      "y": 394,
      "size": 1,
      "price": "1011000000000000000000",
      "reserved": "0x7a9fe22691c811ea339d9b73150e6911a5343dca",
      "salt": "0x40748655bdc942cfa891fd63b494fac17fa6a1232adb4985286c8d575f0fe3f2",
      "assetIds": []
    },
    {
      "x": 208,
      "y": 395,
      "size": 1,
      "price": "4683000000000000000000",
      "reserved": "",
      "salt": "0x07997d5ed642a9a54f5c9edc9b1ea8ce0df6ce5d50b8b59da4cd4980cda8821d",
      "assetIds": [
        "55464657044963196816950587289035428064568320970692304673817341489687790884865",
        "55464657044963196816950587289035428064568320970692304673817341489687782494208",
        "55464657044963196816950587289035428064568320970692304673817341489687790884866",
        "55464657044963196816950587289035428064568320970692304673817341489687782494209",
        "55464657044963196816950587289035428064568320970692304673817341489687790884864"
      ]
    },
    {
      "x": 208,
      "y": 396,
      "size": 1,
      "price": "4683000000000000000000",
      "reserved": "",
      "salt": "0x782b19a795af4d58ab5f854397d3ac622536eac6e8c1cda19437e57b89c3630c",
      "assetIds": [
        "55464657044963196816950587289035428064568320970692304673817341489687790884865",
        "55464657044963196816950587289035428064568320970692304673817341489687782494208",
        "55464657044963196816950587289035428064568320970692304673817341489687790884866",
        "55464657044963196816950587289035428064568320970692304673817341489687782494209",
        "55464657044963196816950587289035428064568320970692304673817341489687790884864"
      ]
    },
    {
      "x": 208,
      "y": 397,
      "size": 1,
      "price": "4683000000000000000000",
      "reserved": "",
      "salt": "0x95982352ef0c8b5b19a4bf3b2d09869fa8f3fd3d24b45f5ea24267b7dabb398e",
      "assetIds": [
        "55464657044963196816950587289035428064568320970692304673817341489687790884865",
        "55464657044963196816950587289035428064568320970692304673817341489687782494208",
        "55464657044963196816950587289035428064568320970692304673817341489687790884866",
        "55464657044963196816950587289035428064568320970692304673817341489687782494209",
        "55464657044963196816950587289035428064568320970692304673817341489687790884864"
      ]
    },
    {
      "x": 208,
      "y": 398,
      "size": 1,
      "price": "1011000000000000000000",
      "reserved": "0x7a9fe22691c811ea339d9b73150e6911a5343dca",
      "salt": "0xd554239d3712b14c34e1e83cea0b2c76ce2d39e7e823f6e17dc232b5c93acd78",
      "assetIds": []
    },
    {
      "x": 208,
      "y": 399,
      "size": 1,
      "price": "1011000000000000000000",
      "reserved": "",
      "salt": "0x2ca66d98b08c7df3d6d1e482f3555cb836739560c119f27dd0b57443f1ce005b",
      "assetIds": []
    },
    {
      "x": 208,
      "y": 400,
      "size": 1,
      "price": "1011000000000000000000",
      "reserved": "0x7a9fe22691c811ea339d9b73150e6911a5343dca",
      "salt": "0x150589b94f24a01455016a351c3fc4e7993922e256e698255fc08d56452810a5",
      "assetIds": []
    },
    {
      "x": 208,
      "y": 401,
      "size": 1,
      "price": "1011000000000000000000",
      "reserved": "",
      "salt": "0x26af3136206e47731015726da6e656d9810e57e4e1e32d7cd2c3c79aced960b5",
      "assetIds": []
    },
    {
      "x": 208,
      "y": 405,
      "size": 1,
      "price": "1011000000000000000000",
      "reserved": "",
      "salt": "0x5bfcef78cef55f4ca5128ccd8678f9c3c7aad0c297066fac9e4a0aa4aba3ce0b",
      "assetIds": []
    },
    {
      "x": 208,
      "y": 406,
      "size": 1,
      "price": "1011000000000000000000",
      "reserved": "",
      "salt": "0x8be53a18fad98d7c6588154bf17e69933b1262c255ef578374f455e70b6cb25c",
      "assetIds": []
    },
    {
      "x": 208,
      "y": 407,
      "size": 1,
      "price": "1011000000000000000000",
      "reserved": "",
      "salt": "0x15644c599422de51361d8b9fd13bc021d5ee5997a6f335e782d211d2897f47c4",
      "assetIds": []
    },
    {
      "x": 209,
      "y": 359,
      "size": 1,
      "price": "1011000000000000000000",
      "reserved": "",
      "salt": "0x632091a3962ed4144aadb3844a530cc943a232c0eb8268b633b7e1226cddba42",
      "assetIds": []
    },
    {
      "x": 209,
      "y": 360,
      "size": 1,
      "price": "1011000000000000000000",
      "reserved": "",
      "salt": "0xb5c5c78d5f9d1c21c51630ff93171f5c2770adc67c4846f0a2c52aab9dc8fe01",
      "assetIds": []
    },
    {
      "x": 209,
      "y": 361,
      "size": 1,
      "price": "1011000000000000000000",
      "reserved": "",
      "salt": "0x1dd365ba9ba2a1afd99d656d24c17b7012e1027a44e09ad009db270b74ba8ab4",
      "assetIds": []
    },
    {
      "x": 209,
      "y": 362,
      "size": 1,
      "price": "1011000000000000000000",
      "reserved": "",
      "salt": "0x29aa9d847ca06fe9a1fe2af88d99eeaee3123523d87a1d5f591a90da5368554b",
      "assetIds": []
    },
    {
      "x": 209,
      "y": 363,
      "size": 1,
      "price": "1011000000000000000000",
      "reserved": "0x7a9fe22691c811ea339d9b73150e6911a5343dca",
      "salt": "0x87e571296570230921e8588c42b8a639d466e3f532c075966bec695344767595",
      "assetIds": []
    },
    {
      "x": 209,
      "y": 364,
      "size": 1,
      "price": "1011000000000000000000",
      "reserved": "",
      "salt": "0xb9cebc069ab0661f4a2f6ea9a8677d55c97b89afd01dd87477f2218af53cf934",
      "assetIds": []
    },
    {
      "x": 209,
      "y": 365,
      "size": 1,
      "price": "1011000000000000000000",
      "reserved": "",
      "salt": "0xb3ec0458427d0c3a453c6131c3ce9dfdb7a65fad3590c3348c77967f4b29bb91",
      "assetIds": []
    },
    {
      "x": 209,
      "y": 366,
      "size": 1,
      "price": "1011000000000000000000",
      "reserved": "0x7a9fe22691c811ea339d9b73150e6911a5343dca",
      "salt": "0xae58fd34cfce8bc9f913615dc0185f650cba63b89e887c312e8f4823f155f2e2",
      "assetIds": []
    },
    {
      "x": 209,
      "y": 367,
      "size": 1,
      "price": "1011000000000000000000",
      "reserved": "",
      "salt": "0x0a7e30ceba8bc400a669748f3fbb7c6064f86f492398ee6c62ffe16d3d1ffae1",
      "assetIds": []
    },
    {
      "x": 209,
      "y": 368,
      "size": 1,
      "price": "1011000000000000000000",
      "reserved": "",
      "salt": "0x961188cbc6d1029a4406fdde7edba769d7fa7fa9d2ea82c1147d18cbf88a0adf",
      "assetIds": []
    },
    {
      "x": 209,
      "y": 369,
      "size": 1,
      "price": "1011000000000000000000",
      "reserved": "",
      "salt": "0xd718a2ad4ca234cedececc6f46071fa0aca126a2474b2ddf9fb5db0af101dd28",
      "assetIds": []
    },
    {
      "x": 209,
      "y": 370,
      "size": 1,
      "price": "1011000000000000000000",
      "reserved": "",
      "salt": "0x3784a7a8ddcf63d06118aa7aa6b79121b6616a3661bee6b382400ef7f4cf5f62",
      "assetIds": []
    },
    {
      "x": 209,
      "y": 371,
      "size": 1,
      "price": "1011000000000000000000",
      "reserved": "",
      "salt": "0x70634d4567c33108859783f92cbd8c1c08fb4298c967768666262723a33319d2",
      "assetIds": []
    },
    {
      "x": 209,
      "y": 372,
      "size": 1,
      "price": "4683000000000000000000",
      "reserved": "",
      "salt": "0x376ea32c2e6bbcd7201813b6d7868738235f715959bef6da6988f2ca2467c5bd",
      "assetIds": [
        "55464657044963196816950587289035428064568320970692304673817341489687790884865",
        "55464657044963196816950587289035428064568320970692304673817341489687782494208",
        "55464657044963196816950587289035428064568320970692304673817341489687790884866",
        "55464657044963196816950587289035428064568320970692304673817341489687782494209",
        "55464657044963196816950587289035428064568320970692304673817341489687790884864"
      ]
    },
    {
      "x": 209,
      "y": 373,
      "size": 1,
      "price": "1011000000000000000000",
      "reserved": "",
      "salt": "0x1b5043465992f90e6df66db28ad8d8131d29834b81a9a8ee3616b032dfeaebef",
      "assetIds": []
    },
    {
      "x": 209,
      "y": 374,
      "size": 1,
      "price": "1011000000000000000000",
      "reserved": "",
      "salt": "0x5c35883ae8324d72603d1d1df23e0282362084e2228dfcee3ce0cb628e16f254",
      "assetIds": []
    },
    {
      "x": 209,
      "y": 375,
      "size": 1,
      "price": "1011000000000000000000",
      "reserved": "",
      "salt": "0xdad66e5d9a1628efe2b5f86115a3de0aa154c5177fb49da6f5418dd1eec52308",
      "assetIds": []
    },
    {
      "x": 209,
      "y": 376,
      "size": 1,
      "price": "1011000000000000000000",
      "reserved": "",
      "salt": "0xc308bb47ba54bcc3168af9bd10e81ba643c15553f9416d3f52627faa2d7db3aa",
      "assetIds": []
    },
    {
      "x": 209,
      "y": 377,
      "size": 1,
      "price": "1011000000000000000000",
      "reserved": "",
      "salt": "0x575da621d7ebd59676a257d7fa6e43cbea421d36f8490599c4331fd5f6319c2b",
      "assetIds": []
    },
    {
      "x": 209,
      "y": 378,
      "size": 1,
      "price": "1011000000000000000000",
      "reserved": "",
      "salt": "0xa521886d4b533d57bc1ce4b238d68ec9c7256bacc80dba342edca6fb7fd0a9f0",
      "assetIds": []
    },
    {
      "x": 209,
      "y": 379,
      "size": 1,
      "price": "1011000000000000000000",
      "reserved": "",
      "salt": "0xcccdbd3d64244c62b0000316a1121f3efa92ea8f89a9d59d483c3c634524bcf1",
      "assetIds": []
    },
    {
      "x": 209,
      "y": 380,
      "size": 1,
      "price": "1011000000000000000000",
      "reserved": "",
      "salt": "0x49381bf704b518b291f84abdcf81664a9bfdf3c87e7b0c002131860ae8b626fe",
      "assetIds": []
    },
    {
      "x": 209,
      "y": 381,
      "size": 1,
      "price": "1011000000000000000000",
      "reserved": "",
      "salt": "0x238d2957f1365703b45029203eb8fcf7a76b5a9cae142de58ceadefd0f221929",
      "assetIds": []
    },
    {
      "x": 209,
      "y": 382,
      "size": 1,
      "price": "1011000000000000000000",
      "reserved": "",
      "salt": "0x987d941c41ca0fd9d271e1dda7591cc6204cc98dc4d52ad0be89f7c531b8ab2c",
      "assetIds": []
    },
    {
      "x": 209,
      "y": 383,
      "size": 1,
      "price": "1011000000000000000000",
      "reserved": "0x7a9fe22691c811ea339d9b73150e6911a5343dca",
      "salt": "0xe94816fc1335a728859d7ebc0ba8de3b6ebf1a1546c0ec2865731edc07aa7d94",
      "assetIds": []
    },
    {
      "x": 209,
      "y": 384,
      "size": 1,
      "price": "1011000000000000000000",
      "reserved": "0x7a9fe22691c811ea339d9b73150e6911a5343dca",
      "salt": "0xb116d5ebbc18a6c172277c3ffa3fca0d07738c7bff95157ac07ad74121819b2e",
      "assetIds": []
    },
    {
      "x": 209,
      "y": 385,
      "size": 1,
      "price": "1011000000000000000000",
      "reserved": "",
      "salt": "0xde1518bcd1fb5e1fba075bf660be42b4517a7fe6d3be1e64b16df58c5a6ed9b2",
      "assetIds": []
    },
    {
      "x": 209,
      "y": 386,
      "size": 1,
      "price": "1011000000000000000000",
      "reserved": "",
      "salt": "0x141ca99b31009df47d12db3938da19c3f6ce203e601ef22d50760b60bc2415f6",
      "assetIds": []
    },
    {
      "x": 209,
      "y": 387,
      "size": 1,
      "price": "1011000000000000000000",
      "reserved": "",
      "salt": "0x138c3707ff87472c87e63b5d1e15722fd10f535bfe80ed1e4bc0f6e6aaa15825",
      "assetIds": []
    },
    {
      "x": 209,
      "y": 388,
      "size": 1,
      "price": "1011000000000000000000",
      "reserved": "",
      "salt": "0xc7088a322718df17cd0f0beb3596f78995591d949216c04fa183c02979b621f9",
      "assetIds": []
    },
    {
      "x": 209,
      "y": 389,
      "size": 1,
      "price": "4683000000000000000000",
      "reserved": "",
      "salt": "0x7a275c17cc683a74f5877cfc357403d055a441d522a932ac891a0b16d687a990",
      "assetIds": [
        "55464657044963196816950587289035428064568320970692304673817341489687790884865",
        "55464657044963196816950587289035428064568320970692304673817341489687782494208",
        "55464657044963196816950587289035428064568320970692304673817341489687790884866",
        "55464657044963196816950587289035428064568320970692304673817341489687782494209",
        "55464657044963196816950587289035428064568320970692304673817341489687790884864"
      ]
    },
    {
      "x": 209,
      "y": 390,
      "size": 1,
      "price": "4683000000000000000000",
      "reserved": "",
      "salt": "0xd32430d18247e7287290b65e25b4d81833c4880d4c473a9241cc6f5f25239060",
      "assetIds": [
        "55464657044963196816950587289035428064568320970692304673817341489687790884865",
        "55464657044963196816950587289035428064568320970692304673817341489687782494208",
        "55464657044963196816950587289035428064568320970692304673817341489687790884866",
        "55464657044963196816950587289035428064568320970692304673817341489687782494209",
        "55464657044963196816950587289035428064568320970692304673817341489687790884864"
      ]
    },
    {
      "x": 209,
      "y": 391,
      "size": 1,
      "price": "4683000000000000000000",
      "reserved": "",
      "salt": "0x7994ca8f05c095fcbfb6b53d2922c08637c0628ba5bd4f734c3dad4c87a019c1",
      "assetIds": [
        "55464657044963196816950587289035428064568320970692304673817341489687790884865",
        "55464657044963196816950587289035428064568320970692304673817341489687782494208",
        "55464657044963196816950587289035428064568320970692304673817341489687790884866",
        "55464657044963196816950587289035428064568320970692304673817341489687782494209",
        "55464657044963196816950587289035428064568320970692304673817341489687790884864"
      ]
    },
    {
      "x": 209,
      "y": 392,
      "size": 1,
      "price": "4683000000000000000000",
      "reserved": "",
      "salt": "0x2d198a11571e0caae30332098dd25e4006ebb9b030f634ea827d05263d2393e8",
      "assetIds": [
        "55464657044963196816950587289035428064568320970692304673817341489687790884865",
        "55464657044963196816950587289035428064568320970692304673817341489687782494208",
        "55464657044963196816950587289035428064568320970692304673817341489687790884866",
        "55464657044963196816950587289035428064568320970692304673817341489687782494209",
        "55464657044963196816950587289035428064568320970692304673817341489687790884864"
      ]
    },
    {
      "x": 209,
      "y": 393,
      "size": 1,
      "price": "4683000000000000000000",
      "reserved": "",
      "salt": "0x1807c35b8ce182e5ba31badfa3f5a82044a05cef16798c1dd64d71124a66a189",
      "assetIds": [
        "55464657044963196816950587289035428064568320970692304673817341489687790884865",
        "55464657044963196816950587289035428064568320970692304673817341489687782494208",
        "55464657044963196816950587289035428064568320970692304673817341489687790884866",
        "55464657044963196816950587289035428064568320970692304673817341489687782494209",
        "55464657044963196816950587289035428064568320970692304673817341489687790884864"
      ]
    },
    {
      "x": 209,
      "y": 394,
      "size": 1,
      "price": "4683000000000000000000",
      "reserved": "",
      "salt": "0x2de062a6b531fcf050900d0b82176b710c58362e882209748bf7ee26f2e5bc43",
      "assetIds": [
        "55464657044963196816950587289035428064568320970692304673817341489687790884865",
        "55464657044963196816950587289035428064568320970692304673817341489687782494208",
        "55464657044963196816950587289035428064568320970692304673817341489687790884866",
        "55464657044963196816950587289035428064568320970692304673817341489687782494209",
        "55464657044963196816950587289035428064568320970692304673817341489687790884864"
      ]
    },
    {
      "x": 209,
      "y": 395,
      "size": 1,
      "price": "4683000000000000000000",
      "reserved": "",
      "salt": "0x9cb26aea049081643a94696dcfd72ee36697b432a96011971b1523cb93216f06",
      "assetIds": [
        "55464657044963196816950587289035428064568320970692304673817341489687790884865",
        "55464657044963196816950587289035428064568320970692304673817341489687782494208",
        "55464657044963196816950587289035428064568320970692304673817341489687790884866",
        "55464657044963196816950587289035428064568320970692304673817341489687782494209",
        "55464657044963196816950587289035428064568320970692304673817341489687790884864"
      ]
    },
    {
      "x": 209,
      "y": 396,
      "size": 1,
      "price": "4683000000000000000000",
      "reserved": "",
      "salt": "0x6e014ec82ca7eba30723dc0d7d23dfca8471efabd266cfb598db09199031e90c",
      "assetIds": [
        "55464657044963196816950587289035428064568320970692304673817341489687790884865",
        "55464657044963196816950587289035428064568320970692304673817341489687782494208",
        "55464657044963196816950587289035428064568320970692304673817341489687790884866",
        "55464657044963196816950587289035428064568320970692304673817341489687782494209",
        "55464657044963196816950587289035428064568320970692304673817341489687790884864"
      ]
    },
    {
      "x": 209,
      "y": 397,
      "size": 1,
      "price": "1011000000000000000000",
      "reserved": "",
      "salt": "0x319d7e1c654801e9319480c6723f7cfcf4665388095fae153b56f073c5664d6b",
      "assetIds": []
    },
    {
      "x": 209,
      "y": 398,
      "size": 1,
      "price": "1011000000000000000000",
      "reserved": "",
      "salt": "0x6da3a6ed6fdb4f01b700a8782b8134264abb139ede43cbfc9f41adb1c7216c6d",
      "assetIds": []
    },
    {
      "x": 209,
      "y": 399,
      "size": 1,
      "price": "1011000000000000000000",
      "reserved": "",
      "salt": "0xe26a5ece492b10510eb7fc31ce7432cd73b13a46c4965788d36b5e0b2615d6ea",
      "assetIds": []
    },
    {
      "x": 209,
      "y": 400,
      "size": 1,
      "price": "1011000000000000000000",
      "reserved": "",
      "salt": "0x4f1434919f3f70452922c4875814fa7942ce4c90e0e7807181d0a28a8e5e4c65",
      "assetIds": []
    },
    {
      "x": 209,
      "y": 401,
      "size": 1,
      "price": "1011000000000000000000",
      "reserved": "",
      "salt": "0x361cd4d1bc192c8adaf8f12d4e7e92f0a6ec2eee22f799755a5c3699b2292416",
      "assetIds": []
    },
    {
      "x": 209,
      "y": 405,
      "size": 1,
      "price": "1011000000000000000000",
      "reserved": "",
      "salt": "0x2d1a4e6265e48918e3e36c171f3cf0a5e2d72c52a1c2674b0ed889bc9f91e048",
      "assetIds": []
    },
    {
      "x": 209,
      "y": 406,
      "size": 1,
      "price": "1011000000000000000000",
      "reserved": "",
      "salt": "0x8f972a04a15295811147dcb2dbbddbb4033021bd1aa3791af18d31970145d02f",
      "assetIds": []
    },
    {
      "x": 209,
      "y": 407,
      "size": 1,
      "price": "1011000000000000000000",
      "reserved": "",
      "salt": "0x82da5840fdeb2511180fba3d8c1c78d6fdeab81ffea9b1f0721878b50f62e573",
      "assetIds": []
    },
    {
      "x": 210,
      "y": 359,
      "size": 1,
      "price": "1011000000000000000000",
      "reserved": "",
      "salt": "0xb93362d237f4e00f9f6c48e596398fa66479b0636faa1d5107ebf34e2f16d958",
      "assetIds": []
    },
    {
      "x": 210,
      "y": 360,
      "size": 1,
      "price": "1011000000000000000000",
      "reserved": "",
      "salt": "0x483e944ccf532bee95149c090644fd0cf994bab818e88b6f4f75ce67e3a74fda",
      "assetIds": []
    },
    {
      "x": 210,
      "y": 361,
      "size": 1,
      "price": "1011000000000000000000",
      "reserved": "",
      "salt": "0x9782dfd33cd461a66a9dcd880e42232450260a93dd5bec48f7e33438df80016a",
      "assetIds": []
    },
    {
      "x": 210,
      "y": 362,
      "size": 1,
      "price": "1011000000000000000000",
      "reserved": "",
      "salt": "0x38628a5aacac585c891ace1f98d82af4c06c2f1c53668817cae180965034e2fe",
      "assetIds": []
    },
    {
      "x": 210,
      "y": 363,
      "size": 1,
      "price": "1011000000000000000000",
      "reserved": "",
      "salt": "0xbc24ad3c4d4cdf18d06e8b7176df4e10fc36ba9b17f9173be17c78792108bd77",
      "assetIds": []
    },
    {
      "x": 210,
      "y": 364,
      "size": 1,
      "price": "1011000000000000000000",
      "reserved": "",
      "salt": "0xa4d6f002bfd5bbf525ed33fef767afe207fd7a14ae3a9bab648c1e9120452939",
      "assetIds": []
    },
    {
      "x": 210,
      "y": 365,
      "size": 1,
      "price": "1011000000000000000000",
      "reserved": "",
      "salt": "0x21b348a766f2fe464b74466953e6fee93a35240aabf0977359a44942b5fdb8a9",
      "assetIds": []
    },
    {
      "x": 210,
      "y": 366,
      "size": 1,
      "price": "1011000000000000000000",
      "reserved": "",
      "salt": "0xf9a223ef3bf85db4f1a9bb9ded4c27f9463139df063266087f210030dd2ff082",
      "assetIds": []
    },
    {
      "x": 210,
      "y": 367,
      "size": 1,
      "price": "1011000000000000000000",
      "reserved": "",
      "salt": "0x0c930d4c181082368663e1a6446434a287e91caf5004f0e0a8942b4dbd41dba8",
      "assetIds": []
    },
    {
      "x": 210,
      "y": 368,
      "size": 1,
      "price": "1011000000000000000000",
      "reserved": "",
      "salt": "0x3a82992240f54b5f4b4b69cc58be44015b8eb5e00fee3f571a6915cac56a0579",
      "assetIds": []
    },
    {
      "x": 210,
      "y": 369,
      "size": 1,
      "price": "1011000000000000000000",
      "reserved": "",
      "salt": "0xd1a2a61e33c4eb8b121fd45b4da0763d9458ec72ee33a123da11e8c026f3dcd5",
      "assetIds": []
    },
    {
      "x": 210,
      "y": 370,
      "size": 1,
      "price": "1011000000000000000000",
      "reserved": "",
      "salt": "0xabcbfb4e697374902c4a7b083b2e264444648110bb99391f3cc87203d854a833",
      "assetIds": []
    },
    {
      "x": 210,
      "y": 371,
      "size": 1,
      "price": "1011000000000000000000",
      "reserved": "",
      "salt": "0xbc3b2360d563f90c17a1a687b59cbe963cceb7a2aba259a956cd8d096dad1724",
      "assetIds": []
    },
    {
      "x": 210,
      "y": 372,
      "size": 1,
      "price": "4683000000000000000000",
      "reserved": "",
      "salt": "0xaf2977e9f405f9303780b44b2db9ee87ed7c0182a444b9c22ad83b665968e5f5",
      "assetIds": [
        "55464657044963196816950587289035428064568320970692304673817341489687790884865",
        "55464657044963196816950587289035428064568320970692304673817341489687782494208",
        "55464657044963196816950587289035428064568320970692304673817341489687790884866",
        "55464657044963196816950587289035428064568320970692304673817341489687782494209",
        "55464657044963196816950587289035428064568320970692304673817341489687790884864"
      ]
    },
    {
      "x": 210,
      "y": 373,
      "size": 1,
      "price": "1011000000000000000000",
      "reserved": "0x7a9fe22691c811ea339d9b73150e6911a5343dca",
      "salt": "0x0ef7ab8226b8d266cfe4341d1bb6a390f5e2c4fb75b2bc8fa283618fd1810e53",
      "assetIds": []
    },
    {
      "x": 210,
      "y": 374,
      "size": 1,
      "price": "1011000000000000000000",
      "reserved": "",
      "salt": "0x0341c93ecff11c6d52ece706c709d97d42e1b18c7efa8a223e3f2a2701150c2a",
      "assetIds": []
    },
    {
      "x": 210,
      "y": 375,
      "size": 1,
      "price": "1011000000000000000000",
      "reserved": "",
      "salt": "0xf9fd148dbddf51054a6652e2d3be3cbfef4b73946b4d176978f827987dd06bd0",
      "assetIds": []
    },
    {
      "x": 210,
      "y": 376,
      "size": 1,
      "price": "1011000000000000000000",
      "reserved": "0x7a9fe22691c811ea339d9b73150e6911a5343dca",
      "salt": "0x2bc597df2f0f2165eac7824a7e95eb6acde539fa5ac8e8f3dba850303971da85",
      "assetIds": []
    },
    {
      "x": 210,
      "y": 377,
      "size": 1,
      "price": "1011000000000000000000",
      "reserved": "0x7a9fe22691c811ea339d9b73150e6911a5343dca",
      "salt": "0xc943e5f11703854c8db4a2324061745bdb5f2a6817bd81dfe452e5cb83e71615",
      "assetIds": []
    },
    {
      "x": 210,
      "y": 384,
      "size": 1,
      "price": "1011000000000000000000",
      "reserved": "",
      "salt": "0x1e4715f9e307a97d3786de8f544e3a29ba1bae8bd17d110ba1af4205933636a4",
      "assetIds": []
    },
    {
      "x": 210,
      "y": 385,
      "size": 1,
      "price": "1011000000000000000000",
      "reserved": "",
      "salt": "0x4a1916a90d70bbd6f007bc0c125abb2ce68be04ef8de445911a67515479bbec3",
      "assetIds": []
    },
    {
      "x": 210,
      "y": 386,
      "size": 1,
      "price": "1011000000000000000000",
      "reserved": "",
      "salt": "0xe1764a093e0366793b3ff9fd38466c3dc0310e20c49dd4a3de4c932a574e058b",
      "assetIds": []
    },
    {
      "x": 210,
      "y": 387,
      "size": 1,
      "price": "1011000000000000000000",
      "reserved": "",
      "salt": "0xd008f113c4384bbb863fcb6bef2f04c7ac3cfd861ee2df7d508b5df56be53a73",
      "assetIds": []
    },
    {
      "x": 210,
      "y": 388,
      "size": 1,
      "price": "1011000000000000000000",
      "reserved": "0x7a9fe22691c811ea339d9b73150e6911a5343dca",
      "salt": "0xb081375d34745caadd6302f0a331da13c2a3375a51ca1b922385d19de8320fa2",
      "assetIds": []
    },
    {
      "x": 210,
      "y": 389,
      "size": 1,
      "price": "4683000000000000000000",
      "reserved": "",
      "salt": "0xb12ca8548d1054f07c6926440fbeac9d40ee6f175e46ae485bed254ec8fe7d8a",
      "assetIds": [
        "55464657044963196816950587289035428064568320970692304673817341489687790884865",
        "55464657044963196816950587289035428064568320970692304673817341489687782494208",
        "55464657044963196816950587289035428064568320970692304673817341489687790884866",
        "55464657044963196816950587289035428064568320970692304673817341489687782494209",
        "55464657044963196816950587289035428064568320970692304673817341489687790884864"
      ]
    },
    {
      "x": 210,
      "y": 396,
      "size": 1,
      "price": "4683000000000000000000",
      "reserved": "",
      "salt": "0x86c05098446d138cf8314fb687e1bc46da0f80e681ce1c77aad408d4cf56757e",
      "assetIds": [
        "55464657044963196816950587289035428064568320970692304673817341489687790884865",
        "55464657044963196816950587289035428064568320970692304673817341489687782494208",
        "55464657044963196816950587289035428064568320970692304673817341489687790884866",
        "55464657044963196816950587289035428064568320970692304673817341489687782494209",
        "55464657044963196816950587289035428064568320970692304673817341489687790884864"
      ]
    },
    {
      "x": 210,
      "y": 397,
      "size": 1,
      "price": "4683000000000000000000",
      "reserved": "",
      "salt": "0x51ef4db85c4e3432c5af5127056829d59c1db3ef5c43a1c53f018a15725dd2a3",
      "assetIds": [
        "55464657044963196816950587289035428064568320970692304673817341489687790884865",
        "55464657044963196816950587289035428064568320970692304673817341489687782494208",
        "55464657044963196816950587289035428064568320970692304673817341489687790884866",
        "55464657044963196816950587289035428064568320970692304673817341489687782494209",
        "55464657044963196816950587289035428064568320970692304673817341489687790884864"
      ]
    },
    {
      "x": 210,
      "y": 398,
      "size": 1,
      "price": "4683000000000000000000",
      "reserved": "",
      "salt": "0xbca48447c16641295656abc66d9a1fa4a33df227870946ee83ba7d5a208a9da9",
      "assetIds": [
        "55464657044963196816950587289035428064568320970692304673817341489687790884865",
        "55464657044963196816950587289035428064568320970692304673817341489687782494208",
        "55464657044963196816950587289035428064568320970692304673817341489687790884866",
        "55464657044963196816950587289035428064568320970692304673817341489687782494209",
        "55464657044963196816950587289035428064568320970692304673817341489687790884864"
      ]
    },
    {
      "x": 210,
      "y": 399,
      "size": 1,
      "price": "1011000000000000000000",
      "reserved": "",
      "salt": "0x91db89cab2ccac3f1612c05fc885fcefeec58c69f794c3f152476c75d05f0eeb",
      "assetIds": []
    },
    {
      "x": 210,
      "y": 400,
      "size": 1,
      "price": "1011000000000000000000",
      "reserved": "",
      "salt": "0x4e2e4f5891c478fc4c6ec0b05563595e3923fce08c8535b6e60411514b81ede8",
      "assetIds": []
    },
    {
      "x": 210,
      "y": 401,
      "size": 1,
      "price": "1011000000000000000000",
      "reserved": "",
      "salt": "0xb8a19b330d3e6707db25c96d984a5943aa0adaef23a3afcc4082ca1690e653c0",
      "assetIds": []
    },
    {
      "x": 210,
      "y": 402,
      "size": 1,
      "price": "1011000000000000000000",
      "reserved": "",
      "salt": "0x3b2242c57dd1acbb9e2a1bc63c81803f1ae97d539f599a90a8fa1fd540e79e22",
      "assetIds": []
    },
    {
      "x": 210,
      "y": 403,
      "size": 1,
      "price": "1011000000000000000000",
      "reserved": "",
      "salt": "0x5ee495a94145df0e3a87cd1d352cdf3939020319ed8e96d6a24253711fc92a33",
      "assetIds": []
    },
    {
      "x": 210,
      "y": 404,
      "size": 1,
      "price": "1011000000000000000000",
      "reserved": "",
      "salt": "0xdd8b29d16b9217331b6848389e8f9d5e0f793e83176dd94cd9fc95a5ad657550",
      "assetIds": []
    },
    {
      "x": 210,
      "y": 405,
      "size": 1,
      "price": "1011000000000000000000",
      "reserved": "",
      "salt": "0x5ecd627f70165cbf82520c317b470eb2eb12d4f55272cdbb509e25fc3aa48c24",
      "assetIds": []
    },
    {
      "x": 210,
      "y": 406,
      "size": 1,
      "price": "1011000000000000000000",
      "reserved": "",
      "salt": "0xa6f6698eccdda47b104938e85acad566296e171d7b79dc04060c5b04e600f46e",
      "assetIds": []
    },
    {
      "x": 210,
      "y": 407,
      "size": 1,
      "price": "1011000000000000000000",
      "reserved": "",
      "salt": "0xfa7dbee3d0f2f54d0352cb5e1dd7c73d0939655b6fbb45902bf6531511c0be55",
      "assetIds": []
    },
    {
      "x": 211,
      "y": 359,
      "size": 1,
      "price": "1011000000000000000000",
      "reserved": "",
      "salt": "0x895e4e44bc66030a0bdf773ca49375c5fa12af361ca07cd0c5ddb3d28f3457f8",
      "assetIds": []
    },
    {
      "x": 211,
      "y": 360,
      "size": 1,
      "price": "1011000000000000000000",
      "reserved": "",
      "salt": "0xc76e6c74297417039a62cc37ba66d02d69043a117d2397c08c9c2a531908bb86",
      "assetIds": []
    },
    {
      "x": 211,
      "y": 361,
      "size": 1,
      "price": "1011000000000000000000",
      "reserved": "",
      "salt": "0x00447a3a2efccc64296476108f247786b934ac0bdec752d1e46c9c837ffbf1fb",
      "assetIds": []
    },
    {
      "x": 211,
      "y": 362,
      "size": 1,
      "price": "1011000000000000000000",
      "reserved": "",
      "salt": "0x3e3e199e25b44bec96f50f6ada8f5ba34bd70bc5f730aa36d3f88563bdd1e4c5",
      "assetIds": []
    },
    {
      "x": 211,
      "y": 363,
      "size": 1,
      "price": "1011000000000000000000",
      "reserved": "",
      "salt": "0xb0d7215e3bf84f911e4e67434d5d968c71a73c3f5ff7199274002c3e7c56e50e",
      "assetIds": []
    },
    {
      "x": 211,
      "y": 364,
      "size": 1,
      "price": "1011000000000000000000",
      "reserved": "",
      "salt": "0x80d4420849f0ba91e86bdac636cc5ac437850d89c386010b67d5a4cb3f51e8f8",
      "assetIds": []
    },
    {
      "x": 211,
      "y": 365,
      "size": 1,
      "price": "1011000000000000000000",
      "reserved": "",
      "salt": "0x02139386878859aa68792b36423bb4eaf5761591348e77f3a72b2e2bd2830756",
      "assetIds": []
    },
    {
      "x": 211,
      "y": 366,
      "size": 1,
      "price": "1011000000000000000000",
      "reserved": "",
      "salt": "0xda1b981057bad1c588ea71884b05bddbe7487f1059ba885b96b2de022e08235a",
      "assetIds": []
    },
    {
      "x": 211,
      "y": 367,
      "size": 1,
      "price": "1011000000000000000000",
      "reserved": "",
      "salt": "0x69bce54c18aa4abf69329bde5b7b5594d4f034e62e01de0d63c68c5d807e15d6",
      "assetIds": []
    },
    {
      "x": 211,
      "y": 368,
      "size": 1,
      "price": "1011000000000000000000",
      "reserved": "0x7a9fe22691c811ea339d9b73150e6911a5343dca",
      "salt": "0xe032a7ca67c7561c3720e42c94ac430d0aaa0f44dbe53ec6054ee7eee9decb4e",
      "assetIds": []
    },
    {
      "x": 211,
      "y": 369,
      "size": 1,
      "price": "1011000000000000000000",
      "reserved": "",
      "salt": "0x554bcd049cf2a7d7cb39235eb629d660f3c8d40bd2ba683d315c90000e5279e5",
      "assetIds": []
    },
    {
      "x": 211,
      "y": 370,
      "size": 1,
      "price": "1011000000000000000000",
      "reserved": "",
      "salt": "0xbac48296604206691aaa9ef5229e3bc27f79002481aecb967c453d3affbb4032",
      "assetIds": []
    },
    {
      "x": 211,
      "y": 371,
      "size": 1,
      "price": "1011000000000000000000",
      "reserved": "",
      "salt": "0xf947dc3c8a9b40f5a6832337776287a96daeb0ee19a816b031a38b72b3925dc1",
      "assetIds": []
    },
    {
      "x": 211,
      "y": 372,
      "size": 1,
      "price": "4683000000000000000000",
      "reserved": "",
      "salt": "0x4d85118650b3e044f892745bc635d9690e535e3ad7f9dd2530025e22ce5c9b17",
      "assetIds": [
        "55464657044963196816950587289035428064568320970692304673817341489687790884865",
        "55464657044963196816950587289035428064568320970692304673817341489687782494208",
        "55464657044963196816950587289035428064568320970692304673817341489687790884866",
        "55464657044963196816950587289035428064568320970692304673817341489687782494209",
        "55464657044963196816950587289035428064568320970692304673817341489687790884864"
      ]
    },
    {
      "x": 211,
      "y": 373,
      "size": 1,
      "price": "1011000000000000000000",
      "reserved": "",
      "salt": "0x082e5997a7eb0226dc954a2f910fec6ccc26cba84da147f24785a1e94364b9cb",
      "assetIds": []
    },
    {
      "x": 211,
      "y": 374,
      "size": 1,
      "price": "1011000000000000000000",
      "reserved": "",
      "salt": "0x2eb7286eb2e9f6c06cb4701c79d99f208ed1f4941b4e2b7f11b3af54195e3715",
      "assetIds": []
    },
    {
      "x": 211,
      "y": 375,
      "size": 1,
      "price": "1011000000000000000000",
      "reserved": "",
      "salt": "0x3d13a944f00cac56e895ec998f67da0a108cf95207a2c2f7dfb6d488425f63fb",
      "assetIds": []
    },
    {
      "x": 211,
      "y": 376,
      "size": 1,
      "price": "1011000000000000000000",
      "reserved": "",
      "salt": "0xa9562b82cb8aa8649cf3352d08c4ff856fff4f9da3ce010d21c7110619a3d43e",
      "assetIds": []
    },
    {
      "x": 211,
      "y": 377,
      "size": 1,
      "price": "1011000000000000000000",
      "reserved": "",
      "salt": "0x6b9c9b75d886b34db1706dbe5c647a6515fdfb7edbb2460d0b5bbfc2e9d4ff1e",
      "assetIds": []
    },
    {
      "x": 211,
      "y": 384,
      "size": 1,
      "price": "1011000000000000000000",
      "reserved": "",
      "salt": "0x3bd53dc194333343ed70df97e14a2f9005ce42930af851b37e4c5fcfca2c8cab",
      "assetIds": []
    },
    {
      "x": 211,
      "y": 385,
      "size": 1,
      "price": "1011000000000000000000",
      "reserved": "0x7a9fe22691c811ea339d9b73150e6911a5343dca",
      "salt": "0x1358e4f392753aaf3976c6d449a20e20ebf0312d453264a30d3973df9d8228c1",
      "assetIds": []
    },
    {
      "x": 211,
      "y": 386,
      "size": 1,
      "price": "1011000000000000000000",
      "reserved": "",
      "salt": "0xf0a6869b92cb3b37869634f88219d5456ea1b90801272cc8e8e6c0c9ee204068",
      "assetIds": []
    },
    {
      "x": 211,
      "y": 387,
      "size": 1,
      "price": "1011000000000000000000",
      "reserved": "0x7a9fe22691c811ea339d9b73150e6911a5343dca",
      "salt": "0x585a3986fb3e8f15a880367374eeff235056dc5602cee709e16de2fd420197f7",
      "assetIds": []
    },
    {
      "x": 211,
      "y": 388,
      "size": 1,
      "price": "1011000000000000000000",
      "reserved": "",
      "salt": "0xf6f5ab217d8d0ed201784f8e83db1f59b99251fe0ef8296e03ff60c446fbf72b",
      "assetIds": []
    },
    {
      "x": 211,
      "y": 389,
      "size": 1,
      "price": "4683000000000000000000",
      "reserved": "",
      "salt": "0xc3b8b5fd212ef932697d9dcb9c847957221e1bcf21ec0572d1ec0b54ac36bd0a",
      "assetIds": [
        "55464657044963196816950587289035428064568320970692304673817341489687790884865",
        "55464657044963196816950587289035428064568320970692304673817341489687782494208",
        "55464657044963196816950587289035428064568320970692304673817341489687790884866",
        "55464657044963196816950587289035428064568320970692304673817341489687782494209",
        "55464657044963196816950587289035428064568320970692304673817341489687790884864"
      ]
    },
    {
      "x": 211,
      "y": 396,
      "size": 1,
      "price": "4683000000000000000000",
      "reserved": "",
      "salt": "0x8b8063cbeccaff9b9490ee448ce500bc904735620d211c20b227feb09fa5584a",
      "assetIds": [
        "55464657044963196816950587289035428064568320970692304673817341489687790884865",
        "55464657044963196816950587289035428064568320970692304673817341489687782494208",
        "55464657044963196816950587289035428064568320970692304673817341489687790884866",
        "55464657044963196816950587289035428064568320970692304673817341489687782494209",
        "55464657044963196816950587289035428064568320970692304673817341489687790884864"
      ]
    },
    {
      "x": 211,
      "y": 397,
      "size": 1,
      "price": "4683000000000000000000",
      "reserved": "",
      "salt": "0xff246eae317258e03c72c59d0c4cccbce230d6b09577393e1a87582f2b2eec7f",
      "assetIds": [
        "55464657044963196816950587289035428064568320970692304673817341489687790884865",
        "55464657044963196816950587289035428064568320970692304673817341489687782494208",
        "55464657044963196816950587289035428064568320970692304673817341489687790884866",
        "55464657044963196816950587289035428064568320970692304673817341489687782494209",
        "55464657044963196816950587289035428064568320970692304673817341489687790884864"
      ]
    },
    {
      "x": 211,
      "y": 398,
      "size": 1,
      "price": "4683000000000000000000",
      "reserved": "",
      "salt": "0x1366ebe70bdc67fd0b7b5d44d4bb612fa9cadb1289021e0d3880a57880379b2c",
      "assetIds": [
        "55464657044963196816950587289035428064568320970692304673817341489687790884865",
        "55464657044963196816950587289035428064568320970692304673817341489687782494208",
        "55464657044963196816950587289035428064568320970692304673817341489687790884866",
        "55464657044963196816950587289035428064568320970692304673817341489687782494209",
        "55464657044963196816950587289035428064568320970692304673817341489687790884864"
      ]
    },
    {
      "x": 211,
      "y": 399,
      "size": 1,
      "price": "4683000000000000000000",
      "reserved": "",
      "salt": "0x8da86c2f6e9601704000f999809f6bd3c930dd7373bc0db1402398dbfac03dbf",
      "assetIds": [
        "55464657044963196816950587289035428064568320970692304673817341489687790884865",
        "55464657044963196816950587289035428064568320970692304673817341489687782494208",
        "55464657044963196816950587289035428064568320970692304673817341489687790884866",
        "55464657044963196816950587289035428064568320970692304673817341489687782494209",
        "55464657044963196816950587289035428064568320970692304673817341489687790884864"
      ]
    },
    {
      "x": 211,
      "y": 400,
      "size": 1,
      "price": "1011000000000000000000",
      "reserved": "",
      "salt": "0xcc374fb0012a12ea59fa486e7cec904deacd0845e213add2835ecabf2ac5c105",
      "assetIds": []
    },
    {
      "x": 211,
      "y": 401,
      "size": 1,
      "price": "1011000000000000000000",
      "reserved": "",
      "salt": "0xea6aeeb0b87691f0ca5ed31dfeca3b27812bb0a21c2d6efbda27fc6e43504df6",
      "assetIds": []
    },
    {
      "x": 211,
      "y": 402,
      "size": 1,
      "price": "1011000000000000000000",
      "reserved": "",
      "salt": "0x1074db8906576037abb9f02d0cb11e6f34882d71e8cf34a97c1c5642fb701a2d",
      "assetIds": []
    },
    {
      "x": 211,
      "y": 403,
      "size": 1,
      "price": "1011000000000000000000",
      "reserved": "",
      "salt": "0x0509af1346019c631aad63847f5e80921f370516005094f534ce3718bb75caf2",
      "assetIds": []
    },
    {
      "x": 211,
      "y": 404,
      "size": 1,
      "price": "1011000000000000000000",
      "reserved": "",
      "salt": "0xd4bda7acbed981593fba344ad8fedcef49c665d32af2355d1d593eeb0d48651e",
      "assetIds": []
    },
    {
      "x": 211,
      "y": 405,
      "size": 1,
      "price": "1011000000000000000000",
      "reserved": "0x7a9fe22691c811ea339d9b73150e6911a5343dca",
      "salt": "0x823a3c8d27b5a0b0a44d46a7d20e54563810a9b7f98dbe9605f93e644cee9268",
      "assetIds": []
    },
    {
      "x": 211,
      "y": 406,
      "size": 1,
      "price": "1011000000000000000000",
      "reserved": "",
      "salt": "0x1b3cca5a38e4d52429e1f8e64d68e39b221afe7c4e1ba74440e41a9b2b9b6d84",
      "assetIds": []
    },
    {
      "x": 211,
      "y": 407,
      "size": 1,
      "price": "1011000000000000000000",
      "reserved": "",
      "salt": "0x3e0f8add7cb925d16b82aed6f24e43f1703ea494b3d7caa879222d5c27e89962",
      "assetIds": []
    },
    {
      "x": 212,
      "y": 359,
      "size": 1,
      "price": "1011000000000000000000",
      "reserved": "",
      "salt": "0x738f6e28cf0f29555d315555869b29309b7a2de98068d588756e071a4e21f2b0",
      "assetIds": []
    },
    {
      "x": 212,
      "y": 360,
      "size": 1,
      "price": "1011000000000000000000",
      "reserved": "",
      "salt": "0xa036e4d16e9f8028dd864fc24296ee334d2db478ad9bfdf25bdcdf4c7c70d6a6",
      "assetIds": []
    },
    {
      "x": 212,
      "y": 361,
      "size": 1,
      "price": "1011000000000000000000",
      "reserved": "",
      "salt": "0x1f7695601ff72ec95d4d11727de877aefda01868ac8464cd6b3e69062255c92c",
      "assetIds": []
    },
    {
      "x": 212,
      "y": 362,
      "size": 1,
      "price": "1011000000000000000000",
      "reserved": "",
      "salt": "0x9bab55bbe24afaafa0ad4df6886ce83f45c3c0de98694c3f746ceb3e32701f84",
      "assetIds": []
    },
    {
      "x": 212,
      "y": 363,
      "size": 1,
      "price": "1011000000000000000000",
      "reserved": "",
      "salt": "0xf65b32916acba1b4898f49310fba62ead24433e478690216396e9ac85d09ddb0",
      "assetIds": []
    },
    {
      "x": 212,
      "y": 364,
      "size": 1,
      "price": "1011000000000000000000",
      "reserved": "",
      "salt": "0x613c87d4a3873de4f72dde4a21e62a951672e6bda6759fde01e2b777b8fe0f9c",
      "assetIds": []
    },
    {
      "x": 212,
      "y": 365,
      "size": 1,
      "price": "1011000000000000000000",
      "reserved": "",
      "salt": "0x938e847336ee1c537c618e67c2fc270ccc02f9deef026801a935edb75f30d4c8",
      "assetIds": []
    },
    {
      "x": 212,
      "y": 366,
      "size": 1,
      "price": "1011000000000000000000",
      "reserved": "",
      "salt": "0xa4b7376979d650343cac80a846486048efc77df2f60892dd7b5549720f7d5686",
      "assetIds": []
    },
    {
      "x": 212,
      "y": 367,
      "size": 1,
      "price": "1011000000000000000000",
      "reserved": "",
      "salt": "0x1f53fc760499cfbbced394e42e02b2a152e7f45fe36c145e6779cc4f9a71530e",
      "assetIds": []
    },
    {
      "x": 212,
      "y": 368,
      "size": 1,
      "price": "1011000000000000000000",
      "reserved": "",
      "salt": "0x776efe186acec100c62689b0ac1ab94d6f49980927ec90a8a60a2bbd5d13c4f6",
      "assetIds": []
    },
    {
      "x": 212,
      "y": 369,
      "size": 1,
      "price": "4683000000000000000000",
      "reserved": "",
      "salt": "0x30608c07c878a582908f92469086ab5abf2e0252cca0a496fca426d0545fbe86",
      "assetIds": [
        "55464657044963196816950587289035428064568320970692304673817341489687790884865",
        "55464657044963196816950587289035428064568320970692304673817341489687782494208",
        "55464657044963196816950587289035428064568320970692304673817341489687790884866",
        "55464657044963196816950587289035428064568320970692304673817341489687782494209",
        "55464657044963196816950587289035428064568320970692304673817341489687790884864"
      ]
    },
    {
      "x": 212,
      "y": 370,
      "size": 1,
      "price": "1011000000000000000000",
      "reserved": "",
      "salt": "0xe9deddc23bc4df8af0531b5df4f8bdd20c8002333669305ab58bdd9fa835eee1",
      "assetIds": []
    },
    {
      "x": 212,
      "y": 371,
      "size": 1,
      "price": "1011000000000000000000",
      "reserved": "",
      "salt": "0x5a4415c5e36ba18176edb1ab3238e73f62c381f876912cc45f0fe6bfc63b2037",
      "assetIds": []
    },
    {
      "x": 212,
      "y": 372,
      "size": 1,
      "price": "4683000000000000000000",
      "reserved": "",
      "salt": "0x2379f5a5bfc5794475ea225cce5a0b8a5052cf91b9edd566b784ebc778c23687",
      "assetIds": [
        "55464657044963196816950587289035428064568320970692304673817341489687790884865",
        "55464657044963196816950587289035428064568320970692304673817341489687782494208",
        "55464657044963196816950587289035428064568320970692304673817341489687790884866",
        "55464657044963196816950587289035428064568320970692304673817341489687782494209",
        "55464657044963196816950587289035428064568320970692304673817341489687790884864"
      ]
    },
    {
      "x": 212,
      "y": 373,
      "size": 1,
      "price": "1011000000000000000000",
      "reserved": "",
      "salt": "0xbd6976395338915f8037e1602fbd4d60adf8b9336e4112408d4d61dcf5d0f3b8",
      "assetIds": []
    },
    {
      "x": 212,
      "y": 374,
      "size": 1,
      "price": "1011000000000000000000",
      "reserved": "",
      "salt": "0x1d1d32d2d3c04214debb6fda20680a9971ebd4e65c57239c38d70ccdaabfc523",
      "assetIds": []
    },
    {
      "x": 212,
      "y": 375,
      "size": 1,
      "price": "4683000000000000000000",
      "reserved": "",
      "salt": "0x63647a67bd03c08bc50d5a47d6222391005af148ba8f95dc5b74732d1d074c0c",
      "assetIds": [
        "55464657044963196816950587289035428064568320970692304673817341489687790884865",
        "55464657044963196816950587289035428064568320970692304673817341489687782494208",
        "55464657044963196816950587289035428064568320970692304673817341489687790884866",
        "55464657044963196816950587289035428064568320970692304673817341489687782494209",
        "55464657044963196816950587289035428064568320970692304673817341489687790884864"
      ]
    },
    {
      "x": 212,
      "y": 376,
      "size": 1,
      "price": "4683000000000000000000",
      "reserved": "",
      "salt": "0x74fbf76e5f7acc78d99f146682ff53a7468aa804c2a6c498d57d33d64e83bb2f",
      "assetIds": [
        "55464657044963196816950587289035428064568320970692304673817341489687790884865",
        "55464657044963196816950587289035428064568320970692304673817341489687782494208",
        "55464657044963196816950587289035428064568320970692304673817341489687790884866",
        "55464657044963196816950587289035428064568320970692304673817341489687782494209",
        "55464657044963196816950587289035428064568320970692304673817341489687790884864"
      ]
    },
    {
      "x": 212,
      "y": 377,
      "size": 1,
      "price": "1011000000000000000000",
      "reserved": "",
      "salt": "0x8565020fdf14c84c2b895c0edb1a729ffdd3ed5a047a024dfc097c572fceed1a",
      "assetIds": []
    },
    {
      "x": 212,
      "y": 384,
      "size": 1,
      "price": "1011000000000000000000",
      "reserved": "",
      "salt": "0xf6e393792d7101a6cb3ef48da39397b466cf2a022e16709275355732100955ee",
      "assetIds": []
    },
    {
      "x": 212,
      "y": 385,
      "size": 1,
      "price": "1011000000000000000000",
      "reserved": "",
      "salt": "0x40e36081bdab243a6183c77f5e7d15dffa2a525446cfcb2eccb4ec7c4ef28dd6",
      "assetIds": []
    },
    {
      "x": 212,
      "y": 386,
      "size": 1,
      "price": "1011000000000000000000",
      "reserved": "",
      "salt": "0x03cea0fcbfe11aa28790a43bcdfe0eba947b6b5bda10878f0b9a2e4a905c868c",
      "assetIds": []
    },
    {
      "x": 212,
      "y": 387,
      "size": 1,
      "price": "1011000000000000000000",
      "reserved": "",
      "salt": "0x10532d750958f56694d263c9013f785e7ce8b39774ea5a2bb71143c2c2975a78",
      "assetIds": []
    },
    {
      "x": 212,
      "y": 388,
      "size": 1,
      "price": "1011000000000000000000",
      "reserved": "",
      "salt": "0x4742e5bac7b9424a003de4309dcec188a17d3b9784105223c4293111248f46f7",
      "assetIds": []
    },
    {
      "x": 212,
      "y": 389,
      "size": 1,
      "price": "4683000000000000000000",
      "reserved": "",
      "salt": "0xcb163dcb223e3d556e09e798bab9c0e497a59f950e4aa387db507d35c5453494",
      "assetIds": [
        "55464657044963196816950587289035428064568320970692304673817341489687790884865",
        "55464657044963196816950587289035428064568320970692304673817341489687782494208",
        "55464657044963196816950587289035428064568320970692304673817341489687790884866",
        "55464657044963196816950587289035428064568320970692304673817341489687782494209",
        "55464657044963196816950587289035428064568320970692304673817341489687790884864"
      ]
    },
    {
      "x": 212,
      "y": 396,
      "size": 1,
      "price": "4683000000000000000000",
      "reserved": "",
      "salt": "0x1c986d141777eebcaceb170faa5ce23ed6e4afab10ccbea8795fec043c2f50c8",
      "assetIds": [
        "55464657044963196816950587289035428064568320970692304673817341489687790884865",
        "55464657044963196816950587289035428064568320970692304673817341489687782494208",
        "55464657044963196816950587289035428064568320970692304673817341489687790884866",
        "55464657044963196816950587289035428064568320970692304673817341489687782494209",
        "55464657044963196816950587289035428064568320970692304673817341489687790884864"
      ]
    },
    {
      "x": 212,
      "y": 397,
      "size": 1,
      "price": "1011000000000000000000",
      "reserved": "0x7a9fe22691c811ea339d9b73150e6911a5343dca",
      "salt": "0x7c4c4b9b8f21b72bf279b3ec9bff36cb6edd74ceb56ec466fea6242753591a51",
      "assetIds": []
    },
    {
      "x": 212,
      "y": 398,
      "size": 1,
      "price": "4683000000000000000000",
      "reserved": "",
      "salt": "0xc0db1508ddd93b7b111fa50404c6f85c6831749290f45e84bb5f97b2484acdd7",
      "assetIds": [
        "55464657044963196816950587289035428064568320970692304673817341489687790884865",
        "55464657044963196816950587289035428064568320970692304673817341489687782494208",
        "55464657044963196816950587289035428064568320970692304673817341489687790884866",
        "55464657044963196816950587289035428064568320970692304673817341489687782494209",
        "55464657044963196816950587289035428064568320970692304673817341489687790884864"
      ]
    },
    {
      "x": 212,
      "y": 399,
      "size": 1,
      "price": "1011000000000000000000",
      "reserved": "0x7a9fe22691c811ea339d9b73150e6911a5343dca",
      "salt": "0x8f45c2050b5643b6ea4b91e00c9aa76f29f8b667cde56db852d81ad9e37c2494",
      "assetIds": []
    },
    {
      "x": 212,
      "y": 400,
      "size": 1,
      "price": "1011000000000000000000",
      "reserved": "",
      "salt": "0x0f32703d3a3b970d4ccf33bd0317d20aff3959a935548f8c553abac6f08f22a7",
      "assetIds": []
    },
    {
      "x": 212,
      "y": 401,
      "size": 1,
      "price": "1011000000000000000000",
      "reserved": "",
      "salt": "0x039d36d53e0cea5cbe733a476d94331a745e5ac53aefbb463298098eb4955ba9",
      "assetIds": []
    },
    {
      "x": 213,
      "y": 357,
      "size": 1,
      "price": "1011000000000000000000",
      "reserved": "0x7a9fe22691c811ea339d9b73150e6911a5343dca",
      "salt": "0x395110361c8ee8f15d0b587c7f60028216d583f4835807139b0ba5e394900a12",
      "assetIds": []
    },
    {
      "x": 213,
      "y": 358,
      "size": 1,
      "price": "1011000000000000000000",
      "reserved": "",
      "salt": "0x646b2201fb3d081243a965bae578ed843f2cf36406e45205385b5cf35157405a",
      "assetIds": []
    },
    {
      "x": 213,
      "y": 359,
      "size": 1,
      "price": "1011000000000000000000",
      "reserved": "",
      "salt": "0xe4ca0d815706d9c1a7114609d4b585f9ab788ab2f9da627fc2d59dc8a17f34ea",
      "assetIds": []
    },
    {
      "x": 213,
      "y": 360,
      "size": 1,
      "price": "1011000000000000000000",
      "reserved": "0x7a9fe22691c811ea339d9b73150e6911a5343dca",
      "salt": "0xae9faada374ca54e682161ce6b0c00f621820509c2d957cb9ffe441ed3ec1efb",
      "assetIds": []
    },
    {
      "x": 213,
      "y": 361,
      "size": 1,
      "price": "1011000000000000000000",
      "reserved": "0x7a9fe22691c811ea339d9b73150e6911a5343dca",
      "salt": "0xb5882c8107e39538427fb88234d825a825764f519fae3782f7e01fee53f523a4",
      "assetIds": []
    },
    {
      "x": 213,
      "y": 362,
      "size": 1,
      "price": "1011000000000000000000",
      "reserved": "0x7a9fe22691c811ea339d9b73150e6911a5343dca",
      "salt": "0x601dc583ffea7162f9248c391013d4f24537139827836c8fd90600aa309aac28",
      "assetIds": []
    },
    {
      "x": 213,
      "y": 363,
      "size": 1,
      "price": "4683000000000000000000",
      "reserved": "",
      "salt": "0xff0f597f4733db4d2dbcfe5fb1aeb69b67faa7f55e778e5b5842746b3b21a29a",
      "assetIds": [
        "55464657044963196816950587289035428064568320970692304673817341489687790884865",
        "55464657044963196816950587289035428064568320970692304673817341489687782494208",
        "55464657044963196816950587289035428064568320970692304673817341489687790884866",
        "55464657044963196816950587289035428064568320970692304673817341489687782494209",
        "55464657044963196816950587289035428064568320970692304673817341489687790884864"
      ]
    },
    {
      "x": 213,
      "y": 364,
      "size": 1,
      "price": "1011000000000000000000",
      "reserved": "0x7a9fe22691c811ea339d9b73150e6911a5343dca",
      "salt": "0x3b06c9f8352fd0510b89822b08e71e3c9a4d595deeac457d0b3e041ce6dddcbd",
      "assetIds": []
    },
    {
      "x": 213,
      "y": 365,
      "size": 1,
      "price": "4683000000000000000000",
      "reserved": "",
      "salt": "0x1791edda95ff942fc10f75dfb6237b1ee410aab91d6daf59788b6e2632912bfb",
      "assetIds": [
        "55464657044963196816950587289035428064568320970692304673817341489687790884865",
        "55464657044963196816950587289035428064568320970692304673817341489687782494208",
        "55464657044963196816950587289035428064568320970692304673817341489687790884866",
        "55464657044963196816950587289035428064568320970692304673817341489687782494209",
        "55464657044963196816950587289035428064568320970692304673817341489687790884864"
      ]
    },
    {
      "x": 213,
      "y": 369,
      "size": 1,
      "price": "4683000000000000000000",
      "reserved": "",
      "salt": "0x97ad55133f00053ce7f19c033afa4f4b6c9befd79aaea0757767b8301dde01f0",
      "assetIds": [
        "55464657044963196816950587289035428064568320970692304673817341489687790884865",
        "55464657044963196816950587289035428064568320970692304673817341489687782494208",
        "55464657044963196816950587289035428064568320970692304673817341489687790884866",
        "55464657044963196816950587289035428064568320970692304673817341489687782494209",
        "55464657044963196816950587289035428064568320970692304673817341489687790884864"
      ]
    },
    {
      "x": 213,
      "y": 370,
      "size": 1,
      "price": "4683000000000000000000",
      "reserved": "",
      "salt": "0x5a602ef1bd0daa3a92a916f6334159ae660d58dc9375fc92f4656a5f42b066d1",
      "assetIds": [
        "55464657044963196816950587289035428064568320970692304673817341489687790884865",
        "55464657044963196816950587289035428064568320970692304673817341489687782494208",
        "55464657044963196816950587289035428064568320970692304673817341489687790884866",
        "55464657044963196816950587289035428064568320970692304673817341489687782494209",
        "55464657044963196816950587289035428064568320970692304673817341489687790884864"
      ]
    },
    {
      "x": 213,
      "y": 371,
      "size": 1,
      "price": "1011000000000000000000",
      "reserved": "",
      "salt": "0xefafa1763522cfd05246c498b4bc49c5890627d3965cda90c92e090eeab8c695",
      "assetIds": []
    },
    {
      "x": 213,
      "y": 372,
      "size": 1,
      "price": "1011000000000000000000",
      "reserved": "0x7a9fe22691c811ea339d9b73150e6911a5343dca",
      "salt": "0xea479ef5734b3138d3f287f0fbfe0eca51a4ce0935a0162742bf215574fe19c0",
      "assetIds": []
    },
    {
      "x": 213,
      "y": 373,
      "size": 1,
      "price": "4683000000000000000000",
      "reserved": "",
      "salt": "0x789147876157a5d9e3e4d663de2be47ab9a91684921411c37f28fea983027dac",
      "assetIds": [
        "55464657044963196816950587289035428064568320970692304673817341489687790884865",
        "55464657044963196816950587289035428064568320970692304673817341489687782494208",
        "55464657044963196816950587289035428064568320970692304673817341489687790884866",
        "55464657044963196816950587289035428064568320970692304673817341489687782494209",
        "55464657044963196816950587289035428064568320970692304673817341489687790884864"
      ]
    },
    {
      "x": 213,
      "y": 374,
      "size": 1,
      "price": "1011000000000000000000",
      "reserved": "0x7a9fe22691c811ea339d9b73150e6911a5343dca",
      "salt": "0x143b2aad5d6fa41689e2a414b3ab0b4b8a35ee9c2e9e3d909cb64ab168e035e9",
      "assetIds": []
    },
    {
      "x": 213,
      "y": 375,
      "size": 1,
      "price": "1011000000000000000000",
      "reserved": "0x7a9fe22691c811ea339d9b73150e6911a5343dca",
      "salt": "0x49d2017727d75c452064e7132a44b6627ccff6f3e8cd330d83c8630a7145b8fa",
      "assetIds": []
    },
    {
      "x": 213,
      "y": 376,
      "size": 1,
      "price": "4683000000000000000000",
      "reserved": "",
      "salt": "0xd0ddeeea7155c31330772bf551345f489f36f951fdcb3b0a4838866450e3ca51",
      "assetIds": [
        "55464657044963196816950587289035428064568320970692304673817341489687790884865",
        "55464657044963196816950587289035428064568320970692304673817341489687782494208",
        "55464657044963196816950587289035428064568320970692304673817341489687790884866",
        "55464657044963196816950587289035428064568320970692304673817341489687782494209",
        "55464657044963196816950587289035428064568320970692304673817341489687790884864"
      ]
    },
    {
      "x": 213,
      "y": 377,
      "size": 1,
      "price": "1011000000000000000000",
      "reserved": "",
      "salt": "0xc070af468cc5d902a49b3b67b06bcccd71bd1fea93fc175e3b4b35685917b101",
      "assetIds": []
    },
    {
      "x": 213,
      "y": 384,
      "size": 1,
      "price": "1011000000000000000000",
      "reserved": "",
      "salt": "0xcff84937b3b7a3690ce819b4885e80fa9c7c0aaae28d9f9287b1629899739663",
      "assetIds": []
    },
    {
      "x": 213,
      "y": 385,
      "size": 1,
      "price": "1011000000000000000000",
      "reserved": "",
      "salt": "0xb8676e1c3964505ecd8f582fec77e63d92e4972f46b05344e897dc8b4f4088cb",
      "assetIds": []
    },
    {
      "x": 213,
      "y": 386,
      "size": 1,
      "price": "1011000000000000000000",
      "reserved": "",
      "salt": "0x4fb15b60d4f5144c1f49c40b0a0eae5226dd099f986d9ca54d71d99baaa8faa5",
      "assetIds": []
    },
    {
      "x": 213,
      "y": 387,
      "size": 1,
      "price": "1011000000000000000000",
      "reserved": "",
      "salt": "0xbd123759fc21873a20bb915c9c366920c036832d30507d97cc3f00db8f6a0285",
      "assetIds": []
    },
    {
      "x": 213,
      "y": 388,
      "size": 1,
      "price": "1011000000000000000000",
      "reserved": "",
      "salt": "0x0028cbb46b8d6c5c44efbf9ce6788e7f57b2d5195f02ec561da9bd3d5325008d",
      "assetIds": []
    },
    {
      "x": 213,
      "y": 389,
      "size": 1,
      "price": "4683000000000000000000",
      "reserved": "",
      "salt": "0xa6c14fa99b3c689456fae195caeb216b5bc6d8859c38788ded6241eb2cec37fc",
      "assetIds": [
        "55464657044963196816950587289035428064568320970692304673817341489687790884865",
        "55464657044963196816950587289035428064568320970692304673817341489687782494208",
        "55464657044963196816950587289035428064568320970692304673817341489687790884866",
        "55464657044963196816950587289035428064568320970692304673817341489687782494209",
        "55464657044963196816950587289035428064568320970692304673817341489687790884864"
      ]
    },
    {
      "x": 213,
      "y": 396,
      "size": 1,
      "price": "4683000000000000000000",
      "reserved": "",
      "salt": "0xe527870bbf1fd79f6e0c9437cf61b50331ad947076c121ecc7bd2415eba53fc5",
      "assetIds": [
        "55464657044963196816950587289035428064568320970692304673817341489687790884865",
        "55464657044963196816950587289035428064568320970692304673817341489687782494208",
        "55464657044963196816950587289035428064568320970692304673817341489687790884866",
        "55464657044963196816950587289035428064568320970692304673817341489687782494209",
        "55464657044963196816950587289035428064568320970692304673817341489687790884864"
      ]
    },
    {
      "x": 213,
      "y": 397,
      "size": 1,
      "price": "1011000000000000000000",
      "reserved": "",
      "salt": "0x8f69a0994fab7e848641bb8ca6db06e7e90e3634c76a17a5b4c7f32423eedb45",
      "assetIds": []
    },
    {
      "x": 213,
      "y": 398,
      "size": 1,
      "price": "1011000000000000000000",
      "reserved": "",
      "salt": "0x00da1ca0ca2a3f776370609a94ca0d342bef01d517684c74613edc1914ca4ae2",
      "assetIds": []
    },
    {
      "x": 213,
      "y": 399,
      "size": 1,
      "price": "1011000000000000000000",
      "reserved": "",
      "salt": "0x3cab999bf3a8cc0efd8f827e128e781aa77cd0d46652f88c38d9791a2ed10d42",
      "assetIds": []
    },
    {
      "x": 213,
      "y": 400,
      "size": 1,
      "price": "1011000000000000000000",
      "reserved": "",
      "salt": "0x6309318e659e980499fdd5da0fe9d8be18135b5c6862d4c15f5626a5c80d3e8b",
      "assetIds": []
    },
    {
      "x": 214,
      "y": 357,
      "size": 1,
      "price": "1011000000000000000000",
      "reserved": "",
      "salt": "0xbeafe2c55fc79801b76f7d0c7854fe68a37e3b725a9424522d971e3bd14a372f",
      "assetIds": []
    },
    {
      "x": 214,
      "y": 358,
      "size": 1,
      "price": "1011000000000000000000",
      "reserved": "0x7a9fe22691c811ea339d9b73150e6911a5343dca",
      "salt": "0xdd65bc6a78683514cec0b24c5bca4e1c29c48159fc43f4fd43ad0613ea5a07a0",
      "assetIds": []
    },
    {
      "x": 214,
      "y": 359,
      "size": 1,
      "price": "1011000000000000000000",
      "reserved": "0x7a9fe22691c811ea339d9b73150e6911a5343dca",
      "salt": "0xa055cb8409d3d219042b13f1743201fd274401e1d1443a270c04b9560853cd3d",
      "assetIds": []
    },
    {
      "x": 214,
      "y": 360,
      "size": 1,
      "price": "4683000000000000000000",
      "reserved": "",
      "salt": "0x439e924150c18ae4c45efbdfccc143eba8f8861f2da9cd6df000667ecab6e176",
      "assetIds": [
        "55464657044963196816950587289035428064568320970692304673817341489687790884865",
        "55464657044963196816950587289035428064568320970692304673817341489687782494208",
        "55464657044963196816950587289035428064568320970692304673817341489687790884866",
        "55464657044963196816950587289035428064568320970692304673817341489687782494209",
        "55464657044963196816950587289035428064568320970692304673817341489687790884864"
      ]
    },
    {
      "x": 214,
      "y": 361,
      "size": 1,
      "price": "4683000000000000000000",
      "reserved": "",
      "salt": "0x0f461fbad4c05f7b86cf1b9e92c0445ca3d5aac2401754de7d3cf71b0c53f34e",
      "assetIds": [
        "55464657044963196816950587289035428064568320970692304673817341489687790884865",
        "55464657044963196816950587289035428064568320970692304673817341489687782494208",
        "55464657044963196816950587289035428064568320970692304673817341489687790884866",
        "55464657044963196816950587289035428064568320970692304673817341489687782494209",
        "55464657044963196816950587289035428064568320970692304673817341489687790884864"
      ]
    },
    {
      "x": 214,
      "y": 362,
      "size": 1,
      "price": "4683000000000000000000",
      "reserved": "",
      "salt": "0x3406ae06472175ba6230a67f8c52349813351694b11e85b1d9a9a7090e1109e6",
      "assetIds": [
        "55464657044963196816950587289035428064568320970692304673817341489687790884865",
        "55464657044963196816950587289035428064568320970692304673817341489687782494208",
        "55464657044963196816950587289035428064568320970692304673817341489687790884866",
        "55464657044963196816950587289035428064568320970692304673817341489687782494209",
        "55464657044963196816950587289035428064568320970692304673817341489687790884864"
      ]
    },
    {
      "x": 214,
      "y": 363,
      "size": 1,
      "price": "4683000000000000000000",
      "reserved": "",
      "salt": "0x5bbfa9aa98d97d7efe432e72e655c789b6205696305639a7ee4875e78a6dd105",
      "assetIds": [
        "55464657044963196816950587289035428064568320970692304673817341489687790884865",
        "55464657044963196816950587289035428064568320970692304673817341489687782494208",
        "55464657044963196816950587289035428064568320970692304673817341489687790884866",
        "55464657044963196816950587289035428064568320970692304673817341489687782494209",
        "55464657044963196816950587289035428064568320970692304673817341489687790884864"
      ]
    },
    {
      "x": 214,
      "y": 364,
      "size": 1,
      "price": "4683000000000000000000",
      "reserved": "",
      "salt": "0x37577eea5bf07827348d52491a73b379f83fa0adcb93f0e204dc01cca875e95a",
      "assetIds": [
        "55464657044963196816950587289035428064568320970692304673817341489687790884865",
        "55464657044963196816950587289035428064568320970692304673817341489687782494208",
        "55464657044963196816950587289035428064568320970692304673817341489687790884866",
        "55464657044963196816950587289035428064568320970692304673817341489687782494209",
        "55464657044963196816950587289035428064568320970692304673817341489687790884864"
      ]
    },
    {
      "x": 214,
      "y": 365,
      "size": 1,
      "price": "4683000000000000000000",
      "reserved": "",
      "salt": "0x36c84a620cc8d14b5fc88699e06d7db8ee577883878bf904d03251e0c95f28ea",
      "assetIds": [
        "55464657044963196816950587289035428064568320970692304673817341489687790884865",
        "55464657044963196816950587289035428064568320970692304673817341489687782494208",
        "55464657044963196816950587289035428064568320970692304673817341489687790884866",
        "55464657044963196816950587289035428064568320970692304673817341489687782494209",
        "55464657044963196816950587289035428064568320970692304673817341489687790884864"
      ]
    },
    {
      "x": 214,
      "y": 369,
      "size": 1,
      "price": "4683000000000000000000",
      "reserved": "",
      "salt": "0xa2428d1dbbc90a0061b4db50fe9357a6240f78971db10cd823ee99748c26cc27",
      "assetIds": [
        "55464657044963196816950587289035428064568320970692304673817341489687790884865",
        "55464657044963196816950587289035428064568320970692304673817341489687782494208",
        "55464657044963196816950587289035428064568320970692304673817341489687790884866",
        "55464657044963196816950587289035428064568320970692304673817341489687782494209",
        "55464657044963196816950587289035428064568320970692304673817341489687790884864"
      ]
    },
    {
      "x": 214,
      "y": 370,
      "size": 1,
      "price": "4683000000000000000000",
      "reserved": "",
      "salt": "0x659835d5a1b06599de38788f495ead8588d5c34845140b6c02dc92b61524444e",
      "assetIds": [
        "55464657044963196816950587289035428064568320970692304673817341489687790884865",
        "55464657044963196816950587289035428064568320970692304673817341489687782494208",
        "55464657044963196816950587289035428064568320970692304673817341489687790884866",
        "55464657044963196816950587289035428064568320970692304673817341489687782494209",
        "55464657044963196816950587289035428064568320970692304673817341489687790884864"
      ]
    },
    {
      "x": 214,
      "y": 371,
      "size": 1,
      "price": "4683000000000000000000",
      "reserved": "",
      "salt": "0xe95487464b74a3a966c5825b66ce510fbf1c173518c521266aa4f9cc7319a702",
      "assetIds": [
        "55464657044963196816950587289035428064568320970692304673817341489687790884865",
        "55464657044963196816950587289035428064568320970692304673817341489687782494208",
        "55464657044963196816950587289035428064568320970692304673817341489687790884866",
        "55464657044963196816950587289035428064568320970692304673817341489687782494209",
        "55464657044963196816950587289035428064568320970692304673817341489687790884864"
      ]
    },
    {
      "x": 214,
      "y": 372,
      "size": 1,
      "price": "4683000000000000000000",
      "reserved": "",
      "salt": "0x1677c3ecd1d605d8303c11135c595b98b72833d557e21a402646b2cb23c0e8cb",
      "assetIds": [
        "55464657044963196816950587289035428064568320970692304673817341489687790884865",
        "55464657044963196816950587289035428064568320970692304673817341489687782494208",
        "55464657044963196816950587289035428064568320970692304673817341489687790884866",
        "55464657044963196816950587289035428064568320970692304673817341489687782494209",
        "55464657044963196816950587289035428064568320970692304673817341489687790884864"
      ]
    },
    {
      "x": 214,
      "y": 373,
      "size": 1,
      "price": "4683000000000000000000",
      "reserved": "",
      "salt": "0xb1e8e89d84b5283b5cbba9bac9bc1fe00392dc61d7adc60eec20e5209711e5a8",
      "assetIds": [
        "55464657044963196816950587289035428064568320970692304673817341489687790884865",
        "55464657044963196816950587289035428064568320970692304673817341489687782494208",
        "55464657044963196816950587289035428064568320970692304673817341489687790884866",
        "55464657044963196816950587289035428064568320970692304673817341489687782494209",
        "55464657044963196816950587289035428064568320970692304673817341489687790884864"
      ]
    },
    {
      "x": 214,
      "y": 374,
      "size": 1,
      "price": "4683000000000000000000",
      "reserved": "",
      "salt": "0xe0496b774f4a15efadf262d679dc2fefdfc412c726bd73b5e46775bee657c12c",
      "assetIds": [
        "55464657044963196816950587289035428064568320970692304673817341489687790884865",
        "55464657044963196816950587289035428064568320970692304673817341489687782494208",
        "55464657044963196816950587289035428064568320970692304673817341489687790884866",
        "55464657044963196816950587289035428064568320970692304673817341489687782494209",
        "55464657044963196816950587289035428064568320970692304673817341489687790884864"
      ]
    },
    {
      "x": 214,
      "y": 375,
      "size": 1,
      "price": "4683000000000000000000",
      "reserved": "",
      "salt": "0xdb30b3d7ec455f855cb2956c365782d104f004ebbe105c0fbcda90933e89076b",
      "assetIds": [
        "55464657044963196816950587289035428064568320970692304673817341489687790884865",
        "55464657044963196816950587289035428064568320970692304673817341489687782494208",
        "55464657044963196816950587289035428064568320970692304673817341489687790884866",
        "55464657044963196816950587289035428064568320970692304673817341489687782494209",
        "55464657044963196816950587289035428064568320970692304673817341489687790884864"
      ]
    },
    {
      "x": 214,
      "y": 376,
      "size": 1,
      "price": "4683000000000000000000",
      "reserved": "",
      "salt": "0x86e4240d36b7b18347ebbe48ba9f41556b90af9709794d2993dd1d93eb493202",
      "assetIds": [
        "55464657044963196816950587289035428064568320970692304673817341489687790884865",
        "55464657044963196816950587289035428064568320970692304673817341489687782494208",
        "55464657044963196816950587289035428064568320970692304673817341489687790884866",
        "55464657044963196816950587289035428064568320970692304673817341489687782494209",
        "55464657044963196816950587289035428064568320970692304673817341489687790884864"
      ]
    },
    {
      "x": 214,
      "y": 377,
      "size": 1,
      "price": "1011000000000000000000",
      "reserved": "0x7a9fe22691c811ea339d9b73150e6911a5343dca",
      "salt": "0x6e5b380008ff32d131fd4643d726dfc08db53b66da2d6ab8505c40b685e619a2",
      "assetIds": []
    },
    {
      "x": 214,
      "y": 384,
      "size": 1,
      "price": "1011000000000000000000",
      "reserved": "",
      "salt": "0x21d36aa0e266e4c41ebc102b4da5dfc818e2b22cb6e9fb095558ee6664eca4df",
      "assetIds": []
    },
    {
      "x": 214,
      "y": 385,
      "size": 1,
      "price": "1011000000000000000000",
      "reserved": "0x7a9fe22691c811ea339d9b73150e6911a5343dca",
      "salt": "0x99103730ed909247754a71134a9cddf78a7b6ce2b808e27048476947cb17d308",
      "assetIds": []
    },
    {
      "x": 214,
      "y": 386,
      "size": 1,
      "price": "1011000000000000000000",
      "reserved": "0x7a9fe22691c811ea339d9b73150e6911a5343dca",
      "salt": "0x1715b7556404ed0410136c9870605495bfc522fc87d1327f5e2139648c464385",
      "assetIds": []
    },
    {
      "x": 214,
      "y": 387,
      "size": 1,
      "price": "1011000000000000000000",
      "reserved": "",
      "salt": "0x6fef55b4d08ab5823ff57fbacbea85bf54dbecee1ddbc9c1e593933cccfa2d19",
      "assetIds": []
    },
    {
      "x": 214,
      "y": 388,
      "size": 1,
      "price": "1011000000000000000000",
      "reserved": "",
      "salt": "0xee09dab0814bfe259c8bc53ee40044da80f1893a24ed5cfdef37a709988ffa5f",
      "assetIds": []
    },
    {
      "x": 214,
      "y": 389,
      "size": 1,
      "price": "4683000000000000000000",
      "reserved": "",
      "salt": "0xa5cf2f647b36fdb2da5ed45718e06550265b47b5264fd07b1fc64d8e4d368d59",
      "assetIds": [
        "55464657044963196816950587289035428064568320970692304673817341489687790884865",
        "55464657044963196816950587289035428064568320970692304673817341489687782494208",
        "55464657044963196816950587289035428064568320970692304673817341489687790884866",
        "55464657044963196816950587289035428064568320970692304673817341489687782494209",
        "55464657044963196816950587289035428064568320970692304673817341489687790884864"
      ]
    },
    {
      "x": 214,
      "y": 396,
      "size": 1,
      "price": "4683000000000000000000",
      "reserved": "",
      "salt": "0x89210ec06caaaa04c2b2930fb03a60f0ebc4c239d4a669b599e029cc10eff0fe",
      "assetIds": [
        "55464657044963196816950587289035428064568320970692304673817341489687790884865",
        "55464657044963196816950587289035428064568320970692304673817341489687782494208",
        "55464657044963196816950587289035428064568320970692304673817341489687790884866",
        "55464657044963196816950587289035428064568320970692304673817341489687782494209",
        "55464657044963196816950587289035428064568320970692304673817341489687790884864"
      ]
    },
    {
      "x": 214,
      "y": 397,
      "size": 1,
      "price": "1011000000000000000000",
      "reserved": "",
      "salt": "0x1378efe1be4d7a5e4fa9dd2dd08da17c9715dc6ea54c8e0e8bebdc1c0f9287e7",
      "assetIds": []
    },
    {
      "x": 214,
      "y": 398,
      "size": 1,
      "price": "1011000000000000000000",
      "reserved": "",
      "salt": "0xe4b089c7b1dcb3d8f533eb145203a59889a3fe275d41265e42024fd3bdfadc99",
      "assetIds": []
    },
    {
      "x": 214,
      "y": 399,
      "size": 1,
      "price": "1011000000000000000000",
      "reserved": "",
      "salt": "0xe58317b90721b49787ebbc030e109e29bc641f0ce76243c0ba6510095f97c968",
      "assetIds": []
    },
    {
      "x": 215,
      "y": 357,
      "size": 1,
      "price": "1011000000000000000000",
      "reserved": "",
      "salt": "0x087283bdef27fd41635cb0ee62505233592f3cc0176fafb4bb3bccf56a35c2a0",
      "assetIds": []
    },
    {
      "x": 215,
      "y": 358,
      "size": 1,
      "price": "4683000000000000000000",
      "reserved": "",
      "salt": "0x3cefeab2e7a8656f99159634de9d147731c563a0bc32406bf67bf83e558a8bdd",
      "assetIds": [
        "55464657044963196816950587289035428064568320970692304673817341489687790884865",
        "55464657044963196816950587289035428064568320970692304673817341489687782494208",
        "55464657044963196816950587289035428064568320970692304673817341489687790884866",
        "55464657044963196816950587289035428064568320970692304673817341489687782494209",
        "55464657044963196816950587289035428064568320970692304673817341489687790884864"
      ]
    },
    {
      "x": 215,
      "y": 359,
      "size": 1,
      "price": "4683000000000000000000",
      "reserved": "",
      "salt": "0xf2b867c306177b8a5e0be59aac25aaf6d4a69edb6e4aca0746d59c1339200637",
      "assetIds": [
        "55464657044963196816950587289035428064568320970692304673817341489687790884865",
        "55464657044963196816950587289035428064568320970692304673817341489687782494208",
        "55464657044963196816950587289035428064568320970692304673817341489687790884866",
        "55464657044963196816950587289035428064568320970692304673817341489687782494209",
        "55464657044963196816950587289035428064568320970692304673817341489687790884864"
      ]
    },
    {
      "x": 215,
      "y": 360,
      "size": 1,
      "price": "4683000000000000000000",
      "reserved": "",
      "salt": "0xc44ac75eece986deee0f1010bf74f627b2fe063b240c7664eb068aaaf9d7fd7f",
      "assetIds": [
        "55464657044963196816950587289035428064568320970692304673817341489687790884865",
        "55464657044963196816950587289035428064568320970692304673817341489687782494208",
        "55464657044963196816950587289035428064568320970692304673817341489687790884866",
        "55464657044963196816950587289035428064568320970692304673817341489687782494209",
        "55464657044963196816950587289035428064568320970692304673817341489687790884864"
      ]
    },
    {
      "x": 215,
      "y": 361,
      "size": 1,
      "price": "4683000000000000000000",
      "reserved": "",
      "salt": "0x04c618b0b632cfb19496a7697c236138b14a581e1e917c469ba0da63c2ffee4d",
      "assetIds": [
        "55464657044963196816950587289035428064568320970692304673817341489687790884865",
        "55464657044963196816950587289035428064568320970692304673817341489687782494208",
        "55464657044963196816950587289035428064568320970692304673817341489687790884866",
        "55464657044963196816950587289035428064568320970692304673817341489687782494209",
        "55464657044963196816950587289035428064568320970692304673817341489687790884864"
      ]
    },
    {
      "x": 215,
      "y": 362,
      "size": 1,
      "price": "4683000000000000000000",
      "reserved": "",
      "salt": "0xf795073b008b010ad914a07316b62c7bb315994c4cabe5de3842072c865a580c",
      "assetIds": [
        "55464657044963196816950587289035428064568320970692304673817341489687790884865",
        "55464657044963196816950587289035428064568320970692304673817341489687782494208",
        "55464657044963196816950587289035428064568320970692304673817341489687790884866",
        "55464657044963196816950587289035428064568320970692304673817341489687782494209",
        "55464657044963196816950587289035428064568320970692304673817341489687790884864"
      ]
    },
    {
      "x": 215,
      "y": 363,
      "size": 1,
      "price": "4683000000000000000000",
      "reserved": "",
      "salt": "0x4e38b16805b1fc6481425d25d8836d9714e47d04bbe59ea5d1d5fbd3e8a4ddbe",
      "assetIds": [
        "55464657044963196816950587289035428064568320970692304673817341489687790884865",
        "55464657044963196816950587289035428064568320970692304673817341489687782494208",
        "55464657044963196816950587289035428064568320970692304673817341489687790884866",
        "55464657044963196816950587289035428064568320970692304673817341489687782494209",
        "55464657044963196816950587289035428064568320970692304673817341489687790884864"
      ]
    },
    {
      "x": 215,
      "y": 364,
      "size": 1,
      "price": "4683000000000000000000",
      "reserved": "",
      "salt": "0xb33f001101345a396c3b16a514b973b3d299dcb754e51acc9b081ed13b4c5965",
      "assetIds": [
        "55464657044963196816950587289035428064568320970692304673817341489687790884865",
        "55464657044963196816950587289035428064568320970692304673817341489687782494208",
        "55464657044963196816950587289035428064568320970692304673817341489687790884866",
        "55464657044963196816950587289035428064568320970692304673817341489687782494209",
        "55464657044963196816950587289035428064568320970692304673817341489687790884864"
      ]
    },
    {
      "x": 215,
      "y": 365,
      "size": 1,
      "price": "4683000000000000000000",
      "reserved": "",
      "salt": "0xc9493abb3473398c4786f5e34fe6e5e76cbc86fda6f26eae2ddb414e647d9aa8",
      "assetIds": [
        "55464657044963196816950587289035428064568320970692304673817341489687790884865",
        "55464657044963196816950587289035428064568320970692304673817341489687782494208",
        "55464657044963196816950587289035428064568320970692304673817341489687790884866",
        "55464657044963196816950587289035428064568320970692304673817341489687782494209",
        "55464657044963196816950587289035428064568320970692304673817341489687790884864"
      ]
    },
    {
      "x": 215,
      "y": 369,
      "size": 1,
      "price": "4683000000000000000000",
      "reserved": "",
      "salt": "0x3712e7c2172120753f0c40821a80d43f7be63794b5913d70263801c78cf6cc58",
      "assetIds": [
        "55464657044963196816950587289035428064568320970692304673817341489687790884865",
        "55464657044963196816950587289035428064568320970692304673817341489687782494208",
        "55464657044963196816950587289035428064568320970692304673817341489687790884866",
        "55464657044963196816950587289035428064568320970692304673817341489687782494209",
        "55464657044963196816950587289035428064568320970692304673817341489687790884864"
      ]
    },
    {
      "x": 215,
      "y": 370,
      "size": 1,
      "price": "4683000000000000000000",
      "reserved": "",
      "salt": "0xd5983bebf00139303fde9d54deca188bfd946cf1617da1d4309fb673a25a5bda",
      "assetIds": [
        "55464657044963196816950587289035428064568320970692304673817341489687790884865",
        "55464657044963196816950587289035428064568320970692304673817341489687782494208",
        "55464657044963196816950587289035428064568320970692304673817341489687790884866",
        "55464657044963196816950587289035428064568320970692304673817341489687782494209",
        "55464657044963196816950587289035428064568320970692304673817341489687790884864"
      ]
    },
    {
      "x": 215,
      "y": 371,
      "size": 1,
      "price": "4683000000000000000000",
      "reserved": "",
      "salt": "0x0068dd68ed4a71131a2f7623517acfba940e6414218628c26341d7c6396f54fd",
      "assetIds": [
        "55464657044963196816950587289035428064568320970692304673817341489687790884865",
        "55464657044963196816950587289035428064568320970692304673817341489687782494208",
        "55464657044963196816950587289035428064568320970692304673817341489687790884866",
        "55464657044963196816950587289035428064568320970692304673817341489687782494209",
        "55464657044963196816950587289035428064568320970692304673817341489687790884864"
      ]
    },
    {
      "x": 215,
      "y": 372,
      "size": 1,
      "price": "4683000000000000000000",
      "reserved": "",
      "salt": "0xd199f3ca0ca310a75d444761ab03c866b2d403abcee96d2b50e37e9ae9f98043",
      "assetIds": [
        "55464657044963196816950587289035428064568320970692304673817341489687790884865",
        "55464657044963196816950587289035428064568320970692304673817341489687782494208",
        "55464657044963196816950587289035428064568320970692304673817341489687790884866",
        "55464657044963196816950587289035428064568320970692304673817341489687782494209",
        "55464657044963196816950587289035428064568320970692304673817341489687790884864"
      ]
    },
    {
      "x": 215,
      "y": 373,
      "size": 1,
      "price": "4683000000000000000000",
      "reserved": "",
      "salt": "0x104148d847f37043faf1bc206bdf82f1589e1be5abbadfcc1f1754f0a81219b4",
      "assetIds": [
        "55464657044963196816950587289035428064568320970692304673817341489687790884865",
        "55464657044963196816950587289035428064568320970692304673817341489687782494208",
        "55464657044963196816950587289035428064568320970692304673817341489687790884866",
        "55464657044963196816950587289035428064568320970692304673817341489687782494209",
        "55464657044963196816950587289035428064568320970692304673817341489687790884864"
      ]
    },
    {
      "x": 215,
      "y": 374,
      "size": 1,
      "price": "4683000000000000000000",
      "reserved": "",
      "salt": "0x72ad06f967689acff7c978d16dc7bad453c67ed2cbab9c9afea68a064bb17ad9",
      "assetIds": [
        "55464657044963196816950587289035428064568320970692304673817341489687790884865",
        "55464657044963196816950587289035428064568320970692304673817341489687782494208",
        "55464657044963196816950587289035428064568320970692304673817341489687790884866",
        "55464657044963196816950587289035428064568320970692304673817341489687782494209",
        "55464657044963196816950587289035428064568320970692304673817341489687790884864"
      ]
    },
    {
      "x": 215,
      "y": 375,
      "size": 1,
      "price": "4683000000000000000000",
      "reserved": "",
      "salt": "0xbbcac1f9bbdd535c17aee3ba0e48c00d2e2d196c6d434042bd69d2e1620386c4",
      "assetIds": [
        "55464657044963196816950587289035428064568320970692304673817341489687790884865",
        "55464657044963196816950587289035428064568320970692304673817341489687782494208",
        "55464657044963196816950587289035428064568320970692304673817341489687790884866",
        "55464657044963196816950587289035428064568320970692304673817341489687782494209",
        "55464657044963196816950587289035428064568320970692304673817341489687790884864"
      ]
    },
    {
      "x": 215,
      "y": 376,
      "size": 1,
      "price": "4683000000000000000000",
      "reserved": "",
      "salt": "0xd6cb678896c5230e05229a5a4e650222a1666abdbfb29262c90b50b809613030",
      "assetIds": [
        "55464657044963196816950587289035428064568320970692304673817341489687790884865",
        "55464657044963196816950587289035428064568320970692304673817341489687782494208",
        "55464657044963196816950587289035428064568320970692304673817341489687790884866",
        "55464657044963196816950587289035428064568320970692304673817341489687782494209",
        "55464657044963196816950587289035428064568320970692304673817341489687790884864"
      ]
    },
    {
      "x": 215,
      "y": 377,
      "size": 1,
      "price": "4683000000000000000000",
      "reserved": "",
      "salt": "0xa7f9b3680b14d78d6aebd4c886b23c65468880d8b77fe3153f3c6823e554dad4",
      "assetIds": [
        "55464657044963196816950587289035428064568320970692304673817341489687790884865",
        "55464657044963196816950587289035428064568320970692304673817341489687782494208",
        "55464657044963196816950587289035428064568320970692304673817341489687790884866",
        "55464657044963196816950587289035428064568320970692304673817341489687782494209",
        "55464657044963196816950587289035428064568320970692304673817341489687790884864"
      ]
    },
    {
      "x": 215,
      "y": 384,
      "size": 1,
      "price": "1011000000000000000000",
      "reserved": "",
      "salt": "0xe485967f1f0e26269bd38189dcc3d43b850721a74e71e07ef2defd22cb41c80b",
      "assetIds": []
    },
    {
      "x": 215,
      "y": 385,
      "size": 1,
      "price": "1011000000000000000000",
      "reserved": "",
      "salt": "0xf7581078e8d7e9f72b38c7bbbcd1d30e11aa766143fa12d4f2a2c68c5cb3060c",
      "assetIds": []
    },
    {
      "x": 215,
      "y": 386,
      "size": 1,
      "price": "1011000000000000000000",
      "reserved": "",
      "salt": "0xcbd414fa4e7cfed883daa28d76d50fe341c00be0fed0928fddd7beb745021fd1",
      "assetIds": []
    },
    {
      "x": 215,
      "y": 387,
      "size": 1,
      "price": "1011000000000000000000",
      "reserved": "",
      "salt": "0xed5179f2da6f513912afd9d9aff2b61ee2ca013da4dff32a1142134e41661739",
      "assetIds": []
    },
    {
      "x": 215,
      "y": 388,
      "size": 1,
      "price": "1011000000000000000000",
      "reserved": "",
      "salt": "0xfaf190695b0abc8c15f3f406a1e996b327e99cae34fc357e5e384dce95e597a0",
      "assetIds": []
    },
    {
      "x": 215,
      "y": 389,
      "size": 1,
      "price": "4683000000000000000000",
      "reserved": "",
      "salt": "0x5b21878f4f2f5a340f262b296765f0ea5a9c1871f1c3cde3e3f48588338198bb",
      "assetIds": [
        "55464657044963196816950587289035428064568320970692304673817341489687790884865",
        "55464657044963196816950587289035428064568320970692304673817341489687782494208",
        "55464657044963196816950587289035428064568320970692304673817341489687790884866",
        "55464657044963196816950587289035428064568320970692304673817341489687782494209",
        "55464657044963196816950587289035428064568320970692304673817341489687790884864"
      ]
    },
    {
      "x": 215,
      "y": 396,
      "size": 1,
      "price": "4683000000000000000000",
      "reserved": "",
      "salt": "0x599cd13c2d8255dc6a2f91a61e224fd3fc64df242a78c8019c89e5741a8c630f",
      "assetIds": [
        "55464657044963196816950587289035428064568320970692304673817341489687790884865",
        "55464657044963196816950587289035428064568320970692304673817341489687782494208",
        "55464657044963196816950587289035428064568320970692304673817341489687790884866",
        "55464657044963196816950587289035428064568320970692304673817341489687782494209",
        "55464657044963196816950587289035428064568320970692304673817341489687790884864"
      ]
    },
    {
      "x": 215,
      "y": 397,
      "size": 1,
      "price": "1011000000000000000000",
      "reserved": "0x7a9fe22691c811ea339d9b73150e6911a5343dca",
      "salt": "0x3c97fa59b4b89a2eaac5e88e5055de278db41581431e50520d2f0d99f731bbcf",
      "assetIds": []
    },
    {
      "x": 215,
      "y": 398,
      "size": 1,
      "price": "1011000000000000000000",
      "reserved": "",
      "salt": "0xf7398e163b2fb047003f44993ed83844ccfe5afbf2b8a6d447776ce6885b4b67",
      "assetIds": []
    },
    {
      "x": 215,
      "y": 399,
      "size": 1,
      "price": "1011000000000000000000",
      "reserved": "",
      "salt": "0x317bebcc0914e300ca50c8989b23dd8e2bbc1a1f30097fb8021c345d80029c36",
      "assetIds": []
    },
    {
      "x": 216,
      "y": 357,
      "size": 1,
      "price": "1011000000000000000000",
      "reserved": "",
      "salt": "0x984999420004bd54beb1944311fd1332cab66a9246311e3ca1c08c81054e6fd3",
      "assetIds": []
    },
    {
      "x": 216,
      "y": 358,
      "size": 1,
      "price": "4683000000000000000000",
      "reserved": "",
      "salt": "0xa3d3b38875514eeed4b479a70ea1bf0498b79f7df216de44c4783478b5f30a1f",
      "assetIds": [
        "55464657044963196816950587289035428064568320970692304673817341489687790884865",
        "55464657044963196816950587289035428064568320970692304673817341489687782494208",
        "55464657044963196816950587289035428064568320970692304673817341489687790884866",
        "55464657044963196816950587289035428064568320970692304673817341489687782494209",
        "55464657044963196816950587289035428064568320970692304673817341489687790884864"
      ]
    },
    {
      "x": 216,
      "y": 359,
      "size": 1,
      "price": "4683000000000000000000",
      "reserved": "",
      "salt": "0x80b56e3e5c88d71fa1c1aa575641b8173c232f2735fb3ea3f6468311ccf52e29",
      "assetIds": [
        "55464657044963196816950587289035428064568320970692304673817341489687790884865",
        "55464657044963196816950587289035428064568320970692304673817341489687782494208",
        "55464657044963196816950587289035428064568320970692304673817341489687790884866",
        "55464657044963196816950587289035428064568320970692304673817341489687782494209",
        "55464657044963196816950587289035428064568320970692304673817341489687790884864"
      ]
    },
    {
      "x": 216,
      "y": 384,
      "size": 1,
      "price": "4683000000000000000000",
      "reserved": "",
      "salt": "0xb54f516db0568d97738f4b4e45893961133f2bf28550523c5847cc8022a78b53",
      "assetIds": [
        "55464657044963196816950587289035428064568320970692304673817341489687790884865",
        "55464657044963196816950587289035428064568320970692304673817341489687782494208",
        "55464657044963196816950587289035428064568320970692304673817341489687790884866",
        "55464657044963196816950587289035428064568320970692304673817341489687782494209",
        "55464657044963196816950587289035428064568320970692304673817341489687790884864"
      ]
    },
    {
      "x": 216,
      "y": 385,
      "size": 1,
      "price": "4683000000000000000000",
      "reserved": "",
      "salt": "0x2ad5e2fe70c248aa52f25647a0a1c13c74de124a4bd224d920267e8b2f5e0ad7",
      "assetIds": [
        "55464657044963196816950587289035428064568320970692304673817341489687790884865",
        "55464657044963196816950587289035428064568320970692304673817341489687782494208",
        "55464657044963196816950587289035428064568320970692304673817341489687790884866",
        "55464657044963196816950587289035428064568320970692304673817341489687782494209",
        "55464657044963196816950587289035428064568320970692304673817341489687790884864"
      ]
    },
    {
      "x": 216,
      "y": 386,
      "size": 1,
      "price": "4683000000000000000000",
      "reserved": "",
      "salt": "0x023a1ed3d9c8519e4309af3334088438f95fd45afaf9b67a44e9d041e7be3c9b",
      "assetIds": [
        "55464657044963196816950587289035428064568320970692304673817341489687790884865",
        "55464657044963196816950587289035428064568320970692304673817341489687782494208",
        "55464657044963196816950587289035428064568320970692304673817341489687790884866",
        "55464657044963196816950587289035428064568320970692304673817341489687782494209",
        "55464657044963196816950587289035428064568320970692304673817341489687790884864"
      ]
    },
    {
      "x": 216,
      "y": 387,
      "size": 1,
      "price": "1011000000000000000000",
      "reserved": "",
      "salt": "0x712849d30d6494c55c51b97f81d3f66722674be535e7e4f30bf480e1809f8b78",
      "assetIds": []
    },
    {
      "x": 216,
      "y": 388,
      "size": 1,
      "price": "1011000000000000000000",
      "reserved": "0x7a9fe22691c811ea339d9b73150e6911a5343dca",
      "salt": "0x6b91def9c1bb0d412e44ca8f742100623590f3326989cab7dba52a1ba4628b03",
      "assetIds": []
    },
    {
      "x": 216,
      "y": 389,
      "size": 1,
      "price": "1011000000000000000000",
      "reserved": "",
      "salt": "0x2ab2ec529d013725efcd1e7ee46b3c2986f5e2404ef4c758d1706dc9581daa41",
      "assetIds": []
    },
    {
      "x": 216,
      "y": 390,
      "size": 1,
      "price": "4683000000000000000000",
      "reserved": "",
      "salt": "0xb8702439d8ba6f4d4e552253b7ff5255217a07850571771b0eed2a95f4febe37",
      "assetIds": [
        "55464657044963196816950587289035428064568320970692304673817341489687790884865",
        "55464657044963196816950587289035428064568320970692304673817341489687782494208",
        "55464657044963196816950587289035428064568320970692304673817341489687790884866",
        "55464657044963196816950587289035428064568320970692304673817341489687782494209",
        "55464657044963196816950587289035428064568320970692304673817341489687790884864"
      ]
    },
    {
      "x": 216,
      "y": 391,
      "size": 1,
      "price": "4683000000000000000000",
      "reserved": "",
      "salt": "0x7c6bcd2b45594f444c40b2a6ecb20f6add26482e93be0c7e93197254edf37b9f",
      "assetIds": [
        "55464657044963196816950587289035428064568320970692304673817341489687790884865",
        "55464657044963196816950587289035428064568320970692304673817341489687782494208",
        "55464657044963196816950587289035428064568320970692304673817341489687790884866",
        "55464657044963196816950587289035428064568320970692304673817341489687782494209",
        "55464657044963196816950587289035428064568320970692304673817341489687790884864"
      ]
    },
    {
      "x": 216,
      "y": 392,
      "size": 1,
      "price": "4683000000000000000000",
      "reserved": "",
      "salt": "0xc605d440138ef91ce33c390b7510dc5448187415a27731d3aae8ab327bafc2cc",
      "assetIds": [
        "55464657044963196816950587289035428064568320970692304673817341489687790884865",
        "55464657044963196816950587289035428064568320970692304673817341489687782494208",
        "55464657044963196816950587289035428064568320970692304673817341489687790884866",
        "55464657044963196816950587289035428064568320970692304673817341489687782494209",
        "55464657044963196816950587289035428064568320970692304673817341489687790884864"
      ]
    },
    {
      "x": 216,
      "y": 393,
      "size": 1,
      "price": "4683000000000000000000",
      "reserved": "",
      "salt": "0xcc6f24bc3dae2184b3bd7214ce9a9fabc0bffd1108837f5cb5c5e263a0ac0bda",
      "assetIds": [
        "55464657044963196816950587289035428064568320970692304673817341489687790884865",
        "55464657044963196816950587289035428064568320970692304673817341489687782494208",
        "55464657044963196816950587289035428064568320970692304673817341489687790884866",
        "55464657044963196816950587289035428064568320970692304673817341489687782494209",
        "55464657044963196816950587289035428064568320970692304673817341489687790884864"
      ]
    },
    {
      "x": 216,
      "y": 394,
      "size": 1,
      "price": "4683000000000000000000",
      "reserved": "",
      "salt": "0x141519271a8732b74afdb1531b514e00c0c37f8ff3d0b9623a86440ba3b5e318",
      "assetIds": [
        "55464657044963196816950587289035428064568320970692304673817341489687790884865",
        "55464657044963196816950587289035428064568320970692304673817341489687782494208",
        "55464657044963196816950587289035428064568320970692304673817341489687790884866",
        "55464657044963196816950587289035428064568320970692304673817341489687782494209",
        "55464657044963196816950587289035428064568320970692304673817341489687790884864"
      ]
    },
    {
      "x": 216,
      "y": 395,
      "size": 1,
      "price": "4683000000000000000000",
      "reserved": "",
      "salt": "0x5fcb8b004423351fd0fab13e9c2f6924814a5201c6ce01aaf35628c225e1e9fa",
      "assetIds": [
        "55464657044963196816950587289035428064568320970692304673817341489687790884865",
        "55464657044963196816950587289035428064568320970692304673817341489687782494208",
        "55464657044963196816950587289035428064568320970692304673817341489687790884866",
        "55464657044963196816950587289035428064568320970692304673817341489687782494209",
        "55464657044963196816950587289035428064568320970692304673817341489687790884864"
      ]
    },
    {
      "x": 216,
      "y": 396,
      "size": 1,
      "price": "4683000000000000000000",
      "reserved": "",
      "salt": "0x0d3e40c4a78a14191acbca9945046de8688e2a1116dae5a603892eca30183dde",
      "assetIds": [
        "55464657044963196816950587289035428064568320970692304673817341489687790884865",
        "55464657044963196816950587289035428064568320970692304673817341489687782494208",
        "55464657044963196816950587289035428064568320970692304673817341489687790884866",
        "55464657044963196816950587289035428064568320970692304673817341489687782494209",
        "55464657044963196816950587289035428064568320970692304673817341489687790884864"
      ]
    },
    {
      "x": 216,
      "y": 397,
      "size": 1,
      "price": "1011000000000000000000",
      "reserved": "",
      "salt": "0x592845857f1a379bca1298cdb50d398911871938b4e95ae017371092fdd0cd37",
      "assetIds": []
    },
    {
      "x": 216,
      "y": 398,
      "size": 1,
      "price": "1011000000000000000000",
      "reserved": "",
      "salt": "0x7d27783bdd93f184dfcf7393a6c9a2ca0ea14255acb0fedd4e62c79a155be869",
      "assetIds": []
    },
    {
      "x": 216,
      "y": 399,
      "size": 1,
      "price": "1011000000000000000000",
      "reserved": "",
      "salt": "0x9bafb025ebe43fed5a34ec46231460aba7777c4b4dc18478330b3d2525980dcf",
      "assetIds": []
    },
    {
      "x": 217,
      "y": 357,
      "size": 1,
      "price": "1011000000000000000000",
      "reserved": "",
      "salt": "0x38d3ab61c7c45e588e445a7900ddcec3ccc6cb1ef8539427417f1d160879850e",
      "assetIds": []
    },
    {
      "x": 217,
      "y": 358,
      "size": 1,
      "price": "4683000000000000000000",
      "reserved": "",
      "salt": "0xe7cac6b70839f540d6bcf3a2945bfc25e872b46539a631716ad5b3081af6376e",
      "assetIds": [
        "55464657044963196816950587289035428064568320970692304673817341489687790884865",
        "55464657044963196816950587289035428064568320970692304673817341489687782494208",
        "55464657044963196816950587289035428064568320970692304673817341489687790884866",
        "55464657044963196816950587289035428064568320970692304673817341489687782494209",
        "55464657044963196816950587289035428064568320970692304673817341489687790884864"
      ]
    },
    {
      "x": 217,
      "y": 359,
      "size": 1,
      "price": "4683000000000000000000",
      "reserved": "",
      "salt": "0xf1788e63e4bebdd3dd62be857ce7bc520bada649becda7517d99df90db9a52b5",
      "assetIds": [
        "55464657044963196816950587289035428064568320970692304673817341489687790884865",
        "55464657044963196816950587289035428064568320970692304673817341489687782494208",
        "55464657044963196816950587289035428064568320970692304673817341489687790884866",
        "55464657044963196816950587289035428064568320970692304673817341489687782494209",
        "55464657044963196816950587289035428064568320970692304673817341489687790884864"
      ]
    },
    {
      "x": 217,
      "y": 384,
      "size": 1,
      "price": "4683000000000000000000",
      "reserved": "",
      "salt": "0x7339ffda9d7406a40d836fdcb2735c07e60dc50faff832ad187f1a1ef6d2d377",
      "assetIds": [
        "55464657044963196816950587289035428064568320970692304673817341489687790884865",
        "55464657044963196816950587289035428064568320970692304673817341489687782494208",
        "55464657044963196816950587289035428064568320970692304673817341489687790884866",
        "55464657044963196816950587289035428064568320970692304673817341489687782494209",
        "55464657044963196816950587289035428064568320970692304673817341489687790884864"
      ]
    },
    {
      "x": 217,
      "y": 385,
      "size": 1,
      "price": "4683000000000000000000",
      "reserved": "",
      "salt": "0x08b1f112487af58bd209bdd8ea8d9be414f94f937423c3f60510eb2adbd9aec9",
      "assetIds": [
        "55464657044963196816950587289035428064568320970692304673817341489687790884865",
        "55464657044963196816950587289035428064568320970692304673817341489687782494208",
        "55464657044963196816950587289035428064568320970692304673817341489687790884866",
        "55464657044963196816950587289035428064568320970692304673817341489687782494209",
        "55464657044963196816950587289035428064568320970692304673817341489687790884864"
      ]
    },
    {
      "x": 217,
      "y": 386,
      "size": 1,
      "price": "4683000000000000000000",
      "reserved": "",
      "salt": "0x510aa827f774bd83b2dfcd4881373ae6ed72e6df52c63ab35793b311ebf58bf1",
      "assetIds": [
        "55464657044963196816950587289035428064568320970692304673817341489687790884865",
        "55464657044963196816950587289035428064568320970692304673817341489687782494208",
        "55464657044963196816950587289035428064568320970692304673817341489687790884866",
        "55464657044963196816950587289035428064568320970692304673817341489687782494209",
        "55464657044963196816950587289035428064568320970692304673817341489687790884864"
      ]
    },
    {
      "x": 217,
      "y": 387,
      "size": 1,
      "price": "1011000000000000000000",
      "reserved": "",
      "salt": "0x308cc65d79cbffe20eb188531764def5da3d86a17c3c3ee3455ae24fa37d08a0",
      "assetIds": []
    },
    {
      "x": 217,
      "y": 388,
      "size": 1,
      "price": "1011000000000000000000",
      "reserved": "0x7a9fe22691c811ea339d9b73150e6911a5343dca",
      "salt": "0xfe2ae3f3a62872638fa6f876e1e6272104e92ad9d2078432ff7c45ff21e3af58",
      "assetIds": []
    },
    {
      "x": 217,
      "y": 389,
      "size": 1,
      "price": "1011000000000000000000",
      "reserved": "",
      "salt": "0xf0cda786ed8fea2184c469b8a09d94145606cabdc93b8bd17bfca1ef333a804d",
      "assetIds": []
    },
    {
      "x": 217,
      "y": 390,
      "size": 1,
      "price": "1011000000000000000000",
      "reserved": "",
      "salt": "0x6714377c6043e5e211941d0d84a8e71ecc1559e69a5d50a0779421b7ead51466",
      "assetIds": []
    },
    {
      "x": 217,
      "y": 391,
      "size": 1,
      "price": "1011000000000000000000",
      "reserved": "",
      "salt": "0xbea94f3a0bb2f05a1bd3fc18c0b67e967231197012485bd3fc963ca85712befb",
      "assetIds": []
    },
    {
      "x": 217,
      "y": 392,
      "size": 1,
      "price": "1011000000000000000000",
      "reserved": "0x7a9fe22691c811ea339d9b73150e6911a5343dca",
      "salt": "0xacfe9cbb0dfb429385e96aa3dc277fd81b8dd7e7ec729f3db1698bb86174bb84",
      "assetIds": []
    },
    {
      "x": 217,
      "y": 393,
      "size": 1,
      "price": "1011000000000000000000",
      "reserved": "",
      "salt": "0xbfb1ac52386486f88bea393c534c685cdb3b261be8fd13751308a6f0e59ce60a",
      "assetIds": []
    },
    {
      "x": 217,
      "y": 394,
      "size": 1,
      "price": "1011000000000000000000",
      "reserved": "",
      "salt": "0x4a0fc6db63a500f7d13378b7bef4d1dcac9a23dc50965a1bc0648b82d3640de5",
      "assetIds": []
    },
    {
      "x": 217,
      "y": 395,
      "size": 1,
      "price": "1011000000000000000000",
      "reserved": "",
      "salt": "0x37c51b6a1c9fbf089beaaefb645271e9cbbd60f4644c11cf568f3376d360f2d9",
      "assetIds": []
    },
    {
      "x": 217,
      "y": 396,
      "size": 1,
      "price": "4683000000000000000000",
      "reserved": "",
      "salt": "0x26ca900a9ad18475ad6babd279a00ede8d6799e149a4a0c4741b29b305335cbf",
      "assetIds": [
        "55464657044963196816950587289035428064568320970692304673817341489687790884865",
        "55464657044963196816950587289035428064568320970692304673817341489687782494208",
        "55464657044963196816950587289035428064568320970692304673817341489687790884866",
        "55464657044963196816950587289035428064568320970692304673817341489687782494209",
        "55464657044963196816950587289035428064568320970692304673817341489687790884864"
      ]
    },
    {
      "x": 217,
      "y": 397,
      "size": 1,
      "price": "1011000000000000000000",
      "reserved": "",
      "salt": "0x56928e2219e19109d012b962c8c60cd16e8092e69d25d9b5d5f60d81efa01477",
      "assetIds": []
    },
    {
      "x": 217,
      "y": 398,
      "size": 1,
      "price": "1011000000000000000000",
      "reserved": "",
      "salt": "0x3ea70de27150546a2581cec9b6aa02b03ae1cd712001deba37320e54195f7d80",
      "assetIds": []
    },
    {
      "x": 217,
      "y": 399,
      "size": 1,
      "price": "1011000000000000000000",
      "reserved": "",
      "salt": "0x9e24545d7af44209e3f6aa32d16317ce6e73dadebdb7b82a81d743e732d6efe6",
      "assetIds": []
    },
    {
      "x": 218,
      "y": 357,
      "size": 1,
      "price": "1011000000000000000000",
      "reserved": "",
      "salt": "0x0282b950c8fabb54424831df06ee74e5e92b5547207ff3e2ffc096a366c21fc6",
      "assetIds": []
    },
    {
      "x": 218,
      "y": 358,
      "size": 1,
      "price": "4683000000000000000000",
      "reserved": "",
      "salt": "0xb7b2e300d9c6a16d14dd20e9b23ccce8704f2191d63fb5b78e3183d91f8e148a",
      "assetIds": [
        "55464657044963196816950587289035428064568320970692304673817341489687790884865",
        "55464657044963196816950587289035428064568320970692304673817341489687782494208",
        "55464657044963196816950587289035428064568320970692304673817341489687790884866",
        "55464657044963196816950587289035428064568320970692304673817341489687782494209",
        "55464657044963196816950587289035428064568320970692304673817341489687790884864"
      ]
    },
    {
      "x": 218,
      "y": 359,
      "size": 1,
      "price": "4683000000000000000000",
      "reserved": "",
      "salt": "0x29323b783b1e0a1c72075cba53946d7ea86f489342c0ec2c03513e65ec426055",
      "assetIds": [
        "55464657044963196816950587289035428064568320970692304673817341489687790884865",
        "55464657044963196816950587289035428064568320970692304673817341489687782494208",
        "55464657044963196816950587289035428064568320970692304673817341489687790884866",
        "55464657044963196816950587289035428064568320970692304673817341489687782494209",
        "55464657044963196816950587289035428064568320970692304673817341489687790884864"
      ]
    },
    {
      "x": 218,
      "y": 384,
      "size": 1,
      "price": "4683000000000000000000",
      "reserved": "",
      "salt": "0x410086ef6c9dcc9511484721d60be3751449883bb44746f744bb1d58c668b1ee",
      "assetIds": [
        "55464657044963196816950587289035428064568320970692304673817341489687790884865",
        "55464657044963196816950587289035428064568320970692304673817341489687782494208",
        "55464657044963196816950587289035428064568320970692304673817341489687790884866",
        "55464657044963196816950587289035428064568320970692304673817341489687782494209",
        "55464657044963196816950587289035428064568320970692304673817341489687790884864"
      ]
    },
    {
      "x": 218,
      "y": 385,
      "size": 1,
      "price": "4683000000000000000000",
      "reserved": "",
      "salt": "0x6796e318d8f0597f3bdf8c76e34f13cd4ddf68298394354d45d82099741d7829",
      "assetIds": [
        "55464657044963196816950587289035428064568320970692304673817341489687790884865",
        "55464657044963196816950587289035428064568320970692304673817341489687782494208",
        "55464657044963196816950587289035428064568320970692304673817341489687790884866",
        "55464657044963196816950587289035428064568320970692304673817341489687782494209",
        "55464657044963196816950587289035428064568320970692304673817341489687790884864"
      ]
    },
    {
      "x": 218,
      "y": 386,
      "size": 1,
      "price": "4683000000000000000000",
      "reserved": "",
      "salt": "0xd3bc9352c8188ada5c5915e6c96c07396046121b01ec78d3fac0f20606a291dd",
      "assetIds": [
        "55464657044963196816950587289035428064568320970692304673817341489687790884865",
        "55464657044963196816950587289035428064568320970692304673817341489687782494208",
        "55464657044963196816950587289035428064568320970692304673817341489687790884866",
        "55464657044963196816950587289035428064568320970692304673817341489687782494209",
        "55464657044963196816950587289035428064568320970692304673817341489687790884864"
      ]
    },
    {
      "x": 218,
      "y": 387,
      "size": 1,
      "price": "1011000000000000000000",
      "reserved": "",
      "salt": "0x890aa9f59f42fb374ee8fc3869dabf22d488797cd70ded5605c6008e8a9d56b0",
      "assetIds": []
    },
    {
      "x": 218,
      "y": 388,
      "size": 1,
      "price": "1011000000000000000000",
      "reserved": "",
      "salt": "0xb1360814c9aa863f1686478e43180dd702e1976e3720bc34fc10e65a81779df6",
      "assetIds": []
    },
    {
      "x": 218,
      "y": 389,
      "size": 1,
      "price": "1011000000000000000000",
      "reserved": "",
      "salt": "0x588c6764b2a55f8c62782f01b2b266bbd52d02128d3eef88676a2b546dae5fe4",
      "assetIds": []
    },
    {
      "x": 218,
      "y": 390,
      "size": 1,
      "price": "1011000000000000000000",
      "reserved": "",
      "salt": "0x86ca12583bd65c05a476268336bc9c9d1ed837c82c0abf477ba06a8e1982ebbe",
      "assetIds": []
    },
    {
      "x": 218,
      "y": 391,
      "size": 1,
      "price": "1011000000000000000000",
      "reserved": "",
      "salt": "0x1c8fb8c5e5d062f1e644fabeadf339e5ba1f839db1df5876e9c1c31680d84dfc",
      "assetIds": []
    },
    {
      "x": 218,
      "y": 392,
      "size": 1,
      "price": "1011000000000000000000",
      "reserved": "0x7a9fe22691c811ea339d9b73150e6911a5343dca",
      "salt": "0x402c14009e1a65ba7087e388d987bb0e477ebce3ff851c15ecf98cb99a4dda32",
      "assetIds": []
    },
    {
      "x": 218,
      "y": 393,
      "size": 1,
      "price": "1011000000000000000000",
      "reserved": "",
      "salt": "0x58b296a40d7a0f317b8d19ec44df2815331944037ee49180cf696a600a26d294",
      "assetIds": []
    },
    {
      "x": 218,
      "y": 394,
      "size": 1,
      "price": "1011000000000000000000",
      "reserved": "0x7a9fe22691c811ea339d9b73150e6911a5343dca",
      "salt": "0x109f714a61b22c0613121ec477c7a80f68106f92d0728d41798a55891564e876",
      "assetIds": []
    },
    {
      "x": 218,
      "y": 395,
      "size": 1,
      "price": "1011000000000000000000",
      "reserved": "",
      "salt": "0x50f378af735bf0d03779adcf982bde83657f849975a3f8d54cec1a7bdd4a1c1e",
      "assetIds": []
    },
    {
      "x": 218,
      "y": 396,
      "size": 1,
      "price": "1011000000000000000000",
      "reserved": "0x7a9fe22691c811ea339d9b73150e6911a5343dca",
      "salt": "0xc134a3b76e3ad3131078af6f621d86afe082cab8693d49f2fdc68d94d0dbe4ce",
      "assetIds": []
    },
    {
      "x": 218,
      "y": 397,
      "size": 1,
      "price": "1011000000000000000000",
      "reserved": "",
      "salt": "0xbb88261cb15d6bac9c4bb0cb2f7344a4e6e1318eff12aee9fca530215d80d13d",
      "assetIds": []
    },
    {
      "x": 218,
      "y": 398,
      "size": 1,
      "price": "1011000000000000000000",
      "reserved": "0x7a9fe22691c811ea339d9b73150e6911a5343dca",
      "salt": "0x6c1e651a656afa95a746899df46118ae792cdb7d183d0e4245fd13ceefdf6ee9",
      "assetIds": []
    },
    {
      "x": 218,
      "y": 399,
      "size": 1,
      "price": "1011000000000000000000",
      "reserved": "",
      "salt": "0x5c9231b99889a6497df5d5ef32f489906b02ffd602f5c167015c32b037a106f1",
      "assetIds": []
    },
    {
      "x": 219,
      "y": 357,
      "size": 1,
      "price": "1011000000000000000000",
      "reserved": "",
      "salt": "0xc73912ea93975e6cdedb86ed11cc73ab371f50783365c78b4a09f014ecc9ec9f",
      "assetIds": []
    },
    {
      "x": 219,
      "y": 358,
      "size": 1,
      "price": "4683000000000000000000",
      "reserved": "",
      "salt": "0x2dcf7be42dad4ef5edf298ef5de8331b06b7773f11e7bf2fc4030304c38163c6",
      "assetIds": [
        "55464657044963196816950587289035428064568320970692304673817341489687790884865",
        "55464657044963196816950587289035428064568320970692304673817341489687782494208",
        "55464657044963196816950587289035428064568320970692304673817341489687790884866",
        "55464657044963196816950587289035428064568320970692304673817341489687782494209",
        "55464657044963196816950587289035428064568320970692304673817341489687790884864"
      ]
    },
    {
      "x": 219,
      "y": 359,
      "size": 1,
      "price": "4683000000000000000000",
      "reserved": "",
      "salt": "0x1707d17dc409a2c66f7c85c97b9a275aa0a0f8098c79e9f75633879a2a612bc3",
      "assetIds": [
        "55464657044963196816950587289035428064568320970692304673817341489687790884865",
        "55464657044963196816950587289035428064568320970692304673817341489687782494208",
        "55464657044963196816950587289035428064568320970692304673817341489687790884866",
        "55464657044963196816950587289035428064568320970692304673817341489687782494209",
        "55464657044963196816950587289035428064568320970692304673817341489687790884864"
      ]
    },
    {
      "x": 219,
      "y": 384,
      "size": 1,
      "price": "4683000000000000000000",
      "reserved": "",
      "salt": "0x0f7e9377895a9b3963832b0e063e318c74b2e367056266e43ad6c00c7a8a194c",
      "assetIds": [
        "55464657044963196816950587289035428064568320970692304673817341489687790884865",
        "55464657044963196816950587289035428064568320970692304673817341489687782494208",
        "55464657044963196816950587289035428064568320970692304673817341489687790884866",
        "55464657044963196816950587289035428064568320970692304673817341489687782494209",
        "55464657044963196816950587289035428064568320970692304673817341489687790884864"
      ]
    },
    {
      "x": 219,
      "y": 385,
      "size": 1,
      "price": "4683000000000000000000",
      "reserved": "",
      "salt": "0x1755a1d78d55cde43631d3357b97426e7678762f7681b355e4060192bab60781",
      "assetIds": [
        "55464657044963196816950587289035428064568320970692304673817341489687790884865",
        "55464657044963196816950587289035428064568320970692304673817341489687782494208",
        "55464657044963196816950587289035428064568320970692304673817341489687790884866",
        "55464657044963196816950587289035428064568320970692304673817341489687782494209",
        "55464657044963196816950587289035428064568320970692304673817341489687790884864"
      ]
    },
    {
      "x": 219,
      "y": 386,
      "size": 1,
      "price": "4683000000000000000000",
      "reserved": "",
      "salt": "0xddfade3a56f6d5f1effd5c82c29b6efb7ac4283a834a5b07196ca1da0084fd3a",
      "assetIds": [
        "55464657044963196816950587289035428064568320970692304673817341489687790884865",
        "55464657044963196816950587289035428064568320970692304673817341489687782494208",
        "55464657044963196816950587289035428064568320970692304673817341489687790884866",
        "55464657044963196816950587289035428064568320970692304673817341489687782494209",
        "55464657044963196816950587289035428064568320970692304673817341489687790884864"
      ]
    },
    {
      "x": 219,
      "y": 387,
      "size": 1,
      "price": "1011000000000000000000",
      "reserved": "0x7a9fe22691c811ea339d9b73150e6911a5343dca",
      "salt": "0x7bdcd19cdbbcf90e9fe68a8554c3ad95d1355c0c49ecdc282bae8d3dcbd28750",
      "assetIds": []
    },
    {
      "x": 219,
      "y": 388,
      "size": 1,
      "price": "1011000000000000000000",
      "reserved": "",
      "salt": "0x246d34f70974214efc9e4ff0a7bce653d4f7ff37dda9b0ff8746f604cc62025b",
      "assetIds": []
    },
    {
      "x": 219,
      "y": 389,
      "size": 1,
      "price": "1011000000000000000000",
      "reserved": "",
      "salt": "0x323ea8a6acf4adc282111b6bdb2988aac0add49c06d5a1c064144d855762379d",
      "assetIds": []
    },
    {
      "x": 219,
      "y": 390,
      "size": 1,
      "price": "1011000000000000000000",
      "reserved": "",
      "salt": "0xa19af1ba3cfd87bdf4fc9c01f14f7507799d4616ea9e5547197fb45ebcd49db8",
      "assetIds": []
    },
    {
      "x": 219,
      "y": 391,
      "size": 1,
      "price": "1011000000000000000000",
      "reserved": "",
      "salt": "0x0ecf40235b10139c96e9733e7e7ace7fe4aa6ca9ae6608ae55bce67a7e1da1a2",
      "assetIds": []
    },
    {
      "x": 219,
      "y": 392,
      "size": 1,
      "price": "1011000000000000000000",
      "reserved": "",
      "salt": "0x8249025a8c0c972e38814c66b35b7207fea09f0544dafb47aafaddc0c1ee9b2b",
      "assetIds": []
    },
    {
      "x": 219,
      "y": 393,
      "size": 1,
      "price": "1011000000000000000000",
      "reserved": "",
      "salt": "0xe9eaca632895c33f9ca21cc7679910733cef6ca722402ee60a2fa11d13b1da0f",
      "assetIds": []
    },
    {
      "x": 219,
      "y": 394,
      "size": 1,
      "price": "1011000000000000000000",
      "reserved": "",
      "salt": "0x1fd4bc67efa0b9b5d40981924e4b5f3351128c9f18bfa3dafa8993c337354e21",
      "assetIds": []
    },
    {
      "x": 219,
      "y": 395,
      "size": 1,
      "price": "1011000000000000000000",
      "reserved": "",
      "salt": "0x8b5b46efbb8ffa3a018f58c2639069d7f1bf63f459d47d65d559432336fca946",
      "assetIds": []
    },
    {
      "x": 219,
      "y": 396,
      "size": 1,
      "price": "1011000000000000000000",
      "reserved": "",
      "salt": "0x9802f4d54333f1456807426b9eed5cacead98771b9993d5a403bc91f04b2d044",
      "assetIds": []
    },
    {
      "x": 219,
      "y": 397,
      "size": 1,
      "price": "1011000000000000000000",
      "reserved": "",
      "salt": "0xbfbe0c600ca130760b6185747bf927a5d1406c0da11d9d01b67c393e7b614fb7",
      "assetIds": []
    },
    {
      "x": 219,
      "y": 398,
      "size": 1,
      "price": "1011000000000000000000",
      "reserved": "",
      "salt": "0x4f16f1e79eb934e0013066fb4fc3ef4da7c2673e88e11add23fd260b07f0d65f",
      "assetIds": []
    },
    {
      "x": 219,
      "y": 399,
      "size": 1,
      "price": "1011000000000000000000",
      "reserved": "",
      "salt": "0xcd60f6fd9724862dde5e5c470d2ba612fff6160f623a01d987dff03adeffd311",
      "assetIds": []
    },
    {
      "x": 220,
      "y": 357,
      "size": 1,
      "price": "1011000000000000000000",
      "reserved": "",
      "salt": "0x61e3942076bb479d06dd13c78e9f43edf11a41edb11f9b0db9294e4b26f225e8",
      "assetIds": []
    },
    {
      "x": 220,
      "y": 358,
      "size": 1,
      "price": "4683000000000000000000",
      "reserved": "",
      "salt": "0xb22815df05e39ffe175b03e9d7715d02ec96e43fefecd92cfa50fc7abce4877d",
      "assetIds": [
        "55464657044963196816950587289035428064568320970692304673817341489687790884865",
        "55464657044963196816950587289035428064568320970692304673817341489687782494208",
        "55464657044963196816950587289035428064568320970692304673817341489687790884866",
        "55464657044963196816950587289035428064568320970692304673817341489687782494209",
        "55464657044963196816950587289035428064568320970692304673817341489687790884864"
      ]
    },
    {
      "x": 220,
      "y": 359,
      "size": 1,
      "price": "4683000000000000000000",
      "reserved": "",
      "salt": "0x67b9d3aa014aecb154a5ee8a240bc4e13ae79040c7c952bf4a54931c886c9134",
      "assetIds": [
        "55464657044963196816950587289035428064568320970692304673817341489687790884865",
        "55464657044963196816950587289035428064568320970692304673817341489687782494208",
        "55464657044963196816950587289035428064568320970692304673817341489687790884866",
        "55464657044963196816950587289035428064568320970692304673817341489687782494209",
        "55464657044963196816950587289035428064568320970692304673817341489687790884864"
      ]
    },
    {
      "x": 220,
      "y": 384,
      "size": 1,
      "price": "4683000000000000000000",
      "reserved": "",
      "salt": "0x4492ca9868589a74343b26d21451ef7a820f6f936e1d9ccd5745e0c804274f23",
      "assetIds": [
        "55464657044963196816950587289035428064568320970692304673817341489687790884865",
        "55464657044963196816950587289035428064568320970692304673817341489687782494208",
        "55464657044963196816950587289035428064568320970692304673817341489687790884866",
        "55464657044963196816950587289035428064568320970692304673817341489687782494209",
        "55464657044963196816950587289035428064568320970692304673817341489687790884864"
      ]
    },
    {
      "x": 220,
      "y": 385,
      "size": 1,
      "price": "4683000000000000000000",
      "reserved": "",
      "salt": "0x0c7b134cad34ec2a315d8645b5434f625bd71e73bf8a4ebf228a1f239733b11b",
      "assetIds": [
        "55464657044963196816950587289035428064568320970692304673817341489687790884865",
        "55464657044963196816950587289035428064568320970692304673817341489687782494208",
        "55464657044963196816950587289035428064568320970692304673817341489687790884866",
        "55464657044963196816950587289035428064568320970692304673817341489687782494209",
        "55464657044963196816950587289035428064568320970692304673817341489687790884864"
      ]
    },
    {
      "x": 220,
      "y": 386,
      "size": 1,
      "price": "4683000000000000000000",
      "reserved": "",
      "salt": "0xfa857e2a72a60363eb7db66148d4aa08a46676f9e26691df7b489d461dde8a8f",
      "assetIds": [
        "55464657044963196816950587289035428064568320970692304673817341489687790884865",
        "55464657044963196816950587289035428064568320970692304673817341489687782494208",
        "55464657044963196816950587289035428064568320970692304673817341489687790884866",
        "55464657044963196816950587289035428064568320970692304673817341489687782494209",
        "55464657044963196816950587289035428064568320970692304673817341489687790884864"
      ]
    },
    {
      "x": 220,
      "y": 387,
      "size": 1,
      "price": "1011000000000000000000",
      "reserved": "",
      "salt": "0xc2a36f76dcaa7216ea2b823dfa8ea8d6cc8f797edee67ad27a9a7600af028e3e",
      "assetIds": []
    },
    {
      "x": 220,
      "y": 388,
      "size": 1,
      "price": "1011000000000000000000",
      "reserved": "",
      "salt": "0x9f09a6236426e8e3c039af94473f8c8f75ff916256a2e4fe3753e75a03c60800",
      "assetIds": []
    },
    {
      "x": 220,
      "y": 389,
      "size": 1,
      "price": "1011000000000000000000",
      "reserved": "",
      "salt": "0x2375a939a88fb6a0b312c48018341b24920c4caa1d49bc6394bc8802dad67403",
      "assetIds": []
    },
    {
      "x": 220,
      "y": 390,
      "size": 1,
      "price": "1011000000000000000000",
      "reserved": "0x7a9fe22691c811ea339d9b73150e6911a5343dca",
      "salt": "0x7a3f1e33bfd596bbbd93ed5b864ef17225f8c569997d88ea60faf0429ddc9c94",
      "assetIds": []
    },
    {
      "x": 220,
      "y": 391,
      "size": 1,
      "price": "1011000000000000000000",
      "reserved": "",
      "salt": "0xfb71f6ebb84883b4a8f7a9aa481bea16cf30732f78b2f8005306d0c9c6aeb125",
      "assetIds": []
    },
    {
      "x": 220,
      "y": 392,
      "size": 1,
      "price": "1011000000000000000000",
      "reserved": "0x7a9fe22691c811ea339d9b73150e6911a5343dca",
      "salt": "0x1cde734584e093bae2ccc45182dd29b46f2213f4afdaa61a4d127a85d508692c",
      "assetIds": []
    },
    {
      "x": 221,
      "y": 357,
      "size": 1,
      "price": "1011000000000000000000",
      "reserved": "",
      "salt": "0x0dc162bd3b7c3744cae6ad1548fe995d72dabe83a87d80f3d24e7b1be5299a0f",
      "assetIds": []
    },
    {
      "x": 221,
      "y": 358,
      "size": 1,
      "price": "4683000000000000000000",
      "reserved": "",
      "salt": "0x51be0065cd13a2ed805d060acc0d2f2a956a288de96dccc07f682a9ca50262d9",
      "assetIds": [
        "55464657044963196816950587289035428064568320970692304673817341489687790884865",
        "55464657044963196816950587289035428064568320970692304673817341489687782494208",
        "55464657044963196816950587289035428064568320970692304673817341489687790884866",
        "55464657044963196816950587289035428064568320970692304673817341489687782494209",
        "55464657044963196816950587289035428064568320970692304673817341489687790884864"
      ]
    },
    {
      "x": 221,
      "y": 359,
      "size": 1,
      "price": "4683000000000000000000",
      "reserved": "",
      "salt": "0x778f0ab26f446faef91d05737078a56bd9104195358f5077b18115dd0f80f186",
      "assetIds": [
        "55464657044963196816950587289035428064568320970692304673817341489687790884865",
        "55464657044963196816950587289035428064568320970692304673817341489687782494208",
        "55464657044963196816950587289035428064568320970692304673817341489687790884866",
        "55464657044963196816950587289035428064568320970692304673817341489687782494209",
        "55464657044963196816950587289035428064568320970692304673817341489687790884864"
      ]
    },
    {
      "x": 221,
      "y": 384,
      "size": 1,
      "price": "4683000000000000000000",
      "reserved": "",
      "salt": "0x013b6aaa6d654a5e90c04f0443fd35e6797aac2346faf2c1cf5d1b15ae8e959e",
      "assetIds": [
        "55464657044963196816950587289035428064568320970692304673817341489687790884865",
        "55464657044963196816950587289035428064568320970692304673817341489687782494208",
        "55464657044963196816950587289035428064568320970692304673817341489687790884866",
        "55464657044963196816950587289035428064568320970692304673817341489687782494209",
        "55464657044963196816950587289035428064568320970692304673817341489687790884864"
      ]
    },
    {
      "x": 221,
      "y": 385,
      "size": 1,
      "price": "4683000000000000000000",
      "reserved": "",
      "salt": "0xd2a4735edeefb6dac9d380b1d4eb6b97690956c06779dd7f94cde564aacb2df3",
      "assetIds": [
        "55464657044963196816950587289035428064568320970692304673817341489687790884865",
        "55464657044963196816950587289035428064568320970692304673817341489687782494208",
        "55464657044963196816950587289035428064568320970692304673817341489687790884866",
        "55464657044963196816950587289035428064568320970692304673817341489687782494209",
        "55464657044963196816950587289035428064568320970692304673817341489687790884864"
      ]
    },
    {
      "x": 221,
      "y": 386,
      "size": 1,
      "price": "4683000000000000000000",
      "reserved": "",
      "salt": "0xe6f5c251e76af4e5a5d7c97532d3636a1d4e20de6d2609baee681171023250e0",
      "assetIds": [
        "55464657044963196816950587289035428064568320970692304673817341489687790884865",
        "55464657044963196816950587289035428064568320970692304673817341489687782494208",
        "55464657044963196816950587289035428064568320970692304673817341489687790884866",
        "55464657044963196816950587289035428064568320970692304673817341489687782494209",
        "55464657044963196816950587289035428064568320970692304673817341489687790884864"
      ]
    },
    {
      "x": 221,
      "y": 387,
      "size": 1,
      "price": "1011000000000000000000",
      "reserved": "",
      "salt": "0x190eb114cc37059d209910d29d618c20be26da209bcc06874846d3ab190d0fb1",
      "assetIds": []
    },
    {
      "x": 221,
      "y": 388,
      "size": 1,
      "price": "1011000000000000000000",
      "reserved": "",
      "salt": "0x0ec6b6844b805af523ee7eaaeda62651171ec3b5dc633d02ed975b58b4b9e510",
      "assetIds": []
    },
    {
      "x": 221,
      "y": 389,
      "size": 1,
      "price": "1011000000000000000000",
      "reserved": "0x7a9fe22691c811ea339d9b73150e6911a5343dca",
      "salt": "0x260ea926c8b48b8692199a236bb2a54fac6ba3962d9012accefaa43cd7920921",
      "assetIds": []
    },
    {
      "x": 221,
      "y": 390,
      "size": 1,
      "price": "1011000000000000000000",
      "reserved": "",
      "salt": "0xc01b462de41166e06fd290ffb822a4582d25c4e19b051603cc0ee464f75b9e73",
      "assetIds": []
    },
    {
      "x": 221,
      "y": 391,
      "size": 1,
      "price": "1011000000000000000000",
      "reserved": "",
      "salt": "0xfa63055eafbc4d5f2f099f08a70ad151d47a29d08f94e14e766d7f89c42777ec",
      "assetIds": []
    },
    {
      "x": 222,
      "y": 357,
      "size": 1,
      "price": "1011000000000000000000",
      "reserved": "",
      "salt": "0x5403129156cadb02986e1545ee169ef1d1ad3737923194ccda376f3c6f4a2bee",
      "assetIds": []
    },
    {
      "x": 222,
      "y": 358,
      "size": 1,
      "price": "4683000000000000000000",
      "reserved": "",
      "salt": "0x615aeef8dd700eabf93038d0644ba9104e6f60d0831ce2d31313339eb305c949",
      "assetIds": [
        "55464657044963196816950587289035428064568320970692304673817341489687790884865",
        "55464657044963196816950587289035428064568320970692304673817341489687782494208",
        "55464657044963196816950587289035428064568320970692304673817341489687790884866",
        "55464657044963196816950587289035428064568320970692304673817341489687782494209",
        "55464657044963196816950587289035428064568320970692304673817341489687790884864"
      ]
    },
    {
      "x": 222,
      "y": 359,
      "size": 1,
      "price": "4683000000000000000000",
      "reserved": "",
      "salt": "0x875306caa67eb8df296c3f1c2c8fc8d609ab4f2e3214097d20707d665687db7e",
      "assetIds": [
        "55464657044963196816950587289035428064568320970692304673817341489687790884865",
        "55464657044963196816950587289035428064568320970692304673817341489687782494208",
        "55464657044963196816950587289035428064568320970692304673817341489687790884866",
        "55464657044963196816950587289035428064568320970692304673817341489687782494209",
        "55464657044963196816950587289035428064568320970692304673817341489687790884864"
      ]
    },
    {
      "x": 222,
      "y": 384,
      "size": 1,
      "price": "4683000000000000000000",
      "reserved": "",
      "salt": "0x3b9b71407b2c8321ae694fb001bf6a84880db36128e0bdf6cbae850672a0b172",
      "assetIds": [
        "55464657044963196816950587289035428064568320970692304673817341489687790884865",
        "55464657044963196816950587289035428064568320970692304673817341489687782494208",
        "55464657044963196816950587289035428064568320970692304673817341489687790884866",
        "55464657044963196816950587289035428064568320970692304673817341489687782494209",
        "55464657044963196816950587289035428064568320970692304673817341489687790884864"
      ]
    },
    {
      "x": 222,
      "y": 385,
      "size": 1,
      "price": "4683000000000000000000",
      "reserved": "",
      "salt": "0x949fd86543a81ba2b6bb642664c991c27aea3ec0c067acebd03088b06ac0163d",
      "assetIds": [
        "55464657044963196816950587289035428064568320970692304673817341489687790884865",
        "55464657044963196816950587289035428064568320970692304673817341489687782494208",
        "55464657044963196816950587289035428064568320970692304673817341489687790884866",
        "55464657044963196816950587289035428064568320970692304673817341489687782494209",
        "55464657044963196816950587289035428064568320970692304673817341489687790884864"
      ]
    },
    {
      "x": 222,
      "y": 386,
      "size": 1,
      "price": "4683000000000000000000",
      "reserved": "",
      "salt": "0x78f0113f04e9db4682fc9f939968341d1d7d63d3bfbebdf8bfea974ce7485010",
      "assetIds": [
        "55464657044963196816950587289035428064568320970692304673817341489687790884865",
        "55464657044963196816950587289035428064568320970692304673817341489687782494208",
        "55464657044963196816950587289035428064568320970692304673817341489687790884866",
        "55464657044963196816950587289035428064568320970692304673817341489687782494209",
        "55464657044963196816950587289035428064568320970692304673817341489687790884864"
      ]
    },
    {
      "x": 222,
      "y": 387,
      "size": 1,
      "price": "1011000000000000000000",
      "reserved": "",
      "salt": "0xfb3f1535f81fa955790cc891e733f6d801750359b6e800a5d7778c3c7cb69fe4",
      "assetIds": []
    },
    {
      "x": 222,
      "y": 388,
      "size": 1,
      "price": "1011000000000000000000",
      "reserved": "",
      "salt": "0x3d7b394e4614dd3285e37332ae316a7ae6e292103e5fc06220627fe4f262db38",
      "assetIds": []
    },
    {
      "x": 222,
      "y": 389,
      "size": 1,
      "price": "1011000000000000000000",
      "reserved": "",
      "salt": "0x4c3ad9b21bfb52ad7f2a1f00d1f2205a25d312f4594885b74ff0899e583b8585",
      "assetIds": []
    },
    {
      "x": 222,
      "y": 390,
      "size": 1,
      "price": "1011000000000000000000",
      "reserved": "",
      "salt": "0x1fed15062d4ae7350d3296cc8e5fada6fce310dcd26db708d0c2c9b5a88c1655",
      "assetIds": []
    },
    {
      "x": 222,
      "y": 391,
      "size": 1,
      "price": "1011000000000000000000",
      "reserved": "",
      "salt": "0x66fbffbc61505cf5e085c3d90a2fc2bfab77c961fc68aa3be5a704b1ab57af7a",
      "assetIds": []
    },
    {
      "x": 223,
      "y": 357,
      "size": 1,
      "price": "1011000000000000000000",
      "reserved": "",
      "salt": "0xd34e9f03012a5b1b20538bad94a9178d1f58ffcd22bd83bd41be5c6b09eb581a",
      "assetIds": []
    },
    {
      "x": 223,
      "y": 358,
      "size": 1,
      "price": "4683000000000000000000",
      "reserved": "",
      "salt": "0xa0f8dc7187d65459950a34e7323d8052b673913d21ee25516b72755d506a096b",
      "assetIds": [
        "55464657044963196816950587289035428064568320970692304673817341489687790884865",
        "55464657044963196816950587289035428064568320970692304673817341489687782494208",
        "55464657044963196816950587289035428064568320970692304673817341489687790884866",
        "55464657044963196816950587289035428064568320970692304673817341489687782494209",
        "55464657044963196816950587289035428064568320970692304673817341489687790884864"
      ]
    },
    {
      "x": 223,
      "y": 359,
      "size": 1,
      "price": "4683000000000000000000",
      "reserved": "",
      "salt": "0x03f8f3e202206aadc77e0726703983a5c4d28a2b26b2ae97d98807b16bf4f155",
      "assetIds": [
        "55464657044963196816950587289035428064568320970692304673817341489687790884865",
        "55464657044963196816950587289035428064568320970692304673817341489687782494208",
        "55464657044963196816950587289035428064568320970692304673817341489687790884866",
        "55464657044963196816950587289035428064568320970692304673817341489687782494209",
        "55464657044963196816950587289035428064568320970692304673817341489687790884864"
      ]
    },
    {
      "x": 223,
      "y": 384,
      "size": 1,
      "price": "4683000000000000000000",
      "reserved": "",
      "salt": "0xc5cbce8840747156f83d20204b2d94674cf487d007e180175b9408dbf5e357e2",
      "assetIds": [
        "55464657044963196816950587289035428064568320970692304673817341489687790884865",
        "55464657044963196816950587289035428064568320970692304673817341489687782494208",
        "55464657044963196816950587289035428064568320970692304673817341489687790884866",
        "55464657044963196816950587289035428064568320970692304673817341489687782494209",
        "55464657044963196816950587289035428064568320970692304673817341489687790884864"
      ]
    },
    {
      "x": 223,
      "y": 385,
      "size": 1,
      "price": "4683000000000000000000",
      "reserved": "",
      "salt": "0xc3774ad7a50b68f71db04b1b4752df33fbe54c679e845a350785a2a0463b5a39",
      "assetIds": [
        "55464657044963196816950587289035428064568320970692304673817341489687790884865",
        "55464657044963196816950587289035428064568320970692304673817341489687782494208",
        "55464657044963196816950587289035428064568320970692304673817341489687790884866",
        "55464657044963196816950587289035428064568320970692304673817341489687782494209",
        "55464657044963196816950587289035428064568320970692304673817341489687790884864"
      ]
    },
    {
      "x": 223,
      "y": 386,
      "size": 1,
      "price": "4683000000000000000000",
      "reserved": "",
      "salt": "0xeea2c917e9c0f43cf3ea4cf65af4bb13cc4c011efd3b484636ac9948887ace17",
      "assetIds": [
        "55464657044963196816950587289035428064568320970692304673817341489687790884865",
        "55464657044963196816950587289035428064568320970692304673817341489687782494208",
        "55464657044963196816950587289035428064568320970692304673817341489687790884866",
        "55464657044963196816950587289035428064568320970692304673817341489687782494209",
        "55464657044963196816950587289035428064568320970692304673817341489687790884864"
      ]
    },
    {
      "x": 223,
      "y": 387,
      "size": 1,
      "price": "4683000000000000000000",
      "reserved": "",
      "salt": "0x12b3ddfd93615d07557b10bab948dafd581cab098406efc83a3a6092a01f1816",
      "assetIds": [
        "55464657044963196816950587289035428064568320970692304673817341489687790884865",
        "55464657044963196816950587289035428064568320970692304673817341489687782494208",
        "55464657044963196816950587289035428064568320970692304673817341489687790884866",
        "55464657044963196816950587289035428064568320970692304673817341489687782494209",
        "55464657044963196816950587289035428064568320970692304673817341489687790884864"
      ]
    },
    {
      "x": 223,
      "y": 388,
      "size": 1,
      "price": "4683000000000000000000",
      "reserved": "",
      "salt": "0xf04ed919ef10c418d48bf378e8a1cc6880b4c6bbca7b4e04ed220a2e17bd71db",
      "assetIds": [
        "55464657044963196816950587289035428064568320970692304673817341489687790884865",
        "55464657044963196816950587289035428064568320970692304673817341489687782494208",
        "55464657044963196816950587289035428064568320970692304673817341489687790884866",
        "55464657044963196816950587289035428064568320970692304673817341489687782494209",
        "55464657044963196816950587289035428064568320970692304673817341489687790884864"
      ]
    },
    {
      "x": 223,
      "y": 389,
      "size": 1,
      "price": "1011000000000000000000",
      "reserved": "",
      "salt": "0x58cb59fc998d25cc8956727d1c13a47816947fcd83f244448b1071ec0052ee2e",
      "assetIds": []
    },
    {
      "x": 223,
      "y": 390,
      "size": 1,
      "price": "1011000000000000000000",
      "reserved": "",
      "salt": "0x23b6963e3f78d8a55a53fcf602228a85bf467ece7d06509b550c072efc5a65b8",
      "assetIds": []
    },
    {
      "x": 223,
      "y": 391,
      "size": 1,
      "price": "1011000000000000000000",
      "reserved": "",
      "salt": "0xa112cf57a9c08edd9cfe4eafb83a445faa9ec13e3ba1166de32cb62072d8c85f",
      "assetIds": []
    },
    {
      "x": 224,
      "y": 357,
      "size": 1,
      "price": "1011000000000000000000",
      "reserved": "",
      "salt": "0x058188f4ef2e07637a2e21aee27113755344e4b83c0eedf74db70333fd9d03b9",
      "assetIds": []
    },
    {
      "x": 224,
      "y": 358,
      "size": 1,
      "price": "4683000000000000000000",
      "reserved": "",
      "salt": "0x44442234cb404045c89e3acbf3c9282d34fc950e587a2bbec85060b1d2c627a0",
      "assetIds": [
        "55464657044963196816950587289035428064568320970692304673817341489687790884865",
        "55464657044963196816950587289035428064568320970692304673817341489687782494208",
        "55464657044963196816950587289035428064568320970692304673817341489687790884866",
        "55464657044963196816950587289035428064568320970692304673817341489687782494209",
        "55464657044963196816950587289035428064568320970692304673817341489687790884864"
      ]
    },
    {
      "x": 224,
      "y": 359,
      "size": 1,
      "price": "4683000000000000000000",
      "reserved": "",
      "salt": "0xc1d722465addc14522f8184f565e293107ed341e4c17b072b0b35037431bc4ef",
      "assetIds": [
        "55464657044963196816950587289035428064568320970692304673817341489687790884865",
        "55464657044963196816950587289035428064568320970692304673817341489687782494208",
        "55464657044963196816950587289035428064568320970692304673817341489687790884866",
        "55464657044963196816950587289035428064568320970692304673817341489687782494209",
        "55464657044963196816950587289035428064568320970692304673817341489687790884864"
      ]
    },
    {
      "x": 224,
      "y": 384,
      "size": 1,
      "price": "4683000000000000000000",
      "reserved": "",
      "salt": "0xa12b10ef5e5f805e24da41f6300a295f74bf9f46827bcce37958c2e421840c14",
      "assetIds": [
        "55464657044963196816950587289035428064568320970692304673817341489687790884865",
        "55464657044963196816950587289035428064568320970692304673817341489687782494208",
        "55464657044963196816950587289035428064568320970692304673817341489687790884866",
        "55464657044963196816950587289035428064568320970692304673817341489687782494209",
        "55464657044963196816950587289035428064568320970692304673817341489687790884864"
      ]
    },
    {
      "x": 224,
      "y": 385,
      "size": 1,
      "price": "4683000000000000000000",
      "reserved": "",
      "salt": "0x8cd31daab8ed61b753ea5b12cf23da94bee9e4be128a78a12462f7072d86c5a2",
      "assetIds": [
        "55464657044963196816950587289035428064568320970692304673817341489687790884865",
        "55464657044963196816950587289035428064568320970692304673817341489687782494208",
        "55464657044963196816950587289035428064568320970692304673817341489687790884866",
        "55464657044963196816950587289035428064568320970692304673817341489687782494209",
        "55464657044963196816950587289035428064568320970692304673817341489687790884864"
      ]
    },
    {
      "x": 224,
      "y": 386,
      "size": 1,
      "price": "4683000000000000000000",
      "reserved": "",
      "salt": "0x4bf6e3f9e65ed9298fca40d88878e323ae2cba84eecc7bd3993e9cda723de804",
      "assetIds": [
        "55464657044963196816950587289035428064568320970692304673817341489687790884865",
        "55464657044963196816950587289035428064568320970692304673817341489687782494208",
        "55464657044963196816950587289035428064568320970692304673817341489687790884866",
        "55464657044963196816950587289035428064568320970692304673817341489687782494209",
        "55464657044963196816950587289035428064568320970692304673817341489687790884864"
      ]
    },
    {
      "x": 224,
      "y": 387,
      "size": 1,
      "price": "4683000000000000000000",
      "reserved": "",
      "salt": "0xc3862a95e11963d19457a63b2d494a2cb2717d34699fff9c3353c36a7dcb9707",
      "assetIds": [
        "55464657044963196816950587289035428064568320970692304673817341489687790884865",
        "55464657044963196816950587289035428064568320970692304673817341489687782494208",
        "55464657044963196816950587289035428064568320970692304673817341489687790884866",
        "55464657044963196816950587289035428064568320970692304673817341489687782494209",
        "55464657044963196816950587289035428064568320970692304673817341489687790884864"
      ]
    },
    {
      "x": 224,
      "y": 388,
      "size": 1,
      "price": "4683000000000000000000",
      "reserved": "",
      "salt": "0x5a5fcf618fb6789a54d9532e32572196161c3a3ecc972e9a702f7485ad57855d",
      "assetIds": [
        "55464657044963196816950587289035428064568320970692304673817341489687790884865",
        "55464657044963196816950587289035428064568320970692304673817341489687782494208",
        "55464657044963196816950587289035428064568320970692304673817341489687790884866",
        "55464657044963196816950587289035428064568320970692304673817341489687782494209",
        "55464657044963196816950587289035428064568320970692304673817341489687790884864"
      ]
    },
    {
      "x": 224,
      "y": 389,
      "size": 1,
      "price": "1011000000000000000000",
      "reserved": "",
      "salt": "0xb4e9beec9ca7a20896e8f6318f8fbeedfc043d9e3683b6c46f3b12b4b8e202d3",
      "assetIds": []
    },
    {
      "x": 224,
      "y": 390,
      "size": 1,
      "price": "1011000000000000000000",
      "reserved": "",
      "salt": "0xa9af16c78122d88758c85693e4a8b445147f6383999ebc5524bbbfa95a38577b",
      "assetIds": []
    },
    {
      "x": 224,
      "y": 391,
      "size": 1,
      "price": "1011000000000000000000",
      "reserved": "",
      "salt": "0xa6e72401f4fb529be23e5ea366a329a0dc973b83efe638744f532c0af874a1cc",
      "assetIds": []
    },
    {
      "x": 225,
      "y": 357,
      "size": 1,
      "price": "1011000000000000000000",
      "reserved": "",
      "salt": "0x3e09e29b13804c438725e0c6069deb2375ad275d9ece3a780dc84ce0996b83d8",
      "assetIds": []
    },
    {
      "x": 225,
      "y": 358,
      "size": 1,
      "price": "4683000000000000000000",
      "reserved": "",
      "salt": "0xd4ef3a91a61b52f1942f78aa344a1a815274e29ec0d58fcad6f5fd9850f14e69",
      "assetIds": [
        "55464657044963196816950587289035428064568320970692304673817341489687790884865",
        "55464657044963196816950587289035428064568320970692304673817341489687782494208",
        "55464657044963196816950587289035428064568320970692304673817341489687790884866",
        "55464657044963196816950587289035428064568320970692304673817341489687782494209",
        "55464657044963196816950587289035428064568320970692304673817341489687790884864"
      ]
    },
    {
      "x": 225,
      "y": 359,
      "size": 1,
      "price": "4683000000000000000000",
      "reserved": "",
      "salt": "0xc12ace7b0afa350e541cb48ce93807ac8557beb8d24b0d4bfb62b9eadce1a8be",
      "assetIds": [
        "55464657044963196816950587289035428064568320970692304673817341489687790884865",
        "55464657044963196816950587289035428064568320970692304673817341489687782494208",
        "55464657044963196816950587289035428064568320970692304673817341489687790884866",
        "55464657044963196816950587289035428064568320970692304673817341489687782494209",
        "55464657044963196816950587289035428064568320970692304673817341489687790884864"
      ]
    },
    {
      "x": 225,
      "y": 384,
      "size": 1,
      "price": "4683000000000000000000",
      "reserved": "",
      "salt": "0x86fd7901d467adf31d07c440b4b62db77bc7a5b49824336735b3f7db15fb1eef",
      "assetIds": [
        "55464657044963196816950587289035428064568320970692304673817341489687790884865",
        "55464657044963196816950587289035428064568320970692304673817341489687782494208",
        "55464657044963196816950587289035428064568320970692304673817341489687790884866",
        "55464657044963196816950587289035428064568320970692304673817341489687782494209",
        "55464657044963196816950587289035428064568320970692304673817341489687790884864"
      ]
    },
    {
      "x": 225,
      "y": 385,
      "size": 1,
      "price": "4683000000000000000000",
      "reserved": "",
      "salt": "0xe467bceba0909c52a59a53a04ba28f2cc4a331a05e9e30b3f73dcee56506e022",
      "assetIds": [
        "55464657044963196816950587289035428064568320970692304673817341489687790884865",
        "55464657044963196816950587289035428064568320970692304673817341489687782494208",
        "55464657044963196816950587289035428064568320970692304673817341489687790884866",
        "55464657044963196816950587289035428064568320970692304673817341489687782494209",
        "55464657044963196816950587289035428064568320970692304673817341489687790884864"
      ]
    },
    {
      "x": 225,
      "y": 386,
      "size": 1,
      "price": "4683000000000000000000",
      "reserved": "",
      "salt": "0x6cbd2b099927eb4b1a8410ddc3e9a9a3353b4e0907cab13aad141421e61d7840",
      "assetIds": [
        "55464657044963196816950587289035428064568320970692304673817341489687790884865",
        "55464657044963196816950587289035428064568320970692304673817341489687782494208",
        "55464657044963196816950587289035428064568320970692304673817341489687790884866",
        "55464657044963196816950587289035428064568320970692304673817341489687782494209",
        "55464657044963196816950587289035428064568320970692304673817341489687790884864"
      ]
    },
    {
      "x": 225,
      "y": 387,
      "size": 1,
      "price": "4683000000000000000000",
      "reserved": "",
      "salt": "0x000f26ce3b87021193587f659639d38def9694d0e8cc2f94e16193eaec1208f7",
      "assetIds": [
        "55464657044963196816950587289035428064568320970692304673817341489687790884865",
        "55464657044963196816950587289035428064568320970692304673817341489687782494208",
        "55464657044963196816950587289035428064568320970692304673817341489687790884866",
        "55464657044963196816950587289035428064568320970692304673817341489687782494209",
        "55464657044963196816950587289035428064568320970692304673817341489687790884864"
      ]
    },
    {
      "x": 225,
      "y": 388,
      "size": 1,
      "price": "4683000000000000000000",
      "reserved": "",
      "salt": "0x6f4ef11a049b868ccab7e882894ef6ab99f0667269fdb804c52c1cd24c3fdb52",
      "assetIds": [
        "55464657044963196816950587289035428064568320970692304673817341489687790884865",
        "55464657044963196816950587289035428064568320970692304673817341489687782494208",
        "55464657044963196816950587289035428064568320970692304673817341489687790884866",
        "55464657044963196816950587289035428064568320970692304673817341489687782494209",
        "55464657044963196816950587289035428064568320970692304673817341489687790884864"
      ]
    },
    {
      "x": 225,
      "y": 389,
      "size": 1,
      "price": "4683000000000000000000",
      "reserved": "",
      "salt": "0x1da7728ac15cd6489c38ff4a1d1778ca817c18443dbb3efe925bad42b47b1716",
      "assetIds": [
        "55464657044963196816950587289035428064568320970692304673817341489687790884865",
        "55464657044963196816950587289035428064568320970692304673817341489687782494208",
        "55464657044963196816950587289035428064568320970692304673817341489687790884866",
        "55464657044963196816950587289035428064568320970692304673817341489687782494209",
        "55464657044963196816950587289035428064568320970692304673817341489687790884864"
      ]
    },
    {
      "x": 225,
      "y": 390,
      "size": 1,
      "price": "1011000000000000000000",
      "reserved": "",
      "salt": "0x70f334b1f9a48a0c30181efc7b8deda7afa09bdb263fd114f8ad597d118619cd",
      "assetIds": []
    },
    {
      "x": 225,
      "y": 391,
      "size": 1,
      "price": "1011000000000000000000",
      "reserved": "",
      "salt": "0xbab79e91a0bb4e40f920c87f2de497c268db009121071494a1419267ca638285",
      "assetIds": []
    },
    {
      "x": 226,
      "y": 357,
      "size": 1,
      "price": "1011000000000000000000",
      "reserved": "",
      "salt": "0x3585e5f4d7580154b03b79707a08897f3feb19f4423a8a88a26ae0fd9e8e4b6e",
      "assetIds": []
    },
    {
      "x": 226,
      "y": 358,
      "size": 1,
      "price": "4683000000000000000000",
      "reserved": "",
      "salt": "0x332c81275b67051eb9d83569761751898a2cd3d917ef8244edb06ea8b74a2a5c",
      "assetIds": [
        "55464657044963196816950587289035428064568320970692304673817341489687790884865",
        "55464657044963196816950587289035428064568320970692304673817341489687782494208",
        "55464657044963196816950587289035428064568320970692304673817341489687790884866",
        "55464657044963196816950587289035428064568320970692304673817341489687782494209",
        "55464657044963196816950587289035428064568320970692304673817341489687790884864"
      ]
    },
    {
      "x": 226,
      "y": 359,
      "size": 1,
      "price": "4683000000000000000000",
      "reserved": "",
      "salt": "0x486f71609574cbe06b190248c4e686612af88509243d1fe9533d3bceabb54821",
      "assetIds": [
        "55464657044963196816950587289035428064568320970692304673817341489687790884865",
        "55464657044963196816950587289035428064568320970692304673817341489687782494208",
        "55464657044963196816950587289035428064568320970692304673817341489687790884866",
        "55464657044963196816950587289035428064568320970692304673817341489687782494209",
        "55464657044963196816950587289035428064568320970692304673817341489687790884864"
      ]
    },
    {
      "x": 226,
      "y": 384,
      "size": 1,
      "price": "4683000000000000000000",
      "reserved": "",
      "salt": "0xdedaacffbf3cbe012e9a2e3fdbbc25350bc38e1963fcad0bbc4c2fa171f03650",
      "assetIds": [
        "55464657044963196816950587289035428064568320970692304673817341489687790884865",
        "55464657044963196816950587289035428064568320970692304673817341489687782494208",
        "55464657044963196816950587289035428064568320970692304673817341489687790884866",
        "55464657044963196816950587289035428064568320970692304673817341489687782494209",
        "55464657044963196816950587289035428064568320970692304673817341489687790884864"
      ]
    },
    {
      "x": 226,
      "y": 385,
      "size": 1,
      "price": "4683000000000000000000",
      "reserved": "",
      "salt": "0x1bd600a367951bb46d5591b1faedad26ce454defdbf48e7a46d602790a925090",
      "assetIds": [
        "55464657044963196816950587289035428064568320970692304673817341489687790884865",
        "55464657044963196816950587289035428064568320970692304673817341489687782494208",
        "55464657044963196816950587289035428064568320970692304673817341489687790884866",
        "55464657044963196816950587289035428064568320970692304673817341489687782494209",
        "55464657044963196816950587289035428064568320970692304673817341489687790884864"
      ]
    },
    {
      "x": 226,
      "y": 386,
      "size": 1,
      "price": "4683000000000000000000",
      "reserved": "",
      "salt": "0xcab4fa14480641bfe09bf6ae7f5cba7a1566b51fda247aa9222a1f9a49c875a3",
      "assetIds": [
        "55464657044963196816950587289035428064568320970692304673817341489687790884865",
        "55464657044963196816950587289035428064568320970692304673817341489687782494208",
        "55464657044963196816950587289035428064568320970692304673817341489687790884866",
        "55464657044963196816950587289035428064568320970692304673817341489687782494209",
        "55464657044963196816950587289035428064568320970692304673817341489687790884864"
      ]
    },
    {
      "x": 226,
      "y": 387,
      "size": 1,
      "price": "1011000000000000000000",
      "reserved": "0x7a9fe22691c811ea339d9b73150e6911a5343dca",
      "salt": "0x1c0515bad501abc9c63e1894fc3268f3ee78ef12b19f4a1f518fef6098438088",
      "assetIds": []
    },
    {
      "x": 226,
      "y": 388,
      "size": 1,
      "price": "4683000000000000000000",
      "reserved": "",
      "salt": "0x61e7511bfaaba563fc99d12a7719535bb759b125a40a4daab1ac0ab733a0c471",
      "assetIds": [
        "55464657044963196816950587289035428064568320970692304673817341489687790884865",
        "55464657044963196816950587289035428064568320970692304673817341489687782494208",
        "55464657044963196816950587289035428064568320970692304673817341489687790884866",
        "55464657044963196816950587289035428064568320970692304673817341489687782494209",
        "55464657044963196816950587289035428064568320970692304673817341489687790884864"
      ]
    },
    {
      "x": 226,
      "y": 389,
      "size": 1,
      "price": "4683000000000000000000",
      "reserved": "",
      "salt": "0x6b57533a51313ff5e547303127482dfb18246189c9438023bd8087ddb6e10738",
      "assetIds": [
        "55464657044963196816950587289035428064568320970692304673817341489687790884865",
        "55464657044963196816950587289035428064568320970692304673817341489687782494208",
        "55464657044963196816950587289035428064568320970692304673817341489687790884866",
        "55464657044963196816950587289035428064568320970692304673817341489687782494209",
        "55464657044963196816950587289035428064568320970692304673817341489687790884864"
      ]
    },
    {
      "x": 226,
      "y": 390,
      "size": 1,
      "price": "1011000000000000000000",
      "reserved": "",
      "salt": "0xe80cb1c990ba44b911b921101ad55b92095af524b965087e64e921fb2900d764",
      "assetIds": []
    },
    {
      "x": 226,
      "y": 391,
      "size": 1,
      "price": "1011000000000000000000",
      "reserved": "",
      "salt": "0x2a79f804497f93e8ad648d3149ba3dd676a79dee0d57f8465b9b6496bc3d1d5d",
      "assetIds": []
    },
    {
      "x": 227,
      "y": 357,
      "size": 1,
      "price": "1011000000000000000000",
      "reserved": "",
      "salt": "0x0a9e636029e7e5be955b3a0a1bd3e7c260f0a047c34410dbd9d54164661c31df",
      "assetIds": []
    },
    {
      "x": 227,
      "y": 358,
      "size": 1,
      "price": "4683000000000000000000",
      "reserved": "",
      "salt": "0xf8c4124ca2e405cfb1c7189ee752737f75ac5aa731ba7327627f117534b355db",
      "assetIds": [
        "55464657044963196816950587289035428064568320970692304673817341489687790884865",
        "55464657044963196816950587289035428064568320970692304673817341489687782494208",
        "55464657044963196816950587289035428064568320970692304673817341489687790884866",
        "55464657044963196816950587289035428064568320970692304673817341489687782494209",
        "55464657044963196816950587289035428064568320970692304673817341489687790884864"
      ]
    },
    {
      "x": 227,
      "y": 359,
      "size": 1,
      "price": "4683000000000000000000",
      "reserved": "",
      "salt": "0x2d702d869d3fdeffc774b627729a9ccb36750888ea1b88c404df1607e21c65e1",
      "assetIds": [
        "55464657044963196816950587289035428064568320970692304673817341489687790884865",
        "55464657044963196816950587289035428064568320970692304673817341489687782494208",
        "55464657044963196816950587289035428064568320970692304673817341489687790884866",
        "55464657044963196816950587289035428064568320970692304673817341489687782494209",
        "55464657044963196816950587289035428064568320970692304673817341489687790884864"
      ]
    },
    {
      "x": 227,
      "y": 384,
      "size": 1,
      "price": "4683000000000000000000",
      "reserved": "",
      "salt": "0x727e46c2314edd56a5949b8d9b9ae260932ef3236f558058fab2620a1d8bc058",
      "assetIds": [
        "55464657044963196816950587289035428064568320970692304673817341489687790884865",
        "55464657044963196816950587289035428064568320970692304673817341489687782494208",
        "55464657044963196816950587289035428064568320970692304673817341489687790884866",
        "55464657044963196816950587289035428064568320970692304673817341489687782494209",
        "55464657044963196816950587289035428064568320970692304673817341489687790884864"
      ]
    },
    {
      "x": 227,
      "y": 385,
      "size": 1,
      "price": "4683000000000000000000",
      "reserved": "",
      "salt": "0x0df54ee80ead271f6f92bc9c49948c82f235af1d62001f25f8aeadb4b9057167",
      "assetIds": [
        "55464657044963196816950587289035428064568320970692304673817341489687790884865",
        "55464657044963196816950587289035428064568320970692304673817341489687782494208",
        "55464657044963196816950587289035428064568320970692304673817341489687790884866",
        "55464657044963196816950587289035428064568320970692304673817341489687782494209",
        "55464657044963196816950587289035428064568320970692304673817341489687790884864"
      ]
    },
    {
      "x": 227,
      "y": 386,
      "size": 1,
      "price": "4683000000000000000000",
      "reserved": "",
      "salt": "0x67416d4050d6f1fd43914ca8dbf269d9fa23731839533435d2e12d9b4852cbf4",
      "assetIds": [
        "55464657044963196816950587289035428064568320970692304673817341489687790884865",
        "55464657044963196816950587289035428064568320970692304673817341489687782494208",
        "55464657044963196816950587289035428064568320970692304673817341489687790884866",
        "55464657044963196816950587289035428064568320970692304673817341489687782494209",
        "55464657044963196816950587289035428064568320970692304673817341489687790884864"
      ]
    },
    {
      "x": 227,
      "y": 387,
      "size": 1,
      "price": "4683000000000000000000",
      "reserved": "",
      "salt": "0xa69669bf15603ac3a026fbf86eb1e231b0bb810305e33299b94abc44ed72d786",
      "assetIds": [
        "55464657044963196816950587289035428064568320970692304673817341489687790884865",
        "55464657044963196816950587289035428064568320970692304673817341489687782494208",
        "55464657044963196816950587289035428064568320970692304673817341489687790884866",
        "55464657044963196816950587289035428064568320970692304673817341489687782494209",
        "55464657044963196816950587289035428064568320970692304673817341489687790884864"
      ]
    },
    {
      "x": 227,
      "y": 388,
      "size": 1,
      "price": "4683000000000000000000",
      "reserved": "",
      "salt": "0x8effa0cf03a0893486e1eaea42e1993a50fea7725f5e32abdb5b4428b37d1a89",
      "assetIds": [
        "55464657044963196816950587289035428064568320970692304673817341489687790884865",
        "55464657044963196816950587289035428064568320970692304673817341489687782494208",
        "55464657044963196816950587289035428064568320970692304673817341489687790884866",
        "55464657044963196816950587289035428064568320970692304673817341489687782494209",
        "55464657044963196816950587289035428064568320970692304673817341489687790884864"
      ]
    },
    {
      "x": 227,
      "y": 389,
      "size": 1,
      "price": "4683000000000000000000",
      "reserved": "",
      "salt": "0x95da0734057315dc142501a0b6b18641ec789f749662ca64c3fde5e2eff62b11",
      "assetIds": [
        "55464657044963196816950587289035428064568320970692304673817341489687790884865",
        "55464657044963196816950587289035428064568320970692304673817341489687782494208",
        "55464657044963196816950587289035428064568320970692304673817341489687790884866",
        "55464657044963196816950587289035428064568320970692304673817341489687782494209",
        "55464657044963196816950587289035428064568320970692304673817341489687790884864"
      ]
    },
    {
      "x": 227,
      "y": 390,
      "size": 1,
      "price": "1011000000000000000000",
      "reserved": "",
      "salt": "0xc269b088d16e988a1a846265264dfdf6c8adb967cd31ba5034ff3c181138d59a",
      "assetIds": []
    },
    {
      "x": 227,
      "y": 391,
      "size": 1,
      "price": "1011000000000000000000",
      "reserved": "",
      "salt": "0x07f435e1c09c20377aaebc70404eddbfaa87a38cec9f98aebab5829492ac928a",
      "assetIds": []
    },
    {
      "x": 228,
      "y": 357,
      "size": 1,
      "price": "1011000000000000000000",
      "reserved": "",
      "salt": "0x90786d42ffb40189dace93db99bc6c9ad172ccb61ecd5e84bdd33a4c04ababb2",
      "assetIds": []
    },
    {
      "x": 228,
      "y": 358,
      "size": 1,
      "price": "1011000000000000000000",
      "reserved": "",
      "salt": "0x49ed00893aaeb1e186dad9833218d7a928480e20ef1dbc5c276f5b9d13b82343",
      "assetIds": []
    },
    {
      "x": 228,
      "y": 359,
      "size": 1,
      "price": "4683000000000000000000",
      "reserved": "",
      "salt": "0x202fd716db79bbd98e32d1c23578049c959e890be57feb1b82628de1d96567e4",
      "assetIds": [
        "55464657044963196816950587289035428064568320970692304673817341489687790884865",
        "55464657044963196816950587289035428064568320970692304673817341489687782494208",
        "55464657044963196816950587289035428064568320970692304673817341489687790884866",
        "55464657044963196816950587289035428064568320970692304673817341489687782494209",
        "55464657044963196816950587289035428064568320970692304673817341489687790884864"
      ]
    },
    {
      "x": 228,
      "y": 384,
      "size": 1,
      "price": "4683000000000000000000",
      "reserved": "",
      "salt": "0x6f58884a3c50eaa2b521f56695ca4c62ab56afaff61ea2c9069da9325776ff0d",
      "assetIds": [
        "55464657044963196816950587289035428064568320970692304673817341489687790884865",
        "55464657044963196816950587289035428064568320970692304673817341489687782494208",
        "55464657044963196816950587289035428064568320970692304673817341489687790884866",
        "55464657044963196816950587289035428064568320970692304673817341489687782494209",
        "55464657044963196816950587289035428064568320970692304673817341489687790884864"
      ]
    },
    {
      "x": 228,
      "y": 385,
      "size": 1,
      "price": "4683000000000000000000",
      "reserved": "",
      "salt": "0x913cc86ed70c87270de24e4a9afea1639dcb6e5153471073ba86aa082cf18483",
      "assetIds": [
        "55464657044963196816950587289035428064568320970692304673817341489687790884865",
        "55464657044963196816950587289035428064568320970692304673817341489687782494208",
        "55464657044963196816950587289035428064568320970692304673817341489687790884866",
        "55464657044963196816950587289035428064568320970692304673817341489687782494209",
        "55464657044963196816950587289035428064568320970692304673817341489687790884864"
      ]
    },
    {
      "x": 228,
      "y": 386,
      "size": 1,
      "price": "1011000000000000000000",
      "reserved": "",
      "salt": "0xefe4a2178eaa2273ae72f956b8a5627ab15940956326ba71f76b9ca721298092",
      "assetIds": []
    },
    {
      "x": 228,
      "y": 387,
      "size": 1,
      "price": "4683000000000000000000",
      "reserved": "",
      "salt": "0x1be87905dcf6150048f923f86e03cf0fdbba9536dbc52411240113cbdcb74595",
      "assetIds": [
        "55464657044963196816950587289035428064568320970692304673817341489687790884865",
        "55464657044963196816950587289035428064568320970692304673817341489687782494208",
        "55464657044963196816950587289035428064568320970692304673817341489687790884866",
        "55464657044963196816950587289035428064568320970692304673817341489687782494209",
        "55464657044963196816950587289035428064568320970692304673817341489687790884864"
      ]
    },
    {
      "x": 228,
      "y": 388,
      "size": 1,
      "price": "4683000000000000000000",
      "reserved": "",
      "salt": "0x7e0d0ac778eeb91a681959d6874080634dceac70100373b5bb8c40f75739ae54",
      "assetIds": [
        "55464657044963196816950587289035428064568320970692304673817341489687790884865",
        "55464657044963196816950587289035428064568320970692304673817341489687782494208",
        "55464657044963196816950587289035428064568320970692304673817341489687790884866",
        "55464657044963196816950587289035428064568320970692304673817341489687782494209",
        "55464657044963196816950587289035428064568320970692304673817341489687790884864"
      ]
    },
    {
      "x": 228,
      "y": 389,
      "size": 1,
      "price": "4683000000000000000000",
      "reserved": "",
      "salt": "0xa2c688576d44754593aa69128472492adc7f161b472d4708b4b77ad110256fd2",
      "assetIds": [
        "55464657044963196816950587289035428064568320970692304673817341489687790884865",
        "55464657044963196816950587289035428064568320970692304673817341489687782494208",
        "55464657044963196816950587289035428064568320970692304673817341489687790884866",
        "55464657044963196816950587289035428064568320970692304673817341489687782494209",
        "55464657044963196816950587289035428064568320970692304673817341489687790884864"
      ]
    },
    {
      "x": 228,
      "y": 390,
      "size": 1,
      "price": "1011000000000000000000",
      "reserved": "",
      "salt": "0x23ada46fb2d7342916f4ac52d77071ca378bafce8810b4f574658ac6e090f996",
      "assetIds": []
    },
    {
      "x": 229,
      "y": 358,
      "size": 1,
      "price": "1011000000000000000000",
      "reserved": "",
      "salt": "0x94f60bce03b71db17703a0e69a201efd0ebdeca86c87cbb693f1708511b672be",
      "assetIds": []
    },
    {
      "x": 229,
      "y": 359,
      "size": 1,
      "price": "4683000000000000000000",
      "reserved": "",
      "salt": "0xb144c05eb03a8b93a9374cda4c9f63568e74e953462d0978aa8fadcbfd02bd46",
      "assetIds": [
        "55464657044963196816950587289035428064568320970692304673817341489687790884865",
        "55464657044963196816950587289035428064568320970692304673817341489687782494208",
        "55464657044963196816950587289035428064568320970692304673817341489687790884866",
        "55464657044963196816950587289035428064568320970692304673817341489687782494209",
        "55464657044963196816950587289035428064568320970692304673817341489687790884864"
      ]
    },
    {
      "x": 229,
      "y": 384,
      "size": 1,
      "price": "4683000000000000000000",
      "reserved": "",
      "salt": "0xfcd09dda701d9b7c19376ed331bc0120263ab775ba7777d1f520ec1728f5b9fa",
      "assetIds": [
        "55464657044963196816950587289035428064568320970692304673817341489687790884865",
        "55464657044963196816950587289035428064568320970692304673817341489687782494208",
        "55464657044963196816950587289035428064568320970692304673817341489687790884866",
        "55464657044963196816950587289035428064568320970692304673817341489687782494209",
        "55464657044963196816950587289035428064568320970692304673817341489687790884864"
      ]
    },
    {
      "x": 229,
      "y": 385,
      "size": 1,
      "price": "4683000000000000000000",
      "reserved": "",
      "salt": "0xd33da17259d71956e4cdd657a018773336f50a348cea6e0c6080a192619a0e1c",
      "assetIds": [
        "55464657044963196816950587289035428064568320970692304673817341489687790884865",
        "55464657044963196816950587289035428064568320970692304673817341489687782494208",
        "55464657044963196816950587289035428064568320970692304673817341489687790884866",
        "55464657044963196816950587289035428064568320970692304673817341489687782494209",
        "55464657044963196816950587289035428064568320970692304673817341489687790884864"
      ]
    },
    {
      "x": 229,
      "y": 386,
      "size": 1,
      "price": "1011000000000000000000",
      "reserved": "",
      "salt": "0x0dd869c809882e4b039aa38a8b564db865e660aafff878c3d8f42d2965c6acbd",
      "assetIds": []
    },
    {
      "x": 229,
      "y": 387,
      "size": 1,
      "price": "1011000000000000000000",
      "reserved": "0x7a9fe22691c811ea339d9b73150e6911a5343dca",
      "salt": "0x5a0b9aa3f39db6f68ccad6541341454e3effce68fb0a2f03fdafef7a2e791dc7",
      "assetIds": []
    },
    {
      "x": 229,
      "y": 388,
      "size": 1,
      "price": "4683000000000000000000",
      "reserved": "",
      "salt": "0xcdc35f4b01edb58e7ca0a94cfe3c30a80d9e764712f42c2a7659a4cb3c74c317",
      "assetIds": [
        "55464657044963196816950587289035428064568320970692304673817341489687790884865",
        "55464657044963196816950587289035428064568320970692304673817341489687782494208",
        "55464657044963196816950587289035428064568320970692304673817341489687790884866",
        "55464657044963196816950587289035428064568320970692304673817341489687782494209",
        "55464657044963196816950587289035428064568320970692304673817341489687790884864"
      ]
    },
    {
      "x": 229,
      "y": 389,
      "size": 1,
      "price": "4683000000000000000000",
      "reserved": "",
      "salt": "0xba0741615670901cabf6647610aea705f1848392b60ac67ece2273b233ba975c",
      "assetIds": [
        "55464657044963196816950587289035428064568320970692304673817341489687790884865",
        "55464657044963196816950587289035428064568320970692304673817341489687782494208",
        "55464657044963196816950587289035428064568320970692304673817341489687790884866",
        "55464657044963196816950587289035428064568320970692304673817341489687782494209",
        "55464657044963196816950587289035428064568320970692304673817341489687790884864"
      ]
    },
    {
      "x": 229,
      "y": 390,
      "size": 1,
      "price": "1011000000000000000000",
      "reserved": "",
      "salt": "0x04292edb57084961d67fc8751c9180ab773b2e0a3772e81f62f22431df9b4008",
      "assetIds": []
    },
    {
      "x": 230,
      "y": 358,
      "size": 1,
      "price": "1011000000000000000000",
      "reserved": "",
      "salt": "0x21210b7f6c0db851b1ee50f965cbb5c18b16a2c811d450c5a87481729b48c48d",
      "assetIds": []
    },
    {
      "x": 230,
      "y": 359,
      "size": 1,
      "price": "4683000000000000000000",
      "reserved": "",
      "salt": "0x59cbba6c079c8b5013895a57100bfd6bda060c38326ab9a4d9e310d8428fa35f",
      "assetIds": [
        "55464657044963196816950587289035428064568320970692304673817341489687790884865",
        "55464657044963196816950587289035428064568320970692304673817341489687782494208",
        "55464657044963196816950587289035428064568320970692304673817341489687790884866",
        "55464657044963196816950587289035428064568320970692304673817341489687782494209",
        "55464657044963196816950587289035428064568320970692304673817341489687790884864"
      ]
    },
    {
      "x": 230,
      "y": 384,
      "size": 1,
      "price": "4683000000000000000000",
      "reserved": "",
      "salt": "0x80faedf66fce5df08f1dc798fa5d128d7faedd01b17355f5362907fb47d05ded",
      "assetIds": [
        "55464657044963196816950587289035428064568320970692304673817341489687790884865",
        "55464657044963196816950587289035428064568320970692304673817341489687782494208",
        "55464657044963196816950587289035428064568320970692304673817341489687790884866",
        "55464657044963196816950587289035428064568320970692304673817341489687782494209",
        "55464657044963196816950587289035428064568320970692304673817341489687790884864"
      ]
    },
    {
      "x": 230,
      "y": 385,
      "size": 1,
      "price": "4683000000000000000000",
      "reserved": "",
      "salt": "0xcbe53c251e7d8a5e9d8ab267102e48cfb356ee66dfa0ec212c7ee0436cd2c096",
      "assetIds": [
        "55464657044963196816950587289035428064568320970692304673817341489687790884865",
        "55464657044963196816950587289035428064568320970692304673817341489687782494208",
        "55464657044963196816950587289035428064568320970692304673817341489687790884866",
        "55464657044963196816950587289035428064568320970692304673817341489687782494209",
        "55464657044963196816950587289035428064568320970692304673817341489687790884864"
      ]
    },
    {
      "x": 230,
      "y": 386,
      "size": 1,
      "price": "1011000000000000000000",
      "reserved": "",
      "salt": "0x11fdcf9dcd118e95c0d2d6c7c675886cbdd3610f11a73253c500c06b0a84daeb",
      "assetIds": []
    },
    {
      "x": 230,
      "y": 387,
      "size": 1,
      "price": "4683000000000000000000",
      "reserved": "",
      "salt": "0x84780387dc5c0c66933a25141c617c4230e324839aed232d1082de2cf1aa10be",
      "assetIds": [
        "55464657044963196816950587289035428064568320970692304673817341489687790884865",
        "55464657044963196816950587289035428064568320970692304673817341489687782494208",
        "55464657044963196816950587289035428064568320970692304673817341489687790884866",
        "55464657044963196816950587289035428064568320970692304673817341489687782494209",
        "55464657044963196816950587289035428064568320970692304673817341489687790884864"
      ]
    },
    {
      "x": 230,
      "y": 388,
      "size": 1,
      "price": "4683000000000000000000",
      "reserved": "",
      "salt": "0x8377adf8fafe7227c971901182f5a2393875a76e1b1740a0856382d4d0c5a77f",
      "assetIds": [
        "55464657044963196816950587289035428064568320970692304673817341489687790884865",
        "55464657044963196816950587289035428064568320970692304673817341489687782494208",
        "55464657044963196816950587289035428064568320970692304673817341489687790884866",
        "55464657044963196816950587289035428064568320970692304673817341489687782494209",
        "55464657044963196816950587289035428064568320970692304673817341489687790884864"
      ]
    },
    {
      "x": 230,
      "y": 389,
      "size": 1,
      "price": "4683000000000000000000",
      "reserved": "",
      "salt": "0x682340b8b0f24f18a888a821c6a394cc509ec883f44856515791f0355967b2d0",
      "assetIds": [
        "55464657044963196816950587289035428064568320970692304673817341489687790884865",
        "55464657044963196816950587289035428064568320970692304673817341489687782494208",
        "55464657044963196816950587289035428064568320970692304673817341489687790884866",
        "55464657044963196816950587289035428064568320970692304673817341489687782494209",
        "55464657044963196816950587289035428064568320970692304673817341489687790884864"
      ]
    },
    {
      "x": 230,
      "y": 390,
      "size": 1,
      "price": "1011000000000000000000",
      "reserved": "",
      "salt": "0x235f63817d802f7dbdfaa9a96873c2b5e87de0163db20ba3b155baef458fcde8",
      "assetIds": []
    },
    {
      "x": 231,
      "y": 358,
      "size": 1,
      "price": "1011000000000000000000",
      "reserved": "",
      "salt": "0x17ff27113570a9336dbd1cbadd0f7f9b9cd914345c1f4ac5068369bbdaf263e4",
      "assetIds": []
    },
    {
      "x": 231,
      "y": 359,
      "size": 1,
      "price": "4683000000000000000000",
      "reserved": "",
      "salt": "0xe9463e5297511a2d737768b9e6bdf631fc1232d6baa242f8b9384de20daa5f1b",
      "assetIds": [
        "55464657044963196816950587289035428064568320970692304673817341489687790884865",
        "55464657044963196816950587289035428064568320970692304673817341489687782494208",
        "55464657044963196816950587289035428064568320970692304673817341489687790884866",
        "55464657044963196816950587289035428064568320970692304673817341489687782494209",
        "55464657044963196816950587289035428064568320970692304673817341489687790884864"
      ]
    },
    {
      "x": 231,
      "y": 384,
      "size": 1,
      "price": "4683000000000000000000",
      "reserved": "",
      "salt": "0xc984f0cddc272391483f22932b524d5b0730f7d1b1295ded07f8a8d152aede2f",
      "assetIds": [
        "55464657044963196816950587289035428064568320970692304673817341489687790884865",
        "55464657044963196816950587289035428064568320970692304673817341489687782494208",
        "55464657044963196816950587289035428064568320970692304673817341489687790884866",
        "55464657044963196816950587289035428064568320970692304673817341489687782494209",
        "55464657044963196816950587289035428064568320970692304673817341489687790884864"
      ]
    },
    {
      "x": 231,
      "y": 385,
      "size": 1,
      "price": "1011000000000000000000",
      "reserved": "",
      "salt": "0xa31ebb9271d99e20837fb4c9807ad66014e3b206ee7332b763629f1858a53385",
      "assetIds": []
    },
    {
      "x": 231,
      "y": 386,
      "size": 1,
      "price": "1011000000000000000000",
      "reserved": "0x7a9fe22691c811ea339d9b73150e6911a5343dca",
      "salt": "0xb441cfbc863a0d290c7fc988d79cd5d185c7518f88ba6111e6642de903df9da7",
      "assetIds": []
    },
    {
      "x": 231,
      "y": 387,
      "size": 1,
      "price": "4683000000000000000000",
      "reserved": "",
      "salt": "0x940209328e29c43527571d02bd1d57c2df33dcc20a3d801432d5e846dc22a81c",
      "assetIds": [
        "55464657044963196816950587289035428064568320970692304673817341489687790884865",
        "55464657044963196816950587289035428064568320970692304673817341489687782494208",
        "55464657044963196816950587289035428064568320970692304673817341489687790884866",
        "55464657044963196816950587289035428064568320970692304673817341489687782494209",
        "55464657044963196816950587289035428064568320970692304673817341489687790884864"
      ]
    },
    {
      "x": 231,
      "y": 388,
      "size": 1,
      "price": "4683000000000000000000",
      "reserved": "",
      "salt": "0x69a8ae6422e5aaa8918476e420ee97bf2ef84f30d7bd4e6c9915df2202724bce",
      "assetIds": [
        "55464657044963196816950587289035428064568320970692304673817341489687790884865",
        "55464657044963196816950587289035428064568320970692304673817341489687782494208",
        "55464657044963196816950587289035428064568320970692304673817341489687790884866",
        "55464657044963196816950587289035428064568320970692304673817341489687782494209",
        "55464657044963196816950587289035428064568320970692304673817341489687790884864"
      ]
    },
    {
      "x": 231,
      "y": 389,
      "size": 1,
      "price": "4683000000000000000000",
      "reserved": "",
      "salt": "0xfb589dfd62c2f013c860bde81bd43b86ea9fa87964be8e2b88ecba3271aaeae4",
      "assetIds": [
        "55464657044963196816950587289035428064568320970692304673817341489687790884865",
        "55464657044963196816950587289035428064568320970692304673817341489687782494208",
        "55464657044963196816950587289035428064568320970692304673817341489687790884866",
        "55464657044963196816950587289035428064568320970692304673817341489687782494209",
        "55464657044963196816950587289035428064568320970692304673817341489687790884864"
      ]
    },
    {
      "x": 231,
      "y": 390,
      "size": 1,
      "price": "1011000000000000000000",
      "reserved": "",
      "salt": "0xe7d1dfe2fd9fc2c1480c2b3baca6aa3b68814a2bed28ff9861321de5bd4bd1a7",
      "assetIds": []
    },
    {
      "x": 232,
      "y": 358,
      "size": 1,
      "price": "1011000000000000000000",
      "reserved": "",
      "salt": "0x97493b8b9379aac0aa3ff87fca07d3d1571a19bcd9fb2b422cb165bf409ac80b",
      "assetIds": []
    },
    {
      "x": 232,
      "y": 359,
      "size": 1,
      "price": "4683000000000000000000",
      "reserved": "",
      "salt": "0xf60f3135d621694822505457fcf939e73869f085aca96ea3a34bafb512e11669",
      "assetIds": [
        "55464657044963196816950587289035428064568320970692304673817341489687790884865",
        "55464657044963196816950587289035428064568320970692304673817341489687782494208",
        "55464657044963196816950587289035428064568320970692304673817341489687790884866",
        "55464657044963196816950587289035428064568320970692304673817341489687782494209",
        "55464657044963196816950587289035428064568320970692304673817341489687790884864"
      ]
    },
    {
      "x": 232,
      "y": 384,
      "size": 1,
      "price": "4683000000000000000000",
      "reserved": "",
      "salt": "0xf2123b364b4cc64e4c51acac3430009e29d9ee93ff2cc7bf2e7c4564a7d07f78",
      "assetIds": [
        "55464657044963196816950587289035428064568320970692304673817341489687790884865",
        "55464657044963196816950587289035428064568320970692304673817341489687782494208",
        "55464657044963196816950587289035428064568320970692304673817341489687790884866",
        "55464657044963196816950587289035428064568320970692304673817341489687782494209",
        "55464657044963196816950587289035428064568320970692304673817341489687790884864"
      ]
    },
    {
      "x": 232,
      "y": 385,
      "size": 1,
      "price": "1011000000000000000000",
      "reserved": "",
      "salt": "0x3e05e2693efc0e292491050e423a912af82385f122570c1efc0c875a199960a8",
      "assetIds": []
    },
    {
      "x": 232,
      "y": 386,
      "size": 1,
      "price": "1011000000000000000000",
      "reserved": "",
      "salt": "0xdc1fe08581eee3674c5aa516d77357ad4e6e517179a54c21e6d5620d3ce05e59",
      "assetIds": []
    },
    {
      "x": 232,
      "y": 387,
      "size": 1,
      "price": "4683000000000000000000",
      "reserved": "",
      "salt": "0x3f43160fd444e0c6bb6aec9f4cba2fa29d451df3333eda8ad65978e9987340e7",
      "assetIds": [
        "55464657044963196816950587289035428064568320970692304673817341489687790884865",
        "55464657044963196816950587289035428064568320970692304673817341489687782494208",
        "55464657044963196816950587289035428064568320970692304673817341489687790884866",
        "55464657044963196816950587289035428064568320970692304673817341489687782494209",
        "55464657044963196816950587289035428064568320970692304673817341489687790884864"
      ]
    },
    {
      "x": 232,
      "y": 388,
      "size": 1,
      "price": "4683000000000000000000",
      "reserved": "",
      "salt": "0xa4bd62c3ead0e9ed6a228715d6989052fd69d46b38c03a0ba22203f73a337c4c",
      "assetIds": [
        "55464657044963196816950587289035428064568320970692304673817341489687790884865",
        "55464657044963196816950587289035428064568320970692304673817341489687782494208",
        "55464657044963196816950587289035428064568320970692304673817341489687790884866",
        "55464657044963196816950587289035428064568320970692304673817341489687782494209",
        "55464657044963196816950587289035428064568320970692304673817341489687790884864"
      ]
    },
    {
      "x": 232,
      "y": 389,
      "size": 1,
      "price": "4683000000000000000000",
      "reserved": "",
      "salt": "0x2ed388f0439d16f2f962dc7c59a4cf40119a8043bd09e0f1493cd5c1a9f62504",
      "assetIds": [
        "55464657044963196816950587289035428064568320970692304673817341489687790884865",
        "55464657044963196816950587289035428064568320970692304673817341489687782494208",
        "55464657044963196816950587289035428064568320970692304673817341489687790884866",
        "55464657044963196816950587289035428064568320970692304673817341489687782494209",
        "55464657044963196816950587289035428064568320970692304673817341489687790884864"
      ]
    },
    {
      "x": 232,
      "y": 390,
      "size": 1,
      "price": "1011000000000000000000",
      "reserved": "",
      "salt": "0x2c1ac85de61b7718fada654c5fea8a199a53fa1a37fdb1aad66a402726eb1dec",
      "assetIds": []
    },
    {
      "x": 233,
      "y": 359,
      "size": 1,
      "price": "4683000000000000000000",
      "reserved": "",
      "salt": "0x178a7c033fef50199fc8aee880f58298b046e3e8cde70e6c30852816a73fe0b8",
      "assetIds": [
        "55464657044963196816950587289035428064568320970692304673817341489687790884865",
        "55464657044963196816950587289035428064568320970692304673817341489687782494208",
        "55464657044963196816950587289035428064568320970692304673817341489687790884866",
        "55464657044963196816950587289035428064568320970692304673817341489687782494209",
        "55464657044963196816950587289035428064568320970692304673817341489687790884864"
      ]
    },
    {
      "x": 233,
      "y": 384,
      "size": 1,
      "price": "4683000000000000000000",
      "reserved": "",
      "salt": "0x78974027206085fd1d7450147a61a9a9dd5347dc19a2b2dc0221665db6294e63",
      "assetIds": [
        "55464657044963196816950587289035428064568320970692304673817341489687790884865",
        "55464657044963196816950587289035428064568320970692304673817341489687782494208",
        "55464657044963196816950587289035428064568320970692304673817341489687790884866",
        "55464657044963196816950587289035428064568320970692304673817341489687782494209",
        "55464657044963196816950587289035428064568320970692304673817341489687790884864"
      ]
    },
    {
      "x": 233,
      "y": 385,
      "size": 1,
      "price": "1011000000000000000000",
      "reserved": "",
      "salt": "0x4ccff7dffdbdd914b6e4770ce1c8d298db37f17c7d9bcffa5940a5e02c805888",
      "assetIds": []
    },
    {
      "x": 233,
      "y": 386,
      "size": 1,
      "price": "1011000000000000000000",
      "reserved": "",
      "salt": "0x67ad083d7f21d5052e6427122a70149e324f3b657ed88f78746880f8377939a0",
      "assetIds": []
    },
    {
      "x": 233,
      "y": 387,
      "size": 1,
      "price": "1011000000000000000000",
      "reserved": "",
      "salt": "0xe552acd01cb797da89843196cc1185abe1fecdb17a43ff42b2aa4334bb791bfc",
      "assetIds": []
    },
    {
      "x": 233,
      "y": 388,
      "size": 1,
      "price": "1011000000000000000000",
      "reserved": "",
      "salt": "0x93c9cff7fefd7bc9c6647cedb7c26de489575acbe580626d0906c61dcc059335",
      "assetIds": []
    },
    {
      "x": 233,
      "y": 389,
      "size": 1,
      "price": "1011000000000000000000",
      "reserved": "",
      "salt": "0x439a365e0e85811c08d746b44830082847de262861810fdcf452978e2eb46725",
      "assetIds": []
    },
    {
      "x": 233,
      "y": 390,
      "size": 1,
      "price": "1011000000000000000000",
      "reserved": "0x7a9fe22691c811ea339d9b73150e6911a5343dca",
      "salt": "0x0b2f4bdd54383d7d8b30cfcd084a514d6c99fe516be771fb7d49edfbfd8af98c",
      "assetIds": []
    },
    {
      "x": 234,
      "y": 359,
      "size": 1,
      "price": "4683000000000000000000",
      "reserved": "",
      "salt": "0x32891c2b11c7e580f44e6b90be1ec1718f68b1161a6fca9bc839cc559277f224",
      "assetIds": [
        "55464657044963196816950587289035428064568320970692304673817341489687790884865",
        "55464657044963196816950587289035428064568320970692304673817341489687782494208",
        "55464657044963196816950587289035428064568320970692304673817341489687790884866",
        "55464657044963196816950587289035428064568320970692304673817341489687782494209",
        "55464657044963196816950587289035428064568320970692304673817341489687790884864"
      ]
    },
    {
      "x": 234,
      "y": 384,
      "size": 1,
      "price": "4683000000000000000000",
      "reserved": "",
      "salt": "0xd4b9919f37d9ff8782963aea315d258fab33e845da3e029233f57c99242e9bc1",
      "assetIds": [
        "55464657044963196816950587289035428064568320970692304673817341489687790884865",
        "55464657044963196816950587289035428064568320970692304673817341489687782494208",
        "55464657044963196816950587289035428064568320970692304673817341489687790884866",
        "55464657044963196816950587289035428064568320970692304673817341489687782494209",
        "55464657044963196816950587289035428064568320970692304673817341489687790884864"
      ]
    },
    {
      "x": 234,
      "y": 385,
      "size": 1,
      "price": "4683000000000000000000",
      "reserved": "",
      "salt": "0x4df1df2c0e49afab2d34f97321506e0641a3f1b2d2eb778e818200441d7539ff",
      "assetIds": [
        "55464657044963196816950587289035428064568320970692304673817341489687790884865",
        "55464657044963196816950587289035428064568320970692304673817341489687782494208",
        "55464657044963196816950587289035428064568320970692304673817341489687790884866",
        "55464657044963196816950587289035428064568320970692304673817341489687782494209",
        "55464657044963196816950587289035428064568320970692304673817341489687790884864"
      ]
    },
    {
      "x": 234,
      "y": 386,
      "size": 1,
      "price": "1011000000000000000000",
      "reserved": "",
      "salt": "0x1b14a2a5ccd4f14a0a3bd485b92f3c40c54e6244da4515ef311f759d97c14f8a",
      "assetIds": []
    },
    {
      "x": 234,
      "y": 387,
      "size": 1,
      "price": "1011000000000000000000",
      "reserved": "",
      "salt": "0x25d6aeff57311c9c6ab137fa930f909c0328eb3e5da713fd5614d259bafa40c9",
      "assetIds": []
    },
    {
      "x": 234,
      "y": 388,
      "size": 1,
      "price": "1011000000000000000000",
      "reserved": "",
      "salt": "0x48b23e555c7b1464e08483609f114b2530f450cccdf56b82a9963819a367d828",
      "assetIds": []
    },
    {
      "x": 234,
      "y": 389,
      "size": 1,
      "price": "1011000000000000000000",
      "reserved": "",
      "salt": "0x9e7d1eda30df5f1551f824abe989e0dbb6410204ea8eb498cfe4c89d0ed41811",
      "assetIds": []
    },
    {
      "x": 235,
      "y": 358,
      "size": 1,
      "price": "1011000000000000000000",
      "reserved": "",
      "salt": "0x1b46665aad23f088b62d05ff107772528083f781bd806115a2fcdc28341673c1",
      "assetIds": []
    },
    {
      "x": 235,
      "y": 359,
      "size": 1,
      "price": "4683000000000000000000",
      "reserved": "",
      "salt": "0xdb29aac26bde2128d7b92187e435d40e0e5b38df2f317ad54f227b9428d5a4a4",
      "assetIds": [
        "55464657044963196816950587289035428064568320970692304673817341489687790884865",
        "55464657044963196816950587289035428064568320970692304673817341489687782494208",
        "55464657044963196816950587289035428064568320970692304673817341489687790884866",
        "55464657044963196816950587289035428064568320970692304673817341489687782494209",
        "55464657044963196816950587289035428064568320970692304673817341489687790884864"
      ]
    },
    {
      "x": 235,
      "y": 384,
      "size": 1,
      "price": "4683000000000000000000",
      "reserved": "",
      "salt": "0xe69e026f3a57a68c7a3f7fb0858127dc17e859947ed93bc5e33c4882635e7984",
      "assetIds": [
        "55464657044963196816950587289035428064568320970692304673817341489687790884865",
        "55464657044963196816950587289035428064568320970692304673817341489687782494208",
        "55464657044963196816950587289035428064568320970692304673817341489687790884866",
        "55464657044963196816950587289035428064568320970692304673817341489687782494209",
        "55464657044963196816950587289035428064568320970692304673817341489687790884864"
      ]
    },
    {
      "x": 235,
      "y": 385,
      "size": 1,
      "price": "4683000000000000000000",
      "reserved": "",
      "salt": "0x36072b76db265a84aa26697fe8d07fbb8355cb59e68d284f96fcbd9b26b4eef8",
      "assetIds": [
        "55464657044963196816950587289035428064568320970692304673817341489687790884865",
        "55464657044963196816950587289035428064568320970692304673817341489687782494208",
        "55464657044963196816950587289035428064568320970692304673817341489687790884866",
        "55464657044963196816950587289035428064568320970692304673817341489687782494209",
        "55464657044963196816950587289035428064568320970692304673817341489687790884864"
      ]
    },
    {
      "x": 235,
      "y": 386,
      "size": 1,
      "price": "4683000000000000000000",
      "reserved": "",
      "salt": "0xe6de89c0d484ddf1f31b274b25d82f0b3607311bcbaddc01ff35c217cd05d9a4",
      "assetIds": [
        "55464657044963196816950587289035428064568320970692304673817341489687790884865",
        "55464657044963196816950587289035428064568320970692304673817341489687782494208",
        "55464657044963196816950587289035428064568320970692304673817341489687790884866",
        "55464657044963196816950587289035428064568320970692304673817341489687782494209",
        "55464657044963196816950587289035428064568320970692304673817341489687790884864"
      ]
    },
    {
      "x": 235,
      "y": 387,
      "size": 1,
      "price": "1011000000000000000000",
      "reserved": "",
      "salt": "0xdd4cbe5386e26e3dc35fa2f60d08d8f88bf661271a1893ea48c19b9416c67e4f",
      "assetIds": []
    },
    {
      "x": 236,
      "y": 358,
      "size": 1,
      "price": "1011000000000000000000",
      "reserved": "",
      "salt": "0xb7abafbd7dfe34ce57cdcbbf3bd30e7364d2d4e75e16a1db5e968e56d28cc886",
      "assetIds": []
    },
    {
      "x": 236,
      "y": 359,
      "size": 1,
      "price": "4683000000000000000000",
      "reserved": "",
      "salt": "0xafcb197a4e0a71e520dd02cbd866a8fe8929c797e138507dbe904be1b6dd2d28",
      "assetIds": [
        "55464657044963196816950587289035428064568320970692304673817341489687790884865",
        "55464657044963196816950587289035428064568320970692304673817341489687782494208",
        "55464657044963196816950587289035428064568320970692304673817341489687790884866",
        "55464657044963196816950587289035428064568320970692304673817341489687782494209",
        "55464657044963196816950587289035428064568320970692304673817341489687790884864"
      ]
    },
    {
      "x": 236,
      "y": 384,
      "size": 1,
      "price": "4683000000000000000000",
      "reserved": "",
      "salt": "0x83b5354c8294c52c6104d20cf505c4cb5738ab2fb0048fffd570de154d8fcded",
      "assetIds": [
        "55464657044963196816950587289035428064568320970692304673817341489687790884865",
        "55464657044963196816950587289035428064568320970692304673817341489687782494208",
        "55464657044963196816950587289035428064568320970692304673817341489687790884866",
        "55464657044963196816950587289035428064568320970692304673817341489687782494209",
        "55464657044963196816950587289035428064568320970692304673817341489687790884864"
      ]
    },
    {
      "x": 236,
      "y": 385,
      "size": 1,
      "price": "1011000000000000000000",
      "reserved": "",
      "salt": "0x049bf68948160522a0cc297d34dac715cda6103e80b0ca1ce721276b6896d72a",
      "assetIds": []
    },
    {
      "x": 236,
      "y": 386,
      "size": 1,
      "price": "1011000000000000000000",
      "reserved": "",
      "salt": "0x22283e791c586c483efdb626be4bcc7470b78bfd143a1c264f7e719e8321bb98",
      "assetIds": []
    },
    {
      "x": 236,
      "y": 387,
      "size": 1,
      "price": "1011000000000000000000",
      "reserved": "0x7a9fe22691c811ea339d9b73150e6911a5343dca",
      "salt": "0x9ad0a8eea9f38cefd265d39279303106f398d1abd36ff4e3e4beb67bb684ce89",
      "assetIds": []
    },
    {
      "x": 237,
      "y": 358,
      "size": 1,
      "price": "1011000000000000000000",
      "reserved": "",
      "salt": "0xbf5e32bc98af1f2e57b62c3797f29fe91853351b80a9d6c20b8bfb6308fd99c1",
      "assetIds": []
    },
    {
      "x": 237,
      "y": 359,
      "size": 1,
      "price": "4683000000000000000000",
      "reserved": "",
      "salt": "0xf4e2cb660c57a597cadfbcbc552e1f72886ab4232e17ce0071ae8638f4b07e95",
      "assetIds": [
        "55464657044963196816950587289035428064568320970692304673817341489687790884865",
        "55464657044963196816950587289035428064568320970692304673817341489687782494208",
        "55464657044963196816950587289035428064568320970692304673817341489687790884866",
        "55464657044963196816950587289035428064568320970692304673817341489687782494209",
        "55464657044963196816950587289035428064568320970692304673817341489687790884864"
      ]
    },
    {
      "x": 237,
      "y": 384,
      "size": 1,
      "price": "4683000000000000000000",
      "reserved": "",
      "salt": "0xb1bbdeb2ffda4c6adfff5f94f739a97f15f1bf051b9334fb606b2dc9979ffd47",
      "assetIds": [
        "55464657044963196816950587289035428064568320970692304673817341489687790884865",
        "55464657044963196816950587289035428064568320970692304673817341489687782494208",
        "55464657044963196816950587289035428064568320970692304673817341489687790884866",
        "55464657044963196816950587289035428064568320970692304673817341489687782494209",
        "55464657044963196816950587289035428064568320970692304673817341489687790884864"
      ]
    },
    {
      "x": 237,
      "y": 385,
      "size": 1,
      "price": "1011000000000000000000",
      "reserved": "",
      "salt": "0xc4137b8572bc4ef4f0a594b52a5018225170f98bad5243d37ac69eb48318af86",
      "assetIds": []
    },
    {
      "x": 237,
      "y": 386,
      "size": 1,
      "price": "1011000000000000000000",
      "reserved": "",
      "salt": "0xa27c8858dc630b8406434fe525c98b360dd7fd054222c7eb5f7d26448e498949",
      "assetIds": []
    },
    {
      "x": 238,
      "y": 358,
      "size": 1,
      "price": "4683000000000000000000",
      "reserved": "",
      "salt": "0x2cf7c447a9874d0b02e8fcd3be799aa6aa5060f4c026beedd4bad73fa3116e59",
      "assetIds": [
        "55464657044963196816950587289035428064568320970692304673817341489687790884865",
        "55464657044963196816950587289035428064568320970692304673817341489687782494208",
        "55464657044963196816950587289035428064568320970692304673817341489687790884866",
        "55464657044963196816950587289035428064568320970692304673817341489687782494209",
        "55464657044963196816950587289035428064568320970692304673817341489687790884864"
      ]
    },
    {
      "x": 238,
      "y": 359,
      "size": 1,
      "price": "4683000000000000000000",
      "reserved": "",
      "salt": "0xf1d97cabe5f9b68a8204354df54fa7ea8a8372d842c5b69157ed0c0d31f66eac",
      "assetIds": [
        "55464657044963196816950587289035428064568320970692304673817341489687790884865",
        "55464657044963196816950587289035428064568320970692304673817341489687782494208",
        "55464657044963196816950587289035428064568320970692304673817341489687790884866",
        "55464657044963196816950587289035428064568320970692304673817341489687782494209",
        "55464657044963196816950587289035428064568320970692304673817341489687790884864"
      ]
    },
    {
      "x": 238,
      "y": 384,
      "size": 1,
      "price": "4683000000000000000000",
      "reserved": "",
      "salt": "0x4f2841039a36b297edef5506048590743ba54e646a168792ea96ca5dacf16c54",
      "assetIds": [
        "55464657044963196816950587289035428064568320970692304673817341489687790884865",
        "55464657044963196816950587289035428064568320970692304673817341489687782494208",
        "55464657044963196816950587289035428064568320970692304673817341489687790884866",
        "55464657044963196816950587289035428064568320970692304673817341489687782494209",
        "55464657044963196816950587289035428064568320970692304673817341489687790884864"
      ]
    },
    {
      "x": 238,
      "y": 385,
      "size": 1,
      "price": "1011000000000000000000",
      "reserved": "",
      "salt": "0xb0495cadb8f9bb1cb7793a0390bbbe1c40eecca18fc1ea4a8bf8adc4222b8c40",
      "assetIds": []
    },
    {
      "x": 238,
      "y": 386,
      "size": 1,
      "price": "1011000000000000000000",
      "reserved": "",
      "salt": "0xe514ec442bc2357b408e541add7eff08bc4eb67a74ffa30cce4f1ec199728e61",
      "assetIds": []
    },
    {
      "x": 239,
      "y": 358,
      "size": 1,
      "price": "4683000000000000000000",
      "reserved": "",
      "salt": "0x4e6bad0c7a123553c4fb136af164a3e43e67202cee62ef083b451c10687e1ae1",
      "assetIds": [
        "55464657044963196816950587289035428064568320970692304673817341489687790884865",
        "55464657044963196816950587289035428064568320970692304673817341489687782494208",
        "55464657044963196816950587289035428064568320970692304673817341489687790884866",
        "55464657044963196816950587289035428064568320970692304673817341489687782494209",
        "55464657044963196816950587289035428064568320970692304673817341489687790884864"
      ]
    },
    {
      "x": 239,
      "y": 359,
      "size": 1,
      "price": "4683000000000000000000",
      "reserved": "",
      "salt": "0xffc803fa0321babd1f73f9e86f65a2e118c40057be8b16913bdcf0dd104f1c97",
      "assetIds": [
        "55464657044963196816950587289035428064568320970692304673817341489687790884865",
        "55464657044963196816950587289035428064568320970692304673817341489687782494208",
        "55464657044963196816950587289035428064568320970692304673817341489687790884866",
        "55464657044963196816950587289035428064568320970692304673817341489687782494209",
        "55464657044963196816950587289035428064568320970692304673817341489687790884864"
      ]
    },
    {
      "x": 239,
      "y": 384,
      "size": 1,
      "price": "4683000000000000000000",
      "reserved": "",
      "salt": "0x2e7b4473fa1f8ec8456e2f8f33829ed8024b59b99bf2964fe9f5f8451a71b1ee",
      "assetIds": [
        "55464657044963196816950587289035428064568320970692304673817341489687790884865",
        "55464657044963196816950587289035428064568320970692304673817341489687782494208",
        "55464657044963196816950587289035428064568320970692304673817341489687790884866",
        "55464657044963196816950587289035428064568320970692304673817341489687782494209",
        "55464657044963196816950587289035428064568320970692304673817341489687790884864"
      ]
    },
    {
      "x": 239,
      "y": 385,
      "size": 1,
      "price": "4683000000000000000000",
      "reserved": "",
      "salt": "0xb2706e833b4a16ffae3a32987215f3edb694cb43b62ef5721440da3febd1f853",
      "assetIds": [
        "55464657044963196816950587289035428064568320970692304673817341489687790884865",
        "55464657044963196816950587289035428064568320970692304673817341489687782494208",
        "55464657044963196816950587289035428064568320970692304673817341489687790884866",
        "55464657044963196816950587289035428064568320970692304673817341489687782494209",
        "55464657044963196816950587289035428064568320970692304673817341489687790884864"
      ]
    },
    {
      "x": 239,
      "y": 386,
      "size": 1,
      "price": "1011000000000000000000",
      "reserved": "",
      "salt": "0x1178af82c6da76c9c129507de93a851010a7d65d71818cf10feff53b975b83f9",
      "assetIds": []
    },
    {
      "x": 240,
      "y": 360,
      "size": 1,
      "price": "4683000000000000000000",
      "reserved": "",
      "salt": "0x56349d4ffc580ce4c2089035572f9f323dcb81a83aaa28b2e85d8a251c218802",
      "assetIds": [
        "55464657044963196816950587289035428064568320970692304673817341489687790884865",
        "55464657044963196816950587289035428064568320970692304673817341489687782494208",
        "55464657044963196816950587289035428064568320970692304673817341489687790884866",
        "55464657044963196816950587289035428064568320970692304673817341489687782494209",
        "55464657044963196816950587289035428064568320970692304673817341489687790884864"
      ]
    },
    {
      "x": 240,
      "y": 361,
      "size": 1,
      "price": "4683000000000000000000",
      "reserved": "",
      "salt": "0x777489cc02881284c3b953ab558346aedcbfcffb07c3e52f92cacbe71da67fdc",
      "assetIds": [
        "55464657044963196816950587289035428064568320970692304673817341489687790884865",
        "55464657044963196816950587289035428064568320970692304673817341489687782494208",
        "55464657044963196816950587289035428064568320970692304673817341489687790884866",
        "55464657044963196816950587289035428064568320970692304673817341489687782494209",
        "55464657044963196816950587289035428064568320970692304673817341489687790884864"
      ]
    },
    {
      "x": 240,
      "y": 362,
      "size": 1,
      "price": "4683000000000000000000",
      "reserved": "",
      "salt": "0x605fc3a079ccc80e20a5c8608fc346a080d86b48f7e25e3d12754b5c51dc9130",
      "assetIds": [
        "55464657044963196816950587289035428064568320970692304673817341489687790884865",
        "55464657044963196816950587289035428064568320970692304673817341489687782494208",
        "55464657044963196816950587289035428064568320970692304673817341489687790884866",
        "55464657044963196816950587289035428064568320970692304673817341489687782494209",
        "55464657044963196816950587289035428064568320970692304673817341489687790884864"
      ]
    },
    {
      "x": 240,
      "y": 363,
      "size": 1,
      "price": "4683000000000000000000",
      "reserved": "",
      "salt": "0x6676848569d44bc1ddc4830e0a8cc5c1b51d0769764a0559f4da0aebc2dfe0d5",
      "assetIds": [
        "55464657044963196816950587289035428064568320970692304673817341489687790884865",
        "55464657044963196816950587289035428064568320970692304673817341489687782494208",
        "55464657044963196816950587289035428064568320970692304673817341489687790884866",
        "55464657044963196816950587289035428064568320970692304673817341489687782494209",
        "55464657044963196816950587289035428064568320970692304673817341489687790884864"
      ]
    },
    {
      "x": 240,
      "y": 364,
      "size": 1,
      "price": "4683000000000000000000",
      "reserved": "",
      "salt": "0x4c597b0aa98d057115fa1fa3ea2ae21006d77b2d0702c2e8449cf3bd8df7071c",
      "assetIds": [
        "55464657044963196816950587289035428064568320970692304673817341489687790884865",
        "55464657044963196816950587289035428064568320970692304673817341489687782494208",
        "55464657044963196816950587289035428064568320970692304673817341489687790884866",
        "55464657044963196816950587289035428064568320970692304673817341489687782494209",
        "55464657044963196816950587289035428064568320970692304673817341489687790884864"
      ]
    },
    {
      "x": 240,
      "y": 365,
      "size": 1,
      "price": "4683000000000000000000",
      "reserved": "",
      "salt": "0x07db384bcd02c8f5b68e1eec82a56549e8237f519e7e429b4c946f3bca92c47b",
      "assetIds": [
        "55464657044963196816950587289035428064568320970692304673817341489687790884865",
        "55464657044963196816950587289035428064568320970692304673817341489687782494208",
        "55464657044963196816950587289035428064568320970692304673817341489687790884866",
        "55464657044963196816950587289035428064568320970692304673817341489687782494209",
        "55464657044963196816950587289035428064568320970692304673817341489687790884864"
      ]
    },
    {
      "x": 240,
      "y": 366,
      "size": 1,
      "price": "4683000000000000000000",
      "reserved": "",
      "salt": "0x9863f5745b8eb0c1b19fc011d758898b24f20be8166ce80d885244682dbedbd2",
      "assetIds": [
        "55464657044963196816950587289035428064568320970692304673817341489687790884865",
        "55464657044963196816950587289035428064568320970692304673817341489687782494208",
        "55464657044963196816950587289035428064568320970692304673817341489687790884866",
        "55464657044963196816950587289035428064568320970692304673817341489687782494209",
        "55464657044963196816950587289035428064568320970692304673817341489687790884864"
      ]
    },
    {
      "x": 240,
      "y": 367,
      "size": 1,
      "price": "4683000000000000000000",
      "reserved": "",
      "salt": "0x383e2d683dbd37ded4da34b55eb2d1f1a8a08ece86daf66bce4db6c8b196be71",
      "assetIds": [
        "55464657044963196816950587289035428064568320970692304673817341489687790884865",
        "55464657044963196816950587289035428064568320970692304673817341489687782494208",
        "55464657044963196816950587289035428064568320970692304673817341489687790884866",
        "55464657044963196816950587289035428064568320970692304673817341489687782494209",
        "55464657044963196816950587289035428064568320970692304673817341489687790884864"
      ]
    },
    {
      "x": 240,
      "y": 368,
      "size": 1,
      "price": "4683000000000000000000",
      "reserved": "",
      "salt": "0x61ceab5ef96b2853734564c7aab6d9f93f210946f997e1c9809014fb7525103e",
      "assetIds": [
        "55464657044963196816950587289035428064568320970692304673817341489687790884865",
        "55464657044963196816950587289035428064568320970692304673817341489687782494208",
        "55464657044963196816950587289035428064568320970692304673817341489687790884866",
        "55464657044963196816950587289035428064568320970692304673817341489687782494209",
        "55464657044963196816950587289035428064568320970692304673817341489687790884864"
      ]
    },
    {
      "x": 240,
      "y": 369,
      "size": 1,
      "price": "4683000000000000000000",
      "reserved": "",
      "salt": "0x844c6f21d4c1537a7bfaf25e60c0819f8cbc328c89fb3c2da7a22f969105577e",
      "assetIds": [
        "55464657044963196816950587289035428064568320970692304673817341489687790884865",
        "55464657044963196816950587289035428064568320970692304673817341489687782494208",
        "55464657044963196816950587289035428064568320970692304673817341489687790884866",
        "55464657044963196816950587289035428064568320970692304673817341489687782494209",
        "55464657044963196816950587289035428064568320970692304673817341489687790884864"
      ]
    },
    {
      "x": 240,
      "y": 370,
      "size": 1,
      "price": "4683000000000000000000",
      "reserved": "",
      "salt": "0xf508b414a52e1eefd54dc128e34d20bab9e25c15aca6082364678dad8fc7df30",
      "assetIds": [
        "55464657044963196816950587289035428064568320970692304673817341489687790884865",
        "55464657044963196816950587289035428064568320970692304673817341489687782494208",
        "55464657044963196816950587289035428064568320970692304673817341489687790884866",
        "55464657044963196816950587289035428064568320970692304673817341489687782494209",
        "55464657044963196816950587289035428064568320970692304673817341489687790884864"
      ]
    },
    {
      "x": 240,
      "y": 371,
      "size": 1,
      "price": "4683000000000000000000",
      "reserved": "",
      "salt": "0x229427a9b02508eb52d02153bde39bb61eb28e123f7c9e0340c88aee6507b13d",
      "assetIds": [
        "55464657044963196816950587289035428064568320970692304673817341489687790884865",
        "55464657044963196816950587289035428064568320970692304673817341489687782494208",
        "55464657044963196816950587289035428064568320970692304673817341489687790884866",
        "55464657044963196816950587289035428064568320970692304673817341489687782494209",
        "55464657044963196816950587289035428064568320970692304673817341489687790884864"
      ]
    },
    {
      "x": 240,
      "y": 372,
      "size": 1,
      "price": "4683000000000000000000",
      "reserved": "",
      "salt": "0x288446868dadce83a3d4880514bf87c213758341a07d34ff87b7ce83d11cca1a",
      "assetIds": [
        "55464657044963196816950587289035428064568320970692304673817341489687790884865",
        "55464657044963196816950587289035428064568320970692304673817341489687782494208",
        "55464657044963196816950587289035428064568320970692304673817341489687790884866",
        "55464657044963196816950587289035428064568320970692304673817341489687782494209",
        "55464657044963196816950587289035428064568320970692304673817341489687790884864"
      ]
    },
    {
      "x": 240,
      "y": 373,
      "size": 1,
      "price": "4683000000000000000000",
      "reserved": "",
      "salt": "0xce5f54c8dfd1b5b9623b8bbd45040ca02ae22ee17b2802feb964adb9c1c245ed",
      "assetIds": [
        "55464657044963196816950587289035428064568320970692304673817341489687790884865",
        "55464657044963196816950587289035428064568320970692304673817341489687782494208",
        "55464657044963196816950587289035428064568320970692304673817341489687790884866",
        "55464657044963196816950587289035428064568320970692304673817341489687782494209",
        "55464657044963196816950587289035428064568320970692304673817341489687790884864"
      ]
    },
    {
      "x": 240,
      "y": 374,
      "size": 1,
      "price": "4683000000000000000000",
      "reserved": "",
      "salt": "0xdc307a3498596f0cb4b89bd55f534c52651a597090516aecd75e63b7cf359800",
      "assetIds": [
        "55464657044963196816950587289035428064568320970692304673817341489687790884865",
        "55464657044963196816950587289035428064568320970692304673817341489687782494208",
        "55464657044963196816950587289035428064568320970692304673817341489687790884866",
        "55464657044963196816950587289035428064568320970692304673817341489687782494209",
        "55464657044963196816950587289035428064568320970692304673817341489687790884864"
      ]
    },
    {
      "x": 240,
      "y": 375,
      "size": 1,
      "price": "4683000000000000000000",
      "reserved": "",
      "salt": "0x77091de8183520a5aca72502b249bff6e7d078638b3fdc02ec61376c0bcf42a1",
      "assetIds": [
        "55464657044963196816950587289035428064568320970692304673817341489687790884865",
        "55464657044963196816950587289035428064568320970692304673817341489687782494208",
        "55464657044963196816950587289035428064568320970692304673817341489687790884866",
        "55464657044963196816950587289035428064568320970692304673817341489687782494209",
        "55464657044963196816950587289035428064568320970692304673817341489687790884864"
      ]
    },
    {
      "x": 240,
      "y": 376,
      "size": 1,
      "price": "4683000000000000000000",
      "reserved": "",
      "salt": "0xe001e27df80f29e5f0639ac427cf2df3bd781f61e9292b7c0bcfec1453c08620",
      "assetIds": [
        "55464657044963196816950587289035428064568320970692304673817341489687790884865",
        "55464657044963196816950587289035428064568320970692304673817341489687782494208",
        "55464657044963196816950587289035428064568320970692304673817341489687790884866",
        "55464657044963196816950587289035428064568320970692304673817341489687782494209",
        "55464657044963196816950587289035428064568320970692304673817341489687790884864"
      ]
    },
    {
      "x": 240,
      "y": 377,
      "size": 1,
      "price": "4683000000000000000000",
      "reserved": "",
      "salt": "0xd02594126ef3c22ed6b70d3d4b7cab723dd45d0d2a57f7c7f1c5977f56aa60af",
      "assetIds": [
        "55464657044963196816950587289035428064568320970692304673817341489687790884865",
        "55464657044963196816950587289035428064568320970692304673817341489687782494208",
        "55464657044963196816950587289035428064568320970692304673817341489687790884866",
        "55464657044963196816950587289035428064568320970692304673817341489687782494209",
        "55464657044963196816950587289035428064568320970692304673817341489687790884864"
      ]
    },
    {
      "x": 240,
      "y": 378,
      "size": 1,
      "price": "4683000000000000000000",
      "reserved": "",
      "salt": "0xbff40718546a78d5b398f712468a36da8c135bed60a4d91660f812781677529f",
      "assetIds": [
        "55464657044963196816950587289035428064568320970692304673817341489687790884865",
        "55464657044963196816950587289035428064568320970692304673817341489687782494208",
        "55464657044963196816950587289035428064568320970692304673817341489687790884866",
        "55464657044963196816950587289035428064568320970692304673817341489687782494209",
        "55464657044963196816950587289035428064568320970692304673817341489687790884864"
      ]
    },
    {
      "x": 240,
      "y": 379,
      "size": 1,
      "price": "4683000000000000000000",
      "reserved": "",
      "salt": "0xd58ea7a20a499a667d751ac1532c3234f2f7b4f572db05a2a9167d62c6187323",
      "assetIds": [
        "55464657044963196816950587289035428064568320970692304673817341489687790884865",
        "55464657044963196816950587289035428064568320970692304673817341489687782494208",
        "55464657044963196816950587289035428064568320970692304673817341489687790884866",
        "55464657044963196816950587289035428064568320970692304673817341489687782494209",
        "55464657044963196816950587289035428064568320970692304673817341489687790884864"
      ]
    },
    {
      "x": 240,
      "y": 380,
      "size": 1,
      "price": "4683000000000000000000",
      "reserved": "",
      "salt": "0xe07fedef158ce83d50c9e6dbc77262274ed3d8d338a3767e733ec83828e61b62",
      "assetIds": [
        "55464657044963196816950587289035428064568320970692304673817341489687790884865",
        "55464657044963196816950587289035428064568320970692304673817341489687782494208",
        "55464657044963196816950587289035428064568320970692304673817341489687790884866",
        "55464657044963196816950587289035428064568320970692304673817341489687782494209",
        "55464657044963196816950587289035428064568320970692304673817341489687790884864"
      ]
    },
    {
      "x": 240,
      "y": 381,
      "size": 1,
      "price": "4683000000000000000000",
      "reserved": "",
      "salt": "0x3b37a4d27e3656d89a20d229886bceaeda7438223d3566335d59ace313e8dca5",
      "assetIds": [
        "55464657044963196816950587289035428064568320970692304673817341489687790884865",
        "55464657044963196816950587289035428064568320970692304673817341489687782494208",
        "55464657044963196816950587289035428064568320970692304673817341489687790884866",
        "55464657044963196816950587289035428064568320970692304673817341489687782494209",
        "55464657044963196816950587289035428064568320970692304673817341489687790884864"
      ]
    },
    {
      "x": 240,
      "y": 382,
      "size": 1,
      "price": "4683000000000000000000",
      "reserved": "",
      "salt": "0x6b190cabf438e700cef0aaf6d967ab46aec6cef07e6bd920d457efa7ef1c834f",
      "assetIds": [
        "55464657044963196816950587289035428064568320970692304673817341489687790884865",
        "55464657044963196816950587289035428064568320970692304673817341489687782494208",
        "55464657044963196816950587289035428064568320970692304673817341489687790884866",
        "55464657044963196816950587289035428064568320970692304673817341489687782494209",
        "55464657044963196816950587289035428064568320970692304673817341489687790884864"
      ]
    },
    {
      "x": 240,
      "y": 383,
      "size": 1,
      "price": "4683000000000000000000",
      "reserved": "",
      "salt": "0x53a724f8f454f1792ae665c79ac90762afaac05d59f82822d449540a72026902",
      "assetIds": [
        "55464657044963196816950587289035428064568320970692304673817341489687790884865",
        "55464657044963196816950587289035428064568320970692304673817341489687782494208",
        "55464657044963196816950587289035428064568320970692304673817341489687790884866",
        "55464657044963196816950587289035428064568320970692304673817341489687782494209",
        "55464657044963196816950587289035428064568320970692304673817341489687790884864"
      ]
    },
    {
      "x": 241,
      "y": 360,
      "size": 1,
      "price": "4683000000000000000000",
      "reserved": "",
      "salt": "0xdd248b003a9225a288fd258ace9ed76d721aae3d71a70d883f3e038d79dcd98f",
      "assetIds": [
        "55464657044963196816950587289035428064568320970692304673817341489687790884865",
        "55464657044963196816950587289035428064568320970692304673817341489687782494208",
        "55464657044963196816950587289035428064568320970692304673817341489687790884866",
        "55464657044963196816950587289035428064568320970692304673817341489687782494209",
        "55464657044963196816950587289035428064568320970692304673817341489687790884864"
      ]
    },
    {
      "x": 241,
      "y": 361,
      "size": 1,
      "price": "4683000000000000000000",
      "reserved": "",
      "salt": "0x40aa6d7facca87b56b1fde23a25c55319fcf9c4a06a35b2a3ff76c55c3ba3bfc",
      "assetIds": [
        "55464657044963196816950587289035428064568320970692304673817341489687790884865",
        "55464657044963196816950587289035428064568320970692304673817341489687782494208",
        "55464657044963196816950587289035428064568320970692304673817341489687790884866",
        "55464657044963196816950587289035428064568320970692304673817341489687782494209",
        "55464657044963196816950587289035428064568320970692304673817341489687790884864"
      ]
    },
    {
      "x": 241,
      "y": 362,
      "size": 1,
      "price": "4683000000000000000000",
      "reserved": "",
      "salt": "0x33d0de345c1e9bb9a2d496a34a680bae00dfd223028843f31eb43f808264f544",
      "assetIds": [
        "55464657044963196816950587289035428064568320970692304673817341489687790884865",
        "55464657044963196816950587289035428064568320970692304673817341489687782494208",
        "55464657044963196816950587289035428064568320970692304673817341489687790884866",
        "55464657044963196816950587289035428064568320970692304673817341489687782494209",
        "55464657044963196816950587289035428064568320970692304673817341489687790884864"
      ]
    },
    {
      "x": 241,
      "y": 363,
      "size": 1,
      "price": "1011000000000000000000",
      "reserved": "",
      "salt": "0x83ba0717ac20c338378f631992b5ef2e95cbd40915a910a0e89f10f87f621cc8",
      "assetIds": []
    },
    {
      "x": 241,
      "y": 364,
      "size": 1,
      "price": "1011000000000000000000",
      "reserved": "",
      "salt": "0x39ce8ee1e0d242878f623d79e128dac30aa1f300bec944870017c670c10bd0cf",
      "assetIds": []
    },
    {
      "x": 241,
      "y": 365,
      "size": 1,
      "price": "1011000000000000000000",
      "reserved": "",
      "salt": "0x39e5df68a34980a7d264539b934ac103e1fcc1ee167229c58aa36608128abee4",
      "assetIds": []
    },
    {
      "x": 241,
      "y": 366,
      "size": 1,
      "price": "4683000000000000000000",
      "reserved": "",
      "salt": "0x081c571550cdaa36fd43a3013262f3d5bb66bf545073baa758c3912ea42b6269",
      "assetIds": [
        "55464657044963196816950587289035428064568320970692304673817341489687790884865",
        "55464657044963196816950587289035428064568320970692304673817341489687782494208",
        "55464657044963196816950587289035428064568320970692304673817341489687790884866",
        "55464657044963196816950587289035428064568320970692304673817341489687782494209",
        "55464657044963196816950587289035428064568320970692304673817341489687790884864"
      ]
    },
    {
      "x": 241,
      "y": 367,
      "size": 1,
      "price": "4683000000000000000000",
      "reserved": "",
      "salt": "0xce895eef2be5cd5e61a51cf71a9093f6e1c29c1eda64ff36b6a9206dd7084efc",
      "assetIds": [
        "55464657044963196816950587289035428064568320970692304673817341489687790884865",
        "55464657044963196816950587289035428064568320970692304673817341489687782494208",
        "55464657044963196816950587289035428064568320970692304673817341489687790884866",
        "55464657044963196816950587289035428064568320970692304673817341489687782494209",
        "55464657044963196816950587289035428064568320970692304673817341489687790884864"
      ]
    },
    {
      "x": 241,
      "y": 368,
      "size": 1,
      "price": "4683000000000000000000",
      "reserved": "",
      "salt": "0x5528d1418918810ddd65f1a36404137d8b7d0435d7eb429a2179797afbf0c355",
      "assetIds": [
        "55464657044963196816950587289035428064568320970692304673817341489687790884865",
        "55464657044963196816950587289035428064568320970692304673817341489687782494208",
        "55464657044963196816950587289035428064568320970692304673817341489687790884866",
        "55464657044963196816950587289035428064568320970692304673817341489687782494209",
        "55464657044963196816950587289035428064568320970692304673817341489687790884864"
      ]
    },
    {
      "x": 241,
      "y": 369,
      "size": 1,
      "price": "1011000000000000000000",
      "reserved": "",
      "salt": "0x17fc1785650fa7a93d8dbeda51924441e547e56a79c25c6fcfa58b8828fe3981",
      "assetIds": []
    },
    {
      "x": 241,
      "y": 370,
      "size": 1,
      "price": "1011000000000000000000",
      "reserved": "",
      "salt": "0x33e380f2499cc0ccd866ae8b98fcc2419d6bfda6bde899408fbd349b63ef73f4",
      "assetIds": []
    },
    {
      "x": 241,
      "y": 371,
      "size": 1,
      "price": "1011000000000000000000",
      "reserved": "",
      "salt": "0x928abe57db7fabb05a4283271591ab0de4ffb5992bfe05fc008de71ebdc06ab2",
      "assetIds": []
    },
    {
      "x": 241,
      "y": 372,
      "size": 1,
      "price": "4683000000000000000000",
      "reserved": "",
      "salt": "0xb4f83f7f9ff2a9c6e734764e21f074fb2e3bb3c2e9ddb8d4349e8b527695b0f4",
      "assetIds": [
        "55464657044963196816950587289035428064568320970692304673817341489687790884865",
        "55464657044963196816950587289035428064568320970692304673817341489687782494208",
        "55464657044963196816950587289035428064568320970692304673817341489687790884866",
        "55464657044963196816950587289035428064568320970692304673817341489687782494209",
        "55464657044963196816950587289035428064568320970692304673817341489687790884864"
      ]
    },
    {
      "x": 241,
      "y": 373,
      "size": 1,
      "price": "4683000000000000000000",
      "reserved": "",
      "salt": "0x42a102ecd9ba746af075b4b69762c8e23d1219e84d155073a722a6f0e135df02",
      "assetIds": [
        "55464657044963196816950587289035428064568320970692304673817341489687790884865",
        "55464657044963196816950587289035428064568320970692304673817341489687782494208",
        "55464657044963196816950587289035428064568320970692304673817341489687790884866",
        "55464657044963196816950587289035428064568320970692304673817341489687782494209",
        "55464657044963196816950587289035428064568320970692304673817341489687790884864"
      ]
    },
    {
      "x": 241,
      "y": 374,
      "size": 1,
      "price": "4683000000000000000000",
      "reserved": "",
      "salt": "0xac4a73fe6e54a04133714392c06a40efd161916684e59350e920b8d5fcc5a064",
      "assetIds": [
        "55464657044963196816950587289035428064568320970692304673817341489687790884865",
        "55464657044963196816950587289035428064568320970692304673817341489687782494208",
        "55464657044963196816950587289035428064568320970692304673817341489687790884866",
        "55464657044963196816950587289035428064568320970692304673817341489687782494209",
        "55464657044963196816950587289035428064568320970692304673817341489687790884864"
      ]
    },
    {
      "x": 241,
      "y": 375,
      "size": 1,
      "price": "1011000000000000000000",
      "reserved": "",
      "salt": "0x67f729f38fd82ad579547dccf4d648509a389115f62db77007df9e887a43ebb6",
      "assetIds": []
    },
    {
      "x": 241,
      "y": 376,
      "size": 1,
      "price": "1011000000000000000000",
      "reserved": "",
      "salt": "0xc0dfe22abc0fcbd4ce67f30f32d07d198cbef38a746183618e7065bed23b6d71",
      "assetIds": []
    },
    {
      "x": 241,
      "y": 377,
      "size": 1,
      "price": "1011000000000000000000",
      "reserved": "",
      "salt": "0x51d123e813127a6d716518375ede3314837e98396fdfb184708ac6d8b804ddaf",
      "assetIds": []
    },
    {
      "x": 241,
      "y": 378,
      "size": 1,
      "price": "4683000000000000000000",
      "reserved": "",
      "salt": "0x5a609c1c90f9f3f497f2d3cbcd6380ee39d1e560070226edc586afd992ac31e7",
      "assetIds": [
        "55464657044963196816950587289035428064568320970692304673817341489687790884865",
        "55464657044963196816950587289035428064568320970692304673817341489687782494208",
        "55464657044963196816950587289035428064568320970692304673817341489687790884866",
        "55464657044963196816950587289035428064568320970692304673817341489687782494209",
        "55464657044963196816950587289035428064568320970692304673817341489687790884864"
      ]
    },
    {
      "x": 241,
      "y": 379,
      "size": 1,
      "price": "4683000000000000000000",
      "reserved": "",
      "salt": "0x67825e9756c8b3db068c06130c618407ff2ea58530368550c731017676052617",
      "assetIds": [
        "55464657044963196816950587289035428064568320970692304673817341489687790884865",
        "55464657044963196816950587289035428064568320970692304673817341489687782494208",
        "55464657044963196816950587289035428064568320970692304673817341489687790884866",
        "55464657044963196816950587289035428064568320970692304673817341489687782494209",
        "55464657044963196816950587289035428064568320970692304673817341489687790884864"
      ]
    },
    {
      "x": 241,
      "y": 380,
      "size": 1,
      "price": "4683000000000000000000",
      "reserved": "",
      "salt": "0x97d6ab41e2c531c68396f63e478abf2182117dd1f422e2624001ae83aeeb892d",
      "assetIds": [
        "55464657044963196816950587289035428064568320970692304673817341489687790884865",
        "55464657044963196816950587289035428064568320970692304673817341489687782494208",
        "55464657044963196816950587289035428064568320970692304673817341489687790884866",
        "55464657044963196816950587289035428064568320970692304673817341489687782494209",
        "55464657044963196816950587289035428064568320970692304673817341489687790884864"
      ]
    },
    {
      "x": 241,
      "y": 381,
      "size": 1,
      "price": "1011000000000000000000",
      "reserved": "",
      "salt": "0xcdc3e904c436775e506bc73f276b8d02e6aa828b8c50a9074d8df1d7b96b3f28",
      "assetIds": []
    },
    {
      "x": 241,
      "y": 382,
      "size": 1,
      "price": "1011000000000000000000",
      "reserved": "",
      "salt": "0x6eab18154cfb231ea17572705338a32396706984e21b82943cf0c79b8875ae76",
      "assetIds": []
    },
    {
      "x": 241,
      "y": 383,
      "size": 1,
      "price": "1011000000000000000000",
      "reserved": "",
      "salt": "0x770de0d662e0495f248b1836cb30c242ecdf9f730405db2cd8b4ad7324312201",
      "assetIds": []
    },
    {
      "x": 242,
      "y": 360,
      "size": 1,
      "price": "4683000000000000000000",
      "reserved": "",
      "salt": "0xbc1194432c6157eb4fd53a856c4d6645604e29d5d0f76f70a77a2e528692ca75",
      "assetIds": [
        "55464657044963196816950587289035428064568320970692304673817341489687790884865",
        "55464657044963196816950587289035428064568320970692304673817341489687782494208",
        "55464657044963196816950587289035428064568320970692304673817341489687790884866",
        "55464657044963196816950587289035428064568320970692304673817341489687782494209",
        "55464657044963196816950587289035428064568320970692304673817341489687790884864"
      ]
    },
    {
      "x": 242,
      "y": 361,
      "size": 1,
      "price": "1011000000000000000000",
      "reserved": "",
      "salt": "0xf31a25d5025df776d0465f462d76fdea90eaf3d64deec1df06a3e8eeb876a466",
      "assetIds": []
    },
    {
      "x": 242,
      "y": 362,
      "size": 1,
      "price": "1011000000000000000000",
      "reserved": "",
      "salt": "0x42d6324e40aad13c639498cc3ddd53685c98f8e76781943fdb706aaed93cca66",
      "assetIds": []
    },
    {
      "x": 242,
      "y": 363,
      "size": 1,
      "price": "1011000000000000000000",
      "reserved": "",
      "salt": "0x3987523cf53c0d364bd1e04ed5bfaa8b8127567339b4aa2b815b1c83855e47d2",
      "assetIds": []
    },
    {
      "x": 242,
      "y": 364,
      "size": 1,
      "price": "1011000000000000000000",
      "reserved": "",
      "salt": "0x168f70150e062307fa591a54d90b28b108b769ef1419c0d2a5c414405a14f9db",
      "assetIds": []
    },
    {
      "x": 242,
      "y": 365,
      "size": 1,
      "price": "1011000000000000000000",
      "reserved": "",
      "salt": "0x7a416f34ea5edff6a2ae5fc072c203eff3bdfeb45c68ae85d8becfbfb49560dd",
      "assetIds": []
    },
    {
      "x": 242,
      "y": 366,
      "size": 1,
      "price": "1011000000000000000000",
      "reserved": "",
      "salt": "0xebb243444abdcdd8c4e7d8b386c877d20f6a859c8c057910f8c061f391b72039",
      "assetIds": []
    },
    {
      "x": 242,
      "y": 367,
      "size": 1,
      "price": "1011000000000000000000",
      "reserved": "",
      "salt": "0x79ba0e105277c4ecff9072547d76ccde2bb6b8c6e0a4f302484f3a374c1da5f6",
      "assetIds": []
    },
    {
      "x": 242,
      "y": 368,
      "size": 1,
      "price": "1011000000000000000000",
      "reserved": "",
      "salt": "0xe5bb7f8eef9d916781481d994961eace82d9921dfa23ac5d511f351c65543024",
      "assetIds": []
    },
    {
      "x": 242,
      "y": 369,
      "size": 1,
      "price": "1011000000000000000000",
      "reserved": "",
      "salt": "0x925283f1b9fda37349dbc6d83ce6f3613292117a747f9d20af1a79bb8439ed0b",
      "assetIds": []
    },
    {
      "x": 242,
      "y": 370,
      "size": 1,
      "price": "1011000000000000000000",
      "reserved": "",
      "salt": "0x186759505607d531f935914ac1b5f70524f75f3f8e37fe6af096b3441acd2a30",
      "assetIds": []
    },
    {
      "x": 242,
      "y": 371,
      "size": 1,
      "price": "1011000000000000000000",
      "reserved": "",
      "salt": "0x465ce6d5fb0944e698b2d6269853425330f619ee3cef8637e4d1f4fbf7ec0665",
      "assetIds": []
    },
    {
      "x": 242,
      "y": 372,
      "size": 1,
      "price": "1011000000000000000000",
      "reserved": "",
      "salt": "0x757a477c5516f2cd8da713f08150e2cbdc788af86dde177c527dad7d127ec4b8",
      "assetIds": []
    },
    {
      "x": 242,
      "y": 373,
      "size": 1,
      "price": "1011000000000000000000",
      "reserved": "",
      "salt": "0xee0e3b2eb02529c8b6f03c11e953524d62910c35749c2e96cad6df30a98ba528",
      "assetIds": []
    },
    {
      "x": 242,
      "y": 374,
      "size": 1,
      "price": "1011000000000000000000",
      "reserved": "",
      "salt": "0x831be77a4ef50015e5c09cfc6365c151fa493709525059d21802f119307b166e",
      "assetIds": []
    },
    {
      "x": 242,
      "y": 375,
      "size": 1,
      "price": "1011000000000000000000",
      "reserved": "",
      "salt": "0x3258cf26ba39d5593e30e5b910b0c3c873053ecea4716d271363b48860470275",
      "assetIds": []
    },
    {
      "x": 242,
      "y": 376,
      "size": 1,
      "price": "1011000000000000000000",
      "reserved": "",
      "salt": "0x0f8a4358a3ee46330c4e0f0492df08bbb2f80beae0420518b8caca90daf27d95",
      "assetIds": []
    },
    {
      "x": 242,
      "y": 377,
      "size": 1,
      "price": "1011000000000000000000",
      "reserved": "",
      "salt": "0x7dd1bb18a2299893d130a4675921cb12e25290ffd2be4f406d0fd3cb81a6dd43",
      "assetIds": []
    },
    {
      "x": 242,
      "y": 378,
      "size": 1,
      "price": "1011000000000000000000",
      "reserved": "",
      "salt": "0x339270840a132aea6a834c5a39579c5ee5a99c45a770b47d3973ddc544bf90ca",
      "assetIds": []
    },
    {
      "x": 242,
      "y": 379,
      "size": 1,
      "price": "1011000000000000000000",
      "reserved": "",
      "salt": "0xaac279ad02088c779a8c0ecd07ee1455297e20d1f7a72655b4a5100a2848a3f5",
      "assetIds": []
    },
    {
      "x": 242,
      "y": 380,
      "size": 1,
      "price": "1011000000000000000000",
      "reserved": "",
      "salt": "0xbe5efe4521e98484cc3b832e86571c486b1ba115d1c2bf5a6e17cb3c087e830f",
      "assetIds": []
    },
    {
      "x": 242,
      "y": 381,
      "size": 1,
      "price": "1011000000000000000000",
      "reserved": "",
      "salt": "0x84bccc3e13dc57009a4aed4b978d42ef5a6c575215f684dc4ed4e643c0cdb08d",
      "assetIds": []
    },
    {
      "x": 242,
      "y": 382,
      "size": 1,
      "price": "1011000000000000000000",
      "reserved": "0x7a9fe22691c811ea339d9b73150e6911a5343dca",
      "salt": "0x1010189bd3685be4aacf3e23cd913888c91979d88bb5a4dbed080270ae8cfe8a",
      "assetIds": []
    },
    {
      "x": 242,
      "y": 383,
      "size": 1,
      "price": "1011000000000000000000",
      "reserved": "0x7a9fe22691c811ea339d9b73150e6911a5343dca",
      "salt": "0xff6b9ee8290928d4ab2e9a198e6aab37a50139799e709dd29087117882e5141e",
      "assetIds": []
    },
    {
      "x": 171,
      "y": 393,
      "size": 3,
      "price": "8648000000000000000000",
      "reserved": "0x7a9fe22691c811ea339d9b73150e6911a5343dca",
      "salt": "0x5c4a7e77fff0d4028e4916907510eb9b81fdd2cc57d5c6a039732d7f675703e7",
      "assetIds": []
    },
    {
      "x": 180,
      "y": 399,
      "size": 3,
      "price": "8648000000000000000000",
      "reserved": "0x7a9fe22691c811ea339d9b73150e6911a5343dca",
      "salt": "0x13c9ce9a45e6e63670df7626e01183fe6d882ea5d67433bc325b4fe061ffa7cd",
      "assetIds": []
    },
    {
      "x": 201,
      "y": 387,
      "size": 3,
      "price": "8648000000000000000000",
      "reserved": "0x7a9fe22691c811ea339d9b73150e6911a5343dca",
      "salt": "0xf49dece3f19399814c9f68068578791808f5b772211c705edb54855a113fa6b7",
      "assetIds": []
    },
    {
      "x": 207,
      "y": 402,
      "size": 3,
      "price": "8648000000000000000000",
      "reserved": "0x7a9fe22691c811ea339d9b73150e6911a5343dca",
      "salt": "0x9b2a334505f85c1eee2e7e52b3922828aaeb843f6d8f2fb92bbcdc6b075e455f",
      "assetIds": []
    },
    {
      "x": 213,
      "y": 366,
      "size": 3,
      "price": "8648000000000000000000",
      "reserved": "0x7a9fe22691c811ea339d9b73150e6911a5343dca",
      "salt": "0x55c0e4fb6754d25d9343460aae9cd2d97bbfdf05cd666aa8f0ec9b9004d1c42a",
      "assetIds": []
    },
    {
      "x": 174,
      "y": 396,
      "size": 6,
      "price": "32772000000000000000000",
      "reserved": "0x7a9fe22691c811ea339d9b73150e6911a5343dca",
      "salt": "0x8f01dd8ec9a68a14e62a9d04cb7a99ae3bc39edbb02c42d6aff65e4bce56b97b",
      "assetIds": []
    },
    {
      "x": 186,
      "y": 384,
      "size": 6,
      "price": "32772000000000000000000",
      "reserved": "0x7a9fe22691c811ea339d9b73150e6911a5343dca",
      "salt": "0x5aeff736f9e3c3e82613c6ac99844470c1a0c50cb0d045a60bbfa7cee4debca4",
      "assetIds": []
    },
    {
      "x": 198,
      "y": 372,
      "size": 6,
      "price": "32772000000000000000000",
      "reserved": "0x7a9fe22691c811ea339d9b73150e6911a5343dca",
      "salt": "0x3fdfd771356d96ec3a2eb0707fbd1923aa0a4f005d8343a50268be3860bba1a1",
      "assetIds": []
    },
    {
      "x": 198,
      "y": 390,
      "size": 6,
      "price": "32772000000000000000000",
      "reserved": "0x7a9fe22691c811ea339d9b73150e6911a5343dca",
      "salt": "0x34b565659858c2ed3af6160b46febd85e67dcb041d37649325071daee9a65164",
      "assetIds": []
    },
    {
      "x": 210,
      "y": 378,
      "size": 6,
      "price": "32772000000000000000000",
      "reserved": "0x7a9fe22691c811ea339d9b73150e6911a5343dca",
      "salt": "0xb2466a00753e8d2cfd2df9e3fed01de7294ee8a4d4fc953d5e453f56b6a27a82",
      "assetIds": []
    },
    {
      "x": 210,
      "y": 390,
      "size": 6,
      "price": "32772000000000000000000",
      "reserved": "0x7a9fe22691c811ea339d9b73150e6911a5343dca",
      "salt": "0x7c738b196f88bca2a2e38fa45d10d7d82799ad8f2196553b56fca5aa0c41e735",
      "assetIds": []
    },
    {
      "x": 192,
      "y": 360,
      "size": 12,
      "price": "123806000000000000000000",
      "reserved": "0x7a9fe22691c811ea339d9b73150e6911a5343dca",
      "salt": "0xc5957e6cd2b8598d2cb771e4807beffbcf1413135561103295b098b8dc99cae4",
      "assetIds": []
    },
    {
      "x": 216,
      "y": 360,
      "size": 24,
      "price": "466102000000000000000000",
      "reserved": "0x7a9fe22691c811ea339d9b73150e6911a5343dca",
      "salt": "0xd3dde5d2f410cfa24056028d7b372e111fdc7e55d85c497f2c547d5838118e51",
      "assetIds": []
    }
  ],
  "solcInputHash": "313f455adab9ae93096e43acc50d7d38",
  "bytecode": "0x610160604052620d2f006005556103e860075534801561001e57600080fd5b5060405161242e38038061242e833981810160405261018081101561004257600080fd5b50805160208201516040830151606080850151608086015160a08088015160c0808a015160e08b01516101008c01516101208d01516101408e0151610160909e0151600280546001600160a01b0319166001600160a01b03861617905560038390558d8b1b6001600160601b0319908116909852998c901b909616909352999a9899979895979496929590949391926100dc8a600161014a565b600680546001600160a01b03199081166001600160a01b039a8b1617909155610140979097526101209590955260008054909616979096169690961790935550606093841b6001600160601b031990811660e05292841b831660805290921b1661010052506101ae92505050565b6001600160a01b038216600081815260016020908152604091829020805460ff191685151590811790915582519384529083015280517fb21eb88b4e33b3f1281830a7178d74d8aa73220416215726b68ae23d539515cb9281900390910190a15050565b60805160601c60a05160601c60c05160601c60e05160601c6101005160601c61012051610140516121fb610233600039806109375280611d44525080610913528061139a525080611da45250806115d252806116f4525080610c50528061159c5280611dd852508061166152806116c5525080610dfa528061190852506121fb6000f3fe608060405234801561001057600080fd5b50600436106101515760003560e01c8063984d6252116100cd578063dc5074af11610081578063ecb255b511610066578063ecb255b514610857578063f23a6e6114610874578063f2e7b3811461090957610151565b8063dc5074af14610814578063e56f8a9e1461083a57610151565b8063bc197c81116100b2578063bc197c81146105d3578063c10a420814610735578063caed35001461080c57610151565b8063984d6252146104db578063b522ecff146105ad57610151565b80636e9960c3116101245780638a04af6a116101095780638a04af6a1461032a5780638a12b82f146103585780638f283970146104b557610151565b80636e9960c3146102fe57806377f1c3ac1461032257610151565b806325cb5bc014610156578063495906571461017057806358bc29441461017857806365194ce7146101a0575b600080fd5b61015e610911565b60408051918252519081900360200190f35b61015e610935565b61019e6004803603602081101561018e57600080fd5b50356001600160a01b0316610959565b005b610246600480360360208110156101b657600080fd5b8101906020810181356401000000008111156101d157600080fd5b8201836020820111156101e357600080fd5b8035906020019184600183028401116401000000008311171561020557600080fd5b91908080601f016020809104026020016040519081016040528093929190818152602001838380828437600092019190915250929550610a04945050505050565b6040518080602001866001600160a01b03166001600160a01b03168152602001856001600160a01b03166001600160a01b03168152602001848152602001838152602001828103825287818151815260200191508051906020019080838360005b838110156102bf5781810151838201526020016102a7565b50505050905090810190601f1680156102ec5780820380516001836020036101000a031916815260200191505b50965050505050505060405180910390f35b610306610b09565b604080516001600160a01b039092168252519081900360200190f35b61015e610b18565b61019e6004803603604081101561034057600080fd5b506001600160a01b0381351690602001351515610b1e565b61019e600480360361018081101561036f57600080fd5b6001600160a01b038235811692602081013582169260408201359092169160608201359160808101359160a08201359160c08101359160e0820135916101008101359181019061014081016101208201356401000000008111156103d257600080fd5b8201836020820111156103e457600080fd5b8035906020019184602083028401116401000000008311171561040657600080fd5b91939092909160208101903564010000000081111561042457600080fd5b82018360208201111561043657600080fd5b8035906020019184602083028401116401000000008311171561045857600080fd5b91939092909160208101903564010000000081111561047657600080fd5b82018360208201111561048857600080fd5b803590602001918460018302840111640100000000831117156104aa57600080fd5b509092509050610b75565b61019e600480360360208110156104cb57600080fd5b50356001600160a01b0316610cc3565b61019e600480360360608110156104f157600080fd5b6001600160a01b03823516919081019060408101602082013564010000000081111561051c57600080fd5b82018360208201111561052e57600080fd5b8035906020019184602083028401116401000000008311171561055057600080fd5b91939092909160208101903564010000000081111561056e57600080fd5b82018360208201111561058057600080fd5b803590602001918460208302840111640100000000831117156105a257600080fd5b509092509050610d99565b61019e600480360360208110156105c357600080fd5b50356001600160a01b0316610f24565b610700600480360360a08110156105e957600080fd5b6001600160a01b03823581169260208101359091169181019060608101604082013564010000000081111561061d57600080fd5b82018360208201111561062f57600080fd5b8035906020019184602083028401116401000000008311171561065157600080fd5b91939092909160208101903564010000000081111561066f57600080fd5b82018360208201111561068157600080fd5b803590602001918460208302840111640100000000831117156106a357600080fd5b9193909290916020810190356401000000008111156106c157600080fd5b8201836020820111156106d357600080fd5b803590602001918460018302840111640100000000831117156106f557600080fd5b50909250905061100d565b604080517fffffffff000000000000000000000000000000000000000000000000000000009092168252519081900360200190f35b6107f8600480360360a081101561074b57600080fd5b81019060208101813564010000000081111561076657600080fd5b82018360208201111561077857600080fd5b8035906020019184600183028401116401000000008311171561079a57600080fd5b91908080601f016020809104026020016040519081016040528093929190818152602001838380828437600092019190915250929550506001600160a01b03833581169450602084013516926040810135925060600135905061103a565b604080519115158252519081900360200190f35b610306611176565b6107f86004803603602081101561082a57600080fd5b50356001600160a01b0316611185565b61019e6004803603602081101561085057600080fd5b50356111a3565b61019e6004803603602081101561086d57600080fd5b5035611207565b610700600480360360a081101561088a57600080fd5b6001600160a01b03823581169260208101359091169160408201359160608101359181019060a0810160808201356401000000008111156108ca57600080fd5b8201836020820111156108dc57600080fd5b803590602001918460018302840111640100000000831117156108fe57600080fd5b50909250905061126b565b61015e611296565b7f000000000000000000000000000000000000000000000000000000000000000090565b7f000000000000000000000000000000000000000000000000000000000000000090565b6000546001600160a01b031633146109b8576040805162461bcd60e51b815260206004820152601060248201527f53656e646572206e6f742061646d696e00000000000000000000000000000000604482015290519081900360640190fd5b600554600280546001600160a01b03908116600090815260046020526040902042909301909255805473ffffffffffffffffffffffffffffffffffffffff191692909116919091179055565b606060008060008060606000806000808a80602001905160a0811015610a2957600080fd5b8101908080516040519392919084640100000000821115610a4957600080fd5b908301906020820185811115610a5e57600080fd5b8251640100000000811182820188101715610a7857600080fd5b82525081516020918201929091019080838360005b83811015610aa5578181015183820152602001610a8d565b50505050905090810190601f168015610ad25780820380516001836020036101000a031916815260200191505b5060409081526020820151908201516060830151608090930151959f50909d509b5099509197505050505050505091939590929450565b6000546001600160a01b031690565b60035490565b6000546001600160a01b03163314610b675760405162461bcd60e51b815260040180806020018281038252602e815260200180612198602e913960400191505060405180910390fd5b610b71828261129c565b5050565b610b7f898961131e565b610c048f8e8e8e8e8e8d8d8d80806020026020016040519081016040528093929190818152602001838360200280828437600081840152601f19601f820116905080830192505050505050508c8c8080602002602001604051908101604052809392919081815260200183836020028082843760009201919091525061139892505050565b610c458f8984848080601f01602080910402602001604051908101604052809392919081815260200183838082843760009201919091525061157592505050565b610c758f8f8e8e8e8d7f00000000000000000000000000000000000000000000000000000000000000008f6115c6565b610cb28e87878080602002602001604051908101604052809392919081815260200183836020028082843760009201919091525061189192505050565b505050505050505050505050505050565b6000546001600160a01b03163314610d22576040805162461bcd60e51b815260206004820152601b60248201527f6f6e6c792061646d696e2063616e206368616e67652061646d696e0000000000604482015290519081900360640190fd5b600054604080516001600160a01b039283168152918316602083015280517f7e644d79422f17c01e4894b5f4f588d331ebfa28653d42ae832dc59e38c9798f9281900390910190a16000805473ffffffffffffffffffffffffffffffffffffffff19166001600160a01b0392909216919091179055565b6000546001600160a01b03163314610df8576040805162461bcd60e51b815260206004820152600e60248201527f4e4f545f415554484f52495a4544000000000000000000000000000000000000604482015290519081900360640190fd5b7f00000000000000000000000000000000000000000000000000000000000000006001600160a01b0316632eb2c2d63087878787876040518763ffffffff1660e01b815260040180876001600160a01b03166001600160a01b03168152602001866001600160a01b03166001600160a01b031681526020018060200180602001806020018481038452888882818152602001925060200280828437600083820152601f01601f19169091018581038452868152602090810191508790870280828437600081840152601f19601f8201169050808301925050508481038252600081526020016020019950505050505050505050600060405180830381600087803b158015610f0557600080fd5b505af1158015610f19573d6000803e3d6000fd5b505050505050505050565b6001600160a01b038116610f7f576040805162461bcd60e51b815260206004820152600c60248201527f5a45524f5f414444524553530000000000000000000000000000000000000000604482015290519081900360640190fd5b6000546001600160a01b03163314610fde576040805162461bcd60e51b815260206004820152600e60248201527f4e4f545f415554484f52495a4544000000000000000000000000000000000000604482015290519081900360640190fd5b6006805473ffffffffffffffffffffffffffffffffffffffff19166001600160a01b0392909216919091179055565b7fbc197c810000000000000000000000000000000000000000000000000000000098975050505050505050565b600060035482118061105d5750836001600160a01b0316856001600160a01b0316145b8061106757508242115b156110745750600061116d565b60408051606087811b7fffffffffffffffffffffffffffffffffffffffff0000000000000000000000009081166020808501919091529188901b166034830152604882018690526068808301869052835180840390910181526088830184528051908201207f19457468657265756d205369676e6564204d6573736167653a0a33320000000060a884015260c48084018290528451808503909101815260e4909301909352815191012060009061112b9089611a55565b6001600160a01b03811660009081526004602052604090205490915042116111585760019250505061116d565b6002546001600160a01b039081169116149150505b95945050505050565b6002546001600160a01b031690565b6001600160a01b031660009081526001602052604090205460ff1690565b6000546001600160a01b03163314611202576040805162461bcd60e51b815260206004820152601060248201527f53656e646572206e6f742061646d696e00000000000000000000000000000000604482015290519081900360640190fd5b600355565b6000546001600160a01b03163314611266576040805162461bcd60e51b815260206004820152600e60248201527f4e4f545f415554484f52495a4544000000000000000000000000000000000000604482015290519081900360640190fd5b600755565b7ff23a6e61000000000000000000000000000000000000000000000000000000009695505050505050565b60075490565b6001600160a01b03821660008181526001602090815260409182902080547fffffffffffffffffffffffffffffffffffffffffffffffffffffffffffffff001685151590811790915582519384529083015280517fb21eb88b4e33b3f1281830a7178d74d8aa73220416215726b68ae23d539515cb9281900390910190a15050565b6113456103e861133960075485611b2290919063ffffffff16565b9063ffffffff611b9816565b8114610b71576040805162461bcd60e51b815260206004820152600d60248201527f494e56414c49445f505249434500000000000000000000000000000000000000604482015290519081900360640190fd5b7f0000000000000000000000000000000000000000000000000000000000000000421061140c576040805162461bcd60e51b815260206004820152600c60248201527f53414c455f49535f4f5645520000000000000000000000000000000000000000604482015290519081900360640190fd5b6001600160a01b03891633148061143257503360009081526001602052604090205460ff165b611483576040805162461bcd60e51b815260206004820152600e60248201527f4e4f545f415554484f52495a4544000000000000000000000000000000000000604482015290519081900360640190fd5b6001600160a01b03881615806114aa5750886001600160a01b0316886001600160a01b0316145b6114fb576040805162461bcd60e51b815260206004820152600d60248201527f52455345525645445f4c414e4400000000000000000000000000000000000000604482015290519081900360640190fd5b600061150c888888888d8989611bfd565b90506115188282611ca2565b611569576040805162461bcd60e51b815260206004820152600c60248201527f494e56414c49445f4c414e440000000000000000000000000000000000000000604482015290519081900360640190fd5b50505050505050505050565b60006115818484611d6b565b6006549091506115c0908590839085906001600160a01b03167f0000000000000000000000000000000000000000000000000000000000000000611eb8565b50505050565b83600114806115fc57507f00000000000000000000000000000000000000000000000000000000000000006001600160a01b0316155b156116c357604080517f6e1e3bbf0000000000000000000000000000000000000000000000000000000081526001600160a01b03898116600483015260248201879052604482018990526064820188905260a06084830152600060a4830181905292517f000000000000000000000000000000000000000000000000000000000000000090911692636e1e3bbf9260e4808201939182900301818387803b1580156116a657600080fd5b505af11580156116ba573d6000803e3d6000fd5b50505050611827565b7f00000000000000000000000000000000000000000000000000000000000000006001600160a01b0316636e1e3bbf7f00000000000000000000000000000000000000000000000000000000000000008689898c60405160200180826001600160a01b03166001600160a01b031681526020019150506040516020818303038152906040526040518663ffffffff1660e01b815260040180866001600160a01b03166001600160a01b0316815260200185815260200184815260200183815260200180602001828103825283818151815260200191508051906020019080838360005b838110156117be5781810151838201526020016117a6565b50505050905090810190601f1680156117eb5780820380516001836020036101000a031916815260200191505b509650505050505050600060405180830381600087803b15801561180e57600080fd5b505af1158015611822573d6000803e3d6000fd5b505050505b60408051858152602081018590526001600160a01b03848116828401526060820184905291516101988802890192808b1692908c16917fe4dfa6ac11314892f3029b34a25b1a887da3b1cab2bbf8506d87128ba6e3ac029181900360800190a45050505050505050565b6060815167ffffffffffffffff811180156118ab57600080fd5b506040519080825280602002602001820160405280156118d5578160200160208202803683370190505b50905060005b82518110156119055760018282815181106118f257fe5b60209081029190910101526001016118db565b507f00000000000000000000000000000000000000000000000000000000000000006001600160a01b0316632eb2c2d6308585856040518563ffffffff1660e01b815260040180856001600160a01b03166001600160a01b03168152602001846001600160a01b03166001600160a01b03168152602001806020018060200180602001848103845286818151815260200191508051906020019060200280838360005b838110156119c05781810151838201526020016119a8565b50505050905001848103835285818151815260200191508051906020019060200280838360005b838110156119ff5781810151838201526020016119e7565b50505050905001848103825260008152602001602001975050505050505050600060405180830381600087803b158015611a3857600080fd5b505af1158015611a4c573d6000803e3d6000fd5b50505050505050565b60008151604114611a6557600080fd5b60208201516040830151606084015160001a601b811015611a8457601b015b8060ff16601b1480611a9957508060ff16601c145b611aa257600080fd5b6040805160008152602080820180845289905260ff8416828401526060820186905260808201859052915160019260a0808401939192601f1981019281900390910190855afa158015611af9573d6000803e3d6000fd5b5050604051601f1901519450506001600160a01b038416611b1957600080fd5b50505092915050565b600082611b3157506000611b92565b5081810281838281611b3f57fe5b0414611b92576040805162461bcd60e51b815260206004820152600860248201527f6f766572666c6f77000000000000000000000000000000000000000000000000604482015290519081900360640190fd5b92915050565b600081611bec576040805162461bcd60e51b815260206004820152600960248201527f64697662797a65726f0000000000000000000000000000000000000000000000604482015290519081900360640190fd5b818381611bf557fe5b049392505050565b60008787878787878760405160200180888152602001878152602001868152602001858152602001846001600160a01b03166001600160a01b031660601b8152601401838152602001828051906020019060200280838360005b83811015611c6f578181015183820152602001611c57565b50505050905001975050505050505050604051602081830303815290604052805190602001209050979650505050505050565b600081815b8451811015611d41576000858281518110611cbe57fe5b6020026020010151905080831015611d065782816040516020018083815260200182815260200192505050604051602081830303815290604052805190602001209250611d38565b808360405160200180838152602001828152602001925050506040516020818303038152906040528051906020012092505b50600101611ca7565b507f0000000000000000000000000000000000000000000000000000000000000000149392505050565b600080611d84606461133985600563ffffffff611b2216565b604080516323b872dd60e01b81526001600160a01b0387811660048301527f0000000000000000000000000000000000000000000000000000000000000000811660248301526044820184905291519293507f0000000000000000000000000000000000000000000000000000000000000000909116916323b872dd916064808201926020929091908290030181600087803b158015611e2357600080fd5b505af1158015611e37573d6000803e3d6000fd5b505050506040513d6020811015611e4d57600080fd5b5051611ea0576040805162461bcd60e51b815260206004820152601360248201527f4645455f5452414e534645525f4641494c454400000000000000000000000000604482015290519081900360640190fd5b611eb0838263ffffffff61213a16565b949350505050565b82518190859015612062576060600080600080611ed48a610a04565b9398509196509450925090506000611eef868686868661103a565b15611f7d57611f09611f018d84611b22565b612710611b98565b9050886001600160a01b0316846001600160a01b0316866001600160a01b03167fac7a699eb95c3c6d390ec4626de17ef9a67b35891efdb197beba7c7fdd45fac48f858760405180848152602001838152602001828152602001935050505060405180910390a4611f7a878261213a565b96505b801561205b57604080516323b872dd60e01b81526001600160a01b038f811660048301528781166024830152604482018490529151918a16916323b872dd916064808201926020929091908290030181600087803b158015611fde57600080fd5b505af1158015611ff2573d6000803e3d6000fd5b505050506040513d602081101561200857600080fd5b505161205b576040805162461bcd60e51b815260206004820152601960248201527f636f6d6d6973696f6e207472616e73666572206661696c656400000000000000604482015290519081900360640190fd5b5050505050505b604080516323b872dd60e01b81526001600160a01b0389811660048301528681166024830152604482018490529151918416916323b872dd916064808201926020929091908290030181600087803b1580156120bd57600080fd5b505af11580156120d1573d6000803e3d6000fd5b505050506040513d60208110156120e757600080fd5b5051611a4c576040805162461bcd60e51b815260206004820152601760248201527f7061796d656e74207472616e73666572206661696c6564000000000000000000604482015290519081900360640190fd5b600082821115612191576040805162461bcd60e51b815260206004820152600860248201527f756e6465666c6f77000000000000000000000000000000000000000000000000604482015290519081900360640190fd5b5090039056fe6f6e6c792061646d696e2063616e207365747570206d6574615472616e73616374696f6e50726f636573736f7273a26469706673582212200ff38c5741c66b2a22a9a9ee2abe0f55626323082b6b4443921fd3b25484584a64736f6c63430006050033",
  "devdoc": {
    "methods": {
      "buyLandWithSand(address,address,address,uint256,uint256,uint256,uint256,uint256,bytes32,uint256[],bytes32[],bytes)": {
        "params": {
          "buyer": "address that perform the payment",
          "priceInSand": "price in SAND to purchase that Land",
          "proof": "merkleProof for that particular Land",
          "reserved": "the reserved address (if any)",
          "size": "size of the pack of Land to purchase",
          "to": "address that will own the purchased Land",
          "x": "x coordinate of the Land",
          "y": "y coordinate of the Land"
        }
      },
      "changeAdmin(address)": {
        "details": "change the administrator to be `newAdmin`.",
        "params": {
          "newAdmin": "address of the new administrator."
        }
      },
      "getAdmin()": {
        "details": "gives the current administrator of this contract.",
        "returns": {
          "_0": "the current administrator of this contract."
        }
      },
      "getSigningWallet()": {
        "details": "signing wallet authorized for referral",
        "returns": {
          "_0": "the address of the signing wallet"
        }
      },
      "isMetaTransactionProcessor(address)": {
        "details": "check whether address `who` is given meta-transaction execution rights.",
        "params": {
          "who": "The address to query."
        },
        "returns": {
          "_0": "whether the address has meta-transaction execution rights."
        }
      },
      "isReferralValid(bytes,address,address,uint256,uint256)": {
        "params": {
          "commissionRate": "The commissionRate of the referral",
          "expiryTime": "The expiry time of the referral",
          "referee": "The address of the referee",
          "referrer": "The address of the referrer",
          "signature": "The signature to check (signed referral)"
        },
        "returns": {
          "_0": "True if the referral is valid"
        }
      },
      "setMetaTransactionProcessor(address,bool)": {
        "details": "Enable or disable the ability of `metaTransactionProcessor` to perform meta-tx (metaTransactionProcessor rights).",
        "params": {
          "enabled": "set whether the metaTransactionProcessor is enabled or disabled.",
          "metaTransactionProcessor": "address that will be given/removed metaTransactionProcessor rights."
        }
      },
      "setReceivingWallet(address)": {
        "params": {
          "newWallet": "address of the new receiving wallet"
        }
      },
      "updateMaxCommissionRate(uint256)": {
        "details": "Update the maximum commission rate",
        "params": {
          "newMaxCommissionRate": "The new maximum commission rate"
        }
      },
      "updateSigningWallet(address)": {
        "details": "Update the signing wallet",
        "params": {
          "newSigningWallet": "The new address of the signing wallet"
        }
      },
      "withdrawAssets(address,uint256[],uint256[])": {
        "params": {
          "assetIds": "the assetIds to be transferred",
          "to": "intended recipient of the asset tokens",
          "values": "the quantities of the assetIds to be transferred"
        }
      }
    },
    "title": "Estate Sale contract with referral"
  },
  "userdoc": {
    "methods": {
      "buyLandWithSand(address,address,address,uint256,uint256,uint256,uint256,uint256,bytes32,uint256[],bytes32[],bytes)": {
        "notice": "buy Land with SAND using the merkle proof associated with it"
      },
      "getExpiryTime()": {
        "notice": "Gets the expiry time for the current sale"
      },
      "getMaxCommisionRate()": {
        "notice": "the max commision rate"
      },
      "getMerkleRoot()": {
        "notice": "Gets the Merkle root associated with the current sale"
      },
      "isReferralValid(bytes,address,address,uint256,uint256)": {
        "notice": "Check if a referral is valid"
      },
      "setReceivingWallet(address)": {
        "notice": "set the wallet receiving the proceeds"
      },
      "withdrawAssets(address,uint256[],uint256[])": {
        "notice": "enable Admin to withdraw remaining assets from EstateSaleWithFee contract"
      }
    },
    "notice": "This contract manages the sale of our lands as Estates"
  },
  "storageLayout": {
    "storage": [
      {
        "astId": 12779,
        "contract": "src/solc_0.6/EstateSale/EstateSaleWithFee.sol:EstateSaleWithFee",
        "label": "_admin",
        "offset": 0,
        "slot": "0",
        "type": "t_address"
      },
      {
        "astId": 12841,
        "contract": "src/solc_0.6/EstateSale/EstateSaleWithFee.sol:EstateSaleWithFee",
        "label": "_metaTransactionContracts",
        "offset": 0,
        "slot": "1",
        "type": "t_mapping(t_address,t_bool)"
      },
      {
        "astId": 10957,
        "contract": "src/solc_0.6/EstateSale/EstateSaleWithFee.sol:EstateSaleWithFee",
        "label": "_signingWallet",
        "offset": 0,
        "slot": "2",
        "type": "t_address"
      },
      {
        "astId": 10959,
        "contract": "src/solc_0.6/EstateSale/EstateSaleWithFee.sol:EstateSaleWithFee",
        "label": "_maxCommissionRate",
        "offset": 0,
        "slot": "3",
        "type": "t_uint256"
      },
      {
        "astId": 10963,
        "contract": "src/solc_0.6/EstateSale/EstateSaleWithFee.sol:EstateSaleWithFee",
        "label": "_previousSigningWallets",
        "offset": 0,
        "slot": "4",
        "type": "t_mapping(t_address,t_uint256)"
      },
      {
        "astId": 10972,
        "contract": "src/solc_0.6/EstateSale/EstateSaleWithFee.sol:EstateSaleWithFee",
        "label": "_previousSigningDelay",
        "offset": 0,
        "slot": "5",
        "type": "t_uint256"
      },
      {
        "astId": 7344,
        "contract": "src/solc_0.6/EstateSale/EstateSaleWithFee.sol:EstateSaleWithFee",
        "label": "_wallet",
        "offset": 0,
        "slot": "6",
        "type": "t_address_payable"
      },
      {
        "astId": 7354,
        "contract": "src/solc_0.6/EstateSale/EstateSaleWithFee.sol:EstateSaleWithFee",
        "label": "_multiplier",
        "offset": 0,
        "slot": "7",
        "type": "t_uint256"
      }
    ],
    "types": {
      "t_address": {
        "encoding": "inplace",
        "label": "address",
        "numberOfBytes": "20"
      },
      "t_address_payable": {
        "encoding": "inplace",
        "label": "address payable",
        "numberOfBytes": "20"
      },
      "t_bool": {
        "encoding": "inplace",
        "label": "bool",
        "numberOfBytes": "1"
      },
      "t_mapping(t_address,t_bool)": {
        "encoding": "mapping",
        "key": "t_address",
        "label": "mapping(address => bool)",
        "numberOfBytes": "32",
        "value": "t_bool"
      },
      "t_mapping(t_address,t_uint256)": {
        "encoding": "mapping",
        "key": "t_address",
        "label": "mapping(address => uint256)",
        "numberOfBytes": "32",
        "value": "t_uint256"
      },
      "t_uint256": {
        "encoding": "inplace",
        "label": "uint256",
        "numberOfBytes": "32"
      }
    }
  }
}