{
  "address": "0x57cf1E34075e7304bf9380817E796B3cC80b1BeD",
  "abi": [
    {
      "inputs": [
        {
          "internalType": "address",
          "name": "landAddress",
          "type": "address"
        },
        {
          "internalType": "address",
          "name": "sandContractAddress",
          "type": "address"
        },
        {
          "internalType": "address",
          "name": "initialMetaTx",
          "type": "address"
        },
        {
          "internalType": "address",
          "name": "admin",
          "type": "address"
        },
        {
          "internalType": "address payable",
          "name": "initialWalletAddress",
          "type": "address"
        },
        {
          "internalType": "bytes32",
          "name": "merkleRoot",
          "type": "bytes32"
        },
        {
          "internalType": "uint256",
          "name": "expiryTime",
          "type": "uint256"
        },
        {
          "internalType": "address",
          "name": "initialSigningWallet",
          "type": "address"
        },
        {
          "internalType": "uint256",
          "name": "initialMaxCommissionRate",
          "type": "uint256"
        },
        {
          "internalType": "address",
          "name": "estate",
          "type": "address"
        },
        {
          "internalType": "address",
          "name": "asset",
          "type": "address"
        },
        {
          "internalType": "address",
          "name": "feeDistributor",
          "type": "address"
        }
      ],
      "stateMutability": "nonpayable",
      "type": "constructor"
    },
    {
      "anonymous": false,
      "inputs": [
        {
          "indexed": false,
          "internalType": "address",
          "name": "oldAdmin",
          "type": "address"
        },
        {
          "indexed": false,
          "internalType": "address",
          "name": "newAdmin",
          "type": "address"
        }
      ],
      "name": "AdminChanged",
      "type": "event"
    },
    {
      "anonymous": false,
      "inputs": [
        {
          "indexed": true,
          "internalType": "address",
          "name": "buyer",
          "type": "address"
        },
        {
          "indexed": true,
          "internalType": "address",
          "name": "to",
          "type": "address"
        },
        {
          "indexed": true,
          "internalType": "uint256",
          "name": "topCornerId",
          "type": "uint256"
        },
        {
          "indexed": false,
          "internalType": "uint256",
          "name": "size",
          "type": "uint256"
        },
        {
          "indexed": false,
          "internalType": "uint256",
          "name": "price",
          "type": "uint256"
        },
        {
          "indexed": false,
          "internalType": "address",
          "name": "token",
          "type": "address"
        },
        {
          "indexed": false,
          "internalType": "uint256",
          "name": "amountPaid",
          "type": "uint256"
        }
      ],
      "name": "LandQuadPurchased",
      "type": "event"
    },
    {
      "anonymous": false,
      "inputs": [
        {
          "indexed": false,
          "internalType": "address",
          "name": "metaTransactionProcessor",
          "type": "address"
        },
        {
          "indexed": false,
          "internalType": "bool",
          "name": "enabled",
          "type": "bool"
        }
      ],
      "name": "MetaTransactionProcessor",
      "type": "event"
    },
    {
      "anonymous": false,
      "inputs": [
        {
          "indexed": true,
          "internalType": "address",
          "name": "referrer",
          "type": "address"
        },
        {
          "indexed": true,
          "internalType": "address",
          "name": "referee",
          "type": "address"
        },
        {
          "indexed": true,
          "internalType": "address",
          "name": "token",
          "type": "address"
        },
        {
          "indexed": false,
          "internalType": "uint256",
          "name": "amount",
          "type": "uint256"
        },
        {
          "indexed": false,
          "internalType": "uint256",
          "name": "commission",
          "type": "uint256"
        },
        {
          "indexed": false,
          "internalType": "uint256",
          "name": "commissionRate",
          "type": "uint256"
        }
      ],
      "name": "ReferralUsed",
      "type": "event"
    },
    {
      "inputs": [
        {
          "internalType": "address",
          "name": "buyer",
          "type": "address"
        },
        {
          "internalType": "address",
          "name": "to",
          "type": "address"
        },
        {
          "internalType": "address",
          "name": "reserved",
          "type": "address"
        },
        {
          "internalType": "uint256",
          "name": "x",
          "type": "uint256"
        },
        {
          "internalType": "uint256",
          "name": "y",
          "type": "uint256"
        },
        {
          "internalType": "uint256",
          "name": "size",
          "type": "uint256"
        },
        {
          "internalType": "uint256",
          "name": "priceInSand",
          "type": "uint256"
        },
        {
          "internalType": "uint256",
          "name": "adjustedPriceInSand",
          "type": "uint256"
        },
        {
          "internalType": "bytes32",
          "name": "salt",
          "type": "bytes32"
        },
        {
          "internalType": "uint256[]",
          "name": "assetIds",
          "type": "uint256[]"
        },
        {
          "internalType": "bytes32[]",
          "name": "proof",
          "type": "bytes32[]"
        },
        {
          "internalType": "bytes",
          "name": "referral",
          "type": "bytes"
        }
      ],
      "name": "buyLandWithSand",
      "outputs": [],
      "stateMutability": "nonpayable",
      "type": "function"
    },
    {
      "inputs": [
        {
          "internalType": "address",
          "name": "newAdmin",
          "type": "address"
        }
      ],
      "name": "changeAdmin",
      "outputs": [],
      "stateMutability": "nonpayable",
      "type": "function"
    },
    {
      "inputs": [
        {
          "internalType": "bytes",
          "name": "referral",
          "type": "bytes"
        }
      ],
      "name": "decodeReferral",
      "outputs": [
        {
          "internalType": "bytes",
          "name": "",
          "type": "bytes"
        },
        {
          "internalType": "address",
          "name": "",
          "type": "address"
        },
        {
          "internalType": "address",
          "name": "",
          "type": "address"
        },
        {
          "internalType": "uint256",
          "name": "",
          "type": "uint256"
        },
        {
          "internalType": "uint256",
          "name": "",
          "type": "uint256"
        }
      ],
      "stateMutability": "pure",
      "type": "function"
    },
    {
      "inputs": [],
      "name": "getAdmin",
      "outputs": [
        {
          "internalType": "address",
          "name": "",
          "type": "address"
        }
      ],
      "stateMutability": "view",
      "type": "function"
    },
    {
      "inputs": [],
      "name": "getExpiryTime",
      "outputs": [
        {
          "internalType": "uint256",
          "name": "",
          "type": "uint256"
        }
      ],
      "stateMutability": "view",
      "type": "function"
    },
    {
      "inputs": [],
      "name": "getMaxCommisionRate",
      "outputs": [
        {
          "internalType": "uint256",
          "name": "",
          "type": "uint256"
        }
      ],
      "stateMutability": "view",
      "type": "function"
    },
    {
      "inputs": [],
      "name": "getMerkleRoot",
      "outputs": [
        {
          "internalType": "bytes32",
          "name": "",
          "type": "bytes32"
        }
      ],
      "stateMutability": "view",
      "type": "function"
    },
    {
      "inputs": [],
      "name": "getSandMultiplier",
      "outputs": [
        {
          "internalType": "uint256",
          "name": "",
          "type": "uint256"
        }
      ],
      "stateMutability": "view",
      "type": "function"
    },
    {
      "inputs": [],
      "name": "getSigningWallet",
      "outputs": [
        {
          "internalType": "address",
          "name": "",
          "type": "address"
        }
      ],
      "stateMutability": "view",
      "type": "function"
    },
    {
      "inputs": [
        {
          "internalType": "address",
          "name": "who",
          "type": "address"
        }
      ],
      "name": "isMetaTransactionProcessor",
      "outputs": [
        {
          "internalType": "bool",
          "name": "",
          "type": "bool"
        }
      ],
      "stateMutability": "view",
      "type": "function"
    },
    {
      "inputs": [
        {
          "internalType": "bytes",
          "name": "signature",
          "type": "bytes"
        },
        {
          "internalType": "address",
          "name": "referrer",
          "type": "address"
        },
        {
          "internalType": "address",
          "name": "referee",
          "type": "address"
        },
        {
          "internalType": "uint256",
          "name": "expiryTime",
          "type": "uint256"
        },
        {
          "internalType": "uint256",
          "name": "commissionRate",
          "type": "uint256"
        }
      ],
      "name": "isReferralValid",
      "outputs": [
        {
          "internalType": "bool",
          "name": "",
          "type": "bool"
        }
      ],
      "stateMutability": "view",
      "type": "function"
    },
    {
      "inputs": [
        {
          "internalType": "address",
          "name": "",
          "type": "address"
        },
        {
          "internalType": "address",
          "name": "",
          "type": "address"
        },
        {
          "internalType": "uint256[]",
          "name": "",
          "type": "uint256[]"
        },
        {
          "internalType": "uint256[]",
          "name": "",
          "type": "uint256[]"
        },
        {
          "internalType": "bytes",
          "name": "",
          "type": "bytes"
        }
      ],
      "name": "onERC1155BatchReceived",
      "outputs": [
        {
          "internalType": "bytes4",
          "name": "",
          "type": "bytes4"
        }
      ],
      "stateMutability": "pure",
      "type": "function"
    },
    {
      "inputs": [
        {
          "internalType": "address",
          "name": "",
          "type": "address"
        },
        {
          "internalType": "address",
          "name": "",
          "type": "address"
        },
        {
          "internalType": "uint256",
          "name": "",
          "type": "uint256"
        },
        {
          "internalType": "uint256",
          "name": "",
          "type": "uint256"
        },
        {
          "internalType": "bytes",
          "name": "",
          "type": "bytes"
        }
      ],
      "name": "onERC1155Received",
      "outputs": [
        {
          "internalType": "bytes4",
          "name": "",
          "type": "bytes4"
        }
      ],
      "stateMutability": "pure",
      "type": "function"
    },
    {
      "inputs": [
        {
          "internalType": "uint256",
          "name": "newMultiplier",
          "type": "uint256"
        }
      ],
      "name": "rebalanceSand",
      "outputs": [],
      "stateMutability": "nonpayable",
      "type": "function"
    },
    {
      "inputs": [
        {
          "internalType": "address",
          "name": "metaTransactionProcessor",
          "type": "address"
        },
        {
          "internalType": "bool",
          "name": "enabled",
          "type": "bool"
        }
      ],
      "name": "setMetaTransactionProcessor",
      "outputs": [],
      "stateMutability": "nonpayable",
      "type": "function"
    },
    {
      "inputs": [
        {
          "internalType": "address payable",
          "name": "newWallet",
          "type": "address"
        }
      ],
      "name": "setReceivingWallet",
      "outputs": [],
      "stateMutability": "nonpayable",
      "type": "function"
    },
    {
      "inputs": [
        {
          "internalType": "uint256",
          "name": "newMaxCommissionRate",
          "type": "uint256"
        }
      ],
      "name": "updateMaxCommissionRate",
      "outputs": [],
      "stateMutability": "nonpayable",
      "type": "function"
    },
    {
      "inputs": [
        {
          "internalType": "address",
          "name": "newSigningWallet",
          "type": "address"
        }
      ],
      "name": "updateSigningWallet",
      "outputs": [],
      "stateMutability": "nonpayable",
      "type": "function"
    },
    {
      "inputs": [
        {
          "internalType": "address",
          "name": "to",
          "type": "address"
        },
        {
          "internalType": "uint256[]",
          "name": "assetIds",
          "type": "uint256[]"
        },
        {
          "internalType": "uint256[]",
          "name": "values",
          "type": "uint256[]"
        }
      ],
      "name": "withdrawAssets",
      "outputs": [],
      "stateMutability": "nonpayable",
      "type": "function"
    }
  ],
  "transactionHash": "0xc1ca79e2ff7f720ae947c81733005d0234f4a1fe8121665e773b4ba1146d4b67",
  "args": [
    "0x50f5474724e0Ee42D9a4e711ccFB275809Fd6d4a",
    "0x3845badAde8e6dFF049820680d1F14bD3903a5d0",
    "0x3845badAde8e6dFF049820680d1F14bD3903a5d0",
    "0xEAA0993E1d21c2103e4f172a20D29371FbAF6D06",
    "0x4489590a116618B506F0EfE885432F6A8ED998E9",
    "0x5f9df179ae7f64ef4fb21f37e6954d989e81cb86b6d6e822d20925b96587f67d",
    1627909200,
    "0x3044719d139F866a44c988823513eCB93060bF1b",
    2000,
    "0x0000000000000000000000000000000000000000",
    "0xa342f5D851E866E18ff98F351f2c6637f4478dB5",
    "0x0EB04462D69B1D267d269377E34f60b9De1c8510"
  ],
  "linkedData": [
    {
      "x": 0,
      "y": 40,
      "size": 1,
      "price": "1011000000000000000000",
      "reserved": "",
      "salt": "0xe781aca4b768b375ef03fff1ded4ca5635b8cc9509bd57b5f39ac784abb2ca12",
      "assetIds": []
    },
    {
      "x": 0,
      "y": 41,
      "size": 1,
      "price": "1011000000000000000000",
      "reserved": "",
      "salt": "0x39ce009de410bb76c4bc69720a514bdf69b91157e5f20181504e5b462dc8ed82",
      "assetIds": []
    },
    {
      "x": 0,
      "y": 42,
      "size": 1,
      "price": "1011000000000000000000",
      "reserved": "",
      "salt": "0x8295a902cdd3a5c43551fbb1f94df1a384fba79d345f644e225dfe5bfde5a7f8",
      "assetIds": []
    },
    {
      "x": 0,
      "y": 43,
      "size": 1,
      "price": "1011000000000000000000",
      "reserved": "",
      "salt": "0x9fe086b86108f2d29c9a846d42d1e94907cec8d512a5f97b324e156791e680a2",
      "assetIds": []
    },
    {
      "x": 0,
      "y": 44,
      "size": 1,
      "price": "1011000000000000000000",
      "reserved": "",
      "salt": "0xa65dc78bba8545494068e3c2c2693adbf6a8feef1d9a0c6eca43f6213c798a45",
      "assetIds": []
    },
    {
      "x": 0,
      "y": 45,
      "size": 1,
      "price": "1011000000000000000000",
      "reserved": "",
      "salt": "0xda134325520b7852dc68740f0a48a008deaba027716abb170431f9706a7569cd",
      "assetIds": []
    },
    {
      "x": 0,
      "y": 46,
      "size": 1,
      "price": "1011000000000000000000",
      "reserved": "",
      "salt": "0x1977d265ea44b4f16dbb84d9cbb32470f238e9c4db6f10cf73c8e23e10be3a0c",
      "assetIds": []
    },
    {
      "x": 0,
      "y": 47,
      "size": 1,
      "price": "1011000000000000000000",
      "reserved": "",
      "salt": "0x6d9bf5dd69f38184abbe172b8f0ddb696435c2cf11c2ca8afd804d6ad03485fd",
      "assetIds": []
    },
    {
      "x": 0,
      "y": 48,
      "size": 1,
      "price": "1011000000000000000000",
      "reserved": "0x7a9fe22691c811ea339d9b73150e6911a5343dca",
      "salt": "0x92d204dc7d02924e4ed7201fe97f41266cd813e61e4880048b51fe35b2153b08",
      "assetIds": []
    },
    {
      "x": 0,
      "y": 49,
      "size": 1,
      "price": "1011000000000000000000",
      "reserved": "",
      "salt": "0x82ba8ce2e992462d7aca05f579918fd2b2f9de9b4298c7500f17dd488aa20bda",
      "assetIds": []
    },
    {
      "x": 0,
      "y": 50,
      "size": 1,
      "price": "1011000000000000000000",
      "reserved": "",
      "salt": "0xeb516e5eeac1703b15bfe0222549fd032779a6672f784aad319b8768c8019d24",
      "assetIds": []
    },
    {
      "x": 0,
      "y": 51,
      "size": 1,
      "price": "1011000000000000000000",
      "reserved": "",
      "salt": "0xa5c1bf15d61a579b976189d77cff6cb49a290fd58a6cf045a50b82f9118e5adf",
      "assetIds": []
    },
    {
      "x": 0,
      "y": 52,
      "size": 1,
      "price": "1011000000000000000000",
      "reserved": "",
      "salt": "0x955143d440e6bfefcc9eddc138501db03a6fc2e6c65e9e2768b05906a7984eb5",
      "assetIds": []
    },
    {
      "x": 0,
      "y": 53,
      "size": 1,
      "price": "1011000000000000000000",
      "reserved": "0x7a9fe22691c811ea339d9b73150e6911a5343dca",
      "salt": "0xc95fc032d57cde512789ae0655fbdfbf7955ede086609ccd1a234342825bdfe6",
      "assetIds": []
    },
    {
      "x": 0,
      "y": 54,
      "size": 1,
      "price": "1011000000000000000000",
      "reserved": "",
      "salt": "0xb4e1f2aaefab82b954a25f61f96ef10493ba3c369d629ae72e33b1cfccb8d946",
      "assetIds": []
    },
    {
      "x": 0,
      "y": 55,
      "size": 1,
      "price": "1011000000000000000000",
      "reserved": "",
      "salt": "0xbc7a7c2ed32c06d01c0ea6204be0815c6a9ace190103662e7828674f9fd187ed",
      "assetIds": []
    },
    {
      "x": 0,
      "y": 56,
      "size": 1,
      "price": "1011000000000000000000",
      "reserved": "",
      "salt": "0x5b2e7ca6fef6eac82d9a295608d0250c7687f2b7d77fff668422da8895769657",
      "assetIds": []
    },
    {
      "x": 0,
      "y": 57,
      "size": 1,
      "price": "1011000000000000000000",
      "reserved": "",
      "salt": "0x79d39d4d06bec6fc584bd807f18ed86954ec9bd80816ee19231f71b4e36894ed",
      "assetIds": []
    },
    {
      "x": 0,
      "y": 58,
      "size": 1,
      "price": "1011000000000000000000",
      "reserved": "",
      "salt": "0x07ecb9967cfc04e21e0cd92a5907820e2f81682f47a4c47e6e0ed253f02aac6b",
      "assetIds": []
    },
    {
      "x": 0,
      "y": 59,
      "size": 1,
      "price": "1011000000000000000000",
      "reserved": "",
      "salt": "0x58fd50455747f510558d8a981079f848f0d776c0f75624ef66c081c898c4fdfd",
      "assetIds": []
    },
    {
      "x": 0,
      "y": 66,
      "size": 1,
      "price": "1011000000000000000000",
      "reserved": "0x7a9fe22691c811ea339d9b73150e6911a5343dca",
      "salt": "0x59058dda78e8c4d43141eece1d48cef5496bcffb1e4df8a0521e1e90975ee244",
      "assetIds": []
    },
    {
      "x": 0,
      "y": 67,
      "size": 1,
      "price": "1011000000000000000000",
      "reserved": "",
      "salt": "0xf84bed4f25daf1aa22f54501f69e026d1f59612357f7a85a965dea7fc46b99ff",
      "assetIds": []
    },
    {
      "x": 0,
      "y": 68,
      "size": 1,
      "price": "1011000000000000000000",
      "reserved": "",
      "salt": "0x5000d634ed6fad3fa0f3c580de1f29577083a8ca1c645836a6ca0ff632b5f957",
      "assetIds": []
    },
    {
      "x": 0,
      "y": 69,
      "size": 1,
      "price": "1011000000000000000000",
      "reserved": "0x7a9fe22691c811ea339d9b73150e6911a5343dca",
      "salt": "0x21901cab38aac8c2f7c2ae625f3f245a6a87e778202566c8d5f0ee9f68a7a767",
      "assetIds": []
    },
    {
      "x": 0,
      "y": 70,
      "size": 1,
      "price": "1011000000000000000000",
      "reserved": "",
      "salt": "0xe0efda4d3776e3788b7fdc18bc56b97eb5d4f771e2cc52fa6f8ef2957b0e12af",
      "assetIds": []
    },
    {
      "x": 0,
      "y": 71,
      "size": 1,
      "price": "1011000000000000000000",
      "reserved": "",
      "salt": "0xb09814766e829252c6499aefe850b1c89bf5f93ec757821ad7dec667e6f83a48",
      "assetIds": []
    },
    {
      "x": 0,
      "y": 90,
      "size": 1,
      "price": "1011000000000000000000",
      "reserved": "",
      "salt": "0xdbcbeaa3f66f2725f2c8684137a4b7b78a7c4e75c0837f3568b8a49e221bf4a3",
      "assetIds": []
    },
    {
      "x": 0,
      "y": 91,
      "size": 1,
      "price": "1011000000000000000000",
      "reserved": "",
      "salt": "0x6202c0eb14f1f84a961eb18834676d61840d1a62135e51c2b57d623c047213ea",
      "assetIds": []
    },
    {
      "x": 0,
      "y": 92,
      "size": 1,
      "price": "1011000000000000000000",
      "reserved": "0x7a9fe22691c811ea339d9b73150e6911a5343dca",
      "salt": "0xe9089cfb2f91da17dd99a96e100e5efb351d57fe484259f27dd1e7a838d89f67",
      "assetIds": []
    },
    {
      "x": 0,
      "y": 93,
      "size": 1,
      "price": "1011000000000000000000",
      "reserved": "",
      "salt": "0x3b55c44deae7939957a10ea8623b67e2a65beaa09d71694513a4ec626fec5500",
      "assetIds": []
    },
    {
      "x": 0,
      "y": 94,
      "size": 1,
      "price": "1011000000000000000000",
      "reserved": "",
      "salt": "0xe29b65c6662b14cebdec8d90d8573204317ef8e2e329cf0c064e97113be3cd86",
      "assetIds": []
    },
    {
      "x": 0,
      "y": 95,
      "size": 1,
      "price": "1011000000000000000000",
      "reserved": "",
      "salt": "0xc30d1b07ddfbbeff015572db95056d758576401d2de91e6811e009b040e1ced0",
      "assetIds": []
    },
    {
      "x": 1,
      "y": 40,
      "size": 1,
      "price": "1011000000000000000000",
      "reserved": "",
      "salt": "0x960224d40c6708075e0f9844e76e0dd546d03e3366cec1ae2a26d5f3b8397adf",
      "assetIds": []
    },
    {
      "x": 1,
      "y": 41,
      "size": 1,
      "price": "1011000000000000000000",
      "reserved": "",
      "salt": "0x5eab00409394caba2ef9ad52ad901176a777dcc7b06f7af0440de8f7f350cb1e",
      "assetIds": []
    },
    {
      "x": 1,
      "y": 42,
      "size": 1,
      "price": "1011000000000000000000",
      "reserved": "",
      "salt": "0xed67f321bf345e688d3025921776d2f5fe7f66715d9dc6bf6d57e550af0cac09",
      "assetIds": []
    },
    {
      "x": 1,
      "y": 43,
      "size": 1,
      "price": "1011000000000000000000",
      "reserved": "",
      "salt": "0x8b8c66b38600b90f3ce519acffc1e9abaeda5417b1045740991a433333452ebe",
      "assetIds": []
    },
    {
      "x": 1,
      "y": 44,
      "size": 1,
      "price": "1011000000000000000000",
      "reserved": "",
      "salt": "0x0c82663f31fb56f0692f4a1f1ede8fbe693b6f7c335e8b749c2d294e41f67fd7",
      "assetIds": []
    },
    {
      "x": 1,
      "y": 45,
      "size": 1,
      "price": "1011000000000000000000",
      "reserved": "",
      "salt": "0xf8c2087ac18becfcf6e672b41eee92f34c81755411f4c922000cb7b4b59c5a4b",
      "assetIds": []
    },
    {
      "x": 1,
      "y": 46,
      "size": 1,
      "price": "1011000000000000000000",
      "reserved": "",
      "salt": "0x237df3d3338995c18eb4f59dab69afd639d8cf27b8b20d6f7d1f57bcd47ce855",
      "assetIds": []
    },
    {
      "x": 1,
      "y": 47,
      "size": 1,
      "price": "1011000000000000000000",
      "reserved": "",
      "salt": "0x0387204a3a247a8df6ce0b5151de5ae99c0c1af12a49b792b58c366bfafcabe5",
      "assetIds": []
    },
    {
      "x": 1,
      "y": 48,
      "size": 1,
      "price": "1011000000000000000000",
      "reserved": "",
      "salt": "0x6cafc2964b99cecc44017e032988f5b54e79fc2113cc1fae0530360fe7fb9524",
      "assetIds": []
    },
    {
      "x": 1,
      "y": 49,
      "size": 1,
      "price": "1011000000000000000000",
      "reserved": "",
      "salt": "0x69abaef7dab2d727014c2fd9d698910f5c9ef86121d1d28ddfa7cac4d8cd4f05",
      "assetIds": []
    },
    {
      "x": 1,
      "y": 50,
      "size": 1,
      "price": "1011000000000000000000",
      "reserved": "",
      "salt": "0x3d3c7909434e3418136c69af1787b134babcfe3d91b1cbd8c591546f6681aebe",
      "assetIds": []
    },
    {
      "x": 1,
      "y": 51,
      "size": 1,
      "price": "1011000000000000000000",
      "reserved": "0x7a9fe22691c811ea339d9b73150e6911a5343dca",
      "salt": "0xb30cb919da594a140000736bc1e8b71feba058baa9487fda64552a1c7605b4eb",
      "assetIds": []
    },
    {
      "x": 1,
      "y": 52,
      "size": 1,
      "price": "1011000000000000000000",
      "reserved": "",
      "salt": "0xb06ed5ba77993d8cbb8d746d1471777abafc79ca9efba871682df7676fa65287",
      "assetIds": []
    },
    {
      "x": 1,
      "y": 53,
      "size": 1,
      "price": "1011000000000000000000",
      "reserved": "",
      "salt": "0x8d49822aa9a40fcfe0b7c973d8c3aefda140544b6a61464ae78c8e6e12e2de14",
      "assetIds": []
    },
    {
      "x": 1,
      "y": 54,
      "size": 1,
      "price": "1011000000000000000000",
      "reserved": "",
      "salt": "0xfe3bb9127b8d7507728ea4a2340d69ed1c05527d0a10b0623c3ef8f5d77d26e4",
      "assetIds": []
    },
    {
      "x": 1,
      "y": 55,
      "size": 1,
      "price": "1011000000000000000000",
      "reserved": "0x7a9fe22691c811ea339d9b73150e6911a5343dca",
      "salt": "0xd961d4a6d178f14af4a7be57817ed279423b2b2638cfcc44c820613b91954892",
      "assetIds": []
    },
    {
      "x": 1,
      "y": 56,
      "size": 1,
      "price": "1011000000000000000000",
      "reserved": "",
      "salt": "0xe92a5e399155571fddd62a3b01c794018382d088688e1beac7eb8b9e5fb6fcd0",
      "assetIds": []
    },
    {
      "x": 1,
      "y": 57,
      "size": 1,
      "price": "1011000000000000000000",
      "reserved": "",
      "salt": "0xd289d077e01f7ed5380a76d5774c5470557246eed09219ac10e5cf081e17b610",
      "assetIds": []
    },
    {
      "x": 1,
      "y": 58,
      "size": 1,
      "price": "1011000000000000000000",
      "reserved": "0x7a9fe22691c811ea339d9b73150e6911a5343dca",
      "salt": "0x859d3a9ee8ff4152a27350e966e7ff1fa335476ed7cb0d654c80dfc5e3ddbedb",
      "assetIds": []
    },
    {
      "x": 1,
      "y": 59,
      "size": 1,
      "price": "1011000000000000000000",
      "reserved": "",
      "salt": "0x287fbd7a331c927ba56b5b20a08e34e63cc04dc05d74fb7cada7e6598fcbf0e4",
      "assetIds": []
    },
    {
      "x": 1,
      "y": 66,
      "size": 1,
      "price": "1011000000000000000000",
      "reserved": "",
      "salt": "0x6ecdc8c036cb5bc4d5afb84c565d9efd8e57e62d7611ae1a2f1d41e6edb30afa",
      "assetIds": []
    },
    {
      "x": 1,
      "y": 67,
      "size": 1,
      "price": "1011000000000000000000",
      "reserved": "",
      "salt": "0x74b73ae2c246707deffdc9612a82643dc74062aa63d330b484989006148a80cb",
      "assetIds": []
    },
    {
      "x": 1,
      "y": 68,
      "size": 1,
      "price": "1011000000000000000000",
      "reserved": "",
      "salt": "0xfafb8caefe6428df0d5a28ba2e5764d5579f723ed40bc3543d2ba625006d3a00",
      "assetIds": []
    },
    {
      "x": 1,
      "y": 69,
      "size": 1,
      "price": "1011000000000000000000",
      "reserved": "",
      "salt": "0x3e3c35f9bbdd466be97fc540f226ee5a31e7bc18dd1428c1a9d739f8e0408169",
      "assetIds": []
    },
    {
      "x": 1,
      "y": 70,
      "size": 1,
      "price": "1011000000000000000000",
      "reserved": "",
      "salt": "0xa1797a439a399de427fe0dfdc78648f60d3d199277a483eae2428cdf00b67439",
      "assetIds": []
    },
    {
      "x": 1,
      "y": 71,
      "size": 1,
      "price": "1011000000000000000000",
      "reserved": "",
      "salt": "0x8a97f1c1d3e16159ec2c10a8df16469f1e51a142cc70bfce357425ce1eda7651",
      "assetIds": []
    },
    {
      "x": 1,
      "y": 90,
      "size": 1,
      "price": "1011000000000000000000",
      "reserved": "0x7a9fe22691c811ea339d9b73150e6911a5343dca",
      "salt": "0x86f279a9077f54419ccab14029d8fbe8022d6704b10961b1555c8d950e95830d",
      "assetIds": []
    },
    {
      "x": 1,
      "y": 91,
      "size": 1,
      "price": "1011000000000000000000",
      "reserved": "",
      "salt": "0x3a6900e2a857a18645a5455be77248fdf4e16d6b66a14138fba7ac92cc410853",
      "assetIds": []
    },
    {
      "x": 1,
      "y": 92,
      "size": 1,
      "price": "1011000000000000000000",
      "reserved": "",
      "salt": "0xd8ffa504d1410db9be3252f01334df43e579360890c44905677c97a693aca77d",
      "assetIds": []
    },
    {
      "x": 1,
      "y": 93,
      "size": 1,
      "price": "1011000000000000000000",
      "reserved": "",
      "salt": "0xa77d0eeeb643cc0bb6b826302061fe421f3c5916fec45587e33dd3d4ff847dd5",
      "assetIds": []
    },
    {
      "x": 1,
      "y": 94,
      "size": 1,
      "price": "1011000000000000000000",
      "reserved": "",
      "salt": "0xba930411acd7d80f4cd3e8f18cbd06991e90faf7705854936f487fa4dd079e19",
      "assetIds": []
    },
    {
      "x": 1,
      "y": 95,
      "size": 1,
      "price": "1011000000000000000000",
      "reserved": "",
      "salt": "0x3ea058f66d8d751cddb9f4832638e2ff505fb551b7f6117829a56f6e3d0a2f49",
      "assetIds": []
    },
    {
      "x": 2,
      "y": 40,
      "size": 1,
      "price": "1011000000000000000000",
      "reserved": "",
      "salt": "0x06274673686732ab3e1a022a0300e78e7c478b73aded296a85fcd9f4f8c31138",
      "assetIds": []
    },
    {
      "x": 2,
      "y": 41,
      "size": 1,
      "price": "1011000000000000000000",
      "reserved": "",
      "salt": "0xfb76374cb9cc9bab6b73ef93d5bc1b0f4b8bd942f0fe5b08780928684b6d40f5",
      "assetIds": []
    },
    {
      "x": 2,
      "y": 42,
      "size": 1,
      "price": "1011000000000000000000",
      "reserved": "0x7a9fe22691c811ea339d9b73150e6911a5343dca",
      "salt": "0x8a9e56b975df92ba01b898cf9cf42fa6c72c52e4b90604efd4c3d89826c5e399",
      "assetIds": []
    },
    {
      "x": 2,
      "y": 43,
      "size": 1,
      "price": "1011000000000000000000",
      "reserved": "",
      "salt": "0xae427f8e126b6885e43f70687d4241048fdaafa36468dfe15638f3bd526e418a",
      "assetIds": []
    },
    {
      "x": 2,
      "y": 44,
      "size": 1,
      "price": "1011000000000000000000",
      "reserved": "",
      "salt": "0xbf0e63d63fe3a6c070d489a791c3852df49b3071deaa761cefe750bf59c35ac1",
      "assetIds": []
    },
    {
      "x": 2,
      "y": 45,
      "size": 1,
      "price": "1011000000000000000000",
      "reserved": "0x7a9fe22691c811ea339d9b73150e6911a5343dca",
      "salt": "0xe7d9f18fd49c5ab488ce08ec81225c237b66893f2d4179285361996deae6ae39",
      "assetIds": []
    },
    {
      "x": 2,
      "y": 46,
      "size": 1,
      "price": "1011000000000000000000",
      "reserved": "",
      "salt": "0xd9588451941f6815cbfab695e594e6d29c410632919e33d3711c2d5205daeae0",
      "assetIds": []
    },
    {
      "x": 2,
      "y": 47,
      "size": 1,
      "price": "1011000000000000000000",
      "reserved": "",
      "salt": "0xbfd139d02ea892c16e9207eab186496e1e4c1ea8b6db695910776458d7feda19",
      "assetIds": []
    },
    {
      "x": 2,
      "y": 48,
      "size": 1,
      "price": "1011000000000000000000",
      "reserved": "",
      "salt": "0xdb68f223375be1bdb09cf2b0de9d71dffe1f862ce482c809379150bc2c97462b",
      "assetIds": []
    },
    {
      "x": 2,
      "y": 49,
      "size": 1,
      "price": "1011000000000000000000",
      "reserved": "0x7a9fe22691c811ea339d9b73150e6911a5343dca",
      "salt": "0x1114fdc1365ef844a9538771c93584fb836ff2dcbe487ae2627f388c4eae9d1b",
      "assetIds": []
    },
    {
      "x": 2,
      "y": 50,
      "size": 1,
      "price": "1011000000000000000000",
      "reserved": "",
      "salt": "0xae5c6ab80078aedd4c5cd20c41eab77bbef75b88d26c64de7fa5f3f2bad87a55",
      "assetIds": []
    },
    {
      "x": 2,
      "y": 51,
      "size": 1,
      "price": "1011000000000000000000",
      "reserved": "",
      "salt": "0x820a4a1e8e8bd54e09a64a9a6fc9f4ee7c91ab3486359b704e22f20e50bb38bf",
      "assetIds": []
    },
    {
      "x": 2,
      "y": 52,
      "size": 1,
      "price": "1011000000000000000000",
      "reserved": "",
      "salt": "0x0c110af4d0dc61b9923eb329fa2027ec5dace136cf1dd54264ec26a64c45cfab",
      "assetIds": []
    },
    {
      "x": 2,
      "y": 53,
      "size": 1,
      "price": "1011000000000000000000",
      "reserved": "",
      "salt": "0xf40f3022c4a3ef1af0296d2fef5892dd80c9b290532b12e14cf3bdf23637796f",
      "assetIds": []
    },
    {
      "x": 2,
      "y": 54,
      "size": 1,
      "price": "1011000000000000000000",
      "reserved": "",
      "salt": "0x4e664744e1d71175e86393fef4583d69d99e11f2c6efbd749eefc4a8cc8cd5da",
      "assetIds": []
    },
    {
      "x": 2,
      "y": 55,
      "size": 1,
      "price": "1011000000000000000000",
      "reserved": "",
      "salt": "0x232674dbe816fd1e5d8a0a265d8deefc420658c4b689b18bdb52823a8e3d152c",
      "assetIds": []
    },
    {
      "x": 2,
      "y": 56,
      "size": 1,
      "price": "1011000000000000000000",
      "reserved": "",
      "salt": "0x8b5547bca68e3ce4c66f6f29be4d86c1bc5b98165d045a33a5ef9972f6d91a84",
      "assetIds": []
    },
    {
      "x": 2,
      "y": 57,
      "size": 1,
      "price": "1011000000000000000000",
      "reserved": "",
      "salt": "0xd2798429f9b65c32720698bbf52467b1b014ea3383ae792bf12974df52646263",
      "assetIds": []
    },
    {
      "x": 2,
      "y": 58,
      "size": 1,
      "price": "1011000000000000000000",
      "reserved": "",
      "salt": "0x3e87aafe0259508353aa0ded02c6ad7b309f76fe344b949c9a208565f2a07be8",
      "assetIds": []
    },
    {
      "x": 2,
      "y": 59,
      "size": 1,
      "price": "1011000000000000000000",
      "reserved": "",
      "salt": "0x5aa92226732554fc9ccfdea796333b4d61f6253a5361e98d360b7a57f5f0947e",
      "assetIds": []
    },
    {
      "x": 2,
      "y": 66,
      "size": 1,
      "price": "1011000000000000000000",
      "reserved": "",
      "salt": "0xaff60946b7a6ebe1cadfa7a645ac2d278b9ffadde034801819a2c2bf39dd1785",
      "assetIds": []
    },
    {
      "x": 2,
      "y": 67,
      "size": 1,
      "price": "1011000000000000000000",
      "reserved": "",
      "salt": "0xa2169464dae611545ab803951adda21e098638d13414925b696033f9d4aa54d9",
      "assetIds": []
    },
    {
      "x": 2,
      "y": 68,
      "size": 1,
      "price": "1011000000000000000000",
      "reserved": "",
      "salt": "0x47fd54c7c0abb1420d144b7d94dc15b3bc01b3e15cb9ddf92c33947ada44a8da",
      "assetIds": []
    },
    {
      "x": 2,
      "y": 69,
      "size": 1,
      "price": "1011000000000000000000",
      "reserved": "",
      "salt": "0x3fd0f3374b389e5964a34664bd187cb947123cc04f99acf151c8d9a4f48963bd",
      "assetIds": []
    },
    {
      "x": 2,
      "y": 70,
      "size": 1,
      "price": "1011000000000000000000",
      "reserved": "",
      "salt": "0x1b62d4346f1682b749e04d2c449a1506518656822e26fa589fc213f9c3cf82d5",
      "assetIds": []
    },
    {
      "x": 2,
      "y": 71,
      "size": 1,
      "price": "1011000000000000000000",
      "reserved": "",
      "salt": "0x2a144f355cf5efc6b89dab1958d60fee4f8eae46ac782e7ce62bc00f6cc29d6c",
      "assetIds": []
    },
    {
      "x": 2,
      "y": 90,
      "size": 1,
      "price": "1011000000000000000000",
      "reserved": "",
      "salt": "0x6055a4e81cdbd9065fb0d05bd5cbaf9b19d83156d53b71135d532d3e54e413b8",
      "assetIds": []
    },
    {
      "x": 2,
      "y": 91,
      "size": 1,
      "price": "1011000000000000000000",
      "reserved": "",
      "salt": "0x447295c599b3ec9a2d9b7a61e81a7a1c6ba9f2d264470781e317ecc6cae11d61",
      "assetIds": []
    },
    {
      "x": 2,
      "y": 92,
      "size": 1,
      "price": "1011000000000000000000",
      "reserved": "0x7a9fe22691c811ea339d9b73150e6911a5343dca",
      "salt": "0x86b5b5c0666139838efd49e0e8affa1d4a1d7a6622f5ad1bc37e49c6e0342757",
      "assetIds": []
    },
    {
      "x": 2,
      "y": 93,
      "size": 1,
      "price": "1011000000000000000000",
      "reserved": "",
      "salt": "0x78fd6b697eca08ff09ee8de93e9a0c9192578b4846eab9823fe995abc50160b8",
      "assetIds": []
    },
    {
      "x": 2,
      "y": 94,
      "size": 1,
      "price": "1011000000000000000000",
      "reserved": "",
      "salt": "0x3c5849e43c3ee0efa549d0e8a41a3c9e2c09f154bd96bd58c1b15d3165977e6b",
      "assetIds": []
    },
    {
      "x": 2,
      "y": 95,
      "size": 1,
      "price": "1011000000000000000000",
      "reserved": "",
      "salt": "0x7902f99fd0c3946f254e79ec175d26e71e46e2823bb9994324736e32d8b3636c",
      "assetIds": []
    },
    {
      "x": 3,
      "y": 40,
      "size": 1,
      "price": "1011000000000000000000",
      "reserved": "",
      "salt": "0x16c8f968388153b2ccde15c91e1e3ea339a2f7a0eaf821a17c96f66a23d5a960",
      "assetIds": []
    },
    {
      "x": 3,
      "y": 41,
      "size": 1,
      "price": "1011000000000000000000",
      "reserved": "0x7a9fe22691c811ea339d9b73150e6911a5343dca",
      "salt": "0x1a8b082ac9160cd696e8d3b133b1e030750f4433c125e2d5bf26112e5a2e2b0f",
      "assetIds": []
    },
    {
      "x": 3,
      "y": 42,
      "size": 1,
      "price": "1011000000000000000000",
      "reserved": "",
      "salt": "0xdf16edd4d33915b26eb0adb73ccae58eb5789edc98b9a3a7033d7f1bbb57823d",
      "assetIds": []
    },
    {
      "x": 3,
      "y": 43,
      "size": 1,
      "price": "1011000000000000000000",
      "reserved": "0x7a9fe22691c811ea339d9b73150e6911a5343dca",
      "salt": "0x55eb8e6c1e6c0f8ccb04f33975cedc8ebbf833129631695242f8add32913c6fe",
      "assetIds": []
    },
    {
      "x": 3,
      "y": 44,
      "size": 1,
      "price": "1011000000000000000000",
      "reserved": "",
      "salt": "0x47eb61b43aa75dae989854b3581090a591850592e962ed8f12104bfb1dc3875c",
      "assetIds": []
    },
    {
      "x": 3,
      "y": 45,
      "size": 1,
      "price": "1011000000000000000000",
      "reserved": "",
      "salt": "0x97df3f595711f3b9fae1b8a1b9d6a8606622baa0d676ce1fd6a688765e6fc7e2",
      "assetIds": []
    },
    {
      "x": 3,
      "y": 46,
      "size": 1,
      "price": "1011000000000000000000",
      "reserved": "",
      "salt": "0x88f802789705b91d5d40f857eb5c66fed6f8ba719aa7fd4b6fdcd07363aa32f2",
      "assetIds": []
    },
    {
      "x": 3,
      "y": 47,
      "size": 1,
      "price": "1011000000000000000000",
      "reserved": "0x7a9fe22691c811ea339d9b73150e6911a5343dca",
      "salt": "0x77f10340a45a2e996367072a5556ee13c7090c713ffc4debed639e5296ddf6fd",
      "assetIds": []
    },
    {
      "x": 3,
      "y": 48,
      "size": 1,
      "price": "1011000000000000000000",
      "reserved": "",
      "salt": "0x0bf1087527571121ef7be7e12eb14b7419b975cb8872022d4d852d1c12697377",
      "assetIds": []
    },
    {
      "x": 3,
      "y": 49,
      "size": 1,
      "price": "1011000000000000000000",
      "reserved": "",
      "salt": "0x27c4ded162757c4c27f6d20cc4918d5da37080a7c7b4486a5e53f528792e5854",
      "assetIds": []
    },
    {
      "x": 3,
      "y": 50,
      "size": 1,
      "price": "1011000000000000000000",
      "reserved": "",
      "salt": "0x5714391c0d6ec6c53c884e72d6cddd6b290ac1de969a1b9279dcac1f5180aee9",
      "assetIds": []
    },
    {
      "x": 3,
      "y": 51,
      "size": 1,
      "price": "1011000000000000000000",
      "reserved": "",
      "salt": "0x7e8cc97fce33bcb15eb2cb3e60ae799a80ee7cca799386b6433d3be4f1a7f319",
      "assetIds": []
    },
    {
      "x": 3,
      "y": 52,
      "size": 1,
      "price": "1011000000000000000000",
      "reserved": "0x7a9fe22691c811ea339d9b73150e6911a5343dca",
      "salt": "0x0f77d0e539c4a1e0eddffaf210b864418858a085c4e710787e2cfeeea9981f32",
      "assetIds": []
    },
    {
      "x": 3,
      "y": 53,
      "size": 1,
      "price": "1011000000000000000000",
      "reserved": "",
      "salt": "0x8345410059d52b9042d72563ccd60df2cf3bcfb22d3d6938d5d93ed6902c37f3",
      "assetIds": []
    },
    {
      "x": 3,
      "y": 57,
      "size": 1,
      "price": "1011000000000000000000",
      "reserved": "",
      "salt": "0xbbbe7922822949961215042e7048f00f5c61d0a853e791a8090b5b1f8649f152",
      "assetIds": []
    },
    {
      "x": 3,
      "y": 58,
      "size": 1,
      "price": "1011000000000000000000",
      "reserved": "",
      "salt": "0xf48a1d58e70bbb70d9286e32f08aafdfd15a5ef97852cd10435258ed10130fd8",
      "assetIds": []
    },
    {
      "x": 3,
      "y": 59,
      "size": 1,
      "price": "1011000000000000000000",
      "reserved": "0x7a9fe22691c811ea339d9b73150e6911a5343dca",
      "salt": "0xb3be4f2f6c9550502d47857aca8c3c65e62c0b59fdbfaeaf59292749a7ecb2b5",
      "assetIds": []
    },
    {
      "x": 3,
      "y": 66,
      "size": 1,
      "price": "1011000000000000000000",
      "reserved": "",
      "salt": "0xafde5cd84259b5285582225305231052328e60fbecbbf6ce451ee73534cb3979",
      "assetIds": []
    },
    {
      "x": 3,
      "y": 67,
      "size": 1,
      "price": "1011000000000000000000",
      "reserved": "0x7a9fe22691c811ea339d9b73150e6911a5343dca",
      "salt": "0xe159fe6471f2ed14be21eb8c97b39db069ffa77644d4d371bf7128a8d6b9beda",
      "assetIds": []
    },
    {
      "x": 3,
      "y": 68,
      "size": 1,
      "price": "1011000000000000000000",
      "reserved": "",
      "salt": "0x7e772c7b286680c4dd1622c86e3d112585ecf1ff46ec7ded96cf902e4fd28917",
      "assetIds": []
    },
    {
      "x": 3,
      "y": 69,
      "size": 1,
      "price": "1011000000000000000000",
      "reserved": "",
      "salt": "0x8e570c6ead73fddcae542576dfe5a279d669d11f64b612a93941042be65b8382",
      "assetIds": []
    },
    {
      "x": 3,
      "y": 70,
      "size": 1,
      "price": "1011000000000000000000",
      "reserved": "0x7a9fe22691c811ea339d9b73150e6911a5343dca",
      "salt": "0x1b33f51c95ee45662faf41da0f80b8cd69fd3629988ac9766dc04de6cdf82eb8",
      "assetIds": []
    },
    {
      "x": 3,
      "y": 71,
      "size": 1,
      "price": "1011000000000000000000",
      "reserved": "",
      "salt": "0xe99d4a05184544d7a532a2da2282ba0e482b56aff3a01335c5c5cdf7b36c6c2d",
      "assetIds": []
    },
    {
      "x": 3,
      "y": 90,
      "size": 1,
      "price": "1011000000000000000000",
      "reserved": "",
      "salt": "0x72a4635f72cc8eff8d85fb62c1a1dcc8cd5c7d99685cc1da058968c8eb070034",
      "assetIds": []
    },
    {
      "x": 3,
      "y": 91,
      "size": 1,
      "price": "1011000000000000000000",
      "reserved": "",
      "salt": "0xa93f25d59a8270b28fb4906c4aafda9cb6fd4333c79f41029ed3282f3840ebe5",
      "assetIds": []
    },
    {
      "x": 3,
      "y": 92,
      "size": 1,
      "price": "1011000000000000000000",
      "reserved": "",
      "salt": "0x726e118858ae2671c7c91e2b2138c3e0d9968527214edcb0664fcf381f19029e",
      "assetIds": []
    },
    {
      "x": 3,
      "y": 93,
      "size": 1,
      "price": "1011000000000000000000",
      "reserved": "",
      "salt": "0x03839d51abbf9a789cc294b5948df31e9f771f327de49d43ec1b2e90b1792eef",
      "assetIds": []
    },
    {
      "x": 3,
      "y": 94,
      "size": 1,
      "price": "1011000000000000000000",
      "reserved": "",
      "salt": "0x87f3e2c5f351eb3df470e21919cd4c942c3f0968f878d83c4b59bb5290e494ef",
      "assetIds": []
    },
    {
      "x": 3,
      "y": 95,
      "size": 1,
      "price": "1011000000000000000000",
      "reserved": "0x7a9fe22691c811ea339d9b73150e6911a5343dca",
      "salt": "0xa1ccb21524cc5b30c26caea843e294879683b4659712b1378e60d53b69d45781",
      "assetIds": []
    },
    {
      "x": 4,
      "y": 40,
      "size": 1,
      "price": "1011000000000000000000",
      "reserved": "",
      "salt": "0x1109530f005a765e157246bdbef0c2431368635cdf9743d7f1adbf1a3100cbbb",
      "assetIds": []
    },
    {
      "x": 4,
      "y": 41,
      "size": 1,
      "price": "1011000000000000000000",
      "reserved": "0x7a9fe22691c811ea339d9b73150e6911a5343dca",
      "salt": "0x7252baac5740ad320319614c2bfbde429436cbe4dab23009768423e9559a5982",
      "assetIds": []
    },
    {
      "x": 4,
      "y": 42,
      "size": 1,
      "price": "1011000000000000000000",
      "reserved": "",
      "salt": "0xeb66e43f8521252a905d10ca8ad4bd7a1104af7413686841773cf99188c3248c",
      "assetIds": []
    },
    {
      "x": 4,
      "y": 43,
      "size": 1,
      "price": "1011000000000000000000",
      "reserved": "",
      "salt": "0xdf7bf45b1b9a10a0d98cc02679ca929ea3b9485f33fb8ef8db22803ea37cdc68",
      "assetIds": []
    },
    {
      "x": 4,
      "y": 44,
      "size": 1,
      "price": "1011000000000000000000",
      "reserved": "",
      "salt": "0x1c965225bde7955c16cb6216992bfebb714a5ec7bc8f03722eed4cdcf6fcb55a",
      "assetIds": []
    },
    {
      "x": 4,
      "y": 45,
      "size": 1,
      "price": "1011000000000000000000",
      "reserved": "",
      "salt": "0x6f0c08805bfd3229fcbd01ae5edc1cc8942745e3d96e18079acb0e0b320120bc",
      "assetIds": []
    },
    {
      "x": 4,
      "y": 46,
      "size": 1,
      "price": "1011000000000000000000",
      "reserved": "",
      "salt": "0xe17a9350c193b981c7034b29a2af21b97f3697e728f42fc5081ebc02f9f47b86",
      "assetIds": []
    },
    {
      "x": 4,
      "y": 47,
      "size": 1,
      "price": "1011000000000000000000",
      "reserved": "",
      "salt": "0x8360e2024af10b4b183e8c90f76d7ceafe20ba143c6cbd706cfe8682a7575c4b",
      "assetIds": []
    },
    {
      "x": 4,
      "y": 48,
      "size": 1,
      "price": "1011000000000000000000",
      "reserved": "",
      "salt": "0x158d762db4447b2682df566102d9070f9d4cb2f5d04359fcf9feff7b2a42d5e1",
      "assetIds": []
    },
    {
      "x": 4,
      "y": 49,
      "size": 1,
      "price": "1011000000000000000000",
      "reserved": "",
      "salt": "0x36c0a67b94407e47e3b54f98abf22914ba080dc6314b71c24b27f0cc68105b81",
      "assetIds": []
    },
    {
      "x": 4,
      "y": 50,
      "size": 1,
      "price": "1011000000000000000000",
      "reserved": "",
      "salt": "0x3e6ada68556b615fc64bdd7b13342a7db8c8dc8e68f24214bd4d69dfc1bf41e5",
      "assetIds": []
    },
    {
      "x": 4,
      "y": 51,
      "size": 1,
      "price": "1011000000000000000000",
      "reserved": "",
      "salt": "0x34643b22e3705e889779ad6d11b1313ff716acbcf8aa2b496580fc353b9c06f6",
      "assetIds": []
    },
    {
      "x": 4,
      "y": 52,
      "size": 1,
      "price": "1011000000000000000000",
      "reserved": "",
      "salt": "0x363e9a4e18ac4e7930edf30b8bbd4a2961548c09c119767793657381c88c0e1f",
      "assetIds": []
    },
    {
      "x": 4,
      "y": 53,
      "size": 1,
      "price": "1011000000000000000000",
      "reserved": "",
      "salt": "0x02338c6ff64b2f17360b0fb5eb2d026cae80912366b6f881c8f197bb0037bff1",
      "assetIds": []
    },
    {
      "x": 4,
      "y": 57,
      "size": 1,
      "price": "1011000000000000000000",
      "reserved": "",
      "salt": "0x106f4a22c1ef0c270d5c6accd05157e958749de5f1f4b755b1ed342d92e10e57",
      "assetIds": []
    },
    {
      "x": 4,
      "y": 58,
      "size": 1,
      "price": "1011000000000000000000",
      "reserved": "",
      "salt": "0x387e8352d38f2c523f457c0c40e3f55bc772d07f75b99b707a6c146d4f28b0e3",
      "assetIds": []
    },
    {
      "x": 4,
      "y": 59,
      "size": 1,
      "price": "1011000000000000000000",
      "reserved": "",
      "salt": "0xaac3b94519b1c739ba6a526a1b73010b30270da88802ec02dbf2be75726a4056",
      "assetIds": []
    },
    {
      "x": 4,
      "y": 66,
      "size": 1,
      "price": "1011000000000000000000",
      "reserved": "",
      "salt": "0xddddb18ca4acca047baacfb91b0038ae0329becb4f1c78f069c01b01dec84653",
      "assetIds": []
    },
    {
      "x": 4,
      "y": 67,
      "size": 1,
      "price": "1011000000000000000000",
      "reserved": "",
      "salt": "0x7e634441f431c4ec609593187fd03a5dd9484d8cc859513422e8c4dda51bb8ff",
      "assetIds": []
    },
    {
      "x": 4,
      "y": 68,
      "size": 1,
      "price": "1011000000000000000000",
      "reserved": "",
      "salt": "0x61e0b4c7b944df674e35fdf9f18539fb1e8698c0260b8f9e0b1b10905bfb13bb",
      "assetIds": []
    },
    {
      "x": 4,
      "y": 69,
      "size": 1,
      "price": "1011000000000000000000",
      "reserved": "",
      "salt": "0x29977ad139ecf96fbb1f3407b98d7e25f07e4cc216ffb46dc55e4a058beda526",
      "assetIds": []
    },
    {
      "x": 4,
      "y": 70,
      "size": 1,
      "price": "1011000000000000000000",
      "reserved": "",
      "salt": "0x2bfd0d2a010855c7b61408c77af26c36f89f24e12fa4cb2f8355e8eeed924ce1",
      "assetIds": []
    },
    {
      "x": 4,
      "y": 71,
      "size": 1,
      "price": "1011000000000000000000",
      "reserved": "",
      "salt": "0xc3d2dd2eeb9e140a05003a754e82b831599192bacc1f34e2c76d92e2c2ad92f0",
      "assetIds": []
    },
    {
      "x": 4,
      "y": 90,
      "size": 1,
      "price": "1011000000000000000000",
      "reserved": "",
      "salt": "0xff98213afe09cfab5c8d133023b106bf91b776c9199a4478991faa078d65e2e5",
      "assetIds": []
    },
    {
      "x": 4,
      "y": 91,
      "size": 1,
      "price": "1011000000000000000000",
      "reserved": "",
      "salt": "0x2c632f7875da333b61fd43e75986ec9aa52c92b0cb4006ee1ba337f6451500f2",
      "assetIds": []
    },
    {
      "x": 4,
      "y": 92,
      "size": 1,
      "price": "1011000000000000000000",
      "reserved": "",
      "salt": "0xfc1ea91d4e57c3c10b746fe691d2d3aa519812b820af2ce49c15a9658d0bd792",
      "assetIds": []
    },
    {
      "x": 4,
      "y": 93,
      "size": 1,
      "price": "1011000000000000000000",
      "reserved": "",
      "salt": "0x0e6103777d7943e1dc98f447f23fc82f0195ad2df6a686ccd73d22277fc834e1",
      "assetIds": []
    },
    {
      "x": 4,
      "y": 94,
      "size": 1,
      "price": "1011000000000000000000",
      "reserved": "",
      "salt": "0xcfb08e194b637ff93e95fa8aada8e1fc7585ad810948e96596ebbd300b8e8e43",
      "assetIds": []
    },
    {
      "x": 4,
      "y": 95,
      "size": 1,
      "price": "1011000000000000000000",
      "reserved": "",
      "salt": "0xd11220c4003246db28a9ef1af0d04b3982f27ddc77bff2ba526ff73a4baaa445",
      "assetIds": []
    },
    {
      "x": 5,
      "y": 40,
      "size": 1,
      "price": "1011000000000000000000",
      "reserved": "",
      "salt": "0x481578fa427dac497a35285c20cdd2170bbddcead401ee8e61dfed2ee7c79aa4",
      "assetIds": []
    },
    {
      "x": 5,
      "y": 41,
      "size": 1,
      "price": "1011000000000000000000",
      "reserved": "",
      "salt": "0x9ee3619ffd536d3d4365d4d7f4b65466e938fd05ad6555b88688874aaaa66660",
      "assetIds": []
    },
    {
      "x": 5,
      "y": 42,
      "size": 1,
      "price": "1011000000000000000000",
      "reserved": "",
      "salt": "0xbf645d96b956654f4ffb421ca015dd27f2a0440d1eb7b6fb6aec7b7f7ccd1345",
      "assetIds": []
    },
    {
      "x": 5,
      "y": 43,
      "size": 1,
      "price": "1011000000000000000000",
      "reserved": "",
      "salt": "0x5bea9b6a3ec7e8ead8308c5b1f0e65e6a69655ddf6bd82cf160c46c628a0a693",
      "assetIds": []
    },
    {
      "x": 5,
      "y": 44,
      "size": 1,
      "price": "1011000000000000000000",
      "reserved": "",
      "salt": "0xae72578e953151b7f66620f6f3ad72e0fbb7f9e2972b729c1eb0880e5a9c3c91",
      "assetIds": []
    },
    {
      "x": 5,
      "y": 45,
      "size": 1,
      "price": "1011000000000000000000",
      "reserved": "",
      "salt": "0x0614e13740a6ee1f7021012f3cda6ad50d448c99a105a7ae70ec3df3cfdab6c6",
      "assetIds": []
    },
    {
      "x": 5,
      "y": 46,
      "size": 1,
      "price": "1011000000000000000000",
      "reserved": "",
      "salt": "0x05ff90942499f8b312e90acecbb4c1382b1078b5ac94d54e5b190e1c8df5f65d",
      "assetIds": []
    },
    {
      "x": 5,
      "y": 47,
      "size": 1,
      "price": "1011000000000000000000",
      "reserved": "",
      "salt": "0x9dc97a2940ed1e7ec0687d7b956e14392272e2a8fa0e00093b0afc4d73e005a3",
      "assetIds": []
    },
    {
      "x": 5,
      "y": 48,
      "size": 1,
      "price": "1011000000000000000000",
      "reserved": "",
      "salt": "0x1fea4c78e80abf6debaf07e8e448b429905a31958bb7a9be7710ca5ad1a0dd77",
      "assetIds": []
    },
    {
      "x": 5,
      "y": 49,
      "size": 1,
      "price": "1011000000000000000000",
      "reserved": "0x7a9fe22691c811ea339d9b73150e6911a5343dca",
      "salt": "0xfb2250a25b3a2f44e279ed2b36874a3b48a34e4f34f4fe4a29ca6c7b6c59fd17",
      "assetIds": []
    },
    {
      "x": 5,
      "y": 50,
      "size": 1,
      "price": "1011000000000000000000",
      "reserved": "",
      "salt": "0x068391691cf5bf3efb5ef07f5af1aff5e2f322c84be632b79ea583f4bd4df0a4",
      "assetIds": []
    },
    {
      "x": 5,
      "y": 51,
      "size": 1,
      "price": "1011000000000000000000",
      "reserved": "",
      "salt": "0xa19b1563ab7505bcc88a0dd867027ae2bc2db478a6936765c2678c6752e19a73",
      "assetIds": []
    },
    {
      "x": 5,
      "y": 52,
      "size": 1,
      "price": "1011000000000000000000",
      "reserved": "",
      "salt": "0x29f5b1c1d7d53601dcb136e322a401b8cbabe92950345c7cd69e14144551beb3",
      "assetIds": []
    },
    {
      "x": 5,
      "y": 53,
      "size": 1,
      "price": "1011000000000000000000",
      "reserved": "",
      "salt": "0x9dc9078cf032e11b7c22305bb98652e80d3c80b72c5946561f71f741b10e057b",
      "assetIds": []
    },
    {
      "x": 5,
      "y": 57,
      "size": 1,
      "price": "1011000000000000000000",
      "reserved": "0x7a9fe22691c811ea339d9b73150e6911a5343dca",
      "salt": "0x3fe7224d7a03a6a3c3c7b1cfdd015725ec51eadd6d92a592b5a454cc66d40705",
      "assetIds": []
    },
    {
      "x": 5,
      "y": 58,
      "size": 1,
      "price": "1011000000000000000000",
      "reserved": "",
      "salt": "0xcbe537ccf7aa05cfa3d0920977b988aaf6c0b87bebe95244f3147d3163613fc5",
      "assetIds": []
    },
    {
      "x": 5,
      "y": 59,
      "size": 1,
      "price": "1011000000000000000000",
      "reserved": "",
      "salt": "0x79031e24034a09efeb8f6d8312ad5a245505ebe0e32c1924602e5761f369d2f8",
      "assetIds": []
    },
    {
      "x": 5,
      "y": 66,
      "size": 1,
      "price": "1011000000000000000000",
      "reserved": "",
      "salt": "0x046d1c7a35652ce6f3aac94e4e4714545411e711f7e62efe6a7353dc732cd9ca",
      "assetIds": []
    },
    {
      "x": 5,
      "y": 67,
      "size": 1,
      "price": "1011000000000000000000",
      "reserved": "",
      "salt": "0x568cd9148acc692c866458331dda7d8a2ab191f5b5174898dc60efed49f4c087",
      "assetIds": []
    },
    {
      "x": 5,
      "y": 68,
      "size": 1,
      "price": "1011000000000000000000",
      "reserved": "",
      "salt": "0x03e15aa7e5b1855876644c51903685a5530f6c0ccd7248e5317b3ad980325a8f",
      "assetIds": []
    },
    {
      "x": 5,
      "y": 69,
      "size": 1,
      "price": "1011000000000000000000",
      "reserved": "",
      "salt": "0xabff33072f0089e2607b780e446dc34eb00fc6f9da81b7ecdaf5bb5a2733c523",
      "assetIds": []
    },
    {
      "x": 5,
      "y": 70,
      "size": 1,
      "price": "1011000000000000000000",
      "reserved": "",
      "salt": "0x3b4dfa4d5683c3326110572936a051e8cfd17317f4134ed7e73bed66cecd0d3d",
      "assetIds": []
    },
    {
      "x": 5,
      "y": 71,
      "size": 1,
      "price": "1011000000000000000000",
      "reserved": "",
      "salt": "0x55b0ae68621309747f6506f4c87f8ca1a74cec3c5dd07eddf1e6b0c2dc760f45",
      "assetIds": []
    },
    {
      "x": 5,
      "y": 90,
      "size": 1,
      "price": "1011000000000000000000",
      "reserved": "",
      "salt": "0x3ae5b31fe4a7dd4766aa01aa88e8357be845ffe1bf265798f99d32d6a8059a73",
      "assetIds": []
    },
    {
      "x": 5,
      "y": 91,
      "size": 1,
      "price": "1011000000000000000000",
      "reserved": "",
      "salt": "0x3baf24c148d7014ace6fbb4dd9ef76dd40ebdd11c135ade0a15de746cbdf3f53",
      "assetIds": []
    },
    {
      "x": 5,
      "y": 92,
      "size": 1,
      "price": "1011000000000000000000",
      "reserved": "",
      "salt": "0x0f380c4b8ccad9c089d5f050c05445032bd9c395b846e3c74486a12afb3640f9",
      "assetIds": []
    },
    {
      "x": 5,
      "y": 93,
      "size": 1,
      "price": "1011000000000000000000",
      "reserved": "",
      "salt": "0x03fc47da387c936ccd17c4e08b0d0b61f3b350662a3d3bd3a53eabeffbfa776c",
      "assetIds": []
    },
    {
      "x": 5,
      "y": 94,
      "size": 1,
      "price": "1011000000000000000000",
      "reserved": "",
      "salt": "0xde39c8721a8c02780cdb18d9b212d1811273f9a905d93eb37784f8767b0959cc",
      "assetIds": []
    },
    {
      "x": 5,
      "y": 95,
      "size": 1,
      "price": "1011000000000000000000",
      "reserved": "",
      "salt": "0x2271856d44cd11009a6502043174020c9fc3f82545420f3e9cac188bb2f701dc",
      "assetIds": []
    },
    {
      "x": 6,
      "y": 40,
      "size": 1,
      "price": "1011000000000000000000",
      "reserved": "",
      "salt": "0x6791bb0a6f566d5f08494d81b854401a76ae62b608e48e6a785976844511a8f2",
      "assetIds": []
    },
    {
      "x": 6,
      "y": 41,
      "size": 1,
      "price": "1011000000000000000000",
      "reserved": "",
      "salt": "0xe0fd78b2f640c82065d48c084cf4464279eb8c80445aeaf0c1abc1ccbea24adf",
      "assetIds": []
    },
    {
      "x": 6,
      "y": 42,
      "size": 1,
      "price": "1011000000000000000000",
      "reserved": "",
      "salt": "0x4217b7907e3d22849d7ac8477203d641c1d09d9a8d4da76764d884da98aaa02f",
      "assetIds": []
    },
    {
      "x": 6,
      "y": 43,
      "size": 1,
      "price": "1011000000000000000000",
      "reserved": "",
      "salt": "0x708c287ea8bb34320d7d8c478ae02a3a2a6463c463a84c0b6383d1dc2a7d59c5",
      "assetIds": []
    },
    {
      "x": 6,
      "y": 44,
      "size": 1,
      "price": "1011000000000000000000",
      "reserved": "0x7a9fe22691c811ea339d9b73150e6911a5343dca",
      "salt": "0xed7c8d05222e53a44537c4d55f6619450af5bdf191cc66cd74ed75f15affa90e",
      "assetIds": []
    },
    {
      "x": 6,
      "y": 45,
      "size": 1,
      "price": "1011000000000000000000",
      "reserved": "",
      "salt": "0x1d82f57d25173abc14372388ce72001bb83f5db978055839d3740b7637b39a77",
      "assetIds": []
    },
    {
      "x": 6,
      "y": 46,
      "size": 1,
      "price": "1011000000000000000000",
      "reserved": "",
      "salt": "0x083087d156205a36f11881b007813651f7666c0294303c210ced33a0ce4b3ffe",
      "assetIds": []
    },
    {
      "x": 6,
      "y": 47,
      "size": 1,
      "price": "1011000000000000000000",
      "reserved": "",
      "salt": "0x087e07a0e02129636a468d1130b0db30772c3fdeddae8418f65d3f288f7ccdcd",
      "assetIds": []
    },
    {
      "x": 6,
      "y": 48,
      "size": 1,
      "price": "1011000000000000000000",
      "reserved": "",
      "salt": "0x1ab27ce1c4f3ac83cdd4c56f045957011a8396b786bac8a25ede7ad446b15d0c",
      "assetIds": []
    },
    {
      "x": 6,
      "y": 49,
      "size": 1,
      "price": "1011000000000000000000",
      "reserved": "",
      "salt": "0xd5a9c9dfea31414c9112f20e0a0fd1f49c260673a389be9acf1888f76d8a195f",
      "assetIds": []
    },
    {
      "x": 6,
      "y": 50,
      "size": 1,
      "price": "1011000000000000000000",
      "reserved": "",
      "salt": "0xb2bd5708e8007d316b73ca1f409f0a70a1c082fa03307aaf653f07550db5ef10",
      "assetIds": []
    },
    {
      "x": 6,
      "y": 51,
      "size": 1,
      "price": "1011000000000000000000",
      "reserved": "",
      "salt": "0xe5d4d7f3a48b7e51638cf8e16d339f57cb3af43943ee3a0922d244149725d2b9",
      "assetIds": []
    },
    {
      "x": 6,
      "y": 52,
      "size": 1,
      "price": "1011000000000000000000",
      "reserved": "",
      "salt": "0xef70c91a6e09847537c95ecd5a6c44630ae18f1219c9e67c00a2459dc0c97bff",
      "assetIds": []
    },
    {
      "x": 6,
      "y": 53,
      "size": 1,
      "price": "1011000000000000000000",
      "reserved": "",
      "salt": "0x41568c32c5cf3e9d27c6ffd0b809c338a480e8ae510d2ce5ef500d58aea71a2c",
      "assetIds": []
    },
    {
      "x": 6,
      "y": 60,
      "size": 1,
      "price": "4683000000000000000000",
      "reserved": "",
      "salt": "0xf0721fa47e1dc3dadf52f6989450ea2d18b5bb0e0a0f054dbbb43a00796e9a08",
      "assetIds": [
        "55464657044963196816950587289035428064568320970692304673817341489687933519876",
        "55464657044963196816950587289035428064568320970692304673817341489687933519880",
        "55464657044963196816950587289035428064568320970692304673817341489687933519882",
        "55464657044963196816950587289035428064568320970692304673817341489687933519886",
        "55464657044963196816950587289035428064568320970692304673817341489687933519883"
      ]
    },
    {
      "x": 6,
      "y": 61,
      "size": 1,
      "price": "1011000000000000000000",
      "reserved": "0x7a9fe22691c811ea339d9b73150e6911a5343dca",
      "salt": "0xec59a520a229272c642c9fca9fc6af7fe8026756ede112a18528a574efe79bcf",
      "assetIds": []
    },
    {
      "x": 6,
      "y": 62,
      "size": 1,
      "price": "1011000000000000000000",
      "reserved": "",
      "salt": "0x2dd00848f77c691630c3cb4ac3b7a95db865f94421c922bedd602c44cdbdf569",
      "assetIds": []
    },
    {
      "x": 6,
      "y": 63,
      "size": 1,
      "price": "4683000000000000000000",
      "reserved": "",
      "salt": "0x86d2b8f2122ae8bc01598eaf6745838763ae4184a2206644c03b31e63d0cac61",
      "assetIds": [
        "55464657044963196816950587289035428064568320970692304673817341489687933519876",
        "55464657044963196816950587289035428064568320970692304673817341489687933519880",
        "55464657044963196816950587289035428064568320970692304673817341489687933519882",
        "55464657044963196816950587289035428064568320970692304673817341489687933519886",
        "55464657044963196816950587289035428064568320970692304673817341489687933519883"
      ]
    },
    {
      "x": 6,
      "y": 64,
      "size": 1,
      "price": "4683000000000000000000",
      "reserved": "",
      "salt": "0x05649172a34171f845b92d069b808632cfd51fc70eede754d03cf4e6422fe194",
      "assetIds": [
        "55464657044963196816950587289035428064568320970692304673817341489687933519876",
        "55464657044963196816950587289035428064568320970692304673817341489687933519880",
        "55464657044963196816950587289035428064568320970692304673817341489687933519882",
        "55464657044963196816950587289035428064568320970692304673817341489687933519886",
        "55464657044963196816950587289035428064568320970692304673817341489687933519883"
      ]
    },
    {
      "x": 6,
      "y": 65,
      "size": 1,
      "price": "1011000000000000000000",
      "reserved": "0x7a9fe22691c811ea339d9b73150e6911a5343dca",
      "salt": "0x9dbb7069444abb3eb947e04f80dc77e08abb0b217c28e7f44797172d2bf98b5c",
      "assetIds": []
    },
    {
      "x": 6,
      "y": 66,
      "size": 1,
      "price": "1011000000000000000000",
      "reserved": "",
      "salt": "0xc018db9ab564e6ac06e0a6035960966fb59b2695c3ca76c4700844baab759497",
      "assetIds": []
    },
    {
      "x": 6,
      "y": 67,
      "size": 1,
      "price": "1011000000000000000000",
      "reserved": "0x7a9fe22691c811ea339d9b73150e6911a5343dca",
      "salt": "0x5dde1298543cdaed4e3fc0a92534312f2e7946d73fa027bcbbf0e7da4bf92d07",
      "assetIds": []
    },
    {
      "x": 6,
      "y": 68,
      "size": 1,
      "price": "1011000000000000000000",
      "reserved": "",
      "salt": "0x2e101de1f663efa37e6991674744bb622f5b50fd970977f05450024c68342549",
      "assetIds": []
    },
    {
      "x": 6,
      "y": 69,
      "size": 1,
      "price": "1011000000000000000000",
      "reserved": "",
      "salt": "0xc1e444ca7c66989b2518905feb8dfa8d276f6318e0325d1a73ec990e01f19f60",
      "assetIds": []
    },
    {
      "x": 6,
      "y": 70,
      "size": 1,
      "price": "1011000000000000000000",
      "reserved": "",
      "salt": "0x29f0dd2bc39beb26cc20852797c60c1f60a9f17db1dc623435acac8683d88b64",
      "assetIds": []
    },
    {
      "x": 6,
      "y": 71,
      "size": 1,
      "price": "1011000000000000000000",
      "reserved": "",
      "salt": "0x3c9de0e44e45ae9e404932a32019c1a00ba70ecab3e5da225d21d022cd9b0811",
      "assetIds": []
    },
    {
      "x": 6,
      "y": 84,
      "size": 1,
      "price": "1011000000000000000000",
      "reserved": "0x7a9fe22691c811ea339d9b73150e6911a5343dca",
      "salt": "0x41cf8dd4fa1d95e3f60d2867ce6ef051fe90edb34e8d22a3df1b52b177c7b6d9",
      "assetIds": []
    },
    {
      "x": 6,
      "y": 85,
      "size": 1,
      "price": "1011000000000000000000",
      "reserved": "",
      "salt": "0x0cb27d31db8a1be73cba02c4c26504d7f5f7721351603970b95f4fe05983ce18",
      "assetIds": []
    },
    {
      "x": 6,
      "y": 86,
      "size": 1,
      "price": "1011000000000000000000",
      "reserved": "",
      "salt": "0x60053c760e37e143c93a9989004fc53651c4e407b49ff1656b818e2573f6ffee",
      "assetIds": []
    },
    {
      "x": 6,
      "y": 87,
      "size": 1,
      "price": "1011000000000000000000",
      "reserved": "0x7a9fe22691c811ea339d9b73150e6911a5343dca",
      "salt": "0xeb02772568a70d53dfb9492caa5ee818ddaefd2aaa8feef42e746fa1acc4d267",
      "assetIds": []
    },
    {
      "x": 6,
      "y": 88,
      "size": 1,
      "price": "1011000000000000000000",
      "reserved": "",
      "salt": "0x1b25ac180b79b197c5b24ad334cb9511d8fa7693170bc4ebf69e9db2447f02eb",
      "assetIds": []
    },
    {
      "x": 6,
      "y": 89,
      "size": 1,
      "price": "1011000000000000000000",
      "reserved": "",
      "salt": "0x59c160fed796ad4d1e0146ab8a0083d90ba59267c6da97b10b87d0ce611c3dda",
      "assetIds": []
    },
    {
      "x": 6,
      "y": 90,
      "size": 1,
      "price": "1011000000000000000000",
      "reserved": "",
      "salt": "0x0b437f4d6cf892d1e90d39190230cfd2a27e94ed0d10dcfa965e66ecbd5b7622",
      "assetIds": []
    },
    {
      "x": 6,
      "y": 91,
      "size": 1,
      "price": "1011000000000000000000",
      "reserved": "",
      "salt": "0x893bc22f7b51f8b39beb52b15618212588c926b609a869998a5bced9345d3f97",
      "assetIds": []
    },
    {
      "x": 6,
      "y": 92,
      "size": 1,
      "price": "1011000000000000000000",
      "reserved": "",
      "salt": "0x0b6d19fc49e5ffe576266da7bae7f875e449806fc1ef7b57678bf3919921c872",
      "assetIds": []
    },
    {
      "x": 6,
      "y": 93,
      "size": 1,
      "price": "1011000000000000000000",
      "reserved": "",
      "salt": "0x3bda75fe367b7e134c4a65d7dee3625141619f8738d8205593dd463c8e03f1c6",
      "assetIds": []
    },
    {
      "x": 6,
      "y": 94,
      "size": 1,
      "price": "1011000000000000000000",
      "reserved": "",
      "salt": "0xf63f15079859fb408f3fdc99879ffdc33603f776b918fc902d62ad961e1dcc69",
      "assetIds": []
    },
    {
      "x": 6,
      "y": 95,
      "size": 1,
      "price": "1011000000000000000000",
      "reserved": "",
      "salt": "0x39bc6e0635616a19a3a2bb7086fbf230985a8e5bcb3509d15e8f41a37eafb931",
      "assetIds": []
    },
    {
      "x": 7,
      "y": 40,
      "size": 1,
      "price": "1011000000000000000000",
      "reserved": "",
      "salt": "0x585bb4aea82d3445aefd745738a37a5297207c0291bd769ff2121eacf75e50a1",
      "assetIds": []
    },
    {
      "x": 7,
      "y": 41,
      "size": 1,
      "price": "1011000000000000000000",
      "reserved": "",
      "salt": "0x7aa3fafe3d7fae2e23317bd111edb9f443bb783c007e8c962f009f7bf7f465d2",
      "assetIds": []
    },
    {
      "x": 7,
      "y": 42,
      "size": 1,
      "price": "1011000000000000000000",
      "reserved": "0x7a9fe22691c811ea339d9b73150e6911a5343dca",
      "salt": "0x16a4781a2cf1473b536042cfc397c14efaddb48403a4d24e670ce72a4cafc466",
      "assetIds": []
    },
    {
      "x": 7,
      "y": 43,
      "size": 1,
      "price": "1011000000000000000000",
      "reserved": "",
      "salt": "0x55cfd07c7eae11d92300043ecf02f370ed9b7cfab49a9b8eb363d8c6249964ec",
      "assetIds": []
    },
    {
      "x": 7,
      "y": 44,
      "size": 1,
      "price": "1011000000000000000000",
      "reserved": "",
      "salt": "0xfefb7b03ced021160adb015100630418fd2df27d5cb21ca7cb18ab90fc5647d4",
      "assetIds": []
    },
    {
      "x": 7,
      "y": 45,
      "size": 1,
      "price": "1011000000000000000000",
      "reserved": "",
      "salt": "0x4ca71ec2f36ea67a0640a2fd940f0097b45c2f1ba1a85fa5d818d27c08d88d0a",
      "assetIds": []
    },
    {
      "x": 7,
      "y": 46,
      "size": 1,
      "price": "1011000000000000000000",
      "reserved": "",
      "salt": "0xd24fbc537e3db20d6242b8cef4685823161e070dd762dcf14cad1de09cac2eee",
      "assetIds": []
    },
    {
      "x": 7,
      "y": 47,
      "size": 1,
      "price": "1011000000000000000000",
      "reserved": "",
      "salt": "0x0851f7028fc9137c6a879c96a55da4eb75970e34eac60cfa87112edd8622a43e",
      "assetIds": []
    },
    {
      "x": 7,
      "y": 48,
      "size": 1,
      "price": "1011000000000000000000",
      "reserved": "",
      "salt": "0x6e080b06aa5e6fd0e024735a0cb62c2b2a9233dbec5521252f4fed71c10754b1",
      "assetIds": []
    },
    {
      "x": 7,
      "y": 49,
      "size": 1,
      "price": "1011000000000000000000",
      "reserved": "",
      "salt": "0x476b1a21ce3641f9d5f21876b5002b70d648e97b097d28f18458f4b90c6ab4b9",
      "assetIds": []
    },
    {
      "x": 7,
      "y": 50,
      "size": 1,
      "price": "1011000000000000000000",
      "reserved": "",
      "salt": "0xf2e8a0078de61120d91e4442f193851fd74aeb93213733214c0242735f5a52a2",
      "assetIds": []
    },
    {
      "x": 7,
      "y": 51,
      "size": 1,
      "price": "1011000000000000000000",
      "reserved": "",
      "salt": "0xb3ec94449dffa900939a08aa9c5a3db94324dc427d7c1f0b9af3f140af3c61df",
      "assetIds": []
    },
    {
      "x": 7,
      "y": 52,
      "size": 1,
      "price": "1011000000000000000000",
      "reserved": "0x7a9fe22691c811ea339d9b73150e6911a5343dca",
      "salt": "0x985619a60faeeeb89c96238d9990470a33160d16df6ed3b42cf040717c5357ea",
      "assetIds": []
    },
    {
      "x": 7,
      "y": 53,
      "size": 1,
      "price": "1011000000000000000000",
      "reserved": "",
      "salt": "0x257a869106f63874d3fc24ce298cca98b73d3125a3d774184b2e7758de16add0",
      "assetIds": []
    },
    {
      "x": 7,
      "y": 60,
      "size": 1,
      "price": "4683000000000000000000",
      "reserved": "",
      "salt": "0x21077077fb4f2ebe51e2c582256060f0674caf21bcdc293feaea6a39476d5587",
      "assetIds": [
        "55464657044963196816950587289035428064568320970692304673817341489687933519876",
        "55464657044963196816950587289035428064568320970692304673817341489687933519880",
        "55464657044963196816950587289035428064568320970692304673817341489687933519882",
        "55464657044963196816950587289035428064568320970692304673817341489687933519886",
        "55464657044963196816950587289035428064568320970692304673817341489687933519883"
      ]
    },
    {
      "x": 7,
      "y": 61,
      "size": 1,
      "price": "4683000000000000000000",
      "reserved": "",
      "salt": "0x4f878513d84604a4f85f723d3fc6f56972f6ae0121fda75af6ec567505881798",
      "assetIds": [
        "55464657044963196816950587289035428064568320970692304673817341489687933519876",
        "55464657044963196816950587289035428064568320970692304673817341489687933519880",
        "55464657044963196816950587289035428064568320970692304673817341489687933519882",
        "55464657044963196816950587289035428064568320970692304673817341489687933519886",
        "55464657044963196816950587289035428064568320970692304673817341489687933519883"
      ]
    },
    {
      "x": 7,
      "y": 62,
      "size": 1,
      "price": "4683000000000000000000",
      "reserved": "",
      "salt": "0x388d799b2886185a2c05dffdc9c56b2c1a961f3ad5174d6e4bd184a2bb8e94f7",
      "assetIds": [
        "55464657044963196816950587289035428064568320970692304673817341489687933519876",
        "55464657044963196816950587289035428064568320970692304673817341489687933519880",
        "55464657044963196816950587289035428064568320970692304673817341489687933519882",
        "55464657044963196816950587289035428064568320970692304673817341489687933519886",
        "55464657044963196816950587289035428064568320970692304673817341489687933519883"
      ]
    },
    {
      "x": 7,
      "y": 63,
      "size": 1,
      "price": "4683000000000000000000",
      "reserved": "",
      "salt": "0xbaf25ec30983c130ac654a8d8845de3e83a71017c6b66f4c4ebcd41c2827c61e",
      "assetIds": [
        "55464657044963196816950587289035428064568320970692304673817341489687933519876",
        "55464657044963196816950587289035428064568320970692304673817341489687933519880",
        "55464657044963196816950587289035428064568320970692304673817341489687933519882",
        "55464657044963196816950587289035428064568320970692304673817341489687933519886",
        "55464657044963196816950587289035428064568320970692304673817341489687933519883"
      ]
    },
    {
      "x": 7,
      "y": 64,
      "size": 1,
      "price": "4683000000000000000000",
      "reserved": "",
      "salt": "0xc809eb744ea71ada383a047278422922621336d9363a9e9d268203ec9e038741",
      "assetIds": [
        "55464657044963196816950587289035428064568320970692304673817341489687933519876",
        "55464657044963196816950587289035428064568320970692304673817341489687933519880",
        "55464657044963196816950587289035428064568320970692304673817341489687933519882",
        "55464657044963196816950587289035428064568320970692304673817341489687933519886",
        "55464657044963196816950587289035428064568320970692304673817341489687933519883"
      ]
    },
    {
      "x": 7,
      "y": 65,
      "size": 1,
      "price": "1011000000000000000000",
      "reserved": "0x7a9fe22691c811ea339d9b73150e6911a5343dca",
      "salt": "0xe75d4f2ab2d8729dc593dc6e883232f2d420507be283c444bcb209bd10cc8152",
      "assetIds": []
    },
    {
      "x": 7,
      "y": 66,
      "size": 1,
      "price": "1011000000000000000000",
      "reserved": "",
      "salt": "0x0b95091ff9088233fd4c7f3414cad9069a3f8e45c52e1225d3526a6b91dd3e20",
      "assetIds": []
    },
    {
      "x": 7,
      "y": 67,
      "size": 1,
      "price": "1011000000000000000000",
      "reserved": "",
      "salt": "0x08a988099474e2b553a4701ddd736080c3bc408ee1d9e23bbae345286a8e4bde",
      "assetIds": []
    },
    {
      "x": 7,
      "y": 68,
      "size": 1,
      "price": "1011000000000000000000",
      "reserved": "",
      "salt": "0xdcf129b2105967e083f4f9da1cb0709f5f95f3ca43759bd46a2c025fb9e3fbcc",
      "assetIds": []
    },
    {
      "x": 7,
      "y": 69,
      "size": 1,
      "price": "1011000000000000000000",
      "reserved": "",
      "salt": "0x09c6381d38fe2fbfcd86b60721e70c642e78a2fe56c730919a3a9b446685b008",
      "assetIds": []
    },
    {
      "x": 7,
      "y": 70,
      "size": 1,
      "price": "1011000000000000000000",
      "reserved": "0x7a9fe22691c811ea339d9b73150e6911a5343dca",
      "salt": "0x92a2943209b05f38d01338d380824df543df0df31a153fe94ff8fe7c57f28f0a",
      "assetIds": []
    },
    {
      "x": 7,
      "y": 71,
      "size": 1,
      "price": "1011000000000000000000",
      "reserved": "",
      "salt": "0x713a3c8eb164fd3ad56c3701b523b368b10114dc4fad986629e1c2f4d32d481b",
      "assetIds": []
    },
    {
      "x": 7,
      "y": 84,
      "size": 1,
      "price": "1011000000000000000000",
      "reserved": "",
      "salt": "0xa71b82afd59ce988fcf77983f5e1253def24f596353af8ace7719eed19c3a053",
      "assetIds": []
    },
    {
      "x": 7,
      "y": 85,
      "size": 1,
      "price": "1011000000000000000000",
      "reserved": "",
      "salt": "0xaed66327f9cc61fa383958a53b3da967a385fd0e6b59de7d437a68f3d27293b9",
      "assetIds": []
    },
    {
      "x": 7,
      "y": 86,
      "size": 1,
      "price": "1011000000000000000000",
      "reserved": "",
      "salt": "0x2503653a41e1049f47e092627583514d39d5657c93bcd1593026413865d5d6e7",
      "assetIds": []
    },
    {
      "x": 7,
      "y": 87,
      "size": 1,
      "price": "1011000000000000000000",
      "reserved": "",
      "salt": "0xbc6666a5e6f2ce9d12fe33741d659727fdc7123661b364a08c19642a5cdcae94",
      "assetIds": []
    },
    {
      "x": 7,
      "y": 88,
      "size": 1,
      "price": "1011000000000000000000",
      "reserved": "",
      "salt": "0x7fb66e24fa9593ca92f789b591f1aa14e8b871293a781ad68f16645c39ddb008",
      "assetIds": []
    },
    {
      "x": 7,
      "y": 89,
      "size": 1,
      "price": "1011000000000000000000",
      "reserved": "0x7a9fe22691c811ea339d9b73150e6911a5343dca",
      "salt": "0x5cfa9ebdb24221d63e9f30c584093fb51ba75b3bd6ad8ed1a68d7b5532c204b0",
      "assetIds": []
    },
    {
      "x": 7,
      "y": 90,
      "size": 1,
      "price": "1011000000000000000000",
      "reserved": "",
      "salt": "0xcf4dd7e14b8333335d0c5eb02cb2200df287b6df34fbac33837daf1b36736be2",
      "assetIds": []
    },
    {
      "x": 7,
      "y": 91,
      "size": 1,
      "price": "1011000000000000000000",
      "reserved": "",
      "salt": "0x5e5a527101be32762871dd2ff6d3c047c7919ae44391391ad7accd54867d4e62",
      "assetIds": []
    },
    {
      "x": 7,
      "y": 92,
      "size": 1,
      "price": "1011000000000000000000",
      "reserved": "",
      "salt": "0x552750179cd489419e8705b2020f4f0bb7909fde0755b5450a618959f47bf00a",
      "assetIds": []
    },
    {
      "x": 7,
      "y": 93,
      "size": 1,
      "price": "1011000000000000000000",
      "reserved": "",
      "salt": "0x600635b47ea9d433efdc86b5595a3ba2902088a9a426a372408994447a4cd9b5",
      "assetIds": []
    },
    {
      "x": 7,
      "y": 94,
      "size": 1,
      "price": "1011000000000000000000",
      "reserved": "0x7a9fe22691c811ea339d9b73150e6911a5343dca",
      "salt": "0x05e61aad879abbd38a32f233fa42ffce022ca3f6f1c4c2c85070e7851fa9e751",
      "assetIds": []
    },
    {
      "x": 7,
      "y": 95,
      "size": 1,
      "price": "1011000000000000000000",
      "reserved": "",
      "salt": "0xf55ad0dd1f4a41ef88220a8fca9707b61c8530e690b846caef08470daff39a87",
      "assetIds": []
    },
    {
      "x": 8,
      "y": 40,
      "size": 1,
      "price": "1011000000000000000000",
      "reserved": "",
      "salt": "0x7822939134729530379c6b3a02b7b0428e5fd3b2ca9d23d970eb273fa8c34e87",
      "assetIds": []
    },
    {
      "x": 8,
      "y": 41,
      "size": 1,
      "price": "1011000000000000000000",
      "reserved": "",
      "salt": "0x46c7f50a487fcff6751c37e62fcacbaa5155ffc6f6fd4bca9329fdcb6c0dc6bd",
      "assetIds": []
    },
    {
      "x": 8,
      "y": 42,
      "size": 1,
      "price": "1011000000000000000000",
      "reserved": "0x7a9fe22691c811ea339d9b73150e6911a5343dca",
      "salt": "0x47763ffaeb5a933c41962c0bafb0287ac2e07851f787703b551cf3d71f0beb50",
      "assetIds": []
    },
    {
      "x": 8,
      "y": 43,
      "size": 1,
      "price": "1011000000000000000000",
      "reserved": "",
      "salt": "0x345e9af9f25983466856ce9b958fff6b884cb345ae16f12f2e524a2e961c6df2",
      "assetIds": []
    },
    {
      "x": 8,
      "y": 44,
      "size": 1,
      "price": "1011000000000000000000",
      "reserved": "",
      "salt": "0x1250e0affb08bd567049728cccf649e5437c29babfce2d4c262747e8c90cb071",
      "assetIds": []
    },
    {
      "x": 8,
      "y": 45,
      "size": 1,
      "price": "1011000000000000000000",
      "reserved": "",
      "salt": "0x3a5e7092a9a515b80cbef7c52bee0de42f43b8b3316e2e5b03ea44eeb28a21de",
      "assetIds": []
    },
    {
      "x": 8,
      "y": 46,
      "size": 1,
      "price": "1011000000000000000000",
      "reserved": "0x7a9fe22691c811ea339d9b73150e6911a5343dca",
      "salt": "0xf04e1ad7a0bf1b2a261ed3674a2e78148a820cf6ca4f6765223cac2b75137e99",
      "assetIds": []
    },
    {
      "x": 8,
      "y": 47,
      "size": 1,
      "price": "1011000000000000000000",
      "reserved": "",
      "salt": "0x6498cb5d176e9cdced1f7f9829490ab0a162da5d1ce5358a65bc0d91554aafff",
      "assetIds": []
    },
    {
      "x": 8,
      "y": 48,
      "size": 1,
      "price": "1011000000000000000000",
      "reserved": "",
      "salt": "0x219b7ba0a012b184e470b4e5bcf8741737ffe9154773c7fe033c81d754cfa9f3",
      "assetIds": []
    },
    {
      "x": 8,
      "y": 49,
      "size": 1,
      "price": "1011000000000000000000",
      "reserved": "",
      "salt": "0xc0e52b6ebf47574eccf3c8929235379cb4108224f57aec77f5c08be504cf0aea",
      "assetIds": []
    },
    {
      "x": 8,
      "y": 50,
      "size": 1,
      "price": "1011000000000000000000",
      "reserved": "0x7a9fe22691c811ea339d9b73150e6911a5343dca",
      "salt": "0x75bf18122cbc20b1cd06204e072308b28cbcaf0e45f236feee012b5473a6ab03",
      "assetIds": []
    },
    {
      "x": 8,
      "y": 51,
      "size": 1,
      "price": "1011000000000000000000",
      "reserved": "",
      "salt": "0xad75dcf1e1758877576fa25b5d7ee27d48ba52726fbf3bbe1fde2b675c97f585",
      "assetIds": []
    },
    {
      "x": 8,
      "y": 52,
      "size": 1,
      "price": "1011000000000000000000",
      "reserved": "",
      "salt": "0x2eab32ad8a3b7bd3cec7ba0a45f0bba1a1d42c3d7148ef3bdd756248a96376eb",
      "assetIds": []
    },
    {
      "x": 8,
      "y": 53,
      "size": 1,
      "price": "1011000000000000000000",
      "reserved": "",
      "salt": "0x856fc19091eb0338637b5df3fba626844e97c37194502e009ae8fcc681e34aee",
      "assetIds": []
    },
    {
      "x": 8,
      "y": 60,
      "size": 1,
      "price": "4683000000000000000000",
      "reserved": "",
      "salt": "0xfd1643af82743ef2391cee6442d17243bebc419f86d18ca8140d4edc7c674e96",
      "assetIds": [
        "55464657044963196816950587289035428064568320970692304673817341489687933519876",
        "55464657044963196816950587289035428064568320970692304673817341489687933519880",
        "55464657044963196816950587289035428064568320970692304673817341489687933519882",
        "55464657044963196816950587289035428064568320970692304673817341489687933519886",
        "55464657044963196816950587289035428064568320970692304673817341489687933519883"
      ]
    },
    {
      "x": 8,
      "y": 61,
      "size": 1,
      "price": "4683000000000000000000",
      "reserved": "",
      "salt": "0xe3622ba5ecd924f6525d540e5bf425e252ce90bb1e6c9673adef7cffec919eb6",
      "assetIds": [
        "55464657044963196816950587289035428064568320970692304673817341489687933519876",
        "55464657044963196816950587289035428064568320970692304673817341489687933519880",
        "55464657044963196816950587289035428064568320970692304673817341489687933519882",
        "55464657044963196816950587289035428064568320970692304673817341489687933519886",
        "55464657044963196816950587289035428064568320970692304673817341489687933519883"
      ]
    },
    {
      "x": 8,
      "y": 62,
      "size": 1,
      "price": "4683000000000000000000",
      "reserved": "",
      "salt": "0x6774da1ee2e407e61fe7173d3f1a8ab06adfc1c28c4701c3424523b2552b4931",
      "assetIds": [
        "55464657044963196816950587289035428064568320970692304673817341489687933519876",
        "55464657044963196816950587289035428064568320970692304673817341489687933519880",
        "55464657044963196816950587289035428064568320970692304673817341489687933519882",
        "55464657044963196816950587289035428064568320970692304673817341489687933519886",
        "55464657044963196816950587289035428064568320970692304673817341489687933519883"
      ]
    },
    {
      "x": 8,
      "y": 63,
      "size": 1,
      "price": "4683000000000000000000",
      "reserved": "",
      "salt": "0xbedbf44fb2de36e049a7bb6f5b1b758efa32cdc92cc0d08087d65adeb3b2cfd9",
      "assetIds": [
        "55464657044963196816950587289035428064568320970692304673817341489687933519876",
        "55464657044963196816950587289035428064568320970692304673817341489687933519880",
        "55464657044963196816950587289035428064568320970692304673817341489687933519882",
        "55464657044963196816950587289035428064568320970692304673817341489687933519886",
        "55464657044963196816950587289035428064568320970692304673817341489687933519883"
      ]
    },
    {
      "x": 8,
      "y": 64,
      "size": 1,
      "price": "4683000000000000000000",
      "reserved": "",
      "salt": "0x3c92d749780b6c6b601946fe09e1ad596b17268f7b915313a33834ed8c05e374",
      "assetIds": [
        "55464657044963196816950587289035428064568320970692304673817341489687933519876",
        "55464657044963196816950587289035428064568320970692304673817341489687933519880",
        "55464657044963196816950587289035428064568320970692304673817341489687933519882",
        "55464657044963196816950587289035428064568320970692304673817341489687933519886",
        "55464657044963196816950587289035428064568320970692304673817341489687933519883"
      ]
    },
    {
      "x": 8,
      "y": 65,
      "size": 1,
      "price": "4683000000000000000000",
      "reserved": "",
      "salt": "0x6683a024c170e49d9ec49ae007a55ada517602c1e2af8e905244b228b545d5ac",
      "assetIds": [
        "55464657044963196816950587289035428064568320970692304673817341489687933519876",
        "55464657044963196816950587289035428064568320970692304673817341489687933519880",
        "55464657044963196816950587289035428064568320970692304673817341489687933519882",
        "55464657044963196816950587289035428064568320970692304673817341489687933519886",
        "55464657044963196816950587289035428064568320970692304673817341489687933519883"
      ]
    },
    {
      "x": 8,
      "y": 66,
      "size": 1,
      "price": "1011000000000000000000",
      "reserved": "",
      "salt": "0x5a8d602c9a465cad1408ccce0edcc11653bd55c81083d8837c2b1e6794a67c68",
      "assetIds": []
    },
    {
      "x": 8,
      "y": 67,
      "size": 1,
      "price": "1011000000000000000000",
      "reserved": "",
      "salt": "0xff8ddc985450354e9d90a505298a65b2d2de11f33af02e0dc9708105fbfd4caa",
      "assetIds": []
    },
    {
      "x": 8,
      "y": 68,
      "size": 1,
      "price": "1011000000000000000000",
      "reserved": "",
      "salt": "0x0e7116470920f04f14322dc4833fb358964d1b41c01a4c5303d19dfcf18bddbf",
      "assetIds": []
    },
    {
      "x": 8,
      "y": 69,
      "size": 1,
      "price": "1011000000000000000000",
      "reserved": "",
      "salt": "0x13d4f566e79e98ea4538a1b8738ec90e2d821ad90e613789daafdb954816ca77",
      "assetIds": []
    },
    {
      "x": 8,
      "y": 70,
      "size": 1,
      "price": "1011000000000000000000",
      "reserved": "",
      "salt": "0x41922cf9a9cf2b538e02b79c6e5ea1d6b39db6b923558351fc6aa3a6416043b7",
      "assetIds": []
    },
    {
      "x": 8,
      "y": 71,
      "size": 1,
      "price": "1011000000000000000000",
      "reserved": "",
      "salt": "0x4f13d0887799847e89d5bc8c0002c0c55cd2c4d4bffd0f0a5c24fd731df602f2",
      "assetIds": []
    },
    {
      "x": 8,
      "y": 84,
      "size": 1,
      "price": "1011000000000000000000",
      "reserved": "",
      "salt": "0x05525eff4fc81d886972d97dcf894368afb1906a44dc8d9008cb0c7d85a34dbe",
      "assetIds": []
    },
    {
      "x": 8,
      "y": 85,
      "size": 1,
      "price": "1011000000000000000000",
      "reserved": "",
      "salt": "0x43efceb41f674a71190585185389c1902e5a8ab8f0f3e0c72d9c0ce1c39775a0",
      "assetIds": []
    },
    {
      "x": 8,
      "y": 86,
      "size": 1,
      "price": "1011000000000000000000",
      "reserved": "",
      "salt": "0xa97b0ca286835ad69e69116a9e84be1b2669fa0788bf91984067ae42c9b7bf23",
      "assetIds": []
    },
    {
      "x": 8,
      "y": 87,
      "size": 1,
      "price": "1011000000000000000000",
      "reserved": "",
      "salt": "0x5b835c5f57b3b79fc1877bc476a683cf534aae716e8d3a129609b9407eeb4731",
      "assetIds": []
    },
    {
      "x": 8,
      "y": 88,
      "size": 1,
      "price": "1011000000000000000000",
      "reserved": "",
      "salt": "0xb06b8ecf04420eb4032ab462746aa95d1bd81b1673c1f79d9219a020edabc0b7",
      "assetIds": []
    },
    {
      "x": 8,
      "y": 89,
      "size": 1,
      "price": "1011000000000000000000",
      "reserved": "",
      "salt": "0x98b7549d1ea7001d7f90636cab5996874352a3ae5c898369854f48c9427c5d20",
      "assetIds": []
    },
    {
      "x": 8,
      "y": 90,
      "size": 1,
      "price": "1011000000000000000000",
      "reserved": "",
      "salt": "0xdf8cb282450c7d7d422891bd09a34837d65734afd47c891d626c6eceb367d067",
      "assetIds": []
    },
    {
      "x": 8,
      "y": 91,
      "size": 1,
      "price": "1011000000000000000000",
      "reserved": "",
      "salt": "0xa268ff36a476c0b0f2e2287471d26eca6505e90957b56502efa28f0e0f0609aa",
      "assetIds": []
    },
    {
      "x": 8,
      "y": 92,
      "size": 1,
      "price": "1011000000000000000000",
      "reserved": "",
      "salt": "0xfbd47e007c1e6240a4db51b047fb9cd42ed4ba0d0f1ab747e849141ec0681699",
      "assetIds": []
    },
    {
      "x": 8,
      "y": 93,
      "size": 1,
      "price": "1011000000000000000000",
      "reserved": "0x7a9fe22691c811ea339d9b73150e6911a5343dca",
      "salt": "0x466edb794a4758fbd5bc075cb1484996d97c6102790987cacf867509667d8c24",
      "assetIds": []
    },
    {
      "x": 8,
      "y": 94,
      "size": 1,
      "price": "1011000000000000000000",
      "reserved": "",
      "salt": "0x360e4303961785712b6b9ebd82f11d9b7b4ec24255730a0129789ab5c9370305",
      "assetIds": []
    },
    {
      "x": 8,
      "y": 95,
      "size": 1,
      "price": "1011000000000000000000",
      "reserved": "",
      "salt": "0xbb74d0dee2ebed1d12cfa4edd678962c151adb8bae3db86e3d4bdfe4ae49e4de",
      "assetIds": []
    },
    {
      "x": 9,
      "y": 40,
      "size": 1,
      "price": "1011000000000000000000",
      "reserved": "",
      "salt": "0x29ac7665a9ee96a26c9f1c46ac5c69393a17ecbfe2350ff0b2c2812337359c6d",
      "assetIds": []
    },
    {
      "x": 9,
      "y": 41,
      "size": 1,
      "price": "1011000000000000000000",
      "reserved": "",
      "salt": "0xef62efede4b05587a2c0abd6228361f944d192165e87d89c02aecfa6c76963c2",
      "assetIds": []
    },
    {
      "x": 9,
      "y": 45,
      "size": 1,
      "price": "1011000000000000000000",
      "reserved": "",
      "salt": "0xa4e6bb04339cc5f1df39129f6479c13a860ce20c285efa96ba9e8b1d4e22abc3",
      "assetIds": []
    },
    {
      "x": 9,
      "y": 46,
      "size": 1,
      "price": "1011000000000000000000",
      "reserved": "",
      "salt": "0x9a4efbe5a2e9acdab12ee5ac439d7f49317c315ff83107c25e41adae25c75a77",
      "assetIds": []
    },
    {
      "x": 9,
      "y": 47,
      "size": 1,
      "price": "1011000000000000000000",
      "reserved": "",
      "salt": "0x10cffa5a599e8b916fd1875295059a71b8736ea16ca5cbd31a3cd67d8322e90d",
      "assetIds": []
    },
    {
      "x": 9,
      "y": 48,
      "size": 1,
      "price": "1011000000000000000000",
      "reserved": "",
      "salt": "0x1f0ae88b82e1a1bdaf333671fa6581f2fd350e2bef8a26555b713089043709c3",
      "assetIds": []
    },
    {
      "x": 9,
      "y": 49,
      "size": 1,
      "price": "1011000000000000000000",
      "reserved": "",
      "salt": "0x2f203e69c719c667607c2c6b9489f7f94aab34d63cf588f58ff89242ada1459a",
      "assetIds": []
    },
    {
      "x": 9,
      "y": 50,
      "size": 1,
      "price": "1011000000000000000000",
      "reserved": "",
      "salt": "0xa6ef51338e04d4dfec99000b5b8e4baec3adf2779f4888ce3a85388f6e0e3275",
      "assetIds": []
    },
    {
      "x": 9,
      "y": 51,
      "size": 1,
      "price": "1011000000000000000000",
      "reserved": "",
      "salt": "0x90fb008eb7559fc9e809ddd7223c007aef44bf8a9b0d19aab3f4c589810fafde",
      "assetIds": []
    },
    {
      "x": 9,
      "y": 52,
      "size": 1,
      "price": "1011000000000000000000",
      "reserved": "",
      "salt": "0x09fcac9fb5addd307c65bb6adc04fc5eabf6ec594346ee20eda8fbb96e3126f4",
      "assetIds": []
    },
    {
      "x": 9,
      "y": 53,
      "size": 1,
      "price": "1011000000000000000000",
      "reserved": "",
      "salt": "0xaed83a593d6fb7dffecbeea24cd89032b03803dab49b07a8af24f469c0de0288",
      "assetIds": []
    },
    {
      "x": 9,
      "y": 60,
      "size": 1,
      "price": "4683000000000000000000",
      "reserved": "",
      "salt": "0x3b9a32db19c7c9a23c1fc73bd7114c01743eb5a57d4c79fd1a9e78a8a8c04e32",
      "assetIds": [
        "55464657044963196816950587289035428064568320970692304673817341489687933519876",
        "55464657044963196816950587289035428064568320970692304673817341489687933519880",
        "55464657044963196816950587289035428064568320970692304673817341489687933519882",
        "55464657044963196816950587289035428064568320970692304673817341489687933519886",
        "55464657044963196816950587289035428064568320970692304673817341489687933519883"
      ]
    },
    {
      "x": 9,
      "y": 61,
      "size": 1,
      "price": "4683000000000000000000",
      "reserved": "",
      "salt": "0x8be0dca1c0a7b87076976b315a58b6d9d7b304bbe669dcfeb83610832fc2cb5f",
      "assetIds": [
        "55464657044963196816950587289035428064568320970692304673817341489687933519876",
        "55464657044963196816950587289035428064568320970692304673817341489687933519880",
        "55464657044963196816950587289035428064568320970692304673817341489687933519882",
        "55464657044963196816950587289035428064568320970692304673817341489687933519886",
        "55464657044963196816950587289035428064568320970692304673817341489687933519883"
      ]
    },
    {
      "x": 9,
      "y": 62,
      "size": 1,
      "price": "4683000000000000000000",
      "reserved": "",
      "salt": "0x8f7e3860b9fe329a4244296a44d55036c6389932aeae37df06a0cf96cc3afe62",
      "assetIds": [
        "55464657044963196816950587289035428064568320970692304673817341489687933519876",
        "55464657044963196816950587289035428064568320970692304673817341489687933519880",
        "55464657044963196816950587289035428064568320970692304673817341489687933519882",
        "55464657044963196816950587289035428064568320970692304673817341489687933519886",
        "55464657044963196816950587289035428064568320970692304673817341489687933519883"
      ]
    },
    {
      "x": 9,
      "y": 63,
      "size": 1,
      "price": "1011000000000000000000",
      "reserved": "0x7a9fe22691c811ea339d9b73150e6911a5343dca",
      "salt": "0xc85ef5b9441e8f9c0dad3693da83685257c39c2aa1a0891645653ebb6da93581",
      "assetIds": []
    },
    {
      "x": 9,
      "y": 64,
      "size": 1,
      "price": "4683000000000000000000",
      "reserved": "",
      "salt": "0x5cab3f550f43859113f1286d59cf99900a594ba75b2eba888a84fd6f4b3b2f14",
      "assetIds": [
        "55464657044963196816950587289035428064568320970692304673817341489687933519876",
        "55464657044963196816950587289035428064568320970692304673817341489687933519880",
        "55464657044963196816950587289035428064568320970692304673817341489687933519882",
        "55464657044963196816950587289035428064568320970692304673817341489687933519886",
        "55464657044963196816950587289035428064568320970692304673817341489687933519883"
      ]
    },
    {
      "x": 9,
      "y": 65,
      "size": 1,
      "price": "4683000000000000000000",
      "reserved": "",
      "salt": "0x8dc94b6b146099ab40d9e042371d68dcc16794763141db75fd3880311c1c8579",
      "assetIds": [
        "55464657044963196816950587289035428064568320970692304673817341489687933519876",
        "55464657044963196816950587289035428064568320970692304673817341489687933519880",
        "55464657044963196816950587289035428064568320970692304673817341489687933519882",
        "55464657044963196816950587289035428064568320970692304673817341489687933519886",
        "55464657044963196816950587289035428064568320970692304673817341489687933519883"
      ]
    },
    {
      "x": 9,
      "y": 66,
      "size": 1,
      "price": "4683000000000000000000",
      "reserved": "",
      "salt": "0xf9486adfb81b2325f57a4f820f929f664081ad7de38b04e793d053e16b0e06ff",
      "assetIds": [
        "55464657044963196816950587289035428064568320970692304673817341489687933519876",
        "55464657044963196816950587289035428064568320970692304673817341489687933519880",
        "55464657044963196816950587289035428064568320970692304673817341489687933519882",
        "55464657044963196816950587289035428064568320970692304673817341489687933519886",
        "55464657044963196816950587289035428064568320970692304673817341489687933519883"
      ]
    },
    {
      "x": 9,
      "y": 67,
      "size": 1,
      "price": "1011000000000000000000",
      "reserved": "",
      "salt": "0x057cac8b73adf426943b935794cc67adb27e5bbce830a1324380a7c8e612b325",
      "assetIds": []
    },
    {
      "x": 9,
      "y": 68,
      "size": 1,
      "price": "1011000000000000000000",
      "reserved": "0x7a9fe22691c811ea339d9b73150e6911a5343dca",
      "salt": "0x13d8222549a2d67b77bd25dd9f76eb7bd232289de1c989babeb9758787eb1180",
      "assetIds": []
    },
    {
      "x": 9,
      "y": 69,
      "size": 1,
      "price": "1011000000000000000000",
      "reserved": "",
      "salt": "0xeb532ed671d092c4c5eebb833f6d62ee1ff18a45395e1b036c54dde067656bbf",
      "assetIds": []
    },
    {
      "x": 9,
      "y": 70,
      "size": 1,
      "price": "1011000000000000000000",
      "reserved": "",
      "salt": "0x3d82a0f461ee4ed5ebf733aaacc0ae31d4995efb0b09a4f8c5014ea9e07f414d",
      "assetIds": []
    },
    {
      "x": 9,
      "y": 71,
      "size": 1,
      "price": "1011000000000000000000",
      "reserved": "",
      "salt": "0x05a90127c00da800ceda4a2a461bbf485ce16d3fee8abe57c12684a2c7c9b87a",
      "assetIds": []
    },
    {
      "x": 9,
      "y": 90,
      "size": 1,
      "price": "1011000000000000000000",
      "reserved": "",
      "salt": "0x52ba43c4bef8973c7472e189f582ae7b5f6a51ee7567351937ccdc60a089862a",
      "assetIds": []
    },
    {
      "x": 9,
      "y": 91,
      "size": 1,
      "price": "1011000000000000000000",
      "reserved": "",
      "salt": "0x3332cea7a67be3e21f8ca8160656793e9c32373c9af32e8260f3276b1fb37cd5",
      "assetIds": []
    },
    {
      "x": 9,
      "y": 92,
      "size": 1,
      "price": "1011000000000000000000",
      "reserved": "",
      "salt": "0xf161d349c67f34357bee4ec533f0aa0193c0fd307309fde8b08734304b80fd0c",
      "assetIds": []
    },
    {
      "x": 9,
      "y": 93,
      "size": 1,
      "price": "1011000000000000000000",
      "reserved": "",
      "salt": "0x80cef664ba5058c06d7b6587dfee433d6af35b00b7c6d5e60ddf678fbf4a6d2c",
      "assetIds": []
    },
    {
      "x": 9,
      "y": 94,
      "size": 1,
      "price": "1011000000000000000000",
      "reserved": "",
      "salt": "0x715a784968890fc48ca11f7a08aa13e32d2db405f54b19d7cc44f003b5410fc5",
      "assetIds": []
    },
    {
      "x": 9,
      "y": 95,
      "size": 1,
      "price": "1011000000000000000000",
      "reserved": "0x7a9fe22691c811ea339d9b73150e6911a5343dca",
      "salt": "0xa3e1dd03ab1796ec7bead9247eb671ef095b25647f37406204202d374767a0e2",
      "assetIds": []
    },
    {
      "x": 10,
      "y": 39,
      "size": 1,
      "price": "1011000000000000000000",
      "reserved": "0x7a9fe22691c811ea339d9b73150e6911a5343dca",
      "salt": "0xcc02e919c42ee553e3c60225b3b2231147d84d92dc22e4ab1b3ae52e169c1f2f",
      "assetIds": []
    },
    {
      "x": 10,
      "y": 40,
      "size": 1,
      "price": "1011000000000000000000",
      "reserved": "",
      "salt": "0x8e3730c4badd314005c47b174d0e441eccd5d9ddde189fdf8de26be992936da6",
      "assetIds": []
    },
    {
      "x": 10,
      "y": 41,
      "size": 1,
      "price": "1011000000000000000000",
      "reserved": "",
      "salt": "0x9b478a056a1574974d4462aa91ef44bf66f6eaed6c73298f005936419479c6ac",
      "assetIds": []
    },
    {
      "x": 10,
      "y": 45,
      "size": 1,
      "price": "1011000000000000000000",
      "reserved": "",
      "salt": "0xa4176be90ff2890421c545a40c2cd9281cb66027df3c42ab95ad59e4c8ab758c",
      "assetIds": []
    },
    {
      "x": 10,
      "y": 46,
      "size": 1,
      "price": "1011000000000000000000",
      "reserved": "",
      "salt": "0x296b3873e73c60dcb0a02081cc550b46eb3fa4fbd1d6244911858eb18b2983af",
      "assetIds": []
    },
    {
      "x": 10,
      "y": 47,
      "size": 1,
      "price": "1011000000000000000000",
      "reserved": "",
      "salt": "0x97e71859658f1b147b85dce2fe4a88e17c07fe7cbb7e33adc037339a4a319963",
      "assetIds": []
    },
    {
      "x": 10,
      "y": 48,
      "size": 1,
      "price": "1011000000000000000000",
      "reserved": "",
      "salt": "0xdde28a65b49845b3a880034249953913022884b2991c34136d539e48da71f973",
      "assetIds": []
    },
    {
      "x": 10,
      "y": 49,
      "size": 1,
      "price": "1011000000000000000000",
      "reserved": "0x7a9fe22691c811ea339d9b73150e6911a5343dca",
      "salt": "0xb6df1d3f077009ddcba7fa2ddcef6a937d62f7c505fc1380f45ce9f77ef8db31",
      "assetIds": []
    },
    {
      "x": 10,
      "y": 50,
      "size": 1,
      "price": "1011000000000000000000",
      "reserved": "",
      "salt": "0xaf834bf134f8603a9340d491858f838ff8145acfdfce13a1fb090076929718af",
      "assetIds": []
    },
    {
      "x": 10,
      "y": 51,
      "size": 1,
      "price": "1011000000000000000000",
      "reserved": "",
      "salt": "0xde2ae70578790cecc6ccaf2bde1300309e8ee50964bd139894a8bb066ec6b957",
      "assetIds": []
    },
    {
      "x": 10,
      "y": 52,
      "size": 1,
      "price": "1011000000000000000000",
      "reserved": "0x7a9fe22691c811ea339d9b73150e6911a5343dca",
      "salt": "0x77743d2b10070d67aaa4042fb496b9cac4d46f455c6d0966666b708ba7281bdd",
      "assetIds": []
    },
    {
      "x": 10,
      "y": 53,
      "size": 1,
      "price": "1011000000000000000000",
      "reserved": "",
      "salt": "0x9a337a69a795619f0c7156db71dc1d623a0961a04fbdffd4ccb449602bd9bad5",
      "assetIds": []
    },
    {
      "x": 10,
      "y": 60,
      "size": 1,
      "price": "4683000000000000000000",
      "reserved": "",
      "salt": "0x454d4f8536b8ef55431a61b845ff34c31c4263d40c39d8307ec45c9ba7af6365",
      "assetIds": [
        "55464657044963196816950587289035428064568320970692304673817341489687933519876",
        "55464657044963196816950587289035428064568320970692304673817341489687933519880",
        "55464657044963196816950587289035428064568320970692304673817341489687933519882",
        "55464657044963196816950587289035428064568320970692304673817341489687933519886",
        "55464657044963196816950587289035428064568320970692304673817341489687933519883"
      ]
    },
    {
      "x": 10,
      "y": 61,
      "size": 1,
      "price": "4683000000000000000000",
      "reserved": "",
      "salt": "0xd852646c16e839a0e2fceba86ce950ac42a80771137834f1448ea646865dd73b",
      "assetIds": [
        "55464657044963196816950587289035428064568320970692304673817341489687933519876",
        "55464657044963196816950587289035428064568320970692304673817341489687933519880",
        "55464657044963196816950587289035428064568320970692304673817341489687933519882",
        "55464657044963196816950587289035428064568320970692304673817341489687933519886",
        "55464657044963196816950587289035428064568320970692304673817341489687933519883"
      ]
    },
    {
      "x": 10,
      "y": 62,
      "size": 1,
      "price": "4683000000000000000000",
      "reserved": "",
      "salt": "0x289bad57f90bda032496ee61f805997f616312f4d1cabc45056575a10ed78fbe",
      "assetIds": [
        "55464657044963196816950587289035428064568320970692304673817341489687933519876",
        "55464657044963196816950587289035428064568320970692304673817341489687933519880",
        "55464657044963196816950587289035428064568320970692304673817341489687933519882",
        "55464657044963196816950587289035428064568320970692304673817341489687933519886",
        "55464657044963196816950587289035428064568320970692304673817341489687933519883"
      ]
    },
    {
      "x": 10,
      "y": 63,
      "size": 1,
      "price": "4683000000000000000000",
      "reserved": "",
      "salt": "0x3f5d7375f690d1c0f0d609e81a613d96b1dbb58cee8ba6ff5179e6c0122b702a",
      "assetIds": [
        "55464657044963196816950587289035428064568320970692304673817341489687933519876",
        "55464657044963196816950587289035428064568320970692304673817341489687933519880",
        "55464657044963196816950587289035428064568320970692304673817341489687933519882",
        "55464657044963196816950587289035428064568320970692304673817341489687933519886",
        "55464657044963196816950587289035428064568320970692304673817341489687933519883"
      ]
    },
    {
      "x": 10,
      "y": 64,
      "size": 1,
      "price": "4683000000000000000000",
      "reserved": "",
      "salt": "0x7b9cfafcc1c75d4b9b51849f4cd862e0b1aad129e70541b9ba1c1955184cf542",
      "assetIds": [
        "55464657044963196816950587289035428064568320970692304673817341489687933519876",
        "55464657044963196816950587289035428064568320970692304673817341489687933519880",
        "55464657044963196816950587289035428064568320970692304673817341489687933519882",
        "55464657044963196816950587289035428064568320970692304673817341489687933519886",
        "55464657044963196816950587289035428064568320970692304673817341489687933519883"
      ]
    },
    {
      "x": 10,
      "y": 65,
      "size": 1,
      "price": "4683000000000000000000",
      "reserved": "",
      "salt": "0x169946e449328d44159c95bd7ee6d5521756683dcef6416038228cb7aa967276",
      "assetIds": [
        "55464657044963196816950587289035428064568320970692304673817341489687933519876",
        "55464657044963196816950587289035428064568320970692304673817341489687933519880",
        "55464657044963196816950587289035428064568320970692304673817341489687933519882",
        "55464657044963196816950587289035428064568320970692304673817341489687933519886",
        "55464657044963196816950587289035428064568320970692304673817341489687933519883"
      ]
    },
    {
      "x": 10,
      "y": 66,
      "size": 1,
      "price": "4683000000000000000000",
      "reserved": "",
      "salt": "0xa0bf9a54366748387a82cac6c9bbd1da47c30956472df013bfe59bd653ee7fec",
      "assetIds": [
        "55464657044963196816950587289035428064568320970692304673817341489687933519876",
        "55464657044963196816950587289035428064568320970692304673817341489687933519880",
        "55464657044963196816950587289035428064568320970692304673817341489687933519882",
        "55464657044963196816950587289035428064568320970692304673817341489687933519886",
        "55464657044963196816950587289035428064568320970692304673817341489687933519883"
      ]
    },
    {
      "x": 10,
      "y": 67,
      "size": 1,
      "price": "1011000000000000000000",
      "reserved": "",
      "salt": "0x0ad4c3f1d7fb19995ed9816a43650924b98140b8d5df1bb2482f07903c7e4476",
      "assetIds": []
    },
    {
      "x": 10,
      "y": 68,
      "size": 1,
      "price": "1011000000000000000000",
      "reserved": "",
      "salt": "0xe7138f12c3121365355671dc0e6c4a84d2eed9a9dcebe000ebcd918b8202b78d",
      "assetIds": []
    },
    {
      "x": 10,
      "y": 69,
      "size": 1,
      "price": "1011000000000000000000",
      "reserved": "",
      "salt": "0xcbbd04ca26d20f0f2b13b4e7d06a2edca5a7ebbd9003cc22066cf7fea5cacbd8",
      "assetIds": []
    },
    {
      "x": 10,
      "y": 70,
      "size": 1,
      "price": "1011000000000000000000",
      "reserved": "",
      "salt": "0x8b86a91400528894f7e67dc403d0bc5e4571e2489399b15335818e379010fd0a",
      "assetIds": []
    },
    {
      "x": 10,
      "y": 71,
      "size": 1,
      "price": "1011000000000000000000",
      "reserved": "",
      "salt": "0xd29937dba196af20499ca54d0a8e6ab223df450ef50b3de1394f20a85b873ac1",
      "assetIds": []
    },
    {
      "x": 10,
      "y": 90,
      "size": 1,
      "price": "1011000000000000000000",
      "reserved": "",
      "salt": "0xee75852d2145f050ff47a48f1822aa3c8705ab5a95b0a5ca7469fdd64c6e17af",
      "assetIds": []
    },
    {
      "x": 10,
      "y": 91,
      "size": 1,
      "price": "1011000000000000000000",
      "reserved": "",
      "salt": "0x2685a4303f871d0248776a6c15352cd70929c79def7ae34878163df729567126",
      "assetIds": []
    },
    {
      "x": 10,
      "y": 92,
      "size": 1,
      "price": "1011000000000000000000",
      "reserved": "",
      "salt": "0x897b9fadbec320b3ddef9822bbc16699ceb7b4358f9a1058093fa212e7e3e05e",
      "assetIds": []
    },
    {
      "x": 10,
      "y": 93,
      "size": 1,
      "price": "1011000000000000000000",
      "reserved": "",
      "salt": "0x753b6f215fd45ef6af4c5860fc5632a6ce376607e97446a41438be1f5a64b49f",
      "assetIds": []
    },
    {
      "x": 10,
      "y": 94,
      "size": 1,
      "price": "1011000000000000000000",
      "reserved": "",
      "salt": "0xddeb4e69d92233b493e7983c47802d6ee43626f3475ca56bcd92d4fd338d6316",
      "assetIds": []
    },
    {
      "x": 10,
      "y": 95,
      "size": 1,
      "price": "1011000000000000000000",
      "reserved": "",
      "salt": "0x0b645f745ab8cfc064248e32a6f8b3743f16911b6b1d540b3477f636a40303c4",
      "assetIds": []
    },
    {
      "x": 11,
      "y": 39,
      "size": 1,
      "price": "1011000000000000000000",
      "reserved": "0x7a9fe22691c811ea339d9b73150e6911a5343dca",
      "salt": "0x3204026cb2fec046a7ce279b550bbea56c102a9311c26e5afa15c0b6c2c0784f",
      "assetIds": []
    },
    {
      "x": 11,
      "y": 40,
      "size": 1,
      "price": "1011000000000000000000",
      "reserved": "",
      "salt": "0xd544ae65020efc2658a69595ca0a39fcaf2173b1286e2cf9a66ce0a04ff7d528",
      "assetIds": []
    },
    {
      "x": 11,
      "y": 41,
      "size": 1,
      "price": "1011000000000000000000",
      "reserved": "",
      "salt": "0xa989346ae3ac964c6d909498203749b89803f1a7003477bd335cac682774b196",
      "assetIds": []
    },
    {
      "x": 11,
      "y": 45,
      "size": 1,
      "price": "1011000000000000000000",
      "reserved": "",
      "salt": "0x3f0c6f3eb7c88ac816b89d2d14ed5f811e3fe804b382c44291b9c3c257b60728",
      "assetIds": []
    },
    {
      "x": 11,
      "y": 46,
      "size": 1,
      "price": "1011000000000000000000",
      "reserved": "",
      "salt": "0xcf5ec04b6f0246b9e1f5a4891acd36f612b439b60ca6fe1f2c1328c2112d7119",
      "assetIds": []
    },
    {
      "x": 11,
      "y": 47,
      "size": 1,
      "price": "1011000000000000000000",
      "reserved": "",
      "salt": "0x5b8426285ad4c88b37c5bac567ec7a7003a0ac6808c15dd02af0af568fa0e9e0",
      "assetIds": []
    },
    {
      "x": 11,
      "y": 48,
      "size": 1,
      "price": "1011000000000000000000",
      "reserved": "",
      "salt": "0x0b18d79980bf8f53db46af5a8023b884c16ed2d34bab152267d99a5996a83a0d",
      "assetIds": []
    },
    {
      "x": 11,
      "y": 49,
      "size": 1,
      "price": "1011000000000000000000",
      "reserved": "",
      "salt": "0x77572fc0b025fdcc9f017e833ce3d5c052c106206b5785923f8cd923f47fd114",
      "assetIds": []
    },
    {
      "x": 11,
      "y": 50,
      "size": 1,
      "price": "1011000000000000000000",
      "reserved": "",
      "salt": "0x93e44189d9614d4d1f0436c460a3c25ff5861ac1f1a91be517c2265e5138999b",
      "assetIds": []
    },
    {
      "x": 11,
      "y": 51,
      "size": 1,
      "price": "1011000000000000000000",
      "reserved": "",
      "salt": "0x911450b6100698c971c95af8e55ddf2006f25fea0e0feeaf2e3a15cfa123651f",
      "assetIds": []
    },
    {
      "x": 11,
      "y": 52,
      "size": 1,
      "price": "4683000000000000000000",
      "reserved": "",
      "salt": "0x85075157ed51f0ceafe44ae1e7e625e4aa91d462a2c710c3f19e5aa31ea1fbe2",
      "assetIds": [
        "55464657044963196816950587289035428064568320970692304673817341489687933519876",
        "55464657044963196816950587289035428064568320970692304673817341489687933519880",
        "55464657044963196816950587289035428064568320970692304673817341489687933519882",
        "55464657044963196816950587289035428064568320970692304673817341489687933519886",
        "55464657044963196816950587289035428064568320970692304673817341489687933519883"
      ]
    },
    {
      "x": 11,
      "y": 53,
      "size": 1,
      "price": "4683000000000000000000",
      "reserved": "",
      "salt": "0xd6d92e143448e902b78857af7cf635aa1efa20eea4baf0f7fbb4cb71a72ff400",
      "assetIds": [
        "55464657044963196816950587289035428064568320970692304673817341489687933519876",
        "55464657044963196816950587289035428064568320970692304673817341489687933519880",
        "55464657044963196816950587289035428064568320970692304673817341489687933519882",
        "55464657044963196816950587289035428064568320970692304673817341489687933519886",
        "55464657044963196816950587289035428064568320970692304673817341489687933519883"
      ]
    },
    {
      "x": 11,
      "y": 60,
      "size": 1,
      "price": "4683000000000000000000",
      "reserved": "",
      "salt": "0x844f3fac47da7127c4c3e41eb1b230f386e7ad2b3808bc096f563355de15392d",
      "assetIds": [
        "55464657044963196816950587289035428064568320970692304673817341489687933519876",
        "55464657044963196816950587289035428064568320970692304673817341489687933519880",
        "55464657044963196816950587289035428064568320970692304673817341489687933519882",
        "55464657044963196816950587289035428064568320970692304673817341489687933519886",
        "55464657044963196816950587289035428064568320970692304673817341489687933519883"
      ]
    },
    {
      "x": 11,
      "y": 61,
      "size": 1,
      "price": "4683000000000000000000",
      "reserved": "",
      "salt": "0x95ce2c6d8509c2417b0e1583d55428cd8e2aeb77cac2c959f803de09d409a6b5",
      "assetIds": [
        "55464657044963196816950587289035428064568320970692304673817341489687933519876",
        "55464657044963196816950587289035428064568320970692304673817341489687933519880",
        "55464657044963196816950587289035428064568320970692304673817341489687933519882",
        "55464657044963196816950587289035428064568320970692304673817341489687933519886",
        "55464657044963196816950587289035428064568320970692304673817341489687933519883"
      ]
    },
    {
      "x": 11,
      "y": 62,
      "size": 1,
      "price": "4683000000000000000000",
      "reserved": "",
      "salt": "0x45dcc92c9bdffae250e5a128ddb4dc4685b31e484decd8c340984af8165687d6",
      "assetIds": [
        "55464657044963196816950587289035428064568320970692304673817341489687933519876",
        "55464657044963196816950587289035428064568320970692304673817341489687933519880",
        "55464657044963196816950587289035428064568320970692304673817341489687933519882",
        "55464657044963196816950587289035428064568320970692304673817341489687933519886",
        "55464657044963196816950587289035428064568320970692304673817341489687933519883"
      ]
    },
    {
      "x": 11,
      "y": 63,
      "size": 1,
      "price": "4683000000000000000000",
      "reserved": "",
      "salt": "0x6dcf9066303c7db203413bb27cff2b2200f66f654b98a4c520b0a6a590023ea6",
      "assetIds": [
        "55464657044963196816950587289035428064568320970692304673817341489687933519876",
        "55464657044963196816950587289035428064568320970692304673817341489687933519880",
        "55464657044963196816950587289035428064568320970692304673817341489687933519882",
        "55464657044963196816950587289035428064568320970692304673817341489687933519886",
        "55464657044963196816950587289035428064568320970692304673817341489687933519883"
      ]
    },
    {
      "x": 11,
      "y": 64,
      "size": 1,
      "price": "4683000000000000000000",
      "reserved": "",
      "salt": "0x527d03f45dfb3eb073ba8c742f5d81e7c86abb4e6c7acc6083444712c16d8d4f",
      "assetIds": [
        "55464657044963196816950587289035428064568320970692304673817341489687933519876",
        "55464657044963196816950587289035428064568320970692304673817341489687933519880",
        "55464657044963196816950587289035428064568320970692304673817341489687933519882",
        "55464657044963196816950587289035428064568320970692304673817341489687933519886",
        "55464657044963196816950587289035428064568320970692304673817341489687933519883"
      ]
    },
    {
      "x": 11,
      "y": 65,
      "size": 1,
      "price": "4683000000000000000000",
      "reserved": "",
      "salt": "0xddde5a8c46e36a9a9978731602f0e2cdafdf69a6e8cb9923dcac0cb81b7cdc8c",
      "assetIds": [
        "55464657044963196816950587289035428064568320970692304673817341489687933519876",
        "55464657044963196816950587289035428064568320970692304673817341489687933519880",
        "55464657044963196816950587289035428064568320970692304673817341489687933519882",
        "55464657044963196816950587289035428064568320970692304673817341489687933519886",
        "55464657044963196816950587289035428064568320970692304673817341489687933519883"
      ]
    },
    {
      "x": 11,
      "y": 66,
      "size": 1,
      "price": "1011000000000000000000",
      "reserved": "0x7a9fe22691c811ea339d9b73150e6911a5343dca",
      "salt": "0x9896fbbe59433e3a6bbb5cbd60f5862880f47a4a21d4b5791a48337626de5964",
      "assetIds": []
    },
    {
      "x": 11,
      "y": 67,
      "size": 1,
      "price": "1011000000000000000000",
      "reserved": "",
      "salt": "0xbe96a12977581543ac1e26b71885042ecbd5d5a5e6baa4501e64e45bffe42921",
      "assetIds": []
    },
    {
      "x": 11,
      "y": 68,
      "size": 1,
      "price": "1011000000000000000000",
      "reserved": "",
      "salt": "0x389a577212d197dc8548cd5f9ed88b2a40227ed1df4c3c02ab0a26a9e0b07e56",
      "assetIds": []
    },
    {
      "x": 11,
      "y": 69,
      "size": 1,
      "price": "1011000000000000000000",
      "reserved": "",
      "salt": "0x93c77132bd21ca83c0b586e909aed503cec3ad16cfabcb1dc1f0e531a6e0af4f",
      "assetIds": []
    },
    {
      "x": 11,
      "y": 70,
      "size": 1,
      "price": "1011000000000000000000",
      "reserved": "",
      "salt": "0xf61c5902945d29ed248e32711a7bc1fb6a68bb7d7d69e5df9b52bd62f19bf3f7",
      "assetIds": []
    },
    {
      "x": 11,
      "y": 71,
      "size": 1,
      "price": "1011000000000000000000",
      "reserved": "",
      "salt": "0x5d7b67677619b8b46c028941c619012f8204c3069a029a7e57c90db2be0c2218",
      "assetIds": []
    },
    {
      "x": 11,
      "y": 90,
      "size": 1,
      "price": "1011000000000000000000",
      "reserved": "",
      "salt": "0xcb0958372890e73ef5177e0cf9b1a0834d768a65462ade38bd19e25fb4012918",
      "assetIds": []
    },
    {
      "x": 11,
      "y": 91,
      "size": 1,
      "price": "1011000000000000000000",
      "reserved": "",
      "salt": "0x8ce1e2d64439a888bab36e97d26b1345c51a5807789aa6ecc7a61d1e085dcd6b",
      "assetIds": []
    },
    {
      "x": 11,
      "y": 92,
      "size": 1,
      "price": "1011000000000000000000",
      "reserved": "",
      "salt": "0x0fc879fd166886eee9f1fd5369ca42fc16fbc117df02573ec4e1df6c330eff8b",
      "assetIds": []
    },
    {
      "x": 11,
      "y": 93,
      "size": 1,
      "price": "1011000000000000000000",
      "reserved": "",
      "salt": "0xf48c872b6da6915a2a256b431dc94c09c3612fff9e5ab236e8e82ae6b55fae03",
      "assetIds": []
    },
    {
      "x": 11,
      "y": 94,
      "size": 1,
      "price": "1011000000000000000000",
      "reserved": "",
      "salt": "0xadd60c1046a6e722f0cc13e825b26437f1b04b109f4e5be3fb5468504f43815c",
      "assetIds": []
    },
    {
      "x": 11,
      "y": 95,
      "size": 1,
      "price": "1011000000000000000000",
      "reserved": "0x7a9fe22691c811ea339d9b73150e6911a5343dca",
      "salt": "0xb17c73cf67fee6bc91b9f7b8af59c11a975a67a5fea47d816dd629347904eb66",
      "assetIds": []
    },
    {
      "x": 12,
      "y": 39,
      "size": 1,
      "price": "1011000000000000000000",
      "reserved": "0x7a9fe22691c811ea339d9b73150e6911a5343dca",
      "salt": "0x75d500d61e8cefd8c726422aaaa820c2fa8ac14b396c10825ba24d45dadc5b2c",
      "assetIds": []
    },
    {
      "x": 12,
      "y": 40,
      "size": 1,
      "price": "1011000000000000000000",
      "reserved": "",
      "salt": "0xf6207d128f7de48be1e3387fa44c5b5e3c078a7893d0f74706d41ded3bffad1a",
      "assetIds": []
    },
    {
      "x": 12,
      "y": 41,
      "size": 1,
      "price": "1011000000000000000000",
      "reserved": "",
      "salt": "0xe2f4ae58cf552f81ce7a2f6eee10f2998080bbaed94d174cb2f04bb5187426fe",
      "assetIds": []
    },
    {
      "x": 12,
      "y": 42,
      "size": 1,
      "price": "1011000000000000000000",
      "reserved": "",
      "salt": "0xc9106f5c061525bfbb7910ff391069a0cb395b7385be0768ec1572a418fe21f7",
      "assetIds": []
    },
    {
      "x": 12,
      "y": 43,
      "size": 1,
      "price": "1011000000000000000000",
      "reserved": "",
      "salt": "0x9cc81572d7a48525b226abbdf1a750cfe34d05ef47fac06c30ee696dc6c4abe6",
      "assetIds": []
    },
    {
      "x": 12,
      "y": 44,
      "size": 1,
      "price": "1011000000000000000000",
      "reserved": "0x7a9fe22691c811ea339d9b73150e6911a5343dca",
      "salt": "0x5edcb65442c037ac695497be5532682ef2ea07fec5c76833ce4d4e3ad7fe97c2",
      "assetIds": []
    },
    {
      "x": 12,
      "y": 45,
      "size": 1,
      "price": "1011000000000000000000",
      "reserved": "",
      "salt": "0x7fc099a9f589e3e2579a93119759cf6494760a1ec6ba9635ea961ff083e9d511",
      "assetIds": []
    },
    {
      "x": 12,
      "y": 46,
      "size": 1,
      "price": "1011000000000000000000",
      "reserved": "",
      "salt": "0xff062280668129b1c34b9c029c1cb5c3ec5886c72df2333f0707e90a94e5fd60",
      "assetIds": []
    },
    {
      "x": 12,
      "y": 47,
      "size": 1,
      "price": "1011000000000000000000",
      "reserved": "0x7a9fe22691c811ea339d9b73150e6911a5343dca",
      "salt": "0x2780d753d4543308e7b58118322a6fb8de1eb6d9224c8369a91e7fa71c843eaa",
      "assetIds": []
    },
    {
      "x": 12,
      "y": 48,
      "size": 1,
      "price": "1011000000000000000000",
      "reserved": "",
      "salt": "0xbac5f31948886adf6fddb58c0de4cdbe83ba6bfd97cdd71ea1a44f29fd54309a",
      "assetIds": []
    },
    {
      "x": 12,
      "y": 49,
      "size": 1,
      "price": "1011000000000000000000",
      "reserved": "0x7a9fe22691c811ea339d9b73150e6911a5343dca",
      "salt": "0xa1dc1524c045a7308039fa155a5bbd0f447d27e8a1bdd65b3259439804cc3c67",
      "assetIds": []
    },
    {
      "x": 12,
      "y": 50,
      "size": 1,
      "price": "1011000000000000000000",
      "reserved": "",
      "salt": "0xe91063082b416dc9deb91cd7e6dc467f7f58f55c0bd70e1ac44a96ebaf6a9818",
      "assetIds": []
    },
    {
      "x": 12,
      "y": 51,
      "size": 1,
      "price": "1011000000000000000000",
      "reserved": "0x7a9fe22691c811ea339d9b73150e6911a5343dca",
      "salt": "0x82d845a37f000bd4b2a132c5ca48cd3f57c941b57654e899d2b2dab980c769df",
      "assetIds": []
    },
    {
      "x": 12,
      "y": 52,
      "size": 1,
      "price": "4683000000000000000000",
      "reserved": "",
      "salt": "0x75eccb0f8c623501f980bc1d3012190164fdc5b4205607f28a84cb1caf311b8d",
      "assetIds": [
        "55464657044963196816950587289035428064568320970692304673817341489687933519876",
        "55464657044963196816950587289035428064568320970692304673817341489687933519880",
        "55464657044963196816950587289035428064568320970692304673817341489687933519882",
        "55464657044963196816950587289035428064568320970692304673817341489687933519886",
        "55464657044963196816950587289035428064568320970692304673817341489687933519883"
      ]
    },
    {
      "x": 12,
      "y": 53,
      "size": 1,
      "price": "4683000000000000000000",
      "reserved": "",
      "salt": "0x3028897d638bafb245fc0ae4a31529d617409904fe77096bbe8b084866c4eb85",
      "assetIds": [
        "55464657044963196816950587289035428064568320970692304673817341489687933519876",
        "55464657044963196816950587289035428064568320970692304673817341489687933519880",
        "55464657044963196816950587289035428064568320970692304673817341489687933519882",
        "55464657044963196816950587289035428064568320970692304673817341489687933519886",
        "55464657044963196816950587289035428064568320970692304673817341489687933519883"
      ]
    },
    {
      "x": 12,
      "y": 54,
      "size": 1,
      "price": "4683000000000000000000",
      "reserved": "",
      "salt": "0x5686a3d213a6317dfe4c5d82243ca65ea32016ca6d7d3aa4d04080fe70d31746",
      "assetIds": [
        "55464657044963196816950587289035428064568320970692304673817341489687933519876",
        "55464657044963196816950587289035428064568320970692304673817341489687933519880",
        "55464657044963196816950587289035428064568320970692304673817341489687933519882",
        "55464657044963196816950587289035428064568320970692304673817341489687933519886",
        "55464657044963196816950587289035428064568320970692304673817341489687933519883"
      ]
    },
    {
      "x": 12,
      "y": 55,
      "size": 1,
      "price": "4683000000000000000000",
      "reserved": "",
      "salt": "0x5946faf8f9e60f4fe56670a1904e5bb1f14bce0e4dbb141ae3a38bc5248d1bad",
      "assetIds": [
        "55464657044963196816950587289035428064568320970692304673817341489687933519876",
        "55464657044963196816950587289035428064568320970692304673817341489687933519880",
        "55464657044963196816950587289035428064568320970692304673817341489687933519882",
        "55464657044963196816950587289035428064568320970692304673817341489687933519886",
        "55464657044963196816950587289035428064568320970692304673817341489687933519883"
      ]
    },
    {
      "x": 12,
      "y": 56,
      "size": 1,
      "price": "4683000000000000000000",
      "reserved": "",
      "salt": "0x2447daaec83ecec44ff576554a36af7df741f8ca1cd9ee3a4e53eb6f881bf516",
      "assetIds": [
        "55464657044963196816950587289035428064568320970692304673817341489687933519876",
        "55464657044963196816950587289035428064568320970692304673817341489687933519880",
        "55464657044963196816950587289035428064568320970692304673817341489687933519882",
        "55464657044963196816950587289035428064568320970692304673817341489687933519886",
        "55464657044963196816950587289035428064568320970692304673817341489687933519883"
      ]
    },
    {
      "x": 12,
      "y": 63,
      "size": 1,
      "price": "4683000000000000000000",
      "reserved": "",
      "salt": "0x3e2f441f4b0337c91ed0e1b91dd782513f28e285b318875e8fcb23c3c1b49a38",
      "assetIds": [
        "55464657044963196816950587289035428064568320970692304673817341489687933519876",
        "55464657044963196816950587289035428064568320970692304673817341489687933519880",
        "55464657044963196816950587289035428064568320970692304673817341489687933519882",
        "55464657044963196816950587289035428064568320970692304673817341489687933519886",
        "55464657044963196816950587289035428064568320970692304673817341489687933519883"
      ]
    },
    {
      "x": 12,
      "y": 64,
      "size": 1,
      "price": "4683000000000000000000",
      "reserved": "",
      "salt": "0x3fe18dee0553a586ffe152d3aeb4cc1ee04a294a13947fa8e4ec4a1355f2303a",
      "assetIds": [
        "55464657044963196816950587289035428064568320970692304673817341489687933519876",
        "55464657044963196816950587289035428064568320970692304673817341489687933519880",
        "55464657044963196816950587289035428064568320970692304673817341489687933519882",
        "55464657044963196816950587289035428064568320970692304673817341489687933519886",
        "55464657044963196816950587289035428064568320970692304673817341489687933519883"
      ]
    },
    {
      "x": 12,
      "y": 65,
      "size": 1,
      "price": "4683000000000000000000",
      "reserved": "",
      "salt": "0xfc10356df146e0c29e67029029cff681c74e791b99f1540e8d470f9e12ac47ea",
      "assetIds": [
        "55464657044963196816950587289035428064568320970692304673817341489687933519876",
        "55464657044963196816950587289035428064568320970692304673817341489687933519880",
        "55464657044963196816950587289035428064568320970692304673817341489687933519882",
        "55464657044963196816950587289035428064568320970692304673817341489687933519886",
        "55464657044963196816950587289035428064568320970692304673817341489687933519883"
      ]
    },
    {
      "x": 12,
      "y": 66,
      "size": 1,
      "price": "4683000000000000000000",
      "reserved": "",
      "salt": "0x7d162cd91a9b71c07663c7987798b2b0c7b10f74d39a01633e3e7f81a8f04c9d",
      "assetIds": [
        "55464657044963196816950587289035428064568320970692304673817341489687933519876",
        "55464657044963196816950587289035428064568320970692304673817341489687933519880",
        "55464657044963196816950587289035428064568320970692304673817341489687933519882",
        "55464657044963196816950587289035428064568320970692304673817341489687933519886",
        "55464657044963196816950587289035428064568320970692304673817341489687933519883"
      ]
    },
    {
      "x": 12,
      "y": 67,
      "size": 1,
      "price": "1011000000000000000000",
      "reserved": "",
      "salt": "0xeb1afed8979ae2a5aba5f4c82d36620c23e2cff82f367b5886153abde88e2218",
      "assetIds": []
    },
    {
      "x": 12,
      "y": 68,
      "size": 1,
      "price": "1011000000000000000000",
      "reserved": "",
      "salt": "0x4ba93a60a1b3ce51d096810ad186d3eed3debadbae2823c3dbda4a33508d8baf",
      "assetIds": []
    },
    {
      "x": 12,
      "y": 69,
      "size": 1,
      "price": "1011000000000000000000",
      "reserved": "",
      "salt": "0xa9ac4ec3064f724d81ec4aca90e1513345cdacb7e46471735754ecc1a5e64c5b",
      "assetIds": []
    },
    {
      "x": 12,
      "y": 70,
      "size": 1,
      "price": "1011000000000000000000",
      "reserved": "",
      "salt": "0x282f733c28b26645b281dee94ecc3832165e339105e6af5296b518a13bc0d21c",
      "assetIds": []
    },
    {
      "x": 12,
      "y": 71,
      "size": 1,
      "price": "1011000000000000000000",
      "reserved": "",
      "salt": "0xd4fa3257df7e8f17a4374576c56c5611b0041799333984f248c35e77d34b24e8",
      "assetIds": []
    },
    {
      "x": 12,
      "y": 78,
      "size": 1,
      "price": "1011000000000000000000",
      "reserved": "",
      "salt": "0x380bd857187bcac81372c35af5febb744695170714dc08fcc873a8f8f06a03dd",
      "assetIds": []
    },
    {
      "x": 12,
      "y": 79,
      "size": 1,
      "price": "1011000000000000000000",
      "reserved": "",
      "salt": "0xad842a8a815d977d754d1544199c5d652e5bc36862db9736a8b3ae5303ea7a79",
      "assetIds": []
    },
    {
      "x": 12,
      "y": 80,
      "size": 1,
      "price": "1011000000000000000000",
      "reserved": "0x7a9fe22691c811ea339d9b73150e6911a5343dca",
      "salt": "0x1b9623237cf93b859c437a819f0a5a905586f4e25dec7abb38a783c7fd456fac",
      "assetIds": []
    },
    {
      "x": 12,
      "y": 81,
      "size": 1,
      "price": "1011000000000000000000",
      "reserved": "",
      "salt": "0x773e88d32d8c07681a2c340d0573f62292487387201a7b684b2cb30f7fa36c71",
      "assetIds": []
    },
    {
      "x": 12,
      "y": 82,
      "size": 1,
      "price": "1011000000000000000000",
      "reserved": "",
      "salt": "0x20c0d9a104609ce080f78fc886a479419b074440a0185a0933378861081bf9d3",
      "assetIds": []
    },
    {
      "x": 12,
      "y": 83,
      "size": 1,
      "price": "1011000000000000000000",
      "reserved": "",
      "salt": "0x3bb8ba042d6bae7d3d66f38e6c96d7457945658b5ed2fb0f2ecb133364c7b5c2",
      "assetIds": []
    },
    {
      "x": 12,
      "y": 84,
      "size": 1,
      "price": "1011000000000000000000",
      "reserved": "",
      "salt": "0x14012184ba929b21e7b7ddc2679cdbd8f75da5e3b501a2eec68ea0680164ea20",
      "assetIds": []
    },
    {
      "x": 12,
      "y": 85,
      "size": 1,
      "price": "1011000000000000000000",
      "reserved": "",
      "salt": "0xd00e0c7164f85bd171d327aa6726680e8155840092bf81be8dea0ce5777fb949",
      "assetIds": []
    },
    {
      "x": 12,
      "y": 86,
      "size": 1,
      "price": "1011000000000000000000",
      "reserved": "",
      "salt": "0xb406c286f7f396bae1fec743cff0097a60407bb6ee5755a10787ab111a7907a4",
      "assetIds": []
    },
    {
      "x": 12,
      "y": 87,
      "size": 1,
      "price": "1011000000000000000000",
      "reserved": "",
      "salt": "0x49dc268d1ee4bb6704972246ec272186abf2f228af969876704954b38d8bf4cd",
      "assetIds": []
    },
    {
      "x": 12,
      "y": 88,
      "size": 1,
      "price": "1011000000000000000000",
      "reserved": "",
      "salt": "0x638d11146375603aa6a305b8b78f8b514e964ae5519979e036bedee0ffcbd27f",
      "assetIds": []
    },
    {
      "x": 12,
      "y": 89,
      "size": 1,
      "price": "1011000000000000000000",
      "reserved": "",
      "salt": "0xda60a1e2adbd17d5e344ac05a2e7be771aea69afdb6ef929dcd71e2c62c9b899",
      "assetIds": []
    },
    {
      "x": 12,
      "y": 90,
      "size": 1,
      "price": "1011000000000000000000",
      "reserved": "",
      "salt": "0x5eaf95b84cf4c2fcb9420d16058d8cbfd81ab5b501b348f4eff513cb4eeabd52",
      "assetIds": []
    },
    {
      "x": 12,
      "y": 91,
      "size": 1,
      "price": "1011000000000000000000",
      "reserved": "0x7a9fe22691c811ea339d9b73150e6911a5343dca",
      "salt": "0x75185d9023346924315e2593a85934f0e343ecd4ff4407fe517096b54e9c1821",
      "assetIds": []
    },
    {
      "x": 12,
      "y": 92,
      "size": 1,
      "price": "1011000000000000000000",
      "reserved": "",
      "salt": "0x5e50885ca1bdce95d5519db7af211b02903c132bfdb95b6b471d79c4ea966eae",
      "assetIds": []
    },
    {
      "x": 12,
      "y": 93,
      "size": 1,
      "price": "1011000000000000000000",
      "reserved": "",
      "salt": "0x04e1835ceeb38c909405d48b6cb14754fd724828671eb4d840af1d1703a0abb8",
      "assetIds": []
    },
    {
      "x": 12,
      "y": 94,
      "size": 1,
      "price": "1011000000000000000000",
      "reserved": "",
      "salt": "0x114f89c1dab576748383f7e893f921dbd508e2ef338fc31edb6c545938f00b39",
      "assetIds": []
    },
    {
      "x": 12,
      "y": 95,
      "size": 1,
      "price": "1011000000000000000000",
      "reserved": "",
      "salt": "0xeebae9a923564e41cfc67b6e4ab05be631fd5263b6533f1ca5eb36e8a22e00a0",
      "assetIds": []
    },
    {
      "x": 13,
      "y": 39,
      "size": 1,
      "price": "1011000000000000000000",
      "reserved": "",
      "salt": "0xdcdada0495c4d3ed243109d654e3935eae43f432cff035b370a36fa4b1868544",
      "assetIds": []
    },
    {
      "x": 13,
      "y": 40,
      "size": 1,
      "price": "1011000000000000000000",
      "reserved": "",
      "salt": "0xa48b3c72f452f55a200d8e01cad18c906afe86da8d1e6e865e0eef64d8a741ec",
      "assetIds": []
    },
    {
      "x": 13,
      "y": 41,
      "size": 1,
      "price": "1011000000000000000000",
      "reserved": "0x7a9fe22691c811ea339d9b73150e6911a5343dca",
      "salt": "0xd5ab56aa3007fa91eafd8f004b73f08f9a1fd1de4321e2d740a7213f62bcfef9",
      "assetIds": []
    },
    {
      "x": 13,
      "y": 42,
      "size": 1,
      "price": "1011000000000000000000",
      "reserved": "",
      "salt": "0xd294b23756da53943f9e6ce9ee721de7aa13d476c005641828f6963ff155d7b5",
      "assetIds": []
    },
    {
      "x": 13,
      "y": 43,
      "size": 1,
      "price": "1011000000000000000000",
      "reserved": "",
      "salt": "0x1bd5353483225933d2fe39cb0f053b529dcc4ad8f8680171a09558fdd9da0029",
      "assetIds": []
    },
    {
      "x": 13,
      "y": 44,
      "size": 1,
      "price": "1011000000000000000000",
      "reserved": "0x7a9fe22691c811ea339d9b73150e6911a5343dca",
      "salt": "0x1877e3454dc337e238dc38d9a412bf0d7ef80054591f5c44b7f33dc4b4320ed2",
      "assetIds": []
    },
    {
      "x": 13,
      "y": 45,
      "size": 1,
      "price": "1011000000000000000000",
      "reserved": "",
      "salt": "0xaa1708004ab14eb01a543023c6b29fbc66bcdc43f7940343cb71300d11d4dbec",
      "assetIds": []
    },
    {
      "x": 13,
      "y": 46,
      "size": 1,
      "price": "1011000000000000000000",
      "reserved": "",
      "salt": "0xc598e02d8b369754111f5d1fe68c2ff2ae5960f4e3ce4bf433a232bf26d3cbaa",
      "assetIds": []
    },
    {
      "x": 13,
      "y": 47,
      "size": 1,
      "price": "1011000000000000000000",
      "reserved": "",
      "salt": "0x820dc83dd4f54120cc5a82627fefeee029791d108c385cf6798d1de5a69494fd",
      "assetIds": []
    },
    {
      "x": 13,
      "y": 48,
      "size": 1,
      "price": "1011000000000000000000",
      "reserved": "",
      "salt": "0xa9551629e209fd6b65c78600c1074ad7b8ad711c415444f7cfa15f1aa699861c",
      "assetIds": []
    },
    {
      "x": 13,
      "y": 49,
      "size": 1,
      "price": "1011000000000000000000",
      "reserved": "",
      "salt": "0xb90cb40ea73d804f1a09dc10e43ef2f3e2eb30650667ba5c143d8975858e0849",
      "assetIds": []
    },
    {
      "x": 13,
      "y": 50,
      "size": 1,
      "price": "1011000000000000000000",
      "reserved": "",
      "salt": "0x626e0e63f8ee74155fcc989db9e33486aa2411d695dc911379b5d762aadb38f7",
      "assetIds": []
    },
    {
      "x": 13,
      "y": 51,
      "size": 1,
      "price": "1011000000000000000000",
      "reserved": "",
      "salt": "0x9187bd3c0369a6d2aad443b9c12ea0b872ed46d81383f289f2d5c0f9591ef406",
      "assetIds": []
    },
    {
      "x": 13,
      "y": 52,
      "size": 1,
      "price": "4683000000000000000000",
      "reserved": "",
      "salt": "0xa57b19300abf91bc5858b8068ff28d51ff3754bbd8e997dc3f1eae6c4d425793",
      "assetIds": [
        "55464657044963196816950587289035428064568320970692304673817341489687933519876",
        "55464657044963196816950587289035428064568320970692304673817341489687933519880",
        "55464657044963196816950587289035428064568320970692304673817341489687933519882",
        "55464657044963196816950587289035428064568320970692304673817341489687933519886",
        "55464657044963196816950587289035428064568320970692304673817341489687933519883"
      ]
    },
    {
      "x": 13,
      "y": 53,
      "size": 1,
      "price": "4683000000000000000000",
      "reserved": "",
      "salt": "0x93c0a4e44baa7292fb7bd624079941210992c7d9adeb66fde03a5779cf8f98f7",
      "assetIds": [
        "55464657044963196816950587289035428064568320970692304673817341489687933519876",
        "55464657044963196816950587289035428064568320970692304673817341489687933519880",
        "55464657044963196816950587289035428064568320970692304673817341489687933519882",
        "55464657044963196816950587289035428064568320970692304673817341489687933519886",
        "55464657044963196816950587289035428064568320970692304673817341489687933519883"
      ]
    },
    {
      "x": 13,
      "y": 54,
      "size": 1,
      "price": "1011000000000000000000",
      "reserved": "0x7a9fe22691c811ea339d9b73150e6911a5343dca",
      "salt": "0x44cd28ed17786f5aa25c4be4dfe6b2e05dbbc8d8d97aec4d119b8ab0f3cca56c",
      "assetIds": []
    },
    {
      "x": 13,
      "y": 55,
      "size": 1,
      "price": "4683000000000000000000",
      "reserved": "",
      "salt": "0xaf71619dcd6a4799dbe42f8aa116b4d3a3f077b9b056244b66bc1f8d528cd807",
      "assetIds": [
        "55464657044963196816950587289035428064568320970692304673817341489687933519876",
        "55464657044963196816950587289035428064568320970692304673817341489687933519880",
        "55464657044963196816950587289035428064568320970692304673817341489687933519882",
        "55464657044963196816950587289035428064568320970692304673817341489687933519886",
        "55464657044963196816950587289035428064568320970692304673817341489687933519883"
      ]
    },
    {
      "x": 13,
      "y": 56,
      "size": 1,
      "price": "4683000000000000000000",
      "reserved": "",
      "salt": "0x4091747e526734791665d40b4a3bde0a7b85da61c82173ccb52ef8b64d1ad811",
      "assetIds": [
        "55464657044963196816950587289035428064568320970692304673817341489687933519876",
        "55464657044963196816950587289035428064568320970692304673817341489687933519880",
        "55464657044963196816950587289035428064568320970692304673817341489687933519882",
        "55464657044963196816950587289035428064568320970692304673817341489687933519886",
        "55464657044963196816950587289035428064568320970692304673817341489687933519883"
      ]
    },
    {
      "x": 13,
      "y": 63,
      "size": 1,
      "price": "4683000000000000000000",
      "reserved": "",
      "salt": "0x1506645f31d4a23340f37ffa357b38d27c77300ea29ac761a9103cdff7696251",
      "assetIds": [
        "55464657044963196816950587289035428064568320970692304673817341489687933519876",
        "55464657044963196816950587289035428064568320970692304673817341489687933519880",
        "55464657044963196816950587289035428064568320970692304673817341489687933519882",
        "55464657044963196816950587289035428064568320970692304673817341489687933519886",
        "55464657044963196816950587289035428064568320970692304673817341489687933519883"
      ]
    },
    {
      "x": 13,
      "y": 64,
      "size": 1,
      "price": "4683000000000000000000",
      "reserved": "",
      "salt": "0x8585f53da2ed7f0ebd9bcb7d6bc9460d397c0bab80b56374664cc40843d30f4b",
      "assetIds": [
        "55464657044963196816950587289035428064568320970692304673817341489687933519876",
        "55464657044963196816950587289035428064568320970692304673817341489687933519880",
        "55464657044963196816950587289035428064568320970692304673817341489687933519882",
        "55464657044963196816950587289035428064568320970692304673817341489687933519886",
        "55464657044963196816950587289035428064568320970692304673817341489687933519883"
      ]
    },
    {
      "x": 13,
      "y": 65,
      "size": 1,
      "price": "4683000000000000000000",
      "reserved": "",
      "salt": "0xec565ebd3bca1625095537a3e7cc45e84116517fccc785809dda9796920e77d5",
      "assetIds": [
        "55464657044963196816950587289035428064568320970692304673817341489687933519876",
        "55464657044963196816950587289035428064568320970692304673817341489687933519880",
        "55464657044963196816950587289035428064568320970692304673817341489687933519882",
        "55464657044963196816950587289035428064568320970692304673817341489687933519886",
        "55464657044963196816950587289035428064568320970692304673817341489687933519883"
      ]
    },
    {
      "x": 13,
      "y": 66,
      "size": 1,
      "price": "4683000000000000000000",
      "reserved": "",
      "salt": "0xf88b114088692295a42ff28542646565834c7af9a0a432222a56096b3b073ae3",
      "assetIds": [
        "55464657044963196816950587289035428064568320970692304673817341489687933519876",
        "55464657044963196816950587289035428064568320970692304673817341489687933519880",
        "55464657044963196816950587289035428064568320970692304673817341489687933519882",
        "55464657044963196816950587289035428064568320970692304673817341489687933519886",
        "55464657044963196816950587289035428064568320970692304673817341489687933519883"
      ]
    },
    {
      "x": 13,
      "y": 67,
      "size": 1,
      "price": "1011000000000000000000",
      "reserved": "",
      "salt": "0x33b42f0af09ccbfefc751c36ede66af3b6e9b19d27e13ae66a36f3da72ef4248",
      "assetIds": []
    },
    {
      "x": 13,
      "y": 68,
      "size": 1,
      "price": "1011000000000000000000",
      "reserved": "",
      "salt": "0x03dc8fb6673f83ec8115ce7b5381bde93d25fc888031a0fcc49e9d2240cb5c31",
      "assetIds": []
    },
    {
      "x": 13,
      "y": 69,
      "size": 1,
      "price": "1011000000000000000000",
      "reserved": "",
      "salt": "0x81d67e3aa10211e7c69d3b220b50fe91883b4724400dca8e6b6453d67771133c",
      "assetIds": []
    },
    {
      "x": 13,
      "y": 70,
      "size": 1,
      "price": "1011000000000000000000",
      "reserved": "",
      "salt": "0x6bdfa43421332f407f1c8838cee3ab32d3e0ce5ece36e8edbb7d196c9e4bc9e0",
      "assetIds": []
    },
    {
      "x": 13,
      "y": 71,
      "size": 1,
      "price": "1011000000000000000000",
      "reserved": "0x7a9fe22691c811ea339d9b73150e6911a5343dca",
      "salt": "0x45dc73c8f29d4992a5e3fe3dd0d0adf5e35770717ad298b9785ee8ae41b53390",
      "assetIds": []
    },
    {
      "x": 13,
      "y": 78,
      "size": 1,
      "price": "1011000000000000000000",
      "reserved": "",
      "salt": "0x950b236632335675fd87ca79aeb9f84ab4ee43d565f9bbe1aca0fbccf0e92ad2",
      "assetIds": []
    },
    {
      "x": 13,
      "y": 79,
      "size": 1,
      "price": "1011000000000000000000",
      "reserved": "0x7a9fe22691c811ea339d9b73150e6911a5343dca",
      "salt": "0xa65ec39d4419c00ed37b60cc6f3e6969cdccb0444b3a3ac372e8028230c89f99",
      "assetIds": []
    },
    {
      "x": 13,
      "y": 80,
      "size": 1,
      "price": "1011000000000000000000",
      "reserved": "",
      "salt": "0xdc0425f6fd1e4cadb7ddb617f86741278c1c461d1048a608d72d5edf93af3afb",
      "assetIds": []
    },
    {
      "x": 13,
      "y": 81,
      "size": 1,
      "price": "1011000000000000000000",
      "reserved": "",
      "salt": "0xb8138a61a581266ad3921da40223ad235086725bfdf1800274121ae8cf306a09",
      "assetIds": []
    },
    {
      "x": 13,
      "y": 82,
      "size": 1,
      "price": "1011000000000000000000",
      "reserved": "",
      "salt": "0xd74feb73140c0a7fa9818d00d024c8a17af6b46d8efc1e567b00a874681fb471",
      "assetIds": []
    },
    {
      "x": 13,
      "y": 83,
      "size": 1,
      "price": "1011000000000000000000",
      "reserved": "",
      "salt": "0x0d18597d0657463796b14726412c8afc4ce137d7daab84bf4a67f8494b7db5ee",
      "assetIds": []
    },
    {
      "x": 13,
      "y": 84,
      "size": 1,
      "price": "1011000000000000000000",
      "reserved": "",
      "salt": "0x81c4a6c9861d62c6606920f1986dfeb3ba495fbe7b7e02b1257e9b78d28b2d71",
      "assetIds": []
    },
    {
      "x": 13,
      "y": 85,
      "size": 1,
      "price": "1011000000000000000000",
      "reserved": "0x7a9fe22691c811ea339d9b73150e6911a5343dca",
      "salt": "0x2dbf33458b39fd78193d36502144f54fe98d10cb3a07c5c16ebc08184b28b496",
      "assetIds": []
    },
    {
      "x": 13,
      "y": 86,
      "size": 1,
      "price": "1011000000000000000000",
      "reserved": "",
      "salt": "0x75b5093c3f6771a41fadf84e3ed6f8b71a7a38ace27d95010cce0208b70affbb",
      "assetIds": []
    },
    {
      "x": 13,
      "y": 87,
      "size": 1,
      "price": "1011000000000000000000",
      "reserved": "",
      "salt": "0xdb0072eaf0e376283b455311aa206e654e412f228be55897b805c4c7964b0c87",
      "assetIds": []
    },
    {
      "x": 13,
      "y": 88,
      "size": 1,
      "price": "1011000000000000000000",
      "reserved": "",
      "salt": "0xc50fc4c9aaffbd57fc6654f2b491ea16cea42c90b47914aaf58d6f4ff0bd33ea",
      "assetIds": []
    },
    {
      "x": 13,
      "y": 89,
      "size": 1,
      "price": "1011000000000000000000",
      "reserved": "",
      "salt": "0x07b74a91d6a6d6a120fe694ec575bb014426ff65d3f8ece9e884a9ba1104ae10",
      "assetIds": []
    },
    {
      "x": 13,
      "y": 90,
      "size": 1,
      "price": "1011000000000000000000",
      "reserved": "",
      "salt": "0xd2ab42aef4e65a77717bf3405184b8c7bd18d377ea1c5bd06fe9950b0914c717",
      "assetIds": []
    },
    {
      "x": 13,
      "y": 91,
      "size": 1,
      "price": "1011000000000000000000",
      "reserved": "",
      "salt": "0x1482add040af703fe78ae9fd70a837c809bd1fd2a8ae96a0132a468b65a59a02",
      "assetIds": []
    },
    {
      "x": 13,
      "y": 92,
      "size": 1,
      "price": "1011000000000000000000",
      "reserved": "",
      "salt": "0x5d4c8ab3d589630f79df98667eaf03bacdea717755d8123dd26a711398538b8b",
      "assetIds": []
    },
    {
      "x": 13,
      "y": 93,
      "size": 1,
      "price": "1011000000000000000000",
      "reserved": "",
      "salt": "0x46bd30178f72b0971dfdde2b6b684c17b74e4a00f1cadd7aa48514312304730f",
      "assetIds": []
    },
    {
      "x": 13,
      "y": 94,
      "size": 1,
      "price": "1011000000000000000000",
      "reserved": "",
      "salt": "0xbfad249b46f888ef27704ebf1e70c1223310412de6346147dc6081f5d9de6d74",
      "assetIds": []
    },
    {
      "x": 13,
      "y": 95,
      "size": 1,
      "price": "1011000000000000000000",
      "reserved": "",
      "salt": "0x3c37184e3dd835eb050c52c6a61f9378f0f429062b047234727b7f3d87044a77",
      "assetIds": []
    },
    {
      "x": 14,
      "y": 39,
      "size": 1,
      "price": "1011000000000000000000",
      "reserved": "",
      "salt": "0xd0bec452c8f6173b10d9eea87e37a721ffe794e3a66e38aa7c81ccf7aa4744b4",
      "assetIds": []
    },
    {
      "x": 14,
      "y": 40,
      "size": 1,
      "price": "1011000000000000000000",
      "reserved": "",
      "salt": "0xde6b74b5459e3392951269fba8ec762995e450cbd1a461cd23d8256b535b9e87",
      "assetIds": []
    },
    {
      "x": 14,
      "y": 48,
      "size": 1,
      "price": "1011000000000000000000",
      "reserved": "",
      "salt": "0x42c451a859f49e5ba0bfda3bddecb2918108ff6ddd63a561514989bdce57ed46",
      "assetIds": []
    },
    {
      "x": 14,
      "y": 49,
      "size": 1,
      "price": "1011000000000000000000",
      "reserved": "",
      "salt": "0x560a7810861134c2872a7e9bdb2b8dbe48a0c6ef3ad9dee5836e308e9b6cf3ce",
      "assetIds": []
    },
    {
      "x": 14,
      "y": 50,
      "size": 1,
      "price": "1011000000000000000000",
      "reserved": "",
      "salt": "0x1ecdd01fd128b13601a0318894c6acb564aed246eb2ae59907b6306a4beb85f7",
      "assetIds": []
    },
    {
      "x": 14,
      "y": 51,
      "size": 1,
      "price": "4683000000000000000000",
      "reserved": "",
      "salt": "0x8c798173187d1dce08b02ca245fa546a0f1f921940eb1a3f25532eceb6307a80",
      "assetIds": [
        "55464657044963196816950587289035428064568320970692304673817341489687933519876",
        "55464657044963196816950587289035428064568320970692304673817341489687933519880",
        "55464657044963196816950587289035428064568320970692304673817341489687933519882",
        "55464657044963196816950587289035428064568320970692304673817341489687933519886",
        "55464657044963196816950587289035428064568320970692304673817341489687933519883"
      ]
    },
    {
      "x": 14,
      "y": 52,
      "size": 1,
      "price": "4683000000000000000000",
      "reserved": "",
      "salt": "0x80eac7fe9ca0b677efe6b6689e4e8bafa8d4dc6fe4f6102665773157d89dce20",
      "assetIds": [
        "55464657044963196816950587289035428064568320970692304673817341489687933519876",
        "55464657044963196816950587289035428064568320970692304673817341489687933519880",
        "55464657044963196816950587289035428064568320970692304673817341489687933519882",
        "55464657044963196816950587289035428064568320970692304673817341489687933519886",
        "55464657044963196816950587289035428064568320970692304673817341489687933519883"
      ]
    },
    {
      "x": 14,
      "y": 53,
      "size": 1,
      "price": "4683000000000000000000",
      "reserved": "",
      "salt": "0x96144685b8aaa8cccb0bc27df94c3934dabca551b7f7ddb9adf3b0b155e12181",
      "assetIds": [
        "55464657044963196816950587289035428064568320970692304673817341489687933519876",
        "55464657044963196816950587289035428064568320970692304673817341489687933519880",
        "55464657044963196816950587289035428064568320970692304673817341489687933519882",
        "55464657044963196816950587289035428064568320970692304673817341489687933519886",
        "55464657044963196816950587289035428064568320970692304673817341489687933519883"
      ]
    },
    {
      "x": 14,
      "y": 54,
      "size": 1,
      "price": "4683000000000000000000",
      "reserved": "",
      "salt": "0xb628b3f5c496b2b1855d8606480e02e597ba9fac397bcdbbafb8eb73e197a112",
      "assetIds": [
        "55464657044963196816950587289035428064568320970692304673817341489687933519876",
        "55464657044963196816950587289035428064568320970692304673817341489687933519880",
        "55464657044963196816950587289035428064568320970692304673817341489687933519882",
        "55464657044963196816950587289035428064568320970692304673817341489687933519886",
        "55464657044963196816950587289035428064568320970692304673817341489687933519883"
      ]
    },
    {
      "x": 14,
      "y": 55,
      "size": 1,
      "price": "4683000000000000000000",
      "reserved": "",
      "salt": "0xa04dab2e5d4bace2c1eb1e7c162afafe0f319234f7858bfdd3e9c070909dc51d",
      "assetIds": [
        "55464657044963196816950587289035428064568320970692304673817341489687933519876",
        "55464657044963196816950587289035428064568320970692304673817341489687933519880",
        "55464657044963196816950587289035428064568320970692304673817341489687933519882",
        "55464657044963196816950587289035428064568320970692304673817341489687933519886",
        "55464657044963196816950587289035428064568320970692304673817341489687933519883"
      ]
    },
    {
      "x": 14,
      "y": 56,
      "size": 1,
      "price": "4683000000000000000000",
      "reserved": "",
      "salt": "0x8ec136e075118e3ef68964e698e1162b6069ed6dc6157d4d01134f7bde9e3821",
      "assetIds": [
        "55464657044963196816950587289035428064568320970692304673817341489687933519876",
        "55464657044963196816950587289035428064568320970692304673817341489687933519880",
        "55464657044963196816950587289035428064568320970692304673817341489687933519882",
        "55464657044963196816950587289035428064568320970692304673817341489687933519886",
        "55464657044963196816950587289035428064568320970692304673817341489687933519883"
      ]
    },
    {
      "x": 14,
      "y": 63,
      "size": 1,
      "price": "4683000000000000000000",
      "reserved": "",
      "salt": "0x02cfab0de9a4a34e6fd5e8ea28ae04a656b8bfe29d1435992c1d9d64bd9656b0",
      "assetIds": [
        "55464657044963196816950587289035428064568320970692304673817341489687933519876",
        "55464657044963196816950587289035428064568320970692304673817341489687933519880",
        "55464657044963196816950587289035428064568320970692304673817341489687933519882",
        "55464657044963196816950587289035428064568320970692304673817341489687933519886",
        "55464657044963196816950587289035428064568320970692304673817341489687933519883"
      ]
    },
    {
      "x": 14,
      "y": 64,
      "size": 1,
      "price": "4683000000000000000000",
      "reserved": "",
      "salt": "0x1294557ec8530b4a5cb5ac59b31321aea40b8e29a4c7b12258de96cd26a66b43",
      "assetIds": [
        "55464657044963196816950587289035428064568320970692304673817341489687933519876",
        "55464657044963196816950587289035428064568320970692304673817341489687933519880",
        "55464657044963196816950587289035428064568320970692304673817341489687933519882",
        "55464657044963196816950587289035428064568320970692304673817341489687933519886",
        "55464657044963196816950587289035428064568320970692304673817341489687933519883"
      ]
    },
    {
      "x": 14,
      "y": 65,
      "size": 1,
      "price": "4683000000000000000000",
      "reserved": "",
      "salt": "0x5ef5342db8a8d39b458b30a18f96881c6e8803b3fe0b865378c326a9584f1293",
      "assetIds": [
        "55464657044963196816950587289035428064568320970692304673817341489687933519876",
        "55464657044963196816950587289035428064568320970692304673817341489687933519880",
        "55464657044963196816950587289035428064568320970692304673817341489687933519882",
        "55464657044963196816950587289035428064568320970692304673817341489687933519886",
        "55464657044963196816950587289035428064568320970692304673817341489687933519883"
      ]
    },
    {
      "x": 14,
      "y": 66,
      "size": 1,
      "price": "4683000000000000000000",
      "reserved": "",
      "salt": "0xea8174819cc7e6936d4f606015ccbd878d46ba3acd1b78132de9148eb626cdd8",
      "assetIds": [
        "55464657044963196816950587289035428064568320970692304673817341489687933519876",
        "55464657044963196816950587289035428064568320970692304673817341489687933519880",
        "55464657044963196816950587289035428064568320970692304673817341489687933519882",
        "55464657044963196816950587289035428064568320970692304673817341489687933519886",
        "55464657044963196816950587289035428064568320970692304673817341489687933519883"
      ]
    },
    {
      "x": 14,
      "y": 67,
      "size": 1,
      "price": "1011000000000000000000",
      "reserved": "",
      "salt": "0xff0377a6e46bcbcc0528d8fbcf719fa48d4730c4b5b6bd6216382425d67c6368",
      "assetIds": []
    },
    {
      "x": 14,
      "y": 68,
      "size": 1,
      "price": "1011000000000000000000",
      "reserved": "",
      "salt": "0xd07ec1378afa65f30fa72aac27b026ea5ec2b942e0af076a4c19263131419cba",
      "assetIds": []
    },
    {
      "x": 14,
      "y": 69,
      "size": 1,
      "price": "1011000000000000000000",
      "reserved": "0x7a9fe22691c811ea339d9b73150e6911a5343dca",
      "salt": "0x9a3ccc78eb772dbf3c64d5bbd3f98b79b8234218cc6d73e1389dbcb0758b31c5",
      "assetIds": []
    },
    {
      "x": 14,
      "y": 70,
      "size": 1,
      "price": "1011000000000000000000",
      "reserved": "",
      "salt": "0xa9af0813f92c6ff0a4bd6e74b99603036af6cc643594088dee091ed1c05ab5c8",
      "assetIds": []
    },
    {
      "x": 14,
      "y": 71,
      "size": 1,
      "price": "1011000000000000000000",
      "reserved": "",
      "salt": "0x900db6b214895684eec82f25aac5ca9b0b1ba1f76bb98a8a864ed883c31fc0c0",
      "assetIds": []
    },
    {
      "x": 14,
      "y": 78,
      "size": 1,
      "price": "1011000000000000000000",
      "reserved": "",
      "salt": "0x279cbc8d2c45cfe9c02790b47844649ca28827d0c92b88ec7eb273ae0a122871",
      "assetIds": []
    },
    {
      "x": 14,
      "y": 79,
      "size": 1,
      "price": "1011000000000000000000",
      "reserved": "",
      "salt": "0x720ea6edd817e1ff2090daa40999dece8f8c49b968f270d994754d89d68c157e",
      "assetIds": []
    },
    {
      "x": 14,
      "y": 80,
      "size": 1,
      "price": "1011000000000000000000",
      "reserved": "",
      "salt": "0xcd60b31f28da3005050441d6de2f593b782a3cee37d296ae99605adc578503a7",
      "assetIds": []
    },
    {
      "x": 14,
      "y": 81,
      "size": 1,
      "price": "1011000000000000000000",
      "reserved": "",
      "salt": "0x9a11ac5db6d17746571687986ebcdb1f6f1a507516681b69574e767aad4e0f2d",
      "assetIds": []
    },
    {
      "x": 14,
      "y": 82,
      "size": 1,
      "price": "1011000000000000000000",
      "reserved": "",
      "salt": "0xf33c407cdd1b684101f922a198237f0fd4892d0ee7936c1a160464ebcda25c1e",
      "assetIds": []
    },
    {
      "x": 14,
      "y": 83,
      "size": 1,
      "price": "1011000000000000000000",
      "reserved": "",
      "salt": "0xf7998ee014e6145cd845bc048f2b7b8c02cf0fbe14c5ef1c7edb87659009522c",
      "assetIds": []
    },
    {
      "x": 14,
      "y": 84,
      "size": 1,
      "price": "1011000000000000000000",
      "reserved": "",
      "salt": "0x72b47564b169ae90e51eacca30bdc653b230bba587d485ca81c192e050b38ae5",
      "assetIds": []
    },
    {
      "x": 14,
      "y": 85,
      "size": 1,
      "price": "1011000000000000000000",
      "reserved": "",
      "salt": "0x873ab3ade5f429870a3db6656cba61a59b1768b972190f843f5bbe1ed53116e1",
      "assetIds": []
    },
    {
      "x": 14,
      "y": 86,
      "size": 1,
      "price": "1011000000000000000000",
      "reserved": "",
      "salt": "0x67754994f2ce5da0fcec1110718aeca901b19acc8dc8e812a3ceab5ae49b53e2",
      "assetIds": []
    },
    {
      "x": 14,
      "y": 87,
      "size": 1,
      "price": "1011000000000000000000",
      "reserved": "",
      "salt": "0xe36372fface2302db30c7f496cfdfef4fa83e01828d5430715832a73395894a5",
      "assetIds": []
    },
    {
      "x": 14,
      "y": 88,
      "size": 1,
      "price": "1011000000000000000000",
      "reserved": "0x7a9fe22691c811ea339d9b73150e6911a5343dca",
      "salt": "0xcfe228ba46b7324056fee133129ff8c661b7026f847b51c652dfafe9803130a6",
      "assetIds": []
    },
    {
      "x": 14,
      "y": 89,
      "size": 1,
      "price": "1011000000000000000000",
      "reserved": "",
      "salt": "0x5a56ea6d332e9516a7f6538cf67d260ea5cb7fab08832928b7b7a16fdd7226a9",
      "assetIds": []
    },
    {
      "x": 14,
      "y": 90,
      "size": 1,
      "price": "1011000000000000000000",
      "reserved": "",
      "salt": "0x2d48acbc4b8a42397273373d286fb2dc3dc537748ed192817243c6fcc319b57d",
      "assetIds": []
    },
    {
      "x": 14,
      "y": 91,
      "size": 1,
      "price": "1011000000000000000000",
      "reserved": "",
      "salt": "0xa1ea3ff870fc3e502410de797b3852b9bc5594875a10a9573298a7fa1f0c13ff",
      "assetIds": []
    },
    {
      "x": 14,
      "y": 92,
      "size": 1,
      "price": "1011000000000000000000",
      "reserved": "",
      "salt": "0xc301e3f58a0c77bb6faea8eee262cd9313e81e690fe94048dc803bcbeae38b1b",
      "assetIds": []
    },
    {
      "x": 14,
      "y": 93,
      "size": 1,
      "price": "1011000000000000000000",
      "reserved": "0x7a9fe22691c811ea339d9b73150e6911a5343dca",
      "salt": "0x8111d3aea8c4db5cbadf9645a0fe15c855d48da7f3bb1c10fefba54a88b60573",
      "assetIds": []
    },
    {
      "x": 14,
      "y": 94,
      "size": 1,
      "price": "1011000000000000000000",
      "reserved": "",
      "salt": "0xb8f458814397e2937d03412d7a26d0ec21393ef68e7f0bc2958fabff9a9ab5e0",
      "assetIds": []
    },
    {
      "x": 14,
      "y": 95,
      "size": 1,
      "price": "1011000000000000000000",
      "reserved": "",
      "salt": "0xc82ef4ac5ae11d20618bfe4453bdf362abc1c19205bcb25cef9826f6b6efcf1e",
      "assetIds": []
    },
    {
      "x": 15,
      "y": 54,
      "size": 1,
      "price": "4683000000000000000000",
      "reserved": "",
      "salt": "0x96bc0c900889ba3aca2fda999225f231357eb270b7fcf64b385f4de2b7bac795",
      "assetIds": [
        "55464657044963196816950587289035428064568320970692304673817341489687933519876",
        "55464657044963196816950587289035428064568320970692304673817341489687933519880",
        "55464657044963196816950587289035428064568320970692304673817341489687933519882",
        "55464657044963196816950587289035428064568320970692304673817341489687933519886",
        "55464657044963196816950587289035428064568320970692304673817341489687933519883"
      ]
    },
    {
      "x": 15,
      "y": 55,
      "size": 1,
      "price": "4683000000000000000000",
      "reserved": "",
      "salt": "0x49abf8079478d735dbfea86bd9d0ce18965fbd71d7e2219c469f0b81d4880bc2",
      "assetIds": [
        "55464657044963196816950587289035428064568320970692304673817341489687933519876",
        "55464657044963196816950587289035428064568320970692304673817341489687933519880",
        "55464657044963196816950587289035428064568320970692304673817341489687933519882",
        "55464657044963196816950587289035428064568320970692304673817341489687933519886",
        "55464657044963196816950587289035428064568320970692304673817341489687933519883"
      ]
    },
    {
      "x": 15,
      "y": 56,
      "size": 1,
      "price": "4683000000000000000000",
      "reserved": "",
      "salt": "0xf806323c6added8dae0d664032dd051001b1dcef04b8b6e96f52e68e645224dd",
      "assetIds": [
        "55464657044963196816950587289035428064568320970692304673817341489687933519876",
        "55464657044963196816950587289035428064568320970692304673817341489687933519880",
        "55464657044963196816950587289035428064568320970692304673817341489687933519882",
        "55464657044963196816950587289035428064568320970692304673817341489687933519886",
        "55464657044963196816950587289035428064568320970692304673817341489687933519883"
      ]
    },
    {
      "x": 15,
      "y": 57,
      "size": 1,
      "price": "4683000000000000000000",
      "reserved": "",
      "salt": "0xe5fe104ef646da0b1a647dc3233534db123b50b09b5bcf02b8dbde69cda63d28",
      "assetIds": [
        "55464657044963196816950587289035428064568320970692304673817341489687933519876",
        "55464657044963196816950587289035428064568320970692304673817341489687933519880",
        "55464657044963196816950587289035428064568320970692304673817341489687933519882",
        "55464657044963196816950587289035428064568320970692304673817341489687933519886",
        "55464657044963196816950587289035428064568320970692304673817341489687933519883"
      ]
    },
    {
      "x": 15,
      "y": 58,
      "size": 1,
      "price": "4683000000000000000000",
      "reserved": "",
      "salt": "0x8d1f68f3d8915501b32fdbf0a4c8ff788115030be548c3343f7c87640caae622",
      "assetIds": [
        "55464657044963196816950587289035428064568320970692304673817341489687933519876",
        "55464657044963196816950587289035428064568320970692304673817341489687933519880",
        "55464657044963196816950587289035428064568320970692304673817341489687933519882",
        "55464657044963196816950587289035428064568320970692304673817341489687933519886",
        "55464657044963196816950587289035428064568320970692304673817341489687933519883"
      ]
    },
    {
      "x": 15,
      "y": 59,
      "size": 1,
      "price": "4683000000000000000000",
      "reserved": "",
      "salt": "0x42bd189d8ba297c3168f37ef01ab0f5579154e1ed195bac08679c7ccc5b876fe",
      "assetIds": [
        "55464657044963196816950587289035428064568320970692304673817341489687933519876",
        "55464657044963196816950587289035428064568320970692304673817341489687933519880",
        "55464657044963196816950587289035428064568320970692304673817341489687933519882",
        "55464657044963196816950587289035428064568320970692304673817341489687933519886",
        "55464657044963196816950587289035428064568320970692304673817341489687933519883"
      ]
    },
    {
      "x": 15,
      "y": 60,
      "size": 1,
      "price": "4683000000000000000000",
      "reserved": "",
      "salt": "0x6e604a39f5197041bfc9fa10de05196338622989576e017571d9daa1401f4fa7",
      "assetIds": [
        "55464657044963196816950587289035428064568320970692304673817341489687933519876",
        "55464657044963196816950587289035428064568320970692304673817341489687933519880",
        "55464657044963196816950587289035428064568320970692304673817341489687933519882",
        "55464657044963196816950587289035428064568320970692304673817341489687933519886",
        "55464657044963196816950587289035428064568320970692304673817341489687933519883"
      ]
    },
    {
      "x": 15,
      "y": 61,
      "size": 1,
      "price": "4683000000000000000000",
      "reserved": "",
      "salt": "0x8b21d79a3589697225e6b5d700d21f5ae3a4599603fa1bfe2303bd48ff35450b",
      "assetIds": [
        "55464657044963196816950587289035428064568320970692304673817341489687933519876",
        "55464657044963196816950587289035428064568320970692304673817341489687933519880",
        "55464657044963196816950587289035428064568320970692304673817341489687933519882",
        "55464657044963196816950587289035428064568320970692304673817341489687933519886",
        "55464657044963196816950587289035428064568320970692304673817341489687933519883"
      ]
    },
    {
      "x": 15,
      "y": 62,
      "size": 1,
      "price": "4683000000000000000000",
      "reserved": "",
      "salt": "0x3f3269f0bfebb979faca1d0f1367d5458ebbfe16865766e3bf3de88b36317333",
      "assetIds": [
        "55464657044963196816950587289035428064568320970692304673817341489687933519876",
        "55464657044963196816950587289035428064568320970692304673817341489687933519880",
        "55464657044963196816950587289035428064568320970692304673817341489687933519882",
        "55464657044963196816950587289035428064568320970692304673817341489687933519886",
        "55464657044963196816950587289035428064568320970692304673817341489687933519883"
      ]
    },
    {
      "x": 15,
      "y": 63,
      "size": 1,
      "price": "4683000000000000000000",
      "reserved": "",
      "salt": "0x6f2c70724f30377eb5c6ed4bd208225015035bae26b3fd5bb9f161d72bdc31fb",
      "assetIds": [
        "55464657044963196816950587289035428064568320970692304673817341489687933519876",
        "55464657044963196816950587289035428064568320970692304673817341489687933519880",
        "55464657044963196816950587289035428064568320970692304673817341489687933519882",
        "55464657044963196816950587289035428064568320970692304673817341489687933519886",
        "55464657044963196816950587289035428064568320970692304673817341489687933519883"
      ]
    },
    {
      "x": 15,
      "y": 64,
      "size": 1,
      "price": "4683000000000000000000",
      "reserved": "",
      "salt": "0x68da7a6b6df340bff5f7cd093c2c14ae25c7540dbaca498697eb21e8504d9b7a",
      "assetIds": [
        "55464657044963196816950587289035428064568320970692304673817341489687933519876",
        "55464657044963196816950587289035428064568320970692304673817341489687933519880",
        "55464657044963196816950587289035428064568320970692304673817341489687933519882",
        "55464657044963196816950587289035428064568320970692304673817341489687933519886",
        "55464657044963196816950587289035428064568320970692304673817341489687933519883"
      ]
    },
    {
      "x": 15,
      "y": 65,
      "size": 1,
      "price": "4683000000000000000000",
      "reserved": "",
      "salt": "0x480a330462e2fddee5c05309a2b166fe5ec62232e684279eb6413b67b24aed61",
      "assetIds": [
        "55464657044963196816950587289035428064568320970692304673817341489687933519876",
        "55464657044963196816950587289035428064568320970692304673817341489687933519880",
        "55464657044963196816950587289035428064568320970692304673817341489687933519882",
        "55464657044963196816950587289035428064568320970692304673817341489687933519886",
        "55464657044963196816950587289035428064568320970692304673817341489687933519883"
      ]
    },
    {
      "x": 15,
      "y": 66,
      "size": 1,
      "price": "4683000000000000000000",
      "reserved": "",
      "salt": "0x4f267613a5f0d42d4d528d2a06efaebd1c5a280c5a58fac3cdeed5593eecea52",
      "assetIds": [
        "55464657044963196816950587289035428064568320970692304673817341489687933519876",
        "55464657044963196816950587289035428064568320970692304673817341489687933519880",
        "55464657044963196816950587289035428064568320970692304673817341489687933519882",
        "55464657044963196816950587289035428064568320970692304673817341489687933519886",
        "55464657044963196816950587289035428064568320970692304673817341489687933519883"
      ]
    },
    {
      "x": 15,
      "y": 67,
      "size": 1,
      "price": "1011000000000000000000",
      "reserved": "",
      "salt": "0xddcdca69303d38a5b016a6aa772ec8243da1961349485fd717fec564ed9c038b",
      "assetIds": []
    },
    {
      "x": 15,
      "y": 68,
      "size": 1,
      "price": "1011000000000000000000",
      "reserved": "",
      "salt": "0x59693b7b61db0ce4d101428584fa318556660a5d86ed13aaf1eebee658f1d27c",
      "assetIds": []
    },
    {
      "x": 15,
      "y": 69,
      "size": 1,
      "price": "1011000000000000000000",
      "reserved": "",
      "salt": "0xd825fb68918c6e7c76b64e4d1351cbf225568a0b2986a702da742a5e8128f82d",
      "assetIds": []
    },
    {
      "x": 15,
      "y": 70,
      "size": 1,
      "price": "1011000000000000000000",
      "reserved": "",
      "salt": "0x3b3c6b8f94d9d02d8e50577c89ca62f09d02077e99a4c6177d64b2c1b48d8854",
      "assetIds": []
    },
    {
      "x": 15,
      "y": 71,
      "size": 1,
      "price": "1011000000000000000000",
      "reserved": "",
      "salt": "0xa1b1b0100d21c44e2396cf3ea720f6ce17b618ccedc9ab21115772807816faf5",
      "assetIds": []
    },
    {
      "x": 15,
      "y": 78,
      "size": 1,
      "price": "1011000000000000000000",
      "reserved": "",
      "salt": "0x5f7bf97f76c834ff838fd5b0afd17e7fbe6c26d45a561bea7f553daeaec871f2",
      "assetIds": []
    },
    {
      "x": 15,
      "y": 79,
      "size": 1,
      "price": "1011000000000000000000",
      "reserved": "",
      "salt": "0x303cc497dfcb2f7ca4c8e1d77cd4d76a3df2d1e8e6bbdde587e134d3c42fabbe",
      "assetIds": []
    },
    {
      "x": 15,
      "y": 80,
      "size": 1,
      "price": "1011000000000000000000",
      "reserved": "",
      "salt": "0x3ad2cd98d615a815f49f38b99bd39d608ec6352155a95216a3a70ab7c678c31c",
      "assetIds": []
    },
    {
      "x": 15,
      "y": 81,
      "size": 1,
      "price": "1011000000000000000000",
      "reserved": "",
      "salt": "0x91264404c276f71d7f2e46f5dba62d4539f1bb491cbaef5e7c6b45261b3253e0",
      "assetIds": []
    },
    {
      "x": 15,
      "y": 82,
      "size": 1,
      "price": "1011000000000000000000",
      "reserved": "",
      "salt": "0xf37b718d0a8897f974ecd2f2348c84f585b238de62db469199addf750c5f24b9",
      "assetIds": []
    },
    {
      "x": 15,
      "y": 83,
      "size": 1,
      "price": "1011000000000000000000",
      "reserved": "0x7a9fe22691c811ea339d9b73150e6911a5343dca",
      "salt": "0xac3862cfd341745b674976629e97083b18fc513e604c0025d642f84f2978b3b5",
      "assetIds": []
    },
    {
      "x": 15,
      "y": 84,
      "size": 1,
      "price": "1011000000000000000000",
      "reserved": "",
      "salt": "0x5ca9df1564e108de58b40322645d0d86dd6f347e663fcb757edf3f0b02f1f23f",
      "assetIds": []
    },
    {
      "x": 15,
      "y": 85,
      "size": 1,
      "price": "1011000000000000000000",
      "reserved": "",
      "salt": "0xdb6ce5c8615843f582d00c300532d780602e215d0a396464c169199694a41e87",
      "assetIds": []
    },
    {
      "x": 15,
      "y": 86,
      "size": 1,
      "price": "1011000000000000000000",
      "reserved": "0x7a9fe22691c811ea339d9b73150e6911a5343dca",
      "salt": "0xe91c9d0cd3d5b974ea48e14cf9306206b99e86f00c35c42c4f1995a3b7e94d9c",
      "assetIds": []
    },
    {
      "x": 15,
      "y": 87,
      "size": 1,
      "price": "1011000000000000000000",
      "reserved": "",
      "salt": "0x75b80cb33edd7d2c78eb95a6373037edcced1072adae01fe2d57cb5912a3133f",
      "assetIds": []
    },
    {
      "x": 16,
      "y": 57,
      "size": 1,
      "price": "4683000000000000000000",
      "reserved": "",
      "salt": "0x71b4b9d15d077be25e6392b37510fb2c44c27e07ecbd2688f82d30f4e47d8481",
      "assetIds": [
        "55464657044963196816950587289035428064568320970692304673817341489687933519876",
        "55464657044963196816950587289035428064568320970692304673817341489687933519880",
        "55464657044963196816950587289035428064568320970692304673817341489687933519882",
        "55464657044963196816950587289035428064568320970692304673817341489687933519886",
        "55464657044963196816950587289035428064568320970692304673817341489687933519883"
      ]
    },
    {
      "x": 16,
      "y": 58,
      "size": 1,
      "price": "4683000000000000000000",
      "reserved": "",
      "salt": "0x9ec6b00aee42421f75898b7ad031d93abcd4456b27e6996da2af21ad696639cd",
      "assetIds": [
        "55464657044963196816950587289035428064568320970692304673817341489687933519876",
        "55464657044963196816950587289035428064568320970692304673817341489687933519880",
        "55464657044963196816950587289035428064568320970692304673817341489687933519882",
        "55464657044963196816950587289035428064568320970692304673817341489687933519886",
        "55464657044963196816950587289035428064568320970692304673817341489687933519883"
      ]
    },
    {
      "x": 16,
      "y": 59,
      "size": 1,
      "price": "4683000000000000000000",
      "reserved": "",
      "salt": "0xd96cc2cff2ea5748b971abe5a5e60aecf3bcce711c283f6730f709956636aa91",
      "assetIds": [
        "55464657044963196816950587289035428064568320970692304673817341489687933519876",
        "55464657044963196816950587289035428064568320970692304673817341489687933519880",
        "55464657044963196816950587289035428064568320970692304673817341489687933519882",
        "55464657044963196816950587289035428064568320970692304673817341489687933519886",
        "55464657044963196816950587289035428064568320970692304673817341489687933519883"
      ]
    },
    {
      "x": 16,
      "y": 60,
      "size": 1,
      "price": "4683000000000000000000",
      "reserved": "",
      "salt": "0x3a706ff2ec64d34d8e5a38807e9c6af6bfb01f9ca3dcf364e216234d23fbfabf",
      "assetIds": [
        "55464657044963196816950587289035428064568320970692304673817341489687933519876",
        "55464657044963196816950587289035428064568320970692304673817341489687933519880",
        "55464657044963196816950587289035428064568320970692304673817341489687933519882",
        "55464657044963196816950587289035428064568320970692304673817341489687933519886",
        "55464657044963196816950587289035428064568320970692304673817341489687933519883"
      ]
    },
    {
      "x": 16,
      "y": 61,
      "size": 1,
      "price": "4683000000000000000000",
      "reserved": "",
      "salt": "0x6493807dabb38a603014447bce3f1b86175bf0e9b2cca1fb732d168a491e7b04",
      "assetIds": [
        "55464657044963196816950587289035428064568320970692304673817341489687933519876",
        "55464657044963196816950587289035428064568320970692304673817341489687933519880",
        "55464657044963196816950587289035428064568320970692304673817341489687933519882",
        "55464657044963196816950587289035428064568320970692304673817341489687933519886",
        "55464657044963196816950587289035428064568320970692304673817341489687933519883"
      ]
    },
    {
      "x": 16,
      "y": 62,
      "size": 1,
      "price": "4683000000000000000000",
      "reserved": "",
      "salt": "0x60cb077d68ff3a3055a7573a49d99eb1926b8dcf80bc736623531480c41cad82",
      "assetIds": [
        "55464657044963196816950587289035428064568320970692304673817341489687933519876",
        "55464657044963196816950587289035428064568320970692304673817341489687933519880",
        "55464657044963196816950587289035428064568320970692304673817341489687933519882",
        "55464657044963196816950587289035428064568320970692304673817341489687933519886",
        "55464657044963196816950587289035428064568320970692304673817341489687933519883"
      ]
    },
    {
      "x": 16,
      "y": 63,
      "size": 1,
      "price": "4683000000000000000000",
      "reserved": "",
      "salt": "0xb2c8ac68d2669eac3de66ac828d7383ac460764478a113ef2f40c9ce8aeffe04",
      "assetIds": [
        "55464657044963196816950587289035428064568320970692304673817341489687933519876",
        "55464657044963196816950587289035428064568320970692304673817341489687933519880",
        "55464657044963196816950587289035428064568320970692304673817341489687933519882",
        "55464657044963196816950587289035428064568320970692304673817341489687933519886",
        "55464657044963196816950587289035428064568320970692304673817341489687933519883"
      ]
    },
    {
      "x": 16,
      "y": 64,
      "size": 1,
      "price": "4683000000000000000000",
      "reserved": "",
      "salt": "0x2aee12965ce73dd49e217488bbf76f53454b9e845c3ba99bb091d1d7bad0987b",
      "assetIds": [
        "55464657044963196816950587289035428064568320970692304673817341489687933519876",
        "55464657044963196816950587289035428064568320970692304673817341489687933519880",
        "55464657044963196816950587289035428064568320970692304673817341489687933519882",
        "55464657044963196816950587289035428064568320970692304673817341489687933519886",
        "55464657044963196816950587289035428064568320970692304673817341489687933519883"
      ]
    },
    {
      "x": 16,
      "y": 65,
      "size": 1,
      "price": "4683000000000000000000",
      "reserved": "",
      "salt": "0x985e2d6cf2cacb5a8345f791b3bc587f6d5c8b0744dc940856259898c3a63932",
      "assetIds": [
        "55464657044963196816950587289035428064568320970692304673817341489687933519876",
        "55464657044963196816950587289035428064568320970692304673817341489687933519880",
        "55464657044963196816950587289035428064568320970692304673817341489687933519882",
        "55464657044963196816950587289035428064568320970692304673817341489687933519886",
        "55464657044963196816950587289035428064568320970692304673817341489687933519883"
      ]
    },
    {
      "x": 16,
      "y": 66,
      "size": 1,
      "price": "4683000000000000000000",
      "reserved": "",
      "salt": "0xaf0fa631ae6d398ea1e0d395ed85efffee51917e26166450e0d2f9e247e8c0fd",
      "assetIds": [
        "55464657044963196816950587289035428064568320970692304673817341489687933519876",
        "55464657044963196816950587289035428064568320970692304673817341489687933519880",
        "55464657044963196816950587289035428064568320970692304673817341489687933519882",
        "55464657044963196816950587289035428064568320970692304673817341489687933519886",
        "55464657044963196816950587289035428064568320970692304673817341489687933519883"
      ]
    },
    {
      "x": 16,
      "y": 67,
      "size": 1,
      "price": "1011000000000000000000",
      "reserved": "",
      "salt": "0xd90c1746070429c93e44b4e6a2e054d2dc3d360ac75f9676ee91d96819c60814",
      "assetIds": []
    },
    {
      "x": 16,
      "y": 68,
      "size": 1,
      "price": "1011000000000000000000",
      "reserved": "",
      "salt": "0xaf0f04af5d8c02a27d51c8dc191b8c7f784cdf52fc5c8dfdc2e4d9372f4129a1",
      "assetIds": []
    },
    {
      "x": 16,
      "y": 69,
      "size": 1,
      "price": "1011000000000000000000",
      "reserved": "",
      "salt": "0x0d4e560b3c3519b5341b85d06297e158d9024f7a0721783fc639d422d0656546",
      "assetIds": []
    },
    {
      "x": 16,
      "y": 70,
      "size": 1,
      "price": "1011000000000000000000",
      "reserved": "",
      "salt": "0xc34179d8f4e5479203b15bd55f9ed3f9f0ea61457c7253df7dec19e153552ecd",
      "assetIds": []
    },
    {
      "x": 16,
      "y": 71,
      "size": 1,
      "price": "1011000000000000000000",
      "reserved": "",
      "salt": "0xabede332869988368715d1f6c52c7d243c12608645e64c11d58dc59c51fedc9f",
      "assetIds": []
    },
    {
      "x": 16,
      "y": 78,
      "size": 1,
      "price": "1011000000000000000000",
      "reserved": "",
      "salt": "0x01d99791274e09ad48d4e1d4f7bea5dc43bc7d973ad0577e76d5316370364479",
      "assetIds": []
    },
    {
      "x": 16,
      "y": 79,
      "size": 1,
      "price": "1011000000000000000000",
      "reserved": "",
      "salt": "0xc1715ecf46e0ebaaa2a7b113206a11742746401565078deae4d6f458af1f1751",
      "assetIds": []
    },
    {
      "x": 16,
      "y": 80,
      "size": 1,
      "price": "1011000000000000000000",
      "reserved": "",
      "salt": "0xff7b3b30074f7e912e0f5d7b6c1c5394152693e4cdc546d7f715338f49e2592e",
      "assetIds": []
    },
    {
      "x": 16,
      "y": 81,
      "size": 1,
      "price": "1011000000000000000000",
      "reserved": "0x7a9fe22691c811ea339d9b73150e6911a5343dca",
      "salt": "0x25ba3e3e4eb44fc00de07d885cd16e71dfb4b1a47e34add130bdd77b48e83766",
      "assetIds": []
    },
    {
      "x": 16,
      "y": 82,
      "size": 1,
      "price": "1011000000000000000000",
      "reserved": "",
      "salt": "0x124e235232a7e6b7beb0fff743e4ce0fe8e1915e26ffb5c6f3f9eb00e3902be0",
      "assetIds": []
    },
    {
      "x": 16,
      "y": 83,
      "size": 1,
      "price": "1011000000000000000000",
      "reserved": "",
      "salt": "0x7e37b172ab0ecaeec8accd86d5aad6c13c5e9dca5cf3b7e01e862f3a3e1e3fcf",
      "assetIds": []
    },
    {
      "x": 16,
      "y": 84,
      "size": 1,
      "price": "1011000000000000000000",
      "reserved": "",
      "salt": "0x2eb18dd18b543044e62aca1abd9caa83e2849ce857629e1d4c6f42f36208d3b0",
      "assetIds": []
    },
    {
      "x": 16,
      "y": 85,
      "size": 1,
      "price": "1011000000000000000000",
      "reserved": "0x7a9fe22691c811ea339d9b73150e6911a5343dca",
      "salt": "0x85f283dea85b97aedbeae679c9c1849f6b844e31649fd32988fdbc6771c5b0c2",
      "assetIds": []
    },
    {
      "x": 16,
      "y": 86,
      "size": 1,
      "price": "1011000000000000000000",
      "reserved": "",
      "salt": "0xd4048d11fea3a8e705e4027a01855a547d870803eb0c42c6f4007b14d75528b6",
      "assetIds": []
    },
    {
      "x": 16,
      "y": 87,
      "size": 1,
      "price": "1011000000000000000000",
      "reserved": "",
      "salt": "0xe537481173c1c97f6d19a4b550a5bb99f9e19c00e8df66b33b49a2c91826cc90",
      "assetIds": []
    },
    {
      "x": 17,
      "y": 60,
      "size": 1,
      "price": "4683000000000000000000",
      "reserved": "",
      "salt": "0x8db35e8a6c7ca95bc384668622e2cf0e7e008cad320cc705ddaaecda8a97c79c",
      "assetIds": [
        "55464657044963196816950587289035428064568320970692304673817341489687933519876",
        "55464657044963196816950587289035428064568320970692304673817341489687933519880",
        "55464657044963196816950587289035428064568320970692304673817341489687933519882",
        "55464657044963196816950587289035428064568320970692304673817341489687933519886",
        "55464657044963196816950587289035428064568320970692304673817341489687933519883"
      ]
    },
    {
      "x": 17,
      "y": 61,
      "size": 1,
      "price": "4683000000000000000000",
      "reserved": "",
      "salt": "0x4845a6182308c2e06ee56e58c4bbba4c76cbf87a829ac6afde813f5ca8d9ce9a",
      "assetIds": [
        "55464657044963196816950587289035428064568320970692304673817341489687933519876",
        "55464657044963196816950587289035428064568320970692304673817341489687933519880",
        "55464657044963196816950587289035428064568320970692304673817341489687933519882",
        "55464657044963196816950587289035428064568320970692304673817341489687933519886",
        "55464657044963196816950587289035428064568320970692304673817341489687933519883"
      ]
    },
    {
      "x": 17,
      "y": 62,
      "size": 1,
      "price": "4683000000000000000000",
      "reserved": "",
      "salt": "0x651509f57a8731c78ddffaafe76efda6689218f77140227efb47f22c6f35c393",
      "assetIds": [
        "55464657044963196816950587289035428064568320970692304673817341489687933519876",
        "55464657044963196816950587289035428064568320970692304673817341489687933519880",
        "55464657044963196816950587289035428064568320970692304673817341489687933519882",
        "55464657044963196816950587289035428064568320970692304673817341489687933519886",
        "55464657044963196816950587289035428064568320970692304673817341489687933519883"
      ]
    },
    {
      "x": 17,
      "y": 63,
      "size": 1,
      "price": "1011000000000000000000",
      "reserved": "0x7a9fe22691c811ea339d9b73150e6911a5343dca",
      "salt": "0x1d867237bc143969888cdb77ea75c52c750d038831e9785e889685abcaa77b32",
      "assetIds": []
    },
    {
      "x": 17,
      "y": 64,
      "size": 1,
      "price": "4683000000000000000000",
      "reserved": "",
      "salt": "0x50fd81915ff55400cb87c8c3b4bd7abde6729cc6b40b4ac6be929f8572c225b2",
      "assetIds": [
        "55464657044963196816950587289035428064568320970692304673817341489687933519876",
        "55464657044963196816950587289035428064568320970692304673817341489687933519880",
        "55464657044963196816950587289035428064568320970692304673817341489687933519882",
        "55464657044963196816950587289035428064568320970692304673817341489687933519886",
        "55464657044963196816950587289035428064568320970692304673817341489687933519883"
      ]
    },
    {
      "x": 17,
      "y": 65,
      "size": 1,
      "price": "4683000000000000000000",
      "reserved": "",
      "salt": "0x7b6429e3198a4f0219f37ea486a05cf374808292fa26f493a0d5df3fab865054",
      "assetIds": [
        "55464657044963196816950587289035428064568320970692304673817341489687933519876",
        "55464657044963196816950587289035428064568320970692304673817341489687933519880",
        "55464657044963196816950587289035428064568320970692304673817341489687933519882",
        "55464657044963196816950587289035428064568320970692304673817341489687933519886",
        "55464657044963196816950587289035428064568320970692304673817341489687933519883"
      ]
    },
    {
      "x": 17,
      "y": 66,
      "size": 1,
      "price": "1011000000000000000000",
      "reserved": "0x7a9fe22691c811ea339d9b73150e6911a5343dca",
      "salt": "0x695951df0401be169938afaacfddea685acf91206be9d027cdeea4522a1588b2",
      "assetIds": []
    },
    {
      "x": 17,
      "y": 67,
      "size": 1,
      "price": "1011000000000000000000",
      "reserved": "",
      "salt": "0x4568bfa620147ad2a2107e9512354ed07f35dcedc6aca94988634186526ad815",
      "assetIds": []
    },
    {
      "x": 17,
      "y": 68,
      "size": 1,
      "price": "1011000000000000000000",
      "reserved": "",
      "salt": "0xf7c3bc9587f185a5f5543309a84af8ca1a7c540f302dde6a5a99a21d48afbc08",
      "assetIds": []
    },
    {
      "x": 17,
      "y": 69,
      "size": 1,
      "price": "1011000000000000000000",
      "reserved": "",
      "salt": "0x14798b5330b4df3cabf6142a6ddb584899e4ea8aca6c5797576e340d19afd6d4",
      "assetIds": []
    },
    {
      "x": 17,
      "y": 70,
      "size": 1,
      "price": "1011000000000000000000",
      "reserved": "0x7a9fe22691c811ea339d9b73150e6911a5343dca",
      "salt": "0x51605d92cce0c649143c1779c90c48cc697e350481436793b682740f1ada63a4",
      "assetIds": []
    },
    {
      "x": 17,
      "y": 71,
      "size": 1,
      "price": "1011000000000000000000",
      "reserved": "",
      "salt": "0x6f59e4ebb4c10ba0375dccedbc5d5e5a7d35428d653f4b2a8e9f3fcffbc88b93",
      "assetIds": []
    },
    {
      "x": 17,
      "y": 78,
      "size": 1,
      "price": "1011000000000000000000",
      "reserved": "",
      "salt": "0xad241c695c6b994021aa6bb037ea491a1dc82978c3dd13e4bcfdc2fc9bff632d",
      "assetIds": []
    },
    {
      "x": 17,
      "y": 79,
      "size": 1,
      "price": "1011000000000000000000",
      "reserved": "",
      "salt": "0xae436c5b68cb47042fd456a3bc54fe9cc43ff6e784861c4f6c5d00c57a8502b8",
      "assetIds": []
    },
    {
      "x": 17,
      "y": 80,
      "size": 1,
      "price": "1011000000000000000000",
      "reserved": "",
      "salt": "0x54c59341acebef0bf13f77249dc720c36290902524b8129802a6ee6add1d4905",
      "assetIds": []
    },
    {
      "x": 17,
      "y": 81,
      "size": 1,
      "price": "1011000000000000000000",
      "reserved": "",
      "salt": "0x231df59937494885678fdf57ec5adf97851cc88da89806b20decad986e64c206",
      "assetIds": []
    },
    {
      "x": 17,
      "y": 82,
      "size": 1,
      "price": "1011000000000000000000",
      "reserved": "",
      "salt": "0xa6a7e91b344eeec1d7d16e2511fdf021f4b49a8a4fabc7dff2d8eadefaa9ad7d",
      "assetIds": []
    },
    {
      "x": 17,
      "y": 83,
      "size": 1,
      "price": "1011000000000000000000",
      "reserved": "0x7a9fe22691c811ea339d9b73150e6911a5343dca",
      "salt": "0xdb239eadadeb67f5a1852bf3f4c6570bb731379b8b1cd01e4a25a2f0bef5bbae",
      "assetIds": []
    },
    {
      "x": 17,
      "y": 84,
      "size": 1,
      "price": "1011000000000000000000",
      "reserved": "",
      "salt": "0x06f7f5d2f6c46226caba98b1112e5ae4d9f149ccdf8eb4b679aebcbb2f7b7d51",
      "assetIds": []
    },
    {
      "x": 17,
      "y": 85,
      "size": 1,
      "price": "1011000000000000000000",
      "reserved": "",
      "salt": "0x657bfffb27598bf5b666b994ac5c710856c8596d91ebd55091d321ca82c41e17",
      "assetIds": []
    },
    {
      "x": 17,
      "y": 86,
      "size": 1,
      "price": "1011000000000000000000",
      "reserved": "",
      "salt": "0xe5689ecb7fb9b50af5e48e97ba4402a27a6524dda2b756f08b5179e3007ae401",
      "assetIds": []
    },
    {
      "x": 17,
      "y": 87,
      "size": 1,
      "price": "1011000000000000000000",
      "reserved": "",
      "salt": "0x8cdca15b20f46f43749373f4f74d876448b09bbced5dc8b770d856e32ba36f65",
      "assetIds": []
    },
    {
      "x": 18,
      "y": 60,
      "size": 1,
      "price": "4683000000000000000000",
      "reserved": "",
      "salt": "0x9c7f1cdab3816ebd6bcbc76ce8d5efb6f31501864274de88763dbfbae55f8b22",
      "assetIds": [
        "55464657044963196816950587289035428064568320970692304673817341489687933519876",
        "55464657044963196816950587289035428064568320970692304673817341489687933519880",
        "55464657044963196816950587289035428064568320970692304673817341489687933519882",
        "55464657044963196816950587289035428064568320970692304673817341489687933519886",
        "55464657044963196816950587289035428064568320970692304673817341489687933519883"
      ]
    },
    {
      "x": 18,
      "y": 61,
      "size": 1,
      "price": "4683000000000000000000",
      "reserved": "",
      "salt": "0x7c76ac0776d032f71fbb45461a187d7eb69b0f6dbb31510adbd164954443ecae",
      "assetIds": [
        "55464657044963196816950587289035428064568320970692304673817341489687933519876",
        "55464657044963196816950587289035428064568320970692304673817341489687933519880",
        "55464657044963196816950587289035428064568320970692304673817341489687933519882",
        "55464657044963196816950587289035428064568320970692304673817341489687933519886",
        "55464657044963196816950587289035428064568320970692304673817341489687933519883"
      ]
    },
    {
      "x": 18,
      "y": 62,
      "size": 1,
      "price": "4683000000000000000000",
      "reserved": "",
      "salt": "0x1989cb1ab37fc9eed516cf9a30f80ca9cf6859d50e49abefeee1f2f48cf92fe3",
      "assetIds": [
        "55464657044963196816950587289035428064568320970692304673817341489687933519876",
        "55464657044963196816950587289035428064568320970692304673817341489687933519880",
        "55464657044963196816950587289035428064568320970692304673817341489687933519882",
        "55464657044963196816950587289035428064568320970692304673817341489687933519886",
        "55464657044963196816950587289035428064568320970692304673817341489687933519883"
      ]
    },
    {
      "x": 18,
      "y": 63,
      "size": 1,
      "price": "4683000000000000000000",
      "reserved": "",
      "salt": "0xa4fbf14cbfe650dd392491be9f9f0743c9a8c62a3dbd3e18f2fe029a8f30bb42",
      "assetIds": [
        "55464657044963196816950587289035428064568320970692304673817341489687933519876",
        "55464657044963196816950587289035428064568320970692304673817341489687933519880",
        "55464657044963196816950587289035428064568320970692304673817341489687933519882",
        "55464657044963196816950587289035428064568320970692304673817341489687933519886",
        "55464657044963196816950587289035428064568320970692304673817341489687933519883"
      ]
    },
    {
      "x": 18,
      "y": 64,
      "size": 1,
      "price": "4683000000000000000000",
      "reserved": "",
      "salt": "0x01e7ce8ab444a3c0b63a022b8212884bbdae5c149641d91095a465e85ca91008",
      "assetIds": [
        "55464657044963196816950587289035428064568320970692304673817341489687933519876",
        "55464657044963196816950587289035428064568320970692304673817341489687933519880",
        "55464657044963196816950587289035428064568320970692304673817341489687933519882",
        "55464657044963196816950587289035428064568320970692304673817341489687933519886",
        "55464657044963196816950587289035428064568320970692304673817341489687933519883"
      ]
    },
    {
      "x": 18,
      "y": 65,
      "size": 1,
      "price": "4683000000000000000000",
      "reserved": "",
      "salt": "0xbbc0ffa164c336b93d737f7190d98f887cad29ae89eec6e7b1afb5a34356eed8",
      "assetIds": [
        "55464657044963196816950587289035428064568320970692304673817341489687933519876",
        "55464657044963196816950587289035428064568320970692304673817341489687933519880",
        "55464657044963196816950587289035428064568320970692304673817341489687933519882",
        "55464657044963196816950587289035428064568320970692304673817341489687933519886",
        "55464657044963196816950587289035428064568320970692304673817341489687933519883"
      ]
    },
    {
      "x": 18,
      "y": 66,
      "size": 1,
      "price": "4683000000000000000000",
      "reserved": "",
      "salt": "0x313635b5d168c29684ea34424a21881dba4b6934824234caaad1a92192813ca0",
      "assetIds": [
        "55464657044963196816950587289035428064568320970692304673817341489687933519876",
        "55464657044963196816950587289035428064568320970692304673817341489687933519880",
        "55464657044963196816950587289035428064568320970692304673817341489687933519882",
        "55464657044963196816950587289035428064568320970692304673817341489687933519886",
        "55464657044963196816950587289035428064568320970692304673817341489687933519883"
      ]
    },
    {
      "x": 18,
      "y": 67,
      "size": 1,
      "price": "4683000000000000000000",
      "reserved": "",
      "salt": "0x0c5b50e0ab58a4cd1286b906330943f15061bfe54f47fd72242162eebcc30ba8",
      "assetIds": [
        "55464657044963196816950587289035428064568320970692304673817341489687933519876",
        "55464657044963196816950587289035428064568320970692304673817341489687933519880",
        "55464657044963196816950587289035428064568320970692304673817341489687933519882",
        "55464657044963196816950587289035428064568320970692304673817341489687933519886",
        "55464657044963196816950587289035428064568320970692304673817341489687933519883"
      ]
    },
    {
      "x": 18,
      "y": 68,
      "size": 1,
      "price": "1011000000000000000000",
      "reserved": "",
      "salt": "0xb142862c59e617f6e3b8cc0e85c5c561cf8bc14740f85d1653f0e3f25ca08ba4",
      "assetIds": []
    },
    {
      "x": 18,
      "y": 69,
      "size": 1,
      "price": "1011000000000000000000",
      "reserved": "",
      "salt": "0xa467e24790588b6fdac8e70a9330e5a2bd4dc9c3de414b9cf0c38c8ff7c797b8",
      "assetIds": []
    },
    {
      "x": 18,
      "y": 70,
      "size": 1,
      "price": "1011000000000000000000",
      "reserved": "",
      "salt": "0x6ec5dd19e85308bb50f127878103aa62dadd10b8fd8e76347cf5e6e48299bbae",
      "assetIds": []
    },
    {
      "x": 18,
      "y": 71,
      "size": 1,
      "price": "1011000000000000000000",
      "reserved": "",
      "salt": "0x2f5fc15dcb0e9e54f47d9548d21c588d4b2f0aaa03ee07a54b28a4f818d70cfb",
      "assetIds": []
    },
    {
      "x": 18,
      "y": 75,
      "size": 1,
      "price": "1011000000000000000000",
      "reserved": "",
      "salt": "0xe9089ae528bf631e10794873e234b90e51d17f19bf8e278c7e6a752645989baa",
      "assetIds": []
    },
    {
      "x": 18,
      "y": 76,
      "size": 1,
      "price": "1011000000000000000000",
      "reserved": "",
      "salt": "0x2164bd5484ca1751c8bae0c52a1e27997b15e313290e229de13e6e91055ac630",
      "assetIds": []
    },
    {
      "x": 18,
      "y": 77,
      "size": 1,
      "price": "1011000000000000000000",
      "reserved": "",
      "salt": "0x23b9b4c227c5212d04141f9b49ade90a188d10f50296f5462ca682bccc4a7e8b",
      "assetIds": []
    },
    {
      "x": 18,
      "y": 78,
      "size": 1,
      "price": "1011000000000000000000",
      "reserved": "",
      "salt": "0x99847ea6bfa7b5110c7f579d76cadbc234784f939eaad4658847b293321d47f9",
      "assetIds": []
    },
    {
      "x": 18,
      "y": 79,
      "size": 1,
      "price": "1011000000000000000000",
      "reserved": "0x7a9fe22691c811ea339d9b73150e6911a5343dca",
      "salt": "0x7872adf31b066bae45a224b111d71a8e3d43a047ff14aa5e1640ce656ab94753",
      "assetIds": []
    },
    {
      "x": 18,
      "y": 80,
      "size": 1,
      "price": "1011000000000000000000",
      "reserved": "",
      "salt": "0x2c27028df91ea2a4b15f306632fb6440730ff45a96dc6669c0975ac2bac0bee0",
      "assetIds": []
    },
    {
      "x": 18,
      "y": 81,
      "size": 1,
      "price": "1011000000000000000000",
      "reserved": "",
      "salt": "0xcb4da300a328b69467d160d2f6ef88820e7e84666703c4177a942dd56b77d2be",
      "assetIds": []
    },
    {
      "x": 18,
      "y": 82,
      "size": 1,
      "price": "1011000000000000000000",
      "reserved": "0x7a9fe22691c811ea339d9b73150e6911a5343dca",
      "salt": "0x66e14b16cc2ba53744f0de9e5fbee4630a27b189be80d74491682664e1770e9a",
      "assetIds": []
    },
    {
      "x": 18,
      "y": 83,
      "size": 1,
      "price": "1011000000000000000000",
      "reserved": "",
      "salt": "0xf7776755e322b57ea43441c471299d1cb3782a3417c67446f8ee594946432363",
      "assetIds": []
    },
    {
      "x": 19,
      "y": 60,
      "size": 1,
      "price": "4683000000000000000000",
      "reserved": "",
      "salt": "0xe04ec1186da75426f79373d702189e76423cc514f92345f08017ef720455f718",
      "assetIds": [
        "55464657044963196816950587289035428064568320970692304673817341489687933519876",
        "55464657044963196816950587289035428064568320970692304673817341489687933519880",
        "55464657044963196816950587289035428064568320970692304673817341489687933519882",
        "55464657044963196816950587289035428064568320970692304673817341489687933519886",
        "55464657044963196816950587289035428064568320970692304673817341489687933519883"
      ]
    },
    {
      "x": 19,
      "y": 61,
      "size": 1,
      "price": "4683000000000000000000",
      "reserved": "",
      "salt": "0x3ad563b0a533b31af548f2a44b943e2ada284e68b18c8cd9396b7f9f77d39264",
      "assetIds": [
        "55464657044963196816950587289035428064568320970692304673817341489687933519876",
        "55464657044963196816950587289035428064568320970692304673817341489687933519880",
        "55464657044963196816950587289035428064568320970692304673817341489687933519882",
        "55464657044963196816950587289035428064568320970692304673817341489687933519886",
        "55464657044963196816950587289035428064568320970692304673817341489687933519883"
      ]
    },
    {
      "x": 19,
      "y": 62,
      "size": 1,
      "price": "4683000000000000000000",
      "reserved": "",
      "salt": "0xd7e3c0e759d2e20195959e2e9a8b87eacca4f582fdd28583a760e4b839a15965",
      "assetIds": [
        "55464657044963196816950587289035428064568320970692304673817341489687933519876",
        "55464657044963196816950587289035428064568320970692304673817341489687933519880",
        "55464657044963196816950587289035428064568320970692304673817341489687933519882",
        "55464657044963196816950587289035428064568320970692304673817341489687933519886",
        "55464657044963196816950587289035428064568320970692304673817341489687933519883"
      ]
    },
    {
      "x": 19,
      "y": 63,
      "size": 1,
      "price": "4683000000000000000000",
      "reserved": "",
      "salt": "0x7985ed648c6fd2c63b8e602aa9aa42820d96aa3b1909183d2ea4ed1e25c57e36",
      "assetIds": [
        "55464657044963196816950587289035428064568320970692304673817341489687933519876",
        "55464657044963196816950587289035428064568320970692304673817341489687933519880",
        "55464657044963196816950587289035428064568320970692304673817341489687933519882",
        "55464657044963196816950587289035428064568320970692304673817341489687933519886",
        "55464657044963196816950587289035428064568320970692304673817341489687933519883"
      ]
    },
    {
      "x": 19,
      "y": 64,
      "size": 1,
      "price": "4683000000000000000000",
      "reserved": "",
      "salt": "0xe32ee71f49a50c0d2daf8390c7a0582bb5d0c9f2311985e44074e174185204c2",
      "assetIds": [
        "55464657044963196816950587289035428064568320970692304673817341489687933519876",
        "55464657044963196816950587289035428064568320970692304673817341489687933519880",
        "55464657044963196816950587289035428064568320970692304673817341489687933519882",
        "55464657044963196816950587289035428064568320970692304673817341489687933519886",
        "55464657044963196816950587289035428064568320970692304673817341489687933519883"
      ]
    },
    {
      "x": 19,
      "y": 65,
      "size": 1,
      "price": "4683000000000000000000",
      "reserved": "",
      "salt": "0xfcc1bcc35525dde3f9449788dd78316615c3252412e4e3f6d3423d369582576c",
      "assetIds": [
        "55464657044963196816950587289035428064568320970692304673817341489687933519876",
        "55464657044963196816950587289035428064568320970692304673817341489687933519880",
        "55464657044963196816950587289035428064568320970692304673817341489687933519882",
        "55464657044963196816950587289035428064568320970692304673817341489687933519886",
        "55464657044963196816950587289035428064568320970692304673817341489687933519883"
      ]
    },
    {
      "x": 19,
      "y": 66,
      "size": 1,
      "price": "1011000000000000000000",
      "reserved": "",
      "salt": "0xd4c6fd1f6610b4aec24a933a508e9c2765606b4f055065c8206f5b44c67d51a3",
      "assetIds": []
    },
    {
      "x": 19,
      "y": 67,
      "size": 1,
      "price": "1011000000000000000000",
      "reserved": "",
      "salt": "0x2fb1ceff63c103c27263ff6dc6bc58063bd973bae87d4db8114ab563dbd1a911",
      "assetIds": []
    },
    {
      "x": 19,
      "y": 68,
      "size": 1,
      "price": "1011000000000000000000",
      "reserved": "",
      "salt": "0x53fbdd351c9d4689498328f9f7653c446eef66065e424cb13587344828b9c0b6",
      "assetIds": []
    },
    {
      "x": 19,
      "y": 69,
      "size": 1,
      "price": "1011000000000000000000",
      "reserved": "",
      "salt": "0x921340b48b6670ebbe8a9b8553ab934ec0a3701eee70824fcde8185d30fd11b4",
      "assetIds": []
    },
    {
      "x": 19,
      "y": 70,
      "size": 1,
      "price": "1011000000000000000000",
      "reserved": "",
      "salt": "0x6ca74ada03ded4f438d04258c2ccdf6e6163c7bd5ce1c8b44a3b6bf5d5ae8e70",
      "assetIds": []
    },
    {
      "x": 19,
      "y": 71,
      "size": 1,
      "price": "1011000000000000000000",
      "reserved": "",
      "salt": "0xcd9aecbb183f91b7fbc5de4c1c357b5564e27a12fa16cb8a9a96e862395f68f2",
      "assetIds": []
    },
    {
      "x": 19,
      "y": 75,
      "size": 1,
      "price": "1011000000000000000000",
      "reserved": "0x7a9fe22691c811ea339d9b73150e6911a5343dca",
      "salt": "0x2ad29fd1a8771ce316ef63729feb05bce43d25ad9d6a85c98052a149f0d7b921",
      "assetIds": []
    },
    {
      "x": 19,
      "y": 76,
      "size": 1,
      "price": "1011000000000000000000",
      "reserved": "",
      "salt": "0x737bc47b569d3002fb59eecd79b93e6a3ae73fa2a6f4e8a10d5bcbcf15013e10",
      "assetIds": []
    },
    {
      "x": 19,
      "y": 77,
      "size": 1,
      "price": "1011000000000000000000",
      "reserved": "",
      "salt": "0x8b4cfb661221ce8cb7b7d9e9918a8260e10b9d417563ed1140cdf5de33f9b887",
      "assetIds": []
    },
    {
      "x": 19,
      "y": 78,
      "size": 1,
      "price": "1011000000000000000000",
      "reserved": "0x7a9fe22691c811ea339d9b73150e6911a5343dca",
      "salt": "0x91d976ce3bf22c1295baa9e2ddc436a8baf400787e351de24445787af071cba4",
      "assetIds": []
    },
    {
      "x": 19,
      "y": 79,
      "size": 1,
      "price": "1011000000000000000000",
      "reserved": "",
      "salt": "0x683707e8be2d9da77337808c2b9e45f264fea15dc39b14a933c7343063090e33",
      "assetIds": []
    },
    {
      "x": 19,
      "y": 80,
      "size": 1,
      "price": "1011000000000000000000",
      "reserved": "",
      "salt": "0x69eb5ac8e324eba1448bf959dc93b6d7832933c64353cedb2d8c7d52fcaef3ae",
      "assetIds": []
    },
    {
      "x": 19,
      "y": 81,
      "size": 1,
      "price": "1011000000000000000000",
      "reserved": "",
      "salt": "0xbcf3a96d6712b952b2a3f5883241307989628fdf9e9f35211fc503c8e948dbc3",
      "assetIds": []
    },
    {
      "x": 19,
      "y": 82,
      "size": 1,
      "price": "1011000000000000000000",
      "reserved": "",
      "salt": "0x8a8b23a31a9ba8119df78d8d4b0705ba7fe5fc4de7ccb3560336a0e619670483",
      "assetIds": []
    },
    {
      "x": 19,
      "y": 83,
      "size": 1,
      "price": "1011000000000000000000",
      "reserved": "",
      "salt": "0xb28f98dc3992ea7f06af823a73cb52a988bac4f7cea0ebe1a2f1b3e922e9761a",
      "assetIds": []
    },
    {
      "x": 20,
      "y": 60,
      "size": 1,
      "price": "1011000000000000000000",
      "reserved": "0x7a9fe22691c811ea339d9b73150e6911a5343dca",
      "salt": "0xc1eb6de6b90d7d2da1b99135bb66265d3ffc535a19ef48cfe5e964077ef96e08",
      "assetIds": []
    },
    {
      "x": 20,
      "y": 61,
      "size": 1,
      "price": "4683000000000000000000",
      "reserved": "",
      "salt": "0x087a085d64c34f71d5d16ce2d8a7b07002d409850c24ba81b65c7940684a93e0",
      "assetIds": [
        "55464657044963196816950587289035428064568320970692304673817341489687933519876",
        "55464657044963196816950587289035428064568320970692304673817341489687933519880",
        "55464657044963196816950587289035428064568320970692304673817341489687933519882",
        "55464657044963196816950587289035428064568320970692304673817341489687933519886",
        "55464657044963196816950587289035428064568320970692304673817341489687933519883"
      ]
    },
    {
      "x": 20,
      "y": 62,
      "size": 1,
      "price": "4683000000000000000000",
      "reserved": "",
      "salt": "0x54f43aa187a4e7a58404659875425f55826ac7d81a4ea82277981c1ef3940cb0",
      "assetIds": [
        "55464657044963196816950587289035428064568320970692304673817341489687933519876",
        "55464657044963196816950587289035428064568320970692304673817341489687933519880",
        "55464657044963196816950587289035428064568320970692304673817341489687933519882",
        "55464657044963196816950587289035428064568320970692304673817341489687933519886",
        "55464657044963196816950587289035428064568320970692304673817341489687933519883"
      ]
    },
    {
      "x": 20,
      "y": 63,
      "size": 1,
      "price": "4683000000000000000000",
      "reserved": "",
      "salt": "0xbe541a84a345a5521e3f9a7bbde244682f64958d0b166726f135e6e1390958c6",
      "assetIds": [
        "55464657044963196816950587289035428064568320970692304673817341489687933519876",
        "55464657044963196816950587289035428064568320970692304673817341489687933519880",
        "55464657044963196816950587289035428064568320970692304673817341489687933519882",
        "55464657044963196816950587289035428064568320970692304673817341489687933519886",
        "55464657044963196816950587289035428064568320970692304673817341489687933519883"
      ]
    },
    {
      "x": 20,
      "y": 64,
      "size": 1,
      "price": "4683000000000000000000",
      "reserved": "",
      "salt": "0xda5cab2d84ec9a872ceef8b7c8ffae85b783148339669a6cc047043fb8c616fe",
      "assetIds": [
        "55464657044963196816950587289035428064568320970692304673817341489687933519876",
        "55464657044963196816950587289035428064568320970692304673817341489687933519880",
        "55464657044963196816950587289035428064568320970692304673817341489687933519882",
        "55464657044963196816950587289035428064568320970692304673817341489687933519886",
        "55464657044963196816950587289035428064568320970692304673817341489687933519883"
      ]
    },
    {
      "x": 20,
      "y": 65,
      "size": 1,
      "price": "1011000000000000000000",
      "reserved": "0x7a9fe22691c811ea339d9b73150e6911a5343dca",
      "salt": "0xc65a16163f76392192abcfedb58c5847ea51c4fa7e42cb17c170a9101c5948da",
      "assetIds": []
    },
    {
      "x": 20,
      "y": 66,
      "size": 1,
      "price": "1011000000000000000000",
      "reserved": "",
      "salt": "0xf6060cdac931bb00b2fef4ddc287136de6a955c121bdf6ddf6bb9d88d6a3fdf3",
      "assetIds": []
    },
    {
      "x": 20,
      "y": 67,
      "size": 1,
      "price": "1011000000000000000000",
      "reserved": "",
      "salt": "0xc11692aca8c16b72efbf5abdb36b2fd89a84963983edbc8745caf4320f6c7402",
      "assetIds": []
    },
    {
      "x": 20,
      "y": 68,
      "size": 1,
      "price": "1011000000000000000000",
      "reserved": "0x7a9fe22691c811ea339d9b73150e6911a5343dca",
      "salt": "0xd5a36315ba16a383609d0121adfcf4597e0dc3f2260922be8192ad1dfeaa3996",
      "assetIds": []
    },
    {
      "x": 20,
      "y": 69,
      "size": 1,
      "price": "1011000000000000000000",
      "reserved": "",
      "salt": "0xec5fc9cb1bed6cc264e14898bddab51940b91559bc7220f6cdd778482c1a2512",
      "assetIds": []
    },
    {
      "x": 20,
      "y": 70,
      "size": 1,
      "price": "1011000000000000000000",
      "reserved": "",
      "salt": "0x7b9d84914035e5643ec783e90b3d2a44aecfc3bfed4687b68ce122a42444db31",
      "assetIds": []
    },
    {
      "x": 20,
      "y": 71,
      "size": 1,
      "price": "1011000000000000000000",
      "reserved": "",
      "salt": "0x63ab02a64c065e689c1480ec821cbb7f6681966ee0619114865ed3bce38c85eb",
      "assetIds": []
    },
    {
      "x": 20,
      "y": 75,
      "size": 1,
      "price": "1011000000000000000000",
      "reserved": "",
      "salt": "0xacafc0f23c7923060e3f31b54127329eeccb94e68574687f718509b138aa92a5",
      "assetIds": []
    },
    {
      "x": 20,
      "y": 76,
      "size": 1,
      "price": "1011000000000000000000",
      "reserved": "",
      "salt": "0x6c36aad010056278f5d148bf17f4b1802a00959f0c8fb086a1b1b5762fdb4641",
      "assetIds": []
    },
    {
      "x": 20,
      "y": 77,
      "size": 1,
      "price": "1011000000000000000000",
      "reserved": "0x7a9fe22691c811ea339d9b73150e6911a5343dca",
      "salt": "0xef466237bede36e60b7549ccd41886c282c2553bd96f520cfca610518a32d9a0",
      "assetIds": []
    },
    {
      "x": 20,
      "y": 78,
      "size": 1,
      "price": "1011000000000000000000",
      "reserved": "",
      "salt": "0x02a0c9b8dc130a64e01577be6c626fded80ab6fe549c37c903da3aee1343ce38",
      "assetIds": []
    },
    {
      "x": 20,
      "y": 79,
      "size": 1,
      "price": "1011000000000000000000",
      "reserved": "",
      "salt": "0x4d84c021a84d5a9c23b23cf2066b498467ff7c43d85386047a307887198f5536",
      "assetIds": []
    },
    {
      "x": 20,
      "y": 80,
      "size": 1,
      "price": "1011000000000000000000",
      "reserved": "",
      "salt": "0x6da828b6aaa6a521e9b028e9f8476a723c4de29c8a5b0a854992c4493efa8f07",
      "assetIds": []
    },
    {
      "x": 20,
      "y": 81,
      "size": 1,
      "price": "1011000000000000000000",
      "reserved": "0x7a9fe22691c811ea339d9b73150e6911a5343dca",
      "salt": "0x5bac5bf027e15490f1f9b27142c79b24d0d05f465d59ab434b1ec72fbc78eb5a",
      "assetIds": []
    },
    {
      "x": 20,
      "y": 82,
      "size": 1,
      "price": "1011000000000000000000",
      "reserved": "",
      "salt": "0x110849a8d7918b63679528e5fc3a10cc18504d7d7cf300279c733f8cb2ae43f5",
      "assetIds": []
    },
    {
      "x": 20,
      "y": 83,
      "size": 1,
      "price": "1011000000000000000000",
      "reserved": "",
      "salt": "0x0880ae5be14177a2abc210697f9d7c29133653b0f79649683cd172f97876e961",
      "assetIds": []
    },
    {
      "x": 21,
      "y": 60,
      "size": 1,
      "price": "4683000000000000000000",
      "reserved": "",
      "salt": "0x707698209cf3662e9d1f02848d0bb4445222a46c963ed909aa5903581a4a5af5",
      "assetIds": [
        "55464657044963196816950587289035428064568320970692304673817341489687933519876",
        "55464657044963196816950587289035428064568320970692304673817341489687933519880",
        "55464657044963196816950587289035428064568320970692304673817341489687933519882",
        "55464657044963196816950587289035428064568320970692304673817341489687933519886",
        "55464657044963196816950587289035428064568320970692304673817341489687933519883"
      ]
    },
    {
      "x": 21,
      "y": 61,
      "size": 1,
      "price": "4683000000000000000000",
      "reserved": "",
      "salt": "0xc3a807a9e17b8bcb0a30194168e9bedd0e2bf5c156d6d27aedafaa7630ec9f42",
      "assetIds": [
        "55464657044963196816950587289035428064568320970692304673817341489687933519876",
        "55464657044963196816950587289035428064568320970692304673817341489687933519880",
        "55464657044963196816950587289035428064568320970692304673817341489687933519882",
        "55464657044963196816950587289035428064568320970692304673817341489687933519886",
        "55464657044963196816950587289035428064568320970692304673817341489687933519883"
      ]
    },
    {
      "x": 21,
      "y": 62,
      "size": 1,
      "price": "4683000000000000000000",
      "reserved": "",
      "salt": "0xb0143abe5d700fe08821581af2369bf2413512e5bf0629ee87f9727e35c24e09",
      "assetIds": [
        "55464657044963196816950587289035428064568320970692304673817341489687933519876",
        "55464657044963196816950587289035428064568320970692304673817341489687933519880",
        "55464657044963196816950587289035428064568320970692304673817341489687933519882",
        "55464657044963196816950587289035428064568320970692304673817341489687933519886",
        "55464657044963196816950587289035428064568320970692304673817341489687933519883"
      ]
    },
    {
      "x": 21,
      "y": 63,
      "size": 1,
      "price": "4683000000000000000000",
      "reserved": "",
      "salt": "0x7d87338756099cdaa09fa33b3365ea73bcaa6892becb206e632be28bff85b298",
      "assetIds": [
        "55464657044963196816950587289035428064568320970692304673817341489687933519876",
        "55464657044963196816950587289035428064568320970692304673817341489687933519880",
        "55464657044963196816950587289035428064568320970692304673817341489687933519882",
        "55464657044963196816950587289035428064568320970692304673817341489687933519886",
        "55464657044963196816950587289035428064568320970692304673817341489687933519883"
      ]
    },
    {
      "x": 21,
      "y": 64,
      "size": 1,
      "price": "1011000000000000000000",
      "reserved": "",
      "salt": "0x18c66b26e792b30284e0daec6ae827632718c91ac2d69ca59278f174e0198ed9",
      "assetIds": []
    },
    {
      "x": 21,
      "y": 65,
      "size": 1,
      "price": "1011000000000000000000",
      "reserved": "0x7a9fe22691c811ea339d9b73150e6911a5343dca",
      "salt": "0xa5ae4638b297a89984106779cef1fbe9fdcf4c5feb51b76f8aff6f4dc7454216",
      "assetIds": []
    },
    {
      "x": 21,
      "y": 66,
      "size": 1,
      "price": "1011000000000000000000",
      "reserved": "",
      "salt": "0x20cb09c0e4c63a91eb23ec8045372c5aa4c9a45894df33cf921e9ecbce94143d",
      "assetIds": []
    },
    {
      "x": 21,
      "y": 67,
      "size": 1,
      "price": "1011000000000000000000",
      "reserved": "",
      "salt": "0x8c587a727941d4c95e0cad0ff9b8b00e2af8d10439cf92dbe2abc8940c58ab27",
      "assetIds": []
    },
    {
      "x": 21,
      "y": 68,
      "size": 1,
      "price": "1011000000000000000000",
      "reserved": "",
      "salt": "0x85ec30968eb93226a39b4fe43a2543a468b7a9ed5cdf54e3bde65f6d221dc72c",
      "assetIds": []
    },
    {
      "x": 21,
      "y": 69,
      "size": 1,
      "price": "1011000000000000000000",
      "reserved": "",
      "salt": "0xda4c14dfa0c7f1b23d2b312e09a6b12b0f1ad6728474b6b10d31a8a58b5645ee",
      "assetIds": []
    },
    {
      "x": 21,
      "y": 70,
      "size": 1,
      "price": "1011000000000000000000",
      "reserved": "",
      "salt": "0x7fadc1bd3667cf426ad275f655cf1cca7829d4ba8dc5707350cd2e07ba872bbf",
      "assetIds": []
    },
    {
      "x": 21,
      "y": 71,
      "size": 1,
      "price": "1011000000000000000000",
      "reserved": "",
      "salt": "0xddde509ef5a4837da5bd2bc38c85fac2b923fb2e398bc5d48c8f60baecfb1838",
      "assetIds": []
    },
    {
      "x": 21,
      "y": 72,
      "size": 1,
      "price": "1011000000000000000000",
      "reserved": "0x7a9fe22691c811ea339d9b73150e6911a5343dca",
      "salt": "0x001a47d66f00ea585e19ff3c659dfaaadc168d4df9dc25aa5651f752e5965782",
      "assetIds": []
    },
    {
      "x": 21,
      "y": 73,
      "size": 1,
      "price": "1011000000000000000000",
      "reserved": "",
      "salt": "0xc48ec5f4cfb1b1d0dcde704fa48305c775d7824096ffbf74af088586d72644b2",
      "assetIds": []
    },
    {
      "x": 21,
      "y": 74,
      "size": 1,
      "price": "1011000000000000000000",
      "reserved": "",
      "salt": "0xa3e7139a8a9ce242d3eefec05a0b893ab4d374543ed7bfcb4c9b9425ac032573",
      "assetIds": []
    },
    {
      "x": 21,
      "y": 75,
      "size": 1,
      "price": "1011000000000000000000",
      "reserved": "",
      "salt": "0x7a0121e4cb6d54792445809c029589c05320a3f4e4aa35317fb25a6111b34783",
      "assetIds": []
    },
    {
      "x": 21,
      "y": 76,
      "size": 1,
      "price": "1011000000000000000000",
      "reserved": "",
      "salt": "0x8365150fa7c1bfb6dc3ab16442d997a40dc488cc567e9690e11007957ec5b09e",
      "assetIds": []
    },
    {
      "x": 21,
      "y": 77,
      "size": 1,
      "price": "1011000000000000000000",
      "reserved": "",
      "salt": "0x8b2e18577c8e98c7786db276dafcb7daf91ae69fae09304b0f78e9033a11ca00",
      "assetIds": []
    },
    {
      "x": 21,
      "y": 78,
      "size": 1,
      "price": "1011000000000000000000",
      "reserved": "",
      "salt": "0x79068510104f2eabb8d90259275dc137051bdfe5aa7941701144731beb47bf84",
      "assetIds": []
    },
    {
      "x": 21,
      "y": 79,
      "size": 1,
      "price": "1011000000000000000000",
      "reserved": "0x7a9fe22691c811ea339d9b73150e6911a5343dca",
      "salt": "0x6a604f30151c2158ca959c9958fa0699bd7011bb6d63c551f73e022cdecba46e",
      "assetIds": []
    },
    {
      "x": 21,
      "y": 80,
      "size": 1,
      "price": "1011000000000000000000",
      "reserved": "",
      "salt": "0x2bd7eff23b355c90f20362963fb38b916cb3348f2169d913a4d53d85413e99b7",
      "assetIds": []
    },
    {
      "x": 21,
      "y": 81,
      "size": 1,
      "price": "1011000000000000000000",
      "reserved": "",
      "salt": "0x908b13bcadd1adaada6d6918e1acdd2c21008adc40695d6471dd305b2e5fecf7",
      "assetIds": []
    },
    {
      "x": 21,
      "y": 82,
      "size": 1,
      "price": "1011000000000000000000",
      "reserved": "",
      "salt": "0xe65a59a2ed51e63b1553ad4885c260578fd98fa2a7d08e3ad5a7c09260113496",
      "assetIds": []
    },
    {
      "x": 21,
      "y": 83,
      "size": 1,
      "price": "1011000000000000000000",
      "reserved": "",
      "salt": "0x8b95cf5e64c25f39e3e929bfea7628d5af8bbcf22c77495f64aa283faddc134f",
      "assetIds": []
    },
    {
      "x": 22,
      "y": 60,
      "size": 1,
      "price": "4683000000000000000000",
      "reserved": "",
      "salt": "0xe6b276605cf08055b92bbbc9442f9bfddb33c420649ea72b146521cfe62f030b",
      "assetIds": [
        "55464657044963196816950587289035428064568320970692304673817341489687933519876",
        "55464657044963196816950587289035428064568320970692304673817341489687933519880",
        "55464657044963196816950587289035428064568320970692304673817341489687933519882",
        "55464657044963196816950587289035428064568320970692304673817341489687933519886",
        "55464657044963196816950587289035428064568320970692304673817341489687933519883"
      ]
    },
    {
      "x": 22,
      "y": 61,
      "size": 1,
      "price": "4683000000000000000000",
      "reserved": "",
      "salt": "0xe412c98be52eeea041970f493272408234b0a6865ca7d73a58056c8ab3bc25ea",
      "assetIds": [
        "55464657044963196816950587289035428064568320970692304673817341489687933519876",
        "55464657044963196816950587289035428064568320970692304673817341489687933519880",
        "55464657044963196816950587289035428064568320970692304673817341489687933519882",
        "55464657044963196816950587289035428064568320970692304673817341489687933519886",
        "55464657044963196816950587289035428064568320970692304673817341489687933519883"
      ]
    },
    {
      "x": 22,
      "y": 62,
      "size": 1,
      "price": "4683000000000000000000",
      "reserved": "",
      "salt": "0x4705dd5cb2f1af00718c3105ef73d99efb33caeba512d572656afc53c16746e3",
      "assetIds": [
        "55464657044963196816950587289035428064568320970692304673817341489687933519876",
        "55464657044963196816950587289035428064568320970692304673817341489687933519880",
        "55464657044963196816950587289035428064568320970692304673817341489687933519882",
        "55464657044963196816950587289035428064568320970692304673817341489687933519886",
        "55464657044963196816950587289035428064568320970692304673817341489687933519883"
      ]
    },
    {
      "x": 22,
      "y": 63,
      "size": 1,
      "price": "4683000000000000000000",
      "reserved": "",
      "salt": "0x202c43f5a94c3c58ad95a8273e4f0f1306186d3fb8fea770da909dbe46c343b9",
      "assetIds": [
        "55464657044963196816950587289035428064568320970692304673817341489687933519876",
        "55464657044963196816950587289035428064568320970692304673817341489687933519880",
        "55464657044963196816950587289035428064568320970692304673817341489687933519882",
        "55464657044963196816950587289035428064568320970692304673817341489687933519886",
        "55464657044963196816950587289035428064568320970692304673817341489687933519883"
      ]
    },
    {
      "x": 22,
      "y": 64,
      "size": 1,
      "price": "1011000000000000000000",
      "reserved": "0x7a9fe22691c811ea339d9b73150e6911a5343dca",
      "salt": "0x105013b23b328a282f8fd4fe4be0249dddf71151884388ea97ba9381ff8566e8",
      "assetIds": []
    },
    {
      "x": 22,
      "y": 65,
      "size": 1,
      "price": "1011000000000000000000",
      "reserved": "",
      "salt": "0x98586a05f99c96f45ed194872a4b85bae4cce4f71b66cafe5354d3cf2ea92ee5",
      "assetIds": []
    },
    {
      "x": 22,
      "y": 66,
      "size": 1,
      "price": "1011000000000000000000",
      "reserved": "",
      "salt": "0x4f2b530405272781168838967516ba3c67c1fabe64718c4342dedb8ad5c63578",
      "assetIds": []
    },
    {
      "x": 22,
      "y": 67,
      "size": 1,
      "price": "1011000000000000000000",
      "reserved": "",
      "salt": "0xe0dd48b657630a75736f920d0f1338f1a1bc1ce5282ccbdf51915f21015f0da3",
      "assetIds": []
    },
    {
      "x": 22,
      "y": 68,
      "size": 1,
      "price": "1011000000000000000000",
      "reserved": "",
      "salt": "0x32a3209dff82194d828009aba83735d32298ab3bfa660e21bd8ea0c912ca9797",
      "assetIds": []
    },
    {
      "x": 22,
      "y": 69,
      "size": 1,
      "price": "1011000000000000000000",
      "reserved": "",
      "salt": "0xf7567a164d3e612b5ebce6cafebb17918c1913ecfc2126dc1fe7737d300cf3c8",
      "assetIds": []
    },
    {
      "x": 22,
      "y": 70,
      "size": 1,
      "price": "1011000000000000000000",
      "reserved": "",
      "salt": "0x1168df0d6dee2e80f60c88ebf4893674ff553e711e863f41bb7b16cb9fee42c4",
      "assetIds": []
    },
    {
      "x": 22,
      "y": 71,
      "size": 1,
      "price": "1011000000000000000000",
      "reserved": "",
      "salt": "0x58dabb23324e843b7771b15a30ba1c512e7eb279620b6967a1c4d0ab410990d0",
      "assetIds": []
    },
    {
      "x": 22,
      "y": 72,
      "size": 1,
      "price": "1011000000000000000000",
      "reserved": "",
      "salt": "0x6123f2c85ba53f4bb91c879f62dd8d105c863e1e2a724f90c6e7ef48d8ce8362",
      "assetIds": []
    },
    {
      "x": 22,
      "y": 73,
      "size": 1,
      "price": "1011000000000000000000",
      "reserved": "",
      "salt": "0x9c909bec7e59c4f02a4755f657d06c5fea0c63e1eb2285f4f51e45f1bda8a97e",
      "assetIds": []
    },
    {
      "x": 22,
      "y": 74,
      "size": 1,
      "price": "1011000000000000000000",
      "reserved": "0x7a9fe22691c811ea339d9b73150e6911a5343dca",
      "salt": "0xe1789271a69db5608c7c33fc28854cf6d89c7f1dac8178f6102a55a65680d356",
      "assetIds": []
    },
    {
      "x": 22,
      "y": 75,
      "size": 1,
      "price": "1011000000000000000000",
      "reserved": "",
      "salt": "0x1ea7fd0952e62983a52a6d0573d003a0e00a4fdba649cfd3232e504076a94cbe",
      "assetIds": []
    },
    {
      "x": 22,
      "y": 76,
      "size": 1,
      "price": "1011000000000000000000",
      "reserved": "",
      "salt": "0x1bd71b9ab848e2b17bb8e3f76e9874dc8210fbdbb925d7b74046f2249c9a3f92",
      "assetIds": []
    },
    {
      "x": 22,
      "y": 77,
      "size": 1,
      "price": "1011000000000000000000",
      "reserved": "",
      "salt": "0xea463fdb22e2d22a3d89f715d6dd9fe4a6a75e025f210786b4ce2dfaff98901a",
      "assetIds": []
    },
    {
      "x": 22,
      "y": 78,
      "size": 1,
      "price": "1011000000000000000000",
      "reserved": "",
      "salt": "0xb68bfc7a5140fe0fef7d424ab2abacaf6c6dec8f68cb47ab273613abf2c35010",
      "assetIds": []
    },
    {
      "x": 22,
      "y": 79,
      "size": 1,
      "price": "1011000000000000000000",
      "reserved": "",
      "salt": "0x64578fdebce7fc96049792e4a72d60f4744ae87f0d3a0e87fd19a36f59d7dbb7",
      "assetIds": []
    },
    {
      "x": 22,
      "y": 80,
      "size": 1,
      "price": "1011000000000000000000",
      "reserved": "",
      "salt": "0x037d81cf8dc60c9e74da1bfb66ff8c481f3c22f199d30820cab62866632672a9",
      "assetIds": []
    },
    {
      "x": 22,
      "y": 81,
      "size": 1,
      "price": "1011000000000000000000",
      "reserved": "",
      "salt": "0x8bcb72f220f9600b15f7905185aa0ade8f4c16ac3288d16b94aa555cda4633a6",
      "assetIds": []
    },
    {
      "x": 22,
      "y": 82,
      "size": 1,
      "price": "1011000000000000000000",
      "reserved": "",
      "salt": "0x7c94c41fae2dd838416c8e414b943494aee0922225600daf205b307ddf046525",
      "assetIds": []
    },
    {
      "x": 22,
      "y": 83,
      "size": 1,
      "price": "1011000000000000000000",
      "reserved": "",
      "salt": "0xe720bd58d3348afc82dbe09e174ccdea217af5bf4d2461f43156bbdb1d04c7d9",
      "assetIds": []
    },
    {
      "x": 23,
      "y": 60,
      "size": 1,
      "price": "4683000000000000000000",
      "reserved": "",
      "salt": "0xdcda6ddce71301fb50a2503070d835db7fda6e1bf9fbd0d3e025fe76959aae6b",
      "assetIds": [
        "55464657044963196816950587289035428064568320970692304673817341489687933519876",
        "55464657044963196816950587289035428064568320970692304673817341489687933519880",
        "55464657044963196816950587289035428064568320970692304673817341489687933519882",
        "55464657044963196816950587289035428064568320970692304673817341489687933519886",
        "55464657044963196816950587289035428064568320970692304673817341489687933519883"
      ]
    },
    {
      "x": 23,
      "y": 61,
      "size": 1,
      "price": "4683000000000000000000",
      "reserved": "",
      "salt": "0x68ece77cb41ff8ece49b1c08fe1e747eddcf0b9d23ed3124a3cb2bea18e5bb5f",
      "assetIds": [
        "55464657044963196816950587289035428064568320970692304673817341489687933519876",
        "55464657044963196816950587289035428064568320970692304673817341489687933519880",
        "55464657044963196816950587289035428064568320970692304673817341489687933519882",
        "55464657044963196816950587289035428064568320970692304673817341489687933519886",
        "55464657044963196816950587289035428064568320970692304673817341489687933519883"
      ]
    },
    {
      "x": 23,
      "y": 62,
      "size": 1,
      "price": "4683000000000000000000",
      "reserved": "",
      "salt": "0xba1183016e1ac8da53d4c7ea9cae0250a6a18b4b75efd640dfafa6d8f3e12733",
      "assetIds": [
        "55464657044963196816950587289035428064568320970692304673817341489687933519876",
        "55464657044963196816950587289035428064568320970692304673817341489687933519880",
        "55464657044963196816950587289035428064568320970692304673817341489687933519882",
        "55464657044963196816950587289035428064568320970692304673817341489687933519886",
        "55464657044963196816950587289035428064568320970692304673817341489687933519883"
      ]
    },
    {
      "x": 23,
      "y": 63,
      "size": 1,
      "price": "4683000000000000000000",
      "reserved": "",
      "salt": "0x1c0585fe591c8cbc4cfe521de29c30c42824b34a97bf6f773b5febd725eb50e4",
      "assetIds": [
        "55464657044963196816950587289035428064568320970692304673817341489687933519876",
        "55464657044963196816950587289035428064568320970692304673817341489687933519880",
        "55464657044963196816950587289035428064568320970692304673817341489687933519882",
        "55464657044963196816950587289035428064568320970692304673817341489687933519886",
        "55464657044963196816950587289035428064568320970692304673817341489687933519883"
      ]
    },
    {
      "x": 23,
      "y": 64,
      "size": 1,
      "price": "1011000000000000000000",
      "reserved": "",
      "salt": "0x86466be19e3d143f99d93eb1f1dea80f228e86bf9ee56af195fe02200968cf0b",
      "assetIds": []
    },
    {
      "x": 23,
      "y": 65,
      "size": 1,
      "price": "1011000000000000000000",
      "reserved": "",
      "salt": "0x2dc022d231fc5db980a6e432c4c1c09e766c36b2d337b05cca2d550838181393",
      "assetIds": []
    },
    {
      "x": 23,
      "y": 66,
      "size": 1,
      "price": "1011000000000000000000",
      "reserved": "",
      "salt": "0x16e863b87fdfd630af21c0e860c5da7a79de51d3070fa7c447dd1d95fcb4c4a9",
      "assetIds": []
    },
    {
      "x": 23,
      "y": 67,
      "size": 1,
      "price": "1011000000000000000000",
      "reserved": "",
      "salt": "0xf35ae0591f30718139fe1c0dcef263b11e2d499f661e73e4fea98b97bb8ef3b8",
      "assetIds": []
    },
    {
      "x": 23,
      "y": 68,
      "size": 1,
      "price": "1011000000000000000000",
      "reserved": "",
      "salt": "0x535c7b2c841dfd0cff77340b170838cc55ac427943895469d86d2a6bef36402f",
      "assetIds": []
    },
    {
      "x": 23,
      "y": 69,
      "size": 1,
      "price": "1011000000000000000000",
      "reserved": "",
      "salt": "0x0b1613119aa1aea85ee0eabdc565537c2eb0b0a34f3766a727322e888823fdbb",
      "assetIds": []
    },
    {
      "x": 23,
      "y": 70,
      "size": 1,
      "price": "1011000000000000000000",
      "reserved": "",
      "salt": "0x56094dc4c0623f677a6a3167f6485f16573ca75b9c47c501e5893dc79e385ffb",
      "assetIds": []
    },
    {
      "x": 23,
      "y": 71,
      "size": 1,
      "price": "1011000000000000000000",
      "reserved": "",
      "salt": "0xf2b1dd58d30332fdc62efa5aba18d4c21b5f4549c7bbdf05de9c11c606362bc3",
      "assetIds": []
    },
    {
      "x": 23,
      "y": 72,
      "size": 1,
      "price": "1011000000000000000000",
      "reserved": "",
      "salt": "0xe2511e5ba81a941f3b497683bd29bed4a2100d955e278eedc8efa14a8a47a9aa",
      "assetIds": []
    },
    {
      "x": 23,
      "y": 73,
      "size": 1,
      "price": "1011000000000000000000",
      "reserved": "",
      "salt": "0x33dc9e8f168fab925c7a12770a04b9a67b0004dbbb19a6643acdb9b5bda9e89d",
      "assetIds": []
    },
    {
      "x": 23,
      "y": 74,
      "size": 1,
      "price": "1011000000000000000000",
      "reserved": "",
      "salt": "0xb74d53a21f669f691bbf46fa5cea2771162751f71812690a0a615b9d77fc493e",
      "assetIds": []
    },
    {
      "x": 23,
      "y": 75,
      "size": 1,
      "price": "1011000000000000000000",
      "reserved": "",
      "salt": "0x36b23b0fcdb6238f27fcdfe2bdbc5c89441c88945842b25ba497ea79d74a1683",
      "assetIds": []
    },
    {
      "x": 23,
      "y": 76,
      "size": 1,
      "price": "1011000000000000000000",
      "reserved": "",
      "salt": "0x2183966feb8e498c0608d60abc560affec44d19a47810a2b5c3aa2a697e37790",
      "assetIds": []
    },
    {
      "x": 23,
      "y": 77,
      "size": 1,
      "price": "1011000000000000000000",
      "reserved": "",
      "salt": "0x7e758dbe8bb884c9bc6b69ce497d4869cb510a6d79caed707a42fe57231b8db8",
      "assetIds": []
    },
    {
      "x": 23,
      "y": 78,
      "size": 1,
      "price": "1011000000000000000000",
      "reserved": "",
      "salt": "0xd236d278522e8f455bbbc11ece60cdef0a3652c916c55d2ed247ee02324d130c",
      "assetIds": []
    },
    {
      "x": 23,
      "y": 79,
      "size": 1,
      "price": "1011000000000000000000",
      "reserved": "",
      "salt": "0x7a8a1dd5537275f7858453983f5473eb916c135bb5184270287362fdf3327457",
      "assetIds": []
    },
    {
      "x": 23,
      "y": 80,
      "size": 1,
      "price": "1011000000000000000000",
      "reserved": "0x7a9fe22691c811ea339d9b73150e6911a5343dca",
      "salt": "0x96d181e8454c57a560b14957a2d572172fb8a7d412e8da8d957288a10c7caded",
      "assetIds": []
    },
    {
      "x": 23,
      "y": 81,
      "size": 1,
      "price": "1011000000000000000000",
      "reserved": "",
      "salt": "0x69a0ed5009a6ccf6bded623021189d1cad6323ec51d158ad489639d8fba0b609",
      "assetIds": []
    },
    {
      "x": 23,
      "y": 82,
      "size": 1,
      "price": "1011000000000000000000",
      "reserved": "",
      "salt": "0xf0701234f75fd631100314fd308303beb2d49282b73b7f6bd922abfebe1f9fe2",
      "assetIds": []
    },
    {
      "x": 23,
      "y": 83,
      "size": 1,
      "price": "1011000000000000000000",
      "reserved": "",
      "salt": "0x90fa7fc64e15b517e150c62711f31c337c415ebdfa39024286dcac138d88da22",
      "assetIds": []
    },
    {
      "x": 24,
      "y": 66,
      "size": 1,
      "price": "1011000000000000000000",
      "reserved": "",
      "salt": "0x0a71423628102a7127f669d4668db173df2c188261d9d63734b696fa98c90959",
      "assetIds": []
    },
    {
      "x": 24,
      "y": 67,
      "size": 1,
      "price": "1011000000000000000000",
      "reserved": "0x7a9fe22691c811ea339d9b73150e6911a5343dca",
      "salt": "0xab67be3904e8949fb19982ea98d090632d0dc1b0a8883b3edbebcfc28b09c295",
      "assetIds": []
    },
    {
      "x": 24,
      "y": 68,
      "size": 1,
      "price": "1011000000000000000000",
      "reserved": "",
      "salt": "0xeffc277e2fc9b5661d6ef3c5a6140e7ce5e26707f41f35c24e6a9d2ad2a51808",
      "assetIds": []
    },
    {
      "x": 24,
      "y": 69,
      "size": 1,
      "price": "1011000000000000000000",
      "reserved": "",
      "salt": "0x4d0d49a27f1dbd24ae43f2fbb8d77d39451c065ac2e5055f1bd6e12f76247939",
      "assetIds": []
    },
    {
      "x": 24,
      "y": 70,
      "size": 1,
      "price": "1011000000000000000000",
      "reserved": "",
      "salt": "0x31db88cc29622b0c2477f49dc9f99dad1992e0a43fa516dda32e0f980bdcdf78",
      "assetIds": []
    },
    {
      "x": 24,
      "y": 71,
      "size": 1,
      "price": "1011000000000000000000",
      "reserved": "",
      "salt": "0x1b0c06a55d7b48b0c3fddc21f1077bbfe7f1d43c24e4d91eb4c45315abb85685",
      "assetIds": []
    },
    {
      "x": 25,
      "y": 66,
      "size": 1,
      "price": "1011000000000000000000",
      "reserved": "",
      "salt": "0x994b543bf6135d1cd299b52749fd6ea8ae055a6e59a1a8864137feab73fc6912",
      "assetIds": []
    },
    {
      "x": 25,
      "y": 67,
      "size": 1,
      "price": "1011000000000000000000",
      "reserved": "",
      "salt": "0x5d3fd86bf7a9ccba26ac08d2ccce09c56745860d4e9b769c656832d7816bddc9",
      "assetIds": []
    },
    {
      "x": 25,
      "y": 68,
      "size": 1,
      "price": "1011000000000000000000",
      "reserved": "",
      "salt": "0x873afc31088fce3da6bfe653867ed73b4a6823d98446435c1d8a102853e1d5eb",
      "assetIds": []
    },
    {
      "x": 25,
      "y": 69,
      "size": 1,
      "price": "1011000000000000000000",
      "reserved": "",
      "salt": "0x132a08dc46b2a5bbe36c179cc20f69cc37dd10015a1c4f95f5629003699bc6c3",
      "assetIds": []
    },
    {
      "x": 25,
      "y": 70,
      "size": 1,
      "price": "1011000000000000000000",
      "reserved": "",
      "salt": "0xcf833b98cae2499c0b578206722f135eebed9118579ef4959100830f3a3c77fb",
      "assetIds": []
    },
    {
      "x": 25,
      "y": 71,
      "size": 1,
      "price": "1011000000000000000000",
      "reserved": "",
      "salt": "0x6257c1adee667a765de170f45097e33a082f62727fe602b2e108003318cb03b2",
      "assetIds": []
    },
    {
      "x": 26,
      "y": 66,
      "size": 1,
      "price": "1011000000000000000000",
      "reserved": "0x7a9fe22691c811ea339d9b73150e6911a5343dca",
      "salt": "0xbb84853ae8432efb49a75b6fd9b95133efdb23d20a6223a6f8e8526d8a3e7f17",
      "assetIds": []
    },
    {
      "x": 26,
      "y": 67,
      "size": 1,
      "price": "1011000000000000000000",
      "reserved": "",
      "salt": "0xc6957a1bdd0d5bc8d361b874009346117c853d837279c05cd329882f16fbe46a",
      "assetIds": []
    },
    {
      "x": 26,
      "y": 68,
      "size": 1,
      "price": "1011000000000000000000",
      "reserved": "0x7a9fe22691c811ea339d9b73150e6911a5343dca",
      "salt": "0xc496dda6392fa8618dda81556e5dc63af91cb6344f7ea7d960fb62a565f98017",
      "assetIds": []
    },
    {
      "x": 26,
      "y": 69,
      "size": 1,
      "price": "1011000000000000000000",
      "reserved": "",
      "salt": "0xb6ad31befaabef2f072940ac0c15d40591566fda2fa924cde03e9db46df072c9",
      "assetIds": []
    },
    {
      "x": 26,
      "y": 70,
      "size": 1,
      "price": "1011000000000000000000",
      "reserved": "0x7a9fe22691c811ea339d9b73150e6911a5343dca",
      "salt": "0x2603432fe6e0d463c259c3f14db67cf0cf21c70637794d5a5a2be2018e1e5fa0",
      "assetIds": []
    },
    {
      "x": 26,
      "y": 71,
      "size": 1,
      "price": "1011000000000000000000",
      "reserved": "",
      "salt": "0x8c7b422a8bee8ac0cc3a7556cf0e283a569d17d5923511f721b330718d69f2d9",
      "assetIds": []
    },
    {
      "x": 3,
      "y": 54,
      "size": 3,
      "price": "8648000000000000000000",
      "reserved": "0x7a9fe22691c811ea339d9b73150e6911a5343dca",
      "salt": "0xc40e6dc7c816ab254d19ff5185a3024a88da72f09d3d2fda771ad17190302aaa",
      "assetIds": []
    },
    {
      "x": 9,
      "y": 42,
      "size": 3,
      "price": "8648000000000000000000",
      "reserved": "0x7a9fe22691c811ea339d9b73150e6911a5343dca",
      "salt": "0x6c06b04aecb045e46274266c42bbb4d198fe712d3f395fe4d207674da169b952",
      "assetIds": []
    },
    {
      "x": 9,
      "y": 84,
      "size": 3,
      "price": "8648000000000000000000",
      "reserved": "0x7a9fe22691c811ea339d9b73150e6911a5343dca",
      "salt": "0xf454dc2c387fda3e727831ffc92e5929f53010cb58810275cb3d888bdebffd34",
      "assetIds": []
    },
    {
      "x": 9,
      "y": 87,
      "size": 3,
      "price": "8648000000000000000000",
      "reserved": "0x7a9fe22691c811ea339d9b73150e6911a5343dca",
      "salt": "0x6f3e2ace83470b589ba746eff8590aefe1838fd6a53e15c5904d36acab5c118c",
      "assetIds": []
    },
    {
      "x": 12,
      "y": 57,
      "size": 3,
      "price": "8648000000000000000000",
      "reserved": "0x7a9fe22691c811ea339d9b73150e6911a5343dca",
      "salt": "0x0a430f25bb69b631249efe5581adf2e841fadeb0069a58703ab134e73db1dc3a",
      "assetIds": []
    },
    {
      "x": 12,
      "y": 60,
      "size": 3,
      "price": "8648000000000000000000",
      "reserved": "0x7a9fe22691c811ea339d9b73150e6911a5343dca",
      "salt": "0x912de69b8424f9cbbef57977ced36946312f5767829bb73b747316f890aefc45",
      "assetIds": []
    },
    {
      "x": 18,
      "y": 72,
      "size": 3,
      "price": "8648000000000000000000",
      "reserved": "0x7a9fe22691c811ea339d9b73150e6911a5343dca",
      "salt": "0x3c404a9752024e8b6473bc56b6825c476fe798c4c4b5da4e0fe472f58a1ce8f6",
      "assetIds": []
    },
    {
      "x": 0,
      "y": 60,
      "size": 6,
      "price": "32772000000000000000000",
      "reserved": "0x7a9fe22691c811ea339d9b73150e6911a5343dca",
      "salt": "0x537afa1b18c408a2837907e76d25938498084003cf3887b61d9e64f51136dbec",
      "assetIds": []
    },
    {
      "x": 0,
      "y": 84,
      "size": 6,
      "price": "32772000000000000000000",
      "reserved": "0x7a9fe22691c811ea339d9b73150e6911a5343dca",
      "salt": "0x1c4fac731bb2f1d4a37cd926773f6245d2154b0130312e011bc6af1f5554e968",
      "assetIds": []
    },
    {
      "x": 6,
      "y": 54,
      "size": 6,
      "price": "32772000000000000000000",
      "reserved": "0x7a9fe22691c811ea339d9b73150e6911a5343dca",
      "salt": "0x8af16f42744d211fb847dd44ce150bde0a359ea6f8f60e305ed95812a3a15cbc",
      "assetIds": []
    },
    {
      "x": 12,
      "y": 72,
      "size": 6,
      "price": "32772000000000000000000",
      "reserved": "0x7a9fe22691c811ea339d9b73150e6911a5343dca",
      "salt": "0x26ae1d205c952bfe6524387448498280fbbfa20bb85fa5d3914a2127a26a809d",
      "assetIds": []
    },
    {
      "x": 0,
      "y": 72,
      "size": 12,
      "price": "123806000000000000000000",
      "reserved": "0x7a9fe22691c811ea339d9b73150e6911a5343dca",
      "salt": "0xa1cadfb1ca18c55bf5cb30bc5f6f7fa30960e97fae441a08e0ff034d26c265bf",
      "assetIds": []
    },
    {
      "x": 144,
      "y": 156,
      "size": 12,
      "price": "123806000000000000000000",
      "reserved": "0x7a9fe22691c811ea339d9b73150e6911a5343dca",
      "salt": "0x10b16371c321aa1e11068da9aefc78cd29626b37317c210a906bf5df5db3cf78",
      "assetIds": []
    }
  ],
  "solcInputHash": "ea3f750ed6a3f377b8756d8b7b11eedf",
  "bytecode": "0x610160604052620d2f006005556103e860075534801561001e57600080fd5b5060405161242e38038061242e833981810160405261018081101561004257600080fd5b50805160208201516040830151606080850151608086015160a08088015160c0808a015160e08b01516101008c01516101208d01516101408e0151610160909e0151600280546001600160a01b0319166001600160a01b03861617905560038390558d8b1b6001600160601b0319908116909852998c901b909616909352999a9899979895979496929590949391926100dc8a600161014a565b600680546001600160a01b03199081166001600160a01b039a8b1617909155610140979097526101209590955260008054909616979096169690961790935550606093841b6001600160601b031990811660e05292841b831660805290921b1661010052506101ae92505050565b6001600160a01b038216600081815260016020908152604091829020805460ff191685151590811790915582519384529083015280517fb21eb88b4e33b3f1281830a7178d74d8aa73220416215726b68ae23d539515cb9281900390910190a15050565b60805160601c60a05160601c60c05160601c60e05160601c6101005160601c61012051610140516121fb610233600039806109375280611d44525080610913528061139a525080611da45250806115d252806116f4525080610c50528061159c5280611dd852508061166152806116c5525080610dfa528061190852506121fb6000f3fe608060405234801561001057600080fd5b50600436106101515760003560e01c8063984d6252116100cd578063dc5074af11610081578063ecb255b511610066578063ecb255b514610857578063f23a6e6114610874578063f2e7b3811461090957610151565b8063dc5074af14610814578063e56f8a9e1461083a57610151565b8063bc197c81116100b2578063bc197c81146105d3578063c10a420814610735578063caed35001461080c57610151565b8063984d6252146104db578063b522ecff146105ad57610151565b80636e9960c3116101245780638a04af6a116101095780638a04af6a1461032a5780638a12b82f146103585780638f283970146104b557610151565b80636e9960c3146102fe57806377f1c3ac1461032257610151565b806325cb5bc014610156578063495906571461017057806358bc29441461017857806365194ce7146101a0575b600080fd5b61015e610911565b60408051918252519081900360200190f35b61015e610935565b61019e6004803603602081101561018e57600080fd5b50356001600160a01b0316610959565b005b610246600480360360208110156101b657600080fd5b8101906020810181356401000000008111156101d157600080fd5b8201836020820111156101e357600080fd5b8035906020019184600183028401116401000000008311171561020557600080fd5b91908080601f016020809104026020016040519081016040528093929190818152602001838380828437600092019190915250929550610a04945050505050565b6040518080602001866001600160a01b03166001600160a01b03168152602001856001600160a01b03166001600160a01b03168152602001848152602001838152602001828103825287818151815260200191508051906020019080838360005b838110156102bf5781810151838201526020016102a7565b50505050905090810190601f1680156102ec5780820380516001836020036101000a031916815260200191505b50965050505050505060405180910390f35b610306610b09565b604080516001600160a01b039092168252519081900360200190f35b61015e610b18565b61019e6004803603604081101561034057600080fd5b506001600160a01b0381351690602001351515610b1e565b61019e600480360361018081101561036f57600080fd5b6001600160a01b038235811692602081013582169260408201359092169160608201359160808101359160a08201359160c08101359160e0820135916101008101359181019061014081016101208201356401000000008111156103d257600080fd5b8201836020820111156103e457600080fd5b8035906020019184602083028401116401000000008311171561040657600080fd5b91939092909160208101903564010000000081111561042457600080fd5b82018360208201111561043657600080fd5b8035906020019184602083028401116401000000008311171561045857600080fd5b91939092909160208101903564010000000081111561047657600080fd5b82018360208201111561048857600080fd5b803590602001918460018302840111640100000000831117156104aa57600080fd5b509092509050610b75565b61019e600480360360208110156104cb57600080fd5b50356001600160a01b0316610cc3565b61019e600480360360608110156104f157600080fd5b6001600160a01b03823516919081019060408101602082013564010000000081111561051c57600080fd5b82018360208201111561052e57600080fd5b8035906020019184602083028401116401000000008311171561055057600080fd5b91939092909160208101903564010000000081111561056e57600080fd5b82018360208201111561058057600080fd5b803590602001918460208302840111640100000000831117156105a257600080fd5b509092509050610d99565b61019e600480360360208110156105c357600080fd5b50356001600160a01b0316610f24565b610700600480360360a08110156105e957600080fd5b6001600160a01b03823581169260208101359091169181019060608101604082013564010000000081111561061d57600080fd5b82018360208201111561062f57600080fd5b8035906020019184602083028401116401000000008311171561065157600080fd5b91939092909160208101903564010000000081111561066f57600080fd5b82018360208201111561068157600080fd5b803590602001918460208302840111640100000000831117156106a357600080fd5b9193909290916020810190356401000000008111156106c157600080fd5b8201836020820111156106d357600080fd5b803590602001918460018302840111640100000000831117156106f557600080fd5b50909250905061100d565b604080517fffffffff000000000000000000000000000000000000000000000000000000009092168252519081900360200190f35b6107f8600480360360a081101561074b57600080fd5b81019060208101813564010000000081111561076657600080fd5b82018360208201111561077857600080fd5b8035906020019184600183028401116401000000008311171561079a57600080fd5b91908080601f016020809104026020016040519081016040528093929190818152602001838380828437600092019190915250929550506001600160a01b03833581169450602084013516926040810135925060600135905061103a565b604080519115158252519081900360200190f35b610306611176565b6107f86004803603602081101561082a57600080fd5b50356001600160a01b0316611185565b61019e6004803603602081101561085057600080fd5b50356111a3565b61019e6004803603602081101561086d57600080fd5b5035611207565b610700600480360360a081101561088a57600080fd5b6001600160a01b03823581169260208101359091169160408201359160608101359181019060a0810160808201356401000000008111156108ca57600080fd5b8201836020820111156108dc57600080fd5b803590602001918460018302840111640100000000831117156108fe57600080fd5b50909250905061126b565b61015e611296565b7f000000000000000000000000000000000000000000000000000000000000000090565b7f000000000000000000000000000000000000000000000000000000000000000090565b6000546001600160a01b031633146109b8576040805162461bcd60e51b815260206004820152601060248201527f53656e646572206e6f742061646d696e00000000000000000000000000000000604482015290519081900360640190fd5b600554600280546001600160a01b03908116600090815260046020526040902042909301909255805473ffffffffffffffffffffffffffffffffffffffff191692909116919091179055565b606060008060008060606000806000808a80602001905160a0811015610a2957600080fd5b8101908080516040519392919084640100000000821115610a4957600080fd5b908301906020820185811115610a5e57600080fd5b8251640100000000811182820188101715610a7857600080fd5b82525081516020918201929091019080838360005b83811015610aa5578181015183820152602001610a8d565b50505050905090810190601f168015610ad25780820380516001836020036101000a031916815260200191505b5060409081526020820151908201516060830151608090930151959f50909d509b5099509197505050505050505091939590929450565b6000546001600160a01b031690565b60035490565b6000546001600160a01b03163314610b675760405162461bcd60e51b815260040180806020018281038252602e815260200180612198602e913960400191505060405180910390fd5b610b71828261129c565b5050565b610b7f898961131e565b610c048f8e8e8e8e8e8d8d8d80806020026020016040519081016040528093929190818152602001838360200280828437600081840152601f19601f820116905080830192505050505050508c8c8080602002602001604051908101604052809392919081815260200183836020028082843760009201919091525061139892505050565b610c458f8984848080601f01602080910402602001604051908101604052809392919081815260200183838082843760009201919091525061157592505050565b610c758f8f8e8e8e8d7f00000000000000000000000000000000000000000000000000000000000000008f6115c6565b610cb28e87878080602002602001604051908101604052809392919081815260200183836020028082843760009201919091525061189192505050565b505050505050505050505050505050565b6000546001600160a01b03163314610d22576040805162461bcd60e51b815260206004820152601b60248201527f6f6e6c792061646d696e2063616e206368616e67652061646d696e0000000000604482015290519081900360640190fd5b600054604080516001600160a01b039283168152918316602083015280517f7e644d79422f17c01e4894b5f4f588d331ebfa28653d42ae832dc59e38c9798f9281900390910190a16000805473ffffffffffffffffffffffffffffffffffffffff19166001600160a01b0392909216919091179055565b6000546001600160a01b03163314610df8576040805162461bcd60e51b815260206004820152600e60248201527f4e4f545f415554484f52495a4544000000000000000000000000000000000000604482015290519081900360640190fd5b7f00000000000000000000000000000000000000000000000000000000000000006001600160a01b0316632eb2c2d63087878787876040518763ffffffff1660e01b815260040180876001600160a01b03166001600160a01b03168152602001866001600160a01b03166001600160a01b031681526020018060200180602001806020018481038452888882818152602001925060200280828437600083820152601f01601f19169091018581038452868152602090810191508790870280828437600081840152601f19601f8201169050808301925050508481038252600081526020016020019950505050505050505050600060405180830381600087803b158015610f0557600080fd5b505af1158015610f19573d6000803e3d6000fd5b505050505050505050565b6001600160a01b038116610f7f576040805162461bcd60e51b815260206004820152600c60248201527f5a45524f5f414444524553530000000000000000000000000000000000000000604482015290519081900360640190fd5b6000546001600160a01b03163314610fde576040805162461bcd60e51b815260206004820152600e60248201527f4e4f545f415554484f52495a4544000000000000000000000000000000000000604482015290519081900360640190fd5b6006805473ffffffffffffffffffffffffffffffffffffffff19166001600160a01b0392909216919091179055565b7fbc197c810000000000000000000000000000000000000000000000000000000098975050505050505050565b600060035482118061105d5750836001600160a01b0316856001600160a01b0316145b8061106757508242115b156110745750600061116d565b60408051606087811b7fffffffffffffffffffffffffffffffffffffffff0000000000000000000000009081166020808501919091529188901b166034830152604882018690526068808301869052835180840390910181526088830184528051908201207f19457468657265756d205369676e6564204d6573736167653a0a33320000000060a884015260c48084018290528451808503909101815260e4909301909352815191012060009061112b9089611a55565b6001600160a01b03811660009081526004602052604090205490915042116111585760019250505061116d565b6002546001600160a01b039081169116149150505b95945050505050565b6002546001600160a01b031690565b6001600160a01b031660009081526001602052604090205460ff1690565b6000546001600160a01b03163314611202576040805162461bcd60e51b815260206004820152601060248201527f53656e646572206e6f742061646d696e00000000000000000000000000000000604482015290519081900360640190fd5b600355565b6000546001600160a01b03163314611266576040805162461bcd60e51b815260206004820152600e60248201527f4e4f545f415554484f52495a4544000000000000000000000000000000000000604482015290519081900360640190fd5b600755565b7ff23a6e61000000000000000000000000000000000000000000000000000000009695505050505050565b60075490565b6001600160a01b03821660008181526001602090815260409182902080547fffffffffffffffffffffffffffffffffffffffffffffffffffffffffffffff001685151590811790915582519384529083015280517fb21eb88b4e33b3f1281830a7178d74d8aa73220416215726b68ae23d539515cb9281900390910190a15050565b6113456103e861133960075485611b2290919063ffffffff16565b9063ffffffff611b9816565b8114610b71576040805162461bcd60e51b815260206004820152600d60248201527f494e56414c49445f505249434500000000000000000000000000000000000000604482015290519081900360640190fd5b7f0000000000000000000000000000000000000000000000000000000000000000421061140c576040805162461bcd60e51b815260206004820152600c60248201527f53414c455f49535f4f5645520000000000000000000000000000000000000000604482015290519081900360640190fd5b6001600160a01b03891633148061143257503360009081526001602052604090205460ff165b611483576040805162461bcd60e51b815260206004820152600e60248201527f4e4f545f415554484f52495a4544000000000000000000000000000000000000604482015290519081900360640190fd5b6001600160a01b03881615806114aa5750886001600160a01b0316886001600160a01b0316145b6114fb576040805162461bcd60e51b815260206004820152600d60248201527f52455345525645445f4c414e4400000000000000000000000000000000000000604482015290519081900360640190fd5b600061150c888888888d8989611bfd565b90506115188282611ca2565b611569576040805162461bcd60e51b815260206004820152600c60248201527f494e56414c49445f4c414e440000000000000000000000000000000000000000604482015290519081900360640190fd5b50505050505050505050565b60006115818484611d6b565b6006549091506115c0908590839085906001600160a01b03167f0000000000000000000000000000000000000000000000000000000000000000611eb8565b50505050565b83600114806115fc57507f00000000000000000000000000000000000000000000000000000000000000006001600160a01b0316155b156116c357604080517f6e1e3bbf0000000000000000000000000000000000000000000000000000000081526001600160a01b03898116600483015260248201879052604482018990526064820188905260a06084830152600060a4830181905292517f000000000000000000000000000000000000000000000000000000000000000090911692636e1e3bbf9260e4808201939182900301818387803b1580156116a657600080fd5b505af11580156116ba573d6000803e3d6000fd5b50505050611827565b7f00000000000000000000000000000000000000000000000000000000000000006001600160a01b0316636e1e3bbf7f00000000000000000000000000000000000000000000000000000000000000008689898c60405160200180826001600160a01b03166001600160a01b031681526020019150506040516020818303038152906040526040518663ffffffff1660e01b815260040180866001600160a01b03166001600160a01b0316815260200185815260200184815260200183815260200180602001828103825283818151815260200191508051906020019080838360005b838110156117be5781810151838201526020016117a6565b50505050905090810190601f1680156117eb5780820380516001836020036101000a031916815260200191505b509650505050505050600060405180830381600087803b15801561180e57600080fd5b505af1158015611822573d6000803e3d6000fd5b505050505b60408051858152602081018590526001600160a01b03848116828401526060820184905291516101988802890192808b1692908c16917fe4dfa6ac11314892f3029b34a25b1a887da3b1cab2bbf8506d87128ba6e3ac029181900360800190a45050505050505050565b6060815167ffffffffffffffff811180156118ab57600080fd5b506040519080825280602002602001820160405280156118d5578160200160208202803683370190505b50905060005b82518110156119055760018282815181106118f257fe5b60209081029190910101526001016118db565b507f00000000000000000000000000000000000000000000000000000000000000006001600160a01b0316632eb2c2d6308585856040518563ffffffff1660e01b815260040180856001600160a01b03166001600160a01b03168152602001846001600160a01b03166001600160a01b03168152602001806020018060200180602001848103845286818151815260200191508051906020019060200280838360005b838110156119c05781810151838201526020016119a8565b50505050905001848103835285818151815260200191508051906020019060200280838360005b838110156119ff5781810151838201526020016119e7565b50505050905001848103825260008152602001602001975050505050505050600060405180830381600087803b158015611a3857600080fd5b505af1158015611a4c573d6000803e3d6000fd5b50505050505050565b60008151604114611a6557600080fd5b60208201516040830151606084015160001a601b811015611a8457601b015b8060ff16601b1480611a9957508060ff16601c145b611aa257600080fd5b6040805160008152602080820180845289905260ff8416828401526060820186905260808201859052915160019260a0808401939192601f1981019281900390910190855afa158015611af9573d6000803e3d6000fd5b5050604051601f1901519450506001600160a01b038416611b1957600080fd5b50505092915050565b600082611b3157506000611b92565b5081810281838281611b3f57fe5b0414611b92576040805162461bcd60e51b815260206004820152600860248201527f6f766572666c6f77000000000000000000000000000000000000000000000000604482015290519081900360640190fd5b92915050565b600081611bec576040805162461bcd60e51b815260206004820152600960248201527f64697662797a65726f0000000000000000000000000000000000000000000000604482015290519081900360640190fd5b818381611bf557fe5b049392505050565b60008787878787878760405160200180888152602001878152602001868152602001858152602001846001600160a01b03166001600160a01b031660601b8152601401838152602001828051906020019060200280838360005b83811015611c6f578181015183820152602001611c57565b50505050905001975050505050505050604051602081830303815290604052805190602001209050979650505050505050565b600081815b8451811015611d41576000858281518110611cbe57fe5b6020026020010151905080831015611d065782816040516020018083815260200182815260200192505050604051602081830303815290604052805190602001209250611d38565b808360405160200180838152602001828152602001925050506040516020818303038152906040528051906020012092505b50600101611ca7565b507f0000000000000000000000000000000000000000000000000000000000000000149392505050565b600080611d84606461133985600563ffffffff611b2216565b604080516323b872dd60e01b81526001600160a01b0387811660048301527f0000000000000000000000000000000000000000000000000000000000000000811660248301526044820184905291519293507f0000000000000000000000000000000000000000000000000000000000000000909116916323b872dd916064808201926020929091908290030181600087803b158015611e2357600080fd5b505af1158015611e37573d6000803e3d6000fd5b505050506040513d6020811015611e4d57600080fd5b5051611ea0576040805162461bcd60e51b815260206004820152601360248201527f4645455f5452414e534645525f4641494c454400000000000000000000000000604482015290519081900360640190fd5b611eb0838263ffffffff61213a16565b949350505050565b82518190859015612062576060600080600080611ed48a610a04565b9398509196509450925090506000611eef868686868661103a565b15611f7d57611f09611f018d84611b22565b612710611b98565b9050886001600160a01b0316846001600160a01b0316866001600160a01b03167fac7a699eb95c3c6d390ec4626de17ef9a67b35891efdb197beba7c7fdd45fac48f858760405180848152602001838152602001828152602001935050505060405180910390a4611f7a878261213a565b96505b801561205b57604080516323b872dd60e01b81526001600160a01b038f811660048301528781166024830152604482018490529151918a16916323b872dd916064808201926020929091908290030181600087803b158015611fde57600080fd5b505af1158015611ff2573d6000803e3d6000fd5b505050506040513d602081101561200857600080fd5b505161205b576040805162461bcd60e51b815260206004820152601960248201527f636f6d6d6973696f6e207472616e73666572206661696c656400000000000000604482015290519081900360640190fd5b5050505050505b604080516323b872dd60e01b81526001600160a01b0389811660048301528681166024830152604482018490529151918416916323b872dd916064808201926020929091908290030181600087803b1580156120bd57600080fd5b505af11580156120d1573d6000803e3d6000fd5b505050506040513d60208110156120e757600080fd5b5051611a4c576040805162461bcd60e51b815260206004820152601760248201527f7061796d656e74207472616e73666572206661696c6564000000000000000000604482015290519081900360640190fd5b600082821115612191576040805162461bcd60e51b815260206004820152600860248201527f756e6465666c6f77000000000000000000000000000000000000000000000000604482015290519081900360640190fd5b5090039056fe6f6e6c792061646d696e2063616e207365747570206d6574615472616e73616374696f6e50726f636573736f7273a26469706673582212200ff38c5741c66b2a22a9a9ee2abe0f55626323082b6b4443921fd3b25484584a64736f6c63430006050033",
  "devdoc": {
    "methods": {
      "buyLandWithSand(address,address,address,uint256,uint256,uint256,uint256,uint256,bytes32,uint256[],bytes32[],bytes)": {
        "params": {
          "buyer": "address that perform the payment",
          "priceInSand": "price in SAND to purchase that Land",
          "proof": "merkleProof for that particular Land",
          "reserved": "the reserved address (if any)",
          "size": "size of the pack of Land to purchase",
          "to": "address that will own the purchased Land",
          "x": "x coordinate of the Land",
          "y": "y coordinate of the Land"
        }
      },
      "changeAdmin(address)": {
        "details": "change the administrator to be `newAdmin`.",
        "params": {
          "newAdmin": "address of the new administrator."
        }
      },
      "getAdmin()": {
        "details": "gives the current administrator of this contract.",
        "returns": {
          "_0": "the current administrator of this contract."
        }
      },
      "getSigningWallet()": {
        "details": "signing wallet authorized for referral",
        "returns": {
          "_0": "the address of the signing wallet"
        }
      },
      "isMetaTransactionProcessor(address)": {
        "details": "check whether address `who` is given meta-transaction execution rights.",
        "params": {
          "who": "The address to query."
        },
        "returns": {
          "_0": "whether the address has meta-transaction execution rights."
        }
      },
      "isReferralValid(bytes,address,address,uint256,uint256)": {
        "params": {
          "commissionRate": "The commissionRate of the referral",
          "expiryTime": "The expiry time of the referral",
          "referee": "The address of the referee",
          "referrer": "The address of the referrer",
          "signature": "The signature to check (signed referral)"
        },
        "returns": {
          "_0": "True if the referral is valid"
        }
      },
      "setMetaTransactionProcessor(address,bool)": {
        "details": "Enable or disable the ability of `metaTransactionProcessor` to perform meta-tx (metaTransactionProcessor rights).",
        "params": {
          "enabled": "set whether the metaTransactionProcessor is enabled or disabled.",
          "metaTransactionProcessor": "address that will be given/removed metaTransactionProcessor rights."
        }
      },
      "setReceivingWallet(address)": {
        "params": {
          "newWallet": "address of the new receiving wallet"
        }
      },
      "updateMaxCommissionRate(uint256)": {
        "details": "Update the maximum commission rate",
        "params": {
          "newMaxCommissionRate": "The new maximum commission rate"
        }
      },
      "updateSigningWallet(address)": {
        "details": "Update the signing wallet",
        "params": {
          "newSigningWallet": "The new address of the signing wallet"
        }
      },
      "withdrawAssets(address,uint256[],uint256[])": {
        "params": {
          "assetIds": "the assetIds to be transferred",
          "to": "intended recipient of the asset tokens",
          "values": "the quantities of the assetIds to be transferred"
        }
      }
    },
    "title": "Estate Sale contract with referral"
  },
  "userdoc": {
    "methods": {
      "buyLandWithSand(address,address,address,uint256,uint256,uint256,uint256,uint256,bytes32,uint256[],bytes32[],bytes)": {
        "notice": "buy Land with SAND using the merkle proof associated with it"
      },
      "getExpiryTime()": {
        "notice": "Gets the expiry time for the current sale"
      },
      "getMaxCommisionRate()": {
        "notice": "the max commision rate"
      },
      "getMerkleRoot()": {
        "notice": "Gets the Merkle root associated with the current sale"
      },
      "isReferralValid(bytes,address,address,uint256,uint256)": {
        "notice": "Check if a referral is valid"
      },
      "setReceivingWallet(address)": {
        "notice": "set the wallet receiving the proceeds"
      },
      "withdrawAssets(address,uint256[],uint256[])": {
        "notice": "enable Admin to withdraw remaining assets from EstateSaleWithFee contract"
      }
    },
    "notice": "This contract manages the sale of our lands as Estates"
  },
  "storageLayout": {
    "storage": [
      {
        "astId": 13640,
        "contract": "src/solc_0.6/EstateSale/EstateSaleWithFee.sol:EstateSaleWithFee",
        "label": "_admin",
        "offset": 0,
        "slot": "0",
        "type": "t_address"
      },
      {
        "astId": 13702,
        "contract": "src/solc_0.6/EstateSale/EstateSaleWithFee.sol:EstateSaleWithFee",
        "label": "_metaTransactionContracts",
        "offset": 0,
        "slot": "1",
        "type": "t_mapping(t_address,t_bool)"
      },
      {
        "astId": 11818,
        "contract": "src/solc_0.6/EstateSale/EstateSaleWithFee.sol:EstateSaleWithFee",
        "label": "_signingWallet",
        "offset": 0,
        "slot": "2",
        "type": "t_address"
      },
      {
        "astId": 11820,
        "contract": "src/solc_0.6/EstateSale/EstateSaleWithFee.sol:EstateSaleWithFee",
        "label": "_maxCommissionRate",
        "offset": 0,
        "slot": "3",
        "type": "t_uint256"
      },
      {
        "astId": 11824,
        "contract": "src/solc_0.6/EstateSale/EstateSaleWithFee.sol:EstateSaleWithFee",
        "label": "_previousSigningWallets",
        "offset": 0,
        "slot": "4",
        "type": "t_mapping(t_address,t_uint256)"
      },
      {
        "astId": 11833,
        "contract": "src/solc_0.6/EstateSale/EstateSaleWithFee.sol:EstateSaleWithFee",
        "label": "_previousSigningDelay",
        "offset": 0,
        "slot": "5",
        "type": "t_uint256"
      },
      {
        "astId": 8205,
        "contract": "src/solc_0.6/EstateSale/EstateSaleWithFee.sol:EstateSaleWithFee",
        "label": "_wallet",
        "offset": 0,
        "slot": "6",
        "type": "t_address_payable"
      },
      {
        "astId": 8215,
        "contract": "src/solc_0.6/EstateSale/EstateSaleWithFee.sol:EstateSaleWithFee",
        "label": "_multiplier",
        "offset": 0,
        "slot": "7",
        "type": "t_uint256"
      }
    ],
    "types": {
      "t_address": {
        "encoding": "inplace",
        "label": "address",
        "numberOfBytes": "20"
      },
      "t_address_payable": {
        "encoding": "inplace",
        "label": "address payable",
        "numberOfBytes": "20"
      },
      "t_bool": {
        "encoding": "inplace",
        "label": "bool",
        "numberOfBytes": "1"
      },
      "t_mapping(t_address,t_bool)": {
        "encoding": "mapping",
        "key": "t_address",
        "label": "mapping(address => bool)",
        "numberOfBytes": "32",
        "value": "t_bool"
      },
      "t_mapping(t_address,t_uint256)": {
        "encoding": "mapping",
        "key": "t_address",
        "label": "mapping(address => uint256)",
        "numberOfBytes": "32",
        "value": "t_uint256"
      },
      "t_uint256": {
        "encoding": "inplace",
        "label": "uint256",
        "numberOfBytes": "32"
      }
    }
  }
}