{
  "address": "0x055FE1E60Eac85BfEda7ad5088Be8A71e95DC3C8",
  "abi": [
    {
      "inputs": [
        {
          "internalType": "address",
          "name": "landAddress",
          "type": "address"
        },
        {
          "internalType": "address",
          "name": "sandContractAddress",
          "type": "address"
        },
        {
          "internalType": "address",
          "name": "initialMetaTx",
          "type": "address"
        },
        {
          "internalType": "address",
          "name": "admin",
          "type": "address"
        },
        {
          "internalType": "address payable",
          "name": "initialWalletAddress",
          "type": "address"
        },
        {
          "internalType": "bytes32",
          "name": "merkleRoot",
          "type": "bytes32"
        },
        {
          "internalType": "uint256",
          "name": "expiryTime",
          "type": "uint256"
        },
        {
          "internalType": "address",
          "name": "initialSigningWallet",
          "type": "address"
        },
        {
          "internalType": "uint256",
          "name": "initialMaxCommissionRate",
          "type": "uint256"
        },
        {
          "internalType": "address",
          "name": "estate",
          "type": "address"
        },
        {
          "internalType": "address",
          "name": "asset",
          "type": "address"
        },
        {
          "internalType": "address",
          "name": "feeDistributor",
          "type": "address"
        },
        {
          "internalType": "address",
          "name": "authValidator",
          "type": "address"
        }
      ],
      "stateMutability": "nonpayable",
      "type": "constructor"
    },
    {
      "anonymous": false,
      "inputs": [
        {
          "indexed": false,
          "internalType": "address",
          "name": "oldAdmin",
          "type": "address"
        },
        {
          "indexed": false,
          "internalType": "address",
          "name": "newAdmin",
          "type": "address"
        }
      ],
      "name": "AdminChanged",
      "type": "event"
    },
    {
      "anonymous": false,
      "inputs": [
        {
          "indexed": true,
          "internalType": "address",
          "name": "buyer",
          "type": "address"
        },
        {
          "indexed": true,
          "internalType": "address",
          "name": "to",
          "type": "address"
        },
        {
          "indexed": true,
          "internalType": "uint256",
          "name": "topCornerId",
          "type": "uint256"
        },
        {
          "indexed": false,
          "internalType": "uint256",
          "name": "size",
          "type": "uint256"
        },
        {
          "indexed": false,
          "internalType": "uint256",
          "name": "price",
          "type": "uint256"
        },
        {
          "indexed": false,
          "internalType": "address",
          "name": "token",
          "type": "address"
        },
        {
          "indexed": false,
          "internalType": "uint256",
          "name": "amountPaid",
          "type": "uint256"
        }
      ],
      "name": "LandQuadPurchased",
      "type": "event"
    },
    {
      "anonymous": false,
      "inputs": [
        {
          "indexed": false,
          "internalType": "address",
          "name": "metaTransactionProcessor",
          "type": "address"
        },
        {
          "indexed": false,
          "internalType": "bool",
          "name": "enabled",
          "type": "bool"
        }
      ],
      "name": "MetaTransactionProcessor",
      "type": "event"
    },
    {
      "anonymous": false,
      "inputs": [
        {
          "indexed": true,
          "internalType": "address",
          "name": "referrer",
          "type": "address"
        },
        {
          "indexed": true,
          "internalType": "address",
          "name": "referee",
          "type": "address"
        },
        {
          "indexed": true,
          "internalType": "address",
          "name": "token",
          "type": "address"
        },
        {
          "indexed": false,
          "internalType": "uint256",
          "name": "amount",
          "type": "uint256"
        },
        {
          "indexed": false,
          "internalType": "uint256",
          "name": "commission",
          "type": "uint256"
        },
        {
          "indexed": false,
          "internalType": "uint256",
          "name": "commissionRate",
          "type": "uint256"
        }
      ],
      "name": "ReferralUsed",
      "type": "event"
    },
    {
      "inputs": [
        {
          "internalType": "address",
          "name": "buyer",
          "type": "address"
        },
        {
          "internalType": "address",
          "name": "to",
          "type": "address"
        },
        {
          "internalType": "address",
          "name": "reserved",
          "type": "address"
        },
        {
          "internalType": "uint256[]",
          "name": "info",
          "type": "uint256[]"
        },
        {
          "internalType": "bytes32",
          "name": "salt",
          "type": "bytes32"
        },
        {
          "internalType": "uint256[]",
          "name": "assetIds",
          "type": "uint256[]"
        },
        {
          "internalType": "bytes32[]",
          "name": "proof",
          "type": "bytes32[]"
        },
        {
          "internalType": "bytes",
          "name": "referral",
          "type": "bytes"
        },
        {
          "internalType": "bytes",
          "name": "signature",
          "type": "bytes"
        }
      ],
      "name": "buyLandWithSand",
      "outputs": [],
      "stateMutability": "nonpayable",
      "type": "function"
    },
    {
      "inputs": [
        {
          "internalType": "address",
          "name": "newAdmin",
          "type": "address"
        }
      ],
      "name": "changeAdmin",
      "outputs": [],
      "stateMutability": "nonpayable",
      "type": "function"
    },
    {
      "inputs": [
        {
          "internalType": "bytes",
          "name": "referral",
          "type": "bytes"
        }
      ],
      "name": "decodeReferral",
      "outputs": [
        {
          "internalType": "bytes",
          "name": "",
          "type": "bytes"
        },
        {
          "internalType": "address",
          "name": "",
          "type": "address"
        },
        {
          "internalType": "address",
          "name": "",
          "type": "address"
        },
        {
          "internalType": "uint256",
          "name": "",
          "type": "uint256"
        },
        {
          "internalType": "uint256",
          "name": "",
          "type": "uint256"
        }
      ],
      "stateMutability": "pure",
      "type": "function"
    },
    {
      "inputs": [],
      "name": "getAdmin",
      "outputs": [
        {
          "internalType": "address",
          "name": "",
          "type": "address"
        }
      ],
      "stateMutability": "view",
      "type": "function"
    },
    {
      "inputs": [],
      "name": "getExpiryTime",
      "outputs": [
        {
          "internalType": "uint256",
          "name": "",
          "type": "uint256"
        }
      ],
      "stateMutability": "view",
      "type": "function"
    },
    {
      "inputs": [],
      "name": "getMaxCommisionRate",
      "outputs": [
        {
          "internalType": "uint256",
          "name": "",
          "type": "uint256"
        }
      ],
      "stateMutability": "view",
      "type": "function"
    },
    {
      "inputs": [],
      "name": "getMerkleRoot",
      "outputs": [
        {
          "internalType": "bytes32",
          "name": "",
          "type": "bytes32"
        }
      ],
      "stateMutability": "view",
      "type": "function"
    },
    {
      "inputs": [],
      "name": "getSigningWallet",
      "outputs": [
        {
          "internalType": "address",
          "name": "",
          "type": "address"
        }
      ],
      "stateMutability": "view",
      "type": "function"
    },
    {
      "inputs": [
        {
          "internalType": "address",
          "name": "who",
          "type": "address"
        }
      ],
      "name": "isMetaTransactionProcessor",
      "outputs": [
        {
          "internalType": "bool",
          "name": "",
          "type": "bool"
        }
      ],
      "stateMutability": "view",
      "type": "function"
    },
    {
      "inputs": [
        {
          "internalType": "bytes",
          "name": "signature",
          "type": "bytes"
        },
        {
          "internalType": "address",
          "name": "referrer",
          "type": "address"
        },
        {
          "internalType": "address",
          "name": "referee",
          "type": "address"
        },
        {
          "internalType": "uint256",
          "name": "expiryTime",
          "type": "uint256"
        },
        {
          "internalType": "uint256",
          "name": "commissionRate",
          "type": "uint256"
        }
      ],
      "name": "isReferralValid",
      "outputs": [
        {
          "internalType": "bool",
          "name": "",
          "type": "bool"
        }
      ],
      "stateMutability": "view",
      "type": "function"
    },
    {
      "inputs": [
        {
          "internalType": "address",
          "name": "",
          "type": "address"
        },
        {
          "internalType": "address",
          "name": "",
          "type": "address"
        },
        {
          "internalType": "uint256[]",
          "name": "",
          "type": "uint256[]"
        },
        {
          "internalType": "uint256[]",
          "name": "",
          "type": "uint256[]"
        },
        {
          "internalType": "bytes",
          "name": "",
          "type": "bytes"
        }
      ],
      "name": "onERC1155BatchReceived",
      "outputs": [
        {
          "internalType": "bytes4",
          "name": "",
          "type": "bytes4"
        }
      ],
      "stateMutability": "pure",
      "type": "function"
    },
    {
      "inputs": [
        {
          "internalType": "address",
          "name": "",
          "type": "address"
        },
        {
          "internalType": "address",
          "name": "",
          "type": "address"
        },
        {
          "internalType": "uint256",
          "name": "",
          "type": "uint256"
        },
        {
          "internalType": "uint256",
          "name": "",
          "type": "uint256"
        },
        {
          "internalType": "bytes",
          "name": "",
          "type": "bytes"
        }
      ],
      "name": "onERC1155Received",
      "outputs": [
        {
          "internalType": "bytes4",
          "name": "",
          "type": "bytes4"
        }
      ],
      "stateMutability": "pure",
      "type": "function"
    },
    {
      "inputs": [
        {
          "internalType": "address",
          "name": "metaTransactionProcessor",
          "type": "address"
        },
        {
          "internalType": "bool",
          "name": "enabled",
          "type": "bool"
        }
      ],
      "name": "setMetaTransactionProcessor",
      "outputs": [],
      "stateMutability": "nonpayable",
      "type": "function"
    },
    {
      "inputs": [
        {
          "internalType": "address payable",
          "name": "newWallet",
          "type": "address"
        }
      ],
      "name": "setReceivingWallet",
      "outputs": [],
      "stateMutability": "nonpayable",
      "type": "function"
    },
    {
      "inputs": [
        {
          "internalType": "uint256",
          "name": "newMaxCommissionRate",
          "type": "uint256"
        }
      ],
      "name": "updateMaxCommissionRate",
      "outputs": [],
      "stateMutability": "nonpayable",
      "type": "function"
    },
    {
      "inputs": [
        {
          "internalType": "address",
          "name": "newSigningWallet",
          "type": "address"
        }
      ],
      "name": "updateSigningWallet",
      "outputs": [],
      "stateMutability": "nonpayable",
      "type": "function"
    },
    {
      "inputs": [
        {
          "internalType": "address",
          "name": "to",
          "type": "address"
        },
        {
          "internalType": "uint256[]",
          "name": "assetIds",
          "type": "uint256[]"
        },
        {
          "internalType": "uint256[]",
          "name": "values",
          "type": "uint256[]"
        }
      ],
      "name": "withdrawAssets",
      "outputs": [],
      "stateMutability": "nonpayable",
      "type": "function"
    }
  ],
  "transactionHash": "0x52f5b1e9443238569b2060d0ff93b7b8e705de999508af4143241951223b54fe",
  "args": [
    "0x5CC5B05a8A13E3fBDB0BB9FcCd98D38e50F90c38",
    "0x3845badAde8e6dFF049820680d1F14bD3903a5d0",
    "0x3845badAde8e6dFF049820680d1F14bD3903a5d0",
    "0xEAA0993E1d21c2103e4f172a20D29371FbAF6D06",
    "0x4489590a116618B506F0EfE885432F6A8ED998E9",
    "0xb91a378029c449dfa78f2f457548228dd463eb5897a56b019d6ed7c095de5865",
    1651755600,
    "0x3044719d139F866a44c988823513eCB93060bF1b",
    2000,
    "0x0000000000000000000000000000000000000000",
    "0xa342f5D851E866E18ff98F351f2c6637f4478dB5",
    "0x0EB04462D69B1D267d269377E34f60b9De1c8510",
    "0x459EA8c295069d4cd16c025b9fa5cA3E4C5AA468"
  ],
  "numDeployments": 1,
  "linkedData": [
    {
      "x": 312,
      "y": 393,
      "size": 1,
      "price": "4683000000000000000000",
      "reserved": "",
      "salt": "0x5b3c06293ae66eda9032bae726d02ee3d90bc549cedb35bfbf6cefcb05bb1924",
      "assetIds": [
        "55464657044963196816950587289035428064568320970692304673817341489688587816968",
        "55464657044963196816950587289035428064568320970692304673817341489688587816966",
        "55464657044963196816950587289035428064568320970692304673817341489688587816960",
        "55464657044963196816950587289035428064568320970692304673817341489688587816962",
        "55464657044963196816950587289035428064568320970692304673817341489688587816967",
        "55464657044963196816950587289035428064568320970692304673817341489688587816961",
        "55464657044963196816950587289035428064568320970692304673817341489688596187136",
        "55464657044963196816950587289035428064568320970692304673817341489688587816963",
        "55464657044963196816950587289035428064568320970692304673817341489688587816965",
        "55464657044963196816950587289035428064568320970692304673817341489688587816964"
      ]
    },
    {
      "x": 312,
      "y": 394,
      "size": 1,
      "price": "4683000000000000000000",
      "reserved": "",
      "salt": "0x11626d733d9cc15210677c604a2073b4c65771624189f43bc583bcc03ccc165a",
      "assetIds": [
        "55464657044963196816950587289035428064568320970692304673817341489688587816968",
        "55464657044963196816950587289035428064568320970692304673817341489688587816966",
        "55464657044963196816950587289035428064568320970692304673817341489688587816960",
        "55464657044963196816950587289035428064568320970692304673817341489688587816962",
        "55464657044963196816950587289035428064568320970692304673817341489688587816967",
        "55464657044963196816950587289035428064568320970692304673817341489688587816961",
        "55464657044963196816950587289035428064568320970692304673817341489688596187136",
        "55464657044963196816950587289035428064568320970692304673817341489688587816963",
        "55464657044963196816950587289035428064568320970692304673817341489688587816965",
        "55464657044963196816950587289035428064568320970692304673817341489688587816964"
      ]
    },
    {
      "x": 312,
      "y": 395,
      "size": 1,
      "price": "4683000000000000000000",
      "reserved": "",
      "salt": "0x77c9c043d150a1a4857fc4d510714c88b351fbd4d0b9e43ad3caed963433aa24",
      "assetIds": [
        "55464657044963196816950587289035428064568320970692304673817341489688587816968",
        "55464657044963196816950587289035428064568320970692304673817341489688587816966",
        "55464657044963196816950587289035428064568320970692304673817341489688587816960",
        "55464657044963196816950587289035428064568320970692304673817341489688587816962",
        "55464657044963196816950587289035428064568320970692304673817341489688587816967",
        "55464657044963196816950587289035428064568320970692304673817341489688587816961",
        "55464657044963196816950587289035428064568320970692304673817341489688596187136",
        "55464657044963196816950587289035428064568320970692304673817341489688587816963",
        "55464657044963196816950587289035428064568320970692304673817341489688587816965",
        "55464657044963196816950587289035428064568320970692304673817341489688587816964"
      ]
    },
    {
      "x": 312,
      "y": 396,
      "size": 1,
      "price": "4683000000000000000000",
      "reserved": "",
      "salt": "0x24e4d318bbf64b37db855be879ffba3e76c8925e293a90ffbae43ede9e7cf13f",
      "assetIds": [
        "55464657044963196816950587289035428064568320970692304673817341489688587816968",
        "55464657044963196816950587289035428064568320970692304673817341489688587816966",
        "55464657044963196816950587289035428064568320970692304673817341489688587816960",
        "55464657044963196816950587289035428064568320970692304673817341489688587816962",
        "55464657044963196816950587289035428064568320970692304673817341489688587816967",
        "55464657044963196816950587289035428064568320970692304673817341489688587816961",
        "55464657044963196816950587289035428064568320970692304673817341489688596187136",
        "55464657044963196816950587289035428064568320970692304673817341489688587816963",
        "55464657044963196816950587289035428064568320970692304673817341489688587816965",
        "55464657044963196816950587289035428064568320970692304673817341489688587816964"
      ]
    },
    {
      "x": 312,
      "y": 397,
      "size": 1,
      "price": "4683000000000000000000",
      "reserved": "",
      "salt": "0x8dffd3a98fa48068305e7a0cca910b9cdcc5a49117eecd53c408441b8abae616",
      "assetIds": [
        "55464657044963196816950587289035428064568320970692304673817341489688587816968",
        "55464657044963196816950587289035428064568320970692304673817341489688587816966",
        "55464657044963196816950587289035428064568320970692304673817341489688587816960",
        "55464657044963196816950587289035428064568320970692304673817341489688587816962",
        "55464657044963196816950587289035428064568320970692304673817341489688587816967",
        "55464657044963196816950587289035428064568320970692304673817341489688587816961",
        "55464657044963196816950587289035428064568320970692304673817341489688596187136",
        "55464657044963196816950587289035428064568320970692304673817341489688587816963",
        "55464657044963196816950587289035428064568320970692304673817341489688587816965",
        "55464657044963196816950587289035428064568320970692304673817341489688587816964"
      ]
    },
    {
      "x": 312,
      "y": 398,
      "size": 1,
      "price": "4683000000000000000000",
      "reserved": "",
      "salt": "0x7011ade66a7f5b7253209b2d7a4417099d4d56aa0bf88681c89077ef9ebbccce",
      "assetIds": [
        "55464657044963196816950587289035428064568320970692304673817341489688587816968",
        "55464657044963196816950587289035428064568320970692304673817341489688587816966",
        "55464657044963196816950587289035428064568320970692304673817341489688587816960",
        "55464657044963196816950587289035428064568320970692304673817341489688587816962",
        "55464657044963196816950587289035428064568320970692304673817341489688587816967",
        "55464657044963196816950587289035428064568320970692304673817341489688587816961",
        "55464657044963196816950587289035428064568320970692304673817341489688596187136",
        "55464657044963196816950587289035428064568320970692304673817341489688587816963",
        "55464657044963196816950587289035428064568320970692304673817341489688587816965",
        "55464657044963196816950587289035428064568320970692304673817341489688587816964"
      ]
    },
    {
      "x": 312,
      "y": 399,
      "size": 1,
      "price": "4683000000000000000000",
      "reserved": "",
      "salt": "0xffe259d9c2a2c1c45a2eb006e023552752fce59f217e93648eba5a83b5544c88",
      "assetIds": [
        "55464657044963196816950587289035428064568320970692304673817341489688587816968",
        "55464657044963196816950587289035428064568320970692304673817341489688587816966",
        "55464657044963196816950587289035428064568320970692304673817341489688587816960",
        "55464657044963196816950587289035428064568320970692304673817341489688587816962",
        "55464657044963196816950587289035428064568320970692304673817341489688587816967",
        "55464657044963196816950587289035428064568320970692304673817341489688587816961",
        "55464657044963196816950587289035428064568320970692304673817341489688596187136",
        "55464657044963196816950587289035428064568320970692304673817341489688587816963",
        "55464657044963196816950587289035428064568320970692304673817341489688587816965",
        "55464657044963196816950587289035428064568320970692304673817341489688587816964"
      ]
    },
    {
      "x": 312,
      "y": 400,
      "size": 1,
      "price": "4683000000000000000000",
      "reserved": "",
      "salt": "0x20eedc3320b85056dd1229b18792269e2e213295c22750da07c3e413784ba71a",
      "assetIds": [
        "55464657044963196816950587289035428064568320970692304673817341489688587816968",
        "55464657044963196816950587289035428064568320970692304673817341489688587816966",
        "55464657044963196816950587289035428064568320970692304673817341489688587816960",
        "55464657044963196816950587289035428064568320970692304673817341489688587816962",
        "55464657044963196816950587289035428064568320970692304673817341489688587816967",
        "55464657044963196816950587289035428064568320970692304673817341489688587816961",
        "55464657044963196816950587289035428064568320970692304673817341489688596187136",
        "55464657044963196816950587289035428064568320970692304673817341489688587816963",
        "55464657044963196816950587289035428064568320970692304673817341489688587816965",
        "55464657044963196816950587289035428064568320970692304673817341489688587816964"
      ]
    },
    {
      "x": 312,
      "y": 401,
      "size": 1,
      "price": "4683000000000000000000",
      "reserved": "",
      "salt": "0xbe9ac3c76242d761fb80544a66a66be86aa92f221b7105c3175eeb209291bb79",
      "assetIds": [
        "55464657044963196816950587289035428064568320970692304673817341489688587816968",
        "55464657044963196816950587289035428064568320970692304673817341489688587816966",
        "55464657044963196816950587289035428064568320970692304673817341489688587816960",
        "55464657044963196816950587289035428064568320970692304673817341489688587816962",
        "55464657044963196816950587289035428064568320970692304673817341489688587816967",
        "55464657044963196816950587289035428064568320970692304673817341489688587816961",
        "55464657044963196816950587289035428064568320970692304673817341489688596187136",
        "55464657044963196816950587289035428064568320970692304673817341489688587816963",
        "55464657044963196816950587289035428064568320970692304673817341489688587816965",
        "55464657044963196816950587289035428064568320970692304673817341489688587816964"
      ]
    },
    {
      "x": 312,
      "y": 405,
      "size": 1,
      "price": "4683000000000000000000",
      "reserved": "",
      "salt": "0x131b2567107d833c969e5bb4112757f2976f5bf94b6685e56772c660ad30fba6",
      "assetIds": [
        "55464657044963196816950587289035428064568320970692304673817341489688587816968",
        "55464657044963196816950587289035428064568320970692304673817341489688587816966",
        "55464657044963196816950587289035428064568320970692304673817341489688587816960",
        "55464657044963196816950587289035428064568320970692304673817341489688587816962",
        "55464657044963196816950587289035428064568320970692304673817341489688587816967",
        "55464657044963196816950587289035428064568320970692304673817341489688587816961",
        "55464657044963196816950587289035428064568320970692304673817341489688596187136",
        "55464657044963196816950587289035428064568320970692304673817341489688587816963",
        "55464657044963196816950587289035428064568320970692304673817341489688587816965",
        "55464657044963196816950587289035428064568320970692304673817341489688587816964"
      ]
    },
    {
      "x": 312,
      "y": 406,
      "size": 1,
      "price": "4683000000000000000000",
      "reserved": "",
      "salt": "0xee411235128c22e3165496c57224eaa309e12f611c09fb26aa0bb900acaf8631",
      "assetIds": [
        "55464657044963196816950587289035428064568320970692304673817341489688587816968",
        "55464657044963196816950587289035428064568320970692304673817341489688587816966",
        "55464657044963196816950587289035428064568320970692304673817341489688587816960",
        "55464657044963196816950587289035428064568320970692304673817341489688587816962",
        "55464657044963196816950587289035428064568320970692304673817341489688587816967",
        "55464657044963196816950587289035428064568320970692304673817341489688587816961",
        "55464657044963196816950587289035428064568320970692304673817341489688596187136",
        "55464657044963196816950587289035428064568320970692304673817341489688587816963",
        "55464657044963196816950587289035428064568320970692304673817341489688587816965",
        "55464657044963196816950587289035428064568320970692304673817341489688587816964"
      ]
    },
    {
      "x": 312,
      "y": 407,
      "size": 1,
      "price": "4683000000000000000000",
      "reserved": "",
      "salt": "0x9307617827fb869c1e2a995742b82e0e33158d9e50eb031dfb1df8cfb4f4d395",
      "assetIds": [
        "55464657044963196816950587289035428064568320970692304673817341489688587816968",
        "55464657044963196816950587289035428064568320970692304673817341489688587816966",
        "55464657044963196816950587289035428064568320970692304673817341489688587816960",
        "55464657044963196816950587289035428064568320970692304673817341489688587816962",
        "55464657044963196816950587289035428064568320970692304673817341489688587816967",
        "55464657044963196816950587289035428064568320970692304673817341489688587816961",
        "55464657044963196816950587289035428064568320970692304673817341489688596187136",
        "55464657044963196816950587289035428064568320970692304673817341489688587816963",
        "55464657044963196816950587289035428064568320970692304673817341489688587816965",
        "55464657044963196816950587289035428064568320970692304673817341489688587816964"
      ]
    },
    {
      "x": 313,
      "y": 393,
      "size": 1,
      "price": "4683000000000000000000",
      "reserved": "",
      "salt": "0x327b4f0d9ae1e3c4e836877669d26cb9648dc67b9e03938a30bbd0d457f73599",
      "assetIds": [
        "55464657044963196816950587289035428064568320970692304673817341489688587816968",
        "55464657044963196816950587289035428064568320970692304673817341489688587816966",
        "55464657044963196816950587289035428064568320970692304673817341489688587816960",
        "55464657044963196816950587289035428064568320970692304673817341489688587816962",
        "55464657044963196816950587289035428064568320970692304673817341489688587816967",
        "55464657044963196816950587289035428064568320970692304673817341489688587816961",
        "55464657044963196816950587289035428064568320970692304673817341489688596187136",
        "55464657044963196816950587289035428064568320970692304673817341489688587816963",
        "55464657044963196816950587289035428064568320970692304673817341489688587816965",
        "55464657044963196816950587289035428064568320970692304673817341489688587816964"
      ]
    },
    {
      "x": 313,
      "y": 394,
      "size": 1,
      "price": "4683000000000000000000",
      "reserved": "",
      "salt": "0x6622be82e598744750879eb3c33cd0f557df3f74edd84a77098870d288771722",
      "assetIds": [
        "55464657044963196816950587289035428064568320970692304673817341489688587816968",
        "55464657044963196816950587289035428064568320970692304673817341489688587816966",
        "55464657044963196816950587289035428064568320970692304673817341489688587816960",
        "55464657044963196816950587289035428064568320970692304673817341489688587816962",
        "55464657044963196816950587289035428064568320970692304673817341489688587816967",
        "55464657044963196816950587289035428064568320970692304673817341489688587816961",
        "55464657044963196816950587289035428064568320970692304673817341489688596187136",
        "55464657044963196816950587289035428064568320970692304673817341489688587816963",
        "55464657044963196816950587289035428064568320970692304673817341489688587816965",
        "55464657044963196816950587289035428064568320970692304673817341489688587816964"
      ]
    },
    {
      "x": 313,
      "y": 395,
      "size": 1,
      "price": "4683000000000000000000",
      "reserved": "",
      "salt": "0xac875f84ace96748ccb03f4420a820a2fce05b0f121e1caedbc3000c3f808678",
      "assetIds": [
        "55464657044963196816950587289035428064568320970692304673817341489688587816968",
        "55464657044963196816950587289035428064568320970692304673817341489688587816966",
        "55464657044963196816950587289035428064568320970692304673817341489688587816960",
        "55464657044963196816950587289035428064568320970692304673817341489688587816962",
        "55464657044963196816950587289035428064568320970692304673817341489688587816967",
        "55464657044963196816950587289035428064568320970692304673817341489688587816961",
        "55464657044963196816950587289035428064568320970692304673817341489688596187136",
        "55464657044963196816950587289035428064568320970692304673817341489688587816963",
        "55464657044963196816950587289035428064568320970692304673817341489688587816965",
        "55464657044963196816950587289035428064568320970692304673817341489688587816964"
      ]
    },
    {
      "x": 313,
      "y": 396,
      "size": 1,
      "price": "4683000000000000000000",
      "reserved": "",
      "salt": "0x84821ac205189f1190324a8157d3f79fa71e8817f89847d4580b069733f4148b",
      "assetIds": [
        "55464657044963196816950587289035428064568320970692304673817341489688587816968",
        "55464657044963196816950587289035428064568320970692304673817341489688587816966",
        "55464657044963196816950587289035428064568320970692304673817341489688587816960",
        "55464657044963196816950587289035428064568320970692304673817341489688587816962",
        "55464657044963196816950587289035428064568320970692304673817341489688587816967",
        "55464657044963196816950587289035428064568320970692304673817341489688587816961",
        "55464657044963196816950587289035428064568320970692304673817341489688596187136",
        "55464657044963196816950587289035428064568320970692304673817341489688587816963",
        "55464657044963196816950587289035428064568320970692304673817341489688587816965",
        "55464657044963196816950587289035428064568320970692304673817341489688587816964"
      ]
    },
    {
      "x": 313,
      "y": 397,
      "size": 1,
      "price": "4683000000000000000000",
      "reserved": "",
      "salt": "0x4a08170239871d4130826faca98de90e331d540096e98c1d78c74097723a5489",
      "assetIds": [
        "55464657044963196816950587289035428064568320970692304673817341489688587816968",
        "55464657044963196816950587289035428064568320970692304673817341489688587816966",
        "55464657044963196816950587289035428064568320970692304673817341489688587816960",
        "55464657044963196816950587289035428064568320970692304673817341489688587816962",
        "55464657044963196816950587289035428064568320970692304673817341489688587816967",
        "55464657044963196816950587289035428064568320970692304673817341489688587816961",
        "55464657044963196816950587289035428064568320970692304673817341489688596187136",
        "55464657044963196816950587289035428064568320970692304673817341489688587816963",
        "55464657044963196816950587289035428064568320970692304673817341489688587816965",
        "55464657044963196816950587289035428064568320970692304673817341489688587816964"
      ]
    },
    {
      "x": 313,
      "y": 398,
      "size": 1,
      "price": "4683000000000000000000",
      "reserved": "",
      "salt": "0x954a5c3d4e73fd68a69757182d814ffb0fe456d6ec5a54da98e01b5e2295b740",
      "assetIds": [
        "55464657044963196816950587289035428064568320970692304673817341489688587816968",
        "55464657044963196816950587289035428064568320970692304673817341489688587816966",
        "55464657044963196816950587289035428064568320970692304673817341489688587816960",
        "55464657044963196816950587289035428064568320970692304673817341489688587816962",
        "55464657044963196816950587289035428064568320970692304673817341489688587816967",
        "55464657044963196816950587289035428064568320970692304673817341489688587816961",
        "55464657044963196816950587289035428064568320970692304673817341489688596187136",
        "55464657044963196816950587289035428064568320970692304673817341489688587816963",
        "55464657044963196816950587289035428064568320970692304673817341489688587816965",
        "55464657044963196816950587289035428064568320970692304673817341489688587816964"
      ]
    },
    {
      "x": 313,
      "y": 399,
      "size": 1,
      "price": "4683000000000000000000",
      "reserved": "",
      "salt": "0x576144b18daf6808e9505ed83fe392b5155e5fbd9802111f3b7b222e0094b283",
      "assetIds": [
        "55464657044963196816950587289035428064568320970692304673817341489688587816968",
        "55464657044963196816950587289035428064568320970692304673817341489688587816966",
        "55464657044963196816950587289035428064568320970692304673817341489688587816960",
        "55464657044963196816950587289035428064568320970692304673817341489688587816962",
        "55464657044963196816950587289035428064568320970692304673817341489688587816967",
        "55464657044963196816950587289035428064568320970692304673817341489688587816961",
        "55464657044963196816950587289035428064568320970692304673817341489688596187136",
        "55464657044963196816950587289035428064568320970692304673817341489688587816963",
        "55464657044963196816950587289035428064568320970692304673817341489688587816965",
        "55464657044963196816950587289035428064568320970692304673817341489688587816964"
      ]
    },
    {
      "x": 313,
      "y": 400,
      "size": 1,
      "price": "4683000000000000000000",
      "reserved": "",
      "salt": "0xe4013459ee36b311d4f1deb476ce611c6dbe97f4bc5856edeb8c646c31d0cd0b",
      "assetIds": [
        "55464657044963196816950587289035428064568320970692304673817341489688587816968",
        "55464657044963196816950587289035428064568320970692304673817341489688587816966",
        "55464657044963196816950587289035428064568320970692304673817341489688587816960",
        "55464657044963196816950587289035428064568320970692304673817341489688587816962",
        "55464657044963196816950587289035428064568320970692304673817341489688587816967",
        "55464657044963196816950587289035428064568320970692304673817341489688587816961",
        "55464657044963196816950587289035428064568320970692304673817341489688596187136",
        "55464657044963196816950587289035428064568320970692304673817341489688587816963",
        "55464657044963196816950587289035428064568320970692304673817341489688587816965",
        "55464657044963196816950587289035428064568320970692304673817341489688587816964"
      ]
    },
    {
      "x": 313,
      "y": 401,
      "size": 1,
      "price": "4683000000000000000000",
      "reserved": "",
      "salt": "0x184be76a2301def433d6134105b037b5b296fa3f07640f97ae0e9219cbfcda8e",
      "assetIds": [
        "55464657044963196816950587289035428064568320970692304673817341489688587816968",
        "55464657044963196816950587289035428064568320970692304673817341489688587816966",
        "55464657044963196816950587289035428064568320970692304673817341489688587816960",
        "55464657044963196816950587289035428064568320970692304673817341489688587816962",
        "55464657044963196816950587289035428064568320970692304673817341489688587816967",
        "55464657044963196816950587289035428064568320970692304673817341489688587816961",
        "55464657044963196816950587289035428064568320970692304673817341489688596187136",
        "55464657044963196816950587289035428064568320970692304673817341489688587816963",
        "55464657044963196816950587289035428064568320970692304673817341489688587816965",
        "55464657044963196816950587289035428064568320970692304673817341489688587816964"
      ]
    },
    {
      "x": 313,
      "y": 405,
      "size": 1,
      "price": "4683000000000000000000",
      "reserved": "",
      "salt": "0xcf1248a41c5ba13d49d6a368a6eb70bdeea20bac703dcb711527da22545f6beb",
      "assetIds": [
        "55464657044963196816950587289035428064568320970692304673817341489688587816968",
        "55464657044963196816950587289035428064568320970692304673817341489688587816966",
        "55464657044963196816950587289035428064568320970692304673817341489688587816960",
        "55464657044963196816950587289035428064568320970692304673817341489688587816962",
        "55464657044963196816950587289035428064568320970692304673817341489688587816967",
        "55464657044963196816950587289035428064568320970692304673817341489688587816961",
        "55464657044963196816950587289035428064568320970692304673817341489688596187136",
        "55464657044963196816950587289035428064568320970692304673817341489688587816963",
        "55464657044963196816950587289035428064568320970692304673817341489688587816965",
        "55464657044963196816950587289035428064568320970692304673817341489688587816964"
      ]
    },
    {
      "x": 313,
      "y": 406,
      "size": 1,
      "price": "4683000000000000000000",
      "reserved": "",
      "salt": "0x54a5eb7247dab7a95a2ccbcf5800e73790cd4a8e2615a8f95ed9063db64959a3",
      "assetIds": [
        "55464657044963196816950587289035428064568320970692304673817341489688587816968",
        "55464657044963196816950587289035428064568320970692304673817341489688587816966",
        "55464657044963196816950587289035428064568320970692304673817341489688587816960",
        "55464657044963196816950587289035428064568320970692304673817341489688587816962",
        "55464657044963196816950587289035428064568320970692304673817341489688587816967",
        "55464657044963196816950587289035428064568320970692304673817341489688587816961",
        "55464657044963196816950587289035428064568320970692304673817341489688596187136",
        "55464657044963196816950587289035428064568320970692304673817341489688587816963",
        "55464657044963196816950587289035428064568320970692304673817341489688587816965",
        "55464657044963196816950587289035428064568320970692304673817341489688587816964"
      ]
    },
    {
      "x": 313,
      "y": 407,
      "size": 1,
      "price": "4683000000000000000000",
      "reserved": "",
      "salt": "0x1131ba2db7ecf3c332612ffdec55568f0645d952bdb8f6445c13a1db8bc2a0a8",
      "assetIds": [
        "55464657044963196816950587289035428064568320970692304673817341489688587816968",
        "55464657044963196816950587289035428064568320970692304673817341489688587816966",
        "55464657044963196816950587289035428064568320970692304673817341489688587816960",
        "55464657044963196816950587289035428064568320970692304673817341489688587816962",
        "55464657044963196816950587289035428064568320970692304673817341489688587816967",
        "55464657044963196816950587289035428064568320970692304673817341489688587816961",
        "55464657044963196816950587289035428064568320970692304673817341489688596187136",
        "55464657044963196816950587289035428064568320970692304673817341489688587816963",
        "55464657044963196816950587289035428064568320970692304673817341489688587816965",
        "55464657044963196816950587289035428064568320970692304673817341489688587816964"
      ]
    },
    {
      "x": 314,
      "y": 393,
      "size": 1,
      "price": "1011000000000000000000",
      "reserved": "",
      "salt": "0x80ca88b31a320dddda9b0e08eaca3646d379747e44b5c31bd9e77adba360ed4d",
      "assetIds": []
    },
    {
      "x": 314,
      "y": 394,
      "size": 1,
      "price": "1011000000000000000000",
      "reserved": "",
      "salt": "0xd1b39abc69e4e379e522870abace48d661e5ca4131708ee7c4c84af780406057",
      "assetIds": []
    },
    {
      "x": 314,
      "y": 395,
      "size": 1,
      "price": "1011000000000000000000",
      "reserved": "",
      "salt": "0xb80f541d2a04844aa8dbe10dc18f8b6beef0653c1ef2a45f539ded1e0039ceab",
      "assetIds": []
    },
    {
      "x": 314,
      "y": 396,
      "size": 1,
      "price": "1011000000000000000000",
      "reserved": "",
      "salt": "0x981209fc98e1a341c83cc67cef2528c931f28bec36aa71b4dc642998a2c462cf",
      "assetIds": []
    },
    {
      "x": 314,
      "y": 397,
      "size": 1,
      "price": "4683000000000000000000",
      "reserved": "",
      "salt": "0x46196bc63e0b8da5739f2cd9c9356081bf25be022685910b77e10535c7ff1983",
      "assetIds": [
        "55464657044963196816950587289035428064568320970692304673817341489688587816968",
        "55464657044963196816950587289035428064568320970692304673817341489688587816966",
        "55464657044963196816950587289035428064568320970692304673817341489688587816960",
        "55464657044963196816950587289035428064568320970692304673817341489688587816962",
        "55464657044963196816950587289035428064568320970692304673817341489688587816967",
        "55464657044963196816950587289035428064568320970692304673817341489688587816961",
        "55464657044963196816950587289035428064568320970692304673817341489688596187136",
        "55464657044963196816950587289035428064568320970692304673817341489688587816963",
        "55464657044963196816950587289035428064568320970692304673817341489688587816965",
        "55464657044963196816950587289035428064568320970692304673817341489688587816964"
      ]
    },
    {
      "x": 314,
      "y": 398,
      "size": 1,
      "price": "4683000000000000000000",
      "reserved": "",
      "salt": "0x89c5fcf5584be47b3d847a251f7707710455aec1769fc1bf473a99caf7c75ce5",
      "assetIds": [
        "55464657044963196816950587289035428064568320970692304673817341489688587816968",
        "55464657044963196816950587289035428064568320970692304673817341489688587816966",
        "55464657044963196816950587289035428064568320970692304673817341489688587816960",
        "55464657044963196816950587289035428064568320970692304673817341489688587816962",
        "55464657044963196816950587289035428064568320970692304673817341489688587816967",
        "55464657044963196816950587289035428064568320970692304673817341489688587816961",
        "55464657044963196816950587289035428064568320970692304673817341489688596187136",
        "55464657044963196816950587289035428064568320970692304673817341489688587816963",
        "55464657044963196816950587289035428064568320970692304673817341489688587816965",
        "55464657044963196816950587289035428064568320970692304673817341489688587816964"
      ]
    },
    {
      "x": 314,
      "y": 399,
      "size": 1,
      "price": "1011000000000000000000",
      "reserved": "0x7a9fe22691c811ea339d9b73150e6911a5343dca",
      "salt": "0xfe25d6394e46d0c1b3ce08d2ac24ee9e5281b46c57e074cad79dd295efe034d1",
      "assetIds": []
    },
    {
      "x": 314,
      "y": 400,
      "size": 1,
      "price": "4683000000000000000000",
      "reserved": "",
      "salt": "0xfc58eae19c82b07decb7a5cf0ca72612486359c89b92710bee0b0b2620499dad",
      "assetIds": [
        "55464657044963196816950587289035428064568320970692304673817341489688587816968",
        "55464657044963196816950587289035428064568320970692304673817341489688587816966",
        "55464657044963196816950587289035428064568320970692304673817341489688587816960",
        "55464657044963196816950587289035428064568320970692304673817341489688587816962",
        "55464657044963196816950587289035428064568320970692304673817341489688587816967",
        "55464657044963196816950587289035428064568320970692304673817341489688587816961",
        "55464657044963196816950587289035428064568320970692304673817341489688596187136",
        "55464657044963196816950587289035428064568320970692304673817341489688587816963",
        "55464657044963196816950587289035428064568320970692304673817341489688587816965",
        "55464657044963196816950587289035428064568320970692304673817341489688587816964"
      ]
    },
    {
      "x": 314,
      "y": 401,
      "size": 1,
      "price": "1011000000000000000000",
      "reserved": "0x7a9fe22691c811ea339d9b73150e6911a5343dca",
      "salt": "0x185253d9b930f13f86b0bc015e36a80f0746e11b0c6281b7b77139a0d85cb713",
      "assetIds": []
    },
    {
      "x": 314,
      "y": 405,
      "size": 1,
      "price": "1011000000000000000000",
      "reserved": "0x7a9fe22691c811ea339d9b73150e6911a5343dca",
      "salt": "0x9ad0b8ab4f9b550f48398f53ea00d44a542fd7faaa4a18633a6899bc3d15ca4b",
      "assetIds": []
    },
    {
      "x": 314,
      "y": 406,
      "size": 1,
      "price": "4683000000000000000000",
      "reserved": "",
      "salt": "0x0d2993fed0dbf5374d60b57095485fa46789ba0d740891b97c2bcaf89132e7bb",
      "assetIds": [
        "55464657044963196816950587289035428064568320970692304673817341489688587816968",
        "55464657044963196816950587289035428064568320970692304673817341489688587816966",
        "55464657044963196816950587289035428064568320970692304673817341489688587816960",
        "55464657044963196816950587289035428064568320970692304673817341489688587816962",
        "55464657044963196816950587289035428064568320970692304673817341489688587816967",
        "55464657044963196816950587289035428064568320970692304673817341489688587816961",
        "55464657044963196816950587289035428064568320970692304673817341489688596187136",
        "55464657044963196816950587289035428064568320970692304673817341489688587816963",
        "55464657044963196816950587289035428064568320970692304673817341489688587816965",
        "55464657044963196816950587289035428064568320970692304673817341489688587816964"
      ]
    },
    {
      "x": 314,
      "y": 407,
      "size": 1,
      "price": "1011000000000000000000",
      "reserved": "0x7a9fe22691c811ea339d9b73150e6911a5343dca",
      "salt": "0x84b74284d6301d128ab04a453042c2e7f0ecef1aa81a3a54adf5779165bc0bf0",
      "assetIds": []
    },
    {
      "x": 315,
      "y": 390,
      "size": 1,
      "price": "1011000000000000000000",
      "reserved": "",
      "salt": "0x9973464b51dc44a42f870453e528dbc880055dbd119ac0617b9526ddc239d46a",
      "assetIds": []
    },
    {
      "x": 315,
      "y": 391,
      "size": 1,
      "price": "1011000000000000000000",
      "reserved": "",
      "salt": "0xf0186d4b24ccb1c6d923e3bc98beb913e33769e595ebdbece27b474041a9b9a9",
      "assetIds": []
    },
    {
      "x": 315,
      "y": 392,
      "size": 1,
      "price": "1011000000000000000000",
      "reserved": "",
      "salt": "0x73d289b3af4d9f5e7d52e15266e24121ebcff62ae9c008672073f235946ee33c",
      "assetIds": []
    },
    {
      "x": 315,
      "y": 396,
      "size": 1,
      "price": "1011000000000000000000",
      "reserved": "",
      "salt": "0x607f2736af87e96ee15da8473ee68eee167d47afe00b986fd7f87a8e901daf23",
      "assetIds": []
    },
    {
      "x": 315,
      "y": 397,
      "size": 1,
      "price": "4683000000000000000000",
      "reserved": "",
      "salt": "0x00cef405af9f93cc8f8d72df0fe09c7ddfaae36d3f209c5cd705956bf10d848a",
      "assetIds": [
        "55464657044963196816950587289035428064568320970692304673817341489688587816968",
        "55464657044963196816950587289035428064568320970692304673817341489688587816966",
        "55464657044963196816950587289035428064568320970692304673817341489688587816960",
        "55464657044963196816950587289035428064568320970692304673817341489688587816962",
        "55464657044963196816950587289035428064568320970692304673817341489688587816967",
        "55464657044963196816950587289035428064568320970692304673817341489688587816961",
        "55464657044963196816950587289035428064568320970692304673817341489688596187136",
        "55464657044963196816950587289035428064568320970692304673817341489688587816963",
        "55464657044963196816950587289035428064568320970692304673817341489688587816965",
        "55464657044963196816950587289035428064568320970692304673817341489688587816964"
      ]
    },
    {
      "x": 315,
      "y": 398,
      "size": 1,
      "price": "1011000000000000000000",
      "reserved": "0x7a9fe22691c811ea339d9b73150e6911a5343dca",
      "salt": "0x515e78c52cf0f20655a63755d8ab6c5575de9eee435d72d16270ea78c8c1218e",
      "assetIds": []
    },
    {
      "x": 316,
      "y": 390,
      "size": 1,
      "price": "1011000000000000000000",
      "reserved": "",
      "salt": "0x2ce23a41710faec4778a098fd3c12aaca58cbe450844b0c39a90338f60c4836c",
      "assetIds": []
    },
    {
      "x": 316,
      "y": 391,
      "size": 1,
      "price": "1011000000000000000000",
      "reserved": "",
      "salt": "0x4f91395941070ce0c478689a77115bdb45a1161f472c1767886618b05a10cee6",
      "assetIds": []
    },
    {
      "x": 316,
      "y": 392,
      "size": 1,
      "price": "4683000000000000000000",
      "reserved": "",
      "salt": "0xde251ff751c0dcf8aa50a3aac33c3b724c4a222a1f81a3792293e888bb107c16",
      "assetIds": [
        "55464657044963196816950587289035428064568320970692304673817341489688587816968",
        "55464657044963196816950587289035428064568320970692304673817341489688587816966",
        "55464657044963196816950587289035428064568320970692304673817341489688587816960",
        "55464657044963196816950587289035428064568320970692304673817341489688587816962",
        "55464657044963196816950587289035428064568320970692304673817341489688587816967",
        "55464657044963196816950587289035428064568320970692304673817341489688587816961",
        "55464657044963196816950587289035428064568320970692304673817341489688596187136",
        "55464657044963196816950587289035428064568320970692304673817341489688587816963",
        "55464657044963196816950587289035428064568320970692304673817341489688587816965",
        "55464657044963196816950587289035428064568320970692304673817341489688587816964"
      ]
    },
    {
      "x": 316,
      "y": 396,
      "size": 1,
      "price": "4683000000000000000000",
      "reserved": "",
      "salt": "0x46c51c1dd14394a8842d112de2502b5446699847788ec31631bd41b899caa615",
      "assetIds": [
        "55464657044963196816950587289035428064568320970692304673817341489688587816968",
        "55464657044963196816950587289035428064568320970692304673817341489688587816966",
        "55464657044963196816950587289035428064568320970692304673817341489688587816960",
        "55464657044963196816950587289035428064568320970692304673817341489688587816962",
        "55464657044963196816950587289035428064568320970692304673817341489688587816967",
        "55464657044963196816950587289035428064568320970692304673817341489688587816961",
        "55464657044963196816950587289035428064568320970692304673817341489688596187136",
        "55464657044963196816950587289035428064568320970692304673817341489688587816963",
        "55464657044963196816950587289035428064568320970692304673817341489688587816965",
        "55464657044963196816950587289035428064568320970692304673817341489688587816964"
      ]
    },
    {
      "x": 316,
      "y": 397,
      "size": 1,
      "price": "4683000000000000000000",
      "reserved": "",
      "salt": "0xd1730e53a294ca853ff426b5618b3a452758f9043341b2f9315caa8734fb2b56",
      "assetIds": [
        "55464657044963196816950587289035428064568320970692304673817341489688587816968",
        "55464657044963196816950587289035428064568320970692304673817341489688587816966",
        "55464657044963196816950587289035428064568320970692304673817341489688587816960",
        "55464657044963196816950587289035428064568320970692304673817341489688587816962",
        "55464657044963196816950587289035428064568320970692304673817341489688587816967",
        "55464657044963196816950587289035428064568320970692304673817341489688587816961",
        "55464657044963196816950587289035428064568320970692304673817341489688596187136",
        "55464657044963196816950587289035428064568320970692304673817341489688587816963",
        "55464657044963196816950587289035428064568320970692304673817341489688587816965",
        "55464657044963196816950587289035428064568320970692304673817341489688587816964"
      ]
    },
    {
      "x": 316,
      "y": 398,
      "size": 1,
      "price": "4683000000000000000000",
      "reserved": "",
      "salt": "0x1119890073c0dd80ced9b28494b923259c4e36d881fb2e7272b7add1169dbddc",
      "assetIds": [
        "55464657044963196816950587289035428064568320970692304673817341489688587816968",
        "55464657044963196816950587289035428064568320970692304673817341489688587816966",
        "55464657044963196816950587289035428064568320970692304673817341489688587816960",
        "55464657044963196816950587289035428064568320970692304673817341489688587816962",
        "55464657044963196816950587289035428064568320970692304673817341489688587816967",
        "55464657044963196816950587289035428064568320970692304673817341489688587816961",
        "55464657044963196816950587289035428064568320970692304673817341489688596187136",
        "55464657044963196816950587289035428064568320970692304673817341489688587816963",
        "55464657044963196816950587289035428064568320970692304673817341489688587816965",
        "55464657044963196816950587289035428064568320970692304673817341489688587816964"
      ]
    },
    {
      "x": 317,
      "y": 390,
      "size": 1,
      "price": "1011000000000000000000",
      "reserved": "0x7a9fe22691c811ea339d9b73150e6911a5343dca",
      "salt": "0xc468211bb06b2c8832c68ccb1c8e2ebedf27cc6462556d4768cd587a9b6b5077",
      "assetIds": []
    },
    {
      "x": 317,
      "y": 391,
      "size": 1,
      "price": "4683000000000000000000",
      "reserved": "",
      "salt": "0x794b4b274966ba330cec21d5c77f888e5a5e3f745e64a11102de3afed7ab8095",
      "assetIds": [
        "55464657044963196816950587289035428064568320970692304673817341489688587816968",
        "55464657044963196816950587289035428064568320970692304673817341489688587816966",
        "55464657044963196816950587289035428064568320970692304673817341489688587816960",
        "55464657044963196816950587289035428064568320970692304673817341489688587816962",
        "55464657044963196816950587289035428064568320970692304673817341489688587816967",
        "55464657044963196816950587289035428064568320970692304673817341489688587816961",
        "55464657044963196816950587289035428064568320970692304673817341489688596187136",
        "55464657044963196816950587289035428064568320970692304673817341489688587816963",
        "55464657044963196816950587289035428064568320970692304673817341489688587816965",
        "55464657044963196816950587289035428064568320970692304673817341489688587816964"
      ]
    },
    {
      "x": 317,
      "y": 392,
      "size": 1,
      "price": "1011000000000000000000",
      "reserved": "0x7a9fe22691c811ea339d9b73150e6911a5343dca",
      "salt": "0x69324acb7f39f8394674ebeb0db15940c035edd239bfc290865f714d107c661d",
      "assetIds": []
    },
    {
      "x": 317,
      "y": 396,
      "size": 1,
      "price": "1011000000000000000000",
      "reserved": "0x7a9fe22691c811ea339d9b73150e6911a5343dca",
      "salt": "0xe39a04b6cfd70dcb49730577a96f5d881d0da1dc51b0decddbcd6a62ffeabcd9",
      "assetIds": []
    },
    {
      "x": 317,
      "y": 397,
      "size": 1,
      "price": "4683000000000000000000",
      "reserved": "",
      "salt": "0xf8bf5d17ac2efc7bc9d5cd8674c1fca078ad21837457f16aae531092e39342ac",
      "assetIds": [
        "55464657044963196816950587289035428064568320970692304673817341489688587816968",
        "55464657044963196816950587289035428064568320970692304673817341489688587816966",
        "55464657044963196816950587289035428064568320970692304673817341489688587816960",
        "55464657044963196816950587289035428064568320970692304673817341489688587816962",
        "55464657044963196816950587289035428064568320970692304673817341489688587816967",
        "55464657044963196816950587289035428064568320970692304673817341489688587816961",
        "55464657044963196816950587289035428064568320970692304673817341489688596187136",
        "55464657044963196816950587289035428064568320970692304673817341489688587816963",
        "55464657044963196816950587289035428064568320970692304673817341489688587816965",
        "55464657044963196816950587289035428064568320970692304673817341489688587816964"
      ]
    },
    {
      "x": 317,
      "y": 398,
      "size": 1,
      "price": "1011000000000000000000",
      "reserved": "0x7a9fe22691c811ea339d9b73150e6911a5343dca",
      "salt": "0xc08375808161f6c5a61ade02011f033779c145a8e61ff20a31c2bf185f9ade4c",
      "assetIds": []
    },
    {
      "x": 318,
      "y": 384,
      "size": 1,
      "price": "1011000000000000000000",
      "reserved": "",
      "salt": "0x15b4d8b85d6215228b59b56e6cfd415d0ddc3ea6e5dbd3a916e75b89ab798774",
      "assetIds": []
    },
    {
      "x": 318,
      "y": 385,
      "size": 1,
      "price": "1011000000000000000000",
      "reserved": "",
      "salt": "0xe38a1dca59b4e289ffbb1d975d8c1d4e4d8bf65efab9f4d5e5ac4d0c6d555f5b",
      "assetIds": []
    },
    {
      "x": 318,
      "y": 386,
      "size": 1,
      "price": "1011000000000000000000",
      "reserved": "",
      "salt": "0x38465f85362fc51c0d7065f4ae92163fd707196cd4181d16a2bb947dd68c0f62",
      "assetIds": []
    },
    {
      "x": 318,
      "y": 387,
      "size": 1,
      "price": "1011000000000000000000",
      "reserved": "",
      "salt": "0x7f505375e9eca25b5dbdc265470caaea8108433217da962392e11f09be45ddeb",
      "assetIds": []
    },
    {
      "x": 318,
      "y": 388,
      "size": 1,
      "price": "1011000000000000000000",
      "reserved": "",
      "salt": "0x66909e8884fd5cc7706a25a013285343ff33de713732cae8a6bae1b5a5da97c0",
      "assetIds": []
    },
    {
      "x": 318,
      "y": 389,
      "size": 1,
      "price": "4683000000000000000000",
      "reserved": "",
      "salt": "0x7d62f5f5f12dd33cce878616901956a26d7e3184a39b315b9e26eb26073c9559",
      "assetIds": [
        "55464657044963196816950587289035428064568320970692304673817341489688587816968",
        "55464657044963196816950587289035428064568320970692304673817341489688587816966",
        "55464657044963196816950587289035428064568320970692304673817341489688587816960",
        "55464657044963196816950587289035428064568320970692304673817341489688587816962",
        "55464657044963196816950587289035428064568320970692304673817341489688587816967",
        "55464657044963196816950587289035428064568320970692304673817341489688587816961",
        "55464657044963196816950587289035428064568320970692304673817341489688596187136",
        "55464657044963196816950587289035428064568320970692304673817341489688587816963",
        "55464657044963196816950587289035428064568320970692304673817341489688587816965",
        "55464657044963196816950587289035428064568320970692304673817341489688587816964"
      ]
    },
    {
      "x": 318,
      "y": 399,
      "size": 1,
      "price": "1011000000000000000000",
      "reserved": "0x7a9fe22691c811ea339d9b73150e6911a5343dca",
      "salt": "0x74a4cf755efc96dfb8b9b75d1ee708cd9f851161fe17c1a66180fff5c4d29743",
      "assetIds": []
    },
    {
      "x": 318,
      "y": 400,
      "size": 1,
      "price": "4683000000000000000000",
      "reserved": "",
      "salt": "0x583023410202c946616619294562989ef91e1e95f82cf9e2ae5065a981d1fc73",
      "assetIds": [
        "55464657044963196816950587289035428064568320970692304673817341489688587816968",
        "55464657044963196816950587289035428064568320970692304673817341489688587816966",
        "55464657044963196816950587289035428064568320970692304673817341489688587816960",
        "55464657044963196816950587289035428064568320970692304673817341489688587816962",
        "55464657044963196816950587289035428064568320970692304673817341489688587816967",
        "55464657044963196816950587289035428064568320970692304673817341489688587816961",
        "55464657044963196816950587289035428064568320970692304673817341489688596187136",
        "55464657044963196816950587289035428064568320970692304673817341489688587816963",
        "55464657044963196816950587289035428064568320970692304673817341489688587816965",
        "55464657044963196816950587289035428064568320970692304673817341489688587816964"
      ]
    },
    {
      "x": 318,
      "y": 401,
      "size": 1,
      "price": "1011000000000000000000",
      "reserved": "0x7a9fe22691c811ea339d9b73150e6911a5343dca",
      "salt": "0xb58a5d94c2c695653b45d0d100e4b69960f24280329903c69c76229ad569ed01",
      "assetIds": []
    },
    {
      "x": 318,
      "y": 402,
      "size": 1,
      "price": "1011000000000000000000",
      "reserved": "",
      "salt": "0x7c787a9c3a689a4a1a9a3df3fc6b5651c4248b6dfedb53b5a153c2c09e60a2e0",
      "assetIds": []
    },
    {
      "x": 318,
      "y": 403,
      "size": 1,
      "price": "1011000000000000000000",
      "reserved": "",
      "salt": "0xce47e0e67407608caa9bc1905614fea4f3b46975ef8b6204e49f179f4234d832",
      "assetIds": []
    },
    {
      "x": 318,
      "y": 404,
      "size": 1,
      "price": "1011000000000000000000",
      "reserved": "",
      "salt": "0x0feb28a85a8a34deae487fa6269e0c165bd59cd2b5a3d4328ee23224efff2814",
      "assetIds": []
    },
    {
      "x": 318,
      "y": 405,
      "size": 1,
      "price": "1011000000000000000000",
      "reserved": "0x7a9fe22691c811ea339d9b73150e6911a5343dca",
      "salt": "0x2b378710176cfb5ce1e4f9253e022f61d79e7a75a18e9a4dac34fd8b459a55b2",
      "assetIds": []
    },
    {
      "x": 318,
      "y": 406,
      "size": 1,
      "price": "4683000000000000000000",
      "reserved": "",
      "salt": "0xb2379b54bc57864b21d59b63b55abe73cfcebe6dbf56f59de672b97b04fe66e6",
      "assetIds": [
        "55464657044963196816950587289035428064568320970692304673817341489688587816968",
        "55464657044963196816950587289035428064568320970692304673817341489688587816966",
        "55464657044963196816950587289035428064568320970692304673817341489688587816960",
        "55464657044963196816950587289035428064568320970692304673817341489688587816962",
        "55464657044963196816950587289035428064568320970692304673817341489688587816967",
        "55464657044963196816950587289035428064568320970692304673817341489688587816961",
        "55464657044963196816950587289035428064568320970692304673817341489688596187136",
        "55464657044963196816950587289035428064568320970692304673817341489688587816963",
        "55464657044963196816950587289035428064568320970692304673817341489688587816965",
        "55464657044963196816950587289035428064568320970692304673817341489688587816964"
      ]
    },
    {
      "x": 318,
      "y": 407,
      "size": 1,
      "price": "1011000000000000000000",
      "reserved": "0x7a9fe22691c811ea339d9b73150e6911a5343dca",
      "salt": "0x3c57bf8cde04217fdfcf6d107136a4b94df95bb3e26c7d60b792fb38c02f3892",
      "assetIds": []
    },
    {
      "x": 319,
      "y": 384,
      "size": 1,
      "price": "4683000000000000000000",
      "reserved": "",
      "salt": "0x514784d3b50c77492a918a04ba7e08fa133fb2c8c3e4862c1cfb567f99e7b2fc",
      "assetIds": [
        "55464657044963196816950587289035428064568320970692304673817341489688587816968",
        "55464657044963196816950587289035428064568320970692304673817341489688587816966",
        "55464657044963196816950587289035428064568320970692304673817341489688587816960",
        "55464657044963196816950587289035428064568320970692304673817341489688587816962",
        "55464657044963196816950587289035428064568320970692304673817341489688587816967",
        "55464657044963196816950587289035428064568320970692304673817341489688587816961",
        "55464657044963196816950587289035428064568320970692304673817341489688596187136",
        "55464657044963196816950587289035428064568320970692304673817341489688587816963",
        "55464657044963196816950587289035428064568320970692304673817341489688587816965",
        "55464657044963196816950587289035428064568320970692304673817341489688587816964"
      ]
    },
    {
      "x": 319,
      "y": 385,
      "size": 1,
      "price": "4683000000000000000000",
      "reserved": "",
      "salt": "0xb8859359739955b3c4bd7de84b4432cf7a844d779aed02e2233877849102bcda",
      "assetIds": [
        "55464657044963196816950587289035428064568320970692304673817341489688587816968",
        "55464657044963196816950587289035428064568320970692304673817341489688587816966",
        "55464657044963196816950587289035428064568320970692304673817341489688587816960",
        "55464657044963196816950587289035428064568320970692304673817341489688587816962",
        "55464657044963196816950587289035428064568320970692304673817341489688587816967",
        "55464657044963196816950587289035428064568320970692304673817341489688587816961",
        "55464657044963196816950587289035428064568320970692304673817341489688596187136",
        "55464657044963196816950587289035428064568320970692304673817341489688587816963",
        "55464657044963196816950587289035428064568320970692304673817341489688587816965",
        "55464657044963196816950587289035428064568320970692304673817341489688587816964"
      ]
    },
    {
      "x": 319,
      "y": 386,
      "size": 1,
      "price": "4683000000000000000000",
      "reserved": "",
      "salt": "0x451c752f5383c78455fd42f75982af4e8a57dc4410356b5011d8232489865021",
      "assetIds": [
        "55464657044963196816950587289035428064568320970692304673817341489688587816968",
        "55464657044963196816950587289035428064568320970692304673817341489688587816966",
        "55464657044963196816950587289035428064568320970692304673817341489688587816960",
        "55464657044963196816950587289035428064568320970692304673817341489688587816962",
        "55464657044963196816950587289035428064568320970692304673817341489688587816967",
        "55464657044963196816950587289035428064568320970692304673817341489688587816961",
        "55464657044963196816950587289035428064568320970692304673817341489688596187136",
        "55464657044963196816950587289035428064568320970692304673817341489688587816963",
        "55464657044963196816950587289035428064568320970692304673817341489688587816965",
        "55464657044963196816950587289035428064568320970692304673817341489688587816964"
      ]
    },
    {
      "x": 319,
      "y": 387,
      "size": 1,
      "price": "1011000000000000000000",
      "reserved": "",
      "salt": "0xd282f77f32c0ff8374ee981eb6791bb9c7c58a7fb318aab29596fcc00b4f6322",
      "assetIds": []
    },
    {
      "x": 319,
      "y": 388,
      "size": 1,
      "price": "1011000000000000000000",
      "reserved": "",
      "salt": "0xb5c71f6fbd7ae2df8161889f8800065bf27096dbe3a062e28c6b05aa27b71934",
      "assetIds": []
    },
    {
      "x": 319,
      "y": 389,
      "size": 1,
      "price": "1011000000000000000000",
      "reserved": "0x7a9fe22691c811ea339d9b73150e6911a5343dca",
      "salt": "0x5f28d454fc67e97edf951b8e239dbf0f957cb7d70e38beaf599c89470032414f",
      "assetIds": []
    },
    {
      "x": 319,
      "y": 399,
      "size": 1,
      "price": "4683000000000000000000",
      "reserved": "",
      "salt": "0x0fc01171c1e7b579a306af2387a86e55fdbc7d4cd6dec8d17842efea797e56c5",
      "assetIds": [
        "55464657044963196816950587289035428064568320970692304673817341489688587816968",
        "55464657044963196816950587289035428064568320970692304673817341489688587816966",
        "55464657044963196816950587289035428064568320970692304673817341489688587816960",
        "55464657044963196816950587289035428064568320970692304673817341489688587816962",
        "55464657044963196816950587289035428064568320970692304673817341489688587816967",
        "55464657044963196816950587289035428064568320970692304673817341489688587816961",
        "55464657044963196816950587289035428064568320970692304673817341489688596187136",
        "55464657044963196816950587289035428064568320970692304673817341489688587816963",
        "55464657044963196816950587289035428064568320970692304673817341489688587816965",
        "55464657044963196816950587289035428064568320970692304673817341489688587816964"
      ]
    },
    {
      "x": 319,
      "y": 400,
      "size": 1,
      "price": "4683000000000000000000",
      "reserved": "",
      "salt": "0x1e76162e9029d93d7e8fa6a60a56e1b548c5141af2df9d60bb6afb3ebc098d0f",
      "assetIds": [
        "55464657044963196816950587289035428064568320970692304673817341489688587816968",
        "55464657044963196816950587289035428064568320970692304673817341489688587816966",
        "55464657044963196816950587289035428064568320970692304673817341489688587816960",
        "55464657044963196816950587289035428064568320970692304673817341489688587816962",
        "55464657044963196816950587289035428064568320970692304673817341489688587816967",
        "55464657044963196816950587289035428064568320970692304673817341489688587816961",
        "55464657044963196816950587289035428064568320970692304673817341489688596187136",
        "55464657044963196816950587289035428064568320970692304673817341489688587816963",
        "55464657044963196816950587289035428064568320970692304673817341489688587816965",
        "55464657044963196816950587289035428064568320970692304673817341489688587816964"
      ]
    },
    {
      "x": 319,
      "y": 401,
      "size": 1,
      "price": "4683000000000000000000",
      "reserved": "",
      "salt": "0x9fd1ca2484216c90bc2259be2c91b04b3c0e2a3bd0f52ac1bdb525cede8fcb3a",
      "assetIds": [
        "55464657044963196816950587289035428064568320970692304673817341489688587816968",
        "55464657044963196816950587289035428064568320970692304673817341489688587816966",
        "55464657044963196816950587289035428064568320970692304673817341489688587816960",
        "55464657044963196816950587289035428064568320970692304673817341489688587816962",
        "55464657044963196816950587289035428064568320970692304673817341489688587816967",
        "55464657044963196816950587289035428064568320970692304673817341489688587816961",
        "55464657044963196816950587289035428064568320970692304673817341489688596187136",
        "55464657044963196816950587289035428064568320970692304673817341489688587816963",
        "55464657044963196816950587289035428064568320970692304673817341489688587816965",
        "55464657044963196816950587289035428064568320970692304673817341489688587816964"
      ]
    },
    {
      "x": 319,
      "y": 402,
      "size": 1,
      "price": "1011000000000000000000",
      "reserved": "",
      "salt": "0x82f33b7e8799401735076ea340a3cf99d797ff2fca8df03e902364fcfd46b6d0",
      "assetIds": []
    },
    {
      "x": 319,
      "y": 403,
      "size": 1,
      "price": "1011000000000000000000",
      "reserved": "",
      "salt": "0x1603c8bf41916308e5fb71f0b09eb9f4945e2775a5370f3a7f2045c306bc3989",
      "assetIds": []
    },
    {
      "x": 319,
      "y": 404,
      "size": 1,
      "price": "1011000000000000000000",
      "reserved": "",
      "salt": "0x5957c56910dedaba2d87d09c6683f8857a721f8f71c8a916a026f0c437c0c774",
      "assetIds": []
    },
    {
      "x": 319,
      "y": 405,
      "size": 1,
      "price": "4683000000000000000000",
      "reserved": "",
      "salt": "0x70e33fed30bd6d245d5ce09f528b1336cbd7c5fe5ad1a73f61b5517754f4b859",
      "assetIds": [
        "55464657044963196816950587289035428064568320970692304673817341489688587816968",
        "55464657044963196816950587289035428064568320970692304673817341489688587816966",
        "55464657044963196816950587289035428064568320970692304673817341489688587816960",
        "55464657044963196816950587289035428064568320970692304673817341489688587816962",
        "55464657044963196816950587289035428064568320970692304673817341489688587816967",
        "55464657044963196816950587289035428064568320970692304673817341489688587816961",
        "55464657044963196816950587289035428064568320970692304673817341489688596187136",
        "55464657044963196816950587289035428064568320970692304673817341489688587816963",
        "55464657044963196816950587289035428064568320970692304673817341489688587816965",
        "55464657044963196816950587289035428064568320970692304673817341489688587816964"
      ]
    },
    {
      "x": 319,
      "y": 406,
      "size": 1,
      "price": "4683000000000000000000",
      "reserved": "",
      "salt": "0xc92f602973682891862a64c3bcfa96d7c76f11c1c412d08570d840cd8365ca07",
      "assetIds": [
        "55464657044963196816950587289035428064568320970692304673817341489688587816968",
        "55464657044963196816950587289035428064568320970692304673817341489688587816966",
        "55464657044963196816950587289035428064568320970692304673817341489688587816960",
        "55464657044963196816950587289035428064568320970692304673817341489688587816962",
        "55464657044963196816950587289035428064568320970692304673817341489688587816967",
        "55464657044963196816950587289035428064568320970692304673817341489688587816961",
        "55464657044963196816950587289035428064568320970692304673817341489688596187136",
        "55464657044963196816950587289035428064568320970692304673817341489688587816963",
        "55464657044963196816950587289035428064568320970692304673817341489688587816965",
        "55464657044963196816950587289035428064568320970692304673817341489688587816964"
      ]
    },
    {
      "x": 319,
      "y": 407,
      "size": 1,
      "price": "4683000000000000000000",
      "reserved": "",
      "salt": "0x7791df728944984fd643a3611d3bdf48fb315ace4a473faf85bb989229c6db0f",
      "assetIds": [
        "55464657044963196816950587289035428064568320970692304673817341489688587816968",
        "55464657044963196816950587289035428064568320970692304673817341489688587816966",
        "55464657044963196816950587289035428064568320970692304673817341489688587816960",
        "55464657044963196816950587289035428064568320970692304673817341489688587816962",
        "55464657044963196816950587289035428064568320970692304673817341489688587816967",
        "55464657044963196816950587289035428064568320970692304673817341489688587816961",
        "55464657044963196816950587289035428064568320970692304673817341489688596187136",
        "55464657044963196816950587289035428064568320970692304673817341489688587816963",
        "55464657044963196816950587289035428064568320970692304673817341489688587816965",
        "55464657044963196816950587289035428064568320970692304673817341489688587816964"
      ]
    },
    {
      "x": 320,
      "y": 384,
      "size": 1,
      "price": "1011000000000000000000",
      "reserved": "0x7a9fe22691c811ea339d9b73150e6911a5343dca",
      "salt": "0xc5518495ab58dfb73b35169a35cfaddb35b47615a1a5d470916f4fa471d66c82",
      "assetIds": []
    },
    {
      "x": 320,
      "y": 385,
      "size": 1,
      "price": "4683000000000000000000",
      "reserved": "",
      "salt": "0x694d702c716b8cf085a45c3a727791780c799a8b49f497623579410be65de7e7",
      "assetIds": [
        "55464657044963196816950587289035428064568320970692304673817341489688587816968",
        "55464657044963196816950587289035428064568320970692304673817341489688587816966",
        "55464657044963196816950587289035428064568320970692304673817341489688587816960",
        "55464657044963196816950587289035428064568320970692304673817341489688587816962",
        "55464657044963196816950587289035428064568320970692304673817341489688587816967",
        "55464657044963196816950587289035428064568320970692304673817341489688587816961",
        "55464657044963196816950587289035428064568320970692304673817341489688596187136",
        "55464657044963196816950587289035428064568320970692304673817341489688587816963",
        "55464657044963196816950587289035428064568320970692304673817341489688587816965",
        "55464657044963196816950587289035428064568320970692304673817341489688587816964"
      ]
    },
    {
      "x": 320,
      "y": 386,
      "size": 1,
      "price": "1011000000000000000000",
      "reserved": "0x7a9fe22691c811ea339d9b73150e6911a5343dca",
      "salt": "0xd862d338b5951eb992f35f68437eeab15088ce0e5b903282cbb548c87ff02097",
      "assetIds": []
    },
    {
      "x": 320,
      "y": 387,
      "size": 1,
      "price": "1011000000000000000000",
      "reserved": "",
      "salt": "0x7c84e02f58117ad14925075312a2d01b797de084123dd069ffd7fa9f77150064",
      "assetIds": []
    },
    {
      "x": 320,
      "y": 388,
      "size": 1,
      "price": "1011000000000000000000",
      "reserved": "",
      "salt": "0x81a19be15f3ad4463ef4d3cc7a4c6b61cd3b86d27100ac7271ecfded89a00eeb",
      "assetIds": []
    },
    {
      "x": 320,
      "y": 389,
      "size": 1,
      "price": "4683000000000000000000",
      "reserved": "",
      "salt": "0xe11598c3c8f815f130dda57fcf2901ba6170c1170c8635a767aca14bf56bad15",
      "assetIds": [
        "55464657044963196816950587289035428064568320970692304673817341489688587816968",
        "55464657044963196816950587289035428064568320970692304673817341489688587816966",
        "55464657044963196816950587289035428064568320970692304673817341489688587816960",
        "55464657044963196816950587289035428064568320970692304673817341489688587816962",
        "55464657044963196816950587289035428064568320970692304673817341489688587816967",
        "55464657044963196816950587289035428064568320970692304673817341489688587816961",
        "55464657044963196816950587289035428064568320970692304673817341489688596187136",
        "55464657044963196816950587289035428064568320970692304673817341489688587816963",
        "55464657044963196816950587289035428064568320970692304673817341489688587816965",
        "55464657044963196816950587289035428064568320970692304673817341489688587816964"
      ]
    },
    {
      "x": 320,
      "y": 399,
      "size": 1,
      "price": "1011000000000000000000",
      "reserved": "0x7a9fe22691c811ea339d9b73150e6911a5343dca",
      "salt": "0xf170208750218fdebb3ad004e38aefcd6aca40d6b9cd95f44477320db3c344b4",
      "assetIds": []
    },
    {
      "x": 320,
      "y": 400,
      "size": 1,
      "price": "1011000000000000000000",
      "reserved": "",
      "salt": "0x13f9084986eb06e53396f61e5f73d10e37a9133be9f793aead5ea3ddf0d6e7be",
      "assetIds": []
    },
    {
      "x": 320,
      "y": 401,
      "size": 1,
      "price": "1011000000000000000000",
      "reserved": "",
      "salt": "0x7da3a48b1fcffe35c822990d2a96310241243510a41fcd37a2c9c3857917dda3",
      "assetIds": []
    },
    {
      "x": 320,
      "y": 402,
      "size": 1,
      "price": "1011000000000000000000",
      "reserved": "",
      "salt": "0x4b9718a9ba6ad7429cfee0a82b67a642bce419f5b3aaf75645666ac088b89185",
      "assetIds": []
    },
    {
      "x": 320,
      "y": 403,
      "size": 1,
      "price": "1011000000000000000000",
      "reserved": "",
      "salt": "0x3145fb740b17a48ee9d05d0962d92f3fe170357d0a1b9a97f19c141e2f9f57fc",
      "assetIds": []
    },
    {
      "x": 320,
      "y": 404,
      "size": 1,
      "price": "1011000000000000000000",
      "reserved": "",
      "salt": "0x908ecdbf1e7bf3a4cc5b6fee196e19c9abebc3a556b9b1a8debfcd9bf6546a69",
      "assetIds": []
    },
    {
      "x": 320,
      "y": 405,
      "size": 1,
      "price": "1011000000000000000000",
      "reserved": "0x7a9fe22691c811ea339d9b73150e6911a5343dca",
      "salt": "0x94d4ef914254f01ac72096a478cdbda8c31250ac17b1e5ccf21b4cdd0c709b25",
      "assetIds": []
    },
    {
      "x": 320,
      "y": 406,
      "size": 1,
      "price": "4683000000000000000000",
      "reserved": "",
      "salt": "0xa81a5188921db4e4790b0d34ee885473363f58ae7a3ac6d1e9976a21b65c59e4",
      "assetIds": [
        "55464657044963196816950587289035428064568320970692304673817341489688587816968",
        "55464657044963196816950587289035428064568320970692304673817341489688587816966",
        "55464657044963196816950587289035428064568320970692304673817341489688587816960",
        "55464657044963196816950587289035428064568320970692304673817341489688587816962",
        "55464657044963196816950587289035428064568320970692304673817341489688587816967",
        "55464657044963196816950587289035428064568320970692304673817341489688587816961",
        "55464657044963196816950587289035428064568320970692304673817341489688596187136",
        "55464657044963196816950587289035428064568320970692304673817341489688587816963",
        "55464657044963196816950587289035428064568320970692304673817341489688587816965",
        "55464657044963196816950587289035428064568320970692304673817341489688587816964"
      ]
    },
    {
      "x": 320,
      "y": 407,
      "size": 1,
      "price": "1011000000000000000000",
      "reserved": "0x7a9fe22691c811ea339d9b73150e6911a5343dca",
      "salt": "0xe9ecc7863b2638a0495c445e5b148b52e5ba36dce683537db902dd73fb00c4bc",
      "assetIds": []
    },
    {
      "x": 321,
      "y": 387,
      "size": 1,
      "price": "1011000000000000000000",
      "reserved": "0x7a9fe22691c811ea339d9b73150e6911a5343dca",
      "salt": "0x7e2aec5fe854f5555678af7355736bbc2e39e2edbd180384fdd576cd853b371f",
      "assetIds": []
    },
    {
      "x": 321,
      "y": 388,
      "size": 1,
      "price": "4683000000000000000000",
      "reserved": "",
      "salt": "0x45b2e9800661c53c10e9cad47a088747ebec58681726977a972c346f5834aa1c",
      "assetIds": [
        "55464657044963196816950587289035428064568320970692304673817341489688587816968",
        "55464657044963196816950587289035428064568320970692304673817341489688587816966",
        "55464657044963196816950587289035428064568320970692304673817341489688587816960",
        "55464657044963196816950587289035428064568320970692304673817341489688587816962",
        "55464657044963196816950587289035428064568320970692304673817341489688587816967",
        "55464657044963196816950587289035428064568320970692304673817341489688587816961",
        "55464657044963196816950587289035428064568320970692304673817341489688596187136",
        "55464657044963196816950587289035428064568320970692304673817341489688587816963",
        "55464657044963196816950587289035428064568320970692304673817341489688587816965",
        "55464657044963196816950587289035428064568320970692304673817341489688587816964"
      ]
    },
    {
      "x": 321,
      "y": 389,
      "size": 1,
      "price": "1011000000000000000000",
      "reserved": "0x7a9fe22691c811ea339d9b73150e6911a5343dca",
      "salt": "0xb4f173716abc7a58019e6653a16f1fe0d6ccf82e6f513f16476640523bbf5dd3",
      "assetIds": []
    },
    {
      "x": 321,
      "y": 396,
      "size": 1,
      "price": "1011000000000000000000",
      "reserved": "0x7a9fe22691c811ea339d9b73150e6911a5343dca",
      "salt": "0xb442a57dcecebc15cdc155ec82eb0e2dd92fbd4348a16346536275df728ebd28",
      "assetIds": []
    },
    {
      "x": 321,
      "y": 397,
      "size": 1,
      "price": "4683000000000000000000",
      "reserved": "",
      "salt": "0xd9bdffea78fb2ef51913748cf0f2662861b702d2699dd5745debba7340028eec",
      "assetIds": [
        "55464657044963196816950587289035428064568320970692304673817341489688587816968",
        "55464657044963196816950587289035428064568320970692304673817341489688587816966",
        "55464657044963196816950587289035428064568320970692304673817341489688587816960",
        "55464657044963196816950587289035428064568320970692304673817341489688587816962",
        "55464657044963196816950587289035428064568320970692304673817341489688587816967",
        "55464657044963196816950587289035428064568320970692304673817341489688587816961",
        "55464657044963196816950587289035428064568320970692304673817341489688596187136",
        "55464657044963196816950587289035428064568320970692304673817341489688587816963",
        "55464657044963196816950587289035428064568320970692304673817341489688587816965",
        "55464657044963196816950587289035428064568320970692304673817341489688587816964"
      ]
    },
    {
      "x": 321,
      "y": 398,
      "size": 1,
      "price": "1011000000000000000000",
      "reserved": "0x7a9fe22691c811ea339d9b73150e6911a5343dca",
      "salt": "0xe34778faf8bfb9c974b214609fa87fbdfe6f4f62bd996d36b7b11161b5cc698d",
      "assetIds": []
    },
    {
      "x": 321,
      "y": 399,
      "size": 1,
      "price": "4683000000000000000000",
      "reserved": "",
      "salt": "0xc2968d6262efda959e1d182404e59c98a8b6d67a5d4ab17ea2e0d43980b4d68b",
      "assetIds": [
        "55464657044963196816950587289035428064568320970692304673817341489688587816968",
        "55464657044963196816950587289035428064568320970692304673817341489688587816966",
        "55464657044963196816950587289035428064568320970692304673817341489688587816960",
        "55464657044963196816950587289035428064568320970692304673817341489688587816962",
        "55464657044963196816950587289035428064568320970692304673817341489688587816967",
        "55464657044963196816950587289035428064568320970692304673817341489688587816961",
        "55464657044963196816950587289035428064568320970692304673817341489688596187136",
        "55464657044963196816950587289035428064568320970692304673817341489688587816963",
        "55464657044963196816950587289035428064568320970692304673817341489688587816965",
        "55464657044963196816950587289035428064568320970692304673817341489688587816964"
      ]
    },
    {
      "x": 321,
      "y": 400,
      "size": 1,
      "price": "1011000000000000000000",
      "reserved": "",
      "salt": "0xf321c4ab91ca5772da5ec77c3ce18ba85ed3e1af2b2cb629eb76d1ed562acc91",
      "assetIds": []
    },
    {
      "x": 321,
      "y": 401,
      "size": 1,
      "price": "1011000000000000000000",
      "reserved": "",
      "salt": "0xad0ba9edbdb22f81c0af5f22c428fe350d3bc0b8381de4f10486a1fa4dab3fca",
      "assetIds": []
    },
    {
      "x": 322,
      "y": 387,
      "size": 1,
      "price": "4683000000000000000000",
      "reserved": "",
      "salt": "0xc963f675bf8375cbf5a621e78282828f6ada7adfeee75b4bedabf6a3349809d5",
      "assetIds": [
        "55464657044963196816950587289035428064568320970692304673817341489688587816968",
        "55464657044963196816950587289035428064568320970692304673817341489688587816966",
        "55464657044963196816950587289035428064568320970692304673817341489688587816960",
        "55464657044963196816950587289035428064568320970692304673817341489688587816962",
        "55464657044963196816950587289035428064568320970692304673817341489688587816967",
        "55464657044963196816950587289035428064568320970692304673817341489688587816961",
        "55464657044963196816950587289035428064568320970692304673817341489688596187136",
        "55464657044963196816950587289035428064568320970692304673817341489688587816963",
        "55464657044963196816950587289035428064568320970692304673817341489688587816965",
        "55464657044963196816950587289035428064568320970692304673817341489688587816964"
      ]
    },
    {
      "x": 322,
      "y": 388,
      "size": 1,
      "price": "4683000000000000000000",
      "reserved": "",
      "salt": "0xae4a5f3868142b5f203dce45a31543b9399eae87f102556f32f397ee75e68637",
      "assetIds": [
        "55464657044963196816950587289035428064568320970692304673817341489688587816968",
        "55464657044963196816950587289035428064568320970692304673817341489688587816966",
        "55464657044963196816950587289035428064568320970692304673817341489688587816960",
        "55464657044963196816950587289035428064568320970692304673817341489688587816962",
        "55464657044963196816950587289035428064568320970692304673817341489688587816967",
        "55464657044963196816950587289035428064568320970692304673817341489688587816961",
        "55464657044963196816950587289035428064568320970692304673817341489688596187136",
        "55464657044963196816950587289035428064568320970692304673817341489688587816963",
        "55464657044963196816950587289035428064568320970692304673817341489688587816965",
        "55464657044963196816950587289035428064568320970692304673817341489688587816964"
      ]
    },
    {
      "x": 322,
      "y": 389,
      "size": 1,
      "price": "4683000000000000000000",
      "reserved": "",
      "salt": "0x96e17591507405a3a74f0825aba9e9ae0f6c16c8fa52974d09139af963997006",
      "assetIds": [
        "55464657044963196816950587289035428064568320970692304673817341489688587816968",
        "55464657044963196816950587289035428064568320970692304673817341489688587816966",
        "55464657044963196816950587289035428064568320970692304673817341489688587816960",
        "55464657044963196816950587289035428064568320970692304673817341489688587816962",
        "55464657044963196816950587289035428064568320970692304673817341489688587816967",
        "55464657044963196816950587289035428064568320970692304673817341489688587816961",
        "55464657044963196816950587289035428064568320970692304673817341489688596187136",
        "55464657044963196816950587289035428064568320970692304673817341489688587816963",
        "55464657044963196816950587289035428064568320970692304673817341489688587816965",
        "55464657044963196816950587289035428064568320970692304673817341489688587816964"
      ]
    },
    {
      "x": 322,
      "y": 396,
      "size": 1,
      "price": "4683000000000000000000",
      "reserved": "",
      "salt": "0xb464febd2ec1576f87b4341ce6489d059e5551c2506d42357d4071bee3a4cfaf",
      "assetIds": [
        "55464657044963196816950587289035428064568320970692304673817341489688587816968",
        "55464657044963196816950587289035428064568320970692304673817341489688587816966",
        "55464657044963196816950587289035428064568320970692304673817341489688587816960",
        "55464657044963196816950587289035428064568320970692304673817341489688587816962",
        "55464657044963196816950587289035428064568320970692304673817341489688587816967",
        "55464657044963196816950587289035428064568320970692304673817341489688587816961",
        "55464657044963196816950587289035428064568320970692304673817341489688596187136",
        "55464657044963196816950587289035428064568320970692304673817341489688587816963",
        "55464657044963196816950587289035428064568320970692304673817341489688587816965",
        "55464657044963196816950587289035428064568320970692304673817341489688587816964"
      ]
    },
    {
      "x": 322,
      "y": 397,
      "size": 1,
      "price": "1011000000000000000000",
      "reserved": "",
      "salt": "0xc4039ae0f9348f5c161c850dc5b182de2d2d40415ef9fc4d07aeb568b7939e78",
      "assetIds": []
    },
    {
      "x": 322,
      "y": 398,
      "size": 1,
      "price": "1011000000000000000000",
      "reserved": "",
      "salt": "0x1218de1787298e1599bdbb035d6cf9040cccf46a3f10e01b0331adcd00b97b2c",
      "assetIds": []
    },
    {
      "x": 322,
      "y": 399,
      "size": 1,
      "price": "1011000000000000000000",
      "reserved": "",
      "salt": "0xe8537ff8274a8ba6c9dcfb58d8aa70e5508a62498fb069f03162b5ce375afdcc",
      "assetIds": []
    },
    {
      "x": 322,
      "y": 400,
      "size": 1,
      "price": "1011000000000000000000",
      "reserved": "",
      "salt": "0x5b319695a48058b6bb30b13ca4b3461eee996ac6afe9bf862a05ec5c7bc9fa5b",
      "assetIds": []
    },
    {
      "x": 322,
      "y": 401,
      "size": 1,
      "price": "1011000000000000000000",
      "reserved": "",
      "salt": "0xfb25c99a32416bfefb69c44301ae4cd644c9449aee568d084cf5e406ba5cf2f6",
      "assetIds": []
    },
    {
      "x": 323,
      "y": 387,
      "size": 1,
      "price": "1011000000000000000000",
      "reserved": "0x7a9fe22691c811ea339d9b73150e6911a5343dca",
      "salt": "0x9ad7fbcdfc41e45993790d1885f6b93841144fda15f87bc427db6eb1f0d0083d",
      "assetIds": []
    },
    {
      "x": 323,
      "y": 388,
      "size": 1,
      "price": "4683000000000000000000",
      "reserved": "",
      "salt": "0x76159812693b718b2dcadfed24002012639c6a140eed3b57345add7aa498b710",
      "assetIds": [
        "55464657044963196816950587289035428064568320970692304673817341489688587816968",
        "55464657044963196816950587289035428064568320970692304673817341489688587816966",
        "55464657044963196816950587289035428064568320970692304673817341489688587816960",
        "55464657044963196816950587289035428064568320970692304673817341489688587816962",
        "55464657044963196816950587289035428064568320970692304673817341489688587816967",
        "55464657044963196816950587289035428064568320970692304673817341489688587816961",
        "55464657044963196816950587289035428064568320970692304673817341489688596187136",
        "55464657044963196816950587289035428064568320970692304673817341489688587816963",
        "55464657044963196816950587289035428064568320970692304673817341489688587816965",
        "55464657044963196816950587289035428064568320970692304673817341489688587816964"
      ]
    },
    {
      "x": 323,
      "y": 389,
      "size": 1,
      "price": "1011000000000000000000",
      "reserved": "0x7a9fe22691c811ea339d9b73150e6911a5343dca",
      "salt": "0xac29ab583399a6b0a80ea640130da9a62326a5e30f69e4e2967e771446ff246b",
      "assetIds": []
    },
    {
      "x": 323,
      "y": 396,
      "size": 1,
      "price": "1011000000000000000000",
      "reserved": "0x7a9fe22691c811ea339d9b73150e6911a5343dca",
      "salt": "0x83fa212d6c7959a651e219bb306d7c10aadcefd64385aa9a245a82eadfbff807",
      "assetIds": []
    },
    {
      "x": 323,
      "y": 397,
      "size": 1,
      "price": "1011000000000000000000",
      "reserved": "",
      "salt": "0x6e2c980f96c241f460aa69e8d639f5521a71633674234e520dffbd273b52cd57",
      "assetIds": []
    },
    {
      "x": 323,
      "y": 398,
      "size": 1,
      "price": "1011000000000000000000",
      "reserved": "",
      "salt": "0xc2257d5302b3346910b3edd55baefe882af99635434a769a1efc68436ab42db5",
      "assetIds": []
    },
    {
      "x": 323,
      "y": 399,
      "size": 1,
      "price": "1011000000000000000000",
      "reserved": "",
      "salt": "0x77df1bc90a016150ab3ae11a8bcc7d5713f044815deaecf2b8cbb11be6fe2d13",
      "assetIds": []
    },
    {
      "x": 323,
      "y": 400,
      "size": 1,
      "price": "1011000000000000000000",
      "reserved": "",
      "salt": "0xca726abc57cb59366ec0657155183cf43dc86bc97cec5202db8f88517e5be015",
      "assetIds": []
    },
    {
      "x": 323,
      "y": 401,
      "size": 1,
      "price": "1011000000000000000000",
      "reserved": "",
      "salt": "0xbe81c8cd52701c8578e64f489572c77e0e0f599be6a8ddf42f567b309280cb2d",
      "assetIds": []
    },
    {
      "x": 324,
      "y": 390,
      "size": 1,
      "price": "1011000000000000000000",
      "reserved": "0x7a9fe22691c811ea339d9b73150e6911a5343dca",
      "salt": "0xfbaf5d731990fb71d771c84a3e3a6babad71ff2ef63335dd7695aa124c9c3bb8",
      "assetIds": []
    },
    {
      "x": 324,
      "y": 391,
      "size": 1,
      "price": "4683000000000000000000",
      "reserved": "",
      "salt": "0x1122ce14cf8bb5f985feaebdedb50de0d4bc9acbec2143893d370e11f853d794",
      "assetIds": [
        "55464657044963196816950587289035428064568320970692304673817341489688587816968",
        "55464657044963196816950587289035428064568320970692304673817341489688587816966",
        "55464657044963196816950587289035428064568320970692304673817341489688587816960",
        "55464657044963196816950587289035428064568320970692304673817341489688587816962",
        "55464657044963196816950587289035428064568320970692304673817341489688587816967",
        "55464657044963196816950587289035428064568320970692304673817341489688587816961",
        "55464657044963196816950587289035428064568320970692304673817341489688596187136",
        "55464657044963196816950587289035428064568320970692304673817341489688587816963",
        "55464657044963196816950587289035428064568320970692304673817341489688587816965",
        "55464657044963196816950587289035428064568320970692304673817341489688587816964"
      ]
    },
    {
      "x": 324,
      "y": 392,
      "size": 1,
      "price": "1011000000000000000000",
      "reserved": "0x7a9fe22691c811ea339d9b73150e6911a5343dca",
      "salt": "0x7220322e5204612f2a68547c61aa266b1cd250007d9ea837b752040001e0ae36",
      "assetIds": []
    },
    {
      "x": 325,
      "y": 390,
      "size": 1,
      "price": "4683000000000000000000",
      "reserved": "",
      "salt": "0x3ead2a0d7953d5f03a96793d550b38458c2eb56e2feb9930a3cb23cb97992725",
      "assetIds": [
        "55464657044963196816950587289035428064568320970692304673817341489688587816968",
        "55464657044963196816950587289035428064568320970692304673817341489688587816966",
        "55464657044963196816950587289035428064568320970692304673817341489688587816960",
        "55464657044963196816950587289035428064568320970692304673817341489688587816962",
        "55464657044963196816950587289035428064568320970692304673817341489688587816967",
        "55464657044963196816950587289035428064568320970692304673817341489688587816961",
        "55464657044963196816950587289035428064568320970692304673817341489688596187136",
        "55464657044963196816950587289035428064568320970692304673817341489688587816963",
        "55464657044963196816950587289035428064568320970692304673817341489688587816965",
        "55464657044963196816950587289035428064568320970692304673817341489688587816964"
      ]
    },
    {
      "x": 325,
      "y": 391,
      "size": 1,
      "price": "4683000000000000000000",
      "reserved": "",
      "salt": "0x85d0b93750de1978fd50e1369b688058f6d61789f4e860b4c5557e77c165aef0",
      "assetIds": [
        "55464657044963196816950587289035428064568320970692304673817341489688587816968",
        "55464657044963196816950587289035428064568320970692304673817341489688587816966",
        "55464657044963196816950587289035428064568320970692304673817341489688587816960",
        "55464657044963196816950587289035428064568320970692304673817341489688587816962",
        "55464657044963196816950587289035428064568320970692304673817341489688587816967",
        "55464657044963196816950587289035428064568320970692304673817341489688587816961",
        "55464657044963196816950587289035428064568320970692304673817341489688596187136",
        "55464657044963196816950587289035428064568320970692304673817341489688587816963",
        "55464657044963196816950587289035428064568320970692304673817341489688587816965",
        "55464657044963196816950587289035428064568320970692304673817341489688587816964"
      ]
    },
    {
      "x": 325,
      "y": 392,
      "size": 1,
      "price": "4683000000000000000000",
      "reserved": "",
      "salt": "0x3f5fc956228d13f2a537f1c0ec129f7f55e752784aa0731c5d97ceb3f9370002",
      "assetIds": [
        "55464657044963196816950587289035428064568320970692304673817341489688587816968",
        "55464657044963196816950587289035428064568320970692304673817341489688587816966",
        "55464657044963196816950587289035428064568320970692304673817341489688587816960",
        "55464657044963196816950587289035428064568320970692304673817341489688587816962",
        "55464657044963196816950587289035428064568320970692304673817341489688587816967",
        "55464657044963196816950587289035428064568320970692304673817341489688587816961",
        "55464657044963196816950587289035428064568320970692304673817341489688596187136",
        "55464657044963196816950587289035428064568320970692304673817341489688587816963",
        "55464657044963196816950587289035428064568320970692304673817341489688587816965",
        "55464657044963196816950587289035428064568320970692304673817341489688587816964"
      ]
    },
    {
      "x": 326,
      "y": 390,
      "size": 1,
      "price": "1011000000000000000000",
      "reserved": "0x7a9fe22691c811ea339d9b73150e6911a5343dca",
      "salt": "0x33da5ce468c0c26a028146a37d101bf4a3f85803ff92b3c17b088a8df7d0cd22",
      "assetIds": []
    },
    {
      "x": 326,
      "y": 391,
      "size": 1,
      "price": "4683000000000000000000",
      "reserved": "",
      "salt": "0x7d33bfc80c86b91647e449d99f6cdacef489c1a4670e089110fafa6990bdfd87",
      "assetIds": [
        "55464657044963196816950587289035428064568320970692304673817341489688587816968",
        "55464657044963196816950587289035428064568320970692304673817341489688587816966",
        "55464657044963196816950587289035428064568320970692304673817341489688587816960",
        "55464657044963196816950587289035428064568320970692304673817341489688587816962",
        "55464657044963196816950587289035428064568320970692304673817341489688587816967",
        "55464657044963196816950587289035428064568320970692304673817341489688587816961",
        "55464657044963196816950587289035428064568320970692304673817341489688596187136",
        "55464657044963196816950587289035428064568320970692304673817341489688587816963",
        "55464657044963196816950587289035428064568320970692304673817341489688587816965",
        "55464657044963196816950587289035428064568320970692304673817341489688587816964"
      ]
    },
    {
      "x": 326,
      "y": 392,
      "size": 1,
      "price": "1011000000000000000000",
      "reserved": "0x7a9fe22691c811ea339d9b73150e6911a5343dca",
      "salt": "0x00f639ab2d2125c4bb0eb7e1b39e3ecec1785ced3190ccccd833bd681b9cfe48",
      "assetIds": []
    },
    {
      "x": 327,
      "y": 384,
      "size": 1,
      "price": "1011000000000000000000",
      "reserved": "",
      "salt": "0x84c48a0e076c546fbfa125f31093b4cde1a82b48dbdb611dc5d5aa2c7c844fd7",
      "assetIds": []
    },
    {
      "x": 327,
      "y": 385,
      "size": 1,
      "price": "1011000000000000000000",
      "reserved": "",
      "salt": "0x17b6f585c4bb77972f5bee103d7f3610050cae64efcb037ae1b6e8e6f7633cf1",
      "assetIds": []
    },
    {
      "x": 327,
      "y": 386,
      "size": 1,
      "price": "1011000000000000000000",
      "reserved": "",
      "salt": "0x3402762d78db62e6f5534a40485cc7de9719c2f082eef6283dd429390825742e",
      "assetIds": []
    },
    {
      "x": 327,
      "y": 387,
      "size": 1,
      "price": "1011000000000000000000",
      "reserved": "0x7a9fe22691c811ea339d9b73150e6911a5343dca",
      "salt": "0xd936b657a42f9bb31508e214927f1438ce0218df7605ce8914d959508c77d86e",
      "assetIds": []
    },
    {
      "x": 327,
      "y": 388,
      "size": 1,
      "price": "4683000000000000000000",
      "reserved": "",
      "salt": "0xb15280f0572408e286db22176785aaf4431ee8dabe1e2bb8f969e179eafce91a",
      "assetIds": [
        "55464657044963196816950587289035428064568320970692304673817341489688587816968",
        "55464657044963196816950587289035428064568320970692304673817341489688587816966",
        "55464657044963196816950587289035428064568320970692304673817341489688587816960",
        "55464657044963196816950587289035428064568320970692304673817341489688587816962",
        "55464657044963196816950587289035428064568320970692304673817341489688587816967",
        "55464657044963196816950587289035428064568320970692304673817341489688587816961",
        "55464657044963196816950587289035428064568320970692304673817341489688596187136",
        "55464657044963196816950587289035428064568320970692304673817341489688587816963",
        "55464657044963196816950587289035428064568320970692304673817341489688587816965",
        "55464657044963196816950587289035428064568320970692304673817341489688587816964"
      ]
    },
    {
      "x": 327,
      "y": 389,
      "size": 1,
      "price": "1011000000000000000000",
      "reserved": "0x7a9fe22691c811ea339d9b73150e6911a5343dca",
      "salt": "0xbcd0f817d7c739d7db70ed5f9ff1fdf6ee0670a8894617168ad41e2907eedbad",
      "assetIds": []
    },
    {
      "x": 327,
      "y": 393,
      "size": 1,
      "price": "1011000000000000000000",
      "reserved": "0x7a9fe22691c811ea339d9b73150e6911a5343dca",
      "salt": "0x34dd716f7a57575c3954d8946b884419d0fed1426273650bfb4b35235a71f08c",
      "assetIds": []
    },
    {
      "x": 327,
      "y": 394,
      "size": 1,
      "price": "4683000000000000000000",
      "reserved": "",
      "salt": "0x15a79053d64168ef3b1bdf6567af7a0498fa564df752ee2b904b7615ae0838fd",
      "assetIds": [
        "55464657044963196816950587289035428064568320970692304673817341489688587816968",
        "55464657044963196816950587289035428064568320970692304673817341489688587816966",
        "55464657044963196816950587289035428064568320970692304673817341489688587816960",
        "55464657044963196816950587289035428064568320970692304673817341489688587816962",
        "55464657044963196816950587289035428064568320970692304673817341489688587816967",
        "55464657044963196816950587289035428064568320970692304673817341489688587816961",
        "55464657044963196816950587289035428064568320970692304673817341489688596187136",
        "55464657044963196816950587289035428064568320970692304673817341489688587816963",
        "55464657044963196816950587289035428064568320970692304673817341489688587816965",
        "55464657044963196816950587289035428064568320970692304673817341489688587816964"
      ]
    },
    {
      "x": 327,
      "y": 395,
      "size": 1,
      "price": "4683000000000000000000",
      "reserved": "",
      "salt": "0xfbc2953cb40263b25e9620d1dd067d3ef089f4fa01fcddbbb5dd005bc39a87a9",
      "assetIds": [
        "55464657044963196816950587289035428064568320970692304673817341489688587816968",
        "55464657044963196816950587289035428064568320970692304673817341489688587816966",
        "55464657044963196816950587289035428064568320970692304673817341489688587816960",
        "55464657044963196816950587289035428064568320970692304673817341489688587816962",
        "55464657044963196816950587289035428064568320970692304673817341489688587816967",
        "55464657044963196816950587289035428064568320970692304673817341489688587816961",
        "55464657044963196816950587289035428064568320970692304673817341489688596187136",
        "55464657044963196816950587289035428064568320970692304673817341489688587816963",
        "55464657044963196816950587289035428064568320970692304673817341489688587816965",
        "55464657044963196816950587289035428064568320970692304673817341489688587816964"
      ]
    },
    {
      "x": 328,
      "y": 384,
      "size": 1,
      "price": "1011000000000000000000",
      "reserved": "",
      "salt": "0x294b89b6442a6c9c6c0a8c569c4eeff2cab8523e21d526ef05b239c6012a738e",
      "assetIds": []
    },
    {
      "x": 328,
      "y": 385,
      "size": 1,
      "price": "1011000000000000000000",
      "reserved": "",
      "salt": "0x3207911dbb3baeecd15b31ec815a078230380fd9b2f778e4a8687a066b8a87ea",
      "assetIds": []
    },
    {
      "x": 328,
      "y": 386,
      "size": 1,
      "price": "1011000000000000000000",
      "reserved": "",
      "salt": "0x47b84d5fc06047e9e020344a662e0d0f446fedea4327ad44b49c2824be9e5a5e",
      "assetIds": []
    },
    {
      "x": 328,
      "y": 387,
      "size": 1,
      "price": "4683000000000000000000",
      "reserved": "",
      "salt": "0x9ed0f18202a92e7973a99c8c0ab0224aa7b8bfea2ac606a297da7f8b286e4fd1",
      "assetIds": [
        "55464657044963196816950587289035428064568320970692304673817341489688587816968",
        "55464657044963196816950587289035428064568320970692304673817341489688587816966",
        "55464657044963196816950587289035428064568320970692304673817341489688587816960",
        "55464657044963196816950587289035428064568320970692304673817341489688587816962",
        "55464657044963196816950587289035428064568320970692304673817341489688587816967",
        "55464657044963196816950587289035428064568320970692304673817341489688587816961",
        "55464657044963196816950587289035428064568320970692304673817341489688596187136",
        "55464657044963196816950587289035428064568320970692304673817341489688587816963",
        "55464657044963196816950587289035428064568320970692304673817341489688587816965",
        "55464657044963196816950587289035428064568320970692304673817341489688587816964"
      ]
    },
    {
      "x": 328,
      "y": 388,
      "size": 1,
      "price": "4683000000000000000000",
      "reserved": "",
      "salt": "0x3b24a8b34e594f432a356613b4eae057501ad79fc502e52ab4737afc69f9d341",
      "assetIds": [
        "55464657044963196816950587289035428064568320970692304673817341489688587816968",
        "55464657044963196816950587289035428064568320970692304673817341489688587816966",
        "55464657044963196816950587289035428064568320970692304673817341489688587816960",
        "55464657044963196816950587289035428064568320970692304673817341489688587816962",
        "55464657044963196816950587289035428064568320970692304673817341489688587816967",
        "55464657044963196816950587289035428064568320970692304673817341489688587816961",
        "55464657044963196816950587289035428064568320970692304673817341489688596187136",
        "55464657044963196816950587289035428064568320970692304673817341489688587816963",
        "55464657044963196816950587289035428064568320970692304673817341489688587816965",
        "55464657044963196816950587289035428064568320970692304673817341489688587816964"
      ]
    },
    {
      "x": 328,
      "y": 389,
      "size": 1,
      "price": "4683000000000000000000",
      "reserved": "",
      "salt": "0x0ae7e63fcf9f4aff18ff563a456e05884ac33f4d3daaacb7f9f9829279d3e780",
      "assetIds": [
        "55464657044963196816950587289035428064568320970692304673817341489688587816968",
        "55464657044963196816950587289035428064568320970692304673817341489688587816966",
        "55464657044963196816950587289035428064568320970692304673817341489688587816960",
        "55464657044963196816950587289035428064568320970692304673817341489688587816962",
        "55464657044963196816950587289035428064568320970692304673817341489688587816967",
        "55464657044963196816950587289035428064568320970692304673817341489688587816961",
        "55464657044963196816950587289035428064568320970692304673817341489688596187136",
        "55464657044963196816950587289035428064568320970692304673817341489688587816963",
        "55464657044963196816950587289035428064568320970692304673817341489688587816965",
        "55464657044963196816950587289035428064568320970692304673817341489688587816964"
      ]
    },
    {
      "x": 328,
      "y": 393,
      "size": 1,
      "price": "4683000000000000000000",
      "reserved": "",
      "salt": "0xd9c46af1e2e9a971ae715a8aeac796ea7b6a08e2b0d02af1c755957a0d58e4f2",
      "assetIds": [
        "55464657044963196816950587289035428064568320970692304673817341489688587816968",
        "55464657044963196816950587289035428064568320970692304673817341489688587816966",
        "55464657044963196816950587289035428064568320970692304673817341489688587816960",
        "55464657044963196816950587289035428064568320970692304673817341489688587816962",
        "55464657044963196816950587289035428064568320970692304673817341489688587816967",
        "55464657044963196816950587289035428064568320970692304673817341489688587816961",
        "55464657044963196816950587289035428064568320970692304673817341489688596187136",
        "55464657044963196816950587289035428064568320970692304673817341489688587816963",
        "55464657044963196816950587289035428064568320970692304673817341489688587816965",
        "55464657044963196816950587289035428064568320970692304673817341489688587816964"
      ]
    },
    {
      "x": 328,
      "y": 394,
      "size": 1,
      "price": "4683000000000000000000",
      "reserved": "",
      "salt": "0x16bcf96680e15dbd2f2179d25e459742123d4b0c5b468b2998c2bd44a2f53a32",
      "assetIds": [
        "55464657044963196816950587289035428064568320970692304673817341489688587816968",
        "55464657044963196816950587289035428064568320970692304673817341489688587816966",
        "55464657044963196816950587289035428064568320970692304673817341489688587816960",
        "55464657044963196816950587289035428064568320970692304673817341489688587816962",
        "55464657044963196816950587289035428064568320970692304673817341489688587816967",
        "55464657044963196816950587289035428064568320970692304673817341489688587816961",
        "55464657044963196816950587289035428064568320970692304673817341489688596187136",
        "55464657044963196816950587289035428064568320970692304673817341489688587816963",
        "55464657044963196816950587289035428064568320970692304673817341489688587816965",
        "55464657044963196816950587289035428064568320970692304673817341489688587816964"
      ]
    },
    {
      "x": 328,
      "y": 395,
      "size": 1,
      "price": "4683000000000000000000",
      "reserved": "",
      "salt": "0xca34d3a3dc9afbe0e3a20111325268b4efa78125dec6d2d216d17d363fc2f2f3",
      "assetIds": [
        "55464657044963196816950587289035428064568320970692304673817341489688587816968",
        "55464657044963196816950587289035428064568320970692304673817341489688587816966",
        "55464657044963196816950587289035428064568320970692304673817341489688587816960",
        "55464657044963196816950587289035428064568320970692304673817341489688587816962",
        "55464657044963196816950587289035428064568320970692304673817341489688587816967",
        "55464657044963196816950587289035428064568320970692304673817341489688587816961",
        "55464657044963196816950587289035428064568320970692304673817341489688596187136",
        "55464657044963196816950587289035428064568320970692304673817341489688587816963",
        "55464657044963196816950587289035428064568320970692304673817341489688587816965",
        "55464657044963196816950587289035428064568320970692304673817341489688587816964"
      ]
    },
    {
      "x": 329,
      "y": 384,
      "size": 1,
      "price": "4683000000000000000000",
      "reserved": "",
      "salt": "0x4d477548aea1b6a6c0f62b5d2aa94551a4696a228a225923c6ac5bfe0c30d6f3",
      "assetIds": [
        "55464657044963196816950587289035428064568320970692304673817341489688587816968",
        "55464657044963196816950587289035428064568320970692304673817341489688587816966",
        "55464657044963196816950587289035428064568320970692304673817341489688587816960",
        "55464657044963196816950587289035428064568320970692304673817341489688587816962",
        "55464657044963196816950587289035428064568320970692304673817341489688587816967",
        "55464657044963196816950587289035428064568320970692304673817341489688587816961",
        "55464657044963196816950587289035428064568320970692304673817341489688596187136",
        "55464657044963196816950587289035428064568320970692304673817341489688587816963",
        "55464657044963196816950587289035428064568320970692304673817341489688587816965",
        "55464657044963196816950587289035428064568320970692304673817341489688587816964"
      ]
    },
    {
      "x": 329,
      "y": 385,
      "size": 1,
      "price": "4683000000000000000000",
      "reserved": "",
      "salt": "0x4e220a49b85068d42b6692296764e85ce294d89f21be261b81ab501b5b0a7f76",
      "assetIds": [
        "55464657044963196816950587289035428064568320970692304673817341489688587816968",
        "55464657044963196816950587289035428064568320970692304673817341489688587816966",
        "55464657044963196816950587289035428064568320970692304673817341489688587816960",
        "55464657044963196816950587289035428064568320970692304673817341489688587816962",
        "55464657044963196816950587289035428064568320970692304673817341489688587816967",
        "55464657044963196816950587289035428064568320970692304673817341489688587816961",
        "55464657044963196816950587289035428064568320970692304673817341489688596187136",
        "55464657044963196816950587289035428064568320970692304673817341489688587816963",
        "55464657044963196816950587289035428064568320970692304673817341489688587816965",
        "55464657044963196816950587289035428064568320970692304673817341489688587816964"
      ]
    },
    {
      "x": 329,
      "y": 386,
      "size": 1,
      "price": "4683000000000000000000",
      "reserved": "",
      "salt": "0x9ab63cced77f01de7a3bdd254c724f8fecb3be0a1af57109057c35d5005d9153",
      "assetIds": [
        "55464657044963196816950587289035428064568320970692304673817341489688587816968",
        "55464657044963196816950587289035428064568320970692304673817341489688587816966",
        "55464657044963196816950587289035428064568320970692304673817341489688587816960",
        "55464657044963196816950587289035428064568320970692304673817341489688587816962",
        "55464657044963196816950587289035428064568320970692304673817341489688587816967",
        "55464657044963196816950587289035428064568320970692304673817341489688587816961",
        "55464657044963196816950587289035428064568320970692304673817341489688596187136",
        "55464657044963196816950587289035428064568320970692304673817341489688587816963",
        "55464657044963196816950587289035428064568320970692304673817341489688587816965",
        "55464657044963196816950587289035428064568320970692304673817341489688587816964"
      ]
    },
    {
      "x": 329,
      "y": 387,
      "size": 1,
      "price": "1011000000000000000000",
      "reserved": "0x7a9fe22691c811ea339d9b73150e6911a5343dca",
      "salt": "0xe03b9c09f937be341da1416876bb096c377a8cebbc8ff81688dea81309cb142e",
      "assetIds": []
    },
    {
      "x": 329,
      "y": 388,
      "size": 1,
      "price": "4683000000000000000000",
      "reserved": "",
      "salt": "0x29101d36d4654fc3bc84e647797e02fe057c389cb40e65ee58d05f300c1c5aaa",
      "assetIds": [
        "55464657044963196816950587289035428064568320970692304673817341489688587816968",
        "55464657044963196816950587289035428064568320970692304673817341489688587816966",
        "55464657044963196816950587289035428064568320970692304673817341489688587816960",
        "55464657044963196816950587289035428064568320970692304673817341489688587816962",
        "55464657044963196816950587289035428064568320970692304673817341489688587816967",
        "55464657044963196816950587289035428064568320970692304673817341489688587816961",
        "55464657044963196816950587289035428064568320970692304673817341489688596187136",
        "55464657044963196816950587289035428064568320970692304673817341489688587816963",
        "55464657044963196816950587289035428064568320970692304673817341489688587816965",
        "55464657044963196816950587289035428064568320970692304673817341489688587816964"
      ]
    },
    {
      "x": 329,
      "y": 389,
      "size": 1,
      "price": "1011000000000000000000",
      "reserved": "0x7a9fe22691c811ea339d9b73150e6911a5343dca",
      "salt": "0x68884f23c57a9e8a865f49670cdf1f645d2ce10bda699da52a20582abe898da0",
      "assetIds": []
    },
    {
      "x": 329,
      "y": 393,
      "size": 1,
      "price": "1011000000000000000000",
      "reserved": "0x7a9fe22691c811ea339d9b73150e6911a5343dca",
      "salt": "0x8efa412cd50cd9693bdd42405406bf4191675f87e88c9437874bb1184bf644ac",
      "assetIds": []
    },
    {
      "x": 329,
      "y": 394,
      "size": 1,
      "price": "4683000000000000000000",
      "reserved": "",
      "salt": "0xa44fc0d9cd794e44ceadea371ee55d6abf48e99118e84d0c98a524d967abf30c",
      "assetIds": [
        "55464657044963196816950587289035428064568320970692304673817341489688587816968",
        "55464657044963196816950587289035428064568320970692304673817341489688587816966",
        "55464657044963196816950587289035428064568320970692304673817341489688587816960",
        "55464657044963196816950587289035428064568320970692304673817341489688587816962",
        "55464657044963196816950587289035428064568320970692304673817341489688587816967",
        "55464657044963196816950587289035428064568320970692304673817341489688587816961",
        "55464657044963196816950587289035428064568320970692304673817341489688596187136",
        "55464657044963196816950587289035428064568320970692304673817341489688587816963",
        "55464657044963196816950587289035428064568320970692304673817341489688587816965",
        "55464657044963196816950587289035428064568320970692304673817341489688587816964"
      ]
    },
    {
      "x": 329,
      "y": 395,
      "size": 1,
      "price": "4683000000000000000000",
      "reserved": "",
      "salt": "0x33f203478f449f30d22241832c30e6541844ef7c7caef7bce26783fed5969aff",
      "assetIds": [
        "55464657044963196816950587289035428064568320970692304673817341489688587816968",
        "55464657044963196816950587289035428064568320970692304673817341489688587816966",
        "55464657044963196816950587289035428064568320970692304673817341489688587816960",
        "55464657044963196816950587289035428064568320970692304673817341489688587816962",
        "55464657044963196816950587289035428064568320970692304673817341489688587816967",
        "55464657044963196816950587289035428064568320970692304673817341489688587816961",
        "55464657044963196816950587289035428064568320970692304673817341489688596187136",
        "55464657044963196816950587289035428064568320970692304673817341489688587816963",
        "55464657044963196816950587289035428064568320970692304673817341489688587816965",
        "55464657044963196816950587289035428064568320970692304673817341489688587816964"
      ]
    },
    {
      "x": 330,
      "y": 384,
      "size": 1,
      "price": "1011000000000000000000",
      "reserved": "0x7a9fe22691c811ea339d9b73150e6911a5343dca",
      "salt": "0x969ea2b230c61868aa642a5852c9ca784f7bed2293fd63c3e03d3cca275b718e",
      "assetIds": []
    },
    {
      "x": 330,
      "y": 385,
      "size": 1,
      "price": "1011000000000000000000",
      "reserved": "0x7a9fe22691c811ea339d9b73150e6911a5343dca",
      "salt": "0xf05a15c474b434fe3eff10a1578e18c4498e9105dbf8eae84024e6a3247cf1b5",
      "assetIds": []
    },
    {
      "x": 330,
      "y": 386,
      "size": 1,
      "price": "1011000000000000000000",
      "reserved": "0x7a9fe22691c811ea339d9b73150e6911a5343dca",
      "salt": "0x939da050a5a0c046aef12612c3b1f9bf018d044e3368dabe08fa5185f9ee4d25",
      "assetIds": []
    },
    {
      "x": 331,
      "y": 384,
      "size": 1,
      "price": "4683000000000000000000",
      "reserved": "",
      "salt": "0x0b226350c502355e47901abf38f8f2910ed173792c156fc6ac7aa28599a4fe8d",
      "assetIds": [
        "55464657044963196816950587289035428064568320970692304673817341489688587816968",
        "55464657044963196816950587289035428064568320970692304673817341489688587816966",
        "55464657044963196816950587289035428064568320970692304673817341489688587816960",
        "55464657044963196816950587289035428064568320970692304673817341489688587816962",
        "55464657044963196816950587289035428064568320970692304673817341489688587816967",
        "55464657044963196816950587289035428064568320970692304673817341489688587816961",
        "55464657044963196816950587289035428064568320970692304673817341489688596187136",
        "55464657044963196816950587289035428064568320970692304673817341489688587816963",
        "55464657044963196816950587289035428064568320970692304673817341489688587816965",
        "55464657044963196816950587289035428064568320970692304673817341489688587816964"
      ]
    },
    {
      "x": 331,
      "y": 385,
      "size": 1,
      "price": "4683000000000000000000",
      "reserved": "",
      "salt": "0x39e81c09d5b5c512cd099610e5f5285fd11badbac29a7f4ec0df41a9d84acca8",
      "assetIds": [
        "55464657044963196816950587289035428064568320970692304673817341489688587816968",
        "55464657044963196816950587289035428064568320970692304673817341489688587816966",
        "55464657044963196816950587289035428064568320970692304673817341489688587816960",
        "55464657044963196816950587289035428064568320970692304673817341489688587816962",
        "55464657044963196816950587289035428064568320970692304673817341489688587816967",
        "55464657044963196816950587289035428064568320970692304673817341489688587816961",
        "55464657044963196816950587289035428064568320970692304673817341489688596187136",
        "55464657044963196816950587289035428064568320970692304673817341489688587816963",
        "55464657044963196816950587289035428064568320970692304673817341489688587816965",
        "55464657044963196816950587289035428064568320970692304673817341489688587816964"
      ]
    },
    {
      "x": 331,
      "y": 386,
      "size": 1,
      "price": "4683000000000000000000",
      "reserved": "",
      "salt": "0x1ce344f4d217bd360600abf6a4ae98c34376741f802e62576e613d98a7eae0a3",
      "assetIds": [
        "55464657044963196816950587289035428064568320970692304673817341489688587816968",
        "55464657044963196816950587289035428064568320970692304673817341489688587816966",
        "55464657044963196816950587289035428064568320970692304673817341489688587816960",
        "55464657044963196816950587289035428064568320970692304673817341489688587816962",
        "55464657044963196816950587289035428064568320970692304673817341489688587816967",
        "55464657044963196816950587289035428064568320970692304673817341489688587816961",
        "55464657044963196816950587289035428064568320970692304673817341489688596187136",
        "55464657044963196816950587289035428064568320970692304673817341489688587816963",
        "55464657044963196816950587289035428064568320970692304673817341489688587816965",
        "55464657044963196816950587289035428064568320970692304673817341489688587816964"
      ]
    },
    {
      "x": 332,
      "y": 384,
      "size": 1,
      "price": "1011000000000000000000",
      "reserved": "0x7a9fe22691c811ea339d9b73150e6911a5343dca",
      "salt": "0xbffff6df3fe23a32358810effa012fe52adfba5e7d9e39c7ec5fba96de0363db",
      "assetIds": []
    },
    {
      "x": 332,
      "y": 385,
      "size": 1,
      "price": "4683000000000000000000",
      "reserved": "",
      "salt": "0xec5a7088c8d0edfaad77bf07fa463684e5e085795fb98a4cfdbe24b883b0c704",
      "assetIds": [
        "55464657044963196816950587289035428064568320970692304673817341489688587816968",
        "55464657044963196816950587289035428064568320970692304673817341489688587816966",
        "55464657044963196816950587289035428064568320970692304673817341489688587816960",
        "55464657044963196816950587289035428064568320970692304673817341489688587816962",
        "55464657044963196816950587289035428064568320970692304673817341489688587816967",
        "55464657044963196816950587289035428064568320970692304673817341489688587816961",
        "55464657044963196816950587289035428064568320970692304673817341489688596187136",
        "55464657044963196816950587289035428064568320970692304673817341489688587816963",
        "55464657044963196816950587289035428064568320970692304673817341489688587816965",
        "55464657044963196816950587289035428064568320970692304673817341489688587816964"
      ]
    },
    {
      "x": 332,
      "y": 386,
      "size": 1,
      "price": "1011000000000000000000",
      "reserved": "0x7a9fe22691c811ea339d9b73150e6911a5343dca",
      "salt": "0x0dbd402ae790937224dbc8865d42999934536ceddfbf3d56e1fc69a23485eb23",
      "assetIds": []
    },
    {
      "x": 312,
      "y": 390,
      "size": 3,
      "price": "8648000000000000000000",
      "reserved": "0x7a9fe22691c811ea339d9b73150e6911a5343dca",
      "salt": "0x793a335f16a21c450b741394804fbc92d05ef7014d8b45d0454213d5c71b919e",
      "assetIds": []
    },
    {
      "x": 312,
      "y": 402,
      "size": 3,
      "price": "8648000000000000000000",
      "reserved": "0x7a9fe22691c811ea339d9b73150e6911a5343dca",
      "salt": "0x1af5b6a347f770a78fe725b75d864a2b67275b300e819a5f296aa2300d9b88cb",
      "assetIds": []
    },
    {
      "x": 315,
      "y": 393,
      "size": 3,
      "price": "8648000000000000000000",
      "reserved": "0x7a9fe22691c811ea339d9b73150e6911a5343dca",
      "salt": "0x698f19b2446fbc8bc229542c97f4f2ccf3f72ad5626b0f36ec801e53ff12358c",
      "assetIds": []
    },
    {
      "x": 315,
      "y": 399,
      "size": 3,
      "price": "8648000000000000000000",
      "reserved": "0x7a9fe22691c811ea339d9b73150e6911a5343dca",
      "salt": "0x6dd57a3be0e09e9c99b13cfa30d6099187ed196b20ef78babd342158e56c98dc",
      "assetIds": []
    },
    {
      "x": 315,
      "y": 402,
      "size": 3,
      "price": "8648000000000000000000",
      "reserved": "0x7a9fe22691c811ea339d9b73150e6911a5343dca",
      "salt": "0xb0710a877491aadcae0ea43d83240e94d7b755ce71fdc041d861ad953f322c54",
      "assetIds": []
    },
    {
      "x": 315,
      "y": 405,
      "size": 3,
      "price": "8648000000000000000000",
      "reserved": "0x7a9fe22691c811ea339d9b73150e6911a5343dca",
      "salt": "0x80450109a7f4d73a50a3f8cdf81db098d81513e32c17ae8fd88b16049e6bab45",
      "assetIds": []
    },
    {
      "x": 318,
      "y": 396,
      "size": 3,
      "price": "8648000000000000000000",
      "reserved": "0x7a9fe22691c811ea339d9b73150e6911a5343dca",
      "salt": "0x973586ba6e2688862673a86e46167498d23c9f8b7477ec213c498cc933d69467",
      "assetIds": []
    },
    {
      "x": 321,
      "y": 384,
      "size": 3,
      "price": "8648000000000000000000",
      "reserved": "0x7a9fe22691c811ea339d9b73150e6911a5343dca",
      "salt": "0xccfb04085a8b24bf5152a0d330bc794d578debec86c8f6854d787c52cc561919",
      "assetIds": []
    },
    {
      "x": 321,
      "y": 402,
      "size": 3,
      "price": "8648000000000000000000",
      "reserved": "0x7a9fe22691c811ea339d9b73150e6911a5343dca",
      "salt": "0xe50f163ddd404391dde9b0638c58028fb42695132d13fde7acd7517c3579a688",
      "assetIds": []
    },
    {
      "x": 321,
      "y": 405,
      "size": 3,
      "price": "8648000000000000000000",
      "reserved": "0x7a9fe22691c811ea339d9b73150e6911a5343dca",
      "salt": "0x784585f79d671044225724f5503203433b5ff06a9e0443e9434a9335a7cedad7",
      "assetIds": []
    },
    {
      "x": 324,
      "y": 384,
      "size": 3,
      "price": "8648000000000000000000",
      "reserved": "0x7a9fe22691c811ea339d9b73150e6911a5343dca",
      "salt": "0xc0e445d57cd2cf46b243657d46fe5200d2591094a1cf79621f883bb68594d0a9",
      "assetIds": []
    },
    {
      "x": 324,
      "y": 387,
      "size": 3,
      "price": "8648000000000000000000",
      "reserved": "0x7a9fe22691c811ea339d9b73150e6911a5343dca",
      "salt": "0xdaa12f13ea65f6b0e33166f00417c4cee1608d0216be1b9ffeabdfa3676ef624",
      "assetIds": []
    },
    {
      "x": 324,
      "y": 393,
      "size": 3,
      "price": "8648000000000000000000",
      "reserved": "0x7a9fe22691c811ea339d9b73150e6911a5343dca",
      "salt": "0x7644363681c8f44fc6b5c6219b162085554a50075d2887aae626e512fd0fa122",
      "assetIds": []
    },
    {
      "x": 327,
      "y": 390,
      "size": 3,
      "price": "8648000000000000000000",
      "reserved": "0x7a9fe22691c811ea339d9b73150e6911a5343dca",
      "salt": "0x09c83f5fa06891d21238b61abbc6c5fcf2006d3aeb97f658b3a494e97e3064d0",
      "assetIds": []
    },
    {
      "x": 330,
      "y": 387,
      "size": 3,
      "price": "8648000000000000000000",
      "reserved": "0x7a9fe22691c811ea339d9b73150e6911a5343dca",
      "salt": "0x90544df6c9934ec9fa6b9e098f5083b4e2309bd6df1bee9c6bd76904451be30d",
      "assetIds": []
    },
    {
      "x": 333,
      "y": 384,
      "size": 3,
      "price": "8648000000000000000000",
      "reserved": "0x7a9fe22691c811ea339d9b73150e6911a5343dca",
      "salt": "0xe57a8ad6208e4f3b66b29a6adfdc6d4a3f9e0becaa49dc344d171e2feef36468",
      "assetIds": []
    },
    {
      "x": 333,
      "y": 387,
      "size": 3,
      "price": "8648000000000000000000",
      "reserved": "0x7a9fe22691c811ea339d9b73150e6911a5343dca",
      "salt": "0x1da3cceb9d3586ca3b28e719212c24eee624a792d3bace45d5635e94e48cb397",
      "assetIds": []
    },
    {
      "x": 312,
      "y": 384,
      "size": 6,
      "price": "32772000000000000000000",
      "reserved": "0x7a9fe22691c811ea339d9b73150e6911a5343dca",
      "salt": "0x8579362070907bc6c7955f84bbe0257f5045ee1fb56e06254e8babb302e22357",
      "assetIds": []
    },
    {
      "x": 318,
      "y": 390,
      "size": 6,
      "price": "32772000000000000000000",
      "reserved": "0x7a9fe22691c811ea339d9b73150e6911a5343dca",
      "salt": "0x76b420eccdef41da5e1b1397cb083e71f5e61b5473c54d3b122c8b5d794ee941",
      "assetIds": []
    },
    {
      "x": 330,
      "y": 390,
      "size": 6,
      "price": "32772000000000000000000",
      "reserved": "0x7a9fe22691c811ea339d9b73150e6911a5343dca",
      "salt": "0x57752fb52d10f49e0e3c43703497ed51690bc88a0981239f42cba7713e2292d1",
      "assetIds": []
    },
    {
      "x": 324,
      "y": 396,
      "size": 12,
      "price": "123806000000000000000000",
      "reserved": "0x7a9fe22691c811ea339d9b73150e6911a5343dca",
      "salt": "0x11e22cc16af76c55e4b4f390a6bd3674150927c86524951c94970fe96eaf16dd",
      "assetIds": []
    }
  ],
  "solcInputHash": "e17a5bb930c92aaeeb80a52119ce77b7",
  "bytecode": "0x610160604052620d2f0060055534801561001857600080fd5b506040516200284d3803806200284d83398181016040526101a081101561003e57600080fd5b50805160208201516040830151606080850151608086015160a08088015160c0808a015160e08b01516101008c01516101208d01516101408e01516101608f0151610180909f0151600280546001600160a01b0319166001600160a01b03871617905560038490558e8c1b6001600160601b03199081169099529a8d901b9097169094529a9b999a98999698959793969195909490939091906100e28b600161015d565b600680546001600160a01b039a8b166001600160a01b031991821617909155610140989098526101209690965260008054998916998816999099179098556001600160601b0319606092831b811660e05290821b811660805296901b909516610100525060078054919093169116179055506101c192505050565b6001600160a01b038216600081815260016020908152604091829020805460ff191685151590811790915582519384529083015280517fb21eb88b4e33b3f1281830a7178d74d8aa73220416215726b68ae23d539515cb9281900390910190a15050565b60805160601c60a05160601c60c05160601c60e05160601c6101005160601c61012051610140516126066200024760003980610b3d528061206c525080610b1952806112ec5250806120da525080611841528061199e5250806117f75280611b9d528061210e525080611872528061196f525080610eb25280611c8952506126066000f3fe608060405234801561001057600080fd5b506004361061011b5760003560e01c80638f283970116100b2578063c10a420811610081578063dc5074af11610066578063dc5074af1461085f578063e56f8a9e14610885578063f23a6e61146108a25761011b565b8063c10a420814610780578063caed3500146108575761011b565b80638f28397014610500578063984d625214610526578063b522ecff146105f8578063bc197c811461061e5761011b565b806365194ce7116100ee57806365194ce7146103485780636e9960c3146104a657806377f1c3ac146104ca5780638a04af6a146104d25761011b565b80631187fd3c1461012057806325cb5bc014610300578063495906571461031a57806358bc294414610322575b600080fd5b6102fe600480360361012081101561013757600080fd5b6001600160a01b038235811692602081013582169260408201359092169181019060808101606082013564010000000081111561017357600080fd5b82018360208201111561018557600080fd5b803590602001918460208302840111640100000000831117156101a757600080fd5b919390928235926040810190602001356401000000008111156101c957600080fd5b8201836020820111156101db57600080fd5b803590602001918460208302840111640100000000831117156101fd57600080fd5b91939092909160208101903564010000000081111561021b57600080fd5b82018360208201111561022d57600080fd5b8035906020019184602083028401116401000000008311171561024f57600080fd5b91939092909160208101903564010000000081111561026d57600080fd5b82018360208201111561027f57600080fd5b803590602001918460018302840111640100000000831117156102a157600080fd5b9193909290916020810190356401000000008111156102bf57600080fd5b8201836020820111156102d157600080fd5b803590602001918460018302840111640100000000831117156102f357600080fd5b509092509050610937565b005b610308610b17565b60408051918252519081900360200190f35b610308610b3b565b6102fe6004803603602081101561033857600080fd5b50356001600160a01b0316610b5f565b6103ee6004803603602081101561035e57600080fd5b81019060208101813564010000000081111561037957600080fd5b82018360208201111561038b57600080fd5b803590602001918460018302840111640100000000831117156103ad57600080fd5b91908080601f016020809104026020016040519081016040528093929190818152602001838380828437600092019190915250929550610c0a945050505050565b6040518080602001866001600160a01b03166001600160a01b03168152602001856001600160a01b03166001600160a01b03168152602001848152602001838152602001828103825287818151815260200191508051906020019080838360005b8381101561046757818101518382015260200161044f565b50505050905090810190601f1680156104945780820380516001836020036101000a031916815260200191505b50965050505050505060405180910390f35b6104ae610d0f565b604080516001600160a01b039092168252519081900360200190f35b610308610d1e565b6102fe600480360360408110156104e857600080fd5b506001600160a01b0381351690602001351515610d24565b6102fe6004803603602081101561051657600080fd5b50356001600160a01b0316610d7b565b6102fe6004803603606081101561053c57600080fd5b6001600160a01b03823516919081019060408101602082013564010000000081111561056757600080fd5b82018360208201111561057957600080fd5b8035906020019184602083028401116401000000008311171561059b57600080fd5b9193909290916020810190356401000000008111156105b957600080fd5b8201836020820111156105cb57600080fd5b803590602001918460208302840111640100000000831117156105ed57600080fd5b509092509050610e51565b6102fe6004803603602081101561060e57600080fd5b50356001600160a01b0316610fdc565b61074b600480360360a081101561063457600080fd5b6001600160a01b03823581169260208101359091169181019060608101604082013564010000000081111561066857600080fd5b82018360208201111561067a57600080fd5b8035906020019184602083028401116401000000008311171561069c57600080fd5b9193909290916020810190356401000000008111156106ba57600080fd5b8201836020820111156106cc57600080fd5b803590602001918460208302840111640100000000831117156106ee57600080fd5b91939092909160208101903564010000000081111561070c57600080fd5b82018360208201111561071e57600080fd5b8035906020019184600183028401116401000000008311171561074057600080fd5b5090925090506110c5565b604080517fffffffff000000000000000000000000000000000000000000000000000000009092168252519081900360200190f35b610843600480360360a081101561079657600080fd5b8101906020810181356401000000008111156107b157600080fd5b8201836020820111156107c357600080fd5b803590602001918460018302840111640100000000831117156107e557600080fd5b91908080601f016020809104026020016040519081016040528093929190818152602001838380828437600092019190915250929550506001600160a01b0383358116945060208401351692604081013592506060013590506110f2565b604080519115158252519081900360200190f35b6104ae61122e565b6108436004803603602081101561087557600080fd5b50356001600160a01b031661123d565b6102fe6004803603602081101561089b57600080fd5b503561125b565b61074b600480360360a08110156108b857600080fd5b6001600160a01b03823581169260208101359091169160408201359160608101359181019060a0810160808201356401000000008111156108f857600080fd5b82018360208201111561090a57600080fd5b8035906020019184600183028401116401000000008311171561092c57600080fd5b5090925090506112bf565b6109418e8d6112ea565b610a388d8d8d8d80806020026020016040519081016040528093929190818152602001838360200280828437600081840152601f19601f820116905080830192505050505050508c8c8c80806020026020016040519081016040528093929190818152602001838360200280828437600081840152601f19601f820116905080830192505050505050508b8b8080602002602001604051908101604052809392919081815260200183836020028082843760009201919091525050604080516020601f8d018190048102820181019092528b815292508b91508a908190840183828082843760009201919091525061144d92505050565b610a8c8e8c8c6003818110610a4957fe5b9050602002013586868080601f0160208091040260200160405190810160405280939291908181526020018383808284376000920191909152506117d092505050565b610aca8e8e8d8d8080602002602001604051908101604052809392919081815260200183836020028082843760009201919091525061182192505050565b610b078d898980806020026020016040519081016040528093929190818152602001838360200280828437600092019190915250611c1292505050565b5050505050505050505050505050565b7f000000000000000000000000000000000000000000000000000000000000000090565b7f000000000000000000000000000000000000000000000000000000000000000090565b6000546001600160a01b03163314610bbe576040805162461bcd60e51b815260206004820152601060248201527f53656e646572206e6f742061646d696e00000000000000000000000000000000604482015290519081900360640190fd5b600554600280546001600160a01b03908116600090815260046020526040902042909301909255805473ffffffffffffffffffffffffffffffffffffffff191692909116919091179055565b606060008060008060606000806000808a80602001905160a0811015610c2f57600080fd5b8101908080516040519392919084640100000000821115610c4f57600080fd5b908301906020820185811115610c6457600080fd5b8251640100000000811182820188101715610c7e57600080fd5b82525081516020918201929091019080838360005b83811015610cab578181015183820152602001610c93565b50505050905090810190601f168015610cd85780820380516001836020036101000a031916815260200191505b5060409081526020820151908201516060830151608090930151959f50909d509b5099509197505050505050505091939590929450565b6000546001600160a01b031690565b60035490565b6000546001600160a01b03163314610d6d5760405162461bcd60e51b815260040180806020018281038252602e8152602001806125a3602e913960400191505060405180910390fd5b610d778282611dd6565b5050565b6000546001600160a01b03163314610dda576040805162461bcd60e51b815260206004820152601b60248201527f6f6e6c792061646d696e2063616e206368616e67652061646d696e0000000000604482015290519081900360640190fd5b600054604080516001600160a01b039283168152918316602083015280517f7e644d79422f17c01e4894b5f4f588d331ebfa28653d42ae832dc59e38c9798f9281900390910190a16000805473ffffffffffffffffffffffffffffffffffffffff19166001600160a01b0392909216919091179055565b6000546001600160a01b03163314610eb0576040805162461bcd60e51b815260206004820152600e60248201527f4e4f545f415554484f52495a4544000000000000000000000000000000000000604482015290519081900360640190fd5b7f00000000000000000000000000000000000000000000000000000000000000006001600160a01b0316632eb2c2d63087878787876040518763ffffffff1660e01b815260040180876001600160a01b03166001600160a01b03168152602001866001600160a01b03166001600160a01b031681526020018060200180602001806020018481038452888882818152602001925060200280828437600083820152601f01601f19169091018581038452868152602090810191508790870280828437600081840152601f19601f8201169050808301925050508481038252600081526020016020019950505050505050505050600060405180830381600087803b158015610fbd57600080fd5b505af1158015610fd1573d6000803e3d6000fd5b505050505050505050565b6001600160a01b038116611037576040805162461bcd60e51b815260206004820152600c60248201527f5a45524f5f414444524553530000000000000000000000000000000000000000604482015290519081900360640190fd5b6000546001600160a01b03163314611096576040805162461bcd60e51b815260206004820152600e60248201527f4e4f545f415554484f52495a4544000000000000000000000000000000000000604482015290519081900360640190fd5b6006805473ffffffffffffffffffffffffffffffffffffffff19166001600160a01b0392909216919091179055565b7fbc197c810000000000000000000000000000000000000000000000000000000098975050505050505050565b60006003548211806111155750836001600160a01b0316856001600160a01b0316145b8061111f57508242115b1561112c57506000611225565b60408051606087811b7fffffffffffffffffffffffffffffffffffffffff0000000000000000000000009081166020808501919091529188901b166034830152604882018690526068808301869052835180840390910181526088830184528051908201207f19457468657265756d205369676e6564204d6573736167653a0a33320000000060a884015260c48084018290528451808503909101815260e490930190935281519101206000906111e39089611e58565b6001600160a01b038116600090815260046020526040902054909150421161121057600192505050611225565b6002546001600160a01b039081169116149150505b95945050505050565b6002546001600160a01b031690565b6001600160a01b031660009081526001602052604090205460ff1690565b6000546001600160a01b031633146112ba576040805162461bcd60e51b815260206004820152601060248201527f53656e646572206e6f742061646d696e00000000000000000000000000000000604482015290519081900360640190fd5b600355565b7ff23a6e61000000000000000000000000000000000000000000000000000000009695505050505050565b7f0000000000000000000000000000000000000000000000000000000000000000421061135e576040805162461bcd60e51b815260206004820152600c60248201527f53414c455f49535f4f5645520000000000000000000000000000000000000000604482015290519081900360640190fd5b6001600160a01b03821633148061138457503360009081526001602052604090205460ff165b6113d5576040805162461bcd60e51b815260206004820152600e60248201527f4e4f545f415554484f52495a4544000000000000000000000000000000000000604482015290519081900360640190fd5b6001600160a01b03811615806113fc5750816001600160a01b0316816001600160a01b0316145b610d77576040805162461bcd60e51b815260206004820152600d60248201527f52455345525645445f4c414e4400000000000000000000000000000000000000604482015290519081900360640190fd5b600087878760008151811061145e57fe5b60200260200101518860018151811061147357fe5b60200260200101518960028151811061148857fe5b60200260200101518a60038151811061149d57fe5b60200260200101518a8a60405160200180828051906020019060200280838360005b838110156114d75781810151838201526020016114bf565b50505050905001915050604051602081830303815290604052805190602001208a60405160200180828051906020019060200280838360005b83811015611528578181015183820152602001611510565b5050505090500191505060405160208183030381529060405280519060200120604051602001808a6001600160a01b03166001600160a01b031660601b8152601401896001600160a01b03166001600160a01b031660601b81526014018881526020018781526020018681526020018581526020018481526020018381526020018281526020019950505050505050505050604051602081830303815290604052805190602001209050600760009054906101000a90046001600160a01b03166001600160a01b031663012847ed83836040518363ffffffff1660e01b81526004018080602001838152602001828103825284818151815260200191508051906020019080838360005b8381101561164a578181015183820152602001611632565b50505050905090810190601f1680156116775780820380516001836020036101000a031916815260200191505b50935050505060206040518083038186803b15801561169557600080fd5b505afa1580156116a9573d6000803e3d6000fd5b505050506040513d60208110156116bf57600080fd5b5051611712576040805162461bcd60e51b815260206004820152600c60248201527f494e56414c49445f415554480000000000000000000000000000000000000000604482015290519081900360640190fd5b60006117738760008151811061172457fe5b60200260200101518860018151811061173957fe5b60200260200101518960028151811061174e57fe5b60200260200101518a60038151811061176357fe5b60200260200101518c8b8b611f25565b905061177f8482611fca565b610fd1576040805162461bcd60e51b815260206004820152600c60248201527f494e56414c49445f4c414e440000000000000000000000000000000000000000604482015290519081900360640190fd5b60006117dc8484612095565b60065490915061181b908590839085906001600160a01b03167f00000000000000000000000000000000000000000000000000000000000000006121ee565b50505050565b8060028151811061182e57fe5b60200260200101516001148061186b57507f00000000000000000000000000000000000000000000000000000000000000006001600160a01b0316155b1561196d577f00000000000000000000000000000000000000000000000000000000000000006001600160a01b0316636e1e3bbf83836002815181106118ad57fe5b6020026020010151846000815181106118c257fe5b6020026020010151856001815181106118d757fe5b60200260200101516040518563ffffffff1660e01b815260040180856001600160a01b03166001600160a01b031681526020018481526020018381526020018281526020018060200182810382526000815260200160200195505050505050600060405180830381600087803b15801561195057600080fd5b505af1158015611964573d6000803e3d6000fd5b50505050611b0d565b7f00000000000000000000000000000000000000000000000000000000000000006001600160a01b0316636e1e3bbf7f0000000000000000000000000000000000000000000000000000000000000000836002815181106119ca57fe5b6020026020010151846000815181106119df57fe5b6020026020010151856001815181106119f457fe5b60200260200101518760405160200180826001600160a01b03166001600160a01b031681526020019150506040516020818303038152906040526040518663ffffffff1660e01b815260040180866001600160a01b03166001600160a01b0316815260200185815260200184815260200183815260200180602001828103825283818151815260200191508051906020019080838360005b83811015611aa4578181015183820152602001611a8c565b50505050905090810190601f168015611ad15780820380516001836020036101000a031916815260200191505b509650505050505050600060405180830381600087803b158015611af457600080fd5b505af1158015611b08573d6000803e3d6000fd5b505050505b61019881600181518110611b1d57fe5b60200260200101510281600081518110611b3357fe5b602002602001015101826001600160a01b0316846001600160a01b03167fe4dfa6ac11314892f3029b34a25b1a887da3b1cab2bbf8506d87128ba6e3ac0284600281518110611b7e57fe5b602002602001015185600381518110611b9357fe5b60200260200101517f000000000000000000000000000000000000000000000000000000000000000087600381518110611bc957fe5b602002602001015160405180858152602001848152602001836001600160a01b03166001600160a01b0316815260200182815260200194505050505060405180910390a4505050565b6060815167ffffffffffffffff81118015611c2c57600080fd5b50604051908082528060200260200182016040528015611c56578160200160208202803683370190505b50905060005b8251811015611c86576001828281518110611c7357fe5b6020908102919091010152600101611c5c565b507f00000000000000000000000000000000000000000000000000000000000000006001600160a01b0316632eb2c2d6308585856040518563ffffffff1660e01b815260040180856001600160a01b03166001600160a01b03168152602001846001600160a01b03166001600160a01b03168152602001806020018060200180602001848103845286818151815260200191508051906020019060200280838360005b83811015611d41578181015183820152602001611d29565b50505050905001848103835285818151815260200191508051906020019060200280838360005b83811015611d80578181015183820152602001611d68565b50505050905001848103825260008152602001602001975050505050505050600060405180830381600087803b158015611db957600080fd5b505af1158015611dcd573d6000803e3d6000fd5b50505050505050565b6001600160a01b03821660008181526001602090815260409182902080547fffffffffffffffffffffffffffffffffffffffffffffffffffffffffffffff001685151590811790915582519384529083015280517fb21eb88b4e33b3f1281830a7178d74d8aa73220416215726b68ae23d539515cb9281900390910190a15050565b60008151604114611e6857600080fd5b60208201516040830151606084015160001a601b811015611e8757601b015b8060ff16601b1480611e9c57508060ff16601c145b611ea557600080fd5b6040805160008152602080820180845289905260ff8416828401526060820186905260808201859052915160019260a0808401939192601f1981019281900390910190855afa158015611efc573d6000803e3d6000fd5b5050604051601f1901519450506001600160a01b038416611f1c57600080fd5b50505092915050565b60008787878787878760405160200180888152602001878152602001868152602001858152602001846001600160a01b03166001600160a01b031660601b8152601401838152602001828051906020019060200280838360005b83811015611f97578181015183820152602001611f7f565b50505050905001975050505050505050604051602081830303815290604052805190602001209050979650505050505050565b600081815b8451811015612069576000858281518110611fe657fe5b602002602001015190508083101561202e5782816040516020018083815260200182815260200192505050604051602081830303815290604052805190602001209250612060565b808360405160200180838152602001828152602001925050506040516020818303038152906040528051906020012092505b50600101611fcf565b507f00000000000000000000000000000000000000000000000000000000000000001490505b92915050565b6000806120ba60646120ae85600563ffffffff61247016565b9063ffffffff6124e016565b604080516323b872dd60e01b81526001600160a01b0387811660048301527f0000000000000000000000000000000000000000000000000000000000000000811660248301526044820184905291519293507f0000000000000000000000000000000000000000000000000000000000000000909116916323b872dd916064808201926020929091908290030181600087803b15801561215957600080fd5b505af115801561216d573d6000803e3d6000fd5b505050506040513d602081101561218357600080fd5b50516121d6576040805162461bcd60e51b815260206004820152601360248201527f4645455f5452414e534645525f4641494c454400000000000000000000000000604482015290519081900360640190fd5b6121e6838263ffffffff61254516565b949350505050565b8251819085901561239857606060008060008061220a8a610c0a565b939850919650945092509050600061222586868686866110f2565b156122b35761223f6122378d84612470565b6127106124e0565b9050886001600160a01b0316846001600160a01b0316866001600160a01b03167fac7a699eb95c3c6d390ec4626de17ef9a67b35891efdb197beba7c7fdd45fac48f858760405180848152602001838152602001828152602001935050505060405180910390a46122b08782612545565b96505b801561239157604080516323b872dd60e01b81526001600160a01b038f811660048301528781166024830152604482018490529151918a16916323b872dd916064808201926020929091908290030181600087803b15801561231457600080fd5b505af1158015612328573d6000803e3d6000fd5b505050506040513d602081101561233e57600080fd5b5051612391576040805162461bcd60e51b815260206004820152601960248201527f636f6d6d6973696f6e207472616e73666572206661696c656400000000000000604482015290519081900360640190fd5b5050505050505b604080516323b872dd60e01b81526001600160a01b0389811660048301528681166024830152604482018490529151918416916323b872dd916064808201926020929091908290030181600087803b1580156123f357600080fd5b505af1158015612407573d6000803e3d6000fd5b505050506040513d602081101561241d57600080fd5b5051611dcd576040805162461bcd60e51b815260206004820152601760248201527f7061796d656e74207472616e73666572206661696c6564000000000000000000604482015290519081900360640190fd5b60008261247f5750600061208f565b508181028183828161248d57fe5b041461208f576040805162461bcd60e51b815260206004820152600860248201527f6f766572666c6f77000000000000000000000000000000000000000000000000604482015290519081900360640190fd5b600081612534576040805162461bcd60e51b815260206004820152600960248201527f64697662797a65726f0000000000000000000000000000000000000000000000604482015290519081900360640190fd5b81838161253d57fe5b049392505050565b60008282111561259c576040805162461bcd60e51b815260206004820152600860248201527f756e6465666c6f77000000000000000000000000000000000000000000000000604482015290519081900360640190fd5b5090039056fe6f6e6c792061646d696e2063616e207365747570206d6574615472616e73616374696f6e50726f636573736f7273a2646970667358221220fc9205bafc138c1de206481f144dc3e7818922fbe1a20d2a71392e5e2e413c1a64736f6c63430006050033",
  "devdoc": {
    "methods": {
      "buyLandWithSand(address,address,address,uint256[],bytes32,uint256[],bytes32[],bytes,bytes)": {
        "params": {
          "buyer": "address that perform the payment",
          "info": "[X_INDEX=0] x coordinate of the Land [Y_INDEX=1] y coordinate of the Land [SIZE_INDEX=2] size of the pack of Land to purchase [PRICE_INDEX=3] price in SAND to purchase that Land",
          "proof": "merkleProof for that particular Land",
          "reserved": "the reserved address (if any)",
          "to": "address that will own the purchased Land"
        }
      },
      "changeAdmin(address)": {
        "details": "change the administrator to be `newAdmin`.",
        "params": {
          "newAdmin": "address of the new administrator."
        }
      },
      "getAdmin()": {
        "details": "gives the current administrator of this contract.",
        "returns": {
          "_0": "the current administrator of this contract."
        }
      },
      "getSigningWallet()": {
        "details": "signing wallet authorized for referral",
        "returns": {
          "_0": "the address of the signing wallet"
        }
      },
      "isMetaTransactionProcessor(address)": {
        "details": "check whether address `who` is given meta-transaction execution rights.",
        "params": {
          "who": "The address to query."
        },
        "returns": {
          "_0": "whether the address has meta-transaction execution rights."
        }
      },
      "isReferralValid(bytes,address,address,uint256,uint256)": {
        "params": {
          "commissionRate": "The commissionRate of the referral",
          "expiryTime": "The expiry time of the referral",
          "referee": "The address of the referee",
          "referrer": "The address of the referrer",
          "signature": "The signature to check (signed referral)"
        },
        "returns": {
          "_0": "True if the referral is valid"
        }
      },
      "setMetaTransactionProcessor(address,bool)": {
        "details": "Enable or disable the ability of `metaTransactionProcessor` to perform meta-tx (metaTransactionProcessor rights).",
        "params": {
          "enabled": "set whether the metaTransactionProcessor is enabled or disabled.",
          "metaTransactionProcessor": "address that will be given/removed metaTransactionProcessor rights."
        }
      },
      "setReceivingWallet(address)": {
        "params": {
          "newWallet": "address of the new receiving wallet"
        }
      },
      "updateMaxCommissionRate(uint256)": {
        "details": "Update the maximum commission rate",
        "params": {
          "newMaxCommissionRate": "The new maximum commission rate"
        }
      },
      "updateSigningWallet(address)": {
        "details": "Update the signing wallet",
        "params": {
          "newSigningWallet": "The new address of the signing wallet"
        }
      },
      "withdrawAssets(address,uint256[],uint256[])": {
        "params": {
          "assetIds": "the assetIds to be transferred",
          "to": "intended recipient of the asset tokens",
          "values": "the quantities of the assetIds to be transferred"
        }
      }
    },
    "title": "Estate Sale contract with referral"
  },
  "userdoc": {
    "methods": {
      "buyLandWithSand(address,address,address,uint256[],bytes32,uint256[],bytes32[],bytes,bytes)": {
        "notice": "buy Land with SAND using the merkle proof associated with it"
      },
      "getExpiryTime()": {
        "notice": "Gets the expiry time for the current sale"
      },
      "getMaxCommisionRate()": {
        "notice": "the max commision rate"
      },
      "getMerkleRoot()": {
        "notice": "Gets the Merkle root associated with the current sale"
      },
      "isReferralValid(bytes,address,address,uint256,uint256)": {
        "notice": "Check if a referral is valid"
      },
      "setReceivingWallet(address)": {
        "notice": "set the wallet receiving the proceeds"
      },
      "withdrawAssets(address,uint256[],uint256[])": {
        "notice": "enable Admin to withdraw remaining assets from EstateSaleWithFee contract"
      }
    },
    "notice": "This contract manages the sale of our lands as Estates"
  },
  "storageLayout": {
    "storage": [
      {
        "astId": 13650,
        "contract": "src/solc_0.6/EstateSale/EstateSaleWithAuth.sol:EstateSaleWithAuth",
        "label": "_admin",
        "offset": 0,
        "slot": "0",
        "type": "t_address"
      },
      {
        "astId": 13712,
        "contract": "src/solc_0.6/EstateSale/EstateSaleWithAuth.sol:EstateSaleWithAuth",
        "label": "_metaTransactionContracts",
        "offset": 0,
        "slot": "1",
        "type": "t_mapping(t_address,t_bool)"
      },
      {
        "astId": 11828,
        "contract": "src/solc_0.6/EstateSale/EstateSaleWithAuth.sol:EstateSaleWithAuth",
        "label": "_signingWallet",
        "offset": 0,
        "slot": "2",
        "type": "t_address"
      },
      {
        "astId": 11830,
        "contract": "src/solc_0.6/EstateSale/EstateSaleWithAuth.sol:EstateSaleWithAuth",
        "label": "_maxCommissionRate",
        "offset": 0,
        "slot": "3",
        "type": "t_uint256"
      },
      {
        "astId": 11834,
        "contract": "src/solc_0.6/EstateSale/EstateSaleWithAuth.sol:EstateSaleWithAuth",
        "label": "_previousSigningWallets",
        "offset": 0,
        "slot": "4",
        "type": "t_mapping(t_address,t_uint256)"
      },
      {
        "astId": 11843,
        "contract": "src/solc_0.6/EstateSale/EstateSaleWithAuth.sol:EstateSaleWithAuth",
        "label": "_previousSigningDelay",
        "offset": 0,
        "slot": "5",
        "type": "t_uint256"
      },
      {
        "astId": 7453,
        "contract": "src/solc_0.6/EstateSale/EstateSaleWithAuth.sol:EstateSaleWithAuth",
        "label": "_wallet",
        "offset": 0,
        "slot": "6",
        "type": "t_address_payable"
      },
      {
        "astId": 7455,
        "contract": "src/solc_0.6/EstateSale/EstateSaleWithAuth.sol:EstateSaleWithAuth",
        "label": "_authValidator",
        "offset": 0,
        "slot": "7",
        "type": "t_contract(AuthValidator)6784"
      }
    ],
    "types": {
      "t_address": {
        "encoding": "inplace",
        "label": "address",
        "numberOfBytes": "20"
      },
      "t_address_payable": {
        "encoding": "inplace",
        "label": "address payable",
        "numberOfBytes": "20"
      },
      "t_bool": {
        "encoding": "inplace",
        "label": "bool",
        "numberOfBytes": "1"
      },
      "t_contract(AuthValidator)6784": {
        "encoding": "inplace",
        "label": "contract AuthValidator",
        "numberOfBytes": "20"
      },
      "t_mapping(t_address,t_bool)": {
        "encoding": "mapping",
        "key": "t_address",
        "label": "mapping(address => bool)",
        "numberOfBytes": "32",
        "value": "t_bool"
      },
      "t_mapping(t_address,t_uint256)": {
        "encoding": "mapping",
        "key": "t_address",
        "label": "mapping(address => uint256)",
        "numberOfBytes": "32",
        "value": "t_uint256"
      },
      "t_uint256": {
        "encoding": "inplace",
        "label": "uint256",
        "numberOfBytes": "32"
      }
    }
  }
}