{
  "address": "0xe7397163acF2e8Ff1aaD7aB72A34b71103309515",
  "abi": [
    {
      "inputs": [
        {
          "internalType": "address",
          "name": "landAddress",
          "type": "address"
        },
        {
          "internalType": "address",
          "name": "sandContractAddress",
          "type": "address"
        },
        {
          "internalType": "address",
          "name": "initialMetaTx",
          "type": "address"
        },
        {
          "internalType": "address",
          "name": "admin",
          "type": "address"
        },
        {
          "internalType": "address payable",
          "name": "initialWalletAddress",
          "type": "address"
        },
        {
          "internalType": "bytes32",
          "name": "merkleRoot",
          "type": "bytes32"
        },
        {
          "internalType": "uint256",
          "name": "expiryTime",
          "type": "uint256"
        },
        {
          "internalType": "address",
          "name": "initialSigningWallet",
          "type": "address"
        },
        {
          "internalType": "uint256",
          "name": "initialMaxCommissionRate",
          "type": "uint256"
        },
        {
          "internalType": "address",
          "name": "estate",
          "type": "address"
        },
        {
          "internalType": "address",
          "name": "asset",
          "type": "address"
        },
        {
          "internalType": "address",
          "name": "feeDistributor",
          "type": "address"
        }
      ],
      "stateMutability": "nonpayable",
      "type": "constructor"
    },
    {
      "anonymous": false,
      "inputs": [
        {
          "indexed": false,
          "internalType": "address",
          "name": "oldAdmin",
          "type": "address"
        },
        {
          "indexed": false,
          "internalType": "address",
          "name": "newAdmin",
          "type": "address"
        }
      ],
      "name": "AdminChanged",
      "type": "event"
    },
    {
      "anonymous": false,
      "inputs": [
        {
          "indexed": true,
          "internalType": "address",
          "name": "buyer",
          "type": "address"
        },
        {
          "indexed": true,
          "internalType": "address",
          "name": "to",
          "type": "address"
        },
        {
          "indexed": true,
          "internalType": "uint256",
          "name": "topCornerId",
          "type": "uint256"
        },
        {
          "indexed": false,
          "internalType": "uint256",
          "name": "size",
          "type": "uint256"
        },
        {
          "indexed": false,
          "internalType": "uint256",
          "name": "price",
          "type": "uint256"
        },
        {
          "indexed": false,
          "internalType": "address",
          "name": "token",
          "type": "address"
        },
        {
          "indexed": false,
          "internalType": "uint256",
          "name": "amountPaid",
          "type": "uint256"
        }
      ],
      "name": "LandQuadPurchased",
      "type": "event"
    },
    {
      "anonymous": false,
      "inputs": [
        {
          "indexed": false,
          "internalType": "address",
          "name": "metaTransactionProcessor",
          "type": "address"
        },
        {
          "indexed": false,
          "internalType": "bool",
          "name": "enabled",
          "type": "bool"
        }
      ],
      "name": "MetaTransactionProcessor",
      "type": "event"
    },
    {
      "anonymous": false,
      "inputs": [
        {
          "indexed": true,
          "internalType": "address",
          "name": "referrer",
          "type": "address"
        },
        {
          "indexed": true,
          "internalType": "address",
          "name": "referee",
          "type": "address"
        },
        {
          "indexed": true,
          "internalType": "address",
          "name": "token",
          "type": "address"
        },
        {
          "indexed": false,
          "internalType": "uint256",
          "name": "amount",
          "type": "uint256"
        },
        {
          "indexed": false,
          "internalType": "uint256",
          "name": "commission",
          "type": "uint256"
        },
        {
          "indexed": false,
          "internalType": "uint256",
          "name": "commissionRate",
          "type": "uint256"
        }
      ],
      "name": "ReferralUsed",
      "type": "event"
    },
    {
      "inputs": [
        {
          "internalType": "address",
          "name": "buyer",
          "type": "address"
        },
        {
          "internalType": "address",
          "name": "to",
          "type": "address"
        },
        {
          "internalType": "address",
          "name": "reserved",
          "type": "address"
        },
        {
          "internalType": "uint256",
          "name": "x",
          "type": "uint256"
        },
        {
          "internalType": "uint256",
          "name": "y",
          "type": "uint256"
        },
        {
          "internalType": "uint256",
          "name": "size",
          "type": "uint256"
        },
        {
          "internalType": "uint256",
          "name": "priceInSand",
          "type": "uint256"
        },
        {
          "internalType": "uint256",
          "name": "adjustedPriceInSand",
          "type": "uint256"
        },
        {
          "internalType": "bytes32",
          "name": "salt",
          "type": "bytes32"
        },
        {
          "internalType": "uint256[]",
          "name": "assetIds",
          "type": "uint256[]"
        },
        {
          "internalType": "bytes32[]",
          "name": "proof",
          "type": "bytes32[]"
        },
        {
          "internalType": "bytes",
          "name": "referral",
          "type": "bytes"
        }
      ],
      "name": "buyLandWithSand",
      "outputs": [],
      "stateMutability": "nonpayable",
      "type": "function"
    },
    {
      "inputs": [
        {
          "internalType": "address",
          "name": "newAdmin",
          "type": "address"
        }
      ],
      "name": "changeAdmin",
      "outputs": [],
      "stateMutability": "nonpayable",
      "type": "function"
    },
    {
      "inputs": [
        {
          "internalType": "bytes",
          "name": "referral",
          "type": "bytes"
        }
      ],
      "name": "decodeReferral",
      "outputs": [
        {
          "internalType": "bytes",
          "name": "",
          "type": "bytes"
        },
        {
          "internalType": "address",
          "name": "",
          "type": "address"
        },
        {
          "internalType": "address",
          "name": "",
          "type": "address"
        },
        {
          "internalType": "uint256",
          "name": "",
          "type": "uint256"
        },
        {
          "internalType": "uint256",
          "name": "",
          "type": "uint256"
        }
      ],
      "stateMutability": "pure",
      "type": "function"
    },
    {
      "inputs": [],
      "name": "getAdmin",
      "outputs": [
        {
          "internalType": "address",
          "name": "",
          "type": "address"
        }
      ],
      "stateMutability": "view",
      "type": "function"
    },
    {
      "inputs": [],
      "name": "getExpiryTime",
      "outputs": [
        {
          "internalType": "uint256",
          "name": "",
          "type": "uint256"
        }
      ],
      "stateMutability": "view",
      "type": "function"
    },
    {
      "inputs": [],
      "name": "getMaxCommisionRate",
      "outputs": [
        {
          "internalType": "uint256",
          "name": "",
          "type": "uint256"
        }
      ],
      "stateMutability": "view",
      "type": "function"
    },
    {
      "inputs": [],
      "name": "getMerkleRoot",
      "outputs": [
        {
          "internalType": "bytes32",
          "name": "",
          "type": "bytes32"
        }
      ],
      "stateMutability": "view",
      "type": "function"
    },
    {
      "inputs": [],
      "name": "getSandMultiplier",
      "outputs": [
        {
          "internalType": "uint256",
          "name": "",
          "type": "uint256"
        }
      ],
      "stateMutability": "view",
      "type": "function"
    },
    {
      "inputs": [],
      "name": "getSigningWallet",
      "outputs": [
        {
          "internalType": "address",
          "name": "",
          "type": "address"
        }
      ],
      "stateMutability": "view",
      "type": "function"
    },
    {
      "inputs": [
        {
          "internalType": "address",
          "name": "who",
          "type": "address"
        }
      ],
      "name": "isMetaTransactionProcessor",
      "outputs": [
        {
          "internalType": "bool",
          "name": "",
          "type": "bool"
        }
      ],
      "stateMutability": "view",
      "type": "function"
    },
    {
      "inputs": [
        {
          "internalType": "bytes",
          "name": "signature",
          "type": "bytes"
        },
        {
          "internalType": "address",
          "name": "referrer",
          "type": "address"
        },
        {
          "internalType": "address",
          "name": "referee",
          "type": "address"
        },
        {
          "internalType": "uint256",
          "name": "expiryTime",
          "type": "uint256"
        },
        {
          "internalType": "uint256",
          "name": "commissionRate",
          "type": "uint256"
        }
      ],
      "name": "isReferralValid",
      "outputs": [
        {
          "internalType": "bool",
          "name": "",
          "type": "bool"
        }
      ],
      "stateMutability": "view",
      "type": "function"
    },
    {
      "inputs": [
        {
          "internalType": "address",
          "name": "",
          "type": "address"
        },
        {
          "internalType": "address",
          "name": "",
          "type": "address"
        },
        {
          "internalType": "uint256[]",
          "name": "",
          "type": "uint256[]"
        },
        {
          "internalType": "uint256[]",
          "name": "",
          "type": "uint256[]"
        },
        {
          "internalType": "bytes",
          "name": "",
          "type": "bytes"
        }
      ],
      "name": "onERC1155BatchReceived",
      "outputs": [
        {
          "internalType": "bytes4",
          "name": "",
          "type": "bytes4"
        }
      ],
      "stateMutability": "pure",
      "type": "function"
    },
    {
      "inputs": [
        {
          "internalType": "address",
          "name": "",
          "type": "address"
        },
        {
          "internalType": "address",
          "name": "",
          "type": "address"
        },
        {
          "internalType": "uint256",
          "name": "",
          "type": "uint256"
        },
        {
          "internalType": "uint256",
          "name": "",
          "type": "uint256"
        },
        {
          "internalType": "bytes",
          "name": "",
          "type": "bytes"
        }
      ],
      "name": "onERC1155Received",
      "outputs": [
        {
          "internalType": "bytes4",
          "name": "",
          "type": "bytes4"
        }
      ],
      "stateMutability": "pure",
      "type": "function"
    },
    {
      "inputs": [
        {
          "internalType": "uint256",
          "name": "newMultiplier",
          "type": "uint256"
        }
      ],
      "name": "rebalanceSand",
      "outputs": [],
      "stateMutability": "nonpayable",
      "type": "function"
    },
    {
      "inputs": [
        {
          "internalType": "address",
          "name": "metaTransactionProcessor",
          "type": "address"
        },
        {
          "internalType": "bool",
          "name": "enabled",
          "type": "bool"
        }
      ],
      "name": "setMetaTransactionProcessor",
      "outputs": [],
      "stateMutability": "nonpayable",
      "type": "function"
    },
    {
      "inputs": [
        {
          "internalType": "address payable",
          "name": "newWallet",
          "type": "address"
        }
      ],
      "name": "setReceivingWallet",
      "outputs": [],
      "stateMutability": "nonpayable",
      "type": "function"
    },
    {
      "inputs": [
        {
          "internalType": "uint256",
          "name": "newMaxCommissionRate",
          "type": "uint256"
        }
      ],
      "name": "updateMaxCommissionRate",
      "outputs": [],
      "stateMutability": "nonpayable",
      "type": "function"
    },
    {
      "inputs": [
        {
          "internalType": "address",
          "name": "newSigningWallet",
          "type": "address"
        }
      ],
      "name": "updateSigningWallet",
      "outputs": [],
      "stateMutability": "nonpayable",
      "type": "function"
    },
    {
      "inputs": [
        {
          "internalType": "address",
          "name": "to",
          "type": "address"
        },
        {
          "internalType": "uint256[]",
          "name": "assetIds",
          "type": "uint256[]"
        },
        {
          "internalType": "uint256[]",
          "name": "values",
          "type": "uint256[]"
        }
      ],
      "name": "withdrawAssets",
      "outputs": [],
      "stateMutability": "nonpayable",
      "type": "function"
    }
  ],
  "transactionHash": "0xb606ff77c438f3890a3e1dea907660699b0687c04de477538c20b11918d7eb9d",
  "args": [
    "0x50f5474724e0Ee42D9a4e711ccFB275809Fd6d4a",
    "0x3845badAde8e6dFF049820680d1F14bD3903a5d0",
    "0x3845badAde8e6dFF049820680d1F14bD3903a5d0",
    "0xEAA0993E1d21c2103e4f172a20D29371FbAF6D06",
    "0x4489590a116618B506F0EfE885432F6A8ED998E9",
    "0x4563e4e371fbb86947da5b6e386918f49f460411ed11e45485f4a6dd49c9b275",
    1627909200,
    "0x3044719d139F866a44c988823513eCB93060bF1b",
    2000,
    "0x0000000000000000000000000000000000000000",
    "0xa342f5D851E866E18ff98F351f2c6637f4478dB5",
    "0x0EB04462D69B1D267d269377E34f60b9De1c8510"
  ],
  "linkedData": [
    {
      "x": 0,
      "y": 40,
      "size": 1,
      "price": "1011000000000000000000",
      "reserved": "",
      "salt": "0x37bca09a6f542c7f3669d979d29d8596a24f64f0307abcde9a59326206490509",
      "assetIds": []
    },
    {
      "x": 0,
      "y": 41,
      "size": 1,
      "price": "1011000000000000000000",
      "reserved": "",
      "salt": "0xca6db27b86c635cfba7d7a50819bfa73e75e7d31666967ef4326e08e140eb1cb",
      "assetIds": []
    },
    {
      "x": 0,
      "y": 42,
      "size": 1,
      "price": "1011000000000000000000",
      "reserved": "",
      "salt": "0xad18276fe3b25049d39d25dff3ee5bea03018acb613eefbd48da04231d7aa575",
      "assetIds": []
    },
    {
      "x": 0,
      "y": 43,
      "size": 1,
      "price": "1011000000000000000000",
      "reserved": "",
      "salt": "0x2652884f7e19c8ff6ca5ff95eff86e436c3aa14c4b119e367b9e886843e85f55",
      "assetIds": []
    },
    {
      "x": 0,
      "y": 44,
      "size": 1,
      "price": "1011000000000000000000",
      "reserved": "",
      "salt": "0x2b8fcb411ca65d16468ef548fc6d17dee7dc37261103a86ed73be9f971acbeae",
      "assetIds": []
    },
    {
      "x": 0,
      "y": 45,
      "size": 1,
      "price": "1011000000000000000000",
      "reserved": "",
      "salt": "0x0c06c63973093e7bab0f26c0515a2489dbd0f88c236b2dcf72aabb20ae3b6e0d",
      "assetIds": []
    },
    {
      "x": 0,
      "y": 46,
      "size": 1,
      "price": "1011000000000000000000",
      "reserved": "",
      "salt": "0xe7ac07a5baff44fe3f0997adabb22a5900bcf9426794a5b1c336aab784832175",
      "assetIds": []
    },
    {
      "x": 0,
      "y": 47,
      "size": 1,
      "price": "1011000000000000000000",
      "reserved": "",
      "salt": "0xb6bcaeac748c3f7aee235fc20569866f58a44d3e22ec99d3cf393a3df34b5c5f",
      "assetIds": []
    },
    {
      "x": 0,
      "y": 48,
      "size": 1,
      "price": "1011000000000000000000",
      "reserved": "0x7a9fe22691c811ea339d9b73150e6911a5343dca",
      "salt": "0xecdcfaded7f398841f6ac3099d63aaa4016fb69c5c8193b914c4714b86be7fac",
      "assetIds": []
    },
    {
      "x": 0,
      "y": 49,
      "size": 1,
      "price": "1011000000000000000000",
      "reserved": "",
      "salt": "0xc77f949da8284a6e02c1e11f601dca66e2e5c110e97f487a61e086b00e5925ef",
      "assetIds": []
    },
    {
      "x": 0,
      "y": 50,
      "size": 1,
      "price": "1011000000000000000000",
      "reserved": "",
      "salt": "0xc66c6b806e0e0779b47623375e5054db52e8fa3f14076b201303594e674eac9c",
      "assetIds": []
    },
    {
      "x": 0,
      "y": 51,
      "size": 1,
      "price": "1011000000000000000000",
      "reserved": "",
      "salt": "0x2100d825d3ac196ae3a0a682dbe494cfeaa32b54ebbd72956c5c3cfb2105c2fa",
      "assetIds": []
    },
    {
      "x": 0,
      "y": 52,
      "size": 1,
      "price": "1011000000000000000000",
      "reserved": "",
      "salt": "0x6a082dff4175ef4091fb104b4d8e42b690dbc49ae5174d2d6a6852ce42063e24",
      "assetIds": []
    },
    {
      "x": 0,
      "y": 53,
      "size": 1,
      "price": "1011000000000000000000",
      "reserved": "0x7a9fe22691c811ea339d9b73150e6911a5343dca",
      "salt": "0xd545a61f1e8d026ce30ecc89662c5500eae39bc0d7fc7f823cd7faa7fb1878ac",
      "assetIds": []
    },
    {
      "x": 0,
      "y": 54,
      "size": 1,
      "price": "1011000000000000000000",
      "reserved": "",
      "salt": "0x34b0876340575ff1d1a954533328f8829880b3e81a0191db97e6066d9329bd98",
      "assetIds": []
    },
    {
      "x": 0,
      "y": 55,
      "size": 1,
      "price": "1011000000000000000000",
      "reserved": "",
      "salt": "0x4ff40d47d8f445213fc1527d0564c44c41efd8f72ac1421c26fd8d6d546eaa7e",
      "assetIds": []
    },
    {
      "x": 0,
      "y": 56,
      "size": 1,
      "price": "1011000000000000000000",
      "reserved": "",
      "salt": "0xb605411ad51b7b751db35039abbace747324ddc7a77d3aaaa95439b575d6a5d4",
      "assetIds": []
    },
    {
      "x": 0,
      "y": 57,
      "size": 1,
      "price": "1011000000000000000000",
      "reserved": "",
      "salt": "0x2acae4d0f12a274c8c6818bba17f14ed418bf81e0f2b5a770717af698725d1f4",
      "assetIds": []
    },
    {
      "x": 0,
      "y": 58,
      "size": 1,
      "price": "1011000000000000000000",
      "reserved": "",
      "salt": "0xd3d3b88bc1f09f2d3e7910dc5a8c5671e0ddf4dc4ba8d7cb45d21ed4ef00774a",
      "assetIds": []
    },
    {
      "x": 0,
      "y": 59,
      "size": 1,
      "price": "1011000000000000000000",
      "reserved": "",
      "salt": "0x3bd6302b5759c8ddb9d3b232cf11329c0e4e5ea4c28f26b96228ff6213d60151",
      "assetIds": []
    },
    {
      "x": 0,
      "y": 66,
      "size": 1,
      "price": "1011000000000000000000",
      "reserved": "0x7a9fe22691c811ea339d9b73150e6911a5343dca",
      "salt": "0x38e00d409a07aa278b55f1b65385686e16a05bbfac9367e138f0e40d0da0304b",
      "assetIds": []
    },
    {
      "x": 0,
      "y": 67,
      "size": 1,
      "price": "1011000000000000000000",
      "reserved": "",
      "salt": "0x3adb2cb2691f52df8f33ef47ed7103e6aec50b89e3230d796b6b040b562b865b",
      "assetIds": []
    },
    {
      "x": 0,
      "y": 68,
      "size": 1,
      "price": "1011000000000000000000",
      "reserved": "",
      "salt": "0xf08bbad6646646c8d83f9019d442da323c51337e1306ae0a59b66dcc294144d7",
      "assetIds": []
    },
    {
      "x": 0,
      "y": 69,
      "size": 1,
      "price": "1011000000000000000000",
      "reserved": "0x7a9fe22691c811ea339d9b73150e6911a5343dca",
      "salt": "0xbb743ad541e412d981077eec3799cf033b9abfafaea5963e6261cab4eb3d2d5b",
      "assetIds": []
    },
    {
      "x": 0,
      "y": 70,
      "size": 1,
      "price": "1011000000000000000000",
      "reserved": "",
      "salt": "0xb173c238234573c2f938425c7ce52d6b5b729dec80d9efbd77610a716d4d65b1",
      "assetIds": []
    },
    {
      "x": 0,
      "y": 71,
      "size": 1,
      "price": "1011000000000000000000",
      "reserved": "",
      "salt": "0x197a301ed1912efcb4311d6753dc104be2654427d91a3a9f331fbd1245fc037c",
      "assetIds": []
    },
    {
      "x": 0,
      "y": 90,
      "size": 1,
      "price": "1011000000000000000000",
      "reserved": "",
      "salt": "0x529dc91af4135fe530c5b403f820ae841399501a01353318c12adc0f7ffeabeb",
      "assetIds": []
    },
    {
      "x": 0,
      "y": 91,
      "size": 1,
      "price": "1011000000000000000000",
      "reserved": "",
      "salt": "0x682569bc8dfeeb2c10dc9c14a1e7ccfe932d935826cd82d0c415610932307c27",
      "assetIds": []
    },
    {
      "x": 0,
      "y": 92,
      "size": 1,
      "price": "1011000000000000000000",
      "reserved": "0x7a9fe22691c811ea339d9b73150e6911a5343dca",
      "salt": "0x1581e12cdb992bf7ca1fbdea395a42a7756803f92992619ee09d608dd819021b",
      "assetIds": []
    },
    {
      "x": 0,
      "y": 93,
      "size": 1,
      "price": "1011000000000000000000",
      "reserved": "",
      "salt": "0x853f28c308c1202710e619a988e9b268891f0582185acfdb3905ae024e573686",
      "assetIds": []
    },
    {
      "x": 0,
      "y": 94,
      "size": 1,
      "price": "1011000000000000000000",
      "reserved": "",
      "salt": "0x730d70c6f0137eba51ba6cb848820cbc83eb931c0cfa2834dfd4aae7254e007e",
      "assetIds": []
    },
    {
      "x": 0,
      "y": 95,
      "size": 1,
      "price": "1011000000000000000000",
      "reserved": "",
      "salt": "0x5ecfaa221bfef8df6fe3504d9fcddf530f38f014ac19b9068fa87f01b673ebb6",
      "assetIds": []
    },
    {
      "x": 1,
      "y": 40,
      "size": 1,
      "price": "1011000000000000000000",
      "reserved": "",
      "salt": "0x294c0845fed2f6d4f0606d50004bf0e00475fa8872de3abc14ff99bad7355c89",
      "assetIds": []
    },
    {
      "x": 1,
      "y": 41,
      "size": 1,
      "price": "1011000000000000000000",
      "reserved": "",
      "salt": "0x1c0ce283314686d8240331b2c4e0706f1fe5f6408162ffb1da0927f90a40e02e",
      "assetIds": []
    },
    {
      "x": 1,
      "y": 42,
      "size": 1,
      "price": "1011000000000000000000",
      "reserved": "",
      "salt": "0x6f06042f195173dca1cf655a511c16d7e45c50d5bcf23de923e21c0a3e6a7dd7",
      "assetIds": []
    },
    {
      "x": 1,
      "y": 43,
      "size": 1,
      "price": "1011000000000000000000",
      "reserved": "",
      "salt": "0x8aa5f7a365256fb569d4ffc1d07507dcdee17b5571eea095693080fe7d682876",
      "assetIds": []
    },
    {
      "x": 1,
      "y": 44,
      "size": 1,
      "price": "1011000000000000000000",
      "reserved": "",
      "salt": "0x0ebf8f15d2a33b3d09a26d06744504383cda5fce5e4a9c5b4d8dd2e883da8e09",
      "assetIds": []
    },
    {
      "x": 1,
      "y": 45,
      "size": 1,
      "price": "1011000000000000000000",
      "reserved": "",
      "salt": "0xf30d8146b8e0d8be745dc2d67e8765459f46f646618eca0d87c763e6444a115f",
      "assetIds": []
    },
    {
      "x": 1,
      "y": 46,
      "size": 1,
      "price": "1011000000000000000000",
      "reserved": "",
      "salt": "0xb1b2637792a35311c7cedff70c3c561e3bd55cb0657941095c94b9a8def3f839",
      "assetIds": []
    },
    {
      "x": 1,
      "y": 47,
      "size": 1,
      "price": "1011000000000000000000",
      "reserved": "",
      "salt": "0x7933a10403772ebfe7d79fa1a09e4dfe2f7d6a8fde25c35cbd6b2dfafaf2ba49",
      "assetIds": []
    },
    {
      "x": 1,
      "y": 48,
      "size": 1,
      "price": "1011000000000000000000",
      "reserved": "",
      "salt": "0xd1a1af3f70df5ba4da4a5d0b405603afd47e56a10ad73a535c48c1a4b8add325",
      "assetIds": []
    },
    {
      "x": 1,
      "y": 49,
      "size": 1,
      "price": "1011000000000000000000",
      "reserved": "",
      "salt": "0xa3af0771b2a6ca47f5da6b271f3996d28481c9a2d0002ad91de910b130985e17",
      "assetIds": []
    },
    {
      "x": 1,
      "y": 50,
      "size": 1,
      "price": "1011000000000000000000",
      "reserved": "",
      "salt": "0x4ecfdd6ca0529fbbb418b67d5ea2f5f0ab34e9bc510b618c09ba6ea1076e12cf",
      "assetIds": []
    },
    {
      "x": 1,
      "y": 51,
      "size": 1,
      "price": "1011000000000000000000",
      "reserved": "0x7a9fe22691c811ea339d9b73150e6911a5343dca",
      "salt": "0x91f0c5f04513bd7d50811f8f17fdf199889db78ce627e00959750235e321beb1",
      "assetIds": []
    },
    {
      "x": 1,
      "y": 52,
      "size": 1,
      "price": "1011000000000000000000",
      "reserved": "",
      "salt": "0x78cc942c70ee600acaf81804290e3ef0f7da5c1bc3ed2c22a300d54dec646d06",
      "assetIds": []
    },
    {
      "x": 1,
      "y": 53,
      "size": 1,
      "price": "1011000000000000000000",
      "reserved": "",
      "salt": "0x76b33d49b06a8aab61d5151d5f621cdda22e4d721c4a15e4250c9e75df6af976",
      "assetIds": []
    },
    {
      "x": 1,
      "y": 54,
      "size": 1,
      "price": "1011000000000000000000",
      "reserved": "",
      "salt": "0x2ceee1a9e96fdfa5e589a87b043c785b306a6a30543f1175e33fe579dcd8841e",
      "assetIds": []
    },
    {
      "x": 1,
      "y": 55,
      "size": 1,
      "price": "1011000000000000000000",
      "reserved": "0x7a9fe22691c811ea339d9b73150e6911a5343dca",
      "salt": "0xbd8feb2ba066090e0b41a06110a469f3015b21112a7bbc1781d06db799b64500",
      "assetIds": []
    },
    {
      "x": 1,
      "y": 56,
      "size": 1,
      "price": "1011000000000000000000",
      "reserved": "",
      "salt": "0xb64c3cd8def078d1f5a861dba3b19325360652e9e0110192c0198f2a0a6e6b5c",
      "assetIds": []
    },
    {
      "x": 1,
      "y": 57,
      "size": 1,
      "price": "1011000000000000000000",
      "reserved": "",
      "salt": "0x7ec4a3ac8a514d47737fa854112f18a20e1c2efc2014ac05f31bf807948b5c31",
      "assetIds": []
    },
    {
      "x": 1,
      "y": 58,
      "size": 1,
      "price": "1011000000000000000000",
      "reserved": "0x7a9fe22691c811ea339d9b73150e6911a5343dca",
      "salt": "0xf65a1abbfe21ca0959a7ac9a1c39dccf58093341ea69859523242dd0b251c7a4",
      "assetIds": []
    },
    {
      "x": 1,
      "y": 59,
      "size": 1,
      "price": "1011000000000000000000",
      "reserved": "",
      "salt": "0xb9a6ab2d396edda8bb004848a9415e3c345313dc7432b51fe392cbb1fe0a637c",
      "assetIds": []
    },
    {
      "x": 1,
      "y": 66,
      "size": 1,
      "price": "1011000000000000000000",
      "reserved": "",
      "salt": "0x3996094a8a14238bd4c705caf65480662b48cca72bc395246184241ba6c79695",
      "assetIds": []
    },
    {
      "x": 1,
      "y": 67,
      "size": 1,
      "price": "1011000000000000000000",
      "reserved": "",
      "salt": "0x48502da1781937a416d4fa61b50ea672b78450127ef19f54fffcbf5de5451858",
      "assetIds": []
    },
    {
      "x": 1,
      "y": 68,
      "size": 1,
      "price": "1011000000000000000000",
      "reserved": "",
      "salt": "0xd32bf7ecf874c8db24f7b7e6d8175fd835031f400025f30101b27aa1ffb70d45",
      "assetIds": []
    },
    {
      "x": 1,
      "y": 69,
      "size": 1,
      "price": "1011000000000000000000",
      "reserved": "",
      "salt": "0xa75c8923516b5bcd90f3228d9d8da780bd3fe98345dab4c76fedf9c41f4cf645",
      "assetIds": []
    },
    {
      "x": 1,
      "y": 70,
      "size": 1,
      "price": "1011000000000000000000",
      "reserved": "",
      "salt": "0xb54abaa42bade8c5471af382663fd75ab753df17f57a2cbd96404ae43318f0c3",
      "assetIds": []
    },
    {
      "x": 1,
      "y": 71,
      "size": 1,
      "price": "1011000000000000000000",
      "reserved": "",
      "salt": "0x1d75ba5789bf30b639d545773f0ee40136c7f786a7383fd4e619b05211d4f7a2",
      "assetIds": []
    },
    {
      "x": 1,
      "y": 90,
      "size": 1,
      "price": "1011000000000000000000",
      "reserved": "0x7a9fe22691c811ea339d9b73150e6911a5343dca",
      "salt": "0x73d389887ca303457e6cf6261ca7d7d8579cc406eb774e6e9e5e003e9f442e5f",
      "assetIds": []
    },
    {
      "x": 1,
      "y": 91,
      "size": 1,
      "price": "1011000000000000000000",
      "reserved": "",
      "salt": "0x2a162cbf54166343248326e9fb2cc582feb14f2c7119389006acf245cafe9eb2",
      "assetIds": []
    },
    {
      "x": 1,
      "y": 92,
      "size": 1,
      "price": "1011000000000000000000",
      "reserved": "",
      "salt": "0x4cac893eca61e24df8a161e4b94092789d6ca3c317fb84629f1d87e190044dd8",
      "assetIds": []
    },
    {
      "x": 1,
      "y": 93,
      "size": 1,
      "price": "1011000000000000000000",
      "reserved": "",
      "salt": "0x605cbd41ebb841b57dac7bde0f5425fccf08d191d0f53c11d967d13ec11f0abf",
      "assetIds": []
    },
    {
      "x": 1,
      "y": 94,
      "size": 1,
      "price": "1011000000000000000000",
      "reserved": "",
      "salt": "0x95744327835717d49c19eaff37052abe907961b7e283ef90dd77ce2d32e54008",
      "assetIds": []
    },
    {
      "x": 1,
      "y": 95,
      "size": 1,
      "price": "1011000000000000000000",
      "reserved": "",
      "salt": "0xcf09fc4a80f9ed3b383c0748d118a01c85195333d82494021110acae4a7b9900",
      "assetIds": []
    },
    {
      "x": 2,
      "y": 40,
      "size": 1,
      "price": "1011000000000000000000",
      "reserved": "",
      "salt": "0x793ded75274b187802af48581873ec2baf27114df35508ada831189f23676fef",
      "assetIds": []
    },
    {
      "x": 2,
      "y": 41,
      "size": 1,
      "price": "1011000000000000000000",
      "reserved": "",
      "salt": "0xffc7a7c38958c7d120da3115c38b4496109704789d41d459802513350c88eb6f",
      "assetIds": []
    },
    {
      "x": 2,
      "y": 42,
      "size": 1,
      "price": "1011000000000000000000",
      "reserved": "0x7a9fe22691c811ea339d9b73150e6911a5343dca",
      "salt": "0x0a14fb20237d3dccb948784f731795778efd526a2bb02b4bac0969d4fc4a7a39",
      "assetIds": []
    },
    {
      "x": 2,
      "y": 43,
      "size": 1,
      "price": "1011000000000000000000",
      "reserved": "",
      "salt": "0x862361669850b01b5b9332589ff478d893fc4dd570c35ce1eb3691653e3a8ca7",
      "assetIds": []
    },
    {
      "x": 2,
      "y": 44,
      "size": 1,
      "price": "1011000000000000000000",
      "reserved": "",
      "salt": "0x9df93f47920e82dcd81780017ca7de5328616cdf17ce7dbf13119d6c651fdb9e",
      "assetIds": []
    },
    {
      "x": 2,
      "y": 45,
      "size": 1,
      "price": "1011000000000000000000",
      "reserved": "0x7a9fe22691c811ea339d9b73150e6911a5343dca",
      "salt": "0xf3968ce621b25d22805d1a375e3434fe2dc6160c81880af7188b52d2cee3e211",
      "assetIds": []
    },
    {
      "x": 2,
      "y": 46,
      "size": 1,
      "price": "1011000000000000000000",
      "reserved": "",
      "salt": "0x1738cd4b82f5e56a8cc402da75441328d01fd4d5ac64890da4e6c46efc1ca3fd",
      "assetIds": []
    },
    {
      "x": 2,
      "y": 47,
      "size": 1,
      "price": "1011000000000000000000",
      "reserved": "",
      "salt": "0x0b5cb6031e31e8c7d54808aa3fef4761226b2b90a979cee431ca0979cf98f4b9",
      "assetIds": []
    },
    {
      "x": 2,
      "y": 48,
      "size": 1,
      "price": "1011000000000000000000",
      "reserved": "",
      "salt": "0x2128a96112ef18947d5aff97e538cfd4188fa26932a418ddc5f904f815c91212",
      "assetIds": []
    },
    {
      "x": 2,
      "y": 49,
      "size": 1,
      "price": "1011000000000000000000",
      "reserved": "0x7a9fe22691c811ea339d9b73150e6911a5343dca",
      "salt": "0x1ad26f9913ae8d804bc0908b960fab480d5749a41ccdf99d926ddc23db52002c",
      "assetIds": []
    },
    {
      "x": 2,
      "y": 50,
      "size": 1,
      "price": "1011000000000000000000",
      "reserved": "",
      "salt": "0x505b62582d8185d9ccebff8f5b73c8293c43218bf5620334b010e4ebd5192d2f",
      "assetIds": []
    },
    {
      "x": 2,
      "y": 51,
      "size": 1,
      "price": "1011000000000000000000",
      "reserved": "",
      "salt": "0xd0c657f5a2477c347bdee06b8c883c806e386e297e546453a1be594fa10569c2",
      "assetIds": []
    },
    {
      "x": 2,
      "y": 52,
      "size": 1,
      "price": "1011000000000000000000",
      "reserved": "",
      "salt": "0xe8160e29aa4c5f3790d57b774a2c8d2856c2a6f5c25a90d01f0a485a8f489f6d",
      "assetIds": []
    },
    {
      "x": 2,
      "y": 53,
      "size": 1,
      "price": "1011000000000000000000",
      "reserved": "",
      "salt": "0xb10f2126fb1bd7ea4aff6ca44d510d5cd08f8bedf5a419d6bae0d92a533dbe5d",
      "assetIds": []
    },
    {
      "x": 2,
      "y": 54,
      "size": 1,
      "price": "1011000000000000000000",
      "reserved": "",
      "salt": "0xa7e7b116fe1c5d1e2c09b3d13886fcadc3bacd97dcf54093ccc889ce457c542c",
      "assetIds": []
    },
    {
      "x": 2,
      "y": 55,
      "size": 1,
      "price": "1011000000000000000000",
      "reserved": "",
      "salt": "0x334d0a060c76cbffdf7ccfb651699bba25ef8e1f1aaa8bb7a17782fb782bc63f",
      "assetIds": []
    },
    {
      "x": 2,
      "y": 56,
      "size": 1,
      "price": "1011000000000000000000",
      "reserved": "",
      "salt": "0xddf071472ca8380e12beefea707708f132aa1f8aaa5833ac297443c57b096be6",
      "assetIds": []
    },
    {
      "x": 2,
      "y": 57,
      "size": 1,
      "price": "1011000000000000000000",
      "reserved": "",
      "salt": "0x46f232aa0bfe73667df9b28eb66a0eed66597aa0d2f3a50a6f5d8f240ecc67b0",
      "assetIds": []
    },
    {
      "x": 2,
      "y": 58,
      "size": 1,
      "price": "1011000000000000000000",
      "reserved": "",
      "salt": "0x6efb0ab9770ab5ab9fd7186c1bfa4fad55c1aa3c6ec4c4b6504035acaaa8a250",
      "assetIds": []
    },
    {
      "x": 2,
      "y": 59,
      "size": 1,
      "price": "1011000000000000000000",
      "reserved": "",
      "salt": "0x881e00c7442d7a0b4534452bf48944a230e4608c311ced58c7cdf461bfdbcaa3",
      "assetIds": []
    },
    {
      "x": 2,
      "y": 66,
      "size": 1,
      "price": "1011000000000000000000",
      "reserved": "",
      "salt": "0x96c815d2d4da022a4cfdbd0b82ae640959bed82125b5fa52e99700275a107c49",
      "assetIds": []
    },
    {
      "x": 2,
      "y": 67,
      "size": 1,
      "price": "1011000000000000000000",
      "reserved": "",
      "salt": "0xa26080e0972fc260979f2c3b4e45e028f61de1a6c2186e082eebcdb55b734edb",
      "assetIds": []
    },
    {
      "x": 2,
      "y": 68,
      "size": 1,
      "price": "1011000000000000000000",
      "reserved": "",
      "salt": "0x253fed29208f4d79e9ffe622475214a588548a5b0ceb6cee6ac6b5d6324b18ff",
      "assetIds": []
    },
    {
      "x": 2,
      "y": 69,
      "size": 1,
      "price": "1011000000000000000000",
      "reserved": "",
      "salt": "0x61a9ca0352fd71630ae284c0888cd58f47dca12769d13d38e0e3b2d37da472d9",
      "assetIds": []
    },
    {
      "x": 2,
      "y": 70,
      "size": 1,
      "price": "1011000000000000000000",
      "reserved": "",
      "salt": "0xf10115483a74c03ecba39608d2de9f4379d7734cd08556c1ec2f553a521e2d73",
      "assetIds": []
    },
    {
      "x": 2,
      "y": 71,
      "size": 1,
      "price": "1011000000000000000000",
      "reserved": "",
      "salt": "0xd409070ebee1dcd9e2c1509b40290e97d55aadbc121826328a1f05cfdaddb98e",
      "assetIds": []
    },
    {
      "x": 2,
      "y": 90,
      "size": 1,
      "price": "1011000000000000000000",
      "reserved": "",
      "salt": "0x3694aa8a47c969c146578d689cdcb6288a4e1c22cb3b9ad135ee5318a1b467c4",
      "assetIds": []
    },
    {
      "x": 2,
      "y": 91,
      "size": 1,
      "price": "1011000000000000000000",
      "reserved": "",
      "salt": "0xc83ad8fef5974758c0fe3f2258ba5097707c23aafeb7f286756be37c2be926a2",
      "assetIds": []
    },
    {
      "x": 2,
      "y": 92,
      "size": 1,
      "price": "1011000000000000000000",
      "reserved": "0x7a9fe22691c811ea339d9b73150e6911a5343dca",
      "salt": "0xa7f471a5cbf242b2b122b95c9dcf1accf9b2e957a4cf1907d924e6b29d2ff540",
      "assetIds": []
    },
    {
      "x": 2,
      "y": 93,
      "size": 1,
      "price": "1011000000000000000000",
      "reserved": "",
      "salt": "0x1185f216888d229a49cef92651df5e592d0a73b6015e87190c742d1889452fa1",
      "assetIds": []
    },
    {
      "x": 2,
      "y": 94,
      "size": 1,
      "price": "1011000000000000000000",
      "reserved": "",
      "salt": "0x77de9fad7d7220a1b6b8d9e5332c8971eaafb6515c26ee15196c957a6af0f36f",
      "assetIds": []
    },
    {
      "x": 2,
      "y": 95,
      "size": 1,
      "price": "1011000000000000000000",
      "reserved": "",
      "salt": "0x8291bac136fddd8a4ec84109b153654ae77e8d69b2614932a3f3cca76a01f84e",
      "assetIds": []
    },
    {
      "x": 3,
      "y": 40,
      "size": 1,
      "price": "1011000000000000000000",
      "reserved": "",
      "salt": "0x7be6468ca30a7f0a047b3d961875c25f3a475a034fa7e1deaceaccaf92528a54",
      "assetIds": []
    },
    {
      "x": 3,
      "y": 41,
      "size": 1,
      "price": "1011000000000000000000",
      "reserved": "0x7a9fe22691c811ea339d9b73150e6911a5343dca",
      "salt": "0x8257ca01e9c1acd94d4b413a825d843abc9e09cc8b2bcfdb79d55f4f06d6ea9a",
      "assetIds": []
    },
    {
      "x": 3,
      "y": 42,
      "size": 1,
      "price": "1011000000000000000000",
      "reserved": "",
      "salt": "0x35188be0821f82124602aae2d2a78c0cd3d87f3fb62a1b7afbf341ab257979c6",
      "assetIds": []
    },
    {
      "x": 3,
      "y": 43,
      "size": 1,
      "price": "1011000000000000000000",
      "reserved": "0x7a9fe22691c811ea339d9b73150e6911a5343dca",
      "salt": "0xf685fdd1e943629238a30caaa01110956b8bad5c3aade64040cd846ecda24dc1",
      "assetIds": []
    },
    {
      "x": 3,
      "y": 44,
      "size": 1,
      "price": "1011000000000000000000",
      "reserved": "",
      "salt": "0xa87206555171db0d2c04d544c04af5bfaaba17857ffffc56dc7591252422c492",
      "assetIds": []
    },
    {
      "x": 3,
      "y": 45,
      "size": 1,
      "price": "1011000000000000000000",
      "reserved": "",
      "salt": "0xc79c5fd087a7b241d9823e322026181240fa2cef2a9b02181e5fc41ae1491f0a",
      "assetIds": []
    },
    {
      "x": 3,
      "y": 46,
      "size": 1,
      "price": "1011000000000000000000",
      "reserved": "",
      "salt": "0xc7c41226b98bdccc2f024b6c324de8b487bb5fc3f3469c0e4f7a9d1e07c71e43",
      "assetIds": []
    },
    {
      "x": 3,
      "y": 47,
      "size": 1,
      "price": "1011000000000000000000",
      "reserved": "0x7a9fe22691c811ea339d9b73150e6911a5343dca",
      "salt": "0xa97b3b8bcc78e4db3d6c9a26672f7f20beeadd8057f7db55fb451035751478ce",
      "assetIds": []
    },
    {
      "x": 3,
      "y": 48,
      "size": 1,
      "price": "1011000000000000000000",
      "reserved": "",
      "salt": "0xfc3f988e4e342194346ec17bf12571e8c76342679ffa7b00037fc3e60fccde50",
      "assetIds": []
    },
    {
      "x": 3,
      "y": 49,
      "size": 1,
      "price": "1011000000000000000000",
      "reserved": "",
      "salt": "0xb8041410bb5faf9122877cb3d9d3c78a278184171d7bfbac3d8c2736ebb53e51",
      "assetIds": []
    },
    {
      "x": 3,
      "y": 50,
      "size": 1,
      "price": "1011000000000000000000",
      "reserved": "",
      "salt": "0x386099a27474fc68124804dc8f6686c51fae3a9d23cb83585faae46b947e9895",
      "assetIds": []
    },
    {
      "x": 3,
      "y": 51,
      "size": 1,
      "price": "1011000000000000000000",
      "reserved": "",
      "salt": "0xab7041c1b9baaf67cd3f21c00504eaa970f544bc1348cdacabf1772ad1305183",
      "assetIds": []
    },
    {
      "x": 3,
      "y": 52,
      "size": 1,
      "price": "1011000000000000000000",
      "reserved": "0x7a9fe22691c811ea339d9b73150e6911a5343dca",
      "salt": "0xde2a70e0c25978f9e7fa194150f4cbf6e5754594755ed5b43e9069f26a2d9af1",
      "assetIds": []
    },
    {
      "x": 3,
      "y": 53,
      "size": 1,
      "price": "1011000000000000000000",
      "reserved": "",
      "salt": "0x89a1cf6ca08d7932fd739bb0d062dc37b19c631bb63a7a4ed1e800e3f19b9b41",
      "assetIds": []
    },
    {
      "x": 3,
      "y": 57,
      "size": 1,
      "price": "1011000000000000000000",
      "reserved": "",
      "salt": "0x072e03d59bdf82d0a5b48e2c37cd9a1a8d2f01aa3cefd9379e1e31b221451b15",
      "assetIds": []
    },
    {
      "x": 3,
      "y": 58,
      "size": 1,
      "price": "1011000000000000000000",
      "reserved": "",
      "salt": "0x4b596f3aa02c10e6f606ab60b8672f876e8f04a77cbdeaf86aebc708d0560473",
      "assetIds": []
    },
    {
      "x": 3,
      "y": 59,
      "size": 1,
      "price": "1011000000000000000000",
      "reserved": "0x7a9fe22691c811ea339d9b73150e6911a5343dca",
      "salt": "0x7f3fa894d6c3af474c1240be5c985ec1049df08abae3ef9d5d9af33ee6290ef3",
      "assetIds": []
    },
    {
      "x": 3,
      "y": 66,
      "size": 1,
      "price": "1011000000000000000000",
      "reserved": "",
      "salt": "0x184bd413155c5001dc17fc84f7ead6430b43fdac137d191db9917cd2f9feb77b",
      "assetIds": []
    },
    {
      "x": 3,
      "y": 67,
      "size": 1,
      "price": "1011000000000000000000",
      "reserved": "0x7a9fe22691c811ea339d9b73150e6911a5343dca",
      "salt": "0xdf24b54a62e3404f9b74137981276db1edef504a46d5b87ab5f092e0b7f3ff43",
      "assetIds": []
    },
    {
      "x": 3,
      "y": 68,
      "size": 1,
      "price": "1011000000000000000000",
      "reserved": "",
      "salt": "0x40a26b4d8136841834f805fa8cff6f5695eca104508b4b9cc28bd17c95ebda93",
      "assetIds": []
    },
    {
      "x": 3,
      "y": 69,
      "size": 1,
      "price": "1011000000000000000000",
      "reserved": "",
      "salt": "0x29e1ff27aba9d536aef6cd04465df25ef30874c667eea209ea2e87247f51020f",
      "assetIds": []
    },
    {
      "x": 3,
      "y": 70,
      "size": 1,
      "price": "1011000000000000000000",
      "reserved": "0x7a9fe22691c811ea339d9b73150e6911a5343dca",
      "salt": "0xa8a1b4d6f6433fcc55513ddaa64170a7467841ff36367ce768579a46ce907f42",
      "assetIds": []
    },
    {
      "x": 3,
      "y": 71,
      "size": 1,
      "price": "1011000000000000000000",
      "reserved": "",
      "salt": "0x3fd2d704c455973e9576bd4d9f7201170bb8489e0944655f115d009e2139f699",
      "assetIds": []
    },
    {
      "x": 3,
      "y": 90,
      "size": 1,
      "price": "1011000000000000000000",
      "reserved": "",
      "salt": "0xd7c391b70c58539ec8d4912dce32258d0e471cb5ac8db05fde53edda7dac7c28",
      "assetIds": []
    },
    {
      "x": 3,
      "y": 91,
      "size": 1,
      "price": "1011000000000000000000",
      "reserved": "",
      "salt": "0x1e53e6013e281605db348845dd8e50dc545e6eebf0da17557de6e0aed6192949",
      "assetIds": []
    },
    {
      "x": 3,
      "y": 92,
      "size": 1,
      "price": "1011000000000000000000",
      "reserved": "",
      "salt": "0xf9bdd27dc185e121f761a4db6165976e03f13e02f09b9c8005665083744b681e",
      "assetIds": []
    },
    {
      "x": 3,
      "y": 93,
      "size": 1,
      "price": "1011000000000000000000",
      "reserved": "",
      "salt": "0xeb8032295d05826aa8f50bbc4de4222c6a7c9241ef4af482b8be8330656d16c6",
      "assetIds": []
    },
    {
      "x": 3,
      "y": 94,
      "size": 1,
      "price": "1011000000000000000000",
      "reserved": "",
      "salt": "0x9d7e912e50b1866a2c271a1d08dca7241bb55bce6567453acbb42e692b3a111b",
      "assetIds": []
    },
    {
      "x": 3,
      "y": 95,
      "size": 1,
      "price": "1011000000000000000000",
      "reserved": "0x7a9fe22691c811ea339d9b73150e6911a5343dca",
      "salt": "0x7eff8e4be0f993025c26ade22956de75c4a8bf9498d9b6f302541869be62468e",
      "assetIds": []
    },
    {
      "x": 4,
      "y": 40,
      "size": 1,
      "price": "1011000000000000000000",
      "reserved": "",
      "salt": "0x43e3bd04461f1b3fb5e6a4d38743a413c404ed11d06f96799249be888ea1d6b3",
      "assetIds": []
    },
    {
      "x": 4,
      "y": 41,
      "size": 1,
      "price": "1011000000000000000000",
      "reserved": "0x7a9fe22691c811ea339d9b73150e6911a5343dca",
      "salt": "0x6ebb45c269034b194af698482c868c7138b2c41be6ade7fb357d4baccaea07f2",
      "assetIds": []
    },
    {
      "x": 4,
      "y": 42,
      "size": 1,
      "price": "1011000000000000000000",
      "reserved": "",
      "salt": "0xc8ed830cf6712eabaab102feb02ff7a86b832dae6e34877ff658604146d8b3bf",
      "assetIds": []
    },
    {
      "x": 4,
      "y": 43,
      "size": 1,
      "price": "1011000000000000000000",
      "reserved": "",
      "salt": "0x127f068fb7ca2ef48c4e4cc1ae0088ddc7b3937b0d677637b1a7ad34825f6c25",
      "assetIds": []
    },
    {
      "x": 4,
      "y": 44,
      "size": 1,
      "price": "1011000000000000000000",
      "reserved": "",
      "salt": "0x7ad80110f36dea18ab30fa4185ade853f02b4dc1f4f44e0b37f652886d3cc905",
      "assetIds": []
    },
    {
      "x": 4,
      "y": 45,
      "size": 1,
      "price": "1011000000000000000000",
      "reserved": "",
      "salt": "0x4300f32ebbe3133dd6a495e43708b2260a4d19ef6753c083097fe1af4d945c8c",
      "assetIds": []
    },
    {
      "x": 4,
      "y": 46,
      "size": 1,
      "price": "1011000000000000000000",
      "reserved": "",
      "salt": "0xbfbee8cdd5a52d09f148095487b01721ab1079728c156db2684747d0ffa73210",
      "assetIds": []
    },
    {
      "x": 4,
      "y": 47,
      "size": 1,
      "price": "1011000000000000000000",
      "reserved": "",
      "salt": "0x05526996e1588aa2d33d53f3b175c7cd7cb8b5f01383056e5243a0f35ec7f37c",
      "assetIds": []
    },
    {
      "x": 4,
      "y": 48,
      "size": 1,
      "price": "1011000000000000000000",
      "reserved": "",
      "salt": "0x7774972a3a13799f7038e22b30c2853baf8ca934f3eebaeac2f070efcc0bc71d",
      "assetIds": []
    },
    {
      "x": 4,
      "y": 49,
      "size": 1,
      "price": "1011000000000000000000",
      "reserved": "",
      "salt": "0xd5285284268728f117683e0fa9deafdcec2555cfa01631444db3b4725a25779a",
      "assetIds": []
    },
    {
      "x": 4,
      "y": 50,
      "size": 1,
      "price": "1011000000000000000000",
      "reserved": "",
      "salt": "0x07c48468c1644eb70c15deca300d18a3ad6884296b19b1ab7ff356d8f482253c",
      "assetIds": []
    },
    {
      "x": 4,
      "y": 51,
      "size": 1,
      "price": "1011000000000000000000",
      "reserved": "",
      "salt": "0xb331cdad4a9d1221f78ed3881c197cad1dfcad5bad213d480d9ff90a2fa389c5",
      "assetIds": []
    },
    {
      "x": 4,
      "y": 52,
      "size": 1,
      "price": "1011000000000000000000",
      "reserved": "",
      "salt": "0x6d6bbe768bd6c815419a4931b22bdc2160b8fb7e6ee7a2091caac5823546dd74",
      "assetIds": []
    },
    {
      "x": 4,
      "y": 53,
      "size": 1,
      "price": "1011000000000000000000",
      "reserved": "",
      "salt": "0xdd9e102c94c90b4d29915c5b207818d6df8aadd1f58e8ca16603c012dca5b6ff",
      "assetIds": []
    },
    {
      "x": 4,
      "y": 57,
      "size": 1,
      "price": "1011000000000000000000",
      "reserved": "",
      "salt": "0x628ac255abf4fef4a1b134ac7646afc2e3f55afe5adf381169a40d754218c57f",
      "assetIds": []
    },
    {
      "x": 4,
      "y": 58,
      "size": 1,
      "price": "1011000000000000000000",
      "reserved": "",
      "salt": "0x6235f869bf69809fda5bf283d60cd87def66ff05dd336a1b3f6835940477d062",
      "assetIds": []
    },
    {
      "x": 4,
      "y": 59,
      "size": 1,
      "price": "1011000000000000000000",
      "reserved": "",
      "salt": "0x6d9792081360f7c5aa337a736b075619ced1e78681e183b472416ee0fc9a6cdb",
      "assetIds": []
    },
    {
      "x": 4,
      "y": 66,
      "size": 1,
      "price": "1011000000000000000000",
      "reserved": "",
      "salt": "0xdf16237b02deebf82a53fb7ffe93ea43d8ada2a4466d29f5bb60978cf558e9dc",
      "assetIds": []
    },
    {
      "x": 4,
      "y": 67,
      "size": 1,
      "price": "1011000000000000000000",
      "reserved": "",
      "salt": "0xc711b33717e57d2b64988df87bd749738267e077cd2c4cb5ba36f4029b46ad7c",
      "assetIds": []
    },
    {
      "x": 4,
      "y": 68,
      "size": 1,
      "price": "1011000000000000000000",
      "reserved": "",
      "salt": "0x85961e03bbc8097a51adb5fbb8a7e6c1e2f0185173c5de9e2c0ae32b4d50af30",
      "assetIds": []
    },
    {
      "x": 4,
      "y": 69,
      "size": 1,
      "price": "1011000000000000000000",
      "reserved": "",
      "salt": "0xb9822e3b5fd7757813115cabc8e8ebdacde801cfe140c387468d5577200e45e1",
      "assetIds": []
    },
    {
      "x": 4,
      "y": 70,
      "size": 1,
      "price": "1011000000000000000000",
      "reserved": "",
      "salt": "0x84ed62c57cb20bb7e064da06a44a22d547f4ae3c598690cd2f80567a50bc4037",
      "assetIds": []
    },
    {
      "x": 4,
      "y": 71,
      "size": 1,
      "price": "1011000000000000000000",
      "reserved": "",
      "salt": "0xf14d7bcefa3c5e54290036c264b72e83895efa7b33a57a1b558ee3101f52de3f",
      "assetIds": []
    },
    {
      "x": 4,
      "y": 90,
      "size": 1,
      "price": "1011000000000000000000",
      "reserved": "",
      "salt": "0x44a0f565a282d5fb10f37c945d316e0f9716482004a067443f6a7e8742777be8",
      "assetIds": []
    },
    {
      "x": 4,
      "y": 91,
      "size": 1,
      "price": "1011000000000000000000",
      "reserved": "",
      "salt": "0xda7520bc55029f7032e9fcfd1deddab4f09d22470250d9dea187a6755488b4f2",
      "assetIds": []
    },
    {
      "x": 4,
      "y": 92,
      "size": 1,
      "price": "1011000000000000000000",
      "reserved": "",
      "salt": "0xc517dfb3cb63c75ca6646db9b123d0eeb13780788c7510dc50ebdbe4822bc8e1",
      "assetIds": []
    },
    {
      "x": 4,
      "y": 93,
      "size": 1,
      "price": "1011000000000000000000",
      "reserved": "",
      "salt": "0x0708aee1e396592774e7dd4f7ad04839982d46bc0840754282f07f9f1c132df0",
      "assetIds": []
    },
    {
      "x": 4,
      "y": 94,
      "size": 1,
      "price": "1011000000000000000000",
      "reserved": "",
      "salt": "0x23388fd6ef5095f2fceef3f431c74cc0d6f4fbb6e7b9fe3d08ddd8f905c697a8",
      "assetIds": []
    },
    {
      "x": 4,
      "y": 95,
      "size": 1,
      "price": "1011000000000000000000",
      "reserved": "",
      "salt": "0x2edd50bf4d3ce07b7cb4d24c392878dfe2cc86d679411fe4c9d115e93c2267fa",
      "assetIds": []
    },
    {
      "x": 5,
      "y": 40,
      "size": 1,
      "price": "1011000000000000000000",
      "reserved": "",
      "salt": "0xc30b13ab6e983de4e5fe031f51e34d7dcc8cd0519b48b81b953094a28a6bc54c",
      "assetIds": []
    },
    {
      "x": 5,
      "y": 41,
      "size": 1,
      "price": "1011000000000000000000",
      "reserved": "",
      "salt": "0xb413e80e34960bf7a9c23074529393e6b27bc6787758171211c3b594ca650ea3",
      "assetIds": []
    },
    {
      "x": 5,
      "y": 42,
      "size": 1,
      "price": "1011000000000000000000",
      "reserved": "",
      "salt": "0x6a02f801e0720f936cd002b5926e773c590231d17a8a807b3c65c3ca3f2ce613",
      "assetIds": []
    },
    {
      "x": 5,
      "y": 43,
      "size": 1,
      "price": "1011000000000000000000",
      "reserved": "",
      "salt": "0x2cedb7fcf9b24c0219d10b53cb6a47ad05b5b5acc8107653b0df9620e47cdda6",
      "assetIds": []
    },
    {
      "x": 5,
      "y": 44,
      "size": 1,
      "price": "1011000000000000000000",
      "reserved": "",
      "salt": "0xce5dd73d71dc1eae8478de765cd650c5905ebee00b529f8d6807cb0dc1183830",
      "assetIds": []
    },
    {
      "x": 5,
      "y": 45,
      "size": 1,
      "price": "1011000000000000000000",
      "reserved": "",
      "salt": "0x41395781fb5e7351527f0145698ec179d51d14d361089421e40477565da58bbb",
      "assetIds": []
    },
    {
      "x": 5,
      "y": 46,
      "size": 1,
      "price": "1011000000000000000000",
      "reserved": "",
      "salt": "0x6dbf6e56650e51c17bd56ead03afb9b4738ea0cdb8ffb43693444763d3ca4184",
      "assetIds": []
    },
    {
      "x": 5,
      "y": 47,
      "size": 1,
      "price": "1011000000000000000000",
      "reserved": "",
      "salt": "0xce8c173a4b60008f6e04d0931c28a4bf85eecf29e233ecc8c577e1a411e0e93c",
      "assetIds": []
    },
    {
      "x": 5,
      "y": 48,
      "size": 1,
      "price": "1011000000000000000000",
      "reserved": "",
      "salt": "0x47cb2c401219a03b9d5915a50c801149ba253df7bf16c7efd4a52a6db53696e2",
      "assetIds": []
    },
    {
      "x": 5,
      "y": 49,
      "size": 1,
      "price": "1011000000000000000000",
      "reserved": "0x7a9fe22691c811ea339d9b73150e6911a5343dca",
      "salt": "0xf5691e6e47387c455313c27f9a90f4f6934fe30b1b59e0e1b471f62b017d4f4e",
      "assetIds": []
    },
    {
      "x": 5,
      "y": 50,
      "size": 1,
      "price": "1011000000000000000000",
      "reserved": "",
      "salt": "0x1be18da423e20e37fafb269fc5f14e451f14b77941a4d55620d9a6adcdf5f46a",
      "assetIds": []
    },
    {
      "x": 5,
      "y": 51,
      "size": 1,
      "price": "1011000000000000000000",
      "reserved": "",
      "salt": "0x3b34116c9334f62da277e97881750c1e539faf41d4ab466904d52d5e1479fdae",
      "assetIds": []
    },
    {
      "x": 5,
      "y": 52,
      "size": 1,
      "price": "1011000000000000000000",
      "reserved": "",
      "salt": "0x629d34f0dcd1ed00d22f9756e600e433d8eb7c6c1080c690605a7c7aef6cdaa8",
      "assetIds": []
    },
    {
      "x": 5,
      "y": 53,
      "size": 1,
      "price": "1011000000000000000000",
      "reserved": "",
      "salt": "0x8cba98f616b46e1b6be06bf8fcec54b4bff592c309593078dd1b795d1c2e43a6",
      "assetIds": []
    },
    {
      "x": 5,
      "y": 57,
      "size": 1,
      "price": "1011000000000000000000",
      "reserved": "0x7a9fe22691c811ea339d9b73150e6911a5343dca",
      "salt": "0x9f1a1e4c7910e029c53f6f180aaf1ff3da7796371f2eef97c1ba8501fd8d5364",
      "assetIds": []
    },
    {
      "x": 5,
      "y": 58,
      "size": 1,
      "price": "1011000000000000000000",
      "reserved": "",
      "salt": "0x57a5b636c0cccf288527b29f296f0cc101ac19b15819aa9f785a4b51f048d803",
      "assetIds": []
    },
    {
      "x": 5,
      "y": 59,
      "size": 1,
      "price": "1011000000000000000000",
      "reserved": "",
      "salt": "0x0561dafa0e7565f6c9f5d2360f63c7f6da508a1cff816a2836a9827a3bec4490",
      "assetIds": []
    },
    {
      "x": 5,
      "y": 66,
      "size": 1,
      "price": "1011000000000000000000",
      "reserved": "",
      "salt": "0x0c636b687e6fbe4fbd5fa07e3cb376175544e0048482d418fd343aea303507c9",
      "assetIds": []
    },
    {
      "x": 5,
      "y": 67,
      "size": 1,
      "price": "1011000000000000000000",
      "reserved": "",
      "salt": "0x14437a3f948301930397398ade4d9bb91031b16e52741e4fa794319752bd8cac",
      "assetIds": []
    },
    {
      "x": 5,
      "y": 68,
      "size": 1,
      "price": "1011000000000000000000",
      "reserved": "",
      "salt": "0xf3a29451f8a6859afe80bb756bc9c27b77854c4723b789655a2da4d97fb9b381",
      "assetIds": []
    },
    {
      "x": 5,
      "y": 69,
      "size": 1,
      "price": "1011000000000000000000",
      "reserved": "",
      "salt": "0xef8afd3ffb11389b830d109649af45788d731756c6ba6359e690ffea8324c3d8",
      "assetIds": []
    },
    {
      "x": 5,
      "y": 70,
      "size": 1,
      "price": "1011000000000000000000",
      "reserved": "",
      "salt": "0xd6c564b243855cfbbb1a24d14926669d0187d115b3d8f558327c10092ae3a3ca",
      "assetIds": []
    },
    {
      "x": 5,
      "y": 71,
      "size": 1,
      "price": "1011000000000000000000",
      "reserved": "",
      "salt": "0xf7482efd3101c07a8659ffaee7af3b835d01a2c0d5e86a5b065c5247609a76fe",
      "assetIds": []
    },
    {
      "x": 5,
      "y": 90,
      "size": 1,
      "price": "1011000000000000000000",
      "reserved": "",
      "salt": "0x8c27172f7021bd3ca6ff587c3b0ed118faa4842480f44bc715f4aeb9b0f5f6fd",
      "assetIds": []
    },
    {
      "x": 5,
      "y": 91,
      "size": 1,
      "price": "1011000000000000000000",
      "reserved": "",
      "salt": "0x12d2045e3e1dfdc74f0b7cf4e65179fadb60b6ba28884233561db95c7d498f2b",
      "assetIds": []
    },
    {
      "x": 5,
      "y": 92,
      "size": 1,
      "price": "1011000000000000000000",
      "reserved": "",
      "salt": "0x1f1e666b7231619f2ffe7035db0ed8a9c2377e2cb0b787bf047a2ceed00daa7d",
      "assetIds": []
    },
    {
      "x": 5,
      "y": 93,
      "size": 1,
      "price": "1011000000000000000000",
      "reserved": "",
      "salt": "0x09b023e78cf50a397e7307e176a9dbe5ff9dfaa3c96e86c1f27b3c791edd8742",
      "assetIds": []
    },
    {
      "x": 5,
      "y": 94,
      "size": 1,
      "price": "1011000000000000000000",
      "reserved": "",
      "salt": "0x8bc4b1ae3a56400ea7f3f3e75c04c53c9fb7b0f156ffb89224c1474168caee26",
      "assetIds": []
    },
    {
      "x": 5,
      "y": 95,
      "size": 1,
      "price": "1011000000000000000000",
      "reserved": "",
      "salt": "0xd05053a89489c71039aa93568af2c697a3b705d53acc43d80a47138d2d29ece8",
      "assetIds": []
    },
    {
      "x": 6,
      "y": 40,
      "size": 1,
      "price": "1011000000000000000000",
      "reserved": "",
      "salt": "0x0c808d304171b47718b87aec474c4d8cd3b051d9365416133c630b93c9dd7f93",
      "assetIds": []
    },
    {
      "x": 6,
      "y": 41,
      "size": 1,
      "price": "1011000000000000000000",
      "reserved": "",
      "salt": "0x14039654cf1f0d571ea0a6a4297d5d7b51d087d03e12d7e4d1b797d9dd1e372d",
      "assetIds": []
    },
    {
      "x": 6,
      "y": 42,
      "size": 1,
      "price": "1011000000000000000000",
      "reserved": "",
      "salt": "0x12e35b30586100292ffa046161d97a09d96294486f48b69d973826e2e8f5b5c0",
      "assetIds": []
    },
    {
      "x": 6,
      "y": 43,
      "size": 1,
      "price": "1011000000000000000000",
      "reserved": "",
      "salt": "0x3ec406fb2da87fa4592dc9ea40f331074cd3140a7c651420103eb837fa4a1dce",
      "assetIds": []
    },
    {
      "x": 6,
      "y": 44,
      "size": 1,
      "price": "1011000000000000000000",
      "reserved": "0x7a9fe22691c811ea339d9b73150e6911a5343dca",
      "salt": "0x6bddebe27af6915860e0a78ad6f49105910007cf7df660c2d19fd79345ec9108",
      "assetIds": []
    },
    {
      "x": 6,
      "y": 45,
      "size": 1,
      "price": "1011000000000000000000",
      "reserved": "",
      "salt": "0x7fd7642e61607814051e9bb7b31099fcf3fc1fbea286707f7d2b2b3ae36cdbf1",
      "assetIds": []
    },
    {
      "x": 6,
      "y": 46,
      "size": 1,
      "price": "1011000000000000000000",
      "reserved": "",
      "salt": "0x3ade5f202a25a7f0420fee0c031f515fc57ad0f6d3d1ebd812b0cb4b225dbafa",
      "assetIds": []
    },
    {
      "x": 6,
      "y": 47,
      "size": 1,
      "price": "1011000000000000000000",
      "reserved": "",
      "salt": "0x6a1ee4ad2f7a0ef0c66357210edfc8c9180e13f83b53928983173188c932e6df",
      "assetIds": []
    },
    {
      "x": 6,
      "y": 48,
      "size": 1,
      "price": "1011000000000000000000",
      "reserved": "",
      "salt": "0x41baabc14d6d2cfaa4ee550ced3bf2ff38f8babcc36903d5654b05a9d4a3f6e1",
      "assetIds": []
    },
    {
      "x": 6,
      "y": 49,
      "size": 1,
      "price": "1011000000000000000000",
      "reserved": "",
      "salt": "0xa6ab1009ef644c18e1a1c75f7c373538f59c881928d6cbb743dd89abe878c617",
      "assetIds": []
    },
    {
      "x": 6,
      "y": 50,
      "size": 1,
      "price": "1011000000000000000000",
      "reserved": "",
      "salt": "0xcc388e90be2fd8e7af2359c69bb18a63d7a61289cd375dc453cf4a3b3c6c3a67",
      "assetIds": []
    },
    {
      "x": 6,
      "y": 51,
      "size": 1,
      "price": "1011000000000000000000",
      "reserved": "",
      "salt": "0x91f29b40d0d90d0ddb0d7fd53ae975f619feacdfd39fa65dbb1f2a7bb3213fa2",
      "assetIds": []
    },
    {
      "x": 6,
      "y": 52,
      "size": 1,
      "price": "1011000000000000000000",
      "reserved": "",
      "salt": "0x87685809b6f1e965b13975ba5aa813240bce8160088e2a08910ad5c73ac4335d",
      "assetIds": []
    },
    {
      "x": 6,
      "y": 53,
      "size": 1,
      "price": "1011000000000000000000",
      "reserved": "",
      "salt": "0x35713c2b4f03ed79276128c12cae4386c5784950f4b04e5a9618d33aa1c36dac",
      "assetIds": []
    },
    {
      "x": 6,
      "y": 60,
      "size": 1,
      "price": "4683000000000000000000",
      "reserved": "",
      "salt": "0xa4a0a5641771f22c2dd47bc474ecbb5154dce57482d0c4fb0abe8fb43281e139",
      "assetIds": [
        "55464657044963196816950587289035428064568320970692304673817341489687941879808",
        "55464657044963196816950587289035428064568320970692304673817341489687933519880",
        "55464657044963196816950587289035428064568320970692304673817341489687933519882",
        "55464657044963196816950587289035428064568320970692304673817341489687933519886",
        "55464657044963196816950587289035428064568320970692304673817341489687933519883"
      ]
    },
    {
      "x": 6,
      "y": 61,
      "size": 1,
      "price": "1011000000000000000000",
      "reserved": "0x7a9fe22691c811ea339d9b73150e6911a5343dca",
      "salt": "0xf6329d3658ada713d60ec3b4dddba99b21a365bb457d48ff4ada713ac8f8acb6",
      "assetIds": []
    },
    {
      "x": 6,
      "y": 62,
      "size": 1,
      "price": "1011000000000000000000",
      "reserved": "",
      "salt": "0x0066808a6b439c9b205358d327e60f0924d73566339ed77be09a8bb2621b69c9",
      "assetIds": []
    },
    {
      "x": 6,
      "y": 63,
      "size": 1,
      "price": "4683000000000000000000",
      "reserved": "",
      "salt": "0x0eefd902ad7df139e05faa734a0eac49be7af45a54761d8675cd0fac3253ab70",
      "assetIds": [
        "55464657044963196816950587289035428064568320970692304673817341489687941879808",
        "55464657044963196816950587289035428064568320970692304673817341489687933519880",
        "55464657044963196816950587289035428064568320970692304673817341489687933519882",
        "55464657044963196816950587289035428064568320970692304673817341489687933519886",
        "55464657044963196816950587289035428064568320970692304673817341489687933519883"
      ]
    },
    {
      "x": 6,
      "y": 64,
      "size": 1,
      "price": "4683000000000000000000",
      "reserved": "",
      "salt": "0xc063fadf2f663b8804c4dd1ccd86e908ad41e815bcd21b09a0302bccddc10c11",
      "assetIds": [
        "55464657044963196816950587289035428064568320970692304673817341489687941879808",
        "55464657044963196816950587289035428064568320970692304673817341489687933519880",
        "55464657044963196816950587289035428064568320970692304673817341489687933519882",
        "55464657044963196816950587289035428064568320970692304673817341489687933519886",
        "55464657044963196816950587289035428064568320970692304673817341489687933519883"
      ]
    },
    {
      "x": 6,
      "y": 65,
      "size": 1,
      "price": "1011000000000000000000",
      "reserved": "0x7a9fe22691c811ea339d9b73150e6911a5343dca",
      "salt": "0x9dce0e506b49412f905bf4e2b157a3b18574b6f661b0f10aed7a21f294382a74",
      "assetIds": []
    },
    {
      "x": 6,
      "y": 66,
      "size": 1,
      "price": "1011000000000000000000",
      "reserved": "",
      "salt": "0x5b9f3b6650711d921b2fcabfd78e951175c8595e0476f1ae2cd3b7690c97b25f",
      "assetIds": []
    },
    {
      "x": 6,
      "y": 67,
      "size": 1,
      "price": "1011000000000000000000",
      "reserved": "0x7a9fe22691c811ea339d9b73150e6911a5343dca",
      "salt": "0xe59be78ca4ac1014fbd6fc6fb1407466203e1fa09c3f335f8149debf3dc411de",
      "assetIds": []
    },
    {
      "x": 6,
      "y": 68,
      "size": 1,
      "price": "1011000000000000000000",
      "reserved": "",
      "salt": "0x533413325b8b880abb70ef600ac8da05890e20d449aff5fd30ed958c36efc298",
      "assetIds": []
    },
    {
      "x": 6,
      "y": 69,
      "size": 1,
      "price": "1011000000000000000000",
      "reserved": "",
      "salt": "0xc7ecd4d8010f1fda5d779aa897f927c217cbf1bc1399c84227ed8546a957f078",
      "assetIds": []
    },
    {
      "x": 6,
      "y": 70,
      "size": 1,
      "price": "1011000000000000000000",
      "reserved": "",
      "salt": "0x05b8e8ea79f507aa02f7086e6a23993d1af398358d0126087bd62f2529b2049d",
      "assetIds": []
    },
    {
      "x": 6,
      "y": 71,
      "size": 1,
      "price": "1011000000000000000000",
      "reserved": "",
      "salt": "0xafc74857903077567202dcf4f5e186781f082452272224a9bab16352d921a0aa",
      "assetIds": []
    },
    {
      "x": 6,
      "y": 84,
      "size": 1,
      "price": "1011000000000000000000",
      "reserved": "0x7a9fe22691c811ea339d9b73150e6911a5343dca",
      "salt": "0xc41a8bcffbaa8b240a80838c27d1087152174752ce3d0cf4bbbca681fb8fc6c8",
      "assetIds": []
    },
    {
      "x": 6,
      "y": 85,
      "size": 1,
      "price": "1011000000000000000000",
      "reserved": "",
      "salt": "0xa7baccaf2be475eac602a2bd90aef775682fd42ef6360bcba0d9d1983df96da0",
      "assetIds": []
    },
    {
      "x": 6,
      "y": 86,
      "size": 1,
      "price": "1011000000000000000000",
      "reserved": "",
      "salt": "0xd3fbcd233741e5b0453997a79aa12fec8dd33cbab71ee3e2eb0e8e44ceed165b",
      "assetIds": []
    },
    {
      "x": 6,
      "y": 87,
      "size": 1,
      "price": "1011000000000000000000",
      "reserved": "0x7a9fe22691c811ea339d9b73150e6911a5343dca",
      "salt": "0x3d4059a608371a448e6864d71c6014c2a7efa554153fa574b1fada34ca523183",
      "assetIds": []
    },
    {
      "x": 6,
      "y": 88,
      "size": 1,
      "price": "1011000000000000000000",
      "reserved": "",
      "salt": "0xf277f585580fc59297c2e9a36d9cf16661178554cff668dfecf03fbb2549be10",
      "assetIds": []
    },
    {
      "x": 6,
      "y": 89,
      "size": 1,
      "price": "1011000000000000000000",
      "reserved": "",
      "salt": "0xd9140fc945cf73c400456d0be8c0fc7e9b675b3cb955f42ccd36033262024099",
      "assetIds": []
    },
    {
      "x": 6,
      "y": 90,
      "size": 1,
      "price": "1011000000000000000000",
      "reserved": "",
      "salt": "0xe4f1296819dc3bef38511aaabdf986557771bba8f65827526e9ebcbfe15d74a1",
      "assetIds": []
    },
    {
      "x": 6,
      "y": 91,
      "size": 1,
      "price": "1011000000000000000000",
      "reserved": "",
      "salt": "0x05f63270c7449adaaeadf956a20aee6e2a067d51e45add31818cf5f37b77839f",
      "assetIds": []
    },
    {
      "x": 6,
      "y": 92,
      "size": 1,
      "price": "1011000000000000000000",
      "reserved": "",
      "salt": "0xcba667bff4ea4eddb03659b9bf67e3cef4af50cba818f0fee4f0caa50ee00438",
      "assetIds": []
    },
    {
      "x": 6,
      "y": 93,
      "size": 1,
      "price": "1011000000000000000000",
      "reserved": "",
      "salt": "0xe72a1eedffcf122c212e3da3379a23d2836e58e4e31d6643544b09b4b2800ab0",
      "assetIds": []
    },
    {
      "x": 6,
      "y": 94,
      "size": 1,
      "price": "1011000000000000000000",
      "reserved": "",
      "salt": "0xa2b3077aa89c682f02bb322c91f8518462b53f8073176698a57d6b567fae3111",
      "assetIds": []
    },
    {
      "x": 6,
      "y": 95,
      "size": 1,
      "price": "1011000000000000000000",
      "reserved": "",
      "salt": "0xdc31505d24b422a128acd954649e2474f45bc9ef759aa82ac2a3db42f742a44a",
      "assetIds": []
    },
    {
      "x": 7,
      "y": 40,
      "size": 1,
      "price": "1011000000000000000000",
      "reserved": "",
      "salt": "0x88dcbc9c43c65659018bd506f89267cf3bc899781f3aa7aa8329b976d3286c6e",
      "assetIds": []
    },
    {
      "x": 7,
      "y": 41,
      "size": 1,
      "price": "1011000000000000000000",
      "reserved": "",
      "salt": "0x2bc85181f3aa067e25ead67ec59121213f0b2ad3baddee9ab65f43118c2b2c8a",
      "assetIds": []
    },
    {
      "x": 7,
      "y": 42,
      "size": 1,
      "price": "1011000000000000000000",
      "reserved": "0x7a9fe22691c811ea339d9b73150e6911a5343dca",
      "salt": "0x0e8e916ca5d7e30deb9b1c9c53d7d006d689aaf7f61ae3cbd172404a9668eeda",
      "assetIds": []
    },
    {
      "x": 7,
      "y": 43,
      "size": 1,
      "price": "1011000000000000000000",
      "reserved": "",
      "salt": "0x3021e85507f328d7fb9d32b98a41ac94444213759869e5de3ca2dbfb56ed116a",
      "assetIds": []
    },
    {
      "x": 7,
      "y": 44,
      "size": 1,
      "price": "1011000000000000000000",
      "reserved": "",
      "salt": "0xcadebe9563802fbd9593a38c5b76ca09a882ca1f3c7c4fdf83658ddb331f38de",
      "assetIds": []
    },
    {
      "x": 7,
      "y": 45,
      "size": 1,
      "price": "1011000000000000000000",
      "reserved": "",
      "salt": "0x1d1080a910951ea4512f0b349ca39c6bf40bae0bf69487d85c05f89f19a92a3f",
      "assetIds": []
    },
    {
      "x": 7,
      "y": 46,
      "size": 1,
      "price": "1011000000000000000000",
      "reserved": "",
      "salt": "0xdd3899f8a8c43dfee6c9f08bb37b1304b0cb4ee7b485306938776c3585b4faa1",
      "assetIds": []
    },
    {
      "x": 7,
      "y": 47,
      "size": 1,
      "price": "1011000000000000000000",
      "reserved": "",
      "salt": "0xda045b0c3f02f740ca2cd00bcacda648001c523d07ddef8bc48490dea596c597",
      "assetIds": []
    },
    {
      "x": 7,
      "y": 48,
      "size": 1,
      "price": "1011000000000000000000",
      "reserved": "",
      "salt": "0x2c91ecd8d7d0987eb36c6de37828b391548731c7984653273ccae2de3b0967e9",
      "assetIds": []
    },
    {
      "x": 7,
      "y": 49,
      "size": 1,
      "price": "1011000000000000000000",
      "reserved": "",
      "salt": "0x986bbbe2fcb7dc75f5db94b4054402c87279d8eeaa98293820bf285e231e720e",
      "assetIds": []
    },
    {
      "x": 7,
      "y": 50,
      "size": 1,
      "price": "1011000000000000000000",
      "reserved": "",
      "salt": "0xf62ce4ef57fc9e78d1ff948ed8b6203bc76e710be3c0e03fc3a424cccc790a4c",
      "assetIds": []
    },
    {
      "x": 7,
      "y": 51,
      "size": 1,
      "price": "1011000000000000000000",
      "reserved": "",
      "salt": "0xf03d7973cf36b6d5c00236b661610590864e120143504fdccdde9185a53d2758",
      "assetIds": []
    },
    {
      "x": 7,
      "y": 52,
      "size": 1,
      "price": "1011000000000000000000",
      "reserved": "0x7a9fe22691c811ea339d9b73150e6911a5343dca",
      "salt": "0x591b76382118a3cd2f62cdbdbfbb02c5735308656b17f9a91f8e0f786492d8f7",
      "assetIds": []
    },
    {
      "x": 7,
      "y": 53,
      "size": 1,
      "price": "1011000000000000000000",
      "reserved": "",
      "salt": "0xcca55e88cf60c2980a9df6c5ca1364d97aa2bd65c978922b56b8e3ec961bb6ca",
      "assetIds": []
    },
    {
      "x": 7,
      "y": 60,
      "size": 1,
      "price": "4683000000000000000000",
      "reserved": "",
      "salt": "0xc3760fd7860a93a1613c32eaf4f787b70d9b78a8ce11538106761f36c344bb3d",
      "assetIds": [
        "55464657044963196816950587289035428064568320970692304673817341489687941879808",
        "55464657044963196816950587289035428064568320970692304673817341489687933519880",
        "55464657044963196816950587289035428064568320970692304673817341489687933519882",
        "55464657044963196816950587289035428064568320970692304673817341489687933519886",
        "55464657044963196816950587289035428064568320970692304673817341489687933519883"
      ]
    },
    {
      "x": 7,
      "y": 61,
      "size": 1,
      "price": "4683000000000000000000",
      "reserved": "",
      "salt": "0x1ce4d0c12d2b4ab9f0a18e82139f6a15a91a6105a1b23f3d1a51f5afd09deea0",
      "assetIds": [
        "55464657044963196816950587289035428064568320970692304673817341489687941879808",
        "55464657044963196816950587289035428064568320970692304673817341489687933519880",
        "55464657044963196816950587289035428064568320970692304673817341489687933519882",
        "55464657044963196816950587289035428064568320970692304673817341489687933519886",
        "55464657044963196816950587289035428064568320970692304673817341489687933519883"
      ]
    },
    {
      "x": 7,
      "y": 62,
      "size": 1,
      "price": "4683000000000000000000",
      "reserved": "",
      "salt": "0xa3b293808adcc4df605524fcf89f9d047e4f0a2594ccf1987af2f3571b6554d0",
      "assetIds": [
        "55464657044963196816950587289035428064568320970692304673817341489687941879808",
        "55464657044963196816950587289035428064568320970692304673817341489687933519880",
        "55464657044963196816950587289035428064568320970692304673817341489687933519882",
        "55464657044963196816950587289035428064568320970692304673817341489687933519886",
        "55464657044963196816950587289035428064568320970692304673817341489687933519883"
      ]
    },
    {
      "x": 7,
      "y": 63,
      "size": 1,
      "price": "4683000000000000000000",
      "reserved": "",
      "salt": "0xb7b1fd60aadc5116ed412f0eeabd4f223dd37c442b6144f32af776ecd3d14540",
      "assetIds": [
        "55464657044963196816950587289035428064568320970692304673817341489687941879808",
        "55464657044963196816950587289035428064568320970692304673817341489687933519880",
        "55464657044963196816950587289035428064568320970692304673817341489687933519882",
        "55464657044963196816950587289035428064568320970692304673817341489687933519886",
        "55464657044963196816950587289035428064568320970692304673817341489687933519883"
      ]
    },
    {
      "x": 7,
      "y": 64,
      "size": 1,
      "price": "4683000000000000000000",
      "reserved": "",
      "salt": "0x16300bb67607c6de4401476fac311dd01cbab8cce427f85551f6dbbe0d00f9b5",
      "assetIds": [
        "55464657044963196816950587289035428064568320970692304673817341489687941879808",
        "55464657044963196816950587289035428064568320970692304673817341489687933519880",
        "55464657044963196816950587289035428064568320970692304673817341489687933519882",
        "55464657044963196816950587289035428064568320970692304673817341489687933519886",
        "55464657044963196816950587289035428064568320970692304673817341489687933519883"
      ]
    },
    {
      "x": 7,
      "y": 65,
      "size": 1,
      "price": "1011000000000000000000",
      "reserved": "0x7a9fe22691c811ea339d9b73150e6911a5343dca",
      "salt": "0x50e39fb8ddd3f5e7c49fc9fdc2ba40a83804b47266da1b252e044ad41ca2a81e",
      "assetIds": []
    },
    {
      "x": 7,
      "y": 66,
      "size": 1,
      "price": "1011000000000000000000",
      "reserved": "",
      "salt": "0xb33ddff10c24a6f8cf102d1a16894dba1ba41669744b22961fc32e1ef18088dd",
      "assetIds": []
    },
    {
      "x": 7,
      "y": 67,
      "size": 1,
      "price": "1011000000000000000000",
      "reserved": "",
      "salt": "0x998e9d5c7824b19a6a55978e2d1e3ced4c659010c540b1da9556e258fb176311",
      "assetIds": []
    },
    {
      "x": 7,
      "y": 68,
      "size": 1,
      "price": "1011000000000000000000",
      "reserved": "",
      "salt": "0x6044ee3d59c07269a01c6c46ed1f34bc23506acaafc374fd07bae220d9a64ce1",
      "assetIds": []
    },
    {
      "x": 7,
      "y": 69,
      "size": 1,
      "price": "1011000000000000000000",
      "reserved": "",
      "salt": "0xaba9ca7253933da5a2d43d23eae03ec5e09593732de36296c8a6ae57f85dd30b",
      "assetIds": []
    },
    {
      "x": 7,
      "y": 70,
      "size": 1,
      "price": "1011000000000000000000",
      "reserved": "0x7a9fe22691c811ea339d9b73150e6911a5343dca",
      "salt": "0x5b4ccae91b1976e7d7fca45f557856207f47a2a8d19186440d7ce575a7d30051",
      "assetIds": []
    },
    {
      "x": 7,
      "y": 71,
      "size": 1,
      "price": "1011000000000000000000",
      "reserved": "",
      "salt": "0x5ad0aada6ebcbde506c05501e84987e9f2e73e2008837512f48ca9e0e52b4ba4",
      "assetIds": []
    },
    {
      "x": 7,
      "y": 84,
      "size": 1,
      "price": "1011000000000000000000",
      "reserved": "",
      "salt": "0x87e8fca10339242206a9aef1527e6d720357e5f21d05034a4ac29076aedb225c",
      "assetIds": []
    },
    {
      "x": 7,
      "y": 85,
      "size": 1,
      "price": "1011000000000000000000",
      "reserved": "",
      "salt": "0xbb91498587fd1f2ec1e8288e1c192c3c9cfc2b5f5371898cd588602ebe9c1a43",
      "assetIds": []
    },
    {
      "x": 7,
      "y": 86,
      "size": 1,
      "price": "1011000000000000000000",
      "reserved": "",
      "salt": "0x521aea421f1e30b90edcc550a569516a3b6429c5cfa8516dc399d96a84119e82",
      "assetIds": []
    },
    {
      "x": 7,
      "y": 87,
      "size": 1,
      "price": "1011000000000000000000",
      "reserved": "",
      "salt": "0xcf0272cd3595a186b09492e70d090549a8ade2ef12e563275a4d60a56da1bf44",
      "assetIds": []
    },
    {
      "x": 7,
      "y": 88,
      "size": 1,
      "price": "1011000000000000000000",
      "reserved": "",
      "salt": "0x433713891a7e568bd3220e53d741367352e24dddfa063630036d50eea4cbc9fd",
      "assetIds": []
    },
    {
      "x": 7,
      "y": 89,
      "size": 1,
      "price": "1011000000000000000000",
      "reserved": "0x7a9fe22691c811ea339d9b73150e6911a5343dca",
      "salt": "0xefb1d8b43662c85d8ff139dc985323382a10ccd2d72f0552315b771f5ae8a449",
      "assetIds": []
    },
    {
      "x": 7,
      "y": 90,
      "size": 1,
      "price": "1011000000000000000000",
      "reserved": "",
      "salt": "0xa04d3817a7da96065cb3bf3519495fc034c5e37ad3e4a0ab37f5b79c1bd26218",
      "assetIds": []
    },
    {
      "x": 7,
      "y": 91,
      "size": 1,
      "price": "1011000000000000000000",
      "reserved": "",
      "salt": "0x9923a0faabfcbcc831c4dc933a3b70454ffcb762404f4033f24b4fc214eb2517",
      "assetIds": []
    },
    {
      "x": 7,
      "y": 92,
      "size": 1,
      "price": "1011000000000000000000",
      "reserved": "",
      "salt": "0x1d6a8c9e4dd2c0de252db4b4049f03b717292339bffbb322cf7f043deccb4ff7",
      "assetIds": []
    },
    {
      "x": 7,
      "y": 93,
      "size": 1,
      "price": "1011000000000000000000",
      "reserved": "",
      "salt": "0x58ec9d21c0b1f9f62f8d10c6a8dc7772074bcfd5ff0e3ff176522d897d068823",
      "assetIds": []
    },
    {
      "x": 7,
      "y": 94,
      "size": 1,
      "price": "1011000000000000000000",
      "reserved": "0x7a9fe22691c811ea339d9b73150e6911a5343dca",
      "salt": "0xac13d2fee7eb41121258b03d9a8466505f5d737947552680ef2e72750de62295",
      "assetIds": []
    },
    {
      "x": 7,
      "y": 95,
      "size": 1,
      "price": "1011000000000000000000",
      "reserved": "",
      "salt": "0x0837cd497872cde07d8831652a1269cfcb36f5666baa50af116b6927ae0e955d",
      "assetIds": []
    },
    {
      "x": 8,
      "y": 40,
      "size": 1,
      "price": "1011000000000000000000",
      "reserved": "",
      "salt": "0x03f40017af56cc6369b836fb2aa04d38890143e8492686a3681f7598e49a844b",
      "assetIds": []
    },
    {
      "x": 8,
      "y": 41,
      "size": 1,
      "price": "1011000000000000000000",
      "reserved": "",
      "salt": "0x9ffbebc1a705f6bc31a8bb03273dcb5078509b3cb1d7292a82139854bdda3428",
      "assetIds": []
    },
    {
      "x": 8,
      "y": 42,
      "size": 1,
      "price": "1011000000000000000000",
      "reserved": "0x7a9fe22691c811ea339d9b73150e6911a5343dca",
      "salt": "0x562b04b54de68cab00852eb834abf68ab912f2794cfa9b667c096c6cb85c0a0a",
      "assetIds": []
    },
    {
      "x": 8,
      "y": 43,
      "size": 1,
      "price": "1011000000000000000000",
      "reserved": "",
      "salt": "0x894c37466f37ab202e616b9f88ae5a15e5f2a673ca0498d6b5936b687ed96e59",
      "assetIds": []
    },
    {
      "x": 8,
      "y": 44,
      "size": 1,
      "price": "1011000000000000000000",
      "reserved": "",
      "salt": "0x12764691e5184d4d50aaa5bd4d6a89478a2bf8c8235cf1002420a257fad27905",
      "assetIds": []
    },
    {
      "x": 8,
      "y": 45,
      "size": 1,
      "price": "1011000000000000000000",
      "reserved": "",
      "salt": "0x92e767d97ee59149b26921651c0107351b2eae6e5213af8e406ef762b4585b4b",
      "assetIds": []
    },
    {
      "x": 8,
      "y": 46,
      "size": 1,
      "price": "1011000000000000000000",
      "reserved": "0x7a9fe22691c811ea339d9b73150e6911a5343dca",
      "salt": "0xdcebed822aaa956998a636a8f2542bc4b89a657494490750035e6242e61338a3",
      "assetIds": []
    },
    {
      "x": 8,
      "y": 47,
      "size": 1,
      "price": "1011000000000000000000",
      "reserved": "",
      "salt": "0x617a8f5416809a3fe420bd477b3b4d648a848533639f1e6211f865acac7fdff5",
      "assetIds": []
    },
    {
      "x": 8,
      "y": 48,
      "size": 1,
      "price": "1011000000000000000000",
      "reserved": "",
      "salt": "0x625987b207f664a1c3344eea7a12ce7a1b6d646c3c4039151d1148dedc2d0ebc",
      "assetIds": []
    },
    {
      "x": 8,
      "y": 49,
      "size": 1,
      "price": "1011000000000000000000",
      "reserved": "",
      "salt": "0x8aea3998295e0ccd48e05c52bca45b34a1ec90f05f4917748a2acf81fccd8585",
      "assetIds": []
    },
    {
      "x": 8,
      "y": 50,
      "size": 1,
      "price": "1011000000000000000000",
      "reserved": "0x7a9fe22691c811ea339d9b73150e6911a5343dca",
      "salt": "0x7a05f2b2af5d1cdf710498b8741f06e8ee0b953c08f957701d65218585e1bc7e",
      "assetIds": []
    },
    {
      "x": 8,
      "y": 51,
      "size": 1,
      "price": "1011000000000000000000",
      "reserved": "",
      "salt": "0x084789cf4a11e2215e0146dedaa975b3988101410f1463708cc8884a1551f0eb",
      "assetIds": []
    },
    {
      "x": 8,
      "y": 52,
      "size": 1,
      "price": "1011000000000000000000",
      "reserved": "",
      "salt": "0x9caa811c358fba8fc8291128562d956e175b8c37635e050eac203f47d9d79793",
      "assetIds": []
    },
    {
      "x": 8,
      "y": 53,
      "size": 1,
      "price": "1011000000000000000000",
      "reserved": "",
      "salt": "0xdbf060ff43c1472636d2acddfea5acd25f066f7b61838823581ad5ca0944248d",
      "assetIds": []
    },
    {
      "x": 8,
      "y": 60,
      "size": 1,
      "price": "4683000000000000000000",
      "reserved": "",
      "salt": "0xbaa4cc1011e8d8753801c6b727d99772edd1fb91a8d2a59d3fa6585ba5e5a489",
      "assetIds": [
        "55464657044963196816950587289035428064568320970692304673817341489687941879808",
        "55464657044963196816950587289035428064568320970692304673817341489687933519880",
        "55464657044963196816950587289035428064568320970692304673817341489687933519882",
        "55464657044963196816950587289035428064568320970692304673817341489687933519886",
        "55464657044963196816950587289035428064568320970692304673817341489687933519883"
      ]
    },
    {
      "x": 8,
      "y": 61,
      "size": 1,
      "price": "4683000000000000000000",
      "reserved": "",
      "salt": "0x6c76fbbdfcba56e7eb3d8cf6cfde2214e3857945192335ad8ebd94e09af757c2",
      "assetIds": [
        "55464657044963196816950587289035428064568320970692304673817341489687941879808",
        "55464657044963196816950587289035428064568320970692304673817341489687933519880",
        "55464657044963196816950587289035428064568320970692304673817341489687933519882",
        "55464657044963196816950587289035428064568320970692304673817341489687933519886",
        "55464657044963196816950587289035428064568320970692304673817341489687933519883"
      ]
    },
    {
      "x": 8,
      "y": 62,
      "size": 1,
      "price": "4683000000000000000000",
      "reserved": "",
      "salt": "0xf855c23e481df00b48ef3a07e59a9d5748d431edad281023c1646981df76eeac",
      "assetIds": [
        "55464657044963196816950587289035428064568320970692304673817341489687941879808",
        "55464657044963196816950587289035428064568320970692304673817341489687933519880",
        "55464657044963196816950587289035428064568320970692304673817341489687933519882",
        "55464657044963196816950587289035428064568320970692304673817341489687933519886",
        "55464657044963196816950587289035428064568320970692304673817341489687933519883"
      ]
    },
    {
      "x": 8,
      "y": 63,
      "size": 1,
      "price": "4683000000000000000000",
      "reserved": "",
      "salt": "0x483037037363c3af0c5da47e8ee14a9550aa267ec094f6455c2f02233839c371",
      "assetIds": [
        "55464657044963196816950587289035428064568320970692304673817341489687941879808",
        "55464657044963196816950587289035428064568320970692304673817341489687933519880",
        "55464657044963196816950587289035428064568320970692304673817341489687933519882",
        "55464657044963196816950587289035428064568320970692304673817341489687933519886",
        "55464657044963196816950587289035428064568320970692304673817341489687933519883"
      ]
    },
    {
      "x": 8,
      "y": 64,
      "size": 1,
      "price": "4683000000000000000000",
      "reserved": "",
      "salt": "0x3fc9102235e9f0b72da5186aeae435b75aeeb3f810ed01f3b4e171951d99530e",
      "assetIds": [
        "55464657044963196816950587289035428064568320970692304673817341489687941879808",
        "55464657044963196816950587289035428064568320970692304673817341489687933519880",
        "55464657044963196816950587289035428064568320970692304673817341489687933519882",
        "55464657044963196816950587289035428064568320970692304673817341489687933519886",
        "55464657044963196816950587289035428064568320970692304673817341489687933519883"
      ]
    },
    {
      "x": 8,
      "y": 65,
      "size": 1,
      "price": "4683000000000000000000",
      "reserved": "",
      "salt": "0xf3c7e0d2588965c0862d1b9761c10dbb16cb0d21ea2e91e3a1c72fafcca862ae",
      "assetIds": [
        "55464657044963196816950587289035428064568320970692304673817341489687941879808",
        "55464657044963196816950587289035428064568320970692304673817341489687933519880",
        "55464657044963196816950587289035428064568320970692304673817341489687933519882",
        "55464657044963196816950587289035428064568320970692304673817341489687933519886",
        "55464657044963196816950587289035428064568320970692304673817341489687933519883"
      ]
    },
    {
      "x": 8,
      "y": 66,
      "size": 1,
      "price": "1011000000000000000000",
      "reserved": "",
      "salt": "0x8307293c02422d4d6b181308120166565fbba44b4f399bfe021cb23a91dd46e9",
      "assetIds": []
    },
    {
      "x": 8,
      "y": 67,
      "size": 1,
      "price": "1011000000000000000000",
      "reserved": "",
      "salt": "0xaeb3a01b251fa58a9e4c2f21a61cd0ab8a8cc932fd97132b8062f697e2e0647a",
      "assetIds": []
    },
    {
      "x": 8,
      "y": 68,
      "size": 1,
      "price": "1011000000000000000000",
      "reserved": "",
      "salt": "0x788488e0ce3d4fed5826044276345f825a83ef6fea175363fa6f14d64c54949d",
      "assetIds": []
    },
    {
      "x": 8,
      "y": 69,
      "size": 1,
      "price": "1011000000000000000000",
      "reserved": "",
      "salt": "0xb19b45acff10bea7e31319ef62901a375fd8b2e2b49f60638303aa882c18ec1d",
      "assetIds": []
    },
    {
      "x": 8,
      "y": 70,
      "size": 1,
      "price": "1011000000000000000000",
      "reserved": "",
      "salt": "0x4471464f4462b8f2206d4ae16eef706f96bb9121e0ecec73abba9fd42f355a6f",
      "assetIds": []
    },
    {
      "x": 8,
      "y": 71,
      "size": 1,
      "price": "1011000000000000000000",
      "reserved": "",
      "salt": "0xecad19ee42d6a7b9edba183ff3297cf6527ae4ec57e5f55aa8d01fbfecf4c59e",
      "assetIds": []
    },
    {
      "x": 8,
      "y": 84,
      "size": 1,
      "price": "1011000000000000000000",
      "reserved": "",
      "salt": "0x3ad9669fdb6cc971bb5c37396a7f2ef7f7341ff632211b44ad3f437d5fa4d869",
      "assetIds": []
    },
    {
      "x": 8,
      "y": 85,
      "size": 1,
      "price": "1011000000000000000000",
      "reserved": "",
      "salt": "0x6bfc3789691f216b1f3f106573aa66ea25ee62e35415409044aef0aa3f4d0a5b",
      "assetIds": []
    },
    {
      "x": 8,
      "y": 86,
      "size": 1,
      "price": "1011000000000000000000",
      "reserved": "",
      "salt": "0xc73d62501358510197eb3500ae0e185603b5977565ed091b9b2be51ec835558c",
      "assetIds": []
    },
    {
      "x": 8,
      "y": 87,
      "size": 1,
      "price": "1011000000000000000000",
      "reserved": "",
      "salt": "0xfe77b327264e2dcb74494ed9a09b37dbcc00a0c736e867d86db23f1f46ab90f0",
      "assetIds": []
    },
    {
      "x": 8,
      "y": 88,
      "size": 1,
      "price": "1011000000000000000000",
      "reserved": "",
      "salt": "0x5423bc64472831ea157f4a490fe776f0496cfca888d6f94c8ad590f07e783fb1",
      "assetIds": []
    },
    {
      "x": 8,
      "y": 89,
      "size": 1,
      "price": "1011000000000000000000",
      "reserved": "",
      "salt": "0x75162a572fb18c657f997298313b4b9d1fe9210653b659ea7b1b8e5d222fe394",
      "assetIds": []
    },
    {
      "x": 8,
      "y": 90,
      "size": 1,
      "price": "1011000000000000000000",
      "reserved": "",
      "salt": "0x1c7ed0e2a25a4647a58e86334a9a7845fbf63015720840a285f2831b84b6f4e4",
      "assetIds": []
    },
    {
      "x": 8,
      "y": 91,
      "size": 1,
      "price": "1011000000000000000000",
      "reserved": "",
      "salt": "0x0f6313944487a97e0c8592738322d7ce9ccc0cd7154e846dd3dfec40e0f0362d",
      "assetIds": []
    },
    {
      "x": 8,
      "y": 92,
      "size": 1,
      "price": "1011000000000000000000",
      "reserved": "",
      "salt": "0xd4d96c3bcaaacab6b155d99150c9d2ec5017a435b17b6ece88ca9b49c1bbdc17",
      "assetIds": []
    },
    {
      "x": 8,
      "y": 93,
      "size": 1,
      "price": "1011000000000000000000",
      "reserved": "0x7a9fe22691c811ea339d9b73150e6911a5343dca",
      "salt": "0x37514144b89a4bf8448c39c40bad17cac0d5c3b5b075b1d7fd674c4d4efb0d2c",
      "assetIds": []
    },
    {
      "x": 8,
      "y": 94,
      "size": 1,
      "price": "1011000000000000000000",
      "reserved": "",
      "salt": "0x8dd8074ee8ad8701c1786bbdb1208739223ac17f76736820032c8da214e53c14",
      "assetIds": []
    },
    {
      "x": 8,
      "y": 95,
      "size": 1,
      "price": "1011000000000000000000",
      "reserved": "",
      "salt": "0xbd02f24cbad3e4d2d42ae858300bd0d9419621e2c2493ace4fbb852d14f8f825",
      "assetIds": []
    },
    {
      "x": 9,
      "y": 40,
      "size": 1,
      "price": "1011000000000000000000",
      "reserved": "",
      "salt": "0x6915df7a45692413b07a57aaef56f9d7b3afd3cf410c1fd832240bee95db7b1c",
      "assetIds": []
    },
    {
      "x": 9,
      "y": 41,
      "size": 1,
      "price": "1011000000000000000000",
      "reserved": "",
      "salt": "0x92ac5e4defd5a5bae98b2ed4247c736bde4ff7a81ea5495ea24e364850f66f10",
      "assetIds": []
    },
    {
      "x": 9,
      "y": 45,
      "size": 1,
      "price": "1011000000000000000000",
      "reserved": "",
      "salt": "0xf3931c4f3f40891707de3cd8ad00f88b87f28836c32b4ed3fe535cf2c9afb16a",
      "assetIds": []
    },
    {
      "x": 9,
      "y": 46,
      "size": 1,
      "price": "1011000000000000000000",
      "reserved": "",
      "salt": "0x4bc5dbf729054539f5c442027fd83eb2a78c2bed029d0144a69e44dc5f9bd7cc",
      "assetIds": []
    },
    {
      "x": 9,
      "y": 47,
      "size": 1,
      "price": "1011000000000000000000",
      "reserved": "",
      "salt": "0xf4cab18b3efabc6cdb4367b58f027926827aa4b4adaf4e1ad2ec36570c015eb8",
      "assetIds": []
    },
    {
      "x": 9,
      "y": 48,
      "size": 1,
      "price": "1011000000000000000000",
      "reserved": "",
      "salt": "0x9f4bb3c44eaf811a22566396d8822d3e289bdd4cd6e5920e5e04712d01f47f5e",
      "assetIds": []
    },
    {
      "x": 9,
      "y": 49,
      "size": 1,
      "price": "1011000000000000000000",
      "reserved": "",
      "salt": "0xc5fdc61acac693c9d3ae62f5fad3880824367e4a9c0f211fc23e9e53a8e27fab",
      "assetIds": []
    },
    {
      "x": 9,
      "y": 50,
      "size": 1,
      "price": "1011000000000000000000",
      "reserved": "",
      "salt": "0x98cd5ccabdef5c5b87461e2867bb71a0319ee867edc307280551a8f98b0b8d85",
      "assetIds": []
    },
    {
      "x": 9,
      "y": 51,
      "size": 1,
      "price": "1011000000000000000000",
      "reserved": "",
      "salt": "0x31dc9f4cd164ea69ca176d5fa839815a5cbf9f5706ff9038f769869289d9100b",
      "assetIds": []
    },
    {
      "x": 9,
      "y": 52,
      "size": 1,
      "price": "1011000000000000000000",
      "reserved": "",
      "salt": "0x4f44ea654028c6350c5be1407d58d0a1d3a21c8b5a20a30c769762b842e270d1",
      "assetIds": []
    },
    {
      "x": 9,
      "y": 53,
      "size": 1,
      "price": "1011000000000000000000",
      "reserved": "",
      "salt": "0x10116b7a6fcf4b61bed172c62211f610e3c56c4ca6a88379347f5d049db9067a",
      "assetIds": []
    },
    {
      "x": 9,
      "y": 60,
      "size": 1,
      "price": "4683000000000000000000",
      "reserved": "",
      "salt": "0x8258b923be5750f7d5d0ad98e83934479646d263192507cee79528170355d938",
      "assetIds": [
        "55464657044963196816950587289035428064568320970692304673817341489687941879808",
        "55464657044963196816950587289035428064568320970692304673817341489687933519880",
        "55464657044963196816950587289035428064568320970692304673817341489687933519882",
        "55464657044963196816950587289035428064568320970692304673817341489687933519886",
        "55464657044963196816950587289035428064568320970692304673817341489687933519883"
      ]
    },
    {
      "x": 9,
      "y": 61,
      "size": 1,
      "price": "4683000000000000000000",
      "reserved": "",
      "salt": "0x3f950d4905fd67efb081433e031f93acd548b7035d6a9811606d84d7b2eae7a5",
      "assetIds": [
        "55464657044963196816950587289035428064568320970692304673817341489687941879808",
        "55464657044963196816950587289035428064568320970692304673817341489687933519880",
        "55464657044963196816950587289035428064568320970692304673817341489687933519882",
        "55464657044963196816950587289035428064568320970692304673817341489687933519886",
        "55464657044963196816950587289035428064568320970692304673817341489687933519883"
      ]
    },
    {
      "x": 9,
      "y": 62,
      "size": 1,
      "price": "4683000000000000000000",
      "reserved": "",
      "salt": "0x9aae5f4291093048f02f214ea59c6988ba6003ea0c4637ecc509cdacb0fdc2c5",
      "assetIds": [
        "55464657044963196816950587289035428064568320970692304673817341489687941879808",
        "55464657044963196816950587289035428064568320970692304673817341489687933519880",
        "55464657044963196816950587289035428064568320970692304673817341489687933519882",
        "55464657044963196816950587289035428064568320970692304673817341489687933519886",
        "55464657044963196816950587289035428064568320970692304673817341489687933519883"
      ]
    },
    {
      "x": 9,
      "y": 63,
      "size": 1,
      "price": "1011000000000000000000",
      "reserved": "0x7a9fe22691c811ea339d9b73150e6911a5343dca",
      "salt": "0xa6bb3795bc49967b1a6feab82d92a82d3a1aa04712c2fa84b410d623976956de",
      "assetIds": []
    },
    {
      "x": 9,
      "y": 64,
      "size": 1,
      "price": "4683000000000000000000",
      "reserved": "",
      "salt": "0x509f01d4be229868742c1eb48f1e11b9d64eb8119ea8577dce3209a920c9cf49",
      "assetIds": [
        "55464657044963196816950587289035428064568320970692304673817341489687941879808",
        "55464657044963196816950587289035428064568320970692304673817341489687933519880",
        "55464657044963196816950587289035428064568320970692304673817341489687933519882",
        "55464657044963196816950587289035428064568320970692304673817341489687933519886",
        "55464657044963196816950587289035428064568320970692304673817341489687933519883"
      ]
    },
    {
      "x": 9,
      "y": 65,
      "size": 1,
      "price": "4683000000000000000000",
      "reserved": "",
      "salt": "0x8caeabc2ba3e79f7615e4f09bad9df4d25d8d9796f4b4a9ba42cb3a0a0f167b0",
      "assetIds": [
        "55464657044963196816950587289035428064568320970692304673817341489687941879808",
        "55464657044963196816950587289035428064568320970692304673817341489687933519880",
        "55464657044963196816950587289035428064568320970692304673817341489687933519882",
        "55464657044963196816950587289035428064568320970692304673817341489687933519886",
        "55464657044963196816950587289035428064568320970692304673817341489687933519883"
      ]
    },
    {
      "x": 9,
      "y": 66,
      "size": 1,
      "price": "4683000000000000000000",
      "reserved": "",
      "salt": "0x854ff44645db3995b3f534c58ed0c5664faa34d7ff3dda97632bc768261fbb49",
      "assetIds": [
        "55464657044963196816950587289035428064568320970692304673817341489687941879808",
        "55464657044963196816950587289035428064568320970692304673817341489687933519880",
        "55464657044963196816950587289035428064568320970692304673817341489687933519882",
        "55464657044963196816950587289035428064568320970692304673817341489687933519886",
        "55464657044963196816950587289035428064568320970692304673817341489687933519883"
      ]
    },
    {
      "x": 9,
      "y": 67,
      "size": 1,
      "price": "1011000000000000000000",
      "reserved": "",
      "salt": "0x74a01bd845f766b17552c7295fc7c400bae460f52aff4332922fa247705280e0",
      "assetIds": []
    },
    {
      "x": 9,
      "y": 68,
      "size": 1,
      "price": "1011000000000000000000",
      "reserved": "0x7a9fe22691c811ea339d9b73150e6911a5343dca",
      "salt": "0x4b7911a7d4036f5cb23087ca5df0a7cf6c26c23178f005dec7c714c03cf1b4df",
      "assetIds": []
    },
    {
      "x": 9,
      "y": 69,
      "size": 1,
      "price": "1011000000000000000000",
      "reserved": "",
      "salt": "0x3e84c7cf4884826da3c9510e3cff654b15b2899e5ff09fc85abe4605efdc43a5",
      "assetIds": []
    },
    {
      "x": 9,
      "y": 70,
      "size": 1,
      "price": "1011000000000000000000",
      "reserved": "",
      "salt": "0x1e1b5f88d2df0aac6de466c69abf69cbb93d936cffa93c4a43f26dfef9120a02",
      "assetIds": []
    },
    {
      "x": 9,
      "y": 71,
      "size": 1,
      "price": "1011000000000000000000",
      "reserved": "",
      "salt": "0x1abc6ba961835f43b90141a5d039d08e1acf119d84092df0c6fc0ff42d0f8af2",
      "assetIds": []
    },
    {
      "x": 9,
      "y": 90,
      "size": 1,
      "price": "1011000000000000000000",
      "reserved": "",
      "salt": "0x99e688c055add627509c3bf4558ae4d0735e7cf337d60b1f98ea6865c589f53b",
      "assetIds": []
    },
    {
      "x": 9,
      "y": 91,
      "size": 1,
      "price": "1011000000000000000000",
      "reserved": "",
      "salt": "0xf74475fe61bfa2d7c28fa8abd86069e7cbdbcd8f636e7caa7d291ba4286a2aac",
      "assetIds": []
    },
    {
      "x": 9,
      "y": 92,
      "size": 1,
      "price": "1011000000000000000000",
      "reserved": "",
      "salt": "0x184d34e4d9a633bbe3c4f8c70b1dc299f2ac9e7b36c0cf84d8eb30be5308dc44",
      "assetIds": []
    },
    {
      "x": 9,
      "y": 93,
      "size": 1,
      "price": "1011000000000000000000",
      "reserved": "",
      "salt": "0x5519d8eb1643bb5d62e476187e957d24b2bccbe7bf3457c2473b487088d5afd3",
      "assetIds": []
    },
    {
      "x": 9,
      "y": 94,
      "size": 1,
      "price": "1011000000000000000000",
      "reserved": "",
      "salt": "0x5dba9851cb2b791ebe0e38d5ac90a524d32b7c01ee77f48aee6733cb059e516f",
      "assetIds": []
    },
    {
      "x": 9,
      "y": 95,
      "size": 1,
      "price": "1011000000000000000000",
      "reserved": "0x7a9fe22691c811ea339d9b73150e6911a5343dca",
      "salt": "0x304051f89ac997695f0a64a0f6b98cbe3f49becf319dfac42db35222f8ffe8f2",
      "assetIds": []
    },
    {
      "x": 10,
      "y": 39,
      "size": 1,
      "price": "1011000000000000000000",
      "reserved": "0x7a9fe22691c811ea339d9b73150e6911a5343dca",
      "salt": "0x1bf5521cb96857303341618a911532e5737c41cf355abac229afb77e53f3da1b",
      "assetIds": []
    },
    {
      "x": 10,
      "y": 40,
      "size": 1,
      "price": "1011000000000000000000",
      "reserved": "",
      "salt": "0xf59b8769e506bef2e7e0813108109945ee4aaad3c4a92527f08b167796be4937",
      "assetIds": []
    },
    {
      "x": 10,
      "y": 41,
      "size": 1,
      "price": "1011000000000000000000",
      "reserved": "",
      "salt": "0xebce092dcca44df74c23f67408a63fad52690f1cf3aefdeb71973bdd84569790",
      "assetIds": []
    },
    {
      "x": 10,
      "y": 45,
      "size": 1,
      "price": "1011000000000000000000",
      "reserved": "",
      "salt": "0x63413d28d78b954ccb47131449479421f2cf5fd12747e34608d1feab3f3fbe12",
      "assetIds": []
    },
    {
      "x": 10,
      "y": 46,
      "size": 1,
      "price": "1011000000000000000000",
      "reserved": "",
      "salt": "0x7663abdb0eb50422c49d57f770a05d885523533f58cd82293973278a9ee80879",
      "assetIds": []
    },
    {
      "x": 10,
      "y": 47,
      "size": 1,
      "price": "1011000000000000000000",
      "reserved": "",
      "salt": "0x5c04892e03f61933e485a24a01e6620c438f99ab77b7754ee99412f1bb41c53a",
      "assetIds": []
    },
    {
      "x": 10,
      "y": 48,
      "size": 1,
      "price": "1011000000000000000000",
      "reserved": "",
      "salt": "0xf16cddbc5f13f225bc6124d3c758f8aa703ca267e849708dec1581b1920ba645",
      "assetIds": []
    },
    {
      "x": 10,
      "y": 49,
      "size": 1,
      "price": "1011000000000000000000",
      "reserved": "0x7a9fe22691c811ea339d9b73150e6911a5343dca",
      "salt": "0xdfc36ae048c80e7fd00b72f74a08f9d5b2d15ad7429caa45b32f6e0752b13fac",
      "assetIds": []
    },
    {
      "x": 10,
      "y": 50,
      "size": 1,
      "price": "1011000000000000000000",
      "reserved": "",
      "salt": "0x8a9aebd632091403815270de817177241c39bcece0076556549cef6c4cb518dc",
      "assetIds": []
    },
    {
      "x": 10,
      "y": 51,
      "size": 1,
      "price": "1011000000000000000000",
      "reserved": "",
      "salt": "0x7f8746759594187a99d27f993e44d55bd8ba2bdd5e3e2488973a366598ad8895",
      "assetIds": []
    },
    {
      "x": 10,
      "y": 52,
      "size": 1,
      "price": "1011000000000000000000",
      "reserved": "0x7a9fe22691c811ea339d9b73150e6911a5343dca",
      "salt": "0x485e430435bf8672fd671855d4bc17585e5ef520cae3fa014804bc59f77b31d4",
      "assetIds": []
    },
    {
      "x": 10,
      "y": 53,
      "size": 1,
      "price": "1011000000000000000000",
      "reserved": "",
      "salt": "0x607c59de5c694a4bbe8301ec60636c0b9bf99241ccece1bf3118cebab9958f96",
      "assetIds": []
    },
    {
      "x": 10,
      "y": 60,
      "size": 1,
      "price": "4683000000000000000000",
      "reserved": "",
      "salt": "0x673e9759ab853ad8f40a616b14ec5d89cfa6311a3e45ea41e3be70855773c691",
      "assetIds": [
        "55464657044963196816950587289035428064568320970692304673817341489687941879808",
        "55464657044963196816950587289035428064568320970692304673817341489687933519880",
        "55464657044963196816950587289035428064568320970692304673817341489687933519882",
        "55464657044963196816950587289035428064568320970692304673817341489687933519886",
        "55464657044963196816950587289035428064568320970692304673817341489687933519883"
      ]
    },
    {
      "x": 10,
      "y": 61,
      "size": 1,
      "price": "4683000000000000000000",
      "reserved": "",
      "salt": "0xe7578641198f44b73b570b6c441fe004100366832e8d2e47eaeaea981ea27078",
      "assetIds": [
        "55464657044963196816950587289035428064568320970692304673817341489687941879808",
        "55464657044963196816950587289035428064568320970692304673817341489687933519880",
        "55464657044963196816950587289035428064568320970692304673817341489687933519882",
        "55464657044963196816950587289035428064568320970692304673817341489687933519886",
        "55464657044963196816950587289035428064568320970692304673817341489687933519883"
      ]
    },
    {
      "x": 10,
      "y": 62,
      "size": 1,
      "price": "4683000000000000000000",
      "reserved": "",
      "salt": "0xfc19d5a40b678464e96e9860fc9a1e1d964653cb0eedbe5f09812bc0aa5699c1",
      "assetIds": [
        "55464657044963196816950587289035428064568320970692304673817341489687941879808",
        "55464657044963196816950587289035428064568320970692304673817341489687933519880",
        "55464657044963196816950587289035428064568320970692304673817341489687933519882",
        "55464657044963196816950587289035428064568320970692304673817341489687933519886",
        "55464657044963196816950587289035428064568320970692304673817341489687933519883"
      ]
    },
    {
      "x": 10,
      "y": 63,
      "size": 1,
      "price": "4683000000000000000000",
      "reserved": "",
      "salt": "0xb9095ee52e1d8d3fe8ede4da55d618263f2cccee9188a3672a69623134a22a2a",
      "assetIds": [
        "55464657044963196816950587289035428064568320970692304673817341489687941879808",
        "55464657044963196816950587289035428064568320970692304673817341489687933519880",
        "55464657044963196816950587289035428064568320970692304673817341489687933519882",
        "55464657044963196816950587289035428064568320970692304673817341489687933519886",
        "55464657044963196816950587289035428064568320970692304673817341489687933519883"
      ]
    },
    {
      "x": 10,
      "y": 64,
      "size": 1,
      "price": "4683000000000000000000",
      "reserved": "",
      "salt": "0x3bc40e12f8d53cd0682f9a10a8bf319d0fe76df281ca039be923c0ade0502be7",
      "assetIds": [
        "55464657044963196816950587289035428064568320970692304673817341489687941879808",
        "55464657044963196816950587289035428064568320970692304673817341489687933519880",
        "55464657044963196816950587289035428064568320970692304673817341489687933519882",
        "55464657044963196816950587289035428064568320970692304673817341489687933519886",
        "55464657044963196816950587289035428064568320970692304673817341489687933519883"
      ]
    },
    {
      "x": 10,
      "y": 65,
      "size": 1,
      "price": "4683000000000000000000",
      "reserved": "",
      "salt": "0xf91b94b4125fbedafc41931205cac93cdab4f8da99e6e9ea1199ce942bc32cf0",
      "assetIds": [
        "55464657044963196816950587289035428064568320970692304673817341489687941879808",
        "55464657044963196816950587289035428064568320970692304673817341489687933519880",
        "55464657044963196816950587289035428064568320970692304673817341489687933519882",
        "55464657044963196816950587289035428064568320970692304673817341489687933519886",
        "55464657044963196816950587289035428064568320970692304673817341489687933519883"
      ]
    },
    {
      "x": 10,
      "y": 66,
      "size": 1,
      "price": "4683000000000000000000",
      "reserved": "",
      "salt": "0x62130a4881527ebd895ecf5aa8dc98c67c64045e838da237abc1f989b4eebc7f",
      "assetIds": [
        "55464657044963196816950587289035428064568320970692304673817341489687941879808",
        "55464657044963196816950587289035428064568320970692304673817341489687933519880",
        "55464657044963196816950587289035428064568320970692304673817341489687933519882",
        "55464657044963196816950587289035428064568320970692304673817341489687933519886",
        "55464657044963196816950587289035428064568320970692304673817341489687933519883"
      ]
    },
    {
      "x": 10,
      "y": 67,
      "size": 1,
      "price": "1011000000000000000000",
      "reserved": "",
      "salt": "0x6496a3c691799dff8c8df3a4d9c7e57c88ae8c3a57732950c285f85fb2f4af7d",
      "assetIds": []
    },
    {
      "x": 10,
      "y": 68,
      "size": 1,
      "price": "1011000000000000000000",
      "reserved": "",
      "salt": "0x4997880011b75cad55a56860ea1955bbbb4af576ee005153574b99e01d010b15",
      "assetIds": []
    },
    {
      "x": 10,
      "y": 69,
      "size": 1,
      "price": "1011000000000000000000",
      "reserved": "",
      "salt": "0x3debd02fbd1cece605618bc4d5bc2938384db26d35632306662e07a51a1d1a79",
      "assetIds": []
    },
    {
      "x": 10,
      "y": 70,
      "size": 1,
      "price": "1011000000000000000000",
      "reserved": "",
      "salt": "0xcfc3b2bc18c8a24268e2448da751a994d455d9cd1f179ffa4de75405276f8714",
      "assetIds": []
    },
    {
      "x": 10,
      "y": 71,
      "size": 1,
      "price": "1011000000000000000000",
      "reserved": "",
      "salt": "0xa01496c4e16deb290fa1d402f7c7d63f20433ac88b38c32cfefbd37ac0d29ad9",
      "assetIds": []
    },
    {
      "x": 10,
      "y": 90,
      "size": 1,
      "price": "1011000000000000000000",
      "reserved": "",
      "salt": "0x7115ec06c13c58c3af83ee0552b94fcbbe88e422e5070c564b25a56697c0d146",
      "assetIds": []
    },
    {
      "x": 10,
      "y": 91,
      "size": 1,
      "price": "1011000000000000000000",
      "reserved": "",
      "salt": "0x3eb2a440ee21e2793030c1bc6b1f3c7ccd9f1c8d7779d22f0c002e69fc2ce5eb",
      "assetIds": []
    },
    {
      "x": 10,
      "y": 92,
      "size": 1,
      "price": "1011000000000000000000",
      "reserved": "",
      "salt": "0x26ff37012a723745ed23517cfdaa37101fb243b0d7368647320107f3c3c233a2",
      "assetIds": []
    },
    {
      "x": 10,
      "y": 93,
      "size": 1,
      "price": "1011000000000000000000",
      "reserved": "",
      "salt": "0x988ef8984f7e84cd0d3ddf15626fa574c66f8776117e32a366aa8918d05442b2",
      "assetIds": []
    },
    {
      "x": 10,
      "y": 94,
      "size": 1,
      "price": "1011000000000000000000",
      "reserved": "",
      "salt": "0x75ff13edd27af882ea8a59e5cd69debb6da8f6a589b3a5f8f4e0f8b18292eed1",
      "assetIds": []
    },
    {
      "x": 10,
      "y": 95,
      "size": 1,
      "price": "1011000000000000000000",
      "reserved": "",
      "salt": "0xa54e565f4dfcba3543f5c6b41d5c225a639f6ee973498d00dea614341932c95e",
      "assetIds": []
    },
    {
      "x": 11,
      "y": 39,
      "size": 1,
      "price": "1011000000000000000000",
      "reserved": "0x7a9fe22691c811ea339d9b73150e6911a5343dca",
      "salt": "0xa0e902404875bcdce8bbcdf544adaabc3b0553eeac9af31d331227a00cb9f812",
      "assetIds": []
    },
    {
      "x": 11,
      "y": 40,
      "size": 1,
      "price": "1011000000000000000000",
      "reserved": "",
      "salt": "0x23d9f7bfffcf9106958032c3b5dc8fe87c3ed16bb6aa18c972061e12948dc79b",
      "assetIds": []
    },
    {
      "x": 11,
      "y": 41,
      "size": 1,
      "price": "1011000000000000000000",
      "reserved": "",
      "salt": "0xfef5a401164a0d3715e2c35abb78973c492eb9c4f54434f4c6618c3e7d482650",
      "assetIds": []
    },
    {
      "x": 11,
      "y": 45,
      "size": 1,
      "price": "1011000000000000000000",
      "reserved": "",
      "salt": "0x3efa57bee70537d1d6a33580b665c655ff5616bf2c53757bd1c4ab2de8f45e18",
      "assetIds": []
    },
    {
      "x": 11,
      "y": 46,
      "size": 1,
      "price": "1011000000000000000000",
      "reserved": "",
      "salt": "0x5bde561f48e2183e43970e7c492669c70d3e808fd4d51d26564aea453e986d61",
      "assetIds": []
    },
    {
      "x": 11,
      "y": 47,
      "size": 1,
      "price": "1011000000000000000000",
      "reserved": "",
      "salt": "0x12bbd379f91618cc73889e02ddb04c893633005d6ec89b51b2f6e07906d17e43",
      "assetIds": []
    },
    {
      "x": 11,
      "y": 48,
      "size": 1,
      "price": "1011000000000000000000",
      "reserved": "",
      "salt": "0x95e31e848ef821a86114f467a9a98915c98e995c655480937f816a8b9e74a9ea",
      "assetIds": []
    },
    {
      "x": 11,
      "y": 49,
      "size": 1,
      "price": "1011000000000000000000",
      "reserved": "",
      "salt": "0x1a016896461e2b8b51d88a7b9de1a71df800ea294de4201dc50912130cb1a299",
      "assetIds": []
    },
    {
      "x": 11,
      "y": 50,
      "size": 1,
      "price": "1011000000000000000000",
      "reserved": "",
      "salt": "0xdec200908c49d6e19dc71261222eed9a692cb0fc3ca932726563191aa3cc8a00",
      "assetIds": []
    },
    {
      "x": 11,
      "y": 51,
      "size": 1,
      "price": "1011000000000000000000",
      "reserved": "",
      "salt": "0x4382c47af59fd352b841d92c051631f09673929625d9c0905f32878abb1d8a76",
      "assetIds": []
    },
    {
      "x": 11,
      "y": 52,
      "size": 1,
      "price": "4683000000000000000000",
      "reserved": "",
      "salt": "0xb17a8f1438f6791a75886dafb6eca9715cbdbebfb6aa4c170d73918cb3e0b77d",
      "assetIds": [
        "55464657044963196816950587289035428064568320970692304673817341489687941879808",
        "55464657044963196816950587289035428064568320970692304673817341489687933519880",
        "55464657044963196816950587289035428064568320970692304673817341489687933519882",
        "55464657044963196816950587289035428064568320970692304673817341489687933519886",
        "55464657044963196816950587289035428064568320970692304673817341489687933519883"
      ]
    },
    {
      "x": 11,
      "y": 53,
      "size": 1,
      "price": "4683000000000000000000",
      "reserved": "",
      "salt": "0xeecd115ef1326726a71d4b42b5f045437d82335ccb85554cf1da33d457ba0d4f",
      "assetIds": [
        "55464657044963196816950587289035428064568320970692304673817341489687941879808",
        "55464657044963196816950587289035428064568320970692304673817341489687933519880",
        "55464657044963196816950587289035428064568320970692304673817341489687933519882",
        "55464657044963196816950587289035428064568320970692304673817341489687933519886",
        "55464657044963196816950587289035428064568320970692304673817341489687933519883"
      ]
    },
    {
      "x": 11,
      "y": 60,
      "size": 1,
      "price": "4683000000000000000000",
      "reserved": "",
      "salt": "0xeab6ce2e5a9aa1fa014cdc5efe8fda6573393ff877adb782dc91293c753cdc06",
      "assetIds": [
        "55464657044963196816950587289035428064568320970692304673817341489687941879808",
        "55464657044963196816950587289035428064568320970692304673817341489687933519880",
        "55464657044963196816950587289035428064568320970692304673817341489687933519882",
        "55464657044963196816950587289035428064568320970692304673817341489687933519886",
        "55464657044963196816950587289035428064568320970692304673817341489687933519883"
      ]
    },
    {
      "x": 11,
      "y": 61,
      "size": 1,
      "price": "4683000000000000000000",
      "reserved": "",
      "salt": "0x55145b6589338a998089bb4b3af6a77ca641edc286fc3e29f45098c9a98fa7ba",
      "assetIds": [
        "55464657044963196816950587289035428064568320970692304673817341489687941879808",
        "55464657044963196816950587289035428064568320970692304673817341489687933519880",
        "55464657044963196816950587289035428064568320970692304673817341489687933519882",
        "55464657044963196816950587289035428064568320970692304673817341489687933519886",
        "55464657044963196816950587289035428064568320970692304673817341489687933519883"
      ]
    },
    {
      "x": 11,
      "y": 62,
      "size": 1,
      "price": "4683000000000000000000",
      "reserved": "",
      "salt": "0x6bcb4272dd2a6cdc0dafe55c2378a18b09801a2ce722224f9558a51709a36586",
      "assetIds": [
        "55464657044963196816950587289035428064568320970692304673817341489687941879808",
        "55464657044963196816950587289035428064568320970692304673817341489687933519880",
        "55464657044963196816950587289035428064568320970692304673817341489687933519882",
        "55464657044963196816950587289035428064568320970692304673817341489687933519886",
        "55464657044963196816950587289035428064568320970692304673817341489687933519883"
      ]
    },
    {
      "x": 11,
      "y": 63,
      "size": 1,
      "price": "4683000000000000000000",
      "reserved": "",
      "salt": "0xc4fc0f8417fe0aefd34c2dde882795a3aa724f02651fab8735f8adaba80ebe68",
      "assetIds": [
        "55464657044963196816950587289035428064568320970692304673817341489687941879808",
        "55464657044963196816950587289035428064568320970692304673817341489687933519880",
        "55464657044963196816950587289035428064568320970692304673817341489687933519882",
        "55464657044963196816950587289035428064568320970692304673817341489687933519886",
        "55464657044963196816950587289035428064568320970692304673817341489687933519883"
      ]
    },
    {
      "x": 11,
      "y": 64,
      "size": 1,
      "price": "4683000000000000000000",
      "reserved": "",
      "salt": "0x3fdbad2e7a72927182f8c0dbd9a77dfd756b883071c424e3827dbfda1e30304f",
      "assetIds": [
        "55464657044963196816950587289035428064568320970692304673817341489687941879808",
        "55464657044963196816950587289035428064568320970692304673817341489687933519880",
        "55464657044963196816950587289035428064568320970692304673817341489687933519882",
        "55464657044963196816950587289035428064568320970692304673817341489687933519886",
        "55464657044963196816950587289035428064568320970692304673817341489687933519883"
      ]
    },
    {
      "x": 11,
      "y": 65,
      "size": 1,
      "price": "4683000000000000000000",
      "reserved": "",
      "salt": "0x044779363ea5e01b6b6247e64e957662a3f82e4fcea18233789f8db4aeeb51e8",
      "assetIds": [
        "55464657044963196816950587289035428064568320970692304673817341489687941879808",
        "55464657044963196816950587289035428064568320970692304673817341489687933519880",
        "55464657044963196816950587289035428064568320970692304673817341489687933519882",
        "55464657044963196816950587289035428064568320970692304673817341489687933519886",
        "55464657044963196816950587289035428064568320970692304673817341489687933519883"
      ]
    },
    {
      "x": 11,
      "y": 66,
      "size": 1,
      "price": "1011000000000000000000",
      "reserved": "0x7a9fe22691c811ea339d9b73150e6911a5343dca",
      "salt": "0x90a4cdd5a3363ca37865ae62bf0199ddbaa1e5e56504ff0b5362d25c3bf697e3",
      "assetIds": []
    },
    {
      "x": 11,
      "y": 67,
      "size": 1,
      "price": "1011000000000000000000",
      "reserved": "",
      "salt": "0x0175e1691e7b13fea4db2aa1d4d611d237f1c77c23c308828354f5ecf424c08a",
      "assetIds": []
    },
    {
      "x": 11,
      "y": 68,
      "size": 1,
      "price": "1011000000000000000000",
      "reserved": "",
      "salt": "0x6ef3133482b0906f39ff6610351e14f3be512528bde80b3192ca9483b7c351eb",
      "assetIds": []
    },
    {
      "x": 11,
      "y": 69,
      "size": 1,
      "price": "1011000000000000000000",
      "reserved": "",
      "salt": "0x6ed43bf278c56341f7d303fb023c7755bb85751348f8f5b78021f2b25baf8b49",
      "assetIds": []
    },
    {
      "x": 11,
      "y": 70,
      "size": 1,
      "price": "1011000000000000000000",
      "reserved": "",
      "salt": "0x45529919fa05ed723a714d127375dec55f7aea7cfa698cf2688aa747346861c3",
      "assetIds": []
    },
    {
      "x": 11,
      "y": 71,
      "size": 1,
      "price": "1011000000000000000000",
      "reserved": "",
      "salt": "0x2caf9e7cc0c6249253b52efda8430f421b28b45539dbc5b11a1df36bd6775b52",
      "assetIds": []
    },
    {
      "x": 11,
      "y": 90,
      "size": 1,
      "price": "1011000000000000000000",
      "reserved": "",
      "salt": "0x81e4ce3fad28d1dcde9c2d242fb920d196465a0729e7e4f68d4706e560382e77",
      "assetIds": []
    },
    {
      "x": 11,
      "y": 91,
      "size": 1,
      "price": "1011000000000000000000",
      "reserved": "",
      "salt": "0xcedfb1d4bf10b263fdf18c85a8da05af1094eaa288e5c477b2b2e0b4cf63e49e",
      "assetIds": []
    },
    {
      "x": 11,
      "y": 92,
      "size": 1,
      "price": "1011000000000000000000",
      "reserved": "",
      "salt": "0x6480d0e21e32970e76942c61108f53f0d72c93e66f7f0cd6779fd6035a19b515",
      "assetIds": []
    },
    {
      "x": 11,
      "y": 93,
      "size": 1,
      "price": "1011000000000000000000",
      "reserved": "",
      "salt": "0x458f97d3bdfa70bffb5ebb4b69e9cacff7bc8322915f0c9747f6488d1340c0ab",
      "assetIds": []
    },
    {
      "x": 11,
      "y": 94,
      "size": 1,
      "price": "1011000000000000000000",
      "reserved": "",
      "salt": "0x6cb99851f2d8da156fd227516b01a01d9e2c88ddc1d7768d7cfef9d42d6ef6ec",
      "assetIds": []
    },
    {
      "x": 11,
      "y": 95,
      "size": 1,
      "price": "1011000000000000000000",
      "reserved": "0x7a9fe22691c811ea339d9b73150e6911a5343dca",
      "salt": "0x474508433efcad9a5de45086fe1060085aa7f7624a84b0f1ee0545d5e1bc4fac",
      "assetIds": []
    },
    {
      "x": 12,
      "y": 39,
      "size": 1,
      "price": "1011000000000000000000",
      "reserved": "0x7a9fe22691c811ea339d9b73150e6911a5343dca",
      "salt": "0xad76adc559b14e0d34b5a4e803eaa7aa701ba62fa620fe3409b6d8dad2bb173c",
      "assetIds": []
    },
    {
      "x": 12,
      "y": 40,
      "size": 1,
      "price": "1011000000000000000000",
      "reserved": "",
      "salt": "0x4fe361904462a4fe9254b8b55eb08b31a67e86b882726a7e7b46a45f419fabcd",
      "assetIds": []
    },
    {
      "x": 12,
      "y": 41,
      "size": 1,
      "price": "1011000000000000000000",
      "reserved": "",
      "salt": "0x778581c0c3f1bbf71915e1a13249079a9af753f477d8266962783cf6726af1b1",
      "assetIds": []
    },
    {
      "x": 12,
      "y": 42,
      "size": 1,
      "price": "1011000000000000000000",
      "reserved": "",
      "salt": "0x1f7bd6d0e761f1b885340a13723ffadfb8924f5b37fc4aaab307f05868af38a0",
      "assetIds": []
    },
    {
      "x": 12,
      "y": 43,
      "size": 1,
      "price": "1011000000000000000000",
      "reserved": "",
      "salt": "0x192eaab5805fd4ad09d10f6a48d6e6ad1601fcbdca32b94e97d94d8386db1371",
      "assetIds": []
    },
    {
      "x": 12,
      "y": 44,
      "size": 1,
      "price": "1011000000000000000000",
      "reserved": "0x7a9fe22691c811ea339d9b73150e6911a5343dca",
      "salt": "0x10da5143508c6878e564d71250c1917b3e74272f8dfaf7686d70f4a12902a2dd",
      "assetIds": []
    },
    {
      "x": 12,
      "y": 45,
      "size": 1,
      "price": "1011000000000000000000",
      "reserved": "",
      "salt": "0x9c581186d1c6e9e9c505288ec43a9e26c91769b5a93b75939fdda8ea58fdf637",
      "assetIds": []
    },
    {
      "x": 12,
      "y": 46,
      "size": 1,
      "price": "1011000000000000000000",
      "reserved": "",
      "salt": "0x6043601a065fc7d7869f4aa0c9b58c780cbd3a47fe4cfaad4410f163fbec5587",
      "assetIds": []
    },
    {
      "x": 12,
      "y": 47,
      "size": 1,
      "price": "1011000000000000000000",
      "reserved": "0x7a9fe22691c811ea339d9b73150e6911a5343dca",
      "salt": "0xc339e169416a9d764f4aed5d3ce27724fb003d2ba7b281b93ff2815852090ecb",
      "assetIds": []
    },
    {
      "x": 12,
      "y": 48,
      "size": 1,
      "price": "1011000000000000000000",
      "reserved": "",
      "salt": "0x3ae38bbe45f81db5a60ca04df889fa633a3ad532a7c999d182bdb9049cc564c8",
      "assetIds": []
    },
    {
      "x": 12,
      "y": 49,
      "size": 1,
      "price": "1011000000000000000000",
      "reserved": "0x7a9fe22691c811ea339d9b73150e6911a5343dca",
      "salt": "0x2aea86abeadbbcfa01f43a0100ae582dddfb4a6297eecff271170894e1480c4e",
      "assetIds": []
    },
    {
      "x": 12,
      "y": 50,
      "size": 1,
      "price": "1011000000000000000000",
      "reserved": "",
      "salt": "0x2001d8c8103a0a9eb8ab45452d089844489d29545fe698578e6dbb761e56ac9b",
      "assetIds": []
    },
    {
      "x": 12,
      "y": 51,
      "size": 1,
      "price": "1011000000000000000000",
      "reserved": "0x7a9fe22691c811ea339d9b73150e6911a5343dca",
      "salt": "0x9cbc910fa9c72dfbc5eaf0308cd93e2f6e9b5ad2168c2b37923f84794c68449b",
      "assetIds": []
    },
    {
      "x": 12,
      "y": 52,
      "size": 1,
      "price": "4683000000000000000000",
      "reserved": "",
      "salt": "0x1147150f6ec022d1a5f8ece3a44d4bbd3b6169836b04927ceaec68f469487441",
      "assetIds": [
        "55464657044963196816950587289035428064568320970692304673817341489687941879808",
        "55464657044963196816950587289035428064568320970692304673817341489687933519880",
        "55464657044963196816950587289035428064568320970692304673817341489687933519882",
        "55464657044963196816950587289035428064568320970692304673817341489687933519886",
        "55464657044963196816950587289035428064568320970692304673817341489687933519883"
      ]
    },
    {
      "x": 12,
      "y": 53,
      "size": 1,
      "price": "4683000000000000000000",
      "reserved": "",
      "salt": "0x2011e3fa08f7ad639522d05493df3558cab2e46235d53f34b5cb01ee60d72b99",
      "assetIds": [
        "55464657044963196816950587289035428064568320970692304673817341489687941879808",
        "55464657044963196816950587289035428064568320970692304673817341489687933519880",
        "55464657044963196816950587289035428064568320970692304673817341489687933519882",
        "55464657044963196816950587289035428064568320970692304673817341489687933519886",
        "55464657044963196816950587289035428064568320970692304673817341489687933519883"
      ]
    },
    {
      "x": 12,
      "y": 54,
      "size": 1,
      "price": "4683000000000000000000",
      "reserved": "",
      "salt": "0xf80c4731eb9f31f125f78c802dd2883c4a1a701d1f6426af6dd4ac7ef7bd5092",
      "assetIds": [
        "55464657044963196816950587289035428064568320970692304673817341489687941879808",
        "55464657044963196816950587289035428064568320970692304673817341489687933519880",
        "55464657044963196816950587289035428064568320970692304673817341489687933519882",
        "55464657044963196816950587289035428064568320970692304673817341489687933519886",
        "55464657044963196816950587289035428064568320970692304673817341489687933519883"
      ]
    },
    {
      "x": 12,
      "y": 55,
      "size": 1,
      "price": "4683000000000000000000",
      "reserved": "",
      "salt": "0x0c31834381d8d1dfd7d4f83bedc080ee9bd27c01deb8fa00cc5dbaa8984e5ed9",
      "assetIds": [
        "55464657044963196816950587289035428064568320970692304673817341489687941879808",
        "55464657044963196816950587289035428064568320970692304673817341489687933519880",
        "55464657044963196816950587289035428064568320970692304673817341489687933519882",
        "55464657044963196816950587289035428064568320970692304673817341489687933519886",
        "55464657044963196816950587289035428064568320970692304673817341489687933519883"
      ]
    },
    {
      "x": 12,
      "y": 56,
      "size": 1,
      "price": "4683000000000000000000",
      "reserved": "",
      "salt": "0xbe76c7d61408c6f5a23cae88723edb7c82c26a50a11530aa46b8e27f1b99cf24",
      "assetIds": [
        "55464657044963196816950587289035428064568320970692304673817341489687941879808",
        "55464657044963196816950587289035428064568320970692304673817341489687933519880",
        "55464657044963196816950587289035428064568320970692304673817341489687933519882",
        "55464657044963196816950587289035428064568320970692304673817341489687933519886",
        "55464657044963196816950587289035428064568320970692304673817341489687933519883"
      ]
    },
    {
      "x": 12,
      "y": 63,
      "size": 1,
      "price": "4683000000000000000000",
      "reserved": "",
      "salt": "0xa437bdea82c258864e3b02695698002b061a6a4e61642e73f4d6863f03dd3d04",
      "assetIds": [
        "55464657044963196816950587289035428064568320970692304673817341489687941879808",
        "55464657044963196816950587289035428064568320970692304673817341489687933519880",
        "55464657044963196816950587289035428064568320970692304673817341489687933519882",
        "55464657044963196816950587289035428064568320970692304673817341489687933519886",
        "55464657044963196816950587289035428064568320970692304673817341489687933519883"
      ]
    },
    {
      "x": 12,
      "y": 64,
      "size": 1,
      "price": "4683000000000000000000",
      "reserved": "",
      "salt": "0xfe0ad0e5553c06c40c7128537e21eaa734c113156f06992e7f3fb91aae4d2fc6",
      "assetIds": [
        "55464657044963196816950587289035428064568320970692304673817341489687941879808",
        "55464657044963196816950587289035428064568320970692304673817341489687933519880",
        "55464657044963196816950587289035428064568320970692304673817341489687933519882",
        "55464657044963196816950587289035428064568320970692304673817341489687933519886",
        "55464657044963196816950587289035428064568320970692304673817341489687933519883"
      ]
    },
    {
      "x": 12,
      "y": 65,
      "size": 1,
      "price": "4683000000000000000000",
      "reserved": "",
      "salt": "0x68d284305b53fda399726061bd58d8d889cb6f406f2d95bcf8d75c8b56ef07dd",
      "assetIds": [
        "55464657044963196816950587289035428064568320970692304673817341489687941879808",
        "55464657044963196816950587289035428064568320970692304673817341489687933519880",
        "55464657044963196816950587289035428064568320970692304673817341489687933519882",
        "55464657044963196816950587289035428064568320970692304673817341489687933519886",
        "55464657044963196816950587289035428064568320970692304673817341489687933519883"
      ]
    },
    {
      "x": 12,
      "y": 66,
      "size": 1,
      "price": "4683000000000000000000",
      "reserved": "",
      "salt": "0x8268656c03f51b7ec3df6e17d9305420b50e397b5c515e55c8cb57b0512958bd",
      "assetIds": [
        "55464657044963196816950587289035428064568320970692304673817341489687941879808",
        "55464657044963196816950587289035428064568320970692304673817341489687933519880",
        "55464657044963196816950587289035428064568320970692304673817341489687933519882",
        "55464657044963196816950587289035428064568320970692304673817341489687933519886",
        "55464657044963196816950587289035428064568320970692304673817341489687933519883"
      ]
    },
    {
      "x": 12,
      "y": 67,
      "size": 1,
      "price": "1011000000000000000000",
      "reserved": "",
      "salt": "0xf76ae350101c08a4813b2a08f697e3dc8911583e70c8e92f2293138368c2464e",
      "assetIds": []
    },
    {
      "x": 12,
      "y": 68,
      "size": 1,
      "price": "1011000000000000000000",
      "reserved": "",
      "salt": "0x89d156a479feaf7d23a298f7d6e62bb0581bbbe07de7f2b05daf37bea61736ef",
      "assetIds": []
    },
    {
      "x": 12,
      "y": 69,
      "size": 1,
      "price": "1011000000000000000000",
      "reserved": "",
      "salt": "0xd20a182b409782b4dfb3adbc3ea2d519b14f089bcf02f83a2c1d5f5033fab72c",
      "assetIds": []
    },
    {
      "x": 12,
      "y": 70,
      "size": 1,
      "price": "1011000000000000000000",
      "reserved": "",
      "salt": "0xeb859c128040523d455f71a3629b2c9653f5d5aacecc2c4befcd7107d01a324e",
      "assetIds": []
    },
    {
      "x": 12,
      "y": 71,
      "size": 1,
      "price": "1011000000000000000000",
      "reserved": "",
      "salt": "0x35a2f779acf82042b2523d4ded4692b3677e2183e9b61cfeb9293ce9c1f86782",
      "assetIds": []
    },
    {
      "x": 12,
      "y": 78,
      "size": 1,
      "price": "1011000000000000000000",
      "reserved": "",
      "salt": "0x9c552336ae71525109eba0c0dbad912ecb5c5c875a488df8a75b217120c4bf5f",
      "assetIds": []
    },
    {
      "x": 12,
      "y": 79,
      "size": 1,
      "price": "1011000000000000000000",
      "reserved": "",
      "salt": "0x54a73fbb552c7d7ff475ec6a0f41f067f1b1635d4e264986eca67c42d4b0a439",
      "assetIds": []
    },
    {
      "x": 12,
      "y": 80,
      "size": 1,
      "price": "1011000000000000000000",
      "reserved": "0x7a9fe22691c811ea339d9b73150e6911a5343dca",
      "salt": "0xe0efc15e600ffd06162bbf0805197b717322b8f1a4ebf86398776e945e334a13",
      "assetIds": []
    },
    {
      "x": 12,
      "y": 81,
      "size": 1,
      "price": "1011000000000000000000",
      "reserved": "",
      "salt": "0x78a102a4c080f3436aa28fdd64d5d1764e7db9c43a2607b93f9a37c2d5aa769b",
      "assetIds": []
    },
    {
      "x": 12,
      "y": 82,
      "size": 1,
      "price": "1011000000000000000000",
      "reserved": "",
      "salt": "0xae762a5857d7c273e48033fa1635f5e0243a8553413dacc9072d6fe3cc0492a4",
      "assetIds": []
    },
    {
      "x": 12,
      "y": 83,
      "size": 1,
      "price": "1011000000000000000000",
      "reserved": "",
      "salt": "0xc956795c5c605b03f0fe5d663e7762fd6c68ae436956c67f9b33445ae7aa7819",
      "assetIds": []
    },
    {
      "x": 12,
      "y": 84,
      "size": 1,
      "price": "1011000000000000000000",
      "reserved": "",
      "salt": "0x001f5f128f007edb47daaf25335ddb8b48ef7149cfcd99bbc271ba1d106e766c",
      "assetIds": []
    },
    {
      "x": 12,
      "y": 85,
      "size": 1,
      "price": "1011000000000000000000",
      "reserved": "",
      "salt": "0x36361c5fadd918348cbadae92b64d75d72b9d67bb3a12f978c3ce35b6e02a00d",
      "assetIds": []
    },
    {
      "x": 12,
      "y": 86,
      "size": 1,
      "price": "1011000000000000000000",
      "reserved": "",
      "salt": "0x7be33b7a7c703b2124983385c1fc8e0ec8474bf130f54883f8d9f88b1ae340d5",
      "assetIds": []
    },
    {
      "x": 12,
      "y": 87,
      "size": 1,
      "price": "1011000000000000000000",
      "reserved": "",
      "salt": "0xb44f32a09944571b4250677449f3b50b0e74557ea9b1e5e8649f0174470556ed",
      "assetIds": []
    },
    {
      "x": 12,
      "y": 88,
      "size": 1,
      "price": "1011000000000000000000",
      "reserved": "",
      "salt": "0x05ff03133d4807c8aba1ec072a03c0140ebc1ddb90b1d261548ad5d7b7b1c50a",
      "assetIds": []
    },
    {
      "x": 12,
      "y": 89,
      "size": 1,
      "price": "1011000000000000000000",
      "reserved": "",
      "salt": "0x8c9fb2f86e9f98c76baccca7ca0b7baa1578da2c9286477233ae34c5747cb3b0",
      "assetIds": []
    },
    {
      "x": 12,
      "y": 90,
      "size": 1,
      "price": "1011000000000000000000",
      "reserved": "",
      "salt": "0x28b17209207479fdb81c05192cfa4b65c929c0167da0069099f669456d755767",
      "assetIds": []
    },
    {
      "x": 12,
      "y": 91,
      "size": 1,
      "price": "1011000000000000000000",
      "reserved": "0x7a9fe22691c811ea339d9b73150e6911a5343dca",
      "salt": "0xd45e462ae7621c64dd344ebb46e95be663ed1f3c49314b36b7338508ca169232",
      "assetIds": []
    },
    {
      "x": 12,
      "y": 92,
      "size": 1,
      "price": "1011000000000000000000",
      "reserved": "",
      "salt": "0x1acb4758164c1a3bc0aee9a6f8ede7d6b30e35c362deb612f63e2221acf5dd32",
      "assetIds": []
    },
    {
      "x": 12,
      "y": 93,
      "size": 1,
      "price": "1011000000000000000000",
      "reserved": "",
      "salt": "0xd97d860e4c2574a285c6781708dd70eae6ac93c0a2e63f675a883c696b1c9459",
      "assetIds": []
    },
    {
      "x": 12,
      "y": 94,
      "size": 1,
      "price": "1011000000000000000000",
      "reserved": "",
      "salt": "0x09e2bbdc2dac453becbeffdef1e31dc944f9bfa982761900e32ee83643263075",
      "assetIds": []
    },
    {
      "x": 12,
      "y": 95,
      "size": 1,
      "price": "1011000000000000000000",
      "reserved": "",
      "salt": "0x6c3a09c8bd83ac7847857e9331c76b9c1a4d68b149391a450a79a1205a8a8336",
      "assetIds": []
    },
    {
      "x": 13,
      "y": 39,
      "size": 1,
      "price": "1011000000000000000000",
      "reserved": "",
      "salt": "0xcf29593ab9924c8259a8b0815d594ed33d14e82420f3db7c3455de9d87679c5d",
      "assetIds": []
    },
    {
      "x": 13,
      "y": 40,
      "size": 1,
      "price": "1011000000000000000000",
      "reserved": "",
      "salt": "0xa47b9c392ef7e92b93db1b7bf7ef325b6c8ea61a2c87754838cadd03a14c7177",
      "assetIds": []
    },
    {
      "x": 13,
      "y": 41,
      "size": 1,
      "price": "1011000000000000000000",
      "reserved": "0x7a9fe22691c811ea339d9b73150e6911a5343dca",
      "salt": "0xd093054622d481519579d8db9e6b01d6019c01550c30e91e5f9dd10f0b4a4d8a",
      "assetIds": []
    },
    {
      "x": 13,
      "y": 42,
      "size": 1,
      "price": "1011000000000000000000",
      "reserved": "",
      "salt": "0xfa2840bc85ca658920bdcbb654d0fb1020ca4afa4dba82b2a5d7e7ea276dbdaf",
      "assetIds": []
    },
    {
      "x": 13,
      "y": 43,
      "size": 1,
      "price": "1011000000000000000000",
      "reserved": "",
      "salt": "0xe4742d8b713290d3b6929e6814bb0ba696bb97e8b74b6f226b6862e361275bdd",
      "assetIds": []
    },
    {
      "x": 13,
      "y": 44,
      "size": 1,
      "price": "1011000000000000000000",
      "reserved": "0x7a9fe22691c811ea339d9b73150e6911a5343dca",
      "salt": "0x3c52476e08ffa085d149e6a4169054f189cbf3818db22fae60abbc3c9c59062f",
      "assetIds": []
    },
    {
      "x": 13,
      "y": 45,
      "size": 1,
      "price": "1011000000000000000000",
      "reserved": "",
      "salt": "0xdcaf316a2ccaf20e6cd9547db3936f68d3e3e302b3c2ab330a19b3e2216ee781",
      "assetIds": []
    },
    {
      "x": 13,
      "y": 46,
      "size": 1,
      "price": "1011000000000000000000",
      "reserved": "",
      "salt": "0xfcb2d19ed6e7afbfe30d77426b74fe6b7c5a30f3e1307947c3f8b8eff3dcd564",
      "assetIds": []
    },
    {
      "x": 13,
      "y": 47,
      "size": 1,
      "price": "1011000000000000000000",
      "reserved": "",
      "salt": "0x20b0321f463481acba5927a37b89e1681e05be6edc2d383d432752f15966f32f",
      "assetIds": []
    },
    {
      "x": 13,
      "y": 48,
      "size": 1,
      "price": "1011000000000000000000",
      "reserved": "",
      "salt": "0x6dcfa610e96ea3fdc0dd61b4b8fee766beaede0328bcce616b9626dfd2c597ad",
      "assetIds": []
    },
    {
      "x": 13,
      "y": 49,
      "size": 1,
      "price": "1011000000000000000000",
      "reserved": "",
      "salt": "0x405a13bbc0561426bb652a478e517534e8c50e09f9a4f871e0517a6b708915bf",
      "assetIds": []
    },
    {
      "x": 13,
      "y": 50,
      "size": 1,
      "price": "1011000000000000000000",
      "reserved": "",
      "salt": "0x5e1adaa0802f8425ad95040a20925ef7b62b7f37946c5a6be38955a53e54f66d",
      "assetIds": []
    },
    {
      "x": 13,
      "y": 51,
      "size": 1,
      "price": "1011000000000000000000",
      "reserved": "",
      "salt": "0xefc04ddd970b62dc5b1f16dc68c9c71becfc68bcedf0a707d0eb449bee19fffc",
      "assetIds": []
    },
    {
      "x": 13,
      "y": 52,
      "size": 1,
      "price": "4683000000000000000000",
      "reserved": "",
      "salt": "0x79a3c17b862fbfca7042dcd362bed595988264d4b427345b39c5b46ca7947a77",
      "assetIds": [
        "55464657044963196816950587289035428064568320970692304673817341489687941879808",
        "55464657044963196816950587289035428064568320970692304673817341489687933519880",
        "55464657044963196816950587289035428064568320970692304673817341489687933519882",
        "55464657044963196816950587289035428064568320970692304673817341489687933519886",
        "55464657044963196816950587289035428064568320970692304673817341489687933519883"
      ]
    },
    {
      "x": 13,
      "y": 53,
      "size": 1,
      "price": "4683000000000000000000",
      "reserved": "",
      "salt": "0xf9f65cc0d163f64db36d7193b537ce5e46da2b0eefda4a5fd297e94e0dc78a47",
      "assetIds": [
        "55464657044963196816950587289035428064568320970692304673817341489687941879808",
        "55464657044963196816950587289035428064568320970692304673817341489687933519880",
        "55464657044963196816950587289035428064568320970692304673817341489687933519882",
        "55464657044963196816950587289035428064568320970692304673817341489687933519886",
        "55464657044963196816950587289035428064568320970692304673817341489687933519883"
      ]
    },
    {
      "x": 13,
      "y": 54,
      "size": 1,
      "price": "1011000000000000000000",
      "reserved": "0x7a9fe22691c811ea339d9b73150e6911a5343dca",
      "salt": "0xef18faffa635e579a9c7c7b33ef9848905ae396215f6ad2cadd3c56cacdc602e",
      "assetIds": []
    },
    {
      "x": 13,
      "y": 55,
      "size": 1,
      "price": "4683000000000000000000",
      "reserved": "",
      "salt": "0xee036c2a870c1639ee75d203cfe3f6bd339fbbaa6783558aaa081173379d6b55",
      "assetIds": [
        "55464657044963196816950587289035428064568320970692304673817341489687941879808",
        "55464657044963196816950587289035428064568320970692304673817341489687933519880",
        "55464657044963196816950587289035428064568320970692304673817341489687933519882",
        "55464657044963196816950587289035428064568320970692304673817341489687933519886",
        "55464657044963196816950587289035428064568320970692304673817341489687933519883"
      ]
    },
    {
      "x": 13,
      "y": 56,
      "size": 1,
      "price": "4683000000000000000000",
      "reserved": "",
      "salt": "0x889f4d8e3d14a37d8a886d9fdc5f10b114a356123b37e9942b73097437cdd228",
      "assetIds": [
        "55464657044963196816950587289035428064568320970692304673817341489687941879808",
        "55464657044963196816950587289035428064568320970692304673817341489687933519880",
        "55464657044963196816950587289035428064568320970692304673817341489687933519882",
        "55464657044963196816950587289035428064568320970692304673817341489687933519886",
        "55464657044963196816950587289035428064568320970692304673817341489687933519883"
      ]
    },
    {
      "x": 13,
      "y": 63,
      "size": 1,
      "price": "4683000000000000000000",
      "reserved": "",
      "salt": "0xd455ce5927f5032847c2fbeeb51c48bc93b350812c70b12e003da0b0e30c6aa2",
      "assetIds": [
        "55464657044963196816950587289035428064568320970692304673817341489687941879808",
        "55464657044963196816950587289035428064568320970692304673817341489687933519880",
        "55464657044963196816950587289035428064568320970692304673817341489687933519882",
        "55464657044963196816950587289035428064568320970692304673817341489687933519886",
        "55464657044963196816950587289035428064568320970692304673817341489687933519883"
      ]
    },
    {
      "x": 13,
      "y": 64,
      "size": 1,
      "price": "4683000000000000000000",
      "reserved": "",
      "salt": "0x73f632e1094cd176eb751f45e45f5a6001b79828e4b4d024dd4bc7dc358c3d4d",
      "assetIds": [
        "55464657044963196816950587289035428064568320970692304673817341489687941879808",
        "55464657044963196816950587289035428064568320970692304673817341489687933519880",
        "55464657044963196816950587289035428064568320970692304673817341489687933519882",
        "55464657044963196816950587289035428064568320970692304673817341489687933519886",
        "55464657044963196816950587289035428064568320970692304673817341489687933519883"
      ]
    },
    {
      "x": 13,
      "y": 65,
      "size": 1,
      "price": "4683000000000000000000",
      "reserved": "",
      "salt": "0x986f856119b2715d2fdb664cebaefa1c0f1989e867fedce723d0d12a423f727b",
      "assetIds": [
        "55464657044963196816950587289035428064568320970692304673817341489687941879808",
        "55464657044963196816950587289035428064568320970692304673817341489687933519880",
        "55464657044963196816950587289035428064568320970692304673817341489687933519882",
        "55464657044963196816950587289035428064568320970692304673817341489687933519886",
        "55464657044963196816950587289035428064568320970692304673817341489687933519883"
      ]
    },
    {
      "x": 13,
      "y": 66,
      "size": 1,
      "price": "4683000000000000000000",
      "reserved": "",
      "salt": "0x8e477657d371cf56b358eb9f7bba2b3ff0a9395527ec8a31e9a6b6a9262a057a",
      "assetIds": [
        "55464657044963196816950587289035428064568320970692304673817341489687941879808",
        "55464657044963196816950587289035428064568320970692304673817341489687933519880",
        "55464657044963196816950587289035428064568320970692304673817341489687933519882",
        "55464657044963196816950587289035428064568320970692304673817341489687933519886",
        "55464657044963196816950587289035428064568320970692304673817341489687933519883"
      ]
    },
    {
      "x": 13,
      "y": 67,
      "size": 1,
      "price": "1011000000000000000000",
      "reserved": "",
      "salt": "0xe620ab386eb4cba5f4298609e47381630442879edc31b61f572cc4753abd0cdc",
      "assetIds": []
    },
    {
      "x": 13,
      "y": 68,
      "size": 1,
      "price": "1011000000000000000000",
      "reserved": "",
      "salt": "0x49d39e0b0ea1e6c2758dcba70454d7f917864d8d32b36ae5efede5b8e6eed4be",
      "assetIds": []
    },
    {
      "x": 13,
      "y": 69,
      "size": 1,
      "price": "1011000000000000000000",
      "reserved": "",
      "salt": "0xd4af290480e7e27d7a429dda67c620a1e343fec01aba4166702e327e4705ead8",
      "assetIds": []
    },
    {
      "x": 13,
      "y": 70,
      "size": 1,
      "price": "1011000000000000000000",
      "reserved": "",
      "salt": "0x547d39b17332a97310d649c91244dab21a7ae84b20aacadc271187e33534f865",
      "assetIds": []
    },
    {
      "x": 13,
      "y": 71,
      "size": 1,
      "price": "1011000000000000000000",
      "reserved": "0x7a9fe22691c811ea339d9b73150e6911a5343dca",
      "salt": "0xf38372b36b69f89693e30998ffa8a1f9c08eccd236e4906497282a9dfba84fcf",
      "assetIds": []
    },
    {
      "x": 13,
      "y": 78,
      "size": 1,
      "price": "1011000000000000000000",
      "reserved": "",
      "salt": "0x141f0955699e434fcafde9a52b005aa3de6d14afd2bf1fcebfe6207b112c9199",
      "assetIds": []
    },
    {
      "x": 13,
      "y": 79,
      "size": 1,
      "price": "1011000000000000000000",
      "reserved": "0x7a9fe22691c811ea339d9b73150e6911a5343dca",
      "salt": "0x59ee9efeaca24aedd416bcd70e33adc96025ad8795887856ddf2dc611c06843b",
      "assetIds": []
    },
    {
      "x": 13,
      "y": 80,
      "size": 1,
      "price": "1011000000000000000000",
      "reserved": "",
      "salt": "0x2ea67ae9838622a71f6db8d7c52fcf97641eb636ab427cdb95f2e132becf510d",
      "assetIds": []
    },
    {
      "x": 13,
      "y": 81,
      "size": 1,
      "price": "1011000000000000000000",
      "reserved": "",
      "salt": "0xeedd9c83aab870f4fb6783e9161cf3bddb6fba4042dee55eacc932a923a30c91",
      "assetIds": []
    },
    {
      "x": 13,
      "y": 82,
      "size": 1,
      "price": "1011000000000000000000",
      "reserved": "",
      "salt": "0xcb416812e549cd9c7b525ee4d8504689723baa935750599ba80a07cad18b9831",
      "assetIds": []
    },
    {
      "x": 13,
      "y": 83,
      "size": 1,
      "price": "1011000000000000000000",
      "reserved": "",
      "salt": "0x1f74378ae5b9e22cf50415101c51cfb9dbf442ec4b34339a95727f9f82dea109",
      "assetIds": []
    },
    {
      "x": 13,
      "y": 84,
      "size": 1,
      "price": "1011000000000000000000",
      "reserved": "",
      "salt": "0x08ed307c4796a945d3b5d38d9e7228ac10200095bda0b29d5a5e158f705304ed",
      "assetIds": []
    },
    {
      "x": 13,
      "y": 85,
      "size": 1,
      "price": "1011000000000000000000",
      "reserved": "0x7a9fe22691c811ea339d9b73150e6911a5343dca",
      "salt": "0xc65eaf6d215db714b6141b462dd5a4f2b50b56f51b9f65be35a741362fc69c6b",
      "assetIds": []
    },
    {
      "x": 13,
      "y": 86,
      "size": 1,
      "price": "1011000000000000000000",
      "reserved": "",
      "salt": "0xd51f5756cb1417ecef8593bf3d60484b89a0d540c1c808b21b065f2fbdf5e4a5",
      "assetIds": []
    },
    {
      "x": 13,
      "y": 87,
      "size": 1,
      "price": "1011000000000000000000",
      "reserved": "",
      "salt": "0x0f1c33a477f1085858cde6d6851c9dc9af9ceab833688533d78ca3c519244dde",
      "assetIds": []
    },
    {
      "x": 13,
      "y": 88,
      "size": 1,
      "price": "1011000000000000000000",
      "reserved": "",
      "salt": "0xf0e70dd36abaa84dab4f57811719b81a7b8e4f98f3545ae88025651dea15ed22",
      "assetIds": []
    },
    {
      "x": 13,
      "y": 89,
      "size": 1,
      "price": "1011000000000000000000",
      "reserved": "",
      "salt": "0x7407de15d6a724e781454dd373331637a1640ec979e34d48951f00d1b058fbef",
      "assetIds": []
    },
    {
      "x": 13,
      "y": 90,
      "size": 1,
      "price": "1011000000000000000000",
      "reserved": "",
      "salt": "0xb45b2e5bf40b8a155c152d6e263888d3b56c64900dae1589c7635e2d3ce27a67",
      "assetIds": []
    },
    {
      "x": 13,
      "y": 91,
      "size": 1,
      "price": "1011000000000000000000",
      "reserved": "",
      "salt": "0x7c37250e2aec86b00958015ad64fe6b6f227ba5f3077f54a0f9a3c9beb77426b",
      "assetIds": []
    },
    {
      "x": 13,
      "y": 92,
      "size": 1,
      "price": "1011000000000000000000",
      "reserved": "",
      "salt": "0x43aaa0a1af30e12746d96f5620ceef3387ace9573a6dc1f3d35e491221c28e70",
      "assetIds": []
    },
    {
      "x": 13,
      "y": 93,
      "size": 1,
      "price": "1011000000000000000000",
      "reserved": "",
      "salt": "0x7bc4f7481965186a5e1a1e0561242c7d11051bad70c0076811f4561f80995cac",
      "assetIds": []
    },
    {
      "x": 13,
      "y": 94,
      "size": 1,
      "price": "1011000000000000000000",
      "reserved": "",
      "salt": "0x0d9230e256f13f101d5bd917083712bd62a8fcbb242b2599f3e0d2c1f6139e1b",
      "assetIds": []
    },
    {
      "x": 13,
      "y": 95,
      "size": 1,
      "price": "1011000000000000000000",
      "reserved": "",
      "salt": "0x57dcea2009861533940ec452383dacc376f596c736ff63464cca021c0384b345",
      "assetIds": []
    },
    {
      "x": 14,
      "y": 39,
      "size": 1,
      "price": "1011000000000000000000",
      "reserved": "",
      "salt": "0xd86807c2dc0527c657eb0bc0be4876d8388a92b7d4518e148c15824035ea96dd",
      "assetIds": []
    },
    {
      "x": 14,
      "y": 40,
      "size": 1,
      "price": "1011000000000000000000",
      "reserved": "",
      "salt": "0xba77eec510db2b608a8b03e2bb8ac972af1db7d4bfb4508e1fbdda2bde6485c6",
      "assetIds": []
    },
    {
      "x": 14,
      "y": 48,
      "size": 1,
      "price": "1011000000000000000000",
      "reserved": "",
      "salt": "0x95de884ceb3b9548f22f1cc388087ac9491e5aa2f66bb16667390d9555eb82c9",
      "assetIds": []
    },
    {
      "x": 14,
      "y": 49,
      "size": 1,
      "price": "1011000000000000000000",
      "reserved": "",
      "salt": "0x7e2096da588a0dae250658dd118000fcaedd61811436ab74398e9848749d057b",
      "assetIds": []
    },
    {
      "x": 14,
      "y": 50,
      "size": 1,
      "price": "1011000000000000000000",
      "reserved": "",
      "salt": "0xc7c6a8637142892e3edf8e45b550de57416baf1c35f7109c4b8a5df1cd511d5d",
      "assetIds": []
    },
    {
      "x": 14,
      "y": 51,
      "size": 1,
      "price": "4683000000000000000000",
      "reserved": "",
      "salt": "0x7001731d22697e7260b442c6f923e70e88a476a12b3fd5e8d44269b8e0dfb9fc",
      "assetIds": [
        "55464657044963196816950587289035428064568320970692304673817341489687941879808",
        "55464657044963196816950587289035428064568320970692304673817341489687933519880",
        "55464657044963196816950587289035428064568320970692304673817341489687933519882",
        "55464657044963196816950587289035428064568320970692304673817341489687933519886",
        "55464657044963196816950587289035428064568320970692304673817341489687933519883"
      ]
    },
    {
      "x": 14,
      "y": 52,
      "size": 1,
      "price": "4683000000000000000000",
      "reserved": "",
      "salt": "0x08b16df4c86e24da9a2f5802802c0215f3263fd3a2be923117f0759eea7b4562",
      "assetIds": [
        "55464657044963196816950587289035428064568320970692304673817341489687941879808",
        "55464657044963196816950587289035428064568320970692304673817341489687933519880",
        "55464657044963196816950587289035428064568320970692304673817341489687933519882",
        "55464657044963196816950587289035428064568320970692304673817341489687933519886",
        "55464657044963196816950587289035428064568320970692304673817341489687933519883"
      ]
    },
    {
      "x": 14,
      "y": 53,
      "size": 1,
      "price": "4683000000000000000000",
      "reserved": "",
      "salt": "0x630fbc6a10daca6a9852d64af045c04a5a546add194d2843986c5dbd68874e2c",
      "assetIds": [
        "55464657044963196816950587289035428064568320970692304673817341489687941879808",
        "55464657044963196816950587289035428064568320970692304673817341489687933519880",
        "55464657044963196816950587289035428064568320970692304673817341489687933519882",
        "55464657044963196816950587289035428064568320970692304673817341489687933519886",
        "55464657044963196816950587289035428064568320970692304673817341489687933519883"
      ]
    },
    {
      "x": 14,
      "y": 54,
      "size": 1,
      "price": "4683000000000000000000",
      "reserved": "",
      "salt": "0xf14d2e2f623f50c229a2a7348c16e8811d271a57aa9773e1cf0c0435a62ff614",
      "assetIds": [
        "55464657044963196816950587289035428064568320970692304673817341489687941879808",
        "55464657044963196816950587289035428064568320970692304673817341489687933519880",
        "55464657044963196816950587289035428064568320970692304673817341489687933519882",
        "55464657044963196816950587289035428064568320970692304673817341489687933519886",
        "55464657044963196816950587289035428064568320970692304673817341489687933519883"
      ]
    },
    {
      "x": 14,
      "y": 55,
      "size": 1,
      "price": "4683000000000000000000",
      "reserved": "",
      "salt": "0x9de30e1f3597c7360f59bcaeab66ff87972ee3a8df9ea8953a502958e8ea820c",
      "assetIds": [
        "55464657044963196816950587289035428064568320970692304673817341489687941879808",
        "55464657044963196816950587289035428064568320970692304673817341489687933519880",
        "55464657044963196816950587289035428064568320970692304673817341489687933519882",
        "55464657044963196816950587289035428064568320970692304673817341489687933519886",
        "55464657044963196816950587289035428064568320970692304673817341489687933519883"
      ]
    },
    {
      "x": 14,
      "y": 56,
      "size": 1,
      "price": "4683000000000000000000",
      "reserved": "",
      "salt": "0xdb3dfffefa0e2721346ed766b85363b3ad1cd6d8e229dd8c2b278b0a6e1536fd",
      "assetIds": [
        "55464657044963196816950587289035428064568320970692304673817341489687941879808",
        "55464657044963196816950587289035428064568320970692304673817341489687933519880",
        "55464657044963196816950587289035428064568320970692304673817341489687933519882",
        "55464657044963196816950587289035428064568320970692304673817341489687933519886",
        "55464657044963196816950587289035428064568320970692304673817341489687933519883"
      ]
    },
    {
      "x": 14,
      "y": 63,
      "size": 1,
      "price": "4683000000000000000000",
      "reserved": "",
      "salt": "0x012c97a3fa19739138d8367903a02bf4b0949fdadd2866402f86b2853d32023e",
      "assetIds": [
        "55464657044963196816950587289035428064568320970692304673817341489687941879808",
        "55464657044963196816950587289035428064568320970692304673817341489687933519880",
        "55464657044963196816950587289035428064568320970692304673817341489687933519882",
        "55464657044963196816950587289035428064568320970692304673817341489687933519886",
        "55464657044963196816950587289035428064568320970692304673817341489687933519883"
      ]
    },
    {
      "x": 14,
      "y": 64,
      "size": 1,
      "price": "4683000000000000000000",
      "reserved": "",
      "salt": "0xf8fefedd8b5ab57a325323c049d26d82d8e95c05ca6596377c8aafb59a46d961",
      "assetIds": [
        "55464657044963196816950587289035428064568320970692304673817341489687941879808",
        "55464657044963196816950587289035428064568320970692304673817341489687933519880",
        "55464657044963196816950587289035428064568320970692304673817341489687933519882",
        "55464657044963196816950587289035428064568320970692304673817341489687933519886",
        "55464657044963196816950587289035428064568320970692304673817341489687933519883"
      ]
    },
    {
      "x": 14,
      "y": 65,
      "size": 1,
      "price": "4683000000000000000000",
      "reserved": "",
      "salt": "0x0585f977e734e74795ad92340ac60b549a1d15a8e2483c3736581f5a55f1baee",
      "assetIds": [
        "55464657044963196816950587289035428064568320970692304673817341489687941879808",
        "55464657044963196816950587289035428064568320970692304673817341489687933519880",
        "55464657044963196816950587289035428064568320970692304673817341489687933519882",
        "55464657044963196816950587289035428064568320970692304673817341489687933519886",
        "55464657044963196816950587289035428064568320970692304673817341489687933519883"
      ]
    },
    {
      "x": 14,
      "y": 66,
      "size": 1,
      "price": "4683000000000000000000",
      "reserved": "",
      "salt": "0x0e99d09d52dc8484bc467a7f6e6e89f35e0132b45ba97b651060c734381755c3",
      "assetIds": [
        "55464657044963196816950587289035428064568320970692304673817341489687941879808",
        "55464657044963196816950587289035428064568320970692304673817341489687933519880",
        "55464657044963196816950587289035428064568320970692304673817341489687933519882",
        "55464657044963196816950587289035428064568320970692304673817341489687933519886",
        "55464657044963196816950587289035428064568320970692304673817341489687933519883"
      ]
    },
    {
      "x": 14,
      "y": 67,
      "size": 1,
      "price": "1011000000000000000000",
      "reserved": "",
      "salt": "0x01018d21fd4df09c492f37593f47c08c2fe3693ca2c770dde41048890037bb53",
      "assetIds": []
    },
    {
      "x": 14,
      "y": 68,
      "size": 1,
      "price": "1011000000000000000000",
      "reserved": "",
      "salt": "0xcfcbfa118e17ba9a17d7acc663160972780b5341bee7abcdb4822cf74a5dfea8",
      "assetIds": []
    },
    {
      "x": 14,
      "y": 69,
      "size": 1,
      "price": "1011000000000000000000",
      "reserved": "0x7a9fe22691c811ea339d9b73150e6911a5343dca",
      "salt": "0x4eca73a323116e7ee0497fca0fb2e66e77a84633b0a3daff6e2f51c2ff9a806f",
      "assetIds": []
    },
    {
      "x": 14,
      "y": 70,
      "size": 1,
      "price": "1011000000000000000000",
      "reserved": "",
      "salt": "0xd3816b426b4b8b912675f993eea853b2d9fdee088ae47bbf077fae779b50aabb",
      "assetIds": []
    },
    {
      "x": 14,
      "y": 71,
      "size": 1,
      "price": "1011000000000000000000",
      "reserved": "",
      "salt": "0x06ea6d0ff01d22437e37b11fd1a10c5c9fe0c5f623d8fb599e42364feff3e706",
      "assetIds": []
    },
    {
      "x": 14,
      "y": 78,
      "size": 1,
      "price": "1011000000000000000000",
      "reserved": "",
      "salt": "0x84d57500c512613fbd49ddc377c5d4ebd96b90c82713864cc80d9bb61f9502a3",
      "assetIds": []
    },
    {
      "x": 14,
      "y": 79,
      "size": 1,
      "price": "1011000000000000000000",
      "reserved": "",
      "salt": "0x6ae4f2cd468d3d573679b6cdc3a5feed6569d1213d8ee7d1c11b2dbdb027773e",
      "assetIds": []
    },
    {
      "x": 14,
      "y": 80,
      "size": 1,
      "price": "1011000000000000000000",
      "reserved": "",
      "salt": "0xf7444e761ae941a9ee3f8ade5d04838dca1f1a9d7fac0c69f9597c151aa2d5fc",
      "assetIds": []
    },
    {
      "x": 14,
      "y": 81,
      "size": 1,
      "price": "1011000000000000000000",
      "reserved": "",
      "salt": "0x99a6ec54e9bc0ea020766a8cf9598938945e3c85ec56a2ba8326e88b1242e025",
      "assetIds": []
    },
    {
      "x": 14,
      "y": 82,
      "size": 1,
      "price": "1011000000000000000000",
      "reserved": "",
      "salt": "0x25cb57d15413909412ab5c501327c74a4ec112547746f8c9b2305b2fbe83a1fa",
      "assetIds": []
    },
    {
      "x": 14,
      "y": 83,
      "size": 1,
      "price": "1011000000000000000000",
      "reserved": "",
      "salt": "0x958a3b09a8bfbfeccd69aa42aaedcfe47df9d11730e3d66663e6cdc5739e17c2",
      "assetIds": []
    },
    {
      "x": 14,
      "y": 84,
      "size": 1,
      "price": "1011000000000000000000",
      "reserved": "",
      "salt": "0x6f706a635014b1d44508679da3a45313032f376126e152802707e607558ecdc7",
      "assetIds": []
    },
    {
      "x": 14,
      "y": 85,
      "size": 1,
      "price": "1011000000000000000000",
      "reserved": "",
      "salt": "0xbc36d5cf5bb3621aaafb92ae113ed2bdc64f3868c5fdb7699e3fa8ac27e479d7",
      "assetIds": []
    },
    {
      "x": 14,
      "y": 86,
      "size": 1,
      "price": "1011000000000000000000",
      "reserved": "",
      "salt": "0xb02e68f49758fd8b61db9c4d0574f7304fcedd28be811420e66b7e24ee7ea752",
      "assetIds": []
    },
    {
      "x": 14,
      "y": 87,
      "size": 1,
      "price": "1011000000000000000000",
      "reserved": "",
      "salt": "0xb52aae944d4e6feb9fc45a5fb1052e1c454ed664a9bb76f4891de3d94c09efec",
      "assetIds": []
    },
    {
      "x": 14,
      "y": 88,
      "size": 1,
      "price": "1011000000000000000000",
      "reserved": "0x7a9fe22691c811ea339d9b73150e6911a5343dca",
      "salt": "0x5c5fcde1509ad59c0ad61feecbc51473b918b34ff7c850d7cffc7d53647e1eb1",
      "assetIds": []
    },
    {
      "x": 14,
      "y": 89,
      "size": 1,
      "price": "1011000000000000000000",
      "reserved": "",
      "salt": "0xaf6fa9bb7c19fcb826c9442fd0ff0f425a136b542757586dccdd2d616eaeea71",
      "assetIds": []
    },
    {
      "x": 14,
      "y": 90,
      "size": 1,
      "price": "1011000000000000000000",
      "reserved": "",
      "salt": "0x2fcee69e3413b6ed723a3b84c0632abda7f8331abcc2a4b6945383904b65da8f",
      "assetIds": []
    },
    {
      "x": 14,
      "y": 91,
      "size": 1,
      "price": "1011000000000000000000",
      "reserved": "",
      "salt": "0xa48cc27553255ead38ea627a30054e1b2f34eb3ad706e82ae3123f119642aaff",
      "assetIds": []
    },
    {
      "x": 14,
      "y": 92,
      "size": 1,
      "price": "1011000000000000000000",
      "reserved": "",
      "salt": "0x6cd1d462181bc0d1fda56b30ecd5d603c6b16180f5a4f5fa0fc52990652d4ee9",
      "assetIds": []
    },
    {
      "x": 14,
      "y": 93,
      "size": 1,
      "price": "1011000000000000000000",
      "reserved": "0x7a9fe22691c811ea339d9b73150e6911a5343dca",
      "salt": "0xce6a4f3d16691d3fcb9bde40c042e63f20a8e4e50b5d00dea1d21898a788f1ac",
      "assetIds": []
    },
    {
      "x": 14,
      "y": 94,
      "size": 1,
      "price": "1011000000000000000000",
      "reserved": "",
      "salt": "0x3d3f515b1e6bd29e353d51ccd559041f5ed231ef12e499fc22657f178ec682a7",
      "assetIds": []
    },
    {
      "x": 14,
      "y": 95,
      "size": 1,
      "price": "1011000000000000000000",
      "reserved": "",
      "salt": "0xac94e1c56c7c9ac9a3aac2d3cf19a80b4ed8b290baa866e8942a3e6df0f1d0e0",
      "assetIds": []
    },
    {
      "x": 15,
      "y": 54,
      "size": 1,
      "price": "4683000000000000000000",
      "reserved": "",
      "salt": "0x6ad103d2a5c954127ec7676a44cc30e4c8b6de2cc415b4959b40ecd90e07c4c9",
      "assetIds": [
        "55464657044963196816950587289035428064568320970692304673817341489687941879808",
        "55464657044963196816950587289035428064568320970692304673817341489687933519880",
        "55464657044963196816950587289035428064568320970692304673817341489687933519882",
        "55464657044963196816950587289035428064568320970692304673817341489687933519886",
        "55464657044963196816950587289035428064568320970692304673817341489687933519883"
      ]
    },
    {
      "x": 15,
      "y": 55,
      "size": 1,
      "price": "4683000000000000000000",
      "reserved": "",
      "salt": "0x1132200249f6ca07c7ab2a0783a05cca2e438469796d4b2fc1978e0ea2998e82",
      "assetIds": [
        "55464657044963196816950587289035428064568320970692304673817341489687941879808",
        "55464657044963196816950587289035428064568320970692304673817341489687933519880",
        "55464657044963196816950587289035428064568320970692304673817341489687933519882",
        "55464657044963196816950587289035428064568320970692304673817341489687933519886",
        "55464657044963196816950587289035428064568320970692304673817341489687933519883"
      ]
    },
    {
      "x": 15,
      "y": 56,
      "size": 1,
      "price": "4683000000000000000000",
      "reserved": "",
      "salt": "0x2bffd4588a3f7a70a24a981ee0dd7305975a2d029384c5508afec63611c30e5d",
      "assetIds": [
        "55464657044963196816950587289035428064568320970692304673817341489687941879808",
        "55464657044963196816950587289035428064568320970692304673817341489687933519880",
        "55464657044963196816950587289035428064568320970692304673817341489687933519882",
        "55464657044963196816950587289035428064568320970692304673817341489687933519886",
        "55464657044963196816950587289035428064568320970692304673817341489687933519883"
      ]
    },
    {
      "x": 15,
      "y": 57,
      "size": 1,
      "price": "4683000000000000000000",
      "reserved": "",
      "salt": "0x532f51be29bf76947191dbe84772e29fbe8f2fcee1930e95be51e2f0826cee52",
      "assetIds": [
        "55464657044963196816950587289035428064568320970692304673817341489687941879808",
        "55464657044963196816950587289035428064568320970692304673817341489687933519880",
        "55464657044963196816950587289035428064568320970692304673817341489687933519882",
        "55464657044963196816950587289035428064568320970692304673817341489687933519886",
        "55464657044963196816950587289035428064568320970692304673817341489687933519883"
      ]
    },
    {
      "x": 15,
      "y": 58,
      "size": 1,
      "price": "4683000000000000000000",
      "reserved": "",
      "salt": "0x0ec18ad81528b784348ca043f09809d2246d8200bb47f25fa3b6a136492b3e69",
      "assetIds": [
        "55464657044963196816950587289035428064568320970692304673817341489687941879808",
        "55464657044963196816950587289035428064568320970692304673817341489687933519880",
        "55464657044963196816950587289035428064568320970692304673817341489687933519882",
        "55464657044963196816950587289035428064568320970692304673817341489687933519886",
        "55464657044963196816950587289035428064568320970692304673817341489687933519883"
      ]
    },
    {
      "x": 15,
      "y": 59,
      "size": 1,
      "price": "4683000000000000000000",
      "reserved": "",
      "salt": "0xe38fc9a44e5e54eda7bfd0ed075d93aaebe6b53bd2519730672b551250493d9b",
      "assetIds": [
        "55464657044963196816950587289035428064568320970692304673817341489687941879808",
        "55464657044963196816950587289035428064568320970692304673817341489687933519880",
        "55464657044963196816950587289035428064568320970692304673817341489687933519882",
        "55464657044963196816950587289035428064568320970692304673817341489687933519886",
        "55464657044963196816950587289035428064568320970692304673817341489687933519883"
      ]
    },
    {
      "x": 15,
      "y": 60,
      "size": 1,
      "price": "4683000000000000000000",
      "reserved": "",
      "salt": "0x72e41cf78f146b12865ff4cb9a628da0e85c5a319723dc9963342367d8196042",
      "assetIds": [
        "55464657044963196816950587289035428064568320970692304673817341489687941879808",
        "55464657044963196816950587289035428064568320970692304673817341489687933519880",
        "55464657044963196816950587289035428064568320970692304673817341489687933519882",
        "55464657044963196816950587289035428064568320970692304673817341489687933519886",
        "55464657044963196816950587289035428064568320970692304673817341489687933519883"
      ]
    },
    {
      "x": 15,
      "y": 61,
      "size": 1,
      "price": "4683000000000000000000",
      "reserved": "",
      "salt": "0x1ece6b4851e737d2ab02c874e851e173695312ec29bd12e4fc85fcfec6170ffe",
      "assetIds": [
        "55464657044963196816950587289035428064568320970692304673817341489687941879808",
        "55464657044963196816950587289035428064568320970692304673817341489687933519880",
        "55464657044963196816950587289035428064568320970692304673817341489687933519882",
        "55464657044963196816950587289035428064568320970692304673817341489687933519886",
        "55464657044963196816950587289035428064568320970692304673817341489687933519883"
      ]
    },
    {
      "x": 15,
      "y": 62,
      "size": 1,
      "price": "4683000000000000000000",
      "reserved": "",
      "salt": "0xe9e7335d328df7ffa75b2ee9c1ee391c582696ded8bbfa709e162e53a1646cd1",
      "assetIds": [
        "55464657044963196816950587289035428064568320970692304673817341489687941879808",
        "55464657044963196816950587289035428064568320970692304673817341489687933519880",
        "55464657044963196816950587289035428064568320970692304673817341489687933519882",
        "55464657044963196816950587289035428064568320970692304673817341489687933519886",
        "55464657044963196816950587289035428064568320970692304673817341489687933519883"
      ]
    },
    {
      "x": 15,
      "y": 63,
      "size": 1,
      "price": "4683000000000000000000",
      "reserved": "",
      "salt": "0x2433139685f1d20ca9c469519141815f9b06bc6c9e988c5b4c6e161b2a772e90",
      "assetIds": [
        "55464657044963196816950587289035428064568320970692304673817341489687941879808",
        "55464657044963196816950587289035428064568320970692304673817341489687933519880",
        "55464657044963196816950587289035428064568320970692304673817341489687933519882",
        "55464657044963196816950587289035428064568320970692304673817341489687933519886",
        "55464657044963196816950587289035428064568320970692304673817341489687933519883"
      ]
    },
    {
      "x": 15,
      "y": 64,
      "size": 1,
      "price": "4683000000000000000000",
      "reserved": "",
      "salt": "0x46f189a33039e81051b28b8971099e8d743e89da290bf4bcd49df0769519b4a0",
      "assetIds": [
        "55464657044963196816950587289035428064568320970692304673817341489687941879808",
        "55464657044963196816950587289035428064568320970692304673817341489687933519880",
        "55464657044963196816950587289035428064568320970692304673817341489687933519882",
        "55464657044963196816950587289035428064568320970692304673817341489687933519886",
        "55464657044963196816950587289035428064568320970692304673817341489687933519883"
      ]
    },
    {
      "x": 15,
      "y": 65,
      "size": 1,
      "price": "4683000000000000000000",
      "reserved": "",
      "salt": "0xf5bab071222f186d4ad2d355f24fd4dc108782bde0443cebfea853e4b583d563",
      "assetIds": [
        "55464657044963196816950587289035428064568320970692304673817341489687941879808",
        "55464657044963196816950587289035428064568320970692304673817341489687933519880",
        "55464657044963196816950587289035428064568320970692304673817341489687933519882",
        "55464657044963196816950587289035428064568320970692304673817341489687933519886",
        "55464657044963196816950587289035428064568320970692304673817341489687933519883"
      ]
    },
    {
      "x": 15,
      "y": 66,
      "size": 1,
      "price": "4683000000000000000000",
      "reserved": "",
      "salt": "0x1d08aaa072136f2cd1dbe32b2b5933ad65d6b0ee3e47c9807fa5a7d6298f869b",
      "assetIds": [
        "55464657044963196816950587289035428064568320970692304673817341489687941879808",
        "55464657044963196816950587289035428064568320970692304673817341489687933519880",
        "55464657044963196816950587289035428064568320970692304673817341489687933519882",
        "55464657044963196816950587289035428064568320970692304673817341489687933519886",
        "55464657044963196816950587289035428064568320970692304673817341489687933519883"
      ]
    },
    {
      "x": 15,
      "y": 67,
      "size": 1,
      "price": "1011000000000000000000",
      "reserved": "",
      "salt": "0xa21de80f876cbb2c4dfe1a9c85c426e83f115f1f9345d2886516c8e6e0b31c23",
      "assetIds": []
    },
    {
      "x": 15,
      "y": 68,
      "size": 1,
      "price": "1011000000000000000000",
      "reserved": "",
      "salt": "0xa2ffc0e1e92c9be49559da98f471fb30adcefdb5e648694914d2efd81e09ed2d",
      "assetIds": []
    },
    {
      "x": 15,
      "y": 69,
      "size": 1,
      "price": "1011000000000000000000",
      "reserved": "",
      "salt": "0xefeaa7598458751e8416ba0ac8fbbc8a2a855195f95534505b6f86db809c64f8",
      "assetIds": []
    },
    {
      "x": 15,
      "y": 70,
      "size": 1,
      "price": "1011000000000000000000",
      "reserved": "",
      "salt": "0x98201a7047890afa663b82865a4fad5072c2fe2264a6eddd3879806da01a580f",
      "assetIds": []
    },
    {
      "x": 15,
      "y": 71,
      "size": 1,
      "price": "1011000000000000000000",
      "reserved": "",
      "salt": "0x7a55f22ffb8d7128fe06cd255ea6213373b485fd17cc9208cdad4e92e19c3083",
      "assetIds": []
    },
    {
      "x": 15,
      "y": 78,
      "size": 1,
      "price": "1011000000000000000000",
      "reserved": "",
      "salt": "0x1ca0aba5db0c5e6ade8e7c77323f678e123bf2d161f8b6eb4003c3008a27790f",
      "assetIds": []
    },
    {
      "x": 15,
      "y": 79,
      "size": 1,
      "price": "1011000000000000000000",
      "reserved": "",
      "salt": "0x21b8f9b8a424104e691f8175882e50581480ac0669925a3472b6110433d27923",
      "assetIds": []
    },
    {
      "x": 15,
      "y": 80,
      "size": 1,
      "price": "1011000000000000000000",
      "reserved": "",
      "salt": "0x84f00b01cb0adb6b922a15d7ef3198b4a339328cdc1aa77bcb533de52b9d6d81",
      "assetIds": []
    },
    {
      "x": 15,
      "y": 81,
      "size": 1,
      "price": "1011000000000000000000",
      "reserved": "",
      "salt": "0xd8a25b8e234b53bca47ff0e23340f320afee2a1a08b9e84bd4cfba665c49bde7",
      "assetIds": []
    },
    {
      "x": 15,
      "y": 82,
      "size": 1,
      "price": "1011000000000000000000",
      "reserved": "",
      "salt": "0x546d88f1192f347a268d470091f417d4d1812991a976f039de69e71a4e8ef672",
      "assetIds": []
    },
    {
      "x": 15,
      "y": 83,
      "size": 1,
      "price": "1011000000000000000000",
      "reserved": "0x7a9fe22691c811ea339d9b73150e6911a5343dca",
      "salt": "0x79bac2160968d35dda18cc184447618c5fbb0a2786f92ccab826a9a779e49a3f",
      "assetIds": []
    },
    {
      "x": 15,
      "y": 84,
      "size": 1,
      "price": "1011000000000000000000",
      "reserved": "",
      "salt": "0x0efb60221bbbd920a45c9336ca21c0be281b04a302a4dd9a95d9f852751fd1fc",
      "assetIds": []
    },
    {
      "x": 15,
      "y": 85,
      "size": 1,
      "price": "1011000000000000000000",
      "reserved": "",
      "salt": "0x9179778a4640eae9a6a679154c54569235d1c3d1b2cf17b231f145be5fbc7343",
      "assetIds": []
    },
    {
      "x": 15,
      "y": 86,
      "size": 1,
      "price": "1011000000000000000000",
      "reserved": "0x7a9fe22691c811ea339d9b73150e6911a5343dca",
      "salt": "0xdc53075f1570e0e123e6b6b2202543d90b8788cbcb01fa61407c1842ecf76425",
      "assetIds": []
    },
    {
      "x": 15,
      "y": 87,
      "size": 1,
      "price": "1011000000000000000000",
      "reserved": "",
      "salt": "0xae420eff8f9ffe3a9094e767ef52fb793ac9dee74b752c6900a30662fb876281",
      "assetIds": []
    },
    {
      "x": 16,
      "y": 57,
      "size": 1,
      "price": "4683000000000000000000",
      "reserved": "",
      "salt": "0x513860c0362516cf31d26a1408c96677b942d7c8a66bef1ac9aaa9895fa25a83",
      "assetIds": [
        "55464657044963196816950587289035428064568320970692304673817341489687941879808",
        "55464657044963196816950587289035428064568320970692304673817341489687933519880",
        "55464657044963196816950587289035428064568320970692304673817341489687933519882",
        "55464657044963196816950587289035428064568320970692304673817341489687933519886",
        "55464657044963196816950587289035428064568320970692304673817341489687933519883"
      ]
    },
    {
      "x": 16,
      "y": 58,
      "size": 1,
      "price": "4683000000000000000000",
      "reserved": "",
      "salt": "0xe47ea7de5a67018da9ca4b16f681d9bd3042aea9d51114e65dbc482587d77588",
      "assetIds": [
        "55464657044963196816950587289035428064568320970692304673817341489687941879808",
        "55464657044963196816950587289035428064568320970692304673817341489687933519880",
        "55464657044963196816950587289035428064568320970692304673817341489687933519882",
        "55464657044963196816950587289035428064568320970692304673817341489687933519886",
        "55464657044963196816950587289035428064568320970692304673817341489687933519883"
      ]
    },
    {
      "x": 16,
      "y": 59,
      "size": 1,
      "price": "4683000000000000000000",
      "reserved": "",
      "salt": "0x2958cecb77ed57fc0c09950660724623d1ce850a84b6bf05b66ae5e2b37606cb",
      "assetIds": [
        "55464657044963196816950587289035428064568320970692304673817341489687941879808",
        "55464657044963196816950587289035428064568320970692304673817341489687933519880",
        "55464657044963196816950587289035428064568320970692304673817341489687933519882",
        "55464657044963196816950587289035428064568320970692304673817341489687933519886",
        "55464657044963196816950587289035428064568320970692304673817341489687933519883"
      ]
    },
    {
      "x": 16,
      "y": 60,
      "size": 1,
      "price": "4683000000000000000000",
      "reserved": "",
      "salt": "0x5fb8bb4ae94cbb7150c1c1d60039982ed959823633da924d5bcd7fa78b4f4191",
      "assetIds": [
        "55464657044963196816950587289035428064568320970692304673817341489687941879808",
        "55464657044963196816950587289035428064568320970692304673817341489687933519880",
        "55464657044963196816950587289035428064568320970692304673817341489687933519882",
        "55464657044963196816950587289035428064568320970692304673817341489687933519886",
        "55464657044963196816950587289035428064568320970692304673817341489687933519883"
      ]
    },
    {
      "x": 16,
      "y": 61,
      "size": 1,
      "price": "4683000000000000000000",
      "reserved": "",
      "salt": "0x98eb65427f037b88f353e86343f76ecb8369d73a39576fb70b446021af5e56b6",
      "assetIds": [
        "55464657044963196816950587289035428064568320970692304673817341489687941879808",
        "55464657044963196816950587289035428064568320970692304673817341489687933519880",
        "55464657044963196816950587289035428064568320970692304673817341489687933519882",
        "55464657044963196816950587289035428064568320970692304673817341489687933519886",
        "55464657044963196816950587289035428064568320970692304673817341489687933519883"
      ]
    },
    {
      "x": 16,
      "y": 62,
      "size": 1,
      "price": "4683000000000000000000",
      "reserved": "",
      "salt": "0xf2b925dffb2241a09e3d9e7d99fc82256b32bdb474cfb972e89f18b2cbbe6d75",
      "assetIds": [
        "55464657044963196816950587289035428064568320970692304673817341489687941879808",
        "55464657044963196816950587289035428064568320970692304673817341489687933519880",
        "55464657044963196816950587289035428064568320970692304673817341489687933519882",
        "55464657044963196816950587289035428064568320970692304673817341489687933519886",
        "55464657044963196816950587289035428064568320970692304673817341489687933519883"
      ]
    },
    {
      "x": 16,
      "y": 63,
      "size": 1,
      "price": "4683000000000000000000",
      "reserved": "",
      "salt": "0x78498382e1dfd92bf83edbcc19835b6d156cd8a547910c25a862cde5a3e5c819",
      "assetIds": [
        "55464657044963196816950587289035428064568320970692304673817341489687941879808",
        "55464657044963196816950587289035428064568320970692304673817341489687933519880",
        "55464657044963196816950587289035428064568320970692304673817341489687933519882",
        "55464657044963196816950587289035428064568320970692304673817341489687933519886",
        "55464657044963196816950587289035428064568320970692304673817341489687933519883"
      ]
    },
    {
      "x": 16,
      "y": 64,
      "size": 1,
      "price": "4683000000000000000000",
      "reserved": "",
      "salt": "0xe64ef4513ccb8e07a69fc0f066959e400c28317c2ecd5581fdfdf995fcf7d0b3",
      "assetIds": [
        "55464657044963196816950587289035428064568320970692304673817341489687941879808",
        "55464657044963196816950587289035428064568320970692304673817341489687933519880",
        "55464657044963196816950587289035428064568320970692304673817341489687933519882",
        "55464657044963196816950587289035428064568320970692304673817341489687933519886",
        "55464657044963196816950587289035428064568320970692304673817341489687933519883"
      ]
    },
    {
      "x": 16,
      "y": 65,
      "size": 1,
      "price": "4683000000000000000000",
      "reserved": "",
      "salt": "0x1d24973eb91c52755a2259fc108ed391d16ecc954fdef4b0f629d9b5c61aafc7",
      "assetIds": [
        "55464657044963196816950587289035428064568320970692304673817341489687941879808",
        "55464657044963196816950587289035428064568320970692304673817341489687933519880",
        "55464657044963196816950587289035428064568320970692304673817341489687933519882",
        "55464657044963196816950587289035428064568320970692304673817341489687933519886",
        "55464657044963196816950587289035428064568320970692304673817341489687933519883"
      ]
    },
    {
      "x": 16,
      "y": 66,
      "size": 1,
      "price": "4683000000000000000000",
      "reserved": "",
      "salt": "0x2cf391d0638270032f786bb4584e8963574b26565b716cfc2a0b725d3bc126f0",
      "assetIds": [
        "55464657044963196816950587289035428064568320970692304673817341489687941879808",
        "55464657044963196816950587289035428064568320970692304673817341489687933519880",
        "55464657044963196816950587289035428064568320970692304673817341489687933519882",
        "55464657044963196816950587289035428064568320970692304673817341489687933519886",
        "55464657044963196816950587289035428064568320970692304673817341489687933519883"
      ]
    },
    {
      "x": 16,
      "y": 67,
      "size": 1,
      "price": "1011000000000000000000",
      "reserved": "",
      "salt": "0xbdc848fbe6bdedb55be188b464e5809a1b137f3a19497374a1196ba0bed72935",
      "assetIds": []
    },
    {
      "x": 16,
      "y": 68,
      "size": 1,
      "price": "1011000000000000000000",
      "reserved": "",
      "salt": "0x55f6e113d526bc2f2e4374a7ff119f011e47736189c16a99b02afec2d9282585",
      "assetIds": []
    },
    {
      "x": 16,
      "y": 69,
      "size": 1,
      "price": "1011000000000000000000",
      "reserved": "",
      "salt": "0xf5513debaeee6bc857e28544c530749f2fab228469809946c6f4566bb6b24e58",
      "assetIds": []
    },
    {
      "x": 16,
      "y": 70,
      "size": 1,
      "price": "1011000000000000000000",
      "reserved": "",
      "salt": "0xc75304b1a597e148b5e26e609c801501ae8e9be33d880b890862ed52e3a05fa0",
      "assetIds": []
    },
    {
      "x": 16,
      "y": 71,
      "size": 1,
      "price": "1011000000000000000000",
      "reserved": "",
      "salt": "0x8ed0e9a3c04716771b40dc2ef90ddde74312049c89662c8866d8e13a698ec7f0",
      "assetIds": []
    },
    {
      "x": 16,
      "y": 78,
      "size": 1,
      "price": "1011000000000000000000",
      "reserved": "",
      "salt": "0xf89f5ebe4c0849b1950cb5de291ca684eadbbbec70b7782e2a124ee4752b2bf5",
      "assetIds": []
    },
    {
      "x": 16,
      "y": 79,
      "size": 1,
      "price": "1011000000000000000000",
      "reserved": "",
      "salt": "0x7aa706b7399771cb5d1a3a8ac31f387470bda8d5221c0b320ecea8ef8fbf2fac",
      "assetIds": []
    },
    {
      "x": 16,
      "y": 80,
      "size": 1,
      "price": "1011000000000000000000",
      "reserved": "",
      "salt": "0x2d852e4fb8ef0054a60947837f804bdca0ac310de2da748330e93af2cd428e48",
      "assetIds": []
    },
    {
      "x": 16,
      "y": 81,
      "size": 1,
      "price": "1011000000000000000000",
      "reserved": "0x7a9fe22691c811ea339d9b73150e6911a5343dca",
      "salt": "0x31f689f7a86cf5c7ef42d92601d264a9e3fb425436d3f7eb3e9e57fe0ea62798",
      "assetIds": []
    },
    {
      "x": 16,
      "y": 82,
      "size": 1,
      "price": "1011000000000000000000",
      "reserved": "",
      "salt": "0x01ea69427ae38926cb2c4fd375bbd4375344ebfa28d5eaebc848db644ee71ff9",
      "assetIds": []
    },
    {
      "x": 16,
      "y": 83,
      "size": 1,
      "price": "1011000000000000000000",
      "reserved": "",
      "salt": "0x389dd036e2c47aee0eb23990a1e46011ddd264edc8e8eae0676f6de861f3531c",
      "assetIds": []
    },
    {
      "x": 16,
      "y": 84,
      "size": 1,
      "price": "1011000000000000000000",
      "reserved": "",
      "salt": "0xf794495020d40fc0a8e0e66edbad46fe341a33cfa005e76792b9de41283192f2",
      "assetIds": []
    },
    {
      "x": 16,
      "y": 85,
      "size": 1,
      "price": "1011000000000000000000",
      "reserved": "0x7a9fe22691c811ea339d9b73150e6911a5343dca",
      "salt": "0xd9eefd4e27a13904e9aee205dab8a975078f24b1c2020e877dfee9ec192a2078",
      "assetIds": []
    },
    {
      "x": 16,
      "y": 86,
      "size": 1,
      "price": "1011000000000000000000",
      "reserved": "",
      "salt": "0xb148e1af2ea8d79b776a4c4ac78631242bdbafdb0d22a0328871124c40f643af",
      "assetIds": []
    },
    {
      "x": 16,
      "y": 87,
      "size": 1,
      "price": "1011000000000000000000",
      "reserved": "",
      "salt": "0x53cc85d420125c71f11cc4dd79f8ff07dd097cb38b761f28ebc4ffb86526887c",
      "assetIds": []
    },
    {
      "x": 17,
      "y": 60,
      "size": 1,
      "price": "4683000000000000000000",
      "reserved": "",
      "salt": "0x15cdfdc02ac19cb41f6330daddff376eaa3fcac3276caa6ca1f542a65a2fa285",
      "assetIds": [
        "55464657044963196816950587289035428064568320970692304673817341489687941879808",
        "55464657044963196816950587289035428064568320970692304673817341489687933519880",
        "55464657044963196816950587289035428064568320970692304673817341489687933519882",
        "55464657044963196816950587289035428064568320970692304673817341489687933519886",
        "55464657044963196816950587289035428064568320970692304673817341489687933519883"
      ]
    },
    {
      "x": 17,
      "y": 61,
      "size": 1,
      "price": "4683000000000000000000",
      "reserved": "",
      "salt": "0xaa9994f3893db069f432bf7716e8a304a4bb9cd94db0c3b8a045c47131123827",
      "assetIds": [
        "55464657044963196816950587289035428064568320970692304673817341489687941879808",
        "55464657044963196816950587289035428064568320970692304673817341489687933519880",
        "55464657044963196816950587289035428064568320970692304673817341489687933519882",
        "55464657044963196816950587289035428064568320970692304673817341489687933519886",
        "55464657044963196816950587289035428064568320970692304673817341489687933519883"
      ]
    },
    {
      "x": 17,
      "y": 62,
      "size": 1,
      "price": "4683000000000000000000",
      "reserved": "",
      "salt": "0x05975e096adf8c7ccf8e8f51c9d22f0efeef7e5d8195b938de95e2e125924bae",
      "assetIds": [
        "55464657044963196816950587289035428064568320970692304673817341489687941879808",
        "55464657044963196816950587289035428064568320970692304673817341489687933519880",
        "55464657044963196816950587289035428064568320970692304673817341489687933519882",
        "55464657044963196816950587289035428064568320970692304673817341489687933519886",
        "55464657044963196816950587289035428064568320970692304673817341489687933519883"
      ]
    },
    {
      "x": 17,
      "y": 63,
      "size": 1,
      "price": "1011000000000000000000",
      "reserved": "0x7a9fe22691c811ea339d9b73150e6911a5343dca",
      "salt": "0xd6108494d605a79653f9b532f75a34c5bc30f3763b13ff5275d38cd05cff5a06",
      "assetIds": []
    },
    {
      "x": 17,
      "y": 64,
      "size": 1,
      "price": "4683000000000000000000",
      "reserved": "",
      "salt": "0x4d4d921e6f99bbf37656fa311a917e691a96259269ec07171a731a6379599cd0",
      "assetIds": [
        "55464657044963196816950587289035428064568320970692304673817341489687941879808",
        "55464657044963196816950587289035428064568320970692304673817341489687933519880",
        "55464657044963196816950587289035428064568320970692304673817341489687933519882",
        "55464657044963196816950587289035428064568320970692304673817341489687933519886",
        "55464657044963196816950587289035428064568320970692304673817341489687933519883"
      ]
    },
    {
      "x": 17,
      "y": 65,
      "size": 1,
      "price": "4683000000000000000000",
      "reserved": "",
      "salt": "0xf95222aff8224245f096bc4df8fe10c16a3cfcd2cca8468cc31e2d5b72f7386d",
      "assetIds": [
        "55464657044963196816950587289035428064568320970692304673817341489687941879808",
        "55464657044963196816950587289035428064568320970692304673817341489687933519880",
        "55464657044963196816950587289035428064568320970692304673817341489687933519882",
        "55464657044963196816950587289035428064568320970692304673817341489687933519886",
        "55464657044963196816950587289035428064568320970692304673817341489687933519883"
      ]
    },
    {
      "x": 17,
      "y": 66,
      "size": 1,
      "price": "1011000000000000000000",
      "reserved": "0x7a9fe22691c811ea339d9b73150e6911a5343dca",
      "salt": "0x3bcbfd322634fce787e6743180921e770f446017f7124b8d71d905818d98e48e",
      "assetIds": []
    },
    {
      "x": 17,
      "y": 67,
      "size": 1,
      "price": "1011000000000000000000",
      "reserved": "",
      "salt": "0x249bfce3a60117cd4968ba7d4f3fc98da311ef01830612c5d957425f267216b4",
      "assetIds": []
    },
    {
      "x": 17,
      "y": 68,
      "size": 1,
      "price": "1011000000000000000000",
      "reserved": "",
      "salt": "0x2bf9b2c1af4d65babdb303c87b4582b0d929c7e1e4edcf016e0bc637de711de0",
      "assetIds": []
    },
    {
      "x": 17,
      "y": 69,
      "size": 1,
      "price": "1011000000000000000000",
      "reserved": "",
      "salt": "0x29771b2878e2b9c50c527f0e8e06a03eb8ec8df88ba89d631f76688d1ef4e1fd",
      "assetIds": []
    },
    {
      "x": 17,
      "y": 70,
      "size": 1,
      "price": "1011000000000000000000",
      "reserved": "0x7a9fe22691c811ea339d9b73150e6911a5343dca",
      "salt": "0xdd52dd43744fbd714c762536667b0b51713a7dd5bdee46eca7370e7793c81039",
      "assetIds": []
    },
    {
      "x": 17,
      "y": 71,
      "size": 1,
      "price": "1011000000000000000000",
      "reserved": "",
      "salt": "0x47d0feeb384bb07503cb69876312b21a6e708122b49755419490e90b9c25febd",
      "assetIds": []
    },
    {
      "x": 17,
      "y": 78,
      "size": 1,
      "price": "1011000000000000000000",
      "reserved": "",
      "salt": "0xa2f0479a8c2c5b54cccccf5d47f74ea49e791464f9837b2bd442b5da93521ae3",
      "assetIds": []
    },
    {
      "x": 17,
      "y": 79,
      "size": 1,
      "price": "1011000000000000000000",
      "reserved": "",
      "salt": "0xf76e59b9458faac4b9dcfbc63e06da28042dc7477f0156fbe46801e87e2502d0",
      "assetIds": []
    },
    {
      "x": 17,
      "y": 80,
      "size": 1,
      "price": "1011000000000000000000",
      "reserved": "",
      "salt": "0x363fd46c46c8073f69cfa9c244a67338f8e1841a23fc305b4b4e766f07b27489",
      "assetIds": []
    },
    {
      "x": 17,
      "y": 81,
      "size": 1,
      "price": "1011000000000000000000",
      "reserved": "",
      "salt": "0xd771ab1b915a5ef5ce8566456d2d8ad8e8951edcf49ed675bf8c64dfd8716f51",
      "assetIds": []
    },
    {
      "x": 17,
      "y": 82,
      "size": 1,
      "price": "1011000000000000000000",
      "reserved": "",
      "salt": "0x9581f8643a7e34c700490e28b25e4d7b375b295b32774356c8f96297b7663b8c",
      "assetIds": []
    },
    {
      "x": 17,
      "y": 83,
      "size": 1,
      "price": "1011000000000000000000",
      "reserved": "0x7a9fe22691c811ea339d9b73150e6911a5343dca",
      "salt": "0x40fae859319763776605066ef4e07a8f0b1d6a23a0abdd467436228285629722",
      "assetIds": []
    },
    {
      "x": 17,
      "y": 84,
      "size": 1,
      "price": "1011000000000000000000",
      "reserved": "",
      "salt": "0xfb073e9d2b65490a7c76b40e042caa30e1fe312dd2c8300b8bc7e1794522bde0",
      "assetIds": []
    },
    {
      "x": 17,
      "y": 85,
      "size": 1,
      "price": "1011000000000000000000",
      "reserved": "",
      "salt": "0xe4de7e5708a4e62c8baf2975113c9d596dd003e1762380340c1ae48b21650a4b",
      "assetIds": []
    },
    {
      "x": 17,
      "y": 86,
      "size": 1,
      "price": "1011000000000000000000",
      "reserved": "",
      "salt": "0x25762bb50800770b45853f76d71f50a6ea90946c8365a1e63aaee190bcbca55e",
      "assetIds": []
    },
    {
      "x": 17,
      "y": 87,
      "size": 1,
      "price": "1011000000000000000000",
      "reserved": "",
      "salt": "0x0649ea1119323fd840f4eae0871dbf6c3825dc3e5e81e410323604354f3fa0fe",
      "assetIds": []
    },
    {
      "x": 18,
      "y": 60,
      "size": 1,
      "price": "4683000000000000000000",
      "reserved": "",
      "salt": "0xb3ccf92e3cabd89b5630193201c804b56386055a9ecbaac0e8c85e5df61af184",
      "assetIds": [
        "55464657044963196816950587289035428064568320970692304673817341489687941879808",
        "55464657044963196816950587289035428064568320970692304673817341489687933519880",
        "55464657044963196816950587289035428064568320970692304673817341489687933519882",
        "55464657044963196816950587289035428064568320970692304673817341489687933519886",
        "55464657044963196816950587289035428064568320970692304673817341489687933519883"
      ]
    },
    {
      "x": 18,
      "y": 61,
      "size": 1,
      "price": "4683000000000000000000",
      "reserved": "",
      "salt": "0xc9413d151210d905bb24604f3632a3e38678894c47061939eb26c2ca2508df24",
      "assetIds": [
        "55464657044963196816950587289035428064568320970692304673817341489687941879808",
        "55464657044963196816950587289035428064568320970692304673817341489687933519880",
        "55464657044963196816950587289035428064568320970692304673817341489687933519882",
        "55464657044963196816950587289035428064568320970692304673817341489687933519886",
        "55464657044963196816950587289035428064568320970692304673817341489687933519883"
      ]
    },
    {
      "x": 18,
      "y": 62,
      "size": 1,
      "price": "4683000000000000000000",
      "reserved": "",
      "salt": "0x9d2385a15a5eb179754af40f34771d00cd26e953026b00baea6a14bc8e9145f7",
      "assetIds": [
        "55464657044963196816950587289035428064568320970692304673817341489687941879808",
        "55464657044963196816950587289035428064568320970692304673817341489687933519880",
        "55464657044963196816950587289035428064568320970692304673817341489687933519882",
        "55464657044963196816950587289035428064568320970692304673817341489687933519886",
        "55464657044963196816950587289035428064568320970692304673817341489687933519883"
      ]
    },
    {
      "x": 18,
      "y": 63,
      "size": 1,
      "price": "4683000000000000000000",
      "reserved": "",
      "salt": "0x83b7011b651b6ffc702586f8a6e6fd10bcad6bc290f734a3dc7f5ea50bff8822",
      "assetIds": [
        "55464657044963196816950587289035428064568320970692304673817341489687941879808",
        "55464657044963196816950587289035428064568320970692304673817341489687933519880",
        "55464657044963196816950587289035428064568320970692304673817341489687933519882",
        "55464657044963196816950587289035428064568320970692304673817341489687933519886",
        "55464657044963196816950587289035428064568320970692304673817341489687933519883"
      ]
    },
    {
      "x": 18,
      "y": 64,
      "size": 1,
      "price": "4683000000000000000000",
      "reserved": "",
      "salt": "0x9579be5f3e63be16e75821cf8b813a9d5213f7115060f2b1eed1ebbba8a838c3",
      "assetIds": [
        "55464657044963196816950587289035428064568320970692304673817341489687941879808",
        "55464657044963196816950587289035428064568320970692304673817341489687933519880",
        "55464657044963196816950587289035428064568320970692304673817341489687933519882",
        "55464657044963196816950587289035428064568320970692304673817341489687933519886",
        "55464657044963196816950587289035428064568320970692304673817341489687933519883"
      ]
    },
    {
      "x": 18,
      "y": 65,
      "size": 1,
      "price": "4683000000000000000000",
      "reserved": "",
      "salt": "0x34fd31c4735eb233bbc81c777b4f568966b275a1754971f20c79c50900c38061",
      "assetIds": [
        "55464657044963196816950587289035428064568320970692304673817341489687941879808",
        "55464657044963196816950587289035428064568320970692304673817341489687933519880",
        "55464657044963196816950587289035428064568320970692304673817341489687933519882",
        "55464657044963196816950587289035428064568320970692304673817341489687933519886",
        "55464657044963196816950587289035428064568320970692304673817341489687933519883"
      ]
    },
    {
      "x": 18,
      "y": 66,
      "size": 1,
      "price": "4683000000000000000000",
      "reserved": "",
      "salt": "0x4dba093ca6b8694cf4de7939774ecd727efc8c4716faf02be84a8afdd19d7b01",
      "assetIds": [
        "55464657044963196816950587289035428064568320970692304673817341489687941879808",
        "55464657044963196816950587289035428064568320970692304673817341489687933519880",
        "55464657044963196816950587289035428064568320970692304673817341489687933519882",
        "55464657044963196816950587289035428064568320970692304673817341489687933519886",
        "55464657044963196816950587289035428064568320970692304673817341489687933519883"
      ]
    },
    {
      "x": 18,
      "y": 67,
      "size": 1,
      "price": "4683000000000000000000",
      "reserved": "",
      "salt": "0xa3c5490f3d02512bb1afa6ba479bf26f980f2ade4ef80e62a9e7e9e7f4aa7a44",
      "assetIds": [
        "55464657044963196816950587289035428064568320970692304673817341489687941879808",
        "55464657044963196816950587289035428064568320970692304673817341489687933519880",
        "55464657044963196816950587289035428064568320970692304673817341489687933519882",
        "55464657044963196816950587289035428064568320970692304673817341489687933519886",
        "55464657044963196816950587289035428064568320970692304673817341489687933519883"
      ]
    },
    {
      "x": 18,
      "y": 68,
      "size": 1,
      "price": "1011000000000000000000",
      "reserved": "",
      "salt": "0xfd6a0f6b784e11c1226f16ef1d35ca17b23cccce1b64854ad2ad97fda57b1f9d",
      "assetIds": []
    },
    {
      "x": 18,
      "y": 69,
      "size": 1,
      "price": "1011000000000000000000",
      "reserved": "",
      "salt": "0x95975ea41101091995832c69dc2b2d8ae8e7f7bfd80f8284ed76425677c7aa00",
      "assetIds": []
    },
    {
      "x": 18,
      "y": 70,
      "size": 1,
      "price": "1011000000000000000000",
      "reserved": "",
      "salt": "0x7cb7a79073f94b673826d320f160755d74a861e7f8c4bf19fa96cd0a56c82ddb",
      "assetIds": []
    },
    {
      "x": 18,
      "y": 71,
      "size": 1,
      "price": "1011000000000000000000",
      "reserved": "",
      "salt": "0x17bd2c1f0640ee09691449b86f6f9e0d1dd7c3f234dfe56f4dbcb478f0b12e51",
      "assetIds": []
    },
    {
      "x": 18,
      "y": 75,
      "size": 1,
      "price": "1011000000000000000000",
      "reserved": "",
      "salt": "0x62854b21d12bb74c33cbc1ddd9f116a91682a679cb138e4bd0bb626c9e669b00",
      "assetIds": []
    },
    {
      "x": 18,
      "y": 76,
      "size": 1,
      "price": "1011000000000000000000",
      "reserved": "",
      "salt": "0x85e90adb0c7dc3e499ea0fed24fc6cf1f88accff26a195d9146f8b318976c690",
      "assetIds": []
    },
    {
      "x": 18,
      "y": 77,
      "size": 1,
      "price": "1011000000000000000000",
      "reserved": "",
      "salt": "0x869bda8e8445c52743f65b21a1019c853aa364497918b325ecb3dfba08552159",
      "assetIds": []
    },
    {
      "x": 18,
      "y": 78,
      "size": 1,
      "price": "1011000000000000000000",
      "reserved": "",
      "salt": "0xfb8f66ac23db7f82ea6a2d982ffb8e1cb7b222b8dc84260827511e1d46cbbb7d",
      "assetIds": []
    },
    {
      "x": 18,
      "y": 79,
      "size": 1,
      "price": "1011000000000000000000",
      "reserved": "0x7a9fe22691c811ea339d9b73150e6911a5343dca",
      "salt": "0x53d3b9766176dec49ad97a30c48ddc24336281e8a35c55487c0e5be437ac020b",
      "assetIds": []
    },
    {
      "x": 18,
      "y": 80,
      "size": 1,
      "price": "1011000000000000000000",
      "reserved": "",
      "salt": "0x90ab14eed9819623051c67ed7f6c8347a32d424cded0f5fbad96bf4a524667a8",
      "assetIds": []
    },
    {
      "x": 18,
      "y": 81,
      "size": 1,
      "price": "1011000000000000000000",
      "reserved": "",
      "salt": "0x97439c61e16e44cd30a80331b3bc7e5a85c519bd20a3fbb2c4c8fa7b303a3d64",
      "assetIds": []
    },
    {
      "x": 18,
      "y": 82,
      "size": 1,
      "price": "1011000000000000000000",
      "reserved": "0x7a9fe22691c811ea339d9b73150e6911a5343dca",
      "salt": "0x10e1b59df688d69ca72b2ef993b2f086b5acbeb9b6269645e8b3904e16115751",
      "assetIds": []
    },
    {
      "x": 18,
      "y": 83,
      "size": 1,
      "price": "1011000000000000000000",
      "reserved": "",
      "salt": "0xb691c386dfe595a4c7e87fab5bab5a65ea87a3dc7987046d59df4852be664ca1",
      "assetIds": []
    },
    {
      "x": 19,
      "y": 60,
      "size": 1,
      "price": "4683000000000000000000",
      "reserved": "",
      "salt": "0x4408bf102ff8fd768a2dc8ccb150953820e325c40babb3e30811774eadba53a4",
      "assetIds": [
        "55464657044963196816950587289035428064568320970692304673817341489687941879808",
        "55464657044963196816950587289035428064568320970692304673817341489687933519880",
        "55464657044963196816950587289035428064568320970692304673817341489687933519882",
        "55464657044963196816950587289035428064568320970692304673817341489687933519886",
        "55464657044963196816950587289035428064568320970692304673817341489687933519883"
      ]
    },
    {
      "x": 19,
      "y": 61,
      "size": 1,
      "price": "4683000000000000000000",
      "reserved": "",
      "salt": "0x3f96fd72e4675aac4f76038ed34b10beca5bbce1da739954e4c67fcda73053ec",
      "assetIds": [
        "55464657044963196816950587289035428064568320970692304673817341489687941879808",
        "55464657044963196816950587289035428064568320970692304673817341489687933519880",
        "55464657044963196816950587289035428064568320970692304673817341489687933519882",
        "55464657044963196816950587289035428064568320970692304673817341489687933519886",
        "55464657044963196816950587289035428064568320970692304673817341489687933519883"
      ]
    },
    {
      "x": 19,
      "y": 62,
      "size": 1,
      "price": "4683000000000000000000",
      "reserved": "",
      "salt": "0xfc7dd684548868e28d8d90c6c786d22a60ca7439d249b6cb3554dcb591493566",
      "assetIds": [
        "55464657044963196816950587289035428064568320970692304673817341489687941879808",
        "55464657044963196816950587289035428064568320970692304673817341489687933519880",
        "55464657044963196816950587289035428064568320970692304673817341489687933519882",
        "55464657044963196816950587289035428064568320970692304673817341489687933519886",
        "55464657044963196816950587289035428064568320970692304673817341489687933519883"
      ]
    },
    {
      "x": 19,
      "y": 63,
      "size": 1,
      "price": "4683000000000000000000",
      "reserved": "",
      "salt": "0x61b0f42c087487b26ddc6c86248a256536a815cf60d39c8403661cc03b7142c0",
      "assetIds": [
        "55464657044963196816950587289035428064568320970692304673817341489687941879808",
        "55464657044963196816950587289035428064568320970692304673817341489687933519880",
        "55464657044963196816950587289035428064568320970692304673817341489687933519882",
        "55464657044963196816950587289035428064568320970692304673817341489687933519886",
        "55464657044963196816950587289035428064568320970692304673817341489687933519883"
      ]
    },
    {
      "x": 19,
      "y": 64,
      "size": 1,
      "price": "4683000000000000000000",
      "reserved": "",
      "salt": "0xfb4c083f8e7aa2f5d9dfe8e2d62a5414133927d6fe6093323e2f0007c15bee86",
      "assetIds": [
        "55464657044963196816950587289035428064568320970692304673817341489687941879808",
        "55464657044963196816950587289035428064568320970692304673817341489687933519880",
        "55464657044963196816950587289035428064568320970692304673817341489687933519882",
        "55464657044963196816950587289035428064568320970692304673817341489687933519886",
        "55464657044963196816950587289035428064568320970692304673817341489687933519883"
      ]
    },
    {
      "x": 19,
      "y": 65,
      "size": 1,
      "price": "4683000000000000000000",
      "reserved": "",
      "salt": "0xd48912eaf8054d03a8afed93d57d4137d83ce5b89a3912865693494576f429f7",
      "assetIds": [
        "55464657044963196816950587289035428064568320970692304673817341489687941879808",
        "55464657044963196816950587289035428064568320970692304673817341489687933519880",
        "55464657044963196816950587289035428064568320970692304673817341489687933519882",
        "55464657044963196816950587289035428064568320970692304673817341489687933519886",
        "55464657044963196816950587289035428064568320970692304673817341489687933519883"
      ]
    },
    {
      "x": 19,
      "y": 66,
      "size": 1,
      "price": "1011000000000000000000",
      "reserved": "",
      "salt": "0xb1b0eae44c485dd2940ce79e914a6639f7ea77b9c5cacfb8d510496692bec2f7",
      "assetIds": []
    },
    {
      "x": 19,
      "y": 67,
      "size": 1,
      "price": "1011000000000000000000",
      "reserved": "",
      "salt": "0x513c126245ccf5947f7c793721fcb04de1d6394819b42abc19ccd11d9b4040d1",
      "assetIds": []
    },
    {
      "x": 19,
      "y": 68,
      "size": 1,
      "price": "1011000000000000000000",
      "reserved": "",
      "salt": "0xdb61e37f4627c1028869fb194bab3c2cdb2384e87c14856b8742b01a1457679f",
      "assetIds": []
    },
    {
      "x": 19,
      "y": 69,
      "size": 1,
      "price": "1011000000000000000000",
      "reserved": "",
      "salt": "0x0d814060b7fd54f697df7987986e30ac2d4da049b7cfb972a9a9b3e9334a2e5d",
      "assetIds": []
    },
    {
      "x": 19,
      "y": 70,
      "size": 1,
      "price": "1011000000000000000000",
      "reserved": "",
      "salt": "0x7c799bb6b696412cb3301f558a3b8855bbe7d913914cb31050ad4377ff9820bf",
      "assetIds": []
    },
    {
      "x": 19,
      "y": 71,
      "size": 1,
      "price": "1011000000000000000000",
      "reserved": "",
      "salt": "0x201bc1c8cfe74fef49ac706637f5ae1882a16323f0db13c7ffa874d90a18a083",
      "assetIds": []
    },
    {
      "x": 19,
      "y": 75,
      "size": 1,
      "price": "1011000000000000000000",
      "reserved": "0x7a9fe22691c811ea339d9b73150e6911a5343dca",
      "salt": "0x0114a4eb6df12a6f4f4f7976c54a8a1e0eabed308a0420605c51d729954eca1f",
      "assetIds": []
    },
    {
      "x": 19,
      "y": 76,
      "size": 1,
      "price": "1011000000000000000000",
      "reserved": "",
      "salt": "0xd12f646cfb6eaf4b7c12a6a8f01a63e48695fec4650425e123660c3101060294",
      "assetIds": []
    },
    {
      "x": 19,
      "y": 77,
      "size": 1,
      "price": "1011000000000000000000",
      "reserved": "",
      "salt": "0x75abebb1e30cad24a73fb4b31720ebf89fb404de93adb5cd6c21c398c0b35872",
      "assetIds": []
    },
    {
      "x": 19,
      "y": 78,
      "size": 1,
      "price": "1011000000000000000000",
      "reserved": "0x7a9fe22691c811ea339d9b73150e6911a5343dca",
      "salt": "0xc3d2980dfce5bd8ef3f67265e225eba3d1d7eb1eb201e93fe015a3639d7f1b93",
      "assetIds": []
    },
    {
      "x": 19,
      "y": 79,
      "size": 1,
      "price": "1011000000000000000000",
      "reserved": "",
      "salt": "0xb42ae00628f8b785a29f459aed4e0e9280cfbe06105a96d8757a99e85e1e1e35",
      "assetIds": []
    },
    {
      "x": 19,
      "y": 80,
      "size": 1,
      "price": "1011000000000000000000",
      "reserved": "",
      "salt": "0x62d431c277c4463f88ae2c2a5c6405ad11c0b7602c216d62f78f630d6ca28855",
      "assetIds": []
    },
    {
      "x": 19,
      "y": 81,
      "size": 1,
      "price": "1011000000000000000000",
      "reserved": "",
      "salt": "0x79579a510adf180258c98e4e3c30737bec19bc33a7519b06d37da48bb6f0f0b1",
      "assetIds": []
    },
    {
      "x": 19,
      "y": 82,
      "size": 1,
      "price": "1011000000000000000000",
      "reserved": "",
      "salt": "0x35e895469395acc6e877a15c3f5cf3543e2b31737c6a96b3f1aae64947d5d348",
      "assetIds": []
    },
    {
      "x": 19,
      "y": 83,
      "size": 1,
      "price": "1011000000000000000000",
      "reserved": "",
      "salt": "0x1c3593e916b6005f68cd76979186bfbcc1818cfac043af8dcfa2dd8f887e7825",
      "assetIds": []
    },
    {
      "x": 20,
      "y": 60,
      "size": 1,
      "price": "1011000000000000000000",
      "reserved": "0x7a9fe22691c811ea339d9b73150e6911a5343dca",
      "salt": "0x71c3006e8c7395f4c350ac37ceabec2e96caa9a574890cfe2cea668323e32916",
      "assetIds": []
    },
    {
      "x": 20,
      "y": 61,
      "size": 1,
      "price": "4683000000000000000000",
      "reserved": "",
      "salt": "0xa29a35c38919a2a92ed4def5a05e4d7b0d18ebd87f10b2c1a754ba1bebbbe1b1",
      "assetIds": [
        "55464657044963196816950587289035428064568320970692304673817341489687941879808",
        "55464657044963196816950587289035428064568320970692304673817341489687933519880",
        "55464657044963196816950587289035428064568320970692304673817341489687933519882",
        "55464657044963196816950587289035428064568320970692304673817341489687933519886",
        "55464657044963196816950587289035428064568320970692304673817341489687933519883"
      ]
    },
    {
      "x": 20,
      "y": 62,
      "size": 1,
      "price": "4683000000000000000000",
      "reserved": "",
      "salt": "0x3ecef84db72676e28564bdf9986e2a65317936ac57870f5f9eb061b4acc886b5",
      "assetIds": [
        "55464657044963196816950587289035428064568320970692304673817341489687941879808",
        "55464657044963196816950587289035428064568320970692304673817341489687933519880",
        "55464657044963196816950587289035428064568320970692304673817341489687933519882",
        "55464657044963196816950587289035428064568320970692304673817341489687933519886",
        "55464657044963196816950587289035428064568320970692304673817341489687933519883"
      ]
    },
    {
      "x": 20,
      "y": 63,
      "size": 1,
      "price": "4683000000000000000000",
      "reserved": "",
      "salt": "0x02e5eba0edc22eae51f49885de0c1df52fbae65f2db104554a71927e2f59ca52",
      "assetIds": [
        "55464657044963196816950587289035428064568320970692304673817341489687941879808",
        "55464657044963196816950587289035428064568320970692304673817341489687933519880",
        "55464657044963196816950587289035428064568320970692304673817341489687933519882",
        "55464657044963196816950587289035428064568320970692304673817341489687933519886",
        "55464657044963196816950587289035428064568320970692304673817341489687933519883"
      ]
    },
    {
      "x": 20,
      "y": 64,
      "size": 1,
      "price": "4683000000000000000000",
      "reserved": "",
      "salt": "0x34f8d377651493ab9cb876476c8cb23f9a730deab1a9de87decad50d15e669e7",
      "assetIds": [
        "55464657044963196816950587289035428064568320970692304673817341489687941879808",
        "55464657044963196816950587289035428064568320970692304673817341489687933519880",
        "55464657044963196816950587289035428064568320970692304673817341489687933519882",
        "55464657044963196816950587289035428064568320970692304673817341489687933519886",
        "55464657044963196816950587289035428064568320970692304673817341489687933519883"
      ]
    },
    {
      "x": 20,
      "y": 65,
      "size": 1,
      "price": "1011000000000000000000",
      "reserved": "0x7a9fe22691c811ea339d9b73150e6911a5343dca",
      "salt": "0xedd7edebc51343c3004133551777f83439858d1bdeefae2697096bf958293cab",
      "assetIds": []
    },
    {
      "x": 20,
      "y": 66,
      "size": 1,
      "price": "1011000000000000000000",
      "reserved": "",
      "salt": "0x596c4c3fa49aba5780e1705620608ef16aa4ef31162d3ab7549f229f9caa6d41",
      "assetIds": []
    },
    {
      "x": 20,
      "y": 67,
      "size": 1,
      "price": "1011000000000000000000",
      "reserved": "",
      "salt": "0x97e5333e76428f96657e88e110ae83a339b32bd454ca40b0b45507b33f15c737",
      "assetIds": []
    },
    {
      "x": 20,
      "y": 68,
      "size": 1,
      "price": "1011000000000000000000",
      "reserved": "0x7a9fe22691c811ea339d9b73150e6911a5343dca",
      "salt": "0x94b54e3ffd4a973412fb61f7afb156d205f6b1cbd0863966f6047041bd688c3d",
      "assetIds": []
    },
    {
      "x": 20,
      "y": 69,
      "size": 1,
      "price": "1011000000000000000000",
      "reserved": "",
      "salt": "0x9ea6a9b8d3018e12a9e50f7495753508529053ce14612fa00202c3ec1e593a71",
      "assetIds": []
    },
    {
      "x": 20,
      "y": 70,
      "size": 1,
      "price": "1011000000000000000000",
      "reserved": "",
      "salt": "0x28c4846edd9f8ae004bbdd6d5c44c3754b83b44c25e749e32647f956c2af4e97",
      "assetIds": []
    },
    {
      "x": 20,
      "y": 71,
      "size": 1,
      "price": "1011000000000000000000",
      "reserved": "",
      "salt": "0x3452db15740eb656c6e72a8f40ae8acfaadd6451ff75d285c0d51471db7499d2",
      "assetIds": []
    },
    {
      "x": 20,
      "y": 75,
      "size": 1,
      "price": "1011000000000000000000",
      "reserved": "",
      "salt": "0x1ace6279007402bccae41de5b937e1f93d0391c8f5aa4bf10ccd4c9d411d22e8",
      "assetIds": []
    },
    {
      "x": 20,
      "y": 76,
      "size": 1,
      "price": "1011000000000000000000",
      "reserved": "",
      "salt": "0x1f43e27c707f4f846e0c75dc5cd71570cb74b77c7327f8acbad8af198b63e715",
      "assetIds": []
    },
    {
      "x": 20,
      "y": 77,
      "size": 1,
      "price": "1011000000000000000000",
      "reserved": "0x7a9fe22691c811ea339d9b73150e6911a5343dca",
      "salt": "0x393fddc0efa141e96ba61151b49d5785ccd19f7faf9022222ed55ed1108d6fdf",
      "assetIds": []
    },
    {
      "x": 20,
      "y": 78,
      "size": 1,
      "price": "1011000000000000000000",
      "reserved": "",
      "salt": "0xa7c56f1639dfb98aaf5e9ac9ba80e7c6e153042add9930b458530a3d7c9ee60c",
      "assetIds": []
    },
    {
      "x": 20,
      "y": 79,
      "size": 1,
      "price": "1011000000000000000000",
      "reserved": "",
      "salt": "0xf5a5f4fcdef72f6a584467306b850f452b8e91f766302e0f49a4277383633787",
      "assetIds": []
    },
    {
      "x": 20,
      "y": 80,
      "size": 1,
      "price": "1011000000000000000000",
      "reserved": "",
      "salt": "0xc706cd928e35fc6bcadd318851ca6e11f243ca6d179fe328c20e286b5cb66636",
      "assetIds": []
    },
    {
      "x": 20,
      "y": 81,
      "size": 1,
      "price": "1011000000000000000000",
      "reserved": "0x7a9fe22691c811ea339d9b73150e6911a5343dca",
      "salt": "0x143f1bac899b01ae13d1d9a6be410a9fb2dc3a30a517151305704c1343833ae9",
      "assetIds": []
    },
    {
      "x": 20,
      "y": 82,
      "size": 1,
      "price": "1011000000000000000000",
      "reserved": "",
      "salt": "0x9f4c47b1c09b923635d22042b13a276514eaecc7514f8be23767ea6f2259e921",
      "assetIds": []
    },
    {
      "x": 20,
      "y": 83,
      "size": 1,
      "price": "1011000000000000000000",
      "reserved": "",
      "salt": "0x3b635d1e1e38105cd3d725bd1051eee565101ef199212dd3e8e69bf517b0f1f9",
      "assetIds": []
    },
    {
      "x": 21,
      "y": 60,
      "size": 1,
      "price": "4683000000000000000000",
      "reserved": "",
      "salt": "0x36fc56d4a06905ff08addd6711ef1d221e4a2890be4a6ec3812e49143619508c",
      "assetIds": [
        "55464657044963196816950587289035428064568320970692304673817341489687941879808",
        "55464657044963196816950587289035428064568320970692304673817341489687933519880",
        "55464657044963196816950587289035428064568320970692304673817341489687933519882",
        "55464657044963196816950587289035428064568320970692304673817341489687933519886",
        "55464657044963196816950587289035428064568320970692304673817341489687933519883"
      ]
    },
    {
      "x": 21,
      "y": 61,
      "size": 1,
      "price": "4683000000000000000000",
      "reserved": "",
      "salt": "0x3cc126d25d6b2bab2dd26dfabea2b3cbe56416dc8144e9309f9cbc061a540a35",
      "assetIds": [
        "55464657044963196816950587289035428064568320970692304673817341489687941879808",
        "55464657044963196816950587289035428064568320970692304673817341489687933519880",
        "55464657044963196816950587289035428064568320970692304673817341489687933519882",
        "55464657044963196816950587289035428064568320970692304673817341489687933519886",
        "55464657044963196816950587289035428064568320970692304673817341489687933519883"
      ]
    },
    {
      "x": 21,
      "y": 62,
      "size": 1,
      "price": "4683000000000000000000",
      "reserved": "",
      "salt": "0xfef3c3616bd9421bd096d295d9c5ed3a667a48007c2ae0d98e6b8b9a842ca60a",
      "assetIds": [
        "55464657044963196816950587289035428064568320970692304673817341489687941879808",
        "55464657044963196816950587289035428064568320970692304673817341489687933519880",
        "55464657044963196816950587289035428064568320970692304673817341489687933519882",
        "55464657044963196816950587289035428064568320970692304673817341489687933519886",
        "55464657044963196816950587289035428064568320970692304673817341489687933519883"
      ]
    },
    {
      "x": 21,
      "y": 63,
      "size": 1,
      "price": "4683000000000000000000",
      "reserved": "",
      "salt": "0x1fb38b356104be36c7662b539514be4f26e305d465b5e909ec83ca222e620db8",
      "assetIds": [
        "55464657044963196816950587289035428064568320970692304673817341489687941879808",
        "55464657044963196816950587289035428064568320970692304673817341489687933519880",
        "55464657044963196816950587289035428064568320970692304673817341489687933519882",
        "55464657044963196816950587289035428064568320970692304673817341489687933519886",
        "55464657044963196816950587289035428064568320970692304673817341489687933519883"
      ]
    },
    {
      "x": 21,
      "y": 64,
      "size": 1,
      "price": "1011000000000000000000",
      "reserved": "",
      "salt": "0xa889a94eb7c24ab8ebac8acbee7d82b1695b33b2d1596f19d734d6092641bab1",
      "assetIds": []
    },
    {
      "x": 21,
      "y": 65,
      "size": 1,
      "price": "1011000000000000000000",
      "reserved": "0x7a9fe22691c811ea339d9b73150e6911a5343dca",
      "salt": "0x322a58c47619bb0b39567cc493f5ea89526bd9c6f08200b865616a3573c3cae5",
      "assetIds": []
    },
    {
      "x": 21,
      "y": 66,
      "size": 1,
      "price": "1011000000000000000000",
      "reserved": "",
      "salt": "0x5187dac40994fc6e808571559ab2a3f130a1a40f9b8f9b26b6153c96abe8c23e",
      "assetIds": []
    },
    {
      "x": 21,
      "y": 67,
      "size": 1,
      "price": "1011000000000000000000",
      "reserved": "",
      "salt": "0x11dad2d4494872aac569156bb3d7074c87c43894108ba3f8bb7316e9b8908b53",
      "assetIds": []
    },
    {
      "x": 21,
      "y": 68,
      "size": 1,
      "price": "1011000000000000000000",
      "reserved": "",
      "salt": "0xa537a5c63f5b2c90cbf0b11f982bf7356c7a04e15a79ebde760332301904eeac",
      "assetIds": []
    },
    {
      "x": 21,
      "y": 69,
      "size": 1,
      "price": "1011000000000000000000",
      "reserved": "",
      "salt": "0xa4239f4b29fad718808b6cd8cd955d4e613626f70f95819028e91d11b624edcc",
      "assetIds": []
    },
    {
      "x": 21,
      "y": 70,
      "size": 1,
      "price": "1011000000000000000000",
      "reserved": "",
      "salt": "0xe8ebcc724cbac9f2066b49ba83272315730d2cbf119d919c527208342879d5f4",
      "assetIds": []
    },
    {
      "x": 21,
      "y": 71,
      "size": 1,
      "price": "1011000000000000000000",
      "reserved": "",
      "salt": "0x6ef982f82b4e4f17e7a8d3aca489b6fe62eefe2e11a5cdb692195876514d6fef",
      "assetIds": []
    },
    {
      "x": 21,
      "y": 72,
      "size": 1,
      "price": "1011000000000000000000",
      "reserved": "0x7a9fe22691c811ea339d9b73150e6911a5343dca",
      "salt": "0x2f97401b4c4af0de550596c0edd253f233662f4279b63e039b1b0ea0429de3ee",
      "assetIds": []
    },
    {
      "x": 21,
      "y": 73,
      "size": 1,
      "price": "1011000000000000000000",
      "reserved": "",
      "salt": "0x6e5dd649dc524567e322aca827d5a227af2441a7bcca03f955ba1681dcf072e1",
      "assetIds": []
    },
    {
      "x": 21,
      "y": 74,
      "size": 1,
      "price": "1011000000000000000000",
      "reserved": "",
      "salt": "0xdd7425cdf237231ede63560e91c7767e692324ca07b15eafd149225f559ff050",
      "assetIds": []
    },
    {
      "x": 21,
      "y": 75,
      "size": 1,
      "price": "1011000000000000000000",
      "reserved": "",
      "salt": "0x0a01f5c7ba9eb3c20fe08f7b873bb08405067e0963bb7c90b187c281fa53c668",
      "assetIds": []
    },
    {
      "x": 21,
      "y": 76,
      "size": 1,
      "price": "1011000000000000000000",
      "reserved": "",
      "salt": "0x8b4c91cb7569d2c1c96bf04c29d3fe61c36b9683cdee9a8bfab4d0cfe73a6301",
      "assetIds": []
    },
    {
      "x": 21,
      "y": 77,
      "size": 1,
      "price": "1011000000000000000000",
      "reserved": "",
      "salt": "0x0775f08ee64e7755a3b524da3a3ff9f6843ef3c6161c21999d78519f4f99e867",
      "assetIds": []
    },
    {
      "x": 21,
      "y": 78,
      "size": 1,
      "price": "1011000000000000000000",
      "reserved": "",
      "salt": "0x62a145b5fb60c7df45c22408ba016fce4f87a1d461660cfae0f86651b056c962",
      "assetIds": []
    },
    {
      "x": 21,
      "y": 79,
      "size": 1,
      "price": "1011000000000000000000",
      "reserved": "0x7a9fe22691c811ea339d9b73150e6911a5343dca",
      "salt": "0x25a85e8ed12e64d4d861be70f726c5a671163223fe4d4c051a8ce7811106fb7f",
      "assetIds": []
    },
    {
      "x": 21,
      "y": 80,
      "size": 1,
      "price": "1011000000000000000000",
      "reserved": "",
      "salt": "0xef2de829906831b1f20e3acb19b709175838a812ac06ce582943b7d4814c3958",
      "assetIds": []
    },
    {
      "x": 21,
      "y": 81,
      "size": 1,
      "price": "1011000000000000000000",
      "reserved": "",
      "salt": "0xb53a1f03a4b294b69899e429820116cf67fbdffbb1fd804f96045b1f5e1c8d9c",
      "assetIds": []
    },
    {
      "x": 21,
      "y": 82,
      "size": 1,
      "price": "1011000000000000000000",
      "reserved": "",
      "salt": "0xa73b46f95c2e2786dae0a3670ab4092b5f8d115185c48990035f0c8ca09299fb",
      "assetIds": []
    },
    {
      "x": 21,
      "y": 83,
      "size": 1,
      "price": "1011000000000000000000",
      "reserved": "",
      "salt": "0x2d60cfd8c1133b5b9a6039c4a027f7b375a1ff98dd462c834666004612d4270b",
      "assetIds": []
    },
    {
      "x": 22,
      "y": 60,
      "size": 1,
      "price": "4683000000000000000000",
      "reserved": "",
      "salt": "0xfbaabba1009dcfd3c9cb6219f204d9ff8511c7c38ed4b69df8d34818839383f3",
      "assetIds": [
        "55464657044963196816950587289035428064568320970692304673817341489687941879808",
        "55464657044963196816950587289035428064568320970692304673817341489687933519880",
        "55464657044963196816950587289035428064568320970692304673817341489687933519882",
        "55464657044963196816950587289035428064568320970692304673817341489687933519886",
        "55464657044963196816950587289035428064568320970692304673817341489687933519883"
      ]
    },
    {
      "x": 22,
      "y": 61,
      "size": 1,
      "price": "4683000000000000000000",
      "reserved": "",
      "salt": "0xd7594fe01c561997630640dcea1334125189d4db62895a6a066586c2df74aa0b",
      "assetIds": [
        "55464657044963196816950587289035428064568320970692304673817341489687941879808",
        "55464657044963196816950587289035428064568320970692304673817341489687933519880",
        "55464657044963196816950587289035428064568320970692304673817341489687933519882",
        "55464657044963196816950587289035428064568320970692304673817341489687933519886",
        "55464657044963196816950587289035428064568320970692304673817341489687933519883"
      ]
    },
    {
      "x": 22,
      "y": 62,
      "size": 1,
      "price": "4683000000000000000000",
      "reserved": "",
      "salt": "0xc0f19946d47a4b175be0783db1132b3dd8d03b656806a2e9ce2184213e348857",
      "assetIds": [
        "55464657044963196816950587289035428064568320970692304673817341489687941879808",
        "55464657044963196816950587289035428064568320970692304673817341489687933519880",
        "55464657044963196816950587289035428064568320970692304673817341489687933519882",
        "55464657044963196816950587289035428064568320970692304673817341489687933519886",
        "55464657044963196816950587289035428064568320970692304673817341489687933519883"
      ]
    },
    {
      "x": 22,
      "y": 63,
      "size": 1,
      "price": "4683000000000000000000",
      "reserved": "",
      "salt": "0x21580a96953a83fef5cdb0b64ca063da5f657c47c6fde4cffddbe705828d7b16",
      "assetIds": [
        "55464657044963196816950587289035428064568320970692304673817341489687941879808",
        "55464657044963196816950587289035428064568320970692304673817341489687933519880",
        "55464657044963196816950587289035428064568320970692304673817341489687933519882",
        "55464657044963196816950587289035428064568320970692304673817341489687933519886",
        "55464657044963196816950587289035428064568320970692304673817341489687933519883"
      ]
    },
    {
      "x": 22,
      "y": 64,
      "size": 1,
      "price": "1011000000000000000000",
      "reserved": "0x7a9fe22691c811ea339d9b73150e6911a5343dca",
      "salt": "0x5e4da1ba6693811d928dbc73d309f486fb5acb5abe27ed530e19686ab4e4636c",
      "assetIds": []
    },
    {
      "x": 22,
      "y": 65,
      "size": 1,
      "price": "1011000000000000000000",
      "reserved": "",
      "salt": "0x021bd2c4e5edaab75d0a09a836f0007e4840ed797f25de7cb8ba427c2289954f",
      "assetIds": []
    },
    {
      "x": 22,
      "y": 66,
      "size": 1,
      "price": "1011000000000000000000",
      "reserved": "",
      "salt": "0x7d8de238896fbe05a5f0538287b7d0d284921c0989ebe2c0b607e5f7b295bb04",
      "assetIds": []
    },
    {
      "x": 22,
      "y": 67,
      "size": 1,
      "price": "1011000000000000000000",
      "reserved": "",
      "salt": "0x91a086b9d396d2a7fe354d3a6225fcd465df68ba3945de8ff4c89b3c1c693871",
      "assetIds": []
    },
    {
      "x": 22,
      "y": 68,
      "size": 1,
      "price": "1011000000000000000000",
      "reserved": "",
      "salt": "0xb96f95b8e681139e79dc5a3b670bec21d04a9f71f8b5867bc4ad042a80ea5198",
      "assetIds": []
    },
    {
      "x": 22,
      "y": 69,
      "size": 1,
      "price": "1011000000000000000000",
      "reserved": "",
      "salt": "0x46ff98ccb0ce4963d1bc93e7f7f17623fb1bbce0db78e3f95ba9db9467f064ee",
      "assetIds": []
    },
    {
      "x": 22,
      "y": 70,
      "size": 1,
      "price": "1011000000000000000000",
      "reserved": "",
      "salt": "0xa4e832e863e791ee02b4ced730c2ef6bc635dc325e4f9ddd302153d19814887a",
      "assetIds": []
    },
    {
      "x": 22,
      "y": 71,
      "size": 1,
      "price": "1011000000000000000000",
      "reserved": "",
      "salt": "0x519a89f13f333e03dfff35cc5254668243cdfae899ea7ea32db4be06763325b7",
      "assetIds": []
    },
    {
      "x": 22,
      "y": 72,
      "size": 1,
      "price": "1011000000000000000000",
      "reserved": "",
      "salt": "0x711caecd155c7cca56e4f0bd3db42b6bcc92709cdf409dab010ad0a8cce3ed1d",
      "assetIds": []
    },
    {
      "x": 22,
      "y": 73,
      "size": 1,
      "price": "1011000000000000000000",
      "reserved": "",
      "salt": "0x0e9290292520ce2cee0d70915047f48926a57272e0ff048860d3fc4f5ec2d6b1",
      "assetIds": []
    },
    {
      "x": 22,
      "y": 74,
      "size": 1,
      "price": "1011000000000000000000",
      "reserved": "0x7a9fe22691c811ea339d9b73150e6911a5343dca",
      "salt": "0xdab7827243fe8ef8e53bafb8f95d153a339d8ffed5304113d89e911cd1be0876",
      "assetIds": []
    },
    {
      "x": 22,
      "y": 75,
      "size": 1,
      "price": "1011000000000000000000",
      "reserved": "",
      "salt": "0x21106fde8e464fb8d1c88dd6e0e80b2b0a1e3ea2433dffb056563b536121b93c",
      "assetIds": []
    },
    {
      "x": 22,
      "y": 76,
      "size": 1,
      "price": "1011000000000000000000",
      "reserved": "",
      "salt": "0x4fc8affd4d5c7c477e5f359117c1045b05b68e7c7eda649166b0186c5f1d8a35",
      "assetIds": []
    },
    {
      "x": 22,
      "y": 77,
      "size": 1,
      "price": "1011000000000000000000",
      "reserved": "",
      "salt": "0xcd185ebdbad270933c07fcba95b50a3d4ac73ae4f210a1821e98b77d90dbcd8f",
      "assetIds": []
    },
    {
      "x": 22,
      "y": 78,
      "size": 1,
      "price": "1011000000000000000000",
      "reserved": "",
      "salt": "0x40ea919a38f2f40fcf479d4bfb61958e2bc21807bc039e20f30213d988b0d061",
      "assetIds": []
    },
    {
      "x": 22,
      "y": 79,
      "size": 1,
      "price": "1011000000000000000000",
      "reserved": "",
      "salt": "0xe4f72b48ab16f58b18aa2e736d708c16cbe718c491b0c92651b8a0da51753a0f",
      "assetIds": []
    },
    {
      "x": 22,
      "y": 80,
      "size": 1,
      "price": "1011000000000000000000",
      "reserved": "",
      "salt": "0x6346eed900bfba71b750dcaba59d535aa5aa24fa92a097201ec6ca28a36aad11",
      "assetIds": []
    },
    {
      "x": 22,
      "y": 81,
      "size": 1,
      "price": "1011000000000000000000",
      "reserved": "",
      "salt": "0xf9b216e732535e813bff2406f4b80ddb077008c00069483906461f8d1ec821ff",
      "assetIds": []
    },
    {
      "x": 22,
      "y": 82,
      "size": 1,
      "price": "1011000000000000000000",
      "reserved": "",
      "salt": "0xcfd738a7ae8b6e7a8a3d0f446511bd95c0c389d6c44e62a238d8be927e0b39c7",
      "assetIds": []
    },
    {
      "x": 22,
      "y": 83,
      "size": 1,
      "price": "1011000000000000000000",
      "reserved": "",
      "salt": "0xcf0f56837a1cebba8c8b7d3ff77216f51623137773c00beb29a2454d0320db2d",
      "assetIds": []
    },
    {
      "x": 23,
      "y": 60,
      "size": 1,
      "price": "4683000000000000000000",
      "reserved": "",
      "salt": "0x1dab74be1f57d6e48131256022884c988b4cf39f3036d699662b534738e8c662",
      "assetIds": [
        "55464657044963196816950587289035428064568320970692304673817341489687941879808",
        "55464657044963196816950587289035428064568320970692304673817341489687933519880",
        "55464657044963196816950587289035428064568320970692304673817341489687933519882",
        "55464657044963196816950587289035428064568320970692304673817341489687933519886",
        "55464657044963196816950587289035428064568320970692304673817341489687933519883"
      ]
    },
    {
      "x": 23,
      "y": 61,
      "size": 1,
      "price": "4683000000000000000000",
      "reserved": "",
      "salt": "0xac64692131a6c75a1540ca8f303fcf48a1b9730fd0a7f5dd0c29fd50498c2290",
      "assetIds": [
        "55464657044963196816950587289035428064568320970692304673817341489687941879808",
        "55464657044963196816950587289035428064568320970692304673817341489687933519880",
        "55464657044963196816950587289035428064568320970692304673817341489687933519882",
        "55464657044963196816950587289035428064568320970692304673817341489687933519886",
        "55464657044963196816950587289035428064568320970692304673817341489687933519883"
      ]
    },
    {
      "x": 23,
      "y": 62,
      "size": 1,
      "price": "4683000000000000000000",
      "reserved": "",
      "salt": "0x7456d1440e8d085b214beb30b7615f569008be97edd1c1d35eb3a8eb0b71512f",
      "assetIds": [
        "55464657044963196816950587289035428064568320970692304673817341489687941879808",
        "55464657044963196816950587289035428064568320970692304673817341489687933519880",
        "55464657044963196816950587289035428064568320970692304673817341489687933519882",
        "55464657044963196816950587289035428064568320970692304673817341489687933519886",
        "55464657044963196816950587289035428064568320970692304673817341489687933519883"
      ]
    },
    {
      "x": 23,
      "y": 63,
      "size": 1,
      "price": "4683000000000000000000",
      "reserved": "",
      "salt": "0x5a3021b9d65eeccb7574d31792da737b429f0cee3e0431a6123b984377f97e02",
      "assetIds": [
        "55464657044963196816950587289035428064568320970692304673817341489687941879808",
        "55464657044963196816950587289035428064568320970692304673817341489687933519880",
        "55464657044963196816950587289035428064568320970692304673817341489687933519882",
        "55464657044963196816950587289035428064568320970692304673817341489687933519886",
        "55464657044963196816950587289035428064568320970692304673817341489687933519883"
      ]
    },
    {
      "x": 23,
      "y": 64,
      "size": 1,
      "price": "1011000000000000000000",
      "reserved": "",
      "salt": "0x5a4207bf7a900cd31a70a66a26da87b6451df5e48f5ed13bdd06d0e43ff3c589",
      "assetIds": []
    },
    {
      "x": 23,
      "y": 65,
      "size": 1,
      "price": "1011000000000000000000",
      "reserved": "",
      "salt": "0x42253dfd83615d8cd6854906adfa1030a5e0b6e861bbb51c68fb1ef9b1afede0",
      "assetIds": []
    },
    {
      "x": 23,
      "y": 66,
      "size": 1,
      "price": "1011000000000000000000",
      "reserved": "",
      "salt": "0x274294bdb110399e293350b67d9fddb9318ba8a8e5522e3639362ec3e2458c20",
      "assetIds": []
    },
    {
      "x": 23,
      "y": 67,
      "size": 1,
      "price": "1011000000000000000000",
      "reserved": "",
      "salt": "0xa29100475d0702133977c6531683df3db996bb32ab4148965ae6ecdfb60f794a",
      "assetIds": []
    },
    {
      "x": 23,
      "y": 68,
      "size": 1,
      "price": "1011000000000000000000",
      "reserved": "",
      "salt": "0xd04158034ead9e41895223c7d0406ad8b719e14d3bdef48340c49da3f983748e",
      "assetIds": []
    },
    {
      "x": 23,
      "y": 69,
      "size": 1,
      "price": "1011000000000000000000",
      "reserved": "",
      "salt": "0xdb33f9dca72a8ba83a95ffe3ce871b5613ff9360c9b25ca37ca787dae485239f",
      "assetIds": []
    },
    {
      "x": 23,
      "y": 70,
      "size": 1,
      "price": "1011000000000000000000",
      "reserved": "",
      "salt": "0x8f15b96be1c7b491deda0b22b1ad97c0b9f069e96dc4182b0df2e916f99d4416",
      "assetIds": []
    },
    {
      "x": 23,
      "y": 71,
      "size": 1,
      "price": "1011000000000000000000",
      "reserved": "",
      "salt": "0x528ec543ded3362374d9c2151da6905232558a934e46c76c9051040ef1e55111",
      "assetIds": []
    },
    {
      "x": 23,
      "y": 72,
      "size": 1,
      "price": "1011000000000000000000",
      "reserved": "",
      "salt": "0x0e688ed99a97de9811e34e88cf09b0af8c1cbce27fc803a4b690cf36eeb0fe38",
      "assetIds": []
    },
    {
      "x": 23,
      "y": 73,
      "size": 1,
      "price": "1011000000000000000000",
      "reserved": "",
      "salt": "0xe0d4aa7561eb658c8ee5ad7f3e4f5a7a79def13c7e28ca879ea4a0dbc4683756",
      "assetIds": []
    },
    {
      "x": 23,
      "y": 74,
      "size": 1,
      "price": "1011000000000000000000",
      "reserved": "",
      "salt": "0xed1fa10f6ad9d63e6d20fc44984cd0d89e2f93f48f6c0d19da9695101086faa0",
      "assetIds": []
    },
    {
      "x": 23,
      "y": 75,
      "size": 1,
      "price": "1011000000000000000000",
      "reserved": "",
      "salt": "0x22d51ccc3367c82739a78786d1a774f942aeb74eb4ff6105f2431c1f76c03ad6",
      "assetIds": []
    },
    {
      "x": 23,
      "y": 76,
      "size": 1,
      "price": "1011000000000000000000",
      "reserved": "",
      "salt": "0x2b71f32980f78919a7317b52c9844fb6a804514303e00a681f6553e63f894940",
      "assetIds": []
    },
    {
      "x": 23,
      "y": 77,
      "size": 1,
      "price": "1011000000000000000000",
      "reserved": "",
      "salt": "0x054904c873a4d291c103683ca4b0c162751855a841d559f0c3fdfc700f1ccc14",
      "assetIds": []
    },
    {
      "x": 23,
      "y": 78,
      "size": 1,
      "price": "1011000000000000000000",
      "reserved": "",
      "salt": "0xe57b0a45ff03533c3667f171bc7e8ed254212495de7f6129891959b52e98ff7a",
      "assetIds": []
    },
    {
      "x": 23,
      "y": 79,
      "size": 1,
      "price": "1011000000000000000000",
      "reserved": "",
      "salt": "0xfdbb82f73a4295602472d80d989d06b5b76824cb5f495fabc0dfbd5006338241",
      "assetIds": []
    },
    {
      "x": 23,
      "y": 80,
      "size": 1,
      "price": "1011000000000000000000",
      "reserved": "0x7a9fe22691c811ea339d9b73150e6911a5343dca",
      "salt": "0x2ba5a4195feda7a1387d421a44a40a45bb8fddfaada8a1def734f48247db4c44",
      "assetIds": []
    },
    {
      "x": 23,
      "y": 81,
      "size": 1,
      "price": "1011000000000000000000",
      "reserved": "",
      "salt": "0x2c8f4357d8242ea5af044cf375672911959cfa44765541cd096eafe7634b9c1a",
      "assetIds": []
    },
    {
      "x": 23,
      "y": 82,
      "size": 1,
      "price": "1011000000000000000000",
      "reserved": "",
      "salt": "0xe9b6fc881b6ce0913c9ac1b2f0fd362c81f561f77f214ee6f44b5f0e4d11d48a",
      "assetIds": []
    },
    {
      "x": 23,
      "y": 83,
      "size": 1,
      "price": "1011000000000000000000",
      "reserved": "",
      "salt": "0xee15e2468caa2d4c5abc583eb14dc31462309938910e2b19d09ee9cfed1121e8",
      "assetIds": []
    },
    {
      "x": 24,
      "y": 66,
      "size": 1,
      "price": "1011000000000000000000",
      "reserved": "",
      "salt": "0x8be51d71a2aeec48283bbdeae8e293efe176baf53916b716dce97d7b775596cb",
      "assetIds": []
    },
    {
      "x": 24,
      "y": 67,
      "size": 1,
      "price": "1011000000000000000000",
      "reserved": "0x7a9fe22691c811ea339d9b73150e6911a5343dca",
      "salt": "0xc60bd15818e878b79e0c4f90234f6e6e2687b6430306091a6fc32860719b1932",
      "assetIds": []
    },
    {
      "x": 24,
      "y": 68,
      "size": 1,
      "price": "1011000000000000000000",
      "reserved": "",
      "salt": "0x4b7e86b0c638b0b62f24dd847922cc022390b5f06e9e28b6a1071ff36ccb592a",
      "assetIds": []
    },
    {
      "x": 24,
      "y": 69,
      "size": 1,
      "price": "1011000000000000000000",
      "reserved": "",
      "salt": "0xab80d3443477e1958bdc81436d8baf3f8dbf9288f2c643ddeb1f33c9d7f29c1c",
      "assetIds": []
    },
    {
      "x": 24,
      "y": 70,
      "size": 1,
      "price": "1011000000000000000000",
      "reserved": "",
      "salt": "0xb0b78654e80305715a727aa37f0cddb90f43d8522921a68298b0cdf371ebd219",
      "assetIds": []
    },
    {
      "x": 24,
      "y": 71,
      "size": 1,
      "price": "1011000000000000000000",
      "reserved": "",
      "salt": "0xc2a564a55db32ba35f460346d8e05d2e2b8bcc76db6f9d0f7151ed446ce4fc0c",
      "assetIds": []
    },
    {
      "x": 25,
      "y": 66,
      "size": 1,
      "price": "1011000000000000000000",
      "reserved": "",
      "salt": "0x41d60c1750d765915b22a1424c4bcc911fb1b3bff56f0fbbe3efdb7bb4caa122",
      "assetIds": []
    },
    {
      "x": 25,
      "y": 67,
      "size": 1,
      "price": "1011000000000000000000",
      "reserved": "",
      "salt": "0xc0949edb56220428bb479323bc14b24e177b8f20a3405ba3913ab22a760e9c1e",
      "assetIds": []
    },
    {
      "x": 25,
      "y": 68,
      "size": 1,
      "price": "1011000000000000000000",
      "reserved": "",
      "salt": "0x808989486ebc9f2c660fc4b5c13f09019fbfa07dcf6f0a05eb9f06ad79429f61",
      "assetIds": []
    },
    {
      "x": 25,
      "y": 69,
      "size": 1,
      "price": "1011000000000000000000",
      "reserved": "",
      "salt": "0x890657b74aec391e49f7402c5f94312113b348d4dc01a78a535369b809654f74",
      "assetIds": []
    },
    {
      "x": 25,
      "y": 70,
      "size": 1,
      "price": "1011000000000000000000",
      "reserved": "",
      "salt": "0xbee9373782eefa8a8f0f443f4a1845765ba1807280188d5b55a3539cce0b661c",
      "assetIds": []
    },
    {
      "x": 25,
      "y": 71,
      "size": 1,
      "price": "1011000000000000000000",
      "reserved": "",
      "salt": "0x012af2552613d52f13292145f810bb58540384c57181c7549d67b33d6665a947",
      "assetIds": []
    },
    {
      "x": 26,
      "y": 66,
      "size": 1,
      "price": "1011000000000000000000",
      "reserved": "0x7a9fe22691c811ea339d9b73150e6911a5343dca",
      "salt": "0xc5926193fb59a54fff0815e218c27015b6e3f519d36678ff4de301fcd23f936d",
      "assetIds": []
    },
    {
      "x": 26,
      "y": 67,
      "size": 1,
      "price": "1011000000000000000000",
      "reserved": "",
      "salt": "0x21d942d11a1838698f160621a263d82d4dba4bb8e352f5f90b7b261befc3c549",
      "assetIds": []
    },
    {
      "x": 26,
      "y": 68,
      "size": 1,
      "price": "1011000000000000000000",
      "reserved": "0x7a9fe22691c811ea339d9b73150e6911a5343dca",
      "salt": "0xb140c63b00f5c5f6508a09a3d80f506e7f85922b167f2fd152efa645ba029745",
      "assetIds": []
    },
    {
      "x": 26,
      "y": 69,
      "size": 1,
      "price": "1011000000000000000000",
      "reserved": "",
      "salt": "0xd4afb143596c72a3408c8e708a64af5551b8be5eeaf865f5821cdc450174b3bf",
      "assetIds": []
    },
    {
      "x": 26,
      "y": 70,
      "size": 1,
      "price": "1011000000000000000000",
      "reserved": "0x7a9fe22691c811ea339d9b73150e6911a5343dca",
      "salt": "0x6773874acdc8492e437836ac3a2f0e196dab69353c37c2063a63ce37ebccee90",
      "assetIds": []
    },
    {
      "x": 26,
      "y": 71,
      "size": 1,
      "price": "1011000000000000000000",
      "reserved": "",
      "salt": "0x11021a1e25814484b3ec55747a22ad2d243dab064d367ca7c5c3af1aa6ed26be",
      "assetIds": []
    },
    {
      "x": 3,
      "y": 54,
      "size": 3,
      "price": "8648000000000000000000",
      "reserved": "0x7a9fe22691c811ea339d9b73150e6911a5343dca",
      "salt": "0xaa4723d853560bfd699357f0855c16334104ba8af1fce1468b8a52c3299326c2",
      "assetIds": []
    },
    {
      "x": 9,
      "y": 42,
      "size": 3,
      "price": "8648000000000000000000",
      "reserved": "0x7a9fe22691c811ea339d9b73150e6911a5343dca",
      "salt": "0x9a8af1737c0851d7f264e0317b870f1a6ada1b9bb3acfb1d1baf9b831a14b200",
      "assetIds": []
    },
    {
      "x": 9,
      "y": 84,
      "size": 3,
      "price": "8648000000000000000000",
      "reserved": "0x7a9fe22691c811ea339d9b73150e6911a5343dca",
      "salt": "0x853111446a48d07f755bdd9ed7f9236a7351f93e2ba232c26cd3f85210e3d795",
      "assetIds": []
    },
    {
      "x": 9,
      "y": 87,
      "size": 3,
      "price": "8648000000000000000000",
      "reserved": "0x7a9fe22691c811ea339d9b73150e6911a5343dca",
      "salt": "0x231fa87be2ec9ebefec9a3d27bf3a32015ec296910e6fe0a11a73b7cab233c66",
      "assetIds": []
    },
    {
      "x": 12,
      "y": 57,
      "size": 3,
      "price": "8648000000000000000000",
      "reserved": "0x7a9fe22691c811ea339d9b73150e6911a5343dca",
      "salt": "0x50afa5fc26116e62fd98976cb7d52043704ac3853051ff197f5d280f505d5b69",
      "assetIds": []
    },
    {
      "x": 12,
      "y": 60,
      "size": 3,
      "price": "8648000000000000000000",
      "reserved": "0x7a9fe22691c811ea339d9b73150e6911a5343dca",
      "salt": "0x8ca3598a377751f1c86941575e851efa37d720f9b6d732023b4649109d326ed5",
      "assetIds": []
    },
    {
      "x": 18,
      "y": 72,
      "size": 3,
      "price": "8648000000000000000000",
      "reserved": "0x7a9fe22691c811ea339d9b73150e6911a5343dca",
      "salt": "0x6883e026be814784fc88c9cea3485925b23e3febbdc13691071f4c357e9622c3",
      "assetIds": []
    },
    {
      "x": 0,
      "y": 60,
      "size": 6,
      "price": "32772000000000000000000",
      "reserved": "0x7a9fe22691c811ea339d9b73150e6911a5343dca",
      "salt": "0xcb4b39e46244e20f48c99bde22650efd74fa13b8bb5e5a800f1c8e516562e89a",
      "assetIds": []
    },
    {
      "x": 0,
      "y": 84,
      "size": 6,
      "price": "32772000000000000000000",
      "reserved": "0x7a9fe22691c811ea339d9b73150e6911a5343dca",
      "salt": "0x63fb4e68a51f8a8c5f0b55827e97e5735f8987c585e6f494eae84c8fc069ca74",
      "assetIds": []
    },
    {
      "x": 6,
      "y": 54,
      "size": 6,
      "price": "32772000000000000000000",
      "reserved": "0x7a9fe22691c811ea339d9b73150e6911a5343dca",
      "salt": "0xcf28035c015157e4ff01410bcabd24a29ddf203ddd2ab8afc6d362c36af60af0",
      "assetIds": []
    },
    {
      "x": 12,
      "y": 72,
      "size": 6,
      "price": "32772000000000000000000",
      "reserved": "0x7a9fe22691c811ea339d9b73150e6911a5343dca",
      "salt": "0xd5a2b8de83baa13b166ea0f9f1be814865461c8f1ec48c3411138c67d2d41a4f",
      "assetIds": []
    },
    {
      "x": 0,
      "y": 72,
      "size": 12,
      "price": "123806000000000000000000",
      "reserved": "0x7a9fe22691c811ea339d9b73150e6911a5343dca",
      "salt": "0xc2ea2990a2836d8a7bdddaee186382f8c2d6d581681ed4e5802677893ed87285",
      "assetIds": []
    },
    {
      "x": 144,
      "y": 156,
      "size": 12,
      "price": "123806000000000000000000",
      "reserved": "0x7a9fe22691c811ea339d9b73150e6911a5343dca",
      "salt": "0xdc3cfe5920aa83307836651bbc7df9525e103fc32aa57645deb19cc10a7a3342",
      "assetIds": []
    }
  ],
  "solcInputHash": "ea3f750ed6a3f377b8756d8b7b11eedf",
  "bytecode": "0x610160604052620d2f006005556103e860075534801561001e57600080fd5b5060405161242e38038061242e833981810160405261018081101561004257600080fd5b50805160208201516040830151606080850151608086015160a08088015160c0808a015160e08b01516101008c01516101208d01516101408e0151610160909e0151600280546001600160a01b0319166001600160a01b03861617905560038390558d8b1b6001600160601b0319908116909852998c901b909616909352999a9899979895979496929590949391926100dc8a600161014a565b600680546001600160a01b03199081166001600160a01b039a8b1617909155610140979097526101209590955260008054909616979096169690961790935550606093841b6001600160601b031990811660e05292841b831660805290921b1661010052506101ae92505050565b6001600160a01b038216600081815260016020908152604091829020805460ff191685151590811790915582519384529083015280517fb21eb88b4e33b3f1281830a7178d74d8aa73220416215726b68ae23d539515cb9281900390910190a15050565b60805160601c60a05160601c60c05160601c60e05160601c6101005160601c61012051610140516121fb610233600039806109375280611d44525080610913528061139a525080611da45250806115d252806116f4525080610c50528061159c5280611dd852508061166152806116c5525080610dfa528061190852506121fb6000f3fe608060405234801561001057600080fd5b50600436106101515760003560e01c8063984d6252116100cd578063dc5074af11610081578063ecb255b511610066578063ecb255b514610857578063f23a6e6114610874578063f2e7b3811461090957610151565b8063dc5074af14610814578063e56f8a9e1461083a57610151565b8063bc197c81116100b2578063bc197c81146105d3578063c10a420814610735578063caed35001461080c57610151565b8063984d6252146104db578063b522ecff146105ad57610151565b80636e9960c3116101245780638a04af6a116101095780638a04af6a1461032a5780638a12b82f146103585780638f283970146104b557610151565b80636e9960c3146102fe57806377f1c3ac1461032257610151565b806325cb5bc014610156578063495906571461017057806358bc29441461017857806365194ce7146101a0575b600080fd5b61015e610911565b60408051918252519081900360200190f35b61015e610935565b61019e6004803603602081101561018e57600080fd5b50356001600160a01b0316610959565b005b610246600480360360208110156101b657600080fd5b8101906020810181356401000000008111156101d157600080fd5b8201836020820111156101e357600080fd5b8035906020019184600183028401116401000000008311171561020557600080fd5b91908080601f016020809104026020016040519081016040528093929190818152602001838380828437600092019190915250929550610a04945050505050565b6040518080602001866001600160a01b03166001600160a01b03168152602001856001600160a01b03166001600160a01b03168152602001848152602001838152602001828103825287818151815260200191508051906020019080838360005b838110156102bf5781810151838201526020016102a7565b50505050905090810190601f1680156102ec5780820380516001836020036101000a031916815260200191505b50965050505050505060405180910390f35b610306610b09565b604080516001600160a01b039092168252519081900360200190f35b61015e610b18565b61019e6004803603604081101561034057600080fd5b506001600160a01b0381351690602001351515610b1e565b61019e600480360361018081101561036f57600080fd5b6001600160a01b038235811692602081013582169260408201359092169160608201359160808101359160a08201359160c08101359160e0820135916101008101359181019061014081016101208201356401000000008111156103d257600080fd5b8201836020820111156103e457600080fd5b8035906020019184602083028401116401000000008311171561040657600080fd5b91939092909160208101903564010000000081111561042457600080fd5b82018360208201111561043657600080fd5b8035906020019184602083028401116401000000008311171561045857600080fd5b91939092909160208101903564010000000081111561047657600080fd5b82018360208201111561048857600080fd5b803590602001918460018302840111640100000000831117156104aa57600080fd5b509092509050610b75565b61019e600480360360208110156104cb57600080fd5b50356001600160a01b0316610cc3565b61019e600480360360608110156104f157600080fd5b6001600160a01b03823516919081019060408101602082013564010000000081111561051c57600080fd5b82018360208201111561052e57600080fd5b8035906020019184602083028401116401000000008311171561055057600080fd5b91939092909160208101903564010000000081111561056e57600080fd5b82018360208201111561058057600080fd5b803590602001918460208302840111640100000000831117156105a257600080fd5b509092509050610d99565b61019e600480360360208110156105c357600080fd5b50356001600160a01b0316610f24565b610700600480360360a08110156105e957600080fd5b6001600160a01b03823581169260208101359091169181019060608101604082013564010000000081111561061d57600080fd5b82018360208201111561062f57600080fd5b8035906020019184602083028401116401000000008311171561065157600080fd5b91939092909160208101903564010000000081111561066f57600080fd5b82018360208201111561068157600080fd5b803590602001918460208302840111640100000000831117156106a357600080fd5b9193909290916020810190356401000000008111156106c157600080fd5b8201836020820111156106d357600080fd5b803590602001918460018302840111640100000000831117156106f557600080fd5b50909250905061100d565b604080517fffffffff000000000000000000000000000000000000000000000000000000009092168252519081900360200190f35b6107f8600480360360a081101561074b57600080fd5b81019060208101813564010000000081111561076657600080fd5b82018360208201111561077857600080fd5b8035906020019184600183028401116401000000008311171561079a57600080fd5b91908080601f016020809104026020016040519081016040528093929190818152602001838380828437600092019190915250929550506001600160a01b03833581169450602084013516926040810135925060600135905061103a565b604080519115158252519081900360200190f35b610306611176565b6107f86004803603602081101561082a57600080fd5b50356001600160a01b0316611185565b61019e6004803603602081101561085057600080fd5b50356111a3565b61019e6004803603602081101561086d57600080fd5b5035611207565b610700600480360360a081101561088a57600080fd5b6001600160a01b03823581169260208101359091169160408201359160608101359181019060a0810160808201356401000000008111156108ca57600080fd5b8201836020820111156108dc57600080fd5b803590602001918460018302840111640100000000831117156108fe57600080fd5b50909250905061126b565b61015e611296565b7f000000000000000000000000000000000000000000000000000000000000000090565b7f000000000000000000000000000000000000000000000000000000000000000090565b6000546001600160a01b031633146109b8576040805162461bcd60e51b815260206004820152601060248201527f53656e646572206e6f742061646d696e00000000000000000000000000000000604482015290519081900360640190fd5b600554600280546001600160a01b03908116600090815260046020526040902042909301909255805473ffffffffffffffffffffffffffffffffffffffff191692909116919091179055565b606060008060008060606000806000808a80602001905160a0811015610a2957600080fd5b8101908080516040519392919084640100000000821115610a4957600080fd5b908301906020820185811115610a5e57600080fd5b8251640100000000811182820188101715610a7857600080fd5b82525081516020918201929091019080838360005b83811015610aa5578181015183820152602001610a8d565b50505050905090810190601f168015610ad25780820380516001836020036101000a031916815260200191505b5060409081526020820151908201516060830151608090930151959f50909d509b5099509197505050505050505091939590929450565b6000546001600160a01b031690565b60035490565b6000546001600160a01b03163314610b675760405162461bcd60e51b815260040180806020018281038252602e815260200180612198602e913960400191505060405180910390fd5b610b71828261129c565b5050565b610b7f898961131e565b610c048f8e8e8e8e8e8d8d8d80806020026020016040519081016040528093929190818152602001838360200280828437600081840152601f19601f820116905080830192505050505050508c8c8080602002602001604051908101604052809392919081815260200183836020028082843760009201919091525061139892505050565b610c458f8984848080601f01602080910402602001604051908101604052809392919081815260200183838082843760009201919091525061157592505050565b610c758f8f8e8e8e8d7f00000000000000000000000000000000000000000000000000000000000000008f6115c6565b610cb28e87878080602002602001604051908101604052809392919081815260200183836020028082843760009201919091525061189192505050565b505050505050505050505050505050565b6000546001600160a01b03163314610d22576040805162461bcd60e51b815260206004820152601b60248201527f6f6e6c792061646d696e2063616e206368616e67652061646d696e0000000000604482015290519081900360640190fd5b600054604080516001600160a01b039283168152918316602083015280517f7e644d79422f17c01e4894b5f4f588d331ebfa28653d42ae832dc59e38c9798f9281900390910190a16000805473ffffffffffffffffffffffffffffffffffffffff19166001600160a01b0392909216919091179055565b6000546001600160a01b03163314610df8576040805162461bcd60e51b815260206004820152600e60248201527f4e4f545f415554484f52495a4544000000000000000000000000000000000000604482015290519081900360640190fd5b7f00000000000000000000000000000000000000000000000000000000000000006001600160a01b0316632eb2c2d63087878787876040518763ffffffff1660e01b815260040180876001600160a01b03166001600160a01b03168152602001866001600160a01b03166001600160a01b031681526020018060200180602001806020018481038452888882818152602001925060200280828437600083820152601f01601f19169091018581038452868152602090810191508790870280828437600081840152601f19601f8201169050808301925050508481038252600081526020016020019950505050505050505050600060405180830381600087803b158015610f0557600080fd5b505af1158015610f19573d6000803e3d6000fd5b505050505050505050565b6001600160a01b038116610f7f576040805162461bcd60e51b815260206004820152600c60248201527f5a45524f5f414444524553530000000000000000000000000000000000000000604482015290519081900360640190fd5b6000546001600160a01b03163314610fde576040805162461bcd60e51b815260206004820152600e60248201527f4e4f545f415554484f52495a4544000000000000000000000000000000000000604482015290519081900360640190fd5b6006805473ffffffffffffffffffffffffffffffffffffffff19166001600160a01b0392909216919091179055565b7fbc197c810000000000000000000000000000000000000000000000000000000098975050505050505050565b600060035482118061105d5750836001600160a01b0316856001600160a01b0316145b8061106757508242115b156110745750600061116d565b60408051606087811b7fffffffffffffffffffffffffffffffffffffffff0000000000000000000000009081166020808501919091529188901b166034830152604882018690526068808301869052835180840390910181526088830184528051908201207f19457468657265756d205369676e6564204d6573736167653a0a33320000000060a884015260c48084018290528451808503909101815260e4909301909352815191012060009061112b9089611a55565b6001600160a01b03811660009081526004602052604090205490915042116111585760019250505061116d565b6002546001600160a01b039081169116149150505b95945050505050565b6002546001600160a01b031690565b6001600160a01b031660009081526001602052604090205460ff1690565b6000546001600160a01b03163314611202576040805162461bcd60e51b815260206004820152601060248201527f53656e646572206e6f742061646d696e00000000000000000000000000000000604482015290519081900360640190fd5b600355565b6000546001600160a01b03163314611266576040805162461bcd60e51b815260206004820152600e60248201527f4e4f545f415554484f52495a4544000000000000000000000000000000000000604482015290519081900360640190fd5b600755565b7ff23a6e61000000000000000000000000000000000000000000000000000000009695505050505050565b60075490565b6001600160a01b03821660008181526001602090815260409182902080547fffffffffffffffffffffffffffffffffffffffffffffffffffffffffffffff001685151590811790915582519384529083015280517fb21eb88b4e33b3f1281830a7178d74d8aa73220416215726b68ae23d539515cb9281900390910190a15050565b6113456103e861133960075485611b2290919063ffffffff16565b9063ffffffff611b9816565b8114610b71576040805162461bcd60e51b815260206004820152600d60248201527f494e56414c49445f505249434500000000000000000000000000000000000000604482015290519081900360640190fd5b7f0000000000000000000000000000000000000000000000000000000000000000421061140c576040805162461bcd60e51b815260206004820152600c60248201527f53414c455f49535f4f5645520000000000000000000000000000000000000000604482015290519081900360640190fd5b6001600160a01b03891633148061143257503360009081526001602052604090205460ff165b611483576040805162461bcd60e51b815260206004820152600e60248201527f4e4f545f415554484f52495a4544000000000000000000000000000000000000604482015290519081900360640190fd5b6001600160a01b03881615806114aa5750886001600160a01b0316886001600160a01b0316145b6114fb576040805162461bcd60e51b815260206004820152600d60248201527f52455345525645445f4c414e4400000000000000000000000000000000000000604482015290519081900360640190fd5b600061150c888888888d8989611bfd565b90506115188282611ca2565b611569576040805162461bcd60e51b815260206004820152600c60248201527f494e56414c49445f4c414e440000000000000000000000000000000000000000604482015290519081900360640190fd5b50505050505050505050565b60006115818484611d6b565b6006549091506115c0908590839085906001600160a01b03167f0000000000000000000000000000000000000000000000000000000000000000611eb8565b50505050565b83600114806115fc57507f00000000000000000000000000000000000000000000000000000000000000006001600160a01b0316155b156116c357604080517f6e1e3bbf0000000000000000000000000000000000000000000000000000000081526001600160a01b03898116600483015260248201879052604482018990526064820188905260a06084830152600060a4830181905292517f000000000000000000000000000000000000000000000000000000000000000090911692636e1e3bbf9260e4808201939182900301818387803b1580156116a657600080fd5b505af11580156116ba573d6000803e3d6000fd5b50505050611827565b7f00000000000000000000000000000000000000000000000000000000000000006001600160a01b0316636e1e3bbf7f00000000000000000000000000000000000000000000000000000000000000008689898c60405160200180826001600160a01b03166001600160a01b031681526020019150506040516020818303038152906040526040518663ffffffff1660e01b815260040180866001600160a01b03166001600160a01b0316815260200185815260200184815260200183815260200180602001828103825283818151815260200191508051906020019080838360005b838110156117be5781810151838201526020016117a6565b50505050905090810190601f1680156117eb5780820380516001836020036101000a031916815260200191505b509650505050505050600060405180830381600087803b15801561180e57600080fd5b505af1158015611822573d6000803e3d6000fd5b505050505b60408051858152602081018590526001600160a01b03848116828401526060820184905291516101988802890192808b1692908c16917fe4dfa6ac11314892f3029b34a25b1a887da3b1cab2bbf8506d87128ba6e3ac029181900360800190a45050505050505050565b6060815167ffffffffffffffff811180156118ab57600080fd5b506040519080825280602002602001820160405280156118d5578160200160208202803683370190505b50905060005b82518110156119055760018282815181106118f257fe5b60209081029190910101526001016118db565b507f00000000000000000000000000000000000000000000000000000000000000006001600160a01b0316632eb2c2d6308585856040518563ffffffff1660e01b815260040180856001600160a01b03166001600160a01b03168152602001846001600160a01b03166001600160a01b03168152602001806020018060200180602001848103845286818151815260200191508051906020019060200280838360005b838110156119c05781810151838201526020016119a8565b50505050905001848103835285818151815260200191508051906020019060200280838360005b838110156119ff5781810151838201526020016119e7565b50505050905001848103825260008152602001602001975050505050505050600060405180830381600087803b158015611a3857600080fd5b505af1158015611a4c573d6000803e3d6000fd5b50505050505050565b60008151604114611a6557600080fd5b60208201516040830151606084015160001a601b811015611a8457601b015b8060ff16601b1480611a9957508060ff16601c145b611aa257600080fd5b6040805160008152602080820180845289905260ff8416828401526060820186905260808201859052915160019260a0808401939192601f1981019281900390910190855afa158015611af9573d6000803e3d6000fd5b5050604051601f1901519450506001600160a01b038416611b1957600080fd5b50505092915050565b600082611b3157506000611b92565b5081810281838281611b3f57fe5b0414611b92576040805162461bcd60e51b815260206004820152600860248201527f6f766572666c6f77000000000000000000000000000000000000000000000000604482015290519081900360640190fd5b92915050565b600081611bec576040805162461bcd60e51b815260206004820152600960248201527f64697662797a65726f0000000000000000000000000000000000000000000000604482015290519081900360640190fd5b818381611bf557fe5b049392505050565b60008787878787878760405160200180888152602001878152602001868152602001858152602001846001600160a01b03166001600160a01b031660601b8152601401838152602001828051906020019060200280838360005b83811015611c6f578181015183820152602001611c57565b50505050905001975050505050505050604051602081830303815290604052805190602001209050979650505050505050565b600081815b8451811015611d41576000858281518110611cbe57fe5b6020026020010151905080831015611d065782816040516020018083815260200182815260200192505050604051602081830303815290604052805190602001209250611d38565b808360405160200180838152602001828152602001925050506040516020818303038152906040528051906020012092505b50600101611ca7565b507f0000000000000000000000000000000000000000000000000000000000000000149392505050565b600080611d84606461133985600563ffffffff611b2216565b604080516323b872dd60e01b81526001600160a01b0387811660048301527f0000000000000000000000000000000000000000000000000000000000000000811660248301526044820184905291519293507f0000000000000000000000000000000000000000000000000000000000000000909116916323b872dd916064808201926020929091908290030181600087803b158015611e2357600080fd5b505af1158015611e37573d6000803e3d6000fd5b505050506040513d6020811015611e4d57600080fd5b5051611ea0576040805162461bcd60e51b815260206004820152601360248201527f4645455f5452414e534645525f4641494c454400000000000000000000000000604482015290519081900360640190fd5b611eb0838263ffffffff61213a16565b949350505050565b82518190859015612062576060600080600080611ed48a610a04565b9398509196509450925090506000611eef868686868661103a565b15611f7d57611f09611f018d84611b22565b612710611b98565b9050886001600160a01b0316846001600160a01b0316866001600160a01b03167fac7a699eb95c3c6d390ec4626de17ef9a67b35891efdb197beba7c7fdd45fac48f858760405180848152602001838152602001828152602001935050505060405180910390a4611f7a878261213a565b96505b801561205b57604080516323b872dd60e01b81526001600160a01b038f811660048301528781166024830152604482018490529151918a16916323b872dd916064808201926020929091908290030181600087803b158015611fde57600080fd5b505af1158015611ff2573d6000803e3d6000fd5b505050506040513d602081101561200857600080fd5b505161205b576040805162461bcd60e51b815260206004820152601960248201527f636f6d6d6973696f6e207472616e73666572206661696c656400000000000000604482015290519081900360640190fd5b5050505050505b604080516323b872dd60e01b81526001600160a01b0389811660048301528681166024830152604482018490529151918416916323b872dd916064808201926020929091908290030181600087803b1580156120bd57600080fd5b505af11580156120d1573d6000803e3d6000fd5b505050506040513d60208110156120e757600080fd5b5051611a4c576040805162461bcd60e51b815260206004820152601760248201527f7061796d656e74207472616e73666572206661696c6564000000000000000000604482015290519081900360640190fd5b600082821115612191576040805162461bcd60e51b815260206004820152600860248201527f756e6465666c6f77000000000000000000000000000000000000000000000000604482015290519081900360640190fd5b5090039056fe6f6e6c792061646d696e2063616e207365747570206d6574615472616e73616374696f6e50726f636573736f7273a26469706673582212200ff38c5741c66b2a22a9a9ee2abe0f55626323082b6b4443921fd3b25484584a64736f6c63430006050033",
  "devdoc": {
    "methods": {
      "buyLandWithSand(address,address,address,uint256,uint256,uint256,uint256,uint256,bytes32,uint256[],bytes32[],bytes)": {
        "params": {
          "buyer": "address that perform the payment",
          "priceInSand": "price in SAND to purchase that Land",
          "proof": "merkleProof for that particular Land",
          "reserved": "the reserved address (if any)",
          "size": "size of the pack of Land to purchase",
          "to": "address that will own the purchased Land",
          "x": "x coordinate of the Land",
          "y": "y coordinate of the Land"
        }
      },
      "changeAdmin(address)": {
        "details": "change the administrator to be `newAdmin`.",
        "params": {
          "newAdmin": "address of the new administrator."
        }
      },
      "getAdmin()": {
        "details": "gives the current administrator of this contract.",
        "returns": {
          "_0": "the current administrator of this contract."
        }
      },
      "getSigningWallet()": {
        "details": "signing wallet authorized for referral",
        "returns": {
          "_0": "the address of the signing wallet"
        }
      },
      "isMetaTransactionProcessor(address)": {
        "details": "check whether address `who` is given meta-transaction execution rights.",
        "params": {
          "who": "The address to query."
        },
        "returns": {
          "_0": "whether the address has meta-transaction execution rights."
        }
      },
      "isReferralValid(bytes,address,address,uint256,uint256)": {
        "params": {
          "commissionRate": "The commissionRate of the referral",
          "expiryTime": "The expiry time of the referral",
          "referee": "The address of the referee",
          "referrer": "The address of the referrer",
          "signature": "The signature to check (signed referral)"
        },
        "returns": {
          "_0": "True if the referral is valid"
        }
      },
      "setMetaTransactionProcessor(address,bool)": {
        "details": "Enable or disable the ability of `metaTransactionProcessor` to perform meta-tx (metaTransactionProcessor rights).",
        "params": {
          "enabled": "set whether the metaTransactionProcessor is enabled or disabled.",
          "metaTransactionProcessor": "address that will be given/removed metaTransactionProcessor rights."
        }
      },
      "setReceivingWallet(address)": {
        "params": {
          "newWallet": "address of the new receiving wallet"
        }
      },
      "updateMaxCommissionRate(uint256)": {
        "details": "Update the maximum commission rate",
        "params": {
          "newMaxCommissionRate": "The new maximum commission rate"
        }
      },
      "updateSigningWallet(address)": {
        "details": "Update the signing wallet",
        "params": {
          "newSigningWallet": "The new address of the signing wallet"
        }
      },
      "withdrawAssets(address,uint256[],uint256[])": {
        "params": {
          "assetIds": "the assetIds to be transferred",
          "to": "intended recipient of the asset tokens",
          "values": "the quantities of the assetIds to be transferred"
        }
      }
    },
    "title": "Estate Sale contract with referral"
  },
  "userdoc": {
    "methods": {
      "buyLandWithSand(address,address,address,uint256,uint256,uint256,uint256,uint256,bytes32,uint256[],bytes32[],bytes)": {
        "notice": "buy Land with SAND using the merkle proof associated with it"
      },
      "getExpiryTime()": {
        "notice": "Gets the expiry time for the current sale"
      },
      "getMaxCommisionRate()": {
        "notice": "the max commision rate"
      },
      "getMerkleRoot()": {
        "notice": "Gets the Merkle root associated with the current sale"
      },
      "isReferralValid(bytes,address,address,uint256,uint256)": {
        "notice": "Check if a referral is valid"
      },
      "setReceivingWallet(address)": {
        "notice": "set the wallet receiving the proceeds"
      },
      "withdrawAssets(address,uint256[],uint256[])": {
        "notice": "enable Admin to withdraw remaining assets from EstateSaleWithFee contract"
      }
    },
    "notice": "This contract manages the sale of our lands as Estates"
  },
  "storageLayout": {
    "storage": [
      {
        "astId": 13640,
        "contract": "src/solc_0.6/EstateSale/EstateSaleWithFee.sol:EstateSaleWithFee",
        "label": "_admin",
        "offset": 0,
        "slot": "0",
        "type": "t_address"
      },
      {
        "astId": 13702,
        "contract": "src/solc_0.6/EstateSale/EstateSaleWithFee.sol:EstateSaleWithFee",
        "label": "_metaTransactionContracts",
        "offset": 0,
        "slot": "1",
        "type": "t_mapping(t_address,t_bool)"
      },
      {
        "astId": 11818,
        "contract": "src/solc_0.6/EstateSale/EstateSaleWithFee.sol:EstateSaleWithFee",
        "label": "_signingWallet",
        "offset": 0,
        "slot": "2",
        "type": "t_address"
      },
      {
        "astId": 11820,
        "contract": "src/solc_0.6/EstateSale/EstateSaleWithFee.sol:EstateSaleWithFee",
        "label": "_maxCommissionRate",
        "offset": 0,
        "slot": "3",
        "type": "t_uint256"
      },
      {
        "astId": 11824,
        "contract": "src/solc_0.6/EstateSale/EstateSaleWithFee.sol:EstateSaleWithFee",
        "label": "_previousSigningWallets",
        "offset": 0,
        "slot": "4",
        "type": "t_mapping(t_address,t_uint256)"
      },
      {
        "astId": 11833,
        "contract": "src/solc_0.6/EstateSale/EstateSaleWithFee.sol:EstateSaleWithFee",
        "label": "_previousSigningDelay",
        "offset": 0,
        "slot": "5",
        "type": "t_uint256"
      },
      {
        "astId": 8205,
        "contract": "src/solc_0.6/EstateSale/EstateSaleWithFee.sol:EstateSaleWithFee",
        "label": "_wallet",
        "offset": 0,
        "slot": "6",
        "type": "t_address_payable"
      },
      {
        "astId": 8215,
        "contract": "src/solc_0.6/EstateSale/EstateSaleWithFee.sol:EstateSaleWithFee",
        "label": "_multiplier",
        "offset": 0,
        "slot": "7",
        "type": "t_uint256"
      }
    ],
    "types": {
      "t_address": {
        "encoding": "inplace",
        "label": "address",
        "numberOfBytes": "20"
      },
      "t_address_payable": {
        "encoding": "inplace",
        "label": "address payable",
        "numberOfBytes": "20"
      },
      "t_bool": {
        "encoding": "inplace",
        "label": "bool",
        "numberOfBytes": "1"
      },
      "t_mapping(t_address,t_bool)": {
        "encoding": "mapping",
        "key": "t_address",
        "label": "mapping(address => bool)",
        "numberOfBytes": "32",
        "value": "t_bool"
      },
      "t_mapping(t_address,t_uint256)": {
        "encoding": "mapping",
        "key": "t_address",
        "label": "mapping(address => uint256)",
        "numberOfBytes": "32",
        "value": "t_uint256"
      },
      "t_uint256": {
        "encoding": "inplace",
        "label": "uint256",
        "numberOfBytes": "32"
      }
    }
  }
}