{
  "abi": [
    {
      "inputs": [
        {
          "internalType": "address",
          "name": "landAddress",
          "type": "address"
        },
        {
          "internalType": "address",
          "name": "sandContractAddress",
          "type": "address"
        },
        {
          "internalType": "address",
          "name": "initialMetaTx",
          "type": "address"
        },
        {
          "internalType": "address",
          "name": "admin",
          "type": "address"
        },
        {
          "internalType": "address payable",
          "name": "initialWalletAddress",
          "type": "address"
        },
        {
          "internalType": "bytes32",
          "name": "merkleRoot",
          "type": "bytes32"
        },
        {
          "internalType": "uint256",
          "name": "expiryTime",
          "type": "uint256"
        },
        {
          "internalType": "address",
          "name": "initialSigningWallet",
          "type": "address"
        },
        {
          "internalType": "uint256",
          "name": "initialMaxCommissionRate",
          "type": "uint256"
        },
        {
          "internalType": "address",
          "name": "estate",
          "type": "address"
        },
        {
          "internalType": "address",
          "name": "asset",
          "type": "address"
        },
        {
          "internalType": "address",
          "name": "feeDistributor",
          "type": "address"
        }
      ],
      "stateMutability": "nonpayable",
      "type": "constructor"
    },
    {
      "anonymous": false,
      "inputs": [
        {
          "indexed": false,
          "internalType": "address",
          "name": "oldAdmin",
          "type": "address"
        },
        {
          "indexed": false,
          "internalType": "address",
          "name": "newAdmin",
          "type": "address"
        }
      ],
      "name": "AdminChanged",
      "type": "event"
    },
    {
      "anonymous": false,
      "inputs": [
        {
          "indexed": true,
          "internalType": "address",
          "name": "buyer",
          "type": "address"
        },
        {
          "indexed": true,
          "internalType": "address",
          "name": "to",
          "type": "address"
        },
        {
          "indexed": true,
          "internalType": "uint256",
          "name": "topCornerId",
          "type": "uint256"
        },
        {
          "indexed": false,
          "internalType": "uint256",
          "name": "size",
          "type": "uint256"
        },
        {
          "indexed": false,
          "internalType": "uint256",
          "name": "price",
          "type": "uint256"
        },
        {
          "indexed": false,
          "internalType": "address",
          "name": "token",
          "type": "address"
        },
        {
          "indexed": false,
          "internalType": "uint256",
          "name": "amountPaid",
          "type": "uint256"
        }
      ],
      "name": "LandQuadPurchased",
      "type": "event"
    },
    {
      "anonymous": false,
      "inputs": [
        {
          "indexed": false,
          "internalType": "address",
          "name": "metaTransactionProcessor",
          "type": "address"
        },
        {
          "indexed": false,
          "internalType": "bool",
          "name": "enabled",
          "type": "bool"
        }
      ],
      "name": "MetaTransactionProcessor",
      "type": "event"
    },
    {
      "anonymous": false,
      "inputs": [
        {
          "indexed": true,
          "internalType": "address",
          "name": "referrer",
          "type": "address"
        },
        {
          "indexed": true,
          "internalType": "address",
          "name": "referee",
          "type": "address"
        },
        {
          "indexed": true,
          "internalType": "address",
          "name": "token",
          "type": "address"
        },
        {
          "indexed": false,
          "internalType": "uint256",
          "name": "amount",
          "type": "uint256"
        },
        {
          "indexed": false,
          "internalType": "uint256",
          "name": "commission",
          "type": "uint256"
        },
        {
          "indexed": false,
          "internalType": "uint256",
          "name": "commissionRate",
          "type": "uint256"
        }
      ],
      "name": "ReferralUsed",
      "type": "event"
    },
    {
      "inputs": [
        {
          "internalType": "address",
          "name": "buyer",
          "type": "address"
        },
        {
          "internalType": "address",
          "name": "to",
          "type": "address"
        },
        {
          "internalType": "address",
          "name": "reserved",
          "type": "address"
        },
        {
          "internalType": "uint256",
          "name": "x",
          "type": "uint256"
        },
        {
          "internalType": "uint256",
          "name": "y",
          "type": "uint256"
        },
        {
          "internalType": "uint256",
          "name": "size",
          "type": "uint256"
        },
        {
          "internalType": "uint256",
          "name": "priceInSand",
          "type": "uint256"
        },
        {
          "internalType": "uint256",
          "name": "adjustedPriceInSand",
          "type": "uint256"
        },
        {
          "internalType": "bytes32",
          "name": "salt",
          "type": "bytes32"
        },
        {
          "internalType": "uint256[]",
          "name": "assetIds",
          "type": "uint256[]"
        },
        {
          "internalType": "bytes32[]",
          "name": "proof",
          "type": "bytes32[]"
        },
        {
          "internalType": "bytes",
          "name": "referral",
          "type": "bytes"
        }
      ],
      "name": "buyLandWithSand",
      "outputs": [],
      "stateMutability": "nonpayable",
      "type": "function"
    },
    {
      "inputs": [
        {
          "internalType": "address",
          "name": "newAdmin",
          "type": "address"
        }
      ],
      "name": "changeAdmin",
      "outputs": [],
      "stateMutability": "nonpayable",
      "type": "function"
    },
    {
      "inputs": [
        {
          "internalType": "bytes",
          "name": "referral",
          "type": "bytes"
        }
      ],
      "name": "decodeReferral",
      "outputs": [
        {
          "internalType": "bytes",
          "name": "",
          "type": "bytes"
        },
        {
          "internalType": "address",
          "name": "",
          "type": "address"
        },
        {
          "internalType": "address",
          "name": "",
          "type": "address"
        },
        {
          "internalType": "uint256",
          "name": "",
          "type": "uint256"
        },
        {
          "internalType": "uint256",
          "name": "",
          "type": "uint256"
        }
      ],
      "stateMutability": "pure",
      "type": "function"
    },
    {
      "inputs": [],
      "name": "getAdmin",
      "outputs": [
        {
          "internalType": "address",
          "name": "",
          "type": "address"
        }
      ],
      "stateMutability": "view",
      "type": "function"
    },
    {
      "inputs": [],
      "name": "getExpiryTime",
      "outputs": [
        {
          "internalType": "uint256",
          "name": "",
          "type": "uint256"
        }
      ],
      "stateMutability": "view",
      "type": "function"
    },
    {
      "inputs": [],
      "name": "getMaxCommisionRate",
      "outputs": [
        {
          "internalType": "uint256",
          "name": "",
          "type": "uint256"
        }
      ],
      "stateMutability": "view",
      "type": "function"
    },
    {
      "inputs": [],
      "name": "getMerkleRoot",
      "outputs": [
        {
          "internalType": "bytes32",
          "name": "",
          "type": "bytes32"
        }
      ],
      "stateMutability": "view",
      "type": "function"
    },
    {
      "inputs": [],
      "name": "getSandMultiplier",
      "outputs": [
        {
          "internalType": "uint256",
          "name": "",
          "type": "uint256"
        }
      ],
      "stateMutability": "view",
      "type": "function"
    },
    {
      "inputs": [],
      "name": "getSigningWallet",
      "outputs": [
        {
          "internalType": "address",
          "name": "",
          "type": "address"
        }
      ],
      "stateMutability": "view",
      "type": "function"
    },
    {
      "inputs": [
        {
          "internalType": "address",
          "name": "who",
          "type": "address"
        }
      ],
      "name": "isMetaTransactionProcessor",
      "outputs": [
        {
          "internalType": "bool",
          "name": "",
          "type": "bool"
        }
      ],
      "stateMutability": "view",
      "type": "function"
    },
    {
      "inputs": [
        {
          "internalType": "bytes",
          "name": "signature",
          "type": "bytes"
        },
        {
          "internalType": "address",
          "name": "referrer",
          "type": "address"
        },
        {
          "internalType": "address",
          "name": "referee",
          "type": "address"
        },
        {
          "internalType": "uint256",
          "name": "expiryTime",
          "type": "uint256"
        },
        {
          "internalType": "uint256",
          "name": "commissionRate",
          "type": "uint256"
        }
      ],
      "name": "isReferralValid",
      "outputs": [
        {
          "internalType": "bool",
          "name": "",
          "type": "bool"
        }
      ],
      "stateMutability": "view",
      "type": "function"
    },
    {
      "inputs": [
        {
          "internalType": "address",
          "name": "",
          "type": "address"
        },
        {
          "internalType": "address",
          "name": "",
          "type": "address"
        },
        {
          "internalType": "uint256[]",
          "name": "",
          "type": "uint256[]"
        },
        {
          "internalType": "uint256[]",
          "name": "",
          "type": "uint256[]"
        },
        {
          "internalType": "bytes",
          "name": "",
          "type": "bytes"
        }
      ],
      "name": "onERC1155BatchReceived",
      "outputs": [
        {
          "internalType": "bytes4",
          "name": "",
          "type": "bytes4"
        }
      ],
      "stateMutability": "pure",
      "type": "function"
    },
    {
      "inputs": [
        {
          "internalType": "address",
          "name": "",
          "type": "address"
        },
        {
          "internalType": "address",
          "name": "",
          "type": "address"
        },
        {
          "internalType": "uint256",
          "name": "",
          "type": "uint256"
        },
        {
          "internalType": "uint256",
          "name": "",
          "type": "uint256"
        },
        {
          "internalType": "bytes",
          "name": "",
          "type": "bytes"
        }
      ],
      "name": "onERC1155Received",
      "outputs": [
        {
          "internalType": "bytes4",
          "name": "",
          "type": "bytes4"
        }
      ],
      "stateMutability": "pure",
      "type": "function"
    },
    {
      "inputs": [
        {
          "internalType": "uint256",
          "name": "newMultiplier",
          "type": "uint256"
        }
      ],
      "name": "rebalanceSand",
      "outputs": [],
      "stateMutability": "nonpayable",
      "type": "function"
    },
    {
      "inputs": [
        {
          "internalType": "address",
          "name": "metaTransactionProcessor",
          "type": "address"
        },
        {
          "internalType": "bool",
          "name": "enabled",
          "type": "bool"
        }
      ],
      "name": "setMetaTransactionProcessor",
      "outputs": [],
      "stateMutability": "nonpayable",
      "type": "function"
    },
    {
      "inputs": [
        {
          "internalType": "address payable",
          "name": "newWallet",
          "type": "address"
        }
      ],
      "name": "setReceivingWallet",
      "outputs": [],
      "stateMutability": "nonpayable",
      "type": "function"
    },
    {
      "inputs": [
        {
          "internalType": "uint256",
          "name": "newMaxCommissionRate",
          "type": "uint256"
        }
      ],
      "name": "updateMaxCommissionRate",
      "outputs": [],
      "stateMutability": "nonpayable",
      "type": "function"
    },
    {
      "inputs": [
        {
          "internalType": "address",
          "name": "newSigningWallet",
          "type": "address"
        }
      ],
      "name": "updateSigningWallet",
      "outputs": [],
      "stateMutability": "nonpayable",
      "type": "function"
    },
    {
      "inputs": [
        {
          "internalType": "address",
          "name": "to",
          "type": "address"
        },
        {
          "internalType": "uint256[]",
          "name": "assetIds",
          "type": "uint256[]"
        },
        {
          "internalType": "uint256[]",
          "name": "values",
          "type": "uint256[]"
        }
      ],
      "name": "withdrawAssets",
      "outputs": [],
      "stateMutability": "nonpayable",
      "type": "function"
    }
  ],
  "address": "0x55b7B8F50E1d45D34981C2F251606e484a3f97Fe",
  "args": [
    "0x50f5474724e0Ee42D9a4e711ccFB275809Fd6d4a",
    "0x3845badAde8e6dFF049820680d1F14bD3903a5d0",
    "0x3845badAde8e6dFF049820680d1F14bD3903a5d0",
    "0x18dd4e0eb8699eA4FeE238dE41ECfb95e32272f8",
    "0x4489590a116618B506F0EfE885432F6A8ED998E9",
    "0x2dd751deb653cd4d5eeeb9d6f5a107b580a82150294f1a5e1f23468944abd924",
    1606395600,
    "0x3044719d139F866a44c988823513eCB93060bF1b",
    2000,
    "0x0000000000000000000000000000000000000000",
    "0x067a1Eb5E383eD24b66D72aAf80d8D7dB3d299A8",
    "0x0EB04462D69B1D267d269377E34f60b9De1c8510"
  ],
  "linkedData": [
    {
      "x": 140,
      "y": 78,
      "size": 1,
      "price": "905000000000000000000",
      "reserved": "",
      "assetIds": []
    },
    {
      "x": 141,
      "y": 78,
      "size": 1,
      "price": "905000000000000000000",
      "reserved": "",
      "assetIds": []
    },
    {
      "x": 141,
      "y": 79,
      "size": 1,
      "price": "905000000000000000000",
      "reserved": "",
      "assetIds": []
    },
    {
      "x": 141,
      "y": 80,
      "size": 1,
      "price": "905000000000000000000",
      "reserved": "",
      "assetIds": []
    },
    {
      "x": 141,
      "y": 81,
      "size": 1,
      "price": "905000000000000000000",
      "reserved": "",
      "assetIds": []
    },
    {
      "x": 141,
      "y": 82,
      "size": 1,
      "price": "905000000000000000000",
      "reserved": "",
      "assetIds": []
    },
    {
      "x": 141,
      "y": 83,
      "size": 1,
      "price": "905000000000000000000",
      "reserved": "",
      "assetIds": []
    },
    {
      "x": 140,
      "y": 80,
      "size": 1,
      "price": "905000000000000000000",
      "reserved": "",
      "assetIds": []
    },
    {
      "x": 142,
      "y": 82,
      "size": 1,
      "price": "905000000000000000000",
      "reserved": "",
      "assetIds": []
    },
    {
      "x": 142,
      "y": 83,
      "size": 1,
      "price": "905000000000000000000",
      "reserved": "",
      "assetIds": []
    },
    {
      "x": 142,
      "y": 84,
      "size": 1,
      "price": "905000000000000000000",
      "reserved": "",
      "assetIds": []
    },
    {
      "x": 141,
      "y": 84,
      "size": 1,
      "price": "905000000000000000000",
      "reserved": "",
      "assetIds": []
    },
    {
      "x": 141,
      "y": 85,
      "size": 1,
      "price": "905000000000000000000",
      "reserved": "",
      "assetIds": []
    },
    {
      "x": 141,
      "y": 86,
      "size": 1,
      "price": "905000000000000000000",
      "reserved": "",
      "assetIds": []
    },
    {
      "x": 142,
      "y": 85,
      "size": 1,
      "price": "905000000000000000000",
      "reserved": "",
      "assetIds": []
    },
    {
      "x": 142,
      "y": 86,
      "size": 1,
      "price": "905000000000000000000",
      "reserved": "",
      "assetIds": []
    },
    {
      "x": 143,
      "y": 86,
      "size": 1,
      "price": "905000000000000000000",
      "reserved": "",
      "assetIds": []
    },
    {
      "x": 143,
      "y": 81,
      "size": 1,
      "price": "905000000000000000000",
      "reserved": "",
      "assetIds": []
    },
    {
      "x": 143,
      "y": 80,
      "size": 1,
      "price": "905000000000000000000",
      "reserved": "",
      "assetIds": []
    },
    {
      "x": 143,
      "y": 82,
      "size": 1,
      "price": "905000000000000000000",
      "reserved": "",
      "assetIds": []
    },
    {
      "x": 143,
      "y": 83,
      "size": 1,
      "price": "905000000000000000000",
      "reserved": "",
      "assetIds": []
    },
    {
      "x": 143,
      "y": 84,
      "size": 1,
      "price": "905000000000000000000",
      "reserved": "",
      "assetIds": []
    },
    {
      "x": 143,
      "y": 79,
      "size": 1,
      "price": "905000000000000000000",
      "reserved": "",
      "assetIds": []
    },
    {
      "x": 143,
      "y": 85,
      "size": 1,
      "price": "905000000000000000000",
      "reserved": "",
      "assetIds": []
    },
    {
      "x": 144,
      "y": 80,
      "size": 1,
      "price": "905000000000000000000",
      "reserved": "",
      "assetIds": []
    },
    {
      "x": 145,
      "y": 80,
      "size": 1,
      "price": "905000000000000000000",
      "reserved": "",
      "assetIds": []
    },
    {
      "x": 142,
      "y": 80,
      "size": 1,
      "price": "905000000000000000000",
      "reserved": "",
      "assetIds": []
    },
    {
      "x": 145,
      "y": 79,
      "size": 1,
      "price": "905000000000000000000",
      "reserved": "",
      "assetIds": []
    },
    {
      "x": 146,
      "y": 79,
      "size": 1,
      "price": "905000000000000000000",
      "reserved": "",
      "assetIds": []
    },
    {
      "x": 146,
      "y": 80,
      "size": 1,
      "price": "905000000000000000000",
      "reserved": "",
      "assetIds": []
    },
    {
      "x": 139,
      "y": 80,
      "size": 1,
      "price": "905000000000000000000",
      "reserved": "",
      "assetIds": []
    },
    {
      "x": 138,
      "y": 80,
      "size": 1,
      "price": "905000000000000000000",
      "reserved": "",
      "assetIds": []
    },
    {
      "x": 137,
      "y": 80,
      "size": 1,
      "price": "905000000000000000000",
      "reserved": "",
      "assetIds": []
    },
    {
      "x": 136,
      "y": 80,
      "size": 1,
      "price": "905000000000000000000",
      "reserved": "",
      "assetIds": []
    },
    {
      "x": 140,
      "y": 79,
      "size": 1,
      "price": "905000000000000000000",
      "reserved": "",
      "assetIds": []
    },
    {
      "x": 142,
      "y": 79,
      "size": 1,
      "price": "905000000000000000000",
      "reserved": "",
      "assetIds": []
    },
    {
      "x": 144,
      "y": 79,
      "size": 1,
      "price": "905000000000000000000",
      "reserved": "",
      "assetIds": []
    },
    {
      "x": 139,
      "y": 79,
      "size": 1,
      "price": "905000000000000000000",
      "reserved": "",
      "assetIds": []
    },
    {
      "x": 138,
      "y": 79,
      "size": 1,
      "price": "905000000000000000000",
      "reserved": "",
      "assetIds": []
    },
    {
      "x": 137,
      "y": 79,
      "size": 1,
      "price": "905000000000000000000",
      "reserved": "",
      "assetIds": []
    },
    {
      "x": 136,
      "y": 79,
      "size": 1,
      "price": "905000000000000000000",
      "reserved": "",
      "assetIds": []
    },
    {
      "x": 135,
      "y": 79,
      "size": 1,
      "price": "905000000000000000000",
      "reserved": "",
      "assetIds": []
    },
    {
      "x": 134,
      "y": 79,
      "size": 1,
      "price": "905000000000000000000",
      "reserved": "",
      "assetIds": []
    },
    {
      "x": 133,
      "y": 79,
      "size": 1,
      "price": "905000000000000000000",
      "reserved": "",
      "assetIds": []
    },
    {
      "x": 133,
      "y": 80,
      "size": 1,
      "price": "905000000000000000000",
      "reserved": "",
      "assetIds": []
    },
    {
      "x": 132,
      "y": 80,
      "size": 1,
      "price": "905000000000000000000",
      "reserved": "",
      "assetIds": []
    },
    {
      "x": 131,
      "y": 80,
      "size": 1,
      "price": "905000000000000000000",
      "reserved": "",
      "assetIds": []
    },
    {
      "x": 130,
      "y": 80,
      "size": 1,
      "price": "905000000000000000000",
      "reserved": "",
      "assetIds": []
    },
    {
      "x": 129,
      "y": 80,
      "size": 1,
      "price": "905000000000000000000",
      "reserved": "",
      "assetIds": []
    },
    {
      "x": 134,
      "y": 81,
      "size": 1,
      "price": "905000000000000000000",
      "reserved": "",
      "assetIds": []
    },
    {
      "x": 135,
      "y": 81,
      "size": 1,
      "price": "905000000000000000000",
      "reserved": "",
      "assetIds": []
    },
    {
      "x": 136,
      "y": 81,
      "size": 1,
      "price": "905000000000000000000",
      "reserved": "",
      "assetIds": []
    },
    {
      "x": 137,
      "y": 81,
      "size": 1,
      "price": "905000000000000000000",
      "reserved": "",
      "assetIds": []
    },
    {
      "x": 142,
      "y": 81,
      "size": 1,
      "price": "905000000000000000000",
      "reserved": "",
      "assetIds": []
    },
    {
      "x": 133,
      "y": 81,
      "size": 1,
      "price": "905000000000000000000",
      "reserved": "",
      "assetIds": []
    },
    {
      "x": 132,
      "y": 81,
      "size": 1,
      "price": "905000000000000000000",
      "reserved": "",
      "assetIds": []
    },
    {
      "x": 135,
      "y": 80,
      "size": 1,
      "price": "905000000000000000000",
      "reserved": "",
      "assetIds": []
    },
    {
      "x": 134,
      "y": 80,
      "size": 1,
      "price": "905000000000000000000",
      "reserved": "",
      "assetIds": []
    },
    {
      "x": 132,
      "y": 82,
      "size": 1,
      "price": "905000000000000000000",
      "reserved": "",
      "assetIds": []
    },
    {
      "x": 132,
      "y": 83,
      "size": 1,
      "price": "905000000000000000000",
      "reserved": "",
      "assetIds": []
    },
    {
      "x": 131,
      "y": 83,
      "size": 1,
      "price": "905000000000000000000",
      "reserved": "",
      "assetIds": []
    },
    {
      "x": 131,
      "y": 82,
      "size": 1,
      "price": "905000000000000000000",
      "reserved": "",
      "assetIds": []
    },
    {
      "x": 131,
      "y": 81,
      "size": 1,
      "price": "905000000000000000000",
      "reserved": "",
      "assetIds": []
    },
    {
      "x": 130,
      "y": 82,
      "size": 1,
      "price": "905000000000000000000",
      "reserved": "",
      "assetIds": []
    },
    {
      "x": 130,
      "y": 83,
      "size": 1,
      "price": "905000000000000000000",
      "reserved": "",
      "assetIds": []
    },
    {
      "x": 130,
      "y": 81,
      "size": 1,
      "price": "905000000000000000000",
      "reserved": "",
      "assetIds": []
    },
    {
      "x": 129,
      "y": 82,
      "size": 1,
      "price": "905000000000000000000",
      "reserved": "",
      "assetIds": []
    },
    {
      "x": 129,
      "y": 81,
      "size": 1,
      "price": "905000000000000000000",
      "reserved": "",
      "assetIds": []
    },
    {
      "x": 130,
      "y": 79,
      "size": 1,
      "price": "905000000000000000000",
      "reserved": "",
      "assetIds": []
    },
    {
      "x": 131,
      "y": 79,
      "size": 1,
      "price": "905000000000000000000",
      "reserved": "",
      "assetIds": []
    },
    {
      "x": 131,
      "y": 78,
      "size": 1,
      "price": "905000000000000000000",
      "reserved": "",
      "assetIds": []
    },
    {
      "x": 132,
      "y": 79,
      "size": 1,
      "price": "905000000000000000000",
      "reserved": "",
      "assetIds": []
    },
    {
      "x": 130,
      "y": 78,
      "size": 1,
      "price": "905000000000000000000",
      "reserved": "",
      "assetIds": []
    },
    {
      "x": 129,
      "y": 78,
      "size": 1,
      "price": "905000000000000000000",
      "reserved": "",
      "assetIds": []
    },
    {
      "x": 128,
      "y": 78,
      "size": 1,
      "price": "905000000000000000000",
      "reserved": "",
      "assetIds": []
    },
    {
      "x": 127,
      "y": 78,
      "size": 1,
      "price": "905000000000000000000",
      "reserved": "",
      "assetIds": []
    },
    {
      "x": 126,
      "y": 78,
      "size": 1,
      "price": "905000000000000000000",
      "reserved": "",
      "assetIds": []
    },
    {
      "x": 126,
      "y": 79,
      "size": 1,
      "price": "905000000000000000000",
      "reserved": "",
      "assetIds": []
    },
    {
      "x": 127,
      "y": 79,
      "size": 1,
      "price": "905000000000000000000",
      "reserved": "",
      "assetIds": []
    },
    {
      "x": 128,
      "y": 80,
      "size": 1,
      "price": "905000000000000000000",
      "reserved": "",
      "assetIds": []
    },
    {
      "x": 125,
      "y": 80,
      "size": 1,
      "price": "905000000000000000000",
      "reserved": "",
      "assetIds": []
    },
    {
      "x": 124,
      "y": 80,
      "size": 1,
      "price": "905000000000000000000",
      "reserved": "",
      "assetIds": []
    },
    {
      "x": 123,
      "y": 80,
      "size": 1,
      "price": "905000000000000000000",
      "reserved": "",
      "assetIds": []
    },
    {
      "x": 124,
      "y": 79,
      "size": 1,
      "price": "905000000000000000000",
      "reserved": "",
      "assetIds": []
    },
    {
      "x": 129,
      "y": 79,
      "size": 1,
      "price": "905000000000000000000",
      "reserved": "",
      "assetIds": []
    },
    {
      "x": 127,
      "y": 80,
      "size": 1,
      "price": "905000000000000000000",
      "reserved": "",
      "assetIds": []
    },
    {
      "x": 126,
      "y": 80,
      "size": 1,
      "price": "905000000000000000000",
      "reserved": "",
      "assetIds": []
    },
    {
      "x": 125,
      "y": 79,
      "size": 1,
      "price": "905000000000000000000",
      "reserved": "",
      "assetIds": []
    },
    {
      "x": 123,
      "y": 79,
      "size": 1,
      "price": "905000000000000000000",
      "reserved": "",
      "assetIds": []
    },
    {
      "x": 122,
      "y": 79,
      "size": 1,
      "price": "905000000000000000000",
      "reserved": "",
      "assetIds": []
    },
    {
      "x": 121,
      "y": 79,
      "size": 1,
      "price": "905000000000000000000",
      "reserved": "",
      "assetIds": []
    },
    {
      "x": 120,
      "y": 79,
      "size": 1,
      "price": "905000000000000000000",
      "reserved": "",
      "assetIds": []
    },
    {
      "x": 119,
      "y": 80,
      "size": 1,
      "price": "905000000000000000000",
      "reserved": "",
      "assetIds": []
    },
    {
      "x": 123,
      "y": 81,
      "size": 1,
      "price": "905000000000000000000",
      "reserved": "",
      "assetIds": []
    },
    {
      "x": 128,
      "y": 79,
      "size": 1,
      "price": "905000000000000000000",
      "reserved": "",
      "assetIds": []
    },
    {
      "x": 122,
      "y": 80,
      "size": 1,
      "price": "905000000000000000000",
      "reserved": "",
      "assetIds": []
    },
    {
      "x": 121,
      "y": 80,
      "size": 1,
      "price": "905000000000000000000",
      "reserved": "",
      "assetIds": []
    },
    {
      "x": 124,
      "y": 82,
      "size": 1,
      "price": "905000000000000000000",
      "reserved": "",
      "assetIds": []
    },
    {
      "x": 125,
      "y": 82,
      "size": 1,
      "price": "905000000000000000000",
      "reserved": "",
      "assetIds": []
    },
    {
      "x": 125,
      "y": 81,
      "size": 1,
      "price": "905000000000000000000",
      "reserved": "",
      "assetIds": []
    },
    {
      "x": 124,
      "y": 81,
      "size": 1,
      "price": "905000000000000000000",
      "reserved": "",
      "assetIds": []
    },
    {
      "x": 124,
      "y": 83,
      "size": 1,
      "price": "905000000000000000000",
      "reserved": "",
      "assetIds": []
    },
    {
      "x": 123,
      "y": 82,
      "size": 1,
      "price": "905000000000000000000",
      "reserved": "",
      "assetIds": []
    },
    {
      "x": 125,
      "y": 83,
      "size": 1,
      "price": "905000000000000000000",
      "reserved": "",
      "assetIds": []
    },
    {
      "x": 123,
      "y": 83,
      "size": 1,
      "price": "905000000000000000000",
      "reserved": "",
      "assetIds": []
    },
    {
      "x": 133,
      "y": 82,
      "size": 1,
      "price": "905000000000000000000",
      "reserved": "",
      "assetIds": []
    },
    {
      "x": 129,
      "y": 83,
      "size": 1,
      "price": "905000000000000000000",
      "reserved": "",
      "assetIds": []
    },
    {
      "x": 133,
      "y": 83,
      "size": 1,
      "price": "905000000000000000000",
      "reserved": "",
      "assetIds": []
    },
    {
      "x": 134,
      "y": 83,
      "size": 1,
      "price": "905000000000000000000",
      "reserved": "",
      "assetIds": []
    },
    {
      "x": 135,
      "y": 83,
      "size": 1,
      "price": "905000000000000000000",
      "reserved": "",
      "assetIds": []
    },
    {
      "x": 136,
      "y": 83,
      "size": 1,
      "price": "905000000000000000000",
      "reserved": "",
      "assetIds": []
    },
    {
      "x": 136,
      "y": 82,
      "size": 1,
      "price": "905000000000000000000",
      "reserved": "",
      "assetIds": []
    },
    {
      "x": 137,
      "y": 82,
      "size": 1,
      "price": "905000000000000000000",
      "reserved": "",
      "assetIds": []
    },
    {
      "x": 135,
      "y": 82,
      "size": 1,
      "price": "905000000000000000000",
      "reserved": "",
      "assetIds": []
    },
    {
      "x": 134,
      "y": 82,
      "size": 1,
      "price": "905000000000000000000",
      "reserved": "",
      "assetIds": []
    },
    {
      "x": 137,
      "y": 83,
      "size": 1,
      "price": "905000000000000000000",
      "reserved": "",
      "assetIds": []
    },
    {
      "x": 116,
      "y": 81,
      "size": 1,
      "price": "905000000000000000000",
      "reserved": "",
      "assetIds": []
    },
    {
      "x": 117,
      "y": 80,
      "size": 1,
      "price": "905000000000000000000",
      "reserved": "",
      "assetIds": []
    },
    {
      "x": 118,
      "y": 80,
      "size": 1,
      "price": "905000000000000000000",
      "reserved": "",
      "assetIds": []
    },
    {
      "x": 119,
      "y": 79,
      "size": 1,
      "price": "905000000000000000000",
      "reserved": "",
      "assetIds": []
    },
    {
      "x": 116,
      "y": 80,
      "size": 1,
      "price": "905000000000000000000",
      "reserved": "",
      "assetIds": []
    },
    {
      "x": 115,
      "y": 80,
      "size": 1,
      "price": "905000000000000000000",
      "reserved": "",
      "assetIds": []
    },
    {
      "x": 116,
      "y": 79,
      "size": 1,
      "price": "905000000000000000000",
      "reserved": "",
      "assetIds": []
    },
    {
      "x": 117,
      "y": 79,
      "size": 1,
      "price": "905000000000000000000",
      "reserved": "",
      "assetIds": []
    },
    {
      "x": 118,
      "y": 79,
      "size": 1,
      "price": "905000000000000000000",
      "reserved": "",
      "assetIds": []
    },
    {
      "x": 114,
      "y": 79,
      "size": 1,
      "price": "905000000000000000000",
      "reserved": "",
      "assetIds": []
    },
    {
      "x": 115,
      "y": 79,
      "size": 1,
      "price": "905000000000000000000",
      "reserved": "",
      "assetIds": []
    },
    {
      "x": 115,
      "y": 81,
      "size": 1,
      "price": "905000000000000000000",
      "reserved": "",
      "assetIds": []
    },
    {
      "x": 114,
      "y": 81,
      "size": 1,
      "price": "905000000000000000000",
      "reserved": "",
      "assetIds": []
    },
    {
      "x": 114,
      "y": 80,
      "size": 1,
      "price": "905000000000000000000",
      "reserved": "",
      "assetIds": []
    },
    {
      "x": 114,
      "y": 83,
      "size": 1,
      "price": "905000000000000000000",
      "reserved": "",
      "assetIds": []
    },
    {
      "x": 114,
      "y": 82,
      "size": 1,
      "price": "905000000000000000000",
      "reserved": "",
      "assetIds": []
    },
    {
      "x": 115,
      "y": 82,
      "size": 1,
      "price": "905000000000000000000",
      "reserved": "",
      "assetIds": []
    },
    {
      "x": 116,
      "y": 82,
      "size": 1,
      "price": "905000000000000000000",
      "reserved": "",
      "assetIds": []
    },
    {
      "x": 115,
      "y": 83,
      "size": 1,
      "price": "905000000000000000000",
      "reserved": "",
      "assetIds": []
    },
    {
      "x": 115,
      "y": 78,
      "size": 1,
      "price": "905000000000000000000",
      "reserved": "",
      "assetIds": []
    },
    {
      "x": 115,
      "y": 77,
      "size": 1,
      "price": "905000000000000000000",
      "reserved": "",
      "assetIds": []
    },
    {
      "x": 114,
      "y": 76,
      "size": 1,
      "price": "905000000000000000000",
      "reserved": "",
      "assetIds": []
    },
    {
      "x": 114,
      "y": 77,
      "size": 1,
      "price": "905000000000000000000",
      "reserved": "",
      "assetIds": []
    },
    {
      "x": 114,
      "y": 78,
      "size": 1,
      "price": "905000000000000000000",
      "reserved": "",
      "assetIds": []
    },
    {
      "x": 113,
      "y": 77,
      "size": 1,
      "price": "905000000000000000000",
      "reserved": "",
      "assetIds": []
    },
    {
      "x": 113,
      "y": 76,
      "size": 1,
      "price": "905000000000000000000",
      "reserved": "",
      "assetIds": []
    },
    {
      "x": 112,
      "y": 77,
      "size": 1,
      "price": "905000000000000000000",
      "reserved": "",
      "assetIds": []
    },
    {
      "x": 112,
      "y": 76,
      "size": 1,
      "price": "905000000000000000000",
      "reserved": "",
      "assetIds": []
    },
    {
      "x": 112,
      "y": 75,
      "size": 1,
      "price": "905000000000000000000",
      "reserved": "",
      "assetIds": []
    },
    {
      "x": 112,
      "y": 74,
      "size": 1,
      "price": "905000000000000000000",
      "reserved": "",
      "assetIds": []
    },
    {
      "x": 112,
      "y": 73,
      "size": 1,
      "price": "905000000000000000000",
      "reserved": "",
      "assetIds": []
    },
    {
      "x": 112,
      "y": 72,
      "size": 1,
      "price": "905000000000000000000",
      "reserved": "",
      "assetIds": []
    },
    {
      "x": 112,
      "y": 71,
      "size": 1,
      "price": "905000000000000000000",
      "reserved": "",
      "assetIds": []
    },
    {
      "x": 112,
      "y": 70,
      "size": 1,
      "price": "905000000000000000000",
      "reserved": "",
      "assetIds": []
    },
    {
      "x": 112,
      "y": 69,
      "size": 1,
      "price": "905000000000000000000",
      "reserved": "",
      "assetIds": []
    },
    {
      "x": 111,
      "y": 74,
      "size": 1,
      "price": "905000000000000000000",
      "reserved": "",
      "assetIds": []
    },
    {
      "x": 111,
      "y": 73,
      "size": 1,
      "price": "905000000000000000000",
      "reserved": "",
      "assetIds": []
    },
    {
      "x": 111,
      "y": 72,
      "size": 1,
      "price": "905000000000000000000",
      "reserved": "",
      "assetIds": []
    },
    {
      "x": 111,
      "y": 71,
      "size": 1,
      "price": "905000000000000000000",
      "reserved": "",
      "assetIds": []
    },
    {
      "x": 111,
      "y": 70,
      "size": 1,
      "price": "905000000000000000000",
      "reserved": "",
      "assetIds": []
    },
    {
      "x": 111,
      "y": 69,
      "size": 1,
      "price": "905000000000000000000",
      "reserved": "",
      "assetIds": []
    },
    {
      "x": 111,
      "y": 68,
      "size": 1,
      "price": "905000000000000000000",
      "reserved": "",
      "assetIds": []
    },
    {
      "x": 111,
      "y": 67,
      "size": 1,
      "price": "905000000000000000000",
      "reserved": "",
      "assetIds": []
    },
    {
      "x": 112,
      "y": 67,
      "size": 1,
      "price": "905000000000000000000",
      "reserved": "",
      "assetIds": []
    },
    {
      "x": 112,
      "y": 68,
      "size": 1,
      "price": "905000000000000000000",
      "reserved": "",
      "assetIds": []
    },
    {
      "x": 111,
      "y": 77,
      "size": 1,
      "price": "905000000000000000000",
      "reserved": "",
      "assetIds": []
    },
    {
      "x": 111,
      "y": 76,
      "size": 1,
      "price": "905000000000000000000",
      "reserved": "",
      "assetIds": []
    },
    {
      "x": 113,
      "y": 75,
      "size": 1,
      "price": "905000000000000000000",
      "reserved": "",
      "assetIds": []
    },
    {
      "x": 112,
      "y": 66,
      "size": 1,
      "price": "905000000000000000000",
      "reserved": "",
      "assetIds": []
    },
    {
      "x": 112,
      "y": 65,
      "size": 1,
      "price": "905000000000000000000",
      "reserved": "",
      "assetIds": []
    },
    {
      "x": 112,
      "y": 64,
      "size": 1,
      "price": "905000000000000000000",
      "reserved": "",
      "assetIds": []
    },
    {
      "x": 112,
      "y": 63,
      "size": 1,
      "price": "905000000000000000000",
      "reserved": "",
      "assetIds": []
    },
    {
      "x": 112,
      "y": 62,
      "size": 1,
      "price": "905000000000000000000",
      "reserved": "",
      "assetIds": []
    },
    {
      "x": 112,
      "y": 61,
      "size": 1,
      "price": "905000000000000000000",
      "reserved": "",
      "assetIds": []
    },
    {
      "x": 112,
      "y": 60,
      "size": 1,
      "price": "905000000000000000000",
      "reserved": "",
      "assetIds": []
    },
    {
      "x": 111,
      "y": 60,
      "size": 1,
      "price": "905000000000000000000",
      "reserved": "",
      "assetIds": []
    },
    {
      "x": 110,
      "y": 60,
      "size": 1,
      "price": "905000000000000000000",
      "reserved": "",
      "assetIds": []
    },
    {
      "x": 109,
      "y": 60,
      "size": 1,
      "price": "905000000000000000000",
      "reserved": "",
      "assetIds": []
    },
    {
      "x": 109,
      "y": 61,
      "size": 1,
      "price": "905000000000000000000",
      "reserved": "",
      "assetIds": []
    },
    {
      "x": 109,
      "y": 62,
      "size": 1,
      "price": "905000000000000000000",
      "reserved": "",
      "assetIds": []
    },
    {
      "x": 110,
      "y": 62,
      "size": 1,
      "price": "905000000000000000000",
      "reserved": "",
      "assetIds": []
    },
    {
      "x": 111,
      "y": 63,
      "size": 1,
      "price": "905000000000000000000",
      "reserved": "",
      "assetIds": []
    },
    {
      "x": 111,
      "y": 62,
      "size": 1,
      "price": "905000000000000000000",
      "reserved": "",
      "assetIds": []
    },
    {
      "x": 111,
      "y": 61,
      "size": 1,
      "price": "905000000000000000000",
      "reserved": "",
      "assetIds": []
    },
    {
      "x": 110,
      "y": 61,
      "size": 1,
      "price": "905000000000000000000",
      "reserved": "",
      "assetIds": []
    },
    {
      "x": 108,
      "y": 62,
      "size": 1,
      "price": "905000000000000000000",
      "reserved": "",
      "assetIds": []
    },
    {
      "x": 108,
      "y": 61,
      "size": 1,
      "price": "905000000000000000000",
      "reserved": "",
      "assetIds": []
    },
    {
      "x": 111,
      "y": 65,
      "size": 1,
      "price": "905000000000000000000",
      "reserved": "",
      "assetIds": []
    },
    {
      "x": 111,
      "y": 66,
      "size": 1,
      "price": "905000000000000000000",
      "reserved": "",
      "assetIds": []
    },
    {
      "x": 111,
      "y": 64,
      "size": 1,
      "price": "905000000000000000000",
      "reserved": "",
      "assetIds": []
    },
    {
      "x": 113,
      "y": 68,
      "size": 1,
      "price": "905000000000000000000",
      "reserved": "",
      "assetIds": []
    },
    {
      "x": 113,
      "y": 67,
      "size": 1,
      "price": "905000000000000000000",
      "reserved": "",
      "assetIds": []
    },
    {
      "x": 113,
      "y": 66,
      "size": 1,
      "price": "905000000000000000000",
      "reserved": "",
      "assetIds": []
    },
    {
      "x": 110,
      "y": 66,
      "size": 1,
      "price": "905000000000000000000",
      "reserved": "",
      "assetIds": []
    },
    {
      "x": 110,
      "y": 67,
      "size": 1,
      "price": "905000000000000000000",
      "reserved": "",
      "assetIds": []
    },
    {
      "x": 109,
      "y": 67,
      "size": 1,
      "price": "905000000000000000000",
      "reserved": "",
      "assetIds": []
    },
    {
      "x": 109,
      "y": 68,
      "size": 1,
      "price": "905000000000000000000",
      "reserved": "",
      "assetIds": []
    },
    {
      "x": 108,
      "y": 66,
      "size": 1,
      "price": "905000000000000000000",
      "reserved": "",
      "assetIds": []
    },
    {
      "x": 108,
      "y": 67,
      "size": 1,
      "price": "905000000000000000000",
      "reserved": "",
      "assetIds": []
    },
    {
      "x": 110,
      "y": 68,
      "size": 1,
      "price": "905000000000000000000",
      "reserved": "",
      "assetIds": []
    },
    {
      "x": 108,
      "y": 68,
      "size": 1,
      "price": "905000000000000000000",
      "reserved": "",
      "assetIds": []
    },
    {
      "x": 107,
      "y": 65,
      "size": 1,
      "price": "905000000000000000000",
      "reserved": "",
      "assetIds": []
    },
    {
      "x": 109,
      "y": 66,
      "size": 1,
      "price": "905000000000000000000",
      "reserved": "",
      "assetIds": []
    },
    {
      "x": 107,
      "y": 64,
      "size": 1,
      "price": "905000000000000000000",
      "reserved": "",
      "assetIds": []
    },
    {
      "x": 106,
      "y": 64,
      "size": 1,
      "price": "905000000000000000000",
      "reserved": "",
      "assetIds": []
    },
    {
      "x": 106,
      "y": 63,
      "size": 1,
      "price": "905000000000000000000",
      "reserved": "",
      "assetIds": []
    },
    {
      "x": 105,
      "y": 63,
      "size": 1,
      "price": "905000000000000000000",
      "reserved": "",
      "assetIds": []
    },
    {
      "x": 104,
      "y": 63,
      "size": 1,
      "price": "905000000000000000000",
      "reserved": "",
      "assetIds": []
    },
    {
      "x": 104,
      "y": 62,
      "size": 1,
      "price": "905000000000000000000",
      "reserved": "",
      "assetIds": []
    },
    {
      "x": 104,
      "y": 61,
      "size": 1,
      "price": "905000000000000000000",
      "reserved": "",
      "assetIds": []
    },
    {
      "x": 104,
      "y": 60,
      "size": 1,
      "price": "905000000000000000000",
      "reserved": "",
      "assetIds": []
    },
    {
      "x": 103,
      "y": 61,
      "size": 1,
      "price": "905000000000000000000",
      "reserved": "",
      "assetIds": []
    },
    {
      "x": 103,
      "y": 60,
      "size": 1,
      "price": "905000000000000000000",
      "reserved": "",
      "assetIds": []
    },
    {
      "x": 103,
      "y": 62,
      "size": 1,
      "price": "905000000000000000000",
      "reserved": "",
      "assetIds": []
    },
    {
      "x": 103,
      "y": 63,
      "size": 1,
      "price": "905000000000000000000",
      "reserved": "",
      "assetIds": []
    },
    {
      "x": 103,
      "y": 64,
      "size": 1,
      "price": "905000000000000000000",
      "reserved": "",
      "assetIds": []
    },
    {
      "x": 103,
      "y": 65,
      "size": 1,
      "price": "905000000000000000000",
      "reserved": "",
      "assetIds": []
    },
    {
      "x": 102,
      "y": 63,
      "size": 1,
      "price": "905000000000000000000",
      "reserved": "",
      "assetIds": []
    },
    {
      "x": 102,
      "y": 62,
      "size": 1,
      "price": "905000000000000000000",
      "reserved": "",
      "assetIds": []
    },
    {
      "x": 102,
      "y": 61,
      "size": 1,
      "price": "905000000000000000000",
      "reserved": "",
      "assetIds": []
    },
    {
      "x": 102,
      "y": 64,
      "size": 1,
      "price": "905000000000000000000",
      "reserved": "",
      "assetIds": []
    },
    {
      "x": 104,
      "y": 65,
      "size": 1,
      "price": "905000000000000000000",
      "reserved": "",
      "assetIds": []
    },
    {
      "x": 105,
      "y": 65,
      "size": 1,
      "price": "905000000000000000000",
      "reserved": "",
      "assetIds": []
    },
    {
      "x": 106,
      "y": 65,
      "size": 1,
      "price": "905000000000000000000",
      "reserved": "",
      "assetIds": []
    },
    {
      "x": 105,
      "y": 64,
      "size": 1,
      "price": "905000000000000000000",
      "reserved": "",
      "assetIds": []
    },
    {
      "x": 104,
      "y": 64,
      "size": 1,
      "price": "905000000000000000000",
      "reserved": "",
      "assetIds": []
    },
    {
      "x": 107,
      "y": 63,
      "size": 1,
      "price": "905000000000000000000",
      "reserved": "",
      "assetIds": []
    },
    {
      "x": 101,
      "y": 55,
      "size": 1,
      "price": "905000000000000000000",
      "reserved": "",
      "assetIds": []
    },
    {
      "x": 100,
      "y": 56,
      "size": 1,
      "price": "905000000000000000000",
      "reserved": "",
      "assetIds": []
    },
    {
      "x": 99,
      "y": 56,
      "size": 1,
      "price": "905000000000000000000",
      "reserved": "",
      "assetIds": []
    },
    {
      "x": 98,
      "y": 57,
      "size": 1,
      "price": "905000000000000000000",
      "reserved": "",
      "assetIds": []
    },
    {
      "x": 97,
      "y": 57,
      "size": 1,
      "price": "905000000000000000000",
      "reserved": "",
      "assetIds": []
    },
    {
      "x": 98,
      "y": 58,
      "size": 1,
      "price": "905000000000000000000",
      "reserved": "",
      "assetIds": []
    },
    {
      "x": 99,
      "y": 58,
      "size": 1,
      "price": "905000000000000000000",
      "reserved": "",
      "assetIds": []
    },
    {
      "x": 99,
      "y": 57,
      "size": 1,
      "price": "905000000000000000000",
      "reserved": "",
      "assetIds": []
    },
    {
      "x": 99,
      "y": 55,
      "size": 1,
      "price": "905000000000000000000",
      "reserved": "",
      "assetIds": []
    },
    {
      "x": 100,
      "y": 57,
      "size": 1,
      "price": "905000000000000000000",
      "reserved": "",
      "assetIds": []
    },
    {
      "x": 101,
      "y": 57,
      "size": 1,
      "price": "905000000000000000000",
      "reserved": "",
      "assetIds": []
    },
    {
      "x": 101,
      "y": 56,
      "size": 1,
      "price": "905000000000000000000",
      "reserved": "",
      "assetIds": []
    },
    {
      "x": 100,
      "y": 55,
      "size": 1,
      "price": "905000000000000000000",
      "reserved": "",
      "assetIds": []
    },
    {
      "x": 100,
      "y": 54,
      "size": 1,
      "price": "905000000000000000000",
      "reserved": "",
      "assetIds": []
    },
    {
      "x": 101,
      "y": 54,
      "size": 1,
      "price": "905000000000000000000",
      "reserved": "",
      "assetIds": []
    },
    {
      "x": 101,
      "y": 58,
      "size": 1,
      "price": "905000000000000000000",
      "reserved": "",
      "assetIds": []
    },
    {
      "x": 101,
      "y": 59,
      "size": 1,
      "price": "905000000000000000000",
      "reserved": "",
      "assetIds": []
    },
    {
      "x": 100,
      "y": 59,
      "size": 1,
      "price": "905000000000000000000",
      "reserved": "",
      "assetIds": []
    },
    {
      "x": 99,
      "y": 59,
      "size": 1,
      "price": "905000000000000000000",
      "reserved": "",
      "assetIds": []
    },
    {
      "x": 98,
      "y": 59,
      "size": 1,
      "price": "905000000000000000000",
      "reserved": "",
      "assetIds": []
    },
    {
      "x": 97,
      "y": 59,
      "size": 1,
      "price": "905000000000000000000",
      "reserved": "",
      "assetIds": []
    },
    {
      "x": 96,
      "y": 59,
      "size": 1,
      "price": "905000000000000000000",
      "reserved": "",
      "assetIds": []
    },
    {
      "x": 96,
      "y": 58,
      "size": 1,
      "price": "905000000000000000000",
      "reserved": "",
      "assetIds": []
    },
    {
      "x": 100,
      "y": 58,
      "size": 1,
      "price": "905000000000000000000",
      "reserved": "",
      "assetIds": []
    },
    {
      "x": 97,
      "y": 58,
      "size": 1,
      "price": "905000000000000000000",
      "reserved": "",
      "assetIds": []
    },
    {
      "x": 108,
      "y": 50,
      "size": 1,
      "price": "905000000000000000000",
      "reserved": "",
      "assetIds": []
    },
    {
      "x": 108,
      "y": 49,
      "size": 1,
      "price": "905000000000000000000",
      "reserved": "",
      "assetIds": []
    },
    {
      "x": 109,
      "y": 49,
      "size": 1,
      "price": "905000000000000000000",
      "reserved": "",
      "assetIds": []
    },
    {
      "x": 110,
      "y": 49,
      "size": 1,
      "price": "905000000000000000000",
      "reserved": "",
      "assetIds": []
    },
    {
      "x": 110,
      "y": 48,
      "size": 1,
      "price": "905000000000000000000",
      "reserved": "",
      "assetIds": []
    },
    {
      "x": 111,
      "y": 48,
      "size": 1,
      "price": "905000000000000000000",
      "reserved": "",
      "assetIds": []
    },
    {
      "x": 109,
      "y": 48,
      "size": 1,
      "price": "905000000000000000000",
      "reserved": "",
      "assetIds": []
    },
    {
      "x": 112,
      "y": 48,
      "size": 1,
      "price": "905000000000000000000",
      "reserved": "",
      "assetIds": []
    },
    {
      "x": 112,
      "y": 49,
      "size": 1,
      "price": "905000000000000000000",
      "reserved": "",
      "assetIds": []
    },
    {
      "x": 112,
      "y": 50,
      "size": 1,
      "price": "905000000000000000000",
      "reserved": "",
      "assetIds": []
    },
    {
      "x": 112,
      "y": 51,
      "size": 1,
      "price": "905000000000000000000",
      "reserved": "",
      "assetIds": []
    },
    {
      "x": 112,
      "y": 52,
      "size": 1,
      "price": "905000000000000000000",
      "reserved": "",
      "assetIds": []
    },
    {
      "x": 112,
      "y": 53,
      "size": 1,
      "price": "905000000000000000000",
      "reserved": "",
      "assetIds": []
    },
    {
      "x": 111,
      "y": 52,
      "size": 1,
      "price": "905000000000000000000",
      "reserved": "",
      "assetIds": []
    },
    {
      "x": 111,
      "y": 51,
      "size": 1,
      "price": "905000000000000000000",
      "reserved": "",
      "assetIds": []
    },
    {
      "x": 111,
      "y": 50,
      "size": 1,
      "price": "905000000000000000000",
      "reserved": "",
      "assetIds": []
    },
    {
      "x": 111,
      "y": 49,
      "size": 1,
      "price": "905000000000000000000",
      "reserved": "",
      "assetIds": []
    },
    {
      "x": 110,
      "y": 50,
      "size": 1,
      "price": "905000000000000000000",
      "reserved": "",
      "assetIds": []
    },
    {
      "x": 71,
      "y": 70,
      "size": 1,
      "price": "905000000000000000000",
      "reserved": "",
      "assetIds": []
    },
    {
      "x": 69,
      "y": 70,
      "size": 1,
      "price": "905000000000000000000",
      "reserved": "",
      "assetIds": []
    },
    {
      "x": 66,
      "y": 68,
      "size": 1,
      "price": "905000000000000000000",
      "reserved": "",
      "assetIds": []
    },
    {
      "x": 66,
      "y": 67,
      "size": 1,
      "price": "905000000000000000000",
      "reserved": "",
      "assetIds": []
    },
    {
      "x": 66,
      "y": 66,
      "size": 1,
      "price": "905000000000000000000",
      "reserved": "",
      "assetIds": []
    },
    {
      "x": 65,
      "y": 57,
      "size": 1,
      "price": "905000000000000000000",
      "reserved": "",
      "assetIds": []
    },
    {
      "x": 65,
      "y": 56,
      "size": 1,
      "price": "905000000000000000000",
      "reserved": "",
      "assetIds": []
    },
    {
      "x": 65,
      "y": 55,
      "size": 1,
      "price": "905000000000000000000",
      "reserved": "",
      "assetIds": []
    },
    {
      "x": 65,
      "y": 54,
      "size": 1,
      "price": "905000000000000000000",
      "reserved": "",
      "assetIds": []
    },
    {
      "x": 66,
      "y": 53,
      "size": 1,
      "price": "905000000000000000000",
      "reserved": "",
      "assetIds": []
    },
    {
      "x": 66,
      "y": 52,
      "size": 1,
      "price": "905000000000000000000",
      "reserved": "",
      "assetIds": []
    },
    {
      "x": 67,
      "y": 51,
      "size": 1,
      "price": "905000000000000000000",
      "reserved": "",
      "assetIds": []
    },
    {
      "x": 67,
      "y": 50,
      "size": 1,
      "price": "905000000000000000000",
      "reserved": "",
      "assetIds": []
    },
    {
      "x": 67,
      "y": 49,
      "size": 1,
      "price": "905000000000000000000",
      "reserved": "",
      "assetIds": []
    },
    {
      "x": 67,
      "y": 48,
      "size": 1,
      "price": "905000000000000000000",
      "reserved": "",
      "assetIds": []
    },
    {
      "x": 68,
      "y": 48,
      "size": 1,
      "price": "905000000000000000000",
      "reserved": "",
      "assetIds": []
    },
    {
      "x": 69,
      "y": 48,
      "size": 1,
      "price": "905000000000000000000",
      "reserved": "",
      "assetIds": []
    },
    {
      "x": 69,
      "y": 47,
      "size": 1,
      "price": "905000000000000000000",
      "reserved": "",
      "assetIds": []
    },
    {
      "x": 70,
      "y": 47,
      "size": 1,
      "price": "905000000000000000000",
      "reserved": "",
      "assetIds": []
    },
    {
      "x": 68,
      "y": 47,
      "size": 1,
      "price": "905000000000000000000",
      "reserved": "",
      "assetIds": []
    },
    {
      "x": 68,
      "y": 46,
      "size": 1,
      "price": "905000000000000000000",
      "reserved": "",
      "assetIds": []
    },
    {
      "x": 68,
      "y": 45,
      "size": 1,
      "price": "905000000000000000000",
      "reserved": "",
      "assetIds": []
    },
    {
      "x": 67,
      "y": 45,
      "size": 1,
      "price": "905000000000000000000",
      "reserved": "",
      "assetIds": []
    },
    {
      "x": 67,
      "y": 46,
      "size": 1,
      "price": "905000000000000000000",
      "reserved": "",
      "assetIds": []
    },
    {
      "x": 70,
      "y": 46,
      "size": 1,
      "price": "905000000000000000000",
      "reserved": "",
      "assetIds": []
    },
    {
      "x": 71,
      "y": 45,
      "size": 1,
      "price": "905000000000000000000",
      "reserved": "",
      "assetIds": []
    },
    {
      "x": 70,
      "y": 45,
      "size": 1,
      "price": "905000000000000000000",
      "reserved": "",
      "assetIds": []
    },
    {
      "x": 69,
      "y": 45,
      "size": 1,
      "price": "905000000000000000000",
      "reserved": "",
      "assetIds": []
    },
    {
      "x": 66,
      "y": 46,
      "size": 1,
      "price": "905000000000000000000",
      "reserved": "",
      "assetIds": []
    },
    {
      "x": 67,
      "y": 47,
      "size": 1,
      "price": "905000000000000000000",
      "reserved": "",
      "assetIds": []
    },
    {
      "x": 69,
      "y": 46,
      "size": 1,
      "price": "905000000000000000000",
      "reserved": "",
      "assetIds": []
    },
    {
      "x": 66,
      "y": 45,
      "size": 1,
      "price": "905000000000000000000",
      "reserved": "",
      "assetIds": []
    },
    {
      "x": 66,
      "y": 47,
      "size": 1,
      "price": "905000000000000000000",
      "reserved": "",
      "assetIds": []
    },
    {
      "x": 66,
      "y": 48,
      "size": 1,
      "price": "905000000000000000000",
      "reserved": "",
      "assetIds": []
    },
    {
      "x": 66,
      "y": 49,
      "size": 1,
      "price": "905000000000000000000",
      "reserved": "",
      "assetIds": []
    },
    {
      "x": 66,
      "y": 50,
      "size": 1,
      "price": "905000000000000000000",
      "reserved": "",
      "assetIds": []
    },
    {
      "x": 67,
      "y": 52,
      "size": 1,
      "price": "905000000000000000000",
      "reserved": "",
      "assetIds": []
    },
    {
      "x": 67,
      "y": 53,
      "size": 1,
      "price": "905000000000000000000",
      "reserved": "",
      "assetIds": []
    },
    {
      "x": 65,
      "y": 52,
      "size": 1,
      "price": "905000000000000000000",
      "reserved": "",
      "assetIds": []
    },
    {
      "x": 65,
      "y": 51,
      "size": 1,
      "price": "905000000000000000000",
      "reserved": "",
      "assetIds": []
    },
    {
      "x": 66,
      "y": 51,
      "size": 1,
      "price": "905000000000000000000",
      "reserved": "",
      "assetIds": []
    },
    {
      "x": 68,
      "y": 50,
      "size": 1,
      "price": "905000000000000000000",
      "reserved": "",
      "assetIds": []
    },
    {
      "x": 68,
      "y": 51,
      "size": 1,
      "price": "905000000000000000000",
      "reserved": "",
      "assetIds": []
    },
    {
      "x": 69,
      "y": 51,
      "size": 1,
      "price": "905000000000000000000",
      "reserved": "",
      "assetIds": []
    },
    {
      "x": 69,
      "y": 50,
      "size": 1,
      "price": "905000000000000000000",
      "reserved": "",
      "assetIds": []
    },
    {
      "x": 69,
      "y": 49,
      "size": 1,
      "price": "905000000000000000000",
      "reserved": "",
      "assetIds": []
    },
    {
      "x": 70,
      "y": 48,
      "size": 1,
      "price": "905000000000000000000",
      "reserved": "",
      "assetIds": []
    },
    {
      "x": 71,
      "y": 48,
      "size": 1,
      "price": "905000000000000000000",
      "reserved": "",
      "assetIds": []
    },
    {
      "x": 71,
      "y": 49,
      "size": 1,
      "price": "905000000000000000000",
      "reserved": "",
      "assetIds": []
    },
    {
      "x": 71,
      "y": 50,
      "size": 1,
      "price": "905000000000000000000",
      "reserved": "",
      "assetIds": []
    },
    {
      "x": 71,
      "y": 51,
      "size": 1,
      "price": "905000000000000000000",
      "reserved": "",
      "assetIds": []
    },
    {
      "x": 70,
      "y": 49,
      "size": 1,
      "price": "905000000000000000000",
      "reserved": "",
      "assetIds": []
    },
    {
      "x": 70,
      "y": 50,
      "size": 1,
      "price": "905000000000000000000",
      "reserved": "",
      "assetIds": []
    },
    {
      "x": 70,
      "y": 51,
      "size": 1,
      "price": "905000000000000000000",
      "reserved": "",
      "assetIds": []
    },
    {
      "x": 70,
      "y": 52,
      "size": 1,
      "price": "905000000000000000000",
      "reserved": "",
      "assetIds": []
    },
    {
      "x": 70,
      "y": 53,
      "size": 1,
      "price": "905000000000000000000",
      "reserved": "",
      "assetIds": []
    },
    {
      "x": 69,
      "y": 52,
      "size": 1,
      "price": "905000000000000000000",
      "reserved": "",
      "assetIds": []
    },
    {
      "x": 71,
      "y": 47,
      "size": 1,
      "price": "905000000000000000000",
      "reserved": "",
      "assetIds": []
    },
    {
      "x": 71,
      "y": 52,
      "size": 1,
      "price": "905000000000000000000",
      "reserved": "",
      "assetIds": []
    },
    {
      "x": 69,
      "y": 53,
      "size": 1,
      "price": "905000000000000000000",
      "reserved": "",
      "assetIds": []
    },
    {
      "x": 68,
      "y": 52,
      "size": 1,
      "price": "905000000000000000000",
      "reserved": "",
      "assetIds": []
    },
    {
      "x": 68,
      "y": 49,
      "size": 1,
      "price": "905000000000000000000",
      "reserved": "",
      "assetIds": []
    },
    {
      "x": 68,
      "y": 53,
      "size": 1,
      "price": "905000000000000000000",
      "reserved": "",
      "assetIds": []
    },
    {
      "x": 64,
      "y": 52,
      "size": 1,
      "price": "905000000000000000000",
      "reserved": "",
      "assetIds": []
    },
    {
      "x": 63,
      "y": 52,
      "size": 1,
      "price": "905000000000000000000",
      "reserved": "",
      "assetIds": []
    },
    {
      "x": 62,
      "y": 52,
      "size": 1,
      "price": "905000000000000000000",
      "reserved": "",
      "assetIds": []
    },
    {
      "x": 61,
      "y": 52,
      "size": 1,
      "price": "905000000000000000000",
      "reserved": "",
      "assetIds": []
    },
    {
      "x": 60,
      "y": 52,
      "size": 1,
      "price": "905000000000000000000",
      "reserved": "",
      "assetIds": []
    },
    {
      "x": 62,
      "y": 51,
      "size": 1,
      "price": "905000000000000000000",
      "reserved": "",
      "assetIds": []
    },
    {
      "x": 63,
      "y": 51,
      "size": 1,
      "price": "905000000000000000000",
      "reserved": "",
      "assetIds": []
    },
    {
      "x": 63,
      "y": 50,
      "size": 1,
      "price": "905000000000000000000",
      "reserved": "",
      "assetIds": []
    },
    {
      "x": 61,
      "y": 51,
      "size": 1,
      "price": "905000000000000000000",
      "reserved": "",
      "assetIds": []
    },
    {
      "x": 65,
      "y": 50,
      "size": 1,
      "price": "905000000000000000000",
      "reserved": "",
      "assetIds": []
    },
    {
      "x": 65,
      "y": 49,
      "size": 1,
      "price": "905000000000000000000",
      "reserved": "",
      "assetIds": []
    },
    {
      "x": 65,
      "y": 48,
      "size": 1,
      "price": "905000000000000000000",
      "reserved": "",
      "assetIds": []
    },
    {
      "x": 64,
      "y": 51,
      "size": 1,
      "price": "905000000000000000000",
      "reserved": "",
      "assetIds": []
    },
    {
      "x": 64,
      "y": 50,
      "size": 1,
      "price": "905000000000000000000",
      "reserved": "",
      "assetIds": []
    },
    {
      "x": 63,
      "y": 49,
      "size": 1,
      "price": "905000000000000000000",
      "reserved": "",
      "assetIds": []
    },
    {
      "x": 60,
      "y": 51,
      "size": 1,
      "price": "905000000000000000000",
      "reserved": "",
      "assetIds": []
    },
    {
      "x": 62,
      "y": 53,
      "size": 1,
      "price": "905000000000000000000",
      "reserved": "",
      "assetIds": []
    },
    {
      "x": 63,
      "y": 54,
      "size": 1,
      "price": "905000000000000000000",
      "reserved": "",
      "assetIds": []
    },
    {
      "x": 64,
      "y": 54,
      "size": 1,
      "price": "905000000000000000000",
      "reserved": "",
      "assetIds": []
    },
    {
      "x": 65,
      "y": 53,
      "size": 1,
      "price": "905000000000000000000",
      "reserved": "",
      "assetIds": []
    },
    {
      "x": 64,
      "y": 53,
      "size": 1,
      "price": "905000000000000000000",
      "reserved": "",
      "assetIds": []
    },
    {
      "x": 63,
      "y": 53,
      "size": 1,
      "price": "905000000000000000000",
      "reserved": "",
      "assetIds": []
    },
    {
      "x": 61,
      "y": 53,
      "size": 1,
      "price": "905000000000000000000",
      "reserved": "",
      "assetIds": []
    },
    {
      "x": 62,
      "y": 54,
      "size": 1,
      "price": "905000000000000000000",
      "reserved": "",
      "assetIds": []
    },
    {
      "x": 64,
      "y": 55,
      "size": 1,
      "price": "905000000000000000000",
      "reserved": "",
      "assetIds": []
    },
    {
      "x": 63,
      "y": 55,
      "size": 1,
      "price": "905000000000000000000",
      "reserved": "",
      "assetIds": []
    },
    {
      "x": 62,
      "y": 55,
      "size": 1,
      "price": "905000000000000000000",
      "reserved": "",
      "assetIds": []
    },
    {
      "x": 60,
      "y": 54,
      "size": 1,
      "price": "905000000000000000000",
      "reserved": "",
      "assetIds": []
    },
    {
      "x": 60,
      "y": 53,
      "size": 1,
      "price": "905000000000000000000",
      "reserved": "",
      "assetIds": []
    },
    {
      "x": 61,
      "y": 55,
      "size": 1,
      "price": "905000000000000000000",
      "reserved": "",
      "assetIds": []
    },
    {
      "x": 61,
      "y": 56,
      "size": 1,
      "price": "905000000000000000000",
      "reserved": "",
      "assetIds": []
    },
    {
      "x": 61,
      "y": 57,
      "size": 1,
      "price": "905000000000000000000",
      "reserved": "",
      "assetIds": []
    },
    {
      "x": 61,
      "y": 58,
      "size": 1,
      "price": "905000000000000000000",
      "reserved": "",
      "assetIds": []
    },
    {
      "x": 60,
      "y": 59,
      "size": 1,
      "price": "905000000000000000000",
      "reserved": "",
      "assetIds": []
    },
    {
      "x": 60,
      "y": 58,
      "size": 1,
      "price": "905000000000000000000",
      "reserved": "",
      "assetIds": []
    },
    {
      "x": 60,
      "y": 57,
      "size": 1,
      "price": "905000000000000000000",
      "reserved": "",
      "assetIds": []
    },
    {
      "x": 60,
      "y": 55,
      "size": 1,
      "price": "905000000000000000000",
      "reserved": "",
      "assetIds": []
    },
    {
      "x": 61,
      "y": 59,
      "size": 1,
      "price": "905000000000000000000",
      "reserved": "",
      "assetIds": []
    },
    {
      "x": 60,
      "y": 56,
      "size": 1,
      "price": "905000000000000000000",
      "reserved": "",
      "assetIds": []
    },
    {
      "x": 62,
      "y": 59,
      "size": 1,
      "price": "905000000000000000000",
      "reserved": "",
      "assetIds": []
    },
    {
      "x": 62,
      "y": 58,
      "size": 1,
      "price": "905000000000000000000",
      "reserved": "",
      "assetIds": []
    },
    {
      "x": 63,
      "y": 58,
      "size": 1,
      "price": "905000000000000000000",
      "reserved": "",
      "assetIds": []
    },
    {
      "x": 63,
      "y": 57,
      "size": 1,
      "price": "905000000000000000000",
      "reserved": "",
      "assetIds": []
    },
    {
      "x": 64,
      "y": 57,
      "size": 1,
      "price": "905000000000000000000",
      "reserved": "",
      "assetIds": []
    },
    {
      "x": 64,
      "y": 56,
      "size": 1,
      "price": "905000000000000000000",
      "reserved": "",
      "assetIds": []
    },
    {
      "x": 62,
      "y": 57,
      "size": 1,
      "price": "905000000000000000000",
      "reserved": "",
      "assetIds": []
    },
    {
      "x": 63,
      "y": 56,
      "size": 1,
      "price": "905000000000000000000",
      "reserved": "",
      "assetIds": []
    },
    {
      "x": 64,
      "y": 58,
      "size": 1,
      "price": "905000000000000000000",
      "reserved": "",
      "assetIds": []
    },
    {
      "x": 64,
      "y": 59,
      "size": 1,
      "price": "905000000000000000000",
      "reserved": "",
      "assetIds": []
    },
    {
      "x": 63,
      "y": 59,
      "size": 1,
      "price": "905000000000000000000",
      "reserved": "",
      "assetIds": []
    },
    {
      "x": 59,
      "y": 57,
      "size": 1,
      "price": "905000000000000000000",
      "reserved": "",
      "assetIds": []
    },
    {
      "x": 58,
      "y": 57,
      "size": 1,
      "price": "905000000000000000000",
      "reserved": "",
      "assetIds": []
    },
    {
      "x": 57,
      "y": 57,
      "size": 1,
      "price": "905000000000000000000",
      "reserved": "",
      "assetIds": []
    },
    {
      "x": 57,
      "y": 58,
      "size": 1,
      "price": "905000000000000000000",
      "reserved": "",
      "assetIds": []
    },
    {
      "x": 57,
      "y": 59,
      "size": 1,
      "price": "905000000000000000000",
      "reserved": "",
      "assetIds": []
    },
    {
      "x": 58,
      "y": 59,
      "size": 1,
      "price": "905000000000000000000",
      "reserved": "",
      "assetIds": []
    },
    {
      "x": 59,
      "y": 59,
      "size": 1,
      "price": "905000000000000000000",
      "reserved": "",
      "assetIds": []
    },
    {
      "x": 59,
      "y": 58,
      "size": 1,
      "price": "905000000000000000000",
      "reserved": "",
      "assetIds": []
    },
    {
      "x": 58,
      "y": 58,
      "size": 1,
      "price": "905000000000000000000",
      "reserved": "",
      "assetIds": []
    },
    {
      "x": 58,
      "y": 60,
      "size": 1,
      "price": "905000000000000000000",
      "reserved": "",
      "assetIds": []
    },
    {
      "x": 58,
      "y": 61,
      "size": 1,
      "price": "905000000000000000000",
      "reserved": "",
      "assetIds": []
    },
    {
      "x": 58,
      "y": 62,
      "size": 1,
      "price": "905000000000000000000",
      "reserved": "",
      "assetIds": []
    },
    {
      "x": 58,
      "y": 63,
      "size": 1,
      "price": "905000000000000000000",
      "reserved": "",
      "assetIds": []
    },
    {
      "x": 59,
      "y": 63,
      "size": 1,
      "price": "905000000000000000000",
      "reserved": "",
      "assetIds": []
    },
    {
      "x": 59,
      "y": 64,
      "size": 1,
      "price": "905000000000000000000",
      "reserved": "",
      "assetIds": []
    },
    {
      "x": 59,
      "y": 60,
      "size": 1,
      "price": "905000000000000000000",
      "reserved": "",
      "assetIds": []
    },
    {
      "x": 59,
      "y": 61,
      "size": 1,
      "price": "905000000000000000000",
      "reserved": "",
      "assetIds": []
    },
    {
      "x": 59,
      "y": 62,
      "size": 1,
      "price": "905000000000000000000",
      "reserved": "",
      "assetIds": []
    },
    {
      "x": 59,
      "y": 65,
      "size": 1,
      "price": "905000000000000000000",
      "reserved": "",
      "assetIds": []
    },
    {
      "x": 58,
      "y": 64,
      "size": 1,
      "price": "905000000000000000000",
      "reserved": "",
      "assetIds": []
    },
    {
      "x": 58,
      "y": 65,
      "size": 1,
      "price": "905000000000000000000",
      "reserved": "",
      "assetIds": []
    },
    {
      "x": 57,
      "y": 60,
      "size": 1,
      "price": "905000000000000000000",
      "reserved": "",
      "assetIds": []
    },
    {
      "x": 57,
      "y": 61,
      "size": 1,
      "price": "905000000000000000000",
      "reserved": "",
      "assetIds": []
    },
    {
      "x": 57,
      "y": 63,
      "size": 1,
      "price": "905000000000000000000",
      "reserved": "",
      "assetIds": []
    },
    {
      "x": 57,
      "y": 62,
      "size": 1,
      "price": "905000000000000000000",
      "reserved": "",
      "assetIds": []
    },
    {
      "x": 57,
      "y": 64,
      "size": 1,
      "price": "905000000000000000000",
      "reserved": "",
      "assetIds": []
    },
    {
      "x": 57,
      "y": 65,
      "size": 1,
      "price": "905000000000000000000",
      "reserved": "",
      "assetIds": []
    },
    {
      "x": 56,
      "y": 63,
      "size": 1,
      "price": "905000000000000000000",
      "reserved": "",
      "assetIds": []
    },
    {
      "x": 56,
      "y": 62,
      "size": 1,
      "price": "905000000000000000000",
      "reserved": "",
      "assetIds": []
    },
    {
      "x": 56,
      "y": 61,
      "size": 1,
      "price": "905000000000000000000",
      "reserved": "",
      "assetIds": []
    },
    {
      "x": 56,
      "y": 60,
      "size": 1,
      "price": "905000000000000000000",
      "reserved": "",
      "assetIds": []
    },
    {
      "x": 56,
      "y": 64,
      "size": 1,
      "price": "905000000000000000000",
      "reserved": "",
      "assetIds": []
    },
    {
      "x": 56,
      "y": 65,
      "size": 1,
      "price": "905000000000000000000",
      "reserved": "",
      "assetIds": []
    },
    {
      "x": 55,
      "y": 60,
      "size": 1,
      "price": "905000000000000000000",
      "reserved": "",
      "assetIds": []
    },
    {
      "x": 55,
      "y": 61,
      "size": 1,
      "price": "905000000000000000000",
      "reserved": "",
      "assetIds": []
    },
    {
      "x": 55,
      "y": 62,
      "size": 1,
      "price": "905000000000000000000",
      "reserved": "",
      "assetIds": []
    },
    {
      "x": 55,
      "y": 63,
      "size": 1,
      "price": "905000000000000000000",
      "reserved": "",
      "assetIds": []
    },
    {
      "x": 55,
      "y": 64,
      "size": 1,
      "price": "905000000000000000000",
      "reserved": "",
      "assetIds": []
    },
    {
      "x": 54,
      "y": 63,
      "size": 1,
      "price": "905000000000000000000",
      "reserved": "",
      "assetIds": []
    },
    {
      "x": 54,
      "y": 62,
      "size": 1,
      "price": "905000000000000000000",
      "reserved": "",
      "assetIds": []
    },
    {
      "x": 54,
      "y": 61,
      "size": 1,
      "price": "905000000000000000000",
      "reserved": "",
      "assetIds": []
    },
    {
      "x": 53,
      "y": 63,
      "size": 1,
      "price": "905000000000000000000",
      "reserved": "",
      "assetIds": []
    },
    {
      "x": 53,
      "y": 64,
      "size": 1,
      "price": "905000000000000000000",
      "reserved": "",
      "assetIds": []
    },
    {
      "x": 54,
      "y": 60,
      "size": 1,
      "price": "905000000000000000000",
      "reserved": "",
      "assetIds": []
    },
    {
      "x": 54,
      "y": 65,
      "size": 1,
      "price": "905000000000000000000",
      "reserved": "",
      "assetIds": []
    },
    {
      "x": 53,
      "y": 65,
      "size": 1,
      "price": "905000000000000000000",
      "reserved": "",
      "assetIds": []
    },
    {
      "x": 53,
      "y": 66,
      "size": 1,
      "price": "905000000000000000000",
      "reserved": "",
      "assetIds": []
    },
    {
      "x": 52,
      "y": 66,
      "size": 1,
      "price": "905000000000000000000",
      "reserved": "",
      "assetIds": []
    },
    {
      "x": 51,
      "y": 66,
      "size": 1,
      "price": "905000000000000000000",
      "reserved": "",
      "assetIds": []
    },
    {
      "x": 51,
      "y": 65,
      "size": 1,
      "price": "905000000000000000000",
      "reserved": "",
      "assetIds": []
    },
    {
      "x": 52,
      "y": 65,
      "size": 1,
      "price": "905000000000000000000",
      "reserved": "",
      "assetIds": []
    },
    {
      "x": 52,
      "y": 63,
      "size": 1,
      "price": "905000000000000000000",
      "reserved": "",
      "assetIds": []
    },
    {
      "x": 52,
      "y": 64,
      "size": 1,
      "price": "905000000000000000000",
      "reserved": "",
      "assetIds": []
    },
    {
      "x": 51,
      "y": 64,
      "size": 1,
      "price": "905000000000000000000",
      "reserved": "",
      "assetIds": []
    },
    {
      "x": 50,
      "y": 64,
      "size": 1,
      "price": "905000000000000000000",
      "reserved": "",
      "assetIds": []
    },
    {
      "x": 49,
      "y": 64,
      "size": 1,
      "price": "905000000000000000000",
      "reserved": "",
      "assetIds": []
    },
    {
      "x": 48,
      "y": 64,
      "size": 1,
      "price": "905000000000000000000",
      "reserved": "",
      "assetIds": []
    },
    {
      "x": 47,
      "y": 64,
      "size": 1,
      "price": "905000000000000000000",
      "reserved": "",
      "assetIds": []
    },
    {
      "x": 46,
      "y": 64,
      "size": 1,
      "price": "905000000000000000000",
      "reserved": "",
      "assetIds": []
    },
    {
      "x": 45,
      "y": 64,
      "size": 1,
      "price": "905000000000000000000",
      "reserved": "",
      "assetIds": []
    },
    {
      "x": 44,
      "y": 64,
      "size": 1,
      "price": "905000000000000000000",
      "reserved": "",
      "assetIds": []
    },
    {
      "x": 43,
      "y": 64,
      "size": 1,
      "price": "905000000000000000000",
      "reserved": "",
      "assetIds": []
    },
    {
      "x": 42,
      "y": 64,
      "size": 1,
      "price": "905000000000000000000",
      "reserved": "",
      "assetIds": []
    },
    {
      "x": 49,
      "y": 63,
      "size": 1,
      "price": "905000000000000000000",
      "reserved": "",
      "assetIds": []
    },
    {
      "x": 50,
      "y": 63,
      "size": 1,
      "price": "905000000000000000000",
      "reserved": "",
      "assetIds": []
    },
    {
      "x": 51,
      "y": 63,
      "size": 1,
      "price": "905000000000000000000",
      "reserved": "",
      "assetIds": []
    },
    {
      "x": 48,
      "y": 63,
      "size": 1,
      "price": "905000000000000000000",
      "reserved": "",
      "assetIds": []
    },
    {
      "x": 47,
      "y": 63,
      "size": 1,
      "price": "905000000000000000000",
      "reserved": "",
      "assetIds": []
    },
    {
      "x": 42,
      "y": 63,
      "size": 1,
      "price": "905000000000000000000",
      "reserved": "",
      "assetIds": []
    },
    {
      "x": 46,
      "y": 63,
      "size": 1,
      "price": "905000000000000000000",
      "reserved": "",
      "assetIds": []
    },
    {
      "x": 45,
      "y": 63,
      "size": 1,
      "price": "905000000000000000000",
      "reserved": "",
      "assetIds": []
    },
    {
      "x": 44,
      "y": 63,
      "size": 1,
      "price": "905000000000000000000",
      "reserved": "",
      "assetIds": []
    },
    {
      "x": 43,
      "y": 63,
      "size": 1,
      "price": "905000000000000000000",
      "reserved": "",
      "assetIds": []
    },
    {
      "x": 54,
      "y": 64,
      "size": 1,
      "price": "905000000000000000000",
      "reserved": "",
      "assetIds": []
    },
    {
      "x": 53,
      "y": 67,
      "size": 1,
      "price": "905000000000000000000",
      "reserved": "",
      "assetIds": []
    },
    {
      "x": 53,
      "y": 68,
      "size": 1,
      "price": "905000000000000000000",
      "reserved": "",
      "assetIds": []
    },
    {
      "x": 53,
      "y": 69,
      "size": 1,
      "price": "905000000000000000000",
      "reserved": "",
      "assetIds": []
    },
    {
      "x": 52,
      "y": 69,
      "size": 1,
      "price": "905000000000000000000",
      "reserved": "",
      "assetIds": []
    },
    {
      "x": 52,
      "y": 70,
      "size": 1,
      "price": "905000000000000000000",
      "reserved": "",
      "assetIds": []
    },
    {
      "x": 51,
      "y": 70,
      "size": 1,
      "price": "905000000000000000000",
      "reserved": "",
      "assetIds": []
    },
    {
      "x": 51,
      "y": 69,
      "size": 1,
      "price": "905000000000000000000",
      "reserved": "",
      "assetIds": []
    },
    {
      "x": 50,
      "y": 69,
      "size": 1,
      "price": "905000000000000000000",
      "reserved": "",
      "assetIds": []
    },
    {
      "x": 50,
      "y": 68,
      "size": 1,
      "price": "905000000000000000000",
      "reserved": "",
      "assetIds": []
    },
    {
      "x": 49,
      "y": 67,
      "size": 1,
      "price": "905000000000000000000",
      "reserved": "",
      "assetIds": []
    },
    {
      "x": 49,
      "y": 66,
      "size": 1,
      "price": "905000000000000000000",
      "reserved": "",
      "assetIds": []
    },
    {
      "x": 50,
      "y": 67,
      "size": 1,
      "price": "905000000000000000000",
      "reserved": "",
      "assetIds": []
    },
    {
      "x": 51,
      "y": 68,
      "size": 1,
      "price": "905000000000000000000",
      "reserved": "",
      "assetIds": []
    },
    {
      "x": 52,
      "y": 71,
      "size": 1,
      "price": "905000000000000000000",
      "reserved": "",
      "assetIds": []
    },
    {
      "x": 52,
      "y": 68,
      "size": 1,
      "price": "905000000000000000000",
      "reserved": "",
      "assetIds": []
    },
    {
      "x": 52,
      "y": 67,
      "size": 1,
      "price": "905000000000000000000",
      "reserved": "",
      "assetIds": []
    },
    {
      "x": 53,
      "y": 70,
      "size": 1,
      "price": "905000000000000000000",
      "reserved": "",
      "assetIds": []
    },
    {
      "x": 53,
      "y": 71,
      "size": 1,
      "price": "905000000000000000000",
      "reserved": "",
      "assetIds": []
    },
    {
      "x": 51,
      "y": 67,
      "size": 1,
      "price": "905000000000000000000",
      "reserved": "",
      "assetIds": []
    },
    {
      "x": 50,
      "y": 66,
      "size": 1,
      "price": "905000000000000000000",
      "reserved": "",
      "assetIds": []
    },
    {
      "x": 50,
      "y": 65,
      "size": 1,
      "price": "905000000000000000000",
      "reserved": "",
      "assetIds": []
    },
    {
      "x": 50,
      "y": 70,
      "size": 1,
      "price": "905000000000000000000",
      "reserved": "",
      "assetIds": []
    },
    {
      "x": 50,
      "y": 71,
      "size": 1,
      "price": "905000000000000000000",
      "reserved": "",
      "assetIds": []
    },
    {
      "x": 49,
      "y": 69,
      "size": 1,
      "price": "905000000000000000000",
      "reserved": "",
      "assetIds": []
    },
    {
      "x": 49,
      "y": 68,
      "size": 1,
      "price": "905000000000000000000",
      "reserved": "",
      "assetIds": []
    },
    {
      "x": 48,
      "y": 67,
      "size": 1,
      "price": "905000000000000000000",
      "reserved": "",
      "assetIds": []
    },
    {
      "x": 48,
      "y": 66,
      "size": 1,
      "price": "905000000000000000000",
      "reserved": "",
      "assetIds": []
    },
    {
      "x": 48,
      "y": 65,
      "size": 1,
      "price": "905000000000000000000",
      "reserved": "",
      "assetIds": []
    },
    {
      "x": 49,
      "y": 65,
      "size": 1,
      "price": "905000000000000000000",
      "reserved": "",
      "assetIds": []
    },
    {
      "x": 49,
      "y": 70,
      "size": 1,
      "price": "905000000000000000000",
      "reserved": "",
      "assetIds": []
    },
    {
      "x": 48,
      "y": 68,
      "size": 1,
      "price": "905000000000000000000",
      "reserved": "",
      "assetIds": []
    },
    {
      "x": 48,
      "y": 69,
      "size": 1,
      "price": "905000000000000000000",
      "reserved": "",
      "assetIds": []
    },
    {
      "x": 48,
      "y": 70,
      "size": 1,
      "price": "905000000000000000000",
      "reserved": "",
      "assetIds": []
    },
    {
      "x": 48,
      "y": 71,
      "size": 1,
      "price": "905000000000000000000",
      "reserved": "",
      "assetIds": []
    },
    {
      "x": 47,
      "y": 68,
      "size": 1,
      "price": "905000000000000000000",
      "reserved": "",
      "assetIds": []
    },
    {
      "x": 47,
      "y": 67,
      "size": 1,
      "price": "905000000000000000000",
      "reserved": "",
      "assetIds": []
    },
    {
      "x": 47,
      "y": 66,
      "size": 1,
      "price": "905000000000000000000",
      "reserved": "",
      "assetIds": []
    },
    {
      "x": 47,
      "y": 69,
      "size": 1,
      "price": "905000000000000000000",
      "reserved": "",
      "assetIds": []
    },
    {
      "x": 47,
      "y": 70,
      "size": 1,
      "price": "905000000000000000000",
      "reserved": "",
      "assetIds": []
    },
    {
      "x": 47,
      "y": 71,
      "size": 1,
      "price": "905000000000000000000",
      "reserved": "",
      "assetIds": []
    },
    {
      "x": 46,
      "y": 67,
      "size": 1,
      "price": "905000000000000000000",
      "reserved": "",
      "assetIds": []
    },
    {
      "x": 46,
      "y": 66,
      "size": 1,
      "price": "905000000000000000000",
      "reserved": "",
      "assetIds": []
    },
    {
      "x": 46,
      "y": 65,
      "size": 1,
      "price": "905000000000000000000",
      "reserved": "",
      "assetIds": []
    },
    {
      "x": 47,
      "y": 65,
      "size": 1,
      "price": "905000000000000000000",
      "reserved": "",
      "assetIds": []
    },
    {
      "x": 46,
      "y": 68,
      "size": 1,
      "price": "905000000000000000000",
      "reserved": "",
      "assetIds": []
    },
    {
      "x": 46,
      "y": 69,
      "size": 1,
      "price": "905000000000000000000",
      "reserved": "",
      "assetIds": []
    },
    {
      "x": 45,
      "y": 69,
      "size": 1,
      "price": "905000000000000000000",
      "reserved": "",
      "assetIds": []
    },
    {
      "x": 45,
      "y": 70,
      "size": 1,
      "price": "905000000000000000000",
      "reserved": "",
      "assetIds": []
    },
    {
      "x": 44,
      "y": 70,
      "size": 1,
      "price": "905000000000000000000",
      "reserved": "",
      "assetIds": []
    },
    {
      "x": 44,
      "y": 71,
      "size": 1,
      "price": "905000000000000000000",
      "reserved": "",
      "assetIds": []
    },
    {
      "x": 43,
      "y": 71,
      "size": 1,
      "price": "905000000000000000000",
      "reserved": "",
      "assetIds": []
    },
    {
      "x": 43,
      "y": 70,
      "size": 1,
      "price": "905000000000000000000",
      "reserved": "",
      "assetIds": []
    },
    {
      "x": 43,
      "y": 69,
      "size": 1,
      "price": "905000000000000000000",
      "reserved": "",
      "assetIds": []
    },
    {
      "x": 42,
      "y": 69,
      "size": 1,
      "price": "905000000000000000000",
      "reserved": "",
      "assetIds": []
    },
    {
      "x": 42,
      "y": 68,
      "size": 1,
      "price": "905000000000000000000",
      "reserved": "",
      "assetIds": []
    },
    {
      "x": 42,
      "y": 66,
      "size": 1,
      "price": "905000000000000000000",
      "reserved": "",
      "assetIds": []
    },
    {
      "x": 42,
      "y": 65,
      "size": 1,
      "price": "905000000000000000000",
      "reserved": "",
      "assetIds": []
    },
    {
      "x": 43,
      "y": 65,
      "size": 1,
      "price": "905000000000000000000",
      "reserved": "",
      "assetIds": []
    },
    {
      "x": 43,
      "y": 66,
      "size": 1,
      "price": "905000000000000000000",
      "reserved": "",
      "assetIds": []
    },
    {
      "x": 44,
      "y": 66,
      "size": 1,
      "price": "905000000000000000000",
      "reserved": "",
      "assetIds": []
    },
    {
      "x": 44,
      "y": 68,
      "size": 1,
      "price": "905000000000000000000",
      "reserved": "",
      "assetIds": []
    },
    {
      "x": 44,
      "y": 69,
      "size": 1,
      "price": "905000000000000000000",
      "reserved": "",
      "assetIds": []
    },
    {
      "x": 45,
      "y": 71,
      "size": 1,
      "price": "905000000000000000000",
      "reserved": "",
      "assetIds": []
    },
    {
      "x": 45,
      "y": 68,
      "size": 1,
      "price": "905000000000000000000",
      "reserved": "",
      "assetIds": []
    },
    {
      "x": 45,
      "y": 67,
      "size": 1,
      "price": "905000000000000000000",
      "reserved": "",
      "assetIds": []
    },
    {
      "x": 44,
      "y": 65,
      "size": 1,
      "price": "905000000000000000000",
      "reserved": "",
      "assetIds": []
    },
    {
      "x": 45,
      "y": 65,
      "size": 1,
      "price": "905000000000000000000",
      "reserved": "",
      "assetIds": []
    },
    {
      "x": 45,
      "y": 66,
      "size": 1,
      "price": "905000000000000000000",
      "reserved": "",
      "assetIds": []
    },
    {
      "x": 42,
      "y": 67,
      "size": 1,
      "price": "905000000000000000000",
      "reserved": "",
      "assetIds": []
    },
    {
      "x": 42,
      "y": 70,
      "size": 1,
      "price": "905000000000000000000",
      "reserved": "",
      "assetIds": []
    },
    {
      "x": 43,
      "y": 68,
      "size": 1,
      "price": "905000000000000000000",
      "reserved": "",
      "assetIds": []
    },
    {
      "x": 43,
      "y": 67,
      "size": 1,
      "price": "905000000000000000000",
      "reserved": "",
      "assetIds": []
    },
    {
      "x": 42,
      "y": 71,
      "size": 1,
      "price": "905000000000000000000",
      "reserved": "",
      "assetIds": []
    },
    {
      "x": 46,
      "y": 71,
      "size": 1,
      "price": "905000000000000000000",
      "reserved": "",
      "assetIds": []
    },
    {
      "x": 51,
      "y": 71,
      "size": 1,
      "price": "905000000000000000000",
      "reserved": "",
      "assetIds": []
    },
    {
      "x": 49,
      "y": 71,
      "size": 1,
      "price": "905000000000000000000",
      "reserved": "",
      "assetIds": []
    },
    {
      "x": 46,
      "y": 70,
      "size": 1,
      "price": "905000000000000000000",
      "reserved": "",
      "assetIds": []
    },
    {
      "x": 60,
      "y": 69,
      "size": 1,
      "price": "905000000000000000000",
      "reserved": "",
      "assetIds": []
    },
    {
      "x": 61,
      "y": 69,
      "size": 1,
      "price": "905000000000000000000",
      "reserved": "",
      "assetIds": []
    },
    {
      "x": 62,
      "y": 69,
      "size": 1,
      "price": "905000000000000000000",
      "reserved": "",
      "assetIds": []
    },
    {
      "x": 63,
      "y": 69,
      "size": 1,
      "price": "905000000000000000000",
      "reserved": "",
      "assetIds": []
    },
    {
      "x": 64,
      "y": 69,
      "size": 1,
      "price": "905000000000000000000",
      "reserved": "",
      "assetIds": []
    },
    {
      "x": 65,
      "y": 69,
      "size": 1,
      "price": "905000000000000000000",
      "reserved": "",
      "assetIds": []
    },
    {
      "x": 63,
      "y": 68,
      "size": 1,
      "price": "905000000000000000000",
      "reserved": "",
      "assetIds": []
    },
    {
      "x": 62,
      "y": 68,
      "size": 1,
      "price": "905000000000000000000",
      "reserved": "",
      "assetIds": []
    },
    {
      "x": 61,
      "y": 68,
      "size": 1,
      "price": "905000000000000000000",
      "reserved": "",
      "assetIds": []
    },
    {
      "x": 60,
      "y": 68,
      "size": 1,
      "price": "905000000000000000000",
      "reserved": "",
      "assetIds": []
    },
    {
      "x": 60,
      "y": 66,
      "size": 1,
      "price": "905000000000000000000",
      "reserved": "",
      "assetIds": []
    },
    {
      "x": 61,
      "y": 66,
      "size": 1,
      "price": "905000000000000000000",
      "reserved": "",
      "assetIds": []
    },
    {
      "x": 62,
      "y": 66,
      "size": 1,
      "price": "905000000000000000000",
      "reserved": "",
      "assetIds": []
    },
    {
      "x": 63,
      "y": 66,
      "size": 1,
      "price": "905000000000000000000",
      "reserved": "",
      "assetIds": []
    },
    {
      "x": 64,
      "y": 67,
      "size": 1,
      "price": "905000000000000000000",
      "reserved": "",
      "assetIds": []
    },
    {
      "x": 65,
      "y": 67,
      "size": 1,
      "price": "905000000000000000000",
      "reserved": "",
      "assetIds": []
    },
    {
      "x": 63,
      "y": 67,
      "size": 1,
      "price": "905000000000000000000",
      "reserved": "",
      "assetIds": []
    },
    {
      "x": 62,
      "y": 67,
      "size": 1,
      "price": "905000000000000000000",
      "reserved": "",
      "assetIds": []
    },
    {
      "x": 61,
      "y": 67,
      "size": 1,
      "price": "905000000000000000000",
      "reserved": "",
      "assetIds": []
    },
    {
      "x": 60,
      "y": 67,
      "size": 1,
      "price": "905000000000000000000",
      "reserved": "",
      "assetIds": []
    },
    {
      "x": 65,
      "y": 66,
      "size": 1,
      "price": "905000000000000000000",
      "reserved": "",
      "assetIds": []
    },
    {
      "x": 64,
      "y": 66,
      "size": 1,
      "price": "905000000000000000000",
      "reserved": "",
      "assetIds": []
    },
    {
      "x": 63,
      "y": 70,
      "size": 1,
      "price": "905000000000000000000",
      "reserved": "",
      "assetIds": []
    },
    {
      "x": 64,
      "y": 70,
      "size": 1,
      "price": "905000000000000000000",
      "reserved": "",
      "assetIds": []
    },
    {
      "x": 64,
      "y": 68,
      "size": 1,
      "price": "905000000000000000000",
      "reserved": "",
      "assetIds": []
    },
    {
      "x": 65,
      "y": 68,
      "size": 1,
      "price": "905000000000000000000",
      "reserved": "",
      "assetIds": []
    },
    {
      "x": 63,
      "y": 71,
      "size": 1,
      "price": "905000000000000000000",
      "reserved": "",
      "assetIds": []
    },
    {
      "x": 64,
      "y": 71,
      "size": 1,
      "price": "905000000000000000000",
      "reserved": "",
      "assetIds": []
    },
    {
      "x": 65,
      "y": 70,
      "size": 1,
      "price": "905000000000000000000",
      "reserved": "",
      "assetIds": []
    },
    {
      "x": 65,
      "y": 71,
      "size": 1,
      "price": "905000000000000000000",
      "reserved": "",
      "assetIds": []
    },
    {
      "x": 62,
      "y": 71,
      "size": 1,
      "price": "905000000000000000000",
      "reserved": "",
      "assetIds": []
    },
    {
      "x": 62,
      "y": 70,
      "size": 1,
      "price": "905000000000000000000",
      "reserved": "",
      "assetIds": []
    },
    {
      "x": 61,
      "y": 70,
      "size": 1,
      "price": "905000000000000000000",
      "reserved": "",
      "assetIds": []
    },
    {
      "x": 61,
      "y": 71,
      "size": 1,
      "price": "905000000000000000000",
      "reserved": "",
      "assetIds": []
    },
    {
      "x": 60,
      "y": 70,
      "size": 1,
      "price": "905000000000000000000",
      "reserved": "",
      "assetIds": []
    },
    {
      "x": 69,
      "y": 69,
      "size": 1,
      "price": "905000000000000000000",
      "reserved": "",
      "assetIds": []
    },
    {
      "x": 70,
      "y": 68,
      "size": 1,
      "price": "905000000000000000000",
      "reserved": "",
      "assetIds": []
    },
    {
      "x": 71,
      "y": 68,
      "size": 1,
      "price": "905000000000000000000",
      "reserved": "",
      "assetIds": []
    },
    {
      "x": 69,
      "y": 68,
      "size": 1,
      "price": "905000000000000000000",
      "reserved": "",
      "assetIds": []
    },
    {
      "x": 70,
      "y": 69,
      "size": 1,
      "price": "905000000000000000000",
      "reserved": "",
      "assetIds": []
    },
    {
      "x": 70,
      "y": 70,
      "size": 1,
      "price": "905000000000000000000",
      "reserved": "",
      "assetIds": []
    },
    {
      "x": 71,
      "y": 69,
      "size": 1,
      "price": "905000000000000000000",
      "reserved": "",
      "assetIds": []
    },
    {
      "x": 70,
      "y": 67,
      "size": 1,
      "price": "905000000000000000000",
      "reserved": "",
      "assetIds": []
    },
    {
      "x": 70,
      "y": 66,
      "size": 1,
      "price": "905000000000000000000",
      "reserved": "",
      "assetIds": []
    },
    {
      "x": 69,
      "y": 71,
      "size": 1,
      "price": "905000000000000000000",
      "reserved": "",
      "assetIds": []
    },
    {
      "x": 70,
      "y": 71,
      "size": 1,
      "price": "905000000000000000000",
      "reserved": "",
      "assetIds": []
    },
    {
      "x": 71,
      "y": 66,
      "size": 1,
      "price": "905000000000000000000",
      "reserved": "",
      "assetIds": []
    },
    {
      "x": 71,
      "y": 65,
      "size": 1,
      "price": "905000000000000000000",
      "reserved": "",
      "assetIds": []
    },
    {
      "x": 71,
      "y": 64,
      "size": 1,
      "price": "905000000000000000000",
      "reserved": "",
      "assetIds": []
    },
    {
      "x": 71,
      "y": 62,
      "size": 1,
      "price": "905000000000000000000",
      "reserved": "",
      "assetIds": []
    },
    {
      "x": 71,
      "y": 61,
      "size": 1,
      "price": "905000000000000000000",
      "reserved": "",
      "assetIds": []
    },
    {
      "x": 71,
      "y": 67,
      "size": 1,
      "price": "905000000000000000000",
      "reserved": "",
      "assetIds": []
    },
    {
      "x": 70,
      "y": 65,
      "size": 1,
      "price": "905000000000000000000",
      "reserved": "",
      "assetIds": []
    },
    {
      "x": 70,
      "y": 64,
      "size": 1,
      "price": "905000000000000000000",
      "reserved": "",
      "assetIds": []
    },
    {
      "x": 70,
      "y": 63,
      "size": 1,
      "price": "905000000000000000000",
      "reserved": "",
      "assetIds": []
    },
    {
      "x": 70,
      "y": 62,
      "size": 1,
      "price": "905000000000000000000",
      "reserved": "",
      "assetIds": []
    },
    {
      "x": 70,
      "y": 61,
      "size": 1,
      "price": "905000000000000000000",
      "reserved": "",
      "assetIds": []
    },
    {
      "x": 70,
      "y": 60,
      "size": 1,
      "price": "905000000000000000000",
      "reserved": "",
      "assetIds": []
    },
    {
      "x": 69,
      "y": 60,
      "size": 1,
      "price": "905000000000000000000",
      "reserved": "",
      "assetIds": []
    },
    {
      "x": 69,
      "y": 61,
      "size": 1,
      "price": "905000000000000000000",
      "reserved": "",
      "assetIds": []
    },
    {
      "x": 69,
      "y": 62,
      "size": 1,
      "price": "905000000000000000000",
      "reserved": "",
      "assetIds": []
    },
    {
      "x": 69,
      "y": 63,
      "size": 1,
      "price": "905000000000000000000",
      "reserved": "",
      "assetIds": []
    },
    {
      "x": 69,
      "y": 64,
      "size": 1,
      "price": "905000000000000000000",
      "reserved": "",
      "assetIds": []
    },
    {
      "x": 69,
      "y": 65,
      "size": 1,
      "price": "905000000000000000000",
      "reserved": "",
      "assetIds": []
    },
    {
      "x": 69,
      "y": 66,
      "size": 1,
      "price": "905000000000000000000",
      "reserved": "",
      "assetIds": []
    },
    {
      "x": 69,
      "y": 67,
      "size": 1,
      "price": "905000000000000000000",
      "reserved": "",
      "assetIds": []
    },
    {
      "x": 68,
      "y": 60,
      "size": 1,
      "price": "905000000000000000000",
      "reserved": "",
      "assetIds": []
    },
    {
      "x": 68,
      "y": 61,
      "size": 1,
      "price": "905000000000000000000",
      "reserved": "",
      "assetIds": []
    },
    {
      "x": 68,
      "y": 62,
      "size": 1,
      "price": "905000000000000000000",
      "reserved": "",
      "assetIds": []
    },
    {
      "x": 68,
      "y": 63,
      "size": 1,
      "price": "905000000000000000000",
      "reserved": "",
      "assetIds": []
    },
    {
      "x": 68,
      "y": 65,
      "size": 1,
      "price": "905000000000000000000",
      "reserved": "",
      "assetIds": []
    },
    {
      "x": 68,
      "y": 66,
      "size": 1,
      "price": "905000000000000000000",
      "reserved": "",
      "assetIds": []
    },
    {
      "x": 68,
      "y": 67,
      "size": 1,
      "price": "905000000000000000000",
      "reserved": "",
      "assetIds": []
    },
    {
      "x": 68,
      "y": 68,
      "size": 1,
      "price": "905000000000000000000",
      "reserved": "",
      "assetIds": []
    },
    {
      "x": 68,
      "y": 64,
      "size": 1,
      "price": "905000000000000000000",
      "reserved": "",
      "assetIds": []
    },
    {
      "x": 67,
      "y": 68,
      "size": 1,
      "price": "905000000000000000000",
      "reserved": "",
      "assetIds": []
    },
    {
      "x": 67,
      "y": 66,
      "size": 1,
      "price": "905000000000000000000",
      "reserved": "",
      "assetIds": []
    },
    {
      "x": 67,
      "y": 65,
      "size": 1,
      "price": "905000000000000000000",
      "reserved": "",
      "assetIds": []
    },
    {
      "x": 67,
      "y": 64,
      "size": 1,
      "price": "905000000000000000000",
      "reserved": "",
      "assetIds": []
    },
    {
      "x": 67,
      "y": 63,
      "size": 1,
      "price": "905000000000000000000",
      "reserved": "",
      "assetIds": []
    },
    {
      "x": 67,
      "y": 62,
      "size": 1,
      "price": "905000000000000000000",
      "reserved": "",
      "assetIds": []
    },
    {
      "x": 67,
      "y": 61,
      "size": 1,
      "price": "905000000000000000000",
      "reserved": "",
      "assetIds": []
    },
    {
      "x": 66,
      "y": 61,
      "size": 1,
      "price": "905000000000000000000",
      "reserved": "",
      "assetIds": []
    },
    {
      "x": 66,
      "y": 62,
      "size": 1,
      "price": "905000000000000000000",
      "reserved": "",
      "assetIds": []
    },
    {
      "x": 66,
      "y": 63,
      "size": 1,
      "price": "905000000000000000000",
      "reserved": "",
      "assetIds": []
    },
    {
      "x": 66,
      "y": 64,
      "size": 1,
      "price": "905000000000000000000",
      "reserved": "",
      "assetIds": []
    },
    {
      "x": 66,
      "y": 65,
      "size": 1,
      "price": "905000000000000000000",
      "reserved": "",
      "assetIds": []
    },
    {
      "x": 66,
      "y": 60,
      "size": 1,
      "price": "905000000000000000000",
      "reserved": "",
      "assetIds": []
    },
    {
      "x": 67,
      "y": 60,
      "size": 1,
      "price": "905000000000000000000",
      "reserved": "",
      "assetIds": []
    },
    {
      "x": 67,
      "y": 67,
      "size": 1,
      "price": "905000000000000000000",
      "reserved": "",
      "assetIds": []
    },
    {
      "x": 71,
      "y": 60,
      "size": 1,
      "price": "905000000000000000000",
      "reserved": "",
      "assetIds": []
    },
    {
      "x": 74,
      "y": 40,
      "size": 1,
      "price": "905000000000000000000",
      "reserved": "",
      "assetIds": []
    },
    {
      "x": 74,
      "y": 39,
      "size": 1,
      "price": "905000000000000000000",
      "reserved": "",
      "assetIds": []
    },
    {
      "x": 73,
      "y": 40,
      "size": 1,
      "price": "905000000000000000000",
      "reserved": "",
      "assetIds": []
    },
    {
      "x": 73,
      "y": 39,
      "size": 1,
      "price": "905000000000000000000",
      "reserved": "",
      "assetIds": []
    },
    {
      "x": 72,
      "y": 40,
      "size": 1,
      "price": "905000000000000000000",
      "reserved": "",
      "assetIds": []
    },
    {
      "x": 71,
      "y": 40,
      "size": 1,
      "price": "905000000000000000000",
      "reserved": "",
      "assetIds": []
    },
    {
      "x": 70,
      "y": 40,
      "size": 1,
      "price": "905000000000000000000",
      "reserved": "",
      "assetIds": []
    },
    {
      "x": 69,
      "y": 40,
      "size": 1,
      "price": "905000000000000000000",
      "reserved": "",
      "assetIds": []
    },
    {
      "x": 69,
      "y": 39,
      "size": 1,
      "price": "905000000000000000000",
      "reserved": "",
      "assetIds": []
    },
    {
      "x": 70,
      "y": 39,
      "size": 1,
      "price": "905000000000000000000",
      "reserved": "",
      "assetIds": []
    },
    {
      "x": 71,
      "y": 39,
      "size": 1,
      "price": "905000000000000000000",
      "reserved": "",
      "assetIds": []
    },
    {
      "x": 72,
      "y": 39,
      "size": 1,
      "price": "905000000000000000000",
      "reserved": "",
      "assetIds": []
    },
    {
      "x": 70,
      "y": 41,
      "size": 1,
      "price": "905000000000000000000",
      "reserved": "",
      "assetIds": []
    },
    {
      "x": 71,
      "y": 41,
      "size": 1,
      "price": "905000000000000000000",
      "reserved": "",
      "assetIds": []
    },
    {
      "x": 69,
      "y": 41,
      "size": 1,
      "price": "905000000000000000000",
      "reserved": "",
      "assetIds": []
    },
    {
      "x": 72,
      "y": 41,
      "size": 1,
      "price": "905000000000000000000",
      "reserved": "",
      "assetIds": []
    },
    {
      "x": 73,
      "y": 41,
      "size": 1,
      "price": "905000000000000000000",
      "reserved": "",
      "assetIds": []
    },
    {
      "x": 74,
      "y": 35,
      "size": 1,
      "price": "905000000000000000000",
      "reserved": "",
      "assetIds": []
    },
    {
      "x": 75,
      "y": 35,
      "size": 1,
      "price": "905000000000000000000",
      "reserved": "",
      "assetIds": []
    },
    {
      "x": 75,
      "y": 34,
      "size": 1,
      "price": "905000000000000000000",
      "reserved": "",
      "assetIds": []
    },
    {
      "x": 76,
      "y": 34,
      "size": 1,
      "price": "905000000000000000000",
      "reserved": "",
      "assetIds": []
    },
    {
      "x": 78,
      "y": 34,
      "size": 1,
      "price": "905000000000000000000",
      "reserved": "",
      "assetIds": []
    },
    {
      "x": 79,
      "y": 34,
      "size": 1,
      "price": "905000000000000000000",
      "reserved": "",
      "assetIds": []
    },
    {
      "x": 80,
      "y": 34,
      "size": 1,
      "price": "905000000000000000000",
      "reserved": "",
      "assetIds": []
    },
    {
      "x": 79,
      "y": 33,
      "size": 1,
      "price": "905000000000000000000",
      "reserved": "",
      "assetIds": []
    },
    {
      "x": 78,
      "y": 33,
      "size": 1,
      "price": "905000000000000000000",
      "reserved": "",
      "assetIds": []
    },
    {
      "x": 74,
      "y": 34,
      "size": 1,
      "price": "905000000000000000000",
      "reserved": "",
      "assetIds": []
    },
    {
      "x": 73,
      "y": 35,
      "size": 1,
      "price": "905000000000000000000",
      "reserved": "",
      "assetIds": []
    },
    {
      "x": 76,
      "y": 33,
      "size": 1,
      "price": "905000000000000000000",
      "reserved": "",
      "assetIds": []
    },
    {
      "x": 77,
      "y": 33,
      "size": 1,
      "price": "905000000000000000000",
      "reserved": "",
      "assetIds": []
    },
    {
      "x": 78,
      "y": 32,
      "size": 1,
      "price": "905000000000000000000",
      "reserved": "",
      "assetIds": []
    },
    {
      "x": 79,
      "y": 32,
      "size": 1,
      "price": "905000000000000000000",
      "reserved": "",
      "assetIds": []
    },
    {
      "x": 79,
      "y": 31,
      "size": 1,
      "price": "905000000000000000000",
      "reserved": "",
      "assetIds": []
    },
    {
      "x": 78,
      "y": 31,
      "size": 1,
      "price": "905000000000000000000",
      "reserved": "",
      "assetIds": []
    },
    {
      "x": 77,
      "y": 31,
      "size": 1,
      "price": "905000000000000000000",
      "reserved": "",
      "assetIds": []
    },
    {
      "x": 76,
      "y": 31,
      "size": 1,
      "price": "905000000000000000000",
      "reserved": "",
      "assetIds": []
    },
    {
      "x": 76,
      "y": 32,
      "size": 1,
      "price": "905000000000000000000",
      "reserved": "",
      "assetIds": []
    },
    {
      "x": 77,
      "y": 32,
      "size": 1,
      "price": "905000000000000000000",
      "reserved": "",
      "assetIds": []
    },
    {
      "x": 80,
      "y": 32,
      "size": 1,
      "price": "905000000000000000000",
      "reserved": "",
      "assetIds": []
    },
    {
      "x": 80,
      "y": 31,
      "size": 1,
      "price": "905000000000000000000",
      "reserved": "",
      "assetIds": []
    },
    {
      "x": 79,
      "y": 30,
      "size": 1,
      "price": "905000000000000000000",
      "reserved": "",
      "assetIds": []
    },
    {
      "x": 78,
      "y": 30,
      "size": 1,
      "price": "905000000000000000000",
      "reserved": "",
      "assetIds": []
    },
    {
      "x": 80,
      "y": 30,
      "size": 1,
      "price": "905000000000000000000",
      "reserved": "",
      "assetIds": []
    },
    {
      "x": 80,
      "y": 35,
      "size": 1,
      "price": "905000000000000000000",
      "reserved": "",
      "assetIds": []
    },
    {
      "x": 80,
      "y": 33,
      "size": 1,
      "price": "905000000000000000000",
      "reserved": "",
      "assetIds": []
    },
    {
      "x": 79,
      "y": 35,
      "size": 1,
      "price": "905000000000000000000",
      "reserved": "",
      "assetIds": []
    },
    {
      "x": 77,
      "y": 37,
      "size": 1,
      "price": "905000000000000000000",
      "reserved": "",
      "assetIds": []
    },
    {
      "x": 76,
      "y": 36,
      "size": 1,
      "price": "905000000000000000000",
      "reserved": "",
      "assetIds": []
    },
    {
      "x": 76,
      "y": 35,
      "size": 1,
      "price": "905000000000000000000",
      "reserved": "",
      "assetIds": []
    },
    {
      "x": 76,
      "y": 37,
      "size": 1,
      "price": "905000000000000000000",
      "reserved": "",
      "assetIds": []
    },
    {
      "x": 76,
      "y": 38,
      "size": 1,
      "price": "905000000000000000000",
      "reserved": "",
      "assetIds": []
    },
    {
      "x": 75,
      "y": 38,
      "size": 1,
      "price": "905000000000000000000",
      "reserved": "",
      "assetIds": []
    },
    {
      "x": 75,
      "y": 37,
      "size": 1,
      "price": "905000000000000000000",
      "reserved": "",
      "assetIds": []
    },
    {
      "x": 77,
      "y": 35,
      "size": 1,
      "price": "905000000000000000000",
      "reserved": "",
      "assetIds": []
    },
    {
      "x": 78,
      "y": 35,
      "size": 1,
      "price": "905000000000000000000",
      "reserved": "",
      "assetIds": []
    },
    {
      "x": 73,
      "y": 34,
      "size": 1,
      "price": "905000000000000000000",
      "reserved": "",
      "assetIds": []
    },
    {
      "x": 73,
      "y": 33,
      "size": 1,
      "price": "905000000000000000000",
      "reserved": "",
      "assetIds": []
    },
    {
      "x": 75,
      "y": 32,
      "size": 1,
      "price": "905000000000000000000",
      "reserved": "",
      "assetIds": []
    },
    {
      "x": 75,
      "y": 33,
      "size": 1,
      "price": "905000000000000000000",
      "reserved": "",
      "assetIds": []
    },
    {
      "x": 75,
      "y": 31,
      "size": 1,
      "price": "905000000000000000000",
      "reserved": "",
      "assetIds": []
    },
    {
      "x": 74,
      "y": 33,
      "size": 1,
      "price": "905000000000000000000",
      "reserved": "",
      "assetIds": []
    },
    {
      "x": 72,
      "y": 35,
      "size": 1,
      "price": "905000000000000000000",
      "reserved": "",
      "assetIds": []
    },
    {
      "x": 72,
      "y": 34,
      "size": 1,
      "price": "905000000000000000000",
      "reserved": "",
      "assetIds": []
    },
    {
      "x": 72,
      "y": 33,
      "size": 1,
      "price": "905000000000000000000",
      "reserved": "",
      "assetIds": []
    },
    {
      "x": 75,
      "y": 36,
      "size": 1,
      "price": "905000000000000000000",
      "reserved": "",
      "assetIds": []
    },
    {
      "x": 77,
      "y": 38,
      "size": 1,
      "price": "905000000000000000000",
      "reserved": "",
      "assetIds": []
    },
    {
      "x": 77,
      "y": 36,
      "size": 1,
      "price": "905000000000000000000",
      "reserved": "",
      "assetIds": []
    },
    {
      "x": 83,
      "y": 29,
      "size": 1,
      "price": "905000000000000000000",
      "reserved": "",
      "assetIds": []
    },
    {
      "x": 82,
      "y": 29,
      "size": 1,
      "price": "905000000000000000000",
      "reserved": "",
      "assetIds": []
    },
    {
      "x": 82,
      "y": 28,
      "size": 1,
      "price": "905000000000000000000",
      "reserved": "",
      "assetIds": []
    },
    {
      "x": 83,
      "y": 28,
      "size": 1,
      "price": "905000000000000000000",
      "reserved": "",
      "assetIds": []
    },
    {
      "x": 83,
      "y": 27,
      "size": 1,
      "price": "905000000000000000000",
      "reserved": "",
      "assetIds": []
    },
    {
      "x": 82,
      "y": 27,
      "size": 1,
      "price": "905000000000000000000",
      "reserved": "",
      "assetIds": []
    },
    {
      "x": 82,
      "y": 26,
      "size": 1,
      "price": "905000000000000000000",
      "reserved": "",
      "assetIds": []
    },
    {
      "x": 82,
      "y": 25,
      "size": 1,
      "price": "905000000000000000000",
      "reserved": "",
      "assetIds": []
    },
    {
      "x": 82,
      "y": 24,
      "size": 1,
      "price": "905000000000000000000",
      "reserved": "",
      "assetIds": []
    },
    {
      "x": 83,
      "y": 24,
      "size": 1,
      "price": "905000000000000000000",
      "reserved": "",
      "assetIds": []
    },
    {
      "x": 83,
      "y": 25,
      "size": 1,
      "price": "905000000000000000000",
      "reserved": "",
      "assetIds": []
    },
    {
      "x": 83,
      "y": 26,
      "size": 1,
      "price": "905000000000000000000",
      "reserved": "",
      "assetIds": []
    },
    {
      "x": 81,
      "y": 27,
      "size": 1,
      "price": "905000000000000000000",
      "reserved": "",
      "assetIds": []
    },
    {
      "x": 81,
      "y": 28,
      "size": 1,
      "price": "905000000000000000000",
      "reserved": "",
      "assetIds": []
    },
    {
      "x": 81,
      "y": 29,
      "size": 1,
      "price": "905000000000000000000",
      "reserved": "",
      "assetIds": []
    },
    {
      "x": 95,
      "y": 34,
      "size": 1,
      "price": "905000000000000000000",
      "reserved": "",
      "assetIds": []
    },
    {
      "x": 94,
      "y": 34,
      "size": 1,
      "price": "905000000000000000000",
      "reserved": "",
      "assetIds": []
    },
    {
      "x": 93,
      "y": 34,
      "size": 1,
      "price": "905000000000000000000",
      "reserved": "",
      "assetIds": []
    },
    {
      "x": 93,
      "y": 33,
      "size": 1,
      "price": "905000000000000000000",
      "reserved": "",
      "assetIds": []
    },
    {
      "x": 93,
      "y": 35,
      "size": 1,
      "price": "905000000000000000000",
      "reserved": "",
      "assetIds": []
    },
    {
      "x": 94,
      "y": 35,
      "size": 1,
      "price": "905000000000000000000",
      "reserved": "",
      "assetIds": []
    },
    {
      "x": 95,
      "y": 35,
      "size": 1,
      "price": "905000000000000000000",
      "reserved": "",
      "assetIds": []
    },
    {
      "x": 94,
      "y": 33,
      "size": 1,
      "price": "905000000000000000000",
      "reserved": "",
      "assetIds": []
    },
    {
      "x": 95,
      "y": 33,
      "size": 1,
      "price": "905000000000000000000",
      "reserved": "",
      "assetIds": []
    },
    {
      "x": 91,
      "y": 36,
      "size": 1,
      "price": "905000000000000000000",
      "reserved": "",
      "assetIds": []
    },
    {
      "x": 91,
      "y": 37,
      "size": 1,
      "price": "905000000000000000000",
      "reserved": "",
      "assetIds": []
    },
    {
      "x": 90,
      "y": 37,
      "size": 1,
      "price": "905000000000000000000",
      "reserved": "",
      "assetIds": []
    },
    {
      "x": 90,
      "y": 36,
      "size": 1,
      "price": "905000000000000000000",
      "reserved": "",
      "assetIds": []
    },
    {
      "x": 92,
      "y": 36,
      "size": 1,
      "price": "905000000000000000000",
      "reserved": "",
      "assetIds": []
    },
    {
      "x": 92,
      "y": 37,
      "size": 1,
      "price": "905000000000000000000",
      "reserved": "",
      "assetIds": []
    },
    {
      "x": 92,
      "y": 38,
      "size": 1,
      "price": "905000000000000000000",
      "reserved": "",
      "assetIds": []
    },
    {
      "x": 91,
      "y": 38,
      "size": 1,
      "price": "905000000000000000000",
      "reserved": "",
      "assetIds": []
    },
    {
      "x": 90,
      "y": 38,
      "size": 1,
      "price": "905000000000000000000",
      "reserved": "",
      "assetIds": []
    },
    {
      "x": 94,
      "y": 39,
      "size": 1,
      "price": "905000000000000000000",
      "reserved": "",
      "assetIds": []
    },
    {
      "x": 94,
      "y": 40,
      "size": 1,
      "price": "905000000000000000000",
      "reserved": "",
      "assetIds": []
    },
    {
      "x": 94,
      "y": 41,
      "size": 1,
      "price": "905000000000000000000",
      "reserved": "",
      "assetIds": []
    },
    {
      "x": 93,
      "y": 41,
      "size": 1,
      "price": "905000000000000000000",
      "reserved": "",
      "assetIds": []
    },
    {
      "x": 93,
      "y": 40,
      "size": 1,
      "price": "905000000000000000000",
      "reserved": "",
      "assetIds": []
    },
    {
      "x": 95,
      "y": 39,
      "size": 1,
      "price": "905000000000000000000",
      "reserved": "",
      "assetIds": []
    },
    {
      "x": 95,
      "y": 40,
      "size": 1,
      "price": "905000000000000000000",
      "reserved": "",
      "assetIds": []
    },
    {
      "x": 95,
      "y": 41,
      "size": 1,
      "price": "905000000000000000000",
      "reserved": "",
      "assetIds": []
    },
    {
      "x": 93,
      "y": 39,
      "size": 1,
      "price": "905000000000000000000",
      "reserved": "",
      "assetIds": []
    },
    {
      "x": 107,
      "y": 39,
      "size": 1,
      "price": "905000000000000000000",
      "reserved": "",
      "assetIds": []
    },
    {
      "x": 106,
      "y": 39,
      "size": 1,
      "price": "905000000000000000000",
      "reserved": "",
      "assetIds": []
    },
    {
      "x": 105,
      "y": 40,
      "size": 1,
      "price": "905000000000000000000",
      "reserved": "",
      "assetIds": []
    },
    {
      "x": 104,
      "y": 40,
      "size": 1,
      "price": "905000000000000000000",
      "reserved": "",
      "assetIds": []
    },
    {
      "x": 103,
      "y": 41,
      "size": 1,
      "price": "905000000000000000000",
      "reserved": "",
      "assetIds": []
    },
    {
      "x": 102,
      "y": 41,
      "size": 1,
      "price": "905000000000000000000",
      "reserved": "",
      "assetIds": []
    },
    {
      "x": 104,
      "y": 41,
      "size": 1,
      "price": "905000000000000000000",
      "reserved": "",
      "assetIds": []
    },
    {
      "x": 105,
      "y": 41,
      "size": 1,
      "price": "905000000000000000000",
      "reserved": "",
      "assetIds": []
    },
    {
      "x": 106,
      "y": 41,
      "size": 1,
      "price": "905000000000000000000",
      "reserved": "",
      "assetIds": []
    },
    {
      "x": 107,
      "y": 41,
      "size": 1,
      "price": "905000000000000000000",
      "reserved": "",
      "assetIds": []
    },
    {
      "x": 107,
      "y": 40,
      "size": 1,
      "price": "905000000000000000000",
      "reserved": "",
      "assetIds": []
    },
    {
      "x": 106,
      "y": 40,
      "size": 1,
      "price": "905000000000000000000",
      "reserved": "",
      "assetIds": []
    },
    {
      "x": 104,
      "y": 39,
      "size": 1,
      "price": "905000000000000000000",
      "reserved": "",
      "assetIds": []
    },
    {
      "x": 103,
      "y": 39,
      "size": 1,
      "price": "905000000000000000000",
      "reserved": "",
      "assetIds": []
    },
    {
      "x": 102,
      "y": 39,
      "size": 1,
      "price": "905000000000000000000",
      "reserved": "",
      "assetIds": []
    },
    {
      "x": 105,
      "y": 39,
      "size": 1,
      "price": "905000000000000000000",
      "reserved": "",
      "assetIds": []
    },
    {
      "x": 102,
      "y": 40,
      "size": 1,
      "price": "905000000000000000000",
      "reserved": "",
      "assetIds": []
    },
    {
      "x": 103,
      "y": 40,
      "size": 1,
      "price": "905000000000000000000",
      "reserved": "",
      "assetIds": []
    },
    {
      "x": 153,
      "y": 78,
      "size": 1,
      "price": "905000000000000000000",
      "reserved": "",
      "assetIds": []
    },
    {
      "x": 153,
      "y": 79,
      "size": 1,
      "price": "905000000000000000000",
      "reserved": "",
      "assetIds": []
    },
    {
      "x": 153,
      "y": 80,
      "size": 1,
      "price": "905000000000000000000",
      "reserved": "",
      "assetIds": []
    },
    {
      "x": 153,
      "y": 81,
      "size": 1,
      "price": "905000000000000000000",
      "reserved": "",
      "assetIds": []
    },
    {
      "x": 153,
      "y": 82,
      "size": 1,
      "price": "905000000000000000000",
      "reserved": "",
      "assetIds": []
    },
    {
      "x": 153,
      "y": 83,
      "size": 1,
      "price": "905000000000000000000",
      "reserved": "",
      "assetIds": []
    },
    {
      "x": 153,
      "y": 84,
      "size": 1,
      "price": "905000000000000000000",
      "reserved": "",
      "assetIds": []
    },
    {
      "x": 153,
      "y": 85,
      "size": 1,
      "price": "905000000000000000000",
      "reserved": "",
      "assetIds": []
    },
    {
      "x": 154,
      "y": 85,
      "size": 1,
      "price": "905000000000000000000",
      "reserved": "",
      "assetIds": []
    },
    {
      "x": 154,
      "y": 84,
      "size": 1,
      "price": "905000000000000000000",
      "reserved": "",
      "assetIds": []
    },
    {
      "x": 154,
      "y": 82,
      "size": 1,
      "price": "905000000000000000000",
      "reserved": "",
      "assetIds": []
    },
    {
      "x": 154,
      "y": 81,
      "size": 1,
      "price": "905000000000000000000",
      "reserved": "",
      "assetIds": []
    },
    {
      "x": 154,
      "y": 80,
      "size": 1,
      "price": "905000000000000000000",
      "reserved": "",
      "assetIds": []
    },
    {
      "x": 154,
      "y": 83,
      "size": 1,
      "price": "905000000000000000000",
      "reserved": "",
      "assetIds": []
    },
    {
      "x": 154,
      "y": 86,
      "size": 1,
      "price": "905000000000000000000",
      "reserved": "",
      "assetIds": []
    },
    {
      "x": 154,
      "y": 78,
      "size": 1,
      "price": "905000000000000000000",
      "reserved": "",
      "assetIds": []
    },
    {
      "x": 153,
      "y": 71,
      "size": 1,
      "price": "905000000000000000000",
      "reserved": "",
      "assetIds": []
    },
    {
      "x": 153,
      "y": 70,
      "size": 1,
      "price": "905000000000000000000",
      "reserved": "",
      "assetIds": []
    },
    {
      "x": 152,
      "y": 69,
      "size": 1,
      "price": "905000000000000000000",
      "reserved": "",
      "assetIds": []
    },
    {
      "x": 152,
      "y": 70,
      "size": 1,
      "price": "905000000000000000000",
      "reserved": "",
      "assetIds": []
    },
    {
      "x": 152,
      "y": 71,
      "size": 1,
      "price": "905000000000000000000",
      "reserved": "",
      "assetIds": []
    },
    {
      "x": 152,
      "y": 72,
      "size": 1,
      "price": "905000000000000000000",
      "reserved": "",
      "assetIds": []
    },
    {
      "x": 152,
      "y": 73,
      "size": 1,
      "price": "905000000000000000000",
      "reserved": "",
      "assetIds": []
    },
    {
      "x": 151,
      "y": 71,
      "size": 1,
      "price": "905000000000000000000",
      "reserved": "",
      "assetIds": []
    },
    {
      "x": 151,
      "y": 70,
      "size": 1,
      "price": "905000000000000000000",
      "reserved": "",
      "assetIds": []
    },
    {
      "x": 151,
      "y": 69,
      "size": 1,
      "price": "905000000000000000000",
      "reserved": "",
      "assetIds": []
    },
    {
      "x": 151,
      "y": 73,
      "size": 1,
      "price": "905000000000000000000",
      "reserved": "",
      "assetIds": []
    },
    {
      "x": 151,
      "y": 74,
      "size": 1,
      "price": "905000000000000000000",
      "reserved": "",
      "assetIds": []
    },
    {
      "x": 152,
      "y": 76,
      "size": 1,
      "price": "905000000000000000000",
      "reserved": "",
      "assetIds": []
    },
    {
      "x": 152,
      "y": 77,
      "size": 1,
      "price": "905000000000000000000",
      "reserved": "",
      "assetIds": []
    },
    {
      "x": 152,
      "y": 78,
      "size": 1,
      "price": "905000000000000000000",
      "reserved": "",
      "assetIds": []
    },
    {
      "x": 152,
      "y": 79,
      "size": 1,
      "price": "905000000000000000000",
      "reserved": "",
      "assetIds": []
    },
    {
      "x": 152,
      "y": 74,
      "size": 1,
      "price": "905000000000000000000",
      "reserved": "",
      "assetIds": []
    },
    {
      "x": 151,
      "y": 76,
      "size": 1,
      "price": "905000000000000000000",
      "reserved": "",
      "assetIds": []
    },
    {
      "x": 151,
      "y": 78,
      "size": 1,
      "price": "905000000000000000000",
      "reserved": "",
      "assetIds": []
    },
    {
      "x": 151,
      "y": 79,
      "size": 1,
      "price": "905000000000000000000",
      "reserved": "",
      "assetIds": []
    },
    {
      "x": 151,
      "y": 80,
      "size": 1,
      "price": "905000000000000000000",
      "reserved": "",
      "assetIds": []
    },
    {
      "x": 150,
      "y": 76,
      "size": 1,
      "price": "905000000000000000000",
      "reserved": "",
      "assetIds": []
    },
    {
      "x": 150,
      "y": 74,
      "size": 1,
      "price": "905000000000000000000",
      "reserved": "",
      "assetIds": []
    },
    {
      "x": 150,
      "y": 73,
      "size": 1,
      "price": "905000000000000000000",
      "reserved": "",
      "assetIds": []
    },
    {
      "x": 150,
      "y": 72,
      "size": 1,
      "price": "905000000000000000000",
      "reserved": "",
      "assetIds": []
    },
    {
      "x": 151,
      "y": 75,
      "size": 1,
      "price": "905000000000000000000",
      "reserved": "",
      "assetIds": []
    },
    {
      "x": 151,
      "y": 77,
      "size": 1,
      "price": "905000000000000000000",
      "reserved": "",
      "assetIds": []
    },
    {
      "x": 151,
      "y": 72,
      "size": 1,
      "price": "905000000000000000000",
      "reserved": "",
      "assetIds": []
    },
    {
      "x": 152,
      "y": 75,
      "size": 1,
      "price": "905000000000000000000",
      "reserved": "",
      "assetIds": []
    },
    {
      "x": 150,
      "y": 75,
      "size": 1,
      "price": "905000000000000000000",
      "reserved": "",
      "assetIds": []
    },
    {
      "x": 150,
      "y": 77,
      "size": 1,
      "price": "905000000000000000000",
      "reserved": "",
      "assetIds": []
    },
    {
      "x": 150,
      "y": 78,
      "size": 1,
      "price": "905000000000000000000",
      "reserved": "",
      "assetIds": []
    },
    {
      "x": 150,
      "y": 79,
      "size": 1,
      "price": "905000000000000000000",
      "reserved": "",
      "assetIds": []
    },
    {
      "x": 150,
      "y": 80,
      "size": 1,
      "price": "905000000000000000000",
      "reserved": "",
      "assetIds": []
    },
    {
      "x": 151,
      "y": 84,
      "size": 1,
      "price": "905000000000000000000",
      "reserved": "",
      "assetIds": []
    },
    {
      "x": 150,
      "y": 84,
      "size": 1,
      "price": "905000000000000000000",
      "reserved": "",
      "assetIds": []
    },
    {
      "x": 154,
      "y": 79,
      "size": 1,
      "price": "905000000000000000000",
      "reserved": "",
      "assetIds": []
    },
    {
      "x": 155,
      "y": 78,
      "size": 1,
      "price": "905000000000000000000",
      "reserved": "",
      "assetIds": []
    },
    {
      "x": 155,
      "y": 79,
      "size": 1,
      "price": "905000000000000000000",
      "reserved": "",
      "assetIds": []
    },
    {
      "x": 155,
      "y": 80,
      "size": 1,
      "price": "905000000000000000000",
      "reserved": "",
      "assetIds": []
    },
    {
      "x": 155,
      "y": 83,
      "size": 1,
      "price": "905000000000000000000",
      "reserved": "",
      "assetIds": []
    },
    {
      "x": 155,
      "y": 85,
      "size": 1,
      "price": "905000000000000000000",
      "reserved": "",
      "assetIds": []
    },
    {
      "x": 155,
      "y": 86,
      "size": 1,
      "price": "905000000000000000000",
      "reserved": "",
      "assetIds": []
    },
    {
      "x": 156,
      "y": 88,
      "size": 1,
      "price": "905000000000000000000",
      "reserved": "",
      "assetIds": []
    },
    {
      "x": 156,
      "y": 89,
      "size": 1,
      "price": "905000000000000000000",
      "reserved": "",
      "assetIds": []
    },
    {
      "x": 156,
      "y": 90,
      "size": 1,
      "price": "905000000000000000000",
      "reserved": "",
      "assetIds": []
    },
    {
      "x": 157,
      "y": 91,
      "size": 1,
      "price": "905000000000000000000",
      "reserved": "",
      "assetIds": []
    },
    {
      "x": 157,
      "y": 92,
      "size": 1,
      "price": "905000000000000000000",
      "reserved": "",
      "assetIds": []
    },
    {
      "x": 157,
      "y": 93,
      "size": 1,
      "price": "905000000000000000000",
      "reserved": "",
      "assetIds": []
    },
    {
      "x": 157,
      "y": 94,
      "size": 1,
      "price": "905000000000000000000",
      "reserved": "",
      "assetIds": []
    },
    {
      "x": 157,
      "y": 95,
      "size": 1,
      "price": "905000000000000000000",
      "reserved": "",
      "assetIds": []
    },
    {
      "x": 158,
      "y": 91,
      "size": 1,
      "price": "905000000000000000000",
      "reserved": "",
      "assetIds": []
    },
    {
      "x": 158,
      "y": 89,
      "size": 1,
      "price": "905000000000000000000",
      "reserved": "",
      "assetIds": []
    },
    {
      "x": 158,
      "y": 87,
      "size": 1,
      "price": "905000000000000000000",
      "reserved": "",
      "assetIds": []
    },
    {
      "x": 158,
      "y": 85,
      "size": 1,
      "price": "905000000000000000000",
      "reserved": "",
      "assetIds": []
    },
    {
      "x": 158,
      "y": 84,
      "size": 1,
      "price": "905000000000000000000",
      "reserved": "",
      "assetIds": []
    },
    {
      "x": 159,
      "y": 84,
      "size": 1,
      "price": "905000000000000000000",
      "reserved": "",
      "assetIds": []
    },
    {
      "x": 159,
      "y": 85,
      "size": 1,
      "price": "905000000000000000000",
      "reserved": "",
      "assetIds": []
    },
    {
      "x": 159,
      "y": 86,
      "size": 1,
      "price": "905000000000000000000",
      "reserved": "",
      "assetIds": []
    },
    {
      "x": 159,
      "y": 88,
      "size": 1,
      "price": "905000000000000000000",
      "reserved": "",
      "assetIds": []
    },
    {
      "x": 160,
      "y": 90,
      "size": 1,
      "price": "905000000000000000000",
      "reserved": "",
      "assetIds": []
    },
    {
      "x": 160,
      "y": 89,
      "size": 1,
      "price": "905000000000000000000",
      "reserved": "",
      "assetIds": []
    },
    {
      "x": 160,
      "y": 87,
      "size": 1,
      "price": "905000000000000000000",
      "reserved": "",
      "assetIds": []
    },
    {
      "x": 160,
      "y": 86,
      "size": 1,
      "price": "905000000000000000000",
      "reserved": "",
      "assetIds": []
    },
    {
      "x": 160,
      "y": 84,
      "size": 1,
      "price": "905000000000000000000",
      "reserved": "",
      "assetIds": []
    },
    {
      "x": 160,
      "y": 85,
      "size": 1,
      "price": "905000000000000000000",
      "reserved": "",
      "assetIds": []
    },
    {
      "x": 160,
      "y": 88,
      "size": 1,
      "price": "905000000000000000000",
      "reserved": "",
      "assetIds": []
    },
    {
      "x": 161,
      "y": 84,
      "size": 1,
      "price": "905000000000000000000",
      "reserved": "",
      "assetIds": []
    },
    {
      "x": 161,
      "y": 85,
      "size": 1,
      "price": "905000000000000000000",
      "reserved": "",
      "assetIds": []
    },
    {
      "x": 161,
      "y": 86,
      "size": 1,
      "price": "905000000000000000000",
      "reserved": "",
      "assetIds": []
    },
    {
      "x": 160,
      "y": 96,
      "size": 1,
      "price": "905000000000000000000",
      "reserved": "",
      "assetIds": []
    },
    {
      "x": 160,
      "y": 97,
      "size": 1,
      "price": "905000000000000000000",
      "reserved": "",
      "assetIds": []
    },
    {
      "x": 159,
      "y": 97,
      "size": 1,
      "price": "905000000000000000000",
      "reserved": "",
      "assetIds": []
    },
    {
      "x": 159,
      "y": 95,
      "size": 1,
      "price": "905000000000000000000",
      "reserved": "",
      "assetIds": []
    },
    {
      "x": 159,
      "y": 94,
      "size": 1,
      "price": "905000000000000000000",
      "reserved": "",
      "assetIds": []
    },
    {
      "x": 159,
      "y": 93,
      "size": 1,
      "price": "905000000000000000000",
      "reserved": "",
      "assetIds": []
    },
    {
      "x": 159,
      "y": 91,
      "size": 1,
      "price": "905000000000000000000",
      "reserved": "",
      "assetIds": []
    },
    {
      "x": 159,
      "y": 89,
      "size": 1,
      "price": "905000000000000000000",
      "reserved": "",
      "assetIds": []
    },
    {
      "x": 159,
      "y": 87,
      "size": 1,
      "price": "905000000000000000000",
      "reserved": "",
      "assetIds": []
    },
    {
      "x": 159,
      "y": 90,
      "size": 1,
      "price": "905000000000000000000",
      "reserved": "",
      "assetIds": []
    },
    {
      "x": 159,
      "y": 92,
      "size": 1,
      "price": "905000000000000000000",
      "reserved": "",
      "assetIds": []
    },
    {
      "x": 158,
      "y": 94,
      "size": 1,
      "price": "905000000000000000000",
      "reserved": "",
      "assetIds": []
    },
    {
      "x": 158,
      "y": 92,
      "size": 1,
      "price": "905000000000000000000",
      "reserved": "",
      "assetIds": []
    },
    {
      "x": 158,
      "y": 86,
      "size": 1,
      "price": "905000000000000000000",
      "reserved": "",
      "assetIds": []
    },
    {
      "x": 158,
      "y": 88,
      "size": 1,
      "price": "905000000000000000000",
      "reserved": "",
      "assetIds": []
    },
    {
      "x": 158,
      "y": 90,
      "size": 1,
      "price": "905000000000000000000",
      "reserved": "",
      "assetIds": []
    },
    {
      "x": 158,
      "y": 93,
      "size": 1,
      "price": "905000000000000000000",
      "reserved": "",
      "assetIds": []
    },
    {
      "x": 157,
      "y": 86,
      "size": 1,
      "price": "905000000000000000000",
      "reserved": "",
      "assetIds": []
    },
    {
      "x": 157,
      "y": 85,
      "size": 1,
      "price": "905000000000000000000",
      "reserved": "",
      "assetIds": []
    },
    {
      "x": 157,
      "y": 84,
      "size": 1,
      "price": "905000000000000000000",
      "reserved": "",
      "assetIds": []
    },
    {
      "x": 157,
      "y": 88,
      "size": 1,
      "price": "905000000000000000000",
      "reserved": "",
      "assetIds": []
    },
    {
      "x": 157,
      "y": 90,
      "size": 1,
      "price": "905000000000000000000",
      "reserved": "",
      "assetIds": []
    },
    {
      "x": 157,
      "y": 89,
      "size": 1,
      "price": "905000000000000000000",
      "reserved": "",
      "assetIds": []
    },
    {
      "x": 157,
      "y": 87,
      "size": 1,
      "price": "905000000000000000000",
      "reserved": "",
      "assetIds": []
    },
    {
      "x": 156,
      "y": 87,
      "size": 1,
      "price": "905000000000000000000",
      "reserved": "",
      "assetIds": []
    },
    {
      "x": 156,
      "y": 85,
      "size": 1,
      "price": "905000000000000000000",
      "reserved": "",
      "assetIds": []
    },
    {
      "x": 155,
      "y": 81,
      "size": 1,
      "price": "905000000000000000000",
      "reserved": "",
      "assetIds": []
    },
    {
      "x": 155,
      "y": 84,
      "size": 1,
      "price": "905000000000000000000",
      "reserved": "",
      "assetIds": []
    },
    {
      "x": 156,
      "y": 86,
      "size": 1,
      "price": "905000000000000000000",
      "reserved": "",
      "assetIds": []
    },
    {
      "x": 157,
      "y": 96,
      "size": 1,
      "price": "905000000000000000000",
      "reserved": "",
      "assetIds": []
    },
    {
      "x": 157,
      "y": 97,
      "size": 1,
      "price": "905000000000000000000",
      "reserved": "",
      "assetIds": []
    },
    {
      "x": 157,
      "y": 99,
      "size": 1,
      "price": "905000000000000000000",
      "reserved": "",
      "assetIds": []
    },
    {
      "x": 156,
      "y": 101,
      "size": 1,
      "price": "905000000000000000000",
      "reserved": "",
      "assetIds": []
    },
    {
      "x": 156,
      "y": 100,
      "size": 1,
      "price": "905000000000000000000",
      "reserved": "",
      "assetIds": []
    },
    {
      "x": 156,
      "y": 99,
      "size": 1,
      "price": "905000000000000000000",
      "reserved": "",
      "assetIds": []
    },
    {
      "x": 156,
      "y": 98,
      "size": 1,
      "price": "905000000000000000000",
      "reserved": "",
      "assetIds": []
    },
    {
      "x": 156,
      "y": 97,
      "size": 1,
      "price": "905000000000000000000",
      "reserved": "",
      "assetIds": []
    },
    {
      "x": 156,
      "y": 96,
      "size": 1,
      "price": "905000000000000000000",
      "reserved": "",
      "assetIds": []
    },
    {
      "x": 156,
      "y": 95,
      "size": 1,
      "price": "905000000000000000000",
      "reserved": "",
      "assetIds": []
    },
    {
      "x": 156,
      "y": 93,
      "size": 1,
      "price": "905000000000000000000",
      "reserved": "",
      "assetIds": []
    },
    {
      "x": 156,
      "y": 92,
      "size": 1,
      "price": "905000000000000000000",
      "reserved": "",
      "assetIds": []
    },
    {
      "x": 156,
      "y": 91,
      "size": 1,
      "price": "905000000000000000000",
      "reserved": "",
      "assetIds": []
    },
    {
      "x": 159,
      "y": 96,
      "size": 1,
      "price": "905000000000000000000",
      "reserved": "",
      "assetIds": []
    },
    {
      "x": 160,
      "y": 98,
      "size": 1,
      "price": "905000000000000000000",
      "reserved": "",
      "assetIds": []
    },
    {
      "x": 160,
      "y": 99,
      "size": 1,
      "price": "905000000000000000000",
      "reserved": "",
      "assetIds": []
    },
    {
      "x": 160,
      "y": 100,
      "size": 1,
      "price": "905000000000000000000",
      "reserved": "",
      "assetIds": []
    },
    {
      "x": 160,
      "y": 101,
      "size": 1,
      "price": "905000000000000000000",
      "reserved": "",
      "assetIds": []
    },
    {
      "x": 159,
      "y": 98,
      "size": 1,
      "price": "905000000000000000000",
      "reserved": "",
      "assetIds": []
    },
    {
      "x": 159,
      "y": 99,
      "size": 1,
      "price": "905000000000000000000",
      "reserved": "",
      "assetIds": []
    },
    {
      "x": 159,
      "y": 100,
      "size": 1,
      "price": "905000000000000000000",
      "reserved": "",
      "assetIds": []
    },
    {
      "x": 159,
      "y": 101,
      "size": 1,
      "price": "905000000000000000000",
      "reserved": "",
      "assetIds": []
    },
    {
      "x": 158,
      "y": 100,
      "size": 1,
      "price": "905000000000000000000",
      "reserved": "",
      "assetIds": []
    },
    {
      "x": 158,
      "y": 99,
      "size": 1,
      "price": "905000000000000000000",
      "reserved": "",
      "assetIds": []
    },
    {
      "x": 158,
      "y": 98,
      "size": 1,
      "price": "905000000000000000000",
      "reserved": "",
      "assetIds": []
    },
    {
      "x": 158,
      "y": 97,
      "size": 1,
      "price": "905000000000000000000",
      "reserved": "",
      "assetIds": []
    },
    {
      "x": 158,
      "y": 96,
      "size": 1,
      "price": "905000000000000000000",
      "reserved": "",
      "assetIds": []
    },
    {
      "x": 158,
      "y": 101,
      "size": 1,
      "price": "905000000000000000000",
      "reserved": "",
      "assetIds": []
    },
    {
      "x": 158,
      "y": 95,
      "size": 1,
      "price": "905000000000000000000",
      "reserved": "",
      "assetIds": []
    },
    {
      "x": 157,
      "y": 98,
      "size": 1,
      "price": "905000000000000000000",
      "reserved": "",
      "assetIds": []
    },
    {
      "x": 156,
      "y": 94,
      "size": 1,
      "price": "905000000000000000000",
      "reserved": "",
      "assetIds": []
    },
    {
      "x": 157,
      "y": 100,
      "size": 1,
      "price": "905000000000000000000",
      "reserved": "",
      "assetIds": []
    },
    {
      "x": 157,
      "y": 101,
      "size": 1,
      "price": "905000000000000000000",
      "reserved": "",
      "assetIds": []
    },
    {
      "x": 161,
      "y": 100,
      "size": 1,
      "price": "905000000000000000000",
      "reserved": "",
      "assetIds": []
    },
    {
      "x": 161,
      "y": 99,
      "size": 1,
      "price": "905000000000000000000",
      "reserved": "",
      "assetIds": []
    },
    {
      "x": 163,
      "y": 103,
      "size": 1,
      "price": "905000000000000000000",
      "reserved": "",
      "assetIds": []
    },
    {
      "x": 168,
      "y": 104,
      "size": 1,
      "price": "905000000000000000000",
      "reserved": "",
      "assetIds": []
    },
    {
      "x": 169,
      "y": 105,
      "size": 1,
      "price": "905000000000000000000",
      "reserved": "",
      "assetIds": []
    },
    {
      "x": 169,
      "y": 106,
      "size": 1,
      "price": "905000000000000000000",
      "reserved": "",
      "assetIds": []
    },
    {
      "x": 170,
      "y": 107,
      "size": 1,
      "price": "905000000000000000000",
      "reserved": "",
      "assetIds": []
    },
    {
      "x": 171,
      "y": 107,
      "size": 1,
      "price": "905000000000000000000",
      "reserved": "",
      "assetIds": []
    },
    {
      "x": 172,
      "y": 106,
      "size": 1,
      "price": "905000000000000000000",
      "reserved": "",
      "assetIds": []
    },
    {
      "x": 173,
      "y": 106,
      "size": 1,
      "price": "905000000000000000000",
      "reserved": "",
      "assetIds": []
    },
    {
      "x": 174,
      "y": 105,
      "size": 1,
      "price": "905000000000000000000",
      "reserved": "",
      "assetIds": []
    },
    {
      "x": 177,
      "y": 105,
      "size": 1,
      "price": "905000000000000000000",
      "reserved": "",
      "assetIds": []
    },
    {
      "x": 179,
      "y": 105,
      "size": 1,
      "price": "905000000000000000000",
      "reserved": "",
      "assetIds": []
    },
    {
      "x": 180,
      "y": 106,
      "size": 1,
      "price": "905000000000000000000",
      "reserved": "",
      "assetIds": []
    },
    {
      "x": 181,
      "y": 106,
      "size": 1,
      "price": "905000000000000000000",
      "reserved": "",
      "assetIds": []
    },
    {
      "x": 181,
      "y": 107,
      "size": 1,
      "price": "905000000000000000000",
      "reserved": "",
      "assetIds": []
    },
    {
      "x": 182,
      "y": 106,
      "size": 1,
      "price": "905000000000000000000",
      "reserved": "",
      "assetIds": []
    },
    {
      "x": 179,
      "y": 106,
      "size": 1,
      "price": "905000000000000000000",
      "reserved": "",
      "assetIds": []
    },
    {
      "x": 178,
      "y": 106,
      "size": 1,
      "price": "905000000000000000000",
      "reserved": "",
      "assetIds": []
    },
    {
      "x": 175,
      "y": 105,
      "size": 1,
      "price": "905000000000000000000",
      "reserved": "",
      "assetIds": []
    },
    {
      "x": 173,
      "y": 105,
      "size": 1,
      "price": "905000000000000000000",
      "reserved": "",
      "assetIds": []
    },
    {
      "x": 172,
      "y": 105,
      "size": 1,
      "price": "905000000000000000000",
      "reserved": "",
      "assetIds": []
    },
    {
      "x": 171,
      "y": 105,
      "size": 1,
      "price": "905000000000000000000",
      "reserved": "",
      "assetIds": []
    },
    {
      "x": 171,
      "y": 106,
      "size": 1,
      "price": "905000000000000000000",
      "reserved": "",
      "assetIds": []
    },
    {
      "x": 170,
      "y": 106,
      "size": 1,
      "price": "905000000000000000000",
      "reserved": "",
      "assetIds": []
    },
    {
      "x": 169,
      "y": 107,
      "size": 1,
      "price": "905000000000000000000",
      "reserved": "",
      "assetIds": []
    },
    {
      "x": 173,
      "y": 107,
      "size": 1,
      "price": "905000000000000000000",
      "reserved": "",
      "assetIds": []
    },
    {
      "x": 177,
      "y": 107,
      "size": 1,
      "price": "905000000000000000000",
      "reserved": "",
      "assetIds": []
    },
    {
      "x": 182,
      "y": 107,
      "size": 1,
      "price": "905000000000000000000",
      "reserved": "",
      "assetIds": []
    },
    {
      "x": 185,
      "y": 107,
      "size": 1,
      "price": "905000000000000000000",
      "reserved": "",
      "assetIds": []
    },
    {
      "x": 184,
      "y": 106,
      "size": 1,
      "price": "905000000000000000000",
      "reserved": "",
      "assetIds": []
    },
    {
      "x": 183,
      "y": 106,
      "size": 1,
      "price": "905000000000000000000",
      "reserved": "",
      "assetIds": []
    },
    {
      "x": 177,
      "y": 106,
      "size": 1,
      "price": "905000000000000000000",
      "reserved": "",
      "assetIds": []
    },
    {
      "x": 176,
      "y": 106,
      "size": 1,
      "price": "905000000000000000000",
      "reserved": "",
      "assetIds": []
    },
    {
      "x": 175,
      "y": 106,
      "size": 1,
      "price": "905000000000000000000",
      "reserved": "",
      "assetIds": []
    },
    {
      "x": 175,
      "y": 107,
      "size": 1,
      "price": "905000000000000000000",
      "reserved": "",
      "assetIds": []
    },
    {
      "x": 174,
      "y": 107,
      "size": 1,
      "price": "905000000000000000000",
      "reserved": "",
      "assetIds": []
    },
    {
      "x": 176,
      "y": 107,
      "size": 1,
      "price": "905000000000000000000",
      "reserved": "",
      "assetIds": []
    },
    {
      "x": 178,
      "y": 107,
      "size": 1,
      "price": "905000000000000000000",
      "reserved": "",
      "assetIds": []
    },
    {
      "x": 179,
      "y": 107,
      "size": 1,
      "price": "905000000000000000000",
      "reserved": "",
      "assetIds": []
    },
    {
      "x": 180,
      "y": 107,
      "size": 1,
      "price": "905000000000000000000",
      "reserved": "",
      "assetIds": []
    },
    {
      "x": 183,
      "y": 107,
      "size": 1,
      "price": "905000000000000000000",
      "reserved": "",
      "assetIds": []
    },
    {
      "x": 184,
      "y": 107,
      "size": 1,
      "price": "905000000000000000000",
      "reserved": "",
      "assetIds": []
    },
    {
      "x": 172,
      "y": 107,
      "size": 1,
      "price": "905000000000000000000",
      "reserved": "",
      "assetIds": []
    },
    {
      "x": 178,
      "y": 105,
      "size": 1,
      "price": "905000000000000000000",
      "reserved": "",
      "assetIds": []
    },
    {
      "x": 180,
      "y": 105,
      "size": 1,
      "price": "905000000000000000000",
      "reserved": "",
      "assetIds": []
    },
    {
      "x": 181,
      "y": 105,
      "size": 1,
      "price": "905000000000000000000",
      "reserved": "",
      "assetIds": []
    },
    {
      "x": 182,
      "y": 105,
      "size": 1,
      "price": "905000000000000000000",
      "reserved": "",
      "assetIds": []
    },
    {
      "x": 183,
      "y": 105,
      "size": 1,
      "price": "905000000000000000000",
      "reserved": "",
      "assetIds": []
    },
    {
      "x": 184,
      "y": 105,
      "size": 1,
      "price": "905000000000000000000",
      "reserved": "",
      "assetIds": []
    },
    {
      "x": 185,
      "y": 105,
      "size": 1,
      "price": "905000000000000000000",
      "reserved": "",
      "assetIds": []
    },
    {
      "x": 184,
      "y": 104,
      "size": 1,
      "price": "905000000000000000000",
      "reserved": "",
      "assetIds": []
    },
    {
      "x": 183,
      "y": 104,
      "size": 1,
      "price": "905000000000000000000",
      "reserved": "",
      "assetIds": []
    },
    {
      "x": 182,
      "y": 104,
      "size": 1,
      "price": "905000000000000000000",
      "reserved": "",
      "assetIds": []
    },
    {
      "x": 181,
      "y": 104,
      "size": 1,
      "price": "905000000000000000000",
      "reserved": "",
      "assetIds": []
    },
    {
      "x": 180,
      "y": 104,
      "size": 1,
      "price": "905000000000000000000",
      "reserved": "",
      "assetIds": []
    },
    {
      "x": 179,
      "y": 104,
      "size": 1,
      "price": "905000000000000000000",
      "reserved": "",
      "assetIds": []
    },
    {
      "x": 178,
      "y": 104,
      "size": 1,
      "price": "905000000000000000000",
      "reserved": "",
      "assetIds": []
    },
    {
      "x": 177,
      "y": 104,
      "size": 1,
      "price": "905000000000000000000",
      "reserved": "",
      "assetIds": []
    },
    {
      "x": 180,
      "y": 103,
      "size": 1,
      "price": "905000000000000000000",
      "reserved": "",
      "assetIds": []
    },
    {
      "x": 184,
      "y": 103,
      "size": 1,
      "price": "905000000000000000000",
      "reserved": "",
      "assetIds": []
    },
    {
      "x": 182,
      "y": 103,
      "size": 1,
      "price": "905000000000000000000",
      "reserved": "",
      "assetIds": []
    },
    {
      "x": 181,
      "y": 103,
      "size": 1,
      "price": "905000000000000000000",
      "reserved": "",
      "assetIds": []
    },
    {
      "x": 185,
      "y": 103,
      "size": 1,
      "price": "905000000000000000000",
      "reserved": "",
      "assetIds": []
    },
    {
      "x": 187,
      "y": 101,
      "size": 1,
      "price": "905000000000000000000",
      "reserved": "",
      "assetIds": []
    },
    {
      "x": 187,
      "y": 100,
      "size": 1,
      "price": "905000000000000000000",
      "reserved": "",
      "assetIds": []
    },
    {
      "x": 186,
      "y": 100,
      "size": 1,
      "price": "905000000000000000000",
      "reserved": "",
      "assetIds": []
    },
    {
      "x": 186,
      "y": 99,
      "size": 1,
      "price": "905000000000000000000",
      "reserved": "",
      "assetIds": []
    },
    {
      "x": 186,
      "y": 101,
      "size": 1,
      "price": "905000000000000000000",
      "reserved": "",
      "assetIds": []
    },
    {
      "x": 187,
      "y": 99,
      "size": 1,
      "price": "905000000000000000000",
      "reserved": "",
      "assetIds": []
    },
    {
      "x": 188,
      "y": 99,
      "size": 1,
      "price": "905000000000000000000",
      "reserved": "",
      "assetIds": []
    },
    {
      "x": 188,
      "y": 100,
      "size": 1,
      "price": "905000000000000000000",
      "reserved": "",
      "assetIds": []
    },
    {
      "x": 188,
      "y": 101,
      "size": 1,
      "price": "905000000000000000000",
      "reserved": "",
      "assetIds": []
    },
    {
      "x": 185,
      "y": 102,
      "size": 1,
      "price": "905000000000000000000",
      "reserved": "",
      "assetIds": []
    },
    {
      "x": 185,
      "y": 101,
      "size": 1,
      "price": "905000000000000000000",
      "reserved": "",
      "assetIds": []
    },
    {
      "x": 185,
      "y": 100,
      "size": 1,
      "price": "905000000000000000000",
      "reserved": "",
      "assetIds": []
    },
    {
      "x": 184,
      "y": 100,
      "size": 1,
      "price": "905000000000000000000",
      "reserved": "",
      "assetIds": []
    },
    {
      "x": 185,
      "y": 106,
      "size": 1,
      "price": "905000000000000000000",
      "reserved": "",
      "assetIds": []
    },
    {
      "x": 174,
      "y": 106,
      "size": 1,
      "price": "905000000000000000000",
      "reserved": "",
      "assetIds": []
    },
    {
      "x": 176,
      "y": 105,
      "size": 1,
      "price": "905000000000000000000",
      "reserved": "",
      "assetIds": []
    },
    {
      "x": 170,
      "y": 105,
      "size": 1,
      "price": "905000000000000000000",
      "reserved": "",
      "assetIds": []
    },
    {
      "x": 168,
      "y": 105,
      "size": 1,
      "price": "905000000000000000000",
      "reserved": "",
      "assetIds": []
    },
    {
      "x": 167,
      "y": 106,
      "size": 1,
      "price": "905000000000000000000",
      "reserved": "",
      "assetIds": []
    },
    {
      "x": 167,
      "y": 105,
      "size": 1,
      "price": "905000000000000000000",
      "reserved": "",
      "assetIds": []
    },
    {
      "x": 170,
      "y": 104,
      "size": 1,
      "price": "905000000000000000000",
      "reserved": "",
      "assetIds": []
    },
    {
      "x": 169,
      "y": 104,
      "size": 1,
      "price": "905000000000000000000",
      "reserved": "",
      "assetIds": []
    },
    {
      "x": 166,
      "y": 106,
      "size": 1,
      "price": "905000000000000000000",
      "reserved": "",
      "assetIds": []
    },
    {
      "x": 166,
      "y": 107,
      "size": 1,
      "price": "905000000000000000000",
      "reserved": "",
      "assetIds": []
    },
    {
      "x": 167,
      "y": 107,
      "size": 1,
      "price": "905000000000000000000",
      "reserved": "",
      "assetIds": []
    },
    {
      "x": 168,
      "y": 107,
      "size": 1,
      "price": "905000000000000000000",
      "reserved": "",
      "assetIds": []
    },
    {
      "x": 168,
      "y": 106,
      "size": 1,
      "price": "905000000000000000000",
      "reserved": "",
      "assetIds": []
    },
    {
      "x": 168,
      "y": 103,
      "size": 1,
      "price": "905000000000000000000",
      "reserved": "",
      "assetIds": []
    },
    {
      "x": 167,
      "y": 104,
      "size": 1,
      "price": "905000000000000000000",
      "reserved": "",
      "assetIds": []
    },
    {
      "x": 167,
      "y": 103,
      "size": 1,
      "price": "905000000000000000000",
      "reserved": "",
      "assetIds": []
    },
    {
      "x": 166,
      "y": 102,
      "size": 1,
      "price": "905000000000000000000",
      "reserved": "",
      "assetIds": []
    },
    {
      "x": 166,
      "y": 103,
      "size": 1,
      "price": "905000000000000000000",
      "reserved": "",
      "assetIds": []
    },
    {
      "x": 167,
      "y": 102,
      "size": 1,
      "price": "905000000000000000000",
      "reserved": "",
      "assetIds": []
    },
    {
      "x": 166,
      "y": 105,
      "size": 1,
      "price": "905000000000000000000",
      "reserved": "",
      "assetIds": []
    },
    {
      "x": 166,
      "y": 104,
      "size": 1,
      "price": "905000000000000000000",
      "reserved": "",
      "assetIds": []
    },
    {
      "x": 165,
      "y": 105,
      "size": 1,
      "price": "905000000000000000000",
      "reserved": "",
      "assetIds": []
    },
    {
      "x": 165,
      "y": 106,
      "size": 1,
      "price": "905000000000000000000",
      "reserved": "",
      "assetIds": []
    },
    {
      "x": 165,
      "y": 107,
      "size": 1,
      "price": "905000000000000000000",
      "reserved": "",
      "assetIds": []
    },
    {
      "x": 165,
      "y": 103,
      "size": 1,
      "price": "905000000000000000000",
      "reserved": "",
      "assetIds": []
    },
    {
      "x": 165,
      "y": 102,
      "size": 1,
      "price": "905000000000000000000",
      "reserved": "",
      "assetIds": []
    },
    {
      "x": 164,
      "y": 104,
      "size": 1,
      "price": "905000000000000000000",
      "reserved": "",
      "assetIds": []
    },
    {
      "x": 164,
      "y": 103,
      "size": 1,
      "price": "905000000000000000000",
      "reserved": "",
      "assetIds": []
    },
    {
      "x": 162,
      "y": 103,
      "size": 1,
      "price": "905000000000000000000",
      "reserved": "",
      "assetIds": []
    },
    {
      "x": 162,
      "y": 102,
      "size": 1,
      "price": "905000000000000000000",
      "reserved": "",
      "assetIds": []
    },
    {
      "x": 162,
      "y": 104,
      "size": 1,
      "price": "905000000000000000000",
      "reserved": "",
      "assetIds": []
    },
    {
      "x": 163,
      "y": 104,
      "size": 1,
      "price": "905000000000000000000",
      "reserved": "",
      "assetIds": []
    },
    {
      "x": 161,
      "y": 101,
      "size": 1,
      "price": "905000000000000000000",
      "reserved": "",
      "assetIds": []
    },
    {
      "x": 155,
      "y": 100,
      "size": 1,
      "price": "905000000000000000000",
      "reserved": "",
      "assetIds": []
    },
    {
      "x": 154,
      "y": 100,
      "size": 1,
      "price": "905000000000000000000",
      "reserved": "",
      "assetIds": []
    },
    {
      "x": 153,
      "y": 100,
      "size": 1,
      "price": "905000000000000000000",
      "reserved": "",
      "assetIds": []
    },
    {
      "x": 154,
      "y": 101,
      "size": 1,
      "price": "905000000000000000000",
      "reserved": "",
      "assetIds": []
    },
    {
      "x": 154,
      "y": 99,
      "size": 1,
      "price": "905000000000000000000",
      "reserved": "",
      "assetIds": []
    },
    {
      "x": 155,
      "y": 99,
      "size": 1,
      "price": "905000000000000000000",
      "reserved": "",
      "assetIds": []
    },
    {
      "x": 155,
      "y": 98,
      "size": 1,
      "price": "905000000000000000000",
      "reserved": "",
      "assetIds": []
    },
    {
      "x": 153,
      "y": 99,
      "size": 1,
      "price": "905000000000000000000",
      "reserved": "",
      "assetIds": []
    },
    {
      "x": 153,
      "y": 98,
      "size": 1,
      "price": "905000000000000000000",
      "reserved": "",
      "assetIds": []
    },
    {
      "x": 153,
      "y": 97,
      "size": 1,
      "price": "905000000000000000000",
      "reserved": "",
      "assetIds": []
    },
    {
      "x": 153,
      "y": 96,
      "size": 1,
      "price": "905000000000000000000",
      "reserved": "",
      "assetIds": []
    },
    {
      "x": 154,
      "y": 96,
      "size": 1,
      "price": "905000000000000000000",
      "reserved": "",
      "assetIds": []
    },
    {
      "x": 155,
      "y": 96,
      "size": 1,
      "price": "905000000000000000000",
      "reserved": "",
      "assetIds": []
    },
    {
      "x": 154,
      "y": 98,
      "size": 1,
      "price": "905000000000000000000",
      "reserved": "",
      "assetIds": []
    },
    {
      "x": 154,
      "y": 97,
      "size": 1,
      "price": "905000000000000000000",
      "reserved": "",
      "assetIds": []
    },
    {
      "x": 153,
      "y": 101,
      "size": 1,
      "price": "905000000000000000000",
      "reserved": "",
      "assetIds": []
    },
    {
      "x": 152,
      "y": 102,
      "size": 1,
      "price": "905000000000000000000",
      "reserved": "",
      "assetIds": []
    },
    {
      "x": 151,
      "y": 102,
      "size": 1,
      "price": "905000000000000000000",
      "reserved": "",
      "assetIds": []
    },
    {
      "x": 150,
      "y": 102,
      "size": 1,
      "price": "905000000000000000000",
      "reserved": "",
      "assetIds": []
    },
    {
      "x": 149,
      "y": 101,
      "size": 1,
      "price": "905000000000000000000",
      "reserved": "",
      "assetIds": []
    },
    {
      "x": 149,
      "y": 100,
      "size": 1,
      "price": "905000000000000000000",
      "reserved": "",
      "assetIds": []
    },
    {
      "x": 148,
      "y": 100,
      "size": 1,
      "price": "905000000000000000000",
      "reserved": "",
      "assetIds": []
    },
    {
      "x": 148,
      "y": 99,
      "size": 1,
      "price": "905000000000000000000",
      "reserved": "",
      "assetIds": []
    },
    {
      "x": 147,
      "y": 99,
      "size": 1,
      "price": "905000000000000000000",
      "reserved": "",
      "assetIds": []
    },
    {
      "x": 147,
      "y": 98,
      "size": 1,
      "price": "905000000000000000000",
      "reserved": "",
      "assetIds": []
    },
    {
      "x": 147,
      "y": 97,
      "size": 1,
      "price": "905000000000000000000",
      "reserved": "",
      "assetIds": []
    },
    {
      "x": 147,
      "y": 96,
      "size": 1,
      "price": "905000000000000000000",
      "reserved": "",
      "assetIds": []
    },
    {
      "x": 147,
      "y": 95,
      "size": 1,
      "price": "905000000000000000000",
      "reserved": "",
      "assetIds": []
    },
    {
      "x": 147,
      "y": 94,
      "size": 1,
      "price": "905000000000000000000",
      "reserved": "",
      "assetIds": []
    },
    {
      "x": 146,
      "y": 94,
      "size": 1,
      "price": "905000000000000000000",
      "reserved": "",
      "assetIds": []
    },
    {
      "x": 146,
      "y": 99,
      "size": 1,
      "price": "905000000000000000000",
      "reserved": "",
      "assetIds": []
    },
    {
      "x": 146,
      "y": 98,
      "size": 1,
      "price": "905000000000000000000",
      "reserved": "",
      "assetIds": []
    },
    {
      "x": 146,
      "y": 100,
      "size": 1,
      "price": "905000000000000000000",
      "reserved": "",
      "assetIds": []
    },
    {
      "x": 147,
      "y": 100,
      "size": 1,
      "price": "905000000000000000000",
      "reserved": "",
      "assetIds": []
    },
    {
      "x": 148,
      "y": 101,
      "size": 1,
      "price": "905000000000000000000",
      "reserved": "",
      "assetIds": []
    },
    {
      "x": 150,
      "y": 104,
      "size": 1,
      "price": "905000000000000000000",
      "reserved": "",
      "assetIds": []
    },
    {
      "x": 151,
      "y": 105,
      "size": 1,
      "price": "905000000000000000000",
      "reserved": "",
      "assetIds": []
    },
    {
      "x": 151,
      "y": 106,
      "size": 1,
      "price": "905000000000000000000",
      "reserved": "",
      "assetIds": []
    },
    {
      "x": 151,
      "y": 104,
      "size": 1,
      "price": "905000000000000000000",
      "reserved": "",
      "assetIds": []
    },
    {
      "x": 150,
      "y": 103,
      "size": 1,
      "price": "905000000000000000000",
      "reserved": "",
      "assetIds": []
    },
    {
      "x": 150,
      "y": 98,
      "size": 1,
      "price": "905000000000000000000",
      "reserved": "",
      "assetIds": []
    },
    {
      "x": 149,
      "y": 97,
      "size": 1,
      "price": "905000000000000000000",
      "reserved": "",
      "assetIds": []
    },
    {
      "x": 149,
      "y": 96,
      "size": 1,
      "price": "905000000000000000000",
      "reserved": "",
      "assetIds": []
    },
    {
      "x": 149,
      "y": 95,
      "size": 1,
      "price": "905000000000000000000",
      "reserved": "",
      "assetIds": []
    },
    {
      "x": 149,
      "y": 94,
      "size": 1,
      "price": "905000000000000000000",
      "reserved": "",
      "assetIds": []
    },
    {
      "x": 149,
      "y": 93,
      "size": 1,
      "price": "905000000000000000000",
      "reserved": "",
      "assetIds": []
    },
    {
      "x": 149,
      "y": 92,
      "size": 1,
      "price": "905000000000000000000",
      "reserved": "",
      "assetIds": []
    },
    {
      "x": 149,
      "y": 91,
      "size": 1,
      "price": "905000000000000000000",
      "reserved": "",
      "assetIds": []
    },
    {
      "x": 149,
      "y": 90,
      "size": 1,
      "price": "905000000000000000000",
      "reserved": "",
      "assetIds": []
    },
    {
      "x": 148,
      "y": 91,
      "size": 1,
      "price": "905000000000000000000",
      "reserved": "",
      "assetIds": []
    },
    {
      "x": 148,
      "y": 92,
      "size": 1,
      "price": "905000000000000000000",
      "reserved": "",
      "assetIds": []
    },
    {
      "x": 148,
      "y": 93,
      "size": 1,
      "price": "905000000000000000000",
      "reserved": "",
      "assetIds": []
    },
    {
      "x": 148,
      "y": 94,
      "size": 1,
      "price": "905000000000000000000",
      "reserved": "",
      "assetIds": []
    },
    {
      "x": 148,
      "y": 95,
      "size": 1,
      "price": "905000000000000000000",
      "reserved": "",
      "assetIds": []
    },
    {
      "x": 147,
      "y": 92,
      "size": 1,
      "price": "905000000000000000000",
      "reserved": "",
      "assetIds": []
    },
    {
      "x": 147,
      "y": 91,
      "size": 1,
      "price": "905000000000000000000",
      "reserved": "",
      "assetIds": []
    },
    {
      "x": 147,
      "y": 90,
      "size": 1,
      "price": "905000000000000000000",
      "reserved": "",
      "assetIds": []
    },
    {
      "x": 148,
      "y": 90,
      "size": 1,
      "price": "905000000000000000000",
      "reserved": "",
      "assetIds": []
    },
    {
      "x": 147,
      "y": 93,
      "size": 1,
      "price": "905000000000000000000",
      "reserved": "",
      "assetIds": []
    },
    {
      "x": 148,
      "y": 96,
      "size": 1,
      "price": "905000000000000000000",
      "reserved": "",
      "assetIds": []
    },
    {
      "x": 146,
      "y": 93,
      "size": 1,
      "price": "905000000000000000000",
      "reserved": "",
      "assetIds": []
    },
    {
      "x": 146,
      "y": 95,
      "size": 1,
      "price": "905000000000000000000",
      "reserved": "",
      "assetIds": []
    },
    {
      "x": 145,
      "y": 95,
      "size": 1,
      "price": "905000000000000000000",
      "reserved": "",
      "assetIds": []
    },
    {
      "x": 145,
      "y": 94,
      "size": 1,
      "price": "905000000000000000000",
      "reserved": "",
      "assetIds": []
    },
    {
      "x": 145,
      "y": 93,
      "size": 1,
      "price": "905000000000000000000",
      "reserved": "",
      "assetIds": []
    },
    {
      "x": 145,
      "y": 92,
      "size": 1,
      "price": "905000000000000000000",
      "reserved": "",
      "assetIds": []
    },
    {
      "x": 144,
      "y": 92,
      "size": 1,
      "price": "905000000000000000000",
      "reserved": "",
      "assetIds": []
    },
    {
      "x": 144,
      "y": 91,
      "size": 1,
      "price": "905000000000000000000",
      "reserved": "",
      "assetIds": []
    },
    {
      "x": 144,
      "y": 90,
      "size": 1,
      "price": "905000000000000000000",
      "reserved": "",
      "assetIds": []
    },
    {
      "x": 144,
      "y": 93,
      "size": 1,
      "price": "905000000000000000000",
      "reserved": "",
      "assetIds": []
    },
    {
      "x": 144,
      "y": 94,
      "size": 1,
      "price": "905000000000000000000",
      "reserved": "",
      "assetIds": []
    },
    {
      "x": 144,
      "y": 95,
      "size": 1,
      "price": "905000000000000000000",
      "reserved": "",
      "assetIds": []
    },
    {
      "x": 144,
      "y": 96,
      "size": 1,
      "price": "905000000000000000000",
      "reserved": "",
      "assetIds": []
    },
    {
      "x": 144,
      "y": 97,
      "size": 1,
      "price": "905000000000000000000",
      "reserved": "",
      "assetIds": []
    },
    {
      "x": 145,
      "y": 97,
      "size": 1,
      "price": "905000000000000000000",
      "reserved": "",
      "assetIds": []
    },
    {
      "x": 145,
      "y": 96,
      "size": 1,
      "price": "905000000000000000000",
      "reserved": "",
      "assetIds": []
    },
    {
      "x": 146,
      "y": 92,
      "size": 1,
      "price": "905000000000000000000",
      "reserved": "",
      "assetIds": []
    },
    {
      "x": 146,
      "y": 91,
      "size": 1,
      "price": "905000000000000000000",
      "reserved": "",
      "assetIds": []
    },
    {
      "x": 146,
      "y": 90,
      "size": 1,
      "price": "905000000000000000000",
      "reserved": "",
      "assetIds": []
    },
    {
      "x": 145,
      "y": 91,
      "size": 1,
      "price": "905000000000000000000",
      "reserved": "",
      "assetIds": []
    },
    {
      "x": 145,
      "y": 90,
      "size": 1,
      "price": "905000000000000000000",
      "reserved": "",
      "assetIds": []
    },
    {
      "x": 146,
      "y": 96,
      "size": 1,
      "price": "905000000000000000000",
      "reserved": "",
      "assetIds": []
    },
    {
      "x": 146,
      "y": 97,
      "size": 1,
      "price": "905000000000000000000",
      "reserved": "",
      "assetIds": []
    },
    {
      "x": 149,
      "y": 99,
      "size": 1,
      "price": "905000000000000000000",
      "reserved": "",
      "assetIds": []
    },
    {
      "x": 149,
      "y": 98,
      "size": 1,
      "price": "905000000000000000000",
      "reserved": "",
      "assetIds": []
    },
    {
      "x": 150,
      "y": 97,
      "size": 1,
      "price": "905000000000000000000",
      "reserved": "",
      "assetIds": []
    },
    {
      "x": 150,
      "y": 96,
      "size": 1,
      "price": "905000000000000000000",
      "reserved": "",
      "assetIds": []
    },
    {
      "x": 148,
      "y": 98,
      "size": 1,
      "price": "905000000000000000000",
      "reserved": "",
      "assetIds": []
    },
    {
      "x": 148,
      "y": 97,
      "size": 1,
      "price": "905000000000000000000",
      "reserved": "",
      "assetIds": []
    },
    {
      "x": 145,
      "y": 100,
      "size": 1,
      "price": "905000000000000000000",
      "reserved": "",
      "assetIds": []
    },
    {
      "x": 147,
      "y": 101,
      "size": 1,
      "price": "905000000000000000000",
      "reserved": "",
      "assetIds": []
    },
    {
      "x": 145,
      "y": 99,
      "size": 1,
      "price": "905000000000000000000",
      "reserved": "",
      "assetIds": []
    },
    {
      "x": 144,
      "y": 99,
      "size": 1,
      "price": "905000000000000000000",
      "reserved": "",
      "assetIds": []
    },
    {
      "x": 143,
      "y": 99,
      "size": 1,
      "price": "905000000000000000000",
      "reserved": "",
      "assetIds": []
    },
    {
      "x": 143,
      "y": 98,
      "size": 1,
      "price": "905000000000000000000",
      "reserved": "",
      "assetIds": []
    },
    {
      "x": 142,
      "y": 98,
      "size": 1,
      "price": "905000000000000000000",
      "reserved": "",
      "assetIds": []
    },
    {
      "x": 141,
      "y": 98,
      "size": 1,
      "price": "905000000000000000000",
      "reserved": "",
      "assetIds": []
    },
    {
      "x": 141,
      "y": 97,
      "size": 1,
      "price": "905000000000000000000",
      "reserved": "",
      "assetIds": []
    },
    {
      "x": 140,
      "y": 97,
      "size": 1,
      "price": "905000000000000000000",
      "reserved": "",
      "assetIds": []
    },
    {
      "x": 139,
      "y": 97,
      "size": 1,
      "price": "905000000000000000000",
      "reserved": "",
      "assetIds": []
    },
    {
      "x": 138,
      "y": 97,
      "size": 1,
      "price": "905000000000000000000",
      "reserved": "",
      "assetIds": []
    },
    {
      "x": 134,
      "y": 97,
      "size": 1,
      "price": "905000000000000000000",
      "reserved": "",
      "assetIds": []
    },
    {
      "x": 141,
      "y": 96,
      "size": 1,
      "price": "905000000000000000000",
      "reserved": "",
      "assetIds": []
    },
    {
      "x": 143,
      "y": 96,
      "size": 1,
      "price": "905000000000000000000",
      "reserved": "",
      "assetIds": []
    },
    {
      "x": 142,
      "y": 96,
      "size": 1,
      "price": "905000000000000000000",
      "reserved": "",
      "assetIds": []
    },
    {
      "x": 140,
      "y": 96,
      "size": 1,
      "price": "905000000000000000000",
      "reserved": "",
      "assetIds": []
    },
    {
      "x": 139,
      "y": 96,
      "size": 1,
      "price": "905000000000000000000",
      "reserved": "",
      "assetIds": []
    },
    {
      "x": 138,
      "y": 96,
      "size": 1,
      "price": "905000000000000000000",
      "reserved": "",
      "assetIds": []
    },
    {
      "x": 142,
      "y": 97,
      "size": 1,
      "price": "905000000000000000000",
      "reserved": "",
      "assetIds": []
    },
    {
      "x": 143,
      "y": 97,
      "size": 1,
      "price": "905000000000000000000",
      "reserved": "",
      "assetIds": []
    },
    {
      "x": 145,
      "y": 98,
      "size": 1,
      "price": "905000000000000000000",
      "reserved": "",
      "assetIds": []
    },
    {
      "x": 144,
      "y": 98,
      "size": 1,
      "price": "905000000000000000000",
      "reserved": "",
      "assetIds": []
    },
    {
      "x": 151,
      "y": 98,
      "size": 1,
      "price": "905000000000000000000",
      "reserved": "",
      "assetIds": []
    },
    {
      "x": 152,
      "y": 98,
      "size": 1,
      "price": "905000000000000000000",
      "reserved": "",
      "assetIds": []
    },
    {
      "x": 151,
      "y": 97,
      "size": 1,
      "price": "905000000000000000000",
      "reserved": "",
      "assetIds": []
    },
    {
      "x": 151,
      "y": 96,
      "size": 1,
      "price": "905000000000000000000",
      "reserved": "",
      "assetIds": []
    },
    {
      "x": 152,
      "y": 96,
      "size": 1,
      "price": "905000000000000000000",
      "reserved": "",
      "assetIds": []
    },
    {
      "x": 152,
      "y": 97,
      "size": 1,
      "price": "905000000000000000000",
      "reserved": "",
      "assetIds": []
    },
    {
      "x": 144,
      "y": 100,
      "size": 1,
      "price": "905000000000000000000",
      "reserved": "",
      "assetIds": []
    },
    {
      "x": 137,
      "y": 99,
      "size": 1,
      "price": "905000000000000000000",
      "reserved": "",
      "assetIds": []
    },
    {
      "x": 138,
      "y": 99,
      "size": 1,
      "price": "905000000000000000000",
      "reserved": "",
      "assetIds": []
    },
    {
      "x": 139,
      "y": 99,
      "size": 1,
      "price": "905000000000000000000",
      "reserved": "",
      "assetIds": []
    },
    {
      "x": 140,
      "y": 99,
      "size": 1,
      "price": "905000000000000000000",
      "reserved": "",
      "assetIds": []
    },
    {
      "x": 141,
      "y": 99,
      "size": 1,
      "price": "905000000000000000000",
      "reserved": "",
      "assetIds": []
    },
    {
      "x": 142,
      "y": 99,
      "size": 1,
      "price": "905000000000000000000",
      "reserved": "",
      "assetIds": []
    },
    {
      "x": 140,
      "y": 98,
      "size": 1,
      "price": "905000000000000000000",
      "reserved": "",
      "assetIds": []
    },
    {
      "x": 139,
      "y": 98,
      "size": 1,
      "price": "905000000000000000000",
      "reserved": "",
      "assetIds": []
    },
    {
      "x": 138,
      "y": 98,
      "size": 1,
      "price": "905000000000000000000",
      "reserved": "",
      "assetIds": []
    },
    {
      "x": 133,
      "y": 98,
      "size": 1,
      "price": "905000000000000000000",
      "reserved": "",
      "assetIds": []
    },
    {
      "x": 132,
      "y": 98,
      "size": 1,
      "price": "905000000000000000000",
      "reserved": "",
      "assetIds": []
    },
    {
      "x": 131,
      "y": 98,
      "size": 1,
      "price": "905000000000000000000",
      "reserved": "",
      "assetIds": []
    },
    {
      "x": 130,
      "y": 97,
      "size": 1,
      "price": "905000000000000000000",
      "reserved": "",
      "assetIds": []
    },
    {
      "x": 129,
      "y": 97,
      "size": 1,
      "price": "905000000000000000000",
      "reserved": "",
      "assetIds": []
    },
    {
      "x": 131,
      "y": 97,
      "size": 1,
      "price": "905000000000000000000",
      "reserved": "",
      "assetIds": []
    },
    {
      "x": 132,
      "y": 97,
      "size": 1,
      "price": "905000000000000000000",
      "reserved": "",
      "assetIds": []
    },
    {
      "x": 133,
      "y": 97,
      "size": 1,
      "price": "905000000000000000000",
      "reserved": "",
      "assetIds": []
    },
    {
      "x": 134,
      "y": 96,
      "size": 1,
      "price": "905000000000000000000",
      "reserved": "",
      "assetIds": []
    },
    {
      "x": 133,
      "y": 96,
      "size": 1,
      "price": "905000000000000000000",
      "reserved": "",
      "assetIds": []
    },
    {
      "x": 132,
      "y": 96,
      "size": 1,
      "price": "905000000000000000000",
      "reserved": "",
      "assetIds": []
    },
    {
      "x": 131,
      "y": 96,
      "size": 1,
      "price": "905000000000000000000",
      "reserved": "",
      "assetIds": []
    },
    {
      "x": 130,
      "y": 96,
      "size": 1,
      "price": "905000000000000000000",
      "reserved": "",
      "assetIds": []
    },
    {
      "x": 129,
      "y": 96,
      "size": 1,
      "price": "905000000000000000000",
      "reserved": "",
      "assetIds": []
    },
    {
      "x": 128,
      "y": 96,
      "size": 1,
      "price": "905000000000000000000",
      "reserved": "",
      "assetIds": []
    },
    {
      "x": 128,
      "y": 97,
      "size": 1,
      "price": "905000000000000000000",
      "reserved": "",
      "assetIds": []
    },
    {
      "x": 127,
      "y": 97,
      "size": 1,
      "price": "905000000000000000000",
      "reserved": "",
      "assetIds": []
    },
    {
      "x": 126,
      "y": 97,
      "size": 1,
      "price": "905000000000000000000",
      "reserved": "",
      "assetIds": []
    },
    {
      "x": 126,
      "y": 98,
      "size": 1,
      "price": "905000000000000000000",
      "reserved": "",
      "assetIds": []
    },
    {
      "x": 126,
      "y": 99,
      "size": 1,
      "price": "905000000000000000000",
      "reserved": "",
      "assetIds": []
    },
    {
      "x": 127,
      "y": 99,
      "size": 1,
      "price": "905000000000000000000",
      "reserved": "",
      "assetIds": []
    },
    {
      "x": 127,
      "y": 98,
      "size": 1,
      "price": "905000000000000000000",
      "reserved": "",
      "assetIds": []
    },
    {
      "x": 128,
      "y": 98,
      "size": 1,
      "price": "905000000000000000000",
      "reserved": "",
      "assetIds": []
    },
    {
      "x": 129,
      "y": 98,
      "size": 1,
      "price": "905000000000000000000",
      "reserved": "",
      "assetIds": []
    },
    {
      "x": 134,
      "y": 98,
      "size": 1,
      "price": "905000000000000000000",
      "reserved": "",
      "assetIds": []
    },
    {
      "x": 134,
      "y": 99,
      "size": 1,
      "price": "905000000000000000000",
      "reserved": "",
      "assetIds": []
    },
    {
      "x": 133,
      "y": 99,
      "size": 1,
      "price": "905000000000000000000",
      "reserved": "",
      "assetIds": []
    },
    {
      "x": 132,
      "y": 99,
      "size": 1,
      "price": "905000000000000000000",
      "reserved": "",
      "assetIds": []
    },
    {
      "x": 131,
      "y": 99,
      "size": 1,
      "price": "905000000000000000000",
      "reserved": "",
      "assetIds": []
    },
    {
      "x": 130,
      "y": 99,
      "size": 1,
      "price": "905000000000000000000",
      "reserved": "",
      "assetIds": []
    },
    {
      "x": 129,
      "y": 99,
      "size": 1,
      "price": "905000000000000000000",
      "reserved": "",
      "assetIds": []
    },
    {
      "x": 128,
      "y": 99,
      "size": 1,
      "price": "905000000000000000000",
      "reserved": "",
      "assetIds": []
    },
    {
      "x": 126,
      "y": 100,
      "size": 1,
      "price": "905000000000000000000",
      "reserved": "",
      "assetIds": []
    },
    {
      "x": 127,
      "y": 100,
      "size": 1,
      "price": "905000000000000000000",
      "reserved": "",
      "assetIds": []
    },
    {
      "x": 130,
      "y": 100,
      "size": 1,
      "price": "905000000000000000000",
      "reserved": "",
      "assetIds": []
    },
    {
      "x": 135,
      "y": 99,
      "size": 1,
      "price": "905000000000000000000",
      "reserved": "",
      "assetIds": []
    },
    {
      "x": 136,
      "y": 99,
      "size": 1,
      "price": "905000000000000000000",
      "reserved": "",
      "assetIds": []
    },
    {
      "x": 130,
      "y": 98,
      "size": 1,
      "price": "905000000000000000000",
      "reserved": "",
      "assetIds": []
    },
    {
      "x": 129,
      "y": 100,
      "size": 1,
      "price": "905000000000000000000",
      "reserved": "",
      "assetIds": []
    },
    {
      "x": 128,
      "y": 100,
      "size": 1,
      "price": "905000000000000000000",
      "reserved": "",
      "assetIds": []
    },
    {
      "x": 140,
      "y": 88,
      "size": 1,
      "price": "905000000000000000000",
      "reserved": "",
      "assetIds": []
    },
    {
      "x": 139,
      "y": 87,
      "size": 1,
      "price": "905000000000000000000",
      "reserved": "",
      "assetIds": []
    },
    {
      "x": 139,
      "y": 88,
      "size": 1,
      "price": "905000000000000000000",
      "reserved": "",
      "assetIds": []
    },
    {
      "x": 139,
      "y": 89,
      "size": 1,
      "price": "905000000000000000000",
      "reserved": "",
      "assetIds": []
    },
    {
      "x": 140,
      "y": 89,
      "size": 1,
      "price": "905000000000000000000",
      "reserved": "",
      "assetIds": []
    },
    {
      "x": 140,
      "y": 87,
      "size": 1,
      "price": "905000000000000000000",
      "reserved": "",
      "assetIds": []
    },
    {
      "x": 138,
      "y": 88,
      "size": 1,
      "price": "905000000000000000000",
      "reserved": "",
      "assetIds": []
    },
    {
      "x": 138,
      "y": 89,
      "size": 1,
      "price": "905000000000000000000",
      "reserved": "",
      "assetIds": []
    },
    {
      "x": 138,
      "y": 87,
      "size": 1,
      "price": "905000000000000000000",
      "reserved": "",
      "assetIds": []
    },
    {
      "x": 149,
      "y": 82,
      "size": 1,
      "price": "905000000000000000000",
      "reserved": "",
      "assetIds": []
    },
    {
      "x": 148,
      "y": 82,
      "size": 1,
      "price": "905000000000000000000",
      "reserved": "",
      "assetIds": []
    },
    {
      "x": 147,
      "y": 82,
      "size": 1,
      "price": "905000000000000000000",
      "reserved": "",
      "assetIds": []
    },
    {
      "x": 149,
      "y": 81,
      "size": 1,
      "price": "905000000000000000000",
      "reserved": "",
      "assetIds": []
    },
    {
      "x": 147,
      "y": 83,
      "size": 1,
      "price": "905000000000000000000",
      "reserved": "",
      "assetIds": []
    },
    {
      "x": 148,
      "y": 81,
      "size": 1,
      "price": "905000000000000000000",
      "reserved": "",
      "assetIds": []
    },
    {
      "x": 152,
      "y": 80,
      "size": 1,
      "price": "905000000000000000000",
      "reserved": "",
      "assetIds": []
    },
    {
      "x": 151,
      "y": 85,
      "size": 1,
      "price": "905000000000000000000",
      "reserved": "",
      "assetIds": []
    },
    {
      "x": 151,
      "y": 86,
      "size": 1,
      "price": "905000000000000000000",
      "reserved": "",
      "assetIds": []
    },
    {
      "x": 151,
      "y": 87,
      "size": 1,
      "price": "905000000000000000000",
      "reserved": "",
      "assetIds": []
    },
    {
      "x": 152,
      "y": 85,
      "size": 1,
      "price": "905000000000000000000",
      "reserved": "",
      "assetIds": []
    },
    {
      "x": 152,
      "y": 84,
      "size": 1,
      "price": "905000000000000000000",
      "reserved": "",
      "assetIds": []
    },
    {
      "x": 153,
      "y": 86,
      "size": 1,
      "price": "905000000000000000000",
      "reserved": "",
      "assetIds": []
    },
    {
      "x": 152,
      "y": 86,
      "size": 1,
      "price": "905000000000000000000",
      "reserved": "",
      "assetIds": []
    },
    {
      "x": 151,
      "y": 88,
      "size": 1,
      "price": "905000000000000000000",
      "reserved": "",
      "assetIds": []
    },
    {
      "x": 151,
      "y": 89,
      "size": 1,
      "price": "905000000000000000000",
      "reserved": "",
      "assetIds": []
    },
    {
      "x": 152,
      "y": 89,
      "size": 1,
      "price": "905000000000000000000",
      "reserved": "",
      "assetIds": []
    },
    {
      "x": 152,
      "y": 88,
      "size": 1,
      "price": "905000000000000000000",
      "reserved": "",
      "assetIds": []
    },
    {
      "x": 152,
      "y": 87,
      "size": 1,
      "price": "905000000000000000000",
      "reserved": "",
      "assetIds": []
    },
    {
      "x": 150,
      "y": 87,
      "size": 1,
      "price": "905000000000000000000",
      "reserved": "",
      "assetIds": []
    },
    {
      "x": 150,
      "y": 88,
      "size": 1,
      "price": "905000000000000000000",
      "reserved": "",
      "assetIds": []
    },
    {
      "x": 150,
      "y": 89,
      "size": 1,
      "price": "905000000000000000000",
      "reserved": "",
      "assetIds": []
    },
    {
      "x": 150,
      "y": 86,
      "size": 1,
      "price": "905000000000000000000",
      "reserved": "",
      "assetIds": []
    },
    {
      "x": 150,
      "y": 85,
      "size": 1,
      "price": "905000000000000000000",
      "reserved": "",
      "assetIds": []
    },
    {
      "x": 149,
      "y": 83,
      "size": 1,
      "price": "905000000000000000000",
      "reserved": "",
      "assetIds": []
    },
    {
      "x": 148,
      "y": 83,
      "size": 1,
      "price": "905000000000000000000",
      "reserved": "",
      "assetIds": []
    },
    {
      "x": 147,
      "y": 81,
      "size": 1,
      "price": "905000000000000000000",
      "reserved": "",
      "assetIds": []
    },
    {
      "x": 149,
      "y": 77,
      "size": 1,
      "price": "905000000000000000000",
      "reserved": "",
      "assetIds": []
    },
    {
      "x": 156,
      "y": 84,
      "size": 1,
      "price": "905000000000000000000",
      "reserved": "",
      "assetIds": []
    },
    {
      "x": 157,
      "y": 77,
      "size": 1,
      "price": "905000000000000000000",
      "reserved": "",
      "assetIds": []
    },
    {
      "x": 157,
      "y": 76,
      "size": 1,
      "price": "905000000000000000000",
      "reserved": "",
      "assetIds": []
    },
    {
      "x": 157,
      "y": 75,
      "size": 1,
      "price": "905000000000000000000",
      "reserved": "",
      "assetIds": []
    },
    {
      "x": 158,
      "y": 75,
      "size": 1,
      "price": "905000000000000000000",
      "reserved": "",
      "assetIds": []
    },
    {
      "x": 158,
      "y": 76,
      "size": 1,
      "price": "905000000000000000000",
      "reserved": "",
      "assetIds": []
    },
    {
      "x": 159,
      "y": 77,
      "size": 1,
      "price": "905000000000000000000",
      "reserved": "",
      "assetIds": []
    },
    {
      "x": 160,
      "y": 77,
      "size": 1,
      "price": "905000000000000000000",
      "reserved": "",
      "assetIds": []
    },
    {
      "x": 160,
      "y": 76,
      "size": 1,
      "price": "905000000000000000000",
      "reserved": "",
      "assetIds": []
    },
    {
      "x": 160,
      "y": 75,
      "size": 1,
      "price": "905000000000000000000",
      "reserved": "",
      "assetIds": []
    },
    {
      "x": 159,
      "y": 74,
      "size": 1,
      "price": "905000000000000000000",
      "reserved": "",
      "assetIds": []
    },
    {
      "x": 158,
      "y": 77,
      "size": 1,
      "price": "905000000000000000000",
      "reserved": "",
      "assetIds": []
    },
    {
      "x": 156,
      "y": 77,
      "size": 1,
      "price": "905000000000000000000",
      "reserved": "",
      "assetIds": []
    },
    {
      "x": 156,
      "y": 76,
      "size": 1,
      "price": "905000000000000000000",
      "reserved": "",
      "assetIds": []
    },
    {
      "x": 159,
      "y": 76,
      "size": 1,
      "price": "905000000000000000000",
      "reserved": "",
      "assetIds": []
    },
    {
      "x": 159,
      "y": 75,
      "size": 1,
      "price": "905000000000000000000",
      "reserved": "",
      "assetIds": []
    },
    {
      "x": 160,
      "y": 74,
      "size": 1,
      "price": "905000000000000000000",
      "reserved": "",
      "assetIds": []
    },
    {
      "x": 161,
      "y": 74,
      "size": 1,
      "price": "905000000000000000000",
      "reserved": "",
      "assetIds": []
    },
    {
      "x": 162,
      "y": 74,
      "size": 1,
      "price": "905000000000000000000",
      "reserved": "",
      "assetIds": []
    },
    {
      "x": 163,
      "y": 74,
      "size": 1,
      "price": "905000000000000000000",
      "reserved": "",
      "assetIds": []
    },
    {
      "x": 164,
      "y": 74,
      "size": 1,
      "price": "905000000000000000000",
      "reserved": "",
      "assetIds": []
    },
    {
      "x": 164,
      "y": 73,
      "size": 1,
      "price": "905000000000000000000",
      "reserved": "",
      "assetIds": []
    },
    {
      "x": 163,
      "y": 73,
      "size": 1,
      "price": "905000000000000000000",
      "reserved": "",
      "assetIds": []
    },
    {
      "x": 162,
      "y": 73,
      "size": 1,
      "price": "905000000000000000000",
      "reserved": "",
      "assetIds": []
    },
    {
      "x": 161,
      "y": 72,
      "size": 1,
      "price": "905000000000000000000",
      "reserved": "",
      "assetIds": []
    },
    {
      "x": 160,
      "y": 72,
      "size": 1,
      "price": "905000000000000000000",
      "reserved": "",
      "assetIds": []
    },
    {
      "x": 159,
      "y": 73,
      "size": 1,
      "price": "905000000000000000000",
      "reserved": "",
      "assetIds": []
    },
    {
      "x": 160,
      "y": 73,
      "size": 1,
      "price": "905000000000000000000",
      "reserved": "",
      "assetIds": []
    },
    {
      "x": 161,
      "y": 73,
      "size": 1,
      "price": "905000000000000000000",
      "reserved": "",
      "assetIds": []
    },
    {
      "x": 163,
      "y": 72,
      "size": 1,
      "price": "905000000000000000000",
      "reserved": "",
      "assetIds": []
    },
    {
      "x": 162,
      "y": 72,
      "size": 1,
      "price": "905000000000000000000",
      "reserved": "",
      "assetIds": []
    },
    {
      "x": 159,
      "y": 72,
      "size": 1,
      "price": "905000000000000000000",
      "reserved": "",
      "assetIds": []
    },
    {
      "x": 164,
      "y": 72,
      "size": 1,
      "price": "905000000000000000000",
      "reserved": "",
      "assetIds": []
    },
    {
      "x": 161,
      "y": 75,
      "size": 1,
      "price": "905000000000000000000",
      "reserved": "",
      "assetIds": []
    },
    {
      "x": 161,
      "y": 76,
      "size": 1,
      "price": "905000000000000000000",
      "reserved": "",
      "assetIds": []
    },
    {
      "x": 161,
      "y": 77,
      "size": 1,
      "price": "905000000000000000000",
      "reserved": "",
      "assetIds": []
    },
    {
      "x": 162,
      "y": 76,
      "size": 1,
      "price": "905000000000000000000",
      "reserved": "",
      "assetIds": []
    },
    {
      "x": 162,
      "y": 75,
      "size": 1,
      "price": "905000000000000000000",
      "reserved": "",
      "assetIds": []
    },
    {
      "x": 163,
      "y": 75,
      "size": 1,
      "price": "905000000000000000000",
      "reserved": "",
      "assetIds": []
    },
    {
      "x": 169,
      "y": 75,
      "size": 1,
      "price": "905000000000000000000",
      "reserved": "",
      "assetIds": []
    },
    {
      "x": 168,
      "y": 75,
      "size": 1,
      "price": "905000000000000000000",
      "reserved": "",
      "assetIds": []
    },
    {
      "x": 167,
      "y": 75,
      "size": 1,
      "price": "905000000000000000000",
      "reserved": "",
      "assetIds": []
    },
    {
      "x": 166,
      "y": 75,
      "size": 1,
      "price": "905000000000000000000",
      "reserved": "",
      "assetIds": []
    },
    {
      "x": 165,
      "y": 75,
      "size": 1,
      "price": "905000000000000000000",
      "reserved": "",
      "assetIds": []
    },
    {
      "x": 164,
      "y": 76,
      "size": 1,
      "price": "905000000000000000000",
      "reserved": "",
      "assetIds": []
    },
    {
      "x": 166,
      "y": 76,
      "size": 1,
      "price": "905000000000000000000",
      "reserved": "",
      "assetIds": []
    },
    {
      "x": 165,
      "y": 76,
      "size": 1,
      "price": "905000000000000000000",
      "reserved": "",
      "assetIds": []
    },
    {
      "x": 167,
      "y": 76,
      "size": 1,
      "price": "905000000000000000000",
      "reserved": "",
      "assetIds": []
    },
    {
      "x": 163,
      "y": 76,
      "size": 1,
      "price": "905000000000000000000",
      "reserved": "",
      "assetIds": []
    },
    {
      "x": 171,
      "y": 75,
      "size": 1,
      "price": "905000000000000000000",
      "reserved": "",
      "assetIds": []
    },
    {
      "x": 172,
      "y": 75,
      "size": 1,
      "price": "905000000000000000000",
      "reserved": "",
      "assetIds": []
    },
    {
      "x": 173,
      "y": 75,
      "size": 1,
      "price": "905000000000000000000",
      "reserved": "",
      "assetIds": []
    },
    {
      "x": 174,
      "y": 75,
      "size": 1,
      "price": "905000000000000000000",
      "reserved": "",
      "assetIds": []
    },
    {
      "x": 172,
      "y": 74,
      "size": 1,
      "price": "905000000000000000000",
      "reserved": "",
      "assetIds": []
    },
    {
      "x": 171,
      "y": 74,
      "size": 1,
      "price": "905000000000000000000",
      "reserved": "",
      "assetIds": []
    },
    {
      "x": 170,
      "y": 74,
      "size": 1,
      "price": "905000000000000000000",
      "reserved": "",
      "assetIds": []
    },
    {
      "x": 169,
      "y": 74,
      "size": 1,
      "price": "905000000000000000000",
      "reserved": "",
      "assetIds": []
    },
    {
      "x": 168,
      "y": 74,
      "size": 1,
      "price": "905000000000000000000",
      "reserved": "",
      "assetIds": []
    },
    {
      "x": 168,
      "y": 73,
      "size": 1,
      "price": "905000000000000000000",
      "reserved": "",
      "assetIds": []
    },
    {
      "x": 169,
      "y": 73,
      "size": 1,
      "price": "905000000000000000000",
      "reserved": "",
      "assetIds": []
    },
    {
      "x": 170,
      "y": 73,
      "size": 1,
      "price": "905000000000000000000",
      "reserved": "",
      "assetIds": []
    },
    {
      "x": 171,
      "y": 73,
      "size": 1,
      "price": "905000000000000000000",
      "reserved": "",
      "assetIds": []
    },
    {
      "x": 172,
      "y": 73,
      "size": 1,
      "price": "905000000000000000000",
      "reserved": "",
      "assetIds": []
    },
    {
      "x": 173,
      "y": 73,
      "size": 1,
      "price": "905000000000000000000",
      "reserved": "",
      "assetIds": []
    },
    {
      "x": 174,
      "y": 73,
      "size": 1,
      "price": "905000000000000000000",
      "reserved": "",
      "assetIds": []
    },
    {
      "x": 174,
      "y": 72,
      "size": 1,
      "price": "905000000000000000000",
      "reserved": "",
      "assetIds": []
    },
    {
      "x": 175,
      "y": 72,
      "size": 1,
      "price": "905000000000000000000",
      "reserved": "",
      "assetIds": []
    },
    {
      "x": 176,
      "y": 72,
      "size": 1,
      "price": "905000000000000000000",
      "reserved": "",
      "assetIds": []
    },
    {
      "x": 173,
      "y": 72,
      "size": 1,
      "price": "905000000000000000000",
      "reserved": "",
      "assetIds": []
    },
    {
      "x": 170,
      "y": 72,
      "size": 1,
      "price": "905000000000000000000",
      "reserved": "",
      "assetIds": []
    },
    {
      "x": 171,
      "y": 72,
      "size": 1,
      "price": "905000000000000000000",
      "reserved": "",
      "assetIds": []
    },
    {
      "x": 172,
      "y": 72,
      "size": 1,
      "price": "905000000000000000000",
      "reserved": "",
      "assetIds": []
    },
    {
      "x": 168,
      "y": 72,
      "size": 1,
      "price": "905000000000000000000",
      "reserved": "",
      "assetIds": []
    },
    {
      "x": 169,
      "y": 72,
      "size": 1,
      "price": "905000000000000000000",
      "reserved": "",
      "assetIds": []
    },
    {
      "x": 177,
      "y": 72,
      "size": 1,
      "price": "905000000000000000000",
      "reserved": "",
      "assetIds": []
    },
    {
      "x": 178,
      "y": 72,
      "size": 1,
      "price": "905000000000000000000",
      "reserved": "",
      "assetIds": []
    },
    {
      "x": 179,
      "y": 72,
      "size": 1,
      "price": "905000000000000000000",
      "reserved": "",
      "assetIds": []
    },
    {
      "x": 176,
      "y": 73,
      "size": 1,
      "price": "905000000000000000000",
      "reserved": "",
      "assetIds": []
    },
    {
      "x": 175,
      "y": 73,
      "size": 1,
      "price": "905000000000000000000",
      "reserved": "",
      "assetIds": []
    },
    {
      "x": 175,
      "y": 74,
      "size": 1,
      "price": "905000000000000000000",
      "reserved": "",
      "assetIds": []
    },
    {
      "x": 174,
      "y": 74,
      "size": 1,
      "price": "905000000000000000000",
      "reserved": "",
      "assetIds": []
    },
    {
      "x": 173,
      "y": 74,
      "size": 1,
      "price": "905000000000000000000",
      "reserved": "",
      "assetIds": []
    },
    {
      "x": 176,
      "y": 74,
      "size": 1,
      "price": "905000000000000000000",
      "reserved": "",
      "assetIds": []
    },
    {
      "x": 177,
      "y": 74,
      "size": 1,
      "price": "905000000000000000000",
      "reserved": "",
      "assetIds": []
    },
    {
      "x": 178,
      "y": 74,
      "size": 1,
      "price": "905000000000000000000",
      "reserved": "",
      "assetIds": []
    },
    {
      "x": 179,
      "y": 74,
      "size": 1,
      "price": "905000000000000000000",
      "reserved": "",
      "assetIds": []
    },
    {
      "x": 170,
      "y": 75,
      "size": 1,
      "price": "905000000000000000000",
      "reserved": "",
      "assetIds": []
    },
    {
      "x": 177,
      "y": 75,
      "size": 1,
      "price": "905000000000000000000",
      "reserved": "",
      "assetIds": []
    },
    {
      "x": 178,
      "y": 75,
      "size": 1,
      "price": "905000000000000000000",
      "reserved": "",
      "assetIds": []
    },
    {
      "x": 179,
      "y": 75,
      "size": 1,
      "price": "905000000000000000000",
      "reserved": "",
      "assetIds": []
    },
    {
      "x": 180,
      "y": 75,
      "size": 1,
      "price": "905000000000000000000",
      "reserved": "",
      "assetIds": []
    },
    {
      "x": 176,
      "y": 75,
      "size": 1,
      "price": "905000000000000000000",
      "reserved": "",
      "assetIds": []
    },
    {
      "x": 175,
      "y": 75,
      "size": 1,
      "price": "905000000000000000000",
      "reserved": "",
      "assetIds": []
    },
    {
      "x": 177,
      "y": 73,
      "size": 1,
      "price": "905000000000000000000",
      "reserved": "",
      "assetIds": []
    },
    {
      "x": 178,
      "y": 73,
      "size": 1,
      "price": "905000000000000000000",
      "reserved": "",
      "assetIds": []
    },
    {
      "x": 179,
      "y": 73,
      "size": 1,
      "price": "905000000000000000000",
      "reserved": "",
      "assetIds": []
    },
    {
      "x": 186,
      "y": 73,
      "size": 1,
      "price": "905000000000000000000",
      "reserved": "",
      "assetIds": []
    },
    {
      "x": 187,
      "y": 73,
      "size": 1,
      "price": "905000000000000000000",
      "reserved": "",
      "assetIds": []
    },
    {
      "x": 188,
      "y": 73,
      "size": 1,
      "price": "905000000000000000000",
      "reserved": "",
      "assetIds": []
    },
    {
      "x": 189,
      "y": 73,
      "size": 1,
      "price": "905000000000000000000",
      "reserved": "",
      "assetIds": []
    },
    {
      "x": 190,
      "y": 73,
      "size": 1,
      "price": "905000000000000000000",
      "reserved": "",
      "assetIds": []
    },
    {
      "x": 191,
      "y": 73,
      "size": 1,
      "price": "905000000000000000000",
      "reserved": "",
      "assetIds": []
    },
    {
      "x": 186,
      "y": 72,
      "size": 1,
      "price": "905000000000000000000",
      "reserved": "",
      "assetIds": []
    },
    {
      "x": 187,
      "y": 72,
      "size": 1,
      "price": "905000000000000000000",
      "reserved": "",
      "assetIds": []
    },
    {
      "x": 188,
      "y": 72,
      "size": 1,
      "price": "905000000000000000000",
      "reserved": "",
      "assetIds": []
    },
    {
      "x": 189,
      "y": 72,
      "size": 1,
      "price": "905000000000000000000",
      "reserved": "",
      "assetIds": []
    },
    {
      "x": 190,
      "y": 72,
      "size": 1,
      "price": "905000000000000000000",
      "reserved": "",
      "assetIds": []
    },
    {
      "x": 191,
      "y": 72,
      "size": 1,
      "price": "905000000000000000000",
      "reserved": "",
      "assetIds": []
    },
    {
      "x": 191,
      "y": 76,
      "size": 1,
      "price": "905000000000000000000",
      "reserved": "",
      "assetIds": []
    },
    {
      "x": 190,
      "y": 76,
      "size": 1,
      "price": "905000000000000000000",
      "reserved": "",
      "assetIds": []
    },
    {
      "x": 190,
      "y": 75,
      "size": 1,
      "price": "905000000000000000000",
      "reserved": "",
      "assetIds": []
    },
    {
      "x": 190,
      "y": 74,
      "size": 1,
      "price": "905000000000000000000",
      "reserved": "",
      "assetIds": []
    },
    {
      "x": 191,
      "y": 74,
      "size": 1,
      "price": "905000000000000000000",
      "reserved": "",
      "assetIds": []
    },
    {
      "x": 191,
      "y": 75,
      "size": 1,
      "price": "905000000000000000000",
      "reserved": "",
      "assetIds": []
    },
    {
      "x": 191,
      "y": 88,
      "size": 1,
      "price": "905000000000000000000",
      "reserved": "",
      "assetIds": []
    },
    {
      "x": 190,
      "y": 87,
      "size": 1,
      "price": "905000000000000000000",
      "reserved": "",
      "assetIds": []
    },
    {
      "x": 190,
      "y": 86,
      "size": 1,
      "price": "905000000000000000000",
      "reserved": "",
      "assetIds": []
    },
    {
      "x": 190,
      "y": 85,
      "size": 1,
      "price": "905000000000000000000",
      "reserved": "",
      "assetIds": []
    },
    {
      "x": 190,
      "y": 84,
      "size": 1,
      "price": "905000000000000000000",
      "reserved": "",
      "assetIds": []
    },
    {
      "x": 190,
      "y": 83,
      "size": 1,
      "price": "905000000000000000000",
      "reserved": "",
      "assetIds": []
    },
    {
      "x": 190,
      "y": 82,
      "size": 1,
      "price": "905000000000000000000",
      "reserved": "",
      "assetIds": []
    },
    {
      "x": 190,
      "y": 81,
      "size": 1,
      "price": "905000000000000000000",
      "reserved": "",
      "assetIds": []
    },
    {
      "x": 190,
      "y": 80,
      "size": 1,
      "price": "905000000000000000000",
      "reserved": "",
      "assetIds": []
    },
    {
      "x": 190,
      "y": 79,
      "size": 1,
      "price": "905000000000000000000",
      "reserved": "",
      "assetIds": []
    },
    {
      "x": 190,
      "y": 78,
      "size": 1,
      "price": "905000000000000000000",
      "reserved": "",
      "assetIds": []
    },
    {
      "x": 190,
      "y": 77,
      "size": 1,
      "price": "905000000000000000000",
      "reserved": "",
      "assetIds": []
    },
    {
      "x": 191,
      "y": 77,
      "size": 1,
      "price": "905000000000000000000",
      "reserved": "",
      "assetIds": []
    },
    {
      "x": 189,
      "y": 79,
      "size": 1,
      "price": "905000000000000000000",
      "reserved": "",
      "assetIds": []
    },
    {
      "x": 189,
      "y": 80,
      "size": 1,
      "price": "905000000000000000000",
      "reserved": "",
      "assetIds": []
    },
    {
      "x": 189,
      "y": 81,
      "size": 1,
      "price": "905000000000000000000",
      "reserved": "",
      "assetIds": []
    },
    {
      "x": 189,
      "y": 82,
      "size": 1,
      "price": "905000000000000000000",
      "reserved": "",
      "assetIds": []
    },
    {
      "x": 188,
      "y": 83,
      "size": 1,
      "price": "905000000000000000000",
      "reserved": "",
      "assetIds": []
    },
    {
      "x": 188,
      "y": 82,
      "size": 1,
      "price": "905000000000000000000",
      "reserved": "",
      "assetIds": []
    },
    {
      "x": 188,
      "y": 80,
      "size": 1,
      "price": "905000000000000000000",
      "reserved": "",
      "assetIds": []
    },
    {
      "x": 188,
      "y": 79,
      "size": 1,
      "price": "905000000000000000000",
      "reserved": "",
      "assetIds": []
    },
    {
      "x": 188,
      "y": 78,
      "size": 1,
      "price": "905000000000000000000",
      "reserved": "",
      "assetIds": []
    },
    {
      "x": 188,
      "y": 77,
      "size": 1,
      "price": "905000000000000000000",
      "reserved": "",
      "assetIds": []
    },
    {
      "x": 189,
      "y": 77,
      "size": 1,
      "price": "905000000000000000000",
      "reserved": "",
      "assetIds": []
    },
    {
      "x": 189,
      "y": 76,
      "size": 1,
      "price": "905000000000000000000",
      "reserved": "",
      "assetIds": []
    },
    {
      "x": 189,
      "y": 75,
      "size": 1,
      "price": "905000000000000000000",
      "reserved": "",
      "assetIds": []
    },
    {
      "x": 189,
      "y": 78,
      "size": 1,
      "price": "905000000000000000000",
      "reserved": "",
      "assetIds": []
    },
    {
      "x": 188,
      "y": 76,
      "size": 1,
      "price": "905000000000000000000",
      "reserved": "",
      "assetIds": []
    },
    {
      "x": 188,
      "y": 75,
      "size": 1,
      "price": "905000000000000000000",
      "reserved": "",
      "assetIds": []
    },
    {
      "x": 188,
      "y": 74,
      "size": 1,
      "price": "905000000000000000000",
      "reserved": "",
      "assetIds": []
    },
    {
      "x": 187,
      "y": 74,
      "size": 1,
      "price": "905000000000000000000",
      "reserved": "",
      "assetIds": []
    },
    {
      "x": 187,
      "y": 75,
      "size": 1,
      "price": "905000000000000000000",
      "reserved": "",
      "assetIds": []
    },
    {
      "x": 187,
      "y": 76,
      "size": 1,
      "price": "905000000000000000000",
      "reserved": "",
      "assetIds": []
    },
    {
      "x": 186,
      "y": 77,
      "size": 1,
      "price": "905000000000000000000",
      "reserved": "",
      "assetIds": []
    },
    {
      "x": 186,
      "y": 78,
      "size": 1,
      "price": "905000000000000000000",
      "reserved": "",
      "assetIds": []
    },
    {
      "x": 186,
      "y": 79,
      "size": 1,
      "price": "905000000000000000000",
      "reserved": "",
      "assetIds": []
    },
    {
      "x": 186,
      "y": 76,
      "size": 1,
      "price": "905000000000000000000",
      "reserved": "",
      "assetIds": []
    },
    {
      "x": 186,
      "y": 75,
      "size": 1,
      "price": "905000000000000000000",
      "reserved": "",
      "assetIds": []
    },
    {
      "x": 186,
      "y": 74,
      "size": 1,
      "price": "905000000000000000000",
      "reserved": "",
      "assetIds": []
    },
    {
      "x": 185,
      "y": 76,
      "size": 1,
      "price": "905000000000000000000",
      "reserved": "",
      "assetIds": []
    },
    {
      "x": 184,
      "y": 76,
      "size": 1,
      "price": "905000000000000000000",
      "reserved": "",
      "assetIds": []
    },
    {
      "x": 183,
      "y": 76,
      "size": 1,
      "price": "905000000000000000000",
      "reserved": "",
      "assetIds": []
    },
    {
      "x": 183,
      "y": 77,
      "size": 1,
      "price": "905000000000000000000",
      "reserved": "",
      "assetIds": []
    },
    {
      "x": 184,
      "y": 75,
      "size": 1,
      "price": "905000000000000000000",
      "reserved": "",
      "assetIds": []
    },
    {
      "x": 185,
      "y": 75,
      "size": 1,
      "price": "905000000000000000000",
      "reserved": "",
      "assetIds": []
    },
    {
      "x": 185,
      "y": 77,
      "size": 1,
      "price": "905000000000000000000",
      "reserved": "",
      "assetIds": []
    },
    {
      "x": 184,
      "y": 77,
      "size": 1,
      "price": "905000000000000000000",
      "reserved": "",
      "assetIds": []
    },
    {
      "x": 183,
      "y": 75,
      "size": 1,
      "price": "905000000000000000000",
      "reserved": "",
      "assetIds": []
    },
    {
      "x": 182,
      "y": 75,
      "size": 1,
      "price": "905000000000000000000",
      "reserved": "",
      "assetIds": []
    },
    {
      "x": 181,
      "y": 75,
      "size": 1,
      "price": "905000000000000000000",
      "reserved": "",
      "assetIds": []
    },
    {
      "x": 180,
      "y": 76,
      "size": 1,
      "price": "905000000000000000000",
      "reserved": "",
      "assetIds": []
    },
    {
      "x": 181,
      "y": 76,
      "size": 1,
      "price": "905000000000000000000",
      "reserved": "",
      "assetIds": []
    },
    {
      "x": 182,
      "y": 76,
      "size": 1,
      "price": "905000000000000000000",
      "reserved": "",
      "assetIds": []
    },
    {
      "x": 189,
      "y": 74,
      "size": 1,
      "price": "905000000000000000000",
      "reserved": "",
      "assetIds": []
    },
    {
      "x": 192,
      "y": 71,
      "size": 1,
      "price": "905000000000000000000",
      "reserved": "",
      "assetIds": []
    },
    {
      "x": 192,
      "y": 70,
      "size": 1,
      "price": "905000000000000000000",
      "reserved": "",
      "assetIds": []
    },
    {
      "x": 193,
      "y": 70,
      "size": 1,
      "price": "905000000000000000000",
      "reserved": "",
      "assetIds": []
    },
    {
      "x": 194,
      "y": 70,
      "size": 1,
      "price": "905000000000000000000",
      "reserved": "",
      "assetIds": []
    },
    {
      "x": 194,
      "y": 71,
      "size": 1,
      "price": "905000000000000000000",
      "reserved": "",
      "assetIds": []
    },
    {
      "x": 193,
      "y": 71,
      "size": 1,
      "price": "905000000000000000000",
      "reserved": "",
      "assetIds": []
    },
    {
      "x": 192,
      "y": 69,
      "size": 1,
      "price": "905000000000000000000",
      "reserved": "",
      "assetIds": []
    },
    {
      "x": 193,
      "y": 69,
      "size": 1,
      "price": "905000000000000000000",
      "reserved": "",
      "assetIds": []
    },
    {
      "x": 194,
      "y": 69,
      "size": 1,
      "price": "905000000000000000000",
      "reserved": "",
      "assetIds": []
    },
    {
      "x": 195,
      "y": 73,
      "size": 1,
      "price": "905000000000000000000",
      "reserved": "",
      "assetIds": []
    },
    {
      "x": 196,
      "y": 72,
      "size": 1,
      "price": "905000000000000000000",
      "reserved": "",
      "assetIds": []
    },
    {
      "x": 196,
      "y": 73,
      "size": 1,
      "price": "905000000000000000000",
      "reserved": "",
      "assetIds": []
    },
    {
      "x": 196,
      "y": 74,
      "size": 1,
      "price": "905000000000000000000",
      "reserved": "",
      "assetIds": []
    },
    {
      "x": 196,
      "y": 75,
      "size": 1,
      "price": "905000000000000000000",
      "reserved": "",
      "assetIds": []
    },
    {
      "x": 196,
      "y": 76,
      "size": 1,
      "price": "905000000000000000000",
      "reserved": "",
      "assetIds": []
    },
    {
      "x": 196,
      "y": 77,
      "size": 1,
      "price": "905000000000000000000",
      "reserved": "",
      "assetIds": []
    },
    {
      "x": 195,
      "y": 77,
      "size": 1,
      "price": "905000000000000000000",
      "reserved": "",
      "assetIds": []
    },
    {
      "x": 195,
      "y": 76,
      "size": 1,
      "price": "905000000000000000000",
      "reserved": "",
      "assetIds": []
    },
    {
      "x": 195,
      "y": 75,
      "size": 1,
      "price": "905000000000000000000",
      "reserved": "",
      "assetIds": []
    },
    {
      "x": 195,
      "y": 74,
      "size": 1,
      "price": "905000000000000000000",
      "reserved": "",
      "assetIds": []
    },
    {
      "x": 194,
      "y": 107,
      "size": 1,
      "price": "905000000000000000000",
      "reserved": "",
      "assetIds": []
    },
    {
      "x": 194,
      "y": 106,
      "size": 1,
      "price": "905000000000000000000",
      "reserved": "",
      "assetIds": []
    },
    {
      "x": 194,
      "y": 105,
      "size": 1,
      "price": "905000000000000000000",
      "reserved": "",
      "assetIds": []
    },
    {
      "x": 194,
      "y": 104,
      "size": 1,
      "price": "905000000000000000000",
      "reserved": "",
      "assetIds": []
    },
    {
      "x": 194,
      "y": 103,
      "size": 1,
      "price": "905000000000000000000",
      "reserved": "",
      "assetIds": []
    },
    {
      "x": 194,
      "y": 102,
      "size": 1,
      "price": "905000000000000000000",
      "reserved": "",
      "assetIds": []
    },
    {
      "x": 194,
      "y": 98,
      "size": 1,
      "price": "905000000000000000000",
      "reserved": "",
      "assetIds": []
    },
    {
      "x": 194,
      "y": 97,
      "size": 1,
      "price": "905000000000000000000",
      "reserved": "",
      "assetIds": []
    },
    {
      "x": 194,
      "y": 96,
      "size": 1,
      "price": "905000000000000000000",
      "reserved": "",
      "assetIds": []
    },
    {
      "x": 194,
      "y": 95,
      "size": 1,
      "price": "905000000000000000000",
      "reserved": "",
      "assetIds": []
    },
    {
      "x": 194,
      "y": 94,
      "size": 1,
      "price": "905000000000000000000",
      "reserved": "",
      "assetIds": []
    },
    {
      "x": 194,
      "y": 93,
      "size": 1,
      "price": "905000000000000000000",
      "reserved": "",
      "assetIds": []
    },
    {
      "x": 194,
      "y": 92,
      "size": 1,
      "price": "905000000000000000000",
      "reserved": "",
      "assetIds": []
    },
    {
      "x": 194,
      "y": 91,
      "size": 1,
      "price": "905000000000000000000",
      "reserved": "",
      "assetIds": []
    },
    {
      "x": 194,
      "y": 90,
      "size": 1,
      "price": "905000000000000000000",
      "reserved": "",
      "assetIds": []
    },
    {
      "x": 194,
      "y": 89,
      "size": 1,
      "price": "905000000000000000000",
      "reserved": "",
      "assetIds": []
    },
    {
      "x": 194,
      "y": 88,
      "size": 1,
      "price": "905000000000000000000",
      "reserved": "",
      "assetIds": []
    },
    {
      "x": 193,
      "y": 88,
      "size": 1,
      "price": "905000000000000000000",
      "reserved": "",
      "assetIds": []
    },
    {
      "x": 193,
      "y": 87,
      "size": 1,
      "price": "905000000000000000000",
      "reserved": "",
      "assetIds": []
    },
    {
      "x": 194,
      "y": 87,
      "size": 1,
      "price": "905000000000000000000",
      "reserved": "",
      "assetIds": []
    },
    {
      "x": 192,
      "y": 88,
      "size": 1,
      "price": "905000000000000000000",
      "reserved": "",
      "assetIds": []
    },
    {
      "x": 190,
      "y": 88,
      "size": 1,
      "price": "905000000000000000000",
      "reserved": "",
      "assetIds": []
    },
    {
      "x": 190,
      "y": 89,
      "size": 1,
      "price": "905000000000000000000",
      "reserved": "",
      "assetIds": []
    },
    {
      "x": 189,
      "y": 89,
      "size": 1,
      "price": "905000000000000000000",
      "reserved": "",
      "assetIds": []
    },
    {
      "x": 189,
      "y": 88,
      "size": 1,
      "price": "905000000000000000000",
      "reserved": "",
      "assetIds": []
    },
    {
      "x": 189,
      "y": 87,
      "size": 1,
      "price": "905000000000000000000",
      "reserved": "",
      "assetIds": []
    },
    {
      "x": 191,
      "y": 86,
      "size": 1,
      "price": "905000000000000000000",
      "reserved": "",
      "assetIds": []
    },
    {
      "x": 191,
      "y": 85,
      "size": 1,
      "price": "905000000000000000000",
      "reserved": "",
      "assetIds": []
    },
    {
      "x": 191,
      "y": 84,
      "size": 1,
      "price": "905000000000000000000",
      "reserved": "",
      "assetIds": []
    },
    {
      "x": 191,
      "y": 78,
      "size": 1,
      "price": "905000000000000000000",
      "reserved": "",
      "assetIds": []
    },
    {
      "x": 191,
      "y": 79,
      "size": 1,
      "price": "905000000000000000000",
      "reserved": "",
      "assetIds": []
    },
    {
      "x": 191,
      "y": 80,
      "size": 1,
      "price": "905000000000000000000",
      "reserved": "",
      "assetIds": []
    },
    {
      "x": 191,
      "y": 81,
      "size": 1,
      "price": "905000000000000000000",
      "reserved": "",
      "assetIds": []
    },
    {
      "x": 191,
      "y": 82,
      "size": 1,
      "price": "905000000000000000000",
      "reserved": "",
      "assetIds": []
    },
    {
      "x": 191,
      "y": 83,
      "size": 1,
      "price": "905000000000000000000",
      "reserved": "",
      "assetIds": []
    },
    {
      "x": 191,
      "y": 87,
      "size": 1,
      "price": "905000000000000000000",
      "reserved": "",
      "assetIds": []
    },
    {
      "x": 197,
      "y": 77,
      "size": 1,
      "price": "905000000000000000000",
      "reserved": "",
      "assetIds": []
    },
    {
      "x": 197,
      "y": 76,
      "size": 1,
      "price": "905000000000000000000",
      "reserved": "",
      "assetIds": []
    },
    {
      "x": 197,
      "y": 75,
      "size": 1,
      "price": "905000000000000000000",
      "reserved": "",
      "assetIds": []
    },
    {
      "x": 197,
      "y": 74,
      "size": 1,
      "price": "905000000000000000000",
      "reserved": "",
      "assetIds": []
    },
    {
      "x": 197,
      "y": 73,
      "size": 1,
      "price": "905000000000000000000",
      "reserved": "",
      "assetIds": []
    },
    {
      "x": 197,
      "y": 72,
      "size": 1,
      "price": "905000000000000000000",
      "reserved": "",
      "assetIds": []
    },
    {
      "x": 195,
      "y": 72,
      "size": 1,
      "price": "905000000000000000000",
      "reserved": "",
      "assetIds": []
    },
    {
      "x": 187,
      "y": 86,
      "size": 1,
      "price": "905000000000000000000",
      "reserved": "",
      "assetIds": []
    },
    {
      "x": 187,
      "y": 85,
      "size": 1,
      "price": "905000000000000000000",
      "reserved": "",
      "assetIds": []
    },
    {
      "x": 187,
      "y": 84,
      "size": 1,
      "price": "905000000000000000000",
      "reserved": "",
      "assetIds": []
    },
    {
      "x": 187,
      "y": 83,
      "size": 1,
      "price": "905000000000000000000",
      "reserved": "",
      "assetIds": []
    },
    {
      "x": 187,
      "y": 77,
      "size": 1,
      "price": "905000000000000000000",
      "reserved": "",
      "assetIds": []
    },
    {
      "x": 187,
      "y": 78,
      "size": 1,
      "price": "905000000000000000000",
      "reserved": "",
      "assetIds": []
    },
    {
      "x": 187,
      "y": 79,
      "size": 1,
      "price": "905000000000000000000",
      "reserved": "",
      "assetIds": []
    },
    {
      "x": 187,
      "y": 80,
      "size": 1,
      "price": "905000000000000000000",
      "reserved": "",
      "assetIds": []
    },
    {
      "x": 187,
      "y": 81,
      "size": 1,
      "price": "905000000000000000000",
      "reserved": "",
      "assetIds": []
    },
    {
      "x": 187,
      "y": 82,
      "size": 1,
      "price": "905000000000000000000",
      "reserved": "",
      "assetIds": []
    },
    {
      "x": 186,
      "y": 80,
      "size": 1,
      "price": "905000000000000000000",
      "reserved": "",
      "assetIds": []
    },
    {
      "x": 188,
      "y": 84,
      "size": 1,
      "price": "905000000000000000000",
      "reserved": "",
      "assetIds": []
    },
    {
      "x": 189,
      "y": 84,
      "size": 1,
      "price": "905000000000000000000",
      "reserved": "",
      "assetIds": []
    },
    {
      "x": 189,
      "y": 85,
      "size": 1,
      "price": "905000000000000000000",
      "reserved": "",
      "assetIds": []
    },
    {
      "x": 189,
      "y": 83,
      "size": 1,
      "price": "905000000000000000000",
      "reserved": "",
      "assetIds": []
    },
    {
      "x": 189,
      "y": 86,
      "size": 1,
      "price": "905000000000000000000",
      "reserved": "",
      "assetIds": []
    },
    {
      "x": 188,
      "y": 85,
      "size": 1,
      "price": "905000000000000000000",
      "reserved": "",
      "assetIds": []
    },
    {
      "x": 188,
      "y": 86,
      "size": 1,
      "price": "905000000000000000000",
      "reserved": "",
      "assetIds": []
    },
    {
      "x": 188,
      "y": 87,
      "size": 1,
      "price": "905000000000000000000",
      "reserved": "",
      "assetIds": []
    },
    {
      "x": 188,
      "y": 88,
      "size": 1,
      "price": "905000000000000000000",
      "reserved": "",
      "assetIds": []
    },
    {
      "x": 188,
      "y": 89,
      "size": 1,
      "price": "905000000000000000000",
      "reserved": "",
      "assetIds": []
    },
    {
      "x": 191,
      "y": 89,
      "size": 1,
      "price": "905000000000000000000",
      "reserved": "",
      "assetIds": []
    },
    {
      "x": 192,
      "y": 89,
      "size": 1,
      "price": "905000000000000000000",
      "reserved": "",
      "assetIds": []
    },
    {
      "x": 192,
      "y": 90,
      "size": 1,
      "price": "905000000000000000000",
      "reserved": "",
      "assetIds": []
    },
    {
      "x": 192,
      "y": 91,
      "size": 1,
      "price": "905000000000000000000",
      "reserved": "",
      "assetIds": []
    },
    {
      "x": 192,
      "y": 92,
      "size": 1,
      "price": "905000000000000000000",
      "reserved": "",
      "assetIds": []
    },
    {
      "x": 192,
      "y": 93,
      "size": 1,
      "price": "905000000000000000000",
      "reserved": "",
      "assetIds": []
    },
    {
      "x": 192,
      "y": 94,
      "size": 1,
      "price": "905000000000000000000",
      "reserved": "",
      "assetIds": []
    },
    {
      "x": 192,
      "y": 95,
      "size": 1,
      "price": "905000000000000000000",
      "reserved": "",
      "assetIds": []
    },
    {
      "x": 192,
      "y": 96,
      "size": 1,
      "price": "905000000000000000000",
      "reserved": "",
      "assetIds": []
    },
    {
      "x": 192,
      "y": 97,
      "size": 1,
      "price": "905000000000000000000",
      "reserved": "",
      "assetIds": []
    },
    {
      "x": 192,
      "y": 98,
      "size": 1,
      "price": "905000000000000000000",
      "reserved": "",
      "assetIds": []
    },
    {
      "x": 193,
      "y": 98,
      "size": 1,
      "price": "905000000000000000000",
      "reserved": "",
      "assetIds": []
    },
    {
      "x": 193,
      "y": 97,
      "size": 1,
      "price": "905000000000000000000",
      "reserved": "",
      "assetIds": []
    },
    {
      "x": 193,
      "y": 96,
      "size": 1,
      "price": "905000000000000000000",
      "reserved": "",
      "assetIds": []
    },
    {
      "x": 193,
      "y": 95,
      "size": 1,
      "price": "905000000000000000000",
      "reserved": "",
      "assetIds": []
    },
    {
      "x": 193,
      "y": 94,
      "size": 1,
      "price": "905000000000000000000",
      "reserved": "",
      "assetIds": []
    },
    {
      "x": 193,
      "y": 93,
      "size": 1,
      "price": "905000000000000000000",
      "reserved": "",
      "assetIds": []
    },
    {
      "x": 193,
      "y": 92,
      "size": 1,
      "price": "905000000000000000000",
      "reserved": "",
      "assetIds": []
    },
    {
      "x": 193,
      "y": 91,
      "size": 1,
      "price": "905000000000000000000",
      "reserved": "",
      "assetIds": []
    },
    {
      "x": 193,
      "y": 90,
      "size": 1,
      "price": "905000000000000000000",
      "reserved": "",
      "assetIds": []
    },
    {
      "x": 193,
      "y": 89,
      "size": 1,
      "price": "905000000000000000000",
      "reserved": "",
      "assetIds": []
    },
    {
      "x": 192,
      "y": 87,
      "size": 1,
      "price": "905000000000000000000",
      "reserved": "",
      "assetIds": []
    },
    {
      "x": 191,
      "y": 96,
      "size": 1,
      "price": "905000000000000000000",
      "reserved": "",
      "assetIds": []
    },
    {
      "x": 191,
      "y": 97,
      "size": 1,
      "price": "905000000000000000000",
      "reserved": "",
      "assetIds": []
    },
    {
      "x": 190,
      "y": 97,
      "size": 1,
      "price": "905000000000000000000",
      "reserved": "",
      "assetIds": []
    },
    {
      "x": 190,
      "y": 98,
      "size": 1,
      "price": "905000000000000000000",
      "reserved": "",
      "assetIds": []
    },
    {
      "x": 189,
      "y": 98,
      "size": 1,
      "price": "905000000000000000000",
      "reserved": "",
      "assetIds": []
    },
    {
      "x": 189,
      "y": 97,
      "size": 1,
      "price": "905000000000000000000",
      "reserved": "",
      "assetIds": []
    },
    {
      "x": 190,
      "y": 96,
      "size": 1,
      "price": "905000000000000000000",
      "reserved": "",
      "assetIds": []
    },
    {
      "x": 189,
      "y": 96,
      "size": 1,
      "price": "905000000000000000000",
      "reserved": "",
      "assetIds": []
    },
    {
      "x": 191,
      "y": 98,
      "size": 1,
      "price": "905000000000000000000",
      "reserved": "",
      "assetIds": []
    },
    {
      "x": 192,
      "y": 102,
      "size": 1,
      "price": "905000000000000000000",
      "reserved": "",
      "assetIds": []
    },
    {
      "x": 192,
      "y": 103,
      "size": 1,
      "price": "905000000000000000000",
      "reserved": "",
      "assetIds": []
    },
    {
      "x": 193,
      "y": 103,
      "size": 1,
      "price": "905000000000000000000",
      "reserved": "",
      "assetIds": []
    },
    {
      "x": 193,
      "y": 104,
      "size": 1,
      "price": "905000000000000000000",
      "reserved": "",
      "assetIds": []
    },
    {
      "x": 193,
      "y": 105,
      "size": 1,
      "price": "905000000000000000000",
      "reserved": "",
      "assetIds": []
    },
    {
      "x": 193,
      "y": 106,
      "size": 1,
      "price": "905000000000000000000",
      "reserved": "",
      "assetIds": []
    },
    {
      "x": 193,
      "y": 107,
      "size": 1,
      "price": "905000000000000000000",
      "reserved": "",
      "assetIds": []
    },
    {
      "x": 193,
      "y": 102,
      "size": 1,
      "price": "905000000000000000000",
      "reserved": "",
      "assetIds": []
    },
    {
      "x": 192,
      "y": 105,
      "size": 1,
      "price": "905000000000000000000",
      "reserved": "",
      "assetIds": []
    },
    {
      "x": 192,
      "y": 106,
      "size": 1,
      "price": "905000000000000000000",
      "reserved": "",
      "assetIds": []
    },
    {
      "x": 192,
      "y": 107,
      "size": 1,
      "price": "905000000000000000000",
      "reserved": "",
      "assetIds": []
    },
    {
      "x": 192,
      "y": 104,
      "size": 1,
      "price": "905000000000000000000",
      "reserved": "",
      "assetIds": []
    },
    {
      "x": 188,
      "y": 110,
      "size": 1,
      "price": "905000000000000000000",
      "reserved": "",
      "assetIds": []
    },
    {
      "x": 187,
      "y": 110,
      "size": 1,
      "price": "905000000000000000000",
      "reserved": "",
      "assetIds": []
    },
    {
      "x": 186,
      "y": 110,
      "size": 1,
      "price": "905000000000000000000",
      "reserved": "",
      "assetIds": []
    },
    {
      "x": 187,
      "y": 109,
      "size": 1,
      "price": "905000000000000000000",
      "reserved": "",
      "assetIds": []
    },
    {
      "x": 186,
      "y": 109,
      "size": 1,
      "price": "905000000000000000000",
      "reserved": "",
      "assetIds": []
    },
    {
      "x": 187,
      "y": 108,
      "size": 1,
      "price": "905000000000000000000",
      "reserved": "",
      "assetIds": []
    },
    {
      "x": 188,
      "y": 108,
      "size": 1,
      "price": "905000000000000000000",
      "reserved": "",
      "assetIds": []
    },
    {
      "x": 186,
      "y": 108,
      "size": 1,
      "price": "905000000000000000000",
      "reserved": "",
      "assetIds": []
    },
    {
      "x": 188,
      "y": 109,
      "size": 1,
      "price": "905000000000000000000",
      "reserved": "",
      "assetIds": []
    },
    {
      "x": 191,
      "y": 111,
      "size": 1,
      "price": "905000000000000000000",
      "reserved": "",
      "assetIds": []
    },
    {
      "x": 190,
      "y": 111,
      "size": 1,
      "price": "905000000000000000000",
      "reserved": "",
      "assetIds": []
    },
    {
      "x": 189,
      "y": 111,
      "size": 1,
      "price": "905000000000000000000",
      "reserved": "",
      "assetIds": []
    },
    {
      "x": 189,
      "y": 112,
      "size": 1,
      "price": "905000000000000000000",
      "reserved": "",
      "assetIds": []
    },
    {
      "x": 190,
      "y": 112,
      "size": 1,
      "price": "905000000000000000000",
      "reserved": "",
      "assetIds": []
    },
    {
      "x": 191,
      "y": 112,
      "size": 1,
      "price": "905000000000000000000",
      "reserved": "",
      "assetIds": []
    },
    {
      "x": 191,
      "y": 113,
      "size": 1,
      "price": "905000000000000000000",
      "reserved": "",
      "assetIds": []
    },
    {
      "x": 190,
      "y": 113,
      "size": 1,
      "price": "905000000000000000000",
      "reserved": "",
      "assetIds": []
    },
    {
      "x": 189,
      "y": 113,
      "size": 1,
      "price": "905000000000000000000",
      "reserved": "",
      "assetIds": []
    },
    {
      "x": 181,
      "y": 114,
      "size": 1,
      "price": "905000000000000000000",
      "reserved": "",
      "assetIds": []
    },
    {
      "x": 182,
      "y": 114,
      "size": 1,
      "price": "905000000000000000000",
      "reserved": "",
      "assetIds": []
    },
    {
      "x": 182,
      "y": 115,
      "size": 1,
      "price": "905000000000000000000",
      "reserved": "",
      "assetIds": []
    },
    {
      "x": 183,
      "y": 115,
      "size": 1,
      "price": "905000000000000000000",
      "reserved": "",
      "assetIds": []
    },
    {
      "x": 183,
      "y": 116,
      "size": 1,
      "price": "905000000000000000000",
      "reserved": "",
      "assetIds": []
    },
    {
      "x": 183,
      "y": 117,
      "size": 1,
      "price": "905000000000000000000",
      "reserved": "",
      "assetIds": []
    },
    {
      "x": 183,
      "y": 118,
      "size": 1,
      "price": "905000000000000000000",
      "reserved": "",
      "assetIds": []
    },
    {
      "x": 183,
      "y": 119,
      "size": 1,
      "price": "905000000000000000000",
      "reserved": "",
      "assetIds": []
    },
    {
      "x": 182,
      "y": 118,
      "size": 1,
      "price": "905000000000000000000",
      "reserved": "",
      "assetIds": []
    },
    {
      "x": 182,
      "y": 117,
      "size": 1,
      "price": "905000000000000000000",
      "reserved": "",
      "assetIds": []
    },
    {
      "x": 181,
      "y": 116,
      "size": 1,
      "price": "905000000000000000000",
      "reserved": "",
      "assetIds": []
    },
    {
      "x": 181,
      "y": 115,
      "size": 1,
      "price": "905000000000000000000",
      "reserved": "",
      "assetIds": []
    },
    {
      "x": 181,
      "y": 117,
      "size": 1,
      "price": "905000000000000000000",
      "reserved": "",
      "assetIds": []
    },
    {
      "x": 181,
      "y": 118,
      "size": 1,
      "price": "905000000000000000000",
      "reserved": "",
      "assetIds": []
    },
    {
      "x": 181,
      "y": 119,
      "size": 1,
      "price": "905000000000000000000",
      "reserved": "",
      "assetIds": []
    },
    {
      "x": 182,
      "y": 119,
      "size": 1,
      "price": "905000000000000000000",
      "reserved": "",
      "assetIds": []
    },
    {
      "x": 182,
      "y": 116,
      "size": 1,
      "price": "905000000000000000000",
      "reserved": "",
      "assetIds": []
    },
    {
      "x": 180,
      "y": 114,
      "size": 1,
      "price": "905000000000000000000",
      "reserved": "",
      "assetIds": []
    },
    {
      "x": 180,
      "y": 115,
      "size": 1,
      "price": "905000000000000000000",
      "reserved": "",
      "assetIds": []
    },
    {
      "x": 180,
      "y": 116,
      "size": 1,
      "price": "905000000000000000000",
      "reserved": "",
      "assetIds": []
    },
    {
      "x": 180,
      "y": 117,
      "size": 1,
      "price": "905000000000000000000",
      "reserved": "",
      "assetIds": []
    },
    {
      "x": 179,
      "y": 116,
      "size": 1,
      "price": "905000000000000000000",
      "reserved": "",
      "assetIds": []
    },
    {
      "x": 179,
      "y": 115,
      "size": 1,
      "price": "905000000000000000000",
      "reserved": "",
      "assetIds": []
    },
    {
      "x": 178,
      "y": 116,
      "size": 1,
      "price": "905000000000000000000",
      "reserved": "",
      "assetIds": []
    },
    {
      "x": 178,
      "y": 115,
      "size": 1,
      "price": "905000000000000000000",
      "reserved": "",
      "assetIds": []
    },
    {
      "x": 178,
      "y": 114,
      "size": 1,
      "price": "905000000000000000000",
      "reserved": "",
      "assetIds": []
    },
    {
      "x": 179,
      "y": 114,
      "size": 1,
      "price": "905000000000000000000",
      "reserved": "",
      "assetIds": []
    },
    {
      "x": 177,
      "y": 116,
      "size": 1,
      "price": "905000000000000000000",
      "reserved": "",
      "assetIds": []
    },
    {
      "x": 177,
      "y": 115,
      "size": 1,
      "price": "905000000000000000000",
      "reserved": "",
      "assetIds": []
    },
    {
      "x": 177,
      "y": 114,
      "size": 1,
      "price": "905000000000000000000",
      "reserved": "",
      "assetIds": []
    },
    {
      "x": 180,
      "y": 119,
      "size": 1,
      "price": "905000000000000000000",
      "reserved": "",
      "assetIds": []
    },
    {
      "x": 180,
      "y": 118,
      "size": 1,
      "price": "905000000000000000000",
      "reserved": "",
      "assetIds": []
    },
    {
      "x": 185,
      "y": 119,
      "size": 1,
      "price": "905000000000000000000",
      "reserved": "",
      "assetIds": []
    },
    {
      "x": 185,
      "y": 118,
      "size": 1,
      "price": "905000000000000000000",
      "reserved": "",
      "assetIds": []
    },
    {
      "x": 185,
      "y": 117,
      "size": 1,
      "price": "905000000000000000000",
      "reserved": "",
      "assetIds": []
    },
    {
      "x": 185,
      "y": 116,
      "size": 1,
      "price": "905000000000000000000",
      "reserved": "",
      "assetIds": []
    },
    {
      "x": 185,
      "y": 115,
      "size": 1,
      "price": "905000000000000000000",
      "reserved": "",
      "assetIds": []
    },
    {
      "x": 185,
      "y": 114,
      "size": 1,
      "price": "905000000000000000000",
      "reserved": "",
      "assetIds": []
    },
    {
      "x": 184,
      "y": 114,
      "size": 1,
      "price": "905000000000000000000",
      "reserved": "",
      "assetIds": []
    },
    {
      "x": 183,
      "y": 114,
      "size": 1,
      "price": "905000000000000000000",
      "reserved": "",
      "assetIds": []
    },
    {
      "x": 184,
      "y": 115,
      "size": 1,
      "price": "905000000000000000000",
      "reserved": "",
      "assetIds": []
    },
    {
      "x": 184,
      "y": 118,
      "size": 1,
      "price": "905000000000000000000",
      "reserved": "",
      "assetIds": []
    },
    {
      "x": 184,
      "y": 119,
      "size": 1,
      "price": "905000000000000000000",
      "reserved": "",
      "assetIds": []
    },
    {
      "x": 184,
      "y": 117,
      "size": 1,
      "price": "905000000000000000000",
      "reserved": "",
      "assetIds": []
    },
    {
      "x": 184,
      "y": 116,
      "size": 1,
      "price": "905000000000000000000",
      "reserved": "",
      "assetIds": []
    },
    {
      "x": 187,
      "y": 120,
      "size": 1,
      "price": "905000000000000000000",
      "reserved": "",
      "assetIds": []
    },
    {
      "x": 188,
      "y": 120,
      "size": 1,
      "price": "905000000000000000000",
      "reserved": "",
      "assetIds": []
    },
    {
      "x": 188,
      "y": 121,
      "size": 1,
      "price": "905000000000000000000",
      "reserved": "",
      "assetIds": []
    },
    {
      "x": 188,
      "y": 122,
      "size": 1,
      "price": "905000000000000000000",
      "reserved": "",
      "assetIds": []
    },
    {
      "x": 187,
      "y": 121,
      "size": 1,
      "price": "905000000000000000000",
      "reserved": "",
      "assetIds": []
    },
    {
      "x": 186,
      "y": 120,
      "size": 1,
      "price": "905000000000000000000",
      "reserved": "",
      "assetIds": []
    },
    {
      "x": 187,
      "y": 122,
      "size": 1,
      "price": "905000000000000000000",
      "reserved": "",
      "assetIds": []
    },
    {
      "x": 186,
      "y": 122,
      "size": 1,
      "price": "905000000000000000000",
      "reserved": "",
      "assetIds": []
    },
    {
      "x": 186,
      "y": 121,
      "size": 1,
      "price": "905000000000000000000",
      "reserved": "",
      "assetIds": []
    },
    {
      "x": 191,
      "y": 124,
      "size": 1,
      "price": "905000000000000000000",
      "reserved": "",
      "assetIds": []
    },
    {
      "x": 190,
      "y": 124,
      "size": 1,
      "price": "905000000000000000000",
      "reserved": "",
      "assetIds": []
    },
    {
      "x": 190,
      "y": 123,
      "size": 1,
      "price": "905000000000000000000",
      "reserved": "",
      "assetIds": []
    },
    {
      "x": 189,
      "y": 123,
      "size": 1,
      "price": "905000000000000000000",
      "reserved": "",
      "assetIds": []
    },
    {
      "x": 191,
      "y": 123,
      "size": 1,
      "price": "905000000000000000000",
      "reserved": "",
      "assetIds": []
    },
    {
      "x": 191,
      "y": 125,
      "size": 1,
      "price": "905000000000000000000",
      "reserved": "",
      "assetIds": []
    },
    {
      "x": 190,
      "y": 125,
      "size": 1,
      "price": "905000000000000000000",
      "reserved": "",
      "assetIds": []
    },
    {
      "x": 189,
      "y": 125,
      "size": 1,
      "price": "905000000000000000000",
      "reserved": "",
      "assetIds": []
    },
    {
      "x": 189,
      "y": 124,
      "size": 1,
      "price": "905000000000000000000",
      "reserved": "",
      "assetIds": []
    },
    {
      "x": 179,
      "y": 122,
      "size": 1,
      "price": "905000000000000000000",
      "reserved": "",
      "assetIds": []
    },
    {
      "x": 179,
      "y": 121,
      "size": 1,
      "price": "905000000000000000000",
      "reserved": "",
      "assetIds": []
    },
    {
      "x": 178,
      "y": 121,
      "size": 1,
      "price": "905000000000000000000",
      "reserved": "",
      "assetIds": []
    },
    {
      "x": 178,
      "y": 120,
      "size": 1,
      "price": "905000000000000000000",
      "reserved": "",
      "assetIds": []
    },
    {
      "x": 176,
      "y": 120,
      "size": 1,
      "price": "905000000000000000000",
      "reserved": "",
      "assetIds": []
    },
    {
      "x": 176,
      "y": 119,
      "size": 1,
      "price": "905000000000000000000",
      "reserved": "",
      "assetIds": []
    },
    {
      "x": 176,
      "y": 118,
      "size": 1,
      "price": "905000000000000000000",
      "reserved": "",
      "assetIds": []
    },
    {
      "x": 177,
      "y": 121,
      "size": 1,
      "price": "905000000000000000000",
      "reserved": "",
      "assetIds": []
    },
    {
      "x": 177,
      "y": 122,
      "size": 1,
      "price": "905000000000000000000",
      "reserved": "",
      "assetIds": []
    },
    {
      "x": 177,
      "y": 123,
      "size": 1,
      "price": "905000000000000000000",
      "reserved": "",
      "assetIds": []
    },
    {
      "x": 178,
      "y": 124,
      "size": 1,
      "price": "905000000000000000000",
      "reserved": "",
      "assetIds": []
    },
    {
      "x": 178,
      "y": 125,
      "size": 1,
      "price": "905000000000000000000",
      "reserved": "",
      "assetIds": []
    },
    {
      "x": 178,
      "y": 123,
      "size": 1,
      "price": "905000000000000000000",
      "reserved": "",
      "assetIds": []
    },
    {
      "x": 178,
      "y": 122,
      "size": 1,
      "price": "905000000000000000000",
      "reserved": "",
      "assetIds": []
    },
    {
      "x": 178,
      "y": 126,
      "size": 1,
      "price": "905000000000000000000",
      "reserved": "",
      "assetIds": []
    },
    {
      "x": 178,
      "y": 127,
      "size": 1,
      "price": "905000000000000000000",
      "reserved": "",
      "assetIds": []
    },
    {
      "x": 179,
      "y": 123,
      "size": 1,
      "price": "905000000000000000000",
      "reserved": "",
      "assetIds": []
    },
    {
      "x": 179,
      "y": 124,
      "size": 1,
      "price": "905000000000000000000",
      "reserved": "",
      "assetIds": []
    },
    {
      "x": 179,
      "y": 125,
      "size": 1,
      "price": "905000000000000000000",
      "reserved": "",
      "assetIds": []
    },
    {
      "x": 179,
      "y": 127,
      "size": 1,
      "price": "905000000000000000000",
      "reserved": "",
      "assetIds": []
    },
    {
      "x": 179,
      "y": 128,
      "size": 1,
      "price": "905000000000000000000",
      "reserved": "",
      "assetIds": []
    },
    {
      "x": 179,
      "y": 129,
      "size": 1,
      "price": "905000000000000000000",
      "reserved": "",
      "assetIds": []
    },
    {
      "x": 179,
      "y": 130,
      "size": 1,
      "price": "905000000000000000000",
      "reserved": "",
      "assetIds": []
    },
    {
      "x": 178,
      "y": 128,
      "size": 1,
      "price": "905000000000000000000",
      "reserved": "",
      "assetIds": []
    },
    {
      "x": 177,
      "y": 125,
      "size": 1,
      "price": "905000000000000000000",
      "reserved": "",
      "assetIds": []
    },
    {
      "x": 177,
      "y": 124,
      "size": 1,
      "price": "905000000000000000000",
      "reserved": "",
      "assetIds": []
    },
    {
      "x": 176,
      "y": 123,
      "size": 1,
      "price": "905000000000000000000",
      "reserved": "",
      "assetIds": []
    },
    {
      "x": 176,
      "y": 122,
      "size": 1,
      "price": "905000000000000000000",
      "reserved": "",
      "assetIds": []
    },
    {
      "x": 175,
      "y": 123,
      "size": 1,
      "price": "905000000000000000000",
      "reserved": "",
      "assetIds": []
    },
    {
      "x": 175,
      "y": 124,
      "size": 1,
      "price": "905000000000000000000",
      "reserved": "",
      "assetIds": []
    },
    {
      "x": 175,
      "y": 125,
      "size": 1,
      "price": "905000000000000000000",
      "reserved": "",
      "assetIds": []
    },
    {
      "x": 174,
      "y": 123,
      "size": 1,
      "price": "905000000000000000000",
      "reserved": "",
      "assetIds": []
    },
    {
      "x": 174,
      "y": 121,
      "size": 1,
      "price": "905000000000000000000",
      "reserved": "",
      "assetIds": []
    },
    {
      "x": 173,
      "y": 120,
      "size": 1,
      "price": "905000000000000000000",
      "reserved": "",
      "assetIds": []
    },
    {
      "x": 173,
      "y": 118,
      "size": 1,
      "price": "905000000000000000000",
      "reserved": "",
      "assetIds": []
    },
    {
      "x": 172,
      "y": 117,
      "size": 1,
      "price": "905000000000000000000",
      "reserved": "",
      "assetIds": []
    },
    {
      "x": 172,
      "y": 116,
      "size": 1,
      "price": "905000000000000000000",
      "reserved": "",
      "assetIds": []
    },
    {
      "x": 172,
      "y": 118,
      "size": 1,
      "price": "905000000000000000000",
      "reserved": "",
      "assetIds": []
    },
    {
      "x": 172,
      "y": 119,
      "size": 1,
      "price": "905000000000000000000",
      "reserved": "",
      "assetIds": []
    },
    {
      "x": 171,
      "y": 120,
      "size": 1,
      "price": "905000000000000000000",
      "reserved": "",
      "assetIds": []
    },
    {
      "x": 171,
      "y": 121,
      "size": 1,
      "price": "905000000000000000000",
      "reserved": "",
      "assetIds": []
    },
    {
      "x": 171,
      "y": 122,
      "size": 1,
      "price": "905000000000000000000",
      "reserved": "",
      "assetIds": []
    },
    {
      "x": 171,
      "y": 123,
      "size": 1,
      "price": "905000000000000000000",
      "reserved": "",
      "assetIds": []
    },
    {
      "x": 171,
      "y": 124,
      "size": 1,
      "price": "905000000000000000000",
      "reserved": "",
      "assetIds": []
    },
    {
      "x": 171,
      "y": 125,
      "size": 1,
      "price": "905000000000000000000",
      "reserved": "",
      "assetIds": []
    },
    {
      "x": 172,
      "y": 121,
      "size": 1,
      "price": "905000000000000000000",
      "reserved": "",
      "assetIds": []
    },
    {
      "x": 172,
      "y": 120,
      "size": 1,
      "price": "905000000000000000000",
      "reserved": "",
      "assetIds": []
    },
    {
      "x": 172,
      "y": 115,
      "size": 1,
      "price": "905000000000000000000",
      "reserved": "",
      "assetIds": []
    },
    {
      "x": 172,
      "y": 114,
      "size": 1,
      "price": "905000000000000000000",
      "reserved": "",
      "assetIds": []
    },
    {
      "x": 172,
      "y": 122,
      "size": 1,
      "price": "905000000000000000000",
      "reserved": "",
      "assetIds": []
    },
    {
      "x": 172,
      "y": 123,
      "size": 1,
      "price": "905000000000000000000",
      "reserved": "",
      "assetIds": []
    },
    {
      "x": 172,
      "y": 124,
      "size": 1,
      "price": "905000000000000000000",
      "reserved": "",
      "assetIds": []
    },
    {
      "x": 172,
      "y": 125,
      "size": 1,
      "price": "905000000000000000000",
      "reserved": "",
      "assetIds": []
    },
    {
      "x": 171,
      "y": 118,
      "size": 1,
      "price": "905000000000000000000",
      "reserved": "",
      "assetIds": []
    },
    {
      "x": 170,
      "y": 117,
      "size": 1,
      "price": "905000000000000000000",
      "reserved": "",
      "assetIds": []
    },
    {
      "x": 170,
      "y": 116,
      "size": 1,
      "price": "905000000000000000000",
      "reserved": "",
      "assetIds": []
    },
    {
      "x": 170,
      "y": 115,
      "size": 1,
      "price": "905000000000000000000",
      "reserved": "",
      "assetIds": []
    },
    {
      "x": 170,
      "y": 114,
      "size": 1,
      "price": "905000000000000000000",
      "reserved": "",
      "assetIds": []
    },
    {
      "x": 169,
      "y": 116,
      "size": 1,
      "price": "905000000000000000000",
      "reserved": "",
      "assetIds": []
    },
    {
      "x": 169,
      "y": 117,
      "size": 1,
      "price": "905000000000000000000",
      "reserved": "",
      "assetIds": []
    },
    {
      "x": 169,
      "y": 118,
      "size": 1,
      "price": "905000000000000000000",
      "reserved": "",
      "assetIds": []
    },
    {
      "x": 169,
      "y": 119,
      "size": 1,
      "price": "905000000000000000000",
      "reserved": "",
      "assetIds": []
    },
    {
      "x": 169,
      "y": 120,
      "size": 1,
      "price": "905000000000000000000",
      "reserved": "",
      "assetIds": []
    },
    {
      "x": 169,
      "y": 115,
      "size": 1,
      "price": "905000000000000000000",
      "reserved": "",
      "assetIds": []
    },
    {
      "x": 170,
      "y": 119,
      "size": 1,
      "price": "905000000000000000000",
      "reserved": "",
      "assetIds": []
    },
    {
      "x": 170,
      "y": 120,
      "size": 1,
      "price": "905000000000000000000",
      "reserved": "",
      "assetIds": []
    },
    {
      "x": 170,
      "y": 121,
      "size": 1,
      "price": "905000000000000000000",
      "reserved": "",
      "assetIds": []
    },
    {
      "x": 170,
      "y": 122,
      "size": 1,
      "price": "905000000000000000000",
      "reserved": "",
      "assetIds": []
    },
    {
      "x": 171,
      "y": 119,
      "size": 1,
      "price": "905000000000000000000",
      "reserved": "",
      "assetIds": []
    },
    {
      "x": 171,
      "y": 117,
      "size": 1,
      "price": "905000000000000000000",
      "reserved": "",
      "assetIds": []
    },
    {
      "x": 171,
      "y": 116,
      "size": 1,
      "price": "905000000000000000000",
      "reserved": "",
      "assetIds": []
    },
    {
      "x": 171,
      "y": 115,
      "size": 1,
      "price": "905000000000000000000",
      "reserved": "",
      "assetIds": []
    },
    {
      "x": 169,
      "y": 121,
      "size": 1,
      "price": "905000000000000000000",
      "reserved": "",
      "assetIds": []
    },
    {
      "x": 168,
      "y": 123,
      "size": 1,
      "price": "905000000000000000000",
      "reserved": "",
      "assetIds": []
    },
    {
      "x": 168,
      "y": 124,
      "size": 1,
      "price": "905000000000000000000",
      "reserved": "",
      "assetIds": []
    },
    {
      "x": 168,
      "y": 125,
      "size": 1,
      "price": "905000000000000000000",
      "reserved": "",
      "assetIds": []
    },
    {
      "x": 168,
      "y": 122,
      "size": 1,
      "price": "905000000000000000000",
      "reserved": "",
      "assetIds": []
    },
    {
      "x": 168,
      "y": 121,
      "size": 1,
      "price": "905000000000000000000",
      "reserved": "",
      "assetIds": []
    },
    {
      "x": 168,
      "y": 120,
      "size": 1,
      "price": "905000000000000000000",
      "reserved": "",
      "assetIds": []
    },
    {
      "x": 168,
      "y": 118,
      "size": 1,
      "price": "905000000000000000000",
      "reserved": "",
      "assetIds": []
    },
    {
      "x": 168,
      "y": 117,
      "size": 1,
      "price": "905000000000000000000",
      "reserved": "",
      "assetIds": []
    },
    {
      "x": 168,
      "y": 116,
      "size": 1,
      "price": "905000000000000000000",
      "reserved": "",
      "assetIds": []
    },
    {
      "x": 168,
      "y": 115,
      "size": 1,
      "price": "905000000000000000000",
      "reserved": "",
      "assetIds": []
    },
    {
      "x": 168,
      "y": 119,
      "size": 1,
      "price": "905000000000000000000",
      "reserved": "",
      "assetIds": []
    },
    {
      "x": 168,
      "y": 114,
      "size": 1,
      "price": "905000000000000000000",
      "reserved": "",
      "assetIds": []
    },
    {
      "x": 167,
      "y": 113,
      "size": 1,
      "price": "905000000000000000000",
      "reserved": "",
      "assetIds": []
    },
    {
      "x": 167,
      "y": 112,
      "size": 1,
      "price": "905000000000000000000",
      "reserved": "",
      "assetIds": []
    },
    {
      "x": 167,
      "y": 111,
      "size": 1,
      "price": "905000000000000000000",
      "reserved": "",
      "assetIds": []
    },
    {
      "x": 169,
      "y": 114,
      "size": 1,
      "price": "905000000000000000000",
      "reserved": "",
      "assetIds": []
    },
    {
      "x": 171,
      "y": 114,
      "size": 1,
      "price": "905000000000000000000",
      "reserved": "",
      "assetIds": []
    },
    {
      "x": 173,
      "y": 114,
      "size": 1,
      "price": "905000000000000000000",
      "reserved": "",
      "assetIds": []
    },
    {
      "x": 173,
      "y": 115,
      "size": 1,
      "price": "905000000000000000000",
      "reserved": "",
      "assetIds": []
    },
    {
      "x": 173,
      "y": 119,
      "size": 1,
      "price": "905000000000000000000",
      "reserved": "",
      "assetIds": []
    },
    {
      "x": 174,
      "y": 122,
      "size": 1,
      "price": "905000000000000000000",
      "reserved": "",
      "assetIds": []
    },
    {
      "x": 174,
      "y": 119,
      "size": 1,
      "price": "905000000000000000000",
      "reserved": "",
      "assetIds": []
    },
    {
      "x": 174,
      "y": 118,
      "size": 1,
      "price": "905000000000000000000",
      "reserved": "",
      "assetIds": []
    },
    {
      "x": 174,
      "y": 117,
      "size": 1,
      "price": "905000000000000000000",
      "reserved": "",
      "assetIds": []
    },
    {
      "x": 174,
      "y": 120,
      "size": 1,
      "price": "905000000000000000000",
      "reserved": "",
      "assetIds": []
    },
    {
      "x": 175,
      "y": 120,
      "size": 1,
      "price": "905000000000000000000",
      "reserved": "",
      "assetIds": []
    },
    {
      "x": 175,
      "y": 121,
      "size": 1,
      "price": "905000000000000000000",
      "reserved": "",
      "assetIds": []
    },
    {
      "x": 175,
      "y": 119,
      "size": 1,
      "price": "905000000000000000000",
      "reserved": "",
      "assetIds": []
    },
    {
      "x": 175,
      "y": 118,
      "size": 1,
      "price": "905000000000000000000",
      "reserved": "",
      "assetIds": []
    },
    {
      "x": 175,
      "y": 117,
      "size": 1,
      "price": "905000000000000000000",
      "reserved": "",
      "assetIds": []
    },
    {
      "x": 176,
      "y": 117,
      "size": 1,
      "price": "905000000000000000000",
      "reserved": "",
      "assetIds": []
    },
    {
      "x": 173,
      "y": 117,
      "size": 1,
      "price": "905000000000000000000",
      "reserved": "",
      "assetIds": []
    },
    {
      "x": 173,
      "y": 116,
      "size": 1,
      "price": "905000000000000000000",
      "reserved": "",
      "assetIds": []
    },
    {
      "x": 170,
      "y": 118,
      "size": 1,
      "price": "905000000000000000000",
      "reserved": "",
      "assetIds": []
    },
    {
      "x": 170,
      "y": 123,
      "size": 1,
      "price": "905000000000000000000",
      "reserved": "",
      "assetIds": []
    },
    {
      "x": 170,
      "y": 124,
      "size": 1,
      "price": "905000000000000000000",
      "reserved": "",
      "assetIds": []
    },
    {
      "x": 170,
      "y": 125,
      "size": 1,
      "price": "905000000000000000000",
      "reserved": "",
      "assetIds": []
    },
    {
      "x": 169,
      "y": 124,
      "size": 1,
      "price": "905000000000000000000",
      "reserved": "",
      "assetIds": []
    },
    {
      "x": 169,
      "y": 123,
      "size": 1,
      "price": "905000000000000000000",
      "reserved": "",
      "assetIds": []
    },
    {
      "x": 169,
      "y": 122,
      "size": 1,
      "price": "905000000000000000000",
      "reserved": "",
      "assetIds": []
    },
    {
      "x": 173,
      "y": 123,
      "size": 1,
      "price": "905000000000000000000",
      "reserved": "",
      "assetIds": []
    },
    {
      "x": 176,
      "y": 121,
      "size": 1,
      "price": "905000000000000000000",
      "reserved": "",
      "assetIds": []
    },
    {
      "x": 173,
      "y": 121,
      "size": 1,
      "price": "905000000000000000000",
      "reserved": "",
      "assetIds": []
    },
    {
      "x": 175,
      "y": 122,
      "size": 1,
      "price": "905000000000000000000",
      "reserved": "",
      "assetIds": []
    },
    {
      "x": 173,
      "y": 122,
      "size": 1,
      "price": "905000000000000000000",
      "reserved": "",
      "assetIds": []
    },
    {
      "x": 174,
      "y": 128,
      "size": 1,
      "price": "905000000000000000000",
      "reserved": "",
      "assetIds": []
    },
    {
      "x": 174,
      "y": 127,
      "size": 1,
      "price": "905000000000000000000",
      "reserved": "",
      "assetIds": []
    },
    {
      "x": 175,
      "y": 127,
      "size": 1,
      "price": "905000000000000000000",
      "reserved": "",
      "assetIds": []
    },
    {
      "x": 176,
      "y": 127,
      "size": 1,
      "price": "905000000000000000000",
      "reserved": "",
      "assetIds": []
    },
    {
      "x": 176,
      "y": 126,
      "size": 1,
      "price": "905000000000000000000",
      "reserved": "",
      "assetIds": []
    },
    {
      "x": 176,
      "y": 125,
      "size": 1,
      "price": "905000000000000000000",
      "reserved": "",
      "assetIds": []
    },
    {
      "x": 176,
      "y": 124,
      "size": 1,
      "price": "905000000000000000000",
      "reserved": "",
      "assetIds": []
    },
    {
      "x": 175,
      "y": 126,
      "size": 1,
      "price": "905000000000000000000",
      "reserved": "",
      "assetIds": []
    },
    {
      "x": 174,
      "y": 125,
      "size": 1,
      "price": "905000000000000000000",
      "reserved": "",
      "assetIds": []
    },
    {
      "x": 174,
      "y": 124,
      "size": 1,
      "price": "905000000000000000000",
      "reserved": "",
      "assetIds": []
    },
    {
      "x": 174,
      "y": 126,
      "size": 1,
      "price": "905000000000000000000",
      "reserved": "",
      "assetIds": []
    },
    {
      "x": 173,
      "y": 125,
      "size": 1,
      "price": "905000000000000000000",
      "reserved": "",
      "assetIds": []
    },
    {
      "x": 177,
      "y": 126,
      "size": 1,
      "price": "905000000000000000000",
      "reserved": "",
      "assetIds": []
    },
    {
      "x": 177,
      "y": 127,
      "size": 1,
      "price": "905000000000000000000",
      "reserved": "",
      "assetIds": []
    },
    {
      "x": 179,
      "y": 126,
      "size": 1,
      "price": "905000000000000000000",
      "reserved": "",
      "assetIds": []
    },
    {
      "x": 173,
      "y": 124,
      "size": 1,
      "price": "905000000000000000000",
      "reserved": "",
      "assetIds": []
    },
    {
      "x": 169,
      "y": 125,
      "size": 1,
      "price": "905000000000000000000",
      "reserved": "",
      "assetIds": []
    },
    {
      "x": 178,
      "y": 129,
      "size": 1,
      "price": "905000000000000000000",
      "reserved": "",
      "assetIds": []
    },
    {
      "x": 177,
      "y": 129,
      "size": 1,
      "price": "905000000000000000000",
      "reserved": "",
      "assetIds": []
    },
    {
      "x": 176,
      "y": 128,
      "size": 1,
      "price": "905000000000000000000",
      "reserved": "",
      "assetIds": []
    },
    {
      "x": 175,
      "y": 128,
      "size": 1,
      "price": "905000000000000000000",
      "reserved": "",
      "assetIds": []
    },
    {
      "x": 177,
      "y": 128,
      "size": 1,
      "price": "905000000000000000000",
      "reserved": "",
      "assetIds": []
    },
    {
      "x": 176,
      "y": 129,
      "size": 1,
      "price": "905000000000000000000",
      "reserved": "",
      "assetIds": []
    },
    {
      "x": 175,
      "y": 129,
      "size": 1,
      "price": "905000000000000000000",
      "reserved": "",
      "assetIds": []
    },
    {
      "x": 174,
      "y": 130,
      "size": 1,
      "price": "905000000000000000000",
      "reserved": "",
      "assetIds": []
    },
    {
      "x": 174,
      "y": 129,
      "size": 1,
      "price": "905000000000000000000",
      "reserved": "",
      "assetIds": []
    },
    {
      "x": 177,
      "y": 130,
      "size": 1,
      "price": "905000000000000000000",
      "reserved": "",
      "assetIds": []
    },
    {
      "x": 178,
      "y": 130,
      "size": 1,
      "price": "905000000000000000000",
      "reserved": "",
      "assetIds": []
    },
    {
      "x": 178,
      "y": 131,
      "size": 1,
      "price": "905000000000000000000",
      "reserved": "",
      "assetIds": []
    },
    {
      "x": 177,
      "y": 131,
      "size": 1,
      "price": "905000000000000000000",
      "reserved": "",
      "assetIds": []
    },
    {
      "x": 176,
      "y": 131,
      "size": 1,
      "price": "905000000000000000000",
      "reserved": "",
      "assetIds": []
    },
    {
      "x": 175,
      "y": 131,
      "size": 1,
      "price": "905000000000000000000",
      "reserved": "",
      "assetIds": []
    },
    {
      "x": 174,
      "y": 131,
      "size": 1,
      "price": "905000000000000000000",
      "reserved": "",
      "assetIds": []
    },
    {
      "x": 176,
      "y": 130,
      "size": 1,
      "price": "905000000000000000000",
      "reserved": "",
      "assetIds": []
    },
    {
      "x": 175,
      "y": 130,
      "size": 1,
      "price": "905000000000000000000",
      "reserved": "",
      "assetIds": []
    },
    {
      "x": 179,
      "y": 131,
      "size": 1,
      "price": "905000000000000000000",
      "reserved": "",
      "assetIds": []
    },
    {
      "x": 179,
      "y": 132,
      "size": 1,
      "price": "905000000000000000000",
      "reserved": "",
      "assetIds": []
    },
    {
      "x": 178,
      "y": 132,
      "size": 1,
      "price": "905000000000000000000",
      "reserved": "",
      "assetIds": []
    },
    {
      "x": 178,
      "y": 133,
      "size": 1,
      "price": "905000000000000000000",
      "reserved": "",
      "assetIds": []
    },
    {
      "x": 177,
      "y": 133,
      "size": 1,
      "price": "905000000000000000000",
      "reserved": "",
      "assetIds": []
    },
    {
      "x": 176,
      "y": 133,
      "size": 1,
      "price": "905000000000000000000",
      "reserved": "",
      "assetIds": []
    },
    {
      "x": 175,
      "y": 133,
      "size": 1,
      "price": "905000000000000000000",
      "reserved": "",
      "assetIds": []
    },
    {
      "x": 174,
      "y": 133,
      "size": 1,
      "price": "905000000000000000000",
      "reserved": "",
      "assetIds": []
    },
    {
      "x": 173,
      "y": 133,
      "size": 1,
      "price": "905000000000000000000",
      "reserved": "",
      "assetIds": []
    },
    {
      "x": 172,
      "y": 133,
      "size": 1,
      "price": "905000000000000000000",
      "reserved": "",
      "assetIds": []
    },
    {
      "x": 171,
      "y": 133,
      "size": 1,
      "price": "905000000000000000000",
      "reserved": "",
      "assetIds": []
    },
    {
      "x": 170,
      "y": 132,
      "size": 1,
      "price": "905000000000000000000",
      "reserved": "",
      "assetIds": []
    },
    {
      "x": 169,
      "y": 132,
      "size": 1,
      "price": "905000000000000000000",
      "reserved": "",
      "assetIds": []
    },
    {
      "x": 169,
      "y": 133,
      "size": 1,
      "price": "905000000000000000000",
      "reserved": "",
      "assetIds": []
    },
    {
      "x": 168,
      "y": 133,
      "size": 1,
      "price": "905000000000000000000",
      "reserved": "",
      "assetIds": []
    },
    {
      "x": 167,
      "y": 133,
      "size": 1,
      "price": "905000000000000000000",
      "reserved": "",
      "assetIds": []
    },
    {
      "x": 166,
      "y": 133,
      "size": 1,
      "price": "905000000000000000000",
      "reserved": "",
      "assetIds": []
    },
    {
      "x": 173,
      "y": 132,
      "size": 1,
      "price": "905000000000000000000",
      "reserved": "",
      "assetIds": []
    },
    {
      "x": 174,
      "y": 132,
      "size": 1,
      "price": "905000000000000000000",
      "reserved": "",
      "assetIds": []
    },
    {
      "x": 175,
      "y": 132,
      "size": 1,
      "price": "905000000000000000000",
      "reserved": "",
      "assetIds": []
    },
    {
      "x": 176,
      "y": 132,
      "size": 1,
      "price": "905000000000000000000",
      "reserved": "",
      "assetIds": []
    },
    {
      "x": 177,
      "y": 132,
      "size": 1,
      "price": "905000000000000000000",
      "reserved": "",
      "assetIds": []
    },
    {
      "x": 172,
      "y": 132,
      "size": 1,
      "price": "905000000000000000000",
      "reserved": "",
      "assetIds": []
    },
    {
      "x": 171,
      "y": 132,
      "size": 1,
      "price": "905000000000000000000",
      "reserved": "",
      "assetIds": []
    },
    {
      "x": 168,
      "y": 132,
      "size": 1,
      "price": "905000000000000000000",
      "reserved": "",
      "assetIds": []
    },
    {
      "x": 167,
      "y": 132,
      "size": 1,
      "price": "905000000000000000000",
      "reserved": "",
      "assetIds": []
    },
    {
      "x": 166,
      "y": 132,
      "size": 1,
      "price": "905000000000000000000",
      "reserved": "",
      "assetIds": []
    },
    {
      "x": 165,
      "y": 132,
      "size": 1,
      "price": "905000000000000000000",
      "reserved": "",
      "assetIds": []
    },
    {
      "x": 165,
      "y": 133,
      "size": 1,
      "price": "905000000000000000000",
      "reserved": "",
      "assetIds": []
    },
    {
      "x": 170,
      "y": 133,
      "size": 1,
      "price": "905000000000000000000",
      "reserved": "",
      "assetIds": []
    },
    {
      "x": 179,
      "y": 133,
      "size": 1,
      "price": "905000000000000000000",
      "reserved": "",
      "assetIds": []
    },
    {
      "x": 179,
      "y": 134,
      "size": 1,
      "price": "905000000000000000000",
      "reserved": "",
      "assetIds": []
    },
    {
      "x": 178,
      "y": 134,
      "size": 1,
      "price": "905000000000000000000",
      "reserved": "",
      "assetIds": []
    },
    {
      "x": 177,
      "y": 134,
      "size": 1,
      "price": "905000000000000000000",
      "reserved": "",
      "assetIds": []
    },
    {
      "x": 176,
      "y": 134,
      "size": 1,
      "price": "905000000000000000000",
      "reserved": "",
      "assetIds": []
    },
    {
      "x": 175,
      "y": 134,
      "size": 1,
      "price": "905000000000000000000",
      "reserved": "",
      "assetIds": []
    },
    {
      "x": 174,
      "y": 134,
      "size": 1,
      "price": "905000000000000000000",
      "reserved": "",
      "assetIds": []
    },
    {
      "x": 173,
      "y": 134,
      "size": 1,
      "price": "905000000000000000000",
      "reserved": "",
      "assetIds": []
    },
    {
      "x": 172,
      "y": 134,
      "size": 1,
      "price": "905000000000000000000",
      "reserved": "",
      "assetIds": []
    },
    {
      "x": 171,
      "y": 134,
      "size": 1,
      "price": "905000000000000000000",
      "reserved": "",
      "assetIds": []
    },
    {
      "x": 170,
      "y": 134,
      "size": 1,
      "price": "905000000000000000000",
      "reserved": "",
      "assetIds": []
    },
    {
      "x": 169,
      "y": 134,
      "size": 1,
      "price": "905000000000000000000",
      "reserved": "",
      "assetIds": []
    },
    {
      "x": 168,
      "y": 134,
      "size": 1,
      "price": "905000000000000000000",
      "reserved": "",
      "assetIds": []
    },
    {
      "x": 167,
      "y": 134,
      "size": 1,
      "price": "905000000000000000000",
      "reserved": "",
      "assetIds": []
    },
    {
      "x": 166,
      "y": 134,
      "size": 1,
      "price": "905000000000000000000",
      "reserved": "",
      "assetIds": []
    },
    {
      "x": 165,
      "y": 134,
      "size": 1,
      "price": "905000000000000000000",
      "reserved": "",
      "assetIds": []
    },
    {
      "x": 165,
      "y": 135,
      "size": 1,
      "price": "905000000000000000000",
      "reserved": "",
      "assetIds": []
    },
    {
      "x": 165,
      "y": 136,
      "size": 1,
      "price": "905000000000000000000",
      "reserved": "",
      "assetIds": []
    },
    {
      "x": 165,
      "y": 137,
      "size": 1,
      "price": "905000000000000000000",
      "reserved": "",
      "assetIds": []
    },
    {
      "x": 166,
      "y": 137,
      "size": 1,
      "price": "905000000000000000000",
      "reserved": "",
      "assetIds": []
    },
    {
      "x": 166,
      "y": 136,
      "size": 1,
      "price": "905000000000000000000",
      "reserved": "",
      "assetIds": []
    },
    {
      "x": 166,
      "y": 135,
      "size": 1,
      "price": "905000000000000000000",
      "reserved": "",
      "assetIds": []
    },
    {
      "x": 167,
      "y": 135,
      "size": 1,
      "price": "905000000000000000000",
      "reserved": "",
      "assetIds": []
    },
    {
      "x": 167,
      "y": 136,
      "size": 1,
      "price": "905000000000000000000",
      "reserved": "",
      "assetIds": []
    },
    {
      "x": 167,
      "y": 137,
      "size": 1,
      "price": "905000000000000000000",
      "reserved": "",
      "assetIds": []
    },
    {
      "x": 164,
      "y": 137,
      "size": 1,
      "price": "905000000000000000000",
      "reserved": "",
      "assetIds": []
    },
    {
      "x": 163,
      "y": 137,
      "size": 1,
      "price": "905000000000000000000",
      "reserved": "",
      "assetIds": []
    },
    {
      "x": 162,
      "y": 137,
      "size": 1,
      "price": "905000000000000000000",
      "reserved": "",
      "assetIds": []
    },
    {
      "x": 162,
      "y": 136,
      "size": 1,
      "price": "905000000000000000000",
      "reserved": "",
      "assetIds": []
    },
    {
      "x": 162,
      "y": 135,
      "size": 1,
      "price": "905000000000000000000",
      "reserved": "",
      "assetIds": []
    },
    {
      "x": 163,
      "y": 135,
      "size": 1,
      "price": "905000000000000000000",
      "reserved": "",
      "assetIds": []
    },
    {
      "x": 164,
      "y": 135,
      "size": 1,
      "price": "905000000000000000000",
      "reserved": "",
      "assetIds": []
    },
    {
      "x": 164,
      "y": 136,
      "size": 1,
      "price": "905000000000000000000",
      "reserved": "",
      "assetIds": []
    },
    {
      "x": 163,
      "y": 136,
      "size": 1,
      "price": "905000000000000000000",
      "reserved": "",
      "assetIds": []
    },
    {
      "x": 163,
      "y": 130,
      "size": 1,
      "price": "905000000000000000000",
      "reserved": "",
      "assetIds": []
    },
    {
      "x": 163,
      "y": 129,
      "size": 1,
      "price": "905000000000000000000",
      "reserved": "",
      "assetIds": []
    },
    {
      "x": 163,
      "y": 128,
      "size": 1,
      "price": "905000000000000000000",
      "reserved": "",
      "assetIds": []
    },
    {
      "x": 163,
      "y": 127,
      "size": 1,
      "price": "905000000000000000000",
      "reserved": "",
      "assetIds": []
    },
    {
      "x": 163,
      "y": 126,
      "size": 1,
      "price": "905000000000000000000",
      "reserved": "",
      "assetIds": []
    },
    {
      "x": 165,
      "y": 126,
      "size": 1,
      "price": "905000000000000000000",
      "reserved": "",
      "assetIds": []
    },
    {
      "x": 165,
      "y": 127,
      "size": 1,
      "price": "905000000000000000000",
      "reserved": "",
      "assetIds": []
    },
    {
      "x": 166,
      "y": 127,
      "size": 1,
      "price": "905000000000000000000",
      "reserved": "",
      "assetIds": []
    },
    {
      "x": 166,
      "y": 128,
      "size": 1,
      "price": "905000000000000000000",
      "reserved": "",
      "assetIds": []
    },
    {
      "x": 167,
      "y": 128,
      "size": 1,
      "price": "905000000000000000000",
      "reserved": "",
      "assetIds": []
    },
    {
      "x": 167,
      "y": 127,
      "size": 1,
      "price": "905000000000000000000",
      "reserved": "",
      "assetIds": []
    },
    {
      "x": 167,
      "y": 126,
      "size": 1,
      "price": "905000000000000000000",
      "reserved": "",
      "assetIds": []
    },
    {
      "x": 166,
      "y": 126,
      "size": 1,
      "price": "905000000000000000000",
      "reserved": "",
      "assetIds": []
    },
    {
      "x": 165,
      "y": 128,
      "size": 1,
      "price": "905000000000000000000",
      "reserved": "",
      "assetIds": []
    },
    {
      "x": 164,
      "y": 128,
      "size": 1,
      "price": "905000000000000000000",
      "reserved": "",
      "assetIds": []
    },
    {
      "x": 164,
      "y": 129,
      "size": 1,
      "price": "905000000000000000000",
      "reserved": "",
      "assetIds": []
    },
    {
      "x": 164,
      "y": 127,
      "size": 1,
      "price": "905000000000000000000",
      "reserved": "",
      "assetIds": []
    },
    {
      "x": 164,
      "y": 126,
      "size": 1,
      "price": "905000000000000000000",
      "reserved": "",
      "assetIds": []
    },
    {
      "x": 164,
      "y": 131,
      "size": 1,
      "price": "905000000000000000000",
      "reserved": "",
      "assetIds": []
    },
    {
      "x": 163,
      "y": 131,
      "size": 1,
      "price": "905000000000000000000",
      "reserved": "",
      "assetIds": []
    },
    {
      "x": 164,
      "y": 130,
      "size": 1,
      "price": "905000000000000000000",
      "reserved": "",
      "assetIds": []
    },
    {
      "x": 162,
      "y": 131,
      "size": 1,
      "price": "905000000000000000000",
      "reserved": "",
      "assetIds": []
    },
    {
      "x": 162,
      "y": 130,
      "size": 1,
      "price": "905000000000000000000",
      "reserved": "",
      "assetIds": []
    },
    {
      "x": 162,
      "y": 129,
      "size": 1,
      "price": "905000000000000000000",
      "reserved": "",
      "assetIds": []
    },
    {
      "x": 162,
      "y": 128,
      "size": 1,
      "price": "905000000000000000000",
      "reserved": "",
      "assetIds": []
    },
    {
      "x": 162,
      "y": 127,
      "size": 1,
      "price": "905000000000000000000",
      "reserved": "",
      "assetIds": []
    },
    {
      "x": 162,
      "y": 126,
      "size": 1,
      "price": "905000000000000000000",
      "reserved": "",
      "assetIds": []
    },
    {
      "x": 165,
      "y": 113,
      "size": 1,
      "price": "905000000000000000000",
      "reserved": "",
      "assetIds": []
    },
    {
      "x": 165,
      "y": 112,
      "size": 1,
      "price": "905000000000000000000",
      "reserved": "",
      "assetIds": []
    },
    {
      "x": 165,
      "y": 111,
      "size": 1,
      "price": "905000000000000000000",
      "reserved": "",
      "assetIds": []
    },
    {
      "x": 164,
      "y": 110,
      "size": 1,
      "price": "905000000000000000000",
      "reserved": "",
      "assetIds": []
    },
    {
      "x": 164,
      "y": 109,
      "size": 1,
      "price": "905000000000000000000",
      "reserved": "",
      "assetIds": []
    },
    {
      "x": 164,
      "y": 111,
      "size": 1,
      "price": "905000000000000000000",
      "reserved": "",
      "assetIds": []
    },
    {
      "x": 164,
      "y": 112,
      "size": 1,
      "price": "905000000000000000000",
      "reserved": "",
      "assetIds": []
    },
    {
      "x": 163,
      "y": 113,
      "size": 1,
      "price": "905000000000000000000",
      "reserved": "",
      "assetIds": []
    },
    {
      "x": 163,
      "y": 112,
      "size": 1,
      "price": "905000000000000000000",
      "reserved": "",
      "assetIds": []
    },
    {
      "x": 163,
      "y": 111,
      "size": 1,
      "price": "905000000000000000000",
      "reserved": "",
      "assetIds": []
    },
    {
      "x": 163,
      "y": 110,
      "size": 1,
      "price": "905000000000000000000",
      "reserved": "",
      "assetIds": []
    },
    {
      "x": 163,
      "y": 109,
      "size": 1,
      "price": "905000000000000000000",
      "reserved": "",
      "assetIds": []
    },
    {
      "x": 163,
      "y": 108,
      "size": 1,
      "price": "905000000000000000000",
      "reserved": "",
      "assetIds": []
    },
    {
      "x": 162,
      "y": 109,
      "size": 1,
      "price": "905000000000000000000",
      "reserved": "",
      "assetIds": []
    },
    {
      "x": 162,
      "y": 110,
      "size": 1,
      "price": "905000000000000000000",
      "reserved": "",
      "assetIds": []
    },
    {
      "x": 162,
      "y": 111,
      "size": 1,
      "price": "905000000000000000000",
      "reserved": "",
      "assetIds": []
    },
    {
      "x": 162,
      "y": 108,
      "size": 1,
      "price": "905000000000000000000",
      "reserved": "",
      "assetIds": []
    },
    {
      "x": 161,
      "y": 114,
      "size": 1,
      "price": "905000000000000000000",
      "reserved": "",
      "assetIds": []
    },
    {
      "x": 162,
      "y": 112,
      "size": 1,
      "price": "905000000000000000000",
      "reserved": "",
      "assetIds": []
    },
    {
      "x": 162,
      "y": 113,
      "size": 1,
      "price": "905000000000000000000",
      "reserved": "",
      "assetIds": []
    },
    {
      "x": 164,
      "y": 108,
      "size": 1,
      "price": "905000000000000000000",
      "reserved": "",
      "assetIds": []
    },
    {
      "x": 164,
      "y": 113,
      "size": 1,
      "price": "905000000000000000000",
      "reserved": "",
      "assetIds": []
    },
    {
      "x": 166,
      "y": 113,
      "size": 1,
      "price": "905000000000000000000",
      "reserved": "",
      "assetIds": []
    },
    {
      "x": 166,
      "y": 112,
      "size": 1,
      "price": "905000000000000000000",
      "reserved": "",
      "assetIds": []
    },
    {
      "x": 166,
      "y": 111,
      "size": 1,
      "price": "905000000000000000000",
      "reserved": "",
      "assetIds": []
    },
    {
      "x": 161,
      "y": 115,
      "size": 1,
      "price": "905000000000000000000",
      "reserved": "",
      "assetIds": []
    },
    {
      "x": 161,
      "y": 116,
      "size": 1,
      "price": "905000000000000000000",
      "reserved": "",
      "assetIds": []
    },
    {
      "x": 160,
      "y": 117,
      "size": 1,
      "price": "905000000000000000000",
      "reserved": "",
      "assetIds": []
    },
    {
      "x": 160,
      "y": 118,
      "size": 1,
      "price": "905000000000000000000",
      "reserved": "",
      "assetIds": []
    },
    {
      "x": 159,
      "y": 119,
      "size": 1,
      "price": "905000000000000000000",
      "reserved": "",
      "assetIds": []
    },
    {
      "x": 158,
      "y": 119,
      "size": 1,
      "price": "905000000000000000000",
      "reserved": "",
      "assetIds": []
    },
    {
      "x": 158,
      "y": 117,
      "size": 1,
      "price": "905000000000000000000",
      "reserved": "",
      "assetIds": []
    },
    {
      "x": 158,
      "y": 116,
      "size": 1,
      "price": "905000000000000000000",
      "reserved": "",
      "assetIds": []
    },
    {
      "x": 158,
      "y": 115,
      "size": 1,
      "price": "905000000000000000000",
      "reserved": "",
      "assetIds": []
    },
    {
      "x": 158,
      "y": 114,
      "size": 1,
      "price": "905000000000000000000",
      "reserved": "",
      "assetIds": []
    },
    {
      "x": 159,
      "y": 115,
      "size": 1,
      "price": "905000000000000000000",
      "reserved": "",
      "assetIds": []
    },
    {
      "x": 159,
      "y": 116,
      "size": 1,
      "price": "905000000000000000000",
      "reserved": "",
      "assetIds": []
    },
    {
      "x": 159,
      "y": 117,
      "size": 1,
      "price": "905000000000000000000",
      "reserved": "",
      "assetIds": []
    },
    {
      "x": 160,
      "y": 119,
      "size": 1,
      "price": "905000000000000000000",
      "reserved": "",
      "assetIds": []
    },
    {
      "x": 161,
      "y": 119,
      "size": 1,
      "price": "905000000000000000000",
      "reserved": "",
      "assetIds": []
    },
    {
      "x": 161,
      "y": 118,
      "size": 1,
      "price": "905000000000000000000",
      "reserved": "",
      "assetIds": []
    },
    {
      "x": 161,
      "y": 117,
      "size": 1,
      "price": "905000000000000000000",
      "reserved": "",
      "assetIds": []
    },
    {
      "x": 160,
      "y": 115,
      "size": 1,
      "price": "905000000000000000000",
      "reserved": "",
      "assetIds": []
    },
    {
      "x": 160,
      "y": 114,
      "size": 1,
      "price": "905000000000000000000",
      "reserved": "",
      "assetIds": []
    },
    {
      "x": 160,
      "y": 116,
      "size": 1,
      "price": "905000000000000000000",
      "reserved": "",
      "assetIds": []
    },
    {
      "x": 159,
      "y": 114,
      "size": 1,
      "price": "905000000000000000000",
      "reserved": "",
      "assetIds": []
    },
    {
      "x": 158,
      "y": 118,
      "size": 1,
      "price": "905000000000000000000",
      "reserved": "",
      "assetIds": []
    },
    {
      "x": 157,
      "y": 118,
      "size": 1,
      "price": "905000000000000000000",
      "reserved": "",
      "assetIds": []
    },
    {
      "x": 157,
      "y": 117,
      "size": 1,
      "price": "905000000000000000000",
      "reserved": "",
      "assetIds": []
    },
    {
      "x": 157,
      "y": 116,
      "size": 1,
      "price": "905000000000000000000",
      "reserved": "",
      "assetIds": []
    },
    {
      "x": 157,
      "y": 115,
      "size": 1,
      "price": "905000000000000000000",
      "reserved": "",
      "assetIds": []
    },
    {
      "x": 156,
      "y": 114,
      "size": 1,
      "price": "905000000000000000000",
      "reserved": "",
      "assetIds": []
    },
    {
      "x": 156,
      "y": 115,
      "size": 1,
      "price": "905000000000000000000",
      "reserved": "",
      "assetIds": []
    },
    {
      "x": 156,
      "y": 116,
      "size": 1,
      "price": "905000000000000000000",
      "reserved": "",
      "assetIds": []
    },
    {
      "x": 156,
      "y": 117,
      "size": 1,
      "price": "905000000000000000000",
      "reserved": "",
      "assetIds": []
    },
    {
      "x": 156,
      "y": 118,
      "size": 1,
      "price": "905000000000000000000",
      "reserved": "",
      "assetIds": []
    },
    {
      "x": 156,
      "y": 119,
      "size": 1,
      "price": "905000000000000000000",
      "reserved": "",
      "assetIds": []
    },
    {
      "x": 156,
      "y": 120,
      "size": 1,
      "price": "905000000000000000000",
      "reserved": "",
      "assetIds": []
    },
    {
      "x": 156,
      "y": 121,
      "size": 1,
      "price": "905000000000000000000",
      "reserved": "",
      "assetIds": []
    },
    {
      "x": 157,
      "y": 122,
      "size": 1,
      "price": "905000000000000000000",
      "reserved": "",
      "assetIds": []
    },
    {
      "x": 157,
      "y": 121,
      "size": 1,
      "price": "905000000000000000000",
      "reserved": "",
      "assetIds": []
    },
    {
      "x": 157,
      "y": 120,
      "size": 1,
      "price": "905000000000000000000",
      "reserved": "",
      "assetIds": []
    },
    {
      "x": 157,
      "y": 119,
      "size": 1,
      "price": "905000000000000000000",
      "reserved": "",
      "assetIds": []
    },
    {
      "x": 157,
      "y": 114,
      "size": 1,
      "price": "905000000000000000000",
      "reserved": "",
      "assetIds": []
    },
    {
      "x": 155,
      "y": 111,
      "size": 1,
      "price": "905000000000000000000",
      "reserved": "",
      "assetIds": []
    },
    {
      "x": 154,
      "y": 111,
      "size": 1,
      "price": "905000000000000000000",
      "reserved": "",
      "assetIds": []
    },
    {
      "x": 155,
      "y": 112,
      "size": 1,
      "price": "905000000000000000000",
      "reserved": "",
      "assetIds": []
    },
    {
      "x": 155,
      "y": 110,
      "size": 1,
      "price": "905000000000000000000",
      "reserved": "",
      "assetIds": []
    },
    {
      "x": 155,
      "y": 109,
      "size": 1,
      "price": "905000000000000000000",
      "reserved": "",
      "assetIds": []
    },
    {
      "x": 155,
      "y": 108,
      "size": 1,
      "price": "905000000000000000000",
      "reserved": "",
      "assetIds": []
    },
    {
      "x": 155,
      "y": 106,
      "size": 1,
      "price": "905000000000000000000",
      "reserved": "",
      "assetIds": []
    },
    {
      "x": 155,
      "y": 105,
      "size": 1,
      "price": "905000000000000000000",
      "reserved": "",
      "assetIds": []
    },
    {
      "x": 154,
      "y": 108,
      "size": 1,
      "price": "905000000000000000000",
      "reserved": "",
      "assetIds": []
    },
    {
      "x": 154,
      "y": 107,
      "size": 1,
      "price": "905000000000000000000",
      "reserved": "",
      "assetIds": []
    },
    {
      "x": 154,
      "y": 106,
      "size": 1,
      "price": "905000000000000000000",
      "reserved": "",
      "assetIds": []
    },
    {
      "x": 154,
      "y": 105,
      "size": 1,
      "price": "905000000000000000000",
      "reserved": "",
      "assetIds": []
    },
    {
      "x": 154,
      "y": 109,
      "size": 1,
      "price": "905000000000000000000",
      "reserved": "",
      "assetIds": []
    },
    {
      "x": 154,
      "y": 110,
      "size": 1,
      "price": "905000000000000000000",
      "reserved": "",
      "assetIds": []
    },
    {
      "x": 153,
      "y": 107,
      "size": 1,
      "price": "905000000000000000000",
      "reserved": "",
      "assetIds": []
    },
    {
      "x": 153,
      "y": 106,
      "size": 1,
      "price": "905000000000000000000",
      "reserved": "",
      "assetIds": []
    },
    {
      "x": 153,
      "y": 105,
      "size": 1,
      "price": "905000000000000000000",
      "reserved": "",
      "assetIds": []
    },
    {
      "x": 152,
      "y": 104,
      "size": 1,
      "price": "905000000000000000000",
      "reserved": "",
      "assetIds": []
    },
    {
      "x": 152,
      "y": 103,
      "size": 1,
      "price": "905000000000000000000",
      "reserved": "",
      "assetIds": []
    },
    {
      "x": 152,
      "y": 105,
      "size": 1,
      "price": "905000000000000000000",
      "reserved": "",
      "assetIds": []
    },
    {
      "x": 152,
      "y": 106,
      "size": 1,
      "price": "905000000000000000000",
      "reserved": "",
      "assetIds": []
    },
    {
      "x": 151,
      "y": 103,
      "size": 1,
      "price": "905000000000000000000",
      "reserved": "",
      "assetIds": []
    },
    {
      "x": 151,
      "y": 107,
      "size": 1,
      "price": "905000000000000000000",
      "reserved": "",
      "assetIds": []
    },
    {
      "x": 151,
      "y": 108,
      "size": 1,
      "price": "905000000000000000000",
      "reserved": "",
      "assetIds": []
    },
    {
      "x": 151,
      "y": 109,
      "size": 1,
      "price": "905000000000000000000",
      "reserved": "",
      "assetIds": []
    },
    {
      "x": 151,
      "y": 110,
      "size": 1,
      "price": "905000000000000000000",
      "reserved": "",
      "assetIds": []
    },
    {
      "x": 152,
      "y": 111,
      "size": 1,
      "price": "905000000000000000000",
      "reserved": "",
      "assetIds": []
    },
    {
      "x": 153,
      "y": 111,
      "size": 1,
      "price": "905000000000000000000",
      "reserved": "",
      "assetIds": []
    },
    {
      "x": 153,
      "y": 108,
      "size": 1,
      "price": "905000000000000000000",
      "reserved": "",
      "assetIds": []
    },
    {
      "x": 153,
      "y": 109,
      "size": 1,
      "price": "905000000000000000000",
      "reserved": "",
      "assetIds": []
    },
    {
      "x": 153,
      "y": 110,
      "size": 1,
      "price": "905000000000000000000",
      "reserved": "",
      "assetIds": []
    },
    {
      "x": 153,
      "y": 112,
      "size": 1,
      "price": "905000000000000000000",
      "reserved": "",
      "assetIds": []
    },
    {
      "x": 152,
      "y": 108,
      "size": 1,
      "price": "905000000000000000000",
      "reserved": "",
      "assetIds": []
    },
    {
      "x": 152,
      "y": 107,
      "size": 1,
      "price": "905000000000000000000",
      "reserved": "",
      "assetIds": []
    },
    {
      "x": 152,
      "y": 109,
      "size": 1,
      "price": "905000000000000000000",
      "reserved": "",
      "assetIds": []
    },
    {
      "x": 152,
      "y": 110,
      "size": 1,
      "price": "905000000000000000000",
      "reserved": "",
      "assetIds": []
    },
    {
      "x": 152,
      "y": 112,
      "size": 1,
      "price": "905000000000000000000",
      "reserved": "",
      "assetIds": []
    },
    {
      "x": 152,
      "y": 113,
      "size": 1,
      "price": "905000000000000000000",
      "reserved": "",
      "assetIds": []
    },
    {
      "x": 154,
      "y": 112,
      "size": 1,
      "price": "905000000000000000000",
      "reserved": "",
      "assetIds": []
    },
    {
      "x": 155,
      "y": 113,
      "size": 1,
      "price": "905000000000000000000",
      "reserved": "",
      "assetIds": []
    },
    {
      "x": 154,
      "y": 113,
      "size": 1,
      "price": "905000000000000000000",
      "reserved": "",
      "assetIds": []
    },
    {
      "x": 153,
      "y": 113,
      "size": 1,
      "price": "905000000000000000000",
      "reserved": "",
      "assetIds": []
    },
    {
      "x": 159,
      "y": 118,
      "size": 1,
      "price": "905000000000000000000",
      "reserved": "",
      "assetIds": []
    },
    {
      "x": 160,
      "y": 123,
      "size": 1,
      "price": "905000000000000000000",
      "reserved": "",
      "assetIds": []
    },
    {
      "x": 160,
      "y": 124,
      "size": 1,
      "price": "905000000000000000000",
      "reserved": "",
      "assetIds": []
    },
    {
      "x": 160,
      "y": 125,
      "size": 1,
      "price": "905000000000000000000",
      "reserved": "",
      "assetIds": []
    },
    {
      "x": 159,
      "y": 125,
      "size": 1,
      "price": "905000000000000000000",
      "reserved": "",
      "assetIds": []
    },
    {
      "x": 159,
      "y": 124,
      "size": 1,
      "price": "905000000000000000000",
      "reserved": "",
      "assetIds": []
    },
    {
      "x": 158,
      "y": 122,
      "size": 1,
      "price": "905000000000000000000",
      "reserved": "",
      "assetIds": []
    },
    {
      "x": 158,
      "y": 121,
      "size": 1,
      "price": "905000000000000000000",
      "reserved": "",
      "assetIds": []
    },
    {
      "x": 158,
      "y": 120,
      "size": 1,
      "price": "905000000000000000000",
      "reserved": "",
      "assetIds": []
    },
    {
      "x": 159,
      "y": 123,
      "size": 1,
      "price": "905000000000000000000",
      "reserved": "",
      "assetIds": []
    },
    {
      "x": 156,
      "y": 122,
      "size": 1,
      "price": "905000000000000000000",
      "reserved": "",
      "assetIds": []
    },
    {
      "x": 161,
      "y": 125,
      "size": 1,
      "price": "905000000000000000000",
      "reserved": "",
      "assetIds": []
    },
    {
      "x": 161,
      "y": 124,
      "size": 1,
      "price": "905000000000000000000",
      "reserved": "",
      "assetIds": []
    },
    {
      "x": 161,
      "y": 123,
      "size": 1,
      "price": "905000000000000000000",
      "reserved": "",
      "assetIds": []
    },
    {
      "x": 155,
      "y": 122,
      "size": 1,
      "price": "905000000000000000000",
      "reserved": "",
      "assetIds": []
    },
    {
      "x": 154,
      "y": 122,
      "size": 1,
      "price": "905000000000000000000",
      "reserved": "",
      "assetIds": []
    },
    {
      "x": 153,
      "y": 122,
      "size": 1,
      "price": "905000000000000000000",
      "reserved": "",
      "assetIds": []
    },
    {
      "x": 152,
      "y": 122,
      "size": 1,
      "price": "905000000000000000000",
      "reserved": "",
      "assetIds": []
    },
    {
      "x": 152,
      "y": 121,
      "size": 1,
      "price": "905000000000000000000",
      "reserved": "",
      "assetIds": []
    },
    {
      "x": 151,
      "y": 121,
      "size": 1,
      "price": "905000000000000000000",
      "reserved": "",
      "assetIds": []
    },
    {
      "x": 153,
      "y": 121,
      "size": 1,
      "price": "905000000000000000000",
      "reserved": "",
      "assetIds": []
    },
    {
      "x": 154,
      "y": 121,
      "size": 1,
      "price": "905000000000000000000",
      "reserved": "",
      "assetIds": []
    },
    {
      "x": 155,
      "y": 121,
      "size": 1,
      "price": "905000000000000000000",
      "reserved": "",
      "assetIds": []
    },
    {
      "x": 151,
      "y": 120,
      "size": 1,
      "price": "905000000000000000000",
      "reserved": "",
      "assetIds": []
    },
    {
      "x": 150,
      "y": 120,
      "size": 1,
      "price": "905000000000000000000",
      "reserved": "",
      "assetIds": []
    },
    {
      "x": 152,
      "y": 120,
      "size": 1,
      "price": "905000000000000000000",
      "reserved": "",
      "assetIds": []
    },
    {
      "x": 153,
      "y": 120,
      "size": 1,
      "price": "905000000000000000000",
      "reserved": "",
      "assetIds": []
    },
    {
      "x": 155,
      "y": 120,
      "size": 1,
      "price": "905000000000000000000",
      "reserved": "",
      "assetIds": []
    },
    {
      "x": 154,
      "y": 120,
      "size": 1,
      "price": "905000000000000000000",
      "reserved": "",
      "assetIds": []
    },
    {
      "x": 151,
      "y": 122,
      "size": 1,
      "price": "905000000000000000000",
      "reserved": "",
      "assetIds": []
    },
    {
      "x": 152,
      "y": 123,
      "size": 1,
      "price": "905000000000000000000",
      "reserved": "",
      "assetIds": []
    },
    {
      "x": 151,
      "y": 123,
      "size": 1,
      "price": "905000000000000000000",
      "reserved": "",
      "assetIds": []
    },
    {
      "x": 150,
      "y": 123,
      "size": 1,
      "price": "905000000000000000000",
      "reserved": "",
      "assetIds": []
    },
    {
      "x": 150,
      "y": 122,
      "size": 1,
      "price": "905000000000000000000",
      "reserved": "",
      "assetIds": []
    },
    {
      "x": 150,
      "y": 121,
      "size": 1,
      "price": "905000000000000000000",
      "reserved": "",
      "assetIds": []
    },
    {
      "x": 150,
      "y": 124,
      "size": 1,
      "price": "905000000000000000000",
      "reserved": "",
      "assetIds": []
    },
    {
      "x": 150,
      "y": 125,
      "size": 1,
      "price": "905000000000000000000",
      "reserved": "",
      "assetIds": []
    },
    {
      "x": 152,
      "y": 124,
      "size": 1,
      "price": "905000000000000000000",
      "reserved": "",
      "assetIds": []
    },
    {
      "x": 152,
      "y": 125,
      "size": 1,
      "price": "905000000000000000000",
      "reserved": "",
      "assetIds": []
    },
    {
      "x": 152,
      "y": 127,
      "size": 1,
      "price": "905000000000000000000",
      "reserved": "",
      "assetIds": []
    },
    {
      "x": 152,
      "y": 128,
      "size": 1,
      "price": "905000000000000000000",
      "reserved": "",
      "assetIds": []
    },
    {
      "x": 152,
      "y": 129,
      "size": 1,
      "price": "905000000000000000000",
      "reserved": "",
      "assetIds": []
    },
    {
      "x": 152,
      "y": 130,
      "size": 1,
      "price": "905000000000000000000",
      "reserved": "",
      "assetIds": []
    },
    {
      "x": 152,
      "y": 131,
      "size": 1,
      "price": "905000000000000000000",
      "reserved": "",
      "assetIds": []
    },
    {
      "x": 152,
      "y": 126,
      "size": 1,
      "price": "905000000000000000000",
      "reserved": "",
      "assetIds": []
    },
    {
      "x": 151,
      "y": 125,
      "size": 1,
      "price": "905000000000000000000",
      "reserved": "",
      "assetIds": []
    },
    {
      "x": 150,
      "y": 126,
      "size": 1,
      "price": "905000000000000000000",
      "reserved": "",
      "assetIds": []
    },
    {
      "x": 150,
      "y": 127,
      "size": 1,
      "price": "905000000000000000000",
      "reserved": "",
      "assetIds": []
    },
    {
      "x": 150,
      "y": 128,
      "size": 1,
      "price": "905000000000000000000",
      "reserved": "",
      "assetIds": []
    },
    {
      "x": 150,
      "y": 129,
      "size": 1,
      "price": "905000000000000000000",
      "reserved": "",
      "assetIds": []
    },
    {
      "x": 150,
      "y": 130,
      "size": 1,
      "price": "905000000000000000000",
      "reserved": "",
      "assetIds": []
    },
    {
      "x": 149,
      "y": 130,
      "size": 1,
      "price": "905000000000000000000",
      "reserved": "",
      "assetIds": []
    },
    {
      "x": 149,
      "y": 129,
      "size": 1,
      "price": "905000000000000000000",
      "reserved": "",
      "assetIds": []
    },
    {
      "x": 151,
      "y": 124,
      "size": 1,
      "price": "905000000000000000000",
      "reserved": "",
      "assetIds": []
    },
    {
      "x": 151,
      "y": 126,
      "size": 1,
      "price": "905000000000000000000",
      "reserved": "",
      "assetIds": []
    },
    {
      "x": 149,
      "y": 124,
      "size": 1,
      "price": "905000000000000000000",
      "reserved": "",
      "assetIds": []
    },
    {
      "x": 149,
      "y": 125,
      "size": 1,
      "price": "905000000000000000000",
      "reserved": "",
      "assetIds": []
    },
    {
      "x": 149,
      "y": 126,
      "size": 1,
      "price": "905000000000000000000",
      "reserved": "",
      "assetIds": []
    },
    {
      "x": 149,
      "y": 127,
      "size": 1,
      "price": "905000000000000000000",
      "reserved": "",
      "assetIds": []
    },
    {
      "x": 150,
      "y": 131,
      "size": 1,
      "price": "905000000000000000000",
      "reserved": "",
      "assetIds": []
    },
    {
      "x": 151,
      "y": 131,
      "size": 1,
      "price": "905000000000000000000",
      "reserved": "",
      "assetIds": []
    },
    {
      "x": 151,
      "y": 129,
      "size": 1,
      "price": "905000000000000000000",
      "reserved": "",
      "assetIds": []
    },
    {
      "x": 151,
      "y": 130,
      "size": 1,
      "price": "905000000000000000000",
      "reserved": "",
      "assetIds": []
    },
    {
      "x": 151,
      "y": 128,
      "size": 1,
      "price": "905000000000000000000",
      "reserved": "",
      "assetIds": []
    },
    {
      "x": 151,
      "y": 127,
      "size": 1,
      "price": "905000000000000000000",
      "reserved": "",
      "assetIds": []
    },
    {
      "x": 153,
      "y": 127,
      "size": 1,
      "price": "905000000000000000000",
      "reserved": "",
      "assetIds": []
    },
    {
      "x": 154,
      "y": 127,
      "size": 1,
      "price": "905000000000000000000",
      "reserved": "",
      "assetIds": []
    },
    {
      "x": 154,
      "y": 126,
      "size": 1,
      "price": "905000000000000000000",
      "reserved": "",
      "assetIds": []
    },
    {
      "x": 155,
      "y": 126,
      "size": 1,
      "price": "905000000000000000000",
      "reserved": "",
      "assetIds": []
    },
    {
      "x": 155,
      "y": 125,
      "size": 1,
      "price": "905000000000000000000",
      "reserved": "",
      "assetIds": []
    },
    {
      "x": 155,
      "y": 124,
      "size": 1,
      "price": "905000000000000000000",
      "reserved": "",
      "assetIds": []
    },
    {
      "x": 155,
      "y": 123,
      "size": 1,
      "price": "905000000000000000000",
      "reserved": "",
      "assetIds": []
    },
    {
      "x": 154,
      "y": 123,
      "size": 1,
      "price": "905000000000000000000",
      "reserved": "",
      "assetIds": []
    },
    {
      "x": 154,
      "y": 124,
      "size": 1,
      "price": "905000000000000000000",
      "reserved": "",
      "assetIds": []
    },
    {
      "x": 153,
      "y": 124,
      "size": 1,
      "price": "905000000000000000000",
      "reserved": "",
      "assetIds": []
    },
    {
      "x": 154,
      "y": 125,
      "size": 1,
      "price": "905000000000000000000",
      "reserved": "",
      "assetIds": []
    },
    {
      "x": 154,
      "y": 128,
      "size": 1,
      "price": "905000000000000000000",
      "reserved": "",
      "assetIds": []
    },
    {
      "x": 153,
      "y": 123,
      "size": 1,
      "price": "905000000000000000000",
      "reserved": "",
      "assetIds": []
    },
    {
      "x": 153,
      "y": 125,
      "size": 1,
      "price": "905000000000000000000",
      "reserved": "",
      "assetIds": []
    },
    {
      "x": 153,
      "y": 126,
      "size": 1,
      "price": "905000000000000000000",
      "reserved": "",
      "assetIds": []
    },
    {
      "x": 153,
      "y": 128,
      "size": 1,
      "price": "905000000000000000000",
      "reserved": "",
      "assetIds": []
    },
    {
      "x": 154,
      "y": 129,
      "size": 1,
      "price": "905000000000000000000",
      "reserved": "",
      "assetIds": []
    },
    {
      "x": 155,
      "y": 129,
      "size": 1,
      "price": "905000000000000000000",
      "reserved": "",
      "assetIds": []
    },
    {
      "x": 155,
      "y": 127,
      "size": 1,
      "price": "905000000000000000000",
      "reserved": "",
      "assetIds": []
    },
    {
      "x": 155,
      "y": 130,
      "size": 1,
      "price": "905000000000000000000",
      "reserved": "",
      "assetIds": []
    },
    {
      "x": 155,
      "y": 128,
      "size": 1,
      "price": "905000000000000000000",
      "reserved": "",
      "assetIds": []
    },
    {
      "x": 155,
      "y": 131,
      "size": 1,
      "price": "905000000000000000000",
      "reserved": "",
      "assetIds": []
    },
    {
      "x": 154,
      "y": 130,
      "size": 1,
      "price": "905000000000000000000",
      "reserved": "",
      "assetIds": []
    },
    {
      "x": 153,
      "y": 129,
      "size": 1,
      "price": "905000000000000000000",
      "reserved": "",
      "assetIds": []
    },
    {
      "x": 153,
      "y": 130,
      "size": 1,
      "price": "905000000000000000000",
      "reserved": "",
      "assetIds": []
    },
    {
      "x": 154,
      "y": 131,
      "size": 1,
      "price": "905000000000000000000",
      "reserved": "",
      "assetIds": []
    },
    {
      "x": 153,
      "y": 131,
      "size": 1,
      "price": "905000000000000000000",
      "reserved": "",
      "assetIds": []
    },
    {
      "x": 156,
      "y": 132,
      "size": 1,
      "price": "905000000000000000000",
      "reserved": "",
      "assetIds": []
    },
    {
      "x": 157,
      "y": 133,
      "size": 1,
      "price": "905000000000000000000",
      "reserved": "",
      "assetIds": []
    },
    {
      "x": 158,
      "y": 133,
      "size": 1,
      "price": "905000000000000000000",
      "reserved": "",
      "assetIds": []
    },
    {
      "x": 159,
      "y": 134,
      "size": 1,
      "price": "905000000000000000000",
      "reserved": "",
      "assetIds": []
    },
    {
      "x": 160,
      "y": 134,
      "size": 1,
      "price": "905000000000000000000",
      "reserved": "",
      "assetIds": []
    },
    {
      "x": 161,
      "y": 134,
      "size": 1,
      "price": "905000000000000000000",
      "reserved": "",
      "assetIds": []
    },
    {
      "x": 161,
      "y": 133,
      "size": 1,
      "price": "905000000000000000000",
      "reserved": "",
      "assetIds": []
    },
    {
      "x": 160,
      "y": 133,
      "size": 1,
      "price": "905000000000000000000",
      "reserved": "",
      "assetIds": []
    },
    {
      "x": 159,
      "y": 133,
      "size": 1,
      "price": "905000000000000000000",
      "reserved": "",
      "assetIds": []
    },
    {
      "x": 158,
      "y": 132,
      "size": 1,
      "price": "905000000000000000000",
      "reserved": "",
      "assetIds": []
    },
    {
      "x": 157,
      "y": 132,
      "size": 1,
      "price": "905000000000000000000",
      "reserved": "",
      "assetIds": []
    },
    {
      "x": 159,
      "y": 132,
      "size": 1,
      "price": "905000000000000000000",
      "reserved": "",
      "assetIds": []
    },
    {
      "x": 160,
      "y": 132,
      "size": 1,
      "price": "905000000000000000000",
      "reserved": "",
      "assetIds": []
    },
    {
      "x": 161,
      "y": 132,
      "size": 1,
      "price": "905000000000000000000",
      "reserved": "",
      "assetIds": []
    },
    {
      "x": 158,
      "y": 134,
      "size": 1,
      "price": "905000000000000000000",
      "reserved": "",
      "assetIds": []
    },
    {
      "x": 157,
      "y": 134,
      "size": 1,
      "price": "905000000000000000000",
      "reserved": "",
      "assetIds": []
    },
    {
      "x": 157,
      "y": 135,
      "size": 1,
      "price": "905000000000000000000",
      "reserved": "",
      "assetIds": []
    },
    {
      "x": 157,
      "y": 136,
      "size": 1,
      "price": "905000000000000000000",
      "reserved": "",
      "assetIds": []
    },
    {
      "x": 157,
      "y": 137,
      "size": 1,
      "price": "905000000000000000000",
      "reserved": "",
      "assetIds": []
    },
    {
      "x": 158,
      "y": 137,
      "size": 1,
      "price": "905000000000000000000",
      "reserved": "",
      "assetIds": []
    },
    {
      "x": 158,
      "y": 136,
      "size": 1,
      "price": "905000000000000000000",
      "reserved": "",
      "assetIds": []
    },
    {
      "x": 158,
      "y": 135,
      "size": 1,
      "price": "905000000000000000000",
      "reserved": "",
      "assetIds": []
    },
    {
      "x": 156,
      "y": 137,
      "size": 1,
      "price": "905000000000000000000",
      "reserved": "",
      "assetIds": []
    },
    {
      "x": 156,
      "y": 136,
      "size": 1,
      "price": "905000000000000000000",
      "reserved": "",
      "assetIds": []
    },
    {
      "x": 156,
      "y": 135,
      "size": 1,
      "price": "905000000000000000000",
      "reserved": "",
      "assetIds": []
    },
    {
      "x": 156,
      "y": 134,
      "size": 1,
      "price": "905000000000000000000",
      "reserved": "",
      "assetIds": []
    },
    {
      "x": 156,
      "y": 133,
      "size": 1,
      "price": "905000000000000000000",
      "reserved": "",
      "assetIds": []
    },
    {
      "x": 148,
      "y": 129,
      "size": 1,
      "price": "905000000000000000000",
      "reserved": "",
      "assetIds": []
    },
    {
      "x": 148,
      "y": 130,
      "size": 1,
      "price": "905000000000000000000",
      "reserved": "",
      "assetIds": []
    },
    {
      "x": 147,
      "y": 130,
      "size": 1,
      "price": "905000000000000000000",
      "reserved": "",
      "assetIds": []
    },
    {
      "x": 146,
      "y": 130,
      "size": 1,
      "price": "905000000000000000000",
      "reserved": "",
      "assetIds": []
    },
    {
      "x": 146,
      "y": 131,
      "size": 1,
      "price": "905000000000000000000",
      "reserved": "",
      "assetIds": []
    },
    {
      "x": 145,
      "y": 131,
      "size": 1,
      "price": "905000000000000000000",
      "reserved": "",
      "assetIds": []
    },
    {
      "x": 147,
      "y": 131,
      "size": 1,
      "price": "905000000000000000000",
      "reserved": "",
      "assetIds": []
    },
    {
      "x": 148,
      "y": 131,
      "size": 1,
      "price": "905000000000000000000",
      "reserved": "",
      "assetIds": []
    },
    {
      "x": 149,
      "y": 131,
      "size": 1,
      "price": "905000000000000000000",
      "reserved": "",
      "assetIds": []
    },
    {
      "x": 144,
      "y": 131,
      "size": 1,
      "price": "905000000000000000000",
      "reserved": "",
      "assetIds": []
    },
    {
      "x": 143,
      "y": 131,
      "size": 1,
      "price": "905000000000000000000",
      "reserved": "",
      "assetIds": []
    },
    {
      "x": 142,
      "y": 131,
      "size": 1,
      "price": "905000000000000000000",
      "reserved": "",
      "assetIds": []
    },
    {
      "x": 141,
      "y": 131,
      "size": 1,
      "price": "905000000000000000000",
      "reserved": "",
      "assetIds": []
    },
    {
      "x": 140,
      "y": 131,
      "size": 1,
      "price": "905000000000000000000",
      "reserved": "",
      "assetIds": []
    },
    {
      "x": 139,
      "y": 131,
      "size": 1,
      "price": "905000000000000000000",
      "reserved": "",
      "assetIds": []
    },
    {
      "x": 138,
      "y": 131,
      "size": 1,
      "price": "905000000000000000000",
      "reserved": "",
      "assetIds": []
    },
    {
      "x": 137,
      "y": 131,
      "size": 1,
      "price": "905000000000000000000",
      "reserved": "",
      "assetIds": []
    },
    {
      "x": 136,
      "y": 131,
      "size": 1,
      "price": "905000000000000000000",
      "reserved": "",
      "assetIds": []
    },
    {
      "x": 135,
      "y": 131,
      "size": 1,
      "price": "905000000000000000000",
      "reserved": "",
      "assetIds": []
    },
    {
      "x": 134,
      "y": 131,
      "size": 1,
      "price": "905000000000000000000",
      "reserved": "",
      "assetIds": []
    },
    {
      "x": 133,
      "y": 131,
      "size": 1,
      "price": "905000000000000000000",
      "reserved": "",
      "assetIds": []
    },
    {
      "x": 132,
      "y": 131,
      "size": 1,
      "price": "905000000000000000000",
      "reserved": "",
      "assetIds": []
    },
    {
      "x": 132,
      "y": 130,
      "size": 1,
      "price": "905000000000000000000",
      "reserved": "",
      "assetIds": []
    },
    {
      "x": 131,
      "y": 130,
      "size": 1,
      "price": "905000000000000000000",
      "reserved": "",
      "assetIds": []
    },
    {
      "x": 130,
      "y": 130,
      "size": 1,
      "price": "905000000000000000000",
      "reserved": "",
      "assetIds": []
    },
    {
      "x": 129,
      "y": 130,
      "size": 1,
      "price": "905000000000000000000",
      "reserved": "",
      "assetIds": []
    },
    {
      "x": 128,
      "y": 130,
      "size": 1,
      "price": "905000000000000000000",
      "reserved": "",
      "assetIds": []
    },
    {
      "x": 127,
      "y": 130,
      "size": 1,
      "price": "905000000000000000000",
      "reserved": "",
      "assetIds": []
    },
    {
      "x": 130,
      "y": 131,
      "size": 1,
      "price": "905000000000000000000",
      "reserved": "",
      "assetIds": []
    },
    {
      "x": 131,
      "y": 131,
      "size": 1,
      "price": "905000000000000000000",
      "reserved": "",
      "assetIds": []
    },
    {
      "x": 133,
      "y": 130,
      "size": 1,
      "price": "905000000000000000000",
      "reserved": "",
      "assetIds": []
    },
    {
      "x": 134,
      "y": 130,
      "size": 1,
      "price": "905000000000000000000",
      "reserved": "",
      "assetIds": []
    },
    {
      "x": 129,
      "y": 131,
      "size": 1,
      "price": "905000000000000000000",
      "reserved": "",
      "assetIds": []
    },
    {
      "x": 128,
      "y": 131,
      "size": 1,
      "price": "905000000000000000000",
      "reserved": "",
      "assetIds": []
    },
    {
      "x": 127,
      "y": 131,
      "size": 1,
      "price": "905000000000000000000",
      "reserved": "",
      "assetIds": []
    },
    {
      "x": 126,
      "y": 131,
      "size": 1,
      "price": "905000000000000000000",
      "reserved": "",
      "assetIds": []
    },
    {
      "x": 126,
      "y": 130,
      "size": 1,
      "price": "905000000000000000000",
      "reserved": "",
      "assetIds": []
    },
    {
      "x": 126,
      "y": 129,
      "size": 1,
      "price": "905000000000000000000",
      "reserved": "",
      "assetIds": []
    },
    {
      "x": 126,
      "y": 128,
      "size": 1,
      "price": "905000000000000000000",
      "reserved": "",
      "assetIds": []
    },
    {
      "x": 127,
      "y": 128,
      "size": 1,
      "price": "905000000000000000000",
      "reserved": "",
      "assetIds": []
    },
    {
      "x": 127,
      "y": 127,
      "size": 1,
      "price": "905000000000000000000",
      "reserved": "",
      "assetIds": []
    },
    {
      "x": 127,
      "y": 129,
      "size": 1,
      "price": "905000000000000000000",
      "reserved": "",
      "assetIds": []
    },
    {
      "x": 125,
      "y": 125,
      "size": 1,
      "price": "905000000000000000000",
      "reserved": "",
      "assetIds": []
    },
    {
      "x": 126,
      "y": 127,
      "size": 1,
      "price": "905000000000000000000",
      "reserved": "",
      "assetIds": []
    },
    {
      "x": 126,
      "y": 126,
      "size": 1,
      "price": "905000000000000000000",
      "reserved": "",
      "assetIds": []
    },
    {
      "x": 130,
      "y": 129,
      "size": 1,
      "price": "905000000000000000000",
      "reserved": "",
      "assetIds": []
    },
    {
      "x": 131,
      "y": 129,
      "size": 1,
      "price": "905000000000000000000",
      "reserved": "",
      "assetIds": []
    },
    {
      "x": 131,
      "y": 128,
      "size": 1,
      "price": "905000000000000000000",
      "reserved": "",
      "assetIds": []
    },
    {
      "x": 130,
      "y": 128,
      "size": 1,
      "price": "905000000000000000000",
      "reserved": "",
      "assetIds": []
    },
    {
      "x": 130,
      "y": 127,
      "size": 1,
      "price": "905000000000000000000",
      "reserved": "",
      "assetIds": []
    },
    {
      "x": 129,
      "y": 127,
      "size": 1,
      "price": "905000000000000000000",
      "reserved": "",
      "assetIds": []
    },
    {
      "x": 129,
      "y": 126,
      "size": 1,
      "price": "905000000000000000000",
      "reserved": "",
      "assetIds": []
    },
    {
      "x": 130,
      "y": 126,
      "size": 1,
      "price": "905000000000000000000",
      "reserved": "",
      "assetIds": []
    },
    {
      "x": 131,
      "y": 126,
      "size": 1,
      "price": "905000000000000000000",
      "reserved": "",
      "assetIds": []
    },
    {
      "x": 131,
      "y": 127,
      "size": 1,
      "price": "905000000000000000000",
      "reserved": "",
      "assetIds": []
    },
    {
      "x": 128,
      "y": 129,
      "size": 1,
      "price": "905000000000000000000",
      "reserved": "",
      "assetIds": []
    },
    {
      "x": 128,
      "y": 128,
      "size": 1,
      "price": "905000000000000000000",
      "reserved": "",
      "assetIds": []
    },
    {
      "x": 128,
      "y": 127,
      "size": 1,
      "price": "905000000000000000000",
      "reserved": "",
      "assetIds": []
    },
    {
      "x": 129,
      "y": 128,
      "size": 1,
      "price": "905000000000000000000",
      "reserved": "",
      "assetIds": []
    },
    {
      "x": 129,
      "y": 129,
      "size": 1,
      "price": "905000000000000000000",
      "reserved": "",
      "assetIds": []
    },
    {
      "x": 132,
      "y": 128,
      "size": 1,
      "price": "905000000000000000000",
      "reserved": "",
      "assetIds": []
    },
    {
      "x": 133,
      "y": 128,
      "size": 1,
      "price": "905000000000000000000",
      "reserved": "",
      "assetIds": []
    },
    {
      "x": 133,
      "y": 129,
      "size": 1,
      "price": "905000000000000000000",
      "reserved": "",
      "assetIds": []
    },
    {
      "x": 132,
      "y": 129,
      "size": 1,
      "price": "905000000000000000000",
      "reserved": "",
      "assetIds": []
    },
    {
      "x": 132,
      "y": 127,
      "size": 1,
      "price": "905000000000000000000",
      "reserved": "",
      "assetIds": []
    },
    {
      "x": 134,
      "y": 128,
      "size": 1,
      "price": "905000000000000000000",
      "reserved": "",
      "assetIds": []
    },
    {
      "x": 135,
      "y": 129,
      "size": 1,
      "price": "905000000000000000000",
      "reserved": "",
      "assetIds": []
    },
    {
      "x": 136,
      "y": 129,
      "size": 1,
      "price": "905000000000000000000",
      "reserved": "",
      "assetIds": []
    },
    {
      "x": 136,
      "y": 130,
      "size": 1,
      "price": "905000000000000000000",
      "reserved": "",
      "assetIds": []
    },
    {
      "x": 135,
      "y": 130,
      "size": 1,
      "price": "905000000000000000000",
      "reserved": "",
      "assetIds": []
    },
    {
      "x": 134,
      "y": 129,
      "size": 1,
      "price": "905000000000000000000",
      "reserved": "",
      "assetIds": []
    },
    {
      "x": 137,
      "y": 130,
      "size": 1,
      "price": "905000000000000000000",
      "reserved": "",
      "assetIds": []
    },
    {
      "x": 138,
      "y": 130,
      "size": 1,
      "price": "905000000000000000000",
      "reserved": "",
      "assetIds": []
    },
    {
      "x": 141,
      "y": 130,
      "size": 1,
      "price": "905000000000000000000",
      "reserved": "",
      "assetIds": []
    },
    {
      "x": 142,
      "y": 130,
      "size": 1,
      "price": "905000000000000000000",
      "reserved": "",
      "assetIds": []
    },
    {
      "x": 143,
      "y": 130,
      "size": 1,
      "price": "905000000000000000000",
      "reserved": "",
      "assetIds": []
    },
    {
      "x": 144,
      "y": 130,
      "size": 1,
      "price": "905000000000000000000",
      "reserved": "",
      "assetIds": []
    },
    {
      "x": 140,
      "y": 130,
      "size": 1,
      "price": "905000000000000000000",
      "reserved": "",
      "assetIds": []
    },
    {
      "x": 139,
      "y": 130,
      "size": 1,
      "price": "905000000000000000000",
      "reserved": "",
      "assetIds": []
    },
    {
      "x": 138,
      "y": 129,
      "size": 1,
      "price": "905000000000000000000",
      "reserved": "",
      "assetIds": []
    },
    {
      "x": 137,
      "y": 129,
      "size": 1,
      "price": "905000000000000000000",
      "reserved": "",
      "assetIds": []
    },
    {
      "x": 141,
      "y": 128,
      "size": 1,
      "price": "905000000000000000000",
      "reserved": "",
      "assetIds": []
    },
    {
      "x": 142,
      "y": 128,
      "size": 1,
      "price": "905000000000000000000",
      "reserved": "",
      "assetIds": []
    },
    {
      "x": 143,
      "y": 128,
      "size": 1,
      "price": "905000000000000000000",
      "reserved": "",
      "assetIds": []
    },
    {
      "x": 143,
      "y": 129,
      "size": 1,
      "price": "905000000000000000000",
      "reserved": "",
      "assetIds": []
    },
    {
      "x": 144,
      "y": 129,
      "size": 1,
      "price": "905000000000000000000",
      "reserved": "",
      "assetIds": []
    },
    {
      "x": 145,
      "y": 129,
      "size": 1,
      "price": "905000000000000000000",
      "reserved": "",
      "assetIds": []
    },
    {
      "x": 141,
      "y": 129,
      "size": 1,
      "price": "905000000000000000000",
      "reserved": "",
      "assetIds": []
    },
    {
      "x": 140,
      "y": 129,
      "size": 1,
      "price": "905000000000000000000",
      "reserved": "",
      "assetIds": []
    },
    {
      "x": 139,
      "y": 129,
      "size": 1,
      "price": "905000000000000000000",
      "reserved": "",
      "assetIds": []
    },
    {
      "x": 144,
      "y": 128,
      "size": 1,
      "price": "905000000000000000000",
      "reserved": "",
      "assetIds": []
    },
    {
      "x": 145,
      "y": 128,
      "size": 1,
      "price": "905000000000000000000",
      "reserved": "",
      "assetIds": []
    },
    {
      "x": 146,
      "y": 128,
      "size": 1,
      "price": "905000000000000000000",
      "reserved": "",
      "assetIds": []
    },
    {
      "x": 147,
      "y": 128,
      "size": 1,
      "price": "905000000000000000000",
      "reserved": "",
      "assetIds": []
    },
    {
      "x": 148,
      "y": 127,
      "size": 1,
      "price": "905000000000000000000",
      "reserved": "",
      "assetIds": []
    },
    {
      "x": 147,
      "y": 127,
      "size": 1,
      "price": "905000000000000000000",
      "reserved": "",
      "assetIds": []
    },
    {
      "x": 146,
      "y": 127,
      "size": 1,
      "price": "905000000000000000000",
      "reserved": "",
      "assetIds": []
    },
    {
      "x": 145,
      "y": 127,
      "size": 1,
      "price": "905000000000000000000",
      "reserved": "",
      "assetIds": []
    },
    {
      "x": 144,
      "y": 127,
      "size": 1,
      "price": "905000000000000000000",
      "reserved": "",
      "assetIds": []
    },
    {
      "x": 148,
      "y": 128,
      "size": 1,
      "price": "905000000000000000000",
      "reserved": "",
      "assetIds": []
    },
    {
      "x": 147,
      "y": 129,
      "size": 1,
      "price": "905000000000000000000",
      "reserved": "",
      "assetIds": []
    },
    {
      "x": 145,
      "y": 130,
      "size": 1,
      "price": "905000000000000000000",
      "reserved": "",
      "assetIds": []
    },
    {
      "x": 146,
      "y": 129,
      "size": 1,
      "price": "905000000000000000000",
      "reserved": "",
      "assetIds": []
    },
    {
      "x": 142,
      "y": 129,
      "size": 1,
      "price": "905000000000000000000",
      "reserved": "",
      "assetIds": []
    },
    {
      "x": 140,
      "y": 132,
      "size": 1,
      "price": "905000000000000000000",
      "reserved": "",
      "assetIds": []
    },
    {
      "x": 140,
      "y": 133,
      "size": 1,
      "price": "905000000000000000000",
      "reserved": "",
      "assetIds": []
    },
    {
      "x": 139,
      "y": 133,
      "size": 1,
      "price": "905000000000000000000",
      "reserved": "",
      "assetIds": []
    },
    {
      "x": 139,
      "y": 134,
      "size": 1,
      "price": "905000000000000000000",
      "reserved": "",
      "assetIds": []
    },
    {
      "x": 140,
      "y": 134,
      "size": 1,
      "price": "905000000000000000000",
      "reserved": "",
      "assetIds": []
    },
    {
      "x": 139,
      "y": 132,
      "size": 1,
      "price": "905000000000000000000",
      "reserved": "",
      "assetIds": []
    },
    {
      "x": 138,
      "y": 132,
      "size": 1,
      "price": "905000000000000000000",
      "reserved": "",
      "assetIds": []
    },
    {
      "x": 138,
      "y": 133,
      "size": 1,
      "price": "905000000000000000000",
      "reserved": "",
      "assetIds": []
    },
    {
      "x": 138,
      "y": 134,
      "size": 1,
      "price": "905000000000000000000",
      "reserved": "",
      "assetIds": []
    },
    {
      "x": 143,
      "y": 135,
      "size": 1,
      "price": "905000000000000000000",
      "reserved": "",
      "assetIds": []
    },
    {
      "x": 142,
      "y": 135,
      "size": 1,
      "price": "905000000000000000000",
      "reserved": "",
      "assetIds": []
    },
    {
      "x": 142,
      "y": 136,
      "size": 1,
      "price": "905000000000000000000",
      "reserved": "",
      "assetIds": []
    },
    {
      "x": 141,
      "y": 136,
      "size": 1,
      "price": "905000000000000000000",
      "reserved": "",
      "assetIds": []
    },
    {
      "x": 143,
      "y": 136,
      "size": 1,
      "price": "905000000000000000000",
      "reserved": "",
      "assetIds": []
    },
    {
      "x": 143,
      "y": 137,
      "size": 1,
      "price": "905000000000000000000",
      "reserved": "",
      "assetIds": []
    },
    {
      "x": 142,
      "y": 137,
      "size": 1,
      "price": "905000000000000000000",
      "reserved": "",
      "assetIds": []
    },
    {
      "x": 141,
      "y": 137,
      "size": 1,
      "price": "905000000000000000000",
      "reserved": "",
      "assetIds": []
    },
    {
      "x": 141,
      "y": 135,
      "size": 1,
      "price": "905000000000000000000",
      "reserved": "",
      "assetIds": []
    },
    {
      "x": 134,
      "y": 132,
      "size": 1,
      "price": "905000000000000000000",
      "reserved": "",
      "assetIds": []
    },
    {
      "x": 133,
      "y": 132,
      "size": 1,
      "price": "905000000000000000000",
      "reserved": "",
      "assetIds": []
    },
    {
      "x": 133,
      "y": 133,
      "size": 1,
      "price": "905000000000000000000",
      "reserved": "",
      "assetIds": []
    },
    {
      "x": 132,
      "y": 133,
      "size": 1,
      "price": "905000000000000000000",
      "reserved": "",
      "assetIds": []
    },
    {
      "x": 134,
      "y": 133,
      "size": 1,
      "price": "905000000000000000000",
      "reserved": "",
      "assetIds": []
    },
    {
      "x": 134,
      "y": 134,
      "size": 1,
      "price": "905000000000000000000",
      "reserved": "",
      "assetIds": []
    },
    {
      "x": 133,
      "y": 134,
      "size": 1,
      "price": "905000000000000000000",
      "reserved": "",
      "assetIds": []
    },
    {
      "x": 132,
      "y": 134,
      "size": 1,
      "price": "905000000000000000000",
      "reserved": "",
      "assetIds": []
    },
    {
      "x": 132,
      "y": 132,
      "size": 1,
      "price": "905000000000000000000",
      "reserved": "",
      "assetIds": []
    },
    {
      "x": 124,
      "y": 125,
      "size": 1,
      "price": "905000000000000000000",
      "reserved": "",
      "assetIds": []
    },
    {
      "x": 124,
      "y": 124,
      "size": 1,
      "price": "905000000000000000000",
      "reserved": "",
      "assetIds": []
    },
    {
      "x": 124,
      "y": 123,
      "size": 1,
      "price": "905000000000000000000",
      "reserved": "",
      "assetIds": []
    },
    {
      "x": 124,
      "y": 122,
      "size": 1,
      "price": "905000000000000000000",
      "reserved": "",
      "assetIds": []
    },
    {
      "x": 124,
      "y": 121,
      "size": 1,
      "price": "905000000000000000000",
      "reserved": "",
      "assetIds": []
    },
    {
      "x": 124,
      "y": 120,
      "size": 1,
      "price": "905000000000000000000",
      "reserved": "",
      "assetIds": []
    },
    {
      "x": 125,
      "y": 123,
      "size": 1,
      "price": "905000000000000000000",
      "reserved": "",
      "assetIds": []
    },
    {
      "x": 125,
      "y": 124,
      "size": 1,
      "price": "905000000000000000000",
      "reserved": "",
      "assetIds": []
    },
    {
      "x": 123,
      "y": 123,
      "size": 1,
      "price": "905000000000000000000",
      "reserved": "",
      "assetIds": []
    },
    {
      "x": 123,
      "y": 122,
      "size": 1,
      "price": "905000000000000000000",
      "reserved": "",
      "assetIds": []
    },
    {
      "x": 123,
      "y": 121,
      "size": 1,
      "price": "905000000000000000000",
      "reserved": "",
      "assetIds": []
    },
    {
      "x": 123,
      "y": 120,
      "size": 1,
      "price": "905000000000000000000",
      "reserved": "",
      "assetIds": []
    },
    {
      "x": 123,
      "y": 119,
      "size": 1,
      "price": "905000000000000000000",
      "reserved": "",
      "assetIds": []
    },
    {
      "x": 123,
      "y": 118,
      "size": 1,
      "price": "905000000000000000000",
      "reserved": "",
      "assetIds": []
    },
    {
      "x": 123,
      "y": 117,
      "size": 1,
      "price": "905000000000000000000",
      "reserved": "",
      "assetIds": []
    },
    {
      "x": 123,
      "y": 124,
      "size": 1,
      "price": "905000000000000000000",
      "reserved": "",
      "assetIds": []
    },
    {
      "x": 122,
      "y": 124,
      "size": 1,
      "price": "905000000000000000000",
      "reserved": "",
      "assetIds": []
    },
    {
      "x": 122,
      "y": 125,
      "size": 1,
      "price": "905000000000000000000",
      "reserved": "",
      "assetIds": []
    },
    {
      "x": 122,
      "y": 123,
      "size": 1,
      "price": "905000000000000000000",
      "reserved": "",
      "assetIds": []
    },
    {
      "x": 122,
      "y": 122,
      "size": 1,
      "price": "905000000000000000000",
      "reserved": "",
      "assetIds": []
    },
    {
      "x": 122,
      "y": 121,
      "size": 1,
      "price": "905000000000000000000",
      "reserved": "",
      "assetIds": []
    },
    {
      "x": 122,
      "y": 120,
      "size": 1,
      "price": "905000000000000000000",
      "reserved": "",
      "assetIds": []
    },
    {
      "x": 122,
      "y": 119,
      "size": 1,
      "price": "905000000000000000000",
      "reserved": "",
      "assetIds": []
    },
    {
      "x": 122,
      "y": 118,
      "size": 1,
      "price": "905000000000000000000",
      "reserved": "",
      "assetIds": []
    },
    {
      "x": 121,
      "y": 124,
      "size": 1,
      "price": "905000000000000000000",
      "reserved": "",
      "assetIds": []
    },
    {
      "x": 121,
      "y": 125,
      "size": 1,
      "price": "905000000000000000000",
      "reserved": "",
      "assetIds": []
    },
    {
      "x": 121,
      "y": 123,
      "size": 1,
      "price": "905000000000000000000",
      "reserved": "",
      "assetIds": []
    },
    {
      "x": 121,
      "y": 122,
      "size": 1,
      "price": "905000000000000000000",
      "reserved": "",
      "assetIds": []
    },
    {
      "x": 121,
      "y": 120,
      "size": 1,
      "price": "905000000000000000000",
      "reserved": "",
      "assetIds": []
    },
    {
      "x": 121,
      "y": 119,
      "size": 1,
      "price": "905000000000000000000",
      "reserved": "",
      "assetIds": []
    },
    {
      "x": 120,
      "y": 118,
      "size": 1,
      "price": "905000000000000000000",
      "reserved": "",
      "assetIds": []
    },
    {
      "x": 120,
      "y": 117,
      "size": 1,
      "price": "905000000000000000000",
      "reserved": "",
      "assetIds": []
    },
    {
      "x": 120,
      "y": 116,
      "size": 1,
      "price": "905000000000000000000",
      "reserved": "",
      "assetIds": []
    },
    {
      "x": 119,
      "y": 115,
      "size": 1,
      "price": "905000000000000000000",
      "reserved": "",
      "assetIds": []
    },
    {
      "x": 119,
      "y": 116,
      "size": 1,
      "price": "905000000000000000000",
      "reserved": "",
      "assetIds": []
    },
    {
      "x": 120,
      "y": 122,
      "size": 1,
      "price": "905000000000000000000",
      "reserved": "",
      "assetIds": []
    },
    {
      "x": 120,
      "y": 121,
      "size": 1,
      "price": "905000000000000000000",
      "reserved": "",
      "assetIds": []
    },
    {
      "x": 120,
      "y": 119,
      "size": 1,
      "price": "905000000000000000000",
      "reserved": "",
      "assetIds": []
    },
    {
      "x": 120,
      "y": 115,
      "size": 1,
      "price": "905000000000000000000",
      "reserved": "",
      "assetIds": []
    },
    {
      "x": 120,
      "y": 120,
      "size": 1,
      "price": "905000000000000000000",
      "reserved": "",
      "assetIds": []
    },
    {
      "x": 120,
      "y": 123,
      "size": 1,
      "price": "905000000000000000000",
      "reserved": "",
      "assetIds": []
    },
    {
      "x": 121,
      "y": 121,
      "size": 1,
      "price": "905000000000000000000",
      "reserved": "",
      "assetIds": []
    },
    {
      "x": 121,
      "y": 118,
      "size": 1,
      "price": "905000000000000000000",
      "reserved": "",
      "assetIds": []
    },
    {
      "x": 121,
      "y": 117,
      "size": 1,
      "price": "905000000000000000000",
      "reserved": "",
      "assetIds": []
    },
    {
      "x": 120,
      "y": 125,
      "size": 1,
      "price": "905000000000000000000",
      "reserved": "",
      "assetIds": []
    },
    {
      "x": 123,
      "y": 125,
      "size": 1,
      "price": "905000000000000000000",
      "reserved": "",
      "assetIds": []
    },
    {
      "x": 120,
      "y": 124,
      "size": 1,
      "price": "905000000000000000000",
      "reserved": "",
      "assetIds": []
    },
    {
      "x": 121,
      "y": 116,
      "size": 1,
      "price": "905000000000000000000",
      "reserved": "",
      "assetIds": []
    },
    {
      "x": 121,
      "y": 115,
      "size": 1,
      "price": "905000000000000000000",
      "reserved": "",
      "assetIds": []
    },
    {
      "x": 121,
      "y": 114,
      "size": 1,
      "price": "905000000000000000000",
      "reserved": "",
      "assetIds": []
    },
    {
      "x": 121,
      "y": 113,
      "size": 1,
      "price": "905000000000000000000",
      "reserved": "",
      "assetIds": []
    },
    {
      "x": 121,
      "y": 112,
      "size": 1,
      "price": "905000000000000000000",
      "reserved": "",
      "assetIds": []
    },
    {
      "x": 121,
      "y": 111,
      "size": 1,
      "price": "905000000000000000000",
      "reserved": "",
      "assetIds": []
    },
    {
      "x": 121,
      "y": 110,
      "size": 1,
      "price": "905000000000000000000",
      "reserved": "",
      "assetIds": []
    },
    {
      "x": 122,
      "y": 109,
      "size": 1,
      "price": "905000000000000000000",
      "reserved": "",
      "assetIds": []
    },
    {
      "x": 122,
      "y": 108,
      "size": 1,
      "price": "905000000000000000000",
      "reserved": "",
      "assetIds": []
    },
    {
      "x": 122,
      "y": 107,
      "size": 1,
      "price": "905000000000000000000",
      "reserved": "",
      "assetIds": []
    },
    {
      "x": 123,
      "y": 107,
      "size": 1,
      "price": "905000000000000000000",
      "reserved": "",
      "assetIds": []
    },
    {
      "x": 123,
      "y": 106,
      "size": 1,
      "price": "905000000000000000000",
      "reserved": "",
      "assetIds": []
    },
    {
      "x": 123,
      "y": 105,
      "size": 1,
      "price": "905000000000000000000",
      "reserved": "",
      "assetIds": []
    },
    {
      "x": 123,
      "y": 104,
      "size": 1,
      "price": "905000000000000000000",
      "reserved": "",
      "assetIds": []
    },
    {
      "x": 122,
      "y": 104,
      "size": 1,
      "price": "905000000000000000000",
      "reserved": "",
      "assetIds": []
    },
    {
      "x": 122,
      "y": 105,
      "size": 1,
      "price": "905000000000000000000",
      "reserved": "",
      "assetIds": []
    },
    {
      "x": 122,
      "y": 106,
      "size": 1,
      "price": "905000000000000000000",
      "reserved": "",
      "assetIds": []
    },
    {
      "x": 122,
      "y": 110,
      "size": 1,
      "price": "905000000000000000000",
      "reserved": "",
      "assetIds": []
    },
    {
      "x": 122,
      "y": 111,
      "size": 1,
      "price": "905000000000000000000",
      "reserved": "",
      "assetIds": []
    },
    {
      "x": 122,
      "y": 112,
      "size": 1,
      "price": "905000000000000000000",
      "reserved": "",
      "assetIds": []
    },
    {
      "x": 123,
      "y": 113,
      "size": 1,
      "price": "905000000000000000000",
      "reserved": "",
      "assetIds": []
    },
    {
      "x": 123,
      "y": 112,
      "size": 1,
      "price": "905000000000000000000",
      "reserved": "",
      "assetIds": []
    },
    {
      "x": 123,
      "y": 111,
      "size": 1,
      "price": "905000000000000000000",
      "reserved": "",
      "assetIds": []
    },
    {
      "x": 123,
      "y": 110,
      "size": 1,
      "price": "905000000000000000000",
      "reserved": "",
      "assetIds": []
    },
    {
      "x": 123,
      "y": 109,
      "size": 1,
      "price": "905000000000000000000",
      "reserved": "",
      "assetIds": []
    },
    {
      "x": 123,
      "y": 108,
      "size": 1,
      "price": "905000000000000000000",
      "reserved": "",
      "assetIds": []
    },
    {
      "x": 124,
      "y": 104,
      "size": 1,
      "price": "905000000000000000000",
      "reserved": "",
      "assetIds": []
    },
    {
      "x": 124,
      "y": 105,
      "size": 1,
      "price": "905000000000000000000",
      "reserved": "",
      "assetIds": []
    },
    {
      "x": 124,
      "y": 106,
      "size": 1,
      "price": "905000000000000000000",
      "reserved": "",
      "assetIds": []
    },
    {
      "x": 124,
      "y": 107,
      "size": 1,
      "price": "905000000000000000000",
      "reserved": "",
      "assetIds": []
    },
    {
      "x": 124,
      "y": 108,
      "size": 1,
      "price": "905000000000000000000",
      "reserved": "",
      "assetIds": []
    },
    {
      "x": 124,
      "y": 109,
      "size": 1,
      "price": "905000000000000000000",
      "reserved": "",
      "assetIds": []
    },
    {
      "x": 124,
      "y": 110,
      "size": 1,
      "price": "905000000000000000000",
      "reserved": "",
      "assetIds": []
    },
    {
      "x": 125,
      "y": 107,
      "size": 1,
      "price": "905000000000000000000",
      "reserved": "",
      "assetIds": []
    },
    {
      "x": 125,
      "y": 106,
      "size": 1,
      "price": "905000000000000000000",
      "reserved": "",
      "assetIds": []
    },
    {
      "x": 125,
      "y": 105,
      "size": 1,
      "price": "905000000000000000000",
      "reserved": "",
      "assetIds": []
    },
    {
      "x": 125,
      "y": 104,
      "size": 1,
      "price": "905000000000000000000",
      "reserved": "",
      "assetIds": []
    },
    {
      "x": 124,
      "y": 103,
      "size": 1,
      "price": "905000000000000000000",
      "reserved": "",
      "assetIds": []
    },
    {
      "x": 124,
      "y": 102,
      "size": 1,
      "price": "905000000000000000000",
      "reserved": "",
      "assetIds": []
    },
    {
      "x": 125,
      "y": 103,
      "size": 1,
      "price": "905000000000000000000",
      "reserved": "",
      "assetIds": []
    },
    {
      "x": 125,
      "y": 102,
      "size": 1,
      "price": "905000000000000000000",
      "reserved": "",
      "assetIds": []
    },
    {
      "x": 123,
      "y": 103,
      "size": 1,
      "price": "905000000000000000000",
      "reserved": "",
      "assetIds": []
    },
    {
      "x": 122,
      "y": 103,
      "size": 1,
      "price": "905000000000000000000",
      "reserved": "",
      "assetIds": []
    },
    {
      "x": 121,
      "y": 104,
      "size": 1,
      "price": "905000000000000000000",
      "reserved": "",
      "assetIds": []
    },
    {
      "x": 120,
      "y": 104,
      "size": 1,
      "price": "905000000000000000000",
      "reserved": "",
      "assetIds": []
    },
    {
      "x": 120,
      "y": 103,
      "size": 1,
      "price": "905000000000000000000",
      "reserved": "",
      "assetIds": []
    },
    {
      "x": 121,
      "y": 103,
      "size": 1,
      "price": "905000000000000000000",
      "reserved": "",
      "assetIds": []
    },
    {
      "x": 122,
      "y": 102,
      "size": 1,
      "price": "905000000000000000000",
      "reserved": "",
      "assetIds": []
    },
    {
      "x": 121,
      "y": 102,
      "size": 1,
      "price": "905000000000000000000",
      "reserved": "",
      "assetIds": []
    },
    {
      "x": 123,
      "y": 102,
      "size": 1,
      "price": "905000000000000000000",
      "reserved": "",
      "assetIds": []
    },
    {
      "x": 121,
      "y": 105,
      "size": 1,
      "price": "905000000000000000000",
      "reserved": "",
      "assetIds": []
    },
    {
      "x": 121,
      "y": 106,
      "size": 1,
      "price": "905000000000000000000",
      "reserved": "",
      "assetIds": []
    },
    {
      "x": 121,
      "y": 107,
      "size": 1,
      "price": "905000000000000000000",
      "reserved": "",
      "assetIds": []
    },
    {
      "x": 121,
      "y": 108,
      "size": 1,
      "price": "905000000000000000000",
      "reserved": "",
      "assetIds": []
    },
    {
      "x": 121,
      "y": 109,
      "size": 1,
      "price": "905000000000000000000",
      "reserved": "",
      "assetIds": []
    },
    {
      "x": 120,
      "y": 106,
      "size": 1,
      "price": "905000000000000000000",
      "reserved": "",
      "assetIds": []
    },
    {
      "x": 120,
      "y": 105,
      "size": 1,
      "price": "905000000000000000000",
      "reserved": "",
      "assetIds": []
    },
    {
      "x": 120,
      "y": 102,
      "size": 1,
      "price": "905000000000000000000",
      "reserved": "",
      "assetIds": []
    },
    {
      "x": 120,
      "y": 107,
      "size": 1,
      "price": "905000000000000000000",
      "reserved": "",
      "assetIds": []
    },
    {
      "x": 120,
      "y": 108,
      "size": 1,
      "price": "905000000000000000000",
      "reserved": "",
      "assetIds": []
    },
    {
      "x": 120,
      "y": 109,
      "size": 1,
      "price": "905000000000000000000",
      "reserved": "",
      "assetIds": []
    },
    {
      "x": 120,
      "y": 110,
      "size": 1,
      "price": "905000000000000000000",
      "reserved": "",
      "assetIds": []
    },
    {
      "x": 120,
      "y": 111,
      "size": 1,
      "price": "905000000000000000000",
      "reserved": "",
      "assetIds": []
    },
    {
      "x": 120,
      "y": 112,
      "size": 1,
      "price": "905000000000000000000",
      "reserved": "",
      "assetIds": []
    },
    {
      "x": 120,
      "y": 113,
      "size": 1,
      "price": "905000000000000000000",
      "reserved": "",
      "assetIds": []
    },
    {
      "x": 120,
      "y": 114,
      "size": 1,
      "price": "905000000000000000000",
      "reserved": "",
      "assetIds": []
    },
    {
      "x": 122,
      "y": 117,
      "size": 1,
      "price": "905000000000000000000",
      "reserved": "",
      "assetIds": []
    },
    {
      "x": 123,
      "y": 116,
      "size": 1,
      "price": "905000000000000000000",
      "reserved": "",
      "assetIds": []
    },
    {
      "x": 123,
      "y": 115,
      "size": 1,
      "price": "905000000000000000000",
      "reserved": "",
      "assetIds": []
    },
    {
      "x": 123,
      "y": 114,
      "size": 1,
      "price": "905000000000000000000",
      "reserved": "",
      "assetIds": []
    },
    {
      "x": 124,
      "y": 111,
      "size": 1,
      "price": "905000000000000000000",
      "reserved": "",
      "assetIds": []
    },
    {
      "x": 125,
      "y": 110,
      "size": 1,
      "price": "905000000000000000000",
      "reserved": "",
      "assetIds": []
    },
    {
      "x": 124,
      "y": 114,
      "size": 1,
      "price": "905000000000000000000",
      "reserved": "",
      "assetIds": []
    },
    {
      "x": 124,
      "y": 113,
      "size": 1,
      "price": "905000000000000000000",
      "reserved": "",
      "assetIds": []
    },
    {
      "x": 124,
      "y": 112,
      "size": 1,
      "price": "905000000000000000000",
      "reserved": "",
      "assetIds": []
    },
    {
      "x": 125,
      "y": 108,
      "size": 1,
      "price": "905000000000000000000",
      "reserved": "",
      "assetIds": []
    },
    {
      "x": 125,
      "y": 109,
      "size": 1,
      "price": "905000000000000000000",
      "reserved": "",
      "assetIds": []
    },
    {
      "x": 122,
      "y": 113,
      "size": 1,
      "price": "905000000000000000000",
      "reserved": "",
      "assetIds": []
    },
    {
      "x": 122,
      "y": 114,
      "size": 1,
      "price": "905000000000000000000",
      "reserved": "",
      "assetIds": []
    },
    {
      "x": 122,
      "y": 115,
      "size": 1,
      "price": "905000000000000000000",
      "reserved": "",
      "assetIds": []
    },
    {
      "x": 122,
      "y": 116,
      "size": 1,
      "price": "905000000000000000000",
      "reserved": "",
      "assetIds": []
    },
    {
      "x": 118,
      "y": 115,
      "size": 1,
      "price": "905000000000000000000",
      "reserved": "",
      "assetIds": []
    },
    {
      "x": 118,
      "y": 114,
      "size": 1,
      "price": "905000000000000000000",
      "reserved": "",
      "assetIds": []
    },
    {
      "x": 117,
      "y": 114,
      "size": 1,
      "price": "905000000000000000000",
      "reserved": "",
      "assetIds": []
    },
    {
      "x": 119,
      "y": 114,
      "size": 1,
      "price": "905000000000000000000",
      "reserved": "",
      "assetIds": []
    },
    {
      "x": 118,
      "y": 116,
      "size": 1,
      "price": "905000000000000000000",
      "reserved": "",
      "assetIds": []
    },
    {
      "x": 117,
      "y": 115,
      "size": 1,
      "price": "905000000000000000000",
      "reserved": "",
      "assetIds": []
    },
    {
      "x": 117,
      "y": 116,
      "size": 1,
      "price": "905000000000000000000",
      "reserved": "",
      "assetIds": []
    },
    {
      "x": 116,
      "y": 118,
      "size": 1,
      "price": "905000000000000000000",
      "reserved": "",
      "assetIds": []
    },
    {
      "x": 115,
      "y": 118,
      "size": 1,
      "price": "905000000000000000000",
      "reserved": "",
      "assetIds": []
    },
    {
      "x": 115,
      "y": 119,
      "size": 1,
      "price": "905000000000000000000",
      "reserved": "",
      "assetIds": []
    },
    {
      "x": 116,
      "y": 119,
      "size": 1,
      "price": "905000000000000000000",
      "reserved": "",
      "assetIds": []
    },
    {
      "x": 114,
      "y": 118,
      "size": 1,
      "price": "905000000000000000000",
      "reserved": "",
      "assetIds": []
    },
    {
      "x": 114,
      "y": 117,
      "size": 1,
      "price": "905000000000000000000",
      "reserved": "",
      "assetIds": []
    },
    {
      "x": 116,
      "y": 117,
      "size": 1,
      "price": "905000000000000000000",
      "reserved": "",
      "assetIds": []
    },
    {
      "x": 115,
      "y": 117,
      "size": 1,
      "price": "905000000000000000000",
      "reserved": "",
      "assetIds": []
    },
    {
      "x": 114,
      "y": 119,
      "size": 1,
      "price": "905000000000000000000",
      "reserved": "",
      "assetIds": []
    },
    {
      "x": 113,
      "y": 106,
      "size": 1,
      "price": "905000000000000000000",
      "reserved": "",
      "assetIds": []
    },
    {
      "x": 113,
      "y": 105,
      "size": 1,
      "price": "905000000000000000000",
      "reserved": "",
      "assetIds": []
    },
    {
      "x": 112,
      "y": 106,
      "size": 1,
      "price": "905000000000000000000",
      "reserved": "",
      "assetIds": []
    },
    {
      "x": 112,
      "y": 107,
      "size": 1,
      "price": "905000000000000000000",
      "reserved": "",
      "assetIds": []
    },
    {
      "x": 111,
      "y": 107,
      "size": 1,
      "price": "905000000000000000000",
      "reserved": "",
      "assetIds": []
    },
    {
      "x": 111,
      "y": 106,
      "size": 1,
      "price": "905000000000000000000",
      "reserved": "",
      "assetIds": []
    },
    {
      "x": 111,
      "y": 105,
      "size": 1,
      "price": "905000000000000000000",
      "reserved": "",
      "assetIds": []
    },
    {
      "x": 112,
      "y": 105,
      "size": 1,
      "price": "905000000000000000000",
      "reserved": "",
      "assetIds": []
    },
    {
      "x": 113,
      "y": 107,
      "size": 1,
      "price": "905000000000000000000",
      "reserved": "",
      "assetIds": []
    },
    {
      "x": 110,
      "y": 107,
      "size": 1,
      "price": "905000000000000000000",
      "reserved": "",
      "assetIds": []
    },
    {
      "x": 109,
      "y": 107,
      "size": 1,
      "price": "905000000000000000000",
      "reserved": "",
      "assetIds": []
    },
    {
      "x": 109,
      "y": 106,
      "size": 1,
      "price": "905000000000000000000",
      "reserved": "",
      "assetIds": []
    },
    {
      "x": 109,
      "y": 105,
      "size": 1,
      "price": "905000000000000000000",
      "reserved": "",
      "assetIds": []
    },
    {
      "x": 110,
      "y": 104,
      "size": 1,
      "price": "905000000000000000000",
      "reserved": "",
      "assetIds": []
    },
    {
      "x": 110,
      "y": 103,
      "size": 1,
      "price": "905000000000000000000",
      "reserved": "",
      "assetIds": []
    },
    {
      "x": 110,
      "y": 102,
      "size": 1,
      "price": "905000000000000000000",
      "reserved": "",
      "assetIds": []
    },
    {
      "x": 109,
      "y": 104,
      "size": 1,
      "price": "905000000000000000000",
      "reserved": "",
      "assetIds": []
    },
    {
      "x": 109,
      "y": 103,
      "size": 1,
      "price": "905000000000000000000",
      "reserved": "",
      "assetIds": []
    },
    {
      "x": 108,
      "y": 103,
      "size": 1,
      "price": "905000000000000000000",
      "reserved": "",
      "assetIds": []
    },
    {
      "x": 108,
      "y": 102,
      "size": 1,
      "price": "905000000000000000000",
      "reserved": "",
      "assetIds": []
    },
    {
      "x": 108,
      "y": 104,
      "size": 1,
      "price": "905000000000000000000",
      "reserved": "",
      "assetIds": []
    },
    {
      "x": 109,
      "y": 102,
      "size": 1,
      "price": "905000000000000000000",
      "reserved": "",
      "assetIds": []
    },
    {
      "x": 108,
      "y": 107,
      "size": 1,
      "price": "905000000000000000000",
      "reserved": "",
      "assetIds": []
    },
    {
      "x": 108,
      "y": 106,
      "size": 1,
      "price": "905000000000000000000",
      "reserved": "",
      "assetIds": []
    },
    {
      "x": 108,
      "y": 105,
      "size": 1,
      "price": "905000000000000000000",
      "reserved": "",
      "assetIds": []
    },
    {
      "x": 110,
      "y": 106,
      "size": 1,
      "price": "905000000000000000000",
      "reserved": "",
      "assetIds": []
    },
    {
      "x": 154,
      "y": 70,
      "size": 1,
      "price": "905000000000000000000",
      "reserved": "",
      "assetIds": []
    },
    {
      "x": 154,
      "y": 69,
      "size": 1,
      "price": "905000000000000000000",
      "reserved": "",
      "assetIds": []
    },
    {
      "x": 155,
      "y": 69,
      "size": 1,
      "price": "905000000000000000000",
      "reserved": "",
      "assetIds": []
    },
    {
      "x": 155,
      "y": 70,
      "size": 1,
      "price": "905000000000000000000",
      "reserved": "",
      "assetIds": []
    },
    {
      "x": 155,
      "y": 71,
      "size": 1,
      "price": "905000000000000000000",
      "reserved": "",
      "assetIds": []
    },
    {
      "x": 154,
      "y": 71,
      "size": 1,
      "price": "905000000000000000000",
      "reserved": "",
      "assetIds": []
    },
    {
      "x": 153,
      "y": 69,
      "size": 1,
      "price": "905000000000000000000",
      "reserved": "",
      "assetIds": []
    },
    {
      "x": 152,
      "y": 68,
      "size": 1,
      "price": "905000000000000000000",
      "reserved": "",
      "assetIds": []
    },
    {
      "x": 151,
      "y": 68,
      "size": 1,
      "price": "905000000000000000000",
      "reserved": "",
      "assetIds": []
    },
    {
      "x": 151,
      "y": 67,
      "size": 1,
      "price": "905000000000000000000",
      "reserved": "",
      "assetIds": []
    },
    {
      "x": 151,
      "y": 66,
      "size": 1,
      "price": "905000000000000000000",
      "reserved": "",
      "assetIds": []
    },
    {
      "x": 151,
      "y": 65,
      "size": 1,
      "price": "905000000000000000000",
      "reserved": "",
      "assetIds": []
    },
    {
      "x": 151,
      "y": 64,
      "size": 1,
      "price": "905000000000000000000",
      "reserved": "",
      "assetIds": []
    },
    {
      "x": 151,
      "y": 63,
      "size": 1,
      "price": "905000000000000000000",
      "reserved": "",
      "assetIds": []
    },
    {
      "x": 151,
      "y": 62,
      "size": 1,
      "price": "905000000000000000000",
      "reserved": "",
      "assetIds": []
    },
    {
      "x": 150,
      "y": 64,
      "size": 1,
      "price": "905000000000000000000",
      "reserved": "",
      "assetIds": []
    },
    {
      "x": 150,
      "y": 63,
      "size": 1,
      "price": "905000000000000000000",
      "reserved": "",
      "assetIds": []
    },
    {
      "x": 150,
      "y": 62,
      "size": 1,
      "price": "905000000000000000000",
      "reserved": "",
      "assetIds": []
    },
    {
      "x": 150,
      "y": 61,
      "size": 1,
      "price": "905000000000000000000",
      "reserved": "",
      "assetIds": []
    },
    {
      "x": 151,
      "y": 60,
      "size": 1,
      "price": "905000000000000000000",
      "reserved": "",
      "assetIds": []
    },
    {
      "x": 151,
      "y": 61,
      "size": 1,
      "price": "905000000000000000000",
      "reserved": "",
      "assetIds": []
    },
    {
      "x": 152,
      "y": 62,
      "size": 1,
      "price": "905000000000000000000",
      "reserved": "",
      "assetIds": []
    },
    {
      "x": 150,
      "y": 65,
      "size": 1,
      "price": "905000000000000000000",
      "reserved": "",
      "assetIds": []
    },
    {
      "x": 152,
      "y": 66,
      "size": 1,
      "price": "905000000000000000000",
      "reserved": "",
      "assetIds": []
    },
    {
      "x": 152,
      "y": 67,
      "size": 1,
      "price": "905000000000000000000",
      "reserved": "",
      "assetIds": []
    },
    {
      "x": 152,
      "y": 65,
      "size": 1,
      "price": "905000000000000000000",
      "reserved": "",
      "assetIds": []
    },
    {
      "x": 152,
      "y": 64,
      "size": 1,
      "price": "905000000000000000000",
      "reserved": "",
      "assetIds": []
    },
    {
      "x": 152,
      "y": 63,
      "size": 1,
      "price": "905000000000000000000",
      "reserved": "",
      "assetIds": []
    },
    {
      "x": 152,
      "y": 61,
      "size": 1,
      "price": "905000000000000000000",
      "reserved": "",
      "assetIds": []
    },
    {
      "x": 153,
      "y": 61,
      "size": 1,
      "price": "905000000000000000000",
      "reserved": "",
      "assetIds": []
    },
    {
      "x": 153,
      "y": 62,
      "size": 1,
      "price": "905000000000000000000",
      "reserved": "",
      "assetIds": []
    },
    {
      "x": 153,
      "y": 63,
      "size": 1,
      "price": "905000000000000000000",
      "reserved": "",
      "assetIds": []
    },
    {
      "x": 153,
      "y": 64,
      "size": 1,
      "price": "905000000000000000000",
      "reserved": "",
      "assetIds": []
    },
    {
      "x": 153,
      "y": 65,
      "size": 1,
      "price": "905000000000000000000",
      "reserved": "",
      "assetIds": []
    },
    {
      "x": 152,
      "y": 60,
      "size": 1,
      "price": "905000000000000000000",
      "reserved": "",
      "assetIds": []
    },
    {
      "x": 155,
      "y": 60,
      "size": 1,
      "price": "905000000000000000000",
      "reserved": "",
      "assetIds": []
    },
    {
      "x": 154,
      "y": 60,
      "size": 1,
      "price": "905000000000000000000",
      "reserved": "",
      "assetIds": []
    },
    {
      "x": 154,
      "y": 61,
      "size": 1,
      "price": "905000000000000000000",
      "reserved": "",
      "assetIds": []
    },
    {
      "x": 154,
      "y": 62,
      "size": 1,
      "price": "905000000000000000000",
      "reserved": "",
      "assetIds": []
    },
    {
      "x": 155,
      "y": 62,
      "size": 1,
      "price": "905000000000000000000",
      "reserved": "",
      "assetIds": []
    },
    {
      "x": 155,
      "y": 63,
      "size": 1,
      "price": "905000000000000000000",
      "reserved": "",
      "assetIds": []
    },
    {
      "x": 155,
      "y": 64,
      "size": 1,
      "price": "905000000000000000000",
      "reserved": "",
      "assetIds": []
    },
    {
      "x": 154,
      "y": 65,
      "size": 1,
      "price": "905000000000000000000",
      "reserved": "",
      "assetIds": []
    },
    {
      "x": 154,
      "y": 64,
      "size": 1,
      "price": "905000000000000000000",
      "reserved": "",
      "assetIds": []
    },
    {
      "x": 154,
      "y": 63,
      "size": 1,
      "price": "905000000000000000000",
      "reserved": "",
      "assetIds": []
    },
    {
      "x": 155,
      "y": 61,
      "size": 1,
      "price": "905000000000000000000",
      "reserved": "",
      "assetIds": []
    },
    {
      "x": 155,
      "y": 65,
      "size": 1,
      "price": "905000000000000000000",
      "reserved": "",
      "assetIds": []
    },
    {
      "x": 153,
      "y": 60,
      "size": 1,
      "price": "905000000000000000000",
      "reserved": "",
      "assetIds": []
    },
    {
      "x": 157,
      "y": 59,
      "size": 1,
      "price": "905000000000000000000",
      "reserved": "",
      "assetIds": []
    },
    {
      "x": 157,
      "y": 58,
      "size": 1,
      "price": "905000000000000000000",
      "reserved": "",
      "assetIds": []
    },
    {
      "x": 157,
      "y": 57,
      "size": 1,
      "price": "905000000000000000000",
      "reserved": "",
      "assetIds": []
    },
    {
      "x": 157,
      "y": 56,
      "size": 1,
      "price": "905000000000000000000",
      "reserved": "",
      "assetIds": []
    },
    {
      "x": 158,
      "y": 58,
      "size": 1,
      "price": "905000000000000000000",
      "reserved": "",
      "assetIds": []
    },
    {
      "x": 158,
      "y": 59,
      "size": 1,
      "price": "905000000000000000000",
      "reserved": "",
      "assetIds": []
    },
    {
      "x": 158,
      "y": 57,
      "size": 1,
      "price": "905000000000000000000",
      "reserved": "",
      "assetIds": []
    },
    {
      "x": 158,
      "y": 56,
      "size": 1,
      "price": "905000000000000000000",
      "reserved": "",
      "assetIds": []
    },
    {
      "x": 158,
      "y": 55,
      "size": 1,
      "price": "905000000000000000000",
      "reserved": "",
      "assetIds": []
    },
    {
      "x": 158,
      "y": 54,
      "size": 1,
      "price": "905000000000000000000",
      "reserved": "",
      "assetIds": []
    },
    {
      "x": 159,
      "y": 54,
      "size": 1,
      "price": "905000000000000000000",
      "reserved": "",
      "assetIds": []
    },
    {
      "x": 157,
      "y": 54,
      "size": 1,
      "price": "905000000000000000000",
      "reserved": "",
      "assetIds": []
    },
    {
      "x": 157,
      "y": 55,
      "size": 1,
      "price": "905000000000000000000",
      "reserved": "",
      "assetIds": []
    },
    {
      "x": 159,
      "y": 56,
      "size": 1,
      "price": "905000000000000000000",
      "reserved": "",
      "assetIds": []
    },
    {
      "x": 159,
      "y": 55,
      "size": 1,
      "price": "905000000000000000000",
      "reserved": "",
      "assetIds": []
    },
    {
      "x": 160,
      "y": 55,
      "size": 1,
      "price": "905000000000000000000",
      "reserved": "",
      "assetIds": []
    },
    {
      "x": 160,
      "y": 54,
      "size": 1,
      "price": "905000000000000000000",
      "reserved": "",
      "assetIds": []
    },
    {
      "x": 160,
      "y": 56,
      "size": 1,
      "price": "905000000000000000000",
      "reserved": "",
      "assetIds": []
    },
    {
      "x": 161,
      "y": 56,
      "size": 1,
      "price": "905000000000000000000",
      "reserved": "",
      "assetIds": []
    },
    {
      "x": 161,
      "y": 55,
      "size": 1,
      "price": "905000000000000000000",
      "reserved": "",
      "assetIds": []
    },
    {
      "x": 156,
      "y": 55,
      "size": 1,
      "price": "905000000000000000000",
      "reserved": "",
      "assetIds": []
    },
    {
      "x": 156,
      "y": 57,
      "size": 1,
      "price": "905000000000000000000",
      "reserved": "",
      "assetIds": []
    },
    {
      "x": 156,
      "y": 58,
      "size": 1,
      "price": "905000000000000000000",
      "reserved": "",
      "assetIds": []
    },
    {
      "x": 156,
      "y": 59,
      "size": 1,
      "price": "905000000000000000000",
      "reserved": "",
      "assetIds": []
    },
    {
      "x": 162,
      "y": 57,
      "size": 1,
      "price": "905000000000000000000",
      "reserved": "",
      "assetIds": []
    },
    {
      "x": 163,
      "y": 57,
      "size": 1,
      "price": "905000000000000000000",
      "reserved": "",
      "assetIds": []
    },
    {
      "x": 164,
      "y": 57,
      "size": 1,
      "price": "905000000000000000000",
      "reserved": "",
      "assetIds": []
    },
    {
      "x": 164,
      "y": 58,
      "size": 1,
      "price": "905000000000000000000",
      "reserved": "",
      "assetIds": []
    },
    {
      "x": 163,
      "y": 58,
      "size": 1,
      "price": "905000000000000000000",
      "reserved": "",
      "assetIds": []
    },
    {
      "x": 163,
      "y": 59,
      "size": 1,
      "price": "905000000000000000000",
      "reserved": "",
      "assetIds": []
    },
    {
      "x": 162,
      "y": 59,
      "size": 1,
      "price": "905000000000000000000",
      "reserved": "",
      "assetIds": []
    },
    {
      "x": 162,
      "y": 58,
      "size": 1,
      "price": "905000000000000000000",
      "reserved": "",
      "assetIds": []
    },
    {
      "x": 164,
      "y": 59,
      "size": 1,
      "price": "905000000000000000000",
      "reserved": "",
      "assetIds": []
    },
    {
      "x": 165,
      "y": 56,
      "size": 1,
      "price": "905000000000000000000",
      "reserved": "",
      "assetIds": []
    },
    {
      "x": 165,
      "y": 55,
      "size": 1,
      "price": "905000000000000000000",
      "reserved": "",
      "assetIds": []
    },
    {
      "x": 165,
      "y": 54,
      "size": 1,
      "price": "905000000000000000000",
      "reserved": "",
      "assetIds": []
    },
    {
      "x": 166,
      "y": 54,
      "size": 1,
      "price": "905000000000000000000",
      "reserved": "",
      "assetIds": []
    },
    {
      "x": 167,
      "y": 54,
      "size": 1,
      "price": "905000000000000000000",
      "reserved": "",
      "assetIds": []
    },
    {
      "x": 167,
      "y": 55,
      "size": 1,
      "price": "905000000000000000000",
      "reserved": "",
      "assetIds": []
    },
    {
      "x": 167,
      "y": 56,
      "size": 1,
      "price": "905000000000000000000",
      "reserved": "",
      "assetIds": []
    },
    {
      "x": 166,
      "y": 56,
      "size": 1,
      "price": "905000000000000000000",
      "reserved": "",
      "assetIds": []
    },
    {
      "x": 166,
      "y": 55,
      "size": 1,
      "price": "905000000000000000000",
      "reserved": "",
      "assetIds": []
    },
    {
      "x": 152,
      "y": 52,
      "size": 1,
      "price": "905000000000000000000",
      "reserved": "",
      "assetIds": []
    },
    {
      "x": 152,
      "y": 51,
      "size": 1,
      "price": "905000000000000000000",
      "reserved": "",
      "assetIds": []
    },
    {
      "x": 152,
      "y": 50,
      "size": 1,
      "price": "905000000000000000000",
      "reserved": "",
      "assetIds": []
    },
    {
      "x": 152,
      "y": 49,
      "size": 1,
      "price": "905000000000000000000",
      "reserved": "",
      "assetIds": []
    },
    {
      "x": 152,
      "y": 48,
      "size": 1,
      "price": "905000000000000000000",
      "reserved": "",
      "assetIds": []
    },
    {
      "x": 153,
      "y": 48,
      "size": 1,
      "price": "905000000000000000000",
      "reserved": "",
      "assetIds": []
    },
    {
      "x": 154,
      "y": 48,
      "size": 1,
      "price": "905000000000000000000",
      "reserved": "",
      "assetIds": []
    },
    {
      "x": 154,
      "y": 49,
      "size": 1,
      "price": "905000000000000000000",
      "reserved": "",
      "assetIds": []
    },
    {
      "x": 154,
      "y": 50,
      "size": 1,
      "price": "905000000000000000000",
      "reserved": "",
      "assetIds": []
    },
    {
      "x": 154,
      "y": 51,
      "size": 1,
      "price": "905000000000000000000",
      "reserved": "",
      "assetIds": []
    },
    {
      "x": 154,
      "y": 52,
      "size": 1,
      "price": "905000000000000000000",
      "reserved": "",
      "assetIds": []
    },
    {
      "x": 155,
      "y": 49,
      "size": 1,
      "price": "905000000000000000000",
      "reserved": "",
      "assetIds": []
    },
    {
      "x": 155,
      "y": 48,
      "size": 1,
      "price": "905000000000000000000",
      "reserved": "",
      "assetIds": []
    },
    {
      "x": 155,
      "y": 50,
      "size": 1,
      "price": "905000000000000000000",
      "reserved": "",
      "assetIds": []
    },
    {
      "x": 155,
      "y": 51,
      "size": 1,
      "price": "905000000000000000000",
      "reserved": "",
      "assetIds": []
    },
    {
      "x": 155,
      "y": 52,
      "size": 1,
      "price": "905000000000000000000",
      "reserved": "",
      "assetIds": []
    },
    {
      "x": 155,
      "y": 53,
      "size": 1,
      "price": "905000000000000000000",
      "reserved": "",
      "assetIds": []
    },
    {
      "x": 153,
      "y": 50,
      "size": 1,
      "price": "905000000000000000000",
      "reserved": "",
      "assetIds": []
    },
    {
      "x": 154,
      "y": 53,
      "size": 1,
      "price": "905000000000000000000",
      "reserved": "",
      "assetIds": []
    },
    {
      "x": 153,
      "y": 51,
      "size": 1,
      "price": "905000000000000000000",
      "reserved": "",
      "assetIds": []
    },
    {
      "x": 153,
      "y": 52,
      "size": 1,
      "price": "905000000000000000000",
      "reserved": "",
      "assetIds": []
    },
    {
      "x": 153,
      "y": 53,
      "size": 1,
      "price": "905000000000000000000",
      "reserved": "",
      "assetIds": []
    },
    {
      "x": 153,
      "y": 49,
      "size": 1,
      "price": "905000000000000000000",
      "reserved": "",
      "assetIds": []
    },
    {
      "x": 152,
      "y": 53,
      "size": 1,
      "price": "905000000000000000000",
      "reserved": "",
      "assetIds": []
    },
    {
      "x": 151,
      "y": 52,
      "size": 1,
      "price": "905000000000000000000",
      "reserved": "",
      "assetIds": []
    },
    {
      "x": 151,
      "y": 51,
      "size": 1,
      "price": "905000000000000000000",
      "reserved": "",
      "assetIds": []
    },
    {
      "x": 151,
      "y": 50,
      "size": 1,
      "price": "905000000000000000000",
      "reserved": "",
      "assetIds": []
    },
    {
      "x": 151,
      "y": 49,
      "size": 1,
      "price": "905000000000000000000",
      "reserved": "",
      "assetIds": []
    },
    {
      "x": 151,
      "y": 48,
      "size": 1,
      "price": "905000000000000000000",
      "reserved": "",
      "assetIds": []
    },
    {
      "x": 151,
      "y": 53,
      "size": 1,
      "price": "905000000000000000000",
      "reserved": "",
      "assetIds": []
    },
    {
      "x": 107,
      "y": 82,
      "size": 1,
      "price": "905000000000000000000",
      "reserved": "",
      "assetIds": []
    },
    {
      "x": 106,
      "y": 82,
      "size": 1,
      "price": "905000000000000000000",
      "reserved": "",
      "assetIds": []
    },
    {
      "x": 105,
      "y": 82,
      "size": 1,
      "price": "905000000000000000000",
      "reserved": "",
      "assetIds": []
    },
    {
      "x": 103,
      "y": 82,
      "size": 1,
      "price": "905000000000000000000",
      "reserved": "",
      "assetIds": []
    },
    {
      "x": 102,
      "y": 82,
      "size": 1,
      "price": "905000000000000000000",
      "reserved": "",
      "assetIds": []
    },
    {
      "x": 100,
      "y": 82,
      "size": 1,
      "price": "905000000000000000000",
      "reserved": "",
      "assetIds": []
    },
    {
      "x": 99,
      "y": 82,
      "size": 1,
      "price": "905000000000000000000",
      "reserved": "",
      "assetIds": []
    },
    {
      "x": 98,
      "y": 82,
      "size": 1,
      "price": "905000000000000000000",
      "reserved": "",
      "assetIds": []
    },
    {
      "x": 97,
      "y": 82,
      "size": 1,
      "price": "905000000000000000000",
      "reserved": "",
      "assetIds": []
    },
    {
      "x": 101,
      "y": 82,
      "size": 1,
      "price": "905000000000000000000",
      "reserved": "",
      "assetIds": []
    },
    {
      "x": 106,
      "y": 81,
      "size": 1,
      "price": "905000000000000000000",
      "reserved": "",
      "assetIds": []
    },
    {
      "x": 107,
      "y": 81,
      "size": 1,
      "price": "905000000000000000000",
      "reserved": "",
      "assetIds": []
    },
    {
      "x": 105,
      "y": 81,
      "size": 1,
      "price": "905000000000000000000",
      "reserved": "",
      "assetIds": []
    },
    {
      "x": 104,
      "y": 81,
      "size": 1,
      "price": "905000000000000000000",
      "reserved": "",
      "assetIds": []
    },
    {
      "x": 103,
      "y": 81,
      "size": 1,
      "price": "905000000000000000000",
      "reserved": "",
      "assetIds": []
    },
    {
      "x": 102,
      "y": 81,
      "size": 1,
      "price": "905000000000000000000",
      "reserved": "",
      "assetIds": []
    },
    {
      "x": 101,
      "y": 81,
      "size": 1,
      "price": "905000000000000000000",
      "reserved": "",
      "assetIds": []
    },
    {
      "x": 99,
      "y": 81,
      "size": 1,
      "price": "905000000000000000000",
      "reserved": "",
      "assetIds": []
    },
    {
      "x": 98,
      "y": 81,
      "size": 1,
      "price": "905000000000000000000",
      "reserved": "",
      "assetIds": []
    },
    {
      "x": 97,
      "y": 81,
      "size": 1,
      "price": "905000000000000000000",
      "reserved": "",
      "assetIds": []
    },
    {
      "x": 96,
      "y": 81,
      "size": 1,
      "price": "905000000000000000000",
      "reserved": "",
      "assetIds": []
    },
    {
      "x": 95,
      "y": 81,
      "size": 1,
      "price": "905000000000000000000",
      "reserved": "",
      "assetIds": []
    },
    {
      "x": 94,
      "y": 81,
      "size": 1,
      "price": "905000000000000000000",
      "reserved": "",
      "assetIds": []
    },
    {
      "x": 93,
      "y": 81,
      "size": 1,
      "price": "905000000000000000000",
      "reserved": "",
      "assetIds": []
    },
    {
      "x": 92,
      "y": 81,
      "size": 1,
      "price": "905000000000000000000",
      "reserved": "",
      "assetIds": []
    },
    {
      "x": 91,
      "y": 81,
      "size": 1,
      "price": "905000000000000000000",
      "reserved": "",
      "assetIds": []
    },
    {
      "x": 99,
      "y": 80,
      "size": 1,
      "price": "905000000000000000000",
      "reserved": "",
      "assetIds": []
    },
    {
      "x": 100,
      "y": 80,
      "size": 1,
      "price": "905000000000000000000",
      "reserved": "",
      "assetIds": []
    },
    {
      "x": 101,
      "y": 80,
      "size": 1,
      "price": "905000000000000000000",
      "reserved": "",
      "assetIds": []
    },
    {
      "x": 102,
      "y": 80,
      "size": 1,
      "price": "905000000000000000000",
      "reserved": "",
      "assetIds": []
    },
    {
      "x": 103,
      "y": 80,
      "size": 1,
      "price": "905000000000000000000",
      "reserved": "",
      "assetIds": []
    },
    {
      "x": 98,
      "y": 80,
      "size": 1,
      "price": "905000000000000000000",
      "reserved": "",
      "assetIds": []
    },
    {
      "x": 97,
      "y": 80,
      "size": 1,
      "price": "905000000000000000000",
      "reserved": "",
      "assetIds": []
    },
    {
      "x": 96,
      "y": 80,
      "size": 1,
      "price": "905000000000000000000",
      "reserved": "",
      "assetIds": []
    },
    {
      "x": 95,
      "y": 80,
      "size": 1,
      "price": "905000000000000000000",
      "reserved": "",
      "assetIds": []
    },
    {
      "x": 94,
      "y": 80,
      "size": 1,
      "price": "905000000000000000000",
      "reserved": "",
      "assetIds": []
    },
    {
      "x": 93,
      "y": 80,
      "size": 1,
      "price": "905000000000000000000",
      "reserved": "",
      "assetIds": []
    },
    {
      "x": 92,
      "y": 79,
      "size": 1,
      "price": "905000000000000000000",
      "reserved": "",
      "assetIds": []
    },
    {
      "x": 93,
      "y": 79,
      "size": 1,
      "price": "905000000000000000000",
      "reserved": "",
      "assetIds": []
    },
    {
      "x": 94,
      "y": 79,
      "size": 1,
      "price": "905000000000000000000",
      "reserved": "",
      "assetIds": []
    },
    {
      "x": 95,
      "y": 79,
      "size": 1,
      "price": "905000000000000000000",
      "reserved": "",
      "assetIds": []
    },
    {
      "x": 97,
      "y": 79,
      "size": 1,
      "price": "905000000000000000000",
      "reserved": "",
      "assetIds": []
    },
    {
      "x": 98,
      "y": 79,
      "size": 1,
      "price": "905000000000000000000",
      "reserved": "",
      "assetIds": []
    },
    {
      "x": 99,
      "y": 79,
      "size": 1,
      "price": "905000000000000000000",
      "reserved": "",
      "assetIds": []
    },
    {
      "x": 100,
      "y": 79,
      "size": 1,
      "price": "905000000000000000000",
      "reserved": "",
      "assetIds": []
    },
    {
      "x": 101,
      "y": 79,
      "size": 1,
      "price": "905000000000000000000",
      "reserved": "",
      "assetIds": []
    },
    {
      "x": 102,
      "y": 79,
      "size": 1,
      "price": "905000000000000000000",
      "reserved": "",
      "assetIds": []
    },
    {
      "x": 103,
      "y": 79,
      "size": 1,
      "price": "905000000000000000000",
      "reserved": "",
      "assetIds": []
    },
    {
      "x": 91,
      "y": 79,
      "size": 1,
      "price": "905000000000000000000",
      "reserved": "",
      "assetIds": []
    },
    {
      "x": 90,
      "y": 79,
      "size": 1,
      "price": "905000000000000000000",
      "reserved": "",
      "assetIds": []
    },
    {
      "x": 93,
      "y": 78,
      "size": 1,
      "price": "905000000000000000000",
      "reserved": "",
      "assetIds": []
    },
    {
      "x": 94,
      "y": 78,
      "size": 1,
      "price": "905000000000000000000",
      "reserved": "",
      "assetIds": []
    },
    {
      "x": 96,
      "y": 77,
      "size": 1,
      "price": "905000000000000000000",
      "reserved": "",
      "assetIds": []
    },
    {
      "x": 97,
      "y": 77,
      "size": 1,
      "price": "905000000000000000000",
      "reserved": "",
      "assetIds": []
    },
    {
      "x": 98,
      "y": 77,
      "size": 1,
      "price": "905000000000000000000",
      "reserved": "",
      "assetIds": []
    },
    {
      "x": 98,
      "y": 76,
      "size": 1,
      "price": "905000000000000000000",
      "reserved": "",
      "assetIds": []
    },
    {
      "x": 101,
      "y": 78,
      "size": 1,
      "price": "905000000000000000000",
      "reserved": "",
      "assetIds": []
    },
    {
      "x": 102,
      "y": 78,
      "size": 1,
      "price": "905000000000000000000",
      "reserved": "",
      "assetIds": []
    },
    {
      "x": 100,
      "y": 78,
      "size": 1,
      "price": "905000000000000000000",
      "reserved": "",
      "assetIds": []
    },
    {
      "x": 99,
      "y": 78,
      "size": 1,
      "price": "905000000000000000000",
      "reserved": "",
      "assetIds": []
    },
    {
      "x": 98,
      "y": 78,
      "size": 1,
      "price": "905000000000000000000",
      "reserved": "",
      "assetIds": []
    },
    {
      "x": 97,
      "y": 78,
      "size": 1,
      "price": "905000000000000000000",
      "reserved": "",
      "assetIds": []
    },
    {
      "x": 96,
      "y": 78,
      "size": 1,
      "price": "905000000000000000000",
      "reserved": "",
      "assetIds": []
    },
    {
      "x": 95,
      "y": 78,
      "size": 1,
      "price": "905000000000000000000",
      "reserved": "",
      "assetIds": []
    },
    {
      "x": 91,
      "y": 80,
      "size": 1,
      "price": "905000000000000000000",
      "reserved": "",
      "assetIds": []
    },
    {
      "x": 90,
      "y": 80,
      "size": 1,
      "price": "905000000000000000000",
      "reserved": "",
      "assetIds": []
    },
    {
      "x": 90,
      "y": 81,
      "size": 1,
      "price": "905000000000000000000",
      "reserved": "",
      "assetIds": []
    },
    {
      "x": 91,
      "y": 82,
      "size": 1,
      "price": "905000000000000000000",
      "reserved": "",
      "assetIds": []
    },
    {
      "x": 91,
      "y": 78,
      "size": 1,
      "price": "905000000000000000000",
      "reserved": "",
      "assetIds": []
    },
    {
      "x": 90,
      "y": 82,
      "size": 1,
      "price": "905000000000000000000",
      "reserved": "",
      "assetIds": []
    },
    {
      "x": 90,
      "y": 83,
      "size": 1,
      "price": "905000000000000000000",
      "reserved": "",
      "assetIds": []
    },
    {
      "x": 94,
      "y": 83,
      "size": 1,
      "price": "905000000000000000000",
      "reserved": "",
      "assetIds": []
    },
    {
      "x": 95,
      "y": 83,
      "size": 1,
      "price": "905000000000000000000",
      "reserved": "",
      "assetIds": []
    },
    {
      "x": 97,
      "y": 83,
      "size": 1,
      "price": "905000000000000000000",
      "reserved": "",
      "assetIds": []
    },
    {
      "x": 98,
      "y": 83,
      "size": 1,
      "price": "905000000000000000000",
      "reserved": "",
      "assetIds": []
    },
    {
      "x": 99,
      "y": 83,
      "size": 1,
      "price": "905000000000000000000",
      "reserved": "",
      "assetIds": []
    },
    {
      "x": 100,
      "y": 83,
      "size": 1,
      "price": "905000000000000000000",
      "reserved": "",
      "assetIds": []
    },
    {
      "x": 101,
      "y": 83,
      "size": 1,
      "price": "905000000000000000000",
      "reserved": "",
      "assetIds": []
    },
    {
      "x": 92,
      "y": 82,
      "size": 1,
      "price": "905000000000000000000",
      "reserved": "",
      "assetIds": []
    },
    {
      "x": 93,
      "y": 82,
      "size": 1,
      "price": "905000000000000000000",
      "reserved": "",
      "assetIds": []
    },
    {
      "x": 94,
      "y": 82,
      "size": 1,
      "price": "905000000000000000000",
      "reserved": "",
      "assetIds": []
    },
    {
      "x": 96,
      "y": 82,
      "size": 1,
      "price": "905000000000000000000",
      "reserved": "",
      "assetIds": []
    },
    {
      "x": 95,
      "y": 82,
      "size": 1,
      "price": "905000000000000000000",
      "reserved": "",
      "assetIds": []
    },
    {
      "x": 93,
      "y": 83,
      "size": 1,
      "price": "905000000000000000000",
      "reserved": "",
      "assetIds": []
    },
    {
      "x": 92,
      "y": 83,
      "size": 1,
      "price": "905000000000000000000",
      "reserved": "",
      "assetIds": []
    },
    {
      "x": 104,
      "y": 82,
      "size": 1,
      "price": "905000000000000000000",
      "reserved": "",
      "assetIds": []
    },
    {
      "x": 100,
      "y": 81,
      "size": 1,
      "price": "905000000000000000000",
      "reserved": "",
      "assetIds": []
    },
    {
      "x": 91,
      "y": 83,
      "size": 1,
      "price": "905000000000000000000",
      "reserved": "",
      "assetIds": []
    },
    {
      "x": 107,
      "y": 83,
      "size": 1,
      "price": "905000000000000000000",
      "reserved": "",
      "assetIds": []
    },
    {
      "x": 106,
      "y": 83,
      "size": 1,
      "price": "905000000000000000000",
      "reserved": "",
      "assetIds": []
    },
    {
      "x": 105,
      "y": 83,
      "size": 1,
      "price": "905000000000000000000",
      "reserved": "",
      "assetIds": []
    },
    {
      "x": 103,
      "y": 83,
      "size": 1,
      "price": "905000000000000000000",
      "reserved": "",
      "assetIds": []
    },
    {
      "x": 102,
      "y": 83,
      "size": 1,
      "price": "905000000000000000000",
      "reserved": "",
      "assetIds": []
    },
    {
      "x": 104,
      "y": 80,
      "size": 1,
      "price": "905000000000000000000",
      "reserved": "",
      "assetIds": []
    },
    {
      "x": 104,
      "y": 79,
      "size": 1,
      "price": "905000000000000000000",
      "reserved": "",
      "assetIds": []
    },
    {
      "x": 103,
      "y": 78,
      "size": 1,
      "price": "905000000000000000000",
      "reserved": "",
      "assetIds": []
    },
    {
      "x": 97,
      "y": 72,
      "size": 1,
      "price": "905000000000000000000",
      "reserved": "",
      "assetIds": []
    },
    {
      "x": 97,
      "y": 73,
      "size": 1,
      "price": "905000000000000000000",
      "reserved": "",
      "assetIds": []
    },
    {
      "x": 98,
      "y": 73,
      "size": 1,
      "price": "905000000000000000000",
      "reserved": "",
      "assetIds": []
    },
    {
      "x": 98,
      "y": 74,
      "size": 1,
      "price": "905000000000000000000",
      "reserved": "",
      "assetIds": []
    },
    {
      "x": 98,
      "y": 75,
      "size": 1,
      "price": "905000000000000000000",
      "reserved": "",
      "assetIds": []
    },
    {
      "x": 97,
      "y": 76,
      "size": 1,
      "price": "905000000000000000000",
      "reserved": "",
      "assetIds": []
    },
    {
      "x": 97,
      "y": 75,
      "size": 1,
      "price": "905000000000000000000",
      "reserved": "",
      "assetIds": []
    },
    {
      "x": 97,
      "y": 74,
      "size": 1,
      "price": "905000000000000000000",
      "reserved": "",
      "assetIds": []
    },
    {
      "x": 96,
      "y": 74,
      "size": 1,
      "price": "905000000000000000000",
      "reserved": "",
      "assetIds": []
    },
    {
      "x": 96,
      "y": 73,
      "size": 1,
      "price": "905000000000000000000",
      "reserved": "",
      "assetIds": []
    },
    {
      "x": 98,
      "y": 72,
      "size": 1,
      "price": "905000000000000000000",
      "reserved": "",
      "assetIds": []
    },
    {
      "x": 96,
      "y": 75,
      "size": 1,
      "price": "905000000000000000000",
      "reserved": "",
      "assetIds": []
    },
    {
      "x": 96,
      "y": 76,
      "size": 1,
      "price": "905000000000000000000",
      "reserved": "",
      "assetIds": []
    },
    {
      "x": 109,
      "y": 50,
      "size": 1,
      "price": "905000000000000000000",
      "reserved": "",
      "assetIds": []
    },
    {
      "x": 77,
      "y": 74,
      "size": 1,
      "price": "905000000000000000000",
      "reserved": "",
      "assetIds": []
    },
    {
      "x": 77,
      "y": 73,
      "size": 1,
      "price": "905000000000000000000",
      "reserved": "",
      "assetIds": []
    },
    {
      "x": 76,
      "y": 73,
      "size": 1,
      "price": "905000000000000000000",
      "reserved": "",
      "assetIds": []
    },
    {
      "x": 76,
      "y": 74,
      "size": 1,
      "price": "905000000000000000000",
      "reserved": "",
      "assetIds": []
    },
    {
      "x": 75,
      "y": 74,
      "size": 1,
      "price": "905000000000000000000",
      "reserved": "",
      "assetIds": []
    },
    {
      "x": 75,
      "y": 73,
      "size": 1,
      "price": "905000000000000000000",
      "reserved": "",
      "assetIds": []
    },
    {
      "x": 75,
      "y": 72,
      "size": 1,
      "price": "905000000000000000000",
      "reserved": "",
      "assetIds": []
    },
    {
      "x": 76,
      "y": 72,
      "size": 1,
      "price": "905000000000000000000",
      "reserved": "",
      "assetIds": []
    },
    {
      "x": 74,
      "y": 75,
      "size": 1,
      "price": "905000000000000000000",
      "reserved": "",
      "assetIds": []
    },
    {
      "x": 73,
      "y": 75,
      "size": 1,
      "price": "905000000000000000000",
      "reserved": "",
      "assetIds": []
    },
    {
      "x": 72,
      "y": 76,
      "size": 1,
      "price": "905000000000000000000",
      "reserved": "",
      "assetIds": []
    },
    {
      "x": 73,
      "y": 76,
      "size": 1,
      "price": "905000000000000000000",
      "reserved": "",
      "assetIds": []
    },
    {
      "x": 74,
      "y": 76,
      "size": 1,
      "price": "905000000000000000000",
      "reserved": "",
      "assetIds": []
    },
    {
      "x": 74,
      "y": 77,
      "size": 1,
      "price": "905000000000000000000",
      "reserved": "",
      "assetIds": []
    },
    {
      "x": 73,
      "y": 77,
      "size": 1,
      "price": "905000000000000000000",
      "reserved": "",
      "assetIds": []
    },
    {
      "x": 72,
      "y": 75,
      "size": 1,
      "price": "905000000000000000000",
      "reserved": "",
      "assetIds": []
    },
    {
      "x": 84,
      "y": 76,
      "size": 1,
      "price": "905000000000000000000",
      "reserved": "",
      "assetIds": []
    },
    {
      "x": 85,
      "y": 76,
      "size": 1,
      "price": "905000000000000000000",
      "reserved": "",
      "assetIds": []
    },
    {
      "x": 86,
      "y": 76,
      "size": 1,
      "price": "905000000000000000000",
      "reserved": "",
      "assetIds": []
    },
    {
      "x": 87,
      "y": 76,
      "size": 1,
      "price": "905000000000000000000",
      "reserved": "",
      "assetIds": []
    },
    {
      "x": 88,
      "y": 76,
      "size": 1,
      "price": "905000000000000000000",
      "reserved": "",
      "assetIds": []
    },
    {
      "x": 88,
      "y": 75,
      "size": 1,
      "price": "905000000000000000000",
      "reserved": "",
      "assetIds": []
    },
    {
      "x": 87,
      "y": 75,
      "size": 1,
      "price": "905000000000000000000",
      "reserved": "",
      "assetIds": []
    },
    {
      "x": 86,
      "y": 75,
      "size": 1,
      "price": "905000000000000000000",
      "reserved": "",
      "assetIds": []
    },
    {
      "x": 85,
      "y": 75,
      "size": 1,
      "price": "905000000000000000000",
      "reserved": "",
      "assetIds": []
    },
    {
      "x": 84,
      "y": 75,
      "size": 1,
      "price": "905000000000000000000",
      "reserved": "",
      "assetIds": []
    },
    {
      "x": 87,
      "y": 74,
      "size": 1,
      "price": "905000000000000000000",
      "reserved": "",
      "assetIds": []
    },
    {
      "x": 88,
      "y": 74,
      "size": 1,
      "price": "905000000000000000000",
      "reserved": "",
      "assetIds": []
    },
    {
      "x": 89,
      "y": 74,
      "size": 1,
      "price": "905000000000000000000",
      "reserved": "",
      "assetIds": []
    },
    {
      "x": 87,
      "y": 73,
      "size": 1,
      "price": "905000000000000000000",
      "reserved": "",
      "assetIds": []
    },
    {
      "x": 87,
      "y": 72,
      "size": 1,
      "price": "905000000000000000000",
      "reserved": "",
      "assetIds": []
    },
    {
      "x": 88,
      "y": 72,
      "size": 1,
      "price": "905000000000000000000",
      "reserved": "",
      "assetIds": []
    },
    {
      "x": 89,
      "y": 73,
      "size": 1,
      "price": "905000000000000000000",
      "reserved": "",
      "assetIds": []
    },
    {
      "x": 89,
      "y": 72,
      "size": 1,
      "price": "905000000000000000000",
      "reserved": "",
      "assetIds": []
    },
    {
      "x": 88,
      "y": 73,
      "size": 1,
      "price": "905000000000000000000",
      "reserved": "",
      "assetIds": []
    },
    {
      "x": 89,
      "y": 76,
      "size": 1,
      "price": "905000000000000000000",
      "reserved": "",
      "assetIds": []
    },
    {
      "x": 89,
      "y": 77,
      "size": 1,
      "price": "905000000000000000000",
      "reserved": "",
      "assetIds": []
    },
    {
      "x": 89,
      "y": 75,
      "size": 1,
      "price": "905000000000000000000",
      "reserved": "",
      "assetIds": []
    },
    {
      "x": 88,
      "y": 77,
      "size": 1,
      "price": "905000000000000000000",
      "reserved": "",
      "assetIds": []
    },
    {
      "x": 87,
      "y": 77,
      "size": 1,
      "price": "905000000000000000000",
      "reserved": "",
      "assetIds": []
    },
    {
      "x": 86,
      "y": 77,
      "size": 1,
      "price": "905000000000000000000",
      "reserved": "",
      "assetIds": []
    },
    {
      "x": 85,
      "y": 77,
      "size": 1,
      "price": "905000000000000000000",
      "reserved": "",
      "assetIds": []
    },
    {
      "x": 83,
      "y": 78,
      "size": 1,
      "price": "905000000000000000000",
      "reserved": "",
      "assetIds": []
    },
    {
      "x": 83,
      "y": 79,
      "size": 1,
      "price": "905000000000000000000",
      "reserved": "",
      "assetIds": []
    },
    {
      "x": 83,
      "y": 80,
      "size": 1,
      "price": "905000000000000000000",
      "reserved": "",
      "assetIds": []
    },
    {
      "x": 83,
      "y": 81,
      "size": 1,
      "price": "905000000000000000000",
      "reserved": "",
      "assetIds": []
    },
    {
      "x": 83,
      "y": 82,
      "size": 1,
      "price": "905000000000000000000",
      "reserved": "",
      "assetIds": []
    },
    {
      "x": 82,
      "y": 83,
      "size": 1,
      "price": "905000000000000000000",
      "reserved": "",
      "assetIds": []
    },
    {
      "x": 82,
      "y": 84,
      "size": 1,
      "price": "905000000000000000000",
      "reserved": "",
      "assetIds": []
    },
    {
      "x": 81,
      "y": 85,
      "size": 1,
      "price": "905000000000000000000",
      "reserved": "",
      "assetIds": []
    },
    {
      "x": 81,
      "y": 86,
      "size": 1,
      "price": "905000000000000000000",
      "reserved": "",
      "assetIds": []
    },
    {
      "x": 80,
      "y": 87,
      "size": 1,
      "price": "905000000000000000000",
      "reserved": "",
      "assetIds": []
    },
    {
      "x": 80,
      "y": 88,
      "size": 1,
      "price": "905000000000000000000",
      "reserved": "",
      "assetIds": []
    },
    {
      "x": 79,
      "y": 87,
      "size": 1,
      "price": "905000000000000000000",
      "reserved": "",
      "assetIds": []
    },
    {
      "x": 79,
      "y": 86,
      "size": 1,
      "price": "905000000000000000000",
      "reserved": "",
      "assetIds": []
    },
    {
      "x": 79,
      "y": 85,
      "size": 1,
      "price": "905000000000000000000",
      "reserved": "",
      "assetIds": []
    },
    {
      "x": 79,
      "y": 84,
      "size": 1,
      "price": "905000000000000000000",
      "reserved": "",
      "assetIds": []
    },
    {
      "x": 80,
      "y": 84,
      "size": 1,
      "price": "905000000000000000000",
      "reserved": "",
      "assetIds": []
    },
    {
      "x": 80,
      "y": 85,
      "size": 1,
      "price": "905000000000000000000",
      "reserved": "",
      "assetIds": []
    },
    {
      "x": 82,
      "y": 78,
      "size": 1,
      "price": "905000000000000000000",
      "reserved": "",
      "assetIds": []
    },
    {
      "x": 82,
      "y": 79,
      "size": 1,
      "price": "905000000000000000000",
      "reserved": "",
      "assetIds": []
    },
    {
      "x": 82,
      "y": 80,
      "size": 1,
      "price": "905000000000000000000",
      "reserved": "",
      "assetIds": []
    },
    {
      "x": 81,
      "y": 81,
      "size": 1,
      "price": "905000000000000000000",
      "reserved": "",
      "assetIds": []
    },
    {
      "x": 81,
      "y": 82,
      "size": 1,
      "price": "905000000000000000000",
      "reserved": "",
      "assetIds": []
    },
    {
      "x": 81,
      "y": 83,
      "size": 1,
      "price": "905000000000000000000",
      "reserved": "",
      "assetIds": []
    },
    {
      "x": 81,
      "y": 80,
      "size": 1,
      "price": "905000000000000000000",
      "reserved": "",
      "assetIds": []
    },
    {
      "x": 81,
      "y": 79,
      "size": 1,
      "price": "905000000000000000000",
      "reserved": "",
      "assetIds": []
    },
    {
      "x": 82,
      "y": 81,
      "size": 1,
      "price": "905000000000000000000",
      "reserved": "",
      "assetIds": []
    },
    {
      "x": 82,
      "y": 82,
      "size": 1,
      "price": "905000000000000000000",
      "reserved": "",
      "assetIds": []
    },
    {
      "x": 83,
      "y": 83,
      "size": 1,
      "price": "905000000000000000000",
      "reserved": "",
      "assetIds": []
    },
    {
      "x": 83,
      "y": 85,
      "size": 1,
      "price": "905000000000000000000",
      "reserved": "",
      "assetIds": []
    },
    {
      "x": 83,
      "y": 86,
      "size": 1,
      "price": "905000000000000000000",
      "reserved": "",
      "assetIds": []
    },
    {
      "x": 83,
      "y": 87,
      "size": 1,
      "price": "905000000000000000000",
      "reserved": "",
      "assetIds": []
    },
    {
      "x": 83,
      "y": 89,
      "size": 1,
      "price": "905000000000000000000",
      "reserved": "",
      "assetIds": []
    },
    {
      "x": 79,
      "y": 89,
      "size": 1,
      "price": "905000000000000000000",
      "reserved": "",
      "assetIds": []
    },
    {
      "x": 80,
      "y": 89,
      "size": 1,
      "price": "905000000000000000000",
      "reserved": "",
      "assetIds": []
    },
    {
      "x": 81,
      "y": 88,
      "size": 1,
      "price": "905000000000000000000",
      "reserved": "",
      "assetIds": []
    },
    {
      "x": 82,
      "y": 88,
      "size": 1,
      "price": "905000000000000000000",
      "reserved": "",
      "assetIds": []
    },
    {
      "x": 83,
      "y": 88,
      "size": 1,
      "price": "905000000000000000000",
      "reserved": "",
      "assetIds": []
    },
    {
      "x": 82,
      "y": 87,
      "size": 1,
      "price": "905000000000000000000",
      "reserved": "",
      "assetIds": []
    },
    {
      "x": 81,
      "y": 87,
      "size": 1,
      "price": "905000000000000000000",
      "reserved": "",
      "assetIds": []
    },
    {
      "x": 78,
      "y": 87,
      "size": 1,
      "price": "905000000000000000000",
      "reserved": "",
      "assetIds": []
    },
    {
      "x": 82,
      "y": 86,
      "size": 1,
      "price": "905000000000000000000",
      "reserved": "",
      "assetIds": []
    },
    {
      "x": 82,
      "y": 85,
      "size": 1,
      "price": "905000000000000000000",
      "reserved": "",
      "assetIds": []
    },
    {
      "x": 81,
      "y": 84,
      "size": 1,
      "price": "905000000000000000000",
      "reserved": "",
      "assetIds": []
    },
    {
      "x": 81,
      "y": 89,
      "size": 1,
      "price": "905000000000000000000",
      "reserved": "",
      "assetIds": []
    },
    {
      "x": 82,
      "y": 89,
      "size": 1,
      "price": "905000000000000000000",
      "reserved": "",
      "assetIds": []
    },
    {
      "x": 79,
      "y": 88,
      "size": 1,
      "price": "905000000000000000000",
      "reserved": "",
      "assetIds": []
    },
    {
      "x": 80,
      "y": 86,
      "size": 1,
      "price": "905000000000000000000",
      "reserved": "",
      "assetIds": []
    },
    {
      "x": 78,
      "y": 85,
      "size": 1,
      "price": "905000000000000000000",
      "reserved": "",
      "assetIds": []
    },
    {
      "x": 77,
      "y": 85,
      "size": 1,
      "price": "905000000000000000000",
      "reserved": "",
      "assetIds": []
    },
    {
      "x": 76,
      "y": 85,
      "size": 1,
      "price": "905000000000000000000",
      "reserved": "",
      "assetIds": []
    },
    {
      "x": 75,
      "y": 85,
      "size": 1,
      "price": "905000000000000000000",
      "reserved": "",
      "assetIds": []
    },
    {
      "x": 78,
      "y": 84,
      "size": 1,
      "price": "905000000000000000000",
      "reserved": "",
      "assetIds": []
    },
    {
      "x": 77,
      "y": 84,
      "size": 1,
      "price": "905000000000000000000",
      "reserved": "",
      "assetIds": []
    },
    {
      "x": 76,
      "y": 84,
      "size": 1,
      "price": "905000000000000000000",
      "reserved": "",
      "assetIds": []
    },
    {
      "x": 78,
      "y": 86,
      "size": 1,
      "price": "905000000000000000000",
      "reserved": "",
      "assetIds": []
    },
    {
      "x": 77,
      "y": 86,
      "size": 1,
      "price": "905000000000000000000",
      "reserved": "",
      "assetIds": []
    },
    {
      "x": 76,
      "y": 86,
      "size": 1,
      "price": "905000000000000000000",
      "reserved": "",
      "assetIds": []
    },
    {
      "x": 75,
      "y": 84,
      "size": 1,
      "price": "905000000000000000000",
      "reserved": "",
      "assetIds": []
    },
    {
      "x": 74,
      "y": 89,
      "size": 1,
      "price": "905000000000000000000",
      "reserved": "",
      "assetIds": []
    },
    {
      "x": 74,
      "y": 88,
      "size": 1,
      "price": "905000000000000000000",
      "reserved": "",
      "assetIds": []
    },
    {
      "x": 74,
      "y": 87,
      "size": 1,
      "price": "905000000000000000000",
      "reserved": "",
      "assetIds": []
    },
    {
      "x": 73,
      "y": 89,
      "size": 1,
      "price": "905000000000000000000",
      "reserved": "",
      "assetIds": []
    },
    {
      "x": 73,
      "y": 88,
      "size": 1,
      "price": "905000000000000000000",
      "reserved": "",
      "assetIds": []
    },
    {
      "x": 73,
      "y": 87,
      "size": 1,
      "price": "905000000000000000000",
      "reserved": "",
      "assetIds": []
    },
    {
      "x": 72,
      "y": 88,
      "size": 1,
      "price": "905000000000000000000",
      "reserved": "",
      "assetIds": []
    },
    {
      "x": 72,
      "y": 89,
      "size": 1,
      "price": "905000000000000000000",
      "reserved": "",
      "assetIds": []
    },
    {
      "x": 72,
      "y": 87,
      "size": 1,
      "price": "905000000000000000000",
      "reserved": "",
      "assetIds": []
    },
    {
      "x": 104,
      "y": 90,
      "size": 1,
      "price": "905000000000000000000",
      "reserved": "",
      "assetIds": []
    },
    {
      "x": 103,
      "y": 90,
      "size": 1,
      "price": "905000000000000000000",
      "reserved": "",
      "assetIds": []
    },
    {
      "x": 103,
      "y": 91,
      "size": 1,
      "price": "905000000000000000000",
      "reserved": "",
      "assetIds": []
    },
    {
      "x": 102,
      "y": 91,
      "size": 1,
      "price": "905000000000000000000",
      "reserved": "",
      "assetIds": []
    },
    {
      "x": 100,
      "y": 91,
      "size": 1,
      "price": "905000000000000000000",
      "reserved": "",
      "assetIds": []
    },
    {
      "x": 99,
      "y": 91,
      "size": 1,
      "price": "905000000000000000000",
      "reserved": "",
      "assetIds": []
    },
    {
      "x": 98,
      "y": 91,
      "size": 1,
      "price": "905000000000000000000",
      "reserved": "",
      "assetIds": []
    },
    {
      "x": 97,
      "y": 91,
      "size": 1,
      "price": "905000000000000000000",
      "reserved": "",
      "assetIds": []
    },
    {
      "x": 96,
      "y": 91,
      "size": 1,
      "price": "905000000000000000000",
      "reserved": "",
      "assetIds": []
    },
    {
      "x": 97,
      "y": 92,
      "size": 1,
      "price": "905000000000000000000",
      "reserved": "",
      "assetIds": []
    },
    {
      "x": 98,
      "y": 92,
      "size": 1,
      "price": "905000000000000000000",
      "reserved": "",
      "assetIds": []
    },
    {
      "x": 99,
      "y": 92,
      "size": 1,
      "price": "905000000000000000000",
      "reserved": "",
      "assetIds": []
    },
    {
      "x": 100,
      "y": 92,
      "size": 1,
      "price": "905000000000000000000",
      "reserved": "",
      "assetIds": []
    },
    {
      "x": 101,
      "y": 92,
      "size": 1,
      "price": "905000000000000000000",
      "reserved": "",
      "assetIds": []
    },
    {
      "x": 102,
      "y": 92,
      "size": 1,
      "price": "905000000000000000000",
      "reserved": "",
      "assetIds": []
    },
    {
      "x": 103,
      "y": 92,
      "size": 1,
      "price": "905000000000000000000",
      "reserved": "",
      "assetIds": []
    },
    {
      "x": 104,
      "y": 92,
      "size": 1,
      "price": "905000000000000000000",
      "reserved": "",
      "assetIds": []
    },
    {
      "x": 96,
      "y": 93,
      "size": 1,
      "price": "905000000000000000000",
      "reserved": "",
      "assetIds": []
    },
    {
      "x": 97,
      "y": 93,
      "size": 1,
      "price": "905000000000000000000",
      "reserved": "",
      "assetIds": []
    },
    {
      "x": 98,
      "y": 93,
      "size": 1,
      "price": "905000000000000000000",
      "reserved": "",
      "assetIds": []
    },
    {
      "x": 99,
      "y": 93,
      "size": 1,
      "price": "905000000000000000000",
      "reserved": "",
      "assetIds": []
    },
    {
      "x": 100,
      "y": 93,
      "size": 1,
      "price": "905000000000000000000",
      "reserved": "",
      "assetIds": []
    },
    {
      "x": 101,
      "y": 93,
      "size": 1,
      "price": "905000000000000000000",
      "reserved": "",
      "assetIds": []
    },
    {
      "x": 102,
      "y": 93,
      "size": 1,
      "price": "905000000000000000000",
      "reserved": "",
      "assetIds": []
    },
    {
      "x": 103,
      "y": 93,
      "size": 1,
      "price": "905000000000000000000",
      "reserved": "",
      "assetIds": []
    },
    {
      "x": 103,
      "y": 94,
      "size": 1,
      "price": "905000000000000000000",
      "reserved": "",
      "assetIds": []
    },
    {
      "x": 102,
      "y": 94,
      "size": 1,
      "price": "905000000000000000000",
      "reserved": "",
      "assetIds": []
    },
    {
      "x": 101,
      "y": 94,
      "size": 1,
      "price": "905000000000000000000",
      "reserved": "",
      "assetIds": []
    },
    {
      "x": 100,
      "y": 94,
      "size": 1,
      "price": "905000000000000000000",
      "reserved": "",
      "assetIds": []
    },
    {
      "x": 99,
      "y": 94,
      "size": 1,
      "price": "905000000000000000000",
      "reserved": "",
      "assetIds": []
    },
    {
      "x": 98,
      "y": 94,
      "size": 1,
      "price": "905000000000000000000",
      "reserved": "",
      "assetIds": []
    },
    {
      "x": 97,
      "y": 94,
      "size": 1,
      "price": "905000000000000000000",
      "reserved": "",
      "assetIds": []
    },
    {
      "x": 96,
      "y": 94,
      "size": 1,
      "price": "905000000000000000000",
      "reserved": "",
      "assetIds": []
    },
    {
      "x": 104,
      "y": 94,
      "size": 1,
      "price": "905000000000000000000",
      "reserved": "",
      "assetIds": []
    },
    {
      "x": 103,
      "y": 95,
      "size": 1,
      "price": "905000000000000000000",
      "reserved": "",
      "assetIds": []
    },
    {
      "x": 102,
      "y": 95,
      "size": 1,
      "price": "905000000000000000000",
      "reserved": "",
      "assetIds": []
    },
    {
      "x": 101,
      "y": 95,
      "size": 1,
      "price": "905000000000000000000",
      "reserved": "",
      "assetIds": []
    },
    {
      "x": 100,
      "y": 95,
      "size": 1,
      "price": "905000000000000000000",
      "reserved": "",
      "assetIds": []
    },
    {
      "x": 99,
      "y": 95,
      "size": 1,
      "price": "905000000000000000000",
      "reserved": "",
      "assetIds": []
    },
    {
      "x": 98,
      "y": 95,
      "size": 1,
      "price": "905000000000000000000",
      "reserved": "",
      "assetIds": []
    },
    {
      "x": 97,
      "y": 95,
      "size": 1,
      "price": "905000000000000000000",
      "reserved": "",
      "assetIds": []
    },
    {
      "x": 96,
      "y": 95,
      "size": 1,
      "price": "905000000000000000000",
      "reserved": "",
      "assetIds": []
    },
    {
      "x": 101,
      "y": 90,
      "size": 1,
      "price": "905000000000000000000",
      "reserved": "",
      "assetIds": []
    },
    {
      "x": 102,
      "y": 90,
      "size": 1,
      "price": "905000000000000000000",
      "reserved": "",
      "assetIds": []
    },
    {
      "x": 104,
      "y": 91,
      "size": 1,
      "price": "905000000000000000000",
      "reserved": "",
      "assetIds": []
    },
    {
      "x": 100,
      "y": 90,
      "size": 1,
      "price": "905000000000000000000",
      "reserved": "",
      "assetIds": []
    },
    {
      "x": 99,
      "y": 90,
      "size": 1,
      "price": "905000000000000000000",
      "reserved": "",
      "assetIds": []
    },
    {
      "x": 98,
      "y": 90,
      "size": 1,
      "price": "905000000000000000000",
      "reserved": "",
      "assetIds": []
    },
    {
      "x": 97,
      "y": 90,
      "size": 1,
      "price": "905000000000000000000",
      "reserved": "",
      "assetIds": []
    },
    {
      "x": 96,
      "y": 90,
      "size": 1,
      "price": "905000000000000000000",
      "reserved": "",
      "assetIds": []
    },
    {
      "x": 102,
      "y": 108,
      "size": 1,
      "price": "905000000000000000000",
      "reserved": "",
      "assetIds": []
    },
    {
      "x": 102,
      "y": 109,
      "size": 1,
      "price": "905000000000000000000",
      "reserved": "",
      "assetIds": []
    },
    {
      "x": 102,
      "y": 110,
      "size": 1,
      "price": "905000000000000000000",
      "reserved": "",
      "assetIds": []
    },
    {
      "x": 103,
      "y": 110,
      "size": 1,
      "price": "905000000000000000000",
      "reserved": "",
      "assetIds": []
    },
    {
      "x": 103,
      "y": 109,
      "size": 1,
      "price": "905000000000000000000",
      "reserved": "",
      "assetIds": []
    },
    {
      "x": 103,
      "y": 108,
      "size": 1,
      "price": "905000000000000000000",
      "reserved": "",
      "assetIds": []
    },
    {
      "x": 104,
      "y": 108,
      "size": 1,
      "price": "905000000000000000000",
      "reserved": "",
      "assetIds": []
    },
    {
      "x": 104,
      "y": 109,
      "size": 1,
      "price": "905000000000000000000",
      "reserved": "",
      "assetIds": []
    },
    {
      "x": 104,
      "y": 110,
      "size": 1,
      "price": "905000000000000000000",
      "reserved": "",
      "assetIds": []
    },
    {
      "x": 105,
      "y": 110,
      "size": 1,
      "price": "905000000000000000000",
      "reserved": "",
      "assetIds": []
    },
    {
      "x": 105,
      "y": 109,
      "size": 1,
      "price": "905000000000000000000",
      "reserved": "",
      "assetIds": []
    },
    {
      "x": 105,
      "y": 108,
      "size": 1,
      "price": "905000000000000000000",
      "reserved": "",
      "assetIds": []
    },
    {
      "x": 106,
      "y": 110,
      "size": 1,
      "price": "905000000000000000000",
      "reserved": "",
      "assetIds": []
    },
    {
      "x": 106,
      "y": 111,
      "size": 1,
      "price": "905000000000000000000",
      "reserved": "",
      "assetIds": []
    },
    {
      "x": 107,
      "y": 110,
      "size": 1,
      "price": "905000000000000000000",
      "reserved": "",
      "assetIds": []
    },
    {
      "x": 107,
      "y": 109,
      "size": 1,
      "price": "905000000000000000000",
      "reserved": "",
      "assetIds": []
    },
    {
      "x": 107,
      "y": 111,
      "size": 1,
      "price": "905000000000000000000",
      "reserved": "",
      "assetIds": []
    },
    {
      "x": 107,
      "y": 112,
      "size": 1,
      "price": "905000000000000000000",
      "reserved": "",
      "assetIds": []
    },
    {
      "x": 106,
      "y": 109,
      "size": 1,
      "price": "905000000000000000000",
      "reserved": "",
      "assetIds": []
    },
    {
      "x": 106,
      "y": 108,
      "size": 1,
      "price": "905000000000000000000",
      "reserved": "",
      "assetIds": []
    },
    {
      "x": 106,
      "y": 112,
      "size": 1,
      "price": "905000000000000000000",
      "reserved": "",
      "assetIds": []
    },
    {
      "x": 106,
      "y": 113,
      "size": 1,
      "price": "905000000000000000000",
      "reserved": "",
      "assetIds": []
    },
    {
      "x": 105,
      "y": 111,
      "size": 1,
      "price": "905000000000000000000",
      "reserved": "",
      "assetIds": []
    },
    {
      "x": 105,
      "y": 112,
      "size": 1,
      "price": "905000000000000000000",
      "reserved": "",
      "assetIds": []
    },
    {
      "x": 105,
      "y": 113,
      "size": 1,
      "price": "905000000000000000000",
      "reserved": "",
      "assetIds": []
    },
    {
      "x": 101,
      "y": 113,
      "size": 1,
      "price": "905000000000000000000",
      "reserved": "",
      "assetIds": []
    },
    {
      "x": 101,
      "y": 112,
      "size": 1,
      "price": "905000000000000000000",
      "reserved": "",
      "assetIds": []
    },
    {
      "x": 101,
      "y": 111,
      "size": 1,
      "price": "905000000000000000000",
      "reserved": "",
      "assetIds": []
    },
    {
      "x": 100,
      "y": 111,
      "size": 1,
      "price": "905000000000000000000",
      "reserved": "",
      "assetIds": []
    },
    {
      "x": 100,
      "y": 112,
      "size": 1,
      "price": "905000000000000000000",
      "reserved": "",
      "assetIds": []
    },
    {
      "x": 100,
      "y": 113,
      "size": 1,
      "price": "905000000000000000000",
      "reserved": "",
      "assetIds": []
    },
    {
      "x": 98,
      "y": 110,
      "size": 1,
      "price": "905000000000000000000",
      "reserved": "",
      "assetIds": []
    },
    {
      "x": 98,
      "y": 111,
      "size": 1,
      "price": "905000000000000000000",
      "reserved": "",
      "assetIds": []
    },
    {
      "x": 98,
      "y": 112,
      "size": 1,
      "price": "905000000000000000000",
      "reserved": "",
      "assetIds": []
    },
    {
      "x": 97,
      "y": 112,
      "size": 1,
      "price": "905000000000000000000",
      "reserved": "",
      "assetIds": []
    },
    {
      "x": 97,
      "y": 111,
      "size": 1,
      "price": "905000000000000000000",
      "reserved": "",
      "assetIds": []
    },
    {
      "x": 97,
      "y": 110,
      "size": 1,
      "price": "905000000000000000000",
      "reserved": "",
      "assetIds": []
    },
    {
      "x": 97,
      "y": 109,
      "size": 1,
      "price": "905000000000000000000",
      "reserved": "",
      "assetIds": []
    },
    {
      "x": 97,
      "y": 108,
      "size": 1,
      "price": "905000000000000000000",
      "reserved": "",
      "assetIds": []
    },
    {
      "x": 98,
      "y": 109,
      "size": 1,
      "price": "905000000000000000000",
      "reserved": "",
      "assetIds": []
    },
    {
      "x": 98,
      "y": 113,
      "size": 1,
      "price": "905000000000000000000",
      "reserved": "",
      "assetIds": []
    },
    {
      "x": 97,
      "y": 113,
      "size": 1,
      "price": "905000000000000000000",
      "reserved": "",
      "assetIds": []
    },
    {
      "x": 96,
      "y": 109,
      "size": 1,
      "price": "905000000000000000000",
      "reserved": "",
      "assetIds": []
    },
    {
      "x": 96,
      "y": 108,
      "size": 1,
      "price": "905000000000000000000",
      "reserved": "",
      "assetIds": []
    },
    {
      "x": 96,
      "y": 110,
      "size": 1,
      "price": "905000000000000000000",
      "reserved": "",
      "assetIds": []
    },
    {
      "x": 96,
      "y": 111,
      "size": 1,
      "price": "905000000000000000000",
      "reserved": "",
      "assetIds": []
    },
    {
      "x": 96,
      "y": 112,
      "size": 1,
      "price": "905000000000000000000",
      "reserved": "",
      "assetIds": []
    },
    {
      "x": 96,
      "y": 113,
      "size": 1,
      "price": "905000000000000000000",
      "reserved": "",
      "assetIds": []
    },
    {
      "x": 98,
      "y": 108,
      "size": 1,
      "price": "905000000000000000000",
      "reserved": "",
      "assetIds": []
    },
    {
      "x": 94,
      "y": 113,
      "size": 1,
      "price": "905000000000000000000",
      "reserved": "",
      "assetIds": []
    },
    {
      "x": 94,
      "y": 112,
      "size": 1,
      "price": "905000000000000000000",
      "reserved": "",
      "assetIds": []
    },
    {
      "x": 94,
      "y": 111,
      "size": 1,
      "price": "905000000000000000000",
      "reserved": "",
      "assetIds": []
    },
    {
      "x": 93,
      "y": 113,
      "size": 1,
      "price": "905000000000000000000",
      "reserved": "",
      "assetIds": []
    },
    {
      "x": 93,
      "y": 112,
      "size": 1,
      "price": "905000000000000000000",
      "reserved": "",
      "assetIds": []
    },
    {
      "x": 93,
      "y": 111,
      "size": 1,
      "price": "905000000000000000000",
      "reserved": "",
      "assetIds": []
    },
    {
      "x": 83,
      "y": 109,
      "size": 1,
      "price": "905000000000000000000",
      "reserved": "",
      "assetIds": []
    },
    {
      "x": 83,
      "y": 110,
      "size": 1,
      "price": "905000000000000000000",
      "reserved": "",
      "assetIds": []
    },
    {
      "x": 83,
      "y": 111,
      "size": 1,
      "price": "905000000000000000000",
      "reserved": "",
      "assetIds": []
    },
    {
      "x": 83,
      "y": 113,
      "size": 1,
      "price": "905000000000000000000",
      "reserved": "",
      "assetIds": []
    },
    {
      "x": 83,
      "y": 114,
      "size": 1,
      "price": "905000000000000000000",
      "reserved": "",
      "assetIds": []
    },
    {
      "x": 83,
      "y": 115,
      "size": 1,
      "price": "905000000000000000000",
      "reserved": "",
      "assetIds": []
    },
    {
      "x": 83,
      "y": 108,
      "size": 1,
      "price": "905000000000000000000",
      "reserved": "",
      "assetIds": []
    },
    {
      "x": 83,
      "y": 116,
      "size": 1,
      "price": "905000000000000000000",
      "reserved": "",
      "assetIds": []
    },
    {
      "x": 82,
      "y": 114,
      "size": 1,
      "price": "905000000000000000000",
      "reserved": "",
      "assetIds": []
    },
    {
      "x": 82,
      "y": 113,
      "size": 1,
      "price": "905000000000000000000",
      "reserved": "",
      "assetIds": []
    },
    {
      "x": 82,
      "y": 112,
      "size": 1,
      "price": "905000000000000000000",
      "reserved": "",
      "assetIds": []
    },
    {
      "x": 82,
      "y": 111,
      "size": 1,
      "price": "905000000000000000000",
      "reserved": "",
      "assetIds": []
    },
    {
      "x": 81,
      "y": 111,
      "size": 1,
      "price": "905000000000000000000",
      "reserved": "",
      "assetIds": []
    },
    {
      "x": 81,
      "y": 110,
      "size": 1,
      "price": "905000000000000000000",
      "reserved": "",
      "assetIds": []
    },
    {
      "x": 81,
      "y": 109,
      "size": 1,
      "price": "905000000000000000000",
      "reserved": "",
      "assetIds": []
    },
    {
      "x": 81,
      "y": 108,
      "size": 1,
      "price": "905000000000000000000",
      "reserved": "",
      "assetIds": []
    },
    {
      "x": 81,
      "y": 112,
      "size": 1,
      "price": "905000000000000000000",
      "reserved": "",
      "assetIds": []
    },
    {
      "x": 81,
      "y": 114,
      "size": 1,
      "price": "905000000000000000000",
      "reserved": "",
      "assetIds": []
    },
    {
      "x": 81,
      "y": 115,
      "size": 1,
      "price": "905000000000000000000",
      "reserved": "",
      "assetIds": []
    },
    {
      "x": 81,
      "y": 116,
      "size": 1,
      "price": "905000000000000000000",
      "reserved": "",
      "assetIds": []
    },
    {
      "x": 80,
      "y": 118,
      "size": 1,
      "price": "905000000000000000000",
      "reserved": "",
      "assetIds": []
    },
    {
      "x": 80,
      "y": 117,
      "size": 1,
      "price": "905000000000000000000",
      "reserved": "",
      "assetIds": []
    },
    {
      "x": 80,
      "y": 113,
      "size": 1,
      "price": "905000000000000000000",
      "reserved": "",
      "assetIds": []
    },
    {
      "x": 80,
      "y": 112,
      "size": 1,
      "price": "905000000000000000000",
      "reserved": "",
      "assetIds": []
    },
    {
      "x": 80,
      "y": 111,
      "size": 1,
      "price": "905000000000000000000",
      "reserved": "",
      "assetIds": []
    },
    {
      "x": 82,
      "y": 110,
      "size": 1,
      "price": "905000000000000000000",
      "reserved": "",
      "assetIds": []
    },
    {
      "x": 82,
      "y": 115,
      "size": 1,
      "price": "905000000000000000000",
      "reserved": "",
      "assetIds": []
    },
    {
      "x": 82,
      "y": 109,
      "size": 1,
      "price": "905000000000000000000",
      "reserved": "",
      "assetIds": []
    },
    {
      "x": 78,
      "y": 113,
      "size": 1,
      "price": "905000000000000000000",
      "reserved": "",
      "assetIds": []
    },
    {
      "x": 78,
      "y": 112,
      "size": 1,
      "price": "905000000000000000000",
      "reserved": "",
      "assetIds": []
    },
    {
      "x": 78,
      "y": 111,
      "size": 1,
      "price": "905000000000000000000",
      "reserved": "",
      "assetIds": []
    },
    {
      "x": 79,
      "y": 111,
      "size": 1,
      "price": "905000000000000000000",
      "reserved": "",
      "assetIds": []
    },
    {
      "x": 79,
      "y": 112,
      "size": 1,
      "price": "905000000000000000000",
      "reserved": "",
      "assetIds": []
    },
    {
      "x": 79,
      "y": 113,
      "size": 1,
      "price": "905000000000000000000",
      "reserved": "",
      "assetIds": []
    },
    {
      "x": 79,
      "y": 103,
      "size": 1,
      "price": "905000000000000000000",
      "reserved": "",
      "assetIds": []
    },
    {
      "x": 79,
      "y": 102,
      "size": 1,
      "price": "905000000000000000000",
      "reserved": "",
      "assetIds": []
    },
    {
      "x": 79,
      "y": 101,
      "size": 1,
      "price": "905000000000000000000",
      "reserved": "",
      "assetIds": []
    },
    {
      "x": 79,
      "y": 100,
      "size": 1,
      "price": "905000000000000000000",
      "reserved": "",
      "assetIds": []
    },
    {
      "x": 80,
      "y": 99,
      "size": 1,
      "price": "905000000000000000000",
      "reserved": "",
      "assetIds": []
    },
    {
      "x": 80,
      "y": 98,
      "size": 1,
      "price": "905000000000000000000",
      "reserved": "",
      "assetIds": []
    },
    {
      "x": 80,
      "y": 97,
      "size": 1,
      "price": "905000000000000000000",
      "reserved": "",
      "assetIds": []
    },
    {
      "x": 80,
      "y": 100,
      "size": 1,
      "price": "905000000000000000000",
      "reserved": "",
      "assetIds": []
    },
    {
      "x": 80,
      "y": 101,
      "size": 1,
      "price": "905000000000000000000",
      "reserved": "",
      "assetIds": []
    },
    {
      "x": 80,
      "y": 103,
      "size": 1,
      "price": "905000000000000000000",
      "reserved": "",
      "assetIds": []
    },
    {
      "x": 80,
      "y": 104,
      "size": 1,
      "price": "905000000000000000000",
      "reserved": "",
      "assetIds": []
    },
    {
      "x": 80,
      "y": 102,
      "size": 1,
      "price": "905000000000000000000",
      "reserved": "",
      "assetIds": []
    },
    {
      "x": 81,
      "y": 97,
      "size": 1,
      "price": "905000000000000000000",
      "reserved": "",
      "assetIds": []
    },
    {
      "x": 81,
      "y": 96,
      "size": 1,
      "price": "905000000000000000000",
      "reserved": "",
      "assetIds": []
    },
    {
      "x": 82,
      "y": 101,
      "size": 1,
      "price": "905000000000000000000",
      "reserved": "",
      "assetIds": []
    },
    {
      "x": 82,
      "y": 102,
      "size": 1,
      "price": "905000000000000000000",
      "reserved": "",
      "assetIds": []
    },
    {
      "x": 82,
      "y": 103,
      "size": 1,
      "price": "905000000000000000000",
      "reserved": "",
      "assetIds": []
    },
    {
      "x": 81,
      "y": 104,
      "size": 1,
      "price": "905000000000000000000",
      "reserved": "",
      "assetIds": []
    },
    {
      "x": 79,
      "y": 104,
      "size": 1,
      "price": "905000000000000000000",
      "reserved": "",
      "assetIds": []
    },
    {
      "x": 81,
      "y": 99,
      "size": 1,
      "price": "905000000000000000000",
      "reserved": "",
      "assetIds": []
    },
    {
      "x": 82,
      "y": 99,
      "size": 1,
      "price": "905000000000000000000",
      "reserved": "",
      "assetIds": []
    },
    {
      "x": 82,
      "y": 104,
      "size": 1,
      "price": "905000000000000000000",
      "reserved": "",
      "assetIds": []
    },
    {
      "x": 81,
      "y": 103,
      "size": 1,
      "price": "905000000000000000000",
      "reserved": "",
      "assetIds": []
    },
    {
      "x": 83,
      "y": 101,
      "size": 1,
      "price": "905000000000000000000",
      "reserved": "",
      "assetIds": []
    },
    {
      "x": 81,
      "y": 101,
      "size": 1,
      "price": "905000000000000000000",
      "reserved": "",
      "assetIds": []
    },
    {
      "x": 81,
      "y": 100,
      "size": 1,
      "price": "905000000000000000000",
      "reserved": "",
      "assetIds": []
    },
    {
      "x": 82,
      "y": 98,
      "size": 1,
      "price": "905000000000000000000",
      "reserved": "",
      "assetIds": []
    },
    {
      "x": 82,
      "y": 97,
      "size": 1,
      "price": "905000000000000000000",
      "reserved": "",
      "assetIds": []
    },
    {
      "x": 83,
      "y": 103,
      "size": 1,
      "price": "905000000000000000000",
      "reserved": "",
      "assetIds": []
    },
    {
      "x": 83,
      "y": 102,
      "size": 1,
      "price": "905000000000000000000",
      "reserved": "",
      "assetIds": []
    },
    {
      "x": 83,
      "y": 98,
      "size": 1,
      "price": "905000000000000000000",
      "reserved": "",
      "assetIds": []
    },
    {
      "x": 83,
      "y": 97,
      "size": 1,
      "price": "905000000000000000000",
      "reserved": "",
      "assetIds": []
    },
    {
      "x": 83,
      "y": 96,
      "size": 1,
      "price": "905000000000000000000",
      "reserved": "",
      "assetIds": []
    },
    {
      "x": 83,
      "y": 99,
      "size": 1,
      "price": "905000000000000000000",
      "reserved": "",
      "assetIds": []
    },
    {
      "x": 83,
      "y": 100,
      "size": 1,
      "price": "905000000000000000000",
      "reserved": "",
      "assetIds": []
    },
    {
      "x": 82,
      "y": 96,
      "size": 1,
      "price": "905000000000000000000",
      "reserved": "",
      "assetIds": []
    },
    {
      "x": 80,
      "y": 96,
      "size": 1,
      "price": "905000000000000000000",
      "reserved": "",
      "assetIds": []
    },
    {
      "x": 79,
      "y": 96,
      "size": 1,
      "price": "905000000000000000000",
      "reserved": "",
      "assetIds": []
    },
    {
      "x": 78,
      "y": 96,
      "size": 1,
      "price": "905000000000000000000",
      "reserved": "",
      "assetIds": []
    },
    {
      "x": 77,
      "y": 96,
      "size": 1,
      "price": "905000000000000000000",
      "reserved": "",
      "assetIds": []
    },
    {
      "x": 76,
      "y": 96,
      "size": 1,
      "price": "905000000000000000000",
      "reserved": "",
      "assetIds": []
    },
    {
      "x": 75,
      "y": 96,
      "size": 1,
      "price": "905000000000000000000",
      "reserved": "",
      "assetIds": []
    },
    {
      "x": 74,
      "y": 96,
      "size": 1,
      "price": "905000000000000000000",
      "reserved": "",
      "assetIds": []
    },
    {
      "x": 73,
      "y": 96,
      "size": 1,
      "price": "905000000000000000000",
      "reserved": "",
      "assetIds": []
    },
    {
      "x": 73,
      "y": 97,
      "size": 1,
      "price": "905000000000000000000",
      "reserved": "",
      "assetIds": []
    },
    {
      "x": 73,
      "y": 98,
      "size": 1,
      "price": "905000000000000000000",
      "reserved": "",
      "assetIds": []
    },
    {
      "x": 73,
      "y": 99,
      "size": 1,
      "price": "905000000000000000000",
      "reserved": "",
      "assetIds": []
    },
    {
      "x": 73,
      "y": 100,
      "size": 1,
      "price": "905000000000000000000",
      "reserved": "",
      "assetIds": []
    },
    {
      "x": 73,
      "y": 101,
      "size": 1,
      "price": "905000000000000000000",
      "reserved": "",
      "assetIds": []
    },
    {
      "x": 74,
      "y": 101,
      "size": 1,
      "price": "905000000000000000000",
      "reserved": "",
      "assetIds": []
    },
    {
      "x": 75,
      "y": 101,
      "size": 1,
      "price": "905000000000000000000",
      "reserved": "",
      "assetIds": []
    },
    {
      "x": 76,
      "y": 100,
      "size": 1,
      "price": "905000000000000000000",
      "reserved": "",
      "assetIds": []
    },
    {
      "x": 77,
      "y": 100,
      "size": 1,
      "price": "905000000000000000000",
      "reserved": "",
      "assetIds": []
    },
    {
      "x": 78,
      "y": 99,
      "size": 1,
      "price": "905000000000000000000",
      "reserved": "",
      "assetIds": []
    },
    {
      "x": 78,
      "y": 98,
      "size": 1,
      "price": "905000000000000000000",
      "reserved": "",
      "assetIds": []
    },
    {
      "x": 79,
      "y": 98,
      "size": 1,
      "price": "905000000000000000000",
      "reserved": "",
      "assetIds": []
    },
    {
      "x": 81,
      "y": 98,
      "size": 1,
      "price": "905000000000000000000",
      "reserved": "",
      "assetIds": []
    },
    {
      "x": 77,
      "y": 98,
      "size": 1,
      "price": "905000000000000000000",
      "reserved": "",
      "assetIds": []
    },
    {
      "x": 77,
      "y": 99,
      "size": 1,
      "price": "905000000000000000000",
      "reserved": "",
      "assetIds": []
    },
    {
      "x": 77,
      "y": 101,
      "size": 1,
      "price": "905000000000000000000",
      "reserved": "",
      "assetIds": []
    },
    {
      "x": 78,
      "y": 101,
      "size": 1,
      "price": "905000000000000000000",
      "reserved": "",
      "assetIds": []
    },
    {
      "x": 79,
      "y": 99,
      "size": 1,
      "price": "905000000000000000000",
      "reserved": "",
      "assetIds": []
    },
    {
      "x": 79,
      "y": 97,
      "size": 1,
      "price": "905000000000000000000",
      "reserved": "",
      "assetIds": []
    },
    {
      "x": 78,
      "y": 100,
      "size": 1,
      "price": "905000000000000000000",
      "reserved": "",
      "assetIds": []
    },
    {
      "x": 77,
      "y": 97,
      "size": 1,
      "price": "905000000000000000000",
      "reserved": "",
      "assetIds": []
    },
    {
      "x": 72,
      "y": 97,
      "size": 1,
      "price": "905000000000000000000",
      "reserved": "",
      "assetIds": []
    },
    {
      "x": 72,
      "y": 98,
      "size": 1,
      "price": "905000000000000000000",
      "reserved": "",
      "assetIds": []
    },
    {
      "x": 72,
      "y": 99,
      "size": 1,
      "price": "905000000000000000000",
      "reserved": "",
      "assetIds": []
    },
    {
      "x": 72,
      "y": 100,
      "size": 1,
      "price": "905000000000000000000",
      "reserved": "",
      "assetIds": []
    },
    {
      "x": 72,
      "y": 101,
      "size": 1,
      "price": "905000000000000000000",
      "reserved": "",
      "assetIds": []
    },
    {
      "x": 72,
      "y": 96,
      "size": 1,
      "price": "905000000000000000000",
      "reserved": "",
      "assetIds": []
    },
    {
      "x": 76,
      "y": 98,
      "size": 1,
      "price": "905000000000000000000",
      "reserved": "",
      "assetIds": []
    },
    {
      "x": 75,
      "y": 98,
      "size": 1,
      "price": "905000000000000000000",
      "reserved": "",
      "assetIds": []
    },
    {
      "x": 76,
      "y": 99,
      "size": 1,
      "price": "905000000000000000000",
      "reserved": "",
      "assetIds": []
    },
    {
      "x": 76,
      "y": 97,
      "size": 1,
      "price": "905000000000000000000",
      "reserved": "",
      "assetIds": []
    },
    {
      "x": 75,
      "y": 100,
      "size": 1,
      "price": "905000000000000000000",
      "reserved": "",
      "assetIds": []
    },
    {
      "x": 74,
      "y": 100,
      "size": 1,
      "price": "905000000000000000000",
      "reserved": "",
      "assetIds": []
    },
    {
      "x": 74,
      "y": 99,
      "size": 1,
      "price": "905000000000000000000",
      "reserved": "",
      "assetIds": []
    },
    {
      "x": 74,
      "y": 98,
      "size": 1,
      "price": "905000000000000000000",
      "reserved": "",
      "assetIds": []
    },
    {
      "x": 75,
      "y": 97,
      "size": 1,
      "price": "905000000000000000000",
      "reserved": "",
      "assetIds": []
    },
    {
      "x": 75,
      "y": 99,
      "size": 1,
      "price": "905000000000000000000",
      "reserved": "",
      "assetIds": []
    },
    {
      "x": 74,
      "y": 97,
      "size": 1,
      "price": "905000000000000000000",
      "reserved": "",
      "assetIds": []
    },
    {
      "x": 78,
      "y": 97,
      "size": 1,
      "price": "905000000000000000000",
      "reserved": "",
      "assetIds": []
    },
    {
      "x": 78,
      "y": 103,
      "size": 1,
      "price": "905000000000000000000",
      "reserved": "",
      "assetIds": []
    },
    {
      "x": 76,
      "y": 101,
      "size": 1,
      "price": "905000000000000000000",
      "reserved": "",
      "assetIds": []
    },
    {
      "x": 81,
      "y": 102,
      "size": 1,
      "price": "905000000000000000000",
      "reserved": "",
      "assetIds": []
    },
    {
      "x": 82,
      "y": 108,
      "size": 1,
      "price": "905000000000000000000",
      "reserved": "",
      "assetIds": []
    },
    {
      "x": 82,
      "y": 116,
      "size": 1,
      "price": "905000000000000000000",
      "reserved": "",
      "assetIds": []
    },
    {
      "x": 79,
      "y": 117,
      "size": 1,
      "price": "905000000000000000000",
      "reserved": "",
      "assetIds": []
    },
    {
      "x": 78,
      "y": 117,
      "size": 1,
      "price": "905000000000000000000",
      "reserved": "",
      "assetIds": []
    },
    {
      "x": 79,
      "y": 118,
      "size": 1,
      "price": "905000000000000000000",
      "reserved": "",
      "assetIds": []
    },
    {
      "x": 78,
      "y": 118,
      "size": 1,
      "price": "905000000000000000000",
      "reserved": "",
      "assetIds": []
    },
    {
      "x": 80,
      "y": 119,
      "size": 1,
      "price": "905000000000000000000",
      "reserved": "",
      "assetIds": []
    },
    {
      "x": 82,
      "y": 120,
      "size": 1,
      "price": "905000000000000000000",
      "reserved": "",
      "assetIds": []
    },
    {
      "x": 81,
      "y": 120,
      "size": 1,
      "price": "905000000000000000000",
      "reserved": "",
      "assetIds": []
    },
    {
      "x": 80,
      "y": 120,
      "size": 1,
      "price": "905000000000000000000",
      "reserved": "",
      "assetIds": []
    },
    {
      "x": 79,
      "y": 120,
      "size": 1,
      "price": "905000000000000000000",
      "reserved": "",
      "assetIds": []
    },
    {
      "x": 78,
      "y": 120,
      "size": 1,
      "price": "905000000000000000000",
      "reserved": "",
      "assetIds": []
    },
    {
      "x": 77,
      "y": 120,
      "size": 1,
      "price": "905000000000000000000",
      "reserved": "",
      "assetIds": []
    },
    {
      "x": 77,
      "y": 121,
      "size": 1,
      "price": "905000000000000000000",
      "reserved": "",
      "assetIds": []
    },
    {
      "x": 78,
      "y": 121,
      "size": 1,
      "price": "905000000000000000000",
      "reserved": "",
      "assetIds": []
    },
    {
      "x": 78,
      "y": 122,
      "size": 1,
      "price": "905000000000000000000",
      "reserved": "",
      "assetIds": []
    },
    {
      "x": 79,
      "y": 122,
      "size": 1,
      "price": "905000000000000000000",
      "reserved": "",
      "assetIds": []
    },
    {
      "x": 80,
      "y": 123,
      "size": 1,
      "price": "905000000000000000000",
      "reserved": "",
      "assetIds": []
    },
    {
      "x": 81,
      "y": 123,
      "size": 1,
      "price": "905000000000000000000",
      "reserved": "",
      "assetIds": []
    },
    {
      "x": 82,
      "y": 123,
      "size": 1,
      "price": "905000000000000000000",
      "reserved": "",
      "assetIds": []
    },
    {
      "x": 81,
      "y": 122,
      "size": 1,
      "price": "905000000000000000000",
      "reserved": "",
      "assetIds": []
    },
    {
      "x": 80,
      "y": 122,
      "size": 1,
      "price": "905000000000000000000",
      "reserved": "",
      "assetIds": []
    },
    {
      "x": 79,
      "y": 121,
      "size": 1,
      "price": "905000000000000000000",
      "reserved": "",
      "assetIds": []
    },
    {
      "x": 76,
      "y": 121,
      "size": 1,
      "price": "905000000000000000000",
      "reserved": "",
      "assetIds": []
    },
    {
      "x": 76,
      "y": 120,
      "size": 1,
      "price": "905000000000000000000",
      "reserved": "",
      "assetIds": []
    },
    {
      "x": 75,
      "y": 120,
      "size": 1,
      "price": "905000000000000000000",
      "reserved": "",
      "assetIds": []
    },
    {
      "x": 74,
      "y": 120,
      "size": 1,
      "price": "905000000000000000000",
      "reserved": "",
      "assetIds": []
    },
    {
      "x": 73,
      "y": 120,
      "size": 1,
      "price": "905000000000000000000",
      "reserved": "",
      "assetIds": []
    },
    {
      "x": 72,
      "y": 120,
      "size": 1,
      "price": "905000000000000000000",
      "reserved": "",
      "assetIds": []
    },
    {
      "x": 71,
      "y": 120,
      "size": 1,
      "price": "905000000000000000000",
      "reserved": "",
      "assetIds": []
    },
    {
      "x": 71,
      "y": 121,
      "size": 1,
      "price": "905000000000000000000",
      "reserved": "",
      "assetIds": []
    },
    {
      "x": 70,
      "y": 121,
      "size": 1,
      "price": "905000000000000000000",
      "reserved": "",
      "assetIds": []
    },
    {
      "x": 69,
      "y": 121,
      "size": 1,
      "price": "905000000000000000000",
      "reserved": "",
      "assetIds": []
    },
    {
      "x": 69,
      "y": 122,
      "size": 1,
      "price": "905000000000000000000",
      "reserved": "",
      "assetIds": []
    },
    {
      "x": 70,
      "y": 122,
      "size": 1,
      "price": "905000000000000000000",
      "reserved": "",
      "assetIds": []
    },
    {
      "x": 71,
      "y": 122,
      "size": 1,
      "price": "905000000000000000000",
      "reserved": "",
      "assetIds": []
    },
    {
      "x": 72,
      "y": 122,
      "size": 1,
      "price": "905000000000000000000",
      "reserved": "",
      "assetIds": []
    },
    {
      "x": 73,
      "y": 122,
      "size": 1,
      "price": "905000000000000000000",
      "reserved": "",
      "assetIds": []
    },
    {
      "x": 74,
      "y": 122,
      "size": 1,
      "price": "905000000000000000000",
      "reserved": "",
      "assetIds": []
    },
    {
      "x": 74,
      "y": 123,
      "size": 1,
      "price": "905000000000000000000",
      "reserved": "",
      "assetIds": []
    },
    {
      "x": 75,
      "y": 123,
      "size": 1,
      "price": "905000000000000000000",
      "reserved": "",
      "assetIds": []
    },
    {
      "x": 76,
      "y": 123,
      "size": 1,
      "price": "905000000000000000000",
      "reserved": "",
      "assetIds": []
    },
    {
      "x": 71,
      "y": 124,
      "size": 1,
      "price": "905000000000000000000",
      "reserved": "",
      "assetIds": []
    },
    {
      "x": 70,
      "y": 124,
      "size": 1,
      "price": "905000000000000000000",
      "reserved": "",
      "assetIds": []
    },
    {
      "x": 69,
      "y": 124,
      "size": 1,
      "price": "905000000000000000000",
      "reserved": "",
      "assetIds": []
    },
    {
      "x": 68,
      "y": 124,
      "size": 1,
      "price": "905000000000000000000",
      "reserved": "",
      "assetIds": []
    },
    {
      "x": 67,
      "y": 124,
      "size": 1,
      "price": "905000000000000000000",
      "reserved": "",
      "assetIds": []
    },
    {
      "x": 66,
      "y": 123,
      "size": 1,
      "price": "905000000000000000000",
      "reserved": "",
      "assetIds": []
    },
    {
      "x": 70,
      "y": 120,
      "size": 1,
      "price": "905000000000000000000",
      "reserved": "",
      "assetIds": []
    },
    {
      "x": 70,
      "y": 123,
      "size": 1,
      "price": "905000000000000000000",
      "reserved": "",
      "assetIds": []
    },
    {
      "x": 69,
      "y": 123,
      "size": 1,
      "price": "905000000000000000000",
      "reserved": "",
      "assetIds": []
    },
    {
      "x": 66,
      "y": 124,
      "size": 1,
      "price": "905000000000000000000",
      "reserved": "",
      "assetIds": []
    },
    {
      "x": 68,
      "y": 123,
      "size": 1,
      "price": "905000000000000000000",
      "reserved": "",
      "assetIds": []
    },
    {
      "x": 67,
      "y": 123,
      "size": 1,
      "price": "905000000000000000000",
      "reserved": "",
      "assetIds": []
    },
    {
      "x": 66,
      "y": 128,
      "size": 1,
      "price": "905000000000000000000",
      "reserved": "",
      "assetIds": []
    },
    {
      "x": 71,
      "y": 123,
      "size": 1,
      "price": "905000000000000000000",
      "reserved": "",
      "assetIds": []
    },
    {
      "x": 72,
      "y": 123,
      "size": 1,
      "price": "905000000000000000000",
      "reserved": "",
      "assetIds": []
    },
    {
      "x": 73,
      "y": 123,
      "size": 1,
      "price": "905000000000000000000",
      "reserved": "",
      "assetIds": []
    },
    {
      "x": 69,
      "y": 120,
      "size": 1,
      "price": "905000000000000000000",
      "reserved": "",
      "assetIds": []
    },
    {
      "x": 72,
      "y": 121,
      "size": 1,
      "price": "905000000000000000000",
      "reserved": "",
      "assetIds": []
    },
    {
      "x": 73,
      "y": 121,
      "size": 1,
      "price": "905000000000000000000",
      "reserved": "",
      "assetIds": []
    },
    {
      "x": 79,
      "y": 119,
      "size": 1,
      "price": "905000000000000000000",
      "reserved": "",
      "assetIds": []
    },
    {
      "x": 80,
      "y": 121,
      "size": 1,
      "price": "905000000000000000000",
      "reserved": "",
      "assetIds": []
    },
    {
      "x": 82,
      "y": 122,
      "size": 1,
      "price": "905000000000000000000",
      "reserved": "",
      "assetIds": []
    },
    {
      "x": 83,
      "y": 122,
      "size": 1,
      "price": "905000000000000000000",
      "reserved": "",
      "assetIds": []
    },
    {
      "x": 81,
      "y": 121,
      "size": 1,
      "price": "905000000000000000000",
      "reserved": "",
      "assetIds": []
    },
    {
      "x": 82,
      "y": 121,
      "size": 1,
      "price": "905000000000000000000",
      "reserved": "",
      "assetIds": []
    },
    {
      "x": 83,
      "y": 121,
      "size": 1,
      "price": "905000000000000000000",
      "reserved": "",
      "assetIds": []
    },
    {
      "x": 76,
      "y": 122,
      "size": 1,
      "price": "905000000000000000000",
      "reserved": "",
      "assetIds": []
    },
    {
      "x": 77,
      "y": 122,
      "size": 1,
      "price": "905000000000000000000",
      "reserved": "",
      "assetIds": []
    },
    {
      "x": 74,
      "y": 121,
      "size": 1,
      "price": "905000000000000000000",
      "reserved": "",
      "assetIds": []
    },
    {
      "x": 75,
      "y": 122,
      "size": 1,
      "price": "905000000000000000000",
      "reserved": "",
      "assetIds": []
    },
    {
      "x": 77,
      "y": 123,
      "size": 1,
      "price": "905000000000000000000",
      "reserved": "",
      "assetIds": []
    },
    {
      "x": 78,
      "y": 123,
      "size": 1,
      "price": "905000000000000000000",
      "reserved": "",
      "assetIds": []
    },
    {
      "x": 79,
      "y": 123,
      "size": 1,
      "price": "905000000000000000000",
      "reserved": "",
      "assetIds": []
    },
    {
      "x": 83,
      "y": 123,
      "size": 1,
      "price": "905000000000000000000",
      "reserved": "",
      "assetIds": []
    },
    {
      "x": 84,
      "y": 123,
      "size": 1,
      "price": "905000000000000000000",
      "reserved": "",
      "assetIds": []
    },
    {
      "x": 85,
      "y": 123,
      "size": 1,
      "price": "905000000000000000000",
      "reserved": "",
      "assetIds": []
    },
    {
      "x": 86,
      "y": 123,
      "size": 1,
      "price": "905000000000000000000",
      "reserved": "",
      "assetIds": []
    },
    {
      "x": 87,
      "y": 122,
      "size": 1,
      "price": "905000000000000000000",
      "reserved": "",
      "assetIds": []
    },
    {
      "x": 84,
      "y": 124,
      "size": 1,
      "price": "905000000000000000000",
      "reserved": "",
      "assetIds": []
    },
    {
      "x": 85,
      "y": 124,
      "size": 1,
      "price": "905000000000000000000",
      "reserved": "",
      "assetIds": []
    },
    {
      "x": 86,
      "y": 124,
      "size": 1,
      "price": "905000000000000000000",
      "reserved": "",
      "assetIds": []
    },
    {
      "x": 90,
      "y": 121,
      "size": 1,
      "price": "905000000000000000000",
      "reserved": "",
      "assetIds": []
    },
    {
      "x": 91,
      "y": 120,
      "size": 1,
      "price": "905000000000000000000",
      "reserved": "",
      "assetIds": []
    },
    {
      "x": 92,
      "y": 120,
      "size": 1,
      "price": "905000000000000000000",
      "reserved": "",
      "assetIds": []
    },
    {
      "x": 89,
      "y": 121,
      "size": 1,
      "price": "905000000000000000000",
      "reserved": "",
      "assetIds": []
    },
    {
      "x": 88,
      "y": 121,
      "size": 1,
      "price": "905000000000000000000",
      "reserved": "",
      "assetIds": []
    },
    {
      "x": 87,
      "y": 121,
      "size": 1,
      "price": "905000000000000000000",
      "reserved": "",
      "assetIds": []
    },
    {
      "x": 91,
      "y": 121,
      "size": 1,
      "price": "905000000000000000000",
      "reserved": "",
      "assetIds": []
    },
    {
      "x": 89,
      "y": 120,
      "size": 1,
      "price": "905000000000000000000",
      "reserved": "",
      "assetIds": []
    },
    {
      "x": 88,
      "y": 120,
      "size": 1,
      "price": "905000000000000000000",
      "reserved": "",
      "assetIds": []
    },
    {
      "x": 87,
      "y": 120,
      "size": 1,
      "price": "905000000000000000000",
      "reserved": "",
      "assetIds": []
    },
    {
      "x": 91,
      "y": 122,
      "size": 1,
      "price": "905000000000000000000",
      "reserved": "",
      "assetIds": []
    },
    {
      "x": 92,
      "y": 121,
      "size": 1,
      "price": "905000000000000000000",
      "reserved": "",
      "assetIds": []
    },
    {
      "x": 88,
      "y": 122,
      "size": 1,
      "price": "905000000000000000000",
      "reserved": "",
      "assetIds": []
    },
    {
      "x": 89,
      "y": 122,
      "size": 1,
      "price": "905000000000000000000",
      "reserved": "",
      "assetIds": []
    },
    {
      "x": 95,
      "y": 123,
      "size": 1,
      "price": "905000000000000000000",
      "reserved": "",
      "assetIds": []
    },
    {
      "x": 95,
      "y": 124,
      "size": 1,
      "price": "905000000000000000000",
      "reserved": "",
      "assetIds": []
    },
    {
      "x": 95,
      "y": 125,
      "size": 1,
      "price": "905000000000000000000",
      "reserved": "",
      "assetIds": []
    },
    {
      "x": 94,
      "y": 124,
      "size": 1,
      "price": "905000000000000000000",
      "reserved": "",
      "assetIds": []
    },
    {
      "x": 94,
      "y": 125,
      "size": 1,
      "price": "905000000000000000000",
      "reserved": "",
      "assetIds": []
    },
    {
      "x": 93,
      "y": 125,
      "size": 1,
      "price": "905000000000000000000",
      "reserved": "",
      "assetIds": []
    },
    {
      "x": 93,
      "y": 124,
      "size": 1,
      "price": "905000000000000000000",
      "reserved": "",
      "assetIds": []
    },
    {
      "x": 94,
      "y": 123,
      "size": 1,
      "price": "905000000000000000000",
      "reserved": "",
      "assetIds": []
    },
    {
      "x": 93,
      "y": 123,
      "size": 1,
      "price": "905000000000000000000",
      "reserved": "",
      "assetIds": []
    },
    {
      "x": 102,
      "y": 124,
      "size": 1,
      "price": "905000000000000000000",
      "reserved": "",
      "assetIds": []
    },
    {
      "x": 103,
      "y": 124,
      "size": 1,
      "price": "905000000000000000000",
      "reserved": "",
      "assetIds": []
    },
    {
      "x": 103,
      "y": 123,
      "size": 1,
      "price": "905000000000000000000",
      "reserved": "",
      "assetIds": []
    },
    {
      "x": 104,
      "y": 123,
      "size": 1,
      "price": "905000000000000000000",
      "reserved": "",
      "assetIds": []
    },
    {
      "x": 105,
      "y": 123,
      "size": 1,
      "price": "905000000000000000000",
      "reserved": "",
      "assetIds": []
    },
    {
      "x": 106,
      "y": 123,
      "size": 1,
      "price": "905000000000000000000",
      "reserved": "",
      "assetIds": []
    },
    {
      "x": 107,
      "y": 123,
      "size": 1,
      "price": "905000000000000000000",
      "reserved": "",
      "assetIds": []
    },
    {
      "x": 102,
      "y": 123,
      "size": 1,
      "price": "905000000000000000000",
      "reserved": "",
      "assetIds": []
    },
    {
      "x": 104,
      "y": 124,
      "size": 1,
      "price": "905000000000000000000",
      "reserved": "",
      "assetIds": []
    },
    {
      "x": 105,
      "y": 124,
      "size": 1,
      "price": "905000000000000000000",
      "reserved": "",
      "assetIds": []
    },
    {
      "x": 106,
      "y": 124,
      "size": 1,
      "price": "905000000000000000000",
      "reserved": "",
      "assetIds": []
    },
    {
      "x": 107,
      "y": 124,
      "size": 1,
      "price": "905000000000000000000",
      "reserved": "",
      "assetIds": []
    },
    {
      "x": 104,
      "y": 125,
      "size": 1,
      "price": "905000000000000000000",
      "reserved": "",
      "assetIds": []
    },
    {
      "x": 105,
      "y": 125,
      "size": 1,
      "price": "905000000000000000000",
      "reserved": "",
      "assetIds": []
    },
    {
      "x": 106,
      "y": 125,
      "size": 1,
      "price": "905000000000000000000",
      "reserved": "",
      "assetIds": []
    },
    {
      "x": 107,
      "y": 125,
      "size": 1,
      "price": "905000000000000000000",
      "reserved": "",
      "assetIds": []
    },
    {
      "x": 102,
      "y": 125,
      "size": 1,
      "price": "905000000000000000000",
      "reserved": "",
      "assetIds": []
    },
    {
      "x": 103,
      "y": 125,
      "size": 1,
      "price": "905000000000000000000",
      "reserved": "",
      "assetIds": []
    },
    {
      "x": 105,
      "y": 122,
      "size": 1,
      "price": "905000000000000000000",
      "reserved": "",
      "assetIds": []
    },
    {
      "x": 105,
      "y": 121,
      "size": 1,
      "price": "905000000000000000000",
      "reserved": "",
      "assetIds": []
    },
    {
      "x": 105,
      "y": 120,
      "size": 1,
      "price": "905000000000000000000",
      "reserved": "",
      "assetIds": []
    },
    {
      "x": 106,
      "y": 120,
      "size": 1,
      "price": "905000000000000000000",
      "reserved": "",
      "assetIds": []
    },
    {
      "x": 106,
      "y": 121,
      "size": 1,
      "price": "905000000000000000000",
      "reserved": "",
      "assetIds": []
    },
    {
      "x": 106,
      "y": 122,
      "size": 1,
      "price": "905000000000000000000",
      "reserved": "",
      "assetIds": []
    },
    {
      "x": 107,
      "y": 122,
      "size": 1,
      "price": "905000000000000000000",
      "reserved": "",
      "assetIds": []
    },
    {
      "x": 107,
      "y": 121,
      "size": 1,
      "price": "905000000000000000000",
      "reserved": "",
      "assetIds": []
    },
    {
      "x": 107,
      "y": 120,
      "size": 1,
      "price": "905000000000000000000",
      "reserved": "",
      "assetIds": []
    },
    {
      "x": 103,
      "y": 122,
      "size": 1,
      "price": "905000000000000000000",
      "reserved": "",
      "assetIds": []
    },
    {
      "x": 102,
      "y": 122,
      "size": 1,
      "price": "905000000000000000000",
      "reserved": "",
      "assetIds": []
    },
    {
      "x": 102,
      "y": 120,
      "size": 1,
      "price": "905000000000000000000",
      "reserved": "",
      "assetIds": []
    },
    {
      "x": 103,
      "y": 120,
      "size": 1,
      "price": "905000000000000000000",
      "reserved": "",
      "assetIds": []
    },
    {
      "x": 103,
      "y": 121,
      "size": 1,
      "price": "905000000000000000000",
      "reserved": "",
      "assetIds": []
    },
    {
      "x": 104,
      "y": 120,
      "size": 1,
      "price": "905000000000000000000",
      "reserved": "",
      "assetIds": []
    },
    {
      "x": 104,
      "y": 121,
      "size": 1,
      "price": "905000000000000000000",
      "reserved": "",
      "assetIds": []
    },
    {
      "x": 104,
      "y": 122,
      "size": 1,
      "price": "905000000000000000000",
      "reserved": "",
      "assetIds": []
    },
    {
      "x": 102,
      "y": 121,
      "size": 1,
      "price": "905000000000000000000",
      "reserved": "",
      "assetIds": []
    },
    {
      "x": 108,
      "y": 129,
      "size": 1,
      "price": "905000000000000000000",
      "reserved": "",
      "assetIds": []
    },
    {
      "x": 109,
      "y": 130,
      "size": 1,
      "price": "905000000000000000000",
      "reserved": "",
      "assetIds": []
    },
    {
      "x": 110,
      "y": 130,
      "size": 1,
      "price": "905000000000000000000",
      "reserved": "",
      "assetIds": []
    },
    {
      "x": 115,
      "y": 131,
      "size": 1,
      "price": "905000000000000000000",
      "reserved": "",
      "assetIds": []
    },
    {
      "x": 116,
      "y": 131,
      "size": 1,
      "price": "905000000000000000000",
      "reserved": "",
      "assetIds": []
    },
    {
      "x": 117,
      "y": 131,
      "size": 1,
      "price": "905000000000000000000",
      "reserved": "",
      "assetIds": []
    },
    {
      "x": 118,
      "y": 131,
      "size": 1,
      "price": "905000000000000000000",
      "reserved": "",
      "assetIds": []
    },
    {
      "x": 119,
      "y": 131,
      "size": 1,
      "price": "905000000000000000000",
      "reserved": "",
      "assetIds": []
    },
    {
      "x": 116,
      "y": 130,
      "size": 1,
      "price": "905000000000000000000",
      "reserved": "",
      "assetIds": []
    },
    {
      "x": 115,
      "y": 129,
      "size": 1,
      "price": "905000000000000000000",
      "reserved": "",
      "assetIds": []
    },
    {
      "x": 115,
      "y": 128,
      "size": 1,
      "price": "905000000000000000000",
      "reserved": "",
      "assetIds": []
    },
    {
      "x": 116,
      "y": 129,
      "size": 1,
      "price": "905000000000000000000",
      "reserved": "",
      "assetIds": []
    },
    {
      "x": 119,
      "y": 130,
      "size": 1,
      "price": "905000000000000000000",
      "reserved": "",
      "assetIds": []
    },
    {
      "x": 119,
      "y": 129,
      "size": 1,
      "price": "905000000000000000000",
      "reserved": "",
      "assetIds": []
    },
    {
      "x": 119,
      "y": 128,
      "size": 1,
      "price": "905000000000000000000",
      "reserved": "",
      "assetIds": []
    },
    {
      "x": 119,
      "y": 127,
      "size": 1,
      "price": "905000000000000000000",
      "reserved": "",
      "assetIds": []
    },
    {
      "x": 119,
      "y": 126,
      "size": 1,
      "price": "905000000000000000000",
      "reserved": "",
      "assetIds": []
    },
    {
      "x": 118,
      "y": 128,
      "size": 1,
      "price": "905000000000000000000",
      "reserved": "",
      "assetIds": []
    },
    {
      "x": 118,
      "y": 127,
      "size": 1,
      "price": "905000000000000000000",
      "reserved": "",
      "assetIds": []
    },
    {
      "x": 118,
      "y": 126,
      "size": 1,
      "price": "905000000000000000000",
      "reserved": "",
      "assetIds": []
    },
    {
      "x": 118,
      "y": 129,
      "size": 1,
      "price": "905000000000000000000",
      "reserved": "",
      "assetIds": []
    },
    {
      "x": 118,
      "y": 130,
      "size": 1,
      "price": "905000000000000000000",
      "reserved": "",
      "assetIds": []
    },
    {
      "x": 117,
      "y": 127,
      "size": 1,
      "price": "905000000000000000000",
      "reserved": "",
      "assetIds": []
    },
    {
      "x": 117,
      "y": 128,
      "size": 1,
      "price": "905000000000000000000",
      "reserved": "",
      "assetIds": []
    },
    {
      "x": 117,
      "y": 126,
      "size": 1,
      "price": "905000000000000000000",
      "reserved": "",
      "assetIds": []
    },
    {
      "x": 116,
      "y": 128,
      "size": 1,
      "price": "905000000000000000000",
      "reserved": "",
      "assetIds": []
    },
    {
      "x": 115,
      "y": 127,
      "size": 1,
      "price": "905000000000000000000",
      "reserved": "",
      "assetIds": []
    },
    {
      "x": 114,
      "y": 127,
      "size": 1,
      "price": "905000000000000000000",
      "reserved": "",
      "assetIds": []
    },
    {
      "x": 116,
      "y": 126,
      "size": 1,
      "price": "905000000000000000000",
      "reserved": "",
      "assetIds": []
    },
    {
      "x": 115,
      "y": 126,
      "size": 1,
      "price": "905000000000000000000",
      "reserved": "",
      "assetIds": []
    },
    {
      "x": 114,
      "y": 126,
      "size": 1,
      "price": "905000000000000000000",
      "reserved": "",
      "assetIds": []
    },
    {
      "x": 115,
      "y": 130,
      "size": 1,
      "price": "905000000000000000000",
      "reserved": "",
      "assetIds": []
    },
    {
      "x": 117,
      "y": 130,
      "size": 1,
      "price": "905000000000000000000",
      "reserved": "",
      "assetIds": []
    },
    {
      "x": 117,
      "y": 129,
      "size": 1,
      "price": "905000000000000000000",
      "reserved": "",
      "assetIds": []
    },
    {
      "x": 116,
      "y": 127,
      "size": 1,
      "price": "905000000000000000000",
      "reserved": "",
      "assetIds": []
    },
    {
      "x": 114,
      "y": 131,
      "size": 1,
      "price": "905000000000000000000",
      "reserved": "",
      "assetIds": []
    },
    {
      "x": 114,
      "y": 130,
      "size": 1,
      "price": "905000000000000000000",
      "reserved": "",
      "assetIds": []
    },
    {
      "x": 114,
      "y": 129,
      "size": 1,
      "price": "905000000000000000000",
      "reserved": "",
      "assetIds": []
    },
    {
      "x": 114,
      "y": 128,
      "size": 1,
      "price": "905000000000000000000",
      "reserved": "",
      "assetIds": []
    },
    {
      "x": 110,
      "y": 126,
      "size": 1,
      "price": "905000000000000000000",
      "reserved": "",
      "assetIds": []
    },
    {
      "x": 109,
      "y": 126,
      "size": 1,
      "price": "905000000000000000000",
      "reserved": "",
      "assetIds": []
    },
    {
      "x": 108,
      "y": 126,
      "size": 1,
      "price": "905000000000000000000",
      "reserved": "",
      "assetIds": []
    },
    {
      "x": 110,
      "y": 127,
      "size": 1,
      "price": "905000000000000000000",
      "reserved": "",
      "assetIds": []
    },
    {
      "x": 110,
      "y": 128,
      "size": 1,
      "price": "905000000000000000000",
      "reserved": "",
      "assetIds": []
    },
    {
      "x": 109,
      "y": 128,
      "size": 1,
      "price": "905000000000000000000",
      "reserved": "",
      "assetIds": []
    },
    {
      "x": 108,
      "y": 128,
      "size": 1,
      "price": "905000000000000000000",
      "reserved": "",
      "assetIds": []
    },
    {
      "x": 109,
      "y": 129,
      "size": 1,
      "price": "905000000000000000000",
      "reserved": "",
      "assetIds": []
    },
    {
      "x": 110,
      "y": 129,
      "size": 1,
      "price": "905000000000000000000",
      "reserved": "",
      "assetIds": []
    },
    {
      "x": 108,
      "y": 127,
      "size": 1,
      "price": "905000000000000000000",
      "reserved": "",
      "assetIds": []
    },
    {
      "x": 109,
      "y": 127,
      "size": 1,
      "price": "905000000000000000000",
      "reserved": "",
      "assetIds": []
    },
    {
      "x": 109,
      "y": 131,
      "size": 1,
      "price": "905000000000000000000",
      "reserved": "",
      "assetIds": []
    },
    {
      "x": 108,
      "y": 131,
      "size": 1,
      "price": "905000000000000000000",
      "reserved": "",
      "assetIds": []
    },
    {
      "x": 110,
      "y": 131,
      "size": 1,
      "price": "905000000000000000000",
      "reserved": "",
      "assetIds": []
    },
    {
      "x": 108,
      "y": 130,
      "size": 1,
      "price": "905000000000000000000",
      "reserved": "",
      "assetIds": []
    },
    {
      "x": 104,
      "y": 135,
      "size": 1,
      "price": "905000000000000000000",
      "reserved": "",
      "assetIds": []
    },
    {
      "x": 103,
      "y": 135,
      "size": 1,
      "price": "905000000000000000000",
      "reserved": "",
      "assetIds": []
    },
    {
      "x": 102,
      "y": 135,
      "size": 1,
      "price": "905000000000000000000",
      "reserved": "",
      "assetIds": []
    },
    {
      "x": 101,
      "y": 135,
      "size": 1,
      "price": "905000000000000000000",
      "reserved": "",
      "assetIds": []
    },
    {
      "x": 100,
      "y": 135,
      "size": 1,
      "price": "905000000000000000000",
      "reserved": "",
      "assetIds": []
    },
    {
      "x": 99,
      "y": 135,
      "size": 1,
      "price": "905000000000000000000",
      "reserved": "",
      "assetIds": []
    },
    {
      "x": 95,
      "y": 135,
      "size": 1,
      "price": "905000000000000000000",
      "reserved": "",
      "assetIds": []
    },
    {
      "x": 94,
      "y": 135,
      "size": 1,
      "price": "905000000000000000000",
      "reserved": "",
      "assetIds": []
    },
    {
      "x": 93,
      "y": 135,
      "size": 1,
      "price": "905000000000000000000",
      "reserved": "",
      "assetIds": []
    },
    {
      "x": 92,
      "y": 135,
      "size": 1,
      "price": "905000000000000000000",
      "reserved": "",
      "assetIds": []
    },
    {
      "x": 96,
      "y": 134,
      "size": 1,
      "price": "905000000000000000000",
      "reserved": "",
      "assetIds": []
    },
    {
      "x": 97,
      "y": 134,
      "size": 1,
      "price": "905000000000000000000",
      "reserved": "",
      "assetIds": []
    },
    {
      "x": 98,
      "y": 134,
      "size": 1,
      "price": "905000000000000000000",
      "reserved": "",
      "assetIds": []
    },
    {
      "x": 99,
      "y": 134,
      "size": 1,
      "price": "905000000000000000000",
      "reserved": "",
      "assetIds": []
    },
    {
      "x": 100,
      "y": 133,
      "size": 1,
      "price": "905000000000000000000",
      "reserved": "",
      "assetIds": []
    },
    {
      "x": 101,
      "y": 133,
      "size": 1,
      "price": "905000000000000000000",
      "reserved": "",
      "assetIds": []
    },
    {
      "x": 103,
      "y": 133,
      "size": 1,
      "price": "905000000000000000000",
      "reserved": "",
      "assetIds": []
    },
    {
      "x": 104,
      "y": 133,
      "size": 1,
      "price": "905000000000000000000",
      "reserved": "",
      "assetIds": []
    },
    {
      "x": 105,
      "y": 133,
      "size": 1,
      "price": "905000000000000000000",
      "reserved": "",
      "assetIds": []
    },
    {
      "x": 106,
      "y": 133,
      "size": 1,
      "price": "905000000000000000000",
      "reserved": "",
      "assetIds": []
    },
    {
      "x": 107,
      "y": 133,
      "size": 1,
      "price": "905000000000000000000",
      "reserved": "",
      "assetIds": []
    },
    {
      "x": 107,
      "y": 132,
      "size": 1,
      "price": "905000000000000000000",
      "reserved": "",
      "assetIds": []
    },
    {
      "x": 106,
      "y": 132,
      "size": 1,
      "price": "905000000000000000000",
      "reserved": "",
      "assetIds": []
    },
    {
      "x": 105,
      "y": 132,
      "size": 1,
      "price": "905000000000000000000",
      "reserved": "",
      "assetIds": []
    },
    {
      "x": 104,
      "y": 132,
      "size": 1,
      "price": "905000000000000000000",
      "reserved": "",
      "assetIds": []
    },
    {
      "x": 103,
      "y": 132,
      "size": 1,
      "price": "905000000000000000000",
      "reserved": "",
      "assetIds": []
    },
    {
      "x": 102,
      "y": 132,
      "size": 1,
      "price": "905000000000000000000",
      "reserved": "",
      "assetIds": []
    },
    {
      "x": 101,
      "y": 132,
      "size": 1,
      "price": "905000000000000000000",
      "reserved": "",
      "assetIds": []
    },
    {
      "x": 100,
      "y": 132,
      "size": 1,
      "price": "905000000000000000000",
      "reserved": "",
      "assetIds": []
    },
    {
      "x": 99,
      "y": 132,
      "size": 1,
      "price": "905000000000000000000",
      "reserved": "",
      "assetIds": []
    },
    {
      "x": 99,
      "y": 133,
      "size": 1,
      "price": "905000000000000000000",
      "reserved": "",
      "assetIds": []
    },
    {
      "x": 98,
      "y": 133,
      "size": 1,
      "price": "905000000000000000000",
      "reserved": "",
      "assetIds": []
    },
    {
      "x": 97,
      "y": 133,
      "size": 1,
      "price": "905000000000000000000",
      "reserved": "",
      "assetIds": []
    },
    {
      "x": 96,
      "y": 133,
      "size": 1,
      "price": "905000000000000000000",
      "reserved": "",
      "assetIds": []
    },
    {
      "x": 92,
      "y": 133,
      "size": 1,
      "price": "905000000000000000000",
      "reserved": "",
      "assetIds": []
    },
    {
      "x": 91,
      "y": 133,
      "size": 1,
      "price": "905000000000000000000",
      "reserved": "",
      "assetIds": []
    },
    {
      "x": 91,
      "y": 134,
      "size": 1,
      "price": "905000000000000000000",
      "reserved": "",
      "assetIds": []
    },
    {
      "x": 91,
      "y": 132,
      "size": 1,
      "price": "905000000000000000000",
      "reserved": "",
      "assetIds": []
    },
    {
      "x": 92,
      "y": 132,
      "size": 1,
      "price": "905000000000000000000",
      "reserved": "",
      "assetIds": []
    },
    {
      "x": 93,
      "y": 131,
      "size": 1,
      "price": "905000000000000000000",
      "reserved": "",
      "assetIds": []
    },
    {
      "x": 94,
      "y": 131,
      "size": 1,
      "price": "905000000000000000000",
      "reserved": "",
      "assetIds": []
    },
    {
      "x": 95,
      "y": 131,
      "size": 1,
      "price": "905000000000000000000",
      "reserved": "",
      "assetIds": []
    },
    {
      "x": 95,
      "y": 130,
      "size": 1,
      "price": "905000000000000000000",
      "reserved": "",
      "assetIds": []
    },
    {
      "x": 94,
      "y": 130,
      "size": 1,
      "price": "905000000000000000000",
      "reserved": "",
      "assetIds": []
    },
    {
      "x": 93,
      "y": 130,
      "size": 1,
      "price": "905000000000000000000",
      "reserved": "",
      "assetIds": []
    },
    {
      "x": 92,
      "y": 130,
      "size": 1,
      "price": "905000000000000000000",
      "reserved": "",
      "assetIds": []
    },
    {
      "x": 94,
      "y": 129,
      "size": 1,
      "price": "905000000000000000000",
      "reserved": "",
      "assetIds": []
    },
    {
      "x": 95,
      "y": 129,
      "size": 1,
      "price": "905000000000000000000",
      "reserved": "",
      "assetIds": []
    },
    {
      "x": 92,
      "y": 128,
      "size": 1,
      "price": "905000000000000000000",
      "reserved": "",
      "assetIds": []
    },
    {
      "x": 92,
      "y": 129,
      "size": 1,
      "price": "905000000000000000000",
      "reserved": "",
      "assetIds": []
    },
    {
      "x": 91,
      "y": 129,
      "size": 1,
      "price": "905000000000000000000",
      "reserved": "",
      "assetIds": []
    },
    {
      "x": 91,
      "y": 128,
      "size": 1,
      "price": "905000000000000000000",
      "reserved": "",
      "assetIds": []
    },
    {
      "x": 91,
      "y": 127,
      "size": 1,
      "price": "905000000000000000000",
      "reserved": "",
      "assetIds": []
    },
    {
      "x": 91,
      "y": 126,
      "size": 1,
      "price": "905000000000000000000",
      "reserved": "",
      "assetIds": []
    },
    {
      "x": 92,
      "y": 126,
      "size": 1,
      "price": "905000000000000000000",
      "reserved": "",
      "assetIds": []
    },
    {
      "x": 92,
      "y": 127,
      "size": 1,
      "price": "905000000000000000000",
      "reserved": "",
      "assetIds": []
    },
    {
      "x": 90,
      "y": 126,
      "size": 1,
      "price": "905000000000000000000",
      "reserved": "",
      "assetIds": []
    },
    {
      "x": 90,
      "y": 127,
      "size": 1,
      "price": "905000000000000000000",
      "reserved": "",
      "assetIds": []
    },
    {
      "x": 89,
      "y": 126,
      "size": 1,
      "price": "905000000000000000000",
      "reserved": "",
      "assetIds": []
    },
    {
      "x": 91,
      "y": 130,
      "size": 1,
      "price": "905000000000000000000",
      "reserved": "",
      "assetIds": []
    },
    {
      "x": 89,
      "y": 129,
      "size": 1,
      "price": "905000000000000000000",
      "reserved": "",
      "assetIds": []
    },
    {
      "x": 90,
      "y": 128,
      "size": 1,
      "price": "905000000000000000000",
      "reserved": "",
      "assetIds": []
    },
    {
      "x": 92,
      "y": 131,
      "size": 1,
      "price": "905000000000000000000",
      "reserved": "",
      "assetIds": []
    },
    {
      "x": 93,
      "y": 129,
      "size": 1,
      "price": "905000000000000000000",
      "reserved": "",
      "assetIds": []
    },
    {
      "x": 92,
      "y": 134,
      "size": 1,
      "price": "905000000000000000000",
      "reserved": "",
      "assetIds": []
    },
    {
      "x": 97,
      "y": 132,
      "size": 1,
      "price": "905000000000000000000",
      "reserved": "",
      "assetIds": []
    },
    {
      "x": 98,
      "y": 132,
      "size": 1,
      "price": "905000000000000000000",
      "reserved": "",
      "assetIds": []
    },
    {
      "x": 96,
      "y": 132,
      "size": 1,
      "price": "905000000000000000000",
      "reserved": "",
      "assetIds": []
    },
    {
      "x": 100,
      "y": 134,
      "size": 1,
      "price": "905000000000000000000",
      "reserved": "",
      "assetIds": []
    },
    {
      "x": 101,
      "y": 134,
      "size": 1,
      "price": "905000000000000000000",
      "reserved": "",
      "assetIds": []
    },
    {
      "x": 103,
      "y": 136,
      "size": 1,
      "price": "905000000000000000000",
      "reserved": "",
      "assetIds": []
    },
    {
      "x": 104,
      "y": 136,
      "size": 1,
      "price": "905000000000000000000",
      "reserved": "",
      "assetIds": []
    },
    {
      "x": 107,
      "y": 134,
      "size": 1,
      "price": "905000000000000000000",
      "reserved": "",
      "assetIds": []
    },
    {
      "x": 106,
      "y": 134,
      "size": 1,
      "price": "905000000000000000000",
      "reserved": "",
      "assetIds": []
    },
    {
      "x": 105,
      "y": 134,
      "size": 1,
      "price": "905000000000000000000",
      "reserved": "",
      "assetIds": []
    },
    {
      "x": 104,
      "y": 134,
      "size": 1,
      "price": "905000000000000000000",
      "reserved": "",
      "assetIds": []
    },
    {
      "x": 103,
      "y": 134,
      "size": 1,
      "price": "905000000000000000000",
      "reserved": "",
      "assetIds": []
    },
    {
      "x": 102,
      "y": 134,
      "size": 1,
      "price": "905000000000000000000",
      "reserved": "",
      "assetIds": []
    },
    {
      "x": 102,
      "y": 133,
      "size": 1,
      "price": "905000000000000000000",
      "reserved": "",
      "assetIds": []
    },
    {
      "x": 95,
      "y": 136,
      "size": 1,
      "price": "905000000000000000000",
      "reserved": "",
      "assetIds": []
    },
    {
      "x": 94,
      "y": 136,
      "size": 1,
      "price": "905000000000000000000",
      "reserved": "",
      "assetIds": []
    },
    {
      "x": 93,
      "y": 136,
      "size": 1,
      "price": "905000000000000000000",
      "reserved": "",
      "assetIds": []
    },
    {
      "x": 92,
      "y": 137,
      "size": 1,
      "price": "905000000000000000000",
      "reserved": "",
      "assetIds": []
    },
    {
      "x": 93,
      "y": 137,
      "size": 1,
      "price": "905000000000000000000",
      "reserved": "",
      "assetIds": []
    },
    {
      "x": 94,
      "y": 137,
      "size": 1,
      "price": "905000000000000000000",
      "reserved": "",
      "assetIds": []
    },
    {
      "x": 95,
      "y": 137,
      "size": 1,
      "price": "905000000000000000000",
      "reserved": "",
      "assetIds": []
    },
    {
      "x": 99,
      "y": 136,
      "size": 1,
      "price": "905000000000000000000",
      "reserved": "",
      "assetIds": []
    },
    {
      "x": 100,
      "y": 136,
      "size": 1,
      "price": "905000000000000000000",
      "reserved": "",
      "assetIds": []
    },
    {
      "x": 101,
      "y": 136,
      "size": 1,
      "price": "905000000000000000000",
      "reserved": "",
      "assetIds": []
    },
    {
      "x": 102,
      "y": 136,
      "size": 1,
      "price": "905000000000000000000",
      "reserved": "",
      "assetIds": []
    },
    {
      "x": 92,
      "y": 136,
      "size": 1,
      "price": "905000000000000000000",
      "reserved": "",
      "assetIds": []
    },
    {
      "x": 102,
      "y": 138,
      "size": 1,
      "price": "905000000000000000000",
      "reserved": "",
      "assetIds": []
    },
    {
      "x": 104,
      "y": 139,
      "size": 1,
      "price": "905000000000000000000",
      "reserved": "",
      "assetIds": []
    },
    {
      "x": 105,
      "y": 139,
      "size": 1,
      "price": "905000000000000000000",
      "reserved": "",
      "assetIds": []
    },
    {
      "x": 106,
      "y": 139,
      "size": 1,
      "price": "905000000000000000000",
      "reserved": "",
      "assetIds": []
    },
    {
      "x": 107,
      "y": 139,
      "size": 1,
      "price": "905000000000000000000",
      "reserved": "",
      "assetIds": []
    },
    {
      "x": 103,
      "y": 139,
      "size": 1,
      "price": "905000000000000000000",
      "reserved": "",
      "assetIds": []
    },
    {
      "x": 102,
      "y": 139,
      "size": 1,
      "price": "905000000000000000000",
      "reserved": "",
      "assetIds": []
    },
    {
      "x": 103,
      "y": 137,
      "size": 1,
      "price": "905000000000000000000",
      "reserved": "",
      "assetIds": []
    },
    {
      "x": 103,
      "y": 138,
      "size": 1,
      "price": "905000000000000000000",
      "reserved": "",
      "assetIds": []
    },
    {
      "x": 104,
      "y": 138,
      "size": 1,
      "price": "905000000000000000000",
      "reserved": "",
      "assetIds": []
    },
    {
      "x": 105,
      "y": 138,
      "size": 1,
      "price": "905000000000000000000",
      "reserved": "",
      "assetIds": []
    },
    {
      "x": 106,
      "y": 138,
      "size": 1,
      "price": "905000000000000000000",
      "reserved": "",
      "assetIds": []
    },
    {
      "x": 104,
      "y": 137,
      "size": 1,
      "price": "905000000000000000000",
      "reserved": "",
      "assetIds": []
    },
    {
      "x": 99,
      "y": 137,
      "size": 1,
      "price": "905000000000000000000",
      "reserved": "",
      "assetIds": []
    },
    {
      "x": 100,
      "y": 137,
      "size": 1,
      "price": "905000000000000000000",
      "reserved": "",
      "assetIds": []
    },
    {
      "x": 101,
      "y": 137,
      "size": 1,
      "price": "905000000000000000000",
      "reserved": "",
      "assetIds": []
    },
    {
      "x": 102,
      "y": 137,
      "size": 1,
      "price": "905000000000000000000",
      "reserved": "",
      "assetIds": []
    },
    {
      "x": 107,
      "y": 138,
      "size": 1,
      "price": "905000000000000000000",
      "reserved": "",
      "assetIds": []
    },
    {
      "x": 106,
      "y": 140,
      "size": 1,
      "price": "905000000000000000000",
      "reserved": "",
      "assetIds": []
    },
    {
      "x": 105,
      "y": 140,
      "size": 1,
      "price": "905000000000000000000",
      "reserved": "",
      "assetIds": []
    },
    {
      "x": 104,
      "y": 140,
      "size": 1,
      "price": "905000000000000000000",
      "reserved": "",
      "assetIds": []
    },
    {
      "x": 103,
      "y": 140,
      "size": 1,
      "price": "905000000000000000000",
      "reserved": "",
      "assetIds": []
    },
    {
      "x": 102,
      "y": 140,
      "size": 1,
      "price": "905000000000000000000",
      "reserved": "",
      "assetIds": []
    },
    {
      "x": 102,
      "y": 141,
      "size": 1,
      "price": "905000000000000000000",
      "reserved": "",
      "assetIds": []
    },
    {
      "x": 103,
      "y": 141,
      "size": 1,
      "price": "905000000000000000000",
      "reserved": "",
      "assetIds": []
    },
    {
      "x": 104,
      "y": 141,
      "size": 1,
      "price": "905000000000000000000",
      "reserved": "",
      "assetIds": []
    },
    {
      "x": 105,
      "y": 141,
      "size": 1,
      "price": "905000000000000000000",
      "reserved": "",
      "assetIds": []
    },
    {
      "x": 106,
      "y": 141,
      "size": 1,
      "price": "905000000000000000000",
      "reserved": "",
      "assetIds": []
    },
    {
      "x": 107,
      "y": 141,
      "size": 1,
      "price": "905000000000000000000",
      "reserved": "",
      "assetIds": []
    },
    {
      "x": 107,
      "y": 140,
      "size": 1,
      "price": "905000000000000000000",
      "reserved": "",
      "assetIds": []
    },
    {
      "x": 120,
      "y": 143,
      "size": 1,
      "price": "905000000000000000000",
      "reserved": "",
      "assetIds": []
    },
    {
      "x": 121,
      "y": 143,
      "size": 1,
      "price": "905000000000000000000",
      "reserved": "",
      "assetIds": []
    },
    {
      "x": 121,
      "y": 142,
      "size": 1,
      "price": "905000000000000000000",
      "reserved": "",
      "assetIds": []
    },
    {
      "x": 122,
      "y": 142,
      "size": 1,
      "price": "905000000000000000000",
      "reserved": "",
      "assetIds": []
    },
    {
      "x": 123,
      "y": 142,
      "size": 1,
      "price": "905000000000000000000",
      "reserved": "",
      "assetIds": []
    },
    {
      "x": 123,
      "y": 143,
      "size": 1,
      "price": "905000000000000000000",
      "reserved": "",
      "assetIds": []
    },
    {
      "x": 124,
      "y": 143,
      "size": 1,
      "price": "905000000000000000000",
      "reserved": "",
      "assetIds": []
    },
    {
      "x": 125,
      "y": 143,
      "size": 1,
      "price": "905000000000000000000",
      "reserved": "",
      "assetIds": []
    },
    {
      "x": 125,
      "y": 142,
      "size": 1,
      "price": "905000000000000000000",
      "reserved": "",
      "assetIds": []
    },
    {
      "x": 125,
      "y": 141,
      "size": 1,
      "price": "905000000000000000000",
      "reserved": "",
      "assetIds": []
    },
    {
      "x": 125,
      "y": 140,
      "size": 1,
      "price": "905000000000000000000",
      "reserved": "",
      "assetIds": []
    },
    {
      "x": 125,
      "y": 139,
      "size": 1,
      "price": "905000000000000000000",
      "reserved": "",
      "assetIds": []
    },
    {
      "x": 125,
      "y": 138,
      "size": 1,
      "price": "905000000000000000000",
      "reserved": "",
      "assetIds": []
    },
    {
      "x": 124,
      "y": 138,
      "size": 1,
      "price": "905000000000000000000",
      "reserved": "",
      "assetIds": []
    },
    {
      "x": 123,
      "y": 138,
      "size": 1,
      "price": "905000000000000000000",
      "reserved": "",
      "assetIds": []
    },
    {
      "x": 122,
      "y": 138,
      "size": 1,
      "price": "905000000000000000000",
      "reserved": "",
      "assetIds": []
    },
    {
      "x": 121,
      "y": 138,
      "size": 1,
      "price": "905000000000000000000",
      "reserved": "",
      "assetIds": []
    },
    {
      "x": 120,
      "y": 138,
      "size": 1,
      "price": "905000000000000000000",
      "reserved": "",
      "assetIds": []
    },
    {
      "x": 120,
      "y": 139,
      "size": 1,
      "price": "905000000000000000000",
      "reserved": "",
      "assetIds": []
    },
    {
      "x": 120,
      "y": 140,
      "size": 1,
      "price": "905000000000000000000",
      "reserved": "",
      "assetIds": []
    },
    {
      "x": 121,
      "y": 140,
      "size": 1,
      "price": "905000000000000000000",
      "reserved": "",
      "assetIds": []
    },
    {
      "x": 121,
      "y": 141,
      "size": 1,
      "price": "905000000000000000000",
      "reserved": "",
      "assetIds": []
    },
    {
      "x": 120,
      "y": 141,
      "size": 1,
      "price": "905000000000000000000",
      "reserved": "",
      "assetIds": []
    },
    {
      "x": 120,
      "y": 142,
      "size": 1,
      "price": "905000000000000000000",
      "reserved": "",
      "assetIds": []
    },
    {
      "x": 121,
      "y": 139,
      "size": 1,
      "price": "905000000000000000000",
      "reserved": "",
      "assetIds": []
    },
    {
      "x": 122,
      "y": 139,
      "size": 1,
      "price": "905000000000000000000",
      "reserved": "",
      "assetIds": []
    },
    {
      "x": 123,
      "y": 139,
      "size": 1,
      "price": "905000000000000000000",
      "reserved": "",
      "assetIds": []
    },
    {
      "x": 124,
      "y": 139,
      "size": 1,
      "price": "905000000000000000000",
      "reserved": "",
      "assetIds": []
    },
    {
      "x": 123,
      "y": 140,
      "size": 1,
      "price": "905000000000000000000",
      "reserved": "",
      "assetIds": []
    },
    {
      "x": 123,
      "y": 141,
      "size": 1,
      "price": "905000000000000000000",
      "reserved": "",
      "assetIds": []
    },
    {
      "x": 124,
      "y": 141,
      "size": 1,
      "price": "905000000000000000000",
      "reserved": "",
      "assetIds": []
    },
    {
      "x": 124,
      "y": 140,
      "size": 1,
      "price": "905000000000000000000",
      "reserved": "",
      "assetIds": []
    },
    {
      "x": 124,
      "y": 142,
      "size": 1,
      "price": "905000000000000000000",
      "reserved": "",
      "assetIds": []
    },
    {
      "x": 122,
      "y": 141,
      "size": 1,
      "price": "905000000000000000000",
      "reserved": "",
      "assetIds": []
    },
    {
      "x": 122,
      "y": 140,
      "size": 1,
      "price": "905000000000000000000",
      "reserved": "",
      "assetIds": []
    },
    {
      "x": 122,
      "y": 143,
      "size": 1,
      "price": "905000000000000000000",
      "reserved": "",
      "assetIds": []
    },
    {
      "x": 102,
      "y": 147,
      "size": 1,
      "price": "905000000000000000000",
      "reserved": "",
      "assetIds": []
    },
    {
      "x": 102,
      "y": 146,
      "size": 1,
      "price": "905000000000000000000",
      "reserved": "",
      "assetIds": []
    },
    {
      "x": 103,
      "y": 145,
      "size": 1,
      "price": "905000000000000000000",
      "reserved": "",
      "assetIds": []
    },
    {
      "x": 103,
      "y": 144,
      "size": 1,
      "price": "905000000000000000000",
      "reserved": "",
      "assetIds": []
    },
    {
      "x": 104,
      "y": 143,
      "size": 1,
      "price": "905000000000000000000",
      "reserved": "",
      "assetIds": []
    },
    {
      "x": 104,
      "y": 142,
      "size": 1,
      "price": "905000000000000000000",
      "reserved": "",
      "assetIds": []
    },
    {
      "x": 104,
      "y": 144,
      "size": 1,
      "price": "905000000000000000000",
      "reserved": "",
      "assetIds": []
    },
    {
      "x": 104,
      "y": 145,
      "size": 1,
      "price": "905000000000000000000",
      "reserved": "",
      "assetIds": []
    },
    {
      "x": 104,
      "y": 147,
      "size": 1,
      "price": "905000000000000000000",
      "reserved": "",
      "assetIds": []
    },
    {
      "x": 103,
      "y": 148,
      "size": 1,
      "price": "905000000000000000000",
      "reserved": "",
      "assetIds": []
    },
    {
      "x": 103,
      "y": 149,
      "size": 1,
      "price": "905000000000000000000",
      "reserved": "",
      "assetIds": []
    },
    {
      "x": 103,
      "y": 147,
      "size": 1,
      "price": "905000000000000000000",
      "reserved": "",
      "assetIds": []
    },
    {
      "x": 103,
      "y": 146,
      "size": 1,
      "price": "905000000000000000000",
      "reserved": "",
      "assetIds": []
    },
    {
      "x": 103,
      "y": 143,
      "size": 1,
      "price": "905000000000000000000",
      "reserved": "",
      "assetIds": []
    },
    {
      "x": 103,
      "y": 142,
      "size": 1,
      "price": "905000000000000000000",
      "reserved": "",
      "assetIds": []
    },
    {
      "x": 102,
      "y": 144,
      "size": 1,
      "price": "905000000000000000000",
      "reserved": "",
      "assetIds": []
    },
    {
      "x": 102,
      "y": 145,
      "size": 1,
      "price": "905000000000000000000",
      "reserved": "",
      "assetIds": []
    },
    {
      "x": 102,
      "y": 143,
      "size": 1,
      "price": "905000000000000000000",
      "reserved": "",
      "assetIds": []
    },
    {
      "x": 102,
      "y": 142,
      "size": 1,
      "price": "905000000000000000000",
      "reserved": "",
      "assetIds": []
    },
    {
      "x": 105,
      "y": 149,
      "size": 1,
      "price": "905000000000000000000",
      "reserved": "",
      "assetIds": []
    },
    {
      "x": 105,
      "y": 148,
      "size": 1,
      "price": "905000000000000000000",
      "reserved": "",
      "assetIds": []
    },
    {
      "x": 106,
      "y": 148,
      "size": 1,
      "price": "905000000000000000000",
      "reserved": "",
      "assetIds": []
    },
    {
      "x": 106,
      "y": 147,
      "size": 1,
      "price": "905000000000000000000",
      "reserved": "",
      "assetIds": []
    },
    {
      "x": 107,
      "y": 147,
      "size": 1,
      "price": "905000000000000000000",
      "reserved": "",
      "assetIds": []
    },
    {
      "x": 107,
      "y": 148,
      "size": 1,
      "price": "905000000000000000000",
      "reserved": "",
      "assetIds": []
    },
    {
      "x": 107,
      "y": 149,
      "size": 1,
      "price": "905000000000000000000",
      "reserved": "",
      "assetIds": []
    },
    {
      "x": 104,
      "y": 149,
      "size": 1,
      "price": "905000000000000000000",
      "reserved": "",
      "assetIds": []
    },
    {
      "x": 104,
      "y": 148,
      "size": 1,
      "price": "905000000000000000000",
      "reserved": "",
      "assetIds": []
    },
    {
      "x": 105,
      "y": 147,
      "size": 1,
      "price": "905000000000000000000",
      "reserved": "",
      "assetIds": []
    },
    {
      "x": 104,
      "y": 146,
      "size": 1,
      "price": "905000000000000000000",
      "reserved": "",
      "assetIds": []
    },
    {
      "x": 102,
      "y": 149,
      "size": 1,
      "price": "905000000000000000000",
      "reserved": "",
      "assetIds": []
    },
    {
      "x": 102,
      "y": 148,
      "size": 1,
      "price": "905000000000000000000",
      "reserved": "",
      "assetIds": []
    },
    {
      "x": 101,
      "y": 147,
      "size": 1,
      "price": "905000000000000000000",
      "reserved": "",
      "assetIds": []
    },
    {
      "x": 101,
      "y": 148,
      "size": 1,
      "price": "905000000000000000000",
      "reserved": "",
      "assetIds": []
    },
    {
      "x": 100,
      "y": 148,
      "size": 1,
      "price": "905000000000000000000",
      "reserved": "",
      "assetIds": []
    },
    {
      "x": 100,
      "y": 149,
      "size": 1,
      "price": "905000000000000000000",
      "reserved": "",
      "assetIds": []
    },
    {
      "x": 99,
      "y": 148,
      "size": 1,
      "price": "905000000000000000000",
      "reserved": "",
      "assetIds": []
    },
    {
      "x": 99,
      "y": 147,
      "size": 1,
      "price": "905000000000000000000",
      "reserved": "",
      "assetIds": []
    },
    {
      "x": 99,
      "y": 149,
      "size": 1,
      "price": "905000000000000000000",
      "reserved": "",
      "assetIds": []
    },
    {
      "x": 100,
      "y": 147,
      "size": 1,
      "price": "905000000000000000000",
      "reserved": "",
      "assetIds": []
    },
    {
      "x": 105,
      "y": 142,
      "size": 1,
      "price": "905000000000000000000",
      "reserved": "",
      "assetIds": []
    },
    {
      "x": 106,
      "y": 142,
      "size": 1,
      "price": "905000000000000000000",
      "reserved": "",
      "assetIds": []
    },
    {
      "x": 106,
      "y": 143,
      "size": 1,
      "price": "905000000000000000000",
      "reserved": "",
      "assetIds": []
    },
    {
      "x": 107,
      "y": 143,
      "size": 1,
      "price": "905000000000000000000",
      "reserved": "",
      "assetIds": []
    },
    {
      "x": 108,
      "y": 145,
      "size": 1,
      "price": "905000000000000000000",
      "reserved": "",
      "assetIds": []
    },
    {
      "x": 108,
      "y": 146,
      "size": 1,
      "price": "905000000000000000000",
      "reserved": "",
      "assetIds": []
    },
    {
      "x": 107,
      "y": 142,
      "size": 1,
      "price": "905000000000000000000",
      "reserved": "",
      "assetIds": []
    },
    {
      "x": 94,
      "y": 140,
      "size": 1,
      "price": "905000000000000000000",
      "reserved": "",
      "assetIds": []
    },
    {
      "x": 94,
      "y": 139,
      "size": 1,
      "price": "905000000000000000000",
      "reserved": "",
      "assetIds": []
    },
    {
      "x": 95,
      "y": 138,
      "size": 1,
      "price": "905000000000000000000",
      "reserved": "",
      "assetIds": []
    },
    {
      "x": 95,
      "y": 139,
      "size": 1,
      "price": "905000000000000000000",
      "reserved": "",
      "assetIds": []
    },
    {
      "x": 95,
      "y": 140,
      "size": 1,
      "price": "905000000000000000000",
      "reserved": "",
      "assetIds": []
    },
    {
      "x": 95,
      "y": 141,
      "size": 1,
      "price": "905000000000000000000",
      "reserved": "",
      "assetIds": []
    },
    {
      "x": 95,
      "y": 142,
      "size": 1,
      "price": "905000000000000000000",
      "reserved": "",
      "assetIds": []
    },
    {
      "x": 95,
      "y": 143,
      "size": 1,
      "price": "905000000000000000000",
      "reserved": "",
      "assetIds": []
    },
    {
      "x": 94,
      "y": 142,
      "size": 1,
      "price": "905000000000000000000",
      "reserved": "",
      "assetIds": []
    },
    {
      "x": 94,
      "y": 143,
      "size": 1,
      "price": "905000000000000000000",
      "reserved": "",
      "assetIds": []
    },
    {
      "x": 93,
      "y": 143,
      "size": 1,
      "price": "905000000000000000000",
      "reserved": "",
      "assetIds": []
    },
    {
      "x": 93,
      "y": 142,
      "size": 1,
      "price": "905000000000000000000",
      "reserved": "",
      "assetIds": []
    },
    {
      "x": 93,
      "y": 141,
      "size": 1,
      "price": "905000000000000000000",
      "reserved": "",
      "assetIds": []
    },
    {
      "x": 93,
      "y": 140,
      "size": 1,
      "price": "905000000000000000000",
      "reserved": "",
      "assetIds": []
    },
    {
      "x": 93,
      "y": 139,
      "size": 1,
      "price": "905000000000000000000",
      "reserved": "",
      "assetIds": []
    },
    {
      "x": 94,
      "y": 138,
      "size": 1,
      "price": "905000000000000000000",
      "reserved": "",
      "assetIds": []
    },
    {
      "x": 94,
      "y": 141,
      "size": 1,
      "price": "905000000000000000000",
      "reserved": "",
      "assetIds": []
    },
    {
      "x": 92,
      "y": 141,
      "size": 1,
      "price": "905000000000000000000",
      "reserved": "",
      "assetIds": []
    },
    {
      "x": 92,
      "y": 142,
      "size": 1,
      "price": "905000000000000000000",
      "reserved": "",
      "assetIds": []
    },
    {
      "x": 92,
      "y": 143,
      "size": 1,
      "price": "905000000000000000000",
      "reserved": "",
      "assetIds": []
    },
    {
      "x": 91,
      "y": 143,
      "size": 1,
      "price": "905000000000000000000",
      "reserved": "",
      "assetIds": []
    },
    {
      "x": 91,
      "y": 142,
      "size": 1,
      "price": "905000000000000000000",
      "reserved": "",
      "assetIds": []
    },
    {
      "x": 91,
      "y": 141,
      "size": 1,
      "price": "905000000000000000000",
      "reserved": "",
      "assetIds": []
    },
    {
      "x": 91,
      "y": 140,
      "size": 1,
      "price": "905000000000000000000",
      "reserved": "",
      "assetIds": []
    },
    {
      "x": 91,
      "y": 139,
      "size": 1,
      "price": "905000000000000000000",
      "reserved": "",
      "assetIds": []
    },
    {
      "x": 91,
      "y": 138,
      "size": 1,
      "price": "905000000000000000000",
      "reserved": "",
      "assetIds": []
    },
    {
      "x": 92,
      "y": 138,
      "size": 1,
      "price": "905000000000000000000",
      "reserved": "",
      "assetIds": []
    },
    {
      "x": 92,
      "y": 139,
      "size": 1,
      "price": "905000000000000000000",
      "reserved": "",
      "assetIds": []
    },
    {
      "x": 92,
      "y": 140,
      "size": 1,
      "price": "905000000000000000000",
      "reserved": "",
      "assetIds": []
    },
    {
      "x": 93,
      "y": 138,
      "size": 1,
      "price": "905000000000000000000",
      "reserved": "",
      "assetIds": []
    },
    {
      "x": 90,
      "y": 138,
      "size": 1,
      "price": "905000000000000000000",
      "reserved": "",
      "assetIds": []
    },
    {
      "x": 89,
      "y": 139,
      "size": 1,
      "price": "905000000000000000000",
      "reserved": "",
      "assetIds": []
    },
    {
      "x": 90,
      "y": 139,
      "size": 1,
      "price": "905000000000000000000",
      "reserved": "",
      "assetIds": []
    },
    {
      "x": 90,
      "y": 140,
      "size": 1,
      "price": "905000000000000000000",
      "reserved": "",
      "assetIds": []
    },
    {
      "x": 89,
      "y": 141,
      "size": 1,
      "price": "905000000000000000000",
      "reserved": "",
      "assetIds": []
    },
    {
      "x": 90,
      "y": 142,
      "size": 1,
      "price": "905000000000000000000",
      "reserved": "",
      "assetIds": []
    },
    {
      "x": 90,
      "y": 141,
      "size": 1,
      "price": "905000000000000000000",
      "reserved": "",
      "assetIds": []
    },
    {
      "x": 90,
      "y": 143,
      "size": 1,
      "price": "905000000000000000000",
      "reserved": "",
      "assetIds": []
    },
    {
      "x": 98,
      "y": 145,
      "size": 1,
      "price": "905000000000000000000",
      "reserved": "",
      "assetIds": []
    },
    {
      "x": 97,
      "y": 145,
      "size": 1,
      "price": "905000000000000000000",
      "reserved": "",
      "assetIds": []
    },
    {
      "x": 96,
      "y": 145,
      "size": 1,
      "price": "905000000000000000000",
      "reserved": "",
      "assetIds": []
    },
    {
      "x": 98,
      "y": 146,
      "size": 1,
      "price": "905000000000000000000",
      "reserved": "",
      "assetIds": []
    },
    {
      "x": 97,
      "y": 146,
      "size": 1,
      "price": "905000000000000000000",
      "reserved": "",
      "assetIds": []
    },
    {
      "x": 96,
      "y": 146,
      "size": 1,
      "price": "905000000000000000000",
      "reserved": "",
      "assetIds": []
    },
    {
      "x": 96,
      "y": 144,
      "size": 1,
      "price": "905000000000000000000",
      "reserved": "",
      "assetIds": []
    },
    {
      "x": 97,
      "y": 144,
      "size": 1,
      "price": "905000000000000000000",
      "reserved": "",
      "assetIds": []
    },
    {
      "x": 105,
      "y": 143,
      "size": 1,
      "price": "905000000000000000000",
      "reserved": "",
      "assetIds": []
    },
    {
      "x": 108,
      "y": 144,
      "size": 1,
      "price": "905000000000000000000",
      "reserved": "",
      "assetIds": []
    },
    {
      "x": 109,
      "y": 144,
      "size": 1,
      "price": "905000000000000000000",
      "reserved": "",
      "assetIds": []
    },
    {
      "x": 113,
      "y": 144,
      "size": 1,
      "price": "905000000000000000000",
      "reserved": "",
      "assetIds": []
    },
    {
      "x": 114,
      "y": 144,
      "size": 1,
      "price": "905000000000000000000",
      "reserved": "",
      "assetIds": []
    },
    {
      "x": 115,
      "y": 144,
      "size": 1,
      "price": "905000000000000000000",
      "reserved": "",
      "assetIds": []
    },
    {
      "x": 116,
      "y": 144,
      "size": 1,
      "price": "905000000000000000000",
      "reserved": "",
      "assetIds": []
    },
    {
      "x": 112,
      "y": 144,
      "size": 1,
      "price": "905000000000000000000",
      "reserved": "",
      "assetIds": []
    },
    {
      "x": 111,
      "y": 144,
      "size": 1,
      "price": "905000000000000000000",
      "reserved": "",
      "assetIds": []
    },
    {
      "x": 110,
      "y": 144,
      "size": 1,
      "price": "905000000000000000000",
      "reserved": "",
      "assetIds": []
    },
    {
      "x": 111,
      "y": 145,
      "size": 1,
      "price": "905000000000000000000",
      "reserved": "",
      "assetIds": []
    },
    {
      "x": 110,
      "y": 145,
      "size": 1,
      "price": "905000000000000000000",
      "reserved": "",
      "assetIds": []
    },
    {
      "x": 109,
      "y": 145,
      "size": 1,
      "price": "905000000000000000000",
      "reserved": "",
      "assetIds": []
    },
    {
      "x": 109,
      "y": 146,
      "size": 1,
      "price": "905000000000000000000",
      "reserved": "",
      "assetIds": []
    },
    {
      "x": 111,
      "y": 146,
      "size": 1,
      "price": "905000000000000000000",
      "reserved": "",
      "assetIds": []
    },
    {
      "x": 112,
      "y": 146,
      "size": 1,
      "price": "905000000000000000000",
      "reserved": "",
      "assetIds": []
    },
    {
      "x": 113,
      "y": 146,
      "size": 1,
      "price": "905000000000000000000",
      "reserved": "",
      "assetIds": []
    },
    {
      "x": 114,
      "y": 146,
      "size": 1,
      "price": "905000000000000000000",
      "reserved": "",
      "assetIds": []
    },
    {
      "x": 114,
      "y": 145,
      "size": 1,
      "price": "905000000000000000000",
      "reserved": "",
      "assetIds": []
    },
    {
      "x": 115,
      "y": 145,
      "size": 1,
      "price": "905000000000000000000",
      "reserved": "",
      "assetIds": []
    },
    {
      "x": 113,
      "y": 145,
      "size": 1,
      "price": "905000000000000000000",
      "reserved": "",
      "assetIds": []
    },
    {
      "x": 112,
      "y": 145,
      "size": 1,
      "price": "905000000000000000000",
      "reserved": "",
      "assetIds": []
    },
    {
      "x": 116,
      "y": 145,
      "size": 1,
      "price": "905000000000000000000",
      "reserved": "",
      "assetIds": []
    },
    {
      "x": 116,
      "y": 147,
      "size": 1,
      "price": "905000000000000000000",
      "reserved": "",
      "assetIds": []
    },
    {
      "x": 115,
      "y": 147,
      "size": 1,
      "price": "905000000000000000000",
      "reserved": "",
      "assetIds": []
    },
    {
      "x": 115,
      "y": 148,
      "size": 1,
      "price": "905000000000000000000",
      "reserved": "",
      "assetIds": []
    },
    {
      "x": 116,
      "y": 148,
      "size": 1,
      "price": "905000000000000000000",
      "reserved": "",
      "assetIds": []
    },
    {
      "x": 116,
      "y": 146,
      "size": 1,
      "price": "905000000000000000000",
      "reserved": "",
      "assetIds": []
    },
    {
      "x": 115,
      "y": 149,
      "size": 1,
      "price": "905000000000000000000",
      "reserved": "",
      "assetIds": []
    },
    {
      "x": 115,
      "y": 146,
      "size": 1,
      "price": "905000000000000000000",
      "reserved": "",
      "assetIds": []
    },
    {
      "x": 116,
      "y": 149,
      "size": 1,
      "price": "905000000000000000000",
      "reserved": "",
      "assetIds": []
    },
    {
      "x": 114,
      "y": 149,
      "size": 1,
      "price": "905000000000000000000",
      "reserved": "",
      "assetIds": []
    },
    {
      "x": 113,
      "y": 149,
      "size": 1,
      "price": "905000000000000000000",
      "reserved": "",
      "assetIds": []
    },
    {
      "x": 112,
      "y": 149,
      "size": 1,
      "price": "905000000000000000000",
      "reserved": "",
      "assetIds": []
    },
    {
      "x": 112,
      "y": 148,
      "size": 1,
      "price": "905000000000000000000",
      "reserved": "",
      "assetIds": []
    },
    {
      "x": 112,
      "y": 147,
      "size": 1,
      "price": "905000000000000000000",
      "reserved": "",
      "assetIds": []
    },
    {
      "x": 114,
      "y": 147,
      "size": 1,
      "price": "905000000000000000000",
      "reserved": "",
      "assetIds": []
    },
    {
      "x": 114,
      "y": 148,
      "size": 1,
      "price": "905000000000000000000",
      "reserved": "",
      "assetIds": []
    },
    {
      "x": 113,
      "y": 148,
      "size": 1,
      "price": "905000000000000000000",
      "reserved": "",
      "assetIds": []
    },
    {
      "x": 113,
      "y": 147,
      "size": 1,
      "price": "905000000000000000000",
      "reserved": "",
      "assetIds": []
    },
    {
      "x": 111,
      "y": 147,
      "size": 1,
      "price": "905000000000000000000",
      "reserved": "",
      "assetIds": []
    },
    {
      "x": 111,
      "y": 148,
      "size": 1,
      "price": "905000000000000000000",
      "reserved": "",
      "assetIds": []
    },
    {
      "x": 111,
      "y": 149,
      "size": 1,
      "price": "905000000000000000000",
      "reserved": "",
      "assetIds": []
    },
    {
      "x": 114,
      "y": 150,
      "size": 1,
      "price": "905000000000000000000",
      "reserved": "",
      "assetIds": []
    },
    {
      "x": 115,
      "y": 150,
      "size": 1,
      "price": "905000000000000000000",
      "reserved": "",
      "assetIds": []
    },
    {
      "x": 117,
      "y": 150,
      "size": 1,
      "price": "905000000000000000000",
      "reserved": "",
      "assetIds": []
    },
    {
      "x": 118,
      "y": 150,
      "size": 1,
      "price": "905000000000000000000",
      "reserved": "",
      "assetIds": []
    },
    {
      "x": 119,
      "y": 150,
      "size": 1,
      "price": "905000000000000000000",
      "reserved": "",
      "assetIds": []
    },
    {
      "x": 119,
      "y": 151,
      "size": 1,
      "price": "905000000000000000000",
      "reserved": "",
      "assetIds": []
    },
    {
      "x": 118,
      "y": 151,
      "size": 1,
      "price": "905000000000000000000",
      "reserved": "",
      "assetIds": []
    },
    {
      "x": 118,
      "y": 152,
      "size": 1,
      "price": "905000000000000000000",
      "reserved": "",
      "assetIds": []
    },
    {
      "x": 119,
      "y": 152,
      "size": 1,
      "price": "905000000000000000000",
      "reserved": "",
      "assetIds": []
    },
    {
      "x": 117,
      "y": 152,
      "size": 1,
      "price": "905000000000000000000",
      "reserved": "",
      "assetIds": []
    },
    {
      "x": 117,
      "y": 151,
      "size": 1,
      "price": "905000000000000000000",
      "reserved": "",
      "assetIds": []
    },
    {
      "x": 116,
      "y": 151,
      "size": 1,
      "price": "905000000000000000000",
      "reserved": "",
      "assetIds": []
    },
    {
      "x": 116,
      "y": 150,
      "size": 1,
      "price": "905000000000000000000",
      "reserved": "",
      "assetIds": []
    },
    {
      "x": 115,
      "y": 151,
      "size": 1,
      "price": "905000000000000000000",
      "reserved": "",
      "assetIds": []
    },
    {
      "x": 115,
      "y": 152,
      "size": 1,
      "price": "905000000000000000000",
      "reserved": "",
      "assetIds": []
    },
    {
      "x": 114,
      "y": 152,
      "size": 1,
      "price": "905000000000000000000",
      "reserved": "",
      "assetIds": []
    },
    {
      "x": 114,
      "y": 153,
      "size": 1,
      "price": "905000000000000000000",
      "reserved": "",
      "assetIds": []
    },
    {
      "x": 114,
      "y": 151,
      "size": 1,
      "price": "905000000000000000000",
      "reserved": "",
      "assetIds": []
    },
    {
      "x": 115,
      "y": 153,
      "size": 1,
      "price": "905000000000000000000",
      "reserved": "",
      "assetIds": []
    },
    {
      "x": 115,
      "y": 154,
      "size": 1,
      "price": "905000000000000000000",
      "reserved": "",
      "assetIds": []
    },
    {
      "x": 116,
      "y": 154,
      "size": 1,
      "price": "905000000000000000000",
      "reserved": "",
      "assetIds": []
    },
    {
      "x": 116,
      "y": 153,
      "size": 1,
      "price": "905000000000000000000",
      "reserved": "",
      "assetIds": []
    },
    {
      "x": 116,
      "y": 152,
      "size": 1,
      "price": "905000000000000000000",
      "reserved": "",
      "assetIds": []
    },
    {
      "x": 116,
      "y": 155,
      "size": 1,
      "price": "905000000000000000000",
      "reserved": "",
      "assetIds": []
    },
    {
      "x": 115,
      "y": 155,
      "size": 1,
      "price": "905000000000000000000",
      "reserved": "",
      "assetIds": []
    },
    {
      "x": 114,
      "y": 155,
      "size": 1,
      "price": "905000000000000000000",
      "reserved": "",
      "assetIds": []
    },
    {
      "x": 114,
      "y": 154,
      "size": 1,
      "price": "905000000000000000000",
      "reserved": "",
      "assetIds": []
    },
    {
      "x": 88,
      "y": 155,
      "size": 1,
      "price": "905000000000000000000",
      "reserved": "",
      "assetIds": []
    },
    {
      "x": 88,
      "y": 154,
      "size": 1,
      "price": "905000000000000000000",
      "reserved": "",
      "assetIds": []
    },
    {
      "x": 88,
      "y": 153,
      "size": 1,
      "price": "905000000000000000000",
      "reserved": "",
      "assetIds": []
    },
    {
      "x": 88,
      "y": 152,
      "size": 1,
      "price": "905000000000000000000",
      "reserved": "",
      "assetIds": []
    },
    {
      "x": 88,
      "y": 151,
      "size": 1,
      "price": "905000000000000000000",
      "reserved": "",
      "assetIds": []
    },
    {
      "x": 88,
      "y": 157,
      "size": 1,
      "price": "905000000000000000000",
      "reserved": "",
      "assetIds": []
    },
    {
      "x": 88,
      "y": 158,
      "size": 1,
      "price": "905000000000000000000",
      "reserved": "",
      "assetIds": []
    },
    {
      "x": 88,
      "y": 159,
      "size": 1,
      "price": "905000000000000000000",
      "reserved": "",
      "assetIds": []
    },
    {
      "x": 88,
      "y": 156,
      "size": 1,
      "price": "905000000000000000000",
      "reserved": "",
      "assetIds": []
    },
    {
      "x": 89,
      "y": 153,
      "size": 1,
      "price": "905000000000000000000",
      "reserved": "",
      "assetIds": []
    },
    {
      "x": 89,
      "y": 152,
      "size": 1,
      "price": "905000000000000000000",
      "reserved": "",
      "assetIds": []
    },
    {
      "x": 89,
      "y": 151,
      "size": 1,
      "price": "905000000000000000000",
      "reserved": "",
      "assetIds": []
    },
    {
      "x": 89,
      "y": 150,
      "size": 1,
      "price": "905000000000000000000",
      "reserved": "",
      "assetIds": []
    },
    {
      "x": 89,
      "y": 157,
      "size": 1,
      "price": "905000000000000000000",
      "reserved": "",
      "assetIds": []
    },
    {
      "x": 89,
      "y": 158,
      "size": 1,
      "price": "905000000000000000000",
      "reserved": "",
      "assetIds": []
    },
    {
      "x": 89,
      "y": 159,
      "size": 1,
      "price": "905000000000000000000",
      "reserved": "",
      "assetIds": []
    },
    {
      "x": 89,
      "y": 155,
      "size": 1,
      "price": "905000000000000000000",
      "reserved": "",
      "assetIds": []
    },
    {
      "x": 89,
      "y": 154,
      "size": 1,
      "price": "905000000000000000000",
      "reserved": "",
      "assetIds": []
    },
    {
      "x": 89,
      "y": 156,
      "size": 1,
      "price": "905000000000000000000",
      "reserved": "",
      "assetIds": []
    },
    {
      "x": 89,
      "y": 149,
      "size": 1,
      "price": "905000000000000000000",
      "reserved": "",
      "assetIds": []
    },
    {
      "x": 88,
      "y": 148,
      "size": 1,
      "price": "905000000000000000000",
      "reserved": "",
      "assetIds": []
    },
    {
      "x": 89,
      "y": 148,
      "size": 1,
      "price": "905000000000000000000",
      "reserved": "",
      "assetIds": []
    },
    {
      "x": 87,
      "y": 159,
      "size": 1,
      "price": "905000000000000000000",
      "reserved": "",
      "assetIds": []
    },
    {
      "x": 87,
      "y": 157,
      "size": 1,
      "price": "905000000000000000000",
      "reserved": "",
      "assetIds": []
    },
    {
      "x": 87,
      "y": 156,
      "size": 1,
      "price": "905000000000000000000",
      "reserved": "",
      "assetIds": []
    },
    {
      "x": 86,
      "y": 155,
      "size": 1,
      "price": "905000000000000000000",
      "reserved": "",
      "assetIds": []
    },
    {
      "x": 86,
      "y": 153,
      "size": 1,
      "price": "905000000000000000000",
      "reserved": "",
      "assetIds": []
    },
    {
      "x": 86,
      "y": 152,
      "size": 1,
      "price": "905000000000000000000",
      "reserved": "",
      "assetIds": []
    },
    {
      "x": 86,
      "y": 151,
      "size": 1,
      "price": "905000000000000000000",
      "reserved": "",
      "assetIds": []
    },
    {
      "x": 86,
      "y": 154,
      "size": 1,
      "price": "905000000000000000000",
      "reserved": "",
      "assetIds": []
    },
    {
      "x": 86,
      "y": 156,
      "size": 1,
      "price": "905000000000000000000",
      "reserved": "",
      "assetIds": []
    },
    {
      "x": 86,
      "y": 157,
      "size": 1,
      "price": "905000000000000000000",
      "reserved": "",
      "assetIds": []
    },
    {
      "x": 86,
      "y": 158,
      "size": 1,
      "price": "905000000000000000000",
      "reserved": "",
      "assetIds": []
    },
    {
      "x": 87,
      "y": 153,
      "size": 1,
      "price": "905000000000000000000",
      "reserved": "",
      "assetIds": []
    },
    {
      "x": 87,
      "y": 154,
      "size": 1,
      "price": "905000000000000000000",
      "reserved": "",
      "assetIds": []
    },
    {
      "x": 87,
      "y": 155,
      "size": 1,
      "price": "905000000000000000000",
      "reserved": "",
      "assetIds": []
    },
    {
      "x": 87,
      "y": 158,
      "size": 1,
      "price": "905000000000000000000",
      "reserved": "",
      "assetIds": []
    },
    {
      "x": 87,
      "y": 152,
      "size": 1,
      "price": "905000000000000000000",
      "reserved": "",
      "assetIds": []
    },
    {
      "x": 85,
      "y": 151,
      "size": 1,
      "price": "905000000000000000000",
      "reserved": "",
      "assetIds": []
    },
    {
      "x": 84,
      "y": 151,
      "size": 1,
      "price": "905000000000000000000",
      "reserved": "",
      "assetIds": []
    },
    {
      "x": 85,
      "y": 152,
      "size": 1,
      "price": "905000000000000000000",
      "reserved": "",
      "assetIds": []
    },
    {
      "x": 85,
      "y": 153,
      "size": 1,
      "price": "905000000000000000000",
      "reserved": "",
      "assetIds": []
    },
    {
      "x": 85,
      "y": 154,
      "size": 1,
      "price": "905000000000000000000",
      "reserved": "",
      "assetIds": []
    },
    {
      "x": 85,
      "y": 155,
      "size": 1,
      "price": "905000000000000000000",
      "reserved": "",
      "assetIds": []
    },
    {
      "x": 85,
      "y": 156,
      "size": 1,
      "price": "905000000000000000000",
      "reserved": "",
      "assetIds": []
    },
    {
      "x": 85,
      "y": 157,
      "size": 1,
      "price": "905000000000000000000",
      "reserved": "",
      "assetIds": []
    },
    {
      "x": 84,
      "y": 156,
      "size": 1,
      "price": "905000000000000000000",
      "reserved": "",
      "assetIds": []
    },
    {
      "x": 84,
      "y": 155,
      "size": 1,
      "price": "905000000000000000000",
      "reserved": "",
      "assetIds": []
    },
    {
      "x": 84,
      "y": 154,
      "size": 1,
      "price": "905000000000000000000",
      "reserved": "",
      "assetIds": []
    },
    {
      "x": 84,
      "y": 153,
      "size": 1,
      "price": "905000000000000000000",
      "reserved": "",
      "assetIds": []
    },
    {
      "x": 84,
      "y": 152,
      "size": 1,
      "price": "905000000000000000000",
      "reserved": "",
      "assetIds": []
    },
    {
      "x": 84,
      "y": 157,
      "size": 1,
      "price": "905000000000000000000",
      "reserved": "",
      "assetIds": []
    },
    {
      "x": 84,
      "y": 159,
      "size": 1,
      "price": "905000000000000000000",
      "reserved": "",
      "assetIds": []
    },
    {
      "x": 83,
      "y": 159,
      "size": 1,
      "price": "905000000000000000000",
      "reserved": "",
      "assetIds": []
    },
    {
      "x": 83,
      "y": 158,
      "size": 1,
      "price": "905000000000000000000",
      "reserved": "",
      "assetIds": []
    },
    {
      "x": 83,
      "y": 157,
      "size": 1,
      "price": "905000000000000000000",
      "reserved": "",
      "assetIds": []
    },
    {
      "x": 83,
      "y": 156,
      "size": 1,
      "price": "905000000000000000000",
      "reserved": "",
      "assetIds": []
    },
    {
      "x": 83,
      "y": 154,
      "size": 1,
      "price": "905000000000000000000",
      "reserved": "",
      "assetIds": []
    },
    {
      "x": 84,
      "y": 158,
      "size": 1,
      "price": "905000000000000000000",
      "reserved": "",
      "assetIds": []
    },
    {
      "x": 85,
      "y": 159,
      "size": 1,
      "price": "905000000000000000000",
      "reserved": "",
      "assetIds": []
    },
    {
      "x": 86,
      "y": 159,
      "size": 1,
      "price": "905000000000000000000",
      "reserved": "",
      "assetIds": []
    },
    {
      "x": 85,
      "y": 158,
      "size": 1,
      "price": "905000000000000000000",
      "reserved": "",
      "assetIds": []
    },
    {
      "x": 90,
      "y": 158,
      "size": 1,
      "price": "905000000000000000000",
      "reserved": "",
      "assetIds": []
    },
    {
      "x": 91,
      "y": 158,
      "size": 1,
      "price": "905000000000000000000",
      "reserved": "",
      "assetIds": []
    },
    {
      "x": 92,
      "y": 158,
      "size": 1,
      "price": "905000000000000000000",
      "reserved": "",
      "assetIds": []
    },
    {
      "x": 93,
      "y": 158,
      "size": 1,
      "price": "905000000000000000000",
      "reserved": "",
      "assetIds": []
    },
    {
      "x": 94,
      "y": 158,
      "size": 1,
      "price": "905000000000000000000",
      "reserved": "",
      "assetIds": []
    },
    {
      "x": 95,
      "y": 158,
      "size": 1,
      "price": "905000000000000000000",
      "reserved": "",
      "assetIds": []
    },
    {
      "x": 95,
      "y": 157,
      "size": 1,
      "price": "905000000000000000000",
      "reserved": "",
      "assetIds": []
    },
    {
      "x": 94,
      "y": 157,
      "size": 1,
      "price": "905000000000000000000",
      "reserved": "",
      "assetIds": []
    },
    {
      "x": 93,
      "y": 157,
      "size": 1,
      "price": "905000000000000000000",
      "reserved": "",
      "assetIds": []
    },
    {
      "x": 92,
      "y": 157,
      "size": 1,
      "price": "905000000000000000000",
      "reserved": "",
      "assetIds": []
    },
    {
      "x": 91,
      "y": 157,
      "size": 1,
      "price": "905000000000000000000",
      "reserved": "",
      "assetIds": []
    },
    {
      "x": 90,
      "y": 157,
      "size": 1,
      "price": "905000000000000000000",
      "reserved": "",
      "assetIds": []
    },
    {
      "x": 94,
      "y": 156,
      "size": 1,
      "price": "905000000000000000000",
      "reserved": "",
      "assetIds": []
    },
    {
      "x": 95,
      "y": 156,
      "size": 1,
      "price": "905000000000000000000",
      "reserved": "",
      "assetIds": []
    },
    {
      "x": 92,
      "y": 156,
      "size": 1,
      "price": "905000000000000000000",
      "reserved": "",
      "assetIds": []
    },
    {
      "x": 91,
      "y": 156,
      "size": 1,
      "price": "905000000000000000000",
      "reserved": "",
      "assetIds": []
    },
    {
      "x": 99,
      "y": 159,
      "size": 1,
      "price": "905000000000000000000",
      "reserved": "",
      "assetIds": []
    },
    {
      "x": 98,
      "y": 159,
      "size": 1,
      "price": "905000000000000000000",
      "reserved": "",
      "assetIds": []
    },
    {
      "x": 97,
      "y": 159,
      "size": 1,
      "price": "905000000000000000000",
      "reserved": "",
      "assetIds": []
    },
    {
      "x": 96,
      "y": 159,
      "size": 1,
      "price": "905000000000000000000",
      "reserved": "",
      "assetIds": []
    },
    {
      "x": 94,
      "y": 159,
      "size": 1,
      "price": "905000000000000000000",
      "reserved": "",
      "assetIds": []
    },
    {
      "x": 93,
      "y": 159,
      "size": 1,
      "price": "905000000000000000000",
      "reserved": "",
      "assetIds": []
    },
    {
      "x": 92,
      "y": 159,
      "size": 1,
      "price": "905000000000000000000",
      "reserved": "",
      "assetIds": []
    },
    {
      "x": 91,
      "y": 159,
      "size": 1,
      "price": "905000000000000000000",
      "reserved": "",
      "assetIds": []
    },
    {
      "x": 90,
      "y": 159,
      "size": 1,
      "price": "905000000000000000000",
      "reserved": "",
      "assetIds": []
    },
    {
      "x": 95,
      "y": 159,
      "size": 1,
      "price": "905000000000000000000",
      "reserved": "",
      "assetIds": []
    },
    {
      "x": 90,
      "y": 156,
      "size": 1,
      "price": "905000000000000000000",
      "reserved": "",
      "assetIds": []
    },
    {
      "x": 82,
      "y": 155,
      "size": 1,
      "price": "905000000000000000000",
      "reserved": "",
      "assetIds": []
    },
    {
      "x": 81,
      "y": 155,
      "size": 1,
      "price": "905000000000000000000",
      "reserved": "",
      "assetIds": []
    },
    {
      "x": 81,
      "y": 156,
      "size": 1,
      "price": "905000000000000000000",
      "reserved": "",
      "assetIds": []
    },
    {
      "x": 81,
      "y": 157,
      "size": 1,
      "price": "905000000000000000000",
      "reserved": "",
      "assetIds": []
    },
    {
      "x": 82,
      "y": 158,
      "size": 1,
      "price": "905000000000000000000",
      "reserved": "",
      "assetIds": []
    },
    {
      "x": 82,
      "y": 159,
      "size": 1,
      "price": "905000000000000000000",
      "reserved": "",
      "assetIds": []
    },
    {
      "x": 82,
      "y": 157,
      "size": 1,
      "price": "905000000000000000000",
      "reserved": "",
      "assetIds": []
    },
    {
      "x": 81,
      "y": 154,
      "size": 1,
      "price": "905000000000000000000",
      "reserved": "",
      "assetIds": []
    },
    {
      "x": 81,
      "y": 153,
      "size": 1,
      "price": "905000000000000000000",
      "reserved": "",
      "assetIds": []
    },
    {
      "x": 80,
      "y": 153,
      "size": 1,
      "price": "905000000000000000000",
      "reserved": "",
      "assetIds": []
    },
    {
      "x": 81,
      "y": 152,
      "size": 1,
      "price": "905000000000000000000",
      "reserved": "",
      "assetIds": []
    },
    {
      "x": 82,
      "y": 153,
      "size": 1,
      "price": "905000000000000000000",
      "reserved": "",
      "assetIds": []
    },
    {
      "x": 82,
      "y": 154,
      "size": 1,
      "price": "905000000000000000000",
      "reserved": "",
      "assetIds": []
    },
    {
      "x": 82,
      "y": 156,
      "size": 1,
      "price": "905000000000000000000",
      "reserved": "",
      "assetIds": []
    },
    {
      "x": 82,
      "y": 160,
      "size": 1,
      "price": "905000000000000000000",
      "reserved": "",
      "assetIds": []
    },
    {
      "x": 81,
      "y": 160,
      "size": 1,
      "price": "905000000000000000000",
      "reserved": "",
      "assetIds": []
    },
    {
      "x": 81,
      "y": 159,
      "size": 1,
      "price": "905000000000000000000",
      "reserved": "",
      "assetIds": []
    },
    {
      "x": 81,
      "y": 158,
      "size": 1,
      "price": "905000000000000000000",
      "reserved": "",
      "assetIds": []
    },
    {
      "x": 80,
      "y": 159,
      "size": 1,
      "price": "905000000000000000000",
      "reserved": "",
      "assetIds": []
    },
    {
      "x": 80,
      "y": 158,
      "size": 1,
      "price": "905000000000000000000",
      "reserved": "",
      "assetIds": []
    },
    {
      "x": 80,
      "y": 157,
      "size": 1,
      "price": "905000000000000000000",
      "reserved": "",
      "assetIds": []
    },
    {
      "x": 80,
      "y": 156,
      "size": 1,
      "price": "905000000000000000000",
      "reserved": "",
      "assetIds": []
    },
    {
      "x": 80,
      "y": 155,
      "size": 1,
      "price": "905000000000000000000",
      "reserved": "",
      "assetIds": []
    },
    {
      "x": 79,
      "y": 155,
      "size": 1,
      "price": "905000000000000000000",
      "reserved": "",
      "assetIds": []
    },
    {
      "x": 79,
      "y": 154,
      "size": 1,
      "price": "905000000000000000000",
      "reserved": "",
      "assetIds": []
    },
    {
      "x": 79,
      "y": 159,
      "size": 1,
      "price": "905000000000000000000",
      "reserved": "",
      "assetIds": []
    },
    {
      "x": 79,
      "y": 160,
      "size": 1,
      "price": "905000000000000000000",
      "reserved": "",
      "assetIds": []
    },
    {
      "x": 79,
      "y": 158,
      "size": 1,
      "price": "905000000000000000000",
      "reserved": "",
      "assetIds": []
    },
    {
      "x": 79,
      "y": 157,
      "size": 1,
      "price": "905000000000000000000",
      "reserved": "",
      "assetIds": []
    },
    {
      "x": 79,
      "y": 156,
      "size": 1,
      "price": "905000000000000000000",
      "reserved": "",
      "assetIds": []
    },
    {
      "x": 79,
      "y": 153,
      "size": 1,
      "price": "905000000000000000000",
      "reserved": "",
      "assetIds": []
    },
    {
      "x": 78,
      "y": 156,
      "size": 1,
      "price": "905000000000000000000",
      "reserved": "",
      "assetIds": []
    },
    {
      "x": 78,
      "y": 155,
      "size": 1,
      "price": "905000000000000000000",
      "reserved": "",
      "assetIds": []
    },
    {
      "x": 78,
      "y": 154,
      "size": 1,
      "price": "905000000000000000000",
      "reserved": "",
      "assetIds": []
    },
    {
      "x": 78,
      "y": 153,
      "size": 1,
      "price": "905000000000000000000",
      "reserved": "",
      "assetIds": []
    },
    {
      "x": 80,
      "y": 154,
      "size": 1,
      "price": "905000000000000000000",
      "reserved": "",
      "assetIds": []
    },
    {
      "x": 78,
      "y": 160,
      "size": 1,
      "price": "905000000000000000000",
      "reserved": "",
      "assetIds": []
    },
    {
      "x": 78,
      "y": 159,
      "size": 1,
      "price": "905000000000000000000",
      "reserved": "",
      "assetIds": []
    },
    {
      "x": 78,
      "y": 158,
      "size": 1,
      "price": "905000000000000000000",
      "reserved": "",
      "assetIds": []
    },
    {
      "x": 80,
      "y": 160,
      "size": 1,
      "price": "905000000000000000000",
      "reserved": "",
      "assetIds": []
    },
    {
      "x": 78,
      "y": 164,
      "size": 1,
      "price": "905000000000000000000",
      "reserved": "",
      "assetIds": []
    },
    {
      "x": 99,
      "y": 161,
      "size": 1,
      "price": "905000000000000000000",
      "reserved": "",
      "assetIds": []
    },
    {
      "x": 99,
      "y": 160,
      "size": 1,
      "price": "905000000000000000000",
      "reserved": "",
      "assetIds": []
    },
    {
      "x": 101,
      "y": 159,
      "size": 1,
      "price": "905000000000000000000",
      "reserved": "",
      "assetIds": []
    },
    {
      "x": 102,
      "y": 158,
      "size": 1,
      "price": "905000000000000000000",
      "reserved": "",
      "assetIds": []
    },
    {
      "x": 103,
      "y": 158,
      "size": 1,
      "price": "905000000000000000000",
      "reserved": "",
      "assetIds": []
    },
    {
      "x": 100,
      "y": 160,
      "size": 1,
      "price": "905000000000000000000",
      "reserved": "",
      "assetIds": []
    },
    {
      "x": 101,
      "y": 160,
      "size": 1,
      "price": "905000000000000000000",
      "reserved": "",
      "assetIds": []
    },
    {
      "x": 101,
      "y": 161,
      "size": 1,
      "price": "905000000000000000000",
      "reserved": "",
      "assetIds": []
    },
    {
      "x": 102,
      "y": 161,
      "size": 1,
      "price": "905000000000000000000",
      "reserved": "",
      "assetIds": []
    },
    {
      "x": 103,
      "y": 161,
      "size": 1,
      "price": "905000000000000000000",
      "reserved": "",
      "assetIds": []
    },
    {
      "x": 100,
      "y": 161,
      "size": 1,
      "price": "905000000000000000000",
      "reserved": "",
      "assetIds": []
    },
    {
      "x": 98,
      "y": 160,
      "size": 1,
      "price": "905000000000000000000",
      "reserved": "",
      "assetIds": []
    },
    {
      "x": 97,
      "y": 160,
      "size": 1,
      "price": "905000000000000000000",
      "reserved": "",
      "assetIds": []
    },
    {
      "x": 96,
      "y": 160,
      "size": 1,
      "price": "905000000000000000000",
      "reserved": "",
      "assetIds": []
    },
    {
      "x": 102,
      "y": 159,
      "size": 1,
      "price": "905000000000000000000",
      "reserved": "",
      "assetIds": []
    },
    {
      "x": 103,
      "y": 159,
      "size": 1,
      "price": "905000000000000000000",
      "reserved": "",
      "assetIds": []
    },
    {
      "x": 104,
      "y": 159,
      "size": 1,
      "price": "905000000000000000000",
      "reserved": "",
      "assetIds": []
    },
    {
      "x": 104,
      "y": 158,
      "size": 1,
      "price": "905000000000000000000",
      "reserved": "",
      "assetIds": []
    },
    {
      "x": 105,
      "y": 158,
      "size": 1,
      "price": "905000000000000000000",
      "reserved": "",
      "assetIds": []
    },
    {
      "x": 105,
      "y": 157,
      "size": 1,
      "price": "905000000000000000000",
      "reserved": "",
      "assetIds": []
    },
    {
      "x": 105,
      "y": 156,
      "size": 1,
      "price": "905000000000000000000",
      "reserved": "",
      "assetIds": []
    },
    {
      "x": 106,
      "y": 156,
      "size": 1,
      "price": "905000000000000000000",
      "reserved": "",
      "assetIds": []
    },
    {
      "x": 106,
      "y": 157,
      "size": 1,
      "price": "905000000000000000000",
      "reserved": "",
      "assetIds": []
    },
    {
      "x": 106,
      "y": 158,
      "size": 1,
      "price": "905000000000000000000",
      "reserved": "",
      "assetIds": []
    },
    {
      "x": 107,
      "y": 158,
      "size": 1,
      "price": "905000000000000000000",
      "reserved": "",
      "assetIds": []
    },
    {
      "x": 107,
      "y": 159,
      "size": 1,
      "price": "905000000000000000000",
      "reserved": "",
      "assetIds": []
    },
    {
      "x": 106,
      "y": 159,
      "size": 1,
      "price": "905000000000000000000",
      "reserved": "",
      "assetIds": []
    },
    {
      "x": 106,
      "y": 160,
      "size": 1,
      "price": "905000000000000000000",
      "reserved": "",
      "assetIds": []
    },
    {
      "x": 106,
      "y": 161,
      "size": 1,
      "price": "905000000000000000000",
      "reserved": "",
      "assetIds": []
    },
    {
      "x": 106,
      "y": 162,
      "size": 1,
      "price": "905000000000000000000",
      "reserved": "",
      "assetIds": []
    },
    {
      "x": 107,
      "y": 161,
      "size": 1,
      "price": "905000000000000000000",
      "reserved": "",
      "assetIds": []
    },
    {
      "x": 107,
      "y": 160,
      "size": 1,
      "price": "905000000000000000000",
      "reserved": "",
      "assetIds": []
    },
    {
      "x": 107,
      "y": 157,
      "size": 1,
      "price": "905000000000000000000",
      "reserved": "",
      "assetIds": []
    },
    {
      "x": 107,
      "y": 156,
      "size": 1,
      "price": "905000000000000000000",
      "reserved": "",
      "assetIds": []
    },
    {
      "x": 104,
      "y": 156,
      "size": 1,
      "price": "905000000000000000000",
      "reserved": "",
      "assetIds": []
    },
    {
      "x": 103,
      "y": 156,
      "size": 1,
      "price": "905000000000000000000",
      "reserved": "",
      "assetIds": []
    },
    {
      "x": 102,
      "y": 156,
      "size": 1,
      "price": "905000000000000000000",
      "reserved": "",
      "assetIds": []
    },
    {
      "x": 103,
      "y": 157,
      "size": 1,
      "price": "905000000000000000000",
      "reserved": "",
      "assetIds": []
    },
    {
      "x": 104,
      "y": 157,
      "size": 1,
      "price": "905000000000000000000",
      "reserved": "",
      "assetIds": []
    },
    {
      "x": 102,
      "y": 157,
      "size": 1,
      "price": "905000000000000000000",
      "reserved": "",
      "assetIds": []
    },
    {
      "x": 105,
      "y": 159,
      "size": 1,
      "price": "905000000000000000000",
      "reserved": "",
      "assetIds": []
    },
    {
      "x": 107,
      "y": 162,
      "size": 1,
      "price": "905000000000000000000",
      "reserved": "",
      "assetIds": []
    },
    {
      "x": 105,
      "y": 162,
      "size": 1,
      "price": "905000000000000000000",
      "reserved": "",
      "assetIds": []
    },
    {
      "x": 104,
      "y": 162,
      "size": 1,
      "price": "905000000000000000000",
      "reserved": "",
      "assetIds": []
    },
    {
      "x": 103,
      "y": 162,
      "size": 1,
      "price": "905000000000000000000",
      "reserved": "",
      "assetIds": []
    },
    {
      "x": 104,
      "y": 161,
      "size": 1,
      "price": "905000000000000000000",
      "reserved": "",
      "assetIds": []
    },
    {
      "x": 105,
      "y": 161,
      "size": 1,
      "price": "905000000000000000000",
      "reserved": "",
      "assetIds": []
    },
    {
      "x": 102,
      "y": 160,
      "size": 1,
      "price": "905000000000000000000",
      "reserved": "",
      "assetIds": []
    },
    {
      "x": 103,
      "y": 160,
      "size": 1,
      "price": "905000000000000000000",
      "reserved": "",
      "assetIds": []
    },
    {
      "x": 105,
      "y": 160,
      "size": 1,
      "price": "905000000000000000000",
      "reserved": "",
      "assetIds": []
    },
    {
      "x": 104,
      "y": 160,
      "size": 1,
      "price": "905000000000000000000",
      "reserved": "",
      "assetIds": []
    },
    {
      "x": 102,
      "y": 162,
      "size": 1,
      "price": "905000000000000000000",
      "reserved": "",
      "assetIds": []
    },
    {
      "x": 101,
      "y": 162,
      "size": 1,
      "price": "905000000000000000000",
      "reserved": "",
      "assetIds": []
    },
    {
      "x": 104,
      "y": 163,
      "size": 1,
      "price": "905000000000000000000",
      "reserved": "",
      "assetIds": []
    },
    {
      "x": 105,
      "y": 163,
      "size": 1,
      "price": "905000000000000000000",
      "reserved": "",
      "assetIds": []
    },
    {
      "x": 106,
      "y": 163,
      "size": 1,
      "price": "905000000000000000000",
      "reserved": "",
      "assetIds": []
    },
    {
      "x": 107,
      "y": 163,
      "size": 1,
      "price": "905000000000000000000",
      "reserved": "",
      "assetIds": []
    },
    {
      "x": 108,
      "y": 163,
      "size": 1,
      "price": "905000000000000000000",
      "reserved": "",
      "assetIds": []
    },
    {
      "x": 109,
      "y": 163,
      "size": 1,
      "price": "905000000000000000000",
      "reserved": "",
      "assetIds": []
    },
    {
      "x": 110,
      "y": 163,
      "size": 1,
      "price": "905000000000000000000",
      "reserved": "",
      "assetIds": []
    },
    {
      "x": 111,
      "y": 163,
      "size": 1,
      "price": "905000000000000000000",
      "reserved": "",
      "assetIds": []
    },
    {
      "x": 112,
      "y": 163,
      "size": 1,
      "price": "905000000000000000000",
      "reserved": "",
      "assetIds": []
    },
    {
      "x": 112,
      "y": 164,
      "size": 1,
      "price": "905000000000000000000",
      "reserved": "",
      "assetIds": []
    },
    {
      "x": 113,
      "y": 164,
      "size": 1,
      "price": "905000000000000000000",
      "reserved": "",
      "assetIds": []
    },
    {
      "x": 112,
      "y": 162,
      "size": 1,
      "price": "905000000000000000000",
      "reserved": "",
      "assetIds": []
    },
    {
      "x": 113,
      "y": 162,
      "size": 1,
      "price": "905000000000000000000",
      "reserved": "",
      "assetIds": []
    },
    {
      "x": 113,
      "y": 163,
      "size": 1,
      "price": "905000000000000000000",
      "reserved": "",
      "assetIds": []
    },
    {
      "x": 111,
      "y": 162,
      "size": 1,
      "price": "905000000000000000000",
      "reserved": "",
      "assetIds": []
    },
    {
      "x": 110,
      "y": 162,
      "size": 1,
      "price": "905000000000000000000",
      "reserved": "",
      "assetIds": []
    },
    {
      "x": 109,
      "y": 162,
      "size": 1,
      "price": "905000000000000000000",
      "reserved": "",
      "assetIds": []
    },
    {
      "x": 108,
      "y": 162,
      "size": 1,
      "price": "905000000000000000000",
      "reserved": "",
      "assetIds": []
    },
    {
      "x": 104,
      "y": 164,
      "size": 1,
      "price": "905000000000000000000",
      "reserved": "",
      "assetIds": []
    },
    {
      "x": 104,
      "y": 165,
      "size": 1,
      "price": "905000000000000000000",
      "reserved": "",
      "assetIds": []
    },
    {
      "x": 105,
      "y": 165,
      "size": 1,
      "price": "905000000000000000000",
      "reserved": "",
      "assetIds": []
    },
    {
      "x": 105,
      "y": 166,
      "size": 1,
      "price": "905000000000000000000",
      "reserved": "",
      "assetIds": []
    },
    {
      "x": 105,
      "y": 164,
      "size": 1,
      "price": "905000000000000000000",
      "reserved": "",
      "assetIds": []
    },
    {
      "x": 106,
      "y": 164,
      "size": 1,
      "price": "905000000000000000000",
      "reserved": "",
      "assetIds": []
    },
    {
      "x": 106,
      "y": 165,
      "size": 1,
      "price": "905000000000000000000",
      "reserved": "",
      "assetIds": []
    },
    {
      "x": 106,
      "y": 166,
      "size": 1,
      "price": "905000000000000000000",
      "reserved": "",
      "assetIds": []
    },
    {
      "x": 106,
      "y": 167,
      "size": 1,
      "price": "905000000000000000000",
      "reserved": "",
      "assetIds": []
    },
    {
      "x": 107,
      "y": 164,
      "size": 1,
      "price": "905000000000000000000",
      "reserved": "",
      "assetIds": []
    },
    {
      "x": 107,
      "y": 165,
      "size": 1,
      "price": "905000000000000000000",
      "reserved": "",
      "assetIds": []
    },
    {
      "x": 107,
      "y": 166,
      "size": 1,
      "price": "905000000000000000000",
      "reserved": "",
      "assetIds": []
    },
    {
      "x": 108,
      "y": 167,
      "size": 1,
      "price": "905000000000000000000",
      "reserved": "",
      "assetIds": []
    },
    {
      "x": 108,
      "y": 166,
      "size": 1,
      "price": "905000000000000000000",
      "reserved": "",
      "assetIds": []
    },
    {
      "x": 108,
      "y": 165,
      "size": 1,
      "price": "905000000000000000000",
      "reserved": "",
      "assetIds": []
    },
    {
      "x": 108,
      "y": 164,
      "size": 1,
      "price": "905000000000000000000",
      "reserved": "",
      "assetIds": []
    },
    {
      "x": 109,
      "y": 164,
      "size": 1,
      "price": "905000000000000000000",
      "reserved": "",
      "assetIds": []
    },
    {
      "x": 109,
      "y": 165,
      "size": 1,
      "price": "905000000000000000000",
      "reserved": "",
      "assetIds": []
    },
    {
      "x": 109,
      "y": 166,
      "size": 1,
      "price": "905000000000000000000",
      "reserved": "",
      "assetIds": []
    },
    {
      "x": 110,
      "y": 164,
      "size": 1,
      "price": "905000000000000000000",
      "reserved": "",
      "assetIds": []
    },
    {
      "x": 110,
      "y": 165,
      "size": 1,
      "price": "905000000000000000000",
      "reserved": "",
      "assetIds": []
    },
    {
      "x": 110,
      "y": 166,
      "size": 1,
      "price": "905000000000000000000",
      "reserved": "",
      "assetIds": []
    },
    {
      "x": 110,
      "y": 167,
      "size": 1,
      "price": "905000000000000000000",
      "reserved": "",
      "assetIds": []
    },
    {
      "x": 111,
      "y": 167,
      "size": 1,
      "price": "905000000000000000000",
      "reserved": "",
      "assetIds": []
    },
    {
      "x": 111,
      "y": 166,
      "size": 1,
      "price": "905000000000000000000",
      "reserved": "",
      "assetIds": []
    },
    {
      "x": 111,
      "y": 165,
      "size": 1,
      "price": "905000000000000000000",
      "reserved": "",
      "assetIds": []
    },
    {
      "x": 111,
      "y": 164,
      "size": 1,
      "price": "905000000000000000000",
      "reserved": "",
      "assetIds": []
    },
    {
      "x": 112,
      "y": 165,
      "size": 1,
      "price": "905000000000000000000",
      "reserved": "",
      "assetIds": []
    },
    {
      "x": 112,
      "y": 166,
      "size": 1,
      "price": "905000000000000000000",
      "reserved": "",
      "assetIds": []
    },
    {
      "x": 112,
      "y": 167,
      "size": 1,
      "price": "905000000000000000000",
      "reserved": "",
      "assetIds": []
    },
    {
      "x": 113,
      "y": 165,
      "size": 1,
      "price": "905000000000000000000",
      "reserved": "",
      "assetIds": []
    },
    {
      "x": 113,
      "y": 166,
      "size": 1,
      "price": "905000000000000000000",
      "reserved": "",
      "assetIds": []
    },
    {
      "x": 113,
      "y": 167,
      "size": 1,
      "price": "905000000000000000000",
      "reserved": "",
      "assetIds": []
    },
    {
      "x": 107,
      "y": 168,
      "size": 1,
      "price": "905000000000000000000",
      "reserved": "",
      "assetIds": []
    },
    {
      "x": 106,
      "y": 168,
      "size": 1,
      "price": "905000000000000000000",
      "reserved": "",
      "assetIds": []
    },
    {
      "x": 105,
      "y": 168,
      "size": 1,
      "price": "905000000000000000000",
      "reserved": "",
      "assetIds": []
    },
    {
      "x": 107,
      "y": 167,
      "size": 1,
      "price": "905000000000000000000",
      "reserved": "",
      "assetIds": []
    },
    {
      "x": 109,
      "y": 167,
      "size": 1,
      "price": "905000000000000000000",
      "reserved": "",
      "assetIds": []
    },
    {
      "x": 105,
      "y": 167,
      "size": 1,
      "price": "905000000000000000000",
      "reserved": "",
      "assetIds": []
    },
    {
      "x": 104,
      "y": 167,
      "size": 1,
      "price": "905000000000000000000",
      "reserved": "",
      "assetIds": []
    },
    {
      "x": 103,
      "y": 167,
      "size": 1,
      "price": "905000000000000000000",
      "reserved": "",
      "assetIds": []
    },
    {
      "x": 104,
      "y": 168,
      "size": 1,
      "price": "905000000000000000000",
      "reserved": "",
      "assetIds": []
    },
    {
      "x": 103,
      "y": 164,
      "size": 1,
      "price": "905000000000000000000",
      "reserved": "",
      "assetIds": []
    },
    {
      "x": 103,
      "y": 165,
      "size": 1,
      "price": "905000000000000000000",
      "reserved": "",
      "assetIds": []
    },
    {
      "x": 103,
      "y": 163,
      "size": 1,
      "price": "905000000000000000000",
      "reserved": "",
      "assetIds": []
    },
    {
      "x": 102,
      "y": 163,
      "size": 1,
      "price": "905000000000000000000",
      "reserved": "",
      "assetIds": []
    },
    {
      "x": 102,
      "y": 164,
      "size": 1,
      "price": "905000000000000000000",
      "reserved": "",
      "assetIds": []
    },
    {
      "x": 103,
      "y": 168,
      "size": 1,
      "price": "905000000000000000000",
      "reserved": "",
      "assetIds": []
    },
    {
      "x": 103,
      "y": 169,
      "size": 1,
      "price": "905000000000000000000",
      "reserved": "",
      "assetIds": []
    },
    {
      "x": 103,
      "y": 170,
      "size": 1,
      "price": "905000000000000000000",
      "reserved": "",
      "assetIds": []
    },
    {
      "x": 104,
      "y": 170,
      "size": 1,
      "price": "905000000000000000000",
      "reserved": "",
      "assetIds": []
    },
    {
      "x": 104,
      "y": 169,
      "size": 1,
      "price": "905000000000000000000",
      "reserved": "",
      "assetIds": []
    },
    {
      "x": 104,
      "y": 166,
      "size": 1,
      "price": "905000000000000000000",
      "reserved": "",
      "assetIds": []
    },
    {
      "x": 103,
      "y": 166,
      "size": 1,
      "price": "905000000000000000000",
      "reserved": "",
      "assetIds": []
    },
    {
      "x": 106,
      "y": 169,
      "size": 1,
      "price": "905000000000000000000",
      "reserved": "",
      "assetIds": []
    },
    {
      "x": 106,
      "y": 170,
      "size": 1,
      "price": "905000000000000000000",
      "reserved": "",
      "assetIds": []
    },
    {
      "x": 106,
      "y": 171,
      "size": 1,
      "price": "905000000000000000000",
      "reserved": "",
      "assetIds": []
    },
    {
      "x": 107,
      "y": 171,
      "size": 1,
      "price": "905000000000000000000",
      "reserved": "",
      "assetIds": []
    },
    {
      "x": 107,
      "y": 170,
      "size": 1,
      "price": "905000000000000000000",
      "reserved": "",
      "assetIds": []
    },
    {
      "x": 107,
      "y": 169,
      "size": 1,
      "price": "905000000000000000000",
      "reserved": "",
      "assetIds": []
    },
    {
      "x": 107,
      "y": 172,
      "size": 1,
      "price": "905000000000000000000",
      "reserved": "",
      "assetIds": []
    },
    {
      "x": 107,
      "y": 173,
      "size": 1,
      "price": "905000000000000000000",
      "reserved": "",
      "assetIds": []
    },
    {
      "x": 107,
      "y": 174,
      "size": 1,
      "price": "905000000000000000000",
      "reserved": "",
      "assetIds": []
    },
    {
      "x": 107,
      "y": 175,
      "size": 1,
      "price": "905000000000000000000",
      "reserved": "",
      "assetIds": []
    },
    {
      "x": 107,
      "y": 176,
      "size": 1,
      "price": "905000000000000000000",
      "reserved": "",
      "assetIds": []
    },
    {
      "x": 108,
      "y": 176,
      "size": 1,
      "price": "905000000000000000000",
      "reserved": "",
      "assetIds": []
    },
    {
      "x": 108,
      "y": 175,
      "size": 1,
      "price": "905000000000000000000",
      "reserved": "",
      "assetIds": []
    },
    {
      "x": 108,
      "y": 174,
      "size": 1,
      "price": "905000000000000000000",
      "reserved": "",
      "assetIds": []
    },
    {
      "x": 106,
      "y": 174,
      "size": 1,
      "price": "905000000000000000000",
      "reserved": "",
      "assetIds": []
    },
    {
      "x": 106,
      "y": 175,
      "size": 1,
      "price": "905000000000000000000",
      "reserved": "",
      "assetIds": []
    },
    {
      "x": 106,
      "y": 176,
      "size": 1,
      "price": "905000000000000000000",
      "reserved": "",
      "assetIds": []
    },
    {
      "x": 106,
      "y": 173,
      "size": 1,
      "price": "905000000000000000000",
      "reserved": "",
      "assetIds": []
    },
    {
      "x": 106,
      "y": 172,
      "size": 1,
      "price": "905000000000000000000",
      "reserved": "",
      "assetIds": []
    },
    {
      "x": 105,
      "y": 172,
      "size": 1,
      "price": "905000000000000000000",
      "reserved": "",
      "assetIds": []
    },
    {
      "x": 105,
      "y": 173,
      "size": 1,
      "price": "905000000000000000000",
      "reserved": "",
      "assetIds": []
    },
    {
      "x": 105,
      "y": 174,
      "size": 1,
      "price": "905000000000000000000",
      "reserved": "",
      "assetIds": []
    },
    {
      "x": 105,
      "y": 175,
      "size": 1,
      "price": "905000000000000000000",
      "reserved": "",
      "assetIds": []
    },
    {
      "x": 105,
      "y": 176,
      "size": 1,
      "price": "905000000000000000000",
      "reserved": "",
      "assetIds": []
    },
    {
      "x": 105,
      "y": 171,
      "size": 1,
      "price": "905000000000000000000",
      "reserved": "",
      "assetIds": []
    },
    {
      "x": 105,
      "y": 170,
      "size": 1,
      "price": "905000000000000000000",
      "reserved": "",
      "assetIds": []
    },
    {
      "x": 105,
      "y": 169,
      "size": 1,
      "price": "905000000000000000000",
      "reserved": "",
      "assetIds": []
    },
    {
      "x": 104,
      "y": 171,
      "size": 1,
      "price": "905000000000000000000",
      "reserved": "",
      "assetIds": []
    },
    {
      "x": 104,
      "y": 172,
      "size": 1,
      "price": "905000000000000000000",
      "reserved": "",
      "assetIds": []
    },
    {
      "x": 104,
      "y": 173,
      "size": 1,
      "price": "905000000000000000000",
      "reserved": "",
      "assetIds": []
    },
    {
      "x": 104,
      "y": 174,
      "size": 1,
      "price": "905000000000000000000",
      "reserved": "",
      "assetIds": []
    },
    {
      "x": 104,
      "y": 175,
      "size": 1,
      "price": "905000000000000000000",
      "reserved": "",
      "assetIds": []
    },
    {
      "x": 104,
      "y": 176,
      "size": 1,
      "price": "905000000000000000000",
      "reserved": "",
      "assetIds": []
    },
    {
      "x": 104,
      "y": 177,
      "size": 1,
      "price": "905000000000000000000",
      "reserved": "",
      "assetIds": []
    },
    {
      "x": 104,
      "y": 178,
      "size": 1,
      "price": "905000000000000000000",
      "reserved": "",
      "assetIds": []
    },
    {
      "x": 104,
      "y": 179,
      "size": 1,
      "price": "905000000000000000000",
      "reserved": "",
      "assetIds": []
    },
    {
      "x": 104,
      "y": 180,
      "size": 1,
      "price": "905000000000000000000",
      "reserved": "",
      "assetIds": []
    },
    {
      "x": 103,
      "y": 180,
      "size": 1,
      "price": "905000000000000000000",
      "reserved": "",
      "assetIds": []
    },
    {
      "x": 103,
      "y": 179,
      "size": 1,
      "price": "905000000000000000000",
      "reserved": "",
      "assetIds": []
    },
    {
      "x": 103,
      "y": 178,
      "size": 1,
      "price": "905000000000000000000",
      "reserved": "",
      "assetIds": []
    },
    {
      "x": 103,
      "y": 177,
      "size": 1,
      "price": "905000000000000000000",
      "reserved": "",
      "assetIds": []
    },
    {
      "x": 103,
      "y": 176,
      "size": 1,
      "price": "905000000000000000000",
      "reserved": "",
      "assetIds": []
    },
    {
      "x": 103,
      "y": 175,
      "size": 1,
      "price": "905000000000000000000",
      "reserved": "",
      "assetIds": []
    },
    {
      "x": 103,
      "y": 174,
      "size": 1,
      "price": "905000000000000000000",
      "reserved": "",
      "assetIds": []
    },
    {
      "x": 102,
      "y": 179,
      "size": 1,
      "price": "905000000000000000000",
      "reserved": "",
      "assetIds": []
    },
    {
      "x": 102,
      "y": 180,
      "size": 1,
      "price": "905000000000000000000",
      "reserved": "",
      "assetIds": []
    },
    {
      "x": 102,
      "y": 181,
      "size": 1,
      "price": "905000000000000000000",
      "reserved": "",
      "assetIds": []
    },
    {
      "x": 102,
      "y": 176,
      "size": 1,
      "price": "905000000000000000000",
      "reserved": "",
      "assetIds": []
    },
    {
      "x": 102,
      "y": 177,
      "size": 1,
      "price": "905000000000000000000",
      "reserved": "",
      "assetIds": []
    },
    {
      "x": 102,
      "y": 175,
      "size": 1,
      "price": "905000000000000000000",
      "reserved": "",
      "assetIds": []
    },
    {
      "x": 102,
      "y": 174,
      "size": 1,
      "price": "905000000000000000000",
      "reserved": "",
      "assetIds": []
    },
    {
      "x": 102,
      "y": 178,
      "size": 1,
      "price": "905000000000000000000",
      "reserved": "",
      "assetIds": []
    },
    {
      "x": 102,
      "y": 182,
      "size": 1,
      "price": "905000000000000000000",
      "reserved": "",
      "assetIds": []
    },
    {
      "x": 103,
      "y": 182,
      "size": 1,
      "price": "905000000000000000000",
      "reserved": "",
      "assetIds": []
    },
    {
      "x": 103,
      "y": 183,
      "size": 1,
      "price": "905000000000000000000",
      "reserved": "",
      "assetIds": []
    },
    {
      "x": 103,
      "y": 184,
      "size": 1,
      "price": "905000000000000000000",
      "reserved": "",
      "assetIds": []
    },
    {
      "x": 103,
      "y": 185,
      "size": 1,
      "price": "905000000000000000000",
      "reserved": "",
      "assetIds": []
    },
    {
      "x": 102,
      "y": 185,
      "size": 1,
      "price": "905000000000000000000",
      "reserved": "",
      "assetIds": []
    },
    {
      "x": 102,
      "y": 184,
      "size": 1,
      "price": "905000000000000000000",
      "reserved": "",
      "assetIds": []
    },
    {
      "x": 102,
      "y": 183,
      "size": 1,
      "price": "905000000000000000000",
      "reserved": "",
      "assetIds": []
    },
    {
      "x": 101,
      "y": 184,
      "size": 1,
      "price": "905000000000000000000",
      "reserved": "",
      "assetIds": []
    },
    {
      "x": 101,
      "y": 185,
      "size": 1,
      "price": "905000000000000000000",
      "reserved": "",
      "assetIds": []
    },
    {
      "x": 101,
      "y": 186,
      "size": 1,
      "price": "905000000000000000000",
      "reserved": "",
      "assetIds": []
    },
    {
      "x": 101,
      "y": 187,
      "size": 1,
      "price": "905000000000000000000",
      "reserved": "",
      "assetIds": []
    },
    {
      "x": 101,
      "y": 188,
      "size": 1,
      "price": "905000000000000000000",
      "reserved": "",
      "assetIds": []
    },
    {
      "x": 101,
      "y": 189,
      "size": 1,
      "price": "905000000000000000000",
      "reserved": "",
      "assetIds": []
    },
    {
      "x": 101,
      "y": 190,
      "size": 1,
      "price": "905000000000000000000",
      "reserved": "",
      "assetIds": []
    },
    {
      "x": 100,
      "y": 187,
      "size": 1,
      "price": "905000000000000000000",
      "reserved": "",
      "assetIds": []
    },
    {
      "x": 103,
      "y": 181,
      "size": 1,
      "price": "905000000000000000000",
      "reserved": "",
      "assetIds": []
    },
    {
      "x": 105,
      "y": 180,
      "size": 1,
      "price": "905000000000000000000",
      "reserved": "",
      "assetIds": []
    },
    {
      "x": 106,
      "y": 180,
      "size": 1,
      "price": "905000000000000000000",
      "reserved": "",
      "assetIds": []
    },
    {
      "x": 107,
      "y": 180,
      "size": 1,
      "price": "905000000000000000000",
      "reserved": "",
      "assetIds": []
    },
    {
      "x": 104,
      "y": 181,
      "size": 1,
      "price": "905000000000000000000",
      "reserved": "",
      "assetIds": []
    },
    {
      "x": 105,
      "y": 181,
      "size": 1,
      "price": "905000000000000000000",
      "reserved": "",
      "assetIds": []
    },
    {
      "x": 106,
      "y": 181,
      "size": 1,
      "price": "905000000000000000000",
      "reserved": "",
      "assetIds": []
    },
    {
      "x": 107,
      "y": 181,
      "size": 1,
      "price": "905000000000000000000",
      "reserved": "",
      "assetIds": []
    },
    {
      "x": 106,
      "y": 182,
      "size": 1,
      "price": "905000000000000000000",
      "reserved": "",
      "assetIds": []
    },
    {
      "x": 107,
      "y": 182,
      "size": 1,
      "price": "905000000000000000000",
      "reserved": "",
      "assetIds": []
    },
    {
      "x": 105,
      "y": 182,
      "size": 1,
      "price": "905000000000000000000",
      "reserved": "",
      "assetIds": []
    },
    {
      "x": 104,
      "y": 182,
      "size": 1,
      "price": "905000000000000000000",
      "reserved": "",
      "assetIds": []
    },
    {
      "x": 104,
      "y": 183,
      "size": 1,
      "price": "905000000000000000000",
      "reserved": "",
      "assetIds": []
    },
    {
      "x": 104,
      "y": 184,
      "size": 1,
      "price": "905000000000000000000",
      "reserved": "",
      "assetIds": []
    },
    {
      "x": 109,
      "y": 176,
      "size": 1,
      "price": "905000000000000000000",
      "reserved": "",
      "assetIds": []
    },
    {
      "x": 109,
      "y": 175,
      "size": 1,
      "price": "905000000000000000000",
      "reserved": "",
      "assetIds": []
    },
    {
      "x": 110,
      "y": 175,
      "size": 1,
      "price": "905000000000000000000",
      "reserved": "",
      "assetIds": []
    },
    {
      "x": 109,
      "y": 174,
      "size": 1,
      "price": "905000000000000000000",
      "reserved": "",
      "assetIds": []
    },
    {
      "x": 110,
      "y": 174,
      "size": 1,
      "price": "905000000000000000000",
      "reserved": "",
      "assetIds": []
    },
    {
      "x": 111,
      "y": 177,
      "size": 1,
      "price": "905000000000000000000",
      "reserved": "",
      "assetIds": []
    },
    {
      "x": 111,
      "y": 178,
      "size": 1,
      "price": "905000000000000000000",
      "reserved": "",
      "assetIds": []
    },
    {
      "x": 112,
      "y": 178,
      "size": 1,
      "price": "905000000000000000000",
      "reserved": "",
      "assetIds": []
    },
    {
      "x": 112,
      "y": 177,
      "size": 1,
      "price": "905000000000000000000",
      "reserved": "",
      "assetIds": []
    },
    {
      "x": 113,
      "y": 177,
      "size": 1,
      "price": "905000000000000000000",
      "reserved": "",
      "assetIds": []
    },
    {
      "x": 113,
      "y": 178,
      "size": 1,
      "price": "905000000000000000000",
      "reserved": "",
      "assetIds": []
    },
    {
      "x": 113,
      "y": 179,
      "size": 1,
      "price": "905000000000000000000",
      "reserved": "",
      "assetIds": []
    },
    {
      "x": 112,
      "y": 179,
      "size": 1,
      "price": "905000000000000000000",
      "reserved": "",
      "assetIds": []
    },
    {
      "x": 111,
      "y": 179,
      "size": 1,
      "price": "905000000000000000000",
      "reserved": "",
      "assetIds": []
    },
    {
      "x": 114,
      "y": 181,
      "size": 1,
      "price": "905000000000000000000",
      "reserved": "",
      "assetIds": []
    },
    {
      "x": 115,
      "y": 181,
      "size": 1,
      "price": "905000000000000000000",
      "reserved": "",
      "assetIds": []
    },
    {
      "x": 116,
      "y": 181,
      "size": 1,
      "price": "905000000000000000000",
      "reserved": "",
      "assetIds": []
    },
    {
      "x": 117,
      "y": 181,
      "size": 1,
      "price": "905000000000000000000",
      "reserved": "",
      "assetIds": []
    },
    {
      "x": 118,
      "y": 181,
      "size": 1,
      "price": "905000000000000000000",
      "reserved": "",
      "assetIds": []
    },
    {
      "x": 119,
      "y": 181,
      "size": 1,
      "price": "905000000000000000000",
      "reserved": "",
      "assetIds": []
    },
    {
      "x": 119,
      "y": 180,
      "size": 1,
      "price": "905000000000000000000",
      "reserved": "",
      "assetIds": []
    },
    {
      "x": 118,
      "y": 180,
      "size": 1,
      "price": "905000000000000000000",
      "reserved": "",
      "assetIds": []
    },
    {
      "x": 117,
      "y": 180,
      "size": 1,
      "price": "905000000000000000000",
      "reserved": "",
      "assetIds": []
    },
    {
      "x": 116,
      "y": 180,
      "size": 1,
      "price": "905000000000000000000",
      "reserved": "",
      "assetIds": []
    },
    {
      "x": 115,
      "y": 180,
      "size": 1,
      "price": "905000000000000000000",
      "reserved": "",
      "assetIds": []
    },
    {
      "x": 114,
      "y": 180,
      "size": 1,
      "price": "905000000000000000000",
      "reserved": "",
      "assetIds": []
    },
    {
      "x": 114,
      "y": 182,
      "size": 1,
      "price": "905000000000000000000",
      "reserved": "",
      "assetIds": []
    },
    {
      "x": 115,
      "y": 182,
      "size": 1,
      "price": "905000000000000000000",
      "reserved": "",
      "assetIds": []
    },
    {
      "x": 116,
      "y": 182,
      "size": 1,
      "price": "905000000000000000000",
      "reserved": "",
      "assetIds": []
    },
    {
      "x": 117,
      "y": 182,
      "size": 1,
      "price": "905000000000000000000",
      "reserved": "",
      "assetIds": []
    },
    {
      "x": 118,
      "y": 182,
      "size": 1,
      "price": "905000000000000000000",
      "reserved": "",
      "assetIds": []
    },
    {
      "x": 119,
      "y": 182,
      "size": 1,
      "price": "905000000000000000000",
      "reserved": "",
      "assetIds": []
    },
    {
      "x": 114,
      "y": 173,
      "size": 1,
      "price": "905000000000000000000",
      "reserved": "",
      "assetIds": []
    },
    {
      "x": 115,
      "y": 173,
      "size": 1,
      "price": "905000000000000000000",
      "reserved": "",
      "assetIds": []
    },
    {
      "x": 119,
      "y": 173,
      "size": 1,
      "price": "905000000000000000000",
      "reserved": "",
      "assetIds": []
    },
    {
      "x": 118,
      "y": 173,
      "size": 1,
      "price": "905000000000000000000",
      "reserved": "",
      "assetIds": []
    },
    {
      "x": 117,
      "y": 173,
      "size": 1,
      "price": "905000000000000000000",
      "reserved": "",
      "assetIds": []
    },
    {
      "x": 116,
      "y": 173,
      "size": 1,
      "price": "905000000000000000000",
      "reserved": "",
      "assetIds": []
    },
    {
      "x": 116,
      "y": 172,
      "size": 1,
      "price": "905000000000000000000",
      "reserved": "",
      "assetIds": []
    },
    {
      "x": 115,
      "y": 172,
      "size": 1,
      "price": "905000000000000000000",
      "reserved": "",
      "assetIds": []
    },
    {
      "x": 114,
      "y": 171,
      "size": 1,
      "price": "905000000000000000000",
      "reserved": "",
      "assetIds": []
    },
    {
      "x": 114,
      "y": 170,
      "size": 1,
      "price": "905000000000000000000",
      "reserved": "",
      "assetIds": []
    },
    {
      "x": 114,
      "y": 169,
      "size": 1,
      "price": "905000000000000000000",
      "reserved": "",
      "assetIds": []
    },
    {
      "x": 115,
      "y": 169,
      "size": 1,
      "price": "905000000000000000000",
      "reserved": "",
      "assetIds": []
    },
    {
      "x": 115,
      "y": 168,
      "size": 1,
      "price": "905000000000000000000",
      "reserved": "",
      "assetIds": []
    },
    {
      "x": 116,
      "y": 168,
      "size": 1,
      "price": "905000000000000000000",
      "reserved": "",
      "assetIds": []
    },
    {
      "x": 117,
      "y": 168,
      "size": 1,
      "price": "905000000000000000000",
      "reserved": "",
      "assetIds": []
    },
    {
      "x": 118,
      "y": 168,
      "size": 1,
      "price": "905000000000000000000",
      "reserved": "",
      "assetIds": []
    },
    {
      "x": 119,
      "y": 168,
      "size": 1,
      "price": "905000000000000000000",
      "reserved": "",
      "assetIds": []
    },
    {
      "x": 119,
      "y": 169,
      "size": 1,
      "price": "905000000000000000000",
      "reserved": "",
      "assetIds": []
    },
    {
      "x": 119,
      "y": 170,
      "size": 1,
      "price": "905000000000000000000",
      "reserved": "",
      "assetIds": []
    },
    {
      "x": 118,
      "y": 170,
      "size": 1,
      "price": "905000000000000000000",
      "reserved": "",
      "assetIds": []
    },
    {
      "x": 118,
      "y": 171,
      "size": 1,
      "price": "905000000000000000000",
      "reserved": "",
      "assetIds": []
    },
    {
      "x": 118,
      "y": 172,
      "size": 1,
      "price": "905000000000000000000",
      "reserved": "",
      "assetIds": []
    },
    {
      "x": 119,
      "y": 172,
      "size": 1,
      "price": "905000000000000000000",
      "reserved": "",
      "assetIds": []
    },
    {
      "x": 119,
      "y": 171,
      "size": 1,
      "price": "905000000000000000000",
      "reserved": "",
      "assetIds": []
    },
    {
      "x": 117,
      "y": 171,
      "size": 1,
      "price": "905000000000000000000",
      "reserved": "",
      "assetIds": []
    },
    {
      "x": 117,
      "y": 170,
      "size": 1,
      "price": "905000000000000000000",
      "reserved": "",
      "assetIds": []
    },
    {
      "x": 116,
      "y": 171,
      "size": 1,
      "price": "905000000000000000000",
      "reserved": "",
      "assetIds": []
    },
    {
      "x": 115,
      "y": 171,
      "size": 1,
      "price": "905000000000000000000",
      "reserved": "",
      "assetIds": []
    },
    {
      "x": 114,
      "y": 172,
      "size": 1,
      "price": "905000000000000000000",
      "reserved": "",
      "assetIds": []
    },
    {
      "x": 117,
      "y": 172,
      "size": 1,
      "price": "905000000000000000000",
      "reserved": "",
      "assetIds": []
    },
    {
      "x": 115,
      "y": 170,
      "size": 1,
      "price": "905000000000000000000",
      "reserved": "",
      "assetIds": []
    },
    {
      "x": 116,
      "y": 170,
      "size": 1,
      "price": "905000000000000000000",
      "reserved": "",
      "assetIds": []
    },
    {
      "x": 117,
      "y": 169,
      "size": 1,
      "price": "905000000000000000000",
      "reserved": "",
      "assetIds": []
    },
    {
      "x": 118,
      "y": 169,
      "size": 1,
      "price": "905000000000000000000",
      "reserved": "",
      "assetIds": []
    },
    {
      "x": 116,
      "y": 169,
      "size": 1,
      "price": "905000000000000000000",
      "reserved": "",
      "assetIds": []
    },
    {
      "x": 114,
      "y": 168,
      "size": 1,
      "price": "905000000000000000000",
      "reserved": "",
      "assetIds": []
    },
    {
      "x": 105,
      "y": 188,
      "size": 1,
      "price": "905000000000000000000",
      "reserved": "",
      "assetIds": []
    },
    {
      "x": 105,
      "y": 187,
      "size": 1,
      "price": "905000000000000000000",
      "reserved": "",
      "assetIds": []
    },
    {
      "x": 105,
      "y": 186,
      "size": 1,
      "price": "905000000000000000000",
      "reserved": "",
      "assetIds": []
    },
    {
      "x": 106,
      "y": 186,
      "size": 1,
      "price": "905000000000000000000",
      "reserved": "",
      "assetIds": []
    },
    {
      "x": 106,
      "y": 187,
      "size": 1,
      "price": "905000000000000000000",
      "reserved": "",
      "assetIds": []
    },
    {
      "x": 107,
      "y": 187,
      "size": 1,
      "price": "905000000000000000000",
      "reserved": "",
      "assetIds": []
    },
    {
      "x": 107,
      "y": 188,
      "size": 1,
      "price": "905000000000000000000",
      "reserved": "",
      "assetIds": []
    },
    {
      "x": 106,
      "y": 188,
      "size": 1,
      "price": "905000000000000000000",
      "reserved": "",
      "assetIds": []
    },
    {
      "x": 106,
      "y": 189,
      "size": 1,
      "price": "905000000000000000000",
      "reserved": "",
      "assetIds": []
    },
    {
      "x": 107,
      "y": 186,
      "size": 1,
      "price": "905000000000000000000",
      "reserved": "",
      "assetIds": []
    },
    {
      "x": 108,
      "y": 186,
      "size": 1,
      "price": "905000000000000000000",
      "reserved": "",
      "assetIds": []
    },
    {
      "x": 109,
      "y": 186,
      "size": 1,
      "price": "905000000000000000000",
      "reserved": "",
      "assetIds": []
    },
    {
      "x": 110,
      "y": 186,
      "size": 1,
      "price": "905000000000000000000",
      "reserved": "",
      "assetIds": []
    },
    {
      "x": 109,
      "y": 187,
      "size": 1,
      "price": "905000000000000000000",
      "reserved": "",
      "assetIds": []
    },
    {
      "x": 109,
      "y": 188,
      "size": 1,
      "price": "905000000000000000000",
      "reserved": "",
      "assetIds": []
    },
    {
      "x": 108,
      "y": 188,
      "size": 1,
      "price": "905000000000000000000",
      "reserved": "",
      "assetIds": []
    },
    {
      "x": 110,
      "y": 188,
      "size": 1,
      "price": "905000000000000000000",
      "reserved": "",
      "assetIds": []
    },
    {
      "x": 110,
      "y": 187,
      "size": 1,
      "price": "905000000000000000000",
      "reserved": "",
      "assetIds": []
    },
    {
      "x": 108,
      "y": 187,
      "size": 1,
      "price": "905000000000000000000",
      "reserved": "",
      "assetIds": []
    },
    {
      "x": 100,
      "y": 188,
      "size": 1,
      "price": "905000000000000000000",
      "reserved": "",
      "assetIds": []
    },
    {
      "x": 102,
      "y": 189,
      "size": 1,
      "price": "905000000000000000000",
      "reserved": "",
      "assetIds": []
    },
    {
      "x": 102,
      "y": 190,
      "size": 1,
      "price": "905000000000000000000",
      "reserved": "",
      "assetIds": []
    },
    {
      "x": 103,
      "y": 190,
      "size": 1,
      "price": "905000000000000000000",
      "reserved": "",
      "assetIds": []
    },
    {
      "x": 104,
      "y": 190,
      "size": 1,
      "price": "905000000000000000000",
      "reserved": "",
      "assetIds": []
    },
    {
      "x": 105,
      "y": 190,
      "size": 1,
      "price": "905000000000000000000",
      "reserved": "",
      "assetIds": []
    },
    {
      "x": 106,
      "y": 190,
      "size": 1,
      "price": "905000000000000000000",
      "reserved": "",
      "assetIds": []
    },
    {
      "x": 105,
      "y": 189,
      "size": 1,
      "price": "905000000000000000000",
      "reserved": "",
      "assetIds": []
    },
    {
      "x": 104,
      "y": 189,
      "size": 1,
      "price": "905000000000000000000",
      "reserved": "",
      "assetIds": []
    },
    {
      "x": 103,
      "y": 189,
      "size": 1,
      "price": "905000000000000000000",
      "reserved": "",
      "assetIds": []
    },
    {
      "x": 107,
      "y": 189,
      "size": 1,
      "price": "905000000000000000000",
      "reserved": "",
      "assetIds": []
    },
    {
      "x": 107,
      "y": 190,
      "size": 1,
      "price": "905000000000000000000",
      "reserved": "",
      "assetIds": []
    },
    {
      "x": 107,
      "y": 191,
      "size": 1,
      "price": "905000000000000000000",
      "reserved": "",
      "assetIds": []
    },
    {
      "x": 106,
      "y": 191,
      "size": 1,
      "price": "905000000000000000000",
      "reserved": "",
      "assetIds": []
    },
    {
      "x": 105,
      "y": 191,
      "size": 1,
      "price": "905000000000000000000",
      "reserved": "",
      "assetIds": []
    },
    {
      "x": 104,
      "y": 191,
      "size": 1,
      "price": "905000000000000000000",
      "reserved": "",
      "assetIds": []
    },
    {
      "x": 103,
      "y": 191,
      "size": 1,
      "price": "905000000000000000000",
      "reserved": "",
      "assetIds": []
    },
    {
      "x": 102,
      "y": 191,
      "size": 1,
      "price": "905000000000000000000",
      "reserved": "",
      "assetIds": []
    },
    {
      "x": 101,
      "y": 191,
      "size": 1,
      "price": "905000000000000000000",
      "reserved": "",
      "assetIds": []
    },
    {
      "x": 100,
      "y": 191,
      "size": 1,
      "price": "905000000000000000000",
      "reserved": "",
      "assetIds": []
    },
    {
      "x": 99,
      "y": 191,
      "size": 1,
      "price": "905000000000000000000",
      "reserved": "",
      "assetIds": []
    },
    {
      "x": 98,
      "y": 191,
      "size": 1,
      "price": "905000000000000000000",
      "reserved": "",
      "assetIds": []
    },
    {
      "x": 97,
      "y": 191,
      "size": 1,
      "price": "905000000000000000000",
      "reserved": "",
      "assetIds": []
    },
    {
      "x": 96,
      "y": 191,
      "size": 1,
      "price": "905000000000000000000",
      "reserved": "",
      "assetIds": []
    },
    {
      "x": 95,
      "y": 191,
      "size": 1,
      "price": "905000000000000000000",
      "reserved": "",
      "assetIds": []
    },
    {
      "x": 94,
      "y": 191,
      "size": 1,
      "price": "905000000000000000000",
      "reserved": "",
      "assetIds": []
    },
    {
      "x": 94,
      "y": 190,
      "size": 1,
      "price": "905000000000000000000",
      "reserved": "",
      "assetIds": []
    },
    {
      "x": 93,
      "y": 190,
      "size": 1,
      "price": "905000000000000000000",
      "reserved": "",
      "assetIds": []
    },
    {
      "x": 92,
      "y": 190,
      "size": 1,
      "price": "905000000000000000000",
      "reserved": "",
      "assetIds": []
    },
    {
      "x": 91,
      "y": 190,
      "size": 1,
      "price": "905000000000000000000",
      "reserved": "",
      "assetIds": []
    },
    {
      "x": 91,
      "y": 189,
      "size": 1,
      "price": "905000000000000000000",
      "reserved": "",
      "assetIds": []
    },
    {
      "x": 92,
      "y": 189,
      "size": 1,
      "price": "905000000000000000000",
      "reserved": "",
      "assetIds": []
    },
    {
      "x": 93,
      "y": 189,
      "size": 1,
      "price": "905000000000000000000",
      "reserved": "",
      "assetIds": []
    },
    {
      "x": 94,
      "y": 189,
      "size": 1,
      "price": "905000000000000000000",
      "reserved": "",
      "assetIds": []
    },
    {
      "x": 95,
      "y": 190,
      "size": 1,
      "price": "905000000000000000000",
      "reserved": "",
      "assetIds": []
    },
    {
      "x": 96,
      "y": 190,
      "size": 1,
      "price": "905000000000000000000",
      "reserved": "",
      "assetIds": []
    },
    {
      "x": 97,
      "y": 190,
      "size": 1,
      "price": "905000000000000000000",
      "reserved": "",
      "assetIds": []
    },
    {
      "x": 98,
      "y": 190,
      "size": 1,
      "price": "905000000000000000000",
      "reserved": "",
      "assetIds": []
    },
    {
      "x": 99,
      "y": 190,
      "size": 1,
      "price": "905000000000000000000",
      "reserved": "",
      "assetIds": []
    },
    {
      "x": 100,
      "y": 190,
      "size": 1,
      "price": "905000000000000000000",
      "reserved": "",
      "assetIds": []
    },
    {
      "x": 100,
      "y": 189,
      "size": 1,
      "price": "905000000000000000000",
      "reserved": "",
      "assetIds": []
    },
    {
      "x": 99,
      "y": 189,
      "size": 1,
      "price": "905000000000000000000",
      "reserved": "",
      "assetIds": []
    },
    {
      "x": 99,
      "y": 188,
      "size": 1,
      "price": "905000000000000000000",
      "reserved": "",
      "assetIds": []
    },
    {
      "x": 98,
      "y": 188,
      "size": 1,
      "price": "905000000000000000000",
      "reserved": "",
      "assetIds": []
    },
    {
      "x": 97,
      "y": 188,
      "size": 1,
      "price": "905000000000000000000",
      "reserved": "",
      "assetIds": []
    },
    {
      "x": 96,
      "y": 187,
      "size": 1,
      "price": "905000000000000000000",
      "reserved": "",
      "assetIds": []
    },
    {
      "x": 97,
      "y": 187,
      "size": 1,
      "price": "905000000000000000000",
      "reserved": "",
      "assetIds": []
    },
    {
      "x": 98,
      "y": 187,
      "size": 1,
      "price": "905000000000000000000",
      "reserved": "",
      "assetIds": []
    },
    {
      "x": 99,
      "y": 187,
      "size": 1,
      "price": "905000000000000000000",
      "reserved": "",
      "assetIds": []
    },
    {
      "x": 93,
      "y": 188,
      "size": 1,
      "price": "905000000000000000000",
      "reserved": "",
      "assetIds": []
    },
    {
      "x": 94,
      "y": 188,
      "size": 1,
      "price": "905000000000000000000",
      "reserved": "",
      "assetIds": []
    },
    {
      "x": 95,
      "y": 188,
      "size": 1,
      "price": "905000000000000000000",
      "reserved": "",
      "assetIds": []
    },
    {
      "x": 96,
      "y": 188,
      "size": 1,
      "price": "905000000000000000000",
      "reserved": "",
      "assetIds": []
    },
    {
      "x": 95,
      "y": 189,
      "size": 1,
      "price": "905000000000000000000",
      "reserved": "",
      "assetIds": []
    },
    {
      "x": 96,
      "y": 189,
      "size": 1,
      "price": "905000000000000000000",
      "reserved": "",
      "assetIds": []
    },
    {
      "x": 97,
      "y": 189,
      "size": 1,
      "price": "905000000000000000000",
      "reserved": "",
      "assetIds": []
    },
    {
      "x": 98,
      "y": 189,
      "size": 1,
      "price": "905000000000000000000",
      "reserved": "",
      "assetIds": []
    },
    {
      "x": 103,
      "y": 192,
      "size": 1,
      "price": "905000000000000000000",
      "reserved": "",
      "assetIds": []
    },
    {
      "x": 104,
      "y": 192,
      "size": 1,
      "price": "905000000000000000000",
      "reserved": "",
      "assetIds": []
    },
    {
      "x": 104,
      "y": 193,
      "size": 1,
      "price": "905000000000000000000",
      "reserved": "",
      "assetIds": []
    },
    {
      "x": 104,
      "y": 194,
      "size": 1,
      "price": "905000000000000000000",
      "reserved": "",
      "assetIds": []
    },
    {
      "x": 103,
      "y": 194,
      "size": 1,
      "price": "905000000000000000000",
      "reserved": "",
      "assetIds": []
    },
    {
      "x": 102,
      "y": 194,
      "size": 1,
      "price": "905000000000000000000",
      "reserved": "",
      "assetIds": []
    },
    {
      "x": 102,
      "y": 193,
      "size": 1,
      "price": "905000000000000000000",
      "reserved": "",
      "assetIds": []
    },
    {
      "x": 102,
      "y": 192,
      "size": 1,
      "price": "905000000000000000000",
      "reserved": "",
      "assetIds": []
    },
    {
      "x": 103,
      "y": 193,
      "size": 1,
      "price": "905000000000000000000",
      "reserved": "",
      "assetIds": []
    },
    {
      "x": 91,
      "y": 191,
      "size": 1,
      "price": "905000000000000000000",
      "reserved": "",
      "assetIds": []
    },
    {
      "x": 90,
      "y": 191,
      "size": 1,
      "price": "905000000000000000000",
      "reserved": "",
      "assetIds": []
    },
    {
      "x": 89,
      "y": 191,
      "size": 1,
      "price": "905000000000000000000",
      "reserved": "",
      "assetIds": []
    },
    {
      "x": 83,
      "y": 191,
      "size": 1,
      "price": "905000000000000000000",
      "reserved": "",
      "assetIds": []
    },
    {
      "x": 82,
      "y": 191,
      "size": 1,
      "price": "905000000000000000000",
      "reserved": "",
      "assetIds": []
    },
    {
      "x": 84,
      "y": 191,
      "size": 1,
      "price": "905000000000000000000",
      "reserved": "",
      "assetIds": []
    },
    {
      "x": 85,
      "y": 191,
      "size": 1,
      "price": "905000000000000000000",
      "reserved": "",
      "assetIds": []
    },
    {
      "x": 86,
      "y": 191,
      "size": 1,
      "price": "905000000000000000000",
      "reserved": "",
      "assetIds": []
    },
    {
      "x": 87,
      "y": 191,
      "size": 1,
      "price": "905000000000000000000",
      "reserved": "",
      "assetIds": []
    },
    {
      "x": 88,
      "y": 191,
      "size": 1,
      "price": "905000000000000000000",
      "reserved": "",
      "assetIds": []
    },
    {
      "x": 89,
      "y": 190,
      "size": 1,
      "price": "905000000000000000000",
      "reserved": "",
      "assetIds": []
    },
    {
      "x": 90,
      "y": 190,
      "size": 1,
      "price": "905000000000000000000",
      "reserved": "",
      "assetIds": []
    },
    {
      "x": 88,
      "y": 190,
      "size": 1,
      "price": "905000000000000000000",
      "reserved": "",
      "assetIds": []
    },
    {
      "x": 87,
      "y": 190,
      "size": 1,
      "price": "905000000000000000000",
      "reserved": "",
      "assetIds": []
    },
    {
      "x": 86,
      "y": 190,
      "size": 1,
      "price": "905000000000000000000",
      "reserved": "",
      "assetIds": []
    },
    {
      "x": 85,
      "y": 190,
      "size": 1,
      "price": "905000000000000000000",
      "reserved": "",
      "assetIds": []
    },
    {
      "x": 84,
      "y": 190,
      "size": 1,
      "price": "905000000000000000000",
      "reserved": "",
      "assetIds": []
    },
    {
      "x": 83,
      "y": 190,
      "size": 1,
      "price": "905000000000000000000",
      "reserved": "",
      "assetIds": []
    },
    {
      "x": 82,
      "y": 190,
      "size": 1,
      "price": "905000000000000000000",
      "reserved": "",
      "assetIds": []
    },
    {
      "x": 81,
      "y": 190,
      "size": 1,
      "price": "905000000000000000000",
      "reserved": "",
      "assetIds": []
    },
    {
      "x": 80,
      "y": 190,
      "size": 1,
      "price": "905000000000000000000",
      "reserved": "",
      "assetIds": []
    },
    {
      "x": 79,
      "y": 189,
      "size": 1,
      "price": "905000000000000000000",
      "reserved": "",
      "assetIds": []
    },
    {
      "x": 78,
      "y": 189,
      "size": 1,
      "price": "905000000000000000000",
      "reserved": "",
      "assetIds": []
    },
    {
      "x": 78,
      "y": 190,
      "size": 1,
      "price": "905000000000000000000",
      "reserved": "",
      "assetIds": []
    },
    {
      "x": 79,
      "y": 190,
      "size": 1,
      "price": "905000000000000000000",
      "reserved": "",
      "assetIds": []
    },
    {
      "x": 85,
      "y": 189,
      "size": 1,
      "price": "905000000000000000000",
      "reserved": "",
      "assetIds": []
    },
    {
      "x": 86,
      "y": 189,
      "size": 1,
      "price": "905000000000000000000",
      "reserved": "",
      "assetIds": []
    },
    {
      "x": 87,
      "y": 189,
      "size": 1,
      "price": "905000000000000000000",
      "reserved": "",
      "assetIds": []
    },
    {
      "x": 88,
      "y": 189,
      "size": 1,
      "price": "905000000000000000000",
      "reserved": "",
      "assetIds": []
    },
    {
      "x": 89,
      "y": 189,
      "size": 1,
      "price": "905000000000000000000",
      "reserved": "",
      "assetIds": []
    },
    {
      "x": 90,
      "y": 189,
      "size": 1,
      "price": "905000000000000000000",
      "reserved": "",
      "assetIds": []
    },
    {
      "x": 83,
      "y": 189,
      "size": 1,
      "price": "905000000000000000000",
      "reserved": "",
      "assetIds": []
    },
    {
      "x": 82,
      "y": 189,
      "size": 1,
      "price": "905000000000000000000",
      "reserved": "",
      "assetIds": []
    },
    {
      "x": 81,
      "y": 189,
      "size": 1,
      "price": "905000000000000000000",
      "reserved": "",
      "assetIds": []
    },
    {
      "x": 80,
      "y": 189,
      "size": 1,
      "price": "905000000000000000000",
      "reserved": "",
      "assetIds": []
    },
    {
      "x": 84,
      "y": 189,
      "size": 1,
      "price": "905000000000000000000",
      "reserved": "",
      "assetIds": []
    },
    {
      "x": 82,
      "y": 188,
      "size": 1,
      "price": "905000000000000000000",
      "reserved": "",
      "assetIds": []
    },
    {
      "x": 83,
      "y": 188,
      "size": 1,
      "price": "905000000000000000000",
      "reserved": "",
      "assetIds": []
    },
    {
      "x": 84,
      "y": 188,
      "size": 1,
      "price": "905000000000000000000",
      "reserved": "",
      "assetIds": []
    },
    {
      "x": 85,
      "y": 188,
      "size": 1,
      "price": "905000000000000000000",
      "reserved": "",
      "assetIds": []
    },
    {
      "x": 84,
      "y": 187,
      "size": 1,
      "price": "905000000000000000000",
      "reserved": "",
      "assetIds": []
    },
    {
      "x": 83,
      "y": 186,
      "size": 1,
      "price": "905000000000000000000",
      "reserved": "",
      "assetIds": []
    },
    {
      "x": 82,
      "y": 186,
      "size": 1,
      "price": "905000000000000000000",
      "reserved": "",
      "assetIds": []
    },
    {
      "x": 81,
      "y": 186,
      "size": 1,
      "price": "905000000000000000000",
      "reserved": "",
      "assetIds": []
    },
    {
      "x": 83,
      "y": 187,
      "size": 1,
      "price": "905000000000000000000",
      "reserved": "",
      "assetIds": []
    },
    {
      "x": 78,
      "y": 188,
      "size": 1,
      "price": "905000000000000000000",
      "reserved": "",
      "assetIds": []
    },
    {
      "x": 79,
      "y": 188,
      "size": 1,
      "price": "905000000000000000000",
      "reserved": "",
      "assetIds": []
    },
    {
      "x": 80,
      "y": 188,
      "size": 1,
      "price": "905000000000000000000",
      "reserved": "",
      "assetIds": []
    },
    {
      "x": 81,
      "y": 187,
      "size": 1,
      "price": "905000000000000000000",
      "reserved": "",
      "assetIds": []
    },
    {
      "x": 82,
      "y": 187,
      "size": 1,
      "price": "905000000000000000000",
      "reserved": "",
      "assetIds": []
    },
    {
      "x": 80,
      "y": 187,
      "size": 1,
      "price": "905000000000000000000",
      "reserved": "",
      "assetIds": []
    },
    {
      "x": 77,
      "y": 184,
      "size": 1,
      "price": "905000000000000000000",
      "reserved": "",
      "assetIds": []
    },
    {
      "x": 76,
      "y": 184,
      "size": 1,
      "price": "905000000000000000000",
      "reserved": "",
      "assetIds": []
    },
    {
      "x": 75,
      "y": 183,
      "size": 1,
      "price": "905000000000000000000",
      "reserved": "",
      "assetIds": []
    },
    {
      "x": 76,
      "y": 183,
      "size": 1,
      "price": "905000000000000000000",
      "reserved": "",
      "assetIds": []
    },
    {
      "x": 77,
      "y": 183,
      "size": 1,
      "price": "905000000000000000000",
      "reserved": "",
      "assetIds": []
    },
    {
      "x": 78,
      "y": 186,
      "size": 1,
      "price": "905000000000000000000",
      "reserved": "",
      "assetIds": []
    },
    {
      "x": 79,
      "y": 187,
      "size": 1,
      "price": "905000000000000000000",
      "reserved": "",
      "assetIds": []
    },
    {
      "x": 78,
      "y": 187,
      "size": 1,
      "price": "905000000000000000000",
      "reserved": "",
      "assetIds": []
    },
    {
      "x": 86,
      "y": 188,
      "size": 1,
      "price": "905000000000000000000",
      "reserved": "",
      "assetIds": []
    },
    {
      "x": 79,
      "y": 191,
      "size": 1,
      "price": "905000000000000000000",
      "reserved": "",
      "assetIds": []
    },
    {
      "x": 78,
      "y": 191,
      "size": 1,
      "price": "905000000000000000000",
      "reserved": "",
      "assetIds": []
    },
    {
      "x": 80,
      "y": 191,
      "size": 1,
      "price": "905000000000000000000",
      "reserved": "",
      "assetIds": []
    },
    {
      "x": 81,
      "y": 191,
      "size": 1,
      "price": "905000000000000000000",
      "reserved": "",
      "assetIds": []
    },
    {
      "x": 92,
      "y": 194,
      "size": 1,
      "price": "905000000000000000000",
      "reserved": "",
      "assetIds": []
    },
    {
      "x": 92,
      "y": 193,
      "size": 1,
      "price": "905000000000000000000",
      "reserved": "",
      "assetIds": []
    },
    {
      "x": 93,
      "y": 193,
      "size": 1,
      "price": "905000000000000000000",
      "reserved": "",
      "assetIds": []
    },
    {
      "x": 93,
      "y": 192,
      "size": 1,
      "price": "905000000000000000000",
      "reserved": "",
      "assetIds": []
    },
    {
      "x": 93,
      "y": 191,
      "size": 1,
      "price": "905000000000000000000",
      "reserved": "",
      "assetIds": []
    },
    {
      "x": 95,
      "y": 192,
      "size": 1,
      "price": "905000000000000000000",
      "reserved": "",
      "assetIds": []
    },
    {
      "x": 95,
      "y": 193,
      "size": 1,
      "price": "905000000000000000000",
      "reserved": "",
      "assetIds": []
    },
    {
      "x": 95,
      "y": 194,
      "size": 1,
      "price": "905000000000000000000",
      "reserved": "",
      "assetIds": []
    },
    {
      "x": 95,
      "y": 195,
      "size": 1,
      "price": "905000000000000000000",
      "reserved": "",
      "assetIds": []
    },
    {
      "x": 94,
      "y": 192,
      "size": 1,
      "price": "905000000000000000000",
      "reserved": "",
      "assetIds": []
    },
    {
      "x": 93,
      "y": 194,
      "size": 1,
      "price": "905000000000000000000",
      "reserved": "",
      "assetIds": []
    },
    {
      "x": 93,
      "y": 195,
      "size": 1,
      "price": "905000000000000000000",
      "reserved": "",
      "assetIds": []
    },
    {
      "x": 94,
      "y": 194,
      "size": 1,
      "price": "905000000000000000000",
      "reserved": "",
      "assetIds": []
    },
    {
      "x": 94,
      "y": 193,
      "size": 1,
      "price": "905000000000000000000",
      "reserved": "",
      "assetIds": []
    },
    {
      "x": 94,
      "y": 195,
      "size": 1,
      "price": "905000000000000000000",
      "reserved": "",
      "assetIds": []
    },
    {
      "x": 92,
      "y": 192,
      "size": 1,
      "price": "905000000000000000000",
      "reserved": "",
      "assetIds": []
    },
    {
      "x": 91,
      "y": 192,
      "size": 1,
      "price": "905000000000000000000",
      "reserved": "",
      "assetIds": []
    },
    {
      "x": 91,
      "y": 193,
      "size": 1,
      "price": "905000000000000000000",
      "reserved": "",
      "assetIds": []
    },
    {
      "x": 92,
      "y": 191,
      "size": 1,
      "price": "905000000000000000000",
      "reserved": "",
      "assetIds": []
    },
    {
      "x": 91,
      "y": 194,
      "size": 1,
      "price": "905000000000000000000",
      "reserved": "",
      "assetIds": []
    },
    {
      "x": 90,
      "y": 194,
      "size": 1,
      "price": "905000000000000000000",
      "reserved": "",
      "assetIds": []
    },
    {
      "x": 90,
      "y": 192,
      "size": 1,
      "price": "905000000000000000000",
      "reserved": "",
      "assetIds": []
    },
    {
      "x": 90,
      "y": 193,
      "size": 1,
      "price": "905000000000000000000",
      "reserved": "",
      "assetIds": []
    },
    {
      "x": 90,
      "y": 195,
      "size": 1,
      "price": "905000000000000000000",
      "reserved": "",
      "assetIds": []
    },
    {
      "x": 90,
      "y": 196,
      "size": 1,
      "price": "905000000000000000000",
      "reserved": "",
      "assetIds": []
    },
    {
      "x": 90,
      "y": 197,
      "size": 1,
      "price": "905000000000000000000",
      "reserved": "",
      "assetIds": []
    },
    {
      "x": 91,
      "y": 197,
      "size": 1,
      "price": "905000000000000000000",
      "reserved": "",
      "assetIds": []
    },
    {
      "x": 92,
      "y": 197,
      "size": 1,
      "price": "905000000000000000000",
      "reserved": "",
      "assetIds": []
    },
    {
      "x": 93,
      "y": 197,
      "size": 1,
      "price": "905000000000000000000",
      "reserved": "",
      "assetIds": []
    },
    {
      "x": 94,
      "y": 197,
      "size": 1,
      "price": "905000000000000000000",
      "reserved": "",
      "assetIds": []
    },
    {
      "x": 95,
      "y": 197,
      "size": 1,
      "price": "905000000000000000000",
      "reserved": "",
      "assetIds": []
    },
    {
      "x": 94,
      "y": 196,
      "size": 1,
      "price": "905000000000000000000",
      "reserved": "",
      "assetIds": []
    },
    {
      "x": 93,
      "y": 196,
      "size": 1,
      "price": "905000000000000000000",
      "reserved": "",
      "assetIds": []
    },
    {
      "x": 92,
      "y": 196,
      "size": 1,
      "price": "905000000000000000000",
      "reserved": "",
      "assetIds": []
    },
    {
      "x": 91,
      "y": 196,
      "size": 1,
      "price": "905000000000000000000",
      "reserved": "",
      "assetIds": []
    },
    {
      "x": 91,
      "y": 195,
      "size": 1,
      "price": "905000000000000000000",
      "reserved": "",
      "assetIds": []
    },
    {
      "x": 92,
      "y": 195,
      "size": 1,
      "price": "905000000000000000000",
      "reserved": "",
      "assetIds": []
    },
    {
      "x": 95,
      "y": 196,
      "size": 1,
      "price": "905000000000000000000",
      "reserved": "",
      "assetIds": []
    },
    {
      "x": 75,
      "y": 171,
      "size": 1,
      "price": "905000000000000000000",
      "reserved": "",
      "assetIds": []
    },
    {
      "x": 75,
      "y": 170,
      "size": 1,
      "price": "905000000000000000000",
      "reserved": "",
      "assetIds": []
    },
    {
      "x": 75,
      "y": 169,
      "size": 1,
      "price": "905000000000000000000",
      "reserved": "",
      "assetIds": []
    },
    {
      "x": 75,
      "y": 168,
      "size": 1,
      "price": "905000000000000000000",
      "reserved": "",
      "assetIds": []
    },
    {
      "x": 74,
      "y": 168,
      "size": 1,
      "price": "905000000000000000000",
      "reserved": "",
      "assetIds": []
    },
    {
      "x": 74,
      "y": 169,
      "size": 1,
      "price": "905000000000000000000",
      "reserved": "",
      "assetIds": []
    },
    {
      "x": 74,
      "y": 170,
      "size": 1,
      "price": "905000000000000000000",
      "reserved": "",
      "assetIds": []
    },
    {
      "x": 73,
      "y": 170,
      "size": 1,
      "price": "905000000000000000000",
      "reserved": "",
      "assetIds": []
    },
    {
      "x": 73,
      "y": 168,
      "size": 1,
      "price": "905000000000000000000",
      "reserved": "",
      "assetIds": []
    },
    {
      "x": 76,
      "y": 155,
      "size": 1,
      "price": "905000000000000000000",
      "reserved": "",
      "assetIds": []
    },
    {
      "x": 76,
      "y": 153,
      "size": 1,
      "price": "905000000000000000000",
      "reserved": "",
      "assetIds": []
    },
    {
      "x": 74,
      "y": 153,
      "size": 1,
      "price": "905000000000000000000",
      "reserved": "",
      "assetIds": []
    },
    {
      "x": 74,
      "y": 155,
      "size": 1,
      "price": "905000000000000000000",
      "reserved": "",
      "assetIds": []
    },
    {
      "x": 73,
      "y": 160,
      "size": 1,
      "price": "905000000000000000000",
      "reserved": "",
      "assetIds": []
    },
    {
      "x": 73,
      "y": 161,
      "size": 1,
      "price": "905000000000000000000",
      "reserved": "",
      "assetIds": []
    },
    {
      "x": 72,
      "y": 161,
      "size": 1,
      "price": "905000000000000000000",
      "reserved": "",
      "assetIds": []
    },
    {
      "x": 72,
      "y": 160,
      "size": 1,
      "price": "905000000000000000000",
      "reserved": "",
      "assetIds": []
    },
    {
      "x": 72,
      "y": 159,
      "size": 1,
      "price": "905000000000000000000",
      "reserved": "",
      "assetIds": []
    },
    {
      "x": 73,
      "y": 155,
      "size": 1,
      "price": "905000000000000000000",
      "reserved": "",
      "assetIds": []
    },
    {
      "x": 74,
      "y": 154,
      "size": 1,
      "price": "905000000000000000000",
      "reserved": "",
      "assetIds": []
    },
    {
      "x": 74,
      "y": 152,
      "size": 1,
      "price": "905000000000000000000",
      "reserved": "",
      "assetIds": []
    },
    {
      "x": 73,
      "y": 153,
      "size": 1,
      "price": "905000000000000000000",
      "reserved": "",
      "assetIds": []
    },
    {
      "x": 72,
      "y": 153,
      "size": 1,
      "price": "905000000000000000000",
      "reserved": "",
      "assetIds": []
    },
    {
      "x": 71,
      "y": 152,
      "size": 1,
      "price": "905000000000000000000",
      "reserved": "",
      "assetIds": []
    },
    {
      "x": 71,
      "y": 151,
      "size": 1,
      "price": "905000000000000000000",
      "reserved": "",
      "assetIds": []
    },
    {
      "x": 72,
      "y": 152,
      "size": 1,
      "price": "905000000000000000000",
      "reserved": "",
      "assetIds": []
    },
    {
      "x": 73,
      "y": 154,
      "size": 1,
      "price": "905000000000000000000",
      "reserved": "",
      "assetIds": []
    },
    {
      "x": 72,
      "y": 151,
      "size": 1,
      "price": "905000000000000000000",
      "reserved": "",
      "assetIds": []
    },
    {
      "x": 73,
      "y": 152,
      "size": 1,
      "price": "905000000000000000000",
      "reserved": "",
      "assetIds": []
    },
    {
      "x": 72,
      "y": 155,
      "size": 1,
      "price": "905000000000000000000",
      "reserved": "",
      "assetIds": []
    },
    {
      "x": 72,
      "y": 154,
      "size": 1,
      "price": "905000000000000000000",
      "reserved": "",
      "assetIds": []
    },
    {
      "x": 71,
      "y": 155,
      "size": 1,
      "price": "905000000000000000000",
      "reserved": "",
      "assetIds": []
    },
    {
      "x": 71,
      "y": 154,
      "size": 1,
      "price": "905000000000000000000",
      "reserved": "",
      "assetIds": []
    },
    {
      "x": 71,
      "y": 153,
      "size": 1,
      "price": "905000000000000000000",
      "reserved": "",
      "assetIds": []
    },
    {
      "x": 71,
      "y": 150,
      "size": 1,
      "price": "905000000000000000000",
      "reserved": "",
      "assetIds": []
    },
    {
      "x": 70,
      "y": 153,
      "size": 1,
      "price": "905000000000000000000",
      "reserved": "",
      "assetIds": []
    },
    {
      "x": 70,
      "y": 152,
      "size": 1,
      "price": "905000000000000000000",
      "reserved": "",
      "assetIds": []
    },
    {
      "x": 70,
      "y": 151,
      "size": 1,
      "price": "905000000000000000000",
      "reserved": "",
      "assetIds": []
    },
    {
      "x": 70,
      "y": 150,
      "size": 1,
      "price": "905000000000000000000",
      "reserved": "",
      "assetIds": []
    },
    {
      "x": 70,
      "y": 154,
      "size": 1,
      "price": "905000000000000000000",
      "reserved": "",
      "assetIds": []
    },
    {
      "x": 70,
      "y": 155,
      "size": 1,
      "price": "905000000000000000000",
      "reserved": "",
      "assetIds": []
    },
    {
      "x": 69,
      "y": 153,
      "size": 1,
      "price": "905000000000000000000",
      "reserved": "",
      "assetIds": []
    },
    {
      "x": 69,
      "y": 152,
      "size": 1,
      "price": "905000000000000000000",
      "reserved": "",
      "assetIds": []
    },
    {
      "x": 69,
      "y": 151,
      "size": 1,
      "price": "905000000000000000000",
      "reserved": "",
      "assetIds": []
    },
    {
      "x": 69,
      "y": 150,
      "size": 1,
      "price": "905000000000000000000",
      "reserved": "",
      "assetIds": []
    },
    {
      "x": 69,
      "y": 154,
      "size": 1,
      "price": "905000000000000000000",
      "reserved": "",
      "assetIds": []
    },
    {
      "x": 68,
      "y": 152,
      "size": 1,
      "price": "905000000000000000000",
      "reserved": "",
      "assetIds": []
    },
    {
      "x": 68,
      "y": 151,
      "size": 1,
      "price": "905000000000000000000",
      "reserved": "",
      "assetIds": []
    },
    {
      "x": 69,
      "y": 155,
      "size": 1,
      "price": "905000000000000000000",
      "reserved": "",
      "assetIds": []
    },
    {
      "x": 68,
      "y": 154,
      "size": 1,
      "price": "905000000000000000000",
      "reserved": "",
      "assetIds": []
    },
    {
      "x": 68,
      "y": 153,
      "size": 1,
      "price": "905000000000000000000",
      "reserved": "",
      "assetIds": []
    },
    {
      "x": 67,
      "y": 154,
      "size": 1,
      "price": "905000000000000000000",
      "reserved": "",
      "assetIds": []
    },
    {
      "x": 67,
      "y": 153,
      "size": 1,
      "price": "905000000000000000000",
      "reserved": "",
      "assetIds": []
    },
    {
      "x": 67,
      "y": 152,
      "size": 1,
      "price": "905000000000000000000",
      "reserved": "",
      "assetIds": []
    },
    {
      "x": 67,
      "y": 151,
      "size": 1,
      "price": "905000000000000000000",
      "reserved": "",
      "assetIds": []
    },
    {
      "x": 68,
      "y": 155,
      "size": 1,
      "price": "905000000000000000000",
      "reserved": "",
      "assetIds": []
    },
    {
      "x": 67,
      "y": 155,
      "size": 1,
      "price": "905000000000000000000",
      "reserved": "",
      "assetIds": []
    },
    {
      "x": 66,
      "y": 155,
      "size": 1,
      "price": "905000000000000000000",
      "reserved": "",
      "assetIds": []
    },
    {
      "x": 66,
      "y": 154,
      "size": 1,
      "price": "905000000000000000000",
      "reserved": "",
      "assetIds": []
    },
    {
      "x": 66,
      "y": 153,
      "size": 1,
      "price": "905000000000000000000",
      "reserved": "",
      "assetIds": []
    },
    {
      "x": 66,
      "y": 151,
      "size": 1,
      "price": "905000000000000000000",
      "reserved": "",
      "assetIds": []
    },
    {
      "x": 66,
      "y": 150,
      "size": 1,
      "price": "905000000000000000000",
      "reserved": "",
      "assetIds": []
    },
    {
      "x": 77,
      "y": 155,
      "size": 1,
      "price": "905000000000000000000",
      "reserved": "",
      "assetIds": []
    },
    {
      "x": 75,
      "y": 155,
      "size": 1,
      "price": "905000000000000000000",
      "reserved": "",
      "assetIds": []
    },
    {
      "x": 75,
      "y": 153,
      "size": 1,
      "price": "905000000000000000000",
      "reserved": "",
      "assetIds": []
    },
    {
      "x": 77,
      "y": 153,
      "size": 1,
      "price": "905000000000000000000",
      "reserved": "",
      "assetIds": []
    },
    {
      "x": 77,
      "y": 154,
      "size": 1,
      "price": "905000000000000000000",
      "reserved": "",
      "assetIds": []
    },
    {
      "x": 76,
      "y": 154,
      "size": 1,
      "price": "905000000000000000000",
      "reserved": "",
      "assetIds": []
    },
    {
      "x": 75,
      "y": 154,
      "size": 1,
      "price": "905000000000000000000",
      "reserved": "",
      "assetIds": []
    },
    {
      "x": 69,
      "y": 162,
      "size": 1,
      "price": "905000000000000000000",
      "reserved": "",
      "assetIds": []
    },
    {
      "x": 69,
      "y": 163,
      "size": 1,
      "price": "905000000000000000000",
      "reserved": "",
      "assetIds": []
    },
    {
      "x": 70,
      "y": 163,
      "size": 1,
      "price": "905000000000000000000",
      "reserved": "",
      "assetIds": []
    },
    {
      "x": 71,
      "y": 163,
      "size": 1,
      "price": "905000000000000000000",
      "reserved": "",
      "assetIds": []
    },
    {
      "x": 73,
      "y": 159,
      "size": 1,
      "price": "905000000000000000000",
      "reserved": "",
      "assetIds": []
    },
    {
      "x": 74,
      "y": 161,
      "size": 1,
      "price": "905000000000000000000",
      "reserved": "",
      "assetIds": []
    },
    {
      "x": 74,
      "y": 160,
      "size": 1,
      "price": "905000000000000000000",
      "reserved": "",
      "assetIds": []
    },
    {
      "x": 74,
      "y": 159,
      "size": 1,
      "price": "905000000000000000000",
      "reserved": "",
      "assetIds": []
    },
    {
      "x": 71,
      "y": 162,
      "size": 1,
      "price": "905000000000000000000",
      "reserved": "",
      "assetIds": []
    },
    {
      "x": 70,
      "y": 164,
      "size": 1,
      "price": "905000000000000000000",
      "reserved": "",
      "assetIds": []
    },
    {
      "x": 69,
      "y": 164,
      "size": 1,
      "price": "905000000000000000000",
      "reserved": "",
      "assetIds": []
    },
    {
      "x": 68,
      "y": 164,
      "size": 1,
      "price": "905000000000000000000",
      "reserved": "",
      "assetIds": []
    },
    {
      "x": 68,
      "y": 163,
      "size": 1,
      "price": "905000000000000000000",
      "reserved": "",
      "assetIds": []
    },
    {
      "x": 67,
      "y": 163,
      "size": 1,
      "price": "905000000000000000000",
      "reserved": "",
      "assetIds": []
    },
    {
      "x": 70,
      "y": 162,
      "size": 1,
      "price": "905000000000000000000",
      "reserved": "",
      "assetIds": []
    },
    {
      "x": 68,
      "y": 162,
      "size": 1,
      "price": "905000000000000000000",
      "reserved": "",
      "assetIds": []
    },
    {
      "x": 67,
      "y": 164,
      "size": 1,
      "price": "905000000000000000000",
      "reserved": "",
      "assetIds": []
    },
    {
      "x": 67,
      "y": 162,
      "size": 1,
      "price": "905000000000000000000",
      "reserved": "",
      "assetIds": []
    },
    {
      "x": 66,
      "y": 162,
      "size": 1,
      "price": "905000000000000000000",
      "reserved": "",
      "assetIds": []
    },
    {
      "x": 66,
      "y": 163,
      "size": 1,
      "price": "905000000000000000000",
      "reserved": "",
      "assetIds": []
    },
    {
      "x": 66,
      "y": 165,
      "size": 1,
      "price": "905000000000000000000",
      "reserved": "",
      "assetIds": []
    },
    {
      "x": 66,
      "y": 166,
      "size": 1,
      "price": "905000000000000000000",
      "reserved": "",
      "assetIds": []
    },
    {
      "x": 67,
      "y": 166,
      "size": 1,
      "price": "905000000000000000000",
      "reserved": "",
      "assetIds": []
    },
    {
      "x": 67,
      "y": 165,
      "size": 1,
      "price": "905000000000000000000",
      "reserved": "",
      "assetIds": []
    },
    {
      "x": 71,
      "y": 164,
      "size": 1,
      "price": "905000000000000000000",
      "reserved": "",
      "assetIds": []
    },
    {
      "x": 66,
      "y": 164,
      "size": 1,
      "price": "905000000000000000000",
      "reserved": "",
      "assetIds": []
    },
    {
      "x": 66,
      "y": 167,
      "size": 1,
      "price": "905000000000000000000",
      "reserved": "",
      "assetIds": []
    },
    {
      "x": 67,
      "y": 169,
      "size": 1,
      "price": "905000000000000000000",
      "reserved": "",
      "assetIds": []
    },
    {
      "x": 67,
      "y": 170,
      "size": 1,
      "price": "905000000000000000000",
      "reserved": "",
      "assetIds": []
    },
    {
      "x": 67,
      "y": 171,
      "size": 1,
      "price": "905000000000000000000",
      "reserved": "",
      "assetIds": []
    },
    {
      "x": 67,
      "y": 172,
      "size": 1,
      "price": "905000000000000000000",
      "reserved": "",
      "assetIds": []
    },
    {
      "x": 67,
      "y": 173,
      "size": 1,
      "price": "905000000000000000000",
      "reserved": "",
      "assetIds": []
    },
    {
      "x": 67,
      "y": 167,
      "size": 1,
      "price": "905000000000000000000",
      "reserved": "",
      "assetIds": []
    },
    {
      "x": 68,
      "y": 166,
      "size": 1,
      "price": "905000000000000000000",
      "reserved": "",
      "assetIds": []
    },
    {
      "x": 68,
      "y": 168,
      "size": 1,
      "price": "905000000000000000000",
      "reserved": "",
      "assetIds": []
    },
    {
      "x": 68,
      "y": 169,
      "size": 1,
      "price": "905000000000000000000",
      "reserved": "",
      "assetIds": []
    },
    {
      "x": 68,
      "y": 170,
      "size": 1,
      "price": "905000000000000000000",
      "reserved": "",
      "assetIds": []
    },
    {
      "x": 68,
      "y": 167,
      "size": 1,
      "price": "905000000000000000000",
      "reserved": "",
      "assetIds": []
    },
    {
      "x": 68,
      "y": 165,
      "size": 1,
      "price": "905000000000000000000",
      "reserved": "",
      "assetIds": []
    },
    {
      "x": 68,
      "y": 171,
      "size": 1,
      "price": "905000000000000000000",
      "reserved": "",
      "assetIds": []
    },
    {
      "x": 67,
      "y": 168,
      "size": 1,
      "price": "905000000000000000000",
      "reserved": "",
      "assetIds": []
    },
    {
      "x": 67,
      "y": 174,
      "size": 1,
      "price": "905000000000000000000",
      "reserved": "",
      "assetIds": []
    },
    {
      "x": 67,
      "y": 175,
      "size": 1,
      "price": "905000000000000000000",
      "reserved": "",
      "assetIds": []
    },
    {
      "x": 66,
      "y": 175,
      "size": 1,
      "price": "905000000000000000000",
      "reserved": "",
      "assetIds": []
    },
    {
      "x": 66,
      "y": 174,
      "size": 1,
      "price": "905000000000000000000",
      "reserved": "",
      "assetIds": []
    },
    {
      "x": 66,
      "y": 173,
      "size": 1,
      "price": "905000000000000000000",
      "reserved": "",
      "assetIds": []
    },
    {
      "x": 66,
      "y": 170,
      "size": 1,
      "price": "905000000000000000000",
      "reserved": "",
      "assetIds": []
    },
    {
      "x": 66,
      "y": 169,
      "size": 1,
      "price": "905000000000000000000",
      "reserved": "",
      "assetIds": []
    },
    {
      "x": 66,
      "y": 172,
      "size": 1,
      "price": "905000000000000000000",
      "reserved": "",
      "assetIds": []
    },
    {
      "x": 66,
      "y": 171,
      "size": 1,
      "price": "905000000000000000000",
      "reserved": "",
      "assetIds": []
    },
    {
      "x": 69,
      "y": 169,
      "size": 1,
      "price": "905000000000000000000",
      "reserved": "",
      "assetIds": []
    },
    {
      "x": 70,
      "y": 169,
      "size": 1,
      "price": "905000000000000000000",
      "reserved": "",
      "assetIds": []
    },
    {
      "x": 71,
      "y": 169,
      "size": 1,
      "price": "905000000000000000000",
      "reserved": "",
      "assetIds": []
    },
    {
      "x": 72,
      "y": 169,
      "size": 1,
      "price": "905000000000000000000",
      "reserved": "",
      "assetIds": []
    },
    {
      "x": 69,
      "y": 168,
      "size": 1,
      "price": "905000000000000000000",
      "reserved": "",
      "assetIds": []
    },
    {
      "x": 70,
      "y": 168,
      "size": 1,
      "price": "905000000000000000000",
      "reserved": "",
      "assetIds": []
    },
    {
      "x": 71,
      "y": 168,
      "size": 1,
      "price": "905000000000000000000",
      "reserved": "",
      "assetIds": []
    },
    {
      "x": 73,
      "y": 169,
      "size": 1,
      "price": "905000000000000000000",
      "reserved": "",
      "assetIds": []
    },
    {
      "x": 76,
      "y": 169,
      "size": 1,
      "price": "905000000000000000000",
      "reserved": "",
      "assetIds": []
    },
    {
      "x": 77,
      "y": 168,
      "size": 1,
      "price": "905000000000000000000",
      "reserved": "",
      "assetIds": []
    },
    {
      "x": 77,
      "y": 169,
      "size": 1,
      "price": "905000000000000000000",
      "reserved": "",
      "assetIds": []
    },
    {
      "x": 77,
      "y": 170,
      "size": 1,
      "price": "905000000000000000000",
      "reserved": "",
      "assetIds": []
    },
    {
      "x": 76,
      "y": 168,
      "size": 1,
      "price": "905000000000000000000",
      "reserved": "",
      "assetIds": []
    },
    {
      "x": 76,
      "y": 170,
      "size": 1,
      "price": "905000000000000000000",
      "reserved": "",
      "assetIds": []
    },
    {
      "x": 75,
      "y": 172,
      "size": 1,
      "price": "905000000000000000000",
      "reserved": "",
      "assetIds": []
    },
    {
      "x": 75,
      "y": 173,
      "size": 1,
      "price": "905000000000000000000",
      "reserved": "",
      "assetIds": []
    },
    {
      "x": 75,
      "y": 174,
      "size": 1,
      "price": "905000000000000000000",
      "reserved": "",
      "assetIds": []
    },
    {
      "x": 76,
      "y": 174,
      "size": 1,
      "price": "905000000000000000000",
      "reserved": "",
      "assetIds": []
    },
    {
      "x": 76,
      "y": 173,
      "size": 1,
      "price": "905000000000000000000",
      "reserved": "",
      "assetIds": []
    },
    {
      "x": 76,
      "y": 172,
      "size": 1,
      "price": "905000000000000000000",
      "reserved": "",
      "assetIds": []
    },
    {
      "x": 76,
      "y": 171,
      "size": 1,
      "price": "905000000000000000000",
      "reserved": "",
      "assetIds": []
    },
    {
      "x": 76,
      "y": 179,
      "size": 1,
      "price": "905000000000000000000",
      "reserved": "",
      "assetIds": []
    },
    {
      "x": 76,
      "y": 180,
      "size": 1,
      "price": "905000000000000000000",
      "reserved": "",
      "assetIds": []
    },
    {
      "x": 76,
      "y": 181,
      "size": 1,
      "price": "905000000000000000000",
      "reserved": "",
      "assetIds": []
    },
    {
      "x": 76,
      "y": 182,
      "size": 1,
      "price": "905000000000000000000",
      "reserved": "",
      "assetIds": []
    },
    {
      "x": 75,
      "y": 179,
      "size": 1,
      "price": "905000000000000000000",
      "reserved": "",
      "assetIds": []
    },
    {
      "x": 75,
      "y": 178,
      "size": 1,
      "price": "905000000000000000000",
      "reserved": "",
      "assetIds": []
    },
    {
      "x": 75,
      "y": 177,
      "size": 1,
      "price": "905000000000000000000",
      "reserved": "",
      "assetIds": []
    },
    {
      "x": 75,
      "y": 176,
      "size": 1,
      "price": "905000000000000000000",
      "reserved": "",
      "assetIds": []
    },
    {
      "x": 75,
      "y": 175,
      "size": 1,
      "price": "905000000000000000000",
      "reserved": "",
      "assetIds": []
    },
    {
      "x": 75,
      "y": 180,
      "size": 1,
      "price": "905000000000000000000",
      "reserved": "",
      "assetIds": []
    },
    {
      "x": 75,
      "y": 181,
      "size": 1,
      "price": "905000000000000000000",
      "reserved": "",
      "assetIds": []
    },
    {
      "x": 75,
      "y": 182,
      "size": 1,
      "price": "905000000000000000000",
      "reserved": "",
      "assetIds": []
    },
    {
      "x": 77,
      "y": 182,
      "size": 1,
      "price": "905000000000000000000",
      "reserved": "",
      "assetIds": []
    },
    {
      "x": 74,
      "y": 180,
      "size": 1,
      "price": "905000000000000000000",
      "reserved": "",
      "assetIds": []
    },
    {
      "x": 73,
      "y": 180,
      "size": 1,
      "price": "905000000000000000000",
      "reserved": "",
      "assetIds": []
    },
    {
      "x": 73,
      "y": 181,
      "size": 1,
      "price": "905000000000000000000",
      "reserved": "",
      "assetIds": []
    },
    {
      "x": 73,
      "y": 182,
      "size": 1,
      "price": "905000000000000000000",
      "reserved": "",
      "assetIds": []
    },
    {
      "x": 72,
      "y": 182,
      "size": 1,
      "price": "905000000000000000000",
      "reserved": "",
      "assetIds": []
    },
    {
      "x": 72,
      "y": 181,
      "size": 1,
      "price": "905000000000000000000",
      "reserved": "",
      "assetIds": []
    },
    {
      "x": 74,
      "y": 181,
      "size": 1,
      "price": "905000000000000000000",
      "reserved": "",
      "assetIds": []
    },
    {
      "x": 74,
      "y": 182,
      "size": 1,
      "price": "905000000000000000000",
      "reserved": "",
      "assetIds": []
    },
    {
      "x": 77,
      "y": 185,
      "size": 1,
      "price": "905000000000000000000",
      "reserved": "",
      "assetIds": []
    },
    {
      "x": 76,
      "y": 185,
      "size": 1,
      "price": "905000000000000000000",
      "reserved": "",
      "assetIds": []
    },
    {
      "x": 75,
      "y": 185,
      "size": 1,
      "price": "905000000000000000000",
      "reserved": "",
      "assetIds": []
    },
    {
      "x": 75,
      "y": 184,
      "size": 1,
      "price": "905000000000000000000",
      "reserved": "",
      "assetIds": []
    },
    {
      "x": 61,
      "y": 161,
      "size": 1,
      "price": "905000000000000000000",
      "reserved": "",
      "assetIds": []
    },
    {
      "x": 61,
      "y": 160,
      "size": 1,
      "price": "905000000000000000000",
      "reserved": "",
      "assetIds": []
    },
    {
      "x": 61,
      "y": 159,
      "size": 1,
      "price": "905000000000000000000",
      "reserved": "",
      "assetIds": []
    },
    {
      "x": 60,
      "y": 158,
      "size": 1,
      "price": "905000000000000000000",
      "reserved": "",
      "assetIds": []
    },
    {
      "x": 60,
      "y": 157,
      "size": 1,
      "price": "905000000000000000000",
      "reserved": "",
      "assetIds": []
    },
    {
      "x": 60,
      "y": 156,
      "size": 1,
      "price": "905000000000000000000",
      "reserved": "",
      "assetIds": []
    },
    {
      "x": 61,
      "y": 156,
      "size": 1,
      "price": "905000000000000000000",
      "reserved": "",
      "assetIds": []
    },
    {
      "x": 62,
      "y": 157,
      "size": 1,
      "price": "905000000000000000000",
      "reserved": "",
      "assetIds": []
    },
    {
      "x": 62,
      "y": 158,
      "size": 1,
      "price": "905000000000000000000",
      "reserved": "",
      "assetIds": []
    },
    {
      "x": 62,
      "y": 159,
      "size": 1,
      "price": "905000000000000000000",
      "reserved": "",
      "assetIds": []
    },
    {
      "x": 62,
      "y": 160,
      "size": 1,
      "price": "905000000000000000000",
      "reserved": "",
      "assetIds": []
    },
    {
      "x": 62,
      "y": 161,
      "size": 1,
      "price": "905000000000000000000",
      "reserved": "",
      "assetIds": []
    },
    {
      "x": 61,
      "y": 157,
      "size": 1,
      "price": "905000000000000000000",
      "reserved": "",
      "assetIds": []
    },
    {
      "x": 62,
      "y": 156,
      "size": 1,
      "price": "905000000000000000000",
      "reserved": "",
      "assetIds": []
    },
    {
      "x": 61,
      "y": 158,
      "size": 1,
      "price": "905000000000000000000",
      "reserved": "",
      "assetIds": []
    },
    {
      "x": 60,
      "y": 160,
      "size": 1,
      "price": "905000000000000000000",
      "reserved": "",
      "assetIds": []
    },
    {
      "x": 60,
      "y": 159,
      "size": 1,
      "price": "905000000000000000000",
      "reserved": "",
      "assetIds": []
    },
    {
      "x": 60,
      "y": 161,
      "size": 1,
      "price": "905000000000000000000",
      "reserved": "",
      "assetIds": []
    },
    {
      "x": 63,
      "y": 161,
      "size": 1,
      "price": "905000000000000000000",
      "reserved": "",
      "assetIds": []
    },
    {
      "x": 64,
      "y": 161,
      "size": 1,
      "price": "905000000000000000000",
      "reserved": "",
      "assetIds": []
    },
    {
      "x": 65,
      "y": 161,
      "size": 1,
      "price": "905000000000000000000",
      "reserved": "",
      "assetIds": []
    },
    {
      "x": 64,
      "y": 160,
      "size": 1,
      "price": "905000000000000000000",
      "reserved": "",
      "assetIds": []
    },
    {
      "x": 64,
      "y": 159,
      "size": 1,
      "price": "905000000000000000000",
      "reserved": "",
      "assetIds": []
    },
    {
      "x": 64,
      "y": 158,
      "size": 1,
      "price": "905000000000000000000",
      "reserved": "",
      "assetIds": []
    },
    {
      "x": 65,
      "y": 158,
      "size": 1,
      "price": "905000000000000000000",
      "reserved": "",
      "assetIds": []
    },
    {
      "x": 65,
      "y": 157,
      "size": 1,
      "price": "905000000000000000000",
      "reserved": "",
      "assetIds": []
    },
    {
      "x": 65,
      "y": 156,
      "size": 1,
      "price": "905000000000000000000",
      "reserved": "",
      "assetIds": []
    },
    {
      "x": 65,
      "y": 159,
      "size": 1,
      "price": "905000000000000000000",
      "reserved": "",
      "assetIds": []
    },
    {
      "x": 65,
      "y": 160,
      "size": 1,
      "price": "905000000000000000000",
      "reserved": "",
      "assetIds": []
    },
    {
      "x": 64,
      "y": 157,
      "size": 1,
      "price": "905000000000000000000",
      "reserved": "",
      "assetIds": []
    },
    {
      "x": 64,
      "y": 156,
      "size": 1,
      "price": "905000000000000000000",
      "reserved": "",
      "assetIds": []
    },
    {
      "x": 63,
      "y": 158,
      "size": 1,
      "price": "905000000000000000000",
      "reserved": "",
      "assetIds": []
    },
    {
      "x": 63,
      "y": 157,
      "size": 1,
      "price": "905000000000000000000",
      "reserved": "",
      "assetIds": []
    },
    {
      "x": 63,
      "y": 156,
      "size": 1,
      "price": "905000000000000000000",
      "reserved": "",
      "assetIds": []
    },
    {
      "x": 63,
      "y": 160,
      "size": 1,
      "price": "905000000000000000000",
      "reserved": "",
      "assetIds": []
    },
    {
      "x": 63,
      "y": 159,
      "size": 1,
      "price": "905000000000000000000",
      "reserved": "",
      "assetIds": []
    },
    {
      "x": 69,
      "y": 170,
      "size": 1,
      "price": "905000000000000000000",
      "reserved": "",
      "assetIds": []
    },
    {
      "x": 70,
      "y": 170,
      "size": 1,
      "price": "905000000000000000000",
      "reserved": "",
      "assetIds": []
    },
    {
      "x": 71,
      "y": 170,
      "size": 1,
      "price": "905000000000000000000",
      "reserved": "",
      "assetIds": []
    },
    {
      "x": 72,
      "y": 170,
      "size": 1,
      "price": "905000000000000000000",
      "reserved": "",
      "assetIds": []
    },
    {
      "x": 71,
      "y": 171,
      "size": 1,
      "price": "905000000000000000000",
      "reserved": "",
      "assetIds": []
    },
    {
      "x": 71,
      "y": 172,
      "size": 1,
      "price": "905000000000000000000",
      "reserved": "",
      "assetIds": []
    },
    {
      "x": 70,
      "y": 172,
      "size": 1,
      "price": "905000000000000000000",
      "reserved": "",
      "assetIds": []
    },
    {
      "x": 69,
      "y": 172,
      "size": 1,
      "price": "905000000000000000000",
      "reserved": "",
      "assetIds": []
    },
    {
      "x": 68,
      "y": 172,
      "size": 1,
      "price": "905000000000000000000",
      "reserved": "",
      "assetIds": []
    },
    {
      "x": 70,
      "y": 173,
      "size": 1,
      "price": "905000000000000000000",
      "reserved": "",
      "assetIds": []
    },
    {
      "x": 71,
      "y": 173,
      "size": 1,
      "price": "905000000000000000000",
      "reserved": "",
      "assetIds": []
    },
    {
      "x": 70,
      "y": 171,
      "size": 1,
      "price": "905000000000000000000",
      "reserved": "",
      "assetIds": []
    },
    {
      "x": 70,
      "y": 174,
      "size": 1,
      "price": "905000000000000000000",
      "reserved": "",
      "assetIds": []
    },
    {
      "x": 69,
      "y": 174,
      "size": 1,
      "price": "905000000000000000000",
      "reserved": "",
      "assetIds": []
    },
    {
      "x": 68,
      "y": 174,
      "size": 1,
      "price": "905000000000000000000",
      "reserved": "",
      "assetIds": []
    },
    {
      "x": 67,
      "y": 176,
      "size": 1,
      "price": "905000000000000000000",
      "reserved": "",
      "assetIds": []
    },
    {
      "x": 67,
      "y": 177,
      "size": 1,
      "price": "905000000000000000000",
      "reserved": "",
      "assetIds": []
    },
    {
      "x": 67,
      "y": 178,
      "size": 1,
      "price": "905000000000000000000",
      "reserved": "",
      "assetIds": []
    },
    {
      "x": 67,
      "y": 179,
      "size": 1,
      "price": "905000000000000000000",
      "reserved": "",
      "assetIds": []
    },
    {
      "x": 67,
      "y": 180,
      "size": 1,
      "price": "905000000000000000000",
      "reserved": "",
      "assetIds": []
    },
    {
      "x": 67,
      "y": 181,
      "size": 1,
      "price": "905000000000000000000",
      "reserved": "",
      "assetIds": []
    },
    {
      "x": 68,
      "y": 180,
      "size": 1,
      "price": "905000000000000000000",
      "reserved": "",
      "assetIds": []
    },
    {
      "x": 68,
      "y": 179,
      "size": 1,
      "price": "905000000000000000000",
      "reserved": "",
      "assetIds": []
    },
    {
      "x": 68,
      "y": 178,
      "size": 1,
      "price": "905000000000000000000",
      "reserved": "",
      "assetIds": []
    },
    {
      "x": 68,
      "y": 177,
      "size": 1,
      "price": "905000000000000000000",
      "reserved": "",
      "assetIds": []
    },
    {
      "x": 69,
      "y": 176,
      "size": 1,
      "price": "905000000000000000000",
      "reserved": "",
      "assetIds": []
    },
    {
      "x": 69,
      "y": 175,
      "size": 1,
      "price": "905000000000000000000",
      "reserved": "",
      "assetIds": []
    },
    {
      "x": 70,
      "y": 175,
      "size": 1,
      "price": "905000000000000000000",
      "reserved": "",
      "assetIds": []
    },
    {
      "x": 70,
      "y": 176,
      "size": 1,
      "price": "905000000000000000000",
      "reserved": "",
      "assetIds": []
    },
    {
      "x": 70,
      "y": 177,
      "size": 1,
      "price": "905000000000000000000",
      "reserved": "",
      "assetIds": []
    },
    {
      "x": 70,
      "y": 178,
      "size": 1,
      "price": "905000000000000000000",
      "reserved": "",
      "assetIds": []
    },
    {
      "x": 70,
      "y": 179,
      "size": 1,
      "price": "905000000000000000000",
      "reserved": "",
      "assetIds": []
    },
    {
      "x": 69,
      "y": 179,
      "size": 1,
      "price": "905000000000000000000",
      "reserved": "",
      "assetIds": []
    },
    {
      "x": 69,
      "y": 178,
      "size": 1,
      "price": "905000000000000000000",
      "reserved": "",
      "assetIds": []
    },
    {
      "x": 68,
      "y": 176,
      "size": 1,
      "price": "905000000000000000000",
      "reserved": "",
      "assetIds": []
    },
    {
      "x": 68,
      "y": 175,
      "size": 1,
      "price": "905000000000000000000",
      "reserved": "",
      "assetIds": []
    },
    {
      "x": 69,
      "y": 177,
      "size": 1,
      "price": "905000000000000000000",
      "reserved": "",
      "assetIds": []
    },
    {
      "x": 71,
      "y": 179,
      "size": 1,
      "price": "905000000000000000000",
      "reserved": "",
      "assetIds": []
    },
    {
      "x": 71,
      "y": 178,
      "size": 1,
      "price": "905000000000000000000",
      "reserved": "",
      "assetIds": []
    },
    {
      "x": 71,
      "y": 177,
      "size": 1,
      "price": "905000000000000000000",
      "reserved": "",
      "assetIds": []
    },
    {
      "x": 71,
      "y": 176,
      "size": 1,
      "price": "905000000000000000000",
      "reserved": "",
      "assetIds": []
    },
    {
      "x": 71,
      "y": 175,
      "size": 1,
      "price": "905000000000000000000",
      "reserved": "",
      "assetIds": []
    },
    {
      "x": 71,
      "y": 174,
      "size": 1,
      "price": "905000000000000000000",
      "reserved": "",
      "assetIds": []
    },
    {
      "x": 68,
      "y": 173,
      "size": 1,
      "price": "905000000000000000000",
      "reserved": "",
      "assetIds": []
    },
    {
      "x": 66,
      "y": 177,
      "size": 1,
      "price": "905000000000000000000",
      "reserved": "",
      "assetIds": []
    },
    {
      "x": 66,
      "y": 176,
      "size": 1,
      "price": "905000000000000000000",
      "reserved": "",
      "assetIds": []
    },
    {
      "x": 66,
      "y": 178,
      "size": 1,
      "price": "905000000000000000000",
      "reserved": "",
      "assetIds": []
    },
    {
      "x": 66,
      "y": 179,
      "size": 1,
      "price": "905000000000000000000",
      "reserved": "",
      "assetIds": []
    },
    {
      "x": 66,
      "y": 180,
      "size": 1,
      "price": "905000000000000000000",
      "reserved": "",
      "assetIds": []
    },
    {
      "x": 66,
      "y": 181,
      "size": 1,
      "price": "905000000000000000000",
      "reserved": "",
      "assetIds": []
    },
    {
      "x": 65,
      "y": 181,
      "size": 1,
      "price": "905000000000000000000",
      "reserved": "",
      "assetIds": []
    },
    {
      "x": 65,
      "y": 182,
      "size": 1,
      "price": "905000000000000000000",
      "reserved": "",
      "assetIds": []
    },
    {
      "x": 65,
      "y": 180,
      "size": 1,
      "price": "905000000000000000000",
      "reserved": "",
      "assetIds": []
    },
    {
      "x": 64,
      "y": 181,
      "size": 1,
      "price": "905000000000000000000",
      "reserved": "",
      "assetIds": []
    },
    {
      "x": 63,
      "y": 181,
      "size": 1,
      "price": "905000000000000000000",
      "reserved": "",
      "assetIds": []
    },
    {
      "x": 62,
      "y": 181,
      "size": 1,
      "price": "905000000000000000000",
      "reserved": "",
      "assetIds": []
    },
    {
      "x": 62,
      "y": 180,
      "size": 1,
      "price": "905000000000000000000",
      "reserved": "",
      "assetIds": []
    },
    {
      "x": 64,
      "y": 180,
      "size": 1,
      "price": "905000000000000000000",
      "reserved": "",
      "assetIds": []
    },
    {
      "x": 66,
      "y": 182,
      "size": 1,
      "price": "905000000000000000000",
      "reserved": "",
      "assetIds": []
    },
    {
      "x": 64,
      "y": 182,
      "size": 1,
      "price": "905000000000000000000",
      "reserved": "",
      "assetIds": []
    },
    {
      "x": 61,
      "y": 181,
      "size": 1,
      "price": "905000000000000000000",
      "reserved": "",
      "assetIds": []
    },
    {
      "x": 60,
      "y": 181,
      "size": 1,
      "price": "905000000000000000000",
      "reserved": "",
      "assetIds": []
    },
    {
      "x": 63,
      "y": 180,
      "size": 1,
      "price": "905000000000000000000",
      "reserved": "",
      "assetIds": []
    },
    {
      "x": 61,
      "y": 180,
      "size": 1,
      "price": "905000000000000000000",
      "reserved": "",
      "assetIds": []
    },
    {
      "x": 61,
      "y": 182,
      "size": 1,
      "price": "905000000000000000000",
      "reserved": "",
      "assetIds": []
    },
    {
      "x": 62,
      "y": 182,
      "size": 1,
      "price": "905000000000000000000",
      "reserved": "",
      "assetIds": []
    },
    {
      "x": 63,
      "y": 182,
      "size": 1,
      "price": "905000000000000000000",
      "reserved": "",
      "assetIds": []
    },
    {
      "x": 68,
      "y": 181,
      "size": 1,
      "price": "905000000000000000000",
      "reserved": "",
      "assetIds": []
    },
    {
      "x": 60,
      "y": 182,
      "size": 1,
      "price": "905000000000000000000",
      "reserved": "",
      "assetIds": []
    },
    {
      "x": 60,
      "y": 183,
      "size": 1,
      "price": "905000000000000000000",
      "reserved": "",
      "assetIds": []
    },
    {
      "x": 68,
      "y": 182,
      "size": 1,
      "price": "905000000000000000000",
      "reserved": "",
      "assetIds": []
    },
    {
      "x": 67,
      "y": 182,
      "size": 1,
      "price": "905000000000000000000",
      "reserved": "",
      "assetIds": []
    },
    {
      "x": 66,
      "y": 183,
      "size": 1,
      "price": "905000000000000000000",
      "reserved": "",
      "assetIds": []
    },
    {
      "x": 64,
      "y": 183,
      "size": 1,
      "price": "905000000000000000000",
      "reserved": "",
      "assetIds": []
    },
    {
      "x": 63,
      "y": 183,
      "size": 1,
      "price": "905000000000000000000",
      "reserved": "",
      "assetIds": []
    },
    {
      "x": 62,
      "y": 183,
      "size": 1,
      "price": "905000000000000000000",
      "reserved": "",
      "assetIds": []
    },
    {
      "x": 61,
      "y": 183,
      "size": 1,
      "price": "905000000000000000000",
      "reserved": "",
      "assetIds": []
    },
    {
      "x": 60,
      "y": 184,
      "size": 1,
      "price": "905000000000000000000",
      "reserved": "",
      "assetIds": []
    },
    {
      "x": 61,
      "y": 184,
      "size": 1,
      "price": "905000000000000000000",
      "reserved": "",
      "assetIds": []
    },
    {
      "x": 62,
      "y": 184,
      "size": 1,
      "price": "905000000000000000000",
      "reserved": "",
      "assetIds": []
    },
    {
      "x": 63,
      "y": 184,
      "size": 1,
      "price": "905000000000000000000",
      "reserved": "",
      "assetIds": []
    },
    {
      "x": 64,
      "y": 184,
      "size": 1,
      "price": "905000000000000000000",
      "reserved": "",
      "assetIds": []
    },
    {
      "x": 65,
      "y": 184,
      "size": 1,
      "price": "905000000000000000000",
      "reserved": "",
      "assetIds": []
    },
    {
      "x": 66,
      "y": 184,
      "size": 1,
      "price": "905000000000000000000",
      "reserved": "",
      "assetIds": []
    },
    {
      "x": 67,
      "y": 184,
      "size": 1,
      "price": "905000000000000000000",
      "reserved": "",
      "assetIds": []
    },
    {
      "x": 68,
      "y": 184,
      "size": 1,
      "price": "905000000000000000000",
      "reserved": "",
      "assetIds": []
    },
    {
      "x": 69,
      "y": 183,
      "size": 1,
      "price": "905000000000000000000",
      "reserved": "",
      "assetIds": []
    },
    {
      "x": 70,
      "y": 183,
      "size": 1,
      "price": "905000000000000000000",
      "reserved": "",
      "assetIds": []
    },
    {
      "x": 71,
      "y": 183,
      "size": 1,
      "price": "905000000000000000000",
      "reserved": "",
      "assetIds": []
    },
    {
      "x": 69,
      "y": 184,
      "size": 1,
      "price": "905000000000000000000",
      "reserved": "",
      "assetIds": []
    },
    {
      "x": 70,
      "y": 184,
      "size": 1,
      "price": "905000000000000000000",
      "reserved": "",
      "assetIds": []
    },
    {
      "x": 71,
      "y": 184,
      "size": 1,
      "price": "905000000000000000000",
      "reserved": "",
      "assetIds": []
    },
    {
      "x": 68,
      "y": 183,
      "size": 1,
      "price": "905000000000000000000",
      "reserved": "",
      "assetIds": []
    },
    {
      "x": 67,
      "y": 183,
      "size": 1,
      "price": "905000000000000000000",
      "reserved": "",
      "assetIds": []
    },
    {
      "x": 70,
      "y": 185,
      "size": 1,
      "price": "905000000000000000000",
      "reserved": "",
      "assetIds": []
    },
    {
      "x": 69,
      "y": 185,
      "size": 1,
      "price": "905000000000000000000",
      "reserved": "",
      "assetIds": []
    },
    {
      "x": 68,
      "y": 185,
      "size": 1,
      "price": "905000000000000000000",
      "reserved": "",
      "assetIds": []
    },
    {
      "x": 67,
      "y": 185,
      "size": 1,
      "price": "905000000000000000000",
      "reserved": "",
      "assetIds": []
    },
    {
      "x": 65,
      "y": 185,
      "size": 1,
      "price": "905000000000000000000",
      "reserved": "",
      "assetIds": []
    },
    {
      "x": 64,
      "y": 185,
      "size": 1,
      "price": "905000000000000000000",
      "reserved": "",
      "assetIds": []
    },
    {
      "x": 63,
      "y": 185,
      "size": 1,
      "price": "905000000000000000000",
      "reserved": "",
      "assetIds": []
    },
    {
      "x": 62,
      "y": 185,
      "size": 1,
      "price": "905000000000000000000",
      "reserved": "",
      "assetIds": []
    },
    {
      "x": 61,
      "y": 185,
      "size": 1,
      "price": "905000000000000000000",
      "reserved": "",
      "assetIds": []
    },
    {
      "x": 60,
      "y": 185,
      "size": 1,
      "price": "905000000000000000000",
      "reserved": "",
      "assetIds": []
    },
    {
      "x": 66,
      "y": 185,
      "size": 1,
      "price": "905000000000000000000",
      "reserved": "",
      "assetIds": []
    },
    {
      "x": 65,
      "y": 186,
      "size": 1,
      "price": "905000000000000000000",
      "reserved": "",
      "assetIds": []
    },
    {
      "x": 64,
      "y": 187,
      "size": 1,
      "price": "905000000000000000000",
      "reserved": "",
      "assetIds": []
    },
    {
      "x": 64,
      "y": 188,
      "size": 1,
      "price": "905000000000000000000",
      "reserved": "",
      "assetIds": []
    },
    {
      "x": 65,
      "y": 188,
      "size": 1,
      "price": "905000000000000000000",
      "reserved": "",
      "assetIds": []
    },
    {
      "x": 65,
      "y": 189,
      "size": 1,
      "price": "905000000000000000000",
      "reserved": "",
      "assetIds": []
    },
    {
      "x": 65,
      "y": 190,
      "size": 1,
      "price": "905000000000000000000",
      "reserved": "",
      "assetIds": []
    },
    {
      "x": 66,
      "y": 192,
      "size": 1,
      "price": "905000000000000000000",
      "reserved": "",
      "assetIds": []
    },
    {
      "x": 66,
      "y": 193,
      "size": 1,
      "price": "905000000000000000000",
      "reserved": "",
      "assetIds": []
    },
    {
      "x": 67,
      "y": 193,
      "size": 1,
      "price": "905000000000000000000",
      "reserved": "",
      "assetIds": []
    },
    {
      "x": 68,
      "y": 193,
      "size": 1,
      "price": "905000000000000000000",
      "reserved": "",
      "assetIds": []
    },
    {
      "x": 68,
      "y": 194,
      "size": 1,
      "price": "905000000000000000000",
      "reserved": "",
      "assetIds": []
    },
    {
      "x": 67,
      "y": 194,
      "size": 1,
      "price": "905000000000000000000",
      "reserved": "",
      "assetIds": []
    },
    {
      "x": 67,
      "y": 192,
      "size": 1,
      "price": "905000000000000000000",
      "reserved": "",
      "assetIds": []
    },
    {
      "x": 68,
      "y": 192,
      "size": 1,
      "price": "905000000000000000000",
      "reserved": "",
      "assetIds": []
    },
    {
      "x": 72,
      "y": 192,
      "size": 1,
      "price": "905000000000000000000",
      "reserved": "",
      "assetIds": []
    },
    {
      "x": 73,
      "y": 192,
      "size": 1,
      "price": "905000000000000000000",
      "reserved": "",
      "assetIds": []
    },
    {
      "x": 74,
      "y": 192,
      "size": 1,
      "price": "905000000000000000000",
      "reserved": "",
      "assetIds": []
    },
    {
      "x": 73,
      "y": 193,
      "size": 1,
      "price": "905000000000000000000",
      "reserved": "",
      "assetIds": []
    },
    {
      "x": 72,
      "y": 193,
      "size": 1,
      "price": "905000000000000000000",
      "reserved": "",
      "assetIds": []
    },
    {
      "x": 74,
      "y": 193,
      "size": 1,
      "price": "905000000000000000000",
      "reserved": "",
      "assetIds": []
    },
    {
      "x": 74,
      "y": 194,
      "size": 1,
      "price": "905000000000000000000",
      "reserved": "",
      "assetIds": []
    },
    {
      "x": 73,
      "y": 194,
      "size": 1,
      "price": "905000000000000000000",
      "reserved": "",
      "assetIds": []
    },
    {
      "x": 72,
      "y": 194,
      "size": 1,
      "price": "905000000000000000000",
      "reserved": "",
      "assetIds": []
    },
    {
      "x": 61,
      "y": 189,
      "size": 1,
      "price": "905000000000000000000",
      "reserved": "",
      "assetIds": []
    },
    {
      "x": 60,
      "y": 189,
      "size": 1,
      "price": "905000000000000000000",
      "reserved": "",
      "assetIds": []
    },
    {
      "x": 59,
      "y": 189,
      "size": 1,
      "price": "905000000000000000000",
      "reserved": "",
      "assetIds": []
    },
    {
      "x": 57,
      "y": 189,
      "size": 1,
      "price": "905000000000000000000",
      "reserved": "",
      "assetIds": []
    },
    {
      "x": 56,
      "y": 189,
      "size": 1,
      "price": "905000000000000000000",
      "reserved": "",
      "assetIds": []
    },
    {
      "x": 55,
      "y": 189,
      "size": 1,
      "price": "905000000000000000000",
      "reserved": "",
      "assetIds": []
    },
    {
      "x": 54,
      "y": 189,
      "size": 1,
      "price": "905000000000000000000",
      "reserved": "",
      "assetIds": []
    },
    {
      "x": 53,
      "y": 189,
      "size": 1,
      "price": "905000000000000000000",
      "reserved": "",
      "assetIds": []
    },
    {
      "x": 52,
      "y": 189,
      "size": 1,
      "price": "905000000000000000000",
      "reserved": "",
      "assetIds": []
    },
    {
      "x": 49,
      "y": 188,
      "size": 1,
      "price": "905000000000000000000",
      "reserved": "",
      "assetIds": []
    },
    {
      "x": 48,
      "y": 188,
      "size": 1,
      "price": "905000000000000000000",
      "reserved": "",
      "assetIds": []
    },
    {
      "x": 47,
      "y": 188,
      "size": 1,
      "price": "905000000000000000000",
      "reserved": "",
      "assetIds": []
    },
    {
      "x": 46,
      "y": 188,
      "size": 1,
      "price": "905000000000000000000",
      "reserved": "",
      "assetIds": []
    },
    {
      "x": 46,
      "y": 187,
      "size": 1,
      "price": "905000000000000000000",
      "reserved": "",
      "assetIds": []
    },
    {
      "x": 47,
      "y": 187,
      "size": 1,
      "price": "905000000000000000000",
      "reserved": "",
      "assetIds": []
    },
    {
      "x": 48,
      "y": 187,
      "size": 1,
      "price": "905000000000000000000",
      "reserved": "",
      "assetIds": []
    },
    {
      "x": 49,
      "y": 187,
      "size": 1,
      "price": "905000000000000000000",
      "reserved": "",
      "assetIds": []
    },
    {
      "x": 51,
      "y": 187,
      "size": 1,
      "price": "905000000000000000000",
      "reserved": "",
      "assetIds": []
    },
    {
      "x": 52,
      "y": 187,
      "size": 1,
      "price": "905000000000000000000",
      "reserved": "",
      "assetIds": []
    },
    {
      "x": 55,
      "y": 187,
      "size": 1,
      "price": "905000000000000000000",
      "reserved": "",
      "assetIds": []
    },
    {
      "x": 58,
      "y": 187,
      "size": 1,
      "price": "905000000000000000000",
      "reserved": "",
      "assetIds": []
    },
    {
      "x": 59,
      "y": 187,
      "size": 1,
      "price": "905000000000000000000",
      "reserved": "",
      "assetIds": []
    },
    {
      "x": 60,
      "y": 187,
      "size": 1,
      "price": "905000000000000000000",
      "reserved": "",
      "assetIds": []
    },
    {
      "x": 58,
      "y": 186,
      "size": 1,
      "price": "905000000000000000000",
      "reserved": "",
      "assetIds": []
    },
    {
      "x": 57,
      "y": 186,
      "size": 1,
      "price": "905000000000000000000",
      "reserved": "",
      "assetIds": []
    },
    {
      "x": 55,
      "y": 186,
      "size": 1,
      "price": "905000000000000000000",
      "reserved": "",
      "assetIds": []
    },
    {
      "x": 54,
      "y": 186,
      "size": 1,
      "price": "905000000000000000000",
      "reserved": "",
      "assetIds": []
    },
    {
      "x": 47,
      "y": 186,
      "size": 1,
      "price": "905000000000000000000",
      "reserved": "",
      "assetIds": []
    },
    {
      "x": 51,
      "y": 186,
      "size": 1,
      "price": "905000000000000000000",
      "reserved": "",
      "assetIds": []
    },
    {
      "x": 52,
      "y": 186,
      "size": 1,
      "price": "905000000000000000000",
      "reserved": "",
      "assetIds": []
    },
    {
      "x": 53,
      "y": 187,
      "size": 1,
      "price": "905000000000000000000",
      "reserved": "",
      "assetIds": []
    },
    {
      "x": 54,
      "y": 187,
      "size": 1,
      "price": "905000000000000000000",
      "reserved": "",
      "assetIds": []
    },
    {
      "x": 57,
      "y": 187,
      "size": 1,
      "price": "905000000000000000000",
      "reserved": "",
      "assetIds": []
    },
    {
      "x": 62,
      "y": 187,
      "size": 1,
      "price": "905000000000000000000",
      "reserved": "",
      "assetIds": []
    },
    {
      "x": 63,
      "y": 187,
      "size": 1,
      "price": "905000000000000000000",
      "reserved": "",
      "assetIds": []
    },
    {
      "x": 56,
      "y": 187,
      "size": 1,
      "price": "905000000000000000000",
      "reserved": "",
      "assetIds": []
    },
    {
      "x": 44,
      "y": 186,
      "size": 1,
      "price": "905000000000000000000",
      "reserved": "",
      "assetIds": []
    },
    {
      "x": 45,
      "y": 186,
      "size": 1,
      "price": "905000000000000000000",
      "reserved": "",
      "assetIds": []
    },
    {
      "x": 46,
      "y": 186,
      "size": 1,
      "price": "905000000000000000000",
      "reserved": "",
      "assetIds": []
    },
    {
      "x": 50,
      "y": 186,
      "size": 1,
      "price": "905000000000000000000",
      "reserved": "",
      "assetIds": []
    },
    {
      "x": 62,
      "y": 186,
      "size": 1,
      "price": "905000000000000000000",
      "reserved": "",
      "assetIds": []
    },
    {
      "x": 64,
      "y": 186,
      "size": 1,
      "price": "905000000000000000000",
      "reserved": "",
      "assetIds": []
    },
    {
      "x": 63,
      "y": 186,
      "size": 1,
      "price": "905000000000000000000",
      "reserved": "",
      "assetIds": []
    },
    {
      "x": 61,
      "y": 186,
      "size": 1,
      "price": "905000000000000000000",
      "reserved": "",
      "assetIds": []
    },
    {
      "x": 60,
      "y": 186,
      "size": 1,
      "price": "905000000000000000000",
      "reserved": "",
      "assetIds": []
    },
    {
      "x": 56,
      "y": 186,
      "size": 1,
      "price": "905000000000000000000",
      "reserved": "",
      "assetIds": []
    },
    {
      "x": 50,
      "y": 187,
      "size": 1,
      "price": "905000000000000000000",
      "reserved": "",
      "assetIds": []
    },
    {
      "x": 42,
      "y": 186,
      "size": 1,
      "price": "905000000000000000000",
      "reserved": "",
      "assetIds": []
    },
    {
      "x": 43,
      "y": 186,
      "size": 1,
      "price": "905000000000000000000",
      "reserved": "",
      "assetIds": []
    },
    {
      "x": 49,
      "y": 186,
      "size": 1,
      "price": "905000000000000000000",
      "reserved": "",
      "assetIds": []
    },
    {
      "x": 59,
      "y": 186,
      "size": 1,
      "price": "905000000000000000000",
      "reserved": "",
      "assetIds": []
    },
    {
      "x": 52,
      "y": 188,
      "size": 1,
      "price": "905000000000000000000",
      "reserved": "",
      "assetIds": []
    },
    {
      "x": 55,
      "y": 188,
      "size": 1,
      "price": "905000000000000000000",
      "reserved": "",
      "assetIds": []
    },
    {
      "x": 56,
      "y": 188,
      "size": 1,
      "price": "905000000000000000000",
      "reserved": "",
      "assetIds": []
    },
    {
      "x": 57,
      "y": 188,
      "size": 1,
      "price": "905000000000000000000",
      "reserved": "",
      "assetIds": []
    },
    {
      "x": 58,
      "y": 188,
      "size": 1,
      "price": "905000000000000000000",
      "reserved": "",
      "assetIds": []
    },
    {
      "x": 59,
      "y": 188,
      "size": 1,
      "price": "905000000000000000000",
      "reserved": "",
      "assetIds": []
    },
    {
      "x": 60,
      "y": 188,
      "size": 1,
      "price": "905000000000000000000",
      "reserved": "",
      "assetIds": []
    },
    {
      "x": 62,
      "y": 188,
      "size": 1,
      "price": "905000000000000000000",
      "reserved": "",
      "assetIds": []
    },
    {
      "x": 63,
      "y": 188,
      "size": 1,
      "price": "905000000000000000000",
      "reserved": "",
      "assetIds": []
    },
    {
      "x": 65,
      "y": 187,
      "size": 1,
      "price": "905000000000000000000",
      "reserved": "",
      "assetIds": []
    },
    {
      "x": 61,
      "y": 187,
      "size": 1,
      "price": "905000000000000000000",
      "reserved": "",
      "assetIds": []
    },
    {
      "x": 53,
      "y": 186,
      "size": 1,
      "price": "905000000000000000000",
      "reserved": "",
      "assetIds": []
    },
    {
      "x": 51,
      "y": 188,
      "size": 1,
      "price": "905000000000000000000",
      "reserved": "",
      "assetIds": []
    },
    {
      "x": 53,
      "y": 188,
      "size": 1,
      "price": "905000000000000000000",
      "reserved": "",
      "assetIds": []
    },
    {
      "x": 50,
      "y": 188,
      "size": 1,
      "price": "905000000000000000000",
      "reserved": "",
      "assetIds": []
    },
    {
      "x": 45,
      "y": 187,
      "size": 1,
      "price": "905000000000000000000",
      "reserved": "",
      "assetIds": []
    },
    {
      "x": 45,
      "y": 188,
      "size": 1,
      "price": "905000000000000000000",
      "reserved": "",
      "assetIds": []
    },
    {
      "x": 46,
      "y": 189,
      "size": 1,
      "price": "905000000000000000000",
      "reserved": "",
      "assetIds": []
    },
    {
      "x": 46,
      "y": 190,
      "size": 1,
      "price": "905000000000000000000",
      "reserved": "",
      "assetIds": []
    },
    {
      "x": 45,
      "y": 190,
      "size": 1,
      "price": "905000000000000000000",
      "reserved": "",
      "assetIds": []
    },
    {
      "x": 45,
      "y": 189,
      "size": 1,
      "price": "905000000000000000000",
      "reserved": "",
      "assetIds": []
    },
    {
      "x": 44,
      "y": 190,
      "size": 1,
      "price": "905000000000000000000",
      "reserved": "",
      "assetIds": []
    },
    {
      "x": 44,
      "y": 191,
      "size": 1,
      "price": "905000000000000000000",
      "reserved": "",
      "assetIds": []
    },
    {
      "x": 43,
      "y": 189,
      "size": 1,
      "price": "905000000000000000000",
      "reserved": "",
      "assetIds": []
    },
    {
      "x": 43,
      "y": 188,
      "size": 1,
      "price": "905000000000000000000",
      "reserved": "",
      "assetIds": []
    },
    {
      "x": 43,
      "y": 187,
      "size": 1,
      "price": "905000000000000000000",
      "reserved": "",
      "assetIds": []
    },
    {
      "x": 44,
      "y": 189,
      "size": 1,
      "price": "905000000000000000000",
      "reserved": "",
      "assetIds": []
    },
    {
      "x": 44,
      "y": 188,
      "size": 1,
      "price": "905000000000000000000",
      "reserved": "",
      "assetIds": []
    },
    {
      "x": 44,
      "y": 187,
      "size": 1,
      "price": "905000000000000000000",
      "reserved": "",
      "assetIds": []
    },
    {
      "x": 43,
      "y": 191,
      "size": 1,
      "price": "905000000000000000000",
      "reserved": "",
      "assetIds": []
    },
    {
      "x": 42,
      "y": 191,
      "size": 1,
      "price": "905000000000000000000",
      "reserved": "",
      "assetIds": []
    },
    {
      "x": 42,
      "y": 190,
      "size": 1,
      "price": "905000000000000000000",
      "reserved": "",
      "assetIds": []
    },
    {
      "x": 42,
      "y": 189,
      "size": 1,
      "price": "905000000000000000000",
      "reserved": "",
      "assetIds": []
    },
    {
      "x": 42,
      "y": 188,
      "size": 1,
      "price": "905000000000000000000",
      "reserved": "",
      "assetIds": []
    },
    {
      "x": 42,
      "y": 187,
      "size": 1,
      "price": "905000000000000000000",
      "reserved": "",
      "assetIds": []
    },
    {
      "x": 43,
      "y": 190,
      "size": 1,
      "price": "905000000000000000000",
      "reserved": "",
      "assetIds": []
    },
    {
      "x": 47,
      "y": 191,
      "size": 1,
      "price": "905000000000000000000",
      "reserved": "",
      "assetIds": []
    },
    {
      "x": 46,
      "y": 191,
      "size": 1,
      "price": "905000000000000000000",
      "reserved": "",
      "assetIds": []
    },
    {
      "x": 45,
      "y": 191,
      "size": 1,
      "price": "905000000000000000000",
      "reserved": "",
      "assetIds": []
    },
    {
      "x": 47,
      "y": 190,
      "size": 1,
      "price": "905000000000000000000",
      "reserved": "",
      "assetIds": []
    },
    {
      "x": 47,
      "y": 189,
      "size": 1,
      "price": "905000000000000000000",
      "reserved": "",
      "assetIds": []
    },
    {
      "x": 51,
      "y": 191,
      "size": 1,
      "price": "905000000000000000000",
      "reserved": "",
      "assetIds": []
    },
    {
      "x": 52,
      "y": 191,
      "size": 1,
      "price": "905000000000000000000",
      "reserved": "",
      "assetIds": []
    },
    {
      "x": 53,
      "y": 191,
      "size": 1,
      "price": "905000000000000000000",
      "reserved": "",
      "assetIds": []
    },
    {
      "x": 54,
      "y": 191,
      "size": 1,
      "price": "905000000000000000000",
      "reserved": "",
      "assetIds": []
    },
    {
      "x": 55,
      "y": 190,
      "size": 1,
      "price": "905000000000000000000",
      "reserved": "",
      "assetIds": []
    },
    {
      "x": 56,
      "y": 190,
      "size": 1,
      "price": "905000000000000000000",
      "reserved": "",
      "assetIds": []
    },
    {
      "x": 57,
      "y": 190,
      "size": 1,
      "price": "905000000000000000000",
      "reserved": "",
      "assetIds": []
    },
    {
      "x": 58,
      "y": 190,
      "size": 1,
      "price": "905000000000000000000",
      "reserved": "",
      "assetIds": []
    },
    {
      "x": 59,
      "y": 190,
      "size": 1,
      "price": "905000000000000000000",
      "reserved": "",
      "assetIds": []
    },
    {
      "x": 60,
      "y": 190,
      "size": 1,
      "price": "905000000000000000000",
      "reserved": "",
      "assetIds": []
    },
    {
      "x": 61,
      "y": 190,
      "size": 1,
      "price": "905000000000000000000",
      "reserved": "",
      "assetIds": []
    },
    {
      "x": 62,
      "y": 190,
      "size": 1,
      "price": "905000000000000000000",
      "reserved": "",
      "assetIds": []
    },
    {
      "x": 63,
      "y": 190,
      "size": 1,
      "price": "905000000000000000000",
      "reserved": "",
      "assetIds": []
    },
    {
      "x": 64,
      "y": 190,
      "size": 1,
      "price": "905000000000000000000",
      "reserved": "",
      "assetIds": []
    },
    {
      "x": 58,
      "y": 189,
      "size": 1,
      "price": "905000000000000000000",
      "reserved": "",
      "assetIds": []
    },
    {
      "x": 62,
      "y": 189,
      "size": 1,
      "price": "905000000000000000000",
      "reserved": "",
      "assetIds": []
    },
    {
      "x": 64,
      "y": 189,
      "size": 1,
      "price": "905000000000000000000",
      "reserved": "",
      "assetIds": []
    },
    {
      "x": 63,
      "y": 189,
      "size": 1,
      "price": "905000000000000000000",
      "reserved": "",
      "assetIds": []
    },
    {
      "x": 51,
      "y": 189,
      "size": 1,
      "price": "905000000000000000000",
      "reserved": "",
      "assetIds": []
    },
    {
      "x": 52,
      "y": 190,
      "size": 1,
      "price": "905000000000000000000",
      "reserved": "",
      "assetIds": []
    },
    {
      "x": 53,
      "y": 190,
      "size": 1,
      "price": "905000000000000000000",
      "reserved": "",
      "assetIds": []
    },
    {
      "x": 54,
      "y": 190,
      "size": 1,
      "price": "905000000000000000000",
      "reserved": "",
      "assetIds": []
    },
    {
      "x": 51,
      "y": 190,
      "size": 1,
      "price": "905000000000000000000",
      "reserved": "",
      "assetIds": []
    },
    {
      "x": 65,
      "y": 191,
      "size": 1,
      "price": "905000000000000000000",
      "reserved": "",
      "assetIds": []
    },
    {
      "x": 64,
      "y": 191,
      "size": 1,
      "price": "905000000000000000000",
      "reserved": "",
      "assetIds": []
    },
    {
      "x": 63,
      "y": 191,
      "size": 1,
      "price": "905000000000000000000",
      "reserved": "",
      "assetIds": []
    },
    {
      "x": 62,
      "y": 191,
      "size": 1,
      "price": "905000000000000000000",
      "reserved": "",
      "assetIds": []
    },
    {
      "x": 61,
      "y": 191,
      "size": 1,
      "price": "905000000000000000000",
      "reserved": "",
      "assetIds": []
    },
    {
      "x": 60,
      "y": 191,
      "size": 1,
      "price": "905000000000000000000",
      "reserved": "",
      "assetIds": []
    },
    {
      "x": 59,
      "y": 191,
      "size": 1,
      "price": "905000000000000000000",
      "reserved": "",
      "assetIds": []
    },
    {
      "x": 58,
      "y": 191,
      "size": 1,
      "price": "905000000000000000000",
      "reserved": "",
      "assetIds": []
    },
    {
      "x": 56,
      "y": 191,
      "size": 1,
      "price": "905000000000000000000",
      "reserved": "",
      "assetIds": []
    },
    {
      "x": 57,
      "y": 191,
      "size": 1,
      "price": "905000000000000000000",
      "reserved": "",
      "assetIds": []
    },
    {
      "x": 55,
      "y": 191,
      "size": 1,
      "price": "905000000000000000000",
      "reserved": "",
      "assetIds": []
    },
    {
      "x": 55,
      "y": 192,
      "size": 1,
      "price": "905000000000000000000",
      "reserved": "",
      "assetIds": []
    },
    {
      "x": 55,
      "y": 193,
      "size": 1,
      "price": "905000000000000000000",
      "reserved": "",
      "assetIds": []
    },
    {
      "x": 56,
      "y": 193,
      "size": 1,
      "price": "905000000000000000000",
      "reserved": "",
      "assetIds": []
    },
    {
      "x": 56,
      "y": 194,
      "size": 1,
      "price": "905000000000000000000",
      "reserved": "",
      "assetIds": []
    },
    {
      "x": 56,
      "y": 195,
      "size": 1,
      "price": "905000000000000000000",
      "reserved": "",
      "assetIds": []
    },
    {
      "x": 56,
      "y": 196,
      "size": 1,
      "price": "905000000000000000000",
      "reserved": "",
      "assetIds": []
    },
    {
      "x": 56,
      "y": 197,
      "size": 1,
      "price": "905000000000000000000",
      "reserved": "",
      "assetIds": []
    },
    {
      "x": 55,
      "y": 197,
      "size": 1,
      "price": "905000000000000000000",
      "reserved": "",
      "assetIds": []
    },
    {
      "x": 54,
      "y": 197,
      "size": 1,
      "price": "905000000000000000000",
      "reserved": "",
      "assetIds": []
    },
    {
      "x": 54,
      "y": 196,
      "size": 1,
      "price": "905000000000000000000",
      "reserved": "",
      "assetIds": []
    },
    {
      "x": 54,
      "y": 195,
      "size": 1,
      "price": "905000000000000000000",
      "reserved": "",
      "assetIds": []
    },
    {
      "x": 54,
      "y": 194,
      "size": 1,
      "price": "905000000000000000000",
      "reserved": "",
      "assetIds": []
    },
    {
      "x": 54,
      "y": 192,
      "size": 1,
      "price": "905000000000000000000",
      "reserved": "",
      "assetIds": []
    },
    {
      "x": 56,
      "y": 192,
      "size": 1,
      "price": "905000000000000000000",
      "reserved": "",
      "assetIds": []
    },
    {
      "x": 55,
      "y": 196,
      "size": 1,
      "price": "905000000000000000000",
      "reserved": "",
      "assetIds": []
    },
    {
      "x": 55,
      "y": 195,
      "size": 1,
      "price": "905000000000000000000",
      "reserved": "",
      "assetIds": []
    },
    {
      "x": 55,
      "y": 194,
      "size": 1,
      "price": "905000000000000000000",
      "reserved": "",
      "assetIds": []
    },
    {
      "x": 54,
      "y": 193,
      "size": 1,
      "price": "905000000000000000000",
      "reserved": "",
      "assetIds": []
    },
    {
      "x": 39,
      "y": 193,
      "size": 1,
      "price": "905000000000000000000",
      "reserved": "",
      "assetIds": []
    },
    {
      "x": 39,
      "y": 194,
      "size": 1,
      "price": "905000000000000000000",
      "reserved": "",
      "assetIds": []
    },
    {
      "x": 40,
      "y": 194,
      "size": 1,
      "price": "905000000000000000000",
      "reserved": "",
      "assetIds": []
    },
    {
      "x": 40,
      "y": 193,
      "size": 1,
      "price": "905000000000000000000",
      "reserved": "",
      "assetIds": []
    },
    {
      "x": 41,
      "y": 193,
      "size": 1,
      "price": "905000000000000000000",
      "reserved": "",
      "assetIds": []
    },
    {
      "x": 41,
      "y": 192,
      "size": 1,
      "price": "905000000000000000000",
      "reserved": "",
      "assetIds": []
    },
    {
      "x": 40,
      "y": 192,
      "size": 1,
      "price": "905000000000000000000",
      "reserved": "",
      "assetIds": []
    },
    {
      "x": 39,
      "y": 192,
      "size": 1,
      "price": "905000000000000000000",
      "reserved": "",
      "assetIds": []
    },
    {
      "x": 41,
      "y": 194,
      "size": 1,
      "price": "905000000000000000000",
      "reserved": "",
      "assetIds": []
    },
    {
      "x": 40,
      "y": 185,
      "size": 1,
      "price": "905000000000000000000",
      "reserved": "",
      "assetIds": []
    },
    {
      "x": 40,
      "y": 184,
      "size": 1,
      "price": "905000000000000000000",
      "reserved": "",
      "assetIds": []
    },
    {
      "x": 40,
      "y": 183,
      "size": 1,
      "price": "905000000000000000000",
      "reserved": "",
      "assetIds": []
    },
    {
      "x": 40,
      "y": 182,
      "size": 1,
      "price": "905000000000000000000",
      "reserved": "",
      "assetIds": []
    },
    {
      "x": 40,
      "y": 181,
      "size": 1,
      "price": "905000000000000000000",
      "reserved": "",
      "assetIds": []
    },
    {
      "x": 40,
      "y": 180,
      "size": 1,
      "price": "905000000000000000000",
      "reserved": "",
      "assetIds": []
    },
    {
      "x": 40,
      "y": 179,
      "size": 1,
      "price": "905000000000000000000",
      "reserved": "",
      "assetIds": []
    },
    {
      "x": 40,
      "y": 178,
      "size": 1,
      "price": "905000000000000000000",
      "reserved": "",
      "assetIds": []
    },
    {
      "x": 41,
      "y": 178,
      "size": 1,
      "price": "905000000000000000000",
      "reserved": "",
      "assetIds": []
    },
    {
      "x": 41,
      "y": 179,
      "size": 1,
      "price": "905000000000000000000",
      "reserved": "",
      "assetIds": []
    },
    {
      "x": 41,
      "y": 180,
      "size": 1,
      "price": "905000000000000000000",
      "reserved": "",
      "assetIds": []
    },
    {
      "x": 41,
      "y": 181,
      "size": 1,
      "price": "905000000000000000000",
      "reserved": "",
      "assetIds": []
    },
    {
      "x": 41,
      "y": 182,
      "size": 1,
      "price": "905000000000000000000",
      "reserved": "",
      "assetIds": []
    },
    {
      "x": 41,
      "y": 183,
      "size": 1,
      "price": "905000000000000000000",
      "reserved": "",
      "assetIds": []
    },
    {
      "x": 41,
      "y": 184,
      "size": 1,
      "price": "905000000000000000000",
      "reserved": "",
      "assetIds": []
    },
    {
      "x": 41,
      "y": 185,
      "size": 1,
      "price": "905000000000000000000",
      "reserved": "",
      "assetIds": []
    },
    {
      "x": 41,
      "y": 177,
      "size": 1,
      "price": "905000000000000000000",
      "reserved": "",
      "assetIds": []
    },
    {
      "x": 40,
      "y": 177,
      "size": 1,
      "price": "905000000000000000000",
      "reserved": "",
      "assetIds": []
    },
    {
      "x": 39,
      "y": 177,
      "size": 1,
      "price": "905000000000000000000",
      "reserved": "",
      "assetIds": []
    },
    {
      "x": 38,
      "y": 177,
      "size": 1,
      "price": "905000000000000000000",
      "reserved": "",
      "assetIds": []
    },
    {
      "x": 39,
      "y": 178,
      "size": 1,
      "price": "905000000000000000000",
      "reserved": "",
      "assetIds": []
    },
    {
      "x": 38,
      "y": 178,
      "size": 1,
      "price": "905000000000000000000",
      "reserved": "",
      "assetIds": []
    },
    {
      "x": 38,
      "y": 179,
      "size": 1,
      "price": "905000000000000000000",
      "reserved": "",
      "assetIds": []
    },
    {
      "x": 39,
      "y": 181,
      "size": 1,
      "price": "905000000000000000000",
      "reserved": "",
      "assetIds": []
    },
    {
      "x": 39,
      "y": 182,
      "size": 1,
      "price": "905000000000000000000",
      "reserved": "",
      "assetIds": []
    },
    {
      "x": 39,
      "y": 184,
      "size": 1,
      "price": "905000000000000000000",
      "reserved": "",
      "assetIds": []
    },
    {
      "x": 39,
      "y": 183,
      "size": 1,
      "price": "905000000000000000000",
      "reserved": "",
      "assetIds": []
    },
    {
      "x": 39,
      "y": 179,
      "size": 1,
      "price": "905000000000000000000",
      "reserved": "",
      "assetIds": []
    },
    {
      "x": 38,
      "y": 182,
      "size": 1,
      "price": "905000000000000000000",
      "reserved": "",
      "assetIds": []
    },
    {
      "x": 38,
      "y": 181,
      "size": 1,
      "price": "905000000000000000000",
      "reserved": "",
      "assetIds": []
    },
    {
      "x": 38,
      "y": 180,
      "size": 1,
      "price": "905000000000000000000",
      "reserved": "",
      "assetIds": []
    },
    {
      "x": 37,
      "y": 181,
      "size": 1,
      "price": "905000000000000000000",
      "reserved": "",
      "assetIds": []
    },
    {
      "x": 37,
      "y": 180,
      "size": 1,
      "price": "905000000000000000000",
      "reserved": "",
      "assetIds": []
    },
    {
      "x": 37,
      "y": 179,
      "size": 1,
      "price": "905000000000000000000",
      "reserved": "",
      "assetIds": []
    },
    {
      "x": 37,
      "y": 178,
      "size": 1,
      "price": "905000000000000000000",
      "reserved": "",
      "assetIds": []
    },
    {
      "x": 37,
      "y": 182,
      "size": 1,
      "price": "905000000000000000000",
      "reserved": "",
      "assetIds": []
    },
    {
      "x": 36,
      "y": 182,
      "size": 1,
      "price": "905000000000000000000",
      "reserved": "",
      "assetIds": []
    },
    {
      "x": 36,
      "y": 181,
      "size": 1,
      "price": "905000000000000000000",
      "reserved": "",
      "assetIds": []
    },
    {
      "x": 36,
      "y": 178,
      "size": 1,
      "price": "905000000000000000000",
      "reserved": "",
      "assetIds": []
    },
    {
      "x": 36,
      "y": 177,
      "size": 1,
      "price": "905000000000000000000",
      "reserved": "",
      "assetIds": []
    },
    {
      "x": 36,
      "y": 176,
      "size": 1,
      "price": "905000000000000000000",
      "reserved": "",
      "assetIds": []
    },
    {
      "x": 36,
      "y": 175,
      "size": 1,
      "price": "905000000000000000000",
      "reserved": "",
      "assetIds": []
    },
    {
      "x": 36,
      "y": 174,
      "size": 1,
      "price": "905000000000000000000",
      "reserved": "",
      "assetIds": []
    },
    {
      "x": 36,
      "y": 173,
      "size": 1,
      "price": "905000000000000000000",
      "reserved": "",
      "assetIds": []
    },
    {
      "x": 36,
      "y": 172,
      "size": 1,
      "price": "905000000000000000000",
      "reserved": "",
      "assetIds": []
    },
    {
      "x": 36,
      "y": 171,
      "size": 1,
      "price": "905000000000000000000",
      "reserved": "",
      "assetIds": []
    },
    {
      "x": 36,
      "y": 170,
      "size": 1,
      "price": "905000000000000000000",
      "reserved": "",
      "assetIds": []
    },
    {
      "x": 36,
      "y": 169,
      "size": 1,
      "price": "905000000000000000000",
      "reserved": "",
      "assetIds": []
    },
    {
      "x": 36,
      "y": 168,
      "size": 1,
      "price": "905000000000000000000",
      "reserved": "",
      "assetIds": []
    },
    {
      "x": 37,
      "y": 168,
      "size": 1,
      "price": "905000000000000000000",
      "reserved": "",
      "assetIds": []
    },
    {
      "x": 38,
      "y": 168,
      "size": 1,
      "price": "905000000000000000000",
      "reserved": "",
      "assetIds": []
    },
    {
      "x": 39,
      "y": 168,
      "size": 1,
      "price": "905000000000000000000",
      "reserved": "",
      "assetIds": []
    },
    {
      "x": 40,
      "y": 168,
      "size": 1,
      "price": "905000000000000000000",
      "reserved": "",
      "assetIds": []
    },
    {
      "x": 40,
      "y": 167,
      "size": 1,
      "price": "905000000000000000000",
      "reserved": "",
      "assetIds": []
    },
    {
      "x": 40,
      "y": 166,
      "size": 1,
      "price": "905000000000000000000",
      "reserved": "",
      "assetIds": []
    },
    {
      "x": 40,
      "y": 165,
      "size": 1,
      "price": "905000000000000000000",
      "reserved": "",
      "assetIds": []
    },
    {
      "x": 41,
      "y": 165,
      "size": 1,
      "price": "905000000000000000000",
      "reserved": "",
      "assetIds": []
    },
    {
      "x": 41,
      "y": 164,
      "size": 1,
      "price": "905000000000000000000",
      "reserved": "",
      "assetIds": []
    },
    {
      "x": 41,
      "y": 163,
      "size": 1,
      "price": "905000000000000000000",
      "reserved": "",
      "assetIds": []
    },
    {
      "x": 41,
      "y": 162,
      "size": 1,
      "price": "905000000000000000000",
      "reserved": "",
      "assetIds": []
    },
    {
      "x": 40,
      "y": 162,
      "size": 1,
      "price": "905000000000000000000",
      "reserved": "",
      "assetIds": []
    },
    {
      "x": 39,
      "y": 162,
      "size": 1,
      "price": "905000000000000000000",
      "reserved": "",
      "assetIds": []
    },
    {
      "x": 39,
      "y": 163,
      "size": 1,
      "price": "905000000000000000000",
      "reserved": "",
      "assetIds": []
    },
    {
      "x": 39,
      "y": 164,
      "size": 1,
      "price": "905000000000000000000",
      "reserved": "",
      "assetIds": []
    },
    {
      "x": 40,
      "y": 164,
      "size": 1,
      "price": "905000000000000000000",
      "reserved": "",
      "assetIds": []
    },
    {
      "x": 40,
      "y": 169,
      "size": 1,
      "price": "905000000000000000000",
      "reserved": "",
      "assetIds": []
    },
    {
      "x": 40,
      "y": 170,
      "size": 1,
      "price": "905000000000000000000",
      "reserved": "",
      "assetIds": []
    },
    {
      "x": 40,
      "y": 163,
      "size": 1,
      "price": "905000000000000000000",
      "reserved": "",
      "assetIds": []
    },
    {
      "x": 41,
      "y": 170,
      "size": 1,
      "price": "905000000000000000000",
      "reserved": "",
      "assetIds": []
    },
    {
      "x": 41,
      "y": 169,
      "size": 1,
      "price": "905000000000000000000",
      "reserved": "",
      "assetIds": []
    },
    {
      "x": 41,
      "y": 168,
      "size": 1,
      "price": "905000000000000000000",
      "reserved": "",
      "assetIds": []
    },
    {
      "x": 41,
      "y": 167,
      "size": 1,
      "price": "905000000000000000000",
      "reserved": "",
      "assetIds": []
    },
    {
      "x": 41,
      "y": 166,
      "size": 1,
      "price": "905000000000000000000",
      "reserved": "",
      "assetIds": []
    },
    {
      "x": 39,
      "y": 165,
      "size": 1,
      "price": "905000000000000000000",
      "reserved": "",
      "assetIds": []
    },
    {
      "x": 39,
      "y": 166,
      "size": 1,
      "price": "905000000000000000000",
      "reserved": "",
      "assetIds": []
    },
    {
      "x": 39,
      "y": 167,
      "size": 1,
      "price": "905000000000000000000",
      "reserved": "",
      "assetIds": []
    },
    {
      "x": 39,
      "y": 169,
      "size": 1,
      "price": "905000000000000000000",
      "reserved": "",
      "assetIds": []
    },
    {
      "x": 39,
      "y": 170,
      "size": 1,
      "price": "905000000000000000000",
      "reserved": "",
      "assetIds": []
    },
    {
      "x": 38,
      "y": 173,
      "size": 1,
      "price": "905000000000000000000",
      "reserved": "",
      "assetIds": []
    },
    {
      "x": 38,
      "y": 174,
      "size": 1,
      "price": "905000000000000000000",
      "reserved": "",
      "assetIds": []
    },
    {
      "x": 38,
      "y": 172,
      "size": 1,
      "price": "905000000000000000000",
      "reserved": "",
      "assetIds": []
    },
    {
      "x": 38,
      "y": 171,
      "size": 1,
      "price": "905000000000000000000",
      "reserved": "",
      "assetIds": []
    },
    {
      "x": 38,
      "y": 170,
      "size": 1,
      "price": "905000000000000000000",
      "reserved": "",
      "assetIds": []
    },
    {
      "x": 38,
      "y": 169,
      "size": 1,
      "price": "905000000000000000000",
      "reserved": "",
      "assetIds": []
    },
    {
      "x": 38,
      "y": 175,
      "size": 1,
      "price": "905000000000000000000",
      "reserved": "",
      "assetIds": []
    },
    {
      "x": 38,
      "y": 176,
      "size": 1,
      "price": "905000000000000000000",
      "reserved": "",
      "assetIds": []
    },
    {
      "x": 37,
      "y": 174,
      "size": 1,
      "price": "905000000000000000000",
      "reserved": "",
      "assetIds": []
    },
    {
      "x": 37,
      "y": 175,
      "size": 1,
      "price": "905000000000000000000",
      "reserved": "",
      "assetIds": []
    },
    {
      "x": 37,
      "y": 176,
      "size": 1,
      "price": "905000000000000000000",
      "reserved": "",
      "assetIds": []
    },
    {
      "x": 37,
      "y": 177,
      "size": 1,
      "price": "905000000000000000000",
      "reserved": "",
      "assetIds": []
    },
    {
      "x": 36,
      "y": 179,
      "size": 1,
      "price": "905000000000000000000",
      "reserved": "",
      "assetIds": []
    },
    {
      "x": 37,
      "y": 171,
      "size": 1,
      "price": "905000000000000000000",
      "reserved": "",
      "assetIds": []
    },
    {
      "x": 37,
      "y": 170,
      "size": 1,
      "price": "905000000000000000000",
      "reserved": "",
      "assetIds": []
    },
    {
      "x": 37,
      "y": 169,
      "size": 1,
      "price": "905000000000000000000",
      "reserved": "",
      "assetIds": []
    },
    {
      "x": 37,
      "y": 172,
      "size": 1,
      "price": "905000000000000000000",
      "reserved": "",
      "assetIds": []
    },
    {
      "x": 37,
      "y": 173,
      "size": 1,
      "price": "905000000000000000000",
      "reserved": "",
      "assetIds": []
    },
    {
      "x": 36,
      "y": 180,
      "size": 1,
      "price": "905000000000000000000",
      "reserved": "",
      "assetIds": []
    },
    {
      "x": 49,
      "y": 166,
      "size": 1,
      "price": "905000000000000000000",
      "reserved": "",
      "assetIds": []
    },
    {
      "x": 48,
      "y": 166,
      "size": 1,
      "price": "905000000000000000000",
      "reserved": "",
      "assetIds": []
    },
    {
      "x": 49,
      "y": 167,
      "size": 1,
      "price": "905000000000000000000",
      "reserved": "",
      "assetIds": []
    },
    {
      "x": 50,
      "y": 167,
      "size": 1,
      "price": "905000000000000000000",
      "reserved": "",
      "assetIds": []
    },
    {
      "x": 51,
      "y": 167,
      "size": 1,
      "price": "905000000000000000000",
      "reserved": "",
      "assetIds": []
    },
    {
      "x": 52,
      "y": 167,
      "size": 1,
      "price": "905000000000000000000",
      "reserved": "",
      "assetIds": []
    },
    {
      "x": 53,
      "y": 167,
      "size": 1,
      "price": "905000000000000000000",
      "reserved": "",
      "assetIds": []
    },
    {
      "x": 54,
      "y": 167,
      "size": 1,
      "price": "905000000000000000000",
      "reserved": "",
      "assetIds": []
    },
    {
      "x": 55,
      "y": 167,
      "size": 1,
      "price": "905000000000000000000",
      "reserved": "",
      "assetIds": []
    },
    {
      "x": 50,
      "y": 166,
      "size": 1,
      "price": "905000000000000000000",
      "reserved": "",
      "assetIds": []
    },
    {
      "x": 51,
      "y": 166,
      "size": 1,
      "price": "905000000000000000000",
      "reserved": "",
      "assetIds": []
    },
    {
      "x": 52,
      "y": 166,
      "size": 1,
      "price": "905000000000000000000",
      "reserved": "",
      "assetIds": []
    },
    {
      "x": 53,
      "y": 166,
      "size": 1,
      "price": "905000000000000000000",
      "reserved": "",
      "assetIds": []
    },
    {
      "x": 54,
      "y": 166,
      "size": 1,
      "price": "905000000000000000000",
      "reserved": "",
      "assetIds": []
    },
    {
      "x": 55,
      "y": 166,
      "size": 1,
      "price": "905000000000000000000",
      "reserved": "",
      "assetIds": []
    },
    {
      "x": 56,
      "y": 166,
      "size": 1,
      "price": "905000000000000000000",
      "reserved": "",
      "assetIds": []
    },
    {
      "x": 56,
      "y": 167,
      "size": 1,
      "price": "905000000000000000000",
      "reserved": "",
      "assetIds": []
    },
    {
      "x": 54,
      "y": 165,
      "size": 1,
      "price": "905000000000000000000",
      "reserved": "",
      "assetIds": []
    },
    {
      "x": 53,
      "y": 165,
      "size": 1,
      "price": "905000000000000000000",
      "reserved": "",
      "assetIds": []
    },
    {
      "x": 52,
      "y": 165,
      "size": 1,
      "price": "905000000000000000000",
      "reserved": "",
      "assetIds": []
    },
    {
      "x": 52,
      "y": 164,
      "size": 1,
      "price": "905000000000000000000",
      "reserved": "",
      "assetIds": []
    },
    {
      "x": 51,
      "y": 164,
      "size": 1,
      "price": "905000000000000000000",
      "reserved": "",
      "assetIds": []
    },
    {
      "x": 48,
      "y": 165,
      "size": 1,
      "price": "905000000000000000000",
      "reserved": "",
      "assetIds": []
    },
    {
      "x": 49,
      "y": 165,
      "size": 1,
      "price": "905000000000000000000",
      "reserved": "",
      "assetIds": []
    },
    {
      "x": 53,
      "y": 164,
      "size": 1,
      "price": "905000000000000000000",
      "reserved": "",
      "assetIds": []
    },
    {
      "x": 54,
      "y": 164,
      "size": 1,
      "price": "905000000000000000000",
      "reserved": "",
      "assetIds": []
    },
    {
      "x": 55,
      "y": 164,
      "size": 1,
      "price": "905000000000000000000",
      "reserved": "",
      "assetIds": []
    },
    {
      "x": 56,
      "y": 164,
      "size": 1,
      "price": "905000000000000000000",
      "reserved": "",
      "assetIds": []
    },
    {
      "x": 57,
      "y": 164,
      "size": 1,
      "price": "905000000000000000000",
      "reserved": "",
      "assetIds": []
    },
    {
      "x": 58,
      "y": 164,
      "size": 1,
      "price": "905000000000000000000",
      "reserved": "",
      "assetIds": []
    },
    {
      "x": 59,
      "y": 164,
      "size": 1,
      "price": "905000000000000000000",
      "reserved": "",
      "assetIds": []
    },
    {
      "x": 56,
      "y": 165,
      "size": 1,
      "price": "905000000000000000000",
      "reserved": "",
      "assetIds": []
    },
    {
      "x": 55,
      "y": 165,
      "size": 1,
      "price": "905000000000000000000",
      "reserved": "",
      "assetIds": []
    },
    {
      "x": 51,
      "y": 161,
      "size": 1,
      "price": "905000000000000000000",
      "reserved": "",
      "assetIds": []
    },
    {
      "x": 52,
      "y": 161,
      "size": 1,
      "price": "905000000000000000000",
      "reserved": "",
      "assetIds": []
    },
    {
      "x": 53,
      "y": 161,
      "size": 1,
      "price": "905000000000000000000",
      "reserved": "",
      "assetIds": []
    },
    {
      "x": 54,
      "y": 161,
      "size": 1,
      "price": "905000000000000000000",
      "reserved": "",
      "assetIds": []
    },
    {
      "x": 54,
      "y": 162,
      "size": 1,
      "price": "905000000000000000000",
      "reserved": "",
      "assetIds": []
    },
    {
      "x": 54,
      "y": 163,
      "size": 1,
      "price": "905000000000000000000",
      "reserved": "",
      "assetIds": []
    },
    {
      "x": 51,
      "y": 165,
      "size": 1,
      "price": "905000000000000000000",
      "reserved": "",
      "assetIds": []
    },
    {
      "x": 51,
      "y": 163,
      "size": 1,
      "price": "905000000000000000000",
      "reserved": "",
      "assetIds": []
    },
    {
      "x": 52,
      "y": 162,
      "size": 1,
      "price": "905000000000000000000",
      "reserved": "",
      "assetIds": []
    },
    {
      "x": 53,
      "y": 162,
      "size": 1,
      "price": "905000000000000000000",
      "reserved": "",
      "assetIds": []
    },
    {
      "x": 52,
      "y": 163,
      "size": 1,
      "price": "905000000000000000000",
      "reserved": "",
      "assetIds": []
    },
    {
      "x": 55,
      "y": 163,
      "size": 1,
      "price": "905000000000000000000",
      "reserved": "",
      "assetIds": []
    },
    {
      "x": 56,
      "y": 163,
      "size": 1,
      "price": "905000000000000000000",
      "reserved": "",
      "assetIds": []
    },
    {
      "x": 56,
      "y": 162,
      "size": 1,
      "price": "905000000000000000000",
      "reserved": "",
      "assetIds": []
    },
    {
      "x": 56,
      "y": 161,
      "size": 1,
      "price": "905000000000000000000",
      "reserved": "",
      "assetIds": []
    },
    {
      "x": 55,
      "y": 161,
      "size": 1,
      "price": "905000000000000000000",
      "reserved": "",
      "assetIds": []
    },
    {
      "x": 55,
      "y": 162,
      "size": 1,
      "price": "905000000000000000000",
      "reserved": "",
      "assetIds": []
    },
    {
      "x": 57,
      "y": 163,
      "size": 1,
      "price": "905000000000000000000",
      "reserved": "",
      "assetIds": []
    },
    {
      "x": 58,
      "y": 163,
      "size": 1,
      "price": "905000000000000000000",
      "reserved": "",
      "assetIds": []
    },
    {
      "x": 58,
      "y": 162,
      "size": 1,
      "price": "905000000000000000000",
      "reserved": "",
      "assetIds": []
    },
    {
      "x": 59,
      "y": 162,
      "size": 1,
      "price": "905000000000000000000",
      "reserved": "",
      "assetIds": []
    },
    {
      "x": 59,
      "y": 163,
      "size": 1,
      "price": "905000000000000000000",
      "reserved": "",
      "assetIds": []
    },
    {
      "x": 56,
      "y": 160,
      "size": 1,
      "price": "905000000000000000000",
      "reserved": "",
      "assetIds": []
    },
    {
      "x": 56,
      "y": 159,
      "size": 1,
      "price": "905000000000000000000",
      "reserved": "",
      "assetIds": []
    },
    {
      "x": 57,
      "y": 158,
      "size": 1,
      "price": "905000000000000000000",
      "reserved": "",
      "assetIds": []
    },
    {
      "x": 58,
      "y": 158,
      "size": 1,
      "price": "905000000000000000000",
      "reserved": "",
      "assetIds": []
    },
    {
      "x": 59,
      "y": 158,
      "size": 1,
      "price": "905000000000000000000",
      "reserved": "",
      "assetIds": []
    },
    {
      "x": 58,
      "y": 157,
      "size": 1,
      "price": "905000000000000000000",
      "reserved": "",
      "assetIds": []
    },
    {
      "x": 58,
      "y": 156,
      "size": 1,
      "price": "905000000000000000000",
      "reserved": "",
      "assetIds": []
    },
    {
      "x": 59,
      "y": 156,
      "size": 1,
      "price": "905000000000000000000",
      "reserved": "",
      "assetIds": []
    },
    {
      "x": 59,
      "y": 157,
      "size": 1,
      "price": "905000000000000000000",
      "reserved": "",
      "assetIds": []
    },
    {
      "x": 57,
      "y": 156,
      "size": 1,
      "price": "905000000000000000000",
      "reserved": "",
      "assetIds": []
    },
    {
      "x": 57,
      "y": 157,
      "size": 1,
      "price": "905000000000000000000",
      "reserved": "",
      "assetIds": []
    },
    {
      "x": 56,
      "y": 158,
      "size": 1,
      "price": "905000000000000000000",
      "reserved": "",
      "assetIds": []
    },
    {
      "x": 57,
      "y": 162,
      "size": 1,
      "price": "905000000000000000000",
      "reserved": "",
      "assetIds": []
    },
    {
      "x": 56,
      "y": 157,
      "size": 1,
      "price": "905000000000000000000",
      "reserved": "",
      "assetIds": []
    },
    {
      "x": 55,
      "y": 160,
      "size": 1,
      "price": "905000000000000000000",
      "reserved": "",
      "assetIds": []
    },
    {
      "x": 54,
      "y": 160,
      "size": 1,
      "price": "905000000000000000000",
      "reserved": "",
      "assetIds": []
    },
    {
      "x": 54,
      "y": 158,
      "size": 1,
      "price": "905000000000000000000",
      "reserved": "",
      "assetIds": []
    },
    {
      "x": 54,
      "y": 157,
      "size": 1,
      "price": "905000000000000000000",
      "reserved": "",
      "assetIds": []
    },
    {
      "x": 55,
      "y": 157,
      "size": 1,
      "price": "905000000000000000000",
      "reserved": "",
      "assetIds": []
    },
    {
      "x": 56,
      "y": 156,
      "size": 1,
      "price": "905000000000000000000",
      "reserved": "",
      "assetIds": []
    },
    {
      "x": 55,
      "y": 158,
      "size": 1,
      "price": "905000000000000000000",
      "reserved": "",
      "assetIds": []
    },
    {
      "x": 54,
      "y": 156,
      "size": 1,
      "price": "905000000000000000000",
      "reserved": "",
      "assetIds": []
    },
    {
      "x": 53,
      "y": 156,
      "size": 1,
      "price": "905000000000000000000",
      "reserved": "",
      "assetIds": []
    },
    {
      "x": 55,
      "y": 156,
      "size": 1,
      "price": "905000000000000000000",
      "reserved": "",
      "assetIds": []
    },
    {
      "x": 53,
      "y": 157,
      "size": 1,
      "price": "905000000000000000000",
      "reserved": "",
      "assetIds": []
    },
    {
      "x": 52,
      "y": 157,
      "size": 1,
      "price": "905000000000000000000",
      "reserved": "",
      "assetIds": []
    },
    {
      "x": 51,
      "y": 157,
      "size": 1,
      "price": "905000000000000000000",
      "reserved": "",
      "assetIds": []
    },
    {
      "x": 50,
      "y": 157,
      "size": 1,
      "price": "905000000000000000000",
      "reserved": "",
      "assetIds": []
    },
    {
      "x": 49,
      "y": 157,
      "size": 1,
      "price": "905000000000000000000",
      "reserved": "",
      "assetIds": []
    },
    {
      "x": 48,
      "y": 157,
      "size": 1,
      "price": "905000000000000000000",
      "reserved": "",
      "assetIds": []
    },
    {
      "x": 53,
      "y": 158,
      "size": 1,
      "price": "905000000000000000000",
      "reserved": "",
      "assetIds": []
    },
    {
      "x": 52,
      "y": 158,
      "size": 1,
      "price": "905000000000000000000",
      "reserved": "",
      "assetIds": []
    },
    {
      "x": 51,
      "y": 158,
      "size": 1,
      "price": "905000000000000000000",
      "reserved": "",
      "assetIds": []
    },
    {
      "x": 50,
      "y": 158,
      "size": 1,
      "price": "905000000000000000000",
      "reserved": "",
      "assetIds": []
    },
    {
      "x": 49,
      "y": 158,
      "size": 1,
      "price": "905000000000000000000",
      "reserved": "",
      "assetIds": []
    },
    {
      "x": 48,
      "y": 158,
      "size": 1,
      "price": "905000000000000000000",
      "reserved": "",
      "assetIds": []
    },
    {
      "x": 51,
      "y": 159,
      "size": 1,
      "price": "905000000000000000000",
      "reserved": "",
      "assetIds": []
    },
    {
      "x": 52,
      "y": 159,
      "size": 1,
      "price": "905000000000000000000",
      "reserved": "",
      "assetIds": []
    },
    {
      "x": 53,
      "y": 159,
      "size": 1,
      "price": "905000000000000000000",
      "reserved": "",
      "assetIds": []
    },
    {
      "x": 53,
      "y": 160,
      "size": 1,
      "price": "905000000000000000000",
      "reserved": "",
      "assetIds": []
    },
    {
      "x": 52,
      "y": 160,
      "size": 1,
      "price": "905000000000000000000",
      "reserved": "",
      "assetIds": []
    },
    {
      "x": 51,
      "y": 160,
      "size": 1,
      "price": "905000000000000000000",
      "reserved": "",
      "assetIds": []
    },
    {
      "x": 55,
      "y": 159,
      "size": 1,
      "price": "905000000000000000000",
      "reserved": "",
      "assetIds": []
    },
    {
      "x": 52,
      "y": 156,
      "size": 1,
      "price": "905000000000000000000",
      "reserved": "",
      "assetIds": []
    },
    {
      "x": 51,
      "y": 156,
      "size": 1,
      "price": "905000000000000000000",
      "reserved": "",
      "assetIds": []
    },
    {
      "x": 50,
      "y": 156,
      "size": 1,
      "price": "905000000000000000000",
      "reserved": "",
      "assetIds": []
    },
    {
      "x": 49,
      "y": 156,
      "size": 1,
      "price": "905000000000000000000",
      "reserved": "",
      "assetIds": []
    },
    {
      "x": 48,
      "y": 156,
      "size": 1,
      "price": "905000000000000000000",
      "reserved": "",
      "assetIds": []
    },
    {
      "x": 51,
      "y": 154,
      "size": 1,
      "price": "905000000000000000000",
      "reserved": "",
      "assetIds": []
    },
    {
      "x": 52,
      "y": 154,
      "size": 1,
      "price": "905000000000000000000",
      "reserved": "",
      "assetIds": []
    },
    {
      "x": 52,
      "y": 153,
      "size": 1,
      "price": "905000000000000000000",
      "reserved": "",
      "assetIds": []
    },
    {
      "x": 53,
      "y": 153,
      "size": 1,
      "price": "905000000000000000000",
      "reserved": "",
      "assetIds": []
    },
    {
      "x": 53,
      "y": 152,
      "size": 1,
      "price": "905000000000000000000",
      "reserved": "",
      "assetIds": []
    },
    {
      "x": 52,
      "y": 151,
      "size": 1,
      "price": "905000000000000000000",
      "reserved": "",
      "assetIds": []
    },
    {
      "x": 52,
      "y": 150,
      "size": 1,
      "price": "905000000000000000000",
      "reserved": "",
      "assetIds": []
    },
    {
      "x": 52,
      "y": 149,
      "size": 1,
      "price": "905000000000000000000",
      "reserved": "",
      "assetIds": []
    },
    {
      "x": 53,
      "y": 154,
      "size": 1,
      "price": "905000000000000000000",
      "reserved": "",
      "assetIds": []
    },
    {
      "x": 53,
      "y": 155,
      "size": 1,
      "price": "905000000000000000000",
      "reserved": "",
      "assetIds": []
    },
    {
      "x": 53,
      "y": 151,
      "size": 1,
      "price": "905000000000000000000",
      "reserved": "",
      "assetIds": []
    },
    {
      "x": 53,
      "y": 150,
      "size": 1,
      "price": "905000000000000000000",
      "reserved": "",
      "assetIds": []
    },
    {
      "x": 53,
      "y": 149,
      "size": 1,
      "price": "905000000000000000000",
      "reserved": "",
      "assetIds": []
    },
    {
      "x": 53,
      "y": 148,
      "size": 1,
      "price": "905000000000000000000",
      "reserved": "",
      "assetIds": []
    },
    {
      "x": 53,
      "y": 147,
      "size": 1,
      "price": "905000000000000000000",
      "reserved": "",
      "assetIds": []
    },
    {
      "x": 52,
      "y": 147,
      "size": 1,
      "price": "905000000000000000000",
      "reserved": "",
      "assetIds": []
    },
    {
      "x": 52,
      "y": 148,
      "size": 1,
      "price": "905000000000000000000",
      "reserved": "",
      "assetIds": []
    },
    {
      "x": 51,
      "y": 148,
      "size": 1,
      "price": "905000000000000000000",
      "reserved": "",
      "assetIds": []
    },
    {
      "x": 50,
      "y": 148,
      "size": 1,
      "price": "905000000000000000000",
      "reserved": "",
      "assetIds": []
    },
    {
      "x": 49,
      "y": 148,
      "size": 1,
      "price": "905000000000000000000",
      "reserved": "",
      "assetIds": []
    },
    {
      "x": 49,
      "y": 147,
      "size": 1,
      "price": "905000000000000000000",
      "reserved": "",
      "assetIds": []
    },
    {
      "x": 48,
      "y": 147,
      "size": 1,
      "price": "905000000000000000000",
      "reserved": "",
      "assetIds": []
    },
    {
      "x": 50,
      "y": 147,
      "size": 1,
      "price": "905000000000000000000",
      "reserved": "",
      "assetIds": []
    },
    {
      "x": 51,
      "y": 147,
      "size": 1,
      "price": "905000000000000000000",
      "reserved": "",
      "assetIds": []
    },
    {
      "x": 48,
      "y": 148,
      "size": 1,
      "price": "905000000000000000000",
      "reserved": "",
      "assetIds": []
    },
    {
      "x": 49,
      "y": 149,
      "size": 1,
      "price": "905000000000000000000",
      "reserved": "",
      "assetIds": []
    },
    {
      "x": 50,
      "y": 149,
      "size": 1,
      "price": "905000000000000000000",
      "reserved": "",
      "assetIds": []
    },
    {
      "x": 51,
      "y": 149,
      "size": 1,
      "price": "905000000000000000000",
      "reserved": "",
      "assetIds": []
    },
    {
      "x": 51,
      "y": 151,
      "size": 1,
      "price": "905000000000000000000",
      "reserved": "",
      "assetIds": []
    },
    {
      "x": 48,
      "y": 149,
      "size": 1,
      "price": "905000000000000000000",
      "reserved": "",
      "assetIds": []
    },
    {
      "x": 52,
      "y": 152,
      "size": 1,
      "price": "905000000000000000000",
      "reserved": "",
      "assetIds": []
    },
    {
      "x": 51,
      "y": 155,
      "size": 1,
      "price": "905000000000000000000",
      "reserved": "",
      "assetIds": []
    },
    {
      "x": 51,
      "y": 153,
      "size": 1,
      "price": "905000000000000000000",
      "reserved": "",
      "assetIds": []
    },
    {
      "x": 51,
      "y": 152,
      "size": 1,
      "price": "905000000000000000000",
      "reserved": "",
      "assetIds": []
    },
    {
      "x": 51,
      "y": 150,
      "size": 1,
      "price": "905000000000000000000",
      "reserved": "",
      "assetIds": []
    },
    {
      "x": 52,
      "y": 155,
      "size": 1,
      "price": "905000000000000000000",
      "reserved": "",
      "assetIds": []
    },
    {
      "x": 50,
      "y": 146,
      "size": 1,
      "price": "905000000000000000000",
      "reserved": "",
      "assetIds": []
    },
    {
      "x": 50,
      "y": 145,
      "size": 1,
      "price": "905000000000000000000",
      "reserved": "",
      "assetIds": []
    },
    {
      "x": 49,
      "y": 145,
      "size": 1,
      "price": "905000000000000000000",
      "reserved": "",
      "assetIds": []
    },
    {
      "x": 49,
      "y": 144,
      "size": 1,
      "price": "905000000000000000000",
      "reserved": "",
      "assetIds": []
    },
    {
      "x": 49,
      "y": 146,
      "size": 1,
      "price": "905000000000000000000",
      "reserved": "",
      "assetIds": []
    },
    {
      "x": 48,
      "y": 144,
      "size": 1,
      "price": "905000000000000000000",
      "reserved": "",
      "assetIds": []
    },
    {
      "x": 48,
      "y": 145,
      "size": 1,
      "price": "905000000000000000000",
      "reserved": "",
      "assetIds": []
    },
    {
      "x": 60,
      "y": 147,
      "size": 1,
      "price": "905000000000000000000",
      "reserved": "",
      "assetIds": []
    },
    {
      "x": 61,
      "y": 147,
      "size": 1,
      "price": "905000000000000000000",
      "reserved": "",
      "assetIds": []
    },
    {
      "x": 62,
      "y": 147,
      "size": 1,
      "price": "905000000000000000000",
      "reserved": "",
      "assetIds": []
    },
    {
      "x": 62,
      "y": 146,
      "size": 1,
      "price": "905000000000000000000",
      "reserved": "",
      "assetIds": []
    },
    {
      "x": 62,
      "y": 145,
      "size": 1,
      "price": "905000000000000000000",
      "reserved": "",
      "assetIds": []
    },
    {
      "x": 62,
      "y": 144,
      "size": 1,
      "price": "905000000000000000000",
      "reserved": "",
      "assetIds": []
    },
    {
      "x": 63,
      "y": 144,
      "size": 1,
      "price": "905000000000000000000",
      "reserved": "",
      "assetIds": []
    },
    {
      "x": 63,
      "y": 143,
      "size": 1,
      "price": "905000000000000000000",
      "reserved": "",
      "assetIds": []
    },
    {
      "x": 63,
      "y": 142,
      "size": 1,
      "price": "905000000000000000000",
      "reserved": "",
      "assetIds": []
    },
    {
      "x": 63,
      "y": 141,
      "size": 1,
      "price": "905000000000000000000",
      "reserved": "",
      "assetIds": []
    },
    {
      "x": 61,
      "y": 144,
      "size": 1,
      "price": "905000000000000000000",
      "reserved": "",
      "assetIds": []
    },
    {
      "x": 61,
      "y": 145,
      "size": 1,
      "price": "905000000000000000000",
      "reserved": "",
      "assetIds": []
    },
    {
      "x": 61,
      "y": 146,
      "size": 1,
      "price": "905000000000000000000",
      "reserved": "",
      "assetIds": []
    },
    {
      "x": 61,
      "y": 148,
      "size": 1,
      "price": "905000000000000000000",
      "reserved": "",
      "assetIds": []
    },
    {
      "x": 60,
      "y": 145,
      "size": 1,
      "price": "905000000000000000000",
      "reserved": "",
      "assetIds": []
    },
    {
      "x": 60,
      "y": 146,
      "size": 1,
      "price": "905000000000000000000",
      "reserved": "",
      "assetIds": []
    },
    {
      "x": 60,
      "y": 148,
      "size": 1,
      "price": "905000000000000000000",
      "reserved": "",
      "assetIds": []
    },
    {
      "x": 60,
      "y": 149,
      "size": 1,
      "price": "905000000000000000000",
      "reserved": "",
      "assetIds": []
    },
    {
      "x": 61,
      "y": 149,
      "size": 1,
      "price": "905000000000000000000",
      "reserved": "",
      "assetIds": []
    },
    {
      "x": 62,
      "y": 148,
      "size": 1,
      "price": "905000000000000000000",
      "reserved": "",
      "assetIds": []
    },
    {
      "x": 62,
      "y": 149,
      "size": 1,
      "price": "905000000000000000000",
      "reserved": "",
      "assetIds": []
    },
    {
      "x": 63,
      "y": 146,
      "size": 1,
      "price": "905000000000000000000",
      "reserved": "",
      "assetIds": []
    },
    {
      "x": 64,
      "y": 146,
      "size": 1,
      "price": "905000000000000000000",
      "reserved": "",
      "assetIds": []
    },
    {
      "x": 65,
      "y": 146,
      "size": 1,
      "price": "905000000000000000000",
      "reserved": "",
      "assetIds": []
    },
    {
      "x": 64,
      "y": 145,
      "size": 1,
      "price": "905000000000000000000",
      "reserved": "",
      "assetIds": []
    },
    {
      "x": 63,
      "y": 145,
      "size": 1,
      "price": "905000000000000000000",
      "reserved": "",
      "assetIds": []
    },
    {
      "x": 64,
      "y": 144,
      "size": 1,
      "price": "905000000000000000000",
      "reserved": "",
      "assetIds": []
    },
    {
      "x": 63,
      "y": 140,
      "size": 1,
      "price": "905000000000000000000",
      "reserved": "",
      "assetIds": []
    },
    {
      "x": 63,
      "y": 139,
      "size": 1,
      "price": "905000000000000000000",
      "reserved": "",
      "assetIds": []
    },
    {
      "x": 63,
      "y": 138,
      "size": 1,
      "price": "905000000000000000000",
      "reserved": "",
      "assetIds": []
    },
    {
      "x": 63,
      "y": 137,
      "size": 1,
      "price": "905000000000000000000",
      "reserved": "",
      "assetIds": []
    },
    {
      "x": 63,
      "y": 136,
      "size": 1,
      "price": "905000000000000000000",
      "reserved": "",
      "assetIds": []
    },
    {
      "x": 63,
      "y": 135,
      "size": 1,
      "price": "905000000000000000000",
      "reserved": "",
      "assetIds": []
    },
    {
      "x": 64,
      "y": 135,
      "size": 1,
      "price": "905000000000000000000",
      "reserved": "",
      "assetIds": []
    },
    {
      "x": 64,
      "y": 136,
      "size": 1,
      "price": "905000000000000000000",
      "reserved": "",
      "assetIds": []
    },
    {
      "x": 64,
      "y": 137,
      "size": 1,
      "price": "905000000000000000000",
      "reserved": "",
      "assetIds": []
    },
    {
      "x": 64,
      "y": 138,
      "size": 1,
      "price": "905000000000000000000",
      "reserved": "",
      "assetIds": []
    },
    {
      "x": 62,
      "y": 136,
      "size": 1,
      "price": "905000000000000000000",
      "reserved": "",
      "assetIds": []
    },
    {
      "x": 62,
      "y": 137,
      "size": 1,
      "price": "905000000000000000000",
      "reserved": "",
      "assetIds": []
    },
    {
      "x": 61,
      "y": 137,
      "size": 1,
      "price": "905000000000000000000",
      "reserved": "",
      "assetIds": []
    },
    {
      "x": 61,
      "y": 136,
      "size": 1,
      "price": "905000000000000000000",
      "reserved": "",
      "assetIds": []
    },
    {
      "x": 61,
      "y": 135,
      "size": 1,
      "price": "905000000000000000000",
      "reserved": "",
      "assetIds": []
    },
    {
      "x": 60,
      "y": 135,
      "size": 1,
      "price": "905000000000000000000",
      "reserved": "",
      "assetIds": []
    },
    {
      "x": 61,
      "y": 134,
      "size": 1,
      "price": "905000000000000000000",
      "reserved": "",
      "assetIds": []
    },
    {
      "x": 61,
      "y": 133,
      "size": 1,
      "price": "905000000000000000000",
      "reserved": "",
      "assetIds": []
    },
    {
      "x": 61,
      "y": 132,
      "size": 1,
      "price": "905000000000000000000",
      "reserved": "",
      "assetIds": []
    },
    {
      "x": 62,
      "y": 132,
      "size": 1,
      "price": "905000000000000000000",
      "reserved": "",
      "assetIds": []
    },
    {
      "x": 62,
      "y": 133,
      "size": 1,
      "price": "905000000000000000000",
      "reserved": "",
      "assetIds": []
    },
    {
      "x": 62,
      "y": 134,
      "size": 1,
      "price": "905000000000000000000",
      "reserved": "",
      "assetIds": []
    },
    {
      "x": 62,
      "y": 135,
      "size": 1,
      "price": "905000000000000000000",
      "reserved": "",
      "assetIds": []
    },
    {
      "x": 60,
      "y": 133,
      "size": 1,
      "price": "905000000000000000000",
      "reserved": "",
      "assetIds": []
    },
    {
      "x": 60,
      "y": 134,
      "size": 1,
      "price": "905000000000000000000",
      "reserved": "",
      "assetIds": []
    },
    {
      "x": 59,
      "y": 134,
      "size": 1,
      "price": "905000000000000000000",
      "reserved": "",
      "assetIds": []
    },
    {
      "x": 59,
      "y": 133,
      "size": 1,
      "price": "905000000000000000000",
      "reserved": "",
      "assetIds": []
    },
    {
      "x": 59,
      "y": 132,
      "size": 1,
      "price": "905000000000000000000",
      "reserved": "",
      "assetIds": []
    },
    {
      "x": 60,
      "y": 132,
      "size": 1,
      "price": "905000000000000000000",
      "reserved": "",
      "assetIds": []
    },
    {
      "x": 58,
      "y": 133,
      "size": 1,
      "price": "905000000000000000000",
      "reserved": "",
      "assetIds": []
    },
    {
      "x": 57,
      "y": 133,
      "size": 1,
      "price": "905000000000000000000",
      "reserved": "",
      "assetIds": []
    },
    {
      "x": 57,
      "y": 134,
      "size": 1,
      "price": "905000000000000000000",
      "reserved": "",
      "assetIds": []
    },
    {
      "x": 58,
      "y": 134,
      "size": 1,
      "price": "905000000000000000000",
      "reserved": "",
      "assetIds": []
    },
    {
      "x": 57,
      "y": 132,
      "size": 1,
      "price": "905000000000000000000",
      "reserved": "",
      "assetIds": []
    },
    {
      "x": 58,
      "y": 132,
      "size": 1,
      "price": "905000000000000000000",
      "reserved": "",
      "assetIds": []
    },
    {
      "x": 60,
      "y": 136,
      "size": 1,
      "price": "905000000000000000000",
      "reserved": "",
      "assetIds": []
    },
    {
      "x": 55,
      "y": 123,
      "size": 1,
      "price": "905000000000000000000",
      "reserved": "",
      "assetIds": []
    },
    {
      "x": 56,
      "y": 123,
      "size": 1,
      "price": "905000000000000000000",
      "reserved": "",
      "assetIds": []
    },
    {
      "x": 57,
      "y": 122,
      "size": 1,
      "price": "905000000000000000000",
      "reserved": "",
      "assetIds": []
    },
    {
      "x": 56,
      "y": 119,
      "size": 1,
      "price": "905000000000000000000",
      "reserved": "",
      "assetIds": []
    },
    {
      "x": 56,
      "y": 118,
      "size": 1,
      "price": "905000000000000000000",
      "reserved": "",
      "assetIds": []
    },
    {
      "x": 56,
      "y": 117,
      "size": 1,
      "price": "905000000000000000000",
      "reserved": "",
      "assetIds": []
    },
    {
      "x": 56,
      "y": 116,
      "size": 1,
      "price": "905000000000000000000",
      "reserved": "",
      "assetIds": []
    },
    {
      "x": 56,
      "y": 115,
      "size": 1,
      "price": "905000000000000000000",
      "reserved": "",
      "assetIds": []
    },
    {
      "x": 56,
      "y": 114,
      "size": 1,
      "price": "905000000000000000000",
      "reserved": "",
      "assetIds": []
    },
    {
      "x": 58,
      "y": 114,
      "size": 1,
      "price": "905000000000000000000",
      "reserved": "",
      "assetIds": []
    },
    {
      "x": 58,
      "y": 115,
      "size": 1,
      "price": "905000000000000000000",
      "reserved": "",
      "assetIds": []
    },
    {
      "x": 59,
      "y": 116,
      "size": 1,
      "price": "905000000000000000000",
      "reserved": "",
      "assetIds": []
    },
    {
      "x": 58,
      "y": 116,
      "size": 1,
      "price": "905000000000000000000",
      "reserved": "",
      "assetIds": []
    },
    {
      "x": 57,
      "y": 114,
      "size": 1,
      "price": "905000000000000000000",
      "reserved": "",
      "assetIds": []
    },
    {
      "x": 57,
      "y": 115,
      "size": 1,
      "price": "905000000000000000000",
      "reserved": "",
      "assetIds": []
    },
    {
      "x": 57,
      "y": 116,
      "size": 1,
      "price": "905000000000000000000",
      "reserved": "",
      "assetIds": []
    },
    {
      "x": 57,
      "y": 120,
      "size": 1,
      "price": "905000000000000000000",
      "reserved": "",
      "assetIds": []
    },
    {
      "x": 57,
      "y": 121,
      "size": 1,
      "price": "905000000000000000000",
      "reserved": "",
      "assetIds": []
    },
    {
      "x": 55,
      "y": 119,
      "size": 1,
      "price": "905000000000000000000",
      "reserved": "",
      "assetIds": []
    },
    {
      "x": 55,
      "y": 118,
      "size": 1,
      "price": "905000000000000000000",
      "reserved": "",
      "assetIds": []
    },
    {
      "x": 55,
      "y": 117,
      "size": 1,
      "price": "905000000000000000000",
      "reserved": "",
      "assetIds": []
    },
    {
      "x": 55,
      "y": 116,
      "size": 1,
      "price": "905000000000000000000",
      "reserved": "",
      "assetIds": []
    },
    {
      "x": 55,
      "y": 115,
      "size": 1,
      "price": "905000000000000000000",
      "reserved": "",
      "assetIds": []
    },
    {
      "x": 55,
      "y": 114,
      "size": 1,
      "price": "905000000000000000000",
      "reserved": "",
      "assetIds": []
    },
    {
      "x": 54,
      "y": 116,
      "size": 1,
      "price": "905000000000000000000",
      "reserved": "",
      "assetIds": []
    },
    {
      "x": 54,
      "y": 117,
      "size": 1,
      "price": "905000000000000000000",
      "reserved": "",
      "assetIds": []
    },
    {
      "x": 54,
      "y": 118,
      "size": 1,
      "price": "905000000000000000000",
      "reserved": "",
      "assetIds": []
    },
    {
      "x": 54,
      "y": 115,
      "size": 1,
      "price": "905000000000000000000",
      "reserved": "",
      "assetIds": []
    },
    {
      "x": 54,
      "y": 114,
      "size": 1,
      "price": "905000000000000000000",
      "reserved": "",
      "assetIds": []
    },
    {
      "x": 54,
      "y": 119,
      "size": 1,
      "price": "905000000000000000000",
      "reserved": "",
      "assetIds": []
    },
    {
      "x": 59,
      "y": 115,
      "size": 1,
      "price": "905000000000000000000",
      "reserved": "",
      "assetIds": []
    },
    {
      "x": 59,
      "y": 114,
      "size": 1,
      "price": "905000000000000000000",
      "reserved": "",
      "assetIds": []
    },
    {
      "x": 59,
      "y": 120,
      "size": 1,
      "price": "905000000000000000000",
      "reserved": "",
      "assetIds": []
    },
    {
      "x": 59,
      "y": 121,
      "size": 1,
      "price": "905000000000000000000",
      "reserved": "",
      "assetIds": []
    },
    {
      "x": 59,
      "y": 123,
      "size": 1,
      "price": "905000000000000000000",
      "reserved": "",
      "assetIds": []
    },
    {
      "x": 59,
      "y": 124,
      "size": 1,
      "price": "905000000000000000000",
      "reserved": "",
      "assetIds": []
    },
    {
      "x": 59,
      "y": 125,
      "size": 1,
      "price": "905000000000000000000",
      "reserved": "",
      "assetIds": []
    },
    {
      "x": 58,
      "y": 125,
      "size": 1,
      "price": "905000000000000000000",
      "reserved": "",
      "assetIds": []
    },
    {
      "x": 58,
      "y": 124,
      "size": 1,
      "price": "905000000000000000000",
      "reserved": "",
      "assetIds": []
    },
    {
      "x": 58,
      "y": 123,
      "size": 1,
      "price": "905000000000000000000",
      "reserved": "",
      "assetIds": []
    },
    {
      "x": 58,
      "y": 122,
      "size": 1,
      "price": "905000000000000000000",
      "reserved": "",
      "assetIds": []
    },
    {
      "x": 58,
      "y": 121,
      "size": 1,
      "price": "905000000000000000000",
      "reserved": "",
      "assetIds": []
    },
    {
      "x": 58,
      "y": 120,
      "size": 1,
      "price": "905000000000000000000",
      "reserved": "",
      "assetIds": []
    },
    {
      "x": 57,
      "y": 123,
      "size": 1,
      "price": "905000000000000000000",
      "reserved": "",
      "assetIds": []
    },
    {
      "x": 57,
      "y": 125,
      "size": 1,
      "price": "905000000000000000000",
      "reserved": "",
      "assetIds": []
    },
    {
      "x": 56,
      "y": 125,
      "size": 1,
      "price": "905000000000000000000",
      "reserved": "",
      "assetIds": []
    },
    {
      "x": 56,
      "y": 124,
      "size": 1,
      "price": "905000000000000000000",
      "reserved": "",
      "assetIds": []
    },
    {
      "x": 59,
      "y": 122,
      "size": 1,
      "price": "905000000000000000000",
      "reserved": "",
      "assetIds": []
    },
    {
      "x": 57,
      "y": 124,
      "size": 1,
      "price": "905000000000000000000",
      "reserved": "",
      "assetIds": []
    },
    {
      "x": 55,
      "y": 125,
      "size": 1,
      "price": "905000000000000000000",
      "reserved": "",
      "assetIds": []
    },
    {
      "x": 54,
      "y": 125,
      "size": 1,
      "price": "905000000000000000000",
      "reserved": "",
      "assetIds": []
    },
    {
      "x": 53,
      "y": 125,
      "size": 1,
      "price": "905000000000000000000",
      "reserved": "",
      "assetIds": []
    },
    {
      "x": 52,
      "y": 125,
      "size": 1,
      "price": "905000000000000000000",
      "reserved": "",
      "assetIds": []
    },
    {
      "x": 52,
      "y": 124,
      "size": 1,
      "price": "905000000000000000000",
      "reserved": "",
      "assetIds": []
    },
    {
      "x": 51,
      "y": 124,
      "size": 1,
      "price": "905000000000000000000",
      "reserved": "",
      "assetIds": []
    },
    {
      "x": 53,
      "y": 124,
      "size": 1,
      "price": "905000000000000000000",
      "reserved": "",
      "assetIds": []
    },
    {
      "x": 54,
      "y": 124,
      "size": 1,
      "price": "905000000000000000000",
      "reserved": "",
      "assetIds": []
    },
    {
      "x": 55,
      "y": 124,
      "size": 1,
      "price": "905000000000000000000",
      "reserved": "",
      "assetIds": []
    },
    {
      "x": 53,
      "y": 123,
      "size": 1,
      "price": "905000000000000000000",
      "reserved": "",
      "assetIds": []
    },
    {
      "x": 52,
      "y": 123,
      "size": 1,
      "price": "905000000000000000000",
      "reserved": "",
      "assetIds": []
    },
    {
      "x": 51,
      "y": 123,
      "size": 1,
      "price": "905000000000000000000",
      "reserved": "",
      "assetIds": []
    },
    {
      "x": 51,
      "y": 125,
      "size": 1,
      "price": "905000000000000000000",
      "reserved": "",
      "assetIds": []
    },
    {
      "x": 50,
      "y": 125,
      "size": 1,
      "price": "905000000000000000000",
      "reserved": "",
      "assetIds": []
    },
    {
      "x": 49,
      "y": 124,
      "size": 1,
      "price": "905000000000000000000",
      "reserved": "",
      "assetIds": []
    },
    {
      "x": 48,
      "y": 123,
      "size": 1,
      "price": "905000000000000000000",
      "reserved": "",
      "assetIds": []
    },
    {
      "x": 48,
      "y": 122,
      "size": 1,
      "price": "905000000000000000000",
      "reserved": "",
      "assetIds": []
    },
    {
      "x": 49,
      "y": 122,
      "size": 1,
      "price": "905000000000000000000",
      "reserved": "",
      "assetIds": []
    },
    {
      "x": 50,
      "y": 123,
      "size": 1,
      "price": "905000000000000000000",
      "reserved": "",
      "assetIds": []
    },
    {
      "x": 50,
      "y": 129,
      "size": 1,
      "price": "905000000000000000000",
      "reserved": "",
      "assetIds": []
    },
    {
      "x": 50,
      "y": 128,
      "size": 1,
      "price": "905000000000000000000",
      "reserved": "",
      "assetIds": []
    },
    {
      "x": 50,
      "y": 127,
      "size": 1,
      "price": "905000000000000000000",
      "reserved": "",
      "assetIds": []
    },
    {
      "x": 50,
      "y": 126,
      "size": 1,
      "price": "905000000000000000000",
      "reserved": "",
      "assetIds": []
    },
    {
      "x": 50,
      "y": 124,
      "size": 1,
      "price": "905000000000000000000",
      "reserved": "",
      "assetIds": []
    },
    {
      "x": 49,
      "y": 123,
      "size": 1,
      "price": "905000000000000000000",
      "reserved": "",
      "assetIds": []
    },
    {
      "x": 49,
      "y": 125,
      "size": 1,
      "price": "905000000000000000000",
      "reserved": "",
      "assetIds": []
    },
    {
      "x": 48,
      "y": 127,
      "size": 1,
      "price": "905000000000000000000",
      "reserved": "",
      "assetIds": []
    },
    {
      "x": 48,
      "y": 128,
      "size": 1,
      "price": "905000000000000000000",
      "reserved": "",
      "assetIds": []
    },
    {
      "x": 48,
      "y": 129,
      "size": 1,
      "price": "905000000000000000000",
      "reserved": "",
      "assetIds": []
    },
    {
      "x": 48,
      "y": 130,
      "size": 1,
      "price": "905000000000000000000",
      "reserved": "",
      "assetIds": []
    },
    {
      "x": 48,
      "y": 131,
      "size": 1,
      "price": "905000000000000000000",
      "reserved": "",
      "assetIds": []
    },
    {
      "x": 47,
      "y": 128,
      "size": 1,
      "price": "905000000000000000000",
      "reserved": "",
      "assetIds": []
    },
    {
      "x": 47,
      "y": 126,
      "size": 1,
      "price": "905000000000000000000",
      "reserved": "",
      "assetIds": []
    },
    {
      "x": 47,
      "y": 125,
      "size": 1,
      "price": "905000000000000000000",
      "reserved": "",
      "assetIds": []
    },
    {
      "x": 47,
      "y": 124,
      "size": 1,
      "price": "905000000000000000000",
      "reserved": "",
      "assetIds": []
    },
    {
      "x": 47,
      "y": 123,
      "size": 1,
      "price": "905000000000000000000",
      "reserved": "",
      "assetIds": []
    },
    {
      "x": 47,
      "y": 122,
      "size": 1,
      "price": "905000000000000000000",
      "reserved": "",
      "assetIds": []
    },
    {
      "x": 48,
      "y": 121,
      "size": 1,
      "price": "905000000000000000000",
      "reserved": "",
      "assetIds": []
    },
    {
      "x": 49,
      "y": 120,
      "size": 1,
      "price": "905000000000000000000",
      "reserved": "",
      "assetIds": []
    },
    {
      "x": 49,
      "y": 121,
      "size": 1,
      "price": "905000000000000000000",
      "reserved": "",
      "assetIds": []
    },
    {
      "x": 49,
      "y": 127,
      "size": 1,
      "price": "905000000000000000000",
      "reserved": "",
      "assetIds": []
    },
    {
      "x": 50,
      "y": 130,
      "size": 1,
      "price": "905000000000000000000",
      "reserved": "",
      "assetIds": []
    },
    {
      "x": 50,
      "y": 131,
      "size": 1,
      "price": "905000000000000000000",
      "reserved": "",
      "assetIds": []
    },
    {
      "x": 50,
      "y": 121,
      "size": 1,
      "price": "905000000000000000000",
      "reserved": "",
      "assetIds": []
    },
    {
      "x": 49,
      "y": 126,
      "size": 1,
      "price": "905000000000000000000",
      "reserved": "",
      "assetIds": []
    },
    {
      "x": 49,
      "y": 128,
      "size": 1,
      "price": "905000000000000000000",
      "reserved": "",
      "assetIds": []
    },
    {
      "x": 49,
      "y": 129,
      "size": 1,
      "price": "905000000000000000000",
      "reserved": "",
      "assetIds": []
    },
    {
      "x": 49,
      "y": 130,
      "size": 1,
      "price": "905000000000000000000",
      "reserved": "",
      "assetIds": []
    },
    {
      "x": 49,
      "y": 131,
      "size": 1,
      "price": "905000000000000000000",
      "reserved": "",
      "assetIds": []
    },
    {
      "x": 48,
      "y": 126,
      "size": 1,
      "price": "905000000000000000000",
      "reserved": "",
      "assetIds": []
    },
    {
      "x": 48,
      "y": 125,
      "size": 1,
      "price": "905000000000000000000",
      "reserved": "",
      "assetIds": []
    },
    {
      "x": 48,
      "y": 124,
      "size": 1,
      "price": "905000000000000000000",
      "reserved": "",
      "assetIds": []
    },
    {
      "x": 54,
      "y": 123,
      "size": 1,
      "price": "905000000000000000000",
      "reserved": "",
      "assetIds": []
    },
    {
      "x": 46,
      "y": 121,
      "size": 1,
      "price": "905000000000000000000",
      "reserved": "",
      "assetIds": []
    },
    {
      "x": 45,
      "y": 121,
      "size": 1,
      "price": "905000000000000000000",
      "reserved": "",
      "assetIds": []
    },
    {
      "x": 44,
      "y": 121,
      "size": 1,
      "price": "905000000000000000000",
      "reserved": "",
      "assetIds": []
    },
    {
      "x": 44,
      "y": 120,
      "size": 1,
      "price": "905000000000000000000",
      "reserved": "",
      "assetIds": []
    },
    {
      "x": 45,
      "y": 120,
      "size": 1,
      "price": "905000000000000000000",
      "reserved": "",
      "assetIds": []
    },
    {
      "x": 46,
      "y": 120,
      "size": 1,
      "price": "905000000000000000000",
      "reserved": "",
      "assetIds": []
    },
    {
      "x": 47,
      "y": 120,
      "size": 1,
      "price": "905000000000000000000",
      "reserved": "",
      "assetIds": []
    },
    {
      "x": 50,
      "y": 120,
      "size": 1,
      "price": "905000000000000000000",
      "reserved": "",
      "assetIds": []
    },
    {
      "x": 47,
      "y": 121,
      "size": 1,
      "price": "905000000000000000000",
      "reserved": "",
      "assetIds": []
    },
    {
      "x": 43,
      "y": 121,
      "size": 1,
      "price": "905000000000000000000",
      "reserved": "",
      "assetIds": []
    },
    {
      "x": 42,
      "y": 121,
      "size": 1,
      "price": "905000000000000000000",
      "reserved": "",
      "assetIds": []
    },
    {
      "x": 42,
      "y": 120,
      "size": 1,
      "price": "905000000000000000000",
      "reserved": "",
      "assetIds": []
    },
    {
      "x": 43,
      "y": 120,
      "size": 1,
      "price": "905000000000000000000",
      "reserved": "",
      "assetIds": []
    },
    {
      "x": 43,
      "y": 122,
      "size": 1,
      "price": "905000000000000000000",
      "reserved": "",
      "assetIds": []
    },
    {
      "x": 44,
      "y": 123,
      "size": 1,
      "price": "905000000000000000000",
      "reserved": "",
      "assetIds": []
    },
    {
      "x": 45,
      "y": 123,
      "size": 1,
      "price": "905000000000000000000",
      "reserved": "",
      "assetIds": []
    },
    {
      "x": 46,
      "y": 123,
      "size": 1,
      "price": "905000000000000000000",
      "reserved": "",
      "assetIds": []
    },
    {
      "x": 43,
      "y": 123,
      "size": 1,
      "price": "905000000000000000000",
      "reserved": "",
      "assetIds": []
    },
    {
      "x": 46,
      "y": 122,
      "size": 1,
      "price": "905000000000000000000",
      "reserved": "",
      "assetIds": []
    },
    {
      "x": 45,
      "y": 122,
      "size": 1,
      "price": "905000000000000000000",
      "reserved": "",
      "assetIds": []
    },
    {
      "x": 44,
      "y": 122,
      "size": 1,
      "price": "905000000000000000000",
      "reserved": "",
      "assetIds": []
    },
    {
      "x": 42,
      "y": 122,
      "size": 1,
      "price": "905000000000000000000",
      "reserved": "",
      "assetIds": []
    },
    {
      "x": 44,
      "y": 124,
      "size": 1,
      "price": "905000000000000000000",
      "reserved": "",
      "assetIds": []
    },
    {
      "x": 45,
      "y": 124,
      "size": 1,
      "price": "905000000000000000000",
      "reserved": "",
      "assetIds": []
    },
    {
      "x": 45,
      "y": 125,
      "size": 1,
      "price": "905000000000000000000",
      "reserved": "",
      "assetIds": []
    },
    {
      "x": 45,
      "y": 126,
      "size": 1,
      "price": "905000000000000000000",
      "reserved": "",
      "assetIds": []
    },
    {
      "x": 46,
      "y": 126,
      "size": 1,
      "price": "905000000000000000000",
      "reserved": "",
      "assetIds": []
    },
    {
      "x": 46,
      "y": 127,
      "size": 1,
      "price": "905000000000000000000",
      "reserved": "",
      "assetIds": []
    },
    {
      "x": 47,
      "y": 127,
      "size": 1,
      "price": "905000000000000000000",
      "reserved": "",
      "assetIds": []
    },
    {
      "x": 46,
      "y": 128,
      "size": 1,
      "price": "905000000000000000000",
      "reserved": "",
      "assetIds": []
    },
    {
      "x": 45,
      "y": 128,
      "size": 1,
      "price": "905000000000000000000",
      "reserved": "",
      "assetIds": []
    },
    {
      "x": 45,
      "y": 127,
      "size": 1,
      "price": "905000000000000000000",
      "reserved": "",
      "assetIds": []
    },
    {
      "x": 44,
      "y": 127,
      "size": 1,
      "price": "905000000000000000000",
      "reserved": "",
      "assetIds": []
    },
    {
      "x": 44,
      "y": 126,
      "size": 1,
      "price": "905000000000000000000",
      "reserved": "",
      "assetIds": []
    },
    {
      "x": 43,
      "y": 126,
      "size": 1,
      "price": "905000000000000000000",
      "reserved": "",
      "assetIds": []
    },
    {
      "x": 43,
      "y": 125,
      "size": 1,
      "price": "905000000000000000000",
      "reserved": "",
      "assetIds": []
    },
    {
      "x": 42,
      "y": 125,
      "size": 1,
      "price": "905000000000000000000",
      "reserved": "",
      "assetIds": []
    },
    {
      "x": 42,
      "y": 124,
      "size": 1,
      "price": "905000000000000000000",
      "reserved": "",
      "assetIds": []
    },
    {
      "x": 43,
      "y": 124,
      "size": 1,
      "price": "905000000000000000000",
      "reserved": "",
      "assetIds": []
    },
    {
      "x": 46,
      "y": 124,
      "size": 1,
      "price": "905000000000000000000",
      "reserved": "",
      "assetIds": []
    },
    {
      "x": 46,
      "y": 125,
      "size": 1,
      "price": "905000000000000000000",
      "reserved": "",
      "assetIds": []
    },
    {
      "x": 44,
      "y": 129,
      "size": 1,
      "price": "905000000000000000000",
      "reserved": "",
      "assetIds": []
    },
    {
      "x": 43,
      "y": 128,
      "size": 1,
      "price": "905000000000000000000",
      "reserved": "",
      "assetIds": []
    },
    {
      "x": 43,
      "y": 127,
      "size": 1,
      "price": "905000000000000000000",
      "reserved": "",
      "assetIds": []
    },
    {
      "x": 44,
      "y": 128,
      "size": 1,
      "price": "905000000000000000000",
      "reserved": "",
      "assetIds": []
    },
    {
      "x": 44,
      "y": 130,
      "size": 1,
      "price": "905000000000000000000",
      "reserved": "",
      "assetIds": []
    },
    {
      "x": 43,
      "y": 129,
      "size": 1,
      "price": "905000000000000000000",
      "reserved": "",
      "assetIds": []
    },
    {
      "x": 42,
      "y": 130,
      "size": 1,
      "price": "905000000000000000000",
      "reserved": "",
      "assetIds": []
    },
    {
      "x": 43,
      "y": 130,
      "size": 1,
      "price": "905000000000000000000",
      "reserved": "",
      "assetIds": []
    },
    {
      "x": 43,
      "y": 131,
      "size": 1,
      "price": "905000000000000000000",
      "reserved": "",
      "assetIds": []
    },
    {
      "x": 42,
      "y": 128,
      "size": 1,
      "price": "905000000000000000000",
      "reserved": "",
      "assetIds": []
    },
    {
      "x": 42,
      "y": 126,
      "size": 1,
      "price": "905000000000000000000",
      "reserved": "",
      "assetIds": []
    },
    {
      "x": 42,
      "y": 127,
      "size": 1,
      "price": "905000000000000000000",
      "reserved": "",
      "assetIds": []
    },
    {
      "x": 38,
      "y": 131,
      "size": 1,
      "price": "905000000000000000000",
      "reserved": "",
      "assetIds": []
    },
    {
      "x": 38,
      "y": 130,
      "size": 1,
      "price": "905000000000000000000",
      "reserved": "",
      "assetIds": []
    },
    {
      "x": 37,
      "y": 130,
      "size": 1,
      "price": "905000000000000000000",
      "reserved": "",
      "assetIds": []
    },
    {
      "x": 37,
      "y": 129,
      "size": 1,
      "price": "905000000000000000000",
      "reserved": "",
      "assetIds": []
    },
    {
      "x": 38,
      "y": 129,
      "size": 1,
      "price": "905000000000000000000",
      "reserved": "",
      "assetIds": []
    },
    {
      "x": 36,
      "y": 129,
      "size": 1,
      "price": "905000000000000000000",
      "reserved": "",
      "assetIds": []
    },
    {
      "x": 36,
      "y": 131,
      "size": 1,
      "price": "905000000000000000000",
      "reserved": "",
      "assetIds": []
    },
    {
      "x": 37,
      "y": 131,
      "size": 1,
      "price": "905000000000000000000",
      "reserved": "",
      "assetIds": []
    },
    {
      "x": 36,
      "y": 130,
      "size": 1,
      "price": "905000000000000000000",
      "reserved": "",
      "assetIds": []
    },
    {
      "x": 38,
      "y": 141,
      "size": 1,
      "price": "905000000000000000000",
      "reserved": "",
      "assetIds": []
    },
    {
      "x": 38,
      "y": 142,
      "size": 1,
      "price": "905000000000000000000",
      "reserved": "",
      "assetIds": []
    },
    {
      "x": 38,
      "y": 143,
      "size": 1,
      "price": "905000000000000000000",
      "reserved": "",
      "assetIds": []
    },
    {
      "x": 37,
      "y": 141,
      "size": 1,
      "price": "905000000000000000000",
      "reserved": "",
      "assetIds": []
    },
    {
      "x": 37,
      "y": 142,
      "size": 1,
      "price": "905000000000000000000",
      "reserved": "",
      "assetIds": []
    },
    {
      "x": 37,
      "y": 143,
      "size": 1,
      "price": "905000000000000000000",
      "reserved": "",
      "assetIds": []
    },
    {
      "x": 36,
      "y": 143,
      "size": 1,
      "price": "905000000000000000000",
      "reserved": "",
      "assetIds": []
    },
    {
      "x": 36,
      "y": 142,
      "size": 1,
      "price": "905000000000000000000",
      "reserved": "",
      "assetIds": []
    },
    {
      "x": 36,
      "y": 141,
      "size": 1,
      "price": "905000000000000000000",
      "reserved": "",
      "assetIds": []
    },
    {
      "x": 39,
      "y": 138,
      "size": 1,
      "price": "905000000000000000000",
      "reserved": "",
      "assetIds": []
    },
    {
      "x": 40,
      "y": 138,
      "size": 1,
      "price": "905000000000000000000",
      "reserved": "",
      "assetIds": []
    },
    {
      "x": 40,
      "y": 140,
      "size": 1,
      "price": "905000000000000000000",
      "reserved": "",
      "assetIds": []
    },
    {
      "x": 40,
      "y": 139,
      "size": 1,
      "price": "905000000000000000000",
      "reserved": "",
      "assetIds": []
    },
    {
      "x": 41,
      "y": 139,
      "size": 1,
      "price": "905000000000000000000",
      "reserved": "",
      "assetIds": []
    },
    {
      "x": 41,
      "y": 140,
      "size": 1,
      "price": "905000000000000000000",
      "reserved": "",
      "assetIds": []
    },
    {
      "x": 39,
      "y": 139,
      "size": 1,
      "price": "905000000000000000000",
      "reserved": "",
      "assetIds": []
    },
    {
      "x": 39,
      "y": 140,
      "size": 1,
      "price": "905000000000000000000",
      "reserved": "",
      "assetIds": []
    },
    {
      "x": 41,
      "y": 138,
      "size": 1,
      "price": "905000000000000000000",
      "reserved": "",
      "assetIds": []
    },
    {
      "x": 48,
      "y": 106,
      "size": 1,
      "price": "905000000000000000000",
      "reserved": "",
      "assetIds": []
    },
    {
      "x": 48,
      "y": 104,
      "size": 1,
      "price": "905000000000000000000",
      "reserved": "",
      "assetIds": []
    },
    {
      "x": 48,
      "y": 103,
      "size": 1,
      "price": "905000000000000000000",
      "reserved": "",
      "assetIds": []
    },
    {
      "x": 49,
      "y": 102,
      "size": 1,
      "price": "905000000000000000000",
      "reserved": "",
      "assetIds": []
    },
    {
      "x": 49,
      "y": 101,
      "size": 1,
      "price": "905000000000000000000",
      "reserved": "",
      "assetIds": []
    },
    {
      "x": 49,
      "y": 100,
      "size": 1,
      "price": "905000000000000000000",
      "reserved": "",
      "assetIds": []
    },
    {
      "x": 49,
      "y": 99,
      "size": 1,
      "price": "905000000000000000000",
      "reserved": "",
      "assetIds": []
    },
    {
      "x": 50,
      "y": 103,
      "size": 1,
      "price": "905000000000000000000",
      "reserved": "",
      "assetIds": []
    },
    {
      "x": 50,
      "y": 102,
      "size": 1,
      "price": "905000000000000000000",
      "reserved": "",
      "assetIds": []
    },
    {
      "x": 51,
      "y": 98,
      "size": 1,
      "price": "905000000000000000000",
      "reserved": "",
      "assetIds": []
    },
    {
      "x": 51,
      "y": 97,
      "size": 1,
      "price": "905000000000000000000",
      "reserved": "",
      "assetIds": []
    },
    {
      "x": 52,
      "y": 96,
      "size": 1,
      "price": "905000000000000000000",
      "reserved": "",
      "assetIds": []
    },
    {
      "x": 52,
      "y": 97,
      "size": 1,
      "price": "905000000000000000000",
      "reserved": "",
      "assetIds": []
    },
    {
      "x": 52,
      "y": 98,
      "size": 1,
      "price": "905000000000000000000",
      "reserved": "",
      "assetIds": []
    },
    {
      "x": 53,
      "y": 98,
      "size": 1,
      "price": "905000000000000000000",
      "reserved": "",
      "assetIds": []
    },
    {
      "x": 53,
      "y": 97,
      "size": 1,
      "price": "905000000000000000000",
      "reserved": "",
      "assetIds": []
    },
    {
      "x": 53,
      "y": 96,
      "size": 1,
      "price": "905000000000000000000",
      "reserved": "",
      "assetIds": []
    },
    {
      "x": 65,
      "y": 100,
      "size": 1,
      "price": "905000000000000000000",
      "reserved": "",
      "assetIds": []
    },
    {
      "x": 64,
      "y": 100,
      "size": 1,
      "price": "905000000000000000000",
      "reserved": "",
      "assetIds": []
    },
    {
      "x": 63,
      "y": 100,
      "size": 1,
      "price": "905000000000000000000",
      "reserved": "",
      "assetIds": []
    },
    {
      "x": 63,
      "y": 99,
      "size": 1,
      "price": "905000000000000000000",
      "reserved": "",
      "assetIds": []
    },
    {
      "x": 65,
      "y": 99,
      "size": 1,
      "price": "905000000000000000000",
      "reserved": "",
      "assetIds": []
    },
    {
      "x": 64,
      "y": 99,
      "size": 1,
      "price": "905000000000000000000",
      "reserved": "",
      "assetIds": []
    },
    {
      "x": 64,
      "y": 101,
      "size": 1,
      "price": "905000000000000000000",
      "reserved": "",
      "assetIds": []
    },
    {
      "x": 50,
      "y": 99,
      "size": 1,
      "price": "905000000000000000000",
      "reserved": "",
      "assetIds": []
    },
    {
      "x": 51,
      "y": 96,
      "size": 1,
      "price": "905000000000000000000",
      "reserved": "",
      "assetIds": []
    },
    {
      "x": 50,
      "y": 101,
      "size": 1,
      "price": "905000000000000000000",
      "reserved": "",
      "assetIds": []
    },
    {
      "x": 48,
      "y": 100,
      "size": 1,
      "price": "905000000000000000000",
      "reserved": "",
      "assetIds": []
    },
    {
      "x": 50,
      "y": 104,
      "size": 1,
      "price": "905000000000000000000",
      "reserved": "",
      "assetIds": []
    },
    {
      "x": 49,
      "y": 104,
      "size": 1,
      "price": "905000000000000000000",
      "reserved": "",
      "assetIds": []
    },
    {
      "x": 51,
      "y": 103,
      "size": 1,
      "price": "905000000000000000000",
      "reserved": "",
      "assetIds": []
    },
    {
      "x": 52,
      "y": 103,
      "size": 1,
      "price": "905000000000000000000",
      "reserved": "",
      "assetIds": []
    },
    {
      "x": 53,
      "y": 103,
      "size": 1,
      "price": "905000000000000000000",
      "reserved": "",
      "assetIds": []
    },
    {
      "x": 53,
      "y": 102,
      "size": 1,
      "price": "905000000000000000000",
      "reserved": "",
      "assetIds": []
    },
    {
      "x": 52,
      "y": 102,
      "size": 1,
      "price": "905000000000000000000",
      "reserved": "",
      "assetIds": []
    },
    {
      "x": 51,
      "y": 102,
      "size": 1,
      "price": "905000000000000000000",
      "reserved": "",
      "assetIds": []
    },
    {
      "x": 53,
      "y": 104,
      "size": 1,
      "price": "905000000000000000000",
      "reserved": "",
      "assetIds": []
    },
    {
      "x": 52,
      "y": 104,
      "size": 1,
      "price": "905000000000000000000",
      "reserved": "",
      "assetIds": []
    },
    {
      "x": 51,
      "y": 104,
      "size": 1,
      "price": "905000000000000000000",
      "reserved": "",
      "assetIds": []
    },
    {
      "x": 49,
      "y": 103,
      "size": 1,
      "price": "905000000000000000000",
      "reserved": "",
      "assetIds": []
    },
    {
      "x": 48,
      "y": 102,
      "size": 1,
      "price": "905000000000000000000",
      "reserved": "",
      "assetIds": []
    },
    {
      "x": 49,
      "y": 105,
      "size": 1,
      "price": "905000000000000000000",
      "reserved": "",
      "assetIds": []
    },
    {
      "x": 50,
      "y": 105,
      "size": 1,
      "price": "905000000000000000000",
      "reserved": "",
      "assetIds": []
    },
    {
      "x": 50,
      "y": 106,
      "size": 1,
      "price": "905000000000000000000",
      "reserved": "",
      "assetIds": []
    },
    {
      "x": 50,
      "y": 107,
      "size": 1,
      "price": "905000000000000000000",
      "reserved": "",
      "assetIds": []
    },
    {
      "x": 49,
      "y": 106,
      "size": 1,
      "price": "905000000000000000000",
      "reserved": "",
      "assetIds": []
    },
    {
      "x": 48,
      "y": 107,
      "size": 1,
      "price": "905000000000000000000",
      "reserved": "",
      "assetIds": []
    },
    {
      "x": 49,
      "y": 107,
      "size": 1,
      "price": "905000000000000000000",
      "reserved": "",
      "assetIds": []
    },
    {
      "x": 149,
      "y": 41,
      "size": 1,
      "price": "905000000000000000000",
      "reserved": "",
      "assetIds": []
    },
    {
      "x": 148,
      "y": 41,
      "size": 1,
      "price": "905000000000000000000",
      "reserved": "",
      "assetIds": []
    },
    {
      "x": 148,
      "y": 40,
      "size": 1,
      "price": "905000000000000000000",
      "reserved": "",
      "assetIds": []
    },
    {
      "x": 147,
      "y": 39,
      "size": 1,
      "price": "905000000000000000000",
      "reserved": "",
      "assetIds": []
    },
    {
      "x": 147,
      "y": 38,
      "size": 1,
      "price": "905000000000000000000",
      "reserved": "",
      "assetIds": []
    },
    {
      "x": 146,
      "y": 37,
      "size": 1,
      "price": "905000000000000000000",
      "reserved": "",
      "assetIds": []
    },
    {
      "x": 146,
      "y": 36,
      "size": 1,
      "price": "905000000000000000000",
      "reserved": "",
      "assetIds": []
    },
    {
      "x": 146,
      "y": 35,
      "size": 1,
      "price": "905000000000000000000",
      "reserved": "",
      "assetIds": []
    },
    {
      "x": 145,
      "y": 35,
      "size": 1,
      "price": "905000000000000000000",
      "reserved": "",
      "assetIds": []
    },
    {
      "x": 145,
      "y": 34,
      "size": 1,
      "price": "905000000000000000000",
      "reserved": "",
      "assetIds": []
    },
    {
      "x": 144,
      "y": 33,
      "size": 1,
      "price": "905000000000000000000",
      "reserved": "",
      "assetIds": []
    },
    {
      "x": 145,
      "y": 33,
      "size": 1,
      "price": "905000000000000000000",
      "reserved": "",
      "assetIds": []
    },
    {
      "x": 146,
      "y": 34,
      "size": 1,
      "price": "905000000000000000000",
      "reserved": "",
      "assetIds": []
    },
    {
      "x": 149,
      "y": 40,
      "size": 1,
      "price": "905000000000000000000",
      "reserved": "",
      "assetIds": []
    },
    {
      "x": 149,
      "y": 39,
      "size": 1,
      "price": "905000000000000000000",
      "reserved": "",
      "assetIds": []
    },
    {
      "x": 149,
      "y": 38,
      "size": 1,
      "price": "905000000000000000000",
      "reserved": "",
      "assetIds": []
    },
    {
      "x": 149,
      "y": 37,
      "size": 1,
      "price": "905000000000000000000",
      "reserved": "",
      "assetIds": []
    },
    {
      "x": 148,
      "y": 36,
      "size": 1,
      "price": "905000000000000000000",
      "reserved": "",
      "assetIds": []
    },
    {
      "x": 148,
      "y": 35,
      "size": 1,
      "price": "905000000000000000000",
      "reserved": "",
      "assetIds": []
    },
    {
      "x": 148,
      "y": 34,
      "size": 1,
      "price": "905000000000000000000",
      "reserved": "",
      "assetIds": []
    },
    {
      "x": 148,
      "y": 33,
      "size": 1,
      "price": "905000000000000000000",
      "reserved": "",
      "assetIds": []
    },
    {
      "x": 147,
      "y": 33,
      "size": 1,
      "price": "905000000000000000000",
      "reserved": "",
      "assetIds": []
    },
    {
      "x": 147,
      "y": 34,
      "size": 1,
      "price": "905000000000000000000",
      "reserved": "",
      "assetIds": []
    },
    {
      "x": 148,
      "y": 37,
      "size": 1,
      "price": "905000000000000000000",
      "reserved": "",
      "assetIds": []
    },
    {
      "x": 148,
      "y": 38,
      "size": 1,
      "price": "905000000000000000000",
      "reserved": "",
      "assetIds": []
    },
    {
      "x": 148,
      "y": 39,
      "size": 1,
      "price": "905000000000000000000",
      "reserved": "",
      "assetIds": []
    },
    {
      "x": 149,
      "y": 36,
      "size": 1,
      "price": "905000000000000000000",
      "reserved": "",
      "assetIds": []
    },
    {
      "x": 149,
      "y": 35,
      "size": 1,
      "price": "905000000000000000000",
      "reserved": "",
      "assetIds": []
    },
    {
      "x": 149,
      "y": 34,
      "size": 1,
      "price": "905000000000000000000",
      "reserved": "",
      "assetIds": []
    },
    {
      "x": 149,
      "y": 33,
      "size": 1,
      "price": "905000000000000000000",
      "reserved": "",
      "assetIds": []
    },
    {
      "x": 147,
      "y": 40,
      "size": 1,
      "price": "905000000000000000000",
      "reserved": "",
      "assetIds": []
    },
    {
      "x": 146,
      "y": 40,
      "size": 1,
      "price": "905000000000000000000",
      "reserved": "",
      "assetIds": []
    },
    {
      "x": 145,
      "y": 39,
      "size": 1,
      "price": "905000000000000000000",
      "reserved": "",
      "assetIds": []
    },
    {
      "x": 144,
      "y": 39,
      "size": 1,
      "price": "905000000000000000000",
      "reserved": "",
      "assetIds": []
    },
    {
      "x": 144,
      "y": 38,
      "size": 1,
      "price": "905000000000000000000",
      "reserved": "",
      "assetIds": []
    },
    {
      "x": 143,
      "y": 37,
      "size": 1,
      "price": "905000000000000000000",
      "reserved": "",
      "assetIds": []
    },
    {
      "x": 142,
      "y": 36,
      "size": 1,
      "price": "905000000000000000000",
      "reserved": "",
      "assetIds": []
    },
    {
      "x": 141,
      "y": 36,
      "size": 1,
      "price": "905000000000000000000",
      "reserved": "",
      "assetIds": []
    },
    {
      "x": 141,
      "y": 35,
      "size": 1,
      "price": "905000000000000000000",
      "reserved": "",
      "assetIds": []
    },
    {
      "x": 140,
      "y": 37,
      "size": 1,
      "price": "905000000000000000000",
      "reserved": "",
      "assetIds": []
    },
    {
      "x": 140,
      "y": 38,
      "size": 1,
      "price": "905000000000000000000",
      "reserved": "",
      "assetIds": []
    },
    {
      "x": 140,
      "y": 39,
      "size": 1,
      "price": "905000000000000000000",
      "reserved": "",
      "assetIds": []
    },
    {
      "x": 140,
      "y": 40,
      "size": 1,
      "price": "905000000000000000000",
      "reserved": "",
      "assetIds": []
    },
    {
      "x": 141,
      "y": 40,
      "size": 1,
      "price": "905000000000000000000",
      "reserved": "",
      "assetIds": []
    },
    {
      "x": 143,
      "y": 40,
      "size": 1,
      "price": "905000000000000000000",
      "reserved": "",
      "assetIds": []
    },
    {
      "x": 143,
      "y": 39,
      "size": 1,
      "price": "905000000000000000000",
      "reserved": "",
      "assetIds": []
    },
    {
      "x": 144,
      "y": 37,
      "size": 1,
      "price": "905000000000000000000",
      "reserved": "",
      "assetIds": []
    },
    {
      "x": 144,
      "y": 36,
      "size": 1,
      "price": "905000000000000000000",
      "reserved": "",
      "assetIds": []
    },
    {
      "x": 144,
      "y": 35,
      "size": 1,
      "price": "905000000000000000000",
      "reserved": "",
      "assetIds": []
    },
    {
      "x": 145,
      "y": 38,
      "size": 1,
      "price": "905000000000000000000",
      "reserved": "",
      "assetIds": []
    },
    {
      "x": 145,
      "y": 37,
      "size": 1,
      "price": "905000000000000000000",
      "reserved": "",
      "assetIds": []
    },
    {
      "x": 143,
      "y": 34,
      "size": 1,
      "price": "905000000000000000000",
      "reserved": "",
      "assetIds": []
    },
    {
      "x": 142,
      "y": 33,
      "size": 1,
      "price": "905000000000000000000",
      "reserved": "",
      "assetIds": []
    },
    {
      "x": 145,
      "y": 36,
      "size": 1,
      "price": "905000000000000000000",
      "reserved": "",
      "assetIds": []
    },
    {
      "x": 147,
      "y": 37,
      "size": 1,
      "price": "905000000000000000000",
      "reserved": "",
      "assetIds": []
    },
    {
      "x": 147,
      "y": 36,
      "size": 1,
      "price": "905000000000000000000",
      "reserved": "",
      "assetIds": []
    },
    {
      "x": 146,
      "y": 38,
      "size": 1,
      "price": "905000000000000000000",
      "reserved": "",
      "assetIds": []
    },
    {
      "x": 144,
      "y": 40,
      "size": 1,
      "price": "905000000000000000000",
      "reserved": "",
      "assetIds": []
    },
    {
      "x": 142,
      "y": 40,
      "size": 1,
      "price": "905000000000000000000",
      "reserved": "",
      "assetIds": []
    },
    {
      "x": 142,
      "y": 39,
      "size": 1,
      "price": "905000000000000000000",
      "reserved": "",
      "assetIds": []
    },
    {
      "x": 142,
      "y": 38,
      "size": 1,
      "price": "905000000000000000000",
      "reserved": "",
      "assetIds": []
    },
    {
      "x": 142,
      "y": 37,
      "size": 1,
      "price": "905000000000000000000",
      "reserved": "",
      "assetIds": []
    },
    {
      "x": 142,
      "y": 35,
      "size": 1,
      "price": "905000000000000000000",
      "reserved": "",
      "assetIds": []
    },
    {
      "x": 143,
      "y": 35,
      "size": 1,
      "price": "905000000000000000000",
      "reserved": "",
      "assetIds": []
    },
    {
      "x": 144,
      "y": 34,
      "size": 1,
      "price": "905000000000000000000",
      "reserved": "",
      "assetIds": []
    },
    {
      "x": 143,
      "y": 36,
      "size": 1,
      "price": "905000000000000000000",
      "reserved": "",
      "assetIds": []
    },
    {
      "x": 142,
      "y": 34,
      "size": 1,
      "price": "905000000000000000000",
      "reserved": "",
      "assetIds": []
    },
    {
      "x": 141,
      "y": 33,
      "size": 1,
      "price": "905000000000000000000",
      "reserved": "",
      "assetIds": []
    },
    {
      "x": 141,
      "y": 37,
      "size": 1,
      "price": "905000000000000000000",
      "reserved": "",
      "assetIds": []
    },
    {
      "x": 140,
      "y": 36,
      "size": 1,
      "price": "905000000000000000000",
      "reserved": "",
      "assetIds": []
    },
    {
      "x": 140,
      "y": 35,
      "size": 1,
      "price": "905000000000000000000",
      "reserved": "",
      "assetIds": []
    },
    {
      "x": 140,
      "y": 34,
      "size": 1,
      "price": "905000000000000000000",
      "reserved": "",
      "assetIds": []
    },
    {
      "x": 141,
      "y": 34,
      "size": 1,
      "price": "905000000000000000000",
      "reserved": "",
      "assetIds": []
    },
    {
      "x": 139,
      "y": 38,
      "size": 1,
      "price": "905000000000000000000",
      "reserved": "",
      "assetIds": []
    },
    {
      "x": 138,
      "y": 37,
      "size": 1,
      "price": "905000000000000000000",
      "reserved": "",
      "assetIds": []
    },
    {
      "x": 138,
      "y": 36,
      "size": 1,
      "price": "905000000000000000000",
      "reserved": "",
      "assetIds": []
    },
    {
      "x": 138,
      "y": 35,
      "size": 1,
      "price": "905000000000000000000",
      "reserved": "",
      "assetIds": []
    },
    {
      "x": 138,
      "y": 34,
      "size": 1,
      "price": "905000000000000000000",
      "reserved": "",
      "assetIds": []
    },
    {
      "x": 138,
      "y": 38,
      "size": 1,
      "price": "905000000000000000000",
      "reserved": "",
      "assetIds": []
    },
    {
      "x": 138,
      "y": 39,
      "size": 1,
      "price": "905000000000000000000",
      "reserved": "",
      "assetIds": []
    },
    {
      "x": 138,
      "y": 33,
      "size": 1,
      "price": "905000000000000000000",
      "reserved": "",
      "assetIds": []
    },
    {
      "x": 139,
      "y": 33,
      "size": 1,
      "price": "905000000000000000000",
      "reserved": "",
      "assetIds": []
    },
    {
      "x": 139,
      "y": 34,
      "size": 1,
      "price": "905000000000000000000",
      "reserved": "",
      "assetIds": []
    },
    {
      "x": 139,
      "y": 35,
      "size": 1,
      "price": "905000000000000000000",
      "reserved": "",
      "assetIds": []
    },
    {
      "x": 139,
      "y": 36,
      "size": 1,
      "price": "905000000000000000000",
      "reserved": "",
      "assetIds": []
    },
    {
      "x": 139,
      "y": 39,
      "size": 1,
      "price": "905000000000000000000",
      "reserved": "",
      "assetIds": []
    },
    {
      "x": 139,
      "y": 37,
      "size": 1,
      "price": "905000000000000000000",
      "reserved": "",
      "assetIds": []
    },
    {
      "x": 141,
      "y": 38,
      "size": 1,
      "price": "905000000000000000000",
      "reserved": "",
      "assetIds": []
    },
    {
      "x": 143,
      "y": 38,
      "size": 1,
      "price": "905000000000000000000",
      "reserved": "",
      "assetIds": []
    },
    {
      "x": 146,
      "y": 39,
      "size": 1,
      "price": "905000000000000000000",
      "reserved": "",
      "assetIds": []
    },
    {
      "x": 138,
      "y": 41,
      "size": 1,
      "price": "905000000000000000000",
      "reserved": "",
      "assetIds": []
    },
    {
      "x": 137,
      "y": 41,
      "size": 1,
      "price": "905000000000000000000",
      "reserved": "",
      "assetIds": []
    },
    {
      "x": 134,
      "y": 40,
      "size": 1,
      "price": "905000000000000000000",
      "reserved": "",
      "assetIds": []
    },
    {
      "x": 133,
      "y": 40,
      "size": 1,
      "price": "905000000000000000000",
      "reserved": "",
      "assetIds": []
    },
    {
      "x": 133,
      "y": 39,
      "size": 1,
      "price": "905000000000000000000",
      "reserved": "",
      "assetIds": []
    },
    {
      "x": 134,
      "y": 39,
      "size": 1,
      "price": "905000000000000000000",
      "reserved": "",
      "assetIds": []
    },
    {
      "x": 135,
      "y": 39,
      "size": 1,
      "price": "905000000000000000000",
      "reserved": "",
      "assetIds": []
    },
    {
      "x": 136,
      "y": 39,
      "size": 1,
      "price": "905000000000000000000",
      "reserved": "",
      "assetIds": []
    },
    {
      "x": 137,
      "y": 39,
      "size": 1,
      "price": "905000000000000000000",
      "reserved": "",
      "assetIds": []
    },
    {
      "x": 141,
      "y": 39,
      "size": 1,
      "price": "905000000000000000000",
      "reserved": "",
      "assetIds": []
    },
    {
      "x": 132,
      "y": 39,
      "size": 1,
      "price": "905000000000000000000",
      "reserved": "",
      "assetIds": []
    },
    {
      "x": 132,
      "y": 40,
      "size": 1,
      "price": "905000000000000000000",
      "reserved": "",
      "assetIds": []
    },
    {
      "x": 139,
      "y": 40,
      "size": 1,
      "price": "905000000000000000000",
      "reserved": "",
      "assetIds": []
    },
    {
      "x": 138,
      "y": 40,
      "size": 1,
      "price": "905000000000000000000",
      "reserved": "",
      "assetIds": []
    },
    {
      "x": 137,
      "y": 40,
      "size": 1,
      "price": "905000000000000000000",
      "reserved": "",
      "assetIds": []
    },
    {
      "x": 136,
      "y": 40,
      "size": 1,
      "price": "905000000000000000000",
      "reserved": "",
      "assetIds": []
    },
    {
      "x": 134,
      "y": 38,
      "size": 1,
      "price": "905000000000000000000",
      "reserved": "",
      "assetIds": []
    },
    {
      "x": 134,
      "y": 37,
      "size": 1,
      "price": "905000000000000000000",
      "reserved": "",
      "assetIds": []
    },
    {
      "x": 133,
      "y": 37,
      "size": 1,
      "price": "905000000000000000000",
      "reserved": "",
      "assetIds": []
    },
    {
      "x": 133,
      "y": 36,
      "size": 1,
      "price": "905000000000000000000",
      "reserved": "",
      "assetIds": []
    },
    {
      "x": 133,
      "y": 38,
      "size": 1,
      "price": "905000000000000000000",
      "reserved": "",
      "assetIds": []
    },
    {
      "x": 132,
      "y": 38,
      "size": 1,
      "price": "905000000000000000000",
      "reserved": "",
      "assetIds": []
    },
    {
      "x": 132,
      "y": 37,
      "size": 1,
      "price": "905000000000000000000",
      "reserved": "",
      "assetIds": []
    },
    {
      "x": 147,
      "y": 35,
      "size": 1,
      "price": "905000000000000000000",
      "reserved": "",
      "assetIds": []
    },
    {
      "x": 143,
      "y": 33,
      "size": 1,
      "price": "905000000000000000000",
      "reserved": "",
      "assetIds": []
    },
    {
      "x": 146,
      "y": 33,
      "size": 1,
      "price": "905000000000000000000",
      "reserved": "",
      "assetIds": []
    },
    {
      "x": 140,
      "y": 33,
      "size": 1,
      "price": "905000000000000000000",
      "reserved": "",
      "assetIds": []
    },
    {
      "x": 149,
      "y": 42,
      "size": 1,
      "price": "905000000000000000000",
      "reserved": "",
      "assetIds": []
    },
    {
      "x": 145,
      "y": 40,
      "size": 1,
      "price": "905000000000000000000",
      "reserved": "",
      "assetIds": []
    },
    {
      "x": 156,
      "y": 39,
      "size": 1,
      "price": "905000000000000000000",
      "reserved": "",
      "assetIds": []
    },
    {
      "x": 159,
      "y": 38,
      "size": 1,
      "price": "905000000000000000000",
      "reserved": "",
      "assetIds": []
    },
    {
      "x": 160,
      "y": 38,
      "size": 1,
      "price": "905000000000000000000",
      "reserved": "",
      "assetIds": []
    },
    {
      "x": 161,
      "y": 38,
      "size": 1,
      "price": "905000000000000000000",
      "reserved": "",
      "assetIds": []
    },
    {
      "x": 158,
      "y": 40,
      "size": 1,
      "price": "905000000000000000000",
      "reserved": "",
      "assetIds": []
    },
    {
      "x": 158,
      "y": 41,
      "size": 1,
      "price": "905000000000000000000",
      "reserved": "",
      "assetIds": []
    },
    {
      "x": 157,
      "y": 40,
      "size": 1,
      "price": "905000000000000000000",
      "reserved": "",
      "assetIds": []
    },
    {
      "x": 157,
      "y": 39,
      "size": 1,
      "price": "905000000000000000000",
      "reserved": "",
      "assetIds": []
    },
    {
      "x": 157,
      "y": 41,
      "size": 1,
      "price": "905000000000000000000",
      "reserved": "",
      "assetIds": []
    },
    {
      "x": 158,
      "y": 39,
      "size": 1,
      "price": "905000000000000000000",
      "reserved": "",
      "assetIds": []
    },
    {
      "x": 156,
      "y": 41,
      "size": 1,
      "price": "905000000000000000000",
      "reserved": "",
      "assetIds": []
    },
    {
      "x": 156,
      "y": 40,
      "size": 1,
      "price": "905000000000000000000",
      "reserved": "",
      "assetIds": []
    },
    {
      "x": 159,
      "y": 37,
      "size": 1,
      "price": "905000000000000000000",
      "reserved": "",
      "assetIds": []
    },
    {
      "x": 160,
      "y": 37,
      "size": 1,
      "price": "905000000000000000000",
      "reserved": "",
      "assetIds": []
    },
    {
      "x": 160,
      "y": 36,
      "size": 1,
      "price": "905000000000000000000",
      "reserved": "",
      "assetIds": []
    },
    {
      "x": 160,
      "y": 35,
      "size": 1,
      "price": "905000000000000000000",
      "reserved": "",
      "assetIds": []
    },
    {
      "x": 160,
      "y": 34,
      "size": 1,
      "price": "905000000000000000000",
      "reserved": "",
      "assetIds": []
    },
    {
      "x": 160,
      "y": 33,
      "size": 1,
      "price": "905000000000000000000",
      "reserved": "",
      "assetIds": []
    },
    {
      "x": 160,
      "y": 32,
      "size": 1,
      "price": "905000000000000000000",
      "reserved": "",
      "assetIds": []
    },
    {
      "x": 161,
      "y": 31,
      "size": 1,
      "price": "905000000000000000000",
      "reserved": "",
      "assetIds": []
    },
    {
      "x": 161,
      "y": 30,
      "size": 1,
      "price": "905000000000000000000",
      "reserved": "",
      "assetIds": []
    },
    {
      "x": 160,
      "y": 30,
      "size": 1,
      "price": "905000000000000000000",
      "reserved": "",
      "assetIds": []
    },
    {
      "x": 159,
      "y": 30,
      "size": 1,
      "price": "905000000000000000000",
      "reserved": "",
      "assetIds": []
    },
    {
      "x": 159,
      "y": 31,
      "size": 1,
      "price": "905000000000000000000",
      "reserved": "",
      "assetIds": []
    },
    {
      "x": 159,
      "y": 32,
      "size": 1,
      "price": "905000000000000000000",
      "reserved": "",
      "assetIds": []
    },
    {
      "x": 159,
      "y": 36,
      "size": 1,
      "price": "905000000000000000000",
      "reserved": "",
      "assetIds": []
    },
    {
      "x": 159,
      "y": 35,
      "size": 1,
      "price": "905000000000000000000",
      "reserved": "",
      "assetIds": []
    },
    {
      "x": 159,
      "y": 34,
      "size": 1,
      "price": "905000000000000000000",
      "reserved": "",
      "assetIds": []
    },
    {
      "x": 159,
      "y": 33,
      "size": 1,
      "price": "905000000000000000000",
      "reserved": "",
      "assetIds": []
    },
    {
      "x": 160,
      "y": 31,
      "size": 1,
      "price": "905000000000000000000",
      "reserved": "",
      "assetIds": []
    },
    {
      "x": 161,
      "y": 37,
      "size": 1,
      "price": "905000000000000000000",
      "reserved": "",
      "assetIds": []
    },
    {
      "x": 161,
      "y": 36,
      "size": 1,
      "price": "905000000000000000000",
      "reserved": "",
      "assetIds": []
    },
    {
      "x": 161,
      "y": 35,
      "size": 1,
      "price": "905000000000000000000",
      "reserved": "",
      "assetIds": []
    },
    {
      "x": 161,
      "y": 34,
      "size": 1,
      "price": "905000000000000000000",
      "reserved": "",
      "assetIds": []
    },
    {
      "x": 161,
      "y": 33,
      "size": 1,
      "price": "905000000000000000000",
      "reserved": "",
      "assetIds": []
    },
    {
      "x": 161,
      "y": 32,
      "size": 1,
      "price": "905000000000000000000",
      "reserved": "",
      "assetIds": []
    },
    {
      "x": 132,
      "y": 29,
      "size": 1,
      "price": "905000000000000000000",
      "reserved": "",
      "assetIds": []
    },
    {
      "x": 133,
      "y": 29,
      "size": 1,
      "price": "905000000000000000000",
      "reserved": "",
      "assetIds": []
    },
    {
      "x": 134,
      "y": 29,
      "size": 1,
      "price": "905000000000000000000",
      "reserved": "",
      "assetIds": []
    },
    {
      "x": 135,
      "y": 28,
      "size": 1,
      "price": "905000000000000000000",
      "reserved": "",
      "assetIds": []
    },
    {
      "x": 136,
      "y": 28,
      "size": 1,
      "price": "905000000000000000000",
      "reserved": "",
      "assetIds": []
    },
    {
      "x": 137,
      "y": 28,
      "size": 1,
      "price": "905000000000000000000",
      "reserved": "",
      "assetIds": []
    },
    {
      "x": 135,
      "y": 29,
      "size": 1,
      "price": "905000000000000000000",
      "reserved": "",
      "assetIds": []
    },
    {
      "x": 132,
      "y": 28,
      "size": 1,
      "price": "905000000000000000000",
      "reserved": "",
      "assetIds": []
    },
    {
      "x": 133,
      "y": 28,
      "size": 1,
      "price": "905000000000000000000",
      "reserved": "",
      "assetIds": []
    },
    {
      "x": 134,
      "y": 27,
      "size": 1,
      "price": "905000000000000000000",
      "reserved": "",
      "assetIds": []
    },
    {
      "x": 134,
      "y": 28,
      "size": 1,
      "price": "905000000000000000000",
      "reserved": "",
      "assetIds": []
    },
    {
      "x": 136,
      "y": 29,
      "size": 1,
      "price": "905000000000000000000",
      "reserved": "",
      "assetIds": []
    },
    {
      "x": 137,
      "y": 29,
      "size": 1,
      "price": "905000000000000000000",
      "reserved": "",
      "assetIds": []
    },
    {
      "x": 137,
      "y": 27,
      "size": 1,
      "price": "905000000000000000000",
      "reserved": "",
      "assetIds": []
    },
    {
      "x": 135,
      "y": 27,
      "size": 1,
      "price": "905000000000000000000",
      "reserved": "",
      "assetIds": []
    },
    {
      "x": 135,
      "y": 26,
      "size": 1,
      "price": "905000000000000000000",
      "reserved": "",
      "assetIds": []
    },
    {
      "x": 136,
      "y": 26,
      "size": 1,
      "price": "905000000000000000000",
      "reserved": "",
      "assetIds": []
    },
    {
      "x": 136,
      "y": 25,
      "size": 1,
      "price": "905000000000000000000",
      "reserved": "",
      "assetIds": []
    },
    {
      "x": 137,
      "y": 25,
      "size": 1,
      "price": "905000000000000000000",
      "reserved": "",
      "assetIds": []
    },
    {
      "x": 137,
      "y": 24,
      "size": 1,
      "price": "905000000000000000000",
      "reserved": "",
      "assetIds": []
    },
    {
      "x": 136,
      "y": 24,
      "size": 1,
      "price": "905000000000000000000",
      "reserved": "",
      "assetIds": []
    },
    {
      "x": 135,
      "y": 24,
      "size": 1,
      "price": "905000000000000000000",
      "reserved": "",
      "assetIds": []
    },
    {
      "x": 134,
      "y": 24,
      "size": 1,
      "price": "905000000000000000000",
      "reserved": "",
      "assetIds": []
    },
    {
      "x": 132,
      "y": 25,
      "size": 1,
      "price": "905000000000000000000",
      "reserved": "",
      "assetIds": []
    },
    {
      "x": 132,
      "y": 26,
      "size": 1,
      "price": "905000000000000000000",
      "reserved": "",
      "assetIds": []
    },
    {
      "x": 132,
      "y": 27,
      "size": 1,
      "price": "905000000000000000000",
      "reserved": "",
      "assetIds": []
    },
    {
      "x": 133,
      "y": 27,
      "size": 1,
      "price": "905000000000000000000",
      "reserved": "",
      "assetIds": []
    },
    {
      "x": 133,
      "y": 26,
      "size": 1,
      "price": "905000000000000000000",
      "reserved": "",
      "assetIds": []
    },
    {
      "x": 134,
      "y": 26,
      "size": 1,
      "price": "905000000000000000000",
      "reserved": "",
      "assetIds": []
    },
    {
      "x": 134,
      "y": 25,
      "size": 1,
      "price": "905000000000000000000",
      "reserved": "",
      "assetIds": []
    },
    {
      "x": 133,
      "y": 25,
      "size": 1,
      "price": "905000000000000000000",
      "reserved": "",
      "assetIds": []
    },
    {
      "x": 135,
      "y": 25,
      "size": 1,
      "price": "905000000000000000000",
      "reserved": "",
      "assetIds": []
    },
    {
      "x": 137,
      "y": 26,
      "size": 1,
      "price": "905000000000000000000",
      "reserved": "",
      "assetIds": []
    },
    {
      "x": 136,
      "y": 27,
      "size": 1,
      "price": "905000000000000000000",
      "reserved": "",
      "assetIds": []
    },
    {
      "x": 132,
      "y": 24,
      "size": 1,
      "price": "905000000000000000000",
      "reserved": "",
      "assetIds": []
    },
    {
      "x": 133,
      "y": 24,
      "size": 1,
      "price": "905000000000000000000",
      "reserved": "",
      "assetIds": []
    },
    {
      "x": 125,
      "y": 24,
      "size": 1,
      "price": "905000000000000000000",
      "reserved": "",
      "assetIds": []
    },
    {
      "x": 124,
      "y": 24,
      "size": 1,
      "price": "905000000000000000000",
      "reserved": "",
      "assetIds": []
    },
    {
      "x": 123,
      "y": 24,
      "size": 1,
      "price": "905000000000000000000",
      "reserved": "",
      "assetIds": []
    },
    {
      "x": 123,
      "y": 25,
      "size": 1,
      "price": "905000000000000000000",
      "reserved": "",
      "assetIds": []
    },
    {
      "x": 122,
      "y": 25,
      "size": 1,
      "price": "905000000000000000000",
      "reserved": "",
      "assetIds": []
    },
    {
      "x": 121,
      "y": 25,
      "size": 1,
      "price": "905000000000000000000",
      "reserved": "",
      "assetIds": []
    },
    {
      "x": 120,
      "y": 25,
      "size": 1,
      "price": "905000000000000000000",
      "reserved": "",
      "assetIds": []
    },
    {
      "x": 120,
      "y": 26,
      "size": 1,
      "price": "905000000000000000000",
      "reserved": "",
      "assetIds": []
    },
    {
      "x": 121,
      "y": 26,
      "size": 1,
      "price": "905000000000000000000",
      "reserved": "",
      "assetIds": []
    },
    {
      "x": 122,
      "y": 26,
      "size": 1,
      "price": "905000000000000000000",
      "reserved": "",
      "assetIds": []
    },
    {
      "x": 123,
      "y": 26,
      "size": 1,
      "price": "905000000000000000000",
      "reserved": "",
      "assetIds": []
    },
    {
      "x": 124,
      "y": 26,
      "size": 1,
      "price": "905000000000000000000",
      "reserved": "",
      "assetIds": []
    },
    {
      "x": 125,
      "y": 26,
      "size": 1,
      "price": "905000000000000000000",
      "reserved": "",
      "assetIds": []
    },
    {
      "x": 125,
      "y": 25,
      "size": 1,
      "price": "905000000000000000000",
      "reserved": "",
      "assetIds": []
    },
    {
      "x": 124,
      "y": 25,
      "size": 1,
      "price": "905000000000000000000",
      "reserved": "",
      "assetIds": []
    },
    {
      "x": 122,
      "y": 24,
      "size": 1,
      "price": "905000000000000000000",
      "reserved": "",
      "assetIds": []
    },
    {
      "x": 121,
      "y": 24,
      "size": 1,
      "price": "905000000000000000000",
      "reserved": "",
      "assetIds": []
    },
    {
      "x": 120,
      "y": 24,
      "size": 1,
      "price": "905000000000000000000",
      "reserved": "",
      "assetIds": []
    },
    {
      "x": 114,
      "y": 37,
      "size": 1,
      "price": "905000000000000000000",
      "reserved": "",
      "assetIds": []
    },
    {
      "x": 115,
      "y": 37,
      "size": 1,
      "price": "905000000000000000000",
      "reserved": "",
      "assetIds": []
    },
    {
      "x": 116,
      "y": 37,
      "size": 1,
      "price": "905000000000000000000",
      "reserved": "",
      "assetIds": []
    },
    {
      "x": 117,
      "y": 36,
      "size": 1,
      "price": "905000000000000000000",
      "reserved": "",
      "assetIds": []
    },
    {
      "x": 118,
      "y": 36,
      "size": 1,
      "price": "905000000000000000000",
      "reserved": "",
      "assetIds": []
    },
    {
      "x": 120,
      "y": 36,
      "size": 1,
      "price": "905000000000000000000",
      "reserved": "",
      "assetIds": []
    },
    {
      "x": 121,
      "y": 36,
      "size": 1,
      "price": "905000000000000000000",
      "reserved": "",
      "assetIds": []
    },
    {
      "x": 122,
      "y": 36,
      "size": 1,
      "price": "905000000000000000000",
      "reserved": "",
      "assetIds": []
    },
    {
      "x": 123,
      "y": 36,
      "size": 1,
      "price": "905000000000000000000",
      "reserved": "",
      "assetIds": []
    },
    {
      "x": 116,
      "y": 36,
      "size": 1,
      "price": "905000000000000000000",
      "reserved": "",
      "assetIds": []
    },
    {
      "x": 115,
      "y": 36,
      "size": 1,
      "price": "905000000000000000000",
      "reserved": "",
      "assetIds": []
    },
    {
      "x": 114,
      "y": 36,
      "size": 1,
      "price": "905000000000000000000",
      "reserved": "",
      "assetIds": []
    },
    {
      "x": 124,
      "y": 36,
      "size": 1,
      "price": "905000000000000000000",
      "reserved": "",
      "assetIds": []
    },
    {
      "x": 125,
      "y": 36,
      "size": 1,
      "price": "905000000000000000000",
      "reserved": "",
      "assetIds": []
    },
    {
      "x": 124,
      "y": 37,
      "size": 1,
      "price": "905000000000000000000",
      "reserved": "",
      "assetIds": []
    },
    {
      "x": 123,
      "y": 37,
      "size": 1,
      "price": "905000000000000000000",
      "reserved": "",
      "assetIds": []
    },
    {
      "x": 123,
      "y": 38,
      "size": 1,
      "price": "905000000000000000000",
      "reserved": "",
      "assetIds": []
    },
    {
      "x": 122,
      "y": 38,
      "size": 1,
      "price": "905000000000000000000",
      "reserved": "",
      "assetIds": []
    },
    {
      "x": 121,
      "y": 38,
      "size": 1,
      "price": "905000000000000000000",
      "reserved": "",
      "assetIds": []
    },
    {
      "x": 120,
      "y": 38,
      "size": 1,
      "price": "905000000000000000000",
      "reserved": "",
      "assetIds": []
    },
    {
      "x": 119,
      "y": 38,
      "size": 1,
      "price": "905000000000000000000",
      "reserved": "",
      "assetIds": []
    },
    {
      "x": 118,
      "y": 38,
      "size": 1,
      "price": "905000000000000000000",
      "reserved": "",
      "assetIds": []
    },
    {
      "x": 117,
      "y": 37,
      "size": 1,
      "price": "905000000000000000000",
      "reserved": "",
      "assetIds": []
    },
    {
      "x": 118,
      "y": 37,
      "size": 1,
      "price": "905000000000000000000",
      "reserved": "",
      "assetIds": []
    },
    {
      "x": 119,
      "y": 37,
      "size": 1,
      "price": "905000000000000000000",
      "reserved": "",
      "assetIds": []
    },
    {
      "x": 120,
      "y": 37,
      "size": 1,
      "price": "905000000000000000000",
      "reserved": "",
      "assetIds": []
    },
    {
      "x": 121,
      "y": 37,
      "size": 1,
      "price": "905000000000000000000",
      "reserved": "",
      "assetIds": []
    },
    {
      "x": 122,
      "y": 37,
      "size": 1,
      "price": "905000000000000000000",
      "reserved": "",
      "assetIds": []
    },
    {
      "x": 116,
      "y": 38,
      "size": 1,
      "price": "905000000000000000000",
      "reserved": "",
      "assetIds": []
    },
    {
      "x": 115,
      "y": 38,
      "size": 1,
      "price": "905000000000000000000",
      "reserved": "",
      "assetIds": []
    },
    {
      "x": 114,
      "y": 38,
      "size": 1,
      "price": "905000000000000000000",
      "reserved": "",
      "assetIds": []
    },
    {
      "x": 115,
      "y": 39,
      "size": 1,
      "price": "905000000000000000000",
      "reserved": "",
      "assetIds": []
    },
    {
      "x": 117,
      "y": 38,
      "size": 1,
      "price": "905000000000000000000",
      "reserved": "",
      "assetIds": []
    },
    {
      "x": 124,
      "y": 38,
      "size": 1,
      "price": "905000000000000000000",
      "reserved": "",
      "assetIds": []
    },
    {
      "x": 125,
      "y": 38,
      "size": 1,
      "price": "905000000000000000000",
      "reserved": "",
      "assetIds": []
    },
    {
      "x": 125,
      "y": 39,
      "size": 1,
      "price": "905000000000000000000",
      "reserved": "",
      "assetIds": []
    },
    {
      "x": 124,
      "y": 39,
      "size": 1,
      "price": "905000000000000000000",
      "reserved": "",
      "assetIds": []
    },
    {
      "x": 123,
      "y": 39,
      "size": 1,
      "price": "905000000000000000000",
      "reserved": "",
      "assetIds": []
    },
    {
      "x": 122,
      "y": 40,
      "size": 1,
      "price": "905000000000000000000",
      "reserved": "",
      "assetIds": []
    },
    {
      "x": 121,
      "y": 40,
      "size": 1,
      "price": "905000000000000000000",
      "reserved": "",
      "assetIds": []
    },
    {
      "x": 120,
      "y": 40,
      "size": 1,
      "price": "905000000000000000000",
      "reserved": "",
      "assetIds": []
    },
    {
      "x": 119,
      "y": 40,
      "size": 1,
      "price": "905000000000000000000",
      "reserved": "",
      "assetIds": []
    },
    {
      "x": 118,
      "y": 40,
      "size": 1,
      "price": "905000000000000000000",
      "reserved": "",
      "assetIds": []
    },
    {
      "x": 117,
      "y": 40,
      "size": 1,
      "price": "905000000000000000000",
      "reserved": "",
      "assetIds": []
    },
    {
      "x": 116,
      "y": 40,
      "size": 1,
      "price": "905000000000000000000",
      "reserved": "",
      "assetIds": []
    },
    {
      "x": 115,
      "y": 40,
      "size": 1,
      "price": "905000000000000000000",
      "reserved": "",
      "assetIds": []
    },
    {
      "x": 114,
      "y": 40,
      "size": 1,
      "price": "905000000000000000000",
      "reserved": "",
      "assetIds": []
    },
    {
      "x": 116,
      "y": 39,
      "size": 1,
      "price": "905000000000000000000",
      "reserved": "",
      "assetIds": []
    },
    {
      "x": 117,
      "y": 39,
      "size": 1,
      "price": "905000000000000000000",
      "reserved": "",
      "assetIds": []
    },
    {
      "x": 118,
      "y": 39,
      "size": 1,
      "price": "905000000000000000000",
      "reserved": "",
      "assetIds": []
    },
    {
      "x": 119,
      "y": 39,
      "size": 1,
      "price": "905000000000000000000",
      "reserved": "",
      "assetIds": []
    },
    {
      "x": 120,
      "y": 39,
      "size": 1,
      "price": "905000000000000000000",
      "reserved": "",
      "assetIds": []
    },
    {
      "x": 121,
      "y": 39,
      "size": 1,
      "price": "905000000000000000000",
      "reserved": "",
      "assetIds": []
    },
    {
      "x": 122,
      "y": 39,
      "size": 1,
      "price": "905000000000000000000",
      "reserved": "",
      "assetIds": []
    },
    {
      "x": 123,
      "y": 40,
      "size": 1,
      "price": "905000000000000000000",
      "reserved": "",
      "assetIds": []
    },
    {
      "x": 124,
      "y": 40,
      "size": 1,
      "price": "905000000000000000000",
      "reserved": "",
      "assetIds": []
    },
    {
      "x": 125,
      "y": 40,
      "size": 1,
      "price": "905000000000000000000",
      "reserved": "",
      "assetIds": []
    },
    {
      "x": 114,
      "y": 42,
      "size": 1,
      "price": "905000000000000000000",
      "reserved": "",
      "assetIds": []
    },
    {
      "x": 115,
      "y": 41,
      "size": 1,
      "price": "905000000000000000000",
      "reserved": "",
      "assetIds": []
    },
    {
      "x": 114,
      "y": 41,
      "size": 1,
      "price": "905000000000000000000",
      "reserved": "",
      "assetIds": []
    },
    {
      "x": 114,
      "y": 43,
      "size": 1,
      "price": "905000000000000000000",
      "reserved": "",
      "assetIds": []
    },
    {
      "x": 100,
      "y": 33,
      "size": 1,
      "price": "905000000000000000000",
      "reserved": "",
      "assetIds": []
    },
    {
      "x": 99,
      "y": 33,
      "size": 1,
      "price": "905000000000000000000",
      "reserved": "",
      "assetIds": []
    },
    {
      "x": 101,
      "y": 33,
      "size": 1,
      "price": "905000000000000000000",
      "reserved": "",
      "assetIds": []
    },
    {
      "x": 101,
      "y": 34,
      "size": 1,
      "price": "905000000000000000000",
      "reserved": "",
      "assetIds": []
    },
    {
      "x": 101,
      "y": 35,
      "size": 1,
      "price": "905000000000000000000",
      "reserved": "",
      "assetIds": []
    },
    {
      "x": 100,
      "y": 35,
      "size": 1,
      "price": "905000000000000000000",
      "reserved": "",
      "assetIds": []
    },
    {
      "x": 100,
      "y": 34,
      "size": 1,
      "price": "905000000000000000000",
      "reserved": "",
      "assetIds": []
    },
    {
      "x": 99,
      "y": 34,
      "size": 1,
      "price": "905000000000000000000",
      "reserved": "",
      "assetIds": []
    },
    {
      "x": 99,
      "y": 35,
      "size": 1,
      "price": "905000000000000000000",
      "reserved": "",
      "assetIds": []
    },
    {
      "x": 105,
      "y": 28,
      "size": 1,
      "price": "905000000000000000000",
      "reserved": "",
      "assetIds": []
    },
    {
      "x": 104,
      "y": 28,
      "size": 1,
      "price": "905000000000000000000",
      "reserved": "",
      "assetIds": []
    },
    {
      "x": 104,
      "y": 29,
      "size": 1,
      "price": "905000000000000000000",
      "reserved": "",
      "assetIds": []
    },
    {
      "x": 102,
      "y": 29,
      "size": 1,
      "price": "905000000000000000000",
      "reserved": "",
      "assetIds": []
    },
    {
      "x": 105,
      "y": 29,
      "size": 1,
      "price": "905000000000000000000",
      "reserved": "",
      "assetIds": []
    },
    {
      "x": 106,
      "y": 28,
      "size": 1,
      "price": "905000000000000000000",
      "reserved": "",
      "assetIds": []
    },
    {
      "x": 107,
      "y": 28,
      "size": 1,
      "price": "905000000000000000000",
      "reserved": "",
      "assetIds": []
    },
    {
      "x": 106,
      "y": 29,
      "size": 1,
      "price": "905000000000000000000",
      "reserved": "",
      "assetIds": []
    },
    {
      "x": 107,
      "y": 29,
      "size": 1,
      "price": "905000000000000000000",
      "reserved": "",
      "assetIds": []
    },
    {
      "x": 103,
      "y": 29,
      "size": 1,
      "price": "905000000000000000000",
      "reserved": "",
      "assetIds": []
    },
    {
      "x": 103,
      "y": 28,
      "size": 1,
      "price": "905000000000000000000",
      "reserved": "",
      "assetIds": []
    },
    {
      "x": 103,
      "y": 27,
      "size": 1,
      "price": "905000000000000000000",
      "reserved": "",
      "assetIds": []
    },
    {
      "x": 102,
      "y": 27,
      "size": 1,
      "price": "905000000000000000000",
      "reserved": "",
      "assetIds": []
    },
    {
      "x": 102,
      "y": 26,
      "size": 1,
      "price": "905000000000000000000",
      "reserved": "",
      "assetIds": []
    },
    {
      "x": 103,
      "y": 26,
      "size": 1,
      "price": "905000000000000000000",
      "reserved": "",
      "assetIds": []
    },
    {
      "x": 103,
      "y": 25,
      "size": 1,
      "price": "905000000000000000000",
      "reserved": "",
      "assetIds": []
    },
    {
      "x": 104,
      "y": 25,
      "size": 1,
      "price": "905000000000000000000",
      "reserved": "",
      "assetIds": []
    },
    {
      "x": 105,
      "y": 25,
      "size": 1,
      "price": "905000000000000000000",
      "reserved": "",
      "assetIds": []
    },
    {
      "x": 106,
      "y": 25,
      "size": 1,
      "price": "905000000000000000000",
      "reserved": "",
      "assetIds": []
    },
    {
      "x": 107,
      "y": 25,
      "size": 1,
      "price": "905000000000000000000",
      "reserved": "",
      "assetIds": []
    },
    {
      "x": 107,
      "y": 26,
      "size": 1,
      "price": "905000000000000000000",
      "reserved": "",
      "assetIds": []
    },
    {
      "x": 107,
      "y": 27,
      "size": 1,
      "price": "905000000000000000000",
      "reserved": "",
      "assetIds": []
    },
    {
      "x": 105,
      "y": 27,
      "size": 1,
      "price": "905000000000000000000",
      "reserved": "",
      "assetIds": []
    },
    {
      "x": 105,
      "y": 26,
      "size": 1,
      "price": "905000000000000000000",
      "reserved": "",
      "assetIds": []
    },
    {
      "x": 106,
      "y": 26,
      "size": 1,
      "price": "905000000000000000000",
      "reserved": "",
      "assetIds": []
    },
    {
      "x": 106,
      "y": 27,
      "size": 1,
      "price": "905000000000000000000",
      "reserved": "",
      "assetIds": []
    },
    {
      "x": 104,
      "y": 26,
      "size": 1,
      "price": "905000000000000000000",
      "reserved": "",
      "assetIds": []
    },
    {
      "x": 104,
      "y": 27,
      "size": 1,
      "price": "905000000000000000000",
      "reserved": "",
      "assetIds": []
    },
    {
      "x": 102,
      "y": 28,
      "size": 1,
      "price": "905000000000000000000",
      "reserved": "",
      "assetIds": []
    },
    {
      "x": 102,
      "y": 25,
      "size": 1,
      "price": "905000000000000000000",
      "reserved": "",
      "assetIds": []
    },
    {
      "x": 103,
      "y": 24,
      "size": 1,
      "price": "905000000000000000000",
      "reserved": "",
      "assetIds": []
    },
    {
      "x": 104,
      "y": 24,
      "size": 1,
      "price": "905000000000000000000",
      "reserved": "",
      "assetIds": []
    },
    {
      "x": 105,
      "y": 24,
      "size": 1,
      "price": "905000000000000000000",
      "reserved": "",
      "assetIds": []
    },
    {
      "x": 106,
      "y": 24,
      "size": 1,
      "price": "905000000000000000000",
      "reserved": "",
      "assetIds": []
    },
    {
      "x": 107,
      "y": 24,
      "size": 1,
      "price": "905000000000000000000",
      "reserved": "",
      "assetIds": []
    },
    {
      "x": 102,
      "y": 24,
      "size": 1,
      "price": "905000000000000000000",
      "reserved": "",
      "assetIds": []
    },
    {
      "x": 42,
      "y": 90,
      "size": 1,
      "price": "905000000000000000000",
      "reserved": "",
      "assetIds": []
    },
    {
      "x": 43,
      "y": 90,
      "size": 1,
      "price": "905000000000000000000",
      "reserved": "",
      "assetIds": []
    },
    {
      "x": 43,
      "y": 91,
      "size": 1,
      "price": "905000000000000000000",
      "reserved": "",
      "assetIds": []
    },
    {
      "x": 43,
      "y": 92,
      "size": 1,
      "price": "905000000000000000000",
      "reserved": "",
      "assetIds": []
    },
    {
      "x": 44,
      "y": 92,
      "size": 1,
      "price": "905000000000000000000",
      "reserved": "",
      "assetIds": []
    },
    {
      "x": 44,
      "y": 91,
      "size": 1,
      "price": "905000000000000000000",
      "reserved": "",
      "assetIds": []
    },
    {
      "x": 44,
      "y": 90,
      "size": 1,
      "price": "905000000000000000000",
      "reserved": "",
      "assetIds": []
    },
    {
      "x": 42,
      "y": 91,
      "size": 1,
      "price": "905000000000000000000",
      "reserved": "",
      "assetIds": []
    },
    {
      "x": 41,
      "y": 90,
      "size": 1,
      "price": "905000000000000000000",
      "reserved": "",
      "assetIds": []
    },
    {
      "x": 41,
      "y": 89,
      "size": 1,
      "price": "905000000000000000000",
      "reserved": "",
      "assetIds": []
    },
    {
      "x": 41,
      "y": 88,
      "size": 1,
      "price": "905000000000000000000",
      "reserved": "",
      "assetIds": []
    },
    {
      "x": 41,
      "y": 87,
      "size": 1,
      "price": "905000000000000000000",
      "reserved": "",
      "assetIds": []
    },
    {
      "x": 40,
      "y": 89,
      "size": 1,
      "price": "905000000000000000000",
      "reserved": "",
      "assetIds": []
    },
    {
      "x": 40,
      "y": 88,
      "size": 1,
      "price": "905000000000000000000",
      "reserved": "",
      "assetIds": []
    },
    {
      "x": 40,
      "y": 87,
      "size": 1,
      "price": "905000000000000000000",
      "reserved": "",
      "assetIds": []
    },
    {
      "x": 40,
      "y": 83,
      "size": 1,
      "price": "905000000000000000000",
      "reserved": "",
      "assetIds": []
    },
    {
      "x": 40,
      "y": 82,
      "size": 1,
      "price": "905000000000000000000",
      "reserved": "",
      "assetIds": []
    },
    {
      "x": 40,
      "y": 81,
      "size": 1,
      "price": "905000000000000000000",
      "reserved": "",
      "assetIds": []
    },
    {
      "x": 40,
      "y": 80,
      "size": 1,
      "price": "905000000000000000000",
      "reserved": "",
      "assetIds": []
    },
    {
      "x": 41,
      "y": 80,
      "size": 1,
      "price": "905000000000000000000",
      "reserved": "",
      "assetIds": []
    },
    {
      "x": 41,
      "y": 79,
      "size": 1,
      "price": "905000000000000000000",
      "reserved": "",
      "assetIds": []
    },
    {
      "x": 41,
      "y": 78,
      "size": 1,
      "price": "905000000000000000000",
      "reserved": "",
      "assetIds": []
    },
    {
      "x": 41,
      "y": 77,
      "size": 1,
      "price": "905000000000000000000",
      "reserved": "",
      "assetIds": []
    },
    {
      "x": 41,
      "y": 76,
      "size": 1,
      "price": "905000000000000000000",
      "reserved": "",
      "assetIds": []
    },
    {
      "x": 42,
      "y": 76,
      "size": 1,
      "price": "905000000000000000000",
      "reserved": "",
      "assetIds": []
    },
    {
      "x": 42,
      "y": 75,
      "size": 1,
      "price": "905000000000000000000",
      "reserved": "",
      "assetIds": []
    },
    {
      "x": 43,
      "y": 76,
      "size": 1,
      "price": "905000000000000000000",
      "reserved": "",
      "assetIds": []
    },
    {
      "x": 43,
      "y": 77,
      "size": 1,
      "price": "905000000000000000000",
      "reserved": "",
      "assetIds": []
    },
    {
      "x": 42,
      "y": 77,
      "size": 1,
      "price": "905000000000000000000",
      "reserved": "",
      "assetIds": []
    },
    {
      "x": 43,
      "y": 75,
      "size": 1,
      "price": "905000000000000000000",
      "reserved": "",
      "assetIds": []
    },
    {
      "x": 44,
      "y": 75,
      "size": 1,
      "price": "905000000000000000000",
      "reserved": "",
      "assetIds": []
    },
    {
      "x": 44,
      "y": 76,
      "size": 1,
      "price": "905000000000000000000",
      "reserved": "",
      "assetIds": []
    },
    {
      "x": 41,
      "y": 75,
      "size": 1,
      "price": "905000000000000000000",
      "reserved": "",
      "assetIds": []
    },
    {
      "x": 41,
      "y": 74,
      "size": 1,
      "price": "905000000000000000000",
      "reserved": "",
      "assetIds": []
    },
    {
      "x": 41,
      "y": 73,
      "size": 1,
      "price": "905000000000000000000",
      "reserved": "",
      "assetIds": []
    },
    {
      "x": 40,
      "y": 74,
      "size": 1,
      "price": "905000000000000000000",
      "reserved": "",
      "assetIds": []
    },
    {
      "x": 40,
      "y": 75,
      "size": 1,
      "price": "905000000000000000000",
      "reserved": "",
      "assetIds": []
    },
    {
      "x": 40,
      "y": 73,
      "size": 1,
      "price": "905000000000000000000",
      "reserved": "",
      "assetIds": []
    },
    {
      "x": 40,
      "y": 72,
      "size": 1,
      "price": "905000000000000000000",
      "reserved": "",
      "assetIds": []
    },
    {
      "x": 41,
      "y": 72,
      "size": 1,
      "price": "905000000000000000000",
      "reserved": "",
      "assetIds": []
    },
    {
      "x": 40,
      "y": 76,
      "size": 1,
      "price": "905000000000000000000",
      "reserved": "",
      "assetIds": []
    },
    {
      "x": 40,
      "y": 77,
      "size": 1,
      "price": "905000000000000000000",
      "reserved": "",
      "assetIds": []
    },
    {
      "x": 40,
      "y": 78,
      "size": 1,
      "price": "905000000000000000000",
      "reserved": "",
      "assetIds": []
    },
    {
      "x": 40,
      "y": 79,
      "size": 1,
      "price": "905000000000000000000",
      "reserved": "",
      "assetIds": []
    },
    {
      "x": 41,
      "y": 81,
      "size": 1,
      "price": "905000000000000000000",
      "reserved": "",
      "assetIds": []
    },
    {
      "x": 41,
      "y": 82,
      "size": 1,
      "price": "905000000000000000000",
      "reserved": "",
      "assetIds": []
    },
    {
      "x": 39,
      "y": 83,
      "size": 1,
      "price": "905000000000000000000",
      "reserved": "",
      "assetIds": []
    },
    {
      "x": 39,
      "y": 82,
      "size": 1,
      "price": "905000000000000000000",
      "reserved": "",
      "assetIds": []
    },
    {
      "x": 39,
      "y": 81,
      "size": 1,
      "price": "905000000000000000000",
      "reserved": "",
      "assetIds": []
    },
    {
      "x": 39,
      "y": 80,
      "size": 1,
      "price": "905000000000000000000",
      "reserved": "",
      "assetIds": []
    },
    {
      "x": 39,
      "y": 79,
      "size": 1,
      "price": "905000000000000000000",
      "reserved": "",
      "assetIds": []
    },
    {
      "x": 39,
      "y": 78,
      "size": 1,
      "price": "905000000000000000000",
      "reserved": "",
      "assetIds": []
    },
    {
      "x": 39,
      "y": 77,
      "size": 1,
      "price": "905000000000000000000",
      "reserved": "",
      "assetIds": []
    },
    {
      "x": 39,
      "y": 76,
      "size": 1,
      "price": "905000000000000000000",
      "reserved": "",
      "assetIds": []
    },
    {
      "x": 39,
      "y": 75,
      "size": 1,
      "price": "905000000000000000000",
      "reserved": "",
      "assetIds": []
    },
    {
      "x": 39,
      "y": 74,
      "size": 1,
      "price": "905000000000000000000",
      "reserved": "",
      "assetIds": []
    },
    {
      "x": 39,
      "y": 73,
      "size": 1,
      "price": "905000000000000000000",
      "reserved": "",
      "assetIds": []
    },
    {
      "x": 39,
      "y": 72,
      "size": 1,
      "price": "905000000000000000000",
      "reserved": "",
      "assetIds": []
    },
    {
      "x": 38,
      "y": 82,
      "size": 1,
      "price": "905000000000000000000",
      "reserved": "",
      "assetIds": []
    },
    {
      "x": 38,
      "y": 81,
      "size": 1,
      "price": "905000000000000000000",
      "reserved": "",
      "assetIds": []
    },
    {
      "x": 38,
      "y": 80,
      "size": 1,
      "price": "905000000000000000000",
      "reserved": "",
      "assetIds": []
    },
    {
      "x": 38,
      "y": 79,
      "size": 1,
      "price": "905000000000000000000",
      "reserved": "",
      "assetIds": []
    },
    {
      "x": 37,
      "y": 78,
      "size": 1,
      "price": "905000000000000000000",
      "reserved": "",
      "assetIds": []
    },
    {
      "x": 37,
      "y": 77,
      "size": 1,
      "price": "905000000000000000000",
      "reserved": "",
      "assetIds": []
    },
    {
      "x": 37,
      "y": 76,
      "size": 1,
      "price": "905000000000000000000",
      "reserved": "",
      "assetIds": []
    },
    {
      "x": 37,
      "y": 75,
      "size": 1,
      "price": "905000000000000000000",
      "reserved": "",
      "assetIds": []
    },
    {
      "x": 38,
      "y": 78,
      "size": 1,
      "price": "905000000000000000000",
      "reserved": "",
      "assetIds": []
    },
    {
      "x": 38,
      "y": 83,
      "size": 1,
      "price": "905000000000000000000",
      "reserved": "",
      "assetIds": []
    },
    {
      "x": 37,
      "y": 79,
      "size": 1,
      "price": "905000000000000000000",
      "reserved": "",
      "assetIds": []
    },
    {
      "x": 38,
      "y": 75,
      "size": 1,
      "price": "905000000000000000000",
      "reserved": "",
      "assetIds": []
    },
    {
      "x": 38,
      "y": 76,
      "size": 1,
      "price": "905000000000000000000",
      "reserved": "",
      "assetIds": []
    },
    {
      "x": 38,
      "y": 77,
      "size": 1,
      "price": "905000000000000000000",
      "reserved": "",
      "assetIds": []
    },
    {
      "x": 36,
      "y": 75,
      "size": 1,
      "price": "905000000000000000000",
      "reserved": "",
      "assetIds": []
    },
    {
      "x": 36,
      "y": 77,
      "size": 1,
      "price": "905000000000000000000",
      "reserved": "",
      "assetIds": []
    },
    {
      "x": 36,
      "y": 78,
      "size": 1,
      "price": "905000000000000000000",
      "reserved": "",
      "assetIds": []
    },
    {
      "x": 37,
      "y": 80,
      "size": 1,
      "price": "905000000000000000000",
      "reserved": "",
      "assetIds": []
    },
    {
      "x": 37,
      "y": 81,
      "size": 1,
      "price": "905000000000000000000",
      "reserved": "",
      "assetIds": []
    },
    {
      "x": 37,
      "y": 82,
      "size": 1,
      "price": "905000000000000000000",
      "reserved": "",
      "assetIds": []
    },
    {
      "x": 37,
      "y": 83,
      "size": 1,
      "price": "905000000000000000000",
      "reserved": "",
      "assetIds": []
    },
    {
      "x": 37,
      "y": 84,
      "size": 1,
      "price": "905000000000000000000",
      "reserved": "",
      "assetIds": []
    },
    {
      "x": 38,
      "y": 84,
      "size": 1,
      "price": "905000000000000000000",
      "reserved": "",
      "assetIds": []
    },
    {
      "x": 38,
      "y": 85,
      "size": 1,
      "price": "905000000000000000000",
      "reserved": "",
      "assetIds": []
    },
    {
      "x": 36,
      "y": 79,
      "size": 1,
      "price": "905000000000000000000",
      "reserved": "",
      "assetIds": []
    },
    {
      "x": 36,
      "y": 80,
      "size": 1,
      "price": "905000000000000000000",
      "reserved": "",
      "assetIds": []
    },
    {
      "x": 36,
      "y": 81,
      "size": 1,
      "price": "905000000000000000000",
      "reserved": "",
      "assetIds": []
    },
    {
      "x": 37,
      "y": 85,
      "size": 1,
      "price": "905000000000000000000",
      "reserved": "",
      "assetIds": []
    },
    {
      "x": 37,
      "y": 86,
      "size": 1,
      "price": "905000000000000000000",
      "reserved": "",
      "assetIds": []
    },
    {
      "x": 37,
      "y": 87,
      "size": 1,
      "price": "905000000000000000000",
      "reserved": "",
      "assetIds": []
    },
    {
      "x": 37,
      "y": 88,
      "size": 1,
      "price": "905000000000000000000",
      "reserved": "",
      "assetIds": []
    },
    {
      "x": 37,
      "y": 89,
      "size": 1,
      "price": "905000000000000000000",
      "reserved": "",
      "assetIds": []
    },
    {
      "x": 38,
      "y": 89,
      "size": 1,
      "price": "905000000000000000000",
      "reserved": "",
      "assetIds": []
    },
    {
      "x": 38,
      "y": 87,
      "size": 1,
      "price": "905000000000000000000",
      "reserved": "",
      "assetIds": []
    },
    {
      "x": 36,
      "y": 84,
      "size": 1,
      "price": "905000000000000000000",
      "reserved": "",
      "assetIds": []
    },
    {
      "x": 36,
      "y": 83,
      "size": 1,
      "price": "905000000000000000000",
      "reserved": "",
      "assetIds": []
    },
    {
      "x": 36,
      "y": 82,
      "size": 1,
      "price": "905000000000000000000",
      "reserved": "",
      "assetIds": []
    },
    {
      "x": 37,
      "y": 90,
      "size": 1,
      "price": "905000000000000000000",
      "reserved": "",
      "assetIds": []
    },
    {
      "x": 38,
      "y": 90,
      "size": 1,
      "price": "905000000000000000000",
      "reserved": "",
      "assetIds": []
    },
    {
      "x": 38,
      "y": 91,
      "size": 1,
      "price": "905000000000000000000",
      "reserved": "",
      "assetIds": []
    },
    {
      "x": 39,
      "y": 90,
      "size": 1,
      "price": "905000000000000000000",
      "reserved": "",
      "assetIds": []
    },
    {
      "x": 39,
      "y": 89,
      "size": 1,
      "price": "905000000000000000000",
      "reserved": "",
      "assetIds": []
    },
    {
      "x": 38,
      "y": 86,
      "size": 1,
      "price": "905000000000000000000",
      "reserved": "",
      "assetIds": []
    },
    {
      "x": 39,
      "y": 87,
      "size": 1,
      "price": "905000000000000000000",
      "reserved": "",
      "assetIds": []
    },
    {
      "x": 39,
      "y": 88,
      "size": 1,
      "price": "905000000000000000000",
      "reserved": "",
      "assetIds": []
    },
    {
      "x": 40,
      "y": 90,
      "size": 1,
      "price": "905000000000000000000",
      "reserved": "",
      "assetIds": []
    },
    {
      "x": 40,
      "y": 91,
      "size": 1,
      "price": "905000000000000000000",
      "reserved": "",
      "assetIds": []
    },
    {
      "x": 40,
      "y": 92,
      "size": 1,
      "price": "905000000000000000000",
      "reserved": "",
      "assetIds": []
    },
    {
      "x": 40,
      "y": 93,
      "size": 1,
      "price": "905000000000000000000",
      "reserved": "",
      "assetIds": []
    },
    {
      "x": 41,
      "y": 93,
      "size": 1,
      "price": "905000000000000000000",
      "reserved": "",
      "assetIds": []
    },
    {
      "x": 41,
      "y": 94,
      "size": 1,
      "price": "905000000000000000000",
      "reserved": "",
      "assetIds": []
    },
    {
      "x": 41,
      "y": 95,
      "size": 1,
      "price": "905000000000000000000",
      "reserved": "",
      "assetIds": []
    },
    {
      "x": 40,
      "y": 95,
      "size": 1,
      "price": "905000000000000000000",
      "reserved": "",
      "assetIds": []
    },
    {
      "x": 40,
      "y": 94,
      "size": 1,
      "price": "905000000000000000000",
      "reserved": "",
      "assetIds": []
    },
    {
      "x": 41,
      "y": 91,
      "size": 1,
      "price": "905000000000000000000",
      "reserved": "",
      "assetIds": []
    },
    {
      "x": 41,
      "y": 92,
      "size": 1,
      "price": "905000000000000000000",
      "reserved": "",
      "assetIds": []
    },
    {
      "x": 38,
      "y": 96,
      "size": 1,
      "price": "905000000000000000000",
      "reserved": "",
      "assetIds": []
    },
    {
      "x": 38,
      "y": 95,
      "size": 1,
      "price": "905000000000000000000",
      "reserved": "",
      "assetIds": []
    },
    {
      "x": 38,
      "y": 94,
      "size": 1,
      "price": "905000000000000000000",
      "reserved": "",
      "assetIds": []
    },
    {
      "x": 38,
      "y": 93,
      "size": 1,
      "price": "905000000000000000000",
      "reserved": "",
      "assetIds": []
    },
    {
      "x": 39,
      "y": 93,
      "size": 1,
      "price": "905000000000000000000",
      "reserved": "",
      "assetIds": []
    },
    {
      "x": 39,
      "y": 92,
      "size": 1,
      "price": "905000000000000000000",
      "reserved": "",
      "assetIds": []
    },
    {
      "x": 39,
      "y": 91,
      "size": 1,
      "price": "905000000000000000000",
      "reserved": "",
      "assetIds": []
    },
    {
      "x": 39,
      "y": 94,
      "size": 1,
      "price": "905000000000000000000",
      "reserved": "",
      "assetIds": []
    },
    {
      "x": 39,
      "y": 95,
      "size": 1,
      "price": "905000000000000000000",
      "reserved": "",
      "assetIds": []
    },
    {
      "x": 38,
      "y": 97,
      "size": 1,
      "price": "905000000000000000000",
      "reserved": "",
      "assetIds": []
    },
    {
      "x": 37,
      "y": 93,
      "size": 1,
      "price": "905000000000000000000",
      "reserved": "",
      "assetIds": []
    },
    {
      "x": 37,
      "y": 92,
      "size": 1,
      "price": "905000000000000000000",
      "reserved": "",
      "assetIds": []
    },
    {
      "x": 38,
      "y": 92,
      "size": 1,
      "price": "905000000000000000000",
      "reserved": "",
      "assetIds": []
    },
    {
      "x": 37,
      "y": 97,
      "size": 1,
      "price": "905000000000000000000",
      "reserved": "",
      "assetIds": []
    },
    {
      "x": 37,
      "y": 96,
      "size": 1,
      "price": "905000000000000000000",
      "reserved": "",
      "assetIds": []
    },
    {
      "x": 36,
      "y": 96,
      "size": 1,
      "price": "905000000000000000000",
      "reserved": "",
      "assetIds": []
    },
    {
      "x": 36,
      "y": 95,
      "size": 1,
      "price": "905000000000000000000",
      "reserved": "",
      "assetIds": []
    },
    {
      "x": 36,
      "y": 94,
      "size": 1,
      "price": "905000000000000000000",
      "reserved": "",
      "assetIds": []
    },
    {
      "x": 36,
      "y": 93,
      "size": 1,
      "price": "905000000000000000000",
      "reserved": "",
      "assetIds": []
    },
    {
      "x": 36,
      "y": 92,
      "size": 1,
      "price": "905000000000000000000",
      "reserved": "",
      "assetIds": []
    },
    {
      "x": 36,
      "y": 91,
      "size": 1,
      "price": "905000000000000000000",
      "reserved": "",
      "assetIds": []
    },
    {
      "x": 36,
      "y": 90,
      "size": 1,
      "price": "905000000000000000000",
      "reserved": "",
      "assetIds": []
    },
    {
      "x": 36,
      "y": 89,
      "size": 1,
      "price": "905000000000000000000",
      "reserved": "",
      "assetIds": []
    },
    {
      "x": 36,
      "y": 88,
      "size": 1,
      "price": "905000000000000000000",
      "reserved": "",
      "assetIds": []
    },
    {
      "x": 36,
      "y": 87,
      "size": 1,
      "price": "905000000000000000000",
      "reserved": "",
      "assetIds": []
    },
    {
      "x": 36,
      "y": 86,
      "size": 1,
      "price": "905000000000000000000",
      "reserved": "",
      "assetIds": []
    },
    {
      "x": 36,
      "y": 85,
      "size": 1,
      "price": "905000000000000000000",
      "reserved": "",
      "assetIds": []
    },
    {
      "x": 35,
      "y": 85,
      "size": 1,
      "price": "905000000000000000000",
      "reserved": "",
      "assetIds": []
    },
    {
      "x": 37,
      "y": 91,
      "size": 1,
      "price": "905000000000000000000",
      "reserved": "",
      "assetIds": []
    },
    {
      "x": 37,
      "y": 94,
      "size": 1,
      "price": "905000000000000000000",
      "reserved": "",
      "assetIds": []
    },
    {
      "x": 37,
      "y": 95,
      "size": 1,
      "price": "905000000000000000000",
      "reserved": "",
      "assetIds": []
    },
    {
      "x": 41,
      "y": 105,
      "size": 1,
      "price": "905000000000000000000",
      "reserved": "",
      "assetIds": []
    },
    {
      "x": 41,
      "y": 104,
      "size": 1,
      "price": "905000000000000000000",
      "reserved": "",
      "assetIds": []
    },
    {
      "x": 41,
      "y": 103,
      "size": 1,
      "price": "905000000000000000000",
      "reserved": "",
      "assetIds": []
    },
    {
      "x": 41,
      "y": 102,
      "size": 1,
      "price": "905000000000000000000",
      "reserved": "",
      "assetIds": []
    },
    {
      "x": 41,
      "y": 101,
      "size": 1,
      "price": "905000000000000000000",
      "reserved": "",
      "assetIds": []
    },
    {
      "x": 41,
      "y": 100,
      "size": 1,
      "price": "905000000000000000000",
      "reserved": "",
      "assetIds": []
    },
    {
      "x": 41,
      "y": 99,
      "size": 1,
      "price": "905000000000000000000",
      "reserved": "",
      "assetIds": []
    },
    {
      "x": 40,
      "y": 100,
      "size": 1,
      "price": "905000000000000000000",
      "reserved": "",
      "assetIds": []
    },
    {
      "x": 40,
      "y": 101,
      "size": 1,
      "price": "905000000000000000000",
      "reserved": "",
      "assetIds": []
    },
    {
      "x": 40,
      "y": 102,
      "size": 1,
      "price": "905000000000000000000",
      "reserved": "",
      "assetIds": []
    },
    {
      "x": 40,
      "y": 103,
      "size": 1,
      "price": "905000000000000000000",
      "reserved": "",
      "assetIds": []
    },
    {
      "x": 40,
      "y": 104,
      "size": 1,
      "price": "905000000000000000000",
      "reserved": "",
      "assetIds": []
    },
    {
      "x": 40,
      "y": 105,
      "size": 1,
      "price": "905000000000000000000",
      "reserved": "",
      "assetIds": []
    },
    {
      "x": 40,
      "y": 106,
      "size": 1,
      "price": "905000000000000000000",
      "reserved": "",
      "assetIds": []
    },
    {
      "x": 40,
      "y": 107,
      "size": 1,
      "price": "905000000000000000000",
      "reserved": "",
      "assetIds": []
    },
    {
      "x": 40,
      "y": 99,
      "size": 1,
      "price": "905000000000000000000",
      "reserved": "",
      "assetIds": []
    },
    {
      "x": 39,
      "y": 103,
      "size": 1,
      "price": "905000000000000000000",
      "reserved": "",
      "assetIds": []
    },
    {
      "x": 39,
      "y": 104,
      "size": 1,
      "price": "905000000000000000000",
      "reserved": "",
      "assetIds": []
    },
    {
      "x": 39,
      "y": 105,
      "size": 1,
      "price": "905000000000000000000",
      "reserved": "",
      "assetIds": []
    },
    {
      "x": 39,
      "y": 106,
      "size": 1,
      "price": "905000000000000000000",
      "reserved": "",
      "assetIds": []
    },
    {
      "x": 38,
      "y": 107,
      "size": 1,
      "price": "905000000000000000000",
      "reserved": "",
      "assetIds": []
    },
    {
      "x": 38,
      "y": 106,
      "size": 1,
      "price": "905000000000000000000",
      "reserved": "",
      "assetIds": []
    },
    {
      "x": 38,
      "y": 105,
      "size": 1,
      "price": "905000000000000000000",
      "reserved": "",
      "assetIds": []
    },
    {
      "x": 38,
      "y": 104,
      "size": 1,
      "price": "905000000000000000000",
      "reserved": "",
      "assetIds": []
    },
    {
      "x": 38,
      "y": 103,
      "size": 1,
      "price": "905000000000000000000",
      "reserved": "",
      "assetIds": []
    },
    {
      "x": 38,
      "y": 102,
      "size": 1,
      "price": "905000000000000000000",
      "reserved": "",
      "assetIds": []
    },
    {
      "x": 38,
      "y": 101,
      "size": 1,
      "price": "905000000000000000000",
      "reserved": "",
      "assetIds": []
    },
    {
      "x": 38,
      "y": 100,
      "size": 1,
      "price": "905000000000000000000",
      "reserved": "",
      "assetIds": []
    },
    {
      "x": 38,
      "y": 99,
      "size": 1,
      "price": "905000000000000000000",
      "reserved": "",
      "assetIds": []
    },
    {
      "x": 38,
      "y": 98,
      "size": 1,
      "price": "905000000000000000000",
      "reserved": "",
      "assetIds": []
    },
    {
      "x": 39,
      "y": 99,
      "size": 1,
      "price": "905000000000000000000",
      "reserved": "",
      "assetIds": []
    },
    {
      "x": 39,
      "y": 101,
      "size": 1,
      "price": "905000000000000000000",
      "reserved": "",
      "assetIds": []
    },
    {
      "x": 39,
      "y": 102,
      "size": 1,
      "price": "905000000000000000000",
      "reserved": "",
      "assetIds": []
    },
    {
      "x": 41,
      "y": 107,
      "size": 1,
      "price": "905000000000000000000",
      "reserved": "",
      "assetIds": []
    },
    {
      "x": 41,
      "y": 106,
      "size": 1,
      "price": "905000000000000000000",
      "reserved": "",
      "assetIds": []
    },
    {
      "x": 39,
      "y": 107,
      "size": 1,
      "price": "905000000000000000000",
      "reserved": "",
      "assetIds": []
    },
    {
      "x": 37,
      "y": 107,
      "size": 1,
      "price": "905000000000000000000",
      "reserved": "",
      "assetIds": []
    },
    {
      "x": 36,
      "y": 107,
      "size": 1,
      "price": "905000000000000000000",
      "reserved": "",
      "assetIds": []
    },
    {
      "x": 36,
      "y": 106,
      "size": 1,
      "price": "905000000000000000000",
      "reserved": "",
      "assetIds": []
    },
    {
      "x": 36,
      "y": 105,
      "size": 1,
      "price": "905000000000000000000",
      "reserved": "",
      "assetIds": []
    },
    {
      "x": 36,
      "y": 104,
      "size": 1,
      "price": "905000000000000000000",
      "reserved": "",
      "assetIds": []
    },
    {
      "x": 36,
      "y": 101,
      "size": 1,
      "price": "905000000000000000000",
      "reserved": "",
      "assetIds": []
    },
    {
      "x": 36,
      "y": 100,
      "size": 1,
      "price": "905000000000000000000",
      "reserved": "",
      "assetIds": []
    },
    {
      "x": 36,
      "y": 99,
      "size": 1,
      "price": "905000000000000000000",
      "reserved": "",
      "assetIds": []
    },
    {
      "x": 36,
      "y": 98,
      "size": 1,
      "price": "905000000000000000000",
      "reserved": "",
      "assetIds": []
    },
    {
      "x": 36,
      "y": 97,
      "size": 1,
      "price": "905000000000000000000",
      "reserved": "",
      "assetIds": []
    },
    {
      "x": 36,
      "y": 103,
      "size": 1,
      "price": "905000000000000000000",
      "reserved": "",
      "assetIds": []
    },
    {
      "x": 37,
      "y": 102,
      "size": 1,
      "price": "905000000000000000000",
      "reserved": "",
      "assetIds": []
    },
    {
      "x": 37,
      "y": 101,
      "size": 1,
      "price": "905000000000000000000",
      "reserved": "",
      "assetIds": []
    },
    {
      "x": 37,
      "y": 100,
      "size": 1,
      "price": "905000000000000000000",
      "reserved": "",
      "assetIds": []
    },
    {
      "x": 37,
      "y": 99,
      "size": 1,
      "price": "905000000000000000000",
      "reserved": "",
      "assetIds": []
    },
    {
      "x": 37,
      "y": 98,
      "size": 1,
      "price": "905000000000000000000",
      "reserved": "",
      "assetIds": []
    },
    {
      "x": 37,
      "y": 105,
      "size": 1,
      "price": "905000000000000000000",
      "reserved": "",
      "assetIds": []
    },
    {
      "x": 37,
      "y": 106,
      "size": 1,
      "price": "905000000000000000000",
      "reserved": "",
      "assetIds": []
    },
    {
      "x": 37,
      "y": 103,
      "size": 1,
      "price": "905000000000000000000",
      "reserved": "",
      "assetIds": []
    },
    {
      "x": 36,
      "y": 102,
      "size": 1,
      "price": "905000000000000000000",
      "reserved": "",
      "assetIds": []
    },
    {
      "x": 37,
      "y": 104,
      "size": 1,
      "price": "905000000000000000000",
      "reserved": "",
      "assetIds": []
    },
    {
      "x": 35,
      "y": 71,
      "size": 1,
      "price": "905000000000000000000",
      "reserved": "",
      "assetIds": []
    },
    {
      "x": 34,
      "y": 71,
      "size": 1,
      "price": "905000000000000000000",
      "reserved": "",
      "assetIds": []
    },
    {
      "x": 33,
      "y": 70,
      "size": 1,
      "price": "905000000000000000000",
      "reserved": "",
      "assetIds": []
    },
    {
      "x": 32,
      "y": 70,
      "size": 1,
      "price": "905000000000000000000",
      "reserved": "",
      "assetIds": []
    },
    {
      "x": 32,
      "y": 69,
      "size": 1,
      "price": "905000000000000000000",
      "reserved": "",
      "assetIds": []
    },
    {
      "x": 31,
      "y": 69,
      "size": 1,
      "price": "905000000000000000000",
      "reserved": "",
      "assetIds": []
    },
    {
      "x": 31,
      "y": 70,
      "size": 1,
      "price": "905000000000000000000",
      "reserved": "",
      "assetIds": []
    },
    {
      "x": 30,
      "y": 71,
      "size": 1,
      "price": "905000000000000000000",
      "reserved": "",
      "assetIds": []
    },
    {
      "x": 31,
      "y": 71,
      "size": 1,
      "price": "905000000000000000000",
      "reserved": "",
      "assetIds": []
    },
    {
      "x": 31,
      "y": 68,
      "size": 1,
      "price": "905000000000000000000",
      "reserved": "",
      "assetIds": []
    },
    {
      "x": 30,
      "y": 68,
      "size": 1,
      "price": "905000000000000000000",
      "reserved": "",
      "assetIds": []
    },
    {
      "x": 30,
      "y": 67,
      "size": 1,
      "price": "905000000000000000000",
      "reserved": "",
      "assetIds": []
    },
    {
      "x": 29,
      "y": 67,
      "size": 1,
      "price": "905000000000000000000",
      "reserved": "",
      "assetIds": []
    },
    {
      "x": 29,
      "y": 66,
      "size": 1,
      "price": "905000000000000000000",
      "reserved": "",
      "assetIds": []
    },
    {
      "x": 28,
      "y": 66,
      "size": 1,
      "price": "905000000000000000000",
      "reserved": "",
      "assetIds": []
    },
    {
      "x": 27,
      "y": 66,
      "size": 1,
      "price": "905000000000000000000",
      "reserved": "",
      "assetIds": []
    },
    {
      "x": 27,
      "y": 67,
      "size": 1,
      "price": "905000000000000000000",
      "reserved": "",
      "assetIds": []
    },
    {
      "x": 27,
      "y": 68,
      "size": 1,
      "price": "905000000000000000000",
      "reserved": "",
      "assetIds": []
    },
    {
      "x": 28,
      "y": 68,
      "size": 1,
      "price": "905000000000000000000",
      "reserved": "",
      "assetIds": []
    },
    {
      "x": 28,
      "y": 67,
      "size": 1,
      "price": "905000000000000000000",
      "reserved": "",
      "assetIds": []
    },
    {
      "x": 29,
      "y": 68,
      "size": 1,
      "price": "905000000000000000000",
      "reserved": "",
      "assetIds": []
    },
    {
      "x": 30,
      "y": 69,
      "size": 1,
      "price": "905000000000000000000",
      "reserved": "",
      "assetIds": []
    },
    {
      "x": 30,
      "y": 70,
      "size": 1,
      "price": "905000000000000000000",
      "reserved": "",
      "assetIds": []
    },
    {
      "x": 32,
      "y": 68,
      "size": 1,
      "price": "905000000000000000000",
      "reserved": "",
      "assetIds": []
    },
    {
      "x": 33,
      "y": 68,
      "size": 1,
      "price": "905000000000000000000",
      "reserved": "",
      "assetIds": []
    },
    {
      "x": 33,
      "y": 67,
      "size": 1,
      "price": "905000000000000000000",
      "reserved": "",
      "assetIds": []
    },
    {
      "x": 34,
      "y": 67,
      "size": 1,
      "price": "905000000000000000000",
      "reserved": "",
      "assetIds": []
    },
    {
      "x": 35,
      "y": 68,
      "size": 1,
      "price": "905000000000000000000",
      "reserved": "",
      "assetIds": []
    },
    {
      "x": 34,
      "y": 68,
      "size": 1,
      "price": "905000000000000000000",
      "reserved": "",
      "assetIds": []
    },
    {
      "x": 32,
      "y": 67,
      "size": 1,
      "price": "905000000000000000000",
      "reserved": "",
      "assetIds": []
    },
    {
      "x": 31,
      "y": 67,
      "size": 1,
      "price": "905000000000000000000",
      "reserved": "",
      "assetIds": []
    },
    {
      "x": 30,
      "y": 66,
      "size": 1,
      "price": "905000000000000000000",
      "reserved": "",
      "assetIds": []
    },
    {
      "x": 31,
      "y": 66,
      "size": 1,
      "price": "905000000000000000000",
      "reserved": "",
      "assetIds": []
    },
    {
      "x": 32,
      "y": 66,
      "size": 1,
      "price": "905000000000000000000",
      "reserved": "",
      "assetIds": []
    },
    {
      "x": 33,
      "y": 66,
      "size": 1,
      "price": "905000000000000000000",
      "reserved": "",
      "assetIds": []
    },
    {
      "x": 34,
      "y": 66,
      "size": 1,
      "price": "905000000000000000000",
      "reserved": "",
      "assetIds": []
    },
    {
      "x": 35,
      "y": 66,
      "size": 1,
      "price": "905000000000000000000",
      "reserved": "",
      "assetIds": []
    },
    {
      "x": 35,
      "y": 67,
      "size": 1,
      "price": "905000000000000000000",
      "reserved": "",
      "assetIds": []
    },
    {
      "x": 34,
      "y": 69,
      "size": 1,
      "price": "905000000000000000000",
      "reserved": "",
      "assetIds": []
    },
    {
      "x": 35,
      "y": 69,
      "size": 1,
      "price": "905000000000000000000",
      "reserved": "",
      "assetIds": []
    },
    {
      "x": 35,
      "y": 70,
      "size": 1,
      "price": "905000000000000000000",
      "reserved": "",
      "assetIds": []
    },
    {
      "x": 34,
      "y": 70,
      "size": 1,
      "price": "905000000000000000000",
      "reserved": "",
      "assetIds": []
    },
    {
      "x": 33,
      "y": 69,
      "size": 1,
      "price": "905000000000000000000",
      "reserved": "",
      "assetIds": []
    },
    {
      "x": 33,
      "y": 71,
      "size": 1,
      "price": "905000000000000000000",
      "reserved": "",
      "assetIds": []
    },
    {
      "x": 34,
      "y": 84,
      "size": 1,
      "price": "905000000000000000000",
      "reserved": "",
      "assetIds": []
    },
    {
      "x": 35,
      "y": 84,
      "size": 1,
      "price": "905000000000000000000",
      "reserved": "",
      "assetIds": []
    },
    {
      "x": 34,
      "y": 85,
      "size": 1,
      "price": "905000000000000000000",
      "reserved": "",
      "assetIds": []
    },
    {
      "x": 82,
      "y": 152,
      "size": 1,
      "price": "905000000000000000000",
      "reserved": "",
      "assetIds": []
    },
    {
      "x": 83,
      "y": 152,
      "size": 1,
      "price": "905000000000000000000",
      "reserved": "",
      "assetIds": []
    },
    {
      "x": 83,
      "y": 153,
      "size": 1,
      "price": "905000000000000000000",
      "reserved": "",
      "assetIds": []
    },
    {
      "x": 33,
      "y": 84,
      "size": 1,
      "price": "905000000000000000000",
      "reserved": "",
      "assetIds": []
    },
    {
      "x": 32,
      "y": 84,
      "size": 1,
      "price": "905000000000000000000",
      "reserved": "",
      "assetIds": []
    },
    {
      "x": 32,
      "y": 85,
      "size": 1,
      "price": "905000000000000000000",
      "reserved": "",
      "assetIds": []
    },
    {
      "x": 33,
      "y": 85,
      "size": 1,
      "price": "905000000000000000000",
      "reserved": "",
      "assetIds": []
    },
    {
      "x": 140,
      "y": 23,
      "size": 1,
      "price": "905000000000000000000",
      "reserved": "",
      "assetIds": []
    },
    {
      "x": 140,
      "y": 22,
      "size": 1,
      "price": "905000000000000000000",
      "reserved": "",
      "assetIds": []
    },
    {
      "x": 140,
      "y": 21,
      "size": 1,
      "price": "905000000000000000000",
      "reserved": "",
      "assetIds": []
    },
    {
      "x": 140,
      "y": 20,
      "size": 1,
      "price": "905000000000000000000",
      "reserved": "",
      "assetIds": []
    },
    {
      "x": 140,
      "y": 19,
      "size": 1,
      "price": "905000000000000000000",
      "reserved": "",
      "assetIds": []
    },
    {
      "x": 140,
      "y": 18,
      "size": 1,
      "price": "905000000000000000000",
      "reserved": "",
      "assetIds": []
    },
    {
      "x": 140,
      "y": 17,
      "size": 1,
      "price": "905000000000000000000",
      "reserved": "",
      "assetIds": []
    },
    {
      "x": 140,
      "y": 16,
      "size": 1,
      "price": "905000000000000000000",
      "reserved": "",
      "assetIds": []
    },
    {
      "x": 140,
      "y": 15,
      "size": 1,
      "price": "905000000000000000000",
      "reserved": "",
      "assetIds": []
    },
    {
      "x": 140,
      "y": 14,
      "size": 1,
      "price": "905000000000000000000",
      "reserved": "",
      "assetIds": []
    },
    {
      "x": 140,
      "y": 13,
      "size": 1,
      "price": "905000000000000000000",
      "reserved": "",
      "assetIds": []
    },
    {
      "x": 140,
      "y": 12,
      "size": 1,
      "price": "905000000000000000000",
      "reserved": "",
      "assetIds": []
    },
    {
      "x": 140,
      "y": 11,
      "size": 1,
      "price": "905000000000000000000",
      "reserved": "",
      "assetIds": []
    },
    {
      "x": 140,
      "y": 10,
      "size": 1,
      "price": "905000000000000000000",
      "reserved": "",
      "assetIds": []
    },
    {
      "x": 140,
      "y": 9,
      "size": 1,
      "price": "905000000000000000000",
      "reserved": "",
      "assetIds": []
    },
    {
      "x": 140,
      "y": 8,
      "size": 1,
      "price": "905000000000000000000",
      "reserved": "",
      "assetIds": []
    },
    {
      "x": 140,
      "y": 7,
      "size": 1,
      "price": "905000000000000000000",
      "reserved": "",
      "assetIds": []
    },
    {
      "x": 139,
      "y": 23,
      "size": 1,
      "price": "905000000000000000000",
      "reserved": "",
      "assetIds": []
    },
    {
      "x": 139,
      "y": 22,
      "size": 1,
      "price": "905000000000000000000",
      "reserved": "",
      "assetIds": []
    },
    {
      "x": 139,
      "y": 21,
      "size": 1,
      "price": "905000000000000000000",
      "reserved": "",
      "assetIds": []
    },
    {
      "x": 139,
      "y": 20,
      "size": 1,
      "price": "905000000000000000000",
      "reserved": "",
      "assetIds": []
    },
    {
      "x": 139,
      "y": 19,
      "size": 1,
      "price": "905000000000000000000",
      "reserved": "",
      "assetIds": []
    },
    {
      "x": 139,
      "y": 18,
      "size": 1,
      "price": "905000000000000000000",
      "reserved": "",
      "assetIds": []
    },
    {
      "x": 139,
      "y": 17,
      "size": 1,
      "price": "905000000000000000000",
      "reserved": "",
      "assetIds": []
    },
    {
      "x": 139,
      "y": 16,
      "size": 1,
      "price": "905000000000000000000",
      "reserved": "",
      "assetIds": []
    },
    {
      "x": 139,
      "y": 15,
      "size": 1,
      "price": "905000000000000000000",
      "reserved": "",
      "assetIds": []
    },
    {
      "x": 139,
      "y": 14,
      "size": 1,
      "price": "905000000000000000000",
      "reserved": "",
      "assetIds": []
    },
    {
      "x": 139,
      "y": 13,
      "size": 1,
      "price": "905000000000000000000",
      "reserved": "",
      "assetIds": []
    },
    {
      "x": 139,
      "y": 12,
      "size": 1,
      "price": "905000000000000000000",
      "reserved": "",
      "assetIds": []
    },
    {
      "x": 139,
      "y": 11,
      "size": 1,
      "price": "905000000000000000000",
      "reserved": "",
      "assetIds": []
    },
    {
      "x": 139,
      "y": 10,
      "size": 1,
      "price": "905000000000000000000",
      "reserved": "",
      "assetIds": []
    },
    {
      "x": 139,
      "y": 9,
      "size": 1,
      "price": "905000000000000000000",
      "reserved": "",
      "assetIds": []
    },
    {
      "x": 139,
      "y": 8,
      "size": 1,
      "price": "905000000000000000000",
      "reserved": "",
      "assetIds": []
    },
    {
      "x": 139,
      "y": 7,
      "size": 1,
      "price": "905000000000000000000",
      "reserved": "",
      "assetIds": []
    },
    {
      "x": 138,
      "y": 23,
      "size": 1,
      "price": "905000000000000000000",
      "reserved": "",
      "assetIds": []
    },
    {
      "x": 138,
      "y": 22,
      "size": 1,
      "price": "905000000000000000000",
      "reserved": "",
      "assetIds": []
    },
    {
      "x": 138,
      "y": 21,
      "size": 1,
      "price": "905000000000000000000",
      "reserved": "",
      "assetIds": []
    },
    {
      "x": 138,
      "y": 20,
      "size": 1,
      "price": "905000000000000000000",
      "reserved": "",
      "assetIds": []
    },
    {
      "x": 138,
      "y": 19,
      "size": 1,
      "price": "905000000000000000000",
      "reserved": "",
      "assetIds": []
    },
    {
      "x": 138,
      "y": 18,
      "size": 1,
      "price": "905000000000000000000",
      "reserved": "",
      "assetIds": []
    },
    {
      "x": 138,
      "y": 17,
      "size": 1,
      "price": "905000000000000000000",
      "reserved": "",
      "assetIds": []
    },
    {
      "x": 138,
      "y": 16,
      "size": 1,
      "price": "905000000000000000000",
      "reserved": "",
      "assetIds": []
    },
    {
      "x": 138,
      "y": 15,
      "size": 1,
      "price": "905000000000000000000",
      "reserved": "",
      "assetIds": []
    },
    {
      "x": 138,
      "y": 14,
      "size": 1,
      "price": "905000000000000000000",
      "reserved": "",
      "assetIds": []
    },
    {
      "x": 138,
      "y": 13,
      "size": 1,
      "price": "905000000000000000000",
      "reserved": "",
      "assetIds": []
    },
    {
      "x": 138,
      "y": 12,
      "size": 1,
      "price": "905000000000000000000",
      "reserved": "",
      "assetIds": []
    },
    {
      "x": 138,
      "y": 11,
      "size": 1,
      "price": "905000000000000000000",
      "reserved": "",
      "assetIds": []
    },
    {
      "x": 138,
      "y": 10,
      "size": 1,
      "price": "905000000000000000000",
      "reserved": "",
      "assetIds": []
    },
    {
      "x": 138,
      "y": 9,
      "size": 1,
      "price": "905000000000000000000",
      "reserved": "",
      "assetIds": []
    },
    {
      "x": 138,
      "y": 8,
      "size": 1,
      "price": "905000000000000000000",
      "reserved": "",
      "assetIds": []
    },
    {
      "x": 138,
      "y": 7,
      "size": 1,
      "price": "905000000000000000000",
      "reserved": "",
      "assetIds": []
    },
    {
      "x": 137,
      "y": 23,
      "size": 1,
      "price": "905000000000000000000",
      "reserved": "",
      "assetIds": []
    },
    {
      "x": 137,
      "y": 22,
      "size": 1,
      "price": "905000000000000000000",
      "reserved": "",
      "assetIds": []
    },
    {
      "x": 137,
      "y": 21,
      "size": 1,
      "price": "905000000000000000000",
      "reserved": "",
      "assetIds": []
    },
    {
      "x": 137,
      "y": 20,
      "size": 1,
      "price": "905000000000000000000",
      "reserved": "",
      "assetIds": []
    },
    {
      "x": 137,
      "y": 19,
      "size": 1,
      "price": "905000000000000000000",
      "reserved": "",
      "assetIds": []
    },
    {
      "x": 137,
      "y": 18,
      "size": 1,
      "price": "905000000000000000000",
      "reserved": "",
      "assetIds": []
    },
    {
      "x": 137,
      "y": 17,
      "size": 1,
      "price": "905000000000000000000",
      "reserved": "",
      "assetIds": []
    },
    {
      "x": 137,
      "y": 16,
      "size": 1,
      "price": "905000000000000000000",
      "reserved": "",
      "assetIds": []
    },
    {
      "x": 137,
      "y": 15,
      "size": 1,
      "price": "905000000000000000000",
      "reserved": "",
      "assetIds": []
    },
    {
      "x": 137,
      "y": 14,
      "size": 1,
      "price": "905000000000000000000",
      "reserved": "",
      "assetIds": []
    },
    {
      "x": 137,
      "y": 13,
      "size": 1,
      "price": "905000000000000000000",
      "reserved": "",
      "assetIds": []
    },
    {
      "x": 137,
      "y": 12,
      "size": 1,
      "price": "905000000000000000000",
      "reserved": "",
      "assetIds": []
    },
    {
      "x": 137,
      "y": 11,
      "size": 1,
      "price": "905000000000000000000",
      "reserved": "",
      "assetIds": []
    },
    {
      "x": 137,
      "y": 10,
      "size": 1,
      "price": "905000000000000000000",
      "reserved": "",
      "assetIds": []
    },
    {
      "x": 137,
      "y": 9,
      "size": 1,
      "price": "905000000000000000000",
      "reserved": "",
      "assetIds": []
    },
    {
      "x": 137,
      "y": 8,
      "size": 1,
      "price": "905000000000000000000",
      "reserved": "",
      "assetIds": []
    },
    {
      "x": 137,
      "y": 7,
      "size": 1,
      "price": "905000000000000000000",
      "reserved": "",
      "assetIds": []
    },
    {
      "x": 136,
      "y": 23,
      "size": 1,
      "price": "905000000000000000000",
      "reserved": "",
      "assetIds": []
    },
    {
      "x": 136,
      "y": 22,
      "size": 1,
      "price": "905000000000000000000",
      "reserved": "",
      "assetIds": []
    },
    {
      "x": 136,
      "y": 21,
      "size": 1,
      "price": "905000000000000000000",
      "reserved": "",
      "assetIds": []
    },
    {
      "x": 136,
      "y": 20,
      "size": 1,
      "price": "905000000000000000000",
      "reserved": "",
      "assetIds": []
    },
    {
      "x": 136,
      "y": 19,
      "size": 1,
      "price": "905000000000000000000",
      "reserved": "",
      "assetIds": []
    },
    {
      "x": 136,
      "y": 18,
      "size": 1,
      "price": "905000000000000000000",
      "reserved": "",
      "assetIds": []
    },
    {
      "x": 136,
      "y": 17,
      "size": 1,
      "price": "905000000000000000000",
      "reserved": "",
      "assetIds": []
    },
    {
      "x": 136,
      "y": 16,
      "size": 1,
      "price": "905000000000000000000",
      "reserved": "",
      "assetIds": []
    },
    {
      "x": 136,
      "y": 15,
      "size": 1,
      "price": "905000000000000000000",
      "reserved": "",
      "assetIds": []
    },
    {
      "x": 136,
      "y": 14,
      "size": 1,
      "price": "905000000000000000000",
      "reserved": "",
      "assetIds": []
    },
    {
      "x": 136,
      "y": 13,
      "size": 1,
      "price": "905000000000000000000",
      "reserved": "",
      "assetIds": []
    },
    {
      "x": 136,
      "y": 12,
      "size": 1,
      "price": "905000000000000000000",
      "reserved": "",
      "assetIds": []
    },
    {
      "x": 136,
      "y": 11,
      "size": 1,
      "price": "905000000000000000000",
      "reserved": "",
      "assetIds": []
    },
    {
      "x": 136,
      "y": 10,
      "size": 1,
      "price": "905000000000000000000",
      "reserved": "",
      "assetIds": []
    },
    {
      "x": 136,
      "y": 9,
      "size": 1,
      "price": "905000000000000000000",
      "reserved": "",
      "assetIds": []
    },
    {
      "x": 136,
      "y": 8,
      "size": 1,
      "price": "905000000000000000000",
      "reserved": "",
      "assetIds": []
    },
    {
      "x": 136,
      "y": 7,
      "size": 1,
      "price": "905000000000000000000",
      "reserved": "",
      "assetIds": []
    },
    {
      "x": 135,
      "y": 23,
      "size": 1,
      "price": "905000000000000000000",
      "reserved": "",
      "assetIds": []
    },
    {
      "x": 135,
      "y": 22,
      "size": 1,
      "price": "905000000000000000000",
      "reserved": "",
      "assetIds": []
    },
    {
      "x": 135,
      "y": 21,
      "size": 1,
      "price": "905000000000000000000",
      "reserved": "",
      "assetIds": []
    },
    {
      "x": 135,
      "y": 20,
      "size": 1,
      "price": "905000000000000000000",
      "reserved": "",
      "assetIds": []
    },
    {
      "x": 135,
      "y": 19,
      "size": 1,
      "price": "905000000000000000000",
      "reserved": "",
      "assetIds": []
    },
    {
      "x": 135,
      "y": 18,
      "size": 1,
      "price": "905000000000000000000",
      "reserved": "",
      "assetIds": []
    },
    {
      "x": 135,
      "y": 17,
      "size": 1,
      "price": "905000000000000000000",
      "reserved": "",
      "assetIds": []
    },
    {
      "x": 135,
      "y": 16,
      "size": 1,
      "price": "905000000000000000000",
      "reserved": "",
      "assetIds": []
    },
    {
      "x": 135,
      "y": 15,
      "size": 1,
      "price": "905000000000000000000",
      "reserved": "",
      "assetIds": []
    },
    {
      "x": 135,
      "y": 14,
      "size": 1,
      "price": "905000000000000000000",
      "reserved": "",
      "assetIds": []
    },
    {
      "x": 135,
      "y": 13,
      "size": 1,
      "price": "905000000000000000000",
      "reserved": "",
      "assetIds": []
    },
    {
      "x": 135,
      "y": 12,
      "size": 1,
      "price": "905000000000000000000",
      "reserved": "",
      "assetIds": []
    },
    {
      "x": 135,
      "y": 11,
      "size": 1,
      "price": "905000000000000000000",
      "reserved": "",
      "assetIds": []
    },
    {
      "x": 135,
      "y": 10,
      "size": 1,
      "price": "905000000000000000000",
      "reserved": "",
      "assetIds": []
    },
    {
      "x": 135,
      "y": 9,
      "size": 1,
      "price": "905000000000000000000",
      "reserved": "",
      "assetIds": []
    },
    {
      "x": 135,
      "y": 8,
      "size": 1,
      "price": "905000000000000000000",
      "reserved": "",
      "assetIds": []
    },
    {
      "x": 135,
      "y": 7,
      "size": 1,
      "price": "905000000000000000000",
      "reserved": "",
      "assetIds": []
    },
    {
      "x": 134,
      "y": 23,
      "size": 1,
      "price": "905000000000000000000",
      "reserved": "",
      "assetIds": []
    },
    {
      "x": 134,
      "y": 22,
      "size": 1,
      "price": "905000000000000000000",
      "reserved": "",
      "assetIds": []
    },
    {
      "x": 134,
      "y": 21,
      "size": 1,
      "price": "905000000000000000000",
      "reserved": "",
      "assetIds": []
    },
    {
      "x": 134,
      "y": 20,
      "size": 1,
      "price": "905000000000000000000",
      "reserved": "",
      "assetIds": []
    },
    {
      "x": 134,
      "y": 19,
      "size": 1,
      "price": "905000000000000000000",
      "reserved": "",
      "assetIds": []
    },
    {
      "x": 133,
      "y": 19,
      "size": 1,
      "price": "905000000000000000000",
      "reserved": "",
      "assetIds": []
    },
    {
      "x": 133,
      "y": 18,
      "size": 1,
      "price": "905000000000000000000",
      "reserved": "",
      "assetIds": []
    },
    {
      "x": 133,
      "y": 17,
      "size": 1,
      "price": "905000000000000000000",
      "reserved": "",
      "assetIds": []
    },
    {
      "x": 133,
      "y": 16,
      "size": 1,
      "price": "905000000000000000000",
      "reserved": "",
      "assetIds": []
    },
    {
      "x": 133,
      "y": 15,
      "size": 1,
      "price": "905000000000000000000",
      "reserved": "",
      "assetIds": []
    },
    {
      "x": 133,
      "y": 14,
      "size": 1,
      "price": "905000000000000000000",
      "reserved": "",
      "assetIds": []
    },
    {
      "x": 133,
      "y": 13,
      "size": 1,
      "price": "905000000000000000000",
      "reserved": "",
      "assetIds": []
    },
    {
      "x": 133,
      "y": 12,
      "size": 1,
      "price": "905000000000000000000",
      "reserved": "",
      "assetIds": []
    },
    {
      "x": 134,
      "y": 12,
      "size": 1,
      "price": "905000000000000000000",
      "reserved": "",
      "assetIds": []
    },
    {
      "x": 134,
      "y": 11,
      "size": 1,
      "price": "905000000000000000000",
      "reserved": "",
      "assetIds": []
    },
    {
      "x": 134,
      "y": 10,
      "size": 1,
      "price": "905000000000000000000",
      "reserved": "",
      "assetIds": []
    },
    {
      "x": 134,
      "y": 9,
      "size": 1,
      "price": "905000000000000000000",
      "reserved": "",
      "assetIds": []
    },
    {
      "x": 134,
      "y": 8,
      "size": 1,
      "price": "905000000000000000000",
      "reserved": "",
      "assetIds": []
    },
    {
      "x": 134,
      "y": 7,
      "size": 1,
      "price": "905000000000000000000",
      "reserved": "",
      "assetIds": []
    },
    {
      "x": 134,
      "y": 18,
      "size": 1,
      "price": "905000000000000000000",
      "reserved": "",
      "assetIds": []
    },
    {
      "x": 134,
      "y": 17,
      "size": 1,
      "price": "905000000000000000000",
      "reserved": "",
      "assetIds": []
    },
    {
      "x": 134,
      "y": 16,
      "size": 1,
      "price": "905000000000000000000",
      "reserved": "",
      "assetIds": []
    },
    {
      "x": 134,
      "y": 15,
      "size": 1,
      "price": "905000000000000000000",
      "reserved": "",
      "assetIds": []
    },
    {
      "x": 134,
      "y": 14,
      "size": 1,
      "price": "905000000000000000000",
      "reserved": "",
      "assetIds": []
    },
    {
      "x": 134,
      "y": 13,
      "size": 1,
      "price": "905000000000000000000",
      "reserved": "",
      "assetIds": []
    },
    {
      "x": 133,
      "y": 23,
      "size": 1,
      "price": "905000000000000000000",
      "reserved": "",
      "assetIds": []
    },
    {
      "x": 133,
      "y": 22,
      "size": 1,
      "price": "905000000000000000000",
      "reserved": "",
      "assetIds": []
    },
    {
      "x": 133,
      "y": 21,
      "size": 1,
      "price": "905000000000000000000",
      "reserved": "",
      "assetIds": []
    },
    {
      "x": 133,
      "y": 20,
      "size": 1,
      "price": "905000000000000000000",
      "reserved": "",
      "assetIds": []
    },
    {
      "x": 133,
      "y": 11,
      "size": 1,
      "price": "905000000000000000000",
      "reserved": "",
      "assetIds": []
    },
    {
      "x": 133,
      "y": 10,
      "size": 1,
      "price": "905000000000000000000",
      "reserved": "",
      "assetIds": []
    },
    {
      "x": 133,
      "y": 9,
      "size": 1,
      "price": "905000000000000000000",
      "reserved": "",
      "assetIds": []
    },
    {
      "x": 133,
      "y": 8,
      "size": 1,
      "price": "905000000000000000000",
      "reserved": "",
      "assetIds": []
    },
    {
      "x": 133,
      "y": 7,
      "size": 1,
      "price": "905000000000000000000",
      "reserved": "",
      "assetIds": []
    },
    {
      "x": 132,
      "y": 23,
      "size": 1,
      "price": "905000000000000000000",
      "reserved": "",
      "assetIds": []
    },
    {
      "x": 132,
      "y": 22,
      "size": 1,
      "price": "905000000000000000000",
      "reserved": "",
      "assetIds": []
    },
    {
      "x": 132,
      "y": 21,
      "size": 1,
      "price": "905000000000000000000",
      "reserved": "",
      "assetIds": []
    },
    {
      "x": 132,
      "y": 20,
      "size": 1,
      "price": "905000000000000000000",
      "reserved": "",
      "assetIds": []
    },
    {
      "x": 132,
      "y": 19,
      "size": 1,
      "price": "905000000000000000000",
      "reserved": "",
      "assetIds": []
    },
    {
      "x": 132,
      "y": 18,
      "size": 1,
      "price": "905000000000000000000",
      "reserved": "",
      "assetIds": []
    },
    {
      "x": 132,
      "y": 17,
      "size": 1,
      "price": "905000000000000000000",
      "reserved": "",
      "assetIds": []
    },
    {
      "x": 132,
      "y": 15,
      "size": 1,
      "price": "905000000000000000000",
      "reserved": "",
      "assetIds": []
    },
    {
      "x": 132,
      "y": 16,
      "size": 1,
      "price": "905000000000000000000",
      "reserved": "",
      "assetIds": []
    },
    {
      "x": 132,
      "y": 14,
      "size": 1,
      "price": "905000000000000000000",
      "reserved": "",
      "assetIds": []
    },
    {
      "x": 132,
      "y": 13,
      "size": 1,
      "price": "905000000000000000000",
      "reserved": "",
      "assetIds": []
    },
    {
      "x": 132,
      "y": 12,
      "size": 1,
      "price": "905000000000000000000",
      "reserved": "",
      "assetIds": []
    },
    {
      "x": 132,
      "y": 11,
      "size": 1,
      "price": "905000000000000000000",
      "reserved": "",
      "assetIds": []
    },
    {
      "x": 132,
      "y": 10,
      "size": 1,
      "price": "905000000000000000000",
      "reserved": "",
      "assetIds": []
    },
    {
      "x": 132,
      "y": 9,
      "size": 1,
      "price": "905000000000000000000",
      "reserved": "",
      "assetIds": []
    },
    {
      "x": 132,
      "y": 8,
      "size": 1,
      "price": "905000000000000000000",
      "reserved": "",
      "assetIds": []
    },
    {
      "x": 132,
      "y": 7,
      "size": 1,
      "price": "905000000000000000000",
      "reserved": "",
      "assetIds": []
    },
    {
      "x": 131,
      "y": 23,
      "size": 1,
      "price": "905000000000000000000",
      "reserved": "",
      "assetIds": []
    },
    {
      "x": 131,
      "y": 22,
      "size": 1,
      "price": "905000000000000000000",
      "reserved": "",
      "assetIds": []
    },
    {
      "x": 131,
      "y": 21,
      "size": 1,
      "price": "905000000000000000000",
      "reserved": "",
      "assetIds": []
    },
    {
      "x": 131,
      "y": 20,
      "size": 1,
      "price": "905000000000000000000",
      "reserved": "",
      "assetIds": []
    },
    {
      "x": 131,
      "y": 19,
      "size": 1,
      "price": "905000000000000000000",
      "reserved": "",
      "assetIds": []
    },
    {
      "x": 131,
      "y": 18,
      "size": 1,
      "price": "905000000000000000000",
      "reserved": "",
      "assetIds": []
    },
    {
      "x": 131,
      "y": 17,
      "size": 1,
      "price": "905000000000000000000",
      "reserved": "",
      "assetIds": []
    },
    {
      "x": 131,
      "y": 16,
      "size": 1,
      "price": "905000000000000000000",
      "reserved": "",
      "assetIds": []
    },
    {
      "x": 131,
      "y": 15,
      "size": 1,
      "price": "905000000000000000000",
      "reserved": "",
      "assetIds": []
    },
    {
      "x": 131,
      "y": 14,
      "size": 1,
      "price": "905000000000000000000",
      "reserved": "",
      "assetIds": []
    },
    {
      "x": 131,
      "y": 13,
      "size": 1,
      "price": "905000000000000000000",
      "reserved": "",
      "assetIds": []
    },
    {
      "x": 131,
      "y": 12,
      "size": 1,
      "price": "905000000000000000000",
      "reserved": "",
      "assetIds": []
    },
    {
      "x": 131,
      "y": 11,
      "size": 1,
      "price": "905000000000000000000",
      "reserved": "",
      "assetIds": []
    },
    {
      "x": 131,
      "y": 10,
      "size": 1,
      "price": "905000000000000000000",
      "reserved": "",
      "assetIds": []
    },
    {
      "x": 131,
      "y": 9,
      "size": 1,
      "price": "905000000000000000000",
      "reserved": "",
      "assetIds": []
    },
    {
      "x": 131,
      "y": 8,
      "size": 1,
      "price": "905000000000000000000",
      "reserved": "",
      "assetIds": []
    },
    {
      "x": 131,
      "y": 7,
      "size": 1,
      "price": "905000000000000000000",
      "reserved": "",
      "assetIds": []
    },
    {
      "x": 81,
      "y": 23,
      "size": 1,
      "price": "905000000000000000000",
      "reserved": "",
      "assetIds": []
    },
    {
      "x": 82,
      "y": 23,
      "size": 1,
      "price": "905000000000000000000",
      "reserved": "",
      "assetIds": []
    },
    {
      "x": 83,
      "y": 23,
      "size": 1,
      "price": "905000000000000000000",
      "reserved": "",
      "assetIds": []
    },
    {
      "x": 84,
      "y": 23,
      "size": 1,
      "price": "905000000000000000000",
      "reserved": "",
      "assetIds": []
    },
    {
      "x": 85,
      "y": 23,
      "size": 1,
      "price": "905000000000000000000",
      "reserved": "",
      "assetIds": []
    },
    {
      "x": 86,
      "y": 23,
      "size": 1,
      "price": "905000000000000000000",
      "reserved": "",
      "assetIds": []
    },
    {
      "x": 87,
      "y": 23,
      "size": 1,
      "price": "905000000000000000000",
      "reserved": "",
      "assetIds": []
    },
    {
      "x": 88,
      "y": 23,
      "size": 1,
      "price": "905000000000000000000",
      "reserved": "",
      "assetIds": []
    },
    {
      "x": 89,
      "y": 23,
      "size": 1,
      "price": "905000000000000000000",
      "reserved": "",
      "assetIds": []
    },
    {
      "x": 90,
      "y": 23,
      "size": 1,
      "price": "905000000000000000000",
      "reserved": "",
      "assetIds": []
    },
    {
      "x": 91,
      "y": 23,
      "size": 1,
      "price": "905000000000000000000",
      "reserved": "",
      "assetIds": []
    },
    {
      "x": 92,
      "y": 23,
      "size": 1,
      "price": "905000000000000000000",
      "reserved": "",
      "assetIds": []
    },
    {
      "x": 93,
      "y": 23,
      "size": 1,
      "price": "905000000000000000000",
      "reserved": "",
      "assetIds": []
    },
    {
      "x": 94,
      "y": 23,
      "size": 1,
      "price": "905000000000000000000",
      "reserved": "",
      "assetIds": []
    },
    {
      "x": 95,
      "y": 23,
      "size": 1,
      "price": "905000000000000000000",
      "reserved": "",
      "assetIds": []
    },
    {
      "x": 96,
      "y": 23,
      "size": 1,
      "price": "905000000000000000000",
      "reserved": "",
      "assetIds": []
    },
    {
      "x": 97,
      "y": 23,
      "size": 1,
      "price": "905000000000000000000",
      "reserved": "",
      "assetIds": []
    },
    {
      "x": 98,
      "y": 23,
      "size": 1,
      "price": "905000000000000000000",
      "reserved": "",
      "assetIds": []
    },
    {
      "x": 99,
      "y": 23,
      "size": 1,
      "price": "905000000000000000000",
      "reserved": "",
      "assetIds": []
    },
    {
      "x": 100,
      "y": 23,
      "size": 1,
      "price": "905000000000000000000",
      "reserved": "",
      "assetIds": []
    },
    {
      "x": 101,
      "y": 23,
      "size": 1,
      "price": "905000000000000000000",
      "reserved": "",
      "assetIds": []
    },
    {
      "x": 102,
      "y": 23,
      "size": 1,
      "price": "905000000000000000000",
      "reserved": "",
      "assetIds": []
    },
    {
      "x": 103,
      "y": 23,
      "size": 1,
      "price": "905000000000000000000",
      "reserved": "",
      "assetIds": []
    },
    {
      "x": 104,
      "y": 23,
      "size": 1,
      "price": "905000000000000000000",
      "reserved": "",
      "assetIds": []
    },
    {
      "x": 105,
      "y": 23,
      "size": 1,
      "price": "905000000000000000000",
      "reserved": "",
      "assetIds": []
    },
    {
      "x": 106,
      "y": 23,
      "size": 1,
      "price": "905000000000000000000",
      "reserved": "",
      "assetIds": []
    },
    {
      "x": 107,
      "y": 23,
      "size": 1,
      "price": "905000000000000000000",
      "reserved": "",
      "assetIds": []
    },
    {
      "x": 108,
      "y": 23,
      "size": 1,
      "price": "905000000000000000000",
      "reserved": "",
      "assetIds": []
    },
    {
      "x": 109,
      "y": 23,
      "size": 1,
      "price": "905000000000000000000",
      "reserved": "",
      "assetIds": []
    },
    {
      "x": 110,
      "y": 23,
      "size": 1,
      "price": "905000000000000000000",
      "reserved": "",
      "assetIds": []
    },
    {
      "x": 111,
      "y": 23,
      "size": 1,
      "price": "905000000000000000000",
      "reserved": "",
      "assetIds": []
    },
    {
      "x": 112,
      "y": 23,
      "size": 1,
      "price": "905000000000000000000",
      "reserved": "",
      "assetIds": []
    },
    {
      "x": 113,
      "y": 23,
      "size": 1,
      "price": "905000000000000000000",
      "reserved": "",
      "assetIds": []
    },
    {
      "x": 114,
      "y": 23,
      "size": 1,
      "price": "905000000000000000000",
      "reserved": "",
      "assetIds": []
    },
    {
      "x": 115,
      "y": 23,
      "size": 1,
      "price": "905000000000000000000",
      "reserved": "",
      "assetIds": []
    },
    {
      "x": 116,
      "y": 23,
      "size": 1,
      "price": "905000000000000000000",
      "reserved": "",
      "assetIds": []
    },
    {
      "x": 117,
      "y": 23,
      "size": 1,
      "price": "905000000000000000000",
      "reserved": "",
      "assetIds": []
    },
    {
      "x": 118,
      "y": 23,
      "size": 1,
      "price": "905000000000000000000",
      "reserved": "",
      "assetIds": []
    },
    {
      "x": 119,
      "y": 23,
      "size": 1,
      "price": "905000000000000000000",
      "reserved": "",
      "assetIds": []
    },
    {
      "x": 120,
      "y": 23,
      "size": 1,
      "price": "905000000000000000000",
      "reserved": "",
      "assetIds": []
    },
    {
      "x": 121,
      "y": 23,
      "size": 1,
      "price": "905000000000000000000",
      "reserved": "",
      "assetIds": []
    },
    {
      "x": 122,
      "y": 23,
      "size": 1,
      "price": "905000000000000000000",
      "reserved": "",
      "assetIds": []
    },
    {
      "x": 123,
      "y": 23,
      "size": 1,
      "price": "905000000000000000000",
      "reserved": "",
      "assetIds": []
    },
    {
      "x": 124,
      "y": 23,
      "size": 1,
      "price": "905000000000000000000",
      "reserved": "",
      "assetIds": []
    },
    {
      "x": 125,
      "y": 23,
      "size": 1,
      "price": "905000000000000000000",
      "reserved": "",
      "assetIds": []
    },
    {
      "x": 130,
      "y": 23,
      "size": 1,
      "price": "905000000000000000000",
      "reserved": "",
      "assetIds": []
    },
    {
      "x": 129,
      "y": 23,
      "size": 1,
      "price": "905000000000000000000",
      "reserved": "",
      "assetIds": []
    },
    {
      "x": 128,
      "y": 23,
      "size": 1,
      "price": "905000000000000000000",
      "reserved": "",
      "assetIds": []
    },
    {
      "x": 127,
      "y": 23,
      "size": 1,
      "price": "905000000000000000000",
      "reserved": "",
      "assetIds": []
    },
    {
      "x": 126,
      "y": 23,
      "size": 1,
      "price": "905000000000000000000",
      "reserved": "",
      "assetIds": []
    },
    {
      "x": 81,
      "y": 22,
      "size": 1,
      "price": "905000000000000000000",
      "reserved": "",
      "assetIds": []
    },
    {
      "x": 82,
      "y": 22,
      "size": 1,
      "price": "905000000000000000000",
      "reserved": "",
      "assetIds": []
    },
    {
      "x": 83,
      "y": 22,
      "size": 1,
      "price": "905000000000000000000",
      "reserved": "",
      "assetIds": []
    },
    {
      "x": 84,
      "y": 22,
      "size": 1,
      "price": "905000000000000000000",
      "reserved": "",
      "assetIds": []
    },
    {
      "x": 85,
      "y": 22,
      "size": 1,
      "price": "905000000000000000000",
      "reserved": "",
      "assetIds": []
    },
    {
      "x": 86,
      "y": 22,
      "size": 1,
      "price": "905000000000000000000",
      "reserved": "",
      "assetIds": []
    },
    {
      "x": 87,
      "y": 22,
      "size": 1,
      "price": "905000000000000000000",
      "reserved": "",
      "assetIds": []
    },
    {
      "x": 88,
      "y": 22,
      "size": 1,
      "price": "905000000000000000000",
      "reserved": "",
      "assetIds": []
    },
    {
      "x": 89,
      "y": 22,
      "size": 1,
      "price": "905000000000000000000",
      "reserved": "",
      "assetIds": []
    },
    {
      "x": 90,
      "y": 22,
      "size": 1,
      "price": "905000000000000000000",
      "reserved": "",
      "assetIds": []
    },
    {
      "x": 95,
      "y": 22,
      "size": 1,
      "price": "905000000000000000000",
      "reserved": "",
      "assetIds": []
    },
    {
      "x": 96,
      "y": 22,
      "size": 1,
      "price": "905000000000000000000",
      "reserved": "",
      "assetIds": []
    },
    {
      "x": 97,
      "y": 22,
      "size": 1,
      "price": "905000000000000000000",
      "reserved": "",
      "assetIds": []
    },
    {
      "x": 98,
      "y": 22,
      "size": 1,
      "price": "905000000000000000000",
      "reserved": "",
      "assetIds": []
    },
    {
      "x": 99,
      "y": 22,
      "size": 1,
      "price": "905000000000000000000",
      "reserved": "",
      "assetIds": []
    },
    {
      "x": 100,
      "y": 22,
      "size": 1,
      "price": "905000000000000000000",
      "reserved": "",
      "assetIds": []
    },
    {
      "x": 101,
      "y": 22,
      "size": 1,
      "price": "905000000000000000000",
      "reserved": "",
      "assetIds": []
    },
    {
      "x": 102,
      "y": 22,
      "size": 1,
      "price": "905000000000000000000",
      "reserved": "",
      "assetIds": []
    },
    {
      "x": 103,
      "y": 22,
      "size": 1,
      "price": "905000000000000000000",
      "reserved": "",
      "assetIds": []
    },
    {
      "x": 122,
      "y": 22,
      "size": 1,
      "price": "905000000000000000000",
      "reserved": "",
      "assetIds": []
    },
    {
      "x": 123,
      "y": 22,
      "size": 1,
      "price": "905000000000000000000",
      "reserved": "",
      "assetIds": []
    },
    {
      "x": 124,
      "y": 22,
      "size": 1,
      "price": "905000000000000000000",
      "reserved": "",
      "assetIds": []
    },
    {
      "x": 125,
      "y": 22,
      "size": 1,
      "price": "905000000000000000000",
      "reserved": "",
      "assetIds": []
    },
    {
      "x": 126,
      "y": 22,
      "size": 1,
      "price": "905000000000000000000",
      "reserved": "",
      "assetIds": []
    },
    {
      "x": 127,
      "y": 22,
      "size": 1,
      "price": "905000000000000000000",
      "reserved": "",
      "assetIds": []
    },
    {
      "x": 128,
      "y": 22,
      "size": 1,
      "price": "905000000000000000000",
      "reserved": "",
      "assetIds": []
    },
    {
      "x": 129,
      "y": 22,
      "size": 1,
      "price": "905000000000000000000",
      "reserved": "",
      "assetIds": []
    },
    {
      "x": 130,
      "y": 22,
      "size": 1,
      "price": "905000000000000000000",
      "reserved": "",
      "assetIds": []
    },
    {
      "x": 120,
      "y": 22,
      "size": 1,
      "price": "905000000000000000000",
      "reserved": "",
      "assetIds": []
    },
    {
      "x": 119,
      "y": 22,
      "size": 1,
      "price": "905000000000000000000",
      "reserved": "",
      "assetIds": []
    },
    {
      "x": 118,
      "y": 22,
      "size": 1,
      "price": "905000000000000000000",
      "reserved": "",
      "assetIds": []
    },
    {
      "x": 117,
      "y": 22,
      "size": 1,
      "price": "905000000000000000000",
      "reserved": "",
      "assetIds": []
    },
    {
      "x": 116,
      "y": 22,
      "size": 1,
      "price": "905000000000000000000",
      "reserved": "",
      "assetIds": []
    },
    {
      "x": 115,
      "y": 22,
      "size": 1,
      "price": "905000000000000000000",
      "reserved": "",
      "assetIds": []
    },
    {
      "x": 114,
      "y": 22,
      "size": 1,
      "price": "905000000000000000000",
      "reserved": "",
      "assetIds": []
    },
    {
      "x": 113,
      "y": 22,
      "size": 1,
      "price": "905000000000000000000",
      "reserved": "",
      "assetIds": []
    },
    {
      "x": 112,
      "y": 22,
      "size": 1,
      "price": "905000000000000000000",
      "reserved": "",
      "assetIds": []
    },
    {
      "x": 111,
      "y": 22,
      "size": 1,
      "price": "905000000000000000000",
      "reserved": "",
      "assetIds": []
    },
    {
      "x": 110,
      "y": 22,
      "size": 1,
      "price": "905000000000000000000",
      "reserved": "",
      "assetIds": []
    },
    {
      "x": 109,
      "y": 22,
      "size": 1,
      "price": "905000000000000000000",
      "reserved": "",
      "assetIds": []
    },
    {
      "x": 108,
      "y": 22,
      "size": 1,
      "price": "905000000000000000000",
      "reserved": "",
      "assetIds": []
    },
    {
      "x": 107,
      "y": 22,
      "size": 1,
      "price": "905000000000000000000",
      "reserved": "",
      "assetIds": []
    },
    {
      "x": 106,
      "y": 22,
      "size": 1,
      "price": "905000000000000000000",
      "reserved": "",
      "assetIds": []
    },
    {
      "x": 105,
      "y": 22,
      "size": 1,
      "price": "905000000000000000000",
      "reserved": "",
      "assetIds": []
    },
    {
      "x": 104,
      "y": 22,
      "size": 1,
      "price": "905000000000000000000",
      "reserved": "",
      "assetIds": []
    },
    {
      "x": 94,
      "y": 22,
      "size": 1,
      "price": "905000000000000000000",
      "reserved": "",
      "assetIds": []
    },
    {
      "x": 93,
      "y": 22,
      "size": 1,
      "price": "905000000000000000000",
      "reserved": "",
      "assetIds": []
    },
    {
      "x": 92,
      "y": 22,
      "size": 1,
      "price": "905000000000000000000",
      "reserved": "",
      "assetIds": []
    },
    {
      "x": 91,
      "y": 22,
      "size": 1,
      "price": "905000000000000000000",
      "reserved": "",
      "assetIds": []
    },
    {
      "x": 121,
      "y": 22,
      "size": 1,
      "price": "905000000000000000000",
      "reserved": "",
      "assetIds": []
    },
    {
      "x": 130,
      "y": 21,
      "size": 1,
      "price": "905000000000000000000",
      "reserved": "",
      "assetIds": []
    },
    {
      "x": 130,
      "y": 20,
      "size": 1,
      "price": "905000000000000000000",
      "reserved": "",
      "assetIds": []
    },
    {
      "x": 130,
      "y": 19,
      "size": 1,
      "price": "905000000000000000000",
      "reserved": "",
      "assetIds": []
    },
    {
      "x": 130,
      "y": 18,
      "size": 1,
      "price": "905000000000000000000",
      "reserved": "",
      "assetIds": []
    },
    {
      "x": 130,
      "y": 17,
      "size": 1,
      "price": "905000000000000000000",
      "reserved": "",
      "assetIds": []
    },
    {
      "x": 130,
      "y": 16,
      "size": 1,
      "price": "905000000000000000000",
      "reserved": "",
      "assetIds": []
    },
    {
      "x": 130,
      "y": 15,
      "size": 1,
      "price": "905000000000000000000",
      "reserved": "",
      "assetIds": []
    },
    {
      "x": 130,
      "y": 14,
      "size": 1,
      "price": "905000000000000000000",
      "reserved": "",
      "assetIds": []
    },
    {
      "x": 130,
      "y": 13,
      "size": 1,
      "price": "905000000000000000000",
      "reserved": "",
      "assetIds": []
    },
    {
      "x": 130,
      "y": 12,
      "size": 1,
      "price": "905000000000000000000",
      "reserved": "",
      "assetIds": []
    },
    {
      "x": 130,
      "y": 11,
      "size": 1,
      "price": "905000000000000000000",
      "reserved": "",
      "assetIds": []
    },
    {
      "x": 130,
      "y": 10,
      "size": 1,
      "price": "905000000000000000000",
      "reserved": "",
      "assetIds": []
    },
    {
      "x": 130,
      "y": 9,
      "size": 1,
      "price": "905000000000000000000",
      "reserved": "",
      "assetIds": []
    },
    {
      "x": 130,
      "y": 8,
      "size": 1,
      "price": "905000000000000000000",
      "reserved": "",
      "assetIds": []
    },
    {
      "x": 130,
      "y": 7,
      "size": 1,
      "price": "905000000000000000000",
      "reserved": "",
      "assetIds": []
    },
    {
      "x": 161,
      "y": 54,
      "size": 1,
      "price": "905000000000000000000",
      "reserved": "0x7a9fe22691c811ea339d9b73150e6911a5343dca",
      "assetIds": []
    },
    {
      "x": 156,
      "y": 54,
      "size": 1,
      "price": "905000000000000000000",
      "reserved": "0x7a9fe22691c811ea339d9b73150e6911a5343dca",
      "assetIds": []
    },
    {
      "x": 156,
      "y": 56,
      "size": 1,
      "price": "905000000000000000000",
      "reserved": "0x7a9fe22691c811ea339d9b73150e6911a5343dca",
      "assetIds": []
    },
    {
      "x": 147,
      "y": 43,
      "size": 1,
      "price": "905000000000000000000",
      "reserved": "0x7a9fe22691c811ea339d9b73150e6911a5343dca",
      "assetIds": []
    },
    {
      "x": 145,
      "y": 42,
      "size": 1,
      "price": "905000000000000000000",
      "reserved": "0x7a9fe22691c811ea339d9b73150e6911a5343dca",
      "assetIds": []
    },
    {
      "x": 143,
      "y": 44,
      "size": 1,
      "price": "905000000000000000000",
      "reserved": "0x7a9fe22691c811ea339d9b73150e6911a5343dca",
      "assetIds": []
    },
    {
      "x": 140,
      "y": 42,
      "size": 1,
      "price": "905000000000000000000",
      "reserved": "0x7a9fe22691c811ea339d9b73150e6911a5343dca",
      "assetIds": []
    },
    {
      "x": 135,
      "y": 40,
      "size": 1,
      "price": "905000000000000000000",
      "reserved": "0x7a9fe22691c811ea339d9b73150e6911a5343dca",
      "assetIds": []
    },
    {
      "x": 135,
      "y": 42,
      "size": 1,
      "price": "905000000000000000000",
      "reserved": "0x7a9fe22691c811ea339d9b73150e6911a5343dca",
      "assetIds": []
    },
    {
      "x": 134,
      "y": 44,
      "size": 1,
      "price": "905000000000000000000",
      "reserved": "0x7a9fe22691c811ea339d9b73150e6911a5343dca",
      "assetIds": []
    },
    {
      "x": 131,
      "y": 43,
      "size": 1,
      "price": "905000000000000000000",
      "reserved": "0x7a9fe22691c811ea339d9b73150e6911a5343dca",
      "assetIds": []
    },
    {
      "x": 130,
      "y": 46,
      "size": 1,
      "price": "905000000000000000000",
      "reserved": "0x7a9fe22691c811ea339d9b73150e6911a5343dca",
      "assetIds": []
    },
    {
      "x": 128,
      "y": 45,
      "size": 1,
      "price": "905000000000000000000",
      "reserved": "0x7a9fe22691c811ea339d9b73150e6911a5343dca",
      "assetIds": []
    },
    {
      "x": 126,
      "y": 44,
      "size": 1,
      "price": "905000000000000000000",
      "reserved": "0x7a9fe22691c811ea339d9b73150e6911a5343dca",
      "assetIds": []
    },
    {
      "x": 123,
      "y": 43,
      "size": 1,
      "price": "905000000000000000000",
      "reserved": "0x7a9fe22691c811ea339d9b73150e6911a5343dca",
      "assetIds": []
    },
    {
      "x": 119,
      "y": 42,
      "size": 1,
      "price": "905000000000000000000",
      "reserved": "0x7a9fe22691c811ea339d9b73150e6911a5343dca",
      "assetIds": []
    },
    {
      "x": 117,
      "y": 44,
      "size": 1,
      "price": "905000000000000000000",
      "reserved": "0x7a9fe22691c811ea339d9b73150e6911a5343dca",
      "assetIds": []
    },
    {
      "x": 118,
      "y": 46,
      "size": 1,
      "price": "905000000000000000000",
      "reserved": "0x7a9fe22691c811ea339d9b73150e6911a5343dca",
      "assetIds": []
    },
    {
      "x": 121,
      "y": 45,
      "size": 1,
      "price": "905000000000000000000",
      "reserved": "0x7a9fe22691c811ea339d9b73150e6911a5343dca",
      "assetIds": []
    },
    {
      "x": 125,
      "y": 46,
      "size": 1,
      "price": "905000000000000000000",
      "reserved": "0x7a9fe22691c811ea339d9b73150e6911a5343dca",
      "assetIds": []
    },
    {
      "x": 137,
      "y": 46,
      "size": 1,
      "price": "905000000000000000000",
      "reserved": "0x7a9fe22691c811ea339d9b73150e6911a5343dca",
      "assetIds": []
    },
    {
      "x": 139,
      "y": 44,
      "size": 1,
      "price": "905000000000000000000",
      "reserved": "0x7a9fe22691c811ea339d9b73150e6911a5343dca",
      "assetIds": []
    },
    {
      "x": 141,
      "y": 46,
      "size": 1,
      "price": "905000000000000000000",
      "reserved": "0x7a9fe22691c811ea339d9b73150e6911a5343dca",
      "assetIds": []
    },
    {
      "x": 145,
      "y": 46,
      "size": 1,
      "price": "905000000000000000000",
      "reserved": "0x7a9fe22691c811ea339d9b73150e6911a5343dca",
      "assetIds": []
    },
    {
      "x": 148,
      "y": 46,
      "size": 1,
      "price": "905000000000000000000",
      "reserved": "0x7a9fe22691c811ea339d9b73150e6911a5343dca",
      "assetIds": []
    },
    {
      "x": 147,
      "y": 48,
      "size": 1,
      "price": "905000000000000000000",
      "reserved": "0x7a9fe22691c811ea339d9b73150e6911a5343dca",
      "assetIds": []
    },
    {
      "x": 149,
      "y": 49,
      "size": 1,
      "price": "905000000000000000000",
      "reserved": "0x7a9fe22691c811ea339d9b73150e6911a5343dca",
      "assetIds": []
    },
    {
      "x": 145,
      "y": 50,
      "size": 1,
      "price": "905000000000000000000",
      "reserved": "0x7a9fe22691c811ea339d9b73150e6911a5343dca",
      "assetIds": []
    },
    {
      "x": 148,
      "y": 51,
      "size": 1,
      "price": "905000000000000000000",
      "reserved": "0x7a9fe22691c811ea339d9b73150e6911a5343dca",
      "assetIds": []
    },
    {
      "x": 149,
      "y": 53,
      "size": 1,
      "price": "905000000000000000000",
      "reserved": "0x7a9fe22691c811ea339d9b73150e6911a5343dca",
      "assetIds": []
    },
    {
      "x": 148,
      "y": 56,
      "size": 1,
      "price": "905000000000000000000",
      "reserved": "0x7a9fe22691c811ea339d9b73150e6911a5343dca",
      "assetIds": []
    },
    {
      "x": 145,
      "y": 55,
      "size": 1,
      "price": "905000000000000000000",
      "reserved": "0x7a9fe22691c811ea339d9b73150e6911a5343dca",
      "assetIds": []
    },
    {
      "x": 147,
      "y": 60,
      "size": 1,
      "price": "905000000000000000000",
      "reserved": "0x7a9fe22691c811ea339d9b73150e6911a5343dca",
      "assetIds": []
    },
    {
      "x": 149,
      "y": 63,
      "size": 1,
      "price": "905000000000000000000",
      "reserved": "0x7a9fe22691c811ea339d9b73150e6911a5343dca",
      "assetIds": []
    },
    {
      "x": 146,
      "y": 65,
      "size": 1,
      "price": "905000000000000000000",
      "reserved": "0x7a9fe22691c811ea339d9b73150e6911a5343dca",
      "assetIds": []
    },
    {
      "x": 146,
      "y": 68,
      "size": 1,
      "price": "905000000000000000000",
      "reserved": "0x7a9fe22691c811ea339d9b73150e6911a5343dca",
      "assetIds": []
    },
    {
      "x": 146,
      "y": 70,
      "size": 1,
      "price": "905000000000000000000",
      "reserved": "0x7a9fe22691c811ea339d9b73150e6911a5343dca",
      "assetIds": []
    },
    {
      "x": 147,
      "y": 71,
      "size": 1,
      "price": "905000000000000000000",
      "reserved": "0x7a9fe22691c811ea339d9b73150e6911a5343dca",
      "assetIds": []
    },
    {
      "x": 145,
      "y": 73,
      "size": 1,
      "price": "905000000000000000000",
      "reserved": "0x7a9fe22691c811ea339d9b73150e6911a5343dca",
      "assetIds": []
    },
    {
      "x": 142,
      "y": 73,
      "size": 1,
      "price": "905000000000000000000",
      "reserved": "0x7a9fe22691c811ea339d9b73150e6911a5343dca",
      "assetIds": []
    },
    {
      "x": 142,
      "y": 75,
      "size": 1,
      "price": "905000000000000000000",
      "reserved": "0x7a9fe22691c811ea339d9b73150e6911a5343dca",
      "assetIds": []
    },
    {
      "x": 143,
      "y": 77,
      "size": 1,
      "price": "905000000000000000000",
      "reserved": "0x7a9fe22691c811ea339d9b73150e6911a5343dca",
      "assetIds": []
    },
    {
      "x": 148,
      "y": 75,
      "size": 1,
      "price": "905000000000000000000",
      "reserved": "0x7a9fe22691c811ea339d9b73150e6911a5343dca",
      "assetIds": []
    },
    {
      "x": 138,
      "y": 73,
      "size": 1,
      "price": "905000000000000000000",
      "reserved": "0x7a9fe22691c811ea339d9b73150e6911a5343dca",
      "assetIds": []
    },
    {
      "x": 139,
      "y": 75,
      "size": 1,
      "price": "905000000000000000000",
      "reserved": "0x7a9fe22691c811ea339d9b73150e6911a5343dca",
      "assetIds": []
    },
    {
      "x": 138,
      "y": 77,
      "size": 1,
      "price": "905000000000000000000",
      "reserved": "0x7a9fe22691c811ea339d9b73150e6911a5343dca",
      "assetIds": []
    },
    {
      "x": 135,
      "y": 75,
      "size": 1,
      "price": "905000000000000000000",
      "reserved": "0x7a9fe22691c811ea339d9b73150e6911a5343dca",
      "assetIds": []
    },
    {
      "x": 134,
      "y": 77,
      "size": 1,
      "price": "905000000000000000000",
      "reserved": "0x7a9fe22691c811ea339d9b73150e6911a5343dca",
      "assetIds": []
    },
    {
      "x": 133,
      "y": 74,
      "size": 1,
      "price": "905000000000000000000",
      "reserved": "0x7a9fe22691c811ea339d9b73150e6911a5343dca",
      "assetIds": []
    },
    {
      "x": 130,
      "y": 74,
      "size": 1,
      "price": "905000000000000000000",
      "reserved": "0x7a9fe22691c811ea339d9b73150e6911a5343dca",
      "assetIds": []
    },
    {
      "x": 127,
      "y": 76,
      "size": 1,
      "price": "905000000000000000000",
      "reserved": "0x7a9fe22691c811ea339d9b73150e6911a5343dca",
      "assetIds": []
    },
    {
      "x": 124,
      "y": 76,
      "size": 1,
      "price": "905000000000000000000",
      "reserved": "0x7a9fe22691c811ea339d9b73150e6911a5343dca",
      "assetIds": []
    },
    {
      "x": 123,
      "y": 78,
      "size": 1,
      "price": "905000000000000000000",
      "reserved": "0x7a9fe22691c811ea339d9b73150e6911a5343dca",
      "assetIds": []
    },
    {
      "x": 122,
      "y": 75,
      "size": 1,
      "price": "905000000000000000000",
      "reserved": "0x7a9fe22691c811ea339d9b73150e6911a5343dca",
      "assetIds": []
    },
    {
      "x": 120,
      "y": 75,
      "size": 1,
      "price": "905000000000000000000",
      "reserved": "0x7a9fe22691c811ea339d9b73150e6911a5343dca",
      "assetIds": []
    },
    {
      "x": 121,
      "y": 73,
      "size": 1,
      "price": "905000000000000000000",
      "reserved": "0x7a9fe22691c811ea339d9b73150e6911a5343dca",
      "assetIds": []
    },
    {
      "x": 118,
      "y": 73,
      "size": 1,
      "price": "905000000000000000000",
      "reserved": "0x7a9fe22691c811ea339d9b73150e6911a5343dca",
      "assetIds": []
    },
    {
      "x": 116,
      "y": 74,
      "size": 1,
      "price": "905000000000000000000",
      "reserved": "0x7a9fe22691c811ea339d9b73150e6911a5343dca",
      "assetIds": []
    },
    {
      "x": 117,
      "y": 75,
      "size": 1,
      "price": "905000000000000000000",
      "reserved": "0x7a9fe22691c811ea339d9b73150e6911a5343dca",
      "assetIds": []
    },
    {
      "x": 117,
      "y": 77,
      "size": 1,
      "price": "905000000000000000000",
      "reserved": "0x7a9fe22691c811ea339d9b73150e6911a5343dca",
      "assetIds": []
    },
    {
      "x": 116,
      "y": 72,
      "size": 1,
      "price": "905000000000000000000",
      "reserved": "0x7a9fe22691c811ea339d9b73150e6911a5343dca",
      "assetIds": []
    },
    {
      "x": 113,
      "y": 69,
      "size": 1,
      "price": "905000000000000000000",
      "reserved": "0x7a9fe22691c811ea339d9b73150e6911a5343dca",
      "assetIds": []
    },
    {
      "x": 118,
      "y": 70,
      "size": 1,
      "price": "905000000000000000000",
      "reserved": "0x7a9fe22691c811ea339d9b73150e6911a5343dca",
      "assetIds": []
    },
    {
      "x": 116,
      "y": 68,
      "size": 1,
      "price": "905000000000000000000",
      "reserved": "0x7a9fe22691c811ea339d9b73150e6911a5343dca",
      "assetIds": []
    },
    {
      "x": 117,
      "y": 65,
      "size": 1,
      "price": "905000000000000000000",
      "reserved": "0x7a9fe22691c811ea339d9b73150e6911a5343dca",
      "assetIds": []
    },
    {
      "x": 116,
      "y": 63,
      "size": 1,
      "price": "905000000000000000000",
      "reserved": "0x7a9fe22691c811ea339d9b73150e6911a5343dca",
      "assetIds": []
    },
    {
      "x": 114,
      "y": 63,
      "size": 1,
      "price": "905000000000000000000",
      "reserved": "0x7a9fe22691c811ea339d9b73150e6911a5343dca",
      "assetIds": []
    },
    {
      "x": 114,
      "y": 60,
      "size": 1,
      "price": "905000000000000000000",
      "reserved": "0x7a9fe22691c811ea339d9b73150e6911a5343dca",
      "assetIds": []
    },
    {
      "x": 117,
      "y": 61,
      "size": 1,
      "price": "905000000000000000000",
      "reserved": "0x7a9fe22691c811ea339d9b73150e6911a5343dca",
      "assetIds": []
    },
    {
      "x": 118,
      "y": 56,
      "size": 1,
      "price": "905000000000000000000",
      "reserved": "0x7a9fe22691c811ea339d9b73150e6911a5343dca",
      "assetIds": []
    },
    {
      "x": 116,
      "y": 55,
      "size": 1,
      "price": "905000000000000000000",
      "reserved": "0x7a9fe22691c811ea339d9b73150e6911a5343dca",
      "assetIds": []
    },
    {
      "x": 111,
      "y": 53,
      "size": 1,
      "price": "905000000000000000000",
      "reserved": "0x7a9fe22691c811ea339d9b73150e6911a5343dca",
      "assetIds": []
    },
    {
      "x": 108,
      "y": 48,
      "size": 1,
      "price": "905000000000000000000",
      "reserved": "0x7a9fe22691c811ea339d9b73150e6911a5343dca",
      "assetIds": []
    },
    {
      "x": 113,
      "y": 48,
      "size": 1,
      "price": "905000000000000000000",
      "reserved": "0x7a9fe22691c811ea339d9b73150e6911a5343dca",
      "assetIds": []
    },
    {
      "x": 115,
      "y": 49,
      "size": 1,
      "price": "905000000000000000000",
      "reserved": "0x7a9fe22691c811ea339d9b73150e6911a5343dca",
      "assetIds": []
    },
    {
      "x": 116,
      "y": 51,
      "size": 1,
      "price": "905000000000000000000",
      "reserved": "0x7a9fe22691c811ea339d9b73150e6911a5343dca",
      "assetIds": []
    },
    {
      "x": 118,
      "y": 48,
      "size": 1,
      "price": "905000000000000000000",
      "reserved": "0x7a9fe22691c811ea339d9b73150e6911a5343dca",
      "assetIds": []
    },
    {
      "x": 108,
      "y": 60,
      "size": 1,
      "price": "905000000000000000000",
      "reserved": "0x7a9fe22691c811ea339d9b73150e6911a5343dca",
      "assetIds": []
    },
    {
      "x": 102,
      "y": 60,
      "size": 1,
      "price": "905000000000000000000",
      "reserved": "0x7a9fe22691c811ea339d9b73150e6911a5343dca",
      "assetIds": []
    },
    {
      "x": 102,
      "y": 65,
      "size": 1,
      "price": "905000000000000000000",
      "reserved": "0x7a9fe22691c811ea339d9b73150e6911a5343dca",
      "assetIds": []
    },
    {
      "x": 96,
      "y": 57,
      "size": 1,
      "price": "905000000000000000000",
      "reserved": "0x7a9fe22691c811ea339d9b73150e6911a5343dca",
      "assetIds": []
    },
    {
      "x": 99,
      "y": 54,
      "size": 1,
      "price": "905000000000000000000",
      "reserved": "0x7a9fe22691c811ea339d9b73150e6911a5343dca",
      "assetIds": []
    },
    {
      "x": 114,
      "y": 39,
      "size": 1,
      "price": "905000000000000000000",
      "reserved": "0x7a9fe22691c811ea339d9b73150e6911a5343dca",
      "assetIds": []
    },
    {
      "x": 119,
      "y": 36,
      "size": 1,
      "price": "905000000000000000000",
      "reserved": "0x7a9fe22691c811ea339d9b73150e6911a5343dca",
      "assetIds": []
    },
    {
      "x": 125,
      "y": 37,
      "size": 1,
      "price": "905000000000000000000",
      "reserved": "0x7a9fe22691c811ea339d9b73150e6911a5343dca",
      "assetIds": []
    },
    {
      "x": 134,
      "y": 36,
      "size": 1,
      "price": "905000000000000000000",
      "reserved": "0x7a9fe22691c811ea339d9b73150e6911a5343dca",
      "assetIds": []
    },
    {
      "x": 132,
      "y": 36,
      "size": 1,
      "price": "905000000000000000000",
      "reserved": "0x7a9fe22691c811ea339d9b73150e6911a5343dca",
      "assetIds": []
    },
    {
      "x": 156,
      "y": 75,
      "size": 1,
      "price": "905000000000000000000",
      "reserved": "0x7a9fe22691c811ea339d9b73150e6911a5343dca",
      "assetIds": []
    },
    {
      "x": 164,
      "y": 75,
      "size": 1,
      "price": "905000000000000000000",
      "reserved": "0x7a9fe22691c811ea339d9b73150e6911a5343dca",
      "assetIds": []
    },
    {
      "x": 155,
      "y": 82,
      "size": 1,
      "price": "905000000000000000000",
      "reserved": "0x7a9fe22691c811ea339d9b73150e6911a5343dca",
      "assetIds": []
    },
    {
      "x": 120,
      "y": 80,
      "size": 1,
      "price": "905000000000000000000",
      "reserved": "0x7a9fe22691c811ea339d9b73150e6911a5343dca",
      "assetIds": []
    },
    {
      "x": 116,
      "y": 83,
      "size": 1,
      "price": "905000000000000000000",
      "reserved": "0x7a9fe22691c811ea339d9b73150e6911a5343dca",
      "assetIds": []
    },
    {
      "x": 111,
      "y": 75,
      "size": 1,
      "price": "905000000000000000000",
      "reserved": "0x7a9fe22691c811ea339d9b73150e6911a5343dca",
      "assetIds": []
    },
    {
      "x": 104,
      "y": 78,
      "size": 1,
      "price": "905000000000000000000",
      "reserved": "0x7a9fe22691c811ea339d9b73150e6911a5343dca",
      "assetIds": []
    },
    {
      "x": 96,
      "y": 79,
      "size": 1,
      "price": "905000000000000000000",
      "reserved": "0x7a9fe22691c811ea339d9b73150e6911a5343dca",
      "assetIds": []
    },
    {
      "x": 96,
      "y": 72,
      "size": 1,
      "price": "905000000000000000000",
      "reserved": "0x7a9fe22691c811ea339d9b73150e6911a5343dca",
      "assetIds": []
    },
    {
      "x": 96,
      "y": 83,
      "size": 1,
      "price": "905000000000000000000",
      "reserved": "0x7a9fe22691c811ea339d9b73150e6911a5343dca",
      "assetIds": []
    },
    {
      "x": 104,
      "y": 83,
      "size": 1,
      "price": "905000000000000000000",
      "reserved": "0x7a9fe22691c811ea339d9b73150e6911a5343dca",
      "assetIds": []
    },
    {
      "x": 185,
      "y": 78,
      "size": 1,
      "price": "905000000000000000000",
      "reserved": "0x7a9fe22691c811ea339d9b73150e6911a5343dca",
      "assetIds": []
    },
    {
      "x": 181,
      "y": 79,
      "size": 1,
      "price": "905000000000000000000",
      "reserved": "0x7a9fe22691c811ea339d9b73150e6911a5343dca",
      "assetIds": []
    },
    {
      "x": 179,
      "y": 78,
      "size": 1,
      "price": "905000000000000000000",
      "reserved": "0x7a9fe22691c811ea339d9b73150e6911a5343dca",
      "assetIds": []
    },
    {
      "x": 174,
      "y": 77,
      "size": 1,
      "price": "905000000000000000000",
      "reserved": "0x7a9fe22691c811ea339d9b73150e6911a5343dca",
      "assetIds": []
    },
    {
      "x": 176,
      "y": 79,
      "size": 1,
      "price": "905000000000000000000",
      "reserved": "0x7a9fe22691c811ea339d9b73150e6911a5343dca",
      "assetIds": []
    },
    {
      "x": 175,
      "y": 81,
      "size": 1,
      "price": "905000000000000000000",
      "reserved": "0x7a9fe22691c811ea339d9b73150e6911a5343dca",
      "assetIds": []
    },
    {
      "x": 178,
      "y": 81,
      "size": 1,
      "price": "905000000000000000000",
      "reserved": "0x7a9fe22691c811ea339d9b73150e6911a5343dca",
      "assetIds": []
    },
    {
      "x": 181,
      "y": 83,
      "size": 1,
      "price": "905000000000000000000",
      "reserved": "0x7a9fe22691c811ea339d9b73150e6911a5343dca",
      "assetIds": []
    },
    {
      "x": 183,
      "y": 81,
      "size": 1,
      "price": "905000000000000000000",
      "reserved": "0x7a9fe22691c811ea339d9b73150e6911a5343dca",
      "assetIds": []
    },
    {
      "x": 185,
      "y": 81,
      "size": 1,
      "price": "905000000000000000000",
      "reserved": "0x7a9fe22691c811ea339d9b73150e6911a5343dca",
      "assetIds": []
    },
    {
      "x": 188,
      "y": 81,
      "size": 1,
      "price": "905000000000000000000",
      "reserved": "0x7a9fe22691c811ea339d9b73150e6911a5343dca",
      "assetIds": []
    },
    {
      "x": 185,
      "y": 84,
      "size": 1,
      "price": "905000000000000000000",
      "reserved": "0x7a9fe22691c811ea339d9b73150e6911a5343dca",
      "assetIds": []
    },
    {
      "x": 185,
      "y": 86,
      "size": 1,
      "price": "905000000000000000000",
      "reserved": "0x7a9fe22691c811ea339d9b73150e6911a5343dca",
      "assetIds": []
    },
    {
      "x": 184,
      "y": 88,
      "size": 1,
      "price": "905000000000000000000",
      "reserved": "0x7a9fe22691c811ea339d9b73150e6911a5343dca",
      "assetIds": []
    },
    {
      "x": 181,
      "y": 86,
      "size": 1,
      "price": "905000000000000000000",
      "reserved": "0x7a9fe22691c811ea339d9b73150e6911a5343dca",
      "assetIds": []
    },
    {
      "x": 181,
      "y": 92,
      "size": 1,
      "price": "905000000000000000000",
      "reserved": "0x7a9fe22691c811ea339d9b73150e6911a5343dca",
      "assetIds": []
    },
    {
      "x": 183,
      "y": 91,
      "size": 1,
      "price": "905000000000000000000",
      "reserved": "0x7a9fe22691c811ea339d9b73150e6911a5343dca",
      "assetIds": []
    },
    {
      "x": 185,
      "y": 91,
      "size": 1,
      "price": "905000000000000000000",
      "reserved": "0x7a9fe22691c811ea339d9b73150e6911a5343dca",
      "assetIds": []
    },
    {
      "x": 185,
      "y": 93,
      "size": 1,
      "price": "905000000000000000000",
      "reserved": "0x7a9fe22691c811ea339d9b73150e6911a5343dca",
      "assetIds": []
    },
    {
      "x": 183,
      "y": 94,
      "size": 1,
      "price": "905000000000000000000",
      "reserved": "0x7a9fe22691c811ea339d9b73150e6911a5343dca",
      "assetIds": []
    },
    {
      "x": 181,
      "y": 95,
      "size": 1,
      "price": "905000000000000000000",
      "reserved": "0x7a9fe22691c811ea339d9b73150e6911a5343dca",
      "assetIds": []
    },
    {
      "x": 183,
      "y": 97,
      "size": 1,
      "price": "905000000000000000000",
      "reserved": "0x7a9fe22691c811ea339d9b73150e6911a5343dca",
      "assetIds": []
    },
    {
      "x": 181,
      "y": 99,
      "size": 1,
      "price": "905000000000000000000",
      "reserved": "0x7a9fe22691c811ea339d9b73150e6911a5343dca",
      "assetIds": []
    },
    {
      "x": 178,
      "y": 98,
      "size": 1,
      "price": "905000000000000000000",
      "reserved": "0x7a9fe22691c811ea339d9b73150e6911a5343dca",
      "assetIds": []
    },
    {
      "x": 179,
      "y": 100,
      "size": 1,
      "price": "905000000000000000000",
      "reserved": "0x7a9fe22691c811ea339d9b73150e6911a5343dca",
      "assetIds": []
    },
    {
      "x": 180,
      "y": 101,
      "size": 1,
      "price": "905000000000000000000",
      "reserved": "0x7a9fe22691c811ea339d9b73150e6911a5343dca",
      "assetIds": []
    },
    {
      "x": 177,
      "y": 101,
      "size": 1,
      "price": "905000000000000000000",
      "reserved": "0x7a9fe22691c811ea339d9b73150e6911a5343dca",
      "assetIds": []
    },
    {
      "x": 176,
      "y": 103,
      "size": 1,
      "price": "905000000000000000000",
      "reserved": "0x7a9fe22691c811ea339d9b73150e6911a5343dca",
      "assetIds": []
    },
    {
      "x": 171,
      "y": 103,
      "size": 1,
      "price": "905000000000000000000",
      "reserved": "0x7a9fe22691c811ea339d9b73150e6911a5343dca",
      "assetIds": []
    },
    {
      "x": 165,
      "y": 104,
      "size": 1,
      "price": "905000000000000000000",
      "reserved": "0x7a9fe22691c811ea339d9b73150e6911a5343dca",
      "assetIds": []
    },
    {
      "x": 185,
      "y": 104,
      "size": 1,
      "price": "905000000000000000000",
      "reserved": "0x7a9fe22691c811ea339d9b73150e6911a5343dca",
      "assetIds": []
    },
    {
      "x": 174,
      "y": 100,
      "size": 1,
      "price": "905000000000000000000",
      "reserved": "0x7a9fe22691c811ea339d9b73150e6911a5343dca",
      "assetIds": []
    },
    {
      "x": 172,
      "y": 100,
      "size": 1,
      "price": "905000000000000000000",
      "reserved": "0x7a9fe22691c811ea339d9b73150e6911a5343dca",
      "assetIds": []
    },
    {
      "x": 170,
      "y": 101,
      "size": 1,
      "price": "905000000000000000000",
      "reserved": "0x7a9fe22691c811ea339d9b73150e6911a5343dca",
      "assetIds": []
    },
    {
      "x": 173,
      "y": 97,
      "size": 1,
      "price": "905000000000000000000",
      "reserved": "0x7a9fe22691c811ea339d9b73150e6911a5343dca",
      "assetIds": []
    },
    {
      "x": 169,
      "y": 98,
      "size": 1,
      "price": "905000000000000000000",
      "reserved": "0x7a9fe22691c811ea339d9b73150e6911a5343dca",
      "assetIds": []
    },
    {
      "x": 168,
      "y": 100,
      "size": 1,
      "price": "905000000000000000000",
      "reserved": "0x7a9fe22691c811ea339d9b73150e6911a5343dca",
      "assetIds": []
    },
    {
      "x": 164,
      "y": 99,
      "size": 1,
      "price": "905000000000000000000",
      "reserved": "0x7a9fe22691c811ea339d9b73150e6911a5343dca",
      "assetIds": []
    },
    {
      "x": 163,
      "y": 98,
      "size": 1,
      "price": "905000000000000000000",
      "reserved": "0x7a9fe22691c811ea339d9b73150e6911a5343dca",
      "assetIds": []
    },
    {
      "x": 162,
      "y": 97,
      "size": 1,
      "price": "905000000000000000000",
      "reserved": "0x7a9fe22691c811ea339d9b73150e6911a5343dca",
      "assetIds": []
    },
    {
      "x": 166,
      "y": 97,
      "size": 1,
      "price": "905000000000000000000",
      "reserved": "0x7a9fe22691c811ea339d9b73150e6911a5343dca",
      "assetIds": []
    },
    {
      "x": 164,
      "y": 95,
      "size": 1,
      "price": "905000000000000000000",
      "reserved": "0x7a9fe22691c811ea339d9b73150e6911a5343dca",
      "assetIds": []
    },
    {
      "x": 162,
      "y": 94,
      "size": 1,
      "price": "905000000000000000000",
      "reserved": "0x7a9fe22691c811ea339d9b73150e6911a5343dca",
      "assetIds": []
    },
    {
      "x": 161,
      "y": 95,
      "size": 1,
      "price": "905000000000000000000",
      "reserved": "0x7a9fe22691c811ea339d9b73150e6911a5343dca",
      "assetIds": []
    },
    {
      "x": 162,
      "y": 92,
      "size": 1,
      "price": "905000000000000000000",
      "reserved": "0x7a9fe22691c811ea339d9b73150e6911a5343dca",
      "assetIds": []
    },
    {
      "x": 166,
      "y": 94,
      "size": 1,
      "price": "905000000000000000000",
      "reserved": "0x7a9fe22691c811ea339d9b73150e6911a5343dca",
      "assetIds": []
    },
    {
      "x": 166,
      "y": 91,
      "size": 1,
      "price": "905000000000000000000",
      "reserved": "0x7a9fe22691c811ea339d9b73150e6911a5343dca",
      "assetIds": []
    },
    {
      "x": 164,
      "y": 90,
      "size": 1,
      "price": "905000000000000000000",
      "reserved": "0x7a9fe22691c811ea339d9b73150e6911a5343dca",
      "assetIds": []
    },
    {
      "x": 162,
      "y": 88,
      "size": 1,
      "price": "905000000000000000000",
      "reserved": "0x7a9fe22691c811ea339d9b73150e6911a5343dca",
      "assetIds": []
    },
    {
      "x": 164,
      "y": 87,
      "size": 1,
      "price": "905000000000000000000",
      "reserved": "0x7a9fe22691c811ea339d9b73150e6911a5343dca",
      "assetIds": []
    },
    {
      "x": 166,
      "y": 88,
      "size": 1,
      "price": "905000000000000000000",
      "reserved": "0x7a9fe22691c811ea339d9b73150e6911a5343dca",
      "assetIds": []
    },
    {
      "x": 166,
      "y": 85,
      "size": 1,
      "price": "905000000000000000000",
      "reserved": "0x7a9fe22691c811ea339d9b73150e6911a5343dca",
      "assetIds": []
    },
    {
      "x": 163,
      "y": 85,
      "size": 1,
      "price": "905000000000000000000",
      "reserved": "0x7a9fe22691c811ea339d9b73150e6911a5343dca",
      "assetIds": []
    },
    {
      "x": 164,
      "y": 83,
      "size": 1,
      "price": "905000000000000000000",
      "reserved": "0x7a9fe22691c811ea339d9b73150e6911a5343dca",
      "assetIds": []
    },
    {
      "x": 164,
      "y": 81,
      "size": 1,
      "price": "905000000000000000000",
      "reserved": "0x7a9fe22691c811ea339d9b73150e6911a5343dca",
      "assetIds": []
    },
    {
      "x": 162,
      "y": 80,
      "size": 1,
      "price": "905000000000000000000",
      "reserved": "0x7a9fe22691c811ea339d9b73150e6911a5343dca",
      "assetIds": []
    },
    {
      "x": 165,
      "y": 79,
      "size": 1,
      "price": "905000000000000000000",
      "reserved": "0x7a9fe22691c811ea339d9b73150e6911a5343dca",
      "assetIds": []
    },
    {
      "x": 167,
      "y": 79,
      "size": 1,
      "price": "905000000000000000000",
      "reserved": "0x7a9fe22691c811ea339d9b73150e6911a5343dca",
      "assetIds": []
    },
    {
      "x": 166,
      "y": 82,
      "size": 1,
      "price": "905000000000000000000",
      "reserved": "0x7a9fe22691c811ea339d9b73150e6911a5343dca",
      "assetIds": []
    },
    {
      "x": 169,
      "y": 82,
      "size": 1,
      "price": "905000000000000000000",
      "reserved": "0x7a9fe22691c811ea339d9b73150e6911a5343dca",
      "assetIds": []
    },
    {
      "x": 171,
      "y": 80,
      "size": 1,
      "price": "905000000000000000000",
      "reserved": "0x7a9fe22691c811ea339d9b73150e6911a5343dca",
      "assetIds": []
    },
    {
      "x": 173,
      "y": 79,
      "size": 1,
      "price": "905000000000000000000",
      "reserved": "0x7a9fe22691c811ea339d9b73150e6911a5343dca",
      "assetIds": []
    },
    {
      "x": 168,
      "y": 78,
      "size": 1,
      "price": "905000000000000000000",
      "reserved": "0x7a9fe22691c811ea339d9b73150e6911a5343dca",
      "assetIds": []
    },
    {
      "x": 155,
      "y": 97,
      "size": 1,
      "price": "905000000000000000000",
      "reserved": "0x7a9fe22691c811ea339d9b73150e6911a5343dca",
      "assetIds": []
    },
    {
      "x": 155,
      "y": 101,
      "size": 1,
      "price": "905000000000000000000",
      "reserved": "0x7a9fe22691c811ea339d9b73150e6911a5343dca",
      "assetIds": []
    },
    {
      "x": 127,
      "y": 96,
      "size": 1,
      "price": "905000000000000000000",
      "reserved": "0x7a9fe22691c811ea339d9b73150e6911a5343dca",
      "assetIds": []
    },
    {
      "x": 126,
      "y": 96,
      "size": 1,
      "price": "905000000000000000000",
      "reserved": "0x7a9fe22691c811ea339d9b73150e6911a5343dca",
      "assetIds": []
    },
    {
      "x": 104,
      "y": 93,
      "size": 1,
      "price": "905000000000000000000",
      "reserved": "0x7a9fe22691c811ea339d9b73150e6911a5343dca",
      "assetIds": []
    },
    {
      "x": 104,
      "y": 95,
      "size": 1,
      "price": "905000000000000000000",
      "reserved": "0x7a9fe22691c811ea339d9b73150e6911a5343dca",
      "assetIds": []
    },
    {
      "x": 101,
      "y": 91,
      "size": 1,
      "price": "905000000000000000000",
      "reserved": "0x7a9fe22691c811ea339d9b73150e6911a5343dca",
      "assetIds": []
    },
    {
      "x": 96,
      "y": 92,
      "size": 1,
      "price": "905000000000000000000",
      "reserved": "0x7a9fe22691c811ea339d9b73150e6911a5343dca",
      "assetIds": []
    },
    {
      "x": 110,
      "y": 105,
      "size": 1,
      "price": "905000000000000000000",
      "reserved": "0x7a9fe22691c811ea339d9b73150e6911a5343dca",
      "assetIds": []
    },
    {
      "x": 92,
      "y": 78,
      "size": 1,
      "price": "905000000000000000000",
      "reserved": "0x7a9fe22691c811ea339d9b73150e6911a5343dca",
      "assetIds": []
    },
    {
      "x": 92,
      "y": 80,
      "size": 1,
      "price": "905000000000000000000",
      "reserved": "0x7a9fe22691c811ea339d9b73150e6911a5343dca",
      "assetIds": []
    },
    {
      "x": 90,
      "y": 78,
      "size": 1,
      "price": "905000000000000000000",
      "reserved": "0x7a9fe22691c811ea339d9b73150e6911a5343dca",
      "assetIds": []
    },
    {
      "x": 179,
      "y": 120,
      "size": 1,
      "price": "905000000000000000000",
      "reserved": "0x7a9fe22691c811ea339d9b73150e6911a5343dca",
      "assetIds": []
    },
    {
      "x": 177,
      "y": 120,
      "size": 1,
      "price": "905000000000000000000",
      "reserved": "0x7a9fe22691c811ea339d9b73150e6911a5343dca",
      "assetIds": []
    },
    {
      "x": 155,
      "y": 107,
      "size": 1,
      "price": "905000000000000000000",
      "reserved": "0x7a9fe22691c811ea339d9b73150e6911a5343dca",
      "assetIds": []
    },
    {
      "x": 149,
      "y": 102,
      "size": 1,
      "price": "905000000000000000000",
      "reserved": "0x7a9fe22691c811ea339d9b73150e6911a5343dca",
      "assetIds": []
    },
    {
      "x": 145,
      "y": 103,
      "size": 1,
      "price": "905000000000000000000",
      "reserved": "0x7a9fe22691c811ea339d9b73150e6911a5343dca",
      "assetIds": []
    },
    {
      "x": 143,
      "y": 102,
      "size": 1,
      "price": "905000000000000000000",
      "reserved": "0x7a9fe22691c811ea339d9b73150e6911a5343dca",
      "assetIds": []
    },
    {
      "x": 140,
      "y": 103,
      "size": 1,
      "price": "905000000000000000000",
      "reserved": "0x7a9fe22691c811ea339d9b73150e6911a5343dca",
      "assetIds": []
    },
    {
      "x": 139,
      "y": 105,
      "size": 1,
      "price": "905000000000000000000",
      "reserved": "0x7a9fe22691c811ea339d9b73150e6911a5343dca",
      "assetIds": []
    },
    {
      "x": 142,
      "y": 105,
      "size": 1,
      "price": "905000000000000000000",
      "reserved": "0x7a9fe22691c811ea339d9b73150e6911a5343dca",
      "assetIds": []
    },
    {
      "x": 147,
      "y": 105,
      "size": 1,
      "price": "905000000000000000000",
      "reserved": "0x7a9fe22691c811ea339d9b73150e6911a5343dca",
      "assetIds": []
    },
    {
      "x": 149,
      "y": 105,
      "size": 1,
      "price": "905000000000000000000",
      "reserved": "0x7a9fe22691c811ea339d9b73150e6911a5343dca",
      "assetIds": []
    },
    {
      "x": 145,
      "y": 107,
      "size": 1,
      "price": "905000000000000000000",
      "reserved": "0x7a9fe22691c811ea339d9b73150e6911a5343dca",
      "assetIds": []
    },
    {
      "x": 145,
      "y": 110,
      "size": 1,
      "price": "905000000000000000000",
      "reserved": "0x7a9fe22691c811ea339d9b73150e6911a5343dca",
      "assetIds": []
    },
    {
      "x": 148,
      "y": 112,
      "size": 1,
      "price": "905000000000000000000",
      "reserved": "0x7a9fe22691c811ea339d9b73150e6911a5343dca",
      "assetIds": []
    },
    {
      "x": 149,
      "y": 110,
      "size": 1,
      "price": "905000000000000000000",
      "reserved": "0x7a9fe22691c811ea339d9b73150e6911a5343dca",
      "assetIds": []
    },
    {
      "x": 149,
      "y": 108,
      "size": 1,
      "price": "905000000000000000000",
      "reserved": "0x7a9fe22691c811ea339d9b73150e6911a5343dca",
      "assetIds": []
    },
    {
      "x": 138,
      "y": 101,
      "size": 1,
      "price": "905000000000000000000",
      "reserved": "0x7a9fe22691c811ea339d9b73150e6911a5343dca",
      "assetIds": []
    },
    {
      "x": 137,
      "y": 103,
      "size": 1,
      "price": "905000000000000000000",
      "reserved": "0x7a9fe22691c811ea339d9b73150e6911a5343dca",
      "assetIds": []
    },
    {
      "x": 135,
      "y": 104,
      "size": 1,
      "price": "905000000000000000000",
      "reserved": "0x7a9fe22691c811ea339d9b73150e6911a5343dca",
      "assetIds": []
    },
    {
      "x": 132,
      "y": 102,
      "size": 1,
      "price": "905000000000000000000",
      "reserved": "0x7a9fe22691c811ea339d9b73150e6911a5343dca",
      "assetIds": []
    },
    {
      "x": 131,
      "y": 103,
      "size": 1,
      "price": "905000000000000000000",
      "reserved": "0x7a9fe22691c811ea339d9b73150e6911a5343dca",
      "assetIds": []
    },
    {
      "x": 129,
      "y": 103,
      "size": 1,
      "price": "905000000000000000000",
      "reserved": "0x7a9fe22691c811ea339d9b73150e6911a5343dca",
      "assetIds": []
    },
    {
      "x": 129,
      "y": 101,
      "size": 1,
      "price": "905000000000000000000",
      "reserved": "0x7a9fe22691c811ea339d9b73150e6911a5343dca",
      "assetIds": []
    },
    {
      "x": 126,
      "y": 104,
      "size": 1,
      "price": "905000000000000000000",
      "reserved": "0x7a9fe22691c811ea339d9b73150e6911a5343dca",
      "assetIds": []
    },
    {
      "x": 128,
      "y": 105,
      "size": 1,
      "price": "905000000000000000000",
      "reserved": "0x7a9fe22691c811ea339d9b73150e6911a5343dca",
      "assetIds": []
    },
    {
      "x": 128,
      "y": 107,
      "size": 1,
      "price": "905000000000000000000",
      "reserved": "0x7a9fe22691c811ea339d9b73150e6911a5343dca",
      "assetIds": []
    },
    {
      "x": 130,
      "y": 106,
      "size": 1,
      "price": "905000000000000000000",
      "reserved": "0x7a9fe22691c811ea339d9b73150e6911a5343dca",
      "assetIds": []
    },
    {
      "x": 133,
      "y": 106,
      "size": 1,
      "price": "905000000000000000000",
      "reserved": "0x7a9fe22691c811ea339d9b73150e6911a5343dca",
      "assetIds": []
    },
    {
      "x": 130,
      "y": 109,
      "size": 1,
      "price": "905000000000000000000",
      "reserved": "0x7a9fe22691c811ea339d9b73150e6911a5343dca",
      "assetIds": []
    },
    {
      "x": 127,
      "y": 109,
      "size": 1,
      "price": "905000000000000000000",
      "reserved": "0x7a9fe22691c811ea339d9b73150e6911a5343dca",
      "assetIds": []
    },
    {
      "x": 128,
      "y": 111,
      "size": 1,
      "price": "905000000000000000000",
      "reserved": "0x7a9fe22691c811ea339d9b73150e6911a5343dca",
      "assetIds": []
    },
    {
      "x": 130,
      "y": 112,
      "size": 1,
      "price": "905000000000000000000",
      "reserved": "0x7a9fe22691c811ea339d9b73150e6911a5343dca",
      "assetIds": []
    },
    {
      "x": 126,
      "y": 112,
      "size": 1,
      "price": "905000000000000000000",
      "reserved": "0x7a9fe22691c811ea339d9b73150e6911a5343dca",
      "assetIds": []
    },
    {
      "x": 128,
      "y": 114,
      "size": 1,
      "price": "905000000000000000000",
      "reserved": "0x7a9fe22691c811ea339d9b73150e6911a5343dca",
      "assetIds": []
    },
    {
      "x": 130,
      "y": 115,
      "size": 1,
      "price": "905000000000000000000",
      "reserved": "0x7a9fe22691c811ea339d9b73150e6911a5343dca",
      "assetIds": []
    },
    {
      "x": 126,
      "y": 116,
      "size": 1,
      "price": "905000000000000000000",
      "reserved": "0x7a9fe22691c811ea339d9b73150e6911a5343dca",
      "assetIds": []
    },
    {
      "x": 126,
      "y": 118,
      "size": 1,
      "price": "905000000000000000000",
      "reserved": "0x7a9fe22691c811ea339d9b73150e6911a5343dca",
      "assetIds": []
    },
    {
      "x": 125,
      "y": 119,
      "size": 1,
      "price": "905000000000000000000",
      "reserved": "0x7a9fe22691c811ea339d9b73150e6911a5343dca",
      "assetIds": []
    },
    {
      "x": 128,
      "y": 119,
      "size": 1,
      "price": "905000000000000000000",
      "reserved": "0x7a9fe22691c811ea339d9b73150e6911a5343dca",
      "assetIds": []
    },
    {
      "x": 130,
      "y": 118,
      "size": 1,
      "price": "905000000000000000000",
      "reserved": "0x7a9fe22691c811ea339d9b73150e6911a5343dca",
      "assetIds": []
    },
    {
      "x": 149,
      "y": 115,
      "size": 1,
      "price": "905000000000000000000",
      "reserved": "0x7a9fe22691c811ea339d9b73150e6911a5343dca",
      "assetIds": []
    },
    {
      "x": 147,
      "y": 115,
      "size": 1,
      "price": "905000000000000000000",
      "reserved": "0x7a9fe22691c811ea339d9b73150e6911a5343dca",
      "assetIds": []
    },
    {
      "x": 145,
      "y": 116,
      "size": 1,
      "price": "905000000000000000000",
      "reserved": "0x7a9fe22691c811ea339d9b73150e6911a5343dca",
      "assetIds": []
    },
    {
      "x": 145,
      "y": 119,
      "size": 1,
      "price": "905000000000000000000",
      "reserved": "0x7a9fe22691c811ea339d9b73150e6911a5343dca",
      "assetIds": []
    },
    {
      "x": 147,
      "y": 118,
      "size": 1,
      "price": "905000000000000000000",
      "reserved": "0x7a9fe22691c811ea339d9b73150e6911a5343dca",
      "assetIds": []
    },
    {
      "x": 149,
      "y": 117,
      "size": 1,
      "price": "905000000000000000000",
      "reserved": "0x7a9fe22691c811ea339d9b73150e6911a5343dca",
      "assetIds": []
    },
    {
      "x": 149,
      "y": 128,
      "size": 1,
      "price": "905000000000000000000",
      "reserved": "0x7a9fe22691c811ea339d9b73150e6911a5343dca",
      "assetIds": []
    },
    {
      "x": 140,
      "y": 127,
      "size": 1,
      "price": "905000000000000000000",
      "reserved": "0x7a9fe22691c811ea339d9b73150e6911a5343dca",
      "assetIds": []
    },
    {
      "x": 135,
      "y": 127,
      "size": 1,
      "price": "905000000000000000000",
      "reserved": "0x7a9fe22691c811ea339d9b73150e6911a5343dca",
      "assetIds": []
    },
    {
      "x": 126,
      "y": 121,
      "size": 1,
      "price": "905000000000000000000",
      "reserved": "0x7a9fe22691c811ea339d9b73150e6911a5343dca",
      "assetIds": []
    },
    {
      "x": 127,
      "y": 122,
      "size": 1,
      "price": "905000000000000000000",
      "reserved": "0x7a9fe22691c811ea339d9b73150e6911a5343dca",
      "assetIds": []
    },
    {
      "x": 128,
      "y": 123,
      "size": 1,
      "price": "905000000000000000000",
      "reserved": "0x7a9fe22691c811ea339d9b73150e6911a5343dca",
      "assetIds": []
    },
    {
      "x": 130,
      "y": 121,
      "size": 1,
      "price": "905000000000000000000",
      "reserved": "0x7a9fe22691c811ea339d9b73150e6911a5343dca",
      "assetIds": []
    },
    {
      "x": 133,
      "y": 122,
      "size": 1,
      "price": "905000000000000000000",
      "reserved": "0x7a9fe22691c811ea339d9b73150e6911a5343dca",
      "assetIds": []
    },
    {
      "x": 132,
      "y": 124,
      "size": 1,
      "price": "905000000000000000000",
      "reserved": "0x7a9fe22691c811ea339d9b73150e6911a5343dca",
      "assetIds": []
    },
    {
      "x": 134,
      "y": 125,
      "size": 1,
      "price": "905000000000000000000",
      "reserved": "0x7a9fe22691c811ea339d9b73150e6911a5343dca",
      "assetIds": []
    },
    {
      "x": 136,
      "y": 124,
      "size": 1,
      "price": "905000000000000000000",
      "reserved": "0x7a9fe22691c811ea339d9b73150e6911a5343dca",
      "assetIds": []
    },
    {
      "x": 138,
      "y": 124,
      "size": 1,
      "price": "905000000000000000000",
      "reserved": "0x7a9fe22691c811ea339d9b73150e6911a5343dca",
      "assetIds": []
    },
    {
      "x": 137,
      "y": 121,
      "size": 1,
      "price": "905000000000000000000",
      "reserved": "0x7a9fe22691c811ea339d9b73150e6911a5343dca",
      "assetIds": []
    },
    {
      "x": 142,
      "y": 122,
      "size": 1,
      "price": "905000000000000000000",
      "reserved": "0x7a9fe22691c811ea339d9b73150e6911a5343dca",
      "assetIds": []
    },
    {
      "x": 143,
      "y": 124,
      "size": 1,
      "price": "905000000000000000000",
      "reserved": "0x7a9fe22691c811ea339d9b73150e6911a5343dca",
      "assetIds": []
    },
    {
      "x": 141,
      "y": 125,
      "size": 1,
      "price": "905000000000000000000",
      "reserved": "0x7a9fe22691c811ea339d9b73150e6911a5343dca",
      "assetIds": []
    },
    {
      "x": 144,
      "y": 125,
      "size": 1,
      "price": "905000000000000000000",
      "reserved": "0x7a9fe22691c811ea339d9b73150e6911a5343dca",
      "assetIds": []
    },
    {
      "x": 145,
      "y": 123,
      "size": 1,
      "price": "905000000000000000000",
      "reserved": "0x7a9fe22691c811ea339d9b73150e6911a5343dca",
      "assetIds": []
    },
    {
      "x": 147,
      "y": 121,
      "size": 1,
      "price": "905000000000000000000",
      "reserved": "0x7a9fe22691c811ea339d9b73150e6911a5343dca",
      "assetIds": []
    },
    {
      "x": 107,
      "y": 108,
      "size": 1,
      "price": "905000000000000000000",
      "reserved": "0x7a9fe22691c811ea339d9b73150e6911a5343dca",
      "assetIds": []
    },
    {
      "x": 107,
      "y": 113,
      "size": 1,
      "price": "905000000000000000000",
      "reserved": "0x7a9fe22691c811ea339d9b73150e6911a5343dca",
      "assetIds": []
    },
    {
      "x": 99,
      "y": 111,
      "size": 1,
      "price": "905000000000000000000",
      "reserved": "0x7a9fe22691c811ea339d9b73150e6911a5343dca",
      "assetIds": []
    },
    {
      "x": 99,
      "y": 112,
      "size": 1,
      "price": "905000000000000000000",
      "reserved": "0x7a9fe22691c811ea339d9b73150e6911a5343dca",
      "assetIds": []
    },
    {
      "x": 99,
      "y": 113,
      "size": 1,
      "price": "905000000000000000000",
      "reserved": "0x7a9fe22691c811ea339d9b73150e6911a5343dca",
      "assetIds": []
    },
    {
      "x": 95,
      "y": 111,
      "size": 1,
      "price": "905000000000000000000",
      "reserved": "0x7a9fe22691c811ea339d9b73150e6911a5343dca",
      "assetIds": []
    },
    {
      "x": 95,
      "y": 112,
      "size": 1,
      "price": "905000000000000000000",
      "reserved": "0x7a9fe22691c811ea339d9b73150e6911a5343dca",
      "assetIds": []
    },
    {
      "x": 95,
      "y": 113,
      "size": 1,
      "price": "905000000000000000000",
      "reserved": "0x7a9fe22691c811ea339d9b73150e6911a5343dca",
      "assetIds": []
    },
    {
      "x": 90,
      "y": 120,
      "size": 1,
      "price": "905000000000000000000",
      "reserved": "0x7a9fe22691c811ea339d9b73150e6911a5343dca",
      "assetIds": []
    },
    {
      "x": 90,
      "y": 122,
      "size": 1,
      "price": "905000000000000000000",
      "reserved": "0x7a9fe22691c811ea339d9b73150e6911a5343dca",
      "assetIds": []
    },
    {
      "x": 92,
      "y": 122,
      "size": 1,
      "price": "905000000000000000000",
      "reserved": "0x7a9fe22691c811ea339d9b73150e6911a5343dca",
      "assetIds": []
    },
    {
      "x": 91,
      "y": 131,
      "size": 1,
      "price": "905000000000000000000",
      "reserved": "0x7a9fe22691c811ea339d9b73150e6911a5343dca",
      "assetIds": []
    },
    {
      "x": 84,
      "y": 77,
      "size": 1,
      "price": "905000000000000000000",
      "reserved": "0x7a9fe22691c811ea339d9b73150e6911a5343dca",
      "assetIds": []
    },
    {
      "x": 81,
      "y": 78,
      "size": 1,
      "price": "905000000000000000000",
      "reserved": "0x7a9fe22691c811ea339d9b73150e6911a5343dca",
      "assetIds": []
    },
    {
      "x": 77,
      "y": 72,
      "size": 1,
      "price": "905000000000000000000",
      "reserved": "0x7a9fe22691c811ea339d9b73150e6911a5343dca",
      "assetIds": []
    },
    {
      "x": 72,
      "y": 77,
      "size": 1,
      "price": "905000000000000000000",
      "reserved": "0x7a9fe22691c811ea339d9b73150e6911a5343dca",
      "assetIds": []
    },
    {
      "x": 75,
      "y": 86,
      "size": 1,
      "price": "905000000000000000000",
      "reserved": "0x7a9fe22691c811ea339d9b73150e6911a5343dca",
      "assetIds": []
    },
    {
      "x": 83,
      "y": 84,
      "size": 1,
      "price": "905000000000000000000",
      "reserved": "0x7a9fe22691c811ea339d9b73150e6911a5343dca",
      "assetIds": []
    },
    {
      "x": 78,
      "y": 88,
      "size": 1,
      "price": "905000000000000000000",
      "reserved": "0x7a9fe22691c811ea339d9b73150e6911a5343dca",
      "assetIds": []
    },
    {
      "x": 78,
      "y": 89,
      "size": 1,
      "price": "905000000000000000000",
      "reserved": "0x7a9fe22691c811ea339d9b73150e6911a5343dca",
      "assetIds": []
    },
    {
      "x": 82,
      "y": 100,
      "size": 1,
      "price": "905000000000000000000",
      "reserved": "0x7a9fe22691c811ea339d9b73150e6911a5343dca",
      "assetIds": []
    },
    {
      "x": 78,
      "y": 102,
      "size": 1,
      "price": "905000000000000000000",
      "reserved": "0x7a9fe22691c811ea339d9b73150e6911a5343dca",
      "assetIds": []
    },
    {
      "x": 78,
      "y": 104,
      "size": 1,
      "price": "905000000000000000000",
      "reserved": "0x7a9fe22691c811ea339d9b73150e6911a5343dca",
      "assetIds": []
    },
    {
      "x": 83,
      "y": 104,
      "size": 1,
      "price": "905000000000000000000",
      "reserved": "0x7a9fe22691c811ea339d9b73150e6911a5343dca",
      "assetIds": []
    },
    {
      "x": 83,
      "y": 112,
      "size": 1,
      "price": "905000000000000000000",
      "reserved": "0x7a9fe22691c811ea339d9b73150e6911a5343dca",
      "assetIds": []
    },
    {
      "x": 81,
      "y": 113,
      "size": 1,
      "price": "905000000000000000000",
      "reserved": "0x7a9fe22691c811ea339d9b73150e6911a5343dca",
      "assetIds": []
    },
    {
      "x": 78,
      "y": 119,
      "size": 1,
      "price": "905000000000000000000",
      "reserved": "0x7a9fe22691c811ea339d9b73150e6911a5343dca",
      "assetIds": []
    },
    {
      "x": 75,
      "y": 121,
      "size": 1,
      "price": "905000000000000000000",
      "reserved": "0x7a9fe22691c811ea339d9b73150e6911a5343dca",
      "assetIds": []
    },
    {
      "x": 83,
      "y": 120,
      "size": 1,
      "price": "905000000000000000000",
      "reserved": "0x7a9fe22691c811ea339d9b73150e6911a5343dca",
      "assetIds": []
    },
    {
      "x": 71,
      "y": 71,
      "size": 1,
      "price": "905000000000000000000",
      "reserved": "0x7a9fe22691c811ea339d9b73150e6911a5343dca",
      "assetIds": []
    },
    {
      "x": 71,
      "y": 63,
      "size": 1,
      "price": "905000000000000000000",
      "reserved": "0x7a9fe22691c811ea339d9b73150e6911a5343dca",
      "assetIds": []
    },
    {
      "x": 60,
      "y": 71,
      "size": 1,
      "price": "905000000000000000000",
      "reserved": "0x7a9fe22691c811ea339d9b73150e6911a5343dca",
      "assetIds": []
    },
    {
      "x": 55,
      "y": 65,
      "size": 1,
      "price": "905000000000000000000",
      "reserved": "0x7a9fe22691c811ea339d9b73150e6911a5343dca",
      "assetIds": []
    },
    {
      "x": 65,
      "y": 59,
      "size": 1,
      "price": "905000000000000000000",
      "reserved": "0x7a9fe22691c811ea339d9b73150e6911a5343dca",
      "assetIds": []
    },
    {
      "x": 44,
      "y": 67,
      "size": 1,
      "price": "905000000000000000000",
      "reserved": "0x7a9fe22691c811ea339d9b73150e6911a5343dca",
      "assetIds": []
    },
    {
      "x": 44,
      "y": 77,
      "size": 1,
      "price": "905000000000000000000",
      "reserved": "0x7a9fe22691c811ea339d9b73150e6911a5343dca",
      "assetIds": []
    },
    {
      "x": 36,
      "y": 76,
      "size": 1,
      "price": "905000000000000000000",
      "reserved": "0x7a9fe22691c811ea339d9b73150e6911a5343dca",
      "assetIds": []
    },
    {
      "x": 32,
      "y": 71,
      "size": 1,
      "price": "905000000000000000000",
      "reserved": "0x7a9fe22691c811ea339d9b73150e6911a5343dca",
      "assetIds": []
    },
    {
      "x": 41,
      "y": 83,
      "size": 1,
      "price": "905000000000000000000",
      "reserved": "0x7a9fe22691c811ea339d9b73150e6911a5343dca",
      "assetIds": []
    },
    {
      "x": 38,
      "y": 88,
      "size": 1,
      "price": "905000000000000000000",
      "reserved": "0x7a9fe22691c811ea339d9b73150e6911a5343dca",
      "assetIds": []
    },
    {
      "x": 42,
      "y": 92,
      "size": 1,
      "price": "905000000000000000000",
      "reserved": "0x7a9fe22691c811ea339d9b73150e6911a5343dca",
      "assetIds": []
    },
    {
      "x": 39,
      "y": 100,
      "size": 1,
      "price": "905000000000000000000",
      "reserved": "0x7a9fe22691c811ea339d9b73150e6911a5343dca",
      "assetIds": []
    },
    {
      "x": 48,
      "y": 99,
      "size": 1,
      "price": "905000000000000000000",
      "reserved": "0x7a9fe22691c811ea339d9b73150e6911a5343dca",
      "assetIds": []
    },
    {
      "x": 48,
      "y": 101,
      "size": 1,
      "price": "905000000000000000000",
      "reserved": "0x7a9fe22691c811ea339d9b73150e6911a5343dca",
      "assetIds": []
    },
    {
      "x": 50,
      "y": 100,
      "size": 1,
      "price": "905000000000000000000",
      "reserved": "0x7a9fe22691c811ea339d9b73150e6911a5343dca",
      "assetIds": []
    },
    {
      "x": 48,
      "y": 105,
      "size": 1,
      "price": "905000000000000000000",
      "reserved": "0x7a9fe22691c811ea339d9b73150e6911a5343dca",
      "assetIds": []
    },
    {
      "x": 63,
      "y": 101,
      "size": 1,
      "price": "905000000000000000000",
      "reserved": "0x7a9fe22691c811ea339d9b73150e6911a5343dca",
      "assetIds": []
    },
    {
      "x": 65,
      "y": 101,
      "size": 1,
      "price": "905000000000000000000",
      "reserved": "0x7a9fe22691c811ea339d9b73150e6911a5343dca",
      "assetIds": []
    },
    {
      "x": 48,
      "y": 120,
      "size": 1,
      "price": "905000000000000000000",
      "reserved": "0x7a9fe22691c811ea339d9b73150e6911a5343dca",
      "assetIds": []
    },
    {
      "x": 50,
      "y": 122,
      "size": 1,
      "price": "905000000000000000000",
      "reserved": "0x7a9fe22691c811ea339d9b73150e6911a5343dca",
      "assetIds": []
    },
    {
      "x": 42,
      "y": 123,
      "size": 1,
      "price": "905000000000000000000",
      "reserved": "0x7a9fe22691c811ea339d9b73150e6911a5343dca",
      "assetIds": []
    },
    {
      "x": 44,
      "y": 125,
      "size": 1,
      "price": "905000000000000000000",
      "reserved": "0x7a9fe22691c811ea339d9b73150e6911a5343dca",
      "assetIds": []
    },
    {
      "x": 42,
      "y": 129,
      "size": 1,
      "price": "905000000000000000000",
      "reserved": "0x7a9fe22691c811ea339d9b73150e6911a5343dca",
      "assetIds": []
    },
    {
      "x": 42,
      "y": 131,
      "size": 1,
      "price": "905000000000000000000",
      "reserved": "0x7a9fe22691c811ea339d9b73150e6911a5343dca",
      "assetIds": []
    },
    {
      "x": 44,
      "y": 131,
      "size": 1,
      "price": "905000000000000000000",
      "reserved": "0x7a9fe22691c811ea339d9b73150e6911a5343dca",
      "assetIds": []
    },
    {
      "x": 60,
      "y": 137,
      "size": 1,
      "price": "905000000000000000000",
      "reserved": "0x7a9fe22691c811ea339d9b73150e6911a5343dca",
      "assetIds": []
    },
    {
      "x": 60,
      "y": 144,
      "size": 1,
      "price": "905000000000000000000",
      "reserved": "0x7a9fe22691c811ea339d9b73150e6911a5343dca",
      "assetIds": []
    },
    {
      "x": 50,
      "y": 144,
      "size": 1,
      "price": "905000000000000000000",
      "reserved": "0x7a9fe22691c811ea339d9b73150e6911a5343dca",
      "assetIds": []
    },
    {
      "x": 48,
      "y": 146,
      "size": 1,
      "price": "905000000000000000000",
      "reserved": "0x7a9fe22691c811ea339d9b73150e6911a5343dca",
      "assetIds": []
    },
    {
      "x": 78,
      "y": 125,
      "size": 1,
      "price": "905000000000000000000",
      "reserved": "0x7a9fe22691c811ea339d9b73150e6911a5343dca",
      "assetIds": []
    },
    {
      "x": 77,
      "y": 127,
      "size": 1,
      "price": "905000000000000000000",
      "reserved": "0x7a9fe22691c811ea339d9b73150e6911a5343dca",
      "assetIds": []
    },
    {
      "x": 75,
      "y": 128,
      "size": 1,
      "price": "905000000000000000000",
      "reserved": "0x7a9fe22691c811ea339d9b73150e6911a5343dca",
      "assetIds": []
    },
    {
      "x": 72,
      "y": 126,
      "size": 1,
      "price": "905000000000000000000",
      "reserved": "0x7a9fe22691c811ea339d9b73150e6911a5343dca",
      "assetIds": []
    },
    {
      "x": 71,
      "y": 127,
      "size": 1,
      "price": "905000000000000000000",
      "reserved": "0x7a9fe22691c811ea339d9b73150e6911a5343dca",
      "assetIds": []
    },
    {
      "x": 69,
      "y": 127,
      "size": 1,
      "price": "905000000000000000000",
      "reserved": "0x7a9fe22691c811ea339d9b73150e6911a5343dca",
      "assetIds": []
    },
    {
      "x": 70,
      "y": 130,
      "size": 1,
      "price": "905000000000000000000",
      "reserved": "0x7a9fe22691c811ea339d9b73150e6911a5343dca",
      "assetIds": []
    },
    {
      "x": 68,
      "y": 129,
      "size": 1,
      "price": "905000000000000000000",
      "reserved": "0x7a9fe22691c811ea339d9b73150e6911a5343dca",
      "assetIds": []
    },
    {
      "x": 68,
      "y": 131,
      "size": 1,
      "price": "905000000000000000000",
      "reserved": "0x7a9fe22691c811ea339d9b73150e6911a5343dca",
      "assetIds": []
    },
    {
      "x": 70,
      "y": 133,
      "size": 1,
      "price": "905000000000000000000",
      "reserved": "0x7a9fe22691c811ea339d9b73150e6911a5343dca",
      "assetIds": []
    },
    {
      "x": 67,
      "y": 133,
      "size": 1,
      "price": "905000000000000000000",
      "reserved": "0x7a9fe22691c811ea339d9b73150e6911a5343dca",
      "assetIds": []
    },
    {
      "x": 68,
      "y": 135,
      "size": 1,
      "price": "905000000000000000000",
      "reserved": "0x7a9fe22691c811ea339d9b73150e6911a5343dca",
      "assetIds": []
    },
    {
      "x": 70,
      "y": 136,
      "size": 1,
      "price": "905000000000000000000",
      "reserved": "0x7a9fe22691c811ea339d9b73150e6911a5343dca",
      "assetIds": []
    },
    {
      "x": 66,
      "y": 136,
      "size": 1,
      "price": "905000000000000000000",
      "reserved": "0x7a9fe22691c811ea339d9b73150e6911a5343dca",
      "assetIds": []
    },
    {
      "x": 68,
      "y": 138,
      "size": 1,
      "price": "905000000000000000000",
      "reserved": "0x7a9fe22691c811ea339d9b73150e6911a5343dca",
      "assetIds": []
    },
    {
      "x": 70,
      "y": 139,
      "size": 1,
      "price": "905000000000000000000",
      "reserved": "0x7a9fe22691c811ea339d9b73150e6911a5343dca",
      "assetIds": []
    },
    {
      "x": 66,
      "y": 140,
      "size": 1,
      "price": "905000000000000000000",
      "reserved": "0x7a9fe22691c811ea339d9b73150e6911a5343dca",
      "assetIds": []
    },
    {
      "x": 66,
      "y": 142,
      "size": 1,
      "price": "905000000000000000000",
      "reserved": "0x7a9fe22691c811ea339d9b73150e6911a5343dca",
      "assetIds": []
    },
    {
      "x": 65,
      "y": 143,
      "size": 1,
      "price": "905000000000000000000",
      "reserved": "0x7a9fe22691c811ea339d9b73150e6911a5343dca",
      "assetIds": []
    },
    {
      "x": 68,
      "y": 143,
      "size": 1,
      "price": "905000000000000000000",
      "reserved": "0x7a9fe22691c811ea339d9b73150e6911a5343dca",
      "assetIds": []
    },
    {
      "x": 70,
      "y": 142,
      "size": 1,
      "price": "905000000000000000000",
      "reserved": "0x7a9fe22691c811ea339d9b73150e6911a5343dca",
      "assetIds": []
    },
    {
      "x": 66,
      "y": 145,
      "size": 1,
      "price": "905000000000000000000",
      "reserved": "0x7a9fe22691c811ea339d9b73150e6911a5343dca",
      "assetIds": []
    },
    {
      "x": 98,
      "y": 144,
      "size": 1,
      "price": "905000000000000000000",
      "reserved": "0x7a9fe22691c811ea339d9b73150e6911a5343dca",
      "assetIds": []
    },
    {
      "x": 110,
      "y": 146,
      "size": 1,
      "price": "905000000000000000000",
      "reserved": "0x7a9fe22691c811ea339d9b73150e6911a5343dca",
      "assetIds": []
    },
    {
      "x": 83,
      "y": 126,
      "size": 1,
      "price": "905000000000000000000",
      "reserved": "0x7a9fe22691c811ea339d9b73150e6911a5343dca",
      "assetIds": []
    },
    {
      "x": 80,
      "y": 127,
      "size": 1,
      "price": "905000000000000000000",
      "reserved": "0x7a9fe22691c811ea339d9b73150e6911a5343dca",
      "assetIds": []
    },
    {
      "x": 79,
      "y": 129,
      "size": 1,
      "price": "905000000000000000000",
      "reserved": "0x7a9fe22691c811ea339d9b73150e6911a5343dca",
      "assetIds": []
    },
    {
      "x": 73,
      "y": 130,
      "size": 1,
      "price": "905000000000000000000",
      "reserved": "0x7a9fe22691c811ea339d9b73150e6911a5343dca",
      "assetIds": []
    },
    {
      "x": 82,
      "y": 129,
      "size": 1,
      "price": "905000000000000000000",
      "reserved": "0x7a9fe22691c811ea339d9b73150e6911a5343dca",
      "assetIds": []
    },
    {
      "x": 85,
      "y": 127,
      "size": 1,
      "price": "905000000000000000000",
      "reserved": "0x7a9fe22691c811ea339d9b73150e6911a5343dca",
      "assetIds": []
    },
    {
      "x": 87,
      "y": 129,
      "size": 1,
      "price": "905000000000000000000",
      "reserved": "0x7a9fe22691c811ea339d9b73150e6911a5343dca",
      "assetIds": []
    },
    {
      "x": 85,
      "y": 131,
      "size": 1,
      "price": "905000000000000000000",
      "reserved": "0x7a9fe22691c811ea339d9b73150e6911a5343dca",
      "assetIds": []
    },
    {
      "x": 85,
      "y": 134,
      "size": 1,
      "price": "905000000000000000000",
      "reserved": "0x7a9fe22691c811ea339d9b73150e6911a5343dca",
      "assetIds": []
    },
    {
      "x": 89,
      "y": 134,
      "size": 1,
      "price": "905000000000000000000",
      "reserved": "0x7a9fe22691c811ea339d9b73150e6911a5343dca",
      "assetIds": []
    },
    {
      "x": 89,
      "y": 132,
      "size": 1,
      "price": "905000000000000000000",
      "reserved": "0x7a9fe22691c811ea339d9b73150e6911a5343dca",
      "assetIds": []
    },
    {
      "x": 88,
      "y": 136,
      "size": 1,
      "price": "905000000000000000000",
      "reserved": "0x7a9fe22691c811ea339d9b73150e6911a5343dca",
      "assetIds": []
    },
    {
      "x": 87,
      "y": 139,
      "size": 1,
      "price": "905000000000000000000",
      "reserved": "0x7a9fe22691c811ea339d9b73150e6911a5343dca",
      "assetIds": []
    },
    {
      "x": 85,
      "y": 140,
      "size": 1,
      "price": "905000000000000000000",
      "reserved": "0x7a9fe22691c811ea339d9b73150e6911a5343dca",
      "assetIds": []
    },
    {
      "x": 87,
      "y": 142,
      "size": 1,
      "price": "905000000000000000000",
      "reserved": "0x7a9fe22691c811ea339d9b73150e6911a5343dca",
      "assetIds": []
    },
    {
      "x": 85,
      "y": 143,
      "size": 1,
      "price": "905000000000000000000",
      "reserved": "0x7a9fe22691c811ea339d9b73150e6911a5343dca",
      "assetIds": []
    },
    {
      "x": 87,
      "y": 145,
      "size": 1,
      "price": "905000000000000000000",
      "reserved": "0x7a9fe22691c811ea339d9b73150e6911a5343dca",
      "assetIds": []
    },
    {
      "x": 77,
      "y": 145,
      "size": 1,
      "price": "905000000000000000000",
      "reserved": "0x7a9fe22691c811ea339d9b73150e6911a5343dca",
      "assetIds": []
    },
    {
      "x": 73,
      "y": 146,
      "size": 1,
      "price": "905000000000000000000",
      "reserved": "0x7a9fe22691c811ea339d9b73150e6911a5343dca",
      "assetIds": []
    },
    {
      "x": 70,
      "y": 145,
      "size": 1,
      "price": "905000000000000000000",
      "reserved": "0x7a9fe22691c811ea339d9b73150e6911a5343dca",
      "assetIds": []
    },
    {
      "x": 82,
      "y": 146,
      "size": 1,
      "price": "905000000000000000000",
      "reserved": "0x7a9fe22691c811ea339d9b73150e6911a5343dca",
      "assetIds": []
    },
    {
      "x": 101,
      "y": 149,
      "size": 1,
      "price": "905000000000000000000",
      "reserved": "0x7a9fe22691c811ea339d9b73150e6911a5343dca",
      "assetIds": []
    },
    {
      "x": 106,
      "y": 149,
      "size": 1,
      "price": "905000000000000000000",
      "reserved": "0x7a9fe22691c811ea339d9b73150e6911a5343dca",
      "assetIds": []
    },
    {
      "x": 85,
      "y": 147,
      "size": 1,
      "price": "905000000000000000000",
      "reserved": "0x7a9fe22691c811ea339d9b73150e6911a5343dca",
      "assetIds": []
    },
    {
      "x": 84,
      "y": 149,
      "size": 1,
      "price": "905000000000000000000",
      "reserved": "0x7a9fe22691c811ea339d9b73150e6911a5343dca",
      "assetIds": []
    },
    {
      "x": 83,
      "y": 148,
      "size": 1,
      "price": "905000000000000000000",
      "reserved": "0x7a9fe22691c811ea339d9b73150e6911a5343dca",
      "assetIds": []
    },
    {
      "x": 81,
      "y": 149,
      "size": 1,
      "price": "905000000000000000000",
      "reserved": "0x7a9fe22691c811ea339d9b73150e6911a5343dca",
      "assetIds": []
    },
    {
      "x": 80,
      "y": 151,
      "size": 1,
      "price": "905000000000000000000",
      "reserved": "0x7a9fe22691c811ea339d9b73150e6911a5343dca",
      "assetIds": []
    },
    {
      "x": 78,
      "y": 148,
      "size": 1,
      "price": "905000000000000000000",
      "reserved": "0x7a9fe22691c811ea339d9b73150e6911a5343dca",
      "assetIds": []
    },
    {
      "x": 76,
      "y": 148,
      "size": 1,
      "price": "905000000000000000000",
      "reserved": "0x7a9fe22691c811ea339d9b73150e6911a5343dca",
      "assetIds": []
    },
    {
      "x": 68,
      "y": 147,
      "size": 1,
      "price": "905000000000000000000",
      "reserved": "0x7a9fe22691c811ea339d9b73150e6911a5343dca",
      "assetIds": []
    },
    {
      "x": 72,
      "y": 148,
      "size": 1,
      "price": "905000000000000000000",
      "reserved": "0x7a9fe22691c811ea339d9b73150e6911a5343dca",
      "assetIds": []
    },
    {
      "x": 74,
      "y": 149,
      "size": 1,
      "price": "905000000000000000000",
      "reserved": "0x7a9fe22691c811ea339d9b73150e6911a5343dca",
      "assetIds": []
    },
    {
      "x": 75,
      "y": 151,
      "size": 1,
      "price": "905000000000000000000",
      "reserved": "0x7a9fe22691c811ea339d9b73150e6911a5343dca",
      "assetIds": []
    },
    {
      "x": 66,
      "y": 152,
      "size": 1,
      "price": "905000000000000000000",
      "reserved": "0x7a9fe22691c811ea339d9b73150e6911a5343dca",
      "assetIds": []
    },
    {
      "x": 83,
      "y": 155,
      "size": 1,
      "price": "905000000000000000000",
      "reserved": "0x7a9fe22691c811ea339d9b73150e6911a5343dca",
      "assetIds": []
    },
    {
      "x": 78,
      "y": 157,
      "size": 1,
      "price": "905000000000000000000",
      "reserved": "0x7a9fe22691c811ea339d9b73150e6911a5343dca",
      "assetIds": []
    },
    {
      "x": 93,
      "y": 156,
      "size": 1,
      "price": "905000000000000000000",
      "reserved": "0x7a9fe22691c811ea339d9b73150e6911a5343dca",
      "assetIds": []
    },
    {
      "x": 100,
      "y": 159,
      "size": 1,
      "price": "905000000000000000000",
      "reserved": "0x7a9fe22691c811ea339d9b73150e6911a5343dca",
      "assetIds": []
    },
    {
      "x": 54,
      "y": 159,
      "size": 1,
      "price": "905000000000000000000",
      "reserved": "0x7a9fe22691c811ea339d9b73150e6911a5343dca",
      "assetIds": []
    },
    {
      "x": 51,
      "y": 162,
      "size": 1,
      "price": "905000000000000000000",
      "reserved": "0x7a9fe22691c811ea339d9b73150e6911a5343dca",
      "assetIds": []
    },
    {
      "x": 53,
      "y": 163,
      "size": 1,
      "price": "905000000000000000000",
      "reserved": "0x7a9fe22691c811ea339d9b73150e6911a5343dca",
      "assetIds": []
    },
    {
      "x": 50,
      "y": 165,
      "size": 1,
      "price": "905000000000000000000",
      "reserved": "0x7a9fe22691c811ea339d9b73150e6911a5343dca",
      "assetIds": []
    },
    {
      "x": 48,
      "y": 167,
      "size": 1,
      "price": "905000000000000000000",
      "reserved": "0x7a9fe22691c811ea339d9b73150e6911a5343dca",
      "assetIds": []
    },
    {
      "x": 39,
      "y": 180,
      "size": 1,
      "price": "905000000000000000000",
      "reserved": "0x7a9fe22691c811ea339d9b73150e6911a5343dca",
      "assetIds": []
    },
    {
      "x": 39,
      "y": 185,
      "size": 1,
      "price": "905000000000000000000",
      "reserved": "0x7a9fe22691c811ea339d9b73150e6911a5343dca",
      "assetIds": []
    },
    {
      "x": 48,
      "y": 186,
      "size": 1,
      "price": "905000000000000000000",
      "reserved": "0x7a9fe22691c811ea339d9b73150e6911a5343dca",
      "assetIds": []
    },
    {
      "x": 54,
      "y": 188,
      "size": 1,
      "price": "905000000000000000000",
      "reserved": "0x7a9fe22691c811ea339d9b73150e6911a5343dca",
      "assetIds": []
    },
    {
      "x": 61,
      "y": 188,
      "size": 1,
      "price": "905000000000000000000",
      "reserved": "0x7a9fe22691c811ea339d9b73150e6911a5343dca",
      "assetIds": []
    },
    {
      "x": 66,
      "y": 194,
      "size": 1,
      "price": "905000000000000000000",
      "reserved": "0x7a9fe22691c811ea339d9b73150e6911a5343dca",
      "assetIds": []
    },
    {
      "x": 65,
      "y": 183,
      "size": 1,
      "price": "905000000000000000000",
      "reserved": "0x7a9fe22691c811ea339d9b73150e6911a5343dca",
      "assetIds": []
    },
    {
      "x": 60,
      "y": 180,
      "size": 1,
      "price": "905000000000000000000",
      "reserved": "0x7a9fe22691c811ea339d9b73150e6911a5343dca",
      "assetIds": []
    },
    {
      "x": 71,
      "y": 185,
      "size": 1,
      "price": "905000000000000000000",
      "reserved": "0x7a9fe22691c811ea339d9b73150e6911a5343dca",
      "assetIds": []
    },
    {
      "x": 72,
      "y": 180,
      "size": 1,
      "price": "905000000000000000000",
      "reserved": "0x7a9fe22691c811ea339d9b73150e6911a5343dca",
      "assetIds": []
    },
    {
      "x": 69,
      "y": 173,
      "size": 1,
      "price": "905000000000000000000",
      "reserved": "0x7a9fe22691c811ea339d9b73150e6911a5343dca",
      "assetIds": []
    },
    {
      "x": 69,
      "y": 171,
      "size": 1,
      "price": "905000000000000000000",
      "reserved": "0x7a9fe22691c811ea339d9b73150e6911a5343dca",
      "assetIds": []
    },
    {
      "x": 66,
      "y": 168,
      "size": 1,
      "price": "905000000000000000000",
      "reserved": "0x7a9fe22691c811ea339d9b73150e6911a5343dca",
      "assetIds": []
    },
    {
      "x": 72,
      "y": 168,
      "size": 1,
      "price": "905000000000000000000",
      "reserved": "0x7a9fe22691c811ea339d9b73150e6911a5343dca",
      "assetIds": []
    },
    {
      "x": 81,
      "y": 188,
      "size": 1,
      "price": "905000000000000000000",
      "reserved": "0x7a9fe22691c811ea339d9b73150e6911a5343dca",
      "assetIds": []
    },
    {
      "x": 104,
      "y": 185,
      "size": 1,
      "price": "905000000000000000000",
      "reserved": "0x7a9fe22691c811ea339d9b73150e6911a5343dca",
      "assetIds": []
    },
    {
      "x": 110,
      "y": 176,
      "size": 1,
      "price": "905000000000000000000",
      "reserved": "0x7a9fe22691c811ea339d9b73150e6911a5343dca",
      "assetIds": []
    },
    {
      "x": 95,
      "y": 162,
      "size": 1,
      "price": "905000000000000000000",
      "reserved": "0x7a9fe22691c811ea339d9b73150e6911a5343dca",
      "assetIds": []
    },
    {
      "x": 97,
      "y": 163,
      "size": 1,
      "price": "905000000000000000000",
      "reserved": "0x7a9fe22691c811ea339d9b73150e6911a5343dca",
      "assetIds": []
    },
    {
      "x": 94,
      "y": 165,
      "size": 1,
      "price": "905000000000000000000",
      "reserved": "0x7a9fe22691c811ea339d9b73150e6911a5343dca",
      "assetIds": []
    },
    {
      "x": 92,
      "y": 163,
      "size": 1,
      "price": "905000000000000000000",
      "reserved": "0x7a9fe22691c811ea339d9b73150e6911a5343dca",
      "assetIds": []
    },
    {
      "x": 91,
      "y": 165,
      "size": 1,
      "price": "905000000000000000000",
      "reserved": "0x7a9fe22691c811ea339d9b73150e6911a5343dca",
      "assetIds": []
    },
    {
      "x": 90,
      "y": 161,
      "size": 1,
      "price": "905000000000000000000",
      "reserved": "0x7a9fe22691c811ea339d9b73150e6911a5343dca",
      "assetIds": []
    },
    {
      "x": 89,
      "y": 163,
      "size": 1,
      "price": "905000000000000000000",
      "reserved": "0x7a9fe22691c811ea339d9b73150e6911a5343dca",
      "assetIds": []
    },
    {
      "x": 87,
      "y": 164,
      "size": 1,
      "price": "905000000000000000000",
      "reserved": "0x7a9fe22691c811ea339d9b73150e6911a5343dca",
      "assetIds": []
    },
    {
      "x": 85,
      "y": 166,
      "size": 1,
      "price": "905000000000000000000",
      "reserved": "0x7a9fe22691c811ea339d9b73150e6911a5343dca",
      "assetIds": []
    },
    {
      "x": 82,
      "y": 166,
      "size": 1,
      "price": "905000000000000000000",
      "reserved": "0x7a9fe22691c811ea339d9b73150e6911a5343dca",
      "assetIds": []
    },
    {
      "x": 80,
      "y": 165,
      "size": 1,
      "price": "905000000000000000000",
      "reserved": "0x7a9fe22691c811ea339d9b73150e6911a5343dca",
      "assetIds": []
    },
    {
      "x": 81,
      "y": 163,
      "size": 1,
      "price": "905000000000000000000",
      "reserved": "0x7a9fe22691c811ea339d9b73150e6911a5343dca",
      "assetIds": []
    },
    {
      "x": 83,
      "y": 163,
      "size": 1,
      "price": "905000000000000000000",
      "reserved": "0x7a9fe22691c811ea339d9b73150e6911a5343dca",
      "assetIds": []
    },
    {
      "x": 84,
      "y": 162,
      "size": 1,
      "price": "905000000000000000000",
      "reserved": "0x7a9fe22691c811ea339d9b73150e6911a5343dca",
      "assetIds": []
    },
    {
      "x": 81,
      "y": 161,
      "size": 1,
      "price": "905000000000000000000",
      "reserved": "0x7a9fe22691c811ea339d9b73150e6911a5343dca",
      "assetIds": []
    },
    {
      "x": 80,
      "y": 167,
      "size": 1,
      "price": "905000000000000000000",
      "reserved": "0x7a9fe22691c811ea339d9b73150e6911a5343dca",
      "assetIds": []
    },
    {
      "x": 79,
      "y": 169,
      "size": 1,
      "price": "905000000000000000000",
      "reserved": "0x7a9fe22691c811ea339d9b73150e6911a5343dca",
      "assetIds": []
    },
    {
      "x": 82,
      "y": 169,
      "size": 1,
      "price": "905000000000000000000",
      "reserved": "0x7a9fe22691c811ea339d9b73150e6911a5343dca",
      "assetIds": []
    },
    {
      "x": 80,
      "y": 171,
      "size": 1,
      "price": "905000000000000000000",
      "reserved": "0x7a9fe22691c811ea339d9b73150e6911a5343dca",
      "assetIds": []
    },
    {
      "x": 82,
      "y": 172,
      "size": 1,
      "price": "905000000000000000000",
      "reserved": "0x7a9fe22691c811ea339d9b73150e6911a5343dca",
      "assetIds": []
    },
    {
      "x": 78,
      "y": 172,
      "size": 1,
      "price": "905000000000000000000",
      "reserved": "0x7a9fe22691c811ea339d9b73150e6911a5343dca",
      "assetIds": []
    },
    {
      "x": 80,
      "y": 174,
      "size": 1,
      "price": "905000000000000000000",
      "reserved": "0x7a9fe22691c811ea339d9b73150e6911a5343dca",
      "assetIds": []
    },
    {
      "x": 82,
      "y": 175,
      "size": 1,
      "price": "905000000000000000000",
      "reserved": "0x7a9fe22691c811ea339d9b73150e6911a5343dca",
      "assetIds": []
    },
    {
      "x": 78,
      "y": 176,
      "size": 1,
      "price": "905000000000000000000",
      "reserved": "0x7a9fe22691c811ea339d9b73150e6911a5343dca",
      "assetIds": []
    },
    {
      "x": 78,
      "y": 178,
      "size": 1,
      "price": "905000000000000000000",
      "reserved": "0x7a9fe22691c811ea339d9b73150e6911a5343dca",
      "assetIds": []
    },
    {
      "x": 80,
      "y": 179,
      "size": 1,
      "price": "905000000000000000000",
      "reserved": "0x7a9fe22691c811ea339d9b73150e6911a5343dca",
      "assetIds": []
    },
    {
      "x": 82,
      "y": 178,
      "size": 1,
      "price": "905000000000000000000",
      "reserved": "0x7a9fe22691c811ea339d9b73150e6911a5343dca",
      "assetIds": []
    },
    {
      "x": 82,
      "y": 181,
      "size": 1,
      "price": "905000000000000000000",
      "reserved": "0x7a9fe22691c811ea339d9b73150e6911a5343dca",
      "assetIds": []
    },
    {
      "x": 80,
      "y": 183,
      "size": 1,
      "price": "905000000000000000000",
      "reserved": "0x7a9fe22691c811ea339d9b73150e6911a5343dca",
      "assetIds": []
    },
    {
      "x": 79,
      "y": 182,
      "size": 1,
      "price": "905000000000000000000",
      "reserved": "0x7a9fe22691c811ea339d9b73150e6911a5343dca",
      "assetIds": []
    },
    {
      "x": 89,
      "y": 181,
      "size": 1,
      "price": "905000000000000000000",
      "reserved": "0x7a9fe22691c811ea339d9b73150e6911a5343dca",
      "assetIds": []
    },
    {
      "x": 85,
      "y": 182,
      "size": 1,
      "price": "905000000000000000000",
      "reserved": "0x7a9fe22691c811ea339d9b73150e6911a5343dca",
      "assetIds": []
    },
    {
      "x": 84,
      "y": 184,
      "size": 1,
      "price": "905000000000000000000",
      "reserved": "0x7a9fe22691c811ea339d9b73150e6911a5343dca",
      "assetIds": []
    },
    {
      "x": 86,
      "y": 185,
      "size": 1,
      "price": "905000000000000000000",
      "reserved": "0x7a9fe22691c811ea339d9b73150e6911a5343dca",
      "assetIds": []
    },
    {
      "x": 88,
      "y": 184,
      "size": 1,
      "price": "905000000000000000000",
      "reserved": "0x7a9fe22691c811ea339d9b73150e6911a5343dca",
      "assetIds": []
    },
    {
      "x": 90,
      "y": 184,
      "size": 1,
      "price": "905000000000000000000",
      "reserved": "0x7a9fe22691c811ea339d9b73150e6911a5343dca",
      "assetIds": []
    },
    {
      "x": 87,
      "y": 187,
      "size": 1,
      "price": "905000000000000000000",
      "reserved": "0x7a9fe22691c811ea339d9b73150e6911a5343dca",
      "assetIds": []
    },
    {
      "x": 92,
      "y": 187,
      "size": 1,
      "price": "905000000000000000000",
      "reserved": "0x7a9fe22691c811ea339d9b73150e6911a5343dca",
      "assetIds": []
    },
    {
      "x": 93,
      "y": 185,
      "size": 1,
      "price": "905000000000000000000",
      "reserved": "0x7a9fe22691c811ea339d9b73150e6911a5343dca",
      "assetIds": []
    },
    {
      "x": 95,
      "y": 184,
      "size": 1,
      "price": "905000000000000000000",
      "reserved": "0x7a9fe22691c811ea339d9b73150e6911a5343dca",
      "assetIds": []
    },
    {
      "x": 96,
      "y": 185,
      "size": 1,
      "price": "905000000000000000000",
      "reserved": "0x7a9fe22691c811ea339d9b73150e6911a5343dca",
      "assetIds": []
    },
    {
      "x": 97,
      "y": 183,
      "size": 1,
      "price": "905000000000000000000",
      "reserved": "0x7a9fe22691c811ea339d9b73150e6911a5343dca",
      "assetIds": []
    },
    {
      "x": 94,
      "y": 182,
      "size": 1,
      "price": "905000000000000000000",
      "reserved": "0x7a9fe22691c811ea339d9b73150e6911a5343dca",
      "assetIds": []
    },
    {
      "x": 97,
      "y": 179,
      "size": 1,
      "price": "905000000000000000000",
      "reserved": "0x7a9fe22691c811ea339d9b73150e6911a5343dca",
      "assetIds": []
    },
    {
      "x": 99,
      "y": 181,
      "size": 1,
      "price": "905000000000000000000",
      "reserved": "0x7a9fe22691c811ea339d9b73150e6911a5343dca",
      "assetIds": []
    },
    {
      "x": 99,
      "y": 178,
      "size": 1,
      "price": "905000000000000000000",
      "reserved": "0x7a9fe22691c811ea339d9b73150e6911a5343dca",
      "assetIds": []
    },
    {
      "x": 97,
      "y": 176,
      "size": 1,
      "price": "905000000000000000000",
      "reserved": "0x7a9fe22691c811ea339d9b73150e6911a5343dca",
      "assetIds": []
    },
    {
      "x": 99,
      "y": 175,
      "size": 1,
      "price": "905000000000000000000",
      "reserved": "0x7a9fe22691c811ea339d9b73150e6911a5343dca",
      "assetIds": []
    },
    {
      "x": 101,
      "y": 175,
      "size": 1,
      "price": "905000000000000000000",
      "reserved": "0x7a9fe22691c811ea339d9b73150e6911a5343dca",
      "assetIds": []
    },
    {
      "x": 101,
      "y": 177,
      "size": 1,
      "price": "905000000000000000000",
      "reserved": "0x7a9fe22691c811ea339d9b73150e6911a5343dca",
      "assetIds": []
    },
    {
      "x": 100,
      "y": 172,
      "size": 1,
      "price": "905000000000000000000",
      "reserved": "0x7a9fe22691c811ea339d9b73150e6911a5343dca",
      "assetIds": []
    },
    {
      "x": 97,
      "y": 170,
      "size": 1,
      "price": "905000000000000000000",
      "reserved": "0x7a9fe22691c811ea339d9b73150e6911a5343dca",
      "assetIds": []
    },
    {
      "x": 101,
      "y": 170,
      "size": 1,
      "price": "905000000000000000000",
      "reserved": "0x7a9fe22691c811ea339d9b73150e6911a5343dca",
      "assetIds": []
    },
    {
      "x": 101,
      "y": 168,
      "size": 1,
      "price": "905000000000000000000",
      "reserved": "0x7a9fe22691c811ea339d9b73150e6911a5343dca",
      "assetIds": []
    },
    {
      "x": 97,
      "y": 167,
      "size": 1,
      "price": "905000000000000000000",
      "reserved": "0x7a9fe22691c811ea339d9b73150e6911a5343dca",
      "assetIds": []
    },
    {
      "x": 99,
      "y": 165,
      "size": 1,
      "price": "905000000000000000000",
      "reserved": "0x7a9fe22691c811ea339d9b73150e6911a5343dca",
      "assetIds": []
    },
    {
      "x": 101,
      "y": 165,
      "size": 1,
      "price": "905000000000000000000",
      "reserved": "0x7a9fe22691c811ea339d9b73150e6911a5343dca",
      "assetIds": []
    },
    {
      "x": 140,
      "y": 32,
      "size": 1,
      "price": "905000000000000000000",
      "reserved": "0x7a9fe22691c811ea339d9b73150e6911a5343dca",
      "assetIds": []
    },
    {
      "x": 138,
      "y": 29,
      "size": 1,
      "price": "905000000000000000000",
      "reserved": "0x7a9fe22691c811ea339d9b73150e6911a5343dca",
      "assetIds": []
    },
    {
      "x": 140,
      "y": 27,
      "size": 1,
      "price": "905000000000000000000",
      "reserved": "0x7a9fe22691c811ea339d9b73150e6911a5343dca",
      "assetIds": []
    },
    {
      "x": 144,
      "y": 28,
      "size": 1,
      "price": "905000000000000000000",
      "reserved": "0x7a9fe22691c811ea339d9b73150e6911a5343dca",
      "assetIds": []
    },
    {
      "x": 143,
      "y": 29,
      "size": 1,
      "price": "905000000000000000000",
      "reserved": "0x7a9fe22691c811ea339d9b73150e6911a5343dca",
      "assetIds": []
    },
    {
      "x": 146,
      "y": 29,
      "size": 1,
      "price": "905000000000000000000",
      "reserved": "0x7a9fe22691c811ea339d9b73150e6911a5343dca",
      "assetIds": []
    },
    {
      "x": 145,
      "y": 26,
      "size": 1,
      "price": "905000000000000000000",
      "reserved": "0x7a9fe22691c811ea339d9b73150e6911a5343dca",
      "assetIds": []
    },
    {
      "x": 149,
      "y": 25,
      "size": 1,
      "price": "905000000000000000000",
      "reserved": "0x7a9fe22691c811ea339d9b73150e6911a5343dca",
      "assetIds": []
    },
    {
      "x": 148,
      "y": 28,
      "size": 1,
      "price": "905000000000000000000",
      "reserved": "0x7a9fe22691c811ea339d9b73150e6911a5343dca",
      "assetIds": []
    },
    {
      "x": 150,
      "y": 28,
      "size": 1,
      "price": "905000000000000000000",
      "reserved": "0x7a9fe22691c811ea339d9b73150e6911a5343dca",
      "assetIds": []
    },
    {
      "x": 149,
      "y": 30,
      "size": 1,
      "price": "905000000000000000000",
      "reserved": "0x7a9fe22691c811ea339d9b73150e6911a5343dca",
      "assetIds": []
    },
    {
      "x": 152,
      "y": 31,
      "size": 1,
      "price": "905000000000000000000",
      "reserved": "0x7a9fe22691c811ea339d9b73150e6911a5343dca",
      "assetIds": []
    },
    {
      "x": 151,
      "y": 33,
      "size": 1,
      "price": "905000000000000000000",
      "reserved": "0x7a9fe22691c811ea339d9b73150e6911a5343dca",
      "assetIds": []
    },
    {
      "x": 150,
      "y": 35,
      "size": 1,
      "price": "905000000000000000000",
      "reserved": "0x7a9fe22691c811ea339d9b73150e6911a5343dca",
      "assetIds": []
    },
    {
      "x": 155,
      "y": 35,
      "size": 1,
      "price": "905000000000000000000",
      "reserved": "0x7a9fe22691c811ea339d9b73150e6911a5343dca",
      "assetIds": []
    },
    {
      "x": 154,
      "y": 33,
      "size": 1,
      "price": "905000000000000000000",
      "reserved": "0x7a9fe22691c811ea339d9b73150e6911a5343dca",
      "assetIds": []
    },
    {
      "x": 142,
      "y": 16,
      "size": 1,
      "price": "905000000000000000000",
      "reserved": "0x7a9fe22691c811ea339d9b73150e6911a5343dca",
      "assetIds": []
    },
    {
      "x": 142,
      "y": 19,
      "size": 1,
      "price": "905000000000000000000",
      "reserved": "0x7a9fe22691c811ea339d9b73150e6911a5343dca",
      "assetIds": []
    },
    {
      "x": 142,
      "y": 22,
      "size": 1,
      "price": "905000000000000000000",
      "reserved": "0x7a9fe22691c811ea339d9b73150e6911a5343dca",
      "assetIds": []
    },
    {
      "x": 142,
      "y": 25,
      "size": 1,
      "price": "905000000000000000000",
      "reserved": "0x7a9fe22691c811ea339d9b73150e6911a5343dca",
      "assetIds": []
    },
    {
      "x": 142,
      "y": 8,
      "size": 1,
      "price": "905000000000000000000",
      "reserved": "0x7a9fe22691c811ea339d9b73150e6911a5343dca",
      "assetIds": []
    },
    {
      "x": 142,
      "y": 10,
      "size": 1,
      "price": "905000000000000000000",
      "reserved": "0x7a9fe22691c811ea339d9b73150e6911a5343dca",
      "assetIds": []
    },
    {
      "x": 142,
      "y": 13,
      "size": 1,
      "price": "905000000000000000000",
      "reserved": "0x7a9fe22691c811ea339d9b73150e6911a5343dca",
      "assetIds": []
    },
    {
      "x": 145,
      "y": 10,
      "size": 1,
      "price": "905000000000000000000",
      "reserved": "0x7a9fe22691c811ea339d9b73150e6911a5343dca",
      "assetIds": []
    },
    {
      "x": 147,
      "y": 8,
      "size": 1,
      "price": "905000000000000000000",
      "reserved": "0x7a9fe22691c811ea339d9b73150e6911a5343dca",
      "assetIds": []
    },
    {
      "x": 148,
      "y": 10,
      "size": 1,
      "price": "905000000000000000000",
      "reserved": "0x7a9fe22691c811ea339d9b73150e6911a5343dca",
      "assetIds": []
    },
    {
      "x": 151,
      "y": 9,
      "size": 1,
      "price": "905000000000000000000",
      "reserved": "0x7a9fe22691c811ea339d9b73150e6911a5343dca",
      "assetIds": []
    },
    {
      "x": 154,
      "y": 9,
      "size": 1,
      "price": "905000000000000000000",
      "reserved": "0x7a9fe22691c811ea339d9b73150e6911a5343dca",
      "assetIds": []
    },
    {
      "x": 156,
      "y": 8,
      "size": 1,
      "price": "905000000000000000000",
      "reserved": "0x7a9fe22691c811ea339d9b73150e6911a5343dca",
      "assetIds": []
    },
    {
      "x": 157,
      "y": 11,
      "size": 1,
      "price": "905000000000000000000",
      "reserved": "0x7a9fe22691c811ea339d9b73150e6911a5343dca",
      "assetIds": []
    },
    {
      "x": 157,
      "y": 14,
      "size": 1,
      "price": "905000000000000000000",
      "reserved": "0x7a9fe22691c811ea339d9b73150e6911a5343dca",
      "assetIds": []
    },
    {
      "x": 159,
      "y": 19,
      "size": 1,
      "price": "905000000000000000000",
      "reserved": "0x7a9fe22691c811ea339d9b73150e6911a5343dca",
      "assetIds": []
    },
    {
      "x": 157,
      "y": 20,
      "size": 1,
      "price": "905000000000000000000",
      "reserved": "0x7a9fe22691c811ea339d9b73150e6911a5343dca",
      "assetIds": []
    },
    {
      "x": 159,
      "y": 22,
      "size": 1,
      "price": "905000000000000000000",
      "reserved": "0x7a9fe22691c811ea339d9b73150e6911a5343dca",
      "assetIds": []
    },
    {
      "x": 157,
      "y": 23,
      "size": 1,
      "price": "905000000000000000000",
      "reserved": "0x7a9fe22691c811ea339d9b73150e6911a5343dca",
      "assetIds": []
    },
    {
      "x": 154,
      "y": 26,
      "size": 1,
      "price": "905000000000000000000",
      "reserved": "0x7a9fe22691c811ea339d9b73150e6911a5343dca",
      "assetIds": []
    },
    {
      "x": 155,
      "y": 28,
      "size": 1,
      "price": "905000000000000000000",
      "reserved": "0x7a9fe22691c811ea339d9b73150e6911a5343dca",
      "assetIds": []
    },
    {
      "x": 156,
      "y": 29,
      "size": 1,
      "price": "905000000000000000000",
      "reserved": "0x7a9fe22691c811ea339d9b73150e6911a5343dca",
      "assetIds": []
    },
    {
      "x": 153,
      "y": 29,
      "size": 1,
      "price": "905000000000000000000",
      "reserved": "0x7a9fe22691c811ea339d9b73150e6911a5343dca",
      "assetIds": []
    },
    {
      "x": 157,
      "y": 27,
      "size": 1,
      "price": "905000000000000000000",
      "reserved": "0x7a9fe22691c811ea339d9b73150e6911a5343dca",
      "assetIds": []
    },
    {
      "x": 158,
      "y": 30,
      "size": 1,
      "price": "905000000000000000000",
      "reserved": "0x7a9fe22691c811ea339d9b73150e6911a5343dca",
      "assetIds": []
    },
    {
      "x": 75,
      "y": 3,
      "size": 1,
      "price": "905000000000000000000",
      "reserved": "0x7a9fe22691c811ea339d9b73150e6911a5343dca",
      "assetIds": []
    },
    {
      "x": 73,
      "y": 7,
      "size": 1,
      "price": "905000000000000000000",
      "reserved": "0x7a9fe22691c811ea339d9b73150e6911a5343dca",
      "assetIds": []
    },
    {
      "x": 76,
      "y": 9,
      "size": 1,
      "price": "905000000000000000000",
      "reserved": "0x7a9fe22691c811ea339d9b73150e6911a5343dca",
      "assetIds": []
    },
    {
      "x": 75,
      "y": 12,
      "size": 1,
      "price": "905000000000000000000",
      "reserved": "0x7a9fe22691c811ea339d9b73150e6911a5343dca",
      "assetIds": []
    },
    {
      "x": 73,
      "y": 16,
      "size": 1,
      "price": "905000000000000000000",
      "reserved": "0x7a9fe22691c811ea339d9b73150e6911a5343dca",
      "assetIds": []
    },
    {
      "x": 76,
      "y": 19,
      "size": 1,
      "price": "905000000000000000000",
      "reserved": "0x7a9fe22691c811ea339d9b73150e6911a5343dca",
      "assetIds": []
    },
    {
      "x": 75,
      "y": 24,
      "size": 1,
      "price": "905000000000000000000",
      "reserved": "0x7a9fe22691c811ea339d9b73150e6911a5343dca",
      "assetIds": []
    },
    {
      "x": 77,
      "y": 29,
      "size": 1,
      "price": "905000000000000000000",
      "reserved": "0x7a9fe22691c811ea339d9b73150e6911a5343dca",
      "assetIds": []
    },
    {
      "x": 77,
      "y": 34,
      "size": 1,
      "price": "905000000000000000000",
      "reserved": "0x7a9fe22691c811ea339d9b73150e6911a5343dca",
      "assetIds": []
    },
    {
      "x": 74,
      "y": 41,
      "size": 1,
      "price": "905000000000000000000",
      "reserved": "0x7a9fe22691c811ea339d9b73150e6911a5343dca",
      "assetIds": []
    },
    {
      "x": 71,
      "y": 46,
      "size": 1,
      "price": "905000000000000000000",
      "reserved": "0x7a9fe22691c811ea339d9b73150e6911a5343dca",
      "assetIds": []
    },
    {
      "x": 64,
      "y": 49,
      "size": 1,
      "price": "905000000000000000000",
      "reserved": "0x7a9fe22691c811ea339d9b73150e6911a5343dca",
      "assetIds": []
    },
    {
      "x": 61,
      "y": 54,
      "size": 1,
      "price": "905000000000000000000",
      "reserved": "0x7a9fe22691c811ea339d9b73150e6911a5343dca",
      "assetIds": []
    },
    {
      "x": 62,
      "y": 56,
      "size": 1,
      "price": "905000000000000000000",
      "reserved": "0x7a9fe22691c811ea339d9b73150e6911a5343dca",
      "assetIds": []
    },
    {
      "x": 65,
      "y": 58,
      "size": 1,
      "price": "905000000000000000000",
      "reserved": "0x7a9fe22691c811ea339d9b73150e6911a5343dca",
      "assetIds": []
    },
    {
      "x": 71,
      "y": 53,
      "size": 1,
      "price": "905000000000000000000",
      "reserved": "0x7a9fe22691c811ea339d9b73150e6911a5343dca",
      "assetIds": []
    },
    {
      "x": 63,
      "y": 26,
      "size": 1,
      "price": "905000000000000000000",
      "reserved": "0x7a9fe22691c811ea339d9b73150e6911a5343dca",
      "assetIds": []
    },
    {
      "x": 46,
      "y": 2,
      "size": 1,
      "price": "905000000000000000000",
      "reserved": "0x7a9fe22691c811ea339d9b73150e6911a5343dca",
      "assetIds": []
    },
    {
      "x": 45,
      "y": 7,
      "size": 1,
      "price": "905000000000000000000",
      "reserved": "0x7a9fe22691c811ea339d9b73150e6911a5343dca",
      "assetIds": []
    },
    {
      "x": 45,
      "y": 10,
      "size": 1,
      "price": "905000000000000000000",
      "reserved": "0x7a9fe22691c811ea339d9b73150e6911a5343dca",
      "assetIds": []
    },
    {
      "x": 41,
      "y": 10,
      "size": 1,
      "price": "905000000000000000000",
      "reserved": "0x7a9fe22691c811ea339d9b73150e6911a5343dca",
      "assetIds": []
    },
    {
      "x": 34,
      "y": 10,
      "size": 1,
      "price": "905000000000000000000",
      "reserved": "0x7a9fe22691c811ea339d9b73150e6911a5343dca",
      "assetIds": []
    },
    {
      "x": 34,
      "y": 13,
      "size": 1,
      "price": "905000000000000000000",
      "reserved": "0x7a9fe22691c811ea339d9b73150e6911a5343dca",
      "assetIds": []
    },
    {
      "x": 30,
      "y": 11,
      "size": 1,
      "price": "905000000000000000000",
      "reserved": "0x7a9fe22691c811ea339d9b73150e6911a5343dca",
      "assetIds": []
    },
    {
      "x": 27,
      "y": 12,
      "size": 1,
      "price": "905000000000000000000",
      "reserved": "0x7a9fe22691c811ea339d9b73150e6911a5343dca",
      "assetIds": []
    },
    {
      "x": 29,
      "y": 15,
      "size": 1,
      "price": "905000000000000000000",
      "reserved": "0x7a9fe22691c811ea339d9b73150e6911a5343dca",
      "assetIds": []
    },
    {
      "x": 32,
      "y": 17,
      "size": 1,
      "price": "905000000000000000000",
      "reserved": "0x7a9fe22691c811ea339d9b73150e6911a5343dca",
      "assetIds": []
    },
    {
      "x": 32,
      "y": 22,
      "size": 1,
      "price": "905000000000000000000",
      "reserved": "0x7a9fe22691c811ea339d9b73150e6911a5343dca",
      "assetIds": []
    },
    {
      "x": 28,
      "y": 18,
      "size": 1,
      "price": "905000000000000000000",
      "reserved": "0x7a9fe22691c811ea339d9b73150e6911a5343dca",
      "assetIds": []
    },
    {
      "x": 24,
      "y": 18,
      "size": 1,
      "price": "905000000000000000000",
      "reserved": "0x7a9fe22691c811ea339d9b73150e6911a5343dca",
      "assetIds": []
    },
    {
      "x": 26,
      "y": 21,
      "size": 1,
      "price": "905000000000000000000",
      "reserved": "0x7a9fe22691c811ea339d9b73150e6911a5343dca",
      "assetIds": []
    },
    {
      "x": 22,
      "y": 20,
      "size": 1,
      "price": "905000000000000000000",
      "reserved": "0x7a9fe22691c811ea339d9b73150e6911a5343dca",
      "assetIds": []
    },
    {
      "x": 69,
      "y": 25,
      "size": 1,
      "price": "905000000000000000000",
      "reserved": "0x7a9fe22691c811ea339d9b73150e6911a5343dca",
      "assetIds": []
    },
    {
      "x": 68,
      "y": 31,
      "size": 1,
      "price": "905000000000000000000",
      "reserved": "0x7a9fe22691c811ea339d9b73150e6911a5343dca",
      "assetIds": []
    },
    {
      "x": 62,
      "y": 34,
      "size": 1,
      "price": "905000000000000000000",
      "reserved": "0x7a9fe22691c811ea339d9b73150e6911a5343dca",
      "assetIds": []
    },
    {
      "x": 67,
      "y": 38,
      "size": 1,
      "price": "905000000000000000000",
      "reserved": "0x7a9fe22691c811ea339d9b73150e6911a5343dca",
      "assetIds": []
    },
    {
      "x": 55,
      "y": 37,
      "size": 1,
      "price": "905000000000000000000",
      "reserved": "0x7a9fe22691c811ea339d9b73150e6911a5343dca",
      "assetIds": []
    },
    {
      "x": 54,
      "y": 33,
      "size": 1,
      "price": "905000000000000000000",
      "reserved": "0x7a9fe22691c811ea339d9b73150e6911a5343dca",
      "assetIds": []
    },
    {
      "x": 58,
      "y": 29,
      "size": 1,
      "price": "905000000000000000000",
      "reserved": "0x7a9fe22691c811ea339d9b73150e6911a5343dca",
      "assetIds": []
    },
    {
      "x": 51,
      "y": 26,
      "size": 1,
      "price": "905000000000000000000",
      "reserved": "0x7a9fe22691c811ea339d9b73150e6911a5343dca",
      "assetIds": []
    },
    {
      "x": 59,
      "y": 40,
      "size": 1,
      "price": "905000000000000000000",
      "reserved": "0x7a9fe22691c811ea339d9b73150e6911a5343dca",
      "assetIds": []
    },
    {
      "x": 62,
      "y": 46,
      "size": 1,
      "price": "905000000000000000000",
      "reserved": "0x7a9fe22691c811ea339d9b73150e6911a5343dca",
      "assetIds": []
    },
    {
      "x": 53,
      "y": 45,
      "size": 1,
      "price": "905000000000000000000",
      "reserved": "0x7a9fe22691c811ea339d9b73150e6911a5343dca",
      "assetIds": []
    },
    {
      "x": 47,
      "y": 49,
      "size": 1,
      "price": "905000000000000000000",
      "reserved": "0x7a9fe22691c811ea339d9b73150e6911a5343dca",
      "assetIds": []
    },
    {
      "x": 50,
      "y": 52,
      "size": 1,
      "price": "905000000000000000000",
      "reserved": "0x7a9fe22691c811ea339d9b73150e6911a5343dca",
      "assetIds": []
    },
    {
      "x": 49,
      "y": 55,
      "size": 1,
      "price": "905000000000000000000",
      "reserved": "0x7a9fe22691c811ea339d9b73150e6911a5343dca",
      "assetIds": []
    },
    {
      "x": 53,
      "y": 56,
      "size": 1,
      "price": "905000000000000000000",
      "reserved": "0x7a9fe22691c811ea339d9b73150e6911a5343dca",
      "assetIds": []
    },
    {
      "x": 49,
      "y": 59,
      "size": 1,
      "price": "905000000000000000000",
      "reserved": "0x7a9fe22691c811ea339d9b73150e6911a5343dca",
      "assetIds": []
    },
    {
      "x": 42,
      "y": 59,
      "size": 1,
      "price": "905000000000000000000",
      "reserved": "0x7a9fe22691c811ea339d9b73150e6911a5343dca",
      "assetIds": []
    },
    {
      "x": 41,
      "y": 55,
      "size": 1,
      "price": "905000000000000000000",
      "reserved": "0x7a9fe22691c811ea339d9b73150e6911a5343dca",
      "assetIds": []
    },
    {
      "x": 43,
      "y": 51,
      "size": 1,
      "price": "905000000000000000000",
      "reserved": "0x7a9fe22691c811ea339d9b73150e6911a5343dca",
      "assetIds": []
    },
    {
      "x": 37,
      "y": 49,
      "size": 1,
      "price": "905000000000000000000",
      "reserved": "0x7a9fe22691c811ea339d9b73150e6911a5343dca",
      "assetIds": []
    },
    {
      "x": 36,
      "y": 55,
      "size": 1,
      "price": "905000000000000000000",
      "reserved": "0x7a9fe22691c811ea339d9b73150e6911a5343dca",
      "assetIds": []
    },
    {
      "x": 35,
      "y": 59,
      "size": 1,
      "price": "905000000000000000000",
      "reserved": "0x7a9fe22691c811ea339d9b73150e6911a5343dca",
      "assetIds": []
    },
    {
      "x": 31,
      "y": 61,
      "size": 1,
      "price": "905000000000000000000",
      "reserved": "0x7a9fe22691c811ea339d9b73150e6911a5343dca",
      "assetIds": []
    },
    {
      "x": 27,
      "y": 62,
      "size": 1,
      "price": "905000000000000000000",
      "reserved": "0x7a9fe22691c811ea339d9b73150e6911a5343dca",
      "assetIds": []
    },
    {
      "x": 21,
      "y": 56,
      "size": 1,
      "price": "905000000000000000000",
      "reserved": "0x7a9fe22691c811ea339d9b73150e6911a5343dca",
      "assetIds": []
    },
    {
      "x": 27,
      "y": 54,
      "size": 1,
      "price": "905000000000000000000",
      "reserved": "0x7a9fe22691c811ea339d9b73150e6911a5343dca",
      "assetIds": []
    },
    {
      "x": 22,
      "y": 51,
      "size": 1,
      "price": "905000000000000000000",
      "reserved": "0x7a9fe22691c811ea339d9b73150e6911a5343dca",
      "assetIds": []
    },
    {
      "x": 22,
      "y": 26,
      "size": 1,
      "price": "905000000000000000000",
      "reserved": "0x7a9fe22691c811ea339d9b73150e6911a5343dca",
      "assetIds": []
    },
    {
      "x": 18,
      "y": 25,
      "size": 1,
      "price": "905000000000000000000",
      "reserved": "0x7a9fe22691c811ea339d9b73150e6911a5343dca",
      "assetIds": []
    },
    {
      "x": 16,
      "y": 27,
      "size": 1,
      "price": "905000000000000000000",
      "reserved": "0x7a9fe22691c811ea339d9b73150e6911a5343dca",
      "assetIds": []
    },
    {
      "x": 22,
      "y": 30,
      "size": 1,
      "price": "905000000000000000000",
      "reserved": "0x7a9fe22691c811ea339d9b73150e6911a5343dca",
      "assetIds": []
    },
    {
      "x": 16,
      "y": 31,
      "size": 1,
      "price": "905000000000000000000",
      "reserved": "0x7a9fe22691c811ea339d9b73150e6911a5343dca",
      "assetIds": []
    },
    {
      "x": 19,
      "y": 36,
      "size": 1,
      "price": "905000000000000000000",
      "reserved": "0x7a9fe22691c811ea339d9b73150e6911a5343dca",
      "assetIds": []
    },
    {
      "x": 20,
      "y": 40,
      "size": 1,
      "price": "905000000000000000000",
      "reserved": "0x7a9fe22691c811ea339d9b73150e6911a5343dca",
      "assetIds": []
    },
    {
      "x": 22,
      "y": 44,
      "size": 1,
      "price": "905000000000000000000",
      "reserved": "0x7a9fe22691c811ea339d9b73150e6911a5343dca",
      "assetIds": []
    },
    {
      "x": 16,
      "y": 44,
      "size": 1,
      "price": "905000000000000000000",
      "reserved": "0x7a9fe22691c811ea339d9b73150e6911a5343dca",
      "assetIds": []
    },
    {
      "x": 18,
      "y": 47,
      "size": 1,
      "price": "905000000000000000000",
      "reserved": "0x7a9fe22691c811ea339d9b73150e6911a5343dca",
      "assetIds": []
    },
    {
      "x": 24,
      "y": 65,
      "size": 1,
      "price": "2106000000000000000000",
      "reserved": "",
      "assetIds": [
        "55464657044963196816950587289035428064568320970692304673817341489687455367174",
        "55464657044963196816950587289035428064568320970692304673817341489687455367170",
        "55464657044963196816950587289035428064568320970692304673817341489687455367169",
        "55464657044963196816950587289035428064568320970692304673817341489687455367168",
        "55464657044963196816950587289035428064568320970692304673817341489687463725056"
      ]
    },
    {
      "x": 25,
      "y": 65,
      "size": 1,
      "price": "2106000000000000000000",
      "reserved": "",
      "assetIds": [
        "55464657044963196816950587289035428064568320970692304673817341489687455367175",
        "55464657044963196816950587289035428064568320970692304673817341489687455367170",
        "55464657044963196816950587289035428064568320970692304673817341489687455367169",
        "55464657044963196816950587289035428064568320970692304673817341489687455367168",
        "55464657044963196816950587289035428064568320970692304673817341489687463725056"
      ]
    },
    {
      "x": 26,
      "y": 65,
      "size": 1,
      "price": "2106000000000000000000",
      "reserved": "",
      "assetIds": [
        "55464657044963196816950587289035428064568320970692304673817341489687455367177",
        "55464657044963196816950587289035428064568320970692304673817341489687455367170",
        "55464657044963196816950587289035428064568320970692304673817341489687455367169",
        "55464657044963196816950587289035428064568320970692304673817341489687455367168",
        "55464657044963196816950587289035428064568320970692304673817341489687463725056"
      ]
    },
    {
      "x": 26,
      "y": 64,
      "size": 1,
      "price": "2106000000000000000000",
      "reserved": "",
      "assetIds": [
        "55464657044963196816950587289035428064568320970692304673817341489687455367176",
        "55464657044963196816950587289035428064568320970692304673817341489687455367170",
        "55464657044963196816950587289035428064568320970692304673817341489687455367169",
        "55464657044963196816950587289035428064568320970692304673817341489687455367168",
        "55464657044963196816950587289035428064568320970692304673817341489687463725056"
      ]
    },
    {
      "x": 27,
      "y": 64,
      "size": 1,
      "price": "2106000000000000000000",
      "reserved": "",
      "assetIds": [
        "55464657044963196816950587289035428064568320970692304673817341489687455367176",
        "55464657044963196816950587289035428064568320970692304673817341489687455367170",
        "55464657044963196816950587289035428064568320970692304673817341489687455367169",
        "55464657044963196816950587289035428064568320970692304673817341489687455367168",
        "55464657044963196816950587289035428064568320970692304673817341489687463725056"
      ]
    },
    {
      "x": 28,
      "y": 64,
      "size": 1,
      "price": "2106000000000000000000",
      "reserved": "",
      "assetIds": [
        "55464657044963196816950587289035428064568320970692304673817341489687455367177",
        "55464657044963196816950587289035428064568320970692304673817341489687455367170",
        "55464657044963196816950587289035428064568320970692304673817341489687455367169",
        "55464657044963196816950587289035428064568320970692304673817341489687455367168",
        "55464657044963196816950587289035428064568320970692304673817341489687463725056"
      ]
    },
    {
      "x": 29,
      "y": 64,
      "size": 1,
      "price": "2106000000000000000000",
      "reserved": "",
      "assetIds": [
        "55464657044963196816950587289035428064568320970692304673817341489687455367181",
        "55464657044963196816950587289035428064568320970692304673817341489687455367171",
        "55464657044963196816950587289035428064568320970692304673817341489687455367169",
        "55464657044963196816950587289035428064568320970692304673817341489687455367168",
        "55464657044963196816950587289035428064568320970692304673817341489687463725056"
      ]
    },
    {
      "x": 30,
      "y": 64,
      "size": 1,
      "price": "2106000000000000000000",
      "reserved": "",
      "assetIds": [
        "55464657044963196816950587289035428064568320970692304673817341489687455367179",
        "55464657044963196816950587289035428064568320970692304673817341489687455367171",
        "55464657044963196816950587289035428064568320970692304673817341489687455367169",
        "55464657044963196816950587289035428064568320970692304673817341489687455367168",
        "55464657044963196816950587289035428064568320970692304673817341489687463725056"
      ]
    },
    {
      "x": 31,
      "y": 64,
      "size": 1,
      "price": "2106000000000000000000",
      "reserved": "",
      "assetIds": [
        "55464657044963196816950587289035428064568320970692304673817341489687455367174",
        "55464657044963196816950587289035428064568320970692304673817341489687455367170",
        "55464657044963196816950587289035428064568320970692304673817341489687455367169",
        "55464657044963196816950587289035428064568320970692304673817341489687455367168",
        "55464657044963196816950587289035428064568320970692304673817341489687463725056"
      ]
    },
    {
      "x": 32,
      "y": 64,
      "size": 1,
      "price": "2106000000000000000000",
      "reserved": "",
      "assetIds": [
        "55464657044963196816950587289035428064568320970692304673817341489687455367172",
        "55464657044963196816950587289035428064568320970692304673817341489687455367170",
        "55464657044963196816950587289035428064568320970692304673817341489687455367169",
        "55464657044963196816950587289035428064568320970692304673817341489687455367168",
        "55464657044963196816950587289035428064568320970692304673817341489687463725056"
      ]
    },
    {
      "x": 33,
      "y": 64,
      "size": 1,
      "price": "2106000000000000000000",
      "reserved": "",
      "assetIds": [
        "55464657044963196816950587289035428064568320970692304673817341489687455367178",
        "55464657044963196816950587289035428064568320970692304673817341489687455367171",
        "55464657044963196816950587289035428064568320970692304673817341489687455367169",
        "55464657044963196816950587289035428064568320970692304673817341489687455367168",
        "55464657044963196816950587289035428064568320970692304673817341489687463725056"
      ]
    },
    {
      "x": 34,
      "y": 65,
      "size": 1,
      "price": "2106000000000000000000",
      "reserved": "",
      "assetIds": [
        "55464657044963196816950587289035428064568320970692304673817341489687455367179",
        "55464657044963196816950587289035428064568320970692304673817341489687455367171",
        "55464657044963196816950587289035428064568320970692304673817341489687455367169",
        "55464657044963196816950587289035428064568320970692304673817341489687455367168",
        "55464657044963196816950587289035428064568320970692304673817341489687463725056"
      ]
    },
    {
      "x": 35,
      "y": 65,
      "size": 1,
      "price": "2106000000000000000000",
      "reserved": "",
      "assetIds": [
        "55464657044963196816950587289035428064568320970692304673817341489687455367176",
        "55464657044963196816950587289035428064568320970692304673817341489687455367170",
        "55464657044963196816950587289035428064568320970692304673817341489687455367169",
        "55464657044963196816950587289035428064568320970692304673817341489687455367168",
        "55464657044963196816950587289035428064568320970692304673817341489687463725056"
      ]
    },
    {
      "x": 36,
      "y": 65,
      "size": 1,
      "price": "2106000000000000000000",
      "reserved": "",
      "assetIds": [
        "55464657044963196816950587289035428064568320970692304673817341489687455367177",
        "55464657044963196816950587289035428064568320970692304673817341489687455367170",
        "55464657044963196816950587289035428064568320970692304673817341489687455367169",
        "55464657044963196816950587289035428064568320970692304673817341489687455367168",
        "55464657044963196816950587289035428064568320970692304673817341489687463725056"
      ]
    },
    {
      "x": 36,
      "y": 64,
      "size": 1,
      "price": "2106000000000000000000",
      "reserved": "",
      "assetIds": [
        "55464657044963196816950587289035428064568320970692304673817341489687455367182",
        "55464657044963196816950587289035428064568320970692304673817341489687455367171",
        "55464657044963196816950587289035428064568320970692304673817341489687455367169",
        "55464657044963196816950587289035428064568320970692304673817341489687455367168",
        "55464657044963196816950587289035428064568320970692304673817341489687463725056"
      ]
    },
    {
      "x": 37,
      "y": 64,
      "size": 1,
      "price": "2106000000000000000000",
      "reserved": "",
      "assetIds": [
        "55464657044963196816950587289035428064568320970692304673817341489687455367183",
        "55464657044963196816950587289035428064568320970692304673817341489687455367171",
        "55464657044963196816950587289035428064568320970692304673817341489687455367169",
        "55464657044963196816950587289035428064568320970692304673817341489687455367168",
        "55464657044963196816950587289035428064568320970692304673817341489687463725056"
      ]
    },
    {
      "x": 38,
      "y": 64,
      "size": 1,
      "price": "2106000000000000000000",
      "reserved": "",
      "assetIds": [
        "55464657044963196816950587289035428064568320970692304673817341489687455367179",
        "55464657044963196816950587289035428064568320970692304673817341489687455367171",
        "55464657044963196816950587289035428064568320970692304673817341489687455367169",
        "55464657044963196816950587289035428064568320970692304673817341489687455367168",
        "55464657044963196816950587289035428064568320970692304673817341489687463725056"
      ]
    },
    {
      "x": 39,
      "y": 64,
      "size": 1,
      "price": "2106000000000000000000",
      "reserved": "",
      "assetIds": [
        "55464657044963196816950587289035428064568320970692304673817341489687455367178",
        "55464657044963196816950587289035428064568320970692304673817341489687455367171",
        "55464657044963196816950587289035428064568320970692304673817341489687455367169",
        "55464657044963196816950587289035428064568320970692304673817341489687455367168",
        "55464657044963196816950587289035428064568320970692304673817341489687463725056"
      ]
    },
    {
      "x": 40,
      "y": 64,
      "size": 1,
      "price": "2106000000000000000000",
      "reserved": "",
      "assetIds": [
        "55464657044963196816950587289035428064568320970692304673817341489687455367182",
        "55464657044963196816950587289035428064568320970692304673817341489687455367171",
        "55464657044963196816950587289035428064568320970692304673817341489687455367169",
        "55464657044963196816950587289035428064568320970692304673817341489687455367168",
        "55464657044963196816950587289035428064568320970692304673817341489687463725056"
      ]
    },
    {
      "x": 41,
      "y": 64,
      "size": 1,
      "price": "2106000000000000000000",
      "reserved": "",
      "assetIds": [
        "55464657044963196816950587289035428064568320970692304673817341489687455367183",
        "55464657044963196816950587289035428064568320970692304673817341489687455367171",
        "55464657044963196816950587289035428064568320970692304673817341489687455367169",
        "55464657044963196816950587289035428064568320970692304673817341489687455367168",
        "55464657044963196816950587289035428064568320970692304673817341489687463725056"
      ]
    },
    {
      "x": 41,
      "y": 65,
      "size": 1,
      "price": "2106000000000000000000",
      "reserved": "",
      "assetIds": [
        "55464657044963196816950587289035428064568320970692304673817341489687455367172",
        "55464657044963196816950587289035428064568320970692304673817341489687455367170",
        "55464657044963196816950587289035428064568320970692304673817341489687455367169",
        "55464657044963196816950587289035428064568320970692304673817341489687455367168",
        "55464657044963196816950587289035428064568320970692304673817341489687463725056"
      ]
    },
    {
      "x": 40,
      "y": 65,
      "size": 1,
      "price": "2106000000000000000000",
      "reserved": "",
      "assetIds": [
        "55464657044963196816950587289035428064568320970692304673817341489687455367177",
        "55464657044963196816950587289035428064568320970692304673817341489687455367170",
        "55464657044963196816950587289035428064568320970692304673817341489687455367169",
        "55464657044963196816950587289035428064568320970692304673817341489687455367168",
        "55464657044963196816950587289035428064568320970692304673817341489687463725056"
      ]
    },
    {
      "x": 39,
      "y": 65,
      "size": 1,
      "price": "2106000000000000000000",
      "reserved": "",
      "assetIds": [
        "55464657044963196816950587289035428064568320970692304673817341489687455367175",
        "55464657044963196816950587289035428064568320970692304673817341489687455367170",
        "55464657044963196816950587289035428064568320970692304673817341489687455367169",
        "55464657044963196816950587289035428064568320970692304673817341489687455367168",
        "55464657044963196816950587289035428064568320970692304673817341489687463725056"
      ]
    },
    {
      "x": 38,
      "y": 65,
      "size": 1,
      "price": "2106000000000000000000",
      "reserved": "",
      "assetIds": [
        "55464657044963196816950587289035428064568320970692304673817341489687455367172",
        "55464657044963196816950587289035428064568320970692304673817341489687455367170",
        "55464657044963196816950587289035428064568320970692304673817341489687455367169",
        "55464657044963196816950587289035428064568320970692304673817341489687455367168",
        "55464657044963196816950587289035428064568320970692304673817341489687463725056"
      ]
    },
    {
      "x": 37,
      "y": 65,
      "size": 1,
      "price": "2106000000000000000000",
      "reserved": "",
      "assetIds": [
        "55464657044963196816950587289035428064568320970692304673817341489687455367172",
        "55464657044963196816950587289035428064568320970692304673817341489687455367170",
        "55464657044963196816950587289035428064568320970692304673817341489687455367169",
        "55464657044963196816950587289035428064568320970692304673817341489687455367168",
        "55464657044963196816950587289035428064568320970692304673817341489687463725056"
      ]
    },
    {
      "x": 33,
      "y": 65,
      "size": 1,
      "price": "2106000000000000000000",
      "reserved": "",
      "assetIds": [
        "55464657044963196816950587289035428064568320970692304673817341489687455367172",
        "55464657044963196816950587289035428064568320970692304673817341489687455367170",
        "55464657044963196816950587289035428064568320970692304673817341489687455367169",
        "55464657044963196816950587289035428064568320970692304673817341489687455367168",
        "55464657044963196816950587289035428064568320970692304673817341489687463725056"
      ]
    },
    {
      "x": 32,
      "y": 65,
      "size": 1,
      "price": "2106000000000000000000",
      "reserved": "",
      "assetIds": [
        "55464657044963196816950587289035428064568320970692304673817341489687455367175",
        "55464657044963196816950587289035428064568320970692304673817341489687455367170",
        "55464657044963196816950587289035428064568320970692304673817341489687455367169",
        "55464657044963196816950587289035428064568320970692304673817341489687455367168",
        "55464657044963196816950587289035428064568320970692304673817341489687463725056"
      ]
    },
    {
      "x": 31,
      "y": 65,
      "size": 1,
      "price": "2106000000000000000000",
      "reserved": "",
      "assetIds": [
        "55464657044963196816950587289035428064568320970692304673817341489687455367172",
        "55464657044963196816950587289035428064568320970692304673817341489687455367170",
        "55464657044963196816950587289035428064568320970692304673817341489687455367169",
        "55464657044963196816950587289035428064568320970692304673817341489687455367168",
        "55464657044963196816950587289035428064568320970692304673817341489687463725056"
      ]
    },
    {
      "x": 30,
      "y": 65,
      "size": 1,
      "price": "2106000000000000000000",
      "reserved": "",
      "assetIds": [
        "55464657044963196816950587289035428064568320970692304673817341489687455367177",
        "55464657044963196816950587289035428064568320970692304673817341489687455367170",
        "55464657044963196816950587289035428064568320970692304673817341489687455367169",
        "55464657044963196816950587289035428064568320970692304673817341489687455367168",
        "55464657044963196816950587289035428064568320970692304673817341489687463725056"
      ]
    },
    {
      "x": 29,
      "y": 65,
      "size": 1,
      "price": "2106000000000000000000",
      "reserved": "",
      "assetIds": [
        "55464657044963196816950587289035428064568320970692304673817341489687455367175",
        "55464657044963196816950587289035428064568320970692304673817341489687455367170",
        "55464657044963196816950587289035428064568320970692304673817341489687455367169",
        "55464657044963196816950587289035428064568320970692304673817341489687455367168",
        "55464657044963196816950587289035428064568320970692304673817341489687463725056"
      ]
    },
    {
      "x": 28,
      "y": 65,
      "size": 1,
      "price": "2106000000000000000000",
      "reserved": "",
      "assetIds": [
        "55464657044963196816950587289035428064568320970692304673817341489687455367180",
        "55464657044963196816950587289035428064568320970692304673817341489687455367171",
        "55464657044963196816950587289035428064568320970692304673817341489687455367169",
        "55464657044963196816950587289035428064568320970692304673817341489687455367168",
        "55464657044963196816950587289035428064568320970692304673817341489687463725056"
      ]
    },
    {
      "x": 27,
      "y": 65,
      "size": 1,
      "price": "2106000000000000000000",
      "reserved": "",
      "assetIds": [
        "55464657044963196816950587289035428064568320970692304673817341489687455367180",
        "55464657044963196816950587289035428064568320970692304673817341489687455367171",
        "55464657044963196816950587289035428064568320970692304673817341489687455367169",
        "55464657044963196816950587289035428064568320970692304673817341489687455367168",
        "55464657044963196816950587289035428064568320970692304673817341489687463725056"
      ]
    },
    {
      "x": 24,
      "y": 64,
      "size": 1,
      "price": "2106000000000000000000",
      "reserved": "",
      "assetIds": [
        "55464657044963196816950587289035428064568320970692304673817341489687455367179",
        "55464657044963196816950587289035428064568320970692304673817341489687455367171",
        "55464657044963196816950587289035428064568320970692304673817341489687455367169",
        "55464657044963196816950587289035428064568320970692304673817341489687455367168",
        "55464657044963196816950587289035428064568320970692304673817341489687463725056"
      ]
    },
    {
      "x": 24,
      "y": 63,
      "size": 1,
      "price": "2106000000000000000000",
      "reserved": "",
      "assetIds": [
        "55464657044963196816950587289035428064568320970692304673817341489687455367182",
        "55464657044963196816950587289035428064568320970692304673817341489687455367171",
        "55464657044963196816950587289035428064568320970692304673817341489687455367169",
        "55464657044963196816950587289035428064568320970692304673817341489687455367168",
        "55464657044963196816950587289035428064568320970692304673817341489687463725056"
      ]
    },
    {
      "x": 24,
      "y": 62,
      "size": 1,
      "price": "2106000000000000000000",
      "reserved": "",
      "assetIds": [
        "55464657044963196816950587289035428064568320970692304673817341489687455367178",
        "55464657044963196816950587289035428064568320970692304673817341489687455367171",
        "55464657044963196816950587289035428064568320970692304673817341489687455367169",
        "55464657044963196816950587289035428064568320970692304673817341489687455367168",
        "55464657044963196816950587289035428064568320970692304673817341489687463725056"
      ]
    },
    {
      "x": 24,
      "y": 61,
      "size": 1,
      "price": "2106000000000000000000",
      "reserved": "",
      "assetIds": [
        "55464657044963196816950587289035428064568320970692304673817341489687455367176",
        "55464657044963196816950587289035428064568320970692304673817341489687455367170",
        "55464657044963196816950587289035428064568320970692304673817341489687455367169",
        "55464657044963196816950587289035428064568320970692304673817341489687455367168",
        "55464657044963196816950587289035428064568320970692304673817341489687463725056"
      ]
    },
    {
      "x": 24,
      "y": 60,
      "size": 1,
      "price": "2106000000000000000000",
      "reserved": "",
      "assetIds": [
        "55464657044963196816950587289035428064568320970692304673817341489687455367182",
        "55464657044963196816950587289035428064568320970692304673817341489687455367171",
        "55464657044963196816950587289035428064568320970692304673817341489687455367169",
        "55464657044963196816950587289035428064568320970692304673817341489687455367168",
        "55464657044963196816950587289035428064568320970692304673817341489687463725056"
      ]
    },
    {
      "x": 24,
      "y": 59,
      "size": 1,
      "price": "2106000000000000000000",
      "reserved": "",
      "assetIds": [
        "55464657044963196816950587289035428064568320970692304673817341489687455367180",
        "55464657044963196816950587289035428064568320970692304673817341489687455367171",
        "55464657044963196816950587289035428064568320970692304673817341489687455367169",
        "55464657044963196816950587289035428064568320970692304673817341489687455367168",
        "55464657044963196816950587289035428064568320970692304673817341489687463725056"
      ]
    },
    {
      "x": 23,
      "y": 59,
      "size": 1,
      "price": "2106000000000000000000",
      "reserved": "",
      "assetIds": [
        "55464657044963196816950587289035428064568320970692304673817341489687455367172",
        "55464657044963196816950587289035428064568320970692304673817341489687455367170",
        "55464657044963196816950587289035428064568320970692304673817341489687455367169",
        "55464657044963196816950587289035428064568320970692304673817341489687455367168",
        "55464657044963196816950587289035428064568320970692304673817341489687463725056"
      ]
    },
    {
      "x": 22,
      "y": 59,
      "size": 1,
      "price": "2106000000000000000000",
      "reserved": "",
      "assetIds": [
        "55464657044963196816950587289035428064568320970692304673817341489687455367180",
        "55464657044963196816950587289035428064568320970692304673817341489687455367171",
        "55464657044963196816950587289035428064568320970692304673817341489687455367169",
        "55464657044963196816950587289035428064568320970692304673817341489687455367168",
        "55464657044963196816950587289035428064568320970692304673817341489687463725056"
      ]
    },
    {
      "x": 21,
      "y": 59,
      "size": 1,
      "price": "2106000000000000000000",
      "reserved": "",
      "assetIds": [
        "55464657044963196816950587289035428064568320970692304673817341489687455367181",
        "55464657044963196816950587289035428064568320970692304673817341489687455367171",
        "55464657044963196816950587289035428064568320970692304673817341489687455367169",
        "55464657044963196816950587289035428064568320970692304673817341489687455367168",
        "55464657044963196816950587289035428064568320970692304673817341489687463725056"
      ]
    },
    {
      "x": 20,
      "y": 59,
      "size": 1,
      "price": "2106000000000000000000",
      "reserved": "",
      "assetIds": [
        "55464657044963196816950587289035428064568320970692304673817341489687455367177",
        "55464657044963196816950587289035428064568320970692304673817341489687455367170",
        "55464657044963196816950587289035428064568320970692304673817341489687455367169",
        "55464657044963196816950587289035428064568320970692304673817341489687455367168",
        "55464657044963196816950587289035428064568320970692304673817341489687463725056"
      ]
    },
    {
      "x": 19,
      "y": 59,
      "size": 1,
      "price": "2106000000000000000000",
      "reserved": "",
      "assetIds": [
        "55464657044963196816950587289035428064568320970692304673817341489687455367176",
        "55464657044963196816950587289035428064568320970692304673817341489687455367170",
        "55464657044963196816950587289035428064568320970692304673817341489687455367169",
        "55464657044963196816950587289035428064568320970692304673817341489687455367168",
        "55464657044963196816950587289035428064568320970692304673817341489687463725056"
      ]
    },
    {
      "x": 18,
      "y": 59,
      "size": 1,
      "price": "2106000000000000000000",
      "reserved": "",
      "assetIds": [
        "55464657044963196816950587289035428064568320970692304673817341489687455367174",
        "55464657044963196816950587289035428064568320970692304673817341489687455367170",
        "55464657044963196816950587289035428064568320970692304673817341489687455367169",
        "55464657044963196816950587289035428064568320970692304673817341489687455367168",
        "55464657044963196816950587289035428064568320970692304673817341489687463725056"
      ]
    },
    {
      "x": 17,
      "y": 59,
      "size": 1,
      "price": "2106000000000000000000",
      "reserved": "",
      "assetIds": [
        "55464657044963196816950587289035428064568320970692304673817341489687455367183",
        "55464657044963196816950587289035428064568320970692304673817341489687455367171",
        "55464657044963196816950587289035428064568320970692304673817341489687455367169",
        "55464657044963196816950587289035428064568320970692304673817341489687455367168",
        "55464657044963196816950587289035428064568320970692304673817341489687463725056"
      ]
    },
    {
      "x": 17,
      "y": 58,
      "size": 1,
      "price": "2106000000000000000000",
      "reserved": "",
      "assetIds": [
        "55464657044963196816950587289035428064568320970692304673817341489687455367173",
        "55464657044963196816950587289035428064568320970692304673817341489687455367170",
        "55464657044963196816950587289035428064568320970692304673817341489687455367169",
        "55464657044963196816950587289035428064568320970692304673817341489687455367168",
        "55464657044963196816950587289035428064568320970692304673817341489687463725056"
      ]
    },
    {
      "x": 17,
      "y": 57,
      "size": 1,
      "price": "2106000000000000000000",
      "reserved": "",
      "assetIds": [
        "55464657044963196816950587289035428064568320970692304673817341489687455367174",
        "55464657044963196816950587289035428064568320970692304673817341489687455367170",
        "55464657044963196816950587289035428064568320970692304673817341489687455367169",
        "55464657044963196816950587289035428064568320970692304673817341489687455367168",
        "55464657044963196816950587289035428064568320970692304673817341489687463725056"
      ]
    },
    {
      "x": 17,
      "y": 56,
      "size": 1,
      "price": "2106000000000000000000",
      "reserved": "",
      "assetIds": [
        "55464657044963196816950587289035428064568320970692304673817341489687455367173",
        "55464657044963196816950587289035428064568320970692304673817341489687455367170",
        "55464657044963196816950587289035428064568320970692304673817341489687455367169",
        "55464657044963196816950587289035428064568320970692304673817341489687455367168",
        "55464657044963196816950587289035428064568320970692304673817341489687463725056"
      ]
    },
    {
      "x": 17,
      "y": 55,
      "size": 1,
      "price": "2106000000000000000000",
      "reserved": "",
      "assetIds": [
        "55464657044963196816950587289035428064568320970692304673817341489687455367180",
        "55464657044963196816950587289035428064568320970692304673817341489687455367171",
        "55464657044963196816950587289035428064568320970692304673817341489687455367169",
        "55464657044963196816950587289035428064568320970692304673817341489687455367168",
        "55464657044963196816950587289035428064568320970692304673817341489687463725056"
      ]
    },
    {
      "x": 17,
      "y": 54,
      "size": 1,
      "price": "2106000000000000000000",
      "reserved": "",
      "assetIds": [
        "55464657044963196816950587289035428064568320970692304673817341489687455367175",
        "55464657044963196816950587289035428064568320970692304673817341489687455367170",
        "55464657044963196816950587289035428064568320970692304673817341489687455367169",
        "55464657044963196816950587289035428064568320970692304673817341489687455367168",
        "55464657044963196816950587289035428064568320970692304673817341489687463725056"
      ]
    },
    {
      "x": 16,
      "y": 54,
      "size": 1,
      "price": "2106000000000000000000",
      "reserved": "",
      "assetIds": [
        "55464657044963196816950587289035428064568320970692304673817341489687455367172",
        "55464657044963196816950587289035428064568320970692304673817341489687455367170",
        "55464657044963196816950587289035428064568320970692304673817341489687455367169",
        "55464657044963196816950587289035428064568320970692304673817341489687455367168",
        "55464657044963196816950587289035428064568320970692304673817341489687463725056"
      ]
    },
    {
      "x": 16,
      "y": 55,
      "size": 1,
      "price": "2106000000000000000000",
      "reserved": "",
      "assetIds": [
        "55464657044963196816950587289035428064568320970692304673817341489687455367173",
        "55464657044963196816950587289035428064568320970692304673817341489687455367170",
        "55464657044963196816950587289035428064568320970692304673817341489687455367169",
        "55464657044963196816950587289035428064568320970692304673817341489687455367168",
        "55464657044963196816950587289035428064568320970692304673817341489687463725056"
      ]
    },
    {
      "x": 16,
      "y": 56,
      "size": 1,
      "price": "2106000000000000000000",
      "reserved": "",
      "assetIds": [
        "55464657044963196816950587289035428064568320970692304673817341489687455367180",
        "55464657044963196816950587289035428064568320970692304673817341489687455367171",
        "55464657044963196816950587289035428064568320970692304673817341489687455367169",
        "55464657044963196816950587289035428064568320970692304673817341489687455367168",
        "55464657044963196816950587289035428064568320970692304673817341489687463725056"
      ]
    },
    {
      "x": 15,
      "y": 53,
      "size": 1,
      "price": "2106000000000000000000",
      "reserved": "",
      "assetIds": [
        "55464657044963196816950587289035428064568320970692304673817341489687455367176",
        "55464657044963196816950587289035428064568320970692304673817341489687455367170",
        "55464657044963196816950587289035428064568320970692304673817341489687455367169",
        "55464657044963196816950587289035428064568320970692304673817341489687455367168",
        "55464657044963196816950587289035428064568320970692304673817341489687463725056"
      ]
    },
    {
      "x": 15,
      "y": 52,
      "size": 1,
      "price": "2106000000000000000000",
      "reserved": "",
      "assetIds": [
        "55464657044963196816950587289035428064568320970692304673817341489687455367174",
        "55464657044963196816950587289035428064568320970692304673817341489687455367170",
        "55464657044963196816950587289035428064568320970692304673817341489687455367169",
        "55464657044963196816950587289035428064568320970692304673817341489687455367168",
        "55464657044963196816950587289035428064568320970692304673817341489687463725056"
      ]
    },
    {
      "x": 15,
      "y": 51,
      "size": 1,
      "price": "2106000000000000000000",
      "reserved": "",
      "assetIds": [
        "55464657044963196816950587289035428064568320970692304673817341489687455367181",
        "55464657044963196816950587289035428064568320970692304673817341489687455367171",
        "55464657044963196816950587289035428064568320970692304673817341489687455367169",
        "55464657044963196816950587289035428064568320970692304673817341489687455367168",
        "55464657044963196816950587289035428064568320970692304673817341489687463725056"
      ]
    },
    {
      "x": 15,
      "y": 50,
      "size": 1,
      "price": "2106000000000000000000",
      "reserved": "",
      "assetIds": [
        "55464657044963196816950587289035428064568320970692304673817341489687455367179",
        "55464657044963196816950587289035428064568320970692304673817341489687455367171",
        "55464657044963196816950587289035428064568320970692304673817341489687455367169",
        "55464657044963196816950587289035428064568320970692304673817341489687455367168",
        "55464657044963196816950587289035428064568320970692304673817341489687463725056"
      ]
    },
    {
      "x": 15,
      "y": 49,
      "size": 1,
      "price": "2106000000000000000000",
      "reserved": "",
      "assetIds": [
        "55464657044963196816950587289035428064568320970692304673817341489687455367177",
        "55464657044963196816950587289035428064568320970692304673817341489687455367170",
        "55464657044963196816950587289035428064568320970692304673817341489687455367169",
        "55464657044963196816950587289035428064568320970692304673817341489687455367168",
        "55464657044963196816950587289035428064568320970692304673817341489687463725056"
      ]
    },
    {
      "x": 15,
      "y": 48,
      "size": 1,
      "price": "2106000000000000000000",
      "reserved": "",
      "assetIds": [
        "55464657044963196816950587289035428064568320970692304673817341489687455367182",
        "55464657044963196816950587289035428064568320970692304673817341489687455367171",
        "55464657044963196816950587289035428064568320970692304673817341489687455367169",
        "55464657044963196816950587289035428064568320970692304673817341489687455367168",
        "55464657044963196816950587289035428064568320970692304673817341489687463725056"
      ]
    },
    {
      "x": 15,
      "y": 47,
      "size": 1,
      "price": "2106000000000000000000",
      "reserved": "",
      "assetIds": [
        "55464657044963196816950587289035428064568320970692304673817341489687455367181",
        "55464657044963196816950587289035428064568320970692304673817341489687455367171",
        "55464657044963196816950587289035428064568320970692304673817341489687455367169",
        "55464657044963196816950587289035428064568320970692304673817341489687455367168",
        "55464657044963196816950587289035428064568320970692304673817341489687463725056"
      ]
    },
    {
      "x": 15,
      "y": 46,
      "size": 1,
      "price": "2106000000000000000000",
      "reserved": "",
      "assetIds": [
        "55464657044963196816950587289035428064568320970692304673817341489687455367182",
        "55464657044963196816950587289035428064568320970692304673817341489687455367171",
        "55464657044963196816950587289035428064568320970692304673817341489687455367169",
        "55464657044963196816950587289035428064568320970692304673817341489687455367168",
        "55464657044963196816950587289035428064568320970692304673817341489687463725056"
      ]
    },
    {
      "x": 15,
      "y": 45,
      "size": 1,
      "price": "2106000000000000000000",
      "reserved": "",
      "assetIds": [
        "55464657044963196816950587289035428064568320970692304673817341489687455367175",
        "55464657044963196816950587289035428064568320970692304673817341489687455367170",
        "55464657044963196816950587289035428064568320970692304673817341489687455367169",
        "55464657044963196816950587289035428064568320970692304673817341489687455367168",
        "55464657044963196816950587289035428064568320970692304673817341489687463725056"
      ]
    },
    {
      "x": 14,
      "y": 44,
      "size": 1,
      "price": "2106000000000000000000",
      "reserved": "",
      "assetIds": [
        "55464657044963196816950587289035428064568320970692304673817341489687455367174",
        "55464657044963196816950587289035428064568320970692304673817341489687455367170",
        "55464657044963196816950587289035428064568320970692304673817341489687455367169",
        "55464657044963196816950587289035428064568320970692304673817341489687455367168",
        "55464657044963196816950587289035428064568320970692304673817341489687463725056"
      ]
    },
    {
      "x": 14,
      "y": 43,
      "size": 1,
      "price": "2106000000000000000000",
      "reserved": "",
      "assetIds": [
        "55464657044963196816950587289035428064568320970692304673817341489687455367180",
        "55464657044963196816950587289035428064568320970692304673817341489687455367171",
        "55464657044963196816950587289035428064568320970692304673817341489687455367169",
        "55464657044963196816950587289035428064568320970692304673817341489687455367168",
        "55464657044963196816950587289035428064568320970692304673817341489687463725056"
      ]
    },
    {
      "x": 15,
      "y": 43,
      "size": 1,
      "price": "2106000000000000000000",
      "reserved": "",
      "assetIds": [
        "55464657044963196816950587289035428064568320970692304673817341489687455367181",
        "55464657044963196816950587289035428064568320970692304673817341489687455367171",
        "55464657044963196816950587289035428064568320970692304673817341489687455367169",
        "55464657044963196816950587289035428064568320970692304673817341489687455367168",
        "55464657044963196816950587289035428064568320970692304673817341489687463725056"
      ]
    },
    {
      "x": 15,
      "y": 42,
      "size": 1,
      "price": "2106000000000000000000",
      "reserved": "",
      "assetIds": [
        "55464657044963196816950587289035428064568320970692304673817341489687455367172",
        "55464657044963196816950587289035428064568320970692304673817341489687455367170",
        "55464657044963196816950587289035428064568320970692304673817341489687455367169",
        "55464657044963196816950587289035428064568320970692304673817341489687455367168",
        "55464657044963196816950587289035428064568320970692304673817341489687463725056"
      ]
    },
    {
      "x": 15,
      "y": 41,
      "size": 1,
      "price": "2106000000000000000000",
      "reserved": "",
      "assetIds": [
        "55464657044963196816950587289035428064568320970692304673817341489687455367172",
        "55464657044963196816950587289035428064568320970692304673817341489687455367170",
        "55464657044963196816950587289035428064568320970692304673817341489687455367169",
        "55464657044963196816950587289035428064568320970692304673817341489687455367168",
        "55464657044963196816950587289035428064568320970692304673817341489687463725056"
      ]
    },
    {
      "x": 14,
      "y": 42,
      "size": 1,
      "price": "2106000000000000000000",
      "reserved": "",
      "assetIds": [
        "55464657044963196816950587289035428064568320970692304673817341489687455367182",
        "55464657044963196816950587289035428064568320970692304673817341489687455367171",
        "55464657044963196816950587289035428064568320970692304673817341489687455367169",
        "55464657044963196816950587289035428064568320970692304673817341489687455367168",
        "55464657044963196816950587289035428064568320970692304673817341489687463725056"
      ]
    },
    {
      "x": 14,
      "y": 45,
      "size": 1,
      "price": "2106000000000000000000",
      "reserved": "",
      "assetIds": [
        "55464657044963196816950587289035428064568320970692304673817341489687455367176",
        "55464657044963196816950587289035428064568320970692304673817341489687455367170",
        "55464657044963196816950587289035428064568320970692304673817341489687455367169",
        "55464657044963196816950587289035428064568320970692304673817341489687455367168",
        "55464657044963196816950587289035428064568320970692304673817341489687463725056"
      ]
    },
    {
      "x": 14,
      "y": 46,
      "size": 1,
      "price": "2106000000000000000000",
      "reserved": "",
      "assetIds": [
        "55464657044963196816950587289035428064568320970692304673817341489687455367175",
        "55464657044963196816950587289035428064568320970692304673817341489687455367170",
        "55464657044963196816950587289035428064568320970692304673817341489687455367169",
        "55464657044963196816950587289035428064568320970692304673817341489687455367168",
        "55464657044963196816950587289035428064568320970692304673817341489687463725056"
      ]
    },
    {
      "x": 14,
      "y": 47,
      "size": 1,
      "price": "2106000000000000000000",
      "reserved": "",
      "assetIds": [
        "55464657044963196816950587289035428064568320970692304673817341489687455367177",
        "55464657044963196816950587289035428064568320970692304673817341489687455367170",
        "55464657044963196816950587289035428064568320970692304673817341489687455367169",
        "55464657044963196816950587289035428064568320970692304673817341489687455367168",
        "55464657044963196816950587289035428064568320970692304673817341489687463725056"
      ]
    },
    {
      "x": 14,
      "y": 41,
      "size": 1,
      "price": "2106000000000000000000",
      "reserved": "",
      "assetIds": [
        "55464657044963196816950587289035428064568320970692304673817341489687455367179",
        "55464657044963196816950587289035428064568320970692304673817341489687455367171",
        "55464657044963196816950587289035428064568320970692304673817341489687455367169",
        "55464657044963196816950587289035428064568320970692304673817341489687455367168",
        "55464657044963196816950587289035428064568320970692304673817341489687463725056"
      ]
    },
    {
      "x": 15,
      "y": 40,
      "size": 1,
      "price": "2106000000000000000000",
      "reserved": "",
      "assetIds": [
        "55464657044963196816950587289035428064568320970692304673817341489687455367174",
        "55464657044963196816950587289035428064568320970692304673817341489687455367170",
        "55464657044963196816950587289035428064568320970692304673817341489687455367169",
        "55464657044963196816950587289035428064568320970692304673817341489687455367168",
        "55464657044963196816950587289035428064568320970692304673817341489687463725056"
      ]
    },
    {
      "x": 15,
      "y": 39,
      "size": 1,
      "price": "2106000000000000000000",
      "reserved": "",
      "assetIds": [
        "55464657044963196816950587289035428064568320970692304673817341489687455367177",
        "55464657044963196816950587289035428064568320970692304673817341489687455367170",
        "55464657044963196816950587289035428064568320970692304673817341489687455367169",
        "55464657044963196816950587289035428064568320970692304673817341489687455367168",
        "55464657044963196816950587289035428064568320970692304673817341489687463725056"
      ]
    },
    {
      "x": 15,
      "y": 38,
      "size": 1,
      "price": "2106000000000000000000",
      "reserved": "",
      "assetIds": [
        "55464657044963196816950587289035428064568320970692304673817341489687455367179",
        "55464657044963196816950587289035428064568320970692304673817341489687455367171",
        "55464657044963196816950587289035428064568320970692304673817341489687455367169",
        "55464657044963196816950587289035428064568320970692304673817341489687455367168",
        "55464657044963196816950587289035428064568320970692304673817341489687463725056"
      ]
    },
    {
      "x": 15,
      "y": 37,
      "size": 1,
      "price": "2106000000000000000000",
      "reserved": "",
      "assetIds": [
        "55464657044963196816950587289035428064568320970692304673817341489687455367181",
        "55464657044963196816950587289035428064568320970692304673817341489687455367171",
        "55464657044963196816950587289035428064568320970692304673817341489687455367169",
        "55464657044963196816950587289035428064568320970692304673817341489687455367168",
        "55464657044963196816950587289035428064568320970692304673817341489687463725056"
      ]
    },
    {
      "x": 15,
      "y": 36,
      "size": 1,
      "price": "2106000000000000000000",
      "reserved": "",
      "assetIds": [
        "55464657044963196816950587289035428064568320970692304673817341489687455367177",
        "55464657044963196816950587289035428064568320970692304673817341489687455367170",
        "55464657044963196816950587289035428064568320970692304673817341489687455367169",
        "55464657044963196816950587289035428064568320970692304673817341489687455367168",
        "55464657044963196816950587289035428064568320970692304673817341489687463725056"
      ]
    },
    {
      "x": 15,
      "y": 35,
      "size": 1,
      "price": "2106000000000000000000",
      "reserved": "",
      "assetIds": [
        "55464657044963196816950587289035428064568320970692304673817341489687455367181",
        "55464657044963196816950587289035428064568320970692304673817341489687455367171",
        "55464657044963196816950587289035428064568320970692304673817341489687455367169",
        "55464657044963196816950587289035428064568320970692304673817341489687455367168",
        "55464657044963196816950587289035428064568320970692304673817341489687463725056"
      ]
    },
    {
      "x": 15,
      "y": 34,
      "size": 1,
      "price": "2106000000000000000000",
      "reserved": "",
      "assetIds": [
        "55464657044963196816950587289035428064568320970692304673817341489687455367174",
        "55464657044963196816950587289035428064568320970692304673817341489687455367170",
        "55464657044963196816950587289035428064568320970692304673817341489687455367169",
        "55464657044963196816950587289035428064568320970692304673817341489687455367168",
        "55464657044963196816950587289035428064568320970692304673817341489687463725056"
      ]
    },
    {
      "x": 15,
      "y": 33,
      "size": 1,
      "price": "2106000000000000000000",
      "reserved": "",
      "assetIds": [
        "55464657044963196816950587289035428064568320970692304673817341489687455367178",
        "55464657044963196816950587289035428064568320970692304673817341489687455367171",
        "55464657044963196816950587289035428064568320970692304673817341489687455367169",
        "55464657044963196816950587289035428064568320970692304673817341489687455367168",
        "55464657044963196816950587289035428064568320970692304673817341489687463725056"
      ]
    },
    {
      "x": 15,
      "y": 32,
      "size": 1,
      "price": "2106000000000000000000",
      "reserved": "",
      "assetIds": [
        "55464657044963196816950587289035428064568320970692304673817341489687455367183",
        "55464657044963196816950587289035428064568320970692304673817341489687455367171",
        "55464657044963196816950587289035428064568320970692304673817341489687455367169",
        "55464657044963196816950587289035428064568320970692304673817341489687455367168",
        "55464657044963196816950587289035428064568320970692304673817341489687463725056"
      ]
    },
    {
      "x": 15,
      "y": 31,
      "size": 1,
      "price": "2106000000000000000000",
      "reserved": "",
      "assetIds": [
        "55464657044963196816950587289035428064568320970692304673817341489687455367182",
        "55464657044963196816950587289035428064568320970692304673817341489687455367171",
        "55464657044963196816950587289035428064568320970692304673817341489687455367169",
        "55464657044963196816950587289035428064568320970692304673817341489687455367168",
        "55464657044963196816950587289035428064568320970692304673817341489687463725056"
      ]
    },
    {
      "x": 15,
      "y": 30,
      "size": 1,
      "price": "2106000000000000000000",
      "reserved": "",
      "assetIds": [
        "55464657044963196816950587289035428064568320970692304673817341489687455367181",
        "55464657044963196816950587289035428064568320970692304673817341489687455367171",
        "55464657044963196816950587289035428064568320970692304673817341489687455367169",
        "55464657044963196816950587289035428064568320970692304673817341489687455367168",
        "55464657044963196816950587289035428064568320970692304673817341489687463725056"
      ]
    },
    {
      "x": 15,
      "y": 29,
      "size": 1,
      "price": "2106000000000000000000",
      "reserved": "",
      "assetIds": [
        "55464657044963196816950587289035428064568320970692304673817341489687455367172",
        "55464657044963196816950587289035428064568320970692304673817341489687455367170",
        "55464657044963196816950587289035428064568320970692304673817341489687455367169",
        "55464657044963196816950587289035428064568320970692304673817341489687455367168",
        "55464657044963196816950587289035428064568320970692304673817341489687463725056"
      ]
    },
    {
      "x": 15,
      "y": 28,
      "size": 1,
      "price": "2106000000000000000000",
      "reserved": "",
      "assetIds": [
        "55464657044963196816950587289035428064568320970692304673817341489687455367174",
        "55464657044963196816950587289035428064568320970692304673817341489687455367170",
        "55464657044963196816950587289035428064568320970692304673817341489687455367169",
        "55464657044963196816950587289035428064568320970692304673817341489687455367168",
        "55464657044963196816950587289035428064568320970692304673817341489687463725056"
      ]
    },
    {
      "x": 15,
      "y": 27,
      "size": 1,
      "price": "2106000000000000000000",
      "reserved": "",
      "assetIds": [
        "55464657044963196816950587289035428064568320970692304673817341489687455367174",
        "55464657044963196816950587289035428064568320970692304673817341489687455367170",
        "55464657044963196816950587289035428064568320970692304673817341489687455367169",
        "55464657044963196816950587289035428064568320970692304673817341489687455367168",
        "55464657044963196816950587289035428064568320970692304673817341489687463725056"
      ]
    },
    {
      "x": 15,
      "y": 23,
      "size": 1,
      "price": "2106000000000000000000",
      "reserved": "",
      "assetIds": [
        "55464657044963196816950587289035428064568320970692304673817341489687455367175",
        "55464657044963196816950587289035428064568320970692304673817341489687455367170",
        "55464657044963196816950587289035428064568320970692304673817341489687455367169",
        "55464657044963196816950587289035428064568320970692304673817341489687455367168",
        "55464657044963196816950587289035428064568320970692304673817341489687463725056"
      ]
    },
    {
      "x": 15,
      "y": 24,
      "size": 1,
      "price": "2106000000000000000000",
      "reserved": "",
      "assetIds": [
        "55464657044963196816950587289035428064568320970692304673817341489687455367174",
        "55464657044963196816950587289035428064568320970692304673817341489687455367170",
        "55464657044963196816950587289035428064568320970692304673817341489687455367169",
        "55464657044963196816950587289035428064568320970692304673817341489687455367168",
        "55464657044963196816950587289035428064568320970692304673817341489687463725056"
      ]
    },
    {
      "x": 15,
      "y": 25,
      "size": 1,
      "price": "2106000000000000000000",
      "reserved": "",
      "assetIds": [
        "55464657044963196816950587289035428064568320970692304673817341489687455367183",
        "55464657044963196816950587289035428064568320970692304673817341489687455367171",
        "55464657044963196816950587289035428064568320970692304673817341489687455367169",
        "55464657044963196816950587289035428064568320970692304673817341489687455367168",
        "55464657044963196816950587289035428064568320970692304673817341489687463725056"
      ]
    },
    {
      "x": 15,
      "y": 26,
      "size": 1,
      "price": "2106000000000000000000",
      "reserved": "",
      "assetIds": [
        "55464657044963196816950587289035428064568320970692304673817341489687455367180",
        "55464657044963196816950587289035428064568320970692304673817341489687455367171",
        "55464657044963196816950587289035428064568320970692304673817341489687455367169",
        "55464657044963196816950587289035428064568320970692304673817341489687455367168",
        "55464657044963196816950587289035428064568320970692304673817341489687463725056"
      ]
    },
    {
      "x": 16,
      "y": 23,
      "size": 1,
      "price": "2106000000000000000000",
      "reserved": "",
      "assetIds": [
        "55464657044963196816950587289035428064568320970692304673817341489687455367182",
        "55464657044963196816950587289035428064568320970692304673817341489687455367171",
        "55464657044963196816950587289035428064568320970692304673817341489687455367169",
        "55464657044963196816950587289035428064568320970692304673817341489687455367168",
        "55464657044963196816950587289035428064568320970692304673817341489687463725056"
      ]
    },
    {
      "x": 17,
      "y": 23,
      "size": 1,
      "price": "2106000000000000000000",
      "reserved": "",
      "assetIds": [
        "55464657044963196816950587289035428064568320970692304673817341489687455367183",
        "55464657044963196816950587289035428064568320970692304673817341489687455367171",
        "55464657044963196816950587289035428064568320970692304673817341489687455367169",
        "55464657044963196816950587289035428064568320970692304673817341489687455367168",
        "55464657044963196816950587289035428064568320970692304673817341489687463725056"
      ]
    },
    {
      "x": 18,
      "y": 23,
      "size": 1,
      "price": "2106000000000000000000",
      "reserved": "",
      "assetIds": [
        "55464657044963196816950587289035428064568320970692304673817341489687455367177",
        "55464657044963196816950587289035428064568320970692304673817341489687455367170",
        "55464657044963196816950587289035428064568320970692304673817341489687455367169",
        "55464657044963196816950587289035428064568320970692304673817341489687455367168",
        "55464657044963196816950587289035428064568320970692304673817341489687463725056"
      ]
    },
    {
      "x": 19,
      "y": 23,
      "size": 1,
      "price": "2106000000000000000000",
      "reserved": "",
      "assetIds": [
        "55464657044963196816950587289035428064568320970692304673817341489687455367173",
        "55464657044963196816950587289035428064568320970692304673817341489687455367170",
        "55464657044963196816950587289035428064568320970692304673817341489687455367169",
        "55464657044963196816950587289035428064568320970692304673817341489687455367168",
        "55464657044963196816950587289035428064568320970692304673817341489687463725056"
      ]
    },
    {
      "x": 20,
      "y": 23,
      "size": 1,
      "price": "2106000000000000000000",
      "reserved": "",
      "assetIds": [
        "55464657044963196816950587289035428064568320970692304673817341489687455367173",
        "55464657044963196816950587289035428064568320970692304673817341489687455367170",
        "55464657044963196816950587289035428064568320970692304673817341489687455367169",
        "55464657044963196816950587289035428064568320970692304673817341489687455367168",
        "55464657044963196816950587289035428064568320970692304673817341489687463725056"
      ]
    },
    {
      "x": 20,
      "y": 22,
      "size": 1,
      "price": "2106000000000000000000",
      "reserved": "",
      "assetIds": [
        "55464657044963196816950587289035428064568320970692304673817341489687455367172",
        "55464657044963196816950587289035428064568320970692304673817341489687455367170",
        "55464657044963196816950587289035428064568320970692304673817341489687455367169",
        "55464657044963196816950587289035428064568320970692304673817341489687455367168",
        "55464657044963196816950587289035428064568320970692304673817341489687463725056"
      ]
    },
    {
      "x": 20,
      "y": 21,
      "size": 1,
      "price": "2106000000000000000000",
      "reserved": "",
      "assetIds": [
        "55464657044963196816950587289035428064568320970692304673817341489687455367179",
        "55464657044963196816950587289035428064568320970692304673817341489687455367171",
        "55464657044963196816950587289035428064568320970692304673817341489687455367169",
        "55464657044963196816950587289035428064568320970692304673817341489687455367168",
        "55464657044963196816950587289035428064568320970692304673817341489687463725056"
      ]
    },
    {
      "x": 20,
      "y": 20,
      "size": 1,
      "price": "2106000000000000000000",
      "reserved": "",
      "assetIds": [
        "55464657044963196816950587289035428064568320970692304673817341489687455367172",
        "55464657044963196816950587289035428064568320970692304673817341489687455367170",
        "55464657044963196816950587289035428064568320970692304673817341489687455367169",
        "55464657044963196816950587289035428064568320970692304673817341489687455367168",
        "55464657044963196816950587289035428064568320970692304673817341489687463725056"
      ]
    },
    {
      "x": 20,
      "y": 19,
      "size": 1,
      "price": "2106000000000000000000",
      "reserved": "",
      "assetIds": [
        "55464657044963196816950587289035428064568320970692304673817341489687455367175",
        "55464657044963196816950587289035428064568320970692304673817341489687455367170",
        "55464657044963196816950587289035428064568320970692304673817341489687455367169",
        "55464657044963196816950587289035428064568320970692304673817341489687455367168",
        "55464657044963196816950587289035428064568320970692304673817341489687463725056"
      ]
    },
    {
      "x": 20,
      "y": 18,
      "size": 1,
      "price": "2106000000000000000000",
      "reserved": "",
      "assetIds": [
        "55464657044963196816950587289035428064568320970692304673817341489687455367176",
        "55464657044963196816950587289035428064568320970692304673817341489687455367170",
        "55464657044963196816950587289035428064568320970692304673817341489687455367169",
        "55464657044963196816950587289035428064568320970692304673817341489687455367168",
        "55464657044963196816950587289035428064568320970692304673817341489687463725056"
      ]
    },
    {
      "x": 20,
      "y": 17,
      "size": 1,
      "price": "2106000000000000000000",
      "reserved": "",
      "assetIds": [
        "55464657044963196816950587289035428064568320970692304673817341489687455367175",
        "55464657044963196816950587289035428064568320970692304673817341489687455367170",
        "55464657044963196816950587289035428064568320970692304673817341489687455367169",
        "55464657044963196816950587289035428064568320970692304673817341489687455367168",
        "55464657044963196816950587289035428064568320970692304673817341489687463725056"
      ]
    },
    {
      "x": 20,
      "y": 16,
      "size": 1,
      "price": "2106000000000000000000",
      "reserved": "",
      "assetIds": [
        "55464657044963196816950587289035428064568320970692304673817341489687455367177",
        "55464657044963196816950587289035428064568320970692304673817341489687455367170",
        "55464657044963196816950587289035428064568320970692304673817341489687455367169",
        "55464657044963196816950587289035428064568320970692304673817341489687455367168",
        "55464657044963196816950587289035428064568320970692304673817341489687463725056"
      ]
    },
    {
      "x": 20,
      "y": 15,
      "size": 1,
      "price": "2106000000000000000000",
      "reserved": "",
      "assetIds": [
        "55464657044963196816950587289035428064568320970692304673817341489687455367180",
        "55464657044963196816950587289035428064568320970692304673817341489687455367171",
        "55464657044963196816950587289035428064568320970692304673817341489687455367169",
        "55464657044963196816950587289035428064568320970692304673817341489687455367168",
        "55464657044963196816950587289035428064568320970692304673817341489687463725056"
      ]
    },
    {
      "x": 21,
      "y": 15,
      "size": 1,
      "price": "2106000000000000000000",
      "reserved": "",
      "assetIds": [
        "55464657044963196816950587289035428064568320970692304673817341489687455367174",
        "55464657044963196816950587289035428064568320970692304673817341489687455367170",
        "55464657044963196816950587289035428064568320970692304673817341489687455367169",
        "55464657044963196816950587289035428064568320970692304673817341489687455367168",
        "55464657044963196816950587289035428064568320970692304673817341489687463725056"
      ]
    },
    {
      "x": 22,
      "y": 15,
      "size": 1,
      "price": "2106000000000000000000",
      "reserved": "",
      "assetIds": [
        "55464657044963196816950587289035428064568320970692304673817341489687455367180",
        "55464657044963196816950587289035428064568320970692304673817341489687455367171",
        "55464657044963196816950587289035428064568320970692304673817341489687455367169",
        "55464657044963196816950587289035428064568320970692304673817341489687455367168",
        "55464657044963196816950587289035428064568320970692304673817341489687463725056"
      ]
    },
    {
      "x": 23,
      "y": 15,
      "size": 1,
      "price": "2106000000000000000000",
      "reserved": "",
      "assetIds": [
        "55464657044963196816950587289035428064568320970692304673817341489687455367173",
        "55464657044963196816950587289035428064568320970692304673817341489687455367170",
        "55464657044963196816950587289035428064568320970692304673817341489687455367169",
        "55464657044963196816950587289035428064568320970692304673817341489687455367168",
        "55464657044963196816950587289035428064568320970692304673817341489687463725056"
      ]
    },
    {
      "x": 24,
      "y": 15,
      "size": 1,
      "price": "2106000000000000000000",
      "reserved": "",
      "assetIds": [
        "55464657044963196816950587289035428064568320970692304673817341489687455367182",
        "55464657044963196816950587289035428064568320970692304673817341489687455367171",
        "55464657044963196816950587289035428064568320970692304673817341489687455367169",
        "55464657044963196816950587289035428064568320970692304673817341489687455367168",
        "55464657044963196816950587289035428064568320970692304673817341489687463725056"
      ]
    },
    {
      "x": 25,
      "y": 15,
      "size": 1,
      "price": "2106000000000000000000",
      "reserved": "",
      "assetIds": [
        "55464657044963196816950587289035428064568320970692304673817341489687455367182",
        "55464657044963196816950587289035428064568320970692304673817341489687455367171",
        "55464657044963196816950587289035428064568320970692304673817341489687455367169",
        "55464657044963196816950587289035428064568320970692304673817341489687455367168",
        "55464657044963196816950587289035428064568320970692304673817341489687463725056"
      ]
    },
    {
      "x": 26,
      "y": 15,
      "size": 1,
      "price": "2106000000000000000000",
      "reserved": "",
      "assetIds": [
        "55464657044963196816950587289035428064568320970692304673817341489687455367176",
        "55464657044963196816950587289035428064568320970692304673817341489687455367170",
        "55464657044963196816950587289035428064568320970692304673817341489687455367169",
        "55464657044963196816950587289035428064568320970692304673817341489687455367168",
        "55464657044963196816950587289035428064568320970692304673817341489687463725056"
      ]
    },
    {
      "x": 26,
      "y": 14,
      "size": 1,
      "price": "2106000000000000000000",
      "reserved": "",
      "assetIds": [
        "55464657044963196816950587289035428064568320970692304673817341489687455367183",
        "55464657044963196816950587289035428064568320970692304673817341489687455367171",
        "55464657044963196816950587289035428064568320970692304673817341489687455367169",
        "55464657044963196816950587289035428064568320970692304673817341489687455367168",
        "55464657044963196816950587289035428064568320970692304673817341489687463725056"
      ]
    },
    {
      "x": 26,
      "y": 13,
      "size": 1,
      "price": "2106000000000000000000",
      "reserved": "",
      "assetIds": [
        "55464657044963196816950587289035428064568320970692304673817341489687455367183",
        "55464657044963196816950587289035428064568320970692304673817341489687455367171",
        "55464657044963196816950587289035428064568320970692304673817341489687455367169",
        "55464657044963196816950587289035428064568320970692304673817341489687455367168",
        "55464657044963196816950587289035428064568320970692304673817341489687463725056"
      ]
    },
    {
      "x": 26,
      "y": 12,
      "size": 1,
      "price": "2106000000000000000000",
      "reserved": "",
      "assetIds": [
        "55464657044963196816950587289035428064568320970692304673817341489687455367177",
        "55464657044963196816950587289035428064568320970692304673817341489687455367170",
        "55464657044963196816950587289035428064568320970692304673817341489687455367169",
        "55464657044963196816950587289035428064568320970692304673817341489687455367168",
        "55464657044963196816950587289035428064568320970692304673817341489687463725056"
      ]
    },
    {
      "x": 26,
      "y": 11,
      "size": 1,
      "price": "2106000000000000000000",
      "reserved": "",
      "assetIds": [
        "55464657044963196816950587289035428064568320970692304673817341489687455367177",
        "55464657044963196816950587289035428064568320970692304673817341489687455367170",
        "55464657044963196816950587289035428064568320970692304673817341489687455367169",
        "55464657044963196816950587289035428064568320970692304673817341489687455367168",
        "55464657044963196816950587289035428064568320970692304673817341489687463725056"
      ]
    },
    {
      "x": 27,
      "y": 11,
      "size": 1,
      "price": "2106000000000000000000",
      "reserved": "",
      "assetIds": [
        "55464657044963196816950587289035428064568320970692304673817341489687455367179",
        "55464657044963196816950587289035428064568320970692304673817341489687455367171",
        "55464657044963196816950587289035428064568320970692304673817341489687455367169",
        "55464657044963196816950587289035428064568320970692304673817341489687455367168",
        "55464657044963196816950587289035428064568320970692304673817341489687463725056"
      ]
    },
    {
      "x": 27,
      "y": 10,
      "size": 1,
      "price": "2106000000000000000000",
      "reserved": "",
      "assetIds": [
        "55464657044963196816950587289035428064568320970692304673817341489687455367173",
        "55464657044963196816950587289035428064568320970692304673817341489687455367170",
        "55464657044963196816950587289035428064568320970692304673817341489687455367169",
        "55464657044963196816950587289035428064568320970692304673817341489687455367168",
        "55464657044963196816950587289035428064568320970692304673817341489687463725056"
      ]
    },
    {
      "x": 27,
      "y": 9,
      "size": 1,
      "price": "2106000000000000000000",
      "reserved": "",
      "assetIds": [
        "55464657044963196816950587289035428064568320970692304673817341489687455367172",
        "55464657044963196816950587289035428064568320970692304673817341489687455367170",
        "55464657044963196816950587289035428064568320970692304673817341489687455367169",
        "55464657044963196816950587289035428064568320970692304673817341489687455367168",
        "55464657044963196816950587289035428064568320970692304673817341489687463725056"
      ]
    },
    {
      "x": 28,
      "y": 9,
      "size": 1,
      "price": "2106000000000000000000",
      "reserved": "",
      "assetIds": [
        "55464657044963196816950587289035428064568320970692304673817341489687455367179",
        "55464657044963196816950587289035428064568320970692304673817341489687455367171",
        "55464657044963196816950587289035428064568320970692304673817341489687455367169",
        "55464657044963196816950587289035428064568320970692304673817341489687455367168",
        "55464657044963196816950587289035428064568320970692304673817341489687463725056"
      ]
    },
    {
      "x": 29,
      "y": 9,
      "size": 1,
      "price": "2106000000000000000000",
      "reserved": "",
      "assetIds": [
        "55464657044963196816950587289035428064568320970692304673817341489687455367181",
        "55464657044963196816950587289035428064568320970692304673817341489687455367171",
        "55464657044963196816950587289035428064568320970692304673817341489687455367169",
        "55464657044963196816950587289035428064568320970692304673817341489687455367168",
        "55464657044963196816950587289035428064568320970692304673817341489687463725056"
      ]
    },
    {
      "x": 30,
      "y": 9,
      "size": 1,
      "price": "2106000000000000000000",
      "reserved": "",
      "assetIds": [
        "55464657044963196816950587289035428064568320970692304673817341489687455367179",
        "55464657044963196816950587289035428064568320970692304673817341489687455367171",
        "55464657044963196816950587289035428064568320970692304673817341489687455367169",
        "55464657044963196816950587289035428064568320970692304673817341489687455367168",
        "55464657044963196816950587289035428064568320970692304673817341489687463725056"
      ]
    },
    {
      "x": 31,
      "y": 9,
      "size": 1,
      "price": "2106000000000000000000",
      "reserved": "",
      "assetIds": [
        "55464657044963196816950587289035428064568320970692304673817341489687455367179",
        "55464657044963196816950587289035428064568320970692304673817341489687455367171",
        "55464657044963196816950587289035428064568320970692304673817341489687455367169",
        "55464657044963196816950587289035428064568320970692304673817341489687455367168",
        "55464657044963196816950587289035428064568320970692304673817341489687463725056"
      ]
    },
    {
      "x": 32,
      "y": 9,
      "size": 1,
      "price": "2106000000000000000000",
      "reserved": "",
      "assetIds": [
        "55464657044963196816950587289035428064568320970692304673817341489687455367182",
        "55464657044963196816950587289035428064568320970692304673817341489687455367171",
        "55464657044963196816950587289035428064568320970692304673817341489687455367169",
        "55464657044963196816950587289035428064568320970692304673817341489687455367168",
        "55464657044963196816950587289035428064568320970692304673817341489687463725056"
      ]
    },
    {
      "x": 33,
      "y": 9,
      "size": 1,
      "price": "2106000000000000000000",
      "reserved": "",
      "assetIds": [
        "55464657044963196816950587289035428064568320970692304673817341489687455367181",
        "55464657044963196816950587289035428064568320970692304673817341489687455367171",
        "55464657044963196816950587289035428064568320970692304673817341489687455367169",
        "55464657044963196816950587289035428064568320970692304673817341489687455367168",
        "55464657044963196816950587289035428064568320970692304673817341489687463725056"
      ]
    },
    {
      "x": 34,
      "y": 9,
      "size": 1,
      "price": "2106000000000000000000",
      "reserved": "",
      "assetIds": [
        "55464657044963196816950587289035428064568320970692304673817341489687455367183",
        "55464657044963196816950587289035428064568320970692304673817341489687455367171",
        "55464657044963196816950587289035428064568320970692304673817341489687455367169",
        "55464657044963196816950587289035428064568320970692304673817341489687455367168",
        "55464657044963196816950587289035428064568320970692304673817341489687463725056"
      ]
    },
    {
      "x": 35,
      "y": 9,
      "size": 1,
      "price": "2106000000000000000000",
      "reserved": "",
      "assetIds": [
        "55464657044963196816950587289035428064568320970692304673817341489687455367173",
        "55464657044963196816950587289035428064568320970692304673817341489687455367170",
        "55464657044963196816950587289035428064568320970692304673817341489687455367169",
        "55464657044963196816950587289035428064568320970692304673817341489687455367168",
        "55464657044963196816950587289035428064568320970692304673817341489687463725056"
      ]
    },
    {
      "x": 36,
      "y": 9,
      "size": 1,
      "price": "2106000000000000000000",
      "reserved": "",
      "assetIds": [
        "55464657044963196816950587289035428064568320970692304673817341489687455367179",
        "55464657044963196816950587289035428064568320970692304673817341489687455367171",
        "55464657044963196816950587289035428064568320970692304673817341489687455367169",
        "55464657044963196816950587289035428064568320970692304673817341489687455367168",
        "55464657044963196816950587289035428064568320970692304673817341489687463725056"
      ]
    },
    {
      "x": 40,
      "y": 9,
      "size": 1,
      "price": "2106000000000000000000",
      "reserved": "",
      "assetIds": [
        "55464657044963196816950587289035428064568320970692304673817341489687455367180",
        "55464657044963196816950587289035428064568320970692304673817341489687455367171",
        "55464657044963196816950587289035428064568320970692304673817341489687455367169",
        "55464657044963196816950587289035428064568320970692304673817341489687455367168",
        "55464657044963196816950587289035428064568320970692304673817341489687463725056"
      ]
    },
    {
      "x": 41,
      "y": 9,
      "size": 1,
      "price": "2106000000000000000000",
      "reserved": "",
      "assetIds": [
        "55464657044963196816950587289035428064568320970692304673817341489687455367173",
        "55464657044963196816950587289035428064568320970692304673817341489687455367170",
        "55464657044963196816950587289035428064568320970692304673817341489687455367169",
        "55464657044963196816950587289035428064568320970692304673817341489687455367168",
        "55464657044963196816950587289035428064568320970692304673817341489687463725056"
      ]
    },
    {
      "x": 37,
      "y": 9,
      "size": 1,
      "price": "2106000000000000000000",
      "reserved": "",
      "assetIds": [
        "55464657044963196816950587289035428064568320970692304673817341489687455367181",
        "55464657044963196816950587289035428064568320970692304673817341489687455367171",
        "55464657044963196816950587289035428064568320970692304673817341489687455367169",
        "55464657044963196816950587289035428064568320970692304673817341489687455367168",
        "55464657044963196816950587289035428064568320970692304673817341489687463725056"
      ]
    },
    {
      "x": 38,
      "y": 9,
      "size": 1,
      "price": "2106000000000000000000",
      "reserved": "",
      "assetIds": [
        "55464657044963196816950587289035428064568320970692304673817341489687455367181",
        "55464657044963196816950587289035428064568320970692304673817341489687455367171",
        "55464657044963196816950587289035428064568320970692304673817341489687455367169",
        "55464657044963196816950587289035428064568320970692304673817341489687455367168",
        "55464657044963196816950587289035428064568320970692304673817341489687463725056"
      ]
    },
    {
      "x": 39,
      "y": 10,
      "size": 1,
      "price": "2106000000000000000000",
      "reserved": "",
      "assetIds": [
        "55464657044963196816950587289035428064568320970692304673817341489687455367177",
        "55464657044963196816950587289035428064568320970692304673817341489687455367170",
        "55464657044963196816950587289035428064568320970692304673817341489687455367169",
        "55464657044963196816950587289035428064568320970692304673817341489687455367168",
        "55464657044963196816950587289035428064568320970692304673817341489687463725056"
      ]
    },
    {
      "x": 39,
      "y": 9,
      "size": 1,
      "price": "2106000000000000000000",
      "reserved": "",
      "assetIds": [
        "55464657044963196816950587289035428064568320970692304673817341489687455367175",
        "55464657044963196816950587289035428064568320970692304673817341489687455367170",
        "55464657044963196816950587289035428064568320970692304673817341489687455367169",
        "55464657044963196816950587289035428064568320970692304673817341489687455367168",
        "55464657044963196816950587289035428064568320970692304673817341489687463725056"
      ]
    },
    {
      "x": 42,
      "y": 9,
      "size": 1,
      "price": "2106000000000000000000",
      "reserved": "",
      "assetIds": [
        "55464657044963196816950587289035428064568320970692304673817341489687455367182",
        "55464657044963196816950587289035428064568320970692304673817341489687455367171",
        "55464657044963196816950587289035428064568320970692304673817341489687455367169",
        "55464657044963196816950587289035428064568320970692304673817341489687455367168",
        "55464657044963196816950587289035428064568320970692304673817341489687463725056"
      ]
    },
    {
      "x": 43,
      "y": 9,
      "size": 1,
      "price": "2106000000000000000000",
      "reserved": "",
      "assetIds": [
        "55464657044963196816950587289035428064568320970692304673817341489687455367173",
        "55464657044963196816950587289035428064568320970692304673817341489687455367170",
        "55464657044963196816950587289035428064568320970692304673817341489687455367169",
        "55464657044963196816950587289035428064568320970692304673817341489687455367168",
        "55464657044963196816950587289035428064568320970692304673817341489687463725056"
      ]
    },
    {
      "x": 44,
      "y": 9,
      "size": 1,
      "price": "2106000000000000000000",
      "reserved": "",
      "assetIds": [
        "55464657044963196816950587289035428064568320970692304673817341489687455367183",
        "55464657044963196816950587289035428064568320970692304673817341489687455367171",
        "55464657044963196816950587289035428064568320970692304673817341489687455367169",
        "55464657044963196816950587289035428064568320970692304673817341489687455367168",
        "55464657044963196816950587289035428064568320970692304673817341489687463725056"
      ]
    },
    {
      "x": 45,
      "y": 9,
      "size": 1,
      "price": "2106000000000000000000",
      "reserved": "",
      "assetIds": [
        "55464657044963196816950587289035428064568320970692304673817341489687455367173",
        "55464657044963196816950587289035428064568320970692304673817341489687455367170",
        "55464657044963196816950587289035428064568320970692304673817341489687455367169",
        "55464657044963196816950587289035428064568320970692304673817341489687455367168",
        "55464657044963196816950587289035428064568320970692304673817341489687463725056"
      ]
    },
    {
      "x": 45,
      "y": 8,
      "size": 1,
      "price": "2106000000000000000000",
      "reserved": "",
      "assetIds": [
        "55464657044963196816950587289035428064568320970692304673817341489687455367172",
        "55464657044963196816950587289035428064568320970692304673817341489687455367170",
        "55464657044963196816950587289035428064568320970692304673817341489687455367169",
        "55464657044963196816950587289035428064568320970692304673817341489687455367168",
        "55464657044963196816950587289035428064568320970692304673817341489687463725056"
      ]
    },
    {
      "x": 45,
      "y": 6,
      "size": 1,
      "price": "2106000000000000000000",
      "reserved": "",
      "assetIds": [
        "55464657044963196816950587289035428064568320970692304673817341489687455367181",
        "55464657044963196816950587289035428064568320970692304673817341489687455367171",
        "55464657044963196816950587289035428064568320970692304673817341489687455367169",
        "55464657044963196816950587289035428064568320970692304673817341489687455367168",
        "55464657044963196816950587289035428064568320970692304673817341489687463725056"
      ]
    },
    {
      "x": 45,
      "y": 5,
      "size": 1,
      "price": "2106000000000000000000",
      "reserved": "",
      "assetIds": [
        "55464657044963196816950587289035428064568320970692304673817341489687455367176",
        "55464657044963196816950587289035428064568320970692304673817341489687455367170",
        "55464657044963196816950587289035428064568320970692304673817341489687455367169",
        "55464657044963196816950587289035428064568320970692304673817341489687455367168",
        "55464657044963196816950587289035428064568320970692304673817341489687463725056"
      ]
    },
    {
      "x": 45,
      "y": 4,
      "size": 1,
      "price": "2106000000000000000000",
      "reserved": "",
      "assetIds": [
        "55464657044963196816950587289035428064568320970692304673817341489687455367182",
        "55464657044963196816950587289035428064568320970692304673817341489687455367171",
        "55464657044963196816950587289035428064568320970692304673817341489687455367169",
        "55464657044963196816950587289035428064568320970692304673817341489687455367168",
        "55464657044963196816950587289035428064568320970692304673817341489687463725056"
      ]
    },
    {
      "x": 45,
      "y": 3,
      "size": 1,
      "price": "2106000000000000000000",
      "reserved": "",
      "assetIds": [
        "55464657044963196816950587289035428064568320970692304673817341489687455367176",
        "55464657044963196816950587289035428064568320970692304673817341489687455367170",
        "55464657044963196816950587289035428064568320970692304673817341489687455367169",
        "55464657044963196816950587289035428064568320970692304673817341489687455367168",
        "55464657044963196816950587289035428064568320970692304673817341489687463725056"
      ]
    },
    {
      "x": 45,
      "y": 2,
      "size": 1,
      "price": "2106000000000000000000",
      "reserved": "",
      "assetIds": [
        "55464657044963196816950587289035428064568320970692304673817341489687455367177",
        "55464657044963196816950587289035428064568320970692304673817341489687455367170",
        "55464657044963196816950587289035428064568320970692304673817341489687455367169",
        "55464657044963196816950587289035428064568320970692304673817341489687455367168",
        "55464657044963196816950587289035428064568320970692304673817341489687463725056"
      ]
    },
    {
      "x": 45,
      "y": 1,
      "size": 1,
      "price": "2106000000000000000000",
      "reserved": "",
      "assetIds": [
        "55464657044963196816950587289035428064568320970692304673817341489687455367174",
        "55464657044963196816950587289035428064568320970692304673817341489687455367170",
        "55464657044963196816950587289035428064568320970692304673817341489687455367169",
        "55464657044963196816950587289035428064568320970692304673817341489687455367168",
        "55464657044963196816950587289035428064568320970692304673817341489687463725056"
      ]
    },
    {
      "x": 46,
      "y": 1,
      "size": 1,
      "price": "2106000000000000000000",
      "reserved": "",
      "assetIds": [
        "55464657044963196816950587289035428064568320970692304673817341489687455367173",
        "55464657044963196816950587289035428064568320970692304673817341489687455367170",
        "55464657044963196816950587289035428064568320970692304673817341489687455367169",
        "55464657044963196816950587289035428064568320970692304673817341489687455367168",
        "55464657044963196816950587289035428064568320970692304673817341489687463725056"
      ]
    },
    {
      "x": 46,
      "y": 0,
      "size": 1,
      "price": "2106000000000000000000",
      "reserved": "",
      "assetIds": [
        "55464657044963196816950587289035428064568320970692304673817341489687455367173",
        "55464657044963196816950587289035428064568320970692304673817341489687455367170",
        "55464657044963196816950587289035428064568320970692304673817341489687455367169",
        "55464657044963196816950587289035428064568320970692304673817341489687455367168",
        "55464657044963196816950587289035428064568320970692304673817341489687463725056"
      ]
    },
    {
      "x": 47,
      "y": 0,
      "size": 1,
      "price": "2106000000000000000000",
      "reserved": "",
      "assetIds": [
        "55464657044963196816950587289035428064568320970692304673817341489687455367176",
        "55464657044963196816950587289035428064568320970692304673817341489687455367170",
        "55464657044963196816950587289035428064568320970692304673817341489687455367169",
        "55464657044963196816950587289035428064568320970692304673817341489687455367168",
        "55464657044963196816950587289035428064568320970692304673817341489687463725056"
      ]
    },
    {
      "x": 45,
      "y": 0,
      "size": 1,
      "price": "2106000000000000000000",
      "reserved": "",
      "assetIds": [
        "55464657044963196816950587289035428064568320970692304673817341489687455367178",
        "55464657044963196816950587289035428064568320970692304673817341489687455367171",
        "55464657044963196816950587289035428064568320970692304673817341489687455367169",
        "55464657044963196816950587289035428064568320970692304673817341489687455367168",
        "55464657044963196816950587289035428064568320970692304673817341489687463725056"
      ]
    },
    {
      "x": 47,
      "y": 11,
      "size": 1,
      "price": "2106000000000000000000",
      "reserved": "",
      "assetIds": [
        "55464657044963196816950587289035428064568320970692304673817341489687455367181",
        "55464657044963196816950587289035428064568320970692304673817341489687455367171",
        "55464657044963196816950587289035428064568320970692304673817341489687455367169",
        "55464657044963196816950587289035428064568320970692304673817341489687455367168",
        "55464657044963196816950587289035428064568320970692304673817341489687463725056"
      ]
    },
    {
      "x": 47,
      "y": 10,
      "size": 1,
      "price": "2106000000000000000000",
      "reserved": "",
      "assetIds": [
        "55464657044963196816950587289035428064568320970692304673817341489687455367180",
        "55464657044963196816950587289035428064568320970692304673817341489687455367171",
        "55464657044963196816950587289035428064568320970692304673817341489687455367169",
        "55464657044963196816950587289035428064568320970692304673817341489687455367168",
        "55464657044963196816950587289035428064568320970692304673817341489687463725056"
      ]
    },
    {
      "x": 47,
      "y": 9,
      "size": 1,
      "price": "2106000000000000000000",
      "reserved": "",
      "assetIds": [
        "55464657044963196816950587289035428064568320970692304673817341489687455367174",
        "55464657044963196816950587289035428064568320970692304673817341489687455367170",
        "55464657044963196816950587289035428064568320970692304673817341489687455367169",
        "55464657044963196816950587289035428064568320970692304673817341489687455367168",
        "55464657044963196816950587289035428064568320970692304673817341489687463725056"
      ]
    },
    {
      "x": 47,
      "y": 8,
      "size": 1,
      "price": "2106000000000000000000",
      "reserved": "",
      "assetIds": [
        "55464657044963196816950587289035428064568320970692304673817341489687455367174",
        "55464657044963196816950587289035428064568320970692304673817341489687455367170",
        "55464657044963196816950587289035428064568320970692304673817341489687455367169",
        "55464657044963196816950587289035428064568320970692304673817341489687455367168",
        "55464657044963196816950587289035428064568320970692304673817341489687463725056"
      ]
    },
    {
      "x": 47,
      "y": 7,
      "size": 1,
      "price": "2106000000000000000000",
      "reserved": "",
      "assetIds": [
        "55464657044963196816950587289035428064568320970692304673817341489687455367181",
        "55464657044963196816950587289035428064568320970692304673817341489687455367171",
        "55464657044963196816950587289035428064568320970692304673817341489687455367169",
        "55464657044963196816950587289035428064568320970692304673817341489687455367168",
        "55464657044963196816950587289035428064568320970692304673817341489687463725056"
      ]
    },
    {
      "x": 47,
      "y": 6,
      "size": 1,
      "price": "2106000000000000000000",
      "reserved": "",
      "assetIds": [
        "55464657044963196816950587289035428064568320970692304673817341489687455367176",
        "55464657044963196816950587289035428064568320970692304673817341489687455367170",
        "55464657044963196816950587289035428064568320970692304673817341489687455367169",
        "55464657044963196816950587289035428064568320970692304673817341489687455367168",
        "55464657044963196816950587289035428064568320970692304673817341489687463725056"
      ]
    },
    {
      "x": 47,
      "y": 5,
      "size": 1,
      "price": "2106000000000000000000",
      "reserved": "",
      "assetIds": [
        "55464657044963196816950587289035428064568320970692304673817341489687455367177",
        "55464657044963196816950587289035428064568320970692304673817341489687455367170",
        "55464657044963196816950587289035428064568320970692304673817341489687455367169",
        "55464657044963196816950587289035428064568320970692304673817341489687455367168",
        "55464657044963196816950587289035428064568320970692304673817341489687463725056"
      ]
    },
    {
      "x": 47,
      "y": 4,
      "size": 1,
      "price": "2106000000000000000000",
      "reserved": "",
      "assetIds": [
        "55464657044963196816950587289035428064568320970692304673817341489687455367177",
        "55464657044963196816950587289035428064568320970692304673817341489687455367170",
        "55464657044963196816950587289035428064568320970692304673817341489687455367169",
        "55464657044963196816950587289035428064568320970692304673817341489687455367168",
        "55464657044963196816950587289035428064568320970692304673817341489687463725056"
      ]
    },
    {
      "x": 47,
      "y": 3,
      "size": 1,
      "price": "2106000000000000000000",
      "reserved": "",
      "assetIds": [
        "55464657044963196816950587289035428064568320970692304673817341489687455367181",
        "55464657044963196816950587289035428064568320970692304673817341489687455367171",
        "55464657044963196816950587289035428064568320970692304673817341489687455367169",
        "55464657044963196816950587289035428064568320970692304673817341489687455367168",
        "55464657044963196816950587289035428064568320970692304673817341489687463725056"
      ]
    },
    {
      "x": 47,
      "y": 2,
      "size": 1,
      "price": "2106000000000000000000",
      "reserved": "",
      "assetIds": [
        "55464657044963196816950587289035428064568320970692304673817341489687455367178",
        "55464657044963196816950587289035428064568320970692304673817341489687455367171",
        "55464657044963196816950587289035428064568320970692304673817341489687455367169",
        "55464657044963196816950587289035428064568320970692304673817341489687455367168",
        "55464657044963196816950587289035428064568320970692304673817341489687463725056"
      ]
    },
    {
      "x": 47,
      "y": 1,
      "size": 1,
      "price": "2106000000000000000000",
      "reserved": "",
      "assetIds": [
        "55464657044963196816950587289035428064568320970692304673817341489687455367174",
        "55464657044963196816950587289035428064568320970692304673817341489687455367170",
        "55464657044963196816950587289035428064568320970692304673817341489687455367169",
        "55464657044963196816950587289035428064568320970692304673817341489687455367168",
        "55464657044963196816950587289035428064568320970692304673817341489687463725056"
      ]
    },
    {
      "x": 46,
      "y": 11,
      "size": 1,
      "price": "2106000000000000000000",
      "reserved": "",
      "assetIds": [
        "55464657044963196816950587289035428064568320970692304673817341489687455367180",
        "55464657044963196816950587289035428064568320970692304673817341489687455367171",
        "55464657044963196816950587289035428064568320970692304673817341489687455367169",
        "55464657044963196816950587289035428064568320970692304673817341489687455367168",
        "55464657044963196816950587289035428064568320970692304673817341489687463725056"
      ]
    },
    {
      "x": 46,
      "y": 10,
      "size": 1,
      "price": "2106000000000000000000",
      "reserved": "",
      "assetIds": [
        "55464657044963196816950587289035428064568320970692304673817341489687455367174",
        "55464657044963196816950587289035428064568320970692304673817341489687455367170",
        "55464657044963196816950587289035428064568320970692304673817341489687455367169",
        "55464657044963196816950587289035428064568320970692304673817341489687455367168",
        "55464657044963196816950587289035428064568320970692304673817341489687463725056"
      ]
    },
    {
      "x": 46,
      "y": 9,
      "size": 1,
      "price": "2106000000000000000000",
      "reserved": "",
      "assetIds": [
        "55464657044963196816950587289035428064568320970692304673817341489687455367176",
        "55464657044963196816950587289035428064568320970692304673817341489687455367170",
        "55464657044963196816950587289035428064568320970692304673817341489687455367169",
        "55464657044963196816950587289035428064568320970692304673817341489687455367168",
        "55464657044963196816950587289035428064568320970692304673817341489687463725056"
      ]
    },
    {
      "x": 46,
      "y": 8,
      "size": 1,
      "price": "2106000000000000000000",
      "reserved": "",
      "assetIds": [
        "55464657044963196816950587289035428064568320970692304673817341489687455367172",
        "55464657044963196816950587289035428064568320970692304673817341489687455367170",
        "55464657044963196816950587289035428064568320970692304673817341489687455367169",
        "55464657044963196816950587289035428064568320970692304673817341489687455367168",
        "55464657044963196816950587289035428064568320970692304673817341489687463725056"
      ]
    },
    {
      "x": 46,
      "y": 7,
      "size": 1,
      "price": "2106000000000000000000",
      "reserved": "",
      "assetIds": [
        "55464657044963196816950587289035428064568320970692304673817341489687455367180",
        "55464657044963196816950587289035428064568320970692304673817341489687455367171",
        "55464657044963196816950587289035428064568320970692304673817341489687455367169",
        "55464657044963196816950587289035428064568320970692304673817341489687455367168",
        "55464657044963196816950587289035428064568320970692304673817341489687463725056"
      ]
    },
    {
      "x": 46,
      "y": 6,
      "size": 1,
      "price": "2106000000000000000000",
      "reserved": "",
      "assetIds": [
        "55464657044963196816950587289035428064568320970692304673817341489687455367173",
        "55464657044963196816950587289035428064568320970692304673817341489687455367170",
        "55464657044963196816950587289035428064568320970692304673817341489687455367169",
        "55464657044963196816950587289035428064568320970692304673817341489687455367168",
        "55464657044963196816950587289035428064568320970692304673817341489687463725056"
      ]
    },
    {
      "x": 46,
      "y": 5,
      "size": 1,
      "price": "2106000000000000000000",
      "reserved": "",
      "assetIds": [
        "55464657044963196816950587289035428064568320970692304673817341489687455367181",
        "55464657044963196816950587289035428064568320970692304673817341489687455367171",
        "55464657044963196816950587289035428064568320970692304673817341489687455367169",
        "55464657044963196816950587289035428064568320970692304673817341489687455367168",
        "55464657044963196816950587289035428064568320970692304673817341489687463725056"
      ]
    },
    {
      "x": 46,
      "y": 3,
      "size": 1,
      "price": "2106000000000000000000",
      "reserved": "",
      "assetIds": [
        "55464657044963196816950587289035428064568320970692304673817341489687455367173",
        "55464657044963196816950587289035428064568320970692304673817341489687455367170",
        "55464657044963196816950587289035428064568320970692304673817341489687455367169",
        "55464657044963196816950587289035428064568320970692304673817341489687455367168",
        "55464657044963196816950587289035428064568320970692304673817341489687463725056"
      ]
    },
    {
      "x": 46,
      "y": 4,
      "size": 1,
      "price": "2106000000000000000000",
      "reserved": "",
      "assetIds": [
        "55464657044963196816950587289035428064568320970692304673817341489687455367178",
        "55464657044963196816950587289035428064568320970692304673817341489687455367171",
        "55464657044963196816950587289035428064568320970692304673817341489687455367169",
        "55464657044963196816950587289035428064568320970692304673817341489687455367168",
        "55464657044963196816950587289035428064568320970692304673817341489687463725056"
      ]
    },
    {
      "x": 44,
      "y": 10,
      "size": 1,
      "price": "2106000000000000000000",
      "reserved": "",
      "assetIds": [
        "55464657044963196816950587289035428064568320970692304673817341489687455367172",
        "55464657044963196816950587289035428064568320970692304673817341489687455367170",
        "55464657044963196816950587289035428064568320970692304673817341489687455367169",
        "55464657044963196816950587289035428064568320970692304673817341489687455367168",
        "55464657044963196816950587289035428064568320970692304673817341489687463725056"
      ]
    },
    {
      "x": 44,
      "y": 11,
      "size": 1,
      "price": "2106000000000000000000",
      "reserved": "",
      "assetIds": [
        "55464657044963196816950587289035428064568320970692304673817341489687455367179",
        "55464657044963196816950587289035428064568320970692304673817341489687455367171",
        "55464657044963196816950587289035428064568320970692304673817341489687455367169",
        "55464657044963196816950587289035428064568320970692304673817341489687455367168",
        "55464657044963196816950587289035428064568320970692304673817341489687463725056"
      ]
    },
    {
      "x": 45,
      "y": 11,
      "size": 1,
      "price": "2106000000000000000000",
      "reserved": "",
      "assetIds": [
        "55464657044963196816950587289035428064568320970692304673817341489687455367176",
        "55464657044963196816950587289035428064568320970692304673817341489687455367170",
        "55464657044963196816950587289035428064568320970692304673817341489687455367169",
        "55464657044963196816950587289035428064568320970692304673817341489687455367168",
        "55464657044963196816950587289035428064568320970692304673817341489687463725056"
      ]
    },
    {
      "x": 43,
      "y": 11,
      "size": 1,
      "price": "2106000000000000000000",
      "reserved": "",
      "assetIds": [
        "55464657044963196816950587289035428064568320970692304673817341489687455367175",
        "55464657044963196816950587289035428064568320970692304673817341489687455367170",
        "55464657044963196816950587289035428064568320970692304673817341489687455367169",
        "55464657044963196816950587289035428064568320970692304673817341489687455367168",
        "55464657044963196816950587289035428064568320970692304673817341489687463725056"
      ]
    },
    {
      "x": 42,
      "y": 11,
      "size": 1,
      "price": "2106000000000000000000",
      "reserved": "",
      "assetIds": [
        "55464657044963196816950587289035428064568320970692304673817341489687455367178",
        "55464657044963196816950587289035428064568320970692304673817341489687455367171",
        "55464657044963196816950587289035428064568320970692304673817341489687455367169",
        "55464657044963196816950587289035428064568320970692304673817341489687455367168",
        "55464657044963196816950587289035428064568320970692304673817341489687463725056"
      ]
    },
    {
      "x": 42,
      "y": 10,
      "size": 1,
      "price": "2106000000000000000000",
      "reserved": "",
      "assetIds": [
        "55464657044963196816950587289035428064568320970692304673817341489687455367173",
        "55464657044963196816950587289035428064568320970692304673817341489687455367170",
        "55464657044963196816950587289035428064568320970692304673817341489687455367169",
        "55464657044963196816950587289035428064568320970692304673817341489687455367168",
        "55464657044963196816950587289035428064568320970692304673817341489687463725056"
      ]
    },
    {
      "x": 41,
      "y": 11,
      "size": 1,
      "price": "2106000000000000000000",
      "reserved": "",
      "assetIds": [
        "55464657044963196816950587289035428064568320970692304673817341489687455367173",
        "55464657044963196816950587289035428064568320970692304673817341489687455367170",
        "55464657044963196816950587289035428064568320970692304673817341489687455367169",
        "55464657044963196816950587289035428064568320970692304673817341489687455367168",
        "55464657044963196816950587289035428064568320970692304673817341489687463725056"
      ]
    },
    {
      "x": 40,
      "y": 11,
      "size": 1,
      "price": "2106000000000000000000",
      "reserved": "",
      "assetIds": [
        "55464657044963196816950587289035428064568320970692304673817341489687455367179",
        "55464657044963196816950587289035428064568320970692304673817341489687455367171",
        "55464657044963196816950587289035428064568320970692304673817341489687455367169",
        "55464657044963196816950587289035428064568320970692304673817341489687455367168",
        "55464657044963196816950587289035428064568320970692304673817341489687463725056"
      ]
    },
    {
      "x": 39,
      "y": 11,
      "size": 1,
      "price": "2106000000000000000000",
      "reserved": "",
      "assetIds": [
        "55464657044963196816950587289035428064568320970692304673817341489687455367176",
        "55464657044963196816950587289035428064568320970692304673817341489687455367170",
        "55464657044963196816950587289035428064568320970692304673817341489687455367169",
        "55464657044963196816950587289035428064568320970692304673817341489687455367168",
        "55464657044963196816950587289035428064568320970692304673817341489687463725056"
      ]
    },
    {
      "x": 38,
      "y": 11,
      "size": 1,
      "price": "2106000000000000000000",
      "reserved": "",
      "assetIds": [
        "55464657044963196816950587289035428064568320970692304673817341489687455367174",
        "55464657044963196816950587289035428064568320970692304673817341489687455367170",
        "55464657044963196816950587289035428064568320970692304673817341489687455367169",
        "55464657044963196816950587289035428064568320970692304673817341489687455367168",
        "55464657044963196816950587289035428064568320970692304673817341489687463725056"
      ]
    },
    {
      "x": 37,
      "y": 11,
      "size": 1,
      "price": "2106000000000000000000",
      "reserved": "",
      "assetIds": [
        "55464657044963196816950587289035428064568320970692304673817341489687455367182",
        "55464657044963196816950587289035428064568320970692304673817341489687455367171",
        "55464657044963196816950587289035428064568320970692304673817341489687455367169",
        "55464657044963196816950587289035428064568320970692304673817341489687455367168",
        "55464657044963196816950587289035428064568320970692304673817341489687463725056"
      ]
    },
    {
      "x": 36,
      "y": 11,
      "size": 1,
      "price": "2106000000000000000000",
      "reserved": "",
      "assetIds": [
        "55464657044963196816950587289035428064568320970692304673817341489687455367177",
        "55464657044963196816950587289035428064568320970692304673817341489687455367170",
        "55464657044963196816950587289035428064568320970692304673817341489687455367169",
        "55464657044963196816950587289035428064568320970692304673817341489687455367168",
        "55464657044963196816950587289035428064568320970692304673817341489687463725056"
      ]
    },
    {
      "x": 37,
      "y": 10,
      "size": 1,
      "price": "2106000000000000000000",
      "reserved": "",
      "assetIds": [
        "55464657044963196816950587289035428064568320970692304673817341489687455367173",
        "55464657044963196816950587289035428064568320970692304673817341489687455367170",
        "55464657044963196816950587289035428064568320970692304673817341489687455367169",
        "55464657044963196816950587289035428064568320970692304673817341489687455367168",
        "55464657044963196816950587289035428064568320970692304673817341489687463725056"
      ]
    },
    {
      "x": 38,
      "y": 10,
      "size": 1,
      "price": "2106000000000000000000",
      "reserved": "",
      "assetIds": [
        "55464657044963196816950587289035428064568320970692304673817341489687455367176",
        "55464657044963196816950587289035428064568320970692304673817341489687455367170",
        "55464657044963196816950587289035428064568320970692304673817341489687455367169",
        "55464657044963196816950587289035428064568320970692304673817341489687455367168",
        "55464657044963196816950587289035428064568320970692304673817341489687463725056"
      ]
    },
    {
      "x": 40,
      "y": 10,
      "size": 1,
      "price": "2106000000000000000000",
      "reserved": "",
      "assetIds": [
        "55464657044963196816950587289035428064568320970692304673817341489687455367176",
        "55464657044963196816950587289035428064568320970692304673817341489687455367170",
        "55464657044963196816950587289035428064568320970692304673817341489687455367169",
        "55464657044963196816950587289035428064568320970692304673817341489687455367168",
        "55464657044963196816950587289035428064568320970692304673817341489687463725056"
      ]
    },
    {
      "x": 43,
      "y": 10,
      "size": 1,
      "price": "2106000000000000000000",
      "reserved": "",
      "assetIds": [
        "55464657044963196816950587289035428064568320970692304673817341489687455367180",
        "55464657044963196816950587289035428064568320970692304673817341489687455367171",
        "55464657044963196816950587289035428064568320970692304673817341489687455367169",
        "55464657044963196816950587289035428064568320970692304673817341489687455367168",
        "55464657044963196816950587289035428064568320970692304673817341489687463725056"
      ]
    },
    {
      "x": 36,
      "y": 10,
      "size": 1,
      "price": "2106000000000000000000",
      "reserved": "",
      "assetIds": [
        "55464657044963196816950587289035428064568320970692304673817341489687455367182",
        "55464657044963196816950587289035428064568320970692304673817341489687455367171",
        "55464657044963196816950587289035428064568320970692304673817341489687455367169",
        "55464657044963196816950587289035428064568320970692304673817341489687455367168",
        "55464657044963196816950587289035428064568320970692304673817341489687463725056"
      ]
    },
    {
      "x": 35,
      "y": 11,
      "size": 1,
      "price": "2106000000000000000000",
      "reserved": "",
      "assetIds": [
        "55464657044963196816950587289035428064568320970692304673817341489687455367179",
        "55464657044963196816950587289035428064568320970692304673817341489687455367171",
        "55464657044963196816950587289035428064568320970692304673817341489687455367169",
        "55464657044963196816950587289035428064568320970692304673817341489687455367168",
        "55464657044963196816950587289035428064568320970692304673817341489687463725056"
      ]
    },
    {
      "x": 35,
      "y": 10,
      "size": 1,
      "price": "2106000000000000000000",
      "reserved": "",
      "assetIds": [
        "55464657044963196816950587289035428064568320970692304673817341489687455367173",
        "55464657044963196816950587289035428064568320970692304673817341489687455367170",
        "55464657044963196816950587289035428064568320970692304673817341489687455367169",
        "55464657044963196816950587289035428064568320970692304673817341489687455367168",
        "55464657044963196816950587289035428064568320970692304673817341489687463725056"
      ]
    },
    {
      "x": 35,
      "y": 23,
      "size": 1,
      "price": "2106000000000000000000",
      "reserved": "",
      "assetIds": [
        "55464657044963196816950587289035428064568320970692304673817341489687455367181",
        "55464657044963196816950587289035428064568320970692304673817341489687455367171",
        "55464657044963196816950587289035428064568320970692304673817341489687455367169",
        "55464657044963196816950587289035428064568320970692304673817341489687455367168",
        "55464657044963196816950587289035428064568320970692304673817341489687463725056"
      ]
    },
    {
      "x": 35,
      "y": 22,
      "size": 1,
      "price": "2106000000000000000000",
      "reserved": "",
      "assetIds": [
        "55464657044963196816950587289035428064568320970692304673817341489687455367182",
        "55464657044963196816950587289035428064568320970692304673817341489687455367171",
        "55464657044963196816950587289035428064568320970692304673817341489687455367169",
        "55464657044963196816950587289035428064568320970692304673817341489687455367168",
        "55464657044963196816950587289035428064568320970692304673817341489687463725056"
      ]
    },
    {
      "x": 34,
      "y": 22,
      "size": 1,
      "price": "2106000000000000000000",
      "reserved": "",
      "assetIds": [
        "55464657044963196816950587289035428064568320970692304673817341489687455367176",
        "55464657044963196816950587289035428064568320970692304673817341489687455367170",
        "55464657044963196816950587289035428064568320970692304673817341489687455367169",
        "55464657044963196816950587289035428064568320970692304673817341489687455367168",
        "55464657044963196816950587289035428064568320970692304673817341489687463725056"
      ]
    },
    {
      "x": 34,
      "y": 21,
      "size": 1,
      "price": "2106000000000000000000",
      "reserved": "",
      "assetIds": [
        "55464657044963196816950587289035428064568320970692304673817341489687455367173",
        "55464657044963196816950587289035428064568320970692304673817341489687455367170",
        "55464657044963196816950587289035428064568320970692304673817341489687455367169",
        "55464657044963196816950587289035428064568320970692304673817341489687455367168",
        "55464657044963196816950587289035428064568320970692304673817341489687463725056"
      ]
    },
    {
      "x": 34,
      "y": 20,
      "size": 1,
      "price": "2106000000000000000000",
      "reserved": "",
      "assetIds": [
        "55464657044963196816950587289035428064568320970692304673817341489687455367177",
        "55464657044963196816950587289035428064568320970692304673817341489687455367170",
        "55464657044963196816950587289035428064568320970692304673817341489687455367169",
        "55464657044963196816950587289035428064568320970692304673817341489687455367168",
        "55464657044963196816950587289035428064568320970692304673817341489687463725056"
      ]
    },
    {
      "x": 34,
      "y": 19,
      "size": 1,
      "price": "2106000000000000000000",
      "reserved": "",
      "assetIds": [
        "55464657044963196816950587289035428064568320970692304673817341489687455367174",
        "55464657044963196816950587289035428064568320970692304673817341489687455367170",
        "55464657044963196816950587289035428064568320970692304673817341489687455367169",
        "55464657044963196816950587289035428064568320970692304673817341489687455367168",
        "55464657044963196816950587289035428064568320970692304673817341489687463725056"
      ]
    },
    {
      "x": 34,
      "y": 18,
      "size": 1,
      "price": "2106000000000000000000",
      "reserved": "",
      "assetIds": [
        "55464657044963196816950587289035428064568320970692304673817341489687455367177",
        "55464657044963196816950587289035428064568320970692304673817341489687455367170",
        "55464657044963196816950587289035428064568320970692304673817341489687455367169",
        "55464657044963196816950587289035428064568320970692304673817341489687455367168",
        "55464657044963196816950587289035428064568320970692304673817341489687463725056"
      ]
    },
    {
      "x": 34,
      "y": 17,
      "size": 1,
      "price": "2106000000000000000000",
      "reserved": "",
      "assetIds": [
        "55464657044963196816950587289035428064568320970692304673817341489687455367173",
        "55464657044963196816950587289035428064568320970692304673817341489687455367170",
        "55464657044963196816950587289035428064568320970692304673817341489687455367169",
        "55464657044963196816950587289035428064568320970692304673817341489687455367168",
        "55464657044963196816950587289035428064568320970692304673817341489687463725056"
      ]
    },
    {
      "x": 35,
      "y": 17,
      "size": 1,
      "price": "2106000000000000000000",
      "reserved": "",
      "assetIds": [
        "55464657044963196816950587289035428064568320970692304673817341489687455367172",
        "55464657044963196816950587289035428064568320970692304673817341489687455367170",
        "55464657044963196816950587289035428064568320970692304673817341489687455367169",
        "55464657044963196816950587289035428064568320970692304673817341489687455367168",
        "55464657044963196816950587289035428064568320970692304673817341489687463725056"
      ]
    },
    {
      "x": 35,
      "y": 16,
      "size": 1,
      "price": "2106000000000000000000",
      "reserved": "",
      "assetIds": [
        "55464657044963196816950587289035428064568320970692304673817341489687455367179",
        "55464657044963196816950587289035428064568320970692304673817341489687455367171",
        "55464657044963196816950587289035428064568320970692304673817341489687455367169",
        "55464657044963196816950587289035428064568320970692304673817341489687455367168",
        "55464657044963196816950587289035428064568320970692304673817341489687463725056"
      ]
    },
    {
      "x": 35,
      "y": 15,
      "size": 1,
      "price": "2106000000000000000000",
      "reserved": "",
      "assetIds": [
        "55464657044963196816950587289035428064568320970692304673817341489687455367177",
        "55464657044963196816950587289035428064568320970692304673817341489687455367170",
        "55464657044963196816950587289035428064568320970692304673817341489687455367169",
        "55464657044963196816950587289035428064568320970692304673817341489687455367168",
        "55464657044963196816950587289035428064568320970692304673817341489687463725056"
      ]
    },
    {
      "x": 35,
      "y": 14,
      "size": 1,
      "price": "2106000000000000000000",
      "reserved": "",
      "assetIds": [
        "55464657044963196816950587289035428064568320970692304673817341489687455367173",
        "55464657044963196816950587289035428064568320970692304673817341489687455367170",
        "55464657044963196816950587289035428064568320970692304673817341489687455367169",
        "55464657044963196816950587289035428064568320970692304673817341489687455367168",
        "55464657044963196816950587289035428064568320970692304673817341489687463725056"
      ]
    },
    {
      "x": 35,
      "y": 13,
      "size": 1,
      "price": "2106000000000000000000",
      "reserved": "",
      "assetIds": [
        "55464657044963196816950587289035428064568320970692304673817341489687455367180",
        "55464657044963196816950587289035428064568320970692304673817341489687455367171",
        "55464657044963196816950587289035428064568320970692304673817341489687455367169",
        "55464657044963196816950587289035428064568320970692304673817341489687455367168",
        "55464657044963196816950587289035428064568320970692304673817341489687463725056"
      ]
    },
    {
      "x": 35,
      "y": 12,
      "size": 1,
      "price": "2106000000000000000000",
      "reserved": "",
      "assetIds": [
        "55464657044963196816950587289035428064568320970692304673817341489687455367179",
        "55464657044963196816950587289035428064568320970692304673817341489687455367171",
        "55464657044963196816950587289035428064568320970692304673817341489687455367169",
        "55464657044963196816950587289035428064568320970692304673817341489687455367168",
        "55464657044963196816950587289035428064568320970692304673817341489687463725056"
      ]
    },
    {
      "x": 35,
      "y": 21,
      "size": 1,
      "price": "2106000000000000000000",
      "reserved": "",
      "assetIds": [
        "55464657044963196816950587289035428064568320970692304673817341489687455367177",
        "55464657044963196816950587289035428064568320970692304673817341489687455367170",
        "55464657044963196816950587289035428064568320970692304673817341489687455367169",
        "55464657044963196816950587289035428064568320970692304673817341489687455367168",
        "55464657044963196816950587289035428064568320970692304673817341489687463725056"
      ]
    },
    {
      "x": 35,
      "y": 20,
      "size": 1,
      "price": "2106000000000000000000",
      "reserved": "",
      "assetIds": [
        "55464657044963196816950587289035428064568320970692304673817341489687455367173",
        "55464657044963196816950587289035428064568320970692304673817341489687455367170",
        "55464657044963196816950587289035428064568320970692304673817341489687455367169",
        "55464657044963196816950587289035428064568320970692304673817341489687455367168",
        "55464657044963196816950587289035428064568320970692304673817341489687463725056"
      ]
    },
    {
      "x": 35,
      "y": 19,
      "size": 1,
      "price": "2106000000000000000000",
      "reserved": "",
      "assetIds": [
        "55464657044963196816950587289035428064568320970692304673817341489687455367172",
        "55464657044963196816950587289035428064568320970692304673817341489687455367170",
        "55464657044963196816950587289035428064568320970692304673817341489687455367169",
        "55464657044963196816950587289035428064568320970692304673817341489687455367168",
        "55464657044963196816950587289035428064568320970692304673817341489687463725056"
      ]
    },
    {
      "x": 35,
      "y": 18,
      "size": 1,
      "price": "2106000000000000000000",
      "reserved": "",
      "assetIds": [
        "55464657044963196816950587289035428064568320970692304673817341489687455367182",
        "55464657044963196816950587289035428064568320970692304673817341489687455367171",
        "55464657044963196816950587289035428064568320970692304673817341489687455367169",
        "55464657044963196816950587289035428064568320970692304673817341489687455367168",
        "55464657044963196816950587289035428064568320970692304673817341489687463725056"
      ]
    },
    {
      "x": 34,
      "y": 23,
      "size": 1,
      "price": "2106000000000000000000",
      "reserved": "",
      "assetIds": [
        "55464657044963196816950587289035428064568320970692304673817341489687455367175",
        "55464657044963196816950587289035428064568320970692304673817341489687455367170",
        "55464657044963196816950587289035428064568320970692304673817341489687455367169",
        "55464657044963196816950587289035428064568320970692304673817341489687455367168",
        "55464657044963196816950587289035428064568320970692304673817341489687463725056"
      ]
    },
    {
      "x": 33,
      "y": 23,
      "size": 1,
      "price": "2106000000000000000000",
      "reserved": "",
      "assetIds": [
        "55464657044963196816950587289035428064568320970692304673817341489687455367181",
        "55464657044963196816950587289035428064568320970692304673817341489687455367171",
        "55464657044963196816950587289035428064568320970692304673817341489687455367169",
        "55464657044963196816950587289035428064568320970692304673817341489687455367168",
        "55464657044963196816950587289035428064568320970692304673817341489687463725056"
      ]
    },
    {
      "x": 32,
      "y": 23,
      "size": 1,
      "price": "2106000000000000000000",
      "reserved": "",
      "assetIds": [
        "55464657044963196816950587289035428064568320970692304673817341489687455367172",
        "55464657044963196816950587289035428064568320970692304673817341489687455367170",
        "55464657044963196816950587289035428064568320970692304673817341489687455367169",
        "55464657044963196816950587289035428064568320970692304673817341489687455367168",
        "55464657044963196816950587289035428064568320970692304673817341489687463725056"
      ]
    },
    {
      "x": 31,
      "y": 23,
      "size": 1,
      "price": "2106000000000000000000",
      "reserved": "",
      "assetIds": [
        "55464657044963196816950587289035428064568320970692304673817341489687455367177",
        "55464657044963196816950587289035428064568320970692304673817341489687455367170",
        "55464657044963196816950587289035428064568320970692304673817341489687455367169",
        "55464657044963196816950587289035428064568320970692304673817341489687455367168",
        "55464657044963196816950587289035428064568320970692304673817341489687463725056"
      ]
    },
    {
      "x": 31,
      "y": 22,
      "size": 1,
      "price": "2106000000000000000000",
      "reserved": "",
      "assetIds": [
        "55464657044963196816950587289035428064568320970692304673817341489687455367179",
        "55464657044963196816950587289035428064568320970692304673817341489687455367171",
        "55464657044963196816950587289035428064568320970692304673817341489687455367169",
        "55464657044963196816950587289035428064568320970692304673817341489687455367168",
        "55464657044963196816950587289035428064568320970692304673817341489687463725056"
      ]
    },
    {
      "x": 30,
      "y": 22,
      "size": 1,
      "price": "2106000000000000000000",
      "reserved": "",
      "assetIds": [
        "55464657044963196816950587289035428064568320970692304673817341489687455367178",
        "55464657044963196816950587289035428064568320970692304673817341489687455367171",
        "55464657044963196816950587289035428064568320970692304673817341489687455367169",
        "55464657044963196816950587289035428064568320970692304673817341489687455367168",
        "55464657044963196816950587289035428064568320970692304673817341489687463725056"
      ]
    },
    {
      "x": 29,
      "y": 22,
      "size": 1,
      "price": "2106000000000000000000",
      "reserved": "",
      "assetIds": [
        "55464657044963196816950587289035428064568320970692304673817341489687455367172",
        "55464657044963196816950587289035428064568320970692304673817341489687455367170",
        "55464657044963196816950587289035428064568320970692304673817341489687455367169",
        "55464657044963196816950587289035428064568320970692304673817341489687455367168",
        "55464657044963196816950587289035428064568320970692304673817341489687463725056"
      ]
    },
    {
      "x": 28,
      "y": 22,
      "size": 1,
      "price": "2106000000000000000000",
      "reserved": "",
      "assetIds": [
        "55464657044963196816950587289035428064568320970692304673817341489687455367175",
        "55464657044963196816950587289035428064568320970692304673817341489687455367170",
        "55464657044963196816950587289035428064568320970692304673817341489687455367169",
        "55464657044963196816950587289035428064568320970692304673817341489687455367168",
        "55464657044963196816950587289035428064568320970692304673817341489687463725056"
      ]
    },
    {
      "x": 27,
      "y": 22,
      "size": 1,
      "price": "2106000000000000000000",
      "reserved": "",
      "assetIds": [
        "55464657044963196816950587289035428064568320970692304673817341489687455367172",
        "55464657044963196816950587289035428064568320970692304673817341489687455367170",
        "55464657044963196816950587289035428064568320970692304673817341489687455367169",
        "55464657044963196816950587289035428064568320970692304673817341489687455367168",
        "55464657044963196816950587289035428064568320970692304673817341489687463725056"
      ]
    },
    {
      "x": 26,
      "y": 22,
      "size": 1,
      "price": "2106000000000000000000",
      "reserved": "",
      "assetIds": [
        "55464657044963196816950587289035428064568320970692304673817341489687455367178",
        "55464657044963196816950587289035428064568320970692304673817341489687455367171",
        "55464657044963196816950587289035428064568320970692304673817341489687455367169",
        "55464657044963196816950587289035428064568320970692304673817341489687455367168",
        "55464657044963196816950587289035428064568320970692304673817341489687463725056"
      ]
    },
    {
      "x": 25,
      "y": 22,
      "size": 1,
      "price": "2106000000000000000000",
      "reserved": "",
      "assetIds": [
        "55464657044963196816950587289035428064568320970692304673817341489687455367180",
        "55464657044963196816950587289035428064568320970692304673817341489687455367171",
        "55464657044963196816950587289035428064568320970692304673817341489687455367169",
        "55464657044963196816950587289035428064568320970692304673817341489687455367168",
        "55464657044963196816950587289035428064568320970692304673817341489687463725056"
      ]
    },
    {
      "x": 24,
      "y": 22,
      "size": 1,
      "price": "2106000000000000000000",
      "reserved": "",
      "assetIds": [
        "55464657044963196816950587289035428064568320970692304673817341489687455367173",
        "55464657044963196816950587289035428064568320970692304673817341489687455367170",
        "55464657044963196816950587289035428064568320970692304673817341489687455367169",
        "55464657044963196816950587289035428064568320970692304673817341489687455367168",
        "55464657044963196816950587289035428064568320970692304673817341489687463725056"
      ]
    },
    {
      "x": 23,
      "y": 22,
      "size": 1,
      "price": "2106000000000000000000",
      "reserved": "",
      "assetIds": [
        "55464657044963196816950587289035428064568320970692304673817341489687455367175",
        "55464657044963196816950587289035428064568320970692304673817341489687455367170",
        "55464657044963196816950587289035428064568320970692304673817341489687455367169",
        "55464657044963196816950587289035428064568320970692304673817341489687455367168",
        "55464657044963196816950587289035428064568320970692304673817341489687463725056"
      ]
    },
    {
      "x": 22,
      "y": 22,
      "size": 1,
      "price": "2106000000000000000000",
      "reserved": "",
      "assetIds": [
        "55464657044963196816950587289035428064568320970692304673817341489687455367176",
        "55464657044963196816950587289035428064568320970692304673817341489687455367170",
        "55464657044963196816950587289035428064568320970692304673817341489687455367169",
        "55464657044963196816950587289035428064568320970692304673817341489687455367168",
        "55464657044963196816950587289035428064568320970692304673817341489687463725056"
      ]
    },
    {
      "x": 21,
      "y": 22,
      "size": 1,
      "price": "2106000000000000000000",
      "reserved": "",
      "assetIds": [
        "55464657044963196816950587289035428064568320970692304673817341489687455367174",
        "55464657044963196816950587289035428064568320970692304673817341489687455367170",
        "55464657044963196816950587289035428064568320970692304673817341489687455367169",
        "55464657044963196816950587289035428064568320970692304673817341489687455367168",
        "55464657044963196816950587289035428064568320970692304673817341489687463725056"
      ]
    },
    {
      "x": 21,
      "y": 23,
      "size": 1,
      "price": "2106000000000000000000",
      "reserved": "",
      "assetIds": [
        "55464657044963196816950587289035428064568320970692304673817341489687455367175",
        "55464657044963196816950587289035428064568320970692304673817341489687455367170",
        "55464657044963196816950587289035428064568320970692304673817341489687455367169",
        "55464657044963196816950587289035428064568320970692304673817341489687455367168",
        "55464657044963196816950587289035428064568320970692304673817341489687463725056"
      ]
    },
    {
      "x": 24,
      "y": 23,
      "size": 1,
      "price": "2106000000000000000000",
      "reserved": "",
      "assetIds": [
        "55464657044963196816950587289035428064568320970692304673817341489687455367178",
        "55464657044963196816950587289035428064568320970692304673817341489687455367171",
        "55464657044963196816950587289035428064568320970692304673817341489687455367169",
        "55464657044963196816950587289035428064568320970692304673817341489687455367168",
        "55464657044963196816950587289035428064568320970692304673817341489687463725056"
      ]
    },
    {
      "x": 25,
      "y": 23,
      "size": 1,
      "price": "2106000000000000000000",
      "reserved": "",
      "assetIds": [
        "55464657044963196816950587289035428064568320970692304673817341489687455367175",
        "55464657044963196816950587289035428064568320970692304673817341489687455367170",
        "55464657044963196816950587289035428064568320970692304673817341489687455367169",
        "55464657044963196816950587289035428064568320970692304673817341489687455367168",
        "55464657044963196816950587289035428064568320970692304673817341489687463725056"
      ]
    },
    {
      "x": 26,
      "y": 23,
      "size": 1,
      "price": "2106000000000000000000",
      "reserved": "",
      "assetIds": [
        "55464657044963196816950587289035428064568320970692304673817341489687455367180",
        "55464657044963196816950587289035428064568320970692304673817341489687455367171",
        "55464657044963196816950587289035428064568320970692304673817341489687455367169",
        "55464657044963196816950587289035428064568320970692304673817341489687455367168",
        "55464657044963196816950587289035428064568320970692304673817341489687463725056"
      ]
    },
    {
      "x": 27,
      "y": 23,
      "size": 1,
      "price": "2106000000000000000000",
      "reserved": "",
      "assetIds": [
        "55464657044963196816950587289035428064568320970692304673817341489687455367179",
        "55464657044963196816950587289035428064568320970692304673817341489687455367171",
        "55464657044963196816950587289035428064568320970692304673817341489687455367169",
        "55464657044963196816950587289035428064568320970692304673817341489687455367168",
        "55464657044963196816950587289035428064568320970692304673817341489687463725056"
      ]
    },
    {
      "x": 28,
      "y": 23,
      "size": 1,
      "price": "2106000000000000000000",
      "reserved": "",
      "assetIds": [
        "55464657044963196816950587289035428064568320970692304673817341489687455367174",
        "55464657044963196816950587289035428064568320970692304673817341489687455367170",
        "55464657044963196816950587289035428064568320970692304673817341489687455367169",
        "55464657044963196816950587289035428064568320970692304673817341489687455367168",
        "55464657044963196816950587289035428064568320970692304673817341489687463725056"
      ]
    },
    {
      "x": 29,
      "y": 23,
      "size": 1,
      "price": "2106000000000000000000",
      "reserved": "",
      "assetIds": [
        "55464657044963196816950587289035428064568320970692304673817341489687455367180",
        "55464657044963196816950587289035428064568320970692304673817341489687455367171",
        "55464657044963196816950587289035428064568320970692304673817341489687455367169",
        "55464657044963196816950587289035428064568320970692304673817341489687455367168",
        "55464657044963196816950587289035428064568320970692304673817341489687463725056"
      ]
    },
    {
      "x": 30,
      "y": 23,
      "size": 1,
      "price": "2106000000000000000000",
      "reserved": "",
      "assetIds": [
        "55464657044963196816950587289035428064568320970692304673817341489687455367177",
        "55464657044963196816950587289035428064568320970692304673817341489687455367170",
        "55464657044963196816950587289035428064568320970692304673817341489687455367169",
        "55464657044963196816950587289035428064568320970692304673817341489687455367168",
        "55464657044963196816950587289035428064568320970692304673817341489687463725056"
      ]
    },
    {
      "x": 23,
      "y": 23,
      "size": 1,
      "price": "2106000000000000000000",
      "reserved": "",
      "assetIds": [
        "55464657044963196816950587289035428064568320970692304673817341489687455367176",
        "55464657044963196816950587289035428064568320970692304673817341489687455367170",
        "55464657044963196816950587289035428064568320970692304673817341489687455367169",
        "55464657044963196816950587289035428064568320970692304673817341489687455367168",
        "55464657044963196816950587289035428064568320970692304673817341489687463725056"
      ]
    },
    {
      "x": 22,
      "y": 23,
      "size": 1,
      "price": "2106000000000000000000",
      "reserved": "",
      "assetIds": [
        "55464657044963196816950587289035428064568320970692304673817341489687455367176",
        "55464657044963196816950587289035428064568320970692304673817341489687455367170",
        "55464657044963196816950587289035428064568320970692304673817341489687455367169",
        "55464657044963196816950587289035428064568320970692304673817341489687455367168",
        "55464657044963196816950587289035428064568320970692304673817341489687463725056"
      ]
    },
    {
      "x": 22,
      "y": 24,
      "size": 1,
      "price": "2106000000000000000000",
      "reserved": "",
      "assetIds": [
        "55464657044963196816950587289035428064568320970692304673817341489687455367180",
        "55464657044963196816950587289035428064568320970692304673817341489687455367171",
        "55464657044963196816950587289035428064568320970692304673817341489687455367169",
        "55464657044963196816950587289035428064568320970692304673817341489687455367168",
        "55464657044963196816950587289035428064568320970692304673817341489687463725056"
      ]
    },
    {
      "x": 23,
      "y": 47,
      "size": 1,
      "price": "2106000000000000000000",
      "reserved": "",
      "assetIds": [
        "55464657044963196816950587289035428064568320970692304673817341489687455367183",
        "55464657044963196816950587289035428064568320970692304673817341489687455367171",
        "55464657044963196816950587289035428064568320970692304673817341489687455367169",
        "55464657044963196816950587289035428064568320970692304673817341489687455367168",
        "55464657044963196816950587289035428064568320970692304673817341489687463725056"
      ]
    },
    {
      "x": 23,
      "y": 46,
      "size": 1,
      "price": "2106000000000000000000",
      "reserved": "",
      "assetIds": [
        "55464657044963196816950587289035428064568320970692304673817341489687455367175",
        "55464657044963196816950587289035428064568320970692304673817341489687455367170",
        "55464657044963196816950587289035428064568320970692304673817341489687455367169",
        "55464657044963196816950587289035428064568320970692304673817341489687455367168",
        "55464657044963196816950587289035428064568320970692304673817341489687463725056"
      ]
    },
    {
      "x": 22,
      "y": 46,
      "size": 1,
      "price": "2106000000000000000000",
      "reserved": "",
      "assetIds": [
        "55464657044963196816950587289035428064568320970692304673817341489687455367172",
        "55464657044963196816950587289035428064568320970692304673817341489687455367170",
        "55464657044963196816950587289035428064568320970692304673817341489687455367169",
        "55464657044963196816950587289035428064568320970692304673817341489687455367168",
        "55464657044963196816950587289035428064568320970692304673817341489687463725056"
      ]
    },
    {
      "x": 22,
      "y": 45,
      "size": 1,
      "price": "2106000000000000000000",
      "reserved": "",
      "assetIds": [
        "55464657044963196816950587289035428064568320970692304673817341489687455367174",
        "55464657044963196816950587289035428064568320970692304673817341489687455367170",
        "55464657044963196816950587289035428064568320970692304673817341489687455367169",
        "55464657044963196816950587289035428064568320970692304673817341489687455367168",
        "55464657044963196816950587289035428064568320970692304673817341489687463725056"
      ]
    },
    {
      "x": 22,
      "y": 43,
      "size": 1,
      "price": "2106000000000000000000",
      "reserved": "",
      "assetIds": [
        "55464657044963196816950587289035428064568320970692304673817341489687455367174",
        "55464657044963196816950587289035428064568320970692304673817341489687455367170",
        "55464657044963196816950587289035428064568320970692304673817341489687455367169",
        "55464657044963196816950587289035428064568320970692304673817341489687455367168",
        "55464657044963196816950587289035428064568320970692304673817341489687463725056"
      ]
    },
    {
      "x": 22,
      "y": 42,
      "size": 1,
      "price": "2106000000000000000000",
      "reserved": "",
      "assetIds": [
        "55464657044963196816950587289035428064568320970692304673817341489687455367181",
        "55464657044963196816950587289035428064568320970692304673817341489687455367171",
        "55464657044963196816950587289035428064568320970692304673817341489687455367169",
        "55464657044963196816950587289035428064568320970692304673817341489687455367168",
        "55464657044963196816950587289035428064568320970692304673817341489687463725056"
      ]
    },
    {
      "x": 22,
      "y": 41,
      "size": 1,
      "price": "2106000000000000000000",
      "reserved": "",
      "assetIds": [
        "55464657044963196816950587289035428064568320970692304673817341489687455367175",
        "55464657044963196816950587289035428064568320970692304673817341489687455367170",
        "55464657044963196816950587289035428064568320970692304673817341489687455367169",
        "55464657044963196816950587289035428064568320970692304673817341489687455367168",
        "55464657044963196816950587289035428064568320970692304673817341489687463725056"
      ]
    },
    {
      "x": 22,
      "y": 40,
      "size": 1,
      "price": "2106000000000000000000",
      "reserved": "",
      "assetIds": [
        "55464657044963196816950587289035428064568320970692304673817341489687455367180",
        "55464657044963196816950587289035428064568320970692304673817341489687455367171",
        "55464657044963196816950587289035428064568320970692304673817341489687455367169",
        "55464657044963196816950587289035428064568320970692304673817341489687455367168",
        "55464657044963196816950587289035428064568320970692304673817341489687463725056"
      ]
    },
    {
      "x": 23,
      "y": 40,
      "size": 1,
      "price": "2106000000000000000000",
      "reserved": "",
      "assetIds": [
        "55464657044963196816950587289035428064568320970692304673817341489687455367183",
        "55464657044963196816950587289035428064568320970692304673817341489687455367171",
        "55464657044963196816950587289035428064568320970692304673817341489687455367169",
        "55464657044963196816950587289035428064568320970692304673817341489687455367168",
        "55464657044963196816950587289035428064568320970692304673817341489687463725056"
      ]
    },
    {
      "x": 23,
      "y": 39,
      "size": 1,
      "price": "2106000000000000000000",
      "reserved": "",
      "assetIds": [
        "55464657044963196816950587289035428064568320970692304673817341489687455367180",
        "55464657044963196816950587289035428064568320970692304673817341489687455367171",
        "55464657044963196816950587289035428064568320970692304673817341489687455367169",
        "55464657044963196816950587289035428064568320970692304673817341489687455367168",
        "55464657044963196816950587289035428064568320970692304673817341489687463725056"
      ]
    },
    {
      "x": 23,
      "y": 38,
      "size": 1,
      "price": "2106000000000000000000",
      "reserved": "",
      "assetIds": [
        "55464657044963196816950587289035428064568320970692304673817341489687455367183",
        "55464657044963196816950587289035428064568320970692304673817341489687455367171",
        "55464657044963196816950587289035428064568320970692304673817341489687455367169",
        "55464657044963196816950587289035428064568320970692304673817341489687455367168",
        "55464657044963196816950587289035428064568320970692304673817341489687463725056"
      ]
    },
    {
      "x": 23,
      "y": 37,
      "size": 1,
      "price": "2106000000000000000000",
      "reserved": "",
      "assetIds": [
        "55464657044963196816950587289035428064568320970692304673817341489687455367179",
        "55464657044963196816950587289035428064568320970692304673817341489687455367171",
        "55464657044963196816950587289035428064568320970692304673817341489687455367169",
        "55464657044963196816950587289035428064568320970692304673817341489687455367168",
        "55464657044963196816950587289035428064568320970692304673817341489687463725056"
      ]
    },
    {
      "x": 23,
      "y": 36,
      "size": 1,
      "price": "2106000000000000000000",
      "reserved": "",
      "assetIds": [
        "55464657044963196816950587289035428064568320970692304673817341489687455367172",
        "55464657044963196816950587289035428064568320970692304673817341489687455367170",
        "55464657044963196816950587289035428064568320970692304673817341489687455367169",
        "55464657044963196816950587289035428064568320970692304673817341489687455367168",
        "55464657044963196816950587289035428064568320970692304673817341489687463725056"
      ]
    },
    {
      "x": 22,
      "y": 39,
      "size": 1,
      "price": "2106000000000000000000",
      "reserved": "",
      "assetIds": [
        "55464657044963196816950587289035428064568320970692304673817341489687455367178",
        "55464657044963196816950587289035428064568320970692304673817341489687455367171",
        "55464657044963196816950587289035428064568320970692304673817341489687455367169",
        "55464657044963196816950587289035428064568320970692304673817341489687455367168",
        "55464657044963196816950587289035428064568320970692304673817341489687463725056"
      ]
    },
    {
      "x": 22,
      "y": 38,
      "size": 1,
      "price": "2106000000000000000000",
      "reserved": "",
      "assetIds": [
        "55464657044963196816950587289035428064568320970692304673817341489687455367182",
        "55464657044963196816950587289035428064568320970692304673817341489687455367171",
        "55464657044963196816950587289035428064568320970692304673817341489687455367169",
        "55464657044963196816950587289035428064568320970692304673817341489687455367168",
        "55464657044963196816950587289035428064568320970692304673817341489687463725056"
      ]
    },
    {
      "x": 22,
      "y": 37,
      "size": 1,
      "price": "2106000000000000000000",
      "reserved": "",
      "assetIds": [
        "55464657044963196816950587289035428064568320970692304673817341489687455367176",
        "55464657044963196816950587289035428064568320970692304673817341489687455367170",
        "55464657044963196816950587289035428064568320970692304673817341489687455367169",
        "55464657044963196816950587289035428064568320970692304673817341489687455367168",
        "55464657044963196816950587289035428064568320970692304673817341489687463725056"
      ]
    },
    {
      "x": 22,
      "y": 36,
      "size": 1,
      "price": "2106000000000000000000",
      "reserved": "",
      "assetIds": [
        "55464657044963196816950587289035428064568320970692304673817341489687455367177",
        "55464657044963196816950587289035428064568320970692304673817341489687455367170",
        "55464657044963196816950587289035428064568320970692304673817341489687455367169",
        "55464657044963196816950587289035428064568320970692304673817341489687455367168",
        "55464657044963196816950587289035428064568320970692304673817341489687463725056"
      ]
    },
    {
      "x": 22,
      "y": 35,
      "size": 1,
      "price": "2106000000000000000000",
      "reserved": "",
      "assetIds": [
        "55464657044963196816950587289035428064568320970692304673817341489687455367178",
        "55464657044963196816950587289035428064568320970692304673817341489687455367171",
        "55464657044963196816950587289035428064568320970692304673817341489687455367169",
        "55464657044963196816950587289035428064568320970692304673817341489687455367168",
        "55464657044963196816950587289035428064568320970692304673817341489687463725056"
      ]
    },
    {
      "x": 22,
      "y": 34,
      "size": 1,
      "price": "2106000000000000000000",
      "reserved": "",
      "assetIds": [
        "55464657044963196816950587289035428064568320970692304673817341489687455367174",
        "55464657044963196816950587289035428064568320970692304673817341489687455367170",
        "55464657044963196816950587289035428064568320970692304673817341489687455367169",
        "55464657044963196816950587289035428064568320970692304673817341489687455367168",
        "55464657044963196816950587289035428064568320970692304673817341489687463725056"
      ]
    },
    {
      "x": 22,
      "y": 33,
      "size": 1,
      "price": "2106000000000000000000",
      "reserved": "",
      "assetIds": [
        "55464657044963196816950587289035428064568320970692304673817341489687455367178",
        "55464657044963196816950587289035428064568320970692304673817341489687455367171",
        "55464657044963196816950587289035428064568320970692304673817341489687455367169",
        "55464657044963196816950587289035428064568320970692304673817341489687455367168",
        "55464657044963196816950587289035428064568320970692304673817341489687463725056"
      ]
    },
    {
      "x": 22,
      "y": 32,
      "size": 1,
      "price": "2106000000000000000000",
      "reserved": "",
      "assetIds": [
        "55464657044963196816950587289035428064568320970692304673817341489687455367177",
        "55464657044963196816950587289035428064568320970692304673817341489687455367170",
        "55464657044963196816950587289035428064568320970692304673817341489687455367169",
        "55464657044963196816950587289035428064568320970692304673817341489687455367168",
        "55464657044963196816950587289035428064568320970692304673817341489687463725056"
      ]
    },
    {
      "x": 22,
      "y": 31,
      "size": 1,
      "price": "2106000000000000000000",
      "reserved": "",
      "assetIds": [
        "55464657044963196816950587289035428064568320970692304673817341489687455367178",
        "55464657044963196816950587289035428064568320970692304673817341489687455367171",
        "55464657044963196816950587289035428064568320970692304673817341489687455367169",
        "55464657044963196816950587289035428064568320970692304673817341489687455367168",
        "55464657044963196816950587289035428064568320970692304673817341489687463725056"
      ]
    },
    {
      "x": 22,
      "y": 29,
      "size": 1,
      "price": "2106000000000000000000",
      "reserved": "",
      "assetIds": [
        "55464657044963196816950587289035428064568320970692304673817341489687455367175",
        "55464657044963196816950587289035428064568320970692304673817341489687455367170",
        "55464657044963196816950587289035428064568320970692304673817341489687455367169",
        "55464657044963196816950587289035428064568320970692304673817341489687455367168",
        "55464657044963196816950587289035428064568320970692304673817341489687463725056"
      ]
    },
    {
      "x": 22,
      "y": 28,
      "size": 1,
      "price": "2106000000000000000000",
      "reserved": "",
      "assetIds": [
        "55464657044963196816950587289035428064568320970692304673817341489687455367176",
        "55464657044963196816950587289035428064568320970692304673817341489687455367170",
        "55464657044963196816950587289035428064568320970692304673817341489687455367169",
        "55464657044963196816950587289035428064568320970692304673817341489687455367168",
        "55464657044963196816950587289035428064568320970692304673817341489687463725056"
      ]
    },
    {
      "x": 22,
      "y": 27,
      "size": 1,
      "price": "2106000000000000000000",
      "reserved": "",
      "assetIds": [
        "55464657044963196816950587289035428064568320970692304673817341489687455367180",
        "55464657044963196816950587289035428064568320970692304673817341489687455367171",
        "55464657044963196816950587289035428064568320970692304673817341489687455367169",
        "55464657044963196816950587289035428064568320970692304673817341489687455367168",
        "55464657044963196816950587289035428064568320970692304673817341489687463725056"
      ]
    },
    {
      "x": 22,
      "y": 25,
      "size": 1,
      "price": "2106000000000000000000",
      "reserved": "",
      "assetIds": [
        "55464657044963196816950587289035428064568320970692304673817341489687455367178",
        "55464657044963196816950587289035428064568320970692304673817341489687455367171",
        "55464657044963196816950587289035428064568320970692304673817341489687455367169",
        "55464657044963196816950587289035428064568320970692304673817341489687455367168",
        "55464657044963196816950587289035428064568320970692304673817341489687463725056"
      ]
    },
    {
      "x": 23,
      "y": 24,
      "size": 1,
      "price": "2106000000000000000000",
      "reserved": "",
      "assetIds": [
        "55464657044963196816950587289035428064568320970692304673817341489687455367176",
        "55464657044963196816950587289035428064568320970692304673817341489687455367170",
        "55464657044963196816950587289035428064568320970692304673817341489687455367169",
        "55464657044963196816950587289035428064568320970692304673817341489687455367168",
        "55464657044963196816950587289035428064568320970692304673817341489687463725056"
      ]
    },
    {
      "x": 23,
      "y": 25,
      "size": 1,
      "price": "2106000000000000000000",
      "reserved": "",
      "assetIds": [
        "55464657044963196816950587289035428064568320970692304673817341489687455367176",
        "55464657044963196816950587289035428064568320970692304673817341489687455367170",
        "55464657044963196816950587289035428064568320970692304673817341489687455367169",
        "55464657044963196816950587289035428064568320970692304673817341489687455367168",
        "55464657044963196816950587289035428064568320970692304673817341489687463725056"
      ]
    },
    {
      "x": 23,
      "y": 26,
      "size": 1,
      "price": "2106000000000000000000",
      "reserved": "",
      "assetIds": [
        "55464657044963196816950587289035428064568320970692304673817341489687455367180",
        "55464657044963196816950587289035428064568320970692304673817341489687455367171",
        "55464657044963196816950587289035428064568320970692304673817341489687455367169",
        "55464657044963196816950587289035428064568320970692304673817341489687455367168",
        "55464657044963196816950587289035428064568320970692304673817341489687463725056"
      ]
    },
    {
      "x": 23,
      "y": 27,
      "size": 1,
      "price": "2106000000000000000000",
      "reserved": "",
      "assetIds": [
        "55464657044963196816950587289035428064568320970692304673817341489687455367180",
        "55464657044963196816950587289035428064568320970692304673817341489687455367171",
        "55464657044963196816950587289035428064568320970692304673817341489687455367169",
        "55464657044963196816950587289035428064568320970692304673817341489687455367168",
        "55464657044963196816950587289035428064568320970692304673817341489687463725056"
      ]
    },
    {
      "x": 23,
      "y": 28,
      "size": 1,
      "price": "2106000000000000000000",
      "reserved": "",
      "assetIds": [
        "55464657044963196816950587289035428064568320970692304673817341489687455367177",
        "55464657044963196816950587289035428064568320970692304673817341489687455367170",
        "55464657044963196816950587289035428064568320970692304673817341489687455367169",
        "55464657044963196816950587289035428064568320970692304673817341489687455367168",
        "55464657044963196816950587289035428064568320970692304673817341489687463725056"
      ]
    },
    {
      "x": 23,
      "y": 29,
      "size": 1,
      "price": "2106000000000000000000",
      "reserved": "",
      "assetIds": [
        "55464657044963196816950587289035428064568320970692304673817341489687455367179",
        "55464657044963196816950587289035428064568320970692304673817341489687455367171",
        "55464657044963196816950587289035428064568320970692304673817341489687455367169",
        "55464657044963196816950587289035428064568320970692304673817341489687455367168",
        "55464657044963196816950587289035428064568320970692304673817341489687463725056"
      ]
    },
    {
      "x": 23,
      "y": 30,
      "size": 1,
      "price": "2106000000000000000000",
      "reserved": "",
      "assetIds": [
        "55464657044963196816950587289035428064568320970692304673817341489687455367180",
        "55464657044963196816950587289035428064568320970692304673817341489687455367171",
        "55464657044963196816950587289035428064568320970692304673817341489687455367169",
        "55464657044963196816950587289035428064568320970692304673817341489687455367168",
        "55464657044963196816950587289035428064568320970692304673817341489687463725056"
      ]
    },
    {
      "x": 23,
      "y": 31,
      "size": 1,
      "price": "2106000000000000000000",
      "reserved": "",
      "assetIds": [
        "55464657044963196816950587289035428064568320970692304673817341489687455367174",
        "55464657044963196816950587289035428064568320970692304673817341489687455367170",
        "55464657044963196816950587289035428064568320970692304673817341489687455367169",
        "55464657044963196816950587289035428064568320970692304673817341489687455367168",
        "55464657044963196816950587289035428064568320970692304673817341489687463725056"
      ]
    },
    {
      "x": 23,
      "y": 32,
      "size": 1,
      "price": "2106000000000000000000",
      "reserved": "",
      "assetIds": [
        "55464657044963196816950587289035428064568320970692304673817341489687455367175",
        "55464657044963196816950587289035428064568320970692304673817341489687455367170",
        "55464657044963196816950587289035428064568320970692304673817341489687455367169",
        "55464657044963196816950587289035428064568320970692304673817341489687455367168",
        "55464657044963196816950587289035428064568320970692304673817341489687463725056"
      ]
    },
    {
      "x": 23,
      "y": 33,
      "size": 1,
      "price": "2106000000000000000000",
      "reserved": "",
      "assetIds": [
        "55464657044963196816950587289035428064568320970692304673817341489687455367173",
        "55464657044963196816950587289035428064568320970692304673817341489687455367170",
        "55464657044963196816950587289035428064568320970692304673817341489687455367169",
        "55464657044963196816950587289035428064568320970692304673817341489687455367168",
        "55464657044963196816950587289035428064568320970692304673817341489687463725056"
      ]
    },
    {
      "x": 23,
      "y": 34,
      "size": 1,
      "price": "2106000000000000000000",
      "reserved": "",
      "assetIds": [
        "55464657044963196816950587289035428064568320970692304673817341489687455367173",
        "55464657044963196816950587289035428064568320970692304673817341489687455367170",
        "55464657044963196816950587289035428064568320970692304673817341489687455367169",
        "55464657044963196816950587289035428064568320970692304673817341489687455367168",
        "55464657044963196816950587289035428064568320970692304673817341489687463725056"
      ]
    },
    {
      "x": 23,
      "y": 35,
      "size": 1,
      "price": "2106000000000000000000",
      "reserved": "",
      "assetIds": [
        "55464657044963196816950587289035428064568320970692304673817341489687455367181",
        "55464657044963196816950587289035428064568320970692304673817341489687455367171",
        "55464657044963196816950587289035428064568320970692304673817341489687455367169",
        "55464657044963196816950587289035428064568320970692304673817341489687455367168",
        "55464657044963196816950587289035428064568320970692304673817341489687463725056"
      ]
    },
    {
      "x": 23,
      "y": 41,
      "size": 1,
      "price": "2106000000000000000000",
      "reserved": "",
      "assetIds": [
        "55464657044963196816950587289035428064568320970692304673817341489687455367179",
        "55464657044963196816950587289035428064568320970692304673817341489687455367171",
        "55464657044963196816950587289035428064568320970692304673817341489687455367169",
        "55464657044963196816950587289035428064568320970692304673817341489687455367168",
        "55464657044963196816950587289035428064568320970692304673817341489687463725056"
      ]
    },
    {
      "x": 23,
      "y": 42,
      "size": 1,
      "price": "2106000000000000000000",
      "reserved": "",
      "assetIds": [
        "55464657044963196816950587289035428064568320970692304673817341489687455367175",
        "55464657044963196816950587289035428064568320970692304673817341489687455367170",
        "55464657044963196816950587289035428064568320970692304673817341489687455367169",
        "55464657044963196816950587289035428064568320970692304673817341489687455367168",
        "55464657044963196816950587289035428064568320970692304673817341489687463725056"
      ]
    },
    {
      "x": 23,
      "y": 43,
      "size": 1,
      "price": "2106000000000000000000",
      "reserved": "",
      "assetIds": [
        "55464657044963196816950587289035428064568320970692304673817341489687455367178",
        "55464657044963196816950587289035428064568320970692304673817341489687455367171",
        "55464657044963196816950587289035428064568320970692304673817341489687455367169",
        "55464657044963196816950587289035428064568320970692304673817341489687455367168",
        "55464657044963196816950587289035428064568320970692304673817341489687463725056"
      ]
    },
    {
      "x": 23,
      "y": 44,
      "size": 1,
      "price": "2106000000000000000000",
      "reserved": "",
      "assetIds": [
        "55464657044963196816950587289035428064568320970692304673817341489687455367180",
        "55464657044963196816950587289035428064568320970692304673817341489687455367171",
        "55464657044963196816950587289035428064568320970692304673817341489687455367169",
        "55464657044963196816950587289035428064568320970692304673817341489687455367168",
        "55464657044963196816950587289035428064568320970692304673817341489687463725056"
      ]
    },
    {
      "x": 23,
      "y": 45,
      "size": 1,
      "price": "2106000000000000000000",
      "reserved": "",
      "assetIds": [
        "55464657044963196816950587289035428064568320970692304673817341489687455367172",
        "55464657044963196816950587289035428064568320970692304673817341489687455367170",
        "55464657044963196816950587289035428064568320970692304673817341489687455367169",
        "55464657044963196816950587289035428064568320970692304673817341489687455367168",
        "55464657044963196816950587289035428064568320970692304673817341489687463725056"
      ]
    },
    {
      "x": 23,
      "y": 48,
      "size": 1,
      "price": "2106000000000000000000",
      "reserved": "",
      "assetIds": [
        "55464657044963196816950587289035428064568320970692304673817341489687455367178",
        "55464657044963196816950587289035428064568320970692304673817341489687455367171",
        "55464657044963196816950587289035428064568320970692304673817341489687455367169",
        "55464657044963196816950587289035428064568320970692304673817341489687455367168",
        "55464657044963196816950587289035428064568320970692304673817341489687463725056"
      ]
    },
    {
      "x": 24,
      "y": 48,
      "size": 1,
      "price": "2106000000000000000000",
      "reserved": "",
      "assetIds": [
        "55464657044963196816950587289035428064568320970692304673817341489687455367182",
        "55464657044963196816950587289035428064568320970692304673817341489687455367171",
        "55464657044963196816950587289035428064568320970692304673817341489687455367169",
        "55464657044963196816950587289035428064568320970692304673817341489687455367168",
        "55464657044963196816950587289035428064568320970692304673817341489687463725056"
      ]
    },
    {
      "x": 24,
      "y": 49,
      "size": 1,
      "price": "2106000000000000000000",
      "reserved": "",
      "assetIds": [
        "55464657044963196816950587289035428064568320970692304673817341489687455367174",
        "55464657044963196816950587289035428064568320970692304673817341489687455367170",
        "55464657044963196816950587289035428064568320970692304673817341489687455367169",
        "55464657044963196816950587289035428064568320970692304673817341489687455367168",
        "55464657044963196816950587289035428064568320970692304673817341489687463725056"
      ]
    },
    {
      "x": 25,
      "y": 49,
      "size": 1,
      "price": "2106000000000000000000",
      "reserved": "",
      "assetIds": [
        "55464657044963196816950587289035428064568320970692304673817341489687455367179",
        "55464657044963196816950587289035428064568320970692304673817341489687455367171",
        "55464657044963196816950587289035428064568320970692304673817341489687455367169",
        "55464657044963196816950587289035428064568320970692304673817341489687455367168",
        "55464657044963196816950587289035428064568320970692304673817341489687463725056"
      ]
    },
    {
      "x": 26,
      "y": 49,
      "size": 1,
      "price": "2106000000000000000000",
      "reserved": "",
      "assetIds": [
        "55464657044963196816950587289035428064568320970692304673817341489687455367177",
        "55464657044963196816950587289035428064568320970692304673817341489687455367170",
        "55464657044963196816950587289035428064568320970692304673817341489687455367169",
        "55464657044963196816950587289035428064568320970692304673817341489687455367168",
        "55464657044963196816950587289035428064568320970692304673817341489687463725056"
      ]
    },
    {
      "x": 27,
      "y": 49,
      "size": 1,
      "price": "2106000000000000000000",
      "reserved": "",
      "assetIds": [
        "55464657044963196816950587289035428064568320970692304673817341489687455367172",
        "55464657044963196816950587289035428064568320970692304673817341489687455367170",
        "55464657044963196816950587289035428064568320970692304673817341489687455367169",
        "55464657044963196816950587289035428064568320970692304673817341489687455367168",
        "55464657044963196816950587289035428064568320970692304673817341489687463725056"
      ]
    },
    {
      "x": 28,
      "y": 49,
      "size": 1,
      "price": "2106000000000000000000",
      "reserved": "",
      "assetIds": [
        "55464657044963196816950587289035428064568320970692304673817341489687455367179",
        "55464657044963196816950587289035428064568320970692304673817341489687455367171",
        "55464657044963196816950587289035428064568320970692304673817341489687455367169",
        "55464657044963196816950587289035428064568320970692304673817341489687455367168",
        "55464657044963196816950587289035428064568320970692304673817341489687463725056"
      ]
    },
    {
      "x": 29,
      "y": 49,
      "size": 1,
      "price": "2106000000000000000000",
      "reserved": "",
      "assetIds": [
        "55464657044963196816950587289035428064568320970692304673817341489687455367180",
        "55464657044963196816950587289035428064568320970692304673817341489687455367171",
        "55464657044963196816950587289035428064568320970692304673817341489687455367169",
        "55464657044963196816950587289035428064568320970692304673817341489687455367168",
        "55464657044963196816950587289035428064568320970692304673817341489687463725056"
      ]
    },
    {
      "x": 30,
      "y": 49,
      "size": 1,
      "price": "2106000000000000000000",
      "reserved": "",
      "assetIds": [
        "55464657044963196816950587289035428064568320970692304673817341489687455367178",
        "55464657044963196816950587289035428064568320970692304673817341489687455367171",
        "55464657044963196816950587289035428064568320970692304673817341489687455367169",
        "55464657044963196816950587289035428064568320970692304673817341489687455367168",
        "55464657044963196816950587289035428064568320970692304673817341489687463725056"
      ]
    },
    {
      "x": 31,
      "y": 49,
      "size": 1,
      "price": "2106000000000000000000",
      "reserved": "",
      "assetIds": [
        "55464657044963196816950587289035428064568320970692304673817341489687455367183",
        "55464657044963196816950587289035428064568320970692304673817341489687455367171",
        "55464657044963196816950587289035428064568320970692304673817341489687455367169",
        "55464657044963196816950587289035428064568320970692304673817341489687455367168",
        "55464657044963196816950587289035428064568320970692304673817341489687463725056"
      ]
    },
    {
      "x": 32,
      "y": 49,
      "size": 1,
      "price": "2106000000000000000000",
      "reserved": "",
      "assetIds": [
        "55464657044963196816950587289035428064568320970692304673817341489687455367178",
        "55464657044963196816950587289035428064568320970692304673817341489687455367171",
        "55464657044963196816950587289035428064568320970692304673817341489687455367169",
        "55464657044963196816950587289035428064568320970692304673817341489687455367168",
        "55464657044963196816950587289035428064568320970692304673817341489687463725056"
      ]
    },
    {
      "x": 33,
      "y": 49,
      "size": 1,
      "price": "2106000000000000000000",
      "reserved": "",
      "assetIds": [
        "55464657044963196816950587289035428064568320970692304673817341489687455367181",
        "55464657044963196816950587289035428064568320970692304673817341489687455367171",
        "55464657044963196816950587289035428064568320970692304673817341489687455367169",
        "55464657044963196816950587289035428064568320970692304673817341489687455367168",
        "55464657044963196816950587289035428064568320970692304673817341489687463725056"
      ]
    },
    {
      "x": 34,
      "y": 49,
      "size": 1,
      "price": "2106000000000000000000",
      "reserved": "",
      "assetIds": [
        "55464657044963196816950587289035428064568320970692304673817341489687455367173",
        "55464657044963196816950587289035428064568320970692304673817341489687455367170",
        "55464657044963196816950587289035428064568320970692304673817341489687455367169",
        "55464657044963196816950587289035428064568320970692304673817341489687455367168",
        "55464657044963196816950587289035428064568320970692304673817341489687463725056"
      ]
    },
    {
      "x": 35,
      "y": 49,
      "size": 1,
      "price": "2106000000000000000000",
      "reserved": "",
      "assetIds": [
        "55464657044963196816950587289035428064568320970692304673817341489687455367175",
        "55464657044963196816950587289035428064568320970692304673817341489687455367170",
        "55464657044963196816950587289035428064568320970692304673817341489687455367169",
        "55464657044963196816950587289035428064568320970692304673817341489687455367168",
        "55464657044963196816950587289035428064568320970692304673817341489687463725056"
      ]
    },
    {
      "x": 36,
      "y": 49,
      "size": 1,
      "price": "2106000000000000000000",
      "reserved": "",
      "assetIds": [
        "55464657044963196816950587289035428064568320970692304673817341489687455367183",
        "55464657044963196816950587289035428064568320970692304673817341489687455367171",
        "55464657044963196816950587289035428064568320970692304673817341489687455367169",
        "55464657044963196816950587289035428064568320970692304673817341489687455367168",
        "55464657044963196816950587289035428064568320970692304673817341489687463725056"
      ]
    },
    {
      "x": 38,
      "y": 49,
      "size": 1,
      "price": "2106000000000000000000",
      "reserved": "",
      "assetIds": [
        "55464657044963196816950587289035428064568320970692304673817341489687455367174",
        "55464657044963196816950587289035428064568320970692304673817341489687455367170",
        "55464657044963196816950587289035428064568320970692304673817341489687455367169",
        "55464657044963196816950587289035428064568320970692304673817341489687455367168",
        "55464657044963196816950587289035428064568320970692304673817341489687463725056"
      ]
    },
    {
      "x": 39,
      "y": 49,
      "size": 1,
      "price": "2106000000000000000000",
      "reserved": "",
      "assetIds": [
        "55464657044963196816950587289035428064568320970692304673817341489687455367175",
        "55464657044963196816950587289035428064568320970692304673817341489687455367170",
        "55464657044963196816950587289035428064568320970692304673817341489687455367169",
        "55464657044963196816950587289035428064568320970692304673817341489687455367168",
        "55464657044963196816950587289035428064568320970692304673817341489687463725056"
      ]
    },
    {
      "x": 40,
      "y": 49,
      "size": 1,
      "price": "2106000000000000000000",
      "reserved": "",
      "assetIds": [
        "55464657044963196816950587289035428064568320970692304673817341489687455367181",
        "55464657044963196816950587289035428064568320970692304673817341489687455367171",
        "55464657044963196816950587289035428064568320970692304673817341489687455367169",
        "55464657044963196816950587289035428064568320970692304673817341489687455367168",
        "55464657044963196816950587289035428064568320970692304673817341489687463725056"
      ]
    },
    {
      "x": 40,
      "y": 48,
      "size": 1,
      "price": "2106000000000000000000",
      "reserved": "",
      "assetIds": [
        "55464657044963196816950587289035428064568320970692304673817341489687455367181",
        "55464657044963196816950587289035428064568320970692304673817341489687455367171",
        "55464657044963196816950587289035428064568320970692304673817341489687455367169",
        "55464657044963196816950587289035428064568320970692304673817341489687455367168",
        "55464657044963196816950587289035428064568320970692304673817341489687463725056"
      ]
    },
    {
      "x": 41,
      "y": 48,
      "size": 1,
      "price": "2106000000000000000000",
      "reserved": "",
      "assetIds": [
        "55464657044963196816950587289035428064568320970692304673817341489687455367172",
        "55464657044963196816950587289035428064568320970692304673817341489687455367170",
        "55464657044963196816950587289035428064568320970692304673817341489687455367169",
        "55464657044963196816950587289035428064568320970692304673817341489687455367168",
        "55464657044963196816950587289035428064568320970692304673817341489687463725056"
      ]
    },
    {
      "x": 42,
      "y": 48,
      "size": 1,
      "price": "2106000000000000000000",
      "reserved": "",
      "assetIds": [
        "55464657044963196816950587289035428064568320970692304673817341489687455367181",
        "55464657044963196816950587289035428064568320970692304673817341489687455367171",
        "55464657044963196816950587289035428064568320970692304673817341489687455367169",
        "55464657044963196816950587289035428064568320970692304673817341489687455367168",
        "55464657044963196816950587289035428064568320970692304673817341489687463725056"
      ]
    },
    {
      "x": 43,
      "y": 48,
      "size": 1,
      "price": "2106000000000000000000",
      "reserved": "",
      "assetIds": [
        "55464657044963196816950587289035428064568320970692304673817341489687455367172",
        "55464657044963196816950587289035428064568320970692304673817341489687455367170",
        "55464657044963196816950587289035428064568320970692304673817341489687455367169",
        "55464657044963196816950587289035428064568320970692304673817341489687455367168",
        "55464657044963196816950587289035428064568320970692304673817341489687463725056"
      ]
    },
    {
      "x": 44,
      "y": 48,
      "size": 1,
      "price": "2106000000000000000000",
      "reserved": "",
      "assetIds": [
        "55464657044963196816950587289035428064568320970692304673817341489687455367180",
        "55464657044963196816950587289035428064568320970692304673817341489687455367171",
        "55464657044963196816950587289035428064568320970692304673817341489687455367169",
        "55464657044963196816950587289035428064568320970692304673817341489687455367168",
        "55464657044963196816950587289035428064568320970692304673817341489687463725056"
      ]
    },
    {
      "x": 45,
      "y": 48,
      "size": 1,
      "price": "2106000000000000000000",
      "reserved": "",
      "assetIds": [
        "55464657044963196816950587289035428064568320970692304673817341489687455367180",
        "55464657044963196816950587289035428064568320970692304673817341489687455367171",
        "55464657044963196816950587289035428064568320970692304673817341489687455367169",
        "55464657044963196816950587289035428064568320970692304673817341489687455367168",
        "55464657044963196816950587289035428064568320970692304673817341489687463725056"
      ]
    },
    {
      "x": 46,
      "y": 48,
      "size": 1,
      "price": "2106000000000000000000",
      "reserved": "",
      "assetIds": [
        "55464657044963196816950587289035428064568320970692304673817341489687455367178",
        "55464657044963196816950587289035428064568320970692304673817341489687455367171",
        "55464657044963196816950587289035428064568320970692304673817341489687455367169",
        "55464657044963196816950587289035428064568320970692304673817341489687455367168",
        "55464657044963196816950587289035428064568320970692304673817341489687463725056"
      ]
    },
    {
      "x": 47,
      "y": 48,
      "size": 1,
      "price": "2106000000000000000000",
      "reserved": "",
      "assetIds": [
        "55464657044963196816950587289035428064568320970692304673817341489687455367182",
        "55464657044963196816950587289035428064568320970692304673817341489687455367171",
        "55464657044963196816950587289035428064568320970692304673817341489687455367169",
        "55464657044963196816950587289035428064568320970692304673817341489687455367168",
        "55464657044963196816950587289035428064568320970692304673817341489687463725056"
      ]
    },
    {
      "x": 48,
      "y": 48,
      "size": 1,
      "price": "2106000000000000000000",
      "reserved": "",
      "assetIds": [
        "55464657044963196816950587289035428064568320970692304673817341489687455367181",
        "55464657044963196816950587289035428064568320970692304673817341489687455367171",
        "55464657044963196816950587289035428064568320970692304673817341489687455367169",
        "55464657044963196816950587289035428064568320970692304673817341489687455367168",
        "55464657044963196816950587289035428064568320970692304673817341489687463725056"
      ]
    },
    {
      "x": 25,
      "y": 48,
      "size": 1,
      "price": "2106000000000000000000",
      "reserved": "",
      "assetIds": [
        "55464657044963196816950587289035428064568320970692304673817341489687455367175",
        "55464657044963196816950587289035428064568320970692304673817341489687455367170",
        "55464657044963196816950587289035428064568320970692304673817341489687455367169",
        "55464657044963196816950587289035428064568320970692304673817341489687455367168",
        "55464657044963196816950587289035428064568320970692304673817341489687463725056"
      ]
    },
    {
      "x": 26,
      "y": 48,
      "size": 1,
      "price": "2106000000000000000000",
      "reserved": "",
      "assetIds": [
        "55464657044963196816950587289035428064568320970692304673817341489687455367179",
        "55464657044963196816950587289035428064568320970692304673817341489687455367171",
        "55464657044963196816950587289035428064568320970692304673817341489687455367169",
        "55464657044963196816950587289035428064568320970692304673817341489687455367168",
        "55464657044963196816950587289035428064568320970692304673817341489687463725056"
      ]
    },
    {
      "x": 32,
      "y": 48,
      "size": 1,
      "price": "2106000000000000000000",
      "reserved": "",
      "assetIds": [
        "55464657044963196816950587289035428064568320970692304673817341489687455367180",
        "55464657044963196816950587289035428064568320970692304673817341489687455367171",
        "55464657044963196816950587289035428064568320970692304673817341489687455367169",
        "55464657044963196816950587289035428064568320970692304673817341489687455367168",
        "55464657044963196816950587289035428064568320970692304673817341489687463725056"
      ]
    },
    {
      "x": 33,
      "y": 48,
      "size": 1,
      "price": "2106000000000000000000",
      "reserved": "",
      "assetIds": [
        "55464657044963196816950587289035428064568320970692304673817341489687455367173",
        "55464657044963196816950587289035428064568320970692304673817341489687455367170",
        "55464657044963196816950587289035428064568320970692304673817341489687455367169",
        "55464657044963196816950587289035428064568320970692304673817341489687455367168",
        "55464657044963196816950587289035428064568320970692304673817341489687463725056"
      ]
    },
    {
      "x": 34,
      "y": 48,
      "size": 1,
      "price": "2106000000000000000000",
      "reserved": "",
      "assetIds": [
        "55464657044963196816950587289035428064568320970692304673817341489687455367172",
        "55464657044963196816950587289035428064568320970692304673817341489687455367170",
        "55464657044963196816950587289035428064568320970692304673817341489687455367169",
        "55464657044963196816950587289035428064568320970692304673817341489687455367168",
        "55464657044963196816950587289035428064568320970692304673817341489687463725056"
      ]
    },
    {
      "x": 35,
      "y": 48,
      "size": 1,
      "price": "2106000000000000000000",
      "reserved": "",
      "assetIds": [
        "55464657044963196816950587289035428064568320970692304673817341489687455367174",
        "55464657044963196816950587289035428064568320970692304673817341489687455367170",
        "55464657044963196816950587289035428064568320970692304673817341489687455367169",
        "55464657044963196816950587289035428064568320970692304673817341489687455367168",
        "55464657044963196816950587289035428064568320970692304673817341489687463725056"
      ]
    },
    {
      "x": 36,
      "y": 48,
      "size": 1,
      "price": "2106000000000000000000",
      "reserved": "",
      "assetIds": [
        "55464657044963196816950587289035428064568320970692304673817341489687455367182",
        "55464657044963196816950587289035428064568320970692304673817341489687455367171",
        "55464657044963196816950587289035428064568320970692304673817341489687455367169",
        "55464657044963196816950587289035428064568320970692304673817341489687455367168",
        "55464657044963196816950587289035428064568320970692304673817341489687463725056"
      ]
    },
    {
      "x": 37,
      "y": 48,
      "size": 1,
      "price": "2106000000000000000000",
      "reserved": "",
      "assetIds": [
        "55464657044963196816950587289035428064568320970692304673817341489687455367172",
        "55464657044963196816950587289035428064568320970692304673817341489687455367170",
        "55464657044963196816950587289035428064568320970692304673817341489687455367169",
        "55464657044963196816950587289035428064568320970692304673817341489687455367168",
        "55464657044963196816950587289035428064568320970692304673817341489687463725056"
      ]
    },
    {
      "x": 38,
      "y": 48,
      "size": 1,
      "price": "2106000000000000000000",
      "reserved": "",
      "assetIds": [
        "55464657044963196816950587289035428064568320970692304673817341489687455367179",
        "55464657044963196816950587289035428064568320970692304673817341489687455367171",
        "55464657044963196816950587289035428064568320970692304673817341489687455367169",
        "55464657044963196816950587289035428064568320970692304673817341489687455367168",
        "55464657044963196816950587289035428064568320970692304673817341489687463725056"
      ]
    },
    {
      "x": 39,
      "y": 48,
      "size": 1,
      "price": "2106000000000000000000",
      "reserved": "",
      "assetIds": [
        "55464657044963196816950587289035428064568320970692304673817341489687455367183",
        "55464657044963196816950587289035428064568320970692304673817341489687455367171",
        "55464657044963196816950587289035428064568320970692304673817341489687455367169",
        "55464657044963196816950587289035428064568320970692304673817341489687455367168",
        "55464657044963196816950587289035428064568320970692304673817341489687463725056"
      ]
    },
    {
      "x": 31,
      "y": 48,
      "size": 1,
      "price": "2106000000000000000000",
      "reserved": "",
      "assetIds": [
        "55464657044963196816950587289035428064568320970692304673817341489687455367178",
        "55464657044963196816950587289035428064568320970692304673817341489687455367171",
        "55464657044963196816950587289035428064568320970692304673817341489687455367169",
        "55464657044963196816950587289035428064568320970692304673817341489687455367168",
        "55464657044963196816950587289035428064568320970692304673817341489687463725056"
      ]
    },
    {
      "x": 30,
      "y": 48,
      "size": 1,
      "price": "2106000000000000000000",
      "reserved": "",
      "assetIds": [
        "55464657044963196816950587289035428064568320970692304673817341489687455367172",
        "55464657044963196816950587289035428064568320970692304673817341489687455367170",
        "55464657044963196816950587289035428064568320970692304673817341489687455367169",
        "55464657044963196816950587289035428064568320970692304673817341489687455367168",
        "55464657044963196816950587289035428064568320970692304673817341489687463725056"
      ]
    },
    {
      "x": 29,
      "y": 48,
      "size": 1,
      "price": "2106000000000000000000",
      "reserved": "",
      "assetIds": [
        "55464657044963196816950587289035428064568320970692304673817341489687455367175",
        "55464657044963196816950587289035428064568320970692304673817341489687455367170",
        "55464657044963196816950587289035428064568320970692304673817341489687455367169",
        "55464657044963196816950587289035428064568320970692304673817341489687455367168",
        "55464657044963196816950587289035428064568320970692304673817341489687463725056"
      ]
    },
    {
      "x": 28,
      "y": 48,
      "size": 1,
      "price": "2106000000000000000000",
      "reserved": "",
      "assetIds": [
        "55464657044963196816950587289035428064568320970692304673817341489687455367174",
        "55464657044963196816950587289035428064568320970692304673817341489687455367170",
        "55464657044963196816950587289035428064568320970692304673817341489687455367169",
        "55464657044963196816950587289035428064568320970692304673817341489687455367168",
        "55464657044963196816950587289035428064568320970692304673817341489687463725056"
      ]
    },
    {
      "x": 27,
      "y": 48,
      "size": 1,
      "price": "2106000000000000000000",
      "reserved": "",
      "assetIds": [
        "55464657044963196816950587289035428064568320970692304673817341489687455367175",
        "55464657044963196816950587289035428064568320970692304673817341489687455367170",
        "55464657044963196816950587289035428064568320970692304673817341489687455367169",
        "55464657044963196816950587289035428064568320970692304673817341489687455367168",
        "55464657044963196816950587289035428064568320970692304673817341489687463725056"
      ]
    },
    {
      "x": 48,
      "y": 47,
      "size": 1,
      "price": "2106000000000000000000",
      "reserved": "",
      "assetIds": [
        "55464657044963196816950587289035428064568320970692304673817341489687455367180",
        "55464657044963196816950587289035428064568320970692304673817341489687455367171",
        "55464657044963196816950587289035428064568320970692304673817341489687455367169",
        "55464657044963196816950587289035428064568320970692304673817341489687455367168",
        "55464657044963196816950587289035428064568320970692304673817341489687463725056"
      ]
    },
    {
      "x": 48,
      "y": 46,
      "size": 1,
      "price": "2106000000000000000000",
      "reserved": "",
      "assetIds": [
        "55464657044963196816950587289035428064568320970692304673817341489687455367177",
        "55464657044963196816950587289035428064568320970692304673817341489687455367170",
        "55464657044963196816950587289035428064568320970692304673817341489687455367169",
        "55464657044963196816950587289035428064568320970692304673817341489687455367168",
        "55464657044963196816950587289035428064568320970692304673817341489687463725056"
      ]
    },
    {
      "x": 48,
      "y": 45,
      "size": 1,
      "price": "2106000000000000000000",
      "reserved": "",
      "assetIds": [
        "55464657044963196816950587289035428064568320970692304673817341489687455367181",
        "55464657044963196816950587289035428064568320970692304673817341489687455367171",
        "55464657044963196816950587289035428064568320970692304673817341489687455367169",
        "55464657044963196816950587289035428064568320970692304673817341489687455367168",
        "55464657044963196816950587289035428064568320970692304673817341489687463725056"
      ]
    },
    {
      "x": 48,
      "y": 44,
      "size": 1,
      "price": "2106000000000000000000",
      "reserved": "",
      "assetIds": [
        "55464657044963196816950587289035428064568320970692304673817341489687455367172",
        "55464657044963196816950587289035428064568320970692304673817341489687455367170",
        "55464657044963196816950587289035428064568320970692304673817341489687455367169",
        "55464657044963196816950587289035428064568320970692304673817341489687455367168",
        "55464657044963196816950587289035428064568320970692304673817341489687463725056"
      ]
    },
    {
      "x": 48,
      "y": 43,
      "size": 1,
      "price": "2106000000000000000000",
      "reserved": "",
      "assetIds": [
        "55464657044963196816950587289035428064568320970692304673817341489687455367176",
        "55464657044963196816950587289035428064568320970692304673817341489687455367170",
        "55464657044963196816950587289035428064568320970692304673817341489687455367169",
        "55464657044963196816950587289035428064568320970692304673817341489687455367168",
        "55464657044963196816950587289035428064568320970692304673817341489687463725056"
      ]
    },
    {
      "x": 48,
      "y": 42,
      "size": 1,
      "price": "2106000000000000000000",
      "reserved": "",
      "assetIds": [
        "55464657044963196816950587289035428064568320970692304673817341489687455367174",
        "55464657044963196816950587289035428064568320970692304673817341489687455367170",
        "55464657044963196816950587289035428064568320970692304673817341489687455367169",
        "55464657044963196816950587289035428064568320970692304673817341489687455367168",
        "55464657044963196816950587289035428064568320970692304673817341489687463725056"
      ]
    },
    {
      "x": 48,
      "y": 41,
      "size": 1,
      "price": "2106000000000000000000",
      "reserved": "",
      "assetIds": [
        "55464657044963196816950587289035428064568320970692304673817341489687455367179",
        "55464657044963196816950587289035428064568320970692304673817341489687455367171",
        "55464657044963196816950587289035428064568320970692304673817341489687455367169",
        "55464657044963196816950587289035428064568320970692304673817341489687455367168",
        "55464657044963196816950587289035428064568320970692304673817341489687463725056"
      ]
    },
    {
      "x": 48,
      "y": 40,
      "size": 1,
      "price": "2106000000000000000000",
      "reserved": "",
      "assetIds": [
        "55464657044963196816950587289035428064568320970692304673817341489687455367172",
        "55464657044963196816950587289035428064568320970692304673817341489687455367170",
        "55464657044963196816950587289035428064568320970692304673817341489687455367169",
        "55464657044963196816950587289035428064568320970692304673817341489687455367168",
        "55464657044963196816950587289035428064568320970692304673817341489687463725056"
      ]
    },
    {
      "x": 48,
      "y": 39,
      "size": 1,
      "price": "2106000000000000000000",
      "reserved": "",
      "assetIds": [
        "55464657044963196816950587289035428064568320970692304673817341489687455367183",
        "55464657044963196816950587289035428064568320970692304673817341489687455367171",
        "55464657044963196816950587289035428064568320970692304673817341489687455367169",
        "55464657044963196816950587289035428064568320970692304673817341489687455367168",
        "55464657044963196816950587289035428064568320970692304673817341489687463725056"
      ]
    },
    {
      "x": 48,
      "y": 38,
      "size": 1,
      "price": "2106000000000000000000",
      "reserved": "",
      "assetIds": [
        "55464657044963196816950587289035428064568320970692304673817341489687455367176",
        "55464657044963196816950587289035428064568320970692304673817341489687455367170",
        "55464657044963196816950587289035428064568320970692304673817341489687455367169",
        "55464657044963196816950587289035428064568320970692304673817341489687455367168",
        "55464657044963196816950587289035428064568320970692304673817341489687463725056"
      ]
    },
    {
      "x": 49,
      "y": 38,
      "size": 1,
      "price": "2106000000000000000000",
      "reserved": "",
      "assetIds": [
        "55464657044963196816950587289035428064568320970692304673817341489687455367175",
        "55464657044963196816950587289035428064568320970692304673817341489687455367170",
        "55464657044963196816950587289035428064568320970692304673817341489687455367169",
        "55464657044963196816950587289035428064568320970692304673817341489687455367168",
        "55464657044963196816950587289035428064568320970692304673817341489687463725056"
      ]
    },
    {
      "x": 49,
      "y": 37,
      "size": 1,
      "price": "2106000000000000000000",
      "reserved": "",
      "assetIds": [
        "55464657044963196816950587289035428064568320970692304673817341489687455367181",
        "55464657044963196816950587289035428064568320970692304673817341489687455367171",
        "55464657044963196816950587289035428064568320970692304673817341489687455367169",
        "55464657044963196816950587289035428064568320970692304673817341489687455367168",
        "55464657044963196816950587289035428064568320970692304673817341489687463725056"
      ]
    },
    {
      "x": 49,
      "y": 36,
      "size": 1,
      "price": "2106000000000000000000",
      "reserved": "",
      "assetIds": [
        "55464657044963196816950587289035428064568320970692304673817341489687455367176",
        "55464657044963196816950587289035428064568320970692304673817341489687455367170",
        "55464657044963196816950587289035428064568320970692304673817341489687455367169",
        "55464657044963196816950587289035428064568320970692304673817341489687455367168",
        "55464657044963196816950587289035428064568320970692304673817341489687463725056"
      ]
    },
    {
      "x": 49,
      "y": 35,
      "size": 1,
      "price": "2106000000000000000000",
      "reserved": "",
      "assetIds": [
        "55464657044963196816950587289035428064568320970692304673817341489687455367182",
        "55464657044963196816950587289035428064568320970692304673817341489687455367171",
        "55464657044963196816950587289035428064568320970692304673817341489687455367169",
        "55464657044963196816950587289035428064568320970692304673817341489687455367168",
        "55464657044963196816950587289035428064568320970692304673817341489687463725056"
      ]
    },
    {
      "x": 49,
      "y": 34,
      "size": 1,
      "price": "2106000000000000000000",
      "reserved": "",
      "assetIds": [
        "55464657044963196816950587289035428064568320970692304673817341489687455367176",
        "55464657044963196816950587289035428064568320970692304673817341489687455367170",
        "55464657044963196816950587289035428064568320970692304673817341489687455367169",
        "55464657044963196816950587289035428064568320970692304673817341489687455367168",
        "55464657044963196816950587289035428064568320970692304673817341489687463725056"
      ]
    },
    {
      "x": 49,
      "y": 33,
      "size": 1,
      "price": "2106000000000000000000",
      "reserved": "",
      "assetIds": [
        "55464657044963196816950587289035428064568320970692304673817341489687455367181",
        "55464657044963196816950587289035428064568320970692304673817341489687455367171",
        "55464657044963196816950587289035428064568320970692304673817341489687455367169",
        "55464657044963196816950587289035428064568320970692304673817341489687455367168",
        "55464657044963196816950587289035428064568320970692304673817341489687463725056"
      ]
    },
    {
      "x": 49,
      "y": 32,
      "size": 1,
      "price": "2106000000000000000000",
      "reserved": "",
      "assetIds": [
        "55464657044963196816950587289035428064568320970692304673817341489687455367174",
        "55464657044963196816950587289035428064568320970692304673817341489687455367170",
        "55464657044963196816950587289035428064568320970692304673817341489687455367169",
        "55464657044963196816950587289035428064568320970692304673817341489687455367168",
        "55464657044963196816950587289035428064568320970692304673817341489687463725056"
      ]
    },
    {
      "x": 48,
      "y": 32,
      "size": 1,
      "price": "2106000000000000000000",
      "reserved": "",
      "assetIds": [
        "55464657044963196816950587289035428064568320970692304673817341489687455367176",
        "55464657044963196816950587289035428064568320970692304673817341489687455367170",
        "55464657044963196816950587289035428064568320970692304673817341489687455367169",
        "55464657044963196816950587289035428064568320970692304673817341489687455367168",
        "55464657044963196816950587289035428064568320970692304673817341489687463725056"
      ]
    },
    {
      "x": 48,
      "y": 33,
      "size": 1,
      "price": "2106000000000000000000",
      "reserved": "",
      "assetIds": [
        "55464657044963196816950587289035428064568320970692304673817341489687455367178",
        "55464657044963196816950587289035428064568320970692304673817341489687455367171",
        "55464657044963196816950587289035428064568320970692304673817341489687455367169",
        "55464657044963196816950587289035428064568320970692304673817341489687455367168",
        "55464657044963196816950587289035428064568320970692304673817341489687463725056"
      ]
    },
    {
      "x": 48,
      "y": 34,
      "size": 1,
      "price": "2106000000000000000000",
      "reserved": "",
      "assetIds": [
        "55464657044963196816950587289035428064568320970692304673817341489687455367173",
        "55464657044963196816950587289035428064568320970692304673817341489687455367170",
        "55464657044963196816950587289035428064568320970692304673817341489687455367169",
        "55464657044963196816950587289035428064568320970692304673817341489687455367168",
        "55464657044963196816950587289035428064568320970692304673817341489687463725056"
      ]
    },
    {
      "x": 49,
      "y": 39,
      "size": 1,
      "price": "2106000000000000000000",
      "reserved": "",
      "assetIds": [
        "55464657044963196816950587289035428064568320970692304673817341489687455367183",
        "55464657044963196816950587289035428064568320970692304673817341489687455367171",
        "55464657044963196816950587289035428064568320970692304673817341489687455367169",
        "55464657044963196816950587289035428064568320970692304673817341489687455367168",
        "55464657044963196816950587289035428064568320970692304673817341489687463725056"
      ]
    },
    {
      "x": 48,
      "y": 37,
      "size": 1,
      "price": "2106000000000000000000",
      "reserved": "",
      "assetIds": [
        "55464657044963196816950587289035428064568320970692304673817341489687455367181",
        "55464657044963196816950587289035428064568320970692304673817341489687455367171",
        "55464657044963196816950587289035428064568320970692304673817341489687455367169",
        "55464657044963196816950587289035428064568320970692304673817341489687455367168",
        "55464657044963196816950587289035428064568320970692304673817341489687463725056"
      ]
    },
    {
      "x": 48,
      "y": 36,
      "size": 1,
      "price": "2106000000000000000000",
      "reserved": "",
      "assetIds": [
        "55464657044963196816950587289035428064568320970692304673817341489687455367172",
        "55464657044963196816950587289035428064568320970692304673817341489687455367170",
        "55464657044963196816950587289035428064568320970692304673817341489687455367169",
        "55464657044963196816950587289035428064568320970692304673817341489687455367168",
        "55464657044963196816950587289035428064568320970692304673817341489687463725056"
      ]
    },
    {
      "x": 48,
      "y": 35,
      "size": 1,
      "price": "2106000000000000000000",
      "reserved": "",
      "assetIds": [
        "55464657044963196816950587289035428064568320970692304673817341489687455367174",
        "55464657044963196816950587289035428064568320970692304673817341489687455367170",
        "55464657044963196816950587289035428064568320970692304673817341489687455367169",
        "55464657044963196816950587289035428064568320970692304673817341489687455367168",
        "55464657044963196816950587289035428064568320970692304673817341489687463725056"
      ]
    },
    {
      "x": 41,
      "y": 63,
      "size": 1,
      "price": "2106000000000000000000",
      "reserved": "",
      "assetIds": [
        "55464657044963196816950587289035428064568320970692304673817341489687455367183",
        "55464657044963196816950587289035428064568320970692304673817341489687455367171",
        "55464657044963196816950587289035428064568320970692304673817341489687455367169",
        "55464657044963196816950587289035428064568320970692304673817341489687455367168",
        "55464657044963196816950587289035428064568320970692304673817341489687463725056"
      ]
    },
    {
      "x": 41,
      "y": 62,
      "size": 1,
      "price": "2106000000000000000000",
      "reserved": "",
      "assetIds": [
        "55464657044963196816950587289035428064568320970692304673817341489687455367177",
        "55464657044963196816950587289035428064568320970692304673817341489687455367170",
        "55464657044963196816950587289035428064568320970692304673817341489687455367169",
        "55464657044963196816950587289035428064568320970692304673817341489687455367168",
        "55464657044963196816950587289035428064568320970692304673817341489687463725056"
      ]
    },
    {
      "x": 42,
      "y": 62,
      "size": 1,
      "price": "2106000000000000000000",
      "reserved": "",
      "assetIds": [
        "55464657044963196816950587289035428064568320970692304673817341489687455367179",
        "55464657044963196816950587289035428064568320970692304673817341489687455367171",
        "55464657044963196816950587289035428064568320970692304673817341489687455367169",
        "55464657044963196816950587289035428064568320970692304673817341489687455367168",
        "55464657044963196816950587289035428064568320970692304673817341489687463725056"
      ]
    },
    {
      "x": 43,
      "y": 62,
      "size": 1,
      "price": "2106000000000000000000",
      "reserved": "",
      "assetIds": [
        "55464657044963196816950587289035428064568320970692304673817341489687455367182",
        "55464657044963196816950587289035428064568320970692304673817341489687455367171",
        "55464657044963196816950587289035428064568320970692304673817341489687455367169",
        "55464657044963196816950587289035428064568320970692304673817341489687455367168",
        "55464657044963196816950587289035428064568320970692304673817341489687463725056"
      ]
    },
    {
      "x": 44,
      "y": 62,
      "size": 1,
      "price": "2106000000000000000000",
      "reserved": "",
      "assetIds": [
        "55464657044963196816950587289035428064568320970692304673817341489687455367174",
        "55464657044963196816950587289035428064568320970692304673817341489687455367170",
        "55464657044963196816950587289035428064568320970692304673817341489687455367169",
        "55464657044963196816950587289035428064568320970692304673817341489687455367168",
        "55464657044963196816950587289035428064568320970692304673817341489687463725056"
      ]
    },
    {
      "x": 45,
      "y": 62,
      "size": 1,
      "price": "2106000000000000000000",
      "reserved": "",
      "assetIds": [
        "55464657044963196816950587289035428064568320970692304673817341489687455367183",
        "55464657044963196816950587289035428064568320970692304673817341489687455367171",
        "55464657044963196816950587289035428064568320970692304673817341489687455367169",
        "55464657044963196816950587289035428064568320970692304673817341489687455367168",
        "55464657044963196816950587289035428064568320970692304673817341489687463725056"
      ]
    },
    {
      "x": 46,
      "y": 62,
      "size": 1,
      "price": "2106000000000000000000",
      "reserved": "",
      "assetIds": [
        "55464657044963196816950587289035428064568320970692304673817341489687455367174",
        "55464657044963196816950587289035428064568320970692304673817341489687455367170",
        "55464657044963196816950587289035428064568320970692304673817341489687455367169",
        "55464657044963196816950587289035428064568320970692304673817341489687455367168",
        "55464657044963196816950587289035428064568320970692304673817341489687463725056"
      ]
    },
    {
      "x": 47,
      "y": 62,
      "size": 1,
      "price": "2106000000000000000000",
      "reserved": "",
      "assetIds": [
        "55464657044963196816950587289035428064568320970692304673817341489687455367183",
        "55464657044963196816950587289035428064568320970692304673817341489687455367171",
        "55464657044963196816950587289035428064568320970692304673817341489687455367169",
        "55464657044963196816950587289035428064568320970692304673817341489687455367168",
        "55464657044963196816950587289035428064568320970692304673817341489687463725056"
      ]
    },
    {
      "x": 48,
      "y": 62,
      "size": 1,
      "price": "2106000000000000000000",
      "reserved": "",
      "assetIds": [
        "55464657044963196816950587289035428064568320970692304673817341489687455367178",
        "55464657044963196816950587289035428064568320970692304673817341489687455367171",
        "55464657044963196816950587289035428064568320970692304673817341489687455367169",
        "55464657044963196816950587289035428064568320970692304673817341489687455367168",
        "55464657044963196816950587289035428064568320970692304673817341489687463725056"
      ]
    },
    {
      "x": 49,
      "y": 62,
      "size": 1,
      "price": "2106000000000000000000",
      "reserved": "",
      "assetIds": [
        "55464657044963196816950587289035428064568320970692304673817341489687455367177",
        "55464657044963196816950587289035428064568320970692304673817341489687455367170",
        "55464657044963196816950587289035428064568320970692304673817341489687455367169",
        "55464657044963196816950587289035428064568320970692304673817341489687455367168",
        "55464657044963196816950587289035428064568320970692304673817341489687463725056"
      ]
    },
    {
      "x": 50,
      "y": 62,
      "size": 1,
      "price": "2106000000000000000000",
      "reserved": "",
      "assetIds": [
        "55464657044963196816950587289035428064568320970692304673817341489687455367180",
        "55464657044963196816950587289035428064568320970692304673817341489687455367171",
        "55464657044963196816950587289035428064568320970692304673817341489687455367169",
        "55464657044963196816950587289035428064568320970692304673817341489687455367168",
        "55464657044963196816950587289035428064568320970692304673817341489687463725056"
      ]
    },
    {
      "x": 51,
      "y": 62,
      "size": 1,
      "price": "2106000000000000000000",
      "reserved": "",
      "assetIds": [
        "55464657044963196816950587289035428064568320970692304673817341489687455367172",
        "55464657044963196816950587289035428064568320970692304673817341489687455367170",
        "55464657044963196816950587289035428064568320970692304673817341489687455367169",
        "55464657044963196816950587289035428064568320970692304673817341489687455367168",
        "55464657044963196816950587289035428064568320970692304673817341489687463725056"
      ]
    },
    {
      "x": 52,
      "y": 62,
      "size": 1,
      "price": "2106000000000000000000",
      "reserved": "",
      "assetIds": [
        "55464657044963196816950587289035428064568320970692304673817341489687455367173",
        "55464657044963196816950587289035428064568320970692304673817341489687455367170",
        "55464657044963196816950587289035428064568320970692304673817341489687455367169",
        "55464657044963196816950587289035428064568320970692304673817341489687455367168",
        "55464657044963196816950587289035428064568320970692304673817341489687463725056"
      ]
    },
    {
      "x": 53,
      "y": 62,
      "size": 1,
      "price": "2106000000000000000000",
      "reserved": "",
      "assetIds": [
        "55464657044963196816950587289035428064568320970692304673817341489687455367181",
        "55464657044963196816950587289035428064568320970692304673817341489687455367171",
        "55464657044963196816950587289035428064568320970692304673817341489687455367169",
        "55464657044963196816950587289035428064568320970692304673817341489687455367168",
        "55464657044963196816950587289035428064568320970692304673817341489687463725056"
      ]
    },
    {
      "x": 52,
      "y": 61,
      "size": 1,
      "price": "2106000000000000000000",
      "reserved": "",
      "assetIds": [
        "55464657044963196816950587289035428064568320970692304673817341489687455367174",
        "55464657044963196816950587289035428064568320970692304673817341489687455367170",
        "55464657044963196816950587289035428064568320970692304673817341489687455367169",
        "55464657044963196816950587289035428064568320970692304673817341489687455367168",
        "55464657044963196816950587289035428064568320970692304673817341489687463725056"
      ]
    },
    {
      "x": 52,
      "y": 60,
      "size": 1,
      "price": "2106000000000000000000",
      "reserved": "",
      "assetIds": [
        "55464657044963196816950587289035428064568320970692304673817341489687455367174",
        "55464657044963196816950587289035428064568320970692304673817341489687455367170",
        "55464657044963196816950587289035428064568320970692304673817341489687455367169",
        "55464657044963196816950587289035428064568320970692304673817341489687455367168",
        "55464657044963196816950587289035428064568320970692304673817341489687463725056"
      ]
    },
    {
      "x": 52,
      "y": 59,
      "size": 1,
      "price": "2106000000000000000000",
      "reserved": "",
      "assetIds": [
        "55464657044963196816950587289035428064568320970692304673817341489687455367176",
        "55464657044963196816950587289035428064568320970692304673817341489687455367170",
        "55464657044963196816950587289035428064568320970692304673817341489687455367169",
        "55464657044963196816950587289035428064568320970692304673817341489687455367168",
        "55464657044963196816950587289035428064568320970692304673817341489687463725056"
      ]
    },
    {
      "x": 52,
      "y": 58,
      "size": 1,
      "price": "2106000000000000000000",
      "reserved": "",
      "assetIds": [
        "55464657044963196816950587289035428064568320970692304673817341489687455367178",
        "55464657044963196816950587289035428064568320970692304673817341489687455367171",
        "55464657044963196816950587289035428064568320970692304673817341489687455367169",
        "55464657044963196816950587289035428064568320970692304673817341489687455367168",
        "55464657044963196816950587289035428064568320970692304673817341489687463725056"
      ]
    },
    {
      "x": 53,
      "y": 58,
      "size": 1,
      "price": "2106000000000000000000",
      "reserved": "",
      "assetIds": [
        "55464657044963196816950587289035428064568320970692304673817341489687455367174",
        "55464657044963196816950587289035428064568320970692304673817341489687455367170",
        "55464657044963196816950587289035428064568320970692304673817341489687455367169",
        "55464657044963196816950587289035428064568320970692304673817341489687455367168",
        "55464657044963196816950587289035428064568320970692304673817341489687463725056"
      ]
    },
    {
      "x": 53,
      "y": 59,
      "size": 1,
      "price": "2106000000000000000000",
      "reserved": "",
      "assetIds": [
        "55464657044963196816950587289035428064568320970692304673817341489687455367182",
        "55464657044963196816950587289035428064568320970692304673817341489687455367171",
        "55464657044963196816950587289035428064568320970692304673817341489687455367169",
        "55464657044963196816950587289035428064568320970692304673817341489687455367168",
        "55464657044963196816950587289035428064568320970692304673817341489687463725056"
      ]
    },
    {
      "x": 53,
      "y": 60,
      "size": 1,
      "price": "2106000000000000000000",
      "reserved": "",
      "assetIds": [
        "55464657044963196816950587289035428064568320970692304673817341489687455367183",
        "55464657044963196816950587289035428064568320970692304673817341489687455367171",
        "55464657044963196816950587289035428064568320970692304673817341489687455367169",
        "55464657044963196816950587289035428064568320970692304673817341489687455367168",
        "55464657044963196816950587289035428064568320970692304673817341489687463725056"
      ]
    },
    {
      "x": 53,
      "y": 61,
      "size": 1,
      "price": "2106000000000000000000",
      "reserved": "",
      "assetIds": [
        "55464657044963196816950587289035428064568320970692304673817341489687455367177",
        "55464657044963196816950587289035428064568320970692304673817341489687455367170",
        "55464657044963196816950587289035428064568320970692304673817341489687455367169",
        "55464657044963196816950587289035428064568320970692304673817341489687455367168",
        "55464657044963196816950587289035428064568320970692304673817341489687463725056"
      ]
    },
    {
      "x": 54,
      "y": 59,
      "size": 1,
      "price": "2106000000000000000000",
      "reserved": "",
      "assetIds": [
        "55464657044963196816950587289035428064568320970692304673817341489687455367181",
        "55464657044963196816950587289035428064568320970692304673817341489687455367171",
        "55464657044963196816950587289035428064568320970692304673817341489687455367169",
        "55464657044963196816950587289035428064568320970692304673817341489687455367168",
        "55464657044963196816950587289035428064568320970692304673817341489687463725056"
      ]
    },
    {
      "x": 55,
      "y": 59,
      "size": 1,
      "price": "2106000000000000000000",
      "reserved": "",
      "assetIds": [
        "55464657044963196816950587289035428064568320970692304673817341489687455367172",
        "55464657044963196816950587289035428064568320970692304673817341489687455367170",
        "55464657044963196816950587289035428064568320970692304673817341489687455367169",
        "55464657044963196816950587289035428064568320970692304673817341489687455367168",
        "55464657044963196816950587289035428064568320970692304673817341489687463725056"
      ]
    },
    {
      "x": 56,
      "y": 58,
      "size": 1,
      "price": "2106000000000000000000",
      "reserved": "",
      "assetIds": [
        "55464657044963196816950587289035428064568320970692304673817341489687455367178",
        "55464657044963196816950587289035428064568320970692304673817341489687455367171",
        "55464657044963196816950587289035428064568320970692304673817341489687455367169",
        "55464657044963196816950587289035428064568320970692304673817341489687455367168",
        "55464657044963196816950587289035428064568320970692304673817341489687463725056"
      ]
    },
    {
      "x": 56,
      "y": 59,
      "size": 1,
      "price": "2106000000000000000000",
      "reserved": "",
      "assetIds": [
        "55464657044963196816950587289035428064568320970692304673817341489687455367174",
        "55464657044963196816950587289035428064568320970692304673817341489687455367170",
        "55464657044963196816950587289035428064568320970692304673817341489687455367169",
        "55464657044963196816950587289035428064568320970692304673817341489687455367168",
        "55464657044963196816950587289035428064568320970692304673817341489687463725056"
      ]
    },
    {
      "x": 56,
      "y": 57,
      "size": 1,
      "price": "2106000000000000000000",
      "reserved": "",
      "assetIds": [
        "55464657044963196816950587289035428064568320970692304673817341489687455367174",
        "55464657044963196816950587289035428064568320970692304673817341489687455367170",
        "55464657044963196816950587289035428064568320970692304673817341489687455367169",
        "55464657044963196816950587289035428064568320970692304673817341489687455367168",
        "55464657044963196816950587289035428064568320970692304673817341489687463725056"
      ]
    },
    {
      "x": 56,
      "y": 56,
      "size": 1,
      "price": "2106000000000000000000",
      "reserved": "",
      "assetIds": [
        "55464657044963196816950587289035428064568320970692304673817341489687455367176",
        "55464657044963196816950587289035428064568320970692304673817341489687455367170",
        "55464657044963196816950587289035428064568320970692304673817341489687455367169",
        "55464657044963196816950587289035428064568320970692304673817341489687455367168",
        "55464657044963196816950587289035428064568320970692304673817341489687463725056"
      ]
    },
    {
      "x": 56,
      "y": 55,
      "size": 1,
      "price": "2106000000000000000000",
      "reserved": "",
      "assetIds": [
        "55464657044963196816950587289035428064568320970692304673817341489687455367180",
        "55464657044963196816950587289035428064568320970692304673817341489687455367171",
        "55464657044963196816950587289035428064568320970692304673817341489687455367169",
        "55464657044963196816950587289035428064568320970692304673817341489687455367168",
        "55464657044963196816950587289035428064568320970692304673817341489687463725056"
      ]
    },
    {
      "x": 56,
      "y": 54,
      "size": 1,
      "price": "2106000000000000000000",
      "reserved": "",
      "assetIds": [
        "55464657044963196816950587289035428064568320970692304673817341489687455367172",
        "55464657044963196816950587289035428064568320970692304673817341489687455367170",
        "55464657044963196816950587289035428064568320970692304673817341489687455367169",
        "55464657044963196816950587289035428064568320970692304673817341489687455367168",
        "55464657044963196816950587289035428064568320970692304673817341489687463725056"
      ]
    },
    {
      "x": 57,
      "y": 54,
      "size": 1,
      "price": "2106000000000000000000",
      "reserved": "",
      "assetIds": [
        "55464657044963196816950587289035428064568320970692304673817341489687455367176",
        "55464657044963196816950587289035428064568320970692304673817341489687455367170",
        "55464657044963196816950587289035428064568320970692304673817341489687455367169",
        "55464657044963196816950587289035428064568320970692304673817341489687455367168",
        "55464657044963196816950587289035428064568320970692304673817341489687463725056"
      ]
    },
    {
      "x": 57,
      "y": 56,
      "size": 1,
      "price": "2106000000000000000000",
      "reserved": "",
      "assetIds": [
        "55464657044963196816950587289035428064568320970692304673817341489687455367181",
        "55464657044963196816950587289035428064568320970692304673817341489687455367171",
        "55464657044963196816950587289035428064568320970692304673817341489687455367169",
        "55464657044963196816950587289035428064568320970692304673817341489687455367168",
        "55464657044963196816950587289035428064568320970692304673817341489687463725056"
      ]
    },
    {
      "x": 58,
      "y": 56,
      "size": 1,
      "price": "2106000000000000000000",
      "reserved": "",
      "assetIds": [
        "55464657044963196816950587289035428064568320970692304673817341489687455367176",
        "55464657044963196816950587289035428064568320970692304673817341489687455367170",
        "55464657044963196816950587289035428064568320970692304673817341489687455367169",
        "55464657044963196816950587289035428064568320970692304673817341489687455367168",
        "55464657044963196816950587289035428064568320970692304673817341489687463725056"
      ]
    },
    {
      "x": 59,
      "y": 56,
      "size": 1,
      "price": "2106000000000000000000",
      "reserved": "",
      "assetIds": [
        "55464657044963196816950587289035428064568320970692304673817341489687455367173",
        "55464657044963196816950587289035428064568320970692304673817341489687455367170",
        "55464657044963196816950587289035428064568320970692304673817341489687455367169",
        "55464657044963196816950587289035428064568320970692304673817341489687455367168",
        "55464657044963196816950587289035428064568320970692304673817341489687463725056"
      ]
    },
    {
      "x": 59,
      "y": 55,
      "size": 1,
      "price": "2106000000000000000000",
      "reserved": "",
      "assetIds": [
        "55464657044963196816950587289035428064568320970692304673817341489687455367181",
        "55464657044963196816950587289035428064568320970692304673817341489687455367171",
        "55464657044963196816950587289035428064568320970692304673817341489687455367169",
        "55464657044963196816950587289035428064568320970692304673817341489687455367168",
        "55464657044963196816950587289035428064568320970692304673817341489687463725056"
      ]
    },
    {
      "x": 59,
      "y": 54,
      "size": 1,
      "price": "2106000000000000000000",
      "reserved": "",
      "assetIds": [
        "55464657044963196816950587289035428064568320970692304673817341489687455367178",
        "55464657044963196816950587289035428064568320970692304673817341489687455367171",
        "55464657044963196816950587289035428064568320970692304673817341489687455367169",
        "55464657044963196816950587289035428064568320970692304673817341489687455367168",
        "55464657044963196816950587289035428064568320970692304673817341489687463725056"
      ]
    },
    {
      "x": 59,
      "y": 53,
      "size": 1,
      "price": "2106000000000000000000",
      "reserved": "",
      "assetIds": [
        "55464657044963196816950587289035428064568320970692304673817341489687455367176",
        "55464657044963196816950587289035428064568320970692304673817341489687455367170",
        "55464657044963196816950587289035428064568320970692304673817341489687455367169",
        "55464657044963196816950587289035428064568320970692304673817341489687455367168",
        "55464657044963196816950587289035428064568320970692304673817341489687463725056"
      ]
    },
    {
      "x": 59,
      "y": 52,
      "size": 1,
      "price": "2106000000000000000000",
      "reserved": "",
      "assetIds": [
        "55464657044963196816950587289035428064568320970692304673817341489687455367180",
        "55464657044963196816950587289035428064568320970692304673817341489687455367171",
        "55464657044963196816950587289035428064568320970692304673817341489687455367169",
        "55464657044963196816950587289035428064568320970692304673817341489687455367168",
        "55464657044963196816950587289035428064568320970692304673817341489687463725056"
      ]
    },
    {
      "x": 59,
      "y": 51,
      "size": 1,
      "price": "2106000000000000000000",
      "reserved": "",
      "assetIds": [
        "55464657044963196816950587289035428064568320970692304673817341489687455367175",
        "55464657044963196816950587289035428064568320970692304673817341489687455367170",
        "55464657044963196816950587289035428064568320970692304673817341489687455367169",
        "55464657044963196816950587289035428064568320970692304673817341489687455367168",
        "55464657044963196816950587289035428064568320970692304673817341489687463725056"
      ]
    },
    {
      "x": 59,
      "y": 50,
      "size": 1,
      "price": "2106000000000000000000",
      "reserved": "",
      "assetIds": [
        "55464657044963196816950587289035428064568320970692304673817341489687455367177",
        "55464657044963196816950587289035428064568320970692304673817341489687455367170",
        "55464657044963196816950587289035428064568320970692304673817341489687455367169",
        "55464657044963196816950587289035428064568320970692304673817341489687455367168",
        "55464657044963196816950587289035428064568320970692304673817341489687463725056"
      ]
    },
    {
      "x": 59,
      "y": 49,
      "size": 1,
      "price": "2106000000000000000000",
      "reserved": "",
      "assetIds": [
        "55464657044963196816950587289035428064568320970692304673817341489687455367172",
        "55464657044963196816950587289035428064568320970692304673817341489687455367170",
        "55464657044963196816950587289035428064568320970692304673817341489687455367169",
        "55464657044963196816950587289035428064568320970692304673817341489687455367168",
        "55464657044963196816950587289035428064568320970692304673817341489687463725056"
      ]
    },
    {
      "x": 59,
      "y": 48,
      "size": 1,
      "price": "2106000000000000000000",
      "reserved": "",
      "assetIds": [
        "55464657044963196816950587289035428064568320970692304673817341489687455367174",
        "55464657044963196816950587289035428064568320970692304673817341489687455367170",
        "55464657044963196816950587289035428064568320970692304673817341489687455367169",
        "55464657044963196816950587289035428064568320970692304673817341489687455367168",
        "55464657044963196816950587289035428064568320970692304673817341489687463725056"
      ]
    },
    {
      "x": 59,
      "y": 47,
      "size": 1,
      "price": "2106000000000000000000",
      "reserved": "",
      "assetIds": [
        "55464657044963196816950587289035428064568320970692304673817341489687455367175",
        "55464657044963196816950587289035428064568320970692304673817341489687455367170",
        "55464657044963196816950587289035428064568320970692304673817341489687455367169",
        "55464657044963196816950587289035428064568320970692304673817341489687455367168",
        "55464657044963196816950587289035428064568320970692304673817341489687463725056"
      ]
    },
    {
      "x": 60,
      "y": 50,
      "size": 1,
      "price": "2106000000000000000000",
      "reserved": "",
      "assetIds": [
        "55464657044963196816950587289035428064568320970692304673817341489687455367178",
        "55464657044963196816950587289035428064568320970692304673817341489687455367171",
        "55464657044963196816950587289035428064568320970692304673817341489687455367169",
        "55464657044963196816950587289035428064568320970692304673817341489687455367168",
        "55464657044963196816950587289035428064568320970692304673817341489687463725056"
      ]
    },
    {
      "x": 61,
      "y": 50,
      "size": 1,
      "price": "2106000000000000000000",
      "reserved": "",
      "assetIds": [
        "55464657044963196816950587289035428064568320970692304673817341489687455367181",
        "55464657044963196816950587289035428064568320970692304673817341489687455367171",
        "55464657044963196816950587289035428064568320970692304673817341489687455367169",
        "55464657044963196816950587289035428064568320970692304673817341489687455367168",
        "55464657044963196816950587289035428064568320970692304673817341489687463725056"
      ]
    },
    {
      "x": 62,
      "y": 50,
      "size": 1,
      "price": "2106000000000000000000",
      "reserved": "",
      "assetIds": [
        "55464657044963196816950587289035428064568320970692304673817341489687455367182",
        "55464657044963196816950587289035428064568320970692304673817341489687455367171",
        "55464657044963196816950587289035428064568320970692304673817341489687455367169",
        "55464657044963196816950587289035428064568320970692304673817341489687455367168",
        "55464657044963196816950587289035428064568320970692304673817341489687463725056"
      ]
    },
    {
      "x": 62,
      "y": 49,
      "size": 1,
      "price": "2106000000000000000000",
      "reserved": "",
      "assetIds": [
        "55464657044963196816950587289035428064568320970692304673817341489687455367183",
        "55464657044963196816950587289035428064568320970692304673817341489687455367171",
        "55464657044963196816950587289035428064568320970692304673817341489687455367169",
        "55464657044963196816950587289035428064568320970692304673817341489687455367168",
        "55464657044963196816950587289035428064568320970692304673817341489687463725056"
      ]
    },
    {
      "x": 62,
      "y": 48,
      "size": 1,
      "price": "2106000000000000000000",
      "reserved": "",
      "assetIds": [
        "55464657044963196816950587289035428064568320970692304673817341489687455367175",
        "55464657044963196816950587289035428064568320970692304673817341489687455367170",
        "55464657044963196816950587289035428064568320970692304673817341489687455367169",
        "55464657044963196816950587289035428064568320970692304673817341489687455367168",
        "55464657044963196816950587289035428064568320970692304673817341489687463725056"
      ]
    },
    {
      "x": 62,
      "y": 47,
      "size": 1,
      "price": "2106000000000000000000",
      "reserved": "",
      "assetIds": [
        "55464657044963196816950587289035428064568320970692304673817341489687455367172",
        "55464657044963196816950587289035428064568320970692304673817341489687455367170",
        "55464657044963196816950587289035428064568320970692304673817341489687455367169",
        "55464657044963196816950587289035428064568320970692304673817341489687455367168",
        "55464657044963196816950587289035428064568320970692304673817341489687463725056"
      ]
    },
    {
      "x": 63,
      "y": 48,
      "size": 1,
      "price": "2106000000000000000000",
      "reserved": "",
      "assetIds": [
        "55464657044963196816950587289035428064568320970692304673817341489687455367173",
        "55464657044963196816950587289035428064568320970692304673817341489687455367170",
        "55464657044963196816950587289035428064568320970692304673817341489687455367169",
        "55464657044963196816950587289035428064568320970692304673817341489687455367168",
        "55464657044963196816950587289035428064568320970692304673817341489687463725056"
      ]
    },
    {
      "x": 64,
      "y": 48,
      "size": 1,
      "price": "2106000000000000000000",
      "reserved": "",
      "assetIds": [
        "55464657044963196816950587289035428064568320970692304673817341489687455367174",
        "55464657044963196816950587289035428064568320970692304673817341489687455367170",
        "55464657044963196816950587289035428064568320970692304673817341489687455367169",
        "55464657044963196816950587289035428064568320970692304673817341489687455367168",
        "55464657044963196816950587289035428064568320970692304673817341489687463725056"
      ]
    },
    {
      "x": 64,
      "y": 47,
      "size": 1,
      "price": "2106000000000000000000",
      "reserved": "",
      "assetIds": [
        "55464657044963196816950587289035428064568320970692304673817341489687455367176",
        "55464657044963196816950587289035428064568320970692304673817341489687455367170",
        "55464657044963196816950587289035428064568320970692304673817341489687455367169",
        "55464657044963196816950587289035428064568320970692304673817341489687455367168",
        "55464657044963196816950587289035428064568320970692304673817341489687463725056"
      ]
    },
    {
      "x": 65,
      "y": 47,
      "size": 1,
      "price": "2106000000000000000000",
      "reserved": "",
      "assetIds": [
        "55464657044963196816950587289035428064568320970692304673817341489687455367173",
        "55464657044963196816950587289035428064568320970692304673817341489687455367170",
        "55464657044963196816950587289035428064568320970692304673817341489687455367169",
        "55464657044963196816950587289035428064568320970692304673817341489687455367168",
        "55464657044963196816950587289035428064568320970692304673817341489687463725056"
      ]
    },
    {
      "x": 65,
      "y": 46,
      "size": 1,
      "price": "2106000000000000000000",
      "reserved": "",
      "assetIds": [
        "55464657044963196816950587289035428064568320970692304673817341489687455367172",
        "55464657044963196816950587289035428064568320970692304673817341489687455367170",
        "55464657044963196816950587289035428064568320970692304673817341489687455367169",
        "55464657044963196816950587289035428064568320970692304673817341489687455367168",
        "55464657044963196816950587289035428064568320970692304673817341489687463725056"
      ]
    },
    {
      "x": 65,
      "y": 45,
      "size": 1,
      "price": "2106000000000000000000",
      "reserved": "",
      "assetIds": [
        "55464657044963196816950587289035428064568320970692304673817341489687455367175",
        "55464657044963196816950587289035428064568320970692304673817341489687455367170",
        "55464657044963196816950587289035428064568320970692304673817341489687455367169",
        "55464657044963196816950587289035428064568320970692304673817341489687455367168",
        "55464657044963196816950587289035428064568320970692304673817341489687463725056"
      ]
    },
    {
      "x": 65,
      "y": 44,
      "size": 1,
      "price": "2106000000000000000000",
      "reserved": "",
      "assetIds": [
        "55464657044963196816950587289035428064568320970692304673817341489687455367173",
        "55464657044963196816950587289035428064568320970692304673817341489687455367170",
        "55464657044963196816950587289035428064568320970692304673817341489687455367169",
        "55464657044963196816950587289035428064568320970692304673817341489687455367168",
        "55464657044963196816950587289035428064568320970692304673817341489687463725056"
      ]
    },
    {
      "x": 66,
      "y": 44,
      "size": 1,
      "price": "2106000000000000000000",
      "reserved": "",
      "assetIds": [
        "55464657044963196816950587289035428064568320970692304673817341489687455367183",
        "55464657044963196816950587289035428064568320970692304673817341489687455367171",
        "55464657044963196816950587289035428064568320970692304673817341489687455367169",
        "55464657044963196816950587289035428064568320970692304673817341489687455367168",
        "55464657044963196816950587289035428064568320970692304673817341489687463725056"
      ]
    },
    {
      "x": 67,
      "y": 44,
      "size": 1,
      "price": "2106000000000000000000",
      "reserved": "",
      "assetIds": [
        "55464657044963196816950587289035428064568320970692304673817341489687455367176",
        "55464657044963196816950587289035428064568320970692304673817341489687455367170",
        "55464657044963196816950587289035428064568320970692304673817341489687455367169",
        "55464657044963196816950587289035428064568320970692304673817341489687455367168",
        "55464657044963196816950587289035428064568320970692304673817341489687463725056"
      ]
    },
    {
      "x": 68,
      "y": 44,
      "size": 1,
      "price": "2106000000000000000000",
      "reserved": "",
      "assetIds": [
        "55464657044963196816950587289035428064568320970692304673817341489687455367173",
        "55464657044963196816950587289035428064568320970692304673817341489687455367170",
        "55464657044963196816950587289035428064568320970692304673817341489687455367169",
        "55464657044963196816950587289035428064568320970692304673817341489687455367168",
        "55464657044963196816950587289035428064568320970692304673817341489687463725056"
      ]
    },
    {
      "x": 68,
      "y": 43,
      "size": 1,
      "price": "2106000000000000000000",
      "reserved": "",
      "assetIds": [
        "55464657044963196816950587289035428064568320970692304673817341489687455367181",
        "55464657044963196816950587289035428064568320970692304673817341489687455367171",
        "55464657044963196816950587289035428064568320970692304673817341489687455367169",
        "55464657044963196816950587289035428064568320970692304673817341489687455367168",
        "55464657044963196816950587289035428064568320970692304673817341489687463725056"
      ]
    },
    {
      "x": 68,
      "y": 42,
      "size": 1,
      "price": "2106000000000000000000",
      "reserved": "",
      "assetIds": [
        "55464657044963196816950587289035428064568320970692304673817341489687455367181",
        "55464657044963196816950587289035428064568320970692304673817341489687455367171",
        "55464657044963196816950587289035428064568320970692304673817341489687455367169",
        "55464657044963196816950587289035428064568320970692304673817341489687455367168",
        "55464657044963196816950587289035428064568320970692304673817341489687463725056"
      ]
    },
    {
      "x": 68,
      "y": 41,
      "size": 1,
      "price": "2106000000000000000000",
      "reserved": "",
      "assetIds": [
        "55464657044963196816950587289035428064568320970692304673817341489687455367177",
        "55464657044963196816950587289035428064568320970692304673817341489687455367170",
        "55464657044963196816950587289035428064568320970692304673817341489687455367169",
        "55464657044963196816950587289035428064568320970692304673817341489687455367168",
        "55464657044963196816950587289035428064568320970692304673817341489687463725056"
      ]
    },
    {
      "x": 68,
      "y": 40,
      "size": 1,
      "price": "2106000000000000000000",
      "reserved": "",
      "assetIds": [
        "55464657044963196816950587289035428064568320970692304673817341489687455367183",
        "55464657044963196816950587289035428064568320970692304673817341489687455367171",
        "55464657044963196816950587289035428064568320970692304673817341489687455367169",
        "55464657044963196816950587289035428064568320970692304673817341489687455367168",
        "55464657044963196816950587289035428064568320970692304673817341489687463725056"
      ]
    },
    {
      "x": 68,
      "y": 39,
      "size": 1,
      "price": "2106000000000000000000",
      "reserved": "",
      "assetIds": [
        "55464657044963196816950587289035428064568320970692304673817341489687455367182",
        "55464657044963196816950587289035428064568320970692304673817341489687455367171",
        "55464657044963196816950587289035428064568320970692304673817341489687455367169",
        "55464657044963196816950587289035428064568320970692304673817341489687455367168",
        "55464657044963196816950587289035428064568320970692304673817341489687463725056"
      ]
    },
    {
      "x": 68,
      "y": 38,
      "size": 1,
      "price": "2106000000000000000000",
      "reserved": "",
      "assetIds": [
        "55464657044963196816950587289035428064568320970692304673817341489687455367174",
        "55464657044963196816950587289035428064568320970692304673817341489687455367170",
        "55464657044963196816950587289035428064568320970692304673817341489687455367169",
        "55464657044963196816950587289035428064568320970692304673817341489687455367168",
        "55464657044963196816950587289035428064568320970692304673817341489687463725056"
      ]
    },
    {
      "x": 68,
      "y": 37,
      "size": 1,
      "price": "2106000000000000000000",
      "reserved": "",
      "assetIds": [
        "55464657044963196816950587289035428064568320970692304673817341489687455367182",
        "55464657044963196816950587289035428064568320970692304673817341489687455367171",
        "55464657044963196816950587289035428064568320970692304673817341489687455367169",
        "55464657044963196816950587289035428064568320970692304673817341489687455367168",
        "55464657044963196816950587289035428064568320970692304673817341489687463725056"
      ]
    },
    {
      "x": 69,
      "y": 35,
      "size": 1,
      "price": "2106000000000000000000",
      "reserved": "",
      "assetIds": [
        "55464657044963196816950587289035428064568320970692304673817341489687455367172",
        "55464657044963196816950587289035428064568320970692304673817341489687455367170",
        "55464657044963196816950587289035428064568320970692304673817341489687455367169",
        "55464657044963196816950587289035428064568320970692304673817341489687455367168",
        "55464657044963196816950587289035428064568320970692304673817341489687463725056"
      ]
    },
    {
      "x": 68,
      "y": 35,
      "size": 1,
      "price": "2106000000000000000000",
      "reserved": "",
      "assetIds": [
        "55464657044963196816950587289035428064568320970692304673817341489687455367177",
        "55464657044963196816950587289035428064568320970692304673817341489687455367170",
        "55464657044963196816950587289035428064568320970692304673817341489687455367169",
        "55464657044963196816950587289035428064568320970692304673817341489687455367168",
        "55464657044963196816950587289035428064568320970692304673817341489687463725056"
      ]
    },
    {
      "x": 68,
      "y": 36,
      "size": 1,
      "price": "2106000000000000000000",
      "reserved": "",
      "assetIds": [
        "55464657044963196816950587289035428064568320970692304673817341489687455367183",
        "55464657044963196816950587289035428064568320970692304673817341489687455367171",
        "55464657044963196816950587289035428064568320970692304673817341489687455367169",
        "55464657044963196816950587289035428064568320970692304673817341489687455367168",
        "55464657044963196816950587289035428064568320970692304673817341489687463725056"
      ]
    },
    {
      "x": 70,
      "y": 35,
      "size": 1,
      "price": "2106000000000000000000",
      "reserved": "",
      "assetIds": [
        "55464657044963196816950587289035428064568320970692304673817341489687455367176",
        "55464657044963196816950587289035428064568320970692304673817341489687455367170",
        "55464657044963196816950587289035428064568320970692304673817341489687455367169",
        "55464657044963196816950587289035428064568320970692304673817341489687455367168",
        "55464657044963196816950587289035428064568320970692304673817341489687463725056"
      ]
    },
    {
      "x": 71,
      "y": 35,
      "size": 1,
      "price": "2106000000000000000000",
      "reserved": "",
      "assetIds": [
        "55464657044963196816950587289035428064568320970692304673817341489687455367183",
        "55464657044963196816950587289035428064568320970692304673817341489687455367171",
        "55464657044963196816950587289035428064568320970692304673817341489687455367169",
        "55464657044963196816950587289035428064568320970692304673817341489687455367168",
        "55464657044963196816950587289035428064568320970692304673817341489687463725056"
      ]
    },
    {
      "x": 71,
      "y": 34,
      "size": 1,
      "price": "2106000000000000000000",
      "reserved": "",
      "assetIds": [
        "55464657044963196816950587289035428064568320970692304673817341489687455367177",
        "55464657044963196816950587289035428064568320970692304673817341489687455367170",
        "55464657044963196816950587289035428064568320970692304673817341489687455367169",
        "55464657044963196816950587289035428064568320970692304673817341489687455367168",
        "55464657044963196816950587289035428064568320970692304673817341489687463725056"
      ]
    },
    {
      "x": 71,
      "y": 33,
      "size": 1,
      "price": "2106000000000000000000",
      "reserved": "",
      "assetIds": [
        "55464657044963196816950587289035428064568320970692304673817341489687455367181",
        "55464657044963196816950587289035428064568320970692304673817341489687455367171",
        "55464657044963196816950587289035428064568320970692304673817341489687455367169",
        "55464657044963196816950587289035428064568320970692304673817341489687455367168",
        "55464657044963196816950587289035428064568320970692304673817341489687463725056"
      ]
    },
    {
      "x": 71,
      "y": 32,
      "size": 1,
      "price": "2106000000000000000000",
      "reserved": "",
      "assetIds": [
        "55464657044963196816950587289035428064568320970692304673817341489687455367174",
        "55464657044963196816950587289035428064568320970692304673817341489687455367170",
        "55464657044963196816950587289035428064568320970692304673817341489687455367169",
        "55464657044963196816950587289035428064568320970692304673817341489687455367168",
        "55464657044963196816950587289035428064568320970692304673817341489687463725056"
      ]
    },
    {
      "x": 72,
      "y": 32,
      "size": 1,
      "price": "2106000000000000000000",
      "reserved": "",
      "assetIds": [
        "55464657044963196816950587289035428064568320970692304673817341489687455367178",
        "55464657044963196816950587289035428064568320970692304673817341489687455367171",
        "55464657044963196816950587289035428064568320970692304673817341489687455367169",
        "55464657044963196816950587289035428064568320970692304673817341489687455367168",
        "55464657044963196816950587289035428064568320970692304673817341489687463725056"
      ]
    },
    {
      "x": 73,
      "y": 32,
      "size": 1,
      "price": "2106000000000000000000",
      "reserved": "",
      "assetIds": [
        "55464657044963196816950587289035428064568320970692304673817341489687455367173",
        "55464657044963196816950587289035428064568320970692304673817341489687455367170",
        "55464657044963196816950587289035428064568320970692304673817341489687455367169",
        "55464657044963196816950587289035428064568320970692304673817341489687455367168",
        "55464657044963196816950587289035428064568320970692304673817341489687463725056"
      ]
    },
    {
      "x": 74,
      "y": 32,
      "size": 1,
      "price": "2106000000000000000000",
      "reserved": "",
      "assetIds": [
        "55464657044963196816950587289035428064568320970692304673817341489687455367174",
        "55464657044963196816950587289035428064568320970692304673817341489687455367170",
        "55464657044963196816950587289035428064568320970692304673817341489687455367169",
        "55464657044963196816950587289035428064568320970692304673817341489687455367168",
        "55464657044963196816950587289035428064568320970692304673817341489687463725056"
      ]
    },
    {
      "x": 60,
      "y": 32,
      "size": 1,
      "price": "2106000000000000000000",
      "reserved": "",
      "assetIds": [
        "55464657044963196816950587289035428064568320970692304673817341489687455367182",
        "55464657044963196816950587289035428064568320970692304673817341489687455367171",
        "55464657044963196816950587289035428064568320970692304673817341489687455367169",
        "55464657044963196816950587289035428064568320970692304673817341489687455367168",
        "55464657044963196816950587289035428064568320970692304673817341489687463725056"
      ]
    },
    {
      "x": 60,
      "y": 33,
      "size": 1,
      "price": "2106000000000000000000",
      "reserved": "",
      "assetIds": [
        "55464657044963196816950587289035428064568320970692304673817341489687455367173",
        "55464657044963196816950587289035428064568320970692304673817341489687455367170",
        "55464657044963196816950587289035428064568320970692304673817341489687455367169",
        "55464657044963196816950587289035428064568320970692304673817341489687455367168",
        "55464657044963196816950587289035428064568320970692304673817341489687463725056"
      ]
    },
    {
      "x": 60,
      "y": 34,
      "size": 1,
      "price": "2106000000000000000000",
      "reserved": "",
      "assetIds": [
        "55464657044963196816950587289035428064568320970692304673817341489687455367172",
        "55464657044963196816950587289035428064568320970692304673817341489687455367170",
        "55464657044963196816950587289035428064568320970692304673817341489687455367169",
        "55464657044963196816950587289035428064568320970692304673817341489687455367168",
        "55464657044963196816950587289035428064568320970692304673817341489687463725056"
      ]
    },
    {
      "x": 59,
      "y": 34,
      "size": 1,
      "price": "2106000000000000000000",
      "reserved": "",
      "assetIds": [
        "55464657044963196816950587289035428064568320970692304673817341489687455367177",
        "55464657044963196816950587289035428064568320970692304673817341489687455367170",
        "55464657044963196816950587289035428064568320970692304673817341489687455367169",
        "55464657044963196816950587289035428064568320970692304673817341489687455367168",
        "55464657044963196816950587289035428064568320970692304673817341489687463725056"
      ]
    },
    {
      "x": 59,
      "y": 35,
      "size": 1,
      "price": "2106000000000000000000",
      "reserved": "",
      "assetIds": [
        "55464657044963196816950587289035428064568320970692304673817341489687455367179",
        "55464657044963196816950587289035428064568320970692304673817341489687455367171",
        "55464657044963196816950587289035428064568320970692304673817341489687455367169",
        "55464657044963196816950587289035428064568320970692304673817341489687455367168",
        "55464657044963196816950587289035428064568320970692304673817341489687463725056"
      ]
    },
    {
      "x": 58,
      "y": 35,
      "size": 1,
      "price": "2106000000000000000000",
      "reserved": "",
      "assetIds": [
        "55464657044963196816950587289035428064568320970692304673817341489687455367174",
        "55464657044963196816950587289035428064568320970692304673817341489687455367170",
        "55464657044963196816950587289035428064568320970692304673817341489687455367169",
        "55464657044963196816950587289035428064568320970692304673817341489687455367168",
        "55464657044963196816950587289035428064568320970692304673817341489687463725056"
      ]
    },
    {
      "x": 58,
      "y": 34,
      "size": 1,
      "price": "2106000000000000000000",
      "reserved": "",
      "assetIds": [
        "55464657044963196816950587289035428064568320970692304673817341489687455367176",
        "55464657044963196816950587289035428064568320970692304673817341489687455367170",
        "55464657044963196816950587289035428064568320970692304673817341489687455367169",
        "55464657044963196816950587289035428064568320970692304673817341489687455367168",
        "55464657044963196816950587289035428064568320970692304673817341489687463725056"
      ]
    },
    {
      "x": 57,
      "y": 33,
      "size": 1,
      "price": "2106000000000000000000",
      "reserved": "",
      "assetIds": [
        "55464657044963196816950587289035428064568320970692304673817341489687455367177",
        "55464657044963196816950587289035428064568320970692304673817341489687455367170",
        "55464657044963196816950587289035428064568320970692304673817341489687455367169",
        "55464657044963196816950587289035428064568320970692304673817341489687455367168",
        "55464657044963196816950587289035428064568320970692304673817341489687463725056"
      ]
    },
    {
      "x": 57,
      "y": 32,
      "size": 1,
      "price": "2106000000000000000000",
      "reserved": "",
      "assetIds": [
        "55464657044963196816950587289035428064568320970692304673817341489687455367175",
        "55464657044963196816950587289035428064568320970692304673817341489687455367170",
        "55464657044963196816950587289035428064568320970692304673817341489687455367169",
        "55464657044963196816950587289035428064568320970692304673817341489687455367168",
        "55464657044963196816950587289035428064568320970692304673817341489687463725056"
      ]
    },
    {
      "x": 55,
      "y": 32,
      "size": 1,
      "price": "2106000000000000000000",
      "reserved": "",
      "assetIds": [
        "55464657044963196816950587289035428064568320970692304673817341489687455367178",
        "55464657044963196816950587289035428064568320970692304673817341489687455367171",
        "55464657044963196816950587289035428064568320970692304673817341489687455367169",
        "55464657044963196816950587289035428064568320970692304673817341489687455367168",
        "55464657044963196816950587289035428064568320970692304673817341489687463725056"
      ]
    },
    {
      "x": 54,
      "y": 32,
      "size": 1,
      "price": "2106000000000000000000",
      "reserved": "",
      "assetIds": [
        "55464657044963196816950587289035428064568320970692304673817341489687455367183",
        "55464657044963196816950587289035428064568320970692304673817341489687455367171",
        "55464657044963196816950587289035428064568320970692304673817341489687455367169",
        "55464657044963196816950587289035428064568320970692304673817341489687455367168",
        "55464657044963196816950587289035428064568320970692304673817341489687463725056"
      ]
    },
    {
      "x": 53,
      "y": 32,
      "size": 1,
      "price": "2106000000000000000000",
      "reserved": "",
      "assetIds": [
        "55464657044963196816950587289035428064568320970692304673817341489687455367175",
        "55464657044963196816950587289035428064568320970692304673817341489687455367170",
        "55464657044963196816950587289035428064568320970692304673817341489687455367169",
        "55464657044963196816950587289035428064568320970692304673817341489687455367168",
        "55464657044963196816950587289035428064568320970692304673817341489687463725056"
      ]
    },
    {
      "x": 52,
      "y": 32,
      "size": 1,
      "price": "2106000000000000000000",
      "reserved": "",
      "assetIds": [
        "55464657044963196816950587289035428064568320970692304673817341489687455367181",
        "55464657044963196816950587289035428064568320970692304673817341489687455367171",
        "55464657044963196816950587289035428064568320970692304673817341489687455367169",
        "55464657044963196816950587289035428064568320970692304673817341489687455367168",
        "55464657044963196816950587289035428064568320970692304673817341489687463725056"
      ]
    },
    {
      "x": 52,
      "y": 33,
      "size": 1,
      "price": "2106000000000000000000",
      "reserved": "",
      "assetIds": [
        "55464657044963196816950587289035428064568320970692304673817341489687455367178",
        "55464657044963196816950587289035428064568320970692304673817341489687455367171",
        "55464657044963196816950587289035428064568320970692304673817341489687455367169",
        "55464657044963196816950587289035428064568320970692304673817341489687455367168",
        "55464657044963196816950587289035428064568320970692304673817341489687463725056"
      ]
    },
    {
      "x": 53,
      "y": 33,
      "size": 1,
      "price": "2106000000000000000000",
      "reserved": "",
      "assetIds": [
        "55464657044963196816950587289035428064568320970692304673817341489687455367183",
        "55464657044963196816950587289035428064568320970692304673817341489687455367171",
        "55464657044963196816950587289035428064568320970692304673817341489687455367169",
        "55464657044963196816950587289035428064568320970692304673817341489687455367168",
        "55464657044963196816950587289035428064568320970692304673817341489687463725056"
      ]
    },
    {
      "x": 53,
      "y": 34,
      "size": 1,
      "price": "2106000000000000000000",
      "reserved": "",
      "assetIds": [
        "55464657044963196816950587289035428064568320970692304673817341489687455367174",
        "55464657044963196816950587289035428064568320970692304673817341489687455367170",
        "55464657044963196816950587289035428064568320970692304673817341489687455367169",
        "55464657044963196816950587289035428064568320970692304673817341489687455367168",
        "55464657044963196816950587289035428064568320970692304673817341489687463725056"
      ]
    },
    {
      "x": 52,
      "y": 34,
      "size": 1,
      "price": "2106000000000000000000",
      "reserved": "",
      "assetIds": [
        "55464657044963196816950587289035428064568320970692304673817341489687455367174",
        "55464657044963196816950587289035428064568320970692304673817341489687455367170",
        "55464657044963196816950587289035428064568320970692304673817341489687455367169",
        "55464657044963196816950587289035428064568320970692304673817341489687455367168",
        "55464657044963196816950587289035428064568320970692304673817341489687463725056"
      ]
    },
    {
      "x": 51,
      "y": 32,
      "size": 1,
      "price": "2106000000000000000000",
      "reserved": "",
      "assetIds": [
        "55464657044963196816950587289035428064568320970692304673817341489687455367173",
        "55464657044963196816950587289035428064568320970692304673817341489687455367170",
        "55464657044963196816950587289035428064568320970692304673817341489687455367169",
        "55464657044963196816950587289035428064568320970692304673817341489687455367168",
        "55464657044963196816950587289035428064568320970692304673817341489687463725056"
      ]
    },
    {
      "x": 50,
      "y": 34,
      "size": 1,
      "price": "2106000000000000000000",
      "reserved": "",
      "assetIds": [
        "55464657044963196816950587289035428064568320970692304673817341489687455367173",
        "55464657044963196816950587289035428064568320970692304673817341489687455367170",
        "55464657044963196816950587289035428064568320970692304673817341489687455367169",
        "55464657044963196816950587289035428064568320970692304673817341489687455367168",
        "55464657044963196816950587289035428064568320970692304673817341489687463725056"
      ]
    },
    {
      "x": 50,
      "y": 35,
      "size": 1,
      "price": "2106000000000000000000",
      "reserved": "",
      "assetIds": [
        "55464657044963196816950587289035428064568320970692304673817341489687455367172",
        "55464657044963196816950587289035428064568320970692304673817341489687455367170",
        "55464657044963196816950587289035428064568320970692304673817341489687455367169",
        "55464657044963196816950587289035428064568320970692304673817341489687455367168",
        "55464657044963196816950587289035428064568320970692304673817341489687463725056"
      ]
    },
    {
      "x": 50,
      "y": 36,
      "size": 1,
      "price": "2106000000000000000000",
      "reserved": "",
      "assetIds": [
        "55464657044963196816950587289035428064568320970692304673817341489687455367181",
        "55464657044963196816950587289035428064568320970692304673817341489687455367171",
        "55464657044963196816950587289035428064568320970692304673817341489687455367169",
        "55464657044963196816950587289035428064568320970692304673817341489687455367168",
        "55464657044963196816950587289035428064568320970692304673817341489687463725056"
      ]
    },
    {
      "x": 50,
      "y": 37,
      "size": 1,
      "price": "2106000000000000000000",
      "reserved": "",
      "assetIds": [
        "55464657044963196816950587289035428064568320970692304673817341489687455367183",
        "55464657044963196816950587289035428064568320970692304673817341489687455367171",
        "55464657044963196816950587289035428064568320970692304673817341489687455367169",
        "55464657044963196816950587289035428064568320970692304673817341489687455367168",
        "55464657044963196816950587289035428064568320970692304673817341489687463725056"
      ]
    },
    {
      "x": 50,
      "y": 38,
      "size": 1,
      "price": "2106000000000000000000",
      "reserved": "",
      "assetIds": [
        "55464657044963196816950587289035428064568320970692304673817341489687455367178",
        "55464657044963196816950587289035428064568320970692304673817341489687455367171",
        "55464657044963196816950587289035428064568320970692304673817341489687455367169",
        "55464657044963196816950587289035428064568320970692304673817341489687455367168",
        "55464657044963196816950587289035428064568320970692304673817341489687463725056"
      ]
    },
    {
      "x": 50,
      "y": 33,
      "size": 1,
      "price": "2106000000000000000000",
      "reserved": "",
      "assetIds": [
        "55464657044963196816950587289035428064568320970692304673817341489687455367179",
        "55464657044963196816950587289035428064568320970692304673817341489687455367171",
        "55464657044963196816950587289035428064568320970692304673817341489687455367169",
        "55464657044963196816950587289035428064568320970692304673817341489687455367168",
        "55464657044963196816950587289035428064568320970692304673817341489687463725056"
      ]
    },
    {
      "x": 51,
      "y": 33,
      "size": 1,
      "price": "2106000000000000000000",
      "reserved": "",
      "assetIds": [
        "55464657044963196816950587289035428064568320970692304673817341489687455367178",
        "55464657044963196816950587289035428064568320970692304673817341489687455367171",
        "55464657044963196816950587289035428064568320970692304673817341489687455367169",
        "55464657044963196816950587289035428064568320970692304673817341489687455367168",
        "55464657044963196816950587289035428064568320970692304673817341489687463725056"
      ]
    },
    {
      "x": 51,
      "y": 34,
      "size": 1,
      "price": "2106000000000000000000",
      "reserved": "",
      "assetIds": [
        "55464657044963196816950587289035428064568320970692304673817341489687455367176",
        "55464657044963196816950587289035428064568320970692304673817341489687455367170",
        "55464657044963196816950587289035428064568320970692304673817341489687455367169",
        "55464657044963196816950587289035428064568320970692304673817341489687455367168",
        "55464657044963196816950587289035428064568320970692304673817341489687463725056"
      ]
    },
    {
      "x": 50,
      "y": 32,
      "size": 1,
      "price": "2106000000000000000000",
      "reserved": "",
      "assetIds": [
        "55464657044963196816950587289035428064568320970692304673817341489687455367177",
        "55464657044963196816950587289035428064568320970692304673817341489687455367170",
        "55464657044963196816950587289035428064568320970692304673817341489687455367169",
        "55464657044963196816950587289035428064568320970692304673817341489687455367168",
        "55464657044963196816950587289035428064568320970692304673817341489687463725056"
      ]
    },
    {
      "x": 58,
      "y": 32,
      "size": 1,
      "price": "2106000000000000000000",
      "reserved": "",
      "assetIds": [
        "55464657044963196816950587289035428064568320970692304673817341489687455367177",
        "55464657044963196816950587289035428064568320970692304673817341489687455367170",
        "55464657044963196816950587289035428064568320970692304673817341489687455367169",
        "55464657044963196816950587289035428064568320970692304673817341489687455367168",
        "55464657044963196816950587289035428064568320970692304673817341489687463725056"
      ]
    },
    {
      "x": 59,
      "y": 32,
      "size": 1,
      "price": "2106000000000000000000",
      "reserved": "",
      "assetIds": [
        "55464657044963196816950587289035428064568320970692304673817341489687455367174",
        "55464657044963196816950587289035428064568320970692304673817341489687455367170",
        "55464657044963196816950587289035428064568320970692304673817341489687455367169",
        "55464657044963196816950587289035428064568320970692304673817341489687455367168",
        "55464657044963196816950587289035428064568320970692304673817341489687463725056"
      ]
    },
    {
      "x": 59,
      "y": 33,
      "size": 1,
      "price": "2106000000000000000000",
      "reserved": "",
      "assetIds": [
        "55464657044963196816950587289035428064568320970692304673817341489687455367182",
        "55464657044963196816950587289035428064568320970692304673817341489687455367171",
        "55464657044963196816950587289035428064568320970692304673817341489687455367169",
        "55464657044963196816950587289035428064568320970692304673817341489687455367168",
        "55464657044963196816950587289035428064568320970692304673817341489687463725056"
      ]
    },
    {
      "x": 58,
      "y": 33,
      "size": 1,
      "price": "2106000000000000000000",
      "reserved": "",
      "assetIds": [
        "55464657044963196816950587289035428064568320970692304673817341489687455367180",
        "55464657044963196816950587289035428064568320970692304673817341489687455367171",
        "55464657044963196816950587289035428064568320970692304673817341489687455367169",
        "55464657044963196816950587289035428064568320970692304673817341489687455367168",
        "55464657044963196816950587289035428064568320970692304673817341489687463725056"
      ]
    },
    {
      "x": 56,
      "y": 33,
      "size": 1,
      "price": "2106000000000000000000",
      "reserved": "",
      "assetIds": [
        "55464657044963196816950587289035428064568320970692304673817341489687455367181",
        "55464657044963196816950587289035428064568320970692304673817341489687455367171",
        "55464657044963196816950587289035428064568320970692304673817341489687455367169",
        "55464657044963196816950587289035428064568320970692304673817341489687455367168",
        "55464657044963196816950587289035428064568320970692304673817341489687463725056"
      ]
    },
    {
      "x": 56,
      "y": 34,
      "size": 1,
      "price": "2106000000000000000000",
      "reserved": "",
      "assetIds": [
        "55464657044963196816950587289035428064568320970692304673817341489687455367178",
        "55464657044963196816950587289035428064568320970692304673817341489687455367171",
        "55464657044963196816950587289035428064568320970692304673817341489687455367169",
        "55464657044963196816950587289035428064568320970692304673817341489687455367168",
        "55464657044963196816950587289035428064568320970692304673817341489687463725056"
      ]
    },
    {
      "x": 55,
      "y": 33,
      "size": 1,
      "price": "2106000000000000000000",
      "reserved": "",
      "assetIds": [
        "55464657044963196816950587289035428064568320970692304673817341489687455367173",
        "55464657044963196816950587289035428064568320970692304673817341489687455367170",
        "55464657044963196816950587289035428064568320970692304673817341489687455367169",
        "55464657044963196816950587289035428064568320970692304673817341489687455367168",
        "55464657044963196816950587289035428064568320970692304673817341489687463725056"
      ]
    },
    {
      "x": 54,
      "y": 34,
      "size": 1,
      "price": "2106000000000000000000",
      "reserved": "",
      "assetIds": [
        "55464657044963196816950587289035428064568320970692304673817341489687455367180",
        "55464657044963196816950587289035428064568320970692304673817341489687455367171",
        "55464657044963196816950587289035428064568320970692304673817341489687455367169",
        "55464657044963196816950587289035428064568320970692304673817341489687455367168",
        "55464657044963196816950587289035428064568320970692304673817341489687463725056"
      ]
    },
    {
      "x": 54,
      "y": 35,
      "size": 1,
      "price": "2106000000000000000000",
      "reserved": "",
      "assetIds": [
        "55464657044963196816950587289035428064568320970692304673817341489687455367180",
        "55464657044963196816950587289035428064568320970692304673817341489687455367171",
        "55464657044963196816950587289035428064568320970692304673817341489687455367169",
        "55464657044963196816950587289035428064568320970692304673817341489687455367168",
        "55464657044963196816950587289035428064568320970692304673817341489687463725056"
      ]
    },
    {
      "x": 55,
      "y": 34,
      "size": 1,
      "price": "2106000000000000000000",
      "reserved": "",
      "assetIds": [
        "55464657044963196816950587289035428064568320970692304673817341489687455367175",
        "55464657044963196816950587289035428064568320970692304673817341489687455367170",
        "55464657044963196816950587289035428064568320970692304673817341489687455367169",
        "55464657044963196816950587289035428064568320970692304673817341489687455367168",
        "55464657044963196816950587289035428064568320970692304673817341489687463725056"
      ]
    },
    {
      "x": 57,
      "y": 34,
      "size": 1,
      "price": "2106000000000000000000",
      "reserved": "",
      "assetIds": [
        "55464657044963196816950587289035428064568320970692304673817341489687455367177",
        "55464657044963196816950587289035428064568320970692304673817341489687455367170",
        "55464657044963196816950587289035428064568320970692304673817341489687455367169",
        "55464657044963196816950587289035428064568320970692304673817341489687455367168",
        "55464657044963196816950587289035428064568320970692304673817341489687463725056"
      ]
    },
    {
      "x": 57,
      "y": 35,
      "size": 1,
      "price": "2106000000000000000000",
      "reserved": "",
      "assetIds": [
        "55464657044963196816950587289035428064568320970692304673817341489687455367181",
        "55464657044963196816950587289035428064568320970692304673817341489687455367171",
        "55464657044963196816950587289035428064568320970692304673817341489687455367169",
        "55464657044963196816950587289035428064568320970692304673817341489687455367168",
        "55464657044963196816950587289035428064568320970692304673817341489687463725056"
      ]
    },
    {
      "x": 56,
      "y": 35,
      "size": 1,
      "price": "2106000000000000000000",
      "reserved": "",
      "assetIds": [
        "55464657044963196816950587289035428064568320970692304673817341489687455367172",
        "55464657044963196816950587289035428064568320970692304673817341489687455367170",
        "55464657044963196816950587289035428064568320970692304673817341489687455367169",
        "55464657044963196816950587289035428064568320970692304673817341489687455367168",
        "55464657044963196816950587289035428064568320970692304673817341489687463725056"
      ]
    },
    {
      "x": 55,
      "y": 35,
      "size": 1,
      "price": "2106000000000000000000",
      "reserved": "",
      "assetIds": [
        "55464657044963196816950587289035428064568320970692304673817341489687455367175",
        "55464657044963196816950587289035428064568320970692304673817341489687455367170",
        "55464657044963196816950587289035428064568320970692304673817341489687455367169",
        "55464657044963196816950587289035428064568320970692304673817341489687455367168",
        "55464657044963196816950587289035428064568320970692304673817341489687463725056"
      ]
    },
    {
      "x": 53,
      "y": 35,
      "size": 1,
      "price": "2106000000000000000000",
      "reserved": "",
      "assetIds": [
        "55464657044963196816950587289035428064568320970692304673817341489687455367173",
        "55464657044963196816950587289035428064568320970692304673817341489687455367170",
        "55464657044963196816950587289035428064568320970692304673817341489687455367169",
        "55464657044963196816950587289035428064568320970692304673817341489687455367168",
        "55464657044963196816950587289035428064568320970692304673817341489687463725056"
      ]
    },
    {
      "x": 52,
      "y": 35,
      "size": 1,
      "price": "2106000000000000000000",
      "reserved": "",
      "assetIds": [
        "55464657044963196816950587289035428064568320970692304673817341489687455367177",
        "55464657044963196816950587289035428064568320970692304673817341489687455367170",
        "55464657044963196816950587289035428064568320970692304673817341489687455367169",
        "55464657044963196816950587289035428064568320970692304673817341489687455367168",
        "55464657044963196816950587289035428064568320970692304673817341489687463725056"
      ]
    },
    {
      "x": 51,
      "y": 35,
      "size": 1,
      "price": "2106000000000000000000",
      "reserved": "",
      "assetIds": [
        "55464657044963196816950587289035428064568320970692304673817341489687455367182",
        "55464657044963196816950587289035428064568320970692304673817341489687455367171",
        "55464657044963196816950587289035428064568320970692304673817341489687455367169",
        "55464657044963196816950587289035428064568320970692304673817341489687455367168",
        "55464657044963196816950587289035428064568320970692304673817341489687463725056"
      ]
    },
    {
      "x": 51,
      "y": 36,
      "size": 1,
      "price": "2106000000000000000000",
      "reserved": "",
      "assetIds": [
        "55464657044963196816950587289035428064568320970692304673817341489687455367172",
        "55464657044963196816950587289035428064568320970692304673817341489687455367170",
        "55464657044963196816950587289035428064568320970692304673817341489687455367169",
        "55464657044963196816950587289035428064568320970692304673817341489687455367168",
        "55464657044963196816950587289035428064568320970692304673817341489687463725056"
      ]
    },
    {
      "x": 51,
      "y": 37,
      "size": 1,
      "price": "2106000000000000000000",
      "reserved": "",
      "assetIds": [
        "55464657044963196816950587289035428064568320970692304673817341489687455367181",
        "55464657044963196816950587289035428064568320970692304673817341489687455367171",
        "55464657044963196816950587289035428064568320970692304673817341489687455367169",
        "55464657044963196816950587289035428064568320970692304673817341489687455367168",
        "55464657044963196816950587289035428064568320970692304673817341489687463725056"
      ]
    },
    {
      "x": 51,
      "y": 38,
      "size": 1,
      "price": "2106000000000000000000",
      "reserved": "",
      "assetIds": [
        "55464657044963196816950587289035428064568320970692304673817341489687455367175",
        "55464657044963196816950587289035428064568320970692304673817341489687455367170",
        "55464657044963196816950587289035428064568320970692304673817341489687455367169",
        "55464657044963196816950587289035428064568320970692304673817341489687455367168",
        "55464657044963196816950587289035428064568320970692304673817341489687463725056"
      ]
    },
    {
      "x": 51,
      "y": 39,
      "size": 1,
      "price": "2106000000000000000000",
      "reserved": "",
      "assetIds": [
        "55464657044963196816950587289035428064568320970692304673817341489687455367178",
        "55464657044963196816950587289035428064568320970692304673817341489687455367171",
        "55464657044963196816950587289035428064568320970692304673817341489687455367169",
        "55464657044963196816950587289035428064568320970692304673817341489687455367168",
        "55464657044963196816950587289035428064568320970692304673817341489687463725056"
      ]
    },
    {
      "x": 51,
      "y": 40,
      "size": 1,
      "price": "2106000000000000000000",
      "reserved": "",
      "assetIds": [
        "55464657044963196816950587289035428064568320970692304673817341489687455367172",
        "55464657044963196816950587289035428064568320970692304673817341489687455367170",
        "55464657044963196816950587289035428064568320970692304673817341489687455367169",
        "55464657044963196816950587289035428064568320970692304673817341489687455367168",
        "55464657044963196816950587289035428064568320970692304673817341489687463725056"
      ]
    },
    {
      "x": 52,
      "y": 40,
      "size": 1,
      "price": "2106000000000000000000",
      "reserved": "",
      "assetIds": [
        "55464657044963196816950587289035428064568320970692304673817341489687455367181",
        "55464657044963196816950587289035428064568320970692304673817341489687455367171",
        "55464657044963196816950587289035428064568320970692304673817341489687455367169",
        "55464657044963196816950587289035428064568320970692304673817341489687455367168",
        "55464657044963196816950587289035428064568320970692304673817341489687463725056"
      ]
    },
    {
      "x": 52,
      "y": 41,
      "size": 1,
      "price": "2106000000000000000000",
      "reserved": "",
      "assetIds": [
        "55464657044963196816950587289035428064568320970692304673817341489687455367180",
        "55464657044963196816950587289035428064568320970692304673817341489687455367171",
        "55464657044963196816950587289035428064568320970692304673817341489687455367169",
        "55464657044963196816950587289035428064568320970692304673817341489687455367168",
        "55464657044963196816950587289035428064568320970692304673817341489687463725056"
      ]
    },
    {
      "x": 52,
      "y": 42,
      "size": 1,
      "price": "2106000000000000000000",
      "reserved": "",
      "assetIds": [
        "55464657044963196816950587289035428064568320970692304673817341489687455367176",
        "55464657044963196816950587289035428064568320970692304673817341489687455367170",
        "55464657044963196816950587289035428064568320970692304673817341489687455367169",
        "55464657044963196816950587289035428064568320970692304673817341489687455367168",
        "55464657044963196816950587289035428064568320970692304673817341489687463725056"
      ]
    },
    {
      "x": 52,
      "y": 43,
      "size": 1,
      "price": "2106000000000000000000",
      "reserved": "",
      "assetIds": [
        "55464657044963196816950587289035428064568320970692304673817341489687455367181",
        "55464657044963196816950587289035428064568320970692304673817341489687455367171",
        "55464657044963196816950587289035428064568320970692304673817341489687455367169",
        "55464657044963196816950587289035428064568320970692304673817341489687455367168",
        "55464657044963196816950587289035428064568320970692304673817341489687463725056"
      ]
    },
    {
      "x": 52,
      "y": 44,
      "size": 1,
      "price": "2106000000000000000000",
      "reserved": "",
      "assetIds": [
        "55464657044963196816950587289035428064568320970692304673817341489687455367177",
        "55464657044963196816950587289035428064568320970692304673817341489687455367170",
        "55464657044963196816950587289035428064568320970692304673817341489687455367169",
        "55464657044963196816950587289035428064568320970692304673817341489687455367168",
        "55464657044963196816950587289035428064568320970692304673817341489687463725056"
      ]
    },
    {
      "x": 53,
      "y": 44,
      "size": 1,
      "price": "2106000000000000000000",
      "reserved": "",
      "assetIds": [
        "55464657044963196816950587289035428064568320970692304673817341489687455367179",
        "55464657044963196816950587289035428064568320970692304673817341489687455367171",
        "55464657044963196816950587289035428064568320970692304673817341489687455367169",
        "55464657044963196816950587289035428064568320970692304673817341489687455367168",
        "55464657044963196816950587289035428064568320970692304673817341489687463725056"
      ]
    },
    {
      "x": 53,
      "y": 43,
      "size": 1,
      "price": "2106000000000000000000",
      "reserved": "",
      "assetIds": [
        "55464657044963196816950587289035428064568320970692304673817341489687455367180",
        "55464657044963196816950587289035428064568320970692304673817341489687455367171",
        "55464657044963196816950587289035428064568320970692304673817341489687455367169",
        "55464657044963196816950587289035428064568320970692304673817341489687455367168",
        "55464657044963196816950587289035428064568320970692304673817341489687463725056"
      ]
    },
    {
      "x": 54,
      "y": 42,
      "size": 1,
      "price": "2106000000000000000000",
      "reserved": "",
      "assetIds": [
        "55464657044963196816950587289035428064568320970692304673817341489687455367176",
        "55464657044963196816950587289035428064568320970692304673817341489687455367170",
        "55464657044963196816950587289035428064568320970692304673817341489687455367169",
        "55464657044963196816950587289035428064568320970692304673817341489687455367168",
        "55464657044963196816950587289035428064568320970692304673817341489687463725056"
      ]
    },
    {
      "x": 54,
      "y": 41,
      "size": 1,
      "price": "2106000000000000000000",
      "reserved": "",
      "assetIds": [
        "55464657044963196816950587289035428064568320970692304673817341489687455367180",
        "55464657044963196816950587289035428064568320970692304673817341489687455367171",
        "55464657044963196816950587289035428064568320970692304673817341489687455367169",
        "55464657044963196816950587289035428064568320970692304673817341489687455367168",
        "55464657044963196816950587289035428064568320970692304673817341489687463725056"
      ]
    },
    {
      "x": 55,
      "y": 40,
      "size": 1,
      "price": "2106000000000000000000",
      "reserved": "",
      "assetIds": [
        "55464657044963196816950587289035428064568320970692304673817341489687455367174",
        "55464657044963196816950587289035428064568320970692304673817341489687455367170",
        "55464657044963196816950587289035428064568320970692304673817341489687455367169",
        "55464657044963196816950587289035428064568320970692304673817341489687455367168",
        "55464657044963196816950587289035428064568320970692304673817341489687463725056"
      ]
    },
    {
      "x": 55,
      "y": 39,
      "size": 1,
      "price": "2106000000000000000000",
      "reserved": "",
      "assetIds": [
        "55464657044963196816950587289035428064568320970692304673817341489687455367177",
        "55464657044963196816950587289035428064568320970692304673817341489687455367170",
        "55464657044963196816950587289035428064568320970692304673817341489687455367169",
        "55464657044963196816950587289035428064568320970692304673817341489687455367168",
        "55464657044963196816950587289035428064568320970692304673817341489687463725056"
      ]
    },
    {
      "x": 56,
      "y": 39,
      "size": 1,
      "price": "2106000000000000000000",
      "reserved": "",
      "assetIds": [
        "55464657044963196816950587289035428064568320970692304673817341489687455367179",
        "55464657044963196816950587289035428064568320970692304673817341489687455367171",
        "55464657044963196816950587289035428064568320970692304673817341489687455367169",
        "55464657044963196816950587289035428064568320970692304673817341489687455367168",
        "55464657044963196816950587289035428064568320970692304673817341489687463725056"
      ]
    },
    {
      "x": 56,
      "y": 38,
      "size": 1,
      "price": "2106000000000000000000",
      "reserved": "",
      "assetIds": [
        "55464657044963196816950587289035428064568320970692304673817341489687455367173",
        "55464657044963196816950587289035428064568320970692304673817341489687455367170",
        "55464657044963196816950587289035428064568320970692304673817341489687455367169",
        "55464657044963196816950587289035428064568320970692304673817341489687455367168",
        "55464657044963196816950587289035428064568320970692304673817341489687463725056"
      ]
    },
    {
      "x": 56,
      "y": 37,
      "size": 1,
      "price": "2106000000000000000000",
      "reserved": "",
      "assetIds": [
        "55464657044963196816950587289035428064568320970692304673817341489687455367173",
        "55464657044963196816950587289035428064568320970692304673817341489687455367170",
        "55464657044963196816950587289035428064568320970692304673817341489687455367169",
        "55464657044963196816950587289035428064568320970692304673817341489687455367168",
        "55464657044963196816950587289035428064568320970692304673817341489687463725056"
      ]
    },
    {
      "x": 56,
      "y": 36,
      "size": 1,
      "price": "2106000000000000000000",
      "reserved": "",
      "assetIds": [
        "55464657044963196816950587289035428064568320970692304673817341489687455367172",
        "55464657044963196816950587289035428064568320970692304673817341489687455367170",
        "55464657044963196816950587289035428064568320970692304673817341489687455367169",
        "55464657044963196816950587289035428064568320970692304673817341489687455367168",
        "55464657044963196816950587289035428064568320970692304673817341489687463725056"
      ]
    },
    {
      "x": 55,
      "y": 36,
      "size": 1,
      "price": "2106000000000000000000",
      "reserved": "",
      "assetIds": [
        "55464657044963196816950587289035428064568320970692304673817341489687455367183",
        "55464657044963196816950587289035428064568320970692304673817341489687455367171",
        "55464657044963196816950587289035428064568320970692304673817341489687455367169",
        "55464657044963196816950587289035428064568320970692304673817341489687455367168",
        "55464657044963196816950587289035428064568320970692304673817341489687463725056"
      ]
    },
    {
      "x": 54,
      "y": 36,
      "size": 1,
      "price": "2106000000000000000000",
      "reserved": "",
      "assetIds": [
        "55464657044963196816950587289035428064568320970692304673817341489687455367175",
        "55464657044963196816950587289035428064568320970692304673817341489687455367170",
        "55464657044963196816950587289035428064568320970692304673817341489687455367169",
        "55464657044963196816950587289035428064568320970692304673817341489687455367168",
        "55464657044963196816950587289035428064568320970692304673817341489687463725056"
      ]
    },
    {
      "x": 54,
      "y": 37,
      "size": 1,
      "price": "2106000000000000000000",
      "reserved": "",
      "assetIds": [
        "55464657044963196816950587289035428064568320970692304673817341489687455367175",
        "55464657044963196816950587289035428064568320970692304673817341489687455367170",
        "55464657044963196816950587289035428064568320970692304673817341489687455367169",
        "55464657044963196816950587289035428064568320970692304673817341489687455367168",
        "55464657044963196816950587289035428064568320970692304673817341489687463725056"
      ]
    },
    {
      "x": 54,
      "y": 38,
      "size": 1,
      "price": "2106000000000000000000",
      "reserved": "",
      "assetIds": [
        "55464657044963196816950587289035428064568320970692304673817341489687455367174",
        "55464657044963196816950587289035428064568320970692304673817341489687455367170",
        "55464657044963196816950587289035428064568320970692304673817341489687455367169",
        "55464657044963196816950587289035428064568320970692304673817341489687455367168",
        "55464657044963196816950587289035428064568320970692304673817341489687463725056"
      ]
    },
    {
      "x": 53,
      "y": 38,
      "size": 1,
      "price": "2106000000000000000000",
      "reserved": "",
      "assetIds": [
        "55464657044963196816950587289035428064568320970692304673817341489687455367183",
        "55464657044963196816950587289035428064568320970692304673817341489687455367171",
        "55464657044963196816950587289035428064568320970692304673817341489687455367169",
        "55464657044963196816950587289035428064568320970692304673817341489687455367168",
        "55464657044963196816950587289035428064568320970692304673817341489687463725056"
      ]
    },
    {
      "x": 53,
      "y": 37,
      "size": 1,
      "price": "2106000000000000000000",
      "reserved": "",
      "assetIds": [
        "55464657044963196816950587289035428064568320970692304673817341489687455367174",
        "55464657044963196816950587289035428064568320970692304673817341489687455367170",
        "55464657044963196816950587289035428064568320970692304673817341489687455367169",
        "55464657044963196816950587289035428064568320970692304673817341489687455367168",
        "55464657044963196816950587289035428064568320970692304673817341489687463725056"
      ]
    },
    {
      "x": 52,
      "y": 37,
      "size": 1,
      "price": "2106000000000000000000",
      "reserved": "",
      "assetIds": [
        "55464657044963196816950587289035428064568320970692304673817341489687455367180",
        "55464657044963196816950587289035428064568320970692304673817341489687455367171",
        "55464657044963196816950587289035428064568320970692304673817341489687455367169",
        "55464657044963196816950587289035428064568320970692304673817341489687455367168",
        "55464657044963196816950587289035428064568320970692304673817341489687463725056"
      ]
    },
    {
      "x": 52,
      "y": 36,
      "size": 1,
      "price": "2106000000000000000000",
      "reserved": "",
      "assetIds": [
        "55464657044963196816950587289035428064568320970692304673817341489687455367174",
        "55464657044963196816950587289035428064568320970692304673817341489687455367170",
        "55464657044963196816950587289035428064568320970692304673817341489687455367169",
        "55464657044963196816950587289035428064568320970692304673817341489687455367168",
        "55464657044963196816950587289035428064568320970692304673817341489687463725056"
      ]
    },
    {
      "x": 52,
      "y": 38,
      "size": 1,
      "price": "2106000000000000000000",
      "reserved": "",
      "assetIds": [
        "55464657044963196816950587289035428064568320970692304673817341489687455367181",
        "55464657044963196816950587289035428064568320970692304673817341489687455367171",
        "55464657044963196816950587289035428064568320970692304673817341489687455367169",
        "55464657044963196816950587289035428064568320970692304673817341489687455367168",
        "55464657044963196816950587289035428064568320970692304673817341489687463725056"
      ]
    },
    {
      "x": 52,
      "y": 39,
      "size": 1,
      "price": "2106000000000000000000",
      "reserved": "",
      "assetIds": [
        "55464657044963196816950587289035428064568320970692304673817341489687455367181",
        "55464657044963196816950587289035428064568320970692304673817341489687455367171",
        "55464657044963196816950587289035428064568320970692304673817341489687455367169",
        "55464657044963196816950587289035428064568320970692304673817341489687455367168",
        "55464657044963196816950587289035428064568320970692304673817341489687463725056"
      ]
    },
    {
      "x": 53,
      "y": 36,
      "size": 1,
      "price": "2106000000000000000000",
      "reserved": "",
      "assetIds": [
        "55464657044963196816950587289035428064568320970692304673817341489687455367183",
        "55464657044963196816950587289035428064568320970692304673817341489687455367171",
        "55464657044963196816950587289035428064568320970692304673817341489687455367169",
        "55464657044963196816950587289035428064568320970692304673817341489687455367168",
        "55464657044963196816950587289035428064568320970692304673817341489687463725056"
      ]
    },
    {
      "x": 56,
      "y": 32,
      "size": 1,
      "price": "2106000000000000000000",
      "reserved": "",
      "assetIds": [
        "55464657044963196816950587289035428064568320970692304673817341489687455367177",
        "55464657044963196816950587289035428064568320970692304673817341489687455367170",
        "55464657044963196816950587289035428064568320970692304673817341489687455367169",
        "55464657044963196816950587289035428064568320970692304673817341489687455367168",
        "55464657044963196816950587289035428064568320970692304673817341489687463725056"
      ]
    },
    {
      "x": 56,
      "y": 40,
      "size": 1,
      "price": "2106000000000000000000",
      "reserved": "",
      "assetIds": [
        "55464657044963196816950587289035428064568320970692304673817341489687455367183",
        "55464657044963196816950587289035428064568320970692304673817341489687455367171",
        "55464657044963196816950587289035428064568320970692304673817341489687455367169",
        "55464657044963196816950587289035428064568320970692304673817341489687455367168",
        "55464657044963196816950587289035428064568320970692304673817341489687463725056"
      ]
    },
    {
      "x": 56,
      "y": 41,
      "size": 1,
      "price": "2106000000000000000000",
      "reserved": "",
      "assetIds": [
        "55464657044963196816950587289035428064568320970692304673817341489687455367181",
        "55464657044963196816950587289035428064568320970692304673817341489687455367171",
        "55464657044963196816950587289035428064568320970692304673817341489687455367169",
        "55464657044963196816950587289035428064568320970692304673817341489687455367168",
        "55464657044963196816950587289035428064568320970692304673817341489687463725056"
      ]
    },
    {
      "x": 56,
      "y": 42,
      "size": 1,
      "price": "2106000000000000000000",
      "reserved": "",
      "assetIds": [
        "55464657044963196816950587289035428064568320970692304673817341489687455367173",
        "55464657044963196816950587289035428064568320970692304673817341489687455367170",
        "55464657044963196816950587289035428064568320970692304673817341489687455367169",
        "55464657044963196816950587289035428064568320970692304673817341489687455367168",
        "55464657044963196816950587289035428064568320970692304673817341489687463725056"
      ]
    },
    {
      "x": 57,
      "y": 42,
      "size": 1,
      "price": "2106000000000000000000",
      "reserved": "",
      "assetIds": [
        "55464657044963196816950587289035428064568320970692304673817341489687455367180",
        "55464657044963196816950587289035428064568320970692304673817341489687455367171",
        "55464657044963196816950587289035428064568320970692304673817341489687455367169",
        "55464657044963196816950587289035428064568320970692304673817341489687455367168",
        "55464657044963196816950587289035428064568320970692304673817341489687463725056"
      ]
    },
    {
      "x": 58,
      "y": 42,
      "size": 1,
      "price": "2106000000000000000000",
      "reserved": "",
      "assetIds": [
        "55464657044963196816950587289035428064568320970692304673817341489687455367175",
        "55464657044963196816950587289035428064568320970692304673817341489687455367170",
        "55464657044963196816950587289035428064568320970692304673817341489687455367169",
        "55464657044963196816950587289035428064568320970692304673817341489687455367168",
        "55464657044963196816950587289035428064568320970692304673817341489687463725056"
      ]
    },
    {
      "x": 58,
      "y": 41,
      "size": 1,
      "price": "2106000000000000000000",
      "reserved": "",
      "assetIds": [
        "55464657044963196816950587289035428064568320970692304673817341489687455367177",
        "55464657044963196816950587289035428064568320970692304673817341489687455367170",
        "55464657044963196816950587289035428064568320970692304673817341489687455367169",
        "55464657044963196816950587289035428064568320970692304673817341489687455367168",
        "55464657044963196816950587289035428064568320970692304673817341489687463725056"
      ]
    },
    {
      "x": 58,
      "y": 40,
      "size": 1,
      "price": "2106000000000000000000",
      "reserved": "",
      "assetIds": [
        "55464657044963196816950587289035428064568320970692304673817341489687455367176",
        "55464657044963196816950587289035428064568320970692304673817341489687455367170",
        "55464657044963196816950587289035428064568320970692304673817341489687455367169",
        "55464657044963196816950587289035428064568320970692304673817341489687455367168",
        "55464657044963196816950587289035428064568320970692304673817341489687463725056"
      ]
    },
    {
      "x": 58,
      "y": 39,
      "size": 1,
      "price": "2106000000000000000000",
      "reserved": "",
      "assetIds": [
        "55464657044963196816950587289035428064568320970692304673817341489687455367174",
        "55464657044963196816950587289035428064568320970692304673817341489687455367170",
        "55464657044963196816950587289035428064568320970692304673817341489687455367169",
        "55464657044963196816950587289035428064568320970692304673817341489687455367168",
        "55464657044963196816950587289035428064568320970692304673817341489687463725056"
      ]
    },
    {
      "x": 58,
      "y": 38,
      "size": 1,
      "price": "2106000000000000000000",
      "reserved": "",
      "assetIds": [
        "55464657044963196816950587289035428064568320970692304673817341489687455367176",
        "55464657044963196816950587289035428064568320970692304673817341489687455367170",
        "55464657044963196816950587289035428064568320970692304673817341489687455367169",
        "55464657044963196816950587289035428064568320970692304673817341489687455367168",
        "55464657044963196816950587289035428064568320970692304673817341489687463725056"
      ]
    },
    {
      "x": 58,
      "y": 37,
      "size": 1,
      "price": "2106000000000000000000",
      "reserved": "",
      "assetIds": [
        "55464657044963196816950587289035428064568320970692304673817341489687455367182",
        "55464657044963196816950587289035428064568320970692304673817341489687455367171",
        "55464657044963196816950587289035428064568320970692304673817341489687455367169",
        "55464657044963196816950587289035428064568320970692304673817341489687455367168",
        "55464657044963196816950587289035428064568320970692304673817341489687463725056"
      ]
    },
    {
      "x": 58,
      "y": 36,
      "size": 1,
      "price": "2106000000000000000000",
      "reserved": "",
      "assetIds": [
        "55464657044963196816950587289035428064568320970692304673817341489687455367178",
        "55464657044963196816950587289035428064568320970692304673817341489687455367171",
        "55464657044963196816950587289035428064568320970692304673817341489687455367169",
        "55464657044963196816950587289035428064568320970692304673817341489687455367168",
        "55464657044963196816950587289035428064568320970692304673817341489687463725056"
      ]
    },
    {
      "x": 57,
      "y": 39,
      "size": 1,
      "price": "2106000000000000000000",
      "reserved": "",
      "assetIds": [
        "55464657044963196816950587289035428064568320970692304673817341489687455367183",
        "55464657044963196816950587289035428064568320970692304673817341489687455367171",
        "55464657044963196816950587289035428064568320970692304673817341489687455367169",
        "55464657044963196816950587289035428064568320970692304673817341489687455367168",
        "55464657044963196816950587289035428064568320970692304673817341489687463725056"
      ]
    },
    {
      "x": 57,
      "y": 40,
      "size": 1,
      "price": "2106000000000000000000",
      "reserved": "",
      "assetIds": [
        "55464657044963196816950587289035428064568320970692304673817341489687455367173",
        "55464657044963196816950587289035428064568320970692304673817341489687455367170",
        "55464657044963196816950587289035428064568320970692304673817341489687455367169",
        "55464657044963196816950587289035428064568320970692304673817341489687455367168",
        "55464657044963196816950587289035428064568320970692304673817341489687463725056"
      ]
    },
    {
      "x": 56,
      "y": 43,
      "size": 1,
      "price": "2106000000000000000000",
      "reserved": "",
      "assetIds": [
        "55464657044963196816950587289035428064568320970692304673817341489687455367180",
        "55464657044963196816950587289035428064568320970692304673817341489687455367171",
        "55464657044963196816950587289035428064568320970692304673817341489687455367169",
        "55464657044963196816950587289035428064568320970692304673817341489687455367168",
        "55464657044963196816950587289035428064568320970692304673817341489687463725056"
      ]
    },
    {
      "x": 57,
      "y": 41,
      "size": 1,
      "price": "2106000000000000000000",
      "reserved": "",
      "assetIds": [
        "55464657044963196816950587289035428064568320970692304673817341489687455367172",
        "55464657044963196816950587289035428064568320970692304673817341489687455367170",
        "55464657044963196816950587289035428064568320970692304673817341489687455367169",
        "55464657044963196816950587289035428064568320970692304673817341489687455367168",
        "55464657044963196816950587289035428064568320970692304673817341489687463725056"
      ]
    },
    {
      "x": 57,
      "y": 38,
      "size": 1,
      "price": "2106000000000000000000",
      "reserved": "",
      "assetIds": [
        "55464657044963196816950587289035428064568320970692304673817341489687455367172",
        "55464657044963196816950587289035428064568320970692304673817341489687455367170",
        "55464657044963196816950587289035428064568320970692304673817341489687455367169",
        "55464657044963196816950587289035428064568320970692304673817341489687455367168",
        "55464657044963196816950587289035428064568320970692304673817341489687463725056"
      ]
    },
    {
      "x": 57,
      "y": 37,
      "size": 1,
      "price": "2106000000000000000000",
      "reserved": "",
      "assetIds": [
        "55464657044963196816950587289035428064568320970692304673817341489687455367174",
        "55464657044963196816950587289035428064568320970692304673817341489687455367170",
        "55464657044963196816950587289035428064568320970692304673817341489687455367169",
        "55464657044963196816950587289035428064568320970692304673817341489687455367168",
        "55464657044963196816950587289035428064568320970692304673817341489687463725056"
      ]
    },
    {
      "x": 57,
      "y": 36,
      "size": 1,
      "price": "2106000000000000000000",
      "reserved": "",
      "assetIds": [
        "55464657044963196816950587289035428064568320970692304673817341489687455367172",
        "55464657044963196816950587289035428064568320970692304673817341489687455367170",
        "55464657044963196816950587289035428064568320970692304673817341489687455367169",
        "55464657044963196816950587289035428064568320970692304673817341489687455367168",
        "55464657044963196816950587289035428064568320970692304673817341489687463725056"
      ]
    },
    {
      "x": 55,
      "y": 41,
      "size": 1,
      "price": "2106000000000000000000",
      "reserved": "",
      "assetIds": [
        "55464657044963196816950587289035428064568320970692304673817341489687455367175",
        "55464657044963196816950587289035428064568320970692304673817341489687455367170",
        "55464657044963196816950587289035428064568320970692304673817341489687455367169",
        "55464657044963196816950587289035428064568320970692304673817341489687455367168",
        "55464657044963196816950587289035428064568320970692304673817341489687463725056"
      ]
    },
    {
      "x": 54,
      "y": 40,
      "size": 1,
      "price": "2106000000000000000000",
      "reserved": "",
      "assetIds": [
        "55464657044963196816950587289035428064568320970692304673817341489687455367179",
        "55464657044963196816950587289035428064568320970692304673817341489687455367171",
        "55464657044963196816950587289035428064568320970692304673817341489687455367169",
        "55464657044963196816950587289035428064568320970692304673817341489687455367168",
        "55464657044963196816950587289035428064568320970692304673817341489687463725056"
      ]
    },
    {
      "x": 53,
      "y": 40,
      "size": 1,
      "price": "2106000000000000000000",
      "reserved": "",
      "assetIds": [
        "55464657044963196816950587289035428064568320970692304673817341489687455367182",
        "55464657044963196816950587289035428064568320970692304673817341489687455367171",
        "55464657044963196816950587289035428064568320970692304673817341489687455367169",
        "55464657044963196816950587289035428064568320970692304673817341489687455367168",
        "55464657044963196816950587289035428064568320970692304673817341489687463725056"
      ]
    },
    {
      "x": 54,
      "y": 39,
      "size": 1,
      "price": "2106000000000000000000",
      "reserved": "",
      "assetIds": [
        "55464657044963196816950587289035428064568320970692304673817341489687455367181",
        "55464657044963196816950587289035428064568320970692304673817341489687455367171",
        "55464657044963196816950587289035428064568320970692304673817341489687455367169",
        "55464657044963196816950587289035428064568320970692304673817341489687455367168",
        "55464657044963196816950587289035428064568320970692304673817341489687463725056"
      ]
    },
    {
      "x": 53,
      "y": 39,
      "size": 1,
      "price": "2106000000000000000000",
      "reserved": "",
      "assetIds": [
        "55464657044963196816950587289035428064568320970692304673817341489687455367173",
        "55464657044963196816950587289035428064568320970692304673817341489687455367170",
        "55464657044963196816950587289035428064568320970692304673817341489687455367169",
        "55464657044963196816950587289035428064568320970692304673817341489687455367168",
        "55464657044963196816950587289035428064568320970692304673817341489687463725056"
      ]
    },
    {
      "x": 50,
      "y": 39,
      "size": 1,
      "price": "2106000000000000000000",
      "reserved": "",
      "assetIds": [
        "55464657044963196816950587289035428064568320970692304673817341489687455367175",
        "55464657044963196816950587289035428064568320970692304673817341489687455367170",
        "55464657044963196816950587289035428064568320970692304673817341489687455367169",
        "55464657044963196816950587289035428064568320970692304673817341489687455367168",
        "55464657044963196816950587289035428064568320970692304673817341489687463725056"
      ]
    },
    {
      "x": 50,
      "y": 40,
      "size": 1,
      "price": "2106000000000000000000",
      "reserved": "",
      "assetIds": [
        "55464657044963196816950587289035428064568320970692304673817341489687455367183",
        "55464657044963196816950587289035428064568320970692304673817341489687455367171",
        "55464657044963196816950587289035428064568320970692304673817341489687455367169",
        "55464657044963196816950587289035428064568320970692304673817341489687455367168",
        "55464657044963196816950587289035428064568320970692304673817341489687463725056"
      ]
    },
    {
      "x": 49,
      "y": 40,
      "size": 1,
      "price": "2106000000000000000000",
      "reserved": "",
      "assetIds": [
        "55464657044963196816950587289035428064568320970692304673817341489687455367177",
        "55464657044963196816950587289035428064568320970692304673817341489687455367170",
        "55464657044963196816950587289035428064568320970692304673817341489687455367169",
        "55464657044963196816950587289035428064568320970692304673817341489687455367168",
        "55464657044963196816950587289035428064568320970692304673817341489687463725056"
      ]
    },
    {
      "x": 49,
      "y": 41,
      "size": 1,
      "price": "2106000000000000000000",
      "reserved": "",
      "assetIds": [
        "55464657044963196816950587289035428064568320970692304673817341489687455367176",
        "55464657044963196816950587289035428064568320970692304673817341489687455367170",
        "55464657044963196816950587289035428064568320970692304673817341489687455367169",
        "55464657044963196816950587289035428064568320970692304673817341489687455367168",
        "55464657044963196816950587289035428064568320970692304673817341489687463725056"
      ]
    },
    {
      "x": 49,
      "y": 42,
      "size": 1,
      "price": "2106000000000000000000",
      "reserved": "",
      "assetIds": [
        "55464657044963196816950587289035428064568320970692304673817341489687455367177",
        "55464657044963196816950587289035428064568320970692304673817341489687455367170",
        "55464657044963196816950587289035428064568320970692304673817341489687455367169",
        "55464657044963196816950587289035428064568320970692304673817341489687455367168",
        "55464657044963196816950587289035428064568320970692304673817341489687463725056"
      ]
    },
    {
      "x": 49,
      "y": 43,
      "size": 1,
      "price": "2106000000000000000000",
      "reserved": "",
      "assetIds": [
        "55464657044963196816950587289035428064568320970692304673817341489687455367177",
        "55464657044963196816950587289035428064568320970692304673817341489687455367170",
        "55464657044963196816950587289035428064568320970692304673817341489687455367169",
        "55464657044963196816950587289035428064568320970692304673817341489687455367168",
        "55464657044963196816950587289035428064568320970692304673817341489687463725056"
      ]
    },
    {
      "x": 50,
      "y": 43,
      "size": 1,
      "price": "2106000000000000000000",
      "reserved": "",
      "assetIds": [
        "55464657044963196816950587289035428064568320970692304673817341489687455367174",
        "55464657044963196816950587289035428064568320970692304673817341489687455367170",
        "55464657044963196816950587289035428064568320970692304673817341489687455367169",
        "55464657044963196816950587289035428064568320970692304673817341489687455367168",
        "55464657044963196816950587289035428064568320970692304673817341489687463725056"
      ]
    },
    {
      "x": 51,
      "y": 44,
      "size": 1,
      "price": "2106000000000000000000",
      "reserved": "",
      "assetIds": [
        "55464657044963196816950587289035428064568320970692304673817341489687455367179",
        "55464657044963196816950587289035428064568320970692304673817341489687455367171",
        "55464657044963196816950587289035428064568320970692304673817341489687455367169",
        "55464657044963196816950587289035428064568320970692304673817341489687455367168",
        "55464657044963196816950587289035428064568320970692304673817341489687463725056"
      ]
    },
    {
      "x": 51,
      "y": 43,
      "size": 1,
      "price": "2106000000000000000000",
      "reserved": "",
      "assetIds": [
        "55464657044963196816950587289035428064568320970692304673817341489687455367179",
        "55464657044963196816950587289035428064568320970692304673817341489687455367171",
        "55464657044963196816950587289035428064568320970692304673817341489687455367169",
        "55464657044963196816950587289035428064568320970692304673817341489687455367168",
        "55464657044963196816950587289035428064568320970692304673817341489687463725056"
      ]
    },
    {
      "x": 51,
      "y": 42,
      "size": 1,
      "price": "2106000000000000000000",
      "reserved": "",
      "assetIds": [
        "55464657044963196816950587289035428064568320970692304673817341489687455367173",
        "55464657044963196816950587289035428064568320970692304673817341489687455367170",
        "55464657044963196816950587289035428064568320970692304673817341489687455367169",
        "55464657044963196816950587289035428064568320970692304673817341489687455367168",
        "55464657044963196816950587289035428064568320970692304673817341489687463725056"
      ]
    },
    {
      "x": 50,
      "y": 42,
      "size": 1,
      "price": "2106000000000000000000",
      "reserved": "",
      "assetIds": [
        "55464657044963196816950587289035428064568320970692304673817341489687455367177",
        "55464657044963196816950587289035428064568320970692304673817341489687455367170",
        "55464657044963196816950587289035428064568320970692304673817341489687455367169",
        "55464657044963196816950587289035428064568320970692304673817341489687455367168",
        "55464657044963196816950587289035428064568320970692304673817341489687463725056"
      ]
    },
    {
      "x": 51,
      "y": 41,
      "size": 1,
      "price": "2106000000000000000000",
      "reserved": "",
      "assetIds": [
        "55464657044963196816950587289035428064568320970692304673817341489687455367182",
        "55464657044963196816950587289035428064568320970692304673817341489687455367171",
        "55464657044963196816950587289035428064568320970692304673817341489687455367169",
        "55464657044963196816950587289035428064568320970692304673817341489687455367168",
        "55464657044963196816950587289035428064568320970692304673817341489687463725056"
      ]
    },
    {
      "x": 50,
      "y": 41,
      "size": 1,
      "price": "2106000000000000000000",
      "reserved": "",
      "assetIds": [
        "55464657044963196816950587289035428064568320970692304673817341489687455367182",
        "55464657044963196816950587289035428064568320970692304673817341489687455367171",
        "55464657044963196816950587289035428064568320970692304673817341489687455367169",
        "55464657044963196816950587289035428064568320970692304673817341489687455367168",
        "55464657044963196816950587289035428064568320970692304673817341489687463725056"
      ]
    },
    {
      "x": 50,
      "y": 44,
      "size": 1,
      "price": "2106000000000000000000",
      "reserved": "",
      "assetIds": [
        "55464657044963196816950587289035428064568320970692304673817341489687455367179",
        "55464657044963196816950587289035428064568320970692304673817341489687455367171",
        "55464657044963196816950587289035428064568320970692304673817341489687455367169",
        "55464657044963196816950587289035428064568320970692304673817341489687455367168",
        "55464657044963196816950587289035428064568320970692304673817341489687463725056"
      ]
    },
    {
      "x": 49,
      "y": 44,
      "size": 1,
      "price": "2106000000000000000000",
      "reserved": "",
      "assetIds": [
        "55464657044963196816950587289035428064568320970692304673817341489687455367179",
        "55464657044963196816950587289035428064568320970692304673817341489687455367171",
        "55464657044963196816950587289035428064568320970692304673817341489687455367169",
        "55464657044963196816950587289035428064568320970692304673817341489687455367168",
        "55464657044963196816950587289035428064568320970692304673817341489687463725056"
      ]
    },
    {
      "x": 54,
      "y": 44,
      "size": 1,
      "price": "2106000000000000000000",
      "reserved": "",
      "assetIds": [
        "55464657044963196816950587289035428064568320970692304673817341489687455367175",
        "55464657044963196816950587289035428064568320970692304673817341489687455367170",
        "55464657044963196816950587289035428064568320970692304673817341489687455367169",
        "55464657044963196816950587289035428064568320970692304673817341489687455367168",
        "55464657044963196816950587289035428064568320970692304673817341489687463725056"
      ]
    },
    {
      "x": 53,
      "y": 41,
      "size": 1,
      "price": "2106000000000000000000",
      "reserved": "",
      "assetIds": [
        "55464657044963196816950587289035428064568320970692304673817341489687455367172",
        "55464657044963196816950587289035428064568320970692304673817341489687455367170",
        "55464657044963196816950587289035428064568320970692304673817341489687455367169",
        "55464657044963196816950587289035428064568320970692304673817341489687455367168",
        "55464657044963196816950587289035428064568320970692304673817341489687463725056"
      ]
    },
    {
      "x": 53,
      "y": 42,
      "size": 1,
      "price": "2106000000000000000000",
      "reserved": "",
      "assetIds": [
        "55464657044963196816950587289035428064568320970692304673817341489687455367177",
        "55464657044963196816950587289035428064568320970692304673817341489687455367170",
        "55464657044963196816950587289035428064568320970692304673817341489687455367169",
        "55464657044963196816950587289035428064568320970692304673817341489687455367168",
        "55464657044963196816950587289035428064568320970692304673817341489687463725056"
      ]
    },
    {
      "x": 55,
      "y": 38,
      "size": 1,
      "price": "2106000000000000000000",
      "reserved": "",
      "assetIds": [
        "55464657044963196816950587289035428064568320970692304673817341489687455367180",
        "55464657044963196816950587289035428064568320970692304673817341489687455367171",
        "55464657044963196816950587289035428064568320970692304673817341489687455367169",
        "55464657044963196816950587289035428064568320970692304673817341489687455367168",
        "55464657044963196816950587289035428064568320970692304673817341489687463725056"
      ]
    },
    {
      "x": 34,
      "y": 15,
      "size": 1,
      "price": "2106000000000000000000",
      "reserved": "",
      "assetIds": [
        "55464657044963196816950587289035428064568320970692304673817341489687455367182",
        "55464657044963196816950587289035428064568320970692304673817341489687455367171",
        "55464657044963196816950587289035428064568320970692304673817341489687455367169",
        "55464657044963196816950587289035428064568320970692304673817341489687455367168",
        "55464657044963196816950587289035428064568320970692304673817341489687463725056"
      ]
    },
    {
      "x": 34,
      "y": 16,
      "size": 1,
      "price": "2106000000000000000000",
      "reserved": "",
      "assetIds": [
        "55464657044963196816950587289035428064568320970692304673817341489687455367179",
        "55464657044963196816950587289035428064568320970692304673817341489687455367171",
        "55464657044963196816950587289035428064568320970692304673817341489687455367169",
        "55464657044963196816950587289035428064568320970692304673817341489687455367168",
        "55464657044963196816950587289035428064568320970692304673817341489687463725056"
      ]
    },
    {
      "x": 33,
      "y": 18,
      "size": 1,
      "price": "2106000000000000000000",
      "reserved": "",
      "assetIds": [
        "55464657044963196816950587289035428064568320970692304673817341489687455367181",
        "55464657044963196816950587289035428064568320970692304673817341489687455367171",
        "55464657044963196816950587289035428064568320970692304673817341489687455367169",
        "55464657044963196816950587289035428064568320970692304673817341489687455367168",
        "55464657044963196816950587289035428064568320970692304673817341489687463725056"
      ]
    },
    {
      "x": 33,
      "y": 19,
      "size": 1,
      "price": "2106000000000000000000",
      "reserved": "",
      "assetIds": [
        "55464657044963196816950587289035428064568320970692304673817341489687455367179",
        "55464657044963196816950587289035428064568320970692304673817341489687455367171",
        "55464657044963196816950587289035428064568320970692304673817341489687455367169",
        "55464657044963196816950587289035428064568320970692304673817341489687455367168",
        "55464657044963196816950587289035428064568320970692304673817341489687463725056"
      ]
    },
    {
      "x": 33,
      "y": 20,
      "size": 1,
      "price": "2106000000000000000000",
      "reserved": "",
      "assetIds": [
        "55464657044963196816950587289035428064568320970692304673817341489687455367173",
        "55464657044963196816950587289035428064568320970692304673817341489687455367170",
        "55464657044963196816950587289035428064568320970692304673817341489687455367169",
        "55464657044963196816950587289035428064568320970692304673817341489687455367168",
        "55464657044963196816950587289035428064568320970692304673817341489687463725056"
      ]
    },
    {
      "x": 33,
      "y": 21,
      "size": 1,
      "price": "2106000000000000000000",
      "reserved": "",
      "assetIds": [
        "55464657044963196816950587289035428064568320970692304673817341489687455367176",
        "55464657044963196816950587289035428064568320970692304673817341489687455367170",
        "55464657044963196816950587289035428064568320970692304673817341489687455367169",
        "55464657044963196816950587289035428064568320970692304673817341489687455367168",
        "55464657044963196816950587289035428064568320970692304673817341489687463725056"
      ]
    },
    {
      "x": 33,
      "y": 22,
      "size": 1,
      "price": "2106000000000000000000",
      "reserved": "",
      "assetIds": [
        "55464657044963196816950587289035428064568320970692304673817341489687455367173",
        "55464657044963196816950587289035428064568320970692304673817341489687455367170",
        "55464657044963196816950587289035428064568320970692304673817341489687455367169",
        "55464657044963196816950587289035428064568320970692304673817341489687455367168",
        "55464657044963196816950587289035428064568320970692304673817341489687463725056"
      ]
    },
    {
      "x": 31,
      "y": 21,
      "size": 1,
      "price": "2106000000000000000000",
      "reserved": "",
      "assetIds": [
        "55464657044963196816950587289035428064568320970692304673817341489687455367172",
        "55464657044963196816950587289035428064568320970692304673817341489687455367170",
        "55464657044963196816950587289035428064568320970692304673817341489687455367169",
        "55464657044963196816950587289035428064568320970692304673817341489687455367168",
        "55464657044963196816950587289035428064568320970692304673817341489687463725056"
      ]
    },
    {
      "x": 30,
      "y": 21,
      "size": 1,
      "price": "2106000000000000000000",
      "reserved": "",
      "assetIds": [
        "55464657044963196816950587289035428064568320970692304673817341489687455367176",
        "55464657044963196816950587289035428064568320970692304673817341489687455367170",
        "55464657044963196816950587289035428064568320970692304673817341489687455367169",
        "55464657044963196816950587289035428064568320970692304673817341489687455367168",
        "55464657044963196816950587289035428064568320970692304673817341489687463725056"
      ]
    },
    {
      "x": 32,
      "y": 21,
      "size": 1,
      "price": "2106000000000000000000",
      "reserved": "",
      "assetIds": [
        "55464657044963196816950587289035428064568320970692304673817341489687455367182",
        "55464657044963196816950587289035428064568320970692304673817341489687455367171",
        "55464657044963196816950587289035428064568320970692304673817341489687455367169",
        "55464657044963196816950587289035428064568320970692304673817341489687455367168",
        "55464657044963196816950587289035428064568320970692304673817341489687463725056"
      ]
    },
    {
      "x": 29,
      "y": 21,
      "size": 1,
      "price": "2106000000000000000000",
      "reserved": "",
      "assetIds": [
        "55464657044963196816950587289035428064568320970692304673817341489687455367172",
        "55464657044963196816950587289035428064568320970692304673817341489687455367170",
        "55464657044963196816950587289035428064568320970692304673817341489687455367169",
        "55464657044963196816950587289035428064568320970692304673817341489687455367168",
        "55464657044963196816950587289035428064568320970692304673817341489687463725056"
      ]
    },
    {
      "x": 28,
      "y": 21,
      "size": 1,
      "price": "2106000000000000000000",
      "reserved": "",
      "assetIds": [
        "55464657044963196816950587289035428064568320970692304673817341489687455367181",
        "55464657044963196816950587289035428064568320970692304673817341489687455367171",
        "55464657044963196816950587289035428064568320970692304673817341489687455367169",
        "55464657044963196816950587289035428064568320970692304673817341489687455367168",
        "55464657044963196816950587289035428064568320970692304673817341489687463725056"
      ]
    },
    {
      "x": 27,
      "y": 21,
      "size": 1,
      "price": "2106000000000000000000",
      "reserved": "",
      "assetIds": [
        "55464657044963196816950587289035428064568320970692304673817341489687455367174",
        "55464657044963196816950587289035428064568320970692304673817341489687455367170",
        "55464657044963196816950587289035428064568320970692304673817341489687455367169",
        "55464657044963196816950587289035428064568320970692304673817341489687455367168",
        "55464657044963196816950587289035428064568320970692304673817341489687463725056"
      ]
    },
    {
      "x": 25,
      "y": 21,
      "size": 1,
      "price": "2106000000000000000000",
      "reserved": "",
      "assetIds": [
        "55464657044963196816950587289035428064568320970692304673817341489687455367178",
        "55464657044963196816950587289035428064568320970692304673817341489687455367171",
        "55464657044963196816950587289035428064568320970692304673817341489687455367169",
        "55464657044963196816950587289035428064568320970692304673817341489687455367168",
        "55464657044963196816950587289035428064568320970692304673817341489687463725056"
      ]
    },
    {
      "x": 24,
      "y": 21,
      "size": 1,
      "price": "2106000000000000000000",
      "reserved": "",
      "assetIds": [
        "55464657044963196816950587289035428064568320970692304673817341489687455367178",
        "55464657044963196816950587289035428064568320970692304673817341489687455367171",
        "55464657044963196816950587289035428064568320970692304673817341489687455367169",
        "55464657044963196816950587289035428064568320970692304673817341489687455367168",
        "55464657044963196816950587289035428064568320970692304673817341489687463725056"
      ]
    },
    {
      "x": 22,
      "y": 21,
      "size": 1,
      "price": "2106000000000000000000",
      "reserved": "",
      "assetIds": [
        "55464657044963196816950587289035428064568320970692304673817341489687455367182",
        "55464657044963196816950587289035428064568320970692304673817341489687455367171",
        "55464657044963196816950587289035428064568320970692304673817341489687455367169",
        "55464657044963196816950587289035428064568320970692304673817341489687455367168",
        "55464657044963196816950587289035428064568320970692304673817341489687463725056"
      ]
    },
    {
      "x": 21,
      "y": 21,
      "size": 1,
      "price": "2106000000000000000000",
      "reserved": "",
      "assetIds": [
        "55464657044963196816950587289035428064568320970692304673817341489687455367175",
        "55464657044963196816950587289035428064568320970692304673817341489687455367170",
        "55464657044963196816950587289035428064568320970692304673817341489687455367169",
        "55464657044963196816950587289035428064568320970692304673817341489687455367168",
        "55464657044963196816950587289035428064568320970692304673817341489687463725056"
      ]
    },
    {
      "x": 21,
      "y": 20,
      "size": 1,
      "price": "2106000000000000000000",
      "reserved": "",
      "assetIds": [
        "55464657044963196816950587289035428064568320970692304673817341489687455367173",
        "55464657044963196816950587289035428064568320970692304673817341489687455367170",
        "55464657044963196816950587289035428064568320970692304673817341489687455367169",
        "55464657044963196816950587289035428064568320970692304673817341489687455367168",
        "55464657044963196816950587289035428064568320970692304673817341489687463725056"
      ]
    },
    {
      "x": 23,
      "y": 20,
      "size": 1,
      "price": "2106000000000000000000",
      "reserved": "",
      "assetIds": [
        "55464657044963196816950587289035428064568320970692304673817341489687455367183",
        "55464657044963196816950587289035428064568320970692304673817341489687455367171",
        "55464657044963196816950587289035428064568320970692304673817341489687455367169",
        "55464657044963196816950587289035428064568320970692304673817341489687455367168",
        "55464657044963196816950587289035428064568320970692304673817341489687463725056"
      ]
    },
    {
      "x": 24,
      "y": 20,
      "size": 1,
      "price": "2106000000000000000000",
      "reserved": "",
      "assetIds": [
        "55464657044963196816950587289035428064568320970692304673817341489687455367181",
        "55464657044963196816950587289035428064568320970692304673817341489687455367171",
        "55464657044963196816950587289035428064568320970692304673817341489687455367169",
        "55464657044963196816950587289035428064568320970692304673817341489687455367168",
        "55464657044963196816950587289035428064568320970692304673817341489687463725056"
      ]
    },
    {
      "x": 23,
      "y": 21,
      "size": 1,
      "price": "2106000000000000000000",
      "reserved": "",
      "assetIds": [
        "55464657044963196816950587289035428064568320970692304673817341489687455367174",
        "55464657044963196816950587289035428064568320970692304673817341489687455367170",
        "55464657044963196816950587289035428064568320970692304673817341489687455367169",
        "55464657044963196816950587289035428064568320970692304673817341489687455367168",
        "55464657044963196816950587289035428064568320970692304673817341489687463725056"
      ]
    },
    {
      "x": 23,
      "y": 19,
      "size": 1,
      "price": "2106000000000000000000",
      "reserved": "",
      "assetIds": [
        "55464657044963196816950587289035428064568320970692304673817341489687455367173",
        "55464657044963196816950587289035428064568320970692304673817341489687455367170",
        "55464657044963196816950587289035428064568320970692304673817341489687455367169",
        "55464657044963196816950587289035428064568320970692304673817341489687455367168",
        "55464657044963196816950587289035428064568320970692304673817341489687463725056"
      ]
    },
    {
      "x": 23,
      "y": 18,
      "size": 1,
      "price": "2106000000000000000000",
      "reserved": "",
      "assetIds": [
        "55464657044963196816950587289035428064568320970692304673817341489687455367173",
        "55464657044963196816950587289035428064568320970692304673817341489687455367170",
        "55464657044963196816950587289035428064568320970692304673817341489687455367169",
        "55464657044963196816950587289035428064568320970692304673817341489687455367168",
        "55464657044963196816950587289035428064568320970692304673817341489687463725056"
      ]
    },
    {
      "x": 23,
      "y": 17,
      "size": 1,
      "price": "2106000000000000000000",
      "reserved": "",
      "assetIds": [
        "55464657044963196816950587289035428064568320970692304673817341489687455367181",
        "55464657044963196816950587289035428064568320970692304673817341489687455367171",
        "55464657044963196816950587289035428064568320970692304673817341489687455367169",
        "55464657044963196816950587289035428064568320970692304673817341489687455367168",
        "55464657044963196816950587289035428064568320970692304673817341489687463725056"
      ]
    },
    {
      "x": 23,
      "y": 16,
      "size": 1,
      "price": "2106000000000000000000",
      "reserved": "",
      "assetIds": [
        "55464657044963196816950587289035428064568320970692304673817341489687455367173",
        "55464657044963196816950587289035428064568320970692304673817341489687455367170",
        "55464657044963196816950587289035428064568320970692304673817341489687455367169",
        "55464657044963196816950587289035428064568320970692304673817341489687455367168",
        "55464657044963196816950587289035428064568320970692304673817341489687463725056"
      ]
    },
    {
      "x": 22,
      "y": 16,
      "size": 1,
      "price": "2106000000000000000000",
      "reserved": "",
      "assetIds": [
        "55464657044963196816950587289035428064568320970692304673817341489687455367179",
        "55464657044963196816950587289035428064568320970692304673817341489687455367171",
        "55464657044963196816950587289035428064568320970692304673817341489687455367169",
        "55464657044963196816950587289035428064568320970692304673817341489687455367168",
        "55464657044963196816950587289035428064568320970692304673817341489687463725056"
      ]
    },
    {
      "x": 21,
      "y": 16,
      "size": 1,
      "price": "2106000000000000000000",
      "reserved": "",
      "assetIds": [
        "55464657044963196816950587289035428064568320970692304673817341489687455367174",
        "55464657044963196816950587289035428064568320970692304673817341489687455367170",
        "55464657044963196816950587289035428064568320970692304673817341489687455367169",
        "55464657044963196816950587289035428064568320970692304673817341489687455367168",
        "55464657044963196816950587289035428064568320970692304673817341489687463725056"
      ]
    },
    {
      "x": 21,
      "y": 17,
      "size": 1,
      "price": "2106000000000000000000",
      "reserved": "",
      "assetIds": [
        "55464657044963196816950587289035428064568320970692304673817341489687455367177",
        "55464657044963196816950587289035428064568320970692304673817341489687455367170",
        "55464657044963196816950587289035428064568320970692304673817341489687455367169",
        "55464657044963196816950587289035428064568320970692304673817341489687455367168",
        "55464657044963196816950587289035428064568320970692304673817341489687463725056"
      ]
    },
    {
      "x": 21,
      "y": 18,
      "size": 1,
      "price": "2106000000000000000000",
      "reserved": "",
      "assetIds": [
        "55464657044963196816950587289035428064568320970692304673817341489687455367176",
        "55464657044963196816950587289035428064568320970692304673817341489687455367170",
        "55464657044963196816950587289035428064568320970692304673817341489687455367169",
        "55464657044963196816950587289035428064568320970692304673817341489687455367168",
        "55464657044963196816950587289035428064568320970692304673817341489687463725056"
      ]
    },
    {
      "x": 21,
      "y": 19,
      "size": 1,
      "price": "2106000000000000000000",
      "reserved": "",
      "assetIds": [
        "55464657044963196816950587289035428064568320970692304673817341489687455367180",
        "55464657044963196816950587289035428064568320970692304673817341489687455367171",
        "55464657044963196816950587289035428064568320970692304673817341489687455367169",
        "55464657044963196816950587289035428064568320970692304673817341489687455367168",
        "55464657044963196816950587289035428064568320970692304673817341489687463725056"
      ]
    },
    {
      "x": 22,
      "y": 19,
      "size": 1,
      "price": "2106000000000000000000",
      "reserved": "",
      "assetIds": [
        "55464657044963196816950587289035428064568320970692304673817341489687455367172",
        "55464657044963196816950587289035428064568320970692304673817341489687455367170",
        "55464657044963196816950587289035428064568320970692304673817341489687455367169",
        "55464657044963196816950587289035428064568320970692304673817341489687455367168",
        "55464657044963196816950587289035428064568320970692304673817341489687463725056"
      ]
    },
    {
      "x": 22,
      "y": 18,
      "size": 1,
      "price": "2106000000000000000000",
      "reserved": "",
      "assetIds": [
        "55464657044963196816950587289035428064568320970692304673817341489687455367178",
        "55464657044963196816950587289035428064568320970692304673817341489687455367171",
        "55464657044963196816950587289035428064568320970692304673817341489687455367169",
        "55464657044963196816950587289035428064568320970692304673817341489687455367168",
        "55464657044963196816950587289035428064568320970692304673817341489687463725056"
      ]
    },
    {
      "x": 22,
      "y": 17,
      "size": 1,
      "price": "2106000000000000000000",
      "reserved": "",
      "assetIds": [
        "55464657044963196816950587289035428064568320970692304673817341489687455367178",
        "55464657044963196816950587289035428064568320970692304673817341489687455367171",
        "55464657044963196816950587289035428064568320970692304673817341489687455367169",
        "55464657044963196816950587289035428064568320970692304673817341489687455367168",
        "55464657044963196816950587289035428064568320970692304673817341489687463725056"
      ]
    },
    {
      "x": 24,
      "y": 16,
      "size": 1,
      "price": "2106000000000000000000",
      "reserved": "",
      "assetIds": [
        "55464657044963196816950587289035428064568320970692304673817341489687455367177",
        "55464657044963196816950587289035428064568320970692304673817341489687455367170",
        "55464657044963196816950587289035428064568320970692304673817341489687455367169",
        "55464657044963196816950587289035428064568320970692304673817341489687455367168",
        "55464657044963196816950587289035428064568320970692304673817341489687463725056"
      ]
    },
    {
      "x": 25,
      "y": 16,
      "size": 1,
      "price": "2106000000000000000000",
      "reserved": "",
      "assetIds": [
        "55464657044963196816950587289035428064568320970692304673817341489687455367180",
        "55464657044963196816950587289035428064568320970692304673817341489687455367171",
        "55464657044963196816950587289035428064568320970692304673817341489687455367169",
        "55464657044963196816950587289035428064568320970692304673817341489687455367168",
        "55464657044963196816950587289035428064568320970692304673817341489687463725056"
      ]
    },
    {
      "x": 25,
      "y": 17,
      "size": 1,
      "price": "2106000000000000000000",
      "reserved": "",
      "assetIds": [
        "55464657044963196816950587289035428064568320970692304673817341489687455367180",
        "55464657044963196816950587289035428064568320970692304673817341489687455367171",
        "55464657044963196816950587289035428064568320970692304673817341489687455367169",
        "55464657044963196816950587289035428064568320970692304673817341489687455367168",
        "55464657044963196816950587289035428064568320970692304673817341489687463725056"
      ]
    },
    {
      "x": 26,
      "y": 16,
      "size": 1,
      "price": "2106000000000000000000",
      "reserved": "",
      "assetIds": [
        "55464657044963196816950587289035428064568320970692304673817341489687455367174",
        "55464657044963196816950587289035428064568320970692304673817341489687455367170",
        "55464657044963196816950587289035428064568320970692304673817341489687455367169",
        "55464657044963196816950587289035428064568320970692304673817341489687455367168",
        "55464657044963196816950587289035428064568320970692304673817341489687463725056"
      ]
    },
    {
      "x": 27,
      "y": 16,
      "size": 1,
      "price": "2106000000000000000000",
      "reserved": "",
      "assetIds": [
        "55464657044963196816950587289035428064568320970692304673817341489687455367173",
        "55464657044963196816950587289035428064568320970692304673817341489687455367170",
        "55464657044963196816950587289035428064568320970692304673817341489687455367169",
        "55464657044963196816950587289035428064568320970692304673817341489687455367168",
        "55464657044963196816950587289035428064568320970692304673817341489687463725056"
      ]
    },
    {
      "x": 28,
      "y": 16,
      "size": 1,
      "price": "2106000000000000000000",
      "reserved": "",
      "assetIds": [
        "55464657044963196816950587289035428064568320970692304673817341489687455367177",
        "55464657044963196816950587289035428064568320970692304673817341489687455367170",
        "55464657044963196816950587289035428064568320970692304673817341489687455367169",
        "55464657044963196816950587289035428064568320970692304673817341489687455367168",
        "55464657044963196816950587289035428064568320970692304673817341489687463725056"
      ]
    },
    {
      "x": 29,
      "y": 16,
      "size": 1,
      "price": "2106000000000000000000",
      "reserved": "",
      "assetIds": [
        "55464657044963196816950587289035428064568320970692304673817341489687455367182",
        "55464657044963196816950587289035428064568320970692304673817341489687455367171",
        "55464657044963196816950587289035428064568320970692304673817341489687455367169",
        "55464657044963196816950587289035428064568320970692304673817341489687455367168",
        "55464657044963196816950587289035428064568320970692304673817341489687463725056"
      ]
    },
    {
      "x": 30,
      "y": 15,
      "size": 1,
      "price": "2106000000000000000000",
      "reserved": "",
      "assetIds": [
        "55464657044963196816950587289035428064568320970692304673817341489687455367181",
        "55464657044963196816950587289035428064568320970692304673817341489687455367171",
        "55464657044963196816950587289035428064568320970692304673817341489687455367169",
        "55464657044963196816950587289035428064568320970692304673817341489687455367168",
        "55464657044963196816950587289035428064568320970692304673817341489687463725056"
      ]
    },
    {
      "x": 31,
      "y": 15,
      "size": 1,
      "price": "2106000000000000000000",
      "reserved": "",
      "assetIds": [
        "55464657044963196816950587289035428064568320970692304673817341489687455367183",
        "55464657044963196816950587289035428064568320970692304673817341489687455367171",
        "55464657044963196816950587289035428064568320970692304673817341489687455367169",
        "55464657044963196816950587289035428064568320970692304673817341489687455367168",
        "55464657044963196816950587289035428064568320970692304673817341489687463725056"
      ]
    },
    {
      "x": 32,
      "y": 15,
      "size": 1,
      "price": "2106000000000000000000",
      "reserved": "",
      "assetIds": [
        "55464657044963196816950587289035428064568320970692304673817341489687455367176",
        "55464657044963196816950587289035428064568320970692304673817341489687455367170",
        "55464657044963196816950587289035428064568320970692304673817341489687455367169",
        "55464657044963196816950587289035428064568320970692304673817341489687455367168",
        "55464657044963196816950587289035428064568320970692304673817341489687463725056"
      ]
    },
    {
      "x": 33,
      "y": 15,
      "size": 1,
      "price": "2106000000000000000000",
      "reserved": "",
      "assetIds": [
        "55464657044963196816950587289035428064568320970692304673817341489687455367175",
        "55464657044963196816950587289035428064568320970692304673817341489687455367170",
        "55464657044963196816950587289035428064568320970692304673817341489687455367169",
        "55464657044963196816950587289035428064568320970692304673817341489687455367168",
        "55464657044963196816950587289035428064568320970692304673817341489687463725056"
      ]
    },
    {
      "x": 33,
      "y": 16,
      "size": 1,
      "price": "2106000000000000000000",
      "reserved": "",
      "assetIds": [
        "55464657044963196816950587289035428064568320970692304673817341489687455367179",
        "55464657044963196816950587289035428064568320970692304673817341489687455367171",
        "55464657044963196816950587289035428064568320970692304673817341489687455367169",
        "55464657044963196816950587289035428064568320970692304673817341489687455367168",
        "55464657044963196816950587289035428064568320970692304673817341489687463725056"
      ]
    },
    {
      "x": 33,
      "y": 17,
      "size": 1,
      "price": "2106000000000000000000",
      "reserved": "",
      "assetIds": [
        "55464657044963196816950587289035428064568320970692304673817341489687455367182",
        "55464657044963196816950587289035428064568320970692304673817341489687455367171",
        "55464657044963196816950587289035428064568320970692304673817341489687455367169",
        "55464657044963196816950587289035428064568320970692304673817341489687455367168",
        "55464657044963196816950587289035428064568320970692304673817341489687463725056"
      ]
    },
    {
      "x": 31,
      "y": 17,
      "size": 1,
      "price": "2106000000000000000000",
      "reserved": "",
      "assetIds": [
        "55464657044963196816950587289035428064568320970692304673817341489687455367177",
        "55464657044963196816950587289035428064568320970692304673817341489687455367170",
        "55464657044963196816950587289035428064568320970692304673817341489687455367169",
        "55464657044963196816950587289035428064568320970692304673817341489687455367168",
        "55464657044963196816950587289035428064568320970692304673817341489687463725056"
      ]
    },
    {
      "x": 30,
      "y": 17,
      "size": 1,
      "price": "2106000000000000000000",
      "reserved": "",
      "assetIds": [
        "55464657044963196816950587289035428064568320970692304673817341489687455367172",
        "55464657044963196816950587289035428064568320970692304673817341489687455367170",
        "55464657044963196816950587289035428064568320970692304673817341489687455367169",
        "55464657044963196816950587289035428064568320970692304673817341489687455367168",
        "55464657044963196816950587289035428064568320970692304673817341489687463725056"
      ]
    },
    {
      "x": 29,
      "y": 17,
      "size": 1,
      "price": "2106000000000000000000",
      "reserved": "",
      "assetIds": [
        "55464657044963196816950587289035428064568320970692304673817341489687455367174",
        "55464657044963196816950587289035428064568320970692304673817341489687455367170",
        "55464657044963196816950587289035428064568320970692304673817341489687455367169",
        "55464657044963196816950587289035428064568320970692304673817341489687455367168",
        "55464657044963196816950587289035428064568320970692304673817341489687463725056"
      ]
    },
    {
      "x": 28,
      "y": 17,
      "size": 1,
      "price": "2106000000000000000000",
      "reserved": "",
      "assetIds": [
        "55464657044963196816950587289035428064568320970692304673817341489687455367182",
        "55464657044963196816950587289035428064568320970692304673817341489687455367171",
        "55464657044963196816950587289035428064568320970692304673817341489687455367169",
        "55464657044963196816950587289035428064568320970692304673817341489687455367168",
        "55464657044963196816950587289035428064568320970692304673817341489687463725056"
      ]
    },
    {
      "x": 27,
      "y": 17,
      "size": 1,
      "price": "2106000000000000000000",
      "reserved": "",
      "assetIds": [
        "55464657044963196816950587289035428064568320970692304673817341489687455367180",
        "55464657044963196816950587289035428064568320970692304673817341489687455367171",
        "55464657044963196816950587289035428064568320970692304673817341489687455367169",
        "55464657044963196816950587289035428064568320970692304673817341489687455367168",
        "55464657044963196816950587289035428064568320970692304673817341489687463725056"
      ]
    },
    {
      "x": 26,
      "y": 17,
      "size": 1,
      "price": "2106000000000000000000",
      "reserved": "",
      "assetIds": [
        "55464657044963196816950587289035428064568320970692304673817341489687455367173",
        "55464657044963196816950587289035428064568320970692304673817341489687455367170",
        "55464657044963196816950587289035428064568320970692304673817341489687455367169",
        "55464657044963196816950587289035428064568320970692304673817341489687455367168",
        "55464657044963196816950587289035428064568320970692304673817341489687463725056"
      ]
    },
    {
      "x": 26,
      "y": 18,
      "size": 1,
      "price": "2106000000000000000000",
      "reserved": "",
      "assetIds": [
        "55464657044963196816950587289035428064568320970692304673817341489687455367181",
        "55464657044963196816950587289035428064568320970692304673817341489687455367171",
        "55464657044963196816950587289035428064568320970692304673817341489687455367169",
        "55464657044963196816950587289035428064568320970692304673817341489687455367168",
        "55464657044963196816950587289035428064568320970692304673817341489687463725056"
      ]
    },
    {
      "x": 25,
      "y": 18,
      "size": 1,
      "price": "2106000000000000000000",
      "reserved": "",
      "assetIds": [
        "55464657044963196816950587289035428064568320970692304673817341489687455367179",
        "55464657044963196816950587289035428064568320970692304673817341489687455367171",
        "55464657044963196816950587289035428064568320970692304673817341489687455367169",
        "55464657044963196816950587289035428064568320970692304673817341489687455367168",
        "55464657044963196816950587289035428064568320970692304673817341489687463725056"
      ]
    },
    {
      "x": 25,
      "y": 19,
      "size": 1,
      "price": "2106000000000000000000",
      "reserved": "",
      "assetIds": [
        "55464657044963196816950587289035428064568320970692304673817341489687455367175",
        "55464657044963196816950587289035428064568320970692304673817341489687455367170",
        "55464657044963196816950587289035428064568320970692304673817341489687455367169",
        "55464657044963196816950587289035428064568320970692304673817341489687455367168",
        "55464657044963196816950587289035428064568320970692304673817341489687463725056"
      ]
    },
    {
      "x": 24,
      "y": 19,
      "size": 1,
      "price": "2106000000000000000000",
      "reserved": "",
      "assetIds": [
        "55464657044963196816950587289035428064568320970692304673817341489687455367181",
        "55464657044963196816950587289035428064568320970692304673817341489687455367171",
        "55464657044963196816950587289035428064568320970692304673817341489687455367169",
        "55464657044963196816950587289035428064568320970692304673817341489687455367168",
        "55464657044963196816950587289035428064568320970692304673817341489687463725056"
      ]
    },
    {
      "x": 25,
      "y": 20,
      "size": 1,
      "price": "2106000000000000000000",
      "reserved": "",
      "assetIds": [
        "55464657044963196816950587289035428064568320970692304673817341489687455367183",
        "55464657044963196816950587289035428064568320970692304673817341489687455367171",
        "55464657044963196816950587289035428064568320970692304673817341489687455367169",
        "55464657044963196816950587289035428064568320970692304673817341489687455367168",
        "55464657044963196816950587289035428064568320970692304673817341489687463725056"
      ]
    },
    {
      "x": 26,
      "y": 20,
      "size": 1,
      "price": "2106000000000000000000",
      "reserved": "",
      "assetIds": [
        "55464657044963196816950587289035428064568320970692304673817341489687455367181",
        "55464657044963196816950587289035428064568320970692304673817341489687455367171",
        "55464657044963196816950587289035428064568320970692304673817341489687455367169",
        "55464657044963196816950587289035428064568320970692304673817341489687455367168",
        "55464657044963196816950587289035428064568320970692304673817341489687463725056"
      ]
    },
    {
      "x": 27,
      "y": 20,
      "size": 1,
      "price": "2106000000000000000000",
      "reserved": "",
      "assetIds": [
        "55464657044963196816950587289035428064568320970692304673817341489687455367178",
        "55464657044963196816950587289035428064568320970692304673817341489687455367171",
        "55464657044963196816950587289035428064568320970692304673817341489687455367169",
        "55464657044963196816950587289035428064568320970692304673817341489687455367168",
        "55464657044963196816950587289035428064568320970692304673817341489687463725056"
      ]
    },
    {
      "x": 28,
      "y": 20,
      "size": 1,
      "price": "2106000000000000000000",
      "reserved": "",
      "assetIds": [
        "55464657044963196816950587289035428064568320970692304673817341489687455367173",
        "55464657044963196816950587289035428064568320970692304673817341489687455367170",
        "55464657044963196816950587289035428064568320970692304673817341489687455367169",
        "55464657044963196816950587289035428064568320970692304673817341489687455367168",
        "55464657044963196816950587289035428064568320970692304673817341489687463725056"
      ]
    },
    {
      "x": 29,
      "y": 19,
      "size": 1,
      "price": "2106000000000000000000",
      "reserved": "",
      "assetIds": [
        "55464657044963196816950587289035428064568320970692304673817341489687455367172",
        "55464657044963196816950587289035428064568320970692304673817341489687455367170",
        "55464657044963196816950587289035428064568320970692304673817341489687455367169",
        "55464657044963196816950587289035428064568320970692304673817341489687455367168",
        "55464657044963196816950587289035428064568320970692304673817341489687463725056"
      ]
    },
    {
      "x": 30,
      "y": 19,
      "size": 1,
      "price": "2106000000000000000000",
      "reserved": "",
      "assetIds": [
        "55464657044963196816950587289035428064568320970692304673817341489687455367182",
        "55464657044963196816950587289035428064568320970692304673817341489687455367171",
        "55464657044963196816950587289035428064568320970692304673817341489687455367169",
        "55464657044963196816950587289035428064568320970692304673817341489687455367168",
        "55464657044963196816950587289035428064568320970692304673817341489687463725056"
      ]
    },
    {
      "x": 31,
      "y": 19,
      "size": 1,
      "price": "2106000000000000000000",
      "reserved": "",
      "assetIds": [
        "55464657044963196816950587289035428064568320970692304673817341489687455367180",
        "55464657044963196816950587289035428064568320970692304673817341489687455367171",
        "55464657044963196816950587289035428064568320970692304673817341489687455367169",
        "55464657044963196816950587289035428064568320970692304673817341489687455367168",
        "55464657044963196816950587289035428064568320970692304673817341489687463725056"
      ]
    },
    {
      "x": 32,
      "y": 19,
      "size": 1,
      "price": "2106000000000000000000",
      "reserved": "",
      "assetIds": [
        "55464657044963196816950587289035428064568320970692304673817341489687455367177",
        "55464657044963196816950587289035428064568320970692304673817341489687455367170",
        "55464657044963196816950587289035428064568320970692304673817341489687455367169",
        "55464657044963196816950587289035428064568320970692304673817341489687455367168",
        "55464657044963196816950587289035428064568320970692304673817341489687463725056"
      ]
    },
    {
      "x": 32,
      "y": 20,
      "size": 1,
      "price": "2106000000000000000000",
      "reserved": "",
      "assetIds": [
        "55464657044963196816950587289035428064568320970692304673817341489687455367172",
        "55464657044963196816950587289035428064568320970692304673817341489687455367170",
        "55464657044963196816950587289035428064568320970692304673817341489687455367169",
        "55464657044963196816950587289035428064568320970692304673817341489687455367168",
        "55464657044963196816950587289035428064568320970692304673817341489687463725056"
      ]
    },
    {
      "x": 31,
      "y": 20,
      "size": 1,
      "price": "2106000000000000000000",
      "reserved": "",
      "assetIds": [
        "55464657044963196816950587289035428064568320970692304673817341489687455367182",
        "55464657044963196816950587289035428064568320970692304673817341489687455367171",
        "55464657044963196816950587289035428064568320970692304673817341489687455367169",
        "55464657044963196816950587289035428064568320970692304673817341489687455367168",
        "55464657044963196816950587289035428064568320970692304673817341489687463725056"
      ]
    },
    {
      "x": 29,
      "y": 20,
      "size": 1,
      "price": "2106000000000000000000",
      "reserved": "",
      "assetIds": [
        "55464657044963196816950587289035428064568320970692304673817341489687455367177",
        "55464657044963196816950587289035428064568320970692304673817341489687455367170",
        "55464657044963196816950587289035428064568320970692304673817341489687455367169",
        "55464657044963196816950587289035428064568320970692304673817341489687455367168",
        "55464657044963196816950587289035428064568320970692304673817341489687463725056"
      ]
    },
    {
      "x": 26,
      "y": 19,
      "size": 1,
      "price": "2106000000000000000000",
      "reserved": "",
      "assetIds": [
        "55464657044963196816950587289035428064568320970692304673817341489687455367172",
        "55464657044963196816950587289035428064568320970692304673817341489687455367170",
        "55464657044963196816950587289035428064568320970692304673817341489687455367169",
        "55464657044963196816950587289035428064568320970692304673817341489687455367168",
        "55464657044963196816950587289035428064568320970692304673817341489687463725056"
      ]
    },
    {
      "x": 27,
      "y": 19,
      "size": 1,
      "price": "2106000000000000000000",
      "reserved": "",
      "assetIds": [
        "55464657044963196816950587289035428064568320970692304673817341489687455367174",
        "55464657044963196816950587289035428064568320970692304673817341489687455367170",
        "55464657044963196816950587289035428064568320970692304673817341489687455367169",
        "55464657044963196816950587289035428064568320970692304673817341489687455367168",
        "55464657044963196816950587289035428064568320970692304673817341489687463725056"
      ]
    },
    {
      "x": 28,
      "y": 19,
      "size": 1,
      "price": "2106000000000000000000",
      "reserved": "",
      "assetIds": [
        "55464657044963196816950587289035428064568320970692304673817341489687455367172",
        "55464657044963196816950587289035428064568320970692304673817341489687455367170",
        "55464657044963196816950587289035428064568320970692304673817341489687455367169",
        "55464657044963196816950587289035428064568320970692304673817341489687455367168",
        "55464657044963196816950587289035428064568320970692304673817341489687463725056"
      ]
    },
    {
      "x": 30,
      "y": 20,
      "size": 1,
      "price": "2106000000000000000000",
      "reserved": "",
      "assetIds": [
        "55464657044963196816950587289035428064568320970692304673817341489687455367180",
        "55464657044963196816950587289035428064568320970692304673817341489687455367171",
        "55464657044963196816950587289035428064568320970692304673817341489687455367169",
        "55464657044963196816950587289035428064568320970692304673817341489687455367168",
        "55464657044963196816950587289035428064568320970692304673817341489687463725056"
      ]
    },
    {
      "x": 31,
      "y": 18,
      "size": 1,
      "price": "2106000000000000000000",
      "reserved": "",
      "assetIds": [
        "55464657044963196816950587289035428064568320970692304673817341489687455367179",
        "55464657044963196816950587289035428064568320970692304673817341489687455367171",
        "55464657044963196816950587289035428064568320970692304673817341489687455367169",
        "55464657044963196816950587289035428064568320970692304673817341489687455367168",
        "55464657044963196816950587289035428064568320970692304673817341489687463725056"
      ]
    },
    {
      "x": 32,
      "y": 18,
      "size": 1,
      "price": "2106000000000000000000",
      "reserved": "",
      "assetIds": [
        "55464657044963196816950587289035428064568320970692304673817341489687455367174",
        "55464657044963196816950587289035428064568320970692304673817341489687455367170",
        "55464657044963196816950587289035428064568320970692304673817341489687455367169",
        "55464657044963196816950587289035428064568320970692304673817341489687455367168",
        "55464657044963196816950587289035428064568320970692304673817341489687463725056"
      ]
    },
    {
      "x": 30,
      "y": 18,
      "size": 1,
      "price": "2106000000000000000000",
      "reserved": "",
      "assetIds": [
        "55464657044963196816950587289035428064568320970692304673817341489687455367176",
        "55464657044963196816950587289035428064568320970692304673817341489687455367170",
        "55464657044963196816950587289035428064568320970692304673817341489687455367169",
        "55464657044963196816950587289035428064568320970692304673817341489687455367168",
        "55464657044963196816950587289035428064568320970692304673817341489687463725056"
      ]
    },
    {
      "x": 29,
      "y": 18,
      "size": 1,
      "price": "2106000000000000000000",
      "reserved": "",
      "assetIds": [
        "55464657044963196816950587289035428064568320970692304673817341489687455367176",
        "55464657044963196816950587289035428064568320970692304673817341489687455367170",
        "55464657044963196816950587289035428064568320970692304673817341489687455367169",
        "55464657044963196816950587289035428064568320970692304673817341489687455367168",
        "55464657044963196816950587289035428064568320970692304673817341489687463725056"
      ]
    },
    {
      "x": 27,
      "y": 18,
      "size": 1,
      "price": "2106000000000000000000",
      "reserved": "",
      "assetIds": [
        "55464657044963196816950587289035428064568320970692304673817341489687455367178",
        "55464657044963196816950587289035428064568320970692304673817341489687455367171",
        "55464657044963196816950587289035428064568320970692304673817341489687455367169",
        "55464657044963196816950587289035428064568320970692304673817341489687455367168",
        "55464657044963196816950587289035428064568320970692304673817341489687463725056"
      ]
    },
    {
      "x": 61,
      "y": 32,
      "size": 1,
      "price": "2106000000000000000000",
      "reserved": "",
      "assetIds": [
        "55464657044963196816950587289035428064568320970692304673817341489687455367180",
        "55464657044963196816950587289035428064568320970692304673817341489687455367171",
        "55464657044963196816950587289035428064568320970692304673817341489687455367169",
        "55464657044963196816950587289035428064568320970692304673817341489687455367168",
        "55464657044963196816950587289035428064568320970692304673817341489687463725056"
      ]
    },
    {
      "x": 62,
      "y": 32,
      "size": 1,
      "price": "2106000000000000000000",
      "reserved": "",
      "assetIds": [
        "55464657044963196816950587289035428064568320970692304673817341489687455367174",
        "55464657044963196816950587289035428064568320970692304673817341489687455367170",
        "55464657044963196816950587289035428064568320970692304673817341489687455367169",
        "55464657044963196816950587289035428064568320970692304673817341489687455367168",
        "55464657044963196816950587289035428064568320970692304673817341489687463725056"
      ]
    },
    {
      "x": 62,
      "y": 33,
      "size": 1,
      "price": "2106000000000000000000",
      "reserved": "",
      "assetIds": [
        "55464657044963196816950587289035428064568320970692304673817341489687455367179",
        "55464657044963196816950587289035428064568320970692304673817341489687455367171",
        "55464657044963196816950587289035428064568320970692304673817341489687455367169",
        "55464657044963196816950587289035428064568320970692304673817341489687455367168",
        "55464657044963196816950587289035428064568320970692304673817341489687463725056"
      ]
    },
    {
      "x": 61,
      "y": 34,
      "size": 1,
      "price": "2106000000000000000000",
      "reserved": "",
      "assetIds": [
        "55464657044963196816950587289035428064568320970692304673817341489687455367177",
        "55464657044963196816950587289035428064568320970692304673817341489687455367170",
        "55464657044963196816950587289035428064568320970692304673817341489687455367169",
        "55464657044963196816950587289035428064568320970692304673817341489687455367168",
        "55464657044963196816950587289035428064568320970692304673817341489687463725056"
      ]
    },
    {
      "x": 61,
      "y": 35,
      "size": 1,
      "price": "2106000000000000000000",
      "reserved": "",
      "assetIds": [
        "55464657044963196816950587289035428064568320970692304673817341489687455367175",
        "55464657044963196816950587289035428064568320970692304673817341489687455367170",
        "55464657044963196816950587289035428064568320970692304673817341489687455367169",
        "55464657044963196816950587289035428064568320970692304673817341489687455367168",
        "55464657044963196816950587289035428064568320970692304673817341489687463725056"
      ]
    },
    {
      "x": 61,
      "y": 36,
      "size": 1,
      "price": "2106000000000000000000",
      "reserved": "",
      "assetIds": [
        "55464657044963196816950587289035428064568320970692304673817341489687455367182",
        "55464657044963196816950587289035428064568320970692304673817341489687455367171",
        "55464657044963196816950587289035428064568320970692304673817341489687455367169",
        "55464657044963196816950587289035428064568320970692304673817341489687455367168",
        "55464657044963196816950587289035428064568320970692304673817341489687463725056"
      ]
    },
    {
      "x": 61,
      "y": 37,
      "size": 1,
      "price": "2106000000000000000000",
      "reserved": "",
      "assetIds": [
        "55464657044963196816950587289035428064568320970692304673817341489687455367183",
        "55464657044963196816950587289035428064568320970692304673817341489687455367171",
        "55464657044963196816950587289035428064568320970692304673817341489687455367169",
        "55464657044963196816950587289035428064568320970692304673817341489687455367168",
        "55464657044963196816950587289035428064568320970692304673817341489687463725056"
      ]
    },
    {
      "x": 61,
      "y": 38,
      "size": 1,
      "price": "2106000000000000000000",
      "reserved": "",
      "assetIds": [
        "55464657044963196816950587289035428064568320970692304673817341489687455367179",
        "55464657044963196816950587289035428064568320970692304673817341489687455367171",
        "55464657044963196816950587289035428064568320970692304673817341489687455367169",
        "55464657044963196816950587289035428064568320970692304673817341489687455367168",
        "55464657044963196816950587289035428064568320970692304673817341489687463725056"
      ]
    },
    {
      "x": 61,
      "y": 39,
      "size": 1,
      "price": "2106000000000000000000",
      "reserved": "",
      "assetIds": [
        "55464657044963196816950587289035428064568320970692304673817341489687455367172",
        "55464657044963196816950587289035428064568320970692304673817341489687455367170",
        "55464657044963196816950587289035428064568320970692304673817341489687455367169",
        "55464657044963196816950587289035428064568320970692304673817341489687455367168",
        "55464657044963196816950587289035428064568320970692304673817341489687463725056"
      ]
    },
    {
      "x": 61,
      "y": 40,
      "size": 1,
      "price": "2106000000000000000000",
      "reserved": "",
      "assetIds": [
        "55464657044963196816950587289035428064568320970692304673817341489687455367179",
        "55464657044963196816950587289035428064568320970692304673817341489687455367171",
        "55464657044963196816950587289035428064568320970692304673817341489687455367169",
        "55464657044963196816950587289035428064568320970692304673817341489687455367168",
        "55464657044963196816950587289035428064568320970692304673817341489687463725056"
      ]
    },
    {
      "x": 61,
      "y": 41,
      "size": 1,
      "price": "2106000000000000000000",
      "reserved": "",
      "assetIds": [
        "55464657044963196816950587289035428064568320970692304673817341489687455367178",
        "55464657044963196816950587289035428064568320970692304673817341489687455367171",
        "55464657044963196816950587289035428064568320970692304673817341489687455367169",
        "55464657044963196816950587289035428064568320970692304673817341489687455367168",
        "55464657044963196816950587289035428064568320970692304673817341489687463725056"
      ]
    },
    {
      "x": 61,
      "y": 42,
      "size": 1,
      "price": "2106000000000000000000",
      "reserved": "",
      "assetIds": [
        "55464657044963196816950587289035428064568320970692304673817341489687455367183",
        "55464657044963196816950587289035428064568320970692304673817341489687455367171",
        "55464657044963196816950587289035428064568320970692304673817341489687455367169",
        "55464657044963196816950587289035428064568320970692304673817341489687455367168",
        "55464657044963196816950587289035428064568320970692304673817341489687463725056"
      ]
    },
    {
      "x": 61,
      "y": 43,
      "size": 1,
      "price": "2106000000000000000000",
      "reserved": "",
      "assetIds": [
        "55464657044963196816950587289035428064568320970692304673817341489687455367177",
        "55464657044963196816950587289035428064568320970692304673817341489687455367170",
        "55464657044963196816950587289035428064568320970692304673817341489687455367169",
        "55464657044963196816950587289035428064568320970692304673817341489687455367168",
        "55464657044963196816950587289035428064568320970692304673817341489687463725056"
      ]
    },
    {
      "x": 61,
      "y": 33,
      "size": 1,
      "price": "2106000000000000000000",
      "reserved": "",
      "assetIds": [
        "55464657044963196816950587289035428064568320970692304673817341489687455367176",
        "55464657044963196816950587289035428064568320970692304673817341489687455367170",
        "55464657044963196816950587289035428064568320970692304673817341489687455367169",
        "55464657044963196816950587289035428064568320970692304673817341489687455367168",
        "55464657044963196816950587289035428064568320970692304673817341489687463725056"
      ]
    },
    {
      "x": 70,
      "y": 32,
      "size": 1,
      "price": "2106000000000000000000",
      "reserved": "",
      "assetIds": [
        "55464657044963196816950587289035428064568320970692304673817341489687455367173",
        "55464657044963196816950587289035428064568320970692304673817341489687455367170",
        "55464657044963196816950587289035428064568320970692304673817341489687455367169",
        "55464657044963196816950587289035428064568320970692304673817341489687455367168",
        "55464657044963196816950587289035428064568320970692304673817341489687463725056"
      ]
    },
    {
      "x": 69,
      "y": 32,
      "size": 1,
      "price": "2106000000000000000000",
      "reserved": "",
      "assetIds": [
        "55464657044963196816950587289035428064568320970692304673817341489687455367173",
        "55464657044963196816950587289035428064568320970692304673817341489687455367170",
        "55464657044963196816950587289035428064568320970692304673817341489687455367169",
        "55464657044963196816950587289035428064568320970692304673817341489687455367168",
        "55464657044963196816950587289035428064568320970692304673817341489687463725056"
      ]
    },
    {
      "x": 68,
      "y": 32,
      "size": 1,
      "price": "2106000000000000000000",
      "reserved": "",
      "assetIds": [
        "55464657044963196816950587289035428064568320970692304673817341489687455367175",
        "55464657044963196816950587289035428064568320970692304673817341489687455367170",
        "55464657044963196816950587289035428064568320970692304673817341489687455367169",
        "55464657044963196816950587289035428064568320970692304673817341489687455367168",
        "55464657044963196816950587289035428064568320970692304673817341489687463725056"
      ]
    },
    {
      "x": 67,
      "y": 32,
      "size": 1,
      "price": "2106000000000000000000",
      "reserved": "",
      "assetIds": [
        "55464657044963196816950587289035428064568320970692304673817341489687455367174",
        "55464657044963196816950587289035428064568320970692304673817341489687455367170",
        "55464657044963196816950587289035428064568320970692304673817341489687455367169",
        "55464657044963196816950587289035428064568320970692304673817341489687455367168",
        "55464657044963196816950587289035428064568320970692304673817341489687463725056"
      ]
    },
    {
      "x": 66,
      "y": 32,
      "size": 1,
      "price": "2106000000000000000000",
      "reserved": "",
      "assetIds": [
        "55464657044963196816950587289035428064568320970692304673817341489687455367178",
        "55464657044963196816950587289035428064568320970692304673817341489687455367171",
        "55464657044963196816950587289035428064568320970692304673817341489687455367169",
        "55464657044963196816950587289035428064568320970692304673817341489687455367168",
        "55464657044963196816950587289035428064568320970692304673817341489687463725056"
      ]
    },
    {
      "x": 65,
      "y": 32,
      "size": 1,
      "price": "2106000000000000000000",
      "reserved": "",
      "assetIds": [
        "55464657044963196816950587289035428064568320970692304673817341489687455367175",
        "55464657044963196816950587289035428064568320970692304673817341489687455367170",
        "55464657044963196816950587289035428064568320970692304673817341489687455367169",
        "55464657044963196816950587289035428064568320970692304673817341489687455367168",
        "55464657044963196816950587289035428064568320970692304673817341489687463725056"
      ]
    },
    {
      "x": 64,
      "y": 32,
      "size": 1,
      "price": "2106000000000000000000",
      "reserved": "",
      "assetIds": [
        "55464657044963196816950587289035428064568320970692304673817341489687455367175",
        "55464657044963196816950587289035428064568320970692304673817341489687455367170",
        "55464657044963196816950587289035428064568320970692304673817341489687455367169",
        "55464657044963196816950587289035428064568320970692304673817341489687455367168",
        "55464657044963196816950587289035428064568320970692304673817341489687463725056"
      ]
    },
    {
      "x": 63,
      "y": 32,
      "size": 1,
      "price": "2106000000000000000000",
      "reserved": "",
      "assetIds": [
        "55464657044963196816950587289035428064568320970692304673817341489687455367178",
        "55464657044963196816950587289035428064568320970692304673817341489687455367171",
        "55464657044963196816950587289035428064568320970692304673817341489687455367169",
        "55464657044963196816950587289035428064568320970692304673817341489687455367168",
        "55464657044963196816950587289035428064568320970692304673817341489687463725056"
      ]
    },
    {
      "x": 63,
      "y": 33,
      "size": 1,
      "price": "2106000000000000000000",
      "reserved": "",
      "assetIds": [
        "55464657044963196816950587289035428064568320970692304673817341489687455367178",
        "55464657044963196816950587289035428064568320970692304673817341489687455367171",
        "55464657044963196816950587289035428064568320970692304673817341489687455367169",
        "55464657044963196816950587289035428064568320970692304673817341489687455367168",
        "55464657044963196816950587289035428064568320970692304673817341489687463725056"
      ]
    },
    {
      "x": 64,
      "y": 33,
      "size": 1,
      "price": "2106000000000000000000",
      "reserved": "",
      "assetIds": [
        "55464657044963196816950587289035428064568320970692304673817341489687455367173",
        "55464657044963196816950587289035428064568320970692304673817341489687455367170",
        "55464657044963196816950587289035428064568320970692304673817341489687455367169",
        "55464657044963196816950587289035428064568320970692304673817341489687455367168",
        "55464657044963196816950587289035428064568320970692304673817341489687463725056"
      ]
    },
    {
      "x": 65,
      "y": 34,
      "size": 1,
      "price": "2106000000000000000000",
      "reserved": "",
      "assetIds": [
        "55464657044963196816950587289035428064568320970692304673817341489687455367172",
        "55464657044963196816950587289035428064568320970692304673817341489687455367170",
        "55464657044963196816950587289035428064568320970692304673817341489687455367169",
        "55464657044963196816950587289035428064568320970692304673817341489687455367168",
        "55464657044963196816950587289035428064568320970692304673817341489687463725056"
      ]
    },
    {
      "x": 66,
      "y": 34,
      "size": 1,
      "price": "2106000000000000000000",
      "reserved": "",
      "assetIds": [
        "55464657044963196816950587289035428064568320970692304673817341489687455367174",
        "55464657044963196816950587289035428064568320970692304673817341489687455367170",
        "55464657044963196816950587289035428064568320970692304673817341489687455367169",
        "55464657044963196816950587289035428064568320970692304673817341489687455367168",
        "55464657044963196816950587289035428064568320970692304673817341489687463725056"
      ]
    },
    {
      "x": 66,
      "y": 33,
      "size": 1,
      "price": "2106000000000000000000",
      "reserved": "",
      "assetIds": [
        "55464657044963196816950587289035428064568320970692304673817341489687455367181",
        "55464657044963196816950587289035428064568320970692304673817341489687455367171",
        "55464657044963196816950587289035428064568320970692304673817341489687455367169",
        "55464657044963196816950587289035428064568320970692304673817341489687455367168",
        "55464657044963196816950587289035428064568320970692304673817341489687463725056"
      ]
    },
    {
      "x": 67,
      "y": 33,
      "size": 1,
      "price": "2106000000000000000000",
      "reserved": "",
      "assetIds": [
        "55464657044963196816950587289035428064568320970692304673817341489687455367174",
        "55464657044963196816950587289035428064568320970692304673817341489687455367170",
        "55464657044963196816950587289035428064568320970692304673817341489687455367169",
        "55464657044963196816950587289035428064568320970692304673817341489687455367168",
        "55464657044963196816950587289035428064568320970692304673817341489687463725056"
      ]
    },
    {
      "x": 68,
      "y": 33,
      "size": 1,
      "price": "2106000000000000000000",
      "reserved": "",
      "assetIds": [
        "55464657044963196816950587289035428064568320970692304673817341489687455367173",
        "55464657044963196816950587289035428064568320970692304673817341489687455367170",
        "55464657044963196816950587289035428064568320970692304673817341489687455367169",
        "55464657044963196816950587289035428064568320970692304673817341489687455367168",
        "55464657044963196816950587289035428064568320970692304673817341489687463725056"
      ]
    },
    {
      "x": 69,
      "y": 33,
      "size": 1,
      "price": "2106000000000000000000",
      "reserved": "",
      "assetIds": [
        "55464657044963196816950587289035428064568320970692304673817341489687455367174",
        "55464657044963196816950587289035428064568320970692304673817341489687455367170",
        "55464657044963196816950587289035428064568320970692304673817341489687455367169",
        "55464657044963196816950587289035428064568320970692304673817341489687455367168",
        "55464657044963196816950587289035428064568320970692304673817341489687463725056"
      ]
    },
    {
      "x": 70,
      "y": 33,
      "size": 1,
      "price": "2106000000000000000000",
      "reserved": "",
      "assetIds": [
        "55464657044963196816950587289035428064568320970692304673817341489687455367181",
        "55464657044963196816950587289035428064568320970692304673817341489687455367171",
        "55464657044963196816950587289035428064568320970692304673817341489687455367169",
        "55464657044963196816950587289035428064568320970692304673817341489687455367168",
        "55464657044963196816950587289035428064568320970692304673817341489687463725056"
      ]
    },
    {
      "x": 70,
      "y": 34,
      "size": 1,
      "price": "2106000000000000000000",
      "reserved": "",
      "assetIds": [
        "55464657044963196816950587289035428064568320970692304673817341489687455367181",
        "55464657044963196816950587289035428064568320970692304673817341489687455367171",
        "55464657044963196816950587289035428064568320970692304673817341489687455367169",
        "55464657044963196816950587289035428064568320970692304673817341489687455367168",
        "55464657044963196816950587289035428064568320970692304673817341489687463725056"
      ]
    },
    {
      "x": 69,
      "y": 34,
      "size": 1,
      "price": "2106000000000000000000",
      "reserved": "",
      "assetIds": [
        "55464657044963196816950587289035428064568320970692304673817341489687455367176",
        "55464657044963196816950587289035428064568320970692304673817341489687455367170",
        "55464657044963196816950587289035428064568320970692304673817341489687455367169",
        "55464657044963196816950587289035428064568320970692304673817341489687455367168",
        "55464657044963196816950587289035428064568320970692304673817341489687463725056"
      ]
    },
    {
      "x": 68,
      "y": 34,
      "size": 1,
      "price": "2106000000000000000000",
      "reserved": "",
      "assetIds": [
        "55464657044963196816950587289035428064568320970692304673817341489687455367174",
        "55464657044963196816950587289035428064568320970692304673817341489687455367170",
        "55464657044963196816950587289035428064568320970692304673817341489687455367169",
        "55464657044963196816950587289035428064568320970692304673817341489687455367168",
        "55464657044963196816950587289035428064568320970692304673817341489687463725056"
      ]
    },
    {
      "x": 67,
      "y": 34,
      "size": 1,
      "price": "2106000000000000000000",
      "reserved": "",
      "assetIds": [
        "55464657044963196816950587289035428064568320970692304673817341489687455367172",
        "55464657044963196816950587289035428064568320970692304673817341489687455367170",
        "55464657044963196816950587289035428064568320970692304673817341489687455367169",
        "55464657044963196816950587289035428064568320970692304673817341489687455367168",
        "55464657044963196816950587289035428064568320970692304673817341489687463725056"
      ]
    },
    {
      "x": 66,
      "y": 43,
      "size": 1,
      "price": "2106000000000000000000",
      "reserved": "",
      "assetIds": [
        "55464657044963196816950587289035428064568320970692304673817341489687455367176",
        "55464657044963196816950587289035428064568320970692304673817341489687455367170",
        "55464657044963196816950587289035428064568320970692304673817341489687455367169",
        "55464657044963196816950587289035428064568320970692304673817341489687455367168",
        "55464657044963196816950587289035428064568320970692304673817341489687463725056"
      ]
    },
    {
      "x": 67,
      "y": 39,
      "size": 1,
      "price": "2106000000000000000000",
      "reserved": "",
      "assetIds": [
        "55464657044963196816950587289035428064568320970692304673817341489687455367177",
        "55464657044963196816950587289035428064568320970692304673817341489687455367170",
        "55464657044963196816950587289035428064568320970692304673817341489687455367169",
        "55464657044963196816950587289035428064568320970692304673817341489687455367168",
        "55464657044963196816950587289035428064568320970692304673817341489687463725056"
      ]
    },
    {
      "x": 67,
      "y": 37,
      "size": 1,
      "price": "2106000000000000000000",
      "reserved": "",
      "assetIds": [
        "55464657044963196816950587289035428064568320970692304673817341489687455367173",
        "55464657044963196816950587289035428064568320970692304673817341489687455367170",
        "55464657044963196816950587289035428064568320970692304673817341489687455367169",
        "55464657044963196816950587289035428064568320970692304673817341489687455367168",
        "55464657044963196816950587289035428064568320970692304673817341489687463725056"
      ]
    },
    {
      "x": 65,
      "y": 33,
      "size": 1,
      "price": "2106000000000000000000",
      "reserved": "",
      "assetIds": [
        "55464657044963196816950587289035428064568320970692304673817341489687455367178",
        "55464657044963196816950587289035428064568320970692304673817341489687455367171",
        "55464657044963196816950587289035428064568320970692304673817341489687455367169",
        "55464657044963196816950587289035428064568320970692304673817341489687455367168",
        "55464657044963196816950587289035428064568320970692304673817341489687463725056"
      ]
    },
    {
      "x": 64,
      "y": 34,
      "size": 1,
      "price": "2106000000000000000000",
      "reserved": "",
      "assetIds": [
        "55464657044963196816950587289035428064568320970692304673817341489687455367180",
        "55464657044963196816950587289035428064568320970692304673817341489687455367171",
        "55464657044963196816950587289035428064568320970692304673817341489687455367169",
        "55464657044963196816950587289035428064568320970692304673817341489687455367168",
        "55464657044963196816950587289035428064568320970692304673817341489687463725056"
      ]
    },
    {
      "x": 63,
      "y": 34,
      "size": 1,
      "price": "2106000000000000000000",
      "reserved": "",
      "assetIds": [
        "55464657044963196816950587289035428064568320970692304673817341489687455367172",
        "55464657044963196816950587289035428064568320970692304673817341489687455367170",
        "55464657044963196816950587289035428064568320970692304673817341489687455367169",
        "55464657044963196816950587289035428064568320970692304673817341489687455367168",
        "55464657044963196816950587289035428064568320970692304673817341489687463725056"
      ]
    },
    {
      "x": 60,
      "y": 36,
      "size": 1,
      "price": "2106000000000000000000",
      "reserved": "",
      "assetIds": [
        "55464657044963196816950587289035428064568320970692304673817341489687455367179",
        "55464657044963196816950587289035428064568320970692304673817341489687455367171",
        "55464657044963196816950587289035428064568320970692304673817341489687455367169",
        "55464657044963196816950587289035428064568320970692304673817341489687455367168",
        "55464657044963196816950587289035428064568320970692304673817341489687463725056"
      ]
    },
    {
      "x": 59,
      "y": 36,
      "size": 1,
      "price": "2106000000000000000000",
      "reserved": "",
      "assetIds": [
        "55464657044963196816950587289035428064568320970692304673817341489687455367183",
        "55464657044963196816950587289035428064568320970692304673817341489687455367171",
        "55464657044963196816950587289035428064568320970692304673817341489687455367169",
        "55464657044963196816950587289035428064568320970692304673817341489687455367168",
        "55464657044963196816950587289035428064568320970692304673817341489687463725056"
      ]
    },
    {
      "x": 60,
      "y": 35,
      "size": 1,
      "price": "2106000000000000000000",
      "reserved": "",
      "assetIds": [
        "55464657044963196816950587289035428064568320970692304673817341489687455367183",
        "55464657044963196816950587289035428064568320970692304673817341489687455367171",
        "55464657044963196816950587289035428064568320970692304673817341489687455367169",
        "55464657044963196816950587289035428064568320970692304673817341489687455367168",
        "55464657044963196816950587289035428064568320970692304673817341489687463725056"
      ]
    },
    {
      "x": 60,
      "y": 37,
      "size": 1,
      "price": "2106000000000000000000",
      "reserved": "",
      "assetIds": [
        "55464657044963196816950587289035428064568320970692304673817341489687455367182",
        "55464657044963196816950587289035428064568320970692304673817341489687455367171",
        "55464657044963196816950587289035428064568320970692304673817341489687455367169",
        "55464657044963196816950587289035428064568320970692304673817341489687455367168",
        "55464657044963196816950587289035428064568320970692304673817341489687463725056"
      ]
    },
    {
      "x": 59,
      "y": 37,
      "size": 1,
      "price": "2106000000000000000000",
      "reserved": "",
      "assetIds": [
        "55464657044963196816950587289035428064568320970692304673817341489687455367175",
        "55464657044963196816950587289035428064568320970692304673817341489687455367170",
        "55464657044963196816950587289035428064568320970692304673817341489687455367169",
        "55464657044963196816950587289035428064568320970692304673817341489687455367168",
        "55464657044963196816950587289035428064568320970692304673817341489687463725056"
      ]
    },
    {
      "x": 59,
      "y": 39,
      "size": 1,
      "price": "2106000000000000000000",
      "reserved": "",
      "assetIds": [
        "55464657044963196816950587289035428064568320970692304673817341489687455367176",
        "55464657044963196816950587289035428064568320970692304673817341489687455367170",
        "55464657044963196816950587289035428064568320970692304673817341489687455367169",
        "55464657044963196816950587289035428064568320970692304673817341489687455367168",
        "55464657044963196816950587289035428064568320970692304673817341489687463725056"
      ]
    },
    {
      "x": 60,
      "y": 38,
      "size": 1,
      "price": "2106000000000000000000",
      "reserved": "",
      "assetIds": [
        "55464657044963196816950587289035428064568320970692304673817341489687455367182",
        "55464657044963196816950587289035428064568320970692304673817341489687455367171",
        "55464657044963196816950587289035428064568320970692304673817341489687455367169",
        "55464657044963196816950587289035428064568320970692304673817341489687455367168",
        "55464657044963196816950587289035428064568320970692304673817341489687463725056"
      ]
    },
    {
      "x": 59,
      "y": 38,
      "size": 1,
      "price": "2106000000000000000000",
      "reserved": "",
      "assetIds": [
        "55464657044963196816950587289035428064568320970692304673817341489687455367175",
        "55464657044963196816950587289035428064568320970692304673817341489687455367170",
        "55464657044963196816950587289035428064568320970692304673817341489687455367169",
        "55464657044963196816950587289035428064568320970692304673817341489687455367168",
        "55464657044963196816950587289035428064568320970692304673817341489687463725056"
      ]
    },
    {
      "x": 60,
      "y": 39,
      "size": 1,
      "price": "2106000000000000000000",
      "reserved": "",
      "assetIds": [
        "55464657044963196816950587289035428064568320970692304673817341489687455367177",
        "55464657044963196816950587289035428064568320970692304673817341489687455367170",
        "55464657044963196816950587289035428064568320970692304673817341489687455367169",
        "55464657044963196816950587289035428064568320970692304673817341489687455367168",
        "55464657044963196816950587289035428064568320970692304673817341489687463725056"
      ]
    },
    {
      "x": 57,
      "y": 55,
      "size": 1,
      "price": "2106000000000000000000",
      "reserved": "",
      "assetIds": [
        "55464657044963196816950587289035428064568320970692304673817341489687455367177",
        "55464657044963196816950587289035428064568320970692304673817341489687455367170",
        "55464657044963196816950587289035428064568320970692304673817341489687455367169",
        "55464657044963196816950587289035428064568320970692304673817341489687455367168",
        "55464657044963196816950587289035428064568320970692304673817341489687463725056"
      ]
    },
    {
      "x": 58,
      "y": 55,
      "size": 1,
      "price": "2106000000000000000000",
      "reserved": "",
      "assetIds": [
        "55464657044963196816950587289035428064568320970692304673817341489687455367173",
        "55464657044963196816950587289035428064568320970692304673817341489687455367170",
        "55464657044963196816950587289035428064568320970692304673817341489687455367169",
        "55464657044963196816950587289035428064568320970692304673817341489687455367168",
        "55464657044963196816950587289035428064568320970692304673817341489687463725056"
      ]
    },
    {
      "x": 58,
      "y": 54,
      "size": 1,
      "price": "2106000000000000000000",
      "reserved": "",
      "assetIds": [
        "55464657044963196816950587289035428064568320970692304673817341489687455367172",
        "55464657044963196816950587289035428064568320970692304673817341489687455367170",
        "55464657044963196816950587289035428064568320970692304673817341489687455367169",
        "55464657044963196816950587289035428064568320970692304673817341489687455367168",
        "55464657044963196816950587289035428064568320970692304673817341489687463725056"
      ]
    },
    {
      "x": 58,
      "y": 53,
      "size": 1,
      "price": "2106000000000000000000",
      "reserved": "",
      "assetIds": [
        "55464657044963196816950587289035428064568320970692304673817341489687455367179",
        "55464657044963196816950587289035428064568320970692304673817341489687455367171",
        "55464657044963196816950587289035428064568320970692304673817341489687455367169",
        "55464657044963196816950587289035428064568320970692304673817341489687455367168",
        "55464657044963196816950587289035428064568320970692304673817341489687463725056"
      ]
    },
    {
      "x": 57,
      "y": 53,
      "size": 1,
      "price": "2106000000000000000000",
      "reserved": "",
      "assetIds": [
        "55464657044963196816950587289035428064568320970692304673817341489687455367173",
        "55464657044963196816950587289035428064568320970692304673817341489687455367170",
        "55464657044963196816950587289035428064568320970692304673817341489687455367169",
        "55464657044963196816950587289035428064568320970692304673817341489687455367168",
        "55464657044963196816950587289035428064568320970692304673817341489687463725056"
      ]
    },
    {
      "x": 57,
      "y": 52,
      "size": 1,
      "price": "2106000000000000000000",
      "reserved": "",
      "assetIds": [
        "55464657044963196816950587289035428064568320970692304673817341489687455367179",
        "55464657044963196816950587289035428064568320970692304673817341489687455367171",
        "55464657044963196816950587289035428064568320970692304673817341489687455367169",
        "55464657044963196816950587289035428064568320970692304673817341489687455367168",
        "55464657044963196816950587289035428064568320970692304673817341489687463725056"
      ]
    },
    {
      "x": 57,
      "y": 51,
      "size": 1,
      "price": "2106000000000000000000",
      "reserved": "",
      "assetIds": [
        "55464657044963196816950587289035428064568320970692304673817341489687455367180",
        "55464657044963196816950587289035428064568320970692304673817341489687455367171",
        "55464657044963196816950587289035428064568320970692304673817341489687455367169",
        "55464657044963196816950587289035428064568320970692304673817341489687455367168",
        "55464657044963196816950587289035428064568320970692304673817341489687463725056"
      ]
    },
    {
      "x": 57,
      "y": 50,
      "size": 1,
      "price": "2106000000000000000000",
      "reserved": "",
      "assetIds": [
        "55464657044963196816950587289035428064568320970692304673817341489687455367180",
        "55464657044963196816950587289035428064568320970692304673817341489687455367171",
        "55464657044963196816950587289035428064568320970692304673817341489687455367169",
        "55464657044963196816950587289035428064568320970692304673817341489687455367168",
        "55464657044963196816950587289035428064568320970692304673817341489687463725056"
      ]
    },
    {
      "x": 57,
      "y": 49,
      "size": 1,
      "price": "2106000000000000000000",
      "reserved": "",
      "assetIds": [
        "55464657044963196816950587289035428064568320970692304673817341489687455367179",
        "55464657044963196816950587289035428064568320970692304673817341489687455367171",
        "55464657044963196816950587289035428064568320970692304673817341489687455367169",
        "55464657044963196816950587289035428064568320970692304673817341489687455367168",
        "55464657044963196816950587289035428064568320970692304673817341489687463725056"
      ]
    },
    {
      "x": 57,
      "y": 48,
      "size": 1,
      "price": "2106000000000000000000",
      "reserved": "",
      "assetIds": [
        "55464657044963196816950587289035428064568320970692304673817341489687455367176",
        "55464657044963196816950587289035428064568320970692304673817341489687455367170",
        "55464657044963196816950587289035428064568320970692304673817341489687455367169",
        "55464657044963196816950587289035428064568320970692304673817341489687455367168",
        "55464657044963196816950587289035428064568320970692304673817341489687463725056"
      ]
    },
    {
      "x": 57,
      "y": 47,
      "size": 1,
      "price": "2106000000000000000000",
      "reserved": "",
      "assetIds": [
        "55464657044963196816950587289035428064568320970692304673817341489687455367172",
        "55464657044963196816950587289035428064568320970692304673817341489687455367170",
        "55464657044963196816950587289035428064568320970692304673817341489687455367169",
        "55464657044963196816950587289035428064568320970692304673817341489687455367168",
        "55464657044963196816950587289035428064568320970692304673817341489687463725056"
      ]
    },
    {
      "x": 57,
      "y": 46,
      "size": 1,
      "price": "2106000000000000000000",
      "reserved": "",
      "assetIds": [
        "55464657044963196816950587289035428064568320970692304673817341489687455367175",
        "55464657044963196816950587289035428064568320970692304673817341489687455367170",
        "55464657044963196816950587289035428064568320970692304673817341489687455367169",
        "55464657044963196816950587289035428064568320970692304673817341489687455367168",
        "55464657044963196816950587289035428064568320970692304673817341489687463725056"
      ]
    },
    {
      "x": 56,
      "y": 46,
      "size": 1,
      "price": "2106000000000000000000",
      "reserved": "",
      "assetIds": [
        "55464657044963196816950587289035428064568320970692304673817341489687455367177",
        "55464657044963196816950587289035428064568320970692304673817341489687455367170",
        "55464657044963196816950587289035428064568320970692304673817341489687455367169",
        "55464657044963196816950587289035428064568320970692304673817341489687455367168",
        "55464657044963196816950587289035428064568320970692304673817341489687463725056"
      ]
    },
    {
      "x": 56,
      "y": 45,
      "size": 1,
      "price": "2106000000000000000000",
      "reserved": "",
      "assetIds": [
        "55464657044963196816950587289035428064568320970692304673817341489687455367177",
        "55464657044963196816950587289035428064568320970692304673817341489687455367170",
        "55464657044963196816950587289035428064568320970692304673817341489687455367169",
        "55464657044963196816950587289035428064568320970692304673817341489687455367168",
        "55464657044963196816950587289035428064568320970692304673817341489687463725056"
      ]
    },
    {
      "x": 56,
      "y": 44,
      "size": 1,
      "price": "2106000000000000000000",
      "reserved": "",
      "assetIds": [
        "55464657044963196816950587289035428064568320970692304673817341489687455367172",
        "55464657044963196816950587289035428064568320970692304673817341489687455367170",
        "55464657044963196816950587289035428064568320970692304673817341489687455367169",
        "55464657044963196816950587289035428064568320970692304673817341489687455367168",
        "55464657044963196816950587289035428064568320970692304673817341489687463725056"
      ]
    },
    {
      "x": 55,
      "y": 43,
      "size": 1,
      "price": "2106000000000000000000",
      "reserved": "",
      "assetIds": [
        "55464657044963196816950587289035428064568320970692304673817341489687455367183",
        "55464657044963196816950587289035428064568320970692304673817341489687455367171",
        "55464657044963196816950587289035428064568320970692304673817341489687455367169",
        "55464657044963196816950587289035428064568320970692304673817341489687455367168",
        "55464657044963196816950587289035428064568320970692304673817341489687463725056"
      ]
    },
    {
      "x": 54,
      "y": 43,
      "size": 1,
      "price": "2106000000000000000000",
      "reserved": "",
      "assetIds": [
        "55464657044963196816950587289035428064568320970692304673817341489687455367175",
        "55464657044963196816950587289035428064568320970692304673817341489687455367170",
        "55464657044963196816950587289035428064568320970692304673817341489687455367169",
        "55464657044963196816950587289035428064568320970692304673817341489687455367168",
        "55464657044963196816950587289035428064568320970692304673817341489687463725056"
      ]
    },
    {
      "x": 55,
      "y": 42,
      "size": 1,
      "price": "2106000000000000000000",
      "reserved": "",
      "assetIds": [
        "55464657044963196816950587289035428064568320970692304673817341489687455367178",
        "55464657044963196816950587289035428064568320970692304673817341489687455367171",
        "55464657044963196816950587289035428064568320970692304673817341489687455367169",
        "55464657044963196816950587289035428064568320970692304673817341489687455367168",
        "55464657044963196816950587289035428064568320970692304673817341489687463725056"
      ]
    },
    {
      "x": 55,
      "y": 44,
      "size": 1,
      "price": "2106000000000000000000",
      "reserved": "",
      "assetIds": [
        "55464657044963196816950587289035428064568320970692304673817341489687455367181",
        "55464657044963196816950587289035428064568320970692304673817341489687455367171",
        "55464657044963196816950587289035428064568320970692304673817341489687455367169",
        "55464657044963196816950587289035428064568320970692304673817341489687455367168",
        "55464657044963196816950587289035428064568320970692304673817341489687463725056"
      ]
    },
    {
      "x": 55,
      "y": 45,
      "size": 1,
      "price": "2106000000000000000000",
      "reserved": "",
      "assetIds": [
        "55464657044963196816950587289035428064568320970692304673817341489687455367176",
        "55464657044963196816950587289035428064568320970692304673817341489687455367170",
        "55464657044963196816950587289035428064568320970692304673817341489687455367169",
        "55464657044963196816950587289035428064568320970692304673817341489687455367168",
        "55464657044963196816950587289035428064568320970692304673817341489687463725056"
      ]
    },
    {
      "x": 54,
      "y": 45,
      "size": 1,
      "price": "2106000000000000000000",
      "reserved": "",
      "assetIds": [
        "55464657044963196816950587289035428064568320970692304673817341489687455367177",
        "55464657044963196816950587289035428064568320970692304673817341489687455367170",
        "55464657044963196816950587289035428064568320970692304673817341489687455367169",
        "55464657044963196816950587289035428064568320970692304673817341489687455367168",
        "55464657044963196816950587289035428064568320970692304673817341489687463725056"
      ]
    },
    {
      "x": 54,
      "y": 46,
      "size": 1,
      "price": "2106000000000000000000",
      "reserved": "",
      "assetIds": [
        "55464657044963196816950587289035428064568320970692304673817341489687455367178",
        "55464657044963196816950587289035428064568320970692304673817341489687455367171",
        "55464657044963196816950587289035428064568320970692304673817341489687455367169",
        "55464657044963196816950587289035428064568320970692304673817341489687455367168",
        "55464657044963196816950587289035428064568320970692304673817341489687463725056"
      ]
    },
    {
      "x": 54,
      "y": 47,
      "size": 1,
      "price": "2106000000000000000000",
      "reserved": "",
      "assetIds": [
        "55464657044963196816950587289035428064568320970692304673817341489687455367175",
        "55464657044963196816950587289035428064568320970692304673817341489687455367170",
        "55464657044963196816950587289035428064568320970692304673817341489687455367169",
        "55464657044963196816950587289035428064568320970692304673817341489687455367168",
        "55464657044963196816950587289035428064568320970692304673817341489687463725056"
      ]
    },
    {
      "x": 55,
      "y": 48,
      "size": 1,
      "price": "2106000000000000000000",
      "reserved": "",
      "assetIds": [
        "55464657044963196816950587289035428064568320970692304673817341489687455367176",
        "55464657044963196816950587289035428064568320970692304673817341489687455367170",
        "55464657044963196816950587289035428064568320970692304673817341489687455367169",
        "55464657044963196816950587289035428064568320970692304673817341489687455367168",
        "55464657044963196816950587289035428064568320970692304673817341489687463725056"
      ]
    },
    {
      "x": 55,
      "y": 49,
      "size": 1,
      "price": "2106000000000000000000",
      "reserved": "",
      "assetIds": [
        "55464657044963196816950587289035428064568320970692304673817341489687455367174",
        "55464657044963196816950587289035428064568320970692304673817341489687455367170",
        "55464657044963196816950587289035428064568320970692304673817341489687455367169",
        "55464657044963196816950587289035428064568320970692304673817341489687455367168",
        "55464657044963196816950587289035428064568320970692304673817341489687463725056"
      ]
    },
    {
      "x": 56,
      "y": 50,
      "size": 1,
      "price": "2106000000000000000000",
      "reserved": "",
      "assetIds": [
        "55464657044963196816950587289035428064568320970692304673817341489687455367172",
        "55464657044963196816950587289035428064568320970692304673817341489687455367170",
        "55464657044963196816950587289035428064568320970692304673817341489687455367169",
        "55464657044963196816950587289035428064568320970692304673817341489687455367168",
        "55464657044963196816950587289035428064568320970692304673817341489687463725056"
      ]
    },
    {
      "x": 56,
      "y": 51,
      "size": 1,
      "price": "2106000000000000000000",
      "reserved": "",
      "assetIds": [
        "55464657044963196816950587289035428064568320970692304673817341489687455367181",
        "55464657044963196816950587289035428064568320970692304673817341489687455367171",
        "55464657044963196816950587289035428064568320970692304673817341489687455367169",
        "55464657044963196816950587289035428064568320970692304673817341489687455367168",
        "55464657044963196816950587289035428064568320970692304673817341489687463725056"
      ]
    },
    {
      "x": 56,
      "y": 52,
      "size": 1,
      "price": "2106000000000000000000",
      "reserved": "",
      "assetIds": [
        "55464657044963196816950587289035428064568320970692304673817341489687455367176",
        "55464657044963196816950587289035428064568320970692304673817341489687455367170",
        "55464657044963196816950587289035428064568320970692304673817341489687455367169",
        "55464657044963196816950587289035428064568320970692304673817341489687455367168",
        "55464657044963196816950587289035428064568320970692304673817341489687463725056"
      ]
    },
    {
      "x": 55,
      "y": 52,
      "size": 1,
      "price": "2106000000000000000000",
      "reserved": "",
      "assetIds": [
        "55464657044963196816950587289035428064568320970692304673817341489687455367173",
        "55464657044963196816950587289035428064568320970692304673817341489687455367170",
        "55464657044963196816950587289035428064568320970692304673817341489687455367169",
        "55464657044963196816950587289035428064568320970692304673817341489687455367168",
        "55464657044963196816950587289035428064568320970692304673817341489687463725056"
      ]
    },
    {
      "x": 55,
      "y": 53,
      "size": 1,
      "price": "2106000000000000000000",
      "reserved": "",
      "assetIds": [
        "55464657044963196816950587289035428064568320970692304673817341489687455367181",
        "55464657044963196816950587289035428064568320970692304673817341489687455367171",
        "55464657044963196816950587289035428064568320970692304673817341489687455367169",
        "55464657044963196816950587289035428064568320970692304673817341489687455367168",
        "55464657044963196816950587289035428064568320970692304673817341489687463725056"
      ]
    },
    {
      "x": 55,
      "y": 54,
      "size": 1,
      "price": "2106000000000000000000",
      "reserved": "",
      "assetIds": [
        "55464657044963196816950587289035428064568320970692304673817341489687455367178",
        "55464657044963196816950587289035428064568320970692304673817341489687455367171",
        "55464657044963196816950587289035428064568320970692304673817341489687455367169",
        "55464657044963196816950587289035428064568320970692304673817341489687455367168",
        "55464657044963196816950587289035428064568320970692304673817341489687463725056"
      ]
    },
    {
      "x": 56,
      "y": 53,
      "size": 1,
      "price": "2106000000000000000000",
      "reserved": "",
      "assetIds": [
        "55464657044963196816950587289035428064568320970692304673817341489687455367181",
        "55464657044963196816950587289035428064568320970692304673817341489687455367171",
        "55464657044963196816950587289035428064568320970692304673817341489687455367169",
        "55464657044963196816950587289035428064568320970692304673817341489687455367168",
        "55464657044963196816950587289035428064568320970692304673817341489687463725056"
      ]
    },
    {
      "x": 56,
      "y": 49,
      "size": 1,
      "price": "2106000000000000000000",
      "reserved": "",
      "assetIds": [
        "55464657044963196816950587289035428064568320970692304673817341489687455367178",
        "55464657044963196816950587289035428064568320970692304673817341489687455367171",
        "55464657044963196816950587289035428064568320970692304673817341489687455367169",
        "55464657044963196816950587289035428064568320970692304673817341489687455367168",
        "55464657044963196816950587289035428064568320970692304673817341489687463725056"
      ]
    },
    {
      "x": 56,
      "y": 48,
      "size": 1,
      "price": "2106000000000000000000",
      "reserved": "",
      "assetIds": [
        "55464657044963196816950587289035428064568320970692304673817341489687455367174",
        "55464657044963196816950587289035428064568320970692304673817341489687455367170",
        "55464657044963196816950587289035428064568320970692304673817341489687455367169",
        "55464657044963196816950587289035428064568320970692304673817341489687455367168",
        "55464657044963196816950587289035428064568320970692304673817341489687463725056"
      ]
    },
    {
      "x": 56,
      "y": 47,
      "size": 1,
      "price": "2106000000000000000000",
      "reserved": "",
      "assetIds": [
        "55464657044963196816950587289035428064568320970692304673817341489687455367180",
        "55464657044963196816950587289035428064568320970692304673817341489687455367171",
        "55464657044963196816950587289035428064568320970692304673817341489687455367169",
        "55464657044963196816950587289035428064568320970692304673817341489687455367168",
        "55464657044963196816950587289035428064568320970692304673817341489687463725056"
      ]
    },
    {
      "x": 55,
      "y": 47,
      "size": 1,
      "price": "2106000000000000000000",
      "reserved": "",
      "assetIds": [
        "55464657044963196816950587289035428064568320970692304673817341489687455367176",
        "55464657044963196816950587289035428064568320970692304673817341489687455367170",
        "55464657044963196816950587289035428064568320970692304673817341489687455367169",
        "55464657044963196816950587289035428064568320970692304673817341489687455367168",
        "55464657044963196816950587289035428064568320970692304673817341489687463725056"
      ]
    },
    {
      "x": 55,
      "y": 46,
      "size": 1,
      "price": "2106000000000000000000",
      "reserved": "",
      "assetIds": [
        "55464657044963196816950587289035428064568320970692304673817341489687455367174",
        "55464657044963196816950587289035428064568320970692304673817341489687455367170",
        "55464657044963196816950587289035428064568320970692304673817341489687455367169",
        "55464657044963196816950587289035428064568320970692304673817341489687455367168",
        "55464657044963196816950587289035428064568320970692304673817341489687463725056"
      ]
    },
    {
      "x": 55,
      "y": 50,
      "size": 1,
      "price": "2106000000000000000000",
      "reserved": "",
      "assetIds": [
        "55464657044963196816950587289035428064568320970692304673817341489687455367174",
        "55464657044963196816950587289035428064568320970692304673817341489687455367170",
        "55464657044963196816950587289035428064568320970692304673817341489687455367169",
        "55464657044963196816950587289035428064568320970692304673817341489687455367168",
        "55464657044963196816950587289035428064568320970692304673817341489687463725056"
      ]
    },
    {
      "x": 55,
      "y": 51,
      "size": 1,
      "price": "2106000000000000000000",
      "reserved": "",
      "assetIds": [
        "55464657044963196816950587289035428064568320970692304673817341489687455367183",
        "55464657044963196816950587289035428064568320970692304673817341489687455367171",
        "55464657044963196816950587289035428064568320970692304673817341489687455367169",
        "55464657044963196816950587289035428064568320970692304673817341489687455367168",
        "55464657044963196816950587289035428064568320970692304673817341489687463725056"
      ]
    },
    {
      "x": 55,
      "y": 55,
      "size": 1,
      "price": "2106000000000000000000",
      "reserved": "",
      "assetIds": [
        "55464657044963196816950587289035428064568320970692304673817341489687455367174",
        "55464657044963196816950587289035428064568320970692304673817341489687455367170",
        "55464657044963196816950587289035428064568320970692304673817341489687455367169",
        "55464657044963196816950587289035428064568320970692304673817341489687455367168",
        "55464657044963196816950587289035428064568320970692304673817341489687463725056"
      ]
    },
    {
      "x": 55,
      "y": 56,
      "size": 1,
      "price": "2106000000000000000000",
      "reserved": "",
      "assetIds": [
        "55464657044963196816950587289035428064568320970692304673817341489687455367183",
        "55464657044963196816950587289035428064568320970692304673817341489687455367171",
        "55464657044963196816950587289035428064568320970692304673817341489687455367169",
        "55464657044963196816950587289035428064568320970692304673817341489687455367168",
        "55464657044963196816950587289035428064568320970692304673817341489687463725056"
      ]
    },
    {
      "x": 55,
      "y": 57,
      "size": 1,
      "price": "2106000000000000000000",
      "reserved": "",
      "assetIds": [
        "55464657044963196816950587289035428064568320970692304673817341489687455367180",
        "55464657044963196816950587289035428064568320970692304673817341489687455367171",
        "55464657044963196816950587289035428064568320970692304673817341489687455367169",
        "55464657044963196816950587289035428064568320970692304673817341489687455367168",
        "55464657044963196816950587289035428064568320970692304673817341489687463725056"
      ]
    },
    {
      "x": 55,
      "y": 58,
      "size": 1,
      "price": "2106000000000000000000",
      "reserved": "",
      "assetIds": [
        "55464657044963196816950587289035428064568320970692304673817341489687455367183",
        "55464657044963196816950587289035428064568320970692304673817341489687455367171",
        "55464657044963196816950587289035428064568320970692304673817341489687455367169",
        "55464657044963196816950587289035428064568320970692304673817341489687455367168",
        "55464657044963196816950587289035428064568320970692304673817341489687463725056"
      ]
    },
    {
      "x": 54,
      "y": 58,
      "size": 1,
      "price": "2106000000000000000000",
      "reserved": "",
      "assetIds": [
        "55464657044963196816950587289035428064568320970692304673817341489687455367179",
        "55464657044963196816950587289035428064568320970692304673817341489687455367171",
        "55464657044963196816950587289035428064568320970692304673817341489687455367169",
        "55464657044963196816950587289035428064568320970692304673817341489687455367168",
        "55464657044963196816950587289035428064568320970692304673817341489687463725056"
      ]
    },
    {
      "x": 54,
      "y": 57,
      "size": 1,
      "price": "2106000000000000000000",
      "reserved": "",
      "assetIds": [
        "55464657044963196816950587289035428064568320970692304673817341489687455367172",
        "55464657044963196816950587289035428064568320970692304673817341489687455367170",
        "55464657044963196816950587289035428064568320970692304673817341489687455367169",
        "55464657044963196816950587289035428064568320970692304673817341489687455367168",
        "55464657044963196816950587289035428064568320970692304673817341489687463725056"
      ]
    },
    {
      "x": 54,
      "y": 56,
      "size": 1,
      "price": "2106000000000000000000",
      "reserved": "",
      "assetIds": [
        "55464657044963196816950587289035428064568320970692304673817341489687455367177",
        "55464657044963196816950587289035428064568320970692304673817341489687455367170",
        "55464657044963196816950587289035428064568320970692304673817341489687455367169",
        "55464657044963196816950587289035428064568320970692304673817341489687455367168",
        "55464657044963196816950587289035428064568320970692304673817341489687463725056"
      ]
    },
    {
      "x": 54,
      "y": 55,
      "size": 1,
      "price": "2106000000000000000000",
      "reserved": "",
      "assetIds": [
        "55464657044963196816950587289035428064568320970692304673817341489687455367177",
        "55464657044963196816950587289035428064568320970692304673817341489687455367170",
        "55464657044963196816950587289035428064568320970692304673817341489687455367169",
        "55464657044963196816950587289035428064568320970692304673817341489687455367168",
        "55464657044963196816950587289035428064568320970692304673817341489687463725056"
      ]
    },
    {
      "x": 54,
      "y": 54,
      "size": 1,
      "price": "2106000000000000000000",
      "reserved": "",
      "assetIds": [
        "55464657044963196816950587289035428064568320970692304673817341489687455367183",
        "55464657044963196816950587289035428064568320970692304673817341489687455367171",
        "55464657044963196816950587289035428064568320970692304673817341489687455367169",
        "55464657044963196816950587289035428064568320970692304673817341489687455367168",
        "55464657044963196816950587289035428064568320970692304673817341489687463725056"
      ]
    },
    {
      "x": 54,
      "y": 53,
      "size": 1,
      "price": "2106000000000000000000",
      "reserved": "",
      "assetIds": [
        "55464657044963196816950587289035428064568320970692304673817341489687455367182",
        "55464657044963196816950587289035428064568320970692304673817341489687455367171",
        "55464657044963196816950587289035428064568320970692304673817341489687455367169",
        "55464657044963196816950587289035428064568320970692304673817341489687455367168",
        "55464657044963196816950587289035428064568320970692304673817341489687463725056"
      ]
    },
    {
      "x": 54,
      "y": 52,
      "size": 1,
      "price": "2106000000000000000000",
      "reserved": "",
      "assetIds": [
        "55464657044963196816950587289035428064568320970692304673817341489687455367174",
        "55464657044963196816950587289035428064568320970692304673817341489687455367170",
        "55464657044963196816950587289035428064568320970692304673817341489687455367169",
        "55464657044963196816950587289035428064568320970692304673817341489687455367168",
        "55464657044963196816950587289035428064568320970692304673817341489687463725056"
      ]
    },
    {
      "x": 54,
      "y": 51,
      "size": 1,
      "price": "2106000000000000000000",
      "reserved": "",
      "assetIds": [
        "55464657044963196816950587289035428064568320970692304673817341489687455367181",
        "55464657044963196816950587289035428064568320970692304673817341489687455367171",
        "55464657044963196816950587289035428064568320970692304673817341489687455367169",
        "55464657044963196816950587289035428064568320970692304673817341489687455367168",
        "55464657044963196816950587289035428064568320970692304673817341489687463725056"
      ]
    },
    {
      "x": 54,
      "y": 50,
      "size": 1,
      "price": "2106000000000000000000",
      "reserved": "",
      "assetIds": [
        "55464657044963196816950587289035428064568320970692304673817341489687455367175",
        "55464657044963196816950587289035428064568320970692304673817341489687455367170",
        "55464657044963196816950587289035428064568320970692304673817341489687455367169",
        "55464657044963196816950587289035428064568320970692304673817341489687455367168",
        "55464657044963196816950587289035428064568320970692304673817341489687463725056"
      ]
    },
    {
      "x": 54,
      "y": 49,
      "size": 1,
      "price": "2106000000000000000000",
      "reserved": "",
      "assetIds": [
        "55464657044963196816950587289035428064568320970692304673817341489687455367176",
        "55464657044963196816950587289035428064568320970692304673817341489687455367170",
        "55464657044963196816950587289035428064568320970692304673817341489687455367169",
        "55464657044963196816950587289035428064568320970692304673817341489687455367168",
        "55464657044963196816950587289035428064568320970692304673817341489687463725056"
      ]
    },
    {
      "x": 53,
      "y": 49,
      "size": 1,
      "price": "2106000000000000000000",
      "reserved": "",
      "assetIds": [
        "55464657044963196816950587289035428064568320970692304673817341489687455367179",
        "55464657044963196816950587289035428064568320970692304673817341489687455367171",
        "55464657044963196816950587289035428064568320970692304673817341489687455367169",
        "55464657044963196816950587289035428064568320970692304673817341489687455367168",
        "55464657044963196816950587289035428064568320970692304673817341489687463725056"
      ]
    },
    {
      "x": 53,
      "y": 48,
      "size": 1,
      "price": "2106000000000000000000",
      "reserved": "",
      "assetIds": [
        "55464657044963196816950587289035428064568320970692304673817341489687455367181",
        "55464657044963196816950587289035428064568320970692304673817341489687455367171",
        "55464657044963196816950587289035428064568320970692304673817341489687455367169",
        "55464657044963196816950587289035428064568320970692304673817341489687455367168",
        "55464657044963196816950587289035428064568320970692304673817341489687463725056"
      ]
    },
    {
      "x": 53,
      "y": 47,
      "size": 1,
      "price": "2106000000000000000000",
      "reserved": "",
      "assetIds": [
        "55464657044963196816950587289035428064568320970692304673817341489687455367173",
        "55464657044963196816950587289035428064568320970692304673817341489687455367170",
        "55464657044963196816950587289035428064568320970692304673817341489687455367169",
        "55464657044963196816950587289035428064568320970692304673817341489687455367168",
        "55464657044963196816950587289035428064568320970692304673817341489687463725056"
      ]
    },
    {
      "x": 53,
      "y": 46,
      "size": 1,
      "price": "2106000000000000000000",
      "reserved": "",
      "assetIds": [
        "55464657044963196816950587289035428064568320970692304673817341489687455367174",
        "55464657044963196816950587289035428064568320970692304673817341489687455367170",
        "55464657044963196816950587289035428064568320970692304673817341489687455367169",
        "55464657044963196816950587289035428064568320970692304673817341489687455367168",
        "55464657044963196816950587289035428064568320970692304673817341489687463725056"
      ]
    },
    {
      "x": 52,
      "y": 46,
      "size": 1,
      "price": "2106000000000000000000",
      "reserved": "",
      "assetIds": [
        "55464657044963196816950587289035428064568320970692304673817341489687455367174",
        "55464657044963196816950587289035428064568320970692304673817341489687455367170",
        "55464657044963196816950587289035428064568320970692304673817341489687455367169",
        "55464657044963196816950587289035428064568320970692304673817341489687455367168",
        "55464657044963196816950587289035428064568320970692304673817341489687463725056"
      ]
    },
    {
      "x": 52,
      "y": 45,
      "size": 1,
      "price": "2106000000000000000000",
      "reserved": "",
      "assetIds": [
        "55464657044963196816950587289035428064568320970692304673817341489687455367179",
        "55464657044963196816950587289035428064568320970692304673817341489687455367171",
        "55464657044963196816950587289035428064568320970692304673817341489687455367169",
        "55464657044963196816950587289035428064568320970692304673817341489687455367168",
        "55464657044963196816950587289035428064568320970692304673817341489687463725056"
      ]
    },
    {
      "x": 51,
      "y": 45,
      "size": 1,
      "price": "2106000000000000000000",
      "reserved": "",
      "assetIds": [
        "55464657044963196816950587289035428064568320970692304673817341489687455367177",
        "55464657044963196816950587289035428064568320970692304673817341489687455367170",
        "55464657044963196816950587289035428064568320970692304673817341489687455367169",
        "55464657044963196816950587289035428064568320970692304673817341489687455367168",
        "55464657044963196816950587289035428064568320970692304673817341489687463725056"
      ]
    },
    {
      "x": 50,
      "y": 45,
      "size": 1,
      "price": "2106000000000000000000",
      "reserved": "",
      "assetIds": [
        "55464657044963196816950587289035428064568320970692304673817341489687455367172",
        "55464657044963196816950587289035428064568320970692304673817341489687455367170",
        "55464657044963196816950587289035428064568320970692304673817341489687455367169",
        "55464657044963196816950587289035428064568320970692304673817341489687455367168",
        "55464657044963196816950587289035428064568320970692304673817341489687463725056"
      ]
    },
    {
      "x": 49,
      "y": 45,
      "size": 1,
      "price": "2106000000000000000000",
      "reserved": "",
      "assetIds": [
        "55464657044963196816950587289035428064568320970692304673817341489687455367177",
        "55464657044963196816950587289035428064568320970692304673817341489687455367170",
        "55464657044963196816950587289035428064568320970692304673817341489687455367169",
        "55464657044963196816950587289035428064568320970692304673817341489687455367168",
        "55464657044963196816950587289035428064568320970692304673817341489687463725056"
      ]
    },
    {
      "x": 49,
      "y": 46,
      "size": 1,
      "price": "2106000000000000000000",
      "reserved": "",
      "assetIds": [
        "55464657044963196816950587289035428064568320970692304673817341489687455367175",
        "55464657044963196816950587289035428064568320970692304673817341489687455367170",
        "55464657044963196816950587289035428064568320970692304673817341489687455367169",
        "55464657044963196816950587289035428064568320970692304673817341489687455367168",
        "55464657044963196816950587289035428064568320970692304673817341489687463725056"
      ]
    },
    {
      "x": 49,
      "y": 47,
      "size": 1,
      "price": "2106000000000000000000",
      "reserved": "",
      "assetIds": [
        "55464657044963196816950587289035428064568320970692304673817341489687455367174",
        "55464657044963196816950587289035428064568320970692304673817341489687455367170",
        "55464657044963196816950587289035428064568320970692304673817341489687455367169",
        "55464657044963196816950587289035428064568320970692304673817341489687455367168",
        "55464657044963196816950587289035428064568320970692304673817341489687463725056"
      ]
    },
    {
      "x": 49,
      "y": 48,
      "size": 1,
      "price": "2106000000000000000000",
      "reserved": "",
      "assetIds": [
        "55464657044963196816950587289035428064568320970692304673817341489687455367174",
        "55464657044963196816950587289035428064568320970692304673817341489687455367170",
        "55464657044963196816950587289035428064568320970692304673817341489687455367169",
        "55464657044963196816950587289035428064568320970692304673817341489687455367168",
        "55464657044963196816950587289035428064568320970692304673817341489687463725056"
      ]
    },
    {
      "x": 49,
      "y": 49,
      "size": 1,
      "price": "2106000000000000000000",
      "reserved": "",
      "assetIds": [
        "55464657044963196816950587289035428064568320970692304673817341489687455367180",
        "55464657044963196816950587289035428064568320970692304673817341489687455367171",
        "55464657044963196816950587289035428064568320970692304673817341489687455367169",
        "55464657044963196816950587289035428064568320970692304673817341489687455367168",
        "55464657044963196816950587289035428064568320970692304673817341489687463725056"
      ]
    },
    {
      "x": 50,
      "y": 49,
      "size": 1,
      "price": "2106000000000000000000",
      "reserved": "",
      "assetIds": [
        "55464657044963196816950587289035428064568320970692304673817341489687455367178",
        "55464657044963196816950587289035428064568320970692304673817341489687455367171",
        "55464657044963196816950587289035428064568320970692304673817341489687455367169",
        "55464657044963196816950587289035428064568320970692304673817341489687455367168",
        "55464657044963196816950587289035428064568320970692304673817341489687463725056"
      ]
    },
    {
      "x": 51,
      "y": 49,
      "size": 1,
      "price": "2106000000000000000000",
      "reserved": "",
      "assetIds": [
        "55464657044963196816950587289035428064568320970692304673817341489687455367172",
        "55464657044963196816950587289035428064568320970692304673817341489687455367170",
        "55464657044963196816950587289035428064568320970692304673817341489687455367169",
        "55464657044963196816950587289035428064568320970692304673817341489687455367168",
        "55464657044963196816950587289035428064568320970692304673817341489687463725056"
      ]
    },
    {
      "x": 51,
      "y": 50,
      "size": 1,
      "price": "2106000000000000000000",
      "reserved": "",
      "assetIds": [
        "55464657044963196816950587289035428064568320970692304673817341489687455367178",
        "55464657044963196816950587289035428064568320970692304673817341489687455367171",
        "55464657044963196816950587289035428064568320970692304673817341489687455367169",
        "55464657044963196816950587289035428064568320970692304673817341489687455367168",
        "55464657044963196816950587289035428064568320970692304673817341489687463725056"
      ]
    },
    {
      "x": 52,
      "y": 50,
      "size": 1,
      "price": "2106000000000000000000",
      "reserved": "",
      "assetIds": [
        "55464657044963196816950587289035428064568320970692304673817341489687455367180",
        "55464657044963196816950587289035428064568320970692304673817341489687455367171",
        "55464657044963196816950587289035428064568320970692304673817341489687455367169",
        "55464657044963196816950587289035428064568320970692304673817341489687455367168",
        "55464657044963196816950587289035428064568320970692304673817341489687463725056"
      ]
    },
    {
      "x": 52,
      "y": 49,
      "size": 1,
      "price": "2106000000000000000000",
      "reserved": "",
      "assetIds": [
        "55464657044963196816950587289035428064568320970692304673817341489687455367177",
        "55464657044963196816950587289035428064568320970692304673817341489687455367170",
        "55464657044963196816950587289035428064568320970692304673817341489687455367169",
        "55464657044963196816950587289035428064568320970692304673817341489687455367168",
        "55464657044963196816950587289035428064568320970692304673817341489687463725056"
      ]
    },
    {
      "x": 52,
      "y": 48,
      "size": 1,
      "price": "2106000000000000000000",
      "reserved": "",
      "assetIds": [
        "55464657044963196816950587289035428064568320970692304673817341489687455367178",
        "55464657044963196816950587289035428064568320970692304673817341489687455367171",
        "55464657044963196816950587289035428064568320970692304673817341489687455367169",
        "55464657044963196816950587289035428064568320970692304673817341489687455367168",
        "55464657044963196816950587289035428064568320970692304673817341489687463725056"
      ]
    },
    {
      "x": 52,
      "y": 47,
      "size": 1,
      "price": "2106000000000000000000",
      "reserved": "",
      "assetIds": [
        "55464657044963196816950587289035428064568320970692304673817341489687455367178",
        "55464657044963196816950587289035428064568320970692304673817341489687455367171",
        "55464657044963196816950587289035428064568320970692304673817341489687455367169",
        "55464657044963196816950587289035428064568320970692304673817341489687455367168",
        "55464657044963196816950587289035428064568320970692304673817341489687463725056"
      ]
    },
    {
      "x": 51,
      "y": 47,
      "size": 1,
      "price": "2106000000000000000000",
      "reserved": "",
      "assetIds": [
        "55464657044963196816950587289035428064568320970692304673817341489687455367175",
        "55464657044963196816950587289035428064568320970692304673817341489687455367170",
        "55464657044963196816950587289035428064568320970692304673817341489687455367169",
        "55464657044963196816950587289035428064568320970692304673817341489687455367168",
        "55464657044963196816950587289035428064568320970692304673817341489687463725056"
      ]
    },
    {
      "x": 51,
      "y": 46,
      "size": 1,
      "price": "2106000000000000000000",
      "reserved": "",
      "assetIds": [
        "55464657044963196816950587289035428064568320970692304673817341489687455367183",
        "55464657044963196816950587289035428064568320970692304673817341489687455367171",
        "55464657044963196816950587289035428064568320970692304673817341489687455367169",
        "55464657044963196816950587289035428064568320970692304673817341489687455367168",
        "55464657044963196816950587289035428064568320970692304673817341489687463725056"
      ]
    },
    {
      "x": 51,
      "y": 48,
      "size": 1,
      "price": "2106000000000000000000",
      "reserved": "",
      "assetIds": [
        "55464657044963196816950587289035428064568320970692304673817341489687455367178",
        "55464657044963196816950587289035428064568320970692304673817341489687455367171",
        "55464657044963196816950587289035428064568320970692304673817341489687455367169",
        "55464657044963196816950587289035428064568320970692304673817341489687455367168",
        "55464657044963196816950587289035428064568320970692304673817341489687463725056"
      ]
    },
    {
      "x": 50,
      "y": 47,
      "size": 1,
      "price": "2106000000000000000000",
      "reserved": "",
      "assetIds": [
        "55464657044963196816950587289035428064568320970692304673817341489687455367173",
        "55464657044963196816950587289035428064568320970692304673817341489687455367170",
        "55464657044963196816950587289035428064568320970692304673817341489687455367169",
        "55464657044963196816950587289035428064568320970692304673817341489687455367168",
        "55464657044963196816950587289035428064568320970692304673817341489687463725056"
      ]
    },
    {
      "x": 50,
      "y": 46,
      "size": 1,
      "price": "2106000000000000000000",
      "reserved": "",
      "assetIds": [
        "55464657044963196816950587289035428064568320970692304673817341489687455367183",
        "55464657044963196816950587289035428064568320970692304673817341489687455367171",
        "55464657044963196816950587289035428064568320970692304673817341489687455367169",
        "55464657044963196816950587289035428064568320970692304673817341489687455367168",
        "55464657044963196816950587289035428064568320970692304673817341489687463725056"
      ]
    },
    {
      "x": 50,
      "y": 48,
      "size": 1,
      "price": "2106000000000000000000",
      "reserved": "",
      "assetIds": [
        "55464657044963196816950587289035428064568320970692304673817341489687455367180",
        "55464657044963196816950587289035428064568320970692304673817341489687455367171",
        "55464657044963196816950587289035428064568320970692304673817341489687455367169",
        "55464657044963196816950587289035428064568320970692304673817341489687455367168",
        "55464657044963196816950587289035428064568320970692304673817341489687463725056"
      ]
    },
    {
      "x": 54,
      "y": 48,
      "size": 1,
      "price": "2106000000000000000000",
      "reserved": "",
      "assetIds": [
        "55464657044963196816950587289035428064568320970692304673817341489687455367183",
        "55464657044963196816950587289035428064568320970692304673817341489687455367171",
        "55464657044963196816950587289035428064568320970692304673817341489687455367169",
        "55464657044963196816950587289035428064568320970692304673817341489687455367168",
        "55464657044963196816950587289035428064568320970692304673817341489687463725056"
      ]
    },
    {
      "x": 57,
      "y": 45,
      "size": 1,
      "price": "2106000000000000000000",
      "reserved": "",
      "assetIds": [
        "55464657044963196816950587289035428064568320970692304673817341489687455367182",
        "55464657044963196816950587289035428064568320970692304673817341489687455367171",
        "55464657044963196816950587289035428064568320970692304673817341489687455367169",
        "55464657044963196816950587289035428064568320970692304673817341489687455367168",
        "55464657044963196816950587289035428064568320970692304673817341489687463725056"
      ]
    },
    {
      "x": 58,
      "y": 44,
      "size": 1,
      "price": "2106000000000000000000",
      "reserved": "",
      "assetIds": [
        "55464657044963196816950587289035428064568320970692304673817341489687455367181",
        "55464657044963196816950587289035428064568320970692304673817341489687455367171",
        "55464657044963196816950587289035428064568320970692304673817341489687455367169",
        "55464657044963196816950587289035428064568320970692304673817341489687455367168",
        "55464657044963196816950587289035428064568320970692304673817341489687463725056"
      ]
    },
    {
      "x": 59,
      "y": 43,
      "size": 1,
      "price": "2106000000000000000000",
      "reserved": "",
      "assetIds": [
        "55464657044963196816950587289035428064568320970692304673817341489687455367175",
        "55464657044963196816950587289035428064568320970692304673817341489687455367170",
        "55464657044963196816950587289035428064568320970692304673817341489687455367169",
        "55464657044963196816950587289035428064568320970692304673817341489687455367168",
        "55464657044963196816950587289035428064568320970692304673817341489687463725056"
      ]
    },
    {
      "x": 59,
      "y": 42,
      "size": 1,
      "price": "2106000000000000000000",
      "reserved": "",
      "assetIds": [
        "55464657044963196816950587289035428064568320970692304673817341489687455367172",
        "55464657044963196816950587289035428064568320970692304673817341489687455367170",
        "55464657044963196816950587289035428064568320970692304673817341489687455367169",
        "55464657044963196816950587289035428064568320970692304673817341489687455367168",
        "55464657044963196816950587289035428064568320970692304673817341489687463725056"
      ]
    },
    {
      "x": 60,
      "y": 42,
      "size": 1,
      "price": "2106000000000000000000",
      "reserved": "",
      "assetIds": [
        "55464657044963196816950587289035428064568320970692304673817341489687455367182",
        "55464657044963196816950587289035428064568320970692304673817341489687455367171",
        "55464657044963196816950587289035428064568320970692304673817341489687455367169",
        "55464657044963196816950587289035428064568320970692304673817341489687455367168",
        "55464657044963196816950587289035428064568320970692304673817341489687463725056"
      ]
    },
    {
      "x": 60,
      "y": 41,
      "size": 1,
      "price": "2106000000000000000000",
      "reserved": "",
      "assetIds": [
        "55464657044963196816950587289035428064568320970692304673817341489687455367183",
        "55464657044963196816950587289035428064568320970692304673817341489687455367171",
        "55464657044963196816950587289035428064568320970692304673817341489687455367169",
        "55464657044963196816950587289035428064568320970692304673817341489687455367168",
        "55464657044963196816950587289035428064568320970692304673817341489687463725056"
      ]
    },
    {
      "x": 59,
      "y": 41,
      "size": 1,
      "price": "2106000000000000000000",
      "reserved": "",
      "assetIds": [
        "55464657044963196816950587289035428064568320970692304673817341489687455367172",
        "55464657044963196816950587289035428064568320970692304673817341489687455367170",
        "55464657044963196816950587289035428064568320970692304673817341489687455367169",
        "55464657044963196816950587289035428064568320970692304673817341489687455367168",
        "55464657044963196816950587289035428064568320970692304673817341489687463725056"
      ]
    },
    {
      "x": 60,
      "y": 40,
      "size": 1,
      "price": "2106000000000000000000",
      "reserved": "",
      "assetIds": [
        "55464657044963196816950587289035428064568320970692304673817341489687455367180",
        "55464657044963196816950587289035428064568320970692304673817341489687455367171",
        "55464657044963196816950587289035428064568320970692304673817341489687455367169",
        "55464657044963196816950587289035428064568320970692304673817341489687455367168",
        "55464657044963196816950587289035428064568320970692304673817341489687463725056"
      ]
    },
    {
      "x": 59,
      "y": 44,
      "size": 1,
      "price": "2106000000000000000000",
      "reserved": "",
      "assetIds": [
        "55464657044963196816950587289035428064568320970692304673817341489687455367183",
        "55464657044963196816950587289035428064568320970692304673817341489687455367171",
        "55464657044963196816950587289035428064568320970692304673817341489687455367169",
        "55464657044963196816950587289035428064568320970692304673817341489687455367168",
        "55464657044963196816950587289035428064568320970692304673817341489687463725056"
      ]
    },
    {
      "x": 58,
      "y": 45,
      "size": 1,
      "price": "2106000000000000000000",
      "reserved": "",
      "assetIds": [
        "55464657044963196816950587289035428064568320970692304673817341489687455367183",
        "55464657044963196816950587289035428064568320970692304673817341489687455367171",
        "55464657044963196816950587289035428064568320970692304673817341489687455367169",
        "55464657044963196816950587289035428064568320970692304673817341489687455367168",
        "55464657044963196816950587289035428064568320970692304673817341489687463725056"
      ]
    },
    {
      "x": 57,
      "y": 44,
      "size": 1,
      "price": "2106000000000000000000",
      "reserved": "",
      "assetIds": [
        "55464657044963196816950587289035428064568320970692304673817341489687455367182",
        "55464657044963196816950587289035428064568320970692304673817341489687455367171",
        "55464657044963196816950587289035428064568320970692304673817341489687455367169",
        "55464657044963196816950587289035428064568320970692304673817341489687455367168",
        "55464657044963196816950587289035428064568320970692304673817341489687463725056"
      ]
    },
    {
      "x": 58,
      "y": 43,
      "size": 1,
      "price": "2106000000000000000000",
      "reserved": "",
      "assetIds": [
        "55464657044963196816950587289035428064568320970692304673817341489687455367178",
        "55464657044963196816950587289035428064568320970692304673817341489687455367171",
        "55464657044963196816950587289035428064568320970692304673817341489687455367169",
        "55464657044963196816950587289035428064568320970692304673817341489687455367168",
        "55464657044963196816950587289035428064568320970692304673817341489687463725056"
      ]
    },
    {
      "x": 60,
      "y": 43,
      "size": 1,
      "price": "2106000000000000000000",
      "reserved": "",
      "assetIds": [
        "55464657044963196816950587289035428064568320970692304673817341489687455367181",
        "55464657044963196816950587289035428064568320970692304673817341489687455367171",
        "55464657044963196816950587289035428064568320970692304673817341489687455367169",
        "55464657044963196816950587289035428064568320970692304673817341489687455367168",
        "55464657044963196816950587289035428064568320970692304673817341489687463725056"
      ]
    },
    {
      "x": 60,
      "y": 44,
      "size": 1,
      "price": "2106000000000000000000",
      "reserved": "",
      "assetIds": [
        "55464657044963196816950587289035428064568320970692304673817341489687455367178",
        "55464657044963196816950587289035428064568320970692304673817341489687455367171",
        "55464657044963196816950587289035428064568320970692304673817341489687455367169",
        "55464657044963196816950587289035428064568320970692304673817341489687455367168",
        "55464657044963196816950587289035428064568320970692304673817341489687463725056"
      ]
    },
    {
      "x": 60,
      "y": 45,
      "size": 1,
      "price": "2106000000000000000000",
      "reserved": "",
      "assetIds": [
        "55464657044963196816950587289035428064568320970692304673817341489687455367174",
        "55464657044963196816950587289035428064568320970692304673817341489687455367170",
        "55464657044963196816950587289035428064568320970692304673817341489687455367169",
        "55464657044963196816950587289035428064568320970692304673817341489687455367168",
        "55464657044963196816950587289035428064568320970692304673817341489687463725056"
      ]
    },
    {
      "x": 61,
      "y": 45,
      "size": 1,
      "price": "2106000000000000000000",
      "reserved": "",
      "assetIds": [
        "55464657044963196816950587289035428064568320970692304673817341489687455367179",
        "55464657044963196816950587289035428064568320970692304673817341489687455367171",
        "55464657044963196816950587289035428064568320970692304673817341489687455367169",
        "55464657044963196816950587289035428064568320970692304673817341489687455367168",
        "55464657044963196816950587289035428064568320970692304673817341489687463725056"
      ]
    },
    {
      "x": 61,
      "y": 46,
      "size": 1,
      "price": "2106000000000000000000",
      "reserved": "",
      "assetIds": [
        "55464657044963196816950587289035428064568320970692304673817341489687455367183",
        "55464657044963196816950587289035428064568320970692304673817341489687455367171",
        "55464657044963196816950587289035428064568320970692304673817341489687455367169",
        "55464657044963196816950587289035428064568320970692304673817341489687455367168",
        "55464657044963196816950587289035428064568320970692304673817341489687463725056"
      ]
    },
    {
      "x": 61,
      "y": 47,
      "size": 1,
      "price": "2106000000000000000000",
      "reserved": "",
      "assetIds": [
        "55464657044963196816950587289035428064568320970692304673817341489687455367174",
        "55464657044963196816950587289035428064568320970692304673817341489687455367170",
        "55464657044963196816950587289035428064568320970692304673817341489687455367169",
        "55464657044963196816950587289035428064568320970692304673817341489687455367168",
        "55464657044963196816950587289035428064568320970692304673817341489687463725056"
      ]
    },
    {
      "x": 61,
      "y": 48,
      "size": 1,
      "price": "2106000000000000000000",
      "reserved": "",
      "assetIds": [
        "55464657044963196816950587289035428064568320970692304673817341489687455367177",
        "55464657044963196816950587289035428064568320970692304673817341489687455367170",
        "55464657044963196816950587289035428064568320970692304673817341489687455367169",
        "55464657044963196816950587289035428064568320970692304673817341489687455367168",
        "55464657044963196816950587289035428064568320970692304673817341489687463725056"
      ]
    },
    {
      "x": 61,
      "y": 49,
      "size": 1,
      "price": "2106000000000000000000",
      "reserved": "",
      "assetIds": [
        "55464657044963196816950587289035428064568320970692304673817341489687455367182",
        "55464657044963196816950587289035428064568320970692304673817341489687455367171",
        "55464657044963196816950587289035428064568320970692304673817341489687455367169",
        "55464657044963196816950587289035428064568320970692304673817341489687455367168",
        "55464657044963196816950587289035428064568320970692304673817341489687463725056"
      ]
    },
    {
      "x": 60,
      "y": 49,
      "size": 1,
      "price": "2106000000000000000000",
      "reserved": "",
      "assetIds": [
        "55464657044963196816950587289035428064568320970692304673817341489687455367172",
        "55464657044963196816950587289035428064568320970692304673817341489687455367170",
        "55464657044963196816950587289035428064568320970692304673817341489687455367169",
        "55464657044963196816950587289035428064568320970692304673817341489687455367168",
        "55464657044963196816950587289035428064568320970692304673817341489687463725056"
      ]
    },
    {
      "x": 60,
      "y": 48,
      "size": 1,
      "price": "2106000000000000000000",
      "reserved": "",
      "assetIds": [
        "55464657044963196816950587289035428064568320970692304673817341489687455367179",
        "55464657044963196816950587289035428064568320970692304673817341489687455367171",
        "55464657044963196816950587289035428064568320970692304673817341489687455367169",
        "55464657044963196816950587289035428064568320970692304673817341489687455367168",
        "55464657044963196816950587289035428064568320970692304673817341489687463725056"
      ]
    },
    {
      "x": 60,
      "y": 47,
      "size": 1,
      "price": "2106000000000000000000",
      "reserved": "",
      "assetIds": [
        "55464657044963196816950587289035428064568320970692304673817341489687455367182",
        "55464657044963196816950587289035428064568320970692304673817341489687455367171",
        "55464657044963196816950587289035428064568320970692304673817341489687455367169",
        "55464657044963196816950587289035428064568320970692304673817341489687455367168",
        "55464657044963196816950587289035428064568320970692304673817341489687463725056"
      ]
    },
    {
      "x": 60,
      "y": 46,
      "size": 1,
      "price": "2106000000000000000000",
      "reserved": "",
      "assetIds": [
        "55464657044963196816950587289035428064568320970692304673817341489687455367180",
        "55464657044963196816950587289035428064568320970692304673817341489687455367171",
        "55464657044963196816950587289035428064568320970692304673817341489687455367169",
        "55464657044963196816950587289035428064568320970692304673817341489687455367168",
        "55464657044963196816950587289035428064568320970692304673817341489687463725056"
      ]
    },
    {
      "x": 59,
      "y": 45,
      "size": 1,
      "price": "2106000000000000000000",
      "reserved": "",
      "assetIds": [
        "55464657044963196816950587289035428064568320970692304673817341489687455367179",
        "55464657044963196816950587289035428064568320970692304673817341489687455367171",
        "55464657044963196816950587289035428064568320970692304673817341489687455367169",
        "55464657044963196816950587289035428064568320970692304673817341489687455367168",
        "55464657044963196816950587289035428064568320970692304673817341489687463725056"
      ]
    },
    {
      "x": 59,
      "y": 46,
      "size": 1,
      "price": "2106000000000000000000",
      "reserved": "",
      "assetIds": [
        "55464657044963196816950587289035428064568320970692304673817341489687455367183",
        "55464657044963196816950587289035428064568320970692304673817341489687455367171",
        "55464657044963196816950587289035428064568320970692304673817341489687455367169",
        "55464657044963196816950587289035428064568320970692304673817341489687455367168",
        "55464657044963196816950587289035428064568320970692304673817341489687463725056"
      ]
    },
    {
      "x": 58,
      "y": 51,
      "size": 1,
      "price": "2106000000000000000000",
      "reserved": "",
      "assetIds": [
        "55464657044963196816950587289035428064568320970692304673817341489687455367180",
        "55464657044963196816950587289035428064568320970692304673817341489687455367171",
        "55464657044963196816950587289035428064568320970692304673817341489687455367169",
        "55464657044963196816950587289035428064568320970692304673817341489687455367168",
        "55464657044963196816950587289035428064568320970692304673817341489687463725056"
      ]
    },
    {
      "x": 58,
      "y": 52,
      "size": 1,
      "price": "2106000000000000000000",
      "reserved": "",
      "assetIds": [
        "55464657044963196816950587289035428064568320970692304673817341489687455367181",
        "55464657044963196816950587289035428064568320970692304673817341489687455367171",
        "55464657044963196816950587289035428064568320970692304673817341489687455367169",
        "55464657044963196816950587289035428064568320970692304673817341489687455367168",
        "55464657044963196816950587289035428064568320970692304673817341489687463725056"
      ]
    },
    {
      "x": 58,
      "y": 50,
      "size": 1,
      "price": "2106000000000000000000",
      "reserved": "",
      "assetIds": [
        "55464657044963196816950587289035428064568320970692304673817341489687455367180",
        "55464657044963196816950587289035428064568320970692304673817341489687455367171",
        "55464657044963196816950587289035428064568320970692304673817341489687455367169",
        "55464657044963196816950587289035428064568320970692304673817341489687455367168",
        "55464657044963196816950587289035428064568320970692304673817341489687463725056"
      ]
    },
    {
      "x": 57,
      "y": 43,
      "size": 1,
      "price": "2106000000000000000000",
      "reserved": "",
      "assetIds": [
        "55464657044963196816950587289035428064568320970692304673817341489687455367173",
        "55464657044963196816950587289035428064568320970692304673817341489687455367170",
        "55464657044963196816950587289035428064568320970692304673817341489687455367169",
        "55464657044963196816950587289035428064568320970692304673817341489687455367168",
        "55464657044963196816950587289035428064568320970692304673817341489687463725056"
      ]
    },
    {
      "x": 58,
      "y": 47,
      "size": 1,
      "price": "2106000000000000000000",
      "reserved": "",
      "assetIds": [
        "55464657044963196816950587289035428064568320970692304673817341489687455367180",
        "55464657044963196816950587289035428064568320970692304673817341489687455367171",
        "55464657044963196816950587289035428064568320970692304673817341489687455367169",
        "55464657044963196816950587289035428064568320970692304673817341489687455367168",
        "55464657044963196816950587289035428064568320970692304673817341489687463725056"
      ]
    },
    {
      "x": 58,
      "y": 48,
      "size": 1,
      "price": "2106000000000000000000",
      "reserved": "",
      "assetIds": [
        "55464657044963196816950587289035428064568320970692304673817341489687455367173",
        "55464657044963196816950587289035428064568320970692304673817341489687455367170",
        "55464657044963196816950587289035428064568320970692304673817341489687455367169",
        "55464657044963196816950587289035428064568320970692304673817341489687455367168",
        "55464657044963196816950587289035428064568320970692304673817341489687463725056"
      ]
    },
    {
      "x": 58,
      "y": 49,
      "size": 1,
      "price": "2106000000000000000000",
      "reserved": "",
      "assetIds": [
        "55464657044963196816950587289035428064568320970692304673817341489687455367181",
        "55464657044963196816950587289035428064568320970692304673817341489687455367171",
        "55464657044963196816950587289035428064568320970692304673817341489687455367169",
        "55464657044963196816950587289035428064568320970692304673817341489687455367168",
        "55464657044963196816950587289035428064568320970692304673817341489687463725056"
      ]
    },
    {
      "x": 58,
      "y": 46,
      "size": 1,
      "price": "2106000000000000000000",
      "reserved": "",
      "assetIds": [
        "55464657044963196816950587289035428064568320970692304673817341489687455367181",
        "55464657044963196816950587289035428064568320970692304673817341489687455367171",
        "55464657044963196816950587289035428064568320970692304673817341489687455367169",
        "55464657044963196816950587289035428064568320970692304673817341489687455367168",
        "55464657044963196816950587289035428064568320970692304673817341489687463725056"
      ]
    },
    {
      "x": 61,
      "y": 44,
      "size": 1,
      "price": "2106000000000000000000",
      "reserved": "",
      "assetIds": [
        "55464657044963196816950587289035428064568320970692304673817341489687455367182",
        "55464657044963196816950587289035428064568320970692304673817341489687455367171",
        "55464657044963196816950587289035428064568320970692304673817341489687455367169",
        "55464657044963196816950587289035428064568320970692304673817341489687455367168",
        "55464657044963196816950587289035428064568320970692304673817341489687463725056"
      ]
    },
    {
      "x": 62,
      "y": 43,
      "size": 1,
      "price": "2106000000000000000000",
      "reserved": "",
      "assetIds": [
        "55464657044963196816950587289035428064568320970692304673817341489687455367172",
        "55464657044963196816950587289035428064568320970692304673817341489687455367170",
        "55464657044963196816950587289035428064568320970692304673817341489687455367169",
        "55464657044963196816950587289035428064568320970692304673817341489687455367168",
        "55464657044963196816950587289035428064568320970692304673817341489687463725056"
      ]
    },
    {
      "x": 63,
      "y": 43,
      "size": 1,
      "price": "2106000000000000000000",
      "reserved": "",
      "assetIds": [
        "55464657044963196816950587289035428064568320970692304673817341489687455367174",
        "55464657044963196816950587289035428064568320970692304673817341489687455367170",
        "55464657044963196816950587289035428064568320970692304673817341489687455367169",
        "55464657044963196816950587289035428064568320970692304673817341489687455367168",
        "55464657044963196816950587289035428064568320970692304673817341489687463725056"
      ]
    },
    {
      "x": 64,
      "y": 43,
      "size": 1,
      "price": "2106000000000000000000",
      "reserved": "",
      "assetIds": [
        "55464657044963196816950587289035428064568320970692304673817341489687455367173",
        "55464657044963196816950587289035428064568320970692304673817341489687455367170",
        "55464657044963196816950587289035428064568320970692304673817341489687455367169",
        "55464657044963196816950587289035428064568320970692304673817341489687455367168",
        "55464657044963196816950587289035428064568320970692304673817341489687463725056"
      ]
    },
    {
      "x": 65,
      "y": 43,
      "size": 1,
      "price": "2106000000000000000000",
      "reserved": "",
      "assetIds": [
        "55464657044963196816950587289035428064568320970692304673817341489687455367180",
        "55464657044963196816950587289035428064568320970692304673817341489687455367171",
        "55464657044963196816950587289035428064568320970692304673817341489687455367169",
        "55464657044963196816950587289035428064568320970692304673817341489687455367168",
        "55464657044963196816950587289035428064568320970692304673817341489687463725056"
      ]
    },
    {
      "x": 67,
      "y": 43,
      "size": 1,
      "price": "2106000000000000000000",
      "reserved": "",
      "assetIds": [
        "55464657044963196816950587289035428064568320970692304673817341489687455367180",
        "55464657044963196816950587289035428064568320970692304673817341489687455367171",
        "55464657044963196816950587289035428064568320970692304673817341489687455367169",
        "55464657044963196816950587289035428064568320970692304673817341489687455367168",
        "55464657044963196816950587289035428064568320970692304673817341489687463725056"
      ]
    },
    {
      "x": 67,
      "y": 42,
      "size": 1,
      "price": "2106000000000000000000",
      "reserved": "",
      "assetIds": [
        "55464657044963196816950587289035428064568320970692304673817341489687455367179",
        "55464657044963196816950587289035428064568320970692304673817341489687455367171",
        "55464657044963196816950587289035428064568320970692304673817341489687455367169",
        "55464657044963196816950587289035428064568320970692304673817341489687455367168",
        "55464657044963196816950587289035428064568320970692304673817341489687463725056"
      ]
    },
    {
      "x": 67,
      "y": 41,
      "size": 1,
      "price": "2106000000000000000000",
      "reserved": "",
      "assetIds": [
        "55464657044963196816950587289035428064568320970692304673817341489687455367173",
        "55464657044963196816950587289035428064568320970692304673817341489687455367170",
        "55464657044963196816950587289035428064568320970692304673817341489687455367169",
        "55464657044963196816950587289035428064568320970692304673817341489687455367168",
        "55464657044963196816950587289035428064568320970692304673817341489687463725056"
      ]
    },
    {
      "x": 67,
      "y": 40,
      "size": 1,
      "price": "2106000000000000000000",
      "reserved": "",
      "assetIds": [
        "55464657044963196816950587289035428064568320970692304673817341489687455367181",
        "55464657044963196816950587289035428064568320970692304673817341489687455367171",
        "55464657044963196816950587289035428064568320970692304673817341489687455367169",
        "55464657044963196816950587289035428064568320970692304673817341489687455367168",
        "55464657044963196816950587289035428064568320970692304673817341489687463725056"
      ]
    },
    {
      "x": 66,
      "y": 40,
      "size": 1,
      "price": "2106000000000000000000",
      "reserved": "",
      "assetIds": [
        "55464657044963196816950587289035428064568320970692304673817341489687455367174",
        "55464657044963196816950587289035428064568320970692304673817341489687455367170",
        "55464657044963196816950587289035428064568320970692304673817341489687455367169",
        "55464657044963196816950587289035428064568320970692304673817341489687455367168",
        "55464657044963196816950587289035428064568320970692304673817341489687463725056"
      ]
    },
    {
      "x": 66,
      "y": 39,
      "size": 1,
      "price": "2106000000000000000000",
      "reserved": "",
      "assetIds": [
        "55464657044963196816950587289035428064568320970692304673817341489687455367174",
        "55464657044963196816950587289035428064568320970692304673817341489687455367170",
        "55464657044963196816950587289035428064568320970692304673817341489687455367169",
        "55464657044963196816950587289035428064568320970692304673817341489687455367168",
        "55464657044963196816950587289035428064568320970692304673817341489687463725056"
      ]
    },
    {
      "x": 65,
      "y": 39,
      "size": 1,
      "price": "2106000000000000000000",
      "reserved": "",
      "assetIds": [
        "55464657044963196816950587289035428064568320970692304673817341489687455367176",
        "55464657044963196816950587289035428064568320970692304673817341489687455367170",
        "55464657044963196816950587289035428064568320970692304673817341489687455367169",
        "55464657044963196816950587289035428064568320970692304673817341489687455367168",
        "55464657044963196816950587289035428064568320970692304673817341489687463725056"
      ]
    },
    {
      "x": 64,
      "y": 38,
      "size": 1,
      "price": "2106000000000000000000",
      "reserved": "",
      "assetIds": [
        "55464657044963196816950587289035428064568320970692304673817341489687455367183",
        "55464657044963196816950587289035428064568320970692304673817341489687455367171",
        "55464657044963196816950587289035428064568320970692304673817341489687455367169",
        "55464657044963196816950587289035428064568320970692304673817341489687455367168",
        "55464657044963196816950587289035428064568320970692304673817341489687463725056"
      ]
    },
    {
      "x": 64,
      "y": 37,
      "size": 1,
      "price": "2106000000000000000000",
      "reserved": "",
      "assetIds": [
        "55464657044963196816950587289035428064568320970692304673817341489687455367172",
        "55464657044963196816950587289035428064568320970692304673817341489687455367170",
        "55464657044963196816950587289035428064568320970692304673817341489687455367169",
        "55464657044963196816950587289035428064568320970692304673817341489687455367168",
        "55464657044963196816950587289035428064568320970692304673817341489687463725056"
      ]
    },
    {
      "x": 64,
      "y": 36,
      "size": 1,
      "price": "2106000000000000000000",
      "reserved": "",
      "assetIds": [
        "55464657044963196816950587289035428064568320970692304673817341489687455367172",
        "55464657044963196816950587289035428064568320970692304673817341489687455367170",
        "55464657044963196816950587289035428064568320970692304673817341489687455367169",
        "55464657044963196816950587289035428064568320970692304673817341489687455367168",
        "55464657044963196816950587289035428064568320970692304673817341489687463725056"
      ]
    },
    {
      "x": 65,
      "y": 36,
      "size": 1,
      "price": "2106000000000000000000",
      "reserved": "",
      "assetIds": [
        "55464657044963196816950587289035428064568320970692304673817341489687455367176",
        "55464657044963196816950587289035428064568320970692304673817341489687455367170",
        "55464657044963196816950587289035428064568320970692304673817341489687455367169",
        "55464657044963196816950587289035428064568320970692304673817341489687455367168",
        "55464657044963196816950587289035428064568320970692304673817341489687463725056"
      ]
    },
    {
      "x": 66,
      "y": 35,
      "size": 1,
      "price": "2106000000000000000000",
      "reserved": "",
      "assetIds": [
        "55464657044963196816950587289035428064568320970692304673817341489687455367179",
        "55464657044963196816950587289035428064568320970692304673817341489687455367171",
        "55464657044963196816950587289035428064568320970692304673817341489687455367169",
        "55464657044963196816950587289035428064568320970692304673817341489687455367168",
        "55464657044963196816950587289035428064568320970692304673817341489687463725056"
      ]
    },
    {
      "x": 67,
      "y": 35,
      "size": 1,
      "price": "2106000000000000000000",
      "reserved": "",
      "assetIds": [
        "55464657044963196816950587289035428064568320970692304673817341489687455367178",
        "55464657044963196816950587289035428064568320970692304673817341489687455367171",
        "55464657044963196816950587289035428064568320970692304673817341489687455367169",
        "55464657044963196816950587289035428064568320970692304673817341489687455367168",
        "55464657044963196816950587289035428064568320970692304673817341489687463725056"
      ]
    },
    {
      "x": 67,
      "y": 36,
      "size": 1,
      "price": "2106000000000000000000",
      "reserved": "",
      "assetIds": [
        "55464657044963196816950587289035428064568320970692304673817341489687455367179",
        "55464657044963196816950587289035428064568320970692304673817341489687455367171",
        "55464657044963196816950587289035428064568320970692304673817341489687455367169",
        "55464657044963196816950587289035428064568320970692304673817341489687455367168",
        "55464657044963196816950587289035428064568320970692304673817341489687463725056"
      ]
    },
    {
      "x": 66,
      "y": 36,
      "size": 1,
      "price": "2106000000000000000000",
      "reserved": "",
      "assetIds": [
        "55464657044963196816950587289035428064568320970692304673817341489687455367178",
        "55464657044963196816950587289035428064568320970692304673817341489687455367171",
        "55464657044963196816950587289035428064568320970692304673817341489687455367169",
        "55464657044963196816950587289035428064568320970692304673817341489687455367168",
        "55464657044963196816950587289035428064568320970692304673817341489687463725056"
      ]
    },
    {
      "x": 65,
      "y": 37,
      "size": 1,
      "price": "2106000000000000000000",
      "reserved": "",
      "assetIds": [
        "55464657044963196816950587289035428064568320970692304673817341489687455367172",
        "55464657044963196816950587289035428064568320970692304673817341489687455367170",
        "55464657044963196816950587289035428064568320970692304673817341489687455367169",
        "55464657044963196816950587289035428064568320970692304673817341489687455367168",
        "55464657044963196816950587289035428064568320970692304673817341489687463725056"
      ]
    },
    {
      "x": 66,
      "y": 38,
      "size": 1,
      "price": "2106000000000000000000",
      "reserved": "",
      "assetIds": [
        "55464657044963196816950587289035428064568320970692304673817341489687455367180",
        "55464657044963196816950587289035428064568320970692304673817341489687455367171",
        "55464657044963196816950587289035428064568320970692304673817341489687455367169",
        "55464657044963196816950587289035428064568320970692304673817341489687455367168",
        "55464657044963196816950587289035428064568320970692304673817341489687463725056"
      ]
    },
    {
      "x": 66,
      "y": 37,
      "size": 1,
      "price": "2106000000000000000000",
      "reserved": "",
      "assetIds": [
        "55464657044963196816950587289035428064568320970692304673817341489687455367177",
        "55464657044963196816950587289035428064568320970692304673817341489687455367170",
        "55464657044963196816950587289035428064568320970692304673817341489687455367169",
        "55464657044963196816950587289035428064568320970692304673817341489687455367168",
        "55464657044963196816950587289035428064568320970692304673817341489687463725056"
      ]
    },
    {
      "x": 65,
      "y": 38,
      "size": 1,
      "price": "2106000000000000000000",
      "reserved": "",
      "assetIds": [
        "55464657044963196816950587289035428064568320970692304673817341489687455367177",
        "55464657044963196816950587289035428064568320970692304673817341489687455367170",
        "55464657044963196816950587289035428064568320970692304673817341489687455367169",
        "55464657044963196816950587289035428064568320970692304673817341489687455367168",
        "55464657044963196816950587289035428064568320970692304673817341489687463725056"
      ]
    },
    {
      "x": 63,
      "y": 38,
      "size": 1,
      "price": "2106000000000000000000",
      "reserved": "",
      "assetIds": [
        "55464657044963196816950587289035428064568320970692304673817341489687455367178",
        "55464657044963196816950587289035428064568320970692304673817341489687455367171",
        "55464657044963196816950587289035428064568320970692304673817341489687455367169",
        "55464657044963196816950587289035428064568320970692304673817341489687455367168",
        "55464657044963196816950587289035428064568320970692304673817341489687463725056"
      ]
    },
    {
      "x": 62,
      "y": 38,
      "size": 1,
      "price": "2106000000000000000000",
      "reserved": "",
      "assetIds": [
        "55464657044963196816950587289035428064568320970692304673817341489687455367179",
        "55464657044963196816950587289035428064568320970692304673817341489687455367171",
        "55464657044963196816950587289035428064568320970692304673817341489687455367169",
        "55464657044963196816950587289035428064568320970692304673817341489687455367168",
        "55464657044963196816950587289035428064568320970692304673817341489687463725056"
      ]
    },
    {
      "x": 63,
      "y": 37,
      "size": 1,
      "price": "2106000000000000000000",
      "reserved": "",
      "assetIds": [
        "55464657044963196816950587289035428064568320970692304673817341489687455367180",
        "55464657044963196816950587289035428064568320970692304673817341489687455367171",
        "55464657044963196816950587289035428064568320970692304673817341489687455367169",
        "55464657044963196816950587289035428064568320970692304673817341489687455367168",
        "55464657044963196816950587289035428064568320970692304673817341489687463725056"
      ]
    },
    {
      "x": 63,
      "y": 36,
      "size": 1,
      "price": "2106000000000000000000",
      "reserved": "",
      "assetIds": [
        "55464657044963196816950587289035428064568320970692304673817341489687455367178",
        "55464657044963196816950587289035428064568320970692304673817341489687455367171",
        "55464657044963196816950587289035428064568320970692304673817341489687455367169",
        "55464657044963196816950587289035428064568320970692304673817341489687455367168",
        "55464657044963196816950587289035428064568320970692304673817341489687463725056"
      ]
    },
    {
      "x": 63,
      "y": 35,
      "size": 1,
      "price": "2106000000000000000000",
      "reserved": "",
      "assetIds": [
        "55464657044963196816950587289035428064568320970692304673817341489687455367176",
        "55464657044963196816950587289035428064568320970692304673817341489687455367170",
        "55464657044963196816950587289035428064568320970692304673817341489687455367169",
        "55464657044963196816950587289035428064568320970692304673817341489687455367168",
        "55464657044963196816950587289035428064568320970692304673817341489687463725056"
      ]
    },
    {
      "x": 64,
      "y": 35,
      "size": 1,
      "price": "2106000000000000000000",
      "reserved": "",
      "assetIds": [
        "55464657044963196816950587289035428064568320970692304673817341489687455367180",
        "55464657044963196816950587289035428064568320970692304673817341489687455367171",
        "55464657044963196816950587289035428064568320970692304673817341489687455367169",
        "55464657044963196816950587289035428064568320970692304673817341489687455367168",
        "55464657044963196816950587289035428064568320970692304673817341489687463725056"
      ]
    },
    {
      "x": 65,
      "y": 35,
      "size": 1,
      "price": "2106000000000000000000",
      "reserved": "",
      "assetIds": [
        "55464657044963196816950587289035428064568320970692304673817341489687455367175",
        "55464657044963196816950587289035428064568320970692304673817341489687455367170",
        "55464657044963196816950587289035428064568320970692304673817341489687455367169",
        "55464657044963196816950587289035428064568320970692304673817341489687455367168",
        "55464657044963196816950587289035428064568320970692304673817341489687463725056"
      ]
    },
    {
      "x": 62,
      "y": 35,
      "size": 1,
      "price": "2106000000000000000000",
      "reserved": "",
      "assetIds": [
        "55464657044963196816950587289035428064568320970692304673817341489687455367177",
        "55464657044963196816950587289035428064568320970692304673817341489687455367170",
        "55464657044963196816950587289035428064568320970692304673817341489687455367169",
        "55464657044963196816950587289035428064568320970692304673817341489687455367168",
        "55464657044963196816950587289035428064568320970692304673817341489687463725056"
      ]
    },
    {
      "x": 62,
      "y": 36,
      "size": 1,
      "price": "2106000000000000000000",
      "reserved": "",
      "assetIds": [
        "55464657044963196816950587289035428064568320970692304673817341489687455367182",
        "55464657044963196816950587289035428064568320970692304673817341489687455367171",
        "55464657044963196816950587289035428064568320970692304673817341489687455367169",
        "55464657044963196816950587289035428064568320970692304673817341489687455367168",
        "55464657044963196816950587289035428064568320970692304673817341489687463725056"
      ]
    },
    {
      "x": 62,
      "y": 39,
      "size": 1,
      "price": "2106000000000000000000",
      "reserved": "",
      "assetIds": [
        "55464657044963196816950587289035428064568320970692304673817341489687455367181",
        "55464657044963196816950587289035428064568320970692304673817341489687455367171",
        "55464657044963196816950587289035428064568320970692304673817341489687455367169",
        "55464657044963196816950587289035428064568320970692304673817341489687455367168",
        "55464657044963196816950587289035428064568320970692304673817341489687463725056"
      ]
    },
    {
      "x": 62,
      "y": 40,
      "size": 1,
      "price": "2106000000000000000000",
      "reserved": "",
      "assetIds": [
        "55464657044963196816950587289035428064568320970692304673817341489687455367181",
        "55464657044963196816950587289035428064568320970692304673817341489687455367171",
        "55464657044963196816950587289035428064568320970692304673817341489687455367169",
        "55464657044963196816950587289035428064568320970692304673817341489687455367168",
        "55464657044963196816950587289035428064568320970692304673817341489687463725056"
      ]
    },
    {
      "x": 62,
      "y": 41,
      "size": 1,
      "price": "2106000000000000000000",
      "reserved": "",
      "assetIds": [
        "55464657044963196816950587289035428064568320970692304673817341489687455367174",
        "55464657044963196816950587289035428064568320970692304673817341489687455367170",
        "55464657044963196816950587289035428064568320970692304673817341489687455367169",
        "55464657044963196816950587289035428064568320970692304673817341489687455367168",
        "55464657044963196816950587289035428064568320970692304673817341489687463725056"
      ]
    },
    {
      "x": 62,
      "y": 42,
      "size": 1,
      "price": "2106000000000000000000",
      "reserved": "",
      "assetIds": [
        "55464657044963196816950587289035428064568320970692304673817341489687455367181",
        "55464657044963196816950587289035428064568320970692304673817341489687455367171",
        "55464657044963196816950587289035428064568320970692304673817341489687455367169",
        "55464657044963196816950587289035428064568320970692304673817341489687455367168",
        "55464657044963196816950587289035428064568320970692304673817341489687463725056"
      ]
    },
    {
      "x": 63,
      "y": 42,
      "size": 1,
      "price": "2106000000000000000000",
      "reserved": "",
      "assetIds": [
        "55464657044963196816950587289035428064568320970692304673817341489687455367183",
        "55464657044963196816950587289035428064568320970692304673817341489687455367171",
        "55464657044963196816950587289035428064568320970692304673817341489687455367169",
        "55464657044963196816950587289035428064568320970692304673817341489687455367168",
        "55464657044963196816950587289035428064568320970692304673817341489687463725056"
      ]
    },
    {
      "x": 64,
      "y": 42,
      "size": 1,
      "price": "2106000000000000000000",
      "reserved": "",
      "assetIds": [
        "55464657044963196816950587289035428064568320970692304673817341489687455367182",
        "55464657044963196816950587289035428064568320970692304673817341489687455367171",
        "55464657044963196816950587289035428064568320970692304673817341489687455367169",
        "55464657044963196816950587289035428064568320970692304673817341489687455367168",
        "55464657044963196816950587289035428064568320970692304673817341489687463725056"
      ]
    },
    {
      "x": 65,
      "y": 42,
      "size": 1,
      "price": "2106000000000000000000",
      "reserved": "",
      "assetIds": [
        "55464657044963196816950587289035428064568320970692304673817341489687455367181",
        "55464657044963196816950587289035428064568320970692304673817341489687455367171",
        "55464657044963196816950587289035428064568320970692304673817341489687455367169",
        "55464657044963196816950587289035428064568320970692304673817341489687455367168",
        "55464657044963196816950587289035428064568320970692304673817341489687463725056"
      ]
    },
    {
      "x": 66,
      "y": 42,
      "size": 1,
      "price": "2106000000000000000000",
      "reserved": "",
      "assetIds": [
        "55464657044963196816950587289035428064568320970692304673817341489687455367183",
        "55464657044963196816950587289035428064568320970692304673817341489687455367171",
        "55464657044963196816950587289035428064568320970692304673817341489687455367169",
        "55464657044963196816950587289035428064568320970692304673817341489687455367168",
        "55464657044963196816950587289035428064568320970692304673817341489687463725056"
      ]
    },
    {
      "x": 66,
      "y": 41,
      "size": 1,
      "price": "2106000000000000000000",
      "reserved": "",
      "assetIds": [
        "55464657044963196816950587289035428064568320970692304673817341489687455367176",
        "55464657044963196816950587289035428064568320970692304673817341489687455367170",
        "55464657044963196816950587289035428064568320970692304673817341489687455367169",
        "55464657044963196816950587289035428064568320970692304673817341489687455367168",
        "55464657044963196816950587289035428064568320970692304673817341489687463725056"
      ]
    },
    {
      "x": 65,
      "y": 41,
      "size": 1,
      "price": "2106000000000000000000",
      "reserved": "",
      "assetIds": [
        "55464657044963196816950587289035428064568320970692304673817341489687455367182",
        "55464657044963196816950587289035428064568320970692304673817341489687455367171",
        "55464657044963196816950587289035428064568320970692304673817341489687455367169",
        "55464657044963196816950587289035428064568320970692304673817341489687455367168",
        "55464657044963196816950587289035428064568320970692304673817341489687463725056"
      ]
    },
    {
      "x": 64,
      "y": 41,
      "size": 1,
      "price": "2106000000000000000000",
      "reserved": "",
      "assetIds": [
        "55464657044963196816950587289035428064568320970692304673817341489687455367180",
        "55464657044963196816950587289035428064568320970692304673817341489687455367171",
        "55464657044963196816950587289035428064568320970692304673817341489687455367169",
        "55464657044963196816950587289035428064568320970692304673817341489687455367168",
        "55464657044963196816950587289035428064568320970692304673817341489687463725056"
      ]
    },
    {
      "x": 63,
      "y": 41,
      "size": 1,
      "price": "2106000000000000000000",
      "reserved": "",
      "assetIds": [
        "55464657044963196816950587289035428064568320970692304673817341489687455367182",
        "55464657044963196816950587289035428064568320970692304673817341489687455367171",
        "55464657044963196816950587289035428064568320970692304673817341489687455367169",
        "55464657044963196816950587289035428064568320970692304673817341489687455367168",
        "55464657044963196816950587289035428064568320970692304673817341489687463725056"
      ]
    },
    {
      "x": 64,
      "y": 40,
      "size": 1,
      "price": "2106000000000000000000",
      "reserved": "",
      "assetIds": [
        "55464657044963196816950587289035428064568320970692304673817341489687455367179",
        "55464657044963196816950587289035428064568320970692304673817341489687455367171",
        "55464657044963196816950587289035428064568320970692304673817341489687455367169",
        "55464657044963196816950587289035428064568320970692304673817341489687455367168",
        "55464657044963196816950587289035428064568320970692304673817341489687463725056"
      ]
    },
    {
      "x": 65,
      "y": 40,
      "size": 1,
      "price": "2106000000000000000000",
      "reserved": "",
      "assetIds": [
        "55464657044963196816950587289035428064568320970692304673817341489687455367179",
        "55464657044963196816950587289035428064568320970692304673817341489687455367171",
        "55464657044963196816950587289035428064568320970692304673817341489687455367169",
        "55464657044963196816950587289035428064568320970692304673817341489687455367168",
        "55464657044963196816950587289035428064568320970692304673817341489687463725056"
      ]
    },
    {
      "x": 63,
      "y": 40,
      "size": 1,
      "price": "2106000000000000000000",
      "reserved": "",
      "assetIds": [
        "55464657044963196816950587289035428064568320970692304673817341489687455367175",
        "55464657044963196816950587289035428064568320970692304673817341489687455367170",
        "55464657044963196816950587289035428064568320970692304673817341489687455367169",
        "55464657044963196816950587289035428064568320970692304673817341489687455367168",
        "55464657044963196816950587289035428064568320970692304673817341489687463725056"
      ]
    },
    {
      "x": 63,
      "y": 39,
      "size": 1,
      "price": "2106000000000000000000",
      "reserved": "",
      "assetIds": [
        "55464657044963196816950587289035428064568320970692304673817341489687455367179",
        "55464657044963196816950587289035428064568320970692304673817341489687455367171",
        "55464657044963196816950587289035428064568320970692304673817341489687455367169",
        "55464657044963196816950587289035428064568320970692304673817341489687455367168",
        "55464657044963196816950587289035428064568320970692304673817341489687463725056"
      ]
    },
    {
      "x": 64,
      "y": 39,
      "size": 1,
      "price": "2106000000000000000000",
      "reserved": "",
      "assetIds": [
        "55464657044963196816950587289035428064568320970692304673817341489687455367172",
        "55464657044963196816950587289035428064568320970692304673817341489687455367170",
        "55464657044963196816950587289035428064568320970692304673817341489687455367169",
        "55464657044963196816950587289035428064568320970692304673817341489687455367168",
        "55464657044963196816950587289035428064568320970692304673817341489687463725056"
      ]
    },
    {
      "x": 64,
      "y": 44,
      "size": 1,
      "price": "2106000000000000000000",
      "reserved": "",
      "assetIds": [
        "55464657044963196816950587289035428064568320970692304673817341489687455367178",
        "55464657044963196816950587289035428064568320970692304673817341489687455367171",
        "55464657044963196816950587289035428064568320970692304673817341489687455367169",
        "55464657044963196816950587289035428064568320970692304673817341489687455367168",
        "55464657044963196816950587289035428064568320970692304673817341489687463725056"
      ]
    },
    {
      "x": 64,
      "y": 45,
      "size": 1,
      "price": "2106000000000000000000",
      "reserved": "",
      "assetIds": [
        "55464657044963196816950587289035428064568320970692304673817341489687455367182",
        "55464657044963196816950587289035428064568320970692304673817341489687455367171",
        "55464657044963196816950587289035428064568320970692304673817341489687455367169",
        "55464657044963196816950587289035428064568320970692304673817341489687455367168",
        "55464657044963196816950587289035428064568320970692304673817341489687463725056"
      ]
    },
    {
      "x": 63,
      "y": 45,
      "size": 1,
      "price": "2106000000000000000000",
      "reserved": "",
      "assetIds": [
        "55464657044963196816950587289035428064568320970692304673817341489687455367174",
        "55464657044963196816950587289035428064568320970692304673817341489687455367170",
        "55464657044963196816950587289035428064568320970692304673817341489687455367169",
        "55464657044963196816950587289035428064568320970692304673817341489687455367168",
        "55464657044963196816950587289035428064568320970692304673817341489687463725056"
      ]
    },
    {
      "x": 63,
      "y": 46,
      "size": 1,
      "price": "2106000000000000000000",
      "reserved": "",
      "assetIds": [
        "55464657044963196816950587289035428064568320970692304673817341489687455367172",
        "55464657044963196816950587289035428064568320970692304673817341489687455367170",
        "55464657044963196816950587289035428064568320970692304673817341489687455367169",
        "55464657044963196816950587289035428064568320970692304673817341489687455367168",
        "55464657044963196816950587289035428064568320970692304673817341489687463725056"
      ]
    },
    {
      "x": 63,
      "y": 47,
      "size": 1,
      "price": "2106000000000000000000",
      "reserved": "",
      "assetIds": [
        "55464657044963196816950587289035428064568320970692304673817341489687455367181",
        "55464657044963196816950587289035428064568320970692304673817341489687455367171",
        "55464657044963196816950587289035428064568320970692304673817341489687455367169",
        "55464657044963196816950587289035428064568320970692304673817341489687455367168",
        "55464657044963196816950587289035428064568320970692304673817341489687463725056"
      ]
    },
    {
      "x": 64,
      "y": 46,
      "size": 1,
      "price": "2106000000000000000000",
      "reserved": "",
      "assetIds": [
        "55464657044963196816950587289035428064568320970692304673817341489687455367180",
        "55464657044963196816950587289035428064568320970692304673817341489687455367171",
        "55464657044963196816950587289035428064568320970692304673817341489687455367169",
        "55464657044963196816950587289035428064568320970692304673817341489687455367168",
        "55464657044963196816950587289035428064568320970692304673817341489687463725056"
      ]
    },
    {
      "x": 63,
      "y": 44,
      "size": 1,
      "price": "2106000000000000000000",
      "reserved": "",
      "assetIds": [
        "55464657044963196816950587289035428064568320970692304673817341489687455367175",
        "55464657044963196816950587289035428064568320970692304673817341489687455367170",
        "55464657044963196816950587289035428064568320970692304673817341489687455367169",
        "55464657044963196816950587289035428064568320970692304673817341489687455367168",
        "55464657044963196816950587289035428064568320970692304673817341489687463725056"
      ]
    },
    {
      "x": 62,
      "y": 44,
      "size": 1,
      "price": "2106000000000000000000",
      "reserved": "",
      "assetIds": [
        "55464657044963196816950587289035428064568320970692304673817341489687455367172",
        "55464657044963196816950587289035428064568320970692304673817341489687455367170",
        "55464657044963196816950587289035428064568320970692304673817341489687455367169",
        "55464657044963196816950587289035428064568320970692304673817341489687455367168",
        "55464657044963196816950587289035428064568320970692304673817341489687463725056"
      ]
    },
    {
      "x": 62,
      "y": 45,
      "size": 1,
      "price": "2106000000000000000000",
      "reserved": "",
      "assetIds": [
        "55464657044963196816950587289035428064568320970692304673817341489687455367182",
        "55464657044963196816950587289035428064568320970692304673817341489687455367171",
        "55464657044963196816950587289035428064568320970692304673817341489687455367169",
        "55464657044963196816950587289035428064568320970692304673817341489687455367168",
        "55464657044963196816950587289035428064568320970692304673817341489687463725056"
      ]
    },
    {
      "x": 62,
      "y": 37,
      "size": 1,
      "price": "2106000000000000000000",
      "reserved": "",
      "assetIds": [
        "55464657044963196816950587289035428064568320970692304673817341489687455367180",
        "55464657044963196816950587289035428064568320970692304673817341489687455367171",
        "55464657044963196816950587289035428064568320970692304673817341489687455367169",
        "55464657044963196816950587289035428064568320970692304673817341489687455367168",
        "55464657044963196816950587289035428064568320970692304673817341489687463725056"
      ]
    },
    {
      "x": 50,
      "y": 50,
      "size": 1,
      "price": "2106000000000000000000",
      "reserved": "",
      "assetIds": [
        "55464657044963196816950587289035428064568320970692304673817341489687455367176",
        "55464657044963196816950587289035428064568320970692304673817341489687455367170",
        "55464657044963196816950587289035428064568320970692304673817341489687455367169",
        "55464657044963196816950587289035428064568320970692304673817341489687455367168",
        "55464657044963196816950587289035428064568320970692304673817341489687463725056"
      ]
    },
    {
      "x": 49,
      "y": 50,
      "size": 1,
      "price": "2106000000000000000000",
      "reserved": "",
      "assetIds": [
        "55464657044963196816950587289035428064568320970692304673817341489687455367172",
        "55464657044963196816950587289035428064568320970692304673817341489687455367170",
        "55464657044963196816950587289035428064568320970692304673817341489687455367169",
        "55464657044963196816950587289035428064568320970692304673817341489687455367168",
        "55464657044963196816950587289035428064568320970692304673817341489687463725056"
      ]
    },
    {
      "x": 48,
      "y": 50,
      "size": 1,
      "price": "2106000000000000000000",
      "reserved": "",
      "assetIds": [
        "55464657044963196816950587289035428064568320970692304673817341489687455367177",
        "55464657044963196816950587289035428064568320970692304673817341489687455367170",
        "55464657044963196816950587289035428064568320970692304673817341489687455367169",
        "55464657044963196816950587289035428064568320970692304673817341489687455367168",
        "55464657044963196816950587289035428064568320970692304673817341489687463725056"
      ]
    },
    {
      "x": 48,
      "y": 49,
      "size": 1,
      "price": "2106000000000000000000",
      "reserved": "",
      "assetIds": [
        "55464657044963196816950587289035428064568320970692304673817341489687455367174",
        "55464657044963196816950587289035428064568320970692304673817341489687455367170",
        "55464657044963196816950587289035428064568320970692304673817341489687455367169",
        "55464657044963196816950587289035428064568320970692304673817341489687455367168",
        "55464657044963196816950587289035428064568320970692304673817341489687463725056"
      ]
    },
    {
      "x": 49,
      "y": 51,
      "size": 1,
      "price": "2106000000000000000000",
      "reserved": "",
      "assetIds": [
        "55464657044963196816950587289035428064568320970692304673817341489687455367181",
        "55464657044963196816950587289035428064568320970692304673817341489687455367171",
        "55464657044963196816950587289035428064568320970692304673817341489687455367169",
        "55464657044963196816950587289035428064568320970692304673817341489687455367168",
        "55464657044963196816950587289035428064568320970692304673817341489687463725056"
      ]
    },
    {
      "x": 50,
      "y": 51,
      "size": 1,
      "price": "2106000000000000000000",
      "reserved": "",
      "assetIds": [
        "55464657044963196816950587289035428064568320970692304673817341489687455367173",
        "55464657044963196816950587289035428064568320970692304673817341489687455367170",
        "55464657044963196816950587289035428064568320970692304673817341489687455367169",
        "55464657044963196816950587289035428064568320970692304673817341489687455367168",
        "55464657044963196816950587289035428064568320970692304673817341489687463725056"
      ]
    },
    {
      "x": 51,
      "y": 51,
      "size": 1,
      "price": "2106000000000000000000",
      "reserved": "",
      "assetIds": [
        "55464657044963196816950587289035428064568320970692304673817341489687455367175",
        "55464657044963196816950587289035428064568320970692304673817341489687455367170",
        "55464657044963196816950587289035428064568320970692304673817341489687455367169",
        "55464657044963196816950587289035428064568320970692304673817341489687455367168",
        "55464657044963196816950587289035428064568320970692304673817341489687463725056"
      ]
    },
    {
      "x": 52,
      "y": 51,
      "size": 1,
      "price": "2106000000000000000000",
      "reserved": "",
      "assetIds": [
        "55464657044963196816950587289035428064568320970692304673817341489687455367172",
        "55464657044963196816950587289035428064568320970692304673817341489687455367170",
        "55464657044963196816950587289035428064568320970692304673817341489687455367169",
        "55464657044963196816950587289035428064568320970692304673817341489687455367168",
        "55464657044963196816950587289035428064568320970692304673817341489687463725056"
      ]
    },
    {
      "x": 53,
      "y": 50,
      "size": 1,
      "price": "2106000000000000000000",
      "reserved": "",
      "assetIds": [
        "55464657044963196816950587289035428064568320970692304673817341489687455367177",
        "55464657044963196816950587289035428064568320970692304673817341489687455367170",
        "55464657044963196816950587289035428064568320970692304673817341489687455367169",
        "55464657044963196816950587289035428064568320970692304673817341489687455367168",
        "55464657044963196816950587289035428064568320970692304673817341489687463725056"
      ]
    },
    {
      "x": 53,
      "y": 51,
      "size": 1,
      "price": "2106000000000000000000",
      "reserved": "",
      "assetIds": [
        "55464657044963196816950587289035428064568320970692304673817341489687455367174",
        "55464657044963196816950587289035428064568320970692304673817341489687455367170",
        "55464657044963196816950587289035428064568320970692304673817341489687455367169",
        "55464657044963196816950587289035428064568320970692304673817341489687455367168",
        "55464657044963196816950587289035428064568320970692304673817341489687463725056"
      ]
    },
    {
      "x": 53,
      "y": 52,
      "size": 1,
      "price": "2106000000000000000000",
      "reserved": "",
      "assetIds": [
        "55464657044963196816950587289035428064568320970692304673817341489687455367174",
        "55464657044963196816950587289035428064568320970692304673817341489687455367170",
        "55464657044963196816950587289035428064568320970692304673817341489687455367169",
        "55464657044963196816950587289035428064568320970692304673817341489687455367168",
        "55464657044963196816950587289035428064568320970692304673817341489687463725056"
      ]
    },
    {
      "x": 53,
      "y": 53,
      "size": 1,
      "price": "2106000000000000000000",
      "reserved": "",
      "assetIds": [
        "55464657044963196816950587289035428064568320970692304673817341489687455367176",
        "55464657044963196816950587289035428064568320970692304673817341489687455367170",
        "55464657044963196816950587289035428064568320970692304673817341489687455367169",
        "55464657044963196816950587289035428064568320970692304673817341489687455367168",
        "55464657044963196816950587289035428064568320970692304673817341489687463725056"
      ]
    },
    {
      "x": 53,
      "y": 54,
      "size": 1,
      "price": "2106000000000000000000",
      "reserved": "",
      "assetIds": [
        "55464657044963196816950587289035428064568320970692304673817341489687455367174",
        "55464657044963196816950587289035428064568320970692304673817341489687455367170",
        "55464657044963196816950587289035428064568320970692304673817341489687455367169",
        "55464657044963196816950587289035428064568320970692304673817341489687455367168",
        "55464657044963196816950587289035428064568320970692304673817341489687463725056"
      ]
    },
    {
      "x": 53,
      "y": 55,
      "size": 1,
      "price": "2106000000000000000000",
      "reserved": "",
      "assetIds": [
        "55464657044963196816950587289035428064568320970692304673817341489687455367183",
        "55464657044963196816950587289035428064568320970692304673817341489687455367171",
        "55464657044963196816950587289035428064568320970692304673817341489687455367169",
        "55464657044963196816950587289035428064568320970692304673817341489687455367168",
        "55464657044963196816950587289035428064568320970692304673817341489687463725056"
      ]
    },
    {
      "x": 52,
      "y": 56,
      "size": 1,
      "price": "2106000000000000000000",
      "reserved": "",
      "assetIds": [
        "55464657044963196816950587289035428064568320970692304673817341489687455367182",
        "55464657044963196816950587289035428064568320970692304673817341489687455367171",
        "55464657044963196816950587289035428064568320970692304673817341489687455367169",
        "55464657044963196816950587289035428064568320970692304673817341489687455367168",
        "55464657044963196816950587289035428064568320970692304673817341489687463725056"
      ]
    },
    {
      "x": 52,
      "y": 57,
      "size": 1,
      "price": "2106000000000000000000",
      "reserved": "",
      "assetIds": [
        "55464657044963196816950587289035428064568320970692304673817341489687455367173",
        "55464657044963196816950587289035428064568320970692304673817341489687455367170",
        "55464657044963196816950587289035428064568320970692304673817341489687455367169",
        "55464657044963196816950587289035428064568320970692304673817341489687455367168",
        "55464657044963196816950587289035428064568320970692304673817341489687463725056"
      ]
    },
    {
      "x": 53,
      "y": 57,
      "size": 1,
      "price": "2106000000000000000000",
      "reserved": "",
      "assetIds": [
        "55464657044963196816950587289035428064568320970692304673817341489687455367175",
        "55464657044963196816950587289035428064568320970692304673817341489687455367170",
        "55464657044963196816950587289035428064568320970692304673817341489687455367169",
        "55464657044963196816950587289035428064568320970692304673817341489687455367168",
        "55464657044963196816950587289035428064568320970692304673817341489687463725056"
      ]
    },
    {
      "x": 51,
      "y": 57,
      "size": 1,
      "price": "2106000000000000000000",
      "reserved": "",
      "assetIds": [
        "55464657044963196816950587289035428064568320970692304673817341489687455367176",
        "55464657044963196816950587289035428064568320970692304673817341489687455367170",
        "55464657044963196816950587289035428064568320970692304673817341489687455367169",
        "55464657044963196816950587289035428064568320970692304673817341489687455367168",
        "55464657044963196816950587289035428064568320970692304673817341489687463725056"
      ]
    },
    {
      "x": 50,
      "y": 57,
      "size": 1,
      "price": "2106000000000000000000",
      "reserved": "",
      "assetIds": [
        "55464657044963196816950587289035428064568320970692304673817341489687455367176",
        "55464657044963196816950587289035428064568320970692304673817341489687455367170",
        "55464657044963196816950587289035428064568320970692304673817341489687455367169",
        "55464657044963196816950587289035428064568320970692304673817341489687455367168",
        "55464657044963196816950587289035428064568320970692304673817341489687463725056"
      ]
    },
    {
      "x": 49,
      "y": 57,
      "size": 1,
      "price": "2106000000000000000000",
      "reserved": "",
      "assetIds": [
        "55464657044963196816950587289035428064568320970692304673817341489687455367176",
        "55464657044963196816950587289035428064568320970692304673817341489687455367170",
        "55464657044963196816950587289035428064568320970692304673817341489687455367169",
        "55464657044963196816950587289035428064568320970692304673817341489687455367168",
        "55464657044963196816950587289035428064568320970692304673817341489687463725056"
      ]
    },
    {
      "x": 48,
      "y": 57,
      "size": 1,
      "price": "2106000000000000000000",
      "reserved": "",
      "assetIds": [
        "55464657044963196816950587289035428064568320970692304673817341489687455367183",
        "55464657044963196816950587289035428064568320970692304673817341489687455367171",
        "55464657044963196816950587289035428064568320970692304673817341489687455367169",
        "55464657044963196816950587289035428064568320970692304673817341489687455367168",
        "55464657044963196816950587289035428064568320970692304673817341489687463725056"
      ]
    },
    {
      "x": 48,
      "y": 56,
      "size": 1,
      "price": "2106000000000000000000",
      "reserved": "",
      "assetIds": [
        "55464657044963196816950587289035428064568320970692304673817341489687455367173",
        "55464657044963196816950587289035428064568320970692304673817341489687455367170",
        "55464657044963196816950587289035428064568320970692304673817341489687455367169",
        "55464657044963196816950587289035428064568320970692304673817341489687455367168",
        "55464657044963196816950587289035428064568320970692304673817341489687463725056"
      ]
    },
    {
      "x": 49,
      "y": 56,
      "size": 1,
      "price": "2106000000000000000000",
      "reserved": "",
      "assetIds": [
        "55464657044963196816950587289035428064568320970692304673817341489687455367182",
        "55464657044963196816950587289035428064568320970692304673817341489687455367171",
        "55464657044963196816950587289035428064568320970692304673817341489687455367169",
        "55464657044963196816950587289035428064568320970692304673817341489687455367168",
        "55464657044963196816950587289035428064568320970692304673817341489687463725056"
      ]
    },
    {
      "x": 50,
      "y": 55,
      "size": 1,
      "price": "2106000000000000000000",
      "reserved": "",
      "assetIds": [
        "55464657044963196816950587289035428064568320970692304673817341489687455367181",
        "55464657044963196816950587289035428064568320970692304673817341489687455367171",
        "55464657044963196816950587289035428064568320970692304673817341489687455367169",
        "55464657044963196816950587289035428064568320970692304673817341489687455367168",
        "55464657044963196816950587289035428064568320970692304673817341489687463725056"
      ]
    },
    {
      "x": 51,
      "y": 55,
      "size": 1,
      "price": "2106000000000000000000",
      "reserved": "",
      "assetIds": [
        "55464657044963196816950587289035428064568320970692304673817341489687455367183",
        "55464657044963196816950587289035428064568320970692304673817341489687455367171",
        "55464657044963196816950587289035428064568320970692304673817341489687455367169",
        "55464657044963196816950587289035428064568320970692304673817341489687455367168",
        "55464657044963196816950587289035428064568320970692304673817341489687463725056"
      ]
    },
    {
      "x": 51,
      "y": 56,
      "size": 1,
      "price": "2106000000000000000000",
      "reserved": "",
      "assetIds": [
        "55464657044963196816950587289035428064568320970692304673817341489687455367173",
        "55464657044963196816950587289035428064568320970692304673817341489687455367170",
        "55464657044963196816950587289035428064568320970692304673817341489687455367169",
        "55464657044963196816950587289035428064568320970692304673817341489687455367168",
        "55464657044963196816950587289035428064568320970692304673817341489687463725056"
      ]
    },
    {
      "x": 51,
      "y": 54,
      "size": 1,
      "price": "2106000000000000000000",
      "reserved": "",
      "assetIds": [
        "55464657044963196816950587289035428064568320970692304673817341489687455367182",
        "55464657044963196816950587289035428064568320970692304673817341489687455367171",
        "55464657044963196816950587289035428064568320970692304673817341489687455367169",
        "55464657044963196816950587289035428064568320970692304673817341489687455367168",
        "55464657044963196816950587289035428064568320970692304673817341489687463725056"
      ]
    },
    {
      "x": 52,
      "y": 54,
      "size": 1,
      "price": "2106000000000000000000",
      "reserved": "",
      "assetIds": [
        "55464657044963196816950587289035428064568320970692304673817341489687455367182",
        "55464657044963196816950587289035428064568320970692304673817341489687455367171",
        "55464657044963196816950587289035428064568320970692304673817341489687455367169",
        "55464657044963196816950587289035428064568320970692304673817341489687455367168",
        "55464657044963196816950587289035428064568320970692304673817341489687463725056"
      ]
    },
    {
      "x": 52,
      "y": 55,
      "size": 1,
      "price": "2106000000000000000000",
      "reserved": "",
      "assetIds": [
        "55464657044963196816950587289035428064568320970692304673817341489687455367179",
        "55464657044963196816950587289035428064568320970692304673817341489687455367171",
        "55464657044963196816950587289035428064568320970692304673817341489687455367169",
        "55464657044963196816950587289035428064568320970692304673817341489687455367168",
        "55464657044963196816950587289035428064568320970692304673817341489687463725056"
      ]
    },
    {
      "x": 51,
      "y": 58,
      "size": 1,
      "price": "2106000000000000000000",
      "reserved": "",
      "assetIds": [
        "55464657044963196816950587289035428064568320970692304673817341489687455367173",
        "55464657044963196816950587289035428064568320970692304673817341489687455367170",
        "55464657044963196816950587289035428064568320970692304673817341489687455367169",
        "55464657044963196816950587289035428064568320970692304673817341489687455367168",
        "55464657044963196816950587289035428064568320970692304673817341489687463725056"
      ]
    },
    {
      "x": 50,
      "y": 56,
      "size": 1,
      "price": "2106000000000000000000",
      "reserved": "",
      "assetIds": [
        "55464657044963196816950587289035428064568320970692304673817341489687455367178",
        "55464657044963196816950587289035428064568320970692304673817341489687455367171",
        "55464657044963196816950587289035428064568320970692304673817341489687455367169",
        "55464657044963196816950587289035428064568320970692304673817341489687455367168",
        "55464657044963196816950587289035428064568320970692304673817341489687463725056"
      ]
    },
    {
      "x": 50,
      "y": 58,
      "size": 1,
      "price": "2106000000000000000000",
      "reserved": "",
      "assetIds": [
        "55464657044963196816950587289035428064568320970692304673817341489687455367181",
        "55464657044963196816950587289035428064568320970692304673817341489687455367171",
        "55464657044963196816950587289035428064568320970692304673817341489687455367169",
        "55464657044963196816950587289035428064568320970692304673817341489687455367168",
        "55464657044963196816950587289035428064568320970692304673817341489687463725056"
      ]
    },
    {
      "x": 50,
      "y": 59,
      "size": 1,
      "price": "2106000000000000000000",
      "reserved": "",
      "assetIds": [
        "55464657044963196816950587289035428064568320970692304673817341489687455367175",
        "55464657044963196816950587289035428064568320970692304673817341489687455367170",
        "55464657044963196816950587289035428064568320970692304673817341489687455367169",
        "55464657044963196816950587289035428064568320970692304673817341489687455367168",
        "55464657044963196816950587289035428064568320970692304673817341489687463725056"
      ]
    },
    {
      "x": 51,
      "y": 59,
      "size": 1,
      "price": "2106000000000000000000",
      "reserved": "",
      "assetIds": [
        "55464657044963196816950587289035428064568320970692304673817341489687455367174",
        "55464657044963196816950587289035428064568320970692304673817341489687455367170",
        "55464657044963196816950587289035428064568320970692304673817341489687455367169",
        "55464657044963196816950587289035428064568320970692304673817341489687455367168",
        "55464657044963196816950587289035428064568320970692304673817341489687463725056"
      ]
    },
    {
      "x": 51,
      "y": 60,
      "size": 1,
      "price": "2106000000000000000000",
      "reserved": "",
      "assetIds": [
        "55464657044963196816950587289035428064568320970692304673817341489687455367173",
        "55464657044963196816950587289035428064568320970692304673817341489687455367170",
        "55464657044963196816950587289035428064568320970692304673817341489687455367169",
        "55464657044963196816950587289035428064568320970692304673817341489687455367168",
        "55464657044963196816950587289035428064568320970692304673817341489687463725056"
      ]
    },
    {
      "x": 51,
      "y": 61,
      "size": 1,
      "price": "2106000000000000000000",
      "reserved": "",
      "assetIds": [
        "55464657044963196816950587289035428064568320970692304673817341489687455367174",
        "55464657044963196816950587289035428064568320970692304673817341489687455367170",
        "55464657044963196816950587289035428064568320970692304673817341489687455367169",
        "55464657044963196816950587289035428064568320970692304673817341489687455367168",
        "55464657044963196816950587289035428064568320970692304673817341489687463725056"
      ]
    },
    {
      "x": 50,
      "y": 61,
      "size": 1,
      "price": "2106000000000000000000",
      "reserved": "",
      "assetIds": [
        "55464657044963196816950587289035428064568320970692304673817341489687455367173",
        "55464657044963196816950587289035428064568320970692304673817341489687455367170",
        "55464657044963196816950587289035428064568320970692304673817341489687455367169",
        "55464657044963196816950587289035428064568320970692304673817341489687455367168",
        "55464657044963196816950587289035428064568320970692304673817341489687463725056"
      ]
    },
    {
      "x": 49,
      "y": 61,
      "size": 1,
      "price": "2106000000000000000000",
      "reserved": "",
      "assetIds": [
        "55464657044963196816950587289035428064568320970692304673817341489687455367183",
        "55464657044963196816950587289035428064568320970692304673817341489687455367171",
        "55464657044963196816950587289035428064568320970692304673817341489687455367169",
        "55464657044963196816950587289035428064568320970692304673817341489687455367168",
        "55464657044963196816950587289035428064568320970692304673817341489687463725056"
      ]
    },
    {
      "x": 50,
      "y": 60,
      "size": 1,
      "price": "2106000000000000000000",
      "reserved": "",
      "assetIds": [
        "55464657044963196816950587289035428064568320970692304673817341489687455367173",
        "55464657044963196816950587289035428064568320970692304673817341489687455367170",
        "55464657044963196816950587289035428064568320970692304673817341489687455367169",
        "55464657044963196816950587289035428064568320970692304673817341489687455367168",
        "55464657044963196816950587289035428064568320970692304673817341489687463725056"
      ]
    },
    {
      "x": 49,
      "y": 60,
      "size": 1,
      "price": "2106000000000000000000",
      "reserved": "",
      "assetIds": [
        "55464657044963196816950587289035428064568320970692304673817341489687455367177",
        "55464657044963196816950587289035428064568320970692304673817341489687455367170",
        "55464657044963196816950587289035428064568320970692304673817341489687455367169",
        "55464657044963196816950587289035428064568320970692304673817341489687455367168",
        "55464657044963196816950587289035428064568320970692304673817341489687463725056"
      ]
    },
    {
      "x": 51,
      "y": 53,
      "size": 1,
      "price": "2106000000000000000000",
      "reserved": "",
      "assetIds": [
        "55464657044963196816950587289035428064568320970692304673817341489687455367179",
        "55464657044963196816950587289035428064568320970692304673817341489687455367171",
        "55464657044963196816950587289035428064568320970692304673817341489687455367169",
        "55464657044963196816950587289035428064568320970692304673817341489687455367168",
        "55464657044963196816950587289035428064568320970692304673817341489687463725056"
      ]
    },
    {
      "x": 52,
      "y": 53,
      "size": 1,
      "price": "2106000000000000000000",
      "reserved": "",
      "assetIds": [
        "55464657044963196816950587289035428064568320970692304673817341489687455367183",
        "55464657044963196816950587289035428064568320970692304673817341489687455367171",
        "55464657044963196816950587289035428064568320970692304673817341489687455367169",
        "55464657044963196816950587289035428064568320970692304673817341489687455367168",
        "55464657044963196816950587289035428064568320970692304673817341489687463725056"
      ]
    },
    {
      "x": 51,
      "y": 52,
      "size": 1,
      "price": "2106000000000000000000",
      "reserved": "",
      "assetIds": [
        "55464657044963196816950587289035428064568320970692304673817341489687455367176",
        "55464657044963196816950587289035428064568320970692304673817341489687455367170",
        "55464657044963196816950587289035428064568320970692304673817341489687455367169",
        "55464657044963196816950587289035428064568320970692304673817341489687455367168",
        "55464657044963196816950587289035428064568320970692304673817341489687463725056"
      ]
    },
    {
      "x": 52,
      "y": 52,
      "size": 1,
      "price": "2106000000000000000000",
      "reserved": "",
      "assetIds": [
        "55464657044963196816950587289035428064568320970692304673817341489687455367180",
        "55464657044963196816950587289035428064568320970692304673817341489687455367171",
        "55464657044963196816950587289035428064568320970692304673817341489687455367169",
        "55464657044963196816950587289035428064568320970692304673817341489687455367168",
        "55464657044963196816950587289035428064568320970692304673817341489687463725056"
      ]
    },
    {
      "x": 50,
      "y": 54,
      "size": 1,
      "price": "2106000000000000000000",
      "reserved": "",
      "assetIds": [
        "55464657044963196816950587289035428064568320970692304673817341489687455367183",
        "55464657044963196816950587289035428064568320970692304673817341489687455367171",
        "55464657044963196816950587289035428064568320970692304673817341489687455367169",
        "55464657044963196816950587289035428064568320970692304673817341489687455367168",
        "55464657044963196816950587289035428064568320970692304673817341489687463725056"
      ]
    },
    {
      "x": 49,
      "y": 54,
      "size": 1,
      "price": "2106000000000000000000",
      "reserved": "",
      "assetIds": [
        "55464657044963196816950587289035428064568320970692304673817341489687455367182",
        "55464657044963196816950587289035428064568320970692304673817341489687455367171",
        "55464657044963196816950587289035428064568320970692304673817341489687455367169",
        "55464657044963196816950587289035428064568320970692304673817341489687455367168",
        "55464657044963196816950587289035428064568320970692304673817341489687463725056"
      ]
    },
    {
      "x": 49,
      "y": 53,
      "size": 1,
      "price": "2106000000000000000000",
      "reserved": "",
      "assetIds": [
        "55464657044963196816950587289035428064568320970692304673817341489687455367183",
        "55464657044963196816950587289035428064568320970692304673817341489687455367171",
        "55464657044963196816950587289035428064568320970692304673817341489687455367169",
        "55464657044963196816950587289035428064568320970692304673817341489687455367168",
        "55464657044963196816950587289035428064568320970692304673817341489687463725056"
      ]
    },
    {
      "x": 48,
      "y": 53,
      "size": 1,
      "price": "2106000000000000000000",
      "reserved": "",
      "assetIds": [
        "55464657044963196816950587289035428064568320970692304673817341489687455367178",
        "55464657044963196816950587289035428064568320970692304673817341489687455367171",
        "55464657044963196816950587289035428064568320970692304673817341489687455367169",
        "55464657044963196816950587289035428064568320970692304673817341489687455367168",
        "55464657044963196816950587289035428064568320970692304673817341489687463725056"
      ]
    },
    {
      "x": 48,
      "y": 54,
      "size": 1,
      "price": "2106000000000000000000",
      "reserved": "",
      "assetIds": [
        "55464657044963196816950587289035428064568320970692304673817341489687455367179",
        "55464657044963196816950587289035428064568320970692304673817341489687455367171",
        "55464657044963196816950587289035428064568320970692304673817341489687455367169",
        "55464657044963196816950587289035428064568320970692304673817341489687455367168",
        "55464657044963196816950587289035428064568320970692304673817341489687463725056"
      ]
    },
    {
      "x": 50,
      "y": 53,
      "size": 1,
      "price": "2106000000000000000000",
      "reserved": "",
      "assetIds": [
        "55464657044963196816950587289035428064568320970692304673817341489687455367176",
        "55464657044963196816950587289035428064568320970692304673817341489687455367170",
        "55464657044963196816950587289035428064568320970692304673817341489687455367169",
        "55464657044963196816950587289035428064568320970692304673817341489687455367168",
        "55464657044963196816950587289035428064568320970692304673817341489687463725056"
      ]
    },
    {
      "x": 47,
      "y": 53,
      "size": 1,
      "price": "2106000000000000000000",
      "reserved": "",
      "assetIds": [
        "55464657044963196816950587289035428064568320970692304673817341489687455367181",
        "55464657044963196816950587289035428064568320970692304673817341489687455367171",
        "55464657044963196816950587289035428064568320970692304673817341489687455367169",
        "55464657044963196816950587289035428064568320970692304673817341489687455367168",
        "55464657044963196816950587289035428064568320970692304673817341489687463725056"
      ]
    },
    {
      "x": 46,
      "y": 53,
      "size": 1,
      "price": "2106000000000000000000",
      "reserved": "",
      "assetIds": [
        "55464657044963196816950587289035428064568320970692304673817341489687455367181",
        "55464657044963196816950587289035428064568320970692304673817341489687455367171",
        "55464657044963196816950587289035428064568320970692304673817341489687455367169",
        "55464657044963196816950587289035428064568320970692304673817341489687455367168",
        "55464657044963196816950587289035428064568320970692304673817341489687463725056"
      ]
    },
    {
      "x": 45,
      "y": 53,
      "size": 1,
      "price": "2106000000000000000000",
      "reserved": "",
      "assetIds": [
        "55464657044963196816950587289035428064568320970692304673817341489687455367182",
        "55464657044963196816950587289035428064568320970692304673817341489687455367171",
        "55464657044963196816950587289035428064568320970692304673817341489687455367169",
        "55464657044963196816950587289035428064568320970692304673817341489687455367168",
        "55464657044963196816950587289035428064568320970692304673817341489687463725056"
      ]
    },
    {
      "x": 44,
      "y": 53,
      "size": 1,
      "price": "2106000000000000000000",
      "reserved": "",
      "assetIds": [
        "55464657044963196816950587289035428064568320970692304673817341489687455367172",
        "55464657044963196816950587289035428064568320970692304673817341489687455367170",
        "55464657044963196816950587289035428064568320970692304673817341489687455367169",
        "55464657044963196816950587289035428064568320970692304673817341489687455367168",
        "55464657044963196816950587289035428064568320970692304673817341489687463725056"
      ]
    },
    {
      "x": 43,
      "y": 53,
      "size": 1,
      "price": "2106000000000000000000",
      "reserved": "",
      "assetIds": [
        "55464657044963196816950587289035428064568320970692304673817341489687455367183",
        "55464657044963196816950587289035428064568320970692304673817341489687455367171",
        "55464657044963196816950587289035428064568320970692304673817341489687455367169",
        "55464657044963196816950587289035428064568320970692304673817341489687455367168",
        "55464657044963196816950587289035428064568320970692304673817341489687463725056"
      ]
    },
    {
      "x": 42,
      "y": 53,
      "size": 1,
      "price": "2106000000000000000000",
      "reserved": "",
      "assetIds": [
        "55464657044963196816950587289035428064568320970692304673817341489687455367181",
        "55464657044963196816950587289035428064568320970692304673817341489687455367171",
        "55464657044963196816950587289035428064568320970692304673817341489687455367169",
        "55464657044963196816950587289035428064568320970692304673817341489687455367168",
        "55464657044963196816950587289035428064568320970692304673817341489687463725056"
      ]
    },
    {
      "x": 41,
      "y": 53,
      "size": 1,
      "price": "2106000000000000000000",
      "reserved": "",
      "assetIds": [
        "55464657044963196816950587289035428064568320970692304673817341489687455367172",
        "55464657044963196816950587289035428064568320970692304673817341489687455367170",
        "55464657044963196816950587289035428064568320970692304673817341489687455367169",
        "55464657044963196816950587289035428064568320970692304673817341489687455367168",
        "55464657044963196816950587289035428064568320970692304673817341489687463725056"
      ]
    },
    {
      "x": 40,
      "y": 53,
      "size": 1,
      "price": "2106000000000000000000",
      "reserved": "",
      "assetIds": [
        "55464657044963196816950587289035428064568320970692304673817341489687455367181",
        "55464657044963196816950587289035428064568320970692304673817341489687455367171",
        "55464657044963196816950587289035428064568320970692304673817341489687455367169",
        "55464657044963196816950587289035428064568320970692304673817341489687455367168",
        "55464657044963196816950587289035428064568320970692304673817341489687463725056"
      ]
    },
    {
      "x": 39,
      "y": 53,
      "size": 1,
      "price": "2106000000000000000000",
      "reserved": "",
      "assetIds": [
        "55464657044963196816950587289035428064568320970692304673817341489687455367180",
        "55464657044963196816950587289035428064568320970692304673817341489687455367171",
        "55464657044963196816950587289035428064568320970692304673817341489687455367169",
        "55464657044963196816950587289035428064568320970692304673817341489687455367168",
        "55464657044963196816950587289035428064568320970692304673817341489687463725056"
      ]
    },
    {
      "x": 38,
      "y": 53,
      "size": 1,
      "price": "2106000000000000000000",
      "reserved": "",
      "assetIds": [
        "55464657044963196816950587289035428064568320970692304673817341489687455367173",
        "55464657044963196816950587289035428064568320970692304673817341489687455367170",
        "55464657044963196816950587289035428064568320970692304673817341489687455367169",
        "55464657044963196816950587289035428064568320970692304673817341489687455367168",
        "55464657044963196816950587289035428064568320970692304673817341489687463725056"
      ]
    },
    {
      "x": 38,
      "y": 52,
      "size": 1,
      "price": "2106000000000000000000",
      "reserved": "",
      "assetIds": [
        "55464657044963196816950587289035428064568320970692304673817341489687455367176",
        "55464657044963196816950587289035428064568320970692304673817341489687455367170",
        "55464657044963196816950587289035428064568320970692304673817341489687455367169",
        "55464657044963196816950587289035428064568320970692304673817341489687455367168",
        "55464657044963196816950587289035428064568320970692304673817341489687463725056"
      ]
    },
    {
      "x": 37,
      "y": 52,
      "size": 1,
      "price": "2106000000000000000000",
      "reserved": "",
      "assetIds": [
        "55464657044963196816950587289035428064568320970692304673817341489687455367174",
        "55464657044963196816950587289035428064568320970692304673817341489687455367170",
        "55464657044963196816950587289035428064568320970692304673817341489687455367169",
        "55464657044963196816950587289035428064568320970692304673817341489687455367168",
        "55464657044963196816950587289035428064568320970692304673817341489687463725056"
      ]
    },
    {
      "x": 39,
      "y": 52,
      "size": 1,
      "price": "2106000000000000000000",
      "reserved": "",
      "assetIds": [
        "55464657044963196816950587289035428064568320970692304673817341489687455367180",
        "55464657044963196816950587289035428064568320970692304673817341489687455367171",
        "55464657044963196816950587289035428064568320970692304673817341489687455367169",
        "55464657044963196816950587289035428064568320970692304673817341489687455367168",
        "55464657044963196816950587289035428064568320970692304673817341489687463725056"
      ]
    },
    {
      "x": 40,
      "y": 52,
      "size": 1,
      "price": "2106000000000000000000",
      "reserved": "",
      "assetIds": [
        "55464657044963196816950587289035428064568320970692304673817341489687455367182",
        "55464657044963196816950587289035428064568320970692304673817341489687455367171",
        "55464657044963196816950587289035428064568320970692304673817341489687455367169",
        "55464657044963196816950587289035428064568320970692304673817341489687455367168",
        "55464657044963196816950587289035428064568320970692304673817341489687463725056"
      ]
    },
    {
      "x": 41,
      "y": 52,
      "size": 1,
      "price": "2106000000000000000000",
      "reserved": "",
      "assetIds": [
        "55464657044963196816950587289035428064568320970692304673817341489687455367182",
        "55464657044963196816950587289035428064568320970692304673817341489687455367171",
        "55464657044963196816950587289035428064568320970692304673817341489687455367169",
        "55464657044963196816950587289035428064568320970692304673817341489687455367168",
        "55464657044963196816950587289035428064568320970692304673817341489687463725056"
      ]
    },
    {
      "x": 42,
      "y": 52,
      "size": 1,
      "price": "2106000000000000000000",
      "reserved": "",
      "assetIds": [
        "55464657044963196816950587289035428064568320970692304673817341489687455367183",
        "55464657044963196816950587289035428064568320970692304673817341489687455367171",
        "55464657044963196816950587289035428064568320970692304673817341489687455367169",
        "55464657044963196816950587289035428064568320970692304673817341489687455367168",
        "55464657044963196816950587289035428064568320970692304673817341489687463725056"
      ]
    },
    {
      "x": 43,
      "y": 52,
      "size": 1,
      "price": "2106000000000000000000",
      "reserved": "",
      "assetIds": [
        "55464657044963196816950587289035428064568320970692304673817341489687455367181",
        "55464657044963196816950587289035428064568320970692304673817341489687455367171",
        "55464657044963196816950587289035428064568320970692304673817341489687455367169",
        "55464657044963196816950587289035428064568320970692304673817341489687455367168",
        "55464657044963196816950587289035428064568320970692304673817341489687463725056"
      ]
    },
    {
      "x": 44,
      "y": 52,
      "size": 1,
      "price": "2106000000000000000000",
      "reserved": "",
      "assetIds": [
        "55464657044963196816950587289035428064568320970692304673817341489687455367181",
        "55464657044963196816950587289035428064568320970692304673817341489687455367171",
        "55464657044963196816950587289035428064568320970692304673817341489687455367169",
        "55464657044963196816950587289035428064568320970692304673817341489687455367168",
        "55464657044963196816950587289035428064568320970692304673817341489687463725056"
      ]
    },
    {
      "x": 45,
      "y": 52,
      "size": 1,
      "price": "2106000000000000000000",
      "reserved": "",
      "assetIds": [
        "55464657044963196816950587289035428064568320970692304673817341489687455367180",
        "55464657044963196816950587289035428064568320970692304673817341489687455367171",
        "55464657044963196816950587289035428064568320970692304673817341489687455367169",
        "55464657044963196816950587289035428064568320970692304673817341489687455367168",
        "55464657044963196816950587289035428064568320970692304673817341489687463725056"
      ]
    },
    {
      "x": 46,
      "y": 52,
      "size": 1,
      "price": "2106000000000000000000",
      "reserved": "",
      "assetIds": [
        "55464657044963196816950587289035428064568320970692304673817341489687455367177",
        "55464657044963196816950587289035428064568320970692304673817341489687455367170",
        "55464657044963196816950587289035428064568320970692304673817341489687455367169",
        "55464657044963196816950587289035428064568320970692304673817341489687455367168",
        "55464657044963196816950587289035428064568320970692304673817341489687463725056"
      ]
    },
    {
      "x": 48,
      "y": 52,
      "size": 1,
      "price": "2106000000000000000000",
      "reserved": "",
      "assetIds": [
        "55464657044963196816950587289035428064568320970692304673817341489687455367174",
        "55464657044963196816950587289035428064568320970692304673817341489687455367170",
        "55464657044963196816950587289035428064568320970692304673817341489687455367169",
        "55464657044963196816950587289035428064568320970692304673817341489687455367168",
        "55464657044963196816950587289035428064568320970692304673817341489687463725056"
      ]
    },
    {
      "x": 49,
      "y": 52,
      "size": 1,
      "price": "2106000000000000000000",
      "reserved": "",
      "assetIds": [
        "55464657044963196816950587289035428064568320970692304673817341489687455367178",
        "55464657044963196816950587289035428064568320970692304673817341489687455367171",
        "55464657044963196816950587289035428064568320970692304673817341489687455367169",
        "55464657044963196816950587289035428064568320970692304673817341489687455367168",
        "55464657044963196816950587289035428064568320970692304673817341489687463725056"
      ]
    },
    {
      "x": 47,
      "y": 52,
      "size": 1,
      "price": "2106000000000000000000",
      "reserved": "",
      "assetIds": [
        "55464657044963196816950587289035428064568320970692304673817341489687455367179",
        "55464657044963196816950587289035428064568320970692304673817341489687455367171",
        "55464657044963196816950587289035428064568320970692304673817341489687455367169",
        "55464657044963196816950587289035428064568320970692304673817341489687455367168",
        "55464657044963196816950587289035428064568320970692304673817341489687463725056"
      ]
    },
    {
      "x": 45,
      "y": 51,
      "size": 1,
      "price": "2106000000000000000000",
      "reserved": "",
      "assetIds": [
        "55464657044963196816950587289035428064568320970692304673817341489687455367176",
        "55464657044963196816950587289035428064568320970692304673817341489687455367170",
        "55464657044963196816950587289035428064568320970692304673817341489687455367169",
        "55464657044963196816950587289035428064568320970692304673817341489687455367168",
        "55464657044963196816950587289035428064568320970692304673817341489687463725056"
      ]
    },
    {
      "x": 46,
      "y": 51,
      "size": 1,
      "price": "2106000000000000000000",
      "reserved": "",
      "assetIds": [
        "55464657044963196816950587289035428064568320970692304673817341489687455367180",
        "55464657044963196816950587289035428064568320970692304673817341489687455367171",
        "55464657044963196816950587289035428064568320970692304673817341489687455367169",
        "55464657044963196816950587289035428064568320970692304673817341489687455367168",
        "55464657044963196816950587289035428064568320970692304673817341489687463725056"
      ]
    },
    {
      "x": 47,
      "y": 51,
      "size": 1,
      "price": "2106000000000000000000",
      "reserved": "",
      "assetIds": [
        "55464657044963196816950587289035428064568320970692304673817341489687455367175",
        "55464657044963196816950587289035428064568320970692304673817341489687455367170",
        "55464657044963196816950587289035428064568320970692304673817341489687455367169",
        "55464657044963196816950587289035428064568320970692304673817341489687455367168",
        "55464657044963196816950587289035428064568320970692304673817341489687463725056"
      ]
    },
    {
      "x": 48,
      "y": 51,
      "size": 1,
      "price": "2106000000000000000000",
      "reserved": "",
      "assetIds": [
        "55464657044963196816950587289035428064568320970692304673817341489687455367183",
        "55464657044963196816950587289035428064568320970692304673817341489687455367171",
        "55464657044963196816950587289035428064568320970692304673817341489687455367169",
        "55464657044963196816950587289035428064568320970692304673817341489687455367168",
        "55464657044963196816950587289035428064568320970692304673817341489687463725056"
      ]
    },
    {
      "x": 44,
      "y": 51,
      "size": 1,
      "price": "2106000000000000000000",
      "reserved": "",
      "assetIds": [
        "55464657044963196816950587289035428064568320970692304673817341489687455367173",
        "55464657044963196816950587289035428064568320970692304673817341489687455367170",
        "55464657044963196816950587289035428064568320970692304673817341489687455367169",
        "55464657044963196816950587289035428064568320970692304673817341489687455367168",
        "55464657044963196816950587289035428064568320970692304673817341489687463725056"
      ]
    },
    {
      "x": 46,
      "y": 50,
      "size": 1,
      "price": "2106000000000000000000",
      "reserved": "",
      "assetIds": [
        "55464657044963196816950587289035428064568320970692304673817341489687455367177",
        "55464657044963196816950587289035428064568320970692304673817341489687455367170",
        "55464657044963196816950587289035428064568320970692304673817341489687455367169",
        "55464657044963196816950587289035428064568320970692304673817341489687455367168",
        "55464657044963196816950587289035428064568320970692304673817341489687463725056"
      ]
    },
    {
      "x": 47,
      "y": 50,
      "size": 1,
      "price": "2106000000000000000000",
      "reserved": "",
      "assetIds": [
        "55464657044963196816950587289035428064568320970692304673817341489687455367177",
        "55464657044963196816950587289035428064568320970692304673817341489687455367170",
        "55464657044963196816950587289035428064568320970692304673817341489687455367169",
        "55464657044963196816950587289035428064568320970692304673817341489687455367168",
        "55464657044963196816950587289035428064568320970692304673817341489687463725056"
      ]
    },
    {
      "x": 45,
      "y": 50,
      "size": 1,
      "price": "2106000000000000000000",
      "reserved": "",
      "assetIds": [
        "55464657044963196816950587289035428064568320970692304673817341489687455367176",
        "55464657044963196816950587289035428064568320970692304673817341489687455367170",
        "55464657044963196816950587289035428064568320970692304673817341489687455367169",
        "55464657044963196816950587289035428064568320970692304673817341489687455367168",
        "55464657044963196816950587289035428064568320970692304673817341489687463725056"
      ]
    },
    {
      "x": 44,
      "y": 50,
      "size": 1,
      "price": "2106000000000000000000",
      "reserved": "",
      "assetIds": [
        "55464657044963196816950587289035428064568320970692304673817341489687455367179",
        "55464657044963196816950587289035428064568320970692304673817341489687455367171",
        "55464657044963196816950587289035428064568320970692304673817341489687455367169",
        "55464657044963196816950587289035428064568320970692304673817341489687455367168",
        "55464657044963196816950587289035428064568320970692304673817341489687463725056"
      ]
    },
    {
      "x": 43,
      "y": 50,
      "size": 1,
      "price": "2106000000000000000000",
      "reserved": "",
      "assetIds": [
        "55464657044963196816950587289035428064568320970692304673817341489687455367174",
        "55464657044963196816950587289035428064568320970692304673817341489687455367170",
        "55464657044963196816950587289035428064568320970692304673817341489687455367169",
        "55464657044963196816950587289035428064568320970692304673817341489687455367168",
        "55464657044963196816950587289035428064568320970692304673817341489687463725056"
      ]
    },
    {
      "x": 42,
      "y": 50,
      "size": 1,
      "price": "2106000000000000000000",
      "reserved": "",
      "assetIds": [
        "55464657044963196816950587289035428064568320970692304673817341489687455367172",
        "55464657044963196816950587289035428064568320970692304673817341489687455367170",
        "55464657044963196816950587289035428064568320970692304673817341489687455367169",
        "55464657044963196816950587289035428064568320970692304673817341489687455367168",
        "55464657044963196816950587289035428064568320970692304673817341489687463725056"
      ]
    },
    {
      "x": 41,
      "y": 50,
      "size": 1,
      "price": "2106000000000000000000",
      "reserved": "",
      "assetIds": [
        "55464657044963196816950587289035428064568320970692304673817341489687455367175",
        "55464657044963196816950587289035428064568320970692304673817341489687455367170",
        "55464657044963196816950587289035428064568320970692304673817341489687455367169",
        "55464657044963196816950587289035428064568320970692304673817341489687455367168",
        "55464657044963196816950587289035428064568320970692304673817341489687463725056"
      ]
    },
    {
      "x": 40,
      "y": 50,
      "size": 1,
      "price": "2106000000000000000000",
      "reserved": "",
      "assetIds": [
        "55464657044963196816950587289035428064568320970692304673817341489687455367176",
        "55464657044963196816950587289035428064568320970692304673817341489687455367170",
        "55464657044963196816950587289035428064568320970692304673817341489687455367169",
        "55464657044963196816950587289035428064568320970692304673817341489687455367168",
        "55464657044963196816950587289035428064568320970692304673817341489687463725056"
      ]
    },
    {
      "x": 39,
      "y": 50,
      "size": 1,
      "price": "2106000000000000000000",
      "reserved": "",
      "assetIds": [
        "55464657044963196816950587289035428064568320970692304673817341489687455367180",
        "55464657044963196816950587289035428064568320970692304673817341489687455367171",
        "55464657044963196816950587289035428064568320970692304673817341489687455367169",
        "55464657044963196816950587289035428064568320970692304673817341489687455367168",
        "55464657044963196816950587289035428064568320970692304673817341489687463725056"
      ]
    },
    {
      "x": 38,
      "y": 50,
      "size": 1,
      "price": "2106000000000000000000",
      "reserved": "",
      "assetIds": [
        "55464657044963196816950587289035428064568320970692304673817341489687455367172",
        "55464657044963196816950587289035428064568320970692304673817341489687455367170",
        "55464657044963196816950587289035428064568320970692304673817341489687455367169",
        "55464657044963196816950587289035428064568320970692304673817341489687455367168",
        "55464657044963196816950587289035428064568320970692304673817341489687463725056"
      ]
    },
    {
      "x": 37,
      "y": 50,
      "size": 1,
      "price": "2106000000000000000000",
      "reserved": "",
      "assetIds": [
        "55464657044963196816950587289035428064568320970692304673817341489687455367174",
        "55464657044963196816950587289035428064568320970692304673817341489687455367170",
        "55464657044963196816950587289035428064568320970692304673817341489687455367169",
        "55464657044963196816950587289035428064568320970692304673817341489687455367168",
        "55464657044963196816950587289035428064568320970692304673817341489687463725056"
      ]
    },
    {
      "x": 36,
      "y": 51,
      "size": 1,
      "price": "2106000000000000000000",
      "reserved": "",
      "assetIds": [
        "55464657044963196816950587289035428064568320970692304673817341489687455367172",
        "55464657044963196816950587289035428064568320970692304673817341489687455367170",
        "55464657044963196816950587289035428064568320970692304673817341489687455367169",
        "55464657044963196816950587289035428064568320970692304673817341489687455367168",
        "55464657044963196816950587289035428064568320970692304673817341489687463725056"
      ]
    },
    {
      "x": 37,
      "y": 51,
      "size": 1,
      "price": "2106000000000000000000",
      "reserved": "",
      "assetIds": [
        "55464657044963196816950587289035428064568320970692304673817341489687455367172",
        "55464657044963196816950587289035428064568320970692304673817341489687455367170",
        "55464657044963196816950587289035428064568320970692304673817341489687455367169",
        "55464657044963196816950587289035428064568320970692304673817341489687455367168",
        "55464657044963196816950587289035428064568320970692304673817341489687463725056"
      ]
    },
    {
      "x": 38,
      "y": 51,
      "size": 1,
      "price": "2106000000000000000000",
      "reserved": "",
      "assetIds": [
        "55464657044963196816950587289035428064568320970692304673817341489687455367175",
        "55464657044963196816950587289035428064568320970692304673817341489687455367170",
        "55464657044963196816950587289035428064568320970692304673817341489687455367169",
        "55464657044963196816950587289035428064568320970692304673817341489687455367168",
        "55464657044963196816950587289035428064568320970692304673817341489687463725056"
      ]
    },
    {
      "x": 40,
      "y": 51,
      "size": 1,
      "price": "2106000000000000000000",
      "reserved": "",
      "assetIds": [
        "55464657044963196816950587289035428064568320970692304673817341489687455367174",
        "55464657044963196816950587289035428064568320970692304673817341489687455367170",
        "55464657044963196816950587289035428064568320970692304673817341489687455367169",
        "55464657044963196816950587289035428064568320970692304673817341489687455367168",
        "55464657044963196816950587289035428064568320970692304673817341489687463725056"
      ]
    },
    {
      "x": 39,
      "y": 51,
      "size": 1,
      "price": "2106000000000000000000",
      "reserved": "",
      "assetIds": [
        "55464657044963196816950587289035428064568320970692304673817341489687455367181",
        "55464657044963196816950587289035428064568320970692304673817341489687455367171",
        "55464657044963196816950587289035428064568320970692304673817341489687455367169",
        "55464657044963196816950587289035428064568320970692304673817341489687455367168",
        "55464657044963196816950587289035428064568320970692304673817341489687463725056"
      ]
    },
    {
      "x": 41,
      "y": 51,
      "size": 1,
      "price": "2106000000000000000000",
      "reserved": "",
      "assetIds": [
        "55464657044963196816950587289035428064568320970692304673817341489687455367176",
        "55464657044963196816950587289035428064568320970692304673817341489687455367170",
        "55464657044963196816950587289035428064568320970692304673817341489687455367169",
        "55464657044963196816950587289035428064568320970692304673817341489687455367168",
        "55464657044963196816950587289035428064568320970692304673817341489687463725056"
      ]
    },
    {
      "x": 42,
      "y": 51,
      "size": 1,
      "price": "2106000000000000000000",
      "reserved": "",
      "assetIds": [
        "55464657044963196816950587289035428064568320970692304673817341489687455367178",
        "55464657044963196816950587289035428064568320970692304673817341489687455367171",
        "55464657044963196816950587289035428064568320970692304673817341489687455367169",
        "55464657044963196816950587289035428064568320970692304673817341489687455367168",
        "55464657044963196816950587289035428064568320970692304673817341489687463725056"
      ]
    },
    {
      "x": 46,
      "y": 49,
      "size": 1,
      "price": "2106000000000000000000",
      "reserved": "",
      "assetIds": [
        "55464657044963196816950587289035428064568320970692304673817341489687455367175",
        "55464657044963196816950587289035428064568320970692304673817341489687455367170",
        "55464657044963196816950587289035428064568320970692304673817341489687455367169",
        "55464657044963196816950587289035428064568320970692304673817341489687455367168",
        "55464657044963196816950587289035428064568320970692304673817341489687463725056"
      ]
    },
    {
      "x": 45,
      "y": 49,
      "size": 1,
      "price": "2106000000000000000000",
      "reserved": "",
      "assetIds": [
        "55464657044963196816950587289035428064568320970692304673817341489687455367172",
        "55464657044963196816950587289035428064568320970692304673817341489687455367170",
        "55464657044963196816950587289035428064568320970692304673817341489687455367169",
        "55464657044963196816950587289035428064568320970692304673817341489687455367168",
        "55464657044963196816950587289035428064568320970692304673817341489687463725056"
      ]
    },
    {
      "x": 44,
      "y": 49,
      "size": 1,
      "price": "2106000000000000000000",
      "reserved": "",
      "assetIds": [
        "55464657044963196816950587289035428064568320970692304673817341489687455367172",
        "55464657044963196816950587289035428064568320970692304673817341489687455367170",
        "55464657044963196816950587289035428064568320970692304673817341489687455367169",
        "55464657044963196816950587289035428064568320970692304673817341489687455367168",
        "55464657044963196816950587289035428064568320970692304673817341489687463725056"
      ]
    },
    {
      "x": 43,
      "y": 49,
      "size": 1,
      "price": "2106000000000000000000",
      "reserved": "",
      "assetIds": [
        "55464657044963196816950587289035428064568320970692304673817341489687455367175",
        "55464657044963196816950587289035428064568320970692304673817341489687455367170",
        "55464657044963196816950587289035428064568320970692304673817341489687455367169",
        "55464657044963196816950587289035428064568320970692304673817341489687455367168",
        "55464657044963196816950587289035428064568320970692304673817341489687463725056"
      ]
    },
    {
      "x": 42,
      "y": 49,
      "size": 1,
      "price": "2106000000000000000000",
      "reserved": "",
      "assetIds": [
        "55464657044963196816950587289035428064568320970692304673817341489687455367180",
        "55464657044963196816950587289035428064568320970692304673817341489687455367171",
        "55464657044963196816950587289035428064568320970692304673817341489687455367169",
        "55464657044963196816950587289035428064568320970692304673817341489687455367168",
        "55464657044963196816950587289035428064568320970692304673817341489687463725056"
      ]
    },
    {
      "x": 41,
      "y": 49,
      "size": 1,
      "price": "2106000000000000000000",
      "reserved": "",
      "assetIds": [
        "55464657044963196816950587289035428064568320970692304673817341489687455367182",
        "55464657044963196816950587289035428064568320970692304673817341489687455367171",
        "55464657044963196816950587289035428064568320970692304673817341489687455367169",
        "55464657044963196816950587289035428064568320970692304673817341489687455367168",
        "55464657044963196816950587289035428064568320970692304673817341489687463725056"
      ]
    },
    {
      "x": 36,
      "y": 50,
      "size": 1,
      "price": "2106000000000000000000",
      "reserved": "",
      "assetIds": [
        "55464657044963196816950587289035428064568320970692304673817341489687455367172",
        "55464657044963196816950587289035428064568320970692304673817341489687455367170",
        "55464657044963196816950587289035428064568320970692304673817341489687455367169",
        "55464657044963196816950587289035428064568320970692304673817341489687455367168",
        "55464657044963196816950587289035428064568320970692304673817341489687463725056"
      ]
    },
    {
      "x": 35,
      "y": 50,
      "size": 1,
      "price": "2106000000000000000000",
      "reserved": "",
      "assetIds": [
        "55464657044963196816950587289035428064568320970692304673817341489687455367180",
        "55464657044963196816950587289035428064568320970692304673817341489687455367171",
        "55464657044963196816950587289035428064568320970692304673817341489687455367169",
        "55464657044963196816950587289035428064568320970692304673817341489687455367168",
        "55464657044963196816950587289035428064568320970692304673817341489687463725056"
      ]
    },
    {
      "x": 34,
      "y": 50,
      "size": 1,
      "price": "2106000000000000000000",
      "reserved": "",
      "assetIds": [
        "55464657044963196816950587289035428064568320970692304673817341489687455367180",
        "55464657044963196816950587289035428064568320970692304673817341489687455367171",
        "55464657044963196816950587289035428064568320970692304673817341489687455367169",
        "55464657044963196816950587289035428064568320970692304673817341489687455367168",
        "55464657044963196816950587289035428064568320970692304673817341489687463725056"
      ]
    },
    {
      "x": 33,
      "y": 50,
      "size": 1,
      "price": "2106000000000000000000",
      "reserved": "",
      "assetIds": [
        "55464657044963196816950587289035428064568320970692304673817341489687455367183",
        "55464657044963196816950587289035428064568320970692304673817341489687455367171",
        "55464657044963196816950587289035428064568320970692304673817341489687455367169",
        "55464657044963196816950587289035428064568320970692304673817341489687455367168",
        "55464657044963196816950587289035428064568320970692304673817341489687463725056"
      ]
    },
    {
      "x": 32,
      "y": 50,
      "size": 1,
      "price": "2106000000000000000000",
      "reserved": "",
      "assetIds": [
        "55464657044963196816950587289035428064568320970692304673817341489687455367172",
        "55464657044963196816950587289035428064568320970692304673817341489687455367170",
        "55464657044963196816950587289035428064568320970692304673817341489687455367169",
        "55464657044963196816950587289035428064568320970692304673817341489687455367168",
        "55464657044963196816950587289035428064568320970692304673817341489687463725056"
      ]
    },
    {
      "x": 31,
      "y": 50,
      "size": 1,
      "price": "2106000000000000000000",
      "reserved": "",
      "assetIds": [
        "55464657044963196816950587289035428064568320970692304673817341489687455367175",
        "55464657044963196816950587289035428064568320970692304673817341489687455367170",
        "55464657044963196816950587289035428064568320970692304673817341489687455367169",
        "55464657044963196816950587289035428064568320970692304673817341489687455367168",
        "55464657044963196816950587289035428064568320970692304673817341489687463725056"
      ]
    },
    {
      "x": 30,
      "y": 50,
      "size": 1,
      "price": "2106000000000000000000",
      "reserved": "",
      "assetIds": [
        "55464657044963196816950587289035428064568320970692304673817341489687455367172",
        "55464657044963196816950587289035428064568320970692304673817341489687455367170",
        "55464657044963196816950587289035428064568320970692304673817341489687455367169",
        "55464657044963196816950587289035428064568320970692304673817341489687455367168",
        "55464657044963196816950587289035428064568320970692304673817341489687463725056"
      ]
    },
    {
      "x": 28,
      "y": 50,
      "size": 1,
      "price": "2106000000000000000000",
      "reserved": "",
      "assetIds": [
        "55464657044963196816950587289035428064568320970692304673817341489687455367178",
        "55464657044963196816950587289035428064568320970692304673817341489687455367171",
        "55464657044963196816950587289035428064568320970692304673817341489687455367169",
        "55464657044963196816950587289035428064568320970692304673817341489687455367168",
        "55464657044963196816950587289035428064568320970692304673817341489687463725056"
      ]
    },
    {
      "x": 27,
      "y": 50,
      "size": 1,
      "price": "2106000000000000000000",
      "reserved": "",
      "assetIds": [
        "55464657044963196816950587289035428064568320970692304673817341489687455367182",
        "55464657044963196816950587289035428064568320970692304673817341489687455367171",
        "55464657044963196816950587289035428064568320970692304673817341489687455367169",
        "55464657044963196816950587289035428064568320970692304673817341489687455367168",
        "55464657044963196816950587289035428064568320970692304673817341489687463725056"
      ]
    },
    {
      "x": 26,
      "y": 51,
      "size": 1,
      "price": "2106000000000000000000",
      "reserved": "",
      "assetIds": [
        "55464657044963196816950587289035428064568320970692304673817341489687455367176",
        "55464657044963196816950587289035428064568320970692304673817341489687455367170",
        "55464657044963196816950587289035428064568320970692304673817341489687455367169",
        "55464657044963196816950587289035428064568320970692304673817341489687455367168",
        "55464657044963196816950587289035428064568320970692304673817341489687463725056"
      ]
    },
    {
      "x": 25,
      "y": 51,
      "size": 1,
      "price": "2106000000000000000000",
      "reserved": "",
      "assetIds": [
        "55464657044963196816950587289035428064568320970692304673817341489687455367176",
        "55464657044963196816950587289035428064568320970692304673817341489687455367170",
        "55464657044963196816950587289035428064568320970692304673817341489687455367169",
        "55464657044963196816950587289035428064568320970692304673817341489687455367168",
        "55464657044963196816950587289035428064568320970692304673817341489687463725056"
      ]
    },
    {
      "x": 26,
      "y": 50,
      "size": 1,
      "price": "2106000000000000000000",
      "reserved": "",
      "assetIds": [
        "55464657044963196816950587289035428064568320970692304673817341489687455367180",
        "55464657044963196816950587289035428064568320970692304673817341489687455367171",
        "55464657044963196816950587289035428064568320970692304673817341489687455367169",
        "55464657044963196816950587289035428064568320970692304673817341489687455367168",
        "55464657044963196816950587289035428064568320970692304673817341489687463725056"
      ]
    },
    {
      "x": 29,
      "y": 50,
      "size": 1,
      "price": "2106000000000000000000",
      "reserved": "",
      "assetIds": [
        "55464657044963196816950587289035428064568320970692304673817341489687455367182",
        "55464657044963196816950587289035428064568320970692304673817341489687455367171",
        "55464657044963196816950587289035428064568320970692304673817341489687455367169",
        "55464657044963196816950587289035428064568320970692304673817341489687455367168",
        "55464657044963196816950587289035428064568320970692304673817341489687463725056"
      ]
    },
    {
      "x": 25,
      "y": 50,
      "size": 1,
      "price": "2106000000000000000000",
      "reserved": "",
      "assetIds": [
        "55464657044963196816950587289035428064568320970692304673817341489687455367172",
        "55464657044963196816950587289035428064568320970692304673817341489687455367170",
        "55464657044963196816950587289035428064568320970692304673817341489687455367169",
        "55464657044963196816950587289035428064568320970692304673817341489687455367168",
        "55464657044963196816950587289035428064568320970692304673817341489687463725056"
      ]
    },
    {
      "x": 24,
      "y": 50,
      "size": 1,
      "price": "2106000000000000000000",
      "reserved": "",
      "assetIds": [
        "55464657044963196816950587289035428064568320970692304673817341489687455367180",
        "55464657044963196816950587289035428064568320970692304673817341489687455367171",
        "55464657044963196816950587289035428064568320970692304673817341489687455367169",
        "55464657044963196816950587289035428064568320970692304673817341489687455367168",
        "55464657044963196816950587289035428064568320970692304673817341489687463725056"
      ]
    },
    {
      "x": 24,
      "y": 51,
      "size": 1,
      "price": "2106000000000000000000",
      "reserved": "",
      "assetIds": [
        "55464657044963196816950587289035428064568320970692304673817341489687455367178",
        "55464657044963196816950587289035428064568320970692304673817341489687455367171",
        "55464657044963196816950587289035428064568320970692304673817341489687455367169",
        "55464657044963196816950587289035428064568320970692304673817341489687455367168",
        "55464657044963196816950587289035428064568320970692304673817341489687463725056"
      ]
    },
    {
      "x": 24,
      "y": 52,
      "size": 1,
      "price": "2106000000000000000000",
      "reserved": "",
      "assetIds": [
        "55464657044963196816950587289035428064568320970692304673817341489687455367180",
        "55464657044963196816950587289035428064568320970692304673817341489687455367171",
        "55464657044963196816950587289035428064568320970692304673817341489687455367169",
        "55464657044963196816950587289035428064568320970692304673817341489687455367168",
        "55464657044963196816950587289035428064568320970692304673817341489687463725056"
      ]
    },
    {
      "x": 25,
      "y": 52,
      "size": 1,
      "price": "2106000000000000000000",
      "reserved": "",
      "assetIds": [
        "55464657044963196816950587289035428064568320970692304673817341489687455367178",
        "55464657044963196816950587289035428064568320970692304673817341489687455367171",
        "55464657044963196816950587289035428064568320970692304673817341489687455367169",
        "55464657044963196816950587289035428064568320970692304673817341489687455367168",
        "55464657044963196816950587289035428064568320970692304673817341489687463725056"
      ]
    },
    {
      "x": 26,
      "y": 52,
      "size": 1,
      "price": "2106000000000000000000",
      "reserved": "",
      "assetIds": [
        "55464657044963196816950587289035428064568320970692304673817341489687455367183",
        "55464657044963196816950587289035428064568320970692304673817341489687455367171",
        "55464657044963196816950587289035428064568320970692304673817341489687455367169",
        "55464657044963196816950587289035428064568320970692304673817341489687455367168",
        "55464657044963196816950587289035428064568320970692304673817341489687463725056"
      ]
    },
    {
      "x": 27,
      "y": 52,
      "size": 1,
      "price": "2106000000000000000000",
      "reserved": "",
      "assetIds": [
        "55464657044963196816950587289035428064568320970692304673817341489687455367173",
        "55464657044963196816950587289035428064568320970692304673817341489687455367170",
        "55464657044963196816950587289035428064568320970692304673817341489687455367169",
        "55464657044963196816950587289035428064568320970692304673817341489687455367168",
        "55464657044963196816950587289035428064568320970692304673817341489687463725056"
      ]
    },
    {
      "x": 28,
      "y": 52,
      "size": 1,
      "price": "2106000000000000000000",
      "reserved": "",
      "assetIds": [
        "55464657044963196816950587289035428064568320970692304673817341489687455367176",
        "55464657044963196816950587289035428064568320970692304673817341489687455367170",
        "55464657044963196816950587289035428064568320970692304673817341489687455367169",
        "55464657044963196816950587289035428064568320970692304673817341489687455367168",
        "55464657044963196816950587289035428064568320970692304673817341489687463725056"
      ]
    },
    {
      "x": 29,
      "y": 52,
      "size": 1,
      "price": "2106000000000000000000",
      "reserved": "",
      "assetIds": [
        "55464657044963196816950587289035428064568320970692304673817341489687455367176",
        "55464657044963196816950587289035428064568320970692304673817341489687455367170",
        "55464657044963196816950587289035428064568320970692304673817341489687455367169",
        "55464657044963196816950587289035428064568320970692304673817341489687455367168",
        "55464657044963196816950587289035428064568320970692304673817341489687463725056"
      ]
    },
    {
      "x": 30,
      "y": 52,
      "size": 1,
      "price": "2106000000000000000000",
      "reserved": "",
      "assetIds": [
        "55464657044963196816950587289035428064568320970692304673817341489687455367181",
        "55464657044963196816950587289035428064568320970692304673817341489687455367171",
        "55464657044963196816950587289035428064568320970692304673817341489687455367169",
        "55464657044963196816950587289035428064568320970692304673817341489687455367168",
        "55464657044963196816950587289035428064568320970692304673817341489687463725056"
      ]
    },
    {
      "x": 31,
      "y": 52,
      "size": 1,
      "price": "2106000000000000000000",
      "reserved": "",
      "assetIds": [
        "55464657044963196816950587289035428064568320970692304673817341489687455367174",
        "55464657044963196816950587289035428064568320970692304673817341489687455367170",
        "55464657044963196816950587289035428064568320970692304673817341489687455367169",
        "55464657044963196816950587289035428064568320970692304673817341489687455367168",
        "55464657044963196816950587289035428064568320970692304673817341489687463725056"
      ]
    },
    {
      "x": 32,
      "y": 52,
      "size": 1,
      "price": "2106000000000000000000",
      "reserved": "",
      "assetIds": [
        "55464657044963196816950587289035428064568320970692304673817341489687455367181",
        "55464657044963196816950587289035428064568320970692304673817341489687455367171",
        "55464657044963196816950587289035428064568320970692304673817341489687455367169",
        "55464657044963196816950587289035428064568320970692304673817341489687455367168",
        "55464657044963196816950587289035428064568320970692304673817341489687463725056"
      ]
    },
    {
      "x": 33,
      "y": 52,
      "size": 1,
      "price": "2106000000000000000000",
      "reserved": "",
      "assetIds": [
        "55464657044963196816950587289035428064568320970692304673817341489687455367176",
        "55464657044963196816950587289035428064568320970692304673817341489687455367170",
        "55464657044963196816950587289035428064568320970692304673817341489687455367169",
        "55464657044963196816950587289035428064568320970692304673817341489687455367168",
        "55464657044963196816950587289035428064568320970692304673817341489687463725056"
      ]
    },
    {
      "x": 34,
      "y": 52,
      "size": 1,
      "price": "2106000000000000000000",
      "reserved": "",
      "assetIds": [
        "55464657044963196816950587289035428064568320970692304673817341489687455367177",
        "55464657044963196816950587289035428064568320970692304673817341489687455367170",
        "55464657044963196816950587289035428064568320970692304673817341489687455367169",
        "55464657044963196816950587289035428064568320970692304673817341489687455367168",
        "55464657044963196816950587289035428064568320970692304673817341489687463725056"
      ]
    },
    {
      "x": 35,
      "y": 52,
      "size": 1,
      "price": "2106000000000000000000",
      "reserved": "",
      "assetIds": [
        "55464657044963196816950587289035428064568320970692304673817341489687455367173",
        "55464657044963196816950587289035428064568320970692304673817341489687455367170",
        "55464657044963196816950587289035428064568320970692304673817341489687455367169",
        "55464657044963196816950587289035428064568320970692304673817341489687455367168",
        "55464657044963196816950587289035428064568320970692304673817341489687463725056"
      ]
    },
    {
      "x": 36,
      "y": 52,
      "size": 1,
      "price": "2106000000000000000000",
      "reserved": "",
      "assetIds": [
        "55464657044963196816950587289035428064568320970692304673817341489687455367179",
        "55464657044963196816950587289035428064568320970692304673817341489687455367171",
        "55464657044963196816950587289035428064568320970692304673817341489687455367169",
        "55464657044963196816950587289035428064568320970692304673817341489687455367168",
        "55464657044963196816950587289035428064568320970692304673817341489687463725056"
      ]
    },
    {
      "x": 34,
      "y": 53,
      "size": 1,
      "price": "2106000000000000000000",
      "reserved": "",
      "assetIds": [
        "55464657044963196816950587289035428064568320970692304673817341489687455367173",
        "55464657044963196816950587289035428064568320970692304673817341489687455367170",
        "55464657044963196816950587289035428064568320970692304673817341489687455367169",
        "55464657044963196816950587289035428064568320970692304673817341489687455367168",
        "55464657044963196816950587289035428064568320970692304673817341489687463725056"
      ]
    },
    {
      "x": 33,
      "y": 53,
      "size": 1,
      "price": "2106000000000000000000",
      "reserved": "",
      "assetIds": [
        "55464657044963196816950587289035428064568320970692304673817341489687455367177",
        "55464657044963196816950587289035428064568320970692304673817341489687455367170",
        "55464657044963196816950587289035428064568320970692304673817341489687455367169",
        "55464657044963196816950587289035428064568320970692304673817341489687455367168",
        "55464657044963196816950587289035428064568320970692304673817341489687463725056"
      ]
    },
    {
      "x": 32,
      "y": 53,
      "size": 1,
      "price": "2106000000000000000000",
      "reserved": "",
      "assetIds": [
        "55464657044963196816950587289035428064568320970692304673817341489687455367172",
        "55464657044963196816950587289035428064568320970692304673817341489687455367170",
        "55464657044963196816950587289035428064568320970692304673817341489687455367169",
        "55464657044963196816950587289035428064568320970692304673817341489687455367168",
        "55464657044963196816950587289035428064568320970692304673817341489687463725056"
      ]
    },
    {
      "x": 31,
      "y": 53,
      "size": 1,
      "price": "2106000000000000000000",
      "reserved": "",
      "assetIds": [
        "55464657044963196816950587289035428064568320970692304673817341489687455367180",
        "55464657044963196816950587289035428064568320970692304673817341489687455367171",
        "55464657044963196816950587289035428064568320970692304673817341489687455367169",
        "55464657044963196816950587289035428064568320970692304673817341489687455367168",
        "55464657044963196816950587289035428064568320970692304673817341489687463725056"
      ]
    },
    {
      "x": 30,
      "y": 53,
      "size": 1,
      "price": "2106000000000000000000",
      "reserved": "",
      "assetIds": [
        "55464657044963196816950587289035428064568320970692304673817341489687455367172",
        "55464657044963196816950587289035428064568320970692304673817341489687455367170",
        "55464657044963196816950587289035428064568320970692304673817341489687455367169",
        "55464657044963196816950587289035428064568320970692304673817341489687455367168",
        "55464657044963196816950587289035428064568320970692304673817341489687463725056"
      ]
    },
    {
      "x": 29,
      "y": 53,
      "size": 1,
      "price": "2106000000000000000000",
      "reserved": "",
      "assetIds": [
        "55464657044963196816950587289035428064568320970692304673817341489687455367172",
        "55464657044963196816950587289035428064568320970692304673817341489687455367170",
        "55464657044963196816950587289035428064568320970692304673817341489687455367169",
        "55464657044963196816950587289035428064568320970692304673817341489687455367168",
        "55464657044963196816950587289035428064568320970692304673817341489687463725056"
      ]
    },
    {
      "x": 28,
      "y": 53,
      "size": 1,
      "price": "2106000000000000000000",
      "reserved": "",
      "assetIds": [
        "55464657044963196816950587289035428064568320970692304673817341489687455367179",
        "55464657044963196816950587289035428064568320970692304673817341489687455367171",
        "55464657044963196816950587289035428064568320970692304673817341489687455367169",
        "55464657044963196816950587289035428064568320970692304673817341489687455367168",
        "55464657044963196816950587289035428064568320970692304673817341489687463725056"
      ]
    },
    {
      "x": 27,
      "y": 53,
      "size": 1,
      "price": "2106000000000000000000",
      "reserved": "",
      "assetIds": [
        "55464657044963196816950587289035428064568320970692304673817341489687455367173",
        "55464657044963196816950587289035428064568320970692304673817341489687455367170",
        "55464657044963196816950587289035428064568320970692304673817341489687455367169",
        "55464657044963196816950587289035428064568320970692304673817341489687455367168",
        "55464657044963196816950587289035428064568320970692304673817341489687463725056"
      ]
    },
    {
      "x": 26,
      "y": 53,
      "size": 1,
      "price": "2106000000000000000000",
      "reserved": "",
      "assetIds": [
        "55464657044963196816950587289035428064568320970692304673817341489687455367178",
        "55464657044963196816950587289035428064568320970692304673817341489687455367171",
        "55464657044963196816950587289035428064568320970692304673817341489687455367169",
        "55464657044963196816950587289035428064568320970692304673817341489687455367168",
        "55464657044963196816950587289035428064568320970692304673817341489687463725056"
      ]
    },
    {
      "x": 25,
      "y": 53,
      "size": 1,
      "price": "2106000000000000000000",
      "reserved": "",
      "assetIds": [
        "55464657044963196816950587289035428064568320970692304673817341489687455367177",
        "55464657044963196816950587289035428064568320970692304673817341489687455367170",
        "55464657044963196816950587289035428064568320970692304673817341489687455367169",
        "55464657044963196816950587289035428064568320970692304673817341489687455367168",
        "55464657044963196816950587289035428064568320970692304673817341489687463725056"
      ]
    },
    {
      "x": 27,
      "y": 51,
      "size": 1,
      "price": "2106000000000000000000",
      "reserved": "",
      "assetIds": [
        "55464657044963196816950587289035428064568320970692304673817341489687455367180",
        "55464657044963196816950587289035428064568320970692304673817341489687455367171",
        "55464657044963196816950587289035428064568320970692304673817341489687455367169",
        "55464657044963196816950587289035428064568320970692304673817341489687455367168",
        "55464657044963196816950587289035428064568320970692304673817341489687463725056"
      ]
    },
    {
      "x": 28,
      "y": 51,
      "size": 1,
      "price": "2106000000000000000000",
      "reserved": "",
      "assetIds": [
        "55464657044963196816950587289035428064568320970692304673817341489687455367181",
        "55464657044963196816950587289035428064568320970692304673817341489687455367171",
        "55464657044963196816950587289035428064568320970692304673817341489687455367169",
        "55464657044963196816950587289035428064568320970692304673817341489687455367168",
        "55464657044963196816950587289035428064568320970692304673817341489687463725056"
      ]
    },
    {
      "x": 29,
      "y": 51,
      "size": 1,
      "price": "2106000000000000000000",
      "reserved": "",
      "assetIds": [
        "55464657044963196816950587289035428064568320970692304673817341489687455367176",
        "55464657044963196816950587289035428064568320970692304673817341489687455367170",
        "55464657044963196816950587289035428064568320970692304673817341489687455367169",
        "55464657044963196816950587289035428064568320970692304673817341489687455367168",
        "55464657044963196816950587289035428064568320970692304673817341489687463725056"
      ]
    },
    {
      "x": 30,
      "y": 51,
      "size": 1,
      "price": "2106000000000000000000",
      "reserved": "",
      "assetIds": [
        "55464657044963196816950587289035428064568320970692304673817341489687455367175",
        "55464657044963196816950587289035428064568320970692304673817341489687455367170",
        "55464657044963196816950587289035428064568320970692304673817341489687455367169",
        "55464657044963196816950587289035428064568320970692304673817341489687455367168",
        "55464657044963196816950587289035428064568320970692304673817341489687463725056"
      ]
    },
    {
      "x": 31,
      "y": 51,
      "size": 1,
      "price": "2106000000000000000000",
      "reserved": "",
      "assetIds": [
        "55464657044963196816950587289035428064568320970692304673817341489687455367183",
        "55464657044963196816950587289035428064568320970692304673817341489687455367171",
        "55464657044963196816950587289035428064568320970692304673817341489687455367169",
        "55464657044963196816950587289035428064568320970692304673817341489687455367168",
        "55464657044963196816950587289035428064568320970692304673817341489687463725056"
      ]
    },
    {
      "x": 32,
      "y": 51,
      "size": 1,
      "price": "2106000000000000000000",
      "reserved": "",
      "assetIds": [
        "55464657044963196816950587289035428064568320970692304673817341489687455367175",
        "55464657044963196816950587289035428064568320970692304673817341489687455367170",
        "55464657044963196816950587289035428064568320970692304673817341489687455367169",
        "55464657044963196816950587289035428064568320970692304673817341489687455367168",
        "55464657044963196816950587289035428064568320970692304673817341489687463725056"
      ]
    },
    {
      "x": 35,
      "y": 51,
      "size": 1,
      "price": "2106000000000000000000",
      "reserved": "",
      "assetIds": [
        "55464657044963196816950587289035428064568320970692304673817341489687455367178",
        "55464657044963196816950587289035428064568320970692304673817341489687455367171",
        "55464657044963196816950587289035428064568320970692304673817341489687455367169",
        "55464657044963196816950587289035428064568320970692304673817341489687455367168",
        "55464657044963196816950587289035428064568320970692304673817341489687463725056"
      ]
    },
    {
      "x": 34,
      "y": 51,
      "size": 1,
      "price": "2106000000000000000000",
      "reserved": "",
      "assetIds": [
        "55464657044963196816950587289035428064568320970692304673817341489687455367174",
        "55464657044963196816950587289035428064568320970692304673817341489687455367170",
        "55464657044963196816950587289035428064568320970692304673817341489687455367169",
        "55464657044963196816950587289035428064568320970692304673817341489687455367168",
        "55464657044963196816950587289035428064568320970692304673817341489687463725056"
      ]
    },
    {
      "x": 33,
      "y": 51,
      "size": 1,
      "price": "2106000000000000000000",
      "reserved": "",
      "assetIds": [
        "55464657044963196816950587289035428064568320970692304673817341489687455367177",
        "55464657044963196816950587289035428064568320970692304673817341489687455367170",
        "55464657044963196816950587289035428064568320970692304673817341489687455367169",
        "55464657044963196816950587289035428064568320970692304673817341489687455367168",
        "55464657044963196816950587289035428064568320970692304673817341489687463725056"
      ]
    },
    {
      "x": 32,
      "y": 54,
      "size": 1,
      "price": "2106000000000000000000",
      "reserved": "",
      "assetIds": [
        "55464657044963196816950587289035428064568320970692304673817341489687455367180",
        "55464657044963196816950587289035428064568320970692304673817341489687455367171",
        "55464657044963196816950587289035428064568320970692304673817341489687455367169",
        "55464657044963196816950587289035428064568320970692304673817341489687455367168",
        "55464657044963196816950587289035428064568320970692304673817341489687463725056"
      ]
    },
    {
      "x": 33,
      "y": 54,
      "size": 1,
      "price": "2106000000000000000000",
      "reserved": "",
      "assetIds": [
        "55464657044963196816950587289035428064568320970692304673817341489687455367175",
        "55464657044963196816950587289035428064568320970692304673817341489687455367170",
        "55464657044963196816950587289035428064568320970692304673817341489687455367169",
        "55464657044963196816950587289035428064568320970692304673817341489687455367168",
        "55464657044963196816950587289035428064568320970692304673817341489687463725056"
      ]
    },
    {
      "x": 32,
      "y": 55,
      "size": 1,
      "price": "2106000000000000000000",
      "reserved": "",
      "assetIds": [
        "55464657044963196816950587289035428064568320970692304673817341489687455367177",
        "55464657044963196816950587289035428064568320970692304673817341489687455367170",
        "55464657044963196816950587289035428064568320970692304673817341489687455367169",
        "55464657044963196816950587289035428064568320970692304673817341489687455367168",
        "55464657044963196816950587289035428064568320970692304673817341489687463725056"
      ]
    },
    {
      "x": 32,
      "y": 56,
      "size": 1,
      "price": "2106000000000000000000",
      "reserved": "",
      "assetIds": [
        "55464657044963196816950587289035428064568320970692304673817341489687455367182",
        "55464657044963196816950587289035428064568320970692304673817341489687455367171",
        "55464657044963196816950587289035428064568320970692304673817341489687455367169",
        "55464657044963196816950587289035428064568320970692304673817341489687455367168",
        "55464657044963196816950587289035428064568320970692304673817341489687463725056"
      ]
    },
    {
      "x": 33,
      "y": 56,
      "size": 1,
      "price": "2106000000000000000000",
      "reserved": "",
      "assetIds": [
        "55464657044963196816950587289035428064568320970692304673817341489687455367181",
        "55464657044963196816950587289035428064568320970692304673817341489687455367171",
        "55464657044963196816950587289035428064568320970692304673817341489687455367169",
        "55464657044963196816950587289035428064568320970692304673817341489687455367168",
        "55464657044963196816950587289035428064568320970692304673817341489687463725056"
      ]
    },
    {
      "x": 34,
      "y": 56,
      "size": 1,
      "price": "2106000000000000000000",
      "reserved": "",
      "assetIds": [
        "55464657044963196816950587289035428064568320970692304673817341489687455367173",
        "55464657044963196816950587289035428064568320970692304673817341489687455367170",
        "55464657044963196816950587289035428064568320970692304673817341489687455367169",
        "55464657044963196816950587289035428064568320970692304673817341489687455367168",
        "55464657044963196816950587289035428064568320970692304673817341489687463725056"
      ]
    },
    {
      "x": 34,
      "y": 55,
      "size": 1,
      "price": "2106000000000000000000",
      "reserved": "",
      "assetIds": [
        "55464657044963196816950587289035428064568320970692304673817341489687455367175",
        "55464657044963196816950587289035428064568320970692304673817341489687455367170",
        "55464657044963196816950587289035428064568320970692304673817341489687455367169",
        "55464657044963196816950587289035428064568320970692304673817341489687455367168",
        "55464657044963196816950587289035428064568320970692304673817341489687463725056"
      ]
    },
    {
      "x": 35,
      "y": 55,
      "size": 1,
      "price": "2106000000000000000000",
      "reserved": "",
      "assetIds": [
        "55464657044963196816950587289035428064568320970692304673817341489687455367183",
        "55464657044963196816950587289035428064568320970692304673817341489687455367171",
        "55464657044963196816950587289035428064568320970692304673817341489687455367169",
        "55464657044963196816950587289035428064568320970692304673817341489687455367168",
        "55464657044963196816950587289035428064568320970692304673817341489687463725056"
      ]
    },
    {
      "x": 36,
      "y": 54,
      "size": 1,
      "price": "2106000000000000000000",
      "reserved": "",
      "assetIds": [
        "55464657044963196816950587289035428064568320970692304673817341489687455367177",
        "55464657044963196816950587289035428064568320970692304673817341489687455367170",
        "55464657044963196816950587289035428064568320970692304673817341489687455367169",
        "55464657044963196816950587289035428064568320970692304673817341489687455367168",
        "55464657044963196816950587289035428064568320970692304673817341489687463725056"
      ]
    },
    {
      "x": 37,
      "y": 54,
      "size": 1,
      "price": "2106000000000000000000",
      "reserved": "",
      "assetIds": [
        "55464657044963196816950587289035428064568320970692304673817341489687455367182",
        "55464657044963196816950587289035428064568320970692304673817341489687455367171",
        "55464657044963196816950587289035428064568320970692304673817341489687455367169",
        "55464657044963196816950587289035428064568320970692304673817341489687455367168",
        "55464657044963196816950587289035428064568320970692304673817341489687463725056"
      ]
    },
    {
      "x": 37,
      "y": 53,
      "size": 1,
      "price": "2106000000000000000000",
      "reserved": "",
      "assetIds": [
        "55464657044963196816950587289035428064568320970692304673817341489687455367177",
        "55464657044963196816950587289035428064568320970692304673817341489687455367170",
        "55464657044963196816950587289035428064568320970692304673817341489687455367169",
        "55464657044963196816950587289035428064568320970692304673817341489687455367168",
        "55464657044963196816950587289035428064568320970692304673817341489687463725056"
      ]
    },
    {
      "x": 36,
      "y": 53,
      "size": 1,
      "price": "2106000000000000000000",
      "reserved": "",
      "assetIds": [
        "55464657044963196816950587289035428064568320970692304673817341489687455367182",
        "55464657044963196816950587289035428064568320970692304673817341489687455367171",
        "55464657044963196816950587289035428064568320970692304673817341489687455367169",
        "55464657044963196816950587289035428064568320970692304673817341489687455367168",
        "55464657044963196816950587289035428064568320970692304673817341489687463725056"
      ]
    },
    {
      "x": 35,
      "y": 53,
      "size": 1,
      "price": "2106000000000000000000",
      "reserved": "",
      "assetIds": [
        "55464657044963196816950587289035428064568320970692304673817341489687455367182",
        "55464657044963196816950587289035428064568320970692304673817341489687455367171",
        "55464657044963196816950587289035428064568320970692304673817341489687455367169",
        "55464657044963196816950587289035428064568320970692304673817341489687455367168",
        "55464657044963196816950587289035428064568320970692304673817341489687463725056"
      ]
    },
    {
      "x": 35,
      "y": 54,
      "size": 1,
      "price": "2106000000000000000000",
      "reserved": "",
      "assetIds": [
        "55464657044963196816950587289035428064568320970692304673817341489687455367182",
        "55464657044963196816950587289035428064568320970692304673817341489687455367171",
        "55464657044963196816950587289035428064568320970692304673817341489687455367169",
        "55464657044963196816950587289035428064568320970692304673817341489687455367168",
        "55464657044963196816950587289035428064568320970692304673817341489687463725056"
      ]
    },
    {
      "x": 34,
      "y": 54,
      "size": 1,
      "price": "2106000000000000000000",
      "reserved": "",
      "assetIds": [
        "55464657044963196816950587289035428064568320970692304673817341489687455367175",
        "55464657044963196816950587289035428064568320970692304673817341489687455367170",
        "55464657044963196816950587289035428064568320970692304673817341489687455367169",
        "55464657044963196816950587289035428064568320970692304673817341489687455367168",
        "55464657044963196816950587289035428064568320970692304673817341489687463725056"
      ]
    },
    {
      "x": 33,
      "y": 55,
      "size": 1,
      "price": "2106000000000000000000",
      "reserved": "",
      "assetIds": [
        "55464657044963196816950587289035428064568320970692304673817341489687455367182",
        "55464657044963196816950587289035428064568320970692304673817341489687455367171",
        "55464657044963196816950587289035428064568320970692304673817341489687455367169",
        "55464657044963196816950587289035428064568320970692304673817341489687455367168",
        "55464657044963196816950587289035428064568320970692304673817341489687463725056"
      ]
    },
    {
      "x": 38,
      "y": 54,
      "size": 1,
      "price": "2106000000000000000000",
      "reserved": "",
      "assetIds": [
        "55464657044963196816950587289035428064568320970692304673817341489687455367180",
        "55464657044963196816950587289035428064568320970692304673817341489687455367171",
        "55464657044963196816950587289035428064568320970692304673817341489687455367169",
        "55464657044963196816950587289035428064568320970692304673817341489687455367168",
        "55464657044963196816950587289035428064568320970692304673817341489687463725056"
      ]
    },
    {
      "x": 39,
      "y": 54,
      "size": 1,
      "price": "2106000000000000000000",
      "reserved": "",
      "assetIds": [
        "55464657044963196816950587289035428064568320970692304673817341489687455367179",
        "55464657044963196816950587289035428064568320970692304673817341489687455367171",
        "55464657044963196816950587289035428064568320970692304673817341489687455367169",
        "55464657044963196816950587289035428064568320970692304673817341489687455367168",
        "55464657044963196816950587289035428064568320970692304673817341489687463725056"
      ]
    },
    {
      "x": 40,
      "y": 54,
      "size": 1,
      "price": "2106000000000000000000",
      "reserved": "",
      "assetIds": [
        "55464657044963196816950587289035428064568320970692304673817341489687455367183",
        "55464657044963196816950587289035428064568320970692304673817341489687455367171",
        "55464657044963196816950587289035428064568320970692304673817341489687455367169",
        "55464657044963196816950587289035428064568320970692304673817341489687455367168",
        "55464657044963196816950587289035428064568320970692304673817341489687463725056"
      ]
    },
    {
      "x": 41,
      "y": 54,
      "size": 1,
      "price": "2106000000000000000000",
      "reserved": "",
      "assetIds": [
        "55464657044963196816950587289035428064568320970692304673817341489687455367172",
        "55464657044963196816950587289035428064568320970692304673817341489687455367170",
        "55464657044963196816950587289035428064568320970692304673817341489687455367169",
        "55464657044963196816950587289035428064568320970692304673817341489687455367168",
        "55464657044963196816950587289035428064568320970692304673817341489687463725056"
      ]
    },
    {
      "x": 42,
      "y": 54,
      "size": 1,
      "price": "2106000000000000000000",
      "reserved": "",
      "assetIds": [
        "55464657044963196816950587289035428064568320970692304673817341489687455367179",
        "55464657044963196816950587289035428064568320970692304673817341489687455367171",
        "55464657044963196816950587289035428064568320970692304673817341489687455367169",
        "55464657044963196816950587289035428064568320970692304673817341489687455367168",
        "55464657044963196816950587289035428064568320970692304673817341489687463725056"
      ]
    },
    {
      "x": 43,
      "y": 54,
      "size": 1,
      "price": "2106000000000000000000",
      "reserved": "",
      "assetIds": [
        "55464657044963196816950587289035428064568320970692304673817341489687455367175",
        "55464657044963196816950587289035428064568320970692304673817341489687455367170",
        "55464657044963196816950587289035428064568320970692304673817341489687455367169",
        "55464657044963196816950587289035428064568320970692304673817341489687455367168",
        "55464657044963196816950587289035428064568320970692304673817341489687463725056"
      ]
    },
    {
      "x": 44,
      "y": 54,
      "size": 1,
      "price": "2106000000000000000000",
      "reserved": "",
      "assetIds": [
        "55464657044963196816950587289035428064568320970692304673817341489687455367174",
        "55464657044963196816950587289035428064568320970692304673817341489687455367170",
        "55464657044963196816950587289035428064568320970692304673817341489687455367169",
        "55464657044963196816950587289035428064568320970692304673817341489687455367168",
        "55464657044963196816950587289035428064568320970692304673817341489687463725056"
      ]
    },
    {
      "x": 45,
      "y": 54,
      "size": 1,
      "price": "2106000000000000000000",
      "reserved": "",
      "assetIds": [
        "55464657044963196816950587289035428064568320970692304673817341489687455367181",
        "55464657044963196816950587289035428064568320970692304673817341489687455367171",
        "55464657044963196816950587289035428064568320970692304673817341489687455367169",
        "55464657044963196816950587289035428064568320970692304673817341489687455367168",
        "55464657044963196816950587289035428064568320970692304673817341489687463725056"
      ]
    },
    {
      "x": 46,
      "y": 54,
      "size": 1,
      "price": "2106000000000000000000",
      "reserved": "",
      "assetIds": [
        "55464657044963196816950587289035428064568320970692304673817341489687455367181",
        "55464657044963196816950587289035428064568320970692304673817341489687455367171",
        "55464657044963196816950587289035428064568320970692304673817341489687455367169",
        "55464657044963196816950587289035428064568320970692304673817341489687455367168",
        "55464657044963196816950587289035428064568320970692304673817341489687463725056"
      ]
    },
    {
      "x": 47,
      "y": 54,
      "size": 1,
      "price": "2106000000000000000000",
      "reserved": "",
      "assetIds": [
        "55464657044963196816950587289035428064568320970692304673817341489687455367174",
        "55464657044963196816950587289035428064568320970692304673817341489687455367170",
        "55464657044963196816950587289035428064568320970692304673817341489687455367169",
        "55464657044963196816950587289035428064568320970692304673817341489687455367168",
        "55464657044963196816950587289035428064568320970692304673817341489687463725056"
      ]
    },
    {
      "x": 48,
      "y": 55,
      "size": 1,
      "price": "2106000000000000000000",
      "reserved": "",
      "assetIds": [
        "55464657044963196816950587289035428064568320970692304673817341489687455367174",
        "55464657044963196816950587289035428064568320970692304673817341489687455367170",
        "55464657044963196816950587289035428064568320970692304673817341489687455367169",
        "55464657044963196816950587289035428064568320970692304673817341489687455367168",
        "55464657044963196816950587289035428064568320970692304673817341489687463725056"
      ]
    },
    {
      "x": 47,
      "y": 56,
      "size": 1,
      "price": "2106000000000000000000",
      "reserved": "",
      "assetIds": [
        "55464657044963196816950587289035428064568320970692304673817341489687455367183",
        "55464657044963196816950587289035428064568320970692304673817341489687455367171",
        "55464657044963196816950587289035428064568320970692304673817341489687455367169",
        "55464657044963196816950587289035428064568320970692304673817341489687455367168",
        "55464657044963196816950587289035428064568320970692304673817341489687463725056"
      ]
    },
    {
      "x": 46,
      "y": 56,
      "size": 1,
      "price": "2106000000000000000000",
      "reserved": "",
      "assetIds": [
        "55464657044963196816950587289035428064568320970692304673817341489687455367176",
        "55464657044963196816950587289035428064568320970692304673817341489687455367170",
        "55464657044963196816950587289035428064568320970692304673817341489687455367169",
        "55464657044963196816950587289035428064568320970692304673817341489687455367168",
        "55464657044963196816950587289035428064568320970692304673817341489687463725056"
      ]
    },
    {
      "x": 46,
      "y": 57,
      "size": 1,
      "price": "2106000000000000000000",
      "reserved": "",
      "assetIds": [
        "55464657044963196816950587289035428064568320970692304673817341489687455367174",
        "55464657044963196816950587289035428064568320970692304673817341489687455367170",
        "55464657044963196816950587289035428064568320970692304673817341489687455367169",
        "55464657044963196816950587289035428064568320970692304673817341489687455367168",
        "55464657044963196816950587289035428064568320970692304673817341489687463725056"
      ]
    },
    {
      "x": 47,
      "y": 55,
      "size": 1,
      "price": "2106000000000000000000",
      "reserved": "",
      "assetIds": [
        "55464657044963196816950587289035428064568320970692304673817341489687455367181",
        "55464657044963196816950587289035428064568320970692304673817341489687455367171",
        "55464657044963196816950587289035428064568320970692304673817341489687455367169",
        "55464657044963196816950587289035428064568320970692304673817341489687455367168",
        "55464657044963196816950587289035428064568320970692304673817341489687463725056"
      ]
    },
    {
      "x": 46,
      "y": 55,
      "size": 1,
      "price": "2106000000000000000000",
      "reserved": "",
      "assetIds": [
        "55464657044963196816950587289035428064568320970692304673817341489687455367179",
        "55464657044963196816950587289035428064568320970692304673817341489687455367171",
        "55464657044963196816950587289035428064568320970692304673817341489687455367169",
        "55464657044963196816950587289035428064568320970692304673817341489687455367168",
        "55464657044963196816950587289035428064568320970692304673817341489687463725056"
      ]
    },
    {
      "x": 45,
      "y": 55,
      "size": 1,
      "price": "2106000000000000000000",
      "reserved": "",
      "assetIds": [
        "55464657044963196816950587289035428064568320970692304673817341489687455367176",
        "55464657044963196816950587289035428064568320970692304673817341489687455367170",
        "55464657044963196816950587289035428064568320970692304673817341489687455367169",
        "55464657044963196816950587289035428064568320970692304673817341489687455367168",
        "55464657044963196816950587289035428064568320970692304673817341489687463725056"
      ]
    },
    {
      "x": 45,
      "y": 56,
      "size": 1,
      "price": "2106000000000000000000",
      "reserved": "",
      "assetIds": [
        "55464657044963196816950587289035428064568320970692304673817341489687455367173",
        "55464657044963196816950587289035428064568320970692304673817341489687455367170",
        "55464657044963196816950587289035428064568320970692304673817341489687455367169",
        "55464657044963196816950587289035428064568320970692304673817341489687455367168",
        "55464657044963196816950587289035428064568320970692304673817341489687463725056"
      ]
    },
    {
      "x": 44,
      "y": 56,
      "size": 1,
      "price": "2106000000000000000000",
      "reserved": "",
      "assetIds": [
        "55464657044963196816950587289035428064568320970692304673817341489687455367172",
        "55464657044963196816950587289035428064568320970692304673817341489687455367170",
        "55464657044963196816950587289035428064568320970692304673817341489687455367169",
        "55464657044963196816950587289035428064568320970692304673817341489687455367168",
        "55464657044963196816950587289035428064568320970692304673817341489687463725056"
      ]
    },
    {
      "x": 43,
      "y": 56,
      "size": 1,
      "price": "2106000000000000000000",
      "reserved": "",
      "assetIds": [
        "55464657044963196816950587289035428064568320970692304673817341489687455367178",
        "55464657044963196816950587289035428064568320970692304673817341489687455367171",
        "55464657044963196816950587289035428064568320970692304673817341489687455367169",
        "55464657044963196816950587289035428064568320970692304673817341489687455367168",
        "55464657044963196816950587289035428064568320970692304673817341489687463725056"
      ]
    },
    {
      "x": 42,
      "y": 56,
      "size": 1,
      "price": "2106000000000000000000",
      "reserved": "",
      "assetIds": [
        "55464657044963196816950587289035428064568320970692304673817341489687455367177",
        "55464657044963196816950587289035428064568320970692304673817341489687455367170",
        "55464657044963196816950587289035428064568320970692304673817341489687455367169",
        "55464657044963196816950587289035428064568320970692304673817341489687455367168",
        "55464657044963196816950587289035428064568320970692304673817341489687463725056"
      ]
    },
    {
      "x": 42,
      "y": 55,
      "size": 1,
      "price": "2106000000000000000000",
      "reserved": "",
      "assetIds": [
        "55464657044963196816950587289035428064568320970692304673817341489687455367179",
        "55464657044963196816950587289035428064568320970692304673817341489687455367171",
        "55464657044963196816950587289035428064568320970692304673817341489687455367169",
        "55464657044963196816950587289035428064568320970692304673817341489687455367168",
        "55464657044963196816950587289035428064568320970692304673817341489687463725056"
      ]
    },
    {
      "x": 40,
      "y": 55,
      "size": 1,
      "price": "2106000000000000000000",
      "reserved": "",
      "assetIds": [
        "55464657044963196816950587289035428064568320970692304673817341489687455367182",
        "55464657044963196816950587289035428064568320970692304673817341489687455367171",
        "55464657044963196816950587289035428064568320970692304673817341489687455367169",
        "55464657044963196816950587289035428064568320970692304673817341489687455367168",
        "55464657044963196816950587289035428064568320970692304673817341489687463725056"
      ]
    },
    {
      "x": 39,
      "y": 55,
      "size": 1,
      "price": "2106000000000000000000",
      "reserved": "",
      "assetIds": [
        "55464657044963196816950587289035428064568320970692304673817341489687455367177",
        "55464657044963196816950587289035428064568320970692304673817341489687455367170",
        "55464657044963196816950587289035428064568320970692304673817341489687455367169",
        "55464657044963196816950587289035428064568320970692304673817341489687455367168",
        "55464657044963196816950587289035428064568320970692304673817341489687463725056"
      ]
    },
    {
      "x": 44,
      "y": 55,
      "size": 1,
      "price": "2106000000000000000000",
      "reserved": "",
      "assetIds": [
        "55464657044963196816950587289035428064568320970692304673817341489687455367172",
        "55464657044963196816950587289035428064568320970692304673817341489687455367170",
        "55464657044963196816950587289035428064568320970692304673817341489687455367169",
        "55464657044963196816950587289035428064568320970692304673817341489687455367168",
        "55464657044963196816950587289035428064568320970692304673817341489687463725056"
      ]
    },
    {
      "x": 43,
      "y": 55,
      "size": 1,
      "price": "2106000000000000000000",
      "reserved": "",
      "assetIds": [
        "55464657044963196816950587289035428064568320970692304673817341489687455367176",
        "55464657044963196816950587289035428064568320970692304673817341489687455367170",
        "55464657044963196816950587289035428064568320970692304673817341489687455367169",
        "55464657044963196816950587289035428064568320970692304673817341489687455367168",
        "55464657044963196816950587289035428064568320970692304673817341489687463725056"
      ]
    },
    {
      "x": 41,
      "y": 56,
      "size": 1,
      "price": "2106000000000000000000",
      "reserved": "",
      "assetIds": [
        "55464657044963196816950587289035428064568320970692304673817341489687455367178",
        "55464657044963196816950587289035428064568320970692304673817341489687455367171",
        "55464657044963196816950587289035428064568320970692304673817341489687455367169",
        "55464657044963196816950587289035428064568320970692304673817341489687455367168",
        "55464657044963196816950587289035428064568320970692304673817341489687463725056"
      ]
    },
    {
      "x": 40,
      "y": 56,
      "size": 1,
      "price": "2106000000000000000000",
      "reserved": "",
      "assetIds": [
        "55464657044963196816950587289035428064568320970692304673817341489687455367180",
        "55464657044963196816950587289035428064568320970692304673817341489687455367171",
        "55464657044963196816950587289035428064568320970692304673817341489687455367169",
        "55464657044963196816950587289035428064568320970692304673817341489687455367168",
        "55464657044963196816950587289035428064568320970692304673817341489687463725056"
      ]
    },
    {
      "x": 39,
      "y": 56,
      "size": 1,
      "price": "2106000000000000000000",
      "reserved": "",
      "assetIds": [
        "55464657044963196816950587289035428064568320970692304673817341489687455367183",
        "55464657044963196816950587289035428064568320970692304673817341489687455367171",
        "55464657044963196816950587289035428064568320970692304673817341489687455367169",
        "55464657044963196816950587289035428064568320970692304673817341489687455367168",
        "55464657044963196816950587289035428064568320970692304673817341489687463725056"
      ]
    },
    {
      "x": 38,
      "y": 56,
      "size": 1,
      "price": "2106000000000000000000",
      "reserved": "",
      "assetIds": [
        "55464657044963196816950587289035428064568320970692304673817341489687455367172",
        "55464657044963196816950587289035428064568320970692304673817341489687455367170",
        "55464657044963196816950587289035428064568320970692304673817341489687455367169",
        "55464657044963196816950587289035428064568320970692304673817341489687455367168",
        "55464657044963196816950587289035428064568320970692304673817341489687463725056"
      ]
    },
    {
      "x": 37,
      "y": 56,
      "size": 1,
      "price": "2106000000000000000000",
      "reserved": "",
      "assetIds": [
        "55464657044963196816950587289035428064568320970692304673817341489687455367179",
        "55464657044963196816950587289035428064568320970692304673817341489687455367171",
        "55464657044963196816950587289035428064568320970692304673817341489687455367169",
        "55464657044963196816950587289035428064568320970692304673817341489687455367168",
        "55464657044963196816950587289035428064568320970692304673817341489687463725056"
      ]
    },
    {
      "x": 38,
      "y": 57,
      "size": 1,
      "price": "2106000000000000000000",
      "reserved": "",
      "assetIds": [
        "55464657044963196816950587289035428064568320970692304673817341489687455367182",
        "55464657044963196816950587289035428064568320970692304673817341489687455367171",
        "55464657044963196816950587289035428064568320970692304673817341489687455367169",
        "55464657044963196816950587289035428064568320970692304673817341489687455367168",
        "55464657044963196816950587289035428064568320970692304673817341489687463725056"
      ]
    },
    {
      "x": 38,
      "y": 58,
      "size": 1,
      "price": "2106000000000000000000",
      "reserved": "",
      "assetIds": [
        "55464657044963196816950587289035428064568320970692304673817341489687455367173",
        "55464657044963196816950587289035428064568320970692304673817341489687455367170",
        "55464657044963196816950587289035428064568320970692304673817341489687455367169",
        "55464657044963196816950587289035428064568320970692304673817341489687455367168",
        "55464657044963196816950587289035428064568320970692304673817341489687463725056"
      ]
    },
    {
      "x": 39,
      "y": 58,
      "size": 1,
      "price": "2106000000000000000000",
      "reserved": "",
      "assetIds": [
        "55464657044963196816950587289035428064568320970692304673817341489687455367172",
        "55464657044963196816950587289035428064568320970692304673817341489687455367170",
        "55464657044963196816950587289035428064568320970692304673817341489687455367169",
        "55464657044963196816950587289035428064568320970692304673817341489687455367168",
        "55464657044963196816950587289035428064568320970692304673817341489687463725056"
      ]
    },
    {
      "x": 39,
      "y": 57,
      "size": 1,
      "price": "2106000000000000000000",
      "reserved": "",
      "assetIds": [
        "55464657044963196816950587289035428064568320970692304673817341489687455367175",
        "55464657044963196816950587289035428064568320970692304673817341489687455367170",
        "55464657044963196816950587289035428064568320970692304673817341489687455367169",
        "55464657044963196816950587289035428064568320970692304673817341489687455367168",
        "55464657044963196816950587289035428064568320970692304673817341489687463725056"
      ]
    },
    {
      "x": 38,
      "y": 55,
      "size": 1,
      "price": "2106000000000000000000",
      "reserved": "",
      "assetIds": [
        "55464657044963196816950587289035428064568320970692304673817341489687455367176",
        "55464657044963196816950587289035428064568320970692304673817341489687455367170",
        "55464657044963196816950587289035428064568320970692304673817341489687455367169",
        "55464657044963196816950587289035428064568320970692304673817341489687455367168",
        "55464657044963196816950587289035428064568320970692304673817341489687463725056"
      ]
    },
    {
      "x": 37,
      "y": 55,
      "size": 1,
      "price": "2106000000000000000000",
      "reserved": "",
      "assetIds": [
        "55464657044963196816950587289035428064568320970692304673817341489687455367182",
        "55464657044963196816950587289035428064568320970692304673817341489687455367171",
        "55464657044963196816950587289035428064568320970692304673817341489687455367169",
        "55464657044963196816950587289035428064568320970692304673817341489687455367168",
        "55464657044963196816950587289035428064568320970692304673817341489687463725056"
      ]
    },
    {
      "x": 37,
      "y": 57,
      "size": 1,
      "price": "2106000000000000000000",
      "reserved": "",
      "assetIds": [
        "55464657044963196816950587289035428064568320970692304673817341489687455367179",
        "55464657044963196816950587289035428064568320970692304673817341489687455367171",
        "55464657044963196816950587289035428064568320970692304673817341489687455367169",
        "55464657044963196816950587289035428064568320970692304673817341489687455367168",
        "55464657044963196816950587289035428064568320970692304673817341489687463725056"
      ]
    },
    {
      "x": 37,
      "y": 58,
      "size": 1,
      "price": "2106000000000000000000",
      "reserved": "",
      "assetIds": [
        "55464657044963196816950587289035428064568320970692304673817341489687455367182",
        "55464657044963196816950587289035428064568320970692304673817341489687455367171",
        "55464657044963196816950587289035428064568320970692304673817341489687455367169",
        "55464657044963196816950587289035428064568320970692304673817341489687455367168",
        "55464657044963196816950587289035428064568320970692304673817341489687463725056"
      ]
    },
    {
      "x": 37,
      "y": 59,
      "size": 1,
      "price": "2106000000000000000000",
      "reserved": "",
      "assetIds": [
        "55464657044963196816950587289035428064568320970692304673817341489687455367178",
        "55464657044963196816950587289035428064568320970692304673817341489687455367171",
        "55464657044963196816950587289035428064568320970692304673817341489687455367169",
        "55464657044963196816950587289035428064568320970692304673817341489687455367168",
        "55464657044963196816950587289035428064568320970692304673817341489687463725056"
      ]
    },
    {
      "x": 38,
      "y": 59,
      "size": 1,
      "price": "2106000000000000000000",
      "reserved": "",
      "assetIds": [
        "55464657044963196816950587289035428064568320970692304673817341489687455367179",
        "55464657044963196816950587289035428064568320970692304673817341489687455367171",
        "55464657044963196816950587289035428064568320970692304673817341489687455367169",
        "55464657044963196816950587289035428064568320970692304673817341489687455367168",
        "55464657044963196816950587289035428064568320970692304673817341489687463725056"
      ]
    },
    {
      "x": 38,
      "y": 60,
      "size": 1,
      "price": "2106000000000000000000",
      "reserved": "",
      "assetIds": [
        "55464657044963196816950587289035428064568320970692304673817341489687455367178",
        "55464657044963196816950587289035428064568320970692304673817341489687455367171",
        "55464657044963196816950587289035428064568320970692304673817341489687455367169",
        "55464657044963196816950587289035428064568320970692304673817341489687455367168",
        "55464657044963196816950587289035428064568320970692304673817341489687463725056"
      ]
    },
    {
      "x": 38,
      "y": 61,
      "size": 1,
      "price": "2106000000000000000000",
      "reserved": "",
      "assetIds": [
        "55464657044963196816950587289035428064568320970692304673817341489687455367179",
        "55464657044963196816950587289035428064568320970692304673817341489687455367171",
        "55464657044963196816950587289035428064568320970692304673817341489687455367169",
        "55464657044963196816950587289035428064568320970692304673817341489687455367168",
        "55464657044963196816950587289035428064568320970692304673817341489687463725056"
      ]
    },
    {
      "x": 38,
      "y": 62,
      "size": 1,
      "price": "2106000000000000000000",
      "reserved": "",
      "assetIds": [
        "55464657044963196816950587289035428064568320970692304673817341489687455367178",
        "55464657044963196816950587289035428064568320970692304673817341489687455367171",
        "55464657044963196816950587289035428064568320970692304673817341489687455367169",
        "55464657044963196816950587289035428064568320970692304673817341489687455367168",
        "55464657044963196816950587289035428064568320970692304673817341489687463725056"
      ]
    },
    {
      "x": 38,
      "y": 63,
      "size": 1,
      "price": "2106000000000000000000",
      "reserved": "",
      "assetIds": [
        "55464657044963196816950587289035428064568320970692304673817341489687455367179",
        "55464657044963196816950587289035428064568320970692304673817341489687455367171",
        "55464657044963196816950587289035428064568320970692304673817341489687455367169",
        "55464657044963196816950587289035428064568320970692304673817341489687455367168",
        "55464657044963196816950587289035428064568320970692304673817341489687463725056"
      ]
    },
    {
      "x": 39,
      "y": 63,
      "size": 1,
      "price": "2106000000000000000000",
      "reserved": "",
      "assetIds": [
        "55464657044963196816950587289035428064568320970692304673817341489687455367176",
        "55464657044963196816950587289035428064568320970692304673817341489687455367170",
        "55464657044963196816950587289035428064568320970692304673817341489687455367169",
        "55464657044963196816950587289035428064568320970692304673817341489687455367168",
        "55464657044963196816950587289035428064568320970692304673817341489687463725056"
      ]
    },
    {
      "x": 40,
      "y": 63,
      "size": 1,
      "price": "2106000000000000000000",
      "reserved": "",
      "assetIds": [
        "55464657044963196816950587289035428064568320970692304673817341489687455367176",
        "55464657044963196816950587289035428064568320970692304673817341489687455367170",
        "55464657044963196816950587289035428064568320970692304673817341489687455367169",
        "55464657044963196816950587289035428064568320970692304673817341489687455367168",
        "55464657044963196816950587289035428064568320970692304673817341489687463725056"
      ]
    },
    {
      "x": 40,
      "y": 62,
      "size": 1,
      "price": "2106000000000000000000",
      "reserved": "",
      "assetIds": [
        "55464657044963196816950587289035428064568320970692304673817341489687455367179",
        "55464657044963196816950587289035428064568320970692304673817341489687455367171",
        "55464657044963196816950587289035428064568320970692304673817341489687455367169",
        "55464657044963196816950587289035428064568320970692304673817341489687455367168",
        "55464657044963196816950587289035428064568320970692304673817341489687463725056"
      ]
    },
    {
      "x": 41,
      "y": 61,
      "size": 1,
      "price": "2106000000000000000000",
      "reserved": "",
      "assetIds": [
        "55464657044963196816950587289035428064568320970692304673817341489687455367179",
        "55464657044963196816950587289035428064568320970692304673817341489687455367171",
        "55464657044963196816950587289035428064568320970692304673817341489687455367169",
        "55464657044963196816950587289035428064568320970692304673817341489687455367168",
        "55464657044963196816950587289035428064568320970692304673817341489687463725056"
      ]
    },
    {
      "x": 41,
      "y": 60,
      "size": 1,
      "price": "2106000000000000000000",
      "reserved": "",
      "assetIds": [
        "55464657044963196816950587289035428064568320970692304673817341489687455367173",
        "55464657044963196816950587289035428064568320970692304673817341489687455367170",
        "55464657044963196816950587289035428064568320970692304673817341489687455367169",
        "55464657044963196816950587289035428064568320970692304673817341489687455367168",
        "55464657044963196816950587289035428064568320970692304673817341489687463725056"
      ]
    },
    {
      "x": 41,
      "y": 59,
      "size": 1,
      "price": "2106000000000000000000",
      "reserved": "",
      "assetIds": [
        "55464657044963196816950587289035428064568320970692304673817341489687455367183",
        "55464657044963196816950587289035428064568320970692304673817341489687455367171",
        "55464657044963196816950587289035428064568320970692304673817341489687455367169",
        "55464657044963196816950587289035428064568320970692304673817341489687455367168",
        "55464657044963196816950587289035428064568320970692304673817341489687463725056"
      ]
    },
    {
      "x": 40,
      "y": 59,
      "size": 1,
      "price": "2106000000000000000000",
      "reserved": "",
      "assetIds": [
        "55464657044963196816950587289035428064568320970692304673817341489687455367176",
        "55464657044963196816950587289035428064568320970692304673817341489687455367170",
        "55464657044963196816950587289035428064568320970692304673817341489687455367169",
        "55464657044963196816950587289035428064568320970692304673817341489687455367168",
        "55464657044963196816950587289035428064568320970692304673817341489687463725056"
      ]
    },
    {
      "x": 40,
      "y": 58,
      "size": 1,
      "price": "2106000000000000000000",
      "reserved": "",
      "assetIds": [
        "55464657044963196816950587289035428064568320970692304673817341489687455367177",
        "55464657044963196816950587289035428064568320970692304673817341489687455367170",
        "55464657044963196816950587289035428064568320970692304673817341489687455367169",
        "55464657044963196816950587289035428064568320970692304673817341489687455367168",
        "55464657044963196816950587289035428064568320970692304673817341489687463725056"
      ]
    },
    {
      "x": 40,
      "y": 57,
      "size": 1,
      "price": "2106000000000000000000",
      "reserved": "",
      "assetIds": [
        "55464657044963196816950587289035428064568320970692304673817341489687455367183",
        "55464657044963196816950587289035428064568320970692304673817341489687455367171",
        "55464657044963196816950587289035428064568320970692304673817341489687455367169",
        "55464657044963196816950587289035428064568320970692304673817341489687455367168",
        "55464657044963196816950587289035428064568320970692304673817341489687463725056"
      ]
    },
    {
      "x": 41,
      "y": 57,
      "size": 1,
      "price": "2106000000000000000000",
      "reserved": "",
      "assetIds": [
        "55464657044963196816950587289035428064568320970692304673817341489687455367173",
        "55464657044963196816950587289035428064568320970692304673817341489687455367170",
        "55464657044963196816950587289035428064568320970692304673817341489687455367169",
        "55464657044963196816950587289035428064568320970692304673817341489687455367168",
        "55464657044963196816950587289035428064568320970692304673817341489687463725056"
      ]
    },
    {
      "x": 41,
      "y": 58,
      "size": 1,
      "price": "2106000000000000000000",
      "reserved": "",
      "assetIds": [
        "55464657044963196816950587289035428064568320970692304673817341489687455367182",
        "55464657044963196816950587289035428064568320970692304673817341489687455367171",
        "55464657044963196816950587289035428064568320970692304673817341489687455367169",
        "55464657044963196816950587289035428064568320970692304673817341489687455367168",
        "55464657044963196816950587289035428064568320970692304673817341489687463725056"
      ]
    },
    {
      "x": 40,
      "y": 60,
      "size": 1,
      "price": "2106000000000000000000",
      "reserved": "",
      "assetIds": [
        "55464657044963196816950587289035428064568320970692304673817341489687455367182",
        "55464657044963196816950587289035428064568320970692304673817341489687455367171",
        "55464657044963196816950587289035428064568320970692304673817341489687455367169",
        "55464657044963196816950587289035428064568320970692304673817341489687455367168",
        "55464657044963196816950587289035428064568320970692304673817341489687463725056"
      ]
    },
    {
      "x": 40,
      "y": 61,
      "size": 1,
      "price": "2106000000000000000000",
      "reserved": "",
      "assetIds": [
        "55464657044963196816950587289035428064568320970692304673817341489687455367174",
        "55464657044963196816950587289035428064568320970692304673817341489687455367170",
        "55464657044963196816950587289035428064568320970692304673817341489687455367169",
        "55464657044963196816950587289035428064568320970692304673817341489687455367168",
        "55464657044963196816950587289035428064568320970692304673817341489687463725056"
      ]
    },
    {
      "x": 39,
      "y": 61,
      "size": 1,
      "price": "2106000000000000000000",
      "reserved": "",
      "assetIds": [
        "55464657044963196816950587289035428064568320970692304673817341489687455367179",
        "55464657044963196816950587289035428064568320970692304673817341489687455367171",
        "55464657044963196816950587289035428064568320970692304673817341489687455367169",
        "55464657044963196816950587289035428064568320970692304673817341489687455367168",
        "55464657044963196816950587289035428064568320970692304673817341489687463725056"
      ]
    },
    {
      "x": 39,
      "y": 60,
      "size": 1,
      "price": "2106000000000000000000",
      "reserved": "",
      "assetIds": [
        "55464657044963196816950587289035428064568320970692304673817341489687455367174",
        "55464657044963196816950587289035428064568320970692304673817341489687455367170",
        "55464657044963196816950587289035428064568320970692304673817341489687455367169",
        "55464657044963196816950587289035428064568320970692304673817341489687455367168",
        "55464657044963196816950587289035428064568320970692304673817341489687463725056"
      ]
    },
    {
      "x": 39,
      "y": 59,
      "size": 1,
      "price": "2106000000000000000000",
      "reserved": "",
      "assetIds": [
        "55464657044963196816950587289035428064568320970692304673817341489687455367179",
        "55464657044963196816950587289035428064568320970692304673817341489687455367171",
        "55464657044963196816950587289035428064568320970692304673817341489687455367169",
        "55464657044963196816950587289035428064568320970692304673817341489687455367168",
        "55464657044963196816950587289035428064568320970692304673817341489687463725056"
      ]
    },
    {
      "x": 39,
      "y": 62,
      "size": 1,
      "price": "2106000000000000000000",
      "reserved": "",
      "assetIds": [
        "55464657044963196816950587289035428064568320970692304673817341489687455367180",
        "55464657044963196816950587289035428064568320970692304673817341489687455367171",
        "55464657044963196816950587289035428064568320970692304673817341489687455367169",
        "55464657044963196816950587289035428064568320970692304673817341489687455367168",
        "55464657044963196816950587289035428064568320970692304673817341489687463725056"
      ]
    },
    {
      "x": 42,
      "y": 61,
      "size": 1,
      "price": "2106000000000000000000",
      "reserved": "",
      "assetIds": [
        "55464657044963196816950587289035428064568320970692304673817341489687455367174",
        "55464657044963196816950587289035428064568320970692304673817341489687455367170",
        "55464657044963196816950587289035428064568320970692304673817341489687455367169",
        "55464657044963196816950587289035428064568320970692304673817341489687455367168",
        "55464657044963196816950587289035428064568320970692304673817341489687463725056"
      ]
    },
    {
      "x": 43,
      "y": 61,
      "size": 1,
      "price": "2106000000000000000000",
      "reserved": "",
      "assetIds": [
        "55464657044963196816950587289035428064568320970692304673817341489687455367176",
        "55464657044963196816950587289035428064568320970692304673817341489687455367170",
        "55464657044963196816950587289035428064568320970692304673817341489687455367169",
        "55464657044963196816950587289035428064568320970692304673817341489687455367168",
        "55464657044963196816950587289035428064568320970692304673817341489687463725056"
      ]
    },
    {
      "x": 44,
      "y": 61,
      "size": 1,
      "price": "2106000000000000000000",
      "reserved": "",
      "assetIds": [
        "55464657044963196816950587289035428064568320970692304673817341489687455367172",
        "55464657044963196816950587289035428064568320970692304673817341489687455367170",
        "55464657044963196816950587289035428064568320970692304673817341489687455367169",
        "55464657044963196816950587289035428064568320970692304673817341489687455367168",
        "55464657044963196816950587289035428064568320970692304673817341489687463725056"
      ]
    },
    {
      "x": 45,
      "y": 61,
      "size": 1,
      "price": "2106000000000000000000",
      "reserved": "",
      "assetIds": [
        "55464657044963196816950587289035428064568320970692304673817341489687455367183",
        "55464657044963196816950587289035428064568320970692304673817341489687455367171",
        "55464657044963196816950587289035428064568320970692304673817341489687455367169",
        "55464657044963196816950587289035428064568320970692304673817341489687455367168",
        "55464657044963196816950587289035428064568320970692304673817341489687463725056"
      ]
    },
    {
      "x": 46,
      "y": 61,
      "size": 1,
      "price": "2106000000000000000000",
      "reserved": "",
      "assetIds": [
        "55464657044963196816950587289035428064568320970692304673817341489687455367180",
        "55464657044963196816950587289035428064568320970692304673817341489687455367171",
        "55464657044963196816950587289035428064568320970692304673817341489687455367169",
        "55464657044963196816950587289035428064568320970692304673817341489687455367168",
        "55464657044963196816950587289035428064568320970692304673817341489687463725056"
      ]
    },
    {
      "x": 47,
      "y": 61,
      "size": 1,
      "price": "2106000000000000000000",
      "reserved": "",
      "assetIds": [
        "55464657044963196816950587289035428064568320970692304673817341489687455367182",
        "55464657044963196816950587289035428064568320970692304673817341489687455367171",
        "55464657044963196816950587289035428064568320970692304673817341489687455367169",
        "55464657044963196816950587289035428064568320970692304673817341489687455367168",
        "55464657044963196816950587289035428064568320970692304673817341489687463725056"
      ]
    },
    {
      "x": 48,
      "y": 61,
      "size": 1,
      "price": "2106000000000000000000",
      "reserved": "",
      "assetIds": [
        "55464657044963196816950587289035428064568320970692304673817341489687455367172",
        "55464657044963196816950587289035428064568320970692304673817341489687455367170",
        "55464657044963196816950587289035428064568320970692304673817341489687455367169",
        "55464657044963196816950587289035428064568320970692304673817341489687455367168",
        "55464657044963196816950587289035428064568320970692304673817341489687463725056"
      ]
    },
    {
      "x": 48,
      "y": 60,
      "size": 1,
      "price": "2106000000000000000000",
      "reserved": "",
      "assetIds": [
        "55464657044963196816950587289035428064568320970692304673817341489687455367178",
        "55464657044963196816950587289035428064568320970692304673817341489687455367171",
        "55464657044963196816950587289035428064568320970692304673817341489687455367169",
        "55464657044963196816950587289035428064568320970692304673817341489687455367168",
        "55464657044963196816950587289035428064568320970692304673817341489687463725056"
      ]
    },
    {
      "x": 47,
      "y": 60,
      "size": 1,
      "price": "2106000000000000000000",
      "reserved": "",
      "assetIds": [
        "55464657044963196816950587289035428064568320970692304673817341489687455367175",
        "55464657044963196816950587289035428064568320970692304673817341489687455367170",
        "55464657044963196816950587289035428064568320970692304673817341489687455367169",
        "55464657044963196816950587289035428064568320970692304673817341489687455367168",
        "55464657044963196816950587289035428064568320970692304673817341489687463725056"
      ]
    },
    {
      "x": 46,
      "y": 60,
      "size": 1,
      "price": "2106000000000000000000",
      "reserved": "",
      "assetIds": [
        "55464657044963196816950587289035428064568320970692304673817341489687455367183",
        "55464657044963196816950587289035428064568320970692304673817341489687455367171",
        "55464657044963196816950587289035428064568320970692304673817341489687455367169",
        "55464657044963196816950587289035428064568320970692304673817341489687455367168",
        "55464657044963196816950587289035428064568320970692304673817341489687463725056"
      ]
    },
    {
      "x": 45,
      "y": 60,
      "size": 1,
      "price": "2106000000000000000000",
      "reserved": "",
      "assetIds": [
        "55464657044963196816950587289035428064568320970692304673817341489687455367176",
        "55464657044963196816950587289035428064568320970692304673817341489687455367170",
        "55464657044963196816950587289035428064568320970692304673817341489687455367169",
        "55464657044963196816950587289035428064568320970692304673817341489687455367168",
        "55464657044963196816950587289035428064568320970692304673817341489687463725056"
      ]
    },
    {
      "x": 44,
      "y": 60,
      "size": 1,
      "price": "2106000000000000000000",
      "reserved": "",
      "assetIds": [
        "55464657044963196816950587289035428064568320970692304673817341489687455367177",
        "55464657044963196816950587289035428064568320970692304673817341489687455367170",
        "55464657044963196816950587289035428064568320970692304673817341489687455367169",
        "55464657044963196816950587289035428064568320970692304673817341489687455367168",
        "55464657044963196816950587289035428064568320970692304673817341489687463725056"
      ]
    },
    {
      "x": 43,
      "y": 60,
      "size": 1,
      "price": "2106000000000000000000",
      "reserved": "",
      "assetIds": [
        "55464657044963196816950587289035428064568320970692304673817341489687455367174",
        "55464657044963196816950587289035428064568320970692304673817341489687455367170",
        "55464657044963196816950587289035428064568320970692304673817341489687455367169",
        "55464657044963196816950587289035428064568320970692304673817341489687455367168",
        "55464657044963196816950587289035428064568320970692304673817341489687463725056"
      ]
    },
    {
      "x": 42,
      "y": 60,
      "size": 1,
      "price": "2106000000000000000000",
      "reserved": "",
      "assetIds": [
        "55464657044963196816950587289035428064568320970692304673817341489687455367182",
        "55464657044963196816950587289035428064568320970692304673817341489687455367171",
        "55464657044963196816950587289035428064568320970692304673817341489687455367169",
        "55464657044963196816950587289035428064568320970692304673817341489687455367168",
        "55464657044963196816950587289035428064568320970692304673817341489687463725056"
      ]
    },
    {
      "x": 43,
      "y": 59,
      "size": 1,
      "price": "2106000000000000000000",
      "reserved": "",
      "assetIds": [
        "55464657044963196816950587289035428064568320970692304673817341489687455367179",
        "55464657044963196816950587289035428064568320970692304673817341489687455367171",
        "55464657044963196816950587289035428064568320970692304673817341489687455367169",
        "55464657044963196816950587289035428064568320970692304673817341489687455367168",
        "55464657044963196816950587289035428064568320970692304673817341489687463725056"
      ]
    },
    {
      "x": 44,
      "y": 59,
      "size": 1,
      "price": "2106000000000000000000",
      "reserved": "",
      "assetIds": [
        "55464657044963196816950587289035428064568320970692304673817341489687455367179",
        "55464657044963196816950587289035428064568320970692304673817341489687455367171",
        "55464657044963196816950587289035428064568320970692304673817341489687455367169",
        "55464657044963196816950587289035428064568320970692304673817341489687455367168",
        "55464657044963196816950587289035428064568320970692304673817341489687463725056"
      ]
    },
    {
      "x": 45,
      "y": 59,
      "size": 1,
      "price": "2106000000000000000000",
      "reserved": "",
      "assetIds": [
        "55464657044963196816950587289035428064568320970692304673817341489687455367175",
        "55464657044963196816950587289035428064568320970692304673817341489687455367170",
        "55464657044963196816950587289035428064568320970692304673817341489687455367169",
        "55464657044963196816950587289035428064568320970692304673817341489687455367168",
        "55464657044963196816950587289035428064568320970692304673817341489687463725056"
      ]
    },
    {
      "x": 46,
      "y": 59,
      "size": 1,
      "price": "2106000000000000000000",
      "reserved": "",
      "assetIds": [
        "55464657044963196816950587289035428064568320970692304673817341489687455367173",
        "55464657044963196816950587289035428064568320970692304673817341489687455367170",
        "55464657044963196816950587289035428064568320970692304673817341489687455367169",
        "55464657044963196816950587289035428064568320970692304673817341489687455367168",
        "55464657044963196816950587289035428064568320970692304673817341489687463725056"
      ]
    },
    {
      "x": 47,
      "y": 59,
      "size": 1,
      "price": "2106000000000000000000",
      "reserved": "",
      "assetIds": [
        "55464657044963196816950587289035428064568320970692304673817341489687455367174",
        "55464657044963196816950587289035428064568320970692304673817341489687455367170",
        "55464657044963196816950587289035428064568320970692304673817341489687455367169",
        "55464657044963196816950587289035428064568320970692304673817341489687455367168",
        "55464657044963196816950587289035428064568320970692304673817341489687463725056"
      ]
    },
    {
      "x": 48,
      "y": 59,
      "size": 1,
      "price": "2106000000000000000000",
      "reserved": "",
      "assetIds": [
        "55464657044963196816950587289035428064568320970692304673817341489687455367183",
        "55464657044963196816950587289035428064568320970692304673817341489687455367171",
        "55464657044963196816950587289035428064568320970692304673817341489687455367169",
        "55464657044963196816950587289035428064568320970692304673817341489687455367168",
        "55464657044963196816950587289035428064568320970692304673817341489687463725056"
      ]
    },
    {
      "x": 49,
      "y": 58,
      "size": 1,
      "price": "2106000000000000000000",
      "reserved": "",
      "assetIds": [
        "55464657044963196816950587289035428064568320970692304673817341489687455367172",
        "55464657044963196816950587289035428064568320970692304673817341489687455367170",
        "55464657044963196816950587289035428064568320970692304673817341489687455367169",
        "55464657044963196816950587289035428064568320970692304673817341489687455367168",
        "55464657044963196816950587289035428064568320970692304673817341489687463725056"
      ]
    },
    {
      "x": 48,
      "y": 58,
      "size": 1,
      "price": "2106000000000000000000",
      "reserved": "",
      "assetIds": [
        "55464657044963196816950587289035428064568320970692304673817341489687455367179",
        "55464657044963196816950587289035428064568320970692304673817341489687455367171",
        "55464657044963196816950587289035428064568320970692304673817341489687455367169",
        "55464657044963196816950587289035428064568320970692304673817341489687455367168",
        "55464657044963196816950587289035428064568320970692304673817341489687463725056"
      ]
    },
    {
      "x": 47,
      "y": 58,
      "size": 1,
      "price": "2106000000000000000000",
      "reserved": "",
      "assetIds": [
        "55464657044963196816950587289035428064568320970692304673817341489687455367180",
        "55464657044963196816950587289035428064568320970692304673817341489687455367171",
        "55464657044963196816950587289035428064568320970692304673817341489687455367169",
        "55464657044963196816950587289035428064568320970692304673817341489687455367168",
        "55464657044963196816950587289035428064568320970692304673817341489687463725056"
      ]
    },
    {
      "x": 46,
      "y": 58,
      "size": 1,
      "price": "2106000000000000000000",
      "reserved": "",
      "assetIds": [
        "55464657044963196816950587289035428064568320970692304673817341489687455367176",
        "55464657044963196816950587289035428064568320970692304673817341489687455367170",
        "55464657044963196816950587289035428064568320970692304673817341489687455367169",
        "55464657044963196816950587289035428064568320970692304673817341489687455367168",
        "55464657044963196816950587289035428064568320970692304673817341489687463725056"
      ]
    },
    {
      "x": 45,
      "y": 58,
      "size": 1,
      "price": "2106000000000000000000",
      "reserved": "",
      "assetIds": [
        "55464657044963196816950587289035428064568320970692304673817341489687455367173",
        "55464657044963196816950587289035428064568320970692304673817341489687455367170",
        "55464657044963196816950587289035428064568320970692304673817341489687455367169",
        "55464657044963196816950587289035428064568320970692304673817341489687455367168",
        "55464657044963196816950587289035428064568320970692304673817341489687463725056"
      ]
    },
    {
      "x": 44,
      "y": 58,
      "size": 1,
      "price": "2106000000000000000000",
      "reserved": "",
      "assetIds": [
        "55464657044963196816950587289035428064568320970692304673817341489687455367183",
        "55464657044963196816950587289035428064568320970692304673817341489687455367171",
        "55464657044963196816950587289035428064568320970692304673817341489687455367169",
        "55464657044963196816950587289035428064568320970692304673817341489687455367168",
        "55464657044963196816950587289035428064568320970692304673817341489687463725056"
      ]
    },
    {
      "x": 43,
      "y": 58,
      "size": 1,
      "price": "2106000000000000000000",
      "reserved": "",
      "assetIds": [
        "55464657044963196816950587289035428064568320970692304673817341489687455367178",
        "55464657044963196816950587289035428064568320970692304673817341489687455367171",
        "55464657044963196816950587289035428064568320970692304673817341489687455367169",
        "55464657044963196816950587289035428064568320970692304673817341489687455367168",
        "55464657044963196816950587289035428064568320970692304673817341489687463725056"
      ]
    },
    {
      "x": 43,
      "y": 57,
      "size": 1,
      "price": "2106000000000000000000",
      "reserved": "",
      "assetIds": [
        "55464657044963196816950587289035428064568320970692304673817341489687455367178",
        "55464657044963196816950587289035428064568320970692304673817341489687455367171",
        "55464657044963196816950587289035428064568320970692304673817341489687455367169",
        "55464657044963196816950587289035428064568320970692304673817341489687455367168",
        "55464657044963196816950587289035428064568320970692304673817341489687463725056"
      ]
    },
    {
      "x": 42,
      "y": 57,
      "size": 1,
      "price": "2106000000000000000000",
      "reserved": "",
      "assetIds": [
        "55464657044963196816950587289035428064568320970692304673817341489687455367173",
        "55464657044963196816950587289035428064568320970692304673817341489687455367170",
        "55464657044963196816950587289035428064568320970692304673817341489687455367169",
        "55464657044963196816950587289035428064568320970692304673817341489687455367168",
        "55464657044963196816950587289035428064568320970692304673817341489687463725056"
      ]
    },
    {
      "x": 47,
      "y": 57,
      "size": 1,
      "price": "2106000000000000000000",
      "reserved": "",
      "assetIds": [
        "55464657044963196816950587289035428064568320970692304673817341489687455367179",
        "55464657044963196816950587289035428064568320970692304673817341489687455367171",
        "55464657044963196816950587289035428064568320970692304673817341489687455367169",
        "55464657044963196816950587289035428064568320970692304673817341489687455367168",
        "55464657044963196816950587289035428064568320970692304673817341489687463725056"
      ]
    },
    {
      "x": 45,
      "y": 57,
      "size": 1,
      "price": "2106000000000000000000",
      "reserved": "",
      "assetIds": [
        "55464657044963196816950587289035428064568320970692304673817341489687455367172",
        "55464657044963196816950587289035428064568320970692304673817341489687455367170",
        "55464657044963196816950587289035428064568320970692304673817341489687455367169",
        "55464657044963196816950587289035428064568320970692304673817341489687455367168",
        "55464657044963196816950587289035428064568320970692304673817341489687463725056"
      ]
    },
    {
      "x": 44,
      "y": 57,
      "size": 1,
      "price": "2106000000000000000000",
      "reserved": "",
      "assetIds": [
        "55464657044963196816950587289035428064568320970692304673817341489687455367172",
        "55464657044963196816950587289035428064568320970692304673817341489687455367170",
        "55464657044963196816950587289035428064568320970692304673817341489687455367169",
        "55464657044963196816950587289035428064568320970692304673817341489687455367168",
        "55464657044963196816950587289035428064568320970692304673817341489687463725056"
      ]
    },
    {
      "x": 42,
      "y": 58,
      "size": 1,
      "price": "2106000000000000000000",
      "reserved": "",
      "assetIds": [
        "55464657044963196816950587289035428064568320970692304673817341489687455367176",
        "55464657044963196816950587289035428064568320970692304673817341489687455367170",
        "55464657044963196816950587289035428064568320970692304673817341489687455367169",
        "55464657044963196816950587289035428064568320970692304673817341489687455367168",
        "55464657044963196816950587289035428064568320970692304673817341489687463725056"
      ]
    },
    {
      "x": 36,
      "y": 57,
      "size": 1,
      "price": "2106000000000000000000",
      "reserved": "",
      "assetIds": [
        "55464657044963196816950587289035428064568320970692304673817341489687455367181",
        "55464657044963196816950587289035428064568320970692304673817341489687455367171",
        "55464657044963196816950587289035428064568320970692304673817341489687455367169",
        "55464657044963196816950587289035428064568320970692304673817341489687455367168",
        "55464657044963196816950587289035428064568320970692304673817341489687463725056"
      ]
    },
    {
      "x": 36,
      "y": 56,
      "size": 1,
      "price": "2106000000000000000000",
      "reserved": "",
      "assetIds": [
        "55464657044963196816950587289035428064568320970692304673817341489687455367181",
        "55464657044963196816950587289035428064568320970692304673817341489687455367171",
        "55464657044963196816950587289035428064568320970692304673817341489687455367169",
        "55464657044963196816950587289035428064568320970692304673817341489687455367168",
        "55464657044963196816950587289035428064568320970692304673817341489687463725056"
      ]
    },
    {
      "x": 35,
      "y": 56,
      "size": 1,
      "price": "2106000000000000000000",
      "reserved": "",
      "assetIds": [
        "55464657044963196816950587289035428064568320970692304673817341489687455367179",
        "55464657044963196816950587289035428064568320970692304673817341489687455367171",
        "55464657044963196816950587289035428064568320970692304673817341489687455367169",
        "55464657044963196816950587289035428064568320970692304673817341489687455367168",
        "55464657044963196816950587289035428064568320970692304673817341489687463725056"
      ]
    },
    {
      "x": 34,
      "y": 57,
      "size": 1,
      "price": "2106000000000000000000",
      "reserved": "",
      "assetIds": [
        "55464657044963196816950587289035428064568320970692304673817341489687455367174",
        "55464657044963196816950587289035428064568320970692304673817341489687455367170",
        "55464657044963196816950587289035428064568320970692304673817341489687455367169",
        "55464657044963196816950587289035428064568320970692304673817341489687455367168",
        "55464657044963196816950587289035428064568320970692304673817341489687463725056"
      ]
    },
    {
      "x": 35,
      "y": 57,
      "size": 1,
      "price": "2106000000000000000000",
      "reserved": "",
      "assetIds": [
        "55464657044963196816950587289035428064568320970692304673817341489687455367183",
        "55464657044963196816950587289035428064568320970692304673817341489687455367171",
        "55464657044963196816950587289035428064568320970692304673817341489687455367169",
        "55464657044963196816950587289035428064568320970692304673817341489687455367168",
        "55464657044963196816950587289035428064568320970692304673817341489687463725056"
      ]
    },
    {
      "x": 35,
      "y": 58,
      "size": 1,
      "price": "2106000000000000000000",
      "reserved": "",
      "assetIds": [
        "55464657044963196816950587289035428064568320970692304673817341489687455367178",
        "55464657044963196816950587289035428064568320970692304673817341489687455367171",
        "55464657044963196816950587289035428064568320970692304673817341489687455367169",
        "55464657044963196816950587289035428064568320970692304673817341489687455367168",
        "55464657044963196816950587289035428064568320970692304673817341489687463725056"
      ]
    },
    {
      "x": 36,
      "y": 58,
      "size": 1,
      "price": "2106000000000000000000",
      "reserved": "",
      "assetIds": [
        "55464657044963196816950587289035428064568320970692304673817341489687455367182",
        "55464657044963196816950587289035428064568320970692304673817341489687455367171",
        "55464657044963196816950587289035428064568320970692304673817341489687455367169",
        "55464657044963196816950587289035428064568320970692304673817341489687455367168",
        "55464657044963196816950587289035428064568320970692304673817341489687463725056"
      ]
    },
    {
      "x": 37,
      "y": 60,
      "size": 1,
      "price": "2106000000000000000000",
      "reserved": "",
      "assetIds": [
        "55464657044963196816950587289035428064568320970692304673817341489687455367175",
        "55464657044963196816950587289035428064568320970692304673817341489687455367170",
        "55464657044963196816950587289035428064568320970692304673817341489687455367169",
        "55464657044963196816950587289035428064568320970692304673817341489687455367168",
        "55464657044963196816950587289035428064568320970692304673817341489687463725056"
      ]
    },
    {
      "x": 37,
      "y": 61,
      "size": 1,
      "price": "2106000000000000000000",
      "reserved": "",
      "assetIds": [
        "55464657044963196816950587289035428064568320970692304673817341489687455367172",
        "55464657044963196816950587289035428064568320970692304673817341489687455367170",
        "55464657044963196816950587289035428064568320970692304673817341489687455367169",
        "55464657044963196816950587289035428064568320970692304673817341489687455367168",
        "55464657044963196816950587289035428064568320970692304673817341489687463725056"
      ]
    },
    {
      "x": 37,
      "y": 62,
      "size": 1,
      "price": "2106000000000000000000",
      "reserved": "",
      "assetIds": [
        "55464657044963196816950587289035428064568320970692304673817341489687455367173",
        "55464657044963196816950587289035428064568320970692304673817341489687455367170",
        "55464657044963196816950587289035428064568320970692304673817341489687455367169",
        "55464657044963196816950587289035428064568320970692304673817341489687455367168",
        "55464657044963196816950587289035428064568320970692304673817341489687463725056"
      ]
    },
    {
      "x": 37,
      "y": 63,
      "size": 1,
      "price": "2106000000000000000000",
      "reserved": "",
      "assetIds": [
        "55464657044963196816950587289035428064568320970692304673817341489687455367181",
        "55464657044963196816950587289035428064568320970692304673817341489687455367171",
        "55464657044963196816950587289035428064568320970692304673817341489687455367169",
        "55464657044963196816950587289035428064568320970692304673817341489687455367168",
        "55464657044963196816950587289035428064568320970692304673817341489687463725056"
      ]
    },
    {
      "x": 36,
      "y": 63,
      "size": 1,
      "price": "2106000000000000000000",
      "reserved": "",
      "assetIds": [
        "55464657044963196816950587289035428064568320970692304673817341489687455367173",
        "55464657044963196816950587289035428064568320970692304673817341489687455367170",
        "55464657044963196816950587289035428064568320970692304673817341489687455367169",
        "55464657044963196816950587289035428064568320970692304673817341489687455367168",
        "55464657044963196816950587289035428064568320970692304673817341489687463725056"
      ]
    },
    {
      "x": 35,
      "y": 64,
      "size": 1,
      "price": "2106000000000000000000",
      "reserved": "",
      "assetIds": [
        "55464657044963196816950587289035428064568320970692304673817341489687455367182",
        "55464657044963196816950587289035428064568320970692304673817341489687455367171",
        "55464657044963196816950587289035428064568320970692304673817341489687455367169",
        "55464657044963196816950587289035428064568320970692304673817341489687455367168",
        "55464657044963196816950587289035428064568320970692304673817341489687463725056"
      ]
    },
    {
      "x": 34,
      "y": 64,
      "size": 1,
      "price": "2106000000000000000000",
      "reserved": "",
      "assetIds": [
        "55464657044963196816950587289035428064568320970692304673817341489687455367177",
        "55464657044963196816950587289035428064568320970692304673817341489687455367170",
        "55464657044963196816950587289035428064568320970692304673817341489687455367169",
        "55464657044963196816950587289035428064568320970692304673817341489687455367168",
        "55464657044963196816950587289035428064568320970692304673817341489687463725056"
      ]
    },
    {
      "x": 34,
      "y": 63,
      "size": 1,
      "price": "2106000000000000000000",
      "reserved": "",
      "assetIds": [
        "55464657044963196816950587289035428064568320970692304673817341489687455367180",
        "55464657044963196816950587289035428064568320970692304673817341489687455367171",
        "55464657044963196816950587289035428064568320970692304673817341489687455367169",
        "55464657044963196816950587289035428064568320970692304673817341489687455367168",
        "55464657044963196816950587289035428064568320970692304673817341489687463725056"
      ]
    },
    {
      "x": 34,
      "y": 62,
      "size": 1,
      "price": "2106000000000000000000",
      "reserved": "",
      "assetIds": [
        "55464657044963196816950587289035428064568320970692304673817341489687455367176",
        "55464657044963196816950587289035428064568320970692304673817341489687455367170",
        "55464657044963196816950587289035428064568320970692304673817341489687455367169",
        "55464657044963196816950587289035428064568320970692304673817341489687455367168",
        "55464657044963196816950587289035428064568320970692304673817341489687463725056"
      ]
    },
    {
      "x": 34,
      "y": 61,
      "size": 1,
      "price": "2106000000000000000000",
      "reserved": "",
      "assetIds": [
        "55464657044963196816950587289035428064568320970692304673817341489687455367179",
        "55464657044963196816950587289035428064568320970692304673817341489687455367171",
        "55464657044963196816950587289035428064568320970692304673817341489687455367169",
        "55464657044963196816950587289035428064568320970692304673817341489687455367168",
        "55464657044963196816950587289035428064568320970692304673817341489687463725056"
      ]
    },
    {
      "x": 34,
      "y": 60,
      "size": 1,
      "price": "2106000000000000000000",
      "reserved": "",
      "assetIds": [
        "55464657044963196816950587289035428064568320970692304673817341489687455367182",
        "55464657044963196816950587289035428064568320970692304673817341489687455367171",
        "55464657044963196816950587289035428064568320970692304673817341489687455367169",
        "55464657044963196816950587289035428064568320970692304673817341489687455367168",
        "55464657044963196816950587289035428064568320970692304673817341489687463725056"
      ]
    },
    {
      "x": 34,
      "y": 59,
      "size": 1,
      "price": "2106000000000000000000",
      "reserved": "",
      "assetIds": [
        "55464657044963196816950587289035428064568320970692304673817341489687455367177",
        "55464657044963196816950587289035428064568320970692304673817341489687455367170",
        "55464657044963196816950587289035428064568320970692304673817341489687455367169",
        "55464657044963196816950587289035428064568320970692304673817341489687455367168",
        "55464657044963196816950587289035428064568320970692304673817341489687463725056"
      ]
    },
    {
      "x": 34,
      "y": 58,
      "size": 1,
      "price": "2106000000000000000000",
      "reserved": "",
      "assetIds": [
        "55464657044963196816950587289035428064568320970692304673817341489687455367178",
        "55464657044963196816950587289035428064568320970692304673817341489687455367171",
        "55464657044963196816950587289035428064568320970692304673817341489687455367169",
        "55464657044963196816950587289035428064568320970692304673817341489687455367168",
        "55464657044963196816950587289035428064568320970692304673817341489687463725056"
      ]
    },
    {
      "x": 35,
      "y": 60,
      "size": 1,
      "price": "2106000000000000000000",
      "reserved": "",
      "assetIds": [
        "55464657044963196816950587289035428064568320970692304673817341489687455367176",
        "55464657044963196816950587289035428064568320970692304673817341489687455367170",
        "55464657044963196816950587289035428064568320970692304673817341489687455367169",
        "55464657044963196816950587289035428064568320970692304673817341489687455367168",
        "55464657044963196816950587289035428064568320970692304673817341489687463725056"
      ]
    },
    {
      "x": 36,
      "y": 60,
      "size": 1,
      "price": "2106000000000000000000",
      "reserved": "",
      "assetIds": [
        "55464657044963196816950587289035428064568320970692304673817341489687455367173",
        "55464657044963196816950587289035428064568320970692304673817341489687455367170",
        "55464657044963196816950587289035428064568320970692304673817341489687455367169",
        "55464657044963196816950587289035428064568320970692304673817341489687455367168",
        "55464657044963196816950587289035428064568320970692304673817341489687463725056"
      ]
    },
    {
      "x": 36,
      "y": 61,
      "size": 1,
      "price": "2106000000000000000000",
      "reserved": "",
      "assetIds": [
        "55464657044963196816950587289035428064568320970692304673817341489687455367178",
        "55464657044963196816950587289035428064568320970692304673817341489687455367171",
        "55464657044963196816950587289035428064568320970692304673817341489687455367169",
        "55464657044963196816950587289035428064568320970692304673817341489687455367168",
        "55464657044963196816950587289035428064568320970692304673817341489687463725056"
      ]
    },
    {
      "x": 36,
      "y": 62,
      "size": 1,
      "price": "2106000000000000000000",
      "reserved": "",
      "assetIds": [
        "55464657044963196816950587289035428064568320970692304673817341489687455367173",
        "55464657044963196816950587289035428064568320970692304673817341489687455367170",
        "55464657044963196816950587289035428064568320970692304673817341489687455367169",
        "55464657044963196816950587289035428064568320970692304673817341489687455367168",
        "55464657044963196816950587289035428064568320970692304673817341489687463725056"
      ]
    },
    {
      "x": 35,
      "y": 61,
      "size": 1,
      "price": "2106000000000000000000",
      "reserved": "",
      "assetIds": [
        "55464657044963196816950587289035428064568320970692304673817341489687455367177",
        "55464657044963196816950587289035428064568320970692304673817341489687455367170",
        "55464657044963196816950587289035428064568320970692304673817341489687455367169",
        "55464657044963196816950587289035428064568320970692304673817341489687455367168",
        "55464657044963196816950587289035428064568320970692304673817341489687463725056"
      ]
    },
    {
      "x": 35,
      "y": 62,
      "size": 1,
      "price": "2106000000000000000000",
      "reserved": "",
      "assetIds": [
        "55464657044963196816950587289035428064568320970692304673817341489687455367173",
        "55464657044963196816950587289035428064568320970692304673817341489687455367170",
        "55464657044963196816950587289035428064568320970692304673817341489687455367169",
        "55464657044963196816950587289035428064568320970692304673817341489687455367168",
        "55464657044963196816950587289035428064568320970692304673817341489687463725056"
      ]
    },
    {
      "x": 35,
      "y": 63,
      "size": 1,
      "price": "2106000000000000000000",
      "reserved": "",
      "assetIds": [
        "55464657044963196816950587289035428064568320970692304673817341489687455367178",
        "55464657044963196816950587289035428064568320970692304673817341489687455367171",
        "55464657044963196816950587289035428064568320970692304673817341489687455367169",
        "55464657044963196816950587289035428064568320970692304673817341489687455367168",
        "55464657044963196816950587289035428064568320970692304673817341489687463725056"
      ]
    },
    {
      "x": 36,
      "y": 59,
      "size": 1,
      "price": "2106000000000000000000",
      "reserved": "",
      "assetIds": [
        "55464657044963196816950587289035428064568320970692304673817341489687455367172",
        "55464657044963196816950587289035428064568320970692304673817341489687455367170",
        "55464657044963196816950587289035428064568320970692304673817341489687455367169",
        "55464657044963196816950587289035428064568320970692304673817341489687455367168",
        "55464657044963196816950587289035428064568320970692304673817341489687463725056"
      ]
    },
    {
      "x": 33,
      "y": 60,
      "size": 1,
      "price": "2106000000000000000000",
      "reserved": "",
      "assetIds": [
        "55464657044963196816950587289035428064568320970692304673817341489687455367180",
        "55464657044963196816950587289035428064568320970692304673817341489687455367171",
        "55464657044963196816950587289035428064568320970692304673817341489687455367169",
        "55464657044963196816950587289035428064568320970692304673817341489687455367168",
        "55464657044963196816950587289035428064568320970692304673817341489687463725056"
      ]
    },
    {
      "x": 32,
      "y": 60,
      "size": 1,
      "price": "2106000000000000000000",
      "reserved": "",
      "assetIds": [
        "55464657044963196816950587289035428064568320970692304673817341489687455367178",
        "55464657044963196816950587289035428064568320970692304673817341489687455367171",
        "55464657044963196816950587289035428064568320970692304673817341489687455367169",
        "55464657044963196816950587289035428064568320970692304673817341489687455367168",
        "55464657044963196816950587289035428064568320970692304673817341489687463725056"
      ]
    },
    {
      "x": 31,
      "y": 60,
      "size": 1,
      "price": "2106000000000000000000",
      "reserved": "",
      "assetIds": [
        "55464657044963196816950587289035428064568320970692304673817341489687455367175",
        "55464657044963196816950587289035428064568320970692304673817341489687455367170",
        "55464657044963196816950587289035428064568320970692304673817341489687455367169",
        "55464657044963196816950587289035428064568320970692304673817341489687455367168",
        "55464657044963196816950587289035428064568320970692304673817341489687463725056"
      ]
    },
    {
      "x": 30,
      "y": 60,
      "size": 1,
      "price": "2106000000000000000000",
      "reserved": "",
      "assetIds": [
        "55464657044963196816950587289035428064568320970692304673817341489687455367183",
        "55464657044963196816950587289035428064568320970692304673817341489687455367171",
        "55464657044963196816950587289035428064568320970692304673817341489687455367169",
        "55464657044963196816950587289035428064568320970692304673817341489687455367168",
        "55464657044963196816950587289035428064568320970692304673817341489687463725056"
      ]
    },
    {
      "x": 30,
      "y": 59,
      "size": 1,
      "price": "2106000000000000000000",
      "reserved": "",
      "assetIds": [
        "55464657044963196816950587289035428064568320970692304673817341489687455367173",
        "55464657044963196816950587289035428064568320970692304673817341489687455367170",
        "55464657044963196816950587289035428064568320970692304673817341489687455367169",
        "55464657044963196816950587289035428064568320970692304673817341489687455367168",
        "55464657044963196816950587289035428064568320970692304673817341489687463725056"
      ]
    },
    {
      "x": 29,
      "y": 59,
      "size": 1,
      "price": "2106000000000000000000",
      "reserved": "",
      "assetIds": [
        "55464657044963196816950587289035428064568320970692304673817341489687455367178",
        "55464657044963196816950587289035428064568320970692304673817341489687455367171",
        "55464657044963196816950587289035428064568320970692304673817341489687455367169",
        "55464657044963196816950587289035428064568320970692304673817341489687455367168",
        "55464657044963196816950587289035428064568320970692304673817341489687463725056"
      ]
    },
    {
      "x": 29,
      "y": 58,
      "size": 1,
      "price": "2106000000000000000000",
      "reserved": "",
      "assetIds": [
        "55464657044963196816950587289035428064568320970692304673817341489687455367175",
        "55464657044963196816950587289035428064568320970692304673817341489687455367170",
        "55464657044963196816950587289035428064568320970692304673817341489687455367169",
        "55464657044963196816950587289035428064568320970692304673817341489687455367168",
        "55464657044963196816950587289035428064568320970692304673817341489687463725056"
      ]
    },
    {
      "x": 29,
      "y": 57,
      "size": 1,
      "price": "2106000000000000000000",
      "reserved": "",
      "assetIds": [
        "55464657044963196816950587289035428064568320970692304673817341489687455367172",
        "55464657044963196816950587289035428064568320970692304673817341489687455367170",
        "55464657044963196816950587289035428064568320970692304673817341489687455367169",
        "55464657044963196816950587289035428064568320970692304673817341489687455367168",
        "55464657044963196816950587289035428064568320970692304673817341489687463725056"
      ]
    },
    {
      "x": 30,
      "y": 57,
      "size": 1,
      "price": "2106000000000000000000",
      "reserved": "",
      "assetIds": [
        "55464657044963196816950587289035428064568320970692304673817341489687455367180",
        "55464657044963196816950587289035428064568320970692304673817341489687455367171",
        "55464657044963196816950587289035428064568320970692304673817341489687455367169",
        "55464657044963196816950587289035428064568320970692304673817341489687455367168",
        "55464657044963196816950587289035428064568320970692304673817341489687463725056"
      ]
    },
    {
      "x": 30,
      "y": 56,
      "size": 1,
      "price": "2106000000000000000000",
      "reserved": "",
      "assetIds": [
        "55464657044963196816950587289035428064568320970692304673817341489687455367182",
        "55464657044963196816950587289035428064568320970692304673817341489687455367171",
        "55464657044963196816950587289035428064568320970692304673817341489687455367169",
        "55464657044963196816950587289035428064568320970692304673817341489687455367168",
        "55464657044963196816950587289035428064568320970692304673817341489687463725056"
      ]
    },
    {
      "x": 31,
      "y": 56,
      "size": 1,
      "price": "2106000000000000000000",
      "reserved": "",
      "assetIds": [
        "55464657044963196816950587289035428064568320970692304673817341489687455367179",
        "55464657044963196816950587289035428064568320970692304673817341489687455367171",
        "55464657044963196816950587289035428064568320970692304673817341489687455367169",
        "55464657044963196816950587289035428064568320970692304673817341489687455367168",
        "55464657044963196816950587289035428064568320970692304673817341489687463725056"
      ]
    },
    {
      "x": 31,
      "y": 54,
      "size": 1,
      "price": "2106000000000000000000",
      "reserved": "",
      "assetIds": [
        "55464657044963196816950587289035428064568320970692304673817341489687455367173",
        "55464657044963196816950587289035428064568320970692304673817341489687455367170",
        "55464657044963196816950587289035428064568320970692304673817341489687455367169",
        "55464657044963196816950587289035428064568320970692304673817341489687455367168",
        "55464657044963196816950587289035428064568320970692304673817341489687463725056"
      ]
    },
    {
      "x": 30,
      "y": 54,
      "size": 1,
      "price": "2106000000000000000000",
      "reserved": "",
      "assetIds": [
        "55464657044963196816950587289035428064568320970692304673817341489687455367173",
        "55464657044963196816950587289035428064568320970692304673817341489687455367170",
        "55464657044963196816950587289035428064568320970692304673817341489687455367169",
        "55464657044963196816950587289035428064568320970692304673817341489687455367168",
        "55464657044963196816950587289035428064568320970692304673817341489687463725056"
      ]
    },
    {
      "x": 30,
      "y": 55,
      "size": 1,
      "price": "2106000000000000000000",
      "reserved": "",
      "assetIds": [
        "55464657044963196816950587289035428064568320970692304673817341489687455367179",
        "55464657044963196816950587289035428064568320970692304673817341489687455367171",
        "55464657044963196816950587289035428064568320970692304673817341489687455367169",
        "55464657044963196816950587289035428064568320970692304673817341489687455367168",
        "55464657044963196816950587289035428064568320970692304673817341489687463725056"
      ]
    },
    {
      "x": 29,
      "y": 55,
      "size": 1,
      "price": "2106000000000000000000",
      "reserved": "",
      "assetIds": [
        "55464657044963196816950587289035428064568320970692304673817341489687455367181",
        "55464657044963196816950587289035428064568320970692304673817341489687455367171",
        "55464657044963196816950587289035428064568320970692304673817341489687455367169",
        "55464657044963196816950587289035428064568320970692304673817341489687455367168",
        "55464657044963196816950587289035428064568320970692304673817341489687463725056"
      ]
    },
    {
      "x": 31,
      "y": 55,
      "size": 1,
      "price": "2106000000000000000000",
      "reserved": "",
      "assetIds": [
        "55464657044963196816950587289035428064568320970692304673817341489687455367183",
        "55464657044963196816950587289035428064568320970692304673817341489687455367171",
        "55464657044963196816950587289035428064568320970692304673817341489687455367169",
        "55464657044963196816950587289035428064568320970692304673817341489687455367168",
        "55464657044963196816950587289035428064568320970692304673817341489687463725056"
      ]
    },
    {
      "x": 32,
      "y": 57,
      "size": 1,
      "price": "2106000000000000000000",
      "reserved": "",
      "assetIds": [
        "55464657044963196816950587289035428064568320970692304673817341489687455367182",
        "55464657044963196816950587289035428064568320970692304673817341489687455367171",
        "55464657044963196816950587289035428064568320970692304673817341489687455367169",
        "55464657044963196816950587289035428064568320970692304673817341489687455367168",
        "55464657044963196816950587289035428064568320970692304673817341489687463725056"
      ]
    },
    {
      "x": 33,
      "y": 57,
      "size": 1,
      "price": "2106000000000000000000",
      "reserved": "",
      "assetIds": [
        "55464657044963196816950587289035428064568320970692304673817341489687455367179",
        "55464657044963196816950587289035428064568320970692304673817341489687455367171",
        "55464657044963196816950587289035428064568320970692304673817341489687455367169",
        "55464657044963196816950587289035428064568320970692304673817341489687455367168",
        "55464657044963196816950587289035428064568320970692304673817341489687463725056"
      ]
    },
    {
      "x": 33,
      "y": 58,
      "size": 1,
      "price": "2106000000000000000000",
      "reserved": "",
      "assetIds": [
        "55464657044963196816950587289035428064568320970692304673817341489687455367178",
        "55464657044963196816950587289035428064568320970692304673817341489687455367171",
        "55464657044963196816950587289035428064568320970692304673817341489687455367169",
        "55464657044963196816950587289035428064568320970692304673817341489687455367168",
        "55464657044963196816950587289035428064568320970692304673817341489687463725056"
      ]
    },
    {
      "x": 33,
      "y": 59,
      "size": 1,
      "price": "2106000000000000000000",
      "reserved": "",
      "assetIds": [
        "55464657044963196816950587289035428064568320970692304673817341489687455367172",
        "55464657044963196816950587289035428064568320970692304673817341489687455367170",
        "55464657044963196816950587289035428064568320970692304673817341489687455367169",
        "55464657044963196816950587289035428064568320970692304673817341489687455367168",
        "55464657044963196816950587289035428064568320970692304673817341489687463725056"
      ]
    },
    {
      "x": 32,
      "y": 59,
      "size": 1,
      "price": "2106000000000000000000",
      "reserved": "",
      "assetIds": [
        "55464657044963196816950587289035428064568320970692304673817341489687455367182",
        "55464657044963196816950587289035428064568320970692304673817341489687455367171",
        "55464657044963196816950587289035428064568320970692304673817341489687455367169",
        "55464657044963196816950587289035428064568320970692304673817341489687455367168",
        "55464657044963196816950587289035428064568320970692304673817341489687463725056"
      ]
    },
    {
      "x": 32,
      "y": 58,
      "size": 1,
      "price": "2106000000000000000000",
      "reserved": "",
      "assetIds": [
        "55464657044963196816950587289035428064568320970692304673817341489687455367173",
        "55464657044963196816950587289035428064568320970692304673817341489687455367170",
        "55464657044963196816950587289035428064568320970692304673817341489687455367169",
        "55464657044963196816950587289035428064568320970692304673817341489687455367168",
        "55464657044963196816950587289035428064568320970692304673817341489687463725056"
      ]
    },
    {
      "x": 31,
      "y": 57,
      "size": 1,
      "price": "2106000000000000000000",
      "reserved": "",
      "assetIds": [
        "55464657044963196816950587289035428064568320970692304673817341489687455367172",
        "55464657044963196816950587289035428064568320970692304673817341489687455367170",
        "55464657044963196816950587289035428064568320970692304673817341489687455367169",
        "55464657044963196816950587289035428064568320970692304673817341489687455367168",
        "55464657044963196816950587289035428064568320970692304673817341489687463725056"
      ]
    },
    {
      "x": 30,
      "y": 58,
      "size": 1,
      "price": "2106000000000000000000",
      "reserved": "",
      "assetIds": [
        "55464657044963196816950587289035428064568320970692304673817341489687455367177",
        "55464657044963196816950587289035428064568320970692304673817341489687455367170",
        "55464657044963196816950587289035428064568320970692304673817341489687455367169",
        "55464657044963196816950587289035428064568320970692304673817341489687455367168",
        "55464657044963196816950587289035428064568320970692304673817341489687463725056"
      ]
    },
    {
      "x": 31,
      "y": 59,
      "size": 1,
      "price": "2106000000000000000000",
      "reserved": "",
      "assetIds": [
        "55464657044963196816950587289035428064568320970692304673817341489687455367182",
        "55464657044963196816950587289035428064568320970692304673817341489687455367171",
        "55464657044963196816950587289035428064568320970692304673817341489687455367169",
        "55464657044963196816950587289035428064568320970692304673817341489687455367168",
        "55464657044963196816950587289035428064568320970692304673817341489687463725056"
      ]
    },
    {
      "x": 31,
      "y": 58,
      "size": 1,
      "price": "2106000000000000000000",
      "reserved": "",
      "assetIds": [
        "55464657044963196816950587289035428064568320970692304673817341489687455367182",
        "55464657044963196816950587289035428064568320970692304673817341489687455367171",
        "55464657044963196816950587289035428064568320970692304673817341489687455367169",
        "55464657044963196816950587289035428064568320970692304673817341489687455367168",
        "55464657044963196816950587289035428064568320970692304673817341489687463725056"
      ]
    },
    {
      "x": 33,
      "y": 61,
      "size": 1,
      "price": "2106000000000000000000",
      "reserved": "",
      "assetIds": [
        "55464657044963196816950587289035428064568320970692304673817341489687455367180",
        "55464657044963196816950587289035428064568320970692304673817341489687455367171",
        "55464657044963196816950587289035428064568320970692304673817341489687455367169",
        "55464657044963196816950587289035428064568320970692304673817341489687455367168",
        "55464657044963196816950587289035428064568320970692304673817341489687463725056"
      ]
    },
    {
      "x": 33,
      "y": 62,
      "size": 1,
      "price": "2106000000000000000000",
      "reserved": "",
      "assetIds": [
        "55464657044963196816950587289035428064568320970692304673817341489687455367180",
        "55464657044963196816950587289035428064568320970692304673817341489687455367171",
        "55464657044963196816950587289035428064568320970692304673817341489687455367169",
        "55464657044963196816950587289035428064568320970692304673817341489687455367168",
        "55464657044963196816950587289035428064568320970692304673817341489687463725056"
      ]
    },
    {
      "x": 32,
      "y": 62,
      "size": 1,
      "price": "2106000000000000000000",
      "reserved": "",
      "assetIds": [
        "55464657044963196816950587289035428064568320970692304673817341489687455367179",
        "55464657044963196816950587289035428064568320970692304673817341489687455367171",
        "55464657044963196816950587289035428064568320970692304673817341489687455367169",
        "55464657044963196816950587289035428064568320970692304673817341489687455367168",
        "55464657044963196816950587289035428064568320970692304673817341489687463725056"
      ]
    },
    {
      "x": 33,
      "y": 63,
      "size": 1,
      "price": "2106000000000000000000",
      "reserved": "",
      "assetIds": [
        "55464657044963196816950587289035428064568320970692304673817341489687455367172",
        "55464657044963196816950587289035428064568320970692304673817341489687455367170",
        "55464657044963196816950587289035428064568320970692304673817341489687455367169",
        "55464657044963196816950587289035428064568320970692304673817341489687455367168",
        "55464657044963196816950587289035428064568320970692304673817341489687463725056"
      ]
    },
    {
      "x": 32,
      "y": 63,
      "size": 1,
      "price": "2106000000000000000000",
      "reserved": "",
      "assetIds": [
        "55464657044963196816950587289035428064568320970692304673817341489687455367175",
        "55464657044963196816950587289035428064568320970692304673817341489687455367170",
        "55464657044963196816950587289035428064568320970692304673817341489687455367169",
        "55464657044963196816950587289035428064568320970692304673817341489687455367168",
        "55464657044963196816950587289035428064568320970692304673817341489687463725056"
      ]
    },
    {
      "x": 32,
      "y": 61,
      "size": 1,
      "price": "2106000000000000000000",
      "reserved": "",
      "assetIds": [
        "55464657044963196816950587289035428064568320970692304673817341489687455367175",
        "55464657044963196816950587289035428064568320970692304673817341489687455367170",
        "55464657044963196816950587289035428064568320970692304673817341489687455367169",
        "55464657044963196816950587289035428064568320970692304673817341489687455367168",
        "55464657044963196816950587289035428064568320970692304673817341489687463725056"
      ]
    },
    {
      "x": 29,
      "y": 60,
      "size": 1,
      "price": "2106000000000000000000",
      "reserved": "",
      "assetIds": [
        "55464657044963196816950587289035428064568320970692304673817341489687455367175",
        "55464657044963196816950587289035428064568320970692304673817341489687455367170",
        "55464657044963196816950587289035428064568320970692304673817341489687455367169",
        "55464657044963196816950587289035428064568320970692304673817341489687455367168",
        "55464657044963196816950587289035428064568320970692304673817341489687463725056"
      ]
    },
    {
      "x": 30,
      "y": 61,
      "size": 1,
      "price": "2106000000000000000000",
      "reserved": "",
      "assetIds": [
        "55464657044963196816950587289035428064568320970692304673817341489687455367182",
        "55464657044963196816950587289035428064568320970692304673817341489687455367171",
        "55464657044963196816950587289035428064568320970692304673817341489687455367169",
        "55464657044963196816950587289035428064568320970692304673817341489687455367168",
        "55464657044963196816950587289035428064568320970692304673817341489687463725056"
      ]
    },
    {
      "x": 29,
      "y": 61,
      "size": 1,
      "price": "2106000000000000000000",
      "reserved": "",
      "assetIds": [
        "55464657044963196816950587289035428064568320970692304673817341489687455367175",
        "55464657044963196816950587289035428064568320970692304673817341489687455367170",
        "55464657044963196816950587289035428064568320970692304673817341489687455367169",
        "55464657044963196816950587289035428064568320970692304673817341489687455367168",
        "55464657044963196816950587289035428064568320970692304673817341489687463725056"
      ]
    },
    {
      "x": 30,
      "y": 62,
      "size": 1,
      "price": "2106000000000000000000",
      "reserved": "",
      "assetIds": [
        "55464657044963196816950587289035428064568320970692304673817341489687455367176",
        "55464657044963196816950587289035428064568320970692304673817341489687455367170",
        "55464657044963196816950587289035428064568320970692304673817341489687455367169",
        "55464657044963196816950587289035428064568320970692304673817341489687455367168",
        "55464657044963196816950587289035428064568320970692304673817341489687463725056"
      ]
    },
    {
      "x": 31,
      "y": 62,
      "size": 1,
      "price": "2106000000000000000000",
      "reserved": "",
      "assetIds": [
        "55464657044963196816950587289035428064568320970692304673817341489687455367177",
        "55464657044963196816950587289035428064568320970692304673817341489687455367170",
        "55464657044963196816950587289035428064568320970692304673817341489687455367169",
        "55464657044963196816950587289035428064568320970692304673817341489687455367168",
        "55464657044963196816950587289035428064568320970692304673817341489687463725056"
      ]
    },
    {
      "x": 30,
      "y": 63,
      "size": 1,
      "price": "2106000000000000000000",
      "reserved": "",
      "assetIds": [
        "55464657044963196816950587289035428064568320970692304673817341489687455367182",
        "55464657044963196816950587289035428064568320970692304673817341489687455367171",
        "55464657044963196816950587289035428064568320970692304673817341489687455367169",
        "55464657044963196816950587289035428064568320970692304673817341489687455367168",
        "55464657044963196816950587289035428064568320970692304673817341489687463725056"
      ]
    },
    {
      "x": 29,
      "y": 63,
      "size": 1,
      "price": "2106000000000000000000",
      "reserved": "",
      "assetIds": [
        "55464657044963196816950587289035428064568320970692304673817341489687455367183",
        "55464657044963196816950587289035428064568320970692304673817341489687455367171",
        "55464657044963196816950587289035428064568320970692304673817341489687455367169",
        "55464657044963196816950587289035428064568320970692304673817341489687455367168",
        "55464657044963196816950587289035428064568320970692304673817341489687463725056"
      ]
    },
    {
      "x": 31,
      "y": 63,
      "size": 1,
      "price": "2106000000000000000000",
      "reserved": "",
      "assetIds": [
        "55464657044963196816950587289035428064568320970692304673817341489687455367180",
        "55464657044963196816950587289035428064568320970692304673817341489687455367171",
        "55464657044963196816950587289035428064568320970692304673817341489687455367169",
        "55464657044963196816950587289035428064568320970692304673817341489687455367168",
        "55464657044963196816950587289035428064568320970692304673817341489687463725056"
      ]
    },
    {
      "x": 29,
      "y": 62,
      "size": 1,
      "price": "2106000000000000000000",
      "reserved": "",
      "assetIds": [
        "55464657044963196816950587289035428064568320970692304673817341489687455367178",
        "55464657044963196816950587289035428064568320970692304673817341489687455367171",
        "55464657044963196816950587289035428064568320970692304673817341489687455367169",
        "55464657044963196816950587289035428064568320970692304673817341489687455367168",
        "55464657044963196816950587289035428064568320970692304673817341489687463725056"
      ]
    },
    {
      "x": 28,
      "y": 62,
      "size": 1,
      "price": "2106000000000000000000",
      "reserved": "",
      "assetIds": [
        "55464657044963196816950587289035428064568320970692304673817341489687455367177",
        "55464657044963196816950587289035428064568320970692304673817341489687455367170",
        "55464657044963196816950587289035428064568320970692304673817341489687455367169",
        "55464657044963196816950587289035428064568320970692304673817341489687455367168",
        "55464657044963196816950587289035428064568320970692304673817341489687463725056"
      ]
    },
    {
      "x": 28,
      "y": 61,
      "size": 1,
      "price": "2106000000000000000000",
      "reserved": "",
      "assetIds": [
        "55464657044963196816950587289035428064568320970692304673817341489687455367177",
        "55464657044963196816950587289035428064568320970692304673817341489687455367170",
        "55464657044963196816950587289035428064568320970692304673817341489687455367169",
        "55464657044963196816950587289035428064568320970692304673817341489687455367168",
        "55464657044963196816950587289035428064568320970692304673817341489687463725056"
      ]
    },
    {
      "x": 28,
      "y": 63,
      "size": 1,
      "price": "2106000000000000000000",
      "reserved": "",
      "assetIds": [
        "55464657044963196816950587289035428064568320970692304673817341489687455367173",
        "55464657044963196816950587289035428064568320970692304673817341489687455367170",
        "55464657044963196816950587289035428064568320970692304673817341489687455367169",
        "55464657044963196816950587289035428064568320970692304673817341489687455367168",
        "55464657044963196816950587289035428064568320970692304673817341489687463725056"
      ]
    },
    {
      "x": 26,
      "y": 62,
      "size": 1,
      "price": "2106000000000000000000",
      "reserved": "",
      "assetIds": [
        "55464657044963196816950587289035428064568320970692304673817341489687455367181",
        "55464657044963196816950587289035428064568320970692304673817341489687455367171",
        "55464657044963196816950587289035428064568320970692304673817341489687455367169",
        "55464657044963196816950587289035428064568320970692304673817341489687455367168",
        "55464657044963196816950587289035428064568320970692304673817341489687463725056"
      ]
    },
    {
      "x": 26,
      "y": 63,
      "size": 1,
      "price": "2106000000000000000000",
      "reserved": "",
      "assetIds": [
        "55464657044963196816950587289035428064568320970692304673817341489687455367175",
        "55464657044963196816950587289035428064568320970692304673817341489687455367170",
        "55464657044963196816950587289035428064568320970692304673817341489687455367169",
        "55464657044963196816950587289035428064568320970692304673817341489687455367168",
        "55464657044963196816950587289035428064568320970692304673817341489687463725056"
      ]
    },
    {
      "x": 27,
      "y": 63,
      "size": 1,
      "price": "2106000000000000000000",
      "reserved": "",
      "assetIds": [
        "55464657044963196816950587289035428064568320970692304673817341489687455367173",
        "55464657044963196816950587289035428064568320970692304673817341489687455367170",
        "55464657044963196816950587289035428064568320970692304673817341489687455367169",
        "55464657044963196816950587289035428064568320970692304673817341489687455367168",
        "55464657044963196816950587289035428064568320970692304673817341489687463725056"
      ]
    },
    {
      "x": 25,
      "y": 63,
      "size": 1,
      "price": "2106000000000000000000",
      "reserved": "",
      "assetIds": [
        "55464657044963196816950587289035428064568320970692304673817341489687455367175",
        "55464657044963196816950587289035428064568320970692304673817341489687455367170",
        "55464657044963196816950587289035428064568320970692304673817341489687455367169",
        "55464657044963196816950587289035428064568320970692304673817341489687455367168",
        "55464657044963196816950587289035428064568320970692304673817341489687463725056"
      ]
    },
    {
      "x": 25,
      "y": 64,
      "size": 1,
      "price": "2106000000000000000000",
      "reserved": "",
      "assetIds": [
        "55464657044963196816950587289035428064568320970692304673817341489687455367178",
        "55464657044963196816950587289035428064568320970692304673817341489687455367171",
        "55464657044963196816950587289035428064568320970692304673817341489687455367169",
        "55464657044963196816950587289035428064568320970692304673817341489687455367168",
        "55464657044963196816950587289035428064568320970692304673817341489687463725056"
      ]
    },
    {
      "x": 24,
      "y": 58,
      "size": 1,
      "price": "2106000000000000000000",
      "reserved": "",
      "assetIds": [
        "55464657044963196816950587289035428064568320970692304673817341489687455367179",
        "55464657044963196816950587289035428064568320970692304673817341489687455367171",
        "55464657044963196816950587289035428064568320970692304673817341489687455367169",
        "55464657044963196816950587289035428064568320970692304673817341489687455367168",
        "55464657044963196816950587289035428064568320970692304673817341489687463725056"
      ]
    },
    {
      "x": 25,
      "y": 58,
      "size": 1,
      "price": "2106000000000000000000",
      "reserved": "",
      "assetIds": [
        "55464657044963196816950587289035428064568320970692304673817341489687455367182",
        "55464657044963196816950587289035428064568320970692304673817341489687455367171",
        "55464657044963196816950587289035428064568320970692304673817341489687455367169",
        "55464657044963196816950587289035428064568320970692304673817341489687455367168",
        "55464657044963196816950587289035428064568320970692304673817341489687463725056"
      ]
    },
    {
      "x": 26,
      "y": 58,
      "size": 1,
      "price": "2106000000000000000000",
      "reserved": "",
      "assetIds": [
        "55464657044963196816950587289035428064568320970692304673817341489687455367177",
        "55464657044963196816950587289035428064568320970692304673817341489687455367170",
        "55464657044963196816950587289035428064568320970692304673817341489687455367169",
        "55464657044963196816950587289035428064568320970692304673817341489687455367168",
        "55464657044963196816950587289035428064568320970692304673817341489687463725056"
      ]
    },
    {
      "x": 27,
      "y": 58,
      "size": 1,
      "price": "2106000000000000000000",
      "reserved": "",
      "assetIds": [
        "55464657044963196816950587289035428064568320970692304673817341489687455367180",
        "55464657044963196816950587289035428064568320970692304673817341489687455367171",
        "55464657044963196816950587289035428064568320970692304673817341489687455367169",
        "55464657044963196816950587289035428064568320970692304673817341489687455367168",
        "55464657044963196816950587289035428064568320970692304673817341489687463725056"
      ]
    },
    {
      "x": 28,
      "y": 58,
      "size": 1,
      "price": "2106000000000000000000",
      "reserved": "",
      "assetIds": [
        "55464657044963196816950587289035428064568320970692304673817341489687455367181",
        "55464657044963196816950587289035428064568320970692304673817341489687455367171",
        "55464657044963196816950587289035428064568320970692304673817341489687455367169",
        "55464657044963196816950587289035428064568320970692304673817341489687455367168",
        "55464657044963196816950587289035428064568320970692304673817341489687463725056"
      ]
    },
    {
      "x": 29,
      "y": 56,
      "size": 1,
      "price": "2106000000000000000000",
      "reserved": "",
      "assetIds": [
        "55464657044963196816950587289035428064568320970692304673817341489687455367178",
        "55464657044963196816950587289035428064568320970692304673817341489687455367171",
        "55464657044963196816950587289035428064568320970692304673817341489687455367169",
        "55464657044963196816950587289035428064568320970692304673817341489687455367168",
        "55464657044963196816950587289035428064568320970692304673817341489687463725056"
      ]
    },
    {
      "x": 28,
      "y": 56,
      "size": 1,
      "price": "2106000000000000000000",
      "reserved": "",
      "assetIds": [
        "55464657044963196816950587289035428064568320970692304673817341489687455367180",
        "55464657044963196816950587289035428064568320970692304673817341489687455367171",
        "55464657044963196816950587289035428064568320970692304673817341489687455367169",
        "55464657044963196816950587289035428064568320970692304673817341489687455367168",
        "55464657044963196816950587289035428064568320970692304673817341489687463725056"
      ]
    },
    {
      "x": 27,
      "y": 56,
      "size": 1,
      "price": "2106000000000000000000",
      "reserved": "",
      "assetIds": [
        "55464657044963196816950587289035428064568320970692304673817341489687455367182",
        "55464657044963196816950587289035428064568320970692304673817341489687455367171",
        "55464657044963196816950587289035428064568320970692304673817341489687455367169",
        "55464657044963196816950587289035428064568320970692304673817341489687455367168",
        "55464657044963196816950587289035428064568320970692304673817341489687463725056"
      ]
    },
    {
      "x": 26,
      "y": 56,
      "size": 1,
      "price": "2106000000000000000000",
      "reserved": "",
      "assetIds": [
        "55464657044963196816950587289035428064568320970692304673817341489687455367180",
        "55464657044963196816950587289035428064568320970692304673817341489687455367171",
        "55464657044963196816950587289035428064568320970692304673817341489687455367169",
        "55464657044963196816950587289035428064568320970692304673817341489687455367168",
        "55464657044963196816950587289035428064568320970692304673817341489687463725056"
      ]
    },
    {
      "x": 26,
      "y": 57,
      "size": 1,
      "price": "2106000000000000000000",
      "reserved": "",
      "assetIds": [
        "55464657044963196816950587289035428064568320970692304673817341489687455367172",
        "55464657044963196816950587289035428064568320970692304673817341489687455367170",
        "55464657044963196816950587289035428064568320970692304673817341489687455367169",
        "55464657044963196816950587289035428064568320970692304673817341489687455367168",
        "55464657044963196816950587289035428064568320970692304673817341489687463725056"
      ]
    },
    {
      "x": 25,
      "y": 57,
      "size": 1,
      "price": "2106000000000000000000",
      "reserved": "",
      "assetIds": [
        "55464657044963196816950587289035428064568320970692304673817341489687455367175",
        "55464657044963196816950587289035428064568320970692304673817341489687455367170",
        "55464657044963196816950587289035428064568320970692304673817341489687455367169",
        "55464657044963196816950587289035428064568320970692304673817341489687455367168",
        "55464657044963196816950587289035428064568320970692304673817341489687463725056"
      ]
    },
    {
      "x": 27,
      "y": 57,
      "size": 1,
      "price": "2106000000000000000000",
      "reserved": "",
      "assetIds": [
        "55464657044963196816950587289035428064568320970692304673817341489687455367177",
        "55464657044963196816950587289035428064568320970692304673817341489687455367170",
        "55464657044963196816950587289035428064568320970692304673817341489687455367169",
        "55464657044963196816950587289035428064568320970692304673817341489687455367168",
        "55464657044963196816950587289035428064568320970692304673817341489687463725056"
      ]
    },
    {
      "x": 28,
      "y": 57,
      "size": 1,
      "price": "2106000000000000000000",
      "reserved": "",
      "assetIds": [
        "55464657044963196816950587289035428064568320970692304673817341489687455367174",
        "55464657044963196816950587289035428064568320970692304673817341489687455367170",
        "55464657044963196816950587289035428064568320970692304673817341489687455367169",
        "55464657044963196816950587289035428064568320970692304673817341489687455367168",
        "55464657044963196816950587289035428064568320970692304673817341489687463725056"
      ]
    },
    {
      "x": 28,
      "y": 59,
      "size": 1,
      "price": "2106000000000000000000",
      "reserved": "",
      "assetIds": [
        "55464657044963196816950587289035428064568320970692304673817341489687455367177",
        "55464657044963196816950587289035428064568320970692304673817341489687455367170",
        "55464657044963196816950587289035428064568320970692304673817341489687455367169",
        "55464657044963196816950587289035428064568320970692304673817341489687455367168",
        "55464657044963196816950587289035428064568320970692304673817341489687463725056"
      ]
    },
    {
      "x": 27,
      "y": 60,
      "size": 1,
      "price": "2106000000000000000000",
      "reserved": "",
      "assetIds": [
        "55464657044963196816950587289035428064568320970692304673817341489687455367174",
        "55464657044963196816950587289035428064568320970692304673817341489687455367170",
        "55464657044963196816950587289035428064568320970692304673817341489687455367169",
        "55464657044963196816950587289035428064568320970692304673817341489687455367168",
        "55464657044963196816950587289035428064568320970692304673817341489687463725056"
      ]
    },
    {
      "x": 26,
      "y": 60,
      "size": 1,
      "price": "2106000000000000000000",
      "reserved": "",
      "assetIds": [
        "55464657044963196816950587289035428064568320970692304673817341489687455367175",
        "55464657044963196816950587289035428064568320970692304673817341489687455367170",
        "55464657044963196816950587289035428064568320970692304673817341489687455367169",
        "55464657044963196816950587289035428064568320970692304673817341489687455367168",
        "55464657044963196816950587289035428064568320970692304673817341489687463725056"
      ]
    },
    {
      "x": 25,
      "y": 60,
      "size": 1,
      "price": "2106000000000000000000",
      "reserved": "",
      "assetIds": [
        "55464657044963196816950587289035428064568320970692304673817341489687455367182",
        "55464657044963196816950587289035428064568320970692304673817341489687455367171",
        "55464657044963196816950587289035428064568320970692304673817341489687455367169",
        "55464657044963196816950587289035428064568320970692304673817341489687455367168",
        "55464657044963196816950587289035428064568320970692304673817341489687463725056"
      ]
    },
    {
      "x": 26,
      "y": 61,
      "size": 1,
      "price": "2106000000000000000000",
      "reserved": "",
      "assetIds": [
        "55464657044963196816950587289035428064568320970692304673817341489687455367177",
        "55464657044963196816950587289035428064568320970692304673817341489687455367170",
        "55464657044963196816950587289035428064568320970692304673817341489687455367169",
        "55464657044963196816950587289035428064568320970692304673817341489687455367168",
        "55464657044963196816950587289035428064568320970692304673817341489687463725056"
      ]
    },
    {
      "x": 27,
      "y": 61,
      "size": 1,
      "price": "2106000000000000000000",
      "reserved": "",
      "assetIds": [
        "55464657044963196816950587289035428064568320970692304673817341489687455367176",
        "55464657044963196816950587289035428064568320970692304673817341489687455367170",
        "55464657044963196816950587289035428064568320970692304673817341489687455367169",
        "55464657044963196816950587289035428064568320970692304673817341489687455367168",
        "55464657044963196816950587289035428064568320970692304673817341489687463725056"
      ]
    },
    {
      "x": 28,
      "y": 60,
      "size": 1,
      "price": "2106000000000000000000",
      "reserved": "",
      "assetIds": [
        "55464657044963196816950587289035428064568320970692304673817341489687455367182",
        "55464657044963196816950587289035428064568320970692304673817341489687455367171",
        "55464657044963196816950587289035428064568320970692304673817341489687455367169",
        "55464657044963196816950587289035428064568320970692304673817341489687455367168",
        "55464657044963196816950587289035428064568320970692304673817341489687463725056"
      ]
    },
    {
      "x": 27,
      "y": 59,
      "size": 1,
      "price": "2106000000000000000000",
      "reserved": "",
      "assetIds": [
        "55464657044963196816950587289035428064568320970692304673817341489687455367177",
        "55464657044963196816950587289035428064568320970692304673817341489687455367170",
        "55464657044963196816950587289035428064568320970692304673817341489687455367169",
        "55464657044963196816950587289035428064568320970692304673817341489687455367168",
        "55464657044963196816950587289035428064568320970692304673817341489687463725056"
      ]
    },
    {
      "x": 26,
      "y": 59,
      "size": 1,
      "price": "2106000000000000000000",
      "reserved": "",
      "assetIds": [
        "55464657044963196816950587289035428064568320970692304673817341489687455367183",
        "55464657044963196816950587289035428064568320970692304673817341489687455367171",
        "55464657044963196816950587289035428064568320970692304673817341489687455367169",
        "55464657044963196816950587289035428064568320970692304673817341489687455367168",
        "55464657044963196816950587289035428064568320970692304673817341489687463725056"
      ]
    },
    {
      "x": 25,
      "y": 61,
      "size": 1,
      "price": "2106000000000000000000",
      "reserved": "",
      "assetIds": [
        "55464657044963196816950587289035428064568320970692304673817341489687455367176",
        "55464657044963196816950587289035428064568320970692304673817341489687455367170",
        "55464657044963196816950587289035428064568320970692304673817341489687455367169",
        "55464657044963196816950587289035428064568320970692304673817341489687455367168",
        "55464657044963196816950587289035428064568320970692304673817341489687463725056"
      ]
    },
    {
      "x": 25,
      "y": 62,
      "size": 1,
      "price": "2106000000000000000000",
      "reserved": "",
      "assetIds": [
        "55464657044963196816950587289035428064568320970692304673817341489687455367176",
        "55464657044963196816950587289035428064568320970692304673817341489687455367170",
        "55464657044963196816950587289035428064568320970692304673817341489687455367169",
        "55464657044963196816950587289035428064568320970692304673817341489687455367168",
        "55464657044963196816950587289035428064568320970692304673817341489687463725056"
      ]
    },
    {
      "x": 25,
      "y": 59,
      "size": 1,
      "price": "2106000000000000000000",
      "reserved": "",
      "assetIds": [
        "55464657044963196816950587289035428064568320970692304673817341489687455367179",
        "55464657044963196816950587289035428064568320970692304673817341489687455367171",
        "55464657044963196816950587289035428064568320970692304673817341489687455367169",
        "55464657044963196816950587289035428064568320970692304673817341489687455367168",
        "55464657044963196816950587289035428064568320970692304673817341489687463725056"
      ]
    },
    {
      "x": 26,
      "y": 55,
      "size": 1,
      "price": "2106000000000000000000",
      "reserved": "",
      "assetIds": [
        "55464657044963196816950587289035428064568320970692304673817341489687455367173",
        "55464657044963196816950587289035428064568320970692304673817341489687455367170",
        "55464657044963196816950587289035428064568320970692304673817341489687455367169",
        "55464657044963196816950587289035428064568320970692304673817341489687455367168",
        "55464657044963196816950587289035428064568320970692304673817341489687463725056"
      ]
    },
    {
      "x": 28,
      "y": 54,
      "size": 1,
      "price": "2106000000000000000000",
      "reserved": "",
      "assetIds": [
        "55464657044963196816950587289035428064568320970692304673817341489687455367177",
        "55464657044963196816950587289035428064568320970692304673817341489687455367170",
        "55464657044963196816950587289035428064568320970692304673817341489687455367169",
        "55464657044963196816950587289035428064568320970692304673817341489687455367168",
        "55464657044963196816950587289035428064568320970692304673817341489687463725056"
      ]
    },
    {
      "x": 29,
      "y": 54,
      "size": 1,
      "price": "2106000000000000000000",
      "reserved": "",
      "assetIds": [
        "55464657044963196816950587289035428064568320970692304673817341489687455367183",
        "55464657044963196816950587289035428064568320970692304673817341489687455367171",
        "55464657044963196816950587289035428064568320970692304673817341489687455367169",
        "55464657044963196816950587289035428064568320970692304673817341489687455367168",
        "55464657044963196816950587289035428064568320970692304673817341489687463725056"
      ]
    },
    {
      "x": 28,
      "y": 55,
      "size": 1,
      "price": "2106000000000000000000",
      "reserved": "",
      "assetIds": [
        "55464657044963196816950587289035428064568320970692304673817341489687455367181",
        "55464657044963196816950587289035428064568320970692304673817341489687455367171",
        "55464657044963196816950587289035428064568320970692304673817341489687455367169",
        "55464657044963196816950587289035428064568320970692304673817341489687455367168",
        "55464657044963196816950587289035428064568320970692304673817341489687463725056"
      ]
    },
    {
      "x": 26,
      "y": 54,
      "size": 1,
      "price": "2106000000000000000000",
      "reserved": "",
      "assetIds": [
        "55464657044963196816950587289035428064568320970692304673817341489687455367174",
        "55464657044963196816950587289035428064568320970692304673817341489687455367170",
        "55464657044963196816950587289035428064568320970692304673817341489687455367169",
        "55464657044963196816950587289035428064568320970692304673817341489687455367168",
        "55464657044963196816950587289035428064568320970692304673817341489687463725056"
      ]
    },
    {
      "x": 27,
      "y": 55,
      "size": 1,
      "price": "2106000000000000000000",
      "reserved": "",
      "assetIds": [
        "55464657044963196816950587289035428064568320970692304673817341489687455367173",
        "55464657044963196816950587289035428064568320970692304673817341489687455367170",
        "55464657044963196816950587289035428064568320970692304673817341489687455367169",
        "55464657044963196816950587289035428064568320970692304673817341489687455367168",
        "55464657044963196816950587289035428064568320970692304673817341489687463725056"
      ]
    },
    {
      "x": 25,
      "y": 55,
      "size": 1,
      "price": "2106000000000000000000",
      "reserved": "",
      "assetIds": [
        "55464657044963196816950587289035428064568320970692304673817341489687455367174",
        "55464657044963196816950587289035428064568320970692304673817341489687455367170",
        "55464657044963196816950587289035428064568320970692304673817341489687455367169",
        "55464657044963196816950587289035428064568320970692304673817341489687455367168",
        "55464657044963196816950587289035428064568320970692304673817341489687463725056"
      ]
    },
    {
      "x": 25,
      "y": 54,
      "size": 1,
      "price": "2106000000000000000000",
      "reserved": "",
      "assetIds": [
        "55464657044963196816950587289035428064568320970692304673817341489687455367178",
        "55464657044963196816950587289035428064568320970692304673817341489687455367171",
        "55464657044963196816950587289035428064568320970692304673817341489687455367169",
        "55464657044963196816950587289035428064568320970692304673817341489687455367168",
        "55464657044963196816950587289035428064568320970692304673817341489687463725056"
      ]
    },
    {
      "x": 25,
      "y": 56,
      "size": 1,
      "price": "2106000000000000000000",
      "reserved": "",
      "assetIds": [
        "55464657044963196816950587289035428064568320970692304673817341489687455367173",
        "55464657044963196816950587289035428064568320970692304673817341489687455367170",
        "55464657044963196816950587289035428064568320970692304673817341489687455367169",
        "55464657044963196816950587289035428064568320970692304673817341489687455367168",
        "55464657044963196816950587289035428064568320970692304673817341489687463725056"
      ]
    },
    {
      "x": 24,
      "y": 56,
      "size": 1,
      "price": "2106000000000000000000",
      "reserved": "",
      "assetIds": [
        "55464657044963196816950587289035428064568320970692304673817341489687455367172",
        "55464657044963196816950587289035428064568320970692304673817341489687455367170",
        "55464657044963196816950587289035428064568320970692304673817341489687455367169",
        "55464657044963196816950587289035428064568320970692304673817341489687455367168",
        "55464657044963196816950587289035428064568320970692304673817341489687463725056"
      ]
    },
    {
      "x": 24,
      "y": 57,
      "size": 1,
      "price": "2106000000000000000000",
      "reserved": "",
      "assetIds": [
        "55464657044963196816950587289035428064568320970692304673817341489687455367177",
        "55464657044963196816950587289035428064568320970692304673817341489687455367170",
        "55464657044963196816950587289035428064568320970692304673817341489687455367169",
        "55464657044963196816950587289035428064568320970692304673817341489687455367168",
        "55464657044963196816950587289035428064568320970692304673817341489687463725056"
      ]
    },
    {
      "x": 23,
      "y": 58,
      "size": 1,
      "price": "2106000000000000000000",
      "reserved": "",
      "assetIds": [
        "55464657044963196816950587289035428064568320970692304673817341489687455367182",
        "55464657044963196816950587289035428064568320970692304673817341489687455367171",
        "55464657044963196816950587289035428064568320970692304673817341489687455367169",
        "55464657044963196816950587289035428064568320970692304673817341489687455367168",
        "55464657044963196816950587289035428064568320970692304673817341489687463725056"
      ]
    },
    {
      "x": 22,
      "y": 58,
      "size": 1,
      "price": "2106000000000000000000",
      "reserved": "",
      "assetIds": [
        "55464657044963196816950587289035428064568320970692304673817341489687455367175",
        "55464657044963196816950587289035428064568320970692304673817341489687455367170",
        "55464657044963196816950587289035428064568320970692304673817341489687455367169",
        "55464657044963196816950587289035428064568320970692304673817341489687455367168",
        "55464657044963196816950587289035428064568320970692304673817341489687463725056"
      ]
    },
    {
      "x": 21,
      "y": 58,
      "size": 1,
      "price": "2106000000000000000000",
      "reserved": "",
      "assetIds": [
        "55464657044963196816950587289035428064568320970692304673817341489687455367182",
        "55464657044963196816950587289035428064568320970692304673817341489687455367171",
        "55464657044963196816950587289035428064568320970692304673817341489687455367169",
        "55464657044963196816950587289035428064568320970692304673817341489687455367168",
        "55464657044963196816950587289035428064568320970692304673817341489687463725056"
      ]
    },
    {
      "x": 20,
      "y": 58,
      "size": 1,
      "price": "2106000000000000000000",
      "reserved": "",
      "assetIds": [
        "55464657044963196816950587289035428064568320970692304673817341489687455367177",
        "55464657044963196816950587289035428064568320970692304673817341489687455367170",
        "55464657044963196816950587289035428064568320970692304673817341489687455367169",
        "55464657044963196816950587289035428064568320970692304673817341489687455367168",
        "55464657044963196816950587289035428064568320970692304673817341489687463725056"
      ]
    },
    {
      "x": 19,
      "y": 58,
      "size": 1,
      "price": "2106000000000000000000",
      "reserved": "",
      "assetIds": [
        "55464657044963196816950587289035428064568320970692304673817341489687455367181",
        "55464657044963196816950587289035428064568320970692304673817341489687455367171",
        "55464657044963196816950587289035428064568320970692304673817341489687455367169",
        "55464657044963196816950587289035428064568320970692304673817341489687455367168",
        "55464657044963196816950587289035428064568320970692304673817341489687463725056"
      ]
    },
    {
      "x": 19,
      "y": 57,
      "size": 1,
      "price": "2106000000000000000000",
      "reserved": "",
      "assetIds": [
        "55464657044963196816950587289035428064568320970692304673817341489687455367178",
        "55464657044963196816950587289035428064568320970692304673817341489687455367171",
        "55464657044963196816950587289035428064568320970692304673817341489687455367169",
        "55464657044963196816950587289035428064568320970692304673817341489687455367168",
        "55464657044963196816950587289035428064568320970692304673817341489687463725056"
      ]
    },
    {
      "x": 18,
      "y": 57,
      "size": 1,
      "price": "2106000000000000000000",
      "reserved": "",
      "assetIds": [
        "55464657044963196816950587289035428064568320970692304673817341489687455367173",
        "55464657044963196816950587289035428064568320970692304673817341489687455367170",
        "55464657044963196816950587289035428064568320970692304673817341489687455367169",
        "55464657044963196816950587289035428064568320970692304673817341489687455367168",
        "55464657044963196816950587289035428064568320970692304673817341489687463725056"
      ]
    },
    {
      "x": 18,
      "y": 56,
      "size": 1,
      "price": "2106000000000000000000",
      "reserved": "",
      "assetIds": [
        "55464657044963196816950587289035428064568320970692304673817341489687455367182",
        "55464657044963196816950587289035428064568320970692304673817341489687455367171",
        "55464657044963196816950587289035428064568320970692304673817341489687455367169",
        "55464657044963196816950587289035428064568320970692304673817341489687455367168",
        "55464657044963196816950587289035428064568320970692304673817341489687463725056"
      ]
    },
    {
      "x": 18,
      "y": 55,
      "size": 1,
      "price": "2106000000000000000000",
      "reserved": "",
      "assetIds": [
        "55464657044963196816950587289035428064568320970692304673817341489687455367179",
        "55464657044963196816950587289035428064568320970692304673817341489687455367171",
        "55464657044963196816950587289035428064568320970692304673817341489687455367169",
        "55464657044963196816950587289035428064568320970692304673817341489687455367168",
        "55464657044963196816950587289035428064568320970692304673817341489687463725056"
      ]
    },
    {
      "x": 18,
      "y": 54,
      "size": 1,
      "price": "2106000000000000000000",
      "reserved": "",
      "assetIds": [
        "55464657044963196816950587289035428064568320970692304673817341489687455367183",
        "55464657044963196816950587289035428064568320970692304673817341489687455367171",
        "55464657044963196816950587289035428064568320970692304673817341489687455367169",
        "55464657044963196816950587289035428064568320970692304673817341489687455367168",
        "55464657044963196816950587289035428064568320970692304673817341489687463725056"
      ]
    },
    {
      "x": 18,
      "y": 53,
      "size": 1,
      "price": "2106000000000000000000",
      "reserved": "",
      "assetIds": [
        "55464657044963196816950587289035428064568320970692304673817341489687455367179",
        "55464657044963196816950587289035428064568320970692304673817341489687455367171",
        "55464657044963196816950587289035428064568320970692304673817341489687455367169",
        "55464657044963196816950587289035428064568320970692304673817341489687455367168",
        "55464657044963196816950587289035428064568320970692304673817341489687463725056"
      ]
    },
    {
      "x": 19,
      "y": 53,
      "size": 1,
      "price": "2106000000000000000000",
      "reserved": "",
      "assetIds": [
        "55464657044963196816950587289035428064568320970692304673817341489687455367179",
        "55464657044963196816950587289035428064568320970692304673817341489687455367171",
        "55464657044963196816950587289035428064568320970692304673817341489687455367169",
        "55464657044963196816950587289035428064568320970692304673817341489687455367168",
        "55464657044963196816950587289035428064568320970692304673817341489687463725056"
      ]
    },
    {
      "x": 20,
      "y": 53,
      "size": 1,
      "price": "2106000000000000000000",
      "reserved": "",
      "assetIds": [
        "55464657044963196816950587289035428064568320970692304673817341489687455367182",
        "55464657044963196816950587289035428064568320970692304673817341489687455367171",
        "55464657044963196816950587289035428064568320970692304673817341489687455367169",
        "55464657044963196816950587289035428064568320970692304673817341489687455367168",
        "55464657044963196816950587289035428064568320970692304673817341489687463725056"
      ]
    },
    {
      "x": 20,
      "y": 52,
      "size": 1,
      "price": "2106000000000000000000",
      "reserved": "",
      "assetIds": [
        "55464657044963196816950587289035428064568320970692304673817341489687455367178",
        "55464657044963196816950587289035428064568320970692304673817341489687455367171",
        "55464657044963196816950587289035428064568320970692304673817341489687455367169",
        "55464657044963196816950587289035428064568320970692304673817341489687455367168",
        "55464657044963196816950587289035428064568320970692304673817341489687463725056"
      ]
    },
    {
      "x": 21,
      "y": 52,
      "size": 1,
      "price": "2106000000000000000000",
      "reserved": "",
      "assetIds": [
        "55464657044963196816950587289035428064568320970692304673817341489687455367181",
        "55464657044963196816950587289035428064568320970692304673817341489687455367171",
        "55464657044963196816950587289035428064568320970692304673817341489687455367169",
        "55464657044963196816950587289035428064568320970692304673817341489687455367168",
        "55464657044963196816950587289035428064568320970692304673817341489687463725056"
      ]
    },
    {
      "x": 22,
      "y": 53,
      "size": 1,
      "price": "2106000000000000000000",
      "reserved": "",
      "assetIds": [
        "55464657044963196816950587289035428064568320970692304673817341489687455367182",
        "55464657044963196816950587289035428064568320970692304673817341489687455367171",
        "55464657044963196816950587289035428064568320970692304673817341489687455367169",
        "55464657044963196816950587289035428064568320970692304673817341489687455367168",
        "55464657044963196816950587289035428064568320970692304673817341489687463725056"
      ]
    },
    {
      "x": 23,
      "y": 53,
      "size": 1,
      "price": "2106000000000000000000",
      "reserved": "",
      "assetIds": [
        "55464657044963196816950587289035428064568320970692304673817341489687455367180",
        "55464657044963196816950587289035428064568320970692304673817341489687455367171",
        "55464657044963196816950587289035428064568320970692304673817341489687455367169",
        "55464657044963196816950587289035428064568320970692304673817341489687455367168",
        "55464657044963196816950587289035428064568320970692304673817341489687463725056"
      ]
    },
    {
      "x": 24,
      "y": 53,
      "size": 1,
      "price": "2106000000000000000000",
      "reserved": "",
      "assetIds": [
        "55464657044963196816950587289035428064568320970692304673817341489687455367181",
        "55464657044963196816950587289035428064568320970692304673817341489687455367171",
        "55464657044963196816950587289035428064568320970692304673817341489687455367169",
        "55464657044963196816950587289035428064568320970692304673817341489687455367168",
        "55464657044963196816950587289035428064568320970692304673817341489687463725056"
      ]
    },
    {
      "x": 24,
      "y": 54,
      "size": 1,
      "price": "2106000000000000000000",
      "reserved": "",
      "assetIds": [
        "55464657044963196816950587289035428064568320970692304673817341489687455367180",
        "55464657044963196816950587289035428064568320970692304673817341489687455367171",
        "55464657044963196816950587289035428064568320970692304673817341489687455367169",
        "55464657044963196816950587289035428064568320970692304673817341489687455367168",
        "55464657044963196816950587289035428064568320970692304673817341489687463725056"
      ]
    },
    {
      "x": 24,
      "y": 55,
      "size": 1,
      "price": "2106000000000000000000",
      "reserved": "",
      "assetIds": [
        "55464657044963196816950587289035428064568320970692304673817341489687455367179",
        "55464657044963196816950587289035428064568320970692304673817341489687455367171",
        "55464657044963196816950587289035428064568320970692304673817341489687455367169",
        "55464657044963196816950587289035428064568320970692304673817341489687455367168",
        "55464657044963196816950587289035428064568320970692304673817341489687463725056"
      ]
    },
    {
      "x": 23,
      "y": 55,
      "size": 1,
      "price": "2106000000000000000000",
      "reserved": "",
      "assetIds": [
        "55464657044963196816950587289035428064568320970692304673817341489687455367180",
        "55464657044963196816950587289035428064568320970692304673817341489687455367171",
        "55464657044963196816950587289035428064568320970692304673817341489687455367169",
        "55464657044963196816950587289035428064568320970692304673817341489687455367168",
        "55464657044963196816950587289035428064568320970692304673817341489687463725056"
      ]
    },
    {
      "x": 22,
      "y": 55,
      "size": 1,
      "price": "2106000000000000000000",
      "reserved": "",
      "assetIds": [
        "55464657044963196816950587289035428064568320970692304673817341489687455367172",
        "55464657044963196816950587289035428064568320970692304673817341489687455367170",
        "55464657044963196816950587289035428064568320970692304673817341489687455367169",
        "55464657044963196816950587289035428064568320970692304673817341489687455367168",
        "55464657044963196816950587289035428064568320970692304673817341489687463725056"
      ]
    },
    {
      "x": 21,
      "y": 55,
      "size": 1,
      "price": "2106000000000000000000",
      "reserved": "",
      "assetIds": [
        "55464657044963196816950587289035428064568320970692304673817341489687455367181",
        "55464657044963196816950587289035428064568320970692304673817341489687455367171",
        "55464657044963196816950587289035428064568320970692304673817341489687455367169",
        "55464657044963196816950587289035428064568320970692304673817341489687455367168",
        "55464657044963196816950587289035428064568320970692304673817341489687463725056"
      ]
    },
    {
      "x": 20,
      "y": 55,
      "size": 1,
      "price": "2106000000000000000000",
      "reserved": "",
      "assetIds": [
        "55464657044963196816950587289035428064568320970692304673817341489687455367177",
        "55464657044963196816950587289035428064568320970692304673817341489687455367170",
        "55464657044963196816950587289035428064568320970692304673817341489687455367169",
        "55464657044963196816950587289035428064568320970692304673817341489687455367168",
        "55464657044963196816950587289035428064568320970692304673817341489687463725056"
      ]
    },
    {
      "x": 20,
      "y": 54,
      "size": 1,
      "price": "2106000000000000000000",
      "reserved": "",
      "assetIds": [
        "55464657044963196816950587289035428064568320970692304673817341489687455367180",
        "55464657044963196816950587289035428064568320970692304673817341489687455367171",
        "55464657044963196816950587289035428064568320970692304673817341489687455367169",
        "55464657044963196816950587289035428064568320970692304673817341489687455367168",
        "55464657044963196816950587289035428064568320970692304673817341489687463725056"
      ]
    },
    {
      "x": 21,
      "y": 54,
      "size": 1,
      "price": "2106000000000000000000",
      "reserved": "",
      "assetIds": [
        "55464657044963196816950587289035428064568320970692304673817341489687455367174",
        "55464657044963196816950587289035428064568320970692304673817341489687455367170",
        "55464657044963196816950587289035428064568320970692304673817341489687455367169",
        "55464657044963196816950587289035428064568320970692304673817341489687455367168",
        "55464657044963196816950587289035428064568320970692304673817341489687463725056"
      ]
    },
    {
      "x": 21,
      "y": 53,
      "size": 1,
      "price": "2106000000000000000000",
      "reserved": "",
      "assetIds": [
        "55464657044963196816950587289035428064568320970692304673817341489687455367181",
        "55464657044963196816950587289035428064568320970692304673817341489687455367171",
        "55464657044963196816950587289035428064568320970692304673817341489687455367169",
        "55464657044963196816950587289035428064568320970692304673817341489687455367168",
        "55464657044963196816950587289035428064568320970692304673817341489687463725056"
      ]
    },
    {
      "x": 22,
      "y": 54,
      "size": 1,
      "price": "2106000000000000000000",
      "reserved": "",
      "assetIds": [
        "55464657044963196816950587289035428064568320970692304673817341489687455367173",
        "55464657044963196816950587289035428064568320970692304673817341489687455367170",
        "55464657044963196816950587289035428064568320970692304673817341489687455367169",
        "55464657044963196816950587289035428064568320970692304673817341489687455367168",
        "55464657044963196816950587289035428064568320970692304673817341489687463725056"
      ]
    },
    {
      "x": 19,
      "y": 54,
      "size": 1,
      "price": "2106000000000000000000",
      "reserved": "",
      "assetIds": [
        "55464657044963196816950587289035428064568320970692304673817341489687455367183",
        "55464657044963196816950587289035428064568320970692304673817341489687455367171",
        "55464657044963196816950587289035428064568320970692304673817341489687455367169",
        "55464657044963196816950587289035428064568320970692304673817341489687455367168",
        "55464657044963196816950587289035428064568320970692304673817341489687463725056"
      ]
    },
    {
      "x": 19,
      "y": 55,
      "size": 1,
      "price": "2106000000000000000000",
      "reserved": "",
      "assetIds": [
        "55464657044963196816950587289035428064568320970692304673817341489687455367177",
        "55464657044963196816950587289035428064568320970692304673817341489687455367170",
        "55464657044963196816950587289035428064568320970692304673817341489687455367169",
        "55464657044963196816950587289035428064568320970692304673817341489687455367168",
        "55464657044963196816950587289035428064568320970692304673817341489687463725056"
      ]
    },
    {
      "x": 20,
      "y": 56,
      "size": 1,
      "price": "2106000000000000000000",
      "reserved": "",
      "assetIds": [
        "55464657044963196816950587289035428064568320970692304673817341489687455367172",
        "55464657044963196816950587289035428064568320970692304673817341489687455367170",
        "55464657044963196816950587289035428064568320970692304673817341489687455367169",
        "55464657044963196816950587289035428064568320970692304673817341489687455367168",
        "55464657044963196816950587289035428064568320970692304673817341489687463725056"
      ]
    },
    {
      "x": 20,
      "y": 57,
      "size": 1,
      "price": "2106000000000000000000",
      "reserved": "",
      "assetIds": [
        "55464657044963196816950587289035428064568320970692304673817341489687455367183",
        "55464657044963196816950587289035428064568320970692304673817341489687455367171",
        "55464657044963196816950587289035428064568320970692304673817341489687455367169",
        "55464657044963196816950587289035428064568320970692304673817341489687455367168",
        "55464657044963196816950587289035428064568320970692304673817341489687463725056"
      ]
    },
    {
      "x": 18,
      "y": 58,
      "size": 1,
      "price": "2106000000000000000000",
      "reserved": "",
      "assetIds": [
        "55464657044963196816950587289035428064568320970692304673817341489687455367181",
        "55464657044963196816950587289035428064568320970692304673817341489687455367171",
        "55464657044963196816950587289035428064568320970692304673817341489687455367169",
        "55464657044963196816950587289035428064568320970692304673817341489687455367168",
        "55464657044963196816950587289035428064568320970692304673817341489687463725056"
      ]
    },
    {
      "x": 19,
      "y": 56,
      "size": 1,
      "price": "2106000000000000000000",
      "reserved": "",
      "assetIds": [
        "55464657044963196816950587289035428064568320970692304673817341489687455367180",
        "55464657044963196816950587289035428064568320970692304673817341489687455367171",
        "55464657044963196816950587289035428064568320970692304673817341489687455367169",
        "55464657044963196816950587289035428064568320970692304673817341489687455367168",
        "55464657044963196816950587289035428064568320970692304673817341489687463725056"
      ]
    },
    {
      "x": 21,
      "y": 57,
      "size": 1,
      "price": "2106000000000000000000",
      "reserved": "",
      "assetIds": [
        "55464657044963196816950587289035428064568320970692304673817341489687455367183",
        "55464657044963196816950587289035428064568320970692304673817341489687455367171",
        "55464657044963196816950587289035428064568320970692304673817341489687455367169",
        "55464657044963196816950587289035428064568320970692304673817341489687455367168",
        "55464657044963196816950587289035428064568320970692304673817341489687463725056"
      ]
    },
    {
      "x": 22,
      "y": 57,
      "size": 1,
      "price": "2106000000000000000000",
      "reserved": "",
      "assetIds": [
        "55464657044963196816950587289035428064568320970692304673817341489687455367183",
        "55464657044963196816950587289035428064568320970692304673817341489687455367171",
        "55464657044963196816950587289035428064568320970692304673817341489687455367169",
        "55464657044963196816950587289035428064568320970692304673817341489687455367168",
        "55464657044963196816950587289035428064568320970692304673817341489687463725056"
      ]
    },
    {
      "x": 23,
      "y": 57,
      "size": 1,
      "price": "2106000000000000000000",
      "reserved": "",
      "assetIds": [
        "55464657044963196816950587289035428064568320970692304673817341489687455367177",
        "55464657044963196816950587289035428064568320970692304673817341489687455367170",
        "55464657044963196816950587289035428064568320970692304673817341489687455367169",
        "55464657044963196816950587289035428064568320970692304673817341489687455367168",
        "55464657044963196816950587289035428064568320970692304673817341489687463725056"
      ]
    },
    {
      "x": 23,
      "y": 56,
      "size": 1,
      "price": "2106000000000000000000",
      "reserved": "",
      "assetIds": [
        "55464657044963196816950587289035428064568320970692304673817341489687455367179",
        "55464657044963196816950587289035428064568320970692304673817341489687455367171",
        "55464657044963196816950587289035428064568320970692304673817341489687455367169",
        "55464657044963196816950587289035428064568320970692304673817341489687455367168",
        "55464657044963196816950587289035428064568320970692304673817341489687463725056"
      ]
    },
    {
      "x": 22,
      "y": 56,
      "size": 1,
      "price": "2106000000000000000000",
      "reserved": "",
      "assetIds": [
        "55464657044963196816950587289035428064568320970692304673817341489687455367172",
        "55464657044963196816950587289035428064568320970692304673817341489687455367170",
        "55464657044963196816950587289035428064568320970692304673817341489687455367169",
        "55464657044963196816950587289035428064568320970692304673817341489687455367168",
        "55464657044963196816950587289035428064568320970692304673817341489687463725056"
      ]
    },
    {
      "x": 23,
      "y": 54,
      "size": 1,
      "price": "2106000000000000000000",
      "reserved": "",
      "assetIds": [
        "55464657044963196816950587289035428064568320970692304673817341489687455367180",
        "55464657044963196816950587289035428064568320970692304673817341489687455367171",
        "55464657044963196816950587289035428064568320970692304673817341489687455367169",
        "55464657044963196816950587289035428064568320970692304673817341489687455367168",
        "55464657044963196816950587289035428064568320970692304673817341489687463725056"
      ]
    },
    {
      "x": 23,
      "y": 52,
      "size": 1,
      "price": "2106000000000000000000",
      "reserved": "",
      "assetIds": [
        "55464657044963196816950587289035428064568320970692304673817341489687455367176",
        "55464657044963196816950587289035428064568320970692304673817341489687455367170",
        "55464657044963196816950587289035428064568320970692304673817341489687455367169",
        "55464657044963196816950587289035428064568320970692304673817341489687455367168",
        "55464657044963196816950587289035428064568320970692304673817341489687463725056"
      ]
    },
    {
      "x": 23,
      "y": 51,
      "size": 1,
      "price": "2106000000000000000000",
      "reserved": "",
      "assetIds": [
        "55464657044963196816950587289035428064568320970692304673817341489687455367176",
        "55464657044963196816950587289035428064568320970692304673817341489687455367170",
        "55464657044963196816950587289035428064568320970692304673817341489687455367169",
        "55464657044963196816950587289035428064568320970692304673817341489687455367168",
        "55464657044963196816950587289035428064568320970692304673817341489687463725056"
      ]
    },
    {
      "x": 23,
      "y": 50,
      "size": 1,
      "price": "2106000000000000000000",
      "reserved": "",
      "assetIds": [
        "55464657044963196816950587289035428064568320970692304673817341489687455367179",
        "55464657044963196816950587289035428064568320970692304673817341489687455367171",
        "55464657044963196816950587289035428064568320970692304673817341489687455367169",
        "55464657044963196816950587289035428064568320970692304673817341489687455367168",
        "55464657044963196816950587289035428064568320970692304673817341489687463725056"
      ]
    },
    {
      "x": 23,
      "y": 49,
      "size": 1,
      "price": "2106000000000000000000",
      "reserved": "",
      "assetIds": [
        "55464657044963196816950587289035428064568320970692304673817341489687455367180",
        "55464657044963196816950587289035428064568320970692304673817341489687455367171",
        "55464657044963196816950587289035428064568320970692304673817341489687455367169",
        "55464657044963196816950587289035428064568320970692304673817341489687455367168",
        "55464657044963196816950587289035428064568320970692304673817341489687463725056"
      ]
    },
    {
      "x": 22,
      "y": 49,
      "size": 1,
      "price": "2106000000000000000000",
      "reserved": "",
      "assetIds": [
        "55464657044963196816950587289035428064568320970692304673817341489687455367176",
        "55464657044963196816950587289035428064568320970692304673817341489687455367170",
        "55464657044963196816950587289035428064568320970692304673817341489687455367169",
        "55464657044963196816950587289035428064568320970692304673817341489687455367168",
        "55464657044963196816950587289035428064568320970692304673817341489687463725056"
      ]
    },
    {
      "x": 21,
      "y": 49,
      "size": 1,
      "price": "2106000000000000000000",
      "reserved": "",
      "assetIds": [
        "55464657044963196816950587289035428064568320970692304673817341489687455367174",
        "55464657044963196816950587289035428064568320970692304673817341489687455367170",
        "55464657044963196816950587289035428064568320970692304673817341489687455367169",
        "55464657044963196816950587289035428064568320970692304673817341489687455367168",
        "55464657044963196816950587289035428064568320970692304673817341489687463725056"
      ]
    },
    {
      "x": 20,
      "y": 49,
      "size": 1,
      "price": "2106000000000000000000",
      "reserved": "",
      "assetIds": [
        "55464657044963196816950587289035428064568320970692304673817341489687455367179",
        "55464657044963196816950587289035428064568320970692304673817341489687455367171",
        "55464657044963196816950587289035428064568320970692304673817341489687455367169",
        "55464657044963196816950587289035428064568320970692304673817341489687455367168",
        "55464657044963196816950587289035428064568320970692304673817341489687463725056"
      ]
    },
    {
      "x": 20,
      "y": 50,
      "size": 1,
      "price": "2106000000000000000000",
      "reserved": "",
      "assetIds": [
        "55464657044963196816950587289035428064568320970692304673817341489687455367173",
        "55464657044963196816950587289035428064568320970692304673817341489687455367170",
        "55464657044963196816950587289035428064568320970692304673817341489687455367169",
        "55464657044963196816950587289035428064568320970692304673817341489687455367168",
        "55464657044963196816950587289035428064568320970692304673817341489687463725056"
      ]
    },
    {
      "x": 21,
      "y": 50,
      "size": 1,
      "price": "2106000000000000000000",
      "reserved": "",
      "assetIds": [
        "55464657044963196816950587289035428064568320970692304673817341489687455367181",
        "55464657044963196816950587289035428064568320970692304673817341489687455367171",
        "55464657044963196816950587289035428064568320970692304673817341489687455367169",
        "55464657044963196816950587289035428064568320970692304673817341489687455367168",
        "55464657044963196816950587289035428064568320970692304673817341489687463725056"
      ]
    },
    {
      "x": 22,
      "y": 50,
      "size": 1,
      "price": "2106000000000000000000",
      "reserved": "",
      "assetIds": [
        "55464657044963196816950587289035428064568320970692304673817341489687455367182",
        "55464657044963196816950587289035428064568320970692304673817341489687455367171",
        "55464657044963196816950587289035428064568320970692304673817341489687455367169",
        "55464657044963196816950587289035428064568320970692304673817341489687455367168",
        "55464657044963196816950587289035428064568320970692304673817341489687463725056"
      ]
    },
    {
      "x": 22,
      "y": 52,
      "size": 1,
      "price": "2106000000000000000000",
      "reserved": "",
      "assetIds": [
        "55464657044963196816950587289035428064568320970692304673817341489687455367173",
        "55464657044963196816950587289035428064568320970692304673817341489687455367170",
        "55464657044963196816950587289035428064568320970692304673817341489687455367169",
        "55464657044963196816950587289035428064568320970692304673817341489687455367168",
        "55464657044963196816950587289035428064568320970692304673817341489687463725056"
      ]
    },
    {
      "x": 20,
      "y": 51,
      "size": 1,
      "price": "2106000000000000000000",
      "reserved": "",
      "assetIds": [
        "55464657044963196816950587289035428064568320970692304673817341489687455367172",
        "55464657044963196816950587289035428064568320970692304673817341489687455367170",
        "55464657044963196816950587289035428064568320970692304673817341489687455367169",
        "55464657044963196816950587289035428064568320970692304673817341489687455367168",
        "55464657044963196816950587289035428064568320970692304673817341489687463725056"
      ]
    },
    {
      "x": 19,
      "y": 51,
      "size": 1,
      "price": "2106000000000000000000",
      "reserved": "",
      "assetIds": [
        "55464657044963196816950587289035428064568320970692304673817341489687455367174",
        "55464657044963196816950587289035428064568320970692304673817341489687455367170",
        "55464657044963196816950587289035428064568320970692304673817341489687455367169",
        "55464657044963196816950587289035428064568320970692304673817341489687455367168",
        "55464657044963196816950587289035428064568320970692304673817341489687463725056"
      ]
    },
    {
      "x": 21,
      "y": 51,
      "size": 1,
      "price": "2106000000000000000000",
      "reserved": "",
      "assetIds": [
        "55464657044963196816950587289035428064568320970692304673817341489687455367176",
        "55464657044963196816950587289035428064568320970692304673817341489687455367170",
        "55464657044963196816950587289035428064568320970692304673817341489687455367169",
        "55464657044963196816950587289035428064568320970692304673817341489687455367168",
        "55464657044963196816950587289035428064568320970692304673817341489687463725056"
      ]
    },
    {
      "x": 19,
      "y": 52,
      "size": 1,
      "price": "2106000000000000000000",
      "reserved": "",
      "assetIds": [
        "55464657044963196816950587289035428064568320970692304673817341489687455367177",
        "55464657044963196816950587289035428064568320970692304673817341489687455367170",
        "55464657044963196816950587289035428064568320970692304673817341489687455367169",
        "55464657044963196816950587289035428064568320970692304673817341489687455367168",
        "55464657044963196816950587289035428064568320970692304673817341489687463725056"
      ]
    },
    {
      "x": 18,
      "y": 52,
      "size": 1,
      "price": "2106000000000000000000",
      "reserved": "",
      "assetIds": [
        "55464657044963196816950587289035428064568320970692304673817341489687455367183",
        "55464657044963196816950587289035428064568320970692304673817341489687455367171",
        "55464657044963196816950587289035428064568320970692304673817341489687455367169",
        "55464657044963196816950587289035428064568320970692304673817341489687455367168",
        "55464657044963196816950587289035428064568320970692304673817341489687463725056"
      ]
    },
    {
      "x": 17,
      "y": 52,
      "size": 1,
      "price": "2106000000000000000000",
      "reserved": "",
      "assetIds": [
        "55464657044963196816950587289035428064568320970692304673817341489687455367179",
        "55464657044963196816950587289035428064568320970692304673817341489687455367171",
        "55464657044963196816950587289035428064568320970692304673817341489687455367169",
        "55464657044963196816950587289035428064568320970692304673817341489687455367168",
        "55464657044963196816950587289035428064568320970692304673817341489687463725056"
      ]
    },
    {
      "x": 17,
      "y": 53,
      "size": 1,
      "price": "2106000000000000000000",
      "reserved": "",
      "assetIds": [
        "55464657044963196816950587289035428064568320970692304673817341489687455367172",
        "55464657044963196816950587289035428064568320970692304673817341489687455367170",
        "55464657044963196816950587289035428064568320970692304673817341489687455367169",
        "55464657044963196816950587289035428064568320970692304673817341489687455367168",
        "55464657044963196816950587289035428064568320970692304673817341489687463725056"
      ]
    },
    {
      "x": 16,
      "y": 53,
      "size": 1,
      "price": "2106000000000000000000",
      "reserved": "",
      "assetIds": [
        "55464657044963196816950587289035428064568320970692304673817341489687455367174",
        "55464657044963196816950587289035428064568320970692304673817341489687455367170",
        "55464657044963196816950587289035428064568320970692304673817341489687455367169",
        "55464657044963196816950587289035428064568320970692304673817341489687455367168",
        "55464657044963196816950587289035428064568320970692304673817341489687463725056"
      ]
    },
    {
      "x": 16,
      "y": 52,
      "size": 1,
      "price": "2106000000000000000000",
      "reserved": "",
      "assetIds": [
        "55464657044963196816950587289035428064568320970692304673817341489687455367178",
        "55464657044963196816950587289035428064568320970692304673817341489687455367171",
        "55464657044963196816950587289035428064568320970692304673817341489687455367169",
        "55464657044963196816950587289035428064568320970692304673817341489687455367168",
        "55464657044963196816950587289035428064568320970692304673817341489687463725056"
      ]
    },
    {
      "x": 16,
      "y": 51,
      "size": 1,
      "price": "2106000000000000000000",
      "reserved": "",
      "assetIds": [
        "55464657044963196816950587289035428064568320970692304673817341489687455367175",
        "55464657044963196816950587289035428064568320970692304673817341489687455367170",
        "55464657044963196816950587289035428064568320970692304673817341489687455367169",
        "55464657044963196816950587289035428064568320970692304673817341489687455367168",
        "55464657044963196816950587289035428064568320970692304673817341489687463725056"
      ]
    },
    {
      "x": 16,
      "y": 50,
      "size": 1,
      "price": "2106000000000000000000",
      "reserved": "",
      "assetIds": [
        "55464657044963196816950587289035428064568320970692304673817341489687455367174",
        "55464657044963196816950587289035428064568320970692304673817341489687455367170",
        "55464657044963196816950587289035428064568320970692304673817341489687455367169",
        "55464657044963196816950587289035428064568320970692304673817341489687455367168",
        "55464657044963196816950587289035428064568320970692304673817341489687463725056"
      ]
    },
    {
      "x": 16,
      "y": 49,
      "size": 1,
      "price": "2106000000000000000000",
      "reserved": "",
      "assetIds": [
        "55464657044963196816950587289035428064568320970692304673817341489687455367175",
        "55464657044963196816950587289035428064568320970692304673817341489687455367170",
        "55464657044963196816950587289035428064568320970692304673817341489687455367169",
        "55464657044963196816950587289035428064568320970692304673817341489687455367168",
        "55464657044963196816950587289035428064568320970692304673817341489687463725056"
      ]
    },
    {
      "x": 15,
      "y": 44,
      "size": 1,
      "price": "2106000000000000000000",
      "reserved": "",
      "assetIds": [
        "55464657044963196816950587289035428064568320970692304673817341489687455367175",
        "55464657044963196816950587289035428064568320970692304673817341489687455367170",
        "55464657044963196816950587289035428064568320970692304673817341489687455367169",
        "55464657044963196816950587289035428064568320970692304673817341489687455367168",
        "55464657044963196816950587289035428064568320970692304673817341489687463725056"
      ]
    },
    {
      "x": 17,
      "y": 44,
      "size": 1,
      "price": "2106000000000000000000",
      "reserved": "",
      "assetIds": [
        "55464657044963196816950587289035428064568320970692304673817341489687455367175",
        "55464657044963196816950587289035428064568320970692304673817341489687455367170",
        "55464657044963196816950587289035428064568320970692304673817341489687455367169",
        "55464657044963196816950587289035428064568320970692304673817341489687455367168",
        "55464657044963196816950587289035428064568320970692304673817341489687463725056"
      ]
    },
    {
      "x": 17,
      "y": 43,
      "size": 1,
      "price": "2106000000000000000000",
      "reserved": "",
      "assetIds": [
        "55464657044963196816950587289035428064568320970692304673817341489687455367176",
        "55464657044963196816950587289035428064568320970692304673817341489687455367170",
        "55464657044963196816950587289035428064568320970692304673817341489687455367169",
        "55464657044963196816950587289035428064568320970692304673817341489687455367168",
        "55464657044963196816950587289035428064568320970692304673817341489687463725056"
      ]
    },
    {
      "x": 18,
      "y": 43,
      "size": 1,
      "price": "2106000000000000000000",
      "reserved": "",
      "assetIds": [
        "55464657044963196816950587289035428064568320970692304673817341489687455367178",
        "55464657044963196816950587289035428064568320970692304673817341489687455367171",
        "55464657044963196816950587289035428064568320970692304673817341489687455367169",
        "55464657044963196816950587289035428064568320970692304673817341489687455367168",
        "55464657044963196816950587289035428064568320970692304673817341489687463725056"
      ]
    },
    {
      "x": 18,
      "y": 42,
      "size": 1,
      "price": "2106000000000000000000",
      "reserved": "",
      "assetIds": [
        "55464657044963196816950587289035428064568320970692304673817341489687455367180",
        "55464657044963196816950587289035428064568320970692304673817341489687455367171",
        "55464657044963196816950587289035428064568320970692304673817341489687455367169",
        "55464657044963196816950587289035428064568320970692304673817341489687455367168",
        "55464657044963196816950587289035428064568320970692304673817341489687463725056"
      ]
    },
    {
      "x": 19,
      "y": 42,
      "size": 1,
      "price": "2106000000000000000000",
      "reserved": "",
      "assetIds": [
        "55464657044963196816950587289035428064568320970692304673817341489687455367179",
        "55464657044963196816950587289035428064568320970692304673817341489687455367171",
        "55464657044963196816950587289035428064568320970692304673817341489687455367169",
        "55464657044963196816950587289035428064568320970692304673817341489687455367168",
        "55464657044963196816950587289035428064568320970692304673817341489687463725056"
      ]
    },
    {
      "x": 20,
      "y": 42,
      "size": 1,
      "price": "2106000000000000000000",
      "reserved": "",
      "assetIds": [
        "55464657044963196816950587289035428064568320970692304673817341489687455367181",
        "55464657044963196816950587289035428064568320970692304673817341489687455367171",
        "55464657044963196816950587289035428064568320970692304673817341489687455367169",
        "55464657044963196816950587289035428064568320970692304673817341489687455367168",
        "55464657044963196816950587289035428064568320970692304673817341489687463725056"
      ]
    },
    {
      "x": 20,
      "y": 41,
      "size": 1,
      "price": "2106000000000000000000",
      "reserved": "",
      "assetIds": [
        "55464657044963196816950587289035428064568320970692304673817341489687455367175",
        "55464657044963196816950587289035428064568320970692304673817341489687455367170",
        "55464657044963196816950587289035428064568320970692304673817341489687455367169",
        "55464657044963196816950587289035428064568320970692304673817341489687455367168",
        "55464657044963196816950587289035428064568320970692304673817341489687463725056"
      ]
    },
    {
      "x": 21,
      "y": 41,
      "size": 1,
      "price": "2106000000000000000000",
      "reserved": "",
      "assetIds": [
        "55464657044963196816950587289035428064568320970692304673817341489687455367177",
        "55464657044963196816950587289035428064568320970692304673817341489687455367170",
        "55464657044963196816950587289035428064568320970692304673817341489687455367169",
        "55464657044963196816950587289035428064568320970692304673817341489687455367168",
        "55464657044963196816950587289035428064568320970692304673817341489687463725056"
      ]
    },
    {
      "x": 21,
      "y": 39,
      "size": 1,
      "price": "2106000000000000000000",
      "reserved": "",
      "assetIds": [
        "55464657044963196816950587289035428064568320970692304673817341489687455367178",
        "55464657044963196816950587289035428064568320970692304673817341489687455367171",
        "55464657044963196816950587289035428064568320970692304673817341489687455367169",
        "55464657044963196816950587289035428064568320970692304673817341489687455367168",
        "55464657044963196816950587289035428064568320970692304673817341489687463725056"
      ]
    },
    {
      "x": 21,
      "y": 38,
      "size": 1,
      "price": "2106000000000000000000",
      "reserved": "",
      "assetIds": [
        "55464657044963196816950587289035428064568320970692304673817341489687455367180",
        "55464657044963196816950587289035428064568320970692304673817341489687455367171",
        "55464657044963196816950587289035428064568320970692304673817341489687455367169",
        "55464657044963196816950587289035428064568320970692304673817341489687455367168",
        "55464657044963196816950587289035428064568320970692304673817341489687463725056"
      ]
    },
    {
      "x": 21,
      "y": 37,
      "size": 1,
      "price": "2106000000000000000000",
      "reserved": "",
      "assetIds": [
        "55464657044963196816950587289035428064568320970692304673817341489687455367178",
        "55464657044963196816950587289035428064568320970692304673817341489687455367171",
        "55464657044963196816950587289035428064568320970692304673817341489687455367169",
        "55464657044963196816950587289035428064568320970692304673817341489687455367168",
        "55464657044963196816950587289035428064568320970692304673817341489687463725056"
      ]
    },
    {
      "x": 21,
      "y": 36,
      "size": 1,
      "price": "2106000000000000000000",
      "reserved": "",
      "assetIds": [
        "55464657044963196816950587289035428064568320970692304673817341489687455367180",
        "55464657044963196816950587289035428064568320970692304673817341489687455367171",
        "55464657044963196816950587289035428064568320970692304673817341489687455367169",
        "55464657044963196816950587289035428064568320970692304673817341489687455367168",
        "55464657044963196816950587289035428064568320970692304673817341489687463725056"
      ]
    },
    {
      "x": 21,
      "y": 35,
      "size": 1,
      "price": "2106000000000000000000",
      "reserved": "",
      "assetIds": [
        "55464657044963196816950587289035428064568320970692304673817341489687455367180",
        "55464657044963196816950587289035428064568320970692304673817341489687455367171",
        "55464657044963196816950587289035428064568320970692304673817341489687455367169",
        "55464657044963196816950587289035428064568320970692304673817341489687455367168",
        "55464657044963196816950587289035428064568320970692304673817341489687463725056"
      ]
    },
    {
      "x": 21,
      "y": 30,
      "size": 1,
      "price": "2106000000000000000000",
      "reserved": "",
      "assetIds": [
        "55464657044963196816950587289035428064568320970692304673817341489687455367182",
        "55464657044963196816950587289035428064568320970692304673817341489687455367171",
        "55464657044963196816950587289035428064568320970692304673817341489687455367169",
        "55464657044963196816950587289035428064568320970692304673817341489687455367168",
        "55464657044963196816950587289035428064568320970692304673817341489687463725056"
      ]
    },
    {
      "x": 21,
      "y": 29,
      "size": 1,
      "price": "2106000000000000000000",
      "reserved": "",
      "assetIds": [
        "55464657044963196816950587289035428064568320970692304673817341489687455367182",
        "55464657044963196816950587289035428064568320970692304673817341489687455367171",
        "55464657044963196816950587289035428064568320970692304673817341489687455367169",
        "55464657044963196816950587289035428064568320970692304673817341489687455367168",
        "55464657044963196816950587289035428064568320970692304673817341489687463725056"
      ]
    },
    {
      "x": 21,
      "y": 28,
      "size": 1,
      "price": "2106000000000000000000",
      "reserved": "",
      "assetIds": [
        "55464657044963196816950587289035428064568320970692304673817341489687455367179",
        "55464657044963196816950587289035428064568320970692304673817341489687455367171",
        "55464657044963196816950587289035428064568320970692304673817341489687455367169",
        "55464657044963196816950587289035428064568320970692304673817341489687455367168",
        "55464657044963196816950587289035428064568320970692304673817341489687463725056"
      ]
    },
    {
      "x": 21,
      "y": 27,
      "size": 1,
      "price": "2106000000000000000000",
      "reserved": "",
      "assetIds": [
        "55464657044963196816950587289035428064568320970692304673817341489687455367177",
        "55464657044963196816950587289035428064568320970692304673817341489687455367170",
        "55464657044963196816950587289035428064568320970692304673817341489687455367169",
        "55464657044963196816950587289035428064568320970692304673817341489687455367168",
        "55464657044963196816950587289035428064568320970692304673817341489687463725056"
      ]
    },
    {
      "x": 21,
      "y": 26,
      "size": 1,
      "price": "2106000000000000000000",
      "reserved": "",
      "assetIds": [
        "55464657044963196816950587289035428064568320970692304673817341489687455367178",
        "55464657044963196816950587289035428064568320970692304673817341489687455367171",
        "55464657044963196816950587289035428064568320970692304673817341489687455367169",
        "55464657044963196816950587289035428064568320970692304673817341489687455367168",
        "55464657044963196816950587289035428064568320970692304673817341489687463725056"
      ]
    },
    {
      "x": 21,
      "y": 25,
      "size": 1,
      "price": "2106000000000000000000",
      "reserved": "",
      "assetIds": [
        "55464657044963196816950587289035428064568320970692304673817341489687455367174",
        "55464657044963196816950587289035428064568320970692304673817341489687455367170",
        "55464657044963196816950587289035428064568320970692304673817341489687455367169",
        "55464657044963196816950587289035428064568320970692304673817341489687455367168",
        "55464657044963196816950587289035428064568320970692304673817341489687463725056"
      ]
    },
    {
      "x": 21,
      "y": 24,
      "size": 1,
      "price": "2106000000000000000000",
      "reserved": "",
      "assetIds": [
        "55464657044963196816950587289035428064568320970692304673817341489687455367172",
        "55464657044963196816950587289035428064568320970692304673817341489687455367170",
        "55464657044963196816950587289035428064568320970692304673817341489687455367169",
        "55464657044963196816950587289035428064568320970692304673817341489687455367168",
        "55464657044963196816950587289035428064568320970692304673817341489687463725056"
      ]
    },
    {
      "x": 20,
      "y": 24,
      "size": 1,
      "price": "2106000000000000000000",
      "reserved": "",
      "assetIds": [
        "55464657044963196816950587289035428064568320970692304673817341489687455367176",
        "55464657044963196816950587289035428064568320970692304673817341489687455367170",
        "55464657044963196816950587289035428064568320970692304673817341489687455367169",
        "55464657044963196816950587289035428064568320970692304673817341489687455367168",
        "55464657044963196816950587289035428064568320970692304673817341489687463725056"
      ]
    },
    {
      "x": 19,
      "y": 24,
      "size": 1,
      "price": "2106000000000000000000",
      "reserved": "",
      "assetIds": [
        "55464657044963196816950587289035428064568320970692304673817341489687455367178",
        "55464657044963196816950587289035428064568320970692304673817341489687455367171",
        "55464657044963196816950587289035428064568320970692304673817341489687455367169",
        "55464657044963196816950587289035428064568320970692304673817341489687455367168",
        "55464657044963196816950587289035428064568320970692304673817341489687463725056"
      ]
    },
    {
      "x": 18,
      "y": 24,
      "size": 1,
      "price": "2106000000000000000000",
      "reserved": "",
      "assetIds": [
        "55464657044963196816950587289035428064568320970692304673817341489687455367174",
        "55464657044963196816950587289035428064568320970692304673817341489687455367170",
        "55464657044963196816950587289035428064568320970692304673817341489687455367169",
        "55464657044963196816950587289035428064568320970692304673817341489687455367168",
        "55464657044963196816950587289035428064568320970692304673817341489687463725056"
      ]
    },
    {
      "x": 17,
      "y": 25,
      "size": 1,
      "price": "2106000000000000000000",
      "reserved": "",
      "assetIds": [
        "55464657044963196816950587289035428064568320970692304673817341489687455367175",
        "55464657044963196816950587289035428064568320970692304673817341489687455367170",
        "55464657044963196816950587289035428064568320970692304673817341489687455367169",
        "55464657044963196816950587289035428064568320970692304673817341489687455367168",
        "55464657044963196816950587289035428064568320970692304673817341489687463725056"
      ]
    },
    {
      "x": 16,
      "y": 25,
      "size": 1,
      "price": "2106000000000000000000",
      "reserved": "",
      "assetIds": [
        "55464657044963196816950587289035428064568320970692304673817341489687455367174",
        "55464657044963196816950587289035428064568320970692304673817341489687455367170",
        "55464657044963196816950587289035428064568320970692304673817341489687455367169",
        "55464657044963196816950587289035428064568320970692304673817341489687455367168",
        "55464657044963196816950587289035428064568320970692304673817341489687463725056"
      ]
    },
    {
      "x": 17,
      "y": 24,
      "size": 1,
      "price": "2106000000000000000000",
      "reserved": "",
      "assetIds": [
        "55464657044963196816950587289035428064568320970692304673817341489687455367175",
        "55464657044963196816950587289035428064568320970692304673817341489687455367170",
        "55464657044963196816950587289035428064568320970692304673817341489687455367169",
        "55464657044963196816950587289035428064568320970692304673817341489687455367168",
        "55464657044963196816950587289035428064568320970692304673817341489687463725056"
      ]
    },
    {
      "x": 16,
      "y": 24,
      "size": 1,
      "price": "2106000000000000000000",
      "reserved": "",
      "assetIds": [
        "55464657044963196816950587289035428064568320970692304673817341489687455367177",
        "55464657044963196816950587289035428064568320970692304673817341489687455367170",
        "55464657044963196816950587289035428064568320970692304673817341489687455367169",
        "55464657044963196816950587289035428064568320970692304673817341489687455367168",
        "55464657044963196816950587289035428064568320970692304673817341489687463725056"
      ]
    },
    {
      "x": 17,
      "y": 26,
      "size": 1,
      "price": "2106000000000000000000",
      "reserved": "",
      "assetIds": [
        "55464657044963196816950587289035428064568320970692304673817341489687455367179",
        "55464657044963196816950587289035428064568320970692304673817341489687455367171",
        "55464657044963196816950587289035428064568320970692304673817341489687455367169",
        "55464657044963196816950587289035428064568320970692304673817341489687455367168",
        "55464657044963196816950587289035428064568320970692304673817341489687463725056"
      ]
    },
    {
      "x": 18,
      "y": 26,
      "size": 1,
      "price": "2106000000000000000000",
      "reserved": "",
      "assetIds": [
        "55464657044963196816950587289035428064568320970692304673817341489687455367173",
        "55464657044963196816950587289035428064568320970692304673817341489687455367170",
        "55464657044963196816950587289035428064568320970692304673817341489687455367169",
        "55464657044963196816950587289035428064568320970692304673817341489687455367168",
        "55464657044963196816950587289035428064568320970692304673817341489687463725056"
      ]
    },
    {
      "x": 19,
      "y": 26,
      "size": 1,
      "price": "2106000000000000000000",
      "reserved": "",
      "assetIds": [
        "55464657044963196816950587289035428064568320970692304673817341489687455367183",
        "55464657044963196816950587289035428064568320970692304673817341489687455367171",
        "55464657044963196816950587289035428064568320970692304673817341489687455367169",
        "55464657044963196816950587289035428064568320970692304673817341489687455367168",
        "55464657044963196816950587289035428064568320970692304673817341489687463725056"
      ]
    },
    {
      "x": 20,
      "y": 26,
      "size": 1,
      "price": "2106000000000000000000",
      "reserved": "",
      "assetIds": [
        "55464657044963196816950587289035428064568320970692304673817341489687455367173",
        "55464657044963196816950587289035428064568320970692304673817341489687455367170",
        "55464657044963196816950587289035428064568320970692304673817341489687455367169",
        "55464657044963196816950587289035428064568320970692304673817341489687455367168",
        "55464657044963196816950587289035428064568320970692304673817341489687463725056"
      ]
    },
    {
      "x": 20,
      "y": 25,
      "size": 1,
      "price": "2106000000000000000000",
      "reserved": "",
      "assetIds": [
        "55464657044963196816950587289035428064568320970692304673817341489687455367173",
        "55464657044963196816950587289035428064568320970692304673817341489687455367170",
        "55464657044963196816950587289035428064568320970692304673817341489687455367169",
        "55464657044963196816950587289035428064568320970692304673817341489687455367168",
        "55464657044963196816950587289035428064568320970692304673817341489687463725056"
      ]
    },
    {
      "x": 19,
      "y": 25,
      "size": 1,
      "price": "2106000000000000000000",
      "reserved": "",
      "assetIds": [
        "55464657044963196816950587289035428064568320970692304673817341489687455367180",
        "55464657044963196816950587289035428064568320970692304673817341489687455367171",
        "55464657044963196816950587289035428064568320970692304673817341489687455367169",
        "55464657044963196816950587289035428064568320970692304673817341489687455367168",
        "55464657044963196816950587289035428064568320970692304673817341489687463725056"
      ]
    },
    {
      "x": 17,
      "y": 27,
      "size": 1,
      "price": "2106000000000000000000",
      "reserved": "",
      "assetIds": [
        "55464657044963196816950587289035428064568320970692304673817341489687455367183",
        "55464657044963196816950587289035428064568320970692304673817341489687455367171",
        "55464657044963196816950587289035428064568320970692304673817341489687455367169",
        "55464657044963196816950587289035428064568320970692304673817341489687455367168",
        "55464657044963196816950587289035428064568320970692304673817341489687463725056"
      ]
    },
    {
      "x": 16,
      "y": 26,
      "size": 1,
      "price": "2106000000000000000000",
      "reserved": "",
      "assetIds": [
        "55464657044963196816950587289035428064568320970692304673817341489687455367176",
        "55464657044963196816950587289035428064568320970692304673817341489687455367170",
        "55464657044963196816950587289035428064568320970692304673817341489687455367169",
        "55464657044963196816950587289035428064568320970692304673817341489687455367168",
        "55464657044963196816950587289035428064568320970692304673817341489687463725056"
      ]
    },
    {
      "x": 17,
      "y": 28,
      "size": 1,
      "price": "2106000000000000000000",
      "reserved": "",
      "assetIds": [
        "55464657044963196816950587289035428064568320970692304673817341489687455367179",
        "55464657044963196816950587289035428064568320970692304673817341489687455367171",
        "55464657044963196816950587289035428064568320970692304673817341489687455367169",
        "55464657044963196816950587289035428064568320970692304673817341489687455367168",
        "55464657044963196816950587289035428064568320970692304673817341489687463725056"
      ]
    },
    {
      "x": 16,
      "y": 28,
      "size": 1,
      "price": "2106000000000000000000",
      "reserved": "",
      "assetIds": [
        "55464657044963196816950587289035428064568320970692304673817341489687455367175",
        "55464657044963196816950587289035428064568320970692304673817341489687455367170",
        "55464657044963196816950587289035428064568320970692304673817341489687455367169",
        "55464657044963196816950587289035428064568320970692304673817341489687455367168",
        "55464657044963196816950587289035428064568320970692304673817341489687463725056"
      ]
    },
    {
      "x": 16,
      "y": 29,
      "size": 1,
      "price": "2106000000000000000000",
      "reserved": "",
      "assetIds": [
        "55464657044963196816950587289035428064568320970692304673817341489687455367178",
        "55464657044963196816950587289035428064568320970692304673817341489687455367171",
        "55464657044963196816950587289035428064568320970692304673817341489687455367169",
        "55464657044963196816950587289035428064568320970692304673817341489687455367168",
        "55464657044963196816950587289035428064568320970692304673817341489687463725056"
      ]
    },
    {
      "x": 17,
      "y": 29,
      "size": 1,
      "price": "2106000000000000000000",
      "reserved": "",
      "assetIds": [
        "55464657044963196816950587289035428064568320970692304673817341489687455367174",
        "55464657044963196816950587289035428064568320970692304673817341489687455367170",
        "55464657044963196816950587289035428064568320970692304673817341489687455367169",
        "55464657044963196816950587289035428064568320970692304673817341489687455367168",
        "55464657044963196816950587289035428064568320970692304673817341489687463725056"
      ]
    },
    {
      "x": 18,
      "y": 28,
      "size": 1,
      "price": "2106000000000000000000",
      "reserved": "",
      "assetIds": [
        "55464657044963196816950587289035428064568320970692304673817341489687455367173",
        "55464657044963196816950587289035428064568320970692304673817341489687455367170",
        "55464657044963196816950587289035428064568320970692304673817341489687455367169",
        "55464657044963196816950587289035428064568320970692304673817341489687455367168",
        "55464657044963196816950587289035428064568320970692304673817341489687463725056"
      ]
    },
    {
      "x": 19,
      "y": 28,
      "size": 1,
      "price": "2106000000000000000000",
      "reserved": "",
      "assetIds": [
        "55464657044963196816950587289035428064568320970692304673817341489687455367181",
        "55464657044963196816950587289035428064568320970692304673817341489687455367171",
        "55464657044963196816950587289035428064568320970692304673817341489687455367169",
        "55464657044963196816950587289035428064568320970692304673817341489687455367168",
        "55464657044963196816950587289035428064568320970692304673817341489687463725056"
      ]
    },
    {
      "x": 20,
      "y": 28,
      "size": 1,
      "price": "2106000000000000000000",
      "reserved": "",
      "assetIds": [
        "55464657044963196816950587289035428064568320970692304673817341489687455367177",
        "55464657044963196816950587289035428064568320970692304673817341489687455367170",
        "55464657044963196816950587289035428064568320970692304673817341489687455367169",
        "55464657044963196816950587289035428064568320970692304673817341489687455367168",
        "55464657044963196816950587289035428064568320970692304673817341489687463725056"
      ]
    },
    {
      "x": 20,
      "y": 27,
      "size": 1,
      "price": "2106000000000000000000",
      "reserved": "",
      "assetIds": [
        "55464657044963196816950587289035428064568320970692304673817341489687455367177",
        "55464657044963196816950587289035428064568320970692304673817341489687455367170",
        "55464657044963196816950587289035428064568320970692304673817341489687455367169",
        "55464657044963196816950587289035428064568320970692304673817341489687455367168",
        "55464657044963196816950587289035428064568320970692304673817341489687463725056"
      ]
    },
    {
      "x": 19,
      "y": 27,
      "size": 1,
      "price": "2106000000000000000000",
      "reserved": "",
      "assetIds": [
        "55464657044963196816950587289035428064568320970692304673817341489687455367183",
        "55464657044963196816950587289035428064568320970692304673817341489687455367171",
        "55464657044963196816950587289035428064568320970692304673817341489687455367169",
        "55464657044963196816950587289035428064568320970692304673817341489687455367168",
        "55464657044963196816950587289035428064568320970692304673817341489687463725056"
      ]
    },
    {
      "x": 18,
      "y": 27,
      "size": 1,
      "price": "2106000000000000000000",
      "reserved": "",
      "assetIds": [
        "55464657044963196816950587289035428064568320970692304673817341489687455367179",
        "55464657044963196816950587289035428064568320970692304673817341489687455367171",
        "55464657044963196816950587289035428064568320970692304673817341489687455367169",
        "55464657044963196816950587289035428064568320970692304673817341489687455367168",
        "55464657044963196816950587289035428064568320970692304673817341489687463725056"
      ]
    },
    {
      "x": 19,
      "y": 29,
      "size": 1,
      "price": "2106000000000000000000",
      "reserved": "",
      "assetIds": [
        "55464657044963196816950587289035428064568320970692304673817341489687455367172",
        "55464657044963196816950587289035428064568320970692304673817341489687455367170",
        "55464657044963196816950587289035428064568320970692304673817341489687455367169",
        "55464657044963196816950587289035428064568320970692304673817341489687455367168",
        "55464657044963196816950587289035428064568320970692304673817341489687463725056"
      ]
    },
    {
      "x": 19,
      "y": 30,
      "size": 1,
      "price": "2106000000000000000000",
      "reserved": "",
      "assetIds": [
        "55464657044963196816950587289035428064568320970692304673817341489687455367181",
        "55464657044963196816950587289035428064568320970692304673817341489687455367171",
        "55464657044963196816950587289035428064568320970692304673817341489687455367169",
        "55464657044963196816950587289035428064568320970692304673817341489687455367168",
        "55464657044963196816950587289035428064568320970692304673817341489687463725056"
      ]
    },
    {
      "x": 20,
      "y": 30,
      "size": 1,
      "price": "2106000000000000000000",
      "reserved": "",
      "assetIds": [
        "55464657044963196816950587289035428064568320970692304673817341489687455367180",
        "55464657044963196816950587289035428064568320970692304673817341489687455367171",
        "55464657044963196816950587289035428064568320970692304673817341489687455367169",
        "55464657044963196816950587289035428064568320970692304673817341489687455367168",
        "55464657044963196816950587289035428064568320970692304673817341489687463725056"
      ]
    },
    {
      "x": 18,
      "y": 29,
      "size": 1,
      "price": "2106000000000000000000",
      "reserved": "",
      "assetIds": [
        "55464657044963196816950587289035428064568320970692304673817341489687455367173",
        "55464657044963196816950587289035428064568320970692304673817341489687455367170",
        "55464657044963196816950587289035428064568320970692304673817341489687455367169",
        "55464657044963196816950587289035428064568320970692304673817341489687455367168",
        "55464657044963196816950587289035428064568320970692304673817341489687463725056"
      ]
    },
    {
      "x": 20,
      "y": 29,
      "size": 1,
      "price": "2106000000000000000000",
      "reserved": "",
      "assetIds": [
        "55464657044963196816950587289035428064568320970692304673817341489687455367180",
        "55464657044963196816950587289035428064568320970692304673817341489687455367171",
        "55464657044963196816950587289035428064568320970692304673817341489687455367169",
        "55464657044963196816950587289035428064568320970692304673817341489687455367168",
        "55464657044963196816950587289035428064568320970692304673817341489687463725056"
      ]
    },
    {
      "x": 18,
      "y": 30,
      "size": 1,
      "price": "2106000000000000000000",
      "reserved": "",
      "assetIds": [
        "55464657044963196816950587289035428064568320970692304673817341489687455367176",
        "55464657044963196816950587289035428064568320970692304673817341489687455367170",
        "55464657044963196816950587289035428064568320970692304673817341489687455367169",
        "55464657044963196816950587289035428064568320970692304673817341489687455367168",
        "55464657044963196816950587289035428064568320970692304673817341489687463725056"
      ]
    },
    {
      "x": 18,
      "y": 31,
      "size": 1,
      "price": "2106000000000000000000",
      "reserved": "",
      "assetIds": [
        "55464657044963196816950587289035428064568320970692304673817341489687455367178",
        "55464657044963196816950587289035428064568320970692304673817341489687455367171",
        "55464657044963196816950587289035428064568320970692304673817341489687455367169",
        "55464657044963196816950587289035428064568320970692304673817341489687455367168",
        "55464657044963196816950587289035428064568320970692304673817341489687463725056"
      ]
    },
    {
      "x": 17,
      "y": 31,
      "size": 1,
      "price": "2106000000000000000000",
      "reserved": "",
      "assetIds": [
        "55464657044963196816950587289035428064568320970692304673817341489687455367182",
        "55464657044963196816950587289035428064568320970692304673817341489687455367171",
        "55464657044963196816950587289035428064568320970692304673817341489687455367169",
        "55464657044963196816950587289035428064568320970692304673817341489687455367168",
        "55464657044963196816950587289035428064568320970692304673817341489687463725056"
      ]
    },
    {
      "x": 17,
      "y": 30,
      "size": 1,
      "price": "2106000000000000000000",
      "reserved": "",
      "assetIds": [
        "55464657044963196816950587289035428064568320970692304673817341489687455367173",
        "55464657044963196816950587289035428064568320970692304673817341489687455367170",
        "55464657044963196816950587289035428064568320970692304673817341489687455367169",
        "55464657044963196816950587289035428064568320970692304673817341489687455367168",
        "55464657044963196816950587289035428064568320970692304673817341489687463725056"
      ]
    },
    {
      "x": 16,
      "y": 30,
      "size": 1,
      "price": "2106000000000000000000",
      "reserved": "",
      "assetIds": [
        "55464657044963196816950587289035428064568320970692304673817341489687455367177",
        "55464657044963196816950587289035428064568320970692304673817341489687455367170",
        "55464657044963196816950587289035428064568320970692304673817341489687455367169",
        "55464657044963196816950587289035428064568320970692304673817341489687455367168",
        "55464657044963196816950587289035428064568320970692304673817341489687463725056"
      ]
    },
    {
      "x": 17,
      "y": 32,
      "size": 1,
      "price": "2106000000000000000000",
      "reserved": "",
      "assetIds": [
        "55464657044963196816950587289035428064568320970692304673817341489687455367182",
        "55464657044963196816950587289035428064568320970692304673817341489687455367171",
        "55464657044963196816950587289035428064568320970692304673817341489687455367169",
        "55464657044963196816950587289035428064568320970692304673817341489687455367168",
        "55464657044963196816950587289035428064568320970692304673817341489687463725056"
      ]
    },
    {
      "x": 17,
      "y": 33,
      "size": 1,
      "price": "2106000000000000000000",
      "reserved": "",
      "assetIds": [
        "55464657044963196816950587289035428064568320970692304673817341489687455367172",
        "55464657044963196816950587289035428064568320970692304673817341489687455367170",
        "55464657044963196816950587289035428064568320970692304673817341489687455367169",
        "55464657044963196816950587289035428064568320970692304673817341489687455367168",
        "55464657044963196816950587289035428064568320970692304673817341489687463725056"
      ]
    },
    {
      "x": 18,
      "y": 33,
      "size": 1,
      "price": "2106000000000000000000",
      "reserved": "",
      "assetIds": [
        "55464657044963196816950587289035428064568320970692304673817341489687455367179",
        "55464657044963196816950587289035428064568320970692304673817341489687455367171",
        "55464657044963196816950587289035428064568320970692304673817341489687455367169",
        "55464657044963196816950587289035428064568320970692304673817341489687455367168",
        "55464657044963196816950587289035428064568320970692304673817341489687463725056"
      ]
    },
    {
      "x": 18,
      "y": 32,
      "size": 1,
      "price": "2106000000000000000000",
      "reserved": "",
      "assetIds": [
        "55464657044963196816950587289035428064568320970692304673817341489687455367180",
        "55464657044963196816950587289035428064568320970692304673817341489687455367171",
        "55464657044963196816950587289035428064568320970692304673817341489687455367169",
        "55464657044963196816950587289035428064568320970692304673817341489687455367168",
        "55464657044963196816950587289035428064568320970692304673817341489687463725056"
      ]
    },
    {
      "x": 19,
      "y": 32,
      "size": 1,
      "price": "2106000000000000000000",
      "reserved": "",
      "assetIds": [
        "55464657044963196816950587289035428064568320970692304673817341489687455367179",
        "55464657044963196816950587289035428064568320970692304673817341489687455367171",
        "55464657044963196816950587289035428064568320970692304673817341489687455367169",
        "55464657044963196816950587289035428064568320970692304673817341489687455367168",
        "55464657044963196816950587289035428064568320970692304673817341489687463725056"
      ]
    },
    {
      "x": 20,
      "y": 32,
      "size": 1,
      "price": "2106000000000000000000",
      "reserved": "",
      "assetIds": [
        "55464657044963196816950587289035428064568320970692304673817341489687455367182",
        "55464657044963196816950587289035428064568320970692304673817341489687455367171",
        "55464657044963196816950587289035428064568320970692304673817341489687455367169",
        "55464657044963196816950587289035428064568320970692304673817341489687455367168",
        "55464657044963196816950587289035428064568320970692304673817341489687463725056"
      ]
    },
    {
      "x": 20,
      "y": 31,
      "size": 1,
      "price": "2106000000000000000000",
      "reserved": "",
      "assetIds": [
        "55464657044963196816950587289035428064568320970692304673817341489687455367173",
        "55464657044963196816950587289035428064568320970692304673817341489687455367170",
        "55464657044963196816950587289035428064568320970692304673817341489687455367169",
        "55464657044963196816950587289035428064568320970692304673817341489687455367168",
        "55464657044963196816950587289035428064568320970692304673817341489687463725056"
      ]
    },
    {
      "x": 19,
      "y": 31,
      "size": 1,
      "price": "2106000000000000000000",
      "reserved": "",
      "assetIds": [
        "55464657044963196816950587289035428064568320970692304673817341489687455367179",
        "55464657044963196816950587289035428064568320970692304673817341489687455367171",
        "55464657044963196816950587289035428064568320970692304673817341489687455367169",
        "55464657044963196816950587289035428064568320970692304673817341489687455367168",
        "55464657044963196816950587289035428064568320970692304673817341489687463725056"
      ]
    },
    {
      "x": 21,
      "y": 31,
      "size": 1,
      "price": "2106000000000000000000",
      "reserved": "",
      "assetIds": [
        "55464657044963196816950587289035428064568320970692304673817341489687455367175",
        "55464657044963196816950587289035428064568320970692304673817341489687455367170",
        "55464657044963196816950587289035428064568320970692304673817341489687455367169",
        "55464657044963196816950587289035428064568320970692304673817341489687455367168",
        "55464657044963196816950587289035428064568320970692304673817341489687463725056"
      ]
    },
    {
      "x": 21,
      "y": 32,
      "size": 1,
      "price": "2106000000000000000000",
      "reserved": "",
      "assetIds": [
        "55464657044963196816950587289035428064568320970692304673817341489687455367176",
        "55464657044963196816950587289035428064568320970692304673817341489687455367170",
        "55464657044963196816950587289035428064568320970692304673817341489687455367169",
        "55464657044963196816950587289035428064568320970692304673817341489687455367168",
        "55464657044963196816950587289035428064568320970692304673817341489687463725056"
      ]
    },
    {
      "x": 21,
      "y": 33,
      "size": 1,
      "price": "2106000000000000000000",
      "reserved": "",
      "assetIds": [
        "55464657044963196816950587289035428064568320970692304673817341489687455367178",
        "55464657044963196816950587289035428064568320970692304673817341489687455367171",
        "55464657044963196816950587289035428064568320970692304673817341489687455367169",
        "55464657044963196816950587289035428064568320970692304673817341489687455367168",
        "55464657044963196816950587289035428064568320970692304673817341489687463725056"
      ]
    },
    {
      "x": 21,
      "y": 34,
      "size": 1,
      "price": "2106000000000000000000",
      "reserved": "",
      "assetIds": [
        "55464657044963196816950587289035428064568320970692304673817341489687455367174",
        "55464657044963196816950587289035428064568320970692304673817341489687455367170",
        "55464657044963196816950587289035428064568320970692304673817341489687455367169",
        "55464657044963196816950587289035428064568320970692304673817341489687455367168",
        "55464657044963196816950587289035428064568320970692304673817341489687463725056"
      ]
    },
    {
      "x": 20,
      "y": 35,
      "size": 1,
      "price": "2106000000000000000000",
      "reserved": "",
      "assetIds": [
        "55464657044963196816950587289035428064568320970692304673817341489687455367172",
        "55464657044963196816950587289035428064568320970692304673817341489687455367170",
        "55464657044963196816950587289035428064568320970692304673817341489687455367169",
        "55464657044963196816950587289035428064568320970692304673817341489687455367168",
        "55464657044963196816950587289035428064568320970692304673817341489687463725056"
      ]
    },
    {
      "x": 19,
      "y": 35,
      "size": 1,
      "price": "2106000000000000000000",
      "reserved": "",
      "assetIds": [
        "55464657044963196816950587289035428064568320970692304673817341489687455367183",
        "55464657044963196816950587289035428064568320970692304673817341489687455367171",
        "55464657044963196816950587289035428064568320970692304673817341489687455367169",
        "55464657044963196816950587289035428064568320970692304673817341489687455367168",
        "55464657044963196816950587289035428064568320970692304673817341489687463725056"
      ]
    },
    {
      "x": 19,
      "y": 34,
      "size": 1,
      "price": "2106000000000000000000",
      "reserved": "",
      "assetIds": [
        "55464657044963196816950587289035428064568320970692304673817341489687455367181",
        "55464657044963196816950587289035428064568320970692304673817341489687455367171",
        "55464657044963196816950587289035428064568320970692304673817341489687455367169",
        "55464657044963196816950587289035428064568320970692304673817341489687455367168",
        "55464657044963196816950587289035428064568320970692304673817341489687463725056"
      ]
    },
    {
      "x": 18,
      "y": 34,
      "size": 1,
      "price": "2106000000000000000000",
      "reserved": "",
      "assetIds": [
        "55464657044963196816950587289035428064568320970692304673817341489687455367174",
        "55464657044963196816950587289035428064568320970692304673817341489687455367170",
        "55464657044963196816950587289035428064568320970692304673817341489687455367169",
        "55464657044963196816950587289035428064568320970692304673817341489687455367168",
        "55464657044963196816950587289035428064568320970692304673817341489687463725056"
      ]
    },
    {
      "x": 19,
      "y": 33,
      "size": 1,
      "price": "2106000000000000000000",
      "reserved": "",
      "assetIds": [
        "55464657044963196816950587289035428064568320970692304673817341489687455367178",
        "55464657044963196816950587289035428064568320970692304673817341489687455367171",
        "55464657044963196816950587289035428064568320970692304673817341489687455367169",
        "55464657044963196816950587289035428064568320970692304673817341489687455367168",
        "55464657044963196816950587289035428064568320970692304673817341489687463725056"
      ]
    },
    {
      "x": 20,
      "y": 33,
      "size": 1,
      "price": "2106000000000000000000",
      "reserved": "",
      "assetIds": [
        "55464657044963196816950587289035428064568320970692304673817341489687455367181",
        "55464657044963196816950587289035428064568320970692304673817341489687455367171",
        "55464657044963196816950587289035428064568320970692304673817341489687455367169",
        "55464657044963196816950587289035428064568320970692304673817341489687455367168",
        "55464657044963196816950587289035428064568320970692304673817341489687463725056"
      ]
    },
    {
      "x": 20,
      "y": 34,
      "size": 1,
      "price": "2106000000000000000000",
      "reserved": "",
      "assetIds": [
        "55464657044963196816950587289035428064568320970692304673817341489687455367181",
        "55464657044963196816950587289035428064568320970692304673817341489687455367171",
        "55464657044963196816950587289035428064568320970692304673817341489687455367169",
        "55464657044963196816950587289035428064568320970692304673817341489687455367168",
        "55464657044963196816950587289035428064568320970692304673817341489687463725056"
      ]
    },
    {
      "x": 17,
      "y": 34,
      "size": 1,
      "price": "2106000000000000000000",
      "reserved": "",
      "assetIds": [
        "55464657044963196816950587289035428064568320970692304673817341489687455367181",
        "55464657044963196816950587289035428064568320970692304673817341489687455367171",
        "55464657044963196816950587289035428064568320970692304673817341489687455367169",
        "55464657044963196816950587289035428064568320970692304673817341489687455367168",
        "55464657044963196816950587289035428064568320970692304673817341489687463725056"
      ]
    },
    {
      "x": 16,
      "y": 34,
      "size": 1,
      "price": "2106000000000000000000",
      "reserved": "",
      "assetIds": [
        "55464657044963196816950587289035428064568320970692304673817341489687455367183",
        "55464657044963196816950587289035428064568320970692304673817341489687455367171",
        "55464657044963196816950587289035428064568320970692304673817341489687455367169",
        "55464657044963196816950587289035428064568320970692304673817341489687455367168",
        "55464657044963196816950587289035428064568320970692304673817341489687463725056"
      ]
    },
    {
      "x": 16,
      "y": 33,
      "size": 1,
      "price": "2106000000000000000000",
      "reserved": "",
      "assetIds": [
        "55464657044963196816950587289035428064568320970692304673817341489687455367176",
        "55464657044963196816950587289035428064568320970692304673817341489687455367170",
        "55464657044963196816950587289035428064568320970692304673817341489687455367169",
        "55464657044963196816950587289035428064568320970692304673817341489687455367168",
        "55464657044963196816950587289035428064568320970692304673817341489687463725056"
      ]
    },
    {
      "x": 16,
      "y": 32,
      "size": 1,
      "price": "2106000000000000000000",
      "reserved": "",
      "assetIds": [
        "55464657044963196816950587289035428064568320970692304673817341489687455367179",
        "55464657044963196816950587289035428064568320970692304673817341489687455367171",
        "55464657044963196816950587289035428064568320970692304673817341489687455367169",
        "55464657044963196816950587289035428064568320970692304673817341489687455367168",
        "55464657044963196816950587289035428064568320970692304673817341489687463725056"
      ]
    },
    {
      "x": 18,
      "y": 35,
      "size": 1,
      "price": "2106000000000000000000",
      "reserved": "",
      "assetIds": [
        "55464657044963196816950587289035428064568320970692304673817341489687455367183",
        "55464657044963196816950587289035428064568320970692304673817341489687455367171",
        "55464657044963196816950587289035428064568320970692304673817341489687455367169",
        "55464657044963196816950587289035428064568320970692304673817341489687455367168",
        "55464657044963196816950587289035428064568320970692304673817341489687463725056"
      ]
    },
    {
      "x": 18,
      "y": 36,
      "size": 1,
      "price": "2106000000000000000000",
      "reserved": "",
      "assetIds": [
        "55464657044963196816950587289035428064568320970692304673817341489687455367176",
        "55464657044963196816950587289035428064568320970692304673817341489687455367170",
        "55464657044963196816950587289035428064568320970692304673817341489687455367169",
        "55464657044963196816950587289035428064568320970692304673817341489687455367168",
        "55464657044963196816950587289035428064568320970692304673817341489687463725056"
      ]
    },
    {
      "x": 18,
      "y": 37,
      "size": 1,
      "price": "2106000000000000000000",
      "reserved": "",
      "assetIds": [
        "55464657044963196816950587289035428064568320970692304673817341489687455367179",
        "55464657044963196816950587289035428064568320970692304673817341489687455367171",
        "55464657044963196816950587289035428064568320970692304673817341489687455367169",
        "55464657044963196816950587289035428064568320970692304673817341489687455367168",
        "55464657044963196816950587289035428064568320970692304673817341489687463725056"
      ]
    },
    {
      "x": 18,
      "y": 38,
      "size": 1,
      "price": "2106000000000000000000",
      "reserved": "",
      "assetIds": [
        "55464657044963196816950587289035428064568320970692304673817341489687455367183",
        "55464657044963196816950587289035428064568320970692304673817341489687455367171",
        "55464657044963196816950587289035428064568320970692304673817341489687455367169",
        "55464657044963196816950587289035428064568320970692304673817341489687455367168",
        "55464657044963196816950587289035428064568320970692304673817341489687463725056"
      ]
    },
    {
      "x": 19,
      "y": 38,
      "size": 1,
      "price": "2106000000000000000000",
      "reserved": "",
      "assetIds": [
        "55464657044963196816950587289035428064568320970692304673817341489687455367181",
        "55464657044963196816950587289035428064568320970692304673817341489687455367171",
        "55464657044963196816950587289035428064568320970692304673817341489687455367169",
        "55464657044963196816950587289035428064568320970692304673817341489687455367168",
        "55464657044963196816950587289035428064568320970692304673817341489687463725056"
      ]
    },
    {
      "x": 19,
      "y": 37,
      "size": 1,
      "price": "2106000000000000000000",
      "reserved": "",
      "assetIds": [
        "55464657044963196816950587289035428064568320970692304673817341489687455367179",
        "55464657044963196816950587289035428064568320970692304673817341489687455367171",
        "55464657044963196816950587289035428064568320970692304673817341489687455367169",
        "55464657044963196816950587289035428064568320970692304673817341489687455367168",
        "55464657044963196816950587289035428064568320970692304673817341489687463725056"
      ]
    },
    {
      "x": 20,
      "y": 37,
      "size": 1,
      "price": "2106000000000000000000",
      "reserved": "",
      "assetIds": [
        "55464657044963196816950587289035428064568320970692304673817341489687455367176",
        "55464657044963196816950587289035428064568320970692304673817341489687455367170",
        "55464657044963196816950587289035428064568320970692304673817341489687455367169",
        "55464657044963196816950587289035428064568320970692304673817341489687455367168",
        "55464657044963196816950587289035428064568320970692304673817341489687463725056"
      ]
    },
    {
      "x": 20,
      "y": 38,
      "size": 1,
      "price": "2106000000000000000000",
      "reserved": "",
      "assetIds": [
        "55464657044963196816950587289035428064568320970692304673817341489687455367176",
        "55464657044963196816950587289035428064568320970692304673817341489687455367170",
        "55464657044963196816950587289035428064568320970692304673817341489687455367169",
        "55464657044963196816950587289035428064568320970692304673817341489687455367168",
        "55464657044963196816950587289035428064568320970692304673817341489687463725056"
      ]
    },
    {
      "x": 20,
      "y": 36,
      "size": 1,
      "price": "2106000000000000000000",
      "reserved": "",
      "assetIds": [
        "55464657044963196816950587289035428064568320970692304673817341489687455367173",
        "55464657044963196816950587289035428064568320970692304673817341489687455367170",
        "55464657044963196816950587289035428064568320970692304673817341489687455367169",
        "55464657044963196816950587289035428064568320970692304673817341489687455367168",
        "55464657044963196816950587289035428064568320970692304673817341489687463725056"
      ]
    },
    {
      "x": 20,
      "y": 39,
      "size": 1,
      "price": "2106000000000000000000",
      "reserved": "",
      "assetIds": [
        "55464657044963196816950587289035428064568320970692304673817341489687455367179",
        "55464657044963196816950587289035428064568320970692304673817341489687455367171",
        "55464657044963196816950587289035428064568320970692304673817341489687455367169",
        "55464657044963196816950587289035428064568320970692304673817341489687455367168",
        "55464657044963196816950587289035428064568320970692304673817341489687463725056"
      ]
    },
    {
      "x": 19,
      "y": 40,
      "size": 1,
      "price": "2106000000000000000000",
      "reserved": "",
      "assetIds": [
        "55464657044963196816950587289035428064568320970692304673817341489687455367180",
        "55464657044963196816950587289035428064568320970692304673817341489687455367171",
        "55464657044963196816950587289035428064568320970692304673817341489687455367169",
        "55464657044963196816950587289035428064568320970692304673817341489687455367168",
        "55464657044963196816950587289035428064568320970692304673817341489687463725056"
      ]
    },
    {
      "x": 18,
      "y": 39,
      "size": 1,
      "price": "2106000000000000000000",
      "reserved": "",
      "assetIds": [
        "55464657044963196816950587289035428064568320970692304673817341489687455367178",
        "55464657044963196816950587289035428064568320970692304673817341489687455367171",
        "55464657044963196816950587289035428064568320970692304673817341489687455367169",
        "55464657044963196816950587289035428064568320970692304673817341489687455367168",
        "55464657044963196816950587289035428064568320970692304673817341489687463725056"
      ]
    },
    {
      "x": 17,
      "y": 38,
      "size": 1,
      "price": "2106000000000000000000",
      "reserved": "",
      "assetIds": [
        "55464657044963196816950587289035428064568320970692304673817341489687455367177",
        "55464657044963196816950587289035428064568320970692304673817341489687455367170",
        "55464657044963196816950587289035428064568320970692304673817341489687455367169",
        "55464657044963196816950587289035428064568320970692304673817341489687455367168",
        "55464657044963196816950587289035428064568320970692304673817341489687463725056"
      ]
    },
    {
      "x": 17,
      "y": 37,
      "size": 1,
      "price": "2106000000000000000000",
      "reserved": "",
      "assetIds": [
        "55464657044963196816950587289035428064568320970692304673817341489687455367178",
        "55464657044963196816950587289035428064568320970692304673817341489687455367171",
        "55464657044963196816950587289035428064568320970692304673817341489687455367169",
        "55464657044963196816950587289035428064568320970692304673817341489687455367168",
        "55464657044963196816950587289035428064568320970692304673817341489687463725056"
      ]
    },
    {
      "x": 17,
      "y": 36,
      "size": 1,
      "price": "2106000000000000000000",
      "reserved": "",
      "assetIds": [
        "55464657044963196816950587289035428064568320970692304673817341489687455367176",
        "55464657044963196816950587289035428064568320970692304673817341489687455367170",
        "55464657044963196816950587289035428064568320970692304673817341489687455367169",
        "55464657044963196816950587289035428064568320970692304673817341489687455367168",
        "55464657044963196816950587289035428064568320970692304673817341489687463725056"
      ]
    },
    {
      "x": 17,
      "y": 35,
      "size": 1,
      "price": "2106000000000000000000",
      "reserved": "",
      "assetIds": [
        "55464657044963196816950587289035428064568320970692304673817341489687455367183",
        "55464657044963196816950587289035428064568320970692304673817341489687455367171",
        "55464657044963196816950587289035428064568320970692304673817341489687455367169",
        "55464657044963196816950587289035428064568320970692304673817341489687455367168",
        "55464657044963196816950587289035428064568320970692304673817341489687463725056"
      ]
    },
    {
      "x": 16,
      "y": 35,
      "size": 1,
      "price": "2106000000000000000000",
      "reserved": "",
      "assetIds": [
        "55464657044963196816950587289035428064568320970692304673817341489687455367174",
        "55464657044963196816950587289035428064568320970692304673817341489687455367170",
        "55464657044963196816950587289035428064568320970692304673817341489687455367169",
        "55464657044963196816950587289035428064568320970692304673817341489687455367168",
        "55464657044963196816950587289035428064568320970692304673817341489687463725056"
      ]
    },
    {
      "x": 16,
      "y": 36,
      "size": 1,
      "price": "2106000000000000000000",
      "reserved": "",
      "assetIds": [
        "55464657044963196816950587289035428064568320970692304673817341489687455367176",
        "55464657044963196816950587289035428064568320970692304673817341489687455367170",
        "55464657044963196816950587289035428064568320970692304673817341489687455367169",
        "55464657044963196816950587289035428064568320970692304673817341489687455367168",
        "55464657044963196816950587289035428064568320970692304673817341489687463725056"
      ]
    },
    {
      "x": 17,
      "y": 39,
      "size": 1,
      "price": "2106000000000000000000",
      "reserved": "",
      "assetIds": [
        "55464657044963196816950587289035428064568320970692304673817341489687455367173",
        "55464657044963196816950587289035428064568320970692304673817341489687455367170",
        "55464657044963196816950587289035428064568320970692304673817341489687455367169",
        "55464657044963196816950587289035428064568320970692304673817341489687455367168",
        "55464657044963196816950587289035428064568320970692304673817341489687463725056"
      ]
    },
    {
      "x": 17,
      "y": 40,
      "size": 1,
      "price": "2106000000000000000000",
      "reserved": "",
      "assetIds": [
        "55464657044963196816950587289035428064568320970692304673817341489687455367172",
        "55464657044963196816950587289035428064568320970692304673817341489687455367170",
        "55464657044963196816950587289035428064568320970692304673817341489687455367169",
        "55464657044963196816950587289035428064568320970692304673817341489687455367168",
        "55464657044963196816950587289035428064568320970692304673817341489687463725056"
      ]
    },
    {
      "x": 17,
      "y": 41,
      "size": 1,
      "price": "2106000000000000000000",
      "reserved": "",
      "assetIds": [
        "55464657044963196816950587289035428064568320970692304673817341489687455367174",
        "55464657044963196816950587289035428064568320970692304673817341489687455367170",
        "55464657044963196816950587289035428064568320970692304673817341489687455367169",
        "55464657044963196816950587289035428064568320970692304673817341489687455367168",
        "55464657044963196816950587289035428064568320970692304673817341489687463725056"
      ]
    },
    {
      "x": 17,
      "y": 42,
      "size": 1,
      "price": "2106000000000000000000",
      "reserved": "",
      "assetIds": [
        "55464657044963196816950587289035428064568320970692304673817341489687455367178",
        "55464657044963196816950587289035428064568320970692304673817341489687455367171",
        "55464657044963196816950587289035428064568320970692304673817341489687455367169",
        "55464657044963196816950587289035428064568320970692304673817341489687455367168",
        "55464657044963196816950587289035428064568320970692304673817341489687463725056"
      ]
    },
    {
      "x": 18,
      "y": 41,
      "size": 1,
      "price": "2106000000000000000000",
      "reserved": "",
      "assetIds": [
        "55464657044963196816950587289035428064568320970692304673817341489687455367183",
        "55464657044963196816950587289035428064568320970692304673817341489687455367171",
        "55464657044963196816950587289035428064568320970692304673817341489687455367169",
        "55464657044963196816950587289035428064568320970692304673817341489687455367168",
        "55464657044963196816950587289035428064568320970692304673817341489687463725056"
      ]
    },
    {
      "x": 18,
      "y": 40,
      "size": 1,
      "price": "2106000000000000000000",
      "reserved": "",
      "assetIds": [
        "55464657044963196816950587289035428064568320970692304673817341489687455367177",
        "55464657044963196816950587289035428064568320970692304673817341489687455367170",
        "55464657044963196816950587289035428064568320970692304673817341489687455367169",
        "55464657044963196816950587289035428064568320970692304673817341489687455367168",
        "55464657044963196816950587289035428064568320970692304673817341489687463725056"
      ]
    },
    {
      "x": 21,
      "y": 40,
      "size": 1,
      "price": "2106000000000000000000",
      "reserved": "",
      "assetIds": [
        "55464657044963196816950587289035428064568320970692304673817341489687455367175",
        "55464657044963196816950587289035428064568320970692304673817341489687455367170",
        "55464657044963196816950587289035428064568320970692304673817341489687455367169",
        "55464657044963196816950587289035428064568320970692304673817341489687455367168",
        "55464657044963196816950587289035428064568320970692304673817341489687463725056"
      ]
    },
    {
      "x": 19,
      "y": 39,
      "size": 1,
      "price": "2106000000000000000000",
      "reserved": "",
      "assetIds": [
        "55464657044963196816950587289035428064568320970692304673817341489687455367181",
        "55464657044963196816950587289035428064568320970692304673817341489687455367171",
        "55464657044963196816950587289035428064568320970692304673817341489687455367169",
        "55464657044963196816950587289035428064568320970692304673817341489687455367168",
        "55464657044963196816950587289035428064568320970692304673817341489687463725056"
      ]
    },
    {
      "x": 19,
      "y": 41,
      "size": 1,
      "price": "2106000000000000000000",
      "reserved": "",
      "assetIds": [
        "55464657044963196816950587289035428064568320970692304673817341489687455367178",
        "55464657044963196816950587289035428064568320970692304673817341489687455367171",
        "55464657044963196816950587289035428064568320970692304673817341489687455367169",
        "55464657044963196816950587289035428064568320970692304673817341489687455367168",
        "55464657044963196816950587289035428064568320970692304673817341489687463725056"
      ]
    },
    {
      "x": 16,
      "y": 42,
      "size": 1,
      "price": "2106000000000000000000",
      "reserved": "",
      "assetIds": [
        "55464657044963196816950587289035428064568320970692304673817341489687455367176",
        "55464657044963196816950587289035428064568320970692304673817341489687455367170",
        "55464657044963196816950587289035428064568320970692304673817341489687455367169",
        "55464657044963196816950587289035428064568320970692304673817341489687455367168",
        "55464657044963196816950587289035428064568320970692304673817341489687463725056"
      ]
    },
    {
      "x": 16,
      "y": 43,
      "size": 1,
      "price": "2106000000000000000000",
      "reserved": "",
      "assetIds": [
        "55464657044963196816950587289035428064568320970692304673817341489687455367176",
        "55464657044963196816950587289035428064568320970692304673817341489687455367170",
        "55464657044963196816950587289035428064568320970692304673817341489687455367169",
        "55464657044963196816950587289035428064568320970692304673817341489687455367168",
        "55464657044963196816950587289035428064568320970692304673817341489687463725056"
      ]
    },
    {
      "x": 16,
      "y": 41,
      "size": 1,
      "price": "2106000000000000000000",
      "reserved": "",
      "assetIds": [
        "55464657044963196816950587289035428064568320970692304673817341489687455367179",
        "55464657044963196816950587289035428064568320970692304673817341489687455367171",
        "55464657044963196816950587289035428064568320970692304673817341489687455367169",
        "55464657044963196816950587289035428064568320970692304673817341489687455367168",
        "55464657044963196816950587289035428064568320970692304673817341489687463725056"
      ]
    },
    {
      "x": 16,
      "y": 40,
      "size": 1,
      "price": "2106000000000000000000",
      "reserved": "",
      "assetIds": [
        "55464657044963196816950587289035428064568320970692304673817341489687455367174",
        "55464657044963196816950587289035428064568320970692304673817341489687455367170",
        "55464657044963196816950587289035428064568320970692304673817341489687455367169",
        "55464657044963196816950587289035428064568320970692304673817341489687455367168",
        "55464657044963196816950587289035428064568320970692304673817341489687463725056"
      ]
    },
    {
      "x": 16,
      "y": 39,
      "size": 1,
      "price": "2106000000000000000000",
      "reserved": "",
      "assetIds": [
        "55464657044963196816950587289035428064568320970692304673817341489687455367181",
        "55464657044963196816950587289035428064568320970692304673817341489687455367171",
        "55464657044963196816950587289035428064568320970692304673817341489687455367169",
        "55464657044963196816950587289035428064568320970692304673817341489687455367168",
        "55464657044963196816950587289035428064568320970692304673817341489687463725056"
      ]
    },
    {
      "x": 16,
      "y": 38,
      "size": 1,
      "price": "2106000000000000000000",
      "reserved": "",
      "assetIds": [
        "55464657044963196816950587289035428064568320970692304673817341489687455367172",
        "55464657044963196816950587289035428064568320970692304673817341489687455367170",
        "55464657044963196816950587289035428064568320970692304673817341489687455367169",
        "55464657044963196816950587289035428064568320970692304673817341489687455367168",
        "55464657044963196816950587289035428064568320970692304673817341489687463725056"
      ]
    },
    {
      "x": 16,
      "y": 37,
      "size": 1,
      "price": "2106000000000000000000",
      "reserved": "",
      "assetIds": [
        "55464657044963196816950587289035428064568320970692304673817341489687455367181",
        "55464657044963196816950587289035428064568320970692304673817341489687455367171",
        "55464657044963196816950587289035428064568320970692304673817341489687455367169",
        "55464657044963196816950587289035428064568320970692304673817341489687455367168",
        "55464657044963196816950587289035428064568320970692304673817341489687463725056"
      ]
    },
    {
      "x": 17,
      "y": 45,
      "size": 1,
      "price": "2106000000000000000000",
      "reserved": "",
      "assetIds": [
        "55464657044963196816950587289035428064568320970692304673817341489687455367178",
        "55464657044963196816950587289035428064568320970692304673817341489687455367171",
        "55464657044963196816950587289035428064568320970692304673817341489687455367169",
        "55464657044963196816950587289035428064568320970692304673817341489687455367168",
        "55464657044963196816950587289035428064568320970692304673817341489687463725056"
      ]
    },
    {
      "x": 17,
      "y": 46,
      "size": 1,
      "price": "2106000000000000000000",
      "reserved": "",
      "assetIds": [
        "55464657044963196816950587289035428064568320970692304673817341489687455367180",
        "55464657044963196816950587289035428064568320970692304673817341489687455367171",
        "55464657044963196816950587289035428064568320970692304673817341489687455367169",
        "55464657044963196816950587289035428064568320970692304673817341489687455367168",
        "55464657044963196816950587289035428064568320970692304673817341489687463725056"
      ]
    },
    {
      "x": 17,
      "y": 47,
      "size": 1,
      "price": "2106000000000000000000",
      "reserved": "",
      "assetIds": [
        "55464657044963196816950587289035428064568320970692304673817341489687455367178",
        "55464657044963196816950587289035428064568320970692304673817341489687455367171",
        "55464657044963196816950587289035428064568320970692304673817341489687455367169",
        "55464657044963196816950587289035428064568320970692304673817341489687455367168",
        "55464657044963196816950587289035428064568320970692304673817341489687463725056"
      ]
    },
    {
      "x": 17,
      "y": 48,
      "size": 1,
      "price": "2106000000000000000000",
      "reserved": "",
      "assetIds": [
        "55464657044963196816950587289035428064568320970692304673817341489687455367178",
        "55464657044963196816950587289035428064568320970692304673817341489687455367171",
        "55464657044963196816950587289035428064568320970692304673817341489687455367169",
        "55464657044963196816950587289035428064568320970692304673817341489687455367168",
        "55464657044963196816950587289035428064568320970692304673817341489687463725056"
      ]
    },
    {
      "x": 17,
      "y": 49,
      "size": 1,
      "price": "2106000000000000000000",
      "reserved": "",
      "assetIds": [
        "55464657044963196816950587289035428064568320970692304673817341489687455367172",
        "55464657044963196816950587289035428064568320970692304673817341489687455367170",
        "55464657044963196816950587289035428064568320970692304673817341489687455367169",
        "55464657044963196816950587289035428064568320970692304673817341489687455367168",
        "55464657044963196816950587289035428064568320970692304673817341489687463725056"
      ]
    },
    {
      "x": 18,
      "y": 49,
      "size": 1,
      "price": "2106000000000000000000",
      "reserved": "",
      "assetIds": [
        "55464657044963196816950587289035428064568320970692304673817341489687455367173",
        "55464657044963196816950587289035428064568320970692304673817341489687455367170",
        "55464657044963196816950587289035428064568320970692304673817341489687455367169",
        "55464657044963196816950587289035428064568320970692304673817341489687455367168",
        "55464657044963196816950587289035428064568320970692304673817341489687463725056"
      ]
    },
    {
      "x": 18,
      "y": 50,
      "size": 1,
      "price": "2106000000000000000000",
      "reserved": "",
      "assetIds": [
        "55464657044963196816950587289035428064568320970692304673817341489687455367177",
        "55464657044963196816950587289035428064568320970692304673817341489687455367170",
        "55464657044963196816950587289035428064568320970692304673817341489687455367169",
        "55464657044963196816950587289035428064568320970692304673817341489687455367168",
        "55464657044963196816950587289035428064568320970692304673817341489687463725056"
      ]
    },
    {
      "x": 18,
      "y": 51,
      "size": 1,
      "price": "2106000000000000000000",
      "reserved": "",
      "assetIds": [
        "55464657044963196816950587289035428064568320970692304673817341489687455367173",
        "55464657044963196816950587289035428064568320970692304673817341489687455367170",
        "55464657044963196816950587289035428064568320970692304673817341489687455367169",
        "55464657044963196816950587289035428064568320970692304673817341489687455367168",
        "55464657044963196816950587289035428064568320970692304673817341489687463725056"
      ]
    },
    {
      "x": 19,
      "y": 50,
      "size": 1,
      "price": "2106000000000000000000",
      "reserved": "",
      "assetIds": [
        "55464657044963196816950587289035428064568320970692304673817341489687455367179",
        "55464657044963196816950587289035428064568320970692304673817341489687455367171",
        "55464657044963196816950587289035428064568320970692304673817341489687455367169",
        "55464657044963196816950587289035428064568320970692304673817341489687455367168",
        "55464657044963196816950587289035428064568320970692304673817341489687463725056"
      ]
    },
    {
      "x": 19,
      "y": 49,
      "size": 1,
      "price": "2106000000000000000000",
      "reserved": "",
      "assetIds": [
        "55464657044963196816950587289035428064568320970692304673817341489687455367181",
        "55464657044963196816950587289035428064568320970692304673817341489687455367171",
        "55464657044963196816950587289035428064568320970692304673817341489687455367169",
        "55464657044963196816950587289035428064568320970692304673817341489687455367168",
        "55464657044963196816950587289035428064568320970692304673817341489687463725056"
      ]
    },
    {
      "x": 19,
      "y": 48,
      "size": 1,
      "price": "2106000000000000000000",
      "reserved": "",
      "assetIds": [
        "55464657044963196816950587289035428064568320970692304673817341489687455367182",
        "55464657044963196816950587289035428064568320970692304673817341489687455367171",
        "55464657044963196816950587289035428064568320970692304673817341489687455367169",
        "55464657044963196816950587289035428064568320970692304673817341489687455367168",
        "55464657044963196816950587289035428064568320970692304673817341489687463725056"
      ]
    },
    {
      "x": 19,
      "y": 47,
      "size": 1,
      "price": "2106000000000000000000",
      "reserved": "",
      "assetIds": [
        "55464657044963196816950587289035428064568320970692304673817341489687455367181",
        "55464657044963196816950587289035428064568320970692304673817341489687455367171",
        "55464657044963196816950587289035428064568320970692304673817341489687455367169",
        "55464657044963196816950587289035428064568320970692304673817341489687455367168",
        "55464657044963196816950587289035428064568320970692304673817341489687463725056"
      ]
    },
    {
      "x": 19,
      "y": 46,
      "size": 1,
      "price": "2106000000000000000000",
      "reserved": "",
      "assetIds": [
        "55464657044963196816950587289035428064568320970692304673817341489687455367179",
        "55464657044963196816950587289035428064568320970692304673817341489687455367171",
        "55464657044963196816950587289035428064568320970692304673817341489687455367169",
        "55464657044963196816950587289035428064568320970692304673817341489687455367168",
        "55464657044963196816950587289035428064568320970692304673817341489687463725056"
      ]
    },
    {
      "x": 19,
      "y": 45,
      "size": 1,
      "price": "2106000000000000000000",
      "reserved": "",
      "assetIds": [
        "55464657044963196816950587289035428064568320970692304673817341489687455367179",
        "55464657044963196816950587289035428064568320970692304673817341489687455367171",
        "55464657044963196816950587289035428064568320970692304673817341489687455367169",
        "55464657044963196816950587289035428064568320970692304673817341489687455367168",
        "55464657044963196816950587289035428064568320970692304673817341489687463725056"
      ]
    },
    {
      "x": 19,
      "y": 44,
      "size": 1,
      "price": "2106000000000000000000",
      "reserved": "",
      "assetIds": [
        "55464657044963196816950587289035428064568320970692304673817341489687455367173",
        "55464657044963196816950587289035428064568320970692304673817341489687455367170",
        "55464657044963196816950587289035428064568320970692304673817341489687455367169",
        "55464657044963196816950587289035428064568320970692304673817341489687455367168",
        "55464657044963196816950587289035428064568320970692304673817341489687463725056"
      ]
    },
    {
      "x": 20,
      "y": 44,
      "size": 1,
      "price": "2106000000000000000000",
      "reserved": "",
      "assetIds": [
        "55464657044963196816950587289035428064568320970692304673817341489687455367175",
        "55464657044963196816950587289035428064568320970692304673817341489687455367170",
        "55464657044963196816950587289035428064568320970692304673817341489687455367169",
        "55464657044963196816950587289035428064568320970692304673817341489687455367168",
        "55464657044963196816950587289035428064568320970692304673817341489687463725056"
      ]
    },
    {
      "x": 20,
      "y": 43,
      "size": 1,
      "price": "2106000000000000000000",
      "reserved": "",
      "assetIds": [
        "55464657044963196816950587289035428064568320970692304673817341489687455367180",
        "55464657044963196816950587289035428064568320970692304673817341489687455367171",
        "55464657044963196816950587289035428064568320970692304673817341489687455367169",
        "55464657044963196816950587289035428064568320970692304673817341489687455367168",
        "55464657044963196816950587289035428064568320970692304673817341489687463725056"
      ]
    },
    {
      "x": 19,
      "y": 43,
      "size": 1,
      "price": "2106000000000000000000",
      "reserved": "",
      "assetIds": [
        "55464657044963196816950587289035428064568320970692304673817341489687455367181",
        "55464657044963196816950587289035428064568320970692304673817341489687455367171",
        "55464657044963196816950587289035428064568320970692304673817341489687455367169",
        "55464657044963196816950587289035428064568320970692304673817341489687455367168",
        "55464657044963196816950587289035428064568320970692304673817341489687463725056"
      ]
    },
    {
      "x": 18,
      "y": 44,
      "size": 1,
      "price": "2106000000000000000000",
      "reserved": "",
      "assetIds": [
        "55464657044963196816950587289035428064568320970692304673817341489687455367180",
        "55464657044963196816950587289035428064568320970692304673817341489687455367171",
        "55464657044963196816950587289035428064568320970692304673817341489687455367169",
        "55464657044963196816950587289035428064568320970692304673817341489687455367168",
        "55464657044963196816950587289035428064568320970692304673817341489687463725056"
      ]
    },
    {
      "x": 18,
      "y": 45,
      "size": 1,
      "price": "2106000000000000000000",
      "reserved": "",
      "assetIds": [
        "55464657044963196816950587289035428064568320970692304673817341489687455367175",
        "55464657044963196816950587289035428064568320970692304673817341489687455367170",
        "55464657044963196816950587289035428064568320970692304673817341489687455367169",
        "55464657044963196816950587289035428064568320970692304673817341489687455367168",
        "55464657044963196816950587289035428064568320970692304673817341489687463725056"
      ]
    },
    {
      "x": 18,
      "y": 46,
      "size": 1,
      "price": "2106000000000000000000",
      "reserved": "",
      "assetIds": [
        "55464657044963196816950587289035428064568320970692304673817341489687455367182",
        "55464657044963196816950587289035428064568320970692304673817341489687455367171",
        "55464657044963196816950587289035428064568320970692304673817341489687455367169",
        "55464657044963196816950587289035428064568320970692304673817341489687455367168",
        "55464657044963196816950587289035428064568320970692304673817341489687463725056"
      ]
    },
    {
      "x": 16,
      "y": 46,
      "size": 1,
      "price": "2106000000000000000000",
      "reserved": "",
      "assetIds": [
        "55464657044963196816950587289035428064568320970692304673817341489687455367172",
        "55464657044963196816950587289035428064568320970692304673817341489687455367170",
        "55464657044963196816950587289035428064568320970692304673817341489687455367169",
        "55464657044963196816950587289035428064568320970692304673817341489687455367168",
        "55464657044963196816950587289035428064568320970692304673817341489687463725056"
      ]
    },
    {
      "x": 16,
      "y": 45,
      "size": 1,
      "price": "2106000000000000000000",
      "reserved": "",
      "assetIds": [
        "55464657044963196816950587289035428064568320970692304673817341489687455367175",
        "55464657044963196816950587289035428064568320970692304673817341489687455367170",
        "55464657044963196816950587289035428064568320970692304673817341489687455367169",
        "55464657044963196816950587289035428064568320970692304673817341489687455367168",
        "55464657044963196816950587289035428064568320970692304673817341489687463725056"
      ]
    },
    {
      "x": 16,
      "y": 47,
      "size": 1,
      "price": "2106000000000000000000",
      "reserved": "",
      "assetIds": [
        "55464657044963196816950587289035428064568320970692304673817341489687455367173",
        "55464657044963196816950587289035428064568320970692304673817341489687455367170",
        "55464657044963196816950587289035428064568320970692304673817341489687455367169",
        "55464657044963196816950587289035428064568320970692304673817341489687455367168",
        "55464657044963196816950587289035428064568320970692304673817341489687463725056"
      ]
    },
    {
      "x": 16,
      "y": 48,
      "size": 1,
      "price": "2106000000000000000000",
      "reserved": "",
      "assetIds": [
        "55464657044963196816950587289035428064568320970692304673817341489687455367180",
        "55464657044963196816950587289035428064568320970692304673817341489687455367171",
        "55464657044963196816950587289035428064568320970692304673817341489687455367169",
        "55464657044963196816950587289035428064568320970692304673817341489687455367168",
        "55464657044963196816950587289035428064568320970692304673817341489687463725056"
      ]
    },
    {
      "x": 17,
      "y": 51,
      "size": 1,
      "price": "2106000000000000000000",
      "reserved": "",
      "assetIds": [
        "55464657044963196816950587289035428064568320970692304673817341489687455367176",
        "55464657044963196816950587289035428064568320970692304673817341489687455367170",
        "55464657044963196816950587289035428064568320970692304673817341489687455367169",
        "55464657044963196816950587289035428064568320970692304673817341489687455367168",
        "55464657044963196816950587289035428064568320970692304673817341489687463725056"
      ]
    },
    {
      "x": 17,
      "y": 50,
      "size": 1,
      "price": "2106000000000000000000",
      "reserved": "",
      "assetIds": [
        "55464657044963196816950587289035428064568320970692304673817341489687455367180",
        "55464657044963196816950587289035428064568320970692304673817341489687455367171",
        "55464657044963196816950587289035428064568320970692304673817341489687455367169",
        "55464657044963196816950587289035428064568320970692304673817341489687455367168",
        "55464657044963196816950587289035428064568320970692304673817341489687463725056"
      ]
    },
    {
      "x": 18,
      "y": 48,
      "size": 1,
      "price": "2106000000000000000000",
      "reserved": "",
      "assetIds": [
        "55464657044963196816950587289035428064568320970692304673817341489687455367180",
        "55464657044963196816950587289035428064568320970692304673817341489687455367171",
        "55464657044963196816950587289035428064568320970692304673817341489687455367169",
        "55464657044963196816950587289035428064568320970692304673817341489687455367168",
        "55464657044963196816950587289035428064568320970692304673817341489687463725056"
      ]
    },
    {
      "x": 20,
      "y": 48,
      "size": 1,
      "price": "2106000000000000000000",
      "reserved": "",
      "assetIds": [
        "55464657044963196816950587289035428064568320970692304673817341489687455367174",
        "55464657044963196816950587289035428064568320970692304673817341489687455367170",
        "55464657044963196816950587289035428064568320970692304673817341489687455367169",
        "55464657044963196816950587289035428064568320970692304673817341489687455367168",
        "55464657044963196816950587289035428064568320970692304673817341489687463725056"
      ]
    },
    {
      "x": 20,
      "y": 47,
      "size": 1,
      "price": "2106000000000000000000",
      "reserved": "",
      "assetIds": [
        "55464657044963196816950587289035428064568320970692304673817341489687455367172",
        "55464657044963196816950587289035428064568320970692304673817341489687455367170",
        "55464657044963196816950587289035428064568320970692304673817341489687455367169",
        "55464657044963196816950587289035428064568320970692304673817341489687455367168",
        "55464657044963196816950587289035428064568320970692304673817341489687463725056"
      ]
    },
    {
      "x": 21,
      "y": 47,
      "size": 1,
      "price": "2106000000000000000000",
      "reserved": "",
      "assetIds": [
        "55464657044963196816950587289035428064568320970692304673817341489687455367172",
        "55464657044963196816950587289035428064568320970692304673817341489687455367170",
        "55464657044963196816950587289035428064568320970692304673817341489687455367169",
        "55464657044963196816950587289035428064568320970692304673817341489687455367168",
        "55464657044963196816950587289035428064568320970692304673817341489687463725056"
      ]
    },
    {
      "x": 21,
      "y": 46,
      "size": 1,
      "price": "2106000000000000000000",
      "reserved": "",
      "assetIds": [
        "55464657044963196816950587289035428064568320970692304673817341489687455367175",
        "55464657044963196816950587289035428064568320970692304673817341489687455367170",
        "55464657044963196816950587289035428064568320970692304673817341489687455367169",
        "55464657044963196816950587289035428064568320970692304673817341489687455367168",
        "55464657044963196816950587289035428064568320970692304673817341489687463725056"
      ]
    },
    {
      "x": 21,
      "y": 44,
      "size": 1,
      "price": "2106000000000000000000",
      "reserved": "",
      "assetIds": [
        "55464657044963196816950587289035428064568320970692304673817341489687455367180",
        "55464657044963196816950587289035428064568320970692304673817341489687455367171",
        "55464657044963196816950587289035428064568320970692304673817341489687455367169",
        "55464657044963196816950587289035428064568320970692304673817341489687455367168",
        "55464657044963196816950587289035428064568320970692304673817341489687463725056"
      ]
    },
    {
      "x": 21,
      "y": 43,
      "size": 1,
      "price": "2106000000000000000000",
      "reserved": "",
      "assetIds": [
        "55464657044963196816950587289035428064568320970692304673817341489687455367180",
        "55464657044963196816950587289035428064568320970692304673817341489687455367171",
        "55464657044963196816950587289035428064568320970692304673817341489687455367169",
        "55464657044963196816950587289035428064568320970692304673817341489687455367168",
        "55464657044963196816950587289035428064568320970692304673817341489687463725056"
      ]
    },
    {
      "x": 21,
      "y": 42,
      "size": 1,
      "price": "2106000000000000000000",
      "reserved": "",
      "assetIds": [
        "55464657044963196816950587289035428064568320970692304673817341489687455367179",
        "55464657044963196816950587289035428064568320970692304673817341489687455367171",
        "55464657044963196816950587289035428064568320970692304673817341489687455367169",
        "55464657044963196816950587289035428064568320970692304673817341489687455367168",
        "55464657044963196816950587289035428064568320970692304673817341489687463725056"
      ]
    },
    {
      "x": 21,
      "y": 45,
      "size": 1,
      "price": "2106000000000000000000",
      "reserved": "",
      "assetIds": [
        "55464657044963196816950587289035428064568320970692304673817341489687455367177",
        "55464657044963196816950587289035428064568320970692304673817341489687455367170",
        "55464657044963196816950587289035428064568320970692304673817341489687455367169",
        "55464657044963196816950587289035428064568320970692304673817341489687455367168",
        "55464657044963196816950587289035428064568320970692304673817341489687463725056"
      ]
    },
    {
      "x": 20,
      "y": 46,
      "size": 1,
      "price": "2106000000000000000000",
      "reserved": "",
      "assetIds": [
        "55464657044963196816950587289035428064568320970692304673817341489687455367174",
        "55464657044963196816950587289035428064568320970692304673817341489687455367170",
        "55464657044963196816950587289035428064568320970692304673817341489687455367169",
        "55464657044963196816950587289035428064568320970692304673817341489687455367168",
        "55464657044963196816950587289035428064568320970692304673817341489687463725056"
      ]
    },
    {
      "x": 20,
      "y": 45,
      "size": 1,
      "price": "2106000000000000000000",
      "reserved": "",
      "assetIds": [
        "55464657044963196816950587289035428064568320970692304673817341489687455367175",
        "55464657044963196816950587289035428064568320970692304673817341489687455367170",
        "55464657044963196816950587289035428064568320970692304673817341489687455367169",
        "55464657044963196816950587289035428064568320970692304673817341489687455367168",
        "55464657044963196816950587289035428064568320970692304673817341489687463725056"
      ]
    },
    {
      "x": 21,
      "y": 48,
      "size": 1,
      "price": "2106000000000000000000",
      "reserved": "",
      "assetIds": [
        "55464657044963196816950587289035428064568320970692304673817341489687455367174",
        "55464657044963196816950587289035428064568320970692304673817341489687455367170",
        "55464657044963196816950587289035428064568320970692304673817341489687455367169",
        "55464657044963196816950587289035428064568320970692304673817341489687455367168",
        "55464657044963196816950587289035428064568320970692304673817341489687463725056"
      ]
    },
    {
      "x": 22,
      "y": 48,
      "size": 1,
      "price": "2106000000000000000000",
      "reserved": "",
      "assetIds": [
        "55464657044963196816950587289035428064568320970692304673817341489687455367180",
        "55464657044963196816950587289035428064568320970692304673817341489687455367171",
        "55464657044963196816950587289035428064568320970692304673817341489687455367169",
        "55464657044963196816950587289035428064568320970692304673817341489687455367168",
        "55464657044963196816950587289035428064568320970692304673817341489687463725056"
      ]
    },
    {
      "x": 22,
      "y": 47,
      "size": 1,
      "price": "2106000000000000000000",
      "reserved": "",
      "assetIds": [
        "55464657044963196816950587289035428064568320970692304673817341489687455367177",
        "55464657044963196816950587289035428064568320970692304673817341489687455367170",
        "55464657044963196816950587289035428064568320970692304673817341489687455367169",
        "55464657044963196816950587289035428064568320970692304673817341489687455367168",
        "55464657044963196816950587289035428064568320970692304673817341489687463725056"
      ]
    },
    {
      "x": 30,
      "y": 16,
      "size": 1,
      "price": "2106000000000000000000",
      "reserved": "",
      "assetIds": [
        "55464657044963196816950587289035428064568320970692304673817341489687455367182",
        "55464657044963196816950587289035428064568320970692304673817341489687455367171",
        "55464657044963196816950587289035428064568320970692304673817341489687455367169",
        "55464657044963196816950587289035428064568320970692304673817341489687455367168",
        "55464657044963196816950587289035428064568320970692304673817341489687463725056"
      ]
    },
    {
      "x": 31,
      "y": 16,
      "size": 1,
      "price": "2106000000000000000000",
      "reserved": "",
      "assetIds": [
        "55464657044963196816950587289035428064568320970692304673817341489687455367176",
        "55464657044963196816950587289035428064568320970692304673817341489687455367170",
        "55464657044963196816950587289035428064568320970692304673817341489687455367169",
        "55464657044963196816950587289035428064568320970692304673817341489687455367168",
        "55464657044963196816950587289035428064568320970692304673817341489687463725056"
      ]
    },
    {
      "x": 32,
      "y": 16,
      "size": 1,
      "price": "2106000000000000000000",
      "reserved": "",
      "assetIds": [
        "55464657044963196816950587289035428064568320970692304673817341489687455367174",
        "55464657044963196816950587289035428064568320970692304673817341489687455367170",
        "55464657044963196816950587289035428064568320970692304673817341489687455367169",
        "55464657044963196816950587289035428064568320970692304673817341489687455367168",
        "55464657044963196816950587289035428064568320970692304673817341489687463725056"
      ]
    },
    {
      "x": 29,
      "y": 14,
      "size": 1,
      "price": "2106000000000000000000",
      "reserved": "",
      "assetIds": [
        "55464657044963196816950587289035428064568320970692304673817341489687455367177",
        "55464657044963196816950587289035428064568320970692304673817341489687455367170",
        "55464657044963196816950587289035428064568320970692304673817341489687455367169",
        "55464657044963196816950587289035428064568320970692304673817341489687455367168",
        "55464657044963196816950587289035428064568320970692304673817341489687463725056"
      ]
    },
    {
      "x": 29,
      "y": 13,
      "size": 1,
      "price": "2106000000000000000000",
      "reserved": "",
      "assetIds": [
        "55464657044963196816950587289035428064568320970692304673817341489687455367177",
        "55464657044963196816950587289035428064568320970692304673817341489687455367170",
        "55464657044963196816950587289035428064568320970692304673817341489687455367169",
        "55464657044963196816950587289035428064568320970692304673817341489687455367168",
        "55464657044963196816950587289035428064568320970692304673817341489687463725056"
      ]
    },
    {
      "x": 30,
      "y": 13,
      "size": 1,
      "price": "2106000000000000000000",
      "reserved": "",
      "assetIds": [
        "55464657044963196816950587289035428064568320970692304673817341489687455367182",
        "55464657044963196816950587289035428064568320970692304673817341489687455367171",
        "55464657044963196816950587289035428064568320970692304673817341489687455367169",
        "55464657044963196816950587289035428064568320970692304673817341489687455367168",
        "55464657044963196816950587289035428064568320970692304673817341489687463725056"
      ]
    },
    {
      "x": 30,
      "y": 12,
      "size": 1,
      "price": "2106000000000000000000",
      "reserved": "",
      "assetIds": [
        "55464657044963196816950587289035428064568320970692304673817341489687455367179",
        "55464657044963196816950587289035428064568320970692304673817341489687455367171",
        "55464657044963196816950587289035428064568320970692304673817341489687455367169",
        "55464657044963196816950587289035428064568320970692304673817341489687455367168",
        "55464657044963196816950587289035428064568320970692304673817341489687463725056"
      ]
    },
    {
      "x": 31,
      "y": 10,
      "size": 1,
      "price": "2106000000000000000000",
      "reserved": "",
      "assetIds": [
        "55464657044963196816950587289035428064568320970692304673817341489687455367179",
        "55464657044963196816950587289035428064568320970692304673817341489687455367171",
        "55464657044963196816950587289035428064568320970692304673817341489687455367169",
        "55464657044963196816950587289035428064568320970692304673817341489687455367168",
        "55464657044963196816950587289035428064568320970692304673817341489687463725056"
      ]
    },
    {
      "x": 32,
      "y": 10,
      "size": 1,
      "price": "2106000000000000000000",
      "reserved": "",
      "assetIds": [
        "55464657044963196816950587289035428064568320970692304673817341489687455367181",
        "55464657044963196816950587289035428064568320970692304673817341489687455367171",
        "55464657044963196816950587289035428064568320970692304673817341489687455367169",
        "55464657044963196816950587289035428064568320970692304673817341489687455367168",
        "55464657044963196816950587289035428064568320970692304673817341489687463725056"
      ]
    },
    {
      "x": 33,
      "y": 10,
      "size": 1,
      "price": "2106000000000000000000",
      "reserved": "",
      "assetIds": [
        "55464657044963196816950587289035428064568320970692304673817341489687455367175",
        "55464657044963196816950587289035428064568320970692304673817341489687455367170",
        "55464657044963196816950587289035428064568320970692304673817341489687455367169",
        "55464657044963196816950587289035428064568320970692304673817341489687455367168",
        "55464657044963196816950587289035428064568320970692304673817341489687463725056"
      ]
    },
    {
      "x": 34,
      "y": 11,
      "size": 1,
      "price": "2106000000000000000000",
      "reserved": "",
      "assetIds": [
        "55464657044963196816950587289035428064568320970692304673817341489687455367182",
        "55464657044963196816950587289035428064568320970692304673817341489687455367171",
        "55464657044963196816950587289035428064568320970692304673817341489687455367169",
        "55464657044963196816950587289035428064568320970692304673817341489687455367168",
        "55464657044963196816950587289035428064568320970692304673817341489687463725056"
      ]
    },
    {
      "x": 33,
      "y": 11,
      "size": 1,
      "price": "2106000000000000000000",
      "reserved": "",
      "assetIds": [
        "55464657044963196816950587289035428064568320970692304673817341489687455367178",
        "55464657044963196816950587289035428064568320970692304673817341489687455367171",
        "55464657044963196816950587289035428064568320970692304673817341489687455367169",
        "55464657044963196816950587289035428064568320970692304673817341489687455367168",
        "55464657044963196816950587289035428064568320970692304673817341489687463725056"
      ]
    },
    {
      "x": 33,
      "y": 12,
      "size": 1,
      "price": "2106000000000000000000",
      "reserved": "",
      "assetIds": [
        "55464657044963196816950587289035428064568320970692304673817341489687455367182",
        "55464657044963196816950587289035428064568320970692304673817341489687455367171",
        "55464657044963196816950587289035428064568320970692304673817341489687455367169",
        "55464657044963196816950587289035428064568320970692304673817341489687455367168",
        "55464657044963196816950587289035428064568320970692304673817341489687463725056"
      ]
    },
    {
      "x": 32,
      "y": 12,
      "size": 1,
      "price": "2106000000000000000000",
      "reserved": "",
      "assetIds": [
        "55464657044963196816950587289035428064568320970692304673817341489687455367178",
        "55464657044963196816950587289035428064568320970692304673817341489687455367171",
        "55464657044963196816950587289035428064568320970692304673817341489687455367169",
        "55464657044963196816950587289035428064568320970692304673817341489687455367168",
        "55464657044963196816950587289035428064568320970692304673817341489687463725056"
      ]
    },
    {
      "x": 31,
      "y": 12,
      "size": 1,
      "price": "2106000000000000000000",
      "reserved": "",
      "assetIds": [
        "55464657044963196816950587289035428064568320970692304673817341489687455367182",
        "55464657044963196816950587289035428064568320970692304673817341489687455367171",
        "55464657044963196816950587289035428064568320970692304673817341489687455367169",
        "55464657044963196816950587289035428064568320970692304673817341489687455367168",
        "55464657044963196816950587289035428064568320970692304673817341489687463725056"
      ]
    },
    {
      "x": 32,
      "y": 11,
      "size": 1,
      "price": "2106000000000000000000",
      "reserved": "",
      "assetIds": [
        "55464657044963196816950587289035428064568320970692304673817341489687455367176",
        "55464657044963196816950587289035428064568320970692304673817341489687455367170",
        "55464657044963196816950587289035428064568320970692304673817341489687455367169",
        "55464657044963196816950587289035428064568320970692304673817341489687455367168",
        "55464657044963196816950587289035428064568320970692304673817341489687463725056"
      ]
    },
    {
      "x": 31,
      "y": 11,
      "size": 1,
      "price": "2106000000000000000000",
      "reserved": "",
      "assetIds": [
        "55464657044963196816950587289035428064568320970692304673817341489687455367176",
        "55464657044963196816950587289035428064568320970692304673817341489687455367170",
        "55464657044963196816950587289035428064568320970692304673817341489687455367169",
        "55464657044963196816950587289035428064568320970692304673817341489687455367168",
        "55464657044963196816950587289035428064568320970692304673817341489687463725056"
      ]
    },
    {
      "x": 30,
      "y": 10,
      "size": 1,
      "price": "2106000000000000000000",
      "reserved": "",
      "assetIds": [
        "55464657044963196816950587289035428064568320970692304673817341489687455367182",
        "55464657044963196816950587289035428064568320970692304673817341489687455367171",
        "55464657044963196816950587289035428064568320970692304673817341489687455367169",
        "55464657044963196816950587289035428064568320970692304673817341489687455367168",
        "55464657044963196816950587289035428064568320970692304673817341489687463725056"
      ]
    },
    {
      "x": 29,
      "y": 10,
      "size": 1,
      "price": "2106000000000000000000",
      "reserved": "",
      "assetIds": [
        "55464657044963196816950587289035428064568320970692304673817341489687455367180",
        "55464657044963196816950587289035428064568320970692304673817341489687455367171",
        "55464657044963196816950587289035428064568320970692304673817341489687455367169",
        "55464657044963196816950587289035428064568320970692304673817341489687455367168",
        "55464657044963196816950587289035428064568320970692304673817341489687463725056"
      ]
    },
    {
      "x": 28,
      "y": 10,
      "size": 1,
      "price": "2106000000000000000000",
      "reserved": "",
      "assetIds": [
        "55464657044963196816950587289035428064568320970692304673817341489687455367180",
        "55464657044963196816950587289035428064568320970692304673817341489687455367171",
        "55464657044963196816950587289035428064568320970692304673817341489687455367169",
        "55464657044963196816950587289035428064568320970692304673817341489687455367168",
        "55464657044963196816950587289035428064568320970692304673817341489687463725056"
      ]
    },
    {
      "x": 28,
      "y": 11,
      "size": 1,
      "price": "2106000000000000000000",
      "reserved": "",
      "assetIds": [
        "55464657044963196816950587289035428064568320970692304673817341489687455367174",
        "55464657044963196816950587289035428064568320970692304673817341489687455367170",
        "55464657044963196816950587289035428064568320970692304673817341489687455367169",
        "55464657044963196816950587289035428064568320970692304673817341489687455367168",
        "55464657044963196816950587289035428064568320970692304673817341489687463725056"
      ]
    },
    {
      "x": 28,
      "y": 12,
      "size": 1,
      "price": "2106000000000000000000",
      "reserved": "",
      "assetIds": [
        "55464657044963196816950587289035428064568320970692304673817341489687455367177",
        "55464657044963196816950587289035428064568320970692304673817341489687455367170",
        "55464657044963196816950587289035428064568320970692304673817341489687455367169",
        "55464657044963196816950587289035428064568320970692304673817341489687455367168",
        "55464657044963196816950587289035428064568320970692304673817341489687463725056"
      ]
    },
    {
      "x": 28,
      "y": 13,
      "size": 1,
      "price": "2106000000000000000000",
      "reserved": "",
      "assetIds": [
        "55464657044963196816950587289035428064568320970692304673817341489687455367172",
        "55464657044963196816950587289035428064568320970692304673817341489687455367170",
        "55464657044963196816950587289035428064568320970692304673817341489687455367169",
        "55464657044963196816950587289035428064568320970692304673817341489687455367168",
        "55464657044963196816950587289035428064568320970692304673817341489687463725056"
      ]
    },
    {
      "x": 29,
      "y": 12,
      "size": 1,
      "price": "2106000000000000000000",
      "reserved": "",
      "assetIds": [
        "55464657044963196816950587289035428064568320970692304673817341489687455367182",
        "55464657044963196816950587289035428064568320970692304673817341489687455367171",
        "55464657044963196816950587289035428064568320970692304673817341489687455367169",
        "55464657044963196816950587289035428064568320970692304673817341489687455367168",
        "55464657044963196816950587289035428064568320970692304673817341489687463725056"
      ]
    },
    {
      "x": 29,
      "y": 11,
      "size": 1,
      "price": "2106000000000000000000",
      "reserved": "",
      "assetIds": [
        "55464657044963196816950587289035428064568320970692304673817341489687455367177",
        "55464657044963196816950587289035428064568320970692304673817341489687455367170",
        "55464657044963196816950587289035428064568320970692304673817341489687455367169",
        "55464657044963196816950587289035428064568320970692304673817341489687455367168",
        "55464657044963196816950587289035428064568320970692304673817341489687463725056"
      ]
    },
    {
      "x": 28,
      "y": 14,
      "size": 1,
      "price": "2106000000000000000000",
      "reserved": "",
      "assetIds": [
        "55464657044963196816950587289035428064568320970692304673817341489687455367176",
        "55464657044963196816950587289035428064568320970692304673817341489687455367170",
        "55464657044963196816950587289035428064568320970692304673817341489687455367169",
        "55464657044963196816950587289035428064568320970692304673817341489687455367168",
        "55464657044963196816950587289035428064568320970692304673817341489687463725056"
      ]
    },
    {
      "x": 28,
      "y": 15,
      "size": 1,
      "price": "2106000000000000000000",
      "reserved": "",
      "assetIds": [
        "55464657044963196816950587289035428064568320970692304673817341489687455367173",
        "55464657044963196816950587289035428064568320970692304673817341489687455367170",
        "55464657044963196816950587289035428064568320970692304673817341489687455367169",
        "55464657044963196816950587289035428064568320970692304673817341489687455367168",
        "55464657044963196816950587289035428064568320970692304673817341489687463725056"
      ]
    },
    {
      "x": 27,
      "y": 15,
      "size": 1,
      "price": "2106000000000000000000",
      "reserved": "",
      "assetIds": [
        "55464657044963196816950587289035428064568320970692304673817341489687455367172",
        "55464657044963196816950587289035428064568320970692304673817341489687455367170",
        "55464657044963196816950587289035428064568320970692304673817341489687455367169",
        "55464657044963196816950587289035428064568320970692304673817341489687455367168",
        "55464657044963196816950587289035428064568320970692304673817341489687463725056"
      ]
    },
    {
      "x": 27,
      "y": 14,
      "size": 1,
      "price": "2106000000000000000000",
      "reserved": "",
      "assetIds": [
        "55464657044963196816950587289035428064568320970692304673817341489687455367182",
        "55464657044963196816950587289035428064568320970692304673817341489687455367171",
        "55464657044963196816950587289035428064568320970692304673817341489687455367169",
        "55464657044963196816950587289035428064568320970692304673817341489687455367168",
        "55464657044963196816950587289035428064568320970692304673817341489687463725056"
      ]
    },
    {
      "x": 27,
      "y": 13,
      "size": 1,
      "price": "2106000000000000000000",
      "reserved": "",
      "assetIds": [
        "55464657044963196816950587289035428064568320970692304673817341489687455367180",
        "55464657044963196816950587289035428064568320970692304673817341489687455367171",
        "55464657044963196816950587289035428064568320970692304673817341489687455367169",
        "55464657044963196816950587289035428064568320970692304673817341489687455367168",
        "55464657044963196816950587289035428064568320970692304673817341489687463725056"
      ]
    },
    {
      "x": 30,
      "y": 14,
      "size": 1,
      "price": "2106000000000000000000",
      "reserved": "",
      "assetIds": [
        "55464657044963196816950587289035428064568320970692304673817341489687455367177",
        "55464657044963196816950587289035428064568320970692304673817341489687455367170",
        "55464657044963196816950587289035428064568320970692304673817341489687455367169",
        "55464657044963196816950587289035428064568320970692304673817341489687455367168",
        "55464657044963196816950587289035428064568320970692304673817341489687463725056"
      ]
    },
    {
      "x": 31,
      "y": 14,
      "size": 1,
      "price": "2106000000000000000000",
      "reserved": "",
      "assetIds": [
        "55464657044963196816950587289035428064568320970692304673817341489687455367183",
        "55464657044963196816950587289035428064568320970692304673817341489687455367171",
        "55464657044963196816950587289035428064568320970692304673817341489687455367169",
        "55464657044963196816950587289035428064568320970692304673817341489687455367168",
        "55464657044963196816950587289035428064568320970692304673817341489687463725056"
      ]
    },
    {
      "x": 32,
      "y": 14,
      "size": 1,
      "price": "2106000000000000000000",
      "reserved": "",
      "assetIds": [
        "55464657044963196816950587289035428064568320970692304673817341489687455367182",
        "55464657044963196816950587289035428064568320970692304673817341489687455367171",
        "55464657044963196816950587289035428064568320970692304673817341489687455367169",
        "55464657044963196816950587289035428064568320970692304673817341489687455367168",
        "55464657044963196816950587289035428064568320970692304673817341489687463725056"
      ]
    },
    {
      "x": 32,
      "y": 13,
      "size": 1,
      "price": "2106000000000000000000",
      "reserved": "",
      "assetIds": [
        "55464657044963196816950587289035428064568320970692304673817341489687455367172",
        "55464657044963196816950587289035428064568320970692304673817341489687455367170",
        "55464657044963196816950587289035428064568320970692304673817341489687455367169",
        "55464657044963196816950587289035428064568320970692304673817341489687455367168",
        "55464657044963196816950587289035428064568320970692304673817341489687463725056"
      ]
    },
    {
      "x": 33,
      "y": 13,
      "size": 1,
      "price": "2106000000000000000000",
      "reserved": "",
      "assetIds": [
        "55464657044963196816950587289035428064568320970692304673817341489687455367180",
        "55464657044963196816950587289035428064568320970692304673817341489687455367171",
        "55464657044963196816950587289035428064568320970692304673817341489687455367169",
        "55464657044963196816950587289035428064568320970692304673817341489687455367168",
        "55464657044963196816950587289035428064568320970692304673817341489687463725056"
      ]
    },
    {
      "x": 34,
      "y": 12,
      "size": 1,
      "price": "2106000000000000000000",
      "reserved": "",
      "assetIds": [
        "55464657044963196816950587289035428064568320970692304673817341489687455367179",
        "55464657044963196816950587289035428064568320970692304673817341489687455367171",
        "55464657044963196816950587289035428064568320970692304673817341489687455367169",
        "55464657044963196816950587289035428064568320970692304673817341489687455367168",
        "55464657044963196816950587289035428064568320970692304673817341489687463725056"
      ]
    },
    {
      "x": 34,
      "y": 14,
      "size": 1,
      "price": "2106000000000000000000",
      "reserved": "",
      "assetIds": [
        "55464657044963196816950587289035428064568320970692304673817341489687455367182",
        "55464657044963196816950587289035428064568320970692304673817341489687455367171",
        "55464657044963196816950587289035428064568320970692304673817341489687455367169",
        "55464657044963196816950587289035428064568320970692304673817341489687455367168",
        "55464657044963196816950587289035428064568320970692304673817341489687463725056"
      ]
    },
    {
      "x": 31,
      "y": 13,
      "size": 1,
      "price": "2106000000000000000000",
      "reserved": "",
      "assetIds": [
        "55464657044963196816950587289035428064568320970692304673817341489687455367174",
        "55464657044963196816950587289035428064568320970692304673817341489687455367170",
        "55464657044963196816950587289035428064568320970692304673817341489687455367169",
        "55464657044963196816950587289035428064568320970692304673817341489687455367168",
        "55464657044963196816950587289035428064568320970692304673817341489687463725056"
      ]
    },
    {
      "x": 33,
      "y": 14,
      "size": 1,
      "price": "2106000000000000000000",
      "reserved": "",
      "assetIds": [
        "55464657044963196816950587289035428064568320970692304673817341489687455367181",
        "55464657044963196816950587289035428064568320970692304673817341489687455367171",
        "55464657044963196816950587289035428064568320970692304673817341489687455367169",
        "55464657044963196816950587289035428064568320970692304673817341489687455367168",
        "55464657044963196816950587289035428064568320970692304673817341489687463725056"
      ]
    },
    {
      "x": 24,
      "y": 17,
      "size": 1,
      "price": "2106000000000000000000",
      "reserved": "",
      "assetIds": [
        "55464657044963196816950587289035428064568320970692304673817341489687455367176",
        "55464657044963196816950587289035428064568320970692304673817341489687455367170",
        "55464657044963196816950587289035428064568320970692304673817341489687455367169",
        "55464657044963196816950587289035428064568320970692304673817341489687455367168",
        "55464657044963196816950587289035428064568320970692304673817341489687463725056"
      ]
    },
    {
      "x": 87,
      "y": 188,
      "size": 1,
      "price": "2106000000000000000000",
      "reserved": "",
      "assetIds": [
        "55464657044963196816950587289035428064568320970692304673817341489687455367179",
        "55464657044963196816950587289035428064568320970692304673817341489687455367171",
        "55464657044963196816950587289035428064568320970692304673817341489687455367169",
        "55464657044963196816950587289035428064568320970692304673817341489687455367168"
      ]
    },
    {
      "x": 88,
      "y": 188,
      "size": 1,
      "price": "2106000000000000000000",
      "reserved": "",
      "assetIds": [
        "55464657044963196816950587289035428064568320970692304673817341489687455367180",
        "55464657044963196816950587289035428064568320970692304673817341489687455367171",
        "55464657044963196816950587289035428064568320970692304673817341489687455367169",
        "55464657044963196816950587289035428064568320970692304673817341489687455367168"
      ]
    },
    {
      "x": 89,
      "y": 188,
      "size": 1,
      "price": "2106000000000000000000",
      "reserved": "",
      "assetIds": [
        "55464657044963196816950587289035428064568320970692304673817341489687455367172",
        "55464657044963196816950587289035428064568320970692304673817341489687455367170",
        "55464657044963196816950587289035428064568320970692304673817341489687455367169",
        "55464657044963196816950587289035428064568320970692304673817341489687455367168"
      ]
    },
    {
      "x": 90,
      "y": 188,
      "size": 1,
      "price": "2106000000000000000000",
      "reserved": "",
      "assetIds": [
        "55464657044963196816950587289035428064568320970692304673817341489687455367177",
        "55464657044963196816950587289035428064568320970692304673817341489687455367170",
        "55464657044963196816950587289035428064568320970692304673817341489687455367169",
        "55464657044963196816950587289035428064568320970692304673817341489687455367168"
      ]
    },
    {
      "x": 91,
      "y": 188,
      "size": 1,
      "price": "2106000000000000000000",
      "reserved": "",
      "assetIds": [
        "55464657044963196816950587289035428064568320970692304673817341489687455367175",
        "55464657044963196816950587289035428064568320970692304673817341489687455367170",
        "55464657044963196816950587289035428064568320970692304673817341489687455367169",
        "55464657044963196816950587289035428064568320970692304673817341489687455367168"
      ]
    },
    {
      "x": 92,
      "y": 188,
      "size": 1,
      "price": "2106000000000000000000",
      "reserved": "",
      "assetIds": [
        "55464657044963196816950587289035428064568320970692304673817341489687455367173",
        "55464657044963196816950587289035428064568320970692304673817341489687455367170",
        "55464657044963196816950587289035428064568320970692304673817341489687455367169",
        "55464657044963196816950587289035428064568320970692304673817341489687455367168"
      ]
    },
    {
      "x": 88,
      "y": 187,
      "size": 1,
      "price": "2106000000000000000000",
      "reserved": "",
      "assetIds": [
        "55464657044963196816950587289035428064568320970692304673817341489687455367174",
        "55464657044963196816950587289035428064568320970692304673817341489687455367170",
        "55464657044963196816950587289035428064568320970692304673817341489687455367169",
        "55464657044963196816950587289035428064568320970692304673817341489687455367168"
      ]
    },
    {
      "x": 89,
      "y": 187,
      "size": 1,
      "price": "2106000000000000000000",
      "reserved": "",
      "assetIds": [
        "55464657044963196816950587289035428064568320970692304673817341489687455367176",
        "55464657044963196816950587289035428064568320970692304673817341489687455367170",
        "55464657044963196816950587289035428064568320970692304673817341489687455367169",
        "55464657044963196816950587289035428064568320970692304673817341489687455367168"
      ]
    },
    {
      "x": 90,
      "y": 187,
      "size": 1,
      "price": "2106000000000000000000",
      "reserved": "",
      "assetIds": [
        "55464657044963196816950587289035428064568320970692304673817341489687455367183",
        "55464657044963196816950587289035428064568320970692304673817341489687455367171",
        "55464657044963196816950587289035428064568320970692304673817341489687455367169",
        "55464657044963196816950587289035428064568320970692304673817341489687455367168"
      ]
    },
    {
      "x": 91,
      "y": 187,
      "size": 1,
      "price": "2106000000000000000000",
      "reserved": "",
      "assetIds": [
        "55464657044963196816950587289035428064568320970692304673817341489687455367179",
        "55464657044963196816950587289035428064568320970692304673817341489687455367171",
        "55464657044963196816950587289035428064568320970692304673817341489687455367169",
        "55464657044963196816950587289035428064568320970692304673817341489687455367168"
      ]
    },
    {
      "x": 93,
      "y": 187,
      "size": 1,
      "price": "2106000000000000000000",
      "reserved": "",
      "assetIds": [
        "55464657044963196816950587289035428064568320970692304673817341489687455367173",
        "55464657044963196816950587289035428064568320970692304673817341489687455367170",
        "55464657044963196816950587289035428064568320970692304673817341489687455367169",
        "55464657044963196816950587289035428064568320970692304673817341489687455367168"
      ]
    },
    {
      "x": 94,
      "y": 187,
      "size": 1,
      "price": "2106000000000000000000",
      "reserved": "",
      "assetIds": [
        "55464657044963196816950587289035428064568320970692304673817341489687455367181",
        "55464657044963196816950587289035428064568320970692304673817341489687455367171",
        "55464657044963196816950587289035428064568320970692304673817341489687455367169",
        "55464657044963196816950587289035428064568320970692304673817341489687455367168"
      ]
    },
    {
      "x": 95,
      "y": 187,
      "size": 1,
      "price": "2106000000000000000000",
      "reserved": "",
      "assetIds": [
        "55464657044963196816950587289035428064568320970692304673817341489687455367182",
        "55464657044963196816950587289035428064568320970692304673817341489687455367171",
        "55464657044963196816950587289035428064568320970692304673817341489687455367169",
        "55464657044963196816950587289035428064568320970692304673817341489687455367168"
      ]
    },
    {
      "x": 99,
      "y": 186,
      "size": 1,
      "price": "2106000000000000000000",
      "reserved": "",
      "assetIds": [
        "55464657044963196816950587289035428064568320970692304673817341489687455367176",
        "55464657044963196816950587289035428064568320970692304673817341489687455367170",
        "55464657044963196816950587289035428064568320970692304673817341489687455367169",
        "55464657044963196816950587289035428064568320970692304673817341489687455367168"
      ]
    },
    {
      "x": 99,
      "y": 185,
      "size": 1,
      "price": "2106000000000000000000",
      "reserved": "",
      "assetIds": [
        "55464657044963196816950587289035428064568320970692304673817341489687455367183",
        "55464657044963196816950587289035428064568320970692304673817341489687455367171",
        "55464657044963196816950587289035428064568320970692304673817341489687455367169",
        "55464657044963196816950587289035428064568320970692304673817341489687455367168"
      ]
    },
    {
      "x": 98,
      "y": 185,
      "size": 1,
      "price": "2106000000000000000000",
      "reserved": "",
      "assetIds": [
        "55464657044963196816950587289035428064568320970692304673817341489687455367182",
        "55464657044963196816950587289035428064568320970692304673817341489687455367171",
        "55464657044963196816950587289035428064568320970692304673817341489687455367169",
        "55464657044963196816950587289035428064568320970692304673817341489687455367168"
      ]
    },
    {
      "x": 97,
      "y": 185,
      "size": 1,
      "price": "2106000000000000000000",
      "reserved": "",
      "assetIds": [
        "55464657044963196816950587289035428064568320970692304673817341489687455367183",
        "55464657044963196816950587289035428064568320970692304673817341489687455367171",
        "55464657044963196816950587289035428064568320970692304673817341489687455367169",
        "55464657044963196816950587289035428064568320970692304673817341489687455367168"
      ]
    },
    {
      "x": 95,
      "y": 185,
      "size": 1,
      "price": "2106000000000000000000",
      "reserved": "",
      "assetIds": [
        "55464657044963196816950587289035428064568320970692304673817341489687455367182",
        "55464657044963196816950587289035428064568320970692304673817341489687455367171",
        "55464657044963196816950587289035428064568320970692304673817341489687455367169",
        "55464657044963196816950587289035428064568320970692304673817341489687455367168"
      ]
    },
    {
      "x": 94,
      "y": 185,
      "size": 1,
      "price": "2106000000000000000000",
      "reserved": "",
      "assetIds": [
        "55464657044963196816950587289035428064568320970692304673817341489687455367183",
        "55464657044963196816950587289035428064568320970692304673817341489687455367171",
        "55464657044963196816950587289035428064568320970692304673817341489687455367169",
        "55464657044963196816950587289035428064568320970692304673817341489687455367168"
      ]
    },
    {
      "x": 92,
      "y": 185,
      "size": 1,
      "price": "2106000000000000000000",
      "reserved": "",
      "assetIds": [
        "55464657044963196816950587289035428064568320970692304673817341489687455367177",
        "55464657044963196816950587289035428064568320970692304673817341489687455367170",
        "55464657044963196816950587289035428064568320970692304673817341489687455367169",
        "55464657044963196816950587289035428064568320970692304673817341489687455367168"
      ]
    },
    {
      "x": 91,
      "y": 185,
      "size": 1,
      "price": "2106000000000000000000",
      "reserved": "",
      "assetIds": [
        "55464657044963196816950587289035428064568320970692304673817341489687455367183",
        "55464657044963196816950587289035428064568320970692304673817341489687455367171",
        "55464657044963196816950587289035428064568320970692304673817341489687455367169",
        "55464657044963196816950587289035428064568320970692304673817341489687455367168"
      ]
    },
    {
      "x": 90,
      "y": 185,
      "size": 1,
      "price": "2106000000000000000000",
      "reserved": "",
      "assetIds": [
        "55464657044963196816950587289035428064568320970692304673817341489687455367181",
        "55464657044963196816950587289035428064568320970692304673817341489687455367171",
        "55464657044963196816950587289035428064568320970692304673817341489687455367169",
        "55464657044963196816950587289035428064568320970692304673817341489687455367168"
      ]
    },
    {
      "x": 89,
      "y": 185,
      "size": 1,
      "price": "2106000000000000000000",
      "reserved": "",
      "assetIds": [
        "55464657044963196816950587289035428064568320970692304673817341489687455367183",
        "55464657044963196816950587289035428064568320970692304673817341489687455367171",
        "55464657044963196816950587289035428064568320970692304673817341489687455367169",
        "55464657044963196816950587289035428064568320970692304673817341489687455367168"
      ]
    },
    {
      "x": 88,
      "y": 185,
      "size": 1,
      "price": "2106000000000000000000",
      "reserved": "",
      "assetIds": [
        "55464657044963196816950587289035428064568320970692304673817341489687455367173",
        "55464657044963196816950587289035428064568320970692304673817341489687455367170",
        "55464657044963196816950587289035428064568320970692304673817341489687455367169",
        "55464657044963196816950587289035428064568320970692304673817341489687455367168"
      ]
    },
    {
      "x": 88,
      "y": 186,
      "size": 1,
      "price": "2106000000000000000000",
      "reserved": "",
      "assetIds": [
        "55464657044963196816950587289035428064568320970692304673817341489687455367181",
        "55464657044963196816950587289035428064568320970692304673817341489687455367171",
        "55464657044963196816950587289035428064568320970692304673817341489687455367169",
        "55464657044963196816950587289035428064568320970692304673817341489687455367168"
      ]
    },
    {
      "x": 89,
      "y": 186,
      "size": 1,
      "price": "2106000000000000000000",
      "reserved": "",
      "assetIds": [
        "55464657044963196816950587289035428064568320970692304673817341489687455367179",
        "55464657044963196816950587289035428064568320970692304673817341489687455367171",
        "55464657044963196816950587289035428064568320970692304673817341489687455367169",
        "55464657044963196816950587289035428064568320970692304673817341489687455367168"
      ]
    },
    {
      "x": 90,
      "y": 186,
      "size": 1,
      "price": "2106000000000000000000",
      "reserved": "",
      "assetIds": [
        "55464657044963196816950587289035428064568320970692304673817341489687455367177",
        "55464657044963196816950587289035428064568320970692304673817341489687455367170",
        "55464657044963196816950587289035428064568320970692304673817341489687455367169",
        "55464657044963196816950587289035428064568320970692304673817341489687455367168"
      ]
    },
    {
      "x": 91,
      "y": 186,
      "size": 1,
      "price": "2106000000000000000000",
      "reserved": "",
      "assetIds": [
        "55464657044963196816950587289035428064568320970692304673817341489687455367181",
        "55464657044963196816950587289035428064568320970692304673817341489687455367171",
        "55464657044963196816950587289035428064568320970692304673817341489687455367169",
        "55464657044963196816950587289035428064568320970692304673817341489687455367168"
      ]
    },
    {
      "x": 92,
      "y": 186,
      "size": 1,
      "price": "2106000000000000000000",
      "reserved": "",
      "assetIds": [
        "55464657044963196816950587289035428064568320970692304673817341489687455367176",
        "55464657044963196816950587289035428064568320970692304673817341489687455367170",
        "55464657044963196816950587289035428064568320970692304673817341489687455367169",
        "55464657044963196816950587289035428064568320970692304673817341489687455367168"
      ]
    },
    {
      "x": 93,
      "y": 186,
      "size": 1,
      "price": "2106000000000000000000",
      "reserved": "",
      "assetIds": [
        "55464657044963196816950587289035428064568320970692304673817341489687455367181",
        "55464657044963196816950587289035428064568320970692304673817341489687455367171",
        "55464657044963196816950587289035428064568320970692304673817341489687455367169",
        "55464657044963196816950587289035428064568320970692304673817341489687455367168"
      ]
    },
    {
      "x": 94,
      "y": 186,
      "size": 1,
      "price": "2106000000000000000000",
      "reserved": "",
      "assetIds": [
        "55464657044963196816950587289035428064568320970692304673817341489687455367178",
        "55464657044963196816950587289035428064568320970692304673817341489687455367171",
        "55464657044963196816950587289035428064568320970692304673817341489687455367169",
        "55464657044963196816950587289035428064568320970692304673817341489687455367168"
      ]
    },
    {
      "x": 95,
      "y": 186,
      "size": 1,
      "price": "2106000000000000000000",
      "reserved": "",
      "assetIds": [
        "55464657044963196816950587289035428064568320970692304673817341489687455367174",
        "55464657044963196816950587289035428064568320970692304673817341489687455367170",
        "55464657044963196816950587289035428064568320970692304673817341489687455367169",
        "55464657044963196816950587289035428064568320970692304673817341489687455367168"
      ]
    },
    {
      "x": 96,
      "y": 186,
      "size": 1,
      "price": "2106000000000000000000",
      "reserved": "",
      "assetIds": [
        "55464657044963196816950587289035428064568320970692304673817341489687455367174",
        "55464657044963196816950587289035428064568320970692304673817341489687455367170",
        "55464657044963196816950587289035428064568320970692304673817341489687455367169",
        "55464657044963196816950587289035428064568320970692304673817341489687455367168"
      ]
    },
    {
      "x": 97,
      "y": 186,
      "size": 1,
      "price": "2106000000000000000000",
      "reserved": "",
      "assetIds": [
        "55464657044963196816950587289035428064568320970692304673817341489687455367182",
        "55464657044963196816950587289035428064568320970692304673817341489687455367171",
        "55464657044963196816950587289035428064568320970692304673817341489687455367169",
        "55464657044963196816950587289035428064568320970692304673817341489687455367168"
      ]
    },
    {
      "x": 98,
      "y": 186,
      "size": 1,
      "price": "2106000000000000000000",
      "reserved": "",
      "assetIds": [
        "55464657044963196816950587289035428064568320970692304673817341489687455367175",
        "55464657044963196816950587289035428064568320970692304673817341489687455367170",
        "55464657044963196816950587289035428064568320970692304673817341489687455367169",
        "55464657044963196816950587289035428064568320970692304673817341489687455367168"
      ]
    },
    {
      "x": 100,
      "y": 186,
      "size": 1,
      "price": "2106000000000000000000",
      "reserved": "",
      "assetIds": [
        "55464657044963196816950587289035428064568320970692304673817341489687455367175",
        "55464657044963196816950587289035428064568320970692304673817341489687455367170",
        "55464657044963196816950587289035428064568320970692304673817341489687455367169",
        "55464657044963196816950587289035428064568320970692304673817341489687455367168"
      ]
    },
    {
      "x": 100,
      "y": 185,
      "size": 1,
      "price": "2106000000000000000000",
      "reserved": "",
      "assetIds": [
        "55464657044963196816950587289035428064568320970692304673817341489687455367173",
        "55464657044963196816950587289035428064568320970692304673817341489687455367170",
        "55464657044963196816950587289035428064568320970692304673817341489687455367169",
        "55464657044963196816950587289035428064568320970692304673817341489687455367168"
      ]
    },
    {
      "x": 100,
      "y": 184,
      "size": 1,
      "price": "2106000000000000000000",
      "reserved": "",
      "assetIds": [
        "55464657044963196816950587289035428064568320970692304673817341489687455367183",
        "55464657044963196816950587289035428064568320970692304673817341489687455367171",
        "55464657044963196816950587289035428064568320970692304673817341489687455367169",
        "55464657044963196816950587289035428064568320970692304673817341489687455367168"
      ]
    },
    {
      "x": 100,
      "y": 183,
      "size": 1,
      "price": "2106000000000000000000",
      "reserved": "",
      "assetIds": [
        "55464657044963196816950587289035428064568320970692304673817341489687455367172",
        "55464657044963196816950587289035428064568320970692304673817341489687455367170",
        "55464657044963196816950587289035428064568320970692304673817341489687455367169",
        "55464657044963196816950587289035428064568320970692304673817341489687455367168"
      ]
    },
    {
      "x": 101,
      "y": 183,
      "size": 1,
      "price": "2106000000000000000000",
      "reserved": "",
      "assetIds": [
        "55464657044963196816950587289035428064568320970692304673817341489687455367173",
        "55464657044963196816950587289035428064568320970692304673817341489687455367170",
        "55464657044963196816950587289035428064568320970692304673817341489687455367169",
        "55464657044963196816950587289035428064568320970692304673817341489687455367168"
      ]
    },
    {
      "x": 101,
      "y": 182,
      "size": 1,
      "price": "2106000000000000000000",
      "reserved": "",
      "assetIds": [
        "55464657044963196816950587289035428064568320970692304673817341489687455367174",
        "55464657044963196816950587289035428064568320970692304673817341489687455367170",
        "55464657044963196816950587289035428064568320970692304673817341489687455367169",
        "55464657044963196816950587289035428064568320970692304673817341489687455367168"
      ]
    },
    {
      "x": 101,
      "y": 181,
      "size": 1,
      "price": "2106000000000000000000",
      "reserved": "",
      "assetIds": [
        "55464657044963196816950587289035428064568320970692304673817341489687455367178",
        "55464657044963196816950587289035428064568320970692304673817341489687455367171",
        "55464657044963196816950587289035428064568320970692304673817341489687455367169",
        "55464657044963196816950587289035428064568320970692304673817341489687455367168"
      ]
    },
    {
      "x": 101,
      "y": 180,
      "size": 1,
      "price": "2106000000000000000000",
      "reserved": "",
      "assetIds": [
        "55464657044963196816950587289035428064568320970692304673817341489687455367178",
        "55464657044963196816950587289035428064568320970692304673817341489687455367171",
        "55464657044963196816950587289035428064568320970692304673817341489687455367169",
        "55464657044963196816950587289035428064568320970692304673817341489687455367168"
      ]
    },
    {
      "x": 101,
      "y": 179,
      "size": 1,
      "price": "2106000000000000000000",
      "reserved": "",
      "assetIds": [
        "55464657044963196816950587289035428064568320970692304673817341489687455367182",
        "55464657044963196816950587289035428064568320970692304673817341489687455367171",
        "55464657044963196816950587289035428064568320970692304673817341489687455367169",
        "55464657044963196816950587289035428064568320970692304673817341489687455367168"
      ]
    },
    {
      "x": 101,
      "y": 178,
      "size": 1,
      "price": "2106000000000000000000",
      "reserved": "",
      "assetIds": [
        "55464657044963196816950587289035428064568320970692304673817341489687455367174",
        "55464657044963196816950587289035428064568320970692304673817341489687455367170",
        "55464657044963196816950587289035428064568320970692304673817341489687455367169",
        "55464657044963196816950587289035428064568320970692304673817341489687455367168"
      ]
    },
    {
      "x": 101,
      "y": 176,
      "size": 1,
      "price": "2106000000000000000000",
      "reserved": "",
      "assetIds": [
        "55464657044963196816950587289035428064568320970692304673817341489687455367175",
        "55464657044963196816950587289035428064568320970692304673817341489687455367170",
        "55464657044963196816950587289035428064568320970692304673817341489687455367169",
        "55464657044963196816950587289035428064568320970692304673817341489687455367168"
      ]
    },
    {
      "x": 101,
      "y": 174,
      "size": 1,
      "price": "2106000000000000000000",
      "reserved": "",
      "assetIds": [
        "55464657044963196816950587289035428064568320970692304673817341489687455367180",
        "55464657044963196816950587289035428064568320970692304673817341489687455367171",
        "55464657044963196816950587289035428064568320970692304673817341489687455367169",
        "55464657044963196816950587289035428064568320970692304673817341489687455367168"
      ]
    },
    {
      "x": 101,
      "y": 173,
      "size": 1,
      "price": "2106000000000000000000",
      "reserved": "",
      "assetIds": [
        "55464657044963196816950587289035428064568320970692304673817341489687455367175",
        "55464657044963196816950587289035428064568320970692304673817341489687455367170",
        "55464657044963196816950587289035428064568320970692304673817341489687455367169",
        "55464657044963196816950587289035428064568320970692304673817341489687455367168"
      ]
    },
    {
      "x": 102,
      "y": 173,
      "size": 1,
      "price": "2106000000000000000000",
      "reserved": "",
      "assetIds": [
        "55464657044963196816950587289035428064568320970692304673817341489687455367177",
        "55464657044963196816950587289035428064568320970692304673817341489687455367170",
        "55464657044963196816950587289035428064568320970692304673817341489687455367169",
        "55464657044963196816950587289035428064568320970692304673817341489687455367168"
      ]
    },
    {
      "x": 103,
      "y": 173,
      "size": 1,
      "price": "2106000000000000000000",
      "reserved": "",
      "assetIds": [
        "55464657044963196816950587289035428064568320970692304673817341489687455367173",
        "55464657044963196816950587289035428064568320970692304673817341489687455367170",
        "55464657044963196816950587289035428064568320970692304673817341489687455367169",
        "55464657044963196816950587289035428064568320970692304673817341489687455367168"
      ]
    },
    {
      "x": 103,
      "y": 172,
      "size": 1,
      "price": "2106000000000000000000",
      "reserved": "",
      "assetIds": [
        "55464657044963196816950587289035428064568320970692304673817341489687455367179",
        "55464657044963196816950587289035428064568320970692304673817341489687455367171",
        "55464657044963196816950587289035428064568320970692304673817341489687455367169",
        "55464657044963196816950587289035428064568320970692304673817341489687455367168"
      ]
    },
    {
      "x": 103,
      "y": 171,
      "size": 1,
      "price": "2106000000000000000000",
      "reserved": "",
      "assetIds": [
        "55464657044963196816950587289035428064568320970692304673817341489687455367172",
        "55464657044963196816950587289035428064568320970692304673817341489687455367170",
        "55464657044963196816950587289035428064568320970692304673817341489687455367169",
        "55464657044963196816950587289035428064568320970692304673817341489687455367168"
      ]
    },
    {
      "x": 102,
      "y": 171,
      "size": 1,
      "price": "2106000000000000000000",
      "reserved": "",
      "assetIds": [
        "55464657044963196816950587289035428064568320970692304673817341489687455367172",
        "55464657044963196816950587289035428064568320970692304673817341489687455367170",
        "55464657044963196816950587289035428064568320970692304673817341489687455367169",
        "55464657044963196816950587289035428064568320970692304673817341489687455367168"
      ]
    },
    {
      "x": 102,
      "y": 170,
      "size": 1,
      "price": "2106000000000000000000",
      "reserved": "",
      "assetIds": [
        "55464657044963196816950587289035428064568320970692304673817341489687455367183",
        "55464657044963196816950587289035428064568320970692304673817341489687455367171",
        "55464657044963196816950587289035428064568320970692304673817341489687455367169",
        "55464657044963196816950587289035428064568320970692304673817341489687455367168"
      ]
    },
    {
      "x": 102,
      "y": 169,
      "size": 1,
      "price": "2106000000000000000000",
      "reserved": "",
      "assetIds": [
        "55464657044963196816950587289035428064568320970692304673817341489687455367178",
        "55464657044963196816950587289035428064568320970692304673817341489687455367171",
        "55464657044963196816950587289035428064568320970692304673817341489687455367169",
        "55464657044963196816950587289035428064568320970692304673817341489687455367168"
      ]
    },
    {
      "x": 102,
      "y": 168,
      "size": 1,
      "price": "2106000000000000000000",
      "reserved": "",
      "assetIds": [
        "55464657044963196816950587289035428064568320970692304673817341489687455367176",
        "55464657044963196816950587289035428064568320970692304673817341489687455367170",
        "55464657044963196816950587289035428064568320970692304673817341489687455367169",
        "55464657044963196816950587289035428064568320970692304673817341489687455367168"
      ]
    },
    {
      "x": 102,
      "y": 167,
      "size": 1,
      "price": "2106000000000000000000",
      "reserved": "",
      "assetIds": [
        "55464657044963196816950587289035428064568320970692304673817341489687455367181",
        "55464657044963196816950587289035428064568320970692304673817341489687455367171",
        "55464657044963196816950587289035428064568320970692304673817341489687455367169",
        "55464657044963196816950587289035428064568320970692304673817341489687455367168"
      ]
    },
    {
      "x": 102,
      "y": 166,
      "size": 1,
      "price": "2106000000000000000000",
      "reserved": "",
      "assetIds": [
        "55464657044963196816950587289035428064568320970692304673817341489687455367182",
        "55464657044963196816950587289035428064568320970692304673817341489687455367171",
        "55464657044963196816950587289035428064568320970692304673817341489687455367169",
        "55464657044963196816950587289035428064568320970692304673817341489687455367168"
      ]
    },
    {
      "x": 101,
      "y": 164,
      "size": 1,
      "price": "2106000000000000000000",
      "reserved": "",
      "assetIds": [
        "55464657044963196816950587289035428064568320970692304673817341489687455367179",
        "55464657044963196816950587289035428064568320970692304673817341489687455367171",
        "55464657044963196816950587289035428064568320970692304673817341489687455367169",
        "55464657044963196816950587289035428064568320970692304673817341489687455367168"
      ]
    },
    {
      "x": 102,
      "y": 165,
      "size": 1,
      "price": "2106000000000000000000",
      "reserved": "",
      "assetIds": [
        "55464657044963196816950587289035428064568320970692304673817341489687455367174",
        "55464657044963196816950587289035428064568320970692304673817341489687455367170",
        "55464657044963196816950587289035428064568320970692304673817341489687455367169",
        "55464657044963196816950587289035428064568320970692304673817341489687455367168"
      ]
    },
    {
      "x": 101,
      "y": 163,
      "size": 1,
      "price": "2106000000000000000000",
      "reserved": "",
      "assetIds": [
        "55464657044963196816950587289035428064568320970692304673817341489687455367179",
        "55464657044963196816950587289035428064568320970692304673817341489687455367171",
        "55464657044963196816950587289035428064568320970692304673817341489687455367169",
        "55464657044963196816950587289035428064568320970692304673817341489687455367168"
      ]
    },
    {
      "x": 100,
      "y": 163,
      "size": 1,
      "price": "2106000000000000000000",
      "reserved": "",
      "assetIds": [
        "55464657044963196816950587289035428064568320970692304673817341489687455367179",
        "55464657044963196816950587289035428064568320970692304673817341489687455367171",
        "55464657044963196816950587289035428064568320970692304673817341489687455367169",
        "55464657044963196816950587289035428064568320970692304673817341489687455367168"
      ]
    },
    {
      "x": 99,
      "y": 163,
      "size": 1,
      "price": "2106000000000000000000",
      "reserved": "",
      "assetIds": [
        "55464657044963196816950587289035428064568320970692304673817341489687455367175",
        "55464657044963196816950587289035428064568320970692304673817341489687455367170",
        "55464657044963196816950587289035428064568320970692304673817341489687455367169",
        "55464657044963196816950587289035428064568320970692304673817341489687455367168"
      ]
    },
    {
      "x": 99,
      "y": 164,
      "size": 1,
      "price": "2106000000000000000000",
      "reserved": "",
      "assetIds": [
        "55464657044963196816950587289035428064568320970692304673817341489687455367180",
        "55464657044963196816950587289035428064568320970692304673817341489687455367171",
        "55464657044963196816950587289035428064568320970692304673817341489687455367169",
        "55464657044963196816950587289035428064568320970692304673817341489687455367168"
      ]
    },
    {
      "x": 98,
      "y": 163,
      "size": 1,
      "price": "2106000000000000000000",
      "reserved": "",
      "assetIds": [
        "55464657044963196816950587289035428064568320970692304673817341489687455367177",
        "55464657044963196816950587289035428064568320970692304673817341489687455367170",
        "55464657044963196816950587289035428064568320970692304673817341489687455367169",
        "55464657044963196816950587289035428064568320970692304673817341489687455367168"
      ]
    },
    {
      "x": 100,
      "y": 162,
      "size": 1,
      "price": "2106000000000000000000",
      "reserved": "",
      "assetIds": [
        "55464657044963196816950587289035428064568320970692304673817341489687455367183",
        "55464657044963196816950587289035428064568320970692304673817341489687455367171",
        "55464657044963196816950587289035428064568320970692304673817341489687455367169",
        "55464657044963196816950587289035428064568320970692304673817341489687455367168"
      ]
    },
    {
      "x": 99,
      "y": 162,
      "size": 1,
      "price": "2106000000000000000000",
      "reserved": "",
      "assetIds": [
        "55464657044963196816950587289035428064568320970692304673817341489687455367175",
        "55464657044963196816950587289035428064568320970692304673817341489687455367170",
        "55464657044963196816950587289035428064568320970692304673817341489687455367169",
        "55464657044963196816950587289035428064568320970692304673817341489687455367168"
      ]
    },
    {
      "x": 98,
      "y": 162,
      "size": 1,
      "price": "2106000000000000000000",
      "reserved": "",
      "assetIds": [
        "55464657044963196816950587289035428064568320970692304673817341489687455367178",
        "55464657044963196816950587289035428064568320970692304673817341489687455367171",
        "55464657044963196816950587289035428064568320970692304673817341489687455367169",
        "55464657044963196816950587289035428064568320970692304673817341489687455367168"
      ]
    },
    {
      "x": 97,
      "y": 162,
      "size": 1,
      "price": "2106000000000000000000",
      "reserved": "",
      "assetIds": [
        "55464657044963196816950587289035428064568320970692304673817341489687455367175",
        "55464657044963196816950587289035428064568320970692304673817341489687455367170",
        "55464657044963196816950587289035428064568320970692304673817341489687455367169",
        "55464657044963196816950587289035428064568320970692304673817341489687455367168"
      ]
    },
    {
      "x": 96,
      "y": 162,
      "size": 1,
      "price": "2106000000000000000000",
      "reserved": "",
      "assetIds": [
        "55464657044963196816950587289035428064568320970692304673817341489687455367180",
        "55464657044963196816950587289035428064568320970692304673817341489687455367171",
        "55464657044963196816950587289035428064568320970692304673817341489687455367169",
        "55464657044963196816950587289035428064568320970692304673817341489687455367168"
      ]
    },
    {
      "x": 98,
      "y": 161,
      "size": 1,
      "price": "2106000000000000000000",
      "reserved": "",
      "assetIds": [
        "55464657044963196816950587289035428064568320970692304673817341489687455367172",
        "55464657044963196816950587289035428064568320970692304673817341489687455367170",
        "55464657044963196816950587289035428064568320970692304673817341489687455367169",
        "55464657044963196816950587289035428064568320970692304673817341489687455367168"
      ]
    },
    {
      "x": 97,
      "y": 161,
      "size": 1,
      "price": "2106000000000000000000",
      "reserved": "",
      "assetIds": [
        "55464657044963196816950587289035428064568320970692304673817341489687455367175",
        "55464657044963196816950587289035428064568320970692304673817341489687455367170",
        "55464657044963196816950587289035428064568320970692304673817341489687455367169",
        "55464657044963196816950587289035428064568320970692304673817341489687455367168"
      ]
    },
    {
      "x": 96,
      "y": 161,
      "size": 1,
      "price": "2106000000000000000000",
      "reserved": "",
      "assetIds": [
        "55464657044963196816950587289035428064568320970692304673817341489687455367175",
        "55464657044963196816950587289035428064568320970692304673817341489687455367170",
        "55464657044963196816950587289035428064568320970692304673817341489687455367169",
        "55464657044963196816950587289035428064568320970692304673817341489687455367168"
      ]
    },
    {
      "x": 94,
      "y": 160,
      "size": 1,
      "price": "2106000000000000000000",
      "reserved": "",
      "assetIds": [
        "55464657044963196816950587289035428064568320970692304673817341489687455367172",
        "55464657044963196816950587289035428064568320970692304673817341489687455367170",
        "55464657044963196816950587289035428064568320970692304673817341489687455367169",
        "55464657044963196816950587289035428064568320970692304673817341489687455367168"
      ]
    },
    {
      "x": 93,
      "y": 160,
      "size": 1,
      "price": "2106000000000000000000",
      "reserved": "",
      "assetIds": [
        "55464657044963196816950587289035428064568320970692304673817341489687455367179",
        "55464657044963196816950587289035428064568320970692304673817341489687455367171",
        "55464657044963196816950587289035428064568320970692304673817341489687455367169",
        "55464657044963196816950587289035428064568320970692304673817341489687455367168"
      ]
    },
    {
      "x": 92,
      "y": 160,
      "size": 1,
      "price": "2106000000000000000000",
      "reserved": "",
      "assetIds": [
        "55464657044963196816950587289035428064568320970692304673817341489687455367180",
        "55464657044963196816950587289035428064568320970692304673817341489687455367171",
        "55464657044963196816950587289035428064568320970692304673817341489687455367169",
        "55464657044963196816950587289035428064568320970692304673817341489687455367168"
      ]
    },
    {
      "x": 91,
      "y": 160,
      "size": 1,
      "price": "2106000000000000000000",
      "reserved": "",
      "assetIds": [
        "55464657044963196816950587289035428064568320970692304673817341489687455367178",
        "55464657044963196816950587289035428064568320970692304673817341489687455367171",
        "55464657044963196816950587289035428064568320970692304673817341489687455367169",
        "55464657044963196816950587289035428064568320970692304673817341489687455367168"
      ]
    },
    {
      "x": 90,
      "y": 160,
      "size": 1,
      "price": "2106000000000000000000",
      "reserved": "",
      "assetIds": [
        "55464657044963196816950587289035428064568320970692304673817341489687455367176",
        "55464657044963196816950587289035428064568320970692304673817341489687455367170",
        "55464657044963196816950587289035428064568320970692304673817341489687455367169",
        "55464657044963196816950587289035428064568320970692304673817341489687455367168"
      ]
    },
    {
      "x": 89,
      "y": 160,
      "size": 1,
      "price": "2106000000000000000000",
      "reserved": "",
      "assetIds": [
        "55464657044963196816950587289035428064568320970692304673817341489687455367181",
        "55464657044963196816950587289035428064568320970692304673817341489687455367171",
        "55464657044963196816950587289035428064568320970692304673817341489687455367169",
        "55464657044963196816950587289035428064568320970692304673817341489687455367168"
      ]
    },
    {
      "x": 88,
      "y": 160,
      "size": 1,
      "price": "2106000000000000000000",
      "reserved": "",
      "assetIds": [
        "55464657044963196816950587289035428064568320970692304673817341489687455367182",
        "55464657044963196816950587289035428064568320970692304673817341489687455367171",
        "55464657044963196816950587289035428064568320970692304673817341489687455367169",
        "55464657044963196816950587289035428064568320970692304673817341489687455367168"
      ]
    },
    {
      "x": 87,
      "y": 160,
      "size": 1,
      "price": "2106000000000000000000",
      "reserved": "",
      "assetIds": [
        "55464657044963196816950587289035428064568320970692304673817341489687455367176",
        "55464657044963196816950587289035428064568320970692304673817341489687455367170",
        "55464657044963196816950587289035428064568320970692304673817341489687455367169",
        "55464657044963196816950587289035428064568320970692304673817341489687455367168"
      ]
    },
    {
      "x": 86,
      "y": 160,
      "size": 1,
      "price": "2106000000000000000000",
      "reserved": "",
      "assetIds": [
        "55464657044963196816950587289035428064568320970692304673817341489687455367181",
        "55464657044963196816950587289035428064568320970692304673817341489687455367171",
        "55464657044963196816950587289035428064568320970692304673817341489687455367169",
        "55464657044963196816950587289035428064568320970692304673817341489687455367168"
      ]
    },
    {
      "x": 85,
      "y": 160,
      "size": 1,
      "price": "2106000000000000000000",
      "reserved": "",
      "assetIds": [
        "55464657044963196816950587289035428064568320970692304673817341489687455367178",
        "55464657044963196816950587289035428064568320970692304673817341489687455367171",
        "55464657044963196816950587289035428064568320970692304673817341489687455367169",
        "55464657044963196816950587289035428064568320970692304673817341489687455367168"
      ]
    },
    {
      "x": 84,
      "y": 160,
      "size": 1,
      "price": "2106000000000000000000",
      "reserved": "",
      "assetIds": [
        "55464657044963196816950587289035428064568320970692304673817341489687455367173",
        "55464657044963196816950587289035428064568320970692304673817341489687455367170",
        "55464657044963196816950587289035428064568320970692304673817341489687455367169",
        "55464657044963196816950587289035428064568320970692304673817341489687455367168"
      ]
    },
    {
      "x": 95,
      "y": 160,
      "size": 1,
      "price": "2106000000000000000000",
      "reserved": "",
      "assetIds": [
        "55464657044963196816950587289035428064568320970692304673817341489687455367175",
        "55464657044963196816950587289035428064568320970692304673817341489687455367170",
        "55464657044963196816950587289035428064568320970692304673817341489687455367169",
        "55464657044963196816950587289035428064568320970692304673817341489687455367168"
      ]
    },
    {
      "x": 83,
      "y": 161,
      "size": 1,
      "price": "2106000000000000000000",
      "reserved": "",
      "assetIds": [
        "55464657044963196816950587289035428064568320970692304673817341489687455367176",
        "55464657044963196816950587289035428064568320970692304673817341489687455367170",
        "55464657044963196816950587289035428064568320970692304673817341489687455367169",
        "55464657044963196816950587289035428064568320970692304673817341489687455367168"
      ]
    },
    {
      "x": 82,
      "y": 161,
      "size": 1,
      "price": "2106000000000000000000",
      "reserved": "",
      "assetIds": [
        "55464657044963196816950587289035428064568320970692304673817341489687455367183",
        "55464657044963196816950587289035428064568320970692304673817341489687455367171",
        "55464657044963196816950587289035428064568320970692304673817341489687455367169",
        "55464657044963196816950587289035428064568320970692304673817341489687455367168"
      ]
    },
    {
      "x": 80,
      "y": 161,
      "size": 1,
      "price": "2106000000000000000000",
      "reserved": "",
      "assetIds": [
        "55464657044963196816950587289035428064568320970692304673817341489687455367179",
        "55464657044963196816950587289035428064568320970692304673817341489687455367171",
        "55464657044963196816950587289035428064568320970692304673817341489687455367169",
        "55464657044963196816950587289035428064568320970692304673817341489687455367168"
      ]
    },
    {
      "x": 79,
      "y": 161,
      "size": 1,
      "price": "2106000000000000000000",
      "reserved": "",
      "assetIds": [
        "55464657044963196816950587289035428064568320970692304673817341489687455367175",
        "55464657044963196816950587289035428064568320970692304673817341489687455367170",
        "55464657044963196816950587289035428064568320970692304673817341489687455367169",
        "55464657044963196816950587289035428064568320970692304673817341489687455367168"
      ]
    },
    {
      "x": 78,
      "y": 161,
      "size": 1,
      "price": "2106000000000000000000",
      "reserved": "",
      "assetIds": [
        "55464657044963196816950587289035428064568320970692304673817341489687455367181",
        "55464657044963196816950587289035428064568320970692304673817341489687455367171",
        "55464657044963196816950587289035428064568320970692304673817341489687455367169",
        "55464657044963196816950587289035428064568320970692304673817341489687455367168"
      ]
    },
    {
      "x": 78,
      "y": 162,
      "size": 1,
      "price": "2106000000000000000000",
      "reserved": "",
      "assetIds": [
        "55464657044963196816950587289035428064568320970692304673817341489687455367179",
        "55464657044963196816950587289035428064568320970692304673817341489687455367171",
        "55464657044963196816950587289035428064568320970692304673817341489687455367169",
        "55464657044963196816950587289035428064568320970692304673817341489687455367168"
      ]
    },
    {
      "x": 78,
      "y": 163,
      "size": 1,
      "price": "2106000000000000000000",
      "reserved": "",
      "assetIds": [
        "55464657044963196816950587289035428064568320970692304673817341489687455367173",
        "55464657044963196816950587289035428064568320970692304673817341489687455367170",
        "55464657044963196816950587289035428064568320970692304673817341489687455367169",
        "55464657044963196816950587289035428064568320970692304673817341489687455367168"
      ]
    },
    {
      "x": 79,
      "y": 163,
      "size": 1,
      "price": "2106000000000000000000",
      "reserved": "",
      "assetIds": [
        "55464657044963196816950587289035428064568320970692304673817341489687455367174",
        "55464657044963196816950587289035428064568320970692304673817341489687455367170",
        "55464657044963196816950587289035428064568320970692304673817341489687455367169",
        "55464657044963196816950587289035428064568320970692304673817341489687455367168"
      ]
    },
    {
      "x": 79,
      "y": 164,
      "size": 1,
      "price": "2106000000000000000000",
      "reserved": "",
      "assetIds": [
        "55464657044963196816950587289035428064568320970692304673817341489687455367180",
        "55464657044963196816950587289035428064568320970692304673817341489687455367171",
        "55464657044963196816950587289035428064568320970692304673817341489687455367169",
        "55464657044963196816950587289035428064568320970692304673817341489687455367168"
      ]
    },
    {
      "x": 79,
      "y": 165,
      "size": 1,
      "price": "2106000000000000000000",
      "reserved": "",
      "assetIds": [
        "55464657044963196816950587289035428064568320970692304673817341489687455367183",
        "55464657044963196816950587289035428064568320970692304673817341489687455367171",
        "55464657044963196816950587289035428064568320970692304673817341489687455367169",
        "55464657044963196816950587289035428064568320970692304673817341489687455367168"
      ]
    },
    {
      "x": 78,
      "y": 165,
      "size": 1,
      "price": "2106000000000000000000",
      "reserved": "",
      "assetIds": [
        "55464657044963196816950587289035428064568320970692304673817341489687455367175",
        "55464657044963196816950587289035428064568320970692304673817341489687455367170",
        "55464657044963196816950587289035428064568320970692304673817341489687455367169",
        "55464657044963196816950587289035428064568320970692304673817341489687455367168"
      ]
    },
    {
      "x": 78,
      "y": 166,
      "size": 1,
      "price": "2106000000000000000000",
      "reserved": "",
      "assetIds": [
        "55464657044963196816950587289035428064568320970692304673817341489687455367175",
        "55464657044963196816950587289035428064568320970692304673817341489687455367170",
        "55464657044963196816950587289035428064568320970692304673817341489687455367169",
        "55464657044963196816950587289035428064568320970692304673817341489687455367168"
      ]
    },
    {
      "x": 78,
      "y": 167,
      "size": 1,
      "price": "2106000000000000000000",
      "reserved": "",
      "assetIds": [
        "55464657044963196816950587289035428064568320970692304673817341489687455367181",
        "55464657044963196816950587289035428064568320970692304673817341489687455367171",
        "55464657044963196816950587289035428064568320970692304673817341489687455367169",
        "55464657044963196816950587289035428064568320970692304673817341489687455367168"
      ]
    },
    {
      "x": 78,
      "y": 168,
      "size": 1,
      "price": "2106000000000000000000",
      "reserved": "",
      "assetIds": [
        "55464657044963196816950587289035428064568320970692304673817341489687455367180",
        "55464657044963196816950587289035428064568320970692304673817341489687455367171",
        "55464657044963196816950587289035428064568320970692304673817341489687455367169",
        "55464657044963196816950587289035428064568320970692304673817341489687455367168"
      ]
    },
    {
      "x": 78,
      "y": 169,
      "size": 1,
      "price": "2106000000000000000000",
      "reserved": "",
      "assetIds": [
        "55464657044963196816950587289035428064568320970692304673817341489687455367175",
        "55464657044963196816950587289035428064568320970692304673817341489687455367170",
        "55464657044963196816950587289035428064568320970692304673817341489687455367169",
        "55464657044963196816950587289035428064568320970692304673817341489687455367168"
      ]
    },
    {
      "x": 78,
      "y": 170,
      "size": 1,
      "price": "2106000000000000000000",
      "reserved": "",
      "assetIds": [
        "55464657044963196816950587289035428064568320970692304673817341489687455367181",
        "55464657044963196816950587289035428064568320970692304673817341489687455367171",
        "55464657044963196816950587289035428064568320970692304673817341489687455367169",
        "55464657044963196816950587289035428064568320970692304673817341489687455367168"
      ]
    },
    {
      "x": 78,
      "y": 171,
      "size": 1,
      "price": "2106000000000000000000",
      "reserved": "",
      "assetIds": [
        "55464657044963196816950587289035428064568320970692304673817341489687455367174",
        "55464657044963196816950587289035428064568320970692304673817341489687455367170",
        "55464657044963196816950587289035428064568320970692304673817341489687455367169",
        "55464657044963196816950587289035428064568320970692304673817341489687455367168"
      ]
    },
    {
      "x": 77,
      "y": 171,
      "size": 1,
      "price": "2106000000000000000000",
      "reserved": "",
      "assetIds": [
        "55464657044963196816950587289035428064568320970692304673817341489687455367178",
        "55464657044963196816950587289035428064568320970692304673817341489687455367171",
        "55464657044963196816950587289035428064568320970692304673817341489687455367169",
        "55464657044963196816950587289035428064568320970692304673817341489687455367168"
      ]
    },
    {
      "x": 77,
      "y": 172,
      "size": 1,
      "price": "2106000000000000000000",
      "reserved": "",
      "assetIds": [
        "55464657044963196816950587289035428064568320970692304673817341489687455367183",
        "55464657044963196816950587289035428064568320970692304673817341489687455367171",
        "55464657044963196816950587289035428064568320970692304673817341489687455367169",
        "55464657044963196816950587289035428064568320970692304673817341489687455367168"
      ]
    },
    {
      "x": 77,
      "y": 173,
      "size": 1,
      "price": "2106000000000000000000",
      "reserved": "",
      "assetIds": [
        "55464657044963196816950587289035428064568320970692304673817341489687455367177",
        "55464657044963196816950587289035428064568320970692304673817341489687455367170",
        "55464657044963196816950587289035428064568320970692304673817341489687455367169",
        "55464657044963196816950587289035428064568320970692304673817341489687455367168"
      ]
    },
    {
      "x": 78,
      "y": 173,
      "size": 1,
      "price": "2106000000000000000000",
      "reserved": "",
      "assetIds": [
        "55464657044963196816950587289035428064568320970692304673817341489687455367183",
        "55464657044963196816950587289035428064568320970692304673817341489687455367171",
        "55464657044963196816950587289035428064568320970692304673817341489687455367169",
        "55464657044963196816950587289035428064568320970692304673817341489687455367168"
      ]
    },
    {
      "x": 78,
      "y": 174,
      "size": 1,
      "price": "2106000000000000000000",
      "reserved": "",
      "assetIds": [
        "55464657044963196816950587289035428064568320970692304673817341489687455367177",
        "55464657044963196816950587289035428064568320970692304673817341489687455367170",
        "55464657044963196816950587289035428064568320970692304673817341489687455367169",
        "55464657044963196816950587289035428064568320970692304673817341489687455367168"
      ]
    },
    {
      "x": 77,
      "y": 174,
      "size": 1,
      "price": "2106000000000000000000",
      "reserved": "",
      "assetIds": [
        "55464657044963196816950587289035428064568320970692304673817341489687455367174",
        "55464657044963196816950587289035428064568320970692304673817341489687455367170",
        "55464657044963196816950587289035428064568320970692304673817341489687455367169",
        "55464657044963196816950587289035428064568320970692304673817341489687455367168"
      ]
    },
    {
      "x": 77,
      "y": 175,
      "size": 1,
      "price": "2106000000000000000000",
      "reserved": "",
      "assetIds": [
        "55464657044963196816950587289035428064568320970692304673817341489687455367178",
        "55464657044963196816950587289035428064568320970692304673817341489687455367171",
        "55464657044963196816950587289035428064568320970692304673817341489687455367169",
        "55464657044963196816950587289035428064568320970692304673817341489687455367168"
      ]
    },
    {
      "x": 76,
      "y": 175,
      "size": 1,
      "price": "2106000000000000000000",
      "reserved": "",
      "assetIds": [
        "55464657044963196816950587289035428064568320970692304673817341489687455367183",
        "55464657044963196816950587289035428064568320970692304673817341489687455367171",
        "55464657044963196816950587289035428064568320970692304673817341489687455367169",
        "55464657044963196816950587289035428064568320970692304673817341489687455367168"
      ]
    },
    {
      "x": 76,
      "y": 176,
      "size": 1,
      "price": "2106000000000000000000",
      "reserved": "",
      "assetIds": [
        "55464657044963196816950587289035428064568320970692304673817341489687455367173",
        "55464657044963196816950587289035428064568320970692304673817341489687455367170",
        "55464657044963196816950587289035428064568320970692304673817341489687455367169",
        "55464657044963196816950587289035428064568320970692304673817341489687455367168"
      ]
    },
    {
      "x": 76,
      "y": 178,
      "size": 1,
      "price": "2106000000000000000000",
      "reserved": "",
      "assetIds": [
        "55464657044963196816950587289035428064568320970692304673817341489687455367181",
        "55464657044963196816950587289035428064568320970692304673817341489687455367171",
        "55464657044963196816950587289035428064568320970692304673817341489687455367169",
        "55464657044963196816950587289035428064568320970692304673817341489687455367168"
      ]
    },
    {
      "x": 76,
      "y": 177,
      "size": 1,
      "price": "2106000000000000000000",
      "reserved": "",
      "assetIds": [
        "55464657044963196816950587289035428064568320970692304673817341489687455367172",
        "55464657044963196816950587289035428064568320970692304673817341489687455367170",
        "55464657044963196816950587289035428064568320970692304673817341489687455367169",
        "55464657044963196816950587289035428064568320970692304673817341489687455367168"
      ]
    },
    {
      "x": 77,
      "y": 178,
      "size": 1,
      "price": "2106000000000000000000",
      "reserved": "",
      "assetIds": [
        "55464657044963196816950587289035428064568320970692304673817341489687455367180",
        "55464657044963196816950587289035428064568320970692304673817341489687455367171",
        "55464657044963196816950587289035428064568320970692304673817341489687455367169",
        "55464657044963196816950587289035428064568320970692304673817341489687455367168"
      ]
    },
    {
      "x": 77,
      "y": 179,
      "size": 1,
      "price": "2106000000000000000000",
      "reserved": "",
      "assetIds": [
        "55464657044963196816950587289035428064568320970692304673817341489687455367176",
        "55464657044963196816950587289035428064568320970692304673817341489687455367170",
        "55464657044963196816950587289035428064568320970692304673817341489687455367169",
        "55464657044963196816950587289035428064568320970692304673817341489687455367168"
      ]
    },
    {
      "x": 77,
      "y": 180,
      "size": 1,
      "price": "2106000000000000000000",
      "reserved": "",
      "assetIds": [
        "55464657044963196816950587289035428064568320970692304673817341489687455367183",
        "55464657044963196816950587289035428064568320970692304673817341489687455367171",
        "55464657044963196816950587289035428064568320970692304673817341489687455367169",
        "55464657044963196816950587289035428064568320970692304673817341489687455367168"
      ]
    },
    {
      "x": 77,
      "y": 181,
      "size": 1,
      "price": "2106000000000000000000",
      "reserved": "",
      "assetIds": [
        "55464657044963196816950587289035428064568320970692304673817341489687455367175",
        "55464657044963196816950587289035428064568320970692304673817341489687455367170",
        "55464657044963196816950587289035428064568320970692304673817341489687455367169",
        "55464657044963196816950587289035428064568320970692304673817341489687455367168"
      ]
    },
    {
      "x": 78,
      "y": 181,
      "size": 1,
      "price": "2106000000000000000000",
      "reserved": "",
      "assetIds": [
        "55464657044963196816950587289035428064568320970692304673817341489687455367182",
        "55464657044963196816950587289035428064568320970692304673817341489687455367171",
        "55464657044963196816950587289035428064568320970692304673817341489687455367169",
        "55464657044963196816950587289035428064568320970692304673817341489687455367168"
      ]
    },
    {
      "x": 78,
      "y": 182,
      "size": 1,
      "price": "2106000000000000000000",
      "reserved": "",
      "assetIds": [
        "55464657044963196816950587289035428064568320970692304673817341489687455367177",
        "55464657044963196816950587289035428064568320970692304673817341489687455367170",
        "55464657044963196816950587289035428064568320970692304673817341489687455367169",
        "55464657044963196816950587289035428064568320970692304673817341489687455367168"
      ]
    },
    {
      "x": 79,
      "y": 183,
      "size": 1,
      "price": "2106000000000000000000",
      "reserved": "",
      "assetIds": [
        "55464657044963196816950587289035428064568320970692304673817341489687455367181",
        "55464657044963196816950587289035428064568320970692304673817341489687455367171",
        "55464657044963196816950587289035428064568320970692304673817341489687455367169",
        "55464657044963196816950587289035428064568320970692304673817341489687455367168"
      ]
    },
    {
      "x": 79,
      "y": 184,
      "size": 1,
      "price": "2106000000000000000000",
      "reserved": "",
      "assetIds": [
        "55464657044963196816950587289035428064568320970692304673817341489687455367179",
        "55464657044963196816950587289035428064568320970692304673817341489687455367171",
        "55464657044963196816950587289035428064568320970692304673817341489687455367169",
        "55464657044963196816950587289035428064568320970692304673817341489687455367168"
      ]
    },
    {
      "x": 78,
      "y": 184,
      "size": 1,
      "price": "2106000000000000000000",
      "reserved": "",
      "assetIds": [
        "55464657044963196816950587289035428064568320970692304673817341489687455367180",
        "55464657044963196816950587289035428064568320970692304673817341489687455367171",
        "55464657044963196816950587289035428064568320970692304673817341489687455367169",
        "55464657044963196816950587289035428064568320970692304673817341489687455367168"
      ]
    },
    {
      "x": 78,
      "y": 183,
      "size": 1,
      "price": "2106000000000000000000",
      "reserved": "",
      "assetIds": [
        "55464657044963196816950587289035428064568320970692304673817341489687455367174",
        "55464657044963196816950587289035428064568320970692304673817341489687455367170",
        "55464657044963196816950587289035428064568320970692304673817341489687455367169",
        "55464657044963196816950587289035428064568320970692304673817341489687455367168"
      ]
    },
    {
      "x": 78,
      "y": 185,
      "size": 1,
      "price": "2106000000000000000000",
      "reserved": "",
      "assetIds": [
        "55464657044963196816950587289035428064568320970692304673817341489687455367179",
        "55464657044963196816950587289035428064568320970692304673817341489687455367171",
        "55464657044963196816950587289035428064568320970692304673817341489687455367169",
        "55464657044963196816950587289035428064568320970692304673817341489687455367168"
      ]
    },
    {
      "x": 79,
      "y": 185,
      "size": 1,
      "price": "2106000000000000000000",
      "reserved": "",
      "assetIds": [
        "55464657044963196816950587289035428064568320970692304673817341489687455367178",
        "55464657044963196816950587289035428064568320970692304673817341489687455367171",
        "55464657044963196816950587289035428064568320970692304673817341489687455367169",
        "55464657044963196816950587289035428064568320970692304673817341489687455367168"
      ]
    },
    {
      "x": 80,
      "y": 185,
      "size": 1,
      "price": "2106000000000000000000",
      "reserved": "",
      "assetIds": [
        "55464657044963196816950587289035428064568320970692304673817341489687455367178",
        "55464657044963196816950587289035428064568320970692304673817341489687455367171",
        "55464657044963196816950587289035428064568320970692304673817341489687455367169",
        "55464657044963196816950587289035428064568320970692304673817341489687455367168"
      ]
    },
    {
      "x": 80,
      "y": 186,
      "size": 1,
      "price": "2106000000000000000000",
      "reserved": "",
      "assetIds": [
        "55464657044963196816950587289035428064568320970692304673817341489687455367180",
        "55464657044963196816950587289035428064568320970692304673817341489687455367171",
        "55464657044963196816950587289035428064568320970692304673817341489687455367169",
        "55464657044963196816950587289035428064568320970692304673817341489687455367168"
      ]
    },
    {
      "x": 79,
      "y": 186,
      "size": 1,
      "price": "2106000000000000000000",
      "reserved": "",
      "assetIds": [
        "55464657044963196816950587289035428064568320970692304673817341489687455367183",
        "55464657044963196816950587289035428064568320970692304673817341489687455367171",
        "55464657044963196816950587289035428064568320970692304673817341489687455367169",
        "55464657044963196816950587289035428064568320970692304673817341489687455367168"
      ]
    },
    {
      "x": 81,
      "y": 185,
      "size": 1,
      "price": "2106000000000000000000",
      "reserved": "",
      "assetIds": [
        "55464657044963196816950587289035428064568320970692304673817341489687455367181",
        "55464657044963196816950587289035428064568320970692304673817341489687455367171",
        "55464657044963196816950587289035428064568320970692304673817341489687455367169",
        "55464657044963196816950587289035428064568320970692304673817341489687455367168"
      ]
    },
    {
      "x": 82,
      "y": 185,
      "size": 1,
      "price": "2106000000000000000000",
      "reserved": "",
      "assetIds": [
        "55464657044963196816950587289035428064568320970692304673817341489687455367181",
        "55464657044963196816950587289035428064568320970692304673817341489687455367171",
        "55464657044963196816950587289035428064568320970692304673817341489687455367169",
        "55464657044963196816950587289035428064568320970692304673817341489687455367168"
      ]
    },
    {
      "x": 83,
      "y": 185,
      "size": 1,
      "price": "2106000000000000000000",
      "reserved": "",
      "assetIds": [
        "55464657044963196816950587289035428064568320970692304673817341489687455367181",
        "55464657044963196816950587289035428064568320970692304673817341489687455367171",
        "55464657044963196816950587289035428064568320970692304673817341489687455367169",
        "55464657044963196816950587289035428064568320970692304673817341489687455367168"
      ]
    },
    {
      "x": 84,
      "y": 185,
      "size": 1,
      "price": "2106000000000000000000",
      "reserved": "",
      "assetIds": [
        "55464657044963196816950587289035428064568320970692304673817341489687455367176",
        "55464657044963196816950587289035428064568320970692304673817341489687455367170",
        "55464657044963196816950587289035428064568320970692304673817341489687455367169",
        "55464657044963196816950587289035428064568320970692304673817341489687455367168"
      ]
    },
    {
      "x": 84,
      "y": 186,
      "size": 1,
      "price": "2106000000000000000000",
      "reserved": "",
      "assetIds": [
        "55464657044963196816950587289035428064568320970692304673817341489687455367182",
        "55464657044963196816950587289035428064568320970692304673817341489687455367171",
        "55464657044963196816950587289035428064568320970692304673817341489687455367169",
        "55464657044963196816950587289035428064568320970692304673817341489687455367168"
      ]
    },
    {
      "x": 85,
      "y": 186,
      "size": 1,
      "price": "2106000000000000000000",
      "reserved": "",
      "assetIds": [
        "55464657044963196816950587289035428064568320970692304673817341489687455367172",
        "55464657044963196816950587289035428064568320970692304673817341489687455367170",
        "55464657044963196816950587289035428064568320970692304673817341489687455367169",
        "55464657044963196816950587289035428064568320970692304673817341489687455367168"
      ]
    },
    {
      "x": 85,
      "y": 187,
      "size": 1,
      "price": "2106000000000000000000",
      "reserved": "",
      "assetIds": [
        "55464657044963196816950587289035428064568320970692304673817341489687455367173",
        "55464657044963196816950587289035428064568320970692304673817341489687455367170",
        "55464657044963196816950587289035428064568320970692304673817341489687455367169",
        "55464657044963196816950587289035428064568320970692304673817341489687455367168"
      ]
    },
    {
      "x": 86,
      "y": 187,
      "size": 1,
      "price": "2106000000000000000000",
      "reserved": "",
      "assetIds": [
        "55464657044963196816950587289035428064568320970692304673817341489687455367174",
        "55464657044963196816950587289035428064568320970692304673817341489687455367170",
        "55464657044963196816950587289035428064568320970692304673817341489687455367169",
        "55464657044963196816950587289035428064568320970692304673817341489687455367168"
      ]
    },
    {
      "x": 82,
      "y": 163,
      "size": 1,
      "price": "2106000000000000000000",
      "reserved": "",
      "assetIds": [
        "55464657044963196816950587289035428064568320970692304673817341489687455367179",
        "55464657044963196816950587289035428064568320970692304673817341489687455367171",
        "55464657044963196816950587289035428064568320970692304673817341489687455367169",
        "55464657044963196816950587289035428064568320970692304673817341489687455367168"
      ]
    },
    {
      "x": 80,
      "y": 163,
      "size": 1,
      "price": "2106000000000000000000",
      "reserved": "",
      "assetIds": [
        "55464657044963196816950587289035428064568320970692304673817341489687455367183",
        "55464657044963196816950587289035428064568320970692304673817341489687455367171",
        "55464657044963196816950587289035428064568320970692304673817341489687455367169",
        "55464657044963196816950587289035428064568320970692304673817341489687455367168"
      ]
    },
    {
      "x": 79,
      "y": 162,
      "size": 1,
      "price": "2106000000000000000000",
      "reserved": "",
      "assetIds": [
        "55464657044963196816950587289035428064568320970692304673817341489687455367176",
        "55464657044963196816950587289035428064568320970692304673817341489687455367170",
        "55464657044963196816950587289035428064568320970692304673817341489687455367169",
        "55464657044963196816950587289035428064568320970692304673817341489687455367168"
      ]
    },
    {
      "x": 80,
      "y": 162,
      "size": 1,
      "price": "2106000000000000000000",
      "reserved": "",
      "assetIds": [
        "55464657044963196816950587289035428064568320970692304673817341489687455367178",
        "55464657044963196816950587289035428064568320970692304673817341489687455367171",
        "55464657044963196816950587289035428064568320970692304673817341489687455367169",
        "55464657044963196816950587289035428064568320970692304673817341489687455367168"
      ]
    },
    {
      "x": 81,
      "y": 162,
      "size": 1,
      "price": "2106000000000000000000",
      "reserved": "",
      "assetIds": [
        "55464657044963196816950587289035428064568320970692304673817341489687455367177",
        "55464657044963196816950587289035428064568320970692304673817341489687455367170",
        "55464657044963196816950587289035428064568320970692304673817341489687455367169",
        "55464657044963196816950587289035428064568320970692304673817341489687455367168"
      ]
    },
    {
      "x": 82,
      "y": 162,
      "size": 1,
      "price": "2106000000000000000000",
      "reserved": "",
      "assetIds": [
        "55464657044963196816950587289035428064568320970692304673817341489687455367179",
        "55464657044963196816950587289035428064568320970692304673817341489687455367171",
        "55464657044963196816950587289035428064568320970692304673817341489687455367169",
        "55464657044963196816950587289035428064568320970692304673817341489687455367168"
      ]
    },
    {
      "x": 83,
      "y": 162,
      "size": 1,
      "price": "2106000000000000000000",
      "reserved": "",
      "assetIds": [
        "55464657044963196816950587289035428064568320970692304673817341489687455367178",
        "55464657044963196816950587289035428064568320970692304673817341489687455367171",
        "55464657044963196816950587289035428064568320970692304673817341489687455367169",
        "55464657044963196816950587289035428064568320970692304673817341489687455367168"
      ]
    },
    {
      "x": 85,
      "y": 162,
      "size": 1,
      "price": "2106000000000000000000",
      "reserved": "",
      "assetIds": [
        "55464657044963196816950587289035428064568320970692304673817341489687455367180",
        "55464657044963196816950587289035428064568320970692304673817341489687455367171",
        "55464657044963196816950587289035428064568320970692304673817341489687455367169",
        "55464657044963196816950587289035428064568320970692304673817341489687455367168"
      ]
    },
    {
      "x": 86,
      "y": 162,
      "size": 1,
      "price": "2106000000000000000000",
      "reserved": "",
      "assetIds": [
        "55464657044963196816950587289035428064568320970692304673817341489687455367179",
        "55464657044963196816950587289035428064568320970692304673817341489687455367171",
        "55464657044963196816950587289035428064568320970692304673817341489687455367169",
        "55464657044963196816950587289035428064568320970692304673817341489687455367168"
      ]
    },
    {
      "x": 87,
      "y": 162,
      "size": 1,
      "price": "2106000000000000000000",
      "reserved": "",
      "assetIds": [
        "55464657044963196816950587289035428064568320970692304673817341489687455367180",
        "55464657044963196816950587289035428064568320970692304673817341489687455367171",
        "55464657044963196816950587289035428064568320970692304673817341489687455367169",
        "55464657044963196816950587289035428064568320970692304673817341489687455367168"
      ]
    },
    {
      "x": 87,
      "y": 161,
      "size": 1,
      "price": "2106000000000000000000",
      "reserved": "",
      "assetIds": [
        "55464657044963196816950587289035428064568320970692304673817341489687455367175",
        "55464657044963196816950587289035428064568320970692304673817341489687455367170",
        "55464657044963196816950587289035428064568320970692304673817341489687455367169",
        "55464657044963196816950587289035428064568320970692304673817341489687455367168"
      ]
    },
    {
      "x": 88,
      "y": 161,
      "size": 1,
      "price": "2106000000000000000000",
      "reserved": "",
      "assetIds": [
        "55464657044963196816950587289035428064568320970692304673817341489687455367182",
        "55464657044963196816950587289035428064568320970692304673817341489687455367171",
        "55464657044963196816950587289035428064568320970692304673817341489687455367169",
        "55464657044963196816950587289035428064568320970692304673817341489687455367168"
      ]
    },
    {
      "x": 89,
      "y": 161,
      "size": 1,
      "price": "2106000000000000000000",
      "reserved": "",
      "assetIds": [
        "55464657044963196816950587289035428064568320970692304673817341489687455367180",
        "55464657044963196816950587289035428064568320970692304673817341489687455367171",
        "55464657044963196816950587289035428064568320970692304673817341489687455367169",
        "55464657044963196816950587289035428064568320970692304673817341489687455367168"
      ]
    },
    {
      "x": 91,
      "y": 161,
      "size": 1,
      "price": "2106000000000000000000",
      "reserved": "",
      "assetIds": [
        "55464657044963196816950587289035428064568320970692304673817341489687455367179",
        "55464657044963196816950587289035428064568320970692304673817341489687455367171",
        "55464657044963196816950587289035428064568320970692304673817341489687455367169",
        "55464657044963196816950587289035428064568320970692304673817341489687455367168"
      ]
    },
    {
      "x": 90,
      "y": 162,
      "size": 1,
      "price": "2106000000000000000000",
      "reserved": "",
      "assetIds": [
        "55464657044963196816950587289035428064568320970692304673817341489687455367183",
        "55464657044963196816950587289035428064568320970692304673817341489687455367171",
        "55464657044963196816950587289035428064568320970692304673817341489687455367169",
        "55464657044963196816950587289035428064568320970692304673817341489687455367168"
      ]
    },
    {
      "x": 89,
      "y": 162,
      "size": 1,
      "price": "2106000000000000000000",
      "reserved": "",
      "assetIds": [
        "55464657044963196816950587289035428064568320970692304673817341489687455367176",
        "55464657044963196816950587289035428064568320970692304673817341489687455367170",
        "55464657044963196816950587289035428064568320970692304673817341489687455367169",
        "55464657044963196816950587289035428064568320970692304673817341489687455367168"
      ]
    },
    {
      "x": 88,
      "y": 162,
      "size": 1,
      "price": "2106000000000000000000",
      "reserved": "",
      "assetIds": [
        "55464657044963196816950587289035428064568320970692304673817341489687455367181",
        "55464657044963196816950587289035428064568320970692304673817341489687455367171",
        "55464657044963196816950587289035428064568320970692304673817341489687455367169",
        "55464657044963196816950587289035428064568320970692304673817341489687455367168"
      ]
    },
    {
      "x": 86,
      "y": 161,
      "size": 1,
      "price": "2106000000000000000000",
      "reserved": "",
      "assetIds": [
        "55464657044963196816950587289035428064568320970692304673817341489687455367178",
        "55464657044963196816950587289035428064568320970692304673817341489687455367171",
        "55464657044963196816950587289035428064568320970692304673817341489687455367169",
        "55464657044963196816950587289035428064568320970692304673817341489687455367168"
      ]
    },
    {
      "x": 85,
      "y": 161,
      "size": 1,
      "price": "2106000000000000000000",
      "reserved": "",
      "assetIds": [
        "55464657044963196816950587289035428064568320970692304673817341489687455367180",
        "55464657044963196816950587289035428064568320970692304673817341489687455367171",
        "55464657044963196816950587289035428064568320970692304673817341489687455367169",
        "55464657044963196816950587289035428064568320970692304673817341489687455367168"
      ]
    },
    {
      "x": 84,
      "y": 161,
      "size": 1,
      "price": "2106000000000000000000",
      "reserved": "",
      "assetIds": [
        "55464657044963196816950587289035428064568320970692304673817341489687455367177",
        "55464657044963196816950587289035428064568320970692304673817341489687455367170",
        "55464657044963196816950587289035428064568320970692304673817341489687455367169",
        "55464657044963196816950587289035428064568320970692304673817341489687455367168"
      ]
    },
    {
      "x": 85,
      "y": 163,
      "size": 1,
      "price": "2106000000000000000000",
      "reserved": "",
      "assetIds": [
        "55464657044963196816950587289035428064568320970692304673817341489687455367176",
        "55464657044963196816950587289035428064568320970692304673817341489687455367170",
        "55464657044963196816950587289035428064568320970692304673817341489687455367169",
        "55464657044963196816950587289035428064568320970692304673817341489687455367168"
      ]
    },
    {
      "x": 86,
      "y": 163,
      "size": 1,
      "price": "2106000000000000000000",
      "reserved": "",
      "assetIds": [
        "55464657044963196816950587289035428064568320970692304673817341489687455367179",
        "55464657044963196816950587289035428064568320970692304673817341489687455367171",
        "55464657044963196816950587289035428064568320970692304673817341489687455367169",
        "55464657044963196816950587289035428064568320970692304673817341489687455367168"
      ]
    },
    {
      "x": 87,
      "y": 163,
      "size": 1,
      "price": "2106000000000000000000",
      "reserved": "",
      "assetIds": [
        "55464657044963196816950587289035428064568320970692304673817341489687455367176",
        "55464657044963196816950587289035428064568320970692304673817341489687455367170",
        "55464657044963196816950587289035428064568320970692304673817341489687455367169",
        "55464657044963196816950587289035428064568320970692304673817341489687455367168"
      ]
    },
    {
      "x": 88,
      "y": 163,
      "size": 1,
      "price": "2106000000000000000000",
      "reserved": "",
      "assetIds": [
        "55464657044963196816950587289035428064568320970692304673817341489687455367172",
        "55464657044963196816950587289035428064568320970692304673817341489687455367170",
        "55464657044963196816950587289035428064568320970692304673817341489687455367169",
        "55464657044963196816950587289035428064568320970692304673817341489687455367168"
      ]
    },
    {
      "x": 90,
      "y": 163,
      "size": 1,
      "price": "2106000000000000000000",
      "reserved": "",
      "assetIds": [
        "55464657044963196816950587289035428064568320970692304673817341489687455367177",
        "55464657044963196816950587289035428064568320970692304673817341489687455367170",
        "55464657044963196816950587289035428064568320970692304673817341489687455367169",
        "55464657044963196816950587289035428064568320970692304673817341489687455367168"
      ]
    },
    {
      "x": 91,
      "y": 162,
      "size": 1,
      "price": "2106000000000000000000",
      "reserved": "",
      "assetIds": [
        "55464657044963196816950587289035428064568320970692304673817341489687455367177",
        "55464657044963196816950587289035428064568320970692304673817341489687455367170",
        "55464657044963196816950587289035428064568320970692304673817341489687455367169",
        "55464657044963196816950587289035428064568320970692304673817341489687455367168"
      ]
    },
    {
      "x": 92,
      "y": 161,
      "size": 1,
      "price": "2106000000000000000000",
      "reserved": "",
      "assetIds": [
        "55464657044963196816950587289035428064568320970692304673817341489687455367179",
        "55464657044963196816950587289035428064568320970692304673817341489687455367171",
        "55464657044963196816950587289035428064568320970692304673817341489687455367169",
        "55464657044963196816950587289035428064568320970692304673817341489687455367168"
      ]
    },
    {
      "x": 93,
      "y": 161,
      "size": 1,
      "price": "2106000000000000000000",
      "reserved": "",
      "assetIds": [
        "55464657044963196816950587289035428064568320970692304673817341489687455367173",
        "55464657044963196816950587289035428064568320970692304673817341489687455367170",
        "55464657044963196816950587289035428064568320970692304673817341489687455367169",
        "55464657044963196816950587289035428064568320970692304673817341489687455367168"
      ]
    },
    {
      "x": 94,
      "y": 161,
      "size": 1,
      "price": "2106000000000000000000",
      "reserved": "",
      "assetIds": [
        "55464657044963196816950587289035428064568320970692304673817341489687455367178",
        "55464657044963196816950587289035428064568320970692304673817341489687455367171",
        "55464657044963196816950587289035428064568320970692304673817341489687455367169",
        "55464657044963196816950587289035428064568320970692304673817341489687455367168"
      ]
    },
    {
      "x": 95,
      "y": 161,
      "size": 1,
      "price": "2106000000000000000000",
      "reserved": "",
      "assetIds": [
        "55464657044963196816950587289035428064568320970692304673817341489687455367172",
        "55464657044963196816950587289035428064568320970692304673817341489687455367170",
        "55464657044963196816950587289035428064568320970692304673817341489687455367169",
        "55464657044963196816950587289035428064568320970692304673817341489687455367168"
      ]
    },
    {
      "x": 94,
      "y": 162,
      "size": 1,
      "price": "2106000000000000000000",
      "reserved": "",
      "assetIds": [
        "55464657044963196816950587289035428064568320970692304673817341489687455367174",
        "55464657044963196816950587289035428064568320970692304673817341489687455367170",
        "55464657044963196816950587289035428064568320970692304673817341489687455367169",
        "55464657044963196816950587289035428064568320970692304673817341489687455367168"
      ]
    },
    {
      "x": 93,
      "y": 162,
      "size": 1,
      "price": "2106000000000000000000",
      "reserved": "",
      "assetIds": [
        "55464657044963196816950587289035428064568320970692304673817341489687455367182",
        "55464657044963196816950587289035428064568320970692304673817341489687455367171",
        "55464657044963196816950587289035428064568320970692304673817341489687455367169",
        "55464657044963196816950587289035428064568320970692304673817341489687455367168"
      ]
    },
    {
      "x": 93,
      "y": 163,
      "size": 1,
      "price": "2106000000000000000000",
      "reserved": "",
      "assetIds": [
        "55464657044963196816950587289035428064568320970692304673817341489687455367179",
        "55464657044963196816950587289035428064568320970692304673817341489687455367171",
        "55464657044963196816950587289035428064568320970692304673817341489687455367169",
        "55464657044963196816950587289035428064568320970692304673817341489687455367168"
      ]
    },
    {
      "x": 92,
      "y": 162,
      "size": 1,
      "price": "2106000000000000000000",
      "reserved": "",
      "assetIds": [
        "55464657044963196816950587289035428064568320970692304673817341489687455367181",
        "55464657044963196816950587289035428064568320970692304673817341489687455367171",
        "55464657044963196816950587289035428064568320970692304673817341489687455367169",
        "55464657044963196816950587289035428064568320970692304673817341489687455367168"
      ]
    },
    {
      "x": 91,
      "y": 163,
      "size": 1,
      "price": "2106000000000000000000",
      "reserved": "",
      "assetIds": [
        "55464657044963196816950587289035428064568320970692304673817341489687455367173",
        "55464657044963196816950587289035428064568320970692304673817341489687455367170",
        "55464657044963196816950587289035428064568320970692304673817341489687455367169",
        "55464657044963196816950587289035428064568320970692304673817341489687455367168"
      ]
    },
    {
      "x": 92,
      "y": 164,
      "size": 1,
      "price": "2106000000000000000000",
      "reserved": "",
      "assetIds": [
        "55464657044963196816950587289035428064568320970692304673817341489687455367177",
        "55464657044963196816950587289035428064568320970692304673817341489687455367170",
        "55464657044963196816950587289035428064568320970692304673817341489687455367169",
        "55464657044963196816950587289035428064568320970692304673817341489687455367168"
      ]
    },
    {
      "x": 93,
      "y": 164,
      "size": 1,
      "price": "2106000000000000000000",
      "reserved": "",
      "assetIds": [
        "55464657044963196816950587289035428064568320970692304673817341489687455367180",
        "55464657044963196816950587289035428064568320970692304673817341489687455367171",
        "55464657044963196816950587289035428064568320970692304673817341489687455367169",
        "55464657044963196816950587289035428064568320970692304673817341489687455367168"
      ]
    },
    {
      "x": 94,
      "y": 164,
      "size": 1,
      "price": "2106000000000000000000",
      "reserved": "",
      "assetIds": [
        "55464657044963196816950587289035428064568320970692304673817341489687455367179",
        "55464657044963196816950587289035428064568320970692304673817341489687455367171",
        "55464657044963196816950587289035428064568320970692304673817341489687455367169",
        "55464657044963196816950587289035428064568320970692304673817341489687455367168"
      ]
    },
    {
      "x": 94,
      "y": 163,
      "size": 1,
      "price": "2106000000000000000000",
      "reserved": "",
      "assetIds": [
        "55464657044963196816950587289035428064568320970692304673817341489687455367173",
        "55464657044963196816950587289035428064568320970692304673817341489687455367170",
        "55464657044963196816950587289035428064568320970692304673817341489687455367169",
        "55464657044963196816950587289035428064568320970692304673817341489687455367168"
      ]
    },
    {
      "x": 95,
      "y": 163,
      "size": 1,
      "price": "2106000000000000000000",
      "reserved": "",
      "assetIds": [
        "55464657044963196816950587289035428064568320970692304673817341489687455367180",
        "55464657044963196816950587289035428064568320970692304673817341489687455367171",
        "55464657044963196816950587289035428064568320970692304673817341489687455367169",
        "55464657044963196816950587289035428064568320970692304673817341489687455367168"
      ]
    },
    {
      "x": 96,
      "y": 163,
      "size": 1,
      "price": "2106000000000000000000",
      "reserved": "",
      "assetIds": [
        "55464657044963196816950587289035428064568320970692304673817341489687455367178",
        "55464657044963196816950587289035428064568320970692304673817341489687455367171",
        "55464657044963196816950587289035428064568320970692304673817341489687455367169",
        "55464657044963196816950587289035428064568320970692304673817341489687455367168"
      ]
    },
    {
      "x": 97,
      "y": 164,
      "size": 1,
      "price": "2106000000000000000000",
      "reserved": "",
      "assetIds": [
        "55464657044963196816950587289035428064568320970692304673817341489687455367177",
        "55464657044963196816950587289035428064568320970692304673817341489687455367170",
        "55464657044963196816950587289035428064568320970692304673817341489687455367169",
        "55464657044963196816950587289035428064568320970692304673817341489687455367168"
      ]
    },
    {
      "x": 96,
      "y": 164,
      "size": 1,
      "price": "2106000000000000000000",
      "reserved": "",
      "assetIds": [
        "55464657044963196816950587289035428064568320970692304673817341489687455367176",
        "55464657044963196816950587289035428064568320970692304673817341489687455367170",
        "55464657044963196816950587289035428064568320970692304673817341489687455367169",
        "55464657044963196816950587289035428064568320970692304673817341489687455367168"
      ]
    },
    {
      "x": 95,
      "y": 164,
      "size": 1,
      "price": "2106000000000000000000",
      "reserved": "",
      "assetIds": [
        "55464657044963196816950587289035428064568320970692304673817341489687455367176",
        "55464657044963196816950587289035428064568320970692304673817341489687455367170",
        "55464657044963196816950587289035428064568320970692304673817341489687455367169",
        "55464657044963196816950587289035428064568320970692304673817341489687455367168"
      ]
    },
    {
      "x": 95,
      "y": 165,
      "size": 1,
      "price": "2106000000000000000000",
      "reserved": "",
      "assetIds": [
        "55464657044963196816950587289035428064568320970692304673817341489687455367176",
        "55464657044963196816950587289035428064568320970692304673817341489687455367170",
        "55464657044963196816950587289035428064568320970692304673817341489687455367169",
        "55464657044963196816950587289035428064568320970692304673817341489687455367168"
      ]
    },
    {
      "x": 96,
      "y": 165,
      "size": 1,
      "price": "2106000000000000000000",
      "reserved": "",
      "assetIds": [
        "55464657044963196816950587289035428064568320970692304673817341489687455367183",
        "55464657044963196816950587289035428064568320970692304673817341489687455367171",
        "55464657044963196816950587289035428064568320970692304673817341489687455367169",
        "55464657044963196816950587289035428064568320970692304673817341489687455367168"
      ]
    },
    {
      "x": 97,
      "y": 165,
      "size": 1,
      "price": "2106000000000000000000",
      "reserved": "",
      "assetIds": [
        "55464657044963196816950587289035428064568320970692304673817341489687455367183",
        "55464657044963196816950587289035428064568320970692304673817341489687455367171",
        "55464657044963196816950587289035428064568320970692304673817341489687455367169",
        "55464657044963196816950587289035428064568320970692304673817341489687455367168"
      ]
    },
    {
      "x": 98,
      "y": 165,
      "size": 1,
      "price": "2106000000000000000000",
      "reserved": "",
      "assetIds": [
        "55464657044963196816950587289035428064568320970692304673817341489687455367172",
        "55464657044963196816950587289035428064568320970692304673817341489687455367170",
        "55464657044963196816950587289035428064568320970692304673817341489687455367169",
        "55464657044963196816950587289035428064568320970692304673817341489687455367168"
      ]
    },
    {
      "x": 98,
      "y": 164,
      "size": 1,
      "price": "2106000000000000000000",
      "reserved": "",
      "assetIds": [
        "55464657044963196816950587289035428064568320970692304673817341489687455367175",
        "55464657044963196816950587289035428064568320970692304673817341489687455367170",
        "55464657044963196816950587289035428064568320970692304673817341489687455367169",
        "55464657044963196816950587289035428064568320970692304673817341489687455367168"
      ]
    },
    {
      "x": 100,
      "y": 165,
      "size": 1,
      "price": "2106000000000000000000",
      "reserved": "",
      "assetIds": [
        "55464657044963196816950587289035428064568320970692304673817341489687455367175",
        "55464657044963196816950587289035428064568320970692304673817341489687455367170",
        "55464657044963196816950587289035428064568320970692304673817341489687455367169",
        "55464657044963196816950587289035428064568320970692304673817341489687455367168"
      ]
    },
    {
      "x": 100,
      "y": 166,
      "size": 1,
      "price": "2106000000000000000000",
      "reserved": "",
      "assetIds": [
        "55464657044963196816950587289035428064568320970692304673817341489687455367181",
        "55464657044963196816950587289035428064568320970692304673817341489687455367171",
        "55464657044963196816950587289035428064568320970692304673817341489687455367169",
        "55464657044963196816950587289035428064568320970692304673817341489687455367168"
      ]
    },
    {
      "x": 100,
      "y": 167,
      "size": 1,
      "price": "2106000000000000000000",
      "reserved": "",
      "assetIds": [
        "55464657044963196816950587289035428064568320970692304673817341489687455367182",
        "55464657044963196816950587289035428064568320970692304673817341489687455367171",
        "55464657044963196816950587289035428064568320970692304673817341489687455367169",
        "55464657044963196816950587289035428064568320970692304673817341489687455367168"
      ]
    },
    {
      "x": 100,
      "y": 168,
      "size": 1,
      "price": "2106000000000000000000",
      "reserved": "",
      "assetIds": [
        "55464657044963196816950587289035428064568320970692304673817341489687455367181",
        "55464657044963196816950587289035428064568320970692304673817341489687455367171",
        "55464657044963196816950587289035428064568320970692304673817341489687455367169",
        "55464657044963196816950587289035428064568320970692304673817341489687455367168"
      ]
    },
    {
      "x": 100,
      "y": 169,
      "size": 1,
      "price": "2106000000000000000000",
      "reserved": "",
      "assetIds": [
        "55464657044963196816950587289035428064568320970692304673817341489687455367173",
        "55464657044963196816950587289035428064568320970692304673817341489687455367170",
        "55464657044963196816950587289035428064568320970692304673817341489687455367169",
        "55464657044963196816950587289035428064568320970692304673817341489687455367168"
      ]
    },
    {
      "x": 100,
      "y": 170,
      "size": 1,
      "price": "2106000000000000000000",
      "reserved": "",
      "assetIds": [
        "55464657044963196816950587289035428064568320970692304673817341489687455367183",
        "55464657044963196816950587289035428064568320970692304673817341489687455367171",
        "55464657044963196816950587289035428064568320970692304673817341489687455367169",
        "55464657044963196816950587289035428064568320970692304673817341489687455367168"
      ]
    },
    {
      "x": 100,
      "y": 171,
      "size": 1,
      "price": "2106000000000000000000",
      "reserved": "",
      "assetIds": [
        "55464657044963196816950587289035428064568320970692304673817341489687455367180",
        "55464657044963196816950587289035428064568320970692304673817341489687455367171",
        "55464657044963196816950587289035428064568320970692304673817341489687455367169",
        "55464657044963196816950587289035428064568320970692304673817341489687455367168"
      ]
    },
    {
      "x": 99,
      "y": 172,
      "size": 1,
      "price": "2106000000000000000000",
      "reserved": "",
      "assetIds": [
        "55464657044963196816950587289035428064568320970692304673817341489687455367177",
        "55464657044963196816950587289035428064568320970692304673817341489687455367170",
        "55464657044963196816950587289035428064568320970692304673817341489687455367169",
        "55464657044963196816950587289035428064568320970692304673817341489687455367168"
      ]
    },
    {
      "x": 99,
      "y": 173,
      "size": 1,
      "price": "2106000000000000000000",
      "reserved": "",
      "assetIds": [
        "55464657044963196816950587289035428064568320970692304673817341489687455367175",
        "55464657044963196816950587289035428064568320970692304673817341489687455367170",
        "55464657044963196816950587289035428064568320970692304673817341489687455367169",
        "55464657044963196816950587289035428064568320970692304673817341489687455367168"
      ]
    },
    {
      "x": 99,
      "y": 174,
      "size": 1,
      "price": "2106000000000000000000",
      "reserved": "",
      "assetIds": [
        "55464657044963196816950587289035428064568320970692304673817341489687455367180",
        "55464657044963196816950587289035428064568320970692304673817341489687455367171",
        "55464657044963196816950587289035428064568320970692304673817341489687455367169",
        "55464657044963196816950587289035428064568320970692304673817341489687455367168"
      ]
    },
    {
      "x": 98,
      "y": 174,
      "size": 1,
      "price": "2106000000000000000000",
      "reserved": "",
      "assetIds": [
        "55464657044963196816950587289035428064568320970692304673817341489687455367181",
        "55464657044963196816950587289035428064568320970692304673817341489687455367171",
        "55464657044963196816950587289035428064568320970692304673817341489687455367169",
        "55464657044963196816950587289035428064568320970692304673817341489687455367168"
      ]
    },
    {
      "x": 98,
      "y": 173,
      "size": 1,
      "price": "2106000000000000000000",
      "reserved": "",
      "assetIds": [
        "55464657044963196816950587289035428064568320970692304673817341489687455367182",
        "55464657044963196816950587289035428064568320970692304673817341489687455367171",
        "55464657044963196816950587289035428064568320970692304673817341489687455367169",
        "55464657044963196816950587289035428064568320970692304673817341489687455367168"
      ]
    },
    {
      "x": 98,
      "y": 172,
      "size": 1,
      "price": "2106000000000000000000",
      "reserved": "",
      "assetIds": [
        "55464657044963196816950587289035428064568320970692304673817341489687455367172",
        "55464657044963196816950587289035428064568320970692304673817341489687455367170",
        "55464657044963196816950587289035428064568320970692304673817341489687455367169",
        "55464657044963196816950587289035428064568320970692304673817341489687455367168"
      ]
    },
    {
      "x": 98,
      "y": 171,
      "size": 1,
      "price": "2106000000000000000000",
      "reserved": "",
      "assetIds": [
        "55464657044963196816950587289035428064568320970692304673817341489687455367174",
        "55464657044963196816950587289035428064568320970692304673817341489687455367170",
        "55464657044963196816950587289035428064568320970692304673817341489687455367169",
        "55464657044963196816950587289035428064568320970692304673817341489687455367168"
      ]
    },
    {
      "x": 98,
      "y": 170,
      "size": 1,
      "price": "2106000000000000000000",
      "reserved": "",
      "assetIds": [
        "55464657044963196816950587289035428064568320970692304673817341489687455367175",
        "55464657044963196816950587289035428064568320970692304673817341489687455367170",
        "55464657044963196816950587289035428064568320970692304673817341489687455367169",
        "55464657044963196816950587289035428064568320970692304673817341489687455367168"
      ]
    },
    {
      "x": 98,
      "y": 169,
      "size": 1,
      "price": "2106000000000000000000",
      "reserved": "",
      "assetIds": [
        "55464657044963196816950587289035428064568320970692304673817341489687455367172",
        "55464657044963196816950587289035428064568320970692304673817341489687455367170",
        "55464657044963196816950587289035428064568320970692304673817341489687455367169",
        "55464657044963196816950587289035428064568320970692304673817341489687455367168"
      ]
    },
    {
      "x": 99,
      "y": 169,
      "size": 1,
      "price": "2106000000000000000000",
      "reserved": "",
      "assetIds": [
        "55464657044963196816950587289035428064568320970692304673817341489687455367179",
        "55464657044963196816950587289035428064568320970692304673817341489687455367171",
        "55464657044963196816950587289035428064568320970692304673817341489687455367169",
        "55464657044963196816950587289035428064568320970692304673817341489687455367168"
      ]
    },
    {
      "x": 99,
      "y": 168,
      "size": 1,
      "price": "2106000000000000000000",
      "reserved": "",
      "assetIds": [
        "55464657044963196816950587289035428064568320970692304673817341489687455367183",
        "55464657044963196816950587289035428064568320970692304673817341489687455367171",
        "55464657044963196816950587289035428064568320970692304673817341489687455367169",
        "55464657044963196816950587289035428064568320970692304673817341489687455367168"
      ]
    },
    {
      "x": 99,
      "y": 167,
      "size": 1,
      "price": "2106000000000000000000",
      "reserved": "",
      "assetIds": [
        "55464657044963196816950587289035428064568320970692304673817341489687455367173",
        "55464657044963196816950587289035428064568320970692304673817341489687455367170",
        "55464657044963196816950587289035428064568320970692304673817341489687455367169",
        "55464657044963196816950587289035428064568320970692304673817341489687455367168"
      ]
    },
    {
      "x": 99,
      "y": 166,
      "size": 1,
      "price": "2106000000000000000000",
      "reserved": "",
      "assetIds": [
        "55464657044963196816950587289035428064568320970692304673817341489687455367175",
        "55464657044963196816950587289035428064568320970692304673817341489687455367170",
        "55464657044963196816950587289035428064568320970692304673817341489687455367169",
        "55464657044963196816950587289035428064568320970692304673817341489687455367168"
      ]
    },
    {
      "x": 100,
      "y": 164,
      "size": 1,
      "price": "2106000000000000000000",
      "reserved": "",
      "assetIds": [
        "55464657044963196816950587289035428064568320970692304673817341489687455367172",
        "55464657044963196816950587289035428064568320970692304673817341489687455367170",
        "55464657044963196816950587289035428064568320970692304673817341489687455367169",
        "55464657044963196816950587289035428064568320970692304673817341489687455367168"
      ]
    },
    {
      "x": 101,
      "y": 167,
      "size": 1,
      "price": "2106000000000000000000",
      "reserved": "",
      "assetIds": [
        "55464657044963196816950587289035428064568320970692304673817341489687455367176",
        "55464657044963196816950587289035428064568320970692304673817341489687455367170",
        "55464657044963196816950587289035428064568320970692304673817341489687455367169",
        "55464657044963196816950587289035428064568320970692304673817341489687455367168"
      ]
    },
    {
      "x": 101,
      "y": 166,
      "size": 1,
      "price": "2106000000000000000000",
      "reserved": "",
      "assetIds": [
        "55464657044963196816950587289035428064568320970692304673817341489687455367182",
        "55464657044963196816950587289035428064568320970692304673817341489687455367171",
        "55464657044963196816950587289035428064568320970692304673817341489687455367169",
        "55464657044963196816950587289035428064568320970692304673817341489687455367168"
      ]
    },
    {
      "x": 101,
      "y": 169,
      "size": 1,
      "price": "2106000000000000000000",
      "reserved": "",
      "assetIds": [
        "55464657044963196816950587289035428064568320970692304673817341489687455367176",
        "55464657044963196816950587289035428064568320970692304673817341489687455367170",
        "55464657044963196816950587289035428064568320970692304673817341489687455367169",
        "55464657044963196816950587289035428064568320970692304673817341489687455367168"
      ]
    },
    {
      "x": 101,
      "y": 171,
      "size": 1,
      "price": "2106000000000000000000",
      "reserved": "",
      "assetIds": [
        "55464657044963196816950587289035428064568320970692304673817341489687455367183",
        "55464657044963196816950587289035428064568320970692304673817341489687455367171",
        "55464657044963196816950587289035428064568320970692304673817341489687455367169",
        "55464657044963196816950587289035428064568320970692304673817341489687455367168"
      ]
    },
    {
      "x": 101,
      "y": 172,
      "size": 1,
      "price": "2106000000000000000000",
      "reserved": "",
      "assetIds": [
        "55464657044963196816950587289035428064568320970692304673817341489687455367174",
        "55464657044963196816950587289035428064568320970692304673817341489687455367170",
        "55464657044963196816950587289035428064568320970692304673817341489687455367169",
        "55464657044963196816950587289035428064568320970692304673817341489687455367168"
      ]
    },
    {
      "x": 102,
      "y": 172,
      "size": 1,
      "price": "2106000000000000000000",
      "reserved": "",
      "assetIds": [
        "55464657044963196816950587289035428064568320970692304673817341489687455367174",
        "55464657044963196816950587289035428064568320970692304673817341489687455367170",
        "55464657044963196816950587289035428064568320970692304673817341489687455367169",
        "55464657044963196816950587289035428064568320970692304673817341489687455367168"
      ]
    },
    {
      "x": 99,
      "y": 171,
      "size": 1,
      "price": "2106000000000000000000",
      "reserved": "",
      "assetIds": [
        "55464657044963196816950587289035428064568320970692304673817341489687455367180",
        "55464657044963196816950587289035428064568320970692304673817341489687455367171",
        "55464657044963196816950587289035428064568320970692304673817341489687455367169",
        "55464657044963196816950587289035428064568320970692304673817341489687455367168"
      ]
    },
    {
      "x": 99,
      "y": 170,
      "size": 1,
      "price": "2106000000000000000000",
      "reserved": "",
      "assetIds": [
        "55464657044963196816950587289035428064568320970692304673817341489687455367182",
        "55464657044963196816950587289035428064568320970692304673817341489687455367171",
        "55464657044963196816950587289035428064568320970692304673817341489687455367169",
        "55464657044963196816950587289035428064568320970692304673817341489687455367168"
      ]
    },
    {
      "x": 98,
      "y": 168,
      "size": 1,
      "price": "2106000000000000000000",
      "reserved": "",
      "assetIds": [
        "55464657044963196816950587289035428064568320970692304673817341489687455367177",
        "55464657044963196816950587289035428064568320970692304673817341489687455367170",
        "55464657044963196816950587289035428064568320970692304673817341489687455367169",
        "55464657044963196816950587289035428064568320970692304673817341489687455367168"
      ]
    },
    {
      "x": 98,
      "y": 167,
      "size": 1,
      "price": "2106000000000000000000",
      "reserved": "",
      "assetIds": [
        "55464657044963196816950587289035428064568320970692304673817341489687455367179",
        "55464657044963196816950587289035428064568320970692304673817341489687455367171",
        "55464657044963196816950587289035428064568320970692304673817341489687455367169",
        "55464657044963196816950587289035428064568320970692304673817341489687455367168"
      ]
    },
    {
      "x": 98,
      "y": 166,
      "size": 1,
      "price": "2106000000000000000000",
      "reserved": "",
      "assetIds": [
        "55464657044963196816950587289035428064568320970692304673817341489687455367180",
        "55464657044963196816950587289035428064568320970692304673817341489687455367171",
        "55464657044963196816950587289035428064568320970692304673817341489687455367169",
        "55464657044963196816950587289035428064568320970692304673817341489687455367168"
      ]
    },
    {
      "x": 97,
      "y": 166,
      "size": 1,
      "price": "2106000000000000000000",
      "reserved": "",
      "assetIds": [
        "55464657044963196816950587289035428064568320970692304673817341489687455367175",
        "55464657044963196816950587289035428064568320970692304673817341489687455367170",
        "55464657044963196816950587289035428064568320970692304673817341489687455367169",
        "55464657044963196816950587289035428064568320970692304673817341489687455367168"
      ]
    },
    {
      "x": 96,
      "y": 166,
      "size": 1,
      "price": "2106000000000000000000",
      "reserved": "",
      "assetIds": [
        "55464657044963196816950587289035428064568320970692304673817341489687455367172",
        "55464657044963196816950587289035428064568320970692304673817341489687455367170",
        "55464657044963196816950587289035428064568320970692304673817341489687455367169",
        "55464657044963196816950587289035428064568320970692304673817341489687455367168"
      ]
    },
    {
      "x": 91,
      "y": 164,
      "size": 1,
      "price": "2106000000000000000000",
      "reserved": "",
      "assetIds": [
        "55464657044963196816950587289035428064568320970692304673817341489687455367183",
        "55464657044963196816950587289035428064568320970692304673817341489687455367171",
        "55464657044963196816950587289035428064568320970692304673817341489687455367169",
        "55464657044963196816950587289035428064568320970692304673817341489687455367168"
      ]
    },
    {
      "x": 90,
      "y": 164,
      "size": 1,
      "price": "2106000000000000000000",
      "reserved": "",
      "assetIds": [
        "55464657044963196816950587289035428064568320970692304673817341489687455367181",
        "55464657044963196816950587289035428064568320970692304673817341489687455367171",
        "55464657044963196816950587289035428064568320970692304673817341489687455367169",
        "55464657044963196816950587289035428064568320970692304673817341489687455367168"
      ]
    },
    {
      "x": 89,
      "y": 164,
      "size": 1,
      "price": "2106000000000000000000",
      "reserved": "",
      "assetIds": [
        "55464657044963196816950587289035428064568320970692304673817341489687455367176",
        "55464657044963196816950587289035428064568320970692304673817341489687455367170",
        "55464657044963196816950587289035428064568320970692304673817341489687455367169",
        "55464657044963196816950587289035428064568320970692304673817341489687455367168"
      ]
    },
    {
      "x": 88,
      "y": 164,
      "size": 1,
      "price": "2106000000000000000000",
      "reserved": "",
      "assetIds": [
        "55464657044963196816950587289035428064568320970692304673817341489687455367175",
        "55464657044963196816950587289035428064568320970692304673817341489687455367170",
        "55464657044963196816950587289035428064568320970692304673817341489687455367169",
        "55464657044963196816950587289035428064568320970692304673817341489687455367168"
      ]
    },
    {
      "x": 86,
      "y": 164,
      "size": 1,
      "price": "2106000000000000000000",
      "reserved": "",
      "assetIds": [
        "55464657044963196816950587289035428064568320970692304673817341489687455367176",
        "55464657044963196816950587289035428064568320970692304673817341489687455367170",
        "55464657044963196816950587289035428064568320970692304673817341489687455367169",
        "55464657044963196816950587289035428064568320970692304673817341489687455367168"
      ]
    },
    {
      "x": 85,
      "y": 164,
      "size": 1,
      "price": "2106000000000000000000",
      "reserved": "",
      "assetIds": [
        "55464657044963196816950587289035428064568320970692304673817341489687455367172",
        "55464657044963196816950587289035428064568320970692304673817341489687455367170",
        "55464657044963196816950587289035428064568320970692304673817341489687455367169",
        "55464657044963196816950587289035428064568320970692304673817341489687455367168"
      ]
    },
    {
      "x": 84,
      "y": 164,
      "size": 1,
      "price": "2106000000000000000000",
      "reserved": "",
      "assetIds": [
        "55464657044963196816950587289035428064568320970692304673817341489687455367178",
        "55464657044963196816950587289035428064568320970692304673817341489687455367171",
        "55464657044963196816950587289035428064568320970692304673817341489687455367169",
        "55464657044963196816950587289035428064568320970692304673817341489687455367168"
      ]
    },
    {
      "x": 83,
      "y": 164,
      "size": 1,
      "price": "2106000000000000000000",
      "reserved": "",
      "assetIds": [
        "55464657044963196816950587289035428064568320970692304673817341489687455367180",
        "55464657044963196816950587289035428064568320970692304673817341489687455367171",
        "55464657044963196816950587289035428064568320970692304673817341489687455367169",
        "55464657044963196816950587289035428064568320970692304673817341489687455367168"
      ]
    },
    {
      "x": 82,
      "y": 164,
      "size": 1,
      "price": "2106000000000000000000",
      "reserved": "",
      "assetIds": [
        "55464657044963196816950587289035428064568320970692304673817341489687455367174",
        "55464657044963196816950587289035428064568320970692304673817341489687455367170",
        "55464657044963196816950587289035428064568320970692304673817341489687455367169",
        "55464657044963196816950587289035428064568320970692304673817341489687455367168"
      ]
    },
    {
      "x": 81,
      "y": 164,
      "size": 1,
      "price": "2106000000000000000000",
      "reserved": "",
      "assetIds": [
        "55464657044963196816950587289035428064568320970692304673817341489687455367183",
        "55464657044963196816950587289035428064568320970692304673817341489687455367171",
        "55464657044963196816950587289035428064568320970692304673817341489687455367169",
        "55464657044963196816950587289035428064568320970692304673817341489687455367168"
      ]
    },
    {
      "x": 80,
      "y": 164,
      "size": 1,
      "price": "2106000000000000000000",
      "reserved": "",
      "assetIds": [
        "55464657044963196816950587289035428064568320970692304673817341489687455367175",
        "55464657044963196816950587289035428064568320970692304673817341489687455367170",
        "55464657044963196816950587289035428064568320970692304673817341489687455367169",
        "55464657044963196816950587289035428064568320970692304673817341489687455367168"
      ]
    },
    {
      "x": 80,
      "y": 166,
      "size": 1,
      "price": "2106000000000000000000",
      "reserved": "",
      "assetIds": [
        "55464657044963196816950587289035428064568320970692304673817341489687455367178",
        "55464657044963196816950587289035428064568320970692304673817341489687455367171",
        "55464657044963196816950587289035428064568320970692304673817341489687455367169",
        "55464657044963196816950587289035428064568320970692304673817341489687455367168"
      ]
    },
    {
      "x": 81,
      "y": 167,
      "size": 1,
      "price": "2106000000000000000000",
      "reserved": "",
      "assetIds": [
        "55464657044963196816950587289035428064568320970692304673817341489687455367172",
        "55464657044963196816950587289035428064568320970692304673817341489687455367170",
        "55464657044963196816950587289035428064568320970692304673817341489687455367169",
        "55464657044963196816950587289035428064568320970692304673817341489687455367168"
      ]
    },
    {
      "x": 81,
      "y": 168,
      "size": 1,
      "price": "2106000000000000000000",
      "reserved": "",
      "assetIds": [
        "55464657044963196816950587289035428064568320970692304673817341489687455367175",
        "55464657044963196816950587289035428064568320970692304673817341489687455367170",
        "55464657044963196816950587289035428064568320970692304673817341489687455367169",
        "55464657044963196816950587289035428064568320970692304673817341489687455367168"
      ]
    },
    {
      "x": 81,
      "y": 169,
      "size": 1,
      "price": "2106000000000000000000",
      "reserved": "",
      "assetIds": [
        "55464657044963196816950587289035428064568320970692304673817341489687455367177",
        "55464657044963196816950587289035428064568320970692304673817341489687455367170",
        "55464657044963196816950587289035428064568320970692304673817341489687455367169",
        "55464657044963196816950587289035428064568320970692304673817341489687455367168"
      ]
    },
    {
      "x": 82,
      "y": 167,
      "size": 1,
      "price": "2106000000000000000000",
      "reserved": "",
      "assetIds": [
        "55464657044963196816950587289035428064568320970692304673817341489687455367179",
        "55464657044963196816950587289035428064568320970692304673817341489687455367171",
        "55464657044963196816950587289035428064568320970692304673817341489687455367169",
        "55464657044963196816950587289035428064568320970692304673817341489687455367168"
      ]
    },
    {
      "x": 82,
      "y": 165,
      "size": 1,
      "price": "2106000000000000000000",
      "reserved": "",
      "assetIds": [
        "55464657044963196816950587289035428064568320970692304673817341489687455367182",
        "55464657044963196816950587289035428064568320970692304673817341489687455367171",
        "55464657044963196816950587289035428064568320970692304673817341489687455367169",
        "55464657044963196816950587289035428064568320970692304673817341489687455367168"
      ]
    },
    {
      "x": 81,
      "y": 165,
      "size": 1,
      "price": "2106000000000000000000",
      "reserved": "",
      "assetIds": [
        "55464657044963196816950587289035428064568320970692304673817341489687455367173",
        "55464657044963196816950587289035428064568320970692304673817341489687455367170",
        "55464657044963196816950587289035428064568320970692304673817341489687455367169",
        "55464657044963196816950587289035428064568320970692304673817341489687455367168"
      ]
    },
    {
      "x": 81,
      "y": 166,
      "size": 1,
      "price": "2106000000000000000000",
      "reserved": "",
      "assetIds": [
        "55464657044963196816950587289035428064568320970692304673817341489687455367182",
        "55464657044963196816950587289035428064568320970692304673817341489687455367171",
        "55464657044963196816950587289035428064568320970692304673817341489687455367169",
        "55464657044963196816950587289035428064568320970692304673817341489687455367168"
      ]
    },
    {
      "x": 83,
      "y": 165,
      "size": 1,
      "price": "2106000000000000000000",
      "reserved": "",
      "assetIds": [
        "55464657044963196816950587289035428064568320970692304673817341489687455367179",
        "55464657044963196816950587289035428064568320970692304673817341489687455367171",
        "55464657044963196816950587289035428064568320970692304673817341489687455367169",
        "55464657044963196816950587289035428064568320970692304673817341489687455367168"
      ]
    },
    {
      "x": 84,
      "y": 165,
      "size": 1,
      "price": "2106000000000000000000",
      "reserved": "",
      "assetIds": [
        "55464657044963196816950587289035428064568320970692304673817341489687455367174",
        "55464657044963196816950587289035428064568320970692304673817341489687455367170",
        "55464657044963196816950587289035428064568320970692304673817341489687455367169",
        "55464657044963196816950587289035428064568320970692304673817341489687455367168"
      ]
    },
    {
      "x": 85,
      "y": 165,
      "size": 1,
      "price": "2106000000000000000000",
      "reserved": "",
      "assetIds": [
        "55464657044963196816950587289035428064568320970692304673817341489687455367181",
        "55464657044963196816950587289035428064568320970692304673817341489687455367171",
        "55464657044963196816950587289035428064568320970692304673817341489687455367169",
        "55464657044963196816950587289035428064568320970692304673817341489687455367168"
      ]
    },
    {
      "x": 87,
      "y": 165,
      "size": 1,
      "price": "2106000000000000000000",
      "reserved": "",
      "assetIds": [
        "55464657044963196816950587289035428064568320970692304673817341489687455367175",
        "55464657044963196816950587289035428064568320970692304673817341489687455367170",
        "55464657044963196816950587289035428064568320970692304673817341489687455367169",
        "55464657044963196816950587289035428064568320970692304673817341489687455367168"
      ]
    },
    {
      "x": 88,
      "y": 165,
      "size": 1,
      "price": "2106000000000000000000",
      "reserved": "",
      "assetIds": [
        "55464657044963196816950587289035428064568320970692304673817341489687455367175",
        "55464657044963196816950587289035428064568320970692304673817341489687455367170",
        "55464657044963196816950587289035428064568320970692304673817341489687455367169",
        "55464657044963196816950587289035428064568320970692304673817341489687455367168"
      ]
    },
    {
      "x": 89,
      "y": 165,
      "size": 1,
      "price": "2106000000000000000000",
      "reserved": "",
      "assetIds": [
        "55464657044963196816950587289035428064568320970692304673817341489687455367182",
        "55464657044963196816950587289035428064568320970692304673817341489687455367171",
        "55464657044963196816950587289035428064568320970692304673817341489687455367169",
        "55464657044963196816950587289035428064568320970692304673817341489687455367168"
      ]
    },
    {
      "x": 90,
      "y": 165,
      "size": 1,
      "price": "2106000000000000000000",
      "reserved": "",
      "assetIds": [
        "55464657044963196816950587289035428064568320970692304673817341489687455367178",
        "55464657044963196816950587289035428064568320970692304673817341489687455367171",
        "55464657044963196816950587289035428064568320970692304673817341489687455367169",
        "55464657044963196816950587289035428064568320970692304673817341489687455367168"
      ]
    },
    {
      "x": 92,
      "y": 165,
      "size": 1,
      "price": "2106000000000000000000",
      "reserved": "",
      "assetIds": [
        "55464657044963196816950587289035428064568320970692304673817341489687455367178",
        "55464657044963196816950587289035428064568320970692304673817341489687455367171",
        "55464657044963196816950587289035428064568320970692304673817341489687455367169",
        "55464657044963196816950587289035428064568320970692304673817341489687455367168"
      ]
    },
    {
      "x": 92,
      "y": 166,
      "size": 1,
      "price": "2106000000000000000000",
      "reserved": "",
      "assetIds": [
        "55464657044963196816950587289035428064568320970692304673817341489687455367181",
        "55464657044963196816950587289035428064568320970692304673817341489687455367171",
        "55464657044963196816950587289035428064568320970692304673817341489687455367169",
        "55464657044963196816950587289035428064568320970692304673817341489687455367168"
      ]
    },
    {
      "x": 93,
      "y": 166,
      "size": 1,
      "price": "2106000000000000000000",
      "reserved": "",
      "assetIds": [
        "55464657044963196816950587289035428064568320970692304673817341489687455367174",
        "55464657044963196816950587289035428064568320970692304673817341489687455367170",
        "55464657044963196816950587289035428064568320970692304673817341489687455367169",
        "55464657044963196816950587289035428064568320970692304673817341489687455367168"
      ]
    },
    {
      "x": 94,
      "y": 166,
      "size": 1,
      "price": "2106000000000000000000",
      "reserved": "",
      "assetIds": [
        "55464657044963196816950587289035428064568320970692304673817341489687455367178",
        "55464657044963196816950587289035428064568320970692304673817341489687455367171",
        "55464657044963196816950587289035428064568320970692304673817341489687455367169",
        "55464657044963196816950587289035428064568320970692304673817341489687455367168"
      ]
    },
    {
      "x": 95,
      "y": 166,
      "size": 1,
      "price": "2106000000000000000000",
      "reserved": "",
      "assetIds": [
        "55464657044963196816950587289035428064568320970692304673817341489687455367178",
        "55464657044963196816950587289035428064568320970692304673817341489687455367171",
        "55464657044963196816950587289035428064568320970692304673817341489687455367169",
        "55464657044963196816950587289035428064568320970692304673817341489687455367168"
      ]
    },
    {
      "x": 93,
      "y": 165,
      "size": 1,
      "price": "2106000000000000000000",
      "reserved": "",
      "assetIds": [
        "55464657044963196816950587289035428064568320970692304673817341489687455367173",
        "55464657044963196816950587289035428064568320970692304673817341489687455367170",
        "55464657044963196816950587289035428064568320970692304673817341489687455367169",
        "55464657044963196816950587289035428064568320970692304673817341489687455367168"
      ]
    },
    {
      "x": 86,
      "y": 165,
      "size": 1,
      "price": "2106000000000000000000",
      "reserved": "",
      "assetIds": [
        "55464657044963196816950587289035428064568320970692304673817341489687455367177",
        "55464657044963196816950587289035428064568320970692304673817341489687455367170",
        "55464657044963196816950587289035428064568320970692304673817341489687455367169",
        "55464657044963196816950587289035428064568320970692304673817341489687455367168"
      ]
    },
    {
      "x": 86,
      "y": 166,
      "size": 1,
      "price": "2106000000000000000000",
      "reserved": "",
      "assetIds": [
        "55464657044963196816950587289035428064568320970692304673817341489687455367172",
        "55464657044963196816950587289035428064568320970692304673817341489687455367170",
        "55464657044963196816950587289035428064568320970692304673817341489687455367169",
        "55464657044963196816950587289035428064568320970692304673817341489687455367168"
      ]
    },
    {
      "x": 87,
      "y": 166,
      "size": 1,
      "price": "2106000000000000000000",
      "reserved": "",
      "assetIds": [
        "55464657044963196816950587289035428064568320970692304673817341489687455367174",
        "55464657044963196816950587289035428064568320970692304673817341489687455367170",
        "55464657044963196816950587289035428064568320970692304673817341489687455367169",
        "55464657044963196816950587289035428064568320970692304673817341489687455367168"
      ]
    },
    {
      "x": 87,
      "y": 167,
      "size": 1,
      "price": "2106000000000000000000",
      "reserved": "",
      "assetIds": [
        "55464657044963196816950587289035428064568320970692304673817341489687455367180",
        "55464657044963196816950587289035428064568320970692304673817341489687455367171",
        "55464657044963196816950587289035428064568320970692304673817341489687455367169",
        "55464657044963196816950587289035428064568320970692304673817341489687455367168"
      ]
    },
    {
      "x": 88,
      "y": 167,
      "size": 1,
      "price": "2106000000000000000000",
      "reserved": "",
      "assetIds": [
        "55464657044963196816950587289035428064568320970692304673817341489687455367182",
        "55464657044963196816950587289035428064568320970692304673817341489687455367171",
        "55464657044963196816950587289035428064568320970692304673817341489687455367169",
        "55464657044963196816950587289035428064568320970692304673817341489687455367168"
      ]
    },
    {
      "x": 89,
      "y": 167,
      "size": 1,
      "price": "2106000000000000000000",
      "reserved": "",
      "assetIds": [
        "55464657044963196816950587289035428064568320970692304673817341489687455367174",
        "55464657044963196816950587289035428064568320970692304673817341489687455367170",
        "55464657044963196816950587289035428064568320970692304673817341489687455367169",
        "55464657044963196816950587289035428064568320970692304673817341489687455367168"
      ]
    },
    {
      "x": 90,
      "y": 167,
      "size": 1,
      "price": "2106000000000000000000",
      "reserved": "",
      "assetIds": [
        "55464657044963196816950587289035428064568320970692304673817341489687455367183",
        "55464657044963196816950587289035428064568320970692304673817341489687455367171",
        "55464657044963196816950587289035428064568320970692304673817341489687455367169",
        "55464657044963196816950587289035428064568320970692304673817341489687455367168"
      ]
    },
    {
      "x": 91,
      "y": 167,
      "size": 1,
      "price": "2106000000000000000000",
      "reserved": "",
      "assetIds": [
        "55464657044963196816950587289035428064568320970692304673817341489687455367177",
        "55464657044963196816950587289035428064568320970692304673817341489687455367170",
        "55464657044963196816950587289035428064568320970692304673817341489687455367169",
        "55464657044963196816950587289035428064568320970692304673817341489687455367168"
      ]
    },
    {
      "x": 92,
      "y": 167,
      "size": 1,
      "price": "2106000000000000000000",
      "reserved": "",
      "assetIds": [
        "55464657044963196816950587289035428064568320970692304673817341489687455367180",
        "55464657044963196816950587289035428064568320970692304673817341489687455367171",
        "55464657044963196816950587289035428064568320970692304673817341489687455367169",
        "55464657044963196816950587289035428064568320970692304673817341489687455367168"
      ]
    },
    {
      "x": 93,
      "y": 167,
      "size": 1,
      "price": "2106000000000000000000",
      "reserved": "",
      "assetIds": [
        "55464657044963196816950587289035428064568320970692304673817341489687455367178",
        "55464657044963196816950587289035428064568320970692304673817341489687455367171",
        "55464657044963196816950587289035428064568320970692304673817341489687455367169",
        "55464657044963196816950587289035428064568320970692304673817341489687455367168"
      ]
    },
    {
      "x": 94,
      "y": 167,
      "size": 1,
      "price": "2106000000000000000000",
      "reserved": "",
      "assetIds": [
        "55464657044963196816950587289035428064568320970692304673817341489687455367183",
        "55464657044963196816950587289035428064568320970692304673817341489687455367171",
        "55464657044963196816950587289035428064568320970692304673817341489687455367169",
        "55464657044963196816950587289035428064568320970692304673817341489687455367168"
      ]
    },
    {
      "x": 95,
      "y": 167,
      "size": 1,
      "price": "2106000000000000000000",
      "reserved": "",
      "assetIds": [
        "55464657044963196816950587289035428064568320970692304673817341489687455367183",
        "55464657044963196816950587289035428064568320970692304673817341489687455367171",
        "55464657044963196816950587289035428064568320970692304673817341489687455367169",
        "55464657044963196816950587289035428064568320970692304673817341489687455367168"
      ]
    },
    {
      "x": 96,
      "y": 167,
      "size": 1,
      "price": "2106000000000000000000",
      "reserved": "",
      "assetIds": [
        "55464657044963196816950587289035428064568320970692304673817341489687455367180",
        "55464657044963196816950587289035428064568320970692304673817341489687455367171",
        "55464657044963196816950587289035428064568320970692304673817341489687455367169",
        "55464657044963196816950587289035428064568320970692304673817341489687455367168"
      ]
    },
    {
      "x": 91,
      "y": 166,
      "size": 1,
      "price": "2106000000000000000000",
      "reserved": "",
      "assetIds": [
        "55464657044963196816950587289035428064568320970692304673817341489687455367173",
        "55464657044963196816950587289035428064568320970692304673817341489687455367170",
        "55464657044963196816950587289035428064568320970692304673817341489687455367169",
        "55464657044963196816950587289035428064568320970692304673817341489687455367168"
      ]
    },
    {
      "x": 90,
      "y": 166,
      "size": 1,
      "price": "2106000000000000000000",
      "reserved": "",
      "assetIds": [
        "55464657044963196816950587289035428064568320970692304673817341489687455367183",
        "55464657044963196816950587289035428064568320970692304673817341489687455367171",
        "55464657044963196816950587289035428064568320970692304673817341489687455367169",
        "55464657044963196816950587289035428064568320970692304673817341489687455367168"
      ]
    },
    {
      "x": 89,
      "y": 166,
      "size": 1,
      "price": "2106000000000000000000",
      "reserved": "",
      "assetIds": [
        "55464657044963196816950587289035428064568320970692304673817341489687455367174",
        "55464657044963196816950587289035428064568320970692304673817341489687455367170",
        "55464657044963196816950587289035428064568320970692304673817341489687455367169",
        "55464657044963196816950587289035428064568320970692304673817341489687455367168"
      ]
    },
    {
      "x": 88,
      "y": 166,
      "size": 1,
      "price": "2106000000000000000000",
      "reserved": "",
      "assetIds": [
        "55464657044963196816950587289035428064568320970692304673817341489687455367179",
        "55464657044963196816950587289035428064568320970692304673817341489687455367171",
        "55464657044963196816950587289035428064568320970692304673817341489687455367169",
        "55464657044963196816950587289035428064568320970692304673817341489687455367168"
      ]
    },
    {
      "x": 84,
      "y": 166,
      "size": 1,
      "price": "2106000000000000000000",
      "reserved": "",
      "assetIds": [
        "55464657044963196816950587289035428064568320970692304673817341489687455367179",
        "55464657044963196816950587289035428064568320970692304673817341489687455367171",
        "55464657044963196816950587289035428064568320970692304673817341489687455367169",
        "55464657044963196816950587289035428064568320970692304673817341489687455367168"
      ]
    },
    {
      "x": 83,
      "y": 166,
      "size": 1,
      "price": "2106000000000000000000",
      "reserved": "",
      "assetIds": [
        "55464657044963196816950587289035428064568320970692304673817341489687455367182",
        "55464657044963196816950587289035428064568320970692304673817341489687455367171",
        "55464657044963196816950587289035428064568320970692304673817341489687455367169",
        "55464657044963196816950587289035428064568320970692304673817341489687455367168"
      ]
    },
    {
      "x": 84,
      "y": 163,
      "size": 1,
      "price": "2106000000000000000000",
      "reserved": "",
      "assetIds": [
        "55464657044963196816950587289035428064568320970692304673817341489687455367183",
        "55464657044963196816950587289035428064568320970692304673817341489687455367171",
        "55464657044963196816950587289035428064568320970692304673817341489687455367169",
        "55464657044963196816950587289035428064568320970692304673817341489687455367168"
      ]
    },
    {
      "x": 79,
      "y": 166,
      "size": 1,
      "price": "2106000000000000000000",
      "reserved": "",
      "assetIds": [
        "55464657044963196816950587289035428064568320970692304673817341489687455367182",
        "55464657044963196816950587289035428064568320970692304673817341489687455367171",
        "55464657044963196816950587289035428064568320970692304673817341489687455367169",
        "55464657044963196816950587289035428064568320970692304673817341489687455367168"
      ]
    },
    {
      "x": 79,
      "y": 167,
      "size": 1,
      "price": "2106000000000000000000",
      "reserved": "",
      "assetIds": [
        "55464657044963196816950587289035428064568320970692304673817341489687455367176",
        "55464657044963196816950587289035428064568320970692304673817341489687455367170",
        "55464657044963196816950587289035428064568320970692304673817341489687455367169",
        "55464657044963196816950587289035428064568320970692304673817341489687455367168"
      ]
    },
    {
      "x": 79,
      "y": 168,
      "size": 1,
      "price": "2106000000000000000000",
      "reserved": "",
      "assetIds": [
        "55464657044963196816950587289035428064568320970692304673817341489687455367181",
        "55464657044963196816950587289035428064568320970692304673817341489687455367171",
        "55464657044963196816950587289035428064568320970692304673817341489687455367169",
        "55464657044963196816950587289035428064568320970692304673817341489687455367168"
      ]
    },
    {
      "x": 80,
      "y": 168,
      "size": 1,
      "price": "2106000000000000000000",
      "reserved": "",
      "assetIds": [
        "55464657044963196816950587289035428064568320970692304673817341489687455367181",
        "55464657044963196816950587289035428064568320970692304673817341489687455367171",
        "55464657044963196816950587289035428064568320970692304673817341489687455367169",
        "55464657044963196816950587289035428064568320970692304673817341489687455367168"
      ]
    },
    {
      "x": 80,
      "y": 169,
      "size": 1,
      "price": "2106000000000000000000",
      "reserved": "",
      "assetIds": [
        "55464657044963196816950587289035428064568320970692304673817341489687455367181",
        "55464657044963196816950587289035428064568320970692304673817341489687455367171",
        "55464657044963196816950587289035428064568320970692304673817341489687455367169",
        "55464657044963196816950587289035428064568320970692304673817341489687455367168"
      ]
    },
    {
      "x": 80,
      "y": 170,
      "size": 1,
      "price": "2106000000000000000000",
      "reserved": "",
      "assetIds": [
        "55464657044963196816950587289035428064568320970692304673817341489687455367175",
        "55464657044963196816950587289035428064568320970692304673817341489687455367170",
        "55464657044963196816950587289035428064568320970692304673817341489687455367169",
        "55464657044963196816950587289035428064568320970692304673817341489687455367168"
      ]
    },
    {
      "x": 81,
      "y": 170,
      "size": 1,
      "price": "2106000000000000000000",
      "reserved": "",
      "assetIds": [
        "55464657044963196816950587289035428064568320970692304673817341489687455367178",
        "55464657044963196816950587289035428064568320970692304673817341489687455367171",
        "55464657044963196816950587289035428064568320970692304673817341489687455367169",
        "55464657044963196816950587289035428064568320970692304673817341489687455367168"
      ]
    },
    {
      "x": 82,
      "y": 170,
      "size": 1,
      "price": "2106000000000000000000",
      "reserved": "",
      "assetIds": [
        "55464657044963196816950587289035428064568320970692304673817341489687455367179",
        "55464657044963196816950587289035428064568320970692304673817341489687455367171",
        "55464657044963196816950587289035428064568320970692304673817341489687455367169",
        "55464657044963196816950587289035428064568320970692304673817341489687455367168"
      ]
    },
    {
      "x": 83,
      "y": 170,
      "size": 1,
      "price": "2106000000000000000000",
      "reserved": "",
      "assetIds": [
        "55464657044963196816950587289035428064568320970692304673817341489687455367181",
        "55464657044963196816950587289035428064568320970692304673817341489687455367171",
        "55464657044963196816950587289035428064568320970692304673817341489687455367169",
        "55464657044963196816950587289035428064568320970692304673817341489687455367168"
      ]
    },
    {
      "x": 83,
      "y": 169,
      "size": 1,
      "price": "2106000000000000000000",
      "reserved": "",
      "assetIds": [
        "55464657044963196816950587289035428064568320970692304673817341489687455367176",
        "55464657044963196816950587289035428064568320970692304673817341489687455367170",
        "55464657044963196816950587289035428064568320970692304673817341489687455367169",
        "55464657044963196816950587289035428064568320970692304673817341489687455367168"
      ]
    },
    {
      "x": 83,
      "y": 168,
      "size": 1,
      "price": "2106000000000000000000",
      "reserved": "",
      "assetIds": [
        "55464657044963196816950587289035428064568320970692304673817341489687455367175",
        "55464657044963196816950587289035428064568320970692304673817341489687455367170",
        "55464657044963196816950587289035428064568320970692304673817341489687455367169",
        "55464657044963196816950587289035428064568320970692304673817341489687455367168"
      ]
    },
    {
      "x": 83,
      "y": 167,
      "size": 1,
      "price": "2106000000000000000000",
      "reserved": "",
      "assetIds": [
        "55464657044963196816950587289035428064568320970692304673817341489687455367179",
        "55464657044963196816950587289035428064568320970692304673817341489687455367171",
        "55464657044963196816950587289035428064568320970692304673817341489687455367169",
        "55464657044963196816950587289035428064568320970692304673817341489687455367168"
      ]
    },
    {
      "x": 84,
      "y": 167,
      "size": 1,
      "price": "2106000000000000000000",
      "reserved": "",
      "assetIds": [
        "55464657044963196816950587289035428064568320970692304673817341489687455367174",
        "55464657044963196816950587289035428064568320970692304673817341489687455367170",
        "55464657044963196816950587289035428064568320970692304673817341489687455367169",
        "55464657044963196816950587289035428064568320970692304673817341489687455367168"
      ]
    },
    {
      "x": 85,
      "y": 167,
      "size": 1,
      "price": "2106000000000000000000",
      "reserved": "",
      "assetIds": [
        "55464657044963196816950587289035428064568320970692304673817341489687455367173",
        "55464657044963196816950587289035428064568320970692304673817341489687455367170",
        "55464657044963196816950587289035428064568320970692304673817341489687455367169",
        "55464657044963196816950587289035428064568320970692304673817341489687455367168"
      ]
    },
    {
      "x": 86,
      "y": 167,
      "size": 1,
      "price": "2106000000000000000000",
      "reserved": "",
      "assetIds": [
        "55464657044963196816950587289035428064568320970692304673817341489687455367183",
        "55464657044963196816950587289035428064568320970692304673817341489687455367171",
        "55464657044963196816950587289035428064568320970692304673817341489687455367169",
        "55464657044963196816950587289035428064568320970692304673817341489687455367168"
      ]
    },
    {
      "x": 82,
      "y": 168,
      "size": 1,
      "price": "2106000000000000000000",
      "reserved": "",
      "assetIds": [
        "55464657044963196816950587289035428064568320970692304673817341489687455367180",
        "55464657044963196816950587289035428064568320970692304673817341489687455367171",
        "55464657044963196816950587289035428064568320970692304673817341489687455367169",
        "55464657044963196816950587289035428064568320970692304673817341489687455367168"
      ]
    },
    {
      "x": 82,
      "y": 171,
      "size": 1,
      "price": "2106000000000000000000",
      "reserved": "",
      "assetIds": [
        "55464657044963196816950587289035428064568320970692304673817341489687455367172",
        "55464657044963196816950587289035428064568320970692304673817341489687455367170",
        "55464657044963196816950587289035428064568320970692304673817341489687455367169",
        "55464657044963196816950587289035428064568320970692304673817341489687455367168"
      ]
    },
    {
      "x": 83,
      "y": 171,
      "size": 1,
      "price": "2106000000000000000000",
      "reserved": "",
      "assetIds": [
        "55464657044963196816950587289035428064568320970692304673817341489687455367182",
        "55464657044963196816950587289035428064568320970692304673817341489687455367171",
        "55464657044963196816950587289035428064568320970692304673817341489687455367169",
        "55464657044963196816950587289035428064568320970692304673817341489687455367168"
      ]
    },
    {
      "x": 83,
      "y": 172,
      "size": 1,
      "price": "2106000000000000000000",
      "reserved": "",
      "assetIds": [
        "55464657044963196816950587289035428064568320970692304673817341489687455367174",
        "55464657044963196816950587289035428064568320970692304673817341489687455367170",
        "55464657044963196816950587289035428064568320970692304673817341489687455367169",
        "55464657044963196816950587289035428064568320970692304673817341489687455367168"
      ]
    },
    {
      "x": 83,
      "y": 173,
      "size": 1,
      "price": "2106000000000000000000",
      "reserved": "",
      "assetIds": [
        "55464657044963196816950587289035428064568320970692304673817341489687455367176",
        "55464657044963196816950587289035428064568320970692304673817341489687455367170",
        "55464657044963196816950587289035428064568320970692304673817341489687455367169",
        "55464657044963196816950587289035428064568320970692304673817341489687455367168"
      ]
    },
    {
      "x": 83,
      "y": 174,
      "size": 1,
      "price": "2106000000000000000000",
      "reserved": "",
      "assetIds": [
        "55464657044963196816950587289035428064568320970692304673817341489687455367174",
        "55464657044963196816950587289035428064568320970692304673817341489687455367170",
        "55464657044963196816950587289035428064568320970692304673817341489687455367169",
        "55464657044963196816950587289035428064568320970692304673817341489687455367168"
      ]
    },
    {
      "x": 83,
      "y": 175,
      "size": 1,
      "price": "2106000000000000000000",
      "reserved": "",
      "assetIds": [
        "55464657044963196816950587289035428064568320970692304673817341489687455367182",
        "55464657044963196816950587289035428064568320970692304673817341489687455367171",
        "55464657044963196816950587289035428064568320970692304673817341489687455367169",
        "55464657044963196816950587289035428064568320970692304673817341489687455367168"
      ]
    },
    {
      "x": 83,
      "y": 176,
      "size": 1,
      "price": "2106000000000000000000",
      "reserved": "",
      "assetIds": [
        "55464657044963196816950587289035428064568320970692304673817341489687455367176",
        "55464657044963196816950587289035428064568320970692304673817341489687455367170",
        "55464657044963196816950587289035428064568320970692304673817341489687455367169",
        "55464657044963196816950587289035428064568320970692304673817341489687455367168"
      ]
    },
    {
      "x": 83,
      "y": 177,
      "size": 1,
      "price": "2106000000000000000000",
      "reserved": "",
      "assetIds": [
        "55464657044963196816950587289035428064568320970692304673817341489687455367180",
        "55464657044963196816950587289035428064568320970692304673817341489687455367171",
        "55464657044963196816950587289035428064568320970692304673817341489687455367169",
        "55464657044963196816950587289035428064568320970692304673817341489687455367168"
      ]
    },
    {
      "x": 82,
      "y": 176,
      "size": 1,
      "price": "2106000000000000000000",
      "reserved": "",
      "assetIds": [
        "55464657044963196816950587289035428064568320970692304673817341489687455367183",
        "55464657044963196816950587289035428064568320970692304673817341489687455367171",
        "55464657044963196816950587289035428064568320970692304673817341489687455367169",
        "55464657044963196816950587289035428064568320970692304673817341489687455367168"
      ]
    },
    {
      "x": 82,
      "y": 177,
      "size": 1,
      "price": "2106000000000000000000",
      "reserved": "",
      "assetIds": [
        "55464657044963196816950587289035428064568320970692304673817341489687455367177",
        "55464657044963196816950587289035428064568320970692304673817341489687455367170",
        "55464657044963196816950587289035428064568320970692304673817341489687455367169",
        "55464657044963196816950587289035428064568320970692304673817341489687455367168"
      ]
    },
    {
      "x": 82,
      "y": 174,
      "size": 1,
      "price": "2106000000000000000000",
      "reserved": "",
      "assetIds": [
        "55464657044963196816950587289035428064568320970692304673817341489687455367175",
        "55464657044963196816950587289035428064568320970692304673817341489687455367170",
        "55464657044963196816950587289035428064568320970692304673817341489687455367169",
        "55464657044963196816950587289035428064568320970692304673817341489687455367168"
      ]
    },
    {
      "x": 82,
      "y": 173,
      "size": 1,
      "price": "2106000000000000000000",
      "reserved": "",
      "assetIds": [
        "55464657044963196816950587289035428064568320970692304673817341489687455367179",
        "55464657044963196816950587289035428064568320970692304673817341489687455367171",
        "55464657044963196816950587289035428064568320970692304673817341489687455367169",
        "55464657044963196816950587289035428064568320970692304673817341489687455367168"
      ]
    },
    {
      "x": 81,
      "y": 172,
      "size": 1,
      "price": "2106000000000000000000",
      "reserved": "",
      "assetIds": [
        "55464657044963196816950587289035428064568320970692304673817341489687455367178",
        "55464657044963196816950587289035428064568320970692304673817341489687455367171",
        "55464657044963196816950587289035428064568320970692304673817341489687455367169",
        "55464657044963196816950587289035428064568320970692304673817341489687455367168"
      ]
    },
    {
      "x": 81,
      "y": 171,
      "size": 1,
      "price": "2106000000000000000000",
      "reserved": "",
      "assetIds": [
        "55464657044963196816950587289035428064568320970692304673817341489687455367182",
        "55464657044963196816950587289035428064568320970692304673817341489687455367171",
        "55464657044963196816950587289035428064568320970692304673817341489687455367169",
        "55464657044963196816950587289035428064568320970692304673817341489687455367168"
      ]
    },
    {
      "x": 81,
      "y": 173,
      "size": 1,
      "price": "2106000000000000000000",
      "reserved": "",
      "assetIds": [
        "55464657044963196816950587289035428064568320970692304673817341489687455367176",
        "55464657044963196816950587289035428064568320970692304673817341489687455367170",
        "55464657044963196816950587289035428064568320970692304673817341489687455367169",
        "55464657044963196816950587289035428064568320970692304673817341489687455367168"
      ]
    },
    {
      "x": 81,
      "y": 174,
      "size": 1,
      "price": "2106000000000000000000",
      "reserved": "",
      "assetIds": [
        "55464657044963196816950587289035428064568320970692304673817341489687455367176",
        "55464657044963196816950587289035428064568320970692304673817341489687455367170",
        "55464657044963196816950587289035428064568320970692304673817341489687455367169",
        "55464657044963196816950587289035428064568320970692304673817341489687455367168"
      ]
    },
    {
      "x": 80,
      "y": 173,
      "size": 1,
      "price": "2106000000000000000000",
      "reserved": "",
      "assetIds": [
        "55464657044963196816950587289035428064568320970692304673817341489687455367180",
        "55464657044963196816950587289035428064568320970692304673817341489687455367171",
        "55464657044963196816950587289035428064568320970692304673817341489687455367169",
        "55464657044963196816950587289035428064568320970692304673817341489687455367168"
      ]
    },
    {
      "x": 80,
      "y": 172,
      "size": 1,
      "price": "2106000000000000000000",
      "reserved": "",
      "assetIds": [
        "55464657044963196816950587289035428064568320970692304673817341489687455367172",
        "55464657044963196816950587289035428064568320970692304673817341489687455367170",
        "55464657044963196816950587289035428064568320970692304673817341489687455367169",
        "55464657044963196816950587289035428064568320970692304673817341489687455367168"
      ]
    },
    {
      "x": 79,
      "y": 171,
      "size": 1,
      "price": "2106000000000000000000",
      "reserved": "",
      "assetIds": [
        "55464657044963196816950587289035428064568320970692304673817341489687455367176",
        "55464657044963196816950587289035428064568320970692304673817341489687455367170",
        "55464657044963196816950587289035428064568320970692304673817341489687455367169",
        "55464657044963196816950587289035428064568320970692304673817341489687455367168"
      ]
    },
    {
      "x": 79,
      "y": 170,
      "size": 1,
      "price": "2106000000000000000000",
      "reserved": "",
      "assetIds": [
        "55464657044963196816950587289035428064568320970692304673817341489687455367183",
        "55464657044963196816950587289035428064568320970692304673817341489687455367171",
        "55464657044963196816950587289035428064568320970692304673817341489687455367169",
        "55464657044963196816950587289035428064568320970692304673817341489687455367168"
      ]
    },
    {
      "x": 79,
      "y": 174,
      "size": 1,
      "price": "2106000000000000000000",
      "reserved": "",
      "assetIds": [
        "55464657044963196816950587289035428064568320970692304673817341489687455367181",
        "55464657044963196816950587289035428064568320970692304673817341489687455367171",
        "55464657044963196816950587289035428064568320970692304673817341489687455367169",
        "55464657044963196816950587289035428064568320970692304673817341489687455367168"
      ]
    },
    {
      "x": 79,
      "y": 175,
      "size": 1,
      "price": "2106000000000000000000",
      "reserved": "",
      "assetIds": [
        "55464657044963196816950587289035428064568320970692304673817341489687455367182",
        "55464657044963196816950587289035428064568320970692304673817341489687455367171",
        "55464657044963196816950587289035428064568320970692304673817341489687455367169",
        "55464657044963196816950587289035428064568320970692304673817341489687455367168"
      ]
    },
    {
      "x": 79,
      "y": 176,
      "size": 1,
      "price": "2106000000000000000000",
      "reserved": "",
      "assetIds": [
        "55464657044963196816950587289035428064568320970692304673817341489687455367173",
        "55464657044963196816950587289035428064568320970692304673817341489687455367170",
        "55464657044963196816950587289035428064568320970692304673817341489687455367169",
        "55464657044963196816950587289035428064568320970692304673817341489687455367168"
      ]
    },
    {
      "x": 79,
      "y": 177,
      "size": 1,
      "price": "2106000000000000000000",
      "reserved": "",
      "assetIds": [
        "55464657044963196816950587289035428064568320970692304673817341489687455367173",
        "55464657044963196816950587289035428064568320970692304673817341489687455367170",
        "55464657044963196816950587289035428064568320970692304673817341489687455367169",
        "55464657044963196816950587289035428064568320970692304673817341489687455367168"
      ]
    },
    {
      "x": 79,
      "y": 178,
      "size": 1,
      "price": "2106000000000000000000",
      "reserved": "",
      "assetIds": [
        "55464657044963196816950587289035428064568320970692304673817341489687455367177",
        "55464657044963196816950587289035428064568320970692304673817341489687455367170",
        "55464657044963196816950587289035428064568320970692304673817341489687455367169",
        "55464657044963196816950587289035428064568320970692304673817341489687455367168"
      ]
    },
    {
      "x": 79,
      "y": 173,
      "size": 1,
      "price": "2106000000000000000000",
      "reserved": "",
      "assetIds": [
        "55464657044963196816950587289035428064568320970692304673817341489687455367183",
        "55464657044963196816950587289035428064568320970692304673817341489687455367171",
        "55464657044963196816950587289035428064568320970692304673817341489687455367169",
        "55464657044963196816950587289035428064568320970692304673817341489687455367168"
      ]
    },
    {
      "x": 79,
      "y": 172,
      "size": 1,
      "price": "2106000000000000000000",
      "reserved": "",
      "assetIds": [
        "55464657044963196816950587289035428064568320970692304673817341489687455367183",
        "55464657044963196816950587289035428064568320970692304673817341489687455367171",
        "55464657044963196816950587289035428064568320970692304673817341489687455367169",
        "55464657044963196816950587289035428064568320970692304673817341489687455367168"
      ]
    },
    {
      "x": 80,
      "y": 175,
      "size": 1,
      "price": "2106000000000000000000",
      "reserved": "",
      "assetIds": [
        "55464657044963196816950587289035428064568320970692304673817341489687455367178",
        "55464657044963196816950587289035428064568320970692304673817341489687455367171",
        "55464657044963196816950587289035428064568320970692304673817341489687455367169",
        "55464657044963196816950587289035428064568320970692304673817341489687455367168"
      ]
    },
    {
      "x": 81,
      "y": 176,
      "size": 1,
      "price": "2106000000000000000000",
      "reserved": "",
      "assetIds": [
        "55464657044963196816950587289035428064568320970692304673817341489687455367182",
        "55464657044963196816950587289035428064568320970692304673817341489687455367171",
        "55464657044963196816950587289035428064568320970692304673817341489687455367169",
        "55464657044963196816950587289035428064568320970692304673817341489687455367168"
      ]
    },
    {
      "x": 81,
      "y": 177,
      "size": 1,
      "price": "2106000000000000000000",
      "reserved": "",
      "assetIds": [
        "55464657044963196816950587289035428064568320970692304673817341489687455367172",
        "55464657044963196816950587289035428064568320970692304673817341489687455367170",
        "55464657044963196816950587289035428064568320970692304673817341489687455367169",
        "55464657044963196816950587289035428064568320970692304673817341489687455367168"
      ]
    },
    {
      "x": 81,
      "y": 175,
      "size": 1,
      "price": "2106000000000000000000",
      "reserved": "",
      "assetIds": [
        "55464657044963196816950587289035428064568320970692304673817341489687455367175",
        "55464657044963196816950587289035428064568320970692304673817341489687455367170",
        "55464657044963196816950587289035428064568320970692304673817341489687455367169",
        "55464657044963196816950587289035428064568320970692304673817341489687455367168"
      ]
    },
    {
      "x": 81,
      "y": 178,
      "size": 1,
      "price": "2106000000000000000000",
      "reserved": "",
      "assetIds": [
        "55464657044963196816950587289035428064568320970692304673817341489687455367176",
        "55464657044963196816950587289035428064568320970692304673817341489687455367170",
        "55464657044963196816950587289035428064568320970692304673817341489687455367169",
        "55464657044963196816950587289035428064568320970692304673817341489687455367168"
      ]
    },
    {
      "x": 80,
      "y": 178,
      "size": 1,
      "price": "2106000000000000000000",
      "reserved": "",
      "assetIds": [
        "55464657044963196816950587289035428064568320970692304673817341489687455367180",
        "55464657044963196816950587289035428064568320970692304673817341489687455367171",
        "55464657044963196816950587289035428064568320970692304673817341489687455367169",
        "55464657044963196816950587289035428064568320970692304673817341489687455367168"
      ]
    },
    {
      "x": 80,
      "y": 177,
      "size": 1,
      "price": "2106000000000000000000",
      "reserved": "",
      "assetIds": [
        "55464657044963196816950587289035428064568320970692304673817341489687455367179",
        "55464657044963196816950587289035428064568320970692304673817341489687455367171",
        "55464657044963196816950587289035428064568320970692304673817341489687455367169",
        "55464657044963196816950587289035428064568320970692304673817341489687455367168"
      ]
    },
    {
      "x": 80,
      "y": 176,
      "size": 1,
      "price": "2106000000000000000000",
      "reserved": "",
      "assetIds": [
        "55464657044963196816950587289035428064568320970692304673817341489687455367179",
        "55464657044963196816950587289035428064568320970692304673817341489687455367171",
        "55464657044963196816950587289035428064568320970692304673817341489687455367169",
        "55464657044963196816950587289035428064568320970692304673817341489687455367168"
      ]
    },
    {
      "x": 78,
      "y": 177,
      "size": 1,
      "price": "2106000000000000000000",
      "reserved": "",
      "assetIds": [
        "55464657044963196816950587289035428064568320970692304673817341489687455367175",
        "55464657044963196816950587289035428064568320970692304673817341489687455367170",
        "55464657044963196816950587289035428064568320970692304673817341489687455367169",
        "55464657044963196816950587289035428064568320970692304673817341489687455367168"
      ]
    },
    {
      "x": 77,
      "y": 176,
      "size": 1,
      "price": "2106000000000000000000",
      "reserved": "",
      "assetIds": [
        "55464657044963196816950587289035428064568320970692304673817341489687455367177",
        "55464657044963196816950587289035428064568320970692304673817341489687455367170",
        "55464657044963196816950587289035428064568320970692304673817341489687455367169",
        "55464657044963196816950587289035428064568320970692304673817341489687455367168"
      ]
    },
    {
      "x": 78,
      "y": 175,
      "size": 1,
      "price": "2106000000000000000000",
      "reserved": "",
      "assetIds": [
        "55464657044963196816950587289035428064568320970692304673817341489687455367174",
        "55464657044963196816950587289035428064568320970692304673817341489687455367170",
        "55464657044963196816950587289035428064568320970692304673817341489687455367169",
        "55464657044963196816950587289035428064568320970692304673817341489687455367168"
      ]
    },
    {
      "x": 77,
      "y": 177,
      "size": 1,
      "price": "2106000000000000000000",
      "reserved": "",
      "assetIds": [
        "55464657044963196816950587289035428064568320970692304673817341489687455367177",
        "55464657044963196816950587289035428064568320970692304673817341489687455367170",
        "55464657044963196816950587289035428064568320970692304673817341489687455367169",
        "55464657044963196816950587289035428064568320970692304673817341489687455367168"
      ]
    },
    {
      "x": 83,
      "y": 178,
      "size": 1,
      "price": "2106000000000000000000",
      "reserved": "",
      "assetIds": [
        "55464657044963196816950587289035428064568320970692304673817341489687455367175",
        "55464657044963196816950587289035428064568320970692304673817341489687455367170",
        "55464657044963196816950587289035428064568320970692304673817341489687455367169",
        "55464657044963196816950587289035428064568320970692304673817341489687455367168"
      ]
    },
    {
      "x": 83,
      "y": 179,
      "size": 1,
      "price": "2106000000000000000000",
      "reserved": "",
      "assetIds": [
        "55464657044963196816950587289035428064568320970692304673817341489687455367172",
        "55464657044963196816950587289035428064568320970692304673817341489687455367170",
        "55464657044963196816950587289035428064568320970692304673817341489687455367169",
        "55464657044963196816950587289035428064568320970692304673817341489687455367168"
      ]
    },
    {
      "x": 83,
      "y": 180,
      "size": 1,
      "price": "2106000000000000000000",
      "reserved": "",
      "assetIds": [
        "55464657044963196816950587289035428064568320970692304673817341489687455367174",
        "55464657044963196816950587289035428064568320970692304673817341489687455367170",
        "55464657044963196816950587289035428064568320970692304673817341489687455367169",
        "55464657044963196816950587289035428064568320970692304673817341489687455367168"
      ]
    },
    {
      "x": 82,
      "y": 182,
      "size": 1,
      "price": "2106000000000000000000",
      "reserved": "",
      "assetIds": [
        "55464657044963196816950587289035428064568320970692304673817341489687455367183",
        "55464657044963196816950587289035428064568320970692304673817341489687455367171",
        "55464657044963196816950587289035428064568320970692304673817341489687455367169",
        "55464657044963196816950587289035428064568320970692304673817341489687455367168"
      ]
    },
    {
      "x": 82,
      "y": 183,
      "size": 1,
      "price": "2106000000000000000000",
      "reserved": "",
      "assetIds": [
        "55464657044963196816950587289035428064568320970692304673817341489687455367175",
        "55464657044963196816950587289035428064568320970692304673817341489687455367170",
        "55464657044963196816950587289035428064568320970692304673817341489687455367169",
        "55464657044963196816950587289035428064568320970692304673817341489687455367168"
      ]
    },
    {
      "x": 82,
      "y": 184,
      "size": 1,
      "price": "2106000000000000000000",
      "reserved": "",
      "assetIds": [
        "55464657044963196816950587289035428064568320970692304673817341489687455367172",
        "55464657044963196816950587289035428064568320970692304673817341489687455367170",
        "55464657044963196816950587289035428064568320970692304673817341489687455367169",
        "55464657044963196816950587289035428064568320970692304673817341489687455367168"
      ]
    },
    {
      "x": 80,
      "y": 184,
      "size": 1,
      "price": "2106000000000000000000",
      "reserved": "",
      "assetIds": [
        "55464657044963196816950587289035428064568320970692304673817341489687455367181",
        "55464657044963196816950587289035428064568320970692304673817341489687455367171",
        "55464657044963196816950587289035428064568320970692304673817341489687455367169",
        "55464657044963196816950587289035428064568320970692304673817341489687455367168"
      ]
    },
    {
      "x": 81,
      "y": 184,
      "size": 1,
      "price": "2106000000000000000000",
      "reserved": "",
      "assetIds": [
        "55464657044963196816950587289035428064568320970692304673817341489687455367183",
        "55464657044963196816950587289035428064568320970692304673817341489687455367171",
        "55464657044963196816950587289035428064568320970692304673817341489687455367169",
        "55464657044963196816950587289035428064568320970692304673817341489687455367168"
      ]
    },
    {
      "x": 81,
      "y": 183,
      "size": 1,
      "price": "2106000000000000000000",
      "reserved": "",
      "assetIds": [
        "55464657044963196816950587289035428064568320970692304673817341489687455367172",
        "55464657044963196816950587289035428064568320970692304673817341489687455367170",
        "55464657044963196816950587289035428064568320970692304673817341489687455367169",
        "55464657044963196816950587289035428064568320970692304673817341489687455367168"
      ]
    },
    {
      "x": 81,
      "y": 182,
      "size": 1,
      "price": "2106000000000000000000",
      "reserved": "",
      "assetIds": [
        "55464657044963196816950587289035428064568320970692304673817341489687455367180",
        "55464657044963196816950587289035428064568320970692304673817341489687455367171",
        "55464657044963196816950587289035428064568320970692304673817341489687455367169",
        "55464657044963196816950587289035428064568320970692304673817341489687455367168"
      ]
    },
    {
      "x": 81,
      "y": 181,
      "size": 1,
      "price": "2106000000000000000000",
      "reserved": "",
      "assetIds": [
        "55464657044963196816950587289035428064568320970692304673817341489687455367181",
        "55464657044963196816950587289035428064568320970692304673817341489687455367171",
        "55464657044963196816950587289035428064568320970692304673817341489687455367169",
        "55464657044963196816950587289035428064568320970692304673817341489687455367168"
      ]
    },
    {
      "x": 81,
      "y": 180,
      "size": 1,
      "price": "2106000000000000000000",
      "reserved": "",
      "assetIds": [
        "55464657044963196816950587289035428064568320970692304673817341489687455367182",
        "55464657044963196816950587289035428064568320970692304673817341489687455367171",
        "55464657044963196816950587289035428064568320970692304673817341489687455367169",
        "55464657044963196816950587289035428064568320970692304673817341489687455367168"
      ]
    },
    {
      "x": 82,
      "y": 180,
      "size": 1,
      "price": "2106000000000000000000",
      "reserved": "",
      "assetIds": [
        "55464657044963196816950587289035428064568320970692304673817341489687455367178",
        "55464657044963196816950587289035428064568320970692304673817341489687455367171",
        "55464657044963196816950587289035428064568320970692304673817341489687455367169",
        "55464657044963196816950587289035428064568320970692304673817341489687455367168"
      ]
    },
    {
      "x": 82,
      "y": 179,
      "size": 1,
      "price": "2106000000000000000000",
      "reserved": "",
      "assetIds": [
        "55464657044963196816950587289035428064568320970692304673817341489687455367178",
        "55464657044963196816950587289035428064568320970692304673817341489687455367171",
        "55464657044963196816950587289035428064568320970692304673817341489687455367169",
        "55464657044963196816950587289035428064568320970692304673817341489687455367168"
      ]
    },
    {
      "x": 81,
      "y": 179,
      "size": 1,
      "price": "2106000000000000000000",
      "reserved": "",
      "assetIds": [
        "55464657044963196816950587289035428064568320970692304673817341489687455367177",
        "55464657044963196816950587289035428064568320970692304673817341489687455367170",
        "55464657044963196816950587289035428064568320970692304673817341489687455367169",
        "55464657044963196816950587289035428064568320970692304673817341489687455367168"
      ]
    },
    {
      "x": 80,
      "y": 180,
      "size": 1,
      "price": "2106000000000000000000",
      "reserved": "",
      "assetIds": [
        "55464657044963196816950587289035428064568320970692304673817341489687455367177",
        "55464657044963196816950587289035428064568320970692304673817341489687455367170",
        "55464657044963196816950587289035428064568320970692304673817341489687455367169",
        "55464657044963196816950587289035428064568320970692304673817341489687455367168"
      ]
    },
    {
      "x": 79,
      "y": 179,
      "size": 1,
      "price": "2106000000000000000000",
      "reserved": "",
      "assetIds": [
        "55464657044963196816950587289035428064568320970692304673817341489687455367180",
        "55464657044963196816950587289035428064568320970692304673817341489687455367171",
        "55464657044963196816950587289035428064568320970692304673817341489687455367169",
        "55464657044963196816950587289035428064568320970692304673817341489687455367168"
      ]
    },
    {
      "x": 78,
      "y": 179,
      "size": 1,
      "price": "2106000000000000000000",
      "reserved": "",
      "assetIds": [
        "55464657044963196816950587289035428064568320970692304673817341489687455367183",
        "55464657044963196816950587289035428064568320970692304673817341489687455367171",
        "55464657044963196816950587289035428064568320970692304673817341489687455367169",
        "55464657044963196816950587289035428064568320970692304673817341489687455367168"
      ]
    },
    {
      "x": 78,
      "y": 180,
      "size": 1,
      "price": "2106000000000000000000",
      "reserved": "",
      "assetIds": [
        "55464657044963196816950587289035428064568320970692304673817341489687455367176",
        "55464657044963196816950587289035428064568320970692304673817341489687455367170",
        "55464657044963196816950587289035428064568320970692304673817341489687455367169",
        "55464657044963196816950587289035428064568320970692304673817341489687455367168"
      ]
    },
    {
      "x": 79,
      "y": 180,
      "size": 1,
      "price": "2106000000000000000000",
      "reserved": "",
      "assetIds": [
        "55464657044963196816950587289035428064568320970692304673817341489687455367179",
        "55464657044963196816950587289035428064568320970692304673817341489687455367171",
        "55464657044963196816950587289035428064568320970692304673817341489687455367169",
        "55464657044963196816950587289035428064568320970692304673817341489687455367168"
      ]
    },
    {
      "x": 79,
      "y": 181,
      "size": 1,
      "price": "2106000000000000000000",
      "reserved": "",
      "assetIds": [
        "55464657044963196816950587289035428064568320970692304673817341489687455367183",
        "55464657044963196816950587289035428064568320970692304673817341489687455367171",
        "55464657044963196816950587289035428064568320970692304673817341489687455367169",
        "55464657044963196816950587289035428064568320970692304673817341489687455367168"
      ]
    },
    {
      "x": 80,
      "y": 181,
      "size": 1,
      "price": "2106000000000000000000",
      "reserved": "",
      "assetIds": [
        "55464657044963196816950587289035428064568320970692304673817341489687455367173",
        "55464657044963196816950587289035428064568320970692304673817341489687455367170",
        "55464657044963196816950587289035428064568320970692304673817341489687455367169",
        "55464657044963196816950587289035428064568320970692304673817341489687455367168"
      ]
    },
    {
      "x": 80,
      "y": 182,
      "size": 1,
      "price": "2106000000000000000000",
      "reserved": "",
      "assetIds": [
        "55464657044963196816950587289035428064568320970692304673817341489687455367177",
        "55464657044963196816950587289035428064568320970692304673817341489687455367170",
        "55464657044963196816950587289035428064568320970692304673817341489687455367169",
        "55464657044963196816950587289035428064568320970692304673817341489687455367168"
      ]
    },
    {
      "x": 83,
      "y": 182,
      "size": 1,
      "price": "2106000000000000000000",
      "reserved": "",
      "assetIds": [
        "55464657044963196816950587289035428064568320970692304673817341489687455367183",
        "55464657044963196816950587289035428064568320970692304673817341489687455367171",
        "55464657044963196816950587289035428064568320970692304673817341489687455367169",
        "55464657044963196816950587289035428064568320970692304673817341489687455367168"
      ]
    },
    {
      "x": 84,
      "y": 182,
      "size": 1,
      "price": "2106000000000000000000",
      "reserved": "",
      "assetIds": [
        "55464657044963196816950587289035428064568320970692304673817341489687455367178",
        "55464657044963196816950587289035428064568320970692304673817341489687455367171",
        "55464657044963196816950587289035428064568320970692304673817341489687455367169",
        "55464657044963196816950587289035428064568320970692304673817341489687455367168"
      ]
    },
    {
      "x": 86,
      "y": 182,
      "size": 1,
      "price": "2106000000000000000000",
      "reserved": "",
      "assetIds": [
        "55464657044963196816950587289035428064568320970692304673817341489687455367176",
        "55464657044963196816950587289035428064568320970692304673817341489687455367170",
        "55464657044963196816950587289035428064568320970692304673817341489687455367169",
        "55464657044963196816950587289035428064568320970692304673817341489687455367168"
      ]
    },
    {
      "x": 87,
      "y": 182,
      "size": 1,
      "price": "2106000000000000000000",
      "reserved": "",
      "assetIds": [
        "55464657044963196816950587289035428064568320970692304673817341489687455367177",
        "55464657044963196816950587289035428064568320970692304673817341489687455367170",
        "55464657044963196816950587289035428064568320970692304673817341489687455367169",
        "55464657044963196816950587289035428064568320970692304673817341489687455367168"
      ]
    },
    {
      "x": 88,
      "y": 182,
      "size": 1,
      "price": "2106000000000000000000",
      "reserved": "",
      "assetIds": [
        "55464657044963196816950587289035428064568320970692304673817341489687455367181",
        "55464657044963196816950587289035428064568320970692304673817341489687455367171",
        "55464657044963196816950587289035428064568320970692304673817341489687455367169",
        "55464657044963196816950587289035428064568320970692304673817341489687455367168"
      ]
    },
    {
      "x": 89,
      "y": 182,
      "size": 1,
      "price": "2106000000000000000000",
      "reserved": "",
      "assetIds": [
        "55464657044963196816950587289035428064568320970692304673817341489687455367182",
        "55464657044963196816950587289035428064568320970692304673817341489687455367171",
        "55464657044963196816950587289035428064568320970692304673817341489687455367169",
        "55464657044963196816950587289035428064568320970692304673817341489687455367168"
      ]
    },
    {
      "x": 90,
      "y": 182,
      "size": 1,
      "price": "2106000000000000000000",
      "reserved": "",
      "assetIds": [
        "55464657044963196816950587289035428064568320970692304673817341489687455367181",
        "55464657044963196816950587289035428064568320970692304673817341489687455367171",
        "55464657044963196816950587289035428064568320970692304673817341489687455367169",
        "55464657044963196816950587289035428064568320970692304673817341489687455367168"
      ]
    },
    {
      "x": 91,
      "y": 182,
      "size": 1,
      "price": "2106000000000000000000",
      "reserved": "",
      "assetIds": [
        "55464657044963196816950587289035428064568320970692304673817341489687455367178",
        "55464657044963196816950587289035428064568320970692304673817341489687455367171",
        "55464657044963196816950587289035428064568320970692304673817341489687455367169",
        "55464657044963196816950587289035428064568320970692304673817341489687455367168"
      ]
    },
    {
      "x": 92,
      "y": 181,
      "size": 1,
      "price": "2106000000000000000000",
      "reserved": "",
      "assetIds": [
        "55464657044963196816950587289035428064568320970692304673817341489687455367177",
        "55464657044963196816950587289035428064568320970692304673817341489687455367170",
        "55464657044963196816950587289035428064568320970692304673817341489687455367169",
        "55464657044963196816950587289035428064568320970692304673817341489687455367168"
      ]
    },
    {
      "x": 93,
      "y": 181,
      "size": 1,
      "price": "2106000000000000000000",
      "reserved": "",
      "assetIds": [
        "55464657044963196816950587289035428064568320970692304673817341489687455367173",
        "55464657044963196816950587289035428064568320970692304673817341489687455367170",
        "55464657044963196816950587289035428064568320970692304673817341489687455367169",
        "55464657044963196816950587289035428064568320970692304673817341489687455367168"
      ]
    },
    {
      "x": 94,
      "y": 181,
      "size": 1,
      "price": "2106000000000000000000",
      "reserved": "",
      "assetIds": [
        "55464657044963196816950587289035428064568320970692304673817341489687455367180",
        "55464657044963196816950587289035428064568320970692304673817341489687455367171",
        "55464657044963196816950587289035428064568320970692304673817341489687455367169",
        "55464657044963196816950587289035428064568320970692304673817341489687455367168"
      ]
    },
    {
      "x": 95,
      "y": 181,
      "size": 1,
      "price": "2106000000000000000000",
      "reserved": "",
      "assetIds": [
        "55464657044963196816950587289035428064568320970692304673817341489687455367182",
        "55464657044963196816950587289035428064568320970692304673817341489687455367171",
        "55464657044963196816950587289035428064568320970692304673817341489687455367169",
        "55464657044963196816950587289035428064568320970692304673817341489687455367168"
      ]
    },
    {
      "x": 96,
      "y": 181,
      "size": 1,
      "price": "2106000000000000000000",
      "reserved": "",
      "assetIds": [
        "55464657044963196816950587289035428064568320970692304673817341489687455367174",
        "55464657044963196816950587289035428064568320970692304673817341489687455367170",
        "55464657044963196816950587289035428064568320970692304673817341489687455367169",
        "55464657044963196816950587289035428064568320970692304673817341489687455367168"
      ]
    },
    {
      "x": 97,
      "y": 181,
      "size": 1,
      "price": "2106000000000000000000",
      "reserved": "",
      "assetIds": [
        "55464657044963196816950587289035428064568320970692304673817341489687455367176",
        "55464657044963196816950587289035428064568320970692304673817341489687455367170",
        "55464657044963196816950587289035428064568320970692304673817341489687455367169",
        "55464657044963196816950587289035428064568320970692304673817341489687455367168"
      ]
    },
    {
      "x": 98,
      "y": 181,
      "size": 1,
      "price": "2106000000000000000000",
      "reserved": "",
      "assetIds": [
        "55464657044963196816950587289035428064568320970692304673817341489687455367176",
        "55464657044963196816950587289035428064568320970692304673817341489687455367170",
        "55464657044963196816950587289035428064568320970692304673817341489687455367169",
        "55464657044963196816950587289035428064568320970692304673817341489687455367168"
      ]
    },
    {
      "x": 100,
      "y": 181,
      "size": 1,
      "price": "2106000000000000000000",
      "reserved": "",
      "assetIds": [
        "55464657044963196816950587289035428064568320970692304673817341489687455367178",
        "55464657044963196816950587289035428064568320970692304673817341489687455367171",
        "55464657044963196816950587289035428064568320970692304673817341489687455367169",
        "55464657044963196816950587289035428064568320970692304673817341489687455367168"
      ]
    },
    {
      "x": 100,
      "y": 182,
      "size": 1,
      "price": "2106000000000000000000",
      "reserved": "",
      "assetIds": [
        "55464657044963196816950587289035428064568320970692304673817341489687455367175",
        "55464657044963196816950587289035428064568320970692304673817341489687455367170",
        "55464657044963196816950587289035428064568320970692304673817341489687455367169",
        "55464657044963196816950587289035428064568320970692304673817341489687455367168"
      ]
    },
    {
      "x": 99,
      "y": 182,
      "size": 1,
      "price": "2106000000000000000000",
      "reserved": "",
      "assetIds": [
        "55464657044963196816950587289035428064568320970692304673817341489687455367178",
        "55464657044963196816950587289035428064568320970692304673817341489687455367171",
        "55464657044963196816950587289035428064568320970692304673817341489687455367169",
        "55464657044963196816950587289035428064568320970692304673817341489687455367168"
      ]
    },
    {
      "x": 98,
      "y": 182,
      "size": 1,
      "price": "2106000000000000000000",
      "reserved": "",
      "assetIds": [
        "55464657044963196816950587289035428064568320970692304673817341489687455367183",
        "55464657044963196816950587289035428064568320970692304673817341489687455367171",
        "55464657044963196816950587289035428064568320970692304673817341489687455367169",
        "55464657044963196816950587289035428064568320970692304673817341489687455367168"
      ]
    },
    {
      "x": 97,
      "y": 182,
      "size": 1,
      "price": "2106000000000000000000",
      "reserved": "",
      "assetIds": [
        "55464657044963196816950587289035428064568320970692304673817341489687455367181",
        "55464657044963196816950587289035428064568320970692304673817341489687455367171",
        "55464657044963196816950587289035428064568320970692304673817341489687455367169",
        "55464657044963196816950587289035428064568320970692304673817341489687455367168"
      ]
    },
    {
      "x": 96,
      "y": 182,
      "size": 1,
      "price": "2106000000000000000000",
      "reserved": "",
      "assetIds": [
        "55464657044963196816950587289035428064568320970692304673817341489687455367183",
        "55464657044963196816950587289035428064568320970692304673817341489687455367171",
        "55464657044963196816950587289035428064568320970692304673817341489687455367169",
        "55464657044963196816950587289035428064568320970692304673817341489687455367168"
      ]
    },
    {
      "x": 95,
      "y": 182,
      "size": 1,
      "price": "2106000000000000000000",
      "reserved": "",
      "assetIds": [
        "55464657044963196816950587289035428064568320970692304673817341489687455367175",
        "55464657044963196816950587289035428064568320970692304673817341489687455367170",
        "55464657044963196816950587289035428064568320970692304673817341489687455367169",
        "55464657044963196816950587289035428064568320970692304673817341489687455367168"
      ]
    },
    {
      "x": 93,
      "y": 182,
      "size": 1,
      "price": "2106000000000000000000",
      "reserved": "",
      "assetIds": [
        "55464657044963196816950587289035428064568320970692304673817341489687455367178",
        "55464657044963196816950587289035428064568320970692304673817341489687455367171",
        "55464657044963196816950587289035428064568320970692304673817341489687455367169",
        "55464657044963196816950587289035428064568320970692304673817341489687455367168"
      ]
    },
    {
      "x": 92,
      "y": 182,
      "size": 1,
      "price": "2106000000000000000000",
      "reserved": "",
      "assetIds": [
        "55464657044963196816950587289035428064568320970692304673817341489687455367175",
        "55464657044963196816950587289035428064568320970692304673817341489687455367170",
        "55464657044963196816950587289035428064568320970692304673817341489687455367169",
        "55464657044963196816950587289035428064568320970692304673817341489687455367168"
      ]
    },
    {
      "x": 84,
      "y": 183,
      "size": 1,
      "price": "2106000000000000000000",
      "reserved": "",
      "assetIds": [
        "55464657044963196816950587289035428064568320970692304673817341489687455367172",
        "55464657044963196816950587289035428064568320970692304673817341489687455367170",
        "55464657044963196816950587289035428064568320970692304673817341489687455367169",
        "55464657044963196816950587289035428064568320970692304673817341489687455367168"
      ]
    },
    {
      "x": 83,
      "y": 183,
      "size": 1,
      "price": "2106000000000000000000",
      "reserved": "",
      "assetIds": [
        "55464657044963196816950587289035428064568320970692304673817341489687455367180",
        "55464657044963196816950587289035428064568320970692304673817341489687455367171",
        "55464657044963196816950587289035428064568320970692304673817341489687455367169",
        "55464657044963196816950587289035428064568320970692304673817341489687455367168"
      ]
    },
    {
      "x": 85,
      "y": 183,
      "size": 1,
      "price": "2106000000000000000000",
      "reserved": "",
      "assetIds": [
        "55464657044963196816950587289035428064568320970692304673817341489687455367173",
        "55464657044963196816950587289035428064568320970692304673817341489687455367170",
        "55464657044963196816950587289035428064568320970692304673817341489687455367169",
        "55464657044963196816950587289035428064568320970692304673817341489687455367168"
      ]
    },
    {
      "x": 86,
      "y": 183,
      "size": 1,
      "price": "2106000000000000000000",
      "reserved": "",
      "assetIds": [
        "55464657044963196816950587289035428064568320970692304673817341489687455367175",
        "55464657044963196816950587289035428064568320970692304673817341489687455367170",
        "55464657044963196816950587289035428064568320970692304673817341489687455367169",
        "55464657044963196816950587289035428064568320970692304673817341489687455367168"
      ]
    },
    {
      "x": 87,
      "y": 183,
      "size": 1,
      "price": "2106000000000000000000",
      "reserved": "",
      "assetIds": [
        "55464657044963196816950587289035428064568320970692304673817341489687455367180",
        "55464657044963196816950587289035428064568320970692304673817341489687455367171",
        "55464657044963196816950587289035428064568320970692304673817341489687455367169",
        "55464657044963196816950587289035428064568320970692304673817341489687455367168"
      ]
    },
    {
      "x": 88,
      "y": 183,
      "size": 1,
      "price": "2106000000000000000000",
      "reserved": "",
      "assetIds": [
        "55464657044963196816950587289035428064568320970692304673817341489687455367181",
        "55464657044963196816950587289035428064568320970692304673817341489687455367171",
        "55464657044963196816950587289035428064568320970692304673817341489687455367169",
        "55464657044963196816950587289035428064568320970692304673817341489687455367168"
      ]
    },
    {
      "x": 89,
      "y": 183,
      "size": 1,
      "price": "2106000000000000000000",
      "reserved": "",
      "assetIds": [
        "55464657044963196816950587289035428064568320970692304673817341489687455367181",
        "55464657044963196816950587289035428064568320970692304673817341489687455367171",
        "55464657044963196816950587289035428064568320970692304673817341489687455367169",
        "55464657044963196816950587289035428064568320970692304673817341489687455367168"
      ]
    },
    {
      "x": 90,
      "y": 183,
      "size": 1,
      "price": "2106000000000000000000",
      "reserved": "",
      "assetIds": [
        "55464657044963196816950587289035428064568320970692304673817341489687455367172",
        "55464657044963196816950587289035428064568320970692304673817341489687455367170",
        "55464657044963196816950587289035428064568320970692304673817341489687455367169",
        "55464657044963196816950587289035428064568320970692304673817341489687455367168"
      ]
    },
    {
      "x": 91,
      "y": 183,
      "size": 1,
      "price": "2106000000000000000000",
      "reserved": "",
      "assetIds": [
        "55464657044963196816950587289035428064568320970692304673817341489687455367183",
        "55464657044963196816950587289035428064568320970692304673817341489687455367171",
        "55464657044963196816950587289035428064568320970692304673817341489687455367169",
        "55464657044963196816950587289035428064568320970692304673817341489687455367168"
      ]
    },
    {
      "x": 92,
      "y": 183,
      "size": 1,
      "price": "2106000000000000000000",
      "reserved": "",
      "assetIds": [
        "55464657044963196816950587289035428064568320970692304673817341489687455367182",
        "55464657044963196816950587289035428064568320970692304673817341489687455367171",
        "55464657044963196816950587289035428064568320970692304673817341489687455367169",
        "55464657044963196816950587289035428064568320970692304673817341489687455367168"
      ]
    },
    {
      "x": 93,
      "y": 183,
      "size": 1,
      "price": "2106000000000000000000",
      "reserved": "",
      "assetIds": [
        "55464657044963196816950587289035428064568320970692304673817341489687455367174",
        "55464657044963196816950587289035428064568320970692304673817341489687455367170",
        "55464657044963196816950587289035428064568320970692304673817341489687455367169",
        "55464657044963196816950587289035428064568320970692304673817341489687455367168"
      ]
    },
    {
      "x": 94,
      "y": 183,
      "size": 1,
      "price": "2106000000000000000000",
      "reserved": "",
      "assetIds": [
        "55464657044963196816950587289035428064568320970692304673817341489687455367177",
        "55464657044963196816950587289035428064568320970692304673817341489687455367170",
        "55464657044963196816950587289035428064568320970692304673817341489687455367169",
        "55464657044963196816950587289035428064568320970692304673817341489687455367168"
      ]
    },
    {
      "x": 95,
      "y": 183,
      "size": 1,
      "price": "2106000000000000000000",
      "reserved": "",
      "assetIds": [
        "55464657044963196816950587289035428064568320970692304673817341489687455367181",
        "55464657044963196816950587289035428064568320970692304673817341489687455367171",
        "55464657044963196816950587289035428064568320970692304673817341489687455367169",
        "55464657044963196816950587289035428064568320970692304673817341489687455367168"
      ]
    },
    {
      "x": 96,
      "y": 183,
      "size": 1,
      "price": "2106000000000000000000",
      "reserved": "",
      "assetIds": [
        "55464657044963196816950587289035428064568320970692304673817341489687455367173",
        "55464657044963196816950587289035428064568320970692304673817341489687455367170",
        "55464657044963196816950587289035428064568320970692304673817341489687455367169",
        "55464657044963196816950587289035428064568320970692304673817341489687455367168"
      ]
    },
    {
      "x": 98,
      "y": 183,
      "size": 1,
      "price": "2106000000000000000000",
      "reserved": "",
      "assetIds": [
        "55464657044963196816950587289035428064568320970692304673817341489687455367178",
        "55464657044963196816950587289035428064568320970692304673817341489687455367171",
        "55464657044963196816950587289035428064568320970692304673817341489687455367169",
        "55464657044963196816950587289035428064568320970692304673817341489687455367168"
      ]
    },
    {
      "x": 99,
      "y": 183,
      "size": 1,
      "price": "2106000000000000000000",
      "reserved": "",
      "assetIds": [
        "55464657044963196816950587289035428064568320970692304673817341489687455367176",
        "55464657044963196816950587289035428064568320970692304673817341489687455367170",
        "55464657044963196816950587289035428064568320970692304673817341489687455367169",
        "55464657044963196816950587289035428064568320970692304673817341489687455367168"
      ]
    },
    {
      "x": 98,
      "y": 184,
      "size": 1,
      "price": "2106000000000000000000",
      "reserved": "",
      "assetIds": [
        "55464657044963196816950587289035428064568320970692304673817341489687455367173",
        "55464657044963196816950587289035428064568320970692304673817341489687455367170",
        "55464657044963196816950587289035428064568320970692304673817341489687455367169",
        "55464657044963196816950587289035428064568320970692304673817341489687455367168"
      ]
    },
    {
      "x": 97,
      "y": 184,
      "size": 1,
      "price": "2106000000000000000000",
      "reserved": "",
      "assetIds": [
        "55464657044963196816950587289035428064568320970692304673817341489687455367175",
        "55464657044963196816950587289035428064568320970692304673817341489687455367170",
        "55464657044963196816950587289035428064568320970692304673817341489687455367169",
        "55464657044963196816950587289035428064568320970692304673817341489687455367168"
      ]
    },
    {
      "x": 96,
      "y": 184,
      "size": 1,
      "price": "2106000000000000000000",
      "reserved": "",
      "assetIds": [
        "55464657044963196816950587289035428064568320970692304673817341489687455367175",
        "55464657044963196816950587289035428064568320970692304673817341489687455367170",
        "55464657044963196816950587289035428064568320970692304673817341489687455367169",
        "55464657044963196816950587289035428064568320970692304673817341489687455367168"
      ]
    },
    {
      "x": 94,
      "y": 184,
      "size": 1,
      "price": "2106000000000000000000",
      "reserved": "",
      "assetIds": [
        "55464657044963196816950587289035428064568320970692304673817341489687455367179",
        "55464657044963196816950587289035428064568320970692304673817341489687455367171",
        "55464657044963196816950587289035428064568320970692304673817341489687455367169",
        "55464657044963196816950587289035428064568320970692304673817341489687455367168"
      ]
    },
    {
      "x": 93,
      "y": 184,
      "size": 1,
      "price": "2106000000000000000000",
      "reserved": "",
      "assetIds": [
        "55464657044963196816950587289035428064568320970692304673817341489687455367183",
        "55464657044963196816950587289035428064568320970692304673817341489687455367171",
        "55464657044963196816950587289035428064568320970692304673817341489687455367169",
        "55464657044963196816950587289035428064568320970692304673817341489687455367168"
      ]
    },
    {
      "x": 92,
      "y": 184,
      "size": 1,
      "price": "2106000000000000000000",
      "reserved": "",
      "assetIds": [
        "55464657044963196816950587289035428064568320970692304673817341489687455367182",
        "55464657044963196816950587289035428064568320970692304673817341489687455367171",
        "55464657044963196816950587289035428064568320970692304673817341489687455367169",
        "55464657044963196816950587289035428064568320970692304673817341489687455367168"
      ]
    },
    {
      "x": 91,
      "y": 184,
      "size": 1,
      "price": "2106000000000000000000",
      "reserved": "",
      "assetIds": [
        "55464657044963196816950587289035428064568320970692304673817341489687455367176",
        "55464657044963196816950587289035428064568320970692304673817341489687455367170",
        "55464657044963196816950587289035428064568320970692304673817341489687455367169",
        "55464657044963196816950587289035428064568320970692304673817341489687455367168"
      ]
    },
    {
      "x": 89,
      "y": 184,
      "size": 1,
      "price": "2106000000000000000000",
      "reserved": "",
      "assetIds": [
        "55464657044963196816950587289035428064568320970692304673817341489687455367172",
        "55464657044963196816950587289035428064568320970692304673817341489687455367170",
        "55464657044963196816950587289035428064568320970692304673817341489687455367169",
        "55464657044963196816950587289035428064568320970692304673817341489687455367168"
      ]
    },
    {
      "x": 87,
      "y": 184,
      "size": 1,
      "price": "2106000000000000000000",
      "reserved": "",
      "assetIds": [
        "55464657044963196816950587289035428064568320970692304673817341489687455367183",
        "55464657044963196816950587289035428064568320970692304673817341489687455367171",
        "55464657044963196816950587289035428064568320970692304673817341489687455367169",
        "55464657044963196816950587289035428064568320970692304673817341489687455367168"
      ]
    },
    {
      "x": 86,
      "y": 184,
      "size": 1,
      "price": "2106000000000000000000",
      "reserved": "",
      "assetIds": [
        "55464657044963196816950587289035428064568320970692304673817341489687455367177",
        "55464657044963196816950587289035428064568320970692304673817341489687455367170",
        "55464657044963196816950587289035428064568320970692304673817341489687455367169",
        "55464657044963196816950587289035428064568320970692304673817341489687455367168"
      ]
    },
    {
      "x": 85,
      "y": 184,
      "size": 1,
      "price": "2106000000000000000000",
      "reserved": "",
      "assetIds": [
        "55464657044963196816950587289035428064568320970692304673817341489687455367182",
        "55464657044963196816950587289035428064568320970692304673817341489687455367171",
        "55464657044963196816950587289035428064568320970692304673817341489687455367169",
        "55464657044963196816950587289035428064568320970692304673817341489687455367168"
      ]
    },
    {
      "x": 83,
      "y": 184,
      "size": 1,
      "price": "2106000000000000000000",
      "reserved": "",
      "assetIds": [
        "55464657044963196816950587289035428064568320970692304673817341489687455367182",
        "55464657044963196816950587289035428064568320970692304673817341489687455367171",
        "55464657044963196816950587289035428064568320970692304673817341489687455367169",
        "55464657044963196816950587289035428064568320970692304673817341489687455367168"
      ]
    },
    {
      "x": 87,
      "y": 185,
      "size": 1,
      "price": "2106000000000000000000",
      "reserved": "",
      "assetIds": [
        "55464657044963196816950587289035428064568320970692304673817341489687455367180",
        "55464657044963196816950587289035428064568320970692304673817341489687455367171",
        "55464657044963196816950587289035428064568320970692304673817341489687455367169",
        "55464657044963196816950587289035428064568320970692304673817341489687455367168"
      ]
    },
    {
      "x": 87,
      "y": 186,
      "size": 1,
      "price": "2106000000000000000000",
      "reserved": "",
      "assetIds": [
        "55464657044963196816950587289035428064568320970692304673817341489687455367175",
        "55464657044963196816950587289035428064568320970692304673817341489687455367170",
        "55464657044963196816950587289035428064568320970692304673817341489687455367169",
        "55464657044963196816950587289035428064568320970692304673817341489687455367168"
      ]
    },
    {
      "x": 86,
      "y": 186,
      "size": 1,
      "price": "2106000000000000000000",
      "reserved": "",
      "assetIds": [
        "55464657044963196816950587289035428064568320970692304673817341489687455367182",
        "55464657044963196816950587289035428064568320970692304673817341489687455367171",
        "55464657044963196816950587289035428064568320970692304673817341489687455367169",
        "55464657044963196816950587289035428064568320970692304673817341489687455367168"
      ]
    },
    {
      "x": 85,
      "y": 185,
      "size": 1,
      "price": "2106000000000000000000",
      "reserved": "",
      "assetIds": [
        "55464657044963196816950587289035428064568320970692304673817341489687455367183",
        "55464657044963196816950587289035428064568320970692304673817341489687455367171",
        "55464657044963196816950587289035428064568320970692304673817341489687455367169",
        "55464657044963196816950587289035428064568320970692304673817341489687455367168"
      ]
    },
    {
      "x": 99,
      "y": 184,
      "size": 1,
      "price": "2106000000000000000000",
      "reserved": "",
      "assetIds": [
        "55464657044963196816950587289035428064568320970692304673817341489687455367173",
        "55464657044963196816950587289035428064568320970692304673817341489687455367170",
        "55464657044963196816950587289035428064568320970692304673817341489687455367169",
        "55464657044963196816950587289035428064568320970692304673817341489687455367168"
      ]
    },
    {
      "x": 99,
      "y": 180,
      "size": 1,
      "price": "2106000000000000000000",
      "reserved": "",
      "assetIds": [
        "55464657044963196816950587289035428064568320970692304673817341489687455367183",
        "55464657044963196816950587289035428064568320970692304673817341489687455367171",
        "55464657044963196816950587289035428064568320970692304673817341489687455367169",
        "55464657044963196816950587289035428064568320970692304673817341489687455367168"
      ]
    },
    {
      "x": 100,
      "y": 180,
      "size": 1,
      "price": "2106000000000000000000",
      "reserved": "",
      "assetIds": [
        "55464657044963196816950587289035428064568320970692304673817341489687455367173",
        "55464657044963196816950587289035428064568320970692304673817341489687455367170",
        "55464657044963196816950587289035428064568320970692304673817341489687455367169",
        "55464657044963196816950587289035428064568320970692304673817341489687455367168"
      ]
    },
    {
      "x": 100,
      "y": 179,
      "size": 1,
      "price": "2106000000000000000000",
      "reserved": "",
      "assetIds": [
        "55464657044963196816950587289035428064568320970692304673817341489687455367172",
        "55464657044963196816950587289035428064568320970692304673817341489687455367170",
        "55464657044963196816950587289035428064568320970692304673817341489687455367169",
        "55464657044963196816950587289035428064568320970692304673817341489687455367168"
      ]
    },
    {
      "x": 100,
      "y": 178,
      "size": 1,
      "price": "2106000000000000000000",
      "reserved": "",
      "assetIds": [
        "55464657044963196816950587289035428064568320970692304673817341489687455367174",
        "55464657044963196816950587289035428064568320970692304673817341489687455367170",
        "55464657044963196816950587289035428064568320970692304673817341489687455367169",
        "55464657044963196816950587289035428064568320970692304673817341489687455367168"
      ]
    },
    {
      "x": 100,
      "y": 177,
      "size": 1,
      "price": "2106000000000000000000",
      "reserved": "",
      "assetIds": [
        "55464657044963196816950587289035428064568320970692304673817341489687455367173",
        "55464657044963196816950587289035428064568320970692304673817341489687455367170",
        "55464657044963196816950587289035428064568320970692304673817341489687455367169",
        "55464657044963196816950587289035428064568320970692304673817341489687455367168"
      ]
    },
    {
      "x": 100,
      "y": 176,
      "size": 1,
      "price": "2106000000000000000000",
      "reserved": "",
      "assetIds": [
        "55464657044963196816950587289035428064568320970692304673817341489687455367174",
        "55464657044963196816950587289035428064568320970692304673817341489687455367170",
        "55464657044963196816950587289035428064568320970692304673817341489687455367169",
        "55464657044963196816950587289035428064568320970692304673817341489687455367168"
      ]
    },
    {
      "x": 100,
      "y": 175,
      "size": 1,
      "price": "2106000000000000000000",
      "reserved": "",
      "assetIds": [
        "55464657044963196816950587289035428064568320970692304673817341489687455367172",
        "55464657044963196816950587289035428064568320970692304673817341489687455367170",
        "55464657044963196816950587289035428064568320970692304673817341489687455367169",
        "55464657044963196816950587289035428064568320970692304673817341489687455367168"
      ]
    },
    {
      "x": 100,
      "y": 174,
      "size": 1,
      "price": "2106000000000000000000",
      "reserved": "",
      "assetIds": [
        "55464657044963196816950587289035428064568320970692304673817341489687455367179",
        "55464657044963196816950587289035428064568320970692304673817341489687455367171",
        "55464657044963196816950587289035428064568320970692304673817341489687455367169",
        "55464657044963196816950587289035428064568320970692304673817341489687455367168"
      ]
    },
    {
      "x": 97,
      "y": 172,
      "size": 1,
      "price": "2106000000000000000000",
      "reserved": "",
      "assetIds": [
        "55464657044963196816950587289035428064568320970692304673817341489687455367175",
        "55464657044963196816950587289035428064568320970692304673817341489687455367170",
        "55464657044963196816950587289035428064568320970692304673817341489687455367169",
        "55464657044963196816950587289035428064568320970692304673817341489687455367168"
      ]
    },
    {
      "x": 97,
      "y": 171,
      "size": 1,
      "price": "2106000000000000000000",
      "reserved": "",
      "assetIds": [
        "55464657044963196816950587289035428064568320970692304673817341489687455367172",
        "55464657044963196816950587289035428064568320970692304673817341489687455367170",
        "55464657044963196816950587289035428064568320970692304673817341489687455367169",
        "55464657044963196816950587289035428064568320970692304673817341489687455367168"
      ]
    },
    {
      "x": 96,
      "y": 170,
      "size": 1,
      "price": "2106000000000000000000",
      "reserved": "",
      "assetIds": [
        "55464657044963196816950587289035428064568320970692304673817341489687455367173",
        "55464657044963196816950587289035428064568320970692304673817341489687455367170",
        "55464657044963196816950587289035428064568320970692304673817341489687455367169",
        "55464657044963196816950587289035428064568320970692304673817341489687455367168"
      ]
    },
    {
      "x": 96,
      "y": 169,
      "size": 1,
      "price": "2106000000000000000000",
      "reserved": "",
      "assetIds": [
        "55464657044963196816950587289035428064568320970692304673817341489687455367172",
        "55464657044963196816950587289035428064568320970692304673817341489687455367170",
        "55464657044963196816950587289035428064568320970692304673817341489687455367169",
        "55464657044963196816950587289035428064568320970692304673817341489687455367168"
      ]
    },
    {
      "x": 96,
      "y": 168,
      "size": 1,
      "price": "2106000000000000000000",
      "reserved": "",
      "assetIds": [
        "55464657044963196816950587289035428064568320970692304673817341489687455367176",
        "55464657044963196816950587289035428064568320970692304673817341489687455367170",
        "55464657044963196816950587289035428064568320970692304673817341489687455367169",
        "55464657044963196816950587289035428064568320970692304673817341489687455367168"
      ]
    },
    {
      "x": 97,
      "y": 168,
      "size": 1,
      "price": "2106000000000000000000",
      "reserved": "",
      "assetIds": [
        "55464657044963196816950587289035428064568320970692304673817341489687455367175",
        "55464657044963196816950587289035428064568320970692304673817341489687455367170",
        "55464657044963196816950587289035428064568320970692304673817341489687455367169",
        "55464657044963196816950587289035428064568320970692304673817341489687455367168"
      ]
    },
    {
      "x": 97,
      "y": 169,
      "size": 1,
      "price": "2106000000000000000000",
      "reserved": "",
      "assetIds": [
        "55464657044963196816950587289035428064568320970692304673817341489687455367174",
        "55464657044963196816950587289035428064568320970692304673817341489687455367170",
        "55464657044963196816950587289035428064568320970692304673817341489687455367169",
        "55464657044963196816950587289035428064568320970692304673817341489687455367168"
      ]
    },
    {
      "x": 96,
      "y": 171,
      "size": 1,
      "price": "2106000000000000000000",
      "reserved": "",
      "assetIds": [
        "55464657044963196816950587289035428064568320970692304673817341489687455367181",
        "55464657044963196816950587289035428064568320970692304673817341489687455367171",
        "55464657044963196816950587289035428064568320970692304673817341489687455367169",
        "55464657044963196816950587289035428064568320970692304673817341489687455367168"
      ]
    },
    {
      "x": 96,
      "y": 172,
      "size": 1,
      "price": "2106000000000000000000",
      "reserved": "",
      "assetIds": [
        "55464657044963196816950587289035428064568320970692304673817341489687455367175",
        "55464657044963196816950587289035428064568320970692304673817341489687455367170",
        "55464657044963196816950587289035428064568320970692304673817341489687455367169",
        "55464657044963196816950587289035428064568320970692304673817341489687455367168"
      ]
    },
    {
      "x": 97,
      "y": 173,
      "size": 1,
      "price": "2106000000000000000000",
      "reserved": "",
      "assetIds": [
        "55464657044963196816950587289035428064568320970692304673817341489687455367175",
        "55464657044963196816950587289035428064568320970692304673817341489687455367170",
        "55464657044963196816950587289035428064568320970692304673817341489687455367169",
        "55464657044963196816950587289035428064568320970692304673817341489687455367168"
      ]
    },
    {
      "x": 97,
      "y": 174,
      "size": 1,
      "price": "2106000000000000000000",
      "reserved": "",
      "assetIds": [
        "55464657044963196816950587289035428064568320970692304673817341489687455367177",
        "55464657044963196816950587289035428064568320970692304673817341489687455367170",
        "55464657044963196816950587289035428064568320970692304673817341489687455367169",
        "55464657044963196816950587289035428064568320970692304673817341489687455367168"
      ]
    },
    {
      "x": 96,
      "y": 174,
      "size": 1,
      "price": "2106000000000000000000",
      "reserved": "",
      "assetIds": [
        "55464657044963196816950587289035428064568320970692304673817341489687455367175",
        "55464657044963196816950587289035428064568320970692304673817341489687455367170",
        "55464657044963196816950587289035428064568320970692304673817341489687455367169",
        "55464657044963196816950587289035428064568320970692304673817341489687455367168"
      ]
    },
    {
      "x": 96,
      "y": 175,
      "size": 1,
      "price": "2106000000000000000000",
      "reserved": "",
      "assetIds": [
        "55464657044963196816950587289035428064568320970692304673817341489687455367180",
        "55464657044963196816950587289035428064568320970692304673817341489687455367171",
        "55464657044963196816950587289035428064568320970692304673817341489687455367169",
        "55464657044963196816950587289035428064568320970692304673817341489687455367168"
      ]
    },
    {
      "x": 96,
      "y": 176,
      "size": 1,
      "price": "2106000000000000000000",
      "reserved": "",
      "assetIds": [
        "55464657044963196816950587289035428064568320970692304673817341489687455367174",
        "55464657044963196816950587289035428064568320970692304673817341489687455367170",
        "55464657044963196816950587289035428064568320970692304673817341489687455367169",
        "55464657044963196816950587289035428064568320970692304673817341489687455367168"
      ]
    },
    {
      "x": 96,
      "y": 177,
      "size": 1,
      "price": "2106000000000000000000",
      "reserved": "",
      "assetIds": [
        "55464657044963196816950587289035428064568320970692304673817341489687455367183",
        "55464657044963196816950587289035428064568320970692304673817341489687455367171",
        "55464657044963196816950587289035428064568320970692304673817341489687455367169",
        "55464657044963196816950587289035428064568320970692304673817341489687455367168"
      ]
    },
    {
      "x": 97,
      "y": 175,
      "size": 1,
      "price": "2106000000000000000000",
      "reserved": "",
      "assetIds": [
        "55464657044963196816950587289035428064568320970692304673817341489687455367173",
        "55464657044963196816950587289035428064568320970692304673817341489687455367170",
        "55464657044963196816950587289035428064568320970692304673817341489687455367169",
        "55464657044963196816950587289035428064568320970692304673817341489687455367168"
      ]
    },
    {
      "x": 100,
      "y": 173,
      "size": 1,
      "price": "2106000000000000000000",
      "reserved": "",
      "assetIds": [
        "55464657044963196816950587289035428064568320970692304673817341489687455367182",
        "55464657044963196816950587289035428064568320970692304673817341489687455367171",
        "55464657044963196816950587289035428064568320970692304673817341489687455367169",
        "55464657044963196816950587289035428064568320970692304673817341489687455367168"
      ]
    },
    {
      "x": 96,
      "y": 173,
      "size": 1,
      "price": "2106000000000000000000",
      "reserved": "",
      "assetIds": [
        "55464657044963196816950587289035428064568320970692304673817341489687455367174",
        "55464657044963196816950587289035428064568320970692304673817341489687455367170",
        "55464657044963196816950587289035428064568320970692304673817341489687455367169",
        "55464657044963196816950587289035428064568320970692304673817341489687455367168"
      ]
    },
    {
      "x": 97,
      "y": 177,
      "size": 1,
      "price": "2106000000000000000000",
      "reserved": "",
      "assetIds": [
        "55464657044963196816950587289035428064568320970692304673817341489687455367172",
        "55464657044963196816950587289035428064568320970692304673817341489687455367170",
        "55464657044963196816950587289035428064568320970692304673817341489687455367169",
        "55464657044963196816950587289035428064568320970692304673817341489687455367168"
      ]
    },
    {
      "x": 97,
      "y": 178,
      "size": 1,
      "price": "2106000000000000000000",
      "reserved": "",
      "assetIds": [
        "55464657044963196816950587289035428064568320970692304673817341489687455367178",
        "55464657044963196816950587289035428064568320970692304673817341489687455367171",
        "55464657044963196816950587289035428064568320970692304673817341489687455367169",
        "55464657044963196816950587289035428064568320970692304673817341489687455367168"
      ]
    },
    {
      "x": 97,
      "y": 180,
      "size": 1,
      "price": "2106000000000000000000",
      "reserved": "",
      "assetIds": [
        "55464657044963196816950587289035428064568320970692304673817341489687455367181",
        "55464657044963196816950587289035428064568320970692304673817341489687455367171",
        "55464657044963196816950587289035428064568320970692304673817341489687455367169",
        "55464657044963196816950587289035428064568320970692304673817341489687455367168"
      ]
    },
    {
      "x": 98,
      "y": 180,
      "size": 1,
      "price": "2106000000000000000000",
      "reserved": "",
      "assetIds": [
        "55464657044963196816950587289035428064568320970692304673817341489687455367175",
        "55464657044963196816950587289035428064568320970692304673817341489687455367170",
        "55464657044963196816950587289035428064568320970692304673817341489687455367169",
        "55464657044963196816950587289035428064568320970692304673817341489687455367168"
      ]
    },
    {
      "x": 98,
      "y": 179,
      "size": 1,
      "price": "2106000000000000000000",
      "reserved": "",
      "assetIds": [
        "55464657044963196816950587289035428064568320970692304673817341489687455367176",
        "55464657044963196816950587289035428064568320970692304673817341489687455367170",
        "55464657044963196816950587289035428064568320970692304673817341489687455367169",
        "55464657044963196816950587289035428064568320970692304673817341489687455367168"
      ]
    },
    {
      "x": 98,
      "y": 178,
      "size": 1,
      "price": "2106000000000000000000",
      "reserved": "",
      "assetIds": [
        "55464657044963196816950587289035428064568320970692304673817341489687455367183",
        "55464657044963196816950587289035428064568320970692304673817341489687455367171",
        "55464657044963196816950587289035428064568320970692304673817341489687455367169",
        "55464657044963196816950587289035428064568320970692304673817341489687455367168"
      ]
    },
    {
      "x": 98,
      "y": 177,
      "size": 1,
      "price": "2106000000000000000000",
      "reserved": "",
      "assetIds": [
        "55464657044963196816950587289035428064568320970692304673817341489687455367173",
        "55464657044963196816950587289035428064568320970692304673817341489687455367170",
        "55464657044963196816950587289035428064568320970692304673817341489687455367169",
        "55464657044963196816950587289035428064568320970692304673817341489687455367168"
      ]
    },
    {
      "x": 98,
      "y": 176,
      "size": 1,
      "price": "2106000000000000000000",
      "reserved": "",
      "assetIds": [
        "55464657044963196816950587289035428064568320970692304673817341489687455367180",
        "55464657044963196816950587289035428064568320970692304673817341489687455367171",
        "55464657044963196816950587289035428064568320970692304673817341489687455367169",
        "55464657044963196816950587289035428064568320970692304673817341489687455367168"
      ]
    },
    {
      "x": 98,
      "y": 175,
      "size": 1,
      "price": "2106000000000000000000",
      "reserved": "",
      "assetIds": [
        "55464657044963196816950587289035428064568320970692304673817341489687455367176",
        "55464657044963196816950587289035428064568320970692304673817341489687455367170",
        "55464657044963196816950587289035428064568320970692304673817341489687455367169",
        "55464657044963196816950587289035428064568320970692304673817341489687455367168"
      ]
    },
    {
      "x": 99,
      "y": 176,
      "size": 1,
      "price": "2106000000000000000000",
      "reserved": "",
      "assetIds": [
        "55464657044963196816950587289035428064568320970692304673817341489687455367176",
        "55464657044963196816950587289035428064568320970692304673817341489687455367170",
        "55464657044963196816950587289035428064568320970692304673817341489687455367169",
        "55464657044963196816950587289035428064568320970692304673817341489687455367168"
      ]
    },
    {
      "x": 99,
      "y": 177,
      "size": 1,
      "price": "2106000000000000000000",
      "reserved": "",
      "assetIds": [
        "55464657044963196816950587289035428064568320970692304673817341489687455367177",
        "55464657044963196816950587289035428064568320970692304673817341489687455367170",
        "55464657044963196816950587289035428064568320970692304673817341489687455367169",
        "55464657044963196816950587289035428064568320970692304673817341489687455367168"
      ]
    },
    {
      "x": 99,
      "y": 179,
      "size": 1,
      "price": "2106000000000000000000",
      "reserved": "",
      "assetIds": [
        "55464657044963196816950587289035428064568320970692304673817341489687455367182",
        "55464657044963196816950587289035428064568320970692304673817341489687455367171",
        "55464657044963196816950587289035428064568320970692304673817341489687455367169",
        "55464657044963196816950587289035428064568320970692304673817341489687455367168"
      ]
    },
    {
      "x": 96,
      "y": 179,
      "size": 1,
      "price": "2106000000000000000000",
      "reserved": "",
      "assetIds": [
        "55464657044963196816950587289035428064568320970692304673817341489687455367179",
        "55464657044963196816950587289035428064568320970692304673817341489687455367171",
        "55464657044963196816950587289035428064568320970692304673817341489687455367169",
        "55464657044963196816950587289035428064568320970692304673817341489687455367168"
      ]
    },
    {
      "x": 96,
      "y": 178,
      "size": 1,
      "price": "2106000000000000000000",
      "reserved": "",
      "assetIds": [
        "55464657044963196816950587289035428064568320970692304673817341489687455367180",
        "55464657044963196816950587289035428064568320970692304673817341489687455367171",
        "55464657044963196816950587289035428064568320970692304673817341489687455367169",
        "55464657044963196816950587289035428064568320970692304673817341489687455367168"
      ]
    },
    {
      "x": 96,
      "y": 180,
      "size": 1,
      "price": "2106000000000000000000",
      "reserved": "",
      "assetIds": [
        "55464657044963196816950587289035428064568320970692304673817341489687455367183",
        "55464657044963196816950587289035428064568320970692304673817341489687455367171",
        "55464657044963196816950587289035428064568320970692304673817341489687455367169",
        "55464657044963196816950587289035428064568320970692304673817341489687455367168"
      ]
    },
    {
      "x": 95,
      "y": 180,
      "size": 1,
      "price": "2106000000000000000000",
      "reserved": "",
      "assetIds": [
        "55464657044963196816950587289035428064568320970692304673817341489687455367183",
        "55464657044963196816950587289035428064568320970692304673817341489687455367171",
        "55464657044963196816950587289035428064568320970692304673817341489687455367169",
        "55464657044963196816950587289035428064568320970692304673817341489687455367168"
      ]
    },
    {
      "x": 94,
      "y": 180,
      "size": 1,
      "price": "2106000000000000000000",
      "reserved": "",
      "assetIds": [
        "55464657044963196816950587289035428064568320970692304673817341489687455367179",
        "55464657044963196816950587289035428064568320970692304673817341489687455367171",
        "55464657044963196816950587289035428064568320970692304673817341489687455367169",
        "55464657044963196816950587289035428064568320970692304673817341489687455367168"
      ]
    },
    {
      "x": 93,
      "y": 180,
      "size": 1,
      "price": "2106000000000000000000",
      "reserved": "",
      "assetIds": [
        "55464657044963196816950587289035428064568320970692304673817341489687455367178",
        "55464657044963196816950587289035428064568320970692304673817341489687455367171",
        "55464657044963196816950587289035428064568320970692304673817341489687455367169",
        "55464657044963196816950587289035428064568320970692304673817341489687455367168"
      ]
    },
    {
      "x": 92,
      "y": 180,
      "size": 1,
      "price": "2106000000000000000000",
      "reserved": "",
      "assetIds": [
        "55464657044963196816950587289035428064568320970692304673817341489687455367183",
        "55464657044963196816950587289035428064568320970692304673817341489687455367171",
        "55464657044963196816950587289035428064568320970692304673817341489687455367169",
        "55464657044963196816950587289035428064568320970692304673817341489687455367168"
      ]
    },
    {
      "x": 91,
      "y": 180,
      "size": 1,
      "price": "2106000000000000000000",
      "reserved": "",
      "assetIds": [
        "55464657044963196816950587289035428064568320970692304673817341489687455367177",
        "55464657044963196816950587289035428064568320970692304673817341489687455367170",
        "55464657044963196816950587289035428064568320970692304673817341489687455367169",
        "55464657044963196816950587289035428064568320970692304673817341489687455367168"
      ]
    },
    {
      "x": 90,
      "y": 181,
      "size": 1,
      "price": "2106000000000000000000",
      "reserved": "",
      "assetIds": [
        "55464657044963196816950587289035428064568320970692304673817341489687455367172",
        "55464657044963196816950587289035428064568320970692304673817341489687455367170",
        "55464657044963196816950587289035428064568320970692304673817341489687455367169",
        "55464657044963196816950587289035428064568320970692304673817341489687455367168"
      ]
    },
    {
      "x": 88,
      "y": 181,
      "size": 1,
      "price": "2106000000000000000000",
      "reserved": "",
      "assetIds": [
        "55464657044963196816950587289035428064568320970692304673817341489687455367176",
        "55464657044963196816950587289035428064568320970692304673817341489687455367170",
        "55464657044963196816950587289035428064568320970692304673817341489687455367169",
        "55464657044963196816950587289035428064568320970692304673817341489687455367168"
      ]
    },
    {
      "x": 87,
      "y": 181,
      "size": 1,
      "price": "2106000000000000000000",
      "reserved": "",
      "assetIds": [
        "55464657044963196816950587289035428064568320970692304673817341489687455367172",
        "55464657044963196816950587289035428064568320970692304673817341489687455367170",
        "55464657044963196816950587289035428064568320970692304673817341489687455367169",
        "55464657044963196816950587289035428064568320970692304673817341489687455367168"
      ]
    },
    {
      "x": 86,
      "y": 181,
      "size": 1,
      "price": "2106000000000000000000",
      "reserved": "",
      "assetIds": [
        "55464657044963196816950587289035428064568320970692304673817341489687455367182",
        "55464657044963196816950587289035428064568320970692304673817341489687455367171",
        "55464657044963196816950587289035428064568320970692304673817341489687455367169",
        "55464657044963196816950587289035428064568320970692304673817341489687455367168"
      ]
    },
    {
      "x": 86,
      "y": 180,
      "size": 1,
      "price": "2106000000000000000000",
      "reserved": "",
      "assetIds": [
        "55464657044963196816950587289035428064568320970692304673817341489687455367179",
        "55464657044963196816950587289035428064568320970692304673817341489687455367171",
        "55464657044963196816950587289035428064568320970692304673817341489687455367169",
        "55464657044963196816950587289035428064568320970692304673817341489687455367168"
      ]
    },
    {
      "x": 85,
      "y": 180,
      "size": 1,
      "price": "2106000000000000000000",
      "reserved": "",
      "assetIds": [
        "55464657044963196816950587289035428064568320970692304673817341489687455367183",
        "55464657044963196816950587289035428064568320970692304673817341489687455367171",
        "55464657044963196816950587289035428064568320970692304673817341489687455367169",
        "55464657044963196816950587289035428064568320970692304673817341489687455367168"
      ]
    },
    {
      "x": 84,
      "y": 180,
      "size": 1,
      "price": "2106000000000000000000",
      "reserved": "",
      "assetIds": [
        "55464657044963196816950587289035428064568320970692304673817341489687455367175",
        "55464657044963196816950587289035428064568320970692304673817341489687455367170",
        "55464657044963196816950587289035428064568320970692304673817341489687455367169",
        "55464657044963196816950587289035428064568320970692304673817341489687455367168"
      ]
    },
    {
      "x": 84,
      "y": 181,
      "size": 1,
      "price": "2106000000000000000000",
      "reserved": "",
      "assetIds": [
        "55464657044963196816950587289035428064568320970692304673817341489687455367176",
        "55464657044963196816950587289035428064568320970692304673817341489687455367170",
        "55464657044963196816950587289035428064568320970692304673817341489687455367169",
        "55464657044963196816950587289035428064568320970692304673817341489687455367168"
      ]
    },
    {
      "x": 83,
      "y": 181,
      "size": 1,
      "price": "2106000000000000000000",
      "reserved": "",
      "assetIds": [
        "55464657044963196816950587289035428064568320970692304673817341489687455367178",
        "55464657044963196816950587289035428064568320970692304673817341489687455367171",
        "55464657044963196816950587289035428064568320970692304673817341489687455367169",
        "55464657044963196816950587289035428064568320970692304673817341489687455367168"
      ]
    },
    {
      "x": 85,
      "y": 181,
      "size": 1,
      "price": "2106000000000000000000",
      "reserved": "",
      "assetIds": [
        "55464657044963196816950587289035428064568320970692304673817341489687455367177",
        "55464657044963196816950587289035428064568320970692304673817341489687455367170",
        "55464657044963196816950587289035428064568320970692304673817341489687455367169",
        "55464657044963196816950587289035428064568320970692304673817341489687455367168"
      ]
    },
    {
      "x": 87,
      "y": 180,
      "size": 1,
      "price": "2106000000000000000000",
      "reserved": "",
      "assetIds": [
        "55464657044963196816950587289035428064568320970692304673817341489687455367182",
        "55464657044963196816950587289035428064568320970692304673817341489687455367171",
        "55464657044963196816950587289035428064568320970692304673817341489687455367169",
        "55464657044963196816950587289035428064568320970692304673817341489687455367168"
      ]
    },
    {
      "x": 88,
      "y": 180,
      "size": 1,
      "price": "2106000000000000000000",
      "reserved": "",
      "assetIds": [
        "55464657044963196816950587289035428064568320970692304673817341489687455367176",
        "55464657044963196816950587289035428064568320970692304673817341489687455367170",
        "55464657044963196816950587289035428064568320970692304673817341489687455367169",
        "55464657044963196816950587289035428064568320970692304673817341489687455367168"
      ]
    },
    {
      "x": 89,
      "y": 180,
      "size": 1,
      "price": "2106000000000000000000",
      "reserved": "",
      "assetIds": [
        "55464657044963196816950587289035428064568320970692304673817341489687455367181",
        "55464657044963196816950587289035428064568320970692304673817341489687455367171",
        "55464657044963196816950587289035428064568320970692304673817341489687455367169",
        "55464657044963196816950587289035428064568320970692304673817341489687455367168"
      ]
    },
    {
      "x": 90,
      "y": 180,
      "size": 1,
      "price": "2106000000000000000000",
      "reserved": "",
      "assetIds": [
        "55464657044963196816950587289035428064568320970692304673817341489687455367179",
        "55464657044963196816950587289035428064568320970692304673817341489687455367171",
        "55464657044963196816950587289035428064568320970692304673817341489687455367169",
        "55464657044963196816950587289035428064568320970692304673817341489687455367168"
      ]
    },
    {
      "x": 91,
      "y": 181,
      "size": 1,
      "price": "2106000000000000000000",
      "reserved": "",
      "assetIds": [
        "55464657044963196816950587289035428064568320970692304673817341489687455367182",
        "55464657044963196816950587289035428064568320970692304673817341489687455367171",
        "55464657044963196816950587289035428064568320970692304673817341489687455367169",
        "55464657044963196816950587289035428064568320970692304673817341489687455367168"
      ]
    },
    {
      "x": 83,
      "y": 160,
      "size": 1,
      "price": "2106000000000000000000",
      "reserved": "",
      "assetIds": [
        "55464657044963196816950587289035428064568320970692304673817341489687455367179",
        "55464657044963196816950587289035428064568320970692304673817341489687455367171",
        "55464657044963196816950587289035428064568320970692304673817341489687455367169",
        "55464657044963196816950587289035428064568320970692304673817341489687455367168"
      ]
    },
    {
      "x": 72,
      "y": 124,
      "size": 1,
      "price": "2106000000000000000000",
      "reserved": "",
      "assetIds": [
        "55464657044963196816950587289035428064568320970692304673817341489687455367183",
        "55464657044963196816950587289035428064568320970692304673817341489687455367171",
        "55464657044963196816950587289035428064568320970692304673817341489687455367169",
        "55464657044963196816950587289035428064568320970692304673817341489687455367168"
      ]
    },
    {
      "x": 73,
      "y": 124,
      "size": 1,
      "price": "2106000000000000000000",
      "reserved": "",
      "assetIds": [
        "55464657044963196816950587289035428064568320970692304673817341489687455367181",
        "55464657044963196816950587289035428064568320970692304673817341489687455367171",
        "55464657044963196816950587289035428064568320970692304673817341489687455367169",
        "55464657044963196816950587289035428064568320970692304673817341489687455367168"
      ]
    },
    {
      "x": 74,
      "y": 124,
      "size": 1,
      "price": "2106000000000000000000",
      "reserved": "",
      "assetIds": [
        "55464657044963196816950587289035428064568320970692304673817341489687455367182",
        "55464657044963196816950587289035428064568320970692304673817341489687455367171",
        "55464657044963196816950587289035428064568320970692304673817341489687455367169",
        "55464657044963196816950587289035428064568320970692304673817341489687455367168"
      ]
    },
    {
      "x": 75,
      "y": 124,
      "size": 1,
      "price": "2106000000000000000000",
      "reserved": "",
      "assetIds": [
        "55464657044963196816950587289035428064568320970692304673817341489687455367181",
        "55464657044963196816950587289035428064568320970692304673817341489687455367171",
        "55464657044963196816950587289035428064568320970692304673817341489687455367169",
        "55464657044963196816950587289035428064568320970692304673817341489687455367168"
      ]
    },
    {
      "x": 76,
      "y": 124,
      "size": 1,
      "price": "2106000000000000000000",
      "reserved": "",
      "assetIds": [
        "55464657044963196816950587289035428064568320970692304673817341489687455367183",
        "55464657044963196816950587289035428064568320970692304673817341489687455367171",
        "55464657044963196816950587289035428064568320970692304673817341489687455367169",
        "55464657044963196816950587289035428064568320970692304673817341489687455367168"
      ]
    },
    {
      "x": 77,
      "y": 124,
      "size": 1,
      "price": "2106000000000000000000",
      "reserved": "",
      "assetIds": [
        "55464657044963196816950587289035428064568320970692304673817341489687455367180",
        "55464657044963196816950587289035428064568320970692304673817341489687455367171",
        "55464657044963196816950587289035428064568320970692304673817341489687455367169",
        "55464657044963196816950587289035428064568320970692304673817341489687455367168"
      ]
    },
    {
      "x": 78,
      "y": 124,
      "size": 1,
      "price": "2106000000000000000000",
      "reserved": "",
      "assetIds": [
        "55464657044963196816950587289035428064568320970692304673817341489687455367183",
        "55464657044963196816950587289035428064568320970692304673817341489687455367171",
        "55464657044963196816950587289035428064568320970692304673817341489687455367169",
        "55464657044963196816950587289035428064568320970692304673817341489687455367168"
      ]
    },
    {
      "x": 79,
      "y": 124,
      "size": 1,
      "price": "2106000000000000000000",
      "reserved": "",
      "assetIds": [
        "55464657044963196816950587289035428064568320970692304673817341489687455367177",
        "55464657044963196816950587289035428064568320970692304673817341489687455367170",
        "55464657044963196816950587289035428064568320970692304673817341489687455367169",
        "55464657044963196816950587289035428064568320970692304673817341489687455367168"
      ]
    },
    {
      "x": 80,
      "y": 124,
      "size": 1,
      "price": "2106000000000000000000",
      "reserved": "",
      "assetIds": [
        "55464657044963196816950587289035428064568320970692304673817341489687455367174",
        "55464657044963196816950587289035428064568320970692304673817341489687455367170",
        "55464657044963196816950587289035428064568320970692304673817341489687455367169",
        "55464657044963196816950587289035428064568320970692304673817341489687455367168"
      ]
    },
    {
      "x": 81,
      "y": 124,
      "size": 1,
      "price": "2106000000000000000000",
      "reserved": "",
      "assetIds": [
        "55464657044963196816950587289035428064568320970692304673817341489687455367180",
        "55464657044963196816950587289035428064568320970692304673817341489687455367171",
        "55464657044963196816950587289035428064568320970692304673817341489687455367169",
        "55464657044963196816950587289035428064568320970692304673817341489687455367168"
      ]
    },
    {
      "x": 82,
      "y": 124,
      "size": 1,
      "price": "2106000000000000000000",
      "reserved": "",
      "assetIds": [
        "55464657044963196816950587289035428064568320970692304673817341489687455367173",
        "55464657044963196816950587289035428064568320970692304673817341489687455367170",
        "55464657044963196816950587289035428064568320970692304673817341489687455367169",
        "55464657044963196816950587289035428064568320970692304673817341489687455367168"
      ]
    },
    {
      "x": 83,
      "y": 124,
      "size": 1,
      "price": "2106000000000000000000",
      "reserved": "",
      "assetIds": [
        "55464657044963196816950587289035428064568320970692304673817341489687455367183",
        "55464657044963196816950587289035428064568320970692304673817341489687455367171",
        "55464657044963196816950587289035428064568320970692304673817341489687455367169",
        "55464657044963196816950587289035428064568320970692304673817341489687455367168"
      ]
    },
    {
      "x": 82,
      "y": 125,
      "size": 1,
      "price": "2106000000000000000000",
      "reserved": "",
      "assetIds": [
        "55464657044963196816950587289035428064568320970692304673817341489687455367173",
        "55464657044963196816950587289035428064568320970692304673817341489687455367170",
        "55464657044963196816950587289035428064568320970692304673817341489687455367169",
        "55464657044963196816950587289035428064568320970692304673817341489687455367168"
      ]
    },
    {
      "x": 83,
      "y": 125,
      "size": 1,
      "price": "2106000000000000000000",
      "reserved": "",
      "assetIds": [
        "55464657044963196816950587289035428064568320970692304673817341489687455367177",
        "55464657044963196816950587289035428064568320970692304673817341489687455367170",
        "55464657044963196816950587289035428064568320970692304673817341489687455367169",
        "55464657044963196816950587289035428064568320970692304673817341489687455367168"
      ]
    },
    {
      "x": 84,
      "y": 125,
      "size": 1,
      "price": "2106000000000000000000",
      "reserved": "",
      "assetIds": [
        "55464657044963196816950587289035428064568320970692304673817341489687455367178",
        "55464657044963196816950587289035428064568320970692304673817341489687455367171",
        "55464657044963196816950587289035428064568320970692304673817341489687455367169",
        "55464657044963196816950587289035428064568320970692304673817341489687455367168"
      ]
    },
    {
      "x": 85,
      "y": 125,
      "size": 1,
      "price": "2106000000000000000000",
      "reserved": "",
      "assetIds": [
        "55464657044963196816950587289035428064568320970692304673817341489687455367173",
        "55464657044963196816950587289035428064568320970692304673817341489687455367170",
        "55464657044963196816950587289035428064568320970692304673817341489687455367169",
        "55464657044963196816950587289035428064568320970692304673817341489687455367168"
      ]
    },
    {
      "x": 86,
      "y": 125,
      "size": 1,
      "price": "2106000000000000000000",
      "reserved": "",
      "assetIds": [
        "55464657044963196816950587289035428064568320970692304673817341489687455367178",
        "55464657044963196816950587289035428064568320970692304673817341489687455367171",
        "55464657044963196816950587289035428064568320970692304673817341489687455367169",
        "55464657044963196816950587289035428064568320970692304673817341489687455367168"
      ]
    },
    {
      "x": 85,
      "y": 126,
      "size": 1,
      "price": "2106000000000000000000",
      "reserved": "",
      "assetIds": [
        "55464657044963196816950587289035428064568320970692304673817341489687455367183",
        "55464657044963196816950587289035428064568320970692304673817341489687455367171",
        "55464657044963196816950587289035428064568320970692304673817341489687455367169",
        "55464657044963196816950587289035428064568320970692304673817341489687455367168"
      ]
    },
    {
      "x": 86,
      "y": 126,
      "size": 1,
      "price": "2106000000000000000000",
      "reserved": "",
      "assetIds": [
        "55464657044963196816950587289035428064568320970692304673817341489687455367182",
        "55464657044963196816950587289035428064568320970692304673817341489687455367171",
        "55464657044963196816950587289035428064568320970692304673817341489687455367169",
        "55464657044963196816950587289035428064568320970692304673817341489687455367168"
      ]
    },
    {
      "x": 87,
      "y": 126,
      "size": 1,
      "price": "2106000000000000000000",
      "reserved": "",
      "assetIds": [
        "55464657044963196816950587289035428064568320970692304673817341489687455367183",
        "55464657044963196816950587289035428064568320970692304673817341489687455367171",
        "55464657044963196816950587289035428064568320970692304673817341489687455367169",
        "55464657044963196816950587289035428064568320970692304673817341489687455367168"
      ]
    },
    {
      "x": 88,
      "y": 126,
      "size": 1,
      "price": "2106000000000000000000",
      "reserved": "",
      "assetIds": [
        "55464657044963196816950587289035428064568320970692304673817341489687455367179",
        "55464657044963196816950587289035428064568320970692304673817341489687455367171",
        "55464657044963196816950587289035428064568320970692304673817341489687455367169",
        "55464657044963196816950587289035428064568320970692304673817341489687455367168"
      ]
    },
    {
      "x": 86,
      "y": 127,
      "size": 1,
      "price": "2106000000000000000000",
      "reserved": "",
      "assetIds": [
        "55464657044963196816950587289035428064568320970692304673817341489687455367173",
        "55464657044963196816950587289035428064568320970692304673817341489687455367170",
        "55464657044963196816950587289035428064568320970692304673817341489687455367169",
        "55464657044963196816950587289035428064568320970692304673817341489687455367168"
      ]
    },
    {
      "x": 87,
      "y": 127,
      "size": 1,
      "price": "2106000000000000000000",
      "reserved": "",
      "assetIds": [
        "55464657044963196816950587289035428064568320970692304673817341489687455367183",
        "55464657044963196816950587289035428064568320970692304673817341489687455367171",
        "55464657044963196816950587289035428064568320970692304673817341489687455367169",
        "55464657044963196816950587289035428064568320970692304673817341489687455367168"
      ]
    },
    {
      "x": 88,
      "y": 127,
      "size": 1,
      "price": "2106000000000000000000",
      "reserved": "",
      "assetIds": [
        "55464657044963196816950587289035428064568320970692304673817341489687455367173",
        "55464657044963196816950587289035428064568320970692304673817341489687455367170",
        "55464657044963196816950587289035428064568320970692304673817341489687455367169",
        "55464657044963196816950587289035428064568320970692304673817341489687455367168"
      ]
    },
    {
      "x": 89,
      "y": 127,
      "size": 1,
      "price": "2106000000000000000000",
      "reserved": "",
      "assetIds": [
        "55464657044963196816950587289035428064568320970692304673817341489687455367181",
        "55464657044963196816950587289035428064568320970692304673817341489687455367171",
        "55464657044963196816950587289035428064568320970692304673817341489687455367169",
        "55464657044963196816950587289035428064568320970692304673817341489687455367168"
      ]
    },
    {
      "x": 86,
      "y": 128,
      "size": 1,
      "price": "2106000000000000000000",
      "reserved": "",
      "assetIds": [
        "55464657044963196816950587289035428064568320970692304673817341489687455367172",
        "55464657044963196816950587289035428064568320970692304673817341489687455367170",
        "55464657044963196816950587289035428064568320970692304673817341489687455367169",
        "55464657044963196816950587289035428064568320970692304673817341489687455367168"
      ]
    },
    {
      "x": 87,
      "y": 128,
      "size": 1,
      "price": "2106000000000000000000",
      "reserved": "",
      "assetIds": [
        "55464657044963196816950587289035428064568320970692304673817341489687455367174",
        "55464657044963196816950587289035428064568320970692304673817341489687455367170",
        "55464657044963196816950587289035428064568320970692304673817341489687455367169",
        "55464657044963196816950587289035428064568320970692304673817341489687455367168"
      ]
    },
    {
      "x": 88,
      "y": 128,
      "size": 1,
      "price": "2106000000000000000000",
      "reserved": "",
      "assetIds": [
        "55464657044963196816950587289035428064568320970692304673817341489687455367178",
        "55464657044963196816950587289035428064568320970692304673817341489687455367171",
        "55464657044963196816950587289035428064568320970692304673817341489687455367169",
        "55464657044963196816950587289035428064568320970692304673817341489687455367168"
      ]
    },
    {
      "x": 89,
      "y": 128,
      "size": 1,
      "price": "2106000000000000000000",
      "reserved": "",
      "assetIds": [
        "55464657044963196816950587289035428064568320970692304673817341489687455367183",
        "55464657044963196816950587289035428064568320970692304673817341489687455367171",
        "55464657044963196816950587289035428064568320970692304673817341489687455367169",
        "55464657044963196816950587289035428064568320970692304673817341489687455367168"
      ]
    },
    {
      "x": 90,
      "y": 129,
      "size": 1,
      "price": "2106000000000000000000",
      "reserved": "",
      "assetIds": [
        "55464657044963196816950587289035428064568320970692304673817341489687455367179",
        "55464657044963196816950587289035428064568320970692304673817341489687455367171",
        "55464657044963196816950587289035428064568320970692304673817341489687455367169",
        "55464657044963196816950587289035428064568320970692304673817341489687455367168"
      ]
    },
    {
      "x": 88,
      "y": 129,
      "size": 1,
      "price": "2106000000000000000000",
      "reserved": "",
      "assetIds": [
        "55464657044963196816950587289035428064568320970692304673817341489687455367174",
        "55464657044963196816950587289035428064568320970692304673817341489687455367170",
        "55464657044963196816950587289035428064568320970692304673817341489687455367169",
        "55464657044963196816950587289035428064568320970692304673817341489687455367168"
      ]
    },
    {
      "x": 88,
      "y": 130,
      "size": 1,
      "price": "2106000000000000000000",
      "reserved": "",
      "assetIds": [
        "55464657044963196816950587289035428064568320970692304673817341489687455367178",
        "55464657044963196816950587289035428064568320970692304673817341489687455367171",
        "55464657044963196816950587289035428064568320970692304673817341489687455367169",
        "55464657044963196816950587289035428064568320970692304673817341489687455367168"
      ]
    },
    {
      "x": 89,
      "y": 130,
      "size": 1,
      "price": "2106000000000000000000",
      "reserved": "",
      "assetIds": [
        "55464657044963196816950587289035428064568320970692304673817341489687455367174",
        "55464657044963196816950587289035428064568320970692304673817341489687455367170",
        "55464657044963196816950587289035428064568320970692304673817341489687455367169",
        "55464657044963196816950587289035428064568320970692304673817341489687455367168"
      ]
    },
    {
      "x": 90,
      "y": 130,
      "size": 1,
      "price": "2106000000000000000000",
      "reserved": "",
      "assetIds": [
        "55464657044963196816950587289035428064568320970692304673817341489687455367173",
        "55464657044963196816950587289035428064568320970692304673817341489687455367170",
        "55464657044963196816950587289035428064568320970692304673817341489687455367169",
        "55464657044963196816950587289035428064568320970692304673817341489687455367168"
      ]
    },
    {
      "x": 88,
      "y": 131,
      "size": 1,
      "price": "2106000000000000000000",
      "reserved": "",
      "assetIds": [
        "55464657044963196816950587289035428064568320970692304673817341489687455367178",
        "55464657044963196816950587289035428064568320970692304673817341489687455367171",
        "55464657044963196816950587289035428064568320970692304673817341489687455367169",
        "55464657044963196816950587289035428064568320970692304673817341489687455367168"
      ]
    },
    {
      "x": 89,
      "y": 131,
      "size": 1,
      "price": "2106000000000000000000",
      "reserved": "",
      "assetIds": [
        "55464657044963196816950587289035428064568320970692304673817341489687455367179",
        "55464657044963196816950587289035428064568320970692304673817341489687455367171",
        "55464657044963196816950587289035428064568320970692304673817341489687455367169",
        "55464657044963196816950587289035428064568320970692304673817341489687455367168"
      ]
    },
    {
      "x": 90,
      "y": 131,
      "size": 1,
      "price": "2106000000000000000000",
      "reserved": "",
      "assetIds": [
        "55464657044963196816950587289035428064568320970692304673817341489687455367172",
        "55464657044963196816950587289035428064568320970692304673817341489687455367170",
        "55464657044963196816950587289035428064568320970692304673817341489687455367169",
        "55464657044963196816950587289035428064568320970692304673817341489687455367168"
      ]
    },
    {
      "x": 90,
      "y": 134,
      "size": 1,
      "price": "2106000000000000000000",
      "reserved": "",
      "assetIds": [
        "55464657044963196816950587289035428064568320970692304673817341489687455367175",
        "55464657044963196816950587289035428064568320970692304673817341489687455367170",
        "55464657044963196816950587289035428064568320970692304673817341489687455367169",
        "55464657044963196816950587289035428064568320970692304673817341489687455367168"
      ]
    },
    {
      "x": 90,
      "y": 133,
      "size": 1,
      "price": "2106000000000000000000",
      "reserved": "",
      "assetIds": [
        "55464657044963196816950587289035428064568320970692304673817341489687455367175",
        "55464657044963196816950587289035428064568320970692304673817341489687455367170",
        "55464657044963196816950587289035428064568320970692304673817341489687455367169",
        "55464657044963196816950587289035428064568320970692304673817341489687455367168"
      ]
    },
    {
      "x": 90,
      "y": 132,
      "size": 1,
      "price": "2106000000000000000000",
      "reserved": "",
      "assetIds": [
        "55464657044963196816950587289035428064568320970692304673817341489687455367183",
        "55464657044963196816950587289035428064568320970692304673817341489687455367171",
        "55464657044963196816950587289035428064568320970692304673817341489687455367169",
        "55464657044963196816950587289035428064568320970692304673817341489687455367168"
      ]
    },
    {
      "x": 89,
      "y": 133,
      "size": 1,
      "price": "2106000000000000000000",
      "reserved": "",
      "assetIds": [
        "55464657044963196816950587289035428064568320970692304673817341489687455367177",
        "55464657044963196816950587289035428064568320970692304673817341489687455367170",
        "55464657044963196816950587289035428064568320970692304673817341489687455367169",
        "55464657044963196816950587289035428064568320970692304673817341489687455367168"
      ]
    },
    {
      "x": 89,
      "y": 135,
      "size": 1,
      "price": "2106000000000000000000",
      "reserved": "",
      "assetIds": [
        "55464657044963196816950587289035428064568320970692304673817341489687455367182",
        "55464657044963196816950587289035428064568320970692304673817341489687455367171",
        "55464657044963196816950587289035428064568320970692304673817341489687455367169",
        "55464657044963196816950587289035428064568320970692304673817341489687455367168"
      ]
    },
    {
      "x": 90,
      "y": 135,
      "size": 1,
      "price": "2106000000000000000000",
      "reserved": "",
      "assetIds": [
        "55464657044963196816950587289035428064568320970692304673817341489687455367182",
        "55464657044963196816950587289035428064568320970692304673817341489687455367171",
        "55464657044963196816950587289035428064568320970692304673817341489687455367169",
        "55464657044963196816950587289035428064568320970692304673817341489687455367168"
      ]
    },
    {
      "x": 91,
      "y": 135,
      "size": 1,
      "price": "2106000000000000000000",
      "reserved": "",
      "assetIds": [
        "55464657044963196816950587289035428064568320970692304673817341489687455367179",
        "55464657044963196816950587289035428064568320970692304673817341489687455367171",
        "55464657044963196816950587289035428064568320970692304673817341489687455367169",
        "55464657044963196816950587289035428064568320970692304673817341489687455367168"
      ]
    },
    {
      "x": 91,
      "y": 136,
      "size": 1,
      "price": "2106000000000000000000",
      "reserved": "",
      "assetIds": [
        "55464657044963196816950587289035428064568320970692304673817341489687455367180",
        "55464657044963196816950587289035428064568320970692304673817341489687455367171",
        "55464657044963196816950587289035428064568320970692304673817341489687455367169",
        "55464657044963196816950587289035428064568320970692304673817341489687455367168"
      ]
    },
    {
      "x": 91,
      "y": 137,
      "size": 1,
      "price": "2106000000000000000000",
      "reserved": "",
      "assetIds": [
        "55464657044963196816950587289035428064568320970692304673817341489687455367176",
        "55464657044963196816950587289035428064568320970692304673817341489687455367170",
        "55464657044963196816950587289035428064568320970692304673817341489687455367169",
        "55464657044963196816950587289035428064568320970692304673817341489687455367168"
      ]
    },
    {
      "x": 90,
      "y": 137,
      "size": 1,
      "price": "2106000000000000000000",
      "reserved": "",
      "assetIds": [
        "55464657044963196816950587289035428064568320970692304673817341489687455367172",
        "55464657044963196816950587289035428064568320970692304673817341489687455367170",
        "55464657044963196816950587289035428064568320970692304673817341489687455367169",
        "55464657044963196816950587289035428064568320970692304673817341489687455367168"
      ]
    },
    {
      "x": 89,
      "y": 137,
      "size": 1,
      "price": "2106000000000000000000",
      "reserved": "",
      "assetIds": [
        "55464657044963196816950587289035428064568320970692304673817341489687455367182",
        "55464657044963196816950587289035428064568320970692304673817341489687455367171",
        "55464657044963196816950587289035428064568320970692304673817341489687455367169",
        "55464657044963196816950587289035428064568320970692304673817341489687455367168"
      ]
    },
    {
      "x": 89,
      "y": 136,
      "size": 1,
      "price": "2106000000000000000000",
      "reserved": "",
      "assetIds": [
        "55464657044963196816950587289035428064568320970692304673817341489687455367180",
        "55464657044963196816950587289035428064568320970692304673817341489687455367171",
        "55464657044963196816950587289035428064568320970692304673817341489687455367169",
        "55464657044963196816950587289035428064568320970692304673817341489687455367168"
      ]
    },
    {
      "x": 90,
      "y": 136,
      "size": 1,
      "price": "2106000000000000000000",
      "reserved": "",
      "assetIds": [
        "55464657044963196816950587289035428064568320970692304673817341489687455367183",
        "55464657044963196816950587289035428064568320970692304673817341489687455367171",
        "55464657044963196816950587289035428064568320970692304673817341489687455367169",
        "55464657044963196816950587289035428064568320970692304673817341489687455367168"
      ]
    },
    {
      "x": 89,
      "y": 138,
      "size": 1,
      "price": "2106000000000000000000",
      "reserved": "",
      "assetIds": [
        "55464657044963196816950587289035428064568320970692304673817341489687455367182",
        "55464657044963196816950587289035428064568320970692304673817341489687455367171",
        "55464657044963196816950587289035428064568320970692304673817341489687455367169",
        "55464657044963196816950587289035428064568320970692304673817341489687455367168"
      ]
    },
    {
      "x": 89,
      "y": 140,
      "size": 1,
      "price": "2106000000000000000000",
      "reserved": "",
      "assetIds": [
        "55464657044963196816950587289035428064568320970692304673817341489687455367173",
        "55464657044963196816950587289035428064568320970692304673817341489687455367170",
        "55464657044963196816950587289035428064568320970692304673817341489687455367169",
        "55464657044963196816950587289035428064568320970692304673817341489687455367168"
      ]
    },
    {
      "x": 89,
      "y": 142,
      "size": 1,
      "price": "2106000000000000000000",
      "reserved": "",
      "assetIds": [
        "55464657044963196816950587289035428064568320970692304673817341489687455367173",
        "55464657044963196816950587289035428064568320970692304673817341489687455367170",
        "55464657044963196816950587289035428064568320970692304673817341489687455367169",
        "55464657044963196816950587289035428064568320970692304673817341489687455367168"
      ]
    },
    {
      "x": 89,
      "y": 143,
      "size": 1,
      "price": "2106000000000000000000",
      "reserved": "",
      "assetIds": [
        "55464657044963196816950587289035428064568320970692304673817341489687455367175",
        "55464657044963196816950587289035428064568320970692304673817341489687455367170",
        "55464657044963196816950587289035428064568320970692304673817341489687455367169",
        "55464657044963196816950587289035428064568320970692304673817341489687455367168"
      ]
    },
    {
      "x": 89,
      "y": 144,
      "size": 1,
      "price": "2106000000000000000000",
      "reserved": "",
      "assetIds": [
        "55464657044963196816950587289035428064568320970692304673817341489687455367177",
        "55464657044963196816950587289035428064568320970692304673817341489687455367170",
        "55464657044963196816950587289035428064568320970692304673817341489687455367169",
        "55464657044963196816950587289035428064568320970692304673817341489687455367168"
      ]
    },
    {
      "x": 89,
      "y": 145,
      "size": 1,
      "price": "2106000000000000000000",
      "reserved": "",
      "assetIds": [
        "55464657044963196816950587289035428064568320970692304673817341489687455367173",
        "55464657044963196816950587289035428064568320970692304673817341489687455367170",
        "55464657044963196816950587289035428064568320970692304673817341489687455367169",
        "55464657044963196816950587289035428064568320970692304673817341489687455367168"
      ]
    },
    {
      "x": 89,
      "y": 146,
      "size": 1,
      "price": "2106000000000000000000",
      "reserved": "",
      "assetIds": [
        "55464657044963196816950587289035428064568320970692304673817341489687455367173",
        "55464657044963196816950587289035428064568320970692304673817341489687455367170",
        "55464657044963196816950587289035428064568320970692304673817341489687455367169",
        "55464657044963196816950587289035428064568320970692304673817341489687455367168"
      ]
    },
    {
      "x": 89,
      "y": 147,
      "size": 1,
      "price": "2106000000000000000000",
      "reserved": "",
      "assetIds": [
        "55464657044963196816950587289035428064568320970692304673817341489687455367178",
        "55464657044963196816950587289035428064568320970692304673817341489687455367171",
        "55464657044963196816950587289035428064568320970692304673817341489687455367169",
        "55464657044963196816950587289035428064568320970692304673817341489687455367168"
      ]
    },
    {
      "x": 88,
      "y": 149,
      "size": 1,
      "price": "2106000000000000000000",
      "reserved": "",
      "assetIds": [
        "55464657044963196816950587289035428064568320970692304673817341489687455367174",
        "55464657044963196816950587289035428064568320970692304673817341489687455367170",
        "55464657044963196816950587289035428064568320970692304673817341489687455367169",
        "55464657044963196816950587289035428064568320970692304673817341489687455367168"
      ]
    },
    {
      "x": 88,
      "y": 150,
      "size": 1,
      "price": "2106000000000000000000",
      "reserved": "",
      "assetIds": [
        "55464657044963196816950587289035428064568320970692304673817341489687455367177",
        "55464657044963196816950587289035428064568320970692304673817341489687455367170",
        "55464657044963196816950587289035428064568320970692304673817341489687455367169",
        "55464657044963196816950587289035428064568320970692304673817341489687455367168"
      ]
    },
    {
      "x": 87,
      "y": 150,
      "size": 1,
      "price": "2106000000000000000000",
      "reserved": "",
      "assetIds": [
        "55464657044963196816950587289035428064568320970692304673817341489687455367179",
        "55464657044963196816950587289035428064568320970692304673817341489687455367171",
        "55464657044963196816950587289035428064568320970692304673817341489687455367169",
        "55464657044963196816950587289035428064568320970692304673817341489687455367168"
      ]
    },
    {
      "x": 87,
      "y": 151,
      "size": 1,
      "price": "2106000000000000000000",
      "reserved": "",
      "assetIds": [
        "55464657044963196816950587289035428064568320970692304673817341489687455367175",
        "55464657044963196816950587289035428064568320970692304673817341489687455367170",
        "55464657044963196816950587289035428064568320970692304673817341489687455367169",
        "55464657044963196816950587289035428064568320970692304673817341489687455367168"
      ]
    },
    {
      "x": 87,
      "y": 149,
      "size": 1,
      "price": "2106000000000000000000",
      "reserved": "",
      "assetIds": [
        "55464657044963196816950587289035428064568320970692304673817341489687455367175",
        "55464657044963196816950587289035428064568320970692304673817341489687455367170",
        "55464657044963196816950587289035428064568320970692304673817341489687455367169",
        "55464657044963196816950587289035428064568320970692304673817341489687455367168"
      ]
    },
    {
      "x": 86,
      "y": 149,
      "size": 1,
      "price": "2106000000000000000000",
      "reserved": "",
      "assetIds": [
        "55464657044963196816950587289035428064568320970692304673817341489687455367177",
        "55464657044963196816950587289035428064568320970692304673817341489687455367170",
        "55464657044963196816950587289035428064568320970692304673817341489687455367169",
        "55464657044963196816950587289035428064568320970692304673817341489687455367168"
      ]
    },
    {
      "x": 85,
      "y": 149,
      "size": 1,
      "price": "2106000000000000000000",
      "reserved": "",
      "assetIds": [
        "55464657044963196816950587289035428064568320970692304673817341489687455367178",
        "55464657044963196816950587289035428064568320970692304673817341489687455367171",
        "55464657044963196816950587289035428064568320970692304673817341489687455367169",
        "55464657044963196816950587289035428064568320970692304673817341489687455367168"
      ]
    },
    {
      "x": 85,
      "y": 150,
      "size": 1,
      "price": "2106000000000000000000",
      "reserved": "",
      "assetIds": [
        "55464657044963196816950587289035428064568320970692304673817341489687455367180",
        "55464657044963196816950587289035428064568320970692304673817341489687455367171",
        "55464657044963196816950587289035428064568320970692304673817341489687455367169",
        "55464657044963196816950587289035428064568320970692304673817341489687455367168"
      ]
    },
    {
      "x": 86,
      "y": 150,
      "size": 1,
      "price": "2106000000000000000000",
      "reserved": "",
      "assetIds": [
        "55464657044963196816950587289035428064568320970692304673817341489687455367173",
        "55464657044963196816950587289035428064568320970692304673817341489687455367170",
        "55464657044963196816950587289035428064568320970692304673817341489687455367169",
        "55464657044963196816950587289035428064568320970692304673817341489687455367168"
      ]
    },
    {
      "x": 84,
      "y": 150,
      "size": 1,
      "price": "2106000000000000000000",
      "reserved": "",
      "assetIds": [
        "55464657044963196816950587289035428064568320970692304673817341489687455367175",
        "55464657044963196816950587289035428064568320970692304673817341489687455367170",
        "55464657044963196816950587289035428064568320970692304673817341489687455367169",
        "55464657044963196816950587289035428064568320970692304673817341489687455367168"
      ]
    },
    {
      "x": 83,
      "y": 150,
      "size": 1,
      "price": "2106000000000000000000",
      "reserved": "",
      "assetIds": [
        "55464657044963196816950587289035428064568320970692304673817341489687455367173",
        "55464657044963196816950587289035428064568320970692304673817341489687455367170",
        "55464657044963196816950587289035428064568320970692304673817341489687455367169",
        "55464657044963196816950587289035428064568320970692304673817341489687455367168"
      ]
    },
    {
      "x": 82,
      "y": 150,
      "size": 1,
      "price": "2106000000000000000000",
      "reserved": "",
      "assetIds": [
        "55464657044963196816950587289035428064568320970692304673817341489687455367178",
        "55464657044963196816950587289035428064568320970692304673817341489687455367171",
        "55464657044963196816950587289035428064568320970692304673817341489687455367169",
        "55464657044963196816950587289035428064568320970692304673817341489687455367168"
      ]
    },
    {
      "x": 83,
      "y": 149,
      "size": 1,
      "price": "2106000000000000000000",
      "reserved": "",
      "assetIds": [
        "55464657044963196816950587289035428064568320970692304673817341489687455367175",
        "55464657044963196816950587289035428064568320970692304673817341489687455367170",
        "55464657044963196816950587289035428064568320970692304673817341489687455367169",
        "55464657044963196816950587289035428064568320970692304673817341489687455367168"
      ]
    },
    {
      "x": 82,
      "y": 149,
      "size": 1,
      "price": "2106000000000000000000",
      "reserved": "",
      "assetIds": [
        "55464657044963196816950587289035428064568320970692304673817341489687455367174",
        "55464657044963196816950587289035428064568320970692304673817341489687455367170",
        "55464657044963196816950587289035428064568320970692304673817341489687455367169",
        "55464657044963196816950587289035428064568320970692304673817341489687455367168"
      ]
    },
    {
      "x": 82,
      "y": 151,
      "size": 1,
      "price": "2106000000000000000000",
      "reserved": "",
      "assetIds": [
        "55464657044963196816950587289035428064568320970692304673817341489687455367172",
        "55464657044963196816950587289035428064568320970692304673817341489687455367170",
        "55464657044963196816950587289035428064568320970692304673817341489687455367169",
        "55464657044963196816950587289035428064568320970692304673817341489687455367168"
      ]
    },
    {
      "x": 83,
      "y": 151,
      "size": 1,
      "price": "2106000000000000000000",
      "reserved": "",
      "assetIds": [
        "55464657044963196816950587289035428064568320970692304673817341489687455367173",
        "55464657044963196816950587289035428064568320970692304673817341489687455367170",
        "55464657044963196816950587289035428064568320970692304673817341489687455367169",
        "55464657044963196816950587289035428064568320970692304673817341489687455367168"
      ]
    },
    {
      "x": 81,
      "y": 151,
      "size": 1,
      "price": "2106000000000000000000",
      "reserved": "",
      "assetIds": [
        "55464657044963196816950587289035428064568320970692304673817341489687455367172",
        "55464657044963196816950587289035428064568320970692304673817341489687455367170",
        "55464657044963196816950587289035428064568320970692304673817341489687455367169",
        "55464657044963196816950587289035428064568320970692304673817341489687455367168"
      ]
    },
    {
      "x": 81,
      "y": 150,
      "size": 1,
      "price": "2106000000000000000000",
      "reserved": "",
      "assetIds": [
        "55464657044963196816950587289035428064568320970692304673817341489687455367177",
        "55464657044963196816950587289035428064568320970692304673817341489687455367170",
        "55464657044963196816950587289035428064568320970692304673817341489687455367169",
        "55464657044963196816950587289035428064568320970692304673817341489687455367168"
      ]
    },
    {
      "x": 80,
      "y": 150,
      "size": 1,
      "price": "2106000000000000000000",
      "reserved": "",
      "assetIds": [
        "55464657044963196816950587289035428064568320970692304673817341489687455367172",
        "55464657044963196816950587289035428064568320970692304673817341489687455367170",
        "55464657044963196816950587289035428064568320970692304673817341489687455367169",
        "55464657044963196816950587289035428064568320970692304673817341489687455367168"
      ]
    },
    {
      "x": 79,
      "y": 150,
      "size": 1,
      "price": "2106000000000000000000",
      "reserved": "",
      "assetIds": [
        "55464657044963196816950587289035428064568320970692304673817341489687455367178",
        "55464657044963196816950587289035428064568320970692304673817341489687455367171",
        "55464657044963196816950587289035428064568320970692304673817341489687455367169",
        "55464657044963196816950587289035428064568320970692304673817341489687455367168"
      ]
    },
    {
      "x": 79,
      "y": 151,
      "size": 1,
      "price": "2106000000000000000000",
      "reserved": "",
      "assetIds": [
        "55464657044963196816950587289035428064568320970692304673817341489687455367183",
        "55464657044963196816950587289035428064568320970692304673817341489687455367171",
        "55464657044963196816950587289035428064568320970692304673817341489687455367169",
        "55464657044963196816950587289035428064568320970692304673817341489687455367168"
      ]
    },
    {
      "x": 79,
      "y": 152,
      "size": 1,
      "price": "2106000000000000000000",
      "reserved": "",
      "assetIds": [
        "55464657044963196816950587289035428064568320970692304673817341489687455367172",
        "55464657044963196816950587289035428064568320970692304673817341489687455367170",
        "55464657044963196816950587289035428064568320970692304673817341489687455367169",
        "55464657044963196816950587289035428064568320970692304673817341489687455367168"
      ]
    },
    {
      "x": 80,
      "y": 152,
      "size": 1,
      "price": "2106000000000000000000",
      "reserved": "",
      "assetIds": [
        "55464657044963196816950587289035428064568320970692304673817341489687455367182",
        "55464657044963196816950587289035428064568320970692304673817341489687455367171",
        "55464657044963196816950587289035428064568320970692304673817341489687455367169",
        "55464657044963196816950587289035428064568320970692304673817341489687455367168"
      ]
    },
    {
      "x": 78,
      "y": 152,
      "size": 1,
      "price": "2106000000000000000000",
      "reserved": "",
      "assetIds": [
        "55464657044963196816950587289035428064568320970692304673817341489687455367177",
        "55464657044963196816950587289035428064568320970692304673817341489687455367170",
        "55464657044963196816950587289035428064568320970692304673817341489687455367169",
        "55464657044963196816950587289035428064568320970692304673817341489687455367168"
      ]
    },
    {
      "x": 77,
      "y": 152,
      "size": 1,
      "price": "2106000000000000000000",
      "reserved": "",
      "assetIds": [
        "55464657044963196816950587289035428064568320970692304673817341489687455367178",
        "55464657044963196816950587289035428064568320970692304673817341489687455367171",
        "55464657044963196816950587289035428064568320970692304673817341489687455367169",
        "55464657044963196816950587289035428064568320970692304673817341489687455367168"
      ]
    },
    {
      "x": 77,
      "y": 151,
      "size": 1,
      "price": "2106000000000000000000",
      "reserved": "",
      "assetIds": [
        "55464657044963196816950587289035428064568320970692304673817341489687455367179",
        "55464657044963196816950587289035428064568320970692304673817341489687455367171",
        "55464657044963196816950587289035428064568320970692304673817341489687455367169",
        "55464657044963196816950587289035428064568320970692304673817341489687455367168"
      ]
    },
    {
      "x": 76,
      "y": 151,
      "size": 1,
      "price": "2106000000000000000000",
      "reserved": "",
      "assetIds": [
        "55464657044963196816950587289035428064568320970692304673817341489687455367183",
        "55464657044963196816950587289035428064568320970692304673817341489687455367171",
        "55464657044963196816950587289035428064568320970692304673817341489687455367169",
        "55464657044963196816950587289035428064568320970692304673817341489687455367168"
      ]
    },
    {
      "x": 75,
      "y": 152,
      "size": 1,
      "price": "2106000000000000000000",
      "reserved": "",
      "assetIds": [
        "55464657044963196816950587289035428064568320970692304673817341489687455367183",
        "55464657044963196816950587289035428064568320970692304673817341489687455367171",
        "55464657044963196816950587289035428064568320970692304673817341489687455367169",
        "55464657044963196816950587289035428064568320970692304673817341489687455367168"
      ]
    },
    {
      "x": 76,
      "y": 152,
      "size": 1,
      "price": "2106000000000000000000",
      "reserved": "",
      "assetIds": [
        "55464657044963196816950587289035428064568320970692304673817341489687455367172",
        "55464657044963196816950587289035428064568320970692304673817341489687455367170",
        "55464657044963196816950587289035428064568320970692304673817341489687455367169",
        "55464657044963196816950587289035428064568320970692304673817341489687455367168"
      ]
    },
    {
      "x": 78,
      "y": 151,
      "size": 1,
      "price": "2106000000000000000000",
      "reserved": "",
      "assetIds": [
        "55464657044963196816950587289035428064568320970692304673817341489687455367182",
        "55464657044963196816950587289035428064568320970692304673817341489687455367171",
        "55464657044963196816950587289035428064568320970692304673817341489687455367169",
        "55464657044963196816950587289035428064568320970692304673817341489687455367168"
      ]
    },
    {
      "x": 74,
      "y": 151,
      "size": 1,
      "price": "2106000000000000000000",
      "reserved": "",
      "assetIds": [
        "55464657044963196816950587289035428064568320970692304673817341489687455367179",
        "55464657044963196816950587289035428064568320970692304673817341489687455367171",
        "55464657044963196816950587289035428064568320970692304673817341489687455367169",
        "55464657044963196816950587289035428064568320970692304673817341489687455367168"
      ]
    },
    {
      "x": 73,
      "y": 151,
      "size": 1,
      "price": "2106000000000000000000",
      "reserved": "",
      "assetIds": [
        "55464657044963196816950587289035428064568320970692304673817341489687455367183",
        "55464657044963196816950587289035428064568320970692304673817341489687455367171",
        "55464657044963196816950587289035428064568320970692304673817341489687455367169",
        "55464657044963196816950587289035428064568320970692304673817341489687455367168"
      ]
    },
    {
      "x": 73,
      "y": 150,
      "size": 1,
      "price": "2106000000000000000000",
      "reserved": "",
      "assetIds": [
        "55464657044963196816950587289035428064568320970692304673817341489687455367180",
        "55464657044963196816950587289035428064568320970692304673817341489687455367171",
        "55464657044963196816950587289035428064568320970692304673817341489687455367169",
        "55464657044963196816950587289035428064568320970692304673817341489687455367168"
      ]
    },
    {
      "x": 72,
      "y": 150,
      "size": 1,
      "price": "2106000000000000000000",
      "reserved": "",
      "assetIds": [
        "55464657044963196816950587289035428064568320970692304673817341489687455367181",
        "55464657044963196816950587289035428064568320970692304673817341489687455367171",
        "55464657044963196816950587289035428064568320970692304673817341489687455367169",
        "55464657044963196816950587289035428064568320970692304673817341489687455367168"
      ]
    },
    {
      "x": 72,
      "y": 149,
      "size": 1,
      "price": "2106000000000000000000",
      "reserved": "",
      "assetIds": [
        "55464657044963196816950587289035428064568320970692304673817341489687455367183",
        "55464657044963196816950587289035428064568320970692304673817341489687455367171",
        "55464657044963196816950587289035428064568320970692304673817341489687455367169",
        "55464657044963196816950587289035428064568320970692304673817341489687455367168"
      ]
    },
    {
      "x": 71,
      "y": 149,
      "size": 1,
      "price": "2106000000000000000000",
      "reserved": "",
      "assetIds": [
        "55464657044963196816950587289035428064568320970692304673817341489687455367179",
        "55464657044963196816950587289035428064568320970692304673817341489687455367171",
        "55464657044963196816950587289035428064568320970692304673817341489687455367169",
        "55464657044963196816950587289035428064568320970692304673817341489687455367168"
      ]
    },
    {
      "x": 70,
      "y": 149,
      "size": 1,
      "price": "2106000000000000000000",
      "reserved": "",
      "assetIds": [
        "55464657044963196816950587289035428064568320970692304673817341489687455367176",
        "55464657044963196816950587289035428064568320970692304673817341489687455367170",
        "55464657044963196816950587289035428064568320970692304673817341489687455367169",
        "55464657044963196816950587289035428064568320970692304673817341489687455367168"
      ]
    },
    {
      "x": 69,
      "y": 149,
      "size": 1,
      "price": "2106000000000000000000",
      "reserved": "",
      "assetIds": [
        "55464657044963196816950587289035428064568320970692304673817341489687455367174",
        "55464657044963196816950587289035428064568320970692304673817341489687455367170",
        "55464657044963196816950587289035428064568320970692304673817341489687455367169",
        "55464657044963196816950587289035428064568320970692304673817341489687455367168"
      ]
    },
    {
      "x": 69,
      "y": 148,
      "size": 1,
      "price": "2106000000000000000000",
      "reserved": "",
      "assetIds": [
        "55464657044963196816950587289035428064568320970692304673817341489687455367182",
        "55464657044963196816950587289035428064568320970692304673817341489687455367171",
        "55464657044963196816950587289035428064568320970692304673817341489687455367169",
        "55464657044963196816950587289035428064568320970692304673817341489687455367168"
      ]
    },
    {
      "x": 68,
      "y": 148,
      "size": 1,
      "price": "2106000000000000000000",
      "reserved": "",
      "assetIds": [
        "55464657044963196816950587289035428064568320970692304673817341489687455367172",
        "55464657044963196816950587289035428064568320970692304673817341489687455367170",
        "55464657044963196816950587289035428064568320970692304673817341489687455367169",
        "55464657044963196816950587289035428064568320970692304673817341489687455367168"
      ]
    },
    {
      "x": 67,
      "y": 148,
      "size": 1,
      "price": "2106000000000000000000",
      "reserved": "",
      "assetIds": [
        "55464657044963196816950587289035428064568320970692304673817341489687455367182",
        "55464657044963196816950587289035428064568320970692304673817341489687455367171",
        "55464657044963196816950587289035428064568320970692304673817341489687455367169",
        "55464657044963196816950587289035428064568320970692304673817341489687455367168"
      ]
    },
    {
      "x": 67,
      "y": 149,
      "size": 1,
      "price": "2106000000000000000000",
      "reserved": "",
      "assetIds": [
        "55464657044963196816950587289035428064568320970692304673817341489687455367175",
        "55464657044963196816950587289035428064568320970692304673817341489687455367170",
        "55464657044963196816950587289035428064568320970692304673817341489687455367169",
        "55464657044963196816950587289035428064568320970692304673817341489687455367168"
      ]
    },
    {
      "x": 66,
      "y": 149,
      "size": 1,
      "price": "2106000000000000000000",
      "reserved": "",
      "assetIds": [
        "55464657044963196816950587289035428064568320970692304673817341489687455367181",
        "55464657044963196816950587289035428064568320970692304673817341489687455367171",
        "55464657044963196816950587289035428064568320970692304673817341489687455367169",
        "55464657044963196816950587289035428064568320970692304673817341489687455367168"
      ]
    },
    {
      "x": 66,
      "y": 148,
      "size": 1,
      "price": "2106000000000000000000",
      "reserved": "",
      "assetIds": [
        "55464657044963196816950587289035428064568320970692304673817341489687455367178",
        "55464657044963196816950587289035428064568320970692304673817341489687455367171",
        "55464657044963196816950587289035428064568320970692304673817341489687455367169",
        "55464657044963196816950587289035428064568320970692304673817341489687455367168"
      ]
    },
    {
      "x": 66,
      "y": 147,
      "size": 1,
      "price": "2106000000000000000000",
      "reserved": "",
      "assetIds": [
        "55464657044963196816950587289035428064568320970692304673817341489687455367180",
        "55464657044963196816950587289035428064568320970692304673817341489687455367171",
        "55464657044963196816950587289035428064568320970692304673817341489687455367169",
        "55464657044963196816950587289035428064568320970692304673817341489687455367168"
      ]
    },
    {
      "x": 66,
      "y": 146,
      "size": 1,
      "price": "2106000000000000000000",
      "reserved": "",
      "assetIds": [
        "55464657044963196816950587289035428064568320970692304673817341489687455367181",
        "55464657044963196816950587289035428064568320970692304673817341489687455367171",
        "55464657044963196816950587289035428064568320970692304673817341489687455367169",
        "55464657044963196816950587289035428064568320970692304673817341489687455367168"
      ]
    },
    {
      "x": 68,
      "y": 149,
      "size": 1,
      "price": "2106000000000000000000",
      "reserved": "",
      "assetIds": [
        "55464657044963196816950587289035428064568320970692304673817341489687455367173",
        "55464657044963196816950587289035428064568320970692304673817341489687455367170",
        "55464657044963196816950587289035428064568320970692304673817341489687455367169",
        "55464657044963196816950587289035428064568320970692304673817341489687455367168"
      ]
    },
    {
      "x": 68,
      "y": 150,
      "size": 1,
      "price": "2106000000000000000000",
      "reserved": "",
      "assetIds": [
        "55464657044963196816950587289035428064568320970692304673817341489687455367175",
        "55464657044963196816950587289035428064568320970692304673817341489687455367170",
        "55464657044963196816950587289035428064568320970692304673817341489687455367169",
        "55464657044963196816950587289035428064568320970692304673817341489687455367168"
      ]
    },
    {
      "x": 67,
      "y": 150,
      "size": 1,
      "price": "2106000000000000000000",
      "reserved": "",
      "assetIds": [
        "55464657044963196816950587289035428064568320970692304673817341489687455367174",
        "55464657044963196816950587289035428064568320970692304673817341489687455367170",
        "55464657044963196816950587289035428064568320970692304673817341489687455367169",
        "55464657044963196816950587289035428064568320970692304673817341489687455367168"
      ]
    },
    {
      "x": 65,
      "y": 145,
      "size": 1,
      "price": "2106000000000000000000",
      "reserved": "",
      "assetIds": [
        "55464657044963196816950587289035428064568320970692304673817341489687455367175",
        "55464657044963196816950587289035428064568320970692304673817341489687455367170",
        "55464657044963196816950587289035428064568320970692304673817341489687455367169",
        "55464657044963196816950587289035428064568320970692304673817341489687455367168"
      ]
    },
    {
      "x": 65,
      "y": 144,
      "size": 1,
      "price": "2106000000000000000000",
      "reserved": "",
      "assetIds": [
        "55464657044963196816950587289035428064568320970692304673817341489687455367183",
        "55464657044963196816950587289035428064568320970692304673817341489687455367171",
        "55464657044963196816950587289035428064568320970692304673817341489687455367169",
        "55464657044963196816950587289035428064568320970692304673817341489687455367168"
      ]
    },
    {
      "x": 64,
      "y": 143,
      "size": 1,
      "price": "2106000000000000000000",
      "reserved": "",
      "assetIds": [
        "55464657044963196816950587289035428064568320970692304673817341489687455367179",
        "55464657044963196816950587289035428064568320970692304673817341489687455367171",
        "55464657044963196816950587289035428064568320970692304673817341489687455367169",
        "55464657044963196816950587289035428064568320970692304673817341489687455367168"
      ]
    },
    {
      "x": 64,
      "y": 142,
      "size": 1,
      "price": "2106000000000000000000",
      "reserved": "",
      "assetIds": [
        "55464657044963196816950587289035428064568320970692304673817341489687455367179",
        "55464657044963196816950587289035428064568320970692304673817341489687455367171",
        "55464657044963196816950587289035428064568320970692304673817341489687455367169",
        "55464657044963196816950587289035428064568320970692304673817341489687455367168"
      ]
    },
    {
      "x": 64,
      "y": 141,
      "size": 1,
      "price": "2106000000000000000000",
      "reserved": "",
      "assetIds": [
        "55464657044963196816950587289035428064568320970692304673817341489687455367181",
        "55464657044963196816950587289035428064568320970692304673817341489687455367171",
        "55464657044963196816950587289035428064568320970692304673817341489687455367169",
        "55464657044963196816950587289035428064568320970692304673817341489687455367168"
      ]
    },
    {
      "x": 64,
      "y": 140,
      "size": 1,
      "price": "2106000000000000000000",
      "reserved": "",
      "assetIds": [
        "55464657044963196816950587289035428064568320970692304673817341489687455367172",
        "55464657044963196816950587289035428064568320970692304673817341489687455367170",
        "55464657044963196816950587289035428064568320970692304673817341489687455367169",
        "55464657044963196816950587289035428064568320970692304673817341489687455367168"
      ]
    },
    {
      "x": 64,
      "y": 139,
      "size": 1,
      "price": "2106000000000000000000",
      "reserved": "",
      "assetIds": [
        "55464657044963196816950587289035428064568320970692304673817341489687455367182",
        "55464657044963196816950587289035428064568320970692304673817341489687455367171",
        "55464657044963196816950587289035428064568320970692304673817341489687455367169",
        "55464657044963196816950587289035428064568320970692304673817341489687455367168"
      ]
    },
    {
      "x": 65,
      "y": 139,
      "size": 1,
      "price": "2106000000000000000000",
      "reserved": "",
      "assetIds": [
        "55464657044963196816950587289035428064568320970692304673817341489687455367181",
        "55464657044963196816950587289035428064568320970692304673817341489687455367171",
        "55464657044963196816950587289035428064568320970692304673817341489687455367169",
        "55464657044963196816950587289035428064568320970692304673817341489687455367168"
      ]
    },
    {
      "x": 65,
      "y": 138,
      "size": 1,
      "price": "2106000000000000000000",
      "reserved": "",
      "assetIds": [
        "55464657044963196816950587289035428064568320970692304673817341489687455367175",
        "55464657044963196816950587289035428064568320970692304673817341489687455367170",
        "55464657044963196816950587289035428064568320970692304673817341489687455367169",
        "55464657044963196816950587289035428064568320970692304673817341489687455367168"
      ]
    },
    {
      "x": 65,
      "y": 137,
      "size": 1,
      "price": "2106000000000000000000",
      "reserved": "",
      "assetIds": [
        "55464657044963196816950587289035428064568320970692304673817341489687455367177",
        "55464657044963196816950587289035428064568320970692304673817341489687455367170",
        "55464657044963196816950587289035428064568320970692304673817341489687455367169",
        "55464657044963196816950587289035428064568320970692304673817341489687455367168"
      ]
    },
    {
      "x": 65,
      "y": 136,
      "size": 1,
      "price": "2106000000000000000000",
      "reserved": "",
      "assetIds": [
        "55464657044963196816950587289035428064568320970692304673817341489687455367182",
        "55464657044963196816950587289035428064568320970692304673817341489687455367171",
        "55464657044963196816950587289035428064568320970692304673817341489687455367169",
        "55464657044963196816950587289035428064568320970692304673817341489687455367168"
      ]
    },
    {
      "x": 65,
      "y": 135,
      "size": 1,
      "price": "2106000000000000000000",
      "reserved": "",
      "assetIds": [
        "55464657044963196816950587289035428064568320970692304673817341489687455367174",
        "55464657044963196816950587289035428064568320970692304673817341489687455367170",
        "55464657044963196816950587289035428064568320970692304673817341489687455367169",
        "55464657044963196816950587289035428064568320970692304673817341489687455367168"
      ]
    },
    {
      "x": 66,
      "y": 135,
      "size": 1,
      "price": "2106000000000000000000",
      "reserved": "",
      "assetIds": [
        "55464657044963196816950587289035428064568320970692304673817341489687455367182",
        "55464657044963196816950587289035428064568320970692304673817341489687455367171",
        "55464657044963196816950587289035428064568320970692304673817341489687455367169",
        "55464657044963196816950587289035428064568320970692304673817341489687455367168"
      ]
    },
    {
      "x": 66,
      "y": 134,
      "size": 1,
      "price": "2106000000000000000000",
      "reserved": "",
      "assetIds": [
        "55464657044963196816950587289035428064568320970692304673817341489687455367178",
        "55464657044963196816950587289035428064568320970692304673817341489687455367171",
        "55464657044963196816950587289035428064568320970692304673817341489687455367169",
        "55464657044963196816950587289035428064568320970692304673817341489687455367168"
      ]
    },
    {
      "x": 66,
      "y": 133,
      "size": 1,
      "price": "2106000000000000000000",
      "reserved": "",
      "assetIds": [
        "55464657044963196816950587289035428064568320970692304673817341489687455367181",
        "55464657044963196816950587289035428064568320970692304673817341489687455367171",
        "55464657044963196816950587289035428064568320970692304673817341489687455367169",
        "55464657044963196816950587289035428064568320970692304673817341489687455367168"
      ]
    },
    {
      "x": 67,
      "y": 132,
      "size": 1,
      "price": "2106000000000000000000",
      "reserved": "",
      "assetIds": [
        "55464657044963196816950587289035428064568320970692304673817341489687455367176",
        "55464657044963196816950587289035428064568320970692304673817341489687455367170",
        "55464657044963196816950587289035428064568320970692304673817341489687455367169",
        "55464657044963196816950587289035428064568320970692304673817341489687455367168"
      ]
    },
    {
      "x": 67,
      "y": 131,
      "size": 1,
      "price": "2106000000000000000000",
      "reserved": "",
      "assetIds": [
        "55464657044963196816950587289035428064568320970692304673817341489687455367179",
        "55464657044963196816950587289035428064568320970692304673817341489687455367171",
        "55464657044963196816950587289035428064568320970692304673817341489687455367169",
        "55464657044963196816950587289035428064568320970692304673817341489687455367168"
      ]
    },
    {
      "x": 66,
      "y": 132,
      "size": 1,
      "price": "2106000000000000000000",
      "reserved": "",
      "assetIds": [
        "55464657044963196816950587289035428064568320970692304673817341489687455367173",
        "55464657044963196816950587289035428064568320970692304673817341489687455367170",
        "55464657044963196816950587289035428064568320970692304673817341489687455367169",
        "55464657044963196816950587289035428064568320970692304673817341489687455367168"
      ]
    },
    {
      "x": 66,
      "y": 131,
      "size": 1,
      "price": "2106000000000000000000",
      "reserved": "",
      "assetIds": [
        "55464657044963196816950587289035428064568320970692304673817341489687455367180",
        "55464657044963196816950587289035428064568320970692304673817341489687455367171",
        "55464657044963196816950587289035428064568320970692304673817341489687455367169",
        "55464657044963196816950587289035428064568320970692304673817341489687455367168"
      ]
    },
    {
      "x": 66,
      "y": 130,
      "size": 1,
      "price": "2106000000000000000000",
      "reserved": "",
      "assetIds": [
        "55464657044963196816950587289035428064568320970692304673817341489687455367183",
        "55464657044963196816950587289035428064568320970692304673817341489687455367171",
        "55464657044963196816950587289035428064568320970692304673817341489687455367169",
        "55464657044963196816950587289035428064568320970692304673817341489687455367168"
      ]
    },
    {
      "x": 67,
      "y": 130,
      "size": 1,
      "price": "2106000000000000000000",
      "reserved": "",
      "assetIds": [
        "55464657044963196816950587289035428064568320970692304673817341489687455367178",
        "55464657044963196816950587289035428064568320970692304673817341489687455367171",
        "55464657044963196816950587289035428064568320970692304673817341489687455367169",
        "55464657044963196816950587289035428064568320970692304673817341489687455367168"
      ]
    },
    {
      "x": 67,
      "y": 129,
      "size": 1,
      "price": "2106000000000000000000",
      "reserved": "",
      "assetIds": [
        "55464657044963196816950587289035428064568320970692304673817341489687455367183",
        "55464657044963196816950587289035428064568320970692304673817341489687455367171",
        "55464657044963196816950587289035428064568320970692304673817341489687455367169",
        "55464657044963196816950587289035428064568320970692304673817341489687455367168"
      ]
    },
    {
      "x": 66,
      "y": 129,
      "size": 1,
      "price": "2106000000000000000000",
      "reserved": "",
      "assetIds": [
        "55464657044963196816950587289035428064568320970692304673817341489687455367176",
        "55464657044963196816950587289035428064568320970692304673817341489687455367170",
        "55464657044963196816950587289035428064568320970692304673817341489687455367169",
        "55464657044963196816950587289035428064568320970692304673817341489687455367168"
      ]
    },
    {
      "x": 67,
      "y": 128,
      "size": 1,
      "price": "2106000000000000000000",
      "reserved": "",
      "assetIds": [
        "55464657044963196816950587289035428064568320970692304673817341489687455367183",
        "55464657044963196816950587289035428064568320970692304673817341489687455367171",
        "55464657044963196816950587289035428064568320970692304673817341489687455367169",
        "55464657044963196816950587289035428064568320970692304673817341489687455367168"
      ]
    },
    {
      "x": 67,
      "y": 127,
      "size": 1,
      "price": "2106000000000000000000",
      "reserved": "",
      "assetIds": [
        "55464657044963196816950587289035428064568320970692304673817341489687455367182",
        "55464657044963196816950587289035428064568320970692304673817341489687455367171",
        "55464657044963196816950587289035428064568320970692304673817341489687455367169",
        "55464657044963196816950587289035428064568320970692304673817341489687455367168"
      ]
    },
    {
      "x": 66,
      "y": 127,
      "size": 1,
      "price": "2106000000000000000000",
      "reserved": "",
      "assetIds": [
        "55464657044963196816950587289035428064568320970692304673817341489687455367175",
        "55464657044963196816950587289035428064568320970692304673817341489687455367170",
        "55464657044963196816950587289035428064568320970692304673817341489687455367169",
        "55464657044963196816950587289035428064568320970692304673817341489687455367168"
      ]
    },
    {
      "x": 66,
      "y": 126,
      "size": 1,
      "price": "2106000000000000000000",
      "reserved": "",
      "assetIds": [
        "55464657044963196816950587289035428064568320970692304673817341489687455367175",
        "55464657044963196816950587289035428064568320970692304673817341489687455367170",
        "55464657044963196816950587289035428064568320970692304673817341489687455367169",
        "55464657044963196816950587289035428064568320970692304673817341489687455367168"
      ]
    },
    {
      "x": 66,
      "y": 125,
      "size": 1,
      "price": "2106000000000000000000",
      "reserved": "",
      "assetIds": [
        "55464657044963196816950587289035428064568320970692304673817341489687455367180",
        "55464657044963196816950587289035428064568320970692304673817341489687455367171",
        "55464657044963196816950587289035428064568320970692304673817341489687455367169",
        "55464657044963196816950587289035428064568320970692304673817341489687455367168"
      ]
    },
    {
      "x": 67,
      "y": 125,
      "size": 1,
      "price": "2106000000000000000000",
      "reserved": "",
      "assetIds": [
        "55464657044963196816950587289035428064568320970692304673817341489687455367175",
        "55464657044963196816950587289035428064568320970692304673817341489687455367170",
        "55464657044963196816950587289035428064568320970692304673817341489687455367169",
        "55464657044963196816950587289035428064568320970692304673817341489687455367168"
      ]
    },
    {
      "x": 68,
      "y": 125,
      "size": 1,
      "price": "2106000000000000000000",
      "reserved": "",
      "assetIds": [
        "55464657044963196816950587289035428064568320970692304673817341489687455367181",
        "55464657044963196816950587289035428064568320970692304673817341489687455367171",
        "55464657044963196816950587289035428064568320970692304673817341489687455367169",
        "55464657044963196816950587289035428064568320970692304673817341489687455367168"
      ]
    },
    {
      "x": 69,
      "y": 125,
      "size": 1,
      "price": "2106000000000000000000",
      "reserved": "",
      "assetIds": [
        "55464657044963196816950587289035428064568320970692304673817341489687455367173",
        "55464657044963196816950587289035428064568320970692304673817341489687455367170",
        "55464657044963196816950587289035428064568320970692304673817341489687455367169",
        "55464657044963196816950587289035428064568320970692304673817341489687455367168"
      ]
    },
    {
      "x": 69,
      "y": 126,
      "size": 1,
      "price": "2106000000000000000000",
      "reserved": "",
      "assetIds": [
        "55464657044963196816950587289035428064568320970692304673817341489687455367181",
        "55464657044963196816950587289035428064568320970692304673817341489687455367171",
        "55464657044963196816950587289035428064568320970692304673817341489687455367169",
        "55464657044963196816950587289035428064568320970692304673817341489687455367168"
      ]
    },
    {
      "x": 70,
      "y": 126,
      "size": 1,
      "price": "2106000000000000000000",
      "reserved": "",
      "assetIds": [
        "55464657044963196816950587289035428064568320970692304673817341489687455367182",
        "55464657044963196816950587289035428064568320970692304673817341489687455367171",
        "55464657044963196816950587289035428064568320970692304673817341489687455367169",
        "55464657044963196816950587289035428064568320970692304673817341489687455367168"
      ]
    },
    {
      "x": 70,
      "y": 125,
      "size": 1,
      "price": "2106000000000000000000",
      "reserved": "",
      "assetIds": [
        "55464657044963196816950587289035428064568320970692304673817341489687455367180",
        "55464657044963196816950587289035428064568320970692304673817341489687455367171",
        "55464657044963196816950587289035428064568320970692304673817341489687455367169",
        "55464657044963196816950587289035428064568320970692304673817341489687455367168"
      ]
    },
    {
      "x": 71,
      "y": 125,
      "size": 1,
      "price": "2106000000000000000000",
      "reserved": "",
      "assetIds": [
        "55464657044963196816950587289035428064568320970692304673817341489687455367173",
        "55464657044963196816950587289035428064568320970692304673817341489687455367170",
        "55464657044963196816950587289035428064568320970692304673817341489687455367169",
        "55464657044963196816950587289035428064568320970692304673817341489687455367168"
      ]
    },
    {
      "x": 72,
      "y": 125,
      "size": 1,
      "price": "2106000000000000000000",
      "reserved": "",
      "assetIds": [
        "55464657044963196816950587289035428064568320970692304673817341489687455367180",
        "55464657044963196816950587289035428064568320970692304673817341489687455367171",
        "55464657044963196816950587289035428064568320970692304673817341489687455367169",
        "55464657044963196816950587289035428064568320970692304673817341489687455367168"
      ]
    },
    {
      "x": 73,
      "y": 125,
      "size": 1,
      "price": "2106000000000000000000",
      "reserved": "",
      "assetIds": [
        "55464657044963196816950587289035428064568320970692304673817341489687455367179",
        "55464657044963196816950587289035428064568320970692304673817341489687455367171",
        "55464657044963196816950587289035428064568320970692304673817341489687455367169",
        "55464657044963196816950587289035428064568320970692304673817341489687455367168"
      ]
    },
    {
      "x": 74,
      "y": 125,
      "size": 1,
      "price": "2106000000000000000000",
      "reserved": "",
      "assetIds": [
        "55464657044963196816950587289035428064568320970692304673817341489687455367180",
        "55464657044963196816950587289035428064568320970692304673817341489687455367171",
        "55464657044963196816950587289035428064568320970692304673817341489687455367169",
        "55464657044963196816950587289035428064568320970692304673817341489687455367168"
      ]
    },
    {
      "x": 75,
      "y": 125,
      "size": 1,
      "price": "2106000000000000000000",
      "reserved": "",
      "assetIds": [
        "55464657044963196816950587289035428064568320970692304673817341489687455367177",
        "55464657044963196816950587289035428064568320970692304673817341489687455367170",
        "55464657044963196816950587289035428064568320970692304673817341489687455367169",
        "55464657044963196816950587289035428064568320970692304673817341489687455367168"
      ]
    },
    {
      "x": 76,
      "y": 125,
      "size": 1,
      "price": "2106000000000000000000",
      "reserved": "",
      "assetIds": [
        "55464657044963196816950587289035428064568320970692304673817341489687455367176",
        "55464657044963196816950587289035428064568320970692304673817341489687455367170",
        "55464657044963196816950587289035428064568320970692304673817341489687455367169",
        "55464657044963196816950587289035428064568320970692304673817341489687455367168"
      ]
    },
    {
      "x": 77,
      "y": 125,
      "size": 1,
      "price": "2106000000000000000000",
      "reserved": "",
      "assetIds": [
        "55464657044963196816950587289035428064568320970692304673817341489687455367176",
        "55464657044963196816950587289035428064568320970692304673817341489687455367170",
        "55464657044963196816950587289035428064568320970692304673817341489687455367169",
        "55464657044963196816950587289035428064568320970692304673817341489687455367168"
      ]
    },
    {
      "x": 79,
      "y": 125,
      "size": 1,
      "price": "2106000000000000000000",
      "reserved": "",
      "assetIds": [
        "55464657044963196816950587289035428064568320970692304673817341489687455367174",
        "55464657044963196816950587289035428064568320970692304673817341489687455367170",
        "55464657044963196816950587289035428064568320970692304673817341489687455367169",
        "55464657044963196816950587289035428064568320970692304673817341489687455367168"
      ]
    },
    {
      "x": 81,
      "y": 125,
      "size": 1,
      "price": "2106000000000000000000",
      "reserved": "",
      "assetIds": [
        "55464657044963196816950587289035428064568320970692304673817341489687455367181",
        "55464657044963196816950587289035428064568320970692304673817341489687455367171",
        "55464657044963196816950587289035428064568320970692304673817341489687455367169",
        "55464657044963196816950587289035428064568320970692304673817341489687455367168"
      ]
    },
    {
      "x": 80,
      "y": 126,
      "size": 1,
      "price": "2106000000000000000000",
      "reserved": "",
      "assetIds": [
        "55464657044963196816950587289035428064568320970692304673817341489687455367179",
        "55464657044963196816950587289035428064568320970692304673817341489687455367171",
        "55464657044963196816950587289035428064568320970692304673817341489687455367169",
        "55464657044963196816950587289035428064568320970692304673817341489687455367168"
      ]
    },
    {
      "x": 79,
      "y": 126,
      "size": 1,
      "price": "2106000000000000000000",
      "reserved": "",
      "assetIds": [
        "55464657044963196816950587289035428064568320970692304673817341489687455367180",
        "55464657044963196816950587289035428064568320970692304673817341489687455367171",
        "55464657044963196816950587289035428064568320970692304673817341489687455367169",
        "55464657044963196816950587289035428064568320970692304673817341489687455367168"
      ]
    },
    {
      "x": 80,
      "y": 125,
      "size": 1,
      "price": "2106000000000000000000",
      "reserved": "",
      "assetIds": [
        "55464657044963196816950587289035428064568320970692304673817341489687455367177",
        "55464657044963196816950587289035428064568320970692304673817341489687455367170",
        "55464657044963196816950587289035428064568320970692304673817341489687455367169",
        "55464657044963196816950587289035428064568320970692304673817341489687455367168"
      ]
    },
    {
      "x": 78,
      "y": 126,
      "size": 1,
      "price": "2106000000000000000000",
      "reserved": "",
      "assetIds": [
        "55464657044963196816950587289035428064568320970692304673817341489687455367175",
        "55464657044963196816950587289035428064568320970692304673817341489687455367170",
        "55464657044963196816950587289035428064568320970692304673817341489687455367169",
        "55464657044963196816950587289035428064568320970692304673817341489687455367168"
      ]
    },
    {
      "x": 77,
      "y": 126,
      "size": 1,
      "price": "2106000000000000000000",
      "reserved": "",
      "assetIds": [
        "55464657044963196816950587289035428064568320970692304673817341489687455367179",
        "55464657044963196816950587289035428064568320970692304673817341489687455367171",
        "55464657044963196816950587289035428064568320970692304673817341489687455367169",
        "55464657044963196816950587289035428064568320970692304673817341489687455367168"
      ]
    },
    {
      "x": 76,
      "y": 126,
      "size": 1,
      "price": "2106000000000000000000",
      "reserved": "",
      "assetIds": [
        "55464657044963196816950587289035428064568320970692304673817341489687455367183",
        "55464657044963196816950587289035428064568320970692304673817341489687455367171",
        "55464657044963196816950587289035428064568320970692304673817341489687455367169",
        "55464657044963196816950587289035428064568320970692304673817341489687455367168"
      ]
    },
    {
      "x": 75,
      "y": 126,
      "size": 1,
      "price": "2106000000000000000000",
      "reserved": "",
      "assetIds": [
        "55464657044963196816950587289035428064568320970692304673817341489687455367175",
        "55464657044963196816950587289035428064568320970692304673817341489687455367170",
        "55464657044963196816950587289035428064568320970692304673817341489687455367169",
        "55464657044963196816950587289035428064568320970692304673817341489687455367168"
      ]
    },
    {
      "x": 74,
      "y": 126,
      "size": 1,
      "price": "2106000000000000000000",
      "reserved": "",
      "assetIds": [
        "55464657044963196816950587289035428064568320970692304673817341489687455367181",
        "55464657044963196816950587289035428064568320970692304673817341489687455367171",
        "55464657044963196816950587289035428064568320970692304673817341489687455367169",
        "55464657044963196816950587289035428064568320970692304673817341489687455367168"
      ]
    },
    {
      "x": 73,
      "y": 126,
      "size": 1,
      "price": "2106000000000000000000",
      "reserved": "",
      "assetIds": [
        "55464657044963196816950587289035428064568320970692304673817341489687455367178",
        "55464657044963196816950587289035428064568320970692304673817341489687455367171",
        "55464657044963196816950587289035428064568320970692304673817341489687455367169",
        "55464657044963196816950587289035428064568320970692304673817341489687455367168"
      ]
    },
    {
      "x": 71,
      "y": 126,
      "size": 1,
      "price": "2106000000000000000000",
      "reserved": "",
      "assetIds": [
        "55464657044963196816950587289035428064568320970692304673817341489687455367182",
        "55464657044963196816950587289035428064568320970692304673817341489687455367171",
        "55464657044963196816950587289035428064568320970692304673817341489687455367169",
        "55464657044963196816950587289035428064568320970692304673817341489687455367168"
      ]
    },
    {
      "x": 70,
      "y": 127,
      "size": 1,
      "price": "2106000000000000000000",
      "reserved": "",
      "assetIds": [
        "55464657044963196816950587289035428064568320970692304673817341489687455367174",
        "55464657044963196816950587289035428064568320970692304673817341489687455367170",
        "55464657044963196816950587289035428064568320970692304673817341489687455367169",
        "55464657044963196816950587289035428064568320970692304673817341489687455367168"
      ]
    },
    {
      "x": 68,
      "y": 127,
      "size": 1,
      "price": "2106000000000000000000",
      "reserved": "",
      "assetIds": [
        "55464657044963196816950587289035428064568320970692304673817341489687455367176",
        "55464657044963196816950587289035428064568320970692304673817341489687455367170",
        "55464657044963196816950587289035428064568320970692304673817341489687455367169",
        "55464657044963196816950587289035428064568320970692304673817341489687455367168"
      ]
    },
    {
      "x": 67,
      "y": 126,
      "size": 1,
      "price": "2106000000000000000000",
      "reserved": "",
      "assetIds": [
        "55464657044963196816950587289035428064568320970692304673817341489687455367178",
        "55464657044963196816950587289035428064568320970692304673817341489687455367171",
        "55464657044963196816950587289035428064568320970692304673817341489687455367169",
        "55464657044963196816950587289035428064568320970692304673817341489687455367168"
      ]
    },
    {
      "x": 68,
      "y": 126,
      "size": 1,
      "price": "2106000000000000000000",
      "reserved": "",
      "assetIds": [
        "55464657044963196816950587289035428064568320970692304673817341489687455367178",
        "55464657044963196816950587289035428064568320970692304673817341489687455367171",
        "55464657044963196816950587289035428064568320970692304673817341489687455367169",
        "55464657044963196816950587289035428064568320970692304673817341489687455367168"
      ]
    },
    {
      "x": 68,
      "y": 128,
      "size": 1,
      "price": "2106000000000000000000",
      "reserved": "",
      "assetIds": [
        "55464657044963196816950587289035428064568320970692304673817341489687455367178",
        "55464657044963196816950587289035428064568320970692304673817341489687455367171",
        "55464657044963196816950587289035428064568320970692304673817341489687455367169",
        "55464657044963196816950587289035428064568320970692304673817341489687455367168"
      ]
    },
    {
      "x": 69,
      "y": 128,
      "size": 1,
      "price": "2106000000000000000000",
      "reserved": "",
      "assetIds": [
        "55464657044963196816950587289035428064568320970692304673817341489687455367178",
        "55464657044963196816950587289035428064568320970692304673817341489687455367171",
        "55464657044963196816950587289035428064568320970692304673817341489687455367169",
        "55464657044963196816950587289035428064568320970692304673817341489687455367168"
      ]
    },
    {
      "x": 70,
      "y": 128,
      "size": 1,
      "price": "2106000000000000000000",
      "reserved": "",
      "assetIds": [
        "55464657044963196816950587289035428064568320970692304673817341489687455367183",
        "55464657044963196816950587289035428064568320970692304673817341489687455367171",
        "55464657044963196816950587289035428064568320970692304673817341489687455367169",
        "55464657044963196816950587289035428064568320970692304673817341489687455367168"
      ]
    },
    {
      "x": 71,
      "y": 128,
      "size": 1,
      "price": "2106000000000000000000",
      "reserved": "",
      "assetIds": [
        "55464657044963196816950587289035428064568320970692304673817341489687455367175",
        "55464657044963196816950587289035428064568320970692304673817341489687455367170",
        "55464657044963196816950587289035428064568320970692304673817341489687455367169",
        "55464657044963196816950587289035428064568320970692304673817341489687455367168"
      ]
    },
    {
      "x": 72,
      "y": 128,
      "size": 1,
      "price": "2106000000000000000000",
      "reserved": "",
      "assetIds": [
        "55464657044963196816950587289035428064568320970692304673817341489687455367173",
        "55464657044963196816950587289035428064568320970692304673817341489687455367170",
        "55464657044963196816950587289035428064568320970692304673817341489687455367169",
        "55464657044963196816950587289035428064568320970692304673817341489687455367168"
      ]
    },
    {
      "x": 73,
      "y": 128,
      "size": 1,
      "price": "2106000000000000000000",
      "reserved": "",
      "assetIds": [
        "55464657044963196816950587289035428064568320970692304673817341489687455367177",
        "55464657044963196816950587289035428064568320970692304673817341489687455367170",
        "55464657044963196816950587289035428064568320970692304673817341489687455367169",
        "55464657044963196816950587289035428064568320970692304673817341489687455367168"
      ]
    },
    {
      "x": 74,
      "y": 128,
      "size": 1,
      "price": "2106000000000000000000",
      "reserved": "",
      "assetIds": [
        "55464657044963196816950587289035428064568320970692304673817341489687455367173",
        "55464657044963196816950587289035428064568320970692304673817341489687455367170",
        "55464657044963196816950587289035428064568320970692304673817341489687455367169",
        "55464657044963196816950587289035428064568320970692304673817341489687455367168"
      ]
    },
    {
      "x": 74,
      "y": 127,
      "size": 1,
      "price": "2106000000000000000000",
      "reserved": "",
      "assetIds": [
        "55464657044963196816950587289035428064568320970692304673817341489687455367174",
        "55464657044963196816950587289035428064568320970692304673817341489687455367170",
        "55464657044963196816950587289035428064568320970692304673817341489687455367169",
        "55464657044963196816950587289035428064568320970692304673817341489687455367168"
      ]
    },
    {
      "x": 75,
      "y": 127,
      "size": 1,
      "price": "2106000000000000000000",
      "reserved": "",
      "assetIds": [
        "55464657044963196816950587289035428064568320970692304673817341489687455367178",
        "55464657044963196816950587289035428064568320970692304673817341489687455367171",
        "55464657044963196816950587289035428064568320970692304673817341489687455367169",
        "55464657044963196816950587289035428064568320970692304673817341489687455367168"
      ]
    },
    {
      "x": 73,
      "y": 127,
      "size": 1,
      "price": "2106000000000000000000",
      "reserved": "",
      "assetIds": [
        "55464657044963196816950587289035428064568320970692304673817341489687455367183",
        "55464657044963196816950587289035428064568320970692304673817341489687455367171",
        "55464657044963196816950587289035428064568320970692304673817341489687455367169",
        "55464657044963196816950587289035428064568320970692304673817341489687455367168"
      ]
    },
    {
      "x": 72,
      "y": 127,
      "size": 1,
      "price": "2106000000000000000000",
      "reserved": "",
      "assetIds": [
        "55464657044963196816950587289035428064568320970692304673817341489687455367183",
        "55464657044963196816950587289035428064568320970692304673817341489687455367171",
        "55464657044963196816950587289035428064568320970692304673817341489687455367169",
        "55464657044963196816950587289035428064568320970692304673817341489687455367168"
      ]
    },
    {
      "x": 76,
      "y": 127,
      "size": 1,
      "price": "2106000000000000000000",
      "reserved": "",
      "assetIds": [
        "55464657044963196816950587289035428064568320970692304673817341489687455367180",
        "55464657044963196816950587289035428064568320970692304673817341489687455367171",
        "55464657044963196816950587289035428064568320970692304673817341489687455367169",
        "55464657044963196816950587289035428064568320970692304673817341489687455367168"
      ]
    },
    {
      "x": 78,
      "y": 127,
      "size": 1,
      "price": "2106000000000000000000",
      "reserved": "",
      "assetIds": [
        "55464657044963196816950587289035428064568320970692304673817341489687455367172",
        "55464657044963196816950587289035428064568320970692304673817341489687455367170",
        "55464657044963196816950587289035428064568320970692304673817341489687455367169",
        "55464657044963196816950587289035428064568320970692304673817341489687455367168"
      ]
    },
    {
      "x": 79,
      "y": 127,
      "size": 1,
      "price": "2106000000000000000000",
      "reserved": "",
      "assetIds": [
        "55464657044963196816950587289035428064568320970692304673817341489687455367181",
        "55464657044963196816950587289035428064568320970692304673817341489687455367171",
        "55464657044963196816950587289035428064568320970692304673817341489687455367169",
        "55464657044963196816950587289035428064568320970692304673817341489687455367168"
      ]
    },
    {
      "x": 81,
      "y": 127,
      "size": 1,
      "price": "2106000000000000000000",
      "reserved": "",
      "assetIds": [
        "55464657044963196816950587289035428064568320970692304673817341489687455367181",
        "55464657044963196816950587289035428064568320970692304673817341489687455367171",
        "55464657044963196816950587289035428064568320970692304673817341489687455367169",
        "55464657044963196816950587289035428064568320970692304673817341489687455367168"
      ]
    },
    {
      "x": 82,
      "y": 127,
      "size": 1,
      "price": "2106000000000000000000",
      "reserved": "",
      "assetIds": [
        "55464657044963196816950587289035428064568320970692304673817341489687455367174",
        "55464657044963196816950587289035428064568320970692304673817341489687455367170",
        "55464657044963196816950587289035428064568320970692304673817341489687455367169",
        "55464657044963196816950587289035428064568320970692304673817341489687455367168"
      ]
    },
    {
      "x": 83,
      "y": 127,
      "size": 1,
      "price": "2106000000000000000000",
      "reserved": "",
      "assetIds": [
        "55464657044963196816950587289035428064568320970692304673817341489687455367182",
        "55464657044963196816950587289035428064568320970692304673817341489687455367171",
        "55464657044963196816950587289035428064568320970692304673817341489687455367169",
        "55464657044963196816950587289035428064568320970692304673817341489687455367168"
      ]
    },
    {
      "x": 84,
      "y": 127,
      "size": 1,
      "price": "2106000000000000000000",
      "reserved": "",
      "assetIds": [
        "55464657044963196816950587289035428064568320970692304673817341489687455367177",
        "55464657044963196816950587289035428064568320970692304673817341489687455367170",
        "55464657044963196816950587289035428064568320970692304673817341489687455367169",
        "55464657044963196816950587289035428064568320970692304673817341489687455367168"
      ]
    },
    {
      "x": 82,
      "y": 126,
      "size": 1,
      "price": "2106000000000000000000",
      "reserved": "",
      "assetIds": [
        "55464657044963196816950587289035428064568320970692304673817341489687455367180",
        "55464657044963196816950587289035428064568320970692304673817341489687455367171",
        "55464657044963196816950587289035428064568320970692304673817341489687455367169",
        "55464657044963196816950587289035428064568320970692304673817341489687455367168"
      ]
    },
    {
      "x": 84,
      "y": 126,
      "size": 1,
      "price": "2106000000000000000000",
      "reserved": "",
      "assetIds": [
        "55464657044963196816950587289035428064568320970692304673817341489687455367173",
        "55464657044963196816950587289035428064568320970692304673817341489687455367170",
        "55464657044963196816950587289035428064568320970692304673817341489687455367169",
        "55464657044963196816950587289035428064568320970692304673817341489687455367168"
      ]
    },
    {
      "x": 81,
      "y": 126,
      "size": 1,
      "price": "2106000000000000000000",
      "reserved": "",
      "assetIds": [
        "55464657044963196816950587289035428064568320970692304673817341489687455367175",
        "55464657044963196816950587289035428064568320970692304673817341489687455367170",
        "55464657044963196816950587289035428064568320970692304673817341489687455367169",
        "55464657044963196816950587289035428064568320970692304673817341489687455367168"
      ]
    },
    {
      "x": 84,
      "y": 128,
      "size": 1,
      "price": "2106000000000000000000",
      "reserved": "",
      "assetIds": [
        "55464657044963196816950587289035428064568320970692304673817341489687455367181",
        "55464657044963196816950587289035428064568320970692304673817341489687455367171",
        "55464657044963196816950587289035428064568320970692304673817341489687455367169",
        "55464657044963196816950587289035428064568320970692304673817341489687455367168"
      ]
    },
    {
      "x": 85,
      "y": 128,
      "size": 1,
      "price": "2106000000000000000000",
      "reserved": "",
      "assetIds": [
        "55464657044963196816950587289035428064568320970692304673817341489687455367178",
        "55464657044963196816950587289035428064568320970692304673817341489687455367171",
        "55464657044963196816950587289035428064568320970692304673817341489687455367169",
        "55464657044963196816950587289035428064568320970692304673817341489687455367168"
      ]
    },
    {
      "x": 85,
      "y": 129,
      "size": 1,
      "price": "2106000000000000000000",
      "reserved": "",
      "assetIds": [
        "55464657044963196816950587289035428064568320970692304673817341489687455367178",
        "55464657044963196816950587289035428064568320970692304673817341489687455367171",
        "55464657044963196816950587289035428064568320970692304673817341489687455367169",
        "55464657044963196816950587289035428064568320970692304673817341489687455367168"
      ]
    },
    {
      "x": 85,
      "y": 130,
      "size": 1,
      "price": "2106000000000000000000",
      "reserved": "",
      "assetIds": [
        "55464657044963196816950587289035428064568320970692304673817341489687455367176",
        "55464657044963196816950587289035428064568320970692304673817341489687455367170",
        "55464657044963196816950587289035428064568320970692304673817341489687455367169",
        "55464657044963196816950587289035428064568320970692304673817341489687455367168"
      ]
    },
    {
      "x": 86,
      "y": 130,
      "size": 1,
      "price": "2106000000000000000000",
      "reserved": "",
      "assetIds": [
        "55464657044963196816950587289035428064568320970692304673817341489687455367175",
        "55464657044963196816950587289035428064568320970692304673817341489687455367170",
        "55464657044963196816950587289035428064568320970692304673817341489687455367169",
        "55464657044963196816950587289035428064568320970692304673817341489687455367168"
      ]
    },
    {
      "x": 86,
      "y": 129,
      "size": 1,
      "price": "2106000000000000000000",
      "reserved": "",
      "assetIds": [
        "55464657044963196816950587289035428064568320970692304673817341489687455367175",
        "55464657044963196816950587289035428064568320970692304673817341489687455367170",
        "55464657044963196816950587289035428064568320970692304673817341489687455367169",
        "55464657044963196816950587289035428064568320970692304673817341489687455367168"
      ]
    },
    {
      "x": 84,
      "y": 129,
      "size": 1,
      "price": "2106000000000000000000",
      "reserved": "",
      "assetIds": [
        "55464657044963196816950587289035428064568320970692304673817341489687455367178",
        "55464657044963196816950587289035428064568320970692304673817341489687455367171",
        "55464657044963196816950587289035428064568320970692304673817341489687455367169",
        "55464657044963196816950587289035428064568320970692304673817341489687455367168"
      ]
    },
    {
      "x": 83,
      "y": 129,
      "size": 1,
      "price": "2106000000000000000000",
      "reserved": "",
      "assetIds": [
        "55464657044963196816950587289035428064568320970692304673817341489687455367174",
        "55464657044963196816950587289035428064568320970692304673817341489687455367170",
        "55464657044963196816950587289035428064568320970692304673817341489687455367169",
        "55464657044963196816950587289035428064568320970692304673817341489687455367168"
      ]
    },
    {
      "x": 82,
      "y": 128,
      "size": 1,
      "price": "2106000000000000000000",
      "reserved": "",
      "assetIds": [
        "55464657044963196816950587289035428064568320970692304673817341489687455367180",
        "55464657044963196816950587289035428064568320970692304673817341489687455367171",
        "55464657044963196816950587289035428064568320970692304673817341489687455367169",
        "55464657044963196816950587289035428064568320970692304673817341489687455367168"
      ]
    },
    {
      "x": 83,
      "y": 128,
      "size": 1,
      "price": "2106000000000000000000",
      "reserved": "",
      "assetIds": [
        "55464657044963196816950587289035428064568320970692304673817341489687455367177",
        "55464657044963196816950587289035428064568320970692304673817341489687455367170",
        "55464657044963196816950587289035428064568320970692304673817341489687455367169",
        "55464657044963196816950587289035428064568320970692304673817341489687455367168"
      ]
    },
    {
      "x": 81,
      "y": 128,
      "size": 1,
      "price": "2106000000000000000000",
      "reserved": "",
      "assetIds": [
        "55464657044963196816950587289035428064568320970692304673817341489687455367179",
        "55464657044963196816950587289035428064568320970692304673817341489687455367171",
        "55464657044963196816950587289035428064568320970692304673817341489687455367169",
        "55464657044963196816950587289035428064568320970692304673817341489687455367168"
      ]
    },
    {
      "x": 80,
      "y": 128,
      "size": 1,
      "price": "2106000000000000000000",
      "reserved": "",
      "assetIds": [
        "55464657044963196816950587289035428064568320970692304673817341489687455367175",
        "55464657044963196816950587289035428064568320970692304673817341489687455367170",
        "55464657044963196816950587289035428064568320970692304673817341489687455367169",
        "55464657044963196816950587289035428064568320970692304673817341489687455367168"
      ]
    },
    {
      "x": 79,
      "y": 128,
      "size": 1,
      "price": "2106000000000000000000",
      "reserved": "",
      "assetIds": [
        "55464657044963196816950587289035428064568320970692304673817341489687455367175",
        "55464657044963196816950587289035428064568320970692304673817341489687455367170",
        "55464657044963196816950587289035428064568320970692304673817341489687455367169",
        "55464657044963196816950587289035428064568320970692304673817341489687455367168"
      ]
    },
    {
      "x": 78,
      "y": 128,
      "size": 1,
      "price": "2106000000000000000000",
      "reserved": "",
      "assetIds": [
        "55464657044963196816950587289035428064568320970692304673817341489687455367177",
        "55464657044963196816950587289035428064568320970692304673817341489687455367170",
        "55464657044963196816950587289035428064568320970692304673817341489687455367169",
        "55464657044963196816950587289035428064568320970692304673817341489687455367168"
      ]
    },
    {
      "x": 77,
      "y": 128,
      "size": 1,
      "price": "2106000000000000000000",
      "reserved": "",
      "assetIds": [
        "55464657044963196816950587289035428064568320970692304673817341489687455367173",
        "55464657044963196816950587289035428064568320970692304673817341489687455367170",
        "55464657044963196816950587289035428064568320970692304673817341489687455367169",
        "55464657044963196816950587289035428064568320970692304673817341489687455367168"
      ]
    },
    {
      "x": 76,
      "y": 128,
      "size": 1,
      "price": "2106000000000000000000",
      "reserved": "",
      "assetIds": [
        "55464657044963196816950587289035428064568320970692304673817341489687455367179",
        "55464657044963196816950587289035428064568320970692304673817341489687455367171",
        "55464657044963196816950587289035428064568320970692304673817341489687455367169",
        "55464657044963196816950587289035428064568320970692304673817341489687455367168"
      ]
    },
    {
      "x": 78,
      "y": 129,
      "size": 1,
      "price": "2106000000000000000000",
      "reserved": "",
      "assetIds": [
        "55464657044963196816950587289035428064568320970692304673817341489687455367174",
        "55464657044963196816950587289035428064568320970692304673817341489687455367170",
        "55464657044963196816950587289035428064568320970692304673817341489687455367169",
        "55464657044963196816950587289035428064568320970692304673817341489687455367168"
      ]
    },
    {
      "x": 80,
      "y": 129,
      "size": 1,
      "price": "2106000000000000000000",
      "reserved": "",
      "assetIds": [
        "55464657044963196816950587289035428064568320970692304673817341489687455367178",
        "55464657044963196816950587289035428064568320970692304673817341489687455367171",
        "55464657044963196816950587289035428064568320970692304673817341489687455367169",
        "55464657044963196816950587289035428064568320970692304673817341489687455367168"
      ]
    },
    {
      "x": 81,
      "y": 129,
      "size": 1,
      "price": "2106000000000000000000",
      "reserved": "",
      "assetIds": [
        "55464657044963196816950587289035428064568320970692304673817341489687455367175",
        "55464657044963196816950587289035428064568320970692304673817341489687455367170",
        "55464657044963196816950587289035428064568320970692304673817341489687455367169",
        "55464657044963196816950587289035428064568320970692304673817341489687455367168"
      ]
    },
    {
      "x": 82,
      "y": 130,
      "size": 1,
      "price": "2106000000000000000000",
      "reserved": "",
      "assetIds": [
        "55464657044963196816950587289035428064568320970692304673817341489687455367179",
        "55464657044963196816950587289035428064568320970692304673817341489687455367171",
        "55464657044963196816950587289035428064568320970692304673817341489687455367169",
        "55464657044963196816950587289035428064568320970692304673817341489687455367168"
      ]
    },
    {
      "x": 81,
      "y": 130,
      "size": 1,
      "price": "2106000000000000000000",
      "reserved": "",
      "assetIds": [
        "55464657044963196816950587289035428064568320970692304673817341489687455367181",
        "55464657044963196816950587289035428064568320970692304673817341489687455367171",
        "55464657044963196816950587289035428064568320970692304673817341489687455367169",
        "55464657044963196816950587289035428064568320970692304673817341489687455367168"
      ]
    },
    {
      "x": 80,
      "y": 130,
      "size": 1,
      "price": "2106000000000000000000",
      "reserved": "",
      "assetIds": [
        "55464657044963196816950587289035428064568320970692304673817341489687455367179",
        "55464657044963196816950587289035428064568320970692304673817341489687455367171",
        "55464657044963196816950587289035428064568320970692304673817341489687455367169",
        "55464657044963196816950587289035428064568320970692304673817341489687455367168"
      ]
    },
    {
      "x": 79,
      "y": 130,
      "size": 1,
      "price": "2106000000000000000000",
      "reserved": "",
      "assetIds": [
        "55464657044963196816950587289035428064568320970692304673817341489687455367183",
        "55464657044963196816950587289035428064568320970692304673817341489687455367171",
        "55464657044963196816950587289035428064568320970692304673817341489687455367169",
        "55464657044963196816950587289035428064568320970692304673817341489687455367168"
      ]
    },
    {
      "x": 78,
      "y": 130,
      "size": 1,
      "price": "2106000000000000000000",
      "reserved": "",
      "assetIds": [
        "55464657044963196816950587289035428064568320970692304673817341489687455367173",
        "55464657044963196816950587289035428064568320970692304673817341489687455367170",
        "55464657044963196816950587289035428064568320970692304673817341489687455367169",
        "55464657044963196816950587289035428064568320970692304673817341489687455367168"
      ]
    },
    {
      "x": 77,
      "y": 130,
      "size": 1,
      "price": "2106000000000000000000",
      "reserved": "",
      "assetIds": [
        "55464657044963196816950587289035428064568320970692304673817341489687455367176",
        "55464657044963196816950587289035428064568320970692304673817341489687455367170",
        "55464657044963196816950587289035428064568320970692304673817341489687455367169",
        "55464657044963196816950587289035428064568320970692304673817341489687455367168"
      ]
    },
    {
      "x": 76,
      "y": 130,
      "size": 1,
      "price": "2106000000000000000000",
      "reserved": "",
      "assetIds": [
        "55464657044963196816950587289035428064568320970692304673817341489687455367176",
        "55464657044963196816950587289035428064568320970692304673817341489687455367170",
        "55464657044963196816950587289035428064568320970692304673817341489687455367169",
        "55464657044963196816950587289035428064568320970692304673817341489687455367168"
      ]
    },
    {
      "x": 75,
      "y": 130,
      "size": 1,
      "price": "2106000000000000000000",
      "reserved": "",
      "assetIds": [
        "55464657044963196816950587289035428064568320970692304673817341489687455367176",
        "55464657044963196816950587289035428064568320970692304673817341489687455367170",
        "55464657044963196816950587289035428064568320970692304673817341489687455367169",
        "55464657044963196816950587289035428064568320970692304673817341489687455367168"
      ]
    },
    {
      "x": 74,
      "y": 130,
      "size": 1,
      "price": "2106000000000000000000",
      "reserved": "",
      "assetIds": [
        "55464657044963196816950587289035428064568320970692304673817341489687455367181",
        "55464657044963196816950587289035428064568320970692304673817341489687455367171",
        "55464657044963196816950587289035428064568320970692304673817341489687455367169",
        "55464657044963196816950587289035428064568320970692304673817341489687455367168"
      ]
    },
    {
      "x": 73,
      "y": 129,
      "size": 1,
      "price": "2106000000000000000000",
      "reserved": "",
      "assetIds": [
        "55464657044963196816950587289035428064568320970692304673817341489687455367183",
        "55464657044963196816950587289035428064568320970692304673817341489687455367171",
        "55464657044963196816950587289035428064568320970692304673817341489687455367169",
        "55464657044963196816950587289035428064568320970692304673817341489687455367168"
      ]
    },
    {
      "x": 74,
      "y": 129,
      "size": 1,
      "price": "2106000000000000000000",
      "reserved": "",
      "assetIds": [
        "55464657044963196816950587289035428064568320970692304673817341489687455367176",
        "55464657044963196816950587289035428064568320970692304673817341489687455367170",
        "55464657044963196816950587289035428064568320970692304673817341489687455367169",
        "55464657044963196816950587289035428064568320970692304673817341489687455367168"
      ]
    },
    {
      "x": 75,
      "y": 129,
      "size": 1,
      "price": "2106000000000000000000",
      "reserved": "",
      "assetIds": [
        "55464657044963196816950587289035428064568320970692304673817341489687455367178",
        "55464657044963196816950587289035428064568320970692304673817341489687455367171",
        "55464657044963196816950587289035428064568320970692304673817341489687455367169",
        "55464657044963196816950587289035428064568320970692304673817341489687455367168"
      ]
    },
    {
      "x": 76,
      "y": 129,
      "size": 1,
      "price": "2106000000000000000000",
      "reserved": "",
      "assetIds": [
        "55464657044963196816950587289035428064568320970692304673817341489687455367181",
        "55464657044963196816950587289035428064568320970692304673817341489687455367171",
        "55464657044963196816950587289035428064568320970692304673817341489687455367169",
        "55464657044963196816950587289035428064568320970692304673817341489687455367168"
      ]
    },
    {
      "x": 77,
      "y": 129,
      "size": 1,
      "price": "2106000000000000000000",
      "reserved": "",
      "assetIds": [
        "55464657044963196816950587289035428064568320970692304673817341489687455367177",
        "55464657044963196816950587289035428064568320970692304673817341489687455367170",
        "55464657044963196816950587289035428064568320970692304673817341489687455367169",
        "55464657044963196816950587289035428064568320970692304673817341489687455367168"
      ]
    },
    {
      "x": 72,
      "y": 129,
      "size": 1,
      "price": "2106000000000000000000",
      "reserved": "",
      "assetIds": [
        "55464657044963196816950587289035428064568320970692304673817341489687455367182",
        "55464657044963196816950587289035428064568320970692304673817341489687455367171",
        "55464657044963196816950587289035428064568320970692304673817341489687455367169",
        "55464657044963196816950587289035428064568320970692304673817341489687455367168"
      ]
    },
    {
      "x": 71,
      "y": 129,
      "size": 1,
      "price": "2106000000000000000000",
      "reserved": "",
      "assetIds": [
        "55464657044963196816950587289035428064568320970692304673817341489687455367178",
        "55464657044963196816950587289035428064568320970692304673817341489687455367171",
        "55464657044963196816950587289035428064568320970692304673817341489687455367169",
        "55464657044963196816950587289035428064568320970692304673817341489687455367168"
      ]
    },
    {
      "x": 70,
      "y": 129,
      "size": 1,
      "price": "2106000000000000000000",
      "reserved": "",
      "assetIds": [
        "55464657044963196816950587289035428064568320970692304673817341489687455367173",
        "55464657044963196816950587289035428064568320970692304673817341489687455367170",
        "55464657044963196816950587289035428064568320970692304673817341489687455367169",
        "55464657044963196816950587289035428064568320970692304673817341489687455367168"
      ]
    },
    {
      "x": 69,
      "y": 129,
      "size": 1,
      "price": "2106000000000000000000",
      "reserved": "",
      "assetIds": [
        "55464657044963196816950587289035428064568320970692304673817341489687455367174",
        "55464657044963196816950587289035428064568320970692304673817341489687455367170",
        "55464657044963196816950587289035428064568320970692304673817341489687455367169",
        "55464657044963196816950587289035428064568320970692304673817341489687455367168"
      ]
    },
    {
      "x": 69,
      "y": 130,
      "size": 1,
      "price": "2106000000000000000000",
      "reserved": "",
      "assetIds": [
        "55464657044963196816950587289035428064568320970692304673817341489687455367183",
        "55464657044963196816950587289035428064568320970692304673817341489687455367171",
        "55464657044963196816950587289035428064568320970692304673817341489687455367169",
        "55464657044963196816950587289035428064568320970692304673817341489687455367168"
      ]
    },
    {
      "x": 68,
      "y": 130,
      "size": 1,
      "price": "2106000000000000000000",
      "reserved": "",
      "assetIds": [
        "55464657044963196816950587289035428064568320970692304673817341489687455367178",
        "55464657044963196816950587289035428064568320970692304673817341489687455367171",
        "55464657044963196816950587289035428064568320970692304673817341489687455367169",
        "55464657044963196816950587289035428064568320970692304673817341489687455367168"
      ]
    },
    {
      "x": 71,
      "y": 130,
      "size": 1,
      "price": "2106000000000000000000",
      "reserved": "",
      "assetIds": [
        "55464657044963196816950587289035428064568320970692304673817341489687455367182",
        "55464657044963196816950587289035428064568320970692304673817341489687455367171",
        "55464657044963196816950587289035428064568320970692304673817341489687455367169",
        "55464657044963196816950587289035428064568320970692304673817341489687455367168"
      ]
    },
    {
      "x": 72,
      "y": 130,
      "size": 1,
      "price": "2106000000000000000000",
      "reserved": "",
      "assetIds": [
        "55464657044963196816950587289035428064568320970692304673817341489687455367183",
        "55464657044963196816950587289035428064568320970692304673817341489687455367171",
        "55464657044963196816950587289035428064568320970692304673817341489687455367169",
        "55464657044963196816950587289035428064568320970692304673817341489687455367168"
      ]
    },
    {
      "x": 78,
      "y": 131,
      "size": 1,
      "price": "2106000000000000000000",
      "reserved": "",
      "assetIds": [
        "55464657044963196816950587289035428064568320970692304673817341489687455367176",
        "55464657044963196816950587289035428064568320970692304673817341489687455367170",
        "55464657044963196816950587289035428064568320970692304673817341489687455367169",
        "55464657044963196816950587289035428064568320970692304673817341489687455367168"
      ]
    },
    {
      "x": 79,
      "y": 131,
      "size": 1,
      "price": "2106000000000000000000",
      "reserved": "",
      "assetIds": [
        "55464657044963196816950587289035428064568320970692304673817341489687455367175",
        "55464657044963196816950587289035428064568320970692304673817341489687455367170",
        "55464657044963196816950587289035428064568320970692304673817341489687455367169",
        "55464657044963196816950587289035428064568320970692304673817341489687455367168"
      ]
    },
    {
      "x": 80,
      "y": 131,
      "size": 1,
      "price": "2106000000000000000000",
      "reserved": "",
      "assetIds": [
        "55464657044963196816950587289035428064568320970692304673817341489687455367177",
        "55464657044963196816950587289035428064568320970692304673817341489687455367170",
        "55464657044963196816950587289035428064568320970692304673817341489687455367169",
        "55464657044963196816950587289035428064568320970692304673817341489687455367168"
      ]
    },
    {
      "x": 81,
      "y": 131,
      "size": 1,
      "price": "2106000000000000000000",
      "reserved": "",
      "assetIds": [
        "55464657044963196816950587289035428064568320970692304673817341489687455367178",
        "55464657044963196816950587289035428064568320970692304673817341489687455367171",
        "55464657044963196816950587289035428064568320970692304673817341489687455367169",
        "55464657044963196816950587289035428064568320970692304673817341489687455367168"
      ]
    },
    {
      "x": 82,
      "y": 131,
      "size": 1,
      "price": "2106000000000000000000",
      "reserved": "",
      "assetIds": [
        "55464657044963196816950587289035428064568320970692304673817341489687455367175",
        "55464657044963196816950587289035428064568320970692304673817341489687455367170",
        "55464657044963196816950587289035428064568320970692304673817341489687455367169",
        "55464657044963196816950587289035428064568320970692304673817341489687455367168"
      ]
    },
    {
      "x": 83,
      "y": 131,
      "size": 1,
      "price": "2106000000000000000000",
      "reserved": "",
      "assetIds": [
        "55464657044963196816950587289035428064568320970692304673817341489687455367181",
        "55464657044963196816950587289035428064568320970692304673817341489687455367171",
        "55464657044963196816950587289035428064568320970692304673817341489687455367169",
        "55464657044963196816950587289035428064568320970692304673817341489687455367168"
      ]
    },
    {
      "x": 83,
      "y": 130,
      "size": 1,
      "price": "2106000000000000000000",
      "reserved": "",
      "assetIds": [
        "55464657044963196816950587289035428064568320970692304673817341489687455367172",
        "55464657044963196816950587289035428064568320970692304673817341489687455367170",
        "55464657044963196816950587289035428064568320970692304673817341489687455367169",
        "55464657044963196816950587289035428064568320970692304673817341489687455367168"
      ]
    },
    {
      "x": 84,
      "y": 130,
      "size": 1,
      "price": "2106000000000000000000",
      "reserved": "",
      "assetIds": [
        "55464657044963196816950587289035428064568320970692304673817341489687455367178",
        "55464657044963196816950587289035428064568320970692304673817341489687455367171",
        "55464657044963196816950587289035428064568320970692304673817341489687455367169",
        "55464657044963196816950587289035428064568320970692304673817341489687455367168"
      ]
    },
    {
      "x": 84,
      "y": 131,
      "size": 1,
      "price": "2106000000000000000000",
      "reserved": "",
      "assetIds": [
        "55464657044963196816950587289035428064568320970692304673817341489687455367176",
        "55464657044963196816950587289035428064568320970692304673817341489687455367170",
        "55464657044963196816950587289035428064568320970692304673817341489687455367169",
        "55464657044963196816950587289035428064568320970692304673817341489687455367168"
      ]
    },
    {
      "x": 86,
      "y": 131,
      "size": 1,
      "price": "2106000000000000000000",
      "reserved": "",
      "assetIds": [
        "55464657044963196816950587289035428064568320970692304673817341489687455367177",
        "55464657044963196816950587289035428064568320970692304673817341489687455367170",
        "55464657044963196816950587289035428064568320970692304673817341489687455367169",
        "55464657044963196816950587289035428064568320970692304673817341489687455367168"
      ]
    },
    {
      "x": 87,
      "y": 131,
      "size": 1,
      "price": "2106000000000000000000",
      "reserved": "",
      "assetIds": [
        "55464657044963196816950587289035428064568320970692304673817341489687455367182",
        "55464657044963196816950587289035428064568320970692304673817341489687455367171",
        "55464657044963196816950587289035428064568320970692304673817341489687455367169",
        "55464657044963196816950587289035428064568320970692304673817341489687455367168"
      ]
    },
    {
      "x": 87,
      "y": 130,
      "size": 1,
      "price": "2106000000000000000000",
      "reserved": "",
      "assetIds": [
        "55464657044963196816950587289035428064568320970692304673817341489687455367172",
        "55464657044963196816950587289035428064568320970692304673817341489687455367170",
        "55464657044963196816950587289035428064568320970692304673817341489687455367169",
        "55464657044963196816950587289035428064568320970692304673817341489687455367168"
      ]
    },
    {
      "x": 77,
      "y": 131,
      "size": 1,
      "price": "2106000000000000000000",
      "reserved": "",
      "assetIds": [
        "55464657044963196816950587289035428064568320970692304673817341489687455367182",
        "55464657044963196816950587289035428064568320970692304673817341489687455367171",
        "55464657044963196816950587289035428064568320970692304673817341489687455367169",
        "55464657044963196816950587289035428064568320970692304673817341489687455367168"
      ]
    },
    {
      "x": 76,
      "y": 131,
      "size": 1,
      "price": "2106000000000000000000",
      "reserved": "",
      "assetIds": [
        "55464657044963196816950587289035428064568320970692304673817341489687455367179",
        "55464657044963196816950587289035428064568320970692304673817341489687455367171",
        "55464657044963196816950587289035428064568320970692304673817341489687455367169",
        "55464657044963196816950587289035428064568320970692304673817341489687455367168"
      ]
    },
    {
      "x": 75,
      "y": 131,
      "size": 1,
      "price": "2106000000000000000000",
      "reserved": "",
      "assetIds": [
        "55464657044963196816950587289035428064568320970692304673817341489687455367175",
        "55464657044963196816950587289035428064568320970692304673817341489687455367170",
        "55464657044963196816950587289035428064568320970692304673817341489687455367169",
        "55464657044963196816950587289035428064568320970692304673817341489687455367168"
      ]
    },
    {
      "x": 74,
      "y": 131,
      "size": 1,
      "price": "2106000000000000000000",
      "reserved": "",
      "assetIds": [
        "55464657044963196816950587289035428064568320970692304673817341489687455367175",
        "55464657044963196816950587289035428064568320970692304673817341489687455367170",
        "55464657044963196816950587289035428064568320970692304673817341489687455367169",
        "55464657044963196816950587289035428064568320970692304673817341489687455367168"
      ]
    },
    {
      "x": 73,
      "y": 131,
      "size": 1,
      "price": "2106000000000000000000",
      "reserved": "",
      "assetIds": [
        "55464657044963196816950587289035428064568320970692304673817341489687455367179",
        "55464657044963196816950587289035428064568320970692304673817341489687455367171",
        "55464657044963196816950587289035428064568320970692304673817341489687455367169",
        "55464657044963196816950587289035428064568320970692304673817341489687455367168"
      ]
    },
    {
      "x": 72,
      "y": 131,
      "size": 1,
      "price": "2106000000000000000000",
      "reserved": "",
      "assetIds": [
        "55464657044963196816950587289035428064568320970692304673817341489687455367177",
        "55464657044963196816950587289035428064568320970692304673817341489687455367170",
        "55464657044963196816950587289035428064568320970692304673817341489687455367169",
        "55464657044963196816950587289035428064568320970692304673817341489687455367168"
      ]
    },
    {
      "x": 71,
      "y": 131,
      "size": 1,
      "price": "2106000000000000000000",
      "reserved": "",
      "assetIds": [
        "55464657044963196816950587289035428064568320970692304673817341489687455367179",
        "55464657044963196816950587289035428064568320970692304673817341489687455367171",
        "55464657044963196816950587289035428064568320970692304673817341489687455367169",
        "55464657044963196816950587289035428064568320970692304673817341489687455367168"
      ]
    },
    {
      "x": 70,
      "y": 131,
      "size": 1,
      "price": "2106000000000000000000",
      "reserved": "",
      "assetIds": [
        "55464657044963196816950587289035428064568320970692304673817341489687455367182",
        "55464657044963196816950587289035428064568320970692304673817341489687455367171",
        "55464657044963196816950587289035428064568320970692304673817341489687455367169",
        "55464657044963196816950587289035428064568320970692304673817341489687455367168"
      ]
    },
    {
      "x": 69,
      "y": 131,
      "size": 1,
      "price": "2106000000000000000000",
      "reserved": "",
      "assetIds": [
        "55464657044963196816950587289035428064568320970692304673817341489687455367182",
        "55464657044963196816950587289035428064568320970692304673817341489687455367171",
        "55464657044963196816950587289035428064568320970692304673817341489687455367169",
        "55464657044963196816950587289035428064568320970692304673817341489687455367168"
      ]
    },
    {
      "x": 68,
      "y": 132,
      "size": 1,
      "price": "2106000000000000000000",
      "reserved": "",
      "assetIds": [
        "55464657044963196816950587289035428064568320970692304673817341489687455367175",
        "55464657044963196816950587289035428064568320970692304673817341489687455367170",
        "55464657044963196816950587289035428064568320970692304673817341489687455367169",
        "55464657044963196816950587289035428064568320970692304673817341489687455367168"
      ]
    },
    {
      "x": 69,
      "y": 132,
      "size": 1,
      "price": "2106000000000000000000",
      "reserved": "",
      "assetIds": [
        "55464657044963196816950587289035428064568320970692304673817341489687455367174",
        "55464657044963196816950587289035428064568320970692304673817341489687455367170",
        "55464657044963196816950587289035428064568320970692304673817341489687455367169",
        "55464657044963196816950587289035428064568320970692304673817341489687455367168"
      ]
    },
    {
      "x": 70,
      "y": 132,
      "size": 1,
      "price": "2106000000000000000000",
      "reserved": "",
      "assetIds": [
        "55464657044963196816950587289035428064568320970692304673817341489687455367182",
        "55464657044963196816950587289035428064568320970692304673817341489687455367171",
        "55464657044963196816950587289035428064568320970692304673817341489687455367169",
        "55464657044963196816950587289035428064568320970692304673817341489687455367168"
      ]
    },
    {
      "x": 71,
      "y": 132,
      "size": 1,
      "price": "2106000000000000000000",
      "reserved": "",
      "assetIds": [
        "55464657044963196816950587289035428064568320970692304673817341489687455367172",
        "55464657044963196816950587289035428064568320970692304673817341489687455367170",
        "55464657044963196816950587289035428064568320970692304673817341489687455367169",
        "55464657044963196816950587289035428064568320970692304673817341489687455367168"
      ]
    },
    {
      "x": 70,
      "y": 134,
      "size": 1,
      "price": "2106000000000000000000",
      "reserved": "",
      "assetIds": [
        "55464657044963196816950587289035428064568320970692304673817341489687455367182",
        "55464657044963196816950587289035428064568320970692304673817341489687455367171",
        "55464657044963196816950587289035428064568320970692304673817341489687455367169",
        "55464657044963196816950587289035428064568320970692304673817341489687455367168"
      ]
    },
    {
      "x": 71,
      "y": 134,
      "size": 1,
      "price": "2106000000000000000000",
      "reserved": "",
      "assetIds": [
        "55464657044963196816950587289035428064568320970692304673817341489687455367178",
        "55464657044963196816950587289035428064568320970692304673817341489687455367171",
        "55464657044963196816950587289035428064568320970692304673817341489687455367169",
        "55464657044963196816950587289035428064568320970692304673817341489687455367168"
      ]
    },
    {
      "x": 71,
      "y": 133,
      "size": 1,
      "price": "2106000000000000000000",
      "reserved": "",
      "assetIds": [
        "55464657044963196816950587289035428064568320970692304673817341489687455367172",
        "55464657044963196816950587289035428064568320970692304673817341489687455367170",
        "55464657044963196816950587289035428064568320970692304673817341489687455367169",
        "55464657044963196816950587289035428064568320970692304673817341489687455367168"
      ]
    },
    {
      "x": 69,
      "y": 134,
      "size": 1,
      "price": "2106000000000000000000",
      "reserved": "",
      "assetIds": [
        "55464657044963196816950587289035428064568320970692304673817341489687455367178",
        "55464657044963196816950587289035428064568320970692304673817341489687455367171",
        "55464657044963196816950587289035428064568320970692304673817341489687455367169",
        "55464657044963196816950587289035428064568320970692304673817341489687455367168"
      ]
    },
    {
      "x": 69,
      "y": 133,
      "size": 1,
      "price": "2106000000000000000000",
      "reserved": "",
      "assetIds": [
        "55464657044963196816950587289035428064568320970692304673817341489687455367174",
        "55464657044963196816950587289035428064568320970692304673817341489687455367170",
        "55464657044963196816950587289035428064568320970692304673817341489687455367169",
        "55464657044963196816950587289035428064568320970692304673817341489687455367168"
      ]
    },
    {
      "x": 68,
      "y": 133,
      "size": 1,
      "price": "2106000000000000000000",
      "reserved": "",
      "assetIds": [
        "55464657044963196816950587289035428064568320970692304673817341489687455367183",
        "55464657044963196816950587289035428064568320970692304673817341489687455367171",
        "55464657044963196816950587289035428064568320970692304673817341489687455367169",
        "55464657044963196816950587289035428064568320970692304673817341489687455367168"
      ]
    },
    {
      "x": 67,
      "y": 134,
      "size": 1,
      "price": "2106000000000000000000",
      "reserved": "",
      "assetIds": [
        "55464657044963196816950587289035428064568320970692304673817341489687455367175",
        "55464657044963196816950587289035428064568320970692304673817341489687455367170",
        "55464657044963196816950587289035428064568320970692304673817341489687455367169",
        "55464657044963196816950587289035428064568320970692304673817341489687455367168"
      ]
    },
    {
      "x": 67,
      "y": 135,
      "size": 1,
      "price": "2106000000000000000000",
      "reserved": "",
      "assetIds": [
        "55464657044963196816950587289035428064568320970692304673817341489687455367173",
        "55464657044963196816950587289035428064568320970692304673817341489687455367170",
        "55464657044963196816950587289035428064568320970692304673817341489687455367169",
        "55464657044963196816950587289035428064568320970692304673817341489687455367168"
      ]
    },
    {
      "x": 68,
      "y": 134,
      "size": 1,
      "price": "2106000000000000000000",
      "reserved": "",
      "assetIds": [
        "55464657044963196816950587289035428064568320970692304673817341489687455367183",
        "55464657044963196816950587289035428064568320970692304673817341489687455367171",
        "55464657044963196816950587289035428064568320970692304673817341489687455367169",
        "55464657044963196816950587289035428064568320970692304673817341489687455367168"
      ]
    },
    {
      "x": 70,
      "y": 135,
      "size": 1,
      "price": "2106000000000000000000",
      "reserved": "",
      "assetIds": [
        "55464657044963196816950587289035428064568320970692304673817341489687455367172",
        "55464657044963196816950587289035428064568320970692304673817341489687455367170",
        "55464657044963196816950587289035428064568320970692304673817341489687455367169",
        "55464657044963196816950587289035428064568320970692304673817341489687455367168"
      ]
    },
    {
      "x": 71,
      "y": 136,
      "size": 1,
      "price": "2106000000000000000000",
      "reserved": "",
      "assetIds": [
        "55464657044963196816950587289035428064568320970692304673817341489687455367181",
        "55464657044963196816950587289035428064568320970692304673817341489687455367171",
        "55464657044963196816950587289035428064568320970692304673817341489687455367169",
        "55464657044963196816950587289035428064568320970692304673817341489687455367168"
      ]
    },
    {
      "x": 71,
      "y": 135,
      "size": 1,
      "price": "2106000000000000000000",
      "reserved": "",
      "assetIds": [
        "55464657044963196816950587289035428064568320970692304673817341489687455367179",
        "55464657044963196816950587289035428064568320970692304673817341489687455367171",
        "55464657044963196816950587289035428064568320970692304673817341489687455367169",
        "55464657044963196816950587289035428064568320970692304673817341489687455367168"
      ]
    },
    {
      "x": 69,
      "y": 135,
      "size": 1,
      "price": "2106000000000000000000",
      "reserved": "",
      "assetIds": [
        "55464657044963196816950587289035428064568320970692304673817341489687455367177",
        "55464657044963196816950587289035428064568320970692304673817341489687455367170",
        "55464657044963196816950587289035428064568320970692304673817341489687455367169",
        "55464657044963196816950587289035428064568320970692304673817341489687455367168"
      ]
    },
    {
      "x": 69,
      "y": 136,
      "size": 1,
      "price": "2106000000000000000000",
      "reserved": "",
      "assetIds": [
        "55464657044963196816950587289035428064568320970692304673817341489687455367179",
        "55464657044963196816950587289035428064568320970692304673817341489687455367171",
        "55464657044963196816950587289035428064568320970692304673817341489687455367169",
        "55464657044963196816950587289035428064568320970692304673817341489687455367168"
      ]
    },
    {
      "x": 68,
      "y": 136,
      "size": 1,
      "price": "2106000000000000000000",
      "reserved": "",
      "assetIds": [
        "55464657044963196816950587289035428064568320970692304673817341489687455367182",
        "55464657044963196816950587289035428064568320970692304673817341489687455367171",
        "55464657044963196816950587289035428064568320970692304673817341489687455367169",
        "55464657044963196816950587289035428064568320970692304673817341489687455367168"
      ]
    },
    {
      "x": 67,
      "y": 136,
      "size": 1,
      "price": "2106000000000000000000",
      "reserved": "",
      "assetIds": [
        "55464657044963196816950587289035428064568320970692304673817341489687455367175",
        "55464657044963196816950587289035428064568320970692304673817341489687455367170",
        "55464657044963196816950587289035428064568320970692304673817341489687455367169",
        "55464657044963196816950587289035428064568320970692304673817341489687455367168"
      ]
    },
    {
      "x": 67,
      "y": 137,
      "size": 1,
      "price": "2106000000000000000000",
      "reserved": "",
      "assetIds": [
        "55464657044963196816950587289035428064568320970692304673817341489687455367181",
        "55464657044963196816950587289035428064568320970692304673817341489687455367171",
        "55464657044963196816950587289035428064568320970692304673817341489687455367169",
        "55464657044963196816950587289035428064568320970692304673817341489687455367168"
      ]
    },
    {
      "x": 67,
      "y": 138,
      "size": 1,
      "price": "2106000000000000000000",
      "reserved": "",
      "assetIds": [
        "55464657044963196816950587289035428064568320970692304673817341489687455367182",
        "55464657044963196816950587289035428064568320970692304673817341489687455367171",
        "55464657044963196816950587289035428064568320970692304673817341489687455367169",
        "55464657044963196816950587289035428064568320970692304673817341489687455367168"
      ]
    },
    {
      "x": 66,
      "y": 138,
      "size": 1,
      "price": "2106000000000000000000",
      "reserved": "",
      "assetIds": [
        "55464657044963196816950587289035428064568320970692304673817341489687455367179",
        "55464657044963196816950587289035428064568320970692304673817341489687455367171",
        "55464657044963196816950587289035428064568320970692304673817341489687455367169",
        "55464657044963196816950587289035428064568320970692304673817341489687455367168"
      ]
    },
    {
      "x": 66,
      "y": 137,
      "size": 1,
      "price": "2106000000000000000000",
      "reserved": "",
      "assetIds": [
        "55464657044963196816950587289035428064568320970692304673817341489687455367181",
        "55464657044963196816950587289035428064568320970692304673817341489687455367171",
        "55464657044963196816950587289035428064568320970692304673817341489687455367169",
        "55464657044963196816950587289035428064568320970692304673817341489687455367168"
      ]
    },
    {
      "x": 68,
      "y": 137,
      "size": 1,
      "price": "2106000000000000000000",
      "reserved": "",
      "assetIds": [
        "55464657044963196816950587289035428064568320970692304673817341489687455367176",
        "55464657044963196816950587289035428064568320970692304673817341489687455367170",
        "55464657044963196816950587289035428064568320970692304673817341489687455367169",
        "55464657044963196816950587289035428064568320970692304673817341489687455367168"
      ]
    },
    {
      "x": 69,
      "y": 137,
      "size": 1,
      "price": "2106000000000000000000",
      "reserved": "",
      "assetIds": [
        "55464657044963196816950587289035428064568320970692304673817341489687455367177",
        "55464657044963196816950587289035428064568320970692304673817341489687455367170",
        "55464657044963196816950587289035428064568320970692304673817341489687455367169",
        "55464657044963196816950587289035428064568320970692304673817341489687455367168"
      ]
    },
    {
      "x": 70,
      "y": 137,
      "size": 1,
      "price": "2106000000000000000000",
      "reserved": "",
      "assetIds": [
        "55464657044963196816950587289035428064568320970692304673817341489687455367175",
        "55464657044963196816950587289035428064568320970692304673817341489687455367170",
        "55464657044963196816950587289035428064568320970692304673817341489687455367169",
        "55464657044963196816950587289035428064568320970692304673817341489687455367168"
      ]
    },
    {
      "x": 71,
      "y": 137,
      "size": 1,
      "price": "2106000000000000000000",
      "reserved": "",
      "assetIds": [
        "55464657044963196816950587289035428064568320970692304673817341489687455367181",
        "55464657044963196816950587289035428064568320970692304673817341489687455367171",
        "55464657044963196816950587289035428064568320970692304673817341489687455367169",
        "55464657044963196816950587289035428064568320970692304673817341489687455367168"
      ]
    },
    {
      "x": 71,
      "y": 138,
      "size": 1,
      "price": "2106000000000000000000",
      "reserved": "",
      "assetIds": [
        "55464657044963196816950587289035428064568320970692304673817341489687455367183",
        "55464657044963196816950587289035428064568320970692304673817341489687455367171",
        "55464657044963196816950587289035428064568320970692304673817341489687455367169",
        "55464657044963196816950587289035428064568320970692304673817341489687455367168"
      ]
    },
    {
      "x": 70,
      "y": 138,
      "size": 1,
      "price": "2106000000000000000000",
      "reserved": "",
      "assetIds": [
        "55464657044963196816950587289035428064568320970692304673817341489687455367178",
        "55464657044963196816950587289035428064568320970692304673817341489687455367171",
        "55464657044963196816950587289035428064568320970692304673817341489687455367169",
        "55464657044963196816950587289035428064568320970692304673817341489687455367168"
      ]
    },
    {
      "x": 69,
      "y": 138,
      "size": 1,
      "price": "2106000000000000000000",
      "reserved": "",
      "assetIds": [
        "55464657044963196816950587289035428064568320970692304673817341489687455367177",
        "55464657044963196816950587289035428064568320970692304673817341489687455367170",
        "55464657044963196816950587289035428064568320970692304673817341489687455367169",
        "55464657044963196816950587289035428064568320970692304673817341489687455367168"
      ]
    },
    {
      "x": 71,
      "y": 140,
      "size": 1,
      "price": "2106000000000000000000",
      "reserved": "",
      "assetIds": [
        "55464657044963196816950587289035428064568320970692304673817341489687455367175",
        "55464657044963196816950587289035428064568320970692304673817341489687455367170",
        "55464657044963196816950587289035428064568320970692304673817341489687455367169",
        "55464657044963196816950587289035428064568320970692304673817341489687455367168"
      ]
    },
    {
      "x": 71,
      "y": 141,
      "size": 1,
      "price": "2106000000000000000000",
      "reserved": "",
      "assetIds": [
        "55464657044963196816950587289035428064568320970692304673817341489687455367174",
        "55464657044963196816950587289035428064568320970692304673817341489687455367170",
        "55464657044963196816950587289035428064568320970692304673817341489687455367169",
        "55464657044963196816950587289035428064568320970692304673817341489687455367168"
      ]
    },
    {
      "x": 71,
      "y": 142,
      "size": 1,
      "price": "2106000000000000000000",
      "reserved": "",
      "assetIds": [
        "55464657044963196816950587289035428064568320970692304673817341489687455367174",
        "55464657044963196816950587289035428064568320970692304673817341489687455367170",
        "55464657044963196816950587289035428064568320970692304673817341489687455367169",
        "55464657044963196816950587289035428064568320970692304673817341489687455367168"
      ]
    },
    {
      "x": 71,
      "y": 143,
      "size": 1,
      "price": "2106000000000000000000",
      "reserved": "",
      "assetIds": [
        "55464657044963196816950587289035428064568320970692304673817341489687455367173",
        "55464657044963196816950587289035428064568320970692304673817341489687455367170",
        "55464657044963196816950587289035428064568320970692304673817341489687455367169",
        "55464657044963196816950587289035428064568320970692304673817341489687455367168"
      ]
    },
    {
      "x": 71,
      "y": 139,
      "size": 1,
      "price": "2106000000000000000000",
      "reserved": "",
      "assetIds": [
        "55464657044963196816950587289035428064568320970692304673817341489687455367181",
        "55464657044963196816950587289035428064568320970692304673817341489687455367171",
        "55464657044963196816950587289035428064568320970692304673817341489687455367169",
        "55464657044963196816950587289035428064568320970692304673817341489687455367168"
      ]
    },
    {
      "x": 69,
      "y": 139,
      "size": 1,
      "price": "2106000000000000000000",
      "reserved": "",
      "assetIds": [
        "55464657044963196816950587289035428064568320970692304673817341489687455367183",
        "55464657044963196816950587289035428064568320970692304673817341489687455367171",
        "55464657044963196816950587289035428064568320970692304673817341489687455367169",
        "55464657044963196816950587289035428064568320970692304673817341489687455367168"
      ]
    },
    {
      "x": 68,
      "y": 139,
      "size": 1,
      "price": "2106000000000000000000",
      "reserved": "",
      "assetIds": [
        "55464657044963196816950587289035428064568320970692304673817341489687455367176",
        "55464657044963196816950587289035428064568320970692304673817341489687455367170",
        "55464657044963196816950587289035428064568320970692304673817341489687455367169",
        "55464657044963196816950587289035428064568320970692304673817341489687455367168"
      ]
    },
    {
      "x": 67,
      "y": 139,
      "size": 1,
      "price": "2106000000000000000000",
      "reserved": "",
      "assetIds": [
        "55464657044963196816950587289035428064568320970692304673817341489687455367178",
        "55464657044963196816950587289035428064568320970692304673817341489687455367171",
        "55464657044963196816950587289035428064568320970692304673817341489687455367169",
        "55464657044963196816950587289035428064568320970692304673817341489687455367168"
      ]
    },
    {
      "x": 66,
      "y": 139,
      "size": 1,
      "price": "2106000000000000000000",
      "reserved": "",
      "assetIds": [
        "55464657044963196816950587289035428064568320970692304673817341489687455367176",
        "55464657044963196816950587289035428064568320970692304673817341489687455367170",
        "55464657044963196816950587289035428064568320970692304673817341489687455367169",
        "55464657044963196816950587289035428064568320970692304673817341489687455367168"
      ]
    },
    {
      "x": 65,
      "y": 140,
      "size": 1,
      "price": "2106000000000000000000",
      "reserved": "",
      "assetIds": [
        "55464657044963196816950587289035428064568320970692304673817341489687455367176",
        "55464657044963196816950587289035428064568320970692304673817341489687455367170",
        "55464657044963196816950587289035428064568320970692304673817341489687455367169",
        "55464657044963196816950587289035428064568320970692304673817341489687455367168"
      ]
    },
    {
      "x": 65,
      "y": 141,
      "size": 1,
      "price": "2106000000000000000000",
      "reserved": "",
      "assetIds": [
        "55464657044963196816950587289035428064568320970692304673817341489687455367181",
        "55464657044963196816950587289035428064568320970692304673817341489687455367171",
        "55464657044963196816950587289035428064568320970692304673817341489687455367169",
        "55464657044963196816950587289035428064568320970692304673817341489687455367168"
      ]
    },
    {
      "x": 65,
      "y": 142,
      "size": 1,
      "price": "2106000000000000000000",
      "reserved": "",
      "assetIds": [
        "55464657044963196816950587289035428064568320970692304673817341489687455367178",
        "55464657044963196816950587289035428064568320970692304673817341489687455367171",
        "55464657044963196816950587289035428064568320970692304673817341489687455367169",
        "55464657044963196816950587289035428064568320970692304673817341489687455367168"
      ]
    },
    {
      "x": 66,
      "y": 141,
      "size": 1,
      "price": "2106000000000000000000",
      "reserved": "",
      "assetIds": [
        "55464657044963196816950587289035428064568320970692304673817341489687455367177",
        "55464657044963196816950587289035428064568320970692304673817341489687455367170",
        "55464657044963196816950587289035428064568320970692304673817341489687455367169",
        "55464657044963196816950587289035428064568320970692304673817341489687455367168"
      ]
    },
    {
      "x": 67,
      "y": 140,
      "size": 1,
      "price": "2106000000000000000000",
      "reserved": "",
      "assetIds": [
        "55464657044963196816950587289035428064568320970692304673817341489687455367178",
        "55464657044963196816950587289035428064568320970692304673817341489687455367171",
        "55464657044963196816950587289035428064568320970692304673817341489687455367169",
        "55464657044963196816950587289035428064568320970692304673817341489687455367168"
      ]
    },
    {
      "x": 68,
      "y": 140,
      "size": 1,
      "price": "2106000000000000000000",
      "reserved": "",
      "assetIds": [
        "55464657044963196816950587289035428064568320970692304673817341489687455367182",
        "55464657044963196816950587289035428064568320970692304673817341489687455367171",
        "55464657044963196816950587289035428064568320970692304673817341489687455367169",
        "55464657044963196816950587289035428064568320970692304673817341489687455367168"
      ]
    },
    {
      "x": 69,
      "y": 140,
      "size": 1,
      "price": "2106000000000000000000",
      "reserved": "",
      "assetIds": [
        "55464657044963196816950587289035428064568320970692304673817341489687455367176",
        "55464657044963196816950587289035428064568320970692304673817341489687455367170",
        "55464657044963196816950587289035428064568320970692304673817341489687455367169",
        "55464657044963196816950587289035428064568320970692304673817341489687455367168"
      ]
    },
    {
      "x": 70,
      "y": 140,
      "size": 1,
      "price": "2106000000000000000000",
      "reserved": "",
      "assetIds": [
        "55464657044963196816950587289035428064568320970692304673817341489687455367183",
        "55464657044963196816950587289035428064568320970692304673817341489687455367171",
        "55464657044963196816950587289035428064568320970692304673817341489687455367169",
        "55464657044963196816950587289035428064568320970692304673817341489687455367168"
      ]
    },
    {
      "x": 70,
      "y": 141,
      "size": 1,
      "price": "2106000000000000000000",
      "reserved": "",
      "assetIds": [
        "55464657044963196816950587289035428064568320970692304673817341489687455367177",
        "55464657044963196816950587289035428064568320970692304673817341489687455367170",
        "55464657044963196816950587289035428064568320970692304673817341489687455367169",
        "55464657044963196816950587289035428064568320970692304673817341489687455367168"
      ]
    },
    {
      "x": 69,
      "y": 141,
      "size": 1,
      "price": "2106000000000000000000",
      "reserved": "",
      "assetIds": [
        "55464657044963196816950587289035428064568320970692304673817341489687455367175",
        "55464657044963196816950587289035428064568320970692304673817341489687455367170",
        "55464657044963196816950587289035428064568320970692304673817341489687455367169",
        "55464657044963196816950587289035428064568320970692304673817341489687455367168"
      ]
    },
    {
      "x": 68,
      "y": 141,
      "size": 1,
      "price": "2106000000000000000000",
      "reserved": "",
      "assetIds": [
        "55464657044963196816950587289035428064568320970692304673817341489687455367178",
        "55464657044963196816950587289035428064568320970692304673817341489687455367171",
        "55464657044963196816950587289035428064568320970692304673817341489687455367169",
        "55464657044963196816950587289035428064568320970692304673817341489687455367168"
      ]
    },
    {
      "x": 67,
      "y": 141,
      "size": 1,
      "price": "2106000000000000000000",
      "reserved": "",
      "assetIds": [
        "55464657044963196816950587289035428064568320970692304673817341489687455367180",
        "55464657044963196816950587289035428064568320970692304673817341489687455367171",
        "55464657044963196816950587289035428064568320970692304673817341489687455367169",
        "55464657044963196816950587289035428064568320970692304673817341489687455367168"
      ]
    },
    {
      "x": 67,
      "y": 142,
      "size": 1,
      "price": "2106000000000000000000",
      "reserved": "",
      "assetIds": [
        "55464657044963196816950587289035428064568320970692304673817341489687455367177",
        "55464657044963196816950587289035428064568320970692304673817341489687455367170",
        "55464657044963196816950587289035428064568320970692304673817341489687455367169",
        "55464657044963196816950587289035428064568320970692304673817341489687455367168"
      ]
    },
    {
      "x": 68,
      "y": 142,
      "size": 1,
      "price": "2106000000000000000000",
      "reserved": "",
      "assetIds": [
        "55464657044963196816950587289035428064568320970692304673817341489687455367174",
        "55464657044963196816950587289035428064568320970692304673817341489687455367170",
        "55464657044963196816950587289035428064568320970692304673817341489687455367169",
        "55464657044963196816950587289035428064568320970692304673817341489687455367168"
      ]
    },
    {
      "x": 69,
      "y": 142,
      "size": 1,
      "price": "2106000000000000000000",
      "reserved": "",
      "assetIds": [
        "55464657044963196816950587289035428064568320970692304673817341489687455367178",
        "55464657044963196816950587289035428064568320970692304673817341489687455367171",
        "55464657044963196816950587289035428064568320970692304673817341489687455367169",
        "55464657044963196816950587289035428064568320970692304673817341489687455367168"
      ]
    },
    {
      "x": 69,
      "y": 143,
      "size": 1,
      "price": "2106000000000000000000",
      "reserved": "",
      "assetIds": [
        "55464657044963196816950587289035428064568320970692304673817341489687455367180",
        "55464657044963196816950587289035428064568320970692304673817341489687455367171",
        "55464657044963196816950587289035428064568320970692304673817341489687455367169",
        "55464657044963196816950587289035428064568320970692304673817341489687455367168"
      ]
    },
    {
      "x": 67,
      "y": 143,
      "size": 1,
      "price": "2106000000000000000000",
      "reserved": "",
      "assetIds": [
        "55464657044963196816950587289035428064568320970692304673817341489687455367182",
        "55464657044963196816950587289035428064568320970692304673817341489687455367171",
        "55464657044963196816950587289035428064568320970692304673817341489687455367169",
        "55464657044963196816950587289035428064568320970692304673817341489687455367168"
      ]
    },
    {
      "x": 66,
      "y": 143,
      "size": 1,
      "price": "2106000000000000000000",
      "reserved": "",
      "assetIds": [
        "55464657044963196816950587289035428064568320970692304673817341489687455367182",
        "55464657044963196816950587289035428064568320970692304673817341489687455367171",
        "55464657044963196816950587289035428064568320970692304673817341489687455367169",
        "55464657044963196816950587289035428064568320970692304673817341489687455367168"
      ]
    },
    {
      "x": 66,
      "y": 144,
      "size": 1,
      "price": "2106000000000000000000",
      "reserved": "",
      "assetIds": [
        "55464657044963196816950587289035428064568320970692304673817341489687455367173",
        "55464657044963196816950587289035428064568320970692304673817341489687455367170",
        "55464657044963196816950587289035428064568320970692304673817341489687455367169",
        "55464657044963196816950587289035428064568320970692304673817341489687455367168"
      ]
    },
    {
      "x": 67,
      "y": 144,
      "size": 1,
      "price": "2106000000000000000000",
      "reserved": "",
      "assetIds": [
        "55464657044963196816950587289035428064568320970692304673817341489687455367183",
        "55464657044963196816950587289035428064568320970692304673817341489687455367171",
        "55464657044963196816950587289035428064568320970692304673817341489687455367169",
        "55464657044963196816950587289035428064568320970692304673817341489687455367168"
      ]
    },
    {
      "x": 68,
      "y": 144,
      "size": 1,
      "price": "2106000000000000000000",
      "reserved": "",
      "assetIds": [
        "55464657044963196816950587289035428064568320970692304673817341489687455367176",
        "55464657044963196816950587289035428064568320970692304673817341489687455367170",
        "55464657044963196816950587289035428064568320970692304673817341489687455367169",
        "55464657044963196816950587289035428064568320970692304673817341489687455367168"
      ]
    },
    {
      "x": 70,
      "y": 143,
      "size": 1,
      "price": "2106000000000000000000",
      "reserved": "",
      "assetIds": [
        "55464657044963196816950587289035428064568320970692304673817341489687455367180",
        "55464657044963196816950587289035428064568320970692304673817341489687455367171",
        "55464657044963196816950587289035428064568320970692304673817341489687455367169",
        "55464657044963196816950587289035428064568320970692304673817341489687455367168"
      ]
    },
    {
      "x": 70,
      "y": 144,
      "size": 1,
      "price": "2106000000000000000000",
      "reserved": "",
      "assetIds": [
        "55464657044963196816950587289035428064568320970692304673817341489687455367172",
        "55464657044963196816950587289035428064568320970692304673817341489687455367170",
        "55464657044963196816950587289035428064568320970692304673817341489687455367169",
        "55464657044963196816950587289035428064568320970692304673817341489687455367168"
      ]
    },
    {
      "x": 69,
      "y": 144,
      "size": 1,
      "price": "2106000000000000000000",
      "reserved": "",
      "assetIds": [
        "55464657044963196816950587289035428064568320970692304673817341489687455367176",
        "55464657044963196816950587289035428064568320970692304673817341489687455367170",
        "55464657044963196816950587289035428064568320970692304673817341489687455367169",
        "55464657044963196816950587289035428064568320970692304673817341489687455367168"
      ]
    },
    {
      "x": 69,
      "y": 145,
      "size": 1,
      "price": "2106000000000000000000",
      "reserved": "",
      "assetIds": [
        "55464657044963196816950587289035428064568320970692304673817341489687455367179",
        "55464657044963196816950587289035428064568320970692304673817341489687455367171",
        "55464657044963196816950587289035428064568320970692304673817341489687455367169",
        "55464657044963196816950587289035428064568320970692304673817341489687455367168"
      ]
    },
    {
      "x": 69,
      "y": 146,
      "size": 1,
      "price": "2106000000000000000000",
      "reserved": "",
      "assetIds": [
        "55464657044963196816950587289035428064568320970692304673817341489687455367176",
        "55464657044963196816950587289035428064568320970692304673817341489687455367170",
        "55464657044963196816950587289035428064568320970692304673817341489687455367169",
        "55464657044963196816950587289035428064568320970692304673817341489687455367168"
      ]
    },
    {
      "x": 68,
      "y": 146,
      "size": 1,
      "price": "2106000000000000000000",
      "reserved": "",
      "assetIds": [
        "55464657044963196816950587289035428064568320970692304673817341489687455367179",
        "55464657044963196816950587289035428064568320970692304673817341489687455367171",
        "55464657044963196816950587289035428064568320970692304673817341489687455367169",
        "55464657044963196816950587289035428064568320970692304673817341489687455367168"
      ]
    },
    {
      "x": 68,
      "y": 145,
      "size": 1,
      "price": "2106000000000000000000",
      "reserved": "",
      "assetIds": [
        "55464657044963196816950587289035428064568320970692304673817341489687455367173",
        "55464657044963196816950587289035428064568320970692304673817341489687455367170",
        "55464657044963196816950587289035428064568320970692304673817341489687455367169",
        "55464657044963196816950587289035428064568320970692304673817341489687455367168"
      ]
    },
    {
      "x": 67,
      "y": 145,
      "size": 1,
      "price": "2106000000000000000000",
      "reserved": "",
      "assetIds": [
        "55464657044963196816950587289035428064568320970692304673817341489687455367177",
        "55464657044963196816950587289035428064568320970692304673817341489687455367170",
        "55464657044963196816950587289035428064568320970692304673817341489687455367169",
        "55464657044963196816950587289035428064568320970692304673817341489687455367168"
      ]
    },
    {
      "x": 67,
      "y": 146,
      "size": 1,
      "price": "2106000000000000000000",
      "reserved": "",
      "assetIds": [
        "55464657044963196816950587289035428064568320970692304673817341489687455367178",
        "55464657044963196816950587289035428064568320970692304673817341489687455367171",
        "55464657044963196816950587289035428064568320970692304673817341489687455367169",
        "55464657044963196816950587289035428064568320970692304673817341489687455367168"
      ]
    },
    {
      "x": 67,
      "y": 147,
      "size": 1,
      "price": "2106000000000000000000",
      "reserved": "",
      "assetIds": [
        "55464657044963196816950587289035428064568320970692304673817341489687455367177",
        "55464657044963196816950587289035428064568320970692304673817341489687455367170",
        "55464657044963196816950587289035428064568320970692304673817341489687455367169",
        "55464657044963196816950587289035428064568320970692304673817341489687455367168"
      ]
    },
    {
      "x": 69,
      "y": 147,
      "size": 1,
      "price": "2106000000000000000000",
      "reserved": "",
      "assetIds": [
        "55464657044963196816950587289035428064568320970692304673817341489687455367183",
        "55464657044963196816950587289035428064568320970692304673817341489687455367171",
        "55464657044963196816950587289035428064568320970692304673817341489687455367169",
        "55464657044963196816950587289035428064568320970692304673817341489687455367168"
      ]
    },
    {
      "x": 70,
      "y": 147,
      "size": 1,
      "price": "2106000000000000000000",
      "reserved": "",
      "assetIds": [
        "55464657044963196816950587289035428064568320970692304673817341489687455367174",
        "55464657044963196816950587289035428064568320970692304673817341489687455367170",
        "55464657044963196816950587289035428064568320970692304673817341489687455367169",
        "55464657044963196816950587289035428064568320970692304673817341489687455367168"
      ]
    },
    {
      "x": 70,
      "y": 146,
      "size": 1,
      "price": "2106000000000000000000",
      "reserved": "",
      "assetIds": [
        "55464657044963196816950587289035428064568320970692304673817341489687455367183",
        "55464657044963196816950587289035428064568320970692304673817341489687455367171",
        "55464657044963196816950587289035428064568320970692304673817341489687455367169",
        "55464657044963196816950587289035428064568320970692304673817341489687455367168"
      ]
    },
    {
      "x": 71,
      "y": 146,
      "size": 1,
      "price": "2106000000000000000000",
      "reserved": "",
      "assetIds": [
        "55464657044963196816950587289035428064568320970692304673817341489687455367179",
        "55464657044963196816950587289035428064568320970692304673817341489687455367171",
        "55464657044963196816950587289035428064568320970692304673817341489687455367169",
        "55464657044963196816950587289035428064568320970692304673817341489687455367168"
      ]
    },
    {
      "x": 71,
      "y": 145,
      "size": 1,
      "price": "2106000000000000000000",
      "reserved": "",
      "assetIds": [
        "55464657044963196816950587289035428064568320970692304673817341489687455367173",
        "55464657044963196816950587289035428064568320970692304673817341489687455367170",
        "55464657044963196816950587289035428064568320970692304673817341489687455367169",
        "55464657044963196816950587289035428064568320970692304673817341489687455367168"
      ]
    },
    {
      "x": 71,
      "y": 144,
      "size": 1,
      "price": "2106000000000000000000",
      "reserved": "",
      "assetIds": [
        "55464657044963196816950587289035428064568320970692304673817341489687455367177",
        "55464657044963196816950587289035428064568320970692304673817341489687455367170",
        "55464657044963196816950587289035428064568320970692304673817341489687455367169",
        "55464657044963196816950587289035428064568320970692304673817341489687455367168"
      ]
    },
    {
      "x": 72,
      "y": 144,
      "size": 1,
      "price": "2106000000000000000000",
      "reserved": "",
      "assetIds": [
        "55464657044963196816950587289035428064568320970692304673817341489687455367178",
        "55464657044963196816950587289035428064568320970692304673817341489687455367171",
        "55464657044963196816950587289035428064568320970692304673817341489687455367169",
        "55464657044963196816950587289035428064568320970692304673817341489687455367168"
      ]
    },
    {
      "x": 72,
      "y": 145,
      "size": 1,
      "price": "2106000000000000000000",
      "reserved": "",
      "assetIds": [
        "55464657044963196816950587289035428064568320970692304673817341489687455367179",
        "55464657044963196816950587289035428064568320970692304673817341489687455367171",
        "55464657044963196816950587289035428064568320970692304673817341489687455367169",
        "55464657044963196816950587289035428064568320970692304673817341489687455367168"
      ]
    },
    {
      "x": 73,
      "y": 145,
      "size": 1,
      "price": "2106000000000000000000",
      "reserved": "",
      "assetIds": [
        "55464657044963196816950587289035428064568320970692304673817341489687455367173",
        "55464657044963196816950587289035428064568320970692304673817341489687455367170",
        "55464657044963196816950587289035428064568320970692304673817341489687455367169",
        "55464657044963196816950587289035428064568320970692304673817341489687455367168"
      ]
    },
    {
      "x": 74,
      "y": 145,
      "size": 1,
      "price": "2106000000000000000000",
      "reserved": "",
      "assetIds": [
        "55464657044963196816950587289035428064568320970692304673817341489687455367181",
        "55464657044963196816950587289035428064568320970692304673817341489687455367171",
        "55464657044963196816950587289035428064568320970692304673817341489687455367169",
        "55464657044963196816950587289035428064568320970692304673817341489687455367168"
      ]
    },
    {
      "x": 75,
      "y": 145,
      "size": 1,
      "price": "2106000000000000000000",
      "reserved": "",
      "assetIds": [
        "55464657044963196816950587289035428064568320970692304673817341489687455367173",
        "55464657044963196816950587289035428064568320970692304673817341489687455367170",
        "55464657044963196816950587289035428064568320970692304673817341489687455367169",
        "55464657044963196816950587289035428064568320970692304673817341489687455367168"
      ]
    },
    {
      "x": 76,
      "y": 145,
      "size": 1,
      "price": "2106000000000000000000",
      "reserved": "",
      "assetIds": [
        "55464657044963196816950587289035428064568320970692304673817341489687455367178",
        "55464657044963196816950587289035428064568320970692304673817341489687455367171",
        "55464657044963196816950587289035428064568320970692304673817341489687455367169",
        "55464657044963196816950587289035428064568320970692304673817341489687455367168"
      ]
    },
    {
      "x": 75,
      "y": 144,
      "size": 1,
      "price": "2106000000000000000000",
      "reserved": "",
      "assetIds": [
        "55464657044963196816950587289035428064568320970692304673817341489687455367173",
        "55464657044963196816950587289035428064568320970692304673817341489687455367170",
        "55464657044963196816950587289035428064568320970692304673817341489687455367169",
        "55464657044963196816950587289035428064568320970692304673817341489687455367168"
      ]
    },
    {
      "x": 74,
      "y": 144,
      "size": 1,
      "price": "2106000000000000000000",
      "reserved": "",
      "assetIds": [
        "55464657044963196816950587289035428064568320970692304673817341489687455367180",
        "55464657044963196816950587289035428064568320970692304673817341489687455367171",
        "55464657044963196816950587289035428064568320970692304673817341489687455367169",
        "55464657044963196816950587289035428064568320970692304673817341489687455367168"
      ]
    },
    {
      "x": 73,
      "y": 144,
      "size": 1,
      "price": "2106000000000000000000",
      "reserved": "",
      "assetIds": [
        "55464657044963196816950587289035428064568320970692304673817341489687455367181",
        "55464657044963196816950587289035428064568320970692304673817341489687455367171",
        "55464657044963196816950587289035428064568320970692304673817341489687455367169",
        "55464657044963196816950587289035428064568320970692304673817341489687455367168"
      ]
    },
    {
      "x": 77,
      "y": 144,
      "size": 1,
      "price": "2106000000000000000000",
      "reserved": "",
      "assetIds": [
        "55464657044963196816950587289035428064568320970692304673817341489687455367175",
        "55464657044963196816950587289035428064568320970692304673817341489687455367170",
        "55464657044963196816950587289035428064568320970692304673817341489687455367169",
        "55464657044963196816950587289035428064568320970692304673817341489687455367168"
      ]
    },
    {
      "x": 78,
      "y": 144,
      "size": 1,
      "price": "2106000000000000000000",
      "reserved": "",
      "assetIds": [
        "55464657044963196816950587289035428064568320970692304673817341489687455367173",
        "55464657044963196816950587289035428064568320970692304673817341489687455367170",
        "55464657044963196816950587289035428064568320970692304673817341489687455367169",
        "55464657044963196816950587289035428064568320970692304673817341489687455367168"
      ]
    },
    {
      "x": 76,
      "y": 144,
      "size": 1,
      "price": "2106000000000000000000",
      "reserved": "",
      "assetIds": [
        "55464657044963196816950587289035428064568320970692304673817341489687455367173",
        "55464657044963196816950587289035428064568320970692304673817341489687455367170",
        "55464657044963196816950587289035428064568320970692304673817341489687455367169",
        "55464657044963196816950587289035428064568320970692304673817341489687455367168"
      ]
    },
    {
      "x": 84,
      "y": 143,
      "size": 1,
      "price": "2106000000000000000000",
      "reserved": "",
      "assetIds": [
        "55464657044963196816950587289035428064568320970692304673817341489687455367183",
        "55464657044963196816950587289035428064568320970692304673817341489687455367171",
        "55464657044963196816950587289035428064568320970692304673817341489687455367169",
        "55464657044963196816950587289035428064568320970692304673817341489687455367168"
      ]
    },
    {
      "x": 83,
      "y": 144,
      "size": 1,
      "price": "2106000000000000000000",
      "reserved": "",
      "assetIds": [
        "55464657044963196816950587289035428064568320970692304673817341489687455367177",
        "55464657044963196816950587289035428064568320970692304673817341489687455367170",
        "55464657044963196816950587289035428064568320970692304673817341489687455367169",
        "55464657044963196816950587289035428064568320970692304673817341489687455367168"
      ]
    },
    {
      "x": 82,
      "y": 144,
      "size": 1,
      "price": "2106000000000000000000",
      "reserved": "",
      "assetIds": [
        "55464657044963196816950587289035428064568320970692304673817341489687455367175",
        "55464657044963196816950587289035428064568320970692304673817341489687455367170",
        "55464657044963196816950587289035428064568320970692304673817341489687455367169",
        "55464657044963196816950587289035428064568320970692304673817341489687455367168"
      ]
    },
    {
      "x": 81,
      "y": 144,
      "size": 1,
      "price": "2106000000000000000000",
      "reserved": "",
      "assetIds": [
        "55464657044963196816950587289035428064568320970692304673817341489687455367181",
        "55464657044963196816950587289035428064568320970692304673817341489687455367171",
        "55464657044963196816950587289035428064568320970692304673817341489687455367169",
        "55464657044963196816950587289035428064568320970692304673817341489687455367168"
      ]
    },
    {
      "x": 80,
      "y": 144,
      "size": 1,
      "price": "2106000000000000000000",
      "reserved": "",
      "assetIds": [
        "55464657044963196816950587289035428064568320970692304673817341489687455367174",
        "55464657044963196816950587289035428064568320970692304673817341489687455367170",
        "55464657044963196816950587289035428064568320970692304673817341489687455367169",
        "55464657044963196816950587289035428064568320970692304673817341489687455367168"
      ]
    },
    {
      "x": 79,
      "y": 144,
      "size": 1,
      "price": "2106000000000000000000",
      "reserved": "",
      "assetIds": [
        "55464657044963196816950587289035428064568320970692304673817341489687455367172",
        "55464657044963196816950587289035428064568320970692304673817341489687455367170",
        "55464657044963196816950587289035428064568320970692304673817341489687455367169",
        "55464657044963196816950587289035428064568320970692304673817341489687455367168"
      ]
    },
    {
      "x": 83,
      "y": 145,
      "size": 1,
      "price": "2106000000000000000000",
      "reserved": "",
      "assetIds": [
        "55464657044963196816950587289035428064568320970692304673817341489687455367177",
        "55464657044963196816950587289035428064568320970692304673817341489687455367170",
        "55464657044963196816950587289035428064568320970692304673817341489687455367169",
        "55464657044963196816950587289035428064568320970692304673817341489687455367168"
      ]
    },
    {
      "x": 82,
      "y": 145,
      "size": 1,
      "price": "2106000000000000000000",
      "reserved": "",
      "assetIds": [
        "55464657044963196816950587289035428064568320970692304673817341489687455367173",
        "55464657044963196816950587289035428064568320970692304673817341489687455367170",
        "55464657044963196816950587289035428064568320970692304673817341489687455367169",
        "55464657044963196816950587289035428064568320970692304673817341489687455367168"
      ]
    },
    {
      "x": 81,
      "y": 146,
      "size": 1,
      "price": "2106000000000000000000",
      "reserved": "",
      "assetIds": [
        "55464657044963196816950587289035428064568320970692304673817341489687455367172",
        "55464657044963196816950587289035428064568320970692304673817341489687455367170",
        "55464657044963196816950587289035428064568320970692304673817341489687455367169",
        "55464657044963196816950587289035428064568320970692304673817341489687455367168"
      ]
    },
    {
      "x": 80,
      "y": 146,
      "size": 1,
      "price": "2106000000000000000000",
      "reserved": "",
      "assetIds": [
        "55464657044963196816950587289035428064568320970692304673817341489687455367179",
        "55464657044963196816950587289035428064568320970692304673817341489687455367171",
        "55464657044963196816950587289035428064568320970692304673817341489687455367169",
        "55464657044963196816950587289035428064568320970692304673817341489687455367168"
      ]
    },
    {
      "x": 79,
      "y": 146,
      "size": 1,
      "price": "2106000000000000000000",
      "reserved": "",
      "assetIds": [
        "55464657044963196816950587289035428064568320970692304673817341489687455367178",
        "55464657044963196816950587289035428064568320970692304673817341489687455367171",
        "55464657044963196816950587289035428064568320970692304673817341489687455367169",
        "55464657044963196816950587289035428064568320970692304673817341489687455367168"
      ]
    },
    {
      "x": 78,
      "y": 146,
      "size": 1,
      "price": "2106000000000000000000",
      "reserved": "",
      "assetIds": [
        "55464657044963196816950587289035428064568320970692304673817341489687455367179",
        "55464657044963196816950587289035428064568320970692304673817341489687455367171",
        "55464657044963196816950587289035428064568320970692304673817341489687455367169",
        "55464657044963196816950587289035428064568320970692304673817341489687455367168"
      ]
    },
    {
      "x": 77,
      "y": 146,
      "size": 1,
      "price": "2106000000000000000000",
      "reserved": "",
      "assetIds": [
        "55464657044963196816950587289035428064568320970692304673817341489687455367183",
        "55464657044963196816950587289035428064568320970692304673817341489687455367171",
        "55464657044963196816950587289035428064568320970692304673817341489687455367169",
        "55464657044963196816950587289035428064568320970692304673817341489687455367168"
      ]
    },
    {
      "x": 78,
      "y": 145,
      "size": 1,
      "price": "2106000000000000000000",
      "reserved": "",
      "assetIds": [
        "55464657044963196816950587289035428064568320970692304673817341489687455367183",
        "55464657044963196816950587289035428064568320970692304673817341489687455367171",
        "55464657044963196816950587289035428064568320970692304673817341489687455367169",
        "55464657044963196816950587289035428064568320970692304673817341489687455367168"
      ]
    },
    {
      "x": 79,
      "y": 145,
      "size": 1,
      "price": "2106000000000000000000",
      "reserved": "",
      "assetIds": [
        "55464657044963196816950587289035428064568320970692304673817341489687455367177",
        "55464657044963196816950587289035428064568320970692304673817341489687455367170",
        "55464657044963196816950587289035428064568320970692304673817341489687455367169",
        "55464657044963196816950587289035428064568320970692304673817341489687455367168"
      ]
    },
    {
      "x": 80,
      "y": 145,
      "size": 1,
      "price": "2106000000000000000000",
      "reserved": "",
      "assetIds": [
        "55464657044963196816950587289035428064568320970692304673817341489687455367177",
        "55464657044963196816950587289035428064568320970692304673817341489687455367170",
        "55464657044963196816950587289035428064568320970692304673817341489687455367169",
        "55464657044963196816950587289035428064568320970692304673817341489687455367168"
      ]
    },
    {
      "x": 81,
      "y": 145,
      "size": 1,
      "price": "2106000000000000000000",
      "reserved": "",
      "assetIds": [
        "55464657044963196816950587289035428064568320970692304673817341489687455367182",
        "55464657044963196816950587289035428064568320970692304673817341489687455367171",
        "55464657044963196816950587289035428064568320970692304673817341489687455367169",
        "55464657044963196816950587289035428064568320970692304673817341489687455367168"
      ]
    },
    {
      "x": 82,
      "y": 147,
      "size": 1,
      "price": "2106000000000000000000",
      "reserved": "",
      "assetIds": [
        "55464657044963196816950587289035428064568320970692304673817341489687455367180",
        "55464657044963196816950587289035428064568320970692304673817341489687455367171",
        "55464657044963196816950587289035428064568320970692304673817341489687455367169",
        "55464657044963196816950587289035428064568320970692304673817341489687455367168"
      ]
    },
    {
      "x": 83,
      "y": 147,
      "size": 1,
      "price": "2106000000000000000000",
      "reserved": "",
      "assetIds": [
        "55464657044963196816950587289035428064568320970692304673817341489687455367178",
        "55464657044963196816950587289035428064568320970692304673817341489687455367171",
        "55464657044963196816950587289035428064568320970692304673817341489687455367169",
        "55464657044963196816950587289035428064568320970692304673817341489687455367168"
      ]
    },
    {
      "x": 81,
      "y": 147,
      "size": 1,
      "price": "2106000000000000000000",
      "reserved": "",
      "assetIds": [
        "55464657044963196816950587289035428064568320970692304673817341489687455367175",
        "55464657044963196816950587289035428064568320970692304673817341489687455367170",
        "55464657044963196816950587289035428064568320970692304673817341489687455367169",
        "55464657044963196816950587289035428064568320970692304673817341489687455367168"
      ]
    },
    {
      "x": 81,
      "y": 148,
      "size": 1,
      "price": "2106000000000000000000",
      "reserved": "",
      "assetIds": [
        "55464657044963196816950587289035428064568320970692304673817341489687455367177",
        "55464657044963196816950587289035428064568320970692304673817341489687455367170",
        "55464657044963196816950587289035428064568320970692304673817341489687455367169",
        "55464657044963196816950587289035428064568320970692304673817341489687455367168"
      ]
    },
    {
      "x": 80,
      "y": 148,
      "size": 1,
      "price": "2106000000000000000000",
      "reserved": "",
      "assetIds": [
        "55464657044963196816950587289035428064568320970692304673817341489687455367178",
        "55464657044963196816950587289035428064568320970692304673817341489687455367171",
        "55464657044963196816950587289035428064568320970692304673817341489687455367169",
        "55464657044963196816950587289035428064568320970692304673817341489687455367168"
      ]
    },
    {
      "x": 79,
      "y": 148,
      "size": 1,
      "price": "2106000000000000000000",
      "reserved": "",
      "assetIds": [
        "55464657044963196816950587289035428064568320970692304673817341489687455367173",
        "55464657044963196816950587289035428064568320970692304673817341489687455367170",
        "55464657044963196816950587289035428064568320970692304673817341489687455367169",
        "55464657044963196816950587289035428064568320970692304673817341489687455367168"
      ]
    },
    {
      "x": 78,
      "y": 147,
      "size": 1,
      "price": "2106000000000000000000",
      "reserved": "",
      "assetIds": [
        "55464657044963196816950587289035428064568320970692304673817341489687455367180",
        "55464657044963196816950587289035428064568320970692304673817341489687455367171",
        "55464657044963196816950587289035428064568320970692304673817341489687455367169",
        "55464657044963196816950587289035428064568320970692304673817341489687455367168"
      ]
    },
    {
      "x": 77,
      "y": 147,
      "size": 1,
      "price": "2106000000000000000000",
      "reserved": "",
      "assetIds": [
        "55464657044963196816950587289035428064568320970692304673817341489687455367176",
        "55464657044963196816950587289035428064568320970692304673817341489687455367170",
        "55464657044963196816950587289035428064568320970692304673817341489687455367169",
        "55464657044963196816950587289035428064568320970692304673817341489687455367168"
      ]
    },
    {
      "x": 76,
      "y": 147,
      "size": 1,
      "price": "2106000000000000000000",
      "reserved": "",
      "assetIds": [
        "55464657044963196816950587289035428064568320970692304673817341489687455367178",
        "55464657044963196816950587289035428064568320970692304673817341489687455367171",
        "55464657044963196816950587289035428064568320970692304673817341489687455367169",
        "55464657044963196816950587289035428064568320970692304673817341489687455367168"
      ]
    },
    {
      "x": 75,
      "y": 147,
      "size": 1,
      "price": "2106000000000000000000",
      "reserved": "",
      "assetIds": [
        "55464657044963196816950587289035428064568320970692304673817341489687455367175",
        "55464657044963196816950587289035428064568320970692304673817341489687455367170",
        "55464657044963196816950587289035428064568320970692304673817341489687455367169",
        "55464657044963196816950587289035428064568320970692304673817341489687455367168"
      ]
    },
    {
      "x": 74,
      "y": 147,
      "size": 1,
      "price": "2106000000000000000000",
      "reserved": "",
      "assetIds": [
        "55464657044963196816950587289035428064568320970692304673817341489687455367175",
        "55464657044963196816950587289035428064568320970692304673817341489687455367170",
        "55464657044963196816950587289035428064568320970692304673817341489687455367169",
        "55464657044963196816950587289035428064568320970692304673817341489687455367168"
      ]
    },
    {
      "x": 75,
      "y": 146,
      "size": 1,
      "price": "2106000000000000000000",
      "reserved": "",
      "assetIds": [
        "55464657044963196816950587289035428064568320970692304673817341489687455367177",
        "55464657044963196816950587289035428064568320970692304673817341489687455367170",
        "55464657044963196816950587289035428064568320970692304673817341489687455367169",
        "55464657044963196816950587289035428064568320970692304673817341489687455367168"
      ]
    },
    {
      "x": 76,
      "y": 146,
      "size": 1,
      "price": "2106000000000000000000",
      "reserved": "",
      "assetIds": [
        "55464657044963196816950587289035428064568320970692304673817341489687455367179",
        "55464657044963196816950587289035428064568320970692304673817341489687455367171",
        "55464657044963196816950587289035428064568320970692304673817341489687455367169",
        "55464657044963196816950587289035428064568320970692304673817341489687455367168"
      ]
    },
    {
      "x": 74,
      "y": 146,
      "size": 1,
      "price": "2106000000000000000000",
      "reserved": "",
      "assetIds": [
        "55464657044963196816950587289035428064568320970692304673817341489687455367181",
        "55464657044963196816950587289035428064568320970692304673817341489687455367171",
        "55464657044963196816950587289035428064568320970692304673817341489687455367169",
        "55464657044963196816950587289035428064568320970692304673817341489687455367168"
      ]
    },
    {
      "x": 72,
      "y": 146,
      "size": 1,
      "price": "2106000000000000000000",
      "reserved": "",
      "assetIds": [
        "55464657044963196816950587289035428064568320970692304673817341489687455367174",
        "55464657044963196816950587289035428064568320970692304673817341489687455367170",
        "55464657044963196816950587289035428064568320970692304673817341489687455367169",
        "55464657044963196816950587289035428064568320970692304673817341489687455367168"
      ]
    },
    {
      "x": 73,
      "y": 147,
      "size": 1,
      "price": "2106000000000000000000",
      "reserved": "",
      "assetIds": [
        "55464657044963196816950587289035428064568320970692304673817341489687455367180",
        "55464657044963196816950587289035428064568320970692304673817341489687455367171",
        "55464657044963196816950587289035428064568320970692304673817341489687455367169",
        "55464657044963196816950587289035428064568320970692304673817341489687455367168"
      ]
    },
    {
      "x": 72,
      "y": 147,
      "size": 1,
      "price": "2106000000000000000000",
      "reserved": "",
      "assetIds": [
        "55464657044963196816950587289035428064568320970692304673817341489687455367182",
        "55464657044963196816950587289035428064568320970692304673817341489687455367171",
        "55464657044963196816950587289035428064568320970692304673817341489687455367169",
        "55464657044963196816950587289035428064568320970692304673817341489687455367168"
      ]
    },
    {
      "x": 71,
      "y": 148,
      "size": 1,
      "price": "2106000000000000000000",
      "reserved": "",
      "assetIds": [
        "55464657044963196816950587289035428064568320970692304673817341489687455367178",
        "55464657044963196816950587289035428064568320970692304673817341489687455367171",
        "55464657044963196816950587289035428064568320970692304673817341489687455367169",
        "55464657044963196816950587289035428064568320970692304673817341489687455367168"
      ]
    },
    {
      "x": 70,
      "y": 148,
      "size": 1,
      "price": "2106000000000000000000",
      "reserved": "",
      "assetIds": [
        "55464657044963196816950587289035428064568320970692304673817341489687455367172",
        "55464657044963196816950587289035428064568320970692304673817341489687455367170",
        "55464657044963196816950587289035428064568320970692304673817341489687455367169",
        "55464657044963196816950587289035428064568320970692304673817341489687455367168"
      ]
    },
    {
      "x": 71,
      "y": 147,
      "size": 1,
      "price": "2106000000000000000000",
      "reserved": "",
      "assetIds": [
        "55464657044963196816950587289035428064568320970692304673817341489687455367172",
        "55464657044963196816950587289035428064568320970692304673817341489687455367170",
        "55464657044963196816950587289035428064568320970692304673817341489687455367169",
        "55464657044963196816950587289035428064568320970692304673817341489687455367168"
      ]
    },
    {
      "x": 75,
      "y": 148,
      "size": 1,
      "price": "2106000000000000000000",
      "reserved": "",
      "assetIds": [
        "55464657044963196816950587289035428064568320970692304673817341489687455367173",
        "55464657044963196816950587289035428064568320970692304673817341489687455367170",
        "55464657044963196816950587289035428064568320970692304673817341489687455367169",
        "55464657044963196816950587289035428064568320970692304673817341489687455367168"
      ]
    },
    {
      "x": 77,
      "y": 148,
      "size": 1,
      "price": "2106000000000000000000",
      "reserved": "",
      "assetIds": [
        "55464657044963196816950587289035428064568320970692304673817341489687455367176",
        "55464657044963196816950587289035428064568320970692304673817341489687455367170",
        "55464657044963196816950587289035428064568320970692304673817341489687455367169",
        "55464657044963196816950587289035428064568320970692304673817341489687455367168"
      ]
    },
    {
      "x": 74,
      "y": 148,
      "size": 1,
      "price": "2106000000000000000000",
      "reserved": "",
      "assetIds": [
        "55464657044963196816950587289035428064568320970692304673817341489687455367173",
        "55464657044963196816950587289035428064568320970692304673817341489687455367170",
        "55464657044963196816950587289035428064568320970692304673817341489687455367169",
        "55464657044963196816950587289035428064568320970692304673817341489687455367168"
      ]
    },
    {
      "x": 73,
      "y": 148,
      "size": 1,
      "price": "2106000000000000000000",
      "reserved": "",
      "assetIds": [
        "55464657044963196816950587289035428064568320970692304673817341489687455367180",
        "55464657044963196816950587289035428064568320970692304673817341489687455367171",
        "55464657044963196816950587289035428064568320970692304673817341489687455367169",
        "55464657044963196816950587289035428064568320970692304673817341489687455367168"
      ]
    },
    {
      "x": 79,
      "y": 147,
      "size": 1,
      "price": "2106000000000000000000",
      "reserved": "",
      "assetIds": [
        "55464657044963196816950587289035428064568320970692304673817341489687455367176",
        "55464657044963196816950587289035428064568320970692304673817341489687455367170",
        "55464657044963196816950587289035428064568320970692304673817341489687455367169",
        "55464657044963196816950587289035428064568320970692304673817341489687455367168"
      ]
    },
    {
      "x": 80,
      "y": 147,
      "size": 1,
      "price": "2106000000000000000000",
      "reserved": "",
      "assetIds": [
        "55464657044963196816950587289035428064568320970692304673817341489687455367176",
        "55464657044963196816950587289035428064568320970692304673817341489687455367170",
        "55464657044963196816950587289035428064568320970692304673817341489687455367169",
        "55464657044963196816950587289035428064568320970692304673817341489687455367168"
      ]
    },
    {
      "x": 78,
      "y": 149,
      "size": 1,
      "price": "2106000000000000000000",
      "reserved": "",
      "assetIds": [
        "55464657044963196816950587289035428064568320970692304673817341489687455367178",
        "55464657044963196816950587289035428064568320970692304673817341489687455367171",
        "55464657044963196816950587289035428064568320970692304673817341489687455367169",
        "55464657044963196816950587289035428064568320970692304673817341489687455367168"
      ]
    },
    {
      "x": 77,
      "y": 149,
      "size": 1,
      "price": "2106000000000000000000",
      "reserved": "",
      "assetIds": [
        "55464657044963196816950587289035428064568320970692304673817341489687455367175",
        "55464657044963196816950587289035428064568320970692304673817341489687455367170",
        "55464657044963196816950587289035428064568320970692304673817341489687455367169",
        "55464657044963196816950587289035428064568320970692304673817341489687455367168"
      ]
    },
    {
      "x": 76,
      "y": 149,
      "size": 1,
      "price": "2106000000000000000000",
      "reserved": "",
      "assetIds": [
        "55464657044963196816950587289035428064568320970692304673817341489687455367177",
        "55464657044963196816950587289035428064568320970692304673817341489687455367170",
        "55464657044963196816950587289035428064568320970692304673817341489687455367169",
        "55464657044963196816950587289035428064568320970692304673817341489687455367168"
      ]
    },
    {
      "x": 75,
      "y": 149,
      "size": 1,
      "price": "2106000000000000000000",
      "reserved": "",
      "assetIds": [
        "55464657044963196816950587289035428064568320970692304673817341489687455367173",
        "55464657044963196816950587289035428064568320970692304673817341489687455367170",
        "55464657044963196816950587289035428064568320970692304673817341489687455367169",
        "55464657044963196816950587289035428064568320970692304673817341489687455367168"
      ]
    },
    {
      "x": 73,
      "y": 149,
      "size": 1,
      "price": "2106000000000000000000",
      "reserved": "",
      "assetIds": [
        "55464657044963196816950587289035428064568320970692304673817341489687455367174",
        "55464657044963196816950587289035428064568320970692304673817341489687455367170",
        "55464657044963196816950587289035428064568320970692304673817341489687455367169",
        "55464657044963196816950587289035428064568320970692304673817341489687455367168"
      ]
    },
    {
      "x": 76,
      "y": 150,
      "size": 1,
      "price": "2106000000000000000000",
      "reserved": "",
      "assetIds": [
        "55464657044963196816950587289035428064568320970692304673817341489687455367173",
        "55464657044963196816950587289035428064568320970692304673817341489687455367170",
        "55464657044963196816950587289035428064568320970692304673817341489687455367169",
        "55464657044963196816950587289035428064568320970692304673817341489687455367168"
      ]
    },
    {
      "x": 77,
      "y": 150,
      "size": 1,
      "price": "2106000000000000000000",
      "reserved": "",
      "assetIds": [
        "55464657044963196816950587289035428064568320970692304673817341489687455367180",
        "55464657044963196816950587289035428064568320970692304673817341489687455367171",
        "55464657044963196816950587289035428064568320970692304673817341489687455367169",
        "55464657044963196816950587289035428064568320970692304673817341489687455367168"
      ]
    },
    {
      "x": 78,
      "y": 150,
      "size": 1,
      "price": "2106000000000000000000",
      "reserved": "",
      "assetIds": [
        "55464657044963196816950587289035428064568320970692304673817341489687455367177",
        "55464657044963196816950587289035428064568320970692304673817341489687455367170",
        "55464657044963196816950587289035428064568320970692304673817341489687455367169",
        "55464657044963196816950587289035428064568320970692304673817341489687455367168"
      ]
    },
    {
      "x": 75,
      "y": 150,
      "size": 1,
      "price": "2106000000000000000000",
      "reserved": "",
      "assetIds": [
        "55464657044963196816950587289035428064568320970692304673817341489687455367178",
        "55464657044963196816950587289035428064568320970692304673817341489687455367171",
        "55464657044963196816950587289035428064568320970692304673817341489687455367169",
        "55464657044963196816950587289035428064568320970692304673817341489687455367168"
      ]
    },
    {
      "x": 74,
      "y": 150,
      "size": 1,
      "price": "2106000000000000000000",
      "reserved": "",
      "assetIds": [
        "55464657044963196816950587289035428064568320970692304673817341489687455367181",
        "55464657044963196816950587289035428064568320970692304673817341489687455367171",
        "55464657044963196816950587289035428064568320970692304673817341489687455367169",
        "55464657044963196816950587289035428064568320970692304673817341489687455367168"
      ]
    },
    {
      "x": 79,
      "y": 149,
      "size": 1,
      "price": "2106000000000000000000",
      "reserved": "",
      "assetIds": [
        "55464657044963196816950587289035428064568320970692304673817341489687455367172",
        "55464657044963196816950587289035428064568320970692304673817341489687455367170",
        "55464657044963196816950587289035428064568320970692304673817341489687455367169",
        "55464657044963196816950587289035428064568320970692304673817341489687455367168"
      ]
    },
    {
      "x": 80,
      "y": 149,
      "size": 1,
      "price": "2106000000000000000000",
      "reserved": "",
      "assetIds": [
        "55464657044963196816950587289035428064568320970692304673817341489687455367172",
        "55464657044963196816950587289035428064568320970692304673817341489687455367170",
        "55464657044963196816950587289035428064568320970692304673817341489687455367169",
        "55464657044963196816950587289035428064568320970692304673817341489687455367168"
      ]
    },
    {
      "x": 83,
      "y": 146,
      "size": 1,
      "price": "2106000000000000000000",
      "reserved": "",
      "assetIds": [
        "55464657044963196816950587289035428064568320970692304673817341489687455367181",
        "55464657044963196816950587289035428064568320970692304673817341489687455367171",
        "55464657044963196816950587289035428064568320970692304673817341489687455367169",
        "55464657044963196816950587289035428064568320970692304673817341489687455367168"
      ]
    },
    {
      "x": 84,
      "y": 146,
      "size": 1,
      "price": "2106000000000000000000",
      "reserved": "",
      "assetIds": [
        "55464657044963196816950587289035428064568320970692304673817341489687455367172",
        "55464657044963196816950587289035428064568320970692304673817341489687455367170",
        "55464657044963196816950587289035428064568320970692304673817341489687455367169",
        "55464657044963196816950587289035428064568320970692304673817341489687455367168"
      ]
    },
    {
      "x": 84,
      "y": 145,
      "size": 1,
      "price": "2106000000000000000000",
      "reserved": "",
      "assetIds": [
        "55464657044963196816950587289035428064568320970692304673817341489687455367172",
        "55464657044963196816950587289035428064568320970692304673817341489687455367170",
        "55464657044963196816950587289035428064568320970692304673817341489687455367169",
        "55464657044963196816950587289035428064568320970692304673817341489687455367168"
      ]
    },
    {
      "x": 85,
      "y": 145,
      "size": 1,
      "price": "2106000000000000000000",
      "reserved": "",
      "assetIds": [
        "55464657044963196816950587289035428064568320970692304673817341489687455367174",
        "55464657044963196816950587289035428064568320970692304673817341489687455367170",
        "55464657044963196816950587289035428064568320970692304673817341489687455367169",
        "55464657044963196816950587289035428064568320970692304673817341489687455367168"
      ]
    },
    {
      "x": 86,
      "y": 145,
      "size": 1,
      "price": "2106000000000000000000",
      "reserved": "",
      "assetIds": [
        "55464657044963196816950587289035428064568320970692304673817341489687455367173",
        "55464657044963196816950587289035428064568320970692304673817341489687455367170",
        "55464657044963196816950587289035428064568320970692304673817341489687455367169",
        "55464657044963196816950587289035428064568320970692304673817341489687455367168"
      ]
    },
    {
      "x": 88,
      "y": 145,
      "size": 1,
      "price": "2106000000000000000000",
      "reserved": "",
      "assetIds": [
        "55464657044963196816950587289035428064568320970692304673817341489687455367182",
        "55464657044963196816950587289035428064568320970692304673817341489687455367171",
        "55464657044963196816950587289035428064568320970692304673817341489687455367169",
        "55464657044963196816950587289035428064568320970692304673817341489687455367168"
      ]
    },
    {
      "x": 88,
      "y": 146,
      "size": 1,
      "price": "2106000000000000000000",
      "reserved": "",
      "assetIds": [
        "55464657044963196816950587289035428064568320970692304673817341489687455367176",
        "55464657044963196816950587289035428064568320970692304673817341489687455367170",
        "55464657044963196816950587289035428064568320970692304673817341489687455367169",
        "55464657044963196816950587289035428064568320970692304673817341489687455367168"
      ]
    },
    {
      "x": 87,
      "y": 146,
      "size": 1,
      "price": "2106000000000000000000",
      "reserved": "",
      "assetIds": [
        "55464657044963196816950587289035428064568320970692304673817341489687455367178",
        "55464657044963196816950587289035428064568320970692304673817341489687455367171",
        "55464657044963196816950587289035428064568320970692304673817341489687455367169",
        "55464657044963196816950587289035428064568320970692304673817341489687455367168"
      ]
    },
    {
      "x": 87,
      "y": 147,
      "size": 1,
      "price": "2106000000000000000000",
      "reserved": "",
      "assetIds": [
        "55464657044963196816950587289035428064568320970692304673817341489687455367176",
        "55464657044963196816950587289035428064568320970692304673817341489687455367170",
        "55464657044963196816950587289035428064568320970692304673817341489687455367169",
        "55464657044963196816950587289035428064568320970692304673817341489687455367168"
      ]
    },
    {
      "x": 86,
      "y": 147,
      "size": 1,
      "price": "2106000000000000000000",
      "reserved": "",
      "assetIds": [
        "55464657044963196816950587289035428064568320970692304673817341489687455367174",
        "55464657044963196816950587289035428064568320970692304673817341489687455367170",
        "55464657044963196816950587289035428064568320970692304673817341489687455367169",
        "55464657044963196816950587289035428064568320970692304673817341489687455367168"
      ]
    },
    {
      "x": 86,
      "y": 148,
      "size": 1,
      "price": "2106000000000000000000",
      "reserved": "",
      "assetIds": [
        "55464657044963196816950587289035428064568320970692304673817341489687455367179",
        "55464657044963196816950587289035428064568320970692304673817341489687455367171",
        "55464657044963196816950587289035428064568320970692304673817341489687455367169",
        "55464657044963196816950587289035428064568320970692304673817341489687455367168"
      ]
    },
    {
      "x": 87,
      "y": 148,
      "size": 1,
      "price": "2106000000000000000000",
      "reserved": "",
      "assetIds": [
        "55464657044963196816950587289035428064568320970692304673817341489687455367178",
        "55464657044963196816950587289035428064568320970692304673817341489687455367171",
        "55464657044963196816950587289035428064568320970692304673817341489687455367169",
        "55464657044963196816950587289035428064568320970692304673817341489687455367168"
      ]
    },
    {
      "x": 85,
      "y": 148,
      "size": 1,
      "price": "2106000000000000000000",
      "reserved": "",
      "assetIds": [
        "55464657044963196816950587289035428064568320970692304673817341489687455367183",
        "55464657044963196816950587289035428064568320970692304673817341489687455367171",
        "55464657044963196816950587289035428064568320970692304673817341489687455367169",
        "55464657044963196816950587289035428064568320970692304673817341489687455367168"
      ]
    },
    {
      "x": 88,
      "y": 147,
      "size": 1,
      "price": "2106000000000000000000",
      "reserved": "",
      "assetIds": [
        "55464657044963196816950587289035428064568320970692304673817341489687455367178",
        "55464657044963196816950587289035428064568320970692304673817341489687455367171",
        "55464657044963196816950587289035428064568320970692304673817341489687455367169",
        "55464657044963196816950587289035428064568320970692304673817341489687455367168"
      ]
    },
    {
      "x": 86,
      "y": 146,
      "size": 1,
      "price": "2106000000000000000000",
      "reserved": "",
      "assetIds": [
        "55464657044963196816950587289035428064568320970692304673817341489687455367177",
        "55464657044963196816950587289035428064568320970692304673817341489687455367170",
        "55464657044963196816950587289035428064568320970692304673817341489687455367169",
        "55464657044963196816950587289035428064568320970692304673817341489687455367168"
      ]
    },
    {
      "x": 84,
      "y": 148,
      "size": 1,
      "price": "2106000000000000000000",
      "reserved": "",
      "assetIds": [
        "55464657044963196816950587289035428064568320970692304673817341489687455367182",
        "55464657044963196816950587289035428064568320970692304673817341489687455367171",
        "55464657044963196816950587289035428064568320970692304673817341489687455367169",
        "55464657044963196816950587289035428064568320970692304673817341489687455367168"
      ]
    },
    {
      "x": 84,
      "y": 147,
      "size": 1,
      "price": "2106000000000000000000",
      "reserved": "",
      "assetIds": [
        "55464657044963196816950587289035428064568320970692304673817341489687455367176",
        "55464657044963196816950587289035428064568320970692304673817341489687455367170",
        "55464657044963196816950587289035428064568320970692304673817341489687455367169",
        "55464657044963196816950587289035428064568320970692304673817341489687455367168"
      ]
    },
    {
      "x": 85,
      "y": 146,
      "size": 1,
      "price": "2106000000000000000000",
      "reserved": "",
      "assetIds": [
        "55464657044963196816950587289035428064568320970692304673817341489687455367172",
        "55464657044963196816950587289035428064568320970692304673817341489687455367170",
        "55464657044963196816950587289035428064568320970692304673817341489687455367169",
        "55464657044963196816950587289035428064568320970692304673817341489687455367168"
      ]
    },
    {
      "x": 82,
      "y": 148,
      "size": 1,
      "price": "2106000000000000000000",
      "reserved": "",
      "assetIds": [
        "55464657044963196816950587289035428064568320970692304673817341489687455367173",
        "55464657044963196816950587289035428064568320970692304673817341489687455367170",
        "55464657044963196816950587289035428064568320970692304673817341489687455367169",
        "55464657044963196816950587289035428064568320970692304673817341489687455367168"
      ]
    },
    {
      "x": 86,
      "y": 144,
      "size": 1,
      "price": "2106000000000000000000",
      "reserved": "",
      "assetIds": [
        "55464657044963196816950587289035428064568320970692304673817341489687455367176",
        "55464657044963196816950587289035428064568320970692304673817341489687455367170",
        "55464657044963196816950587289035428064568320970692304673817341489687455367169",
        "55464657044963196816950587289035428064568320970692304673817341489687455367168"
      ]
    },
    {
      "x": 86,
      "y": 143,
      "size": 1,
      "price": "2106000000000000000000",
      "reserved": "",
      "assetIds": [
        "55464657044963196816950587289035428064568320970692304673817341489687455367178",
        "55464657044963196816950587289035428064568320970692304673817341489687455367171",
        "55464657044963196816950587289035428064568320970692304673817341489687455367169",
        "55464657044963196816950587289035428064568320970692304673817341489687455367168"
      ]
    },
    {
      "x": 86,
      "y": 142,
      "size": 1,
      "price": "2106000000000000000000",
      "reserved": "",
      "assetIds": [
        "55464657044963196816950587289035428064568320970692304673817341489687455367173",
        "55464657044963196816950587289035428064568320970692304673817341489687455367170",
        "55464657044963196816950587289035428064568320970692304673817341489687455367169",
        "55464657044963196816950587289035428064568320970692304673817341489687455367168"
      ]
    },
    {
      "x": 86,
      "y": 141,
      "size": 1,
      "price": "2106000000000000000000",
      "reserved": "",
      "assetIds": [
        "55464657044963196816950587289035428064568320970692304673817341489687455367177",
        "55464657044963196816950587289035428064568320970692304673817341489687455367170",
        "55464657044963196816950587289035428064568320970692304673817341489687455367169",
        "55464657044963196816950587289035428064568320970692304673817341489687455367168"
      ]
    },
    {
      "x": 86,
      "y": 140,
      "size": 1,
      "price": "2106000000000000000000",
      "reserved": "",
      "assetIds": [
        "55464657044963196816950587289035428064568320970692304673817341489687455367172",
        "55464657044963196816950587289035428064568320970692304673817341489687455367170",
        "55464657044963196816950587289035428064568320970692304673817341489687455367169",
        "55464657044963196816950587289035428064568320970692304673817341489687455367168"
      ]
    },
    {
      "x": 86,
      "y": 139,
      "size": 1,
      "price": "2106000000000000000000",
      "reserved": "",
      "assetIds": [
        "55464657044963196816950587289035428064568320970692304673817341489687455367179",
        "55464657044963196816950587289035428064568320970692304673817341489687455367171",
        "55464657044963196816950587289035428064568320970692304673817341489687455367169",
        "55464657044963196816950587289035428064568320970692304673817341489687455367168"
      ]
    },
    {
      "x": 87,
      "y": 138,
      "size": 1,
      "price": "2106000000000000000000",
      "reserved": "",
      "assetIds": [
        "55464657044963196816950587289035428064568320970692304673817341489687455367175",
        "55464657044963196816950587289035428064568320970692304673817341489687455367170",
        "55464657044963196816950587289035428064568320970692304673817341489687455367169",
        "55464657044963196816950587289035428064568320970692304673817341489687455367168"
      ]
    },
    {
      "x": 87,
      "y": 137,
      "size": 1,
      "price": "2106000000000000000000",
      "reserved": "",
      "assetIds": [
        "55464657044963196816950587289035428064568320970692304673817341489687455367178",
        "55464657044963196816950587289035428064568320970692304673817341489687455367171",
        "55464657044963196816950587289035428064568320970692304673817341489687455367169",
        "55464657044963196816950587289035428064568320970692304673817341489687455367168"
      ]
    },
    {
      "x": 87,
      "y": 136,
      "size": 1,
      "price": "2106000000000000000000",
      "reserved": "",
      "assetIds": [
        "55464657044963196816950587289035428064568320970692304673817341489687455367172",
        "55464657044963196816950587289035428064568320970692304673817341489687455367170",
        "55464657044963196816950587289035428064568320970692304673817341489687455367169",
        "55464657044963196816950587289035428064568320970692304673817341489687455367168"
      ]
    },
    {
      "x": 86,
      "y": 136,
      "size": 1,
      "price": "2106000000000000000000",
      "reserved": "",
      "assetIds": [
        "55464657044963196816950587289035428064568320970692304673817341489687455367181",
        "55464657044963196816950587289035428064568320970692304673817341489687455367171",
        "55464657044963196816950587289035428064568320970692304673817341489687455367169",
        "55464657044963196816950587289035428064568320970692304673817341489687455367168"
      ]
    },
    {
      "x": 86,
      "y": 135,
      "size": 1,
      "price": "2106000000000000000000",
      "reserved": "",
      "assetIds": [
        "55464657044963196816950587289035428064568320970692304673817341489687455367174",
        "55464657044963196816950587289035428064568320970692304673817341489687455367170",
        "55464657044963196816950587289035428064568320970692304673817341489687455367169",
        "55464657044963196816950587289035428064568320970692304673817341489687455367168"
      ]
    },
    {
      "x": 86,
      "y": 134,
      "size": 1,
      "price": "2106000000000000000000",
      "reserved": "",
      "assetIds": [
        "55464657044963196816950587289035428064568320970692304673817341489687455367183",
        "55464657044963196816950587289035428064568320970692304673817341489687455367171",
        "55464657044963196816950587289035428064568320970692304673817341489687455367169",
        "55464657044963196816950587289035428064568320970692304673817341489687455367168"
      ]
    },
    {
      "x": 86,
      "y": 133,
      "size": 1,
      "price": "2106000000000000000000",
      "reserved": "",
      "assetIds": [
        "55464657044963196816950587289035428064568320970692304673817341489687455367174",
        "55464657044963196816950587289035428064568320970692304673817341489687455367170",
        "55464657044963196816950587289035428064568320970692304673817341489687455367169",
        "55464657044963196816950587289035428064568320970692304673817341489687455367168"
      ]
    },
    {
      "x": 86,
      "y": 132,
      "size": 1,
      "price": "2106000000000000000000",
      "reserved": "",
      "assetIds": [
        "55464657044963196816950587289035428064568320970692304673817341489687455367183",
        "55464657044963196816950587289035428064568320970692304673817341489687455367171",
        "55464657044963196816950587289035428064568320970692304673817341489687455367169",
        "55464657044963196816950587289035428064568320970692304673817341489687455367168"
      ]
    },
    {
      "x": 85,
      "y": 132,
      "size": 1,
      "price": "2106000000000000000000",
      "reserved": "",
      "assetIds": [
        "55464657044963196816950587289035428064568320970692304673817341489687455367172",
        "55464657044963196816950587289035428064568320970692304673817341489687455367170",
        "55464657044963196816950587289035428064568320970692304673817341489687455367169",
        "55464657044963196816950587289035428064568320970692304673817341489687455367168"
      ]
    },
    {
      "x": 85,
      "y": 133,
      "size": 1,
      "price": "2106000000000000000000",
      "reserved": "",
      "assetIds": [
        "55464657044963196816950587289035428064568320970692304673817341489687455367182",
        "55464657044963196816950587289035428064568320970692304673817341489687455367171",
        "55464657044963196816950587289035428064568320970692304673817341489687455367169",
        "55464657044963196816950587289035428064568320970692304673817341489687455367168"
      ]
    },
    {
      "x": 85,
      "y": 135,
      "size": 1,
      "price": "2106000000000000000000",
      "reserved": "",
      "assetIds": [
        "55464657044963196816950587289035428064568320970692304673817341489687455367181",
        "55464657044963196816950587289035428064568320970692304673817341489687455367171",
        "55464657044963196816950587289035428064568320970692304673817341489687455367169",
        "55464657044963196816950587289035428064568320970692304673817341489687455367168"
      ]
    },
    {
      "x": 85,
      "y": 136,
      "size": 1,
      "price": "2106000000000000000000",
      "reserved": "",
      "assetIds": [
        "55464657044963196816950587289035428064568320970692304673817341489687455367174",
        "55464657044963196816950587289035428064568320970692304673817341489687455367170",
        "55464657044963196816950587289035428064568320970692304673817341489687455367169",
        "55464657044963196816950587289035428064568320970692304673817341489687455367168"
      ]
    },
    {
      "x": 85,
      "y": 137,
      "size": 1,
      "price": "2106000000000000000000",
      "reserved": "",
      "assetIds": [
        "55464657044963196816950587289035428064568320970692304673817341489687455367182",
        "55464657044963196816950587289035428064568320970692304673817341489687455367171",
        "55464657044963196816950587289035428064568320970692304673817341489687455367169",
        "55464657044963196816950587289035428064568320970692304673817341489687455367168"
      ]
    },
    {
      "x": 85,
      "y": 138,
      "size": 1,
      "price": "2106000000000000000000",
      "reserved": "",
      "assetIds": [
        "55464657044963196816950587289035428064568320970692304673817341489687455367174",
        "55464657044963196816950587289035428064568320970692304673817341489687455367170",
        "55464657044963196816950587289035428064568320970692304673817341489687455367169",
        "55464657044963196816950587289035428064568320970692304673817341489687455367168"
      ]
    },
    {
      "x": 85,
      "y": 139,
      "size": 1,
      "price": "2106000000000000000000",
      "reserved": "",
      "assetIds": [
        "55464657044963196816950587289035428064568320970692304673817341489687455367179",
        "55464657044963196816950587289035428064568320970692304673817341489687455367171",
        "55464657044963196816950587289035428064568320970692304673817341489687455367169",
        "55464657044963196816950587289035428064568320970692304673817341489687455367168"
      ]
    },
    {
      "x": 84,
      "y": 140,
      "size": 1,
      "price": "2106000000000000000000",
      "reserved": "",
      "assetIds": [
        "55464657044963196816950587289035428064568320970692304673817341489687455367179",
        "55464657044963196816950587289035428064568320970692304673817341489687455367171",
        "55464657044963196816950587289035428064568320970692304673817341489687455367169",
        "55464657044963196816950587289035428064568320970692304673817341489687455367168"
      ]
    },
    {
      "x": 84,
      "y": 141,
      "size": 1,
      "price": "2106000000000000000000",
      "reserved": "",
      "assetIds": [
        "55464657044963196816950587289035428064568320970692304673817341489687455367172",
        "55464657044963196816950587289035428064568320970692304673817341489687455367170",
        "55464657044963196816950587289035428064568320970692304673817341489687455367169",
        "55464657044963196816950587289035428064568320970692304673817341489687455367168"
      ]
    },
    {
      "x": 84,
      "y": 142,
      "size": 1,
      "price": "2106000000000000000000",
      "reserved": "",
      "assetIds": [
        "55464657044963196816950587289035428064568320970692304673817341489687455367180",
        "55464657044963196816950587289035428064568320970692304673817341489687455367171",
        "55464657044963196816950587289035428064568320970692304673817341489687455367169",
        "55464657044963196816950587289035428064568320970692304673817341489687455367168"
      ]
    },
    {
      "x": 85,
      "y": 141,
      "size": 1,
      "price": "2106000000000000000000",
      "reserved": "",
      "assetIds": [
        "55464657044963196816950587289035428064568320970692304673817341489687455367183",
        "55464657044963196816950587289035428064568320970692304673817341489687455367171",
        "55464657044963196816950587289035428064568320970692304673817341489687455367169",
        "55464657044963196816950587289035428064568320970692304673817341489687455367168"
      ]
    },
    {
      "x": 84,
      "y": 139,
      "size": 1,
      "price": "2106000000000000000000",
      "reserved": "",
      "assetIds": [
        "55464657044963196816950587289035428064568320970692304673817341489687455367182",
        "55464657044963196816950587289035428064568320970692304673817341489687455367171",
        "55464657044963196816950587289035428064568320970692304673817341489687455367169",
        "55464657044963196816950587289035428064568320970692304673817341489687455367168"
      ]
    },
    {
      "x": 84,
      "y": 138,
      "size": 1,
      "price": "2106000000000000000000",
      "reserved": "",
      "assetIds": [
        "55464657044963196816950587289035428064568320970692304673817341489687455367176",
        "55464657044963196816950587289035428064568320970692304673817341489687455367170",
        "55464657044963196816950587289035428064568320970692304673817341489687455367169",
        "55464657044963196816950587289035428064568320970692304673817341489687455367168"
      ]
    },
    {
      "x": 84,
      "y": 137,
      "size": 1,
      "price": "2106000000000000000000",
      "reserved": "",
      "assetIds": [
        "55464657044963196816950587289035428064568320970692304673817341489687455367174",
        "55464657044963196816950587289035428064568320970692304673817341489687455367170",
        "55464657044963196816950587289035428064568320970692304673817341489687455367169",
        "55464657044963196816950587289035428064568320970692304673817341489687455367168"
      ]
    },
    {
      "x": 84,
      "y": 136,
      "size": 1,
      "price": "2106000000000000000000",
      "reserved": "",
      "assetIds": [
        "55464657044963196816950587289035428064568320970692304673817341489687455367180",
        "55464657044963196816950587289035428064568320970692304673817341489687455367171",
        "55464657044963196816950587289035428064568320970692304673817341489687455367169",
        "55464657044963196816950587289035428064568320970692304673817341489687455367168"
      ]
    },
    {
      "x": 84,
      "y": 135,
      "size": 1,
      "price": "2106000000000000000000",
      "reserved": "",
      "assetIds": [
        "55464657044963196816950587289035428064568320970692304673817341489687455367172",
        "55464657044963196816950587289035428064568320970692304673817341489687455367170",
        "55464657044963196816950587289035428064568320970692304673817341489687455367169",
        "55464657044963196816950587289035428064568320970692304673817341489687455367168"
      ]
    },
    {
      "x": 87,
      "y": 132,
      "size": 1,
      "price": "2106000000000000000000",
      "reserved": "",
      "assetIds": [
        "55464657044963196816950587289035428064568320970692304673817341489687455367174",
        "55464657044963196816950587289035428064568320970692304673817341489687455367170",
        "55464657044963196816950587289035428064568320970692304673817341489687455367169",
        "55464657044963196816950587289035428064568320970692304673817341489687455367168"
      ]
    },
    {
      "x": 87,
      "y": 133,
      "size": 1,
      "price": "2106000000000000000000",
      "reserved": "",
      "assetIds": [
        "55464657044963196816950587289035428064568320970692304673817341489687455367175",
        "55464657044963196816950587289035428064568320970692304673817341489687455367170",
        "55464657044963196816950587289035428064568320970692304673817341489687455367169",
        "55464657044963196816950587289035428064568320970692304673817341489687455367168"
      ]
    },
    {
      "x": 88,
      "y": 133,
      "size": 1,
      "price": "2106000000000000000000",
      "reserved": "",
      "assetIds": [
        "55464657044963196816950587289035428064568320970692304673817341489687455367179",
        "55464657044963196816950587289035428064568320970692304673817341489687455367171",
        "55464657044963196816950587289035428064568320970692304673817341489687455367169",
        "55464657044963196816950587289035428064568320970692304673817341489687455367168"
      ]
    },
    {
      "x": 88,
      "y": 134,
      "size": 1,
      "price": "2106000000000000000000",
      "reserved": "",
      "assetIds": [
        "55464657044963196816950587289035428064568320970692304673817341489687455367180",
        "55464657044963196816950587289035428064568320970692304673817341489687455367171",
        "55464657044963196816950587289035428064568320970692304673817341489687455367169",
        "55464657044963196816950587289035428064568320970692304673817341489687455367168"
      ]
    },
    {
      "x": 88,
      "y": 135,
      "size": 1,
      "price": "2106000000000000000000",
      "reserved": "",
      "assetIds": [
        "55464657044963196816950587289035428064568320970692304673817341489687455367180",
        "55464657044963196816950587289035428064568320970692304673817341489687455367171",
        "55464657044963196816950587289035428064568320970692304673817341489687455367169",
        "55464657044963196816950587289035428064568320970692304673817341489687455367168"
      ]
    },
    {
      "x": 88,
      "y": 132,
      "size": 1,
      "price": "2106000000000000000000",
      "reserved": "",
      "assetIds": [
        "55464657044963196816950587289035428064568320970692304673817341489687455367177",
        "55464657044963196816950587289035428064568320970692304673817341489687455367170",
        "55464657044963196816950587289035428064568320970692304673817341489687455367169",
        "55464657044963196816950587289035428064568320970692304673817341489687455367168"
      ]
    },
    {
      "x": 87,
      "y": 135,
      "size": 1,
      "price": "2106000000000000000000",
      "reserved": "",
      "assetIds": [
        "55464657044963196816950587289035428064568320970692304673817341489687455367172",
        "55464657044963196816950587289035428064568320970692304673817341489687455367170",
        "55464657044963196816950587289035428064568320970692304673817341489687455367169",
        "55464657044963196816950587289035428064568320970692304673817341489687455367168"
      ]
    },
    {
      "x": 87,
      "y": 134,
      "size": 1,
      "price": "2106000000000000000000",
      "reserved": "",
      "assetIds": [
        "55464657044963196816950587289035428064568320970692304673817341489687455367176",
        "55464657044963196816950587289035428064568320970692304673817341489687455367170",
        "55464657044963196816950587289035428064568320970692304673817341489687455367169",
        "55464657044963196816950587289035428064568320970692304673817341489687455367168"
      ]
    },
    {
      "x": 84,
      "y": 132,
      "size": 1,
      "price": "2106000000000000000000",
      "reserved": "",
      "assetIds": [
        "55464657044963196816950587289035428064568320970692304673817341489687455367180",
        "55464657044963196816950587289035428064568320970692304673817341489687455367171",
        "55464657044963196816950587289035428064568320970692304673817341489687455367169",
        "55464657044963196816950587289035428064568320970692304673817341489687455367168"
      ]
    },
    {
      "x": 84,
      "y": 134,
      "size": 1,
      "price": "2106000000000000000000",
      "reserved": "",
      "assetIds": [
        "55464657044963196816950587289035428064568320970692304673817341489687455367176",
        "55464657044963196816950587289035428064568320970692304673817341489687455367170",
        "55464657044963196816950587289035428064568320970692304673817341489687455367169",
        "55464657044963196816950587289035428064568320970692304673817341489687455367168"
      ]
    },
    {
      "x": 84,
      "y": 133,
      "size": 1,
      "price": "2106000000000000000000",
      "reserved": "",
      "assetIds": [
        "55464657044963196816950587289035428064568320970692304673817341489687455367172",
        "55464657044963196816950587289035428064568320970692304673817341489687455367170",
        "55464657044963196816950587289035428064568320970692304673817341489687455367169",
        "55464657044963196816950587289035428064568320970692304673817341489687455367168"
      ]
    },
    {
      "x": 86,
      "y": 137,
      "size": 1,
      "price": "2106000000000000000000",
      "reserved": "",
      "assetIds": [
        "55464657044963196816950587289035428064568320970692304673817341489687455367183",
        "55464657044963196816950587289035428064568320970692304673817341489687455367171",
        "55464657044963196816950587289035428064568320970692304673817341489687455367169",
        "55464657044963196816950587289035428064568320970692304673817341489687455367168"
      ]
    },
    {
      "x": 86,
      "y": 138,
      "size": 1,
      "price": "2106000000000000000000",
      "reserved": "",
      "assetIds": [
        "55464657044963196816950587289035428064568320970692304673817341489687455367173",
        "55464657044963196816950587289035428064568320970692304673817341489687455367170",
        "55464657044963196816950587289035428064568320970692304673817341489687455367169",
        "55464657044963196816950587289035428064568320970692304673817341489687455367168"
      ]
    },
    {
      "x": 88,
      "y": 144,
      "size": 1,
      "price": "2106000000000000000000",
      "reserved": "",
      "assetIds": [
        "55464657044963196816950587289035428064568320970692304673817341489687455367174",
        "55464657044963196816950587289035428064568320970692304673817341489687455367170",
        "55464657044963196816950587289035428064568320970692304673817341489687455367169",
        "55464657044963196816950587289035428064568320970692304673817341489687455367168"
      ]
    },
    {
      "x": 88,
      "y": 143,
      "size": 1,
      "price": "2106000000000000000000",
      "reserved": "",
      "assetIds": [
        "55464657044963196816950587289035428064568320970692304673817341489687455367176",
        "55464657044963196816950587289035428064568320970692304673817341489687455367170",
        "55464657044963196816950587289035428064568320970692304673817341489687455367169",
        "55464657044963196816950587289035428064568320970692304673817341489687455367168"
      ]
    },
    {
      "x": 88,
      "y": 142,
      "size": 1,
      "price": "2106000000000000000000",
      "reserved": "",
      "assetIds": [
        "55464657044963196816950587289035428064568320970692304673817341489687455367182",
        "55464657044963196816950587289035428064568320970692304673817341489687455367171",
        "55464657044963196816950587289035428064568320970692304673817341489687455367169",
        "55464657044963196816950587289035428064568320970692304673817341489687455367168"
      ]
    },
    {
      "x": 87,
      "y": 141,
      "size": 1,
      "price": "2106000000000000000000",
      "reserved": "",
      "assetIds": [
        "55464657044963196816950587289035428064568320970692304673817341489687455367182",
        "55464657044963196816950587289035428064568320970692304673817341489687455367171",
        "55464657044963196816950587289035428064568320970692304673817341489687455367169",
        "55464657044963196816950587289035428064568320970692304673817341489687455367168"
      ]
    },
    {
      "x": 87,
      "y": 140,
      "size": 1,
      "price": "2106000000000000000000",
      "reserved": "",
      "assetIds": [
        "55464657044963196816950587289035428064568320970692304673817341489687455367180",
        "55464657044963196816950587289035428064568320970692304673817341489687455367171",
        "55464657044963196816950587289035428064568320970692304673817341489687455367169",
        "55464657044963196816950587289035428064568320970692304673817341489687455367168"
      ]
    },
    {
      "x": 88,
      "y": 137,
      "size": 1,
      "price": "2106000000000000000000",
      "reserved": "",
      "assetIds": [
        "55464657044963196816950587289035428064568320970692304673817341489687455367175",
        "55464657044963196816950587289035428064568320970692304673817341489687455367170",
        "55464657044963196816950587289035428064568320970692304673817341489687455367169",
        "55464657044963196816950587289035428064568320970692304673817341489687455367168"
      ]
    },
    {
      "x": 88,
      "y": 140,
      "size": 1,
      "price": "2106000000000000000000",
      "reserved": "",
      "assetIds": [
        "55464657044963196816950587289035428064568320970692304673817341489687455367181",
        "55464657044963196816950587289035428064568320970692304673817341489687455367171",
        "55464657044963196816950587289035428064568320970692304673817341489687455367169",
        "55464657044963196816950587289035428064568320970692304673817341489687455367168"
      ]
    },
    {
      "x": 88,
      "y": 141,
      "size": 1,
      "price": "2106000000000000000000",
      "reserved": "",
      "assetIds": [
        "55464657044963196816950587289035428064568320970692304673817341489687455367175",
        "55464657044963196816950587289035428064568320970692304673817341489687455367170",
        "55464657044963196816950587289035428064568320970692304673817341489687455367169",
        "55464657044963196816950587289035428064568320970692304673817341489687455367168"
      ]
    },
    {
      "x": 88,
      "y": 139,
      "size": 1,
      "price": "2106000000000000000000",
      "reserved": "",
      "assetIds": [
        "55464657044963196816950587289035428064568320970692304673817341489687455367182",
        "55464657044963196816950587289035428064568320970692304673817341489687455367171",
        "55464657044963196816950587289035428064568320970692304673817341489687455367169",
        "55464657044963196816950587289035428064568320970692304673817341489687455367168"
      ]
    },
    {
      "x": 88,
      "y": 138,
      "size": 1,
      "price": "2106000000000000000000",
      "reserved": "",
      "assetIds": [
        "55464657044963196816950587289035428064568320970692304673817341489687455367174",
        "55464657044963196816950587289035428064568320970692304673817341489687455367170",
        "55464657044963196816950587289035428064568320970692304673817341489687455367169",
        "55464657044963196816950587289035428064568320970692304673817341489687455367168"
      ]
    },
    {
      "x": 85,
      "y": 142,
      "size": 1,
      "price": "2106000000000000000000",
      "reserved": "",
      "assetIds": [
        "55464657044963196816950587289035428064568320970692304673817341489687455367176",
        "55464657044963196816950587289035428064568320970692304673817341489687455367170",
        "55464657044963196816950587289035428064568320970692304673817341489687455367169",
        "55464657044963196816950587289035428064568320970692304673817341489687455367168"
      ]
    },
    {
      "x": 85,
      "y": 144,
      "size": 1,
      "price": "2106000000000000000000",
      "reserved": "",
      "assetIds": [
        "55464657044963196816950587289035428064568320970692304673817341489687455367173",
        "55464657044963196816950587289035428064568320970692304673817341489687455367170",
        "55464657044963196816950587289035428064568320970692304673817341489687455367169",
        "55464657044963196816950587289035428064568320970692304673817341489687455367168"
      ]
    },
    {
      "x": 84,
      "y": 144,
      "size": 1,
      "price": "2106000000000000000000",
      "reserved": "",
      "assetIds": [
        "55464657044963196816950587289035428064568320970692304673817341489687455367181",
        "55464657044963196816950587289035428064568320970692304673817341489687455367171",
        "55464657044963196816950587289035428064568320970692304673817341489687455367169",
        "55464657044963196816950587289035428064568320970692304673817341489687455367168"
      ]
    },
    {
      "x": 87,
      "y": 144,
      "size": 1,
      "price": "2106000000000000000000",
      "reserved": "",
      "assetIds": [
        "55464657044963196816950587289035428064568320970692304673817341489687455367179",
        "55464657044963196816950587289035428064568320970692304673817341489687455367171",
        "55464657044963196816950587289035428064568320970692304673817341489687455367169",
        "55464657044963196816950587289035428064568320970692304673817341489687455367168"
      ]
    },
    {
      "x": 87,
      "y": 143,
      "size": 1,
      "price": "2106000000000000000000",
      "reserved": "",
      "assetIds": [
        "55464657044963196816950587289035428064568320970692304673817341489687455367180",
        "55464657044963196816950587289035428064568320970692304673817341489687455367171",
        "55464657044963196816950587289035428064568320970692304673817341489687455367169",
        "55464657044963196816950587289035428064568320970692304673817341489687455367168"
      ]
    },
    {
      "x": 60,
      "y": 141,
      "size": 3,
      "price": "7772000000000000000000",
      "reserved": "0x7a9fe22691c811ea339d9b73150e6911a5343dca",
      "assetIds": []
    },
    {
      "x": 51,
      "y": 144,
      "size": 3,
      "price": "7772000000000000000000",
      "reserved": "0x7a9fe22691c811ea339d9b73150e6911a5343dca",
      "assetIds": []
    },
    {
      "x": 39,
      "y": 141,
      "size": 3,
      "price": "7772000000000000000000",
      "reserved": "0x7a9fe22691c811ea339d9b73150e6911a5343dca",
      "assetIds": []
    },
    {
      "x": 63,
      "y": 132,
      "size": 3,
      "price": "7772000000000000000000",
      "reserved": "0x7a9fe22691c811ea339d9b73150e6911a5343dca",
      "assetIds": []
    },
    {
      "x": 66,
      "y": 120,
      "size": 3,
      "price": "7772000000000000000000",
      "reserved": "0xed3b9be5a3d44d81d28e90aec10fd18e9a9a3fcb",
      "assetIds": []
    },
    {
      "x": 78,
      "y": 105,
      "size": 3,
      "price": "7772000000000000000000",
      "reserved": "0x7a9fe22691c811ea339d9b73150e6911a5343dca",
      "assetIds": []
    },
    {
      "x": 93,
      "y": 108,
      "size": 3,
      "price": "7772000000000000000000",
      "reserved": "0x7a9fe22691c811ea339d9b73150e6911a5343dca",
      "assetIds": []
    },
    {
      "x": 105,
      "y": 135,
      "size": 3,
      "price": "7772000000000000000000",
      "reserved": "0x7a9fe22691c811ea339d9b73150e6911a5343dca",
      "assetIds": []
    },
    {
      "x": 135,
      "y": 132,
      "size": 3,
      "price": "7772000000000000000000",
      "reserved": "0x7a9fe22691c811ea339d9b73150e6911a5343dca",
      "assetIds": []
    },
    {
      "x": 117,
      "y": 153,
      "size": 3,
      "price": "7772000000000000000000",
      "reserved": "0x7a9fe22691c811ea339d9b73150e6911a5343dca",
      "assetIds": []
    },
    {
      "x": 72,
      "y": 156,
      "size": 3,
      "price": "7772000000000000000000",
      "reserved": "0x7a9fe22691c811ea339d9b73150e6911a5343dca",
      "assetIds": []
    },
    {
      "x": 48,
      "y": 159,
      "size": 3,
      "price": "7772000000000000000000",
      "reserved": "0x7a9fe22691c811ea339d9b73150e6911a5343dca",
      "assetIds": []
    },
    {
      "x": 69,
      "y": 165,
      "size": 3,
      "price": "7772000000000000000000",
      "reserved": "0x7a9fe22691c811ea339d9b73150e6911a5343dca",
      "assetIds": []
    },
    {
      "x": 123,
      "y": 27,
      "size": 3,
      "price": "7772000000000000000000",
      "reserved": "0x7a9fe22691c811ea339d9b73150e6911a5343dca",
      "assetIds": []
    },
    {
      "x": 120,
      "y": 27,
      "size": 3,
      "price": "7772000000000000000000",
      "reserved": "0x7a9fe22691c811ea339d9b73150e6911a5343dca",
      "assetIds": []
    },
    {
      "x": 96,
      "y": 30,
      "size": 3,
      "price": "7772000000000000000000",
      "reserved": "0x7a9fe22691c811ea339d9b73150e6911a5343dca",
      "assetIds": []
    },
    {
      "x": 93,
      "y": 30,
      "size": 3,
      "price": "7772000000000000000000",
      "reserved": "0x7a9fe22691c811ea339d9b73150e6911a5343dca",
      "assetIds": []
    },
    {
      "x": 90,
      "y": 33,
      "size": 3,
      "price": "7772000000000000000000",
      "reserved": "0x7a9fe22691c811ea339d9b73150e6911a5343dca",
      "assetIds": []
    },
    {
      "x": 69,
      "y": 36,
      "size": 3,
      "price": "7772000000000000000000",
      "reserved": "0x7a9fe22691c811ea339d9b73150e6911a5343dca",
      "assetIds": []
    },
    {
      "x": 69,
      "y": 42,
      "size": 3,
      "price": "7772000000000000000000",
      "reserved": "0x7a9fe22691c811ea339d9b73150e6911a5343dca",
      "assetIds": []
    },
    {
      "x": 96,
      "y": 54,
      "size": 3,
      "price": "7772000000000000000000",
      "reserved": "0x7a9fe22691c811ea339d9b73150e6911a5343dca",
      "assetIds": []
    },
    {
      "x": 108,
      "y": 69,
      "size": 3,
      "price": "7772000000000000000000",
      "reserved": "0x7a9fe22691c811ea339d9b73150e6911a5343dca",
      "assetIds": []
    },
    {
      "x": 135,
      "y": 36,
      "size": 3,
      "price": "7772000000000000000000",
      "reserved": "0x7a9fe22691c811ea339d9b73150e6911a5343dca",
      "assetIds": []
    },
    {
      "x": 153,
      "y": 66,
      "size": 3,
      "price": "7772000000000000000000",
      "reserved": "0x7a9fe22691c811ea339d9b73150e6911a5343dca",
      "assetIds": []
    },
    {
      "x": 156,
      "y": 72,
      "size": 3,
      "price": "7772000000000000000000",
      "reserved": "0x7a9fe22691c811ea339d9b73150e6911a5343dca",
      "assetIds": []
    },
    {
      "x": 159,
      "y": 57,
      "size": 3,
      "price": "7772000000000000000000",
      "reserved": "0x7a9fe22691c811ea339d9b73150e6911a5343dca",
      "assetIds": []
    },
    {
      "x": 156,
      "y": 33,
      "size": 3,
      "price": "7772000000000000000000",
      "reserved": "0x7a9fe22691c811ea339d9b73150e6911a5343dca",
      "assetIds": []
    },
    {
      "x": 153,
      "y": 87,
      "size": 3,
      "price": "7772000000000000000000",
      "reserved": "0x37d6c1670f4fffe588433d7976eee1e2b0a9ba39",
      "assetIds": []
    },
    {
      "x": 159,
      "y": 135,
      "size": 3,
      "price": "7772000000000000000000",
      "reserved": "0x7a9fe22691c811ea339d9b73150e6911a5343dca",
      "assetIds": []
    },
    {
      "x": 192,
      "y": 75,
      "size": 3,
      "price": "7772000000000000000000",
      "reserved": "0x7a9fe22691c811ea339d9b73150e6911a5343dca",
      "assetIds": []
    },
    {
      "x": 192,
      "y": 99,
      "size": 3,
      "price": "7772000000000000000000",
      "reserved": "0x7a9fe22691c811ea339d9b73150e6911a5343dca",
      "assetIds": []
    },
    {
      "x": 66,
      "y": 69,
      "size": 3,
      "price": "7772000000000000000000",
      "reserved": "0x7a9fe22691c811ea339d9b73150e6911a5343dca",
      "assetIds": []
    },
    {
      "x": 75,
      "y": 75,
      "size": 3,
      "price": "7772000000000000000000",
      "reserved": "0x7a9fe22691c811ea339d9b73150e6911a5343dca",
      "assetIds": []
    },
    {
      "x": 42,
      "y": 72,
      "size": 3,
      "price": "7772000000000000000000",
      "reserved": "0x7a9fe22691c811ea339d9b73150e6911a5343dca",
      "assetIds": []
    },
    {
      "x": 72,
      "y": 171,
      "size": 3,
      "price": "7772000000000000000000",
      "reserved": "0x7a9fe22691c811ea339d9b73150e6911a5343dca",
      "assetIds": []
    },
    {
      "x": 36,
      "y": 183,
      "size": 3,
      "price": "7772000000000000000000",
      "reserved": "0x7a9fe22691c811ea339d9b73150e6911a5343dca",
      "assetIds": []
    },
    {
      "x": 72,
      "y": 183,
      "size": 3,
      "price": "7772000000000000000000",
      "reserved": "0x7a9fe22691c811ea339d9b73150e6911a5343dca",
      "assetIds": []
    },
    {
      "x": 105,
      "y": 177,
      "size": 3,
      "price": "7772000000000000000000",
      "reserved": "0x7a9fe22691c811ea339d9b73150e6911a5343dca",
      "assetIds": []
    },
    {
      "x": 45,
      "y": 90,
      "size": 3,
      "price": "7772000000000000000000",
      "reserved": "0x7a9fe22691c811ea339d9b73150e6911a5343dca",
      "assetIds": []
    },
    {
      "x": 57,
      "y": 192,
      "size": 3,
      "price": "7772000000000000000000",
      "reserved": "0x7a9fe22691c811ea339d9b73150e6911a5343dca",
      "assetIds": []
    },
    {
      "x": 93,
      "y": 126,
      "size": 3,
      "price": "7772000000000000000000",
      "reserved": "0x7a9fe22691c811ea339d9b73150e6911a5343dca",
      "assetIds": []
    },
    {
      "x": 33,
      "y": 108,
      "size": 3,
      "price": "7772000000000000000000",
      "reserved": "0x7a9fe22691c811ea339d9b73150e6911a5343dca",
      "assetIds": []
    },
    {
      "x": 63,
      "y": 96,
      "size": 3,
      "price": "7772000000000000000000",
      "reserved": "0x7a9fe22691c811ea339d9b73150e6911a5343dca",
      "assetIds": []
    },
    {
      "x": 195,
      "y": 69,
      "size": 3,
      "price": "7772000000000000000000",
      "reserved": "",
      "assetIds": []
    },
    {
      "x": 192,
      "y": 72,
      "size": 3,
      "price": "7772000000000000000000",
      "reserved": "",
      "assetIds": []
    },
    {
      "x": 183,
      "y": 72,
      "size": 3,
      "price": "7772000000000000000000",
      "reserved": "",
      "assetIds": []
    },
    {
      "x": 180,
      "y": 72,
      "size": 3,
      "price": "7772000000000000000000",
      "reserved": "",
      "assetIds": []
    },
    {
      "x": 165,
      "y": 72,
      "size": 3,
      "price": "7772000000000000000000",
      "reserved": "",
      "assetIds": []
    },
    {
      "x": 165,
      "y": 57,
      "size": 3,
      "price": "7772000000000000000000",
      "reserved": "",
      "assetIds": []
    },
    {
      "x": 162,
      "y": 54,
      "size": 3,
      "price": "7772000000000000000000",
      "reserved": "",
      "assetIds": []
    },
    {
      "x": 153,
      "y": 72,
      "size": 3,
      "price": "7772000000000000000000",
      "reserved": "",
      "assetIds": []
    },
    {
      "x": 153,
      "y": 75,
      "size": 3,
      "price": "7772000000000000000000",
      "reserved": "",
      "assetIds": []
    },
    {
      "x": 147,
      "y": 78,
      "size": 3,
      "price": "7772000000000000000000",
      "reserved": "",
      "assetIds": []
    },
    {
      "x": 150,
      "y": 81,
      "size": 3,
      "price": "7772000000000000000000",
      "reserved": "",
      "assetIds": []
    },
    {
      "x": 144,
      "y": 81,
      "size": 3,
      "price": "7772000000000000000000",
      "reserved": "",
      "assetIds": []
    },
    {
      "x": 138,
      "y": 81,
      "size": 3,
      "price": "7772000000000000000000",
      "reserved": "",
      "assetIds": []
    },
    {
      "x": 138,
      "y": 84,
      "size": 3,
      "price": "7772000000000000000000",
      "reserved": "",
      "assetIds": []
    },
    {
      "x": 141,
      "y": 87,
      "size": 3,
      "price": "7772000000000000000000",
      "reserved": "",
      "assetIds": []
    },
    {
      "x": 135,
      "y": 96,
      "size": 3,
      "price": "7772000000000000000000",
      "reserved": "",
      "assetIds": []
    },
    {
      "x": 150,
      "y": 99,
      "size": 3,
      "price": "7772000000000000000000",
      "reserved": "",
      "assetIds": []
    },
    {
      "x": 153,
      "y": 102,
      "size": 3,
      "price": "7772000000000000000000",
      "reserved": "",
      "assetIds": []
    },
    {
      "x": 162,
      "y": 105,
      "size": 3,
      "price": "7772000000000000000000",
      "reserved": "",
      "assetIds": []
    },
    {
      "x": 165,
      "y": 108,
      "size": 3,
      "price": "7772000000000000000000",
      "reserved": "",
      "assetIds": []
    },
    {
      "x": 174,
      "y": 114,
      "size": 3,
      "price": "7772000000000000000000",
      "reserved": "",
      "assetIds": []
    },
    {
      "x": 177,
      "y": 117,
      "size": 3,
      "price": "7772000000000000000000",
      "reserved": "",
      "assetIds": []
    },
    {
      "x": 189,
      "y": 108,
      "size": 3,
      "price": "7772000000000000000000",
      "reserved": "",
      "assetIds": []
    },
    {
      "x": 186,
      "y": 111,
      "size": 3,
      "price": "7772000000000000000000",
      "reserved": "",
      "assetIds": []
    },
    {
      "x": 186,
      "y": 123,
      "size": 3,
      "price": "7772000000000000000000",
      "reserved": "",
      "assetIds": []
    },
    {
      "x": 189,
      "y": 120,
      "size": 3,
      "price": "7772000000000000000000",
      "reserved": "",
      "assetIds": []
    },
    {
      "x": 186,
      "y": 96,
      "size": 3,
      "price": "7772000000000000000000",
      "reserved": "",
      "assetIds": []
    },
    {
      "x": 189,
      "y": 99,
      "size": 3,
      "price": "7772000000000000000000",
      "reserved": "",
      "assetIds": []
    },
    {
      "x": 159,
      "y": 120,
      "size": 3,
      "price": "7772000000000000000000",
      "reserved": "",
      "assetIds": []
    },
    {
      "x": 156,
      "y": 123,
      "size": 3,
      "price": "7772000000000000000000",
      "reserved": "",
      "assetIds": []
    },
    {
      "x": 165,
      "y": 129,
      "size": 3,
      "price": "7772000000000000000000",
      "reserved": "",
      "assetIds": []
    },
    {
      "x": 162,
      "y": 132,
      "size": 3,
      "price": "7772000000000000000000",
      "reserved": "",
      "assetIds": []
    },
    {
      "x": 141,
      "y": 132,
      "size": 3,
      "price": "7772000000000000000000",
      "reserved": "",
      "assetIds": []
    },
    {
      "x": 138,
      "y": 135,
      "size": 3,
      "price": "7772000000000000000000",
      "reserved": "",
      "assetIds": []
    },
    {
      "x": 117,
      "y": 144,
      "size": 3,
      "price": "7772000000000000000000",
      "reserved": "",
      "assetIds": []
    },
    {
      "x": 117,
      "y": 147,
      "size": 3,
      "price": "7772000000000000000000",
      "reserved": "",
      "assetIds": []
    },
    {
      "x": 108,
      "y": 147,
      "size": 3,
      "price": "7772000000000000000000",
      "reserved": "",
      "assetIds": []
    },
    {
      "x": 105,
      "y": 144,
      "size": 3,
      "price": "7772000000000000000000",
      "reserved": "",
      "assetIds": []
    },
    {
      "x": 99,
      "y": 144,
      "size": 3,
      "price": "7772000000000000000000",
      "reserved": "",
      "assetIds": []
    },
    {
      "x": 96,
      "y": 147,
      "size": 3,
      "price": "7772000000000000000000",
      "reserved": "",
      "assetIds": []
    },
    {
      "x": 99,
      "y": 156,
      "size": 3,
      "price": "7772000000000000000000",
      "reserved": "",
      "assetIds": []
    },
    {
      "x": 96,
      "y": 156,
      "size": 3,
      "price": "7772000000000000000000",
      "reserved": "",
      "assetIds": []
    },
    {
      "x": 111,
      "y": 174,
      "size": 3,
      "price": "7772000000000000000000",
      "reserved": "",
      "assetIds": []
    },
    {
      "x": 108,
      "y": 177,
      "size": 3,
      "price": "7772000000000000000000",
      "reserved": "",
      "assetIds": []
    },
    {
      "x": 105,
      "y": 183,
      "size": 3,
      "price": "7772000000000000000000",
      "reserved": "",
      "assetIds": []
    },
    {
      "x": 102,
      "y": 186,
      "size": 3,
      "price": "7772000000000000000000",
      "reserved": "",
      "assetIds": []
    },
    {
      "x": 72,
      "y": 174,
      "size": 3,
      "price": "7772000000000000000000",
      "reserved": "",
      "assetIds": []
    },
    {
      "x": 69,
      "y": 180,
      "size": 3,
      "price": "7772000000000000000000",
      "reserved": "",
      "assetIds": []
    },
    {
      "x": 72,
      "y": 177,
      "size": 3,
      "price": "7772000000000000000000",
      "reserved": "",
      "assetIds": []
    },
    {
      "x": 75,
      "y": 159,
      "size": 3,
      "price": "7772000000000000000000",
      "reserved": "",
      "assetIds": []
    },
    {
      "x": 75,
      "y": 156,
      "size": 3,
      "price": "7772000000000000000000",
      "reserved": "",
      "assetIds": []
    },
    {
      "x": 159,
      "y": 39,
      "size": 3,
      "price": "7772000000000000000000",
      "reserved": "",
      "assetIds": []
    },
    {
      "x": 156,
      "y": 36,
      "size": 3,
      "price": "7772000000000000000000",
      "reserved": "",
      "assetIds": []
    },
    {
      "x": 99,
      "y": 30,
      "size": 3,
      "price": "7772000000000000000000",
      "reserved": "",
      "assetIds": []
    },
    {
      "x": 96,
      "y": 33,
      "size": 3,
      "price": "7772000000000000000000",
      "reserved": "",
      "assetIds": []
    },
    {
      "x": 93,
      "y": 36,
      "size": 3,
      "price": "7772000000000000000000",
      "reserved": "",
      "assetIds": []
    },
    {
      "x": 90,
      "y": 39,
      "size": 3,
      "price": "7772000000000000000000",
      "reserved": "",
      "assetIds": []
    },
    {
      "x": 105,
      "y": 36,
      "size": 3,
      "price": "7772000000000000000000",
      "reserved": "",
      "assetIds": []
    },
    {
      "x": 102,
      "y": 36,
      "size": 3,
      "price": "7772000000000000000000",
      "reserved": "",
      "assetIds": []
    },
    {
      "x": 90,
      "y": 30,
      "size": 3,
      "price": "7772000000000000000000",
      "reserved": "",
      "assetIds": []
    },
    {
      "x": 81,
      "y": 30,
      "size": 3,
      "price": "7772000000000000000000",
      "reserved": "",
      "assetIds": []
    },
    {
      "x": 81,
      "y": 33,
      "size": 3,
      "price": "7772000000000000000000",
      "reserved": "",
      "assetIds": []
    },
    {
      "x": 72,
      "y": 36,
      "size": 3,
      "price": "7772000000000000000000",
      "reserved": "",
      "assetIds": []
    },
    {
      "x": 75,
      "y": 39,
      "size": 3,
      "price": "7772000000000000000000",
      "reserved": "",
      "assetIds": []
    },
    {
      "x": 108,
      "y": 51,
      "size": 3,
      "price": "7772000000000000000000",
      "reserved": "",
      "assetIds": []
    },
    {
      "x": 105,
      "y": 60,
      "size": 3,
      "price": "7772000000000000000000",
      "reserved": "",
      "assetIds": []
    },
    {
      "x": 108,
      "y": 63,
      "size": 3,
      "price": "7772000000000000000000",
      "reserved": "",
      "assetIds": []
    },
    {
      "x": 108,
      "y": 75,
      "size": 3,
      "price": "7772000000000000000000",
      "reserved": "",
      "assetIds": []
    },
    {
      "x": 108,
      "y": 72,
      "size": 3,
      "price": "7772000000000000000000",
      "reserved": "",
      "assetIds": []
    },
    {
      "x": 105,
      "y": 78,
      "size": 3,
      "price": "7772000000000000000000",
      "reserved": "",
      "assetIds": []
    },
    {
      "x": 99,
      "y": 75,
      "size": 3,
      "price": "7772000000000000000000",
      "reserved": "",
      "assetIds": []
    },
    {
      "x": 99,
      "y": 72,
      "size": 3,
      "price": "7772000000000000000000",
      "reserved": "",
      "assetIds": []
    },
    {
      "x": 117,
      "y": 81,
      "size": 3,
      "price": "7772000000000000000000",
      "reserved": "",
      "assetIds": []
    },
    {
      "x": 126,
      "y": 81,
      "size": 3,
      "price": "7772000000000000000000",
      "reserved": "",
      "assetIds": []
    },
    {
      "x": 78,
      "y": 78,
      "size": 3,
      "price": "7772000000000000000000",
      "reserved": "",
      "assetIds": []
    },
    {
      "x": 78,
      "y": 81,
      "size": 3,
      "price": "7772000000000000000000",
      "reserved": "",
      "assetIds": []
    },
    {
      "x": 84,
      "y": 72,
      "size": 3,
      "price": "7772000000000000000000",
      "reserved": "",
      "assetIds": []
    },
    {
      "x": 72,
      "y": 72,
      "size": 3,
      "price": "7772000000000000000000",
      "reserved": "",
      "assetIds": []
    },
    {
      "x": 72,
      "y": 84,
      "size": 3,
      "price": "7772000000000000000000",
      "reserved": "",
      "assetIds": []
    },
    {
      "x": 75,
      "y": 87,
      "size": 3,
      "price": "7772000000000000000000",
      "reserved": "",
      "assetIds": []
    },
    {
      "x": 45,
      "y": 72,
      "size": 3,
      "price": "7772000000000000000000",
      "reserved": "",
      "assetIds": []
    },
    {
      "x": 45,
      "y": 75,
      "size": 3,
      "price": "7772000000000000000000",
      "reserved": "",
      "assetIds": []
    },
    {
      "x": 36,
      "y": 72,
      "size": 3,
      "price": "7772000000000000000000",
      "reserved": "",
      "assetIds": []
    },
    {
      "x": 27,
      "y": 69,
      "size": 3,
      "price": "7772000000000000000000",
      "reserved": "",
      "assetIds": []
    },
    {
      "x": 39,
      "y": 84,
      "size": 3,
      "price": "7772000000000000000000",
      "reserved": "",
      "assetIds": []
    },
    {
      "x": 42,
      "y": 93,
      "size": 3,
      "price": "7772000000000000000000",
      "reserved": "",
      "assetIds": []
    },
    {
      "x": 45,
      "y": 93,
      "size": 3,
      "price": "7772000000000000000000",
      "reserved": "",
      "assetIds": []
    },
    {
      "x": 48,
      "y": 96,
      "size": 3,
      "price": "7772000000000000000000",
      "reserved": "",
      "assetIds": []
    },
    {
      "x": 51,
      "y": 99,
      "size": 3,
      "price": "7772000000000000000000",
      "reserved": "",
      "assetIds": []
    },
    {
      "x": 60,
      "y": 96,
      "size": 3,
      "price": "7772000000000000000000",
      "reserved": "",
      "assetIds": []
    },
    {
      "x": 60,
      "y": 99,
      "size": 3,
      "price": "7772000000000000000000",
      "reserved": "",
      "assetIds": []
    },
    {
      "x": 39,
      "y": 96,
      "size": 3,
      "price": "7772000000000000000000",
      "reserved": "",
      "assetIds": []
    },
    {
      "x": 51,
      "y": 105,
      "size": 3,
      "price": "7772000000000000000000",
      "reserved": "",
      "assetIds": []
    },
    {
      "x": 51,
      "y": 120,
      "size": 3,
      "price": "7772000000000000000000",
      "reserved": "",
      "assetIds": []
    },
    {
      "x": 54,
      "y": 120,
      "size": 3,
      "price": "7772000000000000000000",
      "reserved": "",
      "assetIds": []
    },
    {
      "x": 57,
      "y": 117,
      "size": 3,
      "price": "7772000000000000000000",
      "reserved": "",
      "assetIds": []
    },
    {
      "x": 39,
      "y": 126,
      "size": 3,
      "price": "7772000000000000000000",
      "reserved": "",
      "assetIds": []
    },
    {
      "x": 36,
      "y": 126,
      "size": 3,
      "price": "7772000000000000000000",
      "reserved": "",
      "assetIds": []
    },
    {
      "x": 33,
      "y": 111,
      "size": 3,
      "price": "7772000000000000000000",
      "reserved": "",
      "assetIds": []
    },
    {
      "x": 39,
      "y": 129,
      "size": 3,
      "price": "7772000000000000000000",
      "reserved": "",
      "assetIds": []
    },
    {
      "x": 36,
      "y": 138,
      "size": 3,
      "price": "7772000000000000000000",
      "reserved": "",
      "assetIds": []
    },
    {
      "x": 45,
      "y": 129,
      "size": 3,
      "price": "7772000000000000000000",
      "reserved": "",
      "assetIds": []
    },
    {
      "x": 51,
      "y": 129,
      "size": 3,
      "price": "7772000000000000000000",
      "reserved": "",
      "assetIds": []
    },
    {
      "x": 51,
      "y": 126,
      "size": 3,
      "price": "7772000000000000000000",
      "reserved": "",
      "assetIds": []
    },
    {
      "x": 54,
      "y": 132,
      "size": 3,
      "price": "7772000000000000000000",
      "reserved": "",
      "assetIds": []
    },
    {
      "x": 54,
      "y": 135,
      "size": 3,
      "price": "7772000000000000000000",
      "reserved": "",
      "assetIds": []
    },
    {
      "x": 57,
      "y": 135,
      "size": 3,
      "price": "7772000000000000000000",
      "reserved": "",
      "assetIds": []
    },
    {
      "x": 60,
      "y": 138,
      "size": 3,
      "price": "7772000000000000000000",
      "reserved": "",
      "assetIds": []
    },
    {
      "x": 63,
      "y": 147,
      "size": 3,
      "price": "7772000000000000000000",
      "reserved": "",
      "assetIds": []
    },
    {
      "x": 48,
      "y": 150,
      "size": 3,
      "price": "7772000000000000000000",
      "reserved": "",
      "assetIds": []
    },
    {
      "x": 48,
      "y": 153,
      "size": 3,
      "price": "7772000000000000000000",
      "reserved": "",
      "assetIds": []
    },
    {
      "x": 57,
      "y": 159,
      "size": 3,
      "price": "7772000000000000000000",
      "reserved": "",
      "assetIds": []
    },
    {
      "x": 57,
      "y": 165,
      "size": 3,
      "price": "7772000000000000000000",
      "reserved": "",
      "assetIds": []
    },
    {
      "x": 48,
      "y": 162,
      "size": 3,
      "price": "7772000000000000000000",
      "reserved": "",
      "assetIds": []
    },
    {
      "x": 36,
      "y": 162,
      "size": 3,
      "price": "7772000000000000000000",
      "reserved": "",
      "assetIds": []
    },
    {
      "x": 36,
      "y": 165,
      "size": 3,
      "price": "7772000000000000000000",
      "reserved": "",
      "assetIds": []
    },
    {
      "x": 39,
      "y": 171,
      "size": 3,
      "price": "7772000000000000000000",
      "reserved": "",
      "assetIds": []
    },
    {
      "x": 39,
      "y": 174,
      "size": 3,
      "price": "7772000000000000000000",
      "reserved": "",
      "assetIds": []
    },
    {
      "x": 48,
      "y": 189,
      "size": 3,
      "price": "7772000000000000000000",
      "reserved": "",
      "assetIds": []
    },
    {
      "x": 111,
      "y": 102,
      "size": 3,
      "price": "7772000000000000000000",
      "reserved": "",
      "assetIds": []
    },
    {
      "x": 105,
      "y": 93,
      "size": 3,
      "price": "7772000000000000000000",
      "reserved": "",
      "assetIds": []
    },
    {
      "x": 105,
      "y": 90,
      "size": 3,
      "price": "7772000000000000000000",
      "reserved": "",
      "assetIds": []
    },
    {
      "x": 99,
      "y": 108,
      "size": 3,
      "price": "7772000000000000000000",
      "reserved": "",
      "assetIds": []
    },
    {
      "x": 102,
      "y": 111,
      "size": 3,
      "price": "7772000000000000000000",
      "reserved": "",
      "assetIds": []
    },
    {
      "x": 111,
      "y": 126,
      "size": 3,
      "price": "7772000000000000000000",
      "reserved": "",
      "assetIds": []
    },
    {
      "x": 111,
      "y": 129,
      "size": 3,
      "price": "7772000000000000000000",
      "reserved": "",
      "assetIds": []
    },
    {
      "x": 81,
      "y": 105,
      "size": 3,
      "price": "7772000000000000000000",
      "reserved": "",
      "assetIds": []
    },
    {
      "x": 78,
      "y": 108,
      "size": 3,
      "price": "7772000000000000000000",
      "reserved": "",
      "assetIds": []
    },
    {
      "x": 90,
      "y": 108,
      "size": 3,
      "price": "7772000000000000000000",
      "reserved": "",
      "assetIds": []
    },
    {
      "x": 90,
      "y": 111,
      "size": 3,
      "price": "7772000000000000000000",
      "reserved": "",
      "assetIds": []
    },
    {
      "x": 78,
      "y": 114,
      "size": 3,
      "price": "7772000000000000000000",
      "reserved": "",
      "assetIds": []
    },
    {
      "x": 81,
      "y": 117,
      "size": 3,
      "price": "7772000000000000000000",
      "reserved": "",
      "assetIds": []
    },
    {
      "x": 84,
      "y": 120,
      "size": 3,
      "price": "7772000000000000000000",
      "reserved": "",
      "assetIds": []
    },
    {
      "x": 87,
      "y": 123,
      "size": 3,
      "price": "7772000000000000000000",
      "reserved": "",
      "assetIds": []
    },
    {
      "x": 90,
      "y": 123,
      "size": 3,
      "price": "7772000000000000000000",
      "reserved": "",
      "assetIds": []
    },
    {
      "x": 93,
      "y": 120,
      "size": 3,
      "price": "7772000000000000000000",
      "reserved": "",
      "assetIds": []
    },
    {
      "x": 114,
      "y": 114,
      "size": 3,
      "price": "7772000000000000000000",
      "reserved": "",
      "assetIds": []
    },
    {
      "x": 117,
      "y": 117,
      "size": 3,
      "price": "7772000000000000000000",
      "reserved": "",
      "assetIds": []
    },
    {
      "x": 93,
      "y": 132,
      "size": 3,
      "price": "7772000000000000000000",
      "reserved": "",
      "assetIds": []
    },
    {
      "x": 96,
      "y": 135,
      "size": 3,
      "price": "7772000000000000000000",
      "reserved": "",
      "assetIds": []
    },
    {
      "x": 69,
      "y": 192,
      "size": 3,
      "price": "7772000000000000000000",
      "reserved": "",
      "assetIds": []
    },
    {
      "x": 75,
      "y": 192,
      "size": 3,
      "price": "7772000000000000000000",
      "reserved": "",
      "assetIds": []
    },
    {
      "x": 75,
      "y": 195,
      "size": 3,
      "price": "7772000000000000000000",
      "reserved": "",
      "assetIds": []
    },
    {
      "x": 120,
      "y": 81,
      "size": 3,
      "price": "7772000000000000000000",
      "reserved": "",
      "assetIds": []
    },
    {
      "x": 48,
      "y": 192,
      "size": 6,
      "price": "29487000000000000000000",
      "reserved": "0x06a70e6973cd6fa1147e372db000c615e1b6a601",
      "assetIds": []
    },
    {
      "x": 42,
      "y": 174,
      "size": 6,
      "price": "29487000000000000000000",
      "reserved": "0x44bc1e612e11d0acd2c43218ea55717ac28e3a40",
      "assetIds": []
    },
    {
      "x": 42,
      "y": 156,
      "size": 6,
      "price": "29487000000000000000000",
      "reserved": "0xbb7e485b4142fc405aff2057038df60347b5050e",
      "assetIds": []
    },
    {
      "x": 36,
      "y": 150,
      "size": 6,
      "price": "29487000000000000000000",
      "reserved": "0x7a9fe22691c811ea339d9b73150e6911a5343dca",
      "assetIds": []
    },
    {
      "x": 96,
      "y": 150,
      "size": 6,
      "price": "29487000000000000000000",
      "reserved": "0xa93ee2d5ac5b802b9a8dbbc4db2cb3a772e89c7c",
      "assetIds": []
    },
    {
      "x": 84,
      "y": 114,
      "size": 6,
      "price": "29487000000000000000000",
      "reserved": "0xa93ee2d5ac5b802b9a8dbbc4db2cb3a772e89c7c",
      "assetIds": []
    },
    {
      "x": 108,
      "y": 114,
      "size": 6,
      "price": "29487000000000000000000",
      "reserved": "0xa93ee2d5ac5b802b9a8dbbc4db2cb3a772e89c7c",
      "assetIds": []
    },
    {
      "x": 114,
      "y": 108,
      "size": 6,
      "price": "29487000000000000000000",
      "reserved": "0xa93ee2d5ac5b802b9a8dbbc4db2cb3a772e89c7c",
      "assetIds": []
    },
    {
      "x": 108,
      "y": 96,
      "size": 6,
      "price": "29487000000000000000000",
      "reserved": "0xc1983926cab280597c4106cad0470ab121e3af7f",
      "assetIds": []
    },
    {
      "x": 114,
      "y": 90,
      "size": 6,
      "price": "29487000000000000000000",
      "reserved": "0xa93ee2d5ac5b802b9a8dbbc4db2cb3a772e89c7c",
      "assetIds": []
    },
    {
      "x": 120,
      "y": 96,
      "size": 6,
      "price": "29487000000000000000000",
      "reserved": "0xa93ee2d5ac5b802b9a8dbbc4db2cb3a772e89c7c",
      "assetIds": []
    },
    {
      "x": 138,
      "y": 90,
      "size": 6,
      "price": "29487000000000000000000",
      "reserved": "0xa93ee2d5ac5b802b9a8dbbc4db2cb3a772e89c7c",
      "assetIds": []
    },
    {
      "x": 162,
      "y": 114,
      "size": 6,
      "price": "29487000000000000000000",
      "reserved": "0xf736f96898fe99336f83da7d6f122289ec1a7e3e",
      "assetIds": []
    },
    {
      "x": 150,
      "y": 132,
      "size": 6,
      "price": "29487000000000000000000",
      "reserved": "0x53422d7da1334bab84a5ee9b70e1c5f39f635a0b",
      "assetIds": []
    },
    {
      "x": 180,
      "y": 132,
      "size": 6,
      "price": "29487000000000000000000",
      "reserved": "0x7a9fe22691c811ea339d9b73150e6911a5343dca",
      "assetIds": []
    },
    {
      "x": 42,
      "y": 132,
      "size": 6,
      "price": "29487000000000000000000",
      "reserved": "0x7a9fe22691c811ea339d9b73150e6911a5343dca",
      "assetIds": []
    },
    {
      "x": 48,
      "y": 138,
      "size": 6,
      "price": "29487000000000000000000",
      "reserved": "0xf0103243f4d22b5696588646b21313d85916a16a",
      "assetIds": []
    },
    {
      "x": 30,
      "y": 114,
      "size": 6,
      "price": "29487000000000000000000",
      "reserved": "0x7a9fe22691c811ea339d9b73150e6911a5343dca",
      "assetIds": []
    },
    {
      "x": 54,
      "y": 96,
      "size": 6,
      "price": "29487000000000000000000",
      "reserved": "0xa93ee2d5ac5b802b9a8dbbc4db2cb3a772e89c7c",
      "assetIds": []
    },
    {
      "x": 72,
      "y": 90,
      "size": 6,
      "price": "29487000000000000000000",
      "reserved": "0xa93ee2d5ac5b802b9a8dbbc4db2cb3a772e89c7c",
      "assetIds": []
    },
    {
      "x": 102,
      "y": 72,
      "size": 6,
      "price": "29487000000000000000000",
      "reserved": "0xa93ee2d5ac5b802b9a8dbbc4db2cb3a772e89c7c",
      "assetIds": []
    },
    {
      "x": 84,
      "y": 78,
      "size": 6,
      "price": "29487000000000000000000",
      "reserved": "0x7a9fe22691c811ea339d9b73150e6911a5343dca",
      "assetIds": []
    },
    {
      "x": 102,
      "y": 54,
      "size": 6,
      "price": "29487000000000000000000",
      "reserved": "0xa93ee2d5ac5b802b9a8dbbc4db2cb3a772e89c7c",
      "assetIds": []
    },
    {
      "x": 54,
      "y": 66,
      "size": 6,
      "price": "29487000000000000000000",
      "reserved": "0x1d3b416ddd86008cb30e3e7da33cce85efad8aca",
      "assetIds": []
    },
    {
      "x": 72,
      "y": 78,
      "size": 6,
      "price": "29487000000000000000000",
      "reserved": "0xa93ee2d5ac5b802b9a8dbbc4db2cb3a772e89c7c",
      "assetIds": []
    },
    {
      "x": 162,
      "y": 66,
      "size": 6,
      "price": "29487000000000000000000",
      "reserved": "0xa93ee2d5ac5b802b9a8dbbc4db2cb3a772e89c7c",
      "assetIds": []
    },
    {
      "x": 180,
      "y": 66,
      "size": 6,
      "price": "29487000000000000000000",
      "reserved": "0x7a9fe22691c811ea339d9b73150e6911a5343dca",
      "assetIds": []
    },
    {
      "x": 126,
      "y": 24,
      "size": 6,
      "price": "29487000000000000000000",
      "reserved": "0xb4f2f0cd5510d23e58c2bf7ca4bcb294e643e57d",
      "assetIds": []
    },
    {
      "x": 90,
      "y": 24,
      "size": 6,
      "price": "29487000000000000000000",
      "reserved": "0xd4e6c27b8e5805318295f3586f59c34b60495992",
      "assetIds": []
    },
    {
      "x": 90,
      "y": 42,
      "size": 6,
      "price": "29487000000000000000000",
      "reserved": "0xa93ee2d5ac5b802b9a8dbbc4db2cb3a772e89c7c",
      "assetIds": []
    },
    {
      "x": 96,
      "y": 36,
      "size": 6,
      "price": "29487000000000000000000",
      "reserved": "0xa93ee2d5ac5b802b9a8dbbc4db2cb3a772e89c7c",
      "assetIds": []
    },
    {
      "x": 108,
      "y": 36,
      "size": 6,
      "price": "29487000000000000000000",
      "reserved": "0xa93ee2d5ac5b802b9a8dbbc4db2cb3a772e89c7c",
      "assetIds": []
    },
    {
      "x": 84,
      "y": 192,
      "size": 6,
      "price": "29487000000000000000000",
      "reserved": "0xaab961e1cde0eaea28be759cf120122cacc64ed5",
      "assetIds": []
    },
    {
      "x": 42,
      "y": 192,
      "size": 6,
      "price": "29487000000000000000000",
      "reserved": "",
      "assetIds": []
    },
    {
      "x": 36,
      "y": 186,
      "size": 6,
      "price": "29487000000000000000000",
      "reserved": "",
      "assetIds": []
    },
    {
      "x": 72,
      "y": 186,
      "size": 6,
      "price": "29487000000000000000000",
      "reserved": "",
      "assetIds": []
    },
    {
      "x": 66,
      "y": 186,
      "size": 6,
      "price": "29487000000000000000000",
      "reserved": "",
      "assetIds": []
    },
    {
      "x": 78,
      "y": 192,
      "size": 6,
      "price": "29487000000000000000000",
      "reserved": "",
      "assetIds": []
    },
    {
      "x": 96,
      "y": 192,
      "size": 6,
      "price": "29487000000000000000000",
      "reserved": "",
      "assetIds": []
    },
    {
      "x": 108,
      "y": 180,
      "size": 6,
      "price": "29487000000000000000000",
      "reserved": "",
      "assetIds": []
    },
    {
      "x": 114,
      "y": 174,
      "size": 6,
      "price": "29487000000000000000000",
      "reserved": "",
      "assetIds": []
    },
    {
      "x": 108,
      "y": 168,
      "size": 6,
      "price": "29487000000000000000000",
      "reserved": "",
      "assetIds": []
    },
    {
      "x": 72,
      "y": 162,
      "size": 6,
      "price": "29487000000000000000000",
      "reserved": "",
      "assetIds": []
    },
    {
      "x": 60,
      "y": 162,
      "size": 6,
      "price": "29487000000000000000000",
      "reserved": "",
      "assetIds": []
    },
    {
      "x": 60,
      "y": 168,
      "size": 6,
      "price": "29487000000000000000000",
      "reserved": "",
      "assetIds": []
    },
    {
      "x": 60,
      "y": 174,
      "size": 6,
      "price": "29487000000000000000000",
      "reserved": "",
      "assetIds": []
    },
    {
      "x": 54,
      "y": 180,
      "size": 6,
      "price": "29487000000000000000000",
      "reserved": "",
      "assetIds": []
    },
    {
      "x": 48,
      "y": 180,
      "size": 6,
      "price": "29487000000000000000000",
      "reserved": "",
      "assetIds": []
    },
    {
      "x": 42,
      "y": 180,
      "size": 6,
      "price": "29487000000000000000000",
      "reserved": "",
      "assetIds": []
    },
    {
      "x": 42,
      "y": 168,
      "size": 6,
      "price": "29487000000000000000000",
      "reserved": "",
      "assetIds": []
    },
    {
      "x": 42,
      "y": 162,
      "size": 6,
      "price": "29487000000000000000000",
      "reserved": "",
      "assetIds": []
    },
    {
      "x": 36,
      "y": 156,
      "size": 6,
      "price": "29487000000000000000000",
      "reserved": "",
      "assetIds": []
    },
    {
      "x": 30,
      "y": 144,
      "size": 6,
      "price": "29487000000000000000000",
      "reserved": "",
      "assetIds": []
    },
    {
      "x": 36,
      "y": 144,
      "size": 6,
      "price": "29487000000000000000000",
      "reserved": "",
      "assetIds": []
    },
    {
      "x": 42,
      "y": 144,
      "size": 6,
      "price": "29487000000000000000000",
      "reserved": "",
      "assetIds": []
    },
    {
      "x": 42,
      "y": 150,
      "size": 6,
      "price": "29487000000000000000000",
      "reserved": "",
      "assetIds": []
    },
    {
      "x": 42,
      "y": 138,
      "size": 6,
      "price": "29487000000000000000000",
      "reserved": "",
      "assetIds": []
    },
    {
      "x": 48,
      "y": 132,
      "size": 6,
      "price": "29487000000000000000000",
      "reserved": "",
      "assetIds": []
    },
    {
      "x": 30,
      "y": 126,
      "size": 6,
      "price": "29487000000000000000000",
      "reserved": "",
      "assetIds": []
    },
    {
      "x": 30,
      "y": 120,
      "size": 6,
      "price": "29487000000000000000000",
      "reserved": "",
      "assetIds": []
    },
    {
      "x": 36,
      "y": 120,
      "size": 6,
      "price": "29487000000000000000000",
      "reserved": "",
      "assetIds": []
    },
    {
      "x": 54,
      "y": 138,
      "size": 6,
      "price": "29487000000000000000000",
      "reserved": "",
      "assetIds": []
    },
    {
      "x": 54,
      "y": 144,
      "size": 6,
      "price": "29487000000000000000000",
      "reserved": "",
      "assetIds": []
    },
    {
      "x": 54,
      "y": 150,
      "size": 6,
      "price": "29487000000000000000000",
      "reserved": "",
      "assetIds": []
    },
    {
      "x": 60,
      "y": 150,
      "size": 6,
      "price": "29487000000000000000000",
      "reserved": "",
      "assetIds": []
    },
    {
      "x": 66,
      "y": 156,
      "size": 6,
      "price": "29487000000000000000000",
      "reserved": "",
      "assetIds": []
    },
    {
      "x": 90,
      "y": 144,
      "size": 6,
      "price": "29487000000000000000000",
      "reserved": "",
      "assetIds": []
    },
    {
      "x": 90,
      "y": 150,
      "size": 6,
      "price": "29487000000000000000000",
      "reserved": "",
      "assetIds": []
    },
    {
      "x": 102,
      "y": 150,
      "size": 6,
      "price": "29487000000000000000000",
      "reserved": "",
      "assetIds": []
    },
    {
      "x": 108,
      "y": 150,
      "size": 6,
      "price": "29487000000000000000000",
      "reserved": "",
      "assetIds": []
    },
    {
      "x": 108,
      "y": 156,
      "size": 6,
      "price": "29487000000000000000000",
      "reserved": "",
      "assetIds": []
    },
    {
      "x": 96,
      "y": 138,
      "size": 6,
      "price": "29487000000000000000000",
      "reserved": "",
      "assetIds": []
    },
    {
      "x": 54,
      "y": 126,
      "size": 6,
      "price": "29487000000000000000000",
      "reserved": "",
      "assetIds": []
    },
    {
      "x": 60,
      "y": 126,
      "size": 6,
      "price": "29487000000000000000000",
      "reserved": "",
      "assetIds": []
    },
    {
      "x": 60,
      "y": 120,
      "size": 6,
      "price": "29487000000000000000000",
      "reserved": "",
      "assetIds": []
    },
    {
      "x": 54,
      "y": 108,
      "size": 6,
      "price": "29487000000000000000000",
      "reserved": "",
      "assetIds": []
    },
    {
      "x": 48,
      "y": 108,
      "size": 6,
      "price": "29487000000000000000000",
      "reserved": "",
      "assetIds": []
    },
    {
      "x": 48,
      "y": 114,
      "size": 6,
      "price": "29487000000000000000000",
      "reserved": "",
      "assetIds": []
    },
    {
      "x": 54,
      "y": 102,
      "size": 6,
      "price": "29487000000000000000000",
      "reserved": "",
      "assetIds": []
    },
    {
      "x": 42,
      "y": 102,
      "size": 6,
      "price": "29487000000000000000000",
      "reserved": "",
      "assetIds": []
    },
    {
      "x": 42,
      "y": 96,
      "size": 6,
      "price": "29487000000000000000000",
      "reserved": "",
      "assetIds": []
    },
    {
      "x": 42,
      "y": 84,
      "size": 6,
      "price": "29487000000000000000000",
      "reserved": "",
      "assetIds": []
    },
    {
      "x": 42,
      "y": 78,
      "size": 6,
      "price": "29487000000000000000000",
      "reserved": "",
      "assetIds": []
    },
    {
      "x": 72,
      "y": 102,
      "size": 6,
      "price": "29487000000000000000000",
      "reserved": "",
      "assetIds": []
    },
    {
      "x": 72,
      "y": 108,
      "size": 6,
      "price": "29487000000000000000000",
      "reserved": "",
      "assetIds": []
    },
    {
      "x": 72,
      "y": 114,
      "size": 6,
      "price": "29487000000000000000000",
      "reserved": "",
      "assetIds": []
    },
    {
      "x": 84,
      "y": 108,
      "size": 6,
      "price": "29487000000000000000000",
      "reserved": "",
      "assetIds": []
    },
    {
      "x": 90,
      "y": 114,
      "size": 6,
      "price": "29487000000000000000000",
      "reserved": "",
      "assetIds": []
    },
    {
      "x": 96,
      "y": 114,
      "size": 6,
      "price": "29487000000000000000000",
      "reserved": "",
      "assetIds": []
    },
    {
      "x": 102,
      "y": 114,
      "size": 6,
      "price": "29487000000000000000000",
      "reserved": "",
      "assetIds": []
    },
    {
      "x": 96,
      "y": 120,
      "size": 6,
      "price": "29487000000000000000000",
      "reserved": "",
      "assetIds": []
    },
    {
      "x": 102,
      "y": 126,
      "size": 6,
      "price": "29487000000000000000000",
      "reserved": "",
      "assetIds": []
    },
    {
      "x": 108,
      "y": 120,
      "size": 6,
      "price": "29487000000000000000000",
      "reserved": "",
      "assetIds": []
    },
    {
      "x": 114,
      "y": 120,
      "size": 6,
      "price": "29487000000000000000000",
      "reserved": "",
      "assetIds": []
    },
    {
      "x": 120,
      "y": 126,
      "size": 6,
      "price": "29487000000000000000000",
      "reserved": "",
      "assetIds": []
    },
    {
      "x": 120,
      "y": 132,
      "size": 6,
      "price": "29487000000000000000000",
      "reserved": "",
      "assetIds": []
    },
    {
      "x": 126,
      "y": 132,
      "size": 6,
      "price": "29487000000000000000000",
      "reserved": "",
      "assetIds": []
    },
    {
      "x": 144,
      "y": 132,
      "size": 6,
      "price": "29487000000000000000000",
      "reserved": "",
      "assetIds": []
    },
    {
      "x": 156,
      "y": 138,
      "size": 6,
      "price": "29487000000000000000000",
      "reserved": "",
      "assetIds": []
    },
    {
      "x": 162,
      "y": 138,
      "size": 6,
      "price": "29487000000000000000000",
      "reserved": "",
      "assetIds": []
    },
    {
      "x": 156,
      "y": 126,
      "size": 6,
      "price": "29487000000000000000000",
      "reserved": "",
      "assetIds": []
    },
    {
      "x": 162,
      "y": 120,
      "size": 6,
      "price": "29487000000000000000000",
      "reserved": "",
      "assetIds": []
    },
    {
      "x": 168,
      "y": 126,
      "size": 6,
      "price": "29487000000000000000000",
      "reserved": "",
      "assetIds": []
    },
    {
      "x": 180,
      "y": 120,
      "size": 6,
      "price": "29487000000000000000000",
      "reserved": "",
      "assetIds": []
    },
    {
      "x": 180,
      "y": 126,
      "size": 6,
      "price": "29487000000000000000000",
      "reserved": "",
      "assetIds": []
    },
    {
      "x": 186,
      "y": 126,
      "size": 6,
      "price": "29487000000000000000000",
      "reserved": "",
      "assetIds": []
    },
    {
      "x": 156,
      "y": 108,
      "size": 6,
      "price": "29487000000000000000000",
      "reserved": "",
      "assetIds": []
    },
    {
      "x": 156,
      "y": 102,
      "size": 6,
      "price": "29487000000000000000000",
      "reserved": "",
      "assetIds": []
    },
    {
      "x": 168,
      "y": 108,
      "size": 6,
      "price": "29487000000000000000000",
      "reserved": "",
      "assetIds": []
    },
    {
      "x": 174,
      "y": 108,
      "size": 6,
      "price": "29487000000000000000000",
      "reserved": "",
      "assetIds": []
    },
    {
      "x": 180,
      "y": 108,
      "size": 6,
      "price": "29487000000000000000000",
      "reserved": "",
      "assetIds": []
    },
    {
      "x": 186,
      "y": 102,
      "size": 6,
      "price": "29487000000000000000000",
      "reserved": "",
      "assetIds": []
    },
    {
      "x": 192,
      "y": 108,
      "size": 6,
      "price": "29487000000000000000000",
      "reserved": "",
      "assetIds": []
    },
    {
      "x": 186,
      "y": 90,
      "size": 6,
      "price": "29487000000000000000000",
      "reserved": "",
      "assetIds": []
    },
    {
      "x": 186,
      "y": 66,
      "size": 6,
      "price": "29487000000000000000000",
      "reserved": "",
      "assetIds": []
    },
    {
      "x": 174,
      "y": 66,
      "size": 6,
      "price": "29487000000000000000000",
      "reserved": "",
      "assetIds": []
    },
    {
      "x": 168,
      "y": 66,
      "size": 6,
      "price": "29487000000000000000000",
      "reserved": "",
      "assetIds": []
    },
    {
      "x": 168,
      "y": 60,
      "size": 6,
      "price": "29487000000000000000000",
      "reserved": "",
      "assetIds": []
    },
    {
      "x": 174,
      "y": 60,
      "size": 6,
      "price": "29487000000000000000000",
      "reserved": "",
      "assetIds": []
    },
    {
      "x": 162,
      "y": 60,
      "size": 6,
      "price": "29487000000000000000000",
      "reserved": "",
      "assetIds": []
    },
    {
      "x": 156,
      "y": 60,
      "size": 6,
      "price": "29487000000000000000000",
      "reserved": "",
      "assetIds": []
    },
    {
      "x": 156,
      "y": 66,
      "size": 6,
      "price": "29487000000000000000000",
      "reserved": "",
      "assetIds": []
    },
    {
      "x": 156,
      "y": 78,
      "size": 6,
      "price": "29487000000000000000000",
      "reserved": "",
      "assetIds": []
    },
    {
      "x": 144,
      "y": 84,
      "size": 6,
      "price": "29487000000000000000000",
      "reserved": "",
      "assetIds": []
    },
    {
      "x": 150,
      "y": 90,
      "size": 6,
      "price": "29487000000000000000000",
      "reserved": "",
      "assetIds": []
    },
    {
      "x": 132,
      "y": 84,
      "size": 6,
      "price": "29487000000000000000000",
      "reserved": "",
      "assetIds": []
    },
    {
      "x": 132,
      "y": 90,
      "size": 6,
      "price": "29487000000000000000000",
      "reserved": "",
      "assetIds": []
    },
    {
      "x": 114,
      "y": 84,
      "size": 6,
      "price": "29487000000000000000000",
      "reserved": "",
      "assetIds": []
    },
    {
      "x": 108,
      "y": 84,
      "size": 6,
      "price": "29487000000000000000000",
      "reserved": "",
      "assetIds": []
    },
    {
      "x": 108,
      "y": 90,
      "size": 6,
      "price": "29487000000000000000000",
      "reserved": "",
      "assetIds": []
    },
    {
      "x": 96,
      "y": 24,
      "size": 6,
      "price": "29487000000000000000000",
      "reserved": "",
      "assetIds": []
    },
    {
      "x": 84,
      "y": 24,
      "size": 6,
      "price": "29487000000000000000000",
      "reserved": "",
      "assetIds": []
    },
    {
      "x": 102,
      "y": 30,
      "size": 6,
      "price": "29487000000000000000000",
      "reserved": "",
      "assetIds": []
    },
    {
      "x": 120,
      "y": 30,
      "size": 6,
      "price": "29487000000000000000000",
      "reserved": "",
      "assetIds": []
    },
    {
      "x": 126,
      "y": 30,
      "size": 6,
      "price": "29487000000000000000000",
      "reserved": "",
      "assetIds": []
    },
    {
      "x": 132,
      "y": 30,
      "size": 6,
      "price": "29487000000000000000000",
      "reserved": "",
      "assetIds": []
    },
    {
      "x": 126,
      "y": 36,
      "size": 6,
      "price": "29487000000000000000000",
      "reserved": "",
      "assetIds": []
    },
    {
      "x": 150,
      "y": 36,
      "size": 6,
      "price": "29487000000000000000000",
      "reserved": "",
      "assetIds": []
    },
    {
      "x": 150,
      "y": 42,
      "size": 6,
      "price": "29487000000000000000000",
      "reserved": "",
      "assetIds": []
    },
    {
      "x": 156,
      "y": 42,
      "size": 6,
      "price": "29487000000000000000000",
      "reserved": "",
      "assetIds": []
    },
    {
      "x": 156,
      "y": 48,
      "size": 6,
      "price": "29487000000000000000000",
      "reserved": "",
      "assetIds": []
    },
    {
      "x": 162,
      "y": 48,
      "size": 6,
      "price": "29487000000000000000000",
      "reserved": "",
      "assetIds": []
    },
    {
      "x": 150,
      "y": 54,
      "size": 6,
      "price": "29487000000000000000000",
      "reserved": "",
      "assetIds": []
    },
    {
      "x": 108,
      "y": 42,
      "size": 6,
      "price": "29487000000000000000000",
      "reserved": "",
      "assetIds": []
    },
    {
      "x": 102,
      "y": 42,
      "size": 6,
      "price": "29487000000000000000000",
      "reserved": "",
      "assetIds": []
    },
    {
      "x": 96,
      "y": 42,
      "size": 6,
      "price": "29487000000000000000000",
      "reserved": "",
      "assetIds": []
    },
    {
      "x": 96,
      "y": 48,
      "size": 6,
      "price": "29487000000000000000000",
      "reserved": "",
      "assetIds": []
    },
    {
      "x": 102,
      "y": 48,
      "size": 6,
      "price": "29487000000000000000000",
      "reserved": "",
      "assetIds": []
    },
    {
      "x": 84,
      "y": 42,
      "size": 6,
      "price": "29487000000000000000000",
      "reserved": "",
      "assetIds": []
    },
    {
      "x": 78,
      "y": 42,
      "size": 6,
      "price": "29487000000000000000000",
      "reserved": "",
      "assetIds": []
    },
    {
      "x": 72,
      "y": 42,
      "size": 6,
      "price": "29487000000000000000000",
      "reserved": "",
      "assetIds": []
    },
    {
      "x": 78,
      "y": 36,
      "size": 6,
      "price": "29487000000000000000000",
      "reserved": "",
      "assetIds": []
    },
    {
      "x": 84,
      "y": 36,
      "size": 6,
      "price": "29487000000000000000000",
      "reserved": "",
      "assetIds": []
    },
    {
      "x": 84,
      "y": 30,
      "size": 6,
      "price": "29487000000000000000000",
      "reserved": "",
      "assetIds": []
    },
    {
      "x": 66,
      "y": 54,
      "size": 6,
      "price": "29487000000000000000000",
      "reserved": "",
      "assetIds": []
    },
    {
      "x": 60,
      "y": 60,
      "size": 6,
      "price": "29487000000000000000000",
      "reserved": "",
      "assetIds": []
    },
    {
      "x": 78,
      "y": 72,
      "size": 6,
      "price": "29487000000000000000000",
      "reserved": "",
      "assetIds": []
    },
    {
      "x": 90,
      "y": 72,
      "size": 6,
      "price": "29487000000000000000000",
      "reserved": "",
      "assetIds": []
    },
    {
      "x": 96,
      "y": 66,
      "size": 6,
      "price": "29487000000000000000000",
      "reserved": "",
      "assetIds": []
    },
    {
      "x": 96,
      "y": 60,
      "size": 6,
      "price": "29487000000000000000000",
      "reserved": "",
      "assetIds": []
    },
    {
      "x": 102,
      "y": 66,
      "size": 6,
      "price": "29487000000000000000000",
      "reserved": "",
      "assetIds": []
    },
    {
      "x": 108,
      "y": 54,
      "size": 6,
      "price": "29487000000000000000000",
      "reserved": "",
      "assetIds": []
    },
    {
      "x": 102,
      "y": 84,
      "size": 6,
      "price": "29487000000000000000000",
      "reserved": "",
      "assetIds": []
    },
    {
      "x": 96,
      "y": 84,
      "size": 6,
      "price": "29487000000000000000000",
      "reserved": "",
      "assetIds": []
    },
    {
      "x": 78,
      "y": 90,
      "size": 6,
      "price": "29487000000000000000000",
      "reserved": "",
      "assetIds": []
    },
    {
      "x": 96,
      "y": 96,
      "size": 6,
      "price": "29487000000000000000000",
      "reserved": "",
      "assetIds": []
    },
    {
      "x": 102,
      "y": 96,
      "size": 6,
      "price": "29487000000000000000000",
      "reserved": "",
      "assetIds": []
    },
    {
      "x": 96,
      "y": 102,
      "size": 6,
      "price": "29487000000000000000000",
      "reserved": "",
      "assetIds": []
    },
    {
      "x": 108,
      "y": 108,
      "size": 6,
      "price": "29487000000000000000000",
      "reserved": "",
      "assetIds": []
    },
    {
      "x": 114,
      "y": 102,
      "size": 6,
      "price": "29487000000000000000000",
      "reserved": "",
      "assetIds": []
    },
    {
      "x": 114,
      "y": 96,
      "size": 6,
      "price": "29487000000000000000000",
      "reserved": "",
      "assetIds": []
    },
    {
      "x": 36,
      "y": 132,
      "size": 6,
      "price": "29487000000000000000000",
      "reserved": "",
      "assetIds": []
    },
    {
      "x": 108,
      "y": 78,
      "size": 6,
      "price": "29487000000000000000000",
      "reserved": "",
      "assetIds": []
    },
    {
      "x": 102,
      "y": 102,
      "size": 6,
      "price": "29487000000000000000000",
      "reserved": "0x547f5b802486e881d4805aa9605e3d67e52a8904",
      "assetIds": []
    },
    {
      "x": 96,
      "y": 126,
      "size": 6,
      "price": "29487000000000000000000",
      "reserved": "",
      "assetIds": []
    },
    {
      "x": 66,
      "y": 102,
      "size": 6,
      "price": "29487000000000000000000",
      "reserved": "0xa93ee2d5ac5b802b9a8dbbc4db2cb3a772e89c7c",
      "assetIds": []
    },
    {
      "x": 60,
      "y": 102,
      "size": 6,
      "price": "29487000000000000000000",
      "reserved": "",
      "assetIds": []
    },
    {
      "x": 66,
      "y": 96,
      "size": 6,
      "price": "29487000000000000000000",
      "reserved": "",
      "assetIds": []
    },
    {
      "x": 36,
      "y": 66,
      "size": 6,
      "price": "29487000000000000000000",
      "reserved": "",
      "assetIds": []
    },
    {
      "x": 150,
      "y": 114,
      "size": 6,
      "price": "29487000000000000000000",
      "reserved": "0x399d07303275719fb83acb468249a9a26ae2f674",
      "assetIds": []
    },
    {
      "x": 48,
      "y": 168,
      "size": 12,
      "price": "111381000000000000000000",
      "reserved": "0x7a9fe22691c811ea339d9b73150e6911a5343dca",
      "assetIds": []
    },
    {
      "x": 72,
      "y": 132,
      "size": 12,
      "price": "111381000000000000000000",
      "reserved": "0x46688be2355ae18c7271f98dcb797f3e8db607e8",
      "assetIds": []
    },
    {
      "x": 108,
      "y": 132,
      "size": 12,
      "price": "111381000000000000000000",
      "reserved": "0xa7dc3916079f53d9902d2538ae5b817a78fc0111",
      "assetIds": []
    },
    {
      "x": 36,
      "y": 108,
      "size": 12,
      "price": "111381000000000000000000",
      "reserved": "0x7a9fe22691c811ea339d9b73150e6911a5343dca",
      "assetIds": []
    },
    {
      "x": 84,
      "y": 84,
      "size": 12,
      "price": "111381000000000000000000",
      "reserved": "0x7a9fe22691c811ea339d9b73150e6911a5343dca",
      "assetIds": []
    },
    {
      "x": 168,
      "y": 84,
      "size": 12,
      "price": "111381000000000000000000",
      "reserved": "0x7a9fe22691c811ea339d9b73150e6911a5343dca",
      "assetIds": []
    },
    {
      "x": 144,
      "y": 12,
      "size": 12,
      "price": "111381000000000000000000",
      "reserved": "0xf1692bcb84f44ef9686c43998fe3a4de161a411f",
      "assetIds": []
    },
    {
      "x": 24,
      "y": 72,
      "size": 12,
      "price": "111381000000000000000000",
      "reserved": "0x7a9fe22691c811ea339d9b73150e6911a5343dca",
      "assetIds": []
    },
    {
      "x": 84,
      "y": 168,
      "size": 12,
      "price": "111381000000000000000000",
      "reserved": "0x7a9fe22691c811ea339d9b73150e6911a5343dca",
      "assetIds": []
    },
    {
      "x": 132,
      "y": 108,
      "size": 12,
      "price": "111381000000000000000000",
      "reserved": "0x77d41a1589f800cd487c2938fd78082df89c4f00",
      "assetIds": []
    },
    {
      "x": 60,
      "y": 108,
      "size": 12,
      "price": "111381000000000000000000",
      "reserved": "",
      "assetIds": []
    },
    {
      "x": 24,
      "y": 132,
      "size": 12,
      "price": "111381000000000000000000",
      "reserved": "",
      "assetIds": []
    },
    {
      "x": 84,
      "y": 96,
      "size": 12,
      "price": "111381000000000000000000",
      "reserved": "",
      "assetIds": []
    },
    {
      "x": 120,
      "y": 84,
      "size": 12,
      "price": "111381000000000000000000",
      "reserved": "",
      "assetIds": []
    },
    {
      "x": 168,
      "y": 48,
      "size": 12,
      "price": "111381000000000000000000",
      "reserved": "",
      "assetIds": []
    },
    {
      "x": 108,
      "y": 24,
      "size": 12,
      "price": "111381000000000000000000",
      "reserved": "",
      "assetIds": []
    },
    {
      "x": 48,
      "y": 72,
      "size": 24,
      "price": "419302000000000000000000",
      "reserved": "",
      "assetIds": []
    },
    {
      "x": 72,
      "y": 48,
      "size": 24,
      "price": "419302000000000000000000",
      "reserved": "",
      "assetIds": []
    },
    {
      "x": 120,
      "y": 48,
      "size": 24,
      "price": "419302000000000000000000",
      "reserved": "0x7a9fe22691c811ea339d9b73150e6911a5343dca",
      "assetIds": []
    }
  ],
  "solcInputHash": "0x971e1c8bd7b40bcfe853c183338c6a4a2c847f46d24a71b53084ed923fedb4bd",
  "bytecode": "0x610160604052620d2f006005556103e860075534801561001e57600080fd5b506040516124a73803806124a7833981810160405261018081101561004257600080fd5b50805160208201516040830151606080850151608086015160a08088015160c0808a015160e08b01516101008c01516101208d01516101408e0151610160909e0151600280546001600160a01b0319166001600160a01b03861617905560038390558d8b1b6001600160601b0319908116909852998c901b909616909352999a9899979895979496929590949391926100dc8a600161014a565b600680546001600160a01b03199081166001600160a01b039a8b1617909155610140979097526101209590955260008054909616979096169690961790935550606093841b6001600160601b031990811660e05292841b831660805290921b1661010052506101ae92505050565b6001600160a01b038216600081815260016020908152604091829020805460ff191685151590811790915582519384529083015280517fb21eb88b4e33b3f1281830a7178d74d8aa73220416215726b68ae23d539515cb9281900390910190a15050565b60805160601c60a05160601c60c05160601c60e05160601c6101005160601c610120516101405161226f610238600039806109375280611db85250806109135280610dfa528061140e525080611e185250806116465280611768525080610c5052806116105280611e4c5250806116d55280611739525080610e6e528061197c525061226f6000f3fe608060405234801561001057600080fd5b50600436106101515760003560e01c8063984d6252116100cd578063dc5074af11610081578063ecb255b511610066578063ecb255b514610857578063f23a6e6114610874578063f2e7b3811461090957610151565b8063dc5074af14610814578063e56f8a9e1461083a57610151565b8063bc197c81116100b2578063bc197c81146105d3578063c10a420814610735578063caed35001461080c57610151565b8063984d6252146104db578063b522ecff146105ad57610151565b80636e9960c3116101245780638a04af6a116101095780638a04af6a1461032a5780638a12b82f146103585780638f283970146104b557610151565b80636e9960c3146102fe57806377f1c3ac1461032257610151565b806325cb5bc014610156578063495906571461017057806358bc29441461017857806365194ce7146101a0575b600080fd5b61015e610911565b60408051918252519081900360200190f35b61015e610935565b61019e6004803603602081101561018e57600080fd5b50356001600160a01b0316610959565b005b610246600480360360208110156101b657600080fd5b8101906020810181356401000000008111156101d157600080fd5b8201836020820111156101e357600080fd5b8035906020019184600183028401116401000000008311171561020557600080fd5b91908080601f016020809104026020016040519081016040528093929190818152602001838380828437600092019190915250929550610a04945050505050565b6040518080602001866001600160a01b03166001600160a01b03168152602001856001600160a01b03166001600160a01b03168152602001848152602001838152602001828103825287818151815260200191508051906020019080838360005b838110156102bf5781810151838201526020016102a7565b50505050905090810190601f1680156102ec5780820380516001836020036101000a031916815260200191505b50965050505050505060405180910390f35b610306610b09565b604080516001600160a01b039092168252519081900360200190f35b61015e610b18565b61019e6004803603604081101561034057600080fd5b506001600160a01b0381351690602001351515610b1e565b61019e600480360361018081101561036f57600080fd5b6001600160a01b038235811692602081013582169260408201359092169160608201359160808101359160a08201359160c08101359160e0820135916101008101359181019061014081016101208201356401000000008111156103d257600080fd5b8201836020820111156103e457600080fd5b8035906020019184602083028401116401000000008311171561040657600080fd5b91939092909160208101903564010000000081111561042457600080fd5b82018360208201111561043657600080fd5b8035906020019184602083028401116401000000008311171561045857600080fd5b91939092909160208101903564010000000081111561047657600080fd5b82018360208201111561048857600080fd5b803590602001918460018302840111640100000000831117156104aa57600080fd5b509092509050610b75565b61019e600480360360208110156104cb57600080fd5b50356001600160a01b0316610cc3565b61019e600480360360608110156104f157600080fd5b6001600160a01b03823516919081019060408101602082013564010000000081111561051c57600080fd5b82018360208201111561052e57600080fd5b8035906020019184602083028401116401000000008311171561055057600080fd5b91939092909160208101903564010000000081111561056e57600080fd5b82018360208201111561058057600080fd5b803590602001918460208302840111640100000000831117156105a257600080fd5b509092509050610d99565b61019e600480360360208110156105c357600080fd5b50356001600160a01b0316610f98565b610700600480360360a08110156105e957600080fd5b6001600160a01b03823581169260208101359091169181019060608101604082013564010000000081111561061d57600080fd5b82018360208201111561062f57600080fd5b8035906020019184602083028401116401000000008311171561065157600080fd5b91939092909160208101903564010000000081111561066f57600080fd5b82018360208201111561068157600080fd5b803590602001918460208302840111640100000000831117156106a357600080fd5b9193909290916020810190356401000000008111156106c157600080fd5b8201836020820111156106d357600080fd5b803590602001918460018302840111640100000000831117156106f557600080fd5b509092509050611081565b604080517fffffffff000000000000000000000000000000000000000000000000000000009092168252519081900360200190f35b6107f8600480360360a081101561074b57600080fd5b81019060208101813564010000000081111561076657600080fd5b82018360208201111561077857600080fd5b8035906020019184600183028401116401000000008311171561079a57600080fd5b91908080601f016020809104026020016040519081016040528093929190818152602001838380828437600092019190915250929550506001600160a01b0383358116945060208401351692604081013592506060013590506110ae565b604080519115158252519081900360200190f35b6103066111ea565b6107f86004803603602081101561082a57600080fd5b50356001600160a01b03166111f9565b61019e6004803603602081101561085057600080fd5b5035611217565b61019e6004803603602081101561086d57600080fd5b503561127b565b610700600480360360a081101561088a57600080fd5b6001600160a01b03823581169260208101359091169160408201359160608101359181019060a0810160808201356401000000008111156108ca57600080fd5b8201836020820111156108dc57600080fd5b803590602001918460018302840111640100000000831117156108fe57600080fd5b5090925090506112df565b61015e61130a565b7f000000000000000000000000000000000000000000000000000000000000000090565b7f000000000000000000000000000000000000000000000000000000000000000090565b6000546001600160a01b031633146109b8576040805162461bcd60e51b815260206004820152601060248201527f53656e646572206e6f742061646d696e00000000000000000000000000000000604482015290519081900360640190fd5b600554600280546001600160a01b03908116600090815260046020526040902042909301909255805473ffffffffffffffffffffffffffffffffffffffff191692909116919091179055565b606060008060008060606000806000808a80602001905160a0811015610a2957600080fd5b8101908080516040519392919084640100000000821115610a4957600080fd5b908301906020820185811115610a5e57600080fd5b8251640100000000811182820188101715610a7857600080fd5b82525081516020918201929091019080838360005b83811015610aa5578181015183820152602001610a8d565b50505050905090810190601f168015610ad25780820380516001836020036101000a031916815260200191505b5060409081526020820151908201516060830151608090930151959f50909d509b5099509197505050505050505091939590929450565b6000546001600160a01b031690565b60035490565b6000546001600160a01b03163314610b675760405162461bcd60e51b815260040180806020018281038252602e81526020018061220c602e913960400191505060405180910390fd5b610b718282611310565b5050565b610b7f8989611392565b610c048f8e8e8e8e8e8d8d8d80806020026020016040519081016040528093929190818152602001838360200280828437600081840152601f19601f820116905080830192505050505050508c8c8080602002602001604051908101604052809392919081815260200183836020028082843760009201919091525061140c92505050565b610c458f8984848080601f0160208091040260200160405190810160405280939291908181526020018383808284376000920191909152506115e992505050565b610c758f8f8e8e8e8d7f00000000000000000000000000000000000000000000000000000000000000008f61163a565b610cb28e87878080602002602001604051908101604052809392919081815260200183836020028082843760009201919091525061190592505050565b505050505050505050505050505050565b6000546001600160a01b03163314610d22576040805162461bcd60e51b815260206004820152601b60248201527f6f6e6c792061646d696e2063616e206368616e67652061646d696e0000000000604482015290519081900360640190fd5b600054604080516001600160a01b039283168152918316602083015280517f7e644d79422f17c01e4894b5f4f588d331ebfa28653d42ae832dc59e38c9798f9281900390910190a16000805473ffffffffffffffffffffffffffffffffffffffff19166001600160a01b0392909216919091179055565b6000546001600160a01b03163314610df8576040805162461bcd60e51b815260206004820152600e60248201527f4e4f545f415554484f52495a4544000000000000000000000000000000000000604482015290519081900360640190fd5b7f00000000000000000000000000000000000000000000000000000000000000004211610e6c576040805162461bcd60e51b815260206004820152600d60248201527f53414c455f4e4f545f4f56455200000000000000000000000000000000000000604482015290519081900360640190fd5b7f00000000000000000000000000000000000000000000000000000000000000006001600160a01b0316632eb2c2d63087878787876040518763ffffffff1660e01b815260040180876001600160a01b03166001600160a01b03168152602001866001600160a01b03166001600160a01b031681526020018060200180602001806020018481038452888882818152602001925060200280828437600083820152601f01601f19169091018581038452868152602090810191508790870280828437600081840152601f19601f8201169050808301925050508481038252600081526020016020019950505050505050505050600060405180830381600087803b158015610f7957600080fd5b505af1158015610f8d573d6000803e3d6000fd5b505050505050505050565b6001600160a01b038116610ff3576040805162461bcd60e51b815260206004820152600c60248201527f5a45524f5f414444524553530000000000000000000000000000000000000000604482015290519081900360640190fd5b6000546001600160a01b03163314611052576040805162461bcd60e51b815260206004820152600e60248201527f4e4f545f415554484f52495a4544000000000000000000000000000000000000604482015290519081900360640190fd5b6006805473ffffffffffffffffffffffffffffffffffffffff19166001600160a01b0392909216919091179055565b7fbc197c810000000000000000000000000000000000000000000000000000000098975050505050505050565b60006003548211806110d15750836001600160a01b0316856001600160a01b0316145b806110db57508242115b156110e8575060006111e1565b60408051606087811b7fffffffffffffffffffffffffffffffffffffffff0000000000000000000000009081166020808501919091529188901b166034830152604882018690526068808301869052835180840390910181526088830184528051908201207f19457468657265756d205369676e6564204d6573736167653a0a33320000000060a884015260c48084018290528451808503909101815260e4909301909352815191012060009061119f9089611ac9565b6001600160a01b03811660009081526004602052604090205490915042116111cc576001925050506111e1565b6002546001600160a01b039081169116149150505b95945050505050565b6002546001600160a01b031690565b6001600160a01b031660009081526001602052604090205460ff1690565b6000546001600160a01b03163314611276576040805162461bcd60e51b815260206004820152601060248201527f53656e646572206e6f742061646d696e00000000000000000000000000000000604482015290519081900360640190fd5b600355565b6000546001600160a01b031633146112da576040805162461bcd60e51b815260206004820152600e60248201527f4e4f545f415554484f52495a4544000000000000000000000000000000000000604482015290519081900360640190fd5b600755565b7ff23a6e61000000000000000000000000000000000000000000000000000000009695505050505050565b60075490565b6001600160a01b03821660008181526001602090815260409182902080547fffffffffffffffffffffffffffffffffffffffffffffffffffffffffffffff001685151590811790915582519384529083015280517fb21eb88b4e33b3f1281830a7178d74d8aa73220416215726b68ae23d539515cb9281900390910190a15050565b6113b96103e86113ad60075485611b9690919063ffffffff16565b9063ffffffff611c0c16565b8114610b71576040805162461bcd60e51b815260206004820152600d60248201527f494e56414c49445f505249434500000000000000000000000000000000000000604482015290519081900360640190fd5b7f00000000000000000000000000000000000000000000000000000000000000004210611480576040805162461bcd60e51b815260206004820152600c60248201527f53414c455f49535f4f5645520000000000000000000000000000000000000000604482015290519081900360640190fd5b6001600160a01b0389163314806114a657503360009081526001602052604090205460ff165b6114f7576040805162461bcd60e51b815260206004820152600e60248201527f4e4f545f415554484f52495a4544000000000000000000000000000000000000604482015290519081900360640190fd5b6001600160a01b038816158061151e5750886001600160a01b0316886001600160a01b0316145b61156f576040805162461bcd60e51b815260206004820152600d60248201527f52455345525645445f4c414e4400000000000000000000000000000000000000604482015290519081900360640190fd5b6000611580888888888d8989611c71565b905061158c8282611d16565b6115dd576040805162461bcd60e51b815260206004820152600c60248201527f494e56414c49445f4c414e440000000000000000000000000000000000000000604482015290519081900360640190fd5b50505050505050505050565b60006115f58484611ddf565b600654909150611634908590839085906001600160a01b03167f0000000000000000000000000000000000000000000000000000000000000000611f2c565b50505050565b836001148061167057507f00000000000000000000000000000000000000000000000000000000000000006001600160a01b0316155b1561173757604080517f6e1e3bbf0000000000000000000000000000000000000000000000000000000081526001600160a01b03898116600483015260248201879052604482018990526064820188905260a06084830152600060a4830181905292517f000000000000000000000000000000000000000000000000000000000000000090911692636e1e3bbf9260e4808201939182900301818387803b15801561171a57600080fd5b505af115801561172e573d6000803e3d6000fd5b5050505061189b565b7f00000000000000000000000000000000000000000000000000000000000000006001600160a01b0316636e1e3bbf7f00000000000000000000000000000000000000000000000000000000000000008689898c60405160200180826001600160a01b03166001600160a01b031681526020019150506040516020818303038152906040526040518663ffffffff1660e01b815260040180866001600160a01b03166001600160a01b0316815260200185815260200184815260200183815260200180602001828103825283818151815260200191508051906020019080838360005b8381101561183257818101518382015260200161181a565b50505050905090810190601f16801561185f5780820380516001836020036101000a031916815260200191505b509650505050505050600060405180830381600087803b15801561188257600080fd5b505af1158015611896573d6000803e3d6000fd5b505050505b60408051858152602081018590526001600160a01b03848116828401526060820184905291516101988802890192808b1692908c16917fe4dfa6ac11314892f3029b34a25b1a887da3b1cab2bbf8506d87128ba6e3ac029181900360800190a45050505050505050565b6060815167ffffffffffffffff8111801561191f57600080fd5b50604051908082528060200260200182016040528015611949578160200160208202803683370190505b50905060005b825181101561197957600182828151811061196657fe5b602090810291909101015260010161194f565b507f00000000000000000000000000000000000000000000000000000000000000006001600160a01b0316632eb2c2d6308585856040518563ffffffff1660e01b815260040180856001600160a01b03166001600160a01b03168152602001846001600160a01b03166001600160a01b03168152602001806020018060200180602001848103845286818151815260200191508051906020019060200280838360005b83811015611a34578181015183820152602001611a1c565b50505050905001848103835285818151815260200191508051906020019060200280838360005b83811015611a73578181015183820152602001611a5b565b50505050905001848103825260008152602001602001975050505050505050600060405180830381600087803b158015611aac57600080fd5b505af1158015611ac0573d6000803e3d6000fd5b50505050505050565b60008151604114611ad957600080fd5b60208201516040830151606084015160001a601b811015611af857601b015b8060ff16601b1480611b0d57508060ff16601c145b611b1657600080fd5b6040805160008152602080820180845289905260ff8416828401526060820186905260808201859052915160019260a0808401939192601f1981019281900390910190855afa158015611b6d573d6000803e3d6000fd5b5050604051601f1901519450506001600160a01b038416611b8d57600080fd5b50505092915050565b600082611ba557506000611c06565b5081810281838281611bb357fe5b0414611c06576040805162461bcd60e51b815260206004820152600860248201527f6f766572666c6f77000000000000000000000000000000000000000000000000604482015290519081900360640190fd5b92915050565b600081611c60576040805162461bcd60e51b815260206004820152600960248201527f64697662797a65726f0000000000000000000000000000000000000000000000604482015290519081900360640190fd5b818381611c6957fe5b049392505050565b60008787878787878760405160200180888152602001878152602001868152602001858152602001846001600160a01b03166001600160a01b031660601b8152601401838152602001828051906020019060200280838360005b83811015611ce3578181015183820152602001611ccb565b50505050905001975050505050505050604051602081830303815290604052805190602001209050979650505050505050565b600081815b8451811015611db5576000858281518110611d3257fe5b6020026020010151905080831015611d7a5782816040516020018083815260200182815260200192505050604051602081830303815290604052805190602001209250611dac565b808360405160200180838152602001828152602001925050506040516020818303038152906040528051906020012092505b50600101611d1b565b507f0000000000000000000000000000000000000000000000000000000000000000149392505050565b600080611df860646113ad85600563ffffffff611b9616565b604080516323b872dd60e01b81526001600160a01b0387811660048301527f0000000000000000000000000000000000000000000000000000000000000000811660248301526044820184905291519293507f0000000000000000000000000000000000000000000000000000000000000000909116916323b872dd916064808201926020929091908290030181600087803b158015611e9757600080fd5b505af1158015611eab573d6000803e3d6000fd5b505050506040513d6020811015611ec157600080fd5b5051611f14576040805162461bcd60e51b815260206004820152601360248201527f4645455f5452414e534645525f4641494c454400000000000000000000000000604482015290519081900360640190fd5b611f24838263ffffffff6121ae16565b949350505050565b825181908590156120d6576060600080600080611f488a610a04565b9398509196509450925090506000611f6386868686866110ae565b15611ff157611f7d611f758d84611b96565b612710611c0c565b9050886001600160a01b0316846001600160a01b0316866001600160a01b03167fac7a699eb95c3c6d390ec4626de17ef9a67b35891efdb197beba7c7fdd45fac48f858760405180848152602001838152602001828152602001935050505060405180910390a4611fee87826121ae565b96505b80156120cf57604080516323b872dd60e01b81526001600160a01b038f811660048301528781166024830152604482018490529151918a16916323b872dd916064808201926020929091908290030181600087803b15801561205257600080fd5b505af1158015612066573d6000803e3d6000fd5b505050506040513d602081101561207c57600080fd5b50516120cf576040805162461bcd60e51b815260206004820152601960248201527f636f6d6d6973696f6e207472616e73666572206661696c656400000000000000604482015290519081900360640190fd5b5050505050505b604080516323b872dd60e01b81526001600160a01b0389811660048301528681166024830152604482018490529151918416916323b872dd916064808201926020929091908290030181600087803b15801561213157600080fd5b505af1158015612145573d6000803e3d6000fd5b505050506040513d602081101561215b57600080fd5b5051611ac0576040805162461bcd60e51b815260206004820152601760248201527f7061796d656e74207472616e73666572206661696c6564000000000000000000604482015290519081900360640190fd5b600082821115612205576040805162461bcd60e51b815260206004820152600860248201527f756e6465666c6f77000000000000000000000000000000000000000000000000604482015290519081900360640190fd5b5090039056fe6f6e6c792061646d696e2063616e207365747570206d6574615472616e73616374696f6e50726f636573736f7273a264697066735822122023cf4e23d6ab70b70eaa16528f6c0f399a00393465117a0cb5b8b3017d96cb4464736f6c63430006050033",
  "devdoc": {
    "methods": {
      "buyLandWithSand(address,address,address,uint256,uint256,uint256,uint256,uint256,bytes32,uint256[],bytes32[],bytes)": {
        "params": {
          "buyer": "address that perform the payment",
          "priceInSand": "price in SAND to purchase that Land",
          "proof": "merkleProof for that particular Land",
          "reserved": "the reserved address (if any)",
          "size": "size of the pack of Land to purchase",
          "to": "address that will own the purchased Land",
          "x": "x coordinate of the Land",
          "y": "y coordinate of the Land"
        }
      },
      "changeAdmin(address)": {
        "details": "change the administrator to be `newAdmin`.",
        "params": {
          "newAdmin": "address of the new administrator."
        }
      },
      "getAdmin()": {
        "details": "gives the current administrator of this contract.",
        "returns": {
          "_0": "the current administrator of this contract."
        }
      },
      "getSigningWallet()": {
        "details": "signing wallet authorized for referral",
        "returns": {
          "_0": "the address of the signing wallet"
        }
      },
      "isMetaTransactionProcessor(address)": {
        "details": "check whether address `who` is given meta-transaction execution rights.",
        "params": {
          "who": "The address to query."
        },
        "returns": {
          "_0": "whether the address has meta-transaction execution rights."
        }
      },
      "isReferralValid(bytes,address,address,uint256,uint256)": {
        "params": {
          "commissionRate": "The commissionRate of the referral",
          "expiryTime": "The expiry time of the referral",
          "referee": "The address of the referee",
          "referrer": "The address of the referrer",
          "signature": "The signature to check (signed referral)"
        },
        "returns": {
          "_0": "True if the referral is valid"
        }
      },
      "setMetaTransactionProcessor(address,bool)": {
        "details": "Enable or disable the ability of `metaTransactionProcessor` to perform meta-tx (metaTransactionProcessor rights).",
        "params": {
          "enabled": "set whether the metaTransactionProcessor is enabled or disabled.",
          "metaTransactionProcessor": "address that will be given/removed metaTransactionProcessor rights."
        }
      },
      "setReceivingWallet(address)": {
        "params": {
          "newWallet": "address of the new receiving wallet"
        }
      },
      "updateMaxCommissionRate(uint256)": {
        "details": "Update the maximum commission rate",
        "params": {
          "newMaxCommissionRate": "The new maximum commission rate"
        }
      },
      "updateSigningWallet(address)": {
        "details": "Update the signing wallet",
        "params": {
          "newSigningWallet": "The new address of the signing wallet"
        }
      },
      "withdrawAssets(address,uint256[],uint256[])": {
        "params": {
          "assetIds": "the assetIds to be transferred",
          "to": "intended recipient of the asset tokens",
          "values": "the quantities of the assetIds to be transferred"
        }
      }
    },
    "title": "Estate Sale contract with referral"
  },
  "userdoc": {
    "methods": {
      "buyLandWithSand(address,address,address,uint256,uint256,uint256,uint256,uint256,bytes32,uint256[],bytes32[],bytes)": {
        "notice": "buy Land with SAND using the merkle proof associated with it"
      },
      "getExpiryTime()": {
        "notice": "Gets the expiry time for the current sale"
      },
      "getMaxCommisionRate()": {
        "notice": "the max commision rate"
      },
      "getMerkleRoot()": {
        "notice": "Gets the Merkle root associated with the current sale"
      },
      "isReferralValid(bytes,address,address,uint256,uint256)": {
        "notice": "Check if a referral is valid"
      },
      "setReceivingWallet(address)": {
        "notice": "set the wallet receiving the proceeds"
      },
      "withdrawAssets(address,uint256[],uint256[])": {
        "notice": "enable Admin to withdraw remaining assets from EstateSaleWithFee contract"
      }
    },
    "notice": "This contract manages the sale of our lands as Estates"
  },
  "storageLayout": {
    "storage": [
      {
        "astId": 15083,
        "contract": "src/EstateSale/EstateSaleWithFee.sol:EstateSaleWithFee",
        "label": "_admin",
        "offset": 0,
        "slot": "0",
        "type": "t_address"
      },
      {
        "astId": 15145,
        "contract": "src/EstateSale/EstateSaleWithFee.sol:EstateSaleWithFee",
        "label": "_metaTransactionContracts",
        "offset": 0,
        "slot": "1",
        "type": "t_mapping(t_address,t_bool)"
      },
      {
        "astId": 12935,
        "contract": "src/EstateSale/EstateSaleWithFee.sol:EstateSaleWithFee",
        "label": "_signingWallet",
        "offset": 0,
        "slot": "2",
        "type": "t_address"
      },
      {
        "astId": 12937,
        "contract": "src/EstateSale/EstateSaleWithFee.sol:EstateSaleWithFee",
        "label": "_maxCommissionRate",
        "offset": 0,
        "slot": "3",
        "type": "t_uint256"
      },
      {
        "astId": 12941,
        "contract": "src/EstateSale/EstateSaleWithFee.sol:EstateSaleWithFee",
        "label": "_previousSigningWallets",
        "offset": 0,
        "slot": "4",
        "type": "t_mapping(t_address,t_uint256)"
      },
      {
        "astId": 12950,
        "contract": "src/EstateSale/EstateSaleWithFee.sol:EstateSaleWithFee",
        "label": "_previousSigningDelay",
        "offset": 0,
        "slot": "5",
        "type": "t_uint256"
      },
      {
        "astId": 9940,
        "contract": "src/EstateSale/EstateSaleWithFee.sol:EstateSaleWithFee",
        "label": "_wallet",
        "offset": 0,
        "slot": "6",
        "type": "t_address_payable"
      },
      {
        "astId": 9950,
        "contract": "src/EstateSale/EstateSaleWithFee.sol:EstateSaleWithFee",
        "label": "_multiplier",
        "offset": 0,
        "slot": "7",
        "type": "t_uint256"
      }
    ],
    "types": {
      "t_address": {
        "encoding": "inplace",
        "label": "address",
        "numberOfBytes": "20"
      },
      "t_address_payable": {
        "encoding": "inplace",
        "label": "address payable",
        "numberOfBytes": "20"
      },
      "t_bool": {
        "encoding": "inplace",
        "label": "bool",
        "numberOfBytes": "1"
      },
      "t_mapping(t_address,t_bool)": {
        "encoding": "mapping",
        "key": "t_address",
        "label": "mapping(address => bool)",
        "numberOfBytes": "32",
        "value": "t_bool"
      },
      "t_mapping(t_address,t_uint256)": {
        "encoding": "mapping",
        "key": "t_address",
        "label": "mapping(address => uint256)",
        "numberOfBytes": "32",
        "value": "t_uint256"
      },
      "t_uint256": {
        "encoding": "inplace",
        "label": "uint256",
        "numberOfBytes": "32"
      }
    }
  },
  "gasEstimates": {
    "creation": {
      "codeDepositCost": "1763000",
      "executionCost": "infinite",
      "totalCost": "infinite"
    },
    "external": {
      "buyLandWithSand(address,address,address,uint256,uint256,uint256,uint256,uint256,bytes32,uint256[],bytes32[],bytes)": "infinite",
      "changeAdmin(address)": "24157",
      "decodeReferral(bytes)": "infinite",
      "getAdmin()": "1083",
      "getExpiryTime()": "infinite",
      "getMaxCommisionRate()": "1066",
      "getMerkleRoot()": "infinite",
      "getSandMultiplier()": "1086",
      "getSigningWallet()": "1126",
      "isMetaTransactionProcessor(address)": "1199",
      "isReferralValid(bytes,address,address,uint256,uint256)": "infinite",
      "onERC1155BatchReceived(address,address,uint256[],uint256[],bytes)": "875",
      "onERC1155Received(address,address,uint256,uint256,bytes)": "588",
      "rebalanceSand(uint256)": "21073",
      "setMetaTransactionProcessor(address,bool)": "infinite",
      "setReceivingWallet(address)": "22004",
      "updateMaxCommissionRate(uint256)": "21096",
      "updateSigningWallet(address)": "43670",
      "withdrawAssets(address,uint256[],uint256[])": "infinite"
    },
    "internal": {
      "_checkPrices(uint256,uint256)": "infinite",
      "_checkValidity(address,address,uint256,uint256,uint256,uint256,bytes32,uint256[] memory,bytes32[] memory)": "infinite",
      "_generateLandHash(uint256,uint256,uint256,uint256,address,bytes32,uint256[] memory)": "infinite",
      "_handleFeeAndReferral(address,uint256,bytes memory)": "infinite",
      "_handleSandFee(address,uint256)": "infinite",
      "_mint(address,address,uint256,uint256,uint256,uint256,address,uint256)": "infinite",
      "_sendAssets(address,uint256[] memory)": "infinite",
      "_verify(bytes32[] memory,bytes32)": "infinite"
    }
  }
}