{
  "address": "0x79d8964087ef6C2d935331c493Ace87a933Ccda4",
  "abi": [
    {
      "inputs": [
        {
          "internalType": "address",
          "name": "landAddress",
          "type": "address"
        },
        {
          "internalType": "address",
          "name": "sandContractAddress",
          "type": "address"
        },
        {
          "internalType": "address",
          "name": "initialMetaTx",
          "type": "address"
        },
        {
          "internalType": "address",
          "name": "admin",
          "type": "address"
        },
        {
          "internalType": "address payable",
          "name": "initialWalletAddress",
          "type": "address"
        },
        {
          "internalType": "bytes32",
          "name": "merkleRoot",
          "type": "bytes32"
        },
        {
          "internalType": "uint256",
          "name": "expiryTime",
          "type": "uint256"
        },
        {
          "internalType": "address",
          "name": "initialSigningWallet",
          "type": "address"
        },
        {
          "internalType": "uint256",
          "name": "initialMaxCommissionRate",
          "type": "uint256"
        },
        {
          "internalType": "address",
          "name": "estate",
          "type": "address"
        },
        {
          "internalType": "address",
          "name": "asset",
          "type": "address"
        },
        {
          "internalType": "address",
          "name": "feeDistributor",
          "type": "address"
        }
      ],
      "stateMutability": "nonpayable",
      "type": "constructor"
    },
    {
      "anonymous": false,
      "inputs": [
        {
          "indexed": false,
          "internalType": "address",
          "name": "oldAdmin",
          "type": "address"
        },
        {
          "indexed": false,
          "internalType": "address",
          "name": "newAdmin",
          "type": "address"
        }
      ],
      "name": "AdminChanged",
      "type": "event"
    },
    {
      "anonymous": false,
      "inputs": [
        {
          "indexed": true,
          "internalType": "address",
          "name": "buyer",
          "type": "address"
        },
        {
          "indexed": true,
          "internalType": "address",
          "name": "to",
          "type": "address"
        },
        {
          "indexed": true,
          "internalType": "uint256",
          "name": "topCornerId",
          "type": "uint256"
        },
        {
          "indexed": false,
          "internalType": "uint256",
          "name": "size",
          "type": "uint256"
        },
        {
          "indexed": false,
          "internalType": "uint256",
          "name": "price",
          "type": "uint256"
        },
        {
          "indexed": false,
          "internalType": "address",
          "name": "token",
          "type": "address"
        },
        {
          "indexed": false,
          "internalType": "uint256",
          "name": "amountPaid",
          "type": "uint256"
        }
      ],
      "name": "LandQuadPurchased",
      "type": "event"
    },
    {
      "anonymous": false,
      "inputs": [
        {
          "indexed": false,
          "internalType": "address",
          "name": "metaTransactionProcessor",
          "type": "address"
        },
        {
          "indexed": false,
          "internalType": "bool",
          "name": "enabled",
          "type": "bool"
        }
      ],
      "name": "MetaTransactionProcessor",
      "type": "event"
    },
    {
      "anonymous": false,
      "inputs": [
        {
          "indexed": true,
          "internalType": "address",
          "name": "referrer",
          "type": "address"
        },
        {
          "indexed": true,
          "internalType": "address",
          "name": "referee",
          "type": "address"
        },
        {
          "indexed": true,
          "internalType": "address",
          "name": "token",
          "type": "address"
        },
        {
          "indexed": false,
          "internalType": "uint256",
          "name": "amount",
          "type": "uint256"
        },
        {
          "indexed": false,
          "internalType": "uint256",
          "name": "commission",
          "type": "uint256"
        },
        {
          "indexed": false,
          "internalType": "uint256",
          "name": "commissionRate",
          "type": "uint256"
        }
      ],
      "name": "ReferralUsed",
      "type": "event"
    },
    {
      "inputs": [
        {
          "internalType": "address",
          "name": "buyer",
          "type": "address"
        },
        {
          "internalType": "address",
          "name": "to",
          "type": "address"
        },
        {
          "internalType": "address",
          "name": "reserved",
          "type": "address"
        },
        {
          "internalType": "uint256",
          "name": "x",
          "type": "uint256"
        },
        {
          "internalType": "uint256",
          "name": "y",
          "type": "uint256"
        },
        {
          "internalType": "uint256",
          "name": "size",
          "type": "uint256"
        },
        {
          "internalType": "uint256",
          "name": "priceInSand",
          "type": "uint256"
        },
        {
          "internalType": "uint256",
          "name": "adjustedPriceInSand",
          "type": "uint256"
        },
        {
          "internalType": "bytes32",
          "name": "salt",
          "type": "bytes32"
        },
        {
          "internalType": "uint256[]",
          "name": "assetIds",
          "type": "uint256[]"
        },
        {
          "internalType": "bytes32[]",
          "name": "proof",
          "type": "bytes32[]"
        },
        {
          "internalType": "bytes",
          "name": "referral",
          "type": "bytes"
        }
      ],
      "name": "buyLandWithSand",
      "outputs": [],
      "stateMutability": "nonpayable",
      "type": "function"
    },
    {
      "inputs": [
        {
          "internalType": "address",
          "name": "newAdmin",
          "type": "address"
        }
      ],
      "name": "changeAdmin",
      "outputs": [],
      "stateMutability": "nonpayable",
      "type": "function"
    },
    {
      "inputs": [
        {
          "internalType": "bytes",
          "name": "referral",
          "type": "bytes"
        }
      ],
      "name": "decodeReferral",
      "outputs": [
        {
          "internalType": "bytes",
          "name": "",
          "type": "bytes"
        },
        {
          "internalType": "address",
          "name": "",
          "type": "address"
        },
        {
          "internalType": "address",
          "name": "",
          "type": "address"
        },
        {
          "internalType": "uint256",
          "name": "",
          "type": "uint256"
        },
        {
          "internalType": "uint256",
          "name": "",
          "type": "uint256"
        }
      ],
      "stateMutability": "pure",
      "type": "function"
    },
    {
      "inputs": [],
      "name": "getAdmin",
      "outputs": [
        {
          "internalType": "address",
          "name": "",
          "type": "address"
        }
      ],
      "stateMutability": "view",
      "type": "function"
    },
    {
      "inputs": [],
      "name": "getExpiryTime",
      "outputs": [
        {
          "internalType": "uint256",
          "name": "",
          "type": "uint256"
        }
      ],
      "stateMutability": "view",
      "type": "function"
    },
    {
      "inputs": [],
      "name": "getMaxCommisionRate",
      "outputs": [
        {
          "internalType": "uint256",
          "name": "",
          "type": "uint256"
        }
      ],
      "stateMutability": "view",
      "type": "function"
    },
    {
      "inputs": [],
      "name": "getMerkleRoot",
      "outputs": [
        {
          "internalType": "bytes32",
          "name": "",
          "type": "bytes32"
        }
      ],
      "stateMutability": "view",
      "type": "function"
    },
    {
      "inputs": [],
      "name": "getSandMultiplier",
      "outputs": [
        {
          "internalType": "uint256",
          "name": "",
          "type": "uint256"
        }
      ],
      "stateMutability": "view",
      "type": "function"
    },
    {
      "inputs": [],
      "name": "getSigningWallet",
      "outputs": [
        {
          "internalType": "address",
          "name": "",
          "type": "address"
        }
      ],
      "stateMutability": "view",
      "type": "function"
    },
    {
      "inputs": [
        {
          "internalType": "address",
          "name": "who",
          "type": "address"
        }
      ],
      "name": "isMetaTransactionProcessor",
      "outputs": [
        {
          "internalType": "bool",
          "name": "",
          "type": "bool"
        }
      ],
      "stateMutability": "view",
      "type": "function"
    },
    {
      "inputs": [
        {
          "internalType": "bytes",
          "name": "signature",
          "type": "bytes"
        },
        {
          "internalType": "address",
          "name": "referrer",
          "type": "address"
        },
        {
          "internalType": "address",
          "name": "referee",
          "type": "address"
        },
        {
          "internalType": "uint256",
          "name": "expiryTime",
          "type": "uint256"
        },
        {
          "internalType": "uint256",
          "name": "commissionRate",
          "type": "uint256"
        }
      ],
      "name": "isReferralValid",
      "outputs": [
        {
          "internalType": "bool",
          "name": "",
          "type": "bool"
        }
      ],
      "stateMutability": "view",
      "type": "function"
    },
    {
      "inputs": [
        {
          "internalType": "address",
          "name": "",
          "type": "address"
        },
        {
          "internalType": "address",
          "name": "",
          "type": "address"
        },
        {
          "internalType": "uint256[]",
          "name": "",
          "type": "uint256[]"
        },
        {
          "internalType": "uint256[]",
          "name": "",
          "type": "uint256[]"
        },
        {
          "internalType": "bytes",
          "name": "",
          "type": "bytes"
        }
      ],
      "name": "onERC1155BatchReceived",
      "outputs": [
        {
          "internalType": "bytes4",
          "name": "",
          "type": "bytes4"
        }
      ],
      "stateMutability": "pure",
      "type": "function"
    },
    {
      "inputs": [
        {
          "internalType": "address",
          "name": "",
          "type": "address"
        },
        {
          "internalType": "address",
          "name": "",
          "type": "address"
        },
        {
          "internalType": "uint256",
          "name": "",
          "type": "uint256"
        },
        {
          "internalType": "uint256",
          "name": "",
          "type": "uint256"
        },
        {
          "internalType": "bytes",
          "name": "",
          "type": "bytes"
        }
      ],
      "name": "onERC1155Received",
      "outputs": [
        {
          "internalType": "bytes4",
          "name": "",
          "type": "bytes4"
        }
      ],
      "stateMutability": "pure",
      "type": "function"
    },
    {
      "inputs": [
        {
          "internalType": "uint256",
          "name": "newMultiplier",
          "type": "uint256"
        }
      ],
      "name": "rebalanceSand",
      "outputs": [],
      "stateMutability": "nonpayable",
      "type": "function"
    },
    {
      "inputs": [
        {
          "internalType": "address",
          "name": "metaTransactionProcessor",
          "type": "address"
        },
        {
          "internalType": "bool",
          "name": "enabled",
          "type": "bool"
        }
      ],
      "name": "setMetaTransactionProcessor",
      "outputs": [],
      "stateMutability": "nonpayable",
      "type": "function"
    },
    {
      "inputs": [
        {
          "internalType": "address payable",
          "name": "newWallet",
          "type": "address"
        }
      ],
      "name": "setReceivingWallet",
      "outputs": [],
      "stateMutability": "nonpayable",
      "type": "function"
    },
    {
      "inputs": [
        {
          "internalType": "uint256",
          "name": "newMaxCommissionRate",
          "type": "uint256"
        }
      ],
      "name": "updateMaxCommissionRate",
      "outputs": [],
      "stateMutability": "nonpayable",
      "type": "function"
    },
    {
      "inputs": [
        {
          "internalType": "address",
          "name": "newSigningWallet",
          "type": "address"
        }
      ],
      "name": "updateSigningWallet",
      "outputs": [],
      "stateMutability": "nonpayable",
      "type": "function"
    },
    {
      "inputs": [
        {
          "internalType": "address",
          "name": "to",
          "type": "address"
        },
        {
          "internalType": "uint256[]",
          "name": "assetIds",
          "type": "uint256[]"
        },
        {
          "internalType": "uint256[]",
          "name": "values",
          "type": "uint256[]"
        }
      ],
      "name": "withdrawAssets",
      "outputs": [],
      "stateMutability": "nonpayable",
      "type": "function"
    }
  ],
  "transactionHash": "0x851fc7cacf0a01068f15351ee242c7630784e5cef945e035be28de62c995e529",
  "args": [
    "0x50f5474724e0Ee42D9a4e711ccFB275809Fd6d4a",
    "0x3845badAde8e6dFF049820680d1F14bD3903a5d0",
    "0x3845badAde8e6dFF049820680d1F14bD3903a5d0",
    "0xEAA0993E1d21c2103e4f172a20D29371FbAF6D06",
    "0x4489590a116618B506F0EfE885432F6A8ED998E9",
    "0xbdca7a00c1beceeca1c5869b956211ca5106b6e2625a389ba1a256bb83d48782",
    1630587600,
    "0x3044719d139F866a44c988823513eCB93060bF1b",
    2000,
    "0x0000000000000000000000000000000000000000",
    "0xa342f5D851E866E18ff98F351f2c6637f4478dB5",
    "0x0EB04462D69B1D267d269377E34f60b9De1c8510"
  ],
  "linkedData": [
    {
      "x": 0,
      "y": 40,
      "size": 1,
      "price": "1011000000000000000000",
      "reserved": "",
      "salt": "0x1f6754225c7f46f9f02d1d0f81223518186b735c2d4f97ed123a2c2401fc2d83",
      "assetIds": []
    },
    {
      "x": 0,
      "y": 41,
      "size": 1,
      "price": "1011000000000000000000",
      "reserved": "",
      "salt": "0x3131a739b065cc4cba7040155ae9154a69eb0a7b0b319638d913e66197f9a8b6",
      "assetIds": []
    },
    {
      "x": 0,
      "y": 42,
      "size": 1,
      "price": "1011000000000000000000",
      "reserved": "",
      "salt": "0xd386e50c902fac6c3f3ee8713affc825a094a449fbbf15eb2370acab18227f63",
      "assetIds": []
    },
    {
      "x": 0,
      "y": 43,
      "size": 1,
      "price": "1011000000000000000000",
      "reserved": "",
      "salt": "0xbfd86c935e090f7815169cdba8102311d0f93340af98dbf664fbe83215d2956c",
      "assetIds": []
    },
    {
      "x": 0,
      "y": 44,
      "size": 1,
      "price": "1011000000000000000000",
      "reserved": "",
      "salt": "0xd2db2e81ebc1b4ee08d972780674edc23a25bdc3d0ce7b3ddd4ed948b99efbaf",
      "assetIds": []
    },
    {
      "x": 0,
      "y": 45,
      "size": 1,
      "price": "1011000000000000000000",
      "reserved": "",
      "salt": "0x10fa06dca237d5d53f655a2e111d6ad3b94291258c068de448233a583e5b0831",
      "assetIds": []
    },
    {
      "x": 0,
      "y": 46,
      "size": 1,
      "price": "1011000000000000000000",
      "reserved": "",
      "salt": "0x5f9ca3d5bdddea640ff7c8a654897c4804e7560606d8ee95715ae64a7e8e8505",
      "assetIds": []
    },
    {
      "x": 0,
      "y": 47,
      "size": 1,
      "price": "1011000000000000000000",
      "reserved": "",
      "salt": "0x04686e8ce45e088c10a5e659b658cd0544d49a6e91cb95b4501797585964d420",
      "assetIds": []
    },
    {
      "x": 0,
      "y": 48,
      "size": 1,
      "price": "1011000000000000000000",
      "reserved": "0x7a9fe22691c811ea339d9b73150e6911a5343dca",
      "salt": "0xb8d38500a1c93b14f886454528201898acee1edaebd882c3837fe4c46b9f5011",
      "assetIds": []
    },
    {
      "x": 0,
      "y": 49,
      "size": 1,
      "price": "1011000000000000000000",
      "reserved": "",
      "salt": "0xf5572891653a2e59d5296b5b1b5a92bd74a2fbda132458231da5292e7b40a43c",
      "assetIds": []
    },
    {
      "x": 0,
      "y": 50,
      "size": 1,
      "price": "1011000000000000000000",
      "reserved": "",
      "salt": "0xcc8c453738928382a326c5ede292ce94edfcfc4b3e1bc7604b4cca7733a13d0d",
      "assetIds": []
    },
    {
      "x": 0,
      "y": 51,
      "size": 1,
      "price": "1011000000000000000000",
      "reserved": "",
      "salt": "0x827a5ea770af9365fae7d18c3d0df01fc1e700e0208c1a8dc422a7db14e3f2ce",
      "assetIds": []
    },
    {
      "x": 0,
      "y": 52,
      "size": 1,
      "price": "1011000000000000000000",
      "reserved": "",
      "salt": "0x780639724d22d86b2883de9cc367054b9b40ba1f52495b790e040b35219f3bb9",
      "assetIds": []
    },
    {
      "x": 0,
      "y": 53,
      "size": 1,
      "price": "1011000000000000000000",
      "reserved": "0x7a9fe22691c811ea339d9b73150e6911a5343dca",
      "salt": "0x36dd1af8244f7b426d6b442d52581907624e06bd16c70079214fe9fa625eeaa3",
      "assetIds": []
    },
    {
      "x": 0,
      "y": 54,
      "size": 1,
      "price": "1011000000000000000000",
      "reserved": "",
      "salt": "0x2df9211bf71fc69e8f11d85da18e518e10e0c6ce7022ec5c5c79995276b6f0d9",
      "assetIds": []
    },
    {
      "x": 0,
      "y": 55,
      "size": 1,
      "price": "1011000000000000000000",
      "reserved": "",
      "salt": "0x0025532dd2348524c2247b9dd9c3c949f7e1b27ac3e5f78296cb0f2297253cd8",
      "assetIds": []
    },
    {
      "x": 0,
      "y": 56,
      "size": 1,
      "price": "1011000000000000000000",
      "reserved": "",
      "salt": "0x76d27ced47b1bd86169fdd9e46961d6a5c31dd21251310db889d67117bfee619",
      "assetIds": []
    },
    {
      "x": 0,
      "y": 57,
      "size": 1,
      "price": "1011000000000000000000",
      "reserved": "",
      "salt": "0x83654f8cca49fdbe65003521ba6ffa866b1ed17d60559105ff2b92db6d9ee849",
      "assetIds": []
    },
    {
      "x": 0,
      "y": 58,
      "size": 1,
      "price": "1011000000000000000000",
      "reserved": "",
      "salt": "0x038f633c13fb609a3aeaa5e48bddd38890e64d0cb8fcc6750c57dba7a5bd287c",
      "assetIds": []
    },
    {
      "x": 0,
      "y": 59,
      "size": 1,
      "price": "1011000000000000000000",
      "reserved": "",
      "salt": "0x8011a76842dd1836888da695c356b3a643e909ac03c014dd2d04323d6b261d55",
      "assetIds": []
    },
    {
      "x": 0,
      "y": 66,
      "size": 1,
      "price": "1011000000000000000000",
      "reserved": "0x7a9fe22691c811ea339d9b73150e6911a5343dca",
      "salt": "0x6e493b3943fe2e268e21e071b65a3d2609b85b3feae2295d61fdeeb69732955b",
      "assetIds": []
    },
    {
      "x": 0,
      "y": 67,
      "size": 1,
      "price": "1011000000000000000000",
      "reserved": "",
      "salt": "0x59972c08ff9dc3a69b152cf7b541e986d3b88d8836096aed5abced666f3d78af",
      "assetIds": []
    },
    {
      "x": 0,
      "y": 68,
      "size": 1,
      "price": "1011000000000000000000",
      "reserved": "",
      "salt": "0x9f928687186f679ea2d54a5c1ad4bc25fc4ab1a254366e0f6a9f379b9cbd1339",
      "assetIds": []
    },
    {
      "x": 0,
      "y": 69,
      "size": 1,
      "price": "1011000000000000000000",
      "reserved": "0x7a9fe22691c811ea339d9b73150e6911a5343dca",
      "salt": "0x07cc6fd152c7f24923d7f5136d772864053dc7d14c5ec10b8050b9fba2314039",
      "assetIds": []
    },
    {
      "x": 0,
      "y": 70,
      "size": 1,
      "price": "1011000000000000000000",
      "reserved": "",
      "salt": "0xcdfa71f54f2d75ccbce2266feb8789d6388f765dba4563e725fe4849361e8868",
      "assetIds": []
    },
    {
      "x": 0,
      "y": 71,
      "size": 1,
      "price": "1011000000000000000000",
      "reserved": "",
      "salt": "0x2c7f41adf7adcfb074d26778a1545fdb4aa594aa2dae5a1e96820562746b5164",
      "assetIds": []
    },
    {
      "x": 0,
      "y": 90,
      "size": 1,
      "price": "1011000000000000000000",
      "reserved": "",
      "salt": "0x9f61f4dfed4fa2da4d608e9e039a0a5cf70a6471a350d88351ed540df61d5c24",
      "assetIds": []
    },
    {
      "x": 0,
      "y": 91,
      "size": 1,
      "price": "1011000000000000000000",
      "reserved": "",
      "salt": "0x8fb3d30c30d8b82eca4c37e04da1e497cc921dd76c845efa40fe69de2e44c557",
      "assetIds": []
    },
    {
      "x": 0,
      "y": 92,
      "size": 1,
      "price": "1011000000000000000000",
      "reserved": "0x7a9fe22691c811ea339d9b73150e6911a5343dca",
      "salt": "0x484a443811c5253c2be33e0e6a69f234fe49b18f8e238c67549d5f3722cc6aa7",
      "assetIds": []
    },
    {
      "x": 0,
      "y": 93,
      "size": 1,
      "price": "1011000000000000000000",
      "reserved": "",
      "salt": "0x421b61188d9592412547ed22dd9997342f54cfcae49263cf3b19edde1088ec9a",
      "assetIds": []
    },
    {
      "x": 0,
      "y": 94,
      "size": 1,
      "price": "1011000000000000000000",
      "reserved": "",
      "salt": "0x778aa9d709f04f4590ba43b6c896bf4975529d097123dd0aa0ff41f57b947e09",
      "assetIds": []
    },
    {
      "x": 0,
      "y": 95,
      "size": 1,
      "price": "1011000000000000000000",
      "reserved": "",
      "salt": "0xa4eb78747cef3b1df6e678ba64521c0c97e694f4aa60d37166e1013b84edafda",
      "assetIds": []
    },
    {
      "x": 1,
      "y": 40,
      "size": 1,
      "price": "1011000000000000000000",
      "reserved": "",
      "salt": "0xb55f2b91ad612b891dee5b3a1b46e969bbd1669f5eda0ce37af70c3bee1ff421",
      "assetIds": []
    },
    {
      "x": 1,
      "y": 41,
      "size": 1,
      "price": "1011000000000000000000",
      "reserved": "",
      "salt": "0x01a33b328c408f78053e6bead009128cfbd8bb129a23a4a7243e1a0b711faefe",
      "assetIds": []
    },
    {
      "x": 1,
      "y": 42,
      "size": 1,
      "price": "1011000000000000000000",
      "reserved": "",
      "salt": "0xf5e2a182007cc716a9566ce468434ab9026e5f2ff8aa7774523fef37fc098bf7",
      "assetIds": []
    },
    {
      "x": 1,
      "y": 43,
      "size": 1,
      "price": "1011000000000000000000",
      "reserved": "",
      "salt": "0x514ff4c344625c40bc2940f71519d03e799972a21dfdae154d0e866eaad4e285",
      "assetIds": []
    },
    {
      "x": 1,
      "y": 44,
      "size": 1,
      "price": "1011000000000000000000",
      "reserved": "",
      "salt": "0x32e027b5b8bdda7e32adc5693744a6b378de95db895b38ce5d83cfef387356dc",
      "assetIds": []
    },
    {
      "x": 1,
      "y": 45,
      "size": 1,
      "price": "1011000000000000000000",
      "reserved": "",
      "salt": "0x5229371947af1876a9fd78b55eba1073ef15a5b90a5a3414647f4a3a17837b8b",
      "assetIds": []
    },
    {
      "x": 1,
      "y": 46,
      "size": 1,
      "price": "1011000000000000000000",
      "reserved": "",
      "salt": "0x65a943372208998fbb9ac65ac5bc3d63da139fe13c4d6bca49e9f54993005b1e",
      "assetIds": []
    },
    {
      "x": 1,
      "y": 47,
      "size": 1,
      "price": "1011000000000000000000",
      "reserved": "",
      "salt": "0x7ae78db3414f3888616a88cd4dedca8d9ee8da53c9ffacd952312aa7166afe3b",
      "assetIds": []
    },
    {
      "x": 1,
      "y": 48,
      "size": 1,
      "price": "1011000000000000000000",
      "reserved": "",
      "salt": "0xd3e2e567cfbabe55baef06d514143ba338c512fd6e6dc1ffb0403c77699373a0",
      "assetIds": []
    },
    {
      "x": 1,
      "y": 49,
      "size": 1,
      "price": "1011000000000000000000",
      "reserved": "",
      "salt": "0x036435d4380fb0cb7476b4b3ec3633fbf8a2a589aaf6e72f828869fe60b5d664",
      "assetIds": []
    },
    {
      "x": 1,
      "y": 50,
      "size": 1,
      "price": "1011000000000000000000",
      "reserved": "",
      "salt": "0x2ff514bd9a98b0dbafa95cfae178d1768c79bba869c441ae641543b647ff4197",
      "assetIds": []
    },
    {
      "x": 1,
      "y": 51,
      "size": 1,
      "price": "1011000000000000000000",
      "reserved": "0x7a9fe22691c811ea339d9b73150e6911a5343dca",
      "salt": "0x277b933bca9b1852523a1a15ffe555b51ffd44b2a052f1a70b259acca8f02e26",
      "assetIds": []
    },
    {
      "x": 1,
      "y": 52,
      "size": 1,
      "price": "1011000000000000000000",
      "reserved": "",
      "salt": "0x9bd8368d8e0d4587648addfd1f323de40b98f2141d02f4bc165e034c770eec4a",
      "assetIds": []
    },
    {
      "x": 1,
      "y": 53,
      "size": 1,
      "price": "1011000000000000000000",
      "reserved": "",
      "salt": "0xe6158cde4c96ae42da67209688fab2ee13024cee0747393c4bd244b26bcd9429",
      "assetIds": []
    },
    {
      "x": 1,
      "y": 54,
      "size": 1,
      "price": "1011000000000000000000",
      "reserved": "",
      "salt": "0x24bdf446d21f4801aacf7b9e68e5302e3f11ba80c949cfc0a1826182d768a5f5",
      "assetIds": []
    },
    {
      "x": 1,
      "y": 55,
      "size": 1,
      "price": "1011000000000000000000",
      "reserved": "0x7a9fe22691c811ea339d9b73150e6911a5343dca",
      "salt": "0xdb099a00f95779023924d18e0211e922af24b8e2322165151d0abddc87509e58",
      "assetIds": []
    },
    {
      "x": 1,
      "y": 56,
      "size": 1,
      "price": "1011000000000000000000",
      "reserved": "",
      "salt": "0xb46ae5cb6dcf1508c2f0712638aa0b3430fd443409d2237c73384a9afc0a5cfa",
      "assetIds": []
    },
    {
      "x": 1,
      "y": 57,
      "size": 1,
      "price": "1011000000000000000000",
      "reserved": "",
      "salt": "0x6f4b360043ae8752879fae47deff02d860134a2135b21ee759c6bb52bfa4a61a",
      "assetIds": []
    },
    {
      "x": 1,
      "y": 58,
      "size": 1,
      "price": "1011000000000000000000",
      "reserved": "0x7a9fe22691c811ea339d9b73150e6911a5343dca",
      "salt": "0x2eb4be39ea68a6a434ad1b898905c6c4700879d9afbef4a8b6c2e4ca7c53e1c3",
      "assetIds": []
    },
    {
      "x": 1,
      "y": 59,
      "size": 1,
      "price": "1011000000000000000000",
      "reserved": "",
      "salt": "0xc829fd32a2179e19b02ab3e599f414483b955b368ace4c49a27eb1e0de90783a",
      "assetIds": []
    },
    {
      "x": 1,
      "y": 66,
      "size": 1,
      "price": "1011000000000000000000",
      "reserved": "",
      "salt": "0x93d56098dd73b771263a9afdf448f622f5d3dddd10735e96792840aa979d4c5f",
      "assetIds": []
    },
    {
      "x": 1,
      "y": 67,
      "size": 1,
      "price": "1011000000000000000000",
      "reserved": "",
      "salt": "0x169816b042f808b38df14029c737c25d4adb1e90095d5f38f556c739612ea110",
      "assetIds": []
    },
    {
      "x": 1,
      "y": 68,
      "size": 1,
      "price": "1011000000000000000000",
      "reserved": "",
      "salt": "0x860ab498a5e858cb8ef885e0a8e7e9b7bf53a6b5aa446c6efe9b1e00ac7c642a",
      "assetIds": []
    },
    {
      "x": 1,
      "y": 69,
      "size": 1,
      "price": "1011000000000000000000",
      "reserved": "",
      "salt": "0x8c5565c44a39656f79995ea02c04a1bedf012f775930983dda4c86e7ac9e158a",
      "assetIds": []
    },
    {
      "x": 1,
      "y": 70,
      "size": 1,
      "price": "1011000000000000000000",
      "reserved": "",
      "salt": "0xdc4bb1909284f8c85f4470f74b9858b6e3032ca67b00b4160c50cf64698c2aa9",
      "assetIds": []
    },
    {
      "x": 1,
      "y": 71,
      "size": 1,
      "price": "1011000000000000000000",
      "reserved": "",
      "salt": "0xf77e73d2fd1ccd50274620192e38f2be0b1eebbc26b3d7874b45cfe7d6f4b4a5",
      "assetIds": []
    },
    {
      "x": 1,
      "y": 90,
      "size": 1,
      "price": "1011000000000000000000",
      "reserved": "0x7a9fe22691c811ea339d9b73150e6911a5343dca",
      "salt": "0xaffc0351ac7875e800ea38cd636ca122b562c77c5465897fc8094080b4eae9b9",
      "assetIds": []
    },
    {
      "x": 1,
      "y": 91,
      "size": 1,
      "price": "1011000000000000000000",
      "reserved": "",
      "salt": "0x9fd621cae09159448408bc6a1fa91408a3d5cd9c40436f3a0059abc42bebef2b",
      "assetIds": []
    },
    {
      "x": 1,
      "y": 92,
      "size": 1,
      "price": "1011000000000000000000",
      "reserved": "",
      "salt": "0x922aa831b74b404b45212db25500e2c1b5a971f2331b9a0b7609eac0526b9b6b",
      "assetIds": []
    },
    {
      "x": 1,
      "y": 93,
      "size": 1,
      "price": "1011000000000000000000",
      "reserved": "",
      "salt": "0x326ebc0c0ccf31c37119759b59ea73a8ce528f886158ba59c90cfba71c0fcfb7",
      "assetIds": []
    },
    {
      "x": 1,
      "y": 94,
      "size": 1,
      "price": "1011000000000000000000",
      "reserved": "",
      "salt": "0xa9da0d0c7baf681854fb79155f91256012a3d95a4a5a52a440a0a70e618a29d5",
      "assetIds": []
    },
    {
      "x": 1,
      "y": 95,
      "size": 1,
      "price": "1011000000000000000000",
      "reserved": "",
      "salt": "0xa4b3b9566586f790dd7bd68345dfd9fd02cc72ba9fc8c6b108adaa0c2c027358",
      "assetIds": []
    },
    {
      "x": 2,
      "y": 40,
      "size": 1,
      "price": "1011000000000000000000",
      "reserved": "",
      "salt": "0x2039a7aa3b4c96dfb8260b8bdabcfa42ca156f53bae513acc9d91422fe382028",
      "assetIds": []
    },
    {
      "x": 2,
      "y": 41,
      "size": 1,
      "price": "1011000000000000000000",
      "reserved": "",
      "salt": "0x90d8482a4ef1029fcaf63efbed1149607e92f34767572add88084ae9debc2a5f",
      "assetIds": []
    },
    {
      "x": 2,
      "y": 42,
      "size": 1,
      "price": "1011000000000000000000",
      "reserved": "0x7a9fe22691c811ea339d9b73150e6911a5343dca",
      "salt": "0xfb68b496532eab01fac74fa02860765a922fb2e1390fb4540a7febe3097e372b",
      "assetIds": []
    },
    {
      "x": 2,
      "y": 43,
      "size": 1,
      "price": "1011000000000000000000",
      "reserved": "",
      "salt": "0x9bfc63193863dae92c801e781932e6f17bbe1104d037179ce9d35b47f3f142c9",
      "assetIds": []
    },
    {
      "x": 2,
      "y": 44,
      "size": 1,
      "price": "1011000000000000000000",
      "reserved": "",
      "salt": "0x2fcefe78f12a03351a8b8c5e89a1b4a8b7cc235d5a189874e89673c0012d5516",
      "assetIds": []
    },
    {
      "x": 2,
      "y": 45,
      "size": 1,
      "price": "1011000000000000000000",
      "reserved": "0x7a9fe22691c811ea339d9b73150e6911a5343dca",
      "salt": "0xfed4c86ff259a401fd1e7f571d5cf3ee9ef2c01f3c9b2e7480c8aa83f1547a64",
      "assetIds": []
    },
    {
      "x": 2,
      "y": 46,
      "size": 1,
      "price": "1011000000000000000000",
      "reserved": "",
      "salt": "0x2e22885363de0d5dad200964f37545d2fd45e1e772e3a2a9baf668edb82aeb33",
      "assetIds": []
    },
    {
      "x": 2,
      "y": 47,
      "size": 1,
      "price": "1011000000000000000000",
      "reserved": "",
      "salt": "0x97f86a6adb7839e1307937f25e33bc9f3472849f5ae1884c2c9bb65889596bb7",
      "assetIds": []
    },
    {
      "x": 2,
      "y": 48,
      "size": 1,
      "price": "1011000000000000000000",
      "reserved": "",
      "salt": "0x0b4513e1bbf6820cbb82d60099d46d73d3dce2c0765d2ff2d9d5b77da1ba357a",
      "assetIds": []
    },
    {
      "x": 2,
      "y": 49,
      "size": 1,
      "price": "1011000000000000000000",
      "reserved": "0x7a9fe22691c811ea339d9b73150e6911a5343dca",
      "salt": "0xc9079703aea2f89b97a78fe7fbe5c2f66888e6a432e41f138bcbf7f2096c8eeb",
      "assetIds": []
    },
    {
      "x": 2,
      "y": 50,
      "size": 1,
      "price": "1011000000000000000000",
      "reserved": "",
      "salt": "0x680d53fef3384ba6e9829d50992b219dc3eb78333064f935a572c9e861d0197c",
      "assetIds": []
    },
    {
      "x": 2,
      "y": 51,
      "size": 1,
      "price": "1011000000000000000000",
      "reserved": "",
      "salt": "0xd21f0147a936137daa449c92f9b38cfeb1fb81762b626f8ab8c08e5e1e0146e6",
      "assetIds": []
    },
    {
      "x": 2,
      "y": 52,
      "size": 1,
      "price": "1011000000000000000000",
      "reserved": "",
      "salt": "0x8c4efa9706f214cbca179cbe7df0e302875bac5406f716395b6e3f0c542ae08a",
      "assetIds": []
    },
    {
      "x": 2,
      "y": 53,
      "size": 1,
      "price": "1011000000000000000000",
      "reserved": "",
      "salt": "0x8435bc209a823e619bd2f100995545d7f7c3cd9fef932169ab8dd2d1593c24b4",
      "assetIds": []
    },
    {
      "x": 2,
      "y": 54,
      "size": 1,
      "price": "1011000000000000000000",
      "reserved": "",
      "salt": "0xad20d419dcaed6054cf0a34d831bd081d4a65395a078be27e3db39f7994c50bc",
      "assetIds": []
    },
    {
      "x": 2,
      "y": 55,
      "size": 1,
      "price": "1011000000000000000000",
      "reserved": "",
      "salt": "0x36775fb39e7cd82069d2b23d2de2014c31807fe642a9694cb4670be407f84747",
      "assetIds": []
    },
    {
      "x": 2,
      "y": 56,
      "size": 1,
      "price": "1011000000000000000000",
      "reserved": "",
      "salt": "0x9dce90617277cd2c3382aa1d382cb0c59101994fb01e35f49cbd6fa730561b4b",
      "assetIds": []
    },
    {
      "x": 2,
      "y": 57,
      "size": 1,
      "price": "1011000000000000000000",
      "reserved": "",
      "salt": "0xc5247ae93eac669f7731ce61d9f00b01b583983fa4d2644a6d0548af7f8591db",
      "assetIds": []
    },
    {
      "x": 2,
      "y": 58,
      "size": 1,
      "price": "1011000000000000000000",
      "reserved": "",
      "salt": "0xaafc1889f28d9062233f2e8ae2188dd5ab73322e9b630df739f5789004263a47",
      "assetIds": []
    },
    {
      "x": 2,
      "y": 59,
      "size": 1,
      "price": "1011000000000000000000",
      "reserved": "",
      "salt": "0x9078376a2ffe54b2808d68432a39c51d29560f763f988659a2b8251318c48919",
      "assetIds": []
    },
    {
      "x": 2,
      "y": 66,
      "size": 1,
      "price": "1011000000000000000000",
      "reserved": "",
      "salt": "0xf4964f75badb9d169c43b46f57c9aad2e75953c24f619f124fb36a03e54081bc",
      "assetIds": []
    },
    {
      "x": 2,
      "y": 67,
      "size": 1,
      "price": "1011000000000000000000",
      "reserved": "",
      "salt": "0x6bc1677f2a64eb98d451ef6ca8f0b6cfe2fc963c6890dc3606aeed2cea697248",
      "assetIds": []
    },
    {
      "x": 2,
      "y": 68,
      "size": 1,
      "price": "1011000000000000000000",
      "reserved": "",
      "salt": "0xcc518ac69eb8279f2d3a8da0a20a3efd9fd27b6c1fb9090cff1ac4f18f8548d7",
      "assetIds": []
    },
    {
      "x": 2,
      "y": 69,
      "size": 1,
      "price": "1011000000000000000000",
      "reserved": "",
      "salt": "0xf978b10a531a958aab0f9c3b61e57d07e3875070a301298588495790343b57f4",
      "assetIds": []
    },
    {
      "x": 2,
      "y": 70,
      "size": 1,
      "price": "1011000000000000000000",
      "reserved": "",
      "salt": "0x97dd63ae123351e248237b5c947efd0c3f326823ba5712ca020377f53e32837a",
      "assetIds": []
    },
    {
      "x": 2,
      "y": 71,
      "size": 1,
      "price": "1011000000000000000000",
      "reserved": "",
      "salt": "0xa54c40c051aadf598c71eb2fbf3739e553881dc862bc726e48f86cd601d38247",
      "assetIds": []
    },
    {
      "x": 2,
      "y": 90,
      "size": 1,
      "price": "1011000000000000000000",
      "reserved": "",
      "salt": "0xa2f105f37b0a28404e7360a1229911e584e67816273268cb7f8c45dcdea69431",
      "assetIds": []
    },
    {
      "x": 2,
      "y": 91,
      "size": 1,
      "price": "1011000000000000000000",
      "reserved": "",
      "salt": "0xab5dde8335799e8484ff2a221d037734b4153a01db47db7c32044b4fc2e4a82a",
      "assetIds": []
    },
    {
      "x": 2,
      "y": 92,
      "size": 1,
      "price": "1011000000000000000000",
      "reserved": "0x7a9fe22691c811ea339d9b73150e6911a5343dca",
      "salt": "0xdaa583f45f61cda3aa5759446f7eb22f329f99fc2bf5fdb6feffa71c39aecb75",
      "assetIds": []
    },
    {
      "x": 2,
      "y": 93,
      "size": 1,
      "price": "1011000000000000000000",
      "reserved": "",
      "salt": "0x4d7d73e8b2940a4ec613edebcd016f13afe32c3317287635babc1e2f4b460873",
      "assetIds": []
    },
    {
      "x": 2,
      "y": 94,
      "size": 1,
      "price": "1011000000000000000000",
      "reserved": "",
      "salt": "0x06fd427616bf7b6aee997ad50482958ec492b6d69b4c966c6c5dbf40657f6f96",
      "assetIds": []
    },
    {
      "x": 2,
      "y": 95,
      "size": 1,
      "price": "1011000000000000000000",
      "reserved": "",
      "salt": "0x48417af906fb1e2bfb7a95d50ca84bce95f2b2a813813f2d8f997eacf99558ff",
      "assetIds": []
    },
    {
      "x": 3,
      "y": 40,
      "size": 1,
      "price": "1011000000000000000000",
      "reserved": "",
      "salt": "0x579f36216858e9e7dc3045117ba2a9dbf341a6b8116d307446353f6b45707580",
      "assetIds": []
    },
    {
      "x": 3,
      "y": 41,
      "size": 1,
      "price": "1011000000000000000000",
      "reserved": "0x7a9fe22691c811ea339d9b73150e6911a5343dca",
      "salt": "0x093470da7258244f096ee877f989b698ef4698b881e653b343b573167096e55a",
      "assetIds": []
    },
    {
      "x": 3,
      "y": 42,
      "size": 1,
      "price": "1011000000000000000000",
      "reserved": "",
      "salt": "0xe8cd058efdd53634b8eddcc1088d1dd29afe1b76cefd9072741e21884b3f8451",
      "assetIds": []
    },
    {
      "x": 3,
      "y": 43,
      "size": 1,
      "price": "1011000000000000000000",
      "reserved": "0x7a9fe22691c811ea339d9b73150e6911a5343dca",
      "salt": "0xf87c4b06f240c747df22fdf28c32d244408403bfda64412a7d21ef2b7bbed8da",
      "assetIds": []
    },
    {
      "x": 3,
      "y": 44,
      "size": 1,
      "price": "1011000000000000000000",
      "reserved": "",
      "salt": "0xce5f09ff12f1bbd06106a96cd653c4c3b3b0ead27d2588b3f46b4d8370097788",
      "assetIds": []
    },
    {
      "x": 3,
      "y": 45,
      "size": 1,
      "price": "1011000000000000000000",
      "reserved": "",
      "salt": "0x39aef4c738ac17d1f5959bb230247f9d17b8c05b2398f33dc2602e1e252129ba",
      "assetIds": []
    },
    {
      "x": 3,
      "y": 46,
      "size": 1,
      "price": "1011000000000000000000",
      "reserved": "",
      "salt": "0x8c9b1c29e30ef4f4e79783a8c15941082deb2425a242acc6c789ceaafeed659d",
      "assetIds": []
    },
    {
      "x": 3,
      "y": 47,
      "size": 1,
      "price": "1011000000000000000000",
      "reserved": "0x7a9fe22691c811ea339d9b73150e6911a5343dca",
      "salt": "0xa1f57fa0913f7d63fd7f32e3789aa34bc590e6439b4cf8f6074274c9908cb254",
      "assetIds": []
    },
    {
      "x": 3,
      "y": 48,
      "size": 1,
      "price": "1011000000000000000000",
      "reserved": "",
      "salt": "0xc06ffd03444065f64ad3b1437e837f9f2d3295ffc8c12fd980b8991dc659be33",
      "assetIds": []
    },
    {
      "x": 3,
      "y": 49,
      "size": 1,
      "price": "1011000000000000000000",
      "reserved": "",
      "salt": "0x5429ba88ba35841c4f05188742a0cad48db7cb3802dc6df91ddd8278f351f9cf",
      "assetIds": []
    },
    {
      "x": 3,
      "y": 50,
      "size": 1,
      "price": "1011000000000000000000",
      "reserved": "",
      "salt": "0xe5c74237454c1de560191e08633929fa7e672276afad7cf7917605bdbbeeebb2",
      "assetIds": []
    },
    {
      "x": 3,
      "y": 51,
      "size": 1,
      "price": "1011000000000000000000",
      "reserved": "",
      "salt": "0x91666a5a1f809c441ce82f43aadb7b755ef87752ce9a1141b4b07f78a963fe5d",
      "assetIds": []
    },
    {
      "x": 3,
      "y": 52,
      "size": 1,
      "price": "1011000000000000000000",
      "reserved": "0x7a9fe22691c811ea339d9b73150e6911a5343dca",
      "salt": "0x2819ec787ea86092ac8f6953d5024ae8e997a85d5b094917d48e19cee575926c",
      "assetIds": []
    },
    {
      "x": 3,
      "y": 53,
      "size": 1,
      "price": "1011000000000000000000",
      "reserved": "",
      "salt": "0xaabac745126546d9209ac21cf31669733ebc15498fd4317ebe1f0abf50eb59d7",
      "assetIds": []
    },
    {
      "x": 3,
      "y": 57,
      "size": 1,
      "price": "1011000000000000000000",
      "reserved": "",
      "salt": "0x0616f8ec80dac375abbe61624c339c6ebb6628d273a4e24952fa31c74695a510",
      "assetIds": []
    },
    {
      "x": 3,
      "y": 58,
      "size": 1,
      "price": "1011000000000000000000",
      "reserved": "",
      "salt": "0x3c3e32efc3a1a6c2d5fc448529852a562c22a80deb18821660e23169d8a7184a",
      "assetIds": []
    },
    {
      "x": 3,
      "y": 59,
      "size": 1,
      "price": "1011000000000000000000",
      "reserved": "0x7a9fe22691c811ea339d9b73150e6911a5343dca",
      "salt": "0x9ed818e70ca614653a9ded7ee326349206b00d24b955c5e4611624d7e0b46c82",
      "assetIds": []
    },
    {
      "x": 3,
      "y": 66,
      "size": 1,
      "price": "1011000000000000000000",
      "reserved": "",
      "salt": "0xf7b7f66e2b7e385bcfe2b4ce3c06a66ea5fe61df735c9c2a7644628f1c461d20",
      "assetIds": []
    },
    {
      "x": 3,
      "y": 67,
      "size": 1,
      "price": "1011000000000000000000",
      "reserved": "0x7a9fe22691c811ea339d9b73150e6911a5343dca",
      "salt": "0x25c4ff744f7602b07cb288e4d76b941c0652bc48b6107f124d0ea5ef96f55e89",
      "assetIds": []
    },
    {
      "x": 3,
      "y": 68,
      "size": 1,
      "price": "1011000000000000000000",
      "reserved": "",
      "salt": "0x52dd0c81134b7e525e8bcc9fb69d3cb33fd136a543c41221710098a73397496f",
      "assetIds": []
    },
    {
      "x": 3,
      "y": 69,
      "size": 1,
      "price": "1011000000000000000000",
      "reserved": "",
      "salt": "0xb0e5b02e3bbd4cd27000be22aee151323506122dfd43613db877ffe721c36e10",
      "assetIds": []
    },
    {
      "x": 3,
      "y": 70,
      "size": 1,
      "price": "1011000000000000000000",
      "reserved": "0x7a9fe22691c811ea339d9b73150e6911a5343dca",
      "salt": "0x04f76422513e57530546881e7cdd5cf9a3fbb5e9a705af8b17f30c13a0b05a00",
      "assetIds": []
    },
    {
      "x": 3,
      "y": 71,
      "size": 1,
      "price": "1011000000000000000000",
      "reserved": "",
      "salt": "0xe4e7e8118002e09c1a2922464991c1b4be156ec16456798c6eddf621383b49fd",
      "assetIds": []
    },
    {
      "x": 3,
      "y": 90,
      "size": 1,
      "price": "1011000000000000000000",
      "reserved": "",
      "salt": "0xed8786f54acd88632b699c50d8b0b7d8ceb370b141bbfa8d8403b7bda73753e8",
      "assetIds": []
    },
    {
      "x": 3,
      "y": 91,
      "size": 1,
      "price": "1011000000000000000000",
      "reserved": "",
      "salt": "0x4ed7d112aa2d33a5d70c22325c905b6aad5dc5c22f2612077751ea905acb102f",
      "assetIds": []
    },
    {
      "x": 3,
      "y": 92,
      "size": 1,
      "price": "1011000000000000000000",
      "reserved": "",
      "salt": "0xd949fe195e17ca28607f67f7e0779d51f7b91abb74b80a0bf6e59af19093db0f",
      "assetIds": []
    },
    {
      "x": 3,
      "y": 93,
      "size": 1,
      "price": "1011000000000000000000",
      "reserved": "",
      "salt": "0x9b19477d46b27523a6982c73f3e5676c005b0d59dbaf4aee94a6e95e5d73df47",
      "assetIds": []
    },
    {
      "x": 3,
      "y": 94,
      "size": 1,
      "price": "1011000000000000000000",
      "reserved": "",
      "salt": "0xce8ba2bc96dfab4366ba5223b28f00cae90e447d2c4b8d63f39ee7612714e09c",
      "assetIds": []
    },
    {
      "x": 3,
      "y": 95,
      "size": 1,
      "price": "1011000000000000000000",
      "reserved": "0x7a9fe22691c811ea339d9b73150e6911a5343dca",
      "salt": "0x82c56c7a816c9bd707ff7e8f58601f30e6f0cb0a61cfafcfa61ca9eae42e050f",
      "assetIds": []
    },
    {
      "x": 4,
      "y": 40,
      "size": 1,
      "price": "1011000000000000000000",
      "reserved": "",
      "salt": "0x45635367ac483c891ba4b72e3f611016a0d3670f6627a9a18f5be47e6c56617c",
      "assetIds": []
    },
    {
      "x": 4,
      "y": 41,
      "size": 1,
      "price": "1011000000000000000000",
      "reserved": "0x7a9fe22691c811ea339d9b73150e6911a5343dca",
      "salt": "0xa7a95b51b3e38e2ca382c2e6955d773e98ab213cca101ee6a29f4f78b3743fef",
      "assetIds": []
    },
    {
      "x": 4,
      "y": 42,
      "size": 1,
      "price": "1011000000000000000000",
      "reserved": "",
      "salt": "0x77144736b8c43a9687be79dafc1661fd76dc52578b99e4098ac21d2eaf00cd83",
      "assetIds": []
    },
    {
      "x": 4,
      "y": 43,
      "size": 1,
      "price": "1011000000000000000000",
      "reserved": "",
      "salt": "0x579d51e115b99d8010ea91c03f9dfb2d8e459889b90184988f35e58fe3ae4ee2",
      "assetIds": []
    },
    {
      "x": 4,
      "y": 44,
      "size": 1,
      "price": "1011000000000000000000",
      "reserved": "",
      "salt": "0x8f8ff4be376d361cfd14d4e83b3e98a4e9267ebbbd79512bebc49a54f48e0782",
      "assetIds": []
    },
    {
      "x": 4,
      "y": 45,
      "size": 1,
      "price": "1011000000000000000000",
      "reserved": "",
      "salt": "0x9b2c93bf45c367474aac02cc197ff3e7b6c7309d98f77d4e8e5732ee63ba074b",
      "assetIds": []
    },
    {
      "x": 4,
      "y": 46,
      "size": 1,
      "price": "1011000000000000000000",
      "reserved": "",
      "salt": "0x1237dd119a5a6e4b252f10aa9f023c5cbc4dd7320e4c378122c009b849c8187c",
      "assetIds": []
    },
    {
      "x": 4,
      "y": 47,
      "size": 1,
      "price": "1011000000000000000000",
      "reserved": "",
      "salt": "0x3c44601d96f6f2d00ec90061115051037019b5abd41dfc405ee7781481594df7",
      "assetIds": []
    },
    {
      "x": 4,
      "y": 48,
      "size": 1,
      "price": "1011000000000000000000",
      "reserved": "",
      "salt": "0x70e5979369a4e8a1a5f40901f6bd98755c99fbda16addb289319a91570fca19b",
      "assetIds": []
    },
    {
      "x": 4,
      "y": 49,
      "size": 1,
      "price": "1011000000000000000000",
      "reserved": "",
      "salt": "0x5fe4acaa0c2164a940931a4a34a8f10b09b400a1c09a1ca8c244718f5e166af4",
      "assetIds": []
    },
    {
      "x": 4,
      "y": 50,
      "size": 1,
      "price": "1011000000000000000000",
      "reserved": "",
      "salt": "0xa9b196cb83850cc064dbda6f21dc5b32c419b7de75e0301532fa1d94a3300cd1",
      "assetIds": []
    },
    {
      "x": 4,
      "y": 51,
      "size": 1,
      "price": "1011000000000000000000",
      "reserved": "",
      "salt": "0xca9b2c0cd580c5d2a6c0fef9a5c2d225651ac8e3ea8aea26ce718769b58e225e",
      "assetIds": []
    },
    {
      "x": 4,
      "y": 52,
      "size": 1,
      "price": "1011000000000000000000",
      "reserved": "",
      "salt": "0xece408ae9f0c65a279144bef680db3c2b6d616f46e48604b7c0796362a08ccd1",
      "assetIds": []
    },
    {
      "x": 4,
      "y": 53,
      "size": 1,
      "price": "1011000000000000000000",
      "reserved": "",
      "salt": "0x674fb46fe09d0a512c53df7de1c18216d0d0d927aa4defca2376ee3752a20212",
      "assetIds": []
    },
    {
      "x": 4,
      "y": 57,
      "size": 1,
      "price": "1011000000000000000000",
      "reserved": "",
      "salt": "0xf5ee4469a5398e2ec7be2d2870522bae6bcb1787424f7d5cbaa8acb67fa8691a",
      "assetIds": []
    },
    {
      "x": 4,
      "y": 58,
      "size": 1,
      "price": "1011000000000000000000",
      "reserved": "",
      "salt": "0xe6f72a44a6af5863e0864c93e2cebd7ef36e4c84fd56cd08ae2f88273a2e5807",
      "assetIds": []
    },
    {
      "x": 4,
      "y": 59,
      "size": 1,
      "price": "1011000000000000000000",
      "reserved": "",
      "salt": "0xa6bf46d25c5a6bd743a7200ca25c8fac8c7ee15de7fcb37f75255048e3595bce",
      "assetIds": []
    },
    {
      "x": 4,
      "y": 66,
      "size": 1,
      "price": "1011000000000000000000",
      "reserved": "",
      "salt": "0xf5094763a1705d2eed754c889469b566971d751acd91f36b63270cf41731adad",
      "assetIds": []
    },
    {
      "x": 4,
      "y": 67,
      "size": 1,
      "price": "1011000000000000000000",
      "reserved": "",
      "salt": "0xa25ce3b0cde56ee361702aa26886fa5ec825e7506b8e2d69ce9dfd6d8feecd6d",
      "assetIds": []
    },
    {
      "x": 4,
      "y": 68,
      "size": 1,
      "price": "1011000000000000000000",
      "reserved": "",
      "salt": "0x4436483aa69292af55128fcf83c68f86e906cbdfa6af460ab0b601a9a1ea7e89",
      "assetIds": []
    },
    {
      "x": 4,
      "y": 69,
      "size": 1,
      "price": "1011000000000000000000",
      "reserved": "",
      "salt": "0xf88bf5cda4e23f861e3932f23ab889ae2f693479f7a53a53becfc241b36fa644",
      "assetIds": []
    },
    {
      "x": 4,
      "y": 70,
      "size": 1,
      "price": "1011000000000000000000",
      "reserved": "",
      "salt": "0x15db23cdaf6b0ee2cfa87dab9a587384a575f3b60846bfca31f93f8987a68e57",
      "assetIds": []
    },
    {
      "x": 4,
      "y": 71,
      "size": 1,
      "price": "1011000000000000000000",
      "reserved": "",
      "salt": "0x201eb4f368dc378eefbe2d1dcede9879397aae8cf93b30dd1b6d38a4d5877216",
      "assetIds": []
    },
    {
      "x": 4,
      "y": 90,
      "size": 1,
      "price": "1011000000000000000000",
      "reserved": "",
      "salt": "0x72a42f79c33ac49a8043bf7061f6d2ce19ff011fb358cea350cc9c5e4ece62a6",
      "assetIds": []
    },
    {
      "x": 4,
      "y": 91,
      "size": 1,
      "price": "1011000000000000000000",
      "reserved": "",
      "salt": "0x333c833fee65ce476e55ba11ce1cb7ce676246d1f83f182d9c9608ae4f2ec9f4",
      "assetIds": []
    },
    {
      "x": 4,
      "y": 92,
      "size": 1,
      "price": "1011000000000000000000",
      "reserved": "",
      "salt": "0xf7dc42c3f1b225103d546fbc856a05a185c6863596cb9f08ee87562bebd4c7c1",
      "assetIds": []
    },
    {
      "x": 4,
      "y": 93,
      "size": 1,
      "price": "1011000000000000000000",
      "reserved": "",
      "salt": "0xb31b3ae088540c73297937d02031949874f4b0e401ad75121fb0919eba88b61e",
      "assetIds": []
    },
    {
      "x": 4,
      "y": 94,
      "size": 1,
      "price": "1011000000000000000000",
      "reserved": "",
      "salt": "0x026854df2cfd4f655b10ff8b6656ddf74e7f43178d78a5456c80311dece7b81d",
      "assetIds": []
    },
    {
      "x": 4,
      "y": 95,
      "size": 1,
      "price": "1011000000000000000000",
      "reserved": "",
      "salt": "0xe2ba1f1a8c3f6f47ed52e27eeafb1b1338806d9c0be378247c8d55249830068b",
      "assetIds": []
    },
    {
      "x": 5,
      "y": 40,
      "size": 1,
      "price": "1011000000000000000000",
      "reserved": "",
      "salt": "0xc30feb5a211a124b9a9b815a4a1df2f60538f9808c770e96fd5270a2c4a35a64",
      "assetIds": []
    },
    {
      "x": 5,
      "y": 41,
      "size": 1,
      "price": "1011000000000000000000",
      "reserved": "",
      "salt": "0xa4b336fb3e553fa6553b2181839b6c4ef7eb10a4fd6a97793df4a68f8bc83d32",
      "assetIds": []
    },
    {
      "x": 5,
      "y": 42,
      "size": 1,
      "price": "1011000000000000000000",
      "reserved": "",
      "salt": "0xf6548c687a06c219c703ff6ac511ee0b81b59d4741c689965dc1398ff762d3fe",
      "assetIds": []
    },
    {
      "x": 5,
      "y": 43,
      "size": 1,
      "price": "1011000000000000000000",
      "reserved": "",
      "salt": "0x15f5bbe103c3a63ba469599eb74a60986ea054db7bf6bcde56c2d7e05e5543c4",
      "assetIds": []
    },
    {
      "x": 5,
      "y": 44,
      "size": 1,
      "price": "1011000000000000000000",
      "reserved": "",
      "salt": "0xbf4967a39282366a6d414993ec699ba45600b24a778229be3449583785690849",
      "assetIds": []
    },
    {
      "x": 5,
      "y": 45,
      "size": 1,
      "price": "1011000000000000000000",
      "reserved": "",
      "salt": "0xc51b00d5cf836484d818612cf15c199f020ed74db9562517bb8f32f37e383dd3",
      "assetIds": []
    },
    {
      "x": 5,
      "y": 46,
      "size": 1,
      "price": "1011000000000000000000",
      "reserved": "",
      "salt": "0x2f62a9ac64ad17d2ca3a46258ad95c969c198fac83ec27c3b6668cf54825fd20",
      "assetIds": []
    },
    {
      "x": 5,
      "y": 47,
      "size": 1,
      "price": "1011000000000000000000",
      "reserved": "",
      "salt": "0xcb099d2698b7452e669a5321001da0d65be2ba03927da951263fa390c2f8131f",
      "assetIds": []
    },
    {
      "x": 5,
      "y": 48,
      "size": 1,
      "price": "1011000000000000000000",
      "reserved": "",
      "salt": "0x2dd98cc6accea1c760d95f3c585197e6de005466b905a35887951f6b593e64ab",
      "assetIds": []
    },
    {
      "x": 5,
      "y": 49,
      "size": 1,
      "price": "1011000000000000000000",
      "reserved": "0x7a9fe22691c811ea339d9b73150e6911a5343dca",
      "salt": "0xdc98d353e4025977f6f3e13dddb68275a7ed7e0af9bd14c06c1eabfc2b1fca94",
      "assetIds": []
    },
    {
      "x": 5,
      "y": 50,
      "size": 1,
      "price": "1011000000000000000000",
      "reserved": "",
      "salt": "0xe11de1775ced06b89cd1b8e79bb2510e5bad637acf3085b3c73cf49b5a51f8a7",
      "assetIds": []
    },
    {
      "x": 5,
      "y": 51,
      "size": 1,
      "price": "1011000000000000000000",
      "reserved": "",
      "salt": "0xfad391afdd14b912d06ce609aca5af4f2c5fd26a93f59dfce6557c2c8a6f99bf",
      "assetIds": []
    },
    {
      "x": 5,
      "y": 52,
      "size": 1,
      "price": "1011000000000000000000",
      "reserved": "",
      "salt": "0xb8b2caea09f0ccd053eceeabc546dcd605b14762cb963fb2f8df835c6ba9e600",
      "assetIds": []
    },
    {
      "x": 5,
      "y": 53,
      "size": 1,
      "price": "1011000000000000000000",
      "reserved": "",
      "salt": "0x8c89438d9e207b6d233c1ac5cade7544771942f4d8c61a61d0cf107928633ddc",
      "assetIds": []
    },
    {
      "x": 5,
      "y": 57,
      "size": 1,
      "price": "1011000000000000000000",
      "reserved": "0x7a9fe22691c811ea339d9b73150e6911a5343dca",
      "salt": "0x63bc5b9461ac5c8d5ef06bdcfd03d68bc2c66b845dd746bd685c96702030a285",
      "assetIds": []
    },
    {
      "x": 5,
      "y": 58,
      "size": 1,
      "price": "1011000000000000000000",
      "reserved": "",
      "salt": "0x951e58b2eb7fec372cf47b17f312f1159f71f5f75e1f6aedd6c1ba8873034773",
      "assetIds": []
    },
    {
      "x": 5,
      "y": 59,
      "size": 1,
      "price": "1011000000000000000000",
      "reserved": "",
      "salt": "0x1ac4ba2e521902b53be5b46975f6437f0b29f00867ef358e222e38f8361a35b8",
      "assetIds": []
    },
    {
      "x": 5,
      "y": 66,
      "size": 1,
      "price": "1011000000000000000000",
      "reserved": "",
      "salt": "0x0f8ed63ccb943b95c3cd06ec02f8861108062a93ec17944b469708ee8cf0ae7e",
      "assetIds": []
    },
    {
      "x": 5,
      "y": 67,
      "size": 1,
      "price": "1011000000000000000000",
      "reserved": "",
      "salt": "0xd17dd835a50d8b4ed4488a369d4c16ebd50f04b1edb0ec2513fba6a9578d56cb",
      "assetIds": []
    },
    {
      "x": 5,
      "y": 68,
      "size": 1,
      "price": "1011000000000000000000",
      "reserved": "",
      "salt": "0x9dbc33abf27d8c3a1ebb35fc99b0241479d29ef3801b1381660c74f60a1aaff1",
      "assetIds": []
    },
    {
      "x": 5,
      "y": 69,
      "size": 1,
      "price": "1011000000000000000000",
      "reserved": "",
      "salt": "0x3880a1968cf7cba5dccd0c81a33edab2d00dec7edd193023a52a615b0dd10ecb",
      "assetIds": []
    },
    {
      "x": 5,
      "y": 70,
      "size": 1,
      "price": "1011000000000000000000",
      "reserved": "",
      "salt": "0x3600f0f4cb7a844e59a9be550e9fd1c0ff5f74b668856f1ad55a0b933aeb023c",
      "assetIds": []
    },
    {
      "x": 5,
      "y": 71,
      "size": 1,
      "price": "1011000000000000000000",
      "reserved": "",
      "salt": "0x9347989f4c584daef6a65577341c5519c4436a681a65454095687278f3173dbe",
      "assetIds": []
    },
    {
      "x": 5,
      "y": 90,
      "size": 1,
      "price": "1011000000000000000000",
      "reserved": "",
      "salt": "0x64ef089b5e6ed299d1a0a3116dfba737f447297ba5ba480ad5cc5bcd46cf6a7d",
      "assetIds": []
    },
    {
      "x": 5,
      "y": 91,
      "size": 1,
      "price": "1011000000000000000000",
      "reserved": "",
      "salt": "0x168f7ba3b21da1b259537d8158ed8291d2161bfc9ec9a87d930d540f1a7a531b",
      "assetIds": []
    },
    {
      "x": 5,
      "y": 92,
      "size": 1,
      "price": "1011000000000000000000",
      "reserved": "",
      "salt": "0x10d0732a77f3a2c0697422736dd5f60686e31ec3f2e311f635d086d4f7314039",
      "assetIds": []
    },
    {
      "x": 5,
      "y": 93,
      "size": 1,
      "price": "1011000000000000000000",
      "reserved": "",
      "salt": "0xaad3dc59eea7d83f10b0d82c6c41f846cff9554f341e28da537ca0b03bce7061",
      "assetIds": []
    },
    {
      "x": 5,
      "y": 94,
      "size": 1,
      "price": "1011000000000000000000",
      "reserved": "",
      "salt": "0x5bfb41cd22f6796c0b33225b6299709bc395995f385e146070f927b3c832b0f1",
      "assetIds": []
    },
    {
      "x": 5,
      "y": 95,
      "size": 1,
      "price": "1011000000000000000000",
      "reserved": "",
      "salt": "0xcf825c1fb0b0853308102db6c31a3ca3fe3972bf7c73abc2db5d5a91ad79a930",
      "assetIds": []
    },
    {
      "x": 6,
      "y": 40,
      "size": 1,
      "price": "1011000000000000000000",
      "reserved": "",
      "salt": "0x1697bbcb2e6df21293477fe11b953aee58c33dae9b809b5620800ecb4bf3a6fb",
      "assetIds": []
    },
    {
      "x": 6,
      "y": 41,
      "size": 1,
      "price": "1011000000000000000000",
      "reserved": "",
      "salt": "0xe48487272398c478a803f2b817a54acc98c3c9d0bdb691390eb533358f3dde9c",
      "assetIds": []
    },
    {
      "x": 6,
      "y": 42,
      "size": 1,
      "price": "1011000000000000000000",
      "reserved": "",
      "salt": "0xea50da9c2f6d9fb2bfb7eed40c80d5a1cfcd1ede08c745b7078a9220471737a9",
      "assetIds": []
    },
    {
      "x": 6,
      "y": 43,
      "size": 1,
      "price": "1011000000000000000000",
      "reserved": "",
      "salt": "0xa979880026721ae3b730d26438425d4e8889a1f51b7070b5a2b2083425225aec",
      "assetIds": []
    },
    {
      "x": 6,
      "y": 44,
      "size": 1,
      "price": "1011000000000000000000",
      "reserved": "0x7a9fe22691c811ea339d9b73150e6911a5343dca",
      "salt": "0x0f9ffdb555a2b351277251a60da0520040e503a2399b6ad841738195e34bf1d2",
      "assetIds": []
    },
    {
      "x": 6,
      "y": 45,
      "size": 1,
      "price": "1011000000000000000000",
      "reserved": "",
      "salt": "0xfe38b203b580e53011331d147c94eef186b4776762364917dd3a6cfaa3c0fe58",
      "assetIds": []
    },
    {
      "x": 6,
      "y": 46,
      "size": 1,
      "price": "1011000000000000000000",
      "reserved": "",
      "salt": "0x9508677418bf551f0748ace71aa17ee0a04448bcf4381a2d7355ac3853599fe3",
      "assetIds": []
    },
    {
      "x": 6,
      "y": 47,
      "size": 1,
      "price": "1011000000000000000000",
      "reserved": "",
      "salt": "0xc63462bf1e4af7c050d5d407c6c2bc3c86d8745a58c3f7045cab890fa0eec3b2",
      "assetIds": []
    },
    {
      "x": 6,
      "y": 48,
      "size": 1,
      "price": "1011000000000000000000",
      "reserved": "",
      "salt": "0x7771a18127efc16dd9761161b371bfccb16b80e304a382b429f0afd1b67dade3",
      "assetIds": []
    },
    {
      "x": 6,
      "y": 49,
      "size": 1,
      "price": "1011000000000000000000",
      "reserved": "",
      "salt": "0x23779f87d8bb3add21396127b22aa72adda0706426e3bb3852641bb92725bd5f",
      "assetIds": []
    },
    {
      "x": 6,
      "y": 50,
      "size": 1,
      "price": "1011000000000000000000",
      "reserved": "",
      "salt": "0x43349be450522a6f5ce287071c94137b67b0bf3f7108e62f030ddb0dd43fa547",
      "assetIds": []
    },
    {
      "x": 6,
      "y": 51,
      "size": 1,
      "price": "1011000000000000000000",
      "reserved": "",
      "salt": "0x96fd28af07ea98763d1ec41b7a5a31f3461de8098fce7a49bc35c72154f158a1",
      "assetIds": []
    },
    {
      "x": 6,
      "y": 52,
      "size": 1,
      "price": "1011000000000000000000",
      "reserved": "",
      "salt": "0x4b027a6b9f2980c408a2d25e0c62f89bd5739b5b6010f73856cbbf3b7dd01a4e",
      "assetIds": []
    },
    {
      "x": 6,
      "y": 53,
      "size": 1,
      "price": "1011000000000000000000",
      "reserved": "",
      "salt": "0xd186db7919836333be5e4eb26e4963bc6de0354729f95c605b7fe79e3e6c1fc2",
      "assetIds": []
    },
    {
      "x": 6,
      "y": 60,
      "size": 1,
      "price": "4683000000000000000000",
      "reserved": "",
      "salt": "0x31d6705f6ee675e9f55b37072c3cb6be8e99e771715c777a559016ed5bc396b1",
      "assetIds": [
        "55464657044963196816950587289035428064568320970692304673817341489687941879808",
        "55464657044963196816950587289035428064568320970692304673817341489687933519880",
        "55464657044963196816950587289035428064568320970692304673817341489687933519882",
        "55464657044963196816950587289035428064568320970692304673817341489687933519886",
        "55464657044963196816950587289035428064568320970692304673817341489687933519883"
      ]
    },
    {
      "x": 6,
      "y": 61,
      "size": 1,
      "price": "1011000000000000000000",
      "reserved": "0x7a9fe22691c811ea339d9b73150e6911a5343dca",
      "salt": "0x3fd54012df857442d6901c0445ac88ecc10b49842b32899b6d44cabe4e561dcd",
      "assetIds": []
    },
    {
      "x": 6,
      "y": 62,
      "size": 1,
      "price": "1011000000000000000000",
      "reserved": "",
      "salt": "0x5ff63cc94e1617228583e09155139aa74405467fa262d028481ae2c7e7d08cc0",
      "assetIds": []
    },
    {
      "x": 6,
      "y": 63,
      "size": 1,
      "price": "4683000000000000000000",
      "reserved": "",
      "salt": "0x527b84e126dbf7874a7b1863be4ccb44f3c838c07643473e4562f4dc59086ba2",
      "assetIds": [
        "55464657044963196816950587289035428064568320970692304673817341489687941879808",
        "55464657044963196816950587289035428064568320970692304673817341489687933519880",
        "55464657044963196816950587289035428064568320970692304673817341489687933519882",
        "55464657044963196816950587289035428064568320970692304673817341489687933519886",
        "55464657044963196816950587289035428064568320970692304673817341489687933519883"
      ]
    },
    {
      "x": 6,
      "y": 64,
      "size": 1,
      "price": "4683000000000000000000",
      "reserved": "",
      "salt": "0xac6292f81a264d7a8036516c15f1a70b590844fbbf4ec5d9fba11620ed2f6db2",
      "assetIds": [
        "55464657044963196816950587289035428064568320970692304673817341489687941879808",
        "55464657044963196816950587289035428064568320970692304673817341489687933519880",
        "55464657044963196816950587289035428064568320970692304673817341489687933519882",
        "55464657044963196816950587289035428064568320970692304673817341489687933519886",
        "55464657044963196816950587289035428064568320970692304673817341489687933519883"
      ]
    },
    {
      "x": 6,
      "y": 65,
      "size": 1,
      "price": "1011000000000000000000",
      "reserved": "0x7a9fe22691c811ea339d9b73150e6911a5343dca",
      "salt": "0x9504e776077ce5f30f997736e80934753f46ffdf1f448b5732cc43b5813a619a",
      "assetIds": []
    },
    {
      "x": 6,
      "y": 66,
      "size": 1,
      "price": "1011000000000000000000",
      "reserved": "",
      "salt": "0x85fd454308d2433db2692f2e04b8d14d6dc299686a72df917d48abe5a672fbd4",
      "assetIds": []
    },
    {
      "x": 6,
      "y": 67,
      "size": 1,
      "price": "1011000000000000000000",
      "reserved": "0x7a9fe22691c811ea339d9b73150e6911a5343dca",
      "salt": "0xce9396dec4761140d74ba195fc595661c78d27395dd6c481c0eb5ab303b29176",
      "assetIds": []
    },
    {
      "x": 6,
      "y": 68,
      "size": 1,
      "price": "1011000000000000000000",
      "reserved": "",
      "salt": "0xa65e60536d8b2ff35c3efdf59348d2af4e7e792319faaa6ed8343c34c7ee85f6",
      "assetIds": []
    },
    {
      "x": 6,
      "y": 69,
      "size": 1,
      "price": "1011000000000000000000",
      "reserved": "",
      "salt": "0xffd9f87bda393561a059fc68f1c913e59e673cc19d509b39a1009c8fe3f1f928",
      "assetIds": []
    },
    {
      "x": 6,
      "y": 70,
      "size": 1,
      "price": "1011000000000000000000",
      "reserved": "",
      "salt": "0x5f1ea840d64cbe48f247f71ab6ca432a80e72f0126292d1f15eb60ef9849a8bb",
      "assetIds": []
    },
    {
      "x": 6,
      "y": 71,
      "size": 1,
      "price": "1011000000000000000000",
      "reserved": "",
      "salt": "0x66bdc86d2e4e1d85a3b5315bd239dbd5b57346e8b3bae5df11b22e46ad2835d7",
      "assetIds": []
    },
    {
      "x": 6,
      "y": 84,
      "size": 1,
      "price": "1011000000000000000000",
      "reserved": "0x7a9fe22691c811ea339d9b73150e6911a5343dca",
      "salt": "0xa7d1bc3fd3329b243a865dcfe2e30de4e10e3a8af060e0f3763cf83282d0ad33",
      "assetIds": []
    },
    {
      "x": 6,
      "y": 85,
      "size": 1,
      "price": "1011000000000000000000",
      "reserved": "",
      "salt": "0x8e6d4b2989e6b8535e1cdc3dccae151c34284394b8829cacc536c3d029e1da0e",
      "assetIds": []
    },
    {
      "x": 6,
      "y": 86,
      "size": 1,
      "price": "1011000000000000000000",
      "reserved": "",
      "salt": "0x7d607cca097c24caabd69b5680fd61d91908d6c446fb9a81447107ef23176dbd",
      "assetIds": []
    },
    {
      "x": 6,
      "y": 87,
      "size": 1,
      "price": "1011000000000000000000",
      "reserved": "0x7a9fe22691c811ea339d9b73150e6911a5343dca",
      "salt": "0x2d83f207cae896ed4d6fac71272d5aa92bb067671bc4a8bc519402f1cbff6ab9",
      "assetIds": []
    },
    {
      "x": 6,
      "y": 88,
      "size": 1,
      "price": "1011000000000000000000",
      "reserved": "",
      "salt": "0x66ffa2ab0c094f7ac732ec933e17eb933b1c5eadd6ceb548aca0788e391ecc93",
      "assetIds": []
    },
    {
      "x": 6,
      "y": 89,
      "size": 1,
      "price": "1011000000000000000000",
      "reserved": "",
      "salt": "0x9c95c365d1dad69200bcc4934ceb242697bfc53ace64c6338ba2981031ac3843",
      "assetIds": []
    },
    {
      "x": 6,
      "y": 90,
      "size": 1,
      "price": "1011000000000000000000",
      "reserved": "",
      "salt": "0x2b84fab738f91d7682c2262d1006305a133a0f41b5179febc38dab414dfb9b7b",
      "assetIds": []
    },
    {
      "x": 6,
      "y": 91,
      "size": 1,
      "price": "1011000000000000000000",
      "reserved": "",
      "salt": "0x117b994ac92793ac266dcd7f54b1b203c5520377071e90224e66a1faed9898ea",
      "assetIds": []
    },
    {
      "x": 6,
      "y": 92,
      "size": 1,
      "price": "1011000000000000000000",
      "reserved": "",
      "salt": "0x446e7d455fdb03bce6964d59e3cbc1c016907425a5190a3a0ab3c992ca59d72d",
      "assetIds": []
    },
    {
      "x": 6,
      "y": 93,
      "size": 1,
      "price": "1011000000000000000000",
      "reserved": "",
      "salt": "0x890ba1e0aacab7d19275d5f3699313598c23492aaac62346d6ff7ee49ad441fe",
      "assetIds": []
    },
    {
      "x": 6,
      "y": 94,
      "size": 1,
      "price": "1011000000000000000000",
      "reserved": "",
      "salt": "0x4793460a53f34811de5b2e1e5a05cbc0498c0c417bd9ccbc066685156fc30707",
      "assetIds": []
    },
    {
      "x": 6,
      "y": 95,
      "size": 1,
      "price": "1011000000000000000000",
      "reserved": "",
      "salt": "0xb84b56228b123ef9aa6d0aa3b32b45a50c19a1fbe0bd2d5e0b8908e238f26da5",
      "assetIds": []
    },
    {
      "x": 7,
      "y": 40,
      "size": 1,
      "price": "1011000000000000000000",
      "reserved": "",
      "salt": "0x004275eb18df49f02ef1b2e291a0f9d85091e8a513c57e6595232d3b0f4f74b1",
      "assetIds": []
    },
    {
      "x": 7,
      "y": 41,
      "size": 1,
      "price": "1011000000000000000000",
      "reserved": "",
      "salt": "0xfc31b2eb2a9f7ead945db54e27809816b4b474e06ae19b72799782c733a59d56",
      "assetIds": []
    },
    {
      "x": 7,
      "y": 42,
      "size": 1,
      "price": "1011000000000000000000",
      "reserved": "0x7a9fe22691c811ea339d9b73150e6911a5343dca",
      "salt": "0x9b5e29b2c4ea678dfdf24d786017c50b37ece2037bde220a9c30aeb55c9c6a7d",
      "assetIds": []
    },
    {
      "x": 7,
      "y": 43,
      "size": 1,
      "price": "1011000000000000000000",
      "reserved": "",
      "salt": "0xbafe2a37a484108c46ed918f99e11d554d1b6d88b399553288423499f3106613",
      "assetIds": []
    },
    {
      "x": 7,
      "y": 44,
      "size": 1,
      "price": "1011000000000000000000",
      "reserved": "",
      "salt": "0x79c7b71c9d83b2a98dfe8b616a163a187e1a4b75fa44b177898b236c94b337be",
      "assetIds": []
    },
    {
      "x": 7,
      "y": 45,
      "size": 1,
      "price": "1011000000000000000000",
      "reserved": "",
      "salt": "0x0c4d7be09cc4c3a190d43ce679ab036103b94c9494ab82ff0493300dd4fa9b74",
      "assetIds": []
    },
    {
      "x": 7,
      "y": 46,
      "size": 1,
      "price": "1011000000000000000000",
      "reserved": "",
      "salt": "0x2b14762376058d6bb35231f6f418a48d428bef588dd92362c52db5056bd5412e",
      "assetIds": []
    },
    {
      "x": 7,
      "y": 47,
      "size": 1,
      "price": "1011000000000000000000",
      "reserved": "",
      "salt": "0x91a894da540f1005135e6f4ac7b037455ceb2ab21da67e388e74c3a3a1fabe29",
      "assetIds": []
    },
    {
      "x": 7,
      "y": 48,
      "size": 1,
      "price": "1011000000000000000000",
      "reserved": "",
      "salt": "0x1285a36835f75de60005ac1a10cc61383e575736e0ace794385c25e528b10e9e",
      "assetIds": []
    },
    {
      "x": 7,
      "y": 49,
      "size": 1,
      "price": "1011000000000000000000",
      "reserved": "",
      "salt": "0xa63153839f1d0484fccf24a0e5a9e4f11deeec4580fee2533e160411e99672bf",
      "assetIds": []
    },
    {
      "x": 7,
      "y": 50,
      "size": 1,
      "price": "1011000000000000000000",
      "reserved": "",
      "salt": "0xcd28701b60f27dcd97e5cdaa754c856507043e0b9e8ecea4d8add3032db4ddf2",
      "assetIds": []
    },
    {
      "x": 7,
      "y": 51,
      "size": 1,
      "price": "1011000000000000000000",
      "reserved": "",
      "salt": "0x3040bfff77920751805b64b6cf7d61aa74a33436fd083d070077d7ba70f1b85c",
      "assetIds": []
    },
    {
      "x": 7,
      "y": 52,
      "size": 1,
      "price": "1011000000000000000000",
      "reserved": "0x7a9fe22691c811ea339d9b73150e6911a5343dca",
      "salt": "0x43745a4d9d8904633c5e6f545d1fa4898e9ecc52f8feff437c4ca7fea1aafae9",
      "assetIds": []
    },
    {
      "x": 7,
      "y": 53,
      "size": 1,
      "price": "1011000000000000000000",
      "reserved": "",
      "salt": "0x84480db3a533333729035a867057480a5f7fe8883ef35029f500fd5a76c849ab",
      "assetIds": []
    },
    {
      "x": 7,
      "y": 60,
      "size": 1,
      "price": "4683000000000000000000",
      "reserved": "",
      "salt": "0xdf620668a22a5c8a62b3a00b2ce5ce7d6e9dadda39f1bdef42d2a543c7b7aebc",
      "assetIds": [
        "55464657044963196816950587289035428064568320970692304673817341489687941879808",
        "55464657044963196816950587289035428064568320970692304673817341489687933519880",
        "55464657044963196816950587289035428064568320970692304673817341489687933519882",
        "55464657044963196816950587289035428064568320970692304673817341489687933519886",
        "55464657044963196816950587289035428064568320970692304673817341489687933519883"
      ]
    },
    {
      "x": 7,
      "y": 61,
      "size": 1,
      "price": "4683000000000000000000",
      "reserved": "",
      "salt": "0xb7916c319aa4ae0d26e90ab0037ff55467a3be1afa324676eeeb73c2a366cbaa",
      "assetIds": [
        "55464657044963196816950587289035428064568320970692304673817341489687941879808",
        "55464657044963196816950587289035428064568320970692304673817341489687933519880",
        "55464657044963196816950587289035428064568320970692304673817341489687933519882",
        "55464657044963196816950587289035428064568320970692304673817341489687933519886",
        "55464657044963196816950587289035428064568320970692304673817341489687933519883"
      ]
    },
    {
      "x": 7,
      "y": 62,
      "size": 1,
      "price": "4683000000000000000000",
      "reserved": "",
      "salt": "0x9279843ed582d873e3cebb5ded053526d610c5e1a90cf9ba7dba2e5d9e598015",
      "assetIds": [
        "55464657044963196816950587289035428064568320970692304673817341489687941879808",
        "55464657044963196816950587289035428064568320970692304673817341489687933519880",
        "55464657044963196816950587289035428064568320970692304673817341489687933519882",
        "55464657044963196816950587289035428064568320970692304673817341489687933519886",
        "55464657044963196816950587289035428064568320970692304673817341489687933519883"
      ]
    },
    {
      "x": 7,
      "y": 63,
      "size": 1,
      "price": "4683000000000000000000",
      "reserved": "",
      "salt": "0x02d78d79cc201bc3eb5bddf5e8d9c51f83d5a0fa1bf793bd7854fbdd30c294a7",
      "assetIds": [
        "55464657044963196816950587289035428064568320970692304673817341489687941879808",
        "55464657044963196816950587289035428064568320970692304673817341489687933519880",
        "55464657044963196816950587289035428064568320970692304673817341489687933519882",
        "55464657044963196816950587289035428064568320970692304673817341489687933519886",
        "55464657044963196816950587289035428064568320970692304673817341489687933519883"
      ]
    },
    {
      "x": 7,
      "y": 64,
      "size": 1,
      "price": "4683000000000000000000",
      "reserved": "",
      "salt": "0x255724940d9b87a1480c9847a734183272fee1d84bc7b39b91413d19558f41bd",
      "assetIds": [
        "55464657044963196816950587289035428064568320970692304673817341489687941879808",
        "55464657044963196816950587289035428064568320970692304673817341489687933519880",
        "55464657044963196816950587289035428064568320970692304673817341489687933519882",
        "55464657044963196816950587289035428064568320970692304673817341489687933519886",
        "55464657044963196816950587289035428064568320970692304673817341489687933519883"
      ]
    },
    {
      "x": 7,
      "y": 65,
      "size": 1,
      "price": "1011000000000000000000",
      "reserved": "0x7a9fe22691c811ea339d9b73150e6911a5343dca",
      "salt": "0x3589b7165e2391d643ee126c557dd930b567e2762e554fba22e45a27d933ccf5",
      "assetIds": []
    },
    {
      "x": 7,
      "y": 66,
      "size": 1,
      "price": "1011000000000000000000",
      "reserved": "",
      "salt": "0x734728f9b2ed2b3bbe0b707015682377be7a10ca2343dcafa7a3cf55f8bec0ab",
      "assetIds": []
    },
    {
      "x": 7,
      "y": 67,
      "size": 1,
      "price": "1011000000000000000000",
      "reserved": "",
      "salt": "0xad27d54701de11602c0ff9c4697a5593f2b8b2c15e0c21e758b838190b5a26c7",
      "assetIds": []
    },
    {
      "x": 7,
      "y": 68,
      "size": 1,
      "price": "1011000000000000000000",
      "reserved": "",
      "salt": "0xdaef40bb88bc339b73f9056e2c26f79f6e7d1f9ab6c7d96709c14b5bf7cbab24",
      "assetIds": []
    },
    {
      "x": 7,
      "y": 69,
      "size": 1,
      "price": "1011000000000000000000",
      "reserved": "",
      "salt": "0xdd7a0a0de25c7be46c1e1f44250d0e4293ec51ec7b0a8daafecf76d9d1d691da",
      "assetIds": []
    },
    {
      "x": 7,
      "y": 70,
      "size": 1,
      "price": "1011000000000000000000",
      "reserved": "0x7a9fe22691c811ea339d9b73150e6911a5343dca",
      "salt": "0xf117ca4c6be1efd39713639be93082a57ad6914a17346ff6e7fe2cd92369efcf",
      "assetIds": []
    },
    {
      "x": 7,
      "y": 71,
      "size": 1,
      "price": "1011000000000000000000",
      "reserved": "",
      "salt": "0x8ce04d258fb89661274c4ccb3c8fc5a3ffe50146f07de5a0e1c1d35bcbe2cb32",
      "assetIds": []
    },
    {
      "x": 7,
      "y": 84,
      "size": 1,
      "price": "1011000000000000000000",
      "reserved": "",
      "salt": "0x82f43313f6208dd6ac7034157e247c32760cef1db0d6b4d65e6a326bf53a4c83",
      "assetIds": []
    },
    {
      "x": 7,
      "y": 85,
      "size": 1,
      "price": "1011000000000000000000",
      "reserved": "",
      "salt": "0x26e80184b81c86447c31a1c23f915df9a94e5532dd35e2672727bac4734b62fc",
      "assetIds": []
    },
    {
      "x": 7,
      "y": 86,
      "size": 1,
      "price": "1011000000000000000000",
      "reserved": "",
      "salt": "0x40200ac857b104b86fae86cdff5dc484be784ec1b4d315ff7ff5b4a253390fc5",
      "assetIds": []
    },
    {
      "x": 7,
      "y": 87,
      "size": 1,
      "price": "1011000000000000000000",
      "reserved": "",
      "salt": "0x064b8d0e10e50c10b1ed909fdb73c77d40d95b8219bb32146e7118014fbfa398",
      "assetIds": []
    },
    {
      "x": 7,
      "y": 88,
      "size": 1,
      "price": "1011000000000000000000",
      "reserved": "",
      "salt": "0x8a7e701b1a6a7a195062052f24e379fe366ef437df4b4717f34294a025672db3",
      "assetIds": []
    },
    {
      "x": 7,
      "y": 89,
      "size": 1,
      "price": "1011000000000000000000",
      "reserved": "0x7a9fe22691c811ea339d9b73150e6911a5343dca",
      "salt": "0x18e18f6d80828b2e472a74a6295c8b9816c8f3986c810da85d9077339d7ceef6",
      "assetIds": []
    },
    {
      "x": 7,
      "y": 90,
      "size": 1,
      "price": "1011000000000000000000",
      "reserved": "",
      "salt": "0xb43f7c24ed702f9b2f2661005559c2c7822420395ef2c1226e9acf9db643f414",
      "assetIds": []
    },
    {
      "x": 7,
      "y": 91,
      "size": 1,
      "price": "1011000000000000000000",
      "reserved": "",
      "salt": "0xacb750f7af5957a6b14cb3dfdee00feae0f2f9963e605d968f8d76145e81f519",
      "assetIds": []
    },
    {
      "x": 7,
      "y": 92,
      "size": 1,
      "price": "1011000000000000000000",
      "reserved": "",
      "salt": "0xa8cbb343f77a4ed8a5a74551a98191e9091eee5e97320d88b1a5fe3805d3fa42",
      "assetIds": []
    },
    {
      "x": 7,
      "y": 93,
      "size": 1,
      "price": "1011000000000000000000",
      "reserved": "",
      "salt": "0xcfe59acf43b5ff3ecd822f6b459a17978f275c42c59a02f0eb08e00c216a3e77",
      "assetIds": []
    },
    {
      "x": 7,
      "y": 94,
      "size": 1,
      "price": "1011000000000000000000",
      "reserved": "0x7a9fe22691c811ea339d9b73150e6911a5343dca",
      "salt": "0x34d9492d98a1a20d0f52018b0c709683dde68aa4568320beef6e6136a29ec72d",
      "assetIds": []
    },
    {
      "x": 7,
      "y": 95,
      "size": 1,
      "price": "1011000000000000000000",
      "reserved": "",
      "salt": "0xe40214482469b76ba11dba5823a79bfc22fa647c6d66f97f5ca3c46faebe6b72",
      "assetIds": []
    },
    {
      "x": 8,
      "y": 40,
      "size": 1,
      "price": "1011000000000000000000",
      "reserved": "",
      "salt": "0x9461dbb8f39b33db0635d0ea0e5c181ee5674b9443a967327842c5b42066acfc",
      "assetIds": []
    },
    {
      "x": 8,
      "y": 41,
      "size": 1,
      "price": "1011000000000000000000",
      "reserved": "",
      "salt": "0x9dc6fc0d54facb93f121176e07d7c40bb3b29f0c09ab0c325e98d51eca9e6b3b",
      "assetIds": []
    },
    {
      "x": 8,
      "y": 42,
      "size": 1,
      "price": "1011000000000000000000",
      "reserved": "0x7a9fe22691c811ea339d9b73150e6911a5343dca",
      "salt": "0xed300227254ad9165b5653c1fab1a0b69eb361546067d1fc4e2c8c11db1017f1",
      "assetIds": []
    },
    {
      "x": 8,
      "y": 43,
      "size": 1,
      "price": "1011000000000000000000",
      "reserved": "",
      "salt": "0xa17fcb3789c07a99a74fc748888517a24fe6abd8b710a57802f17c510b81db68",
      "assetIds": []
    },
    {
      "x": 8,
      "y": 44,
      "size": 1,
      "price": "1011000000000000000000",
      "reserved": "",
      "salt": "0x600152e03ef86dc6ef2ad0269b411769cc8eca0d5d77df1430bdd33b19d0c728",
      "assetIds": []
    },
    {
      "x": 8,
      "y": 45,
      "size": 1,
      "price": "1011000000000000000000",
      "reserved": "",
      "salt": "0xb526620cbcc778dbc3e7bb279ca5e95134f3157c0cdc3a8742710ec1b9fdb38d",
      "assetIds": []
    },
    {
      "x": 8,
      "y": 46,
      "size": 1,
      "price": "1011000000000000000000",
      "reserved": "0x7a9fe22691c811ea339d9b73150e6911a5343dca",
      "salt": "0xa770518ac3c87dc55c165a2e7cd5047659128ef391f7b85fa4daa873faea5d1b",
      "assetIds": []
    },
    {
      "x": 8,
      "y": 47,
      "size": 1,
      "price": "1011000000000000000000",
      "reserved": "",
      "salt": "0x0b9135b5878b6dd02f446c877b33684a218cd8312e0164a000869fca4dbbbcb3",
      "assetIds": []
    },
    {
      "x": 8,
      "y": 48,
      "size": 1,
      "price": "1011000000000000000000",
      "reserved": "",
      "salt": "0xcd2ab8ab521b40cf1831aca4d21b8e92ee54d931b1a3f0d7e879f9072eadd6d1",
      "assetIds": []
    },
    {
      "x": 8,
      "y": 49,
      "size": 1,
      "price": "1011000000000000000000",
      "reserved": "",
      "salt": "0x141034358347591984eed8a40575aef448c936ac37b6ac71b7553e7a31725be0",
      "assetIds": []
    },
    {
      "x": 8,
      "y": 50,
      "size": 1,
      "price": "1011000000000000000000",
      "reserved": "0x7a9fe22691c811ea339d9b73150e6911a5343dca",
      "salt": "0x310b202184769a45633303fe19070ee4fdfbd6d3d6b0dd564e851740924848ec",
      "assetIds": []
    },
    {
      "x": 8,
      "y": 51,
      "size": 1,
      "price": "1011000000000000000000",
      "reserved": "",
      "salt": "0x78a163488e8e5e541338786f60ed4706fa56f305a4dc2c29cd5ffa876bcb3a55",
      "assetIds": []
    },
    {
      "x": 8,
      "y": 52,
      "size": 1,
      "price": "1011000000000000000000",
      "reserved": "",
      "salt": "0x18e5e94a35c6133ca2a67535ab2c27cd51d637d7dc1962a2e426ba47e0766f34",
      "assetIds": []
    },
    {
      "x": 8,
      "y": 53,
      "size": 1,
      "price": "1011000000000000000000",
      "reserved": "",
      "salt": "0xfcff693cc9a6d980baeb828f9e1ac4631c83ad7c83f590be6e73571120237038",
      "assetIds": []
    },
    {
      "x": 8,
      "y": 60,
      "size": 1,
      "price": "4683000000000000000000",
      "reserved": "",
      "salt": "0x2929066e1359a908c65a20dca6d76a83725c3d8377c80d395caaa87737e1b004",
      "assetIds": [
        "55464657044963196816950587289035428064568320970692304673817341489687941879808",
        "55464657044963196816950587289035428064568320970692304673817341489687933519880",
        "55464657044963196816950587289035428064568320970692304673817341489687933519882",
        "55464657044963196816950587289035428064568320970692304673817341489687933519886",
        "55464657044963196816950587289035428064568320970692304673817341489687933519883"
      ]
    },
    {
      "x": 8,
      "y": 61,
      "size": 1,
      "price": "4683000000000000000000",
      "reserved": "",
      "salt": "0x95d2eb4382832e810a15ea8e969719bcfa5f311fac3ae486293a5cdcd6502bc9",
      "assetIds": [
        "55464657044963196816950587289035428064568320970692304673817341489687941879808",
        "55464657044963196816950587289035428064568320970692304673817341489687933519880",
        "55464657044963196816950587289035428064568320970692304673817341489687933519882",
        "55464657044963196816950587289035428064568320970692304673817341489687933519886",
        "55464657044963196816950587289035428064568320970692304673817341489687933519883"
      ]
    },
    {
      "x": 8,
      "y": 62,
      "size": 1,
      "price": "4683000000000000000000",
      "reserved": "",
      "salt": "0x426c97923193f2f6e3e6b2d0fa77271d9c7fffee88ac80a8dca2944961fd267b",
      "assetIds": [
        "55464657044963196816950587289035428064568320970692304673817341489687941879808",
        "55464657044963196816950587289035428064568320970692304673817341489687933519880",
        "55464657044963196816950587289035428064568320970692304673817341489687933519882",
        "55464657044963196816950587289035428064568320970692304673817341489687933519886",
        "55464657044963196816950587289035428064568320970692304673817341489687933519883"
      ]
    },
    {
      "x": 8,
      "y": 63,
      "size": 1,
      "price": "4683000000000000000000",
      "reserved": "",
      "salt": "0x1712bbc0d0fa22dd89cd1515936cf4c9c84984254c812d44db73913a514d0827",
      "assetIds": [
        "55464657044963196816950587289035428064568320970692304673817341489687941879808",
        "55464657044963196816950587289035428064568320970692304673817341489687933519880",
        "55464657044963196816950587289035428064568320970692304673817341489687933519882",
        "55464657044963196816950587289035428064568320970692304673817341489687933519886",
        "55464657044963196816950587289035428064568320970692304673817341489687933519883"
      ]
    },
    {
      "x": 8,
      "y": 64,
      "size": 1,
      "price": "4683000000000000000000",
      "reserved": "",
      "salt": "0xe576dbf270ce67edd4ab50d37766d0484c82f7be2d0216f1018498318249c028",
      "assetIds": [
        "55464657044963196816950587289035428064568320970692304673817341489687941879808",
        "55464657044963196816950587289035428064568320970692304673817341489687933519880",
        "55464657044963196816950587289035428064568320970692304673817341489687933519882",
        "55464657044963196816950587289035428064568320970692304673817341489687933519886",
        "55464657044963196816950587289035428064568320970692304673817341489687933519883"
      ]
    },
    {
      "x": 8,
      "y": 65,
      "size": 1,
      "price": "4683000000000000000000",
      "reserved": "",
      "salt": "0x9f241b4616cb57952a4e52af02343ff3840576cc973c4598528cb7bf41177fd0",
      "assetIds": [
        "55464657044963196816950587289035428064568320970692304673817341489687941879808",
        "55464657044963196816950587289035428064568320970692304673817341489687933519880",
        "55464657044963196816950587289035428064568320970692304673817341489687933519882",
        "55464657044963196816950587289035428064568320970692304673817341489687933519886",
        "55464657044963196816950587289035428064568320970692304673817341489687933519883"
      ]
    },
    {
      "x": 8,
      "y": 66,
      "size": 1,
      "price": "1011000000000000000000",
      "reserved": "",
      "salt": "0xb6b147ce64f7082d8d238e462dcda923b317e6e83b89fc7b7625fed628fa5ffd",
      "assetIds": []
    },
    {
      "x": 8,
      "y": 67,
      "size": 1,
      "price": "1011000000000000000000",
      "reserved": "",
      "salt": "0x7f7709d5f4325d082a933641b6d0ac4bb2c3d2bfd5d827333207bcb70ec2de59",
      "assetIds": []
    },
    {
      "x": 8,
      "y": 68,
      "size": 1,
      "price": "1011000000000000000000",
      "reserved": "",
      "salt": "0x8475790ce0016dad048a1668b6223eacd9155ec6a9f213f936d78a3bfb2eea9f",
      "assetIds": []
    },
    {
      "x": 8,
      "y": 69,
      "size": 1,
      "price": "1011000000000000000000",
      "reserved": "",
      "salt": "0xd05a917d38f0da38ba2b1b77170c48efd66b4f052b979564135d3dff4738af26",
      "assetIds": []
    },
    {
      "x": 8,
      "y": 70,
      "size": 1,
      "price": "1011000000000000000000",
      "reserved": "",
      "salt": "0xc35d711e53d6d8f63064bd5795bf61914106332bfb4707e486a9d7eb06044ed2",
      "assetIds": []
    },
    {
      "x": 8,
      "y": 71,
      "size": 1,
      "price": "1011000000000000000000",
      "reserved": "",
      "salt": "0x7b59ba9a82cb8a717bffa2629dd840fa0e4af043eaf761d4ac118ea8cb68e5e8",
      "assetIds": []
    },
    {
      "x": 8,
      "y": 84,
      "size": 1,
      "price": "1011000000000000000000",
      "reserved": "",
      "salt": "0xc2fb35e05cd7b076b8a5411cf52d07d7cf4a56b36bba3ed6a5cdb73f172a62e9",
      "assetIds": []
    },
    {
      "x": 8,
      "y": 85,
      "size": 1,
      "price": "1011000000000000000000",
      "reserved": "",
      "salt": "0x8d83d1336359e60726421ef405742149dfc52407cd9debae8ff2f93144156767",
      "assetIds": []
    },
    {
      "x": 8,
      "y": 86,
      "size": 1,
      "price": "1011000000000000000000",
      "reserved": "",
      "salt": "0x366415d4620810d8dbf3ad4143226b8feb49c43dcbd6f49db1b93175cfff8e74",
      "assetIds": []
    },
    {
      "x": 8,
      "y": 87,
      "size": 1,
      "price": "1011000000000000000000",
      "reserved": "",
      "salt": "0x7a3652c9e3097f44801c90f667b7867314997232d4e9af9d2f0cf1f781905856",
      "assetIds": []
    },
    {
      "x": 8,
      "y": 88,
      "size": 1,
      "price": "1011000000000000000000",
      "reserved": "",
      "salt": "0xa93674a013be7596f064ac93fbf955ff8e9256948d19615e65b4984a02e7aac6",
      "assetIds": []
    },
    {
      "x": 8,
      "y": 89,
      "size": 1,
      "price": "1011000000000000000000",
      "reserved": "",
      "salt": "0x6ea2f7ca6371a5c0533d16097e842fbbff536b77a8a812cfcbd958e28e1e1e10",
      "assetIds": []
    },
    {
      "x": 8,
      "y": 90,
      "size": 1,
      "price": "1011000000000000000000",
      "reserved": "",
      "salt": "0x5dd05a8b0d7ec16be08b199641c38c25ff654a1b8a5fba6d1942a6078610dffb",
      "assetIds": []
    },
    {
      "x": 8,
      "y": 91,
      "size": 1,
      "price": "1011000000000000000000",
      "reserved": "",
      "salt": "0x39d287904b672aea4aed92a4b4d28314b6edef39dc34626cd90a27b1e0774585",
      "assetIds": []
    },
    {
      "x": 8,
      "y": 92,
      "size": 1,
      "price": "1011000000000000000000",
      "reserved": "",
      "salt": "0x41f3b683563530146311ed83bcfc647831e7f999bdc4f1c92e80591a98746b1c",
      "assetIds": []
    },
    {
      "x": 8,
      "y": 93,
      "size": 1,
      "price": "1011000000000000000000",
      "reserved": "0x7a9fe22691c811ea339d9b73150e6911a5343dca",
      "salt": "0xedc300ff44717d00ad9b69e3e34688cfd9e8cda92c7d44967cb6d415cc950f0c",
      "assetIds": []
    },
    {
      "x": 8,
      "y": 94,
      "size": 1,
      "price": "1011000000000000000000",
      "reserved": "",
      "salt": "0x3b9b68e33938dada97ccf917db7b631b1319926724d054c9020a184fc7fb1d34",
      "assetIds": []
    },
    {
      "x": 8,
      "y": 95,
      "size": 1,
      "price": "1011000000000000000000",
      "reserved": "",
      "salt": "0x7a7a68ee0db3495b26c122d6679b60002ba73d138a88e02632a220ad029185e3",
      "assetIds": []
    },
    {
      "x": 9,
      "y": 40,
      "size": 1,
      "price": "1011000000000000000000",
      "reserved": "",
      "salt": "0x9cf1fe82570dc0acc39cd953d04885f4f021de0688cbf30ee79072e6365bf9e5",
      "assetIds": []
    },
    {
      "x": 9,
      "y": 41,
      "size": 1,
      "price": "1011000000000000000000",
      "reserved": "",
      "salt": "0x0692ff1df71ed16c7e17a041da6179dd3881acc2dc84fda26ce19530736d183b",
      "assetIds": []
    },
    {
      "x": 9,
      "y": 45,
      "size": 1,
      "price": "1011000000000000000000",
      "reserved": "",
      "salt": "0x47e77577109640a29a1a590dbd16393cdbe199cd36b708169fa659b1dea88473",
      "assetIds": []
    },
    {
      "x": 9,
      "y": 46,
      "size": 1,
      "price": "1011000000000000000000",
      "reserved": "",
      "salt": "0xfbcced883946dfdf9a8387b2b39dc169bd094da5e893c2d94009ce566b6f54e1",
      "assetIds": []
    },
    {
      "x": 9,
      "y": 47,
      "size": 1,
      "price": "1011000000000000000000",
      "reserved": "",
      "salt": "0x66733edeadc1b4628000d848475f9fa38f46643f8c21c32373e8fe9ef284b688",
      "assetIds": []
    },
    {
      "x": 9,
      "y": 48,
      "size": 1,
      "price": "1011000000000000000000",
      "reserved": "",
      "salt": "0xe31a3eac4e2c023f8f94daccfab83a81a15ae48a02e56d34317a5967b7966fa5",
      "assetIds": []
    },
    {
      "x": 9,
      "y": 49,
      "size": 1,
      "price": "1011000000000000000000",
      "reserved": "",
      "salt": "0x5f027196e4f09c1df71d3cd672e61b40d320271f1075d5e770f0bcd528a7413d",
      "assetIds": []
    },
    {
      "x": 9,
      "y": 50,
      "size": 1,
      "price": "1011000000000000000000",
      "reserved": "",
      "salt": "0x85f0042f3ca03f3cf29bc041d3be4dd8f5c22afa58b78e2386317fd7963f0314",
      "assetIds": []
    },
    {
      "x": 9,
      "y": 51,
      "size": 1,
      "price": "1011000000000000000000",
      "reserved": "",
      "salt": "0xf96fe74bb8895924d2a780ae733082a55b7672c3e95515a7fdbabca239aebc8b",
      "assetIds": []
    },
    {
      "x": 9,
      "y": 52,
      "size": 1,
      "price": "1011000000000000000000",
      "reserved": "",
      "salt": "0x643b4766e5f600fb9e69c48abd35e2bf798350968d08d63391247a5268e30c61",
      "assetIds": []
    },
    {
      "x": 9,
      "y": 53,
      "size": 1,
      "price": "1011000000000000000000",
      "reserved": "",
      "salt": "0x1079e36edfe1dbc28845ef9ab8d676aaf9b76a5005f64c1f9dd380f552844b75",
      "assetIds": []
    },
    {
      "x": 9,
      "y": 60,
      "size": 1,
      "price": "4683000000000000000000",
      "reserved": "",
      "salt": "0xbb98a6c6b4dd1027fcdfdffec0e8d9725399b865fee159a395fb76a417cfa019",
      "assetIds": [
        "55464657044963196816950587289035428064568320970692304673817341489687941879808",
        "55464657044963196816950587289035428064568320970692304673817341489687933519880",
        "55464657044963196816950587289035428064568320970692304673817341489687933519882",
        "55464657044963196816950587289035428064568320970692304673817341489687933519886",
        "55464657044963196816950587289035428064568320970692304673817341489687933519883"
      ]
    },
    {
      "x": 9,
      "y": 61,
      "size": 1,
      "price": "4683000000000000000000",
      "reserved": "",
      "salt": "0x4b3956052fe1f085a8450bf3371bd9a4ae5b6c56d306770ba80e98795265e665",
      "assetIds": [
        "55464657044963196816950587289035428064568320970692304673817341489687941879808",
        "55464657044963196816950587289035428064568320970692304673817341489687933519880",
        "55464657044963196816950587289035428064568320970692304673817341489687933519882",
        "55464657044963196816950587289035428064568320970692304673817341489687933519886",
        "55464657044963196816950587289035428064568320970692304673817341489687933519883"
      ]
    },
    {
      "x": 9,
      "y": 62,
      "size": 1,
      "price": "4683000000000000000000",
      "reserved": "",
      "salt": "0xc4330f7bdf462a18fb1ae7ffa70a1f47391cbe8810f689b01ead5c3e3df18b15",
      "assetIds": [
        "55464657044963196816950587289035428064568320970692304673817341489687941879808",
        "55464657044963196816950587289035428064568320970692304673817341489687933519880",
        "55464657044963196816950587289035428064568320970692304673817341489687933519882",
        "55464657044963196816950587289035428064568320970692304673817341489687933519886",
        "55464657044963196816950587289035428064568320970692304673817341489687933519883"
      ]
    },
    {
      "x": 9,
      "y": 63,
      "size": 1,
      "price": "1011000000000000000000",
      "reserved": "0x7a9fe22691c811ea339d9b73150e6911a5343dca",
      "salt": "0xf46c19a02482a8596e798aa4c70783b76b2c8c337da12bad96232c77e8ff532a",
      "assetIds": []
    },
    {
      "x": 9,
      "y": 64,
      "size": 1,
      "price": "4683000000000000000000",
      "reserved": "",
      "salt": "0x518e32ff214dfa336eb46773fdf9404b4863ca675c1db3994cde88cb31dfd558",
      "assetIds": [
        "55464657044963196816950587289035428064568320970692304673817341489687941879808",
        "55464657044963196816950587289035428064568320970692304673817341489687933519880",
        "55464657044963196816950587289035428064568320970692304673817341489687933519882",
        "55464657044963196816950587289035428064568320970692304673817341489687933519886",
        "55464657044963196816950587289035428064568320970692304673817341489687933519883"
      ]
    },
    {
      "x": 9,
      "y": 65,
      "size": 1,
      "price": "4683000000000000000000",
      "reserved": "",
      "salt": "0xd29ff4006993793032ac3f423a3be2a20dd8be86281b3503e51e7f5ed287ff42",
      "assetIds": [
        "55464657044963196816950587289035428064568320970692304673817341489687941879808",
        "55464657044963196816950587289035428064568320970692304673817341489687933519880",
        "55464657044963196816950587289035428064568320970692304673817341489687933519882",
        "55464657044963196816950587289035428064568320970692304673817341489687933519886",
        "55464657044963196816950587289035428064568320970692304673817341489687933519883"
      ]
    },
    {
      "x": 9,
      "y": 66,
      "size": 1,
      "price": "4683000000000000000000",
      "reserved": "",
      "salt": "0xc9ff3aed8491554d52908c216b5e6c4459b11ce2b8fd3d02ffedf1d0d12eb71e",
      "assetIds": [
        "55464657044963196816950587289035428064568320970692304673817341489687941879808",
        "55464657044963196816950587289035428064568320970692304673817341489687933519880",
        "55464657044963196816950587289035428064568320970692304673817341489687933519882",
        "55464657044963196816950587289035428064568320970692304673817341489687933519886",
        "55464657044963196816950587289035428064568320970692304673817341489687933519883"
      ]
    },
    {
      "x": 9,
      "y": 67,
      "size": 1,
      "price": "1011000000000000000000",
      "reserved": "",
      "salt": "0xed01f5b177bfcfc3de59cb14066adc67ef8ff7d95f4271eb6906d55ea5cc0e02",
      "assetIds": []
    },
    {
      "x": 9,
      "y": 68,
      "size": 1,
      "price": "1011000000000000000000",
      "reserved": "0x7a9fe22691c811ea339d9b73150e6911a5343dca",
      "salt": "0xffee76325d22319877de407785a49a16e2819b9777a4aefbc71349315c2318af",
      "assetIds": []
    },
    {
      "x": 9,
      "y": 69,
      "size": 1,
      "price": "1011000000000000000000",
      "reserved": "",
      "salt": "0x1d19c05783661f9772ec0d97c9425250dc951588201370b8bb4848c032282963",
      "assetIds": []
    },
    {
      "x": 9,
      "y": 70,
      "size": 1,
      "price": "1011000000000000000000",
      "reserved": "",
      "salt": "0x9e4286813127e3df8d671619c7133cf1fa084042dd6e11372a1fbadbbe91687b",
      "assetIds": []
    },
    {
      "x": 9,
      "y": 71,
      "size": 1,
      "price": "1011000000000000000000",
      "reserved": "",
      "salt": "0x7e6e69b124076a592ee814b1d3b3981dadb1510973c8d0098f8b2c130439420e",
      "assetIds": []
    },
    {
      "x": 9,
      "y": 90,
      "size": 1,
      "price": "1011000000000000000000",
      "reserved": "",
      "salt": "0xa709c44625bcbcfa0945fd475359b095a2609507779f1b05caa5944574785cab",
      "assetIds": []
    },
    {
      "x": 9,
      "y": 91,
      "size": 1,
      "price": "1011000000000000000000",
      "reserved": "",
      "salt": "0x44b368f058e83b8ef337ea210444bba56b48c068d9210275de4030ec39a10bb8",
      "assetIds": []
    },
    {
      "x": 9,
      "y": 92,
      "size": 1,
      "price": "1011000000000000000000",
      "reserved": "",
      "salt": "0xf2b27c8b31f70ccc3387f3b3d9e7db7ff36439907129f7e3e383e68bf840a3fa",
      "assetIds": []
    },
    {
      "x": 9,
      "y": 93,
      "size": 1,
      "price": "1011000000000000000000",
      "reserved": "",
      "salt": "0x8b4538da52f91b5fc2f70d1ed1142b6f078e29b8b9e5d448b872305241a301df",
      "assetIds": []
    },
    {
      "x": 9,
      "y": 94,
      "size": 1,
      "price": "1011000000000000000000",
      "reserved": "",
      "salt": "0xe41d486b3482d54452024e128343d72cbc712727373f1710809783654b3b17e4",
      "assetIds": []
    },
    {
      "x": 9,
      "y": 95,
      "size": 1,
      "price": "1011000000000000000000",
      "reserved": "0x7a9fe22691c811ea339d9b73150e6911a5343dca",
      "salt": "0x102c604dd5a291d91d56666772e46f1d625ac4a9ee07e47e244254555b6bf50b",
      "assetIds": []
    },
    {
      "x": 10,
      "y": 39,
      "size": 1,
      "price": "1011000000000000000000",
      "reserved": "0x7a9fe22691c811ea339d9b73150e6911a5343dca",
      "salt": "0xa37c107fbfe4e4f7306ddb5ca1e8f02d512aaab934e03725e568f931243bfc58",
      "assetIds": []
    },
    {
      "x": 10,
      "y": 40,
      "size": 1,
      "price": "1011000000000000000000",
      "reserved": "",
      "salt": "0xd63c211f66ecb389d8d832b96efc262480f3c6163e1f64ef335cd4780ad7bbc9",
      "assetIds": []
    },
    {
      "x": 10,
      "y": 41,
      "size": 1,
      "price": "1011000000000000000000",
      "reserved": "",
      "salt": "0x1cc252551298294430251330f6c8a3dd2035a74b28aae094b0bd4a2fff56d27c",
      "assetIds": []
    },
    {
      "x": 10,
      "y": 45,
      "size": 1,
      "price": "1011000000000000000000",
      "reserved": "",
      "salt": "0x671cec98c369b1b6681e043f2c5936beeaacbb2f1acc76a64c20b71f482b29a5",
      "assetIds": []
    },
    {
      "x": 10,
      "y": 46,
      "size": 1,
      "price": "1011000000000000000000",
      "reserved": "",
      "salt": "0x01de05c28a12719ad22bfbc3800852fb6ec0252a82a5697d312894c078761f7a",
      "assetIds": []
    },
    {
      "x": 10,
      "y": 47,
      "size": 1,
      "price": "1011000000000000000000",
      "reserved": "",
      "salt": "0x03cac3c089aa87e651c92b7fd3bcf83ca6cc9076752b31ec4ec8b0547804ab46",
      "assetIds": []
    },
    {
      "x": 10,
      "y": 48,
      "size": 1,
      "price": "1011000000000000000000",
      "reserved": "",
      "salt": "0x44bc0a6d5b240047a1d934241cf5db996fe69553c1d8c367e12025fee70685a8",
      "assetIds": []
    },
    {
      "x": 10,
      "y": 49,
      "size": 1,
      "price": "1011000000000000000000",
      "reserved": "0x7a9fe22691c811ea339d9b73150e6911a5343dca",
      "salt": "0x34c31bc68da0d89ca0c6d6de546aa43b485814ba8e6ba90d8d5745db97d38620",
      "assetIds": []
    },
    {
      "x": 10,
      "y": 50,
      "size": 1,
      "price": "1011000000000000000000",
      "reserved": "",
      "salt": "0x1d4f3a0997c6ee1401d2c4309b791c98a89024121ea335a414dd933a8703e36e",
      "assetIds": []
    },
    {
      "x": 10,
      "y": 51,
      "size": 1,
      "price": "1011000000000000000000",
      "reserved": "",
      "salt": "0x0aa5e4b944318dd469c4ee3b5d0f3132470f4a5fc82d6a0b1b8aa3b90017aa73",
      "assetIds": []
    },
    {
      "x": 10,
      "y": 52,
      "size": 1,
      "price": "1011000000000000000000",
      "reserved": "0x7a9fe22691c811ea339d9b73150e6911a5343dca",
      "salt": "0x2bbbe7994cb0396934f69e24a1aeadc5d0324e96e4568a75c0289f289bc1211d",
      "assetIds": []
    },
    {
      "x": 10,
      "y": 53,
      "size": 1,
      "price": "1011000000000000000000",
      "reserved": "",
      "salt": "0xf18fd97cd7ac7509903c3e59ad3e5d89ff95f58b817e209c79a1530722095c7e",
      "assetIds": []
    },
    {
      "x": 10,
      "y": 60,
      "size": 1,
      "price": "4683000000000000000000",
      "reserved": "",
      "salt": "0x9af28a64fcfcc3d1a977e1ea6778f479fab8a928eeab523f151bd1ad39583869",
      "assetIds": [
        "55464657044963196816950587289035428064568320970692304673817341489687941879808",
        "55464657044963196816950587289035428064568320970692304673817341489687933519880",
        "55464657044963196816950587289035428064568320970692304673817341489687933519882",
        "55464657044963196816950587289035428064568320970692304673817341489687933519886",
        "55464657044963196816950587289035428064568320970692304673817341489687933519883"
      ]
    },
    {
      "x": 10,
      "y": 61,
      "size": 1,
      "price": "4683000000000000000000",
      "reserved": "",
      "salt": "0x5e03e58bc50631dc9ccf0e818ba0d4c3b3a0c349f1941ae398154ded68d90b2a",
      "assetIds": [
        "55464657044963196816950587289035428064568320970692304673817341489687941879808",
        "55464657044963196816950587289035428064568320970692304673817341489687933519880",
        "55464657044963196816950587289035428064568320970692304673817341489687933519882",
        "55464657044963196816950587289035428064568320970692304673817341489687933519886",
        "55464657044963196816950587289035428064568320970692304673817341489687933519883"
      ]
    },
    {
      "x": 10,
      "y": 62,
      "size": 1,
      "price": "4683000000000000000000",
      "reserved": "",
      "salt": "0x1ba907709487f8098a3bfd44fe2f03660ef89dbe4e033cb6635cd590c5bf28ee",
      "assetIds": [
        "55464657044963196816950587289035428064568320970692304673817341489687941879808",
        "55464657044963196816950587289035428064568320970692304673817341489687933519880",
        "55464657044963196816950587289035428064568320970692304673817341489687933519882",
        "55464657044963196816950587289035428064568320970692304673817341489687933519886",
        "55464657044963196816950587289035428064568320970692304673817341489687933519883"
      ]
    },
    {
      "x": 10,
      "y": 63,
      "size": 1,
      "price": "4683000000000000000000",
      "reserved": "",
      "salt": "0x45cc6a82280766fc9f28678c0b5eeb074a7f7ce154fdd5f9a09d025c8f232187",
      "assetIds": [
        "55464657044963196816950587289035428064568320970692304673817341489687941879808",
        "55464657044963196816950587289035428064568320970692304673817341489687933519880",
        "55464657044963196816950587289035428064568320970692304673817341489687933519882",
        "55464657044963196816950587289035428064568320970692304673817341489687933519886",
        "55464657044963196816950587289035428064568320970692304673817341489687933519883"
      ]
    },
    {
      "x": 10,
      "y": 64,
      "size": 1,
      "price": "4683000000000000000000",
      "reserved": "",
      "salt": "0x4c4778fce019a7d207e02cd81e08e2e9c0c77c8737a4960ad928b6469b3d1c28",
      "assetIds": [
        "55464657044963196816950587289035428064568320970692304673817341489687941879808",
        "55464657044963196816950587289035428064568320970692304673817341489687933519880",
        "55464657044963196816950587289035428064568320970692304673817341489687933519882",
        "55464657044963196816950587289035428064568320970692304673817341489687933519886",
        "55464657044963196816950587289035428064568320970692304673817341489687933519883"
      ]
    },
    {
      "x": 10,
      "y": 65,
      "size": 1,
      "price": "4683000000000000000000",
      "reserved": "",
      "salt": "0x846f152c7c3fdb78a0ea54743688439923eb0c145fa8a8a356a0545de5ddc64b",
      "assetIds": [
        "55464657044963196816950587289035428064568320970692304673817341489687941879808",
        "55464657044963196816950587289035428064568320970692304673817341489687933519880",
        "55464657044963196816950587289035428064568320970692304673817341489687933519882",
        "55464657044963196816950587289035428064568320970692304673817341489687933519886",
        "55464657044963196816950587289035428064568320970692304673817341489687933519883"
      ]
    },
    {
      "x": 10,
      "y": 66,
      "size": 1,
      "price": "4683000000000000000000",
      "reserved": "",
      "salt": "0xcc6ec37b4b53562d62c0093b524f3d1de4a56b264e0c73f534381171f28a1a06",
      "assetIds": [
        "55464657044963196816950587289035428064568320970692304673817341489687941879808",
        "55464657044963196816950587289035428064568320970692304673817341489687933519880",
        "55464657044963196816950587289035428064568320970692304673817341489687933519882",
        "55464657044963196816950587289035428064568320970692304673817341489687933519886",
        "55464657044963196816950587289035428064568320970692304673817341489687933519883"
      ]
    },
    {
      "x": 10,
      "y": 67,
      "size": 1,
      "price": "1011000000000000000000",
      "reserved": "",
      "salt": "0xe83022a7d6901b7dbe99de968232083c854c0f5c2031e2db2e8b5207969d8496",
      "assetIds": []
    },
    {
      "x": 10,
      "y": 68,
      "size": 1,
      "price": "1011000000000000000000",
      "reserved": "",
      "salt": "0x00a9d4940b8f5b64c51e94883acce3b5eecaec93f9c1e46685cac139d72558d5",
      "assetIds": []
    },
    {
      "x": 10,
      "y": 69,
      "size": 1,
      "price": "1011000000000000000000",
      "reserved": "",
      "salt": "0x7ac8be27ae3d4b85b985baacdbec888812d56272953a2f702feaa6eb7ac6786a",
      "assetIds": []
    },
    {
      "x": 10,
      "y": 70,
      "size": 1,
      "price": "1011000000000000000000",
      "reserved": "",
      "salt": "0x53bb78b988cb56d4068c9c72bc79cf952afb7ba36290c218ca690c2064201997",
      "assetIds": []
    },
    {
      "x": 10,
      "y": 71,
      "size": 1,
      "price": "1011000000000000000000",
      "reserved": "",
      "salt": "0xd3d41425e848065348ffda86bae1e8fd86ef824dd51f0951e94aec8da8c64df7",
      "assetIds": []
    },
    {
      "x": 10,
      "y": 90,
      "size": 1,
      "price": "1011000000000000000000",
      "reserved": "",
      "salt": "0xfee0b5de3c9bcd5a4ea2a4a1432eeefe3062088797df8e327f272916f12cbba1",
      "assetIds": []
    },
    {
      "x": 10,
      "y": 91,
      "size": 1,
      "price": "1011000000000000000000",
      "reserved": "",
      "salt": "0x638e062184c768ca9164545b9f259086bf49539065dfef019e492ce3583ddff7",
      "assetIds": []
    },
    {
      "x": 10,
      "y": 92,
      "size": 1,
      "price": "1011000000000000000000",
      "reserved": "",
      "salt": "0xb9c6fcaa4aa702f66fdb6d4e2081ec6c46412a83552e9351840e5995918022ba",
      "assetIds": []
    },
    {
      "x": 10,
      "y": 93,
      "size": 1,
      "price": "1011000000000000000000",
      "reserved": "",
      "salt": "0x7fb60107798005373babd9c53d75236cd937155226837bae8d3400ef5b2468dc",
      "assetIds": []
    },
    {
      "x": 10,
      "y": 94,
      "size": 1,
      "price": "1011000000000000000000",
      "reserved": "",
      "salt": "0xfdd924d92ec20c4f48791dd35d39da6a60f8ac03ea01dfeb266dea237c4471cf",
      "assetIds": []
    },
    {
      "x": 10,
      "y": 95,
      "size": 1,
      "price": "1011000000000000000000",
      "reserved": "",
      "salt": "0xf0f192b59b79ab7d66fcc69db0bb420cdcfc82c6cd5e310fa3382f0a61755ed7",
      "assetIds": []
    },
    {
      "x": 11,
      "y": 39,
      "size": 1,
      "price": "1011000000000000000000",
      "reserved": "0x7a9fe22691c811ea339d9b73150e6911a5343dca",
      "salt": "0x61779db356195d4573b25b0267fa74077c9f9d22f84347bd65dd92ec98f2e0b2",
      "assetIds": []
    },
    {
      "x": 11,
      "y": 40,
      "size": 1,
      "price": "1011000000000000000000",
      "reserved": "",
      "salt": "0xc5b98729535af899e4a67973354652593164c9e7a8ef2f679b7954541646cb29",
      "assetIds": []
    },
    {
      "x": 11,
      "y": 41,
      "size": 1,
      "price": "1011000000000000000000",
      "reserved": "",
      "salt": "0x0e6928df3e5d7230da380958548c5341d6f24919830995e241d242ca8e2c0a3a",
      "assetIds": []
    },
    {
      "x": 11,
      "y": 45,
      "size": 1,
      "price": "1011000000000000000000",
      "reserved": "",
      "salt": "0x8e7716cf608b8e3f0bdd7eefa582573713f448cd92d827327d1e642ded2a04e9",
      "assetIds": []
    },
    {
      "x": 11,
      "y": 46,
      "size": 1,
      "price": "1011000000000000000000",
      "reserved": "",
      "salt": "0x06ec3501f97ed94dd3d9791ffc080710d2c83762603baace1687737b9eee52a2",
      "assetIds": []
    },
    {
      "x": 11,
      "y": 47,
      "size": 1,
      "price": "1011000000000000000000",
      "reserved": "",
      "salt": "0xcb2c527b8483d5e4c4adb558b43e499305d5b03fb009d55ca7046a4f9ad44e48",
      "assetIds": []
    },
    {
      "x": 11,
      "y": 48,
      "size": 1,
      "price": "1011000000000000000000",
      "reserved": "",
      "salt": "0xb3f598c0fa3bc6b49e4016a754b4829ea3e6e3df1baf5f045f5cbd0a78d075ee",
      "assetIds": []
    },
    {
      "x": 11,
      "y": 49,
      "size": 1,
      "price": "1011000000000000000000",
      "reserved": "",
      "salt": "0xd287356f7ff19ed068d6df6afc63e5fbec9abe29acfc365a88a3d8f8ce2c5968",
      "assetIds": []
    },
    {
      "x": 11,
      "y": 50,
      "size": 1,
      "price": "1011000000000000000000",
      "reserved": "",
      "salt": "0x88f37f1b5768743287c357305937bc58dede28bc6a27055b0d9bb28f6f114c56",
      "assetIds": []
    },
    {
      "x": 11,
      "y": 51,
      "size": 1,
      "price": "1011000000000000000000",
      "reserved": "",
      "salt": "0xce4f905f72cf4e6f7b850ff78b8fb50916032e58bfc694c95a4bf3ef3244cb86",
      "assetIds": []
    },
    {
      "x": 11,
      "y": 52,
      "size": 1,
      "price": "4683000000000000000000",
      "reserved": "",
      "salt": "0xe3698eba77d5a91787154a83567eb624653d86fe598768e47bb1f0a832222852",
      "assetIds": [
        "55464657044963196816950587289035428064568320970692304673817341489687941879808",
        "55464657044963196816950587289035428064568320970692304673817341489687933519880",
        "55464657044963196816950587289035428064568320970692304673817341489687933519882",
        "55464657044963196816950587289035428064568320970692304673817341489687933519886",
        "55464657044963196816950587289035428064568320970692304673817341489687933519883"
      ]
    },
    {
      "x": 11,
      "y": 53,
      "size": 1,
      "price": "4683000000000000000000",
      "reserved": "",
      "salt": "0x0be3748838f54231cd2fc775cf2107deafa9d641febffff86802c1f4e13c62c1",
      "assetIds": [
        "55464657044963196816950587289035428064568320970692304673817341489687941879808",
        "55464657044963196816950587289035428064568320970692304673817341489687933519880",
        "55464657044963196816950587289035428064568320970692304673817341489687933519882",
        "55464657044963196816950587289035428064568320970692304673817341489687933519886",
        "55464657044963196816950587289035428064568320970692304673817341489687933519883"
      ]
    },
    {
      "x": 11,
      "y": 60,
      "size": 1,
      "price": "4683000000000000000000",
      "reserved": "",
      "salt": "0x23538dfd7c84eff34d69b46a189cfa7fd1249dd09f2e54a4e455a5cef6d9a334",
      "assetIds": [
        "55464657044963196816950587289035428064568320970692304673817341489687941879808",
        "55464657044963196816950587289035428064568320970692304673817341489687933519880",
        "55464657044963196816950587289035428064568320970692304673817341489687933519882",
        "55464657044963196816950587289035428064568320970692304673817341489687933519886",
        "55464657044963196816950587289035428064568320970692304673817341489687933519883"
      ]
    },
    {
      "x": 11,
      "y": 61,
      "size": 1,
      "price": "4683000000000000000000",
      "reserved": "",
      "salt": "0xe8fb3142c663fa2d8a3b9a00d3847b2b04a15d64fa4ba6621a9ba4d7de4ebf52",
      "assetIds": [
        "55464657044963196816950587289035428064568320970692304673817341489687941879808",
        "55464657044963196816950587289035428064568320970692304673817341489687933519880",
        "55464657044963196816950587289035428064568320970692304673817341489687933519882",
        "55464657044963196816950587289035428064568320970692304673817341489687933519886",
        "55464657044963196816950587289035428064568320970692304673817341489687933519883"
      ]
    },
    {
      "x": 11,
      "y": 62,
      "size": 1,
      "price": "4683000000000000000000",
      "reserved": "",
      "salt": "0x1bf628cff75d6867a3d60e03e8d7d62119a1bf52be1a594721f025103ee0383c",
      "assetIds": [
        "55464657044963196816950587289035428064568320970692304673817341489687941879808",
        "55464657044963196816950587289035428064568320970692304673817341489687933519880",
        "55464657044963196816950587289035428064568320970692304673817341489687933519882",
        "55464657044963196816950587289035428064568320970692304673817341489687933519886",
        "55464657044963196816950587289035428064568320970692304673817341489687933519883"
      ]
    },
    {
      "x": 11,
      "y": 63,
      "size": 1,
      "price": "4683000000000000000000",
      "reserved": "",
      "salt": "0xf0bc8576bb86912ffbcd960944835199600d477cfce018636dc9259385ebd133",
      "assetIds": [
        "55464657044963196816950587289035428064568320970692304673817341489687941879808",
        "55464657044963196816950587289035428064568320970692304673817341489687933519880",
        "55464657044963196816950587289035428064568320970692304673817341489687933519882",
        "55464657044963196816950587289035428064568320970692304673817341489687933519886",
        "55464657044963196816950587289035428064568320970692304673817341489687933519883"
      ]
    },
    {
      "x": 11,
      "y": 64,
      "size": 1,
      "price": "4683000000000000000000",
      "reserved": "",
      "salt": "0x8d7605c6c0778a59e13f8caf195d019eb2319f265028c5852ac9499e3796612d",
      "assetIds": [
        "55464657044963196816950587289035428064568320970692304673817341489687941879808",
        "55464657044963196816950587289035428064568320970692304673817341489687933519880",
        "55464657044963196816950587289035428064568320970692304673817341489687933519882",
        "55464657044963196816950587289035428064568320970692304673817341489687933519886",
        "55464657044963196816950587289035428064568320970692304673817341489687933519883"
      ]
    },
    {
      "x": 11,
      "y": 65,
      "size": 1,
      "price": "4683000000000000000000",
      "reserved": "",
      "salt": "0xebf37266ad19ffc921b98d5dea497aef6c24fd9dc9aabc0aeb93b0db195f7faa",
      "assetIds": [
        "55464657044963196816950587289035428064568320970692304673817341489687941879808",
        "55464657044963196816950587289035428064568320970692304673817341489687933519880",
        "55464657044963196816950587289035428064568320970692304673817341489687933519882",
        "55464657044963196816950587289035428064568320970692304673817341489687933519886",
        "55464657044963196816950587289035428064568320970692304673817341489687933519883"
      ]
    },
    {
      "x": 11,
      "y": 66,
      "size": 1,
      "price": "1011000000000000000000",
      "reserved": "0x7a9fe22691c811ea339d9b73150e6911a5343dca",
      "salt": "0x0f13ee6d2e543d4fa85633787028901098d01d3595b435c29845c7774dfc779a",
      "assetIds": []
    },
    {
      "x": 11,
      "y": 67,
      "size": 1,
      "price": "1011000000000000000000",
      "reserved": "",
      "salt": "0x1caaa27ac744a925dceeeabb0bf9396f3d1e47070f5d537800d86a8a3dfb47b2",
      "assetIds": []
    },
    {
      "x": 11,
      "y": 68,
      "size": 1,
      "price": "1011000000000000000000",
      "reserved": "",
      "salt": "0x37b49458a2b1042b3baed4fb24ffbe7ac2df5ee2511d8f46ebce43444ff22241",
      "assetIds": []
    },
    {
      "x": 11,
      "y": 69,
      "size": 1,
      "price": "1011000000000000000000",
      "reserved": "",
      "salt": "0xc81a2e2b8a08098293768024b4f8218513c47224615ef7d4f96d4cf829ddd1f8",
      "assetIds": []
    },
    {
      "x": 11,
      "y": 70,
      "size": 1,
      "price": "1011000000000000000000",
      "reserved": "",
      "salt": "0x29d83049060393285c6d87bbf0afb4ad0623b29e5cb89d326feb9da674129410",
      "assetIds": []
    },
    {
      "x": 11,
      "y": 71,
      "size": 1,
      "price": "1011000000000000000000",
      "reserved": "",
      "salt": "0x850a51c654dc71abb684826b30101e25b811183139205baf1daa6a60726e9838",
      "assetIds": []
    },
    {
      "x": 11,
      "y": 90,
      "size": 1,
      "price": "1011000000000000000000",
      "reserved": "",
      "salt": "0x0b99241d2080cb34b0af4d9bcec5629cc177a0698a00e1eb2fc7303da8ebc9cd",
      "assetIds": []
    },
    {
      "x": 11,
      "y": 91,
      "size": 1,
      "price": "1011000000000000000000",
      "reserved": "",
      "salt": "0x995a6e6b70527449aa7b8e8ce5b62a5af0a4d78172e93bf61611ba15201da97d",
      "assetIds": []
    },
    {
      "x": 11,
      "y": 92,
      "size": 1,
      "price": "1011000000000000000000",
      "reserved": "",
      "salt": "0x42d572e73c1e67c23e268a3f3145702e37896dbaab35152cc9ab71c14cf175bf",
      "assetIds": []
    },
    {
      "x": 11,
      "y": 93,
      "size": 1,
      "price": "1011000000000000000000",
      "reserved": "",
      "salt": "0x679aa2caff1c32c2ce358d06567e6e8d4ba56dea6b6e401f51a1d07e17273714",
      "assetIds": []
    },
    {
      "x": 11,
      "y": 94,
      "size": 1,
      "price": "1011000000000000000000",
      "reserved": "",
      "salt": "0x401bbbe1b8a0d06860bf314bae9854940975cb1ae5c826bb016a55a3603f6ac5",
      "assetIds": []
    },
    {
      "x": 11,
      "y": 95,
      "size": 1,
      "price": "1011000000000000000000",
      "reserved": "0x7a9fe22691c811ea339d9b73150e6911a5343dca",
      "salt": "0xc25a7961da5c714817a23743b9728d8597566da29f9a6b59434ba4ca5fec661a",
      "assetIds": []
    },
    {
      "x": 12,
      "y": 39,
      "size": 1,
      "price": "1011000000000000000000",
      "reserved": "0x7a9fe22691c811ea339d9b73150e6911a5343dca",
      "salt": "0xe95549a0eeac461467c92fd1d24eddb7d17a7a539a5b3c7e278eb58b82d37264",
      "assetIds": []
    },
    {
      "x": 12,
      "y": 40,
      "size": 1,
      "price": "1011000000000000000000",
      "reserved": "",
      "salt": "0xc83224a4fd805e8c58dfa702853e49dde5a9da53012ae9da039ca9a63b97b29b",
      "assetIds": []
    },
    {
      "x": 12,
      "y": 41,
      "size": 1,
      "price": "1011000000000000000000",
      "reserved": "",
      "salt": "0xef658c8838c0ef6f29b512143f4b3ddded9ea20b16a02a6f863516b9e024fc37",
      "assetIds": []
    },
    {
      "x": 12,
      "y": 42,
      "size": 1,
      "price": "1011000000000000000000",
      "reserved": "",
      "salt": "0xf63aab2cf6bf2da2fab189459ab1ccb222e722ae62be2ee064f27c5fff81d39c",
      "assetIds": []
    },
    {
      "x": 12,
      "y": 43,
      "size": 1,
      "price": "1011000000000000000000",
      "reserved": "",
      "salt": "0xdd5bac5e22d3453d078551c18082295ccd7f998e5582666480acc512ada0c34e",
      "assetIds": []
    },
    {
      "x": 12,
      "y": 44,
      "size": 1,
      "price": "1011000000000000000000",
      "reserved": "0x7a9fe22691c811ea339d9b73150e6911a5343dca",
      "salt": "0xa6af6a6d7bafd0fe8746302b6f401f70b0e0f8d02ac620bbd2e8f05ce6b8f474",
      "assetIds": []
    },
    {
      "x": 12,
      "y": 45,
      "size": 1,
      "price": "1011000000000000000000",
      "reserved": "",
      "salt": "0xa7b18648ee832c4322de349e427d021c81b0e29b7e865b242aa05e80ffcd9ab9",
      "assetIds": []
    },
    {
      "x": 12,
      "y": 46,
      "size": 1,
      "price": "1011000000000000000000",
      "reserved": "",
      "salt": "0x6022816a9938a290ed78fc98be2ebf1dab9707b028764ae27d77dc80fdf0cdb5",
      "assetIds": []
    },
    {
      "x": 12,
      "y": 47,
      "size": 1,
      "price": "1011000000000000000000",
      "reserved": "0x7a9fe22691c811ea339d9b73150e6911a5343dca",
      "salt": "0xd3558296de76ead2836fe507ad1d45937313314bc0d88ae878abe766d4d10a6a",
      "assetIds": []
    },
    {
      "x": 12,
      "y": 48,
      "size": 1,
      "price": "1011000000000000000000",
      "reserved": "",
      "salt": "0x7f498bb2cc211c70ec1ae7f3eed4c63ea9c71e3676876b62eb1762a3327b79a7",
      "assetIds": []
    },
    {
      "x": 12,
      "y": 49,
      "size": 1,
      "price": "1011000000000000000000",
      "reserved": "0x7a9fe22691c811ea339d9b73150e6911a5343dca",
      "salt": "0x526b6bcca798d56373125b3bbef0ad7e03b7b3f448426a204379edd776575fec",
      "assetIds": []
    },
    {
      "x": 12,
      "y": 50,
      "size": 1,
      "price": "1011000000000000000000",
      "reserved": "",
      "salt": "0x411aa0106ca44c3cabd5f297ffe7592f7a9033bdfd5b4b2ebda94978873ad76e",
      "assetIds": []
    },
    {
      "x": 12,
      "y": 51,
      "size": 1,
      "price": "1011000000000000000000",
      "reserved": "0x7a9fe22691c811ea339d9b73150e6911a5343dca",
      "salt": "0xf6225e5a77f9f178c742f5dc538d8a4377542acdfc5340fcbc5388f0dd8d456a",
      "assetIds": []
    },
    {
      "x": 12,
      "y": 52,
      "size": 1,
      "price": "4683000000000000000000",
      "reserved": "",
      "salt": "0xda11f345f99d32bb718824e4fc32296708c5272cb40cc3a7607bbc208372a82f",
      "assetIds": [
        "55464657044963196816950587289035428064568320970692304673817341489687941879808",
        "55464657044963196816950587289035428064568320970692304673817341489687933519880",
        "55464657044963196816950587289035428064568320970692304673817341489687933519882",
        "55464657044963196816950587289035428064568320970692304673817341489687933519886",
        "55464657044963196816950587289035428064568320970692304673817341489687933519883"
      ]
    },
    {
      "x": 12,
      "y": 53,
      "size": 1,
      "price": "4683000000000000000000",
      "reserved": "",
      "salt": "0x840a91fdbd5822b196eb043a4fc5171c5b5b6c2b3edf455512c46b0f34fb98ee",
      "assetIds": [
        "55464657044963196816950587289035428064568320970692304673817341489687941879808",
        "55464657044963196816950587289035428064568320970692304673817341489687933519880",
        "55464657044963196816950587289035428064568320970692304673817341489687933519882",
        "55464657044963196816950587289035428064568320970692304673817341489687933519886",
        "55464657044963196816950587289035428064568320970692304673817341489687933519883"
      ]
    },
    {
      "x": 12,
      "y": 54,
      "size": 1,
      "price": "4683000000000000000000",
      "reserved": "",
      "salt": "0xdd0cda608c5bdbf577e18502b0a15e403eab6cee68589f7fde1ea128b80979ab",
      "assetIds": [
        "55464657044963196816950587289035428064568320970692304673817341489687941879808",
        "55464657044963196816950587289035428064568320970692304673817341489687933519880",
        "55464657044963196816950587289035428064568320970692304673817341489687933519882",
        "55464657044963196816950587289035428064568320970692304673817341489687933519886",
        "55464657044963196816950587289035428064568320970692304673817341489687933519883"
      ]
    },
    {
      "x": 12,
      "y": 55,
      "size": 1,
      "price": "4683000000000000000000",
      "reserved": "",
      "salt": "0x03588a95156ef0cbeb2faefbf719a21efac5410ec8fa1cc73ad0e325eb9dda0c",
      "assetIds": [
        "55464657044963196816950587289035428064568320970692304673817341489687941879808",
        "55464657044963196816950587289035428064568320970692304673817341489687933519880",
        "55464657044963196816950587289035428064568320970692304673817341489687933519882",
        "55464657044963196816950587289035428064568320970692304673817341489687933519886",
        "55464657044963196816950587289035428064568320970692304673817341489687933519883"
      ]
    },
    {
      "x": 12,
      "y": 56,
      "size": 1,
      "price": "4683000000000000000000",
      "reserved": "",
      "salt": "0xd30d007fd839a31f2400f1b9297f535cff61e1b1f7a5c6fb7ceac470cc187946",
      "assetIds": [
        "55464657044963196816950587289035428064568320970692304673817341489687941879808",
        "55464657044963196816950587289035428064568320970692304673817341489687933519880",
        "55464657044963196816950587289035428064568320970692304673817341489687933519882",
        "55464657044963196816950587289035428064568320970692304673817341489687933519886",
        "55464657044963196816950587289035428064568320970692304673817341489687933519883"
      ]
    },
    {
      "x": 12,
      "y": 63,
      "size": 1,
      "price": "4683000000000000000000",
      "reserved": "",
      "salt": "0x86f608abfacf401a9c091cc0b31185866ac663566e1e58ef00db6fa14642e3e8",
      "assetIds": [
        "55464657044963196816950587289035428064568320970692304673817341489687941879808",
        "55464657044963196816950587289035428064568320970692304673817341489687933519880",
        "55464657044963196816950587289035428064568320970692304673817341489687933519882",
        "55464657044963196816950587289035428064568320970692304673817341489687933519886",
        "55464657044963196816950587289035428064568320970692304673817341489687933519883"
      ]
    },
    {
      "x": 12,
      "y": 64,
      "size": 1,
      "price": "4683000000000000000000",
      "reserved": "",
      "salt": "0xe72acd0dc77d5111ab3d478e030ae29f27ac45e4f37faa605f1b0fa8b546c983",
      "assetIds": [
        "55464657044963196816950587289035428064568320970692304673817341489687941879808",
        "55464657044963196816950587289035428064568320970692304673817341489687933519880",
        "55464657044963196816950587289035428064568320970692304673817341489687933519882",
        "55464657044963196816950587289035428064568320970692304673817341489687933519886",
        "55464657044963196816950587289035428064568320970692304673817341489687933519883"
      ]
    },
    {
      "x": 12,
      "y": 65,
      "size": 1,
      "price": "4683000000000000000000",
      "reserved": "",
      "salt": "0x22f3215c561f36c04bc6ace02435e7c28c9bf2b1d16e6baee9e6bd1ac6f68b3f",
      "assetIds": [
        "55464657044963196816950587289035428064568320970692304673817341489687941879808",
        "55464657044963196816950587289035428064568320970692304673817341489687933519880",
        "55464657044963196816950587289035428064568320970692304673817341489687933519882",
        "55464657044963196816950587289035428064568320970692304673817341489687933519886",
        "55464657044963196816950587289035428064568320970692304673817341489687933519883"
      ]
    },
    {
      "x": 12,
      "y": 66,
      "size": 1,
      "price": "4683000000000000000000",
      "reserved": "",
      "salt": "0xbd26b3027643379c83362142debc485a32261dfbf0ada6474043f95b5508b69b",
      "assetIds": [
        "55464657044963196816950587289035428064568320970692304673817341489687941879808",
        "55464657044963196816950587289035428064568320970692304673817341489687933519880",
        "55464657044963196816950587289035428064568320970692304673817341489687933519882",
        "55464657044963196816950587289035428064568320970692304673817341489687933519886",
        "55464657044963196816950587289035428064568320970692304673817341489687933519883"
      ]
    },
    {
      "x": 12,
      "y": 67,
      "size": 1,
      "price": "1011000000000000000000",
      "reserved": "",
      "salt": "0x324ba1259368993340aa10ade71ba08f34cf529a128c6272fe082d05a7e50b71",
      "assetIds": []
    },
    {
      "x": 12,
      "y": 68,
      "size": 1,
      "price": "1011000000000000000000",
      "reserved": "",
      "salt": "0x74b656087bfcf2fb5a51dec23f7dd60c0f1cb44c81d8c2be9b9038847854e87a",
      "assetIds": []
    },
    {
      "x": 12,
      "y": 69,
      "size": 1,
      "price": "1011000000000000000000",
      "reserved": "",
      "salt": "0xc3e25199d5fd6a1510970ba2b45c516a867fc628e07466453be2f9340c20c1b7",
      "assetIds": []
    },
    {
      "x": 12,
      "y": 70,
      "size": 1,
      "price": "1011000000000000000000",
      "reserved": "",
      "salt": "0xcfa3c2448beeb6cc50e53b43d4f3171e6065f4790b46ed1e7c09b340b6544807",
      "assetIds": []
    },
    {
      "x": 12,
      "y": 71,
      "size": 1,
      "price": "1011000000000000000000",
      "reserved": "",
      "salt": "0xbfa08dbae0846ee31d5eafd36cc7ddb2c567c487fafcd6ee6ddaab6a0dc73730",
      "assetIds": []
    },
    {
      "x": 12,
      "y": 78,
      "size": 1,
      "price": "1011000000000000000000",
      "reserved": "",
      "salt": "0x31f1982dde56d68b01940d1b0b5bab774fa2d4e801e2a35071e9a7ae1fb73632",
      "assetIds": []
    },
    {
      "x": 12,
      "y": 79,
      "size": 1,
      "price": "1011000000000000000000",
      "reserved": "",
      "salt": "0x206122a41000320e1c4735a144f53d1f8b9315456f6ed574025f0163b51418c1",
      "assetIds": []
    },
    {
      "x": 12,
      "y": 80,
      "size": 1,
      "price": "1011000000000000000000",
      "reserved": "0x7a9fe22691c811ea339d9b73150e6911a5343dca",
      "salt": "0x83ccd8d1b6a3532ef9ac5ab6be3435c7393868bf2183cab697f09011cd295dba",
      "assetIds": []
    },
    {
      "x": 12,
      "y": 81,
      "size": 1,
      "price": "1011000000000000000000",
      "reserved": "",
      "salt": "0x643b27e8c784a972208728419bbda46a0c417d3a696dcee56aeb2298d7b8ab0d",
      "assetIds": []
    },
    {
      "x": 12,
      "y": 82,
      "size": 1,
      "price": "1011000000000000000000",
      "reserved": "",
      "salt": "0xadbdb932f6da1437bfba9c20502b2b041e81f497ad49a81d07a40a1babd6fa30",
      "assetIds": []
    },
    {
      "x": 12,
      "y": 83,
      "size": 1,
      "price": "1011000000000000000000",
      "reserved": "",
      "salt": "0xa6f388f173a717ab4de4339db601ae92427b40481022c56be7ece8f818d01bed",
      "assetIds": []
    },
    {
      "x": 12,
      "y": 84,
      "size": 1,
      "price": "1011000000000000000000",
      "reserved": "",
      "salt": "0x926d233d5648cfe7aed2bf3ded0b7f704305cc085aa7baa789ea22f0868d7517",
      "assetIds": []
    },
    {
      "x": 12,
      "y": 85,
      "size": 1,
      "price": "1011000000000000000000",
      "reserved": "",
      "salt": "0x435142027d04d41badce5859c71558187d38ea1a91d14e0363ef261a75d9b02e",
      "assetIds": []
    },
    {
      "x": 12,
      "y": 86,
      "size": 1,
      "price": "1011000000000000000000",
      "reserved": "",
      "salt": "0x740868491e8f2f3395825e685d05387f2e455e78f4749d3d8255d4acb0c415ff",
      "assetIds": []
    },
    {
      "x": 12,
      "y": 87,
      "size": 1,
      "price": "1011000000000000000000",
      "reserved": "",
      "salt": "0x5d7215f3e42b5c6ba62802973d93351ec27594c2a65cae5d695831d3feddf14d",
      "assetIds": []
    },
    {
      "x": 12,
      "y": 88,
      "size": 1,
      "price": "1011000000000000000000",
      "reserved": "",
      "salt": "0xe85b3190721f57654233bca57841a226a5cb03675bd5f77ec62679cebcc7f403",
      "assetIds": []
    },
    {
      "x": 12,
      "y": 89,
      "size": 1,
      "price": "1011000000000000000000",
      "reserved": "",
      "salt": "0xb8d1196f0a0af03e0df49c23e16f799011ee7752fae1cfdeebdb8cabc485c17c",
      "assetIds": []
    },
    {
      "x": 12,
      "y": 90,
      "size": 1,
      "price": "1011000000000000000000",
      "reserved": "",
      "salt": "0x243521effb007a6db5c44dc44665fb8ffd80a7fb3965f897139439af84242622",
      "assetIds": []
    },
    {
      "x": 12,
      "y": 91,
      "size": 1,
      "price": "1011000000000000000000",
      "reserved": "0x7a9fe22691c811ea339d9b73150e6911a5343dca",
      "salt": "0xf628227cd2fbd695836a90b3850a2d9664b507dca08e15dbc60a014eddee0fa8",
      "assetIds": []
    },
    {
      "x": 12,
      "y": 92,
      "size": 1,
      "price": "1011000000000000000000",
      "reserved": "",
      "salt": "0x7b93ae7a4321e799d752b9a216fe29b2c11c486543302aff647fd66ad4333bb2",
      "assetIds": []
    },
    {
      "x": 12,
      "y": 93,
      "size": 1,
      "price": "1011000000000000000000",
      "reserved": "",
      "salt": "0x5d26d00b0baa4cf09718a917a750f32507d4b8e61bfaae83fef1c28e7c0c356d",
      "assetIds": []
    },
    {
      "x": 12,
      "y": 94,
      "size": 1,
      "price": "1011000000000000000000",
      "reserved": "",
      "salt": "0x5fe9531dba4b37ba7dc375241856baa25dc699b1da99dbdd646dde022cf3fa0e",
      "assetIds": []
    },
    {
      "x": 12,
      "y": 95,
      "size": 1,
      "price": "1011000000000000000000",
      "reserved": "",
      "salt": "0xb9b5fb302404835e018079e0307eec3c027d92bc25e2ea420e9c628b353018bd",
      "assetIds": []
    },
    {
      "x": 13,
      "y": 39,
      "size": 1,
      "price": "1011000000000000000000",
      "reserved": "",
      "salt": "0x9960a19d4765d4e283df6b65d4dee5f08659a82ac4ebcb55614b124501d304ff",
      "assetIds": []
    },
    {
      "x": 13,
      "y": 40,
      "size": 1,
      "price": "1011000000000000000000",
      "reserved": "",
      "salt": "0x36dedb78bf60db269679b12e78685e10edc5b989ff521d5e65c475341ea85c08",
      "assetIds": []
    },
    {
      "x": 13,
      "y": 41,
      "size": 1,
      "price": "1011000000000000000000",
      "reserved": "0x7a9fe22691c811ea339d9b73150e6911a5343dca",
      "salt": "0x31e072fad2b43915dcd5d694c0581080aa3a38860c90acce48f0528e1cef8d6e",
      "assetIds": []
    },
    {
      "x": 13,
      "y": 42,
      "size": 1,
      "price": "1011000000000000000000",
      "reserved": "",
      "salt": "0xd1fec0cbdd50fe04985d5a1654f43354da4a71065a820ebaee09637bdbee89a7",
      "assetIds": []
    },
    {
      "x": 13,
      "y": 43,
      "size": 1,
      "price": "1011000000000000000000",
      "reserved": "",
      "salt": "0xcbd09ab7a9b15b53f8a0a687a1e932c3b8b0197ddf8803cba2a2de7541498ffb",
      "assetIds": []
    },
    {
      "x": 13,
      "y": 44,
      "size": 1,
      "price": "1011000000000000000000",
      "reserved": "0x7a9fe22691c811ea339d9b73150e6911a5343dca",
      "salt": "0xc951c802d2876d8f4b52a7d9b5a68f3132bbba54e90a1ae73f3e2bf135a379bc",
      "assetIds": []
    },
    {
      "x": 13,
      "y": 45,
      "size": 1,
      "price": "1011000000000000000000",
      "reserved": "",
      "salt": "0x6dc243e345067da14e7542ba8ac0c9d51696c5c470c72e4a92e06dd672941637",
      "assetIds": []
    },
    {
      "x": 13,
      "y": 46,
      "size": 1,
      "price": "1011000000000000000000",
      "reserved": "",
      "salt": "0x5df2c29e4b0228fc8767bc52d14bf4e16ac18b32836157e44a9176c447a6589d",
      "assetIds": []
    },
    {
      "x": 13,
      "y": 47,
      "size": 1,
      "price": "1011000000000000000000",
      "reserved": "",
      "salt": "0x826589b9f1c722ee96f720320eee45b72b8a292e7d1c428437388ce62006ed51",
      "assetIds": []
    },
    {
      "x": 13,
      "y": 48,
      "size": 1,
      "price": "1011000000000000000000",
      "reserved": "",
      "salt": "0x674142233469f7802f5d7c4ce78c4f44658180c5d91f16a3f3faa5bf0c42aac7",
      "assetIds": []
    },
    {
      "x": 13,
      "y": 49,
      "size": 1,
      "price": "1011000000000000000000",
      "reserved": "",
      "salt": "0x49a87b21dcfabb5350ee5be99cd66f9358215284a0288294c3e098f32bb508a4",
      "assetIds": []
    },
    {
      "x": 13,
      "y": 50,
      "size": 1,
      "price": "1011000000000000000000",
      "reserved": "",
      "salt": "0x38e559f12bcac910203ea7f8ccb9a6267014b1a20bfb978b6d1b385f9995555b",
      "assetIds": []
    },
    {
      "x": 13,
      "y": 51,
      "size": 1,
      "price": "1011000000000000000000",
      "reserved": "",
      "salt": "0xbe9ef36de06c533b9b5e4bc48871834df8e6283c8f899f499ddc93245dd208c1",
      "assetIds": []
    },
    {
      "x": 13,
      "y": 52,
      "size": 1,
      "price": "4683000000000000000000",
      "reserved": "",
      "salt": "0xbfa26590c0455464f47b01182b426f5a3e22e7396f00052f244c74f0b986d491",
      "assetIds": [
        "55464657044963196816950587289035428064568320970692304673817341489687941879808",
        "55464657044963196816950587289035428064568320970692304673817341489687933519880",
        "55464657044963196816950587289035428064568320970692304673817341489687933519882",
        "55464657044963196816950587289035428064568320970692304673817341489687933519886",
        "55464657044963196816950587289035428064568320970692304673817341489687933519883"
      ]
    },
    {
      "x": 13,
      "y": 53,
      "size": 1,
      "price": "4683000000000000000000",
      "reserved": "",
      "salt": "0xe2f82b2d3df4db3cbac2bfbd15b29ae3326457d7f914329c028269f14d29620c",
      "assetIds": [
        "55464657044963196816950587289035428064568320970692304673817341489687941879808",
        "55464657044963196816950587289035428064568320970692304673817341489687933519880",
        "55464657044963196816950587289035428064568320970692304673817341489687933519882",
        "55464657044963196816950587289035428064568320970692304673817341489687933519886",
        "55464657044963196816950587289035428064568320970692304673817341489687933519883"
      ]
    },
    {
      "x": 13,
      "y": 54,
      "size": 1,
      "price": "1011000000000000000000",
      "reserved": "0x7a9fe22691c811ea339d9b73150e6911a5343dca",
      "salt": "0x9888f4d312b180d55e06ba8110da22410ae1de599ea866d74c5640765a1f5493",
      "assetIds": []
    },
    {
      "x": 13,
      "y": 55,
      "size": 1,
      "price": "4683000000000000000000",
      "reserved": "",
      "salt": "0xe5c66bee388bd2fec779936cb5498abe7a39e9465d41636a9e0903513257e6a3",
      "assetIds": [
        "55464657044963196816950587289035428064568320970692304673817341489687941879808",
        "55464657044963196816950587289035428064568320970692304673817341489687933519880",
        "55464657044963196816950587289035428064568320970692304673817341489687933519882",
        "55464657044963196816950587289035428064568320970692304673817341489687933519886",
        "55464657044963196816950587289035428064568320970692304673817341489687933519883"
      ]
    },
    {
      "x": 13,
      "y": 56,
      "size": 1,
      "price": "4683000000000000000000",
      "reserved": "",
      "salt": "0x6ac9d743f6009c3d35140c7ed1e030426e3a93f1fda8a15b583c46fb6218bd76",
      "assetIds": [
        "55464657044963196816950587289035428064568320970692304673817341489687941879808",
        "55464657044963196816950587289035428064568320970692304673817341489687933519880",
        "55464657044963196816950587289035428064568320970692304673817341489687933519882",
        "55464657044963196816950587289035428064568320970692304673817341489687933519886",
        "55464657044963196816950587289035428064568320970692304673817341489687933519883"
      ]
    },
    {
      "x": 13,
      "y": 63,
      "size": 1,
      "price": "4683000000000000000000",
      "reserved": "",
      "salt": "0x9fe00b6ee811dabfcff2b18ca96b6a8c611a467259c80089339fffa33e7d077a",
      "assetIds": [
        "55464657044963196816950587289035428064568320970692304673817341489687941879808",
        "55464657044963196816950587289035428064568320970692304673817341489687933519880",
        "55464657044963196816950587289035428064568320970692304673817341489687933519882",
        "55464657044963196816950587289035428064568320970692304673817341489687933519886",
        "55464657044963196816950587289035428064568320970692304673817341489687933519883"
      ]
    },
    {
      "x": 13,
      "y": 64,
      "size": 1,
      "price": "4683000000000000000000",
      "reserved": "",
      "salt": "0xaf8aaf1814e1c12437d2d5099151734637e8ca6b306d05449bbc51da1c0e68da",
      "assetIds": [
        "55464657044963196816950587289035428064568320970692304673817341489687941879808",
        "55464657044963196816950587289035428064568320970692304673817341489687933519880",
        "55464657044963196816950587289035428064568320970692304673817341489687933519882",
        "55464657044963196816950587289035428064568320970692304673817341489687933519886",
        "55464657044963196816950587289035428064568320970692304673817341489687933519883"
      ]
    },
    {
      "x": 13,
      "y": 65,
      "size": 1,
      "price": "4683000000000000000000",
      "reserved": "",
      "salt": "0xd58c1b3334aa4ae77a94fb517f18e15ca450f0402c8496b2cd590eeb0a2cab3e",
      "assetIds": [
        "55464657044963196816950587289035428064568320970692304673817341489687941879808",
        "55464657044963196816950587289035428064568320970692304673817341489687933519880",
        "55464657044963196816950587289035428064568320970692304673817341489687933519882",
        "55464657044963196816950587289035428064568320970692304673817341489687933519886",
        "55464657044963196816950587289035428064568320970692304673817341489687933519883"
      ]
    },
    {
      "x": 13,
      "y": 66,
      "size": 1,
      "price": "4683000000000000000000",
      "reserved": "",
      "salt": "0x171418249ec08eb56c3f0a214d9528ea4a1d6f3dbc0849602f96c98ce434b170",
      "assetIds": [
        "55464657044963196816950587289035428064568320970692304673817341489687941879808",
        "55464657044963196816950587289035428064568320970692304673817341489687933519880",
        "55464657044963196816950587289035428064568320970692304673817341489687933519882",
        "55464657044963196816950587289035428064568320970692304673817341489687933519886",
        "55464657044963196816950587289035428064568320970692304673817341489687933519883"
      ]
    },
    {
      "x": 13,
      "y": 67,
      "size": 1,
      "price": "1011000000000000000000",
      "reserved": "",
      "salt": "0xab2b8663a7f00bddbfc55f2b1bdcd0109a8175df3c6e587c286370600c4c221f",
      "assetIds": []
    },
    {
      "x": 13,
      "y": 68,
      "size": 1,
      "price": "1011000000000000000000",
      "reserved": "",
      "salt": "0x772b37548e9b22bc73d5fde3c2056267ec3041ceccccd14b4fddae7ca87f77f9",
      "assetIds": []
    },
    {
      "x": 13,
      "y": 69,
      "size": 1,
      "price": "1011000000000000000000",
      "reserved": "",
      "salt": "0x86b984c68acc8c4c76ff939e8188e315f13044f99021c81fc6ce90958e1d49e7",
      "assetIds": []
    },
    {
      "x": 13,
      "y": 70,
      "size": 1,
      "price": "1011000000000000000000",
      "reserved": "",
      "salt": "0x51beede55da3a22067064ad01fa37b4682dca94be476a53c580662ae44735914",
      "assetIds": []
    },
    {
      "x": 13,
      "y": 71,
      "size": 1,
      "price": "1011000000000000000000",
      "reserved": "0x7a9fe22691c811ea339d9b73150e6911a5343dca",
      "salt": "0x426787b2b9c5eaeeb8b6b3dd71c0f82560fac4ee54065c1b57785ca6cb74c066",
      "assetIds": []
    },
    {
      "x": 13,
      "y": 78,
      "size": 1,
      "price": "1011000000000000000000",
      "reserved": "",
      "salt": "0x537a6606bde4278ab48bc43daacec7600d4f36eb51a5be9d14df0bd8a6a72544",
      "assetIds": []
    },
    {
      "x": 13,
      "y": 79,
      "size": 1,
      "price": "1011000000000000000000",
      "reserved": "0x7a9fe22691c811ea339d9b73150e6911a5343dca",
      "salt": "0xe08863f581f3bd6cd99812951f8b547c5e03c5076418677bf73c386b7f2a9f91",
      "assetIds": []
    },
    {
      "x": 13,
      "y": 80,
      "size": 1,
      "price": "1011000000000000000000",
      "reserved": "",
      "salt": "0x7e72faad40969965b6de85349a760ec141d3b9b2f85da8b0d1d1d6425f87876a",
      "assetIds": []
    },
    {
      "x": 13,
      "y": 81,
      "size": 1,
      "price": "1011000000000000000000",
      "reserved": "",
      "salt": "0x372f21a2e16531c0bcd82296d331636dab79db917d5c916ad6e1df8b79ff1afc",
      "assetIds": []
    },
    {
      "x": 13,
      "y": 82,
      "size": 1,
      "price": "1011000000000000000000",
      "reserved": "",
      "salt": "0x18efbaa44382369de3b12222913dd1f662bf277d8c261836232817bdce799d4f",
      "assetIds": []
    },
    {
      "x": 13,
      "y": 83,
      "size": 1,
      "price": "1011000000000000000000",
      "reserved": "",
      "salt": "0x787c1241bd0a65afbf49486c92e7ac5e9d495bbfcb0fa6b98e9dd2ae3a8ac58c",
      "assetIds": []
    },
    {
      "x": 13,
      "y": 84,
      "size": 1,
      "price": "1011000000000000000000",
      "reserved": "",
      "salt": "0x9ff05ede4cf6da1fa24969a47fe54c7f00d00a12ce94b863b5eebaf282088630",
      "assetIds": []
    },
    {
      "x": 13,
      "y": 85,
      "size": 1,
      "price": "1011000000000000000000",
      "reserved": "0x7a9fe22691c811ea339d9b73150e6911a5343dca",
      "salt": "0xeb34e0b1e7328722e6de93f969ae192f23e8b2b9979d467552142d2c63a8a761",
      "assetIds": []
    },
    {
      "x": 13,
      "y": 86,
      "size": 1,
      "price": "1011000000000000000000",
      "reserved": "",
      "salt": "0x8f73ad24458a51439404fe6540405e8da2a10ce44ca1f76a2c5042d7dcd46f5b",
      "assetIds": []
    },
    {
      "x": 13,
      "y": 87,
      "size": 1,
      "price": "1011000000000000000000",
      "reserved": "",
      "salt": "0x73a10f1dd6a795afe1e5d21c2f5dd39bc4adf5c43fab805ba06d3a727c269ea9",
      "assetIds": []
    },
    {
      "x": 13,
      "y": 88,
      "size": 1,
      "price": "1011000000000000000000",
      "reserved": "",
      "salt": "0x723609fb09b7a88d9cdb631731b0c585e892ff08d67e356228c09e92daa1e6f1",
      "assetIds": []
    },
    {
      "x": 13,
      "y": 89,
      "size": 1,
      "price": "1011000000000000000000",
      "reserved": "",
      "salt": "0xd1479bb54e16b1b607b2436bd3a74d7dd81172efe11e6b969aaae70aecfa7553",
      "assetIds": []
    },
    {
      "x": 13,
      "y": 90,
      "size": 1,
      "price": "1011000000000000000000",
      "reserved": "",
      "salt": "0x31d748c5bddc9ff286ba2cf4e73f426ac61c9973a3d15eb3a159117a7286463a",
      "assetIds": []
    },
    {
      "x": 13,
      "y": 91,
      "size": 1,
      "price": "1011000000000000000000",
      "reserved": "",
      "salt": "0xba2868ccc72030bb5e837b7aa085ca1d817938e4a13634120f37858f9e1258b6",
      "assetIds": []
    },
    {
      "x": 13,
      "y": 92,
      "size": 1,
      "price": "1011000000000000000000",
      "reserved": "",
      "salt": "0x898d0fae49cc155bfcf1faa0147334657b392ae5a874aee48665545ca5309a88",
      "assetIds": []
    },
    {
      "x": 13,
      "y": 93,
      "size": 1,
      "price": "1011000000000000000000",
      "reserved": "",
      "salt": "0xae0800954218c23c04db585d4cfec7dcf181a1adf16aa7eb97f6b1c122c6b2bf",
      "assetIds": []
    },
    {
      "x": 13,
      "y": 94,
      "size": 1,
      "price": "1011000000000000000000",
      "reserved": "",
      "salt": "0xc16b1ce95035ff4c1abb590ec72d54765d20d14d60f8f9ccd5f110ebbcd11d47",
      "assetIds": []
    },
    {
      "x": 13,
      "y": 95,
      "size": 1,
      "price": "1011000000000000000000",
      "reserved": "",
      "salt": "0x08342153b80f350ccce2c22087f3c402ad261be12f0bc815ce3c599faded6664",
      "assetIds": []
    },
    {
      "x": 14,
      "y": 39,
      "size": 1,
      "price": "1011000000000000000000",
      "reserved": "",
      "salt": "0x050a970815de6d930b5253936a5eafc1b29f1dfd887de56bb9a4d6b292f4263e",
      "assetIds": []
    },
    {
      "x": 14,
      "y": 40,
      "size": 1,
      "price": "1011000000000000000000",
      "reserved": "",
      "salt": "0x76b36493552aa4759b17a4bf7f1601a217df1d8e283611a08cd130215b28c1cf",
      "assetIds": []
    },
    {
      "x": 14,
      "y": 48,
      "size": 1,
      "price": "1011000000000000000000",
      "reserved": "",
      "salt": "0xa2a74c7c3d031ad83cf9c6cbf1037de8fe75619c263c664e19bde376d0d57b88",
      "assetIds": []
    },
    {
      "x": 14,
      "y": 49,
      "size": 1,
      "price": "1011000000000000000000",
      "reserved": "",
      "salt": "0xe8b55bd741c971592d2ed529bfa4171eff1e14d026d3ecf876b1ef0e6514bbd0",
      "assetIds": []
    },
    {
      "x": 14,
      "y": 50,
      "size": 1,
      "price": "1011000000000000000000",
      "reserved": "",
      "salt": "0x78470ccfadb62bf9574dcb559aa7d037aa1659cd38378021e5a326d9f508d213",
      "assetIds": []
    },
    {
      "x": 14,
      "y": 51,
      "size": 1,
      "price": "4683000000000000000000",
      "reserved": "",
      "salt": "0x13b136323d042197038c81fcb944d498d41b6f1fc294ae0dc76a18bed37b5150",
      "assetIds": [
        "55464657044963196816950587289035428064568320970692304673817341489687941879808",
        "55464657044963196816950587289035428064568320970692304673817341489687933519880",
        "55464657044963196816950587289035428064568320970692304673817341489687933519882",
        "55464657044963196816950587289035428064568320970692304673817341489687933519886",
        "55464657044963196816950587289035428064568320970692304673817341489687933519883"
      ]
    },
    {
      "x": 14,
      "y": 52,
      "size": 1,
      "price": "4683000000000000000000",
      "reserved": "",
      "salt": "0x6fcb06d359ee00225022c2e0eeced555b90b8a3858cb7690a188ab4166175fb9",
      "assetIds": [
        "55464657044963196816950587289035428064568320970692304673817341489687941879808",
        "55464657044963196816950587289035428064568320970692304673817341489687933519880",
        "55464657044963196816950587289035428064568320970692304673817341489687933519882",
        "55464657044963196816950587289035428064568320970692304673817341489687933519886",
        "55464657044963196816950587289035428064568320970692304673817341489687933519883"
      ]
    },
    {
      "x": 14,
      "y": 53,
      "size": 1,
      "price": "4683000000000000000000",
      "reserved": "",
      "salt": "0x9b00d9ad96a33d8e6b47917d0bba8ce8f9d3135da0bfe18b7298c0756376662d",
      "assetIds": [
        "55464657044963196816950587289035428064568320970692304673817341489687941879808",
        "55464657044963196816950587289035428064568320970692304673817341489687933519880",
        "55464657044963196816950587289035428064568320970692304673817341489687933519882",
        "55464657044963196816950587289035428064568320970692304673817341489687933519886",
        "55464657044963196816950587289035428064568320970692304673817341489687933519883"
      ]
    },
    {
      "x": 14,
      "y": 54,
      "size": 1,
      "price": "4683000000000000000000",
      "reserved": "",
      "salt": "0x426f158cf981eefc981f60a5c0c8f907cb37a380f10f95bbd068f9d736e92d96",
      "assetIds": [
        "55464657044963196816950587289035428064568320970692304673817341489687941879808",
        "55464657044963196816950587289035428064568320970692304673817341489687933519880",
        "55464657044963196816950587289035428064568320970692304673817341489687933519882",
        "55464657044963196816950587289035428064568320970692304673817341489687933519886",
        "55464657044963196816950587289035428064568320970692304673817341489687933519883"
      ]
    },
    {
      "x": 14,
      "y": 55,
      "size": 1,
      "price": "4683000000000000000000",
      "reserved": "",
      "salt": "0x2f0f476ffe0540e50f3058f999ea041a1eed4bf4dd53d463cb366e6b497b0d44",
      "assetIds": [
        "55464657044963196816950587289035428064568320970692304673817341489687941879808",
        "55464657044963196816950587289035428064568320970692304673817341489687933519880",
        "55464657044963196816950587289035428064568320970692304673817341489687933519882",
        "55464657044963196816950587289035428064568320970692304673817341489687933519886",
        "55464657044963196816950587289035428064568320970692304673817341489687933519883"
      ]
    },
    {
      "x": 14,
      "y": 56,
      "size": 1,
      "price": "4683000000000000000000",
      "reserved": "",
      "salt": "0x460178889616ae4c16e0330248ac73de850490cf7741ce5ad1904576252f6278",
      "assetIds": [
        "55464657044963196816950587289035428064568320970692304673817341489687941879808",
        "55464657044963196816950587289035428064568320970692304673817341489687933519880",
        "55464657044963196816950587289035428064568320970692304673817341489687933519882",
        "55464657044963196816950587289035428064568320970692304673817341489687933519886",
        "55464657044963196816950587289035428064568320970692304673817341489687933519883"
      ]
    },
    {
      "x": 14,
      "y": 63,
      "size": 1,
      "price": "4683000000000000000000",
      "reserved": "",
      "salt": "0x3f0c1040c2ccbf9c1314334e2345c5d30636e1172ae25bd6175a820f1c0c1eb7",
      "assetIds": [
        "55464657044963196816950587289035428064568320970692304673817341489687941879808",
        "55464657044963196816950587289035428064568320970692304673817341489687933519880",
        "55464657044963196816950587289035428064568320970692304673817341489687933519882",
        "55464657044963196816950587289035428064568320970692304673817341489687933519886",
        "55464657044963196816950587289035428064568320970692304673817341489687933519883"
      ]
    },
    {
      "x": 14,
      "y": 64,
      "size": 1,
      "price": "4683000000000000000000",
      "reserved": "",
      "salt": "0xf92fe40116157ce11df579e15e709cc9fa75efb4fd67d6bdf18a65679f051fd1",
      "assetIds": [
        "55464657044963196816950587289035428064568320970692304673817341489687941879808",
        "55464657044963196816950587289035428064568320970692304673817341489687933519880",
        "55464657044963196816950587289035428064568320970692304673817341489687933519882",
        "55464657044963196816950587289035428064568320970692304673817341489687933519886",
        "55464657044963196816950587289035428064568320970692304673817341489687933519883"
      ]
    },
    {
      "x": 14,
      "y": 65,
      "size": 1,
      "price": "4683000000000000000000",
      "reserved": "",
      "salt": "0x44118571ddb1d0171726d01c22fef4436b96b26cf9ebdd90850018a1fec69168",
      "assetIds": [
        "55464657044963196816950587289035428064568320970692304673817341489687941879808",
        "55464657044963196816950587289035428064568320970692304673817341489687933519880",
        "55464657044963196816950587289035428064568320970692304673817341489687933519882",
        "55464657044963196816950587289035428064568320970692304673817341489687933519886",
        "55464657044963196816950587289035428064568320970692304673817341489687933519883"
      ]
    },
    {
      "x": 14,
      "y": 66,
      "size": 1,
      "price": "4683000000000000000000",
      "reserved": "",
      "salt": "0xb937b479b3ae78b49e4e02cc25bbb5a471f741224fdbac3d9c2c39d186e9b878",
      "assetIds": [
        "55464657044963196816950587289035428064568320970692304673817341489687941879808",
        "55464657044963196816950587289035428064568320970692304673817341489687933519880",
        "55464657044963196816950587289035428064568320970692304673817341489687933519882",
        "55464657044963196816950587289035428064568320970692304673817341489687933519886",
        "55464657044963196816950587289035428064568320970692304673817341489687933519883"
      ]
    },
    {
      "x": 14,
      "y": 67,
      "size": 1,
      "price": "1011000000000000000000",
      "reserved": "",
      "salt": "0x4811c0577a700ad560a45fea06c59982ae67a5cc16da2329a06b5fdea3ad9d1c",
      "assetIds": []
    },
    {
      "x": 14,
      "y": 68,
      "size": 1,
      "price": "1011000000000000000000",
      "reserved": "",
      "salt": "0xaff12c247764f87cdafbc77915454346e15100881167857fe78f8e37144d3eb1",
      "assetIds": []
    },
    {
      "x": 14,
      "y": 69,
      "size": 1,
      "price": "1011000000000000000000",
      "reserved": "0x7a9fe22691c811ea339d9b73150e6911a5343dca",
      "salt": "0x320aa4515f693293abd2d2439ff4686fc43f688dc9d44596b6ea4c6cb55e1b65",
      "assetIds": []
    },
    {
      "x": 14,
      "y": 70,
      "size": 1,
      "price": "1011000000000000000000",
      "reserved": "",
      "salt": "0xc272e6a5721100b73f1f133eb18723de4d4dfa6be82436fdcbc2c6501a7a33e9",
      "assetIds": []
    },
    {
      "x": 14,
      "y": 71,
      "size": 1,
      "price": "1011000000000000000000",
      "reserved": "",
      "salt": "0xd014734eabb85edb203d956bfced7d440efab873de7a838a582e622d590f3aa5",
      "assetIds": []
    },
    {
      "x": 14,
      "y": 78,
      "size": 1,
      "price": "1011000000000000000000",
      "reserved": "",
      "salt": "0xe4a551177cbb3e6e3752db33d38bc02e808977db928947310e2ce657877b40fa",
      "assetIds": []
    },
    {
      "x": 14,
      "y": 79,
      "size": 1,
      "price": "1011000000000000000000",
      "reserved": "",
      "salt": "0xfb3bd4ec161329a5633e49763f4582408ec090267ddb80e1712201fa61ef8ac5",
      "assetIds": []
    },
    {
      "x": 14,
      "y": 80,
      "size": 1,
      "price": "1011000000000000000000",
      "reserved": "",
      "salt": "0x0e958e80472a8d9cf1103bc362c83ab0a481d61edba33a6d42129215f095f5f7",
      "assetIds": []
    },
    {
      "x": 14,
      "y": 81,
      "size": 1,
      "price": "1011000000000000000000",
      "reserved": "",
      "salt": "0x435c4a3ebad05627fa83821df278b1b0217f7fd2ad3d20af9b28a89456f09b07",
      "assetIds": []
    },
    {
      "x": 14,
      "y": 82,
      "size": 1,
      "price": "1011000000000000000000",
      "reserved": "",
      "salt": "0x0d531cf77eb0fe51560f1c78cf08e6c35d1cf5be115f8d80cf6953b09c46657d",
      "assetIds": []
    },
    {
      "x": 14,
      "y": 83,
      "size": 1,
      "price": "1011000000000000000000",
      "reserved": "",
      "salt": "0x720aa4a85916502c9e25aa8734160b6f41921ceacc70f7beefec71680520d750",
      "assetIds": []
    },
    {
      "x": 14,
      "y": 84,
      "size": 1,
      "price": "1011000000000000000000",
      "reserved": "",
      "salt": "0xa438d389fb61a642ff5904736f3780668f21ce0ff4d0c6d14a2f3adcf6a1b3c2",
      "assetIds": []
    },
    {
      "x": 14,
      "y": 85,
      "size": 1,
      "price": "1011000000000000000000",
      "reserved": "",
      "salt": "0x157e356abfb8a89cd7c2540f3e1011f105af930caac8b1e9979a28c5e3f5aeb3",
      "assetIds": []
    },
    {
      "x": 14,
      "y": 86,
      "size": 1,
      "price": "1011000000000000000000",
      "reserved": "",
      "salt": "0xdc925ebec39defbed456dfd8400f44124de66ce5f88d87ef06cc03c795b06338",
      "assetIds": []
    },
    {
      "x": 14,
      "y": 87,
      "size": 1,
      "price": "1011000000000000000000",
      "reserved": "",
      "salt": "0x6e8cc7e62665ea00934adaeccf5c604e6c15d59dbc770d291ff0906a1ed80750",
      "assetIds": []
    },
    {
      "x": 14,
      "y": 88,
      "size": 1,
      "price": "1011000000000000000000",
      "reserved": "0x7a9fe22691c811ea339d9b73150e6911a5343dca",
      "salt": "0x1c8271a2f2092fe457343e27c61e546143a656fdeb241b74067e5565f5b6300d",
      "assetIds": []
    },
    {
      "x": 14,
      "y": 89,
      "size": 1,
      "price": "1011000000000000000000",
      "reserved": "",
      "salt": "0x13479314e78904317979c69f6078ef10d6b03e9d3b4be7a4591ab5b97a43f0ed",
      "assetIds": []
    },
    {
      "x": 14,
      "y": 90,
      "size": 1,
      "price": "1011000000000000000000",
      "reserved": "",
      "salt": "0x55202b6c4a773df9dd8e470b144dd6ed5b46f7749d7cdab130513e4abb810f84",
      "assetIds": []
    },
    {
      "x": 14,
      "y": 91,
      "size": 1,
      "price": "1011000000000000000000",
      "reserved": "",
      "salt": "0x2bbb0c60ee146da071cbc0af30e8cbfbf480aba88a39408ae17d05a2310a1fb5",
      "assetIds": []
    },
    {
      "x": 14,
      "y": 92,
      "size": 1,
      "price": "1011000000000000000000",
      "reserved": "",
      "salt": "0x0be0d85bf265ac3d9a5d2bbada67298b33ecde0b51a82fbb063b883471c35315",
      "assetIds": []
    },
    {
      "x": 14,
      "y": 93,
      "size": 1,
      "price": "1011000000000000000000",
      "reserved": "0x7a9fe22691c811ea339d9b73150e6911a5343dca",
      "salt": "0x645627cd185352bfa2a3af12e4668d7278e0c9a4d82fb4a57bef5f4f6de9f0f4",
      "assetIds": []
    },
    {
      "x": 14,
      "y": 94,
      "size": 1,
      "price": "1011000000000000000000",
      "reserved": "",
      "salt": "0x2e547dc90f667e526276082196994f3d0fad9d47eab036d0e074061a87362c98",
      "assetIds": []
    },
    {
      "x": 14,
      "y": 95,
      "size": 1,
      "price": "1011000000000000000000",
      "reserved": "",
      "salt": "0x06feb4587f658a9cc591b56bb0a94b5a185bd70eafb7aa25c12836c1b81d8b28",
      "assetIds": []
    },
    {
      "x": 15,
      "y": 54,
      "size": 1,
      "price": "4683000000000000000000",
      "reserved": "",
      "salt": "0xb8f4a0068ae5d80874ff2c1af19c309913f34f8595aa37da2d1bd0ca4e742785",
      "assetIds": [
        "55464657044963196816950587289035428064568320970692304673817341489687941879808",
        "55464657044963196816950587289035428064568320970692304673817341489687933519880",
        "55464657044963196816950587289035428064568320970692304673817341489687933519882",
        "55464657044963196816950587289035428064568320970692304673817341489687933519886",
        "55464657044963196816950587289035428064568320970692304673817341489687933519883"
      ]
    },
    {
      "x": 15,
      "y": 55,
      "size": 1,
      "price": "4683000000000000000000",
      "reserved": "",
      "salt": "0x1e6df73deb738956e5046ea2d1bf456bfd4dd3a4d1512b0eabef8e7cbb71ebdd",
      "assetIds": [
        "55464657044963196816950587289035428064568320970692304673817341489687941879808",
        "55464657044963196816950587289035428064568320970692304673817341489687933519880",
        "55464657044963196816950587289035428064568320970692304673817341489687933519882",
        "55464657044963196816950587289035428064568320970692304673817341489687933519886",
        "55464657044963196816950587289035428064568320970692304673817341489687933519883"
      ]
    },
    {
      "x": 15,
      "y": 56,
      "size": 1,
      "price": "4683000000000000000000",
      "reserved": "",
      "salt": "0xfefe4de2bf15344259b98856ea62b92b428a13d20228856b0d3f8760ee62dad7",
      "assetIds": [
        "55464657044963196816950587289035428064568320970692304673817341489687941879808",
        "55464657044963196816950587289035428064568320970692304673817341489687933519880",
        "55464657044963196816950587289035428064568320970692304673817341489687933519882",
        "55464657044963196816950587289035428064568320970692304673817341489687933519886",
        "55464657044963196816950587289035428064568320970692304673817341489687933519883"
      ]
    },
    {
      "x": 15,
      "y": 57,
      "size": 1,
      "price": "4683000000000000000000",
      "reserved": "",
      "salt": "0x68eb13adb3725132214b1a69807d24207bde9ec49d01f750aafec2cf6b243922",
      "assetIds": [
        "55464657044963196816950587289035428064568320970692304673817341489687941879808",
        "55464657044963196816950587289035428064568320970692304673817341489687933519880",
        "55464657044963196816950587289035428064568320970692304673817341489687933519882",
        "55464657044963196816950587289035428064568320970692304673817341489687933519886",
        "55464657044963196816950587289035428064568320970692304673817341489687933519883"
      ]
    },
    {
      "x": 15,
      "y": 58,
      "size": 1,
      "price": "4683000000000000000000",
      "reserved": "",
      "salt": "0xff8b57d55bc24c70182f0c322c9d8db4f47631cf9cd2a661fd85393c0f050c1c",
      "assetIds": [
        "55464657044963196816950587289035428064568320970692304673817341489687941879808",
        "55464657044963196816950587289035428064568320970692304673817341489687933519880",
        "55464657044963196816950587289035428064568320970692304673817341489687933519882",
        "55464657044963196816950587289035428064568320970692304673817341489687933519886",
        "55464657044963196816950587289035428064568320970692304673817341489687933519883"
      ]
    },
    {
      "x": 15,
      "y": 59,
      "size": 1,
      "price": "4683000000000000000000",
      "reserved": "",
      "salt": "0x9199d6eb5060ec7097d2af01dc94f96144969da4da85848ff83087400b97732a",
      "assetIds": [
        "55464657044963196816950587289035428064568320970692304673817341489687941879808",
        "55464657044963196816950587289035428064568320970692304673817341489687933519880",
        "55464657044963196816950587289035428064568320970692304673817341489687933519882",
        "55464657044963196816950587289035428064568320970692304673817341489687933519886",
        "55464657044963196816950587289035428064568320970692304673817341489687933519883"
      ]
    },
    {
      "x": 15,
      "y": 60,
      "size": 1,
      "price": "4683000000000000000000",
      "reserved": "",
      "salt": "0x4e8f922f5210f7854a60ca09e0c0aeb68d0e8b7d81e91fd3fc4e3648f689bfad",
      "assetIds": [
        "55464657044963196816950587289035428064568320970692304673817341489687941879808",
        "55464657044963196816950587289035428064568320970692304673817341489687933519880",
        "55464657044963196816950587289035428064568320970692304673817341489687933519882",
        "55464657044963196816950587289035428064568320970692304673817341489687933519886",
        "55464657044963196816950587289035428064568320970692304673817341489687933519883"
      ]
    },
    {
      "x": 15,
      "y": 61,
      "size": 1,
      "price": "4683000000000000000000",
      "reserved": "",
      "salt": "0x2a9e1cb557d034449a19bb8f50429e6ded96a7a1da01f39585ccc33d9bb2de6f",
      "assetIds": [
        "55464657044963196816950587289035428064568320970692304673817341489687941879808",
        "55464657044963196816950587289035428064568320970692304673817341489687933519880",
        "55464657044963196816950587289035428064568320970692304673817341489687933519882",
        "55464657044963196816950587289035428064568320970692304673817341489687933519886",
        "55464657044963196816950587289035428064568320970692304673817341489687933519883"
      ]
    },
    {
      "x": 15,
      "y": 62,
      "size": 1,
      "price": "4683000000000000000000",
      "reserved": "",
      "salt": "0x0e0b3708ad6183bc14c4f5d9c87309180d7683e047e133a91682af5e59e67016",
      "assetIds": [
        "55464657044963196816950587289035428064568320970692304673817341489687941879808",
        "55464657044963196816950587289035428064568320970692304673817341489687933519880",
        "55464657044963196816950587289035428064568320970692304673817341489687933519882",
        "55464657044963196816950587289035428064568320970692304673817341489687933519886",
        "55464657044963196816950587289035428064568320970692304673817341489687933519883"
      ]
    },
    {
      "x": 15,
      "y": 63,
      "size": 1,
      "price": "4683000000000000000000",
      "reserved": "",
      "salt": "0x342670b9f7c179ed79895f3916972df33bc94c5c94293d1770c8c200e742cb0c",
      "assetIds": [
        "55464657044963196816950587289035428064568320970692304673817341489687941879808",
        "55464657044963196816950587289035428064568320970692304673817341489687933519880",
        "55464657044963196816950587289035428064568320970692304673817341489687933519882",
        "55464657044963196816950587289035428064568320970692304673817341489687933519886",
        "55464657044963196816950587289035428064568320970692304673817341489687933519883"
      ]
    },
    {
      "x": 15,
      "y": 64,
      "size": 1,
      "price": "4683000000000000000000",
      "reserved": "",
      "salt": "0x181e627e5c02531b8cf13609cbc872061891833ae89fb92135088e09eb375b2e",
      "assetIds": [
        "55464657044963196816950587289035428064568320970692304673817341489687941879808",
        "55464657044963196816950587289035428064568320970692304673817341489687933519880",
        "55464657044963196816950587289035428064568320970692304673817341489687933519882",
        "55464657044963196816950587289035428064568320970692304673817341489687933519886",
        "55464657044963196816950587289035428064568320970692304673817341489687933519883"
      ]
    },
    {
      "x": 15,
      "y": 65,
      "size": 1,
      "price": "4683000000000000000000",
      "reserved": "",
      "salt": "0xf7c6dc1401a1af21f4fcf6ed4a326c1a23f1b9052272b2ecaccb90dc77b18177",
      "assetIds": [
        "55464657044963196816950587289035428064568320970692304673817341489687941879808",
        "55464657044963196816950587289035428064568320970692304673817341489687933519880",
        "55464657044963196816950587289035428064568320970692304673817341489687933519882",
        "55464657044963196816950587289035428064568320970692304673817341489687933519886",
        "55464657044963196816950587289035428064568320970692304673817341489687933519883"
      ]
    },
    {
      "x": 15,
      "y": 66,
      "size": 1,
      "price": "4683000000000000000000",
      "reserved": "",
      "salt": "0xd299c3ba4ba5788a2ce5c02fe579d092733cbff28e5e157190f45d1458edea75",
      "assetIds": [
        "55464657044963196816950587289035428064568320970692304673817341489687941879808",
        "55464657044963196816950587289035428064568320970692304673817341489687933519880",
        "55464657044963196816950587289035428064568320970692304673817341489687933519882",
        "55464657044963196816950587289035428064568320970692304673817341489687933519886",
        "55464657044963196816950587289035428064568320970692304673817341489687933519883"
      ]
    },
    {
      "x": 15,
      "y": 67,
      "size": 1,
      "price": "1011000000000000000000",
      "reserved": "",
      "salt": "0x0ece8f14b4efa81fb29d780c4532d1131f1a0d19a413672a876257518f4cb270",
      "assetIds": []
    },
    {
      "x": 15,
      "y": 68,
      "size": 1,
      "price": "1011000000000000000000",
      "reserved": "",
      "salt": "0xdd459661abac201c8cdbc79e2e12680a05c509bb9e2c03abd8e9fb7644048ec5",
      "assetIds": []
    },
    {
      "x": 15,
      "y": 69,
      "size": 1,
      "price": "1011000000000000000000",
      "reserved": "",
      "salt": "0x85cb72f55d1d29130f73f0fb680e0a558c2596e802bca58f11646f668ce673cc",
      "assetIds": []
    },
    {
      "x": 15,
      "y": 70,
      "size": 1,
      "price": "1011000000000000000000",
      "reserved": "",
      "salt": "0x52f1b0aeeb97e01710503b04935c5718090e91add44f49dd99fa99274f357519",
      "assetIds": []
    },
    {
      "x": 15,
      "y": 71,
      "size": 1,
      "price": "1011000000000000000000",
      "reserved": "",
      "salt": "0xa87da52b838b5632ae52b9baff291cedbf7270f34db2e9eea454694b46290100",
      "assetIds": []
    },
    {
      "x": 15,
      "y": 78,
      "size": 1,
      "price": "1011000000000000000000",
      "reserved": "",
      "salt": "0x19c1d32fd7b03b63372d0a0d97ffd7f7b432ab5c2151434ecd5458dbba728eaf",
      "assetIds": []
    },
    {
      "x": 15,
      "y": 79,
      "size": 1,
      "price": "1011000000000000000000",
      "reserved": "",
      "salt": "0x23bb5c1faf03976a3deb8e62529074021080c4370ac6dd72eb24451a9633351b",
      "assetIds": []
    },
    {
      "x": 15,
      "y": 80,
      "size": 1,
      "price": "1011000000000000000000",
      "reserved": "",
      "salt": "0x648964fb11e258f551a5757846f5368286614548a4fcbcadc3040648e9498b87",
      "assetIds": []
    },
    {
      "x": 15,
      "y": 81,
      "size": 1,
      "price": "1011000000000000000000",
      "reserved": "",
      "salt": "0xbd26b9895f6f301c7000693203c186ce1f4da1746caa028776c99ae1e2368cbc",
      "assetIds": []
    },
    {
      "x": 15,
      "y": 82,
      "size": 1,
      "price": "1011000000000000000000",
      "reserved": "",
      "salt": "0xfb74ad5b648f55b79f5b4f99b3663a0eabb53f9df2a2758caeb038d9420e4f01",
      "assetIds": []
    },
    {
      "x": 15,
      "y": 83,
      "size": 1,
      "price": "1011000000000000000000",
      "reserved": "0x7a9fe22691c811ea339d9b73150e6911a5343dca",
      "salt": "0x8547e09ec21ee583b6260bd1f1a54864ce7ccd5118603d1d8470c19fb56f75b7",
      "assetIds": []
    },
    {
      "x": 15,
      "y": 84,
      "size": 1,
      "price": "1011000000000000000000",
      "reserved": "",
      "salt": "0xbfd09968b84da6a9839ed6dec7d36fff7d5444a45ecd620ce55a9d5f9ee79fb8",
      "assetIds": []
    },
    {
      "x": 15,
      "y": 85,
      "size": 1,
      "price": "1011000000000000000000",
      "reserved": "",
      "salt": "0x87785f4e8b2d47375271a1d52ddbd8d632dc3d477356cad841d41be6cecab84e",
      "assetIds": []
    },
    {
      "x": 15,
      "y": 86,
      "size": 1,
      "price": "1011000000000000000000",
      "reserved": "0x7a9fe22691c811ea339d9b73150e6911a5343dca",
      "salt": "0xe21b69e02ab49007d590b7c22e2aa66cded66cd733e8493352ab6aa7c3143d61",
      "assetIds": []
    },
    {
      "x": 15,
      "y": 87,
      "size": 1,
      "price": "1011000000000000000000",
      "reserved": "",
      "salt": "0x03e7950a406446f0540d5b160b4770e46f9270f99229b6250267762ce21c9490",
      "assetIds": []
    },
    {
      "x": 16,
      "y": 57,
      "size": 1,
      "price": "4683000000000000000000",
      "reserved": "",
      "salt": "0xb967a01df0ac7d27f514c161a15c64ab9ad61e5511f97679a1485f3f41950212",
      "assetIds": [
        "55464657044963196816950587289035428064568320970692304673817341489687941879808",
        "55464657044963196816950587289035428064568320970692304673817341489687933519880",
        "55464657044963196816950587289035428064568320970692304673817341489687933519882",
        "55464657044963196816950587289035428064568320970692304673817341489687933519886",
        "55464657044963196816950587289035428064568320970692304673817341489687933519883"
      ]
    },
    {
      "x": 16,
      "y": 58,
      "size": 1,
      "price": "4683000000000000000000",
      "reserved": "",
      "salt": "0x2d1710b2284b18d5e18e4adc9279db6f04d84eef48fae47a06b72617daa1949c",
      "assetIds": [
        "55464657044963196816950587289035428064568320970692304673817341489687941879808",
        "55464657044963196816950587289035428064568320970692304673817341489687933519880",
        "55464657044963196816950587289035428064568320970692304673817341489687933519882",
        "55464657044963196816950587289035428064568320970692304673817341489687933519886",
        "55464657044963196816950587289035428064568320970692304673817341489687933519883"
      ]
    },
    {
      "x": 16,
      "y": 59,
      "size": 1,
      "price": "4683000000000000000000",
      "reserved": "",
      "salt": "0xbeb02e371ecc9891e19ce2ef299e53b62c225ae5db8ccb54c5008522524eaa5e",
      "assetIds": [
        "55464657044963196816950587289035428064568320970692304673817341489687941879808",
        "55464657044963196816950587289035428064568320970692304673817341489687933519880",
        "55464657044963196816950587289035428064568320970692304673817341489687933519882",
        "55464657044963196816950587289035428064568320970692304673817341489687933519886",
        "55464657044963196816950587289035428064568320970692304673817341489687933519883"
      ]
    },
    {
      "x": 16,
      "y": 60,
      "size": 1,
      "price": "4683000000000000000000",
      "reserved": "",
      "salt": "0xf678724d63d98d608101c64a4fe34a9a5a414348cd10968b82f61bc6d7871bfa",
      "assetIds": [
        "55464657044963196816950587289035428064568320970692304673817341489687941879808",
        "55464657044963196816950587289035428064568320970692304673817341489687933519880",
        "55464657044963196816950587289035428064568320970692304673817341489687933519882",
        "55464657044963196816950587289035428064568320970692304673817341489687933519886",
        "55464657044963196816950587289035428064568320970692304673817341489687933519883"
      ]
    },
    {
      "x": 16,
      "y": 61,
      "size": 1,
      "price": "4683000000000000000000",
      "reserved": "",
      "salt": "0x64c4d89cdf6e6e42671d1e5959c8dab56292280e158a0e45319d51a146bb3206",
      "assetIds": [
        "55464657044963196816950587289035428064568320970692304673817341489687941879808",
        "55464657044963196816950587289035428064568320970692304673817341489687933519880",
        "55464657044963196816950587289035428064568320970692304673817341489687933519882",
        "55464657044963196816950587289035428064568320970692304673817341489687933519886",
        "55464657044963196816950587289035428064568320970692304673817341489687933519883"
      ]
    },
    {
      "x": 16,
      "y": 62,
      "size": 1,
      "price": "4683000000000000000000",
      "reserved": "",
      "salt": "0x1e795a80d6d0840faf528118747c56d0cf07580dc66eaa5071f8b4e9559eafc6",
      "assetIds": [
        "55464657044963196816950587289035428064568320970692304673817341489687941879808",
        "55464657044963196816950587289035428064568320970692304673817341489687933519880",
        "55464657044963196816950587289035428064568320970692304673817341489687933519882",
        "55464657044963196816950587289035428064568320970692304673817341489687933519886",
        "55464657044963196816950587289035428064568320970692304673817341489687933519883"
      ]
    },
    {
      "x": 16,
      "y": 63,
      "size": 1,
      "price": "4683000000000000000000",
      "reserved": "",
      "salt": "0x6b8c6da3cca2223e63a4b51ad7f4f65e57ea5a77f03c492c006a96396038cf18",
      "assetIds": [
        "55464657044963196816950587289035428064568320970692304673817341489687941879808",
        "55464657044963196816950587289035428064568320970692304673817341489687933519880",
        "55464657044963196816950587289035428064568320970692304673817341489687933519882",
        "55464657044963196816950587289035428064568320970692304673817341489687933519886",
        "55464657044963196816950587289035428064568320970692304673817341489687933519883"
      ]
    },
    {
      "x": 16,
      "y": 64,
      "size": 1,
      "price": "4683000000000000000000",
      "reserved": "",
      "salt": "0x54f620ae95b3dfb654bbec1e63f120b2031816b7e09a7b2ab5dbc69273c94e60",
      "assetIds": [
        "55464657044963196816950587289035428064568320970692304673817341489687941879808",
        "55464657044963196816950587289035428064568320970692304673817341489687933519880",
        "55464657044963196816950587289035428064568320970692304673817341489687933519882",
        "55464657044963196816950587289035428064568320970692304673817341489687933519886",
        "55464657044963196816950587289035428064568320970692304673817341489687933519883"
      ]
    },
    {
      "x": 16,
      "y": 65,
      "size": 1,
      "price": "4683000000000000000000",
      "reserved": "",
      "salt": "0xcc7f4650f8b5d2b96fc9344cd218e447d3baf319f48ab36923e7a64512b887b8",
      "assetIds": [
        "55464657044963196816950587289035428064568320970692304673817341489687941879808",
        "55464657044963196816950587289035428064568320970692304673817341489687933519880",
        "55464657044963196816950587289035428064568320970692304673817341489687933519882",
        "55464657044963196816950587289035428064568320970692304673817341489687933519886",
        "55464657044963196816950587289035428064568320970692304673817341489687933519883"
      ]
    },
    {
      "x": 16,
      "y": 66,
      "size": 1,
      "price": "4683000000000000000000",
      "reserved": "",
      "salt": "0x6a7cea7c286b4f0b50ca9445a09bd0105d5564e9db53cf77aa905ab23c010ffa",
      "assetIds": [
        "55464657044963196816950587289035428064568320970692304673817341489687941879808",
        "55464657044963196816950587289035428064568320970692304673817341489687933519880",
        "55464657044963196816950587289035428064568320970692304673817341489687933519882",
        "55464657044963196816950587289035428064568320970692304673817341489687933519886",
        "55464657044963196816950587289035428064568320970692304673817341489687933519883"
      ]
    },
    {
      "x": 16,
      "y": 67,
      "size": 1,
      "price": "1011000000000000000000",
      "reserved": "",
      "salt": "0x3df790e38430bbcd19722f5f2ac04631fbf49a4869ba5804f0f3ece30c134c15",
      "assetIds": []
    },
    {
      "x": 16,
      "y": 68,
      "size": 1,
      "price": "1011000000000000000000",
      "reserved": "",
      "salt": "0xae785de35be984dc966978951c51d3bc4b715e4e465236de728cf72c400f5c82",
      "assetIds": []
    },
    {
      "x": 16,
      "y": 69,
      "size": 1,
      "price": "1011000000000000000000",
      "reserved": "",
      "salt": "0xec6ac784f85b709d0f07cf31be607a2b954d26b6c7af3cd7544767b8a7ccdeb3",
      "assetIds": []
    },
    {
      "x": 16,
      "y": 70,
      "size": 1,
      "price": "1011000000000000000000",
      "reserved": "",
      "salt": "0x477057073051ab4ad0b9b1c0afe4a426f10f6e074495d47ad43bd33df3a658f5",
      "assetIds": []
    },
    {
      "x": 16,
      "y": 71,
      "size": 1,
      "price": "1011000000000000000000",
      "reserved": "",
      "salt": "0x863fe978abc6d8c57b20a28a82c04e9cbe3a806e337c3a086a328a1ffe76da69",
      "assetIds": []
    },
    {
      "x": 16,
      "y": 78,
      "size": 1,
      "price": "1011000000000000000000",
      "reserved": "",
      "salt": "0x016a09e3fcf936929fb580887dd7176ba1f9e1e31fbe42d9e2d958a0def74daf",
      "assetIds": []
    },
    {
      "x": 16,
      "y": 79,
      "size": 1,
      "price": "1011000000000000000000",
      "reserved": "",
      "salt": "0x2908cc23cf3955ef979168093954a5949b48cb6f5f249ee511952c734b25a5dd",
      "assetIds": []
    },
    {
      "x": 16,
      "y": 80,
      "size": 1,
      "price": "1011000000000000000000",
      "reserved": "",
      "salt": "0x4157f968a87b4fb8b88bb90799f6ab7d78234c9440382ffde707ea0fd2192d44",
      "assetIds": []
    },
    {
      "x": 16,
      "y": 81,
      "size": 1,
      "price": "1011000000000000000000",
      "reserved": "0x7a9fe22691c811ea339d9b73150e6911a5343dca",
      "salt": "0xb3e0035fce67fb34673fd994b0c6b64283b702290b009afe378456756b52057e",
      "assetIds": []
    },
    {
      "x": 16,
      "y": 82,
      "size": 1,
      "price": "1011000000000000000000",
      "reserved": "",
      "salt": "0xcec86013876497b7cdbb23699a2540cc8dfd6506fdc0fa47e490c57c24fbf0e3",
      "assetIds": []
    },
    {
      "x": 16,
      "y": 83,
      "size": 1,
      "price": "1011000000000000000000",
      "reserved": "",
      "salt": "0xa5e0531621c4c764adad9bf4515466a324b612e86545fc7cae13ac09ef8a785b",
      "assetIds": []
    },
    {
      "x": 16,
      "y": 84,
      "size": 1,
      "price": "1011000000000000000000",
      "reserved": "",
      "salt": "0xf8a29c8d680249598cec284a929d679028ad364f706ddfb3baf9bbbabebb36f7",
      "assetIds": []
    },
    {
      "x": 16,
      "y": 85,
      "size": 1,
      "price": "1011000000000000000000",
      "reserved": "0x7a9fe22691c811ea339d9b73150e6911a5343dca",
      "salt": "0x1ed1df51118f50f45b629936e10a13d98082658dcff29cf33e14ed497326bdb7",
      "assetIds": []
    },
    {
      "x": 16,
      "y": 86,
      "size": 1,
      "price": "1011000000000000000000",
      "reserved": "",
      "salt": "0x27474272253d30cb1a35bd5cc3fbdd4254c011ab1a317a5c9bcf00e40690f063",
      "assetIds": []
    },
    {
      "x": 16,
      "y": 87,
      "size": 1,
      "price": "1011000000000000000000",
      "reserved": "",
      "salt": "0xd6d2ebe244caff7b25dd870573e3cfe03dd307715a2cae1d39f040fbb6f2de8c",
      "assetIds": []
    },
    {
      "x": 17,
      "y": 60,
      "size": 1,
      "price": "4683000000000000000000",
      "reserved": "",
      "salt": "0xcbcfeda407b8c3ad097091a0dce0577edb688f8fee778b730bed725769d4036e",
      "assetIds": [
        "55464657044963196816950587289035428064568320970692304673817341489687941879808",
        "55464657044963196816950587289035428064568320970692304673817341489687933519880",
        "55464657044963196816950587289035428064568320970692304673817341489687933519882",
        "55464657044963196816950587289035428064568320970692304673817341489687933519886",
        "55464657044963196816950587289035428064568320970692304673817341489687933519883"
      ]
    },
    {
      "x": 17,
      "y": 61,
      "size": 1,
      "price": "4683000000000000000000",
      "reserved": "",
      "salt": "0xb23bcad4b2906176cf05f659357851dec63041b0c7358399d518d1277dc6d1ad",
      "assetIds": [
        "55464657044963196816950587289035428064568320970692304673817341489687941879808",
        "55464657044963196816950587289035428064568320970692304673817341489687933519880",
        "55464657044963196816950587289035428064568320970692304673817341489687933519882",
        "55464657044963196816950587289035428064568320970692304673817341489687933519886",
        "55464657044963196816950587289035428064568320970692304673817341489687933519883"
      ]
    },
    {
      "x": 17,
      "y": 62,
      "size": 1,
      "price": "4683000000000000000000",
      "reserved": "",
      "salt": "0xd1b42ec636a05de5cc492e7aa3eff6a549a36b69ccda9f449a62bc33904a81ee",
      "assetIds": [
        "55464657044963196816950587289035428064568320970692304673817341489687941879808",
        "55464657044963196816950587289035428064568320970692304673817341489687933519880",
        "55464657044963196816950587289035428064568320970692304673817341489687933519882",
        "55464657044963196816950587289035428064568320970692304673817341489687933519886",
        "55464657044963196816950587289035428064568320970692304673817341489687933519883"
      ]
    },
    {
      "x": 17,
      "y": 63,
      "size": 1,
      "price": "1011000000000000000000",
      "reserved": "0x7a9fe22691c811ea339d9b73150e6911a5343dca",
      "salt": "0xc0b9d89d4760fe3a153d93701880fbc9aa4d7f54baf67791c82205e56d19b54d",
      "assetIds": []
    },
    {
      "x": 17,
      "y": 64,
      "size": 1,
      "price": "4683000000000000000000",
      "reserved": "",
      "salt": "0x3e573b8d3ecc85ae30e25ccc93943b663aab462bef42d9a22bb8464441f055ab",
      "assetIds": [
        "55464657044963196816950587289035428064568320970692304673817341489687941879808",
        "55464657044963196816950587289035428064568320970692304673817341489687933519880",
        "55464657044963196816950587289035428064568320970692304673817341489687933519882",
        "55464657044963196816950587289035428064568320970692304673817341489687933519886",
        "55464657044963196816950587289035428064568320970692304673817341489687933519883"
      ]
    },
    {
      "x": 17,
      "y": 65,
      "size": 1,
      "price": "4683000000000000000000",
      "reserved": "",
      "salt": "0x35abc9eb2024f59183ebe20e9f865ce71237fc113dba6d9290443ec729eabca2",
      "assetIds": [
        "55464657044963196816950587289035428064568320970692304673817341489687941879808",
        "55464657044963196816950587289035428064568320970692304673817341489687933519880",
        "55464657044963196816950587289035428064568320970692304673817341489687933519882",
        "55464657044963196816950587289035428064568320970692304673817341489687933519886",
        "55464657044963196816950587289035428064568320970692304673817341489687933519883"
      ]
    },
    {
      "x": 17,
      "y": 66,
      "size": 1,
      "price": "1011000000000000000000",
      "reserved": "0x7a9fe22691c811ea339d9b73150e6911a5343dca",
      "salt": "0xaf6036ee7580fa3e5200af7252f99b0da784a95094177f5c37abea2bbee612ae",
      "assetIds": []
    },
    {
      "x": 17,
      "y": 67,
      "size": 1,
      "price": "1011000000000000000000",
      "reserved": "",
      "salt": "0xa8bff8a1631c242d72d2ca2292c0663d9f08752f9cd3db44f7b8850b890e73ff",
      "assetIds": []
    },
    {
      "x": 17,
      "y": 68,
      "size": 1,
      "price": "1011000000000000000000",
      "reserved": "",
      "salt": "0x5e2cdbdb6ef8c4277c516ebe1f21798779298ffb38fbfa15a68ff1d2218c2a31",
      "assetIds": []
    },
    {
      "x": 17,
      "y": 69,
      "size": 1,
      "price": "1011000000000000000000",
      "reserved": "",
      "salt": "0x721441ee8c59d4300c1c945ebe36ab389f965bc44b73458ccc8e0019d405fd1e",
      "assetIds": []
    },
    {
      "x": 17,
      "y": 70,
      "size": 1,
      "price": "1011000000000000000000",
      "reserved": "0x7a9fe22691c811ea339d9b73150e6911a5343dca",
      "salt": "0xd94492cad0f643d7dcd7319f6af369d340a4674097ed9ffd0595d72df0a1458b",
      "assetIds": []
    },
    {
      "x": 17,
      "y": 71,
      "size": 1,
      "price": "1011000000000000000000",
      "reserved": "",
      "salt": "0x46517172ddbe9595e8e01654623769b303bc46699f6dc428e58746a76c554b0b",
      "assetIds": []
    },
    {
      "x": 17,
      "y": 78,
      "size": 1,
      "price": "1011000000000000000000",
      "reserved": "",
      "salt": "0x5eb17f396487742537cf3b19801dd00dcfa102f73bcbc0280469ecdc62293c5d",
      "assetIds": []
    },
    {
      "x": 17,
      "y": 79,
      "size": 1,
      "price": "1011000000000000000000",
      "reserved": "",
      "salt": "0x363fb289c34f71926faacec8e5e10e5047bf425c2e7f64ad37df6ab1d879fa4c",
      "assetIds": []
    },
    {
      "x": 17,
      "y": 80,
      "size": 1,
      "price": "1011000000000000000000",
      "reserved": "",
      "salt": "0x795c7e7886eb024af11c470049eee4d65a4159969b376387f73552c91ebd4ac1",
      "assetIds": []
    },
    {
      "x": 17,
      "y": 81,
      "size": 1,
      "price": "1011000000000000000000",
      "reserved": "",
      "salt": "0x11aad0d43fc8da15ba7e28cce65005e8ff1cd991f96310d1f599b1c2b9e0a1a7",
      "assetIds": []
    },
    {
      "x": 17,
      "y": 82,
      "size": 1,
      "price": "1011000000000000000000",
      "reserved": "",
      "salt": "0xb42af8c30dc1700d00478554155ed26fcbb7f95f8b561b33b3496005508df47f",
      "assetIds": []
    },
    {
      "x": 17,
      "y": 83,
      "size": 1,
      "price": "1011000000000000000000",
      "reserved": "0x7a9fe22691c811ea339d9b73150e6911a5343dca",
      "salt": "0x3bb900c5dfd361d83e29380146409b5930390a839f0301ad43aeba3242283cc8",
      "assetIds": []
    },
    {
      "x": 17,
      "y": 84,
      "size": 1,
      "price": "1011000000000000000000",
      "reserved": "",
      "salt": "0xaecc92eea2271bce66370861d8e210ddb88158a7c3a9e54f6bd01e1c81b960b3",
      "assetIds": []
    },
    {
      "x": 17,
      "y": 85,
      "size": 1,
      "price": "1011000000000000000000",
      "reserved": "",
      "salt": "0x49bebdb6dc28c00eaf162793c9d75de8186c3d6f88244f25ba525c5945d6b8e3",
      "assetIds": []
    },
    {
      "x": 17,
      "y": 86,
      "size": 1,
      "price": "1011000000000000000000",
      "reserved": "",
      "salt": "0x3a35deef66daeadf891d4891b649f5d1497380e8249095a7c20171442960c186",
      "assetIds": []
    },
    {
      "x": 17,
      "y": 87,
      "size": 1,
      "price": "1011000000000000000000",
      "reserved": "",
      "salt": "0x945c5fbe05b543fe1c54de05816daefa449ffa26393ccdd728f92b46e2d611f5",
      "assetIds": []
    },
    {
      "x": 18,
      "y": 60,
      "size": 1,
      "price": "4683000000000000000000",
      "reserved": "",
      "salt": "0x5b558c5a19f555127015281e8d57c3000d7c3418a37634cd4f4855eff6c78a70",
      "assetIds": [
        "55464657044963196816950587289035428064568320970692304673817341489687941879808",
        "55464657044963196816950587289035428064568320970692304673817341489687933519880",
        "55464657044963196816950587289035428064568320970692304673817341489687933519882",
        "55464657044963196816950587289035428064568320970692304673817341489687933519886",
        "55464657044963196816950587289035428064568320970692304673817341489687933519883"
      ]
    },
    {
      "x": 18,
      "y": 61,
      "size": 1,
      "price": "4683000000000000000000",
      "reserved": "",
      "salt": "0xe9d1550b91e04a64b6c98c59e6a5864cc3495209c2f7eb88c5f552dfca59c8c6",
      "assetIds": [
        "55464657044963196816950587289035428064568320970692304673817341489687941879808",
        "55464657044963196816950587289035428064568320970692304673817341489687933519880",
        "55464657044963196816950587289035428064568320970692304673817341489687933519882",
        "55464657044963196816950587289035428064568320970692304673817341489687933519886",
        "55464657044963196816950587289035428064568320970692304673817341489687933519883"
      ]
    },
    {
      "x": 18,
      "y": 62,
      "size": 1,
      "price": "4683000000000000000000",
      "reserved": "",
      "salt": "0x8a4ec749067bed71c9858216c6e69507b2e63d60accacbd7e9dedea6d4cc04af",
      "assetIds": [
        "55464657044963196816950587289035428064568320970692304673817341489687941879808",
        "55464657044963196816950587289035428064568320970692304673817341489687933519880",
        "55464657044963196816950587289035428064568320970692304673817341489687933519882",
        "55464657044963196816950587289035428064568320970692304673817341489687933519886",
        "55464657044963196816950587289035428064568320970692304673817341489687933519883"
      ]
    },
    {
      "x": 18,
      "y": 63,
      "size": 1,
      "price": "4683000000000000000000",
      "reserved": "",
      "salt": "0x4bb4f23a80a43a8fe82b0d11238193601c3245111b979dd1160250fff0ff0a5e",
      "assetIds": [
        "55464657044963196816950587289035428064568320970692304673817341489687941879808",
        "55464657044963196816950587289035428064568320970692304673817341489687933519880",
        "55464657044963196816950587289035428064568320970692304673817341489687933519882",
        "55464657044963196816950587289035428064568320970692304673817341489687933519886",
        "55464657044963196816950587289035428064568320970692304673817341489687933519883"
      ]
    },
    {
      "x": 18,
      "y": 64,
      "size": 1,
      "price": "4683000000000000000000",
      "reserved": "",
      "salt": "0x03c7516e0dee428666d3494d40646dd0796e7c0af2b659e516b6ce58258311ba",
      "assetIds": [
        "55464657044963196816950587289035428064568320970692304673817341489687941879808",
        "55464657044963196816950587289035428064568320970692304673817341489687933519880",
        "55464657044963196816950587289035428064568320970692304673817341489687933519882",
        "55464657044963196816950587289035428064568320970692304673817341489687933519886",
        "55464657044963196816950587289035428064568320970692304673817341489687933519883"
      ]
    },
    {
      "x": 18,
      "y": 65,
      "size": 1,
      "price": "4683000000000000000000",
      "reserved": "",
      "salt": "0xa454b06d0e2490d89d3c285084f3c045c688cab981338a68859f2e281119ad53",
      "assetIds": [
        "55464657044963196816950587289035428064568320970692304673817341489687941879808",
        "55464657044963196816950587289035428064568320970692304673817341489687933519880",
        "55464657044963196816950587289035428064568320970692304673817341489687933519882",
        "55464657044963196816950587289035428064568320970692304673817341489687933519886",
        "55464657044963196816950587289035428064568320970692304673817341489687933519883"
      ]
    },
    {
      "x": 18,
      "y": 66,
      "size": 1,
      "price": "4683000000000000000000",
      "reserved": "",
      "salt": "0xdafab45c35076cfeef0f16f3f68f683a5b1961ae28bb2276968676b356b00b5e",
      "assetIds": [
        "55464657044963196816950587289035428064568320970692304673817341489687941879808",
        "55464657044963196816950587289035428064568320970692304673817341489687933519880",
        "55464657044963196816950587289035428064568320970692304673817341489687933519882",
        "55464657044963196816950587289035428064568320970692304673817341489687933519886",
        "55464657044963196816950587289035428064568320970692304673817341489687933519883"
      ]
    },
    {
      "x": 18,
      "y": 67,
      "size": 1,
      "price": "4683000000000000000000",
      "reserved": "",
      "salt": "0xde3e435fc017b8ac89a92ddc11dd94ecc6102f3b38fcac8cbab3e459889ae5a9",
      "assetIds": [
        "55464657044963196816950587289035428064568320970692304673817341489687941879808",
        "55464657044963196816950587289035428064568320970692304673817341489687933519880",
        "55464657044963196816950587289035428064568320970692304673817341489687933519882",
        "55464657044963196816950587289035428064568320970692304673817341489687933519886",
        "55464657044963196816950587289035428064568320970692304673817341489687933519883"
      ]
    },
    {
      "x": 18,
      "y": 68,
      "size": 1,
      "price": "1011000000000000000000",
      "reserved": "",
      "salt": "0x1756d27989b8948113d484ec36911f5d3f8a45dd7081e4fafb2e2fec7d51112e",
      "assetIds": []
    },
    {
      "x": 18,
      "y": 69,
      "size": 1,
      "price": "1011000000000000000000",
      "reserved": "",
      "salt": "0x10fb79b484dcf8bfcd0c23ce9a5c0800ff5452269c96bcaf5503d41668aca89f",
      "assetIds": []
    },
    {
      "x": 18,
      "y": 70,
      "size": 1,
      "price": "1011000000000000000000",
      "reserved": "",
      "salt": "0x2792f15739c0cc5fb370be3f99c9441bdb2dc7255661d8dc9e620d4b9ea4b734",
      "assetIds": []
    },
    {
      "x": 18,
      "y": 71,
      "size": 1,
      "price": "1011000000000000000000",
      "reserved": "",
      "salt": "0x0acc77f688a9f5f00cd677746a16ca04f85d81aea85f50667fc8a13d01ac80bb",
      "assetIds": []
    },
    {
      "x": 18,
      "y": 75,
      "size": 1,
      "price": "1011000000000000000000",
      "reserved": "",
      "salt": "0x64409ac05edec32431bd6ad125587fa743294ad234bc8878d9f21a1b0de9ce0c",
      "assetIds": []
    },
    {
      "x": 18,
      "y": 76,
      "size": 1,
      "price": "1011000000000000000000",
      "reserved": "",
      "salt": "0xc658fcc0ff433a7fe439f2ec4c464aaca46ac67f0fc1b3a5544721002653de86",
      "assetIds": []
    },
    {
      "x": 18,
      "y": 77,
      "size": 1,
      "price": "1011000000000000000000",
      "reserved": "",
      "salt": "0xf594ef4bb6c0f7eb4abf360bccad458301e6937bf8ba857c4eab77a609f59a8e",
      "assetIds": []
    },
    {
      "x": 18,
      "y": 78,
      "size": 1,
      "price": "1011000000000000000000",
      "reserved": "",
      "salt": "0x4eab9f2d5b549975a5cd2e8e0e98107f0a531f6a059aec6d22579fff90f74ee3",
      "assetIds": []
    },
    {
      "x": 18,
      "y": 79,
      "size": 1,
      "price": "1011000000000000000000",
      "reserved": "0x7a9fe22691c811ea339d9b73150e6911a5343dca",
      "salt": "0xe15636ac5185f6d0be462121e891fbd6a4f62412a19ca03108f541f10a731e18",
      "assetIds": []
    },
    {
      "x": 18,
      "y": 80,
      "size": 1,
      "price": "1011000000000000000000",
      "reserved": "",
      "salt": "0x948f009bf325b8490811763da0809c64ca8681d2de643552faef6cb76cef5d9c",
      "assetIds": []
    },
    {
      "x": 18,
      "y": 81,
      "size": 1,
      "price": "1011000000000000000000",
      "reserved": "",
      "salt": "0xfd3b6acc3b28981999ab375a7211e4ad6e67715018e7a2798da871c7650dee31",
      "assetIds": []
    },
    {
      "x": 18,
      "y": 82,
      "size": 1,
      "price": "1011000000000000000000",
      "reserved": "0x7a9fe22691c811ea339d9b73150e6911a5343dca",
      "salt": "0x1c374947e4127f2f88684113061cc7a69cecc746a95b08a7e5ade1eba6e16f58",
      "assetIds": []
    },
    {
      "x": 18,
      "y": 83,
      "size": 1,
      "price": "1011000000000000000000",
      "reserved": "",
      "salt": "0xd5f4d12664124a2a20f85e36869c6c0678973adac76a3393492d0777532c26b9",
      "assetIds": []
    },
    {
      "x": 19,
      "y": 60,
      "size": 1,
      "price": "4683000000000000000000",
      "reserved": "",
      "salt": "0xddc814c4ae2d93fac67d4a3f22878e43866c057bd3e3dce1b1c7070a493ad899",
      "assetIds": [
        "55464657044963196816950587289035428064568320970692304673817341489687941879808",
        "55464657044963196816950587289035428064568320970692304673817341489687933519880",
        "55464657044963196816950587289035428064568320970692304673817341489687933519882",
        "55464657044963196816950587289035428064568320970692304673817341489687933519886",
        "55464657044963196816950587289035428064568320970692304673817341489687933519883"
      ]
    },
    {
      "x": 19,
      "y": 61,
      "size": 1,
      "price": "4683000000000000000000",
      "reserved": "",
      "salt": "0x40281ab9e84b72552aba19c6b4698a596e4afdf7a6465447d2db549dde718408",
      "assetIds": [
        "55464657044963196816950587289035428064568320970692304673817341489687941879808",
        "55464657044963196816950587289035428064568320970692304673817341489687933519880",
        "55464657044963196816950587289035428064568320970692304673817341489687933519882",
        "55464657044963196816950587289035428064568320970692304673817341489687933519886",
        "55464657044963196816950587289035428064568320970692304673817341489687933519883"
      ]
    },
    {
      "x": 19,
      "y": 62,
      "size": 1,
      "price": "4683000000000000000000",
      "reserved": "",
      "salt": "0x4b8650ebbb9361a3345b3c30c49199745952704a28cd6ca2fac46458aa035ba8",
      "assetIds": [
        "55464657044963196816950587289035428064568320970692304673817341489687941879808",
        "55464657044963196816950587289035428064568320970692304673817341489687933519880",
        "55464657044963196816950587289035428064568320970692304673817341489687933519882",
        "55464657044963196816950587289035428064568320970692304673817341489687933519886",
        "55464657044963196816950587289035428064568320970692304673817341489687933519883"
      ]
    },
    {
      "x": 19,
      "y": 63,
      "size": 1,
      "price": "4683000000000000000000",
      "reserved": "",
      "salt": "0x44285312ab311e86a337173122514d7ff29e25a5a84c275951d6fff5d0ff503a",
      "assetIds": [
        "55464657044963196816950587289035428064568320970692304673817341489687941879808",
        "55464657044963196816950587289035428064568320970692304673817341489687933519880",
        "55464657044963196816950587289035428064568320970692304673817341489687933519882",
        "55464657044963196816950587289035428064568320970692304673817341489687933519886",
        "55464657044963196816950587289035428064568320970692304673817341489687933519883"
      ]
    },
    {
      "x": 19,
      "y": 64,
      "size": 1,
      "price": "4683000000000000000000",
      "reserved": "",
      "salt": "0x46d06c1f2e1ef4850e3231a56a7c846095fd18bc2a75b7c4b64ae088c69cf2a7",
      "assetIds": [
        "55464657044963196816950587289035428064568320970692304673817341489687941879808",
        "55464657044963196816950587289035428064568320970692304673817341489687933519880",
        "55464657044963196816950587289035428064568320970692304673817341489687933519882",
        "55464657044963196816950587289035428064568320970692304673817341489687933519886",
        "55464657044963196816950587289035428064568320970692304673817341489687933519883"
      ]
    },
    {
      "x": 19,
      "y": 65,
      "size": 1,
      "price": "4683000000000000000000",
      "reserved": "",
      "salt": "0xb9b947d74646a938e3a45c6f6a36efdeb9c7edc2a07861633aa1186cc28a8a20",
      "assetIds": [
        "55464657044963196816950587289035428064568320970692304673817341489687941879808",
        "55464657044963196816950587289035428064568320970692304673817341489687933519880",
        "55464657044963196816950587289035428064568320970692304673817341489687933519882",
        "55464657044963196816950587289035428064568320970692304673817341489687933519886",
        "55464657044963196816950587289035428064568320970692304673817341489687933519883"
      ]
    },
    {
      "x": 19,
      "y": 66,
      "size": 1,
      "price": "1011000000000000000000",
      "reserved": "",
      "salt": "0xba5696ae072eebdb1d2e586b5c2f73769d6090fc71797c45aadf4266d897c909",
      "assetIds": []
    },
    {
      "x": 19,
      "y": 67,
      "size": 1,
      "price": "1011000000000000000000",
      "reserved": "",
      "salt": "0xe8ea0d9e8a2bcd074eb839667e5455ad443fb2fd81806d8e249610dce106c2f7",
      "assetIds": []
    },
    {
      "x": 19,
      "y": 68,
      "size": 1,
      "price": "1011000000000000000000",
      "reserved": "",
      "salt": "0xe94f6db707648070679947c67ad9075a9fdf14ea2b77a58a7f1324e0a4ca5583",
      "assetIds": []
    },
    {
      "x": 19,
      "y": 69,
      "size": 1,
      "price": "1011000000000000000000",
      "reserved": "",
      "salt": "0x8e54dea3f3e2607620198fe913edd6a8cb42d612879d9d02c55fe6402b5d6c56",
      "assetIds": []
    },
    {
      "x": 19,
      "y": 70,
      "size": 1,
      "price": "1011000000000000000000",
      "reserved": "",
      "salt": "0x62df3fc0c5b22381dfddc0090a5db59b1f7e2b55e14b6307ebfac467c598ff9f",
      "assetIds": []
    },
    {
      "x": 19,
      "y": 71,
      "size": 1,
      "price": "1011000000000000000000",
      "reserved": "",
      "salt": "0xdf658d75084a059a69c9e21e287b71aa7a02465097ec555999360cf14849e4a9",
      "assetIds": []
    },
    {
      "x": 19,
      "y": 75,
      "size": 1,
      "price": "1011000000000000000000",
      "reserved": "0x7a9fe22691c811ea339d9b73150e6911a5343dca",
      "salt": "0x786f166452fc9f649b9fabddff8f0da816c8a505e9f68c4b155b6f88ca25f34f",
      "assetIds": []
    },
    {
      "x": 19,
      "y": 76,
      "size": 1,
      "price": "1011000000000000000000",
      "reserved": "",
      "salt": "0x67ff900ea2416e9c824687295c08b7904414081ccb27d932752230ce992f211a",
      "assetIds": []
    },
    {
      "x": 19,
      "y": 77,
      "size": 1,
      "price": "1011000000000000000000",
      "reserved": "",
      "salt": "0x2c31dbaa0eef4685ad976a7e3e8b9eeddbbe919e02b1f6049fe018c714f4c650",
      "assetIds": []
    },
    {
      "x": 19,
      "y": 78,
      "size": 1,
      "price": "1011000000000000000000",
      "reserved": "0x7a9fe22691c811ea339d9b73150e6911a5343dca",
      "salt": "0x45ee606f351b194b24dd6419459f802e1264b0b7ab9bfbfd52004fdfd5e9b517",
      "assetIds": []
    },
    {
      "x": 19,
      "y": 79,
      "size": 1,
      "price": "1011000000000000000000",
      "reserved": "",
      "salt": "0x7a12f063832beb875d3fe54d9052e4a89496f0105990592351ac0bb968f2b596",
      "assetIds": []
    },
    {
      "x": 19,
      "y": 80,
      "size": 1,
      "price": "1011000000000000000000",
      "reserved": "",
      "salt": "0xa39e2f9bb2e0bcade78bec641c5411f17201ec7d2a9abc4480cce688cf221ba0",
      "assetIds": []
    },
    {
      "x": 19,
      "y": 81,
      "size": 1,
      "price": "1011000000000000000000",
      "reserved": "",
      "salt": "0x151b983b98fee308ed843e30a97944e484ed00e2dd80214c988705261b010438",
      "assetIds": []
    },
    {
      "x": 19,
      "y": 82,
      "size": 1,
      "price": "1011000000000000000000",
      "reserved": "",
      "salt": "0x31024ffc9afff4e33d7326e93f987ac93436f3356a171bab7f8870afba977073",
      "assetIds": []
    },
    {
      "x": 19,
      "y": 83,
      "size": 1,
      "price": "1011000000000000000000",
      "reserved": "",
      "salt": "0x5fc9d23c45f1a969f012d5f9ebd7f326a400a35800034f566d8c165dfaf8067a",
      "assetIds": []
    },
    {
      "x": 20,
      "y": 60,
      "size": 1,
      "price": "1011000000000000000000",
      "reserved": "0x7a9fe22691c811ea339d9b73150e6911a5343dca",
      "salt": "0xd70d6ce97a2a3a2287c9d506cc88e160471ce887193459148310b112a8c708de",
      "assetIds": []
    },
    {
      "x": 20,
      "y": 61,
      "size": 1,
      "price": "4683000000000000000000",
      "reserved": "",
      "salt": "0x5d531e8edcfbc761e617e0fa8ecd58688d4e086610c7e6e34e95a97ee8b5c315",
      "assetIds": [
        "55464657044963196816950587289035428064568320970692304673817341489687941879808",
        "55464657044963196816950587289035428064568320970692304673817341489687933519880",
        "55464657044963196816950587289035428064568320970692304673817341489687933519882",
        "55464657044963196816950587289035428064568320970692304673817341489687933519886",
        "55464657044963196816950587289035428064568320970692304673817341489687933519883"
      ]
    },
    {
      "x": 20,
      "y": 62,
      "size": 1,
      "price": "4683000000000000000000",
      "reserved": "",
      "salt": "0xdedc7c3f7e6db3b070e97af621361d5a3f288480d71f3e0ae72a31318d3a730b",
      "assetIds": [
        "55464657044963196816950587289035428064568320970692304673817341489687941879808",
        "55464657044963196816950587289035428064568320970692304673817341489687933519880",
        "55464657044963196816950587289035428064568320970692304673817341489687933519882",
        "55464657044963196816950587289035428064568320970692304673817341489687933519886",
        "55464657044963196816950587289035428064568320970692304673817341489687933519883"
      ]
    },
    {
      "x": 20,
      "y": 63,
      "size": 1,
      "price": "4683000000000000000000",
      "reserved": "",
      "salt": "0x3e954db1ba631feaf028f43e1f1fc492a1b39530be4eb327756e382b1d7067d1",
      "assetIds": [
        "55464657044963196816950587289035428064568320970692304673817341489687941879808",
        "55464657044963196816950587289035428064568320970692304673817341489687933519880",
        "55464657044963196816950587289035428064568320970692304673817341489687933519882",
        "55464657044963196816950587289035428064568320970692304673817341489687933519886",
        "55464657044963196816950587289035428064568320970692304673817341489687933519883"
      ]
    },
    {
      "x": 20,
      "y": 64,
      "size": 1,
      "price": "4683000000000000000000",
      "reserved": "",
      "salt": "0xd1d9554ba20127acd853f75caea236237c052a3fa3bf26dcf7f225a63e3b3eae",
      "assetIds": [
        "55464657044963196816950587289035428064568320970692304673817341489687941879808",
        "55464657044963196816950587289035428064568320970692304673817341489687933519880",
        "55464657044963196816950587289035428064568320970692304673817341489687933519882",
        "55464657044963196816950587289035428064568320970692304673817341489687933519886",
        "55464657044963196816950587289035428064568320970692304673817341489687933519883"
      ]
    },
    {
      "x": 20,
      "y": 65,
      "size": 1,
      "price": "1011000000000000000000",
      "reserved": "0x7a9fe22691c811ea339d9b73150e6911a5343dca",
      "salt": "0x7f82a1e494aae59398476f38ffb28d94baaeae9ae5f337868a93f1d997594a3a",
      "assetIds": []
    },
    {
      "x": 20,
      "y": 66,
      "size": 1,
      "price": "1011000000000000000000",
      "reserved": "",
      "salt": "0xe156a4284d1cbfb2af3c7b0e8cba5240984b6a38486a31ab07d053308bc527b5",
      "assetIds": []
    },
    {
      "x": 20,
      "y": 67,
      "size": 1,
      "price": "1011000000000000000000",
      "reserved": "",
      "salt": "0x31535bd6caba734eccdd3793def38f0ea78ec4852a3c606f71b7f1f0ac2b93e4",
      "assetIds": []
    },
    {
      "x": 20,
      "y": 68,
      "size": 1,
      "price": "1011000000000000000000",
      "reserved": "0x7a9fe22691c811ea339d9b73150e6911a5343dca",
      "salt": "0x3b103b005d878a61ce7b8f9fa333889d3b85b003407f927992db411702d0cde8",
      "assetIds": []
    },
    {
      "x": 20,
      "y": 69,
      "size": 1,
      "price": "1011000000000000000000",
      "reserved": "",
      "salt": "0x7bc10744bebe2bbc01394900385ee58b215b01c981f3b187faea0891718fe2fc",
      "assetIds": []
    },
    {
      "x": 20,
      "y": 70,
      "size": 1,
      "price": "1011000000000000000000",
      "reserved": "",
      "salt": "0x7e963a7eef66cec3bae59feac82b8e4d97b88a9f71ebb979d7c5f09e98d52852",
      "assetIds": []
    },
    {
      "x": 20,
      "y": 71,
      "size": 1,
      "price": "1011000000000000000000",
      "reserved": "",
      "salt": "0xe7230f5df9cb477e4890d7eb071573eb6118ac754f776d0700041a3ce59ebf70",
      "assetIds": []
    },
    {
      "x": 20,
      "y": 75,
      "size": 1,
      "price": "1011000000000000000000",
      "reserved": "",
      "salt": "0x8ff6bb672bb18b8001a82fc5839a650db2336425a8bce71e99e105b30ca5d195",
      "assetIds": []
    },
    {
      "x": 20,
      "y": 76,
      "size": 1,
      "price": "1011000000000000000000",
      "reserved": "",
      "salt": "0xd33ad859a2af046a66f9c55536fde22f096d95eb057b79530b1a949fe98a1537",
      "assetIds": []
    },
    {
      "x": 20,
      "y": 77,
      "size": 1,
      "price": "1011000000000000000000",
      "reserved": "0x7a9fe22691c811ea339d9b73150e6911a5343dca",
      "salt": "0x27bedf10924edcb352982f2926892843c5b63d7f1c034dbb70d82648c34deaae",
      "assetIds": []
    },
    {
      "x": 20,
      "y": 78,
      "size": 1,
      "price": "1011000000000000000000",
      "reserved": "",
      "salt": "0x596c34e38cf008b7df6aa075eddd8749e9135d401757250dcbdbd0b38cb6f4d2",
      "assetIds": []
    },
    {
      "x": 20,
      "y": 79,
      "size": 1,
      "price": "1011000000000000000000",
      "reserved": "",
      "salt": "0xeb5efd11bc7e4c2b4b7175a989cda84f21fc108ecfc5405ee29b606db67e478d",
      "assetIds": []
    },
    {
      "x": 20,
      "y": 80,
      "size": 1,
      "price": "1011000000000000000000",
      "reserved": "",
      "salt": "0xd33403b93a2efe51308cc0f967874b1814c08e83f15bf7981c6e7c353825d522",
      "assetIds": []
    },
    {
      "x": 20,
      "y": 81,
      "size": 1,
      "price": "1011000000000000000000",
      "reserved": "0x7a9fe22691c811ea339d9b73150e6911a5343dca",
      "salt": "0x05f5ebad2f06f391f3c0167001d6c0a7201ce14b54e30ad41265dacdae326c3a",
      "assetIds": []
    },
    {
      "x": 20,
      "y": 82,
      "size": 1,
      "price": "1011000000000000000000",
      "reserved": "",
      "salt": "0xe8a356c78349b3b890c6c45018bafc77864e4c65ecceaa5421f61e7e3fa7e42b",
      "assetIds": []
    },
    {
      "x": 20,
      "y": 83,
      "size": 1,
      "price": "1011000000000000000000",
      "reserved": "",
      "salt": "0xa8ef0585c0520ab22a6184e7b3ebf7ca42ef6fc0101d9eda41cdf4c8c214df77",
      "assetIds": []
    },
    {
      "x": 21,
      "y": 60,
      "size": 1,
      "price": "4683000000000000000000",
      "reserved": "",
      "salt": "0xf99373548e346cb5d0fcad2267fe98bfa02763268d6704099aebc484b8920693",
      "assetIds": [
        "55464657044963196816950587289035428064568320970692304673817341489687941879808",
        "55464657044963196816950587289035428064568320970692304673817341489687933519880",
        "55464657044963196816950587289035428064568320970692304673817341489687933519882",
        "55464657044963196816950587289035428064568320970692304673817341489687933519886",
        "55464657044963196816950587289035428064568320970692304673817341489687933519883"
      ]
    },
    {
      "x": 21,
      "y": 61,
      "size": 1,
      "price": "4683000000000000000000",
      "reserved": "",
      "salt": "0x4a3971669dcfb7718e3c749afa365307e59bdc4b29172c9e29bad975d8330b82",
      "assetIds": [
        "55464657044963196816950587289035428064568320970692304673817341489687941879808",
        "55464657044963196816950587289035428064568320970692304673817341489687933519880",
        "55464657044963196816950587289035428064568320970692304673817341489687933519882",
        "55464657044963196816950587289035428064568320970692304673817341489687933519886",
        "55464657044963196816950587289035428064568320970692304673817341489687933519883"
      ]
    },
    {
      "x": 21,
      "y": 62,
      "size": 1,
      "price": "4683000000000000000000",
      "reserved": "",
      "salt": "0x9549fb924003361d365cad599681b73feeabe3123cf24408244205c27da9aaf5",
      "assetIds": [
        "55464657044963196816950587289035428064568320970692304673817341489687941879808",
        "55464657044963196816950587289035428064568320970692304673817341489687933519880",
        "55464657044963196816950587289035428064568320970692304673817341489687933519882",
        "55464657044963196816950587289035428064568320970692304673817341489687933519886",
        "55464657044963196816950587289035428064568320970692304673817341489687933519883"
      ]
    },
    {
      "x": 21,
      "y": 63,
      "size": 1,
      "price": "4683000000000000000000",
      "reserved": "",
      "salt": "0xfeb24882c92fd90eb0a4ef44458d53e168b218f0425df8e8829d9927637a1fa5",
      "assetIds": [
        "55464657044963196816950587289035428064568320970692304673817341489687941879808",
        "55464657044963196816950587289035428064568320970692304673817341489687933519880",
        "55464657044963196816950587289035428064568320970692304673817341489687933519882",
        "55464657044963196816950587289035428064568320970692304673817341489687933519886",
        "55464657044963196816950587289035428064568320970692304673817341489687933519883"
      ]
    },
    {
      "x": 21,
      "y": 64,
      "size": 1,
      "price": "1011000000000000000000",
      "reserved": "",
      "salt": "0x443b5d62aa68ed32ce7c21e3e70e02bad5c688e92270c243d4cc1a7a16c25d39",
      "assetIds": []
    },
    {
      "x": 21,
      "y": 65,
      "size": 1,
      "price": "1011000000000000000000",
      "reserved": "0x7a9fe22691c811ea339d9b73150e6911a5343dca",
      "salt": "0xe58604f454e3b00c5ffddf340641ef8185bbf4fc5653feb2018940db28c8af09",
      "assetIds": []
    },
    {
      "x": 21,
      "y": 66,
      "size": 1,
      "price": "1011000000000000000000",
      "reserved": "",
      "salt": "0x8c2b26000edfc227d066b14cf790550c2fbf6b8c4bf1fb97bf82f762d4204d92",
      "assetIds": []
    },
    {
      "x": 21,
      "y": 67,
      "size": 1,
      "price": "1011000000000000000000",
      "reserved": "",
      "salt": "0xfbb7600a9a295a637749b35a9bd71ae6dbb92535cce38d0467363106bd6a8088",
      "assetIds": []
    },
    {
      "x": 21,
      "y": 68,
      "size": 1,
      "price": "1011000000000000000000",
      "reserved": "",
      "salt": "0x71596dc6623f44fad882ca3b3d7d3a1e589a6bb8cf5c3ce382cf710236b221e9",
      "assetIds": []
    },
    {
      "x": 21,
      "y": 69,
      "size": 1,
      "price": "1011000000000000000000",
      "reserved": "",
      "salt": "0xdfb1b41122a58575f4f04f8032a0eecfe64b0ab279d0836ac80c54cb64c76835",
      "assetIds": []
    },
    {
      "x": 21,
      "y": 70,
      "size": 1,
      "price": "1011000000000000000000",
      "reserved": "",
      "salt": "0x45e78b90d4fa6ba3d6f27b071c9422a10f3e7318625b277fdbc9538cc88e1c50",
      "assetIds": []
    },
    {
      "x": 21,
      "y": 71,
      "size": 1,
      "price": "1011000000000000000000",
      "reserved": "",
      "salt": "0x823f9e94973ade7c32f14a62efe11db50a024f584383e5d4bdd5d20939fbbc49",
      "assetIds": []
    },
    {
      "x": 21,
      "y": 72,
      "size": 1,
      "price": "1011000000000000000000",
      "reserved": "0x7a9fe22691c811ea339d9b73150e6911a5343dca",
      "salt": "0xaab2c4e07ded01e1e545c010c75b455d419422fd65f94d8985b3a12ea1190407",
      "assetIds": []
    },
    {
      "x": 21,
      "y": 73,
      "size": 1,
      "price": "1011000000000000000000",
      "reserved": "",
      "salt": "0xa1af25f21815e9b44f40c2ddb32e5f92eaf621b9099b5fe68e763c8545fab30b",
      "assetIds": []
    },
    {
      "x": 21,
      "y": 74,
      "size": 1,
      "price": "1011000000000000000000",
      "reserved": "",
      "salt": "0x99c1954ab87ec978e4f95f24ae0fe91ea05cbf8df5d8814af04a3bd7d523beb9",
      "assetIds": []
    },
    {
      "x": 21,
      "y": 75,
      "size": 1,
      "price": "1011000000000000000000",
      "reserved": "",
      "salt": "0xfa0f72b117aa0323f03082d6fd9e6a459027bb32d31cdd74205a9c97573a5b93",
      "assetIds": []
    },
    {
      "x": 21,
      "y": 76,
      "size": 1,
      "price": "1011000000000000000000",
      "reserved": "",
      "salt": "0x45dd715862c535efe2af0d39ef83e9fcb268613c6c162b7431f68a9ee2934b63",
      "assetIds": []
    },
    {
      "x": 21,
      "y": 77,
      "size": 1,
      "price": "1011000000000000000000",
      "reserved": "",
      "salt": "0xe1eec831d740f2989580db460c90e75190978c98c0e392225260d982986922e9",
      "assetIds": []
    },
    {
      "x": 21,
      "y": 78,
      "size": 1,
      "price": "1011000000000000000000",
      "reserved": "",
      "salt": "0xfb8f9bfa3404e4bd3979f3e6e6895bbad2dd56fd35e6ba5d14236065b423394b",
      "assetIds": []
    },
    {
      "x": 21,
      "y": 79,
      "size": 1,
      "price": "1011000000000000000000",
      "reserved": "0x7a9fe22691c811ea339d9b73150e6911a5343dca",
      "salt": "0xea1cae8d58e4c5d7eae3f478f83e4b52ee7c5db1300ef853606317df58aefa3f",
      "assetIds": []
    },
    {
      "x": 21,
      "y": 80,
      "size": 1,
      "price": "1011000000000000000000",
      "reserved": "",
      "salt": "0x11a4b9ecd48ad5715bfcf1bf824df51e08501643fd8e68a2bafdb8155cb1dc8e",
      "assetIds": []
    },
    {
      "x": 21,
      "y": 81,
      "size": 1,
      "price": "1011000000000000000000",
      "reserved": "",
      "salt": "0xc98ebf0baccc39af89dbd20a7fd5ed6b7c0c4282be8c5f6e8f436b8d615f9667",
      "assetIds": []
    },
    {
      "x": 21,
      "y": 82,
      "size": 1,
      "price": "1011000000000000000000",
      "reserved": "",
      "salt": "0x9d1a4084eb1aa08c63fb2111b9cbfe973947f4ddb6d2f28160534c784382c27a",
      "assetIds": []
    },
    {
      "x": 21,
      "y": 83,
      "size": 1,
      "price": "1011000000000000000000",
      "reserved": "",
      "salt": "0xf56e87b04d3fd2c187a3bb83c7afac6fc8d4c921e0b5c55999579a26e590d9ef",
      "assetIds": []
    },
    {
      "x": 22,
      "y": 60,
      "size": 1,
      "price": "4683000000000000000000",
      "reserved": "",
      "salt": "0x6bf0654a74b0306d188d0b75a9e32a48b258f26a2384f2459c6e9ebe1049ef68",
      "assetIds": [
        "55464657044963196816950587289035428064568320970692304673817341489687941879808",
        "55464657044963196816950587289035428064568320970692304673817341489687933519880",
        "55464657044963196816950587289035428064568320970692304673817341489687933519882",
        "55464657044963196816950587289035428064568320970692304673817341489687933519886",
        "55464657044963196816950587289035428064568320970692304673817341489687933519883"
      ]
    },
    {
      "x": 22,
      "y": 61,
      "size": 1,
      "price": "4683000000000000000000",
      "reserved": "",
      "salt": "0x4b94bc47f3ce16d4218cf168452eb6009c62caf23f3561199d093fdb90953a07",
      "assetIds": [
        "55464657044963196816950587289035428064568320970692304673817341489687941879808",
        "55464657044963196816950587289035428064568320970692304673817341489687933519880",
        "55464657044963196816950587289035428064568320970692304673817341489687933519882",
        "55464657044963196816950587289035428064568320970692304673817341489687933519886",
        "55464657044963196816950587289035428064568320970692304673817341489687933519883"
      ]
    },
    {
      "x": 22,
      "y": 62,
      "size": 1,
      "price": "4683000000000000000000",
      "reserved": "",
      "salt": "0x7c265e1a4943cdcece9854ed2e41a7e96f2f1856c8318850155c370ef64c68c5",
      "assetIds": [
        "55464657044963196816950587289035428064568320970692304673817341489687941879808",
        "55464657044963196816950587289035428064568320970692304673817341489687933519880",
        "55464657044963196816950587289035428064568320970692304673817341489687933519882",
        "55464657044963196816950587289035428064568320970692304673817341489687933519886",
        "55464657044963196816950587289035428064568320970692304673817341489687933519883"
      ]
    },
    {
      "x": 22,
      "y": 63,
      "size": 1,
      "price": "4683000000000000000000",
      "reserved": "",
      "salt": "0xd6c457416669c205a4055d4107864ede32f2ee1b067dfc6b26677532d1cdf37b",
      "assetIds": [
        "55464657044963196816950587289035428064568320970692304673817341489687941879808",
        "55464657044963196816950587289035428064568320970692304673817341489687933519880",
        "55464657044963196816950587289035428064568320970692304673817341489687933519882",
        "55464657044963196816950587289035428064568320970692304673817341489687933519886",
        "55464657044963196816950587289035428064568320970692304673817341489687933519883"
      ]
    },
    {
      "x": 22,
      "y": 64,
      "size": 1,
      "price": "1011000000000000000000",
      "reserved": "0x7a9fe22691c811ea339d9b73150e6911a5343dca",
      "salt": "0xe014a1e622e8470c7da5333cbc4fe06ecc10f720b9e35bdf964375c5b5d6349e",
      "assetIds": []
    },
    {
      "x": 22,
      "y": 65,
      "size": 1,
      "price": "1011000000000000000000",
      "reserved": "",
      "salt": "0x7389ebe557532263be987f0aa4ce9c1ff3a25b12d8b570ba86336942e7846cab",
      "assetIds": []
    },
    {
      "x": 22,
      "y": 66,
      "size": 1,
      "price": "1011000000000000000000",
      "reserved": "",
      "salt": "0x8a5f1902763e60de5080e346df77b00fe02838ec94e5a4f7262f9d502d6d42dc",
      "assetIds": []
    },
    {
      "x": 22,
      "y": 67,
      "size": 1,
      "price": "1011000000000000000000",
      "reserved": "",
      "salt": "0x2099e4b742aaaf5427b88fd01d39ad43e39a0ab58cedefb20eb65f252308fd99",
      "assetIds": []
    },
    {
      "x": 22,
      "y": 68,
      "size": 1,
      "price": "1011000000000000000000",
      "reserved": "",
      "salt": "0xcac133475fbbd4b8b5691ac2a472d266dcba029b93f95cb0fb9334a2071199bf",
      "assetIds": []
    },
    {
      "x": 22,
      "y": 69,
      "size": 1,
      "price": "1011000000000000000000",
      "reserved": "",
      "salt": "0xd1861ead1e28348c58508feb5bc224d4451a7b4ef54d744a8953c7f8ae9a9493",
      "assetIds": []
    },
    {
      "x": 22,
      "y": 70,
      "size": 1,
      "price": "1011000000000000000000",
      "reserved": "",
      "salt": "0x014eafc9d9c48e628abc1acae6a181792b1677645e4f4be16c4c66d4e3f3bd0e",
      "assetIds": []
    },
    {
      "x": 22,
      "y": 71,
      "size": 1,
      "price": "1011000000000000000000",
      "reserved": "",
      "salt": "0xce9d4491a088295b1a39c867696821679343fa621984a91a472c98f2dd03a434",
      "assetIds": []
    },
    {
      "x": 22,
      "y": 72,
      "size": 1,
      "price": "1011000000000000000000",
      "reserved": "",
      "salt": "0xf0ad3544325b567f6250d42fbc772edf652f51cc03eed54eec88635309492c3a",
      "assetIds": []
    },
    {
      "x": 22,
      "y": 73,
      "size": 1,
      "price": "1011000000000000000000",
      "reserved": "",
      "salt": "0x196a1fce4b8a7240bbb043bd8273e319c9b80b8b2488a557a975de58312b1cb7",
      "assetIds": []
    },
    {
      "x": 22,
      "y": 74,
      "size": 1,
      "price": "1011000000000000000000",
      "reserved": "0x7a9fe22691c811ea339d9b73150e6911a5343dca",
      "salt": "0x7f3a74645a6c933f034df8048f4474fc5ea35daa59128de528ae4a0aa2681884",
      "assetIds": []
    },
    {
      "x": 22,
      "y": 75,
      "size": 1,
      "price": "1011000000000000000000",
      "reserved": "",
      "salt": "0x96cd4114058b4e96ec76ed50f187d7cdf5156f1e1f08a0291c61c64e0ac2f947",
      "assetIds": []
    },
    {
      "x": 22,
      "y": 76,
      "size": 1,
      "price": "1011000000000000000000",
      "reserved": "",
      "salt": "0x70392539bb1d2f9d7e42096ceaf022a0d7c6b754fa94ef2998c9f840b966d50f",
      "assetIds": []
    },
    {
      "x": 22,
      "y": 77,
      "size": 1,
      "price": "1011000000000000000000",
      "reserved": "",
      "salt": "0xf126f51d7d689736e099f6bfbac7abd5ba14c5d28aa18c42c06541354f7f0beb",
      "assetIds": []
    },
    {
      "x": 22,
      "y": 78,
      "size": 1,
      "price": "1011000000000000000000",
      "reserved": "",
      "salt": "0xaea131cff97392389f982ebb5e80eede9ef2a9579e7029a8381ea747cb423076",
      "assetIds": []
    },
    {
      "x": 22,
      "y": 79,
      "size": 1,
      "price": "1011000000000000000000",
      "reserved": "",
      "salt": "0x64e804196f21c70ae14c3c126de696b3b5f1470b4985c9d7085efe785fe19a86",
      "assetIds": []
    },
    {
      "x": 22,
      "y": 80,
      "size": 1,
      "price": "1011000000000000000000",
      "reserved": "",
      "salt": "0x80e1b6ea75bc1ff6d92c5c94643e8d79ad95f405b081d509aed542f36804f153",
      "assetIds": []
    },
    {
      "x": 22,
      "y": 81,
      "size": 1,
      "price": "1011000000000000000000",
      "reserved": "",
      "salt": "0x6a1f38b87ea7c047ec230819af130c1b31c475ba6cc4de8e78fb670f902cb61a",
      "assetIds": []
    },
    {
      "x": 22,
      "y": 82,
      "size": 1,
      "price": "1011000000000000000000",
      "reserved": "",
      "salt": "0x6963a35b791949d2448c60834ddd31fd6a7568d3a60f66d56afc63d3cc52189c",
      "assetIds": []
    },
    {
      "x": 22,
      "y": 83,
      "size": 1,
      "price": "1011000000000000000000",
      "reserved": "",
      "salt": "0xc911da489d50ecf7cc73362054b38bb333ec86131fb3b963a0bed24967a4c8fe",
      "assetIds": []
    },
    {
      "x": 23,
      "y": 60,
      "size": 1,
      "price": "4683000000000000000000",
      "reserved": "",
      "salt": "0x75a2a23745767adde11c221f65a5bc4bb4771a14e5338ceb5845896c01854686",
      "assetIds": [
        "55464657044963196816950587289035428064568320970692304673817341489687941879808",
        "55464657044963196816950587289035428064568320970692304673817341489687933519880",
        "55464657044963196816950587289035428064568320970692304673817341489687933519882",
        "55464657044963196816950587289035428064568320970692304673817341489687933519886",
        "55464657044963196816950587289035428064568320970692304673817341489687933519883"
      ]
    },
    {
      "x": 23,
      "y": 61,
      "size": 1,
      "price": "4683000000000000000000",
      "reserved": "",
      "salt": "0xe1191665bc7fd7255960517fa0484d9ad18c92217e3f83c753809852c8ecdd0e",
      "assetIds": [
        "55464657044963196816950587289035428064568320970692304673817341489687941879808",
        "55464657044963196816950587289035428064568320970692304673817341489687933519880",
        "55464657044963196816950587289035428064568320970692304673817341489687933519882",
        "55464657044963196816950587289035428064568320970692304673817341489687933519886",
        "55464657044963196816950587289035428064568320970692304673817341489687933519883"
      ]
    },
    {
      "x": 23,
      "y": 62,
      "size": 1,
      "price": "4683000000000000000000",
      "reserved": "",
      "salt": "0x5db60d6fcd23fe87b5a22798aed85e71c7432bc9e50a976a8c1bdaecd7af21aa",
      "assetIds": [
        "55464657044963196816950587289035428064568320970692304673817341489687941879808",
        "55464657044963196816950587289035428064568320970692304673817341489687933519880",
        "55464657044963196816950587289035428064568320970692304673817341489687933519882",
        "55464657044963196816950587289035428064568320970692304673817341489687933519886",
        "55464657044963196816950587289035428064568320970692304673817341489687933519883"
      ]
    },
    {
      "x": 23,
      "y": 63,
      "size": 1,
      "price": "4683000000000000000000",
      "reserved": "",
      "salt": "0xa2406b407ffc7e1f371387314dd44a67d7c713b9fbef3e00a3a0d69befabc44e",
      "assetIds": [
        "55464657044963196816950587289035428064568320970692304673817341489687941879808",
        "55464657044963196816950587289035428064568320970692304673817341489687933519880",
        "55464657044963196816950587289035428064568320970692304673817341489687933519882",
        "55464657044963196816950587289035428064568320970692304673817341489687933519886",
        "55464657044963196816950587289035428064568320970692304673817341489687933519883"
      ]
    },
    {
      "x": 23,
      "y": 64,
      "size": 1,
      "price": "1011000000000000000000",
      "reserved": "",
      "salt": "0x482ae221ee47c8123dae1fc57d4b196ffb07a09dbea269d554b47327aad10a78",
      "assetIds": []
    },
    {
      "x": 23,
      "y": 65,
      "size": 1,
      "price": "1011000000000000000000",
      "reserved": "",
      "salt": "0x89b2bb76bdc020e66dbe3049b25053942f28b16e3a5166fcf85050c2f27a1f69",
      "assetIds": []
    },
    {
      "x": 23,
      "y": 66,
      "size": 1,
      "price": "1011000000000000000000",
      "reserved": "",
      "salt": "0x3c6d0ec0ed336075b7935afc431bb26d85a6c0467d46105f635ab5c4735aa265",
      "assetIds": []
    },
    {
      "x": 23,
      "y": 67,
      "size": 1,
      "price": "1011000000000000000000",
      "reserved": "",
      "salt": "0x5c581d71df255ed83768b7dd3b733ac846507c686f668f34ed2204e4b1a5c737",
      "assetIds": []
    },
    {
      "x": 23,
      "y": 68,
      "size": 1,
      "price": "1011000000000000000000",
      "reserved": "",
      "salt": "0x2d818ac4dd3d3fe731134d833a1b3ae83fbb37ce138fa48a79f5195ff0e143c5",
      "assetIds": []
    },
    {
      "x": 23,
      "y": 69,
      "size": 1,
      "price": "1011000000000000000000",
      "reserved": "",
      "salt": "0x53df2737620ebbbb0e00aee79f532aadf5f1f6a15df649d485ac9d9a65525528",
      "assetIds": []
    },
    {
      "x": 23,
      "y": 70,
      "size": 1,
      "price": "1011000000000000000000",
      "reserved": "",
      "salt": "0x1ab5e9fc0398692053fc9f64bc8cb57b11e4bc495d2578e3b1b812ed035b69a1",
      "assetIds": []
    },
    {
      "x": 23,
      "y": 71,
      "size": 1,
      "price": "1011000000000000000000",
      "reserved": "",
      "salt": "0x415c508b63aaa342dfd194f323928326613e7cdf5cd744013b33b36878909d1b",
      "assetIds": []
    },
    {
      "x": 23,
      "y": 72,
      "size": 1,
      "price": "1011000000000000000000",
      "reserved": "",
      "salt": "0x96ef5f58fa7dcc9a13cbde99af8eb34f86d880903f71a702cbc48f4b677cd1e3",
      "assetIds": []
    },
    {
      "x": 23,
      "y": 73,
      "size": 1,
      "price": "1011000000000000000000",
      "reserved": "",
      "salt": "0x41fc4d5efa86d8917d489950734560ee31e09f5ba93906916910397385b8fd07",
      "assetIds": []
    },
    {
      "x": 23,
      "y": 74,
      "size": 1,
      "price": "1011000000000000000000",
      "reserved": "",
      "salt": "0x6a3e17bc13eeb687c18fe400415d1e96fd89bc5eae1f9394b2a23ab4ccb9679e",
      "assetIds": []
    },
    {
      "x": 23,
      "y": 75,
      "size": 1,
      "price": "1011000000000000000000",
      "reserved": "",
      "salt": "0x5426b2fa8034bd3a2e20df2297863269e0a62ca21c5602ce53cfdcdadc8730e4",
      "assetIds": []
    },
    {
      "x": 23,
      "y": 76,
      "size": 1,
      "price": "1011000000000000000000",
      "reserved": "",
      "salt": "0xb7cc2e00bbd180e64e3d4e22d2daaeb9991547da612a4a031bd2b7b30212f72d",
      "assetIds": []
    },
    {
      "x": 23,
      "y": 77,
      "size": 1,
      "price": "1011000000000000000000",
      "reserved": "",
      "salt": "0xed917da9e02890eacab62bee151fa06d355a9d3768e75397db8e586f82b09a8b",
      "assetIds": []
    },
    {
      "x": 23,
      "y": 78,
      "size": 1,
      "price": "1011000000000000000000",
      "reserved": "",
      "salt": "0x5db9313775830617d304c437198ff32f76f849cec3df49dd7a33bc01790fdba5",
      "assetIds": []
    },
    {
      "x": 23,
      "y": 79,
      "size": 1,
      "price": "1011000000000000000000",
      "reserved": "",
      "salt": "0xe8c7cbc1f0cf7f3f83479322d69f09f92dc6b411e551f0b4455a31f12c93dbc0",
      "assetIds": []
    },
    {
      "x": 23,
      "y": 80,
      "size": 1,
      "price": "1011000000000000000000",
      "reserved": "0x7a9fe22691c811ea339d9b73150e6911a5343dca",
      "salt": "0x6ef963b1372344e91d03e3a7a2030d2bf0c21deb018e36fec4eb2ab29ca4b028",
      "assetIds": []
    },
    {
      "x": 23,
      "y": 81,
      "size": 1,
      "price": "1011000000000000000000",
      "reserved": "",
      "salt": "0x92d262d6328e0340b85833c28d627be170ba5d59d8928a99f31e715a5ae3ba9d",
      "assetIds": []
    },
    {
      "x": 23,
      "y": 82,
      "size": 1,
      "price": "1011000000000000000000",
      "reserved": "",
      "salt": "0xfa4fedfde9422096d881a4263008d5e5562bcb25322e13f749e20a5a36202690",
      "assetIds": []
    },
    {
      "x": 23,
      "y": 83,
      "size": 1,
      "price": "1011000000000000000000",
      "reserved": "",
      "salt": "0xc59e6391db1e015805e999b25302daf706dcb56e5bd92383c58ed3c5c44b7573",
      "assetIds": []
    },
    {
      "x": 24,
      "y": 66,
      "size": 1,
      "price": "1011000000000000000000",
      "reserved": "",
      "salt": "0x7c4fc7494d44c5d45a31dafd88e2c2628d480d6b0af44787a781f5d7bf83d41b",
      "assetIds": []
    },
    {
      "x": 24,
      "y": 67,
      "size": 1,
      "price": "1011000000000000000000",
      "reserved": "0x7a9fe22691c811ea339d9b73150e6911a5343dca",
      "salt": "0xe6ce00e35afc31117a79080f1819a8e6a3fd78f7c136e5ae31ad39fc6a3d74ca",
      "assetIds": []
    },
    {
      "x": 24,
      "y": 68,
      "size": 1,
      "price": "1011000000000000000000",
      "reserved": "",
      "salt": "0xfe659c82c8616cb8d4660a28c0b8f94eb66b77a4c1ecdb934ca3e9aa86b9bb63",
      "assetIds": []
    },
    {
      "x": 24,
      "y": 69,
      "size": 1,
      "price": "1011000000000000000000",
      "reserved": "",
      "salt": "0x74822fed4ffc04433e4896ce732e09aae7f84d92df563c3368db587208fa1a0d",
      "assetIds": []
    },
    {
      "x": 24,
      "y": 70,
      "size": 1,
      "price": "1011000000000000000000",
      "reserved": "",
      "salt": "0xc50ef502ab1fdb54c0130e2d3903a24e9f9f0a76b61d9f8508ce6b3ba181a76e",
      "assetIds": []
    },
    {
      "x": 24,
      "y": 71,
      "size": 1,
      "price": "1011000000000000000000",
      "reserved": "",
      "salt": "0x5c2a6058718c7fc0e22212b170204b52d89956d073be5b5d9fd05df69fad419b",
      "assetIds": []
    },
    {
      "x": 25,
      "y": 66,
      "size": 1,
      "price": "1011000000000000000000",
      "reserved": "",
      "salt": "0x7f7411a5980325f57686675fba77e26362092882168ec331dc8842cc2a097df0",
      "assetIds": []
    },
    {
      "x": 25,
      "y": 67,
      "size": 1,
      "price": "1011000000000000000000",
      "reserved": "",
      "salt": "0x04ada8cefb4c48c60a5bcacd2aa713ec6f858d42f5741f89a9d869c6af1f1daf",
      "assetIds": []
    },
    {
      "x": 25,
      "y": 68,
      "size": 1,
      "price": "1011000000000000000000",
      "reserved": "",
      "salt": "0x4990109b96ca091ef63e4bcb68e230f1cc5831acb1ce5133e94d53ff3d6da42d",
      "assetIds": []
    },
    {
      "x": 25,
      "y": 69,
      "size": 1,
      "price": "1011000000000000000000",
      "reserved": "",
      "salt": "0x384214de9750113faed0160d3151613f7f02d64a2ce62c10e8f4bc14f99ef514",
      "assetIds": []
    },
    {
      "x": 25,
      "y": 70,
      "size": 1,
      "price": "1011000000000000000000",
      "reserved": "",
      "salt": "0x2b0d2f1803493228192a2f386d10fde151a0691c8b364a9b5fc0497823a9e1be",
      "assetIds": []
    },
    {
      "x": 25,
      "y": 71,
      "size": 1,
      "price": "1011000000000000000000",
      "reserved": "",
      "salt": "0x79964869001471a55535bf5b3c97e969e0b3c4b1681361509cc78b1f6a9f419f",
      "assetIds": []
    },
    {
      "x": 26,
      "y": 66,
      "size": 1,
      "price": "1011000000000000000000",
      "reserved": "0x7a9fe22691c811ea339d9b73150e6911a5343dca",
      "salt": "0x3389a0e93d95c6e317f109c8d9d608ec0ed966d1235b63fe7dd25377b9f4c90f",
      "assetIds": []
    },
    {
      "x": 26,
      "y": 67,
      "size": 1,
      "price": "1011000000000000000000",
      "reserved": "",
      "salt": "0x80c442c6c54ad0ad38c212d8ede8fb85a55bf78c4adc3cec784c8e85e314c621",
      "assetIds": []
    },
    {
      "x": 26,
      "y": 68,
      "size": 1,
      "price": "1011000000000000000000",
      "reserved": "0x7a9fe22691c811ea339d9b73150e6911a5343dca",
      "salt": "0x4153992797f0df1a0bd16dbf03f57b09c5c609148b498fda67ab7573846b3094",
      "assetIds": []
    },
    {
      "x": 26,
      "y": 69,
      "size": 1,
      "price": "1011000000000000000000",
      "reserved": "",
      "salt": "0x11b9e5fec7d22483f0b4d627f0f29ed3720f4a86ec7e7041e0c5d976a75afa56",
      "assetIds": []
    },
    {
      "x": 26,
      "y": 70,
      "size": 1,
      "price": "1011000000000000000000",
      "reserved": "0x7a9fe22691c811ea339d9b73150e6911a5343dca",
      "salt": "0xd2b6beaaa31472cff24f9948d103ca854bbf081abb9ecc968df83e9412732b98",
      "assetIds": []
    },
    {
      "x": 26,
      "y": 71,
      "size": 1,
      "price": "1011000000000000000000",
      "reserved": "",
      "salt": "0x74807cbe7aae3154fd2ebd4738296aef69511055efcb93171f80802734ab24fe",
      "assetIds": []
    },
    {
      "x": 3,
      "y": 54,
      "size": 3,
      "price": "8648000000000000000000",
      "reserved": "0x7a9fe22691c811ea339d9b73150e6911a5343dca",
      "salt": "0x57c8963983c43eddf5ce89b8b8155ec91a239532ed0b119f3f75cd07f1d1de7f",
      "assetIds": []
    },
    {
      "x": 9,
      "y": 42,
      "size": 3,
      "price": "8648000000000000000000",
      "reserved": "0x7a9fe22691c811ea339d9b73150e6911a5343dca",
      "salt": "0x96e0e4848c73f774e1edfe72adba5d698a0af4617afc5625b7c91c8d5f0300f9",
      "assetIds": []
    },
    {
      "x": 9,
      "y": 84,
      "size": 3,
      "price": "8648000000000000000000",
      "reserved": "0x7a9fe22691c811ea339d9b73150e6911a5343dca",
      "salt": "0x161b49161ca28a1fece098d17a5125eccd49cf24767b1f3a3eb6e07311d220b8",
      "assetIds": []
    },
    {
      "x": 9,
      "y": 87,
      "size": 3,
      "price": "8648000000000000000000",
      "reserved": "0x7a9fe22691c811ea339d9b73150e6911a5343dca",
      "salt": "0x99b13b8dd0802ca49dc2c656375c84cfb8e301e638387738391c6a356a46b484",
      "assetIds": []
    },
    {
      "x": 12,
      "y": 57,
      "size": 3,
      "price": "8648000000000000000000",
      "reserved": "0x7a9fe22691c811ea339d9b73150e6911a5343dca",
      "salt": "0xb455f429c14ee52c43c2ebec66067d71705610a00a4be628a043219c764fa00a",
      "assetIds": []
    },
    {
      "x": 12,
      "y": 60,
      "size": 3,
      "price": "8648000000000000000000",
      "reserved": "0x7a9fe22691c811ea339d9b73150e6911a5343dca",
      "salt": "0xf148a3508ba4a2b6e3cf64dce4cfbe3606e065cf562028aa493481109c72d531",
      "assetIds": []
    },
    {
      "x": 18,
      "y": 72,
      "size": 3,
      "price": "8648000000000000000000",
      "reserved": "0x7a9fe22691c811ea339d9b73150e6911a5343dca",
      "salt": "0x384cfea0796872679961d32ce91f71f0f6e200d2d4000e7531430f0d52bda757",
      "assetIds": []
    },
    {
      "x": 0,
      "y": 60,
      "size": 6,
      "price": "32772000000000000000000",
      "reserved": "0x7a9fe22691c811ea339d9b73150e6911a5343dca",
      "salt": "0x4ce39684d99c1e37ffea681c6626c42c471d0ba9f40be323a4fb052bfaf5d713",
      "assetIds": []
    },
    {
      "x": 0,
      "y": 84,
      "size": 6,
      "price": "32772000000000000000000",
      "reserved": "0x7a9fe22691c811ea339d9b73150e6911a5343dca",
      "salt": "0x469cc4e84f1b0be14300f0761b9a3cb2e52c8554fd8571b624a9c6be4cee709d",
      "assetIds": []
    },
    {
      "x": 6,
      "y": 54,
      "size": 6,
      "price": "32772000000000000000000",
      "reserved": "0x7a9fe22691c811ea339d9b73150e6911a5343dca",
      "salt": "0x0c0148497c70c13b1fcc638a03e4cb4f4c2eedaea5fd87a5ea22b1dd26050fec",
      "assetIds": []
    },
    {
      "x": 12,
      "y": 72,
      "size": 6,
      "price": "32772000000000000000000",
      "reserved": "0x7a9fe22691c811ea339d9b73150e6911a5343dca",
      "salt": "0x95debabd6f929e03f40c727712db35dfb9c227d50b4368281e000ae0808a35a2",
      "assetIds": []
    },
    {
      "x": 0,
      "y": 72,
      "size": 12,
      "price": "123806000000000000000000",
      "reserved": "0x7a9fe22691c811ea339d9b73150e6911a5343dca",
      "salt": "0xa940bb6978c404ce8cb0ee369a2cb30dc90e8e5e36658bcd7fa347fb4327ae77",
      "assetIds": []
    },
    {
      "x": 144,
      "y": 156,
      "size": 12,
      "price": "123806000000000000000000",
      "reserved": "0x7a9fe22691c811ea339d9b73150e6911a5343dca",
      "salt": "0x19129923fcc01e9817a6205eeeb571f068f64e7480ff4a459295ad0fc7991d6c",
      "assetIds": []
    }
  ],
  "solcInputHash": "ea3f750ed6a3f377b8756d8b7b11eedf",
  "bytecode": "0x610160604052620d2f006005556103e860075534801561001e57600080fd5b5060405161242e38038061242e833981810160405261018081101561004257600080fd5b50805160208201516040830151606080850151608086015160a08088015160c0808a015160e08b01516101008c01516101208d01516101408e0151610160909e0151600280546001600160a01b0319166001600160a01b03861617905560038390558d8b1b6001600160601b0319908116909852998c901b909616909352999a9899979895979496929590949391926100dc8a600161014a565b600680546001600160a01b03199081166001600160a01b039a8b1617909155610140979097526101209590955260008054909616979096169690961790935550606093841b6001600160601b031990811660e05292841b831660805290921b1661010052506101ae92505050565b6001600160a01b038216600081815260016020908152604091829020805460ff191685151590811790915582519384529083015280517fb21eb88b4e33b3f1281830a7178d74d8aa73220416215726b68ae23d539515cb9281900390910190a15050565b60805160601c60a05160601c60c05160601c60e05160601c6101005160601c61012051610140516121fb610233600039806109375280611d44525080610913528061139a525080611da45250806115d252806116f4525080610c50528061159c5280611dd852508061166152806116c5525080610dfa528061190852506121fb6000f3fe608060405234801561001057600080fd5b50600436106101515760003560e01c8063984d6252116100cd578063dc5074af11610081578063ecb255b511610066578063ecb255b514610857578063f23a6e6114610874578063f2e7b3811461090957610151565b8063dc5074af14610814578063e56f8a9e1461083a57610151565b8063bc197c81116100b2578063bc197c81146105d3578063c10a420814610735578063caed35001461080c57610151565b8063984d6252146104db578063b522ecff146105ad57610151565b80636e9960c3116101245780638a04af6a116101095780638a04af6a1461032a5780638a12b82f146103585780638f283970146104b557610151565b80636e9960c3146102fe57806377f1c3ac1461032257610151565b806325cb5bc014610156578063495906571461017057806358bc29441461017857806365194ce7146101a0575b600080fd5b61015e610911565b60408051918252519081900360200190f35b61015e610935565b61019e6004803603602081101561018e57600080fd5b50356001600160a01b0316610959565b005b610246600480360360208110156101b657600080fd5b8101906020810181356401000000008111156101d157600080fd5b8201836020820111156101e357600080fd5b8035906020019184600183028401116401000000008311171561020557600080fd5b91908080601f016020809104026020016040519081016040528093929190818152602001838380828437600092019190915250929550610a04945050505050565b6040518080602001866001600160a01b03166001600160a01b03168152602001856001600160a01b03166001600160a01b03168152602001848152602001838152602001828103825287818151815260200191508051906020019080838360005b838110156102bf5781810151838201526020016102a7565b50505050905090810190601f1680156102ec5780820380516001836020036101000a031916815260200191505b50965050505050505060405180910390f35b610306610b09565b604080516001600160a01b039092168252519081900360200190f35b61015e610b18565b61019e6004803603604081101561034057600080fd5b506001600160a01b0381351690602001351515610b1e565b61019e600480360361018081101561036f57600080fd5b6001600160a01b038235811692602081013582169260408201359092169160608201359160808101359160a08201359160c08101359160e0820135916101008101359181019061014081016101208201356401000000008111156103d257600080fd5b8201836020820111156103e457600080fd5b8035906020019184602083028401116401000000008311171561040657600080fd5b91939092909160208101903564010000000081111561042457600080fd5b82018360208201111561043657600080fd5b8035906020019184602083028401116401000000008311171561045857600080fd5b91939092909160208101903564010000000081111561047657600080fd5b82018360208201111561048857600080fd5b803590602001918460018302840111640100000000831117156104aa57600080fd5b509092509050610b75565b61019e600480360360208110156104cb57600080fd5b50356001600160a01b0316610cc3565b61019e600480360360608110156104f157600080fd5b6001600160a01b03823516919081019060408101602082013564010000000081111561051c57600080fd5b82018360208201111561052e57600080fd5b8035906020019184602083028401116401000000008311171561055057600080fd5b91939092909160208101903564010000000081111561056e57600080fd5b82018360208201111561058057600080fd5b803590602001918460208302840111640100000000831117156105a257600080fd5b509092509050610d99565b61019e600480360360208110156105c357600080fd5b50356001600160a01b0316610f24565b610700600480360360a08110156105e957600080fd5b6001600160a01b03823581169260208101359091169181019060608101604082013564010000000081111561061d57600080fd5b82018360208201111561062f57600080fd5b8035906020019184602083028401116401000000008311171561065157600080fd5b91939092909160208101903564010000000081111561066f57600080fd5b82018360208201111561068157600080fd5b803590602001918460208302840111640100000000831117156106a357600080fd5b9193909290916020810190356401000000008111156106c157600080fd5b8201836020820111156106d357600080fd5b803590602001918460018302840111640100000000831117156106f557600080fd5b50909250905061100d565b604080517fffffffff000000000000000000000000000000000000000000000000000000009092168252519081900360200190f35b6107f8600480360360a081101561074b57600080fd5b81019060208101813564010000000081111561076657600080fd5b82018360208201111561077857600080fd5b8035906020019184600183028401116401000000008311171561079a57600080fd5b91908080601f016020809104026020016040519081016040528093929190818152602001838380828437600092019190915250929550506001600160a01b03833581169450602084013516926040810135925060600135905061103a565b604080519115158252519081900360200190f35b610306611176565b6107f86004803603602081101561082a57600080fd5b50356001600160a01b0316611185565b61019e6004803603602081101561085057600080fd5b50356111a3565b61019e6004803603602081101561086d57600080fd5b5035611207565b610700600480360360a081101561088a57600080fd5b6001600160a01b03823581169260208101359091169160408201359160608101359181019060a0810160808201356401000000008111156108ca57600080fd5b8201836020820111156108dc57600080fd5b803590602001918460018302840111640100000000831117156108fe57600080fd5b50909250905061126b565b61015e611296565b7f000000000000000000000000000000000000000000000000000000000000000090565b7f000000000000000000000000000000000000000000000000000000000000000090565b6000546001600160a01b031633146109b8576040805162461bcd60e51b815260206004820152601060248201527f53656e646572206e6f742061646d696e00000000000000000000000000000000604482015290519081900360640190fd5b600554600280546001600160a01b03908116600090815260046020526040902042909301909255805473ffffffffffffffffffffffffffffffffffffffff191692909116919091179055565b606060008060008060606000806000808a80602001905160a0811015610a2957600080fd5b8101908080516040519392919084640100000000821115610a4957600080fd5b908301906020820185811115610a5e57600080fd5b8251640100000000811182820188101715610a7857600080fd5b82525081516020918201929091019080838360005b83811015610aa5578181015183820152602001610a8d565b50505050905090810190601f168015610ad25780820380516001836020036101000a031916815260200191505b5060409081526020820151908201516060830151608090930151959f50909d509b5099509197505050505050505091939590929450565b6000546001600160a01b031690565b60035490565b6000546001600160a01b03163314610b675760405162461bcd60e51b815260040180806020018281038252602e815260200180612198602e913960400191505060405180910390fd5b610b71828261129c565b5050565b610b7f898961131e565b610c048f8e8e8e8e8e8d8d8d80806020026020016040519081016040528093929190818152602001838360200280828437600081840152601f19601f820116905080830192505050505050508c8c8080602002602001604051908101604052809392919081815260200183836020028082843760009201919091525061139892505050565b610c458f8984848080601f01602080910402602001604051908101604052809392919081815260200183838082843760009201919091525061157592505050565b610c758f8f8e8e8e8d7f00000000000000000000000000000000000000000000000000000000000000008f6115c6565b610cb28e87878080602002602001604051908101604052809392919081815260200183836020028082843760009201919091525061189192505050565b505050505050505050505050505050565b6000546001600160a01b03163314610d22576040805162461bcd60e51b815260206004820152601b60248201527f6f6e6c792061646d696e2063616e206368616e67652061646d696e0000000000604482015290519081900360640190fd5b600054604080516001600160a01b039283168152918316602083015280517f7e644d79422f17c01e4894b5f4f588d331ebfa28653d42ae832dc59e38c9798f9281900390910190a16000805473ffffffffffffffffffffffffffffffffffffffff19166001600160a01b0392909216919091179055565b6000546001600160a01b03163314610df8576040805162461bcd60e51b815260206004820152600e60248201527f4e4f545f415554484f52495a4544000000000000000000000000000000000000604482015290519081900360640190fd5b7f00000000000000000000000000000000000000000000000000000000000000006001600160a01b0316632eb2c2d63087878787876040518763ffffffff1660e01b815260040180876001600160a01b03166001600160a01b03168152602001866001600160a01b03166001600160a01b031681526020018060200180602001806020018481038452888882818152602001925060200280828437600083820152601f01601f19169091018581038452868152602090810191508790870280828437600081840152601f19601f8201169050808301925050508481038252600081526020016020019950505050505050505050600060405180830381600087803b158015610f0557600080fd5b505af1158015610f19573d6000803e3d6000fd5b505050505050505050565b6001600160a01b038116610f7f576040805162461bcd60e51b815260206004820152600c60248201527f5a45524f5f414444524553530000000000000000000000000000000000000000604482015290519081900360640190fd5b6000546001600160a01b03163314610fde576040805162461bcd60e51b815260206004820152600e60248201527f4e4f545f415554484f52495a4544000000000000000000000000000000000000604482015290519081900360640190fd5b6006805473ffffffffffffffffffffffffffffffffffffffff19166001600160a01b0392909216919091179055565b7fbc197c810000000000000000000000000000000000000000000000000000000098975050505050505050565b600060035482118061105d5750836001600160a01b0316856001600160a01b0316145b8061106757508242115b156110745750600061116d565b60408051606087811b7fffffffffffffffffffffffffffffffffffffffff0000000000000000000000009081166020808501919091529188901b166034830152604882018690526068808301869052835180840390910181526088830184528051908201207f19457468657265756d205369676e6564204d6573736167653a0a33320000000060a884015260c48084018290528451808503909101815260e4909301909352815191012060009061112b9089611a55565b6001600160a01b03811660009081526004602052604090205490915042116111585760019250505061116d565b6002546001600160a01b039081169116149150505b95945050505050565b6002546001600160a01b031690565b6001600160a01b031660009081526001602052604090205460ff1690565b6000546001600160a01b03163314611202576040805162461bcd60e51b815260206004820152601060248201527f53656e646572206e6f742061646d696e00000000000000000000000000000000604482015290519081900360640190fd5b600355565b6000546001600160a01b03163314611266576040805162461bcd60e51b815260206004820152600e60248201527f4e4f545f415554484f52495a4544000000000000000000000000000000000000604482015290519081900360640190fd5b600755565b7ff23a6e61000000000000000000000000000000000000000000000000000000009695505050505050565b60075490565b6001600160a01b03821660008181526001602090815260409182902080547fffffffffffffffffffffffffffffffffffffffffffffffffffffffffffffff001685151590811790915582519384529083015280517fb21eb88b4e33b3f1281830a7178d74d8aa73220416215726b68ae23d539515cb9281900390910190a15050565b6113456103e861133960075485611b2290919063ffffffff16565b9063ffffffff611b9816565b8114610b71576040805162461bcd60e51b815260206004820152600d60248201527f494e56414c49445f505249434500000000000000000000000000000000000000604482015290519081900360640190fd5b7f0000000000000000000000000000000000000000000000000000000000000000421061140c576040805162461bcd60e51b815260206004820152600c60248201527f53414c455f49535f4f5645520000000000000000000000000000000000000000604482015290519081900360640190fd5b6001600160a01b03891633148061143257503360009081526001602052604090205460ff165b611483576040805162461bcd60e51b815260206004820152600e60248201527f4e4f545f415554484f52495a4544000000000000000000000000000000000000604482015290519081900360640190fd5b6001600160a01b03881615806114aa5750886001600160a01b0316886001600160a01b0316145b6114fb576040805162461bcd60e51b815260206004820152600d60248201527f52455345525645445f4c414e4400000000000000000000000000000000000000604482015290519081900360640190fd5b600061150c888888888d8989611bfd565b90506115188282611ca2565b611569576040805162461bcd60e51b815260206004820152600c60248201527f494e56414c49445f4c414e440000000000000000000000000000000000000000604482015290519081900360640190fd5b50505050505050505050565b60006115818484611d6b565b6006549091506115c0908590839085906001600160a01b03167f0000000000000000000000000000000000000000000000000000000000000000611eb8565b50505050565b83600114806115fc57507f00000000000000000000000000000000000000000000000000000000000000006001600160a01b0316155b156116c357604080517f6e1e3bbf0000000000000000000000000000000000000000000000000000000081526001600160a01b03898116600483015260248201879052604482018990526064820188905260a06084830152600060a4830181905292517f000000000000000000000000000000000000000000000000000000000000000090911692636e1e3bbf9260e4808201939182900301818387803b1580156116a657600080fd5b505af11580156116ba573d6000803e3d6000fd5b50505050611827565b7f00000000000000000000000000000000000000000000000000000000000000006001600160a01b0316636e1e3bbf7f00000000000000000000000000000000000000000000000000000000000000008689898c60405160200180826001600160a01b03166001600160a01b031681526020019150506040516020818303038152906040526040518663ffffffff1660e01b815260040180866001600160a01b03166001600160a01b0316815260200185815260200184815260200183815260200180602001828103825283818151815260200191508051906020019080838360005b838110156117be5781810151838201526020016117a6565b50505050905090810190601f1680156117eb5780820380516001836020036101000a031916815260200191505b509650505050505050600060405180830381600087803b15801561180e57600080fd5b505af1158015611822573d6000803e3d6000fd5b505050505b60408051858152602081018590526001600160a01b03848116828401526060820184905291516101988802890192808b1692908c16917fe4dfa6ac11314892f3029b34a25b1a887da3b1cab2bbf8506d87128ba6e3ac029181900360800190a45050505050505050565b6060815167ffffffffffffffff811180156118ab57600080fd5b506040519080825280602002602001820160405280156118d5578160200160208202803683370190505b50905060005b82518110156119055760018282815181106118f257fe5b60209081029190910101526001016118db565b507f00000000000000000000000000000000000000000000000000000000000000006001600160a01b0316632eb2c2d6308585856040518563ffffffff1660e01b815260040180856001600160a01b03166001600160a01b03168152602001846001600160a01b03166001600160a01b03168152602001806020018060200180602001848103845286818151815260200191508051906020019060200280838360005b838110156119c05781810151838201526020016119a8565b50505050905001848103835285818151815260200191508051906020019060200280838360005b838110156119ff5781810151838201526020016119e7565b50505050905001848103825260008152602001602001975050505050505050600060405180830381600087803b158015611a3857600080fd5b505af1158015611a4c573d6000803e3d6000fd5b50505050505050565b60008151604114611a6557600080fd5b60208201516040830151606084015160001a601b811015611a8457601b015b8060ff16601b1480611a9957508060ff16601c145b611aa257600080fd5b6040805160008152602080820180845289905260ff8416828401526060820186905260808201859052915160019260a0808401939192601f1981019281900390910190855afa158015611af9573d6000803e3d6000fd5b5050604051601f1901519450506001600160a01b038416611b1957600080fd5b50505092915050565b600082611b3157506000611b92565b5081810281838281611b3f57fe5b0414611b92576040805162461bcd60e51b815260206004820152600860248201527f6f766572666c6f77000000000000000000000000000000000000000000000000604482015290519081900360640190fd5b92915050565b600081611bec576040805162461bcd60e51b815260206004820152600960248201527f64697662797a65726f0000000000000000000000000000000000000000000000604482015290519081900360640190fd5b818381611bf557fe5b049392505050565b60008787878787878760405160200180888152602001878152602001868152602001858152602001846001600160a01b03166001600160a01b031660601b8152601401838152602001828051906020019060200280838360005b83811015611c6f578181015183820152602001611c57565b50505050905001975050505050505050604051602081830303815290604052805190602001209050979650505050505050565b600081815b8451811015611d41576000858281518110611cbe57fe5b6020026020010151905080831015611d065782816040516020018083815260200182815260200192505050604051602081830303815290604052805190602001209250611d38565b808360405160200180838152602001828152602001925050506040516020818303038152906040528051906020012092505b50600101611ca7565b507f0000000000000000000000000000000000000000000000000000000000000000149392505050565b600080611d84606461133985600563ffffffff611b2216565b604080516323b872dd60e01b81526001600160a01b0387811660048301527f0000000000000000000000000000000000000000000000000000000000000000811660248301526044820184905291519293507f0000000000000000000000000000000000000000000000000000000000000000909116916323b872dd916064808201926020929091908290030181600087803b158015611e2357600080fd5b505af1158015611e37573d6000803e3d6000fd5b505050506040513d6020811015611e4d57600080fd5b5051611ea0576040805162461bcd60e51b815260206004820152601360248201527f4645455f5452414e534645525f4641494c454400000000000000000000000000604482015290519081900360640190fd5b611eb0838263ffffffff61213a16565b949350505050565b82518190859015612062576060600080600080611ed48a610a04565b9398509196509450925090506000611eef868686868661103a565b15611f7d57611f09611f018d84611b22565b612710611b98565b9050886001600160a01b0316846001600160a01b0316866001600160a01b03167fac7a699eb95c3c6d390ec4626de17ef9a67b35891efdb197beba7c7fdd45fac48f858760405180848152602001838152602001828152602001935050505060405180910390a4611f7a878261213a565b96505b801561205b57604080516323b872dd60e01b81526001600160a01b038f811660048301528781166024830152604482018490529151918a16916323b872dd916064808201926020929091908290030181600087803b158015611fde57600080fd5b505af1158015611ff2573d6000803e3d6000fd5b505050506040513d602081101561200857600080fd5b505161205b576040805162461bcd60e51b815260206004820152601960248201527f636f6d6d6973696f6e207472616e73666572206661696c656400000000000000604482015290519081900360640190fd5b5050505050505b604080516323b872dd60e01b81526001600160a01b0389811660048301528681166024830152604482018490529151918416916323b872dd916064808201926020929091908290030181600087803b1580156120bd57600080fd5b505af11580156120d1573d6000803e3d6000fd5b505050506040513d60208110156120e757600080fd5b5051611a4c576040805162461bcd60e51b815260206004820152601760248201527f7061796d656e74207472616e73666572206661696c6564000000000000000000604482015290519081900360640190fd5b600082821115612191576040805162461bcd60e51b815260206004820152600860248201527f756e6465666c6f77000000000000000000000000000000000000000000000000604482015290519081900360640190fd5b5090039056fe6f6e6c792061646d696e2063616e207365747570206d6574615472616e73616374696f6e50726f636573736f7273a26469706673582212200ff38c5741c66b2a22a9a9ee2abe0f55626323082b6b4443921fd3b25484584a64736f6c63430006050033",
  "devdoc": {
    "methods": {
      "buyLandWithSand(address,address,address,uint256,uint256,uint256,uint256,uint256,bytes32,uint256[],bytes32[],bytes)": {
        "params": {
          "buyer": "address that perform the payment",
          "priceInSand": "price in SAND to purchase that Land",
          "proof": "merkleProof for that particular Land",
          "reserved": "the reserved address (if any)",
          "size": "size of the pack of Land to purchase",
          "to": "address that will own the purchased Land",
          "x": "x coordinate of the Land",
          "y": "y coordinate of the Land"
        }
      },
      "changeAdmin(address)": {
        "details": "change the administrator to be `newAdmin`.",
        "params": {
          "newAdmin": "address of the new administrator."
        }
      },
      "getAdmin()": {
        "details": "gives the current administrator of this contract.",
        "returns": {
          "_0": "the current administrator of this contract."
        }
      },
      "getSigningWallet()": {
        "details": "signing wallet authorized for referral",
        "returns": {
          "_0": "the address of the signing wallet"
        }
      },
      "isMetaTransactionProcessor(address)": {
        "details": "check whether address `who` is given meta-transaction execution rights.",
        "params": {
          "who": "The address to query."
        },
        "returns": {
          "_0": "whether the address has meta-transaction execution rights."
        }
      },
      "isReferralValid(bytes,address,address,uint256,uint256)": {
        "params": {
          "commissionRate": "The commissionRate of the referral",
          "expiryTime": "The expiry time of the referral",
          "referee": "The address of the referee",
          "referrer": "The address of the referrer",
          "signature": "The signature to check (signed referral)"
        },
        "returns": {
          "_0": "True if the referral is valid"
        }
      },
      "setMetaTransactionProcessor(address,bool)": {
        "details": "Enable or disable the ability of `metaTransactionProcessor` to perform meta-tx (metaTransactionProcessor rights).",
        "params": {
          "enabled": "set whether the metaTransactionProcessor is enabled or disabled.",
          "metaTransactionProcessor": "address that will be given/removed metaTransactionProcessor rights."
        }
      },
      "setReceivingWallet(address)": {
        "params": {
          "newWallet": "address of the new receiving wallet"
        }
      },
      "updateMaxCommissionRate(uint256)": {
        "details": "Update the maximum commission rate",
        "params": {
          "newMaxCommissionRate": "The new maximum commission rate"
        }
      },
      "updateSigningWallet(address)": {
        "details": "Update the signing wallet",
        "params": {
          "newSigningWallet": "The new address of the signing wallet"
        }
      },
      "withdrawAssets(address,uint256[],uint256[])": {
        "params": {
          "assetIds": "the assetIds to be transferred",
          "to": "intended recipient of the asset tokens",
          "values": "the quantities of the assetIds to be transferred"
        }
      }
    },
    "title": "Estate Sale contract with referral"
  },
  "userdoc": {
    "methods": {
      "buyLandWithSand(address,address,address,uint256,uint256,uint256,uint256,uint256,bytes32,uint256[],bytes32[],bytes)": {
        "notice": "buy Land with SAND using the merkle proof associated with it"
      },
      "getExpiryTime()": {
        "notice": "Gets the expiry time for the current sale"
      },
      "getMaxCommisionRate()": {
        "notice": "the max commision rate"
      },
      "getMerkleRoot()": {
        "notice": "Gets the Merkle root associated with the current sale"
      },
      "isReferralValid(bytes,address,address,uint256,uint256)": {
        "notice": "Check if a referral is valid"
      },
      "setReceivingWallet(address)": {
        "notice": "set the wallet receiving the proceeds"
      },
      "withdrawAssets(address,uint256[],uint256[])": {
        "notice": "enable Admin to withdraw remaining assets from EstateSaleWithFee contract"
      }
    },
    "notice": "This contract manages the sale of our lands as Estates"
  },
  "storageLayout": {
    "storage": [
      {
        "astId": 13640,
        "contract": "src/solc_0.6/EstateSale/EstateSaleWithFee.sol:EstateSaleWithFee",
        "label": "_admin",
        "offset": 0,
        "slot": "0",
        "type": "t_address"
      },
      {
        "astId": 13702,
        "contract": "src/solc_0.6/EstateSale/EstateSaleWithFee.sol:EstateSaleWithFee",
        "label": "_metaTransactionContracts",
        "offset": 0,
        "slot": "1",
        "type": "t_mapping(t_address,t_bool)"
      },
      {
        "astId": 11818,
        "contract": "src/solc_0.6/EstateSale/EstateSaleWithFee.sol:EstateSaleWithFee",
        "label": "_signingWallet",
        "offset": 0,
        "slot": "2",
        "type": "t_address"
      },
      {
        "astId": 11820,
        "contract": "src/solc_0.6/EstateSale/EstateSaleWithFee.sol:EstateSaleWithFee",
        "label": "_maxCommissionRate",
        "offset": 0,
        "slot": "3",
        "type": "t_uint256"
      },
      {
        "astId": 11824,
        "contract": "src/solc_0.6/EstateSale/EstateSaleWithFee.sol:EstateSaleWithFee",
        "label": "_previousSigningWallets",
        "offset": 0,
        "slot": "4",
        "type": "t_mapping(t_address,t_uint256)"
      },
      {
        "astId": 11833,
        "contract": "src/solc_0.6/EstateSale/EstateSaleWithFee.sol:EstateSaleWithFee",
        "label": "_previousSigningDelay",
        "offset": 0,
        "slot": "5",
        "type": "t_uint256"
      },
      {
        "astId": 8205,
        "contract": "src/solc_0.6/EstateSale/EstateSaleWithFee.sol:EstateSaleWithFee",
        "label": "_wallet",
        "offset": 0,
        "slot": "6",
        "type": "t_address_payable"
      },
      {
        "astId": 8215,
        "contract": "src/solc_0.6/EstateSale/EstateSaleWithFee.sol:EstateSaleWithFee",
        "label": "_multiplier",
        "offset": 0,
        "slot": "7",
        "type": "t_uint256"
      }
    ],
    "types": {
      "t_address": {
        "encoding": "inplace",
        "label": "address",
        "numberOfBytes": "20"
      },
      "t_address_payable": {
        "encoding": "inplace",
        "label": "address payable",
        "numberOfBytes": "20"
      },
      "t_bool": {
        "encoding": "inplace",
        "label": "bool",
        "numberOfBytes": "1"
      },
      "t_mapping(t_address,t_bool)": {
        "encoding": "mapping",
        "key": "t_address",
        "label": "mapping(address => bool)",
        "numberOfBytes": "32",
        "value": "t_bool"
      },
      "t_mapping(t_address,t_uint256)": {
        "encoding": "mapping",
        "key": "t_address",
        "label": "mapping(address => uint256)",
        "numberOfBytes": "32",
        "value": "t_uint256"
      },
      "t_uint256": {
        "encoding": "inplace",
        "label": "uint256",
        "numberOfBytes": "32"
      }
    }
  }
}