{
  "address": "0x80bC578aC3d5611A3cD63b078E6d1FECa2EE6164",
  "abi": [
    {
      "inputs": [
        {
          "internalType": "address",
          "name": "landAddress",
          "type": "address"
        },
        {
          "internalType": "address",
          "name": "sandContractAddress",
          "type": "address"
        },
        {
          "internalType": "address",
          "name": "initialMetaTx",
          "type": "address"
        },
        {
          "internalType": "address",
          "name": "admin",
          "type": "address"
        },
        {
          "internalType": "address payable",
          "name": "initialWalletAddress",
          "type": "address"
        },
        {
          "internalType": "bytes32",
          "name": "merkleRoot",
          "type": "bytes32"
        },
        {
          "internalType": "uint256",
          "name": "expiryTime",
          "type": "uint256"
        },
        {
          "internalType": "address",
          "name": "initialSigningWallet",
          "type": "address"
        },
        {
          "internalType": "uint256",
          "name": "initialMaxCommissionRate",
          "type": "uint256"
        },
        {
          "internalType": "address",
          "name": "estate",
          "type": "address"
        },
        {
          "internalType": "address",
          "name": "asset",
          "type": "address"
        },
        {
          "internalType": "address",
          "name": "feeDistributor",
          "type": "address"
        }
      ],
      "stateMutability": "nonpayable",
      "type": "constructor"
    },
    {
      "anonymous": false,
      "inputs": [
        {
          "indexed": false,
          "internalType": "address",
          "name": "oldAdmin",
          "type": "address"
        },
        {
          "indexed": false,
          "internalType": "address",
          "name": "newAdmin",
          "type": "address"
        }
      ],
      "name": "AdminChanged",
      "type": "event"
    },
    {
      "anonymous": false,
      "inputs": [
        {
          "indexed": true,
          "internalType": "address",
          "name": "buyer",
          "type": "address"
        },
        {
          "indexed": true,
          "internalType": "address",
          "name": "to",
          "type": "address"
        },
        {
          "indexed": true,
          "internalType": "uint256",
          "name": "topCornerId",
          "type": "uint256"
        },
        {
          "indexed": false,
          "internalType": "uint256",
          "name": "size",
          "type": "uint256"
        },
        {
          "indexed": false,
          "internalType": "uint256",
          "name": "price",
          "type": "uint256"
        },
        {
          "indexed": false,
          "internalType": "address",
          "name": "token",
          "type": "address"
        },
        {
          "indexed": false,
          "internalType": "uint256",
          "name": "amountPaid",
          "type": "uint256"
        }
      ],
      "name": "LandQuadPurchased",
      "type": "event"
    },
    {
      "anonymous": false,
      "inputs": [
        {
          "indexed": false,
          "internalType": "address",
          "name": "metaTransactionProcessor",
          "type": "address"
        },
        {
          "indexed": false,
          "internalType": "bool",
          "name": "enabled",
          "type": "bool"
        }
      ],
      "name": "MetaTransactionProcessor",
      "type": "event"
    },
    {
      "anonymous": false,
      "inputs": [
        {
          "indexed": true,
          "internalType": "address",
          "name": "referrer",
          "type": "address"
        },
        {
          "indexed": true,
          "internalType": "address",
          "name": "referee",
          "type": "address"
        },
        {
          "indexed": true,
          "internalType": "address",
          "name": "token",
          "type": "address"
        },
        {
          "indexed": false,
          "internalType": "uint256",
          "name": "amount",
          "type": "uint256"
        },
        {
          "indexed": false,
          "internalType": "uint256",
          "name": "commission",
          "type": "uint256"
        },
        {
          "indexed": false,
          "internalType": "uint256",
          "name": "commissionRate",
          "type": "uint256"
        }
      ],
      "name": "ReferralUsed",
      "type": "event"
    },
    {
      "inputs": [
        {
          "internalType": "address",
          "name": "buyer",
          "type": "address"
        },
        {
          "internalType": "address",
          "name": "to",
          "type": "address"
        },
        {
          "internalType": "address",
          "name": "reserved",
          "type": "address"
        },
        {
          "internalType": "uint256",
          "name": "x",
          "type": "uint256"
        },
        {
          "internalType": "uint256",
          "name": "y",
          "type": "uint256"
        },
        {
          "internalType": "uint256",
          "name": "size",
          "type": "uint256"
        },
        {
          "internalType": "uint256",
          "name": "priceInSand",
          "type": "uint256"
        },
        {
          "internalType": "uint256",
          "name": "adjustedPriceInSand",
          "type": "uint256"
        },
        {
          "internalType": "bytes32",
          "name": "salt",
          "type": "bytes32"
        },
        {
          "internalType": "uint256[]",
          "name": "assetIds",
          "type": "uint256[]"
        },
        {
          "internalType": "bytes32[]",
          "name": "proof",
          "type": "bytes32[]"
        },
        {
          "internalType": "bytes",
          "name": "referral",
          "type": "bytes"
        }
      ],
      "name": "buyLandWithSand",
      "outputs": [],
      "stateMutability": "nonpayable",
      "type": "function"
    },
    {
      "inputs": [
        {
          "internalType": "address",
          "name": "newAdmin",
          "type": "address"
        }
      ],
      "name": "changeAdmin",
      "outputs": [],
      "stateMutability": "nonpayable",
      "type": "function"
    },
    {
      "inputs": [
        {
          "internalType": "bytes",
          "name": "referral",
          "type": "bytes"
        }
      ],
      "name": "decodeReferral",
      "outputs": [
        {
          "internalType": "bytes",
          "name": "",
          "type": "bytes"
        },
        {
          "internalType": "address",
          "name": "",
          "type": "address"
        },
        {
          "internalType": "address",
          "name": "",
          "type": "address"
        },
        {
          "internalType": "uint256",
          "name": "",
          "type": "uint256"
        },
        {
          "internalType": "uint256",
          "name": "",
          "type": "uint256"
        }
      ],
      "stateMutability": "pure",
      "type": "function"
    },
    {
      "inputs": [],
      "name": "getAdmin",
      "outputs": [
        {
          "internalType": "address",
          "name": "",
          "type": "address"
        }
      ],
      "stateMutability": "view",
      "type": "function"
    },
    {
      "inputs": [],
      "name": "getExpiryTime",
      "outputs": [
        {
          "internalType": "uint256",
          "name": "",
          "type": "uint256"
        }
      ],
      "stateMutability": "view",
      "type": "function"
    },
    {
      "inputs": [],
      "name": "getMaxCommisionRate",
      "outputs": [
        {
          "internalType": "uint256",
          "name": "",
          "type": "uint256"
        }
      ],
      "stateMutability": "view",
      "type": "function"
    },
    {
      "inputs": [],
      "name": "getMerkleRoot",
      "outputs": [
        {
          "internalType": "bytes32",
          "name": "",
          "type": "bytes32"
        }
      ],
      "stateMutability": "view",
      "type": "function"
    },
    {
      "inputs": [],
      "name": "getSandMultiplier",
      "outputs": [
        {
          "internalType": "uint256",
          "name": "",
          "type": "uint256"
        }
      ],
      "stateMutability": "view",
      "type": "function"
    },
    {
      "inputs": [],
      "name": "getSigningWallet",
      "outputs": [
        {
          "internalType": "address",
          "name": "",
          "type": "address"
        }
      ],
      "stateMutability": "view",
      "type": "function"
    },
    {
      "inputs": [
        {
          "internalType": "address",
          "name": "who",
          "type": "address"
        }
      ],
      "name": "isMetaTransactionProcessor",
      "outputs": [
        {
          "internalType": "bool",
          "name": "",
          "type": "bool"
        }
      ],
      "stateMutability": "view",
      "type": "function"
    },
    {
      "inputs": [
        {
          "internalType": "bytes",
          "name": "signature",
          "type": "bytes"
        },
        {
          "internalType": "address",
          "name": "referrer",
          "type": "address"
        },
        {
          "internalType": "address",
          "name": "referee",
          "type": "address"
        },
        {
          "internalType": "uint256",
          "name": "expiryTime",
          "type": "uint256"
        },
        {
          "internalType": "uint256",
          "name": "commissionRate",
          "type": "uint256"
        }
      ],
      "name": "isReferralValid",
      "outputs": [
        {
          "internalType": "bool",
          "name": "",
          "type": "bool"
        }
      ],
      "stateMutability": "view",
      "type": "function"
    },
    {
      "inputs": [
        {
          "internalType": "address",
          "name": "",
          "type": "address"
        },
        {
          "internalType": "address",
          "name": "",
          "type": "address"
        },
        {
          "internalType": "uint256[]",
          "name": "",
          "type": "uint256[]"
        },
        {
          "internalType": "uint256[]",
          "name": "",
          "type": "uint256[]"
        },
        {
          "internalType": "bytes",
          "name": "",
          "type": "bytes"
        }
      ],
      "name": "onERC1155BatchReceived",
      "outputs": [
        {
          "internalType": "bytes4",
          "name": "",
          "type": "bytes4"
        }
      ],
      "stateMutability": "pure",
      "type": "function"
    },
    {
      "inputs": [
        {
          "internalType": "address",
          "name": "",
          "type": "address"
        },
        {
          "internalType": "address",
          "name": "",
          "type": "address"
        },
        {
          "internalType": "uint256",
          "name": "",
          "type": "uint256"
        },
        {
          "internalType": "uint256",
          "name": "",
          "type": "uint256"
        },
        {
          "internalType": "bytes",
          "name": "",
          "type": "bytes"
        }
      ],
      "name": "onERC1155Received",
      "outputs": [
        {
          "internalType": "bytes4",
          "name": "",
          "type": "bytes4"
        }
      ],
      "stateMutability": "pure",
      "type": "function"
    },
    {
      "inputs": [
        {
          "internalType": "uint256",
          "name": "newMultiplier",
          "type": "uint256"
        }
      ],
      "name": "rebalanceSand",
      "outputs": [],
      "stateMutability": "nonpayable",
      "type": "function"
    },
    {
      "inputs": [
        {
          "internalType": "address",
          "name": "metaTransactionProcessor",
          "type": "address"
        },
        {
          "internalType": "bool",
          "name": "enabled",
          "type": "bool"
        }
      ],
      "name": "setMetaTransactionProcessor",
      "outputs": [],
      "stateMutability": "nonpayable",
      "type": "function"
    },
    {
      "inputs": [
        {
          "internalType": "address payable",
          "name": "newWallet",
          "type": "address"
        }
      ],
      "name": "setReceivingWallet",
      "outputs": [],
      "stateMutability": "nonpayable",
      "type": "function"
    },
    {
      "inputs": [
        {
          "internalType": "uint256",
          "name": "newMaxCommissionRate",
          "type": "uint256"
        }
      ],
      "name": "updateMaxCommissionRate",
      "outputs": [],
      "stateMutability": "nonpayable",
      "type": "function"
    },
    {
      "inputs": [
        {
          "internalType": "address",
          "name": "newSigningWallet",
          "type": "address"
        }
      ],
      "name": "updateSigningWallet",
      "outputs": [],
      "stateMutability": "nonpayable",
      "type": "function"
    },
    {
      "inputs": [
        {
          "internalType": "address",
          "name": "to",
          "type": "address"
        },
        {
          "internalType": "uint256[]",
          "name": "assetIds",
          "type": "uint256[]"
        },
        {
          "internalType": "uint256[]",
          "name": "values",
          "type": "uint256[]"
        }
      ],
      "name": "withdrawAssets",
      "outputs": [],
      "stateMutability": "nonpayable",
      "type": "function"
    }
  ],
  "transactionHash": "0xc39435f06dab06bccea2b52f989d4436fa1b0006f71cfabb28345f532ddcad15",
  "args": [
    "0x50f5474724e0Ee42D9a4e711ccFB275809Fd6d4a",
    "0x3845badAde8e6dFF049820680d1F14bD3903a5d0",
    "0x3845badAde8e6dFF049820680d1F14bD3903a5d0",
    "0xEAA0993E1d21c2103e4f172a20D29371FbAF6D06",
    "0x4489590a116618B506F0EfE885432F6A8ED998E9",
    "0xeed9fe83a3ce1e3ad33543aad26a29dfa0ef4834eabee940b9f94b781ae944b5",
    1625144400,
    "0x3044719d139F866a44c988823513eCB93060bF1b",
    2000,
    "0x0000000000000000000000000000000000000000",
    "0xa342f5D851E866E18ff98F351f2c6637f4478dB5",
    "0x0EB04462D69B1D267d269377E34f60b9De1c8510"
  ],
  "linkedData": [
    {
      "x": 126,
      "y": 330,
      "size": 1,
      "price": "1011000000000000000000",
      "reserved": "",
      "salt": "0x21c24b2fdd0c4ea0676345f0b950e35fd86cec3411ff96bbc3dbf17219122a35",
      "assetIds": []
    },
    {
      "x": 126,
      "y": 331,
      "size": 1,
      "price": "1011000000000000000000",
      "reserved": "0x7a9fe22691c811ea339d9b73150e6911a5343dca",
      "salt": "0xd3c84184abdc04c0c3d65f2c4a042c9f2d7b669b7ca49d6fb7aa153bc4ad2bf2",
      "assetIds": []
    },
    {
      "x": 126,
      "y": 332,
      "size": 1,
      "price": "1011000000000000000000",
      "reserved": "",
      "salt": "0xe0a67d9eee3b2b4f8621cb18cecea68f6c981fc463e6accc02c0660b3889a60d",
      "assetIds": []
    },
    {
      "x": 126,
      "y": 333,
      "size": 1,
      "price": "1011000000000000000000",
      "reserved": "",
      "salt": "0x4280e2232272b7dd410d88f21777d14cfb6cd572aaea047520bb3c3c61021cca",
      "assetIds": []
    },
    {
      "x": 126,
      "y": 334,
      "size": 1,
      "price": "1011000000000000000000",
      "reserved": "",
      "salt": "0x9df6825520e215b5e1a845ef52e073483e49d9b7a31c2561c4fea4a7397a2584",
      "assetIds": []
    },
    {
      "x": 126,
      "y": 335,
      "size": 1,
      "price": "1011000000000000000000",
      "reserved": "",
      "salt": "0xe8d04f23b238594ebbbb6d08c52af5af268c71e0c6b8153025a2faae36747260",
      "assetIds": []
    },
    {
      "x": 127,
      "y": 330,
      "size": 1,
      "price": "1011000000000000000000",
      "reserved": "",
      "salt": "0x816f95f1bfe2bfef107bfe2936e651bc977cec76654906c67ac0c64dedd29c4f",
      "assetIds": []
    },
    {
      "x": 127,
      "y": 331,
      "size": 1,
      "price": "1011000000000000000000",
      "reserved": "",
      "salt": "0x7257191cac9896e216a473c800667cdf5cbf67010f8dc32dd58086b4e6a98870",
      "assetIds": []
    },
    {
      "x": 127,
      "y": 332,
      "size": 1,
      "price": "1011000000000000000000",
      "reserved": "",
      "salt": "0x973b45879c1d201de620abfb9848fd86ffb84b98a54ab37de2310e14956f2a27",
      "assetIds": []
    },
    {
      "x": 127,
      "y": 333,
      "size": 1,
      "price": "1011000000000000000000",
      "reserved": "",
      "salt": "0xed89180138014cc4bcf8ea602c55bcd4f64859b74f9c7eae148915d4f3fc97e5",
      "assetIds": []
    },
    {
      "x": 127,
      "y": 334,
      "size": 1,
      "price": "1011000000000000000000",
      "reserved": "0x7a9fe22691c811ea339d9b73150e6911a5343dca",
      "salt": "0x682da456cc2a19dfb5bae811b2477ea5f6e583b37f64b02646110d2116240596",
      "assetIds": []
    },
    {
      "x": 127,
      "y": 335,
      "size": 1,
      "price": "1011000000000000000000",
      "reserved": "",
      "salt": "0x2644a3e650d45459f39f86c086f6c39f88ab3c42cc2d6556cb6849ab269b431a",
      "assetIds": []
    },
    {
      "x": 128,
      "y": 330,
      "size": 1,
      "price": "1011000000000000000000",
      "reserved": "",
      "salt": "0xc041536068c7a47443902c9393537dd0957011247dc152c47375db3b5a78f263",
      "assetIds": []
    },
    {
      "x": 128,
      "y": 331,
      "size": 1,
      "price": "1011000000000000000000",
      "reserved": "",
      "salt": "0x13b6eb4b3903ff0568ad799b0522905ccc236411f4f1c9bca3b23decdd3187b0",
      "assetIds": []
    },
    {
      "x": 128,
      "y": 332,
      "size": 1,
      "price": "1011000000000000000000",
      "reserved": "0x7a9fe22691c811ea339d9b73150e6911a5343dca",
      "salt": "0x13f33000b1a9ff3652615a437cac39fb25ed783eb9607c89c96bedd70463aea4",
      "assetIds": []
    },
    {
      "x": 128,
      "y": 333,
      "size": 1,
      "price": "1011000000000000000000",
      "reserved": "",
      "salt": "0x49543a3963ac4876c21a7b74a4a7bc0eb14968b39809abcec5c7634c9cd5955e",
      "assetIds": []
    },
    {
      "x": 128,
      "y": 334,
      "size": 1,
      "price": "1011000000000000000000",
      "reserved": "",
      "salt": "0x055789c0e9d348d7b5b8def42ada8a867817b2400b3b05edb8064a7b4350fe36",
      "assetIds": []
    },
    {
      "x": 128,
      "y": 335,
      "size": 1,
      "price": "1011000000000000000000",
      "reserved": "",
      "salt": "0xc3a63fb96725501178eb4e04dac07d5c371fc243b2a3dcf36a2b21008baf5a4c",
      "assetIds": []
    },
    {
      "x": 129,
      "y": 330,
      "size": 1,
      "price": "1011000000000000000000",
      "reserved": "",
      "salt": "0x261e86915c3e2d497b11363587c1032d7a4518a344616e8b765be5565990122e",
      "assetIds": []
    },
    {
      "x": 129,
      "y": 331,
      "size": 1,
      "price": "1011000000000000000000",
      "reserved": "",
      "salt": "0x933d131fe98c9d320be54fe8046c50ceabc11b42ea3d1d6eb93a561292b9dd12",
      "assetIds": []
    },
    {
      "x": 129,
      "y": 332,
      "size": 1,
      "price": "1011000000000000000000",
      "reserved": "",
      "salt": "0x383ff8d151280e2e43a5a6d7b26c139e76051c0f8f5b08d8196197b2ec333871",
      "assetIds": []
    },
    {
      "x": 129,
      "y": 333,
      "size": 1,
      "price": "1011000000000000000000",
      "reserved": "",
      "salt": "0x434b8ebdae426fc36f0746a31ae0aee0cc8b88c24e12d9a5a3ed5f5381f36a4b",
      "assetIds": []
    },
    {
      "x": 129,
      "y": 334,
      "size": 1,
      "price": "1011000000000000000000",
      "reserved": "",
      "salt": "0x9d23e0fa2fbf46a5c0c29e6aeeba124674425f6dc7ce9d0c8db651d6c4087b7b",
      "assetIds": []
    },
    {
      "x": 129,
      "y": 335,
      "size": 1,
      "price": "1011000000000000000000",
      "reserved": "",
      "salt": "0x16bd8bdcaeaeacab3b9e520e2143aebd9ab6d09dd60605cb16ace08f095487a6",
      "assetIds": []
    },
    {
      "x": 130,
      "y": 330,
      "size": 1,
      "price": "1011000000000000000000",
      "reserved": "",
      "salt": "0x0b5a0d8a04ed75f3b15aaffd85f426bb004530ba399835576fd96c565b38f089",
      "assetIds": []
    },
    {
      "x": 130,
      "y": 331,
      "size": 1,
      "price": "1011000000000000000000",
      "reserved": "0x7a9fe22691c811ea339d9b73150e6911a5343dca",
      "salt": "0x4f8f034d6998d4e1f2aaed51086deb3728ecd19a526128f9d678d2ce61b7f860",
      "assetIds": []
    },
    {
      "x": 130,
      "y": 332,
      "size": 1,
      "price": "1011000000000000000000",
      "reserved": "",
      "salt": "0x957d5a2c2a5ee75b12a10b0cf0890d18f610a764e288853d1ad47af091a30a36",
      "assetIds": []
    },
    {
      "x": 130,
      "y": 333,
      "size": 1,
      "price": "1011000000000000000000",
      "reserved": "",
      "salt": "0x054abf9a3d874d4b95b47842f3151e83ca7f438d523e1880b15fc1f3fda9a0f2",
      "assetIds": []
    },
    {
      "x": 130,
      "y": 334,
      "size": 1,
      "price": "1011000000000000000000",
      "reserved": "",
      "salt": "0xde0544b09f80146edfe4579b4ce2b9b5179ca2f7332ab1c7524761c7a042ad35",
      "assetIds": []
    },
    {
      "x": 130,
      "y": 335,
      "size": 1,
      "price": "1011000000000000000000",
      "reserved": "0x7a9fe22691c811ea339d9b73150e6911a5343dca",
      "salt": "0x763bb58a90a339292c9a37c52ce7eae59950a583a53f9d42431fd50d73b34560",
      "assetIds": []
    },
    {
      "x": 131,
      "y": 330,
      "size": 1,
      "price": "1011000000000000000000",
      "reserved": "",
      "salt": "0xc0fe291bb9e65285feed0264f4a28e9203e43188324399428ceb0ef5de21705a",
      "assetIds": []
    },
    {
      "x": 131,
      "y": 331,
      "size": 1,
      "price": "1011000000000000000000",
      "reserved": "",
      "salt": "0x2c1d56416303ddc242d8649d1b2f121e4c62f85c11543a1aec117741ea966503",
      "assetIds": []
    },
    {
      "x": 131,
      "y": 332,
      "size": 1,
      "price": "1011000000000000000000",
      "reserved": "",
      "salt": "0x2d684c1a37775d89f3693d645b599bbd3103b9864388525e6f2856b0a8ec6a30",
      "assetIds": []
    },
    {
      "x": 131,
      "y": 333,
      "size": 1,
      "price": "1011000000000000000000",
      "reserved": "0x7a9fe22691c811ea339d9b73150e6911a5343dca",
      "salt": "0x6866921f41bef0ac20898d6d08b09d7bd417a5d20cf2ab1cacdc28d49e2fd160",
      "assetIds": []
    },
    {
      "x": 131,
      "y": 334,
      "size": 1,
      "price": "1011000000000000000000",
      "reserved": "",
      "salt": "0x95e41bccdb6c8654431a300198c2c9bddb5f02258150a6c59a87c7d20f8dd5c0",
      "assetIds": []
    },
    {
      "x": 131,
      "y": 335,
      "size": 1,
      "price": "1011000000000000000000",
      "reserved": "",
      "salt": "0x779a379464bd5433032b7b9d795fd2d838aaeec23e21c8f9696f61395ea73e04",
      "assetIds": []
    },
    {
      "x": 132,
      "y": 321,
      "size": 1,
      "price": "1011000000000000000000",
      "reserved": "",
      "salt": "0xfc126aba377c699ae75f19b3f3f5dcfcea40f6d9b6ee70bef38fc237b3c89d07",
      "assetIds": []
    },
    {
      "x": 132,
      "y": 322,
      "size": 1,
      "price": "1011000000000000000000",
      "reserved": "",
      "salt": "0x2dbbc115575dfc37c0de472bcd460f1751ef20b2dae39bb401b2b94a28727116",
      "assetIds": []
    },
    {
      "x": 132,
      "y": 323,
      "size": 1,
      "price": "1011000000000000000000",
      "reserved": "",
      "salt": "0xf70436a01c455dc216c79afeb6489902c0c57c83646e5bf5a5418abc0437ed58",
      "assetIds": []
    },
    {
      "x": 132,
      "y": 336,
      "size": 1,
      "price": "4683000000000000000000",
      "reserved": "",
      "salt": "0x5fa4427ba4dc2303caca050b297d8502b074671e6338bc73086927b3a2ab7330",
      "assetIds": [
        "55464657044963196816950587289035428064568320970692304673817341489687790884865",
        "55464657044963196816950587289035428064568320970692304673817341489687782494208",
        "55464657044963196816950587289035428064568320970692304673817341489687790884866",
        "55464657044963196816950587289035428064568320970692304673817341489687782494209",
        "55464657044963196816950587289035428064568320970692304673817341489687790884864"
      ]
    },
    {
      "x": 132,
      "y": 337,
      "size": 1,
      "price": "1011000000000000000000",
      "reserved": "",
      "salt": "0x523930fdec2b9989a2fc2a99caf6801377f4ed212c6bdd94e17625e51c30db02",
      "assetIds": []
    },
    {
      "x": 132,
      "y": 338,
      "size": 1,
      "price": "1011000000000000000000",
      "reserved": "0x7a9fe22691c811ea339d9b73150e6911a5343dca",
      "salt": "0x2600b11249b6d7efd2be8af7705f57597c6c321b079ce834f3b71a716678c184",
      "assetIds": []
    },
    {
      "x": 132,
      "y": 339,
      "size": 1,
      "price": "1011000000000000000000",
      "reserved": "",
      "salt": "0x630cc9fc9aab124334e83c1e310c76207188ab5f30334d47815e1170d429dd25",
      "assetIds": []
    },
    {
      "x": 132,
      "y": 340,
      "size": 1,
      "price": "1011000000000000000000",
      "reserved": "",
      "salt": "0x45bbe3da17a0dcf70739f3e168e98617b2cd5d4b324620c58c35214d2e6430e0",
      "assetIds": []
    },
    {
      "x": 132,
      "y": 341,
      "size": 1,
      "price": "1011000000000000000000",
      "reserved": "",
      "salt": "0xb92f072d0bb5068cf9a92c5d45a0be8962b400a02ff92ed474e99141901d0ed5",
      "assetIds": []
    },
    {
      "x": 132,
      "y": 342,
      "size": 1,
      "price": "1011000000000000000000",
      "reserved": "0x7a9fe22691c811ea339d9b73150e6911a5343dca",
      "salt": "0x0ea5a8ef2e1396466397872f7f58ea5e5fbf37822963755a2945392c4f4b72f4",
      "assetIds": []
    },
    {
      "x": 132,
      "y": 343,
      "size": 1,
      "price": "1011000000000000000000",
      "reserved": "",
      "salt": "0x99b1072c97c0a8b564ac995a1382d61abf99378736c302a66187486bfad48df2",
      "assetIds": []
    },
    {
      "x": 132,
      "y": 344,
      "size": 1,
      "price": "1011000000000000000000",
      "reserved": "",
      "salt": "0x104c88166c6abe311dfb25c13b5a529181f2a7c8e5130cf309335e0466c03eda",
      "assetIds": []
    },
    {
      "x": 132,
      "y": 345,
      "size": 1,
      "price": "1011000000000000000000",
      "reserved": "",
      "salt": "0x5d00cbdac54b792e070df0b32593c3b8573b552fcaf052f6549ce2b376e949ba",
      "assetIds": []
    },
    {
      "x": 133,
      "y": 321,
      "size": 1,
      "price": "1011000000000000000000",
      "reserved": "",
      "salt": "0xd063107f375b50d07a513c544657454af1323bbcde84f0f14f6befbd804a74f3",
      "assetIds": []
    },
    {
      "x": 133,
      "y": 322,
      "size": 1,
      "price": "1011000000000000000000",
      "reserved": "0x7a9fe22691c811ea339d9b73150e6911a5343dca",
      "salt": "0x46edb2af3ebc8b2585b27965ff57b258d15bb9c252548f41ba9b1cb6a75a4182",
      "assetIds": []
    },
    {
      "x": 133,
      "y": 323,
      "size": 1,
      "price": "1011000000000000000000",
      "reserved": "",
      "salt": "0xc4d8315d0db28988cf89433f5c90da8493e42806840222fcaa67072c47ccc072",
      "assetIds": []
    },
    {
      "x": 133,
      "y": 336,
      "size": 1,
      "price": "4683000000000000000000",
      "reserved": "",
      "salt": "0x04bbb5547e3fa2312a14f5518d1fd5914a0b5eff98884c6b97bc08bc9d35fdf3",
      "assetIds": [
        "55464657044963196816950587289035428064568320970692304673817341489687790884865",
        "55464657044963196816950587289035428064568320970692304673817341489687782494208",
        "55464657044963196816950587289035428064568320970692304673817341489687790884866",
        "55464657044963196816950587289035428064568320970692304673817341489687782494209",
        "55464657044963196816950587289035428064568320970692304673817341489687790884864"
      ]
    },
    {
      "x": 133,
      "y": 337,
      "size": 1,
      "price": "1011000000000000000000",
      "reserved": "0x7a9fe22691c811ea339d9b73150e6911a5343dca",
      "salt": "0x28cad2bf2aa6747ac3888977c38a3a011f994236563f47f7ad4fcf33980b5225",
      "assetIds": []
    },
    {
      "x": 133,
      "y": 338,
      "size": 1,
      "price": "1011000000000000000000",
      "reserved": "",
      "salt": "0x19ba3941e13b40903a6ab7748c78e5d717f909a0c1991390cf8b1c983aaeb83d",
      "assetIds": []
    },
    {
      "x": 133,
      "y": 339,
      "size": 1,
      "price": "1011000000000000000000",
      "reserved": "",
      "salt": "0xe8b322325229c8affe1e2de3373f4b8aa0282caec99e8aa9f80cbb1de2ee7c38",
      "assetIds": []
    },
    {
      "x": 133,
      "y": 340,
      "size": 1,
      "price": "1011000000000000000000",
      "reserved": "",
      "salt": "0x6708c894f6df4fe7356cb073cfdbdd7a30f6f60003df306ccba68c058febc8c0",
      "assetIds": []
    },
    {
      "x": 133,
      "y": 341,
      "size": 1,
      "price": "1011000000000000000000",
      "reserved": "",
      "salt": "0xffe8483a91a88be94675bd1092d89a2f64f2f1b2ba296cd6ae43ea23bf8a29ae",
      "assetIds": []
    },
    {
      "x": 133,
      "y": 342,
      "size": 1,
      "price": "1011000000000000000000",
      "reserved": "",
      "salt": "0x2681aa860f732bec17cb3198cb586ec01bbbc4cffa67f94aae7a92f033bed10e",
      "assetIds": []
    },
    {
      "x": 133,
      "y": 343,
      "size": 1,
      "price": "1011000000000000000000",
      "reserved": "",
      "salt": "0xbebd285409d3b7320c54f7464c7f353296738e134781caf1c6352ba6d599bfab",
      "assetIds": []
    },
    {
      "x": 133,
      "y": 344,
      "size": 1,
      "price": "1011000000000000000000",
      "reserved": "",
      "salt": "0x542eac764d821efd2f5fd68591a8477e793a08f26721afdb8614d6c8940e81ca",
      "assetIds": []
    },
    {
      "x": 133,
      "y": 345,
      "size": 1,
      "price": "1011000000000000000000",
      "reserved": "0x7a9fe22691c811ea339d9b73150e6911a5343dca",
      "salt": "0xf2c7c2416393cad88c0e655aba0cd49118ccee582c467dfb19380d783733dc15",
      "assetIds": []
    },
    {
      "x": 134,
      "y": 321,
      "size": 1,
      "price": "1011000000000000000000",
      "reserved": "",
      "salt": "0x16bd527a2080ff77c02ba120d17d6ee4beeb9d5ab02ad3414ef31bf4b07f0637",
      "assetIds": []
    },
    {
      "x": 134,
      "y": 322,
      "size": 1,
      "price": "1011000000000000000000",
      "reserved": "",
      "salt": "0x52f37ca210ba52d7c0f82859538acd38db200df4cbcf8f1a889c9d09125a2318",
      "assetIds": []
    },
    {
      "x": 134,
      "y": 323,
      "size": 1,
      "price": "1011000000000000000000",
      "reserved": "",
      "salt": "0xd57b89c3e3f38b54e4578519ef8348e444b9af603dab4c5924ce7c38bca2f826",
      "assetIds": []
    },
    {
      "x": 134,
      "y": 336,
      "size": 1,
      "price": "4683000000000000000000",
      "reserved": "",
      "salt": "0x45a8e54f1e1b3fee82deecf72ece5b6cc550d31943936a671ddd23770a822d48",
      "assetIds": [
        "55464657044963196816950587289035428064568320970692304673817341489687790884865",
        "55464657044963196816950587289035428064568320970692304673817341489687782494208",
        "55464657044963196816950587289035428064568320970692304673817341489687790884866",
        "55464657044963196816950587289035428064568320970692304673817341489687782494209",
        "55464657044963196816950587289035428064568320970692304673817341489687790884864"
      ]
    },
    {
      "x": 134,
      "y": 337,
      "size": 1,
      "price": "1011000000000000000000",
      "reserved": "",
      "salt": "0xa0bf733a65a20415141bfc9cae7bc90b399c3adbd6f324894d3411a8e3a186e1",
      "assetIds": []
    },
    {
      "x": 134,
      "y": 338,
      "size": 1,
      "price": "1011000000000000000000",
      "reserved": "",
      "salt": "0x3fab7588f129d5aceefde515476195aa280beec52381db1409f64276d6e4aed2",
      "assetIds": []
    },
    {
      "x": 134,
      "y": 339,
      "size": 1,
      "price": "1011000000000000000000",
      "reserved": "",
      "salt": "0x730780fcafacf92a4e39f720ed047be45bbc113e6b76d9c6998e98a3bc701e10",
      "assetIds": []
    },
    {
      "x": 134,
      "y": 340,
      "size": 1,
      "price": "1011000000000000000000",
      "reserved": "0x7a9fe22691c811ea339d9b73150e6911a5343dca",
      "salt": "0x1a0d7e5317cfacee24464afd87f0ecc484837b8bafaa74b4641318b339c881cd",
      "assetIds": []
    },
    {
      "x": 134,
      "y": 341,
      "size": 1,
      "price": "1011000000000000000000",
      "reserved": "",
      "salt": "0x2709f3e8fd83611a3c8d2438bec34ca9181dae5012bd849c3b453f5056719ab8",
      "assetIds": []
    },
    {
      "x": 134,
      "y": 342,
      "size": 1,
      "price": "1011000000000000000000",
      "reserved": "0x7a9fe22691c811ea339d9b73150e6911a5343dca",
      "salt": "0xd4318cd1123707dd3760ab147b262a65784f4c0b069830c53183d14b2b58f4be",
      "assetIds": []
    },
    {
      "x": 134,
      "y": 343,
      "size": 1,
      "price": "1011000000000000000000",
      "reserved": "",
      "salt": "0x03c2879093fd6975edc157967ad310aec58966742bc5e7187c03c95b6349b6b1",
      "assetIds": []
    },
    {
      "x": 134,
      "y": 344,
      "size": 1,
      "price": "1011000000000000000000",
      "reserved": "",
      "salt": "0x9c2241a707f2dbd32b55c913d27773c8fa76b59efe439764fbdf8dde6a58ed4e",
      "assetIds": []
    },
    {
      "x": 134,
      "y": 345,
      "size": 1,
      "price": "1011000000000000000000",
      "reserved": "",
      "salt": "0xd58972d951073bce23d4e925cfe7d62d9aeaa02d8bc55534fa88fcedfef358b4",
      "assetIds": []
    },
    {
      "x": 135,
      "y": 321,
      "size": 1,
      "price": "1011000000000000000000",
      "reserved": "",
      "salt": "0x7e4190fa2c76286243e579412dbbfcde82ac3e81d65ca730fe4538417d51a4f6",
      "assetIds": []
    },
    {
      "x": 135,
      "y": 322,
      "size": 1,
      "price": "1011000000000000000000",
      "reserved": "",
      "salt": "0x2638298900842deb2859bd5f8f05499a5123648503aed13e25414d9675cc9ca6",
      "assetIds": []
    },
    {
      "x": 135,
      "y": 323,
      "size": 1,
      "price": "1011000000000000000000",
      "reserved": "0x7a9fe22691c811ea339d9b73150e6911a5343dca",
      "salt": "0x3af4ab5de7ab8b7fe90bd4e36b58759a148766c6138f19691a47e4ee2a4efbf6",
      "assetIds": []
    },
    {
      "x": 135,
      "y": 336,
      "size": 1,
      "price": "4683000000000000000000",
      "reserved": "",
      "salt": "0x9f46b48a18a301854316d77d0b02ecd51883c253cec67e27c9db4c04530d788a",
      "assetIds": [
        "55464657044963196816950587289035428064568320970692304673817341489687790884865",
        "55464657044963196816950587289035428064568320970692304673817341489687782494208",
        "55464657044963196816950587289035428064568320970692304673817341489687790884866",
        "55464657044963196816950587289035428064568320970692304673817341489687782494209",
        "55464657044963196816950587289035428064568320970692304673817341489687790884864"
      ]
    },
    {
      "x": 135,
      "y": 337,
      "size": 1,
      "price": "4683000000000000000000",
      "reserved": "",
      "salt": "0x04540ff09e0be090921cad9dd73545016caf13c4302cb2545cf0e8cab8a06aff",
      "assetIds": [
        "55464657044963196816950587289035428064568320970692304673817341489687790884865",
        "55464657044963196816950587289035428064568320970692304673817341489687782494208",
        "55464657044963196816950587289035428064568320970692304673817341489687790884866",
        "55464657044963196816950587289035428064568320970692304673817341489687782494209",
        "55464657044963196816950587289035428064568320970692304673817341489687790884864"
      ]
    },
    {
      "x": 135,
      "y": 338,
      "size": 1,
      "price": "1011000000000000000000",
      "reserved": "",
      "salt": "0x95801b401ab5297ae134d58aaee08f36d7486857cc8c5e5476fa1d6a0628be70",
      "assetIds": []
    },
    {
      "x": 135,
      "y": 339,
      "size": 1,
      "price": "1011000000000000000000",
      "reserved": "",
      "salt": "0xf5336524d520eb00ec22a74c9160552dae570cfc29b67bbb50fcea1c453cfd6d",
      "assetIds": []
    },
    {
      "x": 135,
      "y": 340,
      "size": 1,
      "price": "1011000000000000000000",
      "reserved": "",
      "salt": "0x44a7503433c969d06a408afa27ad446db7b82163edd89a9c5b9959394f408b74",
      "assetIds": []
    },
    {
      "x": 135,
      "y": 341,
      "size": 1,
      "price": "1011000000000000000000",
      "reserved": "",
      "salt": "0x6a8cf7d526d769f9d9dbb60c88312919420334e261801286104d6faf665de883",
      "assetIds": []
    },
    {
      "x": 135,
      "y": 342,
      "size": 1,
      "price": "1011000000000000000000",
      "reserved": "",
      "salt": "0xb0b5ace4ac596ddcf499f5f69e2e39ef0302b5ad838b8583d01ff46ab8dd35d6",
      "assetIds": []
    },
    {
      "x": 135,
      "y": 343,
      "size": 1,
      "price": "1011000000000000000000",
      "reserved": "",
      "salt": "0x6c06a1b05f241a2b77fb786ad0a233bc9e8790a8d4aacd48378a834d89913a73",
      "assetIds": []
    },
    {
      "x": 135,
      "y": 344,
      "size": 1,
      "price": "1011000000000000000000",
      "reserved": "",
      "salt": "0x1528634a40abf2bf0388591c95a3a4d05184529c4ac8210084f1b912721fc599",
      "assetIds": []
    },
    {
      "x": 135,
      "y": 345,
      "size": 1,
      "price": "1011000000000000000000",
      "reserved": "",
      "salt": "0x454aa550e923c9a5b91aecb57e724bf6d2e03c2b5b7ada13141d30374a144ca1",
      "assetIds": []
    },
    {
      "x": 136,
      "y": 321,
      "size": 1,
      "price": "1011000000000000000000",
      "reserved": "",
      "salt": "0x958d84390c7a5eb58f100e63a47f08fc2a9224bdc056cd328981f49ed7cab69a",
      "assetIds": []
    },
    {
      "x": 136,
      "y": 322,
      "size": 1,
      "price": "1011000000000000000000",
      "reserved": "",
      "salt": "0x0dcd1b145c94f7ed233605af731b82dc5a88ddb3caed4f2b2db2eae7330d24e3",
      "assetIds": []
    },
    {
      "x": 136,
      "y": 323,
      "size": 1,
      "price": "1011000000000000000000",
      "reserved": "",
      "salt": "0x7eb3c70273cfa4803ba7009181c6151fef2162d2f2019ebe011f33974542cc73",
      "assetIds": []
    },
    {
      "x": 136,
      "y": 336,
      "size": 1,
      "price": "4683000000000000000000",
      "reserved": "",
      "salt": "0x338d108e9324a61de69c0e93d3211c1c793bd3e1eaf7682b6e46ae29d5da683d",
      "assetIds": [
        "55464657044963196816950587289035428064568320970692304673817341489687790884865",
        "55464657044963196816950587289035428064568320970692304673817341489687782494208",
        "55464657044963196816950587289035428064568320970692304673817341489687790884866",
        "55464657044963196816950587289035428064568320970692304673817341489687782494209",
        "55464657044963196816950587289035428064568320970692304673817341489687790884864"
      ]
    },
    {
      "x": 136,
      "y": 337,
      "size": 1,
      "price": "1011000000000000000000",
      "reserved": "",
      "salt": "0x52482d14ca5460e43ab0b6393eb5f8c3894144f9c31af264986521b49411f908",
      "assetIds": []
    },
    {
      "x": 136,
      "y": 338,
      "size": 1,
      "price": "1011000000000000000000",
      "reserved": "0x7a9fe22691c811ea339d9b73150e6911a5343dca",
      "salt": "0xeaba11f8fc3e29a4759dafab4d9329d340a9cffab92231edc1bf4e6ea1a5df2c",
      "assetIds": []
    },
    {
      "x": 136,
      "y": 339,
      "size": 1,
      "price": "1011000000000000000000",
      "reserved": "",
      "salt": "0x3506def13576626b2d63bad0cf8fed2cc5bd44d809cc937ef1eea3183ad88f79",
      "assetIds": []
    },
    {
      "x": 136,
      "y": 340,
      "size": 1,
      "price": "1011000000000000000000",
      "reserved": "",
      "salt": "0x8f7a20c0fffa55554ee37907b4aac0520ed56bbe925486fbddff2a958bec33ab",
      "assetIds": []
    },
    {
      "x": 136,
      "y": 341,
      "size": 1,
      "price": "1011000000000000000000",
      "reserved": "0x7a9fe22691c811ea339d9b73150e6911a5343dca",
      "salt": "0xbdaf1229e4da93adc78fb41031fe6270856d3b3515dc49625ca6d439c29f5501",
      "assetIds": []
    },
    {
      "x": 136,
      "y": 342,
      "size": 1,
      "price": "1011000000000000000000",
      "reserved": "",
      "salt": "0x3d51338664dc9140b13c26600e7fc5e636a82d5a1e7887ef8ee7e844fc4819c7",
      "assetIds": []
    },
    {
      "x": 136,
      "y": 343,
      "size": 1,
      "price": "1011000000000000000000",
      "reserved": "",
      "salt": "0xd8ae0709372e1586f5aca5268d0ff80374efbec23769789b28cc03ebb5d84305",
      "assetIds": []
    },
    {
      "x": 136,
      "y": 344,
      "size": 1,
      "price": "1011000000000000000000",
      "reserved": "",
      "salt": "0x5f7b01530ef215f5edc071282880c5aaeb0ebf48580b19098fae3b610d93132f",
      "assetIds": []
    },
    {
      "x": 136,
      "y": 345,
      "size": 1,
      "price": "1011000000000000000000",
      "reserved": "",
      "salt": "0xd8df8650effcb0fbce1b034e402a45d2e579562df1d1021df479d7a0cad4d20f",
      "assetIds": []
    },
    {
      "x": 137,
      "y": 321,
      "size": 1,
      "price": "1011000000000000000000",
      "reserved": "0x7a9fe22691c811ea339d9b73150e6911a5343dca",
      "salt": "0x986ad69375354b11eb1e5ce86bd9fa74b0692e709ca4eea9676a64b9c7dfc59f",
      "assetIds": []
    },
    {
      "x": 137,
      "y": 322,
      "size": 1,
      "price": "1011000000000000000000",
      "reserved": "",
      "salt": "0x19903beed5f1a8c1a96b73fad5d9874ad7b73ca6d9a144d3b904055495e34c01",
      "assetIds": []
    },
    {
      "x": 137,
      "y": 323,
      "size": 1,
      "price": "1011000000000000000000",
      "reserved": "",
      "salt": "0xaf958de71ec8214a24239ec4fe40f741959285e30d90bc3731a3a3045ce9f87f",
      "assetIds": []
    },
    {
      "x": 137,
      "y": 336,
      "size": 1,
      "price": "4683000000000000000000",
      "reserved": "",
      "salt": "0x99953ba3479eb12d1e4c99e3db748d09ffb878466d6f8a7729982a4b81dc00c2",
      "assetIds": [
        "55464657044963196816950587289035428064568320970692304673817341489687790884865",
        "55464657044963196816950587289035428064568320970692304673817341489687782494208",
        "55464657044963196816950587289035428064568320970692304673817341489687790884866",
        "55464657044963196816950587289035428064568320970692304673817341489687782494209",
        "55464657044963196816950587289035428064568320970692304673817341489687790884864"
      ]
    },
    {
      "x": 137,
      "y": 337,
      "size": 1,
      "price": "1011000000000000000000",
      "reserved": "",
      "salt": "0x290de60cadd6acaa9649898184daca9b8e3148f541ba70bdf618c68761b528d5",
      "assetIds": []
    },
    {
      "x": 137,
      "y": 338,
      "size": 1,
      "price": "1011000000000000000000",
      "reserved": "",
      "salt": "0xdc8144dcb8079b46433720036a653886d4b99f5f3c3cadb542b5ef3b7d9f9bb9",
      "assetIds": []
    },
    {
      "x": 137,
      "y": 339,
      "size": 1,
      "price": "1011000000000000000000",
      "reserved": "",
      "salt": "0x531645d72d5f4e70a34e23ba04bdd56c8d749540159c422cb4770a09d6a7977e",
      "assetIds": []
    },
    {
      "x": 137,
      "y": 340,
      "size": 1,
      "price": "1011000000000000000000",
      "reserved": "",
      "salt": "0xc9f189161713c0229ae56393ed36a501a657d380098d99fcac8bdcc55e9d0a7b",
      "assetIds": []
    },
    {
      "x": 137,
      "y": 341,
      "size": 1,
      "price": "1011000000000000000000",
      "reserved": "",
      "salt": "0x6cec4687f2df922c559837ee847aa2bf126c346b23fa77caf10751f416639208",
      "assetIds": []
    },
    {
      "x": 137,
      "y": 342,
      "size": 1,
      "price": "1011000000000000000000",
      "reserved": "",
      "salt": "0x584f43b8ec5f4ce735f80e3990d97d91599b8cfa300a079952653281bb02b423",
      "assetIds": []
    },
    {
      "x": 137,
      "y": 343,
      "size": 1,
      "price": "1011000000000000000000",
      "reserved": "0x7a9fe22691c811ea339d9b73150e6911a5343dca",
      "salt": "0x5972f36c4b21a271f7554e82079908ca6c10367637c945deb075b0d8f980639f",
      "assetIds": []
    },
    {
      "x": 137,
      "y": 344,
      "size": 1,
      "price": "1011000000000000000000",
      "reserved": "",
      "salt": "0xbeaf01c3aa24bf6702313e4efc50beb2920ab3ba603c18c318561efbb3b94652",
      "assetIds": []
    },
    {
      "x": 137,
      "y": 345,
      "size": 1,
      "price": "1011000000000000000000",
      "reserved": "0x7a9fe22691c811ea339d9b73150e6911a5343dca",
      "salt": "0x44f77092cb6dab7a918b7ce360cf7e3c5e4521109f88b3132bdcd698dbb86c20",
      "assetIds": []
    },
    {
      "x": 138,
      "y": 322,
      "size": 1,
      "price": "1011000000000000000000",
      "reserved": "",
      "salt": "0x9d913c2236e872230adb80925d24dd07e29f562681ab5cec190f9cdf93a4b42c",
      "assetIds": []
    },
    {
      "x": 138,
      "y": 323,
      "size": 1,
      "price": "1011000000000000000000",
      "reserved": "",
      "salt": "0xf01fee89d21ab4290cde4ee2564d29fbfda1dc1eb803c27e0eaba7f4ed7df34e",
      "assetIds": []
    },
    {
      "x": 138,
      "y": 336,
      "size": 1,
      "price": "4683000000000000000000",
      "reserved": "",
      "salt": "0x693cbe3463cb912b3956b9d4f0b40149484445001b54842a8d72a195fb1c0fbb",
      "assetIds": [
        "55464657044963196816950587289035428064568320970692304673817341489687790884865",
        "55464657044963196816950587289035428064568320970692304673817341489687782494208",
        "55464657044963196816950587289035428064568320970692304673817341489687790884866",
        "55464657044963196816950587289035428064568320970692304673817341489687782494209",
        "55464657044963196816950587289035428064568320970692304673817341489687790884864"
      ]
    },
    {
      "x": 138,
      "y": 337,
      "size": 1,
      "price": "1011000000000000000000",
      "reserved": "",
      "salt": "0x9ec9a6cf6af013566c6b03c73cfb3e84439905df4cf94d915ecea5becb0d613a",
      "assetIds": []
    },
    {
      "x": 138,
      "y": 338,
      "size": 1,
      "price": "1011000000000000000000",
      "reserved": "",
      "salt": "0xa03a6ec9d365d933bfe5409d9346a1de3990873c15ff14c6fd667363166e6b45",
      "assetIds": []
    },
    {
      "x": 138,
      "y": 339,
      "size": 1,
      "price": "1011000000000000000000",
      "reserved": "",
      "salt": "0x4cda5ab94df8fd11f82b8e8940c39977f399d11f539ef60dee6dadc523b6f565",
      "assetIds": []
    },
    {
      "x": 138,
      "y": 340,
      "size": 1,
      "price": "1011000000000000000000",
      "reserved": "0x7a9fe22691c811ea339d9b73150e6911a5343dca",
      "salt": "0x318ebd91d7938e933eed01903e9634a7abdb0f7eac85187a69f38b3055ab0ed6",
      "assetIds": []
    },
    {
      "x": 138,
      "y": 341,
      "size": 1,
      "price": "1011000000000000000000",
      "reserved": "",
      "salt": "0xf39618ac680423a4e0db3f5d787b1f4e3ca05b2aef07c31d98487051c7476676",
      "assetIds": []
    },
    {
      "x": 138,
      "y": 342,
      "size": 1,
      "price": "1011000000000000000000",
      "reserved": "",
      "salt": "0x64fafc3621f1caea6ae01b43d2dfe92ca0a9448e22e8b63c66c23fba4c793cfc",
      "assetIds": []
    },
    {
      "x": 138,
      "y": 343,
      "size": 1,
      "price": "1011000000000000000000",
      "reserved": "",
      "salt": "0xf7e97622be4e8eb0ce7d2df6dff873a373ded5fe115a1afabfe7b8bf1a44b220",
      "assetIds": []
    },
    {
      "x": 138,
      "y": 344,
      "size": 1,
      "price": "1011000000000000000000",
      "reserved": "",
      "salt": "0x57d2825376e07984a907cf14f2f026317b4f0f8d395c3abf57959ed0dbdb5b7d",
      "assetIds": []
    },
    {
      "x": 138,
      "y": 345,
      "size": 1,
      "price": "1011000000000000000000",
      "reserved": "",
      "salt": "0x167cfc6d40b2d34f9e7099768e26741494bb102e80192d746dcbfbdb9597f121",
      "assetIds": []
    },
    {
      "x": 139,
      "y": 322,
      "size": 1,
      "price": "1011000000000000000000",
      "reserved": "",
      "salt": "0x0a15bdff6e16e9177fe6299305d1ab578e47c1460a87f2800351b56d6215d081",
      "assetIds": []
    },
    {
      "x": 139,
      "y": 323,
      "size": 1,
      "price": "1011000000000000000000",
      "reserved": "",
      "salt": "0xb6ee47d65246f8aaf94646ce2444bd140a3635bc79bb1edbe9b5d28ce514cead",
      "assetIds": []
    },
    {
      "x": 139,
      "y": 336,
      "size": 1,
      "price": "4683000000000000000000",
      "reserved": "",
      "salt": "0x745d9216b898b08da859c9b6af633d807ac9ed4f5cb902bc85da16e4600ec489",
      "assetIds": [
        "55464657044963196816950587289035428064568320970692304673817341489687790884865",
        "55464657044963196816950587289035428064568320970692304673817341489687782494208",
        "55464657044963196816950587289035428064568320970692304673817341489687790884866",
        "55464657044963196816950587289035428064568320970692304673817341489687782494209",
        "55464657044963196816950587289035428064568320970692304673817341489687790884864"
      ]
    },
    {
      "x": 139,
      "y": 337,
      "size": 1,
      "price": "1011000000000000000000",
      "reserved": "",
      "salt": "0x4cfa3783fb752c1da6cf2162b07c8c4974e3d1cf550ddacdfd66e0df6abed61a",
      "assetIds": []
    },
    {
      "x": 139,
      "y": 338,
      "size": 1,
      "price": "1011000000000000000000",
      "reserved": "0x7a9fe22691c811ea339d9b73150e6911a5343dca",
      "salt": "0x4bc833b20cb670556d60aa689128c798b93469a3707696a5a1bc7ff5fbb02962",
      "assetIds": []
    },
    {
      "x": 139,
      "y": 339,
      "size": 1,
      "price": "1011000000000000000000",
      "reserved": "",
      "salt": "0x0b5beb874640de2d9307203a43621e3e6dcef8ef5ae65f73a6d41d11fcd1aa0d",
      "assetIds": []
    },
    {
      "x": 139,
      "y": 340,
      "size": 1,
      "price": "1011000000000000000000",
      "reserved": "",
      "salt": "0xc902e4b07f1b8c59baf0c9e0a7698cbc830eae1456b16bebb890ab1e2cd32f06",
      "assetIds": []
    },
    {
      "x": 139,
      "y": 341,
      "size": 1,
      "price": "1011000000000000000000",
      "reserved": "0x7a9fe22691c811ea339d9b73150e6911a5343dca",
      "salt": "0xe08c3e3c1d101528124e568302624417f336e9357e974824bf76f4192558d2c1",
      "assetIds": []
    },
    {
      "x": 139,
      "y": 342,
      "size": 1,
      "price": "1011000000000000000000",
      "reserved": "",
      "salt": "0xf5b726a1e41fa1e5096eae261bfb67c7918f67696cae790a6e078baac29e28b8",
      "assetIds": []
    },
    {
      "x": 139,
      "y": 343,
      "size": 1,
      "price": "1011000000000000000000",
      "reserved": "0x7a9fe22691c811ea339d9b73150e6911a5343dca",
      "salt": "0x195b9753a29f83c1644a78d322b7bc88cd90d6380ce3d241127911c5a607f1e4",
      "assetIds": []
    },
    {
      "x": 139,
      "y": 344,
      "size": 1,
      "price": "1011000000000000000000",
      "reserved": "",
      "salt": "0x2fe58946636bc8e7c654e90cadba7878a11bdf1f343709fe56108479ea605a71",
      "assetIds": []
    },
    {
      "x": 139,
      "y": 345,
      "size": 1,
      "price": "1011000000000000000000",
      "reserved": "",
      "salt": "0xa09db3875ac96efc5cc8588e275fbd8db28dac9aa6aed20d1eb5584ace94548b",
      "assetIds": []
    },
    {
      "x": 140,
      "y": 322,
      "size": 1,
      "price": "1011000000000000000000",
      "reserved": "",
      "salt": "0xbeb811533a39318cbe83d40265d73896ad374521eebc8b3dff94078c7c6bf1be",
      "assetIds": []
    },
    {
      "x": 140,
      "y": 323,
      "size": 1,
      "price": "1011000000000000000000",
      "reserved": "",
      "salt": "0xf825ee3946c7fe66ccaaaf9acc0e0d5c64dae82447daa93cb657313592d7d73f",
      "assetIds": []
    },
    {
      "x": 140,
      "y": 336,
      "size": 1,
      "price": "4683000000000000000000",
      "reserved": "",
      "salt": "0x0c214b6538839f74228936d084be317027fccae9db69df09f47b2450c2c3cab5",
      "assetIds": [
        "55464657044963196816950587289035428064568320970692304673817341489687790884865",
        "55464657044963196816950587289035428064568320970692304673817341489687782494208",
        "55464657044963196816950587289035428064568320970692304673817341489687790884866",
        "55464657044963196816950587289035428064568320970692304673817341489687782494209",
        "55464657044963196816950587289035428064568320970692304673817341489687790884864"
      ]
    },
    {
      "x": 140,
      "y": 337,
      "size": 1,
      "price": "1011000000000000000000",
      "reserved": "",
      "salt": "0xfa0a86ffbae4161b2615e2ca622af379621d16d086a408dc7d61f0be5d08ca45",
      "assetIds": []
    },
    {
      "x": 140,
      "y": 338,
      "size": 1,
      "price": "1011000000000000000000",
      "reserved": "",
      "salt": "0x5bc48f87433c8664495af5f1c36e98c84d631f2a1a9f8bbc2f4341fe7b05bc3c",
      "assetIds": []
    },
    {
      "x": 140,
      "y": 339,
      "size": 1,
      "price": "1011000000000000000000",
      "reserved": "",
      "salt": "0x6e9978dc768565cc8c2aedb7defaa8f1521acb27c0e9a10748479d1513ccc8d4",
      "assetIds": []
    },
    {
      "x": 140,
      "y": 340,
      "size": 1,
      "price": "1011000000000000000000",
      "reserved": "0x7a9fe22691c811ea339d9b73150e6911a5343dca",
      "salt": "0xca953616e3c02db8749118716bc3916712afc953af2aeacdf739327a6280671b",
      "assetIds": []
    },
    {
      "x": 140,
      "y": 341,
      "size": 1,
      "price": "4683000000000000000000",
      "reserved": "",
      "salt": "0x51bc441c58987e564949b5249ee8c000f60c18ce25d0c587605be7889a622717",
      "assetIds": [
        "55464657044963196816950587289035428064568320970692304673817341489687790884865",
        "55464657044963196816950587289035428064568320970692304673817341489687782494208",
        "55464657044963196816950587289035428064568320970692304673817341489687790884866",
        "55464657044963196816950587289035428064568320970692304673817341489687782494209",
        "55464657044963196816950587289035428064568320970692304673817341489687790884864"
      ]
    },
    {
      "x": 140,
      "y": 342,
      "size": 1,
      "price": "1011000000000000000000",
      "reserved": "",
      "salt": "0x5f39d01e50f77b6509c2197bd1038123cafa04f2a1eee72315d13654fd2bf808",
      "assetIds": []
    },
    {
      "x": 140,
      "y": 343,
      "size": 1,
      "price": "1011000000000000000000",
      "reserved": "",
      "salt": "0x806841a583b57a7113d6399ef3d6504f45b338bfdc9dad4d49fc0dd6ed26322e",
      "assetIds": []
    },
    {
      "x": 140,
      "y": 344,
      "size": 1,
      "price": "1011000000000000000000",
      "reserved": "",
      "salt": "0x558658b9f1436cc36e4ca0aebe7207d565b3582bfbf74d0c4f86eff19004539b",
      "assetIds": []
    },
    {
      "x": 140,
      "y": 345,
      "size": 1,
      "price": "1011000000000000000000",
      "reserved": "0x7a9fe22691c811ea339d9b73150e6911a5343dca",
      "salt": "0xd8b02f30cd51b1f55336cad19ff95b2f1e4668386c7f8e9cf4c0612a7f0fae75",
      "assetIds": []
    },
    {
      "x": 141,
      "y": 322,
      "size": 1,
      "price": "1011000000000000000000",
      "reserved": "",
      "salt": "0x61b16c6310a9122e45c0b0b8a245c81509f413736d84bf70f8e2e462104af59c",
      "assetIds": []
    },
    {
      "x": 141,
      "y": 323,
      "size": 1,
      "price": "1011000000000000000000",
      "reserved": "",
      "salt": "0x04adf4f287b1c907eac90707a0284b62629fba9554ed0b19733fa6709a838216",
      "assetIds": []
    },
    {
      "x": 141,
      "y": 336,
      "size": 1,
      "price": "4683000000000000000000",
      "reserved": "",
      "salt": "0xa9332d0550648aae3373f533b9d89bef3626792009b5f48d8a148e0b98140291",
      "assetIds": [
        "55464657044963196816950587289035428064568320970692304673817341489687790884865",
        "55464657044963196816950587289035428064568320970692304673817341489687782494208",
        "55464657044963196816950587289035428064568320970692304673817341489687790884866",
        "55464657044963196816950587289035428064568320970692304673817341489687782494209",
        "55464657044963196816950587289035428064568320970692304673817341489687790884864"
      ]
    },
    {
      "x": 141,
      "y": 337,
      "size": 1,
      "price": "4683000000000000000000",
      "reserved": "",
      "salt": "0x4e244463f3b099801597e75a01cf22bd2498e6c3bb631574ef158eb48cb42477",
      "assetIds": [
        "55464657044963196816950587289035428064568320970692304673817341489687790884865",
        "55464657044963196816950587289035428064568320970692304673817341489687782494208",
        "55464657044963196816950587289035428064568320970692304673817341489687790884866",
        "55464657044963196816950587289035428064568320970692304673817341489687782494209",
        "55464657044963196816950587289035428064568320970692304673817341489687790884864"
      ]
    },
    {
      "x": 141,
      "y": 338,
      "size": 1,
      "price": "1011000000000000000000",
      "reserved": "",
      "salt": "0x306b80e6e15fd6ece39b140c4a417909d1e282010ff9032bf71695a6cb6c7944",
      "assetIds": []
    },
    {
      "x": 141,
      "y": 339,
      "size": 1,
      "price": "1011000000000000000000",
      "reserved": "",
      "salt": "0x7963cecc4224b2ec39b63244fe8fdf808ac2f30cd47425369076c7b49f3d4139",
      "assetIds": []
    },
    {
      "x": 141,
      "y": 340,
      "size": 1,
      "price": "1011000000000000000000",
      "reserved": "",
      "salt": "0x532d6e3273705729b1b045b644f93cb4be961f21447ce010c5db07aad26d2695",
      "assetIds": []
    },
    {
      "x": 141,
      "y": 341,
      "size": 1,
      "price": "4683000000000000000000",
      "reserved": "",
      "salt": "0x0ebcb6ca76cc03ae56aceccf1c24f1deabce491b76ea140e06a3391ae21ced42",
      "assetIds": [
        "55464657044963196816950587289035428064568320970692304673817341489687790884865",
        "55464657044963196816950587289035428064568320970692304673817341489687782494208",
        "55464657044963196816950587289035428064568320970692304673817341489687790884866",
        "55464657044963196816950587289035428064568320970692304673817341489687782494209",
        "55464657044963196816950587289035428064568320970692304673817341489687790884864"
      ]
    },
    {
      "x": 141,
      "y": 345,
      "size": 1,
      "price": "1011000000000000000000",
      "reserved": "",
      "salt": "0x920164454af0a853768c02b0b10c51f3c296097af4bd4472e8d413df8e3ce4fc",
      "assetIds": []
    },
    {
      "x": 142,
      "y": 322,
      "size": 1,
      "price": "1011000000000000000000",
      "reserved": "0x7a9fe22691c811ea339d9b73150e6911a5343dca",
      "salt": "0x803f4447a2efb93e6a9763144e423661ad5f9ecf713b455254e053bf1be41fa0",
      "assetIds": []
    },
    {
      "x": 142,
      "y": 323,
      "size": 1,
      "price": "1011000000000000000000",
      "reserved": "",
      "salt": "0xf059d62032cf480444663382d6d47fa5ad960cbe43d70dfad6bfa961c6db3123",
      "assetIds": []
    },
    {
      "x": 142,
      "y": 336,
      "size": 1,
      "price": "4683000000000000000000",
      "reserved": "",
      "salt": "0xa3c866f7b4ce12df06bace2aed7612c2f4db5dc37445d3cb9e5c4e0d4f323568",
      "assetIds": [
        "55464657044963196816950587289035428064568320970692304673817341489687790884865",
        "55464657044963196816950587289035428064568320970692304673817341489687782494208",
        "55464657044963196816950587289035428064568320970692304673817341489687790884866",
        "55464657044963196816950587289035428064568320970692304673817341489687782494209",
        "55464657044963196816950587289035428064568320970692304673817341489687790884864"
      ]
    },
    {
      "x": 142,
      "y": 337,
      "size": 1,
      "price": "1011000000000000000000",
      "reserved": "0x7a9fe22691c811ea339d9b73150e6911a5343dca",
      "salt": "0x9f40ac049fea05ede95e218c8a9c22ccd372b94e4311e10426a32a556fa78a7a",
      "assetIds": []
    },
    {
      "x": 142,
      "y": 338,
      "size": 1,
      "price": "1011000000000000000000",
      "reserved": "",
      "salt": "0x0728e5a4c34b08474483bb74598c31e82a5ff34a92529b1084d353779d3e0402",
      "assetIds": []
    },
    {
      "x": 142,
      "y": 339,
      "size": 1,
      "price": "1011000000000000000000",
      "reserved": "0x7a9fe22691c811ea339d9b73150e6911a5343dca",
      "salt": "0x5a7aaecaef2077603a2438951de37a34edfe14c09f54014b7ce2e5338c2a2c61",
      "assetIds": []
    },
    {
      "x": 142,
      "y": 340,
      "size": 1,
      "price": "1011000000000000000000",
      "reserved": "",
      "salt": "0x22a7f5a3f95d7a283b1d91d1989122b5b34b53d7dcc14448101a8a97513a3f35",
      "assetIds": []
    },
    {
      "x": 142,
      "y": 341,
      "size": 1,
      "price": "4683000000000000000000",
      "reserved": "",
      "salt": "0xf56e87886f2c2920b5e4055e658668a9c4134c2b73470d1e56fa6ccd6e8dd385",
      "assetIds": [
        "55464657044963196816950587289035428064568320970692304673817341489687790884865",
        "55464657044963196816950587289035428064568320970692304673817341489687782494208",
        "55464657044963196816950587289035428064568320970692304673817341489687790884866",
        "55464657044963196816950587289035428064568320970692304673817341489687782494209",
        "55464657044963196816950587289035428064568320970692304673817341489687790884864"
      ]
    },
    {
      "x": 142,
      "y": 345,
      "size": 1,
      "price": "1011000000000000000000",
      "reserved": "",
      "salt": "0x917fb49466f371065fe9fbb3091fef016b6af6b849ab0a4aecaf9541c37140a4",
      "assetIds": []
    },
    {
      "x": 143,
      "y": 322,
      "size": 1,
      "price": "1011000000000000000000",
      "reserved": "",
      "salt": "0x9785a204fa430e4ec04e13eb80111b0312f183db002079cbe6494f6fa81fa869",
      "assetIds": []
    },
    {
      "x": 143,
      "y": 323,
      "size": 1,
      "price": "1011000000000000000000",
      "reserved": "",
      "salt": "0x1bda3d6f40db5a2cf0a45067fc3a88fff4ae58a1140dffa2301e3a3d245592ae",
      "assetIds": []
    },
    {
      "x": 143,
      "y": 336,
      "size": 1,
      "price": "4683000000000000000000",
      "reserved": "",
      "salt": "0xc407289007d16b4a81cd27b133f7604ef2a78b692ebe042a9f5ea9922891a027",
      "assetIds": [
        "55464657044963196816950587289035428064568320970692304673817341489687790884865",
        "55464657044963196816950587289035428064568320970692304673817341489687782494208",
        "55464657044963196816950587289035428064568320970692304673817341489687790884866",
        "55464657044963196816950587289035428064568320970692304673817341489687782494209",
        "55464657044963196816950587289035428064568320970692304673817341489687790884864"
      ]
    },
    {
      "x": 143,
      "y": 337,
      "size": 1,
      "price": "4683000000000000000000",
      "reserved": "",
      "salt": "0xa2d03c03492e1e34260d46530cc122843245903f2d99aa32ca62fe590759157a",
      "assetIds": [
        "55464657044963196816950587289035428064568320970692304673817341489687790884865",
        "55464657044963196816950587289035428064568320970692304673817341489687782494208",
        "55464657044963196816950587289035428064568320970692304673817341489687790884866",
        "55464657044963196816950587289035428064568320970692304673817341489687782494209",
        "55464657044963196816950587289035428064568320970692304673817341489687790884864"
      ]
    },
    {
      "x": 143,
      "y": 338,
      "size": 1,
      "price": "1011000000000000000000",
      "reserved": "",
      "salt": "0x5dcc321a5a400df6932063d449f40e2f283360571e57cbea2cfd05ce5ba5d046",
      "assetIds": []
    },
    {
      "x": 143,
      "y": 339,
      "size": 1,
      "price": "1011000000000000000000",
      "reserved": "",
      "salt": "0xea076a8073900f5e3ab13aed15269b97d3afe4cdb5959d018561e84c0d530ee2",
      "assetIds": []
    },
    {
      "x": 143,
      "y": 340,
      "size": 1,
      "price": "1011000000000000000000",
      "reserved": "",
      "salt": "0x555659170073cc82ee1f589355e4a37cf71b89fd3c56547f1cc552bd51029fc8",
      "assetIds": []
    },
    {
      "x": 143,
      "y": 341,
      "size": 1,
      "price": "4683000000000000000000",
      "reserved": "",
      "salt": "0x4ac3838d4e9960234f38560c8cab8d02bc4282e7e9b20db4412fb8dd8512a2d0",
      "assetIds": [
        "55464657044963196816950587289035428064568320970692304673817341489687790884865",
        "55464657044963196816950587289035428064568320970692304673817341489687782494208",
        "55464657044963196816950587289035428064568320970692304673817341489687790884866",
        "55464657044963196816950587289035428064568320970692304673817341489687782494209",
        "55464657044963196816950587289035428064568320970692304673817341489687790884864"
      ]
    },
    {
      "x": 143,
      "y": 345,
      "size": 1,
      "price": "1011000000000000000000",
      "reserved": "0x7a9fe22691c811ea339d9b73150e6911a5343dca",
      "salt": "0x4bc83c1b1226774d9b928f485b0ccbb2966cbb474ff846bd77b62d8c170be254",
      "assetIds": []
    },
    {
      "x": 144,
      "y": 322,
      "size": 1,
      "price": "1011000000000000000000",
      "reserved": "",
      "salt": "0x9ef00f159ade1e2f07c21e8ba1e7442e2bb88c3a81baa8de629204ec60716353",
      "assetIds": []
    },
    {
      "x": 144,
      "y": 323,
      "size": 1,
      "price": "1011000000000000000000",
      "reserved": "",
      "salt": "0x5a21f50cafe07c2a6430dcdb5803af3207f9a1602dd947a6b2e3d561ca7addbe",
      "assetIds": []
    },
    {
      "x": 144,
      "y": 330,
      "size": 1,
      "price": "4683000000000000000000",
      "reserved": "",
      "salt": "0x220ce3944bb1e48e5a8c0f0b2e0ca5d39c09f87a95b03e66901dc129508543a8",
      "assetIds": [
        "55464657044963196816950587289035428064568320970692304673817341489687790884865",
        "55464657044963196816950587289035428064568320970692304673817341489687782494208",
        "55464657044963196816950587289035428064568320970692304673817341489687790884866",
        "55464657044963196816950587289035428064568320970692304673817341489687782494209",
        "55464657044963196816950587289035428064568320970692304673817341489687790884864"
      ]
    },
    {
      "x": 144,
      "y": 331,
      "size": 1,
      "price": "4683000000000000000000",
      "reserved": "",
      "salt": "0x206f08b93362e7468da216e71b3e8c07fd8bbf4816ed03b974abd1d72574080b",
      "assetIds": [
        "55464657044963196816950587289035428064568320970692304673817341489687790884865",
        "55464657044963196816950587289035428064568320970692304673817341489687782494208",
        "55464657044963196816950587289035428064568320970692304673817341489687790884866",
        "55464657044963196816950587289035428064568320970692304673817341489687782494209",
        "55464657044963196816950587289035428064568320970692304673817341489687790884864"
      ]
    },
    {
      "x": 144,
      "y": 332,
      "size": 1,
      "price": "4683000000000000000000",
      "reserved": "",
      "salt": "0xab9505539647f8740ef749898ec73b091a993a7e68f84dda12bf345652c614c0",
      "assetIds": [
        "55464657044963196816950587289035428064568320970692304673817341489687790884865",
        "55464657044963196816950587289035428064568320970692304673817341489687782494208",
        "55464657044963196816950587289035428064568320970692304673817341489687790884866",
        "55464657044963196816950587289035428064568320970692304673817341489687782494209",
        "55464657044963196816950587289035428064568320970692304673817341489687790884864"
      ]
    },
    {
      "x": 144,
      "y": 333,
      "size": 1,
      "price": "4683000000000000000000",
      "reserved": "",
      "salt": "0x28f465be44fcf799311adec7f97fd232c0b563a9d849b3dee304f6ecf21f2ad0",
      "assetIds": [
        "55464657044963196816950587289035428064568320970692304673817341489687790884865",
        "55464657044963196816950587289035428064568320970692304673817341489687782494208",
        "55464657044963196816950587289035428064568320970692304673817341489687790884866",
        "55464657044963196816950587289035428064568320970692304673817341489687782494209",
        "55464657044963196816950587289035428064568320970692304673817341489687790884864"
      ]
    },
    {
      "x": 144,
      "y": 334,
      "size": 1,
      "price": "4683000000000000000000",
      "reserved": "",
      "salt": "0xc23c006dbfe185b688dceed2a24d6588fedfd75ea8f50a07202d2a2c17a0d767",
      "assetIds": [
        "55464657044963196816950587289035428064568320970692304673817341489687790884865",
        "55464657044963196816950587289035428064568320970692304673817341489687782494208",
        "55464657044963196816950587289035428064568320970692304673817341489687790884866",
        "55464657044963196816950587289035428064568320970692304673817341489687782494209",
        "55464657044963196816950587289035428064568320970692304673817341489687790884864"
      ]
    },
    {
      "x": 144,
      "y": 335,
      "size": 1,
      "price": "4683000000000000000000",
      "reserved": "",
      "salt": "0x4516628aa83a41b074200c90737c2fea630257ff48974c1eb6eaa970f1ac2f68",
      "assetIds": [
        "55464657044963196816950587289035428064568320970692304673817341489687790884865",
        "55464657044963196816950587289035428064568320970692304673817341489687782494208",
        "55464657044963196816950587289035428064568320970692304673817341489687790884866",
        "55464657044963196816950587289035428064568320970692304673817341489687782494209",
        "55464657044963196816950587289035428064568320970692304673817341489687790884864"
      ]
    },
    {
      "x": 144,
      "y": 336,
      "size": 1,
      "price": "1011000000000000000000",
      "reserved": "",
      "salt": "0x285c8485c222d6345f2b98f465780c8dd49ae604b65524a64c4e0d0dd4cf2cb3",
      "assetIds": []
    },
    {
      "x": 144,
      "y": 337,
      "size": 1,
      "price": "1011000000000000000000",
      "reserved": "",
      "salt": "0x9571d194abe5fb02eac5ba5f7e8c2e920cfac271e44e72166c66ff680cd53ba1",
      "assetIds": []
    },
    {
      "x": 144,
      "y": 338,
      "size": 1,
      "price": "1011000000000000000000",
      "reserved": "",
      "salt": "0x1d32a66effca51284be585e80f6612eeb11dfe3892897c0a769b5950f60ad642",
      "assetIds": []
    },
    {
      "x": 144,
      "y": 339,
      "size": 1,
      "price": "1011000000000000000000",
      "reserved": "",
      "salt": "0x23d0a8a39f074a0793a19a3a54ab367d744bd559f071ae3c2fd067e5c49bb217",
      "assetIds": []
    },
    {
      "x": 144,
      "y": 340,
      "size": 1,
      "price": "1011000000000000000000",
      "reserved": "0x7a9fe22691c811ea339d9b73150e6911a5343dca",
      "salt": "0xf120ce8a80de5faa059b8cba4bdc629b2dd7bef33b107f41ba4075e4ed5afd2e",
      "assetIds": []
    },
    {
      "x": 144,
      "y": 341,
      "size": 1,
      "price": "4683000000000000000000",
      "reserved": "",
      "salt": "0xda1cdd8ae8ae43b053cee426d59610117eb6bd933f503755348da9ff7e567cb9",
      "assetIds": [
        "55464657044963196816950587289035428064568320970692304673817341489687790884865",
        "55464657044963196816950587289035428064568320970692304673817341489687782494208",
        "55464657044963196816950587289035428064568320970692304673817341489687790884866",
        "55464657044963196816950587289035428064568320970692304673817341489687782494209",
        "55464657044963196816950587289035428064568320970692304673817341489687790884864"
      ]
    },
    {
      "x": 144,
      "y": 342,
      "size": 1,
      "price": "4683000000000000000000",
      "reserved": "",
      "salt": "0x8cced44141856119b6d1e76a52003e8308bac8852294ae5002f5870ea063bce8",
      "assetIds": [
        "55464657044963196816950587289035428064568320970692304673817341489687790884865",
        "55464657044963196816950587289035428064568320970692304673817341489687782494208",
        "55464657044963196816950587289035428064568320970692304673817341489687790884866",
        "55464657044963196816950587289035428064568320970692304673817341489687782494209",
        "55464657044963196816950587289035428064568320970692304673817341489687790884864"
      ]
    },
    {
      "x": 144,
      "y": 343,
      "size": 1,
      "price": "4683000000000000000000",
      "reserved": "",
      "salt": "0x796303ed8fb74d3da399b43986132e743c65bd0638ab2e91d31dd003ff133d05",
      "assetIds": [
        "55464657044963196816950587289035428064568320970692304673817341489687790884865",
        "55464657044963196816950587289035428064568320970692304673817341489687782494208",
        "55464657044963196816950587289035428064568320970692304673817341489687790884866",
        "55464657044963196816950587289035428064568320970692304673817341489687782494209",
        "55464657044963196816950587289035428064568320970692304673817341489687790884864"
      ]
    },
    {
      "x": 144,
      "y": 344,
      "size": 1,
      "price": "4683000000000000000000",
      "reserved": "",
      "salt": "0x508292127279d324e79364344e3f72ca9ebcb6114b73feb60e15ad1f47524618",
      "assetIds": [
        "55464657044963196816950587289035428064568320970692304673817341489687790884865",
        "55464657044963196816950587289035428064568320970692304673817341489687782494208",
        "55464657044963196816950587289035428064568320970692304673817341489687790884866",
        "55464657044963196816950587289035428064568320970692304673817341489687782494209",
        "55464657044963196816950587289035428064568320970692304673817341489687790884864"
      ]
    },
    {
      "x": 144,
      "y": 345,
      "size": 1,
      "price": "1011000000000000000000",
      "reserved": "",
      "salt": "0xb05b9777a704955baf918294b0098cfdb762696eae9bfe0be20db377960b628e",
      "assetIds": []
    },
    {
      "x": 145,
      "y": 322,
      "size": 1,
      "price": "1011000000000000000000",
      "reserved": "0x7a9fe22691c811ea339d9b73150e6911a5343dca",
      "salt": "0xe8455fa072c7cf622518c3558a34ec2feb5478dc0ffb883f02e5683e6b7d1092",
      "assetIds": []
    },
    {
      "x": 145,
      "y": 323,
      "size": 1,
      "price": "1011000000000000000000",
      "reserved": "",
      "salt": "0x5b92013ef3589af36aba7afb5e4a5a1916a7a27d71ef7cf9c4797d955f9c9bd3",
      "assetIds": []
    },
    {
      "x": 145,
      "y": 330,
      "size": 1,
      "price": "4683000000000000000000",
      "reserved": "",
      "salt": "0x3edf93bd98a71833be33fb99c704ecc515900bec1a0ec284485d49fd02c10865",
      "assetIds": [
        "55464657044963196816950587289035428064568320970692304673817341489687790884865",
        "55464657044963196816950587289035428064568320970692304673817341489687782494208",
        "55464657044963196816950587289035428064568320970692304673817341489687790884866",
        "55464657044963196816950587289035428064568320970692304673817341489687782494209",
        "55464657044963196816950587289035428064568320970692304673817341489687790884864"
      ]
    },
    {
      "x": 145,
      "y": 331,
      "size": 1,
      "price": "1011000000000000000000",
      "reserved": "0x7a9fe22691c811ea339d9b73150e6911a5343dca",
      "salt": "0x9df7355bf01399a6296645c8d9aad1022b28126cb6493aa8b7d43794f3c73d0d",
      "assetIds": []
    },
    {
      "x": 145,
      "y": 332,
      "size": 1,
      "price": "1011000000000000000000",
      "reserved": "",
      "salt": "0x8e6ab9c15ffcc2caedd96454771386fa1f0202eefc56eb766372fbabad8f88e6",
      "assetIds": []
    },
    {
      "x": 145,
      "y": 333,
      "size": 1,
      "price": "1011000000000000000000",
      "reserved": "0x7a9fe22691c811ea339d9b73150e6911a5343dca",
      "salt": "0xa276ec19b8e73a36cabdd6ad913410a7c13055fe83661f4c0874bcdcae8c7cde",
      "assetIds": []
    },
    {
      "x": 145,
      "y": 334,
      "size": 1,
      "price": "1011000000000000000000",
      "reserved": "",
      "salt": "0xeb1ce3484a8c76c857ecc4f1c3ba25fcdb5e9a300130bb1f4904471cbfc7e387",
      "assetIds": []
    },
    {
      "x": 145,
      "y": 335,
      "size": 1,
      "price": "1011000000000000000000",
      "reserved": "0x7a9fe22691c811ea339d9b73150e6911a5343dca",
      "salt": "0xef69ed2d776ec4c556a13d626c10d96f2004a21dc3786b2797fb19f69d339af0",
      "assetIds": []
    },
    {
      "x": 145,
      "y": 336,
      "size": 1,
      "price": "1011000000000000000000",
      "reserved": "",
      "salt": "0x2e03d62581205421f225ec3c8eea76f76bc9870f2e503120e3cb075008edc75d",
      "assetIds": []
    },
    {
      "x": 145,
      "y": 337,
      "size": 1,
      "price": "1011000000000000000000",
      "reserved": "0x7a9fe22691c811ea339d9b73150e6911a5343dca",
      "salt": "0x6133e773a092935c81e8198477b2142f1562b29c15ff0839582faf7df63a45bb",
      "assetIds": []
    },
    {
      "x": 145,
      "y": 338,
      "size": 1,
      "price": "1011000000000000000000",
      "reserved": "",
      "salt": "0xd3b336fdb7390d2f9f4bbf85ac4f70fe1884659698aa678c6956f2716555cccf",
      "assetIds": []
    },
    {
      "x": 145,
      "y": 339,
      "size": 1,
      "price": "1011000000000000000000",
      "reserved": "0x7a9fe22691c811ea339d9b73150e6911a5343dca",
      "salt": "0xda0d87b18603af6b0e9966ecb31a4f9fe05d162e44409cc1484e2fce8ea0cd1d",
      "assetIds": []
    },
    {
      "x": 145,
      "y": 340,
      "size": 1,
      "price": "1011000000000000000000",
      "reserved": "",
      "salt": "0x3ed53c0f6e0c6399ed4dee30996adb83f6b7da3463c8797c3f132fe7cad08254",
      "assetIds": []
    },
    {
      "x": 145,
      "y": 341,
      "size": 1,
      "price": "1011000000000000000000",
      "reserved": "0x7a9fe22691c811ea339d9b73150e6911a5343dca",
      "salt": "0xfc57264a620d590209513aeebefb095adb8de8acf1ae9b6b49575de17341cb3e",
      "assetIds": []
    },
    {
      "x": 145,
      "y": 342,
      "size": 1,
      "price": "1011000000000000000000",
      "reserved": "",
      "salt": "0x93ebf6744139544aabad1a5b5648fd8da37be3136aeba617d0a7d7e0bb412b5a",
      "assetIds": []
    },
    {
      "x": 145,
      "y": 343,
      "size": 1,
      "price": "1011000000000000000000",
      "reserved": "0x7a9fe22691c811ea339d9b73150e6911a5343dca",
      "salt": "0x216d1e94cb80ddf1469441982109b9962d46973e5ef44c992d3e0bed5aed6769",
      "assetIds": []
    },
    {
      "x": 145,
      "y": 344,
      "size": 1,
      "price": "1011000000000000000000",
      "reserved": "",
      "salt": "0x86c782d3c1b85883575bda41335ad6e273de31982e484cf602c7ee9f2143ef4e",
      "assetIds": []
    },
    {
      "x": 145,
      "y": 345,
      "size": 1,
      "price": "1011000000000000000000",
      "reserved": "0x7a9fe22691c811ea339d9b73150e6911a5343dca",
      "salt": "0xedbd5a822e46a2d81a76ad7555ca37e44165db72d884a09ea10b87abdb9f7b62",
      "assetIds": []
    },
    {
      "x": 146,
      "y": 322,
      "size": 1,
      "price": "1011000000000000000000",
      "reserved": "",
      "salt": "0x9d4adb7a8d2daa01479388f3544caeefc6bcb86ac1add809fb52bb03bd470d86",
      "assetIds": []
    },
    {
      "x": 146,
      "y": 323,
      "size": 1,
      "price": "1011000000000000000000",
      "reserved": "",
      "salt": "0xbe2fa75b62a4ea1876df942e5ad90c45f46ede5221689af7fc839a9bbd78ec52",
      "assetIds": []
    },
    {
      "x": 146,
      "y": 330,
      "size": 1,
      "price": "4683000000000000000000",
      "reserved": "",
      "salt": "0x235d48b73115ec6aa4052ce1dd18230a501bed57f3c9984986c9316e389566fd",
      "assetIds": [
        "55464657044963196816950587289035428064568320970692304673817341489687790884865",
        "55464657044963196816950587289035428064568320970692304673817341489687782494208",
        "55464657044963196816950587289035428064568320970692304673817341489687790884866",
        "55464657044963196816950587289035428064568320970692304673817341489687782494209",
        "55464657044963196816950587289035428064568320970692304673817341489687790884864"
      ]
    },
    {
      "x": 146,
      "y": 331,
      "size": 1,
      "price": "4683000000000000000000",
      "reserved": "",
      "salt": "0x05fd7086e1d730ce5c4b8f1c93f93e3a3ef5866dbc303b0b0015e217e7181612",
      "assetIds": [
        "55464657044963196816950587289035428064568320970692304673817341489687790884865",
        "55464657044963196816950587289035428064568320970692304673817341489687782494208",
        "55464657044963196816950587289035428064568320970692304673817341489687790884866",
        "55464657044963196816950587289035428064568320970692304673817341489687782494209",
        "55464657044963196816950587289035428064568320970692304673817341489687790884864"
      ]
    },
    {
      "x": 146,
      "y": 332,
      "size": 1,
      "price": "1011000000000000000000",
      "reserved": "",
      "salt": "0x3a0de164610524642ebe15055e6370e5d22955e892ad87e8d884f1efec01d4bb",
      "assetIds": []
    },
    {
      "x": 146,
      "y": 333,
      "size": 1,
      "price": "1011000000000000000000",
      "reserved": "",
      "salt": "0xd1853ed277e24a7db5e14c8c80d8bba41504450612048498b8a1cf9daeffe4e1",
      "assetIds": []
    },
    {
      "x": 146,
      "y": 334,
      "size": 1,
      "price": "1011000000000000000000",
      "reserved": "0x7a9fe22691c811ea339d9b73150e6911a5343dca",
      "salt": "0x5ebdaad11e6605eff967d7c89798ee1d1b0033f534fe71aaf94e755f2b99084f",
      "assetIds": []
    },
    {
      "x": 146,
      "y": 335,
      "size": 1,
      "price": "1011000000000000000000",
      "reserved": "",
      "salt": "0x5a559a8221160f78990657b08bd53722ac6807391316b54baec957cd000ff07e",
      "assetIds": []
    },
    {
      "x": 146,
      "y": 336,
      "size": 1,
      "price": "1011000000000000000000",
      "reserved": "",
      "salt": "0xe8f408e192771cc95d9b769f7c0b9b0d70912e4551531a7641b8d11969faef44",
      "assetIds": []
    },
    {
      "x": 146,
      "y": 337,
      "size": 1,
      "price": "1011000000000000000000",
      "reserved": "",
      "salt": "0x873f9dca4805fbade0246a88ca8016c6b790be43e76ded26d54a2a0f44456cea",
      "assetIds": []
    },
    {
      "x": 146,
      "y": 338,
      "size": 1,
      "price": "1011000000000000000000",
      "reserved": "",
      "salt": "0xfe73269c8353eee0f238e4b32173f24d751052d1f424f6e46cb8658bc65040fd",
      "assetIds": []
    },
    {
      "x": 146,
      "y": 339,
      "size": 1,
      "price": "1011000000000000000000",
      "reserved": "",
      "salt": "0xdfde1bcf6d0b38a1e2f1d18f826ebec4652fa0eb7ebc51c8aef703ee681d9945",
      "assetIds": []
    },
    {
      "x": 146,
      "y": 340,
      "size": 1,
      "price": "1011000000000000000000",
      "reserved": "",
      "salt": "0x1009e630403b201f0528ac79b385df7f6211969d7e82a8ffa0686d678086045e",
      "assetIds": []
    },
    {
      "x": 146,
      "y": 341,
      "size": 1,
      "price": "1011000000000000000000",
      "reserved": "",
      "salt": "0x85d48571832cec818eb996bd0f79621f3d5805ca5850fc776c9df008107c1c5e",
      "assetIds": []
    },
    {
      "x": 146,
      "y": 342,
      "size": 1,
      "price": "1011000000000000000000",
      "reserved": "",
      "salt": "0x0fa1af5e1f57a7a9ff753f1c6b32418a52571f12e7583cc05809d12079ab87c6",
      "assetIds": []
    },
    {
      "x": 146,
      "y": 343,
      "size": 1,
      "price": "1011000000000000000000",
      "reserved": "",
      "salt": "0x997d585b507de64b6078ebc705332173ee40cc54fbe2dcd37720f9b71f7ccbe0",
      "assetIds": []
    },
    {
      "x": 146,
      "y": 344,
      "size": 1,
      "price": "1011000000000000000000",
      "reserved": "",
      "salt": "0x7f5f90280bb4e197aa7ccb28d4a0d7d1b007edb68f08f5f7616c0f931bb8253b",
      "assetIds": []
    },
    {
      "x": 146,
      "y": 345,
      "size": 1,
      "price": "1011000000000000000000",
      "reserved": "",
      "salt": "0x7984b3190f88bc714fbd533cf4a6ec351541f8a96cb65df745c8bed569a1a9d0",
      "assetIds": []
    },
    {
      "x": 147,
      "y": 322,
      "size": 1,
      "price": "1011000000000000000000",
      "reserved": "",
      "salt": "0xe2f483e366be6f9081c72a370a5f59cc49898eee8241651a779b7d83db086948",
      "assetIds": []
    },
    {
      "x": 147,
      "y": 323,
      "size": 1,
      "price": "1011000000000000000000",
      "reserved": "",
      "salt": "0xfb2f47ee35a6604f94e7f6a9cde26b70f8734f8901b7b66795833bee9874058d",
      "assetIds": []
    },
    {
      "x": 147,
      "y": 330,
      "size": 1,
      "price": "4683000000000000000000",
      "reserved": "",
      "salt": "0xa5954564a1aada7027ff16ebe8d6e94803fc4dbbabecd6914a01222c5da87aed",
      "assetIds": [
        "55464657044963196816950587289035428064568320970692304673817341489687790884865",
        "55464657044963196816950587289035428064568320970692304673817341489687782494208",
        "55464657044963196816950587289035428064568320970692304673817341489687790884866",
        "55464657044963196816950587289035428064568320970692304673817341489687782494209",
        "55464657044963196816950587289035428064568320970692304673817341489687790884864"
      ]
    },
    {
      "x": 147,
      "y": 331,
      "size": 1,
      "price": "1011000000000000000000",
      "reserved": "0x7a9fe22691c811ea339d9b73150e6911a5343dca",
      "salt": "0xb768df00914c2fe7630c27321accaeef5e8919a167346719135ae703bbd36a2d",
      "assetIds": []
    },
    {
      "x": 147,
      "y": 332,
      "size": 1,
      "price": "1011000000000000000000",
      "reserved": "",
      "salt": "0x8fe361ad7361d97911d16553e7a425f16a89a878525d201841d1958d757514d4",
      "assetIds": []
    },
    {
      "x": 147,
      "y": 333,
      "size": 1,
      "price": "1011000000000000000000",
      "reserved": "",
      "salt": "0x88f7df079a41d24f642f7e12255a4dddca844310bed4cdf8a08c54014675850e",
      "assetIds": []
    },
    {
      "x": 147,
      "y": 334,
      "size": 1,
      "price": "1011000000000000000000",
      "reserved": "",
      "salt": "0x08527963f9bf6733e9df6212817aa9e4eb09100542a096e566a719b12ab94bc7",
      "assetIds": []
    },
    {
      "x": 147,
      "y": 335,
      "size": 1,
      "price": "1011000000000000000000",
      "reserved": "",
      "salt": "0x9a612b8ae9deb772f4460686033486011ea7439de711a5615ec5d15c325e9095",
      "assetIds": []
    },
    {
      "x": 147,
      "y": 336,
      "size": 1,
      "price": "1011000000000000000000",
      "reserved": "0x7a9fe22691c811ea339d9b73150e6911a5343dca",
      "salt": "0x579791073cf03712e2595244e7f08542aa500e8626b30f1e3899e8f1976dc0c5",
      "assetIds": []
    },
    {
      "x": 147,
      "y": 337,
      "size": 1,
      "price": "1011000000000000000000",
      "reserved": "",
      "salt": "0x39532879989c67b38e2460ad9b7272910126c0029918785e8b66750bf2ffbc78",
      "assetIds": []
    },
    {
      "x": 147,
      "y": 338,
      "size": 1,
      "price": "1011000000000000000000",
      "reserved": "0x7a9fe22691c811ea339d9b73150e6911a5343dca",
      "salt": "0x7d6532b0d8394b4c0568cc0f8fcc7c2f80deec51beb07216e1ce765154da0984",
      "assetIds": []
    },
    {
      "x": 147,
      "y": 339,
      "size": 1,
      "price": "1011000000000000000000",
      "reserved": "",
      "salt": "0x351127651363710555235167b1e8175a471a9007b2932aead2192ad53e965ff2",
      "assetIds": []
    },
    {
      "x": 147,
      "y": 340,
      "size": 1,
      "price": "1011000000000000000000",
      "reserved": "0x7a9fe22691c811ea339d9b73150e6911a5343dca",
      "salt": "0xad9e1d6f50b07b0f14f703fcd64b99106b7ad97e8ea2540a7a7cdf56628e3c0a",
      "assetIds": []
    },
    {
      "x": 147,
      "y": 341,
      "size": 1,
      "price": "1011000000000000000000",
      "reserved": "",
      "salt": "0x181422ccee032bd92fb3d661217214a76c00788cb00428bced2e166e28ff4033",
      "assetIds": []
    },
    {
      "x": 147,
      "y": 342,
      "size": 1,
      "price": "1011000000000000000000",
      "reserved": "",
      "salt": "0x946c998797261d9d42c24bc3eb29405c218b2731ce8e0688cd4de6ddf71d30bc",
      "assetIds": []
    },
    {
      "x": 147,
      "y": 343,
      "size": 1,
      "price": "1011000000000000000000",
      "reserved": "0x7a9fe22691c811ea339d9b73150e6911a5343dca",
      "salt": "0x16e6158a5945ff1993e9b81b784430b36b443b3ecd4b7e403ef8ff72b114c3cb",
      "assetIds": []
    },
    {
      "x": 147,
      "y": 344,
      "size": 1,
      "price": "1011000000000000000000",
      "reserved": "",
      "salt": "0x52372dde837f4485122bdb8506bfb4a6cf038d63c1473eab5e49a3007907f9d8",
      "assetIds": []
    },
    {
      "x": 147,
      "y": 345,
      "size": 1,
      "price": "1011000000000000000000",
      "reserved": "",
      "salt": "0x00b68a04de92308493efebabfa68cbfd07564a59a61c821f123ce575190aa923",
      "assetIds": []
    },
    {
      "x": 147,
      "y": 346,
      "size": 1,
      "price": "1011000000000000000000",
      "reserved": "",
      "salt": "0x5522e8d05f45fc7da15e0dea02acd94fa621afd14c88a280e26f4211a7c56643",
      "assetIds": []
    },
    {
      "x": 147,
      "y": 347,
      "size": 1,
      "price": "1011000000000000000000",
      "reserved": "",
      "salt": "0x26e9f8cbc29a2e4873a3844baee9b1aa5cf2eea796acb17dd6fee5b3db68906b",
      "assetIds": []
    },
    {
      "x": 147,
      "y": 348,
      "size": 1,
      "price": "1011000000000000000000",
      "reserved": "",
      "salt": "0x0160116559a8f7e705829b404c9f13cad8502d73af4573a2ea56490a3a4d018f",
      "assetIds": []
    },
    {
      "x": 147,
      "y": 349,
      "size": 1,
      "price": "1011000000000000000000",
      "reserved": "0x7a9fe22691c811ea339d9b73150e6911a5343dca",
      "salt": "0xfcce378118f44eef16f25d41c11f786488a5d011d9787a1b9f84580960328b28",
      "assetIds": []
    },
    {
      "x": 147,
      "y": 350,
      "size": 1,
      "price": "1011000000000000000000",
      "reserved": "",
      "salt": "0x2b74b88b45c7024fb4007438bdcac59c5f42a2f32447b7c2c7a1d6b03ece2890",
      "assetIds": []
    },
    {
      "x": 148,
      "y": 322,
      "size": 1,
      "price": "1011000000000000000000",
      "reserved": "",
      "salt": "0x2ab65ddc6d185be44812c70ced362cad8789b1d80ab61c6c07149cb5fd7fc411",
      "assetIds": []
    },
    {
      "x": 148,
      "y": 323,
      "size": 1,
      "price": "1011000000000000000000",
      "reserved": "",
      "salt": "0xb10320bf83a431b4bcf5f6a41966bd4054d65c790cb36dcc2aa93f5c4ab10d61",
      "assetIds": []
    },
    {
      "x": 148,
      "y": 330,
      "size": 1,
      "price": "4683000000000000000000",
      "reserved": "",
      "salt": "0xf1c1fe0bf12c4d4f318b877c4cd5a12a41a6dad754aa95ec6743f3444c3a89a5",
      "assetIds": [
        "55464657044963196816950587289035428064568320970692304673817341489687790884865",
        "55464657044963196816950587289035428064568320970692304673817341489687782494208",
        "55464657044963196816950587289035428064568320970692304673817341489687790884866",
        "55464657044963196816950587289035428064568320970692304673817341489687782494209",
        "55464657044963196816950587289035428064568320970692304673817341489687790884864"
      ]
    },
    {
      "x": 148,
      "y": 331,
      "size": 1,
      "price": "1011000000000000000000",
      "reserved": "",
      "salt": "0x646fc8a9b12687ca9f64073b4c5de7ccdceaef7c74cf19e5d987273e7db277a8",
      "assetIds": []
    },
    {
      "x": 148,
      "y": 332,
      "size": 1,
      "price": "1011000000000000000000",
      "reserved": "",
      "salt": "0x9639343789b7ac9a543ea483550a68b149f94dd1540881169fd90c6ac982de42",
      "assetIds": []
    },
    {
      "x": 148,
      "y": 333,
      "size": 1,
      "price": "1011000000000000000000",
      "reserved": "",
      "salt": "0xef663f77e2bd10b30833cd0ebda0cd58ce7d6b1050619610a7ae2fbe3c62d1b0",
      "assetIds": []
    },
    {
      "x": 148,
      "y": 334,
      "size": 1,
      "price": "1011000000000000000000",
      "reserved": "0x7a9fe22691c811ea339d9b73150e6911a5343dca",
      "salt": "0x66aeaf8f41a46904823b07e7a02a364207698cd6ea4ecade9fa2282cadd67c81",
      "assetIds": []
    },
    {
      "x": 148,
      "y": 335,
      "size": 1,
      "price": "1011000000000000000000",
      "reserved": "",
      "salt": "0xcdaca3eacfcb7b921775880864ea12cb16fa1bad83b0851fb41ff8cd24730fed",
      "assetIds": []
    },
    {
      "x": 148,
      "y": 336,
      "size": 1,
      "price": "4683000000000000000000",
      "reserved": "",
      "salt": "0xd78f9035d78e2727358a0766798256c82460343f3b1b84add83ef6870385bd65",
      "assetIds": [
        "55464657044963196816950587289035428064568320970692304673817341489687790884865",
        "55464657044963196816950587289035428064568320970692304673817341489687782494208",
        "55464657044963196816950587289035428064568320970692304673817341489687790884866",
        "55464657044963196816950587289035428064568320970692304673817341489687782494209",
        "55464657044963196816950587289035428064568320970692304673817341489687790884864"
      ]
    },
    {
      "x": 148,
      "y": 337,
      "size": 1,
      "price": "4683000000000000000000",
      "reserved": "",
      "salt": "0xf7eab327705eaa98d9c60f2b4ff223de0c705a0fb084be45bfd6bd1a8c7908fd",
      "assetIds": [
        "55464657044963196816950587289035428064568320970692304673817341489687790884865",
        "55464657044963196816950587289035428064568320970692304673817341489687782494208",
        "55464657044963196816950587289035428064568320970692304673817341489687790884866",
        "55464657044963196816950587289035428064568320970692304673817341489687782494209",
        "55464657044963196816950587289035428064568320970692304673817341489687790884864"
      ]
    },
    {
      "x": 148,
      "y": 338,
      "size": 1,
      "price": "4683000000000000000000",
      "reserved": "",
      "salt": "0xe0f4eccf41361974ec132a04ed481a6ba999b8b16fe7261505948fe7af609a87",
      "assetIds": [
        "55464657044963196816950587289035428064568320970692304673817341489687790884865",
        "55464657044963196816950587289035428064568320970692304673817341489687782494208",
        "55464657044963196816950587289035428064568320970692304673817341489687790884866",
        "55464657044963196816950587289035428064568320970692304673817341489687782494209",
        "55464657044963196816950587289035428064568320970692304673817341489687790884864"
      ]
    },
    {
      "x": 148,
      "y": 339,
      "size": 1,
      "price": "1011000000000000000000",
      "reserved": "",
      "salt": "0xe383318adb7a08bfd1724fe239868ec016d54824b2d0839da58a2a6517da6c35",
      "assetIds": []
    },
    {
      "x": 148,
      "y": 340,
      "size": 1,
      "price": "1011000000000000000000",
      "reserved": "",
      "salt": "0x1e6f8a69906fc41b6a8cde8f8423296f0863244788fa36180d3e72533d3526cb",
      "assetIds": []
    },
    {
      "x": 148,
      "y": 341,
      "size": 1,
      "price": "1011000000000000000000",
      "reserved": "",
      "salt": "0x144f7601ff2b0b1e35658d41fad50381d472acc47939656234e0ed0542cdfbc8",
      "assetIds": []
    },
    {
      "x": 148,
      "y": 342,
      "size": 1,
      "price": "1011000000000000000000",
      "reserved": "",
      "salt": "0x85df957fc0f28be4ce0128c60354ae6dcc9ae8f7fb301651ca75955383a06ba0",
      "assetIds": []
    },
    {
      "x": 148,
      "y": 343,
      "size": 1,
      "price": "1011000000000000000000",
      "reserved": "",
      "salt": "0xc357a22966ceb703b6f33cb689768b2709a4965b1188e1ead847a6267250feb5",
      "assetIds": []
    },
    {
      "x": 148,
      "y": 344,
      "size": 1,
      "price": "1011000000000000000000",
      "reserved": "",
      "salt": "0xa771557db692a5f9e20816bef05951954198833eb5414458efaeb29d6918d7e7",
      "assetIds": []
    },
    {
      "x": 148,
      "y": 345,
      "size": 1,
      "price": "1011000000000000000000",
      "reserved": "",
      "salt": "0xd66463f7f1a0ad7c6884d0af0a3581fd790fcd4aac667152ea227fb619aa9f7e",
      "assetIds": []
    },
    {
      "x": 148,
      "y": 346,
      "size": 1,
      "price": "1011000000000000000000",
      "reserved": "",
      "salt": "0x3be862d2aefd3d71cf9a51b7b6e5a99cbaf378b7f23d2b2f45c10ae988a26c43",
      "assetIds": []
    },
    {
      "x": 148,
      "y": 347,
      "size": 1,
      "price": "1011000000000000000000",
      "reserved": "",
      "salt": "0xc3796f3fa1161f4ec87ce4c0114106b1469b3eab8d400d39342129052febcab5",
      "assetIds": []
    },
    {
      "x": 148,
      "y": 348,
      "size": 1,
      "price": "1011000000000000000000",
      "reserved": "",
      "salt": "0x5db946e45c18d203c847f00d6e14828cbe0d7383001a3b4b300e0925f9a32081",
      "assetIds": []
    },
    {
      "x": 148,
      "y": 349,
      "size": 1,
      "price": "1011000000000000000000",
      "reserved": "",
      "salt": "0x3cf7176c3e58a8c50ba8da32425f1677253e7a68e10d468786d3a22a7925ce8e",
      "assetIds": []
    },
    {
      "x": 148,
      "y": 350,
      "size": 1,
      "price": "1011000000000000000000",
      "reserved": "",
      "salt": "0xe2e7c504891f47de2d94ef52e3845c2198ec990af331925189a57cda58233028",
      "assetIds": []
    },
    {
      "x": 148,
      "y": 351,
      "size": 1,
      "price": "1011000000000000000000",
      "reserved": "0x7a9fe22691c811ea339d9b73150e6911a5343dca",
      "salt": "0xab558417cbfd79c0c0d458cbe6e7d9465c0c7e7fe58e665202f652cb6ded9a83",
      "assetIds": []
    },
    {
      "x": 149,
      "y": 322,
      "size": 1,
      "price": "1011000000000000000000",
      "reserved": "",
      "salt": "0x39c5f52c088c274efddfa749089d4243a0d26f120bccfde2978b8327df91b2ce",
      "assetIds": []
    },
    {
      "x": 149,
      "y": 323,
      "size": 1,
      "price": "1011000000000000000000",
      "reserved": "",
      "salt": "0x9f4eecf37e1d87f0297868085ace1ce8d6928f07b69cdb99aa08e5bea81d71fb",
      "assetIds": []
    },
    {
      "x": 149,
      "y": 330,
      "size": 1,
      "price": "4683000000000000000000",
      "reserved": "",
      "salt": "0xbd2f99dd8f8d544af5d3cbd7071c9ed92e94db0f495511f9b285c14d6e22031d",
      "assetIds": [
        "55464657044963196816950587289035428064568320970692304673817341489687790884865",
        "55464657044963196816950587289035428064568320970692304673817341489687782494208",
        "55464657044963196816950587289035428064568320970692304673817341489687790884866",
        "55464657044963196816950587289035428064568320970692304673817341489687782494209",
        "55464657044963196816950587289035428064568320970692304673817341489687790884864"
      ]
    },
    {
      "x": 149,
      "y": 331,
      "size": 1,
      "price": "1011000000000000000000",
      "reserved": "",
      "salt": "0xcded0d1de38fa145acf48d24f5e39b55c31c779d33d0e8fc3b32380ed489a51d",
      "assetIds": []
    },
    {
      "x": 149,
      "y": 332,
      "size": 1,
      "price": "1011000000000000000000",
      "reserved": "0x7a9fe22691c811ea339d9b73150e6911a5343dca",
      "salt": "0x421d6e656aa79c0e28737f7c16838120de4ee5e7b337a8c79d0604243b77ff09",
      "assetIds": []
    },
    {
      "x": 149,
      "y": 333,
      "size": 1,
      "price": "1011000000000000000000",
      "reserved": "",
      "salt": "0xb760fde1e0f83cce384e16f3f34b81d99a8ec48fd570900dfcb1685e9051e151",
      "assetIds": []
    },
    {
      "x": 149,
      "y": 334,
      "size": 1,
      "price": "1011000000000000000000",
      "reserved": "",
      "salt": "0xde171800403881651f99243b617203d32bdd2e45ef105056ee5576db00d0f199",
      "assetIds": []
    },
    {
      "x": 149,
      "y": 335,
      "size": 1,
      "price": "1011000000000000000000",
      "reserved": "",
      "salt": "0x79c4ce454abf78cebeead44894b68c5872a3999b2bdc4e722d293e1c5918c9f1",
      "assetIds": []
    },
    {
      "x": 149,
      "y": 336,
      "size": 1,
      "price": "4683000000000000000000",
      "reserved": "",
      "salt": "0xc101170d34d04ace684b5bc3c9936f75415ceb878d4c9ea2f7c0775bf7c64069",
      "assetIds": [
        "55464657044963196816950587289035428064568320970692304673817341489687790884865",
        "55464657044963196816950587289035428064568320970692304673817341489687782494208",
        "55464657044963196816950587289035428064568320970692304673817341489687790884866",
        "55464657044963196816950587289035428064568320970692304673817341489687782494209",
        "55464657044963196816950587289035428064568320970692304673817341489687790884864"
      ]
    },
    {
      "x": 149,
      "y": 337,
      "size": 1,
      "price": "4683000000000000000000",
      "reserved": "",
      "salt": "0x1a16fdd0e27814063f060c515df2ef9bf262bb6b595497d31fdfffa473059a23",
      "assetIds": [
        "55464657044963196816950587289035428064568320970692304673817341489687790884865",
        "55464657044963196816950587289035428064568320970692304673817341489687782494208",
        "55464657044963196816950587289035428064568320970692304673817341489687790884866",
        "55464657044963196816950587289035428064568320970692304673817341489687782494209",
        "55464657044963196816950587289035428064568320970692304673817341489687790884864"
      ]
    },
    {
      "x": 149,
      "y": 338,
      "size": 1,
      "price": "4683000000000000000000",
      "reserved": "",
      "salt": "0xf9fe1bb04b96b54b1df0fcff29ffa3307cafcc89b2b3768c52637d6ce110a6de",
      "assetIds": [
        "55464657044963196816950587289035428064568320970692304673817341489687790884865",
        "55464657044963196816950587289035428064568320970692304673817341489687782494208",
        "55464657044963196816950587289035428064568320970692304673817341489687790884866",
        "55464657044963196816950587289035428064568320970692304673817341489687782494209",
        "55464657044963196816950587289035428064568320970692304673817341489687790884864"
      ]
    },
    {
      "x": 149,
      "y": 339,
      "size": 1,
      "price": "4683000000000000000000",
      "reserved": "",
      "salt": "0x3262d6a3f5218bad5c054fd4f5d24c4419b19008142a0abce33699b16421de94",
      "assetIds": [
        "55464657044963196816950587289035428064568320970692304673817341489687790884865",
        "55464657044963196816950587289035428064568320970692304673817341489687782494208",
        "55464657044963196816950587289035428064568320970692304673817341489687790884866",
        "55464657044963196816950587289035428064568320970692304673817341489687782494209",
        "55464657044963196816950587289035428064568320970692304673817341489687790884864"
      ]
    },
    {
      "x": 149,
      "y": 340,
      "size": 1,
      "price": "4683000000000000000000",
      "reserved": "",
      "salt": "0xfa37599aaa7af073a87a34982440c4bec92869a96b3227fff25291ac8a8d2e43",
      "assetIds": [
        "55464657044963196816950587289035428064568320970692304673817341489687790884865",
        "55464657044963196816950587289035428064568320970692304673817341489687782494208",
        "55464657044963196816950587289035428064568320970692304673817341489687790884866",
        "55464657044963196816950587289035428064568320970692304673817341489687782494209",
        "55464657044963196816950587289035428064568320970692304673817341489687790884864"
      ]
    },
    {
      "x": 149,
      "y": 341,
      "size": 1,
      "price": "4683000000000000000000",
      "reserved": "",
      "salt": "0x63b97915b45ab3af81b0601471754de085ba045b012dea9ff33d0ac9b3301d8b",
      "assetIds": [
        "55464657044963196816950587289035428064568320970692304673817341489687790884865",
        "55464657044963196816950587289035428064568320970692304673817341489687782494208",
        "55464657044963196816950587289035428064568320970692304673817341489687790884866",
        "55464657044963196816950587289035428064568320970692304673817341489687782494209",
        "55464657044963196816950587289035428064568320970692304673817341489687790884864"
      ]
    },
    {
      "x": 149,
      "y": 342,
      "size": 1,
      "price": "4683000000000000000000",
      "reserved": "",
      "salt": "0xf142718e6d7cdcef13e798722a7286385dcdc50a538c7f7828fe42c904c8472c",
      "assetIds": [
        "55464657044963196816950587289035428064568320970692304673817341489687790884865",
        "55464657044963196816950587289035428064568320970692304673817341489687782494208",
        "55464657044963196816950587289035428064568320970692304673817341489687790884866",
        "55464657044963196816950587289035428064568320970692304673817341489687782494209",
        "55464657044963196816950587289035428064568320970692304673817341489687790884864"
      ]
    },
    {
      "x": 149,
      "y": 343,
      "size": 1,
      "price": "4683000000000000000000",
      "reserved": "",
      "salt": "0xc9a766a23f36969f023a1a394353ccc244725507c41a563a8fc4cae1c9966078",
      "assetIds": [
        "55464657044963196816950587289035428064568320970692304673817341489687790884865",
        "55464657044963196816950587289035428064568320970692304673817341489687782494208",
        "55464657044963196816950587289035428064568320970692304673817341489687790884866",
        "55464657044963196816950587289035428064568320970692304673817341489687782494209",
        "55464657044963196816950587289035428064568320970692304673817341489687790884864"
      ]
    },
    {
      "x": 149,
      "y": 344,
      "size": 1,
      "price": "1011000000000000000000",
      "reserved": "0x7a9fe22691c811ea339d9b73150e6911a5343dca",
      "salt": "0xd95b7d17d7a812ab399c549846df21dfd569e62eff0617b55229610b152ae4c8",
      "assetIds": []
    },
    {
      "x": 149,
      "y": 345,
      "size": 1,
      "price": "1011000000000000000000",
      "reserved": "",
      "salt": "0x3358cc28552946ed9d89ba5b3640f4268b747c54ed2cb74010f1dee7d9517726",
      "assetIds": []
    },
    {
      "x": 149,
      "y": 346,
      "size": 1,
      "price": "1011000000000000000000",
      "reserved": "0x7a9fe22691c811ea339d9b73150e6911a5343dca",
      "salt": "0x051dfc16c14ad475ad383e02327325002fba5af68bd69a448999cf40b4cfed1b",
      "assetIds": []
    },
    {
      "x": 149,
      "y": 347,
      "size": 1,
      "price": "1011000000000000000000",
      "reserved": "",
      "salt": "0xc5dd8b8437b99a60dd1a31ce499ccd8bd1efe915bbfc360da82caabcb6b15c4d",
      "assetIds": []
    },
    {
      "x": 149,
      "y": 348,
      "size": 1,
      "price": "1011000000000000000000",
      "reserved": "0x7a9fe22691c811ea339d9b73150e6911a5343dca",
      "salt": "0xecdbb5568ae45811a9cde84bb16161d205e771002b2b01b35e82e2148950b76a",
      "assetIds": []
    },
    {
      "x": 149,
      "y": 349,
      "size": 1,
      "price": "1011000000000000000000",
      "reserved": "",
      "salt": "0x1b8f250485e075c55094d80d8478ec16b2c5d7264621a19c34863f58510eba25",
      "assetIds": []
    },
    {
      "x": 149,
      "y": 350,
      "size": 1,
      "price": "1011000000000000000000",
      "reserved": "",
      "salt": "0x5223563a07fcf5826f40ddc0ad50cf64807e25b7e3663624e536d9dbd5b5bf13",
      "assetIds": []
    },
    {
      "x": 149,
      "y": 351,
      "size": 1,
      "price": "1011000000000000000000",
      "reserved": "",
      "salt": "0x5a9121d88b229806047880deddae0358bc9f212b6e75e0f39e716fa294664238",
      "assetIds": []
    },
    {
      "x": 150,
      "y": 322,
      "size": 1,
      "price": "1011000000000000000000",
      "reserved": "",
      "salt": "0xe1dfc2e0b510f57b2d1996ef0e62e354af5e643fd532451bc61b5434b82188ef",
      "assetIds": []
    },
    {
      "x": 150,
      "y": 323,
      "size": 1,
      "price": "1011000000000000000000",
      "reserved": "",
      "salt": "0x4892f8581d3bee72d3af07275396e0546e437a6bcf20e823f7412cc9827eca1b",
      "assetIds": []
    },
    {
      "x": 150,
      "y": 324,
      "size": 1,
      "price": "1011000000000000000000",
      "reserved": "",
      "salt": "0x43b9d33ce453c44f8904e2ee1842a30b6ee3cf175ce9396a0244e04b79e0b2ff",
      "assetIds": []
    },
    {
      "x": 150,
      "y": 325,
      "size": 1,
      "price": "1011000000000000000000",
      "reserved": "",
      "salt": "0x394004be4e37c787e97f264446b7551c92aceb80dc2cf64f05e1db1962251c1e",
      "assetIds": []
    },
    {
      "x": 150,
      "y": 326,
      "size": 1,
      "price": "1011000000000000000000",
      "reserved": "",
      "salt": "0xf4ae7afb902401fd45bcc4ea1831888cc52f172acc525b8ee0929e1a348c1faf",
      "assetIds": []
    },
    {
      "x": 150,
      "y": 327,
      "size": 1,
      "price": "1011000000000000000000",
      "reserved": "",
      "salt": "0x250f35c15bd5165c8ad5e6d1c300f3f437080df680585ddeae2fff212b875e61",
      "assetIds": []
    },
    {
      "x": 150,
      "y": 328,
      "size": 1,
      "price": "1011000000000000000000",
      "reserved": "",
      "salt": "0x05da97bc2f86869378825b280fdeca1bdd40f37db016b38e7041600821bb59cd",
      "assetIds": []
    },
    {
      "x": 150,
      "y": 329,
      "size": 1,
      "price": "1011000000000000000000",
      "reserved": "",
      "salt": "0xbbd6789d78d4fc89e7505c5f425afd904be16d77ec6177375dade4863d9cfc98",
      "assetIds": []
    },
    {
      "x": 150,
      "y": 330,
      "size": 1,
      "price": "1011000000000000000000",
      "reserved": "",
      "salt": "0x5c1b1d863b1402591032235ebbc3f0f53b2b8fc68f26d350546168b2a0d21862",
      "assetIds": []
    },
    {
      "x": 150,
      "y": 331,
      "size": 1,
      "price": "1011000000000000000000",
      "reserved": "",
      "salt": "0xd252b7da01da07e3d60b49531eef1f354fe34ce12c597378b425be971c393632",
      "assetIds": []
    },
    {
      "x": 150,
      "y": 332,
      "size": 1,
      "price": "1011000000000000000000",
      "reserved": "",
      "salt": "0xec4832b881126fbc7780963271cac32fb1daa43d5855f2e89bc9906b3714f948",
      "assetIds": []
    },
    {
      "x": 150,
      "y": 333,
      "size": 1,
      "price": "1011000000000000000000",
      "reserved": "0x7a9fe22691c811ea339d9b73150e6911a5343dca",
      "salt": "0x570688fbeca76cf1c15245ba9f2586ec34ee8cd1d06f65457352245b789ac891",
      "assetIds": []
    },
    {
      "x": 150,
      "y": 334,
      "size": 1,
      "price": "4683000000000000000000",
      "reserved": "",
      "salt": "0xb9cc79e68aa5389e02dfae2fd9804046b3fb63c2f65fee3eb409f9f25c70beaf",
      "assetIds": [
        "55464657044963196816950587289035428064568320970692304673817341489687790884865",
        "55464657044963196816950587289035428064568320970692304673817341489687782494208",
        "55464657044963196816950587289035428064568320970692304673817341489687790884866",
        "55464657044963196816950587289035428064568320970692304673817341489687782494209",
        "55464657044963196816950587289035428064568320970692304673817341489687790884864"
      ]
    },
    {
      "x": 150,
      "y": 335,
      "size": 1,
      "price": "4683000000000000000000",
      "reserved": "",
      "salt": "0xa323d4e64b5d28e95f0f42fcf234c6dcb6e6eecc61a98d9e7d08651b89f59053",
      "assetIds": [
        "55464657044963196816950587289035428064568320970692304673817341489687790884865",
        "55464657044963196816950587289035428064568320970692304673817341489687782494208",
        "55464657044963196816950587289035428064568320970692304673817341489687790884866",
        "55464657044963196816950587289035428064568320970692304673817341489687782494209",
        "55464657044963196816950587289035428064568320970692304673817341489687790884864"
      ]
    },
    {
      "x": 150,
      "y": 342,
      "size": 1,
      "price": "4683000000000000000000",
      "reserved": "",
      "salt": "0x89ccfd404447e9ce76e781785cf975dd336eb09bf835d0eff44a44980e36ec6b",
      "assetIds": [
        "55464657044963196816950587289035428064568320970692304673817341489687790884865",
        "55464657044963196816950587289035428064568320970692304673817341489687782494208",
        "55464657044963196816950587289035428064568320970692304673817341489687790884866",
        "55464657044963196816950587289035428064568320970692304673817341489687782494209",
        "55464657044963196816950587289035428064568320970692304673817341489687790884864"
      ]
    },
    {
      "x": 150,
      "y": 343,
      "size": 1,
      "price": "4683000000000000000000",
      "reserved": "",
      "salt": "0xe4b5c5c517e51a8c1ecc84b309627a3b64a76cb3d3999136fa8c71d944950c15",
      "assetIds": [
        "55464657044963196816950587289035428064568320970692304673817341489687790884865",
        "55464657044963196816950587289035428064568320970692304673817341489687782494208",
        "55464657044963196816950587289035428064568320970692304673817341489687790884866",
        "55464657044963196816950587289035428064568320970692304673817341489687782494209",
        "55464657044963196816950587289035428064568320970692304673817341489687790884864"
      ]
    },
    {
      "x": 150,
      "y": 344,
      "size": 1,
      "price": "1011000000000000000000",
      "reserved": "",
      "salt": "0x1b99f09f1a87f3e6316d30e02df007ee5b1c4dab4f709d57c292fc2bbf5760bf",
      "assetIds": []
    },
    {
      "x": 150,
      "y": 345,
      "size": 1,
      "price": "1011000000000000000000",
      "reserved": "",
      "salt": "0x049ae547880ea92341cc5237b8e97320c451d3588b610b7c4cae807579a03dcf",
      "assetIds": []
    },
    {
      "x": 150,
      "y": 346,
      "size": 1,
      "price": "1011000000000000000000",
      "reserved": "",
      "salt": "0x277d0ee793bcdd138ddad6735c73c93e050246dcae9c6902f641285353d7555b",
      "assetIds": []
    },
    {
      "x": 150,
      "y": 347,
      "size": 1,
      "price": "1011000000000000000000",
      "reserved": "",
      "salt": "0x39434df3926c32acdae13b896ccd8d37776ba9eb0ca2036097b8d400cf5b3858",
      "assetIds": []
    },
    {
      "x": 150,
      "y": 348,
      "size": 1,
      "price": "1011000000000000000000",
      "reserved": "",
      "salt": "0x2e951f70b244031dd2892585e7109a0691dfb9b97248f1389fcaee9546436acb",
      "assetIds": []
    },
    {
      "x": 150,
      "y": 349,
      "size": 1,
      "price": "1011000000000000000000",
      "reserved": "",
      "salt": "0x04f1c4e02be403c35b949af9d7a6f764a108056bbdf32515970e0eef050ed7cd",
      "assetIds": []
    },
    {
      "x": 150,
      "y": 350,
      "size": 1,
      "price": "1011000000000000000000",
      "reserved": "",
      "salt": "0xf0356662481ee9d84d829d2b1c2f0505c2dd0ec69b06512ad328c3ccf3e38135",
      "assetIds": []
    },
    {
      "x": 150,
      "y": 351,
      "size": 1,
      "price": "1011000000000000000000",
      "reserved": "",
      "salt": "0xf8125d20d2ead451eacfdbdece686e36206e39ec21382f99f9ee7bffd509fa43",
      "assetIds": []
    },
    {
      "x": 151,
      "y": 322,
      "size": 1,
      "price": "1011000000000000000000",
      "reserved": "0x7a9fe22691c811ea339d9b73150e6911a5343dca",
      "salt": "0x847d0cf85ae4447c238b38d0c4d082e786551509351f194595daf1744733dcdc",
      "assetIds": []
    },
    {
      "x": 151,
      "y": 323,
      "size": 1,
      "price": "1011000000000000000000",
      "reserved": "",
      "salt": "0xde7c30b694a8558a555a338fc378b4619834b92679e9766afb8d007840d7ca87",
      "assetIds": []
    },
    {
      "x": 151,
      "y": 324,
      "size": 1,
      "price": "1011000000000000000000",
      "reserved": "",
      "salt": "0x42bb2c46d26c7a6987b0a5f2f47f76eb03ff434a3815ca637a536a1a83ae23bc",
      "assetIds": []
    },
    {
      "x": 151,
      "y": 325,
      "size": 1,
      "price": "1011000000000000000000",
      "reserved": "",
      "salt": "0x6bb555822ef9ff88d11a810623ebcad288d819ec46b2b337685d12e97cedd4b0",
      "assetIds": []
    },
    {
      "x": 151,
      "y": 326,
      "size": 1,
      "price": "1011000000000000000000",
      "reserved": "0x7a9fe22691c811ea339d9b73150e6911a5343dca",
      "salt": "0x8c444e482e998e36c8c6a68b5601d44365769baf6dd06094e98437c073364582",
      "assetIds": []
    },
    {
      "x": 151,
      "y": 327,
      "size": 1,
      "price": "1011000000000000000000",
      "reserved": "",
      "salt": "0x200d4037df4319523ea83f8ce7b9903354f7e9caed72ad850ccdd13ea4b46d52",
      "assetIds": []
    },
    {
      "x": 151,
      "y": 328,
      "size": 1,
      "price": "1011000000000000000000",
      "reserved": "",
      "salt": "0xb31d787c5758ebd83e9cfceaa9cda57c6e1fdd34fea425b4140cd3a8b6a60771",
      "assetIds": []
    },
    {
      "x": 151,
      "y": 329,
      "size": 1,
      "price": "1011000000000000000000",
      "reserved": "0x7a9fe22691c811ea339d9b73150e6911a5343dca",
      "salt": "0xd88b3f81ed727f1ef9a980a3aad58532efc11e18131db1ceb39344d5e6935c5f",
      "assetIds": []
    },
    {
      "x": 151,
      "y": 330,
      "size": 1,
      "price": "1011000000000000000000",
      "reserved": "",
      "salt": "0xaa688553e014a00982c671ca547fbda0aeb56440a37533755001a119d5c555b0",
      "assetIds": []
    },
    {
      "x": 151,
      "y": 331,
      "size": 1,
      "price": "1011000000000000000000",
      "reserved": "0x7a9fe22691c811ea339d9b73150e6911a5343dca",
      "salt": "0x8990328c503fed95f74f6baf1f902105e6c50141103674b7f401a9a7316db102",
      "assetIds": []
    },
    {
      "x": 151,
      "y": 332,
      "size": 1,
      "price": "1011000000000000000000",
      "reserved": "",
      "salt": "0x76bfd9787c5f4f807c93d5e23125cf58df3c3c0278fb7b16c46e378dc881a1dd",
      "assetIds": []
    },
    {
      "x": 151,
      "y": 333,
      "size": 1,
      "price": "1011000000000000000000",
      "reserved": "",
      "salt": "0xb842330972ae550b3040833b86c006f5c9488bbeffacd4dd37ecda969dba4626",
      "assetIds": []
    },
    {
      "x": 151,
      "y": 334,
      "size": 1,
      "price": "4683000000000000000000",
      "reserved": "",
      "salt": "0xe443c47fd62ccd94ba38ff10b5d6e3ab0baa94c872dcd905a9da425231fc345a",
      "assetIds": [
        "55464657044963196816950587289035428064568320970692304673817341489687790884865",
        "55464657044963196816950587289035428064568320970692304673817341489687782494208",
        "55464657044963196816950587289035428064568320970692304673817341489687790884866",
        "55464657044963196816950587289035428064568320970692304673817341489687782494209",
        "55464657044963196816950587289035428064568320970692304673817341489687790884864"
      ]
    },
    {
      "x": 151,
      "y": 335,
      "size": 1,
      "price": "4683000000000000000000",
      "reserved": "",
      "salt": "0x2edca3fb2a6c8c13d713e6a9db89515080f45fc25f6371b69f9a0fc918e0d0fb",
      "assetIds": [
        "55464657044963196816950587289035428064568320970692304673817341489687790884865",
        "55464657044963196816950587289035428064568320970692304673817341489687782494208",
        "55464657044963196816950587289035428064568320970692304673817341489687790884866",
        "55464657044963196816950587289035428064568320970692304673817341489687782494209",
        "55464657044963196816950587289035428064568320970692304673817341489687790884864"
      ]
    },
    {
      "x": 151,
      "y": 342,
      "size": 1,
      "price": "4683000000000000000000",
      "reserved": "",
      "salt": "0x0f5352b923d0a7afbcd2880f05468e618f6e697048a810735b78e396951ed964",
      "assetIds": [
        "55464657044963196816950587289035428064568320970692304673817341489687790884865",
        "55464657044963196816950587289035428064568320970692304673817341489687782494208",
        "55464657044963196816950587289035428064568320970692304673817341489687790884866",
        "55464657044963196816950587289035428064568320970692304673817341489687782494209",
        "55464657044963196816950587289035428064568320970692304673817341489687790884864"
      ]
    },
    {
      "x": 151,
      "y": 343,
      "size": 1,
      "price": "4683000000000000000000",
      "reserved": "",
      "salt": "0x825a79a6d92a08fe6f69d7236922a55accd265e2477647e955d24bbcae368081",
      "assetIds": [
        "55464657044963196816950587289035428064568320970692304673817341489687790884865",
        "55464657044963196816950587289035428064568320970692304673817341489687782494208",
        "55464657044963196816950587289035428064568320970692304673817341489687790884866",
        "55464657044963196816950587289035428064568320970692304673817341489687782494209",
        "55464657044963196816950587289035428064568320970692304673817341489687790884864"
      ]
    },
    {
      "x": 151,
      "y": 344,
      "size": 1,
      "price": "1011000000000000000000",
      "reserved": "",
      "salt": "0x2e1266b899edfbb0f9b8cac8117d692ec6f1fef442941cccce93c4d9c9a10c10",
      "assetIds": []
    },
    {
      "x": 151,
      "y": 345,
      "size": 1,
      "price": "1011000000000000000000",
      "reserved": "",
      "salt": "0xc0a86e2b6363fa9b15813c44d51bacf30d29fe65affaa2aa26c5b3825d99b7d2",
      "assetIds": []
    },
    {
      "x": 151,
      "y": 346,
      "size": 1,
      "price": "1011000000000000000000",
      "reserved": "0x7a9fe22691c811ea339d9b73150e6911a5343dca",
      "salt": "0x6a0eca341448c302975cae46378c5c5f34cd878f9c253a98374ac0833794d42f",
      "assetIds": []
    },
    {
      "x": 151,
      "y": 347,
      "size": 1,
      "price": "1011000000000000000000",
      "reserved": "",
      "salt": "0x291f039e90fe39fb66ccd98f733d436926e7a1e4a1721a79934006ca5dab0a75",
      "assetIds": []
    },
    {
      "x": 151,
      "y": 348,
      "size": 1,
      "price": "1011000000000000000000",
      "reserved": "",
      "salt": "0xec90d400c8d0790151b060333903d0b37fbf8dde59c4eaf5044508e94a3c2f29",
      "assetIds": []
    },
    {
      "x": 151,
      "y": 349,
      "size": 1,
      "price": "1011000000000000000000",
      "reserved": "0x7a9fe22691c811ea339d9b73150e6911a5343dca",
      "salt": "0x89c3cd6f41fa3c28ef9e0d7b8f87e16bc96b46885ecdbab47f82f7489d1091c5",
      "assetIds": []
    },
    {
      "x": 151,
      "y": 350,
      "size": 1,
      "price": "1011000000000000000000",
      "reserved": "",
      "salt": "0x5074cb42a85735c026868bbffc7232e20cd44a6ca814e9a5c47d62fd324b0ba9",
      "assetIds": []
    },
    {
      "x": 151,
      "y": 351,
      "size": 1,
      "price": "1011000000000000000000",
      "reserved": "0x7a9fe22691c811ea339d9b73150e6911a5343dca",
      "salt": "0xca90b647680d773afb6fc0ab95338da755a6bf7e329251266ac0beb7e9aac13a",
      "assetIds": []
    },
    {
      "x": 151,
      "y": 352,
      "size": 1,
      "price": "1011000000000000000000",
      "reserved": "",
      "salt": "0xf35f7822f47804a50c3ccdba1c7d57544dbd1b865b66b2a7f8b042f16cea208a",
      "assetIds": []
    },
    {
      "x": 152,
      "y": 322,
      "size": 1,
      "price": "1011000000000000000000",
      "reserved": "",
      "salt": "0x5b5407b036caa7177177d4fbacb78f169e64c59a943c404efef0193dabe2b06c",
      "assetIds": []
    },
    {
      "x": 152,
      "y": 323,
      "size": 1,
      "price": "1011000000000000000000",
      "reserved": "",
      "salt": "0xc97f160a86b575ff7605f6e0d9a551f5337a2c9073baddb9ca5267e2857e460e",
      "assetIds": []
    },
    {
      "x": 152,
      "y": 324,
      "size": 1,
      "price": "1011000000000000000000",
      "reserved": "",
      "salt": "0x092620f2229daacfcf8960c04fbfe3c6b4ffa7102b609fc3d6449c11d2b1c055",
      "assetIds": []
    },
    {
      "x": 152,
      "y": 325,
      "size": 1,
      "price": "1011000000000000000000",
      "reserved": "",
      "salt": "0x20a6ba5416140011e2e52f27dd279db27c62370b69626fbff149e59ed11e5f47",
      "assetIds": []
    },
    {
      "x": 152,
      "y": 326,
      "size": 1,
      "price": "1011000000000000000000",
      "reserved": "",
      "salt": "0xb4505e9151f94427bec7f01b9defac41a9efd83fc5570f2888a3530c1d55f076",
      "assetIds": []
    },
    {
      "x": 152,
      "y": 327,
      "size": 1,
      "price": "1011000000000000000000",
      "reserved": "",
      "salt": "0xacb0451f801600ba596ab16c52a34b802f881d5cc313016b59cdc1f345cda1f3",
      "assetIds": []
    },
    {
      "x": 152,
      "y": 328,
      "size": 1,
      "price": "1011000000000000000000",
      "reserved": "",
      "salt": "0x54caca47a8a030bf164e331bbb52c44fe7998c0c56663ac33e2516adb28b5c66",
      "assetIds": []
    },
    {
      "x": 152,
      "y": 329,
      "size": 1,
      "price": "1011000000000000000000",
      "reserved": "",
      "salt": "0x08fa37464a743c1b1a6f971433ff733ab8d9fd832d50361fb37466cb03553659",
      "assetIds": []
    },
    {
      "x": 152,
      "y": 330,
      "size": 1,
      "price": "1011000000000000000000",
      "reserved": "",
      "salt": "0x83b3b3faf836d5a8fc1e517f10bcef2bcd224a55e81d5ba74718cd78ce0738d3",
      "assetIds": []
    },
    {
      "x": 152,
      "y": 331,
      "size": 1,
      "price": "1011000000000000000000",
      "reserved": "",
      "salt": "0x7523b0b043bebb45c8df90c787e63430ae2681e9c0a6ed6435c1c4bcce2f40ff",
      "assetIds": []
    },
    {
      "x": 152,
      "y": 332,
      "size": 1,
      "price": "1011000000000000000000",
      "reserved": "",
      "salt": "0xf1688291993b8ba0f8e1fb2492f4c732cc307d9c0181080d7952c0c25293dc0c",
      "assetIds": []
    },
    {
      "x": 152,
      "y": 333,
      "size": 1,
      "price": "1011000000000000000000",
      "reserved": "0x7a9fe22691c811ea339d9b73150e6911a5343dca",
      "salt": "0xb17f9a6b187ec94de5a26aa8b804870408c8ef65a1fa88c82c97f8abc1623c3e",
      "assetIds": []
    },
    {
      "x": 152,
      "y": 334,
      "size": 1,
      "price": "4683000000000000000000",
      "reserved": "",
      "salt": "0xd9b9b6af9713f458cab5a6f6bbfdb3d2e5b38dc1aaf24ccdfd6dd5c427d9153a",
      "assetIds": [
        "55464657044963196816950587289035428064568320970692304673817341489687790884865",
        "55464657044963196816950587289035428064568320970692304673817341489687782494208",
        "55464657044963196816950587289035428064568320970692304673817341489687790884866",
        "55464657044963196816950587289035428064568320970692304673817341489687782494209",
        "55464657044963196816950587289035428064568320970692304673817341489687790884864"
      ]
    },
    {
      "x": 152,
      "y": 335,
      "size": 1,
      "price": "4683000000000000000000",
      "reserved": "",
      "salt": "0xeb7eec252c323f8b24a73768893740b4862b8c61fd9ecf6a169206fbdca6cdb8",
      "assetIds": [
        "55464657044963196816950587289035428064568320970692304673817341489687790884865",
        "55464657044963196816950587289035428064568320970692304673817341489687782494208",
        "55464657044963196816950587289035428064568320970692304673817341489687790884866",
        "55464657044963196816950587289035428064568320970692304673817341489687782494209",
        "55464657044963196816950587289035428064568320970692304673817341489687790884864"
      ]
    },
    {
      "x": 152,
      "y": 342,
      "size": 1,
      "price": "4683000000000000000000",
      "reserved": "",
      "salt": "0x7ee1e1f9528b270bc342d9f0cf394e5a7cba2546016d02ea510ab22e0180767b",
      "assetIds": [
        "55464657044963196816950587289035428064568320970692304673817341489687790884865",
        "55464657044963196816950587289035428064568320970692304673817341489687782494208",
        "55464657044963196816950587289035428064568320970692304673817341489687790884866",
        "55464657044963196816950587289035428064568320970692304673817341489687782494209",
        "55464657044963196816950587289035428064568320970692304673817341489687790884864"
      ]
    },
    {
      "x": 152,
      "y": 343,
      "size": 1,
      "price": "4683000000000000000000",
      "reserved": "",
      "salt": "0x72e5eeaa0ddac59bbe94fe5bb9f9dbaf63d0a3b8b53118ad4ddcb31f9ecb86eb",
      "assetIds": [
        "55464657044963196816950587289035428064568320970692304673817341489687790884865",
        "55464657044963196816950587289035428064568320970692304673817341489687782494208",
        "55464657044963196816950587289035428064568320970692304673817341489687790884866",
        "55464657044963196816950587289035428064568320970692304673817341489687782494209",
        "55464657044963196816950587289035428064568320970692304673817341489687790884864"
      ]
    },
    {
      "x": 152,
      "y": 344,
      "size": 1,
      "price": "1011000000000000000000",
      "reserved": "",
      "salt": "0xac4be4e515ec5eaeb149ddb97bdfc6727866e56278104791c0a19d608fe28465",
      "assetIds": []
    },
    {
      "x": 152,
      "y": 345,
      "size": 1,
      "price": "1011000000000000000000",
      "reserved": "",
      "salt": "0x5576b3ed4d73f7348ee724eab0ff4947e400b3bba3aeaf93abfe44517c4b3d68",
      "assetIds": []
    },
    {
      "x": 152,
      "y": 346,
      "size": 1,
      "price": "1011000000000000000000",
      "reserved": "",
      "salt": "0x841ad75a88c96f08d05a79f76e126bbb7036ecddf8a89dc249288f46f19c5056",
      "assetIds": []
    },
    {
      "x": 152,
      "y": 347,
      "size": 1,
      "price": "1011000000000000000000",
      "reserved": "",
      "salt": "0x194ebaa362ec0580e624c2f75616448b7528c8076f5423e3f0fc0c001adcddd0",
      "assetIds": []
    },
    {
      "x": 152,
      "y": 348,
      "size": 1,
      "price": "1011000000000000000000",
      "reserved": "",
      "salt": "0xc7e5d3b266826ee96c9c884305588b95576e5b53a69b6efa15d0398e9649415c",
      "assetIds": []
    },
    {
      "x": 152,
      "y": 349,
      "size": 1,
      "price": "1011000000000000000000",
      "reserved": "",
      "salt": "0x3da83c932f029c7d51cff99a127592049493f0620fe6169508a7eee7859d459e",
      "assetIds": []
    },
    {
      "x": 152,
      "y": 350,
      "size": 1,
      "price": "1011000000000000000000",
      "reserved": "",
      "salt": "0xaf229277bb19f1204d1f1ffc745cabbf75580fe358d528098eced62b71011426",
      "assetIds": []
    },
    {
      "x": 152,
      "y": 351,
      "size": 1,
      "price": "1011000000000000000000",
      "reserved": "",
      "salt": "0xbb044611569a217cb3d32f2e94c39af108d68a6931a6e00da868a195306d12c6",
      "assetIds": []
    },
    {
      "x": 152,
      "y": 352,
      "size": 1,
      "price": "1011000000000000000000",
      "reserved": "",
      "salt": "0x1fec2e29b15a03f9aaeb3326fa530c5a663883c6492b6dab8d5e82f91722411c",
      "assetIds": []
    },
    {
      "x": 153,
      "y": 312,
      "size": 1,
      "price": "1011000000000000000000",
      "reserved": "0x7a9fe22691c811ea339d9b73150e6911a5343dca",
      "salt": "0x22868f0cfeb7d242f2f46d8bafa93eee46f4d0b8254427a2890dc309523a6dd4",
      "assetIds": []
    },
    {
      "x": 153,
      "y": 313,
      "size": 1,
      "price": "1011000000000000000000",
      "reserved": "",
      "salt": "0x3c9e5abbcdbfb329cf26aefe2ccfc7ee3bfc9a8b84e719a5351cc521fa6258aa",
      "assetIds": []
    },
    {
      "x": 153,
      "y": 314,
      "size": 1,
      "price": "1011000000000000000000",
      "reserved": "",
      "salt": "0xe02f7ee0cdc7c0587dc6828f2252d9cd0edea9783beaea173bb08b2794075fba",
      "assetIds": []
    },
    {
      "x": 153,
      "y": 315,
      "size": 1,
      "price": "1011000000000000000000",
      "reserved": "",
      "salt": "0x795b5b4dcf14a4692aefbb627f7408eb8d3ab581f9790d5d1cc7adc01856348c",
      "assetIds": []
    },
    {
      "x": 153,
      "y": 316,
      "size": 1,
      "price": "1011000000000000000000",
      "reserved": "",
      "salt": "0x08a60ca5baefb21a9bcbf0b1dd53d53019734b134954ec8e844fb709dc7aa148",
      "assetIds": []
    },
    {
      "x": 153,
      "y": 317,
      "size": 1,
      "price": "1011000000000000000000",
      "reserved": "",
      "salt": "0x7ae81e1908675035764fa09e52fadbd59dffc29312c543d0f5a2dee3ca0f798b",
      "assetIds": []
    },
    {
      "x": 153,
      "y": 318,
      "size": 1,
      "price": "1011000000000000000000",
      "reserved": "",
      "salt": "0xe9ff56c0697e018a8fa8c15a5c3a7e9aee2d25a43271597ff47776169975ebf0",
      "assetIds": []
    },
    {
      "x": 153,
      "y": 319,
      "size": 1,
      "price": "1011000000000000000000",
      "reserved": "",
      "salt": "0x2a12e6b7e2ce6e80a30b06b567c8073ccf727332c2d27f55ddaae2a1edd2cf27",
      "assetIds": []
    },
    {
      "x": 153,
      "y": 320,
      "size": 1,
      "price": "1011000000000000000000",
      "reserved": "",
      "salt": "0x0cd9b2af24b2fd0f4816edb936bb6b09943ea0183433a5e60841229f992ce46f",
      "assetIds": []
    },
    {
      "x": 153,
      "y": 321,
      "size": 1,
      "price": "1011000000000000000000",
      "reserved": "",
      "salt": "0xdcda27d7478b5a84e2832cfd6775b6a83586aecb20f460833eac19959497257a",
      "assetIds": []
    },
    {
      "x": 153,
      "y": 322,
      "size": 1,
      "price": "1011000000000000000000",
      "reserved": "0x7a9fe22691c811ea339d9b73150e6911a5343dca",
      "salt": "0xf84d350a31f8b6be91e4fbf21a6bb16a8c541deec814ce340b0c22bc5595fda5",
      "assetIds": []
    },
    {
      "x": 153,
      "y": 323,
      "size": 1,
      "price": "1011000000000000000000",
      "reserved": "",
      "salt": "0x3849d1b453de61e27405a088b35fe1528f39001b9cadcd113efe84328423b96a",
      "assetIds": []
    },
    {
      "x": 153,
      "y": 324,
      "size": 1,
      "price": "1011000000000000000000",
      "reserved": "0x7a9fe22691c811ea339d9b73150e6911a5343dca",
      "salt": "0xfc575feab376fd03e68dcef58b7acda4935d6ef05dd88844282e1f6f75280bf8",
      "assetIds": []
    },
    {
      "x": 153,
      "y": 325,
      "size": 1,
      "price": "1011000000000000000000",
      "reserved": "",
      "salt": "0x2d92cc1f8de709de5d1da38aa27b18dff40838fd2769fb0b1ccc1be79cbbc4f9",
      "assetIds": []
    },
    {
      "x": 153,
      "y": 326,
      "size": 1,
      "price": "1011000000000000000000",
      "reserved": "",
      "salt": "0x84c5c380f30ebac323481564ef6b9c65817ea570366597bc5d78d544be922293",
      "assetIds": []
    },
    {
      "x": 153,
      "y": 327,
      "size": 1,
      "price": "1011000000000000000000",
      "reserved": "0x7a9fe22691c811ea339d9b73150e6911a5343dca",
      "salt": "0xbdddb25ad56a05e5fe2045a531b7168bb895b2267bba1d7c5204ea8d382b69cc",
      "assetIds": []
    },
    {
      "x": 153,
      "y": 328,
      "size": 1,
      "price": "1011000000000000000000",
      "reserved": "",
      "salt": "0xc86a6481ac8d5fdec5ed95436130bac4ecfc915b4fcbdba462a4b406a293bbda",
      "assetIds": []
    },
    {
      "x": 153,
      "y": 329,
      "size": 1,
      "price": "1011000000000000000000",
      "reserved": "0x7a9fe22691c811ea339d9b73150e6911a5343dca",
      "salt": "0x4502530a75cfdfc29ce646027694d4b9f26fbc7a62ca8654a32cdea06914edd4",
      "assetIds": []
    },
    {
      "x": 153,
      "y": 330,
      "size": 1,
      "price": "1011000000000000000000",
      "reserved": "",
      "salt": "0xbde4bfc423fd77a36a60b59897223c941fe4d3dbcd311d70d56c181c92c26af9",
      "assetIds": []
    },
    {
      "x": 153,
      "y": 331,
      "size": 1,
      "price": "1011000000000000000000",
      "reserved": "",
      "salt": "0x32d550f51c2266ca8430afa0ef5af1da58bdce3c7cbbc3451799b8504eedaf7f",
      "assetIds": []
    },
    {
      "x": 153,
      "y": 332,
      "size": 1,
      "price": "1011000000000000000000",
      "reserved": "",
      "salt": "0xc3acc1fed4f6cb202a47cb2f32f3633d6bc85e01cd518dd6d7c625d8b1003840",
      "assetIds": []
    },
    {
      "x": 153,
      "y": 333,
      "size": 1,
      "price": "4683000000000000000000",
      "reserved": "",
      "salt": "0x521bee13165f28da483bdb325222eaa53c60baed5e28a4d559236f0abcfd89e7",
      "assetIds": [
        "55464657044963196816950587289035428064568320970692304673817341489687790884865",
        "55464657044963196816950587289035428064568320970692304673817341489687782494208",
        "55464657044963196816950587289035428064568320970692304673817341489687790884866",
        "55464657044963196816950587289035428064568320970692304673817341489687782494209",
        "55464657044963196816950587289035428064568320970692304673817341489687790884864"
      ]
    },
    {
      "x": 153,
      "y": 334,
      "size": 1,
      "price": "4683000000000000000000",
      "reserved": "",
      "salt": "0x0d8693f0df9c1832c4693fa7e880749a9bd49049ac55eaf7d9129c98493bfd36",
      "assetIds": [
        "55464657044963196816950587289035428064568320970692304673817341489687790884865",
        "55464657044963196816950587289035428064568320970692304673817341489687782494208",
        "55464657044963196816950587289035428064568320970692304673817341489687790884866",
        "55464657044963196816950587289035428064568320970692304673817341489687782494209",
        "55464657044963196816950587289035428064568320970692304673817341489687790884864"
      ]
    },
    {
      "x": 153,
      "y": 335,
      "size": 1,
      "price": "4683000000000000000000",
      "reserved": "",
      "salt": "0xbc52ef2230616e77c90cf5165b95322d53bfe5aa737ff559e72c5f7af8af9bd9",
      "assetIds": [
        "55464657044963196816950587289035428064568320970692304673817341489687790884865",
        "55464657044963196816950587289035428064568320970692304673817341489687782494208",
        "55464657044963196816950587289035428064568320970692304673817341489687790884866",
        "55464657044963196816950587289035428064568320970692304673817341489687782494209",
        "55464657044963196816950587289035428064568320970692304673817341489687790884864"
      ]
    },
    {
      "x": 153,
      "y": 342,
      "size": 1,
      "price": "4683000000000000000000",
      "reserved": "",
      "salt": "0x879f634294820a0174f9956413b64e0be6c495ac7a8f563a5740f1b766c4db49",
      "assetIds": [
        "55464657044963196816950587289035428064568320970692304673817341489687790884865",
        "55464657044963196816950587289035428064568320970692304673817341489687782494208",
        "55464657044963196816950587289035428064568320970692304673817341489687790884866",
        "55464657044963196816950587289035428064568320970692304673817341489687782494209",
        "55464657044963196816950587289035428064568320970692304673817341489687790884864"
      ]
    },
    {
      "x": 153,
      "y": 343,
      "size": 1,
      "price": "1011000000000000000000",
      "reserved": "0x7a9fe22691c811ea339d9b73150e6911a5343dca",
      "salt": "0x7d7a970133cd8cea73c4c84b5d2c76d96810596ca628ef252cdb4a8ba647e64f",
      "assetIds": []
    },
    {
      "x": 153,
      "y": 344,
      "size": 1,
      "price": "1011000000000000000000",
      "reserved": "",
      "salt": "0xaf41306020f541e75200cd686fb7e7fa6e052741ca66d5df2d1d4850dbc1f756",
      "assetIds": []
    },
    {
      "x": 153,
      "y": 345,
      "size": 1,
      "price": "1011000000000000000000",
      "reserved": "0x7a9fe22691c811ea339d9b73150e6911a5343dca",
      "salt": "0x927b8cbb3faf11c0d86b650b5a7608a8f5cb925adca3d04c5af744c837beceda",
      "assetIds": []
    },
    {
      "x": 153,
      "y": 346,
      "size": 1,
      "price": "1011000000000000000000",
      "reserved": "",
      "salt": "0xd2548366c396ba9d55f5651efdb61c2a722b9fbbeec7faf27ac483dabfebeed9",
      "assetIds": []
    },
    {
      "x": 153,
      "y": 347,
      "size": 1,
      "price": "1011000000000000000000",
      "reserved": "",
      "salt": "0xd7c241184c4924b3fc8b05b0bb12b198095cf75d556973b060783fb44c9f0641",
      "assetIds": []
    },
    {
      "x": 153,
      "y": 348,
      "size": 1,
      "price": "1011000000000000000000",
      "reserved": "",
      "salt": "0x46788a9cedcec904d745331d61c0d31133f2d03800940a9074b0df4320d9cc81",
      "assetIds": []
    },
    {
      "x": 153,
      "y": 349,
      "size": 1,
      "price": "1011000000000000000000",
      "reserved": "",
      "salt": "0x66c096f2fa065cdccb9a749f96f5dff2bdbdac667679ff80a054a08cf3a2ea2e",
      "assetIds": []
    },
    {
      "x": 153,
      "y": 350,
      "size": 1,
      "price": "1011000000000000000000",
      "reserved": "",
      "salt": "0xdeced78401f90dd34c1954b46ddc42156747c79cf0b62af3837c7673945a73cb",
      "assetIds": []
    },
    {
      "x": 153,
      "y": 351,
      "size": 1,
      "price": "1011000000000000000000",
      "reserved": "",
      "salt": "0xa60e1ffb5dfeb88d3237ce038cd5c9d9714fdf28fe0b903480a1daa171d9434c",
      "assetIds": []
    },
    {
      "x": 153,
      "y": 352,
      "size": 1,
      "price": "1011000000000000000000",
      "reserved": "0x7a9fe22691c811ea339d9b73150e6911a5343dca",
      "salt": "0xca97d77cb33ce0b79355a4e1b4cb7d75d2a59d6abdfc0b95a43e2f1eec3ce011",
      "assetIds": []
    },
    {
      "x": 154,
      "y": 312,
      "size": 1,
      "price": "1011000000000000000000",
      "reserved": "",
      "salt": "0x00109a2106ff48b777036d6ef8cd2c842e8802b48cb0c0a9e81eba5af1be1703",
      "assetIds": []
    },
    {
      "x": 154,
      "y": 313,
      "size": 1,
      "price": "1011000000000000000000",
      "reserved": "",
      "salt": "0x27861fd607cd86d340f4604f0791faf8aa0ad861139787b7830c771066922d35",
      "assetIds": []
    },
    {
      "x": 154,
      "y": 314,
      "size": 1,
      "price": "1011000000000000000000",
      "reserved": "",
      "salt": "0x0b37cbd5fccfde677c914b895696a87a28b1b35065f4b10358f9e68d2fc835e9",
      "assetIds": []
    },
    {
      "x": 154,
      "y": 315,
      "size": 1,
      "price": "1011000000000000000000",
      "reserved": "",
      "salt": "0x290fe18fb19a6206af5650aba219698895e4390b42ae75303d787719a7c007a1",
      "assetIds": []
    },
    {
      "x": 154,
      "y": 316,
      "size": 1,
      "price": "1011000000000000000000",
      "reserved": "",
      "salt": "0x0cbc2e6f0ad102d8eb0bc8598409326eab48778d3a47da88cbcb52e8d69955ed",
      "assetIds": []
    },
    {
      "x": 154,
      "y": 317,
      "size": 1,
      "price": "1011000000000000000000",
      "reserved": "0x7a9fe22691c811ea339d9b73150e6911a5343dca",
      "salt": "0x14cc28cb2358337905bae67224beaca01e0215b74e1fd8e65d55c3c5cbeffe7a",
      "assetIds": []
    },
    {
      "x": 154,
      "y": 318,
      "size": 1,
      "price": "1011000000000000000000",
      "reserved": "",
      "salt": "0xee9c0c11eefe6f196e0a17eb03d5c2bbf6f15c767296c84079ba0c812e191882",
      "assetIds": []
    },
    {
      "x": 154,
      "y": 319,
      "size": 1,
      "price": "1011000000000000000000",
      "reserved": "0x7a9fe22691c811ea339d9b73150e6911a5343dca",
      "salt": "0x2697501a683882d802d5e65eb96994ab72b5bf88f7333e53aa0e31f7600fe8ec",
      "assetIds": []
    },
    {
      "x": 154,
      "y": 320,
      "size": 1,
      "price": "1011000000000000000000",
      "reserved": "",
      "salt": "0x2203bf27626fdd3c8def483c6d3c60f63acfd10ef8e04f120b5cb01b0aaf1312",
      "assetIds": []
    },
    {
      "x": 154,
      "y": 321,
      "size": 1,
      "price": "1011000000000000000000",
      "reserved": "",
      "salt": "0xfdeee5fc97ab93a38e8d8d3763ba32d30a61791a1ff4303c38575e5dcdd4c4df",
      "assetIds": []
    },
    {
      "x": 154,
      "y": 322,
      "size": 1,
      "price": "1011000000000000000000",
      "reserved": "",
      "salt": "0xf22844c8c8710aad39fb5b2076f2c7baf22b48dc197969d9dad452b2e0fa65c6",
      "assetIds": []
    },
    {
      "x": 154,
      "y": 323,
      "size": 1,
      "price": "1011000000000000000000",
      "reserved": "",
      "salt": "0x42bbc4a063a77fa1b367123e1539edcee145f9940071da63c4cd1c0d529e7559",
      "assetIds": []
    },
    {
      "x": 154,
      "y": 324,
      "size": 1,
      "price": "1011000000000000000000",
      "reserved": "",
      "salt": "0x275673f21914970b4a00ff9eccb5fa662aec7ef8f1484a86ba36315e36fd052c",
      "assetIds": []
    },
    {
      "x": 154,
      "y": 325,
      "size": 1,
      "price": "1011000000000000000000",
      "reserved": "",
      "salt": "0xd5317352ae3d14d8578ad8c0486709cc62ffefa0e70e387e7e793dcae5a1c411",
      "assetIds": []
    },
    {
      "x": 154,
      "y": 326,
      "size": 1,
      "price": "1011000000000000000000",
      "reserved": "",
      "salt": "0x99ebeecfc1d696975452f1224995891f74c62ea2f1ea6f2156162ccd872075d3",
      "assetIds": []
    },
    {
      "x": 154,
      "y": 327,
      "size": 1,
      "price": "1011000000000000000000",
      "reserved": "",
      "salt": "0x8c73254eeb4b27e16bb83d3141624525a8aea7a92049b635964e02504f1e5266",
      "assetIds": []
    },
    {
      "x": 154,
      "y": 328,
      "size": 1,
      "price": "1011000000000000000000",
      "reserved": "",
      "salt": "0x421c5b7f8494d7ccf43fc431d13e91efb59d49493d9b6fd1daae61713f1e3147",
      "assetIds": []
    },
    {
      "x": 154,
      "y": 329,
      "size": 1,
      "price": "1011000000000000000000",
      "reserved": "",
      "salt": "0xe5fc2b673a208bfefa469a7139d9efb9ab0a793bbd5cc8ca3ae4b19a273e429e",
      "assetIds": []
    },
    {
      "x": 154,
      "y": 330,
      "size": 1,
      "price": "1011000000000000000000",
      "reserved": "",
      "salt": "0x86ef2e5003e14db688d1af6397d6e884a3064ee957b1dca0f0a730c39c7f03ca",
      "assetIds": []
    },
    {
      "x": 154,
      "y": 331,
      "size": 1,
      "price": "1011000000000000000000",
      "reserved": "0x7a9fe22691c811ea339d9b73150e6911a5343dca",
      "salt": "0x8353971326f2420be89f859b5aef4507bbb5f6b160b7de0f95f45c090d6cf60a",
      "assetIds": []
    },
    {
      "x": 154,
      "y": 332,
      "size": 1,
      "price": "1011000000000000000000",
      "reserved": "",
      "salt": "0xab7d0132e0a9898f9f10c1298186937974db156c4efa67acc53f9a2269a2a785",
      "assetIds": []
    },
    {
      "x": 154,
      "y": 333,
      "size": 1,
      "price": "1011000000000000000000",
      "reserved": "0x7a9fe22691c811ea339d9b73150e6911a5343dca",
      "salt": "0xd4ac3f1883cd024ee2a4afb771e35313ceaa687ccbce024448839a429d9b2764",
      "assetIds": []
    },
    {
      "x": 154,
      "y": 334,
      "size": 1,
      "price": "4683000000000000000000",
      "reserved": "",
      "salt": "0x682fd14e02f8af459d8accbc16c597d29c2730e492d6191033fcac6edecc832c",
      "assetIds": [
        "55464657044963196816950587289035428064568320970692304673817341489687790884865",
        "55464657044963196816950587289035428064568320970692304673817341489687782494208",
        "55464657044963196816950587289035428064568320970692304673817341489687790884866",
        "55464657044963196816950587289035428064568320970692304673817341489687782494209",
        "55464657044963196816950587289035428064568320970692304673817341489687790884864"
      ]
    },
    {
      "x": 154,
      "y": 335,
      "size": 1,
      "price": "4683000000000000000000",
      "reserved": "",
      "salt": "0xef32db8f617615072155c63ef60959482153658a9c0d6c8164042eb22fcd1e2c",
      "assetIds": [
        "55464657044963196816950587289035428064568320970692304673817341489687790884865",
        "55464657044963196816950587289035428064568320970692304673817341489687782494208",
        "55464657044963196816950587289035428064568320970692304673817341489687790884866",
        "55464657044963196816950587289035428064568320970692304673817341489687782494209",
        "55464657044963196816950587289035428064568320970692304673817341489687790884864"
      ]
    },
    {
      "x": 154,
      "y": 342,
      "size": 1,
      "price": "4683000000000000000000",
      "reserved": "",
      "salt": "0x78a8ae9f874c4c6d2e4aeb016fa28ba752e34415ce8736dd4cf3c7d511135f95",
      "assetIds": [
        "55464657044963196816950587289035428064568320970692304673817341489687790884865",
        "55464657044963196816950587289035428064568320970692304673817341489687782494208",
        "55464657044963196816950587289035428064568320970692304673817341489687790884866",
        "55464657044963196816950587289035428064568320970692304673817341489687782494209",
        "55464657044963196816950587289035428064568320970692304673817341489687790884864"
      ]
    },
    {
      "x": 154,
      "y": 343,
      "size": 1,
      "price": "4683000000000000000000",
      "reserved": "",
      "salt": "0xa986983aaa132cb6c694fdb601989d7b9cb59222b90791094c0ec3aa9b8b43a9",
      "assetIds": [
        "55464657044963196816950587289035428064568320970692304673817341489687790884865",
        "55464657044963196816950587289035428064568320970692304673817341489687782494208",
        "55464657044963196816950587289035428064568320970692304673817341489687790884866",
        "55464657044963196816950587289035428064568320970692304673817341489687782494209",
        "55464657044963196816950587289035428064568320970692304673817341489687790884864"
      ]
    },
    {
      "x": 154,
      "y": 344,
      "size": 1,
      "price": "4683000000000000000000",
      "reserved": "",
      "salt": "0xe53387b5582fadeddfb9ce9b8064f144015b4a03afc319759ab2b00409f808c9",
      "assetIds": [
        "55464657044963196816950587289035428064568320970692304673817341489687790884865",
        "55464657044963196816950587289035428064568320970692304673817341489687782494208",
        "55464657044963196816950587289035428064568320970692304673817341489687790884866",
        "55464657044963196816950587289035428064568320970692304673817341489687782494209",
        "55464657044963196816950587289035428064568320970692304673817341489687790884864"
      ]
    },
    {
      "x": 154,
      "y": 345,
      "size": 1,
      "price": "1011000000000000000000",
      "reserved": "0x7a9fe22691c811ea339d9b73150e6911a5343dca",
      "salt": "0x0e33da971532aa0a65381870d243076f6800f5211811f07e1a4fdd3fa183068a",
      "assetIds": []
    },
    {
      "x": 154,
      "y": 346,
      "size": 1,
      "price": "1011000000000000000000",
      "reserved": "0x7a9fe22691c811ea339d9b73150e6911a5343dca",
      "salt": "0xe1e0edc80a177dadda54fe830078c32515a04b79ed424aa78f475fc027e62d89",
      "assetIds": []
    },
    {
      "x": 154,
      "y": 347,
      "size": 1,
      "price": "1011000000000000000000",
      "reserved": "0x7a9fe22691c811ea339d9b73150e6911a5343dca",
      "salt": "0xcc6ac9f77066f44ef02156171d8b0d13216c9629f0c9222aa70739fbe9130ced",
      "assetIds": []
    },
    {
      "x": 154,
      "y": 348,
      "size": 1,
      "price": "1011000000000000000000",
      "reserved": "",
      "salt": "0x4c7f064a367928296d98e9e7ad757baf12dbd3a2765305b0b53b58a0784bec22",
      "assetIds": []
    },
    {
      "x": 154,
      "y": 349,
      "size": 1,
      "price": "1011000000000000000000",
      "reserved": "0x7a9fe22691c811ea339d9b73150e6911a5343dca",
      "salt": "0x237358812bc98dcbb951c596e090a019eba56207edea8fd7448353ba56657365",
      "assetIds": []
    },
    {
      "x": 154,
      "y": 350,
      "size": 1,
      "price": "1011000000000000000000",
      "reserved": "",
      "salt": "0x67ece2de5e04dbed442502e620c2e8a89015f03b16df7aeda8330e0837891afc",
      "assetIds": []
    },
    {
      "x": 154,
      "y": 351,
      "size": 1,
      "price": "1011000000000000000000",
      "reserved": "0x7a9fe22691c811ea339d9b73150e6911a5343dca",
      "salt": "0xc2714d5e5681d462f35815e88c7c5d6a328fcfdb1edd23f6308e05f5fc4696ed",
      "assetIds": []
    },
    {
      "x": 154,
      "y": 352,
      "size": 1,
      "price": "1011000000000000000000",
      "reserved": "",
      "salt": "0x5b6dd126e9719b373f54fab190056b8ab700cc8e55d17487f9f3dcd169b2094f",
      "assetIds": []
    },
    {
      "x": 155,
      "y": 312,
      "size": 1,
      "price": "1011000000000000000000",
      "reserved": "",
      "salt": "0x78d8fc5940cb7b704715f98f9a69a4df9190a33ef5dd55888ed3e9ca0c330bb3",
      "assetIds": []
    },
    {
      "x": 155,
      "y": 313,
      "size": 1,
      "price": "1011000000000000000000",
      "reserved": "",
      "salt": "0x1a74333ce2e300928528b918a5449b5bf641924ea7e976d91674c15ee0be424e",
      "assetIds": []
    },
    {
      "x": 155,
      "y": 314,
      "size": 1,
      "price": "1011000000000000000000",
      "reserved": "",
      "salt": "0x807459f75ba1bc524e0ead1b3eec90fb81c7dadb98a6ead0f0802de641dbf76c",
      "assetIds": []
    },
    {
      "x": 155,
      "y": 315,
      "size": 1,
      "price": "1011000000000000000000",
      "reserved": "",
      "salt": "0x956d298536fcc1e40d2ad393d96c7a37ee2fdd9f3325d2241b9509544eaac6a8",
      "assetIds": []
    },
    {
      "x": 155,
      "y": 316,
      "size": 1,
      "price": "1011000000000000000000",
      "reserved": "",
      "salt": "0x30f6ec439465a531af5bc41db6463129cebbad87259dafa23c50430e6574e15a",
      "assetIds": []
    },
    {
      "x": 155,
      "y": 317,
      "size": 1,
      "price": "1011000000000000000000",
      "reserved": "",
      "salt": "0x19cea97cf61425a7058bd447277d0023748ba7f025da68b5dae56afee6340e3b",
      "assetIds": []
    },
    {
      "x": 155,
      "y": 318,
      "size": 1,
      "price": "1011000000000000000000",
      "reserved": "",
      "salt": "0xa35e9b76bdb0bd6c1cd7b29f8d7879a47d1b5a34ea66d88fe9dcf059b4f47f5e",
      "assetIds": []
    },
    {
      "x": 155,
      "y": 319,
      "size": 1,
      "price": "1011000000000000000000",
      "reserved": "",
      "salt": "0xb25ec6ec2bbf84583fac953431b4bc247bc21e721fbf1d00f6dd5fb8e11d4785",
      "assetIds": []
    },
    {
      "x": 155,
      "y": 320,
      "size": 1,
      "price": "1011000000000000000000",
      "reserved": "",
      "salt": "0x761bee776150b70278c238427088d994a286389cc1de39fe33443b7bb1b28897",
      "assetIds": []
    },
    {
      "x": 155,
      "y": 321,
      "size": 1,
      "price": "1011000000000000000000",
      "reserved": "",
      "salt": "0x35a904ade8c06016881f264d02f84cda863c1eb84004177c0033c0e70a4ab3ff",
      "assetIds": []
    },
    {
      "x": 155,
      "y": 322,
      "size": 1,
      "price": "1011000000000000000000",
      "reserved": "",
      "salt": "0x7aa377c405ce5acbc3733f460821e601d2fa892231563a7a1e32d169e24305a3",
      "assetIds": []
    },
    {
      "x": 155,
      "y": 323,
      "size": 1,
      "price": "1011000000000000000000",
      "reserved": "0x7a9fe22691c811ea339d9b73150e6911a5343dca",
      "salt": "0x49d595bc8c62c2b669468f3592e808d94dc229a568dd97c40f827d791f0390c3",
      "assetIds": []
    },
    {
      "x": 155,
      "y": 324,
      "size": 1,
      "price": "1011000000000000000000",
      "reserved": "",
      "salt": "0x246071366d7863dc59e9d95576e29d9090ba8b977f08cc7c381a9ddb6b6f38de",
      "assetIds": []
    },
    {
      "x": 155,
      "y": 325,
      "size": 1,
      "price": "1011000000000000000000",
      "reserved": "",
      "salt": "0x2d156051d25b8767e06860db2e444bba19f68e9724b195a5409235b597aff5dc",
      "assetIds": []
    },
    {
      "x": 155,
      "y": 326,
      "size": 1,
      "price": "1011000000000000000000",
      "reserved": "",
      "salt": "0x8ded80404f0fb9a875a42a8bd23c47ffd8743ae3de1ccd95fa0b47cb1e6ff25f",
      "assetIds": []
    },
    {
      "x": 155,
      "y": 327,
      "size": 1,
      "price": "1011000000000000000000",
      "reserved": "",
      "salt": "0x08ef3dd0eca7cc5c3071a6ee86a9f26e490e5fef485a953e3181e0933952c8f7",
      "assetIds": []
    },
    {
      "x": 155,
      "y": 328,
      "size": 1,
      "price": "1011000000000000000000",
      "reserved": "",
      "salt": "0xcc8b3507f60248b64a894222007341fc43bcda8b3998832751d7c4027ea677c6",
      "assetIds": []
    },
    {
      "x": 155,
      "y": 329,
      "size": 1,
      "price": "1011000000000000000000",
      "reserved": "",
      "salt": "0xbe0a227aa84f94e9f2f682e17ba5afe9a0231978e88cd263208da24c9844ae89",
      "assetIds": []
    },
    {
      "x": 155,
      "y": 330,
      "size": 1,
      "price": "1011000000000000000000",
      "reserved": "",
      "salt": "0xb4062390583993a3896c135e8a5b5867636b2c417c5f7a9fed29b1268dc9f5e0",
      "assetIds": []
    },
    {
      "x": 155,
      "y": 331,
      "size": 1,
      "price": "1011000000000000000000",
      "reserved": "",
      "salt": "0xc4d752ef666131ff9caf005be26e9b53fe6b2864b677590568d89b71991bdfc2",
      "assetIds": []
    },
    {
      "x": 155,
      "y": 332,
      "size": 1,
      "price": "1011000000000000000000",
      "reserved": "",
      "salt": "0xc6d7355ff84681792910fe7a9048dcf81684315a59c16e0a6950fb7525eb71b0",
      "assetIds": []
    },
    {
      "x": 155,
      "y": 333,
      "size": 1,
      "price": "1011000000000000000000",
      "reserved": "",
      "salt": "0xdb17fde2c8160f82d06ce25e85d866a0f06e447344328e8a696ba7fdf87c3042",
      "assetIds": []
    },
    {
      "x": 155,
      "y": 334,
      "size": 1,
      "price": "4683000000000000000000",
      "reserved": "",
      "salt": "0x0cdd22776e708ecc7f1f5eb7a59cea66ceae41a4c86b7d3c2e80de824a6e30d5",
      "assetIds": [
        "55464657044963196816950587289035428064568320970692304673817341489687790884865",
        "55464657044963196816950587289035428064568320970692304673817341489687782494208",
        "55464657044963196816950587289035428064568320970692304673817341489687790884866",
        "55464657044963196816950587289035428064568320970692304673817341489687782494209",
        "55464657044963196816950587289035428064568320970692304673817341489687790884864"
      ]
    },
    {
      "x": 155,
      "y": 335,
      "size": 1,
      "price": "4683000000000000000000",
      "reserved": "",
      "salt": "0x4a21ef3bab0fc07d50ff07b69d1aae68ad3af8152803e4004417b2cd138738df",
      "assetIds": [
        "55464657044963196816950587289035428064568320970692304673817341489687790884865",
        "55464657044963196816950587289035428064568320970692304673817341489687782494208",
        "55464657044963196816950587289035428064568320970692304673817341489687790884866",
        "55464657044963196816950587289035428064568320970692304673817341489687782494209",
        "55464657044963196816950587289035428064568320970692304673817341489687790884864"
      ]
    },
    {
      "x": 155,
      "y": 342,
      "size": 1,
      "price": "4683000000000000000000",
      "reserved": "",
      "salt": "0xe496b026ba5e2ecf853eee52b49269b35b8d4b1d3cb294035603493baff24b6e",
      "assetIds": [
        "55464657044963196816950587289035428064568320970692304673817341489687790884865",
        "55464657044963196816950587289035428064568320970692304673817341489687782494208",
        "55464657044963196816950587289035428064568320970692304673817341489687790884866",
        "55464657044963196816950587289035428064568320970692304673817341489687782494209",
        "55464657044963196816950587289035428064568320970692304673817341489687790884864"
      ]
    },
    {
      "x": 155,
      "y": 343,
      "size": 1,
      "price": "4683000000000000000000",
      "reserved": "",
      "salt": "0x612ed1bc5129651493375b5faa5ebb323e4b1f811e1717c5d50882d0c7e245fe",
      "assetIds": [
        "55464657044963196816950587289035428064568320970692304673817341489687790884865",
        "55464657044963196816950587289035428064568320970692304673817341489687782494208",
        "55464657044963196816950587289035428064568320970692304673817341489687790884866",
        "55464657044963196816950587289035428064568320970692304673817341489687782494209",
        "55464657044963196816950587289035428064568320970692304673817341489687790884864"
      ]
    },
    {
      "x": 155,
      "y": 344,
      "size": 1,
      "price": "4683000000000000000000",
      "reserved": "",
      "salt": "0x1d4422109ba1ca19e49024a56a1e261b7aace0ccc8937556410ff22d4117e67f",
      "assetIds": [
        "55464657044963196816950587289035428064568320970692304673817341489687790884865",
        "55464657044963196816950587289035428064568320970692304673817341489687782494208",
        "55464657044963196816950587289035428064568320970692304673817341489687790884866",
        "55464657044963196816950587289035428064568320970692304673817341489687782494209",
        "55464657044963196816950587289035428064568320970692304673817341489687790884864"
      ]
    },
    {
      "x": 155,
      "y": 345,
      "size": 1,
      "price": "4683000000000000000000",
      "reserved": "",
      "salt": "0xa46f84ab57ff949c4b67158b22ebe8be0c03232047d1afb17602e4083eb2945d",
      "assetIds": [
        "55464657044963196816950587289035428064568320970692304673817341489687790884865",
        "55464657044963196816950587289035428064568320970692304673817341489687782494208",
        "55464657044963196816950587289035428064568320970692304673817341489687790884866",
        "55464657044963196816950587289035428064568320970692304673817341489687782494209",
        "55464657044963196816950587289035428064568320970692304673817341489687790884864"
      ]
    },
    {
      "x": 155,
      "y": 346,
      "size": 1,
      "price": "4683000000000000000000",
      "reserved": "",
      "salt": "0x5bee4e81b75eb0d0e3c3480dc5a88b0154da29e5ae5f7f8432c91a9a7c80d58a",
      "assetIds": [
        "55464657044963196816950587289035428064568320970692304673817341489687790884865",
        "55464657044963196816950587289035428064568320970692304673817341489687782494208",
        "55464657044963196816950587289035428064568320970692304673817341489687790884866",
        "55464657044963196816950587289035428064568320970692304673817341489687782494209",
        "55464657044963196816950587289035428064568320970692304673817341489687790884864"
      ]
    },
    {
      "x": 155,
      "y": 347,
      "size": 1,
      "price": "4683000000000000000000",
      "reserved": "",
      "salt": "0xce0af4fb400e3308b2dfba272931749cbc40791ee55fbe9e14ad6a766f59bfdf",
      "assetIds": [
        "55464657044963196816950587289035428064568320970692304673817341489687790884865",
        "55464657044963196816950587289035428064568320970692304673817341489687782494208",
        "55464657044963196816950587289035428064568320970692304673817341489687790884866",
        "55464657044963196816950587289035428064568320970692304673817341489687782494209",
        "55464657044963196816950587289035428064568320970692304673817341489687790884864"
      ]
    },
    {
      "x": 155,
      "y": 348,
      "size": 1,
      "price": "1011000000000000000000",
      "reserved": "",
      "salt": "0x2ed258c4155d7e3d84dca52008d4f71108d001c0d55b590744c18a3e76ee4e4a",
      "assetIds": []
    },
    {
      "x": 155,
      "y": 349,
      "size": 1,
      "price": "1011000000000000000000",
      "reserved": "",
      "salt": "0x9a2e1ddd795f4658c4547ed7aac938ec29476e3ec07e827a35c725be1d6ddb87",
      "assetIds": []
    },
    {
      "x": 155,
      "y": 350,
      "size": 1,
      "price": "1011000000000000000000",
      "reserved": "",
      "salt": "0x7c426b0956cdc094c4e3bd84658f3099cced89248d82e4ab499ae3a813887b97",
      "assetIds": []
    },
    {
      "x": 155,
      "y": 351,
      "size": 1,
      "price": "1011000000000000000000",
      "reserved": "",
      "salt": "0x549ed8a20d412df120d34081f97a10a8e77f508a69ddee213a59ae061bad9e31",
      "assetIds": []
    },
    {
      "x": 155,
      "y": 352,
      "size": 1,
      "price": "1011000000000000000000",
      "reserved": "0x7a9fe22691c811ea339d9b73150e6911a5343dca",
      "salt": "0x000c4befbc2f90a1c7de64302da12181aae8ecdc9eb57cdff836dfef9645f887",
      "assetIds": []
    },
    {
      "x": 156,
      "y": 324,
      "size": 1,
      "price": "1011000000000000000000",
      "reserved": "",
      "salt": "0xa17e6afc951a3c0b9a154c819b773c65de703d2f50f2a0f96300e1fe1e2a30ad",
      "assetIds": []
    },
    {
      "x": 156,
      "y": 325,
      "size": 1,
      "price": "1011000000000000000000",
      "reserved": "",
      "salt": "0x9f7a3bb16b3e221b87126572f3103cf69dd314dd4a11cb4c13283de89e372843",
      "assetIds": []
    },
    {
      "x": 156,
      "y": 326,
      "size": 1,
      "price": "1011000000000000000000",
      "reserved": "0x7a9fe22691c811ea339d9b73150e6911a5343dca",
      "salt": "0x5947beac56296bf3aacdbe799ac5324cc826cf60589116009cbcf236b9becfb8",
      "assetIds": []
    },
    {
      "x": 156,
      "y": 327,
      "size": 1,
      "price": "1011000000000000000000",
      "reserved": "",
      "salt": "0x6654cdbb9cbdb9fbac2e83bf76f2d67abb11943a911774c056d5828bd1a06dd5",
      "assetIds": []
    },
    {
      "x": 156,
      "y": 328,
      "size": 1,
      "price": "1011000000000000000000",
      "reserved": "",
      "salt": "0xbb37ada016303dd634b6bc9eb88d0de4623944f424390ad1dd8829ec57cc5816",
      "assetIds": []
    },
    {
      "x": 156,
      "y": 329,
      "size": 1,
      "price": "1011000000000000000000",
      "reserved": "",
      "salt": "0xd2a71b273fad564bb6ebfb5598c1a780ddedbcce052656a6fe3154fd68754686",
      "assetIds": []
    },
    {
      "x": 156,
      "y": 330,
      "size": 1,
      "price": "1011000000000000000000",
      "reserved": "",
      "salt": "0x2d386cb4319cbf251d4a520ef6221d5c6aba94b581bfe61b13fa2d6ec1b0b0fe",
      "assetIds": []
    },
    {
      "x": 156,
      "y": 331,
      "size": 1,
      "price": "1011000000000000000000",
      "reserved": "0x7a9fe22691c811ea339d9b73150e6911a5343dca",
      "salt": "0xfc0b9a86d97486c78e111d754a30302baaa3a9aaaee1db74e35a7577f05f1b8f",
      "assetIds": []
    },
    {
      "x": 156,
      "y": 332,
      "size": 1,
      "price": "1011000000000000000000",
      "reserved": "",
      "salt": "0x1bce2fb1b4b6e7f55e583c212da672b520b3f665ea98bfe505f4d70355af2ab7",
      "assetIds": []
    },
    {
      "x": 156,
      "y": 333,
      "size": 1,
      "price": "1011000000000000000000",
      "reserved": "0x7a9fe22691c811ea339d9b73150e6911a5343dca",
      "salt": "0x4e09d3c2a1c6cd23e6a95a844df6b3df2375293785ca4313b474f64e034e4803",
      "assetIds": []
    },
    {
      "x": 156,
      "y": 334,
      "size": 1,
      "price": "1011000000000000000000",
      "reserved": "",
      "salt": "0x59aff0045412b5542a105353463b2137298819f0b607feac9a9ce5333f7e2bca",
      "assetIds": []
    },
    {
      "x": 156,
      "y": 335,
      "size": 1,
      "price": "4683000000000000000000",
      "reserved": "",
      "salt": "0x0b20fe624b6a72c3721c095913b3d7127e55b65d215df4ec5cf76c04b1bca7b8",
      "assetIds": [
        "55464657044963196816950587289035428064568320970692304673817341489687790884865",
        "55464657044963196816950587289035428064568320970692304673817341489687782494208",
        "55464657044963196816950587289035428064568320970692304673817341489687790884866",
        "55464657044963196816950587289035428064568320970692304673817341489687782494209",
        "55464657044963196816950587289035428064568320970692304673817341489687790884864"
      ]
    },
    {
      "x": 156,
      "y": 348,
      "size": 1,
      "price": "4683000000000000000000",
      "reserved": "",
      "salt": "0xab161d0f30d5c4075a254ab0f71129391e1513beea238cc0a74a9cb6fabd4b3f",
      "assetIds": [
        "55464657044963196816950587289035428064568320970692304673817341489687790884865",
        "55464657044963196816950587289035428064568320970692304673817341489687782494208",
        "55464657044963196816950587289035428064568320970692304673817341489687790884866",
        "55464657044963196816950587289035428064568320970692304673817341489687782494209",
        "55464657044963196816950587289035428064568320970692304673817341489687790884864"
      ]
    },
    {
      "x": 156,
      "y": 349,
      "size": 1,
      "price": "4683000000000000000000",
      "reserved": "",
      "salt": "0xd9908a8bee9924beb80ad50a8b48529882813c4456d560ad0dc5d4e47db25e22",
      "assetIds": [
        "55464657044963196816950587289035428064568320970692304673817341489687790884865",
        "55464657044963196816950587289035428064568320970692304673817341489687782494208",
        "55464657044963196816950587289035428064568320970692304673817341489687790884866",
        "55464657044963196816950587289035428064568320970692304673817341489687782494209",
        "55464657044963196816950587289035428064568320970692304673817341489687790884864"
      ]
    },
    {
      "x": 156,
      "y": 350,
      "size": 1,
      "price": "1011000000000000000000",
      "reserved": "",
      "salt": "0xec2f7767dae1d16567f3c38172082d910b4a452078e9c451a52f4e6e0f967eee",
      "assetIds": []
    },
    {
      "x": 156,
      "y": 351,
      "size": 1,
      "price": "1011000000000000000000",
      "reserved": "",
      "salt": "0x098b450bc8fcdc27988704b9048e1ae9b7403961a8337f3d7025cb7d35973ef2",
      "assetIds": []
    },
    {
      "x": 156,
      "y": 352,
      "size": 1,
      "price": "1011000000000000000000",
      "reserved": "",
      "salt": "0xcef1aec46f32856f0ac2c94e0a3a7f3a59ab527b060d07835cad04a3dd6d56b8",
      "assetIds": []
    },
    {
      "x": 157,
      "y": 324,
      "size": 1,
      "price": "4683000000000000000000",
      "reserved": "",
      "salt": "0x095162bd378f3aa9fdde4796cc66e303d8204cf909457e07a22bf807e4572359",
      "assetIds": [
        "55464657044963196816950587289035428064568320970692304673817341489687790884865",
        "55464657044963196816950587289035428064568320970692304673817341489687782494208",
        "55464657044963196816950587289035428064568320970692304673817341489687790884866",
        "55464657044963196816950587289035428064568320970692304673817341489687782494209",
        "55464657044963196816950587289035428064568320970692304673817341489687790884864"
      ]
    },
    {
      "x": 157,
      "y": 325,
      "size": 1,
      "price": "1011000000000000000000",
      "reserved": "0x7a9fe22691c811ea339d9b73150e6911a5343dca",
      "salt": "0x4fae6325b838c42861e283baa1552bb9032673f81adb109fe12f40047c9e0532",
      "assetIds": []
    },
    {
      "x": 157,
      "y": 326,
      "size": 1,
      "price": "1011000000000000000000",
      "reserved": "",
      "salt": "0xf6805324a92c69ba9320f6081549318a22f88218efedb3ee4cabeeb7e9d5a97b",
      "assetIds": []
    },
    {
      "x": 157,
      "y": 327,
      "size": 1,
      "price": "1011000000000000000000",
      "reserved": "",
      "salt": "0x1a88966a8e3484554de72d3b1c6b72f2b6a0ad10769aad0d1d99fc7e5efaf39a",
      "assetIds": []
    },
    {
      "x": 157,
      "y": 328,
      "size": 1,
      "price": "1011000000000000000000",
      "reserved": "0x7a9fe22691c811ea339d9b73150e6911a5343dca",
      "salt": "0x89b364039b739a9d37ff1431afccc3df5ae5e7efb8fa32676ebb3577e3047e27",
      "assetIds": []
    },
    {
      "x": 157,
      "y": 329,
      "size": 1,
      "price": "1011000000000000000000",
      "reserved": "",
      "salt": "0x192fc29860e575b86ba1a1e647c79f340a89fb8ca8accd93e6aa572a6157076d",
      "assetIds": []
    },
    {
      "x": 157,
      "y": 330,
      "size": 1,
      "price": "1011000000000000000000",
      "reserved": "",
      "salt": "0xc7b89364200544336640eb98f4b5e3dd8644827d4da7a3155dc1d53b0b1e853a",
      "assetIds": []
    },
    {
      "x": 157,
      "y": 331,
      "size": 1,
      "price": "1011000000000000000000",
      "reserved": "",
      "salt": "0x79ad818beb66a45c7db47b2fc9f86d9371a2b8273560a96fc18b6d99c30b5ce0",
      "assetIds": []
    },
    {
      "x": 157,
      "y": 332,
      "size": 1,
      "price": "1011000000000000000000",
      "reserved": "",
      "salt": "0x0612e7907b73f3d70566ecd50951d1e2ad214b6aeb877bdc71b14935972c265e",
      "assetIds": []
    },
    {
      "x": 157,
      "y": 333,
      "size": 1,
      "price": "1011000000000000000000",
      "reserved": "",
      "salt": "0xe333d8de830951129d5cc92fe7a45c94d14bf23f0e58fdb7de03a725da498416",
      "assetIds": []
    },
    {
      "x": 157,
      "y": 334,
      "size": 1,
      "price": "1011000000000000000000",
      "reserved": "",
      "salt": "0xb8344146d8a7dc2c7c3bbe8e0aed53966c690dcafdf7623b77b96626f69a07fb",
      "assetIds": []
    },
    {
      "x": 157,
      "y": 335,
      "size": 1,
      "price": "4683000000000000000000",
      "reserved": "",
      "salt": "0xddcd353cbafaccf35daca5f38ab56885fed13da672a5ee94dab431f7ec942bd5",
      "assetIds": [
        "55464657044963196816950587289035428064568320970692304673817341489687790884865",
        "55464657044963196816950587289035428064568320970692304673817341489687782494208",
        "55464657044963196816950587289035428064568320970692304673817341489687790884866",
        "55464657044963196816950587289035428064568320970692304673817341489687782494209",
        "55464657044963196816950587289035428064568320970692304673817341489687790884864"
      ]
    },
    {
      "x": 157,
      "y": 348,
      "size": 1,
      "price": "4683000000000000000000",
      "reserved": "",
      "salt": "0xa49e00f6ead9b82a08e4a46fd18e43190ef45a7f4d36b94205fd196f0169b2b1",
      "assetIds": [
        "55464657044963196816950587289035428064568320970692304673817341489687790884865",
        "55464657044963196816950587289035428064568320970692304673817341489687782494208",
        "55464657044963196816950587289035428064568320970692304673817341489687790884866",
        "55464657044963196816950587289035428064568320970692304673817341489687782494209",
        "55464657044963196816950587289035428064568320970692304673817341489687790884864"
      ]
    },
    {
      "x": 157,
      "y": 349,
      "size": 1,
      "price": "1011000000000000000000",
      "reserved": "0x7a9fe22691c811ea339d9b73150e6911a5343dca",
      "salt": "0x700e1584220151b89bc01095096fb3d41f299bb07aed3b2804e7f0c24743a4ed",
      "assetIds": []
    },
    {
      "x": 157,
      "y": 350,
      "size": 1,
      "price": "1011000000000000000000",
      "reserved": "",
      "salt": "0x6baac137837e1e5fbd04d6e45f3ea298ded4508bfcd37621081c4014df5684dd",
      "assetIds": []
    },
    {
      "x": 157,
      "y": 351,
      "size": 1,
      "price": "1011000000000000000000",
      "reserved": "0x7a9fe22691c811ea339d9b73150e6911a5343dca",
      "salt": "0xd897a95cc3a9348abb7ba4f6047baf9ae6b3086a6e8d7031c0885d033f30c6c2",
      "assetIds": []
    },
    {
      "x": 157,
      "y": 352,
      "size": 1,
      "price": "1011000000000000000000",
      "reserved": "",
      "salt": "0x05addbaaf24984ee54204e747b92fb89413bfe081f928b4e79392bcfe7845b98",
      "assetIds": []
    },
    {
      "x": 158,
      "y": 324,
      "size": 1,
      "price": "4683000000000000000000",
      "reserved": "",
      "salt": "0xc66895278477b9ebce46de815b4a7e1ab5e5bcb2aa062c3042b9bfd64e0e14e5",
      "assetIds": [
        "55464657044963196816950587289035428064568320970692304673817341489687790884865",
        "55464657044963196816950587289035428064568320970692304673817341489687782494208",
        "55464657044963196816950587289035428064568320970692304673817341489687790884866",
        "55464657044963196816950587289035428064568320970692304673817341489687782494209",
        "55464657044963196816950587289035428064568320970692304673817341489687790884864"
      ]
    },
    {
      "x": 158,
      "y": 325,
      "size": 1,
      "price": "1011000000000000000000",
      "reserved": "",
      "salt": "0x5263165a9419ade5890ea775707184aa3367c0a4ebb81c8ba21f96aabbb81238",
      "assetIds": []
    },
    {
      "x": 158,
      "y": 326,
      "size": 1,
      "price": "1011000000000000000000",
      "reserved": "",
      "salt": "0x85e18d3529ca0bad783870b4db46fcdd7cb0a41561c7b346a50aa815b1c43745",
      "assetIds": []
    },
    {
      "x": 158,
      "y": 327,
      "size": 1,
      "price": "1011000000000000000000",
      "reserved": "",
      "salt": "0xd7baf52c1fd74e88f24298df302bf92de9f6290b54543a970a10267b1f810a89",
      "assetIds": []
    },
    {
      "x": 158,
      "y": 328,
      "size": 1,
      "price": "1011000000000000000000",
      "reserved": "",
      "salt": "0x21bc749d9138d0ac1aa61b6aea7de8324a72545ff72f6a6e4540a2b49cde52d6",
      "assetIds": []
    },
    {
      "x": 158,
      "y": 329,
      "size": 1,
      "price": "1011000000000000000000",
      "reserved": "",
      "salt": "0xac184e87d99e8d09d5f4031853e5d969cce75021fe38e9c5ce2cfffbd045525c",
      "assetIds": []
    },
    {
      "x": 158,
      "y": 330,
      "size": 1,
      "price": "1011000000000000000000",
      "reserved": "",
      "salt": "0xee32805c63525031d2247c278b4e85bf6ae113f9b5c73986f054a90298960ed3",
      "assetIds": []
    },
    {
      "x": 158,
      "y": 331,
      "size": 1,
      "price": "1011000000000000000000",
      "reserved": "",
      "salt": "0xb051a95388ec0d109c08d1fe0ceb97964c07dcbc1d8fbb07deee0ac483f9f9c1",
      "assetIds": []
    },
    {
      "x": 158,
      "y": 332,
      "size": 1,
      "price": "1011000000000000000000",
      "reserved": "",
      "salt": "0x8efc08ce6b7967e48e3a2bb6f850e05b17d8055179f2d5168931322797c065c0",
      "assetIds": []
    },
    {
      "x": 158,
      "y": 333,
      "size": 1,
      "price": "1011000000000000000000",
      "reserved": "0x7a9fe22691c811ea339d9b73150e6911a5343dca",
      "salt": "0xef5507dbee5b5f43d37a667e8d59a1750fb7d48ac7dfd49e2bafa58032bd5b6f",
      "assetIds": []
    },
    {
      "x": 158,
      "y": 334,
      "size": 1,
      "price": "1011000000000000000000",
      "reserved": "0x7a9fe22691c811ea339d9b73150e6911a5343dca",
      "salt": "0x9138770014dad38a9646ce69d6cf0d0431016a3a131a63dfa9d454eef8ace20c",
      "assetIds": []
    },
    {
      "x": 158,
      "y": 335,
      "size": 1,
      "price": "4683000000000000000000",
      "reserved": "",
      "salt": "0x9d038b612fa12767fe87f9c0c98f90ce7df5d136ec1fcc45119b0c310c2cc30d",
      "assetIds": [
        "55464657044963196816950587289035428064568320970692304673817341489687790884865",
        "55464657044963196816950587289035428064568320970692304673817341489687782494208",
        "55464657044963196816950587289035428064568320970692304673817341489687790884866",
        "55464657044963196816950587289035428064568320970692304673817341489687782494209",
        "55464657044963196816950587289035428064568320970692304673817341489687790884864"
      ]
    },
    {
      "x": 158,
      "y": 348,
      "size": 1,
      "price": "4683000000000000000000",
      "reserved": "",
      "salt": "0xee5eb99d433a82f3b3cb75a8249d37710021f624dedb27f37818a4a12d86f8cc",
      "assetIds": [
        "55464657044963196816950587289035428064568320970692304673817341489687790884865",
        "55464657044963196816950587289035428064568320970692304673817341489687782494208",
        "55464657044963196816950587289035428064568320970692304673817341489687790884866",
        "55464657044963196816950587289035428064568320970692304673817341489687782494209",
        "55464657044963196816950587289035428064568320970692304673817341489687790884864"
      ]
    },
    {
      "x": 158,
      "y": 349,
      "size": 1,
      "price": "4683000000000000000000",
      "reserved": "",
      "salt": "0xbad4af02ddca1327dbba1bbb3064e64492c19861fc757cabf8338619f0c10e9d",
      "assetIds": [
        "55464657044963196816950587289035428064568320970692304673817341489687790884865",
        "55464657044963196816950587289035428064568320970692304673817341489687782494208",
        "55464657044963196816950587289035428064568320970692304673817341489687790884866",
        "55464657044963196816950587289035428064568320970692304673817341489687782494209",
        "55464657044963196816950587289035428064568320970692304673817341489687790884864"
      ]
    },
    {
      "x": 158,
      "y": 350,
      "size": 1,
      "price": "1011000000000000000000",
      "reserved": "",
      "salt": "0x03456934bd9019a7c86f7bca69f10da2e7cd44d0a2deb41337491a892b5e7a09",
      "assetIds": []
    },
    {
      "x": 158,
      "y": 351,
      "size": 1,
      "price": "1011000000000000000000",
      "reserved": "",
      "salt": "0xe8a500fdb43d12ca5eab985e236b1279c02a52dd815973b83a47b0adf7285eb6",
      "assetIds": []
    },
    {
      "x": 158,
      "y": 352,
      "size": 1,
      "price": "1011000000000000000000",
      "reserved": "",
      "salt": "0xd24b3391b0906860b283695f6c9350041784143813315a433d4c60f5654c6b8d",
      "assetIds": []
    },
    {
      "x": 159,
      "y": 324,
      "size": 1,
      "price": "4683000000000000000000",
      "reserved": "",
      "salt": "0xd53b51bab1b1989e742f756efd66a447fc9d27adf135fa3cc068865ddd9e18ff",
      "assetIds": [
        "55464657044963196816950587289035428064568320970692304673817341489687790884865",
        "55464657044963196816950587289035428064568320970692304673817341489687782494208",
        "55464657044963196816950587289035428064568320970692304673817341489687790884866",
        "55464657044963196816950587289035428064568320970692304673817341489687782494209",
        "55464657044963196816950587289035428064568320970692304673817341489687790884864"
      ]
    },
    {
      "x": 159,
      "y": 325,
      "size": 1,
      "price": "1011000000000000000000",
      "reserved": "",
      "salt": "0xfc8c7585c743049fab13ee63987b129a3091c0aa8bbbd60b91085fd86ed67c4d",
      "assetIds": []
    },
    {
      "x": 159,
      "y": 326,
      "size": 1,
      "price": "1011000000000000000000",
      "reserved": "",
      "salt": "0x35f61c838f7fa89de5dd9bff8253f1886045fff10e6d9c1fbd66f1a8f8e589ed",
      "assetIds": []
    },
    {
      "x": 159,
      "y": 327,
      "size": 1,
      "price": "1011000000000000000000",
      "reserved": "",
      "salt": "0x1be64b305459cd03e28979716bbd9993ff5dc99d76dafe1437508bb81e5693b5",
      "assetIds": []
    },
    {
      "x": 159,
      "y": 328,
      "size": 1,
      "price": "1011000000000000000000",
      "reserved": "0x7a9fe22691c811ea339d9b73150e6911a5343dca",
      "salt": "0x967de06d747177fa288599782741134ab864325c8925eebba3e152c72bfc4c74",
      "assetIds": []
    },
    {
      "x": 159,
      "y": 329,
      "size": 1,
      "price": "1011000000000000000000",
      "reserved": "",
      "salt": "0x4402325f64fc89efd69d2f844d407d1dbef9141bdcea7352e9e783bd504cf231",
      "assetIds": []
    },
    {
      "x": 159,
      "y": 330,
      "size": 1,
      "price": "1011000000000000000000",
      "reserved": "",
      "salt": "0x08a8f7edb2674e2af3adde1933baf00361846bd3413c29209e13f13d45734187",
      "assetIds": []
    },
    {
      "x": 159,
      "y": 331,
      "size": 1,
      "price": "1011000000000000000000",
      "reserved": "",
      "salt": "0x12958a40faf6d2043e0da9feccc5b575395bd1e2dbabea27eaa417dec1f215b8",
      "assetIds": []
    },
    {
      "x": 159,
      "y": 332,
      "size": 1,
      "price": "1011000000000000000000",
      "reserved": "",
      "salt": "0x41940dbeb7edef4b44339ed5986190427466717d16289f49afd1866848398366",
      "assetIds": []
    },
    {
      "x": 159,
      "y": 333,
      "size": 1,
      "price": "1011000000000000000000",
      "reserved": "",
      "salt": "0x86ed0de8c7c44b4672774a6faa931c4769bf261c052ed9f408a7a24d3e22a993",
      "assetIds": []
    },
    {
      "x": 159,
      "y": 334,
      "size": 1,
      "price": "1011000000000000000000",
      "reserved": "",
      "salt": "0x8bb8c7f0a3ed2f40dfa4d38626799e24e725aa3938ace9e2ca446aab53378d5f",
      "assetIds": []
    },
    {
      "x": 159,
      "y": 335,
      "size": 1,
      "price": "4683000000000000000000",
      "reserved": "",
      "salt": "0xdea8e643a5b94861e06395d814e74e3ea93889386dd0e24e51e58caa66e0ed14",
      "assetIds": [
        "55464657044963196816950587289035428064568320970692304673817341489687790884865",
        "55464657044963196816950587289035428064568320970692304673817341489687782494208",
        "55464657044963196816950587289035428064568320970692304673817341489687790884866",
        "55464657044963196816950587289035428064568320970692304673817341489687782494209",
        "55464657044963196816950587289035428064568320970692304673817341489687790884864"
      ]
    },
    {
      "x": 159,
      "y": 348,
      "size": 1,
      "price": "4683000000000000000000",
      "reserved": "",
      "salt": "0xf5f054cde0edc922f43fc1fd52a6006650facd18c01cc3a3dfcd1f064d4523c6",
      "assetIds": [
        "55464657044963196816950587289035428064568320970692304673817341489687790884865",
        "55464657044963196816950587289035428064568320970692304673817341489687782494208",
        "55464657044963196816950587289035428064568320970692304673817341489687790884866",
        "55464657044963196816950587289035428064568320970692304673817341489687782494209",
        "55464657044963196816950587289035428064568320970692304673817341489687790884864"
      ]
    },
    {
      "x": 159,
      "y": 349,
      "size": 1,
      "price": "1011000000000000000000",
      "reserved": "",
      "salt": "0xc3e71b580ae28d8e357c8342d0c2efbdcf10a1142b468dd4b13d3cfc1abafd47",
      "assetIds": []
    },
    {
      "x": 159,
      "y": 350,
      "size": 1,
      "price": "1011000000000000000000",
      "reserved": "",
      "salt": "0x3467e1ce5347f073446dba3f22036881877b37254346d5998ab518a66298462d",
      "assetIds": []
    },
    {
      "x": 159,
      "y": 351,
      "size": 1,
      "price": "1011000000000000000000",
      "reserved": "",
      "salt": "0x2071198ddad1ed0d0e8c03af3a390c2bf9b5efd8ffff48e2b5c8082bc779cf7e",
      "assetIds": []
    },
    {
      "x": 159,
      "y": 352,
      "size": 1,
      "price": "1011000000000000000000",
      "reserved": "0x7a9fe22691c811ea339d9b73150e6911a5343dca",
      "salt": "0x46551faac4644bd0b6408476a7c470fa6077863874970fed3d3c6975153171c3",
      "assetIds": []
    },
    {
      "x": 160,
      "y": 324,
      "size": 1,
      "price": "4683000000000000000000",
      "reserved": "",
      "salt": "0x198de2f19b0974b6a34c63e7222f497be151a16375e371ac779a1d11561929d9",
      "assetIds": [
        "55464657044963196816950587289035428064568320970692304673817341489687790884865",
        "55464657044963196816950587289035428064568320970692304673817341489687782494208",
        "55464657044963196816950587289035428064568320970692304673817341489687790884866",
        "55464657044963196816950587289035428064568320970692304673817341489687782494209",
        "55464657044963196816950587289035428064568320970692304673817341489687790884864"
      ]
    },
    {
      "x": 160,
      "y": 325,
      "size": 1,
      "price": "4683000000000000000000",
      "reserved": "",
      "salt": "0x328017b90f906ad139c18ba7a94c69dddd299b3172c53ea9a28588c9cc8e18f3",
      "assetIds": [
        "55464657044963196816950587289035428064568320970692304673817341489687790884865",
        "55464657044963196816950587289035428064568320970692304673817341489687782494208",
        "55464657044963196816950587289035428064568320970692304673817341489687790884866",
        "55464657044963196816950587289035428064568320970692304673817341489687782494209",
        "55464657044963196816950587289035428064568320970692304673817341489687790884864"
      ]
    },
    {
      "x": 160,
      "y": 326,
      "size": 1,
      "price": "1011000000000000000000",
      "reserved": "",
      "salt": "0x5e99065b445c12c1501fe683a6628467d3e31ccab8b337d69c87291abd8c1b6b",
      "assetIds": []
    },
    {
      "x": 160,
      "y": 327,
      "size": 1,
      "price": "1011000000000000000000",
      "reserved": "0x7a9fe22691c811ea339d9b73150e6911a5343dca",
      "salt": "0xd889a9b320b4ee48f1c80d1aef1c5c94609dd87e0600e1c379ece9dd49e4d0cb",
      "assetIds": []
    },
    {
      "x": 160,
      "y": 328,
      "size": 1,
      "price": "1011000000000000000000",
      "reserved": "",
      "salt": "0x836794e96eba3d1d5be7c17abd39e26d90aaf415e1fe8d032abd867328ed78c5",
      "assetIds": []
    },
    {
      "x": 160,
      "y": 329,
      "size": 1,
      "price": "1011000000000000000000",
      "reserved": "",
      "salt": "0x0c2f0705aba5cc4f9047cd08b21ef5de415324d480efa86f7d8e5d6d407f72bd",
      "assetIds": []
    },
    {
      "x": 160,
      "y": 330,
      "size": 1,
      "price": "1011000000000000000000",
      "reserved": "",
      "salt": "0x7ac2654c968e005b2fe872759a9b51ed39e3ba142f842cb800361541ecab18a5",
      "assetIds": []
    },
    {
      "x": 160,
      "y": 331,
      "size": 1,
      "price": "1011000000000000000000",
      "reserved": "0x7a9fe22691c811ea339d9b73150e6911a5343dca",
      "salt": "0x6f25dd06c1172ee2cb1b9f216bcd87fc522b3ed653c68a8f0880a1d3d5eef6cf",
      "assetIds": []
    },
    {
      "x": 160,
      "y": 332,
      "size": 1,
      "price": "1011000000000000000000",
      "reserved": "",
      "salt": "0xaf90ef44813174f145eafce122770111b07b9685c927acb8900e8888e0fe21e3",
      "assetIds": []
    },
    {
      "x": 160,
      "y": 333,
      "size": 1,
      "price": "1011000000000000000000",
      "reserved": "",
      "salt": "0x25fcdd73752f3f9af56f4641d8cdb964acb0d80d370f855859b6746959db6cae",
      "assetIds": []
    },
    {
      "x": 160,
      "y": 334,
      "size": 1,
      "price": "1011000000000000000000",
      "reserved": "",
      "salt": "0x757219099f71d95c7f32d9b11e15933095311a084ddd3f24ecefd2a55f8b715a",
      "assetIds": []
    },
    {
      "x": 160,
      "y": 335,
      "size": 1,
      "price": "4683000000000000000000",
      "reserved": "",
      "salt": "0x87af5a9eb48f5e18b5f8618423f925721619afd96a479b1c5b47883b08300b3a",
      "assetIds": [
        "55464657044963196816950587289035428064568320970692304673817341489687790884865",
        "55464657044963196816950587289035428064568320970692304673817341489687782494208",
        "55464657044963196816950587289035428064568320970692304673817341489687790884866",
        "55464657044963196816950587289035428064568320970692304673817341489687782494209",
        "55464657044963196816950587289035428064568320970692304673817341489687790884864"
      ]
    },
    {
      "x": 160,
      "y": 348,
      "size": 1,
      "price": "4683000000000000000000",
      "reserved": "",
      "salt": "0x1b842bc6f50e96ebb7c488619ccfb0642ec0c933a1643167ad54bc3df7c81fff",
      "assetIds": [
        "55464657044963196816950587289035428064568320970692304673817341489687790884865",
        "55464657044963196816950587289035428064568320970692304673817341489687782494208",
        "55464657044963196816950587289035428064568320970692304673817341489687790884866",
        "55464657044963196816950587289035428064568320970692304673817341489687782494209",
        "55464657044963196816950587289035428064568320970692304673817341489687790884864"
      ]
    },
    {
      "x": 160,
      "y": 349,
      "size": 1,
      "price": "1011000000000000000000",
      "reserved": "",
      "salt": "0xf07b3d6836686bd99f42314582c73320c8c4f70347150368a110369ad1a71bb5",
      "assetIds": []
    },
    {
      "x": 160,
      "y": 350,
      "size": 1,
      "price": "1011000000000000000000",
      "reserved": "0x7a9fe22691c811ea339d9b73150e6911a5343dca",
      "salt": "0xb190ed73102d4eadd17b29ec4ad92642d09243010ee48281eb080ecb555fec4e",
      "assetIds": []
    },
    {
      "x": 160,
      "y": 351,
      "size": 1,
      "price": "1011000000000000000000",
      "reserved": "",
      "salt": "0xf20877a751aa1df9b5eca5baac6037d191a9bdbf13e66a2b13b6c4039abd05d5",
      "assetIds": []
    },
    {
      "x": 160,
      "y": 352,
      "size": 1,
      "price": "1011000000000000000000",
      "reserved": "0x7a9fe22691c811ea339d9b73150e6911a5343dca",
      "salt": "0x5735999d61192baf807344eb52dbceb95f27f5f633a786f6362e2c7564a8a29a",
      "assetIds": []
    },
    {
      "x": 161,
      "y": 324,
      "size": 1,
      "price": "4683000000000000000000",
      "reserved": "",
      "salt": "0x01239800a000f9b85ebba6fbb55e7b7581012f7f3fd67ad0e674e532874f5587",
      "assetIds": [
        "55464657044963196816950587289035428064568320970692304673817341489687790884865",
        "55464657044963196816950587289035428064568320970692304673817341489687782494208",
        "55464657044963196816950587289035428064568320970692304673817341489687790884866",
        "55464657044963196816950587289035428064568320970692304673817341489687782494209",
        "55464657044963196816950587289035428064568320970692304673817341489687790884864"
      ]
    },
    {
      "x": 161,
      "y": 325,
      "size": 1,
      "price": "4683000000000000000000",
      "reserved": "",
      "salt": "0xc1da67537fcac701038dce8687d578a5e2b5b26840a96350b1fef7e51b063575",
      "assetIds": [
        "55464657044963196816950587289035428064568320970692304673817341489687790884865",
        "55464657044963196816950587289035428064568320970692304673817341489687782494208",
        "55464657044963196816950587289035428064568320970692304673817341489687790884866",
        "55464657044963196816950587289035428064568320970692304673817341489687782494209",
        "55464657044963196816950587289035428064568320970692304673817341489687790884864"
      ]
    },
    {
      "x": 161,
      "y": 326,
      "size": 1,
      "price": "1011000000000000000000",
      "reserved": "",
      "salt": "0xeb20ff3e07e1033f30a5ee38d93b2adbe6d1f7c1ad8400d8e2be72cceccc21aa",
      "assetIds": []
    },
    {
      "x": 161,
      "y": 327,
      "size": 1,
      "price": "1011000000000000000000",
      "reserved": "",
      "salt": "0x85fcf5fa5624369fcb37a20d0e370fd72149976de3f8246f1ea18d00d1de4ab4",
      "assetIds": []
    },
    {
      "x": 161,
      "y": 328,
      "size": 1,
      "price": "1011000000000000000000",
      "reserved": "0x7a9fe22691c811ea339d9b73150e6911a5343dca",
      "salt": "0x94f1bc8fd7e810c6855878eb5acf8533bd47769b686e55aff3fb195f8ec36770",
      "assetIds": []
    },
    {
      "x": 161,
      "y": 329,
      "size": 1,
      "price": "1011000000000000000000",
      "reserved": "",
      "salt": "0x3c0d9df1e2e852525e19ba72f6a2b4526181c5f50a77e6e7081308859f66851e",
      "assetIds": []
    },
    {
      "x": 161,
      "y": 330,
      "size": 1,
      "price": "1011000000000000000000",
      "reserved": "",
      "salt": "0xd1da6d00866917fa75fd5f08627f2ecbd46ecb8d810fe695bcf1a785084a6471",
      "assetIds": []
    },
    {
      "x": 161,
      "y": 331,
      "size": 1,
      "price": "1011000000000000000000",
      "reserved": "",
      "salt": "0x03e09a7304766ca26bbc7b7a4accb98f1e837e45c5f5899a6f756bd591b1d3e4",
      "assetIds": []
    },
    {
      "x": 161,
      "y": 332,
      "size": 1,
      "price": "1011000000000000000000",
      "reserved": "",
      "salt": "0x94e34a08a56b550fab76ca219843154b36130aefce4239ae694f6200a864aaa2",
      "assetIds": []
    },
    {
      "x": 161,
      "y": 333,
      "size": 1,
      "price": "1011000000000000000000",
      "reserved": "",
      "salt": "0xea840e2817fa1193e192434d83a1b6f4208c821833db6e17121a317f32ae5f3b",
      "assetIds": []
    },
    {
      "x": 161,
      "y": 334,
      "size": 1,
      "price": "1011000000000000000000",
      "reserved": "",
      "salt": "0x9dd6e2569e94c3f1938abb8f129422c0c4c61ae83aab05f3d82a4e19ae91e8d4",
      "assetIds": []
    },
    {
      "x": 161,
      "y": 335,
      "size": 1,
      "price": "4683000000000000000000",
      "reserved": "",
      "salt": "0xa6309a571ad46c5d2ad4f08ce9ac08b00b267f9dd62faddc71b798a33b4790d7",
      "assetIds": [
        "55464657044963196816950587289035428064568320970692304673817341489687790884865",
        "55464657044963196816950587289035428064568320970692304673817341489687782494208",
        "55464657044963196816950587289035428064568320970692304673817341489687790884866",
        "55464657044963196816950587289035428064568320970692304673817341489687782494209",
        "55464657044963196816950587289035428064568320970692304673817341489687790884864"
      ]
    },
    {
      "x": 161,
      "y": 348,
      "size": 1,
      "price": "4683000000000000000000",
      "reserved": "",
      "salt": "0x47654051708898fa37f79b46ad43505b2d3c2d3e74fef071b1c74e8c3d58a6e7",
      "assetIds": [
        "55464657044963196816950587289035428064568320970692304673817341489687790884865",
        "55464657044963196816950587289035428064568320970692304673817341489687782494208",
        "55464657044963196816950587289035428064568320970692304673817341489687790884866",
        "55464657044963196816950587289035428064568320970692304673817341489687782494209",
        "55464657044963196816950587289035428064568320970692304673817341489687790884864"
      ]
    },
    {
      "x": 161,
      "y": 349,
      "size": 1,
      "price": "1011000000000000000000",
      "reserved": "",
      "salt": "0xbefc8c633b809368ca4109ca30f358206d6205d2f2a0683089500480e7c937a8",
      "assetIds": []
    },
    {
      "x": 161,
      "y": 350,
      "size": 1,
      "price": "1011000000000000000000",
      "reserved": "",
      "salt": "0x6182eb4f82501b30b7cf19319ab7e6ae6273fd58849ff643451bfb92ece07b8b",
      "assetIds": []
    },
    {
      "x": 161,
      "y": 351,
      "size": 1,
      "price": "1011000000000000000000",
      "reserved": "",
      "salt": "0xa13b6c6a675a8254bb64a7d84fd0f051ddc7019b173d906224be5d66e449853b",
      "assetIds": []
    },
    {
      "x": 161,
      "y": 352,
      "size": 1,
      "price": "1011000000000000000000",
      "reserved": "0x7a9fe22691c811ea339d9b73150e6911a5343dca",
      "salt": "0x8f81ef080031b2e92f78057c22db5aebf533f353291f53e12ec47d1099ebaa75",
      "assetIds": []
    },
    {
      "x": 162,
      "y": 330,
      "size": 1,
      "price": "1011000000000000000000",
      "reserved": "",
      "salt": "0xd1a4af57c6785716acdf93e910bc99a49dcf8504f0b2bd2a80e00451e0fb4064",
      "assetIds": []
    },
    {
      "x": 162,
      "y": 331,
      "size": 1,
      "price": "1011000000000000000000",
      "reserved": "",
      "salt": "0x2695f6b51872356ef30df28fe34a3f1be1d2b1c691e2372091f4d35df1cacc19",
      "assetIds": []
    },
    {
      "x": 162,
      "y": 332,
      "size": 1,
      "price": "1011000000000000000000",
      "reserved": "",
      "salt": "0x86959b2816b2441a8e9c5685944aacd7441a1f7c8f95184e957eb3e93935d232",
      "assetIds": []
    },
    {
      "x": 162,
      "y": 333,
      "size": 1,
      "price": "1011000000000000000000",
      "reserved": "",
      "salt": "0xab933833168eac37a6f8de5264233bcdd8f19b740310beeafcc0e068ce7c4344",
      "assetIds": []
    },
    {
      "x": 162,
      "y": 334,
      "size": 1,
      "price": "4683000000000000000000",
      "reserved": "",
      "salt": "0x31854c72cffab1a205a69272a57ebc403d2665a571dfc30d3bec02e98b9a3ea7",
      "assetIds": [
        "55464657044963196816950587289035428064568320970692304673817341489687790884865",
        "55464657044963196816950587289035428064568320970692304673817341489687782494208",
        "55464657044963196816950587289035428064568320970692304673817341489687790884866",
        "55464657044963196816950587289035428064568320970692304673817341489687782494209",
        "55464657044963196816950587289035428064568320970692304673817341489687790884864"
      ]
    },
    {
      "x": 162,
      "y": 335,
      "size": 1,
      "price": "4683000000000000000000",
      "reserved": "",
      "salt": "0xde2e465d3605212c8f8b2ece0c63eaf8fd3f9ce561cac9ee6a23103c17416490",
      "assetIds": [
        "55464657044963196816950587289035428064568320970692304673817341489687790884865",
        "55464657044963196816950587289035428064568320970692304673817341489687782494208",
        "55464657044963196816950587289035428064568320970692304673817341489687790884866",
        "55464657044963196816950587289035428064568320970692304673817341489687782494209",
        "55464657044963196816950587289035428064568320970692304673817341489687790884864"
      ]
    },
    {
      "x": 162,
      "y": 348,
      "size": 1,
      "price": "4683000000000000000000",
      "reserved": "",
      "salt": "0x0217fa911938e44d737e90112a964d311d89eb8cbcebc3422a68f74c04a10dc8",
      "assetIds": [
        "55464657044963196816950587289035428064568320970692304673817341489687790884865",
        "55464657044963196816950587289035428064568320970692304673817341489687782494208",
        "55464657044963196816950587289035428064568320970692304673817341489687790884866",
        "55464657044963196816950587289035428064568320970692304673817341489687782494209",
        "55464657044963196816950587289035428064568320970692304673817341489687790884864"
      ]
    },
    {
      "x": 162,
      "y": 349,
      "size": 1,
      "price": "1011000000000000000000",
      "reserved": "",
      "salt": "0x9bb52ae984db0761469d884c18ccbdda3714806f571e9999ee2a6b23a1565577",
      "assetIds": []
    },
    {
      "x": 162,
      "y": 350,
      "size": 1,
      "price": "1011000000000000000000",
      "reserved": "",
      "salt": "0xe6216dbcb7437a3c637057d4d8c39daff9aba2778a04fbd43be46f15cdec45af",
      "assetIds": []
    },
    {
      "x": 162,
      "y": 351,
      "size": 1,
      "price": "1011000000000000000000",
      "reserved": "",
      "salt": "0xc783497b63ed048faad9d82fbf011bfe4e80de36bda4657d71edd58e6d54c6ce",
      "assetIds": []
    },
    {
      "x": 162,
      "y": 352,
      "size": 1,
      "price": "1011000000000000000000",
      "reserved": "",
      "salt": "0x4d1c56da443c03f30c55a31f6cef78973ec6622b983c0d14cee698ef238cadc1",
      "assetIds": []
    },
    {
      "x": 163,
      "y": 330,
      "size": 1,
      "price": "1011000000000000000000",
      "reserved": "",
      "salt": "0x71debe4dcf96f37bcb33e743d3912d0d45883835eedf44ff6a2eda01f26013bf",
      "assetIds": []
    },
    {
      "x": 163,
      "y": 331,
      "size": 1,
      "price": "1011000000000000000000",
      "reserved": "",
      "salt": "0xe052c31acd62c137a3f3ab4c4b22691b0ae805964850265f1fe0d227183a35b8",
      "assetIds": []
    },
    {
      "x": 163,
      "y": 332,
      "size": 1,
      "price": "1011000000000000000000",
      "reserved": "0x7a9fe22691c811ea339d9b73150e6911a5343dca",
      "salt": "0x607de7b858890ced4c9a1358341346b5f39ef653e0f8e9bcbe3156e388f3dc45",
      "assetIds": []
    },
    {
      "x": 163,
      "y": 333,
      "size": 1,
      "price": "1011000000000000000000",
      "reserved": "",
      "salt": "0xab817e6ed855dc152f2ebc51d2878e44c7637f2d1f2984cd69c8d840752ae098",
      "assetIds": []
    },
    {
      "x": 163,
      "y": 334,
      "size": 1,
      "price": "4683000000000000000000",
      "reserved": "",
      "salt": "0xdf42bc8629907d7ceb0d55b93111adf1035245d8d71abf83a1c00fe399503e89",
      "assetIds": [
        "55464657044963196816950587289035428064568320970692304673817341489687790884865",
        "55464657044963196816950587289035428064568320970692304673817341489687782494208",
        "55464657044963196816950587289035428064568320970692304673817341489687790884866",
        "55464657044963196816950587289035428064568320970692304673817341489687782494209",
        "55464657044963196816950587289035428064568320970692304673817341489687790884864"
      ]
    },
    {
      "x": 163,
      "y": 335,
      "size": 1,
      "price": "4683000000000000000000",
      "reserved": "",
      "salt": "0x0ab965d01c2a9ad476cca4d1c6523c1655a2743755dd0957fa8fd6d02c384688",
      "assetIds": [
        "55464657044963196816950587289035428064568320970692304673817341489687790884865",
        "55464657044963196816950587289035428064568320970692304673817341489687782494208",
        "55464657044963196816950587289035428064568320970692304673817341489687790884866",
        "55464657044963196816950587289035428064568320970692304673817341489687782494209",
        "55464657044963196816950587289035428064568320970692304673817341489687790884864"
      ]
    },
    {
      "x": 163,
      "y": 348,
      "size": 1,
      "price": "1011000000000000000000",
      "reserved": "",
      "salt": "0xa2abbe446954faaf95e34cb5bfc46659675a4dc23390ab6c2b447c81f0716a7f",
      "assetIds": []
    },
    {
      "x": 163,
      "y": 349,
      "size": 1,
      "price": "1011000000000000000000",
      "reserved": "",
      "salt": "0xe23f831ff6577692a25aba5e33f177c0d0b0e5e69ab78c3d5388c6c3c68f96dd",
      "assetIds": []
    },
    {
      "x": 163,
      "y": 350,
      "size": 1,
      "price": "1011000000000000000000",
      "reserved": "0x7a9fe22691c811ea339d9b73150e6911a5343dca",
      "salt": "0x7df32e92519f574461e818094f575cb3813d5fda130c0cc2a07bcd49ed06fd3d",
      "assetIds": []
    },
    {
      "x": 163,
      "y": 351,
      "size": 1,
      "price": "1011000000000000000000",
      "reserved": "",
      "salt": "0x3c83c720444ed380e016f0d57df4c4fcce694a3e6b2cbba443b27bb6bdc77553",
      "assetIds": []
    },
    {
      "x": 163,
      "y": 352,
      "size": 1,
      "price": "1011000000000000000000",
      "reserved": "0x7a9fe22691c811ea339d9b73150e6911a5343dca",
      "salt": "0x6deef05cdde9ffefa83d6edced6fd2e39d76044f7a3b36a5bfcd009667cb312b",
      "assetIds": []
    },
    {
      "x": 164,
      "y": 330,
      "size": 1,
      "price": "1011000000000000000000",
      "reserved": "",
      "salt": "0x58e3fe1cf3b62fbd52e8a84fd9b82ff7a0012bc76d6f716bb41d5f90da300fc1",
      "assetIds": []
    },
    {
      "x": 164,
      "y": 331,
      "size": 1,
      "price": "1011000000000000000000",
      "reserved": "",
      "salt": "0xd3709b815b7a1fb2ed6662ee9f202f24e559a5ad3c06b0d69fde8c034ec68a8c",
      "assetIds": []
    },
    {
      "x": 164,
      "y": 332,
      "size": 1,
      "price": "1011000000000000000000",
      "reserved": "",
      "salt": "0x24d16e9a41e9ed95848d0b8f2696651b8cfea0f4dd46b1d96438be87ab4d1168",
      "assetIds": []
    },
    {
      "x": 164,
      "y": 333,
      "size": 1,
      "price": "1011000000000000000000",
      "reserved": "0x7a9fe22691c811ea339d9b73150e6911a5343dca",
      "salt": "0x6a7c4414ec5385c8782bf03ee4074185c4a21fdc2115e7205766725688420c5c",
      "assetIds": []
    },
    {
      "x": 164,
      "y": 334,
      "size": 1,
      "price": "1011000000000000000000",
      "reserved": "0x7a9fe22691c811ea339d9b73150e6911a5343dca",
      "salt": "0x6112f11c9154534518fac994a591b974b1c40ee6e6459569851aa7f682fe0072",
      "assetIds": []
    },
    {
      "x": 164,
      "y": 335,
      "size": 1,
      "price": "4683000000000000000000",
      "reserved": "",
      "salt": "0xb2d0e35bc5a2a85bfdbe4fd1d5cacb722163b0f5242014d83d3a57ee8f9a011f",
      "assetIds": [
        "55464657044963196816950587289035428064568320970692304673817341489687790884865",
        "55464657044963196816950587289035428064568320970692304673817341489687782494208",
        "55464657044963196816950587289035428064568320970692304673817341489687790884866",
        "55464657044963196816950587289035428064568320970692304673817341489687782494209",
        "55464657044963196816950587289035428064568320970692304673817341489687790884864"
      ]
    },
    {
      "x": 164,
      "y": 348,
      "size": 1,
      "price": "1011000000000000000000",
      "reserved": "0x7a9fe22691c811ea339d9b73150e6911a5343dca",
      "salt": "0x66b3f9b1e1e9f072ed6e763d9334774fcf5463626c65f4ad534bb726bce1e3cf",
      "assetIds": []
    },
    {
      "x": 164,
      "y": 349,
      "size": 1,
      "price": "1011000000000000000000",
      "reserved": "",
      "salt": "0x17c4194a32e71d3dc77a469105fce492ae72b4ce43d91fa4a35d3761ad641c35",
      "assetIds": []
    },
    {
      "x": 164,
      "y": 350,
      "size": 1,
      "price": "1011000000000000000000",
      "reserved": "",
      "salt": "0x78acf8d55a44b2ca6f5456cc5de9ca7405aca8bba41c9a0d4b2eaf4fea311e24",
      "assetIds": []
    },
    {
      "x": 164,
      "y": 351,
      "size": 1,
      "price": "1011000000000000000000",
      "reserved": "",
      "salt": "0xf3db8c5f43231a250b5a76a9e8182577f64163d1588196f815227b7a4b6bd7d6",
      "assetIds": []
    },
    {
      "x": 164,
      "y": 352,
      "size": 1,
      "price": "1011000000000000000000",
      "reserved": "",
      "salt": "0x9ea5829366a5810bfee9d41a2bd59e09a7c09f07de04a8f320eb9217c659952b",
      "assetIds": []
    },
    {
      "x": 165,
      "y": 330,
      "size": 1,
      "price": "1011000000000000000000",
      "reserved": "",
      "salt": "0xe1d01ef4e148af5d019cf4eda5fdc065739e699622fc08c68848be088070680a",
      "assetIds": []
    },
    {
      "x": 165,
      "y": 331,
      "size": 1,
      "price": "1011000000000000000000",
      "reserved": "",
      "salt": "0xb86af0a9e7fbcedd51e8dc49454fe5ed82674f5972627550ea11029ec1bc45a2",
      "assetIds": []
    },
    {
      "x": 165,
      "y": 332,
      "size": 1,
      "price": "1011000000000000000000",
      "reserved": "0x7a9fe22691c811ea339d9b73150e6911a5343dca",
      "salt": "0xb51c23e695df1eb2a30cac4d6eb6a331ccb9d57a8f23ab2fbef482186dc3c965",
      "assetIds": []
    },
    {
      "x": 165,
      "y": 333,
      "size": 1,
      "price": "1011000000000000000000",
      "reserved": "",
      "salt": "0x134d83d1b2188e15cffd980be72e4c7637bdae16cc1514b8b429ebe34a99e805",
      "assetIds": []
    },
    {
      "x": 165,
      "y": 334,
      "size": 1,
      "price": "1011000000000000000000",
      "reserved": "",
      "salt": "0x08e1a1bd459c88d13a9b1246a06dfb0f9712725ccfb4597ed60bd44929c9c964",
      "assetIds": []
    },
    {
      "x": 165,
      "y": 335,
      "size": 1,
      "price": "1011000000000000000000",
      "reserved": "",
      "salt": "0x7f6f559be6aa607561523aac6354050dc91ce1434dc55f5fd17698f1a1cd8799",
      "assetIds": []
    },
    {
      "x": 165,
      "y": 348,
      "size": 1,
      "price": "1011000000000000000000",
      "reserved": "",
      "salt": "0x1034d05eefd339b572bd3f7808d0972c6ad3d932d08daed9370c8c1dc03f13fd",
      "assetIds": []
    },
    {
      "x": 165,
      "y": 349,
      "size": 1,
      "price": "1011000000000000000000",
      "reserved": "",
      "salt": "0xf5a8c453f59868dc63fcea7447e59914dc1cf08491e006ce91acac8157f163b9",
      "assetIds": []
    },
    {
      "x": 165,
      "y": 350,
      "size": 1,
      "price": "1011000000000000000000",
      "reserved": "",
      "salt": "0x56ca84ab73f4846de130db339496810b29e1b13e850eb5bccb974e8254337765",
      "assetIds": []
    },
    {
      "x": 165,
      "y": 351,
      "size": 1,
      "price": "1011000000000000000000",
      "reserved": "0x7a9fe22691c811ea339d9b73150e6911a5343dca",
      "salt": "0x1ad5d61fc2714d4d8be6f175bb101941bcc70f8d8279b045437f009f3c548e06",
      "assetIds": []
    },
    {
      "x": 165,
      "y": 352,
      "size": 1,
      "price": "1011000000000000000000",
      "reserved": "",
      "salt": "0x51de989d8e0b32df30c8dbc4693ca18b955225219b643054c593ca460bd7562b",
      "assetIds": []
    },
    {
      "x": 166,
      "y": 330,
      "size": 1,
      "price": "1011000000000000000000",
      "reserved": "",
      "salt": "0x8c7a9869d809f308b6e7b8e91c45eda6261d8f59494db51ec6d6122f80ddda08",
      "assetIds": []
    },
    {
      "x": 166,
      "y": 331,
      "size": 1,
      "price": "1011000000000000000000",
      "reserved": "",
      "salt": "0x69e4d9b7ce3da9c850cd900f3bde90b7a12bc2f1ebbe241a8522e6be068c26fb",
      "assetIds": []
    },
    {
      "x": 166,
      "y": 332,
      "size": 1,
      "price": "1011000000000000000000",
      "reserved": "",
      "salt": "0x5c2a13d526adb1a70d0e23cf09fad2e0f94696fe33ae39558fa2c1413074736c",
      "assetIds": []
    },
    {
      "x": 166,
      "y": 333,
      "size": 1,
      "price": "1011000000000000000000",
      "reserved": "",
      "salt": "0x7921ce523f661ced5d072aabf1096177b686e0095e35653d8558196dfba0dfb1",
      "assetIds": []
    },
    {
      "x": 166,
      "y": 334,
      "size": 1,
      "price": "1011000000000000000000",
      "reserved": "",
      "salt": "0x0f089bf30d6207f593b81cec75dc39a1f89811b7e071dff0226fdc3c4d088b9e",
      "assetIds": []
    },
    {
      "x": 166,
      "y": 335,
      "size": 1,
      "price": "1011000000000000000000",
      "reserved": "",
      "salt": "0x4e508ee988ab9f9c4dec767992f0a6cf8c6f037b31e586d4fb95284fa2fc8e9b",
      "assetIds": []
    },
    {
      "x": 166,
      "y": 348,
      "size": 1,
      "price": "1011000000000000000000",
      "reserved": "",
      "salt": "0x09b140c0aa27ff93c54942f449830b06ea39fe3690c93e3774fbf1e713fb965d",
      "assetIds": []
    },
    {
      "x": 166,
      "y": 349,
      "size": 1,
      "price": "1011000000000000000000",
      "reserved": "",
      "salt": "0x22e731e488254bb64bbba67fd2ace2bdba8b22467a0de1974b9d84b416f3bf2d",
      "assetIds": []
    },
    {
      "x": 166,
      "y": 350,
      "size": 1,
      "price": "1011000000000000000000",
      "reserved": "",
      "salt": "0xee104aeaa3286bd77f7df325b13e68fe0f50fb70eb9399cfabdcda72fe1c48b6",
      "assetIds": []
    },
    {
      "x": 166,
      "y": 351,
      "size": 1,
      "price": "1011000000000000000000",
      "reserved": "",
      "salt": "0x4d919e619a0bc80cf86d744fbd890fba0b60c9ce69dcc2aa2181b63aee0b97e3",
      "assetIds": []
    },
    {
      "x": 166,
      "y": 352,
      "size": 1,
      "price": "1011000000000000000000",
      "reserved": "0x7a9fe22691c811ea339d9b73150e6911a5343dca",
      "salt": "0x619b30ff6613df79c5a06f9c412213a6a0cb2078e8b446983863aa7f5d4df584",
      "assetIds": []
    },
    {
      "x": 167,
      "y": 330,
      "size": 1,
      "price": "4683000000000000000000",
      "reserved": "",
      "salt": "0x81d73db6f6f483b17e564749707a757bb5720e4afaf680c1e93a257efb49ec8c",
      "assetIds": [
        "55464657044963196816950587289035428064568320970692304673817341489687790884865",
        "55464657044963196816950587289035428064568320970692304673817341489687782494208",
        "55464657044963196816950587289035428064568320970692304673817341489687790884866",
        "55464657044963196816950587289035428064568320970692304673817341489687782494209",
        "55464657044963196816950587289035428064568320970692304673817341489687790884864"
      ]
    },
    {
      "x": 167,
      "y": 331,
      "size": 1,
      "price": "1011000000000000000000",
      "reserved": "0x7a9fe22691c811ea339d9b73150e6911a5343dca",
      "salt": "0x40630b0c70ce41a61ac56f654d1b93537a72e4d25d47157e520c06822f440483",
      "assetIds": []
    },
    {
      "x": 167,
      "y": 332,
      "size": 1,
      "price": "1011000000000000000000",
      "reserved": "",
      "salt": "0x0e06a8e59f302d77951e137e948693030fcc824f6cc0c0f4a45a3bbc4efd21f6",
      "assetIds": []
    },
    {
      "x": 167,
      "y": 333,
      "size": 1,
      "price": "1011000000000000000000",
      "reserved": "",
      "salt": "0x46ec7ade82ca686b1b0a61b0645d95ed755105fde0c26ed28a00355c2afb94eb",
      "assetIds": []
    },
    {
      "x": 167,
      "y": 334,
      "size": 1,
      "price": "1011000000000000000000",
      "reserved": "",
      "salt": "0x715a9ca8de2526df4f66e5630fc3a26377db45a021b5b098cfcdc6660fb65141",
      "assetIds": []
    },
    {
      "x": 167,
      "y": 335,
      "size": 1,
      "price": "1011000000000000000000",
      "reserved": "",
      "salt": "0xd7cdb24b6cab130bf17c31134505787241cec9fdb58084e1d6910e33260b16b1",
      "assetIds": []
    },
    {
      "x": 167,
      "y": 348,
      "size": 1,
      "price": "1011000000000000000000",
      "reserved": "",
      "salt": "0x4ab59692cd016f0a1c09f2238cf45b9ae9dd82e9ad7928ece407ba0156c5618d",
      "assetIds": []
    },
    {
      "x": 167,
      "y": 349,
      "size": 1,
      "price": "1011000000000000000000",
      "reserved": "0x7a9fe22691c811ea339d9b73150e6911a5343dca",
      "salt": "0xc9f2bb8d110cede54ea138898a8663bffc2abe321914f2f98c550fad4969fe6c",
      "assetIds": []
    },
    {
      "x": 167,
      "y": 350,
      "size": 1,
      "price": "1011000000000000000000",
      "reserved": "",
      "salt": "0x5618cda1b2b081edf8b51b8e59e7015adbb74d86368ec485ceede4e7b00e779d",
      "assetIds": []
    },
    {
      "x": 167,
      "y": 351,
      "size": 1,
      "price": "1011000000000000000000",
      "reserved": "",
      "salt": "0x67abfde41676e360ec73682c3f90d77ca4b01f06c8f8858c141dceffa03a9845",
      "assetIds": []
    },
    {
      "x": 167,
      "y": 352,
      "size": 1,
      "price": "1011000000000000000000",
      "reserved": "0x7a9fe22691c811ea339d9b73150e6911a5343dca",
      "salt": "0x3d377127b55b935e7e1927b9130de6467a49a28847772c53753ae6dd3b34c950",
      "assetIds": []
    },
    {
      "x": 168,
      "y": 312,
      "size": 1,
      "price": "1011000000000000000000",
      "reserved": "",
      "salt": "0x9714d7bbd0be11255e92e3dccb1e143e1b062d9b1ecf465a73076ebc1f764cfd",
      "assetIds": []
    },
    {
      "x": 168,
      "y": 313,
      "size": 1,
      "price": "1011000000000000000000",
      "reserved": "",
      "salt": "0x05635aabdbf0ee96daf4a98a3d0f1911988e066407048e47b1645892dd8440dd",
      "assetIds": []
    },
    {
      "x": 168,
      "y": 314,
      "size": 1,
      "price": "1011000000000000000000",
      "reserved": "",
      "salt": "0xd760869b24dee52022088795ea88de0574830d22f3c200a3dc2167b71015493d",
      "assetIds": []
    },
    {
      "x": 168,
      "y": 315,
      "size": 1,
      "price": "1011000000000000000000",
      "reserved": "",
      "salt": "0x95c65c9f19aa6332a8f2e3b0356ac6925bdf0e85daf6eeced78ffefde576e0fa",
      "assetIds": []
    },
    {
      "x": 168,
      "y": 316,
      "size": 1,
      "price": "1011000000000000000000",
      "reserved": "",
      "salt": "0x245994c0f06582317e58b053cae86a5a6e6da43857d162ced54e0108fab2d042",
      "assetIds": []
    },
    {
      "x": 168,
      "y": 317,
      "size": 1,
      "price": "1011000000000000000000",
      "reserved": "",
      "salt": "0x0bec4f001afe847c12856b42c5ec1d6ba72133f53a1652c3f23c70b3f0f5f74a",
      "assetIds": []
    },
    {
      "x": 168,
      "y": 318,
      "size": 1,
      "price": "1011000000000000000000",
      "reserved": "",
      "salt": "0xf259bc36602373308686c5c4fae33fbefbd8abbb8b9cfc43f69d1300759882b5",
      "assetIds": []
    },
    {
      "x": 168,
      "y": 319,
      "size": 1,
      "price": "1011000000000000000000",
      "reserved": "",
      "salt": "0x804141089a27df264f37036d7691f91fbf505d951a1854e50237b7b8378b0f6d",
      "assetIds": []
    },
    {
      "x": 168,
      "y": 320,
      "size": 1,
      "price": "1011000000000000000000",
      "reserved": "",
      "salt": "0x54f2a6d0da5bcf07453afa82498f2322ecd2f8dd5f4a1a6c6310629f94624344",
      "assetIds": []
    },
    {
      "x": 168,
      "y": 321,
      "size": 1,
      "price": "4683000000000000000000",
      "reserved": "",
      "salt": "0x3b9bbb0a245afb673ae8f74f0f140b39c0ceb99dc1eccae7f1e22263cd7ac347",
      "assetIds": [
        "55464657044963196816950587289035428064568320970692304673817341489687790884865",
        "55464657044963196816950587289035428064568320970692304673817341489687782494208",
        "55464657044963196816950587289035428064568320970692304673817341489687790884866",
        "55464657044963196816950587289035428064568320970692304673817341489687782494209",
        "55464657044963196816950587289035428064568320970692304673817341489687790884864"
      ]
    },
    {
      "x": 168,
      "y": 322,
      "size": 1,
      "price": "4683000000000000000000",
      "reserved": "",
      "salt": "0x8dcef617b533b511dc0fdf98cfdfa85693f168b48c82c17bbb13ffc04b4dc9a9",
      "assetIds": [
        "55464657044963196816950587289035428064568320970692304673817341489687790884865",
        "55464657044963196816950587289035428064568320970692304673817341489687782494208",
        "55464657044963196816950587289035428064568320970692304673817341489687790884866",
        "55464657044963196816950587289035428064568320970692304673817341489687782494209",
        "55464657044963196816950587289035428064568320970692304673817341489687790884864"
      ]
    },
    {
      "x": 168,
      "y": 323,
      "size": 1,
      "price": "4683000000000000000000",
      "reserved": "",
      "salt": "0x3299e59e37ea7eb88dbc0d0bc1689431d8be8a4087d71c069e60291f910716cd",
      "assetIds": [
        "55464657044963196816950587289035428064568320970692304673817341489687790884865",
        "55464657044963196816950587289035428064568320970692304673817341489687782494208",
        "55464657044963196816950587289035428064568320970692304673817341489687790884866",
        "55464657044963196816950587289035428064568320970692304673817341489687782494209",
        "55464657044963196816950587289035428064568320970692304673817341489687790884864"
      ]
    },
    {
      "x": 168,
      "y": 330,
      "size": 1,
      "price": "4683000000000000000000",
      "reserved": "",
      "salt": "0x4d2b1b2e44e54284297bfb06b29afce9cd52b85afc3b94406d24dadc51519d08",
      "assetIds": [
        "55464657044963196816950587289035428064568320970692304673817341489687790884865",
        "55464657044963196816950587289035428064568320970692304673817341489687782494208",
        "55464657044963196816950587289035428064568320970692304673817341489687790884866",
        "55464657044963196816950587289035428064568320970692304673817341489687782494209",
        "55464657044963196816950587289035428064568320970692304673817341489687790884864"
      ]
    },
    {
      "x": 168,
      "y": 331,
      "size": 1,
      "price": "4683000000000000000000",
      "reserved": "",
      "salt": "0x097aa419d198b8e50c49127833c6b4a641dac2a2d93c7af68cc417794682af8f",
      "assetIds": [
        "55464657044963196816950587289035428064568320970692304673817341489687790884865",
        "55464657044963196816950587289035428064568320970692304673817341489687782494208",
        "55464657044963196816950587289035428064568320970692304673817341489687790884866",
        "55464657044963196816950587289035428064568320970692304673817341489687782494209",
        "55464657044963196816950587289035428064568320970692304673817341489687790884864"
      ]
    },
    {
      "x": 168,
      "y": 332,
      "size": 1,
      "price": "1011000000000000000000",
      "reserved": "",
      "salt": "0xad4ce7b386ba8dbeeb76abccaba3f5acc700c6a22d3f6a8a55afff872eb1358d",
      "assetIds": []
    },
    {
      "x": 168,
      "y": 333,
      "size": 1,
      "price": "1011000000000000000000",
      "reserved": "0x7a9fe22691c811ea339d9b73150e6911a5343dca",
      "salt": "0x25a6161f6d7fe9430f60a4624bafe56e2bac9f5d5482500f5d64e86ab209ebb8",
      "assetIds": []
    },
    {
      "x": 168,
      "y": 334,
      "size": 1,
      "price": "4683000000000000000000",
      "reserved": "",
      "salt": "0x445c644c350bb4cc4f95f973e41251759348b3dfb247bc19d6cbe0ffa7e78584",
      "assetIds": [
        "55464657044963196816950587289035428064568320970692304673817341489687790884865",
        "55464657044963196816950587289035428064568320970692304673817341489687782494208",
        "55464657044963196816950587289035428064568320970692304673817341489687790884866",
        "55464657044963196816950587289035428064568320970692304673817341489687782494209",
        "55464657044963196816950587289035428064568320970692304673817341489687790884864"
      ]
    },
    {
      "x": 168,
      "y": 335,
      "size": 1,
      "price": "4683000000000000000000",
      "reserved": "",
      "salt": "0x02fc7fe465dee46f5f91e8c5bd84d101d5841434c81d2bfb6ac5e342fc0a92fb",
      "assetIds": [
        "55464657044963196816950587289035428064568320970692304673817341489687790884865",
        "55464657044963196816950587289035428064568320970692304673817341489687782494208",
        "55464657044963196816950587289035428064568320970692304673817341489687790884866",
        "55464657044963196816950587289035428064568320970692304673817341489687782494209",
        "55464657044963196816950587289035428064568320970692304673817341489687790884864"
      ]
    },
    {
      "x": 168,
      "y": 342,
      "size": 1,
      "price": "4683000000000000000000",
      "reserved": "",
      "salt": "0xc6f65242e070adc500e64cecb002ff0665a6901c6fd0774d28588cf0f3846f68",
      "assetIds": [
        "55464657044963196816950587289035428064568320970692304673817341489687790884865",
        "55464657044963196816950587289035428064568320970692304673817341489687782494208",
        "55464657044963196816950587289035428064568320970692304673817341489687790884866",
        "55464657044963196816950587289035428064568320970692304673817341489687782494209",
        "55464657044963196816950587289035428064568320970692304673817341489687790884864"
      ]
    },
    {
      "x": 168,
      "y": 343,
      "size": 1,
      "price": "1011000000000000000000",
      "reserved": "",
      "salt": "0x4188fcf4949a2661ff82dac031d43c1c937097cbe9af55a58a4bc9ac4b9f1248",
      "assetIds": []
    },
    {
      "x": 168,
      "y": 344,
      "size": 1,
      "price": "1011000000000000000000",
      "reserved": "",
      "salt": "0x8b737a43824f6de50cedd3df44f03efef79ef4ca86cbfd2318a65f3d48f76fd3",
      "assetIds": []
    },
    {
      "x": 168,
      "y": 345,
      "size": 1,
      "price": "1011000000000000000000",
      "reserved": "",
      "salt": "0x091796d6037cd98187917f29eea70dd5d159251de633fb030f4b091bc720ddb7",
      "assetIds": []
    },
    {
      "x": 168,
      "y": 346,
      "size": 1,
      "price": "1011000000000000000000",
      "reserved": "",
      "salt": "0x1d9b9c2bad882acba9fd00b43dbb6c11422d5552ff37917f44da5a4291b1244e",
      "assetIds": []
    },
    {
      "x": 168,
      "y": 347,
      "size": 1,
      "price": "1011000000000000000000",
      "reserved": "",
      "salt": "0x21a1ac91aee3c2cadfac09df590e2796567eab0cc3b0c1b0e877635936fbe6fd",
      "assetIds": []
    },
    {
      "x": 169,
      "y": 312,
      "size": 1,
      "price": "1011000000000000000000",
      "reserved": "",
      "salt": "0x0373108a96e0c86ab9edf35f44fce630ac584a0ef60bce326e0553244c97e400",
      "assetIds": []
    },
    {
      "x": 169,
      "y": 313,
      "size": 1,
      "price": "1011000000000000000000",
      "reserved": "0x7a9fe22691c811ea339d9b73150e6911a5343dca",
      "salt": "0x5e608e1d09d6e290240abd1f94757515dd216dbed021bc2381876f5482824ece",
      "assetIds": []
    },
    {
      "x": 169,
      "y": 314,
      "size": 1,
      "price": "1011000000000000000000",
      "reserved": "",
      "salt": "0x62e2afc1b8e7ad8f7160779ce3a88cb379f3e1354090b124611a5595fb992643",
      "assetIds": []
    },
    {
      "x": 169,
      "y": 315,
      "size": 1,
      "price": "1011000000000000000000",
      "reserved": "",
      "salt": "0x578c455d17e02a72e31adf36a45a1aa8d241fee8e30a5f4fc596dd2f5686a4b6",
      "assetIds": []
    },
    {
      "x": 169,
      "y": 316,
      "size": 1,
      "price": "1011000000000000000000",
      "reserved": "",
      "salt": "0x279665eb7f41dca53180e19ad6dd51b33ce4ef9c203f985fadd65642900166f8",
      "assetIds": []
    },
    {
      "x": 169,
      "y": 317,
      "size": 1,
      "price": "1011000000000000000000",
      "reserved": "",
      "salt": "0x0531a01c38caf305fdf09c180d1670f6ba1ea7367985d57f3e2e3c614db410e2",
      "assetIds": []
    },
    {
      "x": 169,
      "y": 318,
      "size": 1,
      "price": "1011000000000000000000",
      "reserved": "",
      "salt": "0xe7e4dc2623e8a9d17cf0d065f1a1fbb09d7c49757013d0989a617d712e9cd439",
      "assetIds": []
    },
    {
      "x": 169,
      "y": 319,
      "size": 1,
      "price": "1011000000000000000000",
      "reserved": "",
      "salt": "0x680474b7d45853cc7a70c9ee5b9289dfb5f99abd908dd74c78f6f5b0a77b1c71",
      "assetIds": []
    },
    {
      "x": 169,
      "y": 320,
      "size": 1,
      "price": "1011000000000000000000",
      "reserved": "0x7a9fe22691c811ea339d9b73150e6911a5343dca",
      "salt": "0xd7a045ed23692e9da6ebea18d4de3dbe318a4320a20f25bbc8f6efa0313b8353",
      "assetIds": []
    },
    {
      "x": 169,
      "y": 321,
      "size": 1,
      "price": "1011000000000000000000",
      "reserved": "",
      "salt": "0x1de3e88cfe70298ad0f3c9746824027b60a1bba0fad4f339ebf1f22295a7ec1d",
      "assetIds": []
    },
    {
      "x": 169,
      "y": 322,
      "size": 1,
      "price": "4683000000000000000000",
      "reserved": "",
      "salt": "0x477aecc751216dc708b2d6d75febcbb0ed907153d7324e9192b2707d7d191890",
      "assetIds": [
        "55464657044963196816950587289035428064568320970692304673817341489687790884865",
        "55464657044963196816950587289035428064568320970692304673817341489687782494208",
        "55464657044963196816950587289035428064568320970692304673817341489687790884866",
        "55464657044963196816950587289035428064568320970692304673817341489687782494209",
        "55464657044963196816950587289035428064568320970692304673817341489687790884864"
      ]
    },
    {
      "x": 169,
      "y": 323,
      "size": 1,
      "price": "4683000000000000000000",
      "reserved": "",
      "salt": "0x853dbdb2a481bc66d1a269de34a429d1160ff4451f1610fd9fbe5f8a19f1aa3d",
      "assetIds": [
        "55464657044963196816950587289035428064568320970692304673817341489687790884865",
        "55464657044963196816950587289035428064568320970692304673817341489687782494208",
        "55464657044963196816950587289035428064568320970692304673817341489687790884866",
        "55464657044963196816950587289035428064568320970692304673817341489687782494209",
        "55464657044963196816950587289035428064568320970692304673817341489687790884864"
      ]
    },
    {
      "x": 169,
      "y": 330,
      "size": 1,
      "price": "4683000000000000000000",
      "reserved": "",
      "salt": "0xf702eaedabd7738dedc690fd7d86d23f9fb99e0eda66bf28d09fb47634d129cb",
      "assetIds": [
        "55464657044963196816950587289035428064568320970692304673817341489687790884865",
        "55464657044963196816950587289035428064568320970692304673817341489687782494208",
        "55464657044963196816950587289035428064568320970692304673817341489687790884866",
        "55464657044963196816950587289035428064568320970692304673817341489687782494209",
        "55464657044963196816950587289035428064568320970692304673817341489687790884864"
      ]
    },
    {
      "x": 169,
      "y": 331,
      "size": 1,
      "price": "4683000000000000000000",
      "reserved": "",
      "salt": "0xc59809c46b12867d47e8a0075dba4721a8910731fc0fdb9590b7a7911fe9248d",
      "assetIds": [
        "55464657044963196816950587289035428064568320970692304673817341489687790884865",
        "55464657044963196816950587289035428064568320970692304673817341489687782494208",
        "55464657044963196816950587289035428064568320970692304673817341489687790884866",
        "55464657044963196816950587289035428064568320970692304673817341489687782494209",
        "55464657044963196816950587289035428064568320970692304673817341489687790884864"
      ]
    },
    {
      "x": 169,
      "y": 332,
      "size": 1,
      "price": "1011000000000000000000",
      "reserved": "0x7a9fe22691c811ea339d9b73150e6911a5343dca",
      "salt": "0x9211b8750780b8e0c2cf7b23b69423351883faf48f6e01b94c49349682953dad",
      "assetIds": []
    },
    {
      "x": 169,
      "y": 333,
      "size": 1,
      "price": "1011000000000000000000",
      "reserved": "",
      "salt": "0x06c54c39474f6605e46bdd7293d35aaaeb51b75bfb60a0885d2835eca9b6c5b5",
      "assetIds": []
    },
    {
      "x": 169,
      "y": 334,
      "size": 1,
      "price": "4683000000000000000000",
      "reserved": "",
      "salt": "0x2ec202457279fbdbf154ad58078f35578aa4a8fd62c179fb08ffe02b4688e5fa",
      "assetIds": [
        "55464657044963196816950587289035428064568320970692304673817341489687790884865",
        "55464657044963196816950587289035428064568320970692304673817341489687782494208",
        "55464657044963196816950587289035428064568320970692304673817341489687790884866",
        "55464657044963196816950587289035428064568320970692304673817341489687782494209",
        "55464657044963196816950587289035428064568320970692304673817341489687790884864"
      ]
    },
    {
      "x": 169,
      "y": 335,
      "size": 1,
      "price": "4683000000000000000000",
      "reserved": "",
      "salt": "0xebc7eb475df5bf3157de39dd8d87603cb7746fe5018cdbe8c92bcc88f93329fb",
      "assetIds": [
        "55464657044963196816950587289035428064568320970692304673817341489687790884865",
        "55464657044963196816950587289035428064568320970692304673817341489687782494208",
        "55464657044963196816950587289035428064568320970692304673817341489687790884866",
        "55464657044963196816950587289035428064568320970692304673817341489687782494209",
        "55464657044963196816950587289035428064568320970692304673817341489687790884864"
      ]
    },
    {
      "x": 169,
      "y": 342,
      "size": 1,
      "price": "4683000000000000000000",
      "reserved": "",
      "salt": "0xd7bed418a4b7a244f8a73875a637c0dee8d6ff92e3b14618db3999fb558b02be",
      "assetIds": [
        "55464657044963196816950587289035428064568320970692304673817341489687790884865",
        "55464657044963196816950587289035428064568320970692304673817341489687782494208",
        "55464657044963196816950587289035428064568320970692304673817341489687790884866",
        "55464657044963196816950587289035428064568320970692304673817341489687782494209",
        "55464657044963196816950587289035428064568320970692304673817341489687790884864"
      ]
    },
    {
      "x": 169,
      "y": 343,
      "size": 1,
      "price": "1011000000000000000000",
      "reserved": "",
      "salt": "0x3db7d1b037f0f01d39b36e34897f491d2068a3bd342b0775f32888141e16e40a",
      "assetIds": []
    },
    {
      "x": 169,
      "y": 344,
      "size": 1,
      "price": "1011000000000000000000",
      "reserved": "0x7a9fe22691c811ea339d9b73150e6911a5343dca",
      "salt": "0x236b11089b50fa47a6a7c904d495430a0888ddc8ced5cc3f9cc328d4c4eca3ea",
      "assetIds": []
    },
    {
      "x": 169,
      "y": 345,
      "size": 1,
      "price": "1011000000000000000000",
      "reserved": "",
      "salt": "0x495110ab091a8b6b44c706e5061ab43c7dbbcd1536abd9962fb3584710817d84",
      "assetIds": []
    },
    {
      "x": 169,
      "y": 346,
      "size": 1,
      "price": "1011000000000000000000",
      "reserved": "",
      "salt": "0x094db88b50b2c1c41367659ff678b632588fe0b7763ff09b185c76cb5a7451fe",
      "assetIds": []
    },
    {
      "x": 169,
      "y": 347,
      "size": 1,
      "price": "1011000000000000000000",
      "reserved": "0x7a9fe22691c811ea339d9b73150e6911a5343dca",
      "salt": "0x729c7584125950f9f3580f2b4289bc4db643b425694e47e33475d272e0de5bf5",
      "assetIds": []
    },
    {
      "x": 170,
      "y": 312,
      "size": 1,
      "price": "1011000000000000000000",
      "reserved": "",
      "salt": "0xd7851cd23d05587171fb2234fd87f655357fa1c0b4a441ea9f5c32712f12942c",
      "assetIds": []
    },
    {
      "x": 170,
      "y": 313,
      "size": 1,
      "price": "1011000000000000000000",
      "reserved": "",
      "salt": "0x6316ad5b3b56ca9b8f402af1ddbc73da37a327d9c0676b2d3accfa2641e556f8",
      "assetIds": []
    },
    {
      "x": 170,
      "y": 314,
      "size": 1,
      "price": "1011000000000000000000",
      "reserved": "",
      "salt": "0x112cc5b31636f01bfd5b8b6dee9c27eff655b6ec5d341f988f3a1bf77ceddce5",
      "assetIds": []
    },
    {
      "x": 170,
      "y": 315,
      "size": 1,
      "price": "1011000000000000000000",
      "reserved": "",
      "salt": "0x90339530ce85225f3114eb406b74af79b6d6e8513fd93b897691b12d521dced0",
      "assetIds": []
    },
    {
      "x": 170,
      "y": 316,
      "size": 1,
      "price": "1011000000000000000000",
      "reserved": "0x7a9fe22691c811ea339d9b73150e6911a5343dca",
      "salt": "0x14b442ef16097ef717986817224cbdd9f94a98a8198be5698e012f43c788f124",
      "assetIds": []
    },
    {
      "x": 170,
      "y": 317,
      "size": 1,
      "price": "1011000000000000000000",
      "reserved": "",
      "salt": "0x4ca4c1d214c3001a8ff5b6fc741064fa4bb1203ec0dfc2e0697084ce04192f90",
      "assetIds": []
    },
    {
      "x": 170,
      "y": 318,
      "size": 1,
      "price": "1011000000000000000000",
      "reserved": "",
      "salt": "0x15f86293e019632f64130051dd187181598aa13b9e1dd7c91df5d2afa2588d56",
      "assetIds": []
    },
    {
      "x": 170,
      "y": 319,
      "size": 1,
      "price": "1011000000000000000000",
      "reserved": "",
      "salt": "0x159494748a8055200d61de7a4319bbd7966379ed39a6ecd26c76765a3787c21a",
      "assetIds": []
    },
    {
      "x": 170,
      "y": 320,
      "size": 1,
      "price": "1011000000000000000000",
      "reserved": "",
      "salt": "0x4e4e1ba1473fbb6ed3c239a839f7dbf4f7fd4acde531bd65ece3030a3af1d91f",
      "assetIds": []
    },
    {
      "x": 170,
      "y": 321,
      "size": 1,
      "price": "1011000000000000000000",
      "reserved": "",
      "salt": "0x5f6eccc731ea8fa59af8fade9aff2f457a5b12050f4663ff84ca25547028868e",
      "assetIds": []
    },
    {
      "x": 170,
      "y": 322,
      "size": 1,
      "price": "4683000000000000000000",
      "reserved": "",
      "salt": "0x2eb8f239b92bd214add7a50c7f75e3a8431bdbef29817ce24e137913176320ad",
      "assetIds": [
        "55464657044963196816950587289035428064568320970692304673817341489687790884865",
        "55464657044963196816950587289035428064568320970692304673817341489687782494208",
        "55464657044963196816950587289035428064568320970692304673817341489687790884866",
        "55464657044963196816950587289035428064568320970692304673817341489687782494209",
        "55464657044963196816950587289035428064568320970692304673817341489687790884864"
      ]
    },
    {
      "x": 170,
      "y": 323,
      "size": 1,
      "price": "4683000000000000000000",
      "reserved": "",
      "salt": "0xd567208bf4c6a85f65c80a64393a2363ea77a36d8ee66409fdd55f5f71788394",
      "assetIds": [
        "55464657044963196816950587289035428064568320970692304673817341489687790884865",
        "55464657044963196816950587289035428064568320970692304673817341489687782494208",
        "55464657044963196816950587289035428064568320970692304673817341489687790884866",
        "55464657044963196816950587289035428064568320970692304673817341489687782494209",
        "55464657044963196816950587289035428064568320970692304673817341489687790884864"
      ]
    },
    {
      "x": 170,
      "y": 330,
      "size": 1,
      "price": "4683000000000000000000",
      "reserved": "",
      "salt": "0x70c40e623cc644a0e4a3f0ccb29abe2708868b9706279bd3457bef48eae00e53",
      "assetIds": [
        "55464657044963196816950587289035428064568320970692304673817341489687790884865",
        "55464657044963196816950587289035428064568320970692304673817341489687782494208",
        "55464657044963196816950587289035428064568320970692304673817341489687790884866",
        "55464657044963196816950587289035428064568320970692304673817341489687782494209",
        "55464657044963196816950587289035428064568320970692304673817341489687790884864"
      ]
    },
    {
      "x": 170,
      "y": 331,
      "size": 1,
      "price": "4683000000000000000000",
      "reserved": "",
      "salt": "0xc81cb0c69fe0de7db911fae6f740692df8fd09237744017bf1fa4df3af08f69c",
      "assetIds": [
        "55464657044963196816950587289035428064568320970692304673817341489687790884865",
        "55464657044963196816950587289035428064568320970692304673817341489687782494208",
        "55464657044963196816950587289035428064568320970692304673817341489687790884866",
        "55464657044963196816950587289035428064568320970692304673817341489687782494209",
        "55464657044963196816950587289035428064568320970692304673817341489687790884864"
      ]
    },
    {
      "x": 170,
      "y": 332,
      "size": 1,
      "price": "1011000000000000000000",
      "reserved": "",
      "salt": "0xf0c955a006af20e0732bb00bcc16d1a73119e5579ee880ad5ba929301aa7080f",
      "assetIds": []
    },
    {
      "x": 170,
      "y": 333,
      "size": 1,
      "price": "1011000000000000000000",
      "reserved": "",
      "salt": "0x11b850fd7e371b2d872b6644c31f23babed9c3e6aaf73eb2d2853fdde45edd0a",
      "assetIds": []
    },
    {
      "x": 170,
      "y": 334,
      "size": 1,
      "price": "1011000000000000000000",
      "reserved": "",
      "salt": "0xa9d6ec6d75e1d7cc5967555b0247cc7a459a6a0576aa78962e5c6a05d0b840a2",
      "assetIds": []
    },
    {
      "x": 170,
      "y": 335,
      "size": 1,
      "price": "4683000000000000000000",
      "reserved": "",
      "salt": "0x903ef0303fab7f38a1b38f4d30f2545529e3b9c4637e5c776d466174b206dc70",
      "assetIds": [
        "55464657044963196816950587289035428064568320970692304673817341489687790884865",
        "55464657044963196816950587289035428064568320970692304673817341489687782494208",
        "55464657044963196816950587289035428064568320970692304673817341489687790884866",
        "55464657044963196816950587289035428064568320970692304673817341489687782494209",
        "55464657044963196816950587289035428064568320970692304673817341489687790884864"
      ]
    },
    {
      "x": 170,
      "y": 342,
      "size": 1,
      "price": "4683000000000000000000",
      "reserved": "",
      "salt": "0xdf215e9165688fef55cfc3d8021fbde05705af62c1e266d43876fd17cf455860",
      "assetIds": [
        "55464657044963196816950587289035428064568320970692304673817341489687790884865",
        "55464657044963196816950587289035428064568320970692304673817341489687782494208",
        "55464657044963196816950587289035428064568320970692304673817341489687790884866",
        "55464657044963196816950587289035428064568320970692304673817341489687782494209",
        "55464657044963196816950587289035428064568320970692304673817341489687790884864"
      ]
    },
    {
      "x": 170,
      "y": 343,
      "size": 1,
      "price": "1011000000000000000000",
      "reserved": "",
      "salt": "0x3b908200b895975619cbcb31c731e226e3e1b7a0022db542e1dae6d6d01e965d",
      "assetIds": []
    },
    {
      "x": 170,
      "y": 344,
      "size": 1,
      "price": "1011000000000000000000",
      "reserved": "",
      "salt": "0x025c0309a9c21d515fa5b74ad13a59367d901de0ca9f5396a2a0285ac60ac6fc",
      "assetIds": []
    },
    {
      "x": 170,
      "y": 345,
      "size": 1,
      "price": "1011000000000000000000",
      "reserved": "",
      "salt": "0x2a486bca371ee4dd49a3469c526cec940c8d18ad6d68acccfa77574099fa0cfd",
      "assetIds": []
    },
    {
      "x": 170,
      "y": 346,
      "size": 1,
      "price": "1011000000000000000000",
      "reserved": "",
      "salt": "0x9a2f41d4fbb1fb5d28e93e77faa30e6a0d3d7936c530d898e29d5f4616f4680c",
      "assetIds": []
    },
    {
      "x": 170,
      "y": 347,
      "size": 1,
      "price": "1011000000000000000000",
      "reserved": "",
      "salt": "0x7d0988acc16738fb4956da6752b136eca0b97477730335abc61b636adc505924",
      "assetIds": []
    },
    {
      "x": 171,
      "y": 312,
      "size": 1,
      "price": "1011000000000000000000",
      "reserved": "",
      "salt": "0x3935638a7271f0bf3499edc5cb5133a2aebd537a185f89dc78b14ec15a964c49",
      "assetIds": []
    },
    {
      "x": 171,
      "y": 313,
      "size": 1,
      "price": "1011000000000000000000",
      "reserved": "",
      "salt": "0xee86e100b5fcb986cc2a24e6b5c818846ffa656aae2e365f5983390791fe22d9",
      "assetIds": []
    },
    {
      "x": 171,
      "y": 314,
      "size": 1,
      "price": "1011000000000000000000",
      "reserved": "",
      "salt": "0x50bddfa0f02030a8b176d303a8c96e893ace505c8e59133bed3ac8f449760edd",
      "assetIds": []
    },
    {
      "x": 171,
      "y": 315,
      "size": 1,
      "price": "1011000000000000000000",
      "reserved": "",
      "salt": "0xa25ba9cf3d983117c6aed764ca091ec8e44903e8fd7275a25bd4505297e3b11b",
      "assetIds": []
    },
    {
      "x": 171,
      "y": 316,
      "size": 1,
      "price": "1011000000000000000000",
      "reserved": "",
      "salt": "0x337727a9d4cbe3c6d84d308aa3e564b111c8496d2a8e7fe02aa27173b6595c80",
      "assetIds": []
    },
    {
      "x": 171,
      "y": 317,
      "size": 1,
      "price": "1011000000000000000000",
      "reserved": "",
      "salt": "0x5eda3505a728d8d3fc43bcfef4a6139c30ae20bb0cd17a066647bdcaf6876ca4",
      "assetIds": []
    },
    {
      "x": 171,
      "y": 318,
      "size": 1,
      "price": "1011000000000000000000",
      "reserved": "",
      "salt": "0xef567ad4f922a95ec2d30aa2e73a76ee92338a0768d4b1b13a9dd33a2d96a83c",
      "assetIds": []
    },
    {
      "x": 171,
      "y": 319,
      "size": 1,
      "price": "1011000000000000000000",
      "reserved": "",
      "salt": "0xf157671ecbda3b19bf35def8807f25485cd3ee3b888bf5d07b7dc02a6d49e07f",
      "assetIds": []
    },
    {
      "x": 171,
      "y": 320,
      "size": 1,
      "price": "1011000000000000000000",
      "reserved": "",
      "salt": "0xf751006efa2745850338d2c1b4984f8be4dad1ac6169fb75e9e4b5d59655c4db",
      "assetIds": []
    },
    {
      "x": 171,
      "y": 321,
      "size": 1,
      "price": "1011000000000000000000",
      "reserved": "",
      "salt": "0x48ac2f35ff881209b9c5c93c776a9c01f85db6b2efffaa3c48afe67f6341a321",
      "assetIds": []
    },
    {
      "x": 171,
      "y": 322,
      "size": 1,
      "price": "4683000000000000000000",
      "reserved": "",
      "salt": "0x5b2337381e10f99fb9a7ca7b421e2fd9e73d351064fede64d99ae42a28e883fc",
      "assetIds": [
        "55464657044963196816950587289035428064568320970692304673817341489687790884865",
        "55464657044963196816950587289035428064568320970692304673817341489687782494208",
        "55464657044963196816950587289035428064568320970692304673817341489687790884866",
        "55464657044963196816950587289035428064568320970692304673817341489687782494209",
        "55464657044963196816950587289035428064568320970692304673817341489687790884864"
      ]
    },
    {
      "x": 171,
      "y": 323,
      "size": 1,
      "price": "4683000000000000000000",
      "reserved": "",
      "salt": "0x03e6000c592552a47c256bd5021038538c0349b80a2d125b93755ed6881afcad",
      "assetIds": [
        "55464657044963196816950587289035428064568320970692304673817341489687790884865",
        "55464657044963196816950587289035428064568320970692304673817341489687782494208",
        "55464657044963196816950587289035428064568320970692304673817341489687790884866",
        "55464657044963196816950587289035428064568320970692304673817341489687782494209",
        "55464657044963196816950587289035428064568320970692304673817341489687790884864"
      ]
    },
    {
      "x": 171,
      "y": 330,
      "size": 1,
      "price": "4683000000000000000000",
      "reserved": "",
      "salt": "0x933cd3fc22f9414014bee082c5aba6cd24afe3b24366c289db1e6d8b3dc33405",
      "assetIds": [
        "55464657044963196816950587289035428064568320970692304673817341489687790884865",
        "55464657044963196816950587289035428064568320970692304673817341489687782494208",
        "55464657044963196816950587289035428064568320970692304673817341489687790884866",
        "55464657044963196816950587289035428064568320970692304673817341489687782494209",
        "55464657044963196816950587289035428064568320970692304673817341489687790884864"
      ]
    },
    {
      "x": 171,
      "y": 331,
      "size": 1,
      "price": "4683000000000000000000",
      "reserved": "",
      "salt": "0xd394a62d3b97b48783ab1d86f775339cc6206701f9d95271e08a3316d4a3acd3",
      "assetIds": [
        "55464657044963196816950587289035428064568320970692304673817341489687790884865",
        "55464657044963196816950587289035428064568320970692304673817341489687782494208",
        "55464657044963196816950587289035428064568320970692304673817341489687790884866",
        "55464657044963196816950587289035428064568320970692304673817341489687782494209",
        "55464657044963196816950587289035428064568320970692304673817341489687790884864"
      ]
    },
    {
      "x": 171,
      "y": 332,
      "size": 1,
      "price": "1011000000000000000000",
      "reserved": "",
      "salt": "0x471e55040004bac31065f34ed5138ab6009bb5eb2bd7e39240699dc52324471a",
      "assetIds": []
    },
    {
      "x": 171,
      "y": 333,
      "size": 1,
      "price": "1011000000000000000000",
      "reserved": "",
      "salt": "0x1b77fea155fa37ea59eb571d53a808c11140ba5cc342cd73783baf1299af3bb7",
      "assetIds": []
    },
    {
      "x": 171,
      "y": 334,
      "size": 1,
      "price": "1011000000000000000000",
      "reserved": "",
      "salt": "0x96a73de304f677254dad4d38d0f34bb00383ad536c07491cf492fa5c61b0e128",
      "assetIds": []
    },
    {
      "x": 171,
      "y": 335,
      "size": 1,
      "price": "4683000000000000000000",
      "reserved": "",
      "salt": "0x085698e5f04db855df6629c177bb4fe390635bc3166e2e85512dd0ae6bff35ee",
      "assetIds": [
        "55464657044963196816950587289035428064568320970692304673817341489687790884865",
        "55464657044963196816950587289035428064568320970692304673817341489687782494208",
        "55464657044963196816950587289035428064568320970692304673817341489687790884866",
        "55464657044963196816950587289035428064568320970692304673817341489687782494209",
        "55464657044963196816950587289035428064568320970692304673817341489687790884864"
      ]
    },
    {
      "x": 171,
      "y": 342,
      "size": 1,
      "price": "4683000000000000000000",
      "reserved": "",
      "salt": "0x7aa85a0ed26429cd111ca0f1ef83ccd505849f8d50591dd3c14d4aa50ec3270b",
      "assetIds": [
        "55464657044963196816950587289035428064568320970692304673817341489687790884865",
        "55464657044963196816950587289035428064568320970692304673817341489687782494208",
        "55464657044963196816950587289035428064568320970692304673817341489687790884866",
        "55464657044963196816950587289035428064568320970692304673817341489687782494209",
        "55464657044963196816950587289035428064568320970692304673817341489687790884864"
      ]
    },
    {
      "x": 171,
      "y": 343,
      "size": 1,
      "price": "1011000000000000000000",
      "reserved": "0x7a9fe22691c811ea339d9b73150e6911a5343dca",
      "salt": "0x98aff02fbb850c517d2569646bc8f7a38486b01539383722f9d7f96fe3974603",
      "assetIds": []
    },
    {
      "x": 171,
      "y": 344,
      "size": 1,
      "price": "1011000000000000000000",
      "reserved": "",
      "salt": "0xa4c1700b0daa7161798d560cd97596cd3b23e998b1558dfe2be71c1a85ea1ffb",
      "assetIds": []
    },
    {
      "x": 171,
      "y": 345,
      "size": 1,
      "price": "1011000000000000000000",
      "reserved": "",
      "salt": "0x84df0a401b10041f8517259951b2138efba541251f274e67221e64043edd52dc",
      "assetIds": []
    },
    {
      "x": 171,
      "y": 346,
      "size": 1,
      "price": "1011000000000000000000",
      "reserved": "",
      "salt": "0x06b1ad857560d98db380ff9fbd88b35e0b15848e5b11fc6db30536af6fb1b247",
      "assetIds": []
    },
    {
      "x": 171,
      "y": 347,
      "size": 1,
      "price": "1011000000000000000000",
      "reserved": "",
      "salt": "0x630f39d002ab96db2af74a9180b03d8d911b4d313a5c9b4258f054335eeb7b27",
      "assetIds": []
    },
    {
      "x": 172,
      "y": 312,
      "size": 1,
      "price": "1011000000000000000000",
      "reserved": "",
      "salt": "0xe41a7c99bf3b213c1b842a7eeff47b1409ced5b52ae8bdf8cf4ae0ff2fc7ed19",
      "assetIds": []
    },
    {
      "x": 172,
      "y": 313,
      "size": 1,
      "price": "1011000000000000000000",
      "reserved": "",
      "salt": "0xc9cb4cda0d6cb45529f081b666e78e7681ba629c13b24cd90cacd6203e9888da",
      "assetIds": []
    },
    {
      "x": 172,
      "y": 314,
      "size": 1,
      "price": "1011000000000000000000",
      "reserved": "",
      "salt": "0xd863f0988bd89ab2d82ab5db1b7b9e202b3576d761706fe15147a275ae19150e",
      "assetIds": []
    },
    {
      "x": 172,
      "y": 315,
      "size": 1,
      "price": "1011000000000000000000",
      "reserved": "",
      "salt": "0xd80e13d374fe27234621a6fea8734615f3af177ee50ec47200c94ac7a96e726b",
      "assetIds": []
    },
    {
      "x": 172,
      "y": 316,
      "size": 1,
      "price": "1011000000000000000000",
      "reserved": "",
      "salt": "0xf2279301bcdf4eb25ed834e7c042dea4794bdb06a35ff4d50cec7eba3907611e",
      "assetIds": []
    },
    {
      "x": 172,
      "y": 317,
      "size": 1,
      "price": "1011000000000000000000",
      "reserved": "",
      "salt": "0xde7c482634d8721e51616c9b28b8f2d98b0ec087d79636b40ea5800fb7b0cb39",
      "assetIds": []
    },
    {
      "x": 172,
      "y": 318,
      "size": 1,
      "price": "1011000000000000000000",
      "reserved": "",
      "salt": "0x31d011035175bb2f66afabef5389d6b95f638c70171c1857cce6bdfe8dec6702",
      "assetIds": []
    },
    {
      "x": 172,
      "y": 319,
      "size": 1,
      "price": "1011000000000000000000",
      "reserved": "",
      "salt": "0x50b3a847db1217d65b72d7b6d04e5fec0e6d8614be5ad0fcd8ddce3aec966eee",
      "assetIds": []
    },
    {
      "x": 172,
      "y": 320,
      "size": 1,
      "price": "1011000000000000000000",
      "reserved": "",
      "salt": "0x6f8843650897056fb68e241def5a165bd9c89baf19f57a805832acd1808f6ff9",
      "assetIds": []
    },
    {
      "x": 172,
      "y": 321,
      "size": 1,
      "price": "1011000000000000000000",
      "reserved": "",
      "salt": "0x039169cdc367f7ebdea59b1110667b617a9e1f15d885990156c319c807e8c85b",
      "assetIds": []
    },
    {
      "x": 172,
      "y": 322,
      "size": 1,
      "price": "4683000000000000000000",
      "reserved": "",
      "salt": "0xbbde14655a876662d021b3dbeee881f476a4bbd74e5b6a6f5f35a9a3e5956b57",
      "assetIds": [
        "55464657044963196816950587289035428064568320970692304673817341489687790884865",
        "55464657044963196816950587289035428064568320970692304673817341489687782494208",
        "55464657044963196816950587289035428064568320970692304673817341489687790884866",
        "55464657044963196816950587289035428064568320970692304673817341489687782494209",
        "55464657044963196816950587289035428064568320970692304673817341489687790884864"
      ]
    },
    {
      "x": 172,
      "y": 323,
      "size": 1,
      "price": "4683000000000000000000",
      "reserved": "",
      "salt": "0xa5bd8cf497b3f4f9e5fca1af5f83fef97d3ab3c96f665a75e24876852dbf2edc",
      "assetIds": [
        "55464657044963196816950587289035428064568320970692304673817341489687790884865",
        "55464657044963196816950587289035428064568320970692304673817341489687782494208",
        "55464657044963196816950587289035428064568320970692304673817341489687790884866",
        "55464657044963196816950587289035428064568320970692304673817341489687782494209",
        "55464657044963196816950587289035428064568320970692304673817341489687790884864"
      ]
    },
    {
      "x": 172,
      "y": 330,
      "size": 1,
      "price": "4683000000000000000000",
      "reserved": "",
      "salt": "0xa7c1eccd9196c4c34bd1f746c23fc8c593982e7782f18fbed7bd41bcf4b15831",
      "assetIds": [
        "55464657044963196816950587289035428064568320970692304673817341489687790884865",
        "55464657044963196816950587289035428064568320970692304673817341489687782494208",
        "55464657044963196816950587289035428064568320970692304673817341489687790884866",
        "55464657044963196816950587289035428064568320970692304673817341489687782494209",
        "55464657044963196816950587289035428064568320970692304673817341489687790884864"
      ]
    },
    {
      "x": 172,
      "y": 331,
      "size": 1,
      "price": "1011000000000000000000",
      "reserved": "0x7a9fe22691c811ea339d9b73150e6911a5343dca",
      "salt": "0x904dd9f223cb8fe969473605794d4a65342f47d8883f047a193c53738b4a16e0",
      "assetIds": []
    },
    {
      "x": 172,
      "y": 332,
      "size": 1,
      "price": "1011000000000000000000",
      "reserved": "",
      "salt": "0x2eebde8ac0ee73886b22d306d21777528098b98ed61d3fff1f0f3584815c3e08",
      "assetIds": []
    },
    {
      "x": 172,
      "y": 333,
      "size": 1,
      "price": "1011000000000000000000",
      "reserved": "",
      "salt": "0xa13670de9fd261d42cfe9d975eccb82f3d72c91f49f9362a508619489bfded20",
      "assetIds": []
    },
    {
      "x": 172,
      "y": 334,
      "size": 1,
      "price": "1011000000000000000000",
      "reserved": "",
      "salt": "0x0a8c285919866987fae806fc43088c1d48a5646df710582709115502d7ca47f3",
      "assetIds": []
    },
    {
      "x": 172,
      "y": 335,
      "size": 1,
      "price": "4683000000000000000000",
      "reserved": "",
      "salt": "0x581866c0d5c079dbd10025b3fdbb272111eca7459824f9015e17a8a38f7126ee",
      "assetIds": [
        "55464657044963196816950587289035428064568320970692304673817341489687790884865",
        "55464657044963196816950587289035428064568320970692304673817341489687782494208",
        "55464657044963196816950587289035428064568320970692304673817341489687790884866",
        "55464657044963196816950587289035428064568320970692304673817341489687782494209",
        "55464657044963196816950587289035428064568320970692304673817341489687790884864"
      ]
    },
    {
      "x": 172,
      "y": 342,
      "size": 1,
      "price": "4683000000000000000000",
      "reserved": "",
      "salt": "0xdbe4037662c7a8e79ff48aa2e478b336730318814e920286715938b175849f29",
      "assetIds": [
        "55464657044963196816950587289035428064568320970692304673817341489687790884865",
        "55464657044963196816950587289035428064568320970692304673817341489687782494208",
        "55464657044963196816950587289035428064568320970692304673817341489687790884866",
        "55464657044963196816950587289035428064568320970692304673817341489687782494209",
        "55464657044963196816950587289035428064568320970692304673817341489687790884864"
      ]
    },
    {
      "x": 172,
      "y": 343,
      "size": 1,
      "price": "1011000000000000000000",
      "reserved": "",
      "salt": "0x89fbf6118dce84528a2e5b628ab3cdbf30bfd01635169aac8fa1c9d737e35733",
      "assetIds": []
    },
    {
      "x": 172,
      "y": 344,
      "size": 1,
      "price": "1011000000000000000000",
      "reserved": "",
      "salt": "0x05c36f4956a6a41f872e89511f0ecc3208d7b83d2eed92d86fe5db6c4abeded0",
      "assetIds": []
    },
    {
      "x": 172,
      "y": 345,
      "size": 1,
      "price": "1011000000000000000000",
      "reserved": "",
      "salt": "0xb57a70e4c6606c3b4a11c00371670f705b6c09136f538f53b1762371d26b7d10",
      "assetIds": []
    },
    {
      "x": 172,
      "y": 346,
      "size": 1,
      "price": "1011000000000000000000",
      "reserved": "0x7a9fe22691c811ea339d9b73150e6911a5343dca",
      "salt": "0xd1d57cd2ecf26ebebed7b393c5b0baf41cdede1fad9e4c59dda0faceee23ea2f",
      "assetIds": []
    },
    {
      "x": 172,
      "y": 347,
      "size": 1,
      "price": "1011000000000000000000",
      "reserved": "",
      "salt": "0x74ad43b3f37173b8a6eb4faa79923a74907288f28dd8979bd969db7b23d5ba8f",
      "assetIds": []
    },
    {
      "x": 173,
      "y": 312,
      "size": 1,
      "price": "1011000000000000000000",
      "reserved": "0x7a9fe22691c811ea339d9b73150e6911a5343dca",
      "salt": "0x243441e6af505db412a6701f3b2db41615999562298afa401ce02aa8375d8a6d",
      "assetIds": []
    },
    {
      "x": 173,
      "y": 313,
      "size": 1,
      "price": "1011000000000000000000",
      "reserved": "0x7a9fe22691c811ea339d9b73150e6911a5343dca",
      "salt": "0x7c0eaafaddf68361cbc2e9eedce6bff2b87e3b5adc01b98b1ed1184e1c9f066a",
      "assetIds": []
    },
    {
      "x": 173,
      "y": 314,
      "size": 1,
      "price": "1011000000000000000000",
      "reserved": "",
      "salt": "0x99559e9233f96956d076959fd3915bd4352116b099fb63dd29cf0f67def91a8b",
      "assetIds": []
    },
    {
      "x": 173,
      "y": 315,
      "size": 1,
      "price": "1011000000000000000000",
      "reserved": "",
      "salt": "0xe33664e5845846b416d6d78bad8eaed5fb314f1fc677785811b879835f68eace",
      "assetIds": []
    },
    {
      "x": 173,
      "y": 316,
      "size": 1,
      "price": "1011000000000000000000",
      "reserved": "",
      "salt": "0x13fce7a761145e5a34d369ee7c73073d73d6575393a5efe8becfae2d8a6d84d6",
      "assetIds": []
    },
    {
      "x": 173,
      "y": 317,
      "size": 1,
      "price": "1011000000000000000000",
      "reserved": "",
      "salt": "0xe31bc58889fb17202e795dae29c51b2b9883acd8ed34eea1b9f8bc038d5d9d76",
      "assetIds": []
    },
    {
      "x": 173,
      "y": 318,
      "size": 1,
      "price": "1011000000000000000000",
      "reserved": "",
      "salt": "0x42d58189e4dd0c187597e146e7f791087156e309bb663a974e8f83862b5fa223",
      "assetIds": []
    },
    {
      "x": 173,
      "y": 319,
      "size": 1,
      "price": "1011000000000000000000",
      "reserved": "",
      "salt": "0x36952724ee12a743e4cd335b5c2cb03335eb784ab521c1a9df7d32789fdf21f9",
      "assetIds": []
    },
    {
      "x": 173,
      "y": 320,
      "size": 1,
      "price": "1011000000000000000000",
      "reserved": "",
      "salt": "0x9da606a1a260611fc42830469567276b2582ad7b6da44589399dbf4b7c4b3e1d",
      "assetIds": []
    },
    {
      "x": 173,
      "y": 321,
      "size": 1,
      "price": "1011000000000000000000",
      "reserved": "",
      "salt": "0x38b4be18a8facc9d45a0123314213dc9e6c306b2fa07879aa95b70b1b16bb872",
      "assetIds": []
    },
    {
      "x": 173,
      "y": 322,
      "size": 1,
      "price": "1011000000000000000000",
      "reserved": "",
      "salt": "0xad050ac852447b5ef6c65e2df79da8f791c95b6f4565d74791ffa40a4551f9ff",
      "assetIds": []
    },
    {
      "x": 173,
      "y": 323,
      "size": 1,
      "price": "4683000000000000000000",
      "reserved": "",
      "salt": "0x332eaa70a41ea5b014dd917d7bdfdcdfdcaf7d84c501e968006c5202d3ff6a11",
      "assetIds": [
        "55464657044963196816950587289035428064568320970692304673817341489687790884865",
        "55464657044963196816950587289035428064568320970692304673817341489687782494208",
        "55464657044963196816950587289035428064568320970692304673817341489687790884866",
        "55464657044963196816950587289035428064568320970692304673817341489687782494209",
        "55464657044963196816950587289035428064568320970692304673817341489687790884864"
      ]
    },
    {
      "x": 173,
      "y": 330,
      "size": 1,
      "price": "4683000000000000000000",
      "reserved": "",
      "salt": "0x8bbec6d0f109063032283faa10309bd47ae3ed666c31f6a2f5a8bcfd488c201c",
      "assetIds": [
        "55464657044963196816950587289035428064568320970692304673817341489687790884865",
        "55464657044963196816950587289035428064568320970692304673817341489687782494208",
        "55464657044963196816950587289035428064568320970692304673817341489687790884866",
        "55464657044963196816950587289035428064568320970692304673817341489687782494209",
        "55464657044963196816950587289035428064568320970692304673817341489687790884864"
      ]
    },
    {
      "x": 173,
      "y": 331,
      "size": 1,
      "price": "4683000000000000000000",
      "reserved": "",
      "salt": "0x3575d18cf50a01eeacb32c7ad2bcfb8c33afcb3a7cb960d4bfcdb39b155696a6",
      "assetIds": [
        "55464657044963196816950587289035428064568320970692304673817341489687790884865",
        "55464657044963196816950587289035428064568320970692304673817341489687782494208",
        "55464657044963196816950587289035428064568320970692304673817341489687790884866",
        "55464657044963196816950587289035428064568320970692304673817341489687782494209",
        "55464657044963196816950587289035428064568320970692304673817341489687790884864"
      ]
    },
    {
      "x": 173,
      "y": 332,
      "size": 1,
      "price": "1011000000000000000000",
      "reserved": "",
      "salt": "0xc435c89c4d20a931a3b86395ebcfe95af62a0cc63b5846f880ca27d62d7b6149",
      "assetIds": []
    },
    {
      "x": 173,
      "y": 333,
      "size": 1,
      "price": "1011000000000000000000",
      "reserved": "0x7a9fe22691c811ea339d9b73150e6911a5343dca",
      "salt": "0xe8fcc736abec431c1f3cae97811be91121f42ed7ae59af4b110fbbd9379e1904",
      "assetIds": []
    },
    {
      "x": 173,
      "y": 334,
      "size": 1,
      "price": "1011000000000000000000",
      "reserved": "",
      "salt": "0xa015e525d94b9611b6bfbe58c4568a65132358b2a182f0617a559e9c9afa8602",
      "assetIds": []
    },
    {
      "x": 173,
      "y": 335,
      "size": 1,
      "price": "4683000000000000000000",
      "reserved": "",
      "salt": "0x0b89b40fa9beeb30a1bb9ff5b7d5a59137f7a9ea2c50ca3dd53e965dfd93e32a",
      "assetIds": [
        "55464657044963196816950587289035428064568320970692304673817341489687790884865",
        "55464657044963196816950587289035428064568320970692304673817341489687782494208",
        "55464657044963196816950587289035428064568320970692304673817341489687790884866",
        "55464657044963196816950587289035428064568320970692304673817341489687782494209",
        "55464657044963196816950587289035428064568320970692304673817341489687790884864"
      ]
    },
    {
      "x": 173,
      "y": 342,
      "size": 1,
      "price": "4683000000000000000000",
      "reserved": "",
      "salt": "0x07d20b54c01a470b3b43009571e8953c83b1c05b970ad60abc9c13c8baafea86",
      "assetIds": [
        "55464657044963196816950587289035428064568320970692304673817341489687790884865",
        "55464657044963196816950587289035428064568320970692304673817341489687782494208",
        "55464657044963196816950587289035428064568320970692304673817341489687790884866",
        "55464657044963196816950587289035428064568320970692304673817341489687782494209",
        "55464657044963196816950587289035428064568320970692304673817341489687790884864"
      ]
    },
    {
      "x": 173,
      "y": 343,
      "size": 1,
      "price": "1011000000000000000000",
      "reserved": "0x7a9fe22691c811ea339d9b73150e6911a5343dca",
      "salt": "0xfce426bce7fc662a8b4e5fbe3aaa21c824fc347da52fdd6bc835f3c73afe8f09",
      "assetIds": []
    },
    {
      "x": 173,
      "y": 344,
      "size": 1,
      "price": "1011000000000000000000",
      "reserved": "",
      "salt": "0xf33f67ef067ae307c2a5bbaf1c35ffcbd21ac8690c8d1f83d164ce89790bbb60",
      "assetIds": []
    },
    {
      "x": 173,
      "y": 345,
      "size": 1,
      "price": "1011000000000000000000",
      "reserved": "",
      "salt": "0xee37dc16ed1f2834afbe3d8475b8c565afa0532dce6c850f1bfda99b1225c4ba",
      "assetIds": []
    },
    {
      "x": 173,
      "y": 346,
      "size": 1,
      "price": "1011000000000000000000",
      "reserved": "",
      "salt": "0xec5e74f5eabaafeacc0f7ca270b0b30ce0b37d00028ab5aec6cf1344904d08ec",
      "assetIds": []
    },
    {
      "x": 173,
      "y": 347,
      "size": 1,
      "price": "1011000000000000000000",
      "reserved": "",
      "salt": "0x531f96dc8ff7e18185501c1c633291e940292d50ce50fbd1bdef085fe92f9b95",
      "assetIds": []
    },
    {
      "x": 174,
      "y": 313,
      "size": 1,
      "price": "1011000000000000000000",
      "reserved": "",
      "salt": "0x0efd3f4c5bca9d985d8c2412babcb68742089f8f267252c741b0541d444ea805",
      "assetIds": []
    },
    {
      "x": 174,
      "y": 314,
      "size": 1,
      "price": "1011000000000000000000",
      "reserved": "",
      "salt": "0xdf6b8055ff6ad90ae9ff6e70240f8fff05e4abc9325eb7baa8f9221b3fc475f0",
      "assetIds": []
    },
    {
      "x": 174,
      "y": 315,
      "size": 1,
      "price": "1011000000000000000000",
      "reserved": "",
      "salt": "0x1e9f1aff4350a7d5b490b44b719655171998d4f68f17998246db439f84459d54",
      "assetIds": []
    },
    {
      "x": 174,
      "y": 316,
      "size": 1,
      "price": "1011000000000000000000",
      "reserved": "",
      "salt": "0x726e4249c427a52efbe50653c5f51538308d17c14f7f2f70f04ae3d734ce93b1",
      "assetIds": []
    },
    {
      "x": 174,
      "y": 317,
      "size": 1,
      "price": "1011000000000000000000",
      "reserved": "",
      "salt": "0x718593cd53541abaf92833991c13b50ad326ebbdb4b38ffcdeec7ba5467ca78e",
      "assetIds": []
    },
    {
      "x": 174,
      "y": 318,
      "size": 1,
      "price": "1011000000000000000000",
      "reserved": "",
      "salt": "0xf0988c79585623edf6458b5669889f487cb2718ac297ca0c0ec94fd542c41bd7",
      "assetIds": []
    },
    {
      "x": 174,
      "y": 319,
      "size": 1,
      "price": "1011000000000000000000",
      "reserved": "",
      "salt": "0x15a8007f04d742fd8e8db221b4521293bfec591b8eaf8ceb950fc6cb417bafc4",
      "assetIds": []
    },
    {
      "x": 174,
      "y": 320,
      "size": 1,
      "price": "1011000000000000000000",
      "reserved": "",
      "salt": "0x4647412bc47ddbfe9303d4528e4b12d147accb9b2205c2fe6f18e1dc657277c3",
      "assetIds": []
    },
    {
      "x": 174,
      "y": 321,
      "size": 1,
      "price": "1011000000000000000000",
      "reserved": "0x7a9fe22691c811ea339d9b73150e6911a5343dca",
      "salt": "0xb320ccd7443a98be2bd95d0a583fcee11c754dad242b3a5c5f7206efa4a1c9b2",
      "assetIds": []
    },
    {
      "x": 174,
      "y": 322,
      "size": 1,
      "price": "1011000000000000000000",
      "reserved": "",
      "salt": "0x035862a7ff73f5fc2cf8729b4a455cc8281fbed396bfb2640785dab77a5af8fa",
      "assetIds": []
    },
    {
      "x": 174,
      "y": 323,
      "size": 1,
      "price": "4683000000000000000000",
      "reserved": "",
      "salt": "0xc3861c597f5ef568c8c518550d4b9e39a53e382eb262ea535aefc54f72a70280",
      "assetIds": [
        "55464657044963196816950587289035428064568320970692304673817341489687790884865",
        "55464657044963196816950587289035428064568320970692304673817341489687782494208",
        "55464657044963196816950587289035428064568320970692304673817341489687790884866",
        "55464657044963196816950587289035428064568320970692304673817341489687782494209",
        "55464657044963196816950587289035428064568320970692304673817341489687790884864"
      ]
    },
    {
      "x": 174,
      "y": 324,
      "size": 1,
      "price": "4683000000000000000000",
      "reserved": "",
      "salt": "0x5fe2dd782e1a3c9f20e8e0d7b051e0c1d03a73b885ece358bda6de5f47f10ab4",
      "assetIds": [
        "55464657044963196816950587289035428064568320970692304673817341489687790884865",
        "55464657044963196816950587289035428064568320970692304673817341489687782494208",
        "55464657044963196816950587289035428064568320970692304673817341489687790884866",
        "55464657044963196816950587289035428064568320970692304673817341489687782494209",
        "55464657044963196816950587289035428064568320970692304673817341489687790884864"
      ]
    },
    {
      "x": 174,
      "y": 325,
      "size": 1,
      "price": "4683000000000000000000",
      "reserved": "",
      "salt": "0xfb2fa986f30d3d961952e1119092177a88f96ee9096324e8b9a37f1c9c9cba50",
      "assetIds": [
        "55464657044963196816950587289035428064568320970692304673817341489687790884865",
        "55464657044963196816950587289035428064568320970692304673817341489687782494208",
        "55464657044963196816950587289035428064568320970692304673817341489687790884866",
        "55464657044963196816950587289035428064568320970692304673817341489687782494209",
        "55464657044963196816950587289035428064568320970692304673817341489687790884864"
      ]
    },
    {
      "x": 174,
      "y": 326,
      "size": 1,
      "price": "4683000000000000000000",
      "reserved": "",
      "salt": "0x691781b3f2a74b3bd823ea8244c139e4c59a02a2ff1840dee819e90eeef65cf1",
      "assetIds": [
        "55464657044963196816950587289035428064568320970692304673817341489687790884865",
        "55464657044963196816950587289035428064568320970692304673817341489687782494208",
        "55464657044963196816950587289035428064568320970692304673817341489687790884866",
        "55464657044963196816950587289035428064568320970692304673817341489687782494209",
        "55464657044963196816950587289035428064568320970692304673817341489687790884864"
      ]
    },
    {
      "x": 174,
      "y": 327,
      "size": 1,
      "price": "4683000000000000000000",
      "reserved": "",
      "salt": "0x60789c02848c89f847ddfb9112a72ca078e043169283ad0561b434c6e9a4699c",
      "assetIds": [
        "55464657044963196816950587289035428064568320970692304673817341489687790884865",
        "55464657044963196816950587289035428064568320970692304673817341489687782494208",
        "55464657044963196816950587289035428064568320970692304673817341489687790884866",
        "55464657044963196816950587289035428064568320970692304673817341489687782494209",
        "55464657044963196816950587289035428064568320970692304673817341489687790884864"
      ]
    },
    {
      "x": 174,
      "y": 328,
      "size": 1,
      "price": "4683000000000000000000",
      "reserved": "",
      "salt": "0x76df454b26648e2ce2500831d5bcc08b7451a098c76ea0c109c3deab5731a235",
      "assetIds": [
        "55464657044963196816950587289035428064568320970692304673817341489687790884865",
        "55464657044963196816950587289035428064568320970692304673817341489687782494208",
        "55464657044963196816950587289035428064568320970692304673817341489687790884866",
        "55464657044963196816950587289035428064568320970692304673817341489687782494209",
        "55464657044963196816950587289035428064568320970692304673817341489687790884864"
      ]
    },
    {
      "x": 174,
      "y": 329,
      "size": 1,
      "price": "4683000000000000000000",
      "reserved": "",
      "salt": "0x016c9c505f643ef39878398c2f5a540cf5c667112319b23182c633e228fb0e92",
      "assetIds": [
        "55464657044963196816950587289035428064568320970692304673817341489687790884865",
        "55464657044963196816950587289035428064568320970692304673817341489687782494208",
        "55464657044963196816950587289035428064568320970692304673817341489687790884866",
        "55464657044963196816950587289035428064568320970692304673817341489687782494209",
        "55464657044963196816950587289035428064568320970692304673817341489687790884864"
      ]
    },
    {
      "x": 174,
      "y": 330,
      "size": 1,
      "price": "4683000000000000000000",
      "reserved": "",
      "salt": "0x1a48f6bd218f6f96e3414177ff7456f09e5d0d34a87573c3894290d95d5e3632",
      "assetIds": [
        "55464657044963196816950587289035428064568320970692304673817341489687790884865",
        "55464657044963196816950587289035428064568320970692304673817341489687782494208",
        "55464657044963196816950587289035428064568320970692304673817341489687790884866",
        "55464657044963196816950587289035428064568320970692304673817341489687782494209",
        "55464657044963196816950587289035428064568320970692304673817341489687790884864"
      ]
    },
    {
      "x": 174,
      "y": 331,
      "size": 1,
      "price": "1011000000000000000000",
      "reserved": "",
      "salt": "0x99889e03943f272395fc97ae2e696fc9a645885d510790262edeb9d478adf3b9",
      "assetIds": []
    },
    {
      "x": 174,
      "y": 332,
      "size": 1,
      "price": "1011000000000000000000",
      "reserved": "",
      "salt": "0x199be514adbc543cc6655843c4f58985332de8824cfc42e80aab04c74af461e0",
      "assetIds": []
    },
    {
      "x": 174,
      "y": 333,
      "size": 1,
      "price": "1011000000000000000000",
      "reserved": "",
      "salt": "0xb7d9f6dc866307ad63c7781dbc854b3a81fadaf98132145db39f24a00d195c32",
      "assetIds": []
    },
    {
      "x": 174,
      "y": 334,
      "size": 1,
      "price": "1011000000000000000000",
      "reserved": "",
      "salt": "0xf67d75012d2d0dd8613a2056742445cca6a5ded37c0c93cf00785fb37bab3d68",
      "assetIds": []
    },
    {
      "x": 174,
      "y": 335,
      "size": 1,
      "price": "4683000000000000000000",
      "reserved": "",
      "salt": "0x58c51198330ef3ebbfa8b4d9e874ac4497044d4bc9e0bcfe25a623a95fa6100f",
      "assetIds": [
        "55464657044963196816950587289035428064568320970692304673817341489687790884865",
        "55464657044963196816950587289035428064568320970692304673817341489687782494208",
        "55464657044963196816950587289035428064568320970692304673817341489687790884866",
        "55464657044963196816950587289035428064568320970692304673817341489687782494209",
        "55464657044963196816950587289035428064568320970692304673817341489687790884864"
      ]
    },
    {
      "x": 174,
      "y": 336,
      "size": 1,
      "price": "4683000000000000000000",
      "reserved": "",
      "salt": "0x9d5ef097d10830df1258df5dc77403c65b1885339d02c48498adaea98334166c",
      "assetIds": [
        "55464657044963196816950587289035428064568320970692304673817341489687790884865",
        "55464657044963196816950587289035428064568320970692304673817341489687782494208",
        "55464657044963196816950587289035428064568320970692304673817341489687790884866",
        "55464657044963196816950587289035428064568320970692304673817341489687782494209",
        "55464657044963196816950587289035428064568320970692304673817341489687790884864"
      ]
    },
    {
      "x": 174,
      "y": 337,
      "size": 1,
      "price": "4683000000000000000000",
      "reserved": "",
      "salt": "0x136969626cbb65defbc3fbef8c6ed09ec913365a0c32523a2562f0da5e06e7e1",
      "assetIds": [
        "55464657044963196816950587289035428064568320970692304673817341489687790884865",
        "55464657044963196816950587289035428064568320970692304673817341489687782494208",
        "55464657044963196816950587289035428064568320970692304673817341489687790884866",
        "55464657044963196816950587289035428064568320970692304673817341489687782494209",
        "55464657044963196816950587289035428064568320970692304673817341489687790884864"
      ]
    },
    {
      "x": 174,
      "y": 338,
      "size": 1,
      "price": "4683000000000000000000",
      "reserved": "",
      "salt": "0x520e9492156e158cd372d99aeae86319ccbd225724353c7bb90828576e1f34f8",
      "assetIds": [
        "55464657044963196816950587289035428064568320970692304673817341489687790884865",
        "55464657044963196816950587289035428064568320970692304673817341489687782494208",
        "55464657044963196816950587289035428064568320970692304673817341489687790884866",
        "55464657044963196816950587289035428064568320970692304673817341489687782494209",
        "55464657044963196816950587289035428064568320970692304673817341489687790884864"
      ]
    },
    {
      "x": 174,
      "y": 339,
      "size": 1,
      "price": "4683000000000000000000",
      "reserved": "",
      "salt": "0x879f3c3dab0b29d5e3526f6f8746c98d2434e1b20db26b37209ce4fa8b09c1b4",
      "assetIds": [
        "55464657044963196816950587289035428064568320970692304673817341489687790884865",
        "55464657044963196816950587289035428064568320970692304673817341489687782494208",
        "55464657044963196816950587289035428064568320970692304673817341489687790884866",
        "55464657044963196816950587289035428064568320970692304673817341489687782494209",
        "55464657044963196816950587289035428064568320970692304673817341489687790884864"
      ]
    },
    {
      "x": 174,
      "y": 340,
      "size": 1,
      "price": "4683000000000000000000",
      "reserved": "",
      "salt": "0xed1fd11b2327bdc9cb451e6ba2ba815d9f1e9e5ace4aa439cbbee864ead26a66",
      "assetIds": [
        "55464657044963196816950587289035428064568320970692304673817341489687790884865",
        "55464657044963196816950587289035428064568320970692304673817341489687782494208",
        "55464657044963196816950587289035428064568320970692304673817341489687790884866",
        "55464657044963196816950587289035428064568320970692304673817341489687782494209",
        "55464657044963196816950587289035428064568320970692304673817341489687790884864"
      ]
    },
    {
      "x": 174,
      "y": 341,
      "size": 1,
      "price": "4683000000000000000000",
      "reserved": "",
      "salt": "0x29f6ab81683134b0797e6010f9c46e047157a6234cf3c86612940e55aef30abc",
      "assetIds": [
        "55464657044963196816950587289035428064568320970692304673817341489687790884865",
        "55464657044963196816950587289035428064568320970692304673817341489687782494208",
        "55464657044963196816950587289035428064568320970692304673817341489687790884866",
        "55464657044963196816950587289035428064568320970692304673817341489687782494209",
        "55464657044963196816950587289035428064568320970692304673817341489687790884864"
      ]
    },
    {
      "x": 174,
      "y": 345,
      "size": 1,
      "price": "1011000000000000000000",
      "reserved": "",
      "salt": "0x27296fa6b8fc7358031fa989e83d69e518d541bab24f4857df335145653e7109",
      "assetIds": []
    },
    {
      "x": 174,
      "y": 346,
      "size": 1,
      "price": "1011000000000000000000",
      "reserved": "",
      "salt": "0x0772420d34d38f8db96eb24dcdf731f79245067caaf57e21cea5eb93b9c93a9a",
      "assetIds": []
    },
    {
      "x": 174,
      "y": 347,
      "size": 1,
      "price": "1011000000000000000000",
      "reserved": "0x7a9fe22691c811ea339d9b73150e6911a5343dca",
      "salt": "0x59e82d828a0c5715e06f538de04090e7ca31af0c42f08bb11afd5177538a3fdd",
      "assetIds": []
    },
    {
      "x": 175,
      "y": 313,
      "size": 1,
      "price": "1011000000000000000000",
      "reserved": "",
      "salt": "0x672d07c728e78a8dabc50a5195a3bc3c6597ab9e9fc2877c565847cedd3ce499",
      "assetIds": []
    },
    {
      "x": 175,
      "y": 314,
      "size": 1,
      "price": "1011000000000000000000",
      "reserved": "",
      "salt": "0x5b4aee942eb5ef2c127a20dedce9e145118012d7989640bdd6d786a7c637b024",
      "assetIds": []
    },
    {
      "x": 175,
      "y": 315,
      "size": 1,
      "price": "1011000000000000000000",
      "reserved": "",
      "salt": "0xe3947cbf83919f2f5143e2dc9e84d72da6d9c8eb2d83355cb228e21492c05f1e",
      "assetIds": []
    },
    {
      "x": 175,
      "y": 316,
      "size": 1,
      "price": "1011000000000000000000",
      "reserved": "",
      "salt": "0x86d96cdbe483dccfabc8dbdbe065efc37c1b040c1b05c69b5d156635ea2b3687",
      "assetIds": []
    },
    {
      "x": 175,
      "y": 317,
      "size": 1,
      "price": "1011000000000000000000",
      "reserved": "",
      "salt": "0x3b3eb3bce610f3fae5a3c6477d12d87b0366d48c601f195a5acd65de3057c23a",
      "assetIds": []
    },
    {
      "x": 175,
      "y": 318,
      "size": 1,
      "price": "1011000000000000000000",
      "reserved": "",
      "salt": "0xb3c7b5e6aeb8c4d26d1c38398f63d59658a8b3859769c4a9274972f3e0c519fe",
      "assetIds": []
    },
    {
      "x": 175,
      "y": 319,
      "size": 1,
      "price": "1011000000000000000000",
      "reserved": "",
      "salt": "0x1bc186aa0d9796c0073fe3eda41eaede9dfa2de1108d13f8b54cf3b4c4e3ac16",
      "assetIds": []
    },
    {
      "x": 175,
      "y": 320,
      "size": 1,
      "price": "1011000000000000000000",
      "reserved": "",
      "salt": "0x1397589c0b043042c2a19987f7f9e0b0b8d10da2951c8095475def8e4412626e",
      "assetIds": []
    },
    {
      "x": 175,
      "y": 321,
      "size": 1,
      "price": "1011000000000000000000",
      "reserved": "",
      "salt": "0x370a7379bf856eb8f7284462ed39ba43ce7f8f07cb517ed07e0ca9d2f081f0fc",
      "assetIds": []
    },
    {
      "x": 175,
      "y": 322,
      "size": 1,
      "price": "1011000000000000000000",
      "reserved": "",
      "salt": "0xaf6b0a0a163e4b35d06c5f8162eef07ba56d6002026b4c0c906f484ce5a37759",
      "assetIds": []
    },
    {
      "x": 175,
      "y": 323,
      "size": 1,
      "price": "1011000000000000000000",
      "reserved": "",
      "salt": "0x02027392c5c86b096ac38f8d0d3d50433dc4af51e3bc4cc887cf8bd434dc46fc",
      "assetIds": []
    },
    {
      "x": 175,
      "y": 324,
      "size": 1,
      "price": "1011000000000000000000",
      "reserved": "",
      "salt": "0xc9bcb7bc067a40c8c247fb11a0f9ee2462c454fc0ddddf3bde8a9dbd0a0b74be",
      "assetIds": []
    },
    {
      "x": 175,
      "y": 325,
      "size": 1,
      "price": "1011000000000000000000",
      "reserved": "",
      "salt": "0x38505ec616f544d3af616bf6e96ac4167e64568ee70fbc7c035434ca46c98f76",
      "assetIds": []
    },
    {
      "x": 175,
      "y": 326,
      "size": 1,
      "price": "1011000000000000000000",
      "reserved": "",
      "salt": "0xfe256a80018af2559d90d98fc8558d22035f07048827b0cc4688c9ed98193a77",
      "assetIds": []
    },
    {
      "x": 175,
      "y": 327,
      "size": 1,
      "price": "4683000000000000000000",
      "reserved": "",
      "salt": "0x560c6a1106534fae43f2da852e83dc3cb2b848310c062baa08d35a3515b5f1dc",
      "assetIds": [
        "55464657044963196816950587289035428064568320970692304673817341489687790884865",
        "55464657044963196816950587289035428064568320970692304673817341489687782494208",
        "55464657044963196816950587289035428064568320970692304673817341489687790884866",
        "55464657044963196816950587289035428064568320970692304673817341489687782494209",
        "55464657044963196816950587289035428064568320970692304673817341489687790884864"
      ]
    },
    {
      "x": 175,
      "y": 328,
      "size": 1,
      "price": "4683000000000000000000",
      "reserved": "",
      "salt": "0xc894418172286c50b6f0adb5cc2a1329a91cc17e3fa46437427ab42988a37c4f",
      "assetIds": [
        "55464657044963196816950587289035428064568320970692304673817341489687790884865",
        "55464657044963196816950587289035428064568320970692304673817341489687782494208",
        "55464657044963196816950587289035428064568320970692304673817341489687790884866",
        "55464657044963196816950587289035428064568320970692304673817341489687782494209",
        "55464657044963196816950587289035428064568320970692304673817341489687790884864"
      ]
    },
    {
      "x": 175,
      "y": 329,
      "size": 1,
      "price": "1011000000000000000000",
      "reserved": "",
      "salt": "0x9d80615681ad5aa5b1ceca2b3595b3f4c73b882433c683fd1e2b826bf4893dd2",
      "assetIds": []
    },
    {
      "x": 175,
      "y": 330,
      "size": 1,
      "price": "1011000000000000000000",
      "reserved": "0x7a9fe22691c811ea339d9b73150e6911a5343dca",
      "salt": "0x219d19d35113db826893ce46700ddd97f1353283456f45175531e1ccfabb36ac",
      "assetIds": []
    },
    {
      "x": 175,
      "y": 331,
      "size": 1,
      "price": "1011000000000000000000",
      "reserved": "",
      "salt": "0xc3d47492a785fc1eda5ad5e4813c79c14e3ff26a10ef9f90c616dedf012cabc8",
      "assetIds": []
    },
    {
      "x": 175,
      "y": 332,
      "size": 1,
      "price": "1011000000000000000000",
      "reserved": "",
      "salt": "0x8ff844ec9bca49030da955f28dccc7579407d26e207dee346e8bed71295e4d51",
      "assetIds": []
    },
    {
      "x": 175,
      "y": 333,
      "size": 1,
      "price": "1011000000000000000000",
      "reserved": "",
      "salt": "0x989b97d5e2266b3ef793514511e8f0e7f34aa5011a08dde6bb19738c6b71fb5a",
      "assetIds": []
    },
    {
      "x": 175,
      "y": 334,
      "size": 1,
      "price": "1011000000000000000000",
      "reserved": "",
      "salt": "0x571d31dd239ca3fef517c2bb371e3c2d15155a75232af34356b044ea4d029265",
      "assetIds": []
    },
    {
      "x": 175,
      "y": 335,
      "size": 1,
      "price": "1011000000000000000000",
      "reserved": "0x7a9fe22691c811ea339d9b73150e6911a5343dca",
      "salt": "0xc43624ff33518004545a58e9ed84c7a3cc623820802ca79a8dd9ce74bc8ec995",
      "assetIds": []
    },
    {
      "x": 175,
      "y": 336,
      "size": 1,
      "price": "4683000000000000000000",
      "reserved": "",
      "salt": "0x70cf86950292a3497d3bc7d057b21697f89411ae27bd04d219a9ef3fc6eba031",
      "assetIds": [
        "55464657044963196816950587289035428064568320970692304673817341489687790884865",
        "55464657044963196816950587289035428064568320970692304673817341489687782494208",
        "55464657044963196816950587289035428064568320970692304673817341489687790884866",
        "55464657044963196816950587289035428064568320970692304673817341489687782494209",
        "55464657044963196816950587289035428064568320970692304673817341489687790884864"
      ]
    },
    {
      "x": 175,
      "y": 337,
      "size": 1,
      "price": "1011000000000000000000",
      "reserved": "",
      "salt": "0x4edab0c1a4fb970810d7377617ec3f1c7faa1002d95b729cd8b51fc3f78e9f40",
      "assetIds": []
    },
    {
      "x": 175,
      "y": 338,
      "size": 1,
      "price": "1011000000000000000000",
      "reserved": "",
      "salt": "0x91515b9eac00a059a55dfd2030e213bdcb0b430df5fcf9a505b9fb7dd3645360",
      "assetIds": []
    },
    {
      "x": 175,
      "y": 339,
      "size": 1,
      "price": "1011000000000000000000",
      "reserved": "0x7a9fe22691c811ea339d9b73150e6911a5343dca",
      "salt": "0xad0ad966708e2f9326258f0e49e18e73e9a4108457a0818753982d9bc81fb695",
      "assetIds": []
    },
    {
      "x": 175,
      "y": 340,
      "size": 1,
      "price": "1011000000000000000000",
      "reserved": "",
      "salt": "0x3c361a7255ae240d8a74114fafac70a87e957d9d4747325a800de10b08e5dbe8",
      "assetIds": []
    },
    {
      "x": 175,
      "y": 341,
      "size": 1,
      "price": "1011000000000000000000",
      "reserved": "0x7a9fe22691c811ea339d9b73150e6911a5343dca",
      "salt": "0x774fee62d49cb12b914d59dce492da79498a63951327627f15e73728d5ddd30f",
      "assetIds": []
    },
    {
      "x": 175,
      "y": 345,
      "size": 1,
      "price": "1011000000000000000000",
      "reserved": "",
      "salt": "0xaac8c3e9ca09a672e8d4967a39fb6ae5f292087204a829575cfe0f5dda1aac68",
      "assetIds": []
    },
    {
      "x": 175,
      "y": 346,
      "size": 1,
      "price": "1011000000000000000000",
      "reserved": "",
      "salt": "0x578f0875e816c122b14b6fd93e4dda9d3720f83151216a7dc97926f4065ceb88",
      "assetIds": []
    },
    {
      "x": 175,
      "y": 347,
      "size": 1,
      "price": "1011000000000000000000",
      "reserved": "",
      "salt": "0x882236d351505e481f0fd54dd5d27ec64f57ae5d5e569fd530e39654ad7c4e50",
      "assetIds": []
    },
    {
      "x": 176,
      "y": 314,
      "size": 1,
      "price": "1011000000000000000000",
      "reserved": "",
      "salt": "0xebc1e8d9793166b0dc3f3237e3deb20e6ed592bada15e4e8669ae5f9f55d6cd0",
      "assetIds": []
    },
    {
      "x": 176,
      "y": 315,
      "size": 1,
      "price": "1011000000000000000000",
      "reserved": "",
      "salt": "0x8ba16443e24105c3b492c69cc8f3fd640bd91b9a50c239c8d06de5b387ab787c",
      "assetIds": []
    },
    {
      "x": 176,
      "y": 316,
      "size": 1,
      "price": "1011000000000000000000",
      "reserved": "",
      "salt": "0x6aecffe48e6b91f4267d7804724dd7c033df269d88a943b397d0624e58345b91",
      "assetIds": []
    },
    {
      "x": 176,
      "y": 317,
      "size": 1,
      "price": "1011000000000000000000",
      "reserved": "",
      "salt": "0x3c671e879c87f90ba0033b008a34ef7056a7a740068e67873c1bd71339d4f97e",
      "assetIds": []
    },
    {
      "x": 176,
      "y": 318,
      "size": 1,
      "price": "1011000000000000000000",
      "reserved": "",
      "salt": "0xe7f7cdeaac57371e1459c84ec0b7cf487dc8446acea15fc97af35d355422a763",
      "assetIds": []
    },
    {
      "x": 176,
      "y": 319,
      "size": 1,
      "price": "1011000000000000000000",
      "reserved": "",
      "salt": "0x085e8aebd14abf7533ef82eb625070e3ee3d02284cce89d1c59a3c599313051b",
      "assetIds": []
    },
    {
      "x": 176,
      "y": 320,
      "size": 1,
      "price": "1011000000000000000000",
      "reserved": "",
      "salt": "0x887e6dfebc67e8479c66c167bd2b2fab896f9ae1e4683ebd7a86e241c86c4d65",
      "assetIds": []
    },
    {
      "x": 176,
      "y": 321,
      "size": 1,
      "price": "1011000000000000000000",
      "reserved": "",
      "salt": "0x025369986213a33376024ba7ce717742bd055c6424f53995fd9591a4870dc4cc",
      "assetIds": []
    },
    {
      "x": 176,
      "y": 322,
      "size": 1,
      "price": "1011000000000000000000",
      "reserved": "",
      "salt": "0xd69fa41ae08ec742d0e0fba86a063fb685472c0f0f4a585af34e5625b7d9e060",
      "assetIds": []
    },
    {
      "x": 176,
      "y": 323,
      "size": 1,
      "price": "1011000000000000000000",
      "reserved": "",
      "salt": "0x93b231dbb3b638e3e314ed98494d82f06b05b40a05244ea380171c5e85739d48",
      "assetIds": []
    },
    {
      "x": 176,
      "y": 324,
      "size": 1,
      "price": "1011000000000000000000",
      "reserved": "",
      "salt": "0x99facc14c548ef1875df1906150bbb4d7fb7129f0ca71dcfd865ab5c09c5cc56",
      "assetIds": []
    },
    {
      "x": 176,
      "y": 325,
      "size": 1,
      "price": "1011000000000000000000",
      "reserved": "",
      "salt": "0xbbe4ab8e5a6912925b841f8735f0c5d40f8726e709c8c78d7be12d3a5a38ccb6",
      "assetIds": []
    },
    {
      "x": 176,
      "y": 326,
      "size": 1,
      "price": "1011000000000000000000",
      "reserved": "",
      "salt": "0x46aaeae03dcca4e20b2ba5e0746b0b8be053c801fa40a373597a25390ccce5eb",
      "assetIds": []
    },
    {
      "x": 176,
      "y": 327,
      "size": 1,
      "price": "1011000000000000000000",
      "reserved": "0x7a9fe22691c811ea339d9b73150e6911a5343dca",
      "salt": "0x9bf6cd15367c33d5a52ca13c9e1d3e9763cabc99dd890c5ecbb4566c02de271d",
      "assetIds": []
    },
    {
      "x": 176,
      "y": 328,
      "size": 1,
      "price": "1011000000000000000000",
      "reserved": "",
      "salt": "0x982c330aebd2796aff2dbf0620089bcc39a30d813eaa45df64b8462e5c4cd383",
      "assetIds": []
    },
    {
      "x": 176,
      "y": 329,
      "size": 1,
      "price": "1011000000000000000000",
      "reserved": "",
      "salt": "0x2a79c15d3709fc989089a715a968542369d6d16e836376d0b7e912490e8e77fa",
      "assetIds": []
    },
    {
      "x": 176,
      "y": 330,
      "size": 1,
      "price": "1011000000000000000000",
      "reserved": "",
      "salt": "0x0f34ce829f4e35b518d0151cf8904f18fc528eefdc5325676fb42f6d1a751635",
      "assetIds": []
    },
    {
      "x": 176,
      "y": 331,
      "size": 1,
      "price": "1011000000000000000000",
      "reserved": "",
      "salt": "0x7428c4c492d678c0f8eaae42b378a0a5237400ddb97dcb594a17b8c8e3456506",
      "assetIds": []
    },
    {
      "x": 176,
      "y": 332,
      "size": 1,
      "price": "4683000000000000000000",
      "reserved": "",
      "salt": "0x256dc28f8be04931ed748a9dee422806780dfb43d500aca59fcaf8d40d186d6a",
      "assetIds": [
        "55464657044963196816950587289035428064568320970692304673817341489687790884865",
        "55464657044963196816950587289035428064568320970692304673817341489687782494208",
        "55464657044963196816950587289035428064568320970692304673817341489687790884866",
        "55464657044963196816950587289035428064568320970692304673817341489687782494209",
        "55464657044963196816950587289035428064568320970692304673817341489687790884864"
      ]
    },
    {
      "x": 176,
      "y": 333,
      "size": 1,
      "price": "4683000000000000000000",
      "reserved": "",
      "salt": "0x913a0db182067c84625ba520f864fad61f2308e6f35e17e409441a0b1f346469",
      "assetIds": [
        "55464657044963196816950587289035428064568320970692304673817341489687790884865",
        "55464657044963196816950587289035428064568320970692304673817341489687782494208",
        "55464657044963196816950587289035428064568320970692304673817341489687790884866",
        "55464657044963196816950587289035428064568320970692304673817341489687782494209",
        "55464657044963196816950587289035428064568320970692304673817341489687790884864"
      ]
    },
    {
      "x": 176,
      "y": 334,
      "size": 1,
      "price": "4683000000000000000000",
      "reserved": "",
      "salt": "0xe82cb63ab01be90f4aae214c32cbf9feeb55d5f60b760ce0a1bb58e11a7cfd39",
      "assetIds": [
        "55464657044963196816950587289035428064568320970692304673817341489687790884865",
        "55464657044963196816950587289035428064568320970692304673817341489687782494208",
        "55464657044963196816950587289035428064568320970692304673817341489687790884866",
        "55464657044963196816950587289035428064568320970692304673817341489687782494209",
        "55464657044963196816950587289035428064568320970692304673817341489687790884864"
      ]
    },
    {
      "x": 176,
      "y": 335,
      "size": 1,
      "price": "4683000000000000000000",
      "reserved": "",
      "salt": "0x58be0058ee988e49c6fb1ab8b61e756cba89c1eef8184df80136a7e6a8a34d49",
      "assetIds": [
        "55464657044963196816950587289035428064568320970692304673817341489687790884865",
        "55464657044963196816950587289035428064568320970692304673817341489687782494208",
        "55464657044963196816950587289035428064568320970692304673817341489687790884866",
        "55464657044963196816950587289035428064568320970692304673817341489687782494209",
        "55464657044963196816950587289035428064568320970692304673817341489687790884864"
      ]
    },
    {
      "x": 176,
      "y": 336,
      "size": 1,
      "price": "4683000000000000000000",
      "reserved": "",
      "salt": "0x45f2d344e31a1861d87a44f5d853a518dd7d3b4ec360e177205e222c9fe2911d",
      "assetIds": [
        "55464657044963196816950587289035428064568320970692304673817341489687790884865",
        "55464657044963196816950587289035428064568320970692304673817341489687782494208",
        "55464657044963196816950587289035428064568320970692304673817341489687790884866",
        "55464657044963196816950587289035428064568320970692304673817341489687782494209",
        "55464657044963196816950587289035428064568320970692304673817341489687790884864"
      ]
    },
    {
      "x": 176,
      "y": 337,
      "size": 1,
      "price": "1011000000000000000000",
      "reserved": "0x7a9fe22691c811ea339d9b73150e6911a5343dca",
      "salt": "0x55e526f5e2d6403886084a77612f98a0d88df9763b98f8f06dcd0987213a1a2f",
      "assetIds": []
    },
    {
      "x": 176,
      "y": 338,
      "size": 1,
      "price": "1011000000000000000000",
      "reserved": "",
      "salt": "0xf5a6c09a8495447712b6f4a3e670b6cb08ade1e9b3c1686c77ae99266a89542e",
      "assetIds": []
    },
    {
      "x": 176,
      "y": 339,
      "size": 1,
      "price": "1011000000000000000000",
      "reserved": "",
      "salt": "0x466e599cb3ce241b8daf2ba7041dfba90d095d83358f3b0898ed82857124c6d5",
      "assetIds": []
    },
    {
      "x": 176,
      "y": 340,
      "size": 1,
      "price": "1011000000000000000000",
      "reserved": "",
      "salt": "0x02180223b734610d4989425a027a49aae15c8057a913e84f3329663b82bfadbd",
      "assetIds": []
    },
    {
      "x": 176,
      "y": 341,
      "size": 1,
      "price": "1011000000000000000000",
      "reserved": "",
      "salt": "0xf8a0c8a90da05b690569598387dd0dcd9b717c5f3188a0a32bc36165b7dbd84e",
      "assetIds": []
    },
    {
      "x": 176,
      "y": 345,
      "size": 1,
      "price": "1011000000000000000000",
      "reserved": "",
      "salt": "0x278ecb6306bc03c0fe278c879cc583fc8c4ec6b757a78ef93ee271372a6545e2",
      "assetIds": []
    },
    {
      "x": 176,
      "y": 346,
      "size": 1,
      "price": "1011000000000000000000",
      "reserved": "",
      "salt": "0x5cd243de7d45900542aba86a7a515125d0a0acb08237066f966cfee9aa145070",
      "assetIds": []
    },
    {
      "x": 176,
      "y": 347,
      "size": 1,
      "price": "1011000000000000000000",
      "reserved": "",
      "salt": "0x261d059c58103aec8389b2e78755c45bd81aaf87855ad889e4c7f09766741ee4",
      "assetIds": []
    },
    {
      "x": 177,
      "y": 324,
      "size": 1,
      "price": "1011000000000000000000",
      "reserved": "",
      "salt": "0x03b5eeeb82fececbb337356cc98ff2f6d073229749463fd2625c904a8cc0f5d6",
      "assetIds": []
    },
    {
      "x": 177,
      "y": 325,
      "size": 1,
      "price": "1011000000000000000000",
      "reserved": "0x7a9fe22691c811ea339d9b73150e6911a5343dca",
      "salt": "0xaa157b2ee6a70eac767a018a790d2740fac7bdbb1c6ca9b41a71601674b74a70",
      "assetIds": []
    },
    {
      "x": 177,
      "y": 326,
      "size": 1,
      "price": "1011000000000000000000",
      "reserved": "",
      "salt": "0xed7a0a954c59fe06d529c808f15b159c26abfb461ee884c3c99e747242cec765",
      "assetIds": []
    },
    {
      "x": 177,
      "y": 327,
      "size": 1,
      "price": "1011000000000000000000",
      "reserved": "",
      "salt": "0xf100b844c138ed81042b815ba6a921e1868c26e382d4594b61929da12d7e61e7",
      "assetIds": []
    },
    {
      "x": 177,
      "y": 328,
      "size": 1,
      "price": "1011000000000000000000",
      "reserved": "",
      "salt": "0xfc5867182576947a3683af0dc50dfb7b4d5f6c58329398faf5f711d41b620cc0",
      "assetIds": []
    },
    {
      "x": 177,
      "y": 329,
      "size": 1,
      "price": "1011000000000000000000",
      "reserved": "",
      "salt": "0x3b9085d4922e49300d546da1a66e7fd100f0685e81ad056850511383c18a3a7a",
      "assetIds": []
    },
    {
      "x": 177,
      "y": 330,
      "size": 1,
      "price": "1011000000000000000000",
      "reserved": "",
      "salt": "0xa728cfef129f504d6e53089aeb13201e35190f68315fc6af86590155bc8aa86f",
      "assetIds": []
    },
    {
      "x": 177,
      "y": 331,
      "size": 1,
      "price": "1011000000000000000000",
      "reserved": "",
      "salt": "0x6459afec177c40ce79695f6ef7704c862571f8569155e637c0471f5ece608b01",
      "assetIds": []
    },
    {
      "x": 177,
      "y": 332,
      "size": 1,
      "price": "4683000000000000000000",
      "reserved": "",
      "salt": "0xb313dba8bc11669b44a800a7c8505a18fb843c48842ac49a7afa8bf78bfbe568",
      "assetIds": [
        "55464657044963196816950587289035428064568320970692304673817341489687790884865",
        "55464657044963196816950587289035428064568320970692304673817341489687782494208",
        "55464657044963196816950587289035428064568320970692304673817341489687790884866",
        "55464657044963196816950587289035428064568320970692304673817341489687782494209",
        "55464657044963196816950587289035428064568320970692304673817341489687790884864"
      ]
    },
    {
      "x": 177,
      "y": 336,
      "size": 1,
      "price": "4683000000000000000000",
      "reserved": "",
      "salt": "0x1200a0367dff434c9408fef6274168207195f054c2b1506f9dc810edaf6fabd0",
      "assetIds": [
        "55464657044963196816950587289035428064568320970692304673817341489687790884865",
        "55464657044963196816950587289035428064568320970692304673817341489687782494208",
        "55464657044963196816950587289035428064568320970692304673817341489687790884866",
        "55464657044963196816950587289035428064568320970692304673817341489687782494209",
        "55464657044963196816950587289035428064568320970692304673817341489687790884864"
      ]
    },
    {
      "x": 177,
      "y": 337,
      "size": 1,
      "price": "1011000000000000000000",
      "reserved": "",
      "salt": "0x66a17628721055a81c599b077525a653c5ca6de2fb96f30f1901018082020302",
      "assetIds": []
    },
    {
      "x": 177,
      "y": 338,
      "size": 1,
      "price": "1011000000000000000000",
      "reserved": "",
      "salt": "0xc8e0e1352b2a3e908502fcd30935a8da37096b5b8487e6aff6dca7b4c0488d5f",
      "assetIds": []
    },
    {
      "x": 177,
      "y": 339,
      "size": 1,
      "price": "4683000000000000000000",
      "reserved": "",
      "salt": "0x4bc07696aa9de12e78902f7a02d62c41e6dcbf9a5dc04800736eea878a358620",
      "assetIds": [
        "55464657044963196816950587289035428064568320970692304673817341489687790884865",
        "55464657044963196816950587289035428064568320970692304673817341489687782494208",
        "55464657044963196816950587289035428064568320970692304673817341489687790884866",
        "55464657044963196816950587289035428064568320970692304673817341489687782494209",
        "55464657044963196816950587289035428064568320970692304673817341489687790884864"
      ]
    },
    {
      "x": 177,
      "y": 340,
      "size": 1,
      "price": "4683000000000000000000",
      "reserved": "",
      "salt": "0x103b15bab4654f4e06770dbcfb69d374850e0b2a028ff9e590fa689d108ada4a",
      "assetIds": [
        "55464657044963196816950587289035428064568320970692304673817341489687790884865",
        "55464657044963196816950587289035428064568320970692304673817341489687782494208",
        "55464657044963196816950587289035428064568320970692304673817341489687790884866",
        "55464657044963196816950587289035428064568320970692304673817341489687782494209",
        "55464657044963196816950587289035428064568320970692304673817341489687790884864"
      ]
    },
    {
      "x": 177,
      "y": 341,
      "size": 1,
      "price": "4683000000000000000000",
      "reserved": "",
      "salt": "0x94de8b009cc5b0752d30b53de9095cf4d9f9b777eafd0bfa25d3a9c7c39f86d9",
      "assetIds": [
        "55464657044963196816950587289035428064568320970692304673817341489687790884865",
        "55464657044963196816950587289035428064568320970692304673817341489687782494208",
        "55464657044963196816950587289035428064568320970692304673817341489687790884866",
        "55464657044963196816950587289035428064568320970692304673817341489687782494209",
        "55464657044963196816950587289035428064568320970692304673817341489687790884864"
      ]
    },
    {
      "x": 177,
      "y": 342,
      "size": 1,
      "price": "4683000000000000000000",
      "reserved": "",
      "salt": "0x0c50e389faaf2ec613dd03d9306d5db3b0aa802cb175f77d6b8b56a9126dfd07",
      "assetIds": [
        "55464657044963196816950587289035428064568320970692304673817341489687790884865",
        "55464657044963196816950587289035428064568320970692304673817341489687782494208",
        "55464657044963196816950587289035428064568320970692304673817341489687790884866",
        "55464657044963196816950587289035428064568320970692304673817341489687782494209",
        "55464657044963196816950587289035428064568320970692304673817341489687790884864"
      ]
    },
    {
      "x": 177,
      "y": 343,
      "size": 1,
      "price": "4683000000000000000000",
      "reserved": "",
      "salt": "0xd1d5a0c1feaf48607c67773e88873ed15d2e6017b4be3debcea062f84a135098",
      "assetIds": [
        "55464657044963196816950587289035428064568320970692304673817341489687790884865",
        "55464657044963196816950587289035428064568320970692304673817341489687782494208",
        "55464657044963196816950587289035428064568320970692304673817341489687790884866",
        "55464657044963196816950587289035428064568320970692304673817341489687782494209",
        "55464657044963196816950587289035428064568320970692304673817341489687790884864"
      ]
    },
    {
      "x": 177,
      "y": 344,
      "size": 1,
      "price": "4683000000000000000000",
      "reserved": "",
      "salt": "0xe084000993f54d401ecd08f165ac01180f9430b651a5c501ea9d8f9c187659e7",
      "assetIds": [
        "55464657044963196816950587289035428064568320970692304673817341489687790884865",
        "55464657044963196816950587289035428064568320970692304673817341489687782494208",
        "55464657044963196816950587289035428064568320970692304673817341489687790884866",
        "55464657044963196816950587289035428064568320970692304673817341489687782494209",
        "55464657044963196816950587289035428064568320970692304673817341489687790884864"
      ]
    },
    {
      "x": 177,
      "y": 345,
      "size": 1,
      "price": "4683000000000000000000",
      "reserved": "",
      "salt": "0x4cc46f5ba8aad4f587bf32bb16f1f717739c4e7cac46837959f50a655b9baa92",
      "assetIds": [
        "55464657044963196816950587289035428064568320970692304673817341489687790884865",
        "55464657044963196816950587289035428064568320970692304673817341489687782494208",
        "55464657044963196816950587289035428064568320970692304673817341489687790884866",
        "55464657044963196816950587289035428064568320970692304673817341489687782494209",
        "55464657044963196816950587289035428064568320970692304673817341489687790884864"
      ]
    },
    {
      "x": 177,
      "y": 346,
      "size": 1,
      "price": "1011000000000000000000",
      "reserved": "0x7a9fe22691c811ea339d9b73150e6911a5343dca",
      "salt": "0xbff076e2c5f945bae75ca6dcf17e4a18331c36b8b4448016cf0ec3c7a48a656d",
      "assetIds": []
    },
    {
      "x": 177,
      "y": 347,
      "size": 1,
      "price": "1011000000000000000000",
      "reserved": "",
      "salt": "0x9c371390c6e7995d8c214413ec35bcb21076ed02d78e973fe24617cf46398799",
      "assetIds": []
    },
    {
      "x": 178,
      "y": 324,
      "size": 1,
      "price": "1011000000000000000000",
      "reserved": "",
      "salt": "0x3180bb14004d5f720d59a5a7ae8c5651bcad7f3279cf67e56be2cd69a37410b4",
      "assetIds": []
    },
    {
      "x": 178,
      "y": 325,
      "size": 1,
      "price": "1011000000000000000000",
      "reserved": "",
      "salt": "0x9463234d4fb1ae9f669c76d7c6f13495266b425a2440a5c7235b2ae3af96cb87",
      "assetIds": []
    },
    {
      "x": 178,
      "y": 326,
      "size": 1,
      "price": "1011000000000000000000",
      "reserved": "",
      "salt": "0xcb04739fbb16579227eb669e1dbb60c18cedbab40034634bdb53ceffd0dbedb5",
      "assetIds": []
    },
    {
      "x": 178,
      "y": 327,
      "size": 1,
      "price": "1011000000000000000000",
      "reserved": "",
      "salt": "0x8e805d9a8a919627a46a381191912288d5e2b40ae38d3473926a72c9a28c92a3",
      "assetIds": []
    },
    {
      "x": 178,
      "y": 328,
      "size": 1,
      "price": "1011000000000000000000",
      "reserved": "",
      "salt": "0x74fa9f2f07ba3fdc34bf7c2d959802e9a46938dfdfcb032d03575c213c360e0f",
      "assetIds": []
    },
    {
      "x": 178,
      "y": 329,
      "size": 1,
      "price": "1011000000000000000000",
      "reserved": "",
      "salt": "0x9346bf573e0e3d60bd5a6bed3629ec6fcea36a781b045e4ae96f11810c579999",
      "assetIds": []
    },
    {
      "x": 178,
      "y": 330,
      "size": 1,
      "price": "1011000000000000000000",
      "reserved": "",
      "salt": "0x644ef37635b6c97835d1285ef35d508750ec39d4e103c592caa1b411f61ed318",
      "assetIds": []
    },
    {
      "x": 178,
      "y": 331,
      "size": 1,
      "price": "1011000000000000000000",
      "reserved": "",
      "salt": "0x77a544c9ec08238e97a7b71f8060a6d2f0e98079f5b1265b166bf5ee64066355",
      "assetIds": []
    },
    {
      "x": 178,
      "y": 332,
      "size": 1,
      "price": "4683000000000000000000",
      "reserved": "",
      "salt": "0xd6b381b3de90751c0be295d5ac5266ae53f452fceef4495e9509023be2e07ca8",
      "assetIds": [
        "55464657044963196816950587289035428064568320970692304673817341489687790884865",
        "55464657044963196816950587289035428064568320970692304673817341489687782494208",
        "55464657044963196816950587289035428064568320970692304673817341489687790884866",
        "55464657044963196816950587289035428064568320970692304673817341489687782494209",
        "55464657044963196816950587289035428064568320970692304673817341489687790884864"
      ]
    },
    {
      "x": 178,
      "y": 336,
      "size": 1,
      "price": "4683000000000000000000",
      "reserved": "",
      "salt": "0xa10397a57774703eae439b553b185a00af3c40d17a85c4ded300164837c23c79",
      "assetIds": [
        "55464657044963196816950587289035428064568320970692304673817341489687790884865",
        "55464657044963196816950587289035428064568320970692304673817341489687782494208",
        "55464657044963196816950587289035428064568320970692304673817341489687790884866",
        "55464657044963196816950587289035428064568320970692304673817341489687782494209",
        "55464657044963196816950587289035428064568320970692304673817341489687790884864"
      ]
    },
    {
      "x": 178,
      "y": 337,
      "size": 1,
      "price": "4683000000000000000000",
      "reserved": "",
      "salt": "0xf70f25d01d477f8acc6a7f5c393251d0e6511b01a572998667a820b7621d027b",
      "assetIds": [
        "55464657044963196816950587289035428064568320970692304673817341489687790884865",
        "55464657044963196816950587289035428064568320970692304673817341489687782494208",
        "55464657044963196816950587289035428064568320970692304673817341489687790884866",
        "55464657044963196816950587289035428064568320970692304673817341489687782494209",
        "55464657044963196816950587289035428064568320970692304673817341489687790884864"
      ]
    },
    {
      "x": 178,
      "y": 338,
      "size": 1,
      "price": "4683000000000000000000",
      "reserved": "",
      "salt": "0xeb92059e3a0990bfc6a5023882bf47de163abcc6cf3e85aefc42ed44c493aa54",
      "assetIds": [
        "55464657044963196816950587289035428064568320970692304673817341489687790884865",
        "55464657044963196816950587289035428064568320970692304673817341489687782494208",
        "55464657044963196816950587289035428064568320970692304673817341489687790884866",
        "55464657044963196816950587289035428064568320970692304673817341489687782494209",
        "55464657044963196816950587289035428064568320970692304673817341489687790884864"
      ]
    },
    {
      "x": 178,
      "y": 339,
      "size": 1,
      "price": "4683000000000000000000",
      "reserved": "",
      "salt": "0x95c3f860f75fa526a718910d892dadb539d82d8f35016e960698c06ca9205df1",
      "assetIds": [
        "55464657044963196816950587289035428064568320970692304673817341489687790884865",
        "55464657044963196816950587289035428064568320970692304673817341489687782494208",
        "55464657044963196816950587289035428064568320970692304673817341489687790884866",
        "55464657044963196816950587289035428064568320970692304673817341489687782494209",
        "55464657044963196816950587289035428064568320970692304673817341489687790884864"
      ]
    },
    {
      "x": 178,
      "y": 340,
      "size": 1,
      "price": "4683000000000000000000",
      "reserved": "",
      "salt": "0x685994b1514a9bd2a1acb55d9b61e69aa56849d327e3a07cfcc0912178387fa9",
      "assetIds": [
        "55464657044963196816950587289035428064568320970692304673817341489687790884865",
        "55464657044963196816950587289035428064568320970692304673817341489687782494208",
        "55464657044963196816950587289035428064568320970692304673817341489687790884866",
        "55464657044963196816950587289035428064568320970692304673817341489687782494209",
        "55464657044963196816950587289035428064568320970692304673817341489687790884864"
      ]
    },
    {
      "x": 178,
      "y": 341,
      "size": 1,
      "price": "4683000000000000000000",
      "reserved": "",
      "salt": "0x8273ba8f980f7c4cf421abbd20d91e07fdaf7e911e76859e5b7d629b1ee72271",
      "assetIds": [
        "55464657044963196816950587289035428064568320970692304673817341489687790884865",
        "55464657044963196816950587289035428064568320970692304673817341489687782494208",
        "55464657044963196816950587289035428064568320970692304673817341489687790884866",
        "55464657044963196816950587289035428064568320970692304673817341489687782494209",
        "55464657044963196816950587289035428064568320970692304673817341489687790884864"
      ]
    },
    {
      "x": 178,
      "y": 342,
      "size": 1,
      "price": "4683000000000000000000",
      "reserved": "",
      "salt": "0xe9a98f34d7ddfb6e92aef22cf1c12c3cd365248cbd9c3822cc6b882e16c3c1af",
      "assetIds": [
        "55464657044963196816950587289035428064568320970692304673817341489687790884865",
        "55464657044963196816950587289035428064568320970692304673817341489687782494208",
        "55464657044963196816950587289035428064568320970692304673817341489687790884866",
        "55464657044963196816950587289035428064568320970692304673817341489687782494209",
        "55464657044963196816950587289035428064568320970692304673817341489687790884864"
      ]
    },
    {
      "x": 178,
      "y": 343,
      "size": 1,
      "price": "4683000000000000000000",
      "reserved": "",
      "salt": "0x4545f5e17f6856906fa4fd75d8268f92568662a7174a2560ce1d06fd07d7b7da",
      "assetIds": [
        "55464657044963196816950587289035428064568320970692304673817341489687790884865",
        "55464657044963196816950587289035428064568320970692304673817341489687782494208",
        "55464657044963196816950587289035428064568320970692304673817341489687790884866",
        "55464657044963196816950587289035428064568320970692304673817341489687782494209",
        "55464657044963196816950587289035428064568320970692304673817341489687790884864"
      ]
    },
    {
      "x": 178,
      "y": 344,
      "size": 1,
      "price": "4683000000000000000000",
      "reserved": "",
      "salt": "0xbe129e31efcf3c16ec53afec4d19de3f132e325be4d4518836a114af96501e4f",
      "assetIds": [
        "55464657044963196816950587289035428064568320970692304673817341489687790884865",
        "55464657044963196816950587289035428064568320970692304673817341489687782494208",
        "55464657044963196816950587289035428064568320970692304673817341489687790884866",
        "55464657044963196816950587289035428064568320970692304673817341489687782494209",
        "55464657044963196816950587289035428064568320970692304673817341489687790884864"
      ]
    },
    {
      "x": 178,
      "y": 345,
      "size": 1,
      "price": "4683000000000000000000",
      "reserved": "",
      "salt": "0x536b4c1a2aeff9e0b26626aa801458d9c87c3075c2476bd1f5aa3c3c9f09c36d",
      "assetIds": [
        "55464657044963196816950587289035428064568320970692304673817341489687790884865",
        "55464657044963196816950587289035428064568320970692304673817341489687782494208",
        "55464657044963196816950587289035428064568320970692304673817341489687790884866",
        "55464657044963196816950587289035428064568320970692304673817341489687782494209",
        "55464657044963196816950587289035428064568320970692304673817341489687790884864"
      ]
    },
    {
      "x": 178,
      "y": 346,
      "size": 1,
      "price": "4683000000000000000000",
      "reserved": "",
      "salt": "0xf47177cd34a0e7ba7468bec5514816efca7ff6d70dc1a3c086b558fd2b7fdbbf",
      "assetIds": [
        "55464657044963196816950587289035428064568320970692304673817341489687790884865",
        "55464657044963196816950587289035428064568320970692304673817341489687782494208",
        "55464657044963196816950587289035428064568320970692304673817341489687790884866",
        "55464657044963196816950587289035428064568320970692304673817341489687782494209",
        "55464657044963196816950587289035428064568320970692304673817341489687790884864"
      ]
    },
    {
      "x": 178,
      "y": 347,
      "size": 1,
      "price": "4683000000000000000000",
      "reserved": "",
      "salt": "0x4965a7a4c75c2633679b9f75c62aaf106e5983808aa4cd57085338bedc1f4188",
      "assetIds": [
        "55464657044963196816950587289035428064568320970692304673817341489687790884865",
        "55464657044963196816950587289035428064568320970692304673817341489687782494208",
        "55464657044963196816950587289035428064568320970692304673817341489687790884866",
        "55464657044963196816950587289035428064568320970692304673817341489687782494209",
        "55464657044963196816950587289035428064568320970692304673817341489687790884864"
      ]
    },
    {
      "x": 179,
      "y": 326,
      "size": 1,
      "price": "1011000000000000000000",
      "reserved": "",
      "salt": "0xdd91c55a2245f6137b1f5a4c00b77d9c28ae82020db82c836a17ffe11f619723",
      "assetIds": []
    },
    {
      "x": 179,
      "y": 327,
      "size": 1,
      "price": "1011000000000000000000",
      "reserved": "",
      "salt": "0xc06a270dc1304a3c920b69052dd039641e25e016c75326335bdff616205fe0df",
      "assetIds": []
    },
    {
      "x": 179,
      "y": 328,
      "size": 1,
      "price": "1011000000000000000000",
      "reserved": "",
      "salt": "0x5240c0c505bf45a9f6879dc787f3b2d11519531c35e50e59da58f1cba3ca53ba",
      "assetIds": []
    },
    {
      "x": 179,
      "y": 329,
      "size": 1,
      "price": "1011000000000000000000",
      "reserved": "",
      "salt": "0xbb391e9124b4500f2e14ac3d088c7eb30cb7312976905f79fc7a05512f907ad9",
      "assetIds": []
    },
    {
      "x": 179,
      "y": 330,
      "size": 1,
      "price": "1011000000000000000000",
      "reserved": "0x7a9fe22691c811ea339d9b73150e6911a5343dca",
      "salt": "0x4119c190f99a7d9ccb8bc9360092c8aea075ecb3beb107cd91caafeed6f3d50d",
      "assetIds": []
    },
    {
      "x": 179,
      "y": 331,
      "size": 1,
      "price": "1011000000000000000000",
      "reserved": "",
      "salt": "0x850a9a7208abe8e9b6669ccf9d9fd0931f177b82c02d4bb337833c33dff83480",
      "assetIds": []
    },
    {
      "x": 179,
      "y": 332,
      "size": 1,
      "price": "4683000000000000000000",
      "reserved": "",
      "salt": "0x89429f34473e1c35ec8e8b8a8eaab4f912d12bb23a31993ef683f6ef6ab3786f",
      "assetIds": [
        "55464657044963196816950587289035428064568320970692304673817341489687790884865",
        "55464657044963196816950587289035428064568320970692304673817341489687782494208",
        "55464657044963196816950587289035428064568320970692304673817341489687790884866",
        "55464657044963196816950587289035428064568320970692304673817341489687782494209",
        "55464657044963196816950587289035428064568320970692304673817341489687790884864"
      ]
    },
    {
      "x": 179,
      "y": 336,
      "size": 1,
      "price": "4683000000000000000000",
      "reserved": "",
      "salt": "0x7c9316b22832424ac04a845310901c64171a3a71cc0fd9e79f2807c965186b21",
      "assetIds": [
        "55464657044963196816950587289035428064568320970692304673817341489687790884865",
        "55464657044963196816950587289035428064568320970692304673817341489687782494208",
        "55464657044963196816950587289035428064568320970692304673817341489687790884866",
        "55464657044963196816950587289035428064568320970692304673817341489687782494209",
        "55464657044963196816950587289035428064568320970692304673817341489687790884864"
      ]
    },
    {
      "x": 179,
      "y": 337,
      "size": 1,
      "price": "4683000000000000000000",
      "reserved": "",
      "salt": "0xba982d9ca7daa5adb596b682043e94cdb5d5f14850325baef7a570464363fc84",
      "assetIds": [
        "55464657044963196816950587289035428064568320970692304673817341489687790884865",
        "55464657044963196816950587289035428064568320970692304673817341489687782494208",
        "55464657044963196816950587289035428064568320970692304673817341489687790884866",
        "55464657044963196816950587289035428064568320970692304673817341489687782494209",
        "55464657044963196816950587289035428064568320970692304673817341489687790884864"
      ]
    },
    {
      "x": 179,
      "y": 338,
      "size": 1,
      "price": "4683000000000000000000",
      "reserved": "",
      "salt": "0x92917bc0c67cffeb5d53cfe457bd9a411927652313d20ecfbb086fb6bca55e12",
      "assetIds": [
        "55464657044963196816950587289035428064568320970692304673817341489687790884865",
        "55464657044963196816950587289035428064568320970692304673817341489687782494208",
        "55464657044963196816950587289035428064568320970692304673817341489687790884866",
        "55464657044963196816950587289035428064568320970692304673817341489687782494209",
        "55464657044963196816950587289035428064568320970692304673817341489687790884864"
      ]
    },
    {
      "x": 179,
      "y": 339,
      "size": 1,
      "price": "4683000000000000000000",
      "reserved": "",
      "salt": "0x331a38f2cd67a7661bed3c82c3c7f041ab4408414dbe7637e6237c9978db0108",
      "assetIds": [
        "55464657044963196816950587289035428064568320970692304673817341489687790884865",
        "55464657044963196816950587289035428064568320970692304673817341489687782494208",
        "55464657044963196816950587289035428064568320970692304673817341489687790884866",
        "55464657044963196816950587289035428064568320970692304673817341489687782494209",
        "55464657044963196816950587289035428064568320970692304673817341489687790884864"
      ]
    },
    {
      "x": 179,
      "y": 340,
      "size": 1,
      "price": "4683000000000000000000",
      "reserved": "",
      "salt": "0x941f7fccabe931db4358b4256e7ca25b68e58c5703ac9be043bc54e6f5fdfee9",
      "assetIds": [
        "55464657044963196816950587289035428064568320970692304673817341489687790884865",
        "55464657044963196816950587289035428064568320970692304673817341489687782494208",
        "55464657044963196816950587289035428064568320970692304673817341489687790884866",
        "55464657044963196816950587289035428064568320970692304673817341489687782494209",
        "55464657044963196816950587289035428064568320970692304673817341489687790884864"
      ]
    },
    {
      "x": 179,
      "y": 341,
      "size": 1,
      "price": "4683000000000000000000",
      "reserved": "",
      "salt": "0x636be456251b3baad6de64774e5d551372e63e4014ecbc01ba8b8411721c995f",
      "assetIds": [
        "55464657044963196816950587289035428064568320970692304673817341489687790884865",
        "55464657044963196816950587289035428064568320970692304673817341489687782494208",
        "55464657044963196816950587289035428064568320970692304673817341489687790884866",
        "55464657044963196816950587289035428064568320970692304673817341489687782494209",
        "55464657044963196816950587289035428064568320970692304673817341489687790884864"
      ]
    },
    {
      "x": 179,
      "y": 342,
      "size": 1,
      "price": "4683000000000000000000",
      "reserved": "",
      "salt": "0xf6f772dc76f2effea30e53db635ae0ccdd14a32a425294c9b28c1d642b3998e8",
      "assetIds": [
        "55464657044963196816950587289035428064568320970692304673817341489687790884865",
        "55464657044963196816950587289035428064568320970692304673817341489687782494208",
        "55464657044963196816950587289035428064568320970692304673817341489687790884866",
        "55464657044963196816950587289035428064568320970692304673817341489687782494209",
        "55464657044963196816950587289035428064568320970692304673817341489687790884864"
      ]
    },
    {
      "x": 179,
      "y": 343,
      "size": 1,
      "price": "4683000000000000000000",
      "reserved": "",
      "salt": "0x235018f8756d72d334509bd86a7b1ccce1490cfcff53d21e9085a31ae7f75b4e",
      "assetIds": [
        "55464657044963196816950587289035428064568320970692304673817341489687790884865",
        "55464657044963196816950587289035428064568320970692304673817341489687782494208",
        "55464657044963196816950587289035428064568320970692304673817341489687790884866",
        "55464657044963196816950587289035428064568320970692304673817341489687782494209",
        "55464657044963196816950587289035428064568320970692304673817341489687790884864"
      ]
    },
    {
      "x": 179,
      "y": 344,
      "size": 1,
      "price": "4683000000000000000000",
      "reserved": "",
      "salt": "0xc69029bdd2b155aa67e7f61574fe81e774bc9b67b7514a9a3872f01b1edae130",
      "assetIds": [
        "55464657044963196816950587289035428064568320970692304673817341489687790884865",
        "55464657044963196816950587289035428064568320970692304673817341489687782494208",
        "55464657044963196816950587289035428064568320970692304673817341489687790884866",
        "55464657044963196816950587289035428064568320970692304673817341489687782494209",
        "55464657044963196816950587289035428064568320970692304673817341489687790884864"
      ]
    },
    {
      "x": 179,
      "y": 345,
      "size": 1,
      "price": "4683000000000000000000",
      "reserved": "",
      "salt": "0x7c30c758f20ee5d8968e02abae870fab4cb806d3ade93a110aa7bcb82cd8db08",
      "assetIds": [
        "55464657044963196816950587289035428064568320970692304673817341489687790884865",
        "55464657044963196816950587289035428064568320970692304673817341489687782494208",
        "55464657044963196816950587289035428064568320970692304673817341489687790884866",
        "55464657044963196816950587289035428064568320970692304673817341489687782494209",
        "55464657044963196816950587289035428064568320970692304673817341489687790884864"
      ]
    },
    {
      "x": 179,
      "y": 346,
      "size": 1,
      "price": "4683000000000000000000",
      "reserved": "",
      "salt": "0x09acf341fd1f5c6898fcbac8813e53eca529a4c83cf0deb20039457e49a29b1a",
      "assetIds": [
        "55464657044963196816950587289035428064568320970692304673817341489687790884865",
        "55464657044963196816950587289035428064568320970692304673817341489687782494208",
        "55464657044963196816950587289035428064568320970692304673817341489687790884866",
        "55464657044963196816950587289035428064568320970692304673817341489687782494209",
        "55464657044963196816950587289035428064568320970692304673817341489687790884864"
      ]
    },
    {
      "x": 179,
      "y": 347,
      "size": 1,
      "price": "4683000000000000000000",
      "reserved": "",
      "salt": "0xc3037c16dccb60783c4bdafea2f1f791425bc46589df9047dcf2ba2f2b6f948c",
      "assetIds": [
        "55464657044963196816950587289035428064568320970692304673817341489687790884865",
        "55464657044963196816950587289035428064568320970692304673817341489687782494208",
        "55464657044963196816950587289035428064568320970692304673817341489687790884866",
        "55464657044963196816950587289035428064568320970692304673817341489687782494209",
        "55464657044963196816950587289035428064568320970692304673817341489687790884864"
      ]
    },
    {
      "x": 180,
      "y": 326,
      "size": 1,
      "price": "1011000000000000000000",
      "reserved": "",
      "salt": "0x60a03dc9fba27b22578b723ebedf2fec9182cb70e8450cfbe366dbff78073e2c",
      "assetIds": []
    },
    {
      "x": 180,
      "y": 327,
      "size": 1,
      "price": "1011000000000000000000",
      "reserved": "",
      "salt": "0x9d23aff24cbb696eff48842a0b9a4b47730e324a4d7ff14fd9eb08d4779a08df",
      "assetIds": []
    },
    {
      "x": 180,
      "y": 328,
      "size": 1,
      "price": "1011000000000000000000",
      "reserved": "",
      "salt": "0xdfa1d0a24f4447e8dcb5e3a539d38dead6b7a3036df8f1bc019eaacb17d83851",
      "assetIds": []
    },
    {
      "x": 180,
      "y": 329,
      "size": 1,
      "price": "1011000000000000000000",
      "reserved": "",
      "salt": "0x7fc7086fb390e30ec176c11e3c47493e736ac88be5b5b25a8688ec2a1c998e6a",
      "assetIds": []
    },
    {
      "x": 180,
      "y": 330,
      "size": 1,
      "price": "1011000000000000000000",
      "reserved": "",
      "salt": "0xcd4061bf1d7be443cbfe68913b6ca3623a1b146206c7f6c3431318bb7dadbfbb",
      "assetIds": []
    },
    {
      "x": 180,
      "y": 331,
      "size": 1,
      "price": "1011000000000000000000",
      "reserved": "",
      "salt": "0xd02f15f12ba6e289691774b223c33872f58b5e9e41c6251e765520544afce0a6",
      "assetIds": []
    },
    {
      "x": 180,
      "y": 332,
      "size": 1,
      "price": "4683000000000000000000",
      "reserved": "",
      "salt": "0xb4ca76e364032a93b4915ef40ce5e0ad1e347cf185445b6122ac99b05397c149",
      "assetIds": [
        "55464657044963196816950587289035428064568320970692304673817341489687790884865",
        "55464657044963196816950587289035428064568320970692304673817341489687782494208",
        "55464657044963196816950587289035428064568320970692304673817341489687790884866",
        "55464657044963196816950587289035428064568320970692304673817341489687782494209",
        "55464657044963196816950587289035428064568320970692304673817341489687790884864"
      ]
    },
    {
      "x": 180,
      "y": 333,
      "size": 1,
      "price": "4683000000000000000000",
      "reserved": "",
      "salt": "0x79a4fec579e08ce27d0a9040ffac3612eae09e17bed5f8145fa089e3127c038f",
      "assetIds": [
        "55464657044963196816950587289035428064568320970692304673817341489687790884865",
        "55464657044963196816950587289035428064568320970692304673817341489687782494208",
        "55464657044963196816950587289035428064568320970692304673817341489687790884866",
        "55464657044963196816950587289035428064568320970692304673817341489687782494209",
        "55464657044963196816950587289035428064568320970692304673817341489687790884864"
      ]
    },
    {
      "x": 180,
      "y": 334,
      "size": 1,
      "price": "4683000000000000000000",
      "reserved": "",
      "salt": "0x491e9b7395f868cc66b9a108a714c59ba60b4ae60a05f69e9d70630ceee442e7",
      "assetIds": [
        "55464657044963196816950587289035428064568320970692304673817341489687790884865",
        "55464657044963196816950587289035428064568320970692304673817341489687782494208",
        "55464657044963196816950587289035428064568320970692304673817341489687790884866",
        "55464657044963196816950587289035428064568320970692304673817341489687782494209",
        "55464657044963196816950587289035428064568320970692304673817341489687790884864"
      ]
    },
    {
      "x": 180,
      "y": 335,
      "size": 1,
      "price": "4683000000000000000000",
      "reserved": "",
      "salt": "0xcfa96a2fa41ddf82cf6372523bad03554eb85b20aeeea072575cf4631ea19429",
      "assetIds": [
        "55464657044963196816950587289035428064568320970692304673817341489687790884865",
        "55464657044963196816950587289035428064568320970692304673817341489687782494208",
        "55464657044963196816950587289035428064568320970692304673817341489687790884866",
        "55464657044963196816950587289035428064568320970692304673817341489687782494209",
        "55464657044963196816950587289035428064568320970692304673817341489687790884864"
      ]
    },
    {
      "x": 180,
      "y": 354,
      "size": 1,
      "price": "1011000000000000000000",
      "reserved": "",
      "salt": "0x140c55779a51191ea6e23d6dcd8a660251b6b576a6c5724642ceec51ea3db1ba",
      "assetIds": []
    },
    {
      "x": 180,
      "y": 355,
      "size": 1,
      "price": "1011000000000000000000",
      "reserved": "",
      "salt": "0xddc9daf666729bcec404429fa17e3d28acf358410b52ef92b2db979326134077",
      "assetIds": []
    },
    {
      "x": 180,
      "y": 356,
      "size": 1,
      "price": "1011000000000000000000",
      "reserved": "",
      "salt": "0x04cd73640bb296bd58ed580b6d1355a40e6fd7c67f8264c1223e37cc25bae796",
      "assetIds": []
    },
    {
      "x": 180,
      "y": 357,
      "size": 1,
      "price": "1011000000000000000000",
      "reserved": "",
      "salt": "0x18f3521ea99dbef2ba48edecba00fe8c858c432a7924c7e62389c84df4215397",
      "assetIds": []
    },
    {
      "x": 180,
      "y": 358,
      "size": 1,
      "price": "1011000000000000000000",
      "reserved": "",
      "salt": "0x60b3a2d64aaf91276b436936f7145ea73bccb9e6f1c97b69a7caa1b1a3fc0e97",
      "assetIds": []
    },
    {
      "x": 180,
      "y": 359,
      "size": 1,
      "price": "1011000000000000000000",
      "reserved": "",
      "salt": "0xe2d9ba3b2e4fd3db60fb862616e02caaa5f8c870a79b44f4518b7b48859bf4f0",
      "assetIds": []
    },
    {
      "x": 181,
      "y": 327,
      "size": 1,
      "price": "1011000000000000000000",
      "reserved": "0x7a9fe22691c811ea339d9b73150e6911a5343dca",
      "salt": "0xca3b29c6e67f7f354425996779101a3ffc31b133475ed8ab5bad2bd9c2d88ec5",
      "assetIds": []
    },
    {
      "x": 181,
      "y": 328,
      "size": 1,
      "price": "1011000000000000000000",
      "reserved": "",
      "salt": "0x81caa66cd24a60cd742cc3091c8d7ae622021fc2e0986938e2f3a2bf4e5e476c",
      "assetIds": []
    },
    {
      "x": 181,
      "y": 329,
      "size": 1,
      "price": "1011000000000000000000",
      "reserved": "",
      "salt": "0x377d6412821cdbece44ef0e25ea33a7e088c9102640d02f451c3442f68d085af",
      "assetIds": []
    },
    {
      "x": 181,
      "y": 330,
      "size": 1,
      "price": "1011000000000000000000",
      "reserved": "",
      "salt": "0x5b5860376910029f63866f1c321a68abfaf6d889059cd52fe4cc0d7dcc28d41f",
      "assetIds": []
    },
    {
      "x": 181,
      "y": 331,
      "size": 1,
      "price": "1011000000000000000000",
      "reserved": "",
      "salt": "0x9f252edf24074cacda6c6e44305c9cc00ab86f93c4a3e5f2ae72fe7e160d4e35",
      "assetIds": []
    },
    {
      "x": 181,
      "y": 332,
      "size": 1,
      "price": "1011000000000000000000",
      "reserved": "",
      "salt": "0xe813fb9ec83441b7a83050bd5a8acb3168d26fdd014ca2832552a8f6d0c5342d",
      "assetIds": []
    },
    {
      "x": 181,
      "y": 333,
      "size": 1,
      "price": "1011000000000000000000",
      "reserved": "",
      "salt": "0x4ed0d0cdd4ea91c315361f4affc1670bcd3e12f9365d78b9bf35a7007e486d6e",
      "assetIds": []
    },
    {
      "x": 181,
      "y": 334,
      "size": 1,
      "price": "1011000000000000000000",
      "reserved": "",
      "salt": "0xd4a136c64da399cec1a3fd019b39c33c29d0c6cfb1a1ab484591ec52d10f2e0d",
      "assetIds": []
    },
    {
      "x": 181,
      "y": 335,
      "size": 1,
      "price": "4683000000000000000000",
      "reserved": "",
      "salt": "0xf679434478238feddc7f1ab85ba0acbdb4d85dd06f3f31c6f86163c1072a16df",
      "assetIds": [
        "55464657044963196816950587289035428064568320970692304673817341489687790884865",
        "55464657044963196816950587289035428064568320970692304673817341489687782494208",
        "55464657044963196816950587289035428064568320970692304673817341489687790884866",
        "55464657044963196816950587289035428064568320970692304673817341489687782494209",
        "55464657044963196816950587289035428064568320970692304673817341489687790884864"
      ]
    },
    {
      "x": 181,
      "y": 354,
      "size": 1,
      "price": "1011000000000000000000",
      "reserved": "",
      "salt": "0x8c40470c0400a5d8670191a7ccdedc5d41df0d9301602ce452edc514e7ce2b57",
      "assetIds": []
    },
    {
      "x": 181,
      "y": 355,
      "size": 1,
      "price": "1011000000000000000000",
      "reserved": "",
      "salt": "0xc2032a6c01ea8e784c21977782611dc894574c7f68600140beb9bceda135152b",
      "assetIds": []
    },
    {
      "x": 181,
      "y": 356,
      "size": 1,
      "price": "1011000000000000000000",
      "reserved": "",
      "salt": "0x80ee42e7b0a5966010fab9ed91dd993b6b10af77da932d520654864e6d0df21c",
      "assetIds": []
    },
    {
      "x": 181,
      "y": 357,
      "size": 1,
      "price": "1011000000000000000000",
      "reserved": "",
      "salt": "0xf19885afc2b5727b53ae1e069167d9eee5cb3647bc51c979d7233e1a55af10f4",
      "assetIds": []
    },
    {
      "x": 181,
      "y": 358,
      "size": 1,
      "price": "1011000000000000000000",
      "reserved": "0x7a9fe22691c811ea339d9b73150e6911a5343dca",
      "salt": "0xc0a57c953cc2c7f106f79d192d43289df57cb00ee4ca7b1774429701f63f5fef",
      "assetIds": []
    },
    {
      "x": 181,
      "y": 359,
      "size": 1,
      "price": "1011000000000000000000",
      "reserved": "",
      "salt": "0x9012bbdb6de57f49350f98e06d211b97030c1efff650594de0608dd22bb0563b",
      "assetIds": []
    },
    {
      "x": 182,
      "y": 327,
      "size": 1,
      "price": "1011000000000000000000",
      "reserved": "",
      "salt": "0xe2bc973f826cb2c617a2e68b1c272ce8a61c9b04cbe3ee8d273a7e6e88e5c076",
      "assetIds": []
    },
    {
      "x": 182,
      "y": 328,
      "size": 1,
      "price": "1011000000000000000000",
      "reserved": "",
      "salt": "0xdd3bfb04b83a3d2dbd0a49d2e00d333d0279c5326b075524c67bff6c62a897d3",
      "assetIds": []
    },
    {
      "x": 182,
      "y": 329,
      "size": 1,
      "price": "1011000000000000000000",
      "reserved": "",
      "salt": "0xdad8e07d41ee35a067447312134cb74be5083bc2bf3039a854f57316c459d005",
      "assetIds": []
    },
    {
      "x": 182,
      "y": 330,
      "size": 1,
      "price": "1011000000000000000000",
      "reserved": "0x7a9fe22691c811ea339d9b73150e6911a5343dca",
      "salt": "0xc8880b80dc64f18ca620a76941472819ec817b9b9abd3446d98af465a845ec86",
      "assetIds": []
    },
    {
      "x": 182,
      "y": 331,
      "size": 1,
      "price": "1011000000000000000000",
      "reserved": "",
      "salt": "0x4a0af89bfc75a6498f9a8f64f57bbcf8bfb82c8b539fe582c3e87084faf8a48b",
      "assetIds": []
    },
    {
      "x": 182,
      "y": 332,
      "size": 1,
      "price": "1011000000000000000000",
      "reserved": "",
      "salt": "0x52a6d653d303d0a91267d8a254daf045a276713e18b1f697be697036fb35b38f",
      "assetIds": []
    },
    {
      "x": 182,
      "y": 333,
      "size": 1,
      "price": "1011000000000000000000",
      "reserved": "0x7a9fe22691c811ea339d9b73150e6911a5343dca",
      "salt": "0x07716893cd9f29c53ce952541d2f9a6d382db7616eef3ce9656721df0eb915cf",
      "assetIds": []
    },
    {
      "x": 182,
      "y": 334,
      "size": 1,
      "price": "1011000000000000000000",
      "reserved": "",
      "salt": "0x0466a62fb241267ee2f1d1326880a98ecd8e329e8cc23c031d014170f55efbad",
      "assetIds": []
    },
    {
      "x": 182,
      "y": 335,
      "size": 1,
      "price": "4683000000000000000000",
      "reserved": "",
      "salt": "0x46de95f5dcc6cdf5c478789c50d776cab807e2adb122472a7c06a3402eefd633",
      "assetIds": [
        "55464657044963196816950587289035428064568320970692304673817341489687790884865",
        "55464657044963196816950587289035428064568320970692304673817341489687782494208",
        "55464657044963196816950587289035428064568320970692304673817341489687790884866",
        "55464657044963196816950587289035428064568320970692304673817341489687782494209",
        "55464657044963196816950587289035428064568320970692304673817341489687790884864"
      ]
    },
    {
      "x": 182,
      "y": 354,
      "size": 1,
      "price": "1011000000000000000000",
      "reserved": "",
      "salt": "0xa03ccfa892f67db6d6a4115eb4e098d3abe27a4073b3db9c94a541ead51b57cf",
      "assetIds": []
    },
    {
      "x": 182,
      "y": 355,
      "size": 1,
      "price": "1011000000000000000000",
      "reserved": "",
      "salt": "0x3600bac8a9adc028a0066cab4f6545f5dca427de4317aa02cd0e3a19c4ee06e5",
      "assetIds": []
    },
    {
      "x": 182,
      "y": 356,
      "size": 1,
      "price": "1011000000000000000000",
      "reserved": "0x7a9fe22691c811ea339d9b73150e6911a5343dca",
      "salt": "0x3f8a6f5be70b4457ef3a49dfb0331af8ad4135eefe7773a31dd5aa62f346ce9b",
      "assetIds": []
    },
    {
      "x": 182,
      "y": 357,
      "size": 1,
      "price": "1011000000000000000000",
      "reserved": "",
      "salt": "0xac2d54a421017a159432af052db77ae196a744825a0aeb80302835623f44a9c6",
      "assetIds": []
    },
    {
      "x": 182,
      "y": 358,
      "size": 1,
      "price": "1011000000000000000000",
      "reserved": "",
      "salt": "0x56269e2649689fc167c32a3ff930c3515eb719fec5316665e4178a6260153338",
      "assetIds": []
    },
    {
      "x": 182,
      "y": 359,
      "size": 1,
      "price": "1011000000000000000000",
      "reserved": "",
      "salt": "0x4ba997e08eba35e73b53452129dcc2c1a98fef49c813c37e7c40ad24f3578382",
      "assetIds": []
    },
    {
      "x": 183,
      "y": 329,
      "size": 1,
      "price": "1011000000000000000000",
      "reserved": "",
      "salt": "0x7af4a9b706839a75670591394ad763797eaffb6dcc59c47a26514f872100be95",
      "assetIds": []
    },
    {
      "x": 183,
      "y": 330,
      "size": 1,
      "price": "1011000000000000000000",
      "reserved": "",
      "salt": "0x0ff209af844d8c51039391da3bab961f9f80d58b3d0e4952c28bf5e26b5fa42c",
      "assetIds": []
    },
    {
      "x": 183,
      "y": 331,
      "size": 1,
      "price": "1011000000000000000000",
      "reserved": "",
      "salt": "0x2ebdc1b64256ace7dd0607de0c4886e05e8c0456d6d355570f85df2a1153455d",
      "assetIds": []
    },
    {
      "x": 183,
      "y": 332,
      "size": 1,
      "price": "1011000000000000000000",
      "reserved": "",
      "salt": "0x1ad990f94595d96bd21451f0d589befc4a2eef37738aa5866734adb6101c9974",
      "assetIds": []
    },
    {
      "x": 183,
      "y": 333,
      "size": 1,
      "price": "1011000000000000000000",
      "reserved": "",
      "salt": "0x40d198bf9830a43e7487fea1672d750bb140f82f202e13592183630958e07d8f",
      "assetIds": []
    },
    {
      "x": 183,
      "y": 334,
      "size": 1,
      "price": "1011000000000000000000",
      "reserved": "",
      "salt": "0xe1e6b3c20a7cc62aac796ca272caeb235aec7383deb3c05ad531ab061472763b",
      "assetIds": []
    },
    {
      "x": 183,
      "y": 335,
      "size": 1,
      "price": "4683000000000000000000",
      "reserved": "",
      "salt": "0xc053a2cb6871439cd2e5dc0f653dc462c41adb9a5a272672a1d73de55a6dc2a6",
      "assetIds": [
        "55464657044963196816950587289035428064568320970692304673817341489687790884865",
        "55464657044963196816950587289035428064568320970692304673817341489687782494208",
        "55464657044963196816950587289035428064568320970692304673817341489687790884866",
        "55464657044963196816950587289035428064568320970692304673817341489687782494209",
        "55464657044963196816950587289035428064568320970692304673817341489687790884864"
      ]
    },
    {
      "x": 183,
      "y": 354,
      "size": 1,
      "price": "1011000000000000000000",
      "reserved": "0x7a9fe22691c811ea339d9b73150e6911a5343dca",
      "salt": "0x8f6df5a2141d2190b722efc9b3f36032ee04fb657221225413c603f5449ebadd",
      "assetIds": []
    },
    {
      "x": 183,
      "y": 355,
      "size": 1,
      "price": "1011000000000000000000",
      "reserved": "",
      "salt": "0xb3cb3dd5e6d45fa097d80bfdee6c93de3dd778c20c57e38edcbe2d24d0fe7991",
      "assetIds": []
    },
    {
      "x": 183,
      "y": 356,
      "size": 1,
      "price": "1011000000000000000000",
      "reserved": "",
      "salt": "0x3a4b0afae2f931161e0864ed7bf8e5c1e85c0bf83dab3f0d91f559abb67e3e1c",
      "assetIds": []
    },
    {
      "x": 183,
      "y": 357,
      "size": 1,
      "price": "1011000000000000000000",
      "reserved": "",
      "salt": "0x81514a085703c335b0d3212e83e5541dafcf692934f0267fc1c566144f53c507",
      "assetIds": []
    },
    {
      "x": 183,
      "y": 358,
      "size": 1,
      "price": "1011000000000000000000",
      "reserved": "",
      "salt": "0x39832292d35930f4f7c0afd6b5e093d2743e48eddd8fa67dc423947394bbe333",
      "assetIds": []
    },
    {
      "x": 183,
      "y": 359,
      "size": 1,
      "price": "1011000000000000000000",
      "reserved": "",
      "salt": "0xf04dc14f5245f6019693dc44bce3dfbe51fc87b0feb7c513b8bbb937846e533c",
      "assetIds": []
    },
    {
      "x": 184,
      "y": 329,
      "size": 1,
      "price": "1011000000000000000000",
      "reserved": "",
      "salt": "0xef5a77614b8d86db878b90f0ab45388ec1af54a79c08a716a8aa8d18a692c07b",
      "assetIds": []
    },
    {
      "x": 184,
      "y": 330,
      "size": 1,
      "price": "1011000000000000000000",
      "reserved": "",
      "salt": "0x2e0d51994519261a8998fb0f5b2145a1816f5997123d9bda0d0bfcc3f65d546c",
      "assetIds": []
    },
    {
      "x": 184,
      "y": 331,
      "size": 1,
      "price": "1011000000000000000000",
      "reserved": "",
      "salt": "0xcf15001baa2bfb62c7eebbfacfab47f6f26a5e4f7f3b52b8242ea55d41169ca1",
      "assetIds": []
    },
    {
      "x": 184,
      "y": 332,
      "size": 1,
      "price": "1011000000000000000000",
      "reserved": "",
      "salt": "0xb977c7c626c7d4f9db6d6fa6d0cfd5788c4e6c948df206863663c345c7294ec7",
      "assetIds": []
    },
    {
      "x": 184,
      "y": 333,
      "size": 1,
      "price": "4683000000000000000000",
      "reserved": "",
      "salt": "0x3df033e554f31abe67fb8524e1a98bdd364b3776eac6528c6d701661d15329ea",
      "assetIds": [
        "55464657044963196816950587289035428064568320970692304673817341489687790884865",
        "55464657044963196816950587289035428064568320970692304673817341489687782494208",
        "55464657044963196816950587289035428064568320970692304673817341489687790884866",
        "55464657044963196816950587289035428064568320970692304673817341489687782494209",
        "55464657044963196816950587289035428064568320970692304673817341489687790884864"
      ]
    },
    {
      "x": 184,
      "y": 334,
      "size": 1,
      "price": "4683000000000000000000",
      "reserved": "",
      "salt": "0x024a15ff8b5c5362c82be1c794f366e4340540d22439dab0b7fdc2052f63ac07",
      "assetIds": [
        "55464657044963196816950587289035428064568320970692304673817341489687790884865",
        "55464657044963196816950587289035428064568320970692304673817341489687782494208",
        "55464657044963196816950587289035428064568320970692304673817341489687790884866",
        "55464657044963196816950587289035428064568320970692304673817341489687782494209",
        "55464657044963196816950587289035428064568320970692304673817341489687790884864"
      ]
    },
    {
      "x": 184,
      "y": 335,
      "size": 1,
      "price": "4683000000000000000000",
      "reserved": "",
      "salt": "0x9f8621aa5252d7fec403ceef51ec2329cb161837287c7ab9d6b848e1c66e405e",
      "assetIds": [
        "55464657044963196816950587289035428064568320970692304673817341489687790884865",
        "55464657044963196816950587289035428064568320970692304673817341489687782494208",
        "55464657044963196816950587289035428064568320970692304673817341489687790884866",
        "55464657044963196816950587289035428064568320970692304673817341489687782494209",
        "55464657044963196816950587289035428064568320970692304673817341489687790884864"
      ]
    },
    {
      "x": 184,
      "y": 354,
      "size": 1,
      "price": "1011000000000000000000",
      "reserved": "",
      "salt": "0x7be9e6d890536b0744f378e4197c2c40adf45728844d1354bf180650c17b75a2",
      "assetIds": []
    },
    {
      "x": 184,
      "y": 355,
      "size": 1,
      "price": "1011000000000000000000",
      "reserved": "",
      "salt": "0x8b54b0ab7bbcd804d27889b7ac5ee1ddebb92a771d1ec551e1d441875d1deec2",
      "assetIds": []
    },
    {
      "x": 184,
      "y": 356,
      "size": 1,
      "price": "1011000000000000000000",
      "reserved": "",
      "salt": "0x0befb355d16c86f54f9f3a44df582d1946380100a162a173154d98585320ce1a",
      "assetIds": []
    },
    {
      "x": 184,
      "y": 357,
      "size": 1,
      "price": "1011000000000000000000",
      "reserved": "",
      "salt": "0x97627983cc9377d230046844794e3df230d681f1becdaa4b0dd5e7e7180c9241",
      "assetIds": []
    },
    {
      "x": 184,
      "y": 358,
      "size": 1,
      "price": "1011000000000000000000",
      "reserved": "",
      "salt": "0xc9a6cfaaa71413459d98ea5d3efe4cc6bc19de17c3c3288ee7dc1dd502e76b9b",
      "assetIds": []
    },
    {
      "x": 184,
      "y": 359,
      "size": 1,
      "price": "1011000000000000000000",
      "reserved": "",
      "salt": "0x40f5fdcc6247b18f4828da6f848a574dad1615d28cfe03082580cc457d159d64",
      "assetIds": []
    },
    {
      "x": 185,
      "y": 329,
      "size": 1,
      "price": "1011000000000000000000",
      "reserved": "",
      "salt": "0xd4e4f99900930bd634dda4624039d20f85819ec77abdcb26ba459a8df2dafc1f",
      "assetIds": []
    },
    {
      "x": 185,
      "y": 330,
      "size": 1,
      "price": "1011000000000000000000",
      "reserved": "",
      "salt": "0x577999b1f99809e7eef48fcecbf47287a1db79b0fe9550c808a4a2a919aa8f78",
      "assetIds": []
    },
    {
      "x": 185,
      "y": 331,
      "size": 1,
      "price": "1011000000000000000000",
      "reserved": "",
      "salt": "0xc49eb0c4478078fac9d4f7d83c83235393d98d987d3c473d2c5f624cea4b94b4",
      "assetIds": []
    },
    {
      "x": 185,
      "y": 332,
      "size": 1,
      "price": "1011000000000000000000",
      "reserved": "",
      "salt": "0xf0faafb9f7a2fedf798c347b00b8433cde7c0e6cd46a1759377101fd50e3afe6",
      "assetIds": []
    },
    {
      "x": 185,
      "y": 333,
      "size": 1,
      "price": "4683000000000000000000",
      "reserved": "",
      "salt": "0xda433e891033a19f00fb451613a08be56b87fe824c88cf8a7aed630de7754bd3",
      "assetIds": [
        "55464657044963196816950587289035428064568320970692304673817341489687790884865",
        "55464657044963196816950587289035428064568320970692304673817341489687782494208",
        "55464657044963196816950587289035428064568320970692304673817341489687790884866",
        "55464657044963196816950587289035428064568320970692304673817341489687782494209",
        "55464657044963196816950587289035428064568320970692304673817341489687790884864"
      ]
    },
    {
      "x": 185,
      "y": 334,
      "size": 1,
      "price": "4683000000000000000000",
      "reserved": "",
      "salt": "0x14b1438bee238dad2a385eb91e4e4326f6901e861c109683c4715f1fd75a4d2b",
      "assetIds": [
        "55464657044963196816950587289035428064568320970692304673817341489687790884865",
        "55464657044963196816950587289035428064568320970692304673817341489687782494208",
        "55464657044963196816950587289035428064568320970692304673817341489687790884866",
        "55464657044963196816950587289035428064568320970692304673817341489687782494209",
        "55464657044963196816950587289035428064568320970692304673817341489687790884864"
      ]
    },
    {
      "x": 185,
      "y": 335,
      "size": 1,
      "price": "4683000000000000000000",
      "reserved": "",
      "salt": "0x99e008cda29d84974b2558af9d7198295eb8662c4a5c800f2658a1185034950d",
      "assetIds": [
        "55464657044963196816950587289035428064568320970692304673817341489687790884865",
        "55464657044963196816950587289035428064568320970692304673817341489687782494208",
        "55464657044963196816950587289035428064568320970692304673817341489687790884866",
        "55464657044963196816950587289035428064568320970692304673817341489687782494209",
        "55464657044963196816950587289035428064568320970692304673817341489687790884864"
      ]
    },
    {
      "x": 185,
      "y": 354,
      "size": 1,
      "price": "1011000000000000000000",
      "reserved": "",
      "salt": "0x88cde0883c1f76ae7cf07605f4835b724c54716072dcb6a28b446cc014a22749",
      "assetIds": []
    },
    {
      "x": 185,
      "y": 355,
      "size": 1,
      "price": "1011000000000000000000",
      "reserved": "",
      "salt": "0x542657376e3a046e6837929757d2e1239b302f014e25df7f76897de06ebbe6fd",
      "assetIds": []
    },
    {
      "x": 185,
      "y": 356,
      "size": 1,
      "price": "1011000000000000000000",
      "reserved": "",
      "salt": "0xcf0a790de96b36673902fe2ca691ac9aea15514bf3a40fa634f4a1c89c9db5b3",
      "assetIds": []
    },
    {
      "x": 185,
      "y": 357,
      "size": 1,
      "price": "1011000000000000000000",
      "reserved": "",
      "salt": "0x44c914b14a950f6bcd7dc6852f83ad8f6caea0a63a6b3034fa68b75c1db52f68",
      "assetIds": []
    },
    {
      "x": 185,
      "y": 358,
      "size": 1,
      "price": "1011000000000000000000",
      "reserved": "",
      "salt": "0xfd6973869af53f94b5099357944523cfe741d80edfdf3f7d131b5831bd019a54",
      "assetIds": []
    },
    {
      "x": 185,
      "y": 359,
      "size": 1,
      "price": "1011000000000000000000",
      "reserved": "0x7a9fe22691c811ea339d9b73150e6911a5343dca",
      "salt": "0xe2e1c75f2bb71a0fee2acd942e640f0c484e1966cd3574719c107944512fddcd",
      "assetIds": []
    },
    {
      "x": 186,
      "y": 329,
      "size": 1,
      "price": "1011000000000000000000",
      "reserved": "",
      "salt": "0x4651c5b6841638bf162c05e58da52682ca9da502c39258e2faacc2085b2be567",
      "assetIds": []
    },
    {
      "x": 186,
      "y": 330,
      "size": 1,
      "price": "1011000000000000000000",
      "reserved": "",
      "salt": "0x43defa51f633950da426a181bcebe823c3ea162bf6f7849b814563328aec1384",
      "assetIds": []
    },
    {
      "x": 186,
      "y": 331,
      "size": 1,
      "price": "1011000000000000000000",
      "reserved": "",
      "salt": "0xabed5a15d7a1677e53fc0ec7aa30d186d22b0e8798433f74eec5e87e8d756bee",
      "assetIds": []
    },
    {
      "x": 186,
      "y": 332,
      "size": 1,
      "price": "1011000000000000000000",
      "reserved": "",
      "salt": "0x723b9909bd686e2cd55787f68761643921582be019623a7ee3118c9676ff4dba",
      "assetIds": []
    },
    {
      "x": 186,
      "y": 333,
      "size": 1,
      "price": "1011000000000000000000",
      "reserved": "",
      "salt": "0xc2c2e17ffc0e530f9ec1832c330c617a621489025451b6b00343373898898fc5",
      "assetIds": []
    },
    {
      "x": 186,
      "y": 334,
      "size": 1,
      "price": "4683000000000000000000",
      "reserved": "",
      "salt": "0x318090ef30bf1dbbbaa2a25d36c01044c3c5ec9f4b98f96892fdaa4643d1bb1a",
      "assetIds": [
        "55464657044963196816950587289035428064568320970692304673817341489687790884865",
        "55464657044963196816950587289035428064568320970692304673817341489687782494208",
        "55464657044963196816950587289035428064568320970692304673817341489687790884866",
        "55464657044963196816950587289035428064568320970692304673817341489687782494209",
        "55464657044963196816950587289035428064568320970692304673817341489687790884864"
      ]
    },
    {
      "x": 186,
      "y": 335,
      "size": 1,
      "price": "4683000000000000000000",
      "reserved": "",
      "salt": "0x817935c693d4526334de1f2cd05fe1d2073f29d421d4da20f02095881d4c757a",
      "assetIds": [
        "55464657044963196816950587289035428064568320970692304673817341489687790884865",
        "55464657044963196816950587289035428064568320970692304673817341489687782494208",
        "55464657044963196816950587289035428064568320970692304673817341489687790884866",
        "55464657044963196816950587289035428064568320970692304673817341489687782494209",
        "55464657044963196816950587289035428064568320970692304673817341489687790884864"
      ]
    },
    {
      "x": 186,
      "y": 348,
      "size": 1,
      "price": "4683000000000000000000",
      "reserved": "",
      "salt": "0x094e878e2172351d59674d4fc1ca01ca20f20cf48936f9aa2bbf5fe05904b9e4",
      "assetIds": [
        "55464657044963196816950587289035428064568320970692304673817341489687790884865",
        "55464657044963196816950587289035428064568320970692304673817341489687782494208",
        "55464657044963196816950587289035428064568320970692304673817341489687790884866",
        "55464657044963196816950587289035428064568320970692304673817341489687782494209",
        "55464657044963196816950587289035428064568320970692304673817341489687790884864"
      ]
    },
    {
      "x": 186,
      "y": 349,
      "size": 1,
      "price": "4683000000000000000000",
      "reserved": "",
      "salt": "0x6409b09a2d243b0bf2ed5996a84bec90173790050be06c74bbae6a5643900057",
      "assetIds": [
        "55464657044963196816950587289035428064568320970692304673817341489687790884865",
        "55464657044963196816950587289035428064568320970692304673817341489687782494208",
        "55464657044963196816950587289035428064568320970692304673817341489687790884866",
        "55464657044963196816950587289035428064568320970692304673817341489687782494209",
        "55464657044963196816950587289035428064568320970692304673817341489687790884864"
      ]
    },
    {
      "x": 186,
      "y": 350,
      "size": 1,
      "price": "4683000000000000000000",
      "reserved": "",
      "salt": "0x15e06906bebfcce924090fdbf0c4a26e33a0cdbffe8777011974663c9b3b02a8",
      "assetIds": [
        "55464657044963196816950587289035428064568320970692304673817341489687790884865",
        "55464657044963196816950587289035428064568320970692304673817341489687782494208",
        "55464657044963196816950587289035428064568320970692304673817341489687790884866",
        "55464657044963196816950587289035428064568320970692304673817341489687782494209",
        "55464657044963196816950587289035428064568320970692304673817341489687790884864"
      ]
    },
    {
      "x": 186,
      "y": 351,
      "size": 1,
      "price": "4683000000000000000000",
      "reserved": "",
      "salt": "0x3307b9e49d30e14ee52b14e8983230d490a9dda3983c571b8d0b2292790bc1c8",
      "assetIds": [
        "55464657044963196816950587289035428064568320970692304673817341489687790884865",
        "55464657044963196816950587289035428064568320970692304673817341489687782494208",
        "55464657044963196816950587289035428064568320970692304673817341489687790884866",
        "55464657044963196816950587289035428064568320970692304673817341489687782494209",
        "55464657044963196816950587289035428064568320970692304673817341489687790884864"
      ]
    },
    {
      "x": 186,
      "y": 352,
      "size": 1,
      "price": "4683000000000000000000",
      "reserved": "",
      "salt": "0x86cf758cc4cf48cc2fa8e05198679eeee7f66994b7fac3779d068fc2310b17af",
      "assetIds": [
        "55464657044963196816950587289035428064568320970692304673817341489687790884865",
        "55464657044963196816950587289035428064568320970692304673817341489687782494208",
        "55464657044963196816950587289035428064568320970692304673817341489687790884866",
        "55464657044963196816950587289035428064568320970692304673817341489687782494209",
        "55464657044963196816950587289035428064568320970692304673817341489687790884864"
      ]
    },
    {
      "x": 186,
      "y": 353,
      "size": 1,
      "price": "1011000000000000000000",
      "reserved": "",
      "salt": "0x8144a20ef7e42c5905ff2ff6f43133c70f531d283d82f813d67c2261b3422295",
      "assetIds": []
    },
    {
      "x": 186,
      "y": 354,
      "size": 1,
      "price": "1011000000000000000000",
      "reserved": "",
      "salt": "0xd365069331730d232b45aace7e8e82ae518e128b0a6811eab9004aa8008932cc",
      "assetIds": []
    },
    {
      "x": 186,
      "y": 355,
      "size": 1,
      "price": "1011000000000000000000",
      "reserved": "",
      "salt": "0xf92535a0953404d625b74feee6152b0544ff68524c65ed3a8995985209a70703",
      "assetIds": []
    },
    {
      "x": 186,
      "y": 356,
      "size": 1,
      "price": "1011000000000000000000",
      "reserved": "0x7a9fe22691c811ea339d9b73150e6911a5343dca",
      "salt": "0x92586ea579d2378f106d4c83018db89ef497707e061386262e146e1179698433",
      "assetIds": []
    },
    {
      "x": 186,
      "y": 357,
      "size": 1,
      "price": "1011000000000000000000",
      "reserved": "",
      "salt": "0x801094e094d9986dc7f6902f87d8eae79d843bcde94394a3bf22cfbe02850673",
      "assetIds": []
    },
    {
      "x": 186,
      "y": 358,
      "size": 1,
      "price": "1011000000000000000000",
      "reserved": "",
      "salt": "0x5ad0951cb955fb9ffc8a0317cd1b0d00ea65cf2007e335e2820b5e97217e783d",
      "assetIds": []
    },
    {
      "x": 186,
      "y": 359,
      "size": 1,
      "price": "1011000000000000000000",
      "reserved": "",
      "salt": "0xae2f13f9249764d3160769cc11431ae601d336b9e9ab8508027a6a9df7a255c8",
      "assetIds": []
    },
    {
      "x": 187,
      "y": 331,
      "size": 1,
      "price": "1011000000000000000000",
      "reserved": "0x7a9fe22691c811ea339d9b73150e6911a5343dca",
      "salt": "0xb0179ba986caff322dfe0a3e7045bbcb2974529e26b11f702e52eaaf330789ea",
      "assetIds": []
    },
    {
      "x": 187,
      "y": 332,
      "size": 1,
      "price": "1011000000000000000000",
      "reserved": "0x7a9fe22691c811ea339d9b73150e6911a5343dca",
      "salt": "0x2e2180cc4f398756395017b901187cd07dba365e3d5a8ed6cd3a4ce22d943ef4",
      "assetIds": []
    },
    {
      "x": 187,
      "y": 333,
      "size": 1,
      "price": "1011000000000000000000",
      "reserved": "",
      "salt": "0xb6eb82b2c73e469c2ee6dfea32d69468056359e72a4bb4589b9f23159d0558ee",
      "assetIds": []
    },
    {
      "x": 187,
      "y": 334,
      "size": 1,
      "price": "4683000000000000000000",
      "reserved": "",
      "salt": "0x3ce497a5d8da7bfe832fd81612fb889e392f1583081efa26a817e23832226290",
      "assetIds": [
        "55464657044963196816950587289035428064568320970692304673817341489687790884865",
        "55464657044963196816950587289035428064568320970692304673817341489687782494208",
        "55464657044963196816950587289035428064568320970692304673817341489687790884866",
        "55464657044963196816950587289035428064568320970692304673817341489687782494209",
        "55464657044963196816950587289035428064568320970692304673817341489687790884864"
      ]
    },
    {
      "x": 187,
      "y": 335,
      "size": 1,
      "price": "4683000000000000000000",
      "reserved": "",
      "salt": "0xdc7b1970b53645bbf638047c160692dc95f4f491dda15afe407bd602aa5f5997",
      "assetIds": [
        "55464657044963196816950587289035428064568320970692304673817341489687790884865",
        "55464657044963196816950587289035428064568320970692304673817341489687782494208",
        "55464657044963196816950587289035428064568320970692304673817341489687790884866",
        "55464657044963196816950587289035428064568320970692304673817341489687782494209",
        "55464657044963196816950587289035428064568320970692304673817341489687790884864"
      ]
    },
    {
      "x": 187,
      "y": 348,
      "size": 1,
      "price": "4683000000000000000000",
      "reserved": "",
      "salt": "0xb406e7af05e7565c7ffb4a2671cfacc85fc7184b4f913a467cf1b9312a96bc36",
      "assetIds": [
        "55464657044963196816950587289035428064568320970692304673817341489687790884865",
        "55464657044963196816950587289035428064568320970692304673817341489687782494208",
        "55464657044963196816950587289035428064568320970692304673817341489687790884866",
        "55464657044963196816950587289035428064568320970692304673817341489687782494209",
        "55464657044963196816950587289035428064568320970692304673817341489687790884864"
      ]
    },
    {
      "x": 187,
      "y": 349,
      "size": 1,
      "price": "4683000000000000000000",
      "reserved": "",
      "salt": "0x401e1064c80e57bc77b3287a47609d84d748ac3344217837cd26673afbc88c71",
      "assetIds": [
        "55464657044963196816950587289035428064568320970692304673817341489687790884865",
        "55464657044963196816950587289035428064568320970692304673817341489687782494208",
        "55464657044963196816950587289035428064568320970692304673817341489687790884866",
        "55464657044963196816950587289035428064568320970692304673817341489687782494209",
        "55464657044963196816950587289035428064568320970692304673817341489687790884864"
      ]
    },
    {
      "x": 187,
      "y": 350,
      "size": 1,
      "price": "4683000000000000000000",
      "reserved": "",
      "salt": "0x54d7fc2afd1cb7d23b6e132ca2d50bcf945169563d64c91b6c747f2381bccc1b",
      "assetIds": [
        "55464657044963196816950587289035428064568320970692304673817341489687790884865",
        "55464657044963196816950587289035428064568320970692304673817341489687782494208",
        "55464657044963196816950587289035428064568320970692304673817341489687790884866",
        "55464657044963196816950587289035428064568320970692304673817341489687782494209",
        "55464657044963196816950587289035428064568320970692304673817341489687790884864"
      ]
    },
    {
      "x": 187,
      "y": 351,
      "size": 1,
      "price": "1011000000000000000000",
      "reserved": "0x7a9fe22691c811ea339d9b73150e6911a5343dca",
      "salt": "0xa0cf89082bff6fb061c2703bada819852030cc922a2ab60a05e9ce3c8b774144",
      "assetIds": []
    },
    {
      "x": 187,
      "y": 352,
      "size": 1,
      "price": "1011000000000000000000",
      "reserved": "",
      "salt": "0xe69e20582e9c236b66c99ad30b34d4b64ab101d00c69a191800df2d6b1d15b0e",
      "assetIds": []
    },
    {
      "x": 187,
      "y": 353,
      "size": 1,
      "price": "1011000000000000000000",
      "reserved": "",
      "salt": "0xd28eca9131c4f4ebf3d667af46e29cc7089f565b0c87ae816e9f950a1262dfb6",
      "assetIds": []
    },
    {
      "x": 187,
      "y": 354,
      "size": 1,
      "price": "1011000000000000000000",
      "reserved": "",
      "salt": "0xe562ad404b4153f1c5cd6c43d3548c8dd5b86d55f04aded390c7bad0ea3cd827",
      "assetIds": []
    },
    {
      "x": 187,
      "y": 355,
      "size": 1,
      "price": "1011000000000000000000",
      "reserved": "",
      "salt": "0x89b5f7269c63755feef385595e878a781bb32360b7f0b93d392e987f7a6efb0d",
      "assetIds": []
    },
    {
      "x": 187,
      "y": 356,
      "size": 1,
      "price": "1011000000000000000000",
      "reserved": "",
      "salt": "0x2c7adb5693d1de64a215571c5d502193e1bb97b15a09b5cccc727c109b633be0",
      "assetIds": []
    },
    {
      "x": 187,
      "y": 357,
      "size": 1,
      "price": "1011000000000000000000",
      "reserved": "",
      "salt": "0x019da7bf868f45fcd0b2f65026e0e32dc60d992faa9731dd66ea813df75c2499",
      "assetIds": []
    },
    {
      "x": 187,
      "y": 358,
      "size": 1,
      "price": "1011000000000000000000",
      "reserved": "",
      "salt": "0xc3fd05ca4807db6395929ee7834f577679e2fb20dcaf1c80428ceeab4e93e110",
      "assetIds": []
    },
    {
      "x": 187,
      "y": 359,
      "size": 1,
      "price": "1011000000000000000000",
      "reserved": "",
      "salt": "0x45e06f0b53700a11b5a68cb242ed8b14673fc4eab0f1ec4322e65e5e73368479",
      "assetIds": []
    },
    {
      "x": 188,
      "y": 331,
      "size": 1,
      "price": "1011000000000000000000",
      "reserved": "",
      "salt": "0xc446dc977b7d2da4e58ae58b2619de44f41cd7d947f87df081082fb6a6720caf",
      "assetIds": []
    },
    {
      "x": 188,
      "y": 332,
      "size": 1,
      "price": "1011000000000000000000",
      "reserved": "",
      "salt": "0xbbd5989308dc0596b77c2fbf464dc7630aa7154cac995fd89c3c4f60911989ee",
      "assetIds": []
    },
    {
      "x": 188,
      "y": 333,
      "size": 1,
      "price": "1011000000000000000000",
      "reserved": "",
      "salt": "0x5e153d5a2866d50c9a87540b2be9b026de8ee49d85f8691b55d41ccd3f47a82d",
      "assetIds": []
    },
    {
      "x": 188,
      "y": 334,
      "size": 1,
      "price": "4683000000000000000000",
      "reserved": "",
      "salt": "0xb090fd85aa8955b2a956e6380f12a4620861c6a64beaded3d909e4cf7b59803c",
      "assetIds": [
        "55464657044963196816950587289035428064568320970692304673817341489687790884865",
        "55464657044963196816950587289035428064568320970692304673817341489687782494208",
        "55464657044963196816950587289035428064568320970692304673817341489687790884866",
        "55464657044963196816950587289035428064568320970692304673817341489687782494209",
        "55464657044963196816950587289035428064568320970692304673817341489687790884864"
      ]
    },
    {
      "x": 188,
      "y": 335,
      "size": 1,
      "price": "4683000000000000000000",
      "reserved": "",
      "salt": "0x2c2f079639cc1c8e86c23c2d9c54f04a7ed43372f083fb41213ba642a577cb71",
      "assetIds": [
        "55464657044963196816950587289035428064568320970692304673817341489687790884865",
        "55464657044963196816950587289035428064568320970692304673817341489687782494208",
        "55464657044963196816950587289035428064568320970692304673817341489687790884866",
        "55464657044963196816950587289035428064568320970692304673817341489687782494209",
        "55464657044963196816950587289035428064568320970692304673817341489687790884864"
      ]
    },
    {
      "x": 188,
      "y": 348,
      "size": 1,
      "price": "4683000000000000000000",
      "reserved": "",
      "salt": "0xae2fe19aa1e33bad27a60f6da0e63e2b2ff13989d05ca82aeb66f4e7798cf541",
      "assetIds": [
        "55464657044963196816950587289035428064568320970692304673817341489687790884865",
        "55464657044963196816950587289035428064568320970692304673817341489687782494208",
        "55464657044963196816950587289035428064568320970692304673817341489687790884866",
        "55464657044963196816950587289035428064568320970692304673817341489687782494209",
        "55464657044963196816950587289035428064568320970692304673817341489687790884864"
      ]
    },
    {
      "x": 188,
      "y": 349,
      "size": 1,
      "price": "1011000000000000000000",
      "reserved": "0x7a9fe22691c811ea339d9b73150e6911a5343dca",
      "salt": "0xd8ee3bfe7bc78405c4780d73feb19afe9a48c23b208448990053b55dc1b4479a",
      "assetIds": []
    },
    {
      "x": 188,
      "y": 350,
      "size": 1,
      "price": "1011000000000000000000",
      "reserved": "",
      "salt": "0xdf615f91c5d5d8ce33d8cbfaeed02624a10ccc7fd439ff802aa296621d7c155d",
      "assetIds": []
    },
    {
      "x": 188,
      "y": 351,
      "size": 1,
      "price": "1011000000000000000000",
      "reserved": "",
      "salt": "0xd99ad1bdcd9d1206153509b172dcd2cd5bdff8e9e36430529c8f0980e041579a",
      "assetIds": []
    },
    {
      "x": 188,
      "y": 352,
      "size": 1,
      "price": "1011000000000000000000",
      "reserved": "0x7a9fe22691c811ea339d9b73150e6911a5343dca",
      "salt": "0x5663887249945bbc5a09f2d8e316f1a348ba47a3c2876ca942f4246e5099bc9d",
      "assetIds": []
    },
    {
      "x": 188,
      "y": 353,
      "size": 1,
      "price": "1011000000000000000000",
      "reserved": "",
      "salt": "0xd3eac8270cccd0ecacd72bbc16f8b4611c146d47745716e75aaa83594b19ccae",
      "assetIds": []
    },
    {
      "x": 188,
      "y": 354,
      "size": 1,
      "price": "1011000000000000000000",
      "reserved": "",
      "salt": "0x04de83cf9bfb06350905688783f298afe12d52e6b6931bf2a9bef1da3c91e0d4",
      "assetIds": []
    },
    {
      "x": 188,
      "y": 355,
      "size": 1,
      "price": "1011000000000000000000",
      "reserved": "",
      "salt": "0x8bff455dee6dd504eba71a6b554cba2716be10f6f3efd1a62666b233b8c9bb83",
      "assetIds": []
    },
    {
      "x": 188,
      "y": 356,
      "size": 1,
      "price": "1011000000000000000000",
      "reserved": "0x7a9fe22691c811ea339d9b73150e6911a5343dca",
      "salt": "0x9b348b8f03b70ec17e48dec9fb0ec9b100ffcf9ca0ab716cb18efcd89b1dc7a5",
      "assetIds": []
    },
    {
      "x": 188,
      "y": 357,
      "size": 1,
      "price": "1011000000000000000000",
      "reserved": "",
      "salt": "0x9fd5f6172ab5488070bf9d8c8fce92747110716493ca412ffe015e62e6ec0be6",
      "assetIds": []
    },
    {
      "x": 188,
      "y": 358,
      "size": 1,
      "price": "1011000000000000000000",
      "reserved": "",
      "salt": "0xc6f6fcb64ce72eaa14ebee4270b34eae3ca68c9935f53ca65027d83e84741b18",
      "assetIds": []
    },
    {
      "x": 188,
      "y": 359,
      "size": 1,
      "price": "1011000000000000000000",
      "reserved": "",
      "salt": "0xb3b1a07d144aba42bc26001f4bb94e770e9f1b2bd0a77ee89b96861019eb946c",
      "assetIds": []
    },
    {
      "x": 189,
      "y": 331,
      "size": 1,
      "price": "1011000000000000000000",
      "reserved": "",
      "salt": "0x8d26c6da51800ebb418613cdc2f057bd7292271ff0345e9edc2640c00d1f524c",
      "assetIds": []
    },
    {
      "x": 189,
      "y": 332,
      "size": 1,
      "price": "1011000000000000000000",
      "reserved": "",
      "salt": "0xc4900d551181406888520772b4691d53a2ddc47f6c32a69c7c8705a05202f334",
      "assetIds": []
    },
    {
      "x": 189,
      "y": 333,
      "size": 1,
      "price": "1011000000000000000000",
      "reserved": "",
      "salt": "0x289d1e91b2f7bc84cc93ca2e110bcb3a1d80e529915e97156e92ff22f6016a6f",
      "assetIds": []
    },
    {
      "x": 189,
      "y": 334,
      "size": 1,
      "price": "4683000000000000000000",
      "reserved": "",
      "salt": "0xb1f4d453ea37ba432f36f9d55d4aec0f8b8dba49cc11598d6f8e2568fa648233",
      "assetIds": [
        "55464657044963196816950587289035428064568320970692304673817341489687790884865",
        "55464657044963196816950587289035428064568320970692304673817341489687782494208",
        "55464657044963196816950587289035428064568320970692304673817341489687790884866",
        "55464657044963196816950587289035428064568320970692304673817341489687782494209",
        "55464657044963196816950587289035428064568320970692304673817341489687790884864"
      ]
    },
    {
      "x": 189,
      "y": 335,
      "size": 1,
      "price": "4683000000000000000000",
      "reserved": "",
      "salt": "0x061d0bdb60b349ffbb3ad40e57f44a2b2f39dccb457f023e2f0d19938c7f321a",
      "assetIds": [
        "55464657044963196816950587289035428064568320970692304673817341489687790884865",
        "55464657044963196816950587289035428064568320970692304673817341489687782494208",
        "55464657044963196816950587289035428064568320970692304673817341489687790884866",
        "55464657044963196816950587289035428064568320970692304673817341489687782494209",
        "55464657044963196816950587289035428064568320970692304673817341489687790884864"
      ]
    },
    {
      "x": 189,
      "y": 348,
      "size": 1,
      "price": "4683000000000000000000",
      "reserved": "",
      "salt": "0x811122de2cd35258f5aa6f7142eb7c51d7c9153b70cb58663605b1f9abe04a44",
      "assetIds": [
        "55464657044963196816950587289035428064568320970692304673817341489687790884865",
        "55464657044963196816950587289035428064568320970692304673817341489687782494208",
        "55464657044963196816950587289035428064568320970692304673817341489687790884866",
        "55464657044963196816950587289035428064568320970692304673817341489687782494209",
        "55464657044963196816950587289035428064568320970692304673817341489687790884864"
      ]
    },
    {
      "x": 189,
      "y": 349,
      "size": 1,
      "price": "4683000000000000000000",
      "reserved": "",
      "salt": "0xe002aa004dc009f54481ef6a834aa5a7473da4bbef453fb2fcd0dbd6283761db",
      "assetIds": [
        "55464657044963196816950587289035428064568320970692304673817341489687790884865",
        "55464657044963196816950587289035428064568320970692304673817341489687782494208",
        "55464657044963196816950587289035428064568320970692304673817341489687790884866",
        "55464657044963196816950587289035428064568320970692304673817341489687782494209",
        "55464657044963196816950587289035428064568320970692304673817341489687790884864"
      ]
    },
    {
      "x": 189,
      "y": 350,
      "size": 1,
      "price": "1011000000000000000000",
      "reserved": "",
      "salt": "0x78dee34b7ca4716f296196a9c8f3e38f3d3dd7dbe4b63588db8df0536dd3b0a7",
      "assetIds": []
    },
    {
      "x": 189,
      "y": 351,
      "size": 1,
      "price": "1011000000000000000000",
      "reserved": "",
      "salt": "0x6de1ad028a62b5679a58cfce7511512087ec93922b422b428059ea07a5562f04",
      "assetIds": []
    },
    {
      "x": 189,
      "y": 352,
      "size": 1,
      "price": "1011000000000000000000",
      "reserved": "",
      "salt": "0x61df0a560e3ebbe02feaa68327544063c2880ee6e323387c1b10db7d1e7c88a9",
      "assetIds": []
    },
    {
      "x": 189,
      "y": 353,
      "size": 1,
      "price": "1011000000000000000000",
      "reserved": "",
      "salt": "0xeb71207001e0fa19d2868e85acef70e23415047be26dd6652cc4bb975b4e109c",
      "assetIds": []
    },
    {
      "x": 189,
      "y": 354,
      "size": 1,
      "price": "1011000000000000000000",
      "reserved": "",
      "salt": "0xe4180bab594ef21025eea3fcb8821d2dbc83bc5369fbef9f0d62e387378f0f54",
      "assetIds": []
    },
    {
      "x": 189,
      "y": 355,
      "size": 1,
      "price": "1011000000000000000000",
      "reserved": "",
      "salt": "0x3d5ac02527bf9f3681cdfa3ce414dae33d9bbdabb7a8793484f45d2f78c7c182",
      "assetIds": []
    },
    {
      "x": 189,
      "y": 356,
      "size": 1,
      "price": "1011000000000000000000",
      "reserved": "",
      "salt": "0x66d801b7e336732fa71d030bda98efb8e50e1bac2eaa087d9d618acbdd30eecd",
      "assetIds": []
    },
    {
      "x": 189,
      "y": 357,
      "size": 1,
      "price": "1011000000000000000000",
      "reserved": "",
      "salt": "0x03fec494ec668432490be9cbbf70fcd3f852928d7cb1830d73f01e864eafe5b4",
      "assetIds": []
    },
    {
      "x": 189,
      "y": 358,
      "size": 1,
      "price": "1011000000000000000000",
      "reserved": "",
      "salt": "0x20ad31a1e636bb989deb10929693624a382a416c610f1dd891e72d35a6da3353",
      "assetIds": []
    },
    {
      "x": 189,
      "y": 359,
      "size": 1,
      "price": "1011000000000000000000",
      "reserved": "",
      "salt": "0x72cc5f709209f5fcefc7e8def3beec91c716a5090abe8dd3054761fb41c08c2e",
      "assetIds": []
    },
    {
      "x": 190,
      "y": 331,
      "size": 1,
      "price": "1011000000000000000000",
      "reserved": "",
      "salt": "0x7e1c88ef755fe6ed5cde7a960ec57c6f8a8d35a4a2449948ff9413403dce938f",
      "assetIds": []
    },
    {
      "x": 190,
      "y": 332,
      "size": 1,
      "price": "1011000000000000000000",
      "reserved": "",
      "salt": "0x94d792b02459ca6175f76e246baa32f6da1dc8e06b4957f701a368ddec15c201",
      "assetIds": []
    },
    {
      "x": 190,
      "y": 333,
      "size": 1,
      "price": "1011000000000000000000",
      "reserved": "",
      "salt": "0x6dcf4aa5c4058b01fd7e5061dbb4906da903018c0f7e675e7a4a45c68878680a",
      "assetIds": []
    },
    {
      "x": 190,
      "y": 334,
      "size": 1,
      "price": "4683000000000000000000",
      "reserved": "",
      "salt": "0xf4a55c645738494a386f5d83679a5ab413b0a5ea93c369e71cb11f9fa0a903b3",
      "assetIds": [
        "55464657044963196816950587289035428064568320970692304673817341489687790884865",
        "55464657044963196816950587289035428064568320970692304673817341489687782494208",
        "55464657044963196816950587289035428064568320970692304673817341489687790884866",
        "55464657044963196816950587289035428064568320970692304673817341489687782494209",
        "55464657044963196816950587289035428064568320970692304673817341489687790884864"
      ]
    },
    {
      "x": 190,
      "y": 335,
      "size": 1,
      "price": "4683000000000000000000",
      "reserved": "",
      "salt": "0xc0f834a8de9f3688ac9950158b2e3afc7fe689cde741f0961ea8de316682fb2a",
      "assetIds": [
        "55464657044963196816950587289035428064568320970692304673817341489687790884865",
        "55464657044963196816950587289035428064568320970692304673817341489687782494208",
        "55464657044963196816950587289035428064568320970692304673817341489687790884866",
        "55464657044963196816950587289035428064568320970692304673817341489687782494209",
        "55464657044963196816950587289035428064568320970692304673817341489687790884864"
      ]
    },
    {
      "x": 190,
      "y": 348,
      "size": 1,
      "price": "4683000000000000000000",
      "reserved": "",
      "salt": "0x6120da39be81c150a6fcf5ab3d9813147438be668e5e0d33f43349863f26a625",
      "assetIds": [
        "55464657044963196816950587289035428064568320970692304673817341489687790884865",
        "55464657044963196816950587289035428064568320970692304673817341489687782494208",
        "55464657044963196816950587289035428064568320970692304673817341489687790884866",
        "55464657044963196816950587289035428064568320970692304673817341489687782494209",
        "55464657044963196816950587289035428064568320970692304673817341489687790884864"
      ]
    },
    {
      "x": 190,
      "y": 349,
      "size": 1,
      "price": "4683000000000000000000",
      "reserved": "",
      "salt": "0x3dbacf574a2f634b004596c371be124ad9ee24220273fac28acf827f3676882e",
      "assetIds": [
        "55464657044963196816950587289035428064568320970692304673817341489687790884865",
        "55464657044963196816950587289035428064568320970692304673817341489687782494208",
        "55464657044963196816950587289035428064568320970692304673817341489687790884866",
        "55464657044963196816950587289035428064568320970692304673817341489687782494209",
        "55464657044963196816950587289035428064568320970692304673817341489687790884864"
      ]
    },
    {
      "x": 190,
      "y": 350,
      "size": 1,
      "price": "1011000000000000000000",
      "reserved": "",
      "salt": "0xc8e04be2e8d474ecc86b3a33da2c5d7a38c99d1f3dce184475cb980528cdb1be",
      "assetIds": []
    },
    {
      "x": 190,
      "y": 351,
      "size": 1,
      "price": "1011000000000000000000",
      "reserved": "",
      "salt": "0xfa299520467e5937cc099d6166398c2cd25dbb57fd20c5373c2ea42eb35d9c41",
      "assetIds": []
    },
    {
      "x": 190,
      "y": 352,
      "size": 1,
      "price": "1011000000000000000000",
      "reserved": "",
      "salt": "0x14f3e987bac023b94052d2630c852df6789726f69224800ac41ef87788f25628",
      "assetIds": []
    },
    {
      "x": 190,
      "y": 353,
      "size": 1,
      "price": "1011000000000000000000",
      "reserved": "",
      "salt": "0xd73e25253c4ebde688ee1d3a83a4531a06804210be0a97863d739e035089878a",
      "assetIds": []
    },
    {
      "x": 190,
      "y": 354,
      "size": 1,
      "price": "1011000000000000000000",
      "reserved": "0x7a9fe22691c811ea339d9b73150e6911a5343dca",
      "salt": "0x8f589cfe8019f3db7449f166a622eac877cdb298d04bd663d66e79b399db201c",
      "assetIds": []
    },
    {
      "x": 190,
      "y": 355,
      "size": 1,
      "price": "1011000000000000000000",
      "reserved": "",
      "salt": "0x3e7cc76843a46c92ca72146c3304da752111c57d6489b2ccaeb340f9d6cb4970",
      "assetIds": []
    },
    {
      "x": 190,
      "y": 356,
      "size": 1,
      "price": "1011000000000000000000",
      "reserved": "0x7a9fe22691c811ea339d9b73150e6911a5343dca",
      "salt": "0x18261a8d5a0688aacfa0b9c33a30b6495f94157fc8d383a4dc23f1e993b0f10a",
      "assetIds": []
    },
    {
      "x": 190,
      "y": 357,
      "size": 1,
      "price": "1011000000000000000000",
      "reserved": "",
      "salt": "0xaf4cb17b0e66083babc0ab3cd895739e6ec122a0f207add2f7d5107df006f60e",
      "assetIds": []
    },
    {
      "x": 190,
      "y": 358,
      "size": 1,
      "price": "1011000000000000000000",
      "reserved": "",
      "salt": "0xb6ffa503002a04efaa802cbc911942156cf86e269e6ee2025d8f201103bc0325",
      "assetIds": []
    },
    {
      "x": 190,
      "y": 359,
      "size": 1,
      "price": "1011000000000000000000",
      "reserved": "",
      "salt": "0xebb9535c0ad39291183e978273d5cbef778788c9dc42a2913a9c310e31955c29",
      "assetIds": []
    },
    {
      "x": 191,
      "y": 331,
      "size": 1,
      "price": "1011000000000000000000",
      "reserved": "",
      "salt": "0xf733da1683e22874c4a086e8c936c96d4c4176d160fb277b1cbf436904fc9ba8",
      "assetIds": []
    },
    {
      "x": 191,
      "y": 332,
      "size": 1,
      "price": "1011000000000000000000",
      "reserved": "0x7a9fe22691c811ea339d9b73150e6911a5343dca",
      "salt": "0x6eaceb9b97f60774c7b5aea73e88ba706fcaada9694adb3231d6dbc50a31c85b",
      "assetIds": []
    },
    {
      "x": 191,
      "y": 333,
      "size": 1,
      "price": "1011000000000000000000",
      "reserved": "",
      "salt": "0x593db12cb7d2ecccf2db37f1d5b43cd4c639942a84da6a99ac24b2108afe9ac1",
      "assetIds": []
    },
    {
      "x": 191,
      "y": 334,
      "size": 1,
      "price": "4683000000000000000000",
      "reserved": "",
      "salt": "0x6333c47ffb45ec2d6affc8f8a8d3f8959b93ce64ed204b0f9c65ab880c4aeb4f",
      "assetIds": [
        "55464657044963196816950587289035428064568320970692304673817341489687790884865",
        "55464657044963196816950587289035428064568320970692304673817341489687782494208",
        "55464657044963196816950587289035428064568320970692304673817341489687790884866",
        "55464657044963196816950587289035428064568320970692304673817341489687782494209",
        "55464657044963196816950587289035428064568320970692304673817341489687790884864"
      ]
    },
    {
      "x": 191,
      "y": 335,
      "size": 1,
      "price": "4683000000000000000000",
      "reserved": "",
      "salt": "0x590ae43e3e06ee0cb4c154c33ce452dc0d8b7bbbbe6bda1737293565d46f1dc2",
      "assetIds": [
        "55464657044963196816950587289035428064568320970692304673817341489687790884865",
        "55464657044963196816950587289035428064568320970692304673817341489687782494208",
        "55464657044963196816950587289035428064568320970692304673817341489687790884866",
        "55464657044963196816950587289035428064568320970692304673817341489687782494209",
        "55464657044963196816950587289035428064568320970692304673817341489687790884864"
      ]
    },
    {
      "x": 191,
      "y": 348,
      "size": 1,
      "price": "4683000000000000000000",
      "reserved": "",
      "salt": "0xbc9f6ab6306853386196ddcab09a610aa39cbb63395632f3bbe1c628502eef4e",
      "assetIds": [
        "55464657044963196816950587289035428064568320970692304673817341489687790884865",
        "55464657044963196816950587289035428064568320970692304673817341489687782494208",
        "55464657044963196816950587289035428064568320970692304673817341489687790884866",
        "55464657044963196816950587289035428064568320970692304673817341489687782494209",
        "55464657044963196816950587289035428064568320970692304673817341489687790884864"
      ]
    },
    {
      "x": 191,
      "y": 349,
      "size": 1,
      "price": "4683000000000000000000",
      "reserved": "",
      "salt": "0x988d8f5f51bcaa01fe2f82d16e2510a1548cad9a23da631bbb27a5cbb93da272",
      "assetIds": [
        "55464657044963196816950587289035428064568320970692304673817341489687790884865",
        "55464657044963196816950587289035428064568320970692304673817341489687782494208",
        "55464657044963196816950587289035428064568320970692304673817341489687790884866",
        "55464657044963196816950587289035428064568320970692304673817341489687782494209",
        "55464657044963196816950587289035428064568320970692304673817341489687790884864"
      ]
    },
    {
      "x": 191,
      "y": 350,
      "size": 1,
      "price": "1011000000000000000000",
      "reserved": "",
      "salt": "0x626606182c4d7105137ad728864344a9ec0963aa7ba7d44d236f77f1b67ce572",
      "assetIds": []
    },
    {
      "x": 191,
      "y": 351,
      "size": 1,
      "price": "1011000000000000000000",
      "reserved": "",
      "salt": "0x3f076e42f8351aa2bb457d1ca02aa4f95b1a16a01ab241ae8346638d6730d2db",
      "assetIds": []
    },
    {
      "x": 191,
      "y": 352,
      "size": 1,
      "price": "1011000000000000000000",
      "reserved": "",
      "salt": "0x4b4bd12f4f91b53630044b8170bd579ea36b716683bcd74562c897c2ae5889fa",
      "assetIds": []
    },
    {
      "x": 191,
      "y": 353,
      "size": 1,
      "price": "1011000000000000000000",
      "reserved": "",
      "salt": "0x57ad485e434ec92e6c383ed8305979baaf14fc131ebbd7b774d8dd63edfd2766",
      "assetIds": []
    },
    {
      "x": 191,
      "y": 354,
      "size": 1,
      "price": "1011000000000000000000",
      "reserved": "",
      "salt": "0x785aff1e824c059a984213d913881a43ca75690084440669af6ab566f5c745b7",
      "assetIds": []
    },
    {
      "x": 191,
      "y": 355,
      "size": 1,
      "price": "1011000000000000000000",
      "reserved": "",
      "salt": "0xb804a2c31a96e30c636273296891206f5754a11222a591dbe21a0b28ed60f09d",
      "assetIds": []
    },
    {
      "x": 191,
      "y": 356,
      "size": 1,
      "price": "1011000000000000000000",
      "reserved": "",
      "salt": "0x7a5df8a0dbf604c7ee5c6cb6a320e1c83c2de65187a48906f90f55637b2860ff",
      "assetIds": []
    },
    {
      "x": 191,
      "y": 357,
      "size": 1,
      "price": "1011000000000000000000",
      "reserved": "",
      "salt": "0xa22d9095601745182e753af4d5807486324b97651ba152b944661b77ab55a287",
      "assetIds": []
    },
    {
      "x": 191,
      "y": 358,
      "size": 1,
      "price": "1011000000000000000000",
      "reserved": "",
      "salt": "0xe92d4a209eea2e257cfa259f4b3358d235f3c70e402dee0a5353f9628fecfbd6",
      "assetIds": []
    },
    {
      "x": 191,
      "y": 359,
      "size": 1,
      "price": "1011000000000000000000",
      "reserved": "",
      "salt": "0x89dd4ba033d0ab0d532bff6b5f6195719c74e738124a116ac292a675c822f94a",
      "assetIds": []
    },
    {
      "x": 192,
      "y": 336,
      "size": 1,
      "price": "4683000000000000000000",
      "reserved": "",
      "salt": "0x1063b0f9e348f373b67108e71501c51f147c40f76c575b4aa12a80379db4737f",
      "assetIds": [
        "55464657044963196816950587289035428064568320970692304673817341489687790884865",
        "55464657044963196816950587289035428064568320970692304673817341489687782494208",
        "55464657044963196816950587289035428064568320970692304673817341489687790884866",
        "55464657044963196816950587289035428064568320970692304673817341489687782494209",
        "55464657044963196816950587289035428064568320970692304673817341489687790884864"
      ]
    },
    {
      "x": 192,
      "y": 337,
      "size": 1,
      "price": "4683000000000000000000",
      "reserved": "",
      "salt": "0x525c678849bcef3210f01640c1ec387f77b8e45c2377425729f214c19624543b",
      "assetIds": [
        "55464657044963196816950587289035428064568320970692304673817341489687790884865",
        "55464657044963196816950587289035428064568320970692304673817341489687782494208",
        "55464657044963196816950587289035428064568320970692304673817341489687790884866",
        "55464657044963196816950587289035428064568320970692304673817341489687782494209",
        "55464657044963196816950587289035428064568320970692304673817341489687790884864"
      ]
    },
    {
      "x": 192,
      "y": 338,
      "size": 1,
      "price": "4683000000000000000000",
      "reserved": "",
      "salt": "0xec966d65497469b25c4c96cc737d384d794964cb0a2f286bfcce10d08fc67475",
      "assetIds": [
        "55464657044963196816950587289035428064568320970692304673817341489687790884865",
        "55464657044963196816950587289035428064568320970692304673817341489687782494208",
        "55464657044963196816950587289035428064568320970692304673817341489687790884866",
        "55464657044963196816950587289035428064568320970692304673817341489687782494209",
        "55464657044963196816950587289035428064568320970692304673817341489687790884864"
      ]
    },
    {
      "x": 192,
      "y": 339,
      "size": 1,
      "price": "4683000000000000000000",
      "reserved": "",
      "salt": "0x6c3a9fbd66b375807048633d178eef95721af05f51b23897e7afb04681a58d0a",
      "assetIds": [
        "55464657044963196816950587289035428064568320970692304673817341489687790884865",
        "55464657044963196816950587289035428064568320970692304673817341489687782494208",
        "55464657044963196816950587289035428064568320970692304673817341489687790884866",
        "55464657044963196816950587289035428064568320970692304673817341489687782494209",
        "55464657044963196816950587289035428064568320970692304673817341489687790884864"
      ]
    },
    {
      "x": 192,
      "y": 340,
      "size": 1,
      "price": "4683000000000000000000",
      "reserved": "",
      "salt": "0xc3bcb1d0cb57a2075cd85830f1a627d2a1b993065130e797bc455e28b000c545",
      "assetIds": [
        "55464657044963196816950587289035428064568320970692304673817341489687790884865",
        "55464657044963196816950587289035428064568320970692304673817341489687782494208",
        "55464657044963196816950587289035428064568320970692304673817341489687790884866",
        "55464657044963196816950587289035428064568320970692304673817341489687782494209",
        "55464657044963196816950587289035428064568320970692304673817341489687790884864"
      ]
    },
    {
      "x": 192,
      "y": 341,
      "size": 1,
      "price": "4683000000000000000000",
      "reserved": "",
      "salt": "0x0bb1d695cfa4bcb405092cfa26c29b43d21cac56898563c1ca2a6cefc570dffc",
      "assetIds": [
        "55464657044963196816950587289035428064568320970692304673817341489687790884865",
        "55464657044963196816950587289035428064568320970692304673817341489687782494208",
        "55464657044963196816950587289035428064568320970692304673817341489687790884866",
        "55464657044963196816950587289035428064568320970692304673817341489687782494209",
        "55464657044963196816950587289035428064568320970692304673817341489687790884864"
      ]
    },
    {
      "x": 192,
      "y": 342,
      "size": 1,
      "price": "4683000000000000000000",
      "reserved": "",
      "salt": "0x3e77ca7bf7abcc12d1d044250f493411365d8b6d4b22eda11aa6bed53a477f3f",
      "assetIds": [
        "55464657044963196816950587289035428064568320970692304673817341489687790884865",
        "55464657044963196816950587289035428064568320970692304673817341489687782494208",
        "55464657044963196816950587289035428064568320970692304673817341489687790884866",
        "55464657044963196816950587289035428064568320970692304673817341489687782494209",
        "55464657044963196816950587289035428064568320970692304673817341489687790884864"
      ]
    },
    {
      "x": 192,
      "y": 343,
      "size": 1,
      "price": "4683000000000000000000",
      "reserved": "",
      "salt": "0x59446a977b704fbed98e933d08341f63f91a812cd8b7086096cfd68888bb8a55",
      "assetIds": [
        "55464657044963196816950587289035428064568320970692304673817341489687790884865",
        "55464657044963196816950587289035428064568320970692304673817341489687782494208",
        "55464657044963196816950587289035428064568320970692304673817341489687790884866",
        "55464657044963196816950587289035428064568320970692304673817341489687782494209",
        "55464657044963196816950587289035428064568320970692304673817341489687790884864"
      ]
    },
    {
      "x": 192,
      "y": 344,
      "size": 1,
      "price": "4683000000000000000000",
      "reserved": "",
      "salt": "0x970b13b978a255b9b70a86b926df50a24f8b4ed004e93ecb96ba6ce7977e850c",
      "assetIds": [
        "55464657044963196816950587289035428064568320970692304673817341489687790884865",
        "55464657044963196816950587289035428064568320970692304673817341489687782494208",
        "55464657044963196816950587289035428064568320970692304673817341489687790884866",
        "55464657044963196816950587289035428064568320970692304673817341489687782494209",
        "55464657044963196816950587289035428064568320970692304673817341489687790884864"
      ]
    },
    {
      "x": 192,
      "y": 345,
      "size": 1,
      "price": "4683000000000000000000",
      "reserved": "",
      "salt": "0xd9e4568f2429bd839ed7da3d133feee036ac45780e047f9fe4e941f9e9fea86d",
      "assetIds": [
        "55464657044963196816950587289035428064568320970692304673817341489687790884865",
        "55464657044963196816950587289035428064568320970692304673817341489687782494208",
        "55464657044963196816950587289035428064568320970692304673817341489687790884866",
        "55464657044963196816950587289035428064568320970692304673817341489687782494209",
        "55464657044963196816950587289035428064568320970692304673817341489687790884864"
      ]
    },
    {
      "x": 192,
      "y": 346,
      "size": 1,
      "price": "4683000000000000000000",
      "reserved": "",
      "salt": "0x156586f8b6f4c38f7a71e9d57674af4942a13e945568904c24511e97511794e0",
      "assetIds": [
        "55464657044963196816950587289035428064568320970692304673817341489687790884865",
        "55464657044963196816950587289035428064568320970692304673817341489687782494208",
        "55464657044963196816950587289035428064568320970692304673817341489687790884866",
        "55464657044963196816950587289035428064568320970692304673817341489687782494209",
        "55464657044963196816950587289035428064568320970692304673817341489687790884864"
      ]
    },
    {
      "x": 192,
      "y": 347,
      "size": 1,
      "price": "4683000000000000000000",
      "reserved": "",
      "salt": "0x5eb576894b03749bdca985df8312d0d77ad2e138f0e1ca29f2d1ade7ddfc75b4",
      "assetIds": [
        "55464657044963196816950587289035428064568320970692304673817341489687790884865",
        "55464657044963196816950587289035428064568320970692304673817341489687782494208",
        "55464657044963196816950587289035428064568320970692304673817341489687790884866",
        "55464657044963196816950587289035428064568320970692304673817341489687782494209",
        "55464657044963196816950587289035428064568320970692304673817341489687790884864"
      ]
    },
    {
      "x": 192,
      "y": 348,
      "size": 1,
      "price": "4683000000000000000000",
      "reserved": "",
      "salt": "0xd06da368ea42cfff7a208595aefb0f82b1efd0466541fbec2afc8fd7f1b0614d",
      "assetIds": [
        "55464657044963196816950587289035428064568320970692304673817341489687790884865",
        "55464657044963196816950587289035428064568320970692304673817341489687782494208",
        "55464657044963196816950587289035428064568320970692304673817341489687790884866",
        "55464657044963196816950587289035428064568320970692304673817341489687782494209",
        "55464657044963196816950587289035428064568320970692304673817341489687790884864"
      ]
    },
    {
      "x": 192,
      "y": 349,
      "size": 1,
      "price": "1011000000000000000000",
      "reserved": "",
      "salt": "0x0cfba6243a930dc8798e18182dd9f949cfda62ccd0f530cb856bfb3521ee6038",
      "assetIds": []
    },
    {
      "x": 192,
      "y": 350,
      "size": 1,
      "price": "1011000000000000000000",
      "reserved": "",
      "salt": "0x2e7f07c3968a1be82419acd593fb358aab9500c9edbd63bca21461782e80c9e7",
      "assetIds": []
    },
    {
      "x": 192,
      "y": 351,
      "size": 1,
      "price": "1011000000000000000000",
      "reserved": "0x7a9fe22691c811ea339d9b73150e6911a5343dca",
      "salt": "0x97ffd6cffca0f4b3bb3c072027edb32e3a5c2b3e1cbe1148c536ab78ee5ecb47",
      "assetIds": []
    },
    {
      "x": 192,
      "y": 352,
      "size": 1,
      "price": "1011000000000000000000",
      "reserved": "",
      "salt": "0x34f564cf3e229e9ecbfbf1405c380d3749daf5620a50077f8946f464617202c1",
      "assetIds": []
    },
    {
      "x": 192,
      "y": 353,
      "size": 1,
      "price": "1011000000000000000000",
      "reserved": "",
      "salt": "0x31085500a961d4df303a2b29477f1fb1992058da1f7ed0f9b5b38959cc610d8d",
      "assetIds": []
    },
    {
      "x": 192,
      "y": 354,
      "size": 1,
      "price": "1011000000000000000000",
      "reserved": "",
      "salt": "0xd1a188695c19f32f213fe9765609ae3dcfc2cc89c80ff19dc67b61fd8420a605",
      "assetIds": []
    },
    {
      "x": 192,
      "y": 355,
      "size": 1,
      "price": "1011000000000000000000",
      "reserved": "",
      "salt": "0x691204293662ed63d68924746402362d25832621f20aeb20803d9686739e0585",
      "assetIds": []
    },
    {
      "x": 192,
      "y": 356,
      "size": 1,
      "price": "1011000000000000000000",
      "reserved": "",
      "salt": "0x6352fd5dda9070e0d95b4086b47657c881ffc14fd8e377da95a3b1aeeafae0c8",
      "assetIds": []
    },
    {
      "x": 192,
      "y": 357,
      "size": 1,
      "price": "1011000000000000000000",
      "reserved": "",
      "salt": "0x4511dc68d23886a675b9ee413ba73af32e955e4b4d823e62bbcca8090db1af2e",
      "assetIds": []
    },
    {
      "x": 193,
      "y": 336,
      "size": 1,
      "price": "4683000000000000000000",
      "reserved": "",
      "salt": "0x17ad8b41f49699a6f28ec65bb40961e922c27b5600ef2b769f9fd93daabec0ac",
      "assetIds": [
        "55464657044963196816950587289035428064568320970692304673817341489687790884865",
        "55464657044963196816950587289035428064568320970692304673817341489687782494208",
        "55464657044963196816950587289035428064568320970692304673817341489687790884866",
        "55464657044963196816950587289035428064568320970692304673817341489687782494209",
        "55464657044963196816950587289035428064568320970692304673817341489687790884864"
      ]
    },
    {
      "x": 193,
      "y": 337,
      "size": 1,
      "price": "4683000000000000000000",
      "reserved": "",
      "salt": "0x664c4aeb9905c622920628c84aff10cd8b48fd269dbc4975b585c6a3e3df67d9",
      "assetIds": [
        "55464657044963196816950587289035428064568320970692304673817341489687790884865",
        "55464657044963196816950587289035428064568320970692304673817341489687782494208",
        "55464657044963196816950587289035428064568320970692304673817341489687790884866",
        "55464657044963196816950587289035428064568320970692304673817341489687782494209",
        "55464657044963196816950587289035428064568320970692304673817341489687790884864"
      ]
    },
    {
      "x": 193,
      "y": 338,
      "size": 1,
      "price": "4683000000000000000000",
      "reserved": "",
      "salt": "0xdce325df20cc0e68877c3982a3b88e8abc20a0aaa41ce56b99d5ac8add32707f",
      "assetIds": [
        "55464657044963196816950587289035428064568320970692304673817341489687790884865",
        "55464657044963196816950587289035428064568320970692304673817341489687782494208",
        "55464657044963196816950587289035428064568320970692304673817341489687790884866",
        "55464657044963196816950587289035428064568320970692304673817341489687782494209",
        "55464657044963196816950587289035428064568320970692304673817341489687790884864"
      ]
    },
    {
      "x": 193,
      "y": 339,
      "size": 1,
      "price": "4683000000000000000000",
      "reserved": "",
      "salt": "0xd0530869f7742bb56b0166de61f74d6532dd0e35dbdd553287d41f8f4e9075af",
      "assetIds": [
        "55464657044963196816950587289035428064568320970692304673817341489687790884865",
        "55464657044963196816950587289035428064568320970692304673817341489687782494208",
        "55464657044963196816950587289035428064568320970692304673817341489687790884866",
        "55464657044963196816950587289035428064568320970692304673817341489687782494209",
        "55464657044963196816950587289035428064568320970692304673817341489687790884864"
      ]
    },
    {
      "x": 193,
      "y": 340,
      "size": 1,
      "price": "1011000000000000000000",
      "reserved": "0x7a9fe22691c811ea339d9b73150e6911a5343dca",
      "salt": "0xf45e65d356a9e04d9818024e667ba9d756642083e5712225dc8f652aeb8053f4",
      "assetIds": []
    },
    {
      "x": 193,
      "y": 341,
      "size": 1,
      "price": "1011000000000000000000",
      "reserved": "",
      "salt": "0x3dcae9b372b4a9f6ff6a3ec01e77119357c4a27efb496a21b2755558b8208896",
      "assetIds": []
    },
    {
      "x": 193,
      "y": 342,
      "size": 1,
      "price": "4683000000000000000000",
      "reserved": "",
      "salt": "0x5a2ab07d175c3cb6d62637599f025884758bb96d8d84df3a8671e401521e7b04",
      "assetIds": [
        "55464657044963196816950587289035428064568320970692304673817341489687790884865",
        "55464657044963196816950587289035428064568320970692304673817341489687782494208",
        "55464657044963196816950587289035428064568320970692304673817341489687790884866",
        "55464657044963196816950587289035428064568320970692304673817341489687782494209",
        "55464657044963196816950587289035428064568320970692304673817341489687790884864"
      ]
    },
    {
      "x": 193,
      "y": 343,
      "size": 1,
      "price": "4683000000000000000000",
      "reserved": "",
      "salt": "0xca28e3ff4b326bb3967d280540a85cbe534b6ffce6c746d1fd344ca9de500a08",
      "assetIds": [
        "55464657044963196816950587289035428064568320970692304673817341489687790884865",
        "55464657044963196816950587289035428064568320970692304673817341489687782494208",
        "55464657044963196816950587289035428064568320970692304673817341489687790884866",
        "55464657044963196816950587289035428064568320970692304673817341489687782494209",
        "55464657044963196816950587289035428064568320970692304673817341489687790884864"
      ]
    },
    {
      "x": 193,
      "y": 344,
      "size": 1,
      "price": "4683000000000000000000",
      "reserved": "",
      "salt": "0xb9d2ae4b1292ecb737e91d049ede77d00ca9cd4636266bc188d30ad292e9308c",
      "assetIds": [
        "55464657044963196816950587289035428064568320970692304673817341489687790884865",
        "55464657044963196816950587289035428064568320970692304673817341489687782494208",
        "55464657044963196816950587289035428064568320970692304673817341489687790884866",
        "55464657044963196816950587289035428064568320970692304673817341489687782494209",
        "55464657044963196816950587289035428064568320970692304673817341489687790884864"
      ]
    },
    {
      "x": 193,
      "y": 345,
      "size": 1,
      "price": "4683000000000000000000",
      "reserved": "",
      "salt": "0x10969e416926627e5440586c2ca0969cf61c636e49323b7dc0a56961b264fb04",
      "assetIds": [
        "55464657044963196816950587289035428064568320970692304673817341489687790884865",
        "55464657044963196816950587289035428064568320970692304673817341489687782494208",
        "55464657044963196816950587289035428064568320970692304673817341489687790884866",
        "55464657044963196816950587289035428064568320970692304673817341489687782494209",
        "55464657044963196816950587289035428064568320970692304673817341489687790884864"
      ]
    },
    {
      "x": 193,
      "y": 346,
      "size": 1,
      "price": "4683000000000000000000",
      "reserved": "",
      "salt": "0x6da478d02fe3dc4a4a1c2cecf8f4c70fd0372e86e37d3120a935a2a5b8852d0e",
      "assetIds": [
        "55464657044963196816950587289035428064568320970692304673817341489687790884865",
        "55464657044963196816950587289035428064568320970692304673817341489687782494208",
        "55464657044963196816950587289035428064568320970692304673817341489687790884866",
        "55464657044963196816950587289035428064568320970692304673817341489687782494209",
        "55464657044963196816950587289035428064568320970692304673817341489687790884864"
      ]
    },
    {
      "x": 193,
      "y": 347,
      "size": 1,
      "price": "4683000000000000000000",
      "reserved": "",
      "salt": "0xef217dfd97b5df23fd7468f3be85b0556b410c67af05c747039bcd11c59612ab",
      "assetIds": [
        "55464657044963196816950587289035428064568320970692304673817341489687790884865",
        "55464657044963196816950587289035428064568320970692304673817341489687782494208",
        "55464657044963196816950587289035428064568320970692304673817341489687790884866",
        "55464657044963196816950587289035428064568320970692304673817341489687782494209",
        "55464657044963196816950587289035428064568320970692304673817341489687790884864"
      ]
    },
    {
      "x": 193,
      "y": 348,
      "size": 1,
      "price": "4683000000000000000000",
      "reserved": "",
      "salt": "0x511925894f5345b617e248aa7ad7c537826381989e3f17b3a4f47a440a006ea6",
      "assetIds": [
        "55464657044963196816950587289035428064568320970692304673817341489687790884865",
        "55464657044963196816950587289035428064568320970692304673817341489687782494208",
        "55464657044963196816950587289035428064568320970692304673817341489687790884866",
        "55464657044963196816950587289035428064568320970692304673817341489687782494209",
        "55464657044963196816950587289035428064568320970692304673817341489687790884864"
      ]
    },
    {
      "x": 193,
      "y": 349,
      "size": 1,
      "price": "1011000000000000000000",
      "reserved": "",
      "salt": "0xaaebf4de19e37b01011e3903f654caa0ca82c996567e6ca1541b38d4bcbb9607",
      "assetIds": []
    },
    {
      "x": 193,
      "y": 350,
      "size": 1,
      "price": "1011000000000000000000",
      "reserved": "",
      "salt": "0x58bf3769a53a04c7dc7e2725295682484ebb299f02425fc54706125263fb1921",
      "assetIds": []
    },
    {
      "x": 193,
      "y": 351,
      "size": 1,
      "price": "1011000000000000000000",
      "reserved": "",
      "salt": "0x783a5ebd2141b92d4fb65e583b6c43b89c54c65588e17a0a771b20d3cee83925",
      "assetIds": []
    },
    {
      "x": 193,
      "y": 352,
      "size": 1,
      "price": "1011000000000000000000",
      "reserved": "",
      "salt": "0xc581039fe678665d3436eb7eb603cc8bc2e60fe5f4336c01f547a114443f4f24",
      "assetIds": []
    },
    {
      "x": 193,
      "y": 353,
      "size": 1,
      "price": "1011000000000000000000",
      "reserved": "",
      "salt": "0xad29755eb7d0c2352e9d0c366c9d9cd768487213f2d99d6df4dda6a1e28a72c4",
      "assetIds": []
    },
    {
      "x": 193,
      "y": 354,
      "size": 1,
      "price": "1011000000000000000000",
      "reserved": "0x7a9fe22691c811ea339d9b73150e6911a5343dca",
      "salt": "0x606256d41d4a267dd7a0e58cd82736cedef299146e81680f9822e0bd2d521958",
      "assetIds": []
    },
    {
      "x": 193,
      "y": 355,
      "size": 1,
      "price": "1011000000000000000000",
      "reserved": "",
      "salt": "0x5cef1035ce02f50b0dd8829506e4f7a26ab4acf70b9344360a53463f995c7045",
      "assetIds": []
    },
    {
      "x": 193,
      "y": 356,
      "size": 1,
      "price": "1011000000000000000000",
      "reserved": "",
      "salt": "0xbf0e9ef2b64582d7dd749f3aedd9001a3d7b42746e2aaf641fe3e96fee97cab4",
      "assetIds": []
    },
    {
      "x": 193,
      "y": 357,
      "size": 1,
      "price": "1011000000000000000000",
      "reserved": "",
      "salt": "0x642a5ce12c943bb036b3bae497af864090454ca9f7d6c2e02530aff86c3570f4",
      "assetIds": []
    },
    {
      "x": 194,
      "y": 336,
      "size": 1,
      "price": "4683000000000000000000",
      "reserved": "",
      "salt": "0x9fb5cee4b1578440bf2ace3c2395257a99d6ebcf75a2c73a5a0354a6a93b154c",
      "assetIds": [
        "55464657044963196816950587289035428064568320970692304673817341489687790884865",
        "55464657044963196816950587289035428064568320970692304673817341489687782494208",
        "55464657044963196816950587289035428064568320970692304673817341489687790884866",
        "55464657044963196816950587289035428064568320970692304673817341489687782494209",
        "55464657044963196816950587289035428064568320970692304673817341489687790884864"
      ]
    },
    {
      "x": 194,
      "y": 337,
      "size": 1,
      "price": "4683000000000000000000",
      "reserved": "",
      "salt": "0xdac8473cf24f7f39bbd7a92ba33775b11011b4ac4b797534cefa015f159899d7",
      "assetIds": [
        "55464657044963196816950587289035428064568320970692304673817341489687790884865",
        "55464657044963196816950587289035428064568320970692304673817341489687782494208",
        "55464657044963196816950587289035428064568320970692304673817341489687790884866",
        "55464657044963196816950587289035428064568320970692304673817341489687782494209",
        "55464657044963196816950587289035428064568320970692304673817341489687790884864"
      ]
    },
    {
      "x": 194,
      "y": 338,
      "size": 1,
      "price": "4683000000000000000000",
      "reserved": "",
      "salt": "0x3587ac043f5af5060ec169b42e75507da0004ca2ca6901f51a0cf3a05ca097c9",
      "assetIds": [
        "55464657044963196816950587289035428064568320970692304673817341489687790884865",
        "55464657044963196816950587289035428064568320970692304673817341489687782494208",
        "55464657044963196816950587289035428064568320970692304673817341489687790884866",
        "55464657044963196816950587289035428064568320970692304673817341489687782494209",
        "55464657044963196816950587289035428064568320970692304673817341489687790884864"
      ]
    },
    {
      "x": 194,
      "y": 339,
      "size": 1,
      "price": "4683000000000000000000",
      "reserved": "",
      "salt": "0x80f4eeff1a95fcb4080d35f31715d07e354ff3a0b3bc8d8ef8a217ff72a254d6",
      "assetIds": [
        "55464657044963196816950587289035428064568320970692304673817341489687790884865",
        "55464657044963196816950587289035428064568320970692304673817341489687782494208",
        "55464657044963196816950587289035428064568320970692304673817341489687790884866",
        "55464657044963196816950587289035428064568320970692304673817341489687782494209",
        "55464657044963196816950587289035428064568320970692304673817341489687790884864"
      ]
    },
    {
      "x": 194,
      "y": 340,
      "size": 1,
      "price": "1011000000000000000000",
      "reserved": "",
      "salt": "0xd12f6e4fc80107e458e49c0cd71ee9d8cba73d880fcb28da1f337074487d6e36",
      "assetIds": []
    },
    {
      "x": 194,
      "y": 341,
      "size": 1,
      "price": "1011000000000000000000",
      "reserved": "0x7a9fe22691c811ea339d9b73150e6911a5343dca",
      "salt": "0xefe87bb2957657dbaf05b4338b427862e81f613e8cf6fb3e3c254c3bfb120a7d",
      "assetIds": []
    },
    {
      "x": 194,
      "y": 342,
      "size": 1,
      "price": "4683000000000000000000",
      "reserved": "",
      "salt": "0x4249aef6548f1a7eec7dca78cc8492162267ff1e4f901fea6bb5d34dcea4a9fb",
      "assetIds": [
        "55464657044963196816950587289035428064568320970692304673817341489687790884865",
        "55464657044963196816950587289035428064568320970692304673817341489687782494208",
        "55464657044963196816950587289035428064568320970692304673817341489687790884866",
        "55464657044963196816950587289035428064568320970692304673817341489687782494209",
        "55464657044963196816950587289035428064568320970692304673817341489687790884864"
      ]
    },
    {
      "x": 194,
      "y": 343,
      "size": 1,
      "price": "4683000000000000000000",
      "reserved": "",
      "salt": "0x9f11cd6d8878797c88eb027c0935999dd4c222a5db12227e8cf821d33a3310ca",
      "assetIds": [
        "55464657044963196816950587289035428064568320970692304673817341489687790884865",
        "55464657044963196816950587289035428064568320970692304673817341489687782494208",
        "55464657044963196816950587289035428064568320970692304673817341489687790884866",
        "55464657044963196816950587289035428064568320970692304673817341489687782494209",
        "55464657044963196816950587289035428064568320970692304673817341489687790884864"
      ]
    },
    {
      "x": 194,
      "y": 344,
      "size": 1,
      "price": "4683000000000000000000",
      "reserved": "",
      "salt": "0x8c0b3d20de486b8220917e5fd68750da2eb1f01515b8fc9eef173d4e59e982d6",
      "assetIds": [
        "55464657044963196816950587289035428064568320970692304673817341489687790884865",
        "55464657044963196816950587289035428064568320970692304673817341489687782494208",
        "55464657044963196816950587289035428064568320970692304673817341489687790884866",
        "55464657044963196816950587289035428064568320970692304673817341489687782494209",
        "55464657044963196816950587289035428064568320970692304673817341489687790884864"
      ]
    },
    {
      "x": 194,
      "y": 345,
      "size": 1,
      "price": "1011000000000000000000",
      "reserved": "0x7a9fe22691c811ea339d9b73150e6911a5343dca",
      "salt": "0x7f0fe5e3c1a8db20e6158727adae5d7c18a5c6d541684430e3ff48751a14e9eb",
      "assetIds": []
    },
    {
      "x": 194,
      "y": 346,
      "size": 1,
      "price": "1011000000000000000000",
      "reserved": "",
      "salt": "0x79218fcf4abbc5fe260feac056084514801d04fa208079e6ee549ea47c3849cb",
      "assetIds": []
    },
    {
      "x": 194,
      "y": 347,
      "size": 1,
      "price": "1011000000000000000000",
      "reserved": "0x7a9fe22691c811ea339d9b73150e6911a5343dca",
      "salt": "0x5c82a67297b6d3568fd2e17ae903f3c0df1baade2ef5d508e054610edb9b1b2f",
      "assetIds": []
    },
    {
      "x": 194,
      "y": 348,
      "size": 1,
      "price": "4683000000000000000000",
      "reserved": "",
      "salt": "0x001f11099aba800599e432bf93a56edd5fd71588ef981f53632f4e16ac6dfb80",
      "assetIds": [
        "55464657044963196816950587289035428064568320970692304673817341489687790884865",
        "55464657044963196816950587289035428064568320970692304673817341489687782494208",
        "55464657044963196816950587289035428064568320970692304673817341489687790884866",
        "55464657044963196816950587289035428064568320970692304673817341489687782494209",
        "55464657044963196816950587289035428064568320970692304673817341489687790884864"
      ]
    },
    {
      "x": 194,
      "y": 349,
      "size": 1,
      "price": "1011000000000000000000",
      "reserved": "",
      "salt": "0x3636e1e1822e5911ebc0fefe8a9d190b764ab55429783bd006e3a36b22a977d0",
      "assetIds": []
    },
    {
      "x": 194,
      "y": 350,
      "size": 1,
      "price": "1011000000000000000000",
      "reserved": "",
      "salt": "0xee15941dfe194df83fac9479ac6dfb1e2e3419a802e28c7bedcb5735cce68166",
      "assetIds": []
    },
    {
      "x": 194,
      "y": 356,
      "size": 1,
      "price": "1011000000000000000000",
      "reserved": "",
      "salt": "0xf204f03fa559ade0a184c14db4fc00929e66f93f636f63951d5ac21e08b98972",
      "assetIds": []
    },
    {
      "x": 194,
      "y": 357,
      "size": 1,
      "price": "1011000000000000000000",
      "reserved": "",
      "salt": "0xf4e09eefbb68036237ed725a82c94e1eabd08ae535b486e35fa64404e9cc7284",
      "assetIds": []
    },
    {
      "x": 195,
      "y": 336,
      "size": 1,
      "price": "1011000000000000000000",
      "reserved": "0x7a9fe22691c811ea339d9b73150e6911a5343dca",
      "salt": "0x0e3f6cf2205bab2373300e95f1cb19828afeb7213c934edf8efd34cc6679ebf8",
      "assetIds": []
    },
    {
      "x": 195,
      "y": 337,
      "size": 1,
      "price": "1011000000000000000000",
      "reserved": "",
      "salt": "0x2d83fde8471ed35a1282cc439760d2309c8fc39fe226983809a4eb441f426616",
      "assetIds": []
    },
    {
      "x": 195,
      "y": 338,
      "size": 1,
      "price": "1011000000000000000000",
      "reserved": "",
      "salt": "0xe519acd8f2799e1c40cd5d711ffde421efeadb98caa23e8c9c4fd5b354bfbac7",
      "assetIds": []
    },
    {
      "x": 195,
      "y": 339,
      "size": 1,
      "price": "1011000000000000000000",
      "reserved": "",
      "salt": "0xb076ba6d8e9a47e122a2aef1ac4ede51095e5e1daf3709883352b79471a7d281",
      "assetIds": []
    },
    {
      "x": 195,
      "y": 340,
      "size": 1,
      "price": "1011000000000000000000",
      "reserved": "",
      "salt": "0xfd6913a8f463f62bc0e51c70acc02856dba946848973b111fd4b9b728ee3b6b3",
      "assetIds": []
    },
    {
      "x": 195,
      "y": 341,
      "size": 1,
      "price": "1011000000000000000000",
      "reserved": "",
      "salt": "0xa72c6ff3553824d4da2d212ee0b29747c91cd1205d3b1cfa970fedbb2219c444",
      "assetIds": []
    },
    {
      "x": 195,
      "y": 342,
      "size": 1,
      "price": "1011000000000000000000",
      "reserved": "",
      "salt": "0x5c6c43b75f0a8558a3bb3804415e1ed13f6f6fffd8d2104482bdf3bfce429739",
      "assetIds": []
    },
    {
      "x": 195,
      "y": 343,
      "size": 1,
      "price": "1011000000000000000000",
      "reserved": "",
      "salt": "0x4bea3848d0b4d0c5889d8a9f396847e00deefdd363ec3a6b4495aa6986c8ddd1",
      "assetIds": []
    },
    {
      "x": 195,
      "y": 344,
      "size": 1,
      "price": "1011000000000000000000",
      "reserved": "",
      "salt": "0x45825371db66e1173afe25c0f4d70cc148a8c82b3dc96b31e896f6045f852072",
      "assetIds": []
    },
    {
      "x": 195,
      "y": 345,
      "size": 1,
      "price": "1011000000000000000000",
      "reserved": "",
      "salt": "0x23c8945e32abf12022d6a2c3cab0a2822a1a427b4dfb6651b3d9d9d5635d649c",
      "assetIds": []
    },
    {
      "x": 195,
      "y": 346,
      "size": 1,
      "price": "1011000000000000000000",
      "reserved": "",
      "salt": "0x2e4871c61e5c6f651afc0dc8dc3bed65f4924e71e365a991a89b28ef8a63069d",
      "assetIds": []
    },
    {
      "x": 195,
      "y": 347,
      "size": 1,
      "price": "1011000000000000000000",
      "reserved": "",
      "salt": "0x4cfa50a59896c862837cd410f674d6d2f544ed4c92b9f0d98fa9bfb5903b7a30",
      "assetIds": []
    },
    {
      "x": 195,
      "y": 348,
      "size": 1,
      "price": "1011000000000000000000",
      "reserved": "",
      "salt": "0xef0213955fd0a9d2f828f54bb6fe098f05a852bcd73451304fcaff0e4e758ae9",
      "assetIds": []
    },
    {
      "x": 195,
      "y": 349,
      "size": 1,
      "price": "1011000000000000000000",
      "reserved": "",
      "salt": "0xd747938041b9c06a876f688b4ada1e30edf05c2e8ebf4418aa1def24809f39db",
      "assetIds": []
    },
    {
      "x": 195,
      "y": 350,
      "size": 1,
      "price": "1011000000000000000000",
      "reserved": "",
      "salt": "0x1831d24f8079dcaba52f23d2eebfb632a7fe6d84310cea0a24e1b34013df31da",
      "assetIds": []
    },
    {
      "x": 196,
      "y": 336,
      "size": 1,
      "price": "1011000000000000000000",
      "reserved": "",
      "salt": "0xbe007a27620741ad4f46c2ba8d0a12e5e216cc98dd22b5da70b00cb2e9fb8c36",
      "assetIds": []
    },
    {
      "x": 196,
      "y": 337,
      "size": 1,
      "price": "1011000000000000000000",
      "reserved": "",
      "salt": "0x0059cef106e655c6fb947b780434be280368abafa355aeb1beae80de67fb7ea6",
      "assetIds": []
    },
    {
      "x": 196,
      "y": 338,
      "size": 1,
      "price": "1011000000000000000000",
      "reserved": "",
      "salt": "0x57770a202ff010ceae6cfebf80e5b7983795fec9c44999485f6578cf90ac50be",
      "assetIds": []
    },
    {
      "x": 196,
      "y": 339,
      "size": 1,
      "price": "1011000000000000000000",
      "reserved": "0x7a9fe22691c811ea339d9b73150e6911a5343dca",
      "salt": "0xc25cb7c76830c407138908b836df421b9ff220c178d35162f0976e59c41aeb96",
      "assetIds": []
    },
    {
      "x": 196,
      "y": 340,
      "size": 1,
      "price": "1011000000000000000000",
      "reserved": "",
      "salt": "0x4252dcfb0d8915b3c275e71aab9694b66baae00f6d86d2481a520d142a77c91f",
      "assetIds": []
    },
    {
      "x": 196,
      "y": 341,
      "size": 1,
      "price": "1011000000000000000000",
      "reserved": "",
      "salt": "0xdd2c993fa322785ccadc30566c665d3a390e3ae7e55dfd1aa8496372085cbb92",
      "assetIds": []
    },
    {
      "x": 196,
      "y": 342,
      "size": 1,
      "price": "1011000000000000000000",
      "reserved": "",
      "salt": "0xad4967e1532cec2308364bf497d75bbe031ddbf5dde86165db06399f12bab471",
      "assetIds": []
    },
    {
      "x": 196,
      "y": 343,
      "size": 1,
      "price": "1011000000000000000000",
      "reserved": "0x7a9fe22691c811ea339d9b73150e6911a5343dca",
      "salt": "0xea0adfde242113c16455959cd06ee154e2721ed4ea5edefc9a5ed009654e4d91",
      "assetIds": []
    },
    {
      "x": 196,
      "y": 344,
      "size": 1,
      "price": "1011000000000000000000",
      "reserved": "",
      "salt": "0x309c36d768e0524bb2ae238c27c8ad9cae95e59699e0e6c6a55a439f027dca06",
      "assetIds": []
    },
    {
      "x": 196,
      "y": 345,
      "size": 1,
      "price": "1011000000000000000000",
      "reserved": "",
      "salt": "0x8eb1f3275da91086b928cf48022659a8ba9051a3ad6fb13e501206a0ad13a5b6",
      "assetIds": []
    },
    {
      "x": 196,
      "y": 346,
      "size": 1,
      "price": "1011000000000000000000",
      "reserved": "",
      "salt": "0x6615b9a7619c774303c775f65bc4362eb818fee635033664768d28245c3f4c03",
      "assetIds": []
    },
    {
      "x": 196,
      "y": 347,
      "size": 1,
      "price": "1011000000000000000000",
      "reserved": "",
      "salt": "0xb27a07ea53c13dce25087d48d0228b244259dcb704c03eb1ed9a3283699d278a",
      "assetIds": []
    },
    {
      "x": 196,
      "y": 348,
      "size": 1,
      "price": "1011000000000000000000",
      "reserved": "",
      "salt": "0x56c3e3c033018d50d6f92536f543c9ede619f0c9a4c432c316c89f50ab817c3c",
      "assetIds": []
    },
    {
      "x": 196,
      "y": 349,
      "size": 1,
      "price": "1011000000000000000000",
      "reserved": "0x7a9fe22691c811ea339d9b73150e6911a5343dca",
      "salt": "0x1c980f03ad9f4510c3a7d848c887b65968a76b071b6e77f9c8e3e8867cade27c",
      "assetIds": []
    },
    {
      "x": 196,
      "y": 350,
      "size": 1,
      "price": "1011000000000000000000",
      "reserved": "",
      "salt": "0x3b40e3eee574f3233be8a08defaca758789fa92c6926e41ad47459f3a4debc68",
      "assetIds": []
    },
    {
      "x": 197,
      "y": 338,
      "size": 1,
      "price": "1011000000000000000000",
      "reserved": "",
      "salt": "0x4bca21f8d7f6624fb1af0280fea1bf33ed5244588d684551acb704bf176a68f3",
      "assetIds": []
    },
    {
      "x": 197,
      "y": 339,
      "size": 1,
      "price": "1011000000000000000000",
      "reserved": "",
      "salt": "0x781af92c8d570316e7a9a94d5eb7a738e81a20c1fb249dcc6683b1e87767e17d",
      "assetIds": []
    },
    {
      "x": 197,
      "y": 340,
      "size": 1,
      "price": "1011000000000000000000",
      "reserved": "",
      "salt": "0x01253ca308359cd44cdda5cca7ac619847ecb77996ef2170ef6d46abfb47445e",
      "assetIds": []
    },
    {
      "x": 197,
      "y": 341,
      "size": 1,
      "price": "1011000000000000000000",
      "reserved": "",
      "salt": "0xa6131f2c4355a747e24278cc8267c0eee2b2b870a3e1e06aba70df5197eeddf3",
      "assetIds": []
    },
    {
      "x": 197,
      "y": 342,
      "size": 1,
      "price": "1011000000000000000000",
      "reserved": "",
      "salt": "0x33af8e9f2a9bfbedd675c55e59e9de04745ba237b3604dcf2c1c6947e6d081b0",
      "assetIds": []
    },
    {
      "x": 197,
      "y": 343,
      "size": 1,
      "price": "1011000000000000000000",
      "reserved": "",
      "salt": "0x718021ebc1b89b9cc11660fac841197dc914880073f571d32923fd07854565ac",
      "assetIds": []
    },
    {
      "x": 197,
      "y": 344,
      "size": 1,
      "price": "1011000000000000000000",
      "reserved": "",
      "salt": "0x61c659a899539701d2f2e62a71d43dc6003f69eb01c438e95f14b3ad594a7902",
      "assetIds": []
    },
    {
      "x": 197,
      "y": 345,
      "size": 1,
      "price": "1011000000000000000000",
      "reserved": "",
      "salt": "0xe66b680a71d37f800800bca822e42b6a2e4eef39037020d627b7670105a23b80",
      "assetIds": []
    },
    {
      "x": 197,
      "y": 346,
      "size": 1,
      "price": "1011000000000000000000",
      "reserved": "0x7a9fe22691c811ea339d9b73150e6911a5343dca",
      "salt": "0xd960f63ad14d68163113b6bcd7ddb3d7c524bbfac57f76cd029ffd9858bb4198",
      "assetIds": []
    },
    {
      "x": 197,
      "y": 347,
      "size": 1,
      "price": "1011000000000000000000",
      "reserved": "",
      "salt": "0x368c56e0fbcf1e8c8f75186d9b0105ed1f3f42811149b682d8ae7a5189268060",
      "assetIds": []
    },
    {
      "x": 197,
      "y": 348,
      "size": 1,
      "price": "1011000000000000000000",
      "reserved": "",
      "salt": "0x6e71a1fa850ae0554a7aab9a547438b6754e27fb89f3acc1ba1c75abd5d7e5e9",
      "assetIds": []
    },
    {
      "x": 197,
      "y": 349,
      "size": 1,
      "price": "1011000000000000000000",
      "reserved": "",
      "salt": "0x548adda38b71f9a2e82f5a3fa7b2db8810d83242da795aee0105ab99b25a1e0e",
      "assetIds": []
    },
    {
      "x": 197,
      "y": 350,
      "size": 1,
      "price": "1011000000000000000000",
      "reserved": "",
      "salt": "0x04b0daee3bc903d6d7da2cbd7092f0bd65bebeba18519a35d1c6be7c3f5202d4",
      "assetIds": []
    },
    {
      "x": 141,
      "y": 342,
      "size": 3,
      "price": "8648000000000000000000",
      "reserved": "0x7a9fe22691c811ea339d9b73150e6911a5343dca",
      "salt": "0xc7802cec39c78647eb2fd1b8a0c52cfd340cb2ac4e20887cd3ee71089cd16489",
      "assetIds": []
    },
    {
      "x": 174,
      "y": 342,
      "size": 3,
      "price": "8648000000000000000000",
      "reserved": "0x7a9fe22691c811ea339d9b73150e6911a5343dca",
      "salt": "0xbc6ccd1d6649209d40b1bf2c5b59952125127e3d408ba083566e99ce07556192",
      "assetIds": []
    },
    {
      "x": 177,
      "y": 333,
      "size": 3,
      "price": "8648000000000000000000",
      "reserved": "0x7a9fe22691c811ea339d9b73150e6911a5343dca",
      "salt": "0x9faf563c963061eb8f40c3ebc11582fa14b1328ab87cda4e860373943082c112",
      "assetIds": []
    },
    {
      "x": 144,
      "y": 324,
      "size": 6,
      "price": "32772000000000000000000",
      "reserved": "0x7a9fe22691c811ea339d9b73150e6911a5343dca",
      "salt": "0xc20ec6cf9e93cb4b3cafc25ba58863e3417d53884d7bf168b412691c4e3ec937",
      "assetIds": []
    },
    {
      "x": 150,
      "y": 336,
      "size": 6,
      "price": "32772000000000000000000",
      "reserved": "0x7a9fe22691c811ea339d9b73150e6911a5343dca",
      "salt": "0xe87d3cbc71165f1abb5de4355122c5aa20b4919959a5ff9da801413b78ca50ec",
      "assetIds": []
    },
    {
      "x": 162,
      "y": 324,
      "size": 6,
      "price": "32772000000000000000000",
      "reserved": "0x7a9fe22691c811ea339d9b73150e6911a5343dca",
      "salt": "0x466d05eabf1ad5daacc9a15da4dffd2d011fcd4114cb0ab053b21204ce0d8f3b",
      "assetIds": []
    },
    {
      "x": 168,
      "y": 324,
      "size": 6,
      "price": "32772000000000000000000",
      "reserved": "0x7a9fe22691c811ea339d9b73150e6911a5343dca",
      "salt": "0x65b003da25c1d3b4201ed30ad5ea4e49a6efda3cc0c34ab37045a020d866da9d",
      "assetIds": []
    },
    {
      "x": 168,
      "y": 336,
      "size": 6,
      "price": "32772000000000000000000",
      "reserved": "0x7a9fe22691c811ea339d9b73150e6911a5343dca",
      "salt": "0x9a587074f0c691214ff76a87bc460a7f567bdae8f60bdce8b49aa7b07c3ec178",
      "assetIds": []
    },
    {
      "x": 180,
      "y": 348,
      "size": 6,
      "price": "32772000000000000000000",
      "reserved": "0x7a9fe22691c811ea339d9b73150e6911a5343dca",
      "salt": "0xe57d281a7484c1d36461eebc60fb95b6e0a03d54a3d3cdc7c7a04ceceefdeb02",
      "assetIds": []
    },
    {
      "x": 132,
      "y": 324,
      "size": 12,
      "price": "123806000000000000000000",
      "reserved": "0x7a9fe22691c811ea339d9b73150e6911a5343dca",
      "salt": "0x060fb5416e1708e72ca371be4f7abff271729cd3666962f24c53a76ba5086e85",
      "assetIds": []
    },
    {
      "x": 156,
      "y": 312,
      "size": 12,
      "price": "123806000000000000000000",
      "reserved": "0x7a9fe22691c811ea339d9b73150e6911a5343dca",
      "salt": "0x61a5090f8f1a5491daaca8ff09b34701e108aa4caede8b8930c056ea7479be18",
      "assetIds": []
    },
    {
      "x": 156,
      "y": 336,
      "size": 12,
      "price": "123806000000000000000000",
      "reserved": "0x7a9fe22691c811ea339d9b73150e6911a5343dca",
      "salt": "0xf50291ce67a6b5b0a35ae9463e7018a900068f005eaf1c0bb0c930cd75808d04",
      "assetIds": []
    },
    {
      "x": 180,
      "y": 336,
      "size": 12,
      "price": "123806000000000000000000",
      "reserved": "0x7a9fe22691c811ea339d9b73150e6911a5343dca",
      "salt": "0x6c2fa1ac0a10bf4eeebec1855d89748ee93d686c6d8a6631bbe694c6f9ea650b",
      "assetIds": []
    }
  ],
  "solcInputHash": "313f455adab9ae93096e43acc50d7d38",
  "bytecode": "0x610160604052620d2f006005556103e860075534801561001e57600080fd5b5060405161242e38038061242e833981810160405261018081101561004257600080fd5b50805160208201516040830151606080850151608086015160a08088015160c0808a015160e08b01516101008c01516101208d01516101408e0151610160909e0151600280546001600160a01b0319166001600160a01b03861617905560038390558d8b1b6001600160601b0319908116909852998c901b909616909352999a9899979895979496929590949391926100dc8a600161014a565b600680546001600160a01b03199081166001600160a01b039a8b1617909155610140979097526101209590955260008054909616979096169690961790935550606093841b6001600160601b031990811660e05292841b831660805290921b1661010052506101ae92505050565b6001600160a01b038216600081815260016020908152604091829020805460ff191685151590811790915582519384529083015280517fb21eb88b4e33b3f1281830a7178d74d8aa73220416215726b68ae23d539515cb9281900390910190a15050565b60805160601c60a05160601c60c05160601c60e05160601c6101005160601c61012051610140516121fb610233600039806109375280611d44525080610913528061139a525080611da45250806115d252806116f4525080610c50528061159c5280611dd852508061166152806116c5525080610dfa528061190852506121fb6000f3fe608060405234801561001057600080fd5b50600436106101515760003560e01c8063984d6252116100cd578063dc5074af11610081578063ecb255b511610066578063ecb255b514610857578063f23a6e6114610874578063f2e7b3811461090957610151565b8063dc5074af14610814578063e56f8a9e1461083a57610151565b8063bc197c81116100b2578063bc197c81146105d3578063c10a420814610735578063caed35001461080c57610151565b8063984d6252146104db578063b522ecff146105ad57610151565b80636e9960c3116101245780638a04af6a116101095780638a04af6a1461032a5780638a12b82f146103585780638f283970146104b557610151565b80636e9960c3146102fe57806377f1c3ac1461032257610151565b806325cb5bc014610156578063495906571461017057806358bc29441461017857806365194ce7146101a0575b600080fd5b61015e610911565b60408051918252519081900360200190f35b61015e610935565b61019e6004803603602081101561018e57600080fd5b50356001600160a01b0316610959565b005b610246600480360360208110156101b657600080fd5b8101906020810181356401000000008111156101d157600080fd5b8201836020820111156101e357600080fd5b8035906020019184600183028401116401000000008311171561020557600080fd5b91908080601f016020809104026020016040519081016040528093929190818152602001838380828437600092019190915250929550610a04945050505050565b6040518080602001866001600160a01b03166001600160a01b03168152602001856001600160a01b03166001600160a01b03168152602001848152602001838152602001828103825287818151815260200191508051906020019080838360005b838110156102bf5781810151838201526020016102a7565b50505050905090810190601f1680156102ec5780820380516001836020036101000a031916815260200191505b50965050505050505060405180910390f35b610306610b09565b604080516001600160a01b039092168252519081900360200190f35b61015e610b18565b61019e6004803603604081101561034057600080fd5b506001600160a01b0381351690602001351515610b1e565b61019e600480360361018081101561036f57600080fd5b6001600160a01b038235811692602081013582169260408201359092169160608201359160808101359160a08201359160c08101359160e0820135916101008101359181019061014081016101208201356401000000008111156103d257600080fd5b8201836020820111156103e457600080fd5b8035906020019184602083028401116401000000008311171561040657600080fd5b91939092909160208101903564010000000081111561042457600080fd5b82018360208201111561043657600080fd5b8035906020019184602083028401116401000000008311171561045857600080fd5b91939092909160208101903564010000000081111561047657600080fd5b82018360208201111561048857600080fd5b803590602001918460018302840111640100000000831117156104aa57600080fd5b509092509050610b75565b61019e600480360360208110156104cb57600080fd5b50356001600160a01b0316610cc3565b61019e600480360360608110156104f157600080fd5b6001600160a01b03823516919081019060408101602082013564010000000081111561051c57600080fd5b82018360208201111561052e57600080fd5b8035906020019184602083028401116401000000008311171561055057600080fd5b91939092909160208101903564010000000081111561056e57600080fd5b82018360208201111561058057600080fd5b803590602001918460208302840111640100000000831117156105a257600080fd5b509092509050610d99565b61019e600480360360208110156105c357600080fd5b50356001600160a01b0316610f24565b610700600480360360a08110156105e957600080fd5b6001600160a01b03823581169260208101359091169181019060608101604082013564010000000081111561061d57600080fd5b82018360208201111561062f57600080fd5b8035906020019184602083028401116401000000008311171561065157600080fd5b91939092909160208101903564010000000081111561066f57600080fd5b82018360208201111561068157600080fd5b803590602001918460208302840111640100000000831117156106a357600080fd5b9193909290916020810190356401000000008111156106c157600080fd5b8201836020820111156106d357600080fd5b803590602001918460018302840111640100000000831117156106f557600080fd5b50909250905061100d565b604080517fffffffff000000000000000000000000000000000000000000000000000000009092168252519081900360200190f35b6107f8600480360360a081101561074b57600080fd5b81019060208101813564010000000081111561076657600080fd5b82018360208201111561077857600080fd5b8035906020019184600183028401116401000000008311171561079a57600080fd5b91908080601f016020809104026020016040519081016040528093929190818152602001838380828437600092019190915250929550506001600160a01b03833581169450602084013516926040810135925060600135905061103a565b604080519115158252519081900360200190f35b610306611176565b6107f86004803603602081101561082a57600080fd5b50356001600160a01b0316611185565b61019e6004803603602081101561085057600080fd5b50356111a3565b61019e6004803603602081101561086d57600080fd5b5035611207565b610700600480360360a081101561088a57600080fd5b6001600160a01b03823581169260208101359091169160408201359160608101359181019060a0810160808201356401000000008111156108ca57600080fd5b8201836020820111156108dc57600080fd5b803590602001918460018302840111640100000000831117156108fe57600080fd5b50909250905061126b565b61015e611296565b7f000000000000000000000000000000000000000000000000000000000000000090565b7f000000000000000000000000000000000000000000000000000000000000000090565b6000546001600160a01b031633146109b8576040805162461bcd60e51b815260206004820152601060248201527f53656e646572206e6f742061646d696e00000000000000000000000000000000604482015290519081900360640190fd5b600554600280546001600160a01b03908116600090815260046020526040902042909301909255805473ffffffffffffffffffffffffffffffffffffffff191692909116919091179055565b606060008060008060606000806000808a80602001905160a0811015610a2957600080fd5b8101908080516040519392919084640100000000821115610a4957600080fd5b908301906020820185811115610a5e57600080fd5b8251640100000000811182820188101715610a7857600080fd5b82525081516020918201929091019080838360005b83811015610aa5578181015183820152602001610a8d565b50505050905090810190601f168015610ad25780820380516001836020036101000a031916815260200191505b5060409081526020820151908201516060830151608090930151959f50909d509b5099509197505050505050505091939590929450565b6000546001600160a01b031690565b60035490565b6000546001600160a01b03163314610b675760405162461bcd60e51b815260040180806020018281038252602e815260200180612198602e913960400191505060405180910390fd5b610b71828261129c565b5050565b610b7f898961131e565b610c048f8e8e8e8e8e8d8d8d80806020026020016040519081016040528093929190818152602001838360200280828437600081840152601f19601f820116905080830192505050505050508c8c8080602002602001604051908101604052809392919081815260200183836020028082843760009201919091525061139892505050565b610c458f8984848080601f01602080910402602001604051908101604052809392919081815260200183838082843760009201919091525061157592505050565b610c758f8f8e8e8e8d7f00000000000000000000000000000000000000000000000000000000000000008f6115c6565b610cb28e87878080602002602001604051908101604052809392919081815260200183836020028082843760009201919091525061189192505050565b505050505050505050505050505050565b6000546001600160a01b03163314610d22576040805162461bcd60e51b815260206004820152601b60248201527f6f6e6c792061646d696e2063616e206368616e67652061646d696e0000000000604482015290519081900360640190fd5b600054604080516001600160a01b039283168152918316602083015280517f7e644d79422f17c01e4894b5f4f588d331ebfa28653d42ae832dc59e38c9798f9281900390910190a16000805473ffffffffffffffffffffffffffffffffffffffff19166001600160a01b0392909216919091179055565b6000546001600160a01b03163314610df8576040805162461bcd60e51b815260206004820152600e60248201527f4e4f545f415554484f52495a4544000000000000000000000000000000000000604482015290519081900360640190fd5b7f00000000000000000000000000000000000000000000000000000000000000006001600160a01b0316632eb2c2d63087878787876040518763ffffffff1660e01b815260040180876001600160a01b03166001600160a01b03168152602001866001600160a01b03166001600160a01b031681526020018060200180602001806020018481038452888882818152602001925060200280828437600083820152601f01601f19169091018581038452868152602090810191508790870280828437600081840152601f19601f8201169050808301925050508481038252600081526020016020019950505050505050505050600060405180830381600087803b158015610f0557600080fd5b505af1158015610f19573d6000803e3d6000fd5b505050505050505050565b6001600160a01b038116610f7f576040805162461bcd60e51b815260206004820152600c60248201527f5a45524f5f414444524553530000000000000000000000000000000000000000604482015290519081900360640190fd5b6000546001600160a01b03163314610fde576040805162461bcd60e51b815260206004820152600e60248201527f4e4f545f415554484f52495a4544000000000000000000000000000000000000604482015290519081900360640190fd5b6006805473ffffffffffffffffffffffffffffffffffffffff19166001600160a01b0392909216919091179055565b7fbc197c810000000000000000000000000000000000000000000000000000000098975050505050505050565b600060035482118061105d5750836001600160a01b0316856001600160a01b0316145b8061106757508242115b156110745750600061116d565b60408051606087811b7fffffffffffffffffffffffffffffffffffffffff0000000000000000000000009081166020808501919091529188901b166034830152604882018690526068808301869052835180840390910181526088830184528051908201207f19457468657265756d205369676e6564204d6573736167653a0a33320000000060a884015260c48084018290528451808503909101815260e4909301909352815191012060009061112b9089611a55565b6001600160a01b03811660009081526004602052604090205490915042116111585760019250505061116d565b6002546001600160a01b039081169116149150505b95945050505050565b6002546001600160a01b031690565b6001600160a01b031660009081526001602052604090205460ff1690565b6000546001600160a01b03163314611202576040805162461bcd60e51b815260206004820152601060248201527f53656e646572206e6f742061646d696e00000000000000000000000000000000604482015290519081900360640190fd5b600355565b6000546001600160a01b03163314611266576040805162461bcd60e51b815260206004820152600e60248201527f4e4f545f415554484f52495a4544000000000000000000000000000000000000604482015290519081900360640190fd5b600755565b7ff23a6e61000000000000000000000000000000000000000000000000000000009695505050505050565b60075490565b6001600160a01b03821660008181526001602090815260409182902080547fffffffffffffffffffffffffffffffffffffffffffffffffffffffffffffff001685151590811790915582519384529083015280517fb21eb88b4e33b3f1281830a7178d74d8aa73220416215726b68ae23d539515cb9281900390910190a15050565b6113456103e861133960075485611b2290919063ffffffff16565b9063ffffffff611b9816565b8114610b71576040805162461bcd60e51b815260206004820152600d60248201527f494e56414c49445f505249434500000000000000000000000000000000000000604482015290519081900360640190fd5b7f0000000000000000000000000000000000000000000000000000000000000000421061140c576040805162461bcd60e51b815260206004820152600c60248201527f53414c455f49535f4f5645520000000000000000000000000000000000000000604482015290519081900360640190fd5b6001600160a01b03891633148061143257503360009081526001602052604090205460ff165b611483576040805162461bcd60e51b815260206004820152600e60248201527f4e4f545f415554484f52495a4544000000000000000000000000000000000000604482015290519081900360640190fd5b6001600160a01b03881615806114aa5750886001600160a01b0316886001600160a01b0316145b6114fb576040805162461bcd60e51b815260206004820152600d60248201527f52455345525645445f4c414e4400000000000000000000000000000000000000604482015290519081900360640190fd5b600061150c888888888d8989611bfd565b90506115188282611ca2565b611569576040805162461bcd60e51b815260206004820152600c60248201527f494e56414c49445f4c414e440000000000000000000000000000000000000000604482015290519081900360640190fd5b50505050505050505050565b60006115818484611d6b565b6006549091506115c0908590839085906001600160a01b03167f0000000000000000000000000000000000000000000000000000000000000000611eb8565b50505050565b83600114806115fc57507f00000000000000000000000000000000000000000000000000000000000000006001600160a01b0316155b156116c357604080517f6e1e3bbf0000000000000000000000000000000000000000000000000000000081526001600160a01b03898116600483015260248201879052604482018990526064820188905260a06084830152600060a4830181905292517f000000000000000000000000000000000000000000000000000000000000000090911692636e1e3bbf9260e4808201939182900301818387803b1580156116a657600080fd5b505af11580156116ba573d6000803e3d6000fd5b50505050611827565b7f00000000000000000000000000000000000000000000000000000000000000006001600160a01b0316636e1e3bbf7f00000000000000000000000000000000000000000000000000000000000000008689898c60405160200180826001600160a01b03166001600160a01b031681526020019150506040516020818303038152906040526040518663ffffffff1660e01b815260040180866001600160a01b03166001600160a01b0316815260200185815260200184815260200183815260200180602001828103825283818151815260200191508051906020019080838360005b838110156117be5781810151838201526020016117a6565b50505050905090810190601f1680156117eb5780820380516001836020036101000a031916815260200191505b509650505050505050600060405180830381600087803b15801561180e57600080fd5b505af1158015611822573d6000803e3d6000fd5b505050505b60408051858152602081018590526001600160a01b03848116828401526060820184905291516101988802890192808b1692908c16917fe4dfa6ac11314892f3029b34a25b1a887da3b1cab2bbf8506d87128ba6e3ac029181900360800190a45050505050505050565b6060815167ffffffffffffffff811180156118ab57600080fd5b506040519080825280602002602001820160405280156118d5578160200160208202803683370190505b50905060005b82518110156119055760018282815181106118f257fe5b60209081029190910101526001016118db565b507f00000000000000000000000000000000000000000000000000000000000000006001600160a01b0316632eb2c2d6308585856040518563ffffffff1660e01b815260040180856001600160a01b03166001600160a01b03168152602001846001600160a01b03166001600160a01b03168152602001806020018060200180602001848103845286818151815260200191508051906020019060200280838360005b838110156119c05781810151838201526020016119a8565b50505050905001848103835285818151815260200191508051906020019060200280838360005b838110156119ff5781810151838201526020016119e7565b50505050905001848103825260008152602001602001975050505050505050600060405180830381600087803b158015611a3857600080fd5b505af1158015611a4c573d6000803e3d6000fd5b50505050505050565b60008151604114611a6557600080fd5b60208201516040830151606084015160001a601b811015611a8457601b015b8060ff16601b1480611a9957508060ff16601c145b611aa257600080fd5b6040805160008152602080820180845289905260ff8416828401526060820186905260808201859052915160019260a0808401939192601f1981019281900390910190855afa158015611af9573d6000803e3d6000fd5b5050604051601f1901519450506001600160a01b038416611b1957600080fd5b50505092915050565b600082611b3157506000611b92565b5081810281838281611b3f57fe5b0414611b92576040805162461bcd60e51b815260206004820152600860248201527f6f766572666c6f77000000000000000000000000000000000000000000000000604482015290519081900360640190fd5b92915050565b600081611bec576040805162461bcd60e51b815260206004820152600960248201527f64697662797a65726f0000000000000000000000000000000000000000000000604482015290519081900360640190fd5b818381611bf557fe5b049392505050565b60008787878787878760405160200180888152602001878152602001868152602001858152602001846001600160a01b03166001600160a01b031660601b8152601401838152602001828051906020019060200280838360005b83811015611c6f578181015183820152602001611c57565b50505050905001975050505050505050604051602081830303815290604052805190602001209050979650505050505050565b600081815b8451811015611d41576000858281518110611cbe57fe5b6020026020010151905080831015611d065782816040516020018083815260200182815260200192505050604051602081830303815290604052805190602001209250611d38565b808360405160200180838152602001828152602001925050506040516020818303038152906040528051906020012092505b50600101611ca7565b507f0000000000000000000000000000000000000000000000000000000000000000149392505050565b600080611d84606461133985600563ffffffff611b2216565b604080516323b872dd60e01b81526001600160a01b0387811660048301527f0000000000000000000000000000000000000000000000000000000000000000811660248301526044820184905291519293507f0000000000000000000000000000000000000000000000000000000000000000909116916323b872dd916064808201926020929091908290030181600087803b158015611e2357600080fd5b505af1158015611e37573d6000803e3d6000fd5b505050506040513d6020811015611e4d57600080fd5b5051611ea0576040805162461bcd60e51b815260206004820152601360248201527f4645455f5452414e534645525f4641494c454400000000000000000000000000604482015290519081900360640190fd5b611eb0838263ffffffff61213a16565b949350505050565b82518190859015612062576060600080600080611ed48a610a04565b9398509196509450925090506000611eef868686868661103a565b15611f7d57611f09611f018d84611b22565b612710611b98565b9050886001600160a01b0316846001600160a01b0316866001600160a01b03167fac7a699eb95c3c6d390ec4626de17ef9a67b35891efdb197beba7c7fdd45fac48f858760405180848152602001838152602001828152602001935050505060405180910390a4611f7a878261213a565b96505b801561205b57604080516323b872dd60e01b81526001600160a01b038f811660048301528781166024830152604482018490529151918a16916323b872dd916064808201926020929091908290030181600087803b158015611fde57600080fd5b505af1158015611ff2573d6000803e3d6000fd5b505050506040513d602081101561200857600080fd5b505161205b576040805162461bcd60e51b815260206004820152601960248201527f636f6d6d6973696f6e207472616e73666572206661696c656400000000000000604482015290519081900360640190fd5b5050505050505b604080516323b872dd60e01b81526001600160a01b0389811660048301528681166024830152604482018490529151918416916323b872dd916064808201926020929091908290030181600087803b1580156120bd57600080fd5b505af11580156120d1573d6000803e3d6000fd5b505050506040513d60208110156120e757600080fd5b5051611a4c576040805162461bcd60e51b815260206004820152601760248201527f7061796d656e74207472616e73666572206661696c6564000000000000000000604482015290519081900360640190fd5b600082821115612191576040805162461bcd60e51b815260206004820152600860248201527f756e6465666c6f77000000000000000000000000000000000000000000000000604482015290519081900360640190fd5b5090039056fe6f6e6c792061646d696e2063616e207365747570206d6574615472616e73616374696f6e50726f636573736f7273a26469706673582212200ff38c5741c66b2a22a9a9ee2abe0f55626323082b6b4443921fd3b25484584a64736f6c63430006050033",
  "devdoc": {
    "methods": {
      "buyLandWithSand(address,address,address,uint256,uint256,uint256,uint256,uint256,bytes32,uint256[],bytes32[],bytes)": {
        "params": {
          "buyer": "address that perform the payment",
          "priceInSand": "price in SAND to purchase that Land",
          "proof": "merkleProof for that particular Land",
          "reserved": "the reserved address (if any)",
          "size": "size of the pack of Land to purchase",
          "to": "address that will own the purchased Land",
          "x": "x coordinate of the Land",
          "y": "y coordinate of the Land"
        }
      },
      "changeAdmin(address)": {
        "details": "change the administrator to be `newAdmin`.",
        "params": {
          "newAdmin": "address of the new administrator."
        }
      },
      "getAdmin()": {
        "details": "gives the current administrator of this contract.",
        "returns": {
          "_0": "the current administrator of this contract."
        }
      },
      "getSigningWallet()": {
        "details": "signing wallet authorized for referral",
        "returns": {
          "_0": "the address of the signing wallet"
        }
      },
      "isMetaTransactionProcessor(address)": {
        "details": "check whether address `who` is given meta-transaction execution rights.",
        "params": {
          "who": "The address to query."
        },
        "returns": {
          "_0": "whether the address has meta-transaction execution rights."
        }
      },
      "isReferralValid(bytes,address,address,uint256,uint256)": {
        "params": {
          "commissionRate": "The commissionRate of the referral",
          "expiryTime": "The expiry time of the referral",
          "referee": "The address of the referee",
          "referrer": "The address of the referrer",
          "signature": "The signature to check (signed referral)"
        },
        "returns": {
          "_0": "True if the referral is valid"
        }
      },
      "setMetaTransactionProcessor(address,bool)": {
        "details": "Enable or disable the ability of `metaTransactionProcessor` to perform meta-tx (metaTransactionProcessor rights).",
        "params": {
          "enabled": "set whether the metaTransactionProcessor is enabled or disabled.",
          "metaTransactionProcessor": "address that will be given/removed metaTransactionProcessor rights."
        }
      },
      "setReceivingWallet(address)": {
        "params": {
          "newWallet": "address of the new receiving wallet"
        }
      },
      "updateMaxCommissionRate(uint256)": {
        "details": "Update the maximum commission rate",
        "params": {
          "newMaxCommissionRate": "The new maximum commission rate"
        }
      },
      "updateSigningWallet(address)": {
        "details": "Update the signing wallet",
        "params": {
          "newSigningWallet": "The new address of the signing wallet"
        }
      },
      "withdrawAssets(address,uint256[],uint256[])": {
        "params": {
          "assetIds": "the assetIds to be transferred",
          "to": "intended recipient of the asset tokens",
          "values": "the quantities of the assetIds to be transferred"
        }
      }
    },
    "title": "Estate Sale contract with referral"
  },
  "userdoc": {
    "methods": {
      "buyLandWithSand(address,address,address,uint256,uint256,uint256,uint256,uint256,bytes32,uint256[],bytes32[],bytes)": {
        "notice": "buy Land with SAND using the merkle proof associated with it"
      },
      "getExpiryTime()": {
        "notice": "Gets the expiry time for the current sale"
      },
      "getMaxCommisionRate()": {
        "notice": "the max commision rate"
      },
      "getMerkleRoot()": {
        "notice": "Gets the Merkle root associated with the current sale"
      },
      "isReferralValid(bytes,address,address,uint256,uint256)": {
        "notice": "Check if a referral is valid"
      },
      "setReceivingWallet(address)": {
        "notice": "set the wallet receiving the proceeds"
      },
      "withdrawAssets(address,uint256[],uint256[])": {
        "notice": "enable Admin to withdraw remaining assets from EstateSaleWithFee contract"
      }
    },
    "notice": "This contract manages the sale of our lands as Estates"
  },
  "storageLayout": {
    "storage": [
      {
        "astId": 12779,
        "contract": "src/solc_0.6/EstateSale/EstateSaleWithFee.sol:EstateSaleWithFee",
        "label": "_admin",
        "offset": 0,
        "slot": "0",
        "type": "t_address"
      },
      {
        "astId": 12841,
        "contract": "src/solc_0.6/EstateSale/EstateSaleWithFee.sol:EstateSaleWithFee",
        "label": "_metaTransactionContracts",
        "offset": 0,
        "slot": "1",
        "type": "t_mapping(t_address,t_bool)"
      },
      {
        "astId": 10957,
        "contract": "src/solc_0.6/EstateSale/EstateSaleWithFee.sol:EstateSaleWithFee",
        "label": "_signingWallet",
        "offset": 0,
        "slot": "2",
        "type": "t_address"
      },
      {
        "astId": 10959,
        "contract": "src/solc_0.6/EstateSale/EstateSaleWithFee.sol:EstateSaleWithFee",
        "label": "_maxCommissionRate",
        "offset": 0,
        "slot": "3",
        "type": "t_uint256"
      },
      {
        "astId": 10963,
        "contract": "src/solc_0.6/EstateSale/EstateSaleWithFee.sol:EstateSaleWithFee",
        "label": "_previousSigningWallets",
        "offset": 0,
        "slot": "4",
        "type": "t_mapping(t_address,t_uint256)"
      },
      {
        "astId": 10972,
        "contract": "src/solc_0.6/EstateSale/EstateSaleWithFee.sol:EstateSaleWithFee",
        "label": "_previousSigningDelay",
        "offset": 0,
        "slot": "5",
        "type": "t_uint256"
      },
      {
        "astId": 7344,
        "contract": "src/solc_0.6/EstateSale/EstateSaleWithFee.sol:EstateSaleWithFee",
        "label": "_wallet",
        "offset": 0,
        "slot": "6",
        "type": "t_address_payable"
      },
      {
        "astId": 7354,
        "contract": "src/solc_0.6/EstateSale/EstateSaleWithFee.sol:EstateSaleWithFee",
        "label": "_multiplier",
        "offset": 0,
        "slot": "7",
        "type": "t_uint256"
      }
    ],
    "types": {
      "t_address": {
        "encoding": "inplace",
        "label": "address",
        "numberOfBytes": "20"
      },
      "t_address_payable": {
        "encoding": "inplace",
        "label": "address payable",
        "numberOfBytes": "20"
      },
      "t_bool": {
        "encoding": "inplace",
        "label": "bool",
        "numberOfBytes": "1"
      },
      "t_mapping(t_address,t_bool)": {
        "encoding": "mapping",
        "key": "t_address",
        "label": "mapping(address => bool)",
        "numberOfBytes": "32",
        "value": "t_bool"
      },
      "t_mapping(t_address,t_uint256)": {
        "encoding": "mapping",
        "key": "t_address",
        "label": "mapping(address => uint256)",
        "numberOfBytes": "32",
        "value": "t_uint256"
      },
      "t_uint256": {
        "encoding": "inplace",
        "label": "uint256",
        "numberOfBytes": "32"
      }
    }
  }
}