{
  "address": "0x1dbedaa240C270092a4Df8019DCCd6Aaa3b4f75f",
  "abi": [
    {
      "inputs": [
        {
          "internalType": "address",
          "name": "landAddress",
          "type": "address"
        },
        {
          "internalType": "address",
          "name": "sandContractAddress",
          "type": "address"
        },
        {
          "internalType": "address",
          "name": "initialMetaTx",
          "type": "address"
        },
        {
          "internalType": "address",
          "name": "admin",
          "type": "address"
        },
        {
          "internalType": "address payable",
          "name": "initialWalletAddress",
          "type": "address"
        },
        {
          "internalType": "bytes32",
          "name": "merkleRoot",
          "type": "bytes32"
        },
        {
          "internalType": "uint256",
          "name": "expiryTime",
          "type": "uint256"
        },
        {
          "internalType": "address",
          "name": "initialSigningWallet",
          "type": "address"
        },
        {
          "internalType": "uint256",
          "name": "initialMaxCommissionRate",
          "type": "uint256"
        },
        {
          "internalType": "address",
          "name": "estate",
          "type": "address"
        },
        {
          "internalType": "address",
          "name": "asset",
          "type": "address"
        },
        {
          "internalType": "address",
          "name": "feeDistributor",
          "type": "address"
        }
      ],
      "stateMutability": "nonpayable",
      "type": "constructor"
    },
    {
      "anonymous": false,
      "inputs": [
        {
          "indexed": false,
          "internalType": "address",
          "name": "oldAdmin",
          "type": "address"
        },
        {
          "indexed": false,
          "internalType": "address",
          "name": "newAdmin",
          "type": "address"
        }
      ],
      "name": "AdminChanged",
      "type": "event"
    },
    {
      "anonymous": false,
      "inputs": [
        {
          "indexed": true,
          "internalType": "address",
          "name": "buyer",
          "type": "address"
        },
        {
          "indexed": true,
          "internalType": "address",
          "name": "to",
          "type": "address"
        },
        {
          "indexed": true,
          "internalType": "uint256",
          "name": "topCornerId",
          "type": "uint256"
        },
        {
          "indexed": false,
          "internalType": "uint256",
          "name": "size",
          "type": "uint256"
        },
        {
          "indexed": false,
          "internalType": "uint256",
          "name": "price",
          "type": "uint256"
        },
        {
          "indexed": false,
          "internalType": "address",
          "name": "token",
          "type": "address"
        },
        {
          "indexed": false,
          "internalType": "uint256",
          "name": "amountPaid",
          "type": "uint256"
        }
      ],
      "name": "LandQuadPurchased",
      "type": "event"
    },
    {
      "anonymous": false,
      "inputs": [
        {
          "indexed": false,
          "internalType": "address",
          "name": "metaTransactionProcessor",
          "type": "address"
        },
        {
          "indexed": false,
          "internalType": "bool",
          "name": "enabled",
          "type": "bool"
        }
      ],
      "name": "MetaTransactionProcessor",
      "type": "event"
    },
    {
      "anonymous": false,
      "inputs": [
        {
          "indexed": true,
          "internalType": "address",
          "name": "referrer",
          "type": "address"
        },
        {
          "indexed": true,
          "internalType": "address",
          "name": "referee",
          "type": "address"
        },
        {
          "indexed": true,
          "internalType": "address",
          "name": "token",
          "type": "address"
        },
        {
          "indexed": false,
          "internalType": "uint256",
          "name": "amount",
          "type": "uint256"
        },
        {
          "indexed": false,
          "internalType": "uint256",
          "name": "commission",
          "type": "uint256"
        },
        {
          "indexed": false,
          "internalType": "uint256",
          "name": "commissionRate",
          "type": "uint256"
        }
      ],
      "name": "ReferralUsed",
      "type": "event"
    },
    {
      "inputs": [
        {
          "internalType": "address",
          "name": "buyer",
          "type": "address"
        },
        {
          "internalType": "address",
          "name": "to",
          "type": "address"
        },
        {
          "internalType": "address",
          "name": "reserved",
          "type": "address"
        },
        {
          "internalType": "uint256",
          "name": "x",
          "type": "uint256"
        },
        {
          "internalType": "uint256",
          "name": "y",
          "type": "uint256"
        },
        {
          "internalType": "uint256",
          "name": "size",
          "type": "uint256"
        },
        {
          "internalType": "uint256",
          "name": "priceInSand",
          "type": "uint256"
        },
        {
          "internalType": "uint256",
          "name": "adjustedPriceInSand",
          "type": "uint256"
        },
        {
          "internalType": "bytes32",
          "name": "salt",
          "type": "bytes32"
        },
        {
          "internalType": "uint256[]",
          "name": "assetIds",
          "type": "uint256[]"
        },
        {
          "internalType": "bytes32[]",
          "name": "proof",
          "type": "bytes32[]"
        },
        {
          "internalType": "bytes",
          "name": "referral",
          "type": "bytes"
        }
      ],
      "name": "buyLandWithSand",
      "outputs": [],
      "stateMutability": "nonpayable",
      "type": "function"
    },
    {
      "inputs": [
        {
          "internalType": "address",
          "name": "newAdmin",
          "type": "address"
        }
      ],
      "name": "changeAdmin",
      "outputs": [],
      "stateMutability": "nonpayable",
      "type": "function"
    },
    {
      "inputs": [
        {
          "internalType": "bytes",
          "name": "referral",
          "type": "bytes"
        }
      ],
      "name": "decodeReferral",
      "outputs": [
        {
          "internalType": "bytes",
          "name": "",
          "type": "bytes"
        },
        {
          "internalType": "address",
          "name": "",
          "type": "address"
        },
        {
          "internalType": "address",
          "name": "",
          "type": "address"
        },
        {
          "internalType": "uint256",
          "name": "",
          "type": "uint256"
        },
        {
          "internalType": "uint256",
          "name": "",
          "type": "uint256"
        }
      ],
      "stateMutability": "pure",
      "type": "function"
    },
    {
      "inputs": [],
      "name": "getAdmin",
      "outputs": [
        {
          "internalType": "address",
          "name": "",
          "type": "address"
        }
      ],
      "stateMutability": "view",
      "type": "function"
    },
    {
      "inputs": [],
      "name": "getExpiryTime",
      "outputs": [
        {
          "internalType": "uint256",
          "name": "",
          "type": "uint256"
        }
      ],
      "stateMutability": "view",
      "type": "function"
    },
    {
      "inputs": [],
      "name": "getMaxCommisionRate",
      "outputs": [
        {
          "internalType": "uint256",
          "name": "",
          "type": "uint256"
        }
      ],
      "stateMutability": "view",
      "type": "function"
    },
    {
      "inputs": [],
      "name": "getMerkleRoot",
      "outputs": [
        {
          "internalType": "bytes32",
          "name": "",
          "type": "bytes32"
        }
      ],
      "stateMutability": "view",
      "type": "function"
    },
    {
      "inputs": [],
      "name": "getSandMultiplier",
      "outputs": [
        {
          "internalType": "uint256",
          "name": "",
          "type": "uint256"
        }
      ],
      "stateMutability": "view",
      "type": "function"
    },
    {
      "inputs": [],
      "name": "getSigningWallet",
      "outputs": [
        {
          "internalType": "address",
          "name": "",
          "type": "address"
        }
      ],
      "stateMutability": "view",
      "type": "function"
    },
    {
      "inputs": [
        {
          "internalType": "address",
          "name": "who",
          "type": "address"
        }
      ],
      "name": "isMetaTransactionProcessor",
      "outputs": [
        {
          "internalType": "bool",
          "name": "",
          "type": "bool"
        }
      ],
      "stateMutability": "view",
      "type": "function"
    },
    {
      "inputs": [
        {
          "internalType": "bytes",
          "name": "signature",
          "type": "bytes"
        },
        {
          "internalType": "address",
          "name": "referrer",
          "type": "address"
        },
        {
          "internalType": "address",
          "name": "referee",
          "type": "address"
        },
        {
          "internalType": "uint256",
          "name": "expiryTime",
          "type": "uint256"
        },
        {
          "internalType": "uint256",
          "name": "commissionRate",
          "type": "uint256"
        }
      ],
      "name": "isReferralValid",
      "outputs": [
        {
          "internalType": "bool",
          "name": "",
          "type": "bool"
        }
      ],
      "stateMutability": "view",
      "type": "function"
    },
    {
      "inputs": [
        {
          "internalType": "address",
          "name": "",
          "type": "address"
        },
        {
          "internalType": "address",
          "name": "",
          "type": "address"
        },
        {
          "internalType": "uint256[]",
          "name": "",
          "type": "uint256[]"
        },
        {
          "internalType": "uint256[]",
          "name": "",
          "type": "uint256[]"
        },
        {
          "internalType": "bytes",
          "name": "",
          "type": "bytes"
        }
      ],
      "name": "onERC1155BatchReceived",
      "outputs": [
        {
          "internalType": "bytes4",
          "name": "",
          "type": "bytes4"
        }
      ],
      "stateMutability": "pure",
      "type": "function"
    },
    {
      "inputs": [
        {
          "internalType": "address",
          "name": "",
          "type": "address"
        },
        {
          "internalType": "address",
          "name": "",
          "type": "address"
        },
        {
          "internalType": "uint256",
          "name": "",
          "type": "uint256"
        },
        {
          "internalType": "uint256",
          "name": "",
          "type": "uint256"
        },
        {
          "internalType": "bytes",
          "name": "",
          "type": "bytes"
        }
      ],
      "name": "onERC1155Received",
      "outputs": [
        {
          "internalType": "bytes4",
          "name": "",
          "type": "bytes4"
        }
      ],
      "stateMutability": "pure",
      "type": "function"
    },
    {
      "inputs": [
        {
          "internalType": "uint256",
          "name": "newMultiplier",
          "type": "uint256"
        }
      ],
      "name": "rebalanceSand",
      "outputs": [],
      "stateMutability": "nonpayable",
      "type": "function"
    },
    {
      "inputs": [
        {
          "internalType": "address",
          "name": "metaTransactionProcessor",
          "type": "address"
        },
        {
          "internalType": "bool",
          "name": "enabled",
          "type": "bool"
        }
      ],
      "name": "setMetaTransactionProcessor",
      "outputs": [],
      "stateMutability": "nonpayable",
      "type": "function"
    },
    {
      "inputs": [
        {
          "internalType": "address payable",
          "name": "newWallet",
          "type": "address"
        }
      ],
      "name": "setReceivingWallet",
      "outputs": [],
      "stateMutability": "nonpayable",
      "type": "function"
    },
    {
      "inputs": [
        {
          "internalType": "uint256",
          "name": "newMaxCommissionRate",
          "type": "uint256"
        }
      ],
      "name": "updateMaxCommissionRate",
      "outputs": [],
      "stateMutability": "nonpayable",
      "type": "function"
    },
    {
      "inputs": [
        {
          "internalType": "address",
          "name": "newSigningWallet",
          "type": "address"
        }
      ],
      "name": "updateSigningWallet",
      "outputs": [],
      "stateMutability": "nonpayable",
      "type": "function"
    },
    {
      "inputs": [
        {
          "internalType": "address",
          "name": "to",
          "type": "address"
        },
        {
          "internalType": "uint256[]",
          "name": "assetIds",
          "type": "uint256[]"
        },
        {
          "internalType": "uint256[]",
          "name": "values",
          "type": "uint256[]"
        }
      ],
      "name": "withdrawAssets",
      "outputs": [],
      "stateMutability": "nonpayable",
      "type": "function"
    }
  ],
  "transactionHash": "0x5999cfa6cba0c1b1ee1b565b28f3492a456ba90518a6fefdb236bc649cb4802e",
  "args": [
    "0x50f5474724e0Ee42D9a4e711ccFB275809Fd6d4a",
    "0x3845badAde8e6dFF049820680d1F14bD3903a5d0",
    "0x3845badAde8e6dFF049820680d1F14bD3903a5d0",
    "0xEAA0993E1d21c2103e4f172a20D29371FbAF6D06",
    "0x4489590a116618B506F0EfE885432F6A8ED998E9",
    "0x37519a615edcdbc846d3486cb1d354d69cff0a6ac465c77244da1cd4704ebce3",
    1632402000,
    "0x3044719d139F866a44c988823513eCB93060bF1b",
    2000,
    "0x0000000000000000000000000000000000000000",
    "0xa342f5D851E866E18ff98F351f2c6637f4478dB5",
    "0x0EB04462D69B1D267d269377E34f60b9De1c8510"
  ],
  "linkedData": [
    {
      "x": 156,
      "y": 192,
      "size": 1,
      "price": "4683000000000000000000",
      "reserved": "",
      "salt": "0xedf574fc539c285bcd152013a1801a5136126e1eb60cab8a50cf3302ccb78e9d",
      "assetIds": [
        "55464657044963196816950587289035428064568320970692304673817341489687933519875",
        "55464657044963196816950587289035428064568320970692304673817341489687933519884",
        "55464657044963196816950587289035428064568320970692304673817341489687941879810",
        "55464657044963196816950587289035428064568320970692304673817341489687933519872",
        "55464657044963196816950587289035428064568320970692304673817341489687933519879",
        "55464657044963196816950587289035428064568320970692304673817341489687933519874"
      ]
    },
    {
      "x": 156,
      "y": 193,
      "size": 1,
      "price": "1011000000000000000000",
      "reserved": "0x7a9fe22691c811ea339d9b73150e6911a5343dca",
      "salt": "0x6cad1cd42dfb48dc5d172c4a5b8588807002cfc510641d2fb666527bcdc56b81",
      "assetIds": []
    },
    {
      "x": 156,
      "y": 194,
      "size": 1,
      "price": "1011000000000000000000",
      "reserved": "0x7a9fe22691c811ea339d9b73150e6911a5343dca",
      "salt": "0xf5a02fc990f72af39b3c40d17c8b34b5d79c1a0917aa46766812061cba5de0fa",
      "assetIds": []
    },
    {
      "x": 156,
      "y": 195,
      "size": 1,
      "price": "1011000000000000000000",
      "reserved": "",
      "salt": "0xfc401346ab512bf58d0468293001649cd5fd5917126c0bb53af3b0e12fac84b2",
      "assetIds": []
    },
    {
      "x": 156,
      "y": 196,
      "size": 1,
      "price": "1011000000000000000000",
      "reserved": "",
      "salt": "0xa1a4eb0cc95166b7a588bd7214ac269f2a32abc7e8f904d3c72f5ec69b66f56c",
      "assetIds": []
    },
    {
      "x": 156,
      "y": 197,
      "size": 1,
      "price": "1011000000000000000000",
      "reserved": "",
      "salt": "0x915beea9805c88c204ced2fed434b65ce511609cd07e56396913fcef7151f8e4",
      "assetIds": []
    },
    {
      "x": 156,
      "y": 198,
      "size": 1,
      "price": "1011000000000000000000",
      "reserved": "",
      "salt": "0xc0f1414b6edf81677651e8f8ce0ebf838f2beadb4b31f524f7dde50109f41198",
      "assetIds": []
    },
    {
      "x": 156,
      "y": 199,
      "size": 1,
      "price": "1011000000000000000000",
      "reserved": "",
      "salt": "0x2511c936bfcc88178bc50ec4c522faefabd83eafcaa885dacb65019392d2789f",
      "assetIds": []
    },
    {
      "x": 156,
      "y": 200,
      "size": 1,
      "price": "1011000000000000000000",
      "reserved": "",
      "salt": "0xd60f103e04703396eea1b267a035c7000b19060764df8570be083a8f6aa8b981",
      "assetIds": []
    },
    {
      "x": 156,
      "y": 201,
      "size": 1,
      "price": "1011000000000000000000",
      "reserved": "",
      "salt": "0x7eb53b024c4095287e41c157328c129eb7cea15135430021daba5e4fca1718c1",
      "assetIds": []
    },
    {
      "x": 156,
      "y": 202,
      "size": 1,
      "price": "1011000000000000000000",
      "reserved": "",
      "salt": "0xc953e1d0af5238aaac2cfa2c54a7093aa560d8700032105ef5bbff59328bb2da",
      "assetIds": []
    },
    {
      "x": 156,
      "y": 203,
      "size": 1,
      "price": "1011000000000000000000",
      "reserved": "",
      "salt": "0xa40c9188269f04cdb77e64f7fb745f471f897902af4ef50cc7236c4ec5ef04ae",
      "assetIds": []
    },
    {
      "x": 156,
      "y": 204,
      "size": 1,
      "price": "1011000000000000000000",
      "reserved": "",
      "salt": "0xd2b376c97f3075a538ae24418b8802f95d97460131a1c911dacd9ae7bde33169",
      "assetIds": []
    },
    {
      "x": 156,
      "y": 205,
      "size": 1,
      "price": "1011000000000000000000",
      "reserved": "",
      "salt": "0x127071c67d84a953249402876938ba9f94b04e16b9659ba46a9d80c06e0f88d6",
      "assetIds": []
    },
    {
      "x": 156,
      "y": 206,
      "size": 1,
      "price": "1011000000000000000000",
      "reserved": "",
      "salt": "0x9a392986a14627e43a12a8fc4b0d21706446f7977a6dcec12cf4675348abfbba",
      "assetIds": []
    },
    {
      "x": 156,
      "y": 207,
      "size": 1,
      "price": "1011000000000000000000",
      "reserved": "",
      "salt": "0xf786716628e60b2908aa60d744633331367992381415eee0ef672deaeececbaf",
      "assetIds": []
    },
    {
      "x": 156,
      "y": 208,
      "size": 1,
      "price": "1011000000000000000000",
      "reserved": "",
      "salt": "0x082c1a9416b8809d9af793123e54dba32a0632a21b16618c617c55260a1ab3ba",
      "assetIds": []
    },
    {
      "x": 157,
      "y": 192,
      "size": 1,
      "price": "4683000000000000000000",
      "reserved": "",
      "salt": "0x42f6fffb8a725c4fc7f130f249aeaa52bc37a5702af844872be8e883be92e555",
      "assetIds": [
        "55464657044963196816950587289035428064568320970692304673817341489687933519878",
        "55464657044963196816950587289035428064568320970692304673817341489687933519885",
        "55464657044963196816950587289035428064568320970692304673817341489687933519888",
        "55464657044963196816950587289035428064568320970692304673817341489687933519877",
        "55464657044963196816950587289035428064568320970692304673817341489687941879809",
        "55464657044963196816950587289035428064568320970692304673817341489687933519881"
      ]
    },
    {
      "x": 157,
      "y": 193,
      "size": 1,
      "price": "4683000000000000000000",
      "reserved": "",
      "salt": "0x11c5cb8f462b8b7ed5671736a03bc6d25108d15bc5ccfc3af1650ce098ad42f3",
      "assetIds": [
        "55464657044963196816950587289035428064568320970692304673817341489687941879808",
        "55464657044963196816950587289035428064568320970692304673817341489687933519880",
        "55464657044963196816950587289035428064568320970692304673817341489687933519882",
        "55464657044963196816950587289035428064568320970692304673817341489687933519886",
        "55464657044963196816950587289035428064568320970692304673817341489687933519883"
      ]
    },
    {
      "x": 157,
      "y": 194,
      "size": 1,
      "price": "4683000000000000000000",
      "reserved": "",
      "salt": "0xc751221edd76f8176cbd67ace325da384ed1d0d00107d7915d3bbd5be1e9e269",
      "assetIds": [
        "55464657044963196816950587289035428064568320970692304673817341489687941879808",
        "55464657044963196816950587289035428064568320970692304673817341489687933519880",
        "55464657044963196816950587289035428064568320970692304673817341489687933519882",
        "55464657044963196816950587289035428064568320970692304673817341489687933519886",
        "55464657044963196816950587289035428064568320970692304673817341489687933519883"
      ]
    },
    {
      "x": 157,
      "y": 195,
      "size": 1,
      "price": "1011000000000000000000",
      "reserved": "",
      "salt": "0xdeaa11fd0844b7dadb5c898588891d33d95ac4469f4c9d4251f03da778593dcc",
      "assetIds": []
    },
    {
      "x": 157,
      "y": 196,
      "size": 1,
      "price": "1011000000000000000000",
      "reserved": "",
      "salt": "0x4126ae344c6b92e9a6c6d9e30610188562f8746ab4e2dfa0dcfc1e925c2e51d9",
      "assetIds": []
    },
    {
      "x": 157,
      "y": 197,
      "size": 1,
      "price": "1011000000000000000000",
      "reserved": "",
      "salt": "0x343eb3520eaa6039cb384360ddb221979f1be16faf86dcd347bfe31d2554eccb",
      "assetIds": []
    },
    {
      "x": 157,
      "y": 198,
      "size": 1,
      "price": "1011000000000000000000",
      "reserved": "",
      "salt": "0x9b9cea0d40addfca6e173d8898818b56981bdfdcac071c05bd86d59be3f09985",
      "assetIds": []
    },
    {
      "x": 157,
      "y": 199,
      "size": 1,
      "price": "1011000000000000000000",
      "reserved": "",
      "salt": "0x621123bf3426686530c1c4ff1881e398a2d68ae625aad50732f26a60ccf5ac00",
      "assetIds": []
    },
    {
      "x": 157,
      "y": 200,
      "size": 1,
      "price": "1011000000000000000000",
      "reserved": "",
      "salt": "0x93f0459b3fa6132dfa9c6876355e2cce65aaab9f7c7d7ae8f0d793699353540b",
      "assetIds": []
    },
    {
      "x": 157,
      "y": 201,
      "size": 1,
      "price": "1011000000000000000000",
      "reserved": "",
      "salt": "0x6339ebdb7ce847bc268ec1e0c00dfcdcc376d211bdce31a7f42c6c5d7fb9452b",
      "assetIds": []
    },
    {
      "x": 157,
      "y": 202,
      "size": 1,
      "price": "1011000000000000000000",
      "reserved": "0x7a9fe22691c811ea339d9b73150e6911a5343dca",
      "salt": "0x045d6030dce6b25b4e7dfc49f86346a3a47cb1b0eba33fb38531bda62d53ec47",
      "assetIds": []
    },
    {
      "x": 157,
      "y": 203,
      "size": 1,
      "price": "1011000000000000000000",
      "reserved": "",
      "salt": "0x6a52447197da2f6cf3836f9a9545ce5ffc5cf7c2dd69b458535cecedf45a0abb",
      "assetIds": []
    },
    {
      "x": 157,
      "y": 204,
      "size": 1,
      "price": "1011000000000000000000",
      "reserved": "",
      "salt": "0x9b91fc31e933418c317bd6c6f4c2bad5a9b5014954f74775d5387798944f56e5",
      "assetIds": []
    },
    {
      "x": 157,
      "y": 205,
      "size": 1,
      "price": "1011000000000000000000",
      "reserved": "",
      "salt": "0x9e7107d7265594c0638728226d55d25bf4f62a0a4077595cec405286c57bc585",
      "assetIds": []
    },
    {
      "x": 157,
      "y": 206,
      "size": 1,
      "price": "1011000000000000000000",
      "reserved": "",
      "salt": "0x6822bb69fe1d18cda909014de36d0e26efa2715829fb491a87a1afceb2ada01f",
      "assetIds": []
    },
    {
      "x": 157,
      "y": 207,
      "size": 1,
      "price": "1011000000000000000000",
      "reserved": "0x7a9fe22691c811ea339d9b73150e6911a5343dca",
      "salt": "0x71a958f6106167d7b6ebf48ad3f72270de80df71a23e1ac1c43c724c35634674",
      "assetIds": []
    },
    {
      "x": 157,
      "y": 208,
      "size": 1,
      "price": "1011000000000000000000",
      "reserved": "",
      "salt": "0xdbbffea1f9ffb314e88b9c7874eb6c120f98507fa3bf275cc1f77f4e2dd83dff",
      "assetIds": []
    },
    {
      "x": 158,
      "y": 192,
      "size": 1,
      "price": "4683000000000000000000",
      "reserved": "",
      "salt": "0xf791cdee7832cd2b9a1845b242406959240261ac175a79f43c170ff7b5cee427",
      "assetIds": [
        "55464657044963196816950587289035428064568320970692304673817341489687933519878",
        "55464657044963196816950587289035428064568320970692304673817341489687933519885",
        "55464657044963196816950587289035428064568320970692304673817341489687933519888",
        "55464657044963196816950587289035428064568320970692304673817341489687933519877",
        "55464657044963196816950587289035428064568320970692304673817341489687941879809",
        "55464657044963196816950587289035428064568320970692304673817341489687933519881"
      ]
    },
    {
      "x": 158,
      "y": 193,
      "size": 1,
      "price": "4683000000000000000000",
      "reserved": "",
      "salt": "0x5ca5d2ced99df320ed3b58a63e30e5cf44f923f00e4353eefdb1a28170d6ceb9",
      "assetIds": [
        "55464657044963196816950587289035428064568320970692304673817341489687933519878",
        "55464657044963196816950587289035428064568320970692304673817341489687933519885",
        "55464657044963196816950587289035428064568320970692304673817341489687933519888",
        "55464657044963196816950587289035428064568320970692304673817341489687933519877",
        "55464657044963196816950587289035428064568320970692304673817341489687941879809",
        "55464657044963196816950587289035428064568320970692304673817341489687933519881"
      ]
    },
    {
      "x": 158,
      "y": 194,
      "size": 1,
      "price": "4683000000000000000000",
      "reserved": "",
      "salt": "0xbb2047f1e707227ea0b52228440cbd2ccb1423f2d18b6e3682b3656ae0cd704e",
      "assetIds": [
        "55464657044963196816950587289035428064568320970692304673817341489687941879808",
        "55464657044963196816950587289035428064568320970692304673817341489687933519880",
        "55464657044963196816950587289035428064568320970692304673817341489687933519882",
        "55464657044963196816950587289035428064568320970692304673817341489687933519886",
        "55464657044963196816950587289035428064568320970692304673817341489687933519883"
      ]
    },
    {
      "x": 158,
      "y": 195,
      "size": 1,
      "price": "4683000000000000000000",
      "reserved": "",
      "salt": "0xfc4817338cb3e9cc39ec3d488a0d08592e8dffec41c4d848a3860ae6a60dd966",
      "assetIds": [
        "55464657044963196816950587289035428064568320970692304673817341489687933519875",
        "55464657044963196816950587289035428064568320970692304673817341489687933519884",
        "55464657044963196816950587289035428064568320970692304673817341489687941879810",
        "55464657044963196816950587289035428064568320970692304673817341489687933519872",
        "55464657044963196816950587289035428064568320970692304673817341489687933519879",
        "55464657044963196816950587289035428064568320970692304673817341489687933519874"
      ]
    },
    {
      "x": 158,
      "y": 196,
      "size": 1,
      "price": "1011000000000000000000",
      "reserved": "",
      "salt": "0x78acfb3363cde12460824c7f77180c22b4af6edb85751f45f11429a0b5e509d7",
      "assetIds": []
    },
    {
      "x": 158,
      "y": 197,
      "size": 1,
      "price": "1011000000000000000000",
      "reserved": "",
      "salt": "0x4685346b73027c177561d0bd8b0c006cb814412a74f7dfa33143d84df54b19c8",
      "assetIds": []
    },
    {
      "x": 158,
      "y": 198,
      "size": 1,
      "price": "1011000000000000000000",
      "reserved": "",
      "salt": "0xd167334cf849bb3005c034926a9502221827e8bb08c92f81de5ad543f36fe72f",
      "assetIds": []
    },
    {
      "x": 158,
      "y": 199,
      "size": 1,
      "price": "1011000000000000000000",
      "reserved": "0x7a9fe22691c811ea339d9b73150e6911a5343dca",
      "salt": "0xbcd7d89cbf8e14ef546c0d9bb83658ee0b7fee226c5dc0622cfe2f3bbf7b9da2",
      "assetIds": []
    },
    {
      "x": 158,
      "y": 200,
      "size": 1,
      "price": "1011000000000000000000",
      "reserved": "",
      "salt": "0xe2e4cee508d037ccf566afe061b777a44a4c54f6332c26ce8f2735e4b3681fe7",
      "assetIds": []
    },
    {
      "x": 158,
      "y": 201,
      "size": 1,
      "price": "1011000000000000000000",
      "reserved": "",
      "salt": "0x6940f61a29ce2a23aa4eb69493c666f7bfbebfa95a8204abe862e9913b59d89d",
      "assetIds": []
    },
    {
      "x": 158,
      "y": 202,
      "size": 1,
      "price": "1011000000000000000000",
      "reserved": "",
      "salt": "0xdd99eb1d64ace5856cfdbb609b77f1730c8d063e2957d999f376ca8625989daf",
      "assetIds": []
    },
    {
      "x": 158,
      "y": 203,
      "size": 1,
      "price": "1011000000000000000000",
      "reserved": "",
      "salt": "0xde19a2c829e83ae654f7b94910b7537ad169409d9c347a256f9a4f8b2d1d7fbc",
      "assetIds": []
    },
    {
      "x": 158,
      "y": 204,
      "size": 1,
      "price": "1011000000000000000000",
      "reserved": "",
      "salt": "0x6e400fbf6f4705c180d8a791b03369d15ba41a871cb0394b6fb9418dabd8b00b",
      "assetIds": []
    },
    {
      "x": 158,
      "y": 205,
      "size": 1,
      "price": "1011000000000000000000",
      "reserved": "",
      "salt": "0x23838bd38db14c4275cc3384096eaa46f4c0776df3e84f762e14105db5062406",
      "assetIds": []
    },
    {
      "x": 158,
      "y": 206,
      "size": 1,
      "price": "1011000000000000000000",
      "reserved": "",
      "salt": "0x8517fdc0629ab14cba0d44a91c46ce681bde40c72840aa2a8670644b310ddee2",
      "assetIds": []
    },
    {
      "x": 158,
      "y": 207,
      "size": 1,
      "price": "1011000000000000000000",
      "reserved": "",
      "salt": "0x674df8a7bc8c47503ad84280b2f70e3192b6e25f3e5bca6b615fc39bf343f51d",
      "assetIds": []
    },
    {
      "x": 158,
      "y": 208,
      "size": 1,
      "price": "1011000000000000000000",
      "reserved": "",
      "salt": "0xc9ad1be5210f3ed4ccd7f4b5e30e0667ca3606bdb602f46e5152665eff946ede",
      "assetIds": []
    },
    {
      "x": 159,
      "y": 192,
      "size": 1,
      "price": "4683000000000000000000",
      "reserved": "",
      "salt": "0xe3e9ea0937c3982edacb5403f8ac1d394ee4f1d9a5cb6da7faabb26eb6121ee1",
      "assetIds": [
        "55464657044963196816950587289035428064568320970692304673817341489687933519878",
        "55464657044963196816950587289035428064568320970692304673817341489687933519885",
        "55464657044963196816950587289035428064568320970692304673817341489687933519888",
        "55464657044963196816950587289035428064568320970692304673817341489687933519877",
        "55464657044963196816950587289035428064568320970692304673817341489687941879809",
        "55464657044963196816950587289035428064568320970692304673817341489687933519881"
      ]
    },
    {
      "x": 159,
      "y": 193,
      "size": 1,
      "price": "4683000000000000000000",
      "reserved": "",
      "salt": "0xd1f06b24ac11d9681e72494deb6c7b591771f7139bd3d313bc4accd67cf7c586",
      "assetIds": [
        "55464657044963196816950587289035428064568320970692304673817341489687941879808",
        "55464657044963196816950587289035428064568320970692304673817341489687933519880",
        "55464657044963196816950587289035428064568320970692304673817341489687933519882",
        "55464657044963196816950587289035428064568320970692304673817341489687933519886",
        "55464657044963196816950587289035428064568320970692304673817341489687933519883"
      ]
    },
    {
      "x": 159,
      "y": 194,
      "size": 1,
      "price": "4683000000000000000000",
      "reserved": "",
      "salt": "0xdf34b8179b3f374b6f55862e04fdbe95a17be6a3631a4998f21dcee8693328e0",
      "assetIds": [
        "55464657044963196816950587289035428064568320970692304673817341489687941879808",
        "55464657044963196816950587289035428064568320970692304673817341489687933519880",
        "55464657044963196816950587289035428064568320970692304673817341489687933519882",
        "55464657044963196816950587289035428064568320970692304673817341489687933519886",
        "55464657044963196816950587289035428064568320970692304673817341489687933519883"
      ]
    },
    {
      "x": 159,
      "y": 195,
      "size": 1,
      "price": "4683000000000000000000",
      "reserved": "",
      "salt": "0x956eff8283568c25c03326de043e2d8f96b1654904f1bcb0490a693eb52a05d7",
      "assetIds": [
        "55464657044963196816950587289035428064568320970692304673817341489687933519875",
        "55464657044963196816950587289035428064568320970692304673817341489687933519884",
        "55464657044963196816950587289035428064568320970692304673817341489687941879810",
        "55464657044963196816950587289035428064568320970692304673817341489687933519872",
        "55464657044963196816950587289035428064568320970692304673817341489687933519879",
        "55464657044963196816950587289035428064568320970692304673817341489687933519874"
      ]
    },
    {
      "x": 159,
      "y": 196,
      "size": 1,
      "price": "1011000000000000000000",
      "reserved": "0x7a9fe22691c811ea339d9b73150e6911a5343dca",
      "salt": "0xe043b120a27631d049b4a0c36c4be10d6e09b61d1ea4b476a518ceeccbbce536",
      "assetIds": []
    },
    {
      "x": 159,
      "y": 197,
      "size": 1,
      "price": "1011000000000000000000",
      "reserved": "",
      "salt": "0x804824631bb85a413e988e5a1eaa28488b1d7ae6547be075ecebdc31a8acb3d3",
      "assetIds": []
    },
    {
      "x": 159,
      "y": 198,
      "size": 1,
      "price": "1011000000000000000000",
      "reserved": "",
      "salt": "0xab3ba55ba538eeca99b4a5e94ddc39369e9cf6a640f002fd4a67e08d2b3a4e7e",
      "assetIds": []
    },
    {
      "x": 159,
      "y": 199,
      "size": 1,
      "price": "1011000000000000000000",
      "reserved": "",
      "salt": "0xe38f9a76ecd96cc7b67de95204b72af015eb37f438923d31bdfe444e03ccf3cc",
      "assetIds": []
    },
    {
      "x": 159,
      "y": 200,
      "size": 1,
      "price": "1011000000000000000000",
      "reserved": "",
      "salt": "0xfd0084087609acc6aa1d4e801e1e59e7ad08ce8425f93e7e495df67d8cae4e52",
      "assetIds": []
    },
    {
      "x": 159,
      "y": 201,
      "size": 1,
      "price": "1011000000000000000000",
      "reserved": "",
      "salt": "0x49dd36b8a052346832ae5a46a459f299e25a6f1fe5918ef4bdec9529688cd8b2",
      "assetIds": []
    },
    {
      "x": 159,
      "y": 202,
      "size": 1,
      "price": "1011000000000000000000",
      "reserved": "",
      "salt": "0xc0402197e66f2b342729681958b0c999526e92e6c5d7f334270ba342f46d48b2",
      "assetIds": []
    },
    {
      "x": 159,
      "y": 203,
      "size": 1,
      "price": "1011000000000000000000",
      "reserved": "",
      "salt": "0xcee4f6ffa9012c2a76b81f71d19e6170fcdc8f36993f0efb6405b6c60723d42c",
      "assetIds": []
    },
    {
      "x": 159,
      "y": 204,
      "size": 1,
      "price": "1011000000000000000000",
      "reserved": "",
      "salt": "0x6027057a9ff2dc60abd209eca675264c3ebbab12c30be61bcccf9a8c974180c1",
      "assetIds": []
    },
    {
      "x": 159,
      "y": 205,
      "size": 1,
      "price": "1011000000000000000000",
      "reserved": "0x7a9fe22691c811ea339d9b73150e6911a5343dca",
      "salt": "0x2bb4c472f48133ac0c982e8b7778b8fc288bae3a6151e37d94cf63f14b661ffb",
      "assetIds": []
    },
    {
      "x": 159,
      "y": 206,
      "size": 1,
      "price": "1011000000000000000000",
      "reserved": "",
      "salt": "0xfc7843ca336d05d637a63c206edd1753e1e4f2dd7ec2634b5fbd182a18efecfc",
      "assetIds": []
    },
    {
      "x": 160,
      "y": 192,
      "size": 1,
      "price": "4683000000000000000000",
      "reserved": "",
      "salt": "0x9a97a36332e2049cab0ce7d04863e0b8ca0771391b96e3c96815a553ed6d6c7d",
      "assetIds": [
        "55464657044963196816950587289035428064568320970692304673817341489687933519875",
        "55464657044963196816950587289035428064568320970692304673817341489687933519884",
        "55464657044963196816950587289035428064568320970692304673817341489687941879810",
        "55464657044963196816950587289035428064568320970692304673817341489687933519872",
        "55464657044963196816950587289035428064568320970692304673817341489687933519879",
        "55464657044963196816950587289035428064568320970692304673817341489687933519874"
      ]
    },
    {
      "x": 160,
      "y": 193,
      "size": 1,
      "price": "4683000000000000000000",
      "reserved": "",
      "salt": "0xf7a5423462a1b9349f7d4a6ad85c604aea511f7504717d6616b77d6e6aee9dde",
      "assetIds": [
        "55464657044963196816950587289035428064568320970692304673817341489687933519878",
        "55464657044963196816950587289035428064568320970692304673817341489687933519885",
        "55464657044963196816950587289035428064568320970692304673817341489687933519888",
        "55464657044963196816950587289035428064568320970692304673817341489687933519877",
        "55464657044963196816950587289035428064568320970692304673817341489687941879809",
        "55464657044963196816950587289035428064568320970692304673817341489687933519881"
      ]
    },
    {
      "x": 160,
      "y": 194,
      "size": 1,
      "price": "4683000000000000000000",
      "reserved": "",
      "salt": "0x446cc7a46955f6ca671f24d0273adacb9dbe000eaf1bcffd7463531182671a6e",
      "assetIds": [
        "55464657044963196816950587289035428064568320970692304673817341489687933519875",
        "55464657044963196816950587289035428064568320970692304673817341489687933519884",
        "55464657044963196816950587289035428064568320970692304673817341489687941879810",
        "55464657044963196816950587289035428064568320970692304673817341489687933519872",
        "55464657044963196816950587289035428064568320970692304673817341489687933519879",
        "55464657044963196816950587289035428064568320970692304673817341489687933519874"
      ]
    },
    {
      "x": 160,
      "y": 195,
      "size": 1,
      "price": "1011000000000000000000",
      "reserved": "",
      "salt": "0x35ad3fbf5560061b18504489eae7894853c96ea2fab1fedbaf114e0deda02f81",
      "assetIds": []
    },
    {
      "x": 160,
      "y": 196,
      "size": 1,
      "price": "1011000000000000000000",
      "reserved": "",
      "salt": "0x99b9903fe6c1e057dba1741a4b35e6a8baaf5af11bc5dfd2526f495774347e93",
      "assetIds": []
    },
    {
      "x": 160,
      "y": 197,
      "size": 1,
      "price": "1011000000000000000000",
      "reserved": "",
      "salt": "0xf6c13b27cb8f533901e0eeb96e69a9a4d68885b3666b4d6cc86025d1365700a2",
      "assetIds": []
    },
    {
      "x": 160,
      "y": 198,
      "size": 1,
      "price": "1011000000000000000000",
      "reserved": "",
      "salt": "0x3e55037fe81545c9fb6a1c4841510067ba6a3168f4b4904e21b591a9b2830cc1",
      "assetIds": []
    },
    {
      "x": 160,
      "y": 199,
      "size": 1,
      "price": "1011000000000000000000",
      "reserved": "",
      "salt": "0xeed0256327a5cc20ba7396192eb1508f5c0b2031a0a3a64e0e2c1a0b51e3057b",
      "assetIds": []
    },
    {
      "x": 160,
      "y": 200,
      "size": 1,
      "price": "1011000000000000000000",
      "reserved": "",
      "salt": "0x065dd3f86d82c11349fc440d2643237d8aa7ef194827fa20aa96666944f6f166",
      "assetIds": []
    },
    {
      "x": 160,
      "y": 201,
      "size": 1,
      "price": "1011000000000000000000",
      "reserved": "0x7a9fe22691c811ea339d9b73150e6911a5343dca",
      "salt": "0xb6ae4f78435ccfc0b0ee2ef1055af6f4672dadc23bbf2187a85aa3c9d2a2ee22",
      "assetIds": []
    },
    {
      "x": 160,
      "y": 202,
      "size": 1,
      "price": "1011000000000000000000",
      "reserved": "",
      "salt": "0xc931044cd3436426f2a18efaa6d18c55eafaed2c0468dfc2515406306d6084b3",
      "assetIds": []
    },
    {
      "x": 160,
      "y": 203,
      "size": 1,
      "price": "1011000000000000000000",
      "reserved": "",
      "salt": "0xba0fcf7737d0ae31b68c17738cd5a86a408b2ae7ff927dae73fa1f29c43b981e",
      "assetIds": []
    },
    {
      "x": 160,
      "y": 204,
      "size": 1,
      "price": "1011000000000000000000",
      "reserved": "",
      "salt": "0x7224616c1e3ece00bcf218e6d786810acbd006bf6f96acc1a8d08a1bec64084a",
      "assetIds": []
    },
    {
      "x": 160,
      "y": 205,
      "size": 1,
      "price": "1011000000000000000000",
      "reserved": "",
      "salt": "0xf0185535b2840925a4d2292c433c0b0db93c2ac1e3a596286f62fa230a4633a4",
      "assetIds": []
    },
    {
      "x": 160,
      "y": 206,
      "size": 1,
      "price": "1011000000000000000000",
      "reserved": "",
      "salt": "0x76777cc1e7c6d62a2a971d4803aee1ac5d3d7f3f4f298382a6071bdb33574acc",
      "assetIds": []
    },
    {
      "x": 161,
      "y": 192,
      "size": 1,
      "price": "4683000000000000000000",
      "reserved": "",
      "salt": "0xa831b1ef37e9469760d5f68c611437d02d07c33ab1c74f9d8ee62ba810799e98",
      "assetIds": [
        "55464657044963196816950587289035428064568320970692304673817341489687941879808",
        "55464657044963196816950587289035428064568320970692304673817341489687933519880",
        "55464657044963196816950587289035428064568320970692304673817341489687933519882",
        "55464657044963196816950587289035428064568320970692304673817341489687933519886",
        "55464657044963196816950587289035428064568320970692304673817341489687933519883"
      ]
    },
    {
      "x": 161,
      "y": 193,
      "size": 1,
      "price": "4683000000000000000000",
      "reserved": "",
      "salt": "0x8509613651e052cf847c2d98a54a839a16935e58a0cb5501fe8d84a281bc19bb",
      "assetIds": [
        "55464657044963196816950587289035428064568320970692304673817341489687941879808",
        "55464657044963196816950587289035428064568320970692304673817341489687933519880",
        "55464657044963196816950587289035428064568320970692304673817341489687933519882",
        "55464657044963196816950587289035428064568320970692304673817341489687933519886",
        "55464657044963196816950587289035428064568320970692304673817341489687933519883"
      ]
    },
    {
      "x": 161,
      "y": 194,
      "size": 1,
      "price": "1011000000000000000000",
      "reserved": "0x7a9fe22691c811ea339d9b73150e6911a5343dca",
      "salt": "0xe094d63765073a2c2839174574453d19676c8f4971ee8632963ea85b53704d17",
      "assetIds": []
    },
    {
      "x": 161,
      "y": 195,
      "size": 1,
      "price": "1011000000000000000000",
      "reserved": "",
      "salt": "0x1633f5fecbde9a74a8e68c82084dc6276f53506d4373ef1b40f267b95e4f33c7",
      "assetIds": []
    },
    {
      "x": 161,
      "y": 196,
      "size": 1,
      "price": "1011000000000000000000",
      "reserved": "",
      "salt": "0x90d892ec88cbbc26229fe8fa669ace82c08da7b7be9aa74f3ab62975609807eb",
      "assetIds": []
    },
    {
      "x": 161,
      "y": 197,
      "size": 1,
      "price": "1011000000000000000000",
      "reserved": "",
      "salt": "0x2d7e938a1d4432cb5c5af9fd007dc0075a40e58079ce22fad8995df53f7da038",
      "assetIds": []
    },
    {
      "x": 161,
      "y": 198,
      "size": 1,
      "price": "1011000000000000000000",
      "reserved": "",
      "salt": "0x7b44fb9f5456dcc542765d08325ce00750b1e71e8920141a2a60e98f9abd2970",
      "assetIds": []
    },
    {
      "x": 161,
      "y": 199,
      "size": 1,
      "price": "1011000000000000000000",
      "reserved": "",
      "salt": "0xcc2c46a8babf9871629523a8b5fb90b2caf8bd6c7f930bb9179e4bdb287ec902",
      "assetIds": []
    },
    {
      "x": 161,
      "y": 200,
      "size": 1,
      "price": "1011000000000000000000",
      "reserved": "",
      "salt": "0xbf8657af9bee58fd11dd242169e6e2d36450a1a02390db3bb0a25d43605ff9e5",
      "assetIds": []
    },
    {
      "x": 161,
      "y": 201,
      "size": 1,
      "price": "1011000000000000000000",
      "reserved": "",
      "salt": "0x123129d2f8ac9c01984bc8e6dad09e71fa5945ed3ca9c04dbf5c1de8b13dff35",
      "assetIds": []
    },
    {
      "x": 161,
      "y": 202,
      "size": 1,
      "price": "1011000000000000000000",
      "reserved": "",
      "salt": "0x2fe71e9ea0d820b48c100f8bd2d72f48f24d1c80ae58d814c439d026e16c5eaf",
      "assetIds": []
    },
    {
      "x": 161,
      "y": 203,
      "size": 1,
      "price": "1011000000000000000000",
      "reserved": "",
      "salt": "0xe6f3a4e771714df1c35b30f40d1a76a178e11f7ebfd0868fb47a3879784c0978",
      "assetIds": []
    },
    {
      "x": 161,
      "y": 204,
      "size": 1,
      "price": "1011000000000000000000",
      "reserved": "",
      "salt": "0xde403c47cd074564f40ffa296ab5b17cc67012c8614137a2f3e4849b1707d136",
      "assetIds": []
    },
    {
      "x": 161,
      "y": 205,
      "size": 1,
      "price": "1011000000000000000000",
      "reserved": "",
      "salt": "0x09af46b5f842d6c8fd77ed1385ca5842d7204d60bb45b95f7fab20b2b3df6dd3",
      "assetIds": []
    },
    {
      "x": 161,
      "y": 206,
      "size": 1,
      "price": "1011000000000000000000",
      "reserved": "",
      "salt": "0xfe1f086907e6089e44d6c0fb926d7f3133fb9ee8b9b085a09493a918d574170c",
      "assetIds": []
    },
    {
      "x": 162,
      "y": 198,
      "size": 1,
      "price": "1011000000000000000000",
      "reserved": "",
      "salt": "0x43ef55fb944729aca87323ee435c0dffe1ac78d34fe84ad04b1bb243c619080e",
      "assetIds": []
    },
    {
      "x": 162,
      "y": 199,
      "size": 1,
      "price": "1011000000000000000000",
      "reserved": "",
      "salt": "0x39e7326df65c66bd29be583b8b8fefb072c3857bca8657aaa355a6afaa30784e",
      "assetIds": []
    },
    {
      "x": 162,
      "y": 200,
      "size": 1,
      "price": "1011000000000000000000",
      "reserved": "",
      "salt": "0x4522097f5c09e248f0e780fc5bf1e0cb84d09f746c2777f77d059d1f400b7c6e",
      "assetIds": []
    },
    {
      "x": 162,
      "y": 201,
      "size": 1,
      "price": "1011000000000000000000",
      "reserved": "",
      "salt": "0xb56460cd25b58ba8ff851d9e85e14f3307aca0ab62c4c5f2d30631f4ef2a09e9",
      "assetIds": []
    },
    {
      "x": 162,
      "y": 202,
      "size": 1,
      "price": "1011000000000000000000",
      "reserved": "",
      "salt": "0x2ecff025198aaa137bd82d96cde9ca2e97aa8ac66d7496bb43fa2d956ea2fa9f",
      "assetIds": []
    },
    {
      "x": 162,
      "y": 203,
      "size": 1,
      "price": "1011000000000000000000",
      "reserved": "",
      "salt": "0xd11711d773bb5d44ac85d44be1d60ecda69398e3891fcdc82b23a7832ebbd228",
      "assetIds": []
    },
    {
      "x": 163,
      "y": 198,
      "size": 1,
      "price": "1011000000000000000000",
      "reserved": "",
      "salt": "0xd802793badf4e7b7903d5bcacc1af4e16f745dfd514c3e8376714f2aab3bd34b",
      "assetIds": []
    },
    {
      "x": 163,
      "y": 199,
      "size": 1,
      "price": "1011000000000000000000",
      "reserved": "",
      "salt": "0xe9cea9fd2740328b19ef0bfdd828fd21b88c7f3fe17571da372675114ca12573",
      "assetIds": []
    },
    {
      "x": 163,
      "y": 200,
      "size": 1,
      "price": "1011000000000000000000",
      "reserved": "",
      "salt": "0x7ace96fbea8df0676c8e8fd5b6446e2ab5d7611fb80229a124af62cf34f401e1",
      "assetIds": []
    },
    {
      "x": 163,
      "y": 201,
      "size": 1,
      "price": "1011000000000000000000",
      "reserved": "",
      "salt": "0x492703f232e83286712c6eace0ca2eac9a6e68b76308a419af83af721b780627",
      "assetIds": []
    },
    {
      "x": 163,
      "y": 202,
      "size": 1,
      "price": "1011000000000000000000",
      "reserved": "",
      "salt": "0x37e54dad0fdb32791219474f43d600984b65db4e23945b081100ff4d61814599",
      "assetIds": []
    },
    {
      "x": 163,
      "y": 203,
      "size": 1,
      "price": "1011000000000000000000",
      "reserved": "",
      "salt": "0x10a6a9216ec9cca3939d75d8fe94727fed7223103ae86b6c70e4c2dd3cb45b54",
      "assetIds": []
    },
    {
      "x": 164,
      "y": 198,
      "size": 1,
      "price": "1011000000000000000000",
      "reserved": "",
      "salt": "0xeb4a1013876ad6c62a2a9babc0c415030820839ae333c125c2c3a37a7dbb212c",
      "assetIds": []
    },
    {
      "x": 164,
      "y": 199,
      "size": 1,
      "price": "1011000000000000000000",
      "reserved": "0x7a9fe22691c811ea339d9b73150e6911a5343dca",
      "salt": "0xb3b645a76dc47ef9d6dba573998288cbfc697200f640d32a7aa200db249427ef",
      "assetIds": []
    },
    {
      "x": 164,
      "y": 200,
      "size": 1,
      "price": "1011000000000000000000",
      "reserved": "",
      "salt": "0x05373451a3e2bca2918524daaf9eb09f77d4ebe65e36f98b22937cc12a299cf1",
      "assetIds": []
    },
    {
      "x": 164,
      "y": 201,
      "size": 1,
      "price": "1011000000000000000000",
      "reserved": "",
      "salt": "0x892e98c00f51cd43ea2304c89c82279290ffbc54ea085010734a696d0efb2a49",
      "assetIds": []
    },
    {
      "x": 164,
      "y": 202,
      "size": 1,
      "price": "1011000000000000000000",
      "reserved": "",
      "salt": "0x756a8afedbeae2d91fdfc1b6c8f548596fa6e411dbe73a554aabf4b26d1f1fed",
      "assetIds": []
    },
    {
      "x": 164,
      "y": 203,
      "size": 1,
      "price": "1011000000000000000000",
      "reserved": "",
      "salt": "0x5e3c503776ba13300a1572e83b90978c254821a1809625d1aa21c0be13899866",
      "assetIds": []
    },
    {
      "x": 165,
      "y": 198,
      "size": 1,
      "price": "1011000000000000000000",
      "reserved": "",
      "salt": "0x74158e16557f5c93621b161690238b98a265e8bb1a1b78406be56b10ef403641",
      "assetIds": []
    },
    {
      "x": 165,
      "y": 199,
      "size": 1,
      "price": "1011000000000000000000",
      "reserved": "",
      "salt": "0xac82f209201078837f4db8b2e586ebfd7e471cfb7b9059e0a1589caace4dbe50",
      "assetIds": []
    },
    {
      "x": 165,
      "y": 200,
      "size": 1,
      "price": "1011000000000000000000",
      "reserved": "",
      "salt": "0x07535d2154a076a4b75d5beb56eba8bed086778f7e3c91b10ab30690714a13ba",
      "assetIds": []
    },
    {
      "x": 165,
      "y": 201,
      "size": 1,
      "price": "1011000000000000000000",
      "reserved": "",
      "salt": "0x8888e85af5099c2901f9569a1fb4307ba8698d7ff108762010832d43145cc2d1",
      "assetIds": []
    },
    {
      "x": 165,
      "y": 202,
      "size": 1,
      "price": "1011000000000000000000",
      "reserved": "",
      "salt": "0xb44428a66d2f1d115a7f9cef4ce29ece6e0b67069df3cc3f3758d513c36ab527",
      "assetIds": []
    },
    {
      "x": 165,
      "y": 203,
      "size": 1,
      "price": "1011000000000000000000",
      "reserved": "",
      "salt": "0x86eb5f9a951b0fdbcb28557baad6297065a7fee9c0d353a8954492b5f85e2f70",
      "assetIds": []
    },
    {
      "x": 166,
      "y": 198,
      "size": 1,
      "price": "1011000000000000000000",
      "reserved": "",
      "salt": "0xed97f777ee80e8784f1328c1e3194953b6c097ae594c2948886462058a7ac307",
      "assetIds": []
    },
    {
      "x": 166,
      "y": 199,
      "size": 1,
      "price": "1011000000000000000000",
      "reserved": "",
      "salt": "0xf9da70ec90ec63872ccc4a03a8f6ad3b2ebf6d773a9070504c8d8840ab7137db",
      "assetIds": []
    },
    {
      "x": 166,
      "y": 200,
      "size": 1,
      "price": "1011000000000000000000",
      "reserved": "",
      "salt": "0xb378717d97ce866114967d1e21d170ccf72c3e968fbd42ff05fee189e535379a",
      "assetIds": []
    },
    {
      "x": 166,
      "y": 201,
      "size": 1,
      "price": "1011000000000000000000",
      "reserved": "",
      "salt": "0xd4d76e46330a3230256bf56c391a480b9f870174f9ae06c76228578bb05da1da",
      "assetIds": []
    },
    {
      "x": 166,
      "y": 202,
      "size": 1,
      "price": "1011000000000000000000",
      "reserved": "0x7a9fe22691c811ea339d9b73150e6911a5343dca",
      "salt": "0x6bcfe777c32c298a81e46be7d67aaccdfa7fed5499ded635e02012ad475d10d1",
      "assetIds": []
    },
    {
      "x": 166,
      "y": 203,
      "size": 1,
      "price": "1011000000000000000000",
      "reserved": "",
      "salt": "0x949ea2a5e606876aef86949906748de1b174d4920acd0979ec767fcaf02916ea",
      "assetIds": []
    },
    {
      "x": 167,
      "y": 198,
      "size": 1,
      "price": "1011000000000000000000",
      "reserved": "",
      "salt": "0x0ca23294cf282ee48b0b8e55d6448d0c97d3570824344e682525a45c5e0b765a",
      "assetIds": []
    },
    {
      "x": 167,
      "y": 199,
      "size": 1,
      "price": "1011000000000000000000",
      "reserved": "",
      "salt": "0xbf0d195b241324abfb8ce1ec21ecb70cb42023d3cf710fbae37c73e7c141dec0",
      "assetIds": []
    },
    {
      "x": 167,
      "y": 200,
      "size": 1,
      "price": "1011000000000000000000",
      "reserved": "",
      "salt": "0x20cb3b6e84376fc6c2fbc78cddbc4b4f4c7f3e1fd83286bb1604f3c3714cf102",
      "assetIds": []
    },
    {
      "x": 167,
      "y": 201,
      "size": 1,
      "price": "1011000000000000000000",
      "reserved": "",
      "salt": "0xb1b6be7d45598f88279d0ba59d6815d22bc3374ae658194ecc5159450e12be94",
      "assetIds": []
    },
    {
      "x": 167,
      "y": 202,
      "size": 1,
      "price": "1011000000000000000000",
      "reserved": "",
      "salt": "0x88ae785735911d9a79e53e9505eb10b68f102119b665f7768da9b4519fdc305f",
      "assetIds": []
    },
    {
      "x": 167,
      "y": 203,
      "size": 1,
      "price": "1011000000000000000000",
      "reserved": "",
      "salt": "0x4f4986f37dc5e227a99c243c1d3c5ec22a9cf386fd99184cbe05ba5010ee973a",
      "assetIds": []
    },
    {
      "x": 168,
      "y": 162,
      "size": 1,
      "price": "1011000000000000000000",
      "reserved": "",
      "salt": "0x916331b3e5bf002d807a184ff88fd09e9c39ea2b87a2e7007d588af175d30fb5",
      "assetIds": []
    },
    {
      "x": 168,
      "y": 163,
      "size": 1,
      "price": "1011000000000000000000",
      "reserved": "",
      "salt": "0x5468730928fda4d066153479e0c9d1b95d66106616a1ab472ecf3d7b466b890c",
      "assetIds": []
    },
    {
      "x": 168,
      "y": 164,
      "size": 1,
      "price": "1011000000000000000000",
      "reserved": "",
      "salt": "0x849649dd52fe4ce87af57fe714d43048e1be4518600cddd545d3aaeda636b8f4",
      "assetIds": []
    },
    {
      "x": 168,
      "y": 165,
      "size": 1,
      "price": "1011000000000000000000",
      "reserved": "",
      "salt": "0x3954c6b00fd44be0890131a9ce78ea2f48ae5145058de09c861ee91119254187",
      "assetIds": []
    },
    {
      "x": 168,
      "y": 166,
      "size": 1,
      "price": "1011000000000000000000",
      "reserved": "",
      "salt": "0x990c0ab1428253b702a3f4fe3b773d1200023020732ac904e460af16858cdd06",
      "assetIds": []
    },
    {
      "x": 168,
      "y": 167,
      "size": 1,
      "price": "4683000000000000000000",
      "reserved": "",
      "salt": "0x15e457da7b8a9ec5e5ee7c2e225f0f761fd47fff8ecf452c8f26d8208ad22f9b",
      "assetIds": [
        "55464657044963196816950587289035428064568320970692304673817341489687933519878",
        "55464657044963196816950587289035428064568320970692304673817341489687933519885",
        "55464657044963196816950587289035428064568320970692304673817341489687933519888",
        "55464657044963196816950587289035428064568320970692304673817341489687933519877",
        "55464657044963196816950587289035428064568320970692304673817341489687941879809",
        "55464657044963196816950587289035428064568320970692304673817341489687933519881"
      ]
    },
    {
      "x": 168,
      "y": 168,
      "size": 1,
      "price": "4683000000000000000000",
      "reserved": "",
      "salt": "0x46552faaf94db195081a36d7ec52f7d2399da0db0c5b1371de84637acfd41fa3",
      "assetIds": [
        "55464657044963196816950587289035428064568320970692304673817341489687933519878",
        "55464657044963196816950587289035428064568320970692304673817341489687933519885",
        "55464657044963196816950587289035428064568320970692304673817341489687933519888",
        "55464657044963196816950587289035428064568320970692304673817341489687933519877",
        "55464657044963196816950587289035428064568320970692304673817341489687941879809",
        "55464657044963196816950587289035428064568320970692304673817341489687933519881"
      ]
    },
    {
      "x": 168,
      "y": 169,
      "size": 1,
      "price": "4683000000000000000000",
      "reserved": "",
      "salt": "0x0cc1b6817eac0b15dc2dbd6a82db9af407f4ba50e26b63328c88016024949a01",
      "assetIds": [
        "55464657044963196816950587289035428064568320970692304673817341489687933519875",
        "55464657044963196816950587289035428064568320970692304673817341489687933519884",
        "55464657044963196816950587289035428064568320970692304673817341489687941879810",
        "55464657044963196816950587289035428064568320970692304673817341489687933519872",
        "55464657044963196816950587289035428064568320970692304673817341489687933519879",
        "55464657044963196816950587289035428064568320970692304673817341489687933519874"
      ]
    },
    {
      "x": 168,
      "y": 170,
      "size": 1,
      "price": "4683000000000000000000",
      "reserved": "",
      "salt": "0x37bd515cdf87053e6c8e75e643aac1eaf10d371b7505b98328db870af6be2176",
      "assetIds": [
        "55464657044963196816950587289035428064568320970692304673817341489687941879808",
        "55464657044963196816950587289035428064568320970692304673817341489687933519880",
        "55464657044963196816950587289035428064568320970692304673817341489687933519882",
        "55464657044963196816950587289035428064568320970692304673817341489687933519886",
        "55464657044963196816950587289035428064568320970692304673817341489687933519883"
      ]
    },
    {
      "x": 168,
      "y": 171,
      "size": 1,
      "price": "4683000000000000000000",
      "reserved": "",
      "salt": "0xcf67a518fb3494b5a69c52ba44f0c1de3baf37c055497b3c37895b205ee9764e",
      "assetIds": [
        "55464657044963196816950587289035428064568320970692304673817341489687933519875",
        "55464657044963196816950587289035428064568320970692304673817341489687933519884",
        "55464657044963196816950587289035428064568320970692304673817341489687941879810",
        "55464657044963196816950587289035428064568320970692304673817341489687933519872",
        "55464657044963196816950587289035428064568320970692304673817341489687933519879",
        "55464657044963196816950587289035428064568320970692304673817341489687933519874"
      ]
    },
    {
      "x": 168,
      "y": 172,
      "size": 1,
      "price": "4683000000000000000000",
      "reserved": "",
      "salt": "0x3129c512c4cd1e14b5dd6950d2691f0ce283104a9f32eefcf85af0a33e313c3c",
      "assetIds": [
        "55464657044963196816950587289035428064568320970692304673817341489687941879808",
        "55464657044963196816950587289035428064568320970692304673817341489687933519880",
        "55464657044963196816950587289035428064568320970692304673817341489687933519882",
        "55464657044963196816950587289035428064568320970692304673817341489687933519886",
        "55464657044963196816950587289035428064568320970692304673817341489687933519883"
      ]
    },
    {
      "x": 168,
      "y": 173,
      "size": 1,
      "price": "4683000000000000000000",
      "reserved": "",
      "salt": "0xf45da56a569239da1559e1b1d109dd298d9159e32617b6ef135ff831c5d9eb6d",
      "assetIds": [
        "55464657044963196816950587289035428064568320970692304673817341489687941879808",
        "55464657044963196816950587289035428064568320970692304673817341489687933519880",
        "55464657044963196816950587289035428064568320970692304673817341489687933519882",
        "55464657044963196816950587289035428064568320970692304673817341489687933519886",
        "55464657044963196816950587289035428064568320970692304673817341489687933519883"
      ]
    },
    {
      "x": 168,
      "y": 174,
      "size": 1,
      "price": "4683000000000000000000",
      "reserved": "",
      "salt": "0x7119195c00ed1952c282ffec8c60951afdbeb92bc3b58bc31786feac54a40538",
      "assetIds": [
        "55464657044963196816950587289035428064568320970692304673817341489687933519878",
        "55464657044963196816950587289035428064568320970692304673817341489687933519885",
        "55464657044963196816950587289035428064568320970692304673817341489687933519888",
        "55464657044963196816950587289035428064568320970692304673817341489687933519877",
        "55464657044963196816950587289035428064568320970692304673817341489687941879809",
        "55464657044963196816950587289035428064568320970692304673817341489687933519881"
      ]
    },
    {
      "x": 168,
      "y": 175,
      "size": 1,
      "price": "4683000000000000000000",
      "reserved": "",
      "salt": "0x7faa73307bc028811a2a6380c0176585d0c35b2c42c7813a191704834bec7ab0",
      "assetIds": [
        "55464657044963196816950587289035428064568320970692304673817341489687933519878",
        "55464657044963196816950587289035428064568320970692304673817341489687933519885",
        "55464657044963196816950587289035428064568320970692304673817341489687933519888",
        "55464657044963196816950587289035428064568320970692304673817341489687933519877",
        "55464657044963196816950587289035428064568320970692304673817341489687941879809",
        "55464657044963196816950587289035428064568320970692304673817341489687933519881"
      ]
    },
    {
      "x": 168,
      "y": 176,
      "size": 1,
      "price": "4683000000000000000000",
      "reserved": "",
      "salt": "0x49221e4c0c9a0d64fafbcf54c896d971a46a378a2f88e498c92cb0d2d6f485d5",
      "assetIds": [
        "55464657044963196816950587289035428064568320970692304673817341489687933519875",
        "55464657044963196816950587289035428064568320970692304673817341489687933519884",
        "55464657044963196816950587289035428064568320970692304673817341489687941879810",
        "55464657044963196816950587289035428064568320970692304673817341489687933519872",
        "55464657044963196816950587289035428064568320970692304673817341489687933519879",
        "55464657044963196816950587289035428064568320970692304673817341489687933519874"
      ]
    },
    {
      "x": 168,
      "y": 177,
      "size": 1,
      "price": "4683000000000000000000",
      "reserved": "",
      "salt": "0x1ef58a7ad350d09fd89cd2398d9d319fe95dbbaa931e42e55a6235d3cb4b4b83",
      "assetIds": [
        "55464657044963196816950587289035428064568320970692304673817341489687941879808",
        "55464657044963196816950587289035428064568320970692304673817341489687933519880",
        "55464657044963196816950587289035428064568320970692304673817341489687933519882",
        "55464657044963196816950587289035428064568320970692304673817341489687933519886",
        "55464657044963196816950587289035428064568320970692304673817341489687933519883"
      ]
    },
    {
      "x": 168,
      "y": 178,
      "size": 1,
      "price": "4683000000000000000000",
      "reserved": "",
      "salt": "0x79687c1e3d88443ab2f2a8be06230ddd8652426d3ba991f0411bbe063c3a4db3",
      "assetIds": [
        "55464657044963196816950587289035428064568320970692304673817341489687933519878",
        "55464657044963196816950587289035428064568320970692304673817341489687933519885",
        "55464657044963196816950587289035428064568320970692304673817341489687933519888",
        "55464657044963196816950587289035428064568320970692304673817341489687933519877",
        "55464657044963196816950587289035428064568320970692304673817341489687941879809",
        "55464657044963196816950587289035428064568320970692304673817341489687933519881"
      ]
    },
    {
      "x": 168,
      "y": 179,
      "size": 1,
      "price": "4683000000000000000000",
      "reserved": "",
      "salt": "0x0c650793e5db52c2ab4cd941075b5d06dc62e1ca4b08be29447314a762e656d2",
      "assetIds": [
        "55464657044963196816950587289035428064568320970692304673817341489687933519875",
        "55464657044963196816950587289035428064568320970692304673817341489687933519884",
        "55464657044963196816950587289035428064568320970692304673817341489687941879810",
        "55464657044963196816950587289035428064568320970692304673817341489687933519872",
        "55464657044963196816950587289035428064568320970692304673817341489687933519879",
        "55464657044963196816950587289035428064568320970692304673817341489687933519874"
      ]
    },
    {
      "x": 168,
      "y": 192,
      "size": 1,
      "price": "4683000000000000000000",
      "reserved": "",
      "salt": "0xcb7f969055f322c3ef929831041f445b0ceb5d478b44e6c7698f64a7b977b094",
      "assetIds": [
        "55464657044963196816950587289035428064568320970692304673817341489687941879808",
        "55464657044963196816950587289035428064568320970692304673817341489687933519880",
        "55464657044963196816950587289035428064568320970692304673817341489687933519882",
        "55464657044963196816950587289035428064568320970692304673817341489687933519886",
        "55464657044963196816950587289035428064568320970692304673817341489687933519883"
      ]
    },
    {
      "x": 168,
      "y": 193,
      "size": 1,
      "price": "4683000000000000000000",
      "reserved": "",
      "salt": "0xb42128abd60f85da68c7ad8cf1459e5470859b5d2a79bc3c5df18f1d3dc680a1",
      "assetIds": [
        "55464657044963196816950587289035428064568320970692304673817341489687933519875",
        "55464657044963196816950587289035428064568320970692304673817341489687933519884",
        "55464657044963196816950587289035428064568320970692304673817341489687941879810",
        "55464657044963196816950587289035428064568320970692304673817341489687933519872",
        "55464657044963196816950587289035428064568320970692304673817341489687933519879",
        "55464657044963196816950587289035428064568320970692304673817341489687933519874"
      ]
    },
    {
      "x": 168,
      "y": 194,
      "size": 1,
      "price": "4683000000000000000000",
      "reserved": "",
      "salt": "0x4d9f3c2571d4c79a514dceaac9f2e8f92dd12e46216db746510987c6e67194f3",
      "assetIds": [
        "55464657044963196816950587289035428064568320970692304673817341489687933519875",
        "55464657044963196816950587289035428064568320970692304673817341489687933519884",
        "55464657044963196816950587289035428064568320970692304673817341489687941879810",
        "55464657044963196816950587289035428064568320970692304673817341489687933519872",
        "55464657044963196816950587289035428064568320970692304673817341489687933519879",
        "55464657044963196816950587289035428064568320970692304673817341489687933519874"
      ]
    },
    {
      "x": 168,
      "y": 195,
      "size": 1,
      "price": "1011000000000000000000",
      "reserved": "",
      "salt": "0x38ce451573a72e689e839b7128f58bd520c8c4c799f13ed785ef85714822a06f",
      "assetIds": []
    },
    {
      "x": 168,
      "y": 196,
      "size": 1,
      "price": "1011000000000000000000",
      "reserved": "",
      "salt": "0x920bd94cac382f2f9c1bc8ae2ffeb5877c2069589bb81fd40dd4ca3a97a57f70",
      "assetIds": []
    },
    {
      "x": 168,
      "y": 197,
      "size": 1,
      "price": "1011000000000000000000",
      "reserved": "",
      "salt": "0x2d7b63b905a7444cf87a84e84f6a5347472fa358a672f891372f2e65f2f905ae",
      "assetIds": []
    },
    {
      "x": 169,
      "y": 162,
      "size": 1,
      "price": "1011000000000000000000",
      "reserved": "",
      "salt": "0x204ec3542101fa50cc46b6a124a16e853996373d085f3709a9472a05dfb820b9",
      "assetIds": []
    },
    {
      "x": 169,
      "y": 163,
      "size": 1,
      "price": "1011000000000000000000",
      "reserved": "",
      "salt": "0xa9ba99909abc1a06222a94a7ef98318298434d485bee93bb09c0ff85e413efcf",
      "assetIds": []
    },
    {
      "x": 169,
      "y": 164,
      "size": 1,
      "price": "1011000000000000000000",
      "reserved": "",
      "salt": "0x37c01de83bdc90b85c9e80eaf90f5fab192ca329a274ce32868323b99a525a94",
      "assetIds": []
    },
    {
      "x": 169,
      "y": 165,
      "size": 1,
      "price": "1011000000000000000000",
      "reserved": "",
      "salt": "0xf750c0e245e7c836d7b5ae869b01ae5c2568a07d45c43d525ea7b667f049bcb7",
      "assetIds": []
    },
    {
      "x": 169,
      "y": 166,
      "size": 1,
      "price": "1011000000000000000000",
      "reserved": "0x7a9fe22691c811ea339d9b73150e6911a5343dca",
      "salt": "0x7b93f762436a0a9670373fb5aba7778537dd202b6d0b704ee292610ac2a2f335",
      "assetIds": []
    },
    {
      "x": 169,
      "y": 167,
      "size": 1,
      "price": "4683000000000000000000",
      "reserved": "",
      "salt": "0x8d8f170b94ce1a89ef9fd5a82f4907c40d314ac82349a0887dd0b6beead5eb5e",
      "assetIds": [
        "55464657044963196816950587289035428064568320970692304673817341489687933519878",
        "55464657044963196816950587289035428064568320970692304673817341489687933519885",
        "55464657044963196816950587289035428064568320970692304673817341489687933519888",
        "55464657044963196816950587289035428064568320970692304673817341489687933519877",
        "55464657044963196816950587289035428064568320970692304673817341489687941879809",
        "55464657044963196816950587289035428064568320970692304673817341489687933519881"
      ]
    },
    {
      "x": 169,
      "y": 168,
      "size": 1,
      "price": "4683000000000000000000",
      "reserved": "",
      "salt": "0x65f02a6a55bfb7ca9ccef0ae3c7e00759e07ad1051b81bc1f156acf8f870c7ea",
      "assetIds": [
        "55464657044963196816950587289035428064568320970692304673817341489687933519875",
        "55464657044963196816950587289035428064568320970692304673817341489687933519884",
        "55464657044963196816950587289035428064568320970692304673817341489687941879810",
        "55464657044963196816950587289035428064568320970692304673817341489687933519872",
        "55464657044963196816950587289035428064568320970692304673817341489687933519879",
        "55464657044963196816950587289035428064568320970692304673817341489687933519874"
      ]
    },
    {
      "x": 169,
      "y": 169,
      "size": 1,
      "price": "4683000000000000000000",
      "reserved": "",
      "salt": "0x8285d4638964fb255a77e372b65e755a34397123df83a407c969c40eba6b59b3",
      "assetIds": [
        "55464657044963196816950587289035428064568320970692304673817341489687933519875",
        "55464657044963196816950587289035428064568320970692304673817341489687933519884",
        "55464657044963196816950587289035428064568320970692304673817341489687941879810",
        "55464657044963196816950587289035428064568320970692304673817341489687933519872",
        "55464657044963196816950587289035428064568320970692304673817341489687933519879",
        "55464657044963196816950587289035428064568320970692304673817341489687933519874"
      ]
    },
    {
      "x": 169,
      "y": 170,
      "size": 1,
      "price": "4683000000000000000000",
      "reserved": "",
      "salt": "0x2e96a67b001944a8a576ac89282e98ed111cf92c3f910877e4c7b8b3709820a9",
      "assetIds": [
        "55464657044963196816950587289035428064568320970692304673817341489687933519878",
        "55464657044963196816950587289035428064568320970692304673817341489687933519885",
        "55464657044963196816950587289035428064568320970692304673817341489687933519888",
        "55464657044963196816950587289035428064568320970692304673817341489687933519877",
        "55464657044963196816950587289035428064568320970692304673817341489687941879809",
        "55464657044963196816950587289035428064568320970692304673817341489687933519881"
      ]
    },
    {
      "x": 169,
      "y": 171,
      "size": 1,
      "price": "4683000000000000000000",
      "reserved": "",
      "salt": "0x87dfa8fa20ad115efb487ee6e5b5e33fb0078176ce1cba20eaa707155b00cbc6",
      "assetIds": [
        "55464657044963196816950587289035428064568320970692304673817341489687933519875",
        "55464657044963196816950587289035428064568320970692304673817341489687933519884",
        "55464657044963196816950587289035428064568320970692304673817341489687941879810",
        "55464657044963196816950587289035428064568320970692304673817341489687933519872",
        "55464657044963196816950587289035428064568320970692304673817341489687933519879",
        "55464657044963196816950587289035428064568320970692304673817341489687933519874"
      ]
    },
    {
      "x": 169,
      "y": 172,
      "size": 1,
      "price": "4683000000000000000000",
      "reserved": "",
      "salt": "0x45ae0fc9240f9a380bdc1290851ebc1964cff867dba0ec07fbf4fb3837366b95",
      "assetIds": [
        "55464657044963196816950587289035428064568320970692304673817341489687933519875",
        "55464657044963196816950587289035428064568320970692304673817341489687933519884",
        "55464657044963196816950587289035428064568320970692304673817341489687941879810",
        "55464657044963196816950587289035428064568320970692304673817341489687933519872",
        "55464657044963196816950587289035428064568320970692304673817341489687933519879",
        "55464657044963196816950587289035428064568320970692304673817341489687933519874"
      ]
    },
    {
      "x": 169,
      "y": 173,
      "size": 1,
      "price": "4683000000000000000000",
      "reserved": "",
      "salt": "0x5cc4dc8ac2a06f96d7c2c9b1384cc865fbc01fc130b72f7b0669f772c7aeb38b",
      "assetIds": [
        "55464657044963196816950587289035428064568320970692304673817341489687941879808",
        "55464657044963196816950587289035428064568320970692304673817341489687933519880",
        "55464657044963196816950587289035428064568320970692304673817341489687933519882",
        "55464657044963196816950587289035428064568320970692304673817341489687933519886",
        "55464657044963196816950587289035428064568320970692304673817341489687933519883"
      ]
    },
    {
      "x": 169,
      "y": 174,
      "size": 1,
      "price": "4683000000000000000000",
      "reserved": "",
      "salt": "0x5ec41580f4039276ca8eb96431cfd643ed2e53b0f32c141983cd13fffeb6c822",
      "assetIds": [
        "55464657044963196816950587289035428064568320970692304673817341489687933519878",
        "55464657044963196816950587289035428064568320970692304673817341489687933519885",
        "55464657044963196816950587289035428064568320970692304673817341489687933519888",
        "55464657044963196816950587289035428064568320970692304673817341489687933519877",
        "55464657044963196816950587289035428064568320970692304673817341489687941879809",
        "55464657044963196816950587289035428064568320970692304673817341489687933519881"
      ]
    },
    {
      "x": 169,
      "y": 175,
      "size": 1,
      "price": "4683000000000000000000",
      "reserved": "",
      "salt": "0x0b8cd4d3b538dba135fd2f56d37df691cd141f7d1f78c79b25913cec4fe12201",
      "assetIds": [
        "55464657044963196816950587289035428064568320970692304673817341489687933519875",
        "55464657044963196816950587289035428064568320970692304673817341489687933519884",
        "55464657044963196816950587289035428064568320970692304673817341489687941879810",
        "55464657044963196816950587289035428064568320970692304673817341489687933519872",
        "55464657044963196816950587289035428064568320970692304673817341489687933519879",
        "55464657044963196816950587289035428064568320970692304673817341489687933519874"
      ]
    },
    {
      "x": 169,
      "y": 176,
      "size": 1,
      "price": "4683000000000000000000",
      "reserved": "",
      "salt": "0x1684065032d6b0dc78faf9d0e9bf6713b77bbfcdadc3e1b37e28d996a1f4e2a5",
      "assetIds": [
        "55464657044963196816950587289035428064568320970692304673817341489687933519878",
        "55464657044963196816950587289035428064568320970692304673817341489687933519885",
        "55464657044963196816950587289035428064568320970692304673817341489687933519888",
        "55464657044963196816950587289035428064568320970692304673817341489687933519877",
        "55464657044963196816950587289035428064568320970692304673817341489687941879809",
        "55464657044963196816950587289035428064568320970692304673817341489687933519881"
      ]
    },
    {
      "x": 169,
      "y": 177,
      "size": 1,
      "price": "4683000000000000000000",
      "reserved": "",
      "salt": "0x742e3a8792884ceeb4470c0526fc998b58c41470176b0b31a615bf6469bf6415",
      "assetIds": [
        "55464657044963196816950587289035428064568320970692304673817341489687941879808",
        "55464657044963196816950587289035428064568320970692304673817341489687933519880",
        "55464657044963196816950587289035428064568320970692304673817341489687933519882",
        "55464657044963196816950587289035428064568320970692304673817341489687933519886",
        "55464657044963196816950587289035428064568320970692304673817341489687933519883"
      ]
    },
    {
      "x": 169,
      "y": 178,
      "size": 1,
      "price": "4683000000000000000000",
      "reserved": "",
      "salt": "0xa5605fe4548a2a606fc78cac468c64e989aa28e134eef872e0732aea26bbb6ae",
      "assetIds": [
        "55464657044963196816950587289035428064568320970692304673817341489687941879808",
        "55464657044963196816950587289035428064568320970692304673817341489687933519880",
        "55464657044963196816950587289035428064568320970692304673817341489687933519882",
        "55464657044963196816950587289035428064568320970692304673817341489687933519886",
        "55464657044963196816950587289035428064568320970692304673817341489687933519883"
      ]
    },
    {
      "x": 169,
      "y": 179,
      "size": 1,
      "price": "4683000000000000000000",
      "reserved": "",
      "salt": "0x6226462dae97775435646a32408be933f438f2eb84b1ce9adbdbc707696483a9",
      "assetIds": [
        "55464657044963196816950587289035428064568320970692304673817341489687933519878",
        "55464657044963196816950587289035428064568320970692304673817341489687933519885",
        "55464657044963196816950587289035428064568320970692304673817341489687933519888",
        "55464657044963196816950587289035428064568320970692304673817341489687933519877",
        "55464657044963196816950587289035428064568320970692304673817341489687941879809",
        "55464657044963196816950587289035428064568320970692304673817341489687933519881"
      ]
    },
    {
      "x": 169,
      "y": 192,
      "size": 1,
      "price": "4683000000000000000000",
      "reserved": "",
      "salt": "0x530d12b6157a23d8670283f3a16c3b39c750cbadce5f7f5608c58d41094cc221",
      "assetIds": [
        "55464657044963196816950587289035428064568320970692304673817341489687941879808",
        "55464657044963196816950587289035428064568320970692304673817341489687933519880",
        "55464657044963196816950587289035428064568320970692304673817341489687933519882",
        "55464657044963196816950587289035428064568320970692304673817341489687933519886",
        "55464657044963196816950587289035428064568320970692304673817341489687933519883"
      ]
    },
    {
      "x": 169,
      "y": 193,
      "size": 1,
      "price": "4683000000000000000000",
      "reserved": "",
      "salt": "0x244cae2b4d1b4a204ca8606768fb6a043f1ba99dcd5be9e5cade856d7ae3193b",
      "assetIds": [
        "55464657044963196816950587289035428064568320970692304673817341489687941879808",
        "55464657044963196816950587289035428064568320970692304673817341489687933519880",
        "55464657044963196816950587289035428064568320970692304673817341489687933519882",
        "55464657044963196816950587289035428064568320970692304673817341489687933519886",
        "55464657044963196816950587289035428064568320970692304673817341489687933519883"
      ]
    },
    {
      "x": 169,
      "y": 194,
      "size": 1,
      "price": "4683000000000000000000",
      "reserved": "",
      "salt": "0x2cb725e2573f562638dd65bfaa36704de827d0ab73363d20baac8debcd718573",
      "assetIds": [
        "55464657044963196816950587289035428064568320970692304673817341489687933519878",
        "55464657044963196816950587289035428064568320970692304673817341489687933519885",
        "55464657044963196816950587289035428064568320970692304673817341489687933519888",
        "55464657044963196816950587289035428064568320970692304673817341489687933519877",
        "55464657044963196816950587289035428064568320970692304673817341489687941879809",
        "55464657044963196816950587289035428064568320970692304673817341489687933519881"
      ]
    },
    {
      "x": 169,
      "y": 195,
      "size": 1,
      "price": "1011000000000000000000",
      "reserved": "",
      "salt": "0x2eaed233419ce07c39a5d68116057cceae15f6a667acd655944bd6dda3afa72e",
      "assetIds": []
    },
    {
      "x": 169,
      "y": 196,
      "size": 1,
      "price": "1011000000000000000000",
      "reserved": "",
      "salt": "0x23eb785d1903698598e4d1e6edf68f4313aaac6223fc9a4f4310b72996913c6f",
      "assetIds": []
    },
    {
      "x": 169,
      "y": 197,
      "size": 1,
      "price": "1011000000000000000000",
      "reserved": "",
      "salt": "0x0a8243615cf0d5e6ce06dc14ed187dee37ee556c59be729925c11ea5938b82af",
      "assetIds": []
    },
    {
      "x": 170,
      "y": 162,
      "size": 1,
      "price": "1011000000000000000000",
      "reserved": "",
      "salt": "0x780ce180d34da84e348e9dd5810f6f7d9ab5a58cf9905e7a1a042276a18059ab",
      "assetIds": []
    },
    {
      "x": 170,
      "y": 163,
      "size": 1,
      "price": "1011000000000000000000",
      "reserved": "",
      "salt": "0x2142e40a6b6c97977af9e6c4e12e697d57f6c7def2b2a0f31fd6b6e43f192364",
      "assetIds": []
    },
    {
      "x": 170,
      "y": 164,
      "size": 1,
      "price": "1011000000000000000000",
      "reserved": "",
      "salt": "0x931cf74dc961f0247836b6e2d4cd06178e305fe255554506733e8fbd513476ef",
      "assetIds": []
    },
    {
      "x": 170,
      "y": 165,
      "size": 1,
      "price": "1011000000000000000000",
      "reserved": "",
      "salt": "0x1b4992eec6b8788faeb1ecbf4d1a34cc6c789af57af712ca1448e853b09487b7",
      "assetIds": []
    },
    {
      "x": 170,
      "y": 166,
      "size": 1,
      "price": "1011000000000000000000",
      "reserved": "",
      "salt": "0x7ff4ebde1c6935d860f786a0aec522002a94744fbeb07f88f4ccfe7c1e072787",
      "assetIds": []
    },
    {
      "x": 170,
      "y": 167,
      "size": 1,
      "price": "4683000000000000000000",
      "reserved": "",
      "salt": "0x41f6bf976ebe468a32c7d430446d3ca1454ab69d18091eda3d2a157c86b4d8d9",
      "assetIds": [
        "55464657044963196816950587289035428064568320970692304673817341489687933519875",
        "55464657044963196816950587289035428064568320970692304673817341489687933519884",
        "55464657044963196816950587289035428064568320970692304673817341489687941879810",
        "55464657044963196816950587289035428064568320970692304673817341489687933519872",
        "55464657044963196816950587289035428064568320970692304673817341489687933519879",
        "55464657044963196816950587289035428064568320970692304673817341489687933519874"
      ]
    },
    {
      "x": 170,
      "y": 168,
      "size": 1,
      "price": "4683000000000000000000",
      "reserved": "",
      "salt": "0x6b75d7fce59ee8a58fdd983fc871ddd64613bfc1425028b09b270472c44f5c0a",
      "assetIds": [
        "55464657044963196816950587289035428064568320970692304673817341489687941879808",
        "55464657044963196816950587289035428064568320970692304673817341489687933519880",
        "55464657044963196816950587289035428064568320970692304673817341489687933519882",
        "55464657044963196816950587289035428064568320970692304673817341489687933519886",
        "55464657044963196816950587289035428064568320970692304673817341489687933519883"
      ]
    },
    {
      "x": 170,
      "y": 169,
      "size": 1,
      "price": "4683000000000000000000",
      "reserved": "",
      "salt": "0x708a1f3d5e33af5ede8a07a27840fca57992598c84b834490af1753ededd405c",
      "assetIds": [
        "55464657044963196816950587289035428064568320970692304673817341489687933519875",
        "55464657044963196816950587289035428064568320970692304673817341489687933519884",
        "55464657044963196816950587289035428064568320970692304673817341489687941879810",
        "55464657044963196816950587289035428064568320970692304673817341489687933519872",
        "55464657044963196816950587289035428064568320970692304673817341489687933519879",
        "55464657044963196816950587289035428064568320970692304673817341489687933519874"
      ]
    },
    {
      "x": 170,
      "y": 170,
      "size": 1,
      "price": "4683000000000000000000",
      "reserved": "",
      "salt": "0x5bf617d89553c7bd8f33ab12e76e8bd7dd5e1d2aff96c21239e44f286baffcf2",
      "assetIds": [
        "55464657044963196816950587289035428064568320970692304673817341489687933519878",
        "55464657044963196816950587289035428064568320970692304673817341489687933519885",
        "55464657044963196816950587289035428064568320970692304673817341489687933519888",
        "55464657044963196816950587289035428064568320970692304673817341489687933519877",
        "55464657044963196816950587289035428064568320970692304673817341489687941879809",
        "55464657044963196816950587289035428064568320970692304673817341489687933519881"
      ]
    },
    {
      "x": 170,
      "y": 171,
      "size": 1,
      "price": "4683000000000000000000",
      "reserved": "",
      "salt": "0x72bb87b440ddf8cd2985a936ace72dd5ceb883c544d041711c471ac20fdc0afc",
      "assetIds": [
        "55464657044963196816950587289035428064568320970692304673817341489687933519875",
        "55464657044963196816950587289035428064568320970692304673817341489687933519884",
        "55464657044963196816950587289035428064568320970692304673817341489687941879810",
        "55464657044963196816950587289035428064568320970692304673817341489687933519872",
        "55464657044963196816950587289035428064568320970692304673817341489687933519879",
        "55464657044963196816950587289035428064568320970692304673817341489687933519874"
      ]
    },
    {
      "x": 170,
      "y": 172,
      "size": 1,
      "price": "4683000000000000000000",
      "reserved": "",
      "salt": "0x879d3ba4f56429711340420088b8cae1e6ea95524df8ec556c5ffa65e6c7c5c3",
      "assetIds": [
        "55464657044963196816950587289035428064568320970692304673817341489687933519875",
        "55464657044963196816950587289035428064568320970692304673817341489687933519884",
        "55464657044963196816950587289035428064568320970692304673817341489687941879810",
        "55464657044963196816950587289035428064568320970692304673817341489687933519872",
        "55464657044963196816950587289035428064568320970692304673817341489687933519879",
        "55464657044963196816950587289035428064568320970692304673817341489687933519874"
      ]
    },
    {
      "x": 170,
      "y": 173,
      "size": 1,
      "price": "4683000000000000000000",
      "reserved": "",
      "salt": "0x0cac23e26fc9a72760cb3f181216967f85fac9d4a7cc2fa550cfb1f9e95cdb74",
      "assetIds": [
        "55464657044963196816950587289035428064568320970692304673817341489687933519878",
        "55464657044963196816950587289035428064568320970692304673817341489687933519885",
        "55464657044963196816950587289035428064568320970692304673817341489687933519888",
        "55464657044963196816950587289035428064568320970692304673817341489687933519877",
        "55464657044963196816950587289035428064568320970692304673817341489687941879809",
        "55464657044963196816950587289035428064568320970692304673817341489687933519881"
      ]
    },
    {
      "x": 170,
      "y": 174,
      "size": 1,
      "price": "4683000000000000000000",
      "reserved": "",
      "salt": "0x23a75823ed3fe11e966dd869c68df83b1bb81ec5b8d445bf854e270d72ffbbd0",
      "assetIds": [
        "55464657044963196816950587289035428064568320970692304673817341489687933519875",
        "55464657044963196816950587289035428064568320970692304673817341489687933519884",
        "55464657044963196816950587289035428064568320970692304673817341489687941879810",
        "55464657044963196816950587289035428064568320970692304673817341489687933519872",
        "55464657044963196816950587289035428064568320970692304673817341489687933519879",
        "55464657044963196816950587289035428064568320970692304673817341489687933519874"
      ]
    },
    {
      "x": 170,
      "y": 175,
      "size": 1,
      "price": "4683000000000000000000",
      "reserved": "",
      "salt": "0x898d99ac76517bf97efcc135b44f234a5f45889dafa24cc2115a64884363e9d2",
      "assetIds": [
        "55464657044963196816950587289035428064568320970692304673817341489687933519878",
        "55464657044963196816950587289035428064568320970692304673817341489687933519885",
        "55464657044963196816950587289035428064568320970692304673817341489687933519888",
        "55464657044963196816950587289035428064568320970692304673817341489687933519877",
        "55464657044963196816950587289035428064568320970692304673817341489687941879809",
        "55464657044963196816950587289035428064568320970692304673817341489687933519881"
      ]
    },
    {
      "x": 170,
      "y": 176,
      "size": 1,
      "price": "4683000000000000000000",
      "reserved": "",
      "salt": "0x69b6d159e97ebdf00331caa28963e1cccd89a0b3d58ba0fb1fe791ad51936f07",
      "assetIds": [
        "55464657044963196816950587289035428064568320970692304673817341489687933519878",
        "55464657044963196816950587289035428064568320970692304673817341489687933519885",
        "55464657044963196816950587289035428064568320970692304673817341489687933519888",
        "55464657044963196816950587289035428064568320970692304673817341489687933519877",
        "55464657044963196816950587289035428064568320970692304673817341489687941879809",
        "55464657044963196816950587289035428064568320970692304673817341489687933519881"
      ]
    },
    {
      "x": 170,
      "y": 177,
      "size": 1,
      "price": "4683000000000000000000",
      "reserved": "",
      "salt": "0x500d6b5623141f131f120470003b0e1ebec55102c72429292080af83f0d79a48",
      "assetIds": [
        "55464657044963196816950587289035428064568320970692304673817341489687933519878",
        "55464657044963196816950587289035428064568320970692304673817341489687933519885",
        "55464657044963196816950587289035428064568320970692304673817341489687933519888",
        "55464657044963196816950587289035428064568320970692304673817341489687933519877",
        "55464657044963196816950587289035428064568320970692304673817341489687941879809",
        "55464657044963196816950587289035428064568320970692304673817341489687933519881"
      ]
    },
    {
      "x": 170,
      "y": 178,
      "size": 1,
      "price": "4683000000000000000000",
      "reserved": "",
      "salt": "0xc43f0203ea0600f9d82d2485d04b4fe31fbf27404d01b1110c251f8659bf006d",
      "assetIds": [
        "55464657044963196816950587289035428064568320970692304673817341489687941879808",
        "55464657044963196816950587289035428064568320970692304673817341489687933519880",
        "55464657044963196816950587289035428064568320970692304673817341489687933519882",
        "55464657044963196816950587289035428064568320970692304673817341489687933519886",
        "55464657044963196816950587289035428064568320970692304673817341489687933519883"
      ]
    },
    {
      "x": 170,
      "y": 179,
      "size": 1,
      "price": "4683000000000000000000",
      "reserved": "",
      "salt": "0x5f7e4cbd80841f9d3d1ce4ed5d873404999190927ee95fb5dbf3220dacc18335",
      "assetIds": [
        "55464657044963196816950587289035428064568320970692304673817341489687933519878",
        "55464657044963196816950587289035428064568320970692304673817341489687933519885",
        "55464657044963196816950587289035428064568320970692304673817341489687933519888",
        "55464657044963196816950587289035428064568320970692304673817341489687933519877",
        "55464657044963196816950587289035428064568320970692304673817341489687941879809",
        "55464657044963196816950587289035428064568320970692304673817341489687933519881"
      ]
    },
    {
      "x": 170,
      "y": 192,
      "size": 1,
      "price": "4683000000000000000000",
      "reserved": "",
      "salt": "0x96ab45d9359d1bea7c89a903c4f17411d6a056edceecdb0fd5bdc4a0c4ec38a6",
      "assetIds": [
        "55464657044963196816950587289035428064568320970692304673817341489687933519878",
        "55464657044963196816950587289035428064568320970692304673817341489687933519885",
        "55464657044963196816950587289035428064568320970692304673817341489687933519888",
        "55464657044963196816950587289035428064568320970692304673817341489687933519877",
        "55464657044963196816950587289035428064568320970692304673817341489687941879809",
        "55464657044963196816950587289035428064568320970692304673817341489687933519881"
      ]
    },
    {
      "x": 170,
      "y": 193,
      "size": 1,
      "price": "4683000000000000000000",
      "reserved": "",
      "salt": "0xde0d05ba4e1a601513bdb07606a97f8e68ea012a3b0cce42e50d7f3ca117812e",
      "assetIds": [
        "55464657044963196816950587289035428064568320970692304673817341489687933519875",
        "55464657044963196816950587289035428064568320970692304673817341489687933519884",
        "55464657044963196816950587289035428064568320970692304673817341489687941879810",
        "55464657044963196816950587289035428064568320970692304673817341489687933519872",
        "55464657044963196816950587289035428064568320970692304673817341489687933519879",
        "55464657044963196816950587289035428064568320970692304673817341489687933519874"
      ]
    },
    {
      "x": 170,
      "y": 194,
      "size": 1,
      "price": "1011000000000000000000",
      "reserved": "",
      "salt": "0x22adf2ab7b21437bf3ee4981d2761028f52d4f138358141c8b32efd8efa789a6",
      "assetIds": []
    },
    {
      "x": 170,
      "y": 195,
      "size": 1,
      "price": "1011000000000000000000",
      "reserved": "",
      "salt": "0x34966ea99f855345a877d35a32edd51da62459f347b28df95502f048b5d206f0",
      "assetIds": []
    },
    {
      "x": 170,
      "y": 196,
      "size": 1,
      "price": "1011000000000000000000",
      "reserved": "",
      "salt": "0x20af7b4c76488a8012e664569826fc3525b3e7392d20984377fb3342eb302da0",
      "assetIds": []
    },
    {
      "x": 170,
      "y": 197,
      "size": 1,
      "price": "1011000000000000000000",
      "reserved": "",
      "salt": "0x2ae4e6525a64e5449afe2ae506d5f15e2995f71fc77d9c320a46134ddc5d6c40",
      "assetIds": []
    },
    {
      "x": 171,
      "y": 162,
      "size": 1,
      "price": "1011000000000000000000",
      "reserved": "",
      "salt": "0xe29704f729ad082101dbd323e987169252cc0c5a4f464074fa7857c85680584d",
      "assetIds": []
    },
    {
      "x": 171,
      "y": 163,
      "size": 1,
      "price": "1011000000000000000000",
      "reserved": "0x7a9fe22691c811ea339d9b73150e6911a5343dca",
      "salt": "0x9e86ad7ef65db3d9af3f02cfa8ebbcc396085c7befff6275a9a06842bf10edd8",
      "assetIds": []
    },
    {
      "x": 171,
      "y": 164,
      "size": 1,
      "price": "1011000000000000000000",
      "reserved": "",
      "salt": "0xf7c5b08b45da2010e3ec3ef436f6ae19f311ceab78b058453523dbc6f83f9ea9",
      "assetIds": []
    },
    {
      "x": 171,
      "y": 165,
      "size": 1,
      "price": "1011000000000000000000",
      "reserved": "",
      "salt": "0x898e76b487df945747ce703c9810472d32cd13bbffeafe0859f14fe0bd812845",
      "assetIds": []
    },
    {
      "x": 171,
      "y": 166,
      "size": 1,
      "price": "1011000000000000000000",
      "reserved": "",
      "salt": "0xf81bf078b9f1f40328c0f7e85ac59c85193f7a48efe4c733d6d3c69437081868",
      "assetIds": []
    },
    {
      "x": 171,
      "y": 167,
      "size": 1,
      "price": "4683000000000000000000",
      "reserved": "",
      "salt": "0x029005eacf4879259eedc0892ec350bf85cbb4ef8872599078a5ca6bf3c790ba",
      "assetIds": [
        "55464657044963196816950587289035428064568320970692304673817341489687933519878",
        "55464657044963196816950587289035428064568320970692304673817341489687933519885",
        "55464657044963196816950587289035428064568320970692304673817341489687933519888",
        "55464657044963196816950587289035428064568320970692304673817341489687933519877",
        "55464657044963196816950587289035428064568320970692304673817341489687941879809",
        "55464657044963196816950587289035428064568320970692304673817341489687933519881"
      ]
    },
    {
      "x": 171,
      "y": 168,
      "size": 1,
      "price": "4683000000000000000000",
      "reserved": "",
      "salt": "0x3e1c00f528987054799d64ffaa48a0a72f900b95dc8cfcc1784e79065f4d755d",
      "assetIds": [
        "55464657044963196816950587289035428064568320970692304673817341489687941879808",
        "55464657044963196816950587289035428064568320970692304673817341489687933519880",
        "55464657044963196816950587289035428064568320970692304673817341489687933519882",
        "55464657044963196816950587289035428064568320970692304673817341489687933519886",
        "55464657044963196816950587289035428064568320970692304673817341489687933519883"
      ]
    },
    {
      "x": 171,
      "y": 169,
      "size": 1,
      "price": "4683000000000000000000",
      "reserved": "",
      "salt": "0xbfee6fb63b99a87079f90f660298e0f5eb2b7c29f86460ca07fff5c51482f58a",
      "assetIds": [
        "55464657044963196816950587289035428064568320970692304673817341489687933519875",
        "55464657044963196816950587289035428064568320970692304673817341489687933519884",
        "55464657044963196816950587289035428064568320970692304673817341489687941879810",
        "55464657044963196816950587289035428064568320970692304673817341489687933519872",
        "55464657044963196816950587289035428064568320970692304673817341489687933519879",
        "55464657044963196816950587289035428064568320970692304673817341489687933519874"
      ]
    },
    {
      "x": 171,
      "y": 170,
      "size": 1,
      "price": "4683000000000000000000",
      "reserved": "",
      "salt": "0x068d573ec408c9a1a96658f87f6eb410deb9406bea0b599f89e797749d2d1587",
      "assetIds": [
        "55464657044963196816950587289035428064568320970692304673817341489687933519875",
        "55464657044963196816950587289035428064568320970692304673817341489687933519884",
        "55464657044963196816950587289035428064568320970692304673817341489687941879810",
        "55464657044963196816950587289035428064568320970692304673817341489687933519872",
        "55464657044963196816950587289035428064568320970692304673817341489687933519879",
        "55464657044963196816950587289035428064568320970692304673817341489687933519874"
      ]
    },
    {
      "x": 171,
      "y": 171,
      "size": 1,
      "price": "4683000000000000000000",
      "reserved": "",
      "salt": "0x03bb861124b50afedf234d7b734d1474592630f37b1fb86d7f7006ebe1401581",
      "assetIds": [
        "55464657044963196816950587289035428064568320970692304673817341489687933519878",
        "55464657044963196816950587289035428064568320970692304673817341489687933519885",
        "55464657044963196816950587289035428064568320970692304673817341489687933519888",
        "55464657044963196816950587289035428064568320970692304673817341489687933519877",
        "55464657044963196816950587289035428064568320970692304673817341489687941879809",
        "55464657044963196816950587289035428064568320970692304673817341489687933519881"
      ]
    },
    {
      "x": 171,
      "y": 172,
      "size": 1,
      "price": "4683000000000000000000",
      "reserved": "",
      "salt": "0x03a31c02e0731370a6ae7c4194d6ae04a2af39ae1bf9331a63c80545f2711315",
      "assetIds": [
        "55464657044963196816950587289035428064568320970692304673817341489687941879808",
        "55464657044963196816950587289035428064568320970692304673817341489687933519880",
        "55464657044963196816950587289035428064568320970692304673817341489687933519882",
        "55464657044963196816950587289035428064568320970692304673817341489687933519886",
        "55464657044963196816950587289035428064568320970692304673817341489687933519883"
      ]
    },
    {
      "x": 171,
      "y": 173,
      "size": 1,
      "price": "4683000000000000000000",
      "reserved": "",
      "salt": "0xca5fd12e1e4687deb0235b3170421f59aca472439ba4f12f15e4e343f2feddfe",
      "assetIds": [
        "55464657044963196816950587289035428064568320970692304673817341489687941879808",
        "55464657044963196816950587289035428064568320970692304673817341489687933519880",
        "55464657044963196816950587289035428064568320970692304673817341489687933519882",
        "55464657044963196816950587289035428064568320970692304673817341489687933519886",
        "55464657044963196816950587289035428064568320970692304673817341489687933519883"
      ]
    },
    {
      "x": 171,
      "y": 174,
      "size": 1,
      "price": "4683000000000000000000",
      "reserved": "",
      "salt": "0xd50d52391481429010f9ebc55a8847041bebc01d02e66e1a9c999a058f8404e9",
      "assetIds": [
        "55464657044963196816950587289035428064568320970692304673817341489687933519878",
        "55464657044963196816950587289035428064568320970692304673817341489687933519885",
        "55464657044963196816950587289035428064568320970692304673817341489687933519888",
        "55464657044963196816950587289035428064568320970692304673817341489687933519877",
        "55464657044963196816950587289035428064568320970692304673817341489687941879809",
        "55464657044963196816950587289035428064568320970692304673817341489687933519881"
      ]
    },
    {
      "x": 171,
      "y": 175,
      "size": 1,
      "price": "4683000000000000000000",
      "reserved": "",
      "salt": "0x73d0cc58e98221beb69ccd82eecadcd6786c54bd1e7e60ad94a4064b2a1a70e5",
      "assetIds": [
        "55464657044963196816950587289035428064568320970692304673817341489687933519878",
        "55464657044963196816950587289035428064568320970692304673817341489687933519885",
        "55464657044963196816950587289035428064568320970692304673817341489687933519888",
        "55464657044963196816950587289035428064568320970692304673817341489687933519877",
        "55464657044963196816950587289035428064568320970692304673817341489687941879809",
        "55464657044963196816950587289035428064568320970692304673817341489687933519881"
      ]
    },
    {
      "x": 171,
      "y": 176,
      "size": 1,
      "price": "4683000000000000000000",
      "reserved": "",
      "salt": "0x94d8e532ef7420ea740431bbcd9810db35b87b323e144bb3f76bc83b9908fef0",
      "assetIds": [
        "55464657044963196816950587289035428064568320970692304673817341489687941879808",
        "55464657044963196816950587289035428064568320970692304673817341489687933519880",
        "55464657044963196816950587289035428064568320970692304673817341489687933519882",
        "55464657044963196816950587289035428064568320970692304673817341489687933519886",
        "55464657044963196816950587289035428064568320970692304673817341489687933519883"
      ]
    },
    {
      "x": 171,
      "y": 177,
      "size": 1,
      "price": "4683000000000000000000",
      "reserved": "",
      "salt": "0x003f22768ab7f011efd6d976d2565bad306ce3f81101af8160bac6daf542d94a",
      "assetIds": [
        "55464657044963196816950587289035428064568320970692304673817341489687941879808",
        "55464657044963196816950587289035428064568320970692304673817341489687933519880",
        "55464657044963196816950587289035428064568320970692304673817341489687933519882",
        "55464657044963196816950587289035428064568320970692304673817341489687933519886",
        "55464657044963196816950587289035428064568320970692304673817341489687933519883"
      ]
    },
    {
      "x": 171,
      "y": 178,
      "size": 1,
      "price": "4683000000000000000000",
      "reserved": "",
      "salt": "0x94d441fa8e641774436b71d393007c9bbbf4e378f9b644500c78166598ca0f3c",
      "assetIds": [
        "55464657044963196816950587289035428064568320970692304673817341489687941879808",
        "55464657044963196816950587289035428064568320970692304673817341489687933519880",
        "55464657044963196816950587289035428064568320970692304673817341489687933519882",
        "55464657044963196816950587289035428064568320970692304673817341489687933519886",
        "55464657044963196816950587289035428064568320970692304673817341489687933519883"
      ]
    },
    {
      "x": 171,
      "y": 179,
      "size": 1,
      "price": "4683000000000000000000",
      "reserved": "",
      "salt": "0x16aaef4aca10d8be715b19fa63cc6b00f54c7da8528dc308dffec9d336ecec44",
      "assetIds": [
        "55464657044963196816950587289035428064568320970692304673817341489687933519875",
        "55464657044963196816950587289035428064568320970692304673817341489687933519884",
        "55464657044963196816950587289035428064568320970692304673817341489687941879810",
        "55464657044963196816950587289035428064568320970692304673817341489687933519872",
        "55464657044963196816950587289035428064568320970692304673817341489687933519879",
        "55464657044963196816950587289035428064568320970692304673817341489687933519874"
      ]
    },
    {
      "x": 171,
      "y": 192,
      "size": 1,
      "price": "4683000000000000000000",
      "reserved": "",
      "salt": "0x295f596c13aa9f076811494283d240cc795ae9b12019e7aa60891ce2494d74f1",
      "assetIds": [
        "55464657044963196816950587289035428064568320970692304673817341489687933519878",
        "55464657044963196816950587289035428064568320970692304673817341489687933519885",
        "55464657044963196816950587289035428064568320970692304673817341489687933519888",
        "55464657044963196816950587289035428064568320970692304673817341489687933519877",
        "55464657044963196816950587289035428064568320970692304673817341489687941879809",
        "55464657044963196816950587289035428064568320970692304673817341489687933519881"
      ]
    },
    {
      "x": 171,
      "y": 193,
      "size": 1,
      "price": "1011000000000000000000",
      "reserved": "0x7a9fe22691c811ea339d9b73150e6911a5343dca",
      "salt": "0x05619899f3629d31086d6c9ac1f93466009710a8be831a2106b87edd58754c19",
      "assetIds": []
    },
    {
      "x": 171,
      "y": 194,
      "size": 1,
      "price": "1011000000000000000000",
      "reserved": "",
      "salt": "0xd2a0baff796a6f5a55a3cc340238e154e524fef2d64bf135ab55c875fe2550d1",
      "assetIds": []
    },
    {
      "x": 171,
      "y": 195,
      "size": 1,
      "price": "1011000000000000000000",
      "reserved": "",
      "salt": "0xf4229119b59e41f7ffea30fa3cb029fffcbf082aca5278cbb30225ff2dbfbc0f",
      "assetIds": []
    },
    {
      "x": 171,
      "y": 196,
      "size": 1,
      "price": "1011000000000000000000",
      "reserved": "",
      "salt": "0x820e8fc67f8cc6155938cd8d593c887f84a3b4fd53ead2605d7c8fbfd1a1b9d5",
      "assetIds": []
    },
    {
      "x": 171,
      "y": 197,
      "size": 1,
      "price": "1011000000000000000000",
      "reserved": "",
      "salt": "0xa14d321bab58afdeea37b0a464c3c1187df8fdd149fae8e494b4de565a4cff76",
      "assetIds": []
    },
    {
      "x": 172,
      "y": 162,
      "size": 1,
      "price": "1011000000000000000000",
      "reserved": "",
      "salt": "0x2dcb976a9f8a3364366db01e6fdc40dd8a178edec56d93244a61e3d24cf9a8d1",
      "assetIds": []
    },
    {
      "x": 172,
      "y": 163,
      "size": 1,
      "price": "1011000000000000000000",
      "reserved": "",
      "salt": "0x27cab277df69ce2bccf4d91d74fb3361953a6d1627aaece669e9244f595a49a7",
      "assetIds": []
    },
    {
      "x": 172,
      "y": 164,
      "size": 1,
      "price": "1011000000000000000000",
      "reserved": "",
      "salt": "0xe92d479effad6baf23d0939a59fe887b3840f6caf5d8e869a84ed1d76fdb305c",
      "assetIds": []
    },
    {
      "x": 172,
      "y": 165,
      "size": 1,
      "price": "1011000000000000000000",
      "reserved": "",
      "salt": "0x9ffe8d80eafdfdd5c99c55c095906c081be93c2fb4dea0b9e1065025e0426b5b",
      "assetIds": []
    },
    {
      "x": 172,
      "y": 166,
      "size": 1,
      "price": "1011000000000000000000",
      "reserved": "",
      "salt": "0x6368e516342929177d81f390de449416b8443a0868c8508974d91d9870d82165",
      "assetIds": []
    },
    {
      "x": 172,
      "y": 167,
      "size": 1,
      "price": "4683000000000000000000",
      "reserved": "",
      "salt": "0x013b41e91099f5d2c63c1a96e6774ed392b6fc62ad8bf2400e560580c19ce13c",
      "assetIds": [
        "55464657044963196816950587289035428064568320970692304673817341489687941879808",
        "55464657044963196816950587289035428064568320970692304673817341489687933519880",
        "55464657044963196816950587289035428064568320970692304673817341489687933519882",
        "55464657044963196816950587289035428064568320970692304673817341489687933519886",
        "55464657044963196816950587289035428064568320970692304673817341489687933519883"
      ]
    },
    {
      "x": 172,
      "y": 168,
      "size": 1,
      "price": "4683000000000000000000",
      "reserved": "",
      "salt": "0x7729c3abf07e9407c310dda762c3769268ccb53747cdeeac2b6a6c5304c64064",
      "assetIds": [
        "55464657044963196816950587289035428064568320970692304673817341489687933519878",
        "55464657044963196816950587289035428064568320970692304673817341489687933519885",
        "55464657044963196816950587289035428064568320970692304673817341489687933519888",
        "55464657044963196816950587289035428064568320970692304673817341489687933519877",
        "55464657044963196816950587289035428064568320970692304673817341489687941879809",
        "55464657044963196816950587289035428064568320970692304673817341489687933519881"
      ]
    },
    {
      "x": 172,
      "y": 169,
      "size": 1,
      "price": "4683000000000000000000",
      "reserved": "",
      "salt": "0x0f7ba3c99d8b04a8ea53094b655672010a8bf1484576b34c9e1c2b7b55ff6742",
      "assetIds": [
        "55464657044963196816950587289035428064568320970692304673817341489687933519878",
        "55464657044963196816950587289035428064568320970692304673817341489687933519885",
        "55464657044963196816950587289035428064568320970692304673817341489687933519888",
        "55464657044963196816950587289035428064568320970692304673817341489687933519877",
        "55464657044963196816950587289035428064568320970692304673817341489687941879809",
        "55464657044963196816950587289035428064568320970692304673817341489687933519881"
      ]
    },
    {
      "x": 172,
      "y": 170,
      "size": 1,
      "price": "1011000000000000000000",
      "reserved": "0x7a9fe22691c811ea339d9b73150e6911a5343dca",
      "salt": "0x65e15bd3426da3053bb55d5328bdc489a0275f7899b2a6ca791849f2abc6344c",
      "assetIds": []
    },
    {
      "x": 172,
      "y": 171,
      "size": 1,
      "price": "4683000000000000000000",
      "reserved": "",
      "salt": "0xbaaad94fa45f2d78ebedaf10c89f9121d39996f6add576f456a21b59a934516e",
      "assetIds": [
        "55464657044963196816950587289035428064568320970692304673817341489687941879808",
        "55464657044963196816950587289035428064568320970692304673817341489687933519880",
        "55464657044963196816950587289035428064568320970692304673817341489687933519882",
        "55464657044963196816950587289035428064568320970692304673817341489687933519886",
        "55464657044963196816950587289035428064568320970692304673817341489687933519883"
      ]
    },
    {
      "x": 172,
      "y": 172,
      "size": 1,
      "price": "4683000000000000000000",
      "reserved": "",
      "salt": "0x5c2bf866a08dcfb933bb1115ebc662af878b64d71673a0ede9db34f33b2e0aac",
      "assetIds": [
        "55464657044963196816950587289035428064568320970692304673817341489687941879808",
        "55464657044963196816950587289035428064568320970692304673817341489687933519880",
        "55464657044963196816950587289035428064568320970692304673817341489687933519882",
        "55464657044963196816950587289035428064568320970692304673817341489687933519886",
        "55464657044963196816950587289035428064568320970692304673817341489687933519883"
      ]
    },
    {
      "x": 172,
      "y": 173,
      "size": 1,
      "price": "4683000000000000000000",
      "reserved": "",
      "salt": "0x25acdab2aa8ff3011b195b9f4b318dc778d47a524bceb7fdde2e92062da0dba1",
      "assetIds": [
        "55464657044963196816950587289035428064568320970692304673817341489687933519878",
        "55464657044963196816950587289035428064568320970692304673817341489687933519885",
        "55464657044963196816950587289035428064568320970692304673817341489687933519888",
        "55464657044963196816950587289035428064568320970692304673817341489687933519877",
        "55464657044963196816950587289035428064568320970692304673817341489687941879809",
        "55464657044963196816950587289035428064568320970692304673817341489687933519881"
      ]
    },
    {
      "x": 172,
      "y": 174,
      "size": 1,
      "price": "4683000000000000000000",
      "reserved": "",
      "salt": "0x2659784040f15c66b33a37e925605f727a7341483586c6347d6ed20dbc305813",
      "assetIds": [
        "55464657044963196816950587289035428064568320970692304673817341489687941879808",
        "55464657044963196816950587289035428064568320970692304673817341489687933519880",
        "55464657044963196816950587289035428064568320970692304673817341489687933519882",
        "55464657044963196816950587289035428064568320970692304673817341489687933519886",
        "55464657044963196816950587289035428064568320970692304673817341489687933519883"
      ]
    },
    {
      "x": 172,
      "y": 175,
      "size": 1,
      "price": "4683000000000000000000",
      "reserved": "",
      "salt": "0x967168ae2826777e6172f3f6e12933b4103687fbeb54aa78f9e4b5a47ffc7611",
      "assetIds": [
        "55464657044963196816950587289035428064568320970692304673817341489687941879808",
        "55464657044963196816950587289035428064568320970692304673817341489687933519880",
        "55464657044963196816950587289035428064568320970692304673817341489687933519882",
        "55464657044963196816950587289035428064568320970692304673817341489687933519886",
        "55464657044963196816950587289035428064568320970692304673817341489687933519883"
      ]
    },
    {
      "x": 172,
      "y": 176,
      "size": 1,
      "price": "4683000000000000000000",
      "reserved": "",
      "salt": "0x824cadec19ab2412d03719647183db2bc2965e79e11763c4b27b566a90d1a0cc",
      "assetIds": [
        "55464657044963196816950587289035428064568320970692304673817341489687933519875",
        "55464657044963196816950587289035428064568320970692304673817341489687933519884",
        "55464657044963196816950587289035428064568320970692304673817341489687941879810",
        "55464657044963196816950587289035428064568320970692304673817341489687933519872",
        "55464657044963196816950587289035428064568320970692304673817341489687933519879",
        "55464657044963196816950587289035428064568320970692304673817341489687933519874"
      ]
    },
    {
      "x": 172,
      "y": 177,
      "size": 1,
      "price": "4683000000000000000000",
      "reserved": "",
      "salt": "0xe5d2c2037bd7f8ca9e9245507d89153a0529ad4989eb903f02d628fbe80f54e9",
      "assetIds": [
        "55464657044963196816950587289035428064568320970692304673817341489687933519875",
        "55464657044963196816950587289035428064568320970692304673817341489687933519884",
        "55464657044963196816950587289035428064568320970692304673817341489687941879810",
        "55464657044963196816950587289035428064568320970692304673817341489687933519872",
        "55464657044963196816950587289035428064568320970692304673817341489687933519879",
        "55464657044963196816950587289035428064568320970692304673817341489687933519874"
      ]
    },
    {
      "x": 172,
      "y": 178,
      "size": 1,
      "price": "4683000000000000000000",
      "reserved": "",
      "salt": "0x9d71a4dfb8cd15ee5380ef850313b286d0a5964454146d085133958ad488bd13",
      "assetIds": [
        "55464657044963196816950587289035428064568320970692304673817341489687933519875",
        "55464657044963196816950587289035428064568320970692304673817341489687933519884",
        "55464657044963196816950587289035428064568320970692304673817341489687941879810",
        "55464657044963196816950587289035428064568320970692304673817341489687933519872",
        "55464657044963196816950587289035428064568320970692304673817341489687933519879",
        "55464657044963196816950587289035428064568320970692304673817341489687933519874"
      ]
    },
    {
      "x": 172,
      "y": 179,
      "size": 1,
      "price": "4683000000000000000000",
      "reserved": "",
      "salt": "0x34521d3f5ce91d7a325f5acd0e7a30b9d23676f02baac4b0c7e88faa13b2f672",
      "assetIds": [
        "55464657044963196816950587289035428064568320970692304673817341489687933519875",
        "55464657044963196816950587289035428064568320970692304673817341489687933519884",
        "55464657044963196816950587289035428064568320970692304673817341489687941879810",
        "55464657044963196816950587289035428064568320970692304673817341489687933519872",
        "55464657044963196816950587289035428064568320970692304673817341489687933519879",
        "55464657044963196816950587289035428064568320970692304673817341489687933519874"
      ]
    },
    {
      "x": 172,
      "y": 192,
      "size": 1,
      "price": "4683000000000000000000",
      "reserved": "",
      "salt": "0x354ef6e66882c9e17fa6d3f3d6a616a361f4946b5052688744c2cbdeb969c82b",
      "assetIds": [
        "55464657044963196816950587289035428064568320970692304673817341489687933519875",
        "55464657044963196816950587289035428064568320970692304673817341489687933519884",
        "55464657044963196816950587289035428064568320970692304673817341489687941879810",
        "55464657044963196816950587289035428064568320970692304673817341489687933519872",
        "55464657044963196816950587289035428064568320970692304673817341489687933519879",
        "55464657044963196816950587289035428064568320970692304673817341489687933519874"
      ]
    },
    {
      "x": 172,
      "y": 193,
      "size": 1,
      "price": "1011000000000000000000",
      "reserved": "",
      "salt": "0xf1ec0be7b86bb51c3545fb5b3ef40812759309fbad836373d540c1a47dbbb28d",
      "assetIds": []
    },
    {
      "x": 172,
      "y": 194,
      "size": 1,
      "price": "1011000000000000000000",
      "reserved": "",
      "salt": "0x5d5f692c3a42d415907e5bb09043328e25118fa5d2e4b7540282592ba4018526",
      "assetIds": []
    },
    {
      "x": 172,
      "y": 195,
      "size": 1,
      "price": "1011000000000000000000",
      "reserved": "",
      "salt": "0x7e1ee3fb66458b44309f93c4214a7384cb54a4f5dd4f3c55a63626f1bd28707c",
      "assetIds": []
    },
    {
      "x": 172,
      "y": 196,
      "size": 1,
      "price": "1011000000000000000000",
      "reserved": "",
      "salt": "0x1e3b4b96b8e8e6548b1f127907486de2d8e328c693913168a30afbc13abb3f1a",
      "assetIds": []
    },
    {
      "x": 172,
      "y": 197,
      "size": 1,
      "price": "1011000000000000000000",
      "reserved": "",
      "salt": "0x3f19871e734047af1252282c3c9edcf33dc0855f74e1db01764ebdc6f5989027",
      "assetIds": []
    },
    {
      "x": 173,
      "y": 162,
      "size": 1,
      "price": "1011000000000000000000",
      "reserved": "",
      "salt": "0x6c017cd8c1ce9e414a143ed9fa68639f3f36027544c8e909255b2a47e9c94dc1",
      "assetIds": []
    },
    {
      "x": 173,
      "y": 163,
      "size": 1,
      "price": "1011000000000000000000",
      "reserved": "",
      "salt": "0x7ca197331cb35b30b0624ece96ce5e6deecb2268605087b1a745b4dc89429d50",
      "assetIds": []
    },
    {
      "x": 173,
      "y": 164,
      "size": 1,
      "price": "1011000000000000000000",
      "reserved": "",
      "salt": "0x4c0900261b6137e021a5fc11de93ddcfbf7827d50a64b807bcc60a77b248d592",
      "assetIds": []
    },
    {
      "x": 173,
      "y": 165,
      "size": 1,
      "price": "1011000000000000000000",
      "reserved": "",
      "salt": "0xf04623476ecee13c673eceea99e0c0e90cceb8b8702467662e22f4c839184241",
      "assetIds": []
    },
    {
      "x": 173,
      "y": 166,
      "size": 1,
      "price": "1011000000000000000000",
      "reserved": "",
      "salt": "0x259477a235683d9a506598f2a89f45584003c76028a317ce501b56e5fd41e78e",
      "assetIds": []
    },
    {
      "x": 173,
      "y": 167,
      "size": 1,
      "price": "1011000000000000000000",
      "reserved": "",
      "salt": "0x972a6479b530e4f72521bacb9937cd3ee75fe1a8ae175d10b01f5191ddb02d89",
      "assetIds": []
    },
    {
      "x": 173,
      "y": 168,
      "size": 1,
      "price": "4683000000000000000000",
      "reserved": "",
      "salt": "0x0747b2baa4c5e3f5a7ca82436db37f83be66fc801c906d045aaa98c064e4271a",
      "assetIds": [
        "55464657044963196816950587289035428064568320970692304673817341489687933519878",
        "55464657044963196816950587289035428064568320970692304673817341489687933519885",
        "55464657044963196816950587289035428064568320970692304673817341489687933519888",
        "55464657044963196816950587289035428064568320970692304673817341489687933519877",
        "55464657044963196816950587289035428064568320970692304673817341489687941879809",
        "55464657044963196816950587289035428064568320970692304673817341489687933519881"
      ]
    },
    {
      "x": 173,
      "y": 169,
      "size": 1,
      "price": "4683000000000000000000",
      "reserved": "",
      "salt": "0xd12ff9775b3e575783d73a20560e839f0107465d785845d032f80141555d180f",
      "assetIds": [
        "55464657044963196816950587289035428064568320970692304673817341489687941879808",
        "55464657044963196816950587289035428064568320970692304673817341489687933519880",
        "55464657044963196816950587289035428064568320970692304673817341489687933519882",
        "55464657044963196816950587289035428064568320970692304673817341489687933519886",
        "55464657044963196816950587289035428064568320970692304673817341489687933519883"
      ]
    },
    {
      "x": 173,
      "y": 170,
      "size": 1,
      "price": "4683000000000000000000",
      "reserved": "",
      "salt": "0x5c22a556b07c0397789a8d221b7d082f58136d6d2ec3fb0b63f32630ac888f28",
      "assetIds": [
        "55464657044963196816950587289035428064568320970692304673817341489687933519878",
        "55464657044963196816950587289035428064568320970692304673817341489687933519885",
        "55464657044963196816950587289035428064568320970692304673817341489687933519888",
        "55464657044963196816950587289035428064568320970692304673817341489687933519877",
        "55464657044963196816950587289035428064568320970692304673817341489687941879809",
        "55464657044963196816950587289035428064568320970692304673817341489687933519881"
      ]
    },
    {
      "x": 173,
      "y": 171,
      "size": 1,
      "price": "4683000000000000000000",
      "reserved": "",
      "salt": "0x7b5d91a9d896830c3fe014123a412dd89272b80a8a56f951311c06ad1a95f510",
      "assetIds": [
        "55464657044963196816950587289035428064568320970692304673817341489687941879808",
        "55464657044963196816950587289035428064568320970692304673817341489687933519880",
        "55464657044963196816950587289035428064568320970692304673817341489687933519882",
        "55464657044963196816950587289035428064568320970692304673817341489687933519886",
        "55464657044963196816950587289035428064568320970692304673817341489687933519883"
      ]
    },
    {
      "x": 173,
      "y": 172,
      "size": 1,
      "price": "4683000000000000000000",
      "reserved": "",
      "salt": "0xb253d661e4709a39b597ffe36c1fd8120cfe29b17961fe724c1b94fb61a0d708",
      "assetIds": [
        "55464657044963196816950587289035428064568320970692304673817341489687933519878",
        "55464657044963196816950587289035428064568320970692304673817341489687933519885",
        "55464657044963196816950587289035428064568320970692304673817341489687933519888",
        "55464657044963196816950587289035428064568320970692304673817341489687933519877",
        "55464657044963196816950587289035428064568320970692304673817341489687941879809",
        "55464657044963196816950587289035428064568320970692304673817341489687933519881"
      ]
    },
    {
      "x": 173,
      "y": 173,
      "size": 1,
      "price": "4683000000000000000000",
      "reserved": "",
      "salt": "0xd7f6cc26e199a1ea5ea9ab693ef993062978309e99f8ebae515bc7d7a1cac31a",
      "assetIds": [
        "55464657044963196816950587289035428064568320970692304673817341489687933519878",
        "55464657044963196816950587289035428064568320970692304673817341489687933519885",
        "55464657044963196816950587289035428064568320970692304673817341489687933519888",
        "55464657044963196816950587289035428064568320970692304673817341489687933519877",
        "55464657044963196816950587289035428064568320970692304673817341489687941879809",
        "55464657044963196816950587289035428064568320970692304673817341489687933519881"
      ]
    },
    {
      "x": 173,
      "y": 174,
      "size": 1,
      "price": "4683000000000000000000",
      "reserved": "",
      "salt": "0x5f758d978aa2af490faec8e763d22cb034b3c967c45ed57520f273045111ba69",
      "assetIds": [
        "55464657044963196816950587289035428064568320970692304673817341489687933519875",
        "55464657044963196816950587289035428064568320970692304673817341489687933519884",
        "55464657044963196816950587289035428064568320970692304673817341489687941879810",
        "55464657044963196816950587289035428064568320970692304673817341489687933519872",
        "55464657044963196816950587289035428064568320970692304673817341489687933519879",
        "55464657044963196816950587289035428064568320970692304673817341489687933519874"
      ]
    },
    {
      "x": 173,
      "y": 175,
      "size": 1,
      "price": "4683000000000000000000",
      "reserved": "",
      "salt": "0xe7b9ef8473ec8d91f146cea97856caa11ec07a931c377546b08530ec5d249603",
      "assetIds": [
        "55464657044963196816950587289035428064568320970692304673817341489687941879808",
        "55464657044963196816950587289035428064568320970692304673817341489687933519880",
        "55464657044963196816950587289035428064568320970692304673817341489687933519882",
        "55464657044963196816950587289035428064568320970692304673817341489687933519886",
        "55464657044963196816950587289035428064568320970692304673817341489687933519883"
      ]
    },
    {
      "x": 173,
      "y": 176,
      "size": 1,
      "price": "1011000000000000000000",
      "reserved": "0x7a9fe22691c811ea339d9b73150e6911a5343dca",
      "salt": "0x9d1e9321242ad2d537bc7ab9c21b99e89851dd42bde37bcbcc6cd78b0966a035",
      "assetIds": []
    },
    {
      "x": 173,
      "y": 177,
      "size": 1,
      "price": "1011000000000000000000",
      "reserved": "0x7a9fe22691c811ea339d9b73150e6911a5343dca",
      "salt": "0xd9461f93b7820a67a05856be1a69e2a214a04c51037246e3d9406f3009848d08",
      "assetIds": []
    },
    {
      "x": 173,
      "y": 178,
      "size": 1,
      "price": "4683000000000000000000",
      "reserved": "",
      "salt": "0x32ab27e06006f43a914628d99e7fa1950ee959afd4d591d6cffa7b0dd2647808",
      "assetIds": [
        "55464657044963196816950587289035428064568320970692304673817341489687933519875",
        "55464657044963196816950587289035428064568320970692304673817341489687933519884",
        "55464657044963196816950587289035428064568320970692304673817341489687941879810",
        "55464657044963196816950587289035428064568320970692304673817341489687933519872",
        "55464657044963196816950587289035428064568320970692304673817341489687933519879",
        "55464657044963196816950587289035428064568320970692304673817341489687933519874"
      ]
    },
    {
      "x": 173,
      "y": 179,
      "size": 1,
      "price": "4683000000000000000000",
      "reserved": "",
      "salt": "0x3033c95e64b0b96c7f8555bc64612da9702127be15009d2e65de37306a88c986",
      "assetIds": [
        "55464657044963196816950587289035428064568320970692304673817341489687933519878",
        "55464657044963196816950587289035428064568320970692304673817341489687933519885",
        "55464657044963196816950587289035428064568320970692304673817341489687933519888",
        "55464657044963196816950587289035428064568320970692304673817341489687933519877",
        "55464657044963196816950587289035428064568320970692304673817341489687941879809",
        "55464657044963196816950587289035428064568320970692304673817341489687933519881"
      ]
    },
    {
      "x": 173,
      "y": 192,
      "size": 1,
      "price": "1011000000000000000000",
      "reserved": "0x7a9fe22691c811ea339d9b73150e6911a5343dca",
      "salt": "0x6ab3bccd160ebcf20cf78fd60265a81e68d401284c4fcbedd91a99f034e01cca",
      "assetIds": []
    },
    {
      "x": 173,
      "y": 193,
      "size": 1,
      "price": "1011000000000000000000",
      "reserved": "",
      "salt": "0xb21eab9318b1ee338aa951a1396f9b98e267dd920361d8a5c2dc8c908efae3aa",
      "assetIds": []
    },
    {
      "x": 173,
      "y": 194,
      "size": 1,
      "price": "1011000000000000000000",
      "reserved": "",
      "salt": "0xc252beff52cdedfb08336181a8ac4d8023ccf8fa01edae724ffb843ef88b1cb2",
      "assetIds": []
    },
    {
      "x": 173,
      "y": 195,
      "size": 1,
      "price": "1011000000000000000000",
      "reserved": "0x7a9fe22691c811ea339d9b73150e6911a5343dca",
      "salt": "0x4db4fc85b88b5920a14e64165bd29f244e5d7dc17eaf73e23d19ca8f084569b3",
      "assetIds": []
    },
    {
      "x": 173,
      "y": 196,
      "size": 1,
      "price": "1011000000000000000000",
      "reserved": "",
      "salt": "0x4775d68d1f9f87910ed96beafa579dfba9008d6fc8aed70ff1375441b37f6194",
      "assetIds": []
    },
    {
      "x": 173,
      "y": 197,
      "size": 1,
      "price": "1011000000000000000000",
      "reserved": "0x7a9fe22691c811ea339d9b73150e6911a5343dca",
      "salt": "0x256f2e86107bc49e2f95a9b197fc0399915af656ba574573a005b6abe80c25f5",
      "assetIds": []
    },
    {
      "x": 174,
      "y": 162,
      "size": 1,
      "price": "1011000000000000000000",
      "reserved": "",
      "salt": "0xafa70f88b3d683d2773aef59a5939748af1b5ab33dd6f6ddf1882a04f294c345",
      "assetIds": []
    },
    {
      "x": 174,
      "y": 163,
      "size": 1,
      "price": "1011000000000000000000",
      "reserved": "",
      "salt": "0xa50069b3f15d8bc3dc407051041d265bbb9744a7dba33a1d2a685721cf98b955",
      "assetIds": []
    },
    {
      "x": 174,
      "y": 164,
      "size": 1,
      "price": "1011000000000000000000",
      "reserved": "",
      "salt": "0x8228882df0ca255a00974d782bd518ec7d7233b7cf877bb3f2416d3ad578530a",
      "assetIds": []
    },
    {
      "x": 174,
      "y": 165,
      "size": 1,
      "price": "1011000000000000000000",
      "reserved": "",
      "salt": "0x76dfe1aa5f991f33b57e99b306a5c18c64f6e81913f543903dbced3266d79375",
      "assetIds": []
    },
    {
      "x": 174,
      "y": 166,
      "size": 1,
      "price": "1011000000000000000000",
      "reserved": "",
      "salt": "0xaaa8e22db193319a9fc68401bc87e1784a888f1d759572701fa319f59ca905dc",
      "assetIds": []
    },
    {
      "x": 174,
      "y": 167,
      "size": 1,
      "price": "1011000000000000000000",
      "reserved": "",
      "salt": "0xaa26bbe1e64573f072f426886f8e4235ff56b4755ccb474099e3efea0ea62ef2",
      "assetIds": []
    },
    {
      "x": 174,
      "y": 168,
      "size": 1,
      "price": "1011000000000000000000",
      "reserved": "0x7a9fe22691c811ea339d9b73150e6911a5343dca",
      "salt": "0x652d1f1793426be6c8922a16c1757a77016427d4f2dc905a0681e944da0a31e5",
      "assetIds": []
    },
    {
      "x": 174,
      "y": 169,
      "size": 1,
      "price": "1011000000000000000000",
      "reserved": "",
      "salt": "0xf0bee9b79fa2371fa110937b8f8ef5f983ef27cbe21ab08f5b9777a6c05b7f6e",
      "assetIds": []
    },
    {
      "x": 174,
      "y": 170,
      "size": 1,
      "price": "1011000000000000000000",
      "reserved": "",
      "salt": "0x5607bf12f1bcbc36b4281ad0f2d586def495c017d7ac87262c639e6a223ea710",
      "assetIds": []
    },
    {
      "x": 174,
      "y": 171,
      "size": 1,
      "price": "1011000000000000000000",
      "reserved": "",
      "salt": "0x25629fe05aa92e6535a406ffc56e7d9ef8ebbc22d23192e311063554e1cd307e",
      "assetIds": []
    },
    {
      "x": 174,
      "y": 172,
      "size": 1,
      "price": "1011000000000000000000",
      "reserved": "",
      "salt": "0x23230aabb053f6bef387854d43267b42f3d4ddec2646b8674b2d5389881635cb",
      "assetIds": []
    },
    {
      "x": 174,
      "y": 173,
      "size": 1,
      "price": "1011000000000000000000",
      "reserved": "",
      "salt": "0x1863b178ed9d49fd20bd65ca6199d5238f61a84e0ee07600d89077f7f6d58896",
      "assetIds": []
    },
    {
      "x": 174,
      "y": 192,
      "size": 1,
      "price": "1011000000000000000000",
      "reserved": "",
      "salt": "0xd6334e96ecdda01d3eefbb2d046e77c36ed0da7185bac5a26b5d7864ebc75f17",
      "assetIds": []
    },
    {
      "x": 174,
      "y": 193,
      "size": 1,
      "price": "1011000000000000000000",
      "reserved": "",
      "salt": "0x110862e2b5e2d8f7a0f32b89e9660accca759b992e346dd2f6c63c36a07708e9",
      "assetIds": []
    },
    {
      "x": 174,
      "y": 194,
      "size": 1,
      "price": "1011000000000000000000",
      "reserved": "",
      "salt": "0x3c1e821f2e5297a742226a9c349f2acfdb7187644f1303d5c1ff4a538b4f1ff8",
      "assetIds": []
    },
    {
      "x": 174,
      "y": 195,
      "size": 1,
      "price": "1011000000000000000000",
      "reserved": "",
      "salt": "0x8e6596db9b97273927950a4bdcf4806e2b99239e5ec74b21301687b457da4d6b",
      "assetIds": []
    },
    {
      "x": 174,
      "y": 196,
      "size": 1,
      "price": "1011000000000000000000",
      "reserved": "",
      "salt": "0xb9433b219dc3a1742c01e1efd74cf91736f972c8398787cc9df636d997a09c1a",
      "assetIds": []
    },
    {
      "x": 174,
      "y": 197,
      "size": 1,
      "price": "1011000000000000000000",
      "reserved": "",
      "salt": "0x8cda2a9328850ccfbdbd6af56735bbc3cf33f741202b07f0484d3737dbdf6daf",
      "assetIds": []
    },
    {
      "x": 175,
      "y": 162,
      "size": 1,
      "price": "1011000000000000000000",
      "reserved": "",
      "salt": "0x93c2811483f64155e2627b744897d5733362edefb45892b2ccf60367c9137217",
      "assetIds": []
    },
    {
      "x": 175,
      "y": 163,
      "size": 1,
      "price": "1011000000000000000000",
      "reserved": "",
      "salt": "0x29db24fd49ae473191da677686d92b8b2b732e8e6361e69f193dae78e3cee1bd",
      "assetIds": []
    },
    {
      "x": 175,
      "y": 164,
      "size": 1,
      "price": "1011000000000000000000",
      "reserved": "",
      "salt": "0xf550116ae5f93df33d0e8f57a01d936c5d88d6170231983641da5caedf721a20",
      "assetIds": []
    },
    {
      "x": 175,
      "y": 165,
      "size": 1,
      "price": "1011000000000000000000",
      "reserved": "0x7a9fe22691c811ea339d9b73150e6911a5343dca",
      "salt": "0x03f84cb243ac53cdcefd16333cdaf87a5d7080c05a33d3c59ebefcb4490925cf",
      "assetIds": []
    },
    {
      "x": 175,
      "y": 166,
      "size": 1,
      "price": "1011000000000000000000",
      "reserved": "",
      "salt": "0xb32950cce1fd5e8cb12ff5d354e0dbb403130450475dce64856b19f79a48bf7d",
      "assetIds": []
    },
    {
      "x": 175,
      "y": 167,
      "size": 1,
      "price": "1011000000000000000000",
      "reserved": "",
      "salt": "0x5c3ddb3e7d9ee91576f16d980247a0ae3f30ddb5d1395f0634425f75d2fcefc1",
      "assetIds": []
    },
    {
      "x": 175,
      "y": 168,
      "size": 1,
      "price": "1011000000000000000000",
      "reserved": "",
      "salt": "0xf6cfc1beb9b73a5f23607c32d53c2ab14a9f7f551da32180d147ad7d91cd6221",
      "assetIds": []
    },
    {
      "x": 175,
      "y": 169,
      "size": 1,
      "price": "1011000000000000000000",
      "reserved": "",
      "salt": "0x751fd9ff8494aa82ecdea764be43c4354d7b72f7d050bde2af33e8054e53bcea",
      "assetIds": []
    },
    {
      "x": 175,
      "y": 170,
      "size": 1,
      "price": "1011000000000000000000",
      "reserved": "",
      "salt": "0x74acd3827edc71503433bf6a741a7c53c1f6419082073277b840df0b87cea689",
      "assetIds": []
    },
    {
      "x": 175,
      "y": 171,
      "size": 1,
      "price": "1011000000000000000000",
      "reserved": "",
      "salt": "0x31d76297cb52390ee88b0b12608adf7a2d4656618a69a1ba1f0e4057184eb01c",
      "assetIds": []
    },
    {
      "x": 175,
      "y": 172,
      "size": 1,
      "price": "1011000000000000000000",
      "reserved": "",
      "salt": "0xa333108b4a1db2fcf0c6972006f03093aa7b8204ce021a93a74ce3d002fbd789",
      "assetIds": []
    },
    {
      "x": 175,
      "y": 173,
      "size": 1,
      "price": "1011000000000000000000",
      "reserved": "0x7a9fe22691c811ea339d9b73150e6911a5343dca",
      "salt": "0x5770b10d9b204caf09e1c8cc8817efe8de68e04dd75b6ec7a25a2caa7dcf3cc7",
      "assetIds": []
    },
    {
      "x": 175,
      "y": 192,
      "size": 1,
      "price": "1011000000000000000000",
      "reserved": "",
      "salt": "0x79a6b28b3e2ac153e26d6903091377e535eb8a7afc00d24c04a5aa363ffe11b3",
      "assetIds": []
    },
    {
      "x": 175,
      "y": 193,
      "size": 1,
      "price": "1011000000000000000000",
      "reserved": "",
      "salt": "0x8892089ed5563cf231db039cce0366006f9bc9c18d84e00140778f1e773c1c74",
      "assetIds": []
    },
    {
      "x": 175,
      "y": 194,
      "size": 1,
      "price": "1011000000000000000000",
      "reserved": "0x7a9fe22691c811ea339d9b73150e6911a5343dca",
      "salt": "0x1740fa87ec156b9767731400c57e812a27a67d9a5f655449423aa474802453b3",
      "assetIds": []
    },
    {
      "x": 175,
      "y": 195,
      "size": 1,
      "price": "1011000000000000000000",
      "reserved": "",
      "salt": "0x64ac3fbd0395949912a768a9d416b6eb8c1dc15a189ac3d4548d381204521a1c",
      "assetIds": []
    },
    {
      "x": 175,
      "y": 196,
      "size": 1,
      "price": "1011000000000000000000",
      "reserved": "",
      "salt": "0xcb66f135fd282a650e01f3d36593c43486964cf6192126ef5a0883dce6f17476",
      "assetIds": []
    },
    {
      "x": 175,
      "y": 197,
      "size": 1,
      "price": "1011000000000000000000",
      "reserved": "",
      "salt": "0x8ad632790cdaa5ef1a6384591ac61a0b029a5165247965f7fd053de20672b207",
      "assetIds": []
    },
    {
      "x": 176,
      "y": 162,
      "size": 1,
      "price": "1011000000000000000000",
      "reserved": "",
      "salt": "0xdc8f326b658c4465554bec0bb10cd14b5bc787c4ecf16892a6e41975414a4b2c",
      "assetIds": []
    },
    {
      "x": 176,
      "y": 163,
      "size": 1,
      "price": "1011000000000000000000",
      "reserved": "",
      "salt": "0x2659a175b1a8af26f1cba3f7631c5ac05c6e066a3b2029ac379a195d9c9f9e89",
      "assetIds": []
    },
    {
      "x": 176,
      "y": 164,
      "size": 1,
      "price": "1011000000000000000000",
      "reserved": "",
      "salt": "0x333b75be4d47c2274d2ab8c3415fe9081813c3bc1a2378b59f8b84a583b503f0",
      "assetIds": []
    },
    {
      "x": 176,
      "y": 165,
      "size": 1,
      "price": "1011000000000000000000",
      "reserved": "",
      "salt": "0x17a96f7bfbcb74adb0a9abe0c5335f057c655e656f732f3c8ffff48f75cf5206",
      "assetIds": []
    },
    {
      "x": 176,
      "y": 166,
      "size": 1,
      "price": "1011000000000000000000",
      "reserved": "",
      "salt": "0x20db1f565f7bc98d509cdea73d402e718a40287bee7b5dbfc49ceff9574f64d7",
      "assetIds": []
    },
    {
      "x": 176,
      "y": 167,
      "size": 1,
      "price": "1011000000000000000000",
      "reserved": "",
      "salt": "0x3678b9b47cfbd07126b6a4cf203e30ba45c418b7223d3525ced4fbe29612599a",
      "assetIds": []
    },
    {
      "x": 176,
      "y": 168,
      "size": 1,
      "price": "1011000000000000000000",
      "reserved": "",
      "salt": "0x20b25f85fd23a95b4f433c37c6da49b5a7452518e40eae63b1effe16059e38ae",
      "assetIds": []
    },
    {
      "x": 176,
      "y": 169,
      "size": 1,
      "price": "1011000000000000000000",
      "reserved": "",
      "salt": "0x82bd4804eb334d9a97e9036bcf7c3c52fbb220c424a1e67390797f78c2b1622d",
      "assetIds": []
    },
    {
      "x": 176,
      "y": 170,
      "size": 1,
      "price": "1011000000000000000000",
      "reserved": "",
      "salt": "0x25a38ec4fe69240b2de51e41c5c0962a4113b1f0f601328ddb83d0514578f3eb",
      "assetIds": []
    },
    {
      "x": 176,
      "y": 171,
      "size": 1,
      "price": "1011000000000000000000",
      "reserved": "",
      "salt": "0xb11742f3bc28ca04511783ca944b452a473718c8e98b078b928a528867465bfe",
      "assetIds": []
    },
    {
      "x": 176,
      "y": 172,
      "size": 1,
      "price": "1011000000000000000000",
      "reserved": "",
      "salt": "0x8e0b939250c3b251a5b6fbd1663b6870f3472654c49193ea220979f1d3095527",
      "assetIds": []
    },
    {
      "x": 176,
      "y": 173,
      "size": 1,
      "price": "1011000000000000000000",
      "reserved": "",
      "salt": "0x4ec5d34e4655240f3a364657a4951973bae219e09638762a71c0655cb5d8efc0",
      "assetIds": []
    },
    {
      "x": 176,
      "y": 192,
      "size": 1,
      "price": "1011000000000000000000",
      "reserved": "",
      "salt": "0x7a996b6e5ff8dbd6009008316046029522d9f2d929b82547023bd4bdd3d76cc9",
      "assetIds": []
    },
    {
      "x": 176,
      "y": 193,
      "size": 1,
      "price": "1011000000000000000000",
      "reserved": "",
      "salt": "0x10f37f3a0307fc777f0b652eaaa776657a8bdd8240ecd0f5a2d3915983a7ffa1",
      "assetIds": []
    },
    {
      "x": 176,
      "y": 194,
      "size": 1,
      "price": "1011000000000000000000",
      "reserved": "",
      "salt": "0x6ad5dee7bdf173b834fc45ceed72e7fdaabe66e95e5cae32d037643eab1ab5a5",
      "assetIds": []
    },
    {
      "x": 176,
      "y": 195,
      "size": 1,
      "price": "1011000000000000000000",
      "reserved": "",
      "salt": "0xc88078d76d6da83b386c61034be88bfde74e3255f42bdf6dac04f6ecde05bfc5",
      "assetIds": []
    },
    {
      "x": 176,
      "y": 196,
      "size": 1,
      "price": "1011000000000000000000",
      "reserved": "",
      "salt": "0xf085da78dbfb62a3499eb6654403d7eeadc659f9978e102d7e0884450f9ee592",
      "assetIds": []
    },
    {
      "x": 176,
      "y": 197,
      "size": 1,
      "price": "1011000000000000000000",
      "reserved": "",
      "salt": "0x05ef9ccfe9ab398359f1a4712463f85d4b8fb4ec0c65d690810e361b69e5d8cc",
      "assetIds": []
    },
    {
      "x": 177,
      "y": 162,
      "size": 1,
      "price": "1011000000000000000000",
      "reserved": "",
      "salt": "0xe04668fa5fcac7a5abdf24f22dd38931e056f9153c01bd3034e82ca0dbebb8d6",
      "assetIds": []
    },
    {
      "x": 177,
      "y": 163,
      "size": 1,
      "price": "1011000000000000000000",
      "reserved": "",
      "salt": "0xe9481ab3bdcfd8e787114d659045ea55d84cce44816af94e7c04e83c59551798",
      "assetIds": []
    },
    {
      "x": 177,
      "y": 164,
      "size": 1,
      "price": "1011000000000000000000",
      "reserved": "",
      "salt": "0xf87de31a51a8367df32b800631ca6496de1d3fd1003966364ad02f5b520d9c9f",
      "assetIds": []
    },
    {
      "x": 177,
      "y": 165,
      "size": 1,
      "price": "1011000000000000000000",
      "reserved": "",
      "salt": "0x167f891f5bd97b0d5de95f122212fea04a24702e896ef81bf59bf08b541f1690",
      "assetIds": []
    },
    {
      "x": 177,
      "y": 166,
      "size": 1,
      "price": "1011000000000000000000",
      "reserved": "",
      "salt": "0x42973a9694de454819f428d635e48526fdad431423949f84e2498a70dbdea879",
      "assetIds": []
    },
    {
      "x": 177,
      "y": 167,
      "size": 1,
      "price": "1011000000000000000000",
      "reserved": "",
      "salt": "0x98b1f9426f958d98474eef5fc15c910e8484da95ba97abdbe4015a1151088702",
      "assetIds": []
    },
    {
      "x": 177,
      "y": 168,
      "size": 1,
      "price": "1011000000000000000000",
      "reserved": "",
      "salt": "0xc8634333401a47e7822900981baddced0240b076db99464668f8e90f0ab9571b",
      "assetIds": []
    },
    {
      "x": 177,
      "y": 169,
      "size": 1,
      "price": "1011000000000000000000",
      "reserved": "",
      "salt": "0xce950708f5ebb47cbe5a86fc57f0e57cc55a2868667ac71dc520fa4cfcfc0cb9",
      "assetIds": []
    },
    {
      "x": 177,
      "y": 170,
      "size": 1,
      "price": "1011000000000000000000",
      "reserved": "",
      "salt": "0xce2df3acc735535ed33aa52cb7aa5317f7479b92f7ba4b9d89c85549fe61d15c",
      "assetIds": []
    },
    {
      "x": 177,
      "y": 171,
      "size": 1,
      "price": "1011000000000000000000",
      "reserved": "",
      "salt": "0x7fbc8f72b263d0148779cadf89a8affa30456e1d4d2c62f850b74d65f9aed32e",
      "assetIds": []
    },
    {
      "x": 177,
      "y": 172,
      "size": 1,
      "price": "1011000000000000000000",
      "reserved": "",
      "salt": "0xf1f2ded6c922c970e9e800586fc31d9e88edb07c4654f473a6c3ff16b4ba0c1c",
      "assetIds": []
    },
    {
      "x": 177,
      "y": 173,
      "size": 1,
      "price": "1011000000000000000000",
      "reserved": "",
      "salt": "0xa2d939ba0028805c188f96d472114b8ff925d9784bb6e866ea67b52b7a0e45ce",
      "assetIds": []
    },
    {
      "x": 177,
      "y": 192,
      "size": 1,
      "price": "1011000000000000000000",
      "reserved": "",
      "salt": "0x8a7ad6f0b7bb3d146cd057fd1805e96e87fe6160aa7a3dea9aa53d48459308b7",
      "assetIds": []
    },
    {
      "x": 177,
      "y": 193,
      "size": 1,
      "price": "1011000000000000000000",
      "reserved": "",
      "salt": "0xe00480684433bfe9ecdd3a701a569a5a9a0c7c9014846081f551700326bb3fd9",
      "assetIds": []
    },
    {
      "x": 177,
      "y": 194,
      "size": 1,
      "price": "1011000000000000000000",
      "reserved": "",
      "salt": "0x3d0ccde13ebf5dda706c536ad40bc02df5342730c9df3c94cf1b1bef4119a94f",
      "assetIds": []
    },
    {
      "x": 177,
      "y": 195,
      "size": 1,
      "price": "1011000000000000000000",
      "reserved": "",
      "salt": "0xccfd5e92ae1f964ceb38194f501ac8b35ea5a15463e334febc8d8d82c69006fa",
      "assetIds": []
    },
    {
      "x": 177,
      "y": 196,
      "size": 1,
      "price": "1011000000000000000000",
      "reserved": "",
      "salt": "0xe75923ec634c6b6eac646e8c978f7a6a9c00379a7d07063f6fb10c7a0e03f06b",
      "assetIds": []
    },
    {
      "x": 177,
      "y": 197,
      "size": 1,
      "price": "1011000000000000000000",
      "reserved": "",
      "salt": "0x21065437f5f0ff32ebc9cabb5e7577269c78c90375948377b3bfb96b94579ba9",
      "assetIds": []
    },
    {
      "x": 178,
      "y": 162,
      "size": 1,
      "price": "1011000000000000000000",
      "reserved": "",
      "salt": "0xc77e9854b68e3b5e8aba6b4ea7da649f20474db8d8be038e7c7f4e2b5dc1ce7a",
      "assetIds": []
    },
    {
      "x": 178,
      "y": 163,
      "size": 1,
      "price": "1011000000000000000000",
      "reserved": "",
      "salt": "0x9035c0d50a58d97017e2aa04599454a9abf7e7b146e4240d755b87d7dd9a8467",
      "assetIds": []
    },
    {
      "x": 178,
      "y": 164,
      "size": 1,
      "price": "1011000000000000000000",
      "reserved": "",
      "salt": "0x6f79491a9c848d2f29d6c334c285e9d09b2278045fa7a5f5d36c2903c568d254",
      "assetIds": []
    },
    {
      "x": 178,
      "y": 165,
      "size": 1,
      "price": "1011000000000000000000",
      "reserved": "",
      "salt": "0xb2c4211c9aa54ed95e8490623ac3812e8158fb6a4960ce1873203507753fb314",
      "assetIds": []
    },
    {
      "x": 178,
      "y": 166,
      "size": 1,
      "price": "1011000000000000000000",
      "reserved": "",
      "salt": "0x91ed5268a02353c65e636e09f5a6b7ac928733053695d02b8a163b018553dd40",
      "assetIds": []
    },
    {
      "x": 178,
      "y": 167,
      "size": 1,
      "price": "1011000000000000000000",
      "reserved": "",
      "salt": "0xf5662effda5a74654d9a17ec3e6b10e836a67b0262b80ef0d418473991180355",
      "assetIds": []
    },
    {
      "x": 178,
      "y": 168,
      "size": 1,
      "price": "1011000000000000000000",
      "reserved": "",
      "salt": "0xdfa3529e1b2d89769932b0d700c92781459c46a723aa5e8a4dfd953e147887d3",
      "assetIds": []
    },
    {
      "x": 178,
      "y": 169,
      "size": 1,
      "price": "1011000000000000000000",
      "reserved": "",
      "salt": "0x6da231c6824d43e86207a309f7ac9bac5a5ca15760795f2fe00e7f8a1e4f23a4",
      "assetIds": []
    },
    {
      "x": 178,
      "y": 170,
      "size": 1,
      "price": "1011000000000000000000",
      "reserved": "",
      "salt": "0xd3f50c28231b8346bb2eb36c05ecc2957b0a6bdaf46f2fce9435f1eb83fde2f8",
      "assetIds": []
    },
    {
      "x": 178,
      "y": 171,
      "size": 1,
      "price": "1011000000000000000000",
      "reserved": "",
      "salt": "0xe443317a976844a0c154a31a771193dac6feb8dc65ac9da3e60919929e530bdc",
      "assetIds": []
    },
    {
      "x": 178,
      "y": 172,
      "size": 1,
      "price": "1011000000000000000000",
      "reserved": "",
      "salt": "0x5df401cac373ce04957554415eb756c01ebc5abb586cfa5cd24ac2689108923f",
      "assetIds": []
    },
    {
      "x": 178,
      "y": 173,
      "size": 1,
      "price": "1011000000000000000000",
      "reserved": "",
      "salt": "0xea9a88ebde35f7c935a3ad20fcc729da285f0b4bb054646ef39f4b38ba00c338",
      "assetIds": []
    },
    {
      "x": 178,
      "y": 192,
      "size": 1,
      "price": "1011000000000000000000",
      "reserved": "",
      "salt": "0x427a97985f6549f18b84ef86e49743f8a4b06ccf4a0385dfd160335a9fffd91c",
      "assetIds": []
    },
    {
      "x": 178,
      "y": 193,
      "size": 1,
      "price": "1011000000000000000000",
      "reserved": "",
      "salt": "0xd2d1e89732d1f124795c036596c97146f58dbcb31879cd54f9d85d2d2408674d",
      "assetIds": []
    },
    {
      "x": 178,
      "y": 194,
      "size": 1,
      "price": "1011000000000000000000",
      "reserved": "",
      "salt": "0xbef79d62ff216a603919d3907ef10af1a08f0662056029644ebd102752d9ca14",
      "assetIds": []
    },
    {
      "x": 178,
      "y": 195,
      "size": 1,
      "price": "1011000000000000000000",
      "reserved": "",
      "salt": "0x9630e1c652ba62c21fc11aaf935d5975901894c946d1c2cdd3c94b1d6f52c1cc",
      "assetIds": []
    },
    {
      "x": 178,
      "y": 196,
      "size": 1,
      "price": "1011000000000000000000",
      "reserved": "0x7a9fe22691c811ea339d9b73150e6911a5343dca",
      "salt": "0xfe46baa8deedadf0b4361598d568fc542106413b273b15dea836e764ad310021",
      "assetIds": []
    },
    {
      "x": 178,
      "y": 197,
      "size": 1,
      "price": "1011000000000000000000",
      "reserved": "",
      "salt": "0xd7d4eaf45ee1e78f778a7609e19c33a8749672f192bc2bb4fd2dcf58d7c4853c",
      "assetIds": []
    },
    {
      "x": 179,
      "y": 162,
      "size": 1,
      "price": "1011000000000000000000",
      "reserved": "",
      "salt": "0x0930821af7c97a7aef8030d664b9a3dd1e8873889dfff013f3358938a1bb75d8",
      "assetIds": []
    },
    {
      "x": 179,
      "y": 163,
      "size": 1,
      "price": "1011000000000000000000",
      "reserved": "",
      "salt": "0x25ca7f2022d16b80c9dbe2ae30e4b70710803ae43d388914adec506665b2be42",
      "assetIds": []
    },
    {
      "x": 179,
      "y": 164,
      "size": 1,
      "price": "1011000000000000000000",
      "reserved": "0x7a9fe22691c811ea339d9b73150e6911a5343dca",
      "salt": "0xe58aeedbb64bba209e6b050affac411fcdf99d2941f3bc99d1b9600195d19003",
      "assetIds": []
    },
    {
      "x": 179,
      "y": 165,
      "size": 1,
      "price": "1011000000000000000000",
      "reserved": "",
      "salt": "0x615ee71f3180bc38a687d3a133dc8bbdbbe519db58788ea77753faae4b0acc7f",
      "assetIds": []
    },
    {
      "x": 179,
      "y": 166,
      "size": 1,
      "price": "1011000000000000000000",
      "reserved": "",
      "salt": "0xad5eba816287306ca30d832a61fe6fb0c65e4cca73255add91597064db285af8",
      "assetIds": []
    },
    {
      "x": 179,
      "y": 167,
      "size": 1,
      "price": "1011000000000000000000",
      "reserved": "",
      "salt": "0x9e70335f582615d3dea71580a2aa445b225ffd7ddfe14628d34943511ea2d7b4",
      "assetIds": []
    },
    {
      "x": 179,
      "y": 168,
      "size": 1,
      "price": "1011000000000000000000",
      "reserved": "",
      "salt": "0x17781136d45bde5b01ba4c80bcf678fe83f125c0e29097df8a25be3c3d900767",
      "assetIds": []
    },
    {
      "x": 179,
      "y": 169,
      "size": 1,
      "price": "1011000000000000000000",
      "reserved": "",
      "salt": "0x8d29ca3c9fe9a2a4b74d7c38c365217af57040cbb246fe0fb777881768a425e0",
      "assetIds": []
    },
    {
      "x": 179,
      "y": 170,
      "size": 1,
      "price": "1011000000000000000000",
      "reserved": "",
      "salt": "0xd723717d99b61d19a9f6813b6bab556a403495de5eea0149ccda00180cc52b9d",
      "assetIds": []
    },
    {
      "x": 179,
      "y": 171,
      "size": 1,
      "price": "1011000000000000000000",
      "reserved": "",
      "salt": "0xffab93c18ce8376d576227db3550564e23919ca6ec2278b0ec740057adbadf9f",
      "assetIds": []
    },
    {
      "x": 179,
      "y": 172,
      "size": 1,
      "price": "1011000000000000000000",
      "reserved": "",
      "salt": "0xdf787221f9696012073c45ea492a9cd33d3e4b2b01fc009b8387607ee4e5f14a",
      "assetIds": []
    },
    {
      "x": 179,
      "y": 173,
      "size": 1,
      "price": "1011000000000000000000",
      "reserved": "",
      "salt": "0x04bcde7fb5113fdd51999472360e09e7611468b7ca422e1884e1c0f9a59480f5",
      "assetIds": []
    },
    {
      "x": 179,
      "y": 192,
      "size": 1,
      "price": "1011000000000000000000",
      "reserved": "",
      "salt": "0x61bdf2d301e45531af72391eb1650f12b34c35270a3edeb6ed669cff259df2ee",
      "assetIds": []
    },
    {
      "x": 179,
      "y": 193,
      "size": 1,
      "price": "1011000000000000000000",
      "reserved": "0x7a9fe22691c811ea339d9b73150e6911a5343dca",
      "salt": "0x530cf2465a05036b562675bf50ce510c79444cc597c69d5026fe61589bf50ec5",
      "assetIds": []
    },
    {
      "x": 179,
      "y": 194,
      "size": 1,
      "price": "1011000000000000000000",
      "reserved": "",
      "salt": "0xd9646940085b263cabe5b3e7038026d8bbcf3e8a95fb072b41a03c992b216b34",
      "assetIds": []
    },
    {
      "x": 179,
      "y": 195,
      "size": 1,
      "price": "1011000000000000000000",
      "reserved": "",
      "salt": "0xbf7fc700e0e3c65d84ccc09f0133b95daa0431b8a8ce0097a562accce93fad01",
      "assetIds": []
    },
    {
      "x": 179,
      "y": 196,
      "size": 1,
      "price": "1011000000000000000000",
      "reserved": "",
      "salt": "0x2fc40e9b038fdcf9ca654e70e33bb9190076c23625856e64df7e196c00ad0547",
      "assetIds": []
    },
    {
      "x": 179,
      "y": 197,
      "size": 1,
      "price": "1011000000000000000000",
      "reserved": "",
      "salt": "0x4c2e4d7e6cd15b80cd504d4c2021c21f6c93454b5f02eb6e46717839de9eed94",
      "assetIds": []
    },
    {
      "x": 180,
      "y": 162,
      "size": 1,
      "price": "1011000000000000000000",
      "reserved": "",
      "salt": "0x4c45648f193da2e19d23ecd3056da2b5659af4867c702a9303c625b43bbf2162",
      "assetIds": []
    },
    {
      "x": 180,
      "y": 163,
      "size": 1,
      "price": "1011000000000000000000",
      "reserved": "",
      "salt": "0xcabed492c23f54cf7059ed34adceaf9f929dca8db3264d8a00347ad68788922f",
      "assetIds": []
    },
    {
      "x": 180,
      "y": 164,
      "size": 1,
      "price": "1011000000000000000000",
      "reserved": "",
      "salt": "0x731a5faba3b0f57b998280e7a192c00eddfc4592ce029d8e14153f89b814d318",
      "assetIds": []
    },
    {
      "x": 180,
      "y": 165,
      "size": 1,
      "price": "1011000000000000000000",
      "reserved": "",
      "salt": "0x8cbbe0eff99c0e22c205ee9d27ab5d216f0cb05867e8346e60b513f126bcef9d",
      "assetIds": []
    },
    {
      "x": 180,
      "y": 166,
      "size": 1,
      "price": "1011000000000000000000",
      "reserved": "",
      "salt": "0xb30ee011231928670fb5aa9af7f4313ac73f6f249836eaf6a4cd15a681bf4ead",
      "assetIds": []
    },
    {
      "x": 180,
      "y": 167,
      "size": 1,
      "price": "1011000000000000000000",
      "reserved": "",
      "salt": "0x6702c9159b075624746ead7798629f1aa7602122207efd4068ea12e4953273e2",
      "assetIds": []
    },
    {
      "x": 180,
      "y": 168,
      "size": 1,
      "price": "1011000000000000000000",
      "reserved": "",
      "salt": "0x89452b52698bfb0eac39976eea9da25c1cdd9380af8ca458ef7be7aa4b7cec28",
      "assetIds": []
    },
    {
      "x": 180,
      "y": 169,
      "size": 1,
      "price": "1011000000000000000000",
      "reserved": "0x7a9fe22691c811ea339d9b73150e6911a5343dca",
      "salt": "0xc2766866fc13fda3ba7945aa31bdd4dcab60b14bbb55fb7e16efc54706e5a81b",
      "assetIds": []
    },
    {
      "x": 180,
      "y": 170,
      "size": 1,
      "price": "1011000000000000000000",
      "reserved": "",
      "salt": "0xff6543486bb1047123b90e3ba3b62bbe2414fef40b9f09c47c75a52db4c428fb",
      "assetIds": []
    },
    {
      "x": 180,
      "y": 171,
      "size": 1,
      "price": "1011000000000000000000",
      "reserved": "",
      "salt": "0xc836dc2932f0730ba2c7cf689edd2c7d17962032d3ca3e455b4e6dee0c2f1a1e",
      "assetIds": []
    },
    {
      "x": 180,
      "y": 172,
      "size": 1,
      "price": "1011000000000000000000",
      "reserved": "",
      "salt": "0x0df159d544eea057ce0b829451a939167ed2703f7fd48ca2453425fcfcb5bbe3",
      "assetIds": []
    },
    {
      "x": 180,
      "y": 173,
      "size": 1,
      "price": "1011000000000000000000",
      "reserved": "",
      "salt": "0xcc48d110033945adf525b4ba441085f22134005540524e5ccd78241e5fb5df26",
      "assetIds": []
    },
    {
      "x": 180,
      "y": 174,
      "size": 1,
      "price": "1011000000000000000000",
      "reserved": "",
      "salt": "0x8ea2f56bf9c54085fb49ff7545a1b495f45858f6736995b6605570c66080c35e",
      "assetIds": []
    },
    {
      "x": 180,
      "y": 175,
      "size": 1,
      "price": "1011000000000000000000",
      "reserved": "",
      "salt": "0xce7be5d74910c973d574a3da8ad782585ac739ff7f123ffa7ba54071d4659bc0",
      "assetIds": []
    },
    {
      "x": 180,
      "y": 176,
      "size": 1,
      "price": "1011000000000000000000",
      "reserved": "",
      "salt": "0x7f4c17c48ff1dd215bd8f516d313bc86b4b9ca5ab45f5a5394356b8b58ae7b63",
      "assetIds": []
    },
    {
      "x": 180,
      "y": 177,
      "size": 1,
      "price": "1011000000000000000000",
      "reserved": "",
      "salt": "0xe53f5f6b6e1cc454ffba66ce14dd50dfc62274104547bba65d9ee58ce0df1ba3",
      "assetIds": []
    },
    {
      "x": 180,
      "y": 178,
      "size": 1,
      "price": "1011000000000000000000",
      "reserved": "0x7a9fe22691c811ea339d9b73150e6911a5343dca",
      "salt": "0xc2f19788df4e11723aa1bb2b80f57e41baaa53479adbb62823bfbcf389344320",
      "assetIds": []
    },
    {
      "x": 180,
      "y": 179,
      "size": 1,
      "price": "1011000000000000000000",
      "reserved": "",
      "salt": "0x6ef64dc3dd69d09ea117658293318d49f503c70fc814f610b9f0baad5f48f1ad",
      "assetIds": []
    },
    {
      "x": 180,
      "y": 186,
      "size": 1,
      "price": "1011000000000000000000",
      "reserved": "",
      "salt": "0x9e570b2bec1cad2f9ec39608a9e86391bf58192169a15db120248cb1658d561a",
      "assetIds": []
    },
    {
      "x": 180,
      "y": 187,
      "size": 1,
      "price": "1011000000000000000000",
      "reserved": "0x7a9fe22691c811ea339d9b73150e6911a5343dca",
      "salt": "0xe1d28b5ffafb9e8863a079787f8d87f8ad7011fc479df952050194417b358a20",
      "assetIds": []
    },
    {
      "x": 180,
      "y": 188,
      "size": 1,
      "price": "1011000000000000000000",
      "reserved": "",
      "salt": "0xbfa1ad82d1e8315992db02aea1c1ab4cdef317441cf6b10af1a14ad608875795",
      "assetIds": []
    },
    {
      "x": 180,
      "y": 189,
      "size": 1,
      "price": "1011000000000000000000",
      "reserved": "",
      "salt": "0x4d3b623f51dac34377157dcab8097e5d5aee94201b59ef728758be8d1ebb030d",
      "assetIds": []
    },
    {
      "x": 180,
      "y": 190,
      "size": 1,
      "price": "1011000000000000000000",
      "reserved": "",
      "salt": "0x521226025964e5abfef3ca2bb28efa8b72a44a38446b7b0d03c1e5ade59fe609",
      "assetIds": []
    },
    {
      "x": 180,
      "y": 191,
      "size": 1,
      "price": "1011000000000000000000",
      "reserved": "",
      "salt": "0xae8efe7a9cf170aeae58270dcf0cbdb6acbf29b5ed6af2cd59a4d89f76f4d211",
      "assetIds": []
    },
    {
      "x": 180,
      "y": 192,
      "size": 1,
      "price": "1011000000000000000000",
      "reserved": "",
      "salt": "0x879d325dea5fe553d50a0ff2ff531952238a9336e8ea99ad9103d8f3a1da4989",
      "assetIds": []
    },
    {
      "x": 180,
      "y": 193,
      "size": 1,
      "price": "1011000000000000000000",
      "reserved": "",
      "salt": "0x510272c7075dbc9245ca9ba5db0c6901b9b49907a0027cac2ee982309b3b3b2c",
      "assetIds": []
    },
    {
      "x": 180,
      "y": 194,
      "size": 1,
      "price": "1011000000000000000000",
      "reserved": "",
      "salt": "0x6c1ae54145006482a834a143cc6f2552a74f46b76a5352c5bc4309469b3b5731",
      "assetIds": []
    },
    {
      "x": 180,
      "y": 195,
      "size": 1,
      "price": "1011000000000000000000",
      "reserved": "",
      "salt": "0xbbc99fd8e18769922bddd71079fab5d54639a3b494d94b86b79be7f0e1514095",
      "assetIds": []
    },
    {
      "x": 180,
      "y": 196,
      "size": 1,
      "price": "1011000000000000000000",
      "reserved": "",
      "salt": "0xde4422a5ae6feea95ccb0e65965eec15b6272ca436684c0a5d89cf12cceaea1a",
      "assetIds": []
    },
    {
      "x": 180,
      "y": 197,
      "size": 1,
      "price": "1011000000000000000000",
      "reserved": "",
      "salt": "0xf2e1e7050b9d4e6f5468911614f1538ba84157081dc0ec1d6234a865d640b592",
      "assetIds": []
    },
    {
      "x": 181,
      "y": 164,
      "size": 1,
      "price": "1011000000000000000000",
      "reserved": "",
      "salt": "0x97aacbea0e0f99e3ce8078967e1a3faf0112caaa4b401940e47d0ae1ef7f0fba",
      "assetIds": []
    },
    {
      "x": 181,
      "y": 165,
      "size": 1,
      "price": "1011000000000000000000",
      "reserved": "",
      "salt": "0xadbc9339d3c6fa15994c2d95b30f0a61faa89dc002bb88b730997e0bcad0a422",
      "assetIds": []
    },
    {
      "x": 181,
      "y": 166,
      "size": 1,
      "price": "1011000000000000000000",
      "reserved": "",
      "salt": "0x4b19ab6cb166948411faeb74131da5000d8588b76a53c7f78c2d10c126b6e47e",
      "assetIds": []
    },
    {
      "x": 181,
      "y": 167,
      "size": 1,
      "price": "1011000000000000000000",
      "reserved": "",
      "salt": "0x07dd6e075b556a5ceb39406e184615856c18a7029be1981b1e692f6f6d95cd85",
      "assetIds": []
    },
    {
      "x": 181,
      "y": 168,
      "size": 1,
      "price": "1011000000000000000000",
      "reserved": "",
      "salt": "0xfaca94da9bfffac9e08e0188d5ac7118183a381d5bf348afaeb6f3da7daca261",
      "assetIds": []
    },
    {
      "x": 181,
      "y": 169,
      "size": 1,
      "price": "1011000000000000000000",
      "reserved": "",
      "salt": "0x961147628fc726846106add67eed30f1c90519b482eb00fa64a486543d529280",
      "assetIds": []
    },
    {
      "x": 181,
      "y": 170,
      "size": 1,
      "price": "1011000000000000000000",
      "reserved": "",
      "salt": "0xdbf3394c32dea7ea577f22a07fe583c381b890ac7f266ce2898347275fcc5ec4",
      "assetIds": []
    },
    {
      "x": 181,
      "y": 171,
      "size": 1,
      "price": "1011000000000000000000",
      "reserved": "",
      "salt": "0x18339fca2506fa5577d6f625da850ada3ec1273cd1601c2af9031917c91a9e7d",
      "assetIds": []
    },
    {
      "x": 181,
      "y": 172,
      "size": 1,
      "price": "1011000000000000000000",
      "reserved": "0x7a9fe22691c811ea339d9b73150e6911a5343dca",
      "salt": "0x6b596edaa8d761db835d1155ff28900d9caa133110abdc6844f60b33c7cbd600",
      "assetIds": []
    },
    {
      "x": 181,
      "y": 173,
      "size": 1,
      "price": "1011000000000000000000",
      "reserved": "",
      "salt": "0x9f9186c4dfd8bae4b64ae52c5fc3ebeb0099722ced9c3073a6f3cfb58be5c6e8",
      "assetIds": []
    },
    {
      "x": 181,
      "y": 174,
      "size": 1,
      "price": "1011000000000000000000",
      "reserved": "",
      "salt": "0x8ddd47f078ce38dacdeae3b15030ba8c9cf48b4af0645dd3af5aab92d6e12bbe",
      "assetIds": []
    },
    {
      "x": 181,
      "y": 175,
      "size": 1,
      "price": "1011000000000000000000",
      "reserved": "",
      "salt": "0x836bc8566e0a74b091c462c45c8c9117f4930a1716de000408b9292add950b7c",
      "assetIds": []
    },
    {
      "x": 181,
      "y": 176,
      "size": 1,
      "price": "1011000000000000000000",
      "reserved": "",
      "salt": "0x2578245ddff82e4d9ed54b0afa1517d2ddb90ec89b19537c279b82004b3f3e28",
      "assetIds": []
    },
    {
      "x": 181,
      "y": 177,
      "size": 1,
      "price": "1011000000000000000000",
      "reserved": "",
      "salt": "0xdfbc4f9183718b63381a3a4453b05fc3f6809746763119eaa6872e16e1ead88e",
      "assetIds": []
    },
    {
      "x": 181,
      "y": 178,
      "size": 1,
      "price": "1011000000000000000000",
      "reserved": "",
      "salt": "0xbd075db34be52438f38aae44b8ed5f09a787dd18b445459a4e509b78624f9956",
      "assetIds": []
    },
    {
      "x": 181,
      "y": 179,
      "size": 1,
      "price": "1011000000000000000000",
      "reserved": "",
      "salt": "0xb26a412b2a6028495166438265e82ae83807642dca117d8e47eac9ed8620c05c",
      "assetIds": []
    },
    {
      "x": 181,
      "y": 186,
      "size": 1,
      "price": "1011000000000000000000",
      "reserved": "",
      "salt": "0xdba283cdce90d3305183ec27ca42eade9cb2bd64a3a8cd9dca172983bcee73f0",
      "assetIds": []
    },
    {
      "x": 181,
      "y": 187,
      "size": 1,
      "price": "1011000000000000000000",
      "reserved": "",
      "salt": "0xf9c359e0f384f47eb93d5169c5eef24dfd92a6535c17ea328b0f9f70be946c78",
      "assetIds": []
    },
    {
      "x": 181,
      "y": 188,
      "size": 1,
      "price": "1011000000000000000000",
      "reserved": "",
      "salt": "0xf98f9ece288789d2cba8b694352ef1cc09c225829fe9786c088a46d5a8939b7c",
      "assetIds": []
    },
    {
      "x": 181,
      "y": 189,
      "size": 1,
      "price": "1011000000000000000000",
      "reserved": "",
      "salt": "0x98f16c42634033322e5a6ee13c2422ac6bdc58d8f4c921da87cdb461bdd6f07d",
      "assetIds": []
    },
    {
      "x": 181,
      "y": 190,
      "size": 1,
      "price": "1011000000000000000000",
      "reserved": "",
      "salt": "0x7f0299d6bec2296018f5efb50728251e283a8bbf79e554c5517b68098bf91a27",
      "assetIds": []
    },
    {
      "x": 181,
      "y": 191,
      "size": 1,
      "price": "1011000000000000000000",
      "reserved": "",
      "salt": "0x670133b93d69c3b1f2b7461270d1b0b95e7ad108ed49f8c7cd2f4abc1ab8252a",
      "assetIds": []
    },
    {
      "x": 181,
      "y": 192,
      "size": 1,
      "price": "1011000000000000000000",
      "reserved": "",
      "salt": "0x0294db687c8ad6613c82d31f12214d8c4d96e9e0ca86a7ff217b5540bc02afe2",
      "assetIds": []
    },
    {
      "x": 181,
      "y": 193,
      "size": 1,
      "price": "1011000000000000000000",
      "reserved": "",
      "salt": "0xdac6d3d3c6d1b792af21f1b3752557630c5222a2d30fa3b3ebd4de0106d9497d",
      "assetIds": []
    },
    {
      "x": 181,
      "y": 194,
      "size": 1,
      "price": "1011000000000000000000",
      "reserved": "",
      "salt": "0xb233e7a81d199067cd3ad2e7bcfadee4ec574220bbd0ab591ec92ee79ea60dbb",
      "assetIds": []
    },
    {
      "x": 181,
      "y": 195,
      "size": 1,
      "price": "1011000000000000000000",
      "reserved": "",
      "salt": "0xb1b3b9c8d1849b9939259827b7417b9bc7f8159443bed72bc5c3fbfda3e7cbc4",
      "assetIds": []
    },
    {
      "x": 181,
      "y": 196,
      "size": 1,
      "price": "1011000000000000000000",
      "reserved": "",
      "salt": "0xed91be5890338f7bc2397ade9675ceb35d52c01c4b5b4e942cc2d025d5ba1355",
      "assetIds": []
    },
    {
      "x": 181,
      "y": 197,
      "size": 1,
      "price": "1011000000000000000000",
      "reserved": "",
      "salt": "0xe2aef787fb86816b9a5382a73dac742c681a99e683c85d0f5e062d30f91fe36a",
      "assetIds": []
    },
    {
      "x": 182,
      "y": 164,
      "size": 1,
      "price": "1011000000000000000000",
      "reserved": "",
      "salt": "0x1ffaf9364638b3cf772a104b12fbda79c153fc77ece8050043102596564642b8",
      "assetIds": []
    },
    {
      "x": 182,
      "y": 165,
      "size": 1,
      "price": "1011000000000000000000",
      "reserved": "",
      "salt": "0xef73eb1445a7a1f551baca38fe58fbefd37fcfd0a0a7f298438d7fb3fc6c2db1",
      "assetIds": []
    },
    {
      "x": 182,
      "y": 166,
      "size": 1,
      "price": "1011000000000000000000",
      "reserved": "",
      "salt": "0x69a1cd7e8a62879d1b7b10df3048da12f6da4fe59cbd35401f8ff8d970b33dcb",
      "assetIds": []
    },
    {
      "x": 182,
      "y": 167,
      "size": 1,
      "price": "1011000000000000000000",
      "reserved": "",
      "salt": "0x5d300c67cd3ab1ec7fcbc1fd47f3994efd5fc4f6f567fbf8348628ac86611dc7",
      "assetIds": []
    },
    {
      "x": 182,
      "y": 168,
      "size": 1,
      "price": "1011000000000000000000",
      "reserved": "",
      "salt": "0x8083b80d21ac5c19ea77487bc63c5f84c2c401b28b08911f34e121928776006f",
      "assetIds": []
    },
    {
      "x": 182,
      "y": 169,
      "size": 1,
      "price": "1011000000000000000000",
      "reserved": "",
      "salt": "0xbaf7189383ab9a6986d5696b21d4f6a8a10c5b08eb556e89215a5de1eaf173c7",
      "assetIds": []
    },
    {
      "x": 182,
      "y": 170,
      "size": 1,
      "price": "1011000000000000000000",
      "reserved": "",
      "salt": "0x03e948b6c5df3eb3727762453a3d304b2d545124bb11b008d0bdefcc67515d1a",
      "assetIds": []
    },
    {
      "x": 182,
      "y": 171,
      "size": 1,
      "price": "1011000000000000000000",
      "reserved": "",
      "salt": "0xf48979d1a4990b6344823e8b0add68ebc963d3963d25b82e67859a7436468f60",
      "assetIds": []
    },
    {
      "x": 182,
      "y": 172,
      "size": 1,
      "price": "1011000000000000000000",
      "reserved": "",
      "salt": "0x77eb302b58b7be939d1a596c4fe0de53ea269699b5726bd8d1a9a6b80e32704e",
      "assetIds": []
    },
    {
      "x": 182,
      "y": 173,
      "size": 1,
      "price": "1011000000000000000000",
      "reserved": "0x7a9fe22691c811ea339d9b73150e6911a5343dca",
      "salt": "0xb973694333edcad7b96a5613ec813d4f7de234ca140f54041e0a4ce646655e2b",
      "assetIds": []
    },
    {
      "x": 182,
      "y": 174,
      "size": 1,
      "price": "1011000000000000000000",
      "reserved": "",
      "salt": "0x7a365a2f1c7bfe19a87d11ee420f724c479a90bd4f7a6d55dea9a99d2a0f13ac",
      "assetIds": []
    },
    {
      "x": 182,
      "y": 175,
      "size": 1,
      "price": "1011000000000000000000",
      "reserved": "",
      "salt": "0x64b6a9466d22cee26ca798c820fc037e149595b2edda1ed78af80a8501e9b417",
      "assetIds": []
    },
    {
      "x": 182,
      "y": 176,
      "size": 1,
      "price": "1011000000000000000000",
      "reserved": "",
      "salt": "0xad773f80dbb90178a779441bf7fdabd435bed9607f2c577ea587b924f4aca445",
      "assetIds": []
    },
    {
      "x": 182,
      "y": 177,
      "size": 1,
      "price": "1011000000000000000000",
      "reserved": "",
      "salt": "0x03161352a06f9e37303183bc56c6b1787b5615dfae5f59b3e7c02bb80e3e2d97",
      "assetIds": []
    },
    {
      "x": 182,
      "y": 178,
      "size": 1,
      "price": "1011000000000000000000",
      "reserved": "",
      "salt": "0xeae82c0038010b5ccdb13d039b13d3c7bca83926e20e82bb43f1a0d0bbbcca57",
      "assetIds": []
    },
    {
      "x": 182,
      "y": 179,
      "size": 1,
      "price": "1011000000000000000000",
      "reserved": "",
      "salt": "0x72b411243b86b190c04ade8d2976ba2c06e1959a4107d3a64f827c117453600d",
      "assetIds": []
    },
    {
      "x": 182,
      "y": 186,
      "size": 1,
      "price": "1011000000000000000000",
      "reserved": "",
      "salt": "0x077ff044a3c7043ee3df75cafd60636d2d1d3bc2a1e5b4fb222c640e73e1ed22",
      "assetIds": []
    },
    {
      "x": 182,
      "y": 187,
      "size": 1,
      "price": "1011000000000000000000",
      "reserved": "",
      "salt": "0xb362c62fef6dce19877aa56b2530c8d5179f979af299b544af88106c1f122bb7",
      "assetIds": []
    },
    {
      "x": 182,
      "y": 188,
      "size": 1,
      "price": "1011000000000000000000",
      "reserved": "",
      "salt": "0x1948367e1c39836cf84ff6db84b01cf56657a99dd35ba14f5d3ebfbe33c63931",
      "assetIds": []
    },
    {
      "x": 182,
      "y": 189,
      "size": 1,
      "price": "1011000000000000000000",
      "reserved": "",
      "salt": "0xe7645a5314920163b71d5642590d4fc29b8bd8e95b5a798da90a48974e286f0b",
      "assetIds": []
    },
    {
      "x": 182,
      "y": 190,
      "size": 1,
      "price": "1011000000000000000000",
      "reserved": "",
      "salt": "0xc4d66bbfbfa00f175dc287dd566d2aa60e0e994df92bf4e7971bc288c663230d",
      "assetIds": []
    },
    {
      "x": 182,
      "y": 191,
      "size": 1,
      "price": "1011000000000000000000",
      "reserved": "",
      "salt": "0xdf5bcce40b569a28204a1b7c61d326ce976f08ca7b013601d06ed3402f01725e",
      "assetIds": []
    },
    {
      "x": 182,
      "y": 192,
      "size": 1,
      "price": "1011000000000000000000",
      "reserved": "",
      "salt": "0x9f8693bf5c487ae4f62c3a0bf1e0310d1d3797c5d451c09bf78c52a7d8ae6117",
      "assetIds": []
    },
    {
      "x": 182,
      "y": 193,
      "size": 1,
      "price": "1011000000000000000000",
      "reserved": "",
      "salt": "0x85ca3b9f2614fd368b3e6efcb8de210205ed22c1a505a973aed193cc9f4ee2b4",
      "assetIds": []
    },
    {
      "x": 182,
      "y": 194,
      "size": 1,
      "price": "1011000000000000000000",
      "reserved": "",
      "salt": "0xfa4ff79bc529a99eb0c5112f74018bd64dc69e6e4c2c88a4fba9b53724e81d52",
      "assetIds": []
    },
    {
      "x": 182,
      "y": 195,
      "size": 1,
      "price": "1011000000000000000000",
      "reserved": "",
      "salt": "0x2290a819c68bf3352b37910079f3ea23a471c28815859bc1e627796fc2f83b9d",
      "assetIds": []
    },
    {
      "x": 182,
      "y": 196,
      "size": 1,
      "price": "1011000000000000000000",
      "reserved": "0x7a9fe22691c811ea339d9b73150e6911a5343dca",
      "salt": "0x4632f3dd7ecc30a1a11e660a600787707fb762a64d539782d55d0255c3d6f8ef",
      "assetIds": []
    },
    {
      "x": 182,
      "y": 197,
      "size": 1,
      "price": "1011000000000000000000",
      "reserved": "",
      "salt": "0xac72ad8508466f352468c8c6543a04fd570f1bfaa7c690fc247aa3d32ed5e710",
      "assetIds": []
    },
    {
      "x": 183,
      "y": 164,
      "size": 1,
      "price": "1011000000000000000000",
      "reserved": "",
      "salt": "0xbc50306836ff6a6ccb7ee68f0066049391678697635b12cc631eee06344d2807",
      "assetIds": []
    },
    {
      "x": 183,
      "y": 165,
      "size": 1,
      "price": "1011000000000000000000",
      "reserved": "",
      "salt": "0x9fe52a12db8ba0d1223b166f25fce82c7b7df187ce7ca66d832613895d4bdbec",
      "assetIds": []
    },
    {
      "x": 183,
      "y": 166,
      "size": 1,
      "price": "1011000000000000000000",
      "reserved": "",
      "salt": "0x3b3a1756bc7d4d78c8e627f314ac4f69b7b20190fc5f9e5a9a552eb1e483c4f1",
      "assetIds": []
    },
    {
      "x": 183,
      "y": 167,
      "size": 1,
      "price": "1011000000000000000000",
      "reserved": "0x7a9fe22691c811ea339d9b73150e6911a5343dca",
      "salt": "0xdc6f53c577a43c2997627dbed9ef02a610b0bc0b7977ef6205a1be538e3a8add",
      "assetIds": []
    },
    {
      "x": 183,
      "y": 168,
      "size": 1,
      "price": "1011000000000000000000",
      "reserved": "",
      "salt": "0xa7fb84e01d3f4ccd3bf12219a51b599735842d75a954c84b1b3f49906352535e",
      "assetIds": []
    },
    {
      "x": 183,
      "y": 169,
      "size": 1,
      "price": "1011000000000000000000",
      "reserved": "",
      "salt": "0x21e7249f697800c8cde8d71c386122251f8faefeaf2758771ad1e5246b3364c0",
      "assetIds": []
    },
    {
      "x": 183,
      "y": 170,
      "size": 1,
      "price": "1011000000000000000000",
      "reserved": "",
      "salt": "0x954c0fdb8df3a8e08a36c80cc8642229c9a7f5758db236501fe645ed398a5411",
      "assetIds": []
    },
    {
      "x": 183,
      "y": 171,
      "size": 1,
      "price": "1011000000000000000000",
      "reserved": "",
      "salt": "0xc347f745b594fa2537f157d7361d64b20a92c1a28b797368584a634b0e797a76",
      "assetIds": []
    },
    {
      "x": 183,
      "y": 172,
      "size": 1,
      "price": "1011000000000000000000",
      "reserved": "",
      "salt": "0xd6bfedda739e6ad750afe1d17e86df2686d83992b23f2c587b5f88d06147122a",
      "assetIds": []
    },
    {
      "x": 183,
      "y": 173,
      "size": 1,
      "price": "1011000000000000000000",
      "reserved": "",
      "salt": "0x8ddd409cc45f875ceeb8c92c89f2df7e31948505911723d5526a712db23eb095",
      "assetIds": []
    },
    {
      "x": 183,
      "y": 174,
      "size": 1,
      "price": "1011000000000000000000",
      "reserved": "",
      "salt": "0x7bc6095f394496561938cfa01b3927aa37434fbd5871fec4b245d4d6a8fe43f4",
      "assetIds": []
    },
    {
      "x": 183,
      "y": 175,
      "size": 1,
      "price": "1011000000000000000000",
      "reserved": "",
      "salt": "0xa9423a373f8eb2a8d857d8b660b5ab8ee832f1cbe28e0d6735176b92a9dc68e8",
      "assetIds": []
    },
    {
      "x": 183,
      "y": 176,
      "size": 1,
      "price": "1011000000000000000000",
      "reserved": "",
      "salt": "0x24e7b6b8407966cd7579ed3a1f4f343176c53eabd6b9d17a28246936f7546d8a",
      "assetIds": []
    },
    {
      "x": 183,
      "y": 177,
      "size": 1,
      "price": "1011000000000000000000",
      "reserved": "0x7a9fe22691c811ea339d9b73150e6911a5343dca",
      "salt": "0xfe1e031c7a3969b48171c7c39bbed169620e929eff7c9161fbc8b7a5d773e5bb",
      "assetIds": []
    },
    {
      "x": 183,
      "y": 178,
      "size": 1,
      "price": "1011000000000000000000",
      "reserved": "",
      "salt": "0x87d6bfb481152d1077932ae0b4baea2e4e20179d401e8b8e4c106b5257c3fe6a",
      "assetIds": []
    },
    {
      "x": 183,
      "y": 179,
      "size": 1,
      "price": "1011000000000000000000",
      "reserved": "",
      "salt": "0x388985cb5db703c5e28f8f5508d5ebce8583e6004b2b0b32c453ef100268c2aa",
      "assetIds": []
    },
    {
      "x": 183,
      "y": 186,
      "size": 1,
      "price": "1011000000000000000000",
      "reserved": "",
      "salt": "0xd6e2d56586c05bb9d5e17ecdaf5c6cef8413ab18e5008cc8c16712e3c94fb6cc",
      "assetIds": []
    },
    {
      "x": 183,
      "y": 187,
      "size": 1,
      "price": "1011000000000000000000",
      "reserved": "",
      "salt": "0x0bf7f885689d1de1c4f046a27416b4a961558194ed4e261ff5103ff097d88286",
      "assetIds": []
    },
    {
      "x": 183,
      "y": 188,
      "size": 1,
      "price": "1011000000000000000000",
      "reserved": "",
      "salt": "0x6fe10e18d50af20bbbb00609cfd584a012aa16ce4adb19dfcbd1695054ebb30e",
      "assetIds": []
    },
    {
      "x": 183,
      "y": 189,
      "size": 1,
      "price": "1011000000000000000000",
      "reserved": "0x7a9fe22691c811ea339d9b73150e6911a5343dca",
      "salt": "0x4747f3ca803c252c5124e2f6a03c3ead13a7356309eaf184b8e6a965ec6e3d49",
      "assetIds": []
    },
    {
      "x": 183,
      "y": 190,
      "size": 1,
      "price": "1011000000000000000000",
      "reserved": "",
      "salt": "0xf996a48a354c3366064f3a4d86d7911af2804990d7b7acdc57c3dd179b6e3e8b",
      "assetIds": []
    },
    {
      "x": 183,
      "y": 191,
      "size": 1,
      "price": "1011000000000000000000",
      "reserved": "",
      "salt": "0x49da37b54a8f56b1f6fb773f0a128bf70125b2918749cba29206e5c1236a2c7d",
      "assetIds": []
    },
    {
      "x": 183,
      "y": 195,
      "size": 1,
      "price": "1011000000000000000000",
      "reserved": "",
      "salt": "0xc2a1b60e23e1c7fd322432e053598812eb2ba74b445db96ff5cde11d1084d6ee",
      "assetIds": []
    },
    {
      "x": 183,
      "y": 196,
      "size": 1,
      "price": "1011000000000000000000",
      "reserved": "",
      "salt": "0x7ee9914a67e03514cda722e9e3fe23e1165ca666c61f83c21ccf988404c974ad",
      "assetIds": []
    },
    {
      "x": 183,
      "y": 197,
      "size": 1,
      "price": "1011000000000000000000",
      "reserved": "",
      "salt": "0x42fb78feaa5bfa20e761c015f4fe2dc3fc097c9b5c82d80d93859eafe717ec9d",
      "assetIds": []
    },
    {
      "x": 184,
      "y": 164,
      "size": 1,
      "price": "1011000000000000000000",
      "reserved": "",
      "salt": "0x1741caccd0f44ae18e488c5fef8df938b6c4ca04fe9263067e787c5c152c78db",
      "assetIds": []
    },
    {
      "x": 184,
      "y": 165,
      "size": 1,
      "price": "1011000000000000000000",
      "reserved": "",
      "salt": "0xe31b90ed154b4e4e8337d3c037e2dbe8462bc82dedfa50e134a6224c64230129",
      "assetIds": []
    },
    {
      "x": 184,
      "y": 166,
      "size": 1,
      "price": "1011000000000000000000",
      "reserved": "",
      "salt": "0x92c5f623d2d6e3824f873275446321e27f971d58da0e9c75df0caf5a81c8eae2",
      "assetIds": []
    },
    {
      "x": 184,
      "y": 167,
      "size": 1,
      "price": "1011000000000000000000",
      "reserved": "",
      "salt": "0xda0309b8cefede1d88bef8f14c4c1a7d3e7ddfb04511300dd569b8ff219b5f61",
      "assetIds": []
    },
    {
      "x": 184,
      "y": 168,
      "size": 1,
      "price": "1011000000000000000000",
      "reserved": "",
      "salt": "0x0e537b7dd796e0fbdd3ceeacbfe47f02a0a43d3b8fcd8aeab4585936d2f1135b",
      "assetIds": []
    },
    {
      "x": 184,
      "y": 169,
      "size": 1,
      "price": "1011000000000000000000",
      "reserved": "",
      "salt": "0x9b4f5852532d1becf8f8919b3b8ed77ba3734341cd0223e8b9ad592478df6df8",
      "assetIds": []
    },
    {
      "x": 184,
      "y": 170,
      "size": 1,
      "price": "1011000000000000000000",
      "reserved": "",
      "salt": "0x7ed7af49a70544a79286c02ad55c77f38baf48e5dcc7e45fdd9d5a7403223220",
      "assetIds": []
    },
    {
      "x": 184,
      "y": 171,
      "size": 1,
      "price": "1011000000000000000000",
      "reserved": "",
      "salt": "0x2389be76d628d9f784ce2a3e4fc0f202a0f4634af74a30465daf152c709077a4",
      "assetIds": []
    },
    {
      "x": 184,
      "y": 172,
      "size": 1,
      "price": "1011000000000000000000",
      "reserved": "",
      "salt": "0x512717a4ec9efee71a4839318f667de85cfb1455ebf3cfaac823f4115873ac27",
      "assetIds": []
    },
    {
      "x": 184,
      "y": 173,
      "size": 1,
      "price": "1011000000000000000000",
      "reserved": "",
      "salt": "0x2bca337be31aeb78d6d58c54a5daa337dd7b1acc5792ab9a8765ca2417f428fa",
      "assetIds": []
    },
    {
      "x": 184,
      "y": 174,
      "size": 1,
      "price": "1011000000000000000000",
      "reserved": "",
      "salt": "0xbb6f2efb7744ef4beb9d43a69563e4e2a6b7321da01be479ef5b1434fc164db9",
      "assetIds": []
    },
    {
      "x": 184,
      "y": 175,
      "size": 1,
      "price": "1011000000000000000000",
      "reserved": "",
      "salt": "0x5c43b6ce39a41a8e1d8ced559754b42ffb3d7f523ac3ad9bc5c59d12d57dc4b7",
      "assetIds": []
    },
    {
      "x": 184,
      "y": 176,
      "size": 1,
      "price": "1011000000000000000000",
      "reserved": "",
      "salt": "0x09f363fd7d38df75f1b0e429f9c7e88bfa98e53c3c74f04853cdc28b1ba6da86",
      "assetIds": []
    },
    {
      "x": 184,
      "y": 177,
      "size": 1,
      "price": "1011000000000000000000",
      "reserved": "",
      "salt": "0x56480a66646746ddb44e0a245b7e699c5a4366c4ac2952d9f1d1bd6c9c2964cd",
      "assetIds": []
    },
    {
      "x": 184,
      "y": 178,
      "size": 1,
      "price": "1011000000000000000000",
      "reserved": "",
      "salt": "0xfa0656befe9c3c9c6fcf781d47beafe504e8a0c7d36df02a69b7259fa7a9317a",
      "assetIds": []
    },
    {
      "x": 184,
      "y": 179,
      "size": 1,
      "price": "1011000000000000000000",
      "reserved": "",
      "salt": "0x32f6d2a86b1c6223d0108582e6fd808e68b8684359c874aa277a1fdeb8693d41",
      "assetIds": []
    },
    {
      "x": 184,
      "y": 186,
      "size": 1,
      "price": "1011000000000000000000",
      "reserved": "",
      "salt": "0x08e3ae343bd6b82064293a29147e2a00dc23ecd465c32e0537f60e336963e56b",
      "assetIds": []
    },
    {
      "x": 184,
      "y": 187,
      "size": 1,
      "price": "1011000000000000000000",
      "reserved": "",
      "salt": "0xaffc6478ff201cf680bdf6b5860a27e4804c1ba5d8dd40b6300905a29b6532a6",
      "assetIds": []
    },
    {
      "x": 184,
      "y": 188,
      "size": 1,
      "price": "1011000000000000000000",
      "reserved": "",
      "salt": "0xcf23881c8280bfd2e837828786ac63d659869395077dcda6c85d93d60ef51597",
      "assetIds": []
    },
    {
      "x": 184,
      "y": 189,
      "size": 1,
      "price": "1011000000000000000000",
      "reserved": "",
      "salt": "0x2c1cb7adac5e956552daecb93120785e3c78bd44ee4ee208ff8c432f91be76cb",
      "assetIds": []
    },
    {
      "x": 184,
      "y": 190,
      "size": 1,
      "price": "1011000000000000000000",
      "reserved": "",
      "salt": "0x66500b9e0772f6809e96ed4a4254ae52fde17ec0a4a0c7403bc1881ffd6d744d",
      "assetIds": []
    },
    {
      "x": 184,
      "y": 191,
      "size": 1,
      "price": "1011000000000000000000",
      "reserved": "",
      "salt": "0xc4a8af860170f43649257c917bb826d423fac47ca2f8462537c160857b1fecb4",
      "assetIds": []
    },
    {
      "x": 184,
      "y": 195,
      "size": 1,
      "price": "1011000000000000000000",
      "reserved": "",
      "salt": "0x0f98a4bc2546dfdd3e96dde5934944ffedc7522e4c4f6ecf0ec3ff69802259b5",
      "assetIds": []
    },
    {
      "x": 184,
      "y": 196,
      "size": 1,
      "price": "1011000000000000000000",
      "reserved": "",
      "salt": "0xf159b928424408a9fb7c0bed1e10b27e1696464620bfb46f8adecf8ebcbb9e55",
      "assetIds": []
    },
    {
      "x": 184,
      "y": 197,
      "size": 1,
      "price": "1011000000000000000000",
      "reserved": "",
      "salt": "0x91edfcb9214180326b3a30d77602f1b5c2e768a311eb578ee3fd46aec06583fc",
      "assetIds": []
    },
    {
      "x": 185,
      "y": 164,
      "size": 1,
      "price": "1011000000000000000000",
      "reserved": "",
      "salt": "0x2dfa590b73ed8112b7387e1fb3debbf9518ce052a601f87a2fc36d87e67022c2",
      "assetIds": []
    },
    {
      "x": 185,
      "y": 165,
      "size": 1,
      "price": "1011000000000000000000",
      "reserved": "",
      "salt": "0x380ab0e9e00f8cc22ee3d9b5a1d6fc1aa3dcd1ea879ced8e7d2ba08af093a961",
      "assetIds": []
    },
    {
      "x": 185,
      "y": 166,
      "size": 1,
      "price": "1011000000000000000000",
      "reserved": "",
      "salt": "0xd196674bd42306f409434727cc22ed3201a4959a5b2d2ee8eb0783e3349fe5f8",
      "assetIds": []
    },
    {
      "x": 185,
      "y": 167,
      "size": 1,
      "price": "1011000000000000000000",
      "reserved": "",
      "salt": "0xf73ebf7854bded058a3e9871fa187666bb7acebbf9ce4e9b9e51151ec775aec5",
      "assetIds": []
    },
    {
      "x": 185,
      "y": 168,
      "size": 1,
      "price": "1011000000000000000000",
      "reserved": "",
      "salt": "0xfccf949cf7d3690a9d56e31d7a60c6d16e0cf73bc9ae2ebf5c9e028eb2db23f6",
      "assetIds": []
    },
    {
      "x": 185,
      "y": 169,
      "size": 1,
      "price": "1011000000000000000000",
      "reserved": "",
      "salt": "0xffb1ecd875459245bf90ddcc51dde69daa582ead464ff61526e3afaccc419fe8",
      "assetIds": []
    },
    {
      "x": 185,
      "y": 170,
      "size": 1,
      "price": "1011000000000000000000",
      "reserved": "",
      "salt": "0xfe95fcd1f6b1352eb13da67345d5b498bc2bcbbcac74310012ee9da5130a311e",
      "assetIds": []
    },
    {
      "x": 185,
      "y": 171,
      "size": 1,
      "price": "1011000000000000000000",
      "reserved": "",
      "salt": "0x96eac8447390a90fe75b763b6ebc8d6b03251defc9c3f69dab47ac5e6832b0a7",
      "assetIds": []
    },
    {
      "x": 185,
      "y": 172,
      "size": 1,
      "price": "1011000000000000000000",
      "reserved": "",
      "salt": "0x8eec24669a16cd19b6eb93f2246fa9bbcade3aaa11822ac3a35a399cbb377a09",
      "assetIds": []
    },
    {
      "x": 185,
      "y": 173,
      "size": 1,
      "price": "1011000000000000000000",
      "reserved": "",
      "salt": "0x061f28b1faf9002871739628d9e4d26824e05f219e1a9597dee6f46886205072",
      "assetIds": []
    },
    {
      "x": 185,
      "y": 174,
      "size": 1,
      "price": "1011000000000000000000",
      "reserved": "",
      "salt": "0xc90161a6e01db459413299bbc687ddc1d6227fade460011934dac9baca9c170d",
      "assetIds": []
    },
    {
      "x": 185,
      "y": 175,
      "size": 1,
      "price": "1011000000000000000000",
      "reserved": "",
      "salt": "0xae995c14be9d1932c2c0d803edd3061c9b961c1b4e64262b4371854d8fa79195",
      "assetIds": []
    },
    {
      "x": 185,
      "y": 176,
      "size": 1,
      "price": "1011000000000000000000",
      "reserved": "",
      "salt": "0x8acfa631be9be3dda4c73e9578bb34e0d212a4c86d540c9c9952a3ec3d9437df",
      "assetIds": []
    },
    {
      "x": 185,
      "y": 177,
      "size": 1,
      "price": "4683000000000000000000",
      "reserved": "",
      "salt": "0x4563a8454120be8e5dbc599e84649a87411ec5597ef036bc74e9423169bbc676",
      "assetIds": [
        "55464657044963196816950587289035428064568320970692304673817341489687933519878",
        "55464657044963196816950587289035428064568320970692304673817341489687933519885",
        "55464657044963196816950587289035428064568320970692304673817341489687933519888",
        "55464657044963196816950587289035428064568320970692304673817341489687933519877",
        "55464657044963196816950587289035428064568320970692304673817341489687941879809",
        "55464657044963196816950587289035428064568320970692304673817341489687933519881"
      ]
    },
    {
      "x": 185,
      "y": 178,
      "size": 1,
      "price": "4683000000000000000000",
      "reserved": "",
      "salt": "0xc4ac3284d1aeb99be0a01af88fd7fb8c7bc544aa928be228d714c19a2e35186b",
      "assetIds": [
        "55464657044963196816950587289035428064568320970692304673817341489687933519878",
        "55464657044963196816950587289035428064568320970692304673817341489687933519885",
        "55464657044963196816950587289035428064568320970692304673817341489687933519888",
        "55464657044963196816950587289035428064568320970692304673817341489687933519877",
        "55464657044963196816950587289035428064568320970692304673817341489687941879809",
        "55464657044963196816950587289035428064568320970692304673817341489687933519881"
      ]
    },
    {
      "x": 185,
      "y": 179,
      "size": 1,
      "price": "1011000000000000000000",
      "reserved": "0x7a9fe22691c811ea339d9b73150e6911a5343dca",
      "salt": "0x0a9dbbd661a55d78c6f00ac20247c73ae338317de9c7ca7c000bbd79dd8009af",
      "assetIds": []
    },
    {
      "x": 185,
      "y": 186,
      "size": 1,
      "price": "1011000000000000000000",
      "reserved": "",
      "salt": "0x4377270dbe1615e7f2abac7b766307000c04697fe0751ff9ed486bd7e10142fc",
      "assetIds": []
    },
    {
      "x": 185,
      "y": 187,
      "size": 1,
      "price": "1011000000000000000000",
      "reserved": "",
      "salt": "0xbc2281edfe500dfadbf2f270c02110a0115d6490808fcc0cb7a7c0ff40f093cd",
      "assetIds": []
    },
    {
      "x": 185,
      "y": 188,
      "size": 1,
      "price": "1011000000000000000000",
      "reserved": "",
      "salt": "0xbdd30d77067255f8ba195ec24ba0641c056e5641aaf308930073b478041bd2c0",
      "assetIds": []
    },
    {
      "x": 185,
      "y": 189,
      "size": 1,
      "price": "1011000000000000000000",
      "reserved": "",
      "salt": "0x69195720e45e34af57eb8aa7724cbc2ef09a92ea604a3788a73f4f9fd9bd86a3",
      "assetIds": []
    },
    {
      "x": 185,
      "y": 190,
      "size": 1,
      "price": "1011000000000000000000",
      "reserved": "",
      "salt": "0x32c5c3b73b53e3b6df0699f36f67b7961dee454b6e54835a6454de75ddaa5a52",
      "assetIds": []
    },
    {
      "x": 185,
      "y": 191,
      "size": 1,
      "price": "1011000000000000000000",
      "reserved": "",
      "salt": "0x1e6e64444c260ef973f20ddcdca9eaefef9300638cc86db935a71a4c0d8472fc",
      "assetIds": []
    },
    {
      "x": 185,
      "y": 195,
      "size": 1,
      "price": "1011000000000000000000",
      "reserved": "",
      "salt": "0x01ceaf106e7b648d2cebbd14c2ca848048da42afa444e5d163c6f31e1848eacd",
      "assetIds": []
    },
    {
      "x": 185,
      "y": 196,
      "size": 1,
      "price": "1011000000000000000000",
      "reserved": "",
      "salt": "0x55588f3aa8017515e6af65084aa94f0fb7f409b0097772ab4a350d73354d6fcb",
      "assetIds": []
    },
    {
      "x": 185,
      "y": 197,
      "size": 1,
      "price": "1011000000000000000000",
      "reserved": "",
      "salt": "0xf5912db4b0254c54a2feb0e8632608c1cd1f7d893cc8d8b3c8fe8561e8293af5",
      "assetIds": []
    },
    {
      "x": 186,
      "y": 164,
      "size": 1,
      "price": "1011000000000000000000",
      "reserved": "",
      "salt": "0xea1294e9860c96f827292350c364806e45400d5c79d8027c947174c2ec9e67cc",
      "assetIds": []
    },
    {
      "x": 186,
      "y": 165,
      "size": 1,
      "price": "1011000000000000000000",
      "reserved": "",
      "salt": "0x0394564c77fb01f481fbebcb5c5e27799a9cde45c966d4cfce9a5a523c6d19f0",
      "assetIds": []
    },
    {
      "x": 186,
      "y": 166,
      "size": 1,
      "price": "1011000000000000000000",
      "reserved": "",
      "salt": "0x0f67d92a9d0d2db81aa1c129197e9e14d98b0cd4c3a0dd138959f3c76e57b3f8",
      "assetIds": []
    },
    {
      "x": 186,
      "y": 167,
      "size": 1,
      "price": "1011000000000000000000",
      "reserved": "",
      "salt": "0x3866e9c9e2606f8fe2277d06662727bd157249d633dba80a9cde39b9568e75be",
      "assetIds": []
    },
    {
      "x": 186,
      "y": 168,
      "size": 1,
      "price": "1011000000000000000000",
      "reserved": "",
      "salt": "0x6034fadfc188d5c3b0b67fcc040a93cbc53d864c3ad46e29ed8aa83f10b282dc",
      "assetIds": []
    },
    {
      "x": 186,
      "y": 169,
      "size": 1,
      "price": "1011000000000000000000",
      "reserved": "",
      "salt": "0x73730256262c82b568273cbf58ffb069fa54d2b6455c1fcd15a0206c99fc63d5",
      "assetIds": []
    },
    {
      "x": 186,
      "y": 170,
      "size": 1,
      "price": "1011000000000000000000",
      "reserved": "",
      "salt": "0x64bd7b9e24115bc61fd1b10e79dbd5729d3e9a5edef4df3ec4056b74c73a8285",
      "assetIds": []
    },
    {
      "x": 186,
      "y": 171,
      "size": 1,
      "price": "1011000000000000000000",
      "reserved": "",
      "salt": "0xe727eaaf0e8fdf1b2d11e9766a63a529decb0404cdf8158d258496b66b534097",
      "assetIds": []
    },
    {
      "x": 186,
      "y": 172,
      "size": 1,
      "price": "1011000000000000000000",
      "reserved": "0x7a9fe22691c811ea339d9b73150e6911a5343dca",
      "salt": "0x7440e46474d6cd74f4461b6962b0771771e15cf4f2ced7eed9ac495549fe2f3e",
      "assetIds": []
    },
    {
      "x": 186,
      "y": 173,
      "size": 1,
      "price": "4683000000000000000000",
      "reserved": "",
      "salt": "0x93c5f947b1501939fa0cf4e129a28dc4f17b0c6367658085667003bd53e20898",
      "assetIds": [
        "55464657044963196816950587289035428064568320970692304673817341489687941879808",
        "55464657044963196816950587289035428064568320970692304673817341489687933519880",
        "55464657044963196816950587289035428064568320970692304673817341489687933519882",
        "55464657044963196816950587289035428064568320970692304673817341489687933519886",
        "55464657044963196816950587289035428064568320970692304673817341489687933519883"
      ]
    },
    {
      "x": 186,
      "y": 174,
      "size": 1,
      "price": "4683000000000000000000",
      "reserved": "",
      "salt": "0xa9c206d76489286061c0203e8df7379305938f46eb3ed6577280c40ecba28df7",
      "assetIds": [
        "55464657044963196816950587289035428064568320970692304673817341489687933519875",
        "55464657044963196816950587289035428064568320970692304673817341489687933519884",
        "55464657044963196816950587289035428064568320970692304673817341489687941879810",
        "55464657044963196816950587289035428064568320970692304673817341489687933519872",
        "55464657044963196816950587289035428064568320970692304673817341489687933519879",
        "55464657044963196816950587289035428064568320970692304673817341489687933519874"
      ]
    },
    {
      "x": 186,
      "y": 175,
      "size": 1,
      "price": "4683000000000000000000",
      "reserved": "",
      "salt": "0x75c7958deae2d58a473284359c394d18ee14291441ed8ba8331713226df698dc",
      "assetIds": [
        "55464657044963196816950587289035428064568320970692304673817341489687933519875",
        "55464657044963196816950587289035428064568320970692304673817341489687933519884",
        "55464657044963196816950587289035428064568320970692304673817341489687941879810",
        "55464657044963196816950587289035428064568320970692304673817341489687933519872",
        "55464657044963196816950587289035428064568320970692304673817341489687933519879",
        "55464657044963196816950587289035428064568320970692304673817341489687933519874"
      ]
    },
    {
      "x": 186,
      "y": 176,
      "size": 1,
      "price": "4683000000000000000000",
      "reserved": "",
      "salt": "0x840f5907585e9d1ee760a82a804024b6c78db8e3e58c375814e8d9f4a97df425",
      "assetIds": [
        "55464657044963196816950587289035428064568320970692304673817341489687933519875",
        "55464657044963196816950587289035428064568320970692304673817341489687933519884",
        "55464657044963196816950587289035428064568320970692304673817341489687941879810",
        "55464657044963196816950587289035428064568320970692304673817341489687933519872",
        "55464657044963196816950587289035428064568320970692304673817341489687933519879",
        "55464657044963196816950587289035428064568320970692304673817341489687933519874"
      ]
    },
    {
      "x": 186,
      "y": 177,
      "size": 1,
      "price": "4683000000000000000000",
      "reserved": "",
      "salt": "0xf6dc29277dd9f4f794ce0cc1de4f242f2e86dadcb7f46c8ac0f03a18e2c2afe1",
      "assetIds": [
        "55464657044963196816950587289035428064568320970692304673817341489687933519878",
        "55464657044963196816950587289035428064568320970692304673817341489687933519885",
        "55464657044963196816950587289035428064568320970692304673817341489687933519888",
        "55464657044963196816950587289035428064568320970692304673817341489687933519877",
        "55464657044963196816950587289035428064568320970692304673817341489687941879809",
        "55464657044963196816950587289035428064568320970692304673817341489687933519881"
      ]
    },
    {
      "x": 186,
      "y": 178,
      "size": 1,
      "price": "4683000000000000000000",
      "reserved": "",
      "salt": "0xeb37befee05c4583c081b33a1a802d52140b52f95adcb06eacd92fce7a684d57",
      "assetIds": [
        "55464657044963196816950587289035428064568320970692304673817341489687941879808",
        "55464657044963196816950587289035428064568320970692304673817341489687933519880",
        "55464657044963196816950587289035428064568320970692304673817341489687933519882",
        "55464657044963196816950587289035428064568320970692304673817341489687933519886",
        "55464657044963196816950587289035428064568320970692304673817341489687933519883"
      ]
    },
    {
      "x": 186,
      "y": 179,
      "size": 1,
      "price": "4683000000000000000000",
      "reserved": "",
      "salt": "0xc87227974799841e23e82afc6de7ea3e22f50c207beeecb5dc19bd201b8a869a",
      "assetIds": [
        "55464657044963196816950587289035428064568320970692304673817341489687933519875",
        "55464657044963196816950587289035428064568320970692304673817341489687933519884",
        "55464657044963196816950587289035428064568320970692304673817341489687941879810",
        "55464657044963196816950587289035428064568320970692304673817341489687933519872",
        "55464657044963196816950587289035428064568320970692304673817341489687933519879",
        "55464657044963196816950587289035428064568320970692304673817341489687933519874"
      ]
    },
    {
      "x": 186,
      "y": 180,
      "size": 1,
      "price": "4683000000000000000000",
      "reserved": "",
      "salt": "0xbd4ec03cc02cc0e62e2b1274582be5d9e9eabf3f7c9a040208e2ee649a32a15b",
      "assetIds": [
        "55464657044963196816950587289035428064568320970692304673817341489687933519878",
        "55464657044963196816950587289035428064568320970692304673817341489687933519885",
        "55464657044963196816950587289035428064568320970692304673817341489687933519888",
        "55464657044963196816950587289035428064568320970692304673817341489687933519877",
        "55464657044963196816950587289035428064568320970692304673817341489687941879809",
        "55464657044963196816950587289035428064568320970692304673817341489687933519881"
      ]
    },
    {
      "x": 186,
      "y": 181,
      "size": 1,
      "price": "4683000000000000000000",
      "reserved": "",
      "salt": "0xcdabe47068d8fc1f1e534e538790d99436bdb572200934727c23be534f40118f",
      "assetIds": [
        "55464657044963196816950587289035428064568320970692304673817341489687941879808",
        "55464657044963196816950587289035428064568320970692304673817341489687933519880",
        "55464657044963196816950587289035428064568320970692304673817341489687933519882",
        "55464657044963196816950587289035428064568320970692304673817341489687933519886",
        "55464657044963196816950587289035428064568320970692304673817341489687933519883"
      ]
    },
    {
      "x": 186,
      "y": 182,
      "size": 1,
      "price": "4683000000000000000000",
      "reserved": "",
      "salt": "0x08c13e138785e5dfc52f744db6a58c6ed0cf2e6db7244a077389e70269642e56",
      "assetIds": [
        "55464657044963196816950587289035428064568320970692304673817341489687933519875",
        "55464657044963196816950587289035428064568320970692304673817341489687933519884",
        "55464657044963196816950587289035428064568320970692304673817341489687941879810",
        "55464657044963196816950587289035428064568320970692304673817341489687933519872",
        "55464657044963196816950587289035428064568320970692304673817341489687933519879",
        "55464657044963196816950587289035428064568320970692304673817341489687933519874"
      ]
    },
    {
      "x": 186,
      "y": 189,
      "size": 1,
      "price": "1011000000000000000000",
      "reserved": "",
      "salt": "0x1f2ce18cbf4382d40580d712b1e6dcf0b3127f692f4e6f9545a09f200f5ea193",
      "assetIds": []
    },
    {
      "x": 186,
      "y": 190,
      "size": 1,
      "price": "1011000000000000000000",
      "reserved": "",
      "salt": "0x7a6a7c87ab9535367efcd4c9916f09095ad9c033128411ef052edda4ab0d76ef",
      "assetIds": []
    },
    {
      "x": 186,
      "y": 191,
      "size": 1,
      "price": "1011000000000000000000",
      "reserved": "",
      "salt": "0x38f61c36c55cc9d3aef725d932d96de3a4f0c7cd94000c11efa331dc406e2d83",
      "assetIds": []
    },
    {
      "x": 186,
      "y": 192,
      "size": 1,
      "price": "1011000000000000000000",
      "reserved": "",
      "salt": "0x0568ea211753012b50a7edd87c6c2f7126e95bc5c77acfc91c0fa8fd7adffbdb",
      "assetIds": []
    },
    {
      "x": 186,
      "y": 193,
      "size": 1,
      "price": "1011000000000000000000",
      "reserved": "",
      "salt": "0x22ec63cdbad47b7556ce497192953aed24e0752dbacc178340e25fff7c32af22",
      "assetIds": []
    },
    {
      "x": 186,
      "y": 194,
      "size": 1,
      "price": "1011000000000000000000",
      "reserved": "",
      "salt": "0xd6f29e96b9d000dd87d2eaa1822a16af9fe9dd2a08ec3f2969093b9f3fd0dacd",
      "assetIds": []
    },
    {
      "x": 187,
      "y": 164,
      "size": 1,
      "price": "1011000000000000000000",
      "reserved": "",
      "salt": "0x683eb1d6be42bf7fbd6b873709396ee601ae1f1b23db1c27226ebcb39ea14da3",
      "assetIds": []
    },
    {
      "x": 187,
      "y": 165,
      "size": 1,
      "price": "1011000000000000000000",
      "reserved": "",
      "salt": "0x2ceba226ba6b5ca6e10ef0cfc917d3fd5e08f688c5750332ba53d38a96585352",
      "assetIds": []
    },
    {
      "x": 187,
      "y": 166,
      "size": 1,
      "price": "1011000000000000000000",
      "reserved": "",
      "salt": "0xa761eafbd23361d270c26c623dd13236426968c455e49c8d82bb58db260befa4",
      "assetIds": []
    },
    {
      "x": 187,
      "y": 167,
      "size": 1,
      "price": "1011000000000000000000",
      "reserved": "",
      "salt": "0xe0586e515cfde0051c64c6556533e7934f7af8dd5f2abff545f312f33100b415",
      "assetIds": []
    },
    {
      "x": 187,
      "y": 168,
      "size": 1,
      "price": "1011000000000000000000",
      "reserved": "",
      "salt": "0xf45bd2b9406838fb241b3805094cfdd2ba39ef4c243f32f8bda024023014c5bc",
      "assetIds": []
    },
    {
      "x": 187,
      "y": 169,
      "size": 1,
      "price": "1011000000000000000000",
      "reserved": "",
      "salt": "0xffe06fbb87edc2afaebe71b0fa1296e7e80b9352e70e32ea89ec1073113dd993",
      "assetIds": []
    },
    {
      "x": 187,
      "y": 170,
      "size": 1,
      "price": "1011000000000000000000",
      "reserved": "",
      "salt": "0x721f0cb516d0945892b976db61dadea76a29e49b594eb9ff75992e3d69ae056e",
      "assetIds": []
    },
    {
      "x": 187,
      "y": 171,
      "size": 1,
      "price": "1011000000000000000000",
      "reserved": "",
      "salt": "0x5496ed0d19bc84576de1a203078a53c9ac424f87f21f289bab9a8d25ead30a44",
      "assetIds": []
    },
    {
      "x": 187,
      "y": 172,
      "size": 1,
      "price": "1011000000000000000000",
      "reserved": "",
      "salt": "0x8f3c71f8143b68059ef081b16b62b55f921c655236b344690fe7f5086ae85e78",
      "assetIds": []
    },
    {
      "x": 187,
      "y": 173,
      "size": 1,
      "price": "4683000000000000000000",
      "reserved": "",
      "salt": "0x3621f7e9d8ade7cf905aff566f11c84c006d6c5605ced13b196b9586f3ec142a",
      "assetIds": [
        "55464657044963196816950587289035428064568320970692304673817341489687941879808",
        "55464657044963196816950587289035428064568320970692304673817341489687933519880",
        "55464657044963196816950587289035428064568320970692304673817341489687933519882",
        "55464657044963196816950587289035428064568320970692304673817341489687933519886",
        "55464657044963196816950587289035428064568320970692304673817341489687933519883"
      ]
    },
    {
      "x": 187,
      "y": 174,
      "size": 1,
      "price": "4683000000000000000000",
      "reserved": "",
      "salt": "0x40fa37bbc29c939e2b97f4fb47c9303b2d8fed0218c9cf54e2a67cbfae874138",
      "assetIds": [
        "55464657044963196816950587289035428064568320970692304673817341489687933519878",
        "55464657044963196816950587289035428064568320970692304673817341489687933519885",
        "55464657044963196816950587289035428064568320970692304673817341489687933519888",
        "55464657044963196816950587289035428064568320970692304673817341489687933519877",
        "55464657044963196816950587289035428064568320970692304673817341489687941879809",
        "55464657044963196816950587289035428064568320970692304673817341489687933519881"
      ]
    },
    {
      "x": 187,
      "y": 175,
      "size": 1,
      "price": "4683000000000000000000",
      "reserved": "",
      "salt": "0x1ef763b54db9121874e7c26a0c885b233f062de61744d733fac49ac6baf82ccd",
      "assetIds": [
        "55464657044963196816950587289035428064568320970692304673817341489687933519878",
        "55464657044963196816950587289035428064568320970692304673817341489687933519885",
        "55464657044963196816950587289035428064568320970692304673817341489687933519888",
        "55464657044963196816950587289035428064568320970692304673817341489687933519877",
        "55464657044963196816950587289035428064568320970692304673817341489687941879809",
        "55464657044963196816950587289035428064568320970692304673817341489687933519881"
      ]
    },
    {
      "x": 187,
      "y": 176,
      "size": 1,
      "price": "4683000000000000000000",
      "reserved": "",
      "salt": "0x3a04829295c07a5d7b00b2cb4f9720495535202d520e452d34e822361d9fb593",
      "assetIds": [
        "55464657044963196816950587289035428064568320970692304673817341489687941879808",
        "55464657044963196816950587289035428064568320970692304673817341489687933519880",
        "55464657044963196816950587289035428064568320970692304673817341489687933519882",
        "55464657044963196816950587289035428064568320970692304673817341489687933519886",
        "55464657044963196816950587289035428064568320970692304673817341489687933519883"
      ]
    },
    {
      "x": 187,
      "y": 177,
      "size": 1,
      "price": "4683000000000000000000",
      "reserved": "",
      "salt": "0x02f477143bae6686fb9e8c6b441b7563b83b52d1c1bd0c68ca2597fdd1c17656",
      "assetIds": [
        "55464657044963196816950587289035428064568320970692304673817341489687941879808",
        "55464657044963196816950587289035428064568320970692304673817341489687933519880",
        "55464657044963196816950587289035428064568320970692304673817341489687933519882",
        "55464657044963196816950587289035428064568320970692304673817341489687933519886",
        "55464657044963196816950587289035428064568320970692304673817341489687933519883"
      ]
    },
    {
      "x": 187,
      "y": 178,
      "size": 1,
      "price": "4683000000000000000000",
      "reserved": "",
      "salt": "0x33d3d90c8de0317cc708f6518c4b3511e58cfa5652655d57107bd837dc37d055",
      "assetIds": [
        "55464657044963196816950587289035428064568320970692304673817341489687941879808",
        "55464657044963196816950587289035428064568320970692304673817341489687933519880",
        "55464657044963196816950587289035428064568320970692304673817341489687933519882",
        "55464657044963196816950587289035428064568320970692304673817341489687933519886",
        "55464657044963196816950587289035428064568320970692304673817341489687933519883"
      ]
    },
    {
      "x": 187,
      "y": 179,
      "size": 1,
      "price": "4683000000000000000000",
      "reserved": "",
      "salt": "0xee9786fec8dfe5ac8589f7f5e5bc297550068a00961beb7e972f5a2b72a335d3",
      "assetIds": [
        "55464657044963196816950587289035428064568320970692304673817341489687933519875",
        "55464657044963196816950587289035428064568320970692304673817341489687933519884",
        "55464657044963196816950587289035428064568320970692304673817341489687941879810",
        "55464657044963196816950587289035428064568320970692304673817341489687933519872",
        "55464657044963196816950587289035428064568320970692304673817341489687933519879",
        "55464657044963196816950587289035428064568320970692304673817341489687933519874"
      ]
    },
    {
      "x": 187,
      "y": 180,
      "size": 1,
      "price": "4683000000000000000000",
      "reserved": "",
      "salt": "0x79191637f909defca16444b4174ed8ef687bcc3838639493182a63be5d36892a",
      "assetIds": [
        "55464657044963196816950587289035428064568320970692304673817341489687941879808",
        "55464657044963196816950587289035428064568320970692304673817341489687933519880",
        "55464657044963196816950587289035428064568320970692304673817341489687933519882",
        "55464657044963196816950587289035428064568320970692304673817341489687933519886",
        "55464657044963196816950587289035428064568320970692304673817341489687933519883"
      ]
    },
    {
      "x": 187,
      "y": 181,
      "size": 1,
      "price": "4683000000000000000000",
      "reserved": "",
      "salt": "0xe12b5d7c4750884af663a3f60914e9d333df477a65ed5b93e407e0986c9b108c",
      "assetIds": [
        "55464657044963196816950587289035428064568320970692304673817341489687933519875",
        "55464657044963196816950587289035428064568320970692304673817341489687933519884",
        "55464657044963196816950587289035428064568320970692304673817341489687941879810",
        "55464657044963196816950587289035428064568320970692304673817341489687933519872",
        "55464657044963196816950587289035428064568320970692304673817341489687933519879",
        "55464657044963196816950587289035428064568320970692304673817341489687933519874"
      ]
    },
    {
      "x": 187,
      "y": 182,
      "size": 1,
      "price": "1011000000000000000000",
      "reserved": "0x7a9fe22691c811ea339d9b73150e6911a5343dca",
      "salt": "0x05e039f69715407ac05d07fa8bc7ce800a0f5be66704de6f3223b56c806c1200",
      "assetIds": []
    },
    {
      "x": 187,
      "y": 189,
      "size": 1,
      "price": "1011000000000000000000",
      "reserved": "",
      "salt": "0x378220945646f5c418616b19adfb6314a71784fa5b5712734636b95597a001f1",
      "assetIds": []
    },
    {
      "x": 187,
      "y": 190,
      "size": 1,
      "price": "1011000000000000000000",
      "reserved": "",
      "salt": "0x6f18e77921a5ab18f2693d5b8fcd1abcc0815457f5e0146426acdb38d4cd4558",
      "assetIds": []
    },
    {
      "x": 187,
      "y": 191,
      "size": 1,
      "price": "1011000000000000000000",
      "reserved": "",
      "salt": "0x53d175ed4ee8034f1ec3a32403addb679c43d70a986cb9ce7fe141915b4a7f0d",
      "assetIds": []
    },
    {
      "x": 187,
      "y": 192,
      "size": 1,
      "price": "1011000000000000000000",
      "reserved": "",
      "salt": "0x145feaa91bf0584061982ade6ff7693f75598ff62e6428c299f337b10e2b7cfd",
      "assetIds": []
    },
    {
      "x": 187,
      "y": 193,
      "size": 1,
      "price": "1011000000000000000000",
      "reserved": "",
      "salt": "0x4f7fbbf70568f0907d8719a4a19a8054bbaf62adabe76db9ee7b01469c8a8fa0",
      "assetIds": []
    },
    {
      "x": 187,
      "y": 194,
      "size": 1,
      "price": "1011000000000000000000",
      "reserved": "",
      "salt": "0x86aeed0c3d28be9f09d20fa83781f79d0692e65f0b5ba9d5cfc422f02eefe89c",
      "assetIds": []
    },
    {
      "x": 188,
      "y": 164,
      "size": 1,
      "price": "1011000000000000000000",
      "reserved": "0x7a9fe22691c811ea339d9b73150e6911a5343dca",
      "salt": "0x110f4771579a6c3ce577815332b8281672e918a30ac301cf8e841bc67c625300",
      "assetIds": []
    },
    {
      "x": 188,
      "y": 165,
      "size": 1,
      "price": "1011000000000000000000",
      "reserved": "",
      "salt": "0xd312138067b806ef454c595794a47024b0755a08316699961ef92e4fe89a20fd",
      "assetIds": []
    },
    {
      "x": 188,
      "y": 166,
      "size": 1,
      "price": "1011000000000000000000",
      "reserved": "",
      "salt": "0xc7ed2a1892dec4b3fb07d19ca96849c850f89199041291f86850289629487071",
      "assetIds": []
    },
    {
      "x": 188,
      "y": 167,
      "size": 1,
      "price": "1011000000000000000000",
      "reserved": "",
      "salt": "0x56e1b8579b9c5f11d2c7495f44987700bb78a89c4ae9134272cf1a28bbe8d545",
      "assetIds": []
    },
    {
      "x": 188,
      "y": 168,
      "size": 1,
      "price": "1011000000000000000000",
      "reserved": "",
      "salt": "0xff0b7116c5af2f47970cb9e0110ca2b25fc2cb03f4990f5ecd268e5f5d0c38c4",
      "assetIds": []
    },
    {
      "x": 188,
      "y": 169,
      "size": 1,
      "price": "1011000000000000000000",
      "reserved": "",
      "salt": "0x33cd4aafe56519eae998726278f948414cdae792b0f10dc0565e29057e485bdc",
      "assetIds": []
    },
    {
      "x": 188,
      "y": 170,
      "size": 1,
      "price": "1011000000000000000000",
      "reserved": "",
      "salt": "0x1d01c0fb45c104a2730bc221cdf056249cf0d48124d0cb196d7fd56f3c7a7572",
      "assetIds": []
    },
    {
      "x": 188,
      "y": 171,
      "size": 1,
      "price": "1011000000000000000000",
      "reserved": "0x7a9fe22691c811ea339d9b73150e6911a5343dca",
      "salt": "0x7a2d50209246c7ffdaa8e8dd4c3ff0d7ff6d7ec093cb43ceb32aed40bf8b8313",
      "assetIds": []
    },
    {
      "x": 188,
      "y": 172,
      "size": 1,
      "price": "1011000000000000000000",
      "reserved": "",
      "salt": "0x91b6e42a3dbe32ecdc7108abd445f4ce9863aa50b93d2b11ee190b3f54ff05e4",
      "assetIds": []
    },
    {
      "x": 188,
      "y": 173,
      "size": 1,
      "price": "4683000000000000000000",
      "reserved": "",
      "salt": "0x844f436b2b1c26e1cac203d37b1485188105b6e400fd7b9fd009c2021f41cecb",
      "assetIds": [
        "55464657044963196816950587289035428064568320970692304673817341489687941879808",
        "55464657044963196816950587289035428064568320970692304673817341489687933519880",
        "55464657044963196816950587289035428064568320970692304673817341489687933519882",
        "55464657044963196816950587289035428064568320970692304673817341489687933519886",
        "55464657044963196816950587289035428064568320970692304673817341489687933519883"
      ]
    },
    {
      "x": 188,
      "y": 174,
      "size": 1,
      "price": "4683000000000000000000",
      "reserved": "",
      "salt": "0x0a8bdab6b6c0fe4b7ed54c3161238f5a67c6958bf479c02109df2b9c0ca47d9e",
      "assetIds": [
        "55464657044963196816950587289035428064568320970692304673817341489687933519875",
        "55464657044963196816950587289035428064568320970692304673817341489687933519884",
        "55464657044963196816950587289035428064568320970692304673817341489687941879810",
        "55464657044963196816950587289035428064568320970692304673817341489687933519872",
        "55464657044963196816950587289035428064568320970692304673817341489687933519879",
        "55464657044963196816950587289035428064568320970692304673817341489687933519874"
      ]
    },
    {
      "x": 188,
      "y": 175,
      "size": 1,
      "price": "4683000000000000000000",
      "reserved": "",
      "salt": "0xf6eaa6437c91f183dbe873c4c6ce2272e4f0af0fa6f06ee461942ec8279cfd77",
      "assetIds": [
        "55464657044963196816950587289035428064568320970692304673817341489687933519878",
        "55464657044963196816950587289035428064568320970692304673817341489687933519885",
        "55464657044963196816950587289035428064568320970692304673817341489687933519888",
        "55464657044963196816950587289035428064568320970692304673817341489687933519877",
        "55464657044963196816950587289035428064568320970692304673817341489687941879809",
        "55464657044963196816950587289035428064568320970692304673817341489687933519881"
      ]
    },
    {
      "x": 188,
      "y": 176,
      "size": 1,
      "price": "4683000000000000000000",
      "reserved": "",
      "salt": "0xbf44bd2b984e29a076c24003a29ebf15869eac89f741db797be91d511f4fbc98",
      "assetIds": [
        "55464657044963196816950587289035428064568320970692304673817341489687941879808",
        "55464657044963196816950587289035428064568320970692304673817341489687933519880",
        "55464657044963196816950587289035428064568320970692304673817341489687933519882",
        "55464657044963196816950587289035428064568320970692304673817341489687933519886",
        "55464657044963196816950587289035428064568320970692304673817341489687933519883"
      ]
    },
    {
      "x": 188,
      "y": 177,
      "size": 1,
      "price": "4683000000000000000000",
      "reserved": "",
      "salt": "0x6c0dc457d4ee4d793fe42546568a79697437f61e31d0ed94fac7deab5c7f1533",
      "assetIds": [
        "55464657044963196816950587289035428064568320970692304673817341489687941879808",
        "55464657044963196816950587289035428064568320970692304673817341489687933519880",
        "55464657044963196816950587289035428064568320970692304673817341489687933519882",
        "55464657044963196816950587289035428064568320970692304673817341489687933519886",
        "55464657044963196816950587289035428064568320970692304673817341489687933519883"
      ]
    },
    {
      "x": 188,
      "y": 178,
      "size": 1,
      "price": "4683000000000000000000",
      "reserved": "",
      "salt": "0x96e50b2a753c86814f08514b29efa65632c60edeb38c0ada76bc4821513dbc90",
      "assetIds": [
        "55464657044963196816950587289035428064568320970692304673817341489687941879808",
        "55464657044963196816950587289035428064568320970692304673817341489687933519880",
        "55464657044963196816950587289035428064568320970692304673817341489687933519882",
        "55464657044963196816950587289035428064568320970692304673817341489687933519886",
        "55464657044963196816950587289035428064568320970692304673817341489687933519883"
      ]
    },
    {
      "x": 188,
      "y": 179,
      "size": 1,
      "price": "4683000000000000000000",
      "reserved": "",
      "salt": "0x52d07ce0c75f0a3aec4c4eb9004081e3e320cdba987248ce6b87a71bd2fae8fd",
      "assetIds": [
        "55464657044963196816950587289035428064568320970692304673817341489687933519875",
        "55464657044963196816950587289035428064568320970692304673817341489687933519884",
        "55464657044963196816950587289035428064568320970692304673817341489687941879810",
        "55464657044963196816950587289035428064568320970692304673817341489687933519872",
        "55464657044963196816950587289035428064568320970692304673817341489687933519879",
        "55464657044963196816950587289035428064568320970692304673817341489687933519874"
      ]
    },
    {
      "x": 188,
      "y": 180,
      "size": 1,
      "price": "4683000000000000000000",
      "reserved": "",
      "salt": "0x005f303acdaea8f3ee662cde02399146ad62f81c36ea14d1c4da663a89f9495e",
      "assetIds": [
        "55464657044963196816950587289035428064568320970692304673817341489687933519878",
        "55464657044963196816950587289035428064568320970692304673817341489687933519885",
        "55464657044963196816950587289035428064568320970692304673817341489687933519888",
        "55464657044963196816950587289035428064568320970692304673817341489687933519877",
        "55464657044963196816950587289035428064568320970692304673817341489687941879809",
        "55464657044963196816950587289035428064568320970692304673817341489687933519881"
      ]
    },
    {
      "x": 188,
      "y": 181,
      "size": 1,
      "price": "4683000000000000000000",
      "reserved": "",
      "salt": "0x1ca9774a4f28e87f4632099c190de14723d6d1f1e0ee37928b7e95be01288585",
      "assetIds": [
        "55464657044963196816950587289035428064568320970692304673817341489687933519878",
        "55464657044963196816950587289035428064568320970692304673817341489687933519885",
        "55464657044963196816950587289035428064568320970692304673817341489687933519888",
        "55464657044963196816950587289035428064568320970692304673817341489687933519877",
        "55464657044963196816950587289035428064568320970692304673817341489687941879809",
        "55464657044963196816950587289035428064568320970692304673817341489687933519881"
      ]
    },
    {
      "x": 188,
      "y": 182,
      "size": 1,
      "price": "1011000000000000000000",
      "reserved": "0x7a9fe22691c811ea339d9b73150e6911a5343dca",
      "salt": "0xf8ba2212cf6d676671734e9e78714b48325a226c6269287eec34a3fcf8e0f4ba",
      "assetIds": []
    },
    {
      "x": 188,
      "y": 189,
      "size": 1,
      "price": "1011000000000000000000",
      "reserved": "",
      "salt": "0xece552c0434ae1c7fb1c971369a60e008a0748d830843d6957f53dc34345d70a",
      "assetIds": []
    },
    {
      "x": 188,
      "y": 190,
      "size": 1,
      "price": "1011000000000000000000",
      "reserved": "",
      "salt": "0x4788d9c446981de6c4a63f46530aac54d3752514326550868856b2f6c41d2788",
      "assetIds": []
    },
    {
      "x": 188,
      "y": 191,
      "size": 1,
      "price": "1011000000000000000000",
      "reserved": "",
      "salt": "0x95b0147ed7219bc04d9ef1b7fb406223bbcd80aa11ce7700560c45eb3b4bb3e7",
      "assetIds": []
    },
    {
      "x": 188,
      "y": 192,
      "size": 1,
      "price": "4683000000000000000000",
      "reserved": "",
      "salt": "0x3f3407bffa5e680feefbcd8dc962a8451a424c090db8588ccf2de4ace292d6fd",
      "assetIds": [
        "55464657044963196816950587289035428064568320970692304673817341489687933519878",
        "55464657044963196816950587289035428064568320970692304673817341489687933519885",
        "55464657044963196816950587289035428064568320970692304673817341489687933519888",
        "55464657044963196816950587289035428064568320970692304673817341489687933519877",
        "55464657044963196816950587289035428064568320970692304673817341489687941879809",
        "55464657044963196816950587289035428064568320970692304673817341489687933519881"
      ]
    },
    {
      "x": 188,
      "y": 193,
      "size": 1,
      "price": "4683000000000000000000",
      "reserved": "",
      "salt": "0xb70f82c421420ca0e3f74f49212dc01e73559a1b40959dfdf4fc3af2b8990273",
      "assetIds": [
        "55464657044963196816950587289035428064568320970692304673817341489687933519878",
        "55464657044963196816950587289035428064568320970692304673817341489687933519885",
        "55464657044963196816950587289035428064568320970692304673817341489687933519888",
        "55464657044963196816950587289035428064568320970692304673817341489687933519877",
        "55464657044963196816950587289035428064568320970692304673817341489687941879809",
        "55464657044963196816950587289035428064568320970692304673817341489687933519881"
      ]
    },
    {
      "x": 188,
      "y": 194,
      "size": 1,
      "price": "1011000000000000000000",
      "reserved": "",
      "salt": "0xaf8906b424b7f996c83e2e0336bced17eacd7faa4eb94a682f66c81cdb8fd69a",
      "assetIds": []
    },
    {
      "x": 189,
      "y": 164,
      "size": 1,
      "price": "1011000000000000000000",
      "reserved": "",
      "salt": "0x5ff92cf3c9c8f4235a47a216dbf1608f324cd8be98c3a4711ddd5e5d411d964a",
      "assetIds": []
    },
    {
      "x": 189,
      "y": 165,
      "size": 1,
      "price": "1011000000000000000000",
      "reserved": "",
      "salt": "0xed103ddaafcde76c963406bc4176a9daad8426befbd14085c10668863dc19aae",
      "assetIds": []
    },
    {
      "x": 189,
      "y": 166,
      "size": 1,
      "price": "1011000000000000000000",
      "reserved": "",
      "salt": "0x2ed853f82c6929f7038415484f9dcd2492cc424c4b18223848c593d14654bf16",
      "assetIds": []
    },
    {
      "x": 189,
      "y": 167,
      "size": 1,
      "price": "1011000000000000000000",
      "reserved": "",
      "salt": "0x5e5892731d83d13ded33defd944a9cd04ca3e6f308b6a77754c53fa0fdf9a057",
      "assetIds": []
    },
    {
      "x": 189,
      "y": 168,
      "size": 1,
      "price": "1011000000000000000000",
      "reserved": "",
      "salt": "0x8c164cb531acb89f43c762073df2292ca1d0a09958be228d1bc00d9d28d3c774",
      "assetIds": []
    },
    {
      "x": 189,
      "y": 169,
      "size": 1,
      "price": "1011000000000000000000",
      "reserved": "",
      "salt": "0x2490c719470c58504f68696f1e564cd265ddb6fd785cf0969c3bbe2cf838732f",
      "assetIds": []
    },
    {
      "x": 189,
      "y": 170,
      "size": 1,
      "price": "1011000000000000000000",
      "reserved": "",
      "salt": "0x5d4510d56052b878304a3082a009c6e697fafcf2e7fc1c290212ec20f54ae6b3",
      "assetIds": []
    },
    {
      "x": 189,
      "y": 171,
      "size": 1,
      "price": "1011000000000000000000",
      "reserved": "",
      "salt": "0xb138a00d3f9eabb3bab216a10f05579547bf8f0407e34dca095f20c486e0d027",
      "assetIds": []
    },
    {
      "x": 189,
      "y": 172,
      "size": 1,
      "price": "1011000000000000000000",
      "reserved": "",
      "salt": "0x73683ce1c363bc01b26026e2dae6fb27400ba14fc4d9f5b5d61ae93e279fbde0",
      "assetIds": []
    },
    {
      "x": 189,
      "y": 173,
      "size": 1,
      "price": "1011000000000000000000",
      "reserved": "",
      "salt": "0x3bd6b8797b016ebb0a1dfb622535e46a74342e0b373e723dbd01fb8ff136d58a",
      "assetIds": []
    },
    {
      "x": 189,
      "y": 174,
      "size": 1,
      "price": "4683000000000000000000",
      "reserved": "",
      "salt": "0x6bb0c18e0544c5b358970ed9724b76570af356cbd7e745abe03077b72c62c177",
      "assetIds": [
        "55464657044963196816950587289035428064568320970692304673817341489687933519875",
        "55464657044963196816950587289035428064568320970692304673817341489687933519884",
        "55464657044963196816950587289035428064568320970692304673817341489687941879810",
        "55464657044963196816950587289035428064568320970692304673817341489687933519872",
        "55464657044963196816950587289035428064568320970692304673817341489687933519879",
        "55464657044963196816950587289035428064568320970692304673817341489687933519874"
      ]
    },
    {
      "x": 189,
      "y": 175,
      "size": 1,
      "price": "4683000000000000000000",
      "reserved": "",
      "salt": "0x831f581950b27d0a64821eff8a9613695a712527726d6706013cb9dafa2a074b",
      "assetIds": [
        "55464657044963196816950587289035428064568320970692304673817341489687933519875",
        "55464657044963196816950587289035428064568320970692304673817341489687933519884",
        "55464657044963196816950587289035428064568320970692304673817341489687941879810",
        "55464657044963196816950587289035428064568320970692304673817341489687933519872",
        "55464657044963196816950587289035428064568320970692304673817341489687933519879",
        "55464657044963196816950587289035428064568320970692304673817341489687933519874"
      ]
    },
    {
      "x": 189,
      "y": 176,
      "size": 1,
      "price": "4683000000000000000000",
      "reserved": "",
      "salt": "0xd99874aded730ed89d50939588bd761e8cb7c29207cae650568fa9ed4f4b1032",
      "assetIds": [
        "55464657044963196816950587289035428064568320970692304673817341489687933519875",
        "55464657044963196816950587289035428064568320970692304673817341489687933519884",
        "55464657044963196816950587289035428064568320970692304673817341489687941879810",
        "55464657044963196816950587289035428064568320970692304673817341489687933519872",
        "55464657044963196816950587289035428064568320970692304673817341489687933519879",
        "55464657044963196816950587289035428064568320970692304673817341489687933519874"
      ]
    },
    {
      "x": 189,
      "y": 180,
      "size": 1,
      "price": "4683000000000000000000",
      "reserved": "",
      "salt": "0x9926a0958cc71f62c5bd96566695a2e076e7255b35cec5e558cac743543e8b7a",
      "assetIds": [
        "55464657044963196816950587289035428064568320970692304673817341489687933519875",
        "55464657044963196816950587289035428064568320970692304673817341489687933519884",
        "55464657044963196816950587289035428064568320970692304673817341489687941879810",
        "55464657044963196816950587289035428064568320970692304673817341489687933519872",
        "55464657044963196816950587289035428064568320970692304673817341489687933519879",
        "55464657044963196816950587289035428064568320970692304673817341489687933519874"
      ]
    },
    {
      "x": 189,
      "y": 181,
      "size": 1,
      "price": "4683000000000000000000",
      "reserved": "",
      "salt": "0x6a04794e85a902f53f7e90529332c81949a28d9506898108391b6fca1beac521",
      "assetIds": [
        "55464657044963196816950587289035428064568320970692304673817341489687933519878",
        "55464657044963196816950587289035428064568320970692304673817341489687933519885",
        "55464657044963196816950587289035428064568320970692304673817341489687933519888",
        "55464657044963196816950587289035428064568320970692304673817341489687933519877",
        "55464657044963196816950587289035428064568320970692304673817341489687941879809",
        "55464657044963196816950587289035428064568320970692304673817341489687933519881"
      ]
    },
    {
      "x": 189,
      "y": 182,
      "size": 1,
      "price": "4683000000000000000000",
      "reserved": "",
      "salt": "0x3eb3f0e821020ee8e68a327bb43a596855ebf96808cfe1f647c08b239643db43",
      "assetIds": [
        "55464657044963196816950587289035428064568320970692304673817341489687933519878",
        "55464657044963196816950587289035428064568320970692304673817341489687933519885",
        "55464657044963196816950587289035428064568320970692304673817341489687933519888",
        "55464657044963196816950587289035428064568320970692304673817341489687933519877",
        "55464657044963196816950587289035428064568320970692304673817341489687941879809",
        "55464657044963196816950587289035428064568320970692304673817341489687933519881"
      ]
    },
    {
      "x": 189,
      "y": 183,
      "size": 1,
      "price": "1011000000000000000000",
      "reserved": "",
      "salt": "0xc40692dbcb03f2e6854dc57ba3fbc8cc39f25ecd36c758b2c3a675f01407cfc6",
      "assetIds": []
    },
    {
      "x": 189,
      "y": 184,
      "size": 1,
      "price": "1011000000000000000000",
      "reserved": "",
      "salt": "0x58dcae6d6e901f2608e477a41ed20039c1004a523020ae16e0e7c75e8ac98b35",
      "assetIds": []
    },
    {
      "x": 189,
      "y": 185,
      "size": 1,
      "price": "1011000000000000000000",
      "reserved": "",
      "salt": "0x949a8fbd0d948120b05c6d6f7548a6168ef736dca5caa10327f4c65096ec69bc",
      "assetIds": []
    },
    {
      "x": 189,
      "y": 186,
      "size": 1,
      "price": "1011000000000000000000",
      "reserved": "",
      "salt": "0x607de0a58d7c0ec41c111d3e94daead47c1f6fad75e6bb1cfcfc7a3a3f11fd45",
      "assetIds": []
    },
    {
      "x": 189,
      "y": 187,
      "size": 1,
      "price": "1011000000000000000000",
      "reserved": "",
      "salt": "0x756f01c49347b20eb63f981c59b15ba47803774ba3376e3ebe754b49d137aa34",
      "assetIds": []
    },
    {
      "x": 189,
      "y": 188,
      "size": 1,
      "price": "1011000000000000000000",
      "reserved": "",
      "salt": "0xc4d9aef113943c2284752356318aa02d2d8046f55376726a95d1b9aaef7b45f0",
      "assetIds": []
    },
    {
      "x": 189,
      "y": 189,
      "size": 1,
      "price": "1011000000000000000000",
      "reserved": "",
      "salt": "0xfd7e2211b9b5ccbaa081b558a6492d9a5e07ffa242eae267dcf5ddd58fc74c01",
      "assetIds": []
    },
    {
      "x": 189,
      "y": 190,
      "size": 1,
      "price": "1011000000000000000000",
      "reserved": "0x7a9fe22691c811ea339d9b73150e6911a5343dca",
      "salt": "0x09ca5d6969730623239b6370d5c98b37243dbc6d1b5dcd69eada000b0acc8eee",
      "assetIds": []
    },
    {
      "x": 189,
      "y": 191,
      "size": 1,
      "price": "1011000000000000000000",
      "reserved": "",
      "salt": "0x2f317cfa21b6676bba775674c07b2d699b2cd7eb6b7e7f79d5dca9856581c501",
      "assetIds": []
    },
    {
      "x": 189,
      "y": 192,
      "size": 1,
      "price": "4683000000000000000000",
      "reserved": "",
      "salt": "0xa16c000988db2f2bd89c0dc2579e1165ac0c68d4579cceff43c10003adc91129",
      "assetIds": [
        "55464657044963196816950587289035428064568320970692304673817341489687941879808",
        "55464657044963196816950587289035428064568320970692304673817341489687933519880",
        "55464657044963196816950587289035428064568320970692304673817341489687933519882",
        "55464657044963196816950587289035428064568320970692304673817341489687933519886",
        "55464657044963196816950587289035428064568320970692304673817341489687933519883"
      ]
    },
    {
      "x": 189,
      "y": 193,
      "size": 1,
      "price": "4683000000000000000000",
      "reserved": "",
      "salt": "0xfb21d48d5f68853594a2ddbc8928ca9b9c3edc9f515d95eee01040ab2b5d6066",
      "assetIds": [
        "55464657044963196816950587289035428064568320970692304673817341489687933519875",
        "55464657044963196816950587289035428064568320970692304673817341489687933519884",
        "55464657044963196816950587289035428064568320970692304673817341489687941879810",
        "55464657044963196816950587289035428064568320970692304673817341489687933519872",
        "55464657044963196816950587289035428064568320970692304673817341489687933519879",
        "55464657044963196816950587289035428064568320970692304673817341489687933519874"
      ]
    },
    {
      "x": 189,
      "y": 194,
      "size": 1,
      "price": "4683000000000000000000",
      "reserved": "",
      "salt": "0x7ab2999313e30f74e5db4fe58b1c9c4a5bb5dd71dac854e25a4ff6ded3271056",
      "assetIds": [
        "55464657044963196816950587289035428064568320970692304673817341489687933519878",
        "55464657044963196816950587289035428064568320970692304673817341489687933519885",
        "55464657044963196816950587289035428064568320970692304673817341489687933519888",
        "55464657044963196816950587289035428064568320970692304673817341489687933519877",
        "55464657044963196816950587289035428064568320970692304673817341489687941879809",
        "55464657044963196816950587289035428064568320970692304673817341489687933519881"
      ]
    },
    {
      "x": 190,
      "y": 164,
      "size": 1,
      "price": "1011000000000000000000",
      "reserved": "",
      "salt": "0x77790159c8b91b714491b6f13597017ea676ee407475ef201457188d99e67b17",
      "assetIds": []
    },
    {
      "x": 190,
      "y": 165,
      "size": 1,
      "price": "1011000000000000000000",
      "reserved": "",
      "salt": "0x92c9e4ae72442f0f09fbc0b50f457f078d8404b465abbc6fe5c7ff3abcb8cff8",
      "assetIds": []
    },
    {
      "x": 190,
      "y": 166,
      "size": 1,
      "price": "1011000000000000000000",
      "reserved": "0x7a9fe22691c811ea339d9b73150e6911a5343dca",
      "salt": "0x2a29dbd7faa85e18b5fddf1e047416fe98ea04ed7ad6c37ef4e0e3c83e74fe7a",
      "assetIds": []
    },
    {
      "x": 190,
      "y": 167,
      "size": 1,
      "price": "1011000000000000000000",
      "reserved": "",
      "salt": "0x8b6e233515c3474dc66e4f9baabdf99388c433d0a00e5a79f77a532abf6e5fa8",
      "assetIds": []
    },
    {
      "x": 190,
      "y": 168,
      "size": 1,
      "price": "1011000000000000000000",
      "reserved": "",
      "salt": "0x4182aecd1f376f861d934d94ba9d9d73bfa2f771aa8bf40a4a449bc634af9f9f",
      "assetIds": []
    },
    {
      "x": 190,
      "y": 169,
      "size": 1,
      "price": "1011000000000000000000",
      "reserved": "",
      "salt": "0x381a96dc4d5bd9ab921eee4d0441113f0e4526f10f94f5e8d06a6a5bbeb89003",
      "assetIds": []
    },
    {
      "x": 190,
      "y": 170,
      "size": 1,
      "price": "1011000000000000000000",
      "reserved": "",
      "salt": "0xa960633e8cc175e9a6c1b2e91c7afe6a21c1836b1032f7647ec3aa1b2f1f06d3",
      "assetIds": []
    },
    {
      "x": 190,
      "y": 171,
      "size": 1,
      "price": "1011000000000000000000",
      "reserved": "0x7a9fe22691c811ea339d9b73150e6911a5343dca",
      "salt": "0x9b26f173ef918a78e791cd0358474ae2a7076a0600f0414da2fcfcbc66e1bc99",
      "assetIds": []
    },
    {
      "x": 190,
      "y": 172,
      "size": 1,
      "price": "1011000000000000000000",
      "reserved": "",
      "salt": "0x84c72c4d22754933fe81355ccdb7cd88933dc5b55f609ae0ec455311ad659402",
      "assetIds": []
    },
    {
      "x": 190,
      "y": 173,
      "size": 1,
      "price": "1011000000000000000000",
      "reserved": "",
      "salt": "0xba54f74cd1bf4c275902afa32a3ecc32616c7a6c3c4b0a34a6ab11eeffdf8047",
      "assetIds": []
    },
    {
      "x": 190,
      "y": 174,
      "size": 1,
      "price": "4683000000000000000000",
      "reserved": "",
      "salt": "0x7b512e2f6b0d563a05169e719dacd3587091585c82e35ca1f12fd866d390b381",
      "assetIds": [
        "55464657044963196816950587289035428064568320970692304673817341489687933519875",
        "55464657044963196816950587289035428064568320970692304673817341489687933519884",
        "55464657044963196816950587289035428064568320970692304673817341489687941879810",
        "55464657044963196816950587289035428064568320970692304673817341489687933519872",
        "55464657044963196816950587289035428064568320970692304673817341489687933519879",
        "55464657044963196816950587289035428064568320970692304673817341489687933519874"
      ]
    },
    {
      "x": 190,
      "y": 175,
      "size": 1,
      "price": "4683000000000000000000",
      "reserved": "",
      "salt": "0xeee3bd24b71e6c01899df5ce265db8223b5a52af3037c0a16ef97fa65a9b5296",
      "assetIds": [
        "55464657044963196816950587289035428064568320970692304673817341489687933519875",
        "55464657044963196816950587289035428064568320970692304673817341489687933519884",
        "55464657044963196816950587289035428064568320970692304673817341489687941879810",
        "55464657044963196816950587289035428064568320970692304673817341489687933519872",
        "55464657044963196816950587289035428064568320970692304673817341489687933519879",
        "55464657044963196816950587289035428064568320970692304673817341489687933519874"
      ]
    },
    {
      "x": 190,
      "y": 176,
      "size": 1,
      "price": "4683000000000000000000",
      "reserved": "",
      "salt": "0x73269dd4312aef3f333ccc50503e443e569c5e6d0808d994ed33d7227564d2e8",
      "assetIds": [
        "55464657044963196816950587289035428064568320970692304673817341489687933519878",
        "55464657044963196816950587289035428064568320970692304673817341489687933519885",
        "55464657044963196816950587289035428064568320970692304673817341489687933519888",
        "55464657044963196816950587289035428064568320970692304673817341489687933519877",
        "55464657044963196816950587289035428064568320970692304673817341489687941879809",
        "55464657044963196816950587289035428064568320970692304673817341489687933519881"
      ]
    },
    {
      "x": 190,
      "y": 180,
      "size": 1,
      "price": "4683000000000000000000",
      "reserved": "",
      "salt": "0x70fdf7d7d34200aabfdeceb2e54fc1fa1b5b59ee946f20cd83767e61c04c335b",
      "assetIds": [
        "55464657044963196816950587289035428064568320970692304673817341489687941879808",
        "55464657044963196816950587289035428064568320970692304673817341489687933519880",
        "55464657044963196816950587289035428064568320970692304673817341489687933519882",
        "55464657044963196816950587289035428064568320970692304673817341489687933519886",
        "55464657044963196816950587289035428064568320970692304673817341489687933519883"
      ]
    },
    {
      "x": 190,
      "y": 181,
      "size": 1,
      "price": "4683000000000000000000",
      "reserved": "",
      "salt": "0x3dc8244f1837cdd1603ed7a0619612be52a092f62587ed736471dc89cd4692d8",
      "assetIds": [
        "55464657044963196816950587289035428064568320970692304673817341489687933519878",
        "55464657044963196816950587289035428064568320970692304673817341489687933519885",
        "55464657044963196816950587289035428064568320970692304673817341489687933519888",
        "55464657044963196816950587289035428064568320970692304673817341489687933519877",
        "55464657044963196816950587289035428064568320970692304673817341489687941879809",
        "55464657044963196816950587289035428064568320970692304673817341489687933519881"
      ]
    },
    {
      "x": 190,
      "y": 182,
      "size": 1,
      "price": "4683000000000000000000",
      "reserved": "",
      "salt": "0x53adec6f0fd54a39788c66f8b286767d013e83c68378e7374eb16f0b64a5c437",
      "assetIds": [
        "55464657044963196816950587289035428064568320970692304673817341489687933519878",
        "55464657044963196816950587289035428064568320970692304673817341489687933519885",
        "55464657044963196816950587289035428064568320970692304673817341489687933519888",
        "55464657044963196816950587289035428064568320970692304673817341489687933519877",
        "55464657044963196816950587289035428064568320970692304673817341489687941879809",
        "55464657044963196816950587289035428064568320970692304673817341489687933519881"
      ]
    },
    {
      "x": 190,
      "y": 183,
      "size": 1,
      "price": "1011000000000000000000",
      "reserved": "",
      "salt": "0xa6adadb79f80d51b4b438ba81d81ea911d5f09be42a0460373bd49d6136cbbe2",
      "assetIds": []
    },
    {
      "x": 190,
      "y": 184,
      "size": 1,
      "price": "1011000000000000000000",
      "reserved": "",
      "salt": "0x0fdb8a21c9d773c9b4092ca9195210f73c0aa4f93e963ef83c96f8ff0f3fe803",
      "assetIds": []
    },
    {
      "x": 190,
      "y": 185,
      "size": 1,
      "price": "1011000000000000000000",
      "reserved": "",
      "salt": "0xfd9d38b06498c261d532551aec6c3cde0e61f6be4ff70d5eab5f67e569c543e0",
      "assetIds": []
    },
    {
      "x": 190,
      "y": 186,
      "size": 1,
      "price": "1011000000000000000000",
      "reserved": "",
      "salt": "0x12e3886a1cdf8580e6da56d0ed52cc8603f0e5bd467725e1f8be28fd629547e0",
      "assetIds": []
    },
    {
      "x": 190,
      "y": 187,
      "size": 1,
      "price": "1011000000000000000000",
      "reserved": "0x7a9fe22691c811ea339d9b73150e6911a5343dca",
      "salt": "0x964f93eb3b11fee8a02d55eb09f8bd5d369f7df435d2afadaa1b59c187a2ca22",
      "assetIds": []
    },
    {
      "x": 190,
      "y": 188,
      "size": 1,
      "price": "1011000000000000000000",
      "reserved": "",
      "salt": "0x3270b93a4b5051e6a403432ac0d370baabafcd2b10b06c8b36ed364b67c674de",
      "assetIds": []
    },
    {
      "x": 190,
      "y": 189,
      "size": 1,
      "price": "1011000000000000000000",
      "reserved": "",
      "salt": "0xba1b71024c6dcc63f221c032ba76e2993dd2efd6ad651583d96cba820e9dafd9",
      "assetIds": []
    },
    {
      "x": 190,
      "y": 190,
      "size": 1,
      "price": "1011000000000000000000",
      "reserved": "",
      "salt": "0x5d23c7d106ea8a144ab95cc534d131b1622e447130e1572193d63595611b996a",
      "assetIds": []
    },
    {
      "x": 190,
      "y": 191,
      "size": 1,
      "price": "1011000000000000000000",
      "reserved": "",
      "salt": "0xa70e0f64d0adfe30b76e21df98c608729f10e1c5bec970661ca558cbbf20ed20",
      "assetIds": []
    },
    {
      "x": 190,
      "y": 192,
      "size": 1,
      "price": "4683000000000000000000",
      "reserved": "",
      "salt": "0x77ec6fd2ecfa5e114c95ebc656834ff5c1513a833152146202e938877b87772e",
      "assetIds": [
        "55464657044963196816950587289035428064568320970692304673817341489687933519875",
        "55464657044963196816950587289035428064568320970692304673817341489687933519884",
        "55464657044963196816950587289035428064568320970692304673817341489687941879810",
        "55464657044963196816950587289035428064568320970692304673817341489687933519872",
        "55464657044963196816950587289035428064568320970692304673817341489687933519879",
        "55464657044963196816950587289035428064568320970692304673817341489687933519874"
      ]
    },
    {
      "x": 190,
      "y": 193,
      "size": 1,
      "price": "4683000000000000000000",
      "reserved": "",
      "salt": "0x9d563bf00ec60c46d3c992aa235aa175c0e04aea201b679fff5b8e4cfc460f69",
      "assetIds": [
        "55464657044963196816950587289035428064568320970692304673817341489687933519875",
        "55464657044963196816950587289035428064568320970692304673817341489687933519884",
        "55464657044963196816950587289035428064568320970692304673817341489687941879810",
        "55464657044963196816950587289035428064568320970692304673817341489687933519872",
        "55464657044963196816950587289035428064568320970692304673817341489687933519879",
        "55464657044963196816950587289035428064568320970692304673817341489687933519874"
      ]
    },
    {
      "x": 190,
      "y": 194,
      "size": 1,
      "price": "4683000000000000000000",
      "reserved": "",
      "salt": "0x632f18a5eb80db87180481d1848aa6cd0f1d9af8465fc08f969f4c350b6248b6",
      "assetIds": [
        "55464657044963196816950587289035428064568320970692304673817341489687933519875",
        "55464657044963196816950587289035428064568320970692304673817341489687933519884",
        "55464657044963196816950587289035428064568320970692304673817341489687941879810",
        "55464657044963196816950587289035428064568320970692304673817341489687933519872",
        "55464657044963196816950587289035428064568320970692304673817341489687933519879",
        "55464657044963196816950587289035428064568320970692304673817341489687933519874"
      ]
    },
    {
      "x": 191,
      "y": 164,
      "size": 1,
      "price": "1011000000000000000000",
      "reserved": "",
      "salt": "0x2d04b3c41cba9c6cb8818e8f970de666517f78ef7d10e5d6d988e2249956b234",
      "assetIds": []
    },
    {
      "x": 191,
      "y": 165,
      "size": 1,
      "price": "1011000000000000000000",
      "reserved": "",
      "salt": "0x7bc74812c4f55bfb7ca34fcd0055347d460089c9708ea9e07de6022f55de3704",
      "assetIds": []
    },
    {
      "x": 191,
      "y": 166,
      "size": 1,
      "price": "1011000000000000000000",
      "reserved": "",
      "salt": "0x97290fc5fbda4847fbecf70ecbae95615492076c9e5e48ab5ae4f679c5795431",
      "assetIds": []
    },
    {
      "x": 191,
      "y": 167,
      "size": 1,
      "price": "1011000000000000000000",
      "reserved": "",
      "salt": "0x8f08c5cabf4ff7480ac5b7be3823f51fd6466138de3cb328ff8249058665d307",
      "assetIds": []
    },
    {
      "x": 191,
      "y": 168,
      "size": 1,
      "price": "1011000000000000000000",
      "reserved": "",
      "salt": "0xf06d11e02f6cc68f541ce63474eef3b2a3b341d632c1958a50ea7ecc920780a8",
      "assetIds": []
    },
    {
      "x": 191,
      "y": 169,
      "size": 1,
      "price": "1011000000000000000000",
      "reserved": "",
      "salt": "0xc880e10d38e6eb93e65325598850872a92edc1c77657bba1de779b725656bd45",
      "assetIds": []
    },
    {
      "x": 191,
      "y": 170,
      "size": 1,
      "price": "1011000000000000000000",
      "reserved": "",
      "salt": "0x0fc7dd8cbfcfa0030be00d81f5b81b39e363d372d360f717bd5df2709f017570",
      "assetIds": []
    },
    {
      "x": 191,
      "y": 171,
      "size": 1,
      "price": "1011000000000000000000",
      "reserved": "",
      "salt": "0x26ca0626da2fca45107dbf2aee75ceb6f4431960fae0ae470321b3e8b316569d",
      "assetIds": []
    },
    {
      "x": 191,
      "y": 172,
      "size": 1,
      "price": "1011000000000000000000",
      "reserved": "",
      "salt": "0x428ac739a745eee4a293ffda77e9078db77b687c3d51e88365ae99af9c401f7d",
      "assetIds": []
    },
    {
      "x": 191,
      "y": 173,
      "size": 1,
      "price": "1011000000000000000000",
      "reserved": "",
      "salt": "0x0a529eaa166e5254cef8d790360987716f64eee411a19ad6494a8421366003c8",
      "assetIds": []
    },
    {
      "x": 191,
      "y": 174,
      "size": 1,
      "price": "4683000000000000000000",
      "reserved": "",
      "salt": "0xcda336ed53ef856abb72bef7063045628c2c934cce0c1ef6cd43e408f06b430e",
      "assetIds": [
        "55464657044963196816950587289035428064568320970692304673817341489687933519875",
        "55464657044963196816950587289035428064568320970692304673817341489687933519884",
        "55464657044963196816950587289035428064568320970692304673817341489687941879810",
        "55464657044963196816950587289035428064568320970692304673817341489687933519872",
        "55464657044963196816950587289035428064568320970692304673817341489687933519879",
        "55464657044963196816950587289035428064568320970692304673817341489687933519874"
      ]
    },
    {
      "x": 191,
      "y": 175,
      "size": 1,
      "price": "4683000000000000000000",
      "reserved": "",
      "salt": "0x8c74acc09d420a6dc591704fa3d4b1c464939e7134cc9141e2ad952afc1c4e49",
      "assetIds": [
        "55464657044963196816950587289035428064568320970692304673817341489687941879808",
        "55464657044963196816950587289035428064568320970692304673817341489687933519880",
        "55464657044963196816950587289035428064568320970692304673817341489687933519882",
        "55464657044963196816950587289035428064568320970692304673817341489687933519886",
        "55464657044963196816950587289035428064568320970692304673817341489687933519883"
      ]
    },
    {
      "x": 191,
      "y": 176,
      "size": 1,
      "price": "4683000000000000000000",
      "reserved": "",
      "salt": "0x543a4bfe9d12963f18e3cce71f64f890235f2371a0b89a4dbe4073fdca2806f0",
      "assetIds": [
        "55464657044963196816950587289035428064568320970692304673817341489687933519875",
        "55464657044963196816950587289035428064568320970692304673817341489687933519884",
        "55464657044963196816950587289035428064568320970692304673817341489687941879810",
        "55464657044963196816950587289035428064568320970692304673817341489687933519872",
        "55464657044963196816950587289035428064568320970692304673817341489687933519879",
        "55464657044963196816950587289035428064568320970692304673817341489687933519874"
      ]
    },
    {
      "x": 191,
      "y": 180,
      "size": 1,
      "price": "4683000000000000000000",
      "reserved": "",
      "salt": "0x6f4f228fb03d7f16c498fe69fb7f9df60bb9625a21672da9c3ff992fe5f5c78c",
      "assetIds": [
        "55464657044963196816950587289035428064568320970692304673817341489687933519875",
        "55464657044963196816950587289035428064568320970692304673817341489687933519884",
        "55464657044963196816950587289035428064568320970692304673817341489687941879810",
        "55464657044963196816950587289035428064568320970692304673817341489687933519872",
        "55464657044963196816950587289035428064568320970692304673817341489687933519879",
        "55464657044963196816950587289035428064568320970692304673817341489687933519874"
      ]
    },
    {
      "x": 191,
      "y": 181,
      "size": 1,
      "price": "4683000000000000000000",
      "reserved": "",
      "salt": "0x1cef993930332d7c05d604ce3691096c5ac6a170eaa71711830b07dca00880e6",
      "assetIds": [
        "55464657044963196816950587289035428064568320970692304673817341489687941879808",
        "55464657044963196816950587289035428064568320970692304673817341489687933519880",
        "55464657044963196816950587289035428064568320970692304673817341489687933519882",
        "55464657044963196816950587289035428064568320970692304673817341489687933519886",
        "55464657044963196816950587289035428064568320970692304673817341489687933519883"
      ]
    },
    {
      "x": 191,
      "y": 182,
      "size": 1,
      "price": "4683000000000000000000",
      "reserved": "",
      "salt": "0x1f336a83c855fb96ed1e880f4ba358ea75fb6235aa100539f565348454301b28",
      "assetIds": [
        "55464657044963196816950587289035428064568320970692304673817341489687941879808",
        "55464657044963196816950587289035428064568320970692304673817341489687933519880",
        "55464657044963196816950587289035428064568320970692304673817341489687933519882",
        "55464657044963196816950587289035428064568320970692304673817341489687933519886",
        "55464657044963196816950587289035428064568320970692304673817341489687933519883"
      ]
    },
    {
      "x": 191,
      "y": 183,
      "size": 1,
      "price": "1011000000000000000000",
      "reserved": "",
      "salt": "0x8629384b4c30833d321e7a31e26e313a3171ad6a7765de48bdee6dcb7a4c58e7",
      "assetIds": []
    },
    {
      "x": 191,
      "y": 184,
      "size": 1,
      "price": "1011000000000000000000",
      "reserved": "",
      "salt": "0xe7adb106648f03ab323628b4a13e427b000b7fde79a965624906009a616185b1",
      "assetIds": []
    },
    {
      "x": 191,
      "y": 185,
      "size": 1,
      "price": "1011000000000000000000",
      "reserved": "",
      "salt": "0x4dc7626b792fa2c9030f9257b216554628328317dad4be80001c45202277ab98",
      "assetIds": []
    },
    {
      "x": 191,
      "y": 186,
      "size": 1,
      "price": "1011000000000000000000",
      "reserved": "",
      "salt": "0x2da4dbfc6a19f76c8faee85b99558599a9dbdca88d1ace8e67ed4955431cd1c8",
      "assetIds": []
    },
    {
      "x": 191,
      "y": 187,
      "size": 1,
      "price": "1011000000000000000000",
      "reserved": "",
      "salt": "0x6f4a450a1bebde25be0246bcb22e1fb5ac69451d7ce0a60881fd7a77eb0842d4",
      "assetIds": []
    },
    {
      "x": 191,
      "y": 188,
      "size": 1,
      "price": "1011000000000000000000",
      "reserved": "",
      "salt": "0x7c019fe62f76ee551aae9ce7663791068fbde022e06a7b2c49c4e3f12781eda1",
      "assetIds": []
    },
    {
      "x": 191,
      "y": 189,
      "size": 1,
      "price": "1011000000000000000000",
      "reserved": "",
      "salt": "0x11d9b7be0fed4ef64c3cf3e6c2f81996ce84cea74c2f8a16e885416522fa2d17",
      "assetIds": []
    },
    {
      "x": 191,
      "y": 190,
      "size": 1,
      "price": "4683000000000000000000",
      "reserved": "",
      "salt": "0xed4ecc8f897d72fd942bb1a5d2bd2c6231830d02a21cb35c85c49b85b87b1658",
      "assetIds": [
        "55464657044963196816950587289035428064568320970692304673817341489687941879808",
        "55464657044963196816950587289035428064568320970692304673817341489687933519880",
        "55464657044963196816950587289035428064568320970692304673817341489687933519882",
        "55464657044963196816950587289035428064568320970692304673817341489687933519886",
        "55464657044963196816950587289035428064568320970692304673817341489687933519883"
      ]
    },
    {
      "x": 191,
      "y": 191,
      "size": 1,
      "price": "4683000000000000000000",
      "reserved": "",
      "salt": "0xe2380e5978ca0deac3a557b64e502483ad1eae1916b53e141603c949c401fd49",
      "assetIds": [
        "55464657044963196816950587289035428064568320970692304673817341489687941879808",
        "55464657044963196816950587289035428064568320970692304673817341489687933519880",
        "55464657044963196816950587289035428064568320970692304673817341489687933519882",
        "55464657044963196816950587289035428064568320970692304673817341489687933519886",
        "55464657044963196816950587289035428064568320970692304673817341489687933519883"
      ]
    },
    {
      "x": 191,
      "y": 192,
      "size": 1,
      "price": "4683000000000000000000",
      "reserved": "",
      "salt": "0xae8a2403ffb6e77f84480fae25d8bbbf7340e86e4fc94e236713faa910128253",
      "assetIds": [
        "55464657044963196816950587289035428064568320970692304673817341489687941879808",
        "55464657044963196816950587289035428064568320970692304673817341489687933519880",
        "55464657044963196816950587289035428064568320970692304673817341489687933519882",
        "55464657044963196816950587289035428064568320970692304673817341489687933519886",
        "55464657044963196816950587289035428064568320970692304673817341489687933519883"
      ]
    },
    {
      "x": 191,
      "y": 193,
      "size": 1,
      "price": "4683000000000000000000",
      "reserved": "",
      "salt": "0x3b90bf156ed1d0aceccc638612a4db04be6dfe07ba52492f70e55808c85c1679",
      "assetIds": [
        "55464657044963196816950587289035428064568320970692304673817341489687933519878",
        "55464657044963196816950587289035428064568320970692304673817341489687933519885",
        "55464657044963196816950587289035428064568320970692304673817341489687933519888",
        "55464657044963196816950587289035428064568320970692304673817341489687933519877",
        "55464657044963196816950587289035428064568320970692304673817341489687941879809",
        "55464657044963196816950587289035428064568320970692304673817341489687933519881"
      ]
    },
    {
      "x": 191,
      "y": 194,
      "size": 1,
      "price": "4683000000000000000000",
      "reserved": "",
      "salt": "0x7a36c368e978732a80f52cb4a43f14a26855ea127ba1ce70dd61576336c02823",
      "assetIds": [
        "55464657044963196816950587289035428064568320970692304673817341489687933519878",
        "55464657044963196816950587289035428064568320970692304673817341489687933519885",
        "55464657044963196816950587289035428064568320970692304673817341489687933519888",
        "55464657044963196816950587289035428064568320970692304673817341489687933519877",
        "55464657044963196816950587289035428064568320970692304673817341489687941879809",
        "55464657044963196816950587289035428064568320970692304673817341489687933519881"
      ]
    },
    {
      "x": 192,
      "y": 164,
      "size": 1,
      "price": "1011000000000000000000",
      "reserved": "0x7a9fe22691c811ea339d9b73150e6911a5343dca",
      "salt": "0x730fcb099281b8c128a36b5b81061451e1da77ef6ffcd45f9158c08a0655c6fc",
      "assetIds": []
    },
    {
      "x": 192,
      "y": 165,
      "size": 1,
      "price": "1011000000000000000000",
      "reserved": "",
      "salt": "0x5e6ff71f230d54c9fb43808e75d01c9ae18d036af3f073ed3d74f3c43e0cae4e",
      "assetIds": []
    },
    {
      "x": 192,
      "y": 166,
      "size": 1,
      "price": "1011000000000000000000",
      "reserved": "",
      "salt": "0xa7e782cd7cced76739615145b1c382a47464bf1be11e662ca24d5b5ca5a8eded",
      "assetIds": []
    },
    {
      "x": 192,
      "y": 167,
      "size": 1,
      "price": "1011000000000000000000",
      "reserved": "",
      "salt": "0x3d4ab04ff55c187970a1d35950979d72eafc4d76fdb626a96ae75ff7f9b00675",
      "assetIds": []
    },
    {
      "x": 192,
      "y": 174,
      "size": 1,
      "price": "4683000000000000000000",
      "reserved": "",
      "salt": "0x324587f41dd298b3fbb6a5971686d0b2e6b4749f90910b5b92cd0f099366a976",
      "assetIds": [
        "55464657044963196816950587289035428064568320970692304673817341489687941879808",
        "55464657044963196816950587289035428064568320970692304673817341489687933519880",
        "55464657044963196816950587289035428064568320970692304673817341489687933519882",
        "55464657044963196816950587289035428064568320970692304673817341489687933519886",
        "55464657044963196816950587289035428064568320970692304673817341489687933519883"
      ]
    },
    {
      "x": 192,
      "y": 175,
      "size": 1,
      "price": "4683000000000000000000",
      "reserved": "",
      "salt": "0xb524850f694f7049c327d05a218fd37ad042e4f62e7c5b176412a861a1989211",
      "assetIds": [
        "55464657044963196816950587289035428064568320970692304673817341489687933519875",
        "55464657044963196816950587289035428064568320970692304673817341489687933519884",
        "55464657044963196816950587289035428064568320970692304673817341489687941879810",
        "55464657044963196816950587289035428064568320970692304673817341489687933519872",
        "55464657044963196816950587289035428064568320970692304673817341489687933519879",
        "55464657044963196816950587289035428064568320970692304673817341489687933519874"
      ]
    },
    {
      "x": 192,
      "y": 176,
      "size": 1,
      "price": "4683000000000000000000",
      "reserved": "",
      "salt": "0x0e8abeb82b0d77648715ebde997fb221260ba55ed44ec7ddace795ff8efc0742",
      "assetIds": [
        "55464657044963196816950587289035428064568320970692304673817341489687933519878",
        "55464657044963196816950587289035428064568320970692304673817341489687933519885",
        "55464657044963196816950587289035428064568320970692304673817341489687933519888",
        "55464657044963196816950587289035428064568320970692304673817341489687933519877",
        "55464657044963196816950587289035428064568320970692304673817341489687941879809",
        "55464657044963196816950587289035428064568320970692304673817341489687933519881"
      ]
    },
    {
      "x": 192,
      "y": 180,
      "size": 1,
      "price": "4683000000000000000000",
      "reserved": "",
      "salt": "0x230dc2c44b2b36e30dfccd1bfab314ac4e00bddc4f22583d14a43e9c478db799",
      "assetIds": [
        "55464657044963196816950587289035428064568320970692304673817341489687933519875",
        "55464657044963196816950587289035428064568320970692304673817341489687933519884",
        "55464657044963196816950587289035428064568320970692304673817341489687941879810",
        "55464657044963196816950587289035428064568320970692304673817341489687933519872",
        "55464657044963196816950587289035428064568320970692304673817341489687933519879",
        "55464657044963196816950587289035428064568320970692304673817341489687933519874"
      ]
    },
    {
      "x": 192,
      "y": 181,
      "size": 1,
      "price": "4683000000000000000000",
      "reserved": "",
      "salt": "0x320553bd1a36544724ca6757124ad217c26828dbdb52ac5742e87cf33d6752bf",
      "assetIds": [
        "55464657044963196816950587289035428064568320970692304673817341489687941879808",
        "55464657044963196816950587289035428064568320970692304673817341489687933519880",
        "55464657044963196816950587289035428064568320970692304673817341489687933519882",
        "55464657044963196816950587289035428064568320970692304673817341489687933519886",
        "55464657044963196816950587289035428064568320970692304673817341489687933519883"
      ]
    },
    {
      "x": 192,
      "y": 182,
      "size": 1,
      "price": "4683000000000000000000",
      "reserved": "",
      "salt": "0x5b154ad5c6c330c4475cf2d69bddc86abd05a7fb57f48f04aaae480a6e0b0f43",
      "assetIds": [
        "55464657044963196816950587289035428064568320970692304673817341489687941879808",
        "55464657044963196816950587289035428064568320970692304673817341489687933519880",
        "55464657044963196816950587289035428064568320970692304673817341489687933519882",
        "55464657044963196816950587289035428064568320970692304673817341489687933519886",
        "55464657044963196816950587289035428064568320970692304673817341489687933519883"
      ]
    },
    {
      "x": 192,
      "y": 186,
      "size": 1,
      "price": "1011000000000000000000",
      "reserved": "",
      "salt": "0xe1e50693b105b5d4e4c527ffdb66cfe1e27cc409e345f9ae8a2986878e8071b5",
      "assetIds": []
    },
    {
      "x": 192,
      "y": 187,
      "size": 1,
      "price": "1011000000000000000000",
      "reserved": "",
      "salt": "0x7de9200ee9ba129154ae6aa463d735f4771fe6bb7b15b3e8241d291200aea6a1",
      "assetIds": []
    },
    {
      "x": 192,
      "y": 188,
      "size": 1,
      "price": "1011000000000000000000",
      "reserved": "",
      "salt": "0x8d6dc54ead19d0d20d90fff9c24f06baabee9b4bdc94b6d3aa151cd7bf207494",
      "assetIds": []
    },
    {
      "x": 192,
      "y": 189,
      "size": 1,
      "price": "1011000000000000000000",
      "reserved": "0x7a9fe22691c811ea339d9b73150e6911a5343dca",
      "salt": "0xfbbb441913d709f2f554c77691e373ccec2882cbd42e6eccb3114c7e69d52218",
      "assetIds": []
    },
    {
      "x": 192,
      "y": 190,
      "size": 1,
      "price": "4683000000000000000000",
      "reserved": "",
      "salt": "0xfe280c780cb55263933f1cc6d01057894bcbd574e74b98d60fc4dc9df6b970ff",
      "assetIds": [
        "55464657044963196816950587289035428064568320970692304673817341489687933519878",
        "55464657044963196816950587289035428064568320970692304673817341489687933519885",
        "55464657044963196816950587289035428064568320970692304673817341489687933519888",
        "55464657044963196816950587289035428064568320970692304673817341489687933519877",
        "55464657044963196816950587289035428064568320970692304673817341489687941879809",
        "55464657044963196816950587289035428064568320970692304673817341489687933519881"
      ]
    },
    {
      "x": 192,
      "y": 191,
      "size": 1,
      "price": "4683000000000000000000",
      "reserved": "",
      "salt": "0x06b4cc66ab4277ea50f32e23665cf74a477cce16cf0bffcf3f0b075983e00b76",
      "assetIds": [
        "55464657044963196816950587289035428064568320970692304673817341489687941879808",
        "55464657044963196816950587289035428064568320970692304673817341489687933519880",
        "55464657044963196816950587289035428064568320970692304673817341489687933519882",
        "55464657044963196816950587289035428064568320970692304673817341489687933519886",
        "55464657044963196816950587289035428064568320970692304673817341489687933519883"
      ]
    },
    {
      "x": 193,
      "y": 165,
      "size": 1,
      "price": "1011000000000000000000",
      "reserved": "",
      "salt": "0x8b722aecc7af4adfdc7a9a0ef6ea2bc6957b65ee78c354403a2d6870349765dc",
      "assetIds": []
    },
    {
      "x": 193,
      "y": 166,
      "size": 1,
      "price": "1011000000000000000000",
      "reserved": "",
      "salt": "0x94d4352bd7c7164450c40516d49abfc45661ed029a36e851d2b35c6eed64408f",
      "assetIds": []
    },
    {
      "x": 193,
      "y": 167,
      "size": 1,
      "price": "1011000000000000000000",
      "reserved": "",
      "salt": "0x25cc8a14120486ce9b2b7f5a8717f857e78a8d2dee3854feecf4c9fdb133f515",
      "assetIds": []
    },
    {
      "x": 193,
      "y": 174,
      "size": 1,
      "price": "1011000000000000000000",
      "reserved": "0x7a9fe22691c811ea339d9b73150e6911a5343dca",
      "salt": "0x56cf610429affad29685c03957f9c2c845e5afd581b9931a10ed0e9abe0742c1",
      "assetIds": []
    },
    {
      "x": 193,
      "y": 175,
      "size": 1,
      "price": "4683000000000000000000",
      "reserved": "",
      "salt": "0x73e9626a141cff19b6a6b48dcd56f233f5e26c92db606be8cf980e76ea744143",
      "assetIds": [
        "55464657044963196816950587289035428064568320970692304673817341489687933519878",
        "55464657044963196816950587289035428064568320970692304673817341489687933519885",
        "55464657044963196816950587289035428064568320970692304673817341489687933519888",
        "55464657044963196816950587289035428064568320970692304673817341489687933519877",
        "55464657044963196816950587289035428064568320970692304673817341489687941879809",
        "55464657044963196816950587289035428064568320970692304673817341489687933519881"
      ]
    },
    {
      "x": 193,
      "y": 176,
      "size": 1,
      "price": "4683000000000000000000",
      "reserved": "",
      "salt": "0x1ac66dc45765e3d35e09efefcc39f47578c0e8562e292d6d81ca082075c03ece",
      "assetIds": [
        "55464657044963196816950587289035428064568320970692304673817341489687933519878",
        "55464657044963196816950587289035428064568320970692304673817341489687933519885",
        "55464657044963196816950587289035428064568320970692304673817341489687933519888",
        "55464657044963196816950587289035428064568320970692304673817341489687933519877",
        "55464657044963196816950587289035428064568320970692304673817341489687941879809",
        "55464657044963196816950587289035428064568320970692304673817341489687933519881"
      ]
    },
    {
      "x": 193,
      "y": 180,
      "size": 1,
      "price": "4683000000000000000000",
      "reserved": "",
      "salt": "0xa555c97d1e1faacc603310d0c2a17f66d8e78e6bc0ad62c0fc668eaa9b0091e2",
      "assetIds": [
        "55464657044963196816950587289035428064568320970692304673817341489687933519878",
        "55464657044963196816950587289035428064568320970692304673817341489687933519885",
        "55464657044963196816950587289035428064568320970692304673817341489687933519888",
        "55464657044963196816950587289035428064568320970692304673817341489687933519877",
        "55464657044963196816950587289035428064568320970692304673817341489687941879809",
        "55464657044963196816950587289035428064568320970692304673817341489687933519881"
      ]
    },
    {
      "x": 193,
      "y": 181,
      "size": 1,
      "price": "4683000000000000000000",
      "reserved": "",
      "salt": "0xf0c1f84a4fc1cadc632992f515fd74a9bbb6b565690312851c73cb68a3b1a038",
      "assetIds": [
        "55464657044963196816950587289035428064568320970692304673817341489687933519875",
        "55464657044963196816950587289035428064568320970692304673817341489687933519884",
        "55464657044963196816950587289035428064568320970692304673817341489687941879810",
        "55464657044963196816950587289035428064568320970692304673817341489687933519872",
        "55464657044963196816950587289035428064568320970692304673817341489687933519879",
        "55464657044963196816950587289035428064568320970692304673817341489687933519874"
      ]
    },
    {
      "x": 193,
      "y": 182,
      "size": 1,
      "price": "4683000000000000000000",
      "reserved": "",
      "salt": "0xb9ec2f9c44ec9543ba1cfe25b77e2dd8cc33e20d0a40e7c6bca38386840e1909",
      "assetIds": [
        "55464657044963196816950587289035428064568320970692304673817341489687933519878",
        "55464657044963196816950587289035428064568320970692304673817341489687933519885",
        "55464657044963196816950587289035428064568320970692304673817341489687933519888",
        "55464657044963196816950587289035428064568320970692304673817341489687933519877",
        "55464657044963196816950587289035428064568320970692304673817341489687941879809",
        "55464657044963196816950587289035428064568320970692304673817341489687933519881"
      ]
    },
    {
      "x": 193,
      "y": 186,
      "size": 1,
      "price": "1011000000000000000000",
      "reserved": "",
      "salt": "0x54f56281871974dd97a736ee052188a2ef406e953bcd47b9fd7572a5a8182acb",
      "assetIds": []
    },
    {
      "x": 193,
      "y": 187,
      "size": 1,
      "price": "1011000000000000000000",
      "reserved": "",
      "salt": "0x3106195c19662fe35c12f671ee8f357eca8e192a441cb1ce0622fd1464d17918",
      "assetIds": []
    },
    {
      "x": 193,
      "y": 188,
      "size": 1,
      "price": "1011000000000000000000",
      "reserved": "",
      "salt": "0x910d94a3aa1a5384a18862be136de59f9b8ac705bd5fea98724df92c163d0688",
      "assetIds": []
    },
    {
      "x": 193,
      "y": 189,
      "size": 1,
      "price": "4683000000000000000000",
      "reserved": "",
      "salt": "0x5b589ca24e1aae4da202531a92dca0a1b1d746a179d3817cefe6b1c26be03580",
      "assetIds": [
        "55464657044963196816950587289035428064568320970692304673817341489687941879808",
        "55464657044963196816950587289035428064568320970692304673817341489687933519880",
        "55464657044963196816950587289035428064568320970692304673817341489687933519882",
        "55464657044963196816950587289035428064568320970692304673817341489687933519886",
        "55464657044963196816950587289035428064568320970692304673817341489687933519883"
      ]
    },
    {
      "x": 193,
      "y": 190,
      "size": 1,
      "price": "4683000000000000000000",
      "reserved": "",
      "salt": "0xd14125f8bfea0f049f7ac656101f7180f93e41de16ec28cc13df106d65dbcecf",
      "assetIds": [
        "55464657044963196816950587289035428064568320970692304673817341489687933519878",
        "55464657044963196816950587289035428064568320970692304673817341489687933519885",
        "55464657044963196816950587289035428064568320970692304673817341489687933519888",
        "55464657044963196816950587289035428064568320970692304673817341489687933519877",
        "55464657044963196816950587289035428064568320970692304673817341489687941879809",
        "55464657044963196816950587289035428064568320970692304673817341489687933519881"
      ]
    },
    {
      "x": 193,
      "y": 191,
      "size": 1,
      "price": "4683000000000000000000",
      "reserved": "",
      "salt": "0xbfdaa8276d1b6f34e8ef1a7c689c1329ac3db2045a3001a3571faf7f9035c683",
      "assetIds": [
        "55464657044963196816950587289035428064568320970692304673817341489687941879808",
        "55464657044963196816950587289035428064568320970692304673817341489687933519880",
        "55464657044963196816950587289035428064568320970692304673817341489687933519882",
        "55464657044963196816950587289035428064568320970692304673817341489687933519886",
        "55464657044963196816950587289035428064568320970692304673817341489687933519883"
      ]
    },
    {
      "x": 194,
      "y": 165,
      "size": 1,
      "price": "1011000000000000000000",
      "reserved": "",
      "salt": "0xe69046aab8291528c263ed2c7cf8cec5e4f6a8904d2c7f08446cee5b31715cfb",
      "assetIds": []
    },
    {
      "x": 194,
      "y": 166,
      "size": 1,
      "price": "1011000000000000000000",
      "reserved": "",
      "salt": "0x3b23f778ad55e7681a4624ea539c9ac6748fcacaf97da624219db9a03f8bc7d3",
      "assetIds": []
    },
    {
      "x": 194,
      "y": 167,
      "size": 1,
      "price": "1011000000000000000000",
      "reserved": "",
      "salt": "0xf248e95f21942237118b871c88958b27f03e32c7f27d5bd7e7487fd7fb386783",
      "assetIds": []
    },
    {
      "x": 194,
      "y": 174,
      "size": 1,
      "price": "1011000000000000000000",
      "reserved": "0x7a9fe22691c811ea339d9b73150e6911a5343dca",
      "salt": "0x5d2be334ab82184b60bce4b78bdc7ba292bdd9106fc7d022fbfe8f7943a129ee",
      "assetIds": []
    },
    {
      "x": 194,
      "y": 175,
      "size": 1,
      "price": "4683000000000000000000",
      "reserved": "",
      "salt": "0x0f34013cb61aa8a59aa0670164db7e4b4e8a7d73304997d46034fd653696a021",
      "assetIds": [
        "55464657044963196816950587289035428064568320970692304673817341489687933519878",
        "55464657044963196816950587289035428064568320970692304673817341489687933519885",
        "55464657044963196816950587289035428064568320970692304673817341489687933519888",
        "55464657044963196816950587289035428064568320970692304673817341489687933519877",
        "55464657044963196816950587289035428064568320970692304673817341489687941879809",
        "55464657044963196816950587289035428064568320970692304673817341489687933519881"
      ]
    },
    {
      "x": 194,
      "y": 176,
      "size": 1,
      "price": "4683000000000000000000",
      "reserved": "",
      "salt": "0x117878c171f159557197164b8c3c337e8c3c055ad39f6e02ed476185178b74c7",
      "assetIds": [
        "55464657044963196816950587289035428064568320970692304673817341489687941879808",
        "55464657044963196816950587289035428064568320970692304673817341489687933519880",
        "55464657044963196816950587289035428064568320970692304673817341489687933519882",
        "55464657044963196816950587289035428064568320970692304673817341489687933519886",
        "55464657044963196816950587289035428064568320970692304673817341489687933519883"
      ]
    },
    {
      "x": 194,
      "y": 180,
      "size": 1,
      "price": "4683000000000000000000",
      "reserved": "",
      "salt": "0x48f653c88f292b4ae91e9f6c21dfaad3b15db9d11ef399287a7fc187f8ab0031",
      "assetIds": [
        "55464657044963196816950587289035428064568320970692304673817341489687941879808",
        "55464657044963196816950587289035428064568320970692304673817341489687933519880",
        "55464657044963196816950587289035428064568320970692304673817341489687933519882",
        "55464657044963196816950587289035428064568320970692304673817341489687933519886",
        "55464657044963196816950587289035428064568320970692304673817341489687933519883"
      ]
    },
    {
      "x": 194,
      "y": 181,
      "size": 1,
      "price": "4683000000000000000000",
      "reserved": "",
      "salt": "0x04b85b5c9ef8393fa1c8bc5dee63bce25608fa9080c814fc682303da901518a7",
      "assetIds": [
        "55464657044963196816950587289035428064568320970692304673817341489687941879808",
        "55464657044963196816950587289035428064568320970692304673817341489687933519880",
        "55464657044963196816950587289035428064568320970692304673817341489687933519882",
        "55464657044963196816950587289035428064568320970692304673817341489687933519886",
        "55464657044963196816950587289035428064568320970692304673817341489687933519883"
      ]
    },
    {
      "x": 194,
      "y": 182,
      "size": 1,
      "price": "1011000000000000000000",
      "reserved": "0x7a9fe22691c811ea339d9b73150e6911a5343dca",
      "salt": "0x10a6eb19b3847af4aeca90124eeb913f92e461b633e8b1918617d3181fe7ef48",
      "assetIds": []
    },
    {
      "x": 194,
      "y": 186,
      "size": 1,
      "price": "1011000000000000000000",
      "reserved": "",
      "salt": "0x20c4736d5b806af9519395cabb0f31c5054a8b2d537ac941707e968dc1991106",
      "assetIds": []
    },
    {
      "x": 194,
      "y": 187,
      "size": 1,
      "price": "1011000000000000000000",
      "reserved": "",
      "salt": "0x7d0a929714f80141d5697d0d5ad0ccb2db1f24b23fb3644192d28a521cc69b08",
      "assetIds": []
    },
    {
      "x": 194,
      "y": 188,
      "size": 1,
      "price": "1011000000000000000000",
      "reserved": "",
      "salt": "0x8da2e8d340f9194d3ba0bab913fe0d58056ab2603efc7d355e20e6e74d65e759",
      "assetIds": []
    },
    {
      "x": 194,
      "y": 189,
      "size": 1,
      "price": "4683000000000000000000",
      "reserved": "",
      "salt": "0x1f3940ba7a9cd1eb346afbf1c06ee3d5bb8c173ecb4a4dfc8b996c31086abd1c",
      "assetIds": [
        "55464657044963196816950587289035428064568320970692304673817341489687933519878",
        "55464657044963196816950587289035428064568320970692304673817341489687933519885",
        "55464657044963196816950587289035428064568320970692304673817341489687933519888",
        "55464657044963196816950587289035428064568320970692304673817341489687933519877",
        "55464657044963196816950587289035428064568320970692304673817341489687941879809",
        "55464657044963196816950587289035428064568320970692304673817341489687933519881"
      ]
    },
    {
      "x": 194,
      "y": 190,
      "size": 1,
      "price": "4683000000000000000000",
      "reserved": "",
      "salt": "0x82714dd2e5c1fd0b402cb79535daf4d7fc4b177056846a2aa4d55c2b2206c131",
      "assetIds": [
        "55464657044963196816950587289035428064568320970692304673817341489687933519878",
        "55464657044963196816950587289035428064568320970692304673817341489687933519885",
        "55464657044963196816950587289035428064568320970692304673817341489687933519888",
        "55464657044963196816950587289035428064568320970692304673817341489687933519877",
        "55464657044963196816950587289035428064568320970692304673817341489687941879809",
        "55464657044963196816950587289035428064568320970692304673817341489687933519881"
      ]
    },
    {
      "x": 194,
      "y": 191,
      "size": 1,
      "price": "4683000000000000000000",
      "reserved": "",
      "salt": "0xb84e7c8caa1fe06184c0f97a871c812f8a655dd38dc4f99fba7bc3bf9c42f06a",
      "assetIds": [
        "55464657044963196816950587289035428064568320970692304673817341489687933519875",
        "55464657044963196816950587289035428064568320970692304673817341489687933519884",
        "55464657044963196816950587289035428064568320970692304673817341489687941879810",
        "55464657044963196816950587289035428064568320970692304673817341489687933519872",
        "55464657044963196816950587289035428064568320970692304673817341489687933519879",
        "55464657044963196816950587289035428064568320970692304673817341489687933519874"
      ]
    },
    {
      "x": 195,
      "y": 165,
      "size": 1,
      "price": "1011000000000000000000",
      "reserved": "",
      "salt": "0x9621338020054db1afcb56af58973c4bab858d54fe2a999a89e53cea71dae399",
      "assetIds": []
    },
    {
      "x": 195,
      "y": 166,
      "size": 1,
      "price": "1011000000000000000000",
      "reserved": "",
      "salt": "0x28c7a6471ab5c53a72a818aa08d74cbd5e842397fbe0698257e6f81af1633fcc",
      "assetIds": []
    },
    {
      "x": 195,
      "y": 167,
      "size": 1,
      "price": "1011000000000000000000",
      "reserved": "",
      "salt": "0xebb6f855c12350a7a9dc1edfe5628572053d8b64051177be1331e4ba11c382c6",
      "assetIds": []
    },
    {
      "x": 195,
      "y": 174,
      "size": 1,
      "price": "1011000000000000000000",
      "reserved": "",
      "salt": "0xa7ad501d6f4fc87b3ec4c8079a688d06698b47e97861a301923452f7c513a578",
      "assetIds": []
    },
    {
      "x": 195,
      "y": 175,
      "size": 1,
      "price": "1011000000000000000000",
      "reserved": "",
      "salt": "0x1f04d326f591e53d196c223cbf660e6d0d10251d9af2e4bbe3568c441d7d544f",
      "assetIds": []
    },
    {
      "x": 195,
      "y": 176,
      "size": 1,
      "price": "1011000000000000000000",
      "reserved": "",
      "salt": "0x550244e09368482e477f3b25ca839146404d15ef41f7435c1ea2340e882cc204",
      "assetIds": []
    },
    {
      "x": 195,
      "y": 177,
      "size": 1,
      "price": "1011000000000000000000",
      "reserved": "",
      "salt": "0xcd0c1b896456dfe610d65b5e1fcff290d30144eba53de1abf8815ef745581e1f",
      "assetIds": []
    },
    {
      "x": 195,
      "y": 178,
      "size": 1,
      "price": "1011000000000000000000",
      "reserved": "",
      "salt": "0x92ca0024eff579433c86c8486bae4b30888584247e90be14378cc7ce55ccf800",
      "assetIds": []
    },
    {
      "x": 195,
      "y": 179,
      "size": 1,
      "price": "1011000000000000000000",
      "reserved": "",
      "salt": "0x276a85526c26f064937d2f4cf847f0c616348f18711820879fa77a7ed07a1556",
      "assetIds": []
    },
    {
      "x": 195,
      "y": 180,
      "size": 1,
      "price": "1011000000000000000000",
      "reserved": "",
      "salt": "0x2349df084ee7d5e2885ac044ec7f15c6ba363eb694f6e1ced8efeda17dbbac1c",
      "assetIds": []
    },
    {
      "x": 195,
      "y": 181,
      "size": 1,
      "price": "1011000000000000000000",
      "reserved": "",
      "salt": "0xb09bde208986332d0b396914076bb2878e5767207b7597689ee51837677eed50",
      "assetIds": []
    },
    {
      "x": 195,
      "y": 182,
      "size": 1,
      "price": "1011000000000000000000",
      "reserved": "",
      "salt": "0xe964e28b98654106da3076670536b6e5046a6c09843722084fc97615686c9b07",
      "assetIds": []
    },
    {
      "x": 195,
      "y": 183,
      "size": 1,
      "price": "1011000000000000000000",
      "reserved": "",
      "salt": "0x957a946fdc038d2f38ac275af0e322720de2fc644391e57fa6895cc16ed38c80",
      "assetIds": []
    },
    {
      "x": 195,
      "y": 184,
      "size": 1,
      "price": "1011000000000000000000",
      "reserved": "",
      "salt": "0xcc70ec7969167bc07041e36e8d17189007a44e69335a99db77789b0817e0d373",
      "assetIds": []
    },
    {
      "x": 195,
      "y": 185,
      "size": 1,
      "price": "1011000000000000000000",
      "reserved": "",
      "salt": "0xc5d154f7d124a982def293a40fb2b1045ddda39331e21c311ac351a836e34bd7",
      "assetIds": []
    },
    {
      "x": 195,
      "y": 186,
      "size": 1,
      "price": "1011000000000000000000",
      "reserved": "",
      "salt": "0x07d31c6522e9b57160171bd83919cfed7b589530deff7a0f39364d01c0427d3c",
      "assetIds": []
    },
    {
      "x": 195,
      "y": 187,
      "size": 1,
      "price": "1011000000000000000000",
      "reserved": "",
      "salt": "0x5f47bad13adeb98cbc0d6dd4a6093bb618e084cdb5b64d7dfcc55df0c5c41f49",
      "assetIds": []
    },
    {
      "x": 195,
      "y": 188,
      "size": 1,
      "price": "1011000000000000000000",
      "reserved": "",
      "salt": "0xe202a8089d2170da342b499f5adc4be11301ac7e47df5398d58f54d9a61f85b3",
      "assetIds": []
    },
    {
      "x": 195,
      "y": 189,
      "size": 1,
      "price": "4683000000000000000000",
      "reserved": "",
      "salt": "0x45177dffbe0f8ab24916b5fa5c3744cb5e563d5497227138405ff199daf77e51",
      "assetIds": [
        "55464657044963196816950587289035428064568320970692304673817341489687941879808",
        "55464657044963196816950587289035428064568320970692304673817341489687933519880",
        "55464657044963196816950587289035428064568320970692304673817341489687933519882",
        "55464657044963196816950587289035428064568320970692304673817341489687933519886",
        "55464657044963196816950587289035428064568320970692304673817341489687933519883"
      ]
    },
    {
      "x": 195,
      "y": 190,
      "size": 1,
      "price": "4683000000000000000000",
      "reserved": "",
      "salt": "0x053000df5c689d9b2dcdeafc8b37835549b4c8e980563caba067a80403beb79b",
      "assetIds": [
        "55464657044963196816950587289035428064568320970692304673817341489687941879808",
        "55464657044963196816950587289035428064568320970692304673817341489687933519880",
        "55464657044963196816950587289035428064568320970692304673817341489687933519882",
        "55464657044963196816950587289035428064568320970692304673817341489687933519886",
        "55464657044963196816950587289035428064568320970692304673817341489687933519883"
      ]
    },
    {
      "x": 195,
      "y": 191,
      "size": 1,
      "price": "4683000000000000000000",
      "reserved": "",
      "salt": "0xf07d22580d21d96f6d3eb815c0ccdb721d13c632f56d5005984a186a20aefc03",
      "assetIds": [
        "55464657044963196816950587289035428064568320970692304673817341489687933519878",
        "55464657044963196816950587289035428064568320970692304673817341489687933519885",
        "55464657044963196816950587289035428064568320970692304673817341489687933519888",
        "55464657044963196816950587289035428064568320970692304673817341489687933519877",
        "55464657044963196816950587289035428064568320970692304673817341489687941879809",
        "55464657044963196816950587289035428064568320970692304673817341489687933519881"
      ]
    },
    {
      "x": 196,
      "y": 165,
      "size": 1,
      "price": "1011000000000000000000",
      "reserved": "",
      "salt": "0xecde39f1aa885074b52271758db3507a22767708ac322704910afd75762b5944",
      "assetIds": []
    },
    {
      "x": 196,
      "y": 166,
      "size": 1,
      "price": "1011000000000000000000",
      "reserved": "0x7a9fe22691c811ea339d9b73150e6911a5343dca",
      "salt": "0x3a00016c83722dbe8f070182d866e1e0b94ffe1fdb112f1758d2ac9b9c463e6f",
      "assetIds": []
    },
    {
      "x": 196,
      "y": 167,
      "size": 1,
      "price": "1011000000000000000000",
      "reserved": "",
      "salt": "0xaf68b99f09036457415059c3912ff73b5ef18df16bc710a9c613c4457e9e8adf",
      "assetIds": []
    },
    {
      "x": 196,
      "y": 174,
      "size": 1,
      "price": "1011000000000000000000",
      "reserved": "",
      "salt": "0x29a706010e7b01219a42b640d21443ce7cfb719f5dde7bb8440bbaf3b2fe78b5",
      "assetIds": []
    },
    {
      "x": 196,
      "y": 175,
      "size": 1,
      "price": "1011000000000000000000",
      "reserved": "",
      "salt": "0xcb987683fc9a49065c926e8fdb22e9f7ecf83785ef89c60889eabf44f8d0ef68",
      "assetIds": []
    },
    {
      "x": 196,
      "y": 176,
      "size": 1,
      "price": "1011000000000000000000",
      "reserved": "",
      "salt": "0xc4969d5630734f2a14727cb9272833ffd98fe216924d8af60dbef88188b55ca9",
      "assetIds": []
    },
    {
      "x": 196,
      "y": 177,
      "size": 1,
      "price": "1011000000000000000000",
      "reserved": "",
      "salt": "0x553f6584fd84d75a0dda90b2eb3abe550db68f772280c13e91139d3e8c27c515",
      "assetIds": []
    },
    {
      "x": 196,
      "y": 178,
      "size": 1,
      "price": "1011000000000000000000",
      "reserved": "",
      "salt": "0x831b8f3eb3d125ab9848b2661bcdcf63d8e6df5ae70b8b21db0caebbbf9dafab",
      "assetIds": []
    },
    {
      "x": 196,
      "y": 179,
      "size": 1,
      "price": "1011000000000000000000",
      "reserved": "",
      "salt": "0xb6244b5870bbe6df729fb6713118f162c0cbe826271518cf97d1e4decefcd731",
      "assetIds": []
    },
    {
      "x": 196,
      "y": 180,
      "size": 1,
      "price": "1011000000000000000000",
      "reserved": "",
      "salt": "0xae8a73ad60d1be9654bbe4083681201a26084cbbfed27e6f996cb6b910bf305d",
      "assetIds": []
    },
    {
      "x": 196,
      "y": 181,
      "size": 1,
      "price": "1011000000000000000000",
      "reserved": "",
      "salt": "0x4e3764fa5affd819b3d2b095721e04a231dfef18e82ff0a4e75d1b99a1061099",
      "assetIds": []
    },
    {
      "x": 196,
      "y": 182,
      "size": 1,
      "price": "1011000000000000000000",
      "reserved": "",
      "salt": "0x0c0a1ae3625b52c927dce2ebc6805f631c0d5f280f297d1f44b7bbfa6368a989",
      "assetIds": []
    },
    {
      "x": 196,
      "y": 183,
      "size": 1,
      "price": "1011000000000000000000",
      "reserved": "",
      "salt": "0x0dd0546ee5333f7ff2f629a712104dc46737b3764b6ba8906b5ad1786405a9e0",
      "assetIds": []
    },
    {
      "x": 196,
      "y": 184,
      "size": 1,
      "price": "1011000000000000000000",
      "reserved": "",
      "salt": "0x4db849b50abfcbf7c8522115cd59736a26d3a3ae6dde6a24ff9f3dc677c151c6",
      "assetIds": []
    },
    {
      "x": 196,
      "y": 185,
      "size": 1,
      "price": "1011000000000000000000",
      "reserved": "",
      "salt": "0x0dbf42670463d9423d3544a00984d889013eb43efbdaf27bea23474d28237bac",
      "assetIds": []
    },
    {
      "x": 196,
      "y": 186,
      "size": 1,
      "price": "1011000000000000000000",
      "reserved": "",
      "salt": "0xb9683ae79953f33f2eecfa2075905d316a8b41eb9929dae6ddb2999971911a39",
      "assetIds": []
    },
    {
      "x": 196,
      "y": 187,
      "size": 1,
      "price": "1011000000000000000000",
      "reserved": "",
      "salt": "0x1f5c110fdd8b0226af360b9bdda292b571d65fe9c3b80718cad7fcdee1107f78",
      "assetIds": []
    },
    {
      "x": 196,
      "y": 188,
      "size": 1,
      "price": "1011000000000000000000",
      "reserved": "",
      "salt": "0x8fc024580c72e488c2e9347a86e8d9ad19a4ba71db536c2dc916571aee13c171",
      "assetIds": []
    },
    {
      "x": 196,
      "y": 189,
      "size": 1,
      "price": "4683000000000000000000",
      "reserved": "",
      "salt": "0x3f6f3994c1ed96352c79c133ceeebffd5aeab9b09a0dcc30ba8f2f9e1f3495e4",
      "assetIds": [
        "55464657044963196816950587289035428064568320970692304673817341489687933519875",
        "55464657044963196816950587289035428064568320970692304673817341489687933519884",
        "55464657044963196816950587289035428064568320970692304673817341489687941879810",
        "55464657044963196816950587289035428064568320970692304673817341489687933519872",
        "55464657044963196816950587289035428064568320970692304673817341489687933519879",
        "55464657044963196816950587289035428064568320970692304673817341489687933519874"
      ]
    },
    {
      "x": 196,
      "y": 190,
      "size": 1,
      "price": "4683000000000000000000",
      "reserved": "",
      "salt": "0xd3e599677189db87a76923a2d352f6792064c335f5c4b7c7399165770a9f4b7e",
      "assetIds": [
        "55464657044963196816950587289035428064568320970692304673817341489687941879808",
        "55464657044963196816950587289035428064568320970692304673817341489687933519880",
        "55464657044963196816950587289035428064568320970692304673817341489687933519882",
        "55464657044963196816950587289035428064568320970692304673817341489687933519886",
        "55464657044963196816950587289035428064568320970692304673817341489687933519883"
      ]
    },
    {
      "x": 196,
      "y": 191,
      "size": 1,
      "price": "4683000000000000000000",
      "reserved": "",
      "salt": "0xee53868ded4ba3975bbdead74dfccc73922409d4ddb9a0b63347dda4d2354209",
      "assetIds": [
        "55464657044963196816950587289035428064568320970692304673817341489687933519878",
        "55464657044963196816950587289035428064568320970692304673817341489687933519885",
        "55464657044963196816950587289035428064568320970692304673817341489687933519888",
        "55464657044963196816950587289035428064568320970692304673817341489687933519877",
        "55464657044963196816950587289035428064568320970692304673817341489687941879809",
        "55464657044963196816950587289035428064568320970692304673817341489687933519881"
      ]
    },
    {
      "x": 197,
      "y": 165,
      "size": 1,
      "price": "1011000000000000000000",
      "reserved": "",
      "salt": "0x4ef87918c775394641652376c5cc30718af4af7c8bec67aebfb958baf73f8814",
      "assetIds": []
    },
    {
      "x": 197,
      "y": 166,
      "size": 1,
      "price": "1011000000000000000000",
      "reserved": "",
      "salt": "0x0ecebf1fc5276367db1ac6b0bf9633419858629d81a19891ffe608fa5179c6ac",
      "assetIds": []
    },
    {
      "x": 197,
      "y": 167,
      "size": 1,
      "price": "1011000000000000000000",
      "reserved": "",
      "salt": "0x7eca71a7b028163061c211c4555946432850164395b9c4b34059e354d5e1604b",
      "assetIds": []
    },
    {
      "x": 197,
      "y": 174,
      "size": 1,
      "price": "1011000000000000000000",
      "reserved": "",
      "salt": "0xff10007376e6e8914dce2340672f1d823b6843906d03077510f0fa0b98fded1f",
      "assetIds": []
    },
    {
      "x": 197,
      "y": 175,
      "size": 1,
      "price": "1011000000000000000000",
      "reserved": "",
      "salt": "0x4dc81047a9d8031dadfd20bcee3143d7adc93ec1df02048f3bec23cc999126bd",
      "assetIds": []
    },
    {
      "x": 197,
      "y": 176,
      "size": 1,
      "price": "1011000000000000000000",
      "reserved": "",
      "salt": "0xdc1e50149c306a4ee3c93d6a4d43fc51fbec02ce6c218f53217d0d2c5d1306a4",
      "assetIds": []
    },
    {
      "x": 197,
      "y": 177,
      "size": 1,
      "price": "1011000000000000000000",
      "reserved": "",
      "salt": "0x6e9fb3a4e83062d4debefc1767fac5c7bdf070956fefff33fcc7edff23288a2a",
      "assetIds": []
    },
    {
      "x": 197,
      "y": 178,
      "size": 1,
      "price": "1011000000000000000000",
      "reserved": "",
      "salt": "0xaab051b704e4792f22a4ffcfe369d89336897f919941bbc032b635d69110b387",
      "assetIds": []
    },
    {
      "x": 197,
      "y": 179,
      "size": 1,
      "price": "1011000000000000000000",
      "reserved": "",
      "salt": "0xc2709a56a9ea41dd1174ad257d81946d7f9f11e6741a1cf39f939456723373c8",
      "assetIds": []
    },
    {
      "x": 197,
      "y": 180,
      "size": 1,
      "price": "1011000000000000000000",
      "reserved": "",
      "salt": "0xf8a1c2edac7ea7b0c2428a414c6055dd6236e1aac326c550673d15321b76e284",
      "assetIds": []
    },
    {
      "x": 197,
      "y": 181,
      "size": 1,
      "price": "1011000000000000000000",
      "reserved": "",
      "salt": "0x8489c951318d80e3c5d1b3d9bebf7b5d98a0460ab769428d39d1c63ec1756cc8",
      "assetIds": []
    },
    {
      "x": 197,
      "y": 182,
      "size": 1,
      "price": "1011000000000000000000",
      "reserved": "",
      "salt": "0x2459552c39eca62ea1764a9941de53cd7990b84337b8b65856368612ee06ccfc",
      "assetIds": []
    },
    {
      "x": 197,
      "y": 183,
      "size": 1,
      "price": "1011000000000000000000",
      "reserved": "",
      "salt": "0xd8ddfef0639035f52fdfb89ab9d82aff567283f7408cd2543b3f43ae6bacf5c9",
      "assetIds": []
    },
    {
      "x": 197,
      "y": 184,
      "size": 1,
      "price": "1011000000000000000000",
      "reserved": "",
      "salt": "0x3f163a59b45761fcbc61f3e09b35ce4310c9e2ba0fe161bef153694c5747759b",
      "assetIds": []
    },
    {
      "x": 197,
      "y": 185,
      "size": 1,
      "price": "1011000000000000000000",
      "reserved": "",
      "salt": "0x60caeedc697912d262a6f9dd75658b5e46422555ecedd596aa954695dad8cdce",
      "assetIds": []
    },
    {
      "x": 197,
      "y": 186,
      "size": 1,
      "price": "1011000000000000000000",
      "reserved": "",
      "salt": "0x2e7bf5aaa33581900ad9454a254b6903a76e73aa0b4801e454b010ee5f06d382",
      "assetIds": []
    },
    {
      "x": 197,
      "y": 187,
      "size": 1,
      "price": "1011000000000000000000",
      "reserved": "",
      "salt": "0x4109110336f62557b217224e5716ee2c92a7fb0b7eb8d87c63f231461b8d8458",
      "assetIds": []
    },
    {
      "x": 197,
      "y": 188,
      "size": 1,
      "price": "1011000000000000000000",
      "reserved": "",
      "salt": "0x886dbc8340ea6fd941714277dc06d78e048a6c146fb4fedad7908623134e24e7",
      "assetIds": []
    },
    {
      "x": 197,
      "y": 189,
      "size": 1,
      "price": "1011000000000000000000",
      "reserved": "0x7a9fe22691c811ea339d9b73150e6911a5343dca",
      "salt": "0x580fde6c5e2d0775c11983744d524ee07e1a0198dacd6b50aecc90d3fd3e313d",
      "assetIds": []
    },
    {
      "x": 197,
      "y": 190,
      "size": 1,
      "price": "4683000000000000000000",
      "reserved": "",
      "salt": "0x41f3cb3a515e353433cc12f170afda3bd14f2b69b7c032e55763fe47477bcf74",
      "assetIds": [
        "55464657044963196816950587289035428064568320970692304673817341489687933519875",
        "55464657044963196816950587289035428064568320970692304673817341489687933519884",
        "55464657044963196816950587289035428064568320970692304673817341489687941879810",
        "55464657044963196816950587289035428064568320970692304673817341489687933519872",
        "55464657044963196816950587289035428064568320970692304673817341489687933519879",
        "55464657044963196816950587289035428064568320970692304673817341489687933519874"
      ]
    },
    {
      "x": 197,
      "y": 191,
      "size": 1,
      "price": "4683000000000000000000",
      "reserved": "",
      "salt": "0x518d097ddc2bf418566dac1c07c65a8f2d7a63476d74bfac82099d498771f0d4",
      "assetIds": [
        "55464657044963196816950587289035428064568320970692304673817341489687933519875",
        "55464657044963196816950587289035428064568320970692304673817341489687933519884",
        "55464657044963196816950587289035428064568320970692304673817341489687941879810",
        "55464657044963196816950587289035428064568320970692304673817341489687933519872",
        "55464657044963196816950587289035428064568320970692304673817341489687933519879",
        "55464657044963196816950587289035428064568320970692304673817341489687933519874"
      ]
    },
    {
      "x": 198,
      "y": 174,
      "size": 1,
      "price": "1011000000000000000000",
      "reserved": "",
      "salt": "0x02637e58fd47571ac510a765b5f50f8e81128aee986ec9d0f0b5b34c49570a0e",
      "assetIds": []
    },
    {
      "x": 198,
      "y": 175,
      "size": 1,
      "price": "1011000000000000000000",
      "reserved": "",
      "salt": "0x72cab81451b70d05ec3ffab8b1d979a087c43d751c72f07f991b44a2d18e69c1",
      "assetIds": []
    },
    {
      "x": 198,
      "y": 176,
      "size": 1,
      "price": "1011000000000000000000",
      "reserved": "",
      "salt": "0x9c58b573afc2a21052b539d7e064bbaba992382f8eb068ce3321984a2ec1cba4",
      "assetIds": []
    },
    {
      "x": 198,
      "y": 177,
      "size": 1,
      "price": "1011000000000000000000",
      "reserved": "",
      "salt": "0xb9d15c269143781f3eed22d1b296b5a8629f389974f8c3bd266033e4f6462895",
      "assetIds": []
    },
    {
      "x": 198,
      "y": 178,
      "size": 1,
      "price": "1011000000000000000000",
      "reserved": "",
      "salt": "0x93b1c5915c5875a008aad7d494e82b2559a853ac22e37a3f722eb841ed91a174",
      "assetIds": []
    },
    {
      "x": 198,
      "y": 179,
      "size": 1,
      "price": "1011000000000000000000",
      "reserved": "",
      "salt": "0xbc22f54db535048a0653f69f70f2f9ee8c84b862a5374a60072ed925875a3d45",
      "assetIds": []
    },
    {
      "x": 198,
      "y": 180,
      "size": 1,
      "price": "1011000000000000000000",
      "reserved": "",
      "salt": "0x555332115761d633f8cebeadb094fe526975c93be291c3b0ac1c8b1fd85baee7",
      "assetIds": []
    },
    {
      "x": 198,
      "y": 181,
      "size": 1,
      "price": "1011000000000000000000",
      "reserved": "",
      "salt": "0x2bd5117d24cb4f977ac4c0278dfe7b7446cc978beebc580c4e9ab6776db23e71",
      "assetIds": []
    },
    {
      "x": 198,
      "y": 182,
      "size": 1,
      "price": "1011000000000000000000",
      "reserved": "",
      "salt": "0xf97f238db5418070a0b4b9f798e351073c43d5fb0c1f4f7b0f4edc09d0aa2f14",
      "assetIds": []
    },
    {
      "x": 198,
      "y": 183,
      "size": 1,
      "price": "1011000000000000000000",
      "reserved": "",
      "salt": "0x0d2a8ccf539e3ac5b04ba5b394ce50af9b9507a29edebd85ff5d59255e3b02c5",
      "assetIds": []
    },
    {
      "x": 198,
      "y": 184,
      "size": 1,
      "price": "1011000000000000000000",
      "reserved": "0x7a9fe22691c811ea339d9b73150e6911a5343dca",
      "salt": "0x82be0ace42fc2c007a82ae04c444c37bdafae5b422067defbf41f4b118aa0747",
      "assetIds": []
    },
    {
      "x": 198,
      "y": 185,
      "size": 1,
      "price": "1011000000000000000000",
      "reserved": "",
      "salt": "0x5e7e590bf949a6292bc662fb0dcb4ed836bdbd7635e3dd972209436e70526380",
      "assetIds": []
    },
    {
      "x": 198,
      "y": 186,
      "size": 1,
      "price": "1011000000000000000000",
      "reserved": "",
      "salt": "0xaa608c2c9e4343d073129532572a2d3ef97dc4b7a045f7a37dd23bb7b8baff04",
      "assetIds": []
    },
    {
      "x": 198,
      "y": 187,
      "size": 1,
      "price": "1011000000000000000000",
      "reserved": "",
      "salt": "0x91703dd528f69705ba93c1d4e64a5c875641ba51be617aa554a4058c11b2709c",
      "assetIds": []
    },
    {
      "x": 198,
      "y": 188,
      "size": 1,
      "price": "1011000000000000000000",
      "reserved": "",
      "salt": "0x911dd060e4a76323da296efbc314c4b34eee576e331a18c3376939057bf5dac4",
      "assetIds": []
    },
    {
      "x": 198,
      "y": 189,
      "size": 1,
      "price": "4683000000000000000000",
      "reserved": "",
      "salt": "0x83213baee0bfef3d23bd826b110e2aed1f19b81b90edefb360c9bbc65fd81fe1",
      "assetIds": [
        "55464657044963196816950587289035428064568320970692304673817341489687933519875",
        "55464657044963196816950587289035428064568320970692304673817341489687933519884",
        "55464657044963196816950587289035428064568320970692304673817341489687941879810",
        "55464657044963196816950587289035428064568320970692304673817341489687933519872",
        "55464657044963196816950587289035428064568320970692304673817341489687933519879",
        "55464657044963196816950587289035428064568320970692304673817341489687933519874"
      ]
    },
    {
      "x": 198,
      "y": 190,
      "size": 1,
      "price": "4683000000000000000000",
      "reserved": "",
      "salt": "0xcba779ee56650f5e49d0112a977efc711494300da7f3ba2fc30184cca11ca1c2",
      "assetIds": [
        "55464657044963196816950587289035428064568320970692304673817341489687941879808",
        "55464657044963196816950587289035428064568320970692304673817341489687933519880",
        "55464657044963196816950587289035428064568320970692304673817341489687933519882",
        "55464657044963196816950587289035428064568320970692304673817341489687933519886",
        "55464657044963196816950587289035428064568320970692304673817341489687933519883"
      ]
    },
    {
      "x": 198,
      "y": 191,
      "size": 1,
      "price": "4683000000000000000000",
      "reserved": "",
      "salt": "0x78af07658241c046a080b12a336ec09f104149a1b7bd0dc1f4b903d3d433d8ab",
      "assetIds": [
        "55464657044963196816950587289035428064568320970692304673817341489687941879808",
        "55464657044963196816950587289035428064568320970692304673817341489687933519880",
        "55464657044963196816950587289035428064568320970692304673817341489687933519882",
        "55464657044963196816950587289035428064568320970692304673817341489687933519886",
        "55464657044963196816950587289035428064568320970692304673817341489687933519883"
      ]
    },
    {
      "x": 199,
      "y": 174,
      "size": 1,
      "price": "1011000000000000000000",
      "reserved": "",
      "salt": "0x3704aaed5256f5653e7cef9d1c2a4ce6e1bafc227369e09f80f850fe26423dc2",
      "assetIds": []
    },
    {
      "x": 199,
      "y": 175,
      "size": 1,
      "price": "1011000000000000000000",
      "reserved": "",
      "salt": "0xa95e35f84f74cbdabd07e8ebb58475f1c37d2a447b83eeb22c12a016d5a641c4",
      "assetIds": []
    },
    {
      "x": 199,
      "y": 176,
      "size": 1,
      "price": "1011000000000000000000",
      "reserved": "0x7a9fe22691c811ea339d9b73150e6911a5343dca",
      "salt": "0xa2ca55c0d604afcb18bbcdc5129c29241cdb6ef0e471cf159a482f103f219870",
      "assetIds": []
    },
    {
      "x": 199,
      "y": 177,
      "size": 1,
      "price": "1011000000000000000000",
      "reserved": "",
      "salt": "0xbdb14a6e928f7dd2977583b2f5ee8f58c282a43fe06f1c84e6293b78f551deee",
      "assetIds": []
    },
    {
      "x": 199,
      "y": 178,
      "size": 1,
      "price": "1011000000000000000000",
      "reserved": "",
      "salt": "0xade1e8970f691ca03f161b30c46ce76205971f0ac1f1bf18342ffc95e136a57a",
      "assetIds": []
    },
    {
      "x": 199,
      "y": 179,
      "size": 1,
      "price": "1011000000000000000000",
      "reserved": "",
      "salt": "0x235770342c90289efd47f324177afed92d71b92d4271460b73d8ad14d307171a",
      "assetIds": []
    },
    {
      "x": 199,
      "y": 180,
      "size": 1,
      "price": "1011000000000000000000",
      "reserved": "",
      "salt": "0x9667487bed0fb4e18fb7729bf7f8c122d89cce1c076281e48cfed4d03ec0957e",
      "assetIds": []
    },
    {
      "x": 199,
      "y": 181,
      "size": 1,
      "price": "1011000000000000000000",
      "reserved": "0x7a9fe22691c811ea339d9b73150e6911a5343dca",
      "salt": "0xf592f22f25bf9a927d5045c528021f13296e47b189d34d35290883352a9e723d",
      "assetIds": []
    },
    {
      "x": 199,
      "y": 182,
      "size": 1,
      "price": "1011000000000000000000",
      "reserved": "",
      "salt": "0xa2c4f746508f586d8d214bca883e0146249a699647b4c4e099ca15d645c466ab",
      "assetIds": []
    },
    {
      "x": 199,
      "y": 183,
      "size": 1,
      "price": "1011000000000000000000",
      "reserved": "",
      "salt": "0x4073c81efaa0135e64e766194f45711d55656ff0a4c9dd8889099dec4be2762e",
      "assetIds": []
    },
    {
      "x": 199,
      "y": 184,
      "size": 1,
      "price": "1011000000000000000000",
      "reserved": "",
      "salt": "0x8c4be8ea88159848a94ad20bd84761bdedc248afe9bd6bc17699ef2c60f8d4a0",
      "assetIds": []
    },
    {
      "x": 199,
      "y": 185,
      "size": 1,
      "price": "1011000000000000000000",
      "reserved": "",
      "salt": "0xd4fd91cc1131a2c2f38dbe543151a232fa0ccecaf538b5d98c01c6518f80732e",
      "assetIds": []
    },
    {
      "x": 199,
      "y": 186,
      "size": 1,
      "price": "1011000000000000000000",
      "reserved": "0x7a9fe22691c811ea339d9b73150e6911a5343dca",
      "salt": "0x8e678f1fb872275f7b7b10e271f189c5b897a879b676e0eee1d9705829e601c2",
      "assetIds": []
    },
    {
      "x": 199,
      "y": 187,
      "size": 1,
      "price": "1011000000000000000000",
      "reserved": "",
      "salt": "0x764ed68ee291ef5ba30159eac5956f186e3453773f1fdd2ca4cfa5e1df340064",
      "assetIds": []
    },
    {
      "x": 199,
      "y": 188,
      "size": 1,
      "price": "1011000000000000000000",
      "reserved": "",
      "salt": "0x394317e1941e43b5480e9107fa9ed0ae1e7bf731cf13c82aada069966062a2ea",
      "assetIds": []
    },
    {
      "x": 199,
      "y": 189,
      "size": 1,
      "price": "4683000000000000000000",
      "reserved": "",
      "salt": "0x7b2a05bd575cda571549f18cc8298d43836398f4245ebd987d5ca6a79509d549",
      "assetIds": [
        "55464657044963196816950587289035428064568320970692304673817341489687933519875",
        "55464657044963196816950587289035428064568320970692304673817341489687933519884",
        "55464657044963196816950587289035428064568320970692304673817341489687941879810",
        "55464657044963196816950587289035428064568320970692304673817341489687933519872",
        "55464657044963196816950587289035428064568320970692304673817341489687933519879",
        "55464657044963196816950587289035428064568320970692304673817341489687933519874"
      ]
    },
    {
      "x": 199,
      "y": 190,
      "size": 1,
      "price": "4683000000000000000000",
      "reserved": "",
      "salt": "0x098b90796caea59d38174087bc4d550bcb65c4bb7b280663e8e278ad3d314377",
      "assetIds": [
        "55464657044963196816950587289035428064568320970692304673817341489687941879808",
        "55464657044963196816950587289035428064568320970692304673817341489687933519880",
        "55464657044963196816950587289035428064568320970692304673817341489687933519882",
        "55464657044963196816950587289035428064568320970692304673817341489687933519886",
        "55464657044963196816950587289035428064568320970692304673817341489687933519883"
      ]
    },
    {
      "x": 199,
      "y": 191,
      "size": 1,
      "price": "4683000000000000000000",
      "reserved": "",
      "salt": "0x58e8cda047c23c9eaf7fc00aed769cbd538b0c23aa78b4ffd974c0dabf338d7e",
      "assetIds": [
        "55464657044963196816950587289035428064568320970692304673817341489687933519875",
        "55464657044963196816950587289035428064568320970692304673817341489687933519884",
        "55464657044963196816950587289035428064568320970692304673817341489687941879810",
        "55464657044963196816950587289035428064568320970692304673817341489687933519872",
        "55464657044963196816950587289035428064568320970692304673817341489687933519879",
        "55464657044963196816950587289035428064568320970692304673817341489687933519874"
      ]
    },
    {
      "x": 200,
      "y": 182,
      "size": 1,
      "price": "1011000000000000000000",
      "reserved": "",
      "salt": "0x4055263b9300aebd6e60ba0a1ec97e88790b6cc929ddc09e6d8ec9cda12974c1",
      "assetIds": []
    },
    {
      "x": 200,
      "y": 183,
      "size": 1,
      "price": "1011000000000000000000",
      "reserved": "",
      "salt": "0x49ab9166ffc76d6672b40fbc67211750c69ee349675e8e704e5be60561943882",
      "assetIds": []
    },
    {
      "x": 200,
      "y": 184,
      "size": 1,
      "price": "1011000000000000000000",
      "reserved": "",
      "salt": "0x40e8dab36db9e3e8d6e94e6fccac1f17a3e24063c8160d976a0753c048ab13e4",
      "assetIds": []
    },
    {
      "x": 200,
      "y": 185,
      "size": 1,
      "price": "1011000000000000000000",
      "reserved": "",
      "salt": "0x4fea562f874be7ec3b840425c36fc490f69f263d9b5445fab893794741e3897a",
      "assetIds": []
    },
    {
      "x": 200,
      "y": 186,
      "size": 1,
      "price": "1011000000000000000000",
      "reserved": "",
      "salt": "0x2f276dd91104a0f1f0e5805bc15d35ce10502e3e72b0c7dd7e3b80d059450d28",
      "assetIds": []
    },
    {
      "x": 200,
      "y": 187,
      "size": 1,
      "price": "1011000000000000000000",
      "reserved": "",
      "salt": "0x8fab0e5614fff1e6e99e34639f27d1cbfce8a872d38654d60c962c81d3618d9c",
      "assetIds": []
    },
    {
      "x": 200,
      "y": 188,
      "size": 1,
      "price": "1011000000000000000000",
      "reserved": "",
      "salt": "0xa7cf8641fe4882cf30b4720cb936ad086394e17a20ba0105ce44a911a5e72a58",
      "assetIds": []
    },
    {
      "x": 200,
      "y": 189,
      "size": 1,
      "price": "4683000000000000000000",
      "reserved": "",
      "salt": "0xd594cb921b58093e3889e374907375b220c9f08dea9b6698f8f14b731fd38f7d",
      "assetIds": [
        "55464657044963196816950587289035428064568320970692304673817341489687933519875",
        "55464657044963196816950587289035428064568320970692304673817341489687933519884",
        "55464657044963196816950587289035428064568320970692304673817341489687941879810",
        "55464657044963196816950587289035428064568320970692304673817341489687933519872",
        "55464657044963196816950587289035428064568320970692304673817341489687933519879",
        "55464657044963196816950587289035428064568320970692304673817341489687933519874"
      ]
    },
    {
      "x": 200,
      "y": 190,
      "size": 1,
      "price": "4683000000000000000000",
      "reserved": "",
      "salt": "0xab4871a18a04d9b18b899dd51f838d9a823d2c2ca70026e9cd1eae548161be86",
      "assetIds": [
        "55464657044963196816950587289035428064568320970692304673817341489687933519875",
        "55464657044963196816950587289035428064568320970692304673817341489687933519884",
        "55464657044963196816950587289035428064568320970692304673817341489687941879810",
        "55464657044963196816950587289035428064568320970692304673817341489687933519872",
        "55464657044963196816950587289035428064568320970692304673817341489687933519879",
        "55464657044963196816950587289035428064568320970692304673817341489687933519874"
      ]
    },
    {
      "x": 200,
      "y": 191,
      "size": 1,
      "price": "4683000000000000000000",
      "reserved": "",
      "salt": "0xa90df360e4af43f52bb0504d30614c5c060961ca8523a835da26d39af62bca76",
      "assetIds": [
        "55464657044963196816950587289035428064568320970692304673817341489687933519875",
        "55464657044963196816950587289035428064568320970692304673817341489687933519884",
        "55464657044963196816950587289035428064568320970692304673817341489687941879810",
        "55464657044963196816950587289035428064568320970692304673817341489687933519872",
        "55464657044963196816950587289035428064568320970692304673817341489687933519879",
        "55464657044963196816950587289035428064568320970692304673817341489687933519874"
      ]
    },
    {
      "x": 183,
      "y": 192,
      "size": 3,
      "price": "8648000000000000000000",
      "reserved": "0x7a9fe22691c811ea339d9b73150e6911a5343dca",
      "salt": "0xeecfd069ef6c92d2050d3c614bd2de2565d778f316e3606833394c5d2df3a7c8",
      "assetIds": []
    },
    {
      "x": 186,
      "y": 183,
      "size": 3,
      "price": "8648000000000000000000",
      "reserved": "0x7a9fe22691c811ea339d9b73150e6911a5343dca",
      "salt": "0xc1d2a6fd01cc27fc3d3edf59a564fb9d8675844108617258f96843c6343c0163",
      "assetIds": []
    },
    {
      "x": 186,
      "y": 186,
      "size": 3,
      "price": "8648000000000000000000",
      "reserved": "0x7a9fe22691c811ea339d9b73150e6911a5343dca",
      "salt": "0x86333579a591140dc39d3a6a83a07d290c01ae0ced4c8d5c16a13e499c47c13c",
      "assetIds": []
    },
    {
      "x": 186,
      "y": 195,
      "size": 3,
      "price": "8648000000000000000000",
      "reserved": "0x7a9fe22691c811ea339d9b73150e6911a5343dca",
      "salt": "0x0cdca2c91f1529582e4ed0dbd855c966923c0481c008cd5d6ad82bd666c2bf2b",
      "assetIds": []
    },
    {
      "x": 189,
      "y": 177,
      "size": 3,
      "price": "8648000000000000000000",
      "reserved": "0x7a9fe22691c811ea339d9b73150e6911a5343dca",
      "salt": "0xc1dfda387272e537ab2267e9fc6c932f75fa888301e8a5d6577d8446acad375c",
      "assetIds": []
    },
    {
      "x": 189,
      "y": 195,
      "size": 3,
      "price": "8648000000000000000000",
      "reserved": "0x7a9fe22691c811ea339d9b73150e6911a5343dca",
      "salt": "0x13f2f37baddfcb39e1eeb4543397e6d82913b510e02784c2adac400c39df2f83",
      "assetIds": []
    },
    {
      "x": 192,
      "y": 177,
      "size": 3,
      "price": "8648000000000000000000",
      "reserved": "0x7a9fe22691c811ea339d9b73150e6911a5343dca",
      "salt": "0x8dd67fdaba6f007ca8780fbf2395773427e6b17f1b674687ca8269d2b470658a",
      "assetIds": []
    },
    {
      "x": 192,
      "y": 183,
      "size": 3,
      "price": "8648000000000000000000",
      "reserved": "0x7a9fe22691c811ea339d9b73150e6911a5343dca",
      "salt": "0xd9803056103563f9160e8a0310a38a025deba9ed2f2eca05f28592b842b9e796",
      "assetIds": []
    },
    {
      "x": 162,
      "y": 192,
      "size": 6,
      "price": "32772000000000000000000",
      "reserved": "0x7a9fe22691c811ea339d9b73150e6911a5343dca",
      "salt": "0x781d6d33b51a8b65ea231bef5cc3a654a927fe168d657df9f205671766de02a1",
      "assetIds": []
    },
    {
      "x": 174,
      "y": 174,
      "size": 6,
      "price": "32772000000000000000000",
      "reserved": "0x7a9fe22691c811ea339d9b73150e6911a5343dca",
      "salt": "0x1275fad3d15b82d83550b134ef29a1bbae3f8f13d3049ce389f522c53fde520d",
      "assetIds": []
    },
    {
      "x": 180,
      "y": 180,
      "size": 6,
      "price": "32772000000000000000000",
      "reserved": "0x7a9fe22691c811ea339d9b73150e6911a5343dca",
      "salt": "0xbfb8c2b31956c8264f87d4b23ce4356f1f115ee368f52c8acb22555cc4789690",
      "assetIds": []
    },
    {
      "x": 192,
      "y": 168,
      "size": 6,
      "price": "32772000000000000000000",
      "reserved": "0x7a9fe22691c811ea339d9b73150e6911a5343dca",
      "salt": "0x740fc3e5eceafc579b79ccaa13c7baf1b9eee6b8aa85f84401969d74ebbe2c18",
      "assetIds": []
    },
    {
      "x": 168,
      "y": 180,
      "size": 12,
      "price": "123806000000000000000000",
      "reserved": "0x7a9fe22691c811ea339d9b73150e6911a5343dca",
      "salt": "0x98f087f7875211e56692e4c765593f919f9742080b92b5da7336788c9694e4b3",
      "assetIds": []
    },
    {
      "x": 144,
      "y": 168,
      "size": 24,
      "price": "466102000000000000000000",
      "reserved": "0x7a9fe22691c811ea339d9b73150e6911a5343dca",
      "salt": "0x69eaec4d7be378aedbdbb9ecddaf2f5fa5738968defbb3ad5bf881d82440a77d",
      "assetIds": []
    }
  ],
  "solcInputHash": "ea3f750ed6a3f377b8756d8b7b11eedf",
  "bytecode": "0x610160604052620d2f006005556103e860075534801561001e57600080fd5b5060405161242e38038061242e833981810160405261018081101561004257600080fd5b50805160208201516040830151606080850151608086015160a08088015160c0808a015160e08b01516101008c01516101208d01516101408e0151610160909e0151600280546001600160a01b0319166001600160a01b03861617905560038390558d8b1b6001600160601b0319908116909852998c901b909616909352999a9899979895979496929590949391926100dc8a600161014a565b600680546001600160a01b03199081166001600160a01b039a8b1617909155610140979097526101209590955260008054909616979096169690961790935550606093841b6001600160601b031990811660e05292841b831660805290921b1661010052506101ae92505050565b6001600160a01b038216600081815260016020908152604091829020805460ff191685151590811790915582519384529083015280517fb21eb88b4e33b3f1281830a7178d74d8aa73220416215726b68ae23d539515cb9281900390910190a15050565b60805160601c60a05160601c60c05160601c60e05160601c6101005160601c61012051610140516121fb610233600039806109375280611d44525080610913528061139a525080611da45250806115d252806116f4525080610c50528061159c5280611dd852508061166152806116c5525080610dfa528061190852506121fb6000f3fe608060405234801561001057600080fd5b50600436106101515760003560e01c8063984d6252116100cd578063dc5074af11610081578063ecb255b511610066578063ecb255b514610857578063f23a6e6114610874578063f2e7b3811461090957610151565b8063dc5074af14610814578063e56f8a9e1461083a57610151565b8063bc197c81116100b2578063bc197c81146105d3578063c10a420814610735578063caed35001461080c57610151565b8063984d6252146104db578063b522ecff146105ad57610151565b80636e9960c3116101245780638a04af6a116101095780638a04af6a1461032a5780638a12b82f146103585780638f283970146104b557610151565b80636e9960c3146102fe57806377f1c3ac1461032257610151565b806325cb5bc014610156578063495906571461017057806358bc29441461017857806365194ce7146101a0575b600080fd5b61015e610911565b60408051918252519081900360200190f35b61015e610935565b61019e6004803603602081101561018e57600080fd5b50356001600160a01b0316610959565b005b610246600480360360208110156101b657600080fd5b8101906020810181356401000000008111156101d157600080fd5b8201836020820111156101e357600080fd5b8035906020019184600183028401116401000000008311171561020557600080fd5b91908080601f016020809104026020016040519081016040528093929190818152602001838380828437600092019190915250929550610a04945050505050565b6040518080602001866001600160a01b03166001600160a01b03168152602001856001600160a01b03166001600160a01b03168152602001848152602001838152602001828103825287818151815260200191508051906020019080838360005b838110156102bf5781810151838201526020016102a7565b50505050905090810190601f1680156102ec5780820380516001836020036101000a031916815260200191505b50965050505050505060405180910390f35b610306610b09565b604080516001600160a01b039092168252519081900360200190f35b61015e610b18565b61019e6004803603604081101561034057600080fd5b506001600160a01b0381351690602001351515610b1e565b61019e600480360361018081101561036f57600080fd5b6001600160a01b038235811692602081013582169260408201359092169160608201359160808101359160a08201359160c08101359160e0820135916101008101359181019061014081016101208201356401000000008111156103d257600080fd5b8201836020820111156103e457600080fd5b8035906020019184602083028401116401000000008311171561040657600080fd5b91939092909160208101903564010000000081111561042457600080fd5b82018360208201111561043657600080fd5b8035906020019184602083028401116401000000008311171561045857600080fd5b91939092909160208101903564010000000081111561047657600080fd5b82018360208201111561048857600080fd5b803590602001918460018302840111640100000000831117156104aa57600080fd5b509092509050610b75565b61019e600480360360208110156104cb57600080fd5b50356001600160a01b0316610cc3565b61019e600480360360608110156104f157600080fd5b6001600160a01b03823516919081019060408101602082013564010000000081111561051c57600080fd5b82018360208201111561052e57600080fd5b8035906020019184602083028401116401000000008311171561055057600080fd5b91939092909160208101903564010000000081111561056e57600080fd5b82018360208201111561058057600080fd5b803590602001918460208302840111640100000000831117156105a257600080fd5b509092509050610d99565b61019e600480360360208110156105c357600080fd5b50356001600160a01b0316610f24565b610700600480360360a08110156105e957600080fd5b6001600160a01b03823581169260208101359091169181019060608101604082013564010000000081111561061d57600080fd5b82018360208201111561062f57600080fd5b8035906020019184602083028401116401000000008311171561065157600080fd5b91939092909160208101903564010000000081111561066f57600080fd5b82018360208201111561068157600080fd5b803590602001918460208302840111640100000000831117156106a357600080fd5b9193909290916020810190356401000000008111156106c157600080fd5b8201836020820111156106d357600080fd5b803590602001918460018302840111640100000000831117156106f557600080fd5b50909250905061100d565b604080517fffffffff000000000000000000000000000000000000000000000000000000009092168252519081900360200190f35b6107f8600480360360a081101561074b57600080fd5b81019060208101813564010000000081111561076657600080fd5b82018360208201111561077857600080fd5b8035906020019184600183028401116401000000008311171561079a57600080fd5b91908080601f016020809104026020016040519081016040528093929190818152602001838380828437600092019190915250929550506001600160a01b03833581169450602084013516926040810135925060600135905061103a565b604080519115158252519081900360200190f35b610306611176565b6107f86004803603602081101561082a57600080fd5b50356001600160a01b0316611185565b61019e6004803603602081101561085057600080fd5b50356111a3565b61019e6004803603602081101561086d57600080fd5b5035611207565b610700600480360360a081101561088a57600080fd5b6001600160a01b03823581169260208101359091169160408201359160608101359181019060a0810160808201356401000000008111156108ca57600080fd5b8201836020820111156108dc57600080fd5b803590602001918460018302840111640100000000831117156108fe57600080fd5b50909250905061126b565b61015e611296565b7f000000000000000000000000000000000000000000000000000000000000000090565b7f000000000000000000000000000000000000000000000000000000000000000090565b6000546001600160a01b031633146109b8576040805162461bcd60e51b815260206004820152601060248201527f53656e646572206e6f742061646d696e00000000000000000000000000000000604482015290519081900360640190fd5b600554600280546001600160a01b03908116600090815260046020526040902042909301909255805473ffffffffffffffffffffffffffffffffffffffff191692909116919091179055565b606060008060008060606000806000808a80602001905160a0811015610a2957600080fd5b8101908080516040519392919084640100000000821115610a4957600080fd5b908301906020820185811115610a5e57600080fd5b8251640100000000811182820188101715610a7857600080fd5b82525081516020918201929091019080838360005b83811015610aa5578181015183820152602001610a8d565b50505050905090810190601f168015610ad25780820380516001836020036101000a031916815260200191505b5060409081526020820151908201516060830151608090930151959f50909d509b5099509197505050505050505091939590929450565b6000546001600160a01b031690565b60035490565b6000546001600160a01b03163314610b675760405162461bcd60e51b815260040180806020018281038252602e815260200180612198602e913960400191505060405180910390fd5b610b71828261129c565b5050565b610b7f898961131e565b610c048f8e8e8e8e8e8d8d8d80806020026020016040519081016040528093929190818152602001838360200280828437600081840152601f19601f820116905080830192505050505050508c8c8080602002602001604051908101604052809392919081815260200183836020028082843760009201919091525061139892505050565b610c458f8984848080601f01602080910402602001604051908101604052809392919081815260200183838082843760009201919091525061157592505050565b610c758f8f8e8e8e8d7f00000000000000000000000000000000000000000000000000000000000000008f6115c6565b610cb28e87878080602002602001604051908101604052809392919081815260200183836020028082843760009201919091525061189192505050565b505050505050505050505050505050565b6000546001600160a01b03163314610d22576040805162461bcd60e51b815260206004820152601b60248201527f6f6e6c792061646d696e2063616e206368616e67652061646d696e0000000000604482015290519081900360640190fd5b600054604080516001600160a01b039283168152918316602083015280517f7e644d79422f17c01e4894b5f4f588d331ebfa28653d42ae832dc59e38c9798f9281900390910190a16000805473ffffffffffffffffffffffffffffffffffffffff19166001600160a01b0392909216919091179055565b6000546001600160a01b03163314610df8576040805162461bcd60e51b815260206004820152600e60248201527f4e4f545f415554484f52495a4544000000000000000000000000000000000000604482015290519081900360640190fd5b7f00000000000000000000000000000000000000000000000000000000000000006001600160a01b0316632eb2c2d63087878787876040518763ffffffff1660e01b815260040180876001600160a01b03166001600160a01b03168152602001866001600160a01b03166001600160a01b031681526020018060200180602001806020018481038452888882818152602001925060200280828437600083820152601f01601f19169091018581038452868152602090810191508790870280828437600081840152601f19601f8201169050808301925050508481038252600081526020016020019950505050505050505050600060405180830381600087803b158015610f0557600080fd5b505af1158015610f19573d6000803e3d6000fd5b505050505050505050565b6001600160a01b038116610f7f576040805162461bcd60e51b815260206004820152600c60248201527f5a45524f5f414444524553530000000000000000000000000000000000000000604482015290519081900360640190fd5b6000546001600160a01b03163314610fde576040805162461bcd60e51b815260206004820152600e60248201527f4e4f545f415554484f52495a4544000000000000000000000000000000000000604482015290519081900360640190fd5b6006805473ffffffffffffffffffffffffffffffffffffffff19166001600160a01b0392909216919091179055565b7fbc197c810000000000000000000000000000000000000000000000000000000098975050505050505050565b600060035482118061105d5750836001600160a01b0316856001600160a01b0316145b8061106757508242115b156110745750600061116d565b60408051606087811b7fffffffffffffffffffffffffffffffffffffffff0000000000000000000000009081166020808501919091529188901b166034830152604882018690526068808301869052835180840390910181526088830184528051908201207f19457468657265756d205369676e6564204d6573736167653a0a33320000000060a884015260c48084018290528451808503909101815260e4909301909352815191012060009061112b9089611a55565b6001600160a01b03811660009081526004602052604090205490915042116111585760019250505061116d565b6002546001600160a01b039081169116149150505b95945050505050565b6002546001600160a01b031690565b6001600160a01b031660009081526001602052604090205460ff1690565b6000546001600160a01b03163314611202576040805162461bcd60e51b815260206004820152601060248201527f53656e646572206e6f742061646d696e00000000000000000000000000000000604482015290519081900360640190fd5b600355565b6000546001600160a01b03163314611266576040805162461bcd60e51b815260206004820152600e60248201527f4e4f545f415554484f52495a4544000000000000000000000000000000000000604482015290519081900360640190fd5b600755565b7ff23a6e61000000000000000000000000000000000000000000000000000000009695505050505050565b60075490565b6001600160a01b03821660008181526001602090815260409182902080547fffffffffffffffffffffffffffffffffffffffffffffffffffffffffffffff001685151590811790915582519384529083015280517fb21eb88b4e33b3f1281830a7178d74d8aa73220416215726b68ae23d539515cb9281900390910190a15050565b6113456103e861133960075485611b2290919063ffffffff16565b9063ffffffff611b9816565b8114610b71576040805162461bcd60e51b815260206004820152600d60248201527f494e56414c49445f505249434500000000000000000000000000000000000000604482015290519081900360640190fd5b7f0000000000000000000000000000000000000000000000000000000000000000421061140c576040805162461bcd60e51b815260206004820152600c60248201527f53414c455f49535f4f5645520000000000000000000000000000000000000000604482015290519081900360640190fd5b6001600160a01b03891633148061143257503360009081526001602052604090205460ff165b611483576040805162461bcd60e51b815260206004820152600e60248201527f4e4f545f415554484f52495a4544000000000000000000000000000000000000604482015290519081900360640190fd5b6001600160a01b03881615806114aa5750886001600160a01b0316886001600160a01b0316145b6114fb576040805162461bcd60e51b815260206004820152600d60248201527f52455345525645445f4c414e4400000000000000000000000000000000000000604482015290519081900360640190fd5b600061150c888888888d8989611bfd565b90506115188282611ca2565b611569576040805162461bcd60e51b815260206004820152600c60248201527f494e56414c49445f4c414e440000000000000000000000000000000000000000604482015290519081900360640190fd5b50505050505050505050565b60006115818484611d6b565b6006549091506115c0908590839085906001600160a01b03167f0000000000000000000000000000000000000000000000000000000000000000611eb8565b50505050565b83600114806115fc57507f00000000000000000000000000000000000000000000000000000000000000006001600160a01b0316155b156116c357604080517f6e1e3bbf0000000000000000000000000000000000000000000000000000000081526001600160a01b03898116600483015260248201879052604482018990526064820188905260a06084830152600060a4830181905292517f000000000000000000000000000000000000000000000000000000000000000090911692636e1e3bbf9260e4808201939182900301818387803b1580156116a657600080fd5b505af11580156116ba573d6000803e3d6000fd5b50505050611827565b7f00000000000000000000000000000000000000000000000000000000000000006001600160a01b0316636e1e3bbf7f00000000000000000000000000000000000000000000000000000000000000008689898c60405160200180826001600160a01b03166001600160a01b031681526020019150506040516020818303038152906040526040518663ffffffff1660e01b815260040180866001600160a01b03166001600160a01b0316815260200185815260200184815260200183815260200180602001828103825283818151815260200191508051906020019080838360005b838110156117be5781810151838201526020016117a6565b50505050905090810190601f1680156117eb5780820380516001836020036101000a031916815260200191505b509650505050505050600060405180830381600087803b15801561180e57600080fd5b505af1158015611822573d6000803e3d6000fd5b505050505b60408051858152602081018590526001600160a01b03848116828401526060820184905291516101988802890192808b1692908c16917fe4dfa6ac11314892f3029b34a25b1a887da3b1cab2bbf8506d87128ba6e3ac029181900360800190a45050505050505050565b6060815167ffffffffffffffff811180156118ab57600080fd5b506040519080825280602002602001820160405280156118d5578160200160208202803683370190505b50905060005b82518110156119055760018282815181106118f257fe5b60209081029190910101526001016118db565b507f00000000000000000000000000000000000000000000000000000000000000006001600160a01b0316632eb2c2d6308585856040518563ffffffff1660e01b815260040180856001600160a01b03166001600160a01b03168152602001846001600160a01b03166001600160a01b03168152602001806020018060200180602001848103845286818151815260200191508051906020019060200280838360005b838110156119c05781810151838201526020016119a8565b50505050905001848103835285818151815260200191508051906020019060200280838360005b838110156119ff5781810151838201526020016119e7565b50505050905001848103825260008152602001602001975050505050505050600060405180830381600087803b158015611a3857600080fd5b505af1158015611a4c573d6000803e3d6000fd5b50505050505050565b60008151604114611a6557600080fd5b60208201516040830151606084015160001a601b811015611a8457601b015b8060ff16601b1480611a9957508060ff16601c145b611aa257600080fd5b6040805160008152602080820180845289905260ff8416828401526060820186905260808201859052915160019260a0808401939192601f1981019281900390910190855afa158015611af9573d6000803e3d6000fd5b5050604051601f1901519450506001600160a01b038416611b1957600080fd5b50505092915050565b600082611b3157506000611b92565b5081810281838281611b3f57fe5b0414611b92576040805162461bcd60e51b815260206004820152600860248201527f6f766572666c6f77000000000000000000000000000000000000000000000000604482015290519081900360640190fd5b92915050565b600081611bec576040805162461bcd60e51b815260206004820152600960248201527f64697662797a65726f0000000000000000000000000000000000000000000000604482015290519081900360640190fd5b818381611bf557fe5b049392505050565b60008787878787878760405160200180888152602001878152602001868152602001858152602001846001600160a01b03166001600160a01b031660601b8152601401838152602001828051906020019060200280838360005b83811015611c6f578181015183820152602001611c57565b50505050905001975050505050505050604051602081830303815290604052805190602001209050979650505050505050565b600081815b8451811015611d41576000858281518110611cbe57fe5b6020026020010151905080831015611d065782816040516020018083815260200182815260200192505050604051602081830303815290604052805190602001209250611d38565b808360405160200180838152602001828152602001925050506040516020818303038152906040528051906020012092505b50600101611ca7565b507f0000000000000000000000000000000000000000000000000000000000000000149392505050565b600080611d84606461133985600563ffffffff611b2216565b604080516323b872dd60e01b81526001600160a01b0387811660048301527f0000000000000000000000000000000000000000000000000000000000000000811660248301526044820184905291519293507f0000000000000000000000000000000000000000000000000000000000000000909116916323b872dd916064808201926020929091908290030181600087803b158015611e2357600080fd5b505af1158015611e37573d6000803e3d6000fd5b505050506040513d6020811015611e4d57600080fd5b5051611ea0576040805162461bcd60e51b815260206004820152601360248201527f4645455f5452414e534645525f4641494c454400000000000000000000000000604482015290519081900360640190fd5b611eb0838263ffffffff61213a16565b949350505050565b82518190859015612062576060600080600080611ed48a610a04565b9398509196509450925090506000611eef868686868661103a565b15611f7d57611f09611f018d84611b22565b612710611b98565b9050886001600160a01b0316846001600160a01b0316866001600160a01b03167fac7a699eb95c3c6d390ec4626de17ef9a67b35891efdb197beba7c7fdd45fac48f858760405180848152602001838152602001828152602001935050505060405180910390a4611f7a878261213a565b96505b801561205b57604080516323b872dd60e01b81526001600160a01b038f811660048301528781166024830152604482018490529151918a16916323b872dd916064808201926020929091908290030181600087803b158015611fde57600080fd5b505af1158015611ff2573d6000803e3d6000fd5b505050506040513d602081101561200857600080fd5b505161205b576040805162461bcd60e51b815260206004820152601960248201527f636f6d6d6973696f6e207472616e73666572206661696c656400000000000000604482015290519081900360640190fd5b5050505050505b604080516323b872dd60e01b81526001600160a01b0389811660048301528681166024830152604482018490529151918416916323b872dd916064808201926020929091908290030181600087803b1580156120bd57600080fd5b505af11580156120d1573d6000803e3d6000fd5b505050506040513d60208110156120e757600080fd5b5051611a4c576040805162461bcd60e51b815260206004820152601760248201527f7061796d656e74207472616e73666572206661696c6564000000000000000000604482015290519081900360640190fd5b600082821115612191576040805162461bcd60e51b815260206004820152600860248201527f756e6465666c6f77000000000000000000000000000000000000000000000000604482015290519081900360640190fd5b5090039056fe6f6e6c792061646d696e2063616e207365747570206d6574615472616e73616374696f6e50726f636573736f7273a26469706673582212200ff38c5741c66b2a22a9a9ee2abe0f55626323082b6b4443921fd3b25484584a64736f6c63430006050033",
  "devdoc": {
    "methods": {
      "buyLandWithSand(address,address,address,uint256,uint256,uint256,uint256,uint256,bytes32,uint256[],bytes32[],bytes)": {
        "params": {
          "buyer": "address that perform the payment",
          "priceInSand": "price in SAND to purchase that Land",
          "proof": "merkleProof for that particular Land",
          "reserved": "the reserved address (if any)",
          "size": "size of the pack of Land to purchase",
          "to": "address that will own the purchased Land",
          "x": "x coordinate of the Land",
          "y": "y coordinate of the Land"
        }
      },
      "changeAdmin(address)": {
        "details": "change the administrator to be `newAdmin`.",
        "params": {
          "newAdmin": "address of the new administrator."
        }
      },
      "getAdmin()": {
        "details": "gives the current administrator of this contract.",
        "returns": {
          "_0": "the current administrator of this contract."
        }
      },
      "getSigningWallet()": {
        "details": "signing wallet authorized for referral",
        "returns": {
          "_0": "the address of the signing wallet"
        }
      },
      "isMetaTransactionProcessor(address)": {
        "details": "check whether address `who` is given meta-transaction execution rights.",
        "params": {
          "who": "The address to query."
        },
        "returns": {
          "_0": "whether the address has meta-transaction execution rights."
        }
      },
      "isReferralValid(bytes,address,address,uint256,uint256)": {
        "params": {
          "commissionRate": "The commissionRate of the referral",
          "expiryTime": "The expiry time of the referral",
          "referee": "The address of the referee",
          "referrer": "The address of the referrer",
          "signature": "The signature to check (signed referral)"
        },
        "returns": {
          "_0": "True if the referral is valid"
        }
      },
      "setMetaTransactionProcessor(address,bool)": {
        "details": "Enable or disable the ability of `metaTransactionProcessor` to perform meta-tx (metaTransactionProcessor rights).",
        "params": {
          "enabled": "set whether the metaTransactionProcessor is enabled or disabled.",
          "metaTransactionProcessor": "address that will be given/removed metaTransactionProcessor rights."
        }
      },
      "setReceivingWallet(address)": {
        "params": {
          "newWallet": "address of the new receiving wallet"
        }
      },
      "updateMaxCommissionRate(uint256)": {
        "details": "Update the maximum commission rate",
        "params": {
          "newMaxCommissionRate": "The new maximum commission rate"
        }
      },
      "updateSigningWallet(address)": {
        "details": "Update the signing wallet",
        "params": {
          "newSigningWallet": "The new address of the signing wallet"
        }
      },
      "withdrawAssets(address,uint256[],uint256[])": {
        "params": {
          "assetIds": "the assetIds to be transferred",
          "to": "intended recipient of the asset tokens",
          "values": "the quantities of the assetIds to be transferred"
        }
      }
    },
    "title": "Estate Sale contract with referral"
  },
  "userdoc": {
    "methods": {
      "buyLandWithSand(address,address,address,uint256,uint256,uint256,uint256,uint256,bytes32,uint256[],bytes32[],bytes)": {
        "notice": "buy Land with SAND using the merkle proof associated with it"
      },
      "getExpiryTime()": {
        "notice": "Gets the expiry time for the current sale"
      },
      "getMaxCommisionRate()": {
        "notice": "the max commision rate"
      },
      "getMerkleRoot()": {
        "notice": "Gets the Merkle root associated with the current sale"
      },
      "isReferralValid(bytes,address,address,uint256,uint256)": {
        "notice": "Check if a referral is valid"
      },
      "setReceivingWallet(address)": {
        "notice": "set the wallet receiving the proceeds"
      },
      "withdrawAssets(address,uint256[],uint256[])": {
        "notice": "enable Admin to withdraw remaining assets from EstateSaleWithFee contract"
      }
    },
    "notice": "This contract manages the sale of our lands as Estates"
  },
  "storageLayout": {
    "storage": [
      {
        "astId": 13640,
        "contract": "src/solc_0.6/EstateSale/EstateSaleWithFee.sol:EstateSaleWithFee",
        "label": "_admin",
        "offset": 0,
        "slot": "0",
        "type": "t_address"
      },
      {
        "astId": 13702,
        "contract": "src/solc_0.6/EstateSale/EstateSaleWithFee.sol:EstateSaleWithFee",
        "label": "_metaTransactionContracts",
        "offset": 0,
        "slot": "1",
        "type": "t_mapping(t_address,t_bool)"
      },
      {
        "astId": 11818,
        "contract": "src/solc_0.6/EstateSale/EstateSaleWithFee.sol:EstateSaleWithFee",
        "label": "_signingWallet",
        "offset": 0,
        "slot": "2",
        "type": "t_address"
      },
      {
        "astId": 11820,
        "contract": "src/solc_0.6/EstateSale/EstateSaleWithFee.sol:EstateSaleWithFee",
        "label": "_maxCommissionRate",
        "offset": 0,
        "slot": "3",
        "type": "t_uint256"
      },
      {
        "astId": 11824,
        "contract": "src/solc_0.6/EstateSale/EstateSaleWithFee.sol:EstateSaleWithFee",
        "label": "_previousSigningWallets",
        "offset": 0,
        "slot": "4",
        "type": "t_mapping(t_address,t_uint256)"
      },
      {
        "astId": 11833,
        "contract": "src/solc_0.6/EstateSale/EstateSaleWithFee.sol:EstateSaleWithFee",
        "label": "_previousSigningDelay",
        "offset": 0,
        "slot": "5",
        "type": "t_uint256"
      },
      {
        "astId": 8205,
        "contract": "src/solc_0.6/EstateSale/EstateSaleWithFee.sol:EstateSaleWithFee",
        "label": "_wallet",
        "offset": 0,
        "slot": "6",
        "type": "t_address_payable"
      },
      {
        "astId": 8215,
        "contract": "src/solc_0.6/EstateSale/EstateSaleWithFee.sol:EstateSaleWithFee",
        "label": "_multiplier",
        "offset": 0,
        "slot": "7",
        "type": "t_uint256"
      }
    ],
    "types": {
      "t_address": {
        "encoding": "inplace",
        "label": "address",
        "numberOfBytes": "20"
      },
      "t_address_payable": {
        "encoding": "inplace",
        "label": "address payable",
        "numberOfBytes": "20"
      },
      "t_bool": {
        "encoding": "inplace",
        "label": "bool",
        "numberOfBytes": "1"
      },
      "t_mapping(t_address,t_bool)": {
        "encoding": "mapping",
        "key": "t_address",
        "label": "mapping(address => bool)",
        "numberOfBytes": "32",
        "value": "t_bool"
      },
      "t_mapping(t_address,t_uint256)": {
        "encoding": "mapping",
        "key": "t_address",
        "label": "mapping(address => uint256)",
        "numberOfBytes": "32",
        "value": "t_uint256"
      },
      "t_uint256": {
        "encoding": "inplace",
        "label": "uint256",
        "numberOfBytes": "32"
      }
    }
  }
}