{
  "address": "0x3e440bB61341B8Febb534Ea4e3475becE74E58fB",
  "abi": [
    {
      "inputs": [
        {
          "internalType": "address",
          "name": "landAddress",
          "type": "address"
        },
        {
          "internalType": "address",
          "name": "sandContractAddress",
          "type": "address"
        },
        {
          "internalType": "address",
          "name": "initialMetaTx",
          "type": "address"
        },
        {
          "internalType": "address",
          "name": "admin",
          "type": "address"
        },
        {
          "internalType": "address payable",
          "name": "initialWalletAddress",
          "type": "address"
        },
        {
          "internalType": "bytes32",
          "name": "merkleRoot",
          "type": "bytes32"
        },
        {
          "internalType": "uint256",
          "name": "expiryTime",
          "type": "uint256"
        },
        {
          "internalType": "address",
          "name": "initialSigningWallet",
          "type": "address"
        },
        {
          "internalType": "uint256",
          "name": "initialMaxCommissionRate",
          "type": "uint256"
        },
        {
          "internalType": "address",
          "name": "estate",
          "type": "address"
        },
        {
          "internalType": "address",
          "name": "asset",
          "type": "address"
        },
        {
          "internalType": "address",
          "name": "feeDistributor",
          "type": "address"
        },
        {
          "internalType": "address",
          "name": "authValidator",
          "type": "address"
        }
      ],
      "stateMutability": "nonpayable",
      "type": "constructor"
    },
    {
      "anonymous": false,
      "inputs": [
        {
          "indexed": false,
          "internalType": "address",
          "name": "oldAdmin",
          "type": "address"
        },
        {
          "indexed": false,
          "internalType": "address",
          "name": "newAdmin",
          "type": "address"
        }
      ],
      "name": "AdminChanged",
      "type": "event"
    },
    {
      "anonymous": false,
      "inputs": [
        {
          "indexed": true,
          "internalType": "address",
          "name": "buyer",
          "type": "address"
        },
        {
          "indexed": true,
          "internalType": "address",
          "name": "to",
          "type": "address"
        },
        {
          "indexed": true,
          "internalType": "uint256",
          "name": "topCornerId",
          "type": "uint256"
        },
        {
          "indexed": false,
          "internalType": "uint256",
          "name": "size",
          "type": "uint256"
        },
        {
          "indexed": false,
          "internalType": "uint256",
          "name": "price",
          "type": "uint256"
        },
        {
          "indexed": false,
          "internalType": "address",
          "name": "token",
          "type": "address"
        },
        {
          "indexed": false,
          "internalType": "uint256",
          "name": "amountPaid",
          "type": "uint256"
        }
      ],
      "name": "LandQuadPurchased",
      "type": "event"
    },
    {
      "anonymous": false,
      "inputs": [
        {
          "indexed": false,
          "internalType": "address",
          "name": "metaTransactionProcessor",
          "type": "address"
        },
        {
          "indexed": false,
          "internalType": "bool",
          "name": "enabled",
          "type": "bool"
        }
      ],
      "name": "MetaTransactionProcessor",
      "type": "event"
    },
    {
      "anonymous": false,
      "inputs": [
        {
          "indexed": true,
          "internalType": "address",
          "name": "referrer",
          "type": "address"
        },
        {
          "indexed": true,
          "internalType": "address",
          "name": "referee",
          "type": "address"
        },
        {
          "indexed": true,
          "internalType": "address",
          "name": "token",
          "type": "address"
        },
        {
          "indexed": false,
          "internalType": "uint256",
          "name": "amount",
          "type": "uint256"
        },
        {
          "indexed": false,
          "internalType": "uint256",
          "name": "commission",
          "type": "uint256"
        },
        {
          "indexed": false,
          "internalType": "uint256",
          "name": "commissionRate",
          "type": "uint256"
        }
      ],
      "name": "ReferralUsed",
      "type": "event"
    },
    {
      "inputs": [
        {
          "internalType": "address",
          "name": "buyer",
          "type": "address"
        },
        {
          "internalType": "address",
          "name": "to",
          "type": "address"
        },
        {
          "internalType": "address",
          "name": "reserved",
          "type": "address"
        },
        {
          "internalType": "uint256[]",
          "name": "info",
          "type": "uint256[]"
        },
        {
          "internalType": "bytes32",
          "name": "salt",
          "type": "bytes32"
        },
        {
          "internalType": "uint256[]",
          "name": "assetIds",
          "type": "uint256[]"
        },
        {
          "internalType": "bytes32[]",
          "name": "proof",
          "type": "bytes32[]"
        },
        {
          "internalType": "bytes",
          "name": "referral",
          "type": "bytes"
        },
        {
          "internalType": "bytes",
          "name": "signature",
          "type": "bytes"
        }
      ],
      "name": "buyLandWithSand",
      "outputs": [],
      "stateMutability": "nonpayable",
      "type": "function"
    },
    {
      "inputs": [
        {
          "internalType": "address",
          "name": "newAdmin",
          "type": "address"
        }
      ],
      "name": "changeAdmin",
      "outputs": [],
      "stateMutability": "nonpayable",
      "type": "function"
    },
    {
      "inputs": [
        {
          "internalType": "bytes",
          "name": "referral",
          "type": "bytes"
        }
      ],
      "name": "decodeReferral",
      "outputs": [
        {
          "internalType": "bytes",
          "name": "",
          "type": "bytes"
        },
        {
          "internalType": "address",
          "name": "",
          "type": "address"
        },
        {
          "internalType": "address",
          "name": "",
          "type": "address"
        },
        {
          "internalType": "uint256",
          "name": "",
          "type": "uint256"
        },
        {
          "internalType": "uint256",
          "name": "",
          "type": "uint256"
        }
      ],
      "stateMutability": "pure",
      "type": "function"
    },
    {
      "inputs": [],
      "name": "getAdmin",
      "outputs": [
        {
          "internalType": "address",
          "name": "",
          "type": "address"
        }
      ],
      "stateMutability": "view",
      "type": "function"
    },
    {
      "inputs": [],
      "name": "getExpiryTime",
      "outputs": [
        {
          "internalType": "uint256",
          "name": "",
          "type": "uint256"
        }
      ],
      "stateMutability": "view",
      "type": "function"
    },
    {
      "inputs": [],
      "name": "getMaxCommisionRate",
      "outputs": [
        {
          "internalType": "uint256",
          "name": "",
          "type": "uint256"
        }
      ],
      "stateMutability": "view",
      "type": "function"
    },
    {
      "inputs": [],
      "name": "getMerkleRoot",
      "outputs": [
        {
          "internalType": "bytes32",
          "name": "",
          "type": "bytes32"
        }
      ],
      "stateMutability": "view",
      "type": "function"
    },
    {
      "inputs": [],
      "name": "getSigningWallet",
      "outputs": [
        {
          "internalType": "address",
          "name": "",
          "type": "address"
        }
      ],
      "stateMutability": "view",
      "type": "function"
    },
    {
      "inputs": [
        {
          "internalType": "address",
          "name": "who",
          "type": "address"
        }
      ],
      "name": "isMetaTransactionProcessor",
      "outputs": [
        {
          "internalType": "bool",
          "name": "",
          "type": "bool"
        }
      ],
      "stateMutability": "view",
      "type": "function"
    },
    {
      "inputs": [
        {
          "internalType": "bytes",
          "name": "signature",
          "type": "bytes"
        },
        {
          "internalType": "address",
          "name": "referrer",
          "type": "address"
        },
        {
          "internalType": "address",
          "name": "referee",
          "type": "address"
        },
        {
          "internalType": "uint256",
          "name": "expiryTime",
          "type": "uint256"
        },
        {
          "internalType": "uint256",
          "name": "commissionRate",
          "type": "uint256"
        }
      ],
      "name": "isReferralValid",
      "outputs": [
        {
          "internalType": "bool",
          "name": "",
          "type": "bool"
        }
      ],
      "stateMutability": "view",
      "type": "function"
    },
    {
      "inputs": [
        {
          "internalType": "address",
          "name": "",
          "type": "address"
        },
        {
          "internalType": "address",
          "name": "",
          "type": "address"
        },
        {
          "internalType": "uint256[]",
          "name": "",
          "type": "uint256[]"
        },
        {
          "internalType": "uint256[]",
          "name": "",
          "type": "uint256[]"
        },
        {
          "internalType": "bytes",
          "name": "",
          "type": "bytes"
        }
      ],
      "name": "onERC1155BatchReceived",
      "outputs": [
        {
          "internalType": "bytes4",
          "name": "",
          "type": "bytes4"
        }
      ],
      "stateMutability": "pure",
      "type": "function"
    },
    {
      "inputs": [
        {
          "internalType": "address",
          "name": "",
          "type": "address"
        },
        {
          "internalType": "address",
          "name": "",
          "type": "address"
        },
        {
          "internalType": "uint256",
          "name": "",
          "type": "uint256"
        },
        {
          "internalType": "uint256",
          "name": "",
          "type": "uint256"
        },
        {
          "internalType": "bytes",
          "name": "",
          "type": "bytes"
        }
      ],
      "name": "onERC1155Received",
      "outputs": [
        {
          "internalType": "bytes4",
          "name": "",
          "type": "bytes4"
        }
      ],
      "stateMutability": "pure",
      "type": "function"
    },
    {
      "inputs": [
        {
          "internalType": "address",
          "name": "metaTransactionProcessor",
          "type": "address"
        },
        {
          "internalType": "bool",
          "name": "enabled",
          "type": "bool"
        }
      ],
      "name": "setMetaTransactionProcessor",
      "outputs": [],
      "stateMutability": "nonpayable",
      "type": "function"
    },
    {
      "inputs": [
        {
          "internalType": "address payable",
          "name": "newWallet",
          "type": "address"
        }
      ],
      "name": "setReceivingWallet",
      "outputs": [],
      "stateMutability": "nonpayable",
      "type": "function"
    },
    {
      "inputs": [
        {
          "internalType": "uint256",
          "name": "newMaxCommissionRate",
          "type": "uint256"
        }
      ],
      "name": "updateMaxCommissionRate",
      "outputs": [],
      "stateMutability": "nonpayable",
      "type": "function"
    },
    {
      "inputs": [
        {
          "internalType": "address",
          "name": "newSigningWallet",
          "type": "address"
        }
      ],
      "name": "updateSigningWallet",
      "outputs": [],
      "stateMutability": "nonpayable",
      "type": "function"
    },
    {
      "inputs": [
        {
          "internalType": "address",
          "name": "to",
          "type": "address"
        },
        {
          "internalType": "uint256[]",
          "name": "assetIds",
          "type": "uint256[]"
        },
        {
          "internalType": "uint256[]",
          "name": "values",
          "type": "uint256[]"
        }
      ],
      "name": "withdrawAssets",
      "outputs": [],
      "stateMutability": "nonpayable",
      "type": "function"
    }
  ],
  "transactionHash": "0xa30a312eb66e39693eeabf028215357f138f6f64334be99f75afb26faa7443c6",
  "args": [
    "0x50f5474724e0Ee42D9a4e711ccFB275809Fd6d4a",
    "0x3845badAde8e6dFF049820680d1F14bD3903a5d0",
    "0x3845badAde8e6dFF049820680d1F14bD3903a5d0",
    "0xEAA0993E1d21c2103e4f172a20D29371FbAF6D06",
    "0x4489590a116618B506F0EfE885432F6A8ED998E9",
    "0xfbf7882dc23b4294c568eb694e44ef098bb0728674f83775767a005858b353a0",
    1633006800,
    "0x3044719d139F866a44c988823513eCB93060bF1b",
    2000,
    "0x0000000000000000000000000000000000000000",
    "0xa342f5D851E866E18ff98F351f2c6637f4478dB5",
    "0x0EB04462D69B1D267d269377E34f60b9De1c8510",
    "0x459EA8c295069d4cd16c025b9fa5cA3E4C5AA468"
  ],
  "linkedData": [
    {
      "x": 288,
      "y": 282,
      "size": 1,
      "price": "1011000000000000000000",
      "reserved": "",
      "salt": "0x8e896188522601b5440274800451e7b69e12552e68aa92df8f573f50554c860b",
      "assetIds": []
    },
    {
      "x": 288,
      "y": 283,
      "size": 1,
      "price": "1011000000000000000000",
      "reserved": "0x7a9fe22691c811ea339d9b73150e6911a5343dca",
      "salt": "0xf9dddbdae2dda4f1ad3119e2ef85b89cd841ac6e9aac34e4873c5b8e6e5c064b",
      "assetIds": []
    },
    {
      "x": 288,
      "y": 284,
      "size": 1,
      "price": "1011000000000000000000",
      "reserved": "",
      "salt": "0x0c0644d3e55606fc758420e63fd6e53249c4b813e4feb3c30e91d83dc9208da7",
      "assetIds": []
    },
    {
      "x": 288,
      "y": 285,
      "size": 1,
      "price": "1011000000000000000000",
      "reserved": "",
      "salt": "0x9eda6e09fb3ee5ca4a50cad087497c65d4d8a125e4802a59c731c8261da39b2d",
      "assetIds": []
    },
    {
      "x": 288,
      "y": 286,
      "size": 1,
      "price": "1011000000000000000000",
      "reserved": "",
      "salt": "0x527169abee76ab895c03033018b7940b3b108a90dfb5e7c7e29adeec9001ea3b",
      "assetIds": []
    },
    {
      "x": 288,
      "y": 287,
      "size": 1,
      "price": "1011000000000000000000",
      "reserved": "",
      "salt": "0xb759a777a21cfab9f6ac67bf4e87f9b52143cd68c9926750390d571088e15f4e",
      "assetIds": []
    },
    {
      "x": 288,
      "y": 288,
      "size": 1,
      "price": "1011000000000000000000",
      "reserved": "",
      "salt": "0x4b0892655006e2b0687646ba4f00be0a1cfbc4342b99603d976533f8c78acd74",
      "assetIds": []
    },
    {
      "x": 288,
      "y": 289,
      "size": 1,
      "price": "1011000000000000000000",
      "reserved": "",
      "salt": "0x0e39bf712b5b34909cbd259a7cb6ca88bd437571267d15e6885ee88d41452a06",
      "assetIds": []
    },
    {
      "x": 288,
      "y": 290,
      "size": 1,
      "price": "1011000000000000000000",
      "reserved": "",
      "salt": "0x12e0a0710406af90ee5c24ed1604224bc1f336db502f7803472ca4096e4a0b76",
      "assetIds": []
    },
    {
      "x": 288,
      "y": 291,
      "size": 1,
      "price": "1011000000000000000000",
      "reserved": "",
      "salt": "0x13841c6e7e4c181a61a72feee6f01035949317f1e80b2cd4b5d911338ae3b5a2",
      "assetIds": []
    },
    {
      "x": 288,
      "y": 292,
      "size": 1,
      "price": "1011000000000000000000",
      "reserved": "",
      "salt": "0xc447ea6f39b7bfefef00f96a50ef39458694a075d168a9a401dddb64b9850fdf",
      "assetIds": []
    },
    {
      "x": 288,
      "y": 293,
      "size": 1,
      "price": "1011000000000000000000",
      "reserved": "",
      "salt": "0x7a30e64ab98e1e5f3e90b76a2943df84aebb0bf346890c858191c1b8805a23c8",
      "assetIds": []
    },
    {
      "x": 288,
      "y": 294,
      "size": 1,
      "price": "1011000000000000000000",
      "reserved": "",
      "salt": "0x37f022af16acbe3d17b4a50603f0c55dddfacd861256ac5e64bc033f306c305c",
      "assetIds": []
    },
    {
      "x": 288,
      "y": 295,
      "size": 1,
      "price": "1011000000000000000000",
      "reserved": "",
      "salt": "0x1f799e10c2d5888f866bee081a6366edaa78f3abc97839b3c6907e1cb51e90c5",
      "assetIds": []
    },
    {
      "x": 288,
      "y": 296,
      "size": 1,
      "price": "1011000000000000000000",
      "reserved": "",
      "salt": "0x0c57e5de0ac62acb29711fe0169cd02a12f9f2f1f5c6c8d3866da0f52bca5119",
      "assetIds": []
    },
    {
      "x": 288,
      "y": 297,
      "size": 1,
      "price": "1011000000000000000000",
      "reserved": "",
      "salt": "0x77cb42a57e6803749b763cd80414d660484d283e2448077801ac2b31d65ebc7c",
      "assetIds": []
    },
    {
      "x": 288,
      "y": 298,
      "size": 1,
      "price": "1011000000000000000000",
      "reserved": "",
      "salt": "0xd435fa80acbca2bff0411e0ed9b9bc8f03b0d60bcb7639f6f568e480b9b5f284",
      "assetIds": []
    },
    {
      "x": 288,
      "y": 299,
      "size": 1,
      "price": "1011000000000000000000",
      "reserved": "",
      "salt": "0xa8c1ef28ba95443683ea02823f06295aa2c869263d0a4e659de6ad2c99dd440f",
      "assetIds": []
    },
    {
      "x": 289,
      "y": 282,
      "size": 1,
      "price": "1011000000000000000000",
      "reserved": "",
      "salt": "0x289cd5fd915556dc0bf0f225a6b12c28ca4a68bbc48f4f8987d3e3dbaee363e5",
      "assetIds": []
    },
    {
      "x": 289,
      "y": 283,
      "size": 1,
      "price": "1011000000000000000000",
      "reserved": "",
      "salt": "0xe59aeb0ba11d8bcf6dacf9240ce242296c52a1afefd6c2c2f4f2559cf6bb91b7",
      "assetIds": []
    },
    {
      "x": 289,
      "y": 284,
      "size": 1,
      "price": "1011000000000000000000",
      "reserved": "",
      "salt": "0x74cbaf3f5cd5b8b8d971f01745e0da9e0262a4bded047a15b6b6293c71a13e27",
      "assetIds": []
    },
    {
      "x": 289,
      "y": 285,
      "size": 1,
      "price": "1011000000000000000000",
      "reserved": "0x7a9fe22691c811ea339d9b73150e6911a5343dca",
      "salt": "0x72263fe8e2db3daebce8794af26ba3af357bf72e495d0b4c7c1d7032a0ce7218",
      "assetIds": []
    },
    {
      "x": 289,
      "y": 286,
      "size": 1,
      "price": "1011000000000000000000",
      "reserved": "",
      "salt": "0x510d499b628849b355e688327673075eff558b706f4a74f80a0d65025e89be96",
      "assetIds": []
    },
    {
      "x": 289,
      "y": 287,
      "size": 1,
      "price": "1011000000000000000000",
      "reserved": "",
      "salt": "0x0a26dce75d2c26c8f696bbe6a7b0f8a287e47e0ac90fe3a4e6e8ea4139b21118",
      "assetIds": []
    },
    {
      "x": 289,
      "y": 288,
      "size": 1,
      "price": "1011000000000000000000",
      "reserved": "",
      "salt": "0x1f722c925f14aefa325dca8979eb2a32f3ec73b730f1a13bc9ec27bc0ea4da27",
      "assetIds": []
    },
    {
      "x": 289,
      "y": 289,
      "size": 1,
      "price": "1011000000000000000000",
      "reserved": "0x7a9fe22691c811ea339d9b73150e6911a5343dca",
      "salt": "0x1835dfd5cfb962902fba4f19c6e50bec0ef18ced8d9672be88763c14e46fca17",
      "assetIds": []
    },
    {
      "x": 289,
      "y": 290,
      "size": 1,
      "price": "1011000000000000000000",
      "reserved": "",
      "salt": "0xdf376bc733d47be8574012d6e66a418b8bc5366ffd75a65b70b2a16e224caf91",
      "assetIds": []
    },
    {
      "x": 289,
      "y": 291,
      "size": 1,
      "price": "1011000000000000000000",
      "reserved": "",
      "salt": "0x1f421881d67f49a1f1314250529d48b3b9008eb4082fa63a51e741aaf4e91dc6",
      "assetIds": []
    },
    {
      "x": 289,
      "y": 292,
      "size": 1,
      "price": "1011000000000000000000",
      "reserved": "0x7a9fe22691c811ea339d9b73150e6911a5343dca",
      "salt": "0xcc6b4fc9e3739fb46245d60628327bd109acabed84bbf25fc3a2de8e6536a13b",
      "assetIds": []
    },
    {
      "x": 289,
      "y": 293,
      "size": 1,
      "price": "1011000000000000000000",
      "reserved": "",
      "salt": "0xd52fc9b27619accf89c67a002a10d6ffd84b69111220bf39711711c759c5c573",
      "assetIds": []
    },
    {
      "x": 289,
      "y": 294,
      "size": 1,
      "price": "1011000000000000000000",
      "reserved": "",
      "salt": "0x423095a4820b9de15b9ebf45ef9d9e1f00ce98d92a9dafbd4b861b12cddadef6",
      "assetIds": []
    },
    {
      "x": 289,
      "y": 295,
      "size": 1,
      "price": "1011000000000000000000",
      "reserved": "",
      "salt": "0x394b4000ec1545aa91dd34f7ffa645f0d9d541c1461e14843822b53bb8cf6c63",
      "assetIds": []
    },
    {
      "x": 289,
      "y": 296,
      "size": 1,
      "price": "1011000000000000000000",
      "reserved": "0x7a9fe22691c811ea339d9b73150e6911a5343dca",
      "salt": "0x2e108ee08993afc4b12b64240bff999354bc801e4e572963bc98b873f964b3e0",
      "assetIds": []
    },
    {
      "x": 289,
      "y": 297,
      "size": 1,
      "price": "1011000000000000000000",
      "reserved": "",
      "salt": "0x34d242ce6297e9c8cb67866529474a0368446fbb093a79a783e2bc404b64e444",
      "assetIds": []
    },
    {
      "x": 289,
      "y": 298,
      "size": 1,
      "price": "1011000000000000000000",
      "reserved": "",
      "salt": "0xd928c59af01a2101850f7b230f4fdb04edfabb6f0fb81ca389e10009697c3776",
      "assetIds": []
    },
    {
      "x": 289,
      "y": 299,
      "size": 1,
      "price": "1011000000000000000000",
      "reserved": "",
      "salt": "0xd3738275746239442c2ff4c911160b2a6867b053276deb42e80c04e4b64278ad",
      "assetIds": []
    },
    {
      "x": 290,
      "y": 282,
      "size": 1,
      "price": "1011000000000000000000",
      "reserved": "0x7a9fe22691c811ea339d9b73150e6911a5343dca",
      "salt": "0xd0d61fcf029c679fcb0cebb70375e901f1b78e64d88a4fbc2a61207f4348f5d3",
      "assetIds": []
    },
    {
      "x": 290,
      "y": 283,
      "size": 1,
      "price": "1011000000000000000000",
      "reserved": "",
      "salt": "0x44bc940e11f2b021856ec73001257590f1a72a26fc107a704543067cf11c6555",
      "assetIds": []
    },
    {
      "x": 290,
      "y": 284,
      "size": 1,
      "price": "1011000000000000000000",
      "reserved": "0x7a9fe22691c811ea339d9b73150e6911a5343dca",
      "salt": "0x221957d8d3aa749344821b3cbb59ef649bd3ab1ac367b4db3086548ce2001c4f",
      "assetIds": []
    },
    {
      "x": 290,
      "y": 285,
      "size": 1,
      "price": "1011000000000000000000",
      "reserved": "",
      "salt": "0x46225320840427410544ae8d664847c2ea2cff09ce558b828862eecaf7e54f2a",
      "assetIds": []
    },
    {
      "x": 290,
      "y": 286,
      "size": 1,
      "price": "1011000000000000000000",
      "reserved": "",
      "salt": "0xf7244a521ab310f1dc78c7d1f437951ba70e7f9c4fa15ea9af4e37293fad462d",
      "assetIds": []
    },
    {
      "x": 290,
      "y": 287,
      "size": 1,
      "price": "1011000000000000000000",
      "reserved": "",
      "salt": "0x8d5a0a6327634a67a3adc4b8830cf88dcef92cf23883bf1debed9417e1620dec",
      "assetIds": []
    },
    {
      "x": 290,
      "y": 288,
      "size": 1,
      "price": "1011000000000000000000",
      "reserved": "",
      "salt": "0x111ed898a0d5f73a34043e1654ddb9f1c14f0d930ac6116ab9e9334dd4c0aa92",
      "assetIds": []
    },
    {
      "x": 290,
      "y": 289,
      "size": 1,
      "price": "1011000000000000000000",
      "reserved": "",
      "salt": "0x318b46226f4ce65f9a77f42de9d48d8bce38756e824a3f92bdf2a790659d28cb",
      "assetIds": []
    },
    {
      "x": 290,
      "y": 290,
      "size": 1,
      "price": "1011000000000000000000",
      "reserved": "",
      "salt": "0x9c9e8193b43085d35736b26991bf41fc64167e731cbdc07da0556720337f17fe",
      "assetIds": []
    },
    {
      "x": 290,
      "y": 291,
      "size": 1,
      "price": "1011000000000000000000",
      "reserved": "0x7a9fe22691c811ea339d9b73150e6911a5343dca",
      "salt": "0xea10a5a42b1600c7cb79dc99b4b5cbdeb775cb40b715099063069386db9e4a7f",
      "assetIds": []
    },
    {
      "x": 290,
      "y": 292,
      "size": 1,
      "price": "1011000000000000000000",
      "reserved": "",
      "salt": "0x1f8d0f149814e41ba7f7037da504f3472503b83fd6cc18104bfda068cd3100a9",
      "assetIds": []
    },
    {
      "x": 290,
      "y": 293,
      "size": 1,
      "price": "1011000000000000000000",
      "reserved": "",
      "salt": "0xe9e606e05fd1c07b0f4018bdc56e4f40f8759ace2b4ed58e870054fa8c6833b7",
      "assetIds": []
    },
    {
      "x": 290,
      "y": 294,
      "size": 1,
      "price": "1011000000000000000000",
      "reserved": "",
      "salt": "0x59ac6c409e44d61e30647a5b5d38aa6aca4b104488f845777d166c931ce2e2aa",
      "assetIds": []
    },
    {
      "x": 290,
      "y": 295,
      "size": 1,
      "price": "1011000000000000000000",
      "reserved": "",
      "salt": "0x0091059f5501bdfe6284ee202c082d9d0edf485eed045bc6f0a9432a4cd7666e",
      "assetIds": []
    },
    {
      "x": 290,
      "y": 296,
      "size": 1,
      "price": "1011000000000000000000",
      "reserved": "",
      "salt": "0xd79b09e61b714c07ff6925a7879e2a14a4a7acf05a0dca7a4fbc153f5b541e30",
      "assetIds": []
    },
    {
      "x": 290,
      "y": 297,
      "size": 1,
      "price": "1011000000000000000000",
      "reserved": "0x7a9fe22691c811ea339d9b73150e6911a5343dca",
      "salt": "0xfac314a119ed61b85a705ddba2ddbe1410483dcddd72e36cf7be2ec19594be47",
      "assetIds": []
    },
    {
      "x": 290,
      "y": 298,
      "size": 1,
      "price": "1011000000000000000000",
      "reserved": "",
      "salt": "0xa81851f7a9001509cb8e08b4df1150703c8d0532fcad8e0e0255f190e7efbe1d",
      "assetIds": []
    },
    {
      "x": 290,
      "y": 299,
      "size": 1,
      "price": "1011000000000000000000",
      "reserved": "",
      "salt": "0x95771aec5620ea8d95821ccdfdc00c41c1711f9e607bcf1c849ba4e789c6e233",
      "assetIds": []
    },
    {
      "x": 291,
      "y": 282,
      "size": 1,
      "price": "1011000000000000000000",
      "reserved": "",
      "salt": "0x5305e0476fb2a4a22f4511513d2ab43ae527e45fc8d1fdb5047bd5f3df551ec3",
      "assetIds": []
    },
    {
      "x": 291,
      "y": 283,
      "size": 1,
      "price": "1011000000000000000000",
      "reserved": "",
      "salt": "0x8b414856dc017759e082f53363d6e2f32f5c8ceec6fcd8e7e3671f8e4f0bffb0",
      "assetIds": []
    },
    {
      "x": 291,
      "y": 284,
      "size": 1,
      "price": "1011000000000000000000",
      "reserved": "",
      "salt": "0x944b9e2a7c61b2feb076f8527d005def5c7e09027461714d0a7189b8d6cba424",
      "assetIds": []
    },
    {
      "x": 291,
      "y": 285,
      "size": 1,
      "price": "1011000000000000000000",
      "reserved": "",
      "salt": "0xdb27638d8cca99954284de4fe125e9f0929046e6da224143c5517fd24bd955fd",
      "assetIds": []
    },
    {
      "x": 291,
      "y": 286,
      "size": 1,
      "price": "1011000000000000000000",
      "reserved": "",
      "salt": "0xbd62b6651ed9f8c26f408956311ffe6d68b5fe7b00b771079c4db961d1c0194e",
      "assetIds": []
    },
    {
      "x": 291,
      "y": 287,
      "size": 1,
      "price": "1011000000000000000000",
      "reserved": "",
      "salt": "0x54553c9c031a024873d4f1600e611a4aa5faca71e03aa96630f8f970c1412586",
      "assetIds": []
    },
    {
      "x": 291,
      "y": 288,
      "size": 1,
      "price": "1011000000000000000000",
      "reserved": "",
      "salt": "0x7c0b4e7a14fc7913c76aee599603c142dfb3705277c46cd571b604fde6d5c85b",
      "assetIds": []
    },
    {
      "x": 291,
      "y": 289,
      "size": 1,
      "price": "1011000000000000000000",
      "reserved": "",
      "salt": "0x2d21ebf4d4b5324203753d542ce33b37c30e6fba36c714ced271a6fcc603716a",
      "assetIds": []
    },
    {
      "x": 291,
      "y": 290,
      "size": 1,
      "price": "1011000000000000000000",
      "reserved": "",
      "salt": "0xd9063aaa22c147e93b097fe56247c552760f072d1b50d9e52707dcabb0fb70a7",
      "assetIds": []
    },
    {
      "x": 291,
      "y": 291,
      "size": 1,
      "price": "1011000000000000000000",
      "reserved": "",
      "salt": "0xf76599b4730779b350ea374abceb3c049dd7b558c159cbd397868f80039f05e5",
      "assetIds": []
    },
    {
      "x": 291,
      "y": 292,
      "size": 1,
      "price": "1011000000000000000000",
      "reserved": "",
      "salt": "0x2919b8604b29dfa402c38cf6a794cce2da037a0c71331e2c22d31f75e2a627d7",
      "assetIds": []
    },
    {
      "x": 291,
      "y": 293,
      "size": 1,
      "price": "1011000000000000000000",
      "reserved": "",
      "salt": "0x3548f80fe2a950f1abf6256b921556f6adab522be8cf7389f77f5eebe64282a0",
      "assetIds": []
    },
    {
      "x": 291,
      "y": 294,
      "size": 1,
      "price": "1011000000000000000000",
      "reserved": "",
      "salt": "0x64b3249b9427be3071efd9426edc381a11c80744c453dac4aa8252e06f10a9bb",
      "assetIds": []
    },
    {
      "x": 291,
      "y": 295,
      "size": 1,
      "price": "1011000000000000000000",
      "reserved": "",
      "salt": "0xe053da910cafe8d970dbf99afc6d9c51f02837b654067a2947e88eb585f1f033",
      "assetIds": []
    },
    {
      "x": 291,
      "y": 296,
      "size": 1,
      "price": "1011000000000000000000",
      "reserved": "",
      "salt": "0x04278c779115bd66ef2157a36b42bd2620de52b223b6cf5907b34fecaf15779d",
      "assetIds": []
    },
    {
      "x": 291,
      "y": 297,
      "size": 1,
      "price": "1011000000000000000000",
      "reserved": "",
      "salt": "0xdc3f8804034adad90fc0ce0541dca52d02a1a6b1e3785d8394f74bde56602c19",
      "assetIds": []
    },
    {
      "x": 291,
      "y": 298,
      "size": 1,
      "price": "1011000000000000000000",
      "reserved": "",
      "salt": "0x254adb09d72c93afde0109482d718a3fbcf7dad086e91b27e25681f4548d7c65",
      "assetIds": []
    },
    {
      "x": 291,
      "y": 299,
      "size": 1,
      "price": "1011000000000000000000",
      "reserved": "",
      "salt": "0x8e0e4e03fb6319ca49c199e6b6f17e091f5e10d5326cd093c0b5e9261afacde7",
      "assetIds": []
    },
    {
      "x": 292,
      "y": 282,
      "size": 1,
      "price": "1011000000000000000000",
      "reserved": "",
      "salt": "0x5b36441810e061814a67a358c868671e08fcfb01483605994cad567712931bf2",
      "assetIds": []
    },
    {
      "x": 292,
      "y": 283,
      "size": 1,
      "price": "1011000000000000000000",
      "reserved": "0x7a9fe22691c811ea339d9b73150e6911a5343dca",
      "salt": "0xa5aa6d0a52dd1d758eefa79cd7b5314d9f07810e810a5ba91c371a2abfbc5582",
      "assetIds": []
    },
    {
      "x": 292,
      "y": 284,
      "size": 1,
      "price": "1011000000000000000000",
      "reserved": "",
      "salt": "0x65edfdf2575f927e52948f5d678378d6da97ed20769dedca407372f0b8d97226",
      "assetIds": []
    },
    {
      "x": 292,
      "y": 285,
      "size": 1,
      "price": "1011000000000000000000",
      "reserved": "0x7a9fe22691c811ea339d9b73150e6911a5343dca",
      "salt": "0x7f36b59df8e3f730429e553baa9afd9bb6996b5dd6a979c8ab06cdf7a091d63f",
      "assetIds": []
    },
    {
      "x": 292,
      "y": 286,
      "size": 1,
      "price": "1011000000000000000000",
      "reserved": "",
      "salt": "0x88ec7c733ed647d9d3044b63b297bd6d5739086fcd5233efba012c172fa31ea7",
      "assetIds": []
    },
    {
      "x": 292,
      "y": 287,
      "size": 1,
      "price": "1011000000000000000000",
      "reserved": "",
      "salt": "0xbb2c809f6fdb986b7f9f1fa918dc704a35394fa18bef1c822b95c08402e37814",
      "assetIds": []
    },
    {
      "x": 292,
      "y": 288,
      "size": 1,
      "price": "1011000000000000000000",
      "reserved": "0x7a9fe22691c811ea339d9b73150e6911a5343dca",
      "salt": "0xab37825503e82433df6e75b3a27ffa10c1a8137d9ce48cd0092f687e27b1584d",
      "assetIds": []
    },
    {
      "x": 292,
      "y": 289,
      "size": 1,
      "price": "1011000000000000000000",
      "reserved": "",
      "salt": "0x3aa883026800ac2e666f9825854939f7db83a0f0431519a769b40b21eec90d04",
      "assetIds": []
    },
    {
      "x": 292,
      "y": 290,
      "size": 1,
      "price": "1011000000000000000000",
      "reserved": "",
      "salt": "0x59db4cb20ef6bc37802e119b95f2eba8e041e02e58743c432f9f416292b8b103",
      "assetIds": []
    },
    {
      "x": 292,
      "y": 291,
      "size": 1,
      "price": "1011000000000000000000",
      "reserved": "",
      "salt": "0xfe40be18ad96ee4195cac1b1f6381b7b9a898de447cb19749285aeb329e0a287",
      "assetIds": []
    },
    {
      "x": 292,
      "y": 292,
      "size": 1,
      "price": "1011000000000000000000",
      "reserved": "",
      "salt": "0xbe5f846f4cf632db410911d834128ac4023a2c5e058bf764cc2dd532eb79861a",
      "assetIds": []
    },
    {
      "x": 292,
      "y": 293,
      "size": 1,
      "price": "1011000000000000000000",
      "reserved": "",
      "salt": "0x08b67c47ae9fa885373b5c6d8bfa7e937683569e736c5d1e86f651554156b595",
      "assetIds": []
    },
    {
      "x": 292,
      "y": 294,
      "size": 1,
      "price": "1011000000000000000000",
      "reserved": "0x7a9fe22691c811ea339d9b73150e6911a5343dca",
      "salt": "0x912e47966eedefd1b999d40ef5b712f9d1aba6c7b5c7842bf187fba8f6c0c436",
      "assetIds": []
    },
    {
      "x": 292,
      "y": 295,
      "size": 1,
      "price": "1011000000000000000000",
      "reserved": "",
      "salt": "0x78a7488516dee788823b8ce28cda134c8507547af1e378908952d21b6c8f9a9c",
      "assetIds": []
    },
    {
      "x": 292,
      "y": 296,
      "size": 1,
      "price": "1011000000000000000000",
      "reserved": "",
      "salt": "0xc71ab091aecad97f401bc024accff8bf3a034ee1deb78cf161780d2bfa78e07c",
      "assetIds": []
    },
    {
      "x": 292,
      "y": 297,
      "size": 1,
      "price": "1011000000000000000000",
      "reserved": "",
      "salt": "0x712086f4da5bba6567bdb76275ed7b80093805009a2dda7cb137aa0a7a033845",
      "assetIds": []
    },
    {
      "x": 292,
      "y": 298,
      "size": 1,
      "price": "1011000000000000000000",
      "reserved": "",
      "salt": "0xc6d3c67dcecca0398e5e8aac8eaddbd624228dc5fafe695d952db8c4bd08045f",
      "assetIds": []
    },
    {
      "x": 292,
      "y": 299,
      "size": 1,
      "price": "1011000000000000000000",
      "reserved": "0x7a9fe22691c811ea339d9b73150e6911a5343dca",
      "salt": "0xfebc09b8ccdb3402b5d8cfbf9d3ddfe0874d71082489a05a5b23cef98c7d16ea",
      "assetIds": []
    },
    {
      "x": 293,
      "y": 282,
      "size": 1,
      "price": "1011000000000000000000",
      "reserved": "",
      "salt": "0xc22056a5bf4ef9ea1536672e0b77c54b5f0fdc6e093927ff85b502da554ff1cf",
      "assetIds": []
    },
    {
      "x": 293,
      "y": 283,
      "size": 1,
      "price": "1011000000000000000000",
      "reserved": "",
      "salt": "0x58212ca384d43fe15103eb6f0c32fbb31935d07ec30c747258b54c58d8e09a4b",
      "assetIds": []
    },
    {
      "x": 293,
      "y": 284,
      "size": 1,
      "price": "1011000000000000000000",
      "reserved": "",
      "salt": "0x63f5905f3e7838dc66aa36111921f37fc3e5a60ed90067d6d2fdbcd23c58791b",
      "assetIds": []
    },
    {
      "x": 293,
      "y": 285,
      "size": 1,
      "price": "1011000000000000000000",
      "reserved": "",
      "salt": "0xa0f2e874271bf0dc9087438bdab1be49e845c888672d73a8cf03825a5f758140",
      "assetIds": []
    },
    {
      "x": 293,
      "y": 286,
      "size": 1,
      "price": "1011000000000000000000",
      "reserved": "",
      "salt": "0x5fa26c0f6e45b1d3199ad2702b4776c704773e6e6836430007bff331b825fb22",
      "assetIds": []
    },
    {
      "x": 293,
      "y": 287,
      "size": 1,
      "price": "1011000000000000000000",
      "reserved": "",
      "salt": "0x24d980c742828e7d8126d2f4b3382c7f01c35275e11bddf2b2b61f1389648a0d",
      "assetIds": []
    },
    {
      "x": 293,
      "y": 288,
      "size": 1,
      "price": "1011000000000000000000",
      "reserved": "",
      "salt": "0x55f7db60d52ba24a3461c9084b5552f10a1fd7631fc894a667a6ec5aa517e6f9",
      "assetIds": []
    },
    {
      "x": 293,
      "y": 289,
      "size": 1,
      "price": "1011000000000000000000",
      "reserved": "",
      "salt": "0x7639bfd5975cb55aadbcdc5dcc970335fe63ad3774ac9e7ca44340c05309a13a",
      "assetIds": []
    },
    {
      "x": 293,
      "y": 290,
      "size": 1,
      "price": "1011000000000000000000",
      "reserved": "",
      "salt": "0x2dc5cef4fa34f2afe47d6fcc29181dfa2cfe0909d3195ccac0221e03ed17677a",
      "assetIds": []
    },
    {
      "x": 293,
      "y": 291,
      "size": 1,
      "price": "1011000000000000000000",
      "reserved": "",
      "salt": "0x3ef8fc4225e7e08837992289c3dafb487094e26980723d1e18051dd34fee3e54",
      "assetIds": []
    },
    {
      "x": 293,
      "y": 292,
      "size": 1,
      "price": "1011000000000000000000",
      "reserved": "",
      "salt": "0x704a04157f4b8f36168e3b07a075ca8454303003159c975ad279a6cd0e96cc8c",
      "assetIds": []
    },
    {
      "x": 293,
      "y": 293,
      "size": 1,
      "price": "1011000000000000000000",
      "reserved": "",
      "salt": "0x70e1a939a5b1bb22315d21de8712e542701a5f5071aed757b3ff8fc980d884ca",
      "assetIds": []
    },
    {
      "x": 293,
      "y": 294,
      "size": 1,
      "price": "1011000000000000000000",
      "reserved": "",
      "salt": "0x6c55d06e0e6b13323e5c2aa9683d9a8dc6080c467a50f081cf974b3147f63ef7",
      "assetIds": []
    },
    {
      "x": 293,
      "y": 295,
      "size": 1,
      "price": "1011000000000000000000",
      "reserved": "",
      "salt": "0x0d131bac6ce7b3c2331074d14b91dcaa0d9234dab6a3ed158a3929bba1662591",
      "assetIds": []
    },
    {
      "x": 293,
      "y": 296,
      "size": 1,
      "price": "1011000000000000000000",
      "reserved": "",
      "salt": "0x02cc716044e3ed3dc461ec6b49715ae4804e35262d506472e8ece6c7e500315c",
      "assetIds": []
    },
    {
      "x": 293,
      "y": 297,
      "size": 1,
      "price": "1011000000000000000000",
      "reserved": "0x7a9fe22691c811ea339d9b73150e6911a5343dca",
      "salt": "0x609630c644df84546f2f157dec9134963aab410ecb1ec134e4d9799f893eab64",
      "assetIds": []
    },
    {
      "x": 293,
      "y": 298,
      "size": 1,
      "price": "1011000000000000000000",
      "reserved": "",
      "salt": "0xade4915f2e393c48ea96cf0355ec925123049fdb4e9eb358c6e82658e9c0a265",
      "assetIds": []
    },
    {
      "x": 293,
      "y": 299,
      "size": 1,
      "price": "1011000000000000000000",
      "reserved": "",
      "salt": "0x89ee20f17ff90557bd3768b59c49cf5c7b47c18ee8f9e6bf9fd1d26f741c0dbe",
      "assetIds": []
    },
    {
      "x": 294,
      "y": 282,
      "size": 1,
      "price": "1011000000000000000000",
      "reserved": "",
      "salt": "0x513d880b2af00cbf80c028ca2b59091036741927f24c6170ee218f3fa92987ac",
      "assetIds": []
    },
    {
      "x": 294,
      "y": 283,
      "size": 1,
      "price": "1011000000000000000000",
      "reserved": "",
      "salt": "0x57fb4c90775932f7d5dd08b8ed1ffaeecc40809298ba4134ac8bf35118352a83",
      "assetIds": []
    },
    {
      "x": 294,
      "y": 284,
      "size": 1,
      "price": "1011000000000000000000",
      "reserved": "",
      "salt": "0x28426b44fb369ef3d30e223b689d60ce27067ae178db9a00d126b414fa16a5e9",
      "assetIds": []
    },
    {
      "x": 294,
      "y": 285,
      "size": 1,
      "price": "1011000000000000000000",
      "reserved": "",
      "salt": "0x93d02ca698c670bf6cc6308585d186f54960ba8d2d3474b65860a85caafcbf82",
      "assetIds": []
    },
    {
      "x": 294,
      "y": 286,
      "size": 1,
      "price": "1011000000000000000000",
      "reserved": "",
      "salt": "0x123dd67dcbd860be7eced88825aa117a6765c8e768e4ac50b9901f95612c63e0",
      "assetIds": []
    },
    {
      "x": 294,
      "y": 287,
      "size": 1,
      "price": "1011000000000000000000",
      "reserved": "",
      "salt": "0x1ba77b8b4554c98a2ce0eb2247cda80d717069ba7f88f6824e4134cb54a7977e",
      "assetIds": []
    },
    {
      "x": 294,
      "y": 288,
      "size": 1,
      "price": "1011000000000000000000",
      "reserved": "",
      "salt": "0xe032bb09617d5b765f5c03144ad8cd2c37845a71733e9060d43868ab17952675",
      "assetIds": []
    },
    {
      "x": 294,
      "y": 289,
      "size": 1,
      "price": "1011000000000000000000",
      "reserved": "",
      "salt": "0xcd5f1293ba5fd52ba3869bace016d4fe4adccffa09c3ec9636856f9386da54e0",
      "assetIds": []
    },
    {
      "x": 294,
      "y": 290,
      "size": 1,
      "price": "1011000000000000000000",
      "reserved": "0x7a9fe22691c811ea339d9b73150e6911a5343dca",
      "salt": "0x46b64c1beb589bae8eadb42d3bbcf44a6b730600429585f4d13af5bcfe6f5e00",
      "assetIds": []
    },
    {
      "x": 294,
      "y": 291,
      "size": 1,
      "price": "1011000000000000000000",
      "reserved": "",
      "salt": "0x2ef5b4040cd96c55c3918042e00c4182a809b3167d04c95015b205109949190e",
      "assetIds": []
    },
    {
      "x": 294,
      "y": 292,
      "size": 1,
      "price": "1011000000000000000000",
      "reserved": "",
      "salt": "0xdb343013de51d50a348972a4580176de975f9fd666e83d73a7affe660e4bd90c",
      "assetIds": []
    },
    {
      "x": 294,
      "y": 293,
      "size": 1,
      "price": "1011000000000000000000",
      "reserved": "",
      "salt": "0x1b40d810bc99cff30af3fb9b3db33cce466af5126d6917aebb61478cfbf9180a",
      "assetIds": []
    },
    {
      "x": 294,
      "y": 294,
      "size": 1,
      "price": "1011000000000000000000",
      "reserved": "",
      "salt": "0x6dc5f3449b6ed54abb6720bd55e225f5e36ea6229dd7fea87e21e7ba9f2a4ca4",
      "assetIds": []
    },
    {
      "x": 294,
      "y": 295,
      "size": 1,
      "price": "1011000000000000000000",
      "reserved": "",
      "salt": "0x87b468eeacd1c2c83e6e7e2d6cdf99a482edfcdcbeeda2fa59a75147b9bc9431",
      "assetIds": []
    },
    {
      "x": 294,
      "y": 296,
      "size": 1,
      "price": "1011000000000000000000",
      "reserved": "",
      "salt": "0xaa4dc96db869d95058bfa6b7707226364a890f1e6df671618594589acb62ac7c",
      "assetIds": []
    },
    {
      "x": 294,
      "y": 297,
      "size": 1,
      "price": "1011000000000000000000",
      "reserved": "",
      "salt": "0x0f47d3d65d3d5c5ce44cdf6b86a8ab5fdfcda668faf57e785d6d935fbd345e92",
      "assetIds": []
    },
    {
      "x": 294,
      "y": 298,
      "size": 1,
      "price": "1011000000000000000000",
      "reserved": "",
      "salt": "0xeaff86e6870d73b8122f294ef2d3f2181806a4e8292a066a0f0717e9391d9efe",
      "assetIds": []
    },
    {
      "x": 294,
      "y": 299,
      "size": 1,
      "price": "1011000000000000000000",
      "reserved": "",
      "salt": "0x660ab565f5dd80eb149681e5858525eaba3918a78140373545bf27e7df0c50ce",
      "assetIds": []
    },
    {
      "x": 295,
      "y": 282,
      "size": 1,
      "price": "1011000000000000000000",
      "reserved": "",
      "salt": "0xf697eb86aceeab1dca4e2ff078c95a2196eeb9b6ebe1d63433efb63ae532bc83",
      "assetIds": []
    },
    {
      "x": 295,
      "y": 283,
      "size": 1,
      "price": "1011000000000000000000",
      "reserved": "0x7a9fe22691c811ea339d9b73150e6911a5343dca",
      "salt": "0x02eb3d1603048c2a4a85cc585a2ef1178f171a07cff1cc03d9e59354e906a2eb",
      "assetIds": []
    },
    {
      "x": 295,
      "y": 284,
      "size": 1,
      "price": "1011000000000000000000",
      "reserved": "",
      "salt": "0x565218efab2f037214dd2e7f24d881c0700fce5d41d113afb5f8335258af61c8",
      "assetIds": []
    },
    {
      "x": 295,
      "y": 285,
      "size": 1,
      "price": "1011000000000000000000",
      "reserved": "",
      "salt": "0x538d6bd6808e37a08fa5179a40a2f7d34a4240ddda51ca2f86ae3fd4d85977b3",
      "assetIds": []
    },
    {
      "x": 295,
      "y": 286,
      "size": 1,
      "price": "1011000000000000000000",
      "reserved": "0x7a9fe22691c811ea339d9b73150e6911a5343dca",
      "salt": "0x309ce434ff829f873e2674a5f502bb658e70a7dcdcbdd870da13869214c50693",
      "assetIds": []
    },
    {
      "x": 295,
      "y": 287,
      "size": 1,
      "price": "1011000000000000000000",
      "reserved": "",
      "salt": "0x11ae500f641a1c33a9ff8d957834759a5c17fdc8a2ec242097d291d35e5ea78f",
      "assetIds": []
    },
    {
      "x": 295,
      "y": 288,
      "size": 1,
      "price": "1011000000000000000000",
      "reserved": "",
      "salt": "0x76188ea5a3aa5ef154aa01ef57adb221566fca2712ca57a50aacc12917dc1482",
      "assetIds": []
    },
    {
      "x": 295,
      "y": 289,
      "size": 1,
      "price": "1011000000000000000000",
      "reserved": "",
      "salt": "0x10b5378837aee4065a52035024225776eefda524507a94950d10b5ffc09086be",
      "assetIds": []
    },
    {
      "x": 295,
      "y": 290,
      "size": 1,
      "price": "1011000000000000000000",
      "reserved": "",
      "salt": "0xc05111a2e5d0857377cbb22cc27881647b67840e6f4077eba187967e62b5d894",
      "assetIds": []
    },
    {
      "x": 295,
      "y": 291,
      "size": 1,
      "price": "1011000000000000000000",
      "reserved": "",
      "salt": "0xc59e95de4e5dcde9c314c2aee0363ce6438f1aecedae8f66a766cdf4567118c5",
      "assetIds": []
    },
    {
      "x": 295,
      "y": 292,
      "size": 1,
      "price": "1011000000000000000000",
      "reserved": "",
      "salt": "0x5c3b5146af6e83ac66fd839672e4e531bd26752de49a88fb144f898d27935fd6",
      "assetIds": []
    },
    {
      "x": 295,
      "y": 293,
      "size": 1,
      "price": "1011000000000000000000",
      "reserved": "0x7a9fe22691c811ea339d9b73150e6911a5343dca",
      "salt": "0x3d6e89cb5c1f563e370df690f7dee582cea20bd8c29b448cd13c411b6c2f75a5",
      "assetIds": []
    },
    {
      "x": 295,
      "y": 294,
      "size": 1,
      "price": "1011000000000000000000",
      "reserved": "",
      "salt": "0x741fc057600b092776ab46dae21bb13548004798c7f7e23bb238d58303300489",
      "assetIds": []
    },
    {
      "x": 295,
      "y": 295,
      "size": 1,
      "price": "1011000000000000000000",
      "reserved": "",
      "salt": "0x9228b8c30b290d208f145cd825d896ae6d4929a437dffe744ba87c05dba30bc7",
      "assetIds": []
    },
    {
      "x": 295,
      "y": 296,
      "size": 1,
      "price": "1011000000000000000000",
      "reserved": "",
      "salt": "0x07daab1c69d2cce8cead9d2bebc11e3925a05f6cb5021283b869954cd3560ca1",
      "assetIds": []
    },
    {
      "x": 295,
      "y": 297,
      "size": 1,
      "price": "1011000000000000000000",
      "reserved": "",
      "salt": "0x46e2da49bf2fcf6aaf9284a3f9add2a0460d5cfe7275753e805cd5420469ec86",
      "assetIds": []
    },
    {
      "x": 295,
      "y": 298,
      "size": 1,
      "price": "1011000000000000000000",
      "reserved": "",
      "salt": "0x3ead313705c93af24f7629141dc1b657392ff452ac942d69ecc4df0cbbd1cc71",
      "assetIds": []
    },
    {
      "x": 295,
      "y": 299,
      "size": 1,
      "price": "1011000000000000000000",
      "reserved": "0x7a9fe22691c811ea339d9b73150e6911a5343dca",
      "salt": "0x7bac756ab01193b5d143c8d1c73e90083dc5c4f390470d431b3816266479bd6b",
      "assetIds": []
    },
    {
      "x": 296,
      "y": 282,
      "size": 1,
      "price": "1011000000000000000000",
      "reserved": "",
      "salt": "0x8b8e8309f3d633a524b4a08f6e1c646ce193fcdbf998d3d43fbd927c2e9e8263",
      "assetIds": []
    },
    {
      "x": 296,
      "y": 283,
      "size": 1,
      "price": "1011000000000000000000",
      "reserved": "",
      "salt": "0x22632e7ec03d7e843a8a4058d3f2b57fd10ca6bea7562ccec2cc16c72896df21",
      "assetIds": []
    },
    {
      "x": 296,
      "y": 284,
      "size": 1,
      "price": "1011000000000000000000",
      "reserved": "0x7a9fe22691c811ea339d9b73150e6911a5343dca",
      "salt": "0xf73136d422930cc88526351b9c0212c2144b0ba6d161062a5c536a7c7c4d0767",
      "assetIds": []
    },
    {
      "x": 296,
      "y": 285,
      "size": 1,
      "price": "1011000000000000000000",
      "reserved": "",
      "salt": "0xa0ee13391d93f0e4555eb26ee1853c478499f69e7a3668837822763d0dd2eedd",
      "assetIds": []
    },
    {
      "x": 296,
      "y": 286,
      "size": 1,
      "price": "1011000000000000000000",
      "reserved": "",
      "salt": "0x5ec2dc4c33b49bf0c89225372df8fe7d07563c1516517b51d091e0fe69abc04f",
      "assetIds": []
    },
    {
      "x": 296,
      "y": 287,
      "size": 1,
      "price": "1011000000000000000000",
      "reserved": "",
      "salt": "0x654819f35915dd0ecf430756a8bbd3738f80f4b98ddf00b55981fe8a90682984",
      "assetIds": []
    },
    {
      "x": 296,
      "y": 288,
      "size": 1,
      "price": "1011000000000000000000",
      "reserved": "",
      "salt": "0x27b4da689e538b62dca3e3ea7eb46014dda1b8a417295e2ed22a8543560d883e",
      "assetIds": []
    },
    {
      "x": 296,
      "y": 289,
      "size": 1,
      "price": "1011000000000000000000",
      "reserved": "0x7a9fe22691c811ea339d9b73150e6911a5343dca",
      "salt": "0xa92b914d0f1e3cd612888c5db905cae813b1445bfac01a603353b7af0c0f5725",
      "assetIds": []
    },
    {
      "x": 296,
      "y": 290,
      "size": 1,
      "price": "1011000000000000000000",
      "reserved": "",
      "salt": "0x6f86519ac3153ac709180bbb52132c97496e78cf51185a3021cc61879a0b2f56",
      "assetIds": []
    },
    {
      "x": 296,
      "y": 291,
      "size": 1,
      "price": "1011000000000000000000",
      "reserved": "",
      "salt": "0xa2c22684bca36d164d8d493001360bb21b44a1c0218a0dc5237c9184a5d2b045",
      "assetIds": []
    },
    {
      "x": 296,
      "y": 292,
      "size": 1,
      "price": "1011000000000000000000",
      "reserved": "",
      "salt": "0x2a2df86e9380c4ca11fa8121c1f23ed85cdcef36c416e0a45ecd5d826a7b7904",
      "assetIds": []
    },
    {
      "x": 296,
      "y": 293,
      "size": 1,
      "price": "1011000000000000000000",
      "reserved": "",
      "salt": "0x1361a9fb7d315169ce855042d1f5e2b2f3e0fa3fabed793a4cadb20ba6bfd92f",
      "assetIds": []
    },
    {
      "x": 296,
      "y": 294,
      "size": 1,
      "price": "1011000000000000000000",
      "reserved": "",
      "salt": "0xe3a7d4fee7b284f19322419f2cc0795363bc2333130e9702808518e1bdead919",
      "assetIds": []
    },
    {
      "x": 296,
      "y": 295,
      "size": 1,
      "price": "1011000000000000000000",
      "reserved": "",
      "salt": "0xa17bd12098fd3f53013a31a5e405ed7ffbcf7d8493ae7bade1f066c536023a28",
      "assetIds": []
    },
    {
      "x": 296,
      "y": 296,
      "size": 1,
      "price": "1011000000000000000000",
      "reserved": "",
      "salt": "0x58a6a7169c8cd27927354d43cc396e1f1eda8416239902e9d91a071df2fb12d2",
      "assetIds": []
    },
    {
      "x": 296,
      "y": 297,
      "size": 1,
      "price": "4683000000000000000000",
      "reserved": "",
      "salt": "0x49642d0cc50f1814c2d89a76fed1b4f9cb9329a08951ed04b89db17c53591233",
      "assetIds": [
        "55464657044963196816950587289035428064568320970692304673817341489688050948104",
        "55464657044963196816950587289035428064568320970692304673817341489688050948102",
        "55464657044963196816950587289035428064568320970692304673817341489688050948096",
        "55464657044963196816950587289035428064568320970692304673817341489688050948097"
      ]
    },
    {
      "x": 296,
      "y": 298,
      "size": 1,
      "price": "4683000000000000000000",
      "reserved": "",
      "salt": "0x99edfbc67d9f9fa20ede76b128663337c039b32b25662034ccc5c6dc32789442",
      "assetIds": [
        "55464657044963196816950587289035428064568320970692304673817341489688050948105",
        "55464657044963196816950587289035428064568320970692304673817341489688050948100",
        "55464657044963196816950587289035428064568320970692304673817341489688050948096",
        "55464657044963196816950587289035428064568320970692304673817341489688050948097"
      ]
    },
    {
      "x": 296,
      "y": 299,
      "size": 1,
      "price": "4683000000000000000000",
      "reserved": "",
      "salt": "0x12c5cb1c9c027ca7d282b3a62fe9338207d3892e7c00b3887de358660bbb0e2d",
      "assetIds": [
        "55464657044963196816950587289035428064568320970692304673817341489688050948105",
        "55464657044963196816950587289035428064568320970692304673817341489688050948100",
        "55464657044963196816950587289035428064568320970692304673817341489688050948096",
        "55464657044963196816950587289035428064568320970692304673817341489688050948097"
      ]
    },
    {
      "x": 297,
      "y": 280,
      "size": 1,
      "price": "1011000000000000000000",
      "reserved": "",
      "salt": "0xcb62bd31c7fea2978e17edd11479dc3d93ef848004ef309a903d53073ee267a0",
      "assetIds": []
    },
    {
      "x": 297,
      "y": 281,
      "size": 1,
      "price": "1011000000000000000000",
      "reserved": "",
      "salt": "0xbf9bceb26f28eb3cf6c78e33870d73a9b8cd8ed1ce43d754b0d6bd99bf7bd3af",
      "assetIds": []
    },
    {
      "x": 297,
      "y": 282,
      "size": 1,
      "price": "1011000000000000000000",
      "reserved": "0x7a9fe22691c811ea339d9b73150e6911a5343dca",
      "salt": "0x904cfc26663c3efbc69306e56ac96d193a97a46a04b9952f72f5a4a8778f54cb",
      "assetIds": []
    },
    {
      "x": 297,
      "y": 283,
      "size": 1,
      "price": "1011000000000000000000",
      "reserved": "",
      "salt": "0x881a2e74e25f1bc24eb29a4fb58122791821d38fadefdcfd74ab2f147e534c47",
      "assetIds": []
    },
    {
      "x": 297,
      "y": 284,
      "size": 1,
      "price": "1011000000000000000000",
      "reserved": "",
      "salt": "0xdd794a1f451759c6d9b54fd1b3e607108002dd1969b3259c6d52ba48b5509720",
      "assetIds": []
    },
    {
      "x": 297,
      "y": 285,
      "size": 1,
      "price": "1011000000000000000000",
      "reserved": "",
      "salt": "0x6ab86ee67a68a14ec12f8a441492acbef94c41bad44aa205ad2ab36012558aea",
      "assetIds": []
    },
    {
      "x": 297,
      "y": 286,
      "size": 1,
      "price": "1011000000000000000000",
      "reserved": "0x7a9fe22691c811ea339d9b73150e6911a5343dca",
      "salt": "0xdb966284f3153205e3d247ae7d86ed4ea16c8da83d9732650e330db3469ab69f",
      "assetIds": []
    },
    {
      "x": 297,
      "y": 287,
      "size": 1,
      "price": "1011000000000000000000",
      "reserved": "",
      "salt": "0x1021632cb4da69d4db27c8dc2f32650d5b577ced8cddf817fce4fcae17e5d9fb",
      "assetIds": []
    },
    {
      "x": 297,
      "y": 288,
      "size": 1,
      "price": "1011000000000000000000",
      "reserved": "",
      "salt": "0x0fbfe5c9b826a02c3ff10f4743e326bb02b4bf8c8b3f3f3c1ceb5d4d7f0889e8",
      "assetIds": []
    },
    {
      "x": 297,
      "y": 289,
      "size": 1,
      "price": "1011000000000000000000",
      "reserved": "",
      "salt": "0x817ea08d2b172f67654c0df4430205bd1fdc69a4b4d8134d79553585f60d4406",
      "assetIds": []
    },
    {
      "x": 297,
      "y": 290,
      "size": 1,
      "price": "1011000000000000000000",
      "reserved": "0x7a9fe22691c811ea339d9b73150e6911a5343dca",
      "salt": "0x2409cec8255944c7766073a9934893ccc88b5670283356f9fd598f82f05746e1",
      "assetIds": []
    },
    {
      "x": 297,
      "y": 291,
      "size": 1,
      "price": "1011000000000000000000",
      "reserved": "",
      "salt": "0xb4c9b456a5c7381e89e8a42ecd6dba537cbb7323e615dd7467215b73cfaec14e",
      "assetIds": []
    },
    {
      "x": 297,
      "y": 292,
      "size": 1,
      "price": "1011000000000000000000",
      "reserved": "",
      "salt": "0xba6237074deb6cf51b5848c844cb8d186ca9fe894a1e4c1e1748bc8ea592b9ae",
      "assetIds": []
    },
    {
      "x": 297,
      "y": 293,
      "size": 1,
      "price": "1011000000000000000000",
      "reserved": "",
      "salt": "0xd1f90231802db6fed1c20e007e95b66dc7094eeef564503b724b9246f8bf1825",
      "assetIds": []
    },
    {
      "x": 297,
      "y": 294,
      "size": 1,
      "price": "1011000000000000000000",
      "reserved": "",
      "salt": "0x497d5a23bcddc2ae3e9413e26a80129234b105d3b7f846552eeba0fa0648dde4",
      "assetIds": []
    },
    {
      "x": 297,
      "y": 295,
      "size": 1,
      "price": "1011000000000000000000",
      "reserved": "",
      "salt": "0xe6935fade8566f2cc84f446c0dd02bc3046eb4ae6b6014b2f6acb00db6e96410",
      "assetIds": []
    },
    {
      "x": 297,
      "y": 296,
      "size": 1,
      "price": "4683000000000000000000",
      "reserved": "",
      "salt": "0x4829372672676a8a8c3b7e9de5fa972018e832ce4325e3d21f384f1d23661e21",
      "assetIds": [
        "55464657044963196816950587289035428064568320970692304673817341489688050948104",
        "55464657044963196816950587289035428064568320970692304673817341489688050948102",
        "55464657044963196816950587289035428064568320970692304673817341489688050948096",
        "55464657044963196816950587289035428064568320970692304673817341489688050948097"
      ]
    },
    {
      "x": 298,
      "y": 280,
      "size": 1,
      "price": "1011000000000000000000",
      "reserved": "0x7a9fe22691c811ea339d9b73150e6911a5343dca",
      "salt": "0x3059a7d72e26514eadce1d4e5c710dc66fdcbf87386d0bdca17c0515674d28b0",
      "assetIds": []
    },
    {
      "x": 298,
      "y": 281,
      "size": 1,
      "price": "1011000000000000000000",
      "reserved": "",
      "salt": "0xed6c33fcaa018de1f3f6a399a1786ea3aaa281a8008e927d48535d8e82e278ab",
      "assetIds": []
    },
    {
      "x": 298,
      "y": 282,
      "size": 1,
      "price": "1011000000000000000000",
      "reserved": "",
      "salt": "0x204ed1a980573c9fcb439cf3f12579eb5c815aedc2180e5b5154d49150a91c99",
      "assetIds": []
    },
    {
      "x": 298,
      "y": 283,
      "size": 1,
      "price": "1011000000000000000000",
      "reserved": "",
      "salt": "0x479fa9fc4e766bab8d9ad9497ca93b7c617e67150967740305c13fdd6990b5da",
      "assetIds": []
    },
    {
      "x": 298,
      "y": 284,
      "size": 1,
      "price": "1011000000000000000000",
      "reserved": "",
      "salt": "0xcaf0273e2475f68353db2be57b5137d49c3dbd8fd2211ae3ba358f3ae0208f72",
      "assetIds": []
    },
    {
      "x": 298,
      "y": 285,
      "size": 1,
      "price": "1011000000000000000000",
      "reserved": "",
      "salt": "0xd480baa4d58e60713738bd5073d221d2aa781115da80ed802c1ae1b6ff5c0ab3",
      "assetIds": []
    },
    {
      "x": 298,
      "y": 286,
      "size": 1,
      "price": "1011000000000000000000",
      "reserved": "",
      "salt": "0xa5dfc230a404c74f280e638109243f5a3931bbbd369010efef26bc056dd7bdf4",
      "assetIds": []
    },
    {
      "x": 298,
      "y": 287,
      "size": 1,
      "price": "1011000000000000000000",
      "reserved": "",
      "salt": "0x0347b9278214126deac036b9ab4d55866c52820d3c4e8c8ac9ac6e97370a1671",
      "assetIds": []
    },
    {
      "x": 298,
      "y": 288,
      "size": 1,
      "price": "1011000000000000000000",
      "reserved": "",
      "salt": "0xf556da6ca0bfa43bcb099d52c858683e4fbf1cea5c0f116de4710bd1930032ab",
      "assetIds": []
    },
    {
      "x": 298,
      "y": 289,
      "size": 1,
      "price": "1011000000000000000000",
      "reserved": "",
      "salt": "0x4d771eec8f0c891ada2b33908f5dbe3c29ae14e8a4d4e8b601f56a2ae51828ef",
      "assetIds": []
    },
    {
      "x": 298,
      "y": 290,
      "size": 1,
      "price": "1011000000000000000000",
      "reserved": "",
      "salt": "0xdf27326f999617d950df194bad12dff03d33b286592715d55a59cf70b317c61a",
      "assetIds": []
    },
    {
      "x": 298,
      "y": 291,
      "size": 1,
      "price": "1011000000000000000000",
      "reserved": "",
      "salt": "0xac640e31a55c61182f9b7ff4014ed3793155dd86949a2b88d671fb93ce3f82e9",
      "assetIds": []
    },
    {
      "x": 298,
      "y": 292,
      "size": 1,
      "price": "1011000000000000000000",
      "reserved": "",
      "salt": "0xc6201a37b46c3cb386c56acef075c81f3e5f36ac81cf494c75c40134b138fe4a",
      "assetIds": []
    },
    {
      "x": 298,
      "y": 293,
      "size": 1,
      "price": "1011000000000000000000",
      "reserved": "0x7a9fe22691c811ea339d9b73150e6911a5343dca",
      "salt": "0x537a9c902e879955841111a574a879c915402fcc8c54df81a07b2e3bc82f2820",
      "assetIds": []
    },
    {
      "x": 298,
      "y": 294,
      "size": 1,
      "price": "1011000000000000000000",
      "reserved": "",
      "salt": "0x83228f9e91f7d8787cfd0cdd41ff30f3c5e1df2391decfda71d6b59f7b22bc32",
      "assetIds": []
    },
    {
      "x": 298,
      "y": 295,
      "size": 1,
      "price": "1011000000000000000000",
      "reserved": "0x7a9fe22691c811ea339d9b73150e6911a5343dca",
      "salt": "0xe2a7c135221013bccc63408fd7f2fde4be6955d38da91670c0c32240ebd4c28d",
      "assetIds": []
    },
    {
      "x": 298,
      "y": 296,
      "size": 1,
      "price": "4683000000000000000000",
      "reserved": "",
      "salt": "0x895d16494da024ca54cd9427219063fedbabe02ad5b94093449677f654049343",
      "assetIds": [
        "55464657044963196816950587289035428064568320970692304673817341489688050948105",
        "55464657044963196816950587289035428064568320970692304673817341489688050948100",
        "55464657044963196816950587289035428064568320970692304673817341489688050948096",
        "55464657044963196816950587289035428064568320970692304673817341489688050948097"
      ]
    },
    {
      "x": 299,
      "y": 279,
      "size": 1,
      "price": "1011000000000000000000",
      "reserved": "",
      "salt": "0x8cf2e1f93c3db095d15b441c57c3bd526625bcb249169480b080265bb5f44778",
      "assetIds": []
    },
    {
      "x": 299,
      "y": 280,
      "size": 1,
      "price": "1011000000000000000000",
      "reserved": "",
      "salt": "0x50fa08635cb2d89fa25a0214891061fa5da28aef18ebbe3f3f2b533eff74b1fe",
      "assetIds": []
    },
    {
      "x": 299,
      "y": 281,
      "size": 1,
      "price": "1011000000000000000000",
      "reserved": "",
      "salt": "0x094959a5b4bd1f3a3a0791dd209876a4ad761d43f04de2342deded8439a23dbd",
      "assetIds": []
    },
    {
      "x": 299,
      "y": 282,
      "size": 1,
      "price": "1011000000000000000000",
      "reserved": "0x7a9fe22691c811ea339d9b73150e6911a5343dca",
      "salt": "0x6f67bd3e2ee21799f9abce3e8ba6209aa8305e552fe12b88c78aec9dca9c5b86",
      "assetIds": []
    },
    {
      "x": 299,
      "y": 283,
      "size": 1,
      "price": "1011000000000000000000",
      "reserved": "0x7a9fe22691c811ea339d9b73150e6911a5343dca",
      "salt": "0xad560738a52bea43fd68a9d617f9c966a0d6d93b1e4cf641af009ce9b42dfd6c",
      "assetIds": []
    },
    {
      "x": 299,
      "y": 284,
      "size": 1,
      "price": "1011000000000000000000",
      "reserved": "",
      "salt": "0xe4792ae040909935533392f841d0c5bcfd44ec326c6de5fe48a33f5603555fc5",
      "assetIds": []
    },
    {
      "x": 299,
      "y": 285,
      "size": 1,
      "price": "1011000000000000000000",
      "reserved": "",
      "salt": "0xf76b4de667d65c8515ca46f032556ef42fa369501851103121068b2b178a8a42",
      "assetIds": []
    },
    {
      "x": 299,
      "y": 286,
      "size": 1,
      "price": "1011000000000000000000",
      "reserved": "",
      "salt": "0x5580accf3e2a2cee2c4e24727bd36e346d656c122774fef67caa8ea6915e1a69",
      "assetIds": []
    },
    {
      "x": 299,
      "y": 287,
      "size": 1,
      "price": "4683000000000000000000",
      "reserved": "",
      "salt": "0xd6a801a50417a6d9c367123b28c8a661d5a2c35250f2660b29bde6ef881f7284",
      "assetIds": [
        "55464657044963196816950587289035428064568320970692304673817341489688050948106",
        "55464657044963196816950587289035428064568320970692304673817341489688050948101",
        "55464657044963196816950587289035428064568320970692304673817341489688050948096",
        "55464657044963196816950587289035428064568320970692304673817341489688050948098"
      ]
    },
    {
      "x": 299,
      "y": 288,
      "size": 1,
      "price": "4683000000000000000000",
      "reserved": "",
      "salt": "0xe413f923a6f27140c90c79296099ede151f0e8f83a75a66b9dfaa4da69c4d463",
      "assetIds": [
        "55464657044963196816950587289035428064568320970692304673817341489688050948104",
        "55464657044963196816950587289035428064568320970692304673817341489688050948102",
        "55464657044963196816950587289035428064568320970692304673817341489688050948096",
        "55464657044963196816950587289035428064568320970692304673817341489688050948097"
      ]
    },
    {
      "x": 299,
      "y": 289,
      "size": 1,
      "price": "4683000000000000000000",
      "reserved": "",
      "salt": "0x295757d21f955ee1932623af3a5376312322e9a4567501bf09455854ef1526f3",
      "assetIds": [
        "55464657044963196816950587289035428064568320970692304673817341489688050948103",
        "55464657044963196816950587289035428064568320970692304673817341489688050948099",
        "55464657044963196816950587289035428064568320970692304673817341489688050948096",
        "55464657044963196816950587289035428064568320970692304673817341489688050948098"
      ]
    },
    {
      "x": 299,
      "y": 290,
      "size": 1,
      "price": "4683000000000000000000",
      "reserved": "",
      "salt": "0xd77197aef4c060e266d615662af5403dfe3e9ce3316f0d32823721f024b79377",
      "assetIds": [
        "55464657044963196816950587289035428064568320970692304673817341489688050948104",
        "55464657044963196816950587289035428064568320970692304673817341489688050948102",
        "55464657044963196816950587289035428064568320970692304673817341489688050948096",
        "55464657044963196816950587289035428064568320970692304673817341489688050948097"
      ]
    },
    {
      "x": 299,
      "y": 291,
      "size": 1,
      "price": "4683000000000000000000",
      "reserved": "",
      "salt": "0xc126b6ce4508aa8425d885e52a5437bd3501fdf3a9b41711538802d86696fd4c",
      "assetIds": [
        "55464657044963196816950587289035428064568320970692304673817341489688050948104",
        "55464657044963196816950587289035428064568320970692304673817341489688050948102",
        "55464657044963196816950587289035428064568320970692304673817341489688050948096",
        "55464657044963196816950587289035428064568320970692304673817341489688050948097"
      ]
    },
    {
      "x": 299,
      "y": 292,
      "size": 1,
      "price": "4683000000000000000000",
      "reserved": "",
      "salt": "0x1031336ea90da00aef6a5abf1747ecebdad5595f34a94a3439f87c57962b2c97",
      "assetIds": [
        "55464657044963196816950587289035428064568320970692304673817341489688050948104",
        "55464657044963196816950587289035428064568320970692304673817341489688050948102",
        "55464657044963196816950587289035428064568320970692304673817341489688050948096",
        "55464657044963196816950587289035428064568320970692304673817341489688050948097"
      ]
    },
    {
      "x": 299,
      "y": 293,
      "size": 1,
      "price": "4683000000000000000000",
      "reserved": "",
      "salt": "0xa61d1272f4ffa514d398cbc5f84a839f78f56e730680c47a8a85187efd49cf43",
      "assetIds": [
        "55464657044963196816950587289035428064568320970692304673817341489688050948105",
        "55464657044963196816950587289035428064568320970692304673817341489688050948100",
        "55464657044963196816950587289035428064568320970692304673817341489688050948096",
        "55464657044963196816950587289035428064568320970692304673817341489688050948097"
      ]
    },
    {
      "x": 299,
      "y": 294,
      "size": 1,
      "price": "4683000000000000000000",
      "reserved": "",
      "salt": "0xb0f8e3a5f27083b83e81006af435d1c4c588d4f290717345848c7958b23eee2d",
      "assetIds": [
        "55464657044963196816950587289035428064568320970692304673817341489688050948106",
        "55464657044963196816950587289035428064568320970692304673817341489688050948101",
        "55464657044963196816950587289035428064568320970692304673817341489688050948096",
        "55464657044963196816950587289035428064568320970692304673817341489688050948098"
      ]
    },
    {
      "x": 299,
      "y": 295,
      "size": 1,
      "price": "4683000000000000000000",
      "reserved": "",
      "salt": "0xadc5d185f3514c88dfed1cb60f643af567cd70f91904fb65d48ab08b7fe8edd0",
      "assetIds": [
        "55464657044963196816950587289035428064568320970692304673817341489688050948104",
        "55464657044963196816950587289035428064568320970692304673817341489688050948102",
        "55464657044963196816950587289035428064568320970692304673817341489688050948096",
        "55464657044963196816950587289035428064568320970692304673817341489688050948097"
      ]
    },
    {
      "x": 299,
      "y": 296,
      "size": 1,
      "price": "4683000000000000000000",
      "reserved": "",
      "salt": "0xf8a395681bdb9786bbfb2e5b115e8f3f6bd8a3eea6778803e73a8208ce7be3c8",
      "assetIds": [
        "55464657044963196816950587289035428064568320970692304673817341489688050948106",
        "55464657044963196816950587289035428064568320970692304673817341489688050948101",
        "55464657044963196816950587289035428064568320970692304673817341489688050948096",
        "55464657044963196816950587289035428064568320970692304673817341489688050948098"
      ]
    },
    {
      "x": 300,
      "y": 279,
      "size": 1,
      "price": "1011000000000000000000",
      "reserved": "",
      "salt": "0x639bb01d73dcd981e13061b82faeb2408075cbb0f4ae5e62cfed8c7c813820d6",
      "assetIds": []
    },
    {
      "x": 300,
      "y": 280,
      "size": 1,
      "price": "1011000000000000000000",
      "reserved": "",
      "salt": "0x5b256061c7372d6e067fafbf822bce05ef18e074045212ff2b3e6a20e3ab3ef2",
      "assetIds": []
    },
    {
      "x": 300,
      "y": 281,
      "size": 1,
      "price": "1011000000000000000000",
      "reserved": "",
      "salt": "0x5b97a5c1b3c7c6bb7ae152cead134d826435cfecc57f691399cafd8b5760b5a2",
      "assetIds": []
    },
    {
      "x": 300,
      "y": 282,
      "size": 1,
      "price": "1011000000000000000000",
      "reserved": "",
      "salt": "0x90eb5bbcce5239a04342e60aea4f517e55d4e9d1d7d4d671360b3f148cf54aab",
      "assetIds": []
    },
    {
      "x": 300,
      "y": 283,
      "size": 1,
      "price": "1011000000000000000000",
      "reserved": "",
      "salt": "0x3fd2a8b1abd26157aa896d088664a53fa998b408cd201ada1aa3a68764f390d5",
      "assetIds": []
    },
    {
      "x": 300,
      "y": 284,
      "size": 1,
      "price": "1011000000000000000000",
      "reserved": "",
      "salt": "0x4cc2ff12d0677f4a7b2caa333234bb482a013d8e711e8c023f43e80a7f8dd501",
      "assetIds": []
    },
    {
      "x": 300,
      "y": 285,
      "size": 1,
      "price": "1011000000000000000000",
      "reserved": "",
      "salt": "0xcab8db0e5511154fb7bf49f6a259efa12ca189a6335dbef43bef6ec41f4ab8e5",
      "assetIds": []
    },
    {
      "x": 300,
      "y": 286,
      "size": 1,
      "price": "1011000000000000000000",
      "reserved": "0x7a9fe22691c811ea339d9b73150e6911a5343dca",
      "salt": "0x9833feb387f7a1433d3ff3d7d8a96bbe17a04cfcbc4cfafe053c04a1f83ace38",
      "assetIds": []
    },
    {
      "x": 300,
      "y": 287,
      "size": 1,
      "price": "4683000000000000000000",
      "reserved": "",
      "salt": "0x47e4eedc9f29c681e6124c3d092795cd0342392275c1ba0cedb470e115e65bb3",
      "assetIds": [
        "55464657044963196816950587289035428064568320970692304673817341489688050948105",
        "55464657044963196816950587289035428064568320970692304673817341489688050948100",
        "55464657044963196816950587289035428064568320970692304673817341489688050948096",
        "55464657044963196816950587289035428064568320970692304673817341489688050948097"
      ]
    },
    {
      "x": 300,
      "y": 300,
      "size": 1,
      "price": "4683000000000000000000",
      "reserved": "",
      "salt": "0x799730ee51fa42f6756fad4e29c08ada001d77789e707ed8ee6cec6a21f5bbd9",
      "assetIds": [
        "55464657044963196816950587289035428064568320970692304673817341489688050948103",
        "55464657044963196816950587289035428064568320970692304673817341489688050948099",
        "55464657044963196816950587289035428064568320970692304673817341489688050948096",
        "55464657044963196816950587289035428064568320970692304673817341489688050948098"
      ]
    },
    {
      "x": 300,
      "y": 301,
      "size": 1,
      "price": "1011000000000000000000",
      "reserved": "",
      "salt": "0xfc7a3d42b348edf564629450735feeaad7b0c6a0b2e46a66eacee13ce7de7aca",
      "assetIds": []
    },
    {
      "x": 300,
      "y": 302,
      "size": 1,
      "price": "1011000000000000000000",
      "reserved": "",
      "salt": "0xe90ad81fb265d0b610de10d59f1421241840a2930c9b2f182007c15e3b099f03",
      "assetIds": []
    },
    {
      "x": 300,
      "y": 303,
      "size": 1,
      "price": "1011000000000000000000",
      "reserved": "",
      "salt": "0xc20e9820f267a653b1dfe41535b5c06738542dbf26ecc7a3b875a455dd7a44f7",
      "assetIds": []
    },
    {
      "x": 300,
      "y": 304,
      "size": 1,
      "price": "1011000000000000000000",
      "reserved": "",
      "salt": "0x5cb9f01217567b2f3ede3a8a73605e086a8b069669ab384d87380efc159483f7",
      "assetIds": []
    },
    {
      "x": 300,
      "y": 305,
      "size": 1,
      "price": "1011000000000000000000",
      "reserved": "",
      "salt": "0xd5ccd90c9288893a63db44d22e2148e1c94cf33662284d69c117cf03b2248a6c",
      "assetIds": []
    },
    {
      "x": 300,
      "y": 306,
      "size": 1,
      "price": "1011000000000000000000",
      "reserved": "",
      "salt": "0x629d513a77dbeee071de18637d36218cd9572401ad6e6cc34c470868787a75a9",
      "assetIds": []
    },
    {
      "x": 300,
      "y": 307,
      "size": 1,
      "price": "1011000000000000000000",
      "reserved": "",
      "salt": "0x264c14c9bd56b918a1acccef755d624ce71075eee5db26c1af09c3000824ef9f",
      "assetIds": []
    },
    {
      "x": 300,
      "y": 308,
      "size": 1,
      "price": "1011000000000000000000",
      "reserved": "",
      "salt": "0x05b5f6e57de7aa0dc8832536c9214894f0be746aa8c548ce7fb9b759a3925a87",
      "assetIds": []
    },
    {
      "x": 300,
      "y": 309,
      "size": 1,
      "price": "1011000000000000000000",
      "reserved": "",
      "salt": "0xd9cbe6e78ef9507071f72ebaf07c70c804a788a964bc9452f7f7a11c44ea3ea9",
      "assetIds": []
    },
    {
      "x": 300,
      "y": 310,
      "size": 1,
      "price": "1011000000000000000000",
      "reserved": "",
      "salt": "0x080b6982c817dd75b041db1d520711a0e5334533246f79395333a12cf60e7b1b",
      "assetIds": []
    },
    {
      "x": 300,
      "y": 311,
      "size": 1,
      "price": "1011000000000000000000",
      "reserved": "",
      "salt": "0x38da66b22cf7477fc4de1278a00004f8f7952d4d01587b0c40a11fcfedf5d6be",
      "assetIds": []
    },
    {
      "x": 301,
      "y": 279,
      "size": 1,
      "price": "1011000000000000000000",
      "reserved": "",
      "salt": "0x09a2a3cd4f1b27e377f9837c1512e45ed0af59f67a592bcd6286dbbe727a4a64",
      "assetIds": []
    },
    {
      "x": 301,
      "y": 280,
      "size": 1,
      "price": "1011000000000000000000",
      "reserved": "0x7a9fe22691c811ea339d9b73150e6911a5343dca",
      "salt": "0x504ef57a85e9ef2a2d972c31bb9ed18434b5b57982725596ab74a2b8b089e807",
      "assetIds": []
    },
    {
      "x": 301,
      "y": 281,
      "size": 1,
      "price": "1011000000000000000000",
      "reserved": "",
      "salt": "0x86fbfa93d5535d52639536c0f1a1e4e76e14bde7a5cfd2f0f7455219a563c34d",
      "assetIds": []
    },
    {
      "x": 301,
      "y": 282,
      "size": 1,
      "price": "1011000000000000000000",
      "reserved": "",
      "salt": "0x4800a4d1db33483caa99d51393f8ca5553d59c6e3ba713332cbf105899187143",
      "assetIds": []
    },
    {
      "x": 301,
      "y": 283,
      "size": 1,
      "price": "1011000000000000000000",
      "reserved": "0x7a9fe22691c811ea339d9b73150e6911a5343dca",
      "salt": "0xdafafe78ac072fd854b90b9b0886b1f068c7d0fdde8c94ea132397e10957d7ea",
      "assetIds": []
    },
    {
      "x": 301,
      "y": 284,
      "size": 1,
      "price": "1011000000000000000000",
      "reserved": "",
      "salt": "0xae3d3a1b2f723852715d21d44f6337e83eb68acb988e2babdfbaccb1eaa96559",
      "assetIds": []
    },
    {
      "x": 301,
      "y": 285,
      "size": 1,
      "price": "1011000000000000000000",
      "reserved": "",
      "salt": "0x1284ef0a4a9209ce619a798055077b59b6b248056b8877659b5341878fe57f76",
      "assetIds": []
    },
    {
      "x": 301,
      "y": 286,
      "size": 1,
      "price": "4683000000000000000000",
      "reserved": "",
      "salt": "0x2bd4767e38f0b0d065e73c63db1b95507fab9003b4c95f6cfbd29382523e219c",
      "assetIds": [
        "55464657044963196816950587289035428064568320970692304673817341489688050948106",
        "55464657044963196816950587289035428064568320970692304673817341489688050948101",
        "55464657044963196816950587289035428064568320970692304673817341489688050948096",
        "55464657044963196816950587289035428064568320970692304673817341489688050948098"
      ]
    },
    {
      "x": 301,
      "y": 287,
      "size": 1,
      "price": "4683000000000000000000",
      "reserved": "",
      "salt": "0x0f125ef3a0ad2d73f6ea9c59caff7f740da4e12d797f7e269f9069f4367720e2",
      "assetIds": [
        "55464657044963196816950587289035428064568320970692304673817341489688050948106",
        "55464657044963196816950587289035428064568320970692304673817341489688050948101",
        "55464657044963196816950587289035428064568320970692304673817341489688050948096",
        "55464657044963196816950587289035428064568320970692304673817341489688050948098"
      ]
    },
    {
      "x": 301,
      "y": 300,
      "size": 1,
      "price": "4683000000000000000000",
      "reserved": "",
      "salt": "0x108717504401d9ed1b0c67cc7bee7520c116824769869a2b5c022ac11ba441f7",
      "assetIds": [
        "55464657044963196816950587289035428064568320970692304673817341489688050948105",
        "55464657044963196816950587289035428064568320970692304673817341489688050948100",
        "55464657044963196816950587289035428064568320970692304673817341489688050948096",
        "55464657044963196816950587289035428064568320970692304673817341489688050948097"
      ]
    },
    {
      "x": 301,
      "y": 301,
      "size": 1,
      "price": "1011000000000000000000",
      "reserved": "0x7a9fe22691c811ea339d9b73150e6911a5343dca",
      "salt": "0x7e9bd29fd4c81a9a47359f4096e99875abfafdc9c88a41dfbd1fda95bf937687",
      "assetIds": []
    },
    {
      "x": 301,
      "y": 302,
      "size": 1,
      "price": "1011000000000000000000",
      "reserved": "",
      "salt": "0x9002e57174c893e58ee2547c14d20ac1acbaddd3b83bc33034cf5508e0afa413",
      "assetIds": []
    },
    {
      "x": 301,
      "y": 303,
      "size": 1,
      "price": "1011000000000000000000",
      "reserved": "",
      "salt": "0x09129751445571c45d235ac15496ecd1f2a0f15dff4c9478e71630e7cbd43486",
      "assetIds": []
    },
    {
      "x": 301,
      "y": 304,
      "size": 1,
      "price": "1011000000000000000000",
      "reserved": "",
      "salt": "0xc420d01a564d7592b36309727948f37502bd317e47e3e79e04e95479b3770a00",
      "assetIds": []
    },
    {
      "x": 301,
      "y": 305,
      "size": 1,
      "price": "1011000000000000000000",
      "reserved": "0x7a9fe22691c811ea339d9b73150e6911a5343dca",
      "salt": "0x10c870dec2a75336875d05724884513eefada767f4a3cc4b2ba3a022d30876b7",
      "assetIds": []
    },
    {
      "x": 301,
      "y": 306,
      "size": 1,
      "price": "1011000000000000000000",
      "reserved": "",
      "salt": "0xe2dcba476d4bb6072af8decbae5ae6955cc84ccc388db081a145567e1932abec",
      "assetIds": []
    },
    {
      "x": 301,
      "y": 307,
      "size": 1,
      "price": "1011000000000000000000",
      "reserved": "",
      "salt": "0x21c0b327711037c615468edf7df5b253c7ac096017a8c744269a17ac1efc7d0d",
      "assetIds": []
    },
    {
      "x": 301,
      "y": 308,
      "size": 1,
      "price": "1011000000000000000000",
      "reserved": "",
      "salt": "0xc7d9d9beae290a1b455206f22b5063ff3aa047979e192125aab9fad8f82f9018",
      "assetIds": []
    },
    {
      "x": 301,
      "y": 309,
      "size": 1,
      "price": "1011000000000000000000",
      "reserved": "0x7a9fe22691c811ea339d9b73150e6911a5343dca",
      "salt": "0xebbb7d03a5890eeb2277ab591f3bd3aee717875d1ec74d885eb18383c4d8359d",
      "assetIds": []
    },
    {
      "x": 301,
      "y": 310,
      "size": 1,
      "price": "1011000000000000000000",
      "reserved": "",
      "salt": "0x9bd84b0a784cbb548443c4ab3176be056ee08ea2a28ba59134d92da1e93b38ad",
      "assetIds": []
    },
    {
      "x": 301,
      "y": 311,
      "size": 1,
      "price": "1011000000000000000000",
      "reserved": "",
      "salt": "0x8b8b6ff999ba1d577951375e40a802eb2392edb195de88e1bb5d8d999757e05a",
      "assetIds": []
    },
    {
      "x": 302,
      "y": 279,
      "size": 1,
      "price": "1011000000000000000000",
      "reserved": "",
      "salt": "0x45a5975fdcce3ff9e172e12c059368a720f4b1323d40512415f2c31875aca936",
      "assetIds": []
    },
    {
      "x": 302,
      "y": 280,
      "size": 1,
      "price": "1011000000000000000000",
      "reserved": "",
      "salt": "0xa81f9ef96778ac2e9cc59ca386fdfa8ed05a9afd744d70aa4f474056ade9f5f1",
      "assetIds": []
    },
    {
      "x": 302,
      "y": 281,
      "size": 1,
      "price": "1011000000000000000000",
      "reserved": "",
      "salt": "0x1c5714109adc1935cbd2793099ad3c2dad56ed24e4db8bbebe2e23270d1652fc",
      "assetIds": []
    },
    {
      "x": 302,
      "y": 282,
      "size": 1,
      "price": "1011000000000000000000",
      "reserved": "",
      "salt": "0x91dd158ed3fc3405b7d05170033a088bb7a796d1d119e48b125048f5ceb2785a",
      "assetIds": []
    },
    {
      "x": 302,
      "y": 283,
      "size": 1,
      "price": "1011000000000000000000",
      "reserved": "",
      "salt": "0x5575dfb905cbeea46d9076429d562e8bf7af831d0ccc83cba6ae87efd9769559",
      "assetIds": []
    },
    {
      "x": 302,
      "y": 284,
      "size": 1,
      "price": "1011000000000000000000",
      "reserved": "",
      "salt": "0x7ebe6827d992255a56135dd5caa09b5cbd5ccc47b157fc67ae3f5c9800f7a13b",
      "assetIds": []
    },
    {
      "x": 302,
      "y": 285,
      "size": 1,
      "price": "4683000000000000000000",
      "reserved": "",
      "salt": "0x9defd5afbbc4695d02d1eed2a45fa4cc0739cab0bcd911bd1052807ee676ba97",
      "assetIds": [
        "55464657044963196816950587289035428064568320970692304673817341489688050948106",
        "55464657044963196816950587289035428064568320970692304673817341489688050948101",
        "55464657044963196816950587289035428064568320970692304673817341489688050948096",
        "55464657044963196816950587289035428064568320970692304673817341489688050948098"
      ]
    },
    {
      "x": 302,
      "y": 286,
      "size": 1,
      "price": "4683000000000000000000",
      "reserved": "",
      "salt": "0xc0ca8d68797b063dd920e165b6250b555a62424b4bee1704378da303533a5298",
      "assetIds": [
        "55464657044963196816950587289035428064568320970692304673817341489688050948103",
        "55464657044963196816950587289035428064568320970692304673817341489688050948099",
        "55464657044963196816950587289035428064568320970692304673817341489688050948096",
        "55464657044963196816950587289035428064568320970692304673817341489688050948098"
      ]
    },
    {
      "x": 302,
      "y": 287,
      "size": 1,
      "price": "4683000000000000000000",
      "reserved": "",
      "salt": "0x3963819cc8708b6ea1400c818b82582c5fee5f81d1508bf2ecb78ad8034a3073",
      "assetIds": [
        "55464657044963196816950587289035428064568320970692304673817341489688050948105",
        "55464657044963196816950587289035428064568320970692304673817341489688050948100",
        "55464657044963196816950587289035428064568320970692304673817341489688050948096",
        "55464657044963196816950587289035428064568320970692304673817341489688050948097"
      ]
    },
    {
      "x": 302,
      "y": 300,
      "size": 1,
      "price": "4683000000000000000000",
      "reserved": "",
      "salt": "0xfe72c0a1a73399507b71b17322d68345cce30894541659159e75fb121d0db5f7",
      "assetIds": [
        "55464657044963196816950587289035428064568320970692304673817341489688050948104",
        "55464657044963196816950587289035428064568320970692304673817341489688050948102",
        "55464657044963196816950587289035428064568320970692304673817341489688050948096",
        "55464657044963196816950587289035428064568320970692304673817341489688050948097"
      ]
    },
    {
      "x": 302,
      "y": 301,
      "size": 1,
      "price": "1011000000000000000000",
      "reserved": "",
      "salt": "0x381127eef0819c72a7afb5064fd983e395e6bcc17520f55df2d81c324107b88f",
      "assetIds": []
    },
    {
      "x": 302,
      "y": 302,
      "size": 1,
      "price": "1011000000000000000000",
      "reserved": "0x7a9fe22691c811ea339d9b73150e6911a5343dca",
      "salt": "0xfebf51e21d197e8916f3c5b777ce24904c36b3483d369df7c1cde6d9e9adc43d",
      "assetIds": []
    },
    {
      "x": 302,
      "y": 303,
      "size": 1,
      "price": "1011000000000000000000",
      "reserved": "",
      "salt": "0x29af223fabe347cd3e012bd552047e10fcd05e35ffb1293e758397e0935563b7",
      "assetIds": []
    },
    {
      "x": 302,
      "y": 304,
      "size": 1,
      "price": "1011000000000000000000",
      "reserved": "",
      "salt": "0x44eef50f41956412d599d4acf59850271114298e259b3c5c602f6442fb88e95b",
      "assetIds": []
    },
    {
      "x": 302,
      "y": 305,
      "size": 1,
      "price": "1011000000000000000000",
      "reserved": "",
      "salt": "0xbadff9020c12daefe647c274b1b3b182faf7e3a7e7f1be8a2132b8f6b7bd1097",
      "assetIds": []
    },
    {
      "x": 302,
      "y": 306,
      "size": 1,
      "price": "1011000000000000000000",
      "reserved": "",
      "salt": "0xdb7e008731dbc28d97eb9689bfc3b70c9e6f6934bf2b7aa219b860caaa4ff664",
      "assetIds": []
    },
    {
      "x": 302,
      "y": 307,
      "size": 1,
      "price": "1011000000000000000000",
      "reserved": "",
      "salt": "0x3a570e408a56fbcd63fad39f27acd5b89258464fe180e87961d3df71b20a66ff",
      "assetIds": []
    },
    {
      "x": 302,
      "y": 308,
      "size": 1,
      "price": "1011000000000000000000",
      "reserved": "",
      "salt": "0x7334024a3c24c61860012cced1797c2439a150403b4df8eaff8eafb661061fb9",
      "assetIds": []
    },
    {
      "x": 302,
      "y": 309,
      "size": 1,
      "price": "1011000000000000000000",
      "reserved": "",
      "salt": "0x937b45b222b9a44b3fb97ff43ed5429928b11c2674587c8313d63467bed04451",
      "assetIds": []
    },
    {
      "x": 302,
      "y": 310,
      "size": 1,
      "price": "1011000000000000000000",
      "reserved": "",
      "salt": "0x6bdb8deb0f2d443ccd54edf2edc143997e34947a7fb2f489303f42f19b1a283a",
      "assetIds": []
    },
    {
      "x": 302,
      "y": 311,
      "size": 1,
      "price": "1011000000000000000000",
      "reserved": "",
      "salt": "0xc642b170bcc7b6b1bed83e20e6f5c1a3751214c2751badc075d393994453e569",
      "assetIds": []
    },
    {
      "x": 303,
      "y": 279,
      "size": 1,
      "price": "1011000000000000000000",
      "reserved": "",
      "salt": "0x881c29a2ca514842082e745ceea94235abd21f8b0f9b308d6208e41046a2a7be",
      "assetIds": []
    },
    {
      "x": 303,
      "y": 280,
      "size": 1,
      "price": "1011000000000000000000",
      "reserved": "0x7a9fe22691c811ea339d9b73150e6911a5343dca",
      "salt": "0x11e3b74e53081f51ab638bbed28b9bf5c317cb1a6fe9bc7858e45e390ef82e34",
      "assetIds": []
    },
    {
      "x": 303,
      "y": 281,
      "size": 1,
      "price": "1011000000000000000000",
      "reserved": "",
      "salt": "0x9c236f0565dfb1b52338f75354d04e98bb5c1241fd9d07fd787c9ea01982b335",
      "assetIds": []
    },
    {
      "x": 303,
      "y": 282,
      "size": 1,
      "price": "1011000000000000000000",
      "reserved": "",
      "salt": "0xae13c0e18659a82e114b98b5cefa60aab3f0935755a6ab7c0976b5823597d725",
      "assetIds": []
    },
    {
      "x": 303,
      "y": 283,
      "size": 1,
      "price": "1011000000000000000000",
      "reserved": "",
      "salt": "0x28c110e09bd5206cdbe83061fd032d4e1d7d03e0ac3d7633c833e68d1d3f8d33",
      "assetIds": []
    },
    {
      "x": 303,
      "y": 284,
      "size": 1,
      "price": "4683000000000000000000",
      "reserved": "",
      "salt": "0x72b964a51c3c1987c1e53ff3feee1ca08c7d762778b4ff78585a862aef2a6b7c",
      "assetIds": [
        "55464657044963196816950587289035428064568320970692304673817341489688050948104",
        "55464657044963196816950587289035428064568320970692304673817341489688050948102",
        "55464657044963196816950587289035428064568320970692304673817341489688050948096",
        "55464657044963196816950587289035428064568320970692304673817341489688050948097"
      ]
    },
    {
      "x": 303,
      "y": 300,
      "size": 1,
      "price": "4683000000000000000000",
      "reserved": "",
      "salt": "0x94153ca759bd00ca5cc224bcbf14cad03d762f193cbb89e98e7403f7897207a6",
      "assetIds": [
        "55464657044963196816950587289035428064568320970692304673817341489688050948106",
        "55464657044963196816950587289035428064568320970692304673817341489688050948101",
        "55464657044963196816950587289035428064568320970692304673817341489688050948096",
        "55464657044963196816950587289035428064568320970692304673817341489688050948098"
      ]
    },
    {
      "x": 303,
      "y": 301,
      "size": 1,
      "price": "1011000000000000000000",
      "reserved": "0x7a9fe22691c811ea339d9b73150e6911a5343dca",
      "salt": "0x87e445c3652020a643c68f461f86817369dcdbbd52d6850278bffc611988e7fb",
      "assetIds": []
    },
    {
      "x": 303,
      "y": 302,
      "size": 1,
      "price": "1011000000000000000000",
      "reserved": "",
      "salt": "0x719669f67b5cd9b334cd85762c722dbc9b823799273d3ec90c7556e35b0f0a53",
      "assetIds": []
    },
    {
      "x": 303,
      "y": 303,
      "size": 1,
      "price": "1011000000000000000000",
      "reserved": "",
      "salt": "0x2fcbd2d7b0640880348499b2c4a3db109d2ed3ad5a2197e1eaf49ad53e53a36b",
      "assetIds": []
    },
    {
      "x": 303,
      "y": 304,
      "size": 1,
      "price": "1011000000000000000000",
      "reserved": "0x7a9fe22691c811ea339d9b73150e6911a5343dca",
      "salt": "0xf2d9f266f37ba504c69bd4f9139154793cdac7ecc83df6b1dc2e6332592a2c15",
      "assetIds": []
    },
    {
      "x": 303,
      "y": 305,
      "size": 1,
      "price": "1011000000000000000000",
      "reserved": "",
      "salt": "0x10e55b4a4fbab5888fa33109f708b9056dc15be52507cef0ca487bc8917fe3b9",
      "assetIds": []
    },
    {
      "x": 303,
      "y": 306,
      "size": 1,
      "price": "1011000000000000000000",
      "reserved": "",
      "salt": "0x6dd3563a6aed4e5988d5715f53cbf0027cf76444fdb19bb758dbbc7d8b9591cd",
      "assetIds": []
    },
    {
      "x": 303,
      "y": 307,
      "size": 1,
      "price": "1011000000000000000000",
      "reserved": "0x7a9fe22691c811ea339d9b73150e6911a5343dca",
      "salt": "0x605abe8b87def13f7e8119fe45a7d70f5d890f94c5b22bd79a6e8c4b0e5c9d30",
      "assetIds": []
    },
    {
      "x": 303,
      "y": 308,
      "size": 1,
      "price": "1011000000000000000000",
      "reserved": "",
      "salt": "0xd0d28ced18c24211ce9d3da16c37a71fabf944e1547dea25d8890ad1304896c3",
      "assetIds": []
    },
    {
      "x": 303,
      "y": 309,
      "size": 1,
      "price": "1011000000000000000000",
      "reserved": "",
      "salt": "0x8cf25a4a20959dfedd1f21697767f50c884aa677907297f29d190b89a445b2aa",
      "assetIds": []
    },
    {
      "x": 303,
      "y": 310,
      "size": 1,
      "price": "1011000000000000000000",
      "reserved": "",
      "salt": "0xaf34afdba3bfc3cc9a58d2b967e8be1171f7c7f2a5d9ba7bb91ed3997b9bde9d",
      "assetIds": []
    },
    {
      "x": 303,
      "y": 311,
      "size": 1,
      "price": "1011000000000000000000",
      "reserved": "0x7a9fe22691c811ea339d9b73150e6911a5343dca",
      "salt": "0x0e1fa362a4db27e2bc9d328edf7dbdd40ca97f3407df867aee144d16183c5ca3",
      "assetIds": []
    },
    {
      "x": 304,
      "y": 279,
      "size": 1,
      "price": "1011000000000000000000",
      "reserved": "0x7a9fe22691c811ea339d9b73150e6911a5343dca",
      "salt": "0x1bc70020930a95329eb0f0d6bda2732c46c69495a7674f758eaf7c9101b65b03",
      "assetIds": []
    },
    {
      "x": 304,
      "y": 280,
      "size": 1,
      "price": "1011000000000000000000",
      "reserved": "",
      "salt": "0xb6bde2070191c5ba4439315429691487ee96c292686dfa061021ba18e9a195be",
      "assetIds": []
    },
    {
      "x": 304,
      "y": 281,
      "size": 1,
      "price": "1011000000000000000000",
      "reserved": "",
      "salt": "0xf1f6157453cc9422a50c7d634ae098fd74cad54bf011485cf498ae525456a80b",
      "assetIds": []
    },
    {
      "x": 304,
      "y": 282,
      "size": 1,
      "price": "1011000000000000000000",
      "reserved": "",
      "salt": "0xc48a3b24758cdf11be4ff23e5cf3f451d7f9365fbcba19f47b4f36d5fde28a7e",
      "assetIds": []
    },
    {
      "x": 304,
      "y": 283,
      "size": 1,
      "price": "1011000000000000000000",
      "reserved": "0x7a9fe22691c811ea339d9b73150e6911a5343dca",
      "salt": "0x9faab29517c7ae6aca7957a67629e38033aa5ede5e1bc5e6dff12afe3e78fdf3",
      "assetIds": []
    },
    {
      "x": 304,
      "y": 284,
      "size": 1,
      "price": "4683000000000000000000",
      "reserved": "",
      "salt": "0x82be29a79abe2af4e0763d3004283cb6d3d8f4ce3416c9f7733a99e86ea21694",
      "assetIds": [
        "55464657044963196816950587289035428064568320970692304673817341489688050948106",
        "55464657044963196816950587289035428064568320970692304673817341489688050948101",
        "55464657044963196816950587289035428064568320970692304673817341489688050948096",
        "55464657044963196816950587289035428064568320970692304673817341489688050948098"
      ]
    },
    {
      "x": 304,
      "y": 300,
      "size": 1,
      "price": "4683000000000000000000",
      "reserved": "",
      "salt": "0xfd666fd4fc7c61b181c5e7a5d5e1e25a7bd7a4664a4eda8973eb46500c8b188e",
      "assetIds": [
        "55464657044963196816950587289035428064568320970692304673817341489688050948105",
        "55464657044963196816950587289035428064568320970692304673817341489688050948100",
        "55464657044963196816950587289035428064568320970692304673817341489688050948096",
        "55464657044963196816950587289035428064568320970692304673817341489688050948097"
      ]
    },
    {
      "x": 304,
      "y": 301,
      "size": 1,
      "price": "1011000000000000000000",
      "reserved": "0x7a9fe22691c811ea339d9b73150e6911a5343dca",
      "salt": "0xf30b8f84b0e9eb4c8832e8256c963a740a055d793aa2df15e2d2bdc64c18ce6c",
      "assetIds": []
    },
    {
      "x": 304,
      "y": 302,
      "size": 1,
      "price": "1011000000000000000000",
      "reserved": "",
      "salt": "0x27c44bab37b45eac72b9a9311e1faa5592dabd7f89106a04c33f7084f73ad9a1",
      "assetIds": []
    },
    {
      "x": 304,
      "y": 303,
      "size": 1,
      "price": "1011000000000000000000",
      "reserved": "",
      "salt": "0x6f34d53819f4760763d4abfb2fb3bdb89dd5ddab9422a977f9d77a0fa5587c58",
      "assetIds": []
    },
    {
      "x": 304,
      "y": 304,
      "size": 1,
      "price": "1011000000000000000000",
      "reserved": "",
      "salt": "0xc7875c6ca5d988bebcffdbb44a2883a55fced801664d3b4f4584b2a5f851f84f",
      "assetIds": []
    },
    {
      "x": 304,
      "y": 305,
      "size": 1,
      "price": "1011000000000000000000",
      "reserved": "",
      "salt": "0xe7e0c4c1a82f2dcd9e0e69ae14db382adc50f8d316194cc8dce2b66b1610ea3b",
      "assetIds": []
    },
    {
      "x": 304,
      "y": 306,
      "size": 1,
      "price": "1011000000000000000000",
      "reserved": "0x7a9fe22691c811ea339d9b73150e6911a5343dca",
      "salt": "0xaf641a5d07543ab71a4f0d94ba18e2220beabf924a01945d2c4db1cf14d649b2",
      "assetIds": []
    },
    {
      "x": 304,
      "y": 307,
      "size": 1,
      "price": "1011000000000000000000",
      "reserved": "",
      "salt": "0x30f8397b9541d11d1374dfe850dec6b82ca870574b32dda53e17f83b9b93d69d",
      "assetIds": []
    },
    {
      "x": 304,
      "y": 308,
      "size": 1,
      "price": "1011000000000000000000",
      "reserved": "",
      "salt": "0xcc3113a16f865120d88cf8914676517fec8bc82129d2a9226cf0a81628f50942",
      "assetIds": []
    },
    {
      "x": 304,
      "y": 309,
      "size": 1,
      "price": "1011000000000000000000",
      "reserved": "",
      "salt": "0x887554837515839743a13fd77d32e415515b2998c1e8923974973bb17e0db772",
      "assetIds": []
    },
    {
      "x": 304,
      "y": 310,
      "size": 1,
      "price": "1011000000000000000000",
      "reserved": "",
      "salt": "0x57fdd6c736ff5795d9770ac7b9df1bd47226cd898c2d7ee60be4cf8382b879f5",
      "assetIds": []
    },
    {
      "x": 304,
      "y": 311,
      "size": 1,
      "price": "1011000000000000000000",
      "reserved": "",
      "salt": "0xe1dcc17f3a72563e393de9e68c8faa1fe4b16b021c7241829d65981236d926cc",
      "assetIds": []
    },
    {
      "x": 305,
      "y": 279,
      "size": 1,
      "price": "1011000000000000000000",
      "reserved": "",
      "salt": "0xe3bf0b057d9dfbb74190a3b557a3d29fd01e35ad653383e714ca798b1b31eb8d",
      "assetIds": []
    },
    {
      "x": 305,
      "y": 280,
      "size": 1,
      "price": "1011000000000000000000",
      "reserved": "",
      "salt": "0x0d6f2fb6c1b0eb72b43bf7e5ec8ec0569e0e89c34c30df28b302b7543e00becd",
      "assetIds": []
    },
    {
      "x": 305,
      "y": 281,
      "size": 1,
      "price": "4683000000000000000000",
      "reserved": "",
      "salt": "0x37b83489f0d3d59cc66f562a7beb7e82d76d400f0b6f9f2399e660499d92bb26",
      "assetIds": [
        "55464657044963196816950587289035428064568320970692304673817341489688050948104",
        "55464657044963196816950587289035428064568320970692304673817341489688050948102",
        "55464657044963196816950587289035428064568320970692304673817341489688050948096",
        "55464657044963196816950587289035428064568320970692304673817341489688050948097"
      ]
    },
    {
      "x": 305,
      "y": 282,
      "size": 1,
      "price": "4683000000000000000000",
      "reserved": "",
      "salt": "0xe61006d57a08e152e622f26e7d3cb4be6182910908f7f3d713e84f3199bd3827",
      "assetIds": [
        "55464657044963196816950587289035428064568320970692304673817341489688050948105",
        "55464657044963196816950587289035428064568320970692304673817341489688050948100",
        "55464657044963196816950587289035428064568320970692304673817341489688050948096",
        "55464657044963196816950587289035428064568320970692304673817341489688050948097"
      ]
    },
    {
      "x": 305,
      "y": 283,
      "size": 1,
      "price": "4683000000000000000000",
      "reserved": "",
      "salt": "0xb486f8af123aa8c77f92fa386a34e8d82f1f631a832f8e752cbfc99bf7c34a7f",
      "assetIds": [
        "55464657044963196816950587289035428064568320970692304673817341489688050948103",
        "55464657044963196816950587289035428064568320970692304673817341489688050948099",
        "55464657044963196816950587289035428064568320970692304673817341489688050948096",
        "55464657044963196816950587289035428064568320970692304673817341489688050948098"
      ]
    },
    {
      "x": 305,
      "y": 284,
      "size": 1,
      "price": "4683000000000000000000",
      "reserved": "",
      "salt": "0xedbc1d6ec6036db612c58f11919e8150145e9f2b33bb71f66ae12ca7808ac265",
      "assetIds": [
        "55464657044963196816950587289035428064568320970692304673817341489688050948105",
        "55464657044963196816950587289035428064568320970692304673817341489688050948100",
        "55464657044963196816950587289035428064568320970692304673817341489688050948096",
        "55464657044963196816950587289035428064568320970692304673817341489688050948097"
      ]
    },
    {
      "x": 305,
      "y": 300,
      "size": 1,
      "price": "4683000000000000000000",
      "reserved": "",
      "salt": "0xaaa7ad9c23ab6efc379dec4c041de29bfe3c1a0398ece42a9ff650aa0a584f0a",
      "assetIds": [
        "55464657044963196816950587289035428064568320970692304673817341489688050948104",
        "55464657044963196816950587289035428064568320970692304673817341489688050948102",
        "55464657044963196816950587289035428064568320970692304673817341489688050948096",
        "55464657044963196816950587289035428064568320970692304673817341489688050948097"
      ]
    },
    {
      "x": 305,
      "y": 301,
      "size": 1,
      "price": "1011000000000000000000",
      "reserved": "",
      "salt": "0xf8a6ebe0aaad4efc35ac7398118a0b47b627d13c0114c9253d657c5336147fb8",
      "assetIds": []
    },
    {
      "x": 305,
      "y": 302,
      "size": 1,
      "price": "1011000000000000000000",
      "reserved": "0x7a9fe22691c811ea339d9b73150e6911a5343dca",
      "salt": "0xf6dddf9eb81fd88173271dbc31604d5806db28b4fdd6dd268355899f4ba98e24",
      "assetIds": []
    },
    {
      "x": 305,
      "y": 303,
      "size": 1,
      "price": "1011000000000000000000",
      "reserved": "",
      "salt": "0x717193eaaed0638e0f5bf52b236e5cc39791cfdfa3ce57ec5d8c9c85721a6622",
      "assetIds": []
    },
    {
      "x": 305,
      "y": 304,
      "size": 1,
      "price": "1011000000000000000000",
      "reserved": "",
      "salt": "0x0aeb0d9aac8cf9d406079495eca5d5ef414f6f790b532a4b6a89e09419293e4e",
      "assetIds": []
    },
    {
      "x": 305,
      "y": 305,
      "size": 1,
      "price": "1011000000000000000000",
      "reserved": "",
      "salt": "0xbe3f8c6beaa7669305ea0c82595497b186f3aad4de9a3acbd197e5d5190f8b0d",
      "assetIds": []
    },
    {
      "x": 305,
      "y": 306,
      "size": 1,
      "price": "1011000000000000000000",
      "reserved": "",
      "salt": "0x7fbb1fbb0f8e8d16eee04a4f6a1045901fbcb65e8a4984a4c3ff2d54ea0c42c1",
      "assetIds": []
    },
    {
      "x": 305,
      "y": 307,
      "size": 1,
      "price": "1011000000000000000000",
      "reserved": "",
      "salt": "0xf3de0636d37200d0763823b5a60c575a8c73514799dd7077bf85fd1b2e7ccaf5",
      "assetIds": []
    },
    {
      "x": 305,
      "y": 308,
      "size": 1,
      "price": "1011000000000000000000",
      "reserved": "0x7a9fe22691c811ea339d9b73150e6911a5343dca",
      "salt": "0xbea4d5113f9e020ca668cccd23d0576842c0df3432f2037bf338565514929b39",
      "assetIds": []
    },
    {
      "x": 305,
      "y": 309,
      "size": 1,
      "price": "1011000000000000000000",
      "reserved": "",
      "salt": "0xdd58f57a92c1b9aac208d4c2b0646d118662e5464fc7a60c6a51c3c61a5033f3",
      "assetIds": []
    },
    {
      "x": 305,
      "y": 310,
      "size": 1,
      "price": "1011000000000000000000",
      "reserved": "",
      "salt": "0x2d6837a743b0f363f05b26b595068ff61ae32519d60b056db66d74ef0c1741e0",
      "assetIds": []
    },
    {
      "x": 305,
      "y": 311,
      "size": 1,
      "price": "1011000000000000000000",
      "reserved": "",
      "salt": "0x1bbf96b1f5df661531cb4a7f7876d3fd4bb80566d7c1b14739ed1ffe88a55c27",
      "assetIds": []
    },
    {
      "x": 306,
      "y": 279,
      "size": 1,
      "price": "1011000000000000000000",
      "reserved": "0x7a9fe22691c811ea339d9b73150e6911a5343dca",
      "salt": "0x748150954e78925a3e665ef48465091e707d98c608f99fb0168e8ecdde9543ca",
      "assetIds": []
    },
    {
      "x": 306,
      "y": 280,
      "size": 1,
      "price": "1011000000000000000000",
      "reserved": "",
      "salt": "0x82089f0e428a7313f9b54727135dfdd8a236319216007f6f6426aaac8850f46f",
      "assetIds": []
    },
    {
      "x": 306,
      "y": 281,
      "size": 1,
      "price": "4683000000000000000000",
      "reserved": "",
      "salt": "0xfa3af82dc899c418106ad0ef9f638c73cee190d6bc87b3818fd8e2645acbb297",
      "assetIds": [
        "55464657044963196816950587289035428064568320970692304673817341489688050948104",
        "55464657044963196816950587289035428064568320970692304673817341489688050948102",
        "55464657044963196816950587289035428064568320970692304673817341489688050948096",
        "55464657044963196816950587289035428064568320970692304673817341489688050948097"
      ]
    },
    {
      "x": 306,
      "y": 300,
      "size": 1,
      "price": "4683000000000000000000",
      "reserved": "",
      "salt": "0x570b2ffa526599cae17060150381ea78d60070e25f13b9d56be3fc8a4ce48620",
      "assetIds": [
        "55464657044963196816950587289035428064568320970692304673817341489688050948103",
        "55464657044963196816950587289035428064568320970692304673817341489688050948099",
        "55464657044963196816950587289035428064568320970692304673817341489688050948096",
        "55464657044963196816950587289035428064568320970692304673817341489688050948098"
      ]
    },
    {
      "x": 306,
      "y": 301,
      "size": 1,
      "price": "1011000000000000000000",
      "reserved": "0x7a9fe22691c811ea339d9b73150e6911a5343dca",
      "salt": "0xeac083d1f76d6b53132dd33fe076fd045ed294c4711bccfa828895403ad8906a",
      "assetIds": []
    },
    {
      "x": 306,
      "y": 302,
      "size": 1,
      "price": "1011000000000000000000",
      "reserved": "",
      "salt": "0xce4d2ae4374f85b8aa568395cd00e70576b5f078985b24d6bcf657f5a9a4d5c9",
      "assetIds": []
    },
    {
      "x": 306,
      "y": 303,
      "size": 1,
      "price": "1011000000000000000000",
      "reserved": "",
      "salt": "0x399b51dc8e53238367f016f519c877646b61c2ee931c372fc898c48ef3a8643e",
      "assetIds": []
    },
    {
      "x": 306,
      "y": 304,
      "size": 1,
      "price": "1011000000000000000000",
      "reserved": "",
      "salt": "0x77c3e2809017ac0751b87aee0b781373e7912972a80f52a0e6533de88ef83090",
      "assetIds": []
    },
    {
      "x": 306,
      "y": 305,
      "size": 1,
      "price": "1011000000000000000000",
      "reserved": "",
      "salt": "0xf4499b39741050469a2e47606bcf4fcff14459288a131857915f842bcab72262",
      "assetIds": []
    },
    {
      "x": 306,
      "y": 306,
      "size": 1,
      "price": "1011000000000000000000",
      "reserved": "",
      "salt": "0xb48598467ed420e6ac05521ba17d4da2b66358114ada6a76ec6f42138a046a72",
      "assetIds": []
    },
    {
      "x": 306,
      "y": 307,
      "size": 1,
      "price": "1011000000000000000000",
      "reserved": "",
      "salt": "0x4bf2a61fe471409667a934d463114eb757f6b6f179269b4f77788c1507d578a0",
      "assetIds": []
    },
    {
      "x": 306,
      "y": 308,
      "size": 1,
      "price": "1011000000000000000000",
      "reserved": "",
      "salt": "0x8af886753dbbaa05efbb7ac2268b66e6fddd3eea4e1ce4d6e8ec5b3f00cea63c",
      "assetIds": []
    },
    {
      "x": 306,
      "y": 309,
      "size": 1,
      "price": "1011000000000000000000",
      "reserved": "0x7a9fe22691c811ea339d9b73150e6911a5343dca",
      "salt": "0xb9a1bc0d918e99613ce29106d9d4dbe72a82be896ecc5855673fb8147cd507ab",
      "assetIds": []
    },
    {
      "x": 306,
      "y": 310,
      "size": 1,
      "price": "1011000000000000000000",
      "reserved": "",
      "salt": "0xf844a3f6e4e036ac790dedca493f8afa38ed199a214d60b3a6dcaef5f0db41a4",
      "assetIds": []
    },
    {
      "x": 306,
      "y": 311,
      "size": 1,
      "price": "1011000000000000000000",
      "reserved": "",
      "salt": "0x6e4c4207e68b0c89a003b4c47b89261dda55603115226ce4ee55c9c1662f23dd",
      "assetIds": []
    },
    {
      "x": 307,
      "y": 279,
      "size": 1,
      "price": "1011000000000000000000",
      "reserved": "",
      "salt": "0x4a49ac0da420694bce1001951eb72cc7485b7cb4eea2e2b37887cf47b56c359c",
      "assetIds": []
    },
    {
      "x": 307,
      "y": 280,
      "size": 1,
      "price": "1011000000000000000000",
      "reserved": "0x7a9fe22691c811ea339d9b73150e6911a5343dca",
      "salt": "0x43e94822a6108740b2489804bbf7294053ca2c58c3a819a289c5b2c8190e6989",
      "assetIds": []
    },
    {
      "x": 307,
      "y": 281,
      "size": 1,
      "price": "4683000000000000000000",
      "reserved": "",
      "salt": "0x40b18ffbee3dc1b8b4bd82ace78a9a734be9e93bc7629e47bd030a67f2795644",
      "assetIds": [
        "55464657044963196816950587289035428064568320970692304673817341489688050948103",
        "55464657044963196816950587289035428064568320970692304673817341489688050948099",
        "55464657044963196816950587289035428064568320970692304673817341489688050948096",
        "55464657044963196816950587289035428064568320970692304673817341489688050948098"
      ]
    },
    {
      "x": 307,
      "y": 300,
      "size": 1,
      "price": "4683000000000000000000",
      "reserved": "",
      "salt": "0xde0e085769fc1c4bde3647bf9fac7487b00a2456cfded3c4128bc8fbabd0912f",
      "assetIds": [
        "55464657044963196816950587289035428064568320970692304673817341489688050948103",
        "55464657044963196816950587289035428064568320970692304673817341489688050948099",
        "55464657044963196816950587289035428064568320970692304673817341489688050948096",
        "55464657044963196816950587289035428064568320970692304673817341489688050948098"
      ]
    },
    {
      "x": 307,
      "y": 301,
      "size": 1,
      "price": "1011000000000000000000",
      "reserved": "0x7a9fe22691c811ea339d9b73150e6911a5343dca",
      "salt": "0x6eeca9a23607dae3115b6e91bffcbf0e3d79df9bb6c40cf937219733a0549922",
      "assetIds": []
    },
    {
      "x": 307,
      "y": 302,
      "size": 1,
      "price": "1011000000000000000000",
      "reserved": "",
      "salt": "0xb7f970a2b3d16f36267c6f697fb712ae6535cf5e50798ca930292dde151decfe",
      "assetIds": []
    },
    {
      "x": 307,
      "y": 303,
      "size": 1,
      "price": "1011000000000000000000",
      "reserved": "",
      "salt": "0xad6e3bddf90d5c2794751fb9f3afa861c9407484834c1f68e2827dc98612401f",
      "assetIds": []
    },
    {
      "x": 307,
      "y": 304,
      "size": 1,
      "price": "1011000000000000000000",
      "reserved": "0x7a9fe22691c811ea339d9b73150e6911a5343dca",
      "salt": "0x8ff0def182bebd2ade73fdd69a21b6251afaa555ab5de0e5e1634c6a3998e2d1",
      "assetIds": []
    },
    {
      "x": 307,
      "y": 305,
      "size": 1,
      "price": "1011000000000000000000",
      "reserved": "",
      "salt": "0x05abd4263bfb7315a7b77559a5fc103ac7665e7c8b733838d5c21d9aba9cdf4f",
      "assetIds": []
    },
    {
      "x": 307,
      "y": 306,
      "size": 1,
      "price": "1011000000000000000000",
      "reserved": "",
      "salt": "0xfebd55171b844cce69da175f144e3901c733773ec640da254f2b5170a873dc94",
      "assetIds": []
    },
    {
      "x": 307,
      "y": 307,
      "size": 1,
      "price": "1011000000000000000000",
      "reserved": "",
      "salt": "0xab342f7836dc58e04f125e92b7bdcda3b41b9d4b826e822ca10d87256b4a2f60",
      "assetIds": []
    },
    {
      "x": 307,
      "y": 308,
      "size": 1,
      "price": "1011000000000000000000",
      "reserved": "",
      "salt": "0x0c717c8f85b8cea3aaf5263253391c5297f004ac246b26aa4cb6592caa00015e",
      "assetIds": []
    },
    {
      "x": 307,
      "y": 309,
      "size": 1,
      "price": "1011000000000000000000",
      "reserved": "",
      "salt": "0xf6dc39319e179096693473e78164fd8d617a81a68596f5e99d6bd5e0294943be",
      "assetIds": []
    },
    {
      "x": 307,
      "y": 310,
      "size": 1,
      "price": "1011000000000000000000",
      "reserved": "",
      "salt": "0x0b1443c2ea1101b295bcaac1e176b8021864d82f6471b867ee25d943ffc84670",
      "assetIds": []
    },
    {
      "x": 307,
      "y": 311,
      "size": 1,
      "price": "1011000000000000000000",
      "reserved": "",
      "salt": "0xac4f4050ca8487f9b286b40db073294d292f5a59de8c1ecf767d81a3a2c66a5e",
      "assetIds": []
    },
    {
      "x": 308,
      "y": 279,
      "size": 1,
      "price": "1011000000000000000000",
      "reserved": "",
      "salt": "0x72016c0eb02e565d380e37b266dae2907be3384610935739a7c202f42ea00af4",
      "assetIds": []
    },
    {
      "x": 308,
      "y": 280,
      "size": 1,
      "price": "1011000000000000000000",
      "reserved": "0x7a9fe22691c811ea339d9b73150e6911a5343dca",
      "salt": "0xe67466e7415a33cab36464fab468b621d5f37cffa8ba3ea4de2304182a2c1878",
      "assetIds": []
    },
    {
      "x": 308,
      "y": 281,
      "size": 1,
      "price": "4683000000000000000000",
      "reserved": "",
      "salt": "0x7fa98ba0c3176919d63185dee4881d1014dbd72cb3778569c46e82a1460e8f43",
      "assetIds": [
        "55464657044963196816950587289035428064568320970692304673817341489688050948103",
        "55464657044963196816950587289035428064568320970692304673817341489688050948099",
        "55464657044963196816950587289035428064568320970692304673817341489688050948096",
        "55464657044963196816950587289035428064568320970692304673817341489688050948098"
      ]
    },
    {
      "x": 308,
      "y": 300,
      "size": 1,
      "price": "4683000000000000000000",
      "reserved": "",
      "salt": "0x71c92d2e410457eaa76df65a4b2c9485ee251120f347aad8acdc1ad2400b6571",
      "assetIds": [
        "55464657044963196816950587289035428064568320970692304673817341489688050948104",
        "55464657044963196816950587289035428064568320970692304673817341489688050948102",
        "55464657044963196816950587289035428064568320970692304673817341489688050948096",
        "55464657044963196816950587289035428064568320970692304673817341489688050948097"
      ]
    },
    {
      "x": 308,
      "y": 301,
      "size": 1,
      "price": "1011000000000000000000",
      "reserved": "0x7a9fe22691c811ea339d9b73150e6911a5343dca",
      "salt": "0x305a75e05594856b28051b7663fa164d0bdffd57b30143a5cd5f7aa8313655fc",
      "assetIds": []
    },
    {
      "x": 308,
      "y": 302,
      "size": 1,
      "price": "1011000000000000000000",
      "reserved": "",
      "salt": "0x0add2e9c46dee871c7cf8dee145ae090c9e66666e6bfb8361c08d4b261f22d4a",
      "assetIds": []
    },
    {
      "x": 308,
      "y": 303,
      "size": 1,
      "price": "1011000000000000000000",
      "reserved": "",
      "salt": "0x37fe2f6fa63cbbf7c6d1879808556845de78b3db3dc491ffec0839b26ad9c174",
      "assetIds": []
    },
    {
      "x": 308,
      "y": 304,
      "size": 1,
      "price": "1011000000000000000000",
      "reserved": "",
      "salt": "0x91cbfbe6114b0488ee63f9c3c026103c1015d37e7e4f9914552330f134ce0e4e",
      "assetIds": []
    },
    {
      "x": 308,
      "y": 305,
      "size": 1,
      "price": "1011000000000000000000",
      "reserved": "",
      "salt": "0x12721dbfa8feea98fa9b13f761ae9489f349efa5b01c0ce53eaea59ead489758",
      "assetIds": []
    },
    {
      "x": 308,
      "y": 306,
      "size": 1,
      "price": "1011000000000000000000",
      "reserved": "0x7a9fe22691c811ea339d9b73150e6911a5343dca",
      "salt": "0xe399319a8d57c890a23eaf4b4a68efffca997b4820046b3abf3280731a42a417",
      "assetIds": []
    },
    {
      "x": 308,
      "y": 307,
      "size": 1,
      "price": "1011000000000000000000",
      "reserved": "",
      "salt": "0x5831706d648efbc78f46746bbd7cb62ab924c6fd197457b1d699c25727ff850a",
      "assetIds": []
    },
    {
      "x": 308,
      "y": 308,
      "size": 1,
      "price": "1011000000000000000000",
      "reserved": "",
      "salt": "0x37bef761daed3bba79ba255fdb4e37bd3382845a3b28e69f5a1a5a72b50c854f",
      "assetIds": []
    },
    {
      "x": 308,
      "y": 309,
      "size": 1,
      "price": "1011000000000000000000",
      "reserved": "",
      "salt": "0xf44fd3d86490aacd9f30eea2efa5f99e536c73c854df3654bf38d2eaf98d48e5",
      "assetIds": []
    },
    {
      "x": 308,
      "y": 310,
      "size": 1,
      "price": "1011000000000000000000",
      "reserved": "",
      "salt": "0x5156888e83de293d98ca19e166c360a9e14c1cc5637a646b0c365506a9bc203c",
      "assetIds": []
    },
    {
      "x": 308,
      "y": 311,
      "size": 1,
      "price": "1011000000000000000000",
      "reserved": "",
      "salt": "0xbb9925afaec585ad97da45ade32abbd9ad0c7a89a3c3eebde1582fe8d3523c61",
      "assetIds": []
    },
    {
      "x": 309,
      "y": 276,
      "size": 1,
      "price": "1011000000000000000000",
      "reserved": "0x7a9fe22691c811ea339d9b73150e6911a5343dca",
      "salt": "0x8dd1aee8cee6695c67de5319cada6ba6cfe331967ee0720f5d31cf6d4f908eb9",
      "assetIds": []
    },
    {
      "x": 309,
      "y": 277,
      "size": 1,
      "price": "1011000000000000000000",
      "reserved": "0x7a9fe22691c811ea339d9b73150e6911a5343dca",
      "salt": "0x497fdc983fb3b5adfa0d1eeb8db645750a38fb5f89b81cd38abb72f6475d8f0b",
      "assetIds": []
    },
    {
      "x": 309,
      "y": 278,
      "size": 1,
      "price": "4683000000000000000000",
      "reserved": "",
      "salt": "0xc26b7293d9bdea8b96065c3a2e8b35574e5c0322fb542c858ba87021da57e244",
      "assetIds": [
        "55464657044963196816950587289035428064568320970692304673817341489688050948103",
        "55464657044963196816950587289035428064568320970692304673817341489688050948099",
        "55464657044963196816950587289035428064568320970692304673817341489688050948096",
        "55464657044963196816950587289035428064568320970692304673817341489688050948098"
      ]
    },
    {
      "x": 309,
      "y": 279,
      "size": 1,
      "price": "4683000000000000000000",
      "reserved": "",
      "salt": "0x90b54060f71f361603f739a8502195fafdbe12a98232fdf828e463bfbb09b3d7",
      "assetIds": [
        "55464657044963196816950587289035428064568320970692304673817341489688050948105",
        "55464657044963196816950587289035428064568320970692304673817341489688050948100",
        "55464657044963196816950587289035428064568320970692304673817341489688050948096",
        "55464657044963196816950587289035428064568320970692304673817341489688050948097"
      ]
    },
    {
      "x": 309,
      "y": 280,
      "size": 1,
      "price": "4683000000000000000000",
      "reserved": "",
      "salt": "0x028f650227af8a111bf7d4f6eea100f7bd7f150e714d61b2ae22d3b79ca3b9b0",
      "assetIds": [
        "55464657044963196816950587289035428064568320970692304673817341489688050948106",
        "55464657044963196816950587289035428064568320970692304673817341489688050948101",
        "55464657044963196816950587289035428064568320970692304673817341489688050948096",
        "55464657044963196816950587289035428064568320970692304673817341489688050948098"
      ]
    },
    {
      "x": 309,
      "y": 281,
      "size": 1,
      "price": "4683000000000000000000",
      "reserved": "",
      "salt": "0x3a5cfae8c30ce4c12794ede0cbd3eef41a4853ea876e28f9523b5295a7f0ea39",
      "assetIds": [
        "55464657044963196816950587289035428064568320970692304673817341489688050948104",
        "55464657044963196816950587289035428064568320970692304673817341489688050948102",
        "55464657044963196816950587289035428064568320970692304673817341489688050948096",
        "55464657044963196816950587289035428064568320970692304673817341489688050948097"
      ]
    },
    {
      "x": 309,
      "y": 300,
      "size": 1,
      "price": "4683000000000000000000",
      "reserved": "",
      "salt": "0x931b927ed963e9a50ce11cccda9f6c3a8bd9f8d813de2bb44d7c89e19085a914",
      "assetIds": [
        "55464657044963196816950587289035428064568320970692304673817341489688050948105",
        "55464657044963196816950587289035428064568320970692304673817341489688050948100",
        "55464657044963196816950587289035428064568320970692304673817341489688050948096",
        "55464657044963196816950587289035428064568320970692304673817341489688050948097"
      ]
    },
    {
      "x": 309,
      "y": 301,
      "size": 1,
      "price": "4683000000000000000000",
      "reserved": "",
      "salt": "0x18310f41ac644cbfe483327706586b5c2e29659511f853ed86b075ffe83abdfe",
      "assetIds": [
        "55464657044963196816950587289035428064568320970692304673817341489688050948103",
        "55464657044963196816950587289035428064568320970692304673817341489688050948099",
        "55464657044963196816950587289035428064568320970692304673817341489688050948096",
        "55464657044963196816950587289035428064568320970692304673817341489688050948098"
      ]
    },
    {
      "x": 309,
      "y": 302,
      "size": 1,
      "price": "1011000000000000000000",
      "reserved": "0x7a9fe22691c811ea339d9b73150e6911a5343dca",
      "salt": "0x15b3f8c455cc9ed348f1922463da57288c8f4951e8131885b36533a4b6f206ac",
      "assetIds": []
    },
    {
      "x": 309,
      "y": 303,
      "size": 1,
      "price": "1011000000000000000000",
      "reserved": "",
      "salt": "0xcd30ac4068bb0bb8d27a2243b9cf827018fc30b97b121e0cfbdde931573e8dca",
      "assetIds": []
    },
    {
      "x": 309,
      "y": 304,
      "size": 1,
      "price": "1011000000000000000000",
      "reserved": "",
      "salt": "0x2ddb81d57835d2f3e849d4f7474cd952a636484ebf4d71a1f40d39eefe92a3d1",
      "assetIds": []
    },
    {
      "x": 309,
      "y": 305,
      "size": 1,
      "price": "1011000000000000000000",
      "reserved": "",
      "salt": "0x03fe5fac28baf81916841907d4ee9a9ece2e123789a23519116d97e76583feb2",
      "assetIds": []
    },
    {
      "x": 309,
      "y": 306,
      "size": 1,
      "price": "1011000000000000000000",
      "reserved": "",
      "salt": "0x2afce1b4fe6a0a4e95fc6f522566b0473b7816143ebbef117db6e822cedf1935",
      "assetIds": []
    },
    {
      "x": 309,
      "y": 307,
      "size": 1,
      "price": "1011000000000000000000",
      "reserved": "",
      "salt": "0xa4574d252fb9d6057d2573e511b04639057171a051f372207a9430c3ff1cd65e",
      "assetIds": []
    },
    {
      "x": 309,
      "y": 308,
      "size": 1,
      "price": "1011000000000000000000",
      "reserved": "0x7a9fe22691c811ea339d9b73150e6911a5343dca",
      "salt": "0xd69f7cfe87b79cd05f3dd7226112e4195eb4e6e9b12b2e79efd66b6d4efc70cc",
      "assetIds": []
    },
    {
      "x": 310,
      "y": 276,
      "size": 1,
      "price": "4683000000000000000000",
      "reserved": "",
      "salt": "0xaa2e3d7bf7fc845d8f4dacc587a5be62a0f0d24e30749b9a4d5b9ed094548a11",
      "assetIds": [
        "55464657044963196816950587289035428064568320970692304673817341489688050948103",
        "55464657044963196816950587289035428064568320970692304673817341489688050948099",
        "55464657044963196816950587289035428064568320970692304673817341489688050948096",
        "55464657044963196816950587289035428064568320970692304673817341489688050948098"
      ]
    },
    {
      "x": 310,
      "y": 277,
      "size": 1,
      "price": "4683000000000000000000",
      "reserved": "",
      "salt": "0x403f5ce1c61554d763288bc9d6300e9aa62c4abc4c5e2ec57069c419005ec4fb",
      "assetIds": [
        "55464657044963196816950587289035428064568320970692304673817341489688050948105",
        "55464657044963196816950587289035428064568320970692304673817341489688050948100",
        "55464657044963196816950587289035428064568320970692304673817341489688050948096",
        "55464657044963196816950587289035428064568320970692304673817341489688050948097"
      ]
    },
    {
      "x": 310,
      "y": 278,
      "size": 1,
      "price": "4683000000000000000000",
      "reserved": "",
      "salt": "0x8195b6e91bf55f891f15e125e2e7771e2ecc5a18f400678c9dccb11c8ecf7a27",
      "assetIds": [
        "55464657044963196816950587289035428064568320970692304673817341489688050948103",
        "55464657044963196816950587289035428064568320970692304673817341489688050948099",
        "55464657044963196816950587289035428064568320970692304673817341489688050948096",
        "55464657044963196816950587289035428064568320970692304673817341489688050948098"
      ]
    },
    {
      "x": 310,
      "y": 279,
      "size": 1,
      "price": "4683000000000000000000",
      "reserved": "",
      "salt": "0x6201735ec6fd34108ee76f76e6b46824d85aa0eb7e2e3e282422f2cf3fa4774b",
      "assetIds": [
        "55464657044963196816950587289035428064568320970692304673817341489688050948105",
        "55464657044963196816950587289035428064568320970692304673817341489688050948100",
        "55464657044963196816950587289035428064568320970692304673817341489688050948096",
        "55464657044963196816950587289035428064568320970692304673817341489688050948097"
      ]
    },
    {
      "x": 310,
      "y": 280,
      "size": 1,
      "price": "4683000000000000000000",
      "reserved": "",
      "salt": "0x4560f639ac2af83233f7fff9956a5817ddf15cb093f0ed9aca0c05fe13c946bf",
      "assetIds": [
        "55464657044963196816950587289035428064568320970692304673817341489688050948106",
        "55464657044963196816950587289035428064568320970692304673817341489688050948101",
        "55464657044963196816950587289035428064568320970692304673817341489688050948096",
        "55464657044963196816950587289035428064568320970692304673817341489688050948098"
      ]
    },
    {
      "x": 310,
      "y": 281,
      "size": 1,
      "price": "4683000000000000000000",
      "reserved": "",
      "salt": "0x4bd897838672ab9544ba7f02eac37931e021d8e24388e8d1751d72872c9e78c9",
      "assetIds": [
        "55464657044963196816950587289035428064568320970692304673817341489688050948106",
        "55464657044963196816950587289035428064568320970692304673817341489688050948101",
        "55464657044963196816950587289035428064568320970692304673817341489688050948096",
        "55464657044963196816950587289035428064568320970692304673817341489688050948098"
      ]
    },
    {
      "x": 310,
      "y": 300,
      "size": 1,
      "price": "4683000000000000000000",
      "reserved": "",
      "salt": "0x45e44abb48bc032bca7948dbd1364867e26f704e286930bd43745b800c61de64",
      "assetIds": [
        "55464657044963196816950587289035428064568320970692304673817341489688050948104",
        "55464657044963196816950587289035428064568320970692304673817341489688050948102",
        "55464657044963196816950587289035428064568320970692304673817341489688050948096",
        "55464657044963196816950587289035428064568320970692304673817341489688050948097"
      ]
    },
    {
      "x": 310,
      "y": 301,
      "size": 1,
      "price": "4683000000000000000000",
      "reserved": "",
      "salt": "0x14650b682f49e97f6c490a56fab97ffe27f1496f0658087b37b9558c8bbea5cd",
      "assetIds": [
        "55464657044963196816950587289035428064568320970692304673817341489688050948106",
        "55464657044963196816950587289035428064568320970692304673817341489688050948101",
        "55464657044963196816950587289035428064568320970692304673817341489688050948096",
        "55464657044963196816950587289035428064568320970692304673817341489688050948098"
      ]
    },
    {
      "x": 310,
      "y": 302,
      "size": 1,
      "price": "4683000000000000000000",
      "reserved": "",
      "salt": "0xc281b1e8f72d8de688e4665ad4ddaab0cf86f1ae9feb6a8b174ca83710357ce7",
      "assetIds": [
        "55464657044963196816950587289035428064568320970692304673817341489688050948103",
        "55464657044963196816950587289035428064568320970692304673817341489688050948099",
        "55464657044963196816950587289035428064568320970692304673817341489688050948096",
        "55464657044963196816950587289035428064568320970692304673817341489688050948098"
      ]
    },
    {
      "x": 310,
      "y": 303,
      "size": 1,
      "price": "4683000000000000000000",
      "reserved": "",
      "salt": "0xc17025e65f461ece3c90e1df1eaee4afc2d44f3734b43fa752018a2dbe0c59f0",
      "assetIds": [
        "55464657044963196816950587289035428064568320970692304673817341489688050948104",
        "55464657044963196816950587289035428064568320970692304673817341489688050948102",
        "55464657044963196816950587289035428064568320970692304673817341489688050948096",
        "55464657044963196816950587289035428064568320970692304673817341489688050948097"
      ]
    },
    {
      "x": 310,
      "y": 304,
      "size": 1,
      "price": "4683000000000000000000",
      "reserved": "",
      "salt": "0x2a6c3616e7603a9cd69fe1741846435856ae95ec90e1314ce17158c983172096",
      "assetIds": [
        "55464657044963196816950587289035428064568320970692304673817341489688050948104",
        "55464657044963196816950587289035428064568320970692304673817341489688050948102",
        "55464657044963196816950587289035428064568320970692304673817341489688050948096",
        "55464657044963196816950587289035428064568320970692304673817341489688050948097"
      ]
    },
    {
      "x": 310,
      "y": 305,
      "size": 1,
      "price": "4683000000000000000000",
      "reserved": "",
      "salt": "0x6f6f60a7099c809762efb035f64dd625aca37cfccae45105ddaff3c893a45cce",
      "assetIds": [
        "55464657044963196816950587289035428064568320970692304673817341489688050948104",
        "55464657044963196816950587289035428064568320970692304673817341489688050948102",
        "55464657044963196816950587289035428064568320970692304673817341489688050948096",
        "55464657044963196816950587289035428064568320970692304673817341489688050948097"
      ]
    },
    {
      "x": 310,
      "y": 306,
      "size": 1,
      "price": "4683000000000000000000",
      "reserved": "",
      "salt": "0x8d84b1e098787c3647b762bb917bdeb93af4f20747bf713d1c30d45db20dbc3a",
      "assetIds": [
        "55464657044963196816950587289035428064568320970692304673817341489688050948106",
        "55464657044963196816950587289035428064568320970692304673817341489688050948101",
        "55464657044963196816950587289035428064568320970692304673817341489688050948096",
        "55464657044963196816950587289035428064568320970692304673817341489688050948098"
      ]
    },
    {
      "x": 310,
      "y": 307,
      "size": 1,
      "price": "4683000000000000000000",
      "reserved": "",
      "salt": "0x63a0859192837e4483880c03d82284881f70489351b7eb0ef1ae379156a340e0",
      "assetIds": [
        "55464657044963196816950587289035428064568320970692304673817341489688050948105",
        "55464657044963196816950587289035428064568320970692304673817341489688050948100",
        "55464657044963196816950587289035428064568320970692304673817341489688050948096",
        "55464657044963196816950587289035428064568320970692304673817341489688050948097"
      ]
    },
    {
      "x": 310,
      "y": 308,
      "size": 1,
      "price": "4683000000000000000000",
      "reserved": "",
      "salt": "0x24f500e10d8c0e8cc2919dde8934d368ab5f4a32af71eea14b16422f8d018d44",
      "assetIds": [
        "55464657044963196816950587289035428064568320970692304673817341489688050948106",
        "55464657044963196816950587289035428064568320970692304673817341489688050948101",
        "55464657044963196816950587289035428064568320970692304673817341489688050948096",
        "55464657044963196816950587289035428064568320970692304673817341489688050948098"
      ]
    },
    {
      "x": 311,
      "y": 276,
      "size": 1,
      "price": "4683000000000000000000",
      "reserved": "",
      "salt": "0x0b2a00646f3546a4a33436c1de88cc908cc1028b9ff1b95300e771b479ebd239",
      "assetIds": [
        "55464657044963196816950587289035428064568320970692304673817341489688050948103",
        "55464657044963196816950587289035428064568320970692304673817341489688050948099",
        "55464657044963196816950587289035428064568320970692304673817341489688050948096",
        "55464657044963196816950587289035428064568320970692304673817341489688050948098"
      ]
    },
    {
      "x": 311,
      "y": 277,
      "size": 1,
      "price": "4683000000000000000000",
      "reserved": "",
      "salt": "0xf9cf6bed13c014952433758654cd253dc3d636737a71bf984898851090305e4b",
      "assetIds": [
        "55464657044963196816950587289035428064568320970692304673817341489688050948106",
        "55464657044963196816950587289035428064568320970692304673817341489688050948101",
        "55464657044963196816950587289035428064568320970692304673817341489688050948096",
        "55464657044963196816950587289035428064568320970692304673817341489688050948098"
      ]
    },
    {
      "x": 311,
      "y": 278,
      "size": 1,
      "price": "4683000000000000000000",
      "reserved": "",
      "salt": "0xa6553398744f284895fd697c89d1106a43cccb526481b63eaff27a9074bcbf42",
      "assetIds": [
        "55464657044963196816950587289035428064568320970692304673817341489688050948103",
        "55464657044963196816950587289035428064568320970692304673817341489688050948099",
        "55464657044963196816950587289035428064568320970692304673817341489688050948096",
        "55464657044963196816950587289035428064568320970692304673817341489688050948098"
      ]
    },
    {
      "x": 311,
      "y": 279,
      "size": 1,
      "price": "4683000000000000000000",
      "reserved": "",
      "salt": "0xf9f731941937c1050946e5c769743c9b7df60b465ca3cbdbc03f2e20e8ec3d1a",
      "assetIds": [
        "55464657044963196816950587289035428064568320970692304673817341489688050948103",
        "55464657044963196816950587289035428064568320970692304673817341489688050948099",
        "55464657044963196816950587289035428064568320970692304673817341489688050948096",
        "55464657044963196816950587289035428064568320970692304673817341489688050948098"
      ]
    },
    {
      "x": 311,
      "y": 280,
      "size": 1,
      "price": "4683000000000000000000",
      "reserved": "",
      "salt": "0x8f436645889ff823b6125110641482bfc7c2f8a2d2c48fdc8d153ff4aeaad2be",
      "assetIds": [
        "55464657044963196816950587289035428064568320970692304673817341489688050948105",
        "55464657044963196816950587289035428064568320970692304673817341489688050948100",
        "55464657044963196816950587289035428064568320970692304673817341489688050948096",
        "55464657044963196816950587289035428064568320970692304673817341489688050948097"
      ]
    },
    {
      "x": 311,
      "y": 281,
      "size": 1,
      "price": "4683000000000000000000",
      "reserved": "",
      "salt": "0x06cfa05b488381a535336180b0705770aa9450438cf45c90fe95c7ecb7c2e782",
      "assetIds": [
        "55464657044963196816950587289035428064568320970692304673817341489688050948103",
        "55464657044963196816950587289035428064568320970692304673817341489688050948099",
        "55464657044963196816950587289035428064568320970692304673817341489688050948096",
        "55464657044963196816950587289035428064568320970692304673817341489688050948098"
      ]
    },
    {
      "x": 311,
      "y": 300,
      "size": 1,
      "price": "4683000000000000000000",
      "reserved": "",
      "salt": "0x3bb8d986ef7cda4fe28ca8ef3244fd3eeedc001fdc6861bd38f3618a0a8ae35d",
      "assetIds": [
        "55464657044963196816950587289035428064568320970692304673817341489688050948106",
        "55464657044963196816950587289035428064568320970692304673817341489688050948101",
        "55464657044963196816950587289035428064568320970692304673817341489688050948096",
        "55464657044963196816950587289035428064568320970692304673817341489688050948098"
      ]
    },
    {
      "x": 311,
      "y": 301,
      "size": 1,
      "price": "4683000000000000000000",
      "reserved": "",
      "salt": "0xd785ba9dd9e44bfdcb7f99307d1af554bc46c9af16dd2c2ec99b2051da8af7ec",
      "assetIds": [
        "55464657044963196816950587289035428064568320970692304673817341489688050948103",
        "55464657044963196816950587289035428064568320970692304673817341489688050948099",
        "55464657044963196816950587289035428064568320970692304673817341489688050948096",
        "55464657044963196816950587289035428064568320970692304673817341489688050948098"
      ]
    },
    {
      "x": 311,
      "y": 302,
      "size": 1,
      "price": "4683000000000000000000",
      "reserved": "",
      "salt": "0x0aae50ce138b1b7b02154bed8927c795cac8ab1a80987a645defbc81b8a7b761",
      "assetIds": [
        "55464657044963196816950587289035428064568320970692304673817341489688050948105",
        "55464657044963196816950587289035428064568320970692304673817341489688050948100",
        "55464657044963196816950587289035428064568320970692304673817341489688050948096",
        "55464657044963196816950587289035428064568320970692304673817341489688050948097"
      ]
    },
    {
      "x": 311,
      "y": 303,
      "size": 1,
      "price": "4683000000000000000000",
      "reserved": "",
      "salt": "0xcd8c95884378c0d8659afacf1e501d4ea10beaf2a1286ceb46abd3e5ace2a7be",
      "assetIds": [
        "55464657044963196816950587289035428064568320970692304673817341489688050948106",
        "55464657044963196816950587289035428064568320970692304673817341489688050948101",
        "55464657044963196816950587289035428064568320970692304673817341489688050948096",
        "55464657044963196816950587289035428064568320970692304673817341489688050948098"
      ]
    },
    {
      "x": 311,
      "y": 304,
      "size": 1,
      "price": "4683000000000000000000",
      "reserved": "",
      "salt": "0xb1dfc8b3559dabaafdcb7657a1e4e4a844fe163f4cd1f7a63437d8d470bb0174",
      "assetIds": [
        "55464657044963196816950587289035428064568320970692304673817341489688050948103",
        "55464657044963196816950587289035428064568320970692304673817341489688050948099",
        "55464657044963196816950587289035428064568320970692304673817341489688050948096",
        "55464657044963196816950587289035428064568320970692304673817341489688050948098"
      ]
    },
    {
      "x": 311,
      "y": 305,
      "size": 1,
      "price": "4683000000000000000000",
      "reserved": "",
      "salt": "0xb82538a7aad09edb6ebe04e450fe4645b9819b0df9187776f15bf4a3e88a2495",
      "assetIds": [
        "55464657044963196816950587289035428064568320970692304673817341489688050948106",
        "55464657044963196816950587289035428064568320970692304673817341489688050948101",
        "55464657044963196816950587289035428064568320970692304673817341489688050948096",
        "55464657044963196816950587289035428064568320970692304673817341489688050948098"
      ]
    },
    {
      "x": 311,
      "y": 306,
      "size": 1,
      "price": "4683000000000000000000",
      "reserved": "",
      "salt": "0x249c1a5a43d5013029b627a47464df0d16b7072314eac60f16957e4956c7272f",
      "assetIds": [
        "55464657044963196816950587289035428064568320970692304673817341489688050948106",
        "55464657044963196816950587289035428064568320970692304673817341489688050948101",
        "55464657044963196816950587289035428064568320970692304673817341489688050948096",
        "55464657044963196816950587289035428064568320970692304673817341489688050948098"
      ]
    },
    {
      "x": 311,
      "y": 307,
      "size": 1,
      "price": "4683000000000000000000",
      "reserved": "",
      "salt": "0x20925f38e6d37c8b486a6ffd6e492534a368fe55995ddeae5e89c16003c21401",
      "assetIds": [
        "55464657044963196816950587289035428064568320970692304673817341489688050948104",
        "55464657044963196816950587289035428064568320970692304673817341489688050948102",
        "55464657044963196816950587289035428064568320970692304673817341489688050948096",
        "55464657044963196816950587289035428064568320970692304673817341489688050948097"
      ]
    },
    {
      "x": 311,
      "y": 308,
      "size": 1,
      "price": "4683000000000000000000",
      "reserved": "",
      "salt": "0x63d58b4aca6741f6b6c3718a7bbb7b4e9918afda6ac782cad807d229ca6c78c2",
      "assetIds": [
        "55464657044963196816950587289035428064568320970692304673817341489688050948103",
        "55464657044963196816950587289035428064568320970692304673817341489688050948099",
        "55464657044963196816950587289035428064568320970692304673817341489688050948096",
        "55464657044963196816950587289035428064568320970692304673817341489688050948098"
      ]
    },
    {
      "x": 312,
      "y": 282,
      "size": 1,
      "price": "4683000000000000000000",
      "reserved": "",
      "salt": "0x94c9ebb949c1920230d5618448853d026bea072f6c7be636bf9163a1fab9cfad",
      "assetIds": [
        "55464657044963196816950587289035428064568320970692304673817341489688050948105",
        "55464657044963196816950587289035428064568320970692304673817341489688050948100",
        "55464657044963196816950587289035428064568320970692304673817341489688050948096",
        "55464657044963196816950587289035428064568320970692304673817341489688050948097"
      ]
    },
    {
      "x": 312,
      "y": 283,
      "size": 1,
      "price": "4683000000000000000000",
      "reserved": "",
      "salt": "0x2df84d42471dbe228e60870ef003cf7db28d452ea4e271b5171e050fe7803607",
      "assetIds": [
        "55464657044963196816950587289035428064568320970692304673817341489688050948103",
        "55464657044963196816950587289035428064568320970692304673817341489688050948099",
        "55464657044963196816950587289035428064568320970692304673817341489688050948096",
        "55464657044963196816950587289035428064568320970692304673817341489688050948098"
      ]
    },
    {
      "x": 312,
      "y": 284,
      "size": 1,
      "price": "4683000000000000000000",
      "reserved": "",
      "salt": "0xd31e7cf2fcf5dec9baa74c8a9af200b7a11f47a946cc38ba8726b1a55038ecb5",
      "assetIds": [
        "55464657044963196816950587289035428064568320970692304673817341489688050948105",
        "55464657044963196816950587289035428064568320970692304673817341489688050948100",
        "55464657044963196816950587289035428064568320970692304673817341489688050948096",
        "55464657044963196816950587289035428064568320970692304673817341489688050948097"
      ]
    },
    {
      "x": 312,
      "y": 285,
      "size": 1,
      "price": "4683000000000000000000",
      "reserved": "",
      "salt": "0x1910e82f6048e762162dd96d1bb6fe1642de93a38235881145a9818624854967",
      "assetIds": [
        "55464657044963196816950587289035428064568320970692304673817341489688050948105",
        "55464657044963196816950587289035428064568320970692304673817341489688050948100",
        "55464657044963196816950587289035428064568320970692304673817341489688050948096",
        "55464657044963196816950587289035428064568320970692304673817341489688050948097"
      ]
    },
    {
      "x": 312,
      "y": 286,
      "size": 1,
      "price": "4683000000000000000000",
      "reserved": "",
      "salt": "0x097470c1afd1416ca7c050f74813ebeb8486bf27b9f4aa0b8757a2a58c68f569",
      "assetIds": [
        "55464657044963196816950587289035428064568320970692304673817341489688050948106",
        "55464657044963196816950587289035428064568320970692304673817341489688050948101",
        "55464657044963196816950587289035428064568320970692304673817341489688050948096",
        "55464657044963196816950587289035428064568320970692304673817341489688050948098"
      ]
    },
    {
      "x": 312,
      "y": 287,
      "size": 1,
      "price": "4683000000000000000000",
      "reserved": "",
      "salt": "0xb74e89c00fa64b6446d8d5d4f9a7e859eeca3a14b58c190077c967c69b6916e6",
      "assetIds": [
        "55464657044963196816950587289035428064568320970692304673817341489688050948103",
        "55464657044963196816950587289035428064568320970692304673817341489688050948099",
        "55464657044963196816950587289035428064568320970692304673817341489688050948096",
        "55464657044963196816950587289035428064568320970692304673817341489688050948098"
      ]
    },
    {
      "x": 312,
      "y": 288,
      "size": 1,
      "price": "4683000000000000000000",
      "reserved": "",
      "salt": "0x531603397ec6a889cee2415a0b263c0e10ae61bd44b847697eb1bb45e6e73160",
      "assetIds": [
        "55464657044963196816950587289035428064568320970692304673817341489688050948105",
        "55464657044963196816950587289035428064568320970692304673817341489688050948100",
        "55464657044963196816950587289035428064568320970692304673817341489688050948096",
        "55464657044963196816950587289035428064568320970692304673817341489688050948097"
      ]
    },
    {
      "x": 312,
      "y": 289,
      "size": 1,
      "price": "4683000000000000000000",
      "reserved": "",
      "salt": "0x70db2b863fd1982adec3293560fd0edd05aaefbd23547116409fed3105b3215e",
      "assetIds": [
        "55464657044963196816950587289035428064568320970692304673817341489688050948106",
        "55464657044963196816950587289035428064568320970692304673817341489688050948101",
        "55464657044963196816950587289035428064568320970692304673817341489688050948096",
        "55464657044963196816950587289035428064568320970692304673817341489688050948098"
      ]
    },
    {
      "x": 312,
      "y": 290,
      "size": 1,
      "price": "4683000000000000000000",
      "reserved": "",
      "salt": "0x561d409f1da820c274454a17aa103eeb8e8b989cad3660e7636b58f831dd90f3",
      "assetIds": [
        "55464657044963196816950587289035428064568320970692304673817341489688050948105",
        "55464657044963196816950587289035428064568320970692304673817341489688050948100",
        "55464657044963196816950587289035428064568320970692304673817341489688050948096",
        "55464657044963196816950587289035428064568320970692304673817341489688050948097"
      ]
    },
    {
      "x": 312,
      "y": 291,
      "size": 1,
      "price": "4683000000000000000000",
      "reserved": "",
      "salt": "0xec56f065cbd517d81f404d2d3bceb7c1c6a84c6678869729281fd4a1815b05f7",
      "assetIds": [
        "55464657044963196816950587289035428064568320970692304673817341489688050948106",
        "55464657044963196816950587289035428064568320970692304673817341489688050948101",
        "55464657044963196816950587289035428064568320970692304673817341489688050948096",
        "55464657044963196816950587289035428064568320970692304673817341489688050948098"
      ]
    },
    {
      "x": 312,
      "y": 292,
      "size": 1,
      "price": "4683000000000000000000",
      "reserved": "",
      "salt": "0xf0fd5864e6bff25ec9f267088d2ad90dc59b0c15b2754eecb8c725ad5d09c13a",
      "assetIds": [
        "55464657044963196816950587289035428064568320970692304673817341489688050948106",
        "55464657044963196816950587289035428064568320970692304673817341489688050948101",
        "55464657044963196816950587289035428064568320970692304673817341489688050948096",
        "55464657044963196816950587289035428064568320970692304673817341489688050948098"
      ]
    },
    {
      "x": 312,
      "y": 293,
      "size": 1,
      "price": "4683000000000000000000",
      "reserved": "",
      "salt": "0xf08e7f45ee8e015f8ca5452e8c38755fbc973e92a6ec38e8fa81992bf13b5304",
      "assetIds": [
        "55464657044963196816950587289035428064568320970692304673817341489688050948104",
        "55464657044963196816950587289035428064568320970692304673817341489688050948102",
        "55464657044963196816950587289035428064568320970692304673817341489688050948096",
        "55464657044963196816950587289035428064568320970692304673817341489688050948097"
      ]
    },
    {
      "x": 313,
      "y": 282,
      "size": 1,
      "price": "4683000000000000000000",
      "reserved": "",
      "salt": "0x45de15840a5d5b65760857a7bc8030b390a797cb6231ed930d5ec8c385b18895",
      "assetIds": [
        "55464657044963196816950587289035428064568320970692304673817341489688050948103",
        "55464657044963196816950587289035428064568320970692304673817341489688050948099",
        "55464657044963196816950587289035428064568320970692304673817341489688050948096",
        "55464657044963196816950587289035428064568320970692304673817341489688050948098"
      ]
    },
    {
      "x": 313,
      "y": 283,
      "size": 1,
      "price": "4683000000000000000000",
      "reserved": "",
      "salt": "0x6fb70fab0ea7367fe8c217878d715146e5bfa42c2800b8f8bd39487b377d2ac0",
      "assetIds": [
        "55464657044963196816950587289035428064568320970692304673817341489688050948103",
        "55464657044963196816950587289035428064568320970692304673817341489688050948099",
        "55464657044963196816950587289035428064568320970692304673817341489688050948096",
        "55464657044963196816950587289035428064568320970692304673817341489688050948098"
      ]
    },
    {
      "x": 313,
      "y": 284,
      "size": 1,
      "price": "1011000000000000000000",
      "reserved": "0x7a9fe22691c811ea339d9b73150e6911a5343dca",
      "salt": "0xd2e9b54522b30291863753b45e657454f2401f8b15f3f03aac6e80d4951c3875",
      "assetIds": []
    },
    {
      "x": 313,
      "y": 285,
      "size": 1,
      "price": "1011000000000000000000",
      "reserved": "",
      "salt": "0xa39896bbc8343b86cd77e2e38596733a1a531b2a48b010451812a71efd4d5d46",
      "assetIds": []
    },
    {
      "x": 313,
      "y": 286,
      "size": 1,
      "price": "1011000000000000000000",
      "reserved": "",
      "salt": "0xb0c9a4f67929910dac8b7f149194378cdfabe8ae3e41a757b9bc7adc879712fd",
      "assetIds": []
    },
    {
      "x": 313,
      "y": 287,
      "size": 1,
      "price": "1011000000000000000000",
      "reserved": "",
      "salt": "0x7c7e38fb7c24d0b6a0d5acc62bc04f96e37df18cc91e9155ef3e0ea15781b119",
      "assetIds": []
    },
    {
      "x": 313,
      "y": 288,
      "size": 1,
      "price": "1011000000000000000000",
      "reserved": "0x7a9fe22691c811ea339d9b73150e6911a5343dca",
      "salt": "0x60e51d25b40752cd1f70e2549863e89f803d603eae1ba0053e1ed8f625e422ec",
      "assetIds": []
    },
    {
      "x": 313,
      "y": 289,
      "size": 1,
      "price": "1011000000000000000000",
      "reserved": "",
      "salt": "0x1209afee2cc6f89749ba8e58ad663969b7d2f0d7c650ff00bee97ab36ffd59ef",
      "assetIds": []
    },
    {
      "x": 313,
      "y": 290,
      "size": 1,
      "price": "1011000000000000000000",
      "reserved": "",
      "salt": "0x12bb5a7f8b2218e286cd1dc4f3211d20de183ef7c21368ed50c8ba41d0a79c31",
      "assetIds": []
    },
    {
      "x": 313,
      "y": 291,
      "size": 1,
      "price": "1011000000000000000000",
      "reserved": "",
      "salt": "0x24b32712931d9bbd839448993978fc6bd944c333d4a43f4b6ad2298c4306c002",
      "assetIds": []
    },
    {
      "x": 313,
      "y": 292,
      "size": 1,
      "price": "1011000000000000000000",
      "reserved": "",
      "salt": "0x58835e92354178b2677e47b4dccd678121dbf37fbc3db2e713c4496acf6affad",
      "assetIds": []
    },
    {
      "x": 313,
      "y": 293,
      "size": 1,
      "price": "1011000000000000000000",
      "reserved": "0x7a9fe22691c811ea339d9b73150e6911a5343dca",
      "salt": "0xbbb1477740d83138843d9b1c61d8a690931ba2de331621109ea776ca7381585a",
      "assetIds": []
    },
    {
      "x": 314,
      "y": 282,
      "size": 1,
      "price": "4683000000000000000000",
      "reserved": "",
      "salt": "0x3fcbcd02b9bc99460e91a5f9272f9990fd48b6dd89d2ae59c6511ebfc4b73b35",
      "assetIds": [
        "55464657044963196816950587289035428064568320970692304673817341489688050948106",
        "55464657044963196816950587289035428064568320970692304673817341489688050948101",
        "55464657044963196816950587289035428064568320970692304673817341489688050948096",
        "55464657044963196816950587289035428064568320970692304673817341489688050948098"
      ]
    },
    {
      "x": 314,
      "y": 283,
      "size": 1,
      "price": "1011000000000000000000",
      "reserved": "0x7a9fe22691c811ea339d9b73150e6911a5343dca",
      "salt": "0x12752d83d592b8a03a7a918cd5d5eb847ab98d603b47fe5f08abdce8441f7ac7",
      "assetIds": []
    },
    {
      "x": 314,
      "y": 284,
      "size": 1,
      "price": "1011000000000000000000",
      "reserved": "",
      "salt": "0xaa564878b43a9005486bad163e092a5efc063cb8294b8cd2b98c66e669f469f2",
      "assetIds": []
    },
    {
      "x": 314,
      "y": 285,
      "size": 1,
      "price": "1011000000000000000000",
      "reserved": "",
      "salt": "0xb7e9d3625d4d5c956c4ae45c5c8d63bbf5e55ad91dab79de71f04889ee8b47d3",
      "assetIds": []
    },
    {
      "x": 314,
      "y": 286,
      "size": 1,
      "price": "1011000000000000000000",
      "reserved": "",
      "salt": "0xed6c87730d994a6ae6b1acf80cf78bd8ef791297020f653f7acbd2971dcc8669",
      "assetIds": []
    },
    {
      "x": 314,
      "y": 287,
      "size": 1,
      "price": "1011000000000000000000",
      "reserved": "",
      "salt": "0xb0bf8fb3cc8d3b1241846b91b140851cddaa75e771c60163027ca20beac811a5",
      "assetIds": []
    },
    {
      "x": 314,
      "y": 288,
      "size": 1,
      "price": "1011000000000000000000",
      "reserved": "",
      "salt": "0x3e23d735edc763193bd4031fa6c39b3701eb58e2ceb19ffff82de7e989883284",
      "assetIds": []
    },
    {
      "x": 314,
      "y": 289,
      "size": 1,
      "price": "1011000000000000000000",
      "reserved": "",
      "salt": "0x62aed5651040cc60ce6ba21fc3d7ef07c18941c389f61328879497c394d0f123",
      "assetIds": []
    },
    {
      "x": 314,
      "y": 290,
      "size": 1,
      "price": "1011000000000000000000",
      "reserved": "",
      "salt": "0xc3dfdbcf60d51d2f77ece1ef0dd1138db725849499259220cc72a4976a0857a6",
      "assetIds": []
    },
    {
      "x": 314,
      "y": 291,
      "size": 1,
      "price": "1011000000000000000000",
      "reserved": "",
      "salt": "0xe444a82854b0e6405e5fcece20da66e1627f51bd1d3defdda0753bce16154d1d",
      "assetIds": []
    },
    {
      "x": 314,
      "y": 292,
      "size": 1,
      "price": "1011000000000000000000",
      "reserved": "",
      "salt": "0x2bf13be0ba812e6611cc1dd0da108c6f2cb36917f52af60251a727d0238e9a3a",
      "assetIds": []
    },
    {
      "x": 314,
      "y": 293,
      "size": 1,
      "price": "1011000000000000000000",
      "reserved": "",
      "salt": "0x2bf852d133ac57f26cc6a604353abc18e56e2776b81c89b21a7a265aff6f07a0",
      "assetIds": []
    },
    {
      "x": 315,
      "y": 282,
      "size": 1,
      "price": "4683000000000000000000",
      "reserved": "",
      "salt": "0x7a8cbe0c808e519b98436f47857afb971ed64f10828ad2a24e5ebd3e6338bc9a",
      "assetIds": [
        "55464657044963196816950587289035428064568320970692304673817341489688050948106",
        "55464657044963196816950587289035428064568320970692304673817341489688050948101",
        "55464657044963196816950587289035428064568320970692304673817341489688050948096",
        "55464657044963196816950587289035428064568320970692304673817341489688050948098"
      ]
    },
    {
      "x": 315,
      "y": 283,
      "size": 1,
      "price": "1011000000000000000000",
      "reserved": "",
      "salt": "0x30bd97b0d7b034b088732a3e1c25d24931732d62b3c9d25d410ada579c4aa15c",
      "assetIds": []
    },
    {
      "x": 315,
      "y": 284,
      "size": 1,
      "price": "1011000000000000000000",
      "reserved": "",
      "salt": "0x54abe5092a8327949ffec836b68584e05c47a965330729037a99a20f3649331a",
      "assetIds": []
    },
    {
      "x": 315,
      "y": 285,
      "size": 1,
      "price": "1011000000000000000000",
      "reserved": "",
      "salt": "0x9e488d7467459926eeec80592e33e2d193d6a702aec28461950544e40283c6da",
      "assetIds": []
    },
    {
      "x": 315,
      "y": 286,
      "size": 1,
      "price": "1011000000000000000000",
      "reserved": "0x7a9fe22691c811ea339d9b73150e6911a5343dca",
      "salt": "0x23812eb789f186fbb29a937007387187d6290d42ab0a48eace8fb053cd47c049",
      "assetIds": []
    },
    {
      "x": 315,
      "y": 287,
      "size": 1,
      "price": "1011000000000000000000",
      "reserved": "",
      "salt": "0x104fc7195e60d272a2119006317f26684628572354f81ef306ea2ef2474005bd",
      "assetIds": []
    },
    {
      "x": 315,
      "y": 288,
      "size": 1,
      "price": "1011000000000000000000",
      "reserved": "",
      "salt": "0x5eab65981ca602855e6ef6023287089e0c3b99fc66868f2d9f62b0010145d768",
      "assetIds": []
    },
    {
      "x": 315,
      "y": 289,
      "size": 1,
      "price": "1011000000000000000000",
      "reserved": "0x7a9fe22691c811ea339d9b73150e6911a5343dca",
      "salt": "0x261c346f36598e35c0abab5da5dc78ab525c43b8b64027f39e295df1aff6069e",
      "assetIds": []
    },
    {
      "x": 315,
      "y": 290,
      "size": 1,
      "price": "1011000000000000000000",
      "reserved": "",
      "salt": "0x07e7a3e39d57cd6272193d195ca7638ed7d47d810cb7e545e83981c30b3f25cd",
      "assetIds": []
    },
    {
      "x": 315,
      "y": 291,
      "size": 1,
      "price": "1011000000000000000000",
      "reserved": "",
      "salt": "0x7be6eacffdac5394164838d3507a4e769ea47616ceb3e4f0a90a5b570611fd1c",
      "assetIds": []
    },
    {
      "x": 315,
      "y": 292,
      "size": 1,
      "price": "1011000000000000000000",
      "reserved": "",
      "salt": "0x30c06bb4aa5374a23888b2ff7cf4349335550af3fce83b7285aeae3d0438ccba",
      "assetIds": []
    },
    {
      "x": 315,
      "y": 293,
      "size": 1,
      "price": "1011000000000000000000",
      "reserved": "",
      "salt": "0x6dad6df87612a2e5482bf1aca634ec5eed7bd1ffea6389f85597cb77ded399e5",
      "assetIds": []
    },
    {
      "x": 316,
      "y": 282,
      "size": 1,
      "price": "4683000000000000000000",
      "reserved": "",
      "salt": "0x12ade76578c23664ccaf2b337b8b8400e27a33b009412ca4e430d600c2f42fd2",
      "assetIds": [
        "55464657044963196816950587289035428064568320970692304673817341489688050948104",
        "55464657044963196816950587289035428064568320970692304673817341489688050948102",
        "55464657044963196816950587289035428064568320970692304673817341489688050948096",
        "55464657044963196816950587289035428064568320970692304673817341489688050948097"
      ]
    },
    {
      "x": 316,
      "y": 283,
      "size": 1,
      "price": "1011000000000000000000",
      "reserved": "0x7a9fe22691c811ea339d9b73150e6911a5343dca",
      "salt": "0xc1d2105510c7b9d393aa836957c8d71a570fa15e86794f9f4b9bd32a153fbd2f",
      "assetIds": []
    },
    {
      "x": 316,
      "y": 284,
      "size": 1,
      "price": "1011000000000000000000",
      "reserved": "",
      "salt": "0x55ecd8b1660a1e894e3f5fddeec9debcd99cf0f4cf6823564c6ffb1ab088b7a7",
      "assetIds": []
    },
    {
      "x": 316,
      "y": 285,
      "size": 1,
      "price": "1011000000000000000000",
      "reserved": "",
      "salt": "0x63460c8e2f1c180f71da62266d62b670fc0c51ebc6ecdd09516bd33aa825d8f7",
      "assetIds": []
    },
    {
      "x": 316,
      "y": 286,
      "size": 1,
      "price": "1011000000000000000000",
      "reserved": "",
      "salt": "0x51fe117218ec9d6837aa3b3f9df4f3d614ae76754bb643e84c5a3413aa733c6b",
      "assetIds": []
    },
    {
      "x": 316,
      "y": 287,
      "size": 1,
      "price": "1011000000000000000000",
      "reserved": "",
      "salt": "0xde8ab8490af9d96be39db07f0e99508b8328aebbfc9f95719bc833d3dd35ddcd",
      "assetIds": []
    },
    {
      "x": 316,
      "y": 288,
      "size": 1,
      "price": "1011000000000000000000",
      "reserved": "",
      "salt": "0xc1f1dd067c76758708d3f6380483ef99fcd25a82414f0d6ae22a9448251ca096",
      "assetIds": []
    },
    {
      "x": 316,
      "y": 289,
      "size": 1,
      "price": "1011000000000000000000",
      "reserved": "",
      "salt": "0xb95a3041c77284f2a7bcedf2c5eb57cdb49870749c4c19974116b642de3292c8",
      "assetIds": []
    },
    {
      "x": 316,
      "y": 290,
      "size": 1,
      "price": "1011000000000000000000",
      "reserved": "",
      "salt": "0x3eb18cf1ac1bf50290324e6f3b53f02b642ad94f447d60a01098b6834e211f5b",
      "assetIds": []
    },
    {
      "x": 316,
      "y": 291,
      "size": 1,
      "price": "1011000000000000000000",
      "reserved": "",
      "salt": "0xd52abbf70fc8e7c93bab44a08ee9b55bbacd992ba41fe33fcbf755692d438dd9",
      "assetIds": []
    },
    {
      "x": 316,
      "y": 292,
      "size": 1,
      "price": "1011000000000000000000",
      "reserved": "",
      "salt": "0xbfde8a4a19787397432800c876867560d77f67bd912b5d013704e31f9e8e60c7",
      "assetIds": []
    },
    {
      "x": 316,
      "y": 293,
      "size": 1,
      "price": "1011000000000000000000",
      "reserved": "",
      "salt": "0x10c77148cdb86523aeddc49260dc31150207e520146c91707eec52ca70006726",
      "assetIds": []
    },
    {
      "x": 317,
      "y": 282,
      "size": 1,
      "price": "4683000000000000000000",
      "reserved": "",
      "salt": "0x48afd6009c6c396ea9436030358265dc1b374e968e13777b81cb499c393c745e",
      "assetIds": [
        "55464657044963196816950587289035428064568320970692304673817341489688050948104",
        "55464657044963196816950587289035428064568320970692304673817341489688050948102",
        "55464657044963196816950587289035428064568320970692304673817341489688050948096",
        "55464657044963196816950587289035428064568320970692304673817341489688050948097"
      ]
    },
    {
      "x": 317,
      "y": 283,
      "size": 1,
      "price": "1011000000000000000000",
      "reserved": "",
      "salt": "0xc7053ce6511e50dd24a27f27d03fc7db15c38e8873fee492068cc25a48c32e78",
      "assetIds": []
    },
    {
      "x": 317,
      "y": 284,
      "size": 1,
      "price": "1011000000000000000000",
      "reserved": "",
      "salt": "0xa15e83cec328c5fd5f359bd835154c0122a1905b6dacc46862bb1d337fb15bfd",
      "assetIds": []
    },
    {
      "x": 317,
      "y": 285,
      "size": 1,
      "price": "1011000000000000000000",
      "reserved": "",
      "salt": "0x5d24c3af5cc8adf82afea8cc1553f10a19cea533bca01d45c6891c142a9f1a34",
      "assetIds": []
    },
    {
      "x": 317,
      "y": 286,
      "size": 1,
      "price": "1011000000000000000000",
      "reserved": "",
      "salt": "0x5802bd9c88a33fbc0da5c276f46e1153c9f48b4819002f50925929ceb662a708",
      "assetIds": []
    },
    {
      "x": 317,
      "y": 287,
      "size": 1,
      "price": "1011000000000000000000",
      "reserved": "",
      "salt": "0x6fe6e11f971e28eec5494eccf8b84eb0d791209876a1f40295eebe2f8b77dceb",
      "assetIds": []
    },
    {
      "x": 317,
      "y": 288,
      "size": 1,
      "price": "1011000000000000000000",
      "reserved": "0x7a9fe22691c811ea339d9b73150e6911a5343dca",
      "salt": "0xa79d7ec90cbdb6b0747d4f59922a4739d5e06560c7363b2c2c84a9d134dae683",
      "assetIds": []
    },
    {
      "x": 317,
      "y": 289,
      "size": 1,
      "price": "1011000000000000000000",
      "reserved": "",
      "salt": "0xced0762d340c28e57c2b9a671c205632717c81b709045c248e13ffe1cb796cd9",
      "assetIds": []
    },
    {
      "x": 317,
      "y": 290,
      "size": 1,
      "price": "1011000000000000000000",
      "reserved": "",
      "salt": "0xcf4b78ab25edb92a3bdf3839354b0b090fa476c508dcd2fc4d5481ab2c237e8f",
      "assetIds": []
    },
    {
      "x": 317,
      "y": 291,
      "size": 1,
      "price": "1011000000000000000000",
      "reserved": "0x7a9fe22691c811ea339d9b73150e6911a5343dca",
      "salt": "0x25e4cab61d2d3d46e06ae085a490b6f809a324d7ced7432c7df9f941a725d8ca",
      "assetIds": []
    },
    {
      "x": 317,
      "y": 292,
      "size": 1,
      "price": "1011000000000000000000",
      "reserved": "",
      "salt": "0x14fd4051d877b87b61550e45536f6db01905853b9bebaf6eaf016a66250e8096",
      "assetIds": []
    },
    {
      "x": 317,
      "y": 293,
      "size": 1,
      "price": "1011000000000000000000",
      "reserved": "",
      "salt": "0x8a7d49b0be4a40aca51290e9d689623a01ff9dffd8dc37cb42808e46576eeb84",
      "assetIds": []
    },
    {
      "x": 318,
      "y": 282,
      "size": 1,
      "price": "1011000000000000000000",
      "reserved": "",
      "salt": "0x206860411b8b037e40b0a72cd164baf81beefce373b0800ceac275aa452b2c53",
      "assetIds": []
    },
    {
      "x": 318,
      "y": 283,
      "size": 1,
      "price": "1011000000000000000000",
      "reserved": "",
      "salt": "0xbb4b66b436082adf752b0048c156ca50fb72c4d61b3b1f89f48f499221c93846",
      "assetIds": []
    },
    {
      "x": 318,
      "y": 284,
      "size": 1,
      "price": "1011000000000000000000",
      "reserved": "",
      "salt": "0x285892845e2f1f151653baed8e0de76232ea59c17e042cbdb79b4d21a3e0c5c0",
      "assetIds": []
    },
    {
      "x": 318,
      "y": 285,
      "size": 1,
      "price": "1011000000000000000000",
      "reserved": "",
      "salt": "0xc71db29cc8e32b795fcbd289b91936c5dccdefaaf6de9a4575c37d846f05faa3",
      "assetIds": []
    },
    {
      "x": 318,
      "y": 286,
      "size": 1,
      "price": "1011000000000000000000",
      "reserved": "0x7a9fe22691c811ea339d9b73150e6911a5343dca",
      "salt": "0x431f96e6edd3589a3cca54b775c07082d14260624e82c63f3b722eaca7377b92",
      "assetIds": []
    },
    {
      "x": 318,
      "y": 287,
      "size": 1,
      "price": "1011000000000000000000",
      "reserved": "",
      "salt": "0x1eab3e78cff2a5eacc5c296bae3629e2355e9bdedf0de3098f7a3285c21afbfe",
      "assetIds": []
    },
    {
      "x": 318,
      "y": 288,
      "size": 1,
      "price": "1011000000000000000000",
      "reserved": "",
      "salt": "0x37561210d1fd37a8603244d331f99cb7f733cc2f26ca8d4407fe863a0677e4bd",
      "assetIds": []
    },
    {
      "x": 318,
      "y": 289,
      "size": 1,
      "price": "1011000000000000000000",
      "reserved": "",
      "salt": "0x4a878a19ecaa4900a4058631c278a951ace7928a9244c9071e81ac1e1acc01c5",
      "assetIds": []
    },
    {
      "x": 318,
      "y": 290,
      "size": 1,
      "price": "1011000000000000000000",
      "reserved": "",
      "salt": "0xcba1fa3d31b31abba6b8db46c8543c62ee9e699479c33e305b9e379adc414d21",
      "assetIds": []
    },
    {
      "x": 318,
      "y": 291,
      "size": 1,
      "price": "1011000000000000000000",
      "reserved": "",
      "salt": "0xef86bdb8c6bfda96eec4edebbe3e4f3adb9f24f64882cf764df9a31db83a3576",
      "assetIds": []
    },
    {
      "x": 318,
      "y": 292,
      "size": 1,
      "price": "1011000000000000000000",
      "reserved": "",
      "salt": "0xe4b0587e40864796d364ad480743cea710dcf82acab694362e368802507fdbce",
      "assetIds": []
    },
    {
      "x": 318,
      "y": 293,
      "size": 1,
      "price": "1011000000000000000000",
      "reserved": "",
      "salt": "0x2b03ad74ee92714277388ee0baefe457c4beccc1382b90f5fbde029d40899988",
      "assetIds": []
    },
    {
      "x": 319,
      "y": 282,
      "size": 1,
      "price": "1011000000000000000000",
      "reserved": "",
      "salt": "0xfe0c8412135fc6225fdeb2cd73a11fa0175333eebb0ee8233cb1efef680250d7",
      "assetIds": []
    },
    {
      "x": 319,
      "y": 283,
      "size": 1,
      "price": "1011000000000000000000",
      "reserved": "",
      "salt": "0xcd191776acf1eabb8628cdaed411dba8ab18d9c938e0ab02fa14c3d81d7a1f15",
      "assetIds": []
    },
    {
      "x": 319,
      "y": 284,
      "size": 1,
      "price": "1011000000000000000000",
      "reserved": "",
      "salt": "0x6b21f3a24915e6a1da92f63a1400ddfda0d64ea935ea360621cc6998ebd1e971",
      "assetIds": []
    },
    {
      "x": 319,
      "y": 285,
      "size": 1,
      "price": "1011000000000000000000",
      "reserved": "",
      "salt": "0x8db357bac43c6abf5751c2015f6ce0120f2279fcedae3db030b82f5b352280ac",
      "assetIds": []
    },
    {
      "x": 319,
      "y": 286,
      "size": 1,
      "price": "1011000000000000000000",
      "reserved": "",
      "salt": "0x7002dac1c0544602698605f41a8ad6a3f798f9e5fe4c16ed7dafa3d8177fdf57",
      "assetIds": []
    },
    {
      "x": 319,
      "y": 287,
      "size": 1,
      "price": "1011000000000000000000",
      "reserved": "",
      "salt": "0x868fdd0870a34b038520c6af9b65b1971c286a65d186508025c70c75312accd5",
      "assetIds": []
    },
    {
      "x": 319,
      "y": 288,
      "size": 1,
      "price": "1011000000000000000000",
      "reserved": "",
      "salt": "0x38aa1e6be8505370415ef85f460ef178129e4ddf66106b0a86cdc8b1f5fec609",
      "assetIds": []
    },
    {
      "x": 319,
      "y": 289,
      "size": 1,
      "price": "1011000000000000000000",
      "reserved": "",
      "salt": "0xcee4a040fbb65ba668b5d3d9d1b51dbc6545ceed86869262b4a85454b70c87ef",
      "assetIds": []
    },
    {
      "x": 319,
      "y": 290,
      "size": 1,
      "price": "1011000000000000000000",
      "reserved": "",
      "salt": "0xe845987c2c458438408e88b693f0120a764ccb86308fb04508bc506917c9fd75",
      "assetIds": []
    },
    {
      "x": 319,
      "y": 291,
      "size": 1,
      "price": "1011000000000000000000",
      "reserved": "",
      "salt": "0x887daec320c8a618b4fb97dd14e41fe4ecbcbe83c54e489d5d704027d819ac64",
      "assetIds": []
    },
    {
      "x": 319,
      "y": 292,
      "size": 1,
      "price": "1011000000000000000000",
      "reserved": "",
      "salt": "0x77b227dd302daa70313795eb954ac48c343e009fd7bcc805744372c6ff88c76c",
      "assetIds": []
    },
    {
      "x": 319,
      "y": 293,
      "size": 1,
      "price": "1011000000000000000000",
      "reserved": "",
      "salt": "0x1b531b90e9e78eb0b42e6f7ace903f2ce11ed15b729dde0416e4161b4432fc90",
      "assetIds": []
    },
    {
      "x": 320,
      "y": 282,
      "size": 1,
      "price": "1011000000000000000000",
      "reserved": "",
      "salt": "0x7088274258bf8845239b900a68bc6a7e156007d1780c9e72e071c150a48c834e",
      "assetIds": []
    },
    {
      "x": 320,
      "y": 283,
      "size": 1,
      "price": "1011000000000000000000",
      "reserved": "0x7a9fe22691c811ea339d9b73150e6911a5343dca",
      "salt": "0xcd0e69342bc47b321cbb7e980c7f4f011fd0d019d593581564b739c7e01c974c",
      "assetIds": []
    },
    {
      "x": 320,
      "y": 284,
      "size": 1,
      "price": "1011000000000000000000",
      "reserved": "",
      "salt": "0x503204c2891267f9b1d09dbe00a47f3d892d28ffdd1f0dc021238058be986597",
      "assetIds": []
    },
    {
      "x": 320,
      "y": 285,
      "size": 1,
      "price": "1011000000000000000000",
      "reserved": "0x7a9fe22691c811ea339d9b73150e6911a5343dca",
      "salt": "0xa8185f273f51b2e38499b57ed956032248621dffc417cbbaaf92c0bed7c6aca2",
      "assetIds": []
    },
    {
      "x": 320,
      "y": 286,
      "size": 1,
      "price": "1011000000000000000000",
      "reserved": "",
      "salt": "0x7ba97122ec6577ca7de62df3332d5eb5ff7536497002369392ea301c82466628",
      "assetIds": []
    },
    {
      "x": 320,
      "y": 287,
      "size": 1,
      "price": "1011000000000000000000",
      "reserved": "",
      "salt": "0xd71cd94862420d03515280a043adf9823a658b6a67ae16e216a17ea67bfb4378",
      "assetIds": []
    },
    {
      "x": 320,
      "y": 288,
      "size": 1,
      "price": "1011000000000000000000",
      "reserved": "",
      "salt": "0x41d83c88dccb70d844426208afaafaaa5b7722aa31794289f724675f3edf8369",
      "assetIds": []
    },
    {
      "x": 320,
      "y": 289,
      "size": 1,
      "price": "1011000000000000000000",
      "reserved": "",
      "salt": "0x8cab242e4ffc8a7acff39066f3fe37bef1d8a07b0f030b2205f03cb13fb2b835",
      "assetIds": []
    },
    {
      "x": 320,
      "y": 290,
      "size": 1,
      "price": "1011000000000000000000",
      "reserved": "",
      "salt": "0x602f5a1beaf719015efe2992f4354b395819e65bc265e81a0c4a1fb7eb6168d2",
      "assetIds": []
    },
    {
      "x": 320,
      "y": 291,
      "size": 1,
      "price": "1011000000000000000000",
      "reserved": "",
      "salt": "0x9d37ed8a4be54196a950e3960ddb5615d0f73c06bfb39c5fc121673f9cb0075e",
      "assetIds": []
    },
    {
      "x": 320,
      "y": 292,
      "size": 1,
      "price": "1011000000000000000000",
      "reserved": "",
      "salt": "0x6c5607779adff9b93fd8fdfb2afeb197b6654b8979bd228f41ffeffdc327add3",
      "assetIds": []
    },
    {
      "x": 320,
      "y": 293,
      "size": 1,
      "price": "1011000000000000000000",
      "reserved": "",
      "salt": "0x827f1b00a070862349c58d3cef0f2f390797cc9a2cf0792e1e65f8583ccd2ba4",
      "assetIds": []
    },
    {
      "x": 321,
      "y": 282,
      "size": 1,
      "price": "1011000000000000000000",
      "reserved": "",
      "salt": "0xf9332942fcead5f92a29a6e2fa5d30825b7d22f0fc7e3e5a68bb46145c1ade96",
      "assetIds": []
    },
    {
      "x": 321,
      "y": 283,
      "size": 1,
      "price": "1011000000000000000000",
      "reserved": "",
      "salt": "0x822e407b648dc286250398408d24d68e1c3e270645a983422c804a380cd4166c",
      "assetIds": []
    },
    {
      "x": 321,
      "y": 284,
      "size": 1,
      "price": "1011000000000000000000",
      "reserved": "",
      "salt": "0x07e8b815286c604b8a1276fc833cda35f149c2a3dba7e1a56931125d9a28ed50",
      "assetIds": []
    },
    {
      "x": 321,
      "y": 285,
      "size": 1,
      "price": "1011000000000000000000",
      "reserved": "",
      "salt": "0xd7e79308976e0c1c0f069df4443f4368282c92f37091ab3ba736a7af7532a59b",
      "assetIds": []
    },
    {
      "x": 321,
      "y": 286,
      "size": 1,
      "price": "1011000000000000000000",
      "reserved": "",
      "salt": "0x3ba5436c54e5ca12171fe8f5574ec2cf260e0cfd23a81894244a4b02fe782e37",
      "assetIds": []
    },
    {
      "x": 321,
      "y": 287,
      "size": 1,
      "price": "1011000000000000000000",
      "reserved": "",
      "salt": "0x69fc433db0efc0124b8d45e46ead933f659e6d1e873409128725f5c145457fcc",
      "assetIds": []
    },
    {
      "x": 321,
      "y": 291,
      "size": 1,
      "price": "1011000000000000000000",
      "reserved": "",
      "salt": "0xbae7e015ac7f839fdc1093894dc36c78481d7ff5bbabc659f9bfb51336f298a2",
      "assetIds": []
    },
    {
      "x": 321,
      "y": 292,
      "size": 1,
      "price": "1011000000000000000000",
      "reserved": "0x7a9fe22691c811ea339d9b73150e6911a5343dca",
      "salt": "0x62a7ccdbe903331c3035139506abf48f0e80bce43e55df79a06e47b4b4518413",
      "assetIds": []
    },
    {
      "x": 321,
      "y": 293,
      "size": 1,
      "price": "1011000000000000000000",
      "reserved": "",
      "salt": "0x92b52cf799381842b5cb252ae0be70ac7f72c6f8460f793a91e2e9721f5a4fb6",
      "assetIds": []
    },
    {
      "x": 322,
      "y": 282,
      "size": 1,
      "price": "1011000000000000000000",
      "reserved": "",
      "salt": "0xbaf793397317d175d909dc32cb143ac4377511827ae8ce330835d957796ec810",
      "assetIds": []
    },
    {
      "x": 322,
      "y": 283,
      "size": 1,
      "price": "1011000000000000000000",
      "reserved": "",
      "salt": "0xcf2fda97fdff9a6432e61b41122f925ffa8f174aacd9e15cefbc6744d184d885",
      "assetIds": []
    },
    {
      "x": 322,
      "y": 284,
      "size": 1,
      "price": "1011000000000000000000",
      "reserved": "0x7a9fe22691c811ea339d9b73150e6911a5343dca",
      "salt": "0x8322e93ea4025e841cbd55f8a185571de2fae2a06161cf554863e1210f514d8b",
      "assetIds": []
    },
    {
      "x": 322,
      "y": 285,
      "size": 1,
      "price": "1011000000000000000000",
      "reserved": "",
      "salt": "0x04e86e04da0b6ee5d16dd23271d248b09b4c83e359cfa352698a3278189f51b4",
      "assetIds": []
    },
    {
      "x": 322,
      "y": 286,
      "size": 1,
      "price": "1011000000000000000000",
      "reserved": "",
      "salt": "0x92b74cefce702578d7a31e821bf7e039c48cec66e65cb5730518fde5bb53d9b0",
      "assetIds": []
    },
    {
      "x": 322,
      "y": 287,
      "size": 1,
      "price": "1011000000000000000000",
      "reserved": "",
      "salt": "0xa969a6295502d873ff18cc6445164a698e6fe3fae0a2d81f547f1a6c0852c475",
      "assetIds": []
    },
    {
      "x": 322,
      "y": 291,
      "size": 1,
      "price": "1011000000000000000000",
      "reserved": "",
      "salt": "0x1c4d8df51175bd902cb6fcbd848230de49ab3e9d96643cf7ab550b1e4ebf923b",
      "assetIds": []
    },
    {
      "x": 322,
      "y": 292,
      "size": 1,
      "price": "1011000000000000000000",
      "reserved": "",
      "salt": "0x4125cbf3a7ffdea037ef4f23ba267003f344a04f29c7759f3009bd8324dbc54d",
      "assetIds": []
    },
    {
      "x": 322,
      "y": 293,
      "size": 1,
      "price": "1011000000000000000000",
      "reserved": "",
      "salt": "0xd8841412c62f3b21f025edce989fefb0e3d780697ac25fd5788300fabda7d569",
      "assetIds": []
    },
    {
      "x": 323,
      "y": 282,
      "size": 1,
      "price": "1011000000000000000000",
      "reserved": "",
      "salt": "0xe285abb8847d6016a30753006d5157e160bd8397c2019cbdd8581536dc1de45f",
      "assetIds": []
    },
    {
      "x": 323,
      "y": 283,
      "size": 1,
      "price": "1011000000000000000000",
      "reserved": "",
      "salt": "0xe266c977eddfa3db15d0939525a7b5d432d6e57a276fa01d5e06790020b5c376",
      "assetIds": []
    },
    {
      "x": 323,
      "y": 284,
      "size": 1,
      "price": "1011000000000000000000",
      "reserved": "",
      "salt": "0x6db4435c4a93c0f76ac14a30bbf98b34a34f60f1a984f4ffad8c741d6f94158f",
      "assetIds": []
    },
    {
      "x": 323,
      "y": 285,
      "size": 1,
      "price": "1011000000000000000000",
      "reserved": "",
      "salt": "0x303d1f75cde337938607dc8fc81278ca6bffa6f654be4795a5d56de1ef46f6e4",
      "assetIds": []
    },
    {
      "x": 323,
      "y": 286,
      "size": 1,
      "price": "1011000000000000000000",
      "reserved": "",
      "salt": "0x26709bc01e005492c1c9dbc7b765ea97239cd1fa4e5878de085fe176defd87d3",
      "assetIds": []
    },
    {
      "x": 323,
      "y": 287,
      "size": 1,
      "price": "1011000000000000000000",
      "reserved": "",
      "salt": "0xc580fe8925fdf16d62ef81993dce38c298e07bbce6cd325c513a2f9f73d68d2d",
      "assetIds": []
    },
    {
      "x": 323,
      "y": 291,
      "size": 1,
      "price": "1011000000000000000000",
      "reserved": "",
      "salt": "0xd3e80d6c1b418be5a9384adb311283f4d615aa5c8a65906f68c8c8682340a6af",
      "assetIds": []
    },
    {
      "x": 323,
      "y": 292,
      "size": 1,
      "price": "1011000000000000000000",
      "reserved": "",
      "salt": "0x2ad89e42b40d15d7bfc237c1670f505c90211219c77da6e04a6ae5a52d797db6",
      "assetIds": []
    },
    {
      "x": 323,
      "y": 293,
      "size": 1,
      "price": "1011000000000000000000",
      "reserved": "",
      "salt": "0x605435a399e2c98fb249c4b769b2396908e5fa807858a0f435b50e55267c2d61",
      "assetIds": []
    },
    {
      "x": 324,
      "y": 298,
      "size": 1,
      "price": "1011000000000000000000",
      "reserved": "0x7a9fe22691c811ea339d9b73150e6911a5343dca",
      "salt": "0x4ced01217cf21dcc10154b1064c7c7157f834b5f95a6732bd786e4a38597b756",
      "assetIds": []
    },
    {
      "x": 324,
      "y": 299,
      "size": 1,
      "price": "1011000000000000000000",
      "reserved": "0x7a9fe22691c811ea339d9b73150e6911a5343dca",
      "salt": "0x4fe26dbc446263f8bfe01aaad419874ad71c0d4733c17c9b7f752d1359cfd97d",
      "assetIds": []
    },
    {
      "x": 324,
      "y": 300,
      "size": 1,
      "price": "4683000000000000000000",
      "reserved": "",
      "salt": "0xdb8b90cff2f8ecd6a6ad6175e035a8697b6d4741846072d91dc835f07e2d58ac",
      "assetIds": [
        "55464657044963196816950587289035428064568320970692304673817341489688050948104",
        "55464657044963196816950587289035428064568320970692304673817341489688050948102",
        "55464657044963196816950587289035428064568320970692304673817341489688050948096",
        "55464657044963196816950587289035428064568320970692304673817341489688050948097"
      ]
    },
    {
      "x": 324,
      "y": 301,
      "size": 1,
      "price": "4683000000000000000000",
      "reserved": "",
      "salt": "0x29fc1055179ee881129ab55a3a91cd4739125928a2e59d0096a103b95860032a",
      "assetIds": [
        "55464657044963196816950587289035428064568320970692304673817341489688050948106",
        "55464657044963196816950587289035428064568320970692304673817341489688050948101",
        "55464657044963196816950587289035428064568320970692304673817341489688050948096",
        "55464657044963196816950587289035428064568320970692304673817341489688050948098"
      ]
    },
    {
      "x": 324,
      "y": 302,
      "size": 1,
      "price": "4683000000000000000000",
      "reserved": "",
      "salt": "0xeb4dcd63748bad4d487a62ece3eee6ca5d0a5bbb62cfba828bfd3600922f35df",
      "assetIds": [
        "55464657044963196816950587289035428064568320970692304673817341489688050948104",
        "55464657044963196816950587289035428064568320970692304673817341489688050948102",
        "55464657044963196816950587289035428064568320970692304673817341489688050948096",
        "55464657044963196816950587289035428064568320970692304673817341489688050948097"
      ]
    },
    {
      "x": 324,
      "y": 303,
      "size": 1,
      "price": "4683000000000000000000",
      "reserved": "",
      "salt": "0xbd1167d975e50a1f3b91e084ba64557073c1bf94bedbc2e65f1f5406dce666c9",
      "assetIds": [
        "55464657044963196816950587289035428064568320970692304673817341489688050948106",
        "55464657044963196816950587289035428064568320970692304673817341489688050948101",
        "55464657044963196816950587289035428064568320970692304673817341489688050948096",
        "55464657044963196816950587289035428064568320970692304673817341489688050948098"
      ]
    },
    {
      "x": 324,
      "y": 304,
      "size": 1,
      "price": "4683000000000000000000",
      "reserved": "",
      "salt": "0xadaaa42a2f2d12697d57fb11064d129791336e56f2b3414cb1589601669fd68d",
      "assetIds": [
        "55464657044963196816950587289035428064568320970692304673817341489688050948103",
        "55464657044963196816950587289035428064568320970692304673817341489688050948099",
        "55464657044963196816950587289035428064568320970692304673817341489688050948096",
        "55464657044963196816950587289035428064568320970692304673817341489688050948098"
      ]
    },
    {
      "x": 324,
      "y": 305,
      "size": 1,
      "price": "4683000000000000000000",
      "reserved": "",
      "salt": "0x7a9e5ac22b99ebcbb236cb833eb38e7e5b3b75615da8520df64b56a275e9978a",
      "assetIds": [
        "55464657044963196816950587289035428064568320970692304673817341489688050948103",
        "55464657044963196816950587289035428064568320970692304673817341489688050948099",
        "55464657044963196816950587289035428064568320970692304673817341489688050948096",
        "55464657044963196816950587289035428064568320970692304673817341489688050948098"
      ]
    },
    {
      "x": 324,
      "y": 306,
      "size": 1,
      "price": "4683000000000000000000",
      "reserved": "",
      "salt": "0xe20cbbdada02129e7aa76310f4e954511999959756d20468563b8513981683d4",
      "assetIds": [
        "55464657044963196816950587289035428064568320970692304673817341489688050948103",
        "55464657044963196816950587289035428064568320970692304673817341489688050948099",
        "55464657044963196816950587289035428064568320970692304673817341489688050948096",
        "55464657044963196816950587289035428064568320970692304673817341489688050948098"
      ]
    },
    {
      "x": 324,
      "y": 307,
      "size": 1,
      "price": "4683000000000000000000",
      "reserved": "",
      "salt": "0xe0174d5aa2467e471c1df143f261aedea8dec86ec60394b5f66a64cb53a84b45",
      "assetIds": [
        "55464657044963196816950587289035428064568320970692304673817341489688050948105",
        "55464657044963196816950587289035428064568320970692304673817341489688050948100",
        "55464657044963196816950587289035428064568320970692304673817341489688050948096",
        "55464657044963196816950587289035428064568320970692304673817341489688050948097"
      ]
    },
    {
      "x": 324,
      "y": 308,
      "size": 1,
      "price": "4683000000000000000000",
      "reserved": "",
      "salt": "0x55e972271e3299b8d40f6ee6afbc916a1f93f4827f1682db3133701334bb731c",
      "assetIds": [
        "55464657044963196816950587289035428064568320970692304673817341489688050948105",
        "55464657044963196816950587289035428064568320970692304673817341489688050948100",
        "55464657044963196816950587289035428064568320970692304673817341489688050948096",
        "55464657044963196816950587289035428064568320970692304673817341489688050948097"
      ]
    },
    {
      "x": 324,
      "y": 309,
      "size": 1,
      "price": "4683000000000000000000",
      "reserved": "",
      "salt": "0x5cda2183fb2fa61d077b1dbedc649c41e2f56e846cfa4904c1e6e2e5ff6748cb",
      "assetIds": [
        "55464657044963196816950587289035428064568320970692304673817341489688050948103",
        "55464657044963196816950587289035428064568320970692304673817341489688050948099",
        "55464657044963196816950587289035428064568320970692304673817341489688050948096",
        "55464657044963196816950587289035428064568320970692304673817341489688050948098"
      ]
    },
    {
      "x": 324,
      "y": 310,
      "size": 1,
      "price": "4683000000000000000000",
      "reserved": "",
      "salt": "0x4d385f4c57489263791cbcac8c06aa3ac77e7079f39d2fca7739eaefe62684b5",
      "assetIds": [
        "55464657044963196816950587289035428064568320970692304673817341489688050948106",
        "55464657044963196816950587289035428064568320970692304673817341489688050948101",
        "55464657044963196816950587289035428064568320970692304673817341489688050948096",
        "55464657044963196816950587289035428064568320970692304673817341489688050948098"
      ]
    },
    {
      "x": 324,
      "y": 311,
      "size": 1,
      "price": "4683000000000000000000",
      "reserved": "",
      "salt": "0xd9062e073df0d334591bb164b12b3f2202dbb83421230222d322224a3f1b683f",
      "assetIds": [
        "55464657044963196816950587289035428064568320970692304673817341489688050948105",
        "55464657044963196816950587289035428064568320970692304673817341489688050948100",
        "55464657044963196816950587289035428064568320970692304673817341489688050948096",
        "55464657044963196816950587289035428064568320970692304673817341489688050948097"
      ]
    },
    {
      "x": 325,
      "y": 298,
      "size": 1,
      "price": "1011000000000000000000",
      "reserved": "0x7a9fe22691c811ea339d9b73150e6911a5343dca",
      "salt": "0x80cc7d161b9ea6b34f95c392b910838193b294ba14e8d3b83ccd9a539d0289ba",
      "assetIds": []
    },
    {
      "x": 325,
      "y": 299,
      "size": 1,
      "price": "1011000000000000000000",
      "reserved": "0x7a9fe22691c811ea339d9b73150e6911a5343dca",
      "salt": "0x1ef6f3dbf061757485bcd2696f54338fb5814d437a55e3bded7151c2f9848235",
      "assetIds": []
    },
    {
      "x": 325,
      "y": 300,
      "size": 1,
      "price": "1011000000000000000000",
      "reserved": "0x7a9fe22691c811ea339d9b73150e6911a5343dca",
      "salt": "0xee35922bc199d5716ee90dc251ef4bdcbb4b90aeb8eb5c032cedcb6b1f062c41",
      "assetIds": []
    },
    {
      "x": 325,
      "y": 301,
      "size": 1,
      "price": "4683000000000000000000",
      "reserved": "",
      "salt": "0x261b77c155eff2819f8b95af858b5879da559644f179d7a6c615127aa489cb2e",
      "assetIds": [
        "55464657044963196816950587289035428064568320970692304673817341489688050948104",
        "55464657044963196816950587289035428064568320970692304673817341489688050948102",
        "55464657044963196816950587289035428064568320970692304673817341489688050948096",
        "55464657044963196816950587289035428064568320970692304673817341489688050948097"
      ]
    },
    {
      "x": 325,
      "y": 302,
      "size": 1,
      "price": "1011000000000000000000",
      "reserved": "0x7a9fe22691c811ea339d9b73150e6911a5343dca",
      "salt": "0x2f3beb750f73a0d0b3db45299dd6dadaeb0652ca1d858751d98dd127f365bd49",
      "assetIds": []
    },
    {
      "x": 325,
      "y": 303,
      "size": 1,
      "price": "1011000000000000000000",
      "reserved": "0x7a9fe22691c811ea339d9b73150e6911a5343dca",
      "salt": "0x02a9993e530e88b3100f155b596e1921216254fd4b6546b1e0612ff9f566f692",
      "assetIds": []
    },
    {
      "x": 325,
      "y": 304,
      "size": 1,
      "price": "4683000000000000000000",
      "reserved": "",
      "salt": "0x74839111e2a4c9c30a43ad5954104af717aa5e1151e4da1f4c7ea70a90e8ba3d",
      "assetIds": [
        "55464657044963196816950587289035428064568320970692304673817341489688050948105",
        "55464657044963196816950587289035428064568320970692304673817341489688050948100",
        "55464657044963196816950587289035428064568320970692304673817341489688050948096",
        "55464657044963196816950587289035428064568320970692304673817341489688050948097"
      ]
    },
    {
      "x": 325,
      "y": 305,
      "size": 1,
      "price": "4683000000000000000000",
      "reserved": "",
      "salt": "0xa7d429d47fce2d4cde8280aed87569570df976aed2053c6e2f8604ca1a294771",
      "assetIds": [
        "55464657044963196816950587289035428064568320970692304673817341489688050948104",
        "55464657044963196816950587289035428064568320970692304673817341489688050948102",
        "55464657044963196816950587289035428064568320970692304673817341489688050948096",
        "55464657044963196816950587289035428064568320970692304673817341489688050948097"
      ]
    },
    {
      "x": 325,
      "y": 306,
      "size": 1,
      "price": "1011000000000000000000",
      "reserved": "0x7a9fe22691c811ea339d9b73150e6911a5343dca",
      "salt": "0xb3dcd472c2d7cb54da8e54bdd8bc1078e24316414302f0e2979f891b649a2d90",
      "assetIds": []
    },
    {
      "x": 325,
      "y": 307,
      "size": 1,
      "price": "4683000000000000000000",
      "reserved": "",
      "salt": "0x17a4f7cf1efc80718a6607e79dfe24a1056ea4e81def118a6059962e0edab619",
      "assetIds": [
        "55464657044963196816950587289035428064568320970692304673817341489688050948104",
        "55464657044963196816950587289035428064568320970692304673817341489688050948102",
        "55464657044963196816950587289035428064568320970692304673817341489688050948096",
        "55464657044963196816950587289035428064568320970692304673817341489688050948097"
      ]
    },
    {
      "x": 325,
      "y": 308,
      "size": 1,
      "price": "1011000000000000000000",
      "reserved": "0x7a9fe22691c811ea339d9b73150e6911a5343dca",
      "salt": "0x3d74bf24de1c2dfa801865df6e132606d16a79ae81f8d29b1175d9f41c9f84f4",
      "assetIds": []
    },
    {
      "x": 325,
      "y": 309,
      "size": 1,
      "price": "1011000000000000000000",
      "reserved": "0x7a9fe22691c811ea339d9b73150e6911a5343dca",
      "salt": "0x85fc6e4bae662ea6806f66ca59927e3a566f0d6281acc3d269d88cdc7ca9c9ca",
      "assetIds": []
    },
    {
      "x": 325,
      "y": 310,
      "size": 1,
      "price": "4683000000000000000000",
      "reserved": "",
      "salt": "0x3f6a834c02c3228dcf4be4c929b9a8a87f79c7dfba848620b139332e708d9ece",
      "assetIds": [
        "55464657044963196816950587289035428064568320970692304673817341489688050948105",
        "55464657044963196816950587289035428064568320970692304673817341489688050948100",
        "55464657044963196816950587289035428064568320970692304673817341489688050948096",
        "55464657044963196816950587289035428064568320970692304673817341489688050948097"
      ]
    },
    {
      "x": 325,
      "y": 311,
      "size": 1,
      "price": "1011000000000000000000",
      "reserved": "0x7a9fe22691c811ea339d9b73150e6911a5343dca",
      "salt": "0x2a75f8d3e2f989762fa2a953e048ff9b799c5f6380b3298ebc411ba33d16c546",
      "assetIds": []
    },
    {
      "x": 326,
      "y": 300,
      "size": 1,
      "price": "1011000000000000000000",
      "reserved": "",
      "salt": "0xa4d2e7eac417672f088b808f1d7238a047d02d3ffba1fb96a85673eb202fe815",
      "assetIds": []
    },
    {
      "x": 326,
      "y": 301,
      "size": 1,
      "price": "1011000000000000000000",
      "reserved": "",
      "salt": "0xb7f8516d05fad12af05604fe6c96b2e05ae72f7e0f55689e00d0f859f2b0b3c5",
      "assetIds": []
    },
    {
      "x": 326,
      "y": 302,
      "size": 1,
      "price": "1011000000000000000000",
      "reserved": "",
      "salt": "0x27d45d14e7ea7c39477df7a152a26f1399bc0caac7c125c9fdb2122682df55c9",
      "assetIds": []
    },
    {
      "x": 326,
      "y": 303,
      "size": 1,
      "price": "1011000000000000000000",
      "reserved": "",
      "salt": "0xf883b26aad52f77755173b4fd94e0771eab6b4373701d3b80efae3a74335c701",
      "assetIds": []
    },
    {
      "x": 326,
      "y": 304,
      "size": 1,
      "price": "1011000000000000000000",
      "reserved": "",
      "salt": "0xa6a7e635968091e61f8c27d41240e8107715d562ce62fb84a14d6528552b4384",
      "assetIds": []
    },
    {
      "x": 326,
      "y": 305,
      "size": 1,
      "price": "1011000000000000000000",
      "reserved": "",
      "salt": "0x418328ea7aeaa982236709b6354b5bd177fc1c3db847d0c60ff11e8bf618a224",
      "assetIds": []
    },
    {
      "x": 326,
      "y": 306,
      "size": 1,
      "price": "1011000000000000000000",
      "reserved": "",
      "salt": "0x748f1dc0df2d77e50fcb8272ff95bd8f8e94248e3326ad58dbd45c818414d8ca",
      "assetIds": []
    },
    {
      "x": 326,
      "y": 307,
      "size": 1,
      "price": "1011000000000000000000",
      "reserved": "",
      "salt": "0x88c2a3175e82a59b50df242601ea1549e5d7f216e2c3fa95ba9665bdcdd9ae7a",
      "assetIds": []
    },
    {
      "x": 326,
      "y": 308,
      "size": 1,
      "price": "1011000000000000000000",
      "reserved": "",
      "salt": "0xb68d657734df4b86e964b686513e46d364e966475c52d6bce124b3f4644cd34c",
      "assetIds": []
    },
    {
      "x": 326,
      "y": 309,
      "size": 1,
      "price": "1011000000000000000000",
      "reserved": "",
      "salt": "0xd59f05be30ef3047f2141ee97f8ebe81854d6b9d8a1fa08e011b4e23dcb608a5",
      "assetIds": []
    },
    {
      "x": 326,
      "y": 310,
      "size": 1,
      "price": "1011000000000000000000",
      "reserved": "",
      "salt": "0xead17ce7c1d25813169b86c09e01e9246eff3100c8daa99a7d71fcf97669514f",
      "assetIds": []
    },
    {
      "x": 326,
      "y": 311,
      "size": 1,
      "price": "1011000000000000000000",
      "reserved": "",
      "salt": "0xaa5539f6df33d1e61754c619ada3f31af58226df5f7e0035aa92458c072463f9",
      "assetIds": []
    },
    {
      "x": 327,
      "y": 300,
      "size": 1,
      "price": "1011000000000000000000",
      "reserved": "",
      "salt": "0x52928741fad587bde468e907f7f02b9f8f68f655e738dcba3de4652b191ebcf7",
      "assetIds": []
    },
    {
      "x": 327,
      "y": 301,
      "size": 1,
      "price": "1011000000000000000000",
      "reserved": "",
      "salt": "0xcc6f75ea2889e8b622f1f7f364cbfd4196697e581257d45a2eb87923ae16e34f",
      "assetIds": []
    },
    {
      "x": 327,
      "y": 302,
      "size": 1,
      "price": "1011000000000000000000",
      "reserved": "",
      "salt": "0x956e5c68ee2e2525a4d282347405ae80dc2f5bb0e9f4d8205df086d1d32426b3",
      "assetIds": []
    },
    {
      "x": 327,
      "y": 303,
      "size": 1,
      "price": "1011000000000000000000",
      "reserved": "",
      "salt": "0xdecf0019c9d648cbbba74e0e9bd934c529abc80d4d915254b8568d443669e056",
      "assetIds": []
    },
    {
      "x": 327,
      "y": 304,
      "size": 1,
      "price": "1011000000000000000000",
      "reserved": "0x7a9fe22691c811ea339d9b73150e6911a5343dca",
      "salt": "0xd960f6ae19c9040a71f48ff41919422086546531494a682a76cf05ce170e2b7d",
      "assetIds": []
    },
    {
      "x": 327,
      "y": 305,
      "size": 1,
      "price": "1011000000000000000000",
      "reserved": "",
      "salt": "0x8c9d5b3514013b592954c991dc5114f2922f71aaf4ffc258aa194f9148ecba4b",
      "assetIds": []
    },
    {
      "x": 327,
      "y": 306,
      "size": 1,
      "price": "1011000000000000000000",
      "reserved": "",
      "salt": "0xd45e1940d898095601464507e6174e136411f755628387b07e2a779ad70a6eb5",
      "assetIds": []
    },
    {
      "x": 327,
      "y": 307,
      "size": 1,
      "price": "1011000000000000000000",
      "reserved": "",
      "salt": "0x3fdd81caa88dfab7b6e3b056195f64b50ec7eefef5d297c0d9f7f618fba0d45a",
      "assetIds": []
    },
    {
      "x": 327,
      "y": 308,
      "size": 1,
      "price": "1011000000000000000000",
      "reserved": "",
      "salt": "0xdad9fc2b9b1fd90646dc6f8dc9f10de7e8a45c42cf4e1d80f628c5648cddd3eb",
      "assetIds": []
    },
    {
      "x": 327,
      "y": 309,
      "size": 1,
      "price": "1011000000000000000000",
      "reserved": "0x7a9fe22691c811ea339d9b73150e6911a5343dca",
      "salt": "0x40950b10f530780ad0397751b14427d5c1079085b57cd9099402a42cd3d4b7e5",
      "assetIds": []
    },
    {
      "x": 327,
      "y": 310,
      "size": 1,
      "price": "1011000000000000000000",
      "reserved": "",
      "salt": "0xb34cd51e6e1ce79324530ba10efa3c5e3d3d7f9619963eef5eab03897710702a",
      "assetIds": []
    },
    {
      "x": 327,
      "y": 311,
      "size": 1,
      "price": "1011000000000000000000",
      "reserved": "",
      "salt": "0x62e5c487992908d0f718c5e0dda2f5244963594361e14e5fceb4de24f06b052b",
      "assetIds": []
    },
    {
      "x": 328,
      "y": 300,
      "size": 1,
      "price": "1011000000000000000000",
      "reserved": "",
      "salt": "0x6be5523b1bf31bfc7167cc80c95538a2a838337d8285ae2c507f032603e28e54",
      "assetIds": []
    },
    {
      "x": 328,
      "y": 301,
      "size": 1,
      "price": "1011000000000000000000",
      "reserved": "0x7a9fe22691c811ea339d9b73150e6911a5343dca",
      "salt": "0xfb569789cbb2574dbf30c83eeb8e495dd079021923a6fe63738bc6113c8d0a4e",
      "assetIds": []
    },
    {
      "x": 328,
      "y": 302,
      "size": 1,
      "price": "1011000000000000000000",
      "reserved": "",
      "salt": "0x615e5eb6aa56c6ad8fde3ee038fd28d810dbb85e5822c6033a415f091c61a446",
      "assetIds": []
    },
    {
      "x": 328,
      "y": 303,
      "size": 1,
      "price": "1011000000000000000000",
      "reserved": "",
      "salt": "0x0af1b22a83fca9cb6f157510058f604cd99eb09146c383dad6a95d2cd0c8ef4b",
      "assetIds": []
    },
    {
      "x": 328,
      "y": 304,
      "size": 1,
      "price": "1011000000000000000000",
      "reserved": "",
      "salt": "0x0c79051cfef4aa4a63f83b454fa5a3bf41f61b9e86b756109f126a40b961db3d",
      "assetIds": []
    },
    {
      "x": 328,
      "y": 305,
      "size": 1,
      "price": "1011000000000000000000",
      "reserved": "",
      "salt": "0xdfb9e34650315ddf3afde4c67dade7189aa69540af30321ca04814a8afc8fa6e",
      "assetIds": []
    },
    {
      "x": 328,
      "y": 306,
      "size": 1,
      "price": "1011000000000000000000",
      "reserved": "",
      "salt": "0x1748e8e47ae5f8afd41cc51a5817c8bb5fac8b6b05fc90aea3a9052ad88a34cd",
      "assetIds": []
    },
    {
      "x": 328,
      "y": 307,
      "size": 1,
      "price": "1011000000000000000000",
      "reserved": "0x7a9fe22691c811ea339d9b73150e6911a5343dca",
      "salt": "0x5c85a8f99af10e5c66097a85fabfcdc0475911c38db90f7e56238abe6350d74c",
      "assetIds": []
    },
    {
      "x": 328,
      "y": 308,
      "size": 1,
      "price": "1011000000000000000000",
      "reserved": "",
      "salt": "0x2ccbec3a688dc316c755be7eb7c62e5ef4824dacb6fd484de7ca49efb42e7d2c",
      "assetIds": []
    },
    {
      "x": 328,
      "y": 309,
      "size": 1,
      "price": "1011000000000000000000",
      "reserved": "",
      "salt": "0x0d88443d9f7d08e135b4ef9c2e0bf03a65f7d5c67d321afaf2b1d489d4deb0b2",
      "assetIds": []
    },
    {
      "x": 328,
      "y": 310,
      "size": 1,
      "price": "1011000000000000000000",
      "reserved": "",
      "salt": "0xb1a3fafe9cb7f57d80b147577159d3e23d9d5e3e8cc15b2d888a8c3ae9ca838f",
      "assetIds": []
    },
    {
      "x": 328,
      "y": 311,
      "size": 1,
      "price": "1011000000000000000000",
      "reserved": "",
      "salt": "0xe980070f31aebb9a63c4ee3812aab4becbad981ddbd93786e3db95f9d29bd7e4",
      "assetIds": []
    },
    {
      "x": 329,
      "y": 300,
      "size": 1,
      "price": "1011000000000000000000",
      "reserved": "",
      "salt": "0x55076f1d8d44ad0e69e62aa66c4ebffb03a8c1d0717375a89047c28b0eb568dc",
      "assetIds": []
    },
    {
      "x": 329,
      "y": 301,
      "size": 1,
      "price": "1011000000000000000000",
      "reserved": "",
      "salt": "0xb7f4f649ba777da50f8263fb3628e4928906fc45376f0376fefe6162cb309bd2",
      "assetIds": []
    },
    {
      "x": 329,
      "y": 302,
      "size": 1,
      "price": "1011000000000000000000",
      "reserved": "",
      "salt": "0xc68c393165d7f4e78e96849d55f527495243d1115fe883b1337eaba5e7454b99",
      "assetIds": []
    },
    {
      "x": 329,
      "y": 303,
      "size": 1,
      "price": "1011000000000000000000",
      "reserved": "0x7a9fe22691c811ea339d9b73150e6911a5343dca",
      "salt": "0x9b976863b0ee9ac8613cf6c6b9291313338035611b24439c8b8e1c3472811936",
      "assetIds": []
    },
    {
      "x": 329,
      "y": 304,
      "size": 1,
      "price": "1011000000000000000000",
      "reserved": "",
      "salt": "0x9b9d296f7cb0592bfb0930d60374d03f77f23fb2e076314d1beabf456c2b5052",
      "assetIds": []
    },
    {
      "x": 329,
      "y": 305,
      "size": 1,
      "price": "1011000000000000000000",
      "reserved": "",
      "salt": "0xb750f268cc4822a1e3393e64be57a77339fd8cbd4fa540ed4b932809eae8f583",
      "assetIds": []
    },
    {
      "x": 329,
      "y": 306,
      "size": 1,
      "price": "1011000000000000000000",
      "reserved": "",
      "salt": "0xa92323ec867d87dbed4d1fad69b854927451c7035926c8c1c29d0e8902dfcc5f",
      "assetIds": []
    },
    {
      "x": 329,
      "y": 307,
      "size": 1,
      "price": "1011000000000000000000",
      "reserved": "",
      "salt": "0x0beb18c121ece4d9160fa80f0f9dfe9adfdb30bffe45d3a12e74ef197b1f0d83",
      "assetIds": []
    },
    {
      "x": 329,
      "y": 308,
      "size": 1,
      "price": "1011000000000000000000",
      "reserved": "",
      "salt": "0xb3b3c91bcf330ef5ec6f1797fb0df82fafcb11e0375c2f8281ee71e42cb0b43c",
      "assetIds": []
    },
    {
      "x": 329,
      "y": 309,
      "size": 1,
      "price": "1011000000000000000000",
      "reserved": "",
      "salt": "0x01a2b12b53abd7e9996a5400f5022e34a534193020636df203b7b78d12c45c6a",
      "assetIds": []
    },
    {
      "x": 329,
      "y": 310,
      "size": 1,
      "price": "1011000000000000000000",
      "reserved": "",
      "salt": "0x7eaf1534dd83ad8756f17f044bb6eb6f3bacb169977bc478ce4742292aac6079",
      "assetIds": []
    },
    {
      "x": 329,
      "y": 311,
      "size": 1,
      "price": "1011000000000000000000",
      "reserved": "",
      "salt": "0x89e8b60b286aad249ca7b9aee2d24f897193982deca054ea1d7d75e7e5ce8c6e",
      "assetIds": []
    },
    {
      "x": 330,
      "y": 300,
      "size": 1,
      "price": "1011000000000000000000",
      "reserved": "",
      "salt": "0xe0bef2b0519cbc7edc44f31dbf67f78be4802d7ed68b34758f4d1a1bcd689e45",
      "assetIds": []
    },
    {
      "x": 330,
      "y": 301,
      "size": 1,
      "price": "1011000000000000000000",
      "reserved": "",
      "salt": "0xc340927b623345464cfb8f9c030283a15d9d24ace9d992247425545120c6c2e4",
      "assetIds": []
    },
    {
      "x": 330,
      "y": 302,
      "size": 1,
      "price": "1011000000000000000000",
      "reserved": "",
      "salt": "0xeb0d0eab786a93105f24198438647aba562b648d11937dbe8236d40e1ec5c039",
      "assetIds": []
    },
    {
      "x": 330,
      "y": 303,
      "size": 1,
      "price": "1011000000000000000000",
      "reserved": "",
      "salt": "0x9cc7c9dd7b566f370ec32b349aa2a1833b5e9c6b605ecb21b16a54647f061b97",
      "assetIds": []
    },
    {
      "x": 330,
      "y": 304,
      "size": 1,
      "price": "1011000000000000000000",
      "reserved": "",
      "salt": "0x9e5ed4d74164d0743f66897743a4cd73aa012eb3a90fd6bb6b1a4f48cb596154",
      "assetIds": []
    },
    {
      "x": 330,
      "y": 305,
      "size": 1,
      "price": "1011000000000000000000",
      "reserved": "",
      "salt": "0xda3e7b67bb741e62b7a04cd7d27c0dc8beeeda61ec89af9f3034c5b592ae2fc6",
      "assetIds": []
    },
    {
      "x": 331,
      "y": 300,
      "size": 1,
      "price": "1011000000000000000000",
      "reserved": "",
      "salt": "0x4d063198f7a9e184508d4ff98656b7608c6c17b630f0bd622d22637e4f320686",
      "assetIds": []
    },
    {
      "x": 331,
      "y": 301,
      "size": 1,
      "price": "1011000000000000000000",
      "reserved": "",
      "salt": "0xdd26f4f72cd7fe610ac89422ca22edf3f0dca731413a925915f0660904c7032a",
      "assetIds": []
    },
    {
      "x": 331,
      "y": 302,
      "size": 1,
      "price": "1011000000000000000000",
      "reserved": "",
      "salt": "0x34187b2267dd95474e4db2c07b939d265d8905ac8abfd6ca4492ec5368b47464",
      "assetIds": []
    },
    {
      "x": 331,
      "y": 303,
      "size": 1,
      "price": "1011000000000000000000",
      "reserved": "",
      "salt": "0xc40757f98c19c3e4692593288e8796ccf015373bd5d7eca4ea11d7dddc66d566",
      "assetIds": []
    },
    {
      "x": 331,
      "y": 304,
      "size": 1,
      "price": "1011000000000000000000",
      "reserved": "",
      "salt": "0x27620bd3f35694b11f62932370e500778799ff3505b84d77f10bb50acbf6b0e6",
      "assetIds": []
    },
    {
      "x": 331,
      "y": 305,
      "size": 1,
      "price": "1011000000000000000000",
      "reserved": "",
      "salt": "0x0dfd966ec994d446c99a3902608c1d3823477b0172417183878ffcd7bc0f82ee",
      "assetIds": []
    },
    {
      "x": 332,
      "y": 300,
      "size": 1,
      "price": "1011000000000000000000",
      "reserved": "",
      "salt": "0xbf99f42d288444cfef0a822c3bd83a45c55ff5c96d7da2607d73d4d21341012d",
      "assetIds": []
    },
    {
      "x": 332,
      "y": 301,
      "size": 1,
      "price": "1011000000000000000000",
      "reserved": "0x7a9fe22691c811ea339d9b73150e6911a5343dca",
      "salt": "0x90b35198af862596c63083c746d101cc9ad6852a5348ef57706bc3bb11542c4a",
      "assetIds": []
    },
    {
      "x": 332,
      "y": 302,
      "size": 1,
      "price": "1011000000000000000000",
      "reserved": "",
      "salt": "0xa6c585dd94b16960468a86cdbb780c1ac985b954c8bca6a751c2d9e86d77c02c",
      "assetIds": []
    },
    {
      "x": 332,
      "y": 303,
      "size": 1,
      "price": "1011000000000000000000",
      "reserved": "",
      "salt": "0xd8f3d5dab08b050b85f0ba1b6cd9b494426cc6bce62b0511b8cde1bc716f4e88",
      "assetIds": []
    },
    {
      "x": 332,
      "y": 304,
      "size": 1,
      "price": "1011000000000000000000",
      "reserved": "",
      "salt": "0x66cdc1d3e7ccb40aa8ecd933b6a7a9ac1e89f64e7bfae52ca86698816ae3b07d",
      "assetIds": []
    },
    {
      "x": 332,
      "y": 305,
      "size": 1,
      "price": "1011000000000000000000",
      "reserved": "",
      "salt": "0x4b84521759b4a921337a6d0569fdb87f85d334a3750638f358900c0135486d97",
      "assetIds": []
    },
    {
      "x": 333,
      "y": 300,
      "size": 1,
      "price": "1011000000000000000000",
      "reserved": "",
      "salt": "0xedbb9e1965c1d102aa23f606d65683397db53935a35b20981123f4113f330fa0",
      "assetIds": []
    },
    {
      "x": 333,
      "y": 301,
      "size": 1,
      "price": "1011000000000000000000",
      "reserved": "",
      "salt": "0x6e9ab6abaa41717e557f6721d8cb56d02194904a943da97939162eaf8f386761",
      "assetIds": []
    },
    {
      "x": 333,
      "y": 302,
      "size": 1,
      "price": "1011000000000000000000",
      "reserved": "",
      "salt": "0x70a2349c3cac5dde1675067de60e21935e872b92fe0f1d934b3aee292bd66c91",
      "assetIds": []
    },
    {
      "x": 333,
      "y": 303,
      "size": 1,
      "price": "1011000000000000000000",
      "reserved": "",
      "salt": "0xf54672752846150fa34ba6ad59cfa530680975b2d618e219d52cab7ad3e3ed95",
      "assetIds": []
    },
    {
      "x": 333,
      "y": 304,
      "size": 1,
      "price": "1011000000000000000000",
      "reserved": "0x7a9fe22691c811ea339d9b73150e6911a5343dca",
      "salt": "0x64994a3ef1fcbfd0e87065d7c14aa35575642242af3905f7757b8a539d110834",
      "assetIds": []
    },
    {
      "x": 333,
      "y": 305,
      "size": 1,
      "price": "1011000000000000000000",
      "reserved": "",
      "salt": "0x75b3e3c8c426c971009050ee0268f1cf5b3606fbcd98a7df68e85aa233683987",
      "assetIds": []
    },
    {
      "x": 334,
      "y": 300,
      "size": 1,
      "price": "1011000000000000000000",
      "reserved": "0x7a9fe22691c811ea339d9b73150e6911a5343dca",
      "salt": "0xb7557f02df61aa3b4b3da49166c89d174770b0426c2f7ee044e180850d225391",
      "assetIds": []
    },
    {
      "x": 334,
      "y": 301,
      "size": 1,
      "price": "1011000000000000000000",
      "reserved": "",
      "salt": "0xc5b27f2180c1d4b7aa1420b796b2eb8998ead858299c8434abc739b3cc39bca1",
      "assetIds": []
    },
    {
      "x": 334,
      "y": 302,
      "size": 1,
      "price": "1011000000000000000000",
      "reserved": "",
      "salt": "0x7fcdadc04d7ba67077eb827c4a02653b86d95f59944e844cd702385856706984",
      "assetIds": []
    },
    {
      "x": 334,
      "y": 303,
      "size": 1,
      "price": "1011000000000000000000",
      "reserved": "",
      "salt": "0xa784173049b9f180fff4b8755c082bd0e9a51a31bcb19284ef646066861b12c6",
      "assetIds": []
    },
    {
      "x": 334,
      "y": 304,
      "size": 1,
      "price": "1011000000000000000000",
      "reserved": "",
      "salt": "0x7a9420e825efd700f6e3752f7f7713b993edb9d6d326c3cb814e53332bdbc23f",
      "assetIds": []
    },
    {
      "x": 334,
      "y": 305,
      "size": 1,
      "price": "1011000000000000000000",
      "reserved": "",
      "salt": "0x829d3ec98d8e27588989ad567089699afa2e060db79f9e14519e76648344e7f5",
      "assetIds": []
    },
    {
      "x": 335,
      "y": 300,
      "size": 1,
      "price": "1011000000000000000000",
      "reserved": "",
      "salt": "0x595591d5bc14775e30d38fb94f662e4b2a04de042ab59e003d6c4d264362a5f5",
      "assetIds": []
    },
    {
      "x": 335,
      "y": 301,
      "size": 1,
      "price": "1011000000000000000000",
      "reserved": "",
      "salt": "0xb7f972d87be61439ec3caefd7ddc183af681669b1b45dc2edf0ea519a3cb8604",
      "assetIds": []
    },
    {
      "x": 335,
      "y": 302,
      "size": 1,
      "price": "1011000000000000000000",
      "reserved": "",
      "salt": "0xe83c0e15bb6072f9d8dd8079577eb1b87c18898b6785314376162983cf1dc480",
      "assetIds": []
    },
    {
      "x": 335,
      "y": 303,
      "size": 1,
      "price": "1011000000000000000000",
      "reserved": "",
      "salt": "0xe6437d1e6db437c4ca7480c686374605bda177dd2d2132c6c2d9defb033259c3",
      "assetIds": []
    },
    {
      "x": 335,
      "y": 304,
      "size": 1,
      "price": "1011000000000000000000",
      "reserved": "",
      "salt": "0xcd51da67ea1b8d7e2278972e737d6a8d454333c7ee78fd19f84115a895e9c771",
      "assetIds": []
    },
    {
      "x": 335,
      "y": 305,
      "size": 1,
      "price": "1011000000000000000000",
      "reserved": "",
      "salt": "0x1ce7061e82ccb9dfaa20d338aa0978495ed893bb7462ae7cef172d27f1dd8505",
      "assetIds": []
    },
    {
      "x": 336,
      "y": 306,
      "size": 1,
      "price": "1011000000000000000000",
      "reserved": "",
      "salt": "0xc98a4e1aec5ffe496f1c626b70d30dce32337c83dbdef33aba3f4e6b766a6de5",
      "assetIds": []
    },
    {
      "x": 336,
      "y": 307,
      "size": 1,
      "price": "1011000000000000000000",
      "reserved": "",
      "salt": "0xf26c4af5eecff23191b892849112aac59b30121f3218e3617ac38717de6b9030",
      "assetIds": []
    },
    {
      "x": 336,
      "y": 308,
      "size": 1,
      "price": "1011000000000000000000",
      "reserved": "",
      "salt": "0xa87c5d5a9851a131b940b339629eeeb40d549fa1d3abadcc0b8c857c01fe44c6",
      "assetIds": []
    },
    {
      "x": 336,
      "y": 309,
      "size": 1,
      "price": "1011000000000000000000",
      "reserved": "",
      "salt": "0xd482c84ea4a08a8d4528a743aeaea98deceae64b3eb930aec3659fc095d5a992",
      "assetIds": []
    },
    {
      "x": 336,
      "y": 310,
      "size": 1,
      "price": "1011000000000000000000",
      "reserved": "",
      "salt": "0xc6d398d7e657d27adb675796036a841b36a375c6a473c6dbdd1197de4b0c846e",
      "assetIds": []
    },
    {
      "x": 336,
      "y": 311,
      "size": 1,
      "price": "1011000000000000000000",
      "reserved": "",
      "salt": "0x9fd241844e296036f53b7481fabed072ac53d0d2d15f251c735d1199bed1864b",
      "assetIds": []
    },
    {
      "x": 337,
      "y": 306,
      "size": 1,
      "price": "1011000000000000000000",
      "reserved": "",
      "salt": "0x98aa5c8ccb854d148925752a09cb8635424331acfb42a978b252e2305667a1bf",
      "assetIds": []
    },
    {
      "x": 337,
      "y": 307,
      "size": 1,
      "price": "1011000000000000000000",
      "reserved": "",
      "salt": "0x68755fb304f753ebcce9c429bd7b81b3d31f25de1ec2e439d1955563a40a5121",
      "assetIds": []
    },
    {
      "x": 337,
      "y": 308,
      "size": 1,
      "price": "1011000000000000000000",
      "reserved": "",
      "salt": "0x78295688ac5f209a71a1a727b31ba3a98a1ddfbd92b7d924e2ac859d84edc8f6",
      "assetIds": []
    },
    {
      "x": 337,
      "y": 309,
      "size": 1,
      "price": "1011000000000000000000",
      "reserved": "",
      "salt": "0x54c1912d68ce5f870e0b663874a606c45a8b8955a103d27c4b870a03ca97bb71",
      "assetIds": []
    },
    {
      "x": 337,
      "y": 310,
      "size": 1,
      "price": "1011000000000000000000",
      "reserved": "",
      "salt": "0x6ee90135eec73fd53fb6b6c6056378bdfccf1f1ab9bdb8dc0d49675cfa50a44e",
      "assetIds": []
    },
    {
      "x": 337,
      "y": 311,
      "size": 1,
      "price": "1011000000000000000000",
      "reserved": "",
      "salt": "0xc923a5570bd412c71f78ef2e85500ae069d55363aa58191ef086d43c0730925f",
      "assetIds": []
    },
    {
      "x": 338,
      "y": 306,
      "size": 1,
      "price": "1011000000000000000000",
      "reserved": "",
      "salt": "0x013f497687ddb5b7ea51f02b67dac930edb8aeef62843e789e0e0c5f8f7bad87",
      "assetIds": []
    },
    {
      "x": 338,
      "y": 307,
      "size": 1,
      "price": "1011000000000000000000",
      "reserved": "",
      "salt": "0x43ddbbab993967a1a08e18217b11640750e9ee959a9c7ff0dd081bb276439c15",
      "assetIds": []
    },
    {
      "x": 338,
      "y": 308,
      "size": 1,
      "price": "1011000000000000000000",
      "reserved": "0x7a9fe22691c811ea339d9b73150e6911a5343dca",
      "salt": "0x291bb6b839fed0d27f4851bf6c05e6480b809efc0f850a6849c1ed7deca06db6",
      "assetIds": []
    },
    {
      "x": 338,
      "y": 309,
      "size": 1,
      "price": "1011000000000000000000",
      "reserved": "",
      "salt": "0xee8ef98cf541b1f16eeaceaa85173bf88d4b7a1aaa0d543330ae6cbbabb35ac7",
      "assetIds": []
    },
    {
      "x": 338,
      "y": 310,
      "size": 1,
      "price": "1011000000000000000000",
      "reserved": "",
      "salt": "0x4c95034f044a964ed9b0d102376ddc1bf0b6037e4a75df2b9a360746338c370c",
      "assetIds": []
    },
    {
      "x": 338,
      "y": 311,
      "size": 1,
      "price": "1011000000000000000000",
      "reserved": "",
      "salt": "0xca75c6b0742e687f2fb9641ec66526b9cfcc952874bfd29c66c279e2bc37fd98",
      "assetIds": []
    },
    {
      "x": 339,
      "y": 306,
      "size": 1,
      "price": "1011000000000000000000",
      "reserved": "",
      "salt": "0xb670e528f293b921055a52d82e9f600f1f6e3989c07241b44a5bb6af023d9007",
      "assetIds": []
    },
    {
      "x": 339,
      "y": 307,
      "size": 1,
      "price": "1011000000000000000000",
      "reserved": "",
      "salt": "0x2f0aae77a6cd89b7bd98df7e878e4f73623f0c0ea980df0ba3b381de99f60174",
      "assetIds": []
    },
    {
      "x": 339,
      "y": 308,
      "size": 1,
      "price": "1011000000000000000000",
      "reserved": "",
      "salt": "0xeed0d0f5f783aec23a44df2f2ada5d586f3c8492f11ad9b8846907b09666dbe8",
      "assetIds": []
    },
    {
      "x": 340,
      "y": 306,
      "size": 1,
      "price": "1011000000000000000000",
      "reserved": "",
      "salt": "0x30a951a52e0e0312b4e36d46e3c52e9d5cf061952255d2e0b3a936416485e89a",
      "assetIds": []
    },
    {
      "x": 340,
      "y": 307,
      "size": 1,
      "price": "1011000000000000000000",
      "reserved": "0x7a9fe22691c811ea339d9b73150e6911a5343dca",
      "salt": "0x605ac74f841035da14e9827c9e23146a2f613dba996ff49a07262fa80d3ab66d",
      "assetIds": []
    },
    {
      "x": 340,
      "y": 308,
      "size": 1,
      "price": "1011000000000000000000",
      "reserved": "",
      "salt": "0x893cc510d75a05668497d8adfcf8a2b78a7c3113b197b6936249a296c2029c9c",
      "assetIds": []
    },
    {
      "x": 341,
      "y": 306,
      "size": 1,
      "price": "1011000000000000000000",
      "reserved": "",
      "salt": "0x8f6ae7740fa7607d151d91fb16f5dbe689f2cddcd86bfe5328b1efd9325a699b",
      "assetIds": []
    },
    {
      "x": 341,
      "y": 307,
      "size": 1,
      "price": "1011000000000000000000",
      "reserved": "",
      "salt": "0x85a05606a0f144c0db89769516a2509d4c9efa0892b187d43d081002754da60d",
      "assetIds": []
    },
    {
      "x": 341,
      "y": 308,
      "size": 1,
      "price": "1011000000000000000000",
      "reserved": "",
      "salt": "0x8cdab44d5d908cf126cd24f1167b7ece4e061babd48c8fc876775582c80c1886",
      "assetIds": []
    },
    {
      "x": 342,
      "y": 300,
      "size": 1,
      "price": "1011000000000000000000",
      "reserved": "",
      "salt": "0x13e4871342795586ce77073962525022f442666ea671cddda13440c48899ce8d",
      "assetIds": []
    },
    {
      "x": 342,
      "y": 301,
      "size": 1,
      "price": "1011000000000000000000",
      "reserved": "",
      "salt": "0xf5828cfc55f2c44ea2a1becb6e2299b351530a59c20ad79ed585d5f3da4e4c46",
      "assetIds": []
    },
    {
      "x": 342,
      "y": 302,
      "size": 1,
      "price": "1011000000000000000000",
      "reserved": "",
      "salt": "0xafed1853c27e1351d47ab16be203608a18503117da2ba526ff1f89dc0a27c1f1",
      "assetIds": []
    },
    {
      "x": 342,
      "y": 303,
      "size": 1,
      "price": "1011000000000000000000",
      "reserved": "",
      "salt": "0x1f1f037eb04d540a17bccba5c5fb229e08c18f009f1c18d639bc2cb660bbfbca",
      "assetIds": []
    },
    {
      "x": 342,
      "y": 304,
      "size": 1,
      "price": "1011000000000000000000",
      "reserved": "",
      "salt": "0x09d839aea90a4bd652147ea44f56ee25bfb0033bfe8a1f3e86047fe28f13fa07",
      "assetIds": []
    },
    {
      "x": 342,
      "y": 305,
      "size": 1,
      "price": "1011000000000000000000",
      "reserved": "",
      "salt": "0xb6dbaa4cb2c70b35dbf64739928a796525b31843b4de4e414cc7cee8a151422e",
      "assetIds": []
    },
    {
      "x": 342,
      "y": 306,
      "size": 1,
      "price": "1011000000000000000000",
      "reserved": "",
      "salt": "0xaef3e79752d8233d31c6b38adac2048d66be48910e50051857b946111f5198e1",
      "assetIds": []
    },
    {
      "x": 342,
      "y": 307,
      "size": 1,
      "price": "1011000000000000000000",
      "reserved": "",
      "salt": "0x94fa451d63b45cb07f42b9afedf204a85c96a42ea745cf193d8587496ce038be",
      "assetIds": []
    },
    {
      "x": 342,
      "y": 308,
      "size": 1,
      "price": "1011000000000000000000",
      "reserved": "",
      "salt": "0xf1ec5928605d78c3a106ebec676b287ef3efa64b4bb881469df1bdf1b7cefbb6",
      "assetIds": []
    },
    {
      "x": 343,
      "y": 300,
      "size": 1,
      "price": "1011000000000000000000",
      "reserved": "",
      "salt": "0xab1188f9ea16f2b41a6010300f0ef3956ffc0c56a1d5c781f4e3bf2f30106e37",
      "assetIds": []
    },
    {
      "x": 343,
      "y": 301,
      "size": 1,
      "price": "1011000000000000000000",
      "reserved": "",
      "salt": "0x33361c0eede8f239e5d574d53f4302971996e8d21fc842967b2deba09bbd22f9",
      "assetIds": []
    },
    {
      "x": 343,
      "y": 302,
      "size": 1,
      "price": "1011000000000000000000",
      "reserved": "",
      "salt": "0x50d1537b4b299adad21470f2b1e30f31f100007f0afe688b830f1a09ffa36bc3",
      "assetIds": []
    },
    {
      "x": 343,
      "y": 303,
      "size": 1,
      "price": "1011000000000000000000",
      "reserved": "0x7a9fe22691c811ea339d9b73150e6911a5343dca",
      "salt": "0x0a66eb6057bd5b38350043bd5a8d503bd6b2c525bc49a56c5dbd242347c122fe",
      "assetIds": []
    },
    {
      "x": 343,
      "y": 304,
      "size": 1,
      "price": "1011000000000000000000",
      "reserved": "",
      "salt": "0xb62b3c088c205d10066583a64638296c8b5a36ee416d9905e3cb1e8bbb07e0ff",
      "assetIds": []
    },
    {
      "x": 343,
      "y": 305,
      "size": 1,
      "price": "1011000000000000000000",
      "reserved": "",
      "salt": "0xca0fe998f9c4eb668e99246e456d0bf71a7b8eb0272461af47b04dd7c77d1eee",
      "assetIds": []
    },
    {
      "x": 343,
      "y": 306,
      "size": 1,
      "price": "1011000000000000000000",
      "reserved": "",
      "salt": "0x3a7d5c22b4260b1030c0bfe815a64de9da104dcdf99e6afafab0edb58df1174e",
      "assetIds": []
    },
    {
      "x": 343,
      "y": 307,
      "size": 1,
      "price": "1011000000000000000000",
      "reserved": "0x7a9fe22691c811ea339d9b73150e6911a5343dca",
      "salt": "0x5a2f41208d39ad012474f3001d549aa312c7abf76cf0464d5a60d024fa9ac950",
      "assetIds": []
    },
    {
      "x": 343,
      "y": 308,
      "size": 1,
      "price": "1011000000000000000000",
      "reserved": "",
      "salt": "0x409d4aa15e8243956c598de0f3d25849baaae9e5f3c4d74cc9adb3e544b3dfff",
      "assetIds": []
    },
    {
      "x": 344,
      "y": 300,
      "size": 1,
      "price": "1011000000000000000000",
      "reserved": "",
      "salt": "0xd437eb3ffb5d6fbdef05a391c785284cb97ae99479cca09432a4b40cd29a91f6",
      "assetIds": []
    },
    {
      "x": 344,
      "y": 301,
      "size": 1,
      "price": "1011000000000000000000",
      "reserved": "0x7a9fe22691c811ea339d9b73150e6911a5343dca",
      "salt": "0x93143eb679010ea6ddde83cc38f255e7298b06fb79b56d25401ff446eb543c7c",
      "assetIds": []
    },
    {
      "x": 344,
      "y": 302,
      "size": 1,
      "price": "1011000000000000000000",
      "reserved": "",
      "salt": "0x84c46954bac99f9714b12ac1b3a494999869e9f2a0f7bb3cde3f1d0a815e8563",
      "assetIds": []
    },
    {
      "x": 344,
      "y": 303,
      "size": 1,
      "price": "1011000000000000000000",
      "reserved": "",
      "salt": "0x5e66307241976bb3d869c98ffabfa8de368836fdee83b51b27ea2bf8ec43c643",
      "assetIds": []
    },
    {
      "x": 344,
      "y": 304,
      "size": 1,
      "price": "1011000000000000000000",
      "reserved": "",
      "salt": "0x3be7efae724d456743cef5a06df3dbc24e8e1ba80e31609727fc098f11d93aaf",
      "assetIds": []
    },
    {
      "x": 344,
      "y": 305,
      "size": 1,
      "price": "1011000000000000000000",
      "reserved": "0x7a9fe22691c811ea339d9b73150e6911a5343dca",
      "salt": "0x838dddf56ed080c89d4a6f8a453225b240a59e065c0b3cc90cc2a12d0fadb3b9",
      "assetIds": []
    },
    {
      "x": 344,
      "y": 306,
      "size": 1,
      "price": "1011000000000000000000",
      "reserved": "",
      "salt": "0x9fa94228c2f36ef80150f6d26b419f8b3f90a2e713dc015563d86e8440ee8af6",
      "assetIds": []
    },
    {
      "x": 344,
      "y": 307,
      "size": 1,
      "price": "1011000000000000000000",
      "reserved": "",
      "salt": "0x51a6c30862e4043a4fa9f02445a1b19523c04c6b7d21c403f0468ed199b85d02",
      "assetIds": []
    },
    {
      "x": 344,
      "y": 308,
      "size": 1,
      "price": "1011000000000000000000",
      "reserved": "",
      "salt": "0xb470163ad5ea49be82e4cf3d99adf1d1b0f6d7cbdba729af2f85f23338268046",
      "assetIds": []
    },
    {
      "x": 297,
      "y": 297,
      "size": 3,
      "price": "8648000000000000000000",
      "reserved": "0x7a9fe22691c811ea339d9b73150e6911a5343dca",
      "salt": "0x4ad52cd07b0e472f4614f8131eefc1677f01ada6be936f7ff5b9d7c8ebfa57b1",
      "assetIds": []
    },
    {
      "x": 303,
      "y": 276,
      "size": 3,
      "price": "8648000000000000000000",
      "reserved": "0x7a9fe22691c811ea339d9b73150e6911a5343dca",
      "salt": "0xeea56a46f1b150f9f26af960bf3049a5fb10f330573ff0e78c4ce76b24d088cc",
      "assetIds": []
    },
    {
      "x": 303,
      "y": 285,
      "size": 3,
      "price": "8648000000000000000000",
      "reserved": "0x7a9fe22691c811ea339d9b73150e6911a5343dca",
      "salt": "0x4a9b66f3e355a5360d00ddd7db3cf2721d200fba8342d59a25de9d4b4370dafc",
      "assetIds": []
    },
    {
      "x": 306,
      "y": 276,
      "size": 3,
      "price": "8648000000000000000000",
      "reserved": "0x7a9fe22691c811ea339d9b73150e6911a5343dca",
      "salt": "0xbdbd1a9f383e1d808d0952524fb8262c27a657998eb34d40c538e520a997ec1d",
      "assetIds": []
    },
    {
      "x": 309,
      "y": 309,
      "size": 3,
      "price": "8648000000000000000000",
      "reserved": "0x7a9fe22691c811ea339d9b73150e6911a5343dca",
      "salt": "0x4dc4bf77e46db738f1bb5155aea2239135805249da5aa911c3e746e0233dafe9",
      "assetIds": []
    },
    {
      "x": 321,
      "y": 288,
      "size": 3,
      "price": "8648000000000000000000",
      "reserved": "0x7a9fe22691c811ea339d9b73150e6911a5343dca",
      "salt": "0x7da74c526facee3367f6ade6d84378921e7a5cd2d9aa1da5f7daf983a403f2ca",
      "assetIds": []
    },
    {
      "x": 282,
      "y": 282,
      "size": 6,
      "price": "32772000000000000000000",
      "reserved": "0x7a9fe22691c811ea339d9b73150e6911a5343dca",
      "salt": "0x69eca5f7daaa4b6ce18995504d09c33655439515e5f4b5f39effb8384c19275f",
      "assetIds": []
    },
    {
      "x": 306,
      "y": 282,
      "size": 6,
      "price": "32772000000000000000000",
      "reserved": "0x7a9fe22691c811ea339d9b73150e6911a5343dca",
      "salt": "0xdbcce660e80dc4a16efca2de718521cdb0f93c57b1a2751a0b8ec9cfa2961d04",
      "assetIds": []
    },
    {
      "x": 312,
      "y": 276,
      "size": 6,
      "price": "32772000000000000000000",
      "reserved": "0x7a9fe22691c811ea339d9b73150e6911a5343dca",
      "salt": "0x76b71185556517956dd712618d45fa5a45e1747dae56d471b7538a55c58bcb35",
      "assetIds": []
    },
    {
      "x": 312,
      "y": 294,
      "size": 6,
      "price": "32772000000000000000000",
      "reserved": "0x7a9fe22691c811ea339d9b73150e6911a5343dca",
      "salt": "0x829c8315f48fd43d1734431239d306b7a9147b1ce03c4a1991a2acd690787b2f",
      "assetIds": []
    },
    {
      "x": 318,
      "y": 276,
      "size": 6,
      "price": "32772000000000000000000",
      "reserved": "0x7a9fe22691c811ea339d9b73150e6911a5343dca",
      "salt": "0x4c8c71138e2ff59d3cc2cc76647418caac0ab5f2e9a2b6ddd612ff478245377f",
      "assetIds": []
    },
    {
      "x": 318,
      "y": 294,
      "size": 6,
      "price": "32772000000000000000000",
      "reserved": "0x7a9fe22691c811ea339d9b73150e6911a5343dca",
      "salt": "0x319e111fb27e10139f735333f9deef7c1394a8137c85ab582bb5a43a7d6333c4",
      "assetIds": []
    },
    {
      "x": 330,
      "y": 306,
      "size": 6,
      "price": "32772000000000000000000",
      "reserved": "0x7a9fe22691c811ea339d9b73150e6911a5343dca",
      "salt": "0x944b74de57172874001220b0c132a878e0029d1f5bb762dde31d35a406d3d162",
      "assetIds": []
    },
    {
      "x": 336,
      "y": 300,
      "size": 6,
      "price": "32772000000000000000000",
      "reserved": "0x7a9fe22691c811ea339d9b73150e6911a5343dca",
      "salt": "0x1a3a3d3bef62bab8874be25e29a0b5bce0e2b32a0c4e086be39c5d13fe49b827",
      "assetIds": []
    },
    {
      "x": 288,
      "y": 300,
      "size": 12,
      "price": "123806000000000000000000",
      "reserved": "0x7a9fe22691c811ea339d9b73150e6911a5343dca",
      "salt": "0x33c5162a835734382140d0a59a0560a60f775e3dc3b16c890733b49647aca295",
      "assetIds": []
    },
    {
      "x": 300,
      "y": 288,
      "size": 12,
      "price": "123806000000000000000000",
      "reserved": "0x7a9fe22691c811ea339d9b73150e6911a5343dca",
      "salt": "0xdad1745eb5ac5caeca5f4e42165153b16f7eb562d1574edb044257cb9181c8a4",
      "assetIds": []
    },
    {
      "x": 312,
      "y": 300,
      "size": 12,
      "price": "123806000000000000000000",
      "reserved": "0x7a9fe22691c811ea339d9b73150e6911a5343dca",
      "salt": "0xb1f369234b20b403d58e608a8249d19e2ebde98bdc4294e65f1c694b083673ea",
      "assetIds": []
    }
  ],
  "solcInputHash": "e17a5bb930c92aaeeb80a52119ce77b7",
  "bytecode": "0x610160604052620d2f0060055534801561001857600080fd5b506040516200284d3803806200284d83398181016040526101a081101561003e57600080fd5b50805160208201516040830151606080850151608086015160a08088015160c0808a015160e08b01516101008c01516101208d01516101408e01516101608f0151610180909f0151600280546001600160a01b0319166001600160a01b03871617905560038490558e8c1b6001600160601b03199081169099529a8d901b9097169094529a9b999a98999698959793969195909490939091906100e28b600161015d565b600680546001600160a01b039a8b166001600160a01b031991821617909155610140989098526101209690965260008054998916998816999099179098556001600160601b0319606092831b811660e05290821b811660805296901b909516610100525060078054919093169116179055506101c192505050565b6001600160a01b038216600081815260016020908152604091829020805460ff191685151590811790915582519384529083015280517fb21eb88b4e33b3f1281830a7178d74d8aa73220416215726b68ae23d539515cb9281900390910190a15050565b60805160601c60a05160601c60c05160601c60e05160601c6101005160601c61012051610140516126066200024760003980610b3d528061206c525080610b1952806112ec5250806120da525080611841528061199e5250806117f75280611b9d528061210e525080611872528061196f525080610eb25280611c8952506126066000f3fe608060405234801561001057600080fd5b506004361061011b5760003560e01c80638f283970116100b2578063c10a420811610081578063dc5074af11610066578063dc5074af1461085f578063e56f8a9e14610885578063f23a6e61146108a25761011b565b8063c10a420814610780578063caed3500146108575761011b565b80638f28397014610500578063984d625214610526578063b522ecff146105f8578063bc197c811461061e5761011b565b806365194ce7116100ee57806365194ce7146103485780636e9960c3146104a657806377f1c3ac146104ca5780638a04af6a146104d25761011b565b80631187fd3c1461012057806325cb5bc014610300578063495906571461031a57806358bc294414610322575b600080fd5b6102fe600480360361012081101561013757600080fd5b6001600160a01b038235811692602081013582169260408201359092169181019060808101606082013564010000000081111561017357600080fd5b82018360208201111561018557600080fd5b803590602001918460208302840111640100000000831117156101a757600080fd5b919390928235926040810190602001356401000000008111156101c957600080fd5b8201836020820111156101db57600080fd5b803590602001918460208302840111640100000000831117156101fd57600080fd5b91939092909160208101903564010000000081111561021b57600080fd5b82018360208201111561022d57600080fd5b8035906020019184602083028401116401000000008311171561024f57600080fd5b91939092909160208101903564010000000081111561026d57600080fd5b82018360208201111561027f57600080fd5b803590602001918460018302840111640100000000831117156102a157600080fd5b9193909290916020810190356401000000008111156102bf57600080fd5b8201836020820111156102d157600080fd5b803590602001918460018302840111640100000000831117156102f357600080fd5b509092509050610937565b005b610308610b17565b60408051918252519081900360200190f35b610308610b3b565b6102fe6004803603602081101561033857600080fd5b50356001600160a01b0316610b5f565b6103ee6004803603602081101561035e57600080fd5b81019060208101813564010000000081111561037957600080fd5b82018360208201111561038b57600080fd5b803590602001918460018302840111640100000000831117156103ad57600080fd5b91908080601f016020809104026020016040519081016040528093929190818152602001838380828437600092019190915250929550610c0a945050505050565b6040518080602001866001600160a01b03166001600160a01b03168152602001856001600160a01b03166001600160a01b03168152602001848152602001838152602001828103825287818151815260200191508051906020019080838360005b8381101561046757818101518382015260200161044f565b50505050905090810190601f1680156104945780820380516001836020036101000a031916815260200191505b50965050505050505060405180910390f35b6104ae610d0f565b604080516001600160a01b039092168252519081900360200190f35b610308610d1e565b6102fe600480360360408110156104e857600080fd5b506001600160a01b0381351690602001351515610d24565b6102fe6004803603602081101561051657600080fd5b50356001600160a01b0316610d7b565b6102fe6004803603606081101561053c57600080fd5b6001600160a01b03823516919081019060408101602082013564010000000081111561056757600080fd5b82018360208201111561057957600080fd5b8035906020019184602083028401116401000000008311171561059b57600080fd5b9193909290916020810190356401000000008111156105b957600080fd5b8201836020820111156105cb57600080fd5b803590602001918460208302840111640100000000831117156105ed57600080fd5b509092509050610e51565b6102fe6004803603602081101561060e57600080fd5b50356001600160a01b0316610fdc565b61074b600480360360a081101561063457600080fd5b6001600160a01b03823581169260208101359091169181019060608101604082013564010000000081111561066857600080fd5b82018360208201111561067a57600080fd5b8035906020019184602083028401116401000000008311171561069c57600080fd5b9193909290916020810190356401000000008111156106ba57600080fd5b8201836020820111156106cc57600080fd5b803590602001918460208302840111640100000000831117156106ee57600080fd5b91939092909160208101903564010000000081111561070c57600080fd5b82018360208201111561071e57600080fd5b8035906020019184600183028401116401000000008311171561074057600080fd5b5090925090506110c5565b604080517fffffffff000000000000000000000000000000000000000000000000000000009092168252519081900360200190f35b610843600480360360a081101561079657600080fd5b8101906020810181356401000000008111156107b157600080fd5b8201836020820111156107c357600080fd5b803590602001918460018302840111640100000000831117156107e557600080fd5b91908080601f016020809104026020016040519081016040528093929190818152602001838380828437600092019190915250929550506001600160a01b0383358116945060208401351692604081013592506060013590506110f2565b604080519115158252519081900360200190f35b6104ae61122e565b6108436004803603602081101561087557600080fd5b50356001600160a01b031661123d565b6102fe6004803603602081101561089b57600080fd5b503561125b565b61074b600480360360a08110156108b857600080fd5b6001600160a01b03823581169260208101359091169160408201359160608101359181019060a0810160808201356401000000008111156108f857600080fd5b82018360208201111561090a57600080fd5b8035906020019184600183028401116401000000008311171561092c57600080fd5b5090925090506112bf565b6109418e8d6112ea565b610a388d8d8d8d80806020026020016040519081016040528093929190818152602001838360200280828437600081840152601f19601f820116905080830192505050505050508c8c8c80806020026020016040519081016040528093929190818152602001838360200280828437600081840152601f19601f820116905080830192505050505050508b8b8080602002602001604051908101604052809392919081815260200183836020028082843760009201919091525050604080516020601f8d018190048102820181019092528b815292508b91508a908190840183828082843760009201919091525061144d92505050565b610a8c8e8c8c6003818110610a4957fe5b9050602002013586868080601f0160208091040260200160405190810160405280939291908181526020018383808284376000920191909152506117d092505050565b610aca8e8e8d8d8080602002602001604051908101604052809392919081815260200183836020028082843760009201919091525061182192505050565b610b078d898980806020026020016040519081016040528093929190818152602001838360200280828437600092019190915250611c1292505050565b5050505050505050505050505050565b7f000000000000000000000000000000000000000000000000000000000000000090565b7f000000000000000000000000000000000000000000000000000000000000000090565b6000546001600160a01b03163314610bbe576040805162461bcd60e51b815260206004820152601060248201527f53656e646572206e6f742061646d696e00000000000000000000000000000000604482015290519081900360640190fd5b600554600280546001600160a01b03908116600090815260046020526040902042909301909255805473ffffffffffffffffffffffffffffffffffffffff191692909116919091179055565b606060008060008060606000806000808a80602001905160a0811015610c2f57600080fd5b8101908080516040519392919084640100000000821115610c4f57600080fd5b908301906020820185811115610c6457600080fd5b8251640100000000811182820188101715610c7e57600080fd5b82525081516020918201929091019080838360005b83811015610cab578181015183820152602001610c93565b50505050905090810190601f168015610cd85780820380516001836020036101000a031916815260200191505b5060409081526020820151908201516060830151608090930151959f50909d509b5099509197505050505050505091939590929450565b6000546001600160a01b031690565b60035490565b6000546001600160a01b03163314610d6d5760405162461bcd60e51b815260040180806020018281038252602e8152602001806125a3602e913960400191505060405180910390fd5b610d778282611dd6565b5050565b6000546001600160a01b03163314610dda576040805162461bcd60e51b815260206004820152601b60248201527f6f6e6c792061646d696e2063616e206368616e67652061646d696e0000000000604482015290519081900360640190fd5b600054604080516001600160a01b039283168152918316602083015280517f7e644d79422f17c01e4894b5f4f588d331ebfa28653d42ae832dc59e38c9798f9281900390910190a16000805473ffffffffffffffffffffffffffffffffffffffff19166001600160a01b0392909216919091179055565b6000546001600160a01b03163314610eb0576040805162461bcd60e51b815260206004820152600e60248201527f4e4f545f415554484f52495a4544000000000000000000000000000000000000604482015290519081900360640190fd5b7f00000000000000000000000000000000000000000000000000000000000000006001600160a01b0316632eb2c2d63087878787876040518763ffffffff1660e01b815260040180876001600160a01b03166001600160a01b03168152602001866001600160a01b03166001600160a01b031681526020018060200180602001806020018481038452888882818152602001925060200280828437600083820152601f01601f19169091018581038452868152602090810191508790870280828437600081840152601f19601f8201169050808301925050508481038252600081526020016020019950505050505050505050600060405180830381600087803b158015610fbd57600080fd5b505af1158015610fd1573d6000803e3d6000fd5b505050505050505050565b6001600160a01b038116611037576040805162461bcd60e51b815260206004820152600c60248201527f5a45524f5f414444524553530000000000000000000000000000000000000000604482015290519081900360640190fd5b6000546001600160a01b03163314611096576040805162461bcd60e51b815260206004820152600e60248201527f4e4f545f415554484f52495a4544000000000000000000000000000000000000604482015290519081900360640190fd5b6006805473ffffffffffffffffffffffffffffffffffffffff19166001600160a01b0392909216919091179055565b7fbc197c810000000000000000000000000000000000000000000000000000000098975050505050505050565b60006003548211806111155750836001600160a01b0316856001600160a01b0316145b8061111f57508242115b1561112c57506000611225565b60408051606087811b7fffffffffffffffffffffffffffffffffffffffff0000000000000000000000009081166020808501919091529188901b166034830152604882018690526068808301869052835180840390910181526088830184528051908201207f19457468657265756d205369676e6564204d6573736167653a0a33320000000060a884015260c48084018290528451808503909101815260e490930190935281519101206000906111e39089611e58565b6001600160a01b038116600090815260046020526040902054909150421161121057600192505050611225565b6002546001600160a01b039081169116149150505b95945050505050565b6002546001600160a01b031690565b6001600160a01b031660009081526001602052604090205460ff1690565b6000546001600160a01b031633146112ba576040805162461bcd60e51b815260206004820152601060248201527f53656e646572206e6f742061646d696e00000000000000000000000000000000604482015290519081900360640190fd5b600355565b7ff23a6e61000000000000000000000000000000000000000000000000000000009695505050505050565b7f0000000000000000000000000000000000000000000000000000000000000000421061135e576040805162461bcd60e51b815260206004820152600c60248201527f53414c455f49535f4f5645520000000000000000000000000000000000000000604482015290519081900360640190fd5b6001600160a01b03821633148061138457503360009081526001602052604090205460ff165b6113d5576040805162461bcd60e51b815260206004820152600e60248201527f4e4f545f415554484f52495a4544000000000000000000000000000000000000604482015290519081900360640190fd5b6001600160a01b03811615806113fc5750816001600160a01b0316816001600160a01b0316145b610d77576040805162461bcd60e51b815260206004820152600d60248201527f52455345525645445f4c414e4400000000000000000000000000000000000000604482015290519081900360640190fd5b600087878760008151811061145e57fe5b60200260200101518860018151811061147357fe5b60200260200101518960028151811061148857fe5b60200260200101518a60038151811061149d57fe5b60200260200101518a8a60405160200180828051906020019060200280838360005b838110156114d75781810151838201526020016114bf565b50505050905001915050604051602081830303815290604052805190602001208a60405160200180828051906020019060200280838360005b83811015611528578181015183820152602001611510565b5050505090500191505060405160208183030381529060405280519060200120604051602001808a6001600160a01b03166001600160a01b031660601b8152601401896001600160a01b03166001600160a01b031660601b81526014018881526020018781526020018681526020018581526020018481526020018381526020018281526020019950505050505050505050604051602081830303815290604052805190602001209050600760009054906101000a90046001600160a01b03166001600160a01b031663012847ed83836040518363ffffffff1660e01b81526004018080602001838152602001828103825284818151815260200191508051906020019080838360005b8381101561164a578181015183820152602001611632565b50505050905090810190601f1680156116775780820380516001836020036101000a031916815260200191505b50935050505060206040518083038186803b15801561169557600080fd5b505afa1580156116a9573d6000803e3d6000fd5b505050506040513d60208110156116bf57600080fd5b5051611712576040805162461bcd60e51b815260206004820152600c60248201527f494e56414c49445f415554480000000000000000000000000000000000000000604482015290519081900360640190fd5b60006117738760008151811061172457fe5b60200260200101518860018151811061173957fe5b60200260200101518960028151811061174e57fe5b60200260200101518a60038151811061176357fe5b60200260200101518c8b8b611f25565b905061177f8482611fca565b610fd1576040805162461bcd60e51b815260206004820152600c60248201527f494e56414c49445f4c414e440000000000000000000000000000000000000000604482015290519081900360640190fd5b60006117dc8484612095565b60065490915061181b908590839085906001600160a01b03167f00000000000000000000000000000000000000000000000000000000000000006121ee565b50505050565b8060028151811061182e57fe5b60200260200101516001148061186b57507f00000000000000000000000000000000000000000000000000000000000000006001600160a01b0316155b1561196d577f00000000000000000000000000000000000000000000000000000000000000006001600160a01b0316636e1e3bbf83836002815181106118ad57fe5b6020026020010151846000815181106118c257fe5b6020026020010151856001815181106118d757fe5b60200260200101516040518563ffffffff1660e01b815260040180856001600160a01b03166001600160a01b031681526020018481526020018381526020018281526020018060200182810382526000815260200160200195505050505050600060405180830381600087803b15801561195057600080fd5b505af1158015611964573d6000803e3d6000fd5b50505050611b0d565b7f00000000000000000000000000000000000000000000000000000000000000006001600160a01b0316636e1e3bbf7f0000000000000000000000000000000000000000000000000000000000000000836002815181106119ca57fe5b6020026020010151846000815181106119df57fe5b6020026020010151856001815181106119f457fe5b60200260200101518760405160200180826001600160a01b03166001600160a01b031681526020019150506040516020818303038152906040526040518663ffffffff1660e01b815260040180866001600160a01b03166001600160a01b0316815260200185815260200184815260200183815260200180602001828103825283818151815260200191508051906020019080838360005b83811015611aa4578181015183820152602001611a8c565b50505050905090810190601f168015611ad15780820380516001836020036101000a031916815260200191505b509650505050505050600060405180830381600087803b158015611af457600080fd5b505af1158015611b08573d6000803e3d6000fd5b505050505b61019881600181518110611b1d57fe5b60200260200101510281600081518110611b3357fe5b602002602001015101826001600160a01b0316846001600160a01b03167fe4dfa6ac11314892f3029b34a25b1a887da3b1cab2bbf8506d87128ba6e3ac0284600281518110611b7e57fe5b602002602001015185600381518110611b9357fe5b60200260200101517f000000000000000000000000000000000000000000000000000000000000000087600381518110611bc957fe5b602002602001015160405180858152602001848152602001836001600160a01b03166001600160a01b0316815260200182815260200194505050505060405180910390a4505050565b6060815167ffffffffffffffff81118015611c2c57600080fd5b50604051908082528060200260200182016040528015611c56578160200160208202803683370190505b50905060005b8251811015611c86576001828281518110611c7357fe5b6020908102919091010152600101611c5c565b507f00000000000000000000000000000000000000000000000000000000000000006001600160a01b0316632eb2c2d6308585856040518563ffffffff1660e01b815260040180856001600160a01b03166001600160a01b03168152602001846001600160a01b03166001600160a01b03168152602001806020018060200180602001848103845286818151815260200191508051906020019060200280838360005b83811015611d41578181015183820152602001611d29565b50505050905001848103835285818151815260200191508051906020019060200280838360005b83811015611d80578181015183820152602001611d68565b50505050905001848103825260008152602001602001975050505050505050600060405180830381600087803b158015611db957600080fd5b505af1158015611dcd573d6000803e3d6000fd5b50505050505050565b6001600160a01b03821660008181526001602090815260409182902080547fffffffffffffffffffffffffffffffffffffffffffffffffffffffffffffff001685151590811790915582519384529083015280517fb21eb88b4e33b3f1281830a7178d74d8aa73220416215726b68ae23d539515cb9281900390910190a15050565b60008151604114611e6857600080fd5b60208201516040830151606084015160001a601b811015611e8757601b015b8060ff16601b1480611e9c57508060ff16601c145b611ea557600080fd5b6040805160008152602080820180845289905260ff8416828401526060820186905260808201859052915160019260a0808401939192601f1981019281900390910190855afa158015611efc573d6000803e3d6000fd5b5050604051601f1901519450506001600160a01b038416611f1c57600080fd5b50505092915050565b60008787878787878760405160200180888152602001878152602001868152602001858152602001846001600160a01b03166001600160a01b031660601b8152601401838152602001828051906020019060200280838360005b83811015611f97578181015183820152602001611f7f565b50505050905001975050505050505050604051602081830303815290604052805190602001209050979650505050505050565b600081815b8451811015612069576000858281518110611fe657fe5b602002602001015190508083101561202e5782816040516020018083815260200182815260200192505050604051602081830303815290604052805190602001209250612060565b808360405160200180838152602001828152602001925050506040516020818303038152906040528051906020012092505b50600101611fcf565b507f00000000000000000000000000000000000000000000000000000000000000001490505b92915050565b6000806120ba60646120ae85600563ffffffff61247016565b9063ffffffff6124e016565b604080516323b872dd60e01b81526001600160a01b0387811660048301527f0000000000000000000000000000000000000000000000000000000000000000811660248301526044820184905291519293507f0000000000000000000000000000000000000000000000000000000000000000909116916323b872dd916064808201926020929091908290030181600087803b15801561215957600080fd5b505af115801561216d573d6000803e3d6000fd5b505050506040513d602081101561218357600080fd5b50516121d6576040805162461bcd60e51b815260206004820152601360248201527f4645455f5452414e534645525f4641494c454400000000000000000000000000604482015290519081900360640190fd5b6121e6838263ffffffff61254516565b949350505050565b8251819085901561239857606060008060008061220a8a610c0a565b939850919650945092509050600061222586868686866110f2565b156122b35761223f6122378d84612470565b6127106124e0565b9050886001600160a01b0316846001600160a01b0316866001600160a01b03167fac7a699eb95c3c6d390ec4626de17ef9a67b35891efdb197beba7c7fdd45fac48f858760405180848152602001838152602001828152602001935050505060405180910390a46122b08782612545565b96505b801561239157604080516323b872dd60e01b81526001600160a01b038f811660048301528781166024830152604482018490529151918a16916323b872dd916064808201926020929091908290030181600087803b15801561231457600080fd5b505af1158015612328573d6000803e3d6000fd5b505050506040513d602081101561233e57600080fd5b5051612391576040805162461bcd60e51b815260206004820152601960248201527f636f6d6d6973696f6e207472616e73666572206661696c656400000000000000604482015290519081900360640190fd5b5050505050505b604080516323b872dd60e01b81526001600160a01b0389811660048301528681166024830152604482018490529151918416916323b872dd916064808201926020929091908290030181600087803b1580156123f357600080fd5b505af1158015612407573d6000803e3d6000fd5b505050506040513d602081101561241d57600080fd5b5051611dcd576040805162461bcd60e51b815260206004820152601760248201527f7061796d656e74207472616e73666572206661696c6564000000000000000000604482015290519081900360640190fd5b60008261247f5750600061208f565b508181028183828161248d57fe5b041461208f576040805162461bcd60e51b815260206004820152600860248201527f6f766572666c6f77000000000000000000000000000000000000000000000000604482015290519081900360640190fd5b600081612534576040805162461bcd60e51b815260206004820152600960248201527f64697662797a65726f0000000000000000000000000000000000000000000000604482015290519081900360640190fd5b81838161253d57fe5b049392505050565b60008282111561259c576040805162461bcd60e51b815260206004820152600860248201527f756e6465666c6f77000000000000000000000000000000000000000000000000604482015290519081900360640190fd5b5090039056fe6f6e6c792061646d696e2063616e207365747570206d6574615472616e73616374696f6e50726f636573736f7273a2646970667358221220fc9205bafc138c1de206481f144dc3e7818922fbe1a20d2a71392e5e2e413c1a64736f6c63430006050033",
  "devdoc": {
    "methods": {
      "buyLandWithSand(address,address,address,uint256[],bytes32,uint256[],bytes32[],bytes,bytes)": {
        "params": {
          "buyer": "address that perform the payment",
          "info": "[X_INDEX=0] x coordinate of the Land [Y_INDEX=1] y coordinate of the Land [SIZE_INDEX=2] size of the pack of Land to purchase [PRICE_INDEX=3] price in SAND to purchase that Land",
          "proof": "merkleProof for that particular Land",
          "reserved": "the reserved address (if any)",
          "to": "address that will own the purchased Land"
        }
      },
      "changeAdmin(address)": {
        "details": "change the administrator to be `newAdmin`.",
        "params": {
          "newAdmin": "address of the new administrator."
        }
      },
      "getAdmin()": {
        "details": "gives the current administrator of this contract.",
        "returns": {
          "_0": "the current administrator of this contract."
        }
      },
      "getSigningWallet()": {
        "details": "signing wallet authorized for referral",
        "returns": {
          "_0": "the address of the signing wallet"
        }
      },
      "isMetaTransactionProcessor(address)": {
        "details": "check whether address `who` is given meta-transaction execution rights.",
        "params": {
          "who": "The address to query."
        },
        "returns": {
          "_0": "whether the address has meta-transaction execution rights."
        }
      },
      "isReferralValid(bytes,address,address,uint256,uint256)": {
        "params": {
          "commissionRate": "The commissionRate of the referral",
          "expiryTime": "The expiry time of the referral",
          "referee": "The address of the referee",
          "referrer": "The address of the referrer",
          "signature": "The signature to check (signed referral)"
        },
        "returns": {
          "_0": "True if the referral is valid"
        }
      },
      "setMetaTransactionProcessor(address,bool)": {
        "details": "Enable or disable the ability of `metaTransactionProcessor` to perform meta-tx (metaTransactionProcessor rights).",
        "params": {
          "enabled": "set whether the metaTransactionProcessor is enabled or disabled.",
          "metaTransactionProcessor": "address that will be given/removed metaTransactionProcessor rights."
        }
      },
      "setReceivingWallet(address)": {
        "params": {
          "newWallet": "address of the new receiving wallet"
        }
      },
      "updateMaxCommissionRate(uint256)": {
        "details": "Update the maximum commission rate",
        "params": {
          "newMaxCommissionRate": "The new maximum commission rate"
        }
      },
      "updateSigningWallet(address)": {
        "details": "Update the signing wallet",
        "params": {
          "newSigningWallet": "The new address of the signing wallet"
        }
      },
      "withdrawAssets(address,uint256[],uint256[])": {
        "params": {
          "assetIds": "the assetIds to be transferred",
          "to": "intended recipient of the asset tokens",
          "values": "the quantities of the assetIds to be transferred"
        }
      }
    },
    "title": "Estate Sale contract with referral"
  },
  "userdoc": {
    "methods": {
      "buyLandWithSand(address,address,address,uint256[],bytes32,uint256[],bytes32[],bytes,bytes)": {
        "notice": "buy Land with SAND using the merkle proof associated with it"
      },
      "getExpiryTime()": {
        "notice": "Gets the expiry time for the current sale"
      },
      "getMaxCommisionRate()": {
        "notice": "the max commision rate"
      },
      "getMerkleRoot()": {
        "notice": "Gets the Merkle root associated with the current sale"
      },
      "isReferralValid(bytes,address,address,uint256,uint256)": {
        "notice": "Check if a referral is valid"
      },
      "setReceivingWallet(address)": {
        "notice": "set the wallet receiving the proceeds"
      },
      "withdrawAssets(address,uint256[],uint256[])": {
        "notice": "enable Admin to withdraw remaining assets from EstateSaleWithFee contract"
      }
    },
    "notice": "This contract manages the sale of our lands as Estates"
  },
  "storageLayout": {
    "storage": [
      {
        "astId": 13650,
        "contract": "src/solc_0.6/EstateSale/EstateSaleWithAuth.sol:EstateSaleWithAuth",
        "label": "_admin",
        "offset": 0,
        "slot": "0",
        "type": "t_address"
      },
      {
        "astId": 13712,
        "contract": "src/solc_0.6/EstateSale/EstateSaleWithAuth.sol:EstateSaleWithAuth",
        "label": "_metaTransactionContracts",
        "offset": 0,
        "slot": "1",
        "type": "t_mapping(t_address,t_bool)"
      },
      {
        "astId": 11828,
        "contract": "src/solc_0.6/EstateSale/EstateSaleWithAuth.sol:EstateSaleWithAuth",
        "label": "_signingWallet",
        "offset": 0,
        "slot": "2",
        "type": "t_address"
      },
      {
        "astId": 11830,
        "contract": "src/solc_0.6/EstateSale/EstateSaleWithAuth.sol:EstateSaleWithAuth",
        "label": "_maxCommissionRate",
        "offset": 0,
        "slot": "3",
        "type": "t_uint256"
      },
      {
        "astId": 11834,
        "contract": "src/solc_0.6/EstateSale/EstateSaleWithAuth.sol:EstateSaleWithAuth",
        "label": "_previousSigningWallets",
        "offset": 0,
        "slot": "4",
        "type": "t_mapping(t_address,t_uint256)"
      },
      {
        "astId": 11843,
        "contract": "src/solc_0.6/EstateSale/EstateSaleWithAuth.sol:EstateSaleWithAuth",
        "label": "_previousSigningDelay",
        "offset": 0,
        "slot": "5",
        "type": "t_uint256"
      },
      {
        "astId": 7453,
        "contract": "src/solc_0.6/EstateSale/EstateSaleWithAuth.sol:EstateSaleWithAuth",
        "label": "_wallet",
        "offset": 0,
        "slot": "6",
        "type": "t_address_payable"
      },
      {
        "astId": 7455,
        "contract": "src/solc_0.6/EstateSale/EstateSaleWithAuth.sol:EstateSaleWithAuth",
        "label": "_authValidator",
        "offset": 0,
        "slot": "7",
        "type": "t_contract(AuthValidator)6784"
      }
    ],
    "types": {
      "t_address": {
        "encoding": "inplace",
        "label": "address",
        "numberOfBytes": "20"
      },
      "t_address_payable": {
        "encoding": "inplace",
        "label": "address payable",
        "numberOfBytes": "20"
      },
      "t_bool": {
        "encoding": "inplace",
        "label": "bool",
        "numberOfBytes": "1"
      },
      "t_contract(AuthValidator)6784": {
        "encoding": "inplace",
        "label": "contract AuthValidator",
        "numberOfBytes": "20"
      },
      "t_mapping(t_address,t_bool)": {
        "encoding": "mapping",
        "key": "t_address",
        "label": "mapping(address => bool)",
        "numberOfBytes": "32",
        "value": "t_bool"
      },
      "t_mapping(t_address,t_uint256)": {
        "encoding": "mapping",
        "key": "t_address",
        "label": "mapping(address => uint256)",
        "numberOfBytes": "32",
        "value": "t_uint256"
      },
      "t_uint256": {
        "encoding": "inplace",
        "label": "uint256",
        "numberOfBytes": "32"
      }
    }
  }
}