{
  "abi": [
    {
      "inputs": [
        {
          "internalType": "address",
          "name": "landAddress",
          "type": "address"
        },
        {
          "internalType": "address",
          "name": "sandContractAddress",
          "type": "address"
        },
        {
          "internalType": "address",
          "name": "initialMetaTx",
          "type": "address"
        },
        {
          "internalType": "address",
          "name": "admin",
          "type": "address"
        },
        {
          "internalType": "address payable",
          "name": "initialWalletAddress",
          "type": "address"
        },
        {
          "internalType": "bytes32",
          "name": "merkleRoot",
          "type": "bytes32"
        },
        {
          "internalType": "uint256",
          "name": "expiryTime",
          "type": "uint256"
        },
        {
          "internalType": "address",
          "name": "initialSigningWallet",
          "type": "address"
        },
        {
          "internalType": "uint256",
          "name": "initialMaxCommissionRate",
          "type": "uint256"
        },
        {
          "internalType": "address",
          "name": "estate",
          "type": "address"
        },
        {
          "internalType": "address",
          "name": "asset",
          "type": "address"
        },
        {
          "internalType": "address",
          "name": "feeDistributor",
          "type": "address"
        }
      ],
      "stateMutability": "nonpayable",
      "type": "constructor"
    },
    {
      "anonymous": false,
      "inputs": [
        {
          "indexed": false,
          "internalType": "address",
          "name": "oldAdmin",
          "type": "address"
        },
        {
          "indexed": false,
          "internalType": "address",
          "name": "newAdmin",
          "type": "address"
        }
      ],
      "name": "AdminChanged",
      "type": "event"
    },
    {
      "anonymous": false,
      "inputs": [
        {
          "indexed": true,
          "internalType": "address",
          "name": "buyer",
          "type": "address"
        },
        {
          "indexed": true,
          "internalType": "address",
          "name": "to",
          "type": "address"
        },
        {
          "indexed": true,
          "internalType": "uint256",
          "name": "topCornerId",
          "type": "uint256"
        },
        {
          "indexed": false,
          "internalType": "uint256",
          "name": "size",
          "type": "uint256"
        },
        {
          "indexed": false,
          "internalType": "uint256",
          "name": "price",
          "type": "uint256"
        },
        {
          "indexed": false,
          "internalType": "address",
          "name": "token",
          "type": "address"
        },
        {
          "indexed": false,
          "internalType": "uint256",
          "name": "amountPaid",
          "type": "uint256"
        }
      ],
      "name": "LandQuadPurchased",
      "type": "event"
    },
    {
      "anonymous": false,
      "inputs": [
        {
          "indexed": false,
          "internalType": "address",
          "name": "metaTransactionProcessor",
          "type": "address"
        },
        {
          "indexed": false,
          "internalType": "bool",
          "name": "enabled",
          "type": "bool"
        }
      ],
      "name": "MetaTransactionProcessor",
      "type": "event"
    },
    {
      "anonymous": false,
      "inputs": [
        {
          "indexed": true,
          "internalType": "address",
          "name": "referrer",
          "type": "address"
        },
        {
          "indexed": true,
          "internalType": "address",
          "name": "referee",
          "type": "address"
        },
        {
          "indexed": true,
          "internalType": "address",
          "name": "token",
          "type": "address"
        },
        {
          "indexed": false,
          "internalType": "uint256",
          "name": "amount",
          "type": "uint256"
        },
        {
          "indexed": false,
          "internalType": "uint256",
          "name": "commission",
          "type": "uint256"
        },
        {
          "indexed": false,
          "internalType": "uint256",
          "name": "commissionRate",
          "type": "uint256"
        }
      ],
      "name": "ReferralUsed",
      "type": "event"
    },
    {
      "inputs": [
        {
          "internalType": "address",
          "name": "buyer",
          "type": "address"
        },
        {
          "internalType": "address",
          "name": "to",
          "type": "address"
        },
        {
          "internalType": "address",
          "name": "reserved",
          "type": "address"
        },
        {
          "internalType": "uint256",
          "name": "x",
          "type": "uint256"
        },
        {
          "internalType": "uint256",
          "name": "y",
          "type": "uint256"
        },
        {
          "internalType": "uint256",
          "name": "size",
          "type": "uint256"
        },
        {
          "internalType": "uint256",
          "name": "priceInSand",
          "type": "uint256"
        },
        {
          "internalType": "uint256",
          "name": "adjustedPriceInSand",
          "type": "uint256"
        },
        {
          "internalType": "bytes32",
          "name": "salt",
          "type": "bytes32"
        },
        {
          "internalType": "uint256[]",
          "name": "assetIds",
          "type": "uint256[]"
        },
        {
          "internalType": "bytes32[]",
          "name": "proof",
          "type": "bytes32[]"
        },
        {
          "internalType": "bytes",
          "name": "referral",
          "type": "bytes"
        }
      ],
      "name": "buyLandWithSand",
      "outputs": [],
      "stateMutability": "nonpayable",
      "type": "function"
    },
    {
      "inputs": [
        {
          "internalType": "address",
          "name": "newAdmin",
          "type": "address"
        }
      ],
      "name": "changeAdmin",
      "outputs": [],
      "stateMutability": "nonpayable",
      "type": "function"
    },
    {
      "inputs": [
        {
          "internalType": "bytes",
          "name": "referral",
          "type": "bytes"
        }
      ],
      "name": "decodeReferral",
      "outputs": [
        {
          "internalType": "bytes",
          "name": "",
          "type": "bytes"
        },
        {
          "internalType": "address",
          "name": "",
          "type": "address"
        },
        {
          "internalType": "address",
          "name": "",
          "type": "address"
        },
        {
          "internalType": "uint256",
          "name": "",
          "type": "uint256"
        },
        {
          "internalType": "uint256",
          "name": "",
          "type": "uint256"
        }
      ],
      "stateMutability": "pure",
      "type": "function"
    },
    {
      "inputs": [],
      "name": "getAdmin",
      "outputs": [
        {
          "internalType": "address",
          "name": "",
          "type": "address"
        }
      ],
      "stateMutability": "view",
      "type": "function"
    },
    {
      "inputs": [],
      "name": "getExpiryTime",
      "outputs": [
        {
          "internalType": "uint256",
          "name": "",
          "type": "uint256"
        }
      ],
      "stateMutability": "view",
      "type": "function"
    },
    {
      "inputs": [],
      "name": "getMaxCommisionRate",
      "outputs": [
        {
          "internalType": "uint256",
          "name": "",
          "type": "uint256"
        }
      ],
      "stateMutability": "view",
      "type": "function"
    },
    {
      "inputs": [],
      "name": "getMerkleRoot",
      "outputs": [
        {
          "internalType": "bytes32",
          "name": "",
          "type": "bytes32"
        }
      ],
      "stateMutability": "view",
      "type": "function"
    },
    {
      "inputs": [],
      "name": "getSandMultiplier",
      "outputs": [
        {
          "internalType": "uint256",
          "name": "",
          "type": "uint256"
        }
      ],
      "stateMutability": "view",
      "type": "function"
    },
    {
      "inputs": [],
      "name": "getSigningWallet",
      "outputs": [
        {
          "internalType": "address",
          "name": "",
          "type": "address"
        }
      ],
      "stateMutability": "view",
      "type": "function"
    },
    {
      "inputs": [
        {
          "internalType": "address",
          "name": "who",
          "type": "address"
        }
      ],
      "name": "isMetaTransactionProcessor",
      "outputs": [
        {
          "internalType": "bool",
          "name": "",
          "type": "bool"
        }
      ],
      "stateMutability": "view",
      "type": "function"
    },
    {
      "inputs": [
        {
          "internalType": "bytes",
          "name": "signature",
          "type": "bytes"
        },
        {
          "internalType": "address",
          "name": "referrer",
          "type": "address"
        },
        {
          "internalType": "address",
          "name": "referee",
          "type": "address"
        },
        {
          "internalType": "uint256",
          "name": "expiryTime",
          "type": "uint256"
        },
        {
          "internalType": "uint256",
          "name": "commissionRate",
          "type": "uint256"
        }
      ],
      "name": "isReferralValid",
      "outputs": [
        {
          "internalType": "bool",
          "name": "",
          "type": "bool"
        }
      ],
      "stateMutability": "view",
      "type": "function"
    },
    {
      "inputs": [
        {
          "internalType": "address",
          "name": "",
          "type": "address"
        },
        {
          "internalType": "address",
          "name": "",
          "type": "address"
        },
        {
          "internalType": "uint256[]",
          "name": "",
          "type": "uint256[]"
        },
        {
          "internalType": "uint256[]",
          "name": "",
          "type": "uint256[]"
        },
        {
          "internalType": "bytes",
          "name": "",
          "type": "bytes"
        }
      ],
      "name": "onERC1155BatchReceived",
      "outputs": [
        {
          "internalType": "bytes4",
          "name": "",
          "type": "bytes4"
        }
      ],
      "stateMutability": "pure",
      "type": "function"
    },
    {
      "inputs": [
        {
          "internalType": "address",
          "name": "",
          "type": "address"
        },
        {
          "internalType": "address",
          "name": "",
          "type": "address"
        },
        {
          "internalType": "uint256",
          "name": "",
          "type": "uint256"
        },
        {
          "internalType": "uint256",
          "name": "",
          "type": "uint256"
        },
        {
          "internalType": "bytes",
          "name": "",
          "type": "bytes"
        }
      ],
      "name": "onERC1155Received",
      "outputs": [
        {
          "internalType": "bytes4",
          "name": "",
          "type": "bytes4"
        }
      ],
      "stateMutability": "pure",
      "type": "function"
    },
    {
      "inputs": [
        {
          "internalType": "uint256",
          "name": "newMultiplier",
          "type": "uint256"
        }
      ],
      "name": "rebalanceSand",
      "outputs": [],
      "stateMutability": "nonpayable",
      "type": "function"
    },
    {
      "inputs": [
        {
          "internalType": "address",
          "name": "metaTransactionProcessor",
          "type": "address"
        },
        {
          "internalType": "bool",
          "name": "enabled",
          "type": "bool"
        }
      ],
      "name": "setMetaTransactionProcessor",
      "outputs": [],
      "stateMutability": "nonpayable",
      "type": "function"
    },
    {
      "inputs": [
        {
          "internalType": "address payable",
          "name": "newWallet",
          "type": "address"
        }
      ],
      "name": "setReceivingWallet",
      "outputs": [],
      "stateMutability": "nonpayable",
      "type": "function"
    },
    {
      "inputs": [
        {
          "internalType": "uint256",
          "name": "newMaxCommissionRate",
          "type": "uint256"
        }
      ],
      "name": "updateMaxCommissionRate",
      "outputs": [],
      "stateMutability": "nonpayable",
      "type": "function"
    },
    {
      "inputs": [
        {
          "internalType": "address",
          "name": "newSigningWallet",
          "type": "address"
        }
      ],
      "name": "updateSigningWallet",
      "outputs": [],
      "stateMutability": "nonpayable",
      "type": "function"
    },
    {
      "inputs": [
        {
          "internalType": "address",
          "name": "to",
          "type": "address"
        },
        {
          "internalType": "uint256[]",
          "name": "assetIds",
          "type": "uint256[]"
        },
        {
          "internalType": "uint256[]",
          "name": "values",
          "type": "uint256[]"
        }
      ],
      "name": "withdrawAssets",
      "outputs": [],
      "stateMutability": "nonpayable",
      "type": "function"
    }
  ],
  "address": "0xB11822C35a5Ffda4b569E93173CB1fA865D6A666",
  "args": [
    "0x50f5474724e0Ee42D9a4e711ccFB275809Fd6d4a",
    "0x3845badAde8e6dFF049820680d1F14bD3903a5d0",
    "0x3845badAde8e6dFF049820680d1F14bD3903a5d0",
    "0x18dd4e0eb8699eA4FeE238dE41ECfb95e32272f8",
    "0x4489590a116618B506F0EfE885432F6A8ED998E9",
    "0x1f3f9b703cd4b513bb18f2b047e5dbf162a82edc94db8adf91b527640ae2cd8c",
    1601053200000,
    "0x3044719d139F866a44c988823513eCB93060bF1b",
    2000,
    "0x0000000000000000000000000000000000000000",
    "0x067a1Eb5E383eD24b66D72aAf80d8D7dB3d299A8",
    "0x0EB04462D69B1D267d269377E34f60b9De1c8510"
  ],
  "linkedData": [
    {
      "x": 50,
      "y": 284,
      "size": 1,
      "price": "1182000000000000000000",
      "reserved": "0x7a9fe22691c811ea339d9b73150e6911a5343dca",
      "assetIds": []
    },
    {
      "x": 48,
      "y": 283,
      "size": 1,
      "price": "1182000000000000000000",
      "reserved": "0x7a9fe22691c811ea339d9b73150e6911a5343dca",
      "assetIds": []
    },
    {
      "x": 51,
      "y": 281,
      "size": 1,
      "price": "1182000000000000000000",
      "reserved": "0x7a9fe22691c811ea339d9b73150e6911a5343dca",
      "assetIds": []
    },
    {
      "x": 56,
      "y": 280,
      "size": 1,
      "price": "1182000000000000000000",
      "reserved": "0x7a9fe22691c811ea339d9b73150e6911a5343dca",
      "assetIds": []
    },
    {
      "x": 59,
      "y": 280,
      "size": 1,
      "price": "1182000000000000000000",
      "reserved": "0x7a9fe22691c811ea339d9b73150e6911a5343dca",
      "assetIds": []
    },
    {
      "x": 58,
      "y": 277,
      "size": 1,
      "price": "1182000000000000000000",
      "reserved": "0x7a9fe22691c811ea339d9b73150e6911a5343dca",
      "assetIds": []
    },
    {
      "x": 54,
      "y": 278,
      "size": 1,
      "price": "1182000000000000000000",
      "reserved": "0x7a9fe22691c811ea339d9b73150e6911a5343dca",
      "assetIds": []
    },
    {
      "x": 51,
      "y": 277,
      "size": 1,
      "price": "1182000000000000000000",
      "reserved": "0x7a9fe22691c811ea339d9b73150e6911a5343dca",
      "assetIds": []
    },
    {
      "x": 48,
      "y": 279,
      "size": 1,
      "price": "1182000000000000000000",
      "reserved": "0x7a9fe22691c811ea339d9b73150e6911a5343dca",
      "assetIds": []
    },
    {
      "x": 45,
      "y": 278,
      "size": 1,
      "price": "1182000000000000000000",
      "reserved": "0x7a9fe22691c811ea339d9b73150e6911a5343dca",
      "assetIds": []
    },
    {
      "x": 44,
      "y": 276,
      "size": 1,
      "price": "1182000000000000000000",
      "reserved": "0x7a9fe22691c811ea339d9b73150e6911a5343dca",
      "assetIds": []
    },
    {
      "x": 46,
      "y": 274,
      "size": 1,
      "price": "1182000000000000000000",
      "reserved": "0x7a9fe22691c811ea339d9b73150e6911a5343dca",
      "assetIds": []
    },
    {
      "x": 42,
      "y": 274,
      "size": 1,
      "price": "1182000000000000000000",
      "reserved": "0x7a9fe22691c811ea339d9b73150e6911a5343dca",
      "assetIds": []
    },
    {
      "x": 42,
      "y": 278,
      "size": 1,
      "price": "1182000000000000000000",
      "reserved": "0x7a9fe22691c811ea339d9b73150e6911a5343dca",
      "assetIds": []
    },
    {
      "x": 45,
      "y": 281,
      "size": 1,
      "price": "1182000000000000000000",
      "reserved": "0x7a9fe22691c811ea339d9b73150e6911a5343dca",
      "assetIds": []
    },
    {
      "x": 43,
      "y": 284,
      "size": 1,
      "price": "1182000000000000000000",
      "reserved": "0x7a9fe22691c811ea339d9b73150e6911a5343dca",
      "assetIds": []
    },
    {
      "x": 42,
      "y": 284,
      "size": 1,
      "price": "1182000000000000000000",
      "assetIds": []
    },
    {
      "x": 42,
      "y": 283,
      "size": 1,
      "price": "1182000000000000000000",
      "assetIds": []
    },
    {
      "x": 42,
      "y": 282,
      "size": 1,
      "price": "1182000000000000000000",
      "assetIds": []
    },
    {
      "x": 43,
      "y": 282,
      "size": 1,
      "price": "1182000000000000000000",
      "assetIds": []
    },
    {
      "x": 44,
      "y": 282,
      "size": 1,
      "price": "1182000000000000000000",
      "assetIds": []
    },
    {
      "x": 45,
      "y": 282,
      "size": 1,
      "price": "1182000000000000000000",
      "assetIds": []
    },
    {
      "x": 45,
      "y": 283,
      "size": 1,
      "price": "1182000000000000000000",
      "assetIds": []
    },
    {
      "x": 45,
      "y": 284,
      "size": 1,
      "price": "1182000000000000000000",
      "assetIds": []
    },
    {
      "x": 44,
      "y": 284,
      "size": 1,
      "price": "1182000000000000000000",
      "assetIds": []
    },
    {
      "x": 44,
      "y": 283,
      "size": 1,
      "price": "1182000000000000000000",
      "assetIds": []
    },
    {
      "x": 43,
      "y": 283,
      "size": 1,
      "price": "1182000000000000000000",
      "assetIds": []
    },
    {
      "x": 46,
      "y": 284,
      "size": 1,
      "price": "1182000000000000000000",
      "assetIds": []
    },
    {
      "x": 46,
      "y": 283,
      "size": 1,
      "price": "1182000000000000000000",
      "assetIds": []
    },
    {
      "x": 46,
      "y": 282,
      "size": 1,
      "price": "1182000000000000000000",
      "assetIds": []
    },
    {
      "x": 48,
      "y": 282,
      "size": 1,
      "price": "1182000000000000000000",
      "assetIds": []
    },
    {
      "x": 47,
      "y": 282,
      "size": 1,
      "price": "1182000000000000000000",
      "assetIds": []
    },
    {
      "x": 47,
      "y": 283,
      "size": 1,
      "price": "1182000000000000000000",
      "assetIds": []
    },
    {
      "x": 47,
      "y": 284,
      "size": 1,
      "price": "1182000000000000000000",
      "assetIds": []
    },
    {
      "x": 48,
      "y": 284,
      "size": 1,
      "price": "1182000000000000000000",
      "assetIds": []
    },
    {
      "x": 49,
      "y": 284,
      "size": 1,
      "price": "1182000000000000000000",
      "assetIds": []
    },
    {
      "x": 49,
      "y": 283,
      "size": 1,
      "price": "1182000000000000000000",
      "assetIds": []
    },
    {
      "x": 50,
      "y": 283,
      "size": 1,
      "price": "1182000000000000000000",
      "assetIds": []
    },
    {
      "x": 42,
      "y": 273,
      "size": 1,
      "price": "1182000000000000000000",
      "assetIds": []
    },
    {
      "x": 42,
      "y": 276,
      "size": 1,
      "price": "1182000000000000000000",
      "assetIds": []
    },
    {
      "x": 42,
      "y": 277,
      "size": 1,
      "price": "1182000000000000000000",
      "assetIds": []
    },
    {
      "x": 43,
      "y": 277,
      "size": 1,
      "price": "1182000000000000000000",
      "assetIds": []
    },
    {
      "x": 43,
      "y": 278,
      "size": 1,
      "price": "1182000000000000000000",
      "assetIds": []
    },
    {
      "x": 50,
      "y": 282,
      "size": 1,
      "price": "1182000000000000000000",
      "assetIds": []
    },
    {
      "x": 49,
      "y": 282,
      "size": 1,
      "price": "1182000000000000000000",
      "assetIds": []
    },
    {
      "x": 48,
      "y": 281,
      "size": 1,
      "price": "1182000000000000000000",
      "assetIds": []
    },
    {
      "x": 47,
      "y": 281,
      "size": 1,
      "price": "1182000000000000000000",
      "assetIds": []
    },
    {
      "x": 46,
      "y": 281,
      "size": 1,
      "price": "1182000000000000000000",
      "assetIds": []
    },
    {
      "x": 45,
      "y": 280,
      "size": 1,
      "price": "1182000000000000000000",
      "assetIds": []
    },
    {
      "x": 50,
      "y": 281,
      "size": 1,
      "price": "1182000000000000000000",
      "assetIds": []
    },
    {
      "x": 52,
      "y": 281,
      "size": 1,
      "price": "1182000000000000000000",
      "assetIds": []
    },
    {
      "x": 54,
      "y": 281,
      "size": 1,
      "price": "1182000000000000000000",
      "assetIds": []
    },
    {
      "x": 55,
      "y": 281,
      "size": 1,
      "price": "1182000000000000000000",
      "assetIds": []
    },
    {
      "x": 56,
      "y": 281,
      "size": 1,
      "price": "1182000000000000000000",
      "assetIds": []
    },
    {
      "x": 58,
      "y": 281,
      "size": 1,
      "price": "1182000000000000000000",
      "assetIds": []
    },
    {
      "x": 59,
      "y": 281,
      "size": 1,
      "price": "1182000000000000000000",
      "assetIds": []
    },
    {
      "x": 57,
      "y": 281,
      "size": 1,
      "price": "2750000000000000000000",
      "assetIds": [
        "55464657044963196816950587289035428064568320970692304673817341489687446964232",
        "55464657044963196816950587289035428064568320970692304673817341489687446964226",
        "55464657044963196816950587289035428064568320970692304673817341489687446964225",
        "55464657044963196816950587289035428064568320970692304673817341489687446964224"
      ]
    },
    {
      "x": 57,
      "y": 280,
      "size": 1,
      "price": "2750000000000000000000",
      "assetIds": [
        "55464657044963196816950587289035428064568320970692304673817341489687446964229",
        "55464657044963196816950587289035428064568320970692304673817341489687446964226",
        "55464657044963196816950587289035428064568320970692304673817341489687446964225",
        "55464657044963196816950587289035428064568320970692304673817341489687446964224"
      ]
    },
    {
      "x": 57,
      "y": 279,
      "size": 1,
      "price": "2750000000000000000000",
      "assetIds": [
        "55464657044963196816950587289035428064568320970692304673817341489687446964228",
        "55464657044963196816950587289035428064568320970692304673817341489687446964226",
        "55464657044963196816950587289035428064568320970692304673817341489687446964225",
        "55464657044963196816950587289035428064568320970692304673817341489687446964224"
      ]
    },
    {
      "x": 57,
      "y": 278,
      "size": 1,
      "price": "2750000000000000000000",
      "assetIds": [
        "55464657044963196816950587289035428064568320970692304673817341489687446964229",
        "55464657044963196816950587289035428064568320970692304673817341489687446964226",
        "55464657044963196816950587289035428064568320970692304673817341489687446964225",
        "55464657044963196816950587289035428064568320970692304673817341489687446964224"
      ]
    },
    {
      "x": 57,
      "y": 277,
      "size": 1,
      "price": "2750000000000000000000",
      "assetIds": [
        "55464657044963196816950587289035428064568320970692304673817341489687446964231",
        "55464657044963196816950587289035428064568320970692304673817341489687446964226",
        "55464657044963196816950587289035428064568320970692304673817341489687446964225",
        "55464657044963196816950587289035428064568320970692304673817341489687446964224"
      ]
    },
    {
      "x": 57,
      "y": 276,
      "size": 1,
      "price": "2750000000000000000000",
      "assetIds": [
        "55464657044963196816950587289035428064568320970692304673817341489687446964228",
        "55464657044963196816950587289035428064568320970692304673817341489687446964226",
        "55464657044963196816950587289035428064568320970692304673817341489687446964225",
        "55464657044963196816950587289035428064568320970692304673817341489687446964224"
      ]
    },
    {
      "x": 58,
      "y": 276,
      "size": 1,
      "price": "2750000000000000000000",
      "assetIds": [
        "55464657044963196816950587289035428064568320970692304673817341489687446964227",
        "55464657044963196816950587289035428064568320970692304673817341489687446964226",
        "55464657044963196816950587289035428064568320970692304673817341489687446964225",
        "55464657044963196816950587289035428064568320970692304673817341489687446964224"
      ]
    },
    {
      "x": 59,
      "y": 276,
      "size": 1,
      "price": "2750000000000000000000",
      "assetIds": [
        "55464657044963196816950587289035428064568320970692304673817341489687446964228",
        "55464657044963196816950587289035428064568320970692304673817341489687446964226",
        "55464657044963196816950587289035428064568320970692304673817341489687446964225",
        "55464657044963196816950587289035428064568320970692304673817341489687446964224"
      ]
    },
    {
      "x": 59,
      "y": 277,
      "size": 1,
      "price": "2750000000000000000000",
      "assetIds": [
        "55464657044963196816950587289035428064568320970692304673817341489687446964227",
        "55464657044963196816950587289035428064568320970692304673817341489687446964226",
        "55464657044963196816950587289035428064568320970692304673817341489687446964225",
        "55464657044963196816950587289035428064568320970692304673817341489687446964224"
      ]
    },
    {
      "x": 59,
      "y": 278,
      "size": 1,
      "price": "2750000000000000000000",
      "assetIds": [
        "55464657044963196816950587289035428064568320970692304673817341489687446964230",
        "55464657044963196816950587289035428064568320970692304673817341489687446964226",
        "55464657044963196816950587289035428064568320970692304673817341489687446964225",
        "55464657044963196816950587289035428064568320970692304673817341489687446964224"
      ]
    },
    {
      "x": 59,
      "y": 279,
      "size": 1,
      "price": "2750000000000000000000",
      "assetIds": [
        "55464657044963196816950587289035428064568320970692304673817341489687446964230",
        "55464657044963196816950587289035428064568320970692304673817341489687446964226",
        "55464657044963196816950587289035428064568320970692304673817341489687446964225",
        "55464657044963196816950587289035428064568320970692304673817341489687446964224"
      ]
    },
    {
      "x": 58,
      "y": 279,
      "size": 1,
      "price": "2750000000000000000000",
      "assetIds": [
        "55464657044963196816950587289035428064568320970692304673817341489687446964232",
        "55464657044963196816950587289035428064568320970692304673817341489687446964226",
        "55464657044963196816950587289035428064568320970692304673817341489687446964225",
        "55464657044963196816950587289035428064568320970692304673817341489687446964224"
      ]
    },
    {
      "x": 58,
      "y": 278,
      "size": 1,
      "price": "2750000000000000000000",
      "assetIds": [
        "55464657044963196816950587289035428064568320970692304673817341489687446964231",
        "55464657044963196816950587289035428064568320970692304673817341489687446964226",
        "55464657044963196816950587289035428064568320970692304673817341489687446964225",
        "55464657044963196816950587289035428064568320970692304673817341489687446964224"
      ]
    },
    {
      "x": 58,
      "y": 280,
      "size": 1,
      "price": "2750000000000000000000",
      "assetIds": [
        "55464657044963196816950587289035428064568320970692304673817341489687446964227",
        "55464657044963196816950587289035428064568320970692304673817341489687446964226",
        "55464657044963196816950587289035428064568320970692304673817341489687446964225",
        "55464657044963196816950587289035428064568320970692304673817341489687446964224"
      ]
    },
    {
      "x": 56,
      "y": 279,
      "size": 1,
      "price": "2750000000000000000000",
      "assetIds": [
        "55464657044963196816950587289035428064568320970692304673817341489687446964228",
        "55464657044963196816950587289035428064568320970692304673817341489687446964226",
        "55464657044963196816950587289035428064568320970692304673817341489687446964225",
        "55464657044963196816950587289035428064568320970692304673817341489687446964224"
      ]
    },
    {
      "x": 56,
      "y": 278,
      "size": 1,
      "price": "2750000000000000000000",
      "assetIds": [
        "55464657044963196816950587289035428064568320970692304673817341489687446964228",
        "55464657044963196816950587289035428064568320970692304673817341489687446964226",
        "55464657044963196816950587289035428064568320970692304673817341489687446964225",
        "55464657044963196816950587289035428064568320970692304673817341489687446964224"
      ]
    },
    {
      "x": 56,
      "y": 277,
      "size": 1,
      "price": "2750000000000000000000",
      "assetIds": [
        "55464657044963196816950587289035428064568320970692304673817341489687446964228",
        "55464657044963196816950587289035428064568320970692304673817341489687446964226",
        "55464657044963196816950587289035428064568320970692304673817341489687446964225",
        "55464657044963196816950587289035428064568320970692304673817341489687446964224"
      ]
    },
    {
      "x": 56,
      "y": 276,
      "size": 1,
      "price": "2750000000000000000000",
      "assetIds": [
        "55464657044963196816950587289035428064568320970692304673817341489687446964231",
        "55464657044963196816950587289035428064568320970692304673817341489687446964226",
        "55464657044963196816950587289035428064568320970692304673817341489687446964225",
        "55464657044963196816950587289035428064568320970692304673817341489687446964224"
      ]
    },
    {
      "x": 55,
      "y": 276,
      "size": 1,
      "price": "2750000000000000000000",
      "assetIds": [
        "55464657044963196816950587289035428064568320970692304673817341489687446964232",
        "55464657044963196816950587289035428064568320970692304673817341489687446964226",
        "55464657044963196816950587289035428064568320970692304673817341489687446964225",
        "55464657044963196816950587289035428064568320970692304673817341489687446964224"
      ]
    },
    {
      "x": 54,
      "y": 276,
      "size": 1,
      "price": "2750000000000000000000",
      "assetIds": [
        "55464657044963196816950587289035428064568320970692304673817341489687446964227",
        "55464657044963196816950587289035428064568320970692304673817341489687446964226",
        "55464657044963196816950587289035428064568320970692304673817341489687446964225",
        "55464657044963196816950587289035428064568320970692304673817341489687446964224"
      ]
    },
    {
      "x": 53,
      "y": 276,
      "size": 1,
      "price": "2750000000000000000000",
      "assetIds": [
        "55464657044963196816950587289035428064568320970692304673817341489687446964231",
        "55464657044963196816950587289035428064568320970692304673817341489687446964226",
        "55464657044963196816950587289035428064568320970692304673817341489687446964225",
        "55464657044963196816950587289035428064568320970692304673817341489687446964224"
      ]
    },
    {
      "x": 52,
      "y": 276,
      "size": 1,
      "price": "2750000000000000000000",
      "assetIds": [
        "55464657044963196816950587289035428064568320970692304673817341489687446964227",
        "55464657044963196816950587289035428064568320970692304673817341489687446964226",
        "55464657044963196816950587289035428064568320970692304673817341489687446964225",
        "55464657044963196816950587289035428064568320970692304673817341489687446964224"
      ]
    },
    {
      "x": 51,
      "y": 276,
      "size": 1,
      "price": "2750000000000000000000",
      "assetIds": [
        "55464657044963196816950587289035428064568320970692304673817341489687446964232",
        "55464657044963196816950587289035428064568320970692304673817341489687446964226",
        "55464657044963196816950587289035428064568320970692304673817341489687446964225",
        "55464657044963196816950587289035428064568320970692304673817341489687446964224"
      ]
    },
    {
      "x": 50,
      "y": 276,
      "size": 1,
      "price": "2750000000000000000000",
      "assetIds": [
        "55464657044963196816950587289035428064568320970692304673817341489687446964227",
        "55464657044963196816950587289035428064568320970692304673817341489687446964226",
        "55464657044963196816950587289035428064568320970692304673817341489687446964225",
        "55464657044963196816950587289035428064568320970692304673817341489687446964224"
      ]
    },
    {
      "x": 49,
      "y": 276,
      "size": 1,
      "price": "2750000000000000000000",
      "assetIds": [
        "55464657044963196816950587289035428064568320970692304673817341489687446964228",
        "55464657044963196816950587289035428064568320970692304673817341489687446964226",
        "55464657044963196816950587289035428064568320970692304673817341489687446964225",
        "55464657044963196816950587289035428064568320970692304673817341489687446964224"
      ]
    },
    {
      "x": 48,
      "y": 276,
      "size": 1,
      "price": "2750000000000000000000",
      "assetIds": [
        "55464657044963196816950587289035428064568320970692304673817341489687446964229",
        "55464657044963196816950587289035428064568320970692304673817341489687446964226",
        "55464657044963196816950587289035428064568320970692304673817341489687446964225",
        "55464657044963196816950587289035428064568320970692304673817341489687446964224"
      ]
    },
    {
      "x": 47,
      "y": 276,
      "size": 1,
      "price": "2750000000000000000000",
      "assetIds": [
        "55464657044963196816950587289035428064568320970692304673817341489687446964231",
        "55464657044963196816950587289035428064568320970692304673817341489687446964226",
        "55464657044963196816950587289035428064568320970692304673817341489687446964225",
        "55464657044963196816950587289035428064568320970692304673817341489687446964224"
      ]
    },
    {
      "x": 46,
      "y": 276,
      "size": 1,
      "price": "2750000000000000000000",
      "assetIds": [
        "55464657044963196816950587289035428064568320970692304673817341489687446964228",
        "55464657044963196816950587289035428064568320970692304673817341489687446964226",
        "55464657044963196816950587289035428064568320970692304673817341489687446964225",
        "55464657044963196816950587289035428064568320970692304673817341489687446964224"
      ]
    },
    {
      "x": 45,
      "y": 276,
      "size": 1,
      "price": "2750000000000000000000",
      "assetIds": [
        "55464657044963196816950587289035428064568320970692304673817341489687446964231",
        "55464657044963196816950587289035428064568320970692304673817341489687446964226",
        "55464657044963196816950587289035428064568320970692304673817341489687446964225",
        "55464657044963196816950587289035428064568320970692304673817341489687446964224"
      ]
    },
    {
      "x": 43,
      "y": 276,
      "size": 1,
      "price": "2750000000000000000000",
      "assetIds": [
        "55464657044963196816950587289035428064568320970692304673817341489687446964230",
        "55464657044963196816950587289035428064568320970692304673817341489687446964226",
        "55464657044963196816950587289035428064568320970692304673817341489687446964225",
        "55464657044963196816950587289035428064568320970692304673817341489687446964224"
      ]
    },
    {
      "x": 43,
      "y": 275,
      "size": 1,
      "price": "2750000000000000000000",
      "assetIds": [
        "55464657044963196816950587289035428064568320970692304673817341489687446964227",
        "55464657044963196816950587289035428064568320970692304673817341489687446964226",
        "55464657044963196816950587289035428064568320970692304673817341489687446964225",
        "55464657044963196816950587289035428064568320970692304673817341489687446964224"
      ]
    },
    {
      "x": 43,
      "y": 274,
      "size": 1,
      "price": "2750000000000000000000",
      "assetIds": [
        "55464657044963196816950587289035428064568320970692304673817341489687446964227",
        "55464657044963196816950587289035428064568320970692304673817341489687446964226",
        "55464657044963196816950587289035428064568320970692304673817341489687446964225",
        "55464657044963196816950587289035428064568320970692304673817341489687446964224"
      ]
    },
    {
      "x": 42,
      "y": 275,
      "size": 1,
      "price": "2750000000000000000000",
      "assetIds": [
        "55464657044963196816950587289035428064568320970692304673817341489687446964229",
        "55464657044963196816950587289035428064568320970692304673817341489687446964226",
        "55464657044963196816950587289035428064568320970692304673817341489687446964225",
        "55464657044963196816950587289035428064568320970692304673817341489687446964224"
      ]
    },
    {
      "x": 44,
      "y": 274,
      "size": 1,
      "price": "2750000000000000000000",
      "assetIds": [
        "55464657044963196816950587289035428064568320970692304673817341489687446964227",
        "55464657044963196816950587289035428064568320970692304673817341489687446964226",
        "55464657044963196816950587289035428064568320970692304673817341489687446964225",
        "55464657044963196816950587289035428064568320970692304673817341489687446964224"
      ]
    },
    {
      "x": 44,
      "y": 273,
      "size": 1,
      "price": "2750000000000000000000",
      "assetIds": [
        "55464657044963196816950587289035428064568320970692304673817341489687446964229",
        "55464657044963196816950587289035428064568320970692304673817341489687446964226",
        "55464657044963196816950587289035428064568320970692304673817341489687446964225",
        "55464657044963196816950587289035428064568320970692304673817341489687446964224"
      ]
    },
    {
      "x": 43,
      "y": 273,
      "size": 1,
      "price": "2750000000000000000000",
      "assetIds": [
        "55464657044963196816950587289035428064568320970692304673817341489687446964231",
        "55464657044963196816950587289035428064568320970692304673817341489687446964226",
        "55464657044963196816950587289035428064568320970692304673817341489687446964225",
        "55464657044963196816950587289035428064568320970692304673817341489687446964224"
      ]
    },
    {
      "x": 45,
      "y": 273,
      "size": 1,
      "price": "2750000000000000000000",
      "assetIds": [
        "55464657044963196816950587289035428064568320970692304673817341489687446964230",
        "55464657044963196816950587289035428064568320970692304673817341489687446964226",
        "55464657044963196816950587289035428064568320970692304673817341489687446964225",
        "55464657044963196816950587289035428064568320970692304673817341489687446964224"
      ]
    },
    {
      "x": 46,
      "y": 273,
      "size": 1,
      "price": "2750000000000000000000",
      "assetIds": [
        "55464657044963196816950587289035428064568320970692304673817341489687446964228",
        "55464657044963196816950587289035428064568320970692304673817341489687446964226",
        "55464657044963196816950587289035428064568320970692304673817341489687446964225",
        "55464657044963196816950587289035428064568320970692304673817341489687446964224"
      ]
    },
    {
      "x": 47,
      "y": 274,
      "size": 1,
      "price": "2750000000000000000000",
      "assetIds": [
        "55464657044963196816950587289035428064568320970692304673817341489687446964231",
        "55464657044963196816950587289035428064568320970692304673817341489687446964226",
        "55464657044963196816950587289035428064568320970692304673817341489687446964225",
        "55464657044963196816950587289035428064568320970692304673817341489687446964224"
      ]
    },
    {
      "x": 47,
      "y": 275,
      "size": 1,
      "price": "2750000000000000000000",
      "assetIds": [
        "55464657044963196816950587289035428064568320970692304673817341489687446964231",
        "55464657044963196816950587289035428064568320970692304673817341489687446964226",
        "55464657044963196816950587289035428064568320970692304673817341489687446964225",
        "55464657044963196816950587289035428064568320970692304673817341489687446964224"
      ]
    },
    {
      "x": 46,
      "y": 275,
      "size": 1,
      "price": "2750000000000000000000",
      "assetIds": [
        "55464657044963196816950587289035428064568320970692304673817341489687446964231",
        "55464657044963196816950587289035428064568320970692304673817341489687446964226",
        "55464657044963196816950587289035428064568320970692304673817341489687446964225",
        "55464657044963196816950587289035428064568320970692304673817341489687446964224"
      ]
    },
    {
      "x": 47,
      "y": 273,
      "size": 1,
      "price": "2750000000000000000000",
      "assetIds": [
        "55464657044963196816950587289035428064568320970692304673817341489687446964230",
        "55464657044963196816950587289035428064568320970692304673817341489687446964226",
        "55464657044963196816950587289035428064568320970692304673817341489687446964225",
        "55464657044963196816950587289035428064568320970692304673817341489687446964224"
      ]
    },
    {
      "x": 45,
      "y": 275,
      "size": 1,
      "price": "2750000000000000000000",
      "assetIds": [
        "55464657044963196816950587289035428064568320970692304673817341489687446964229",
        "55464657044963196816950587289035428064568320970692304673817341489687446964226",
        "55464657044963196816950587289035428064568320970692304673817341489687446964225",
        "55464657044963196816950587289035428064568320970692304673817341489687446964224"
      ]
    },
    {
      "x": 45,
      "y": 274,
      "size": 1,
      "price": "2750000000000000000000",
      "assetIds": [
        "55464657044963196816950587289035428064568320970692304673817341489687446964228",
        "55464657044963196816950587289035428064568320970692304673817341489687446964226",
        "55464657044963196816950587289035428064568320970692304673817341489687446964225",
        "55464657044963196816950587289035428064568320970692304673817341489687446964224"
      ]
    },
    {
      "x": 44,
      "y": 275,
      "size": 1,
      "price": "2750000000000000000000",
      "assetIds": [
        "55464657044963196816950587289035428064568320970692304673817341489687446964227",
        "55464657044963196816950587289035428064568320970692304673817341489687446964226",
        "55464657044963196816950587289035428064568320970692304673817341489687446964225",
        "55464657044963196816950587289035428064568320970692304673817341489687446964224"
      ]
    },
    {
      "x": 44,
      "y": 278,
      "size": 1,
      "price": "2750000000000000000000",
      "assetIds": [
        "55464657044963196816950587289035428064568320970692304673817341489687446964230",
        "55464657044963196816950587289035428064568320970692304673817341489687446964226",
        "55464657044963196816950587289035428064568320970692304673817341489687446964225",
        "55464657044963196816950587289035428064568320970692304673817341489687446964224"
      ]
    },
    {
      "x": 44,
      "y": 277,
      "size": 1,
      "price": "2750000000000000000000",
      "assetIds": [
        "55464657044963196816950587289035428064568320970692304673817341489687446964230",
        "55464657044963196816950587289035428064568320970692304673817341489687446964226",
        "55464657044963196816950587289035428064568320970692304673817341489687446964225",
        "55464657044963196816950587289035428064568320970692304673817341489687446964224"
      ]
    },
    {
      "x": 45,
      "y": 279,
      "size": 1,
      "price": "2750000000000000000000",
      "assetIds": [
        "55464657044963196816950587289035428064568320970692304673817341489687446964228",
        "55464657044963196816950587289035428064568320970692304673817341489687446964226",
        "55464657044963196816950587289035428064568320970692304673817341489687446964225",
        "55464657044963196816950587289035428064568320970692304673817341489687446964224"
      ]
    },
    {
      "x": 46,
      "y": 279,
      "size": 1,
      "price": "2750000000000000000000",
      "assetIds": [
        "55464657044963196816950587289035428064568320970692304673817341489687446964227",
        "55464657044963196816950587289035428064568320970692304673817341489687446964226",
        "55464657044963196816950587289035428064568320970692304673817341489687446964225",
        "55464657044963196816950587289035428064568320970692304673817341489687446964224"
      ]
    },
    {
      "x": 46,
      "y": 280,
      "size": 1,
      "price": "2750000000000000000000",
      "assetIds": [
        "55464657044963196816950587289035428064568320970692304673817341489687446964231",
        "55464657044963196816950587289035428064568320970692304673817341489687446964226",
        "55464657044963196816950587289035428064568320970692304673817341489687446964225",
        "55464657044963196816950587289035428064568320970692304673817341489687446964224"
      ]
    },
    {
      "x": 46,
      "y": 278,
      "size": 1,
      "price": "2750000000000000000000",
      "assetIds": [
        "55464657044963196816950587289035428064568320970692304673817341489687446964229",
        "55464657044963196816950587289035428064568320970692304673817341489687446964226",
        "55464657044963196816950587289035428064568320970692304673817341489687446964225",
        "55464657044963196816950587289035428064568320970692304673817341489687446964224"
      ]
    },
    {
      "x": 46,
      "y": 277,
      "size": 1,
      "price": "2750000000000000000000",
      "assetIds": [
        "55464657044963196816950587289035428064568320970692304673817341489687446964229",
        "55464657044963196816950587289035428064568320970692304673817341489687446964226",
        "55464657044963196816950587289035428064568320970692304673817341489687446964225",
        "55464657044963196816950587289035428064568320970692304673817341489687446964224"
      ]
    },
    {
      "x": 47,
      "y": 279,
      "size": 1,
      "price": "2750000000000000000000",
      "assetIds": [
        "55464657044963196816950587289035428064568320970692304673817341489687446964231",
        "55464657044963196816950587289035428064568320970692304673817341489687446964226",
        "55464657044963196816950587289035428064568320970692304673817341489687446964225",
        "55464657044963196816950587289035428064568320970692304673817341489687446964224"
      ]
    },
    {
      "x": 47,
      "y": 278,
      "size": 1,
      "price": "2750000000000000000000",
      "assetIds": [
        "55464657044963196816950587289035428064568320970692304673817341489687446964229",
        "55464657044963196816950587289035428064568320970692304673817341489687446964226",
        "55464657044963196816950587289035428064568320970692304673817341489687446964225",
        "55464657044963196816950587289035428064568320970692304673817341489687446964224"
      ]
    },
    {
      "x": 47,
      "y": 277,
      "size": 1,
      "price": "2750000000000000000000",
      "assetIds": [
        "55464657044963196816950587289035428064568320970692304673817341489687446964230",
        "55464657044963196816950587289035428064568320970692304673817341489687446964226",
        "55464657044963196816950587289035428064568320970692304673817341489687446964225",
        "55464657044963196816950587289035428064568320970692304673817341489687446964224"
      ]
    },
    {
      "x": 48,
      "y": 280,
      "size": 1,
      "price": "2750000000000000000000",
      "assetIds": [
        "55464657044963196816950587289035428064568320970692304673817341489687446964230",
        "55464657044963196816950587289035428064568320970692304673817341489687446964226",
        "55464657044963196816950587289035428064568320970692304673817341489687446964225",
        "55464657044963196816950587289035428064568320970692304673817341489687446964224"
      ]
    },
    {
      "x": 49,
      "y": 280,
      "size": 1,
      "price": "2750000000000000000000",
      "assetIds": [
        "55464657044963196816950587289035428064568320970692304673817341489687446964231",
        "55464657044963196816950587289035428064568320970692304673817341489687446964226",
        "55464657044963196816950587289035428064568320970692304673817341489687446964225",
        "55464657044963196816950587289035428064568320970692304673817341489687446964224"
      ]
    },
    {
      "x": 49,
      "y": 279,
      "size": 1,
      "price": "2750000000000000000000",
      "assetIds": [
        "55464657044963196816950587289035428064568320970692304673817341489687446964231",
        "55464657044963196816950587289035428064568320970692304673817341489687446964226",
        "55464657044963196816950587289035428064568320970692304673817341489687446964225",
        "55464657044963196816950587289035428064568320970692304673817341489687446964224"
      ]
    },
    {
      "x": 48,
      "y": 278,
      "size": 1,
      "price": "2750000000000000000000",
      "assetIds": [
        "55464657044963196816950587289035428064568320970692304673817341489687446964232",
        "55464657044963196816950587289035428064568320970692304673817341489687446964226",
        "55464657044963196816950587289035428064568320970692304673817341489687446964225",
        "55464657044963196816950587289035428064568320970692304673817341489687446964224"
      ]
    },
    {
      "x": 48,
      "y": 277,
      "size": 1,
      "price": "2750000000000000000000",
      "assetIds": [
        "55464657044963196816950587289035428064568320970692304673817341489687446964230",
        "55464657044963196816950587289035428064568320970692304673817341489687446964226",
        "55464657044963196816950587289035428064568320970692304673817341489687446964225",
        "55464657044963196816950587289035428064568320970692304673817341489687446964224"
      ]
    },
    {
      "x": 47,
      "y": 280,
      "size": 1,
      "price": "2750000000000000000000",
      "assetIds": [
        "55464657044963196816950587289035428064568320970692304673817341489687446964231",
        "55464657044963196816950587289035428064568320970692304673817341489687446964226",
        "55464657044963196816950587289035428064568320970692304673817341489687446964225",
        "55464657044963196816950587289035428064568320970692304673817341489687446964224"
      ]
    },
    {
      "x": 49,
      "y": 281,
      "size": 1,
      "price": "2750000000000000000000",
      "assetIds": [
        "55464657044963196816950587289035428064568320970692304673817341489687446964227",
        "55464657044963196816950587289035428064568320970692304673817341489687446964226",
        "55464657044963196816950587289035428064568320970692304673817341489687446964225",
        "55464657044963196816950587289035428064568320970692304673817341489687446964224"
      ]
    },
    {
      "x": 50,
      "y": 280,
      "size": 1,
      "price": "2750000000000000000000",
      "assetIds": [
        "55464657044963196816950587289035428064568320970692304673817341489687446964227",
        "55464657044963196816950587289035428064568320970692304673817341489687446964226",
        "55464657044963196816950587289035428064568320970692304673817341489687446964225",
        "55464657044963196816950587289035428064568320970692304673817341489687446964224"
      ]
    },
    {
      "x": 51,
      "y": 279,
      "size": 1,
      "price": "2750000000000000000000",
      "assetIds": [
        "55464657044963196816950587289035428064568320970692304673817341489687446964231",
        "55464657044963196816950587289035428064568320970692304673817341489687446964226",
        "55464657044963196816950587289035428064568320970692304673817341489687446964225",
        "55464657044963196816950587289035428064568320970692304673817341489687446964224"
      ]
    },
    {
      "x": 50,
      "y": 278,
      "size": 1,
      "price": "2750000000000000000000",
      "assetIds": [
        "55464657044963196816950587289035428064568320970692304673817341489687446964230",
        "55464657044963196816950587289035428064568320970692304673817341489687446964226",
        "55464657044963196816950587289035428064568320970692304673817341489687446964225",
        "55464657044963196816950587289035428064568320970692304673817341489687446964224"
      ]
    },
    {
      "x": 50,
      "y": 277,
      "size": 1,
      "price": "2750000000000000000000",
      "assetIds": [
        "55464657044963196816950587289035428064568320970692304673817341489687446964232",
        "55464657044963196816950587289035428064568320970692304673817341489687446964226",
        "55464657044963196816950587289035428064568320970692304673817341489687446964225",
        "55464657044963196816950587289035428064568320970692304673817341489687446964224"
      ]
    },
    {
      "x": 49,
      "y": 277,
      "size": 1,
      "price": "2750000000000000000000",
      "assetIds": [
        "55464657044963196816950587289035428064568320970692304673817341489687446964228",
        "55464657044963196816950587289035428064568320970692304673817341489687446964226",
        "55464657044963196816950587289035428064568320970692304673817341489687446964225",
        "55464657044963196816950587289035428064568320970692304673817341489687446964224"
      ]
    },
    {
      "x": 49,
      "y": 278,
      "size": 1,
      "price": "2750000000000000000000",
      "assetIds": [
        "55464657044963196816950587289035428064568320970692304673817341489687446964230",
        "55464657044963196816950587289035428064568320970692304673817341489687446964226",
        "55464657044963196816950587289035428064568320970692304673817341489687446964225",
        "55464657044963196816950587289035428064568320970692304673817341489687446964224"
      ]
    },
    {
      "x": 51,
      "y": 280,
      "size": 1,
      "price": "2750000000000000000000",
      "assetIds": [
        "55464657044963196816950587289035428064568320970692304673817341489687446964231",
        "55464657044963196816950587289035428064568320970692304673817341489687446964226",
        "55464657044963196816950587289035428064568320970692304673817341489687446964225",
        "55464657044963196816950587289035428064568320970692304673817341489687446964224"
      ]
    },
    {
      "x": 50,
      "y": 279,
      "size": 1,
      "price": "2750000000000000000000",
      "assetIds": [
        "55464657044963196816950587289035428064568320970692304673817341489687446964227",
        "55464657044963196816950587289035428064568320970692304673817341489687446964226",
        "55464657044963196816950587289035428064568320970692304673817341489687446964225",
        "55464657044963196816950587289035428064568320970692304673817341489687446964224"
      ]
    },
    {
      "x": 51,
      "y": 278,
      "size": 1,
      "price": "2750000000000000000000",
      "assetIds": [
        "55464657044963196816950587289035428064568320970692304673817341489687446964232",
        "55464657044963196816950587289035428064568320970692304673817341489687446964226",
        "55464657044963196816950587289035428064568320970692304673817341489687446964225",
        "55464657044963196816950587289035428064568320970692304673817341489687446964224"
      ]
    },
    {
      "x": 52,
      "y": 279,
      "size": 1,
      "price": "2750000000000000000000",
      "assetIds": [
        "55464657044963196816950587289035428064568320970692304673817341489687446964229",
        "55464657044963196816950587289035428064568320970692304673817341489687446964226",
        "55464657044963196816950587289035428064568320970692304673817341489687446964225",
        "55464657044963196816950587289035428064568320970692304673817341489687446964224"
      ]
    },
    {
      "x": 52,
      "y": 278,
      "size": 1,
      "price": "2750000000000000000000",
      "assetIds": [
        "55464657044963196816950587289035428064568320970692304673817341489687446964230",
        "55464657044963196816950587289035428064568320970692304673817341489687446964226",
        "55464657044963196816950587289035428064568320970692304673817341489687446964225",
        "55464657044963196816950587289035428064568320970692304673817341489687446964224"
      ]
    },
    {
      "x": 52,
      "y": 277,
      "size": 1,
      "price": "2750000000000000000000",
      "assetIds": [
        "55464657044963196816950587289035428064568320970692304673817341489687446964230",
        "55464657044963196816950587289035428064568320970692304673817341489687446964226",
        "55464657044963196816950587289035428064568320970692304673817341489687446964225",
        "55464657044963196816950587289035428064568320970692304673817341489687446964224"
      ]
    },
    {
      "x": 53,
      "y": 279,
      "size": 1,
      "price": "2750000000000000000000",
      "assetIds": [
        "55464657044963196816950587289035428064568320970692304673817341489687446964227",
        "55464657044963196816950587289035428064568320970692304673817341489687446964226",
        "55464657044963196816950587289035428064568320970692304673817341489687446964225",
        "55464657044963196816950587289035428064568320970692304673817341489687446964224"
      ]
    },
    {
      "x": 53,
      "y": 278,
      "size": 1,
      "price": "2750000000000000000000",
      "assetIds": [
        "55464657044963196816950587289035428064568320970692304673817341489687446964230",
        "55464657044963196816950587289035428064568320970692304673817341489687446964226",
        "55464657044963196816950587289035428064568320970692304673817341489687446964225",
        "55464657044963196816950587289035428064568320970692304673817341489687446964224"
      ]
    },
    {
      "x": 53,
      "y": 277,
      "size": 1,
      "price": "2750000000000000000000",
      "assetIds": [
        "55464657044963196816950587289035428064568320970692304673817341489687446964230",
        "55464657044963196816950587289035428064568320970692304673817341489687446964226",
        "55464657044963196816950587289035428064568320970692304673817341489687446964225",
        "55464657044963196816950587289035428064568320970692304673817341489687446964224"
      ]
    },
    {
      "x": 54,
      "y": 280,
      "size": 1,
      "price": "2750000000000000000000",
      "assetIds": [
        "55464657044963196816950587289035428064568320970692304673817341489687446964228",
        "55464657044963196816950587289035428064568320970692304673817341489687446964226",
        "55464657044963196816950587289035428064568320970692304673817341489687446964225",
        "55464657044963196816950587289035428064568320970692304673817341489687446964224"
      ]
    },
    {
      "x": 55,
      "y": 279,
      "size": 1,
      "price": "2750000000000000000000",
      "assetIds": [
        "55464657044963196816950587289035428064568320970692304673817341489687446964229",
        "55464657044963196816950587289035428064568320970692304673817341489687446964226",
        "55464657044963196816950587289035428064568320970692304673817341489687446964225",
        "55464657044963196816950587289035428064568320970692304673817341489687446964224"
      ]
    },
    {
      "x": 55,
      "y": 278,
      "size": 1,
      "price": "2750000000000000000000",
      "assetIds": [
        "55464657044963196816950587289035428064568320970692304673817341489687446964227",
        "55464657044963196816950587289035428064568320970692304673817341489687446964226",
        "55464657044963196816950587289035428064568320970692304673817341489687446964225",
        "55464657044963196816950587289035428064568320970692304673817341489687446964224"
      ]
    },
    {
      "x": 54,
      "y": 277,
      "size": 1,
      "price": "2750000000000000000000",
      "assetIds": [
        "55464657044963196816950587289035428064568320970692304673817341489687446964230",
        "55464657044963196816950587289035428064568320970692304673817341489687446964226",
        "55464657044963196816950587289035428064568320970692304673817341489687446964225",
        "55464657044963196816950587289035428064568320970692304673817341489687446964224"
      ]
    },
    {
      "x": 54,
      "y": 279,
      "size": 1,
      "price": "2750000000000000000000",
      "assetIds": [
        "55464657044963196816950587289035428064568320970692304673817341489687446964232",
        "55464657044963196816950587289035428064568320970692304673817341489687446964226",
        "55464657044963196816950587289035428064568320970692304673817341489687446964225",
        "55464657044963196816950587289035428064568320970692304673817341489687446964224"
      ]
    },
    {
      "x": 55,
      "y": 277,
      "size": 1,
      "price": "2750000000000000000000",
      "assetIds": [
        "55464657044963196816950587289035428064568320970692304673817341489687446964227",
        "55464657044963196816950587289035428064568320970692304673817341489687446964226",
        "55464657044963196816950587289035428064568320970692304673817341489687446964225",
        "55464657044963196816950587289035428064568320970692304673817341489687446964224"
      ]
    },
    {
      "x": 55,
      "y": 280,
      "size": 1,
      "price": "2750000000000000000000",
      "assetIds": [
        "55464657044963196816950587289035428064568320970692304673817341489687446964227",
        "55464657044963196816950587289035428064568320970692304673817341489687446964226",
        "55464657044963196816950587289035428064568320970692304673817341489687446964225",
        "55464657044963196816950587289035428064568320970692304673817341489687446964224"
      ]
    },
    {
      "x": 53,
      "y": 280,
      "size": 1,
      "price": "2750000000000000000000",
      "assetIds": [
        "55464657044963196816950587289035428064568320970692304673817341489687446964230",
        "55464657044963196816950587289035428064568320970692304673817341489687446964226",
        "55464657044963196816950587289035428064568320970692304673817341489687446964225",
        "55464657044963196816950587289035428064568320970692304673817341489687446964224"
      ]
    },
    {
      "x": 53,
      "y": 281,
      "size": 1,
      "price": "2750000000000000000000",
      "assetIds": [
        "55464657044963196816950587289035428064568320970692304673817341489687446964231",
        "55464657044963196816950587289035428064568320970692304673817341489687446964226",
        "55464657044963196816950587289035428064568320970692304673817341489687446964225",
        "55464657044963196816950587289035428064568320970692304673817341489687446964224"
      ]
    },
    {
      "x": 52,
      "y": 280,
      "size": 1,
      "price": "2750000000000000000000",
      "assetIds": [
        "55464657044963196816950587289035428064568320970692304673817341489687446964227",
        "55464657044963196816950587289035428064568320970692304673817341489687446964226",
        "55464657044963196816950587289035428064568320970692304673817341489687446964225",
        "55464657044963196816950587289035428064568320970692304673817341489687446964224"
      ]
    },
    {
      "x": 45,
      "y": 277,
      "size": 1,
      "price": "2750000000000000000000",
      "assetIds": [
        "55464657044963196816950587289035428064568320970692304673817341489687446964229",
        "55464657044963196816950587289035428064568320970692304673817341489687446964226",
        "55464657044963196816950587289035428064568320970692304673817341489687446964225",
        "55464657044963196816950587289035428064568320970692304673817341489687446964224"
      ]
    },
    {
      "x": 61,
      "y": 278,
      "size": 1,
      "price": "1182000000000000000000",
      "reserved": "0x7a9fe22691c811ea339d9b73150e6911a5343dca",
      "assetIds": []
    },
    {
      "x": 61,
      "y": 274,
      "size": 1,
      "price": "1182000000000000000000",
      "reserved": "0x7a9fe22691c811ea339d9b73150e6911a5343dca",
      "assetIds": []
    },
    {
      "x": 63,
      "y": 272,
      "size": 1,
      "price": "1182000000000000000000",
      "reserved": "0x7a9fe22691c811ea339d9b73150e6911a5343dca",
      "assetIds": []
    },
    {
      "x": 62,
      "y": 269,
      "size": 1,
      "price": "1182000000000000000000",
      "reserved": "0x7a9fe22691c811ea339d9b73150e6911a5343dca",
      "assetIds": []
    },
    {
      "x": 64,
      "y": 267,
      "size": 1,
      "price": "1182000000000000000000",
      "reserved": "0x7a9fe22691c811ea339d9b73150e6911a5343dca",
      "assetIds": []
    },
    {
      "x": 66,
      "y": 270,
      "size": 1,
      "price": "1182000000000000000000",
      "reserved": "0x7a9fe22691c811ea339d9b73150e6911a5343dca",
      "assetIds": []
    },
    {
      "x": 68,
      "y": 272,
      "size": 1,
      "price": "1182000000000000000000",
      "reserved": "0x7a9fe22691c811ea339d9b73150e6911a5343dca",
      "assetIds": []
    },
    {
      "x": 71,
      "y": 271,
      "size": 1,
      "price": "1182000000000000000000",
      "reserved": "0x7a9fe22691c811ea339d9b73150e6911a5343dca",
      "assetIds": []
    },
    {
      "x": 66,
      "y": 277,
      "size": 1,
      "price": "1182000000000000000000",
      "reserved": "0x7a9fe22691c811ea339d9b73150e6911a5343dca",
      "assetIds": []
    },
    {
      "x": 68,
      "y": 276,
      "size": 1,
      "price": "1182000000000000000000",
      "reserved": "0x7a9fe22691c811ea339d9b73150e6911a5343dca",
      "assetIds": []
    },
    {
      "x": 62,
      "y": 281,
      "size": 1,
      "price": "1182000000000000000000",
      "reserved": "0x7a9fe22691c811ea339d9b73150e6911a5343dca",
      "assetIds": []
    },
    {
      "x": 65,
      "y": 278,
      "size": 1,
      "price": "1182000000000000000000",
      "assetIds": []
    },
    {
      "x": 65,
      "y": 277,
      "size": 1,
      "price": "1182000000000000000000",
      "assetIds": []
    },
    {
      "x": 67,
      "y": 276,
      "size": 1,
      "price": "1182000000000000000000",
      "assetIds": []
    },
    {
      "x": 66,
      "y": 276,
      "size": 1,
      "price": "1182000000000000000000",
      "assetIds": []
    },
    {
      "x": 68,
      "y": 277,
      "size": 1,
      "price": "1182000000000000000000",
      "assetIds": []
    },
    {
      "x": 67,
      "y": 277,
      "size": 1,
      "price": "1182000000000000000000",
      "assetIds": []
    },
    {
      "x": 68,
      "y": 278,
      "size": 1,
      "price": "1182000000000000000000",
      "assetIds": []
    },
    {
      "x": 67,
      "y": 278,
      "size": 1,
      "price": "1182000000000000000000",
      "assetIds": []
    },
    {
      "x": 66,
      "y": 278,
      "size": 1,
      "price": "1182000000000000000000",
      "assetIds": []
    },
    {
      "x": 67,
      "y": 272,
      "size": 1,
      "price": "1182000000000000000000",
      "assetIds": []
    },
    {
      "x": 67,
      "y": 271,
      "size": 1,
      "price": "1182000000000000000000",
      "assetIds": []
    },
    {
      "x": 68,
      "y": 271,
      "size": 1,
      "price": "1182000000000000000000",
      "assetIds": []
    },
    {
      "x": 69,
      "y": 271,
      "size": 1,
      "price": "1182000000000000000000",
      "assetIds": []
    },
    {
      "x": 70,
      "y": 271,
      "size": 1,
      "price": "1182000000000000000000",
      "assetIds": []
    },
    {
      "x": 69,
      "y": 272,
      "size": 1,
      "price": "1182000000000000000000",
      "assetIds": []
    },
    {
      "x": 70,
      "y": 272,
      "size": 1,
      "price": "1182000000000000000000",
      "assetIds": []
    },
    {
      "x": 71,
      "y": 272,
      "size": 1,
      "price": "1182000000000000000000",
      "assetIds": []
    },
    {
      "x": 71,
      "y": 270,
      "size": 1,
      "price": "1182000000000000000000",
      "assetIds": []
    },
    {
      "x": 70,
      "y": 270,
      "size": 1,
      "price": "1182000000000000000000",
      "assetIds": []
    },
    {
      "x": 69,
      "y": 270,
      "size": 1,
      "price": "1182000000000000000000",
      "assetIds": []
    },
    {
      "x": 68,
      "y": 270,
      "size": 1,
      "price": "1182000000000000000000",
      "assetIds": []
    },
    {
      "x": 67,
      "y": 270,
      "size": 1,
      "price": "1182000000000000000000",
      "assetIds": []
    },
    {
      "x": 63,
      "y": 276,
      "size": 1,
      "price": "1182000000000000000000",
      "reserved": "0x7a9fe22691c811ea339d9b73150e6911a5343dca",
      "assetIds": []
    },
    {
      "x": 64,
      "y": 268,
      "size": 1,
      "price": "2750000000000000000000",
      "assetIds": [
        "55464657044963196816950587289035428064568320970692304673817341489687446964231",
        "55464657044963196816950587289035428064568320970692304673817341489687446964226",
        "55464657044963196816950587289035428064568320970692304673817341489687446964225",
        "55464657044963196816950587289035428064568320970692304673817341489687446964224"
      ]
    },
    {
      "x": 64,
      "y": 269,
      "size": 1,
      "price": "2750000000000000000000",
      "assetIds": [
        "55464657044963196816950587289035428064568320970692304673817341489687446964229",
        "55464657044963196816950587289035428064568320970692304673817341489687446964226",
        "55464657044963196816950587289035428064568320970692304673817341489687446964225",
        "55464657044963196816950587289035428064568320970692304673817341489687446964224"
      ]
    },
    {
      "x": 64,
      "y": 270,
      "size": 1,
      "price": "2750000000000000000000",
      "assetIds": [
        "55464657044963196816950587289035428064568320970692304673817341489687446964232",
        "55464657044963196816950587289035428064568320970692304673817341489687446964226",
        "55464657044963196816950587289035428064568320970692304673817341489687446964225",
        "55464657044963196816950587289035428064568320970692304673817341489687446964224"
      ]
    },
    {
      "x": 64,
      "y": 271,
      "size": 1,
      "price": "2750000000000000000000",
      "assetIds": [
        "55464657044963196816950587289035428064568320970692304673817341489687446964227",
        "55464657044963196816950587289035428064568320970692304673817341489687446964226",
        "55464657044963196816950587289035428064568320970692304673817341489687446964225",
        "55464657044963196816950587289035428064568320970692304673817341489687446964224"
      ]
    },
    {
      "x": 64,
      "y": 272,
      "size": 1,
      "price": "2750000000000000000000",
      "assetIds": [
        "55464657044963196816950587289035428064568320970692304673817341489687446964227",
        "55464657044963196816950587289035428064568320970692304673817341489687446964226",
        "55464657044963196816950587289035428064568320970692304673817341489687446964225",
        "55464657044963196816950587289035428064568320970692304673817341489687446964224"
      ]
    },
    {
      "x": 64,
      "y": 273,
      "size": 1,
      "price": "2750000000000000000000",
      "assetIds": [
        "55464657044963196816950587289035428064568320970692304673817341489687446964230",
        "55464657044963196816950587289035428064568320970692304673817341489687446964226",
        "55464657044963196816950587289035428064568320970692304673817341489687446964225",
        "55464657044963196816950587289035428064568320970692304673817341489687446964224"
      ]
    },
    {
      "x": 64,
      "y": 274,
      "size": 1,
      "price": "2750000000000000000000",
      "assetIds": [
        "55464657044963196816950587289035428064568320970692304673817341489687446964230",
        "55464657044963196816950587289035428064568320970692304673817341489687446964226",
        "55464657044963196816950587289035428064568320970692304673817341489687446964225",
        "55464657044963196816950587289035428064568320970692304673817341489687446964224"
      ]
    },
    {
      "x": 64,
      "y": 275,
      "size": 1,
      "price": "2750000000000000000000",
      "assetIds": [
        "55464657044963196816950587289035428064568320970692304673817341489687446964230",
        "55464657044963196816950587289035428064568320970692304673817341489687446964226",
        "55464657044963196816950587289035428064568320970692304673817341489687446964225",
        "55464657044963196816950587289035428064568320970692304673817341489687446964224"
      ]
    },
    {
      "x": 64,
      "y": 276,
      "size": 1,
      "price": "2750000000000000000000",
      "assetIds": [
        "55464657044963196816950587289035428064568320970692304673817341489687446964230",
        "55464657044963196816950587289035428064568320970692304673817341489687446964226",
        "55464657044963196816950587289035428064568320970692304673817341489687446964225",
        "55464657044963196816950587289035428064568320970692304673817341489687446964224"
      ]
    },
    {
      "x": 63,
      "y": 275,
      "size": 1,
      "price": "2750000000000000000000",
      "assetIds": [
        "55464657044963196816950587289035428064568320970692304673817341489687446964227",
        "55464657044963196816950587289035428064568320970692304673817341489687446964226",
        "55464657044963196816950587289035428064568320970692304673817341489687446964225",
        "55464657044963196816950587289035428064568320970692304673817341489687446964224"
      ]
    },
    {
      "x": 63,
      "y": 274,
      "size": 1,
      "price": "2750000000000000000000",
      "assetIds": [
        "55464657044963196816950587289035428064568320970692304673817341489687446964231",
        "55464657044963196816950587289035428064568320970692304673817341489687446964226",
        "55464657044963196816950587289035428064568320970692304673817341489687446964225",
        "55464657044963196816950587289035428064568320970692304673817341489687446964224"
      ]
    },
    {
      "x": 63,
      "y": 273,
      "size": 1,
      "price": "2750000000000000000000",
      "assetIds": [
        "55464657044963196816950587289035428064568320970692304673817341489687446964228",
        "55464657044963196816950587289035428064568320970692304673817341489687446964226",
        "55464657044963196816950587289035428064568320970692304673817341489687446964225",
        "55464657044963196816950587289035428064568320970692304673817341489687446964224"
      ]
    },
    {
      "x": 62,
      "y": 273,
      "size": 1,
      "price": "2750000000000000000000",
      "assetIds": [
        "55464657044963196816950587289035428064568320970692304673817341489687446964230",
        "55464657044963196816950587289035428064568320970692304673817341489687446964226",
        "55464657044963196816950587289035428064568320970692304673817341489687446964225",
        "55464657044963196816950587289035428064568320970692304673817341489687446964224"
      ]
    },
    {
      "x": 62,
      "y": 274,
      "size": 1,
      "price": "2750000000000000000000",
      "assetIds": [
        "55464657044963196816950587289035428064568320970692304673817341489687446964232",
        "55464657044963196816950587289035428064568320970692304673817341489687446964226",
        "55464657044963196816950587289035428064568320970692304673817341489687446964225",
        "55464657044963196816950587289035428064568320970692304673817341489687446964224"
      ]
    },
    {
      "x": 62,
      "y": 275,
      "size": 1,
      "price": "2750000000000000000000",
      "assetIds": [
        "55464657044963196816950587289035428064568320970692304673817341489687446964231",
        "55464657044963196816950587289035428064568320970692304673817341489687446964226",
        "55464657044963196816950587289035428064568320970692304673817341489687446964225",
        "55464657044963196816950587289035428064568320970692304673817341489687446964224"
      ]
    },
    {
      "x": 62,
      "y": 276,
      "size": 1,
      "price": "2750000000000000000000",
      "assetIds": [
        "55464657044963196816950587289035428064568320970692304673817341489687446964230",
        "55464657044963196816950587289035428064568320970692304673817341489687446964226",
        "55464657044963196816950587289035428064568320970692304673817341489687446964225",
        "55464657044963196816950587289035428064568320970692304673817341489687446964224"
      ]
    },
    {
      "x": 62,
      "y": 277,
      "size": 1,
      "price": "2750000000000000000000",
      "assetIds": [
        "55464657044963196816950587289035428064568320970692304673817341489687446964230",
        "55464657044963196816950587289035428064568320970692304673817341489687446964226",
        "55464657044963196816950587289035428064568320970692304673817341489687446964225",
        "55464657044963196816950587289035428064568320970692304673817341489687446964224"
      ]
    },
    {
      "x": 62,
      "y": 278,
      "size": 1,
      "price": "2750000000000000000000",
      "assetIds": [
        "55464657044963196816950587289035428064568320970692304673817341489687446964228",
        "55464657044963196816950587289035428064568320970692304673817341489687446964226",
        "55464657044963196816950587289035428064568320970692304673817341489687446964225",
        "55464657044963196816950587289035428064568320970692304673817341489687446964224"
      ]
    },
    {
      "x": 63,
      "y": 277,
      "size": 1,
      "price": "2750000000000000000000",
      "assetIds": [
        "55464657044963196816950587289035428064568320970692304673817341489687446964230",
        "55464657044963196816950587289035428064568320970692304673817341489687446964226",
        "55464657044963196816950587289035428064568320970692304673817341489687446964225",
        "55464657044963196816950587289035428064568320970692304673817341489687446964224"
      ]
    },
    {
      "x": 61,
      "y": 276,
      "size": 1,
      "price": "2750000000000000000000",
      "assetIds": [
        "55464657044963196816950587289035428064568320970692304673817341489687446964228",
        "55464657044963196816950587289035428064568320970692304673817341489687446964226",
        "55464657044963196816950587289035428064568320970692304673817341489687446964225",
        "55464657044963196816950587289035428064568320970692304673817341489687446964224"
      ]
    },
    {
      "x": 61,
      "y": 277,
      "size": 1,
      "price": "2750000000000000000000",
      "assetIds": [
        "55464657044963196816950587289035428064568320970692304673817341489687446964232",
        "55464657044963196816950587289035428064568320970692304673817341489687446964226",
        "55464657044963196816950587289035428064568320970692304673817341489687446964225",
        "55464657044963196816950587289035428064568320970692304673817341489687446964224"
      ]
    },
    {
      "x": 60,
      "y": 277,
      "size": 1,
      "price": "2750000000000000000000",
      "assetIds": [
        "55464657044963196816950587289035428064568320970692304673817341489687446964227",
        "55464657044963196816950587289035428064568320970692304673817341489687446964226",
        "55464657044963196816950587289035428064568320970692304673817341489687446964225",
        "55464657044963196816950587289035428064568320970692304673817341489687446964224"
      ]
    },
    {
      "x": 60,
      "y": 278,
      "size": 1,
      "price": "2750000000000000000000",
      "assetIds": [
        "55464657044963196816950587289035428064568320970692304673817341489687446964227",
        "55464657044963196816950587289035428064568320970692304673817341489687446964226",
        "55464657044963196816950587289035428064568320970692304673817341489687446964225",
        "55464657044963196816950587289035428064568320970692304673817341489687446964224"
      ]
    },
    {
      "x": 60,
      "y": 279,
      "size": 1,
      "price": "2750000000000000000000",
      "assetIds": [
        "55464657044963196816950587289035428064568320970692304673817341489687446964229",
        "55464657044963196816950587289035428064568320970692304673817341489687446964226",
        "55464657044963196816950587289035428064568320970692304673817341489687446964225",
        "55464657044963196816950587289035428064568320970692304673817341489687446964224"
      ]
    },
    {
      "x": 60,
      "y": 280,
      "size": 1,
      "price": "2750000000000000000000",
      "assetIds": [
        "55464657044963196816950587289035428064568320970692304673817341489687446964228",
        "55464657044963196816950587289035428064568320970692304673817341489687446964226",
        "55464657044963196816950587289035428064568320970692304673817341489687446964225",
        "55464657044963196816950587289035428064568320970692304673817341489687446964224"
      ]
    },
    {
      "x": 61,
      "y": 279,
      "size": 1,
      "price": "2750000000000000000000",
      "assetIds": [
        "55464657044963196816950587289035428064568320970692304673817341489687446964227",
        "55464657044963196816950587289035428064568320970692304673817341489687446964226",
        "55464657044963196816950587289035428064568320970692304673817341489687446964225",
        "55464657044963196816950587289035428064568320970692304673817341489687446964224"
      ]
    },
    {
      "x": 60,
      "y": 276,
      "size": 1,
      "price": "2750000000000000000000",
      "assetIds": [
        "55464657044963196816950587289035428064568320970692304673817341489687446964232",
        "55464657044963196816950587289035428064568320970692304673817341489687446964226",
        "55464657044963196816950587289035428064568320970692304673817341489687446964225",
        "55464657044963196816950587289035428064568320970692304673817341489687446964224"
      ]
    },
    {
      "x": 60,
      "y": 275,
      "size": 1,
      "price": "2750000000000000000000",
      "assetIds": [
        "55464657044963196816950587289035428064568320970692304673817341489687446964229",
        "55464657044963196816950587289035428064568320970692304673817341489687446964226",
        "55464657044963196816950587289035428064568320970692304673817341489687446964225",
        "55464657044963196816950587289035428064568320970692304673817341489687446964224"
      ]
    },
    {
      "x": 60,
      "y": 274,
      "size": 1,
      "price": "2750000000000000000000",
      "assetIds": [
        "55464657044963196816950587289035428064568320970692304673817341489687446964231",
        "55464657044963196816950587289035428064568320970692304673817341489687446964226",
        "55464657044963196816950587289035428064568320970692304673817341489687446964225",
        "55464657044963196816950587289035428064568320970692304673817341489687446964224"
      ]
    },
    {
      "x": 60,
      "y": 273,
      "size": 1,
      "price": "2750000000000000000000",
      "assetIds": [
        "55464657044963196816950587289035428064568320970692304673817341489687446964232",
        "55464657044963196816950587289035428064568320970692304673817341489687446964226",
        "55464657044963196816950587289035428064568320970692304673817341489687446964225",
        "55464657044963196816950587289035428064568320970692304673817341489687446964224"
      ]
    },
    {
      "x": 60,
      "y": 272,
      "size": 1,
      "price": "2750000000000000000000",
      "assetIds": [
        "55464657044963196816950587289035428064568320970692304673817341489687446964227",
        "55464657044963196816950587289035428064568320970692304673817341489687446964226",
        "55464657044963196816950587289035428064568320970692304673817341489687446964225",
        "55464657044963196816950587289035428064568320970692304673817341489687446964224"
      ]
    },
    {
      "x": 60,
      "y": 271,
      "size": 1,
      "price": "2750000000000000000000",
      "assetIds": [
        "55464657044963196816950587289035428064568320970692304673817341489687446964232",
        "55464657044963196816950587289035428064568320970692304673817341489687446964226",
        "55464657044963196816950587289035428064568320970692304673817341489687446964225",
        "55464657044963196816950587289035428064568320970692304673817341489687446964224"
      ]
    },
    {
      "x": 60,
      "y": 270,
      "size": 1,
      "price": "2750000000000000000000",
      "assetIds": [
        "55464657044963196816950587289035428064568320970692304673817341489687446964229",
        "55464657044963196816950587289035428064568320970692304673817341489687446964226",
        "55464657044963196816950587289035428064568320970692304673817341489687446964225",
        "55464657044963196816950587289035428064568320970692304673817341489687446964224"
      ]
    },
    {
      "x": 60,
      "y": 269,
      "size": 1,
      "price": "2750000000000000000000",
      "assetIds": [
        "55464657044963196816950587289035428064568320970692304673817341489687446964230",
        "55464657044963196816950587289035428064568320970692304673817341489687446964226",
        "55464657044963196816950587289035428064568320970692304673817341489687446964225",
        "55464657044963196816950587289035428064568320970692304673817341489687446964224"
      ]
    },
    {
      "x": 60,
      "y": 268,
      "size": 1,
      "price": "2750000000000000000000",
      "assetIds": [
        "55464657044963196816950587289035428064568320970692304673817341489687446964232",
        "55464657044963196816950587289035428064568320970692304673817341489687446964226",
        "55464657044963196816950587289035428064568320970692304673817341489687446964225",
        "55464657044963196816950587289035428064568320970692304673817341489687446964224"
      ]
    },
    {
      "x": 60,
      "y": 267,
      "size": 1,
      "price": "2750000000000000000000",
      "assetIds": [
        "55464657044963196816950587289035428064568320970692304673817341489687446964229",
        "55464657044963196816950587289035428064568320970692304673817341489687446964226",
        "55464657044963196816950587289035428064568320970692304673817341489687446964225",
        "55464657044963196816950587289035428064568320970692304673817341489687446964224"
      ]
    },
    {
      "x": 61,
      "y": 267,
      "size": 1,
      "price": "2750000000000000000000",
      "assetIds": [
        "55464657044963196816950587289035428064568320970692304673817341489687446964228",
        "55464657044963196816950587289035428064568320970692304673817341489687446964226",
        "55464657044963196816950587289035428064568320970692304673817341489687446964225",
        "55464657044963196816950587289035428064568320970692304673817341489687446964224"
      ]
    },
    {
      "x": 62,
      "y": 267,
      "size": 1,
      "price": "2750000000000000000000",
      "assetIds": [
        "55464657044963196816950587289035428064568320970692304673817341489687446964229",
        "55464657044963196816950587289035428064568320970692304673817341489687446964226",
        "55464657044963196816950587289035428064568320970692304673817341489687446964225",
        "55464657044963196816950587289035428064568320970692304673817341489687446964224"
      ]
    },
    {
      "x": 63,
      "y": 267,
      "size": 1,
      "price": "2750000000000000000000",
      "assetIds": [
        "55464657044963196816950587289035428064568320970692304673817341489687446964227",
        "55464657044963196816950587289035428064568320970692304673817341489687446964226",
        "55464657044963196816950587289035428064568320970692304673817341489687446964225",
        "55464657044963196816950587289035428064568320970692304673817341489687446964224"
      ]
    },
    {
      "x": 63,
      "y": 268,
      "size": 1,
      "price": "2750000000000000000000",
      "assetIds": [
        "55464657044963196816950587289035428064568320970692304673817341489687446964231",
        "55464657044963196816950587289035428064568320970692304673817341489687446964226",
        "55464657044963196816950587289035428064568320970692304673817341489687446964225",
        "55464657044963196816950587289035428064568320970692304673817341489687446964224"
      ]
    },
    {
      "x": 62,
      "y": 268,
      "size": 1,
      "price": "2750000000000000000000",
      "assetIds": [
        "55464657044963196816950587289035428064568320970692304673817341489687446964231",
        "55464657044963196816950587289035428064568320970692304673817341489687446964226",
        "55464657044963196816950587289035428064568320970692304673817341489687446964225",
        "55464657044963196816950587289035428064568320970692304673817341489687446964224"
      ]
    },
    {
      "x": 61,
      "y": 268,
      "size": 1,
      "price": "2750000000000000000000",
      "assetIds": [
        "55464657044963196816950587289035428064568320970692304673817341489687446964231",
        "55464657044963196816950587289035428064568320970692304673817341489687446964226",
        "55464657044963196816950587289035428064568320970692304673817341489687446964225",
        "55464657044963196816950587289035428064568320970692304673817341489687446964224"
      ]
    },
    {
      "x": 63,
      "y": 269,
      "size": 1,
      "price": "2750000000000000000000",
      "assetIds": [
        "55464657044963196816950587289035428064568320970692304673817341489687446964227",
        "55464657044963196816950587289035428064568320970692304673817341489687446964226",
        "55464657044963196816950587289035428064568320970692304673817341489687446964225",
        "55464657044963196816950587289035428064568320970692304673817341489687446964224"
      ]
    },
    {
      "x": 63,
      "y": 270,
      "size": 1,
      "price": "2750000000000000000000",
      "assetIds": [
        "55464657044963196816950587289035428064568320970692304673817341489687446964227",
        "55464657044963196816950587289035428064568320970692304673817341489687446964226",
        "55464657044963196816950587289035428064568320970692304673817341489687446964225",
        "55464657044963196816950587289035428064568320970692304673817341489687446964224"
      ]
    },
    {
      "x": 62,
      "y": 270,
      "size": 1,
      "price": "2750000000000000000000",
      "assetIds": [
        "55464657044963196816950587289035428064568320970692304673817341489687446964227",
        "55464657044963196816950587289035428064568320970692304673817341489687446964226",
        "55464657044963196816950587289035428064568320970692304673817341489687446964225",
        "55464657044963196816950587289035428064568320970692304673817341489687446964224"
      ]
    },
    {
      "x": 61,
      "y": 270,
      "size": 1,
      "price": "2750000000000000000000",
      "assetIds": [
        "55464657044963196816950587289035428064568320970692304673817341489687446964232",
        "55464657044963196816950587289035428064568320970692304673817341489687446964226",
        "55464657044963196816950587289035428064568320970692304673817341489687446964225",
        "55464657044963196816950587289035428064568320970692304673817341489687446964224"
      ]
    },
    {
      "x": 62,
      "y": 271,
      "size": 1,
      "price": "2750000000000000000000",
      "assetIds": [
        "55464657044963196816950587289035428064568320970692304673817341489687446964229",
        "55464657044963196816950587289035428064568320970692304673817341489687446964226",
        "55464657044963196816950587289035428064568320970692304673817341489687446964225",
        "55464657044963196816950587289035428064568320970692304673817341489687446964224"
      ]
    },
    {
      "x": 61,
      "y": 269,
      "size": 1,
      "price": "2750000000000000000000",
      "assetIds": [
        "55464657044963196816950587289035428064568320970692304673817341489687446964229",
        "55464657044963196816950587289035428064568320970692304673817341489687446964226",
        "55464657044963196816950587289035428064568320970692304673817341489687446964225",
        "55464657044963196816950587289035428064568320970692304673817341489687446964224"
      ]
    },
    {
      "x": 62,
      "y": 272,
      "size": 1,
      "price": "2750000000000000000000",
      "assetIds": [
        "55464657044963196816950587289035428064568320970692304673817341489687446964231",
        "55464657044963196816950587289035428064568320970692304673817341489687446964226",
        "55464657044963196816950587289035428064568320970692304673817341489687446964225",
        "55464657044963196816950587289035428064568320970692304673817341489687446964224"
      ]
    },
    {
      "x": 63,
      "y": 271,
      "size": 1,
      "price": "2750000000000000000000",
      "assetIds": [
        "55464657044963196816950587289035428064568320970692304673817341489687446964232",
        "55464657044963196816950587289035428064568320970692304673817341489687446964226",
        "55464657044963196816950587289035428064568320970692304673817341489687446964225",
        "55464657044963196816950587289035428064568320970692304673817341489687446964224"
      ]
    },
    {
      "x": 61,
      "y": 272,
      "size": 1,
      "price": "2750000000000000000000",
      "assetIds": [
        "55464657044963196816950587289035428064568320970692304673817341489687446964231",
        "55464657044963196816950587289035428064568320970692304673817341489687446964226",
        "55464657044963196816950587289035428064568320970692304673817341489687446964225",
        "55464657044963196816950587289035428064568320970692304673817341489687446964224"
      ]
    },
    {
      "x": 61,
      "y": 271,
      "size": 1,
      "price": "2750000000000000000000",
      "assetIds": [
        "55464657044963196816950587289035428064568320970692304673817341489687446964227",
        "55464657044963196816950587289035428064568320970692304673817341489687446964226",
        "55464657044963196816950587289035428064568320970692304673817341489687446964225",
        "55464657044963196816950587289035428064568320970692304673817341489687446964224"
      ]
    },
    {
      "x": 61,
      "y": 273,
      "size": 1,
      "price": "2750000000000000000000",
      "assetIds": [
        "55464657044963196816950587289035428064568320970692304673817341489687446964230",
        "55464657044963196816950587289035428064568320970692304673817341489687446964226",
        "55464657044963196816950587289035428064568320970692304673817341489687446964225",
        "55464657044963196816950587289035428064568320970692304673817341489687446964224"
      ]
    },
    {
      "x": 61,
      "y": 275,
      "size": 1,
      "price": "2750000000000000000000",
      "assetIds": [
        "55464657044963196816950587289035428064568320970692304673817341489687446964230",
        "55464657044963196816950587289035428064568320970692304673817341489687446964226",
        "55464657044963196816950587289035428064568320970692304673817341489687446964225",
        "55464657044963196816950587289035428064568320970692304673817341489687446964224"
      ]
    },
    {
      "x": 65,
      "y": 273,
      "size": 1,
      "price": "2750000000000000000000",
      "assetIds": [
        "55464657044963196816950587289035428064568320970692304673817341489687446964229",
        "55464657044963196816950587289035428064568320970692304673817341489687446964226",
        "55464657044963196816950587289035428064568320970692304673817341489687446964225",
        "55464657044963196816950587289035428064568320970692304673817341489687446964224"
      ]
    },
    {
      "x": 65,
      "y": 270,
      "size": 1,
      "price": "2750000000000000000000",
      "assetIds": [
        "55464657044963196816950587289035428064568320970692304673817341489687446964231",
        "55464657044963196816950587289035428064568320970692304673817341489687446964226",
        "55464657044963196816950587289035428064568320970692304673817341489687446964225",
        "55464657044963196816950587289035428064568320970692304673817341489687446964224"
      ]
    },
    {
      "x": 65,
      "y": 267,
      "size": 1,
      "price": "1182000000000000000000",
      "assetIds": []
    },
    {
      "x": 65,
      "y": 268,
      "size": 1,
      "price": "1182000000000000000000",
      "assetIds": []
    },
    {
      "x": 65,
      "y": 269,
      "size": 1,
      "price": "1182000000000000000000",
      "assetIds": []
    },
    {
      "x": 65,
      "y": 271,
      "size": 1,
      "price": "1182000000000000000000",
      "assetIds": []
    },
    {
      "x": 65,
      "y": 272,
      "size": 1,
      "price": "1182000000000000000000",
      "assetIds": []
    },
    {
      "x": 66,
      "y": 271,
      "size": 1,
      "price": "1182000000000000000000",
      "assetIds": []
    },
    {
      "x": 66,
      "y": 272,
      "size": 1,
      "price": "1182000000000000000000",
      "assetIds": []
    },
    {
      "x": 65,
      "y": 275,
      "size": 1,
      "price": "1182000000000000000000",
      "assetIds": []
    },
    {
      "x": 65,
      "y": 276,
      "size": 1,
      "price": "1182000000000000000000",
      "assetIds": []
    },
    {
      "x": 64,
      "y": 277,
      "size": 1,
      "price": "1182000000000000000000",
      "assetIds": []
    },
    {
      "x": 63,
      "y": 278,
      "size": 1,
      "price": "1182000000000000000000",
      "assetIds": []
    },
    {
      "x": 62,
      "y": 279,
      "size": 1,
      "price": "1182000000000000000000",
      "assetIds": []
    },
    {
      "x": 62,
      "y": 280,
      "size": 1,
      "price": "1182000000000000000000",
      "assetIds": []
    },
    {
      "x": 61,
      "y": 280,
      "size": 1,
      "price": "1182000000000000000000",
      "assetIds": []
    },
    {
      "x": 61,
      "y": 281,
      "size": 1,
      "price": "1182000000000000000000",
      "assetIds": []
    },
    {
      "x": 60,
      "y": 281,
      "size": 1,
      "price": "1182000000000000000000",
      "assetIds": []
    },
    {
      "x": 64,
      "y": 278,
      "size": 1,
      "price": "1182000000000000000000",
      "reserved": "0x7a9fe22691c811ea339d9b73150e6911a5343dca",
      "assetIds": []
    },
    {
      "x": 65,
      "y": 274,
      "size": 1,
      "price": "1182000000000000000000",
      "reserved": "0x7a9fe22691c811ea339d9b73150e6911a5343dca",
      "assetIds": []
    },
    {
      "x": 68,
      "y": 266,
      "size": 1,
      "price": "1182000000000000000000",
      "assetIds": []
    },
    {
      "x": 67,
      "y": 266,
      "size": 1,
      "price": "1182000000000000000000",
      "assetIds": []
    },
    {
      "x": 67,
      "y": 265,
      "size": 1,
      "price": "1182000000000000000000",
      "assetIds": []
    },
    {
      "x": 67,
      "y": 264,
      "size": 1,
      "price": "1182000000000000000000",
      "assetIds": []
    },
    {
      "x": 68,
      "y": 264,
      "size": 1,
      "price": "1182000000000000000000",
      "assetIds": []
    },
    {
      "x": 61,
      "y": 265,
      "size": 1,
      "price": "1182000000000000000000",
      "reserved": "0x7a9fe22691c811ea339d9b73150e6911a5343dca",
      "assetIds": []
    },
    {
      "x": 65,
      "y": 264,
      "size": 1,
      "price": "1182000000000000000000",
      "reserved": "0x7a9fe22691c811ea339d9b73150e6911a5343dca",
      "assetIds": []
    },
    {
      "x": 68,
      "y": 265,
      "size": 1,
      "price": "1182000000000000000000",
      "reserved": "0x7a9fe22691c811ea339d9b73150e6911a5343dca",
      "assetIds": []
    },
    {
      "x": 64,
      "y": 261,
      "size": 1,
      "price": "1182000000000000000000",
      "reserved": "0x7a9fe22691c811ea339d9b73150e6911a5343dca",
      "assetIds": []
    },
    {
      "x": 62,
      "y": 259,
      "size": 1,
      "price": "1182000000000000000000",
      "reserved": "0x7a9fe22691c811ea339d9b73150e6911a5343dca",
      "assetIds": []
    },
    {
      "x": 60,
      "y": 261,
      "size": 1,
      "price": "1182000000000000000000",
      "reserved": "0x7a9fe22691c811ea339d9b73150e6911a5343dca",
      "assetIds": []
    },
    {
      "x": 58,
      "y": 262,
      "size": 1,
      "price": "1182000000000000000000",
      "reserved": "0x7a9fe22691c811ea339d9b73150e6911a5343dca",
      "assetIds": []
    },
    {
      "x": 57,
      "y": 259,
      "size": 1,
      "price": "1182000000000000000000",
      "reserved": "0x7a9fe22691c811ea339d9b73150e6911a5343dca",
      "assetIds": []
    },
    {
      "x": 54,
      "y": 258,
      "size": 1,
      "price": "1182000000000000000000",
      "reserved": "0x7a9fe22691c811ea339d9b73150e6911a5343dca",
      "assetIds": []
    },
    {
      "x": 55,
      "y": 261,
      "size": 1,
      "price": "1182000000000000000000",
      "reserved": "0x7a9fe22691c811ea339d9b73150e6911a5343dca",
      "assetIds": []
    },
    {
      "x": 51,
      "y": 260,
      "size": 1,
      "price": "1182000000000000000000",
      "reserved": "0x7a9fe22691c811ea339d9b73150e6911a5343dca",
      "assetIds": []
    },
    {
      "x": 53,
      "y": 258,
      "size": 1,
      "price": "1182000000000000000000",
      "assetIds": []
    },
    {
      "x": 52,
      "y": 258,
      "size": 1,
      "price": "1182000000000000000000",
      "assetIds": []
    },
    {
      "x": 51,
      "y": 258,
      "size": 1,
      "price": "1182000000000000000000",
      "assetIds": []
    },
    {
      "x": 55,
      "y": 258,
      "size": 1,
      "price": "1182000000000000000000",
      "assetIds": []
    },
    {
      "x": 57,
      "y": 258,
      "size": 1,
      "price": "1182000000000000000000",
      "assetIds": []
    },
    {
      "x": 58,
      "y": 258,
      "size": 1,
      "price": "1182000000000000000000",
      "assetIds": []
    },
    {
      "x": 60,
      "y": 258,
      "size": 1,
      "price": "1182000000000000000000",
      "assetIds": []
    },
    {
      "x": 61,
      "y": 258,
      "size": 1,
      "price": "1182000000000000000000",
      "assetIds": []
    },
    {
      "x": 62,
      "y": 258,
      "size": 1,
      "price": "1182000000000000000000",
      "assetIds": []
    },
    {
      "x": 61,
      "y": 259,
      "size": 1,
      "price": "1182000000000000000000",
      "assetIds": []
    },
    {
      "x": 63,
      "y": 261,
      "size": 1,
      "price": "1182000000000000000000",
      "assetIds": []
    },
    {
      "x": 64,
      "y": 262,
      "size": 1,
      "price": "1182000000000000000000",
      "assetIds": []
    },
    {
      "x": 65,
      "y": 262,
      "size": 1,
      "price": "1182000000000000000000",
      "assetIds": []
    },
    {
      "x": 65,
      "y": 261,
      "size": 1,
      "price": "1182000000000000000000",
      "assetIds": []
    },
    {
      "x": 65,
      "y": 263,
      "size": 1,
      "price": "1182000000000000000000",
      "assetIds": []
    },
    {
      "x": 66,
      "y": 264,
      "size": 1,
      "price": "1182000000000000000000",
      "assetIds": []
    },
    {
      "x": 66,
      "y": 265,
      "size": 1,
      "price": "1182000000000000000000",
      "assetIds": []
    },
    {
      "x": 66,
      "y": 266,
      "size": 1,
      "price": "1182000000000000000000",
      "assetIds": []
    },
    {
      "x": 65,
      "y": 265,
      "size": 1,
      "price": "1182000000000000000000",
      "assetIds": []
    },
    {
      "x": 60,
      "y": 266,
      "size": 1,
      "price": "2750000000000000000000",
      "assetIds": [
        "55464657044963196816950587289035428064568320970692304673817341489687446964231",
        "55464657044963196816950587289035428064568320970692304673817341489687446964226",
        "55464657044963196816950587289035428064568320970692304673817341489687446964225",
        "55464657044963196816950587289035428064568320970692304673817341489687446964224"
      ]
    },
    {
      "x": 61,
      "y": 266,
      "size": 1,
      "price": "2750000000000000000000",
      "assetIds": [
        "55464657044963196816950587289035428064568320970692304673817341489687446964231",
        "55464657044963196816950587289035428064568320970692304673817341489687446964226",
        "55464657044963196816950587289035428064568320970692304673817341489687446964225",
        "55464657044963196816950587289035428064568320970692304673817341489687446964224"
      ]
    },
    {
      "x": 62,
      "y": 266,
      "size": 1,
      "price": "2750000000000000000000",
      "assetIds": [
        "55464657044963196816950587289035428064568320970692304673817341489687446964230",
        "55464657044963196816950587289035428064568320970692304673817341489687446964226",
        "55464657044963196816950587289035428064568320970692304673817341489687446964225",
        "55464657044963196816950587289035428064568320970692304673817341489687446964224"
      ]
    },
    {
      "x": 63,
      "y": 266,
      "size": 1,
      "price": "2750000000000000000000",
      "assetIds": [
        "55464657044963196816950587289035428064568320970692304673817341489687446964231",
        "55464657044963196816950587289035428064568320970692304673817341489687446964226",
        "55464657044963196816950587289035428064568320970692304673817341489687446964225",
        "55464657044963196816950587289035428064568320970692304673817341489687446964224"
      ]
    },
    {
      "x": 64,
      "y": 266,
      "size": 1,
      "price": "2750000000000000000000",
      "assetIds": [
        "55464657044963196816950587289035428064568320970692304673817341489687446964231",
        "55464657044963196816950587289035428064568320970692304673817341489687446964226",
        "55464657044963196816950587289035428064568320970692304673817341489687446964225",
        "55464657044963196816950587289035428064568320970692304673817341489687446964224"
      ]
    },
    {
      "x": 65,
      "y": 266,
      "size": 1,
      "price": "2750000000000000000000",
      "assetIds": [
        "55464657044963196816950587289035428064568320970692304673817341489687446964230",
        "55464657044963196816950587289035428064568320970692304673817341489687446964226",
        "55464657044963196816950587289035428064568320970692304673817341489687446964225",
        "55464657044963196816950587289035428064568320970692304673817341489687446964224"
      ]
    },
    {
      "x": 64,
      "y": 265,
      "size": 1,
      "price": "2750000000000000000000",
      "assetIds": [
        "55464657044963196816950587289035428064568320970692304673817341489687446964232",
        "55464657044963196816950587289035428064568320970692304673817341489687446964226",
        "55464657044963196816950587289035428064568320970692304673817341489687446964225",
        "55464657044963196816950587289035428064568320970692304673817341489687446964224"
      ]
    },
    {
      "x": 63,
      "y": 265,
      "size": 1,
      "price": "2750000000000000000000",
      "assetIds": [
        "55464657044963196816950587289035428064568320970692304673817341489687446964232",
        "55464657044963196816950587289035428064568320970692304673817341489687446964226",
        "55464657044963196816950587289035428064568320970692304673817341489687446964225",
        "55464657044963196816950587289035428064568320970692304673817341489687446964224"
      ]
    },
    {
      "x": 63,
      "y": 264,
      "size": 1,
      "price": "2750000000000000000000",
      "assetIds": [
        "55464657044963196816950587289035428064568320970692304673817341489687446964228",
        "55464657044963196816950587289035428064568320970692304673817341489687446964226",
        "55464657044963196816950587289035428064568320970692304673817341489687446964225",
        "55464657044963196816950587289035428064568320970692304673817341489687446964224"
      ]
    },
    {
      "x": 64,
      "y": 264,
      "size": 1,
      "price": "2750000000000000000000",
      "assetIds": [
        "55464657044963196816950587289035428064568320970692304673817341489687446964231",
        "55464657044963196816950587289035428064568320970692304673817341489687446964226",
        "55464657044963196816950587289035428064568320970692304673817341489687446964225",
        "55464657044963196816950587289035428064568320970692304673817341489687446964224"
      ]
    },
    {
      "x": 64,
      "y": 263,
      "size": 1,
      "price": "2750000000000000000000",
      "assetIds": [
        "55464657044963196816950587289035428064568320970692304673817341489687446964232",
        "55464657044963196816950587289035428064568320970692304673817341489687446964226",
        "55464657044963196816950587289035428064568320970692304673817341489687446964225",
        "55464657044963196816950587289035428064568320970692304673817341489687446964224"
      ]
    },
    {
      "x": 63,
      "y": 263,
      "size": 1,
      "price": "2750000000000000000000",
      "assetIds": [
        "55464657044963196816950587289035428064568320970692304673817341489687446964232",
        "55464657044963196816950587289035428064568320970692304673817341489687446964226",
        "55464657044963196816950587289035428064568320970692304673817341489687446964225",
        "55464657044963196816950587289035428064568320970692304673817341489687446964224"
      ]
    },
    {
      "x": 63,
      "y": 262,
      "size": 1,
      "price": "2750000000000000000000",
      "assetIds": [
        "55464657044963196816950587289035428064568320970692304673817341489687446964229",
        "55464657044963196816950587289035428064568320970692304673817341489687446964226",
        "55464657044963196816950587289035428064568320970692304673817341489687446964225",
        "55464657044963196816950587289035428064568320970692304673817341489687446964224"
      ]
    },
    {
      "x": 62,
      "y": 263,
      "size": 1,
      "price": "2750000000000000000000",
      "assetIds": [
        "55464657044963196816950587289035428064568320970692304673817341489687446964228",
        "55464657044963196816950587289035428064568320970692304673817341489687446964226",
        "55464657044963196816950587289035428064568320970692304673817341489687446964225",
        "55464657044963196816950587289035428064568320970692304673817341489687446964224"
      ]
    },
    {
      "x": 62,
      "y": 262,
      "size": 1,
      "price": "2750000000000000000000",
      "assetIds": [
        "55464657044963196816950587289035428064568320970692304673817341489687446964228",
        "55464657044963196816950587289035428064568320970692304673817341489687446964226",
        "55464657044963196816950587289035428064568320970692304673817341489687446964225",
        "55464657044963196816950587289035428064568320970692304673817341489687446964224"
      ]
    },
    {
      "x": 61,
      "y": 262,
      "size": 1,
      "price": "2750000000000000000000",
      "assetIds": [
        "55464657044963196816950587289035428064568320970692304673817341489687446964230",
        "55464657044963196816950587289035428064568320970692304673817341489687446964226",
        "55464657044963196816950587289035428064568320970692304673817341489687446964225",
        "55464657044963196816950587289035428064568320970692304673817341489687446964224"
      ]
    },
    {
      "x": 61,
      "y": 261,
      "size": 1,
      "price": "2750000000000000000000",
      "assetIds": [
        "55464657044963196816950587289035428064568320970692304673817341489687446964232",
        "55464657044963196816950587289035428064568320970692304673817341489687446964226",
        "55464657044963196816950587289035428064568320970692304673817341489687446964225",
        "55464657044963196816950587289035428064568320970692304673817341489687446964224"
      ]
    },
    {
      "x": 61,
      "y": 260,
      "size": 1,
      "price": "2750000000000000000000",
      "assetIds": [
        "55464657044963196816950587289035428064568320970692304673817341489687446964230",
        "55464657044963196816950587289035428064568320970692304673817341489687446964226",
        "55464657044963196816950587289035428064568320970692304673817341489687446964225",
        "55464657044963196816950587289035428064568320970692304673817341489687446964224"
      ]
    },
    {
      "x": 62,
      "y": 260,
      "size": 1,
      "price": "2750000000000000000000",
      "assetIds": [
        "55464657044963196816950587289035428064568320970692304673817341489687446964228",
        "55464657044963196816950587289035428064568320970692304673817341489687446964226",
        "55464657044963196816950587289035428064568320970692304673817341489687446964225",
        "55464657044963196816950587289035428064568320970692304673817341489687446964224"
      ]
    },
    {
      "x": 62,
      "y": 261,
      "size": 1,
      "price": "2750000000000000000000",
      "assetIds": [
        "55464657044963196816950587289035428064568320970692304673817341489687446964228",
        "55464657044963196816950587289035428064568320970692304673817341489687446964226",
        "55464657044963196816950587289035428064568320970692304673817341489687446964225",
        "55464657044963196816950587289035428064568320970692304673817341489687446964224"
      ]
    },
    {
      "x": 60,
      "y": 260,
      "size": 1,
      "price": "2750000000000000000000",
      "assetIds": [
        "55464657044963196816950587289035428064568320970692304673817341489687446964230",
        "55464657044963196816950587289035428064568320970692304673817341489687446964226",
        "55464657044963196816950587289035428064568320970692304673817341489687446964225",
        "55464657044963196816950587289035428064568320970692304673817341489687446964224"
      ]
    },
    {
      "x": 59,
      "y": 260,
      "size": 1,
      "price": "2750000000000000000000",
      "assetIds": [
        "55464657044963196816950587289035428064568320970692304673817341489687446964229",
        "55464657044963196816950587289035428064568320970692304673817341489687446964226",
        "55464657044963196816950587289035428064568320970692304673817341489687446964225",
        "55464657044963196816950587289035428064568320970692304673817341489687446964224"
      ]
    },
    {
      "x": 59,
      "y": 259,
      "size": 1,
      "price": "2750000000000000000000",
      "assetIds": [
        "55464657044963196816950587289035428064568320970692304673817341489687446964228",
        "55464657044963196816950587289035428064568320970692304673817341489687446964226",
        "55464657044963196816950587289035428064568320970692304673817341489687446964225",
        "55464657044963196816950587289035428064568320970692304673817341489687446964224"
      ]
    },
    {
      "x": 59,
      "y": 258,
      "size": 1,
      "price": "2750000000000000000000",
      "assetIds": [
        "55464657044963196816950587289035428064568320970692304673817341489687446964227",
        "55464657044963196816950587289035428064568320970692304673817341489687446964226",
        "55464657044963196816950587289035428064568320970692304673817341489687446964225",
        "55464657044963196816950587289035428064568320970692304673817341489687446964224"
      ]
    },
    {
      "x": 60,
      "y": 259,
      "size": 1,
      "price": "2750000000000000000000",
      "assetIds": [
        "55464657044963196816950587289035428064568320970692304673817341489687446964230",
        "55464657044963196816950587289035428064568320970692304673817341489687446964226",
        "55464657044963196816950587289035428064568320970692304673817341489687446964225",
        "55464657044963196816950587289035428064568320970692304673817341489687446964224"
      ]
    },
    {
      "x": 58,
      "y": 259,
      "size": 1,
      "price": "2750000000000000000000",
      "assetIds": [
        "55464657044963196816950587289035428064568320970692304673817341489687446964227",
        "55464657044963196816950587289035428064568320970692304673817341489687446964226",
        "55464657044963196816950587289035428064568320970692304673817341489687446964225",
        "55464657044963196816950587289035428064568320970692304673817341489687446964224"
      ]
    },
    {
      "x": 56,
      "y": 259,
      "size": 1,
      "price": "2750000000000000000000",
      "assetIds": [
        "55464657044963196816950587289035428064568320970692304673817341489687446964228",
        "55464657044963196816950587289035428064568320970692304673817341489687446964226",
        "55464657044963196816950587289035428064568320970692304673817341489687446964225",
        "55464657044963196816950587289035428064568320970692304673817341489687446964224"
      ]
    },
    {
      "x": 56,
      "y": 258,
      "size": 1,
      "price": "2750000000000000000000",
      "assetIds": [
        "55464657044963196816950587289035428064568320970692304673817341489687446964229",
        "55464657044963196816950587289035428064568320970692304673817341489687446964226",
        "55464657044963196816950587289035428064568320970692304673817341489687446964225",
        "55464657044963196816950587289035428064568320970692304673817341489687446964224"
      ]
    },
    {
      "x": 55,
      "y": 259,
      "size": 1,
      "price": "2750000000000000000000",
      "assetIds": [
        "55464657044963196816950587289035428064568320970692304673817341489687446964232",
        "55464657044963196816950587289035428064568320970692304673817341489687446964226",
        "55464657044963196816950587289035428064568320970692304673817341489687446964225",
        "55464657044963196816950587289035428064568320970692304673817341489687446964224"
      ]
    },
    {
      "x": 55,
      "y": 260,
      "size": 1,
      "price": "2750000000000000000000",
      "assetIds": [
        "55464657044963196816950587289035428064568320970692304673817341489687446964232",
        "55464657044963196816950587289035428064568320970692304673817341489687446964226",
        "55464657044963196816950587289035428064568320970692304673817341489687446964225",
        "55464657044963196816950587289035428064568320970692304673817341489687446964224"
      ]
    },
    {
      "x": 54,
      "y": 259,
      "size": 1,
      "price": "2750000000000000000000",
      "assetIds": [
        "55464657044963196816950587289035428064568320970692304673817341489687446964232",
        "55464657044963196816950587289035428064568320970692304673817341489687446964226",
        "55464657044963196816950587289035428064568320970692304673817341489687446964225",
        "55464657044963196816950587289035428064568320970692304673817341489687446964224"
      ]
    },
    {
      "x": 53,
      "y": 259,
      "size": 1,
      "price": "2750000000000000000000",
      "assetIds": [
        "55464657044963196816950587289035428064568320970692304673817341489687446964227",
        "55464657044963196816950587289035428064568320970692304673817341489687446964226",
        "55464657044963196816950587289035428064568320970692304673817341489687446964225",
        "55464657044963196816950587289035428064568320970692304673817341489687446964224"
      ]
    },
    {
      "x": 52,
      "y": 259,
      "size": 1,
      "price": "2750000000000000000000",
      "assetIds": [
        "55464657044963196816950587289035428064568320970692304673817341489687446964231",
        "55464657044963196816950587289035428064568320970692304673817341489687446964226",
        "55464657044963196816950587289035428064568320970692304673817341489687446964225",
        "55464657044963196816950587289035428064568320970692304673817341489687446964224"
      ]
    },
    {
      "x": 51,
      "y": 259,
      "size": 1,
      "price": "2750000000000000000000",
      "assetIds": [
        "55464657044963196816950587289035428064568320970692304673817341489687446964229",
        "55464657044963196816950587289035428064568320970692304673817341489687446964226",
        "55464657044963196816950587289035428064568320970692304673817341489687446964225",
        "55464657044963196816950587289035428064568320970692304673817341489687446964224"
      ]
    },
    {
      "x": 52,
      "y": 260,
      "size": 1,
      "price": "2750000000000000000000",
      "assetIds": [
        "55464657044963196816950587289035428064568320970692304673817341489687446964229",
        "55464657044963196816950587289035428064568320970692304673817341489687446964226",
        "55464657044963196816950587289035428064568320970692304673817341489687446964225",
        "55464657044963196816950587289035428064568320970692304673817341489687446964224"
      ]
    },
    {
      "x": 53,
      "y": 260,
      "size": 1,
      "price": "2750000000000000000000",
      "assetIds": [
        "55464657044963196816950587289035428064568320970692304673817341489687446964232",
        "55464657044963196816950587289035428064568320970692304673817341489687446964226",
        "55464657044963196816950587289035428064568320970692304673817341489687446964225",
        "55464657044963196816950587289035428064568320970692304673817341489687446964224"
      ]
    },
    {
      "x": 54,
      "y": 260,
      "size": 1,
      "price": "2750000000000000000000",
      "assetIds": [
        "55464657044963196816950587289035428064568320970692304673817341489687446964232",
        "55464657044963196816950587289035428064568320970692304673817341489687446964226",
        "55464657044963196816950587289035428064568320970692304673817341489687446964225",
        "55464657044963196816950587289035428064568320970692304673817341489687446964224"
      ]
    },
    {
      "x": 54,
      "y": 261,
      "size": 1,
      "price": "2750000000000000000000",
      "assetIds": [
        "55464657044963196816950587289035428064568320970692304673817341489687446964228",
        "55464657044963196816950587289035428064568320970692304673817341489687446964226",
        "55464657044963196816950587289035428064568320970692304673817341489687446964225",
        "55464657044963196816950587289035428064568320970692304673817341489687446964224"
      ]
    },
    {
      "x": 53,
      "y": 261,
      "size": 1,
      "price": "2750000000000000000000",
      "assetIds": [
        "55464657044963196816950587289035428064568320970692304673817341489687446964228",
        "55464657044963196816950587289035428064568320970692304673817341489687446964226",
        "55464657044963196816950587289035428064568320970692304673817341489687446964225",
        "55464657044963196816950587289035428064568320970692304673817341489687446964224"
      ]
    },
    {
      "x": 52,
      "y": 261,
      "size": 1,
      "price": "2750000000000000000000",
      "assetIds": [
        "55464657044963196816950587289035428064568320970692304673817341489687446964231",
        "55464657044963196816950587289035428064568320970692304673817341489687446964226",
        "55464657044963196816950587289035428064568320970692304673817341489687446964225",
        "55464657044963196816950587289035428064568320970692304673817341489687446964224"
      ]
    },
    {
      "x": 51,
      "y": 261,
      "size": 1,
      "price": "2750000000000000000000",
      "assetIds": [
        "55464657044963196816950587289035428064568320970692304673817341489687446964230",
        "55464657044963196816950587289035428064568320970692304673817341489687446964226",
        "55464657044963196816950587289035428064568320970692304673817341489687446964225",
        "55464657044963196816950587289035428064568320970692304673817341489687446964224"
      ]
    },
    {
      "x": 51,
      "y": 262,
      "size": 1,
      "price": "2750000000000000000000",
      "assetIds": [
        "55464657044963196816950587289035428064568320970692304673817341489687446964229",
        "55464657044963196816950587289035428064568320970692304673817341489687446964226",
        "55464657044963196816950587289035428064568320970692304673817341489687446964225",
        "55464657044963196816950587289035428064568320970692304673817341489687446964224"
      ]
    },
    {
      "x": 51,
      "y": 263,
      "size": 1,
      "price": "2750000000000000000000",
      "assetIds": [
        "55464657044963196816950587289035428064568320970692304673817341489687446964228",
        "55464657044963196816950587289035428064568320970692304673817341489687446964226",
        "55464657044963196816950587289035428064568320970692304673817341489687446964225",
        "55464657044963196816950587289035428064568320970692304673817341489687446964224"
      ]
    },
    {
      "x": 52,
      "y": 263,
      "size": 1,
      "price": "2750000000000000000000",
      "assetIds": [
        "55464657044963196816950587289035428064568320970692304673817341489687446964227",
        "55464657044963196816950587289035428064568320970692304673817341489687446964226",
        "55464657044963196816950587289035428064568320970692304673817341489687446964225",
        "55464657044963196816950587289035428064568320970692304673817341489687446964224"
      ]
    },
    {
      "x": 53,
      "y": 263,
      "size": 1,
      "price": "2750000000000000000000",
      "assetIds": [
        "55464657044963196816950587289035428064568320970692304673817341489687446964228",
        "55464657044963196816950587289035428064568320970692304673817341489687446964226",
        "55464657044963196816950587289035428064568320970692304673817341489687446964225",
        "55464657044963196816950587289035428064568320970692304673817341489687446964224"
      ]
    },
    {
      "x": 54,
      "y": 263,
      "size": 1,
      "price": "2750000000000000000000",
      "assetIds": [
        "55464657044963196816950587289035428064568320970692304673817341489687446964227",
        "55464657044963196816950587289035428064568320970692304673817341489687446964226",
        "55464657044963196816950587289035428064568320970692304673817341489687446964225",
        "55464657044963196816950587289035428064568320970692304673817341489687446964224"
      ]
    },
    {
      "x": 55,
      "y": 263,
      "size": 1,
      "price": "2750000000000000000000",
      "assetIds": [
        "55464657044963196816950587289035428064568320970692304673817341489687446964227",
        "55464657044963196816950587289035428064568320970692304673817341489687446964226",
        "55464657044963196816950587289035428064568320970692304673817341489687446964225",
        "55464657044963196816950587289035428064568320970692304673817341489687446964224"
      ]
    },
    {
      "x": 56,
      "y": 263,
      "size": 1,
      "price": "2750000000000000000000",
      "assetIds": [
        "55464657044963196816950587289035428064568320970692304673817341489687446964231",
        "55464657044963196816950587289035428064568320970692304673817341489687446964226",
        "55464657044963196816950587289035428064568320970692304673817341489687446964225",
        "55464657044963196816950587289035428064568320970692304673817341489687446964224"
      ]
    },
    {
      "x": 57,
      "y": 263,
      "size": 1,
      "price": "2750000000000000000000",
      "assetIds": [
        "55464657044963196816950587289035428064568320970692304673817341489687446964228",
        "55464657044963196816950587289035428064568320970692304673817341489687446964226",
        "55464657044963196816950587289035428064568320970692304673817341489687446964225",
        "55464657044963196816950587289035428064568320970692304673817341489687446964224"
      ]
    },
    {
      "x": 58,
      "y": 263,
      "size": 1,
      "price": "2750000000000000000000",
      "assetIds": [
        "55464657044963196816950587289035428064568320970692304673817341489687446964231",
        "55464657044963196816950587289035428064568320970692304673817341489687446964226",
        "55464657044963196816950587289035428064568320970692304673817341489687446964225",
        "55464657044963196816950587289035428064568320970692304673817341489687446964224"
      ]
    },
    {
      "x": 59,
      "y": 263,
      "size": 1,
      "price": "2750000000000000000000",
      "assetIds": [
        "55464657044963196816950587289035428064568320970692304673817341489687446964232",
        "55464657044963196816950587289035428064568320970692304673817341489687446964226",
        "55464657044963196816950587289035428064568320970692304673817341489687446964225",
        "55464657044963196816950587289035428064568320970692304673817341489687446964224"
      ]
    },
    {
      "x": 60,
      "y": 263,
      "size": 1,
      "price": "2750000000000000000000",
      "assetIds": [
        "55464657044963196816950587289035428064568320970692304673817341489687446964228",
        "55464657044963196816950587289035428064568320970692304673817341489687446964226",
        "55464657044963196816950587289035428064568320970692304673817341489687446964225",
        "55464657044963196816950587289035428064568320970692304673817341489687446964224"
      ]
    },
    {
      "x": 60,
      "y": 264,
      "size": 1,
      "price": "2750000000000000000000",
      "assetIds": [
        "55464657044963196816950587289035428064568320970692304673817341489687446964231",
        "55464657044963196816950587289035428064568320970692304673817341489687446964226",
        "55464657044963196816950587289035428064568320970692304673817341489687446964225",
        "55464657044963196816950587289035428064568320970692304673817341489687446964224"
      ]
    },
    {
      "x": 60,
      "y": 265,
      "size": 1,
      "price": "2750000000000000000000",
      "assetIds": [
        "55464657044963196816950587289035428064568320970692304673817341489687446964231",
        "55464657044963196816950587289035428064568320970692304673817341489687446964226",
        "55464657044963196816950587289035428064568320970692304673817341489687446964225",
        "55464657044963196816950587289035428064568320970692304673817341489687446964224"
      ]
    },
    {
      "x": 62,
      "y": 265,
      "size": 1,
      "price": "2750000000000000000000",
      "assetIds": [
        "55464657044963196816950587289035428064568320970692304673817341489687446964232",
        "55464657044963196816950587289035428064568320970692304673817341489687446964226",
        "55464657044963196816950587289035428064568320970692304673817341489687446964225",
        "55464657044963196816950587289035428064568320970692304673817341489687446964224"
      ]
    },
    {
      "x": 62,
      "y": 264,
      "size": 1,
      "price": "2750000000000000000000",
      "assetIds": [
        "55464657044963196816950587289035428064568320970692304673817341489687446964229",
        "55464657044963196816950587289035428064568320970692304673817341489687446964226",
        "55464657044963196816950587289035428064568320970692304673817341489687446964225",
        "55464657044963196816950587289035428064568320970692304673817341489687446964224"
      ]
    },
    {
      "x": 61,
      "y": 264,
      "size": 1,
      "price": "2750000000000000000000",
      "assetIds": [
        "55464657044963196816950587289035428064568320970692304673817341489687446964232",
        "55464657044963196816950587289035428064568320970692304673817341489687446964226",
        "55464657044963196816950587289035428064568320970692304673817341489687446964225",
        "55464657044963196816950587289035428064568320970692304673817341489687446964224"
      ]
    },
    {
      "x": 61,
      "y": 263,
      "size": 1,
      "price": "2750000000000000000000",
      "assetIds": [
        "55464657044963196816950587289035428064568320970692304673817341489687446964231",
        "55464657044963196816950587289035428064568320970692304673817341489687446964226",
        "55464657044963196816950587289035428064568320970692304673817341489687446964225",
        "55464657044963196816950587289035428064568320970692304673817341489687446964224"
      ]
    },
    {
      "x": 60,
      "y": 262,
      "size": 1,
      "price": "2750000000000000000000",
      "assetIds": [
        "55464657044963196816950587289035428064568320970692304673817341489687446964228",
        "55464657044963196816950587289035428064568320970692304673817341489687446964226",
        "55464657044963196816950587289035428064568320970692304673817341489687446964225",
        "55464657044963196816950587289035428064568320970692304673817341489687446964224"
      ]
    },
    {
      "x": 59,
      "y": 262,
      "size": 1,
      "price": "2750000000000000000000",
      "assetIds": [
        "55464657044963196816950587289035428064568320970692304673817341489687446964232",
        "55464657044963196816950587289035428064568320970692304673817341489687446964226",
        "55464657044963196816950587289035428064568320970692304673817341489687446964225",
        "55464657044963196816950587289035428064568320970692304673817341489687446964224"
      ]
    },
    {
      "x": 59,
      "y": 261,
      "size": 1,
      "price": "2750000000000000000000",
      "assetIds": [
        "55464657044963196816950587289035428064568320970692304673817341489687446964229",
        "55464657044963196816950587289035428064568320970692304673817341489687446964226",
        "55464657044963196816950587289035428064568320970692304673817341489687446964225",
        "55464657044963196816950587289035428064568320970692304673817341489687446964224"
      ]
    },
    {
      "x": 58,
      "y": 260,
      "size": 1,
      "price": "2750000000000000000000",
      "assetIds": [
        "55464657044963196816950587289035428064568320970692304673817341489687446964230",
        "55464657044963196816950587289035428064568320970692304673817341489687446964226",
        "55464657044963196816950587289035428064568320970692304673817341489687446964225",
        "55464657044963196816950587289035428064568320970692304673817341489687446964224"
      ]
    },
    {
      "x": 58,
      "y": 261,
      "size": 1,
      "price": "2750000000000000000000",
      "assetIds": [
        "55464657044963196816950587289035428064568320970692304673817341489687446964229",
        "55464657044963196816950587289035428064568320970692304673817341489687446964226",
        "55464657044963196816950587289035428064568320970692304673817341489687446964225",
        "55464657044963196816950587289035428064568320970692304673817341489687446964224"
      ]
    },
    {
      "x": 57,
      "y": 261,
      "size": 1,
      "price": "2750000000000000000000",
      "assetIds": [
        "55464657044963196816950587289035428064568320970692304673817341489687446964230",
        "55464657044963196816950587289035428064568320970692304673817341489687446964226",
        "55464657044963196816950587289035428064568320970692304673817341489687446964225",
        "55464657044963196816950587289035428064568320970692304673817341489687446964224"
      ]
    },
    {
      "x": 57,
      "y": 260,
      "size": 1,
      "price": "2750000000000000000000",
      "assetIds": [
        "55464657044963196816950587289035428064568320970692304673817341489687446964231",
        "55464657044963196816950587289035428064568320970692304673817341489687446964226",
        "55464657044963196816950587289035428064568320970692304673817341489687446964225",
        "55464657044963196816950587289035428064568320970692304673817341489687446964224"
      ]
    },
    {
      "x": 56,
      "y": 260,
      "size": 1,
      "price": "2750000000000000000000",
      "assetIds": [
        "55464657044963196816950587289035428064568320970692304673817341489687446964227",
        "55464657044963196816950587289035428064568320970692304673817341489687446964226",
        "55464657044963196816950587289035428064568320970692304673817341489687446964225",
        "55464657044963196816950587289035428064568320970692304673817341489687446964224"
      ]
    },
    {
      "x": 56,
      "y": 261,
      "size": 1,
      "price": "2750000000000000000000",
      "assetIds": [
        "55464657044963196816950587289035428064568320970692304673817341489687446964227",
        "55464657044963196816950587289035428064568320970692304673817341489687446964226",
        "55464657044963196816950587289035428064568320970692304673817341489687446964225",
        "55464657044963196816950587289035428064568320970692304673817341489687446964224"
      ]
    },
    {
      "x": 56,
      "y": 262,
      "size": 1,
      "price": "2750000000000000000000",
      "assetIds": [
        "55464657044963196816950587289035428064568320970692304673817341489687446964227",
        "55464657044963196816950587289035428064568320970692304673817341489687446964226",
        "55464657044963196816950587289035428064568320970692304673817341489687446964225",
        "55464657044963196816950587289035428064568320970692304673817341489687446964224"
      ]
    },
    {
      "x": 57,
      "y": 262,
      "size": 1,
      "price": "2750000000000000000000",
      "assetIds": [
        "55464657044963196816950587289035428064568320970692304673817341489687446964230",
        "55464657044963196816950587289035428064568320970692304673817341489687446964226",
        "55464657044963196816950587289035428064568320970692304673817341489687446964225",
        "55464657044963196816950587289035428064568320970692304673817341489687446964224"
      ]
    },
    {
      "x": 55,
      "y": 262,
      "size": 1,
      "price": "2750000000000000000000",
      "assetIds": [
        "55464657044963196816950587289035428064568320970692304673817341489687446964232",
        "55464657044963196816950587289035428064568320970692304673817341489687446964226",
        "55464657044963196816950587289035428064568320970692304673817341489687446964225",
        "55464657044963196816950587289035428064568320970692304673817341489687446964224"
      ]
    },
    {
      "x": 54,
      "y": 262,
      "size": 1,
      "price": "2750000000000000000000",
      "assetIds": [
        "55464657044963196816950587289035428064568320970692304673817341489687446964231",
        "55464657044963196816950587289035428064568320970692304673817341489687446964226",
        "55464657044963196816950587289035428064568320970692304673817341489687446964225",
        "55464657044963196816950587289035428064568320970692304673817341489687446964224"
      ]
    },
    {
      "x": 53,
      "y": 262,
      "size": 1,
      "price": "2750000000000000000000",
      "assetIds": [
        "55464657044963196816950587289035428064568320970692304673817341489687446964232",
        "55464657044963196816950587289035428064568320970692304673817341489687446964226",
        "55464657044963196816950587289035428064568320970692304673817341489687446964225",
        "55464657044963196816950587289035428064568320970692304673817341489687446964224"
      ]
    },
    {
      "x": 52,
      "y": 262,
      "size": 1,
      "price": "2750000000000000000000",
      "assetIds": [
        "55464657044963196816950587289035428064568320970692304673817341489687446964230",
        "55464657044963196816950587289035428064568320970692304673817341489687446964226",
        "55464657044963196816950587289035428064568320970692304673817341489687446964225",
        "55464657044963196816950587289035428064568320970692304673817341489687446964224"
      ]
    },
    {
      "x": 44,
      "y": 271,
      "size": 1,
      "price": "1182000000000000000000",
      "reserved": "0x7a9fe22691c811ea339d9b73150e6911a5343dca",
      "assetIds": []
    },
    {
      "x": 42,
      "y": 268,
      "size": 1,
      "price": "1182000000000000000000",
      "reserved": "0x7a9fe22691c811ea339d9b73150e6911a5343dca",
      "assetIds": []
    },
    {
      "x": 45,
      "y": 267,
      "size": 1,
      "price": "1182000000000000000000",
      "reserved": "0x7a9fe22691c811ea339d9b73150e6911a5343dca",
      "assetIds": []
    },
    {
      "x": 45,
      "y": 263,
      "size": 1,
      "price": "1182000000000000000000",
      "reserved": "0x7a9fe22691c811ea339d9b73150e6911a5343dca",
      "assetIds": []
    },
    {
      "x": 49,
      "y": 262,
      "size": 1,
      "price": "1182000000000000000000",
      "reserved": "0x7a9fe22691c811ea339d9b73150e6911a5343dca",
      "assetIds": []
    },
    {
      "x": 46,
      "y": 260,
      "size": 1,
      "price": "1182000000000000000000",
      "reserved": "0x7a9fe22691c811ea339d9b73150e6911a5343dca",
      "assetIds": []
    },
    {
      "x": 48,
      "y": 258,
      "size": 1,
      "price": "1182000000000000000000",
      "reserved": "0x7a9fe22691c811ea339d9b73150e6911a5343dca",
      "assetIds": []
    },
    {
      "x": 43,
      "y": 257,
      "size": 1,
      "price": "1182000000000000000000",
      "reserved": "0x7a9fe22691c811ea339d9b73150e6911a5343dca",
      "assetIds": []
    },
    {
      "x": 44,
      "y": 255,
      "size": 1,
      "price": "1182000000000000000000",
      "reserved": "0x7a9fe22691c811ea339d9b73150e6911a5343dca",
      "assetIds": []
    },
    {
      "x": 42,
      "y": 261,
      "size": 1,
      "price": "1182000000000000000000",
      "reserved": "0x7a9fe22691c811ea339d9b73150e6911a5343dca",
      "assetIds": []
    },
    {
      "x": 37,
      "y": 261,
      "size": 1,
      "price": "1182000000000000000000",
      "reserved": "0x7a9fe22691c811ea339d9b73150e6911a5343dca",
      "assetIds": []
    },
    {
      "x": 38,
      "y": 263,
      "size": 1,
      "price": "1182000000000000000000",
      "reserved": "0x7a9fe22691c811ea339d9b73150e6911a5343dca",
      "assetIds": []
    },
    {
      "x": 38,
      "y": 259,
      "size": 1,
      "price": "1182000000000000000000",
      "reserved": "0x7a9fe22691c811ea339d9b73150e6911a5343dca",
      "assetIds": []
    },
    {
      "x": 44,
      "y": 257,
      "size": 1,
      "price": "1182000000000000000000",
      "assetIds": []
    },
    {
      "x": 44,
      "y": 256,
      "size": 1,
      "price": "1182000000000000000000",
      "assetIds": []
    },
    {
      "x": 43,
      "y": 256,
      "size": 1,
      "price": "1182000000000000000000",
      "assetIds": []
    },
    {
      "x": 42,
      "y": 256,
      "size": 1,
      "price": "1182000000000000000000",
      "assetIds": []
    },
    {
      "x": 42,
      "y": 257,
      "size": 1,
      "price": "1182000000000000000000",
      "assetIds": []
    },
    {
      "x": 42,
      "y": 255,
      "size": 1,
      "price": "1182000000000000000000",
      "assetIds": []
    },
    {
      "x": 43,
      "y": 255,
      "size": 1,
      "price": "1182000000000000000000",
      "assetIds": []
    },
    {
      "x": 38,
      "y": 258,
      "size": 1,
      "price": "1182000000000000000000",
      "assetIds": []
    },
    {
      "x": 37,
      "y": 258,
      "size": 1,
      "price": "1182000000000000000000",
      "assetIds": []
    },
    {
      "x": 36,
      "y": 258,
      "size": 1,
      "price": "1182000000000000000000",
      "assetIds": []
    },
    {
      "x": 36,
      "y": 259,
      "size": 1,
      "price": "1182000000000000000000",
      "assetIds": []
    },
    {
      "x": 37,
      "y": 259,
      "size": 1,
      "price": "1182000000000000000000",
      "assetIds": []
    },
    {
      "x": 36,
      "y": 260,
      "size": 1,
      "price": "1182000000000000000000",
      "assetIds": []
    },
    {
      "x": 37,
      "y": 260,
      "size": 1,
      "price": "1182000000000000000000",
      "assetIds": []
    },
    {
      "x": 38,
      "y": 260,
      "size": 1,
      "price": "1182000000000000000000",
      "assetIds": []
    },
    {
      "x": 38,
      "y": 261,
      "size": 1,
      "price": "1182000000000000000000",
      "assetIds": []
    },
    {
      "x": 38,
      "y": 262,
      "size": 1,
      "price": "1182000000000000000000",
      "assetIds": []
    },
    {
      "x": 37,
      "y": 262,
      "size": 1,
      "price": "1182000000000000000000",
      "assetIds": []
    },
    {
      "x": 36,
      "y": 262,
      "size": 1,
      "price": "1182000000000000000000",
      "assetIds": []
    },
    {
      "x": 36,
      "y": 261,
      "size": 1,
      "price": "1182000000000000000000",
      "assetIds": []
    },
    {
      "x": 36,
      "y": 263,
      "size": 1,
      "price": "1182000000000000000000",
      "assetIds": []
    },
    {
      "x": 37,
      "y": 263,
      "size": 1,
      "price": "1182000000000000000000",
      "assetIds": []
    },
    {
      "x": 42,
      "y": 272,
      "size": 1,
      "price": "2750000000000000000000",
      "assetIds": [
        "55464657044963196816950587289035428064568320970692304673817341489687446964227",
        "55464657044963196816950587289035428064568320970692304673817341489687446964226",
        "55464657044963196816950587289035428064568320970692304673817341489687446964225",
        "55464657044963196816950587289035428064568320970692304673817341489687446964224"
      ]
    },
    {
      "x": 43,
      "y": 272,
      "size": 1,
      "price": "2750000000000000000000",
      "assetIds": [
        "55464657044963196816950587289035428064568320970692304673817341489687446964232",
        "55464657044963196816950587289035428064568320970692304673817341489687446964226",
        "55464657044963196816950587289035428064568320970692304673817341489687446964225",
        "55464657044963196816950587289035428064568320970692304673817341489687446964224"
      ]
    },
    {
      "x": 44,
      "y": 272,
      "size": 1,
      "price": "2750000000000000000000",
      "assetIds": [
        "55464657044963196816950587289035428064568320970692304673817341489687446964232",
        "55464657044963196816950587289035428064568320970692304673817341489687446964226",
        "55464657044963196816950587289035428064568320970692304673817341489687446964225",
        "55464657044963196816950587289035428064568320970692304673817341489687446964224"
      ]
    },
    {
      "x": 45,
      "y": 272,
      "size": 1,
      "price": "2750000000000000000000",
      "assetIds": [
        "55464657044963196816950587289035428064568320970692304673817341489687446964227",
        "55464657044963196816950587289035428064568320970692304673817341489687446964226",
        "55464657044963196816950587289035428064568320970692304673817341489687446964225",
        "55464657044963196816950587289035428064568320970692304673817341489687446964224"
      ]
    },
    {
      "x": 46,
      "y": 272,
      "size": 1,
      "price": "2750000000000000000000",
      "assetIds": [
        "55464657044963196816950587289035428064568320970692304673817341489687446964227",
        "55464657044963196816950587289035428064568320970692304673817341489687446964226",
        "55464657044963196816950587289035428064568320970692304673817341489687446964225",
        "55464657044963196816950587289035428064568320970692304673817341489687446964224"
      ]
    },
    {
      "x": 47,
      "y": 272,
      "size": 1,
      "price": "2750000000000000000000",
      "assetIds": [
        "55464657044963196816950587289035428064568320970692304673817341489687446964227",
        "55464657044963196816950587289035428064568320970692304673817341489687446964226",
        "55464657044963196816950587289035428064568320970692304673817341489687446964225",
        "55464657044963196816950587289035428064568320970692304673817341489687446964224"
      ]
    },
    {
      "x": 47,
      "y": 271,
      "size": 1,
      "price": "2750000000000000000000",
      "assetIds": [
        "55464657044963196816950587289035428064568320970692304673817341489687446964227",
        "55464657044963196816950587289035428064568320970692304673817341489687446964226",
        "55464657044963196816950587289035428064568320970692304673817341489687446964225",
        "55464657044963196816950587289035428064568320970692304673817341489687446964224"
      ]
    },
    {
      "x": 47,
      "y": 270,
      "size": 1,
      "price": "2750000000000000000000",
      "assetIds": [
        "55464657044963196816950587289035428064568320970692304673817341489687446964229",
        "55464657044963196816950587289035428064568320970692304673817341489687446964226",
        "55464657044963196816950587289035428064568320970692304673817341489687446964225",
        "55464657044963196816950587289035428064568320970692304673817341489687446964224"
      ]
    },
    {
      "x": 47,
      "y": 269,
      "size": 1,
      "price": "2750000000000000000000",
      "assetIds": [
        "55464657044963196816950587289035428064568320970692304673817341489687446964232",
        "55464657044963196816950587289035428064568320970692304673817341489687446964226",
        "55464657044963196816950587289035428064568320970692304673817341489687446964225",
        "55464657044963196816950587289035428064568320970692304673817341489687446964224"
      ]
    },
    {
      "x": 46,
      "y": 270,
      "size": 1,
      "price": "2750000000000000000000",
      "assetIds": [
        "55464657044963196816950587289035428064568320970692304673817341489687446964230",
        "55464657044963196816950587289035428064568320970692304673817341489687446964226",
        "55464657044963196816950587289035428064568320970692304673817341489687446964225",
        "55464657044963196816950587289035428064568320970692304673817341489687446964224"
      ]
    },
    {
      "x": 45,
      "y": 270,
      "size": 1,
      "price": "2750000000000000000000",
      "assetIds": [
        "55464657044963196816950587289035428064568320970692304673817341489687446964228",
        "55464657044963196816950587289035428064568320970692304673817341489687446964226",
        "55464657044963196816950587289035428064568320970692304673817341489687446964225",
        "55464657044963196816950587289035428064568320970692304673817341489687446964224"
      ]
    },
    {
      "x": 46,
      "y": 271,
      "size": 1,
      "price": "2750000000000000000000",
      "assetIds": [
        "55464657044963196816950587289035428064568320970692304673817341489687446964227",
        "55464657044963196816950587289035428064568320970692304673817341489687446964226",
        "55464657044963196816950587289035428064568320970692304673817341489687446964225",
        "55464657044963196816950587289035428064568320970692304673817341489687446964224"
      ]
    },
    {
      "x": 45,
      "y": 271,
      "size": 1,
      "price": "2750000000000000000000",
      "assetIds": [
        "55464657044963196816950587289035428064568320970692304673817341489687446964228",
        "55464657044963196816950587289035428064568320970692304673817341489687446964226",
        "55464657044963196816950587289035428064568320970692304673817341489687446964225",
        "55464657044963196816950587289035428064568320970692304673817341489687446964224"
      ]
    },
    {
      "x": 44,
      "y": 270,
      "size": 1,
      "price": "2750000000000000000000",
      "assetIds": [
        "55464657044963196816950587289035428064568320970692304673817341489687446964232",
        "55464657044963196816950587289035428064568320970692304673817341489687446964226",
        "55464657044963196816950587289035428064568320970692304673817341489687446964225",
        "55464657044963196816950587289035428064568320970692304673817341489687446964224"
      ]
    },
    {
      "x": 43,
      "y": 271,
      "size": 1,
      "price": "2750000000000000000000",
      "assetIds": [
        "55464657044963196816950587289035428064568320970692304673817341489687446964228",
        "55464657044963196816950587289035428064568320970692304673817341489687446964226",
        "55464657044963196816950587289035428064568320970692304673817341489687446964225",
        "55464657044963196816950587289035428064568320970692304673817341489687446964224"
      ]
    },
    {
      "x": 43,
      "y": 270,
      "size": 1,
      "price": "2750000000000000000000",
      "assetIds": [
        "55464657044963196816950587289035428064568320970692304673817341489687446964232",
        "55464657044963196816950587289035428064568320970692304673817341489687446964226",
        "55464657044963196816950587289035428064568320970692304673817341489687446964225",
        "55464657044963196816950587289035428064568320970692304673817341489687446964224"
      ]
    },
    {
      "x": 42,
      "y": 270,
      "size": 1,
      "price": "2750000000000000000000",
      "assetIds": [
        "55464657044963196816950587289035428064568320970692304673817341489687446964232",
        "55464657044963196816950587289035428064568320970692304673817341489687446964226",
        "55464657044963196816950587289035428064568320970692304673817341489687446964225",
        "55464657044963196816950587289035428064568320970692304673817341489687446964224"
      ]
    },
    {
      "x": 44,
      "y": 269,
      "size": 1,
      "price": "2750000000000000000000",
      "assetIds": [
        "55464657044963196816950587289035428064568320970692304673817341489687446964230",
        "55464657044963196816950587289035428064568320970692304673817341489687446964226",
        "55464657044963196816950587289035428064568320970692304673817341489687446964225",
        "55464657044963196816950587289035428064568320970692304673817341489687446964224"
      ]
    },
    {
      "x": 43,
      "y": 269,
      "size": 1,
      "price": "2750000000000000000000",
      "assetIds": [
        "55464657044963196816950587289035428064568320970692304673817341489687446964229",
        "55464657044963196816950587289035428064568320970692304673817341489687446964226",
        "55464657044963196816950587289035428064568320970692304673817341489687446964225",
        "55464657044963196816950587289035428064568320970692304673817341489687446964224"
      ]
    },
    {
      "x": 43,
      "y": 268,
      "size": 1,
      "price": "2750000000000000000000",
      "assetIds": [
        "55464657044963196816950587289035428064568320970692304673817341489687446964227",
        "55464657044963196816950587289035428064568320970692304673817341489687446964226",
        "55464657044963196816950587289035428064568320970692304673817341489687446964225",
        "55464657044963196816950587289035428064568320970692304673817341489687446964224"
      ]
    },
    {
      "x": 44,
      "y": 268,
      "size": 1,
      "price": "2750000000000000000000",
      "assetIds": [
        "55464657044963196816950587289035428064568320970692304673817341489687446964230",
        "55464657044963196816950587289035428064568320970692304673817341489687446964226",
        "55464657044963196816950587289035428064568320970692304673817341489687446964225",
        "55464657044963196816950587289035428064568320970692304673817341489687446964224"
      ]
    },
    {
      "x": 44,
      "y": 267,
      "size": 1,
      "price": "2750000000000000000000",
      "assetIds": [
        "55464657044963196816950587289035428064568320970692304673817341489687446964228",
        "55464657044963196816950587289035428064568320970692304673817341489687446964226",
        "55464657044963196816950587289035428064568320970692304673817341489687446964225",
        "55464657044963196816950587289035428064568320970692304673817341489687446964224"
      ]
    },
    {
      "x": 43,
      "y": 267,
      "size": 1,
      "price": "2750000000000000000000",
      "assetIds": [
        "55464657044963196816950587289035428064568320970692304673817341489687446964227",
        "55464657044963196816950587289035428064568320970692304673817341489687446964226",
        "55464657044963196816950587289035428064568320970692304673817341489687446964225",
        "55464657044963196816950587289035428064568320970692304673817341489687446964224"
      ]
    },
    {
      "x": 45,
      "y": 268,
      "size": 1,
      "price": "2750000000000000000000",
      "assetIds": [
        "55464657044963196816950587289035428064568320970692304673817341489687446964230",
        "55464657044963196816950587289035428064568320970692304673817341489687446964226",
        "55464657044963196816950587289035428064568320970692304673817341489687446964225",
        "55464657044963196816950587289035428064568320970692304673817341489687446964224"
      ]
    },
    {
      "x": 45,
      "y": 269,
      "size": 1,
      "price": "2750000000000000000000",
      "assetIds": [
        "55464657044963196816950587289035428064568320970692304673817341489687446964227",
        "55464657044963196816950587289035428064568320970692304673817341489687446964226",
        "55464657044963196816950587289035428064568320970692304673817341489687446964225",
        "55464657044963196816950587289035428064568320970692304673817341489687446964224"
      ]
    },
    {
      "x": 46,
      "y": 268,
      "size": 1,
      "price": "2750000000000000000000",
      "assetIds": [
        "55464657044963196816950587289035428064568320970692304673817341489687446964230",
        "55464657044963196816950587289035428064568320970692304673817341489687446964226",
        "55464657044963196816950587289035428064568320970692304673817341489687446964225",
        "55464657044963196816950587289035428064568320970692304673817341489687446964224"
      ]
    },
    {
      "x": 46,
      "y": 269,
      "size": 1,
      "price": "2750000000000000000000",
      "assetIds": [
        "55464657044963196816950587289035428064568320970692304673817341489687446964230",
        "55464657044963196816950587289035428064568320970692304673817341489687446964226",
        "55464657044963196816950587289035428064568320970692304673817341489687446964225",
        "55464657044963196816950587289035428064568320970692304673817341489687446964224"
      ]
    },
    {
      "x": 47,
      "y": 268,
      "size": 1,
      "price": "2750000000000000000000",
      "assetIds": [
        "55464657044963196816950587289035428064568320970692304673817341489687446964232",
        "55464657044963196816950587289035428064568320970692304673817341489687446964226",
        "55464657044963196816950587289035428064568320970692304673817341489687446964225",
        "55464657044963196816950587289035428064568320970692304673817341489687446964224"
      ]
    },
    {
      "x": 47,
      "y": 267,
      "size": 1,
      "price": "2750000000000000000000",
      "assetIds": [
        "55464657044963196816950587289035428064568320970692304673817341489687446964231",
        "55464657044963196816950587289035428064568320970692304673817341489687446964226",
        "55464657044963196816950587289035428064568320970692304673817341489687446964225",
        "55464657044963196816950587289035428064568320970692304673817341489687446964224"
      ]
    },
    {
      "x": 47,
      "y": 266,
      "size": 1,
      "price": "2750000000000000000000",
      "assetIds": [
        "55464657044963196816950587289035428064568320970692304673817341489687446964230",
        "55464657044963196816950587289035428064568320970692304673817341489687446964226",
        "55464657044963196816950587289035428064568320970692304673817341489687446964225",
        "55464657044963196816950587289035428064568320970692304673817341489687446964224"
      ]
    },
    {
      "x": 46,
      "y": 267,
      "size": 1,
      "price": "2750000000000000000000",
      "assetIds": [
        "55464657044963196816950587289035428064568320970692304673817341489687446964231",
        "55464657044963196816950587289035428064568320970692304673817341489687446964226",
        "55464657044963196816950587289035428064568320970692304673817341489687446964225",
        "55464657044963196816950587289035428064568320970692304673817341489687446964224"
      ]
    },
    {
      "x": 46,
      "y": 266,
      "size": 1,
      "price": "2750000000000000000000",
      "assetIds": [
        "55464657044963196816950587289035428064568320970692304673817341489687446964228",
        "55464657044963196816950587289035428064568320970692304673817341489687446964226",
        "55464657044963196816950587289035428064568320970692304673817341489687446964225",
        "55464657044963196816950587289035428064568320970692304673817341489687446964224"
      ]
    },
    {
      "x": 46,
      "y": 265,
      "size": 1,
      "price": "2750000000000000000000",
      "assetIds": [
        "55464657044963196816950587289035428064568320970692304673817341489687446964228",
        "55464657044963196816950587289035428064568320970692304673817341489687446964226",
        "55464657044963196816950587289035428064568320970692304673817341489687446964225",
        "55464657044963196816950587289035428064568320970692304673817341489687446964224"
      ]
    },
    {
      "x": 45,
      "y": 266,
      "size": 1,
      "price": "2750000000000000000000",
      "assetIds": [
        "55464657044963196816950587289035428064568320970692304673817341489687446964229",
        "55464657044963196816950587289035428064568320970692304673817341489687446964226",
        "55464657044963196816950587289035428064568320970692304673817341489687446964225",
        "55464657044963196816950587289035428064568320970692304673817341489687446964224"
      ]
    },
    {
      "x": 45,
      "y": 265,
      "size": 1,
      "price": "2750000000000000000000",
      "assetIds": [
        "55464657044963196816950587289035428064568320970692304673817341489687446964227",
        "55464657044963196816950587289035428064568320970692304673817341489687446964226",
        "55464657044963196816950587289035428064568320970692304673817341489687446964225",
        "55464657044963196816950587289035428064568320970692304673817341489687446964224"
      ]
    },
    {
      "x": 45,
      "y": 264,
      "size": 1,
      "price": "2750000000000000000000",
      "assetIds": [
        "55464657044963196816950587289035428064568320970692304673817341489687446964229",
        "55464657044963196816950587289035428064568320970692304673817341489687446964226",
        "55464657044963196816950587289035428064568320970692304673817341489687446964225",
        "55464657044963196816950587289035428064568320970692304673817341489687446964224"
      ]
    },
    {
      "x": 44,
      "y": 263,
      "size": 1,
      "price": "2750000000000000000000",
      "assetIds": [
        "55464657044963196816950587289035428064568320970692304673817341489687446964228",
        "55464657044963196816950587289035428064568320970692304673817341489687446964226",
        "55464657044963196816950587289035428064568320970692304673817341489687446964225",
        "55464657044963196816950587289035428064568320970692304673817341489687446964224"
      ]
    },
    {
      "x": 43,
      "y": 263,
      "size": 1,
      "price": "2750000000000000000000",
      "assetIds": [
        "55464657044963196816950587289035428064568320970692304673817341489687446964231",
        "55464657044963196816950587289035428064568320970692304673817341489687446964226",
        "55464657044963196816950587289035428064568320970692304673817341489687446964225",
        "55464657044963196816950587289035428064568320970692304673817341489687446964224"
      ]
    },
    {
      "x": 44,
      "y": 262,
      "size": 1,
      "price": "2750000000000000000000",
      "assetIds": [
        "55464657044963196816950587289035428064568320970692304673817341489687446964229",
        "55464657044963196816950587289035428064568320970692304673817341489687446964226",
        "55464657044963196816950587289035428064568320970692304673817341489687446964225",
        "55464657044963196816950587289035428064568320970692304673817341489687446964224"
      ]
    },
    {
      "x": 44,
      "y": 261,
      "size": 1,
      "price": "2750000000000000000000",
      "assetIds": [
        "55464657044963196816950587289035428064568320970692304673817341489687446964232",
        "55464657044963196816950587289035428064568320970692304673817341489687446964226",
        "55464657044963196816950587289035428064568320970692304673817341489687446964225",
        "55464657044963196816950587289035428064568320970692304673817341489687446964224"
      ]
    },
    {
      "x": 45,
      "y": 261,
      "size": 1,
      "price": "2750000000000000000000",
      "assetIds": [
        "55464657044963196816950587289035428064568320970692304673817341489687446964232",
        "55464657044963196816950587289035428064568320970692304673817341489687446964226",
        "55464657044963196816950587289035428064568320970692304673817341489687446964225",
        "55464657044963196816950587289035428064568320970692304673817341489687446964224"
      ]
    },
    {
      "x": 46,
      "y": 261,
      "size": 1,
      "price": "2750000000000000000000",
      "assetIds": [
        "55464657044963196816950587289035428064568320970692304673817341489687446964231",
        "55464657044963196816950587289035428064568320970692304673817341489687446964226",
        "55464657044963196816950587289035428064568320970692304673817341489687446964225",
        "55464657044963196816950587289035428064568320970692304673817341489687446964224"
      ]
    },
    {
      "x": 47,
      "y": 261,
      "size": 1,
      "price": "2750000000000000000000",
      "assetIds": [
        "55464657044963196816950587289035428064568320970692304673817341489687446964227",
        "55464657044963196816950587289035428064568320970692304673817341489687446964226",
        "55464657044963196816950587289035428064568320970692304673817341489687446964225",
        "55464657044963196816950587289035428064568320970692304673817341489687446964224"
      ]
    },
    {
      "x": 47,
      "y": 262,
      "size": 1,
      "price": "2750000000000000000000",
      "assetIds": [
        "55464657044963196816950587289035428064568320970692304673817341489687446964231",
        "55464657044963196816950587289035428064568320970692304673817341489687446964226",
        "55464657044963196816950587289035428064568320970692304673817341489687446964225",
        "55464657044963196816950587289035428064568320970692304673817341489687446964224"
      ]
    },
    {
      "x": 47,
      "y": 263,
      "size": 1,
      "price": "2750000000000000000000",
      "assetIds": [
        "55464657044963196816950587289035428064568320970692304673817341489687446964231",
        "55464657044963196816950587289035428064568320970692304673817341489687446964226",
        "55464657044963196816950587289035428064568320970692304673817341489687446964225",
        "55464657044963196816950587289035428064568320970692304673817341489687446964224"
      ]
    },
    {
      "x": 46,
      "y": 263,
      "size": 1,
      "price": "2750000000000000000000",
      "assetIds": [
        "55464657044963196816950587289035428064568320970692304673817341489687446964229",
        "55464657044963196816950587289035428064568320970692304673817341489687446964226",
        "55464657044963196816950587289035428064568320970692304673817341489687446964225",
        "55464657044963196816950587289035428064568320970692304673817341489687446964224"
      ]
    },
    {
      "x": 46,
      "y": 262,
      "size": 1,
      "price": "2750000000000000000000",
      "assetIds": [
        "55464657044963196816950587289035428064568320970692304673817341489687446964231",
        "55464657044963196816950587289035428064568320970692304673817341489687446964226",
        "55464657044963196816950587289035428064568320970692304673817341489687446964225",
        "55464657044963196816950587289035428064568320970692304673817341489687446964224"
      ]
    },
    {
      "x": 45,
      "y": 262,
      "size": 1,
      "price": "2750000000000000000000",
      "assetIds": [
        "55464657044963196816950587289035428064568320970692304673817341489687446964227",
        "55464657044963196816950587289035428064568320970692304673817341489687446964226",
        "55464657044963196816950587289035428064568320970692304673817341489687446964225",
        "55464657044963196816950587289035428064568320970692304673817341489687446964224"
      ]
    },
    {
      "x": 46,
      "y": 264,
      "size": 1,
      "price": "2750000000000000000000",
      "assetIds": [
        "55464657044963196816950587289035428064568320970692304673817341489687446964229",
        "55464657044963196816950587289035428064568320970692304673817341489687446964226",
        "55464657044963196816950587289035428064568320970692304673817341489687446964225",
        "55464657044963196816950587289035428064568320970692304673817341489687446964224"
      ]
    },
    {
      "x": 47,
      "y": 264,
      "size": 1,
      "price": "2750000000000000000000",
      "assetIds": [
        "55464657044963196816950587289035428064568320970692304673817341489687446964229",
        "55464657044963196816950587289035428064568320970692304673817341489687446964226",
        "55464657044963196816950587289035428064568320970692304673817341489687446964225",
        "55464657044963196816950587289035428064568320970692304673817341489687446964224"
      ]
    },
    {
      "x": 47,
      "y": 265,
      "size": 1,
      "price": "2750000000000000000000",
      "assetIds": [
        "55464657044963196816950587289035428064568320970692304673817341489687446964229",
        "55464657044963196816950587289035428064568320970692304673817341489687446964226",
        "55464657044963196816950587289035428064568320970692304673817341489687446964225",
        "55464657044963196816950587289035428064568320970692304673817341489687446964224"
      ]
    },
    {
      "x": 48,
      "y": 262,
      "size": 1,
      "price": "2750000000000000000000",
      "assetIds": [
        "55464657044963196816950587289035428064568320970692304673817341489687446964229",
        "55464657044963196816950587289035428064568320970692304673817341489687446964226",
        "55464657044963196816950587289035428064568320970692304673817341489687446964225",
        "55464657044963196816950587289035428064568320970692304673817341489687446964224"
      ]
    },
    {
      "x": 48,
      "y": 263,
      "size": 1,
      "price": "2750000000000000000000",
      "assetIds": [
        "55464657044963196816950587289035428064568320970692304673817341489687446964231",
        "55464657044963196816950587289035428064568320970692304673817341489687446964226",
        "55464657044963196816950587289035428064568320970692304673817341489687446964225",
        "55464657044963196816950587289035428064568320970692304673817341489687446964224"
      ]
    },
    {
      "x": 49,
      "y": 263,
      "size": 1,
      "price": "2750000000000000000000",
      "assetIds": [
        "55464657044963196816950587289035428064568320970692304673817341489687446964228",
        "55464657044963196816950587289035428064568320970692304673817341489687446964226",
        "55464657044963196816950587289035428064568320970692304673817341489687446964225",
        "55464657044963196816950587289035428064568320970692304673817341489687446964224"
      ]
    },
    {
      "x": 50,
      "y": 263,
      "size": 1,
      "price": "2750000000000000000000",
      "assetIds": [
        "55464657044963196816950587289035428064568320970692304673817341489687446964228",
        "55464657044963196816950587289035428064568320970692304673817341489687446964226",
        "55464657044963196816950587289035428064568320970692304673817341489687446964225",
        "55464657044963196816950587289035428064568320970692304673817341489687446964224"
      ]
    },
    {
      "x": 50,
      "y": 262,
      "size": 1,
      "price": "2750000000000000000000",
      "assetIds": [
        "55464657044963196816950587289035428064568320970692304673817341489687446964232",
        "55464657044963196816950587289035428064568320970692304673817341489687446964226",
        "55464657044963196816950587289035428064568320970692304673817341489687446964225",
        "55464657044963196816950587289035428064568320970692304673817341489687446964224"
      ]
    },
    {
      "x": 50,
      "y": 261,
      "size": 1,
      "price": "2750000000000000000000",
      "assetIds": [
        "55464657044963196816950587289035428064568320970692304673817341489687446964232",
        "55464657044963196816950587289035428064568320970692304673817341489687446964226",
        "55464657044963196816950587289035428064568320970692304673817341489687446964225",
        "55464657044963196816950587289035428064568320970692304673817341489687446964224"
      ]
    },
    {
      "x": 50,
      "y": 260,
      "size": 1,
      "price": "2750000000000000000000",
      "assetIds": [
        "55464657044963196816950587289035428064568320970692304673817341489687446964229",
        "55464657044963196816950587289035428064568320970692304673817341489687446964226",
        "55464657044963196816950587289035428064568320970692304673817341489687446964225",
        "55464657044963196816950587289035428064568320970692304673817341489687446964224"
      ]
    },
    {
      "x": 50,
      "y": 259,
      "size": 1,
      "price": "2750000000000000000000",
      "assetIds": [
        "55464657044963196816950587289035428064568320970692304673817341489687446964232",
        "55464657044963196816950587289035428064568320970692304673817341489687446964226",
        "55464657044963196816950587289035428064568320970692304673817341489687446964225",
        "55464657044963196816950587289035428064568320970692304673817341489687446964224"
      ]
    },
    {
      "x": 50,
      "y": 258,
      "size": 1,
      "price": "2750000000000000000000",
      "assetIds": [
        "55464657044963196816950587289035428064568320970692304673817341489687446964232",
        "55464657044963196816950587289035428064568320970692304673817341489687446964226",
        "55464657044963196816950587289035428064568320970692304673817341489687446964225",
        "55464657044963196816950587289035428064568320970692304673817341489687446964224"
      ]
    },
    {
      "x": 49,
      "y": 259,
      "size": 1,
      "price": "2750000000000000000000",
      "assetIds": [
        "55464657044963196816950587289035428064568320970692304673817341489687446964227",
        "55464657044963196816950587289035428064568320970692304673817341489687446964226",
        "55464657044963196816950587289035428064568320970692304673817341489687446964225",
        "55464657044963196816950587289035428064568320970692304673817341489687446964224"
      ]
    },
    {
      "x": 48,
      "y": 259,
      "size": 1,
      "price": "2750000000000000000000",
      "assetIds": [
        "55464657044963196816950587289035428064568320970692304673817341489687446964230",
        "55464657044963196816950587289035428064568320970692304673817341489687446964226",
        "55464657044963196816950587289035428064568320970692304673817341489687446964225",
        "55464657044963196816950587289035428064568320970692304673817341489687446964224"
      ]
    },
    {
      "x": 47,
      "y": 259,
      "size": 1,
      "price": "2750000000000000000000",
      "assetIds": [
        "55464657044963196816950587289035428064568320970692304673817341489687446964230",
        "55464657044963196816950587289035428064568320970692304673817341489687446964226",
        "55464657044963196816950587289035428064568320970692304673817341489687446964225",
        "55464657044963196816950587289035428064568320970692304673817341489687446964224"
      ]
    },
    {
      "x": 48,
      "y": 260,
      "size": 1,
      "price": "2750000000000000000000",
      "assetIds": [
        "55464657044963196816950587289035428064568320970692304673817341489687446964227",
        "55464657044963196816950587289035428064568320970692304673817341489687446964226",
        "55464657044963196816950587289035428064568320970692304673817341489687446964225",
        "55464657044963196816950587289035428064568320970692304673817341489687446964224"
      ]
    },
    {
      "x": 49,
      "y": 260,
      "size": 1,
      "price": "2750000000000000000000",
      "assetIds": [
        "55464657044963196816950587289035428064568320970692304673817341489687446964228",
        "55464657044963196816950587289035428064568320970692304673817341489687446964226",
        "55464657044963196816950587289035428064568320970692304673817341489687446964225",
        "55464657044963196816950587289035428064568320970692304673817341489687446964224"
      ]
    },
    {
      "x": 49,
      "y": 261,
      "size": 1,
      "price": "2750000000000000000000",
      "assetIds": [
        "55464657044963196816950587289035428064568320970692304673817341489687446964228",
        "55464657044963196816950587289035428064568320970692304673817341489687446964226",
        "55464657044963196816950587289035428064568320970692304673817341489687446964225",
        "55464657044963196816950587289035428064568320970692304673817341489687446964224"
      ]
    },
    {
      "x": 48,
      "y": 261,
      "size": 1,
      "price": "2750000000000000000000",
      "assetIds": [
        "55464657044963196816950587289035428064568320970692304673817341489687446964228",
        "55464657044963196816950587289035428064568320970692304673817341489687446964226",
        "55464657044963196816950587289035428064568320970692304673817341489687446964225",
        "55464657044963196816950587289035428064568320970692304673817341489687446964224"
      ]
    },
    {
      "x": 47,
      "y": 260,
      "size": 1,
      "price": "2750000000000000000000",
      "assetIds": [
        "55464657044963196816950587289035428064568320970692304673817341489687446964229",
        "55464657044963196816950587289035428064568320970692304673817341489687446964226",
        "55464657044963196816950587289035428064568320970692304673817341489687446964225",
        "55464657044963196816950587289035428064568320970692304673817341489687446964224"
      ]
    },
    {
      "x": 45,
      "y": 260,
      "size": 1,
      "price": "2750000000000000000000",
      "assetIds": [
        "55464657044963196816950587289035428064568320970692304673817341489687446964227",
        "55464657044963196816950587289035428064568320970692304673817341489687446964226",
        "55464657044963196816950587289035428064568320970692304673817341489687446964225",
        "55464657044963196816950587289035428064568320970692304673817341489687446964224"
      ]
    },
    {
      "x": 49,
      "y": 258,
      "size": 1,
      "price": "1182000000000000000000",
      "assetIds": []
    },
    {
      "x": 47,
      "y": 258,
      "size": 1,
      "price": "1182000000000000000000",
      "assetIds": []
    },
    {
      "x": 46,
      "y": 258,
      "size": 1,
      "price": "1182000000000000000000",
      "assetIds": []
    },
    {
      "x": 45,
      "y": 258,
      "size": 1,
      "price": "1182000000000000000000",
      "assetIds": []
    },
    {
      "x": 45,
      "y": 259,
      "size": 1,
      "price": "1182000000000000000000",
      "assetIds": []
    },
    {
      "x": 46,
      "y": 259,
      "size": 1,
      "price": "1182000000000000000000",
      "assetIds": []
    },
    {
      "x": 43,
      "y": 261,
      "size": 1,
      "price": "1182000000000000000000",
      "assetIds": []
    },
    {
      "x": 43,
      "y": 262,
      "size": 1,
      "price": "1182000000000000000000",
      "assetIds": []
    },
    {
      "x": 42,
      "y": 262,
      "size": 1,
      "price": "1182000000000000000000",
      "assetIds": []
    },
    {
      "x": 42,
      "y": 263,
      "size": 1,
      "price": "1182000000000000000000",
      "assetIds": []
    },
    {
      "x": 42,
      "y": 267,
      "size": 1,
      "price": "1182000000000000000000",
      "assetIds": []
    },
    {
      "x": 42,
      "y": 269,
      "size": 1,
      "price": "1182000000000000000000",
      "assetIds": []
    },
    {
      "x": 42,
      "y": 271,
      "size": 1,
      "price": "1182000000000000000000",
      "assetIds": []
    },
    {
      "x": 27,
      "y": 245,
      "size": 1,
      "price": "1182000000000000000000",
      "assetIds": []
    },
    {
      "x": 28,
      "y": 245,
      "size": 1,
      "price": "1182000000000000000000",
      "assetIds": []
    },
    {
      "x": 29,
      "y": 245,
      "size": 1,
      "price": "1182000000000000000000",
      "assetIds": []
    },
    {
      "x": 30,
      "y": 245,
      "size": 1,
      "price": "1182000000000000000000",
      "assetIds": []
    },
    {
      "x": 31,
      "y": 245,
      "size": 1,
      "price": "1182000000000000000000",
      "assetIds": []
    },
    {
      "x": 32,
      "y": 245,
      "size": 1,
      "price": "1182000000000000000000",
      "assetIds": []
    },
    {
      "x": 32,
      "y": 244,
      "size": 1,
      "price": "1182000000000000000000",
      "assetIds": []
    },
    {
      "x": 31,
      "y": 244,
      "size": 1,
      "price": "1182000000000000000000",
      "assetIds": []
    },
    {
      "x": 30,
      "y": 244,
      "size": 1,
      "price": "1182000000000000000000",
      "assetIds": []
    },
    {
      "x": 29,
      "y": 244,
      "size": 1,
      "price": "1182000000000000000000",
      "assetIds": []
    },
    {
      "x": 28,
      "y": 244,
      "size": 1,
      "price": "1182000000000000000000",
      "assetIds": []
    },
    {
      "x": 28,
      "y": 243,
      "size": 1,
      "price": "1182000000000000000000",
      "assetIds": []
    },
    {
      "x": 29,
      "y": 243,
      "size": 1,
      "price": "1182000000000000000000",
      "assetIds": []
    },
    {
      "x": 30,
      "y": 243,
      "size": 1,
      "price": "1182000000000000000000",
      "assetIds": []
    },
    {
      "x": 31,
      "y": 243,
      "size": 1,
      "price": "1182000000000000000000",
      "assetIds": []
    },
    {
      "x": 27,
      "y": 243,
      "size": 1,
      "price": "1182000000000000000000",
      "assetIds": []
    },
    {
      "x": 27,
      "y": 242,
      "size": 1,
      "price": "1182000000000000000000",
      "assetIds": []
    },
    {
      "x": 28,
      "y": 242,
      "size": 1,
      "price": "1182000000000000000000",
      "assetIds": []
    },
    {
      "x": 29,
      "y": 242,
      "size": 1,
      "price": "1182000000000000000000",
      "assetIds": []
    },
    {
      "x": 27,
      "y": 241,
      "size": 1,
      "price": "1182000000000000000000",
      "assetIds": []
    },
    {
      "x": 28,
      "y": 241,
      "size": 1,
      "price": "1182000000000000000000",
      "assetIds": []
    },
    {
      "x": 27,
      "y": 240,
      "size": 1,
      "price": "1182000000000000000000",
      "assetIds": []
    },
    {
      "x": 28,
      "y": 240,
      "size": 1,
      "price": "1182000000000000000000",
      "assetIds": []
    },
    {
      "x": 29,
      "y": 240,
      "size": 1,
      "price": "1182000000000000000000",
      "assetIds": []
    },
    {
      "x": 33,
      "y": 242,
      "size": 1,
      "price": "1182000000000000000000",
      "assetIds": []
    },
    {
      "x": 33,
      "y": 241,
      "size": 1,
      "price": "1182000000000000000000",
      "assetIds": []
    },
    {
      "x": 33,
      "y": 240,
      "size": 1,
      "price": "1182000000000000000000",
      "assetIds": []
    },
    {
      "x": 34,
      "y": 240,
      "size": 1,
      "price": "1182000000000000000000",
      "assetIds": []
    },
    {
      "x": 35,
      "y": 240,
      "size": 1,
      "price": "1182000000000000000000",
      "assetIds": []
    },
    {
      "x": 35,
      "y": 241,
      "size": 1,
      "price": "1182000000000000000000",
      "assetIds": []
    },
    {
      "x": 34,
      "y": 241,
      "size": 1,
      "price": "1182000000000000000000",
      "assetIds": []
    },
    {
      "x": 35,
      "y": 242,
      "size": 1,
      "price": "1182000000000000000000",
      "assetIds": []
    },
    {
      "x": 34,
      "y": 242,
      "size": 1,
      "price": "1182000000000000000000",
      "reserved": "0x7a9fe22691c811ea339d9b73150e6911a5343dca",
      "assetIds": []
    },
    {
      "x": 32,
      "y": 243,
      "size": 1,
      "price": "1182000000000000000000",
      "reserved": "0x7a9fe22691c811ea339d9b73150e6911a5343dca",
      "assetIds": []
    },
    {
      "x": 29,
      "y": 241,
      "size": 1,
      "price": "1182000000000000000000",
      "reserved": "0x7a9fe22691c811ea339d9b73150e6911a5343dca",
      "assetIds": []
    },
    {
      "x": 27,
      "y": 244,
      "size": 1,
      "price": "1182000000000000000000",
      "reserved": "0x7a9fe22691c811ea339d9b73150e6911a5343dca",
      "assetIds": []
    },
    {
      "x": 42,
      "y": 252,
      "size": 1,
      "price": "1182000000000000000000",
      "reserved": "0x7a9fe22691c811ea339d9b73150e6911a5343dca",
      "assetIds": []
    },
    {
      "x": 44,
      "y": 254,
      "size": 1,
      "price": "1182000000000000000000",
      "reserved": "0x7a9fe22691c811ea339d9b73150e6911a5343dca",
      "assetIds": []
    },
    {
      "x": 42,
      "y": 254,
      "size": 1,
      "price": "1182000000000000000000",
      "assetIds": []
    },
    {
      "x": 43,
      "y": 254,
      "size": 1,
      "price": "1182000000000000000000",
      "assetIds": []
    },
    {
      "x": 43,
      "y": 253,
      "size": 1,
      "price": "1182000000000000000000",
      "assetIds": []
    },
    {
      "x": 42,
      "y": 253,
      "size": 1,
      "price": "1182000000000000000000",
      "assetIds": []
    },
    {
      "x": 44,
      "y": 253,
      "size": 1,
      "price": "1182000000000000000000",
      "assetIds": []
    },
    {
      "x": 44,
      "y": 252,
      "size": 1,
      "price": "1182000000000000000000",
      "assetIds": []
    },
    {
      "x": 43,
      "y": 252,
      "size": 1,
      "price": "1182000000000000000000",
      "assetIds": []
    },
    {
      "x": 54,
      "y": 254,
      "size": 1,
      "price": "1182000000000000000000",
      "assetIds": []
    },
    {
      "x": 54,
      "y": 253,
      "size": 1,
      "price": "1182000000000000000000",
      "assetIds": []
    },
    {
      "x": 57,
      "y": 257,
      "size": 1,
      "price": "1182000000000000000000",
      "assetIds": []
    },
    {
      "x": 58,
      "y": 257,
      "size": 1,
      "price": "1182000000000000000000",
      "assetIds": []
    },
    {
      "x": 59,
      "y": 257,
      "size": 1,
      "price": "1182000000000000000000",
      "assetIds": []
    },
    {
      "x": 62,
      "y": 256,
      "size": 1,
      "price": "1182000000000000000000",
      "reserved": "0x7a9fe22691c811ea339d9b73150e6911a5343dca",
      "assetIds": []
    },
    {
      "x": 60,
      "y": 254,
      "size": 1,
      "price": "1182000000000000000000",
      "reserved": "0x7a9fe22691c811ea339d9b73150e6911a5343dca",
      "assetIds": []
    },
    {
      "x": 56,
      "y": 254,
      "size": 1,
      "price": "1182000000000000000000",
      "reserved": "0x7a9fe22691c811ea339d9b73150e6911a5343dca",
      "assetIds": []
    },
    {
      "x": 58,
      "y": 252,
      "size": 1,
      "price": "1182000000000000000000",
      "reserved": "0x7a9fe22691c811ea339d9b73150e6911a5343dca",
      "assetIds": []
    },
    {
      "x": 56,
      "y": 250,
      "size": 1,
      "price": "1182000000000000000000",
      "reserved": "0x7a9fe22691c811ea339d9b73150e6911a5343dca",
      "assetIds": []
    },
    {
      "x": 54,
      "y": 252,
      "size": 1,
      "price": "1182000000000000000000",
      "reserved": "0x7a9fe22691c811ea339d9b73150e6911a5343dca",
      "assetIds": []
    },
    {
      "x": 55,
      "y": 247,
      "size": 1,
      "price": "1182000000000000000000",
      "reserved": "0x7a9fe22691c811ea339d9b73150e6911a5343dca",
      "assetIds": []
    },
    {
      "x": 57,
      "y": 245,
      "size": 1,
      "price": "1182000000000000000000",
      "reserved": "0x7a9fe22691c811ea339d9b73150e6911a5343dca",
      "assetIds": []
    },
    {
      "x": 54,
      "y": 244,
      "size": 1,
      "price": "1182000000000000000000",
      "reserved": "0x7a9fe22691c811ea339d9b73150e6911a5343dca",
      "assetIds": []
    },
    {
      "x": 56,
      "y": 241,
      "size": 1,
      "price": "1182000000000000000000",
      "reserved": "0x7a9fe22691c811ea339d9b73150e6911a5343dca",
      "assetIds": []
    },
    {
      "x": 62,
      "y": 257,
      "size": 1,
      "price": "1182000000000000000000",
      "assetIds": []
    },
    {
      "x": 61,
      "y": 257,
      "size": 1,
      "price": "1182000000000000000000",
      "assetIds": []
    },
    {
      "x": 60,
      "y": 257,
      "size": 1,
      "price": "1182000000000000000000",
      "assetIds": []
    },
    {
      "x": 59,
      "y": 256,
      "size": 1,
      "price": "1182000000000000000000",
      "assetIds": []
    },
    {
      "x": 57,
      "y": 256,
      "size": 1,
      "price": "1182000000000000000000",
      "assetIds": []
    },
    {
      "x": 55,
      "y": 253,
      "size": 1,
      "price": "1182000000000000000000",
      "assetIds": []
    },
    {
      "x": 55,
      "y": 254,
      "size": 1,
      "price": "1182000000000000000000",
      "assetIds": []
    },
    {
      "x": 54,
      "y": 251,
      "size": 1,
      "price": "1182000000000000000000",
      "assetIds": []
    },
    {
      "x": 54,
      "y": 250,
      "size": 1,
      "price": "1182000000000000000000",
      "assetIds": []
    },
    {
      "x": 54,
      "y": 248,
      "size": 1,
      "price": "1182000000000000000000",
      "assetIds": []
    },
    {
      "x": 54,
      "y": 247,
      "size": 1,
      "price": "1182000000000000000000",
      "assetIds": []
    },
    {
      "x": 54,
      "y": 245,
      "size": 1,
      "price": "1182000000000000000000",
      "assetIds": []
    },
    {
      "x": 54,
      "y": 243,
      "size": 1,
      "price": "1182000000000000000000",
      "assetIds": []
    },
    {
      "x": 54,
      "y": 241,
      "size": 1,
      "price": "1182000000000000000000",
      "assetIds": []
    },
    {
      "x": 54,
      "y": 240,
      "size": 1,
      "price": "1182000000000000000000",
      "assetIds": []
    },
    {
      "x": 58,
      "y": 256,
      "size": 1,
      "price": "1182000000000000000000",
      "reserved": "0x7a9fe22691c811ea339d9b73150e6911a5343dca",
      "assetIds": []
    },
    {
      "x": 61,
      "y": 256,
      "size": 1,
      "price": "2750000000000000000000",
      "assetIds": [
        "55464657044963196816950587289035428064568320970692304673817341489687446964228",
        "55464657044963196816950587289035428064568320970692304673817341489687446964226",
        "55464657044963196816950587289035428064568320970692304673817341489687446964225",
        "55464657044963196816950587289035428064568320970692304673817341489687446964224"
      ]
    },
    {
      "x": 60,
      "y": 256,
      "size": 1,
      "price": "2750000000000000000000",
      "assetIds": [
        "55464657044963196816950587289035428064568320970692304673817341489687446964228",
        "55464657044963196816950587289035428064568320970692304673817341489687446964226",
        "55464657044963196816950587289035428064568320970692304673817341489687446964225",
        "55464657044963196816950587289035428064568320970692304673817341489687446964224"
      ]
    },
    {
      "x": 60,
      "y": 255,
      "size": 1,
      "price": "2750000000000000000000",
      "assetIds": [
        "55464657044963196816950587289035428064568320970692304673817341489687446964228",
        "55464657044963196816950587289035428064568320970692304673817341489687446964226",
        "55464657044963196816950587289035428064568320970692304673817341489687446964225",
        "55464657044963196816950587289035428064568320970692304673817341489687446964224"
      ]
    },
    {
      "x": 59,
      "y": 255,
      "size": 1,
      "price": "2750000000000000000000",
      "assetIds": [
        "55464657044963196816950587289035428064568320970692304673817341489687446964230",
        "55464657044963196816950587289035428064568320970692304673817341489687446964226",
        "55464657044963196816950587289035428064568320970692304673817341489687446964225",
        "55464657044963196816950587289035428064568320970692304673817341489687446964224"
      ]
    },
    {
      "x": 59,
      "y": 254,
      "size": 1,
      "price": "2750000000000000000000",
      "assetIds": [
        "55464657044963196816950587289035428064568320970692304673817341489687446964228",
        "55464657044963196816950587289035428064568320970692304673817341489687446964226",
        "55464657044963196816950587289035428064568320970692304673817341489687446964225",
        "55464657044963196816950587289035428064568320970692304673817341489687446964224"
      ]
    },
    {
      "x": 61,
      "y": 255,
      "size": 1,
      "price": "2750000000000000000000",
      "assetIds": [
        "55464657044963196816950587289035428064568320970692304673817341489687446964228",
        "55464657044963196816950587289035428064568320970692304673817341489687446964226",
        "55464657044963196816950587289035428064568320970692304673817341489687446964225",
        "55464657044963196816950587289035428064568320970692304673817341489687446964224"
      ]
    },
    {
      "x": 62,
      "y": 254,
      "size": 1,
      "price": "2750000000000000000000",
      "assetIds": [
        "55464657044963196816950587289035428064568320970692304673817341489687446964230",
        "55464657044963196816950587289035428064568320970692304673817341489687446964226",
        "55464657044963196816950587289035428064568320970692304673817341489687446964225",
        "55464657044963196816950587289035428064568320970692304673817341489687446964224"
      ]
    },
    {
      "x": 61,
      "y": 254,
      "size": 1,
      "price": "2750000000000000000000",
      "assetIds": [
        "55464657044963196816950587289035428064568320970692304673817341489687446964228",
        "55464657044963196816950587289035428064568320970692304673817341489687446964226",
        "55464657044963196816950587289035428064568320970692304673817341489687446964225",
        "55464657044963196816950587289035428064568320970692304673817341489687446964224"
      ]
    },
    {
      "x": 61,
      "y": 253,
      "size": 1,
      "price": "2750000000000000000000",
      "assetIds": [
        "55464657044963196816950587289035428064568320970692304673817341489687446964229",
        "55464657044963196816950587289035428064568320970692304673817341489687446964226",
        "55464657044963196816950587289035428064568320970692304673817341489687446964225",
        "55464657044963196816950587289035428064568320970692304673817341489687446964224"
      ]
    },
    {
      "x": 60,
      "y": 253,
      "size": 1,
      "price": "2750000000000000000000",
      "assetIds": [
        "55464657044963196816950587289035428064568320970692304673817341489687446964232",
        "55464657044963196816950587289035428064568320970692304673817341489687446964226",
        "55464657044963196816950587289035428064568320970692304673817341489687446964225",
        "55464657044963196816950587289035428064568320970692304673817341489687446964224"
      ]
    },
    {
      "x": 62,
      "y": 255,
      "size": 1,
      "price": "2750000000000000000000",
      "assetIds": [
        "55464657044963196816950587289035428064568320970692304673817341489687446964227",
        "55464657044963196816950587289035428064568320970692304673817341489687446964226",
        "55464657044963196816950587289035428064568320970692304673817341489687446964225",
        "55464657044963196816950587289035428064568320970692304673817341489687446964224"
      ]
    },
    {
      "x": 62,
      "y": 253,
      "size": 1,
      "price": "2750000000000000000000",
      "assetIds": [
        "55464657044963196816950587289035428064568320970692304673817341489687446964231",
        "55464657044963196816950587289035428064568320970692304673817341489687446964226",
        "55464657044963196816950587289035428064568320970692304673817341489687446964225",
        "55464657044963196816950587289035428064568320970692304673817341489687446964224"
      ]
    },
    {
      "x": 61,
      "y": 252,
      "size": 1,
      "price": "2750000000000000000000",
      "assetIds": [
        "55464657044963196816950587289035428064568320970692304673817341489687446964229",
        "55464657044963196816950587289035428064568320970692304673817341489687446964226",
        "55464657044963196816950587289035428064568320970692304673817341489687446964225",
        "55464657044963196816950587289035428064568320970692304673817341489687446964224"
      ]
    },
    {
      "x": 62,
      "y": 252,
      "size": 1,
      "price": "2750000000000000000000",
      "assetIds": [
        "55464657044963196816950587289035428064568320970692304673817341489687446964229",
        "55464657044963196816950587289035428064568320970692304673817341489687446964226",
        "55464657044963196816950587289035428064568320970692304673817341489687446964225",
        "55464657044963196816950587289035428064568320970692304673817341489687446964224"
      ]
    },
    {
      "x": 60,
      "y": 252,
      "size": 1,
      "price": "2750000000000000000000",
      "assetIds": [
        "55464657044963196816950587289035428064568320970692304673817341489687446964229",
        "55464657044963196816950587289035428064568320970692304673817341489687446964226",
        "55464657044963196816950587289035428064568320970692304673817341489687446964225",
        "55464657044963196816950587289035428064568320970692304673817341489687446964224"
      ]
    },
    {
      "x": 59,
      "y": 252,
      "size": 1,
      "price": "2750000000000000000000",
      "assetIds": [
        "55464657044963196816950587289035428064568320970692304673817341489687446964229",
        "55464657044963196816950587289035428064568320970692304673817341489687446964226",
        "55464657044963196816950587289035428064568320970692304673817341489687446964225",
        "55464657044963196816950587289035428064568320970692304673817341489687446964224"
      ]
    },
    {
      "x": 59,
      "y": 251,
      "size": 1,
      "price": "2750000000000000000000",
      "assetIds": [
        "55464657044963196816950587289035428064568320970692304673817341489687446964227",
        "55464657044963196816950587289035428064568320970692304673817341489687446964226",
        "55464657044963196816950587289035428064568320970692304673817341489687446964225",
        "55464657044963196816950587289035428064568320970692304673817341489687446964224"
      ]
    },
    {
      "x": 58,
      "y": 251,
      "size": 1,
      "price": "2750000000000000000000",
      "assetIds": [
        "55464657044963196816950587289035428064568320970692304673817341489687446964229",
        "55464657044963196816950587289035428064568320970692304673817341489687446964226",
        "55464657044963196816950587289035428064568320970692304673817341489687446964225",
        "55464657044963196816950587289035428064568320970692304673817341489687446964224"
      ]
    },
    {
      "x": 58,
      "y": 250,
      "size": 1,
      "price": "2750000000000000000000",
      "assetIds": [
        "55464657044963196816950587289035428064568320970692304673817341489687446964228",
        "55464657044963196816950587289035428064568320970692304673817341489687446964226",
        "55464657044963196816950587289035428064568320970692304673817341489687446964225",
        "55464657044963196816950587289035428064568320970692304673817341489687446964224"
      ]
    },
    {
      "x": 58,
      "y": 249,
      "size": 1,
      "price": "2750000000000000000000",
      "assetIds": [
        "55464657044963196816950587289035428064568320970692304673817341489687446964230",
        "55464657044963196816950587289035428064568320970692304673817341489687446964226",
        "55464657044963196816950587289035428064568320970692304673817341489687446964225",
        "55464657044963196816950587289035428064568320970692304673817341489687446964224"
      ]
    },
    {
      "x": 58,
      "y": 248,
      "size": 1,
      "price": "2750000000000000000000",
      "assetIds": [
        "55464657044963196816950587289035428064568320970692304673817341489687446964232",
        "55464657044963196816950587289035428064568320970692304673817341489687446964226",
        "55464657044963196816950587289035428064568320970692304673817341489687446964225",
        "55464657044963196816950587289035428064568320970692304673817341489687446964224"
      ]
    },
    {
      "x": 58,
      "y": 247,
      "size": 1,
      "price": "2750000000000000000000",
      "assetIds": [
        "55464657044963196816950587289035428064568320970692304673817341489687446964230",
        "55464657044963196816950587289035428064568320970692304673817341489687446964226",
        "55464657044963196816950587289035428064568320970692304673817341489687446964225",
        "55464657044963196816950587289035428064568320970692304673817341489687446964224"
      ]
    },
    {
      "x": 58,
      "y": 246,
      "size": 1,
      "price": "2750000000000000000000",
      "assetIds": [
        "55464657044963196816950587289035428064568320970692304673817341489687446964231",
        "55464657044963196816950587289035428064568320970692304673817341489687446964226",
        "55464657044963196816950587289035428064568320970692304673817341489687446964225",
        "55464657044963196816950587289035428064568320970692304673817341489687446964224"
      ]
    },
    {
      "x": 58,
      "y": 245,
      "size": 1,
      "price": "2750000000000000000000",
      "assetIds": [
        "55464657044963196816950587289035428064568320970692304673817341489687446964229",
        "55464657044963196816950587289035428064568320970692304673817341489687446964226",
        "55464657044963196816950587289035428064568320970692304673817341489687446964225",
        "55464657044963196816950587289035428064568320970692304673817341489687446964224"
      ]
    },
    {
      "x": 58,
      "y": 244,
      "size": 1,
      "price": "2750000000000000000000",
      "assetIds": [
        "55464657044963196816950587289035428064568320970692304673817341489687446964232",
        "55464657044963196816950587289035428064568320970692304673817341489687446964226",
        "55464657044963196816950587289035428064568320970692304673817341489687446964225",
        "55464657044963196816950587289035428064568320970692304673817341489687446964224"
      ]
    },
    {
      "x": 58,
      "y": 243,
      "size": 1,
      "price": "2750000000000000000000",
      "assetIds": [
        "55464657044963196816950587289035428064568320970692304673817341489687446964232",
        "55464657044963196816950587289035428064568320970692304673817341489687446964226",
        "55464657044963196816950587289035428064568320970692304673817341489687446964225",
        "55464657044963196816950587289035428064568320970692304673817341489687446964224"
      ]
    },
    {
      "x": 58,
      "y": 242,
      "size": 1,
      "price": "2750000000000000000000",
      "assetIds": [
        "55464657044963196816950587289035428064568320970692304673817341489687446964232",
        "55464657044963196816950587289035428064568320970692304673817341489687446964226",
        "55464657044963196816950587289035428064568320970692304673817341489687446964225",
        "55464657044963196816950587289035428064568320970692304673817341489687446964224"
      ]
    },
    {
      "x": 58,
      "y": 241,
      "size": 1,
      "price": "2750000000000000000000",
      "assetIds": [
        "55464657044963196816950587289035428064568320970692304673817341489687446964232",
        "55464657044963196816950587289035428064568320970692304673817341489687446964226",
        "55464657044963196816950587289035428064568320970692304673817341489687446964225",
        "55464657044963196816950587289035428064568320970692304673817341489687446964224"
      ]
    },
    {
      "x": 58,
      "y": 240,
      "size": 1,
      "price": "2750000000000000000000",
      "assetIds": [
        "55464657044963196816950587289035428064568320970692304673817341489687446964231",
        "55464657044963196816950587289035428064568320970692304673817341489687446964226",
        "55464657044963196816950587289035428064568320970692304673817341489687446964225",
        "55464657044963196816950587289035428064568320970692304673817341489687446964224"
      ]
    },
    {
      "x": 59,
      "y": 240,
      "size": 1,
      "price": "2750000000000000000000",
      "assetIds": [
        "55464657044963196816950587289035428064568320970692304673817341489687446964232",
        "55464657044963196816950587289035428064568320970692304673817341489687446964226",
        "55464657044963196816950587289035428064568320970692304673817341489687446964225",
        "55464657044963196816950587289035428064568320970692304673817341489687446964224"
      ]
    },
    {
      "x": 57,
      "y": 240,
      "size": 1,
      "price": "2750000000000000000000",
      "assetIds": [
        "55464657044963196816950587289035428064568320970692304673817341489687446964230",
        "55464657044963196816950587289035428064568320970692304673817341489687446964226",
        "55464657044963196816950587289035428064568320970692304673817341489687446964225",
        "55464657044963196816950587289035428064568320970692304673817341489687446964224"
      ]
    },
    {
      "x": 56,
      "y": 240,
      "size": 1,
      "price": "2750000000000000000000",
      "assetIds": [
        "55464657044963196816950587289035428064568320970692304673817341489687446964229",
        "55464657044963196816950587289035428064568320970692304673817341489687446964226",
        "55464657044963196816950587289035428064568320970692304673817341489687446964225",
        "55464657044963196816950587289035428064568320970692304673817341489687446964224"
      ]
    },
    {
      "x": 55,
      "y": 240,
      "size": 1,
      "price": "2750000000000000000000",
      "assetIds": [
        "55464657044963196816950587289035428064568320970692304673817341489687446964229",
        "55464657044963196816950587289035428064568320970692304673817341489687446964226",
        "55464657044963196816950587289035428064568320970692304673817341489687446964225",
        "55464657044963196816950587289035428064568320970692304673817341489687446964224"
      ]
    },
    {
      "x": 55,
      "y": 241,
      "size": 1,
      "price": "2750000000000000000000",
      "assetIds": [
        "55464657044963196816950587289035428064568320970692304673817341489687446964230",
        "55464657044963196816950587289035428064568320970692304673817341489687446964226",
        "55464657044963196816950587289035428064568320970692304673817341489687446964225",
        "55464657044963196816950587289035428064568320970692304673817341489687446964224"
      ]
    },
    {
      "x": 55,
      "y": 242,
      "size": 1,
      "price": "2750000000000000000000",
      "assetIds": [
        "55464657044963196816950587289035428064568320970692304673817341489687446964227",
        "55464657044963196816950587289035428064568320970692304673817341489687446964226",
        "55464657044963196816950587289035428064568320970692304673817341489687446964225",
        "55464657044963196816950587289035428064568320970692304673817341489687446964224"
      ]
    },
    {
      "x": 54,
      "y": 242,
      "size": 1,
      "price": "2750000000000000000000",
      "assetIds": [
        "55464657044963196816950587289035428064568320970692304673817341489687446964228",
        "55464657044963196816950587289035428064568320970692304673817341489687446964226",
        "55464657044963196816950587289035428064568320970692304673817341489687446964225",
        "55464657044963196816950587289035428064568320970692304673817341489687446964224"
      ]
    },
    {
      "x": 56,
      "y": 242,
      "size": 1,
      "price": "2750000000000000000000",
      "assetIds": [
        "55464657044963196816950587289035428064568320970692304673817341489687446964228",
        "55464657044963196816950587289035428064568320970692304673817341489687446964226",
        "55464657044963196816950587289035428064568320970692304673817341489687446964225",
        "55464657044963196816950587289035428064568320970692304673817341489687446964224"
      ]
    },
    {
      "x": 57,
      "y": 241,
      "size": 1,
      "price": "2750000000000000000000",
      "assetIds": [
        "55464657044963196816950587289035428064568320970692304673817341489687446964227",
        "55464657044963196816950587289035428064568320970692304673817341489687446964226",
        "55464657044963196816950587289035428064568320970692304673817341489687446964225",
        "55464657044963196816950587289035428064568320970692304673817341489687446964224"
      ]
    },
    {
      "x": 57,
      "y": 242,
      "size": 1,
      "price": "2750000000000000000000",
      "assetIds": [
        "55464657044963196816950587289035428064568320970692304673817341489687446964230",
        "55464657044963196816950587289035428064568320970692304673817341489687446964226",
        "55464657044963196816950587289035428064568320970692304673817341489687446964225",
        "55464657044963196816950587289035428064568320970692304673817341489687446964224"
      ]
    },
    {
      "x": 57,
      "y": 243,
      "size": 1,
      "price": "2750000000000000000000",
      "assetIds": [
        "55464657044963196816950587289035428064568320970692304673817341489687446964229",
        "55464657044963196816950587289035428064568320970692304673817341489687446964226",
        "55464657044963196816950587289035428064568320970692304673817341489687446964225",
        "55464657044963196816950587289035428064568320970692304673817341489687446964224"
      ]
    },
    {
      "x": 56,
      "y": 243,
      "size": 1,
      "price": "2750000000000000000000",
      "assetIds": [
        "55464657044963196816950587289035428064568320970692304673817341489687446964229",
        "55464657044963196816950587289035428064568320970692304673817341489687446964226",
        "55464657044963196816950587289035428064568320970692304673817341489687446964225",
        "55464657044963196816950587289035428064568320970692304673817341489687446964224"
      ]
    },
    {
      "x": 57,
      "y": 244,
      "size": 1,
      "price": "2750000000000000000000",
      "assetIds": [
        "55464657044963196816950587289035428064568320970692304673817341489687446964228",
        "55464657044963196816950587289035428064568320970692304673817341489687446964226",
        "55464657044963196816950587289035428064568320970692304673817341489687446964225",
        "55464657044963196816950587289035428064568320970692304673817341489687446964224"
      ]
    },
    {
      "x": 56,
      "y": 244,
      "size": 1,
      "price": "2750000000000000000000",
      "assetIds": [
        "55464657044963196816950587289035428064568320970692304673817341489687446964229",
        "55464657044963196816950587289035428064568320970692304673817341489687446964226",
        "55464657044963196816950587289035428064568320970692304673817341489687446964225",
        "55464657044963196816950587289035428064568320970692304673817341489687446964224"
      ]
    },
    {
      "x": 56,
      "y": 245,
      "size": 1,
      "price": "2750000000000000000000",
      "assetIds": [
        "55464657044963196816950587289035428064568320970692304673817341489687446964230",
        "55464657044963196816950587289035428064568320970692304673817341489687446964226",
        "55464657044963196816950587289035428064568320970692304673817341489687446964225",
        "55464657044963196816950587289035428064568320970692304673817341489687446964224"
      ]
    },
    {
      "x": 56,
      "y": 246,
      "size": 1,
      "price": "2750000000000000000000",
      "assetIds": [
        "55464657044963196816950587289035428064568320970692304673817341489687446964228",
        "55464657044963196816950587289035428064568320970692304673817341489687446964226",
        "55464657044963196816950587289035428064568320970692304673817341489687446964225",
        "55464657044963196816950587289035428064568320970692304673817341489687446964224"
      ]
    },
    {
      "x": 55,
      "y": 244,
      "size": 1,
      "price": "2750000000000000000000",
      "assetIds": [
        "55464657044963196816950587289035428064568320970692304673817341489687446964231",
        "55464657044963196816950587289035428064568320970692304673817341489687446964226",
        "55464657044963196816950587289035428064568320970692304673817341489687446964225",
        "55464657044963196816950587289035428064568320970692304673817341489687446964224"
      ]
    },
    {
      "x": 55,
      "y": 246,
      "size": 1,
      "price": "2750000000000000000000",
      "assetIds": [
        "55464657044963196816950587289035428064568320970692304673817341489687446964229",
        "55464657044963196816950587289035428064568320970692304673817341489687446964226",
        "55464657044963196816950587289035428064568320970692304673817341489687446964225",
        "55464657044963196816950587289035428064568320970692304673817341489687446964224"
      ]
    },
    {
      "x": 55,
      "y": 245,
      "size": 1,
      "price": "2750000000000000000000",
      "assetIds": [
        "55464657044963196816950587289035428064568320970692304673817341489687446964231",
        "55464657044963196816950587289035428064568320970692304673817341489687446964226",
        "55464657044963196816950587289035428064568320970692304673817341489687446964225",
        "55464657044963196816950587289035428064568320970692304673817341489687446964224"
      ]
    },
    {
      "x": 55,
      "y": 243,
      "size": 1,
      "price": "2750000000000000000000",
      "assetIds": [
        "55464657044963196816950587289035428064568320970692304673817341489687446964228",
        "55464657044963196816950587289035428064568320970692304673817341489687446964226",
        "55464657044963196816950587289035428064568320970692304673817341489687446964225",
        "55464657044963196816950587289035428064568320970692304673817341489687446964224"
      ]
    },
    {
      "x": 54,
      "y": 246,
      "size": 1,
      "price": "2750000000000000000000",
      "assetIds": [
        "55464657044963196816950587289035428064568320970692304673817341489687446964231",
        "55464657044963196816950587289035428064568320970692304673817341489687446964226",
        "55464657044963196816950587289035428064568320970692304673817341489687446964225",
        "55464657044963196816950587289035428064568320970692304673817341489687446964224"
      ]
    },
    {
      "x": 55,
      "y": 248,
      "size": 1,
      "price": "2750000000000000000000",
      "assetIds": [
        "55464657044963196816950587289035428064568320970692304673817341489687446964228",
        "55464657044963196816950587289035428064568320970692304673817341489687446964226",
        "55464657044963196816950587289035428064568320970692304673817341489687446964225",
        "55464657044963196816950587289035428064568320970692304673817341489687446964224"
      ]
    },
    {
      "x": 55,
      "y": 249,
      "size": 1,
      "price": "2750000000000000000000",
      "assetIds": [
        "55464657044963196816950587289035428064568320970692304673817341489687446964230",
        "55464657044963196816950587289035428064568320970692304673817341489687446964226",
        "55464657044963196816950587289035428064568320970692304673817341489687446964225",
        "55464657044963196816950587289035428064568320970692304673817341489687446964224"
      ]
    },
    {
      "x": 54,
      "y": 249,
      "size": 1,
      "price": "2750000000000000000000",
      "assetIds": [
        "55464657044963196816950587289035428064568320970692304673817341489687446964228",
        "55464657044963196816950587289035428064568320970692304673817341489687446964226",
        "55464657044963196816950587289035428064568320970692304673817341489687446964225",
        "55464657044963196816950587289035428064568320970692304673817341489687446964224"
      ]
    },
    {
      "x": 55,
      "y": 250,
      "size": 1,
      "price": "2750000000000000000000",
      "assetIds": [
        "55464657044963196816950587289035428064568320970692304673817341489687446964227",
        "55464657044963196816950587289035428064568320970692304673817341489687446964226",
        "55464657044963196816950587289035428064568320970692304673817341489687446964225",
        "55464657044963196816950587289035428064568320970692304673817341489687446964224"
      ]
    },
    {
      "x": 56,
      "y": 249,
      "size": 1,
      "price": "2750000000000000000000",
      "assetIds": [
        "55464657044963196816950587289035428064568320970692304673817341489687446964228",
        "55464657044963196816950587289035428064568320970692304673817341489687446964226",
        "55464657044963196816950587289035428064568320970692304673817341489687446964225",
        "55464657044963196816950587289035428064568320970692304673817341489687446964224"
      ]
    },
    {
      "x": 56,
      "y": 248,
      "size": 1,
      "price": "2750000000000000000000",
      "assetIds": [
        "55464657044963196816950587289035428064568320970692304673817341489687446964229",
        "55464657044963196816950587289035428064568320970692304673817341489687446964226",
        "55464657044963196816950587289035428064568320970692304673817341489687446964225",
        "55464657044963196816950587289035428064568320970692304673817341489687446964224"
      ]
    },
    {
      "x": 56,
      "y": 247,
      "size": 1,
      "price": "2750000000000000000000",
      "assetIds": [
        "55464657044963196816950587289035428064568320970692304673817341489687446964231",
        "55464657044963196816950587289035428064568320970692304673817341489687446964226",
        "55464657044963196816950587289035428064568320970692304673817341489687446964225",
        "55464657044963196816950587289035428064568320970692304673817341489687446964224"
      ]
    },
    {
      "x": 56,
      "y": 251,
      "size": 1,
      "price": "2750000000000000000000",
      "assetIds": [
        "55464657044963196816950587289035428064568320970692304673817341489687446964232",
        "55464657044963196816950587289035428064568320970692304673817341489687446964226",
        "55464657044963196816950587289035428064568320970692304673817341489687446964225",
        "55464657044963196816950587289035428064568320970692304673817341489687446964224"
      ]
    },
    {
      "x": 55,
      "y": 251,
      "size": 1,
      "price": "2750000000000000000000",
      "assetIds": [
        "55464657044963196816950587289035428064568320970692304673817341489687446964229",
        "55464657044963196816950587289035428064568320970692304673817341489687446964226",
        "55464657044963196816950587289035428064568320970692304673817341489687446964225",
        "55464657044963196816950587289035428064568320970692304673817341489687446964224"
      ]
    },
    {
      "x": 56,
      "y": 252,
      "size": 1,
      "price": "2750000000000000000000",
      "assetIds": [
        "55464657044963196816950587289035428064568320970692304673817341489687446964229",
        "55464657044963196816950587289035428064568320970692304673817341489687446964226",
        "55464657044963196816950587289035428064568320970692304673817341489687446964225",
        "55464657044963196816950587289035428064568320970692304673817341489687446964224"
      ]
    },
    {
      "x": 55,
      "y": 252,
      "size": 1,
      "price": "2750000000000000000000",
      "assetIds": [
        "55464657044963196816950587289035428064568320970692304673817341489687446964231",
        "55464657044963196816950587289035428064568320970692304673817341489687446964226",
        "55464657044963196816950587289035428064568320970692304673817341489687446964225",
        "55464657044963196816950587289035428064568320970692304673817341489687446964224"
      ]
    },
    {
      "x": 57,
      "y": 252,
      "size": 1,
      "price": "2750000000000000000000",
      "assetIds": [
        "55464657044963196816950587289035428064568320970692304673817341489687446964228",
        "55464657044963196816950587289035428064568320970692304673817341489687446964226",
        "55464657044963196816950587289035428064568320970692304673817341489687446964225",
        "55464657044963196816950587289035428064568320970692304673817341489687446964224"
      ]
    },
    {
      "x": 57,
      "y": 253,
      "size": 1,
      "price": "2750000000000000000000",
      "assetIds": [
        "55464657044963196816950587289035428064568320970692304673817341489687446964232",
        "55464657044963196816950587289035428064568320970692304673817341489687446964226",
        "55464657044963196816950587289035428064568320970692304673817341489687446964225",
        "55464657044963196816950587289035428064568320970692304673817341489687446964224"
      ]
    },
    {
      "x": 56,
      "y": 253,
      "size": 1,
      "price": "2750000000000000000000",
      "assetIds": [
        "55464657044963196816950587289035428064568320970692304673817341489687446964231",
        "55464657044963196816950587289035428064568320970692304673817341489687446964226",
        "55464657044963196816950587289035428064568320970692304673817341489687446964225",
        "55464657044963196816950587289035428064568320970692304673817341489687446964224"
      ]
    },
    {
      "x": 57,
      "y": 251,
      "size": 1,
      "price": "2750000000000000000000",
      "assetIds": [
        "55464657044963196816950587289035428064568320970692304673817341489687446964232",
        "55464657044963196816950587289035428064568320970692304673817341489687446964226",
        "55464657044963196816950587289035428064568320970692304673817341489687446964225",
        "55464657044963196816950587289035428064568320970692304673817341489687446964224"
      ]
    },
    {
      "x": 57,
      "y": 254,
      "size": 1,
      "price": "2750000000000000000000",
      "assetIds": [
        "55464657044963196816950587289035428064568320970692304673817341489687446964229",
        "55464657044963196816950587289035428064568320970692304673817341489687446964226",
        "55464657044963196816950587289035428064568320970692304673817341489687446964225",
        "55464657044963196816950587289035428064568320970692304673817341489687446964224"
      ]
    },
    {
      "x": 58,
      "y": 254,
      "size": 1,
      "price": "2750000000000000000000",
      "assetIds": [
        "55464657044963196816950587289035428064568320970692304673817341489687446964232",
        "55464657044963196816950587289035428064568320970692304673817341489687446964226",
        "55464657044963196816950587289035428064568320970692304673817341489687446964225",
        "55464657044963196816950587289035428064568320970692304673817341489687446964224"
      ]
    },
    {
      "x": 57,
      "y": 255,
      "size": 1,
      "price": "2750000000000000000000",
      "assetIds": [
        "55464657044963196816950587289035428064568320970692304673817341489687446964231",
        "55464657044963196816950587289035428064568320970692304673817341489687446964226",
        "55464657044963196816950587289035428064568320970692304673817341489687446964225",
        "55464657044963196816950587289035428064568320970692304673817341489687446964224"
      ]
    },
    {
      "x": 58,
      "y": 253,
      "size": 1,
      "price": "2750000000000000000000",
      "assetIds": [
        "55464657044963196816950587289035428064568320970692304673817341489687446964232",
        "55464657044963196816950587289035428064568320970692304673817341489687446964226",
        "55464657044963196816950587289035428064568320970692304673817341489687446964225",
        "55464657044963196816950587289035428064568320970692304673817341489687446964224"
      ]
    },
    {
      "x": 58,
      "y": 255,
      "size": 1,
      "price": "2750000000000000000000",
      "assetIds": [
        "55464657044963196816950587289035428064568320970692304673817341489687446964229",
        "55464657044963196816950587289035428064568320970692304673817341489687446964226",
        "55464657044963196816950587289035428064568320970692304673817341489687446964225",
        "55464657044963196816950587289035428064568320970692304673817341489687446964224"
      ]
    },
    {
      "x": 59,
      "y": 253,
      "size": 1,
      "price": "2750000000000000000000",
      "assetIds": [
        "55464657044963196816950587289035428064568320970692304673817341489687446964232",
        "55464657044963196816950587289035428064568320970692304673817341489687446964226",
        "55464657044963196816950587289035428064568320970692304673817341489687446964225",
        "55464657044963196816950587289035428064568320970692304673817341489687446964224"
      ]
    },
    {
      "x": 57,
      "y": 249,
      "size": 1,
      "price": "2750000000000000000000",
      "assetIds": [
        "55464657044963196816950587289035428064568320970692304673817341489687446964228",
        "55464657044963196816950587289035428064568320970692304673817341489687446964226",
        "55464657044963196816950587289035428064568320970692304673817341489687446964225",
        "55464657044963196816950587289035428064568320970692304673817341489687446964224"
      ]
    },
    {
      "x": 57,
      "y": 248,
      "size": 1,
      "price": "2750000000000000000000",
      "assetIds": [
        "55464657044963196816950587289035428064568320970692304673817341489687446964230",
        "55464657044963196816950587289035428064568320970692304673817341489687446964226",
        "55464657044963196816950587289035428064568320970692304673817341489687446964225",
        "55464657044963196816950587289035428064568320970692304673817341489687446964224"
      ]
    },
    {
      "x": 57,
      "y": 247,
      "size": 1,
      "price": "2750000000000000000000",
      "assetIds": [
        "55464657044963196816950587289035428064568320970692304673817341489687446964230",
        "55464657044963196816950587289035428064568320970692304673817341489687446964226",
        "55464657044963196816950587289035428064568320970692304673817341489687446964225",
        "55464657044963196816950587289035428064568320970692304673817341489687446964224"
      ]
    },
    {
      "x": 57,
      "y": 250,
      "size": 1,
      "price": "2750000000000000000000",
      "assetIds": [
        "55464657044963196816950587289035428064568320970692304673817341489687446964230",
        "55464657044963196816950587289035428064568320970692304673817341489687446964226",
        "55464657044963196816950587289035428064568320970692304673817341489687446964225",
        "55464657044963196816950587289035428064568320970692304673817341489687446964224"
      ]
    },
    {
      "x": 57,
      "y": 246,
      "size": 1,
      "price": "2750000000000000000000",
      "assetIds": [
        "55464657044963196816950587289035428064568320970692304673817341489687446964232",
        "55464657044963196816950587289035428064568320970692304673817341489687446964226",
        "55464657044963196816950587289035428064568320970692304673817341489687446964225",
        "55464657044963196816950587289035428064568320970692304673817341489687446964224"
      ]
    },
    {
      "x": 59,
      "y": 247,
      "size": 1,
      "price": "2750000000000000000000",
      "assetIds": [
        "55464657044963196816950587289035428064568320970692304673817341489687446964230",
        "55464657044963196816950587289035428064568320970692304673817341489687446964226",
        "55464657044963196816950587289035428064568320970692304673817341489687446964225",
        "55464657044963196816950587289035428064568320970692304673817341489687446964224"
      ]
    },
    {
      "x": 59,
      "y": 248,
      "size": 1,
      "price": "2750000000000000000000",
      "assetIds": [
        "55464657044963196816950587289035428064568320970692304673817341489687446964229",
        "55464657044963196816950587289035428064568320970692304673817341489687446964226",
        "55464657044963196816950587289035428064568320970692304673817341489687446964225",
        "55464657044963196816950587289035428064568320970692304673817341489687446964224"
      ]
    },
    {
      "x": 59,
      "y": 250,
      "size": 1,
      "price": "2750000000000000000000",
      "assetIds": [
        "55464657044963196816950587289035428064568320970692304673817341489687446964227",
        "55464657044963196816950587289035428064568320970692304673817341489687446964226",
        "55464657044963196816950587289035428064568320970692304673817341489687446964225",
        "55464657044963196816950587289035428064568320970692304673817341489687446964224"
      ]
    },
    {
      "x": 59,
      "y": 249,
      "size": 1,
      "price": "2750000000000000000000",
      "assetIds": [
        "55464657044963196816950587289035428064568320970692304673817341489687446964231",
        "55464657044963196816950587289035428064568320970692304673817341489687446964226",
        "55464657044963196816950587289035428064568320970692304673817341489687446964225",
        "55464657044963196816950587289035428064568320970692304673817341489687446964224"
      ]
    },
    {
      "x": 59,
      "y": 246,
      "size": 1,
      "price": "2750000000000000000000",
      "assetIds": [
        "55464657044963196816950587289035428064568320970692304673817341489687446964228",
        "55464657044963196816950587289035428064568320970692304673817341489687446964226",
        "55464657044963196816950587289035428064568320970692304673817341489687446964225",
        "55464657044963196816950587289035428064568320970692304673817341489687446964224"
      ]
    },
    {
      "x": 59,
      "y": 245,
      "size": 1,
      "price": "2750000000000000000000",
      "assetIds": [
        "55464657044963196816950587289035428064568320970692304673817341489687446964231",
        "55464657044963196816950587289035428064568320970692304673817341489687446964226",
        "55464657044963196816950587289035428064568320970692304673817341489687446964225",
        "55464657044963196816950587289035428064568320970692304673817341489687446964224"
      ]
    },
    {
      "x": 59,
      "y": 244,
      "size": 1,
      "price": "2750000000000000000000",
      "assetIds": [
        "55464657044963196816950587289035428064568320970692304673817341489687446964227",
        "55464657044963196816950587289035428064568320970692304673817341489687446964226",
        "55464657044963196816950587289035428064568320970692304673817341489687446964225",
        "55464657044963196816950587289035428064568320970692304673817341489687446964224"
      ]
    },
    {
      "x": 59,
      "y": 243,
      "size": 1,
      "price": "2750000000000000000000",
      "assetIds": [
        "55464657044963196816950587289035428064568320970692304673817341489687446964229",
        "55464657044963196816950587289035428064568320970692304673817341489687446964226",
        "55464657044963196816950587289035428064568320970692304673817341489687446964225",
        "55464657044963196816950587289035428064568320970692304673817341489687446964224"
      ]
    },
    {
      "x": 59,
      "y": 242,
      "size": 1,
      "price": "2750000000000000000000",
      "assetIds": [
        "55464657044963196816950587289035428064568320970692304673817341489687446964232",
        "55464657044963196816950587289035428064568320970692304673817341489687446964226",
        "55464657044963196816950587289035428064568320970692304673817341489687446964225",
        "55464657044963196816950587289035428064568320970692304673817341489687446964224"
      ]
    },
    {
      "x": 59,
      "y": 241,
      "size": 1,
      "price": "2750000000000000000000",
      "assetIds": [
        "55464657044963196816950587289035428064568320970692304673817341489687446964232",
        "55464657044963196816950587289035428064568320970692304673817341489687446964226",
        "55464657044963196816950587289035428064568320970692304673817341489687446964225",
        "55464657044963196816950587289035428064568320970692304673817341489687446964224"
      ]
    },
    {
      "x": 54,
      "y": 282,
      "size": 3,
      "price": "10147000000000000000000",
      "assetIds": []
    },
    {
      "x": 51,
      "y": 282,
      "size": 3,
      "price": "10147000000000000000000",
      "assetIds": []
    },
    {
      "x": 45,
      "y": 285,
      "size": 3,
      "price": "10147000000000000000000",
      "assetIds": []
    },
    {
      "x": 42,
      "y": 285,
      "size": 3,
      "price": "10147000000000000000000",
      "assetIds": []
    },
    {
      "x": 39,
      "y": 282,
      "size": 3,
      "price": "10147000000000000000000",
      "assetIds": []
    },
    {
      "x": 42,
      "y": 279,
      "size": 3,
      "price": "10147000000000000000000",
      "assetIds": []
    },
    {
      "x": 39,
      "y": 279,
      "size": 3,
      "price": "10147000000000000000000",
      "reserved": "0x7a9fe22691c811ea339d9b73150e6911a5343dca",
      "assetIds": []
    },
    {
      "x": 48,
      "y": 264,
      "size": 12,
      "price": "145407000000000000000000",
      "reserved": "0x1d7d54c4b2cab08d0807fb8963db8ee278291deb",
      "assetIds": []
    },
    {
      "x": 60,
      "y": 240,
      "size": 12,
      "price": "145407000000000000000000",
      "reserved": "0x7a9fe22691c811ea339d9b73150e6911a5343dca",
      "assetIds": []
    },
    {
      "x": 84,
      "y": 228,
      "size": 12,
      "price": "145407000000000000000000",
      "reserved": "0x7a9fe22691c811ea339d9b73150e6911a5343dca",
      "assetIds": []
    },
    {
      "x": 60,
      "y": 204,
      "size": 12,
      "price": "145407000000000000000000",
      "reserved": "0x7a9fe22691c811ea339d9b73150e6911a5343dca",
      "assetIds": []
    },
    {
      "x": 63,
      "y": 279,
      "size": 3,
      "price": "10147000000000000000000",
      "assetIds": []
    },
    {
      "x": 69,
      "y": 276,
      "size": 3,
      "price": "10147000000000000000000",
      "assetIds": []
    },
    {
      "x": 69,
      "y": 273,
      "size": 3,
      "price": "10147000000000000000000",
      "assetIds": []
    },
    {
      "x": 66,
      "y": 273,
      "size": 3,
      "price": "10147000000000000000000",
      "assetIds": []
    },
    {
      "x": 66,
      "y": 267,
      "size": 3,
      "price": "10147000000000000000000",
      "assetIds": []
    },
    {
      "x": 72,
      "y": 270,
      "size": 6,
      "price": "38496000000000000000000",
      "assetIds": []
    },
    {
      "x": 66,
      "y": 279,
      "size": 3,
      "price": "10147000000000000000000",
      "reserved": "0x7a9fe22691c811ea339d9b73150e6911a5343dca",
      "assetIds": []
    },
    {
      "x": 66,
      "y": 258,
      "size": 6,
      "price": "38496000000000000000000",
      "assetIds": []
    },
    {
      "x": 69,
      "y": 264,
      "size": 3,
      "price": "10147000000000000000000",
      "assetIds": []
    },
    {
      "x": 63,
      "y": 258,
      "size": 3,
      "price": "10147000000000000000000",
      "assetIds": []
    },
    {
      "x": 24,
      "y": 252,
      "size": 12,
      "price": "145407000000000000000000",
      "reserved": "0x7a9fe22691c811ea339d9b73150e6911a5343dca",
      "assetIds": []
    },
    {
      "x": 33,
      "y": 267,
      "size": 3,
      "price": "10147000000000000000000",
      "reserved": "0x7a9fe22691c811ea339d9b73150e6911a5343dca",
      "assetIds": []
    },
    {
      "x": 42,
      "y": 258,
      "size": 3,
      "price": "10147000000000000000000",
      "reserved": "0x44bC1E612e11d0Acd2c43218Ea55717aC28e3a40",
      "assetIds": []
    },
    {
      "x": 30,
      "y": 264,
      "size": 3,
      "price": "10147000000000000000000",
      "assetIds": []
    },
    {
      "x": 33,
      "y": 264,
      "size": 3,
      "price": "10147000000000000000000",
      "assetIds": []
    },
    {
      "x": 42,
      "y": 264,
      "size": 3,
      "price": "10147000000000000000000",
      "assetIds": []
    },
    {
      "x": 39,
      "y": 261,
      "size": 3,
      "price": "10147000000000000000000",
      "assetIds": []
    },
    {
      "x": 39,
      "y": 258,
      "size": 3,
      "price": "10147000000000000000000",
      "assetIds": []
    },
    {
      "x": 45,
      "y": 255,
      "size": 3,
      "price": "10147000000000000000000",
      "assetIds": []
    },
    {
      "x": 36,
      "y": 264,
      "size": 6,
      "price": "38496000000000000000000",
      "assetIds": []
    },
    {
      "x": 24,
      "y": 216,
      "size": 24,
      "price": "547392000000000000000000",
      "reserved": "0x7a9fe22691c811ea339d9b73150e6911a5343dca",
      "assetIds": []
    },
    {
      "x": 36,
      "y": 240,
      "size": 12,
      "price": "145407000000000000000000",
      "assetIds": []
    },
    {
      "x": 36,
      "y": 252,
      "size": 6,
      "price": "38496000000000000000000",
      "assetIds": []
    },
    {
      "x": 30,
      "y": 246,
      "size": 6,
      "price": "38496000000000000000000",
      "assetIds": []
    },
    {
      "x": 27,
      "y": 249,
      "size": 3,
      "price": "10147000000000000000000",
      "assetIds": []
    },
    {
      "x": 33,
      "y": 243,
      "size": 3,
      "price": "10147000000000000000000",
      "assetIds": []
    },
    {
      "x": 30,
      "y": 240,
      "size": 3,
      "price": "10147000000000000000000",
      "assetIds": []
    },
    {
      "x": 24,
      "y": 240,
      "size": 3,
      "price": "10147000000000000000000",
      "assetIds": []
    },
    {
      "x": 27,
      "y": 246,
      "size": 3,
      "price": "10147000000000000000000",
      "reserved": "0x7a9fe22691c811ea339d9b73150e6911a5343dca",
      "assetIds": []
    },
    {
      "x": 48,
      "y": 252,
      "size": 6,
      "price": "38496000000000000000000",
      "assetIds": []
    },
    {
      "x": 48,
      "y": 246,
      "size": 6,
      "price": "38496000000000000000000",
      "reserved": "0x7a9fe22691c811ea339d9b73150e6911a5343dca",
      "assetIds": []
    },
    {
      "x": 54,
      "y": 255,
      "size": 3,
      "price": "10147000000000000000000",
      "assetIds": []
    },
    {
      "x": 45,
      "y": 252,
      "size": 3,
      "price": "10147000000000000000000",
      "assetIds": []
    },
    {
      "x": 48,
      "y": 243,
      "size": 3,
      "price": "10147000000000000000000",
      "assetIds": []
    },
    {
      "x": 51,
      "y": 243,
      "size": 3,
      "price": "10147000000000000000000",
      "assetIds": []
    }
  ],
  "solcInputHash": "0xf29dccc9a949f4c922fea35139d4d6e6d68c9a5b5f8bccbc938038487c029e3d",
  "bytecode": "0x610160604052620d2f006005556103e860075534801561001e57600080fd5b506040516124a73803806124a7833981810160405261018081101561004257600080fd5b50805160208201516040830151606080850151608086015160a08088015160c0808a015160e08b01516101008c01516101208d01516101408e0151610160909e0151600280546001600160a01b0319166001600160a01b03861617905560038390558d8b1b6001600160601b0319908116909852998c901b909616909352999a9899979895979496929590949391926100dc8a600161014a565b600680546001600160a01b03199081166001600160a01b039a8b1617909155610140979097526101209590955260008054909616979096169690961790935550606093841b6001600160601b031990811660e05292841b831660805290921b1661010052506101ae92505050565b6001600160a01b038216600081815260016020908152604091829020805460ff191685151590811790915582519384529083015280517fb21eb88b4e33b3f1281830a7178d74d8aa73220416215726b68ae23d539515cb9281900390910190a15050565b60805160601c60a05160601c60c05160601c60e05160601c6101005160601c610120516101405161226f610238600039806109375280611db85250806109135280610dfa528061140e525080611e185250806116465280611768525080610c5052806116105280611e4c5250806116d55280611739525080610e6e528061197c525061226f6000f3fe608060405234801561001057600080fd5b50600436106101515760003560e01c8063984d6252116100cd578063dc5074af11610081578063ecb255b511610066578063ecb255b514610857578063f23a6e6114610874578063f2e7b3811461090957610151565b8063dc5074af14610814578063e56f8a9e1461083a57610151565b8063bc197c81116100b2578063bc197c81146105d3578063c10a420814610735578063caed35001461080c57610151565b8063984d6252146104db578063b522ecff146105ad57610151565b80636e9960c3116101245780638a04af6a116101095780638a04af6a1461032a5780638a12b82f146103585780638f283970146104b557610151565b80636e9960c3146102fe57806377f1c3ac1461032257610151565b806325cb5bc014610156578063495906571461017057806358bc29441461017857806365194ce7146101a0575b600080fd5b61015e610911565b60408051918252519081900360200190f35b61015e610935565b61019e6004803603602081101561018e57600080fd5b50356001600160a01b0316610959565b005b610246600480360360208110156101b657600080fd5b8101906020810181356401000000008111156101d157600080fd5b8201836020820111156101e357600080fd5b8035906020019184600183028401116401000000008311171561020557600080fd5b91908080601f016020809104026020016040519081016040528093929190818152602001838380828437600092019190915250929550610a04945050505050565b6040518080602001866001600160a01b03166001600160a01b03168152602001856001600160a01b03166001600160a01b03168152602001848152602001838152602001828103825287818151815260200191508051906020019080838360005b838110156102bf5781810151838201526020016102a7565b50505050905090810190601f1680156102ec5780820380516001836020036101000a031916815260200191505b50965050505050505060405180910390f35b610306610b09565b604080516001600160a01b039092168252519081900360200190f35b61015e610b18565b61019e6004803603604081101561034057600080fd5b506001600160a01b0381351690602001351515610b1e565b61019e600480360361018081101561036f57600080fd5b6001600160a01b038235811692602081013582169260408201359092169160608201359160808101359160a08201359160c08101359160e0820135916101008101359181019061014081016101208201356401000000008111156103d257600080fd5b8201836020820111156103e457600080fd5b8035906020019184602083028401116401000000008311171561040657600080fd5b91939092909160208101903564010000000081111561042457600080fd5b82018360208201111561043657600080fd5b8035906020019184602083028401116401000000008311171561045857600080fd5b91939092909160208101903564010000000081111561047657600080fd5b82018360208201111561048857600080fd5b803590602001918460018302840111640100000000831117156104aa57600080fd5b509092509050610b75565b61019e600480360360208110156104cb57600080fd5b50356001600160a01b0316610cc3565b61019e600480360360608110156104f157600080fd5b6001600160a01b03823516919081019060408101602082013564010000000081111561051c57600080fd5b82018360208201111561052e57600080fd5b8035906020019184602083028401116401000000008311171561055057600080fd5b91939092909160208101903564010000000081111561056e57600080fd5b82018360208201111561058057600080fd5b803590602001918460208302840111640100000000831117156105a257600080fd5b509092509050610d99565b61019e600480360360208110156105c357600080fd5b50356001600160a01b0316610f98565b610700600480360360a08110156105e957600080fd5b6001600160a01b03823581169260208101359091169181019060608101604082013564010000000081111561061d57600080fd5b82018360208201111561062f57600080fd5b8035906020019184602083028401116401000000008311171561065157600080fd5b91939092909160208101903564010000000081111561066f57600080fd5b82018360208201111561068157600080fd5b803590602001918460208302840111640100000000831117156106a357600080fd5b9193909290916020810190356401000000008111156106c157600080fd5b8201836020820111156106d357600080fd5b803590602001918460018302840111640100000000831117156106f557600080fd5b509092509050611081565b604080517fffffffff000000000000000000000000000000000000000000000000000000009092168252519081900360200190f35b6107f8600480360360a081101561074b57600080fd5b81019060208101813564010000000081111561076657600080fd5b82018360208201111561077857600080fd5b8035906020019184600183028401116401000000008311171561079a57600080fd5b91908080601f016020809104026020016040519081016040528093929190818152602001838380828437600092019190915250929550506001600160a01b0383358116945060208401351692604081013592506060013590506110ae565b604080519115158252519081900360200190f35b6103066111ea565b6107f86004803603602081101561082a57600080fd5b50356001600160a01b03166111f9565b61019e6004803603602081101561085057600080fd5b5035611217565b61019e6004803603602081101561086d57600080fd5b503561127b565b610700600480360360a081101561088a57600080fd5b6001600160a01b03823581169260208101359091169160408201359160608101359181019060a0810160808201356401000000008111156108ca57600080fd5b8201836020820111156108dc57600080fd5b803590602001918460018302840111640100000000831117156108fe57600080fd5b5090925090506112df565b61015e61130a565b7f000000000000000000000000000000000000000000000000000000000000000090565b7f000000000000000000000000000000000000000000000000000000000000000090565b6000546001600160a01b031633146109b8576040805162461bcd60e51b815260206004820152601060248201527f53656e646572206e6f742061646d696e00000000000000000000000000000000604482015290519081900360640190fd5b600554600280546001600160a01b03908116600090815260046020526040902042909301909255805473ffffffffffffffffffffffffffffffffffffffff191692909116919091179055565b606060008060008060606000806000808a80602001905160a0811015610a2957600080fd5b8101908080516040519392919084640100000000821115610a4957600080fd5b908301906020820185811115610a5e57600080fd5b8251640100000000811182820188101715610a7857600080fd5b82525081516020918201929091019080838360005b83811015610aa5578181015183820152602001610a8d565b50505050905090810190601f168015610ad25780820380516001836020036101000a031916815260200191505b5060409081526020820151908201516060830151608090930151959f50909d509b5099509197505050505050505091939590929450565b6000546001600160a01b031690565b60035490565b6000546001600160a01b03163314610b675760405162461bcd60e51b815260040180806020018281038252602e81526020018061220c602e913960400191505060405180910390fd5b610b718282611310565b5050565b610b7f8989611392565b610c048f8e8e8e8e8e8d8d8d80806020026020016040519081016040528093929190818152602001838360200280828437600081840152601f19601f820116905080830192505050505050508c8c8080602002602001604051908101604052809392919081815260200183836020028082843760009201919091525061140c92505050565b610c458f8984848080601f0160208091040260200160405190810160405280939291908181526020018383808284376000920191909152506115e992505050565b610c758f8f8e8e8e8d7f00000000000000000000000000000000000000000000000000000000000000008f61163a565b610cb28e87878080602002602001604051908101604052809392919081815260200183836020028082843760009201919091525061190592505050565b505050505050505050505050505050565b6000546001600160a01b03163314610d22576040805162461bcd60e51b815260206004820152601b60248201527f6f6e6c792061646d696e2063616e206368616e67652061646d696e0000000000604482015290519081900360640190fd5b600054604080516001600160a01b039283168152918316602083015280517f7e644d79422f17c01e4894b5f4f588d331ebfa28653d42ae832dc59e38c9798f9281900390910190a16000805473ffffffffffffffffffffffffffffffffffffffff19166001600160a01b0392909216919091179055565b6000546001600160a01b03163314610df8576040805162461bcd60e51b815260206004820152600e60248201527f4e4f545f415554484f52495a4544000000000000000000000000000000000000604482015290519081900360640190fd5b7f00000000000000000000000000000000000000000000000000000000000000004211610e6c576040805162461bcd60e51b815260206004820152600d60248201527f53414c455f4e4f545f4f56455200000000000000000000000000000000000000604482015290519081900360640190fd5b7f00000000000000000000000000000000000000000000000000000000000000006001600160a01b0316632eb2c2d63087878787876040518763ffffffff1660e01b815260040180876001600160a01b03166001600160a01b03168152602001866001600160a01b03166001600160a01b031681526020018060200180602001806020018481038452888882818152602001925060200280828437600083820152601f01601f19169091018581038452868152602090810191508790870280828437600081840152601f19601f8201169050808301925050508481038252600081526020016020019950505050505050505050600060405180830381600087803b158015610f7957600080fd5b505af1158015610f8d573d6000803e3d6000fd5b505050505050505050565b6001600160a01b038116610ff3576040805162461bcd60e51b815260206004820152600c60248201527f5a45524f5f414444524553530000000000000000000000000000000000000000604482015290519081900360640190fd5b6000546001600160a01b03163314611052576040805162461bcd60e51b815260206004820152600e60248201527f4e4f545f415554484f52495a4544000000000000000000000000000000000000604482015290519081900360640190fd5b6006805473ffffffffffffffffffffffffffffffffffffffff19166001600160a01b0392909216919091179055565b7fbc197c810000000000000000000000000000000000000000000000000000000098975050505050505050565b60006003548211806110d15750836001600160a01b0316856001600160a01b0316145b806110db57508242115b156110e8575060006111e1565b60408051606087811b7fffffffffffffffffffffffffffffffffffffffff0000000000000000000000009081166020808501919091529188901b166034830152604882018690526068808301869052835180840390910181526088830184528051908201207f19457468657265756d205369676e6564204d6573736167653a0a33320000000060a884015260c48084018290528451808503909101815260e4909301909352815191012060009061119f9089611ac9565b6001600160a01b03811660009081526004602052604090205490915042116111cc576001925050506111e1565b6002546001600160a01b039081169116149150505b95945050505050565b6002546001600160a01b031690565b6001600160a01b031660009081526001602052604090205460ff1690565b6000546001600160a01b03163314611276576040805162461bcd60e51b815260206004820152601060248201527f53656e646572206e6f742061646d696e00000000000000000000000000000000604482015290519081900360640190fd5b600355565b6000546001600160a01b031633146112da576040805162461bcd60e51b815260206004820152600e60248201527f4e4f545f415554484f52495a4544000000000000000000000000000000000000604482015290519081900360640190fd5b600755565b7ff23a6e61000000000000000000000000000000000000000000000000000000009695505050505050565b60075490565b6001600160a01b03821660008181526001602090815260409182902080547fffffffffffffffffffffffffffffffffffffffffffffffffffffffffffffff001685151590811790915582519384529083015280517fb21eb88b4e33b3f1281830a7178d74d8aa73220416215726b68ae23d539515cb9281900390910190a15050565b6113b96103e86113ad60075485611b9690919063ffffffff16565b9063ffffffff611c0c16565b8114610b71576040805162461bcd60e51b815260206004820152600d60248201527f494e56414c49445f505249434500000000000000000000000000000000000000604482015290519081900360640190fd5b7f00000000000000000000000000000000000000000000000000000000000000004210611480576040805162461bcd60e51b815260206004820152600c60248201527f53414c455f49535f4f5645520000000000000000000000000000000000000000604482015290519081900360640190fd5b6001600160a01b0389163314806114a657503360009081526001602052604090205460ff165b6114f7576040805162461bcd60e51b815260206004820152600e60248201527f4e4f545f415554484f52495a4544000000000000000000000000000000000000604482015290519081900360640190fd5b6001600160a01b038816158061151e5750886001600160a01b0316886001600160a01b0316145b61156f576040805162461bcd60e51b815260206004820152600d60248201527f52455345525645445f4c414e4400000000000000000000000000000000000000604482015290519081900360640190fd5b6000611580888888888d8989611c71565b905061158c8282611d16565b6115dd576040805162461bcd60e51b815260206004820152600c60248201527f494e56414c49445f4c414e440000000000000000000000000000000000000000604482015290519081900360640190fd5b50505050505050505050565b60006115f58484611ddf565b600654909150611634908590839085906001600160a01b03167f0000000000000000000000000000000000000000000000000000000000000000611f2c565b50505050565b836001148061167057507f00000000000000000000000000000000000000000000000000000000000000006001600160a01b0316155b1561173757604080517f6e1e3bbf0000000000000000000000000000000000000000000000000000000081526001600160a01b03898116600483015260248201879052604482018990526064820188905260a06084830152600060a4830181905292517f000000000000000000000000000000000000000000000000000000000000000090911692636e1e3bbf9260e4808201939182900301818387803b15801561171a57600080fd5b505af115801561172e573d6000803e3d6000fd5b5050505061189b565b7f00000000000000000000000000000000000000000000000000000000000000006001600160a01b0316636e1e3bbf7f00000000000000000000000000000000000000000000000000000000000000008689898c60405160200180826001600160a01b03166001600160a01b031681526020019150506040516020818303038152906040526040518663ffffffff1660e01b815260040180866001600160a01b03166001600160a01b0316815260200185815260200184815260200183815260200180602001828103825283818151815260200191508051906020019080838360005b8381101561183257818101518382015260200161181a565b50505050905090810190601f16801561185f5780820380516001836020036101000a031916815260200191505b509650505050505050600060405180830381600087803b15801561188257600080fd5b505af1158015611896573d6000803e3d6000fd5b505050505b60408051858152602081018590526001600160a01b03848116828401526060820184905291516101988802890192808b1692908c16917fe4dfa6ac11314892f3029b34a25b1a887da3b1cab2bbf8506d87128ba6e3ac029181900360800190a45050505050505050565b6060815167ffffffffffffffff8111801561191f57600080fd5b50604051908082528060200260200182016040528015611949578160200160208202803683370190505b50905060005b825181101561197957600182828151811061196657fe5b602090810291909101015260010161194f565b507f00000000000000000000000000000000000000000000000000000000000000006001600160a01b0316632eb2c2d6308585856040518563ffffffff1660e01b815260040180856001600160a01b03166001600160a01b03168152602001846001600160a01b03166001600160a01b03168152602001806020018060200180602001848103845286818151815260200191508051906020019060200280838360005b83811015611a34578181015183820152602001611a1c565b50505050905001848103835285818151815260200191508051906020019060200280838360005b83811015611a73578181015183820152602001611a5b565b50505050905001848103825260008152602001602001975050505050505050600060405180830381600087803b158015611aac57600080fd5b505af1158015611ac0573d6000803e3d6000fd5b50505050505050565b60008151604114611ad957600080fd5b60208201516040830151606084015160001a601b811015611af857601b015b8060ff16601b1480611b0d57508060ff16601c145b611b1657600080fd5b6040805160008152602080820180845289905260ff8416828401526060820186905260808201859052915160019260a0808401939192601f1981019281900390910190855afa158015611b6d573d6000803e3d6000fd5b5050604051601f1901519450506001600160a01b038416611b8d57600080fd5b50505092915050565b600082611ba557506000611c06565b5081810281838281611bb357fe5b0414611c06576040805162461bcd60e51b815260206004820152600860248201527f6f766572666c6f77000000000000000000000000000000000000000000000000604482015290519081900360640190fd5b92915050565b600081611c60576040805162461bcd60e51b815260206004820152600960248201527f64697662797a65726f0000000000000000000000000000000000000000000000604482015290519081900360640190fd5b818381611c6957fe5b049392505050565b60008787878787878760405160200180888152602001878152602001868152602001858152602001846001600160a01b03166001600160a01b031660601b8152601401838152602001828051906020019060200280838360005b83811015611ce3578181015183820152602001611ccb565b50505050905001975050505050505050604051602081830303815290604052805190602001209050979650505050505050565b600081815b8451811015611db5576000858281518110611d3257fe5b6020026020010151905080831015611d7a5782816040516020018083815260200182815260200192505050604051602081830303815290604052805190602001209250611dac565b808360405160200180838152602001828152602001925050506040516020818303038152906040528051906020012092505b50600101611d1b565b507f0000000000000000000000000000000000000000000000000000000000000000149392505050565b600080611df860646113ad85600563ffffffff611b9616565b604080516323b872dd60e01b81526001600160a01b0387811660048301527f0000000000000000000000000000000000000000000000000000000000000000811660248301526044820184905291519293507f0000000000000000000000000000000000000000000000000000000000000000909116916323b872dd916064808201926020929091908290030181600087803b158015611e9757600080fd5b505af1158015611eab573d6000803e3d6000fd5b505050506040513d6020811015611ec157600080fd5b5051611f14576040805162461bcd60e51b815260206004820152601360248201527f4645455f5452414e534645525f4641494c454400000000000000000000000000604482015290519081900360640190fd5b611f24838263ffffffff6121ae16565b949350505050565b825181908590156120d6576060600080600080611f488a610a04565b9398509196509450925090506000611f6386868686866110ae565b15611ff157611f7d611f758d84611b96565b612710611c0c565b9050886001600160a01b0316846001600160a01b0316866001600160a01b03167fac7a699eb95c3c6d390ec4626de17ef9a67b35891efdb197beba7c7fdd45fac48f858760405180848152602001838152602001828152602001935050505060405180910390a4611fee87826121ae565b96505b80156120cf57604080516323b872dd60e01b81526001600160a01b038f811660048301528781166024830152604482018490529151918a16916323b872dd916064808201926020929091908290030181600087803b15801561205257600080fd5b505af1158015612066573d6000803e3d6000fd5b505050506040513d602081101561207c57600080fd5b50516120cf576040805162461bcd60e51b815260206004820152601960248201527f636f6d6d6973696f6e207472616e73666572206661696c656400000000000000604482015290519081900360640190fd5b5050505050505b604080516323b872dd60e01b81526001600160a01b0389811660048301528681166024830152604482018490529151918416916323b872dd916064808201926020929091908290030181600087803b15801561213157600080fd5b505af1158015612145573d6000803e3d6000fd5b505050506040513d602081101561215b57600080fd5b5051611ac0576040805162461bcd60e51b815260206004820152601760248201527f7061796d656e74207472616e73666572206661696c6564000000000000000000604482015290519081900360640190fd5b600082821115612205576040805162461bcd60e51b815260206004820152600860248201527f756e6465666c6f77000000000000000000000000000000000000000000000000604482015290519081900360640190fd5b5090039056fe6f6e6c792061646d696e2063616e207365747570206d6574615472616e73616374696f6e50726f636573736f7273a26469706673582212200476fc10453ab1d9af51f41e58c0f743abb3cb172451dee10718f61280f45e4964736f6c63430006050033",
  "devdoc": {
    "methods": {
      "buyLandWithSand(address,address,address,uint256,uint256,uint256,uint256,uint256,bytes32,uint256[],bytes32[],bytes)": {
        "params": {
          "buyer": "address that perform the payment",
          "priceInSand": "price in SAND to purchase that Land",
          "proof": "merkleProof for that particular Land",
          "reserved": "the reserved address (if any)",
          "size": "size of the pack of Land to purchase",
          "to": "address that will own the purchased Land",
          "x": "x coordinate of the Land",
          "y": "y coordinate of the Land"
        }
      },
      "changeAdmin(address)": {
        "details": "change the administrator to be `newAdmin`.",
        "params": {
          "newAdmin": "address of the new administrator."
        }
      },
      "getAdmin()": {
        "details": "gives the current administrator of this contract.",
        "returns": {
          "_0": "the current administrator of this contract."
        }
      },
      "getSigningWallet()": {
        "details": "signing wallet authorized for referral",
        "returns": {
          "_0": "the address of the signing wallet"
        }
      },
      "isMetaTransactionProcessor(address)": {
        "details": "check whether address `who` is given meta-transaction execution rights.",
        "params": {
          "who": "The address to query."
        },
        "returns": {
          "_0": "whether the address has meta-transaction execution rights."
        }
      },
      "isReferralValid(bytes,address,address,uint256,uint256)": {
        "params": {
          "commissionRate": "The commissionRate of the referral",
          "expiryTime": "The expiry time of the referral",
          "referee": "The address of the referee",
          "referrer": "The address of the referrer",
          "signature": "The signature to check (signed referral)"
        },
        "returns": {
          "_0": "True if the referral is valid"
        }
      },
      "setMetaTransactionProcessor(address,bool)": {
        "details": "Enable or disable the ability of `metaTransactionProcessor` to perform meta-tx (metaTransactionProcessor rights).",
        "params": {
          "enabled": "set whether the metaTransactionProcessor is enabled or disabled.",
          "metaTransactionProcessor": "address that will be given/removed metaTransactionProcessor rights."
        }
      },
      "setReceivingWallet(address)": {
        "params": {
          "newWallet": "address of the new receiving wallet"
        }
      },
      "updateMaxCommissionRate(uint256)": {
        "details": "Update the maximum commission rate",
        "params": {
          "newMaxCommissionRate": "The new maximum commission rate"
        }
      },
      "updateSigningWallet(address)": {
        "details": "Update the signing wallet",
        "params": {
          "newSigningWallet": "The new address of the signing wallet"
        }
      },
      "withdrawAssets(address,uint256[],uint256[])": {
        "params": {
          "assetIds": "the assetIds to be transferred",
          "to": "intended recipient of the asset tokens",
          "values": "the quantities of the assetIds to be transferred"
        }
      }
    },
    "title": "Estate Sale contract with referral"
  },
  "userdoc": {
    "methods": {
      "buyLandWithSand(address,address,address,uint256,uint256,uint256,uint256,uint256,bytes32,uint256[],bytes32[],bytes)": {
        "notice": "buy Land with SAND using the merkle proof associated with it"
      },
      "getExpiryTime()": {
        "notice": "Gets the expiry time for the current sale"
      },
      "getMaxCommisionRate()": {
        "notice": "the max commision rate"
      },
      "getMerkleRoot()": {
        "notice": "Gets the Merkle root associated with the current sale"
      },
      "isReferralValid(bytes,address,address,uint256,uint256)": {
        "notice": "Check if a referral is valid"
      },
      "setReceivingWallet(address)": {
        "notice": "set the wallet receiving the proceeds"
      },
      "withdrawAssets(address,uint256[],uint256[])": {
        "notice": "enable Admin to withdraw remaining assets from EstateSaleWithFee contract"
      }
    },
    "notice": "This contract manages the sale of our lands as Estates"
  },
  "storageLayout": {
    "storage": [
      {
        "astId": 12233,
        "contract": "src/EstateSale/EstateSaleWithFee.sol:EstateSaleWithFee",
        "label": "_admin",
        "offset": 0,
        "slot": "0",
        "type": "t_address"
      },
      {
        "astId": 12295,
        "contract": "src/EstateSale/EstateSaleWithFee.sol:EstateSaleWithFee",
        "label": "_metaTransactionContracts",
        "offset": 0,
        "slot": "1",
        "type": "t_mapping(t_address,t_bool)"
      },
      {
        "astId": 10323,
        "contract": "src/EstateSale/EstateSaleWithFee.sol:EstateSaleWithFee",
        "label": "_signingWallet",
        "offset": 0,
        "slot": "2",
        "type": "t_address"
      },
      {
        "astId": 10325,
        "contract": "src/EstateSale/EstateSaleWithFee.sol:EstateSaleWithFee",
        "label": "_maxCommissionRate",
        "offset": 0,
        "slot": "3",
        "type": "t_uint256"
      },
      {
        "astId": 10329,
        "contract": "src/EstateSale/EstateSaleWithFee.sol:EstateSaleWithFee",
        "label": "_previousSigningWallets",
        "offset": 0,
        "slot": "4",
        "type": "t_mapping(t_address,t_uint256)"
      },
      {
        "astId": 10338,
        "contract": "src/EstateSale/EstateSaleWithFee.sol:EstateSaleWithFee",
        "label": "_previousSigningDelay",
        "offset": 0,
        "slot": "5",
        "type": "t_uint256"
      },
      {
        "astId": 9053,
        "contract": "src/EstateSale/EstateSaleWithFee.sol:EstateSaleWithFee",
        "label": "_wallet",
        "offset": 0,
        "slot": "6",
        "type": "t_address_payable"
      },
      {
        "astId": 9063,
        "contract": "src/EstateSale/EstateSaleWithFee.sol:EstateSaleWithFee",
        "label": "_multiplier",
        "offset": 0,
        "slot": "7",
        "type": "t_uint256"
      }
    ],
    "types": {
      "t_address": {
        "encoding": "inplace",
        "label": "address",
        "numberOfBytes": "20"
      },
      "t_address_payable": {
        "encoding": "inplace",
        "label": "address payable",
        "numberOfBytes": "20"
      },
      "t_bool": {
        "encoding": "inplace",
        "label": "bool",
        "numberOfBytes": "1"
      },
      "t_mapping(t_address,t_bool)": {
        "encoding": "mapping",
        "key": "t_address",
        "label": "mapping(address => bool)",
        "numberOfBytes": "32",
        "value": "t_bool"
      },
      "t_mapping(t_address,t_uint256)": {
        "encoding": "mapping",
        "key": "t_address",
        "label": "mapping(address => uint256)",
        "numberOfBytes": "32",
        "value": "t_uint256"
      },
      "t_uint256": {
        "encoding": "inplace",
        "label": "uint256",
        "numberOfBytes": "32"
      }
    }
  },
  "gasEstimates": {
    "creation": {
      "codeDepositCost": "1763000",
      "executionCost": "infinite",
      "totalCost": "infinite"
    },
    "external": {
      "buyLandWithSand(address,address,address,uint256,uint256,uint256,uint256,uint256,bytes32,uint256[],bytes32[],bytes)": "infinite",
      "changeAdmin(address)": "24157",
      "decodeReferral(bytes)": "infinite",
      "getAdmin()": "1083",
      "getExpiryTime()": "infinite",
      "getMaxCommisionRate()": "1066",
      "getMerkleRoot()": "infinite",
      "getSandMultiplier()": "1086",
      "getSigningWallet()": "1126",
      "isMetaTransactionProcessor(address)": "1199",
      "isReferralValid(bytes,address,address,uint256,uint256)": "infinite",
      "onERC1155BatchReceived(address,address,uint256[],uint256[],bytes)": "875",
      "onERC1155Received(address,address,uint256,uint256,bytes)": "588",
      "rebalanceSand(uint256)": "21073",
      "setMetaTransactionProcessor(address,bool)": "infinite",
      "setReceivingWallet(address)": "22004",
      "updateMaxCommissionRate(uint256)": "21096",
      "updateSigningWallet(address)": "43670",
      "withdrawAssets(address,uint256[],uint256[])": "infinite"
    },
    "internal": {
      "_checkPrices(uint256,uint256)": "infinite",
      "_checkValidity(address,address,uint256,uint256,uint256,uint256,bytes32,uint256[] memory,bytes32[] memory)": "infinite",
      "_generateLandHash(uint256,uint256,uint256,uint256,address,bytes32,uint256[] memory)": "infinite",
      "_handleFeeAndReferral(address,uint256,bytes memory)": "infinite",
      "_handleSandFee(address,uint256)": "infinite",
      "_mint(address,address,uint256,uint256,uint256,uint256,address,uint256)": "infinite",
      "_sendAssets(address,uint256[] memory)": "infinite",
      "_verify(bytes32[] memory,bytes32)": "infinite"
    }
  }
}