{
  "abi": [
    {
      "inputs": [
        {
          "internalType": "address",
          "name": "landAddress",
          "type": "address"
        },
        {
          "internalType": "address",
          "name": "sandContractAddress",
          "type": "address"
        },
        {
          "internalType": "address",
          "name": "initialMetaTx",
          "type": "address"
        },
        {
          "internalType": "address",
          "name": "admin",
          "type": "address"
        },
        {
          "internalType": "address payable",
          "name": "initialWalletAddress",
          "type": "address"
        },
        {
          "internalType": "bytes32",
          "name": "merkleRoot",
          "type": "bytes32"
        },
        {
          "internalType": "uint256",
          "name": "expiryTime",
          "type": "uint256"
        },
        {
          "internalType": "address",
          "name": "medianizerContractAddress",
          "type": "address"
        },
        {
          "internalType": "address",
          "name": "daiTokenContractAddress",
          "type": "address"
        },
        {
          "internalType": "address",
          "name": "initialSigningWallet",
          "type": "address"
        },
        {
          "internalType": "uint256",
          "name": "initialMaxCommissionRate",
          "type": "uint256"
        },
        {
          "internalType": "address",
          "name": "estate",
          "type": "address"
        },
        {
          "internalType": "address",
          "name": "asset",
          "type": "address"
        }
      ],
      "stateMutability": "nonpayable",
      "type": "constructor"
    },
    {
      "anonymous": false,
      "inputs": [
        {
          "indexed": false,
          "internalType": "address",
          "name": "oldAdmin",
          "type": "address"
        },
        {
          "indexed": false,
          "internalType": "address",
          "name": "newAdmin",
          "type": "address"
        }
      ],
      "name": "AdminChanged",
      "type": "event"
    },
    {
      "anonymous": false,
      "inputs": [
        {
          "indexed": true,
          "internalType": "address",
          "name": "buyer",
          "type": "address"
        },
        {
          "indexed": true,
          "internalType": "address",
          "name": "to",
          "type": "address"
        },
        {
          "indexed": true,
          "internalType": "uint256",
          "name": "topCornerId",
          "type": "uint256"
        },
        {
          "indexed": false,
          "internalType": "uint256",
          "name": "size",
          "type": "uint256"
        },
        {
          "indexed": false,
          "internalType": "uint256",
          "name": "price",
          "type": "uint256"
        },
        {
          "indexed": false,
          "internalType": "address",
          "name": "token",
          "type": "address"
        },
        {
          "indexed": false,
          "internalType": "uint256",
          "name": "amountPaid",
          "type": "uint256"
        }
      ],
      "name": "LandQuadPurchased",
      "type": "event"
    },
    {
      "anonymous": false,
      "inputs": [
        {
          "indexed": false,
          "internalType": "address",
          "name": "metaTransactionProcessor",
          "type": "address"
        },
        {
          "indexed": false,
          "internalType": "bool",
          "name": "enabled",
          "type": "bool"
        }
      ],
      "name": "MetaTransactionProcessor",
      "type": "event"
    },
    {
      "anonymous": false,
      "inputs": [
        {
          "indexed": true,
          "internalType": "address",
          "name": "referrer",
          "type": "address"
        },
        {
          "indexed": true,
          "internalType": "address",
          "name": "referee",
          "type": "address"
        },
        {
          "indexed": true,
          "internalType": "address",
          "name": "token",
          "type": "address"
        },
        {
          "indexed": false,
          "internalType": "uint256",
          "name": "amount",
          "type": "uint256"
        },
        {
          "indexed": false,
          "internalType": "uint256",
          "name": "commission",
          "type": "uint256"
        },
        {
          "indexed": false,
          "internalType": "uint256",
          "name": "commissionRate",
          "type": "uint256"
        }
      ],
      "name": "ReferralUsed",
      "type": "event"
    },
    {
      "inputs": [
        {
          "internalType": "address",
          "name": "buyer",
          "type": "address"
        },
        {
          "internalType": "address",
          "name": "to",
          "type": "address"
        },
        {
          "internalType": "address",
          "name": "reserved",
          "type": "address"
        },
        {
          "internalType": "uint256",
          "name": "x",
          "type": "uint256"
        },
        {
          "internalType": "uint256",
          "name": "y",
          "type": "uint256"
        },
        {
          "internalType": "uint256",
          "name": "size",
          "type": "uint256"
        },
        {
          "internalType": "uint256",
          "name": "priceInSand",
          "type": "uint256"
        },
        {
          "internalType": "bytes32",
          "name": "salt",
          "type": "bytes32"
        },
        {
          "internalType": "uint256[]",
          "name": "assetIds",
          "type": "uint256[]"
        },
        {
          "internalType": "bytes32[]",
          "name": "proof",
          "type": "bytes32[]"
        },
        {
          "internalType": "bytes",
          "name": "referral",
          "type": "bytes"
        }
      ],
      "name": "buyLandWithDAI",
      "outputs": [],
      "stateMutability": "nonpayable",
      "type": "function"
    },
    {
      "inputs": [
        {
          "internalType": "address",
          "name": "buyer",
          "type": "address"
        },
        {
          "internalType": "address",
          "name": "to",
          "type": "address"
        },
        {
          "internalType": "address",
          "name": "reserved",
          "type": "address"
        },
        {
          "internalType": "uint256",
          "name": "x",
          "type": "uint256"
        },
        {
          "internalType": "uint256",
          "name": "y",
          "type": "uint256"
        },
        {
          "internalType": "uint256",
          "name": "size",
          "type": "uint256"
        },
        {
          "internalType": "uint256",
          "name": "priceInSand",
          "type": "uint256"
        },
        {
          "internalType": "bytes32",
          "name": "salt",
          "type": "bytes32"
        },
        {
          "internalType": "uint256[]",
          "name": "assetIds",
          "type": "uint256[]"
        },
        {
          "internalType": "bytes32[]",
          "name": "proof",
          "type": "bytes32[]"
        },
        {
          "internalType": "bytes",
          "name": "referral",
          "type": "bytes"
        }
      ],
      "name": "buyLandWithETH",
      "outputs": [],
      "stateMutability": "payable",
      "type": "function"
    },
    {
      "inputs": [
        {
          "internalType": "address",
          "name": "buyer",
          "type": "address"
        },
        {
          "internalType": "address",
          "name": "to",
          "type": "address"
        },
        {
          "internalType": "address",
          "name": "reserved",
          "type": "address"
        },
        {
          "internalType": "uint256",
          "name": "x",
          "type": "uint256"
        },
        {
          "internalType": "uint256",
          "name": "y",
          "type": "uint256"
        },
        {
          "internalType": "uint256",
          "name": "size",
          "type": "uint256"
        },
        {
          "internalType": "uint256",
          "name": "priceInSand",
          "type": "uint256"
        },
        {
          "internalType": "bytes32",
          "name": "salt",
          "type": "bytes32"
        },
        {
          "internalType": "uint256[]",
          "name": "assetIds",
          "type": "uint256[]"
        },
        {
          "internalType": "bytes32[]",
          "name": "proof",
          "type": "bytes32[]"
        },
        {
          "internalType": "bytes",
          "name": "referral",
          "type": "bytes"
        }
      ],
      "name": "buyLandWithSand",
      "outputs": [],
      "stateMutability": "nonpayable",
      "type": "function"
    },
    {
      "inputs": [
        {
          "internalType": "address",
          "name": "newAdmin",
          "type": "address"
        }
      ],
      "name": "changeAdmin",
      "outputs": [],
      "stateMutability": "nonpayable",
      "type": "function"
    },
    {
      "inputs": [
        {
          "internalType": "bytes",
          "name": "referral",
          "type": "bytes"
        }
      ],
      "name": "decodeReferral",
      "outputs": [
        {
          "internalType": "bytes",
          "name": "",
          "type": "bytes"
        },
        {
          "internalType": "address",
          "name": "",
          "type": "address"
        },
        {
          "internalType": "address",
          "name": "",
          "type": "address"
        },
        {
          "internalType": "uint256",
          "name": "",
          "type": "uint256"
        },
        {
          "internalType": "uint256",
          "name": "",
          "type": "uint256"
        }
      ],
      "stateMutability": "pure",
      "type": "function"
    },
    {
      "inputs": [],
      "name": "getAdmin",
      "outputs": [
        {
          "internalType": "address",
          "name": "",
          "type": "address"
        }
      ],
      "stateMutability": "view",
      "type": "function"
    },
    {
      "inputs": [
        {
          "internalType": "uint256",
          "name": "sandAmount",
          "type": "uint256"
        }
      ],
      "name": "getEtherAmountWithSAND",
      "outputs": [
        {
          "internalType": "uint256",
          "name": "",
          "type": "uint256"
        }
      ],
      "stateMutability": "view",
      "type": "function"
    },
    {
      "inputs": [],
      "name": "getExpiryTime",
      "outputs": [
        {
          "internalType": "uint256",
          "name": "",
          "type": "uint256"
        }
      ],
      "stateMutability": "view",
      "type": "function"
    },
    {
      "inputs": [],
      "name": "getMaxCommisionRate",
      "outputs": [
        {
          "internalType": "uint256",
          "name": "",
          "type": "uint256"
        }
      ],
      "stateMutability": "view",
      "type": "function"
    },
    {
      "inputs": [],
      "name": "getSigningWallet",
      "outputs": [
        {
          "internalType": "address",
          "name": "",
          "type": "address"
        }
      ],
      "stateMutability": "view",
      "type": "function"
    },
    {
      "inputs": [],
      "name": "isDAIEnabled",
      "outputs": [
        {
          "internalType": "bool",
          "name": "",
          "type": "bool"
        }
      ],
      "stateMutability": "view",
      "type": "function"
    },
    {
      "inputs": [],
      "name": "isETHEnabled",
      "outputs": [
        {
          "internalType": "bool",
          "name": "",
          "type": "bool"
        }
      ],
      "stateMutability": "view",
      "type": "function"
    },
    {
      "inputs": [
        {
          "internalType": "address",
          "name": "who",
          "type": "address"
        }
      ],
      "name": "isMetaTransactionProcessor",
      "outputs": [
        {
          "internalType": "bool",
          "name": "",
          "type": "bool"
        }
      ],
      "stateMutability": "view",
      "type": "function"
    },
    {
      "inputs": [
        {
          "internalType": "bytes",
          "name": "signature",
          "type": "bytes"
        },
        {
          "internalType": "address",
          "name": "referrer",
          "type": "address"
        },
        {
          "internalType": "address",
          "name": "referee",
          "type": "address"
        },
        {
          "internalType": "uint256",
          "name": "expiryTime",
          "type": "uint256"
        },
        {
          "internalType": "uint256",
          "name": "commissionRate",
          "type": "uint256"
        }
      ],
      "name": "isReferralValid",
      "outputs": [
        {
          "internalType": "bool",
          "name": "",
          "type": "bool"
        }
      ],
      "stateMutability": "view",
      "type": "function"
    },
    {
      "inputs": [],
      "name": "isSANDEnabled",
      "outputs": [
        {
          "internalType": "bool",
          "name": "",
          "type": "bool"
        }
      ],
      "stateMutability": "view",
      "type": "function"
    },
    {
      "inputs": [],
      "name": "merkleRoot",
      "outputs": [
        {
          "internalType": "bytes32",
          "name": "",
          "type": "bytes32"
        }
      ],
      "stateMutability": "view",
      "type": "function"
    },
    {
      "inputs": [
        {
          "internalType": "address",
          "name": "",
          "type": "address"
        },
        {
          "internalType": "address",
          "name": "",
          "type": "address"
        },
        {
          "internalType": "uint256[]",
          "name": "",
          "type": "uint256[]"
        },
        {
          "internalType": "uint256[]",
          "name": "",
          "type": "uint256[]"
        },
        {
          "internalType": "bytes",
          "name": "",
          "type": "bytes"
        }
      ],
      "name": "onERC1155BatchReceived",
      "outputs": [
        {
          "internalType": "bytes4",
          "name": "",
          "type": "bytes4"
        }
      ],
      "stateMutability": "pure",
      "type": "function"
    },
    {
      "inputs": [
        {
          "internalType": "address",
          "name": "",
          "type": "address"
        },
        {
          "internalType": "address",
          "name": "",
          "type": "address"
        },
        {
          "internalType": "uint256",
          "name": "",
          "type": "uint256"
        },
        {
          "internalType": "uint256",
          "name": "",
          "type": "uint256"
        },
        {
          "internalType": "bytes",
          "name": "",
          "type": "bytes"
        }
      ],
      "name": "onERC1155Received",
      "outputs": [
        {
          "internalType": "bytes4",
          "name": "",
          "type": "bytes4"
        }
      ],
      "stateMutability": "pure",
      "type": "function"
    },
    {
      "inputs": [
        {
          "internalType": "bool",
          "name": "enabled",
          "type": "bool"
        }
      ],
      "name": "setDAIEnabled",
      "outputs": [],
      "stateMutability": "nonpayable",
      "type": "function"
    },
    {
      "inputs": [
        {
          "internalType": "bool",
          "name": "enabled",
          "type": "bool"
        }
      ],
      "name": "setETHEnabled",
      "outputs": [],
      "stateMutability": "nonpayable",
      "type": "function"
    },
    {
      "inputs": [
        {
          "internalType": "address",
          "name": "metaTransactionProcessor",
          "type": "address"
        },
        {
          "internalType": "bool",
          "name": "enabled",
          "type": "bool"
        }
      ],
      "name": "setMetaTransactionProcessor",
      "outputs": [],
      "stateMutability": "nonpayable",
      "type": "function"
    },
    {
      "inputs": [
        {
          "internalType": "address payable",
          "name": "newWallet",
          "type": "address"
        }
      ],
      "name": "setReceivingWallet",
      "outputs": [],
      "stateMutability": "nonpayable",
      "type": "function"
    },
    {
      "inputs": [
        {
          "internalType": "bool",
          "name": "enabled",
          "type": "bool"
        }
      ],
      "name": "setSANDEnabled",
      "outputs": [],
      "stateMutability": "nonpayable",
      "type": "function"
    },
    {
      "inputs": [
        {
          "internalType": "uint256",
          "name": "newMaxCommissionRate",
          "type": "uint256"
        }
      ],
      "name": "updateMaxCommissionRate",
      "outputs": [],
      "stateMutability": "nonpayable",
      "type": "function"
    },
    {
      "inputs": [
        {
          "internalType": "address",
          "name": "newSigningWallet",
          "type": "address"
        }
      ],
      "name": "updateSigningWallet",
      "outputs": [],
      "stateMutability": "nonpayable",
      "type": "function"
    },
    {
      "inputs": [
        {
          "internalType": "address",
          "name": "to",
          "type": "address"
        },
        {
          "internalType": "uint256[]",
          "name": "assetIds",
          "type": "uint256[]"
        },
        {
          "internalType": "uint256[]",
          "name": "values",
          "type": "uint256[]"
        }
      ],
      "name": "withdrawAssets",
      "outputs": [],
      "stateMutability": "nonpayable",
      "type": "function"
    }
  ],
  "address": "0x7C7cD62a9ab6ae50D21b9CAd6DAe15824BF9A86A",
  "args": [
    "0x50f5474724e0Ee42D9a4e711ccFB275809Fd6d4a",
    "0x3845badAde8e6dFF049820680d1F14bD3903a5d0",
    "0x3845badAde8e6dFF049820680d1F14bD3903a5d0",
    "0x18dd4e0eb8699eA4FeE238dE41ECfb95e32272f8",
    "0x9695ed5020BB47880738Db356678fe8cBc8FF60b",
    "0x69bf8d26d497a85d3f7f6359f96f64f1813a62527237d5697a76952599111fb0",
    1630761364,
    "0x729D19f657BD0614b4985Cf1D82531c67569197B",
    "0x6b175474e89094c44da98b954eedeac495271d0f",
    "0x3044719d139F866a44c988823513eCB93060bF1b",
    2000,
    "0x0000000000000000000000000000000000000000",
    "0x067a1Eb5E383eD24b66D72aAf80d8D7dB3d299A8"
  ],
  "linkedData": [
    {
      "x": 60,
      "y": 370,
      "size": 1,
      "price": "0",
      "reserved": "0x9cfa73b8d300ec5bf204e4de4a58e5ee6b7dc93c",
      "assetIds": []
    },
    {
      "x": 60,
      "y": 371,
      "size": 1,
      "price": "0",
      "reserved": "0x9cfa73b8d300ec5bf204e4de4a58e5ee6b7dc93c",
      "assetIds": []
    },
    {
      "x": 61,
      "y": 371,
      "size": 1,
      "price": "0",
      "reserved": "0x9cfa73b8d300ec5bf204e4de4a58e5ee6b7dc93c",
      "assetIds": []
    },
    {
      "x": 61,
      "y": 370,
      "size": 1,
      "price": "0",
      "reserved": "0x9cfa73b8d300ec5bf204e4de4a58e5ee6b7dc93c",
      "assetIds": []
    },
    {
      "x": 370,
      "y": 47,
      "size": 1,
      "price": "0",
      "reserved": "0x9cfa73b8d300ec5bf204e4de4a58e5ee6b7dc93c",
      "assetIds": []
    },
    {
      "x": 371,
      "y": 47,
      "size": 1,
      "price": "0",
      "reserved": "0x9cfa73b8d300ec5bf204e4de4a58e5ee6b7dc93c",
      "assetIds": []
    },
    {
      "x": 371,
      "y": 46,
      "size": 1,
      "price": "0",
      "reserved": "0x9cfa73b8d300ec5bf204e4de4a58e5ee6b7dc93c",
      "assetIds": []
    },
    {
      "x": 312,
      "y": 360,
      "size": 24,
      "price": "0",
      "reserved": "0x9cfa73b8d300ec5bf204e4de4a58e5ee6b7dc93c",
      "assetIds": []
    },
    {
      "x": 288,
      "y": 336,
      "size": 24,
      "price": "0",
      "reserved": "0x9cfa73b8d300ec5bf204e4de4a58e5ee6b7dc93c",
      "assetIds": []
    },
    {
      "x": 312,
      "y": 354,
      "size": 6,
      "price": "0",
      "reserved": "0x9cfa73b8d300ec5bf204e4de4a58e5ee6b7dc93c",
      "assetIds": []
    },
    {
      "x": 312,
      "y": 351,
      "size": 3,
      "price": "0",
      "reserved": "0x9cfa73b8d300ec5bf204e4de4a58e5ee6b7dc93c",
      "assetIds": []
    },
    {
      "x": 384,
      "y": 24,
      "size": 24,
      "price": "0",
      "reserved": "0x9cfa73b8d300ec5bf204e4de4a58e5ee6b7dc93c",
      "assetIds": []
    },
    {
      "x": 48,
      "y": 0,
      "size": 24,
      "price": "0",
      "reserved": "0x9cfa73b8d300ec5bf204e4de4a58e5ee6b7dc93c",
      "assetIds": []
    },
    {
      "x": 24,
      "y": 24,
      "size": 24,
      "price": "0",
      "reserved": "0x9cfa73b8d300ec5bf204e4de4a58e5ee6b7dc93c",
      "assetIds": []
    },
    {
      "x": 24,
      "y": 360,
      "size": 24,
      "price": "0",
      "reserved": "0x9cfa73b8d300ec5bf204e4de4a58e5ee6b7dc93c",
      "assetIds": []
    },
    {
      "x": 48,
      "y": 360,
      "size": 12,
      "price": "0",
      "reserved": "0x9cfa73b8d300ec5bf204e4de4a58e5ee6b7dc93c",
      "assetIds": []
    },
    {
      "x": 36,
      "y": 12,
      "size": 12,
      "price": "0",
      "reserved": "0x9cfa73b8d300ec5bf204e4de4a58e5ee6b7dc93c",
      "assetIds": []
    },
    {
      "x": 372,
      "y": 36,
      "size": 12,
      "price": "0",
      "reserved": "0x9cfa73b8d300ec5bf204e4de4a58e5ee6b7dc93c",
      "assetIds": []
    },
    {
      "x": 18,
      "y": 372,
      "size": 6,
      "price": "0",
      "reserved": "0x9cfa73b8d300ec5bf204e4de4a58e5ee6b7dc93c",
      "assetIds": []
    },
    {
      "x": 54,
      "y": 354,
      "size": 6,
      "price": "0",
      "reserved": "0x9cfa73b8d300ec5bf204e4de4a58e5ee6b7dc93c",
      "assetIds": []
    }
  ],
  "solcInputHash": "0xba0c4de60431a9fee3aba232b1b443b672e7beb6cc4eced285e391d2813f723c",
  "bytecode": "0x610180604052620d2f006005556006805460ff60b01b1961ffff60a01b19909116600160a81b171690553480156200003657600080fd5b506040516200306b3803806200306b83398181016040526101a08110156200005d57600080fd5b50805160208201516040830151606080850151608086015160a08088015160c0808a015160e08b01516101008c01516101208d01516101408e01516101608f0151610180909f0151600280546001600160a01b0319166001600160a01b03851617905560038290558e8c1b6001600160601b03199081169099529a8d901b9097169094529a9b999a9899969895979396919590949093909190620001038b600162000179565b600680546001600160a01b039a8b166001600160a01b03199182161790915561016098909852610140969096526001600160601b0319606095861b811660e05293851b8416610100526000805499909816989096169790971790955592811b8316610120521b1660805250620001dd9350505050565b6001600160a01b038216600081815260016020908152604091829020805460ff191685151590811790915582519384529083015280517fb21eb88b4e33b3f1281830a7178d74d8aa73220416215726b68ae23d539515cb9281900390910190a15050565b60805160601c60a05160601c60c05160601c60e05160601c6101005160601c6101205160601c6101405161016051612df662000275600039806113c65280612c595250806113a252806118d75280611e0e525080612129528061224b52508061134a528061137b52508061293a52508061113552806111665250806121b8528061221c52508061194b528061245f5250612df66000f3fe6080604052600436106101a15760003560e01c80637c53ec4c116100e1578063bc197c811161008a578063dc5074af11610064578063dc5074af14610c90578063e56f8a9e14610cc3578063e97eb0a214610ced578063f23a6e6114610d19576101a1565b8063bc197c8114610a3c578063c10a420814610bab578063caed350014610c7b576101a1565b8063984d6252116100bb578063984d625214610915578063a7e30684146109f4578063b522ecff14610a09576101a1565b80637c53ec4c1461087b5780638a04af6a146108a75780638f283970146108e2576101a1565b8063427b8d341161014e5780635d8e3021116101285780635d8e3021146106a057806365194ce7146106ca5780636e9960c31461083557806377f1c3ac14610866576101a1565b8063427b8d341461062f5780634a2537781461065857806358bc29441461066d576101a1565b806325cb5bc01161017f57806325cb5bc0146105c75780632eb4a7ab146105ee5780633b7c4c1514610603576101a1565b8063096bb3c6146101a65780630a474add146102ff57806318dff51014610463575b600080fd5b6102fd60048036036101608110156101bd57600080fd5b6001600160a01b038235811692602081013582169260408201359092169160608201359160808101359160a08201359160c08101359160e08201359190810190610120810161010082013564010000000081111561021a57600080fd5b82018360208201111561022c57600080fd5b8035906020019184602083028401116401000000008311171561024e57600080fd5b91939092909160208101903564010000000081111561026c57600080fd5b82018360208201111561027e57600080fd5b803590602001918460208302840111640100000000831117156102a057600080fd5b9193909290916020810190356401000000008111156102be57600080fd5b8201836020820111156102d057600080fd5b803590602001918460018302840111640100000000831117156102f257600080fd5b509092509050610dbb565b005b34801561030b57600080fd5b506102fd600480360361016081101561032357600080fd5b6001600160a01b038235811692602081013582169260408201359092169160608201359160808101359160a08201359160c08101359160e08201359190810190610120810161010082013564010000000081111561038057600080fd5b82018360208201111561039257600080fd5b803590602001918460208302840111640100000000831117156103b457600080fd5b9193909290916020810190356401000000008111156103d257600080fd5b8201836020820111156103e457600080fd5b8035906020019184602083028401116401000000008311171561040657600080fd5b91939092909160208101903564010000000081111561042457600080fd5b82018360208201111561043657600080fd5b8035906020019184600183028401116401000000008311171561045857600080fd5b509092509050610ff8565b34801561046f57600080fd5b506102fd600480360361016081101561048757600080fd5b6001600160a01b038235811692602081013582169260408201359092169160608201359160808101359160a08201359160c08101359160e0820135919081019061012081016101008201356401000000008111156104e457600080fd5b8201836020820111156104f657600080fd5b8035906020019184602083028401116401000000008311171561051857600080fd5b91939092909160208101903564010000000081111561053657600080fd5b82018360208201111561054857600080fd5b8035906020019184602083028401116401000000008311171561056a57600080fd5b91939092909160208101903564010000000081111561058857600080fd5b82018360208201111561059a57600080fd5b803590602001918460018302840111640100000000831117156105bc57600080fd5b5090925090506111d8565b3480156105d357600080fd5b506105dc6113a0565b60408051918252519081900360200190f35b3480156105fa57600080fd5b506105dc6113c4565b34801561060f57600080fd5b506102fd6004803603602081101561062657600080fd5b503515156113e8565b34801561063b57600080fd5b5061064461147d565b604080519115158252519081900360200190f35b34801561066457600080fd5b506106446114a0565b34801561067957600080fd5b506102fd6004803603602081101561069057600080fd5b50356001600160a01b03166114c2565b3480156106ac57600080fd5b506105dc600480360360208110156106c357600080fd5b503561156d565b3480156106d657600080fd5b5061077d600480360360208110156106ed57600080fd5b81019060208101813564010000000081111561070857600080fd5b82018360208201111561071a57600080fd5b8035906020019184600183028401116401000000008311171561073c57600080fd5b91908080601f01602080910402602001604051908101604052809392919081815260200183838082843760009201919091525092955061159c945050505050565b6040518080602001866001600160a01b03166001600160a01b03168152602001856001600160a01b03166001600160a01b03168152602001848152602001838152602001828103825287818151815260200191508051906020019080838360005b838110156107f65781810151838201526020016107de565b50505050905090810190601f1680156108235780820380516001836020036101000a031916815260200191505b50965050505050505060405180910390f35b34801561084157600080fd5b5061084a6116a1565b604080516001600160a01b039092168252519081900360200190f35b34801561087257600080fd5b506105dc6116b0565b34801561088757600080fd5b506102fd6004803603602081101561089e57600080fd5b503515156116b6565b3480156108b357600080fd5b506102fd600480360360408110156108ca57600080fd5b506001600160a01b0381351690602001351515611749565b3480156108ee57600080fd5b506102fd6004803603602081101561090557600080fd5b50356001600160a01b03166117a0565b34801561092157600080fd5b506102fd6004803603606081101561093857600080fd5b6001600160a01b03823516919081019060408101602082013564010000000081111561096357600080fd5b82018360208201111561097557600080fd5b8035906020019184602083028401116401000000008311171561099757600080fd5b9193909290916020810190356401000000008111156109b557600080fd5b8201836020820111156109c757600080fd5b803590602001918460208302840111640100000000831117156109e957600080fd5b509092509050611876565b348015610a0057600080fd5b50610644611a75565b348015610a1557600080fd5b506102fd60048036036020811015610a2c57600080fd5b50356001600160a01b0316611a96565b348015610a4857600080fd5b50610b76600480360360a0811015610a5f57600080fd5b6001600160a01b038235811692602081013590911691810190606081016040820135640100000000811115610a9357600080fd5b820183602082011115610aa557600080fd5b80359060200191846020830284011164010000000083111715610ac757600080fd5b919390929091602081019035640100000000811115610ae557600080fd5b820183602082011115610af757600080fd5b80359060200191846020830284011164010000000083111715610b1957600080fd5b919390929091602081019035640100000000811115610b3757600080fd5b820183602082011115610b4957600080fd5b80359060200191846001830284011164010000000083111715610b6b57600080fd5b509092509050611b53565b604080517fffffffff000000000000000000000000000000000000000000000000000000009092168252519081900360200190f35b348015610bb757600080fd5b50610644600480360360a0811015610bce57600080fd5b810190602081018135640100000000811115610be957600080fd5b820183602082011115610bfb57600080fd5b80359060200191846001830284011164010000000083111715610c1d57600080fd5b91908080601f016020809104026020016040519081016040528093929190818152602001838380828437600092019190915250929550506001600160a01b038335811694506020840135169260408101359250606001359050611b80565b348015610c8757600080fd5b5061084a611cbc565b348015610c9c57600080fd5b5061064460048036036020811015610cb357600080fd5b50356001600160a01b0316611ccb565b348015610ccf57600080fd5b506102fd60048036036020811015610ce657600080fd5b5035611ce9565b348015610cf957600080fd5b506102fd60048036036020811015610d1057600080fd5b50351515611d4d565b348015610d2557600080fd5b50610b76600480360360a0811015610d3c57600080fd5b6001600160a01b03823581169260208101359091169160408201359160608101359181019060a081016080820135640100000000811115610d7c57600080fd5b820183602082011115610d8e57600080fd5b80359060200191846001830284011164010000000083111715610db057600080fd5b509092509050611de1565b6006547501000000000000000000000000000000000000000000900460ff16610e2b576040805162461bcd60e51b815260206004820152601a60248201527f6574686572207061796d656e7473206e6f7420656e61626c6564000000000000604482015290519081900360640190fd5b610eb08e8d8d8d8d8d8d8d8d80806020026020016040519081016040528093929190818152602001838360200280828437600081840152601f19601f820116905080830192505050505050508c8c80806020026020016040519081016040528093929190818152602001838360200280828437600092019190915250611e0c92505050565b6000610ebb8961156d565b905080341015610f12576040805162461bcd60e51b815260206004820152601560248201527f6e6f7420656e6f7567682065746865722073656e740000000000000000000000604482015290519081900360640190fd5b3481900315610f4c5760405133903483900380156108fc02916000818181858888f19350505050158015610f4a573d6000803e3d6000fd5b505b610f998184848080601f016020809104026020016040519081016040528093929190818152602001838380828437600092019190915250506006546001600160a01b03169150611fe99050565b610faa8f8f8e8e8e8e60008861211d565b610fe78e8888808060200260200160405190810160405280939291908181526020018383602002808284376000920191909152506123e892505050565b505050505050505050505050505050565b60065474010000000000000000000000000000000000000000900460ff16611067576040805162461bcd60e51b815260206004820152601960248201527f73616e64207061796d656e7473206e6f7420656e61626c656400000000000000604482015290519081900360640190fd5b6110ec8e8d8d8d8d8d8d8d8d80806020026020016040519081016040528093929190818152602001838360200280828437600081840152601f19601f820116905080830192505050505050508c8c80806020026020016040519081016040528093929190818152602001838360200280828437600092019190915250611e0c92505050565b61115b8e8984848080601f016020809104026020016040519081016040528093929190818152602001838380828437600092019190915250506006546001600160a01b031691507f000000000000000000000000000000000000000000000000000000000000000090506125ac565b61118b8e8e8d8d8d8d7f00000000000000000000000000000000000000000000000000000000000000008f61211d565b6111c88d8787808060200260200160405190810160405280939291908181526020018383602002808284376000920191909152506123e892505050565b5050505050505050505050505050565b600654760100000000000000000000000000000000000000000000900460ff16611249576040805162461bcd60e51b815260206004820152601860248201527f646169207061796d656e7473206e6f7420656e61626c65640000000000000000604482015290519081900360640190fd5b6112ce8e8d8d8d8d8d8d8d8d80806020026020016040519081016040528093929190818152602001838360200280828437600081840152601f19601f820116905080830192505050505050508c8c80806020026020016040519081016040528093929190818152602001838360200280828437600092019190915250611e0c92505050565b60006112ff670de0b6b3a76400006112f38b663328b944c4000063ffffffff61285816565b9063ffffffff6128ce16565b90506113708f8285858080601f016020809104026020016040519081016040528093929190818152602001838380828437600092019190915250506006546001600160a01b031691507f000000000000000000000000000000000000000000000000000000000000000090506125ac565b610faa8f8f8e8e8e8e7f00000000000000000000000000000000000000000000000000000000000000008861211d565b7f000000000000000000000000000000000000000000000000000000000000000090565b7f000000000000000000000000000000000000000000000000000000000000000090565b6000546001600160a01b031633146114315760405162461bcd60e51b8152600401808060200182810382526021815260200180612da06021913960400191505060405180910390fd5b60068054911515760100000000000000000000000000000000000000000000027fffffffffffffffffff00ffffffffffffffffffffffffffffffffffffffffffff909216919091179055565b600654760100000000000000000000000000000000000000000000900460ff1690565b6006547501000000000000000000000000000000000000000000900460ff1690565b6000546001600160a01b03163314611521576040805162461bcd60e51b815260206004820152601060248201527f53656e646572206e6f742061646d696e00000000000000000000000000000000604482015290519081900360640190fd5b600554600280546001600160a01b03908116600090815260046020526040902042909301909255805473ffffffffffffffffffffffffffffffffffffffff191692909116919091179055565b600080611578612935565b9050611595816112f385663328b944c4000063ffffffff61285816565b9392505050565b606060008060008060606000806000808a80602001905160a08110156115c157600080fd5b81019080805160405193929190846401000000008211156115e157600080fd5b9083019060208201858111156115f657600080fd5b825164010000000081118282018810171561161057600080fd5b82525081516020918201929091019080838360005b8381101561163d578181015183820152602001611625565b50505050905090810190601f16801561166a5780820380516001836020036101000a031916815260200191505b5060409081526020820151908201516060830151608090930151959f50909d509b5099509197505050505050505091939590929450565b6000546001600160a01b031690565b60035490565b6000546001600160a01b031633146116ff5760405162461bcd60e51b8152600401808060200182810382526022815260200180612d506022913960400191505060405180910390fd5b6006805491151574010000000000000000000000000000000000000000027fffffffffffffffffffffff00ffffffffffffffffffffffffffffffffffffffff909216919091179055565b6000546001600160a01b031633146117925760405162461bcd60e51b815260040180806020018281038252602e815260200180612d72602e913960400191505060405180910390fd5b61179c82826129c3565b5050565b6000546001600160a01b031633146117ff576040805162461bcd60e51b815260206004820152601b60248201527f6f6e6c792061646d696e2063616e206368616e67652061646d696e0000000000604482015290519081900360640190fd5b600054604080516001600160a01b039283168152918316602083015280517f7e644d79422f17c01e4894b5f4f588d331ebfa28653d42ae832dc59e38c9798f9281900390910190a16000805473ffffffffffffffffffffffffffffffffffffffff19166001600160a01b0392909216919091179055565b6000546001600160a01b031633146118d5576040805162461bcd60e51b815260206004820152600e60248201527f4e4f545f415554484f52495a4544000000000000000000000000000000000000604482015290519081900360640190fd5b7f00000000000000000000000000000000000000000000000000000000000000004211611949576040805162461bcd60e51b815260206004820152600d60248201527f53414c455f4e4f545f4f56455200000000000000000000000000000000000000604482015290519081900360640190fd5b7f00000000000000000000000000000000000000000000000000000000000000006001600160a01b0316632eb2c2d63087878787876040518763ffffffff1660e01b815260040180876001600160a01b03166001600160a01b03168152602001866001600160a01b03166001600160a01b031681526020018060200180602001806020018481038452888882818152602001925060200280828437600083820152601f01601f19169091018581038452868152602090810191508790870280828437600081840152601f19601f8201169050808301925050508481038252600081526020016020019950505050505050505050600060405180830381600087803b158015611a5657600080fd5b505af1158015611a6a573d6000803e3d6000fd5b505050505050505050565b60065474010000000000000000000000000000000000000000900460ff1690565b6001600160a01b038116611adb5760405162461bcd60e51b8152600401808060200182810382526027815260200180612cff6027913960400191505060405180910390fd5b6000546001600160a01b03163314611b245760405162461bcd60e51b815260040180806020018281038252602a815260200180612d26602a913960400191505060405180910390fd5b6006805473ffffffffffffffffffffffffffffffffffffffff19166001600160a01b0392909216919091179055565b7fbc197c810000000000000000000000000000000000000000000000000000000098975050505050505050565b6000600354821180611ba35750836001600160a01b0316856001600160a01b0316145b80611bad57508242115b15611bba57506000611cb3565b60408051606087811b7fffffffffffffffffffffffffffffffffffffffff0000000000000000000000009081166020808501919091529188901b166034830152604882018690526068808301869052835180840390910181526088830184528051908201207f19457468657265756d205369676e6564204d6573736167653a0a33320000000060a884015260c48084018290528451808503909101815260e49093019093528151910120600090611c719089612a45565b6001600160a01b0381166000908152600460205260409020549091504211611c9e57600192505050611cb3565b6002546001600160a01b039081169116149150505b95945050505050565b6002546001600160a01b031690565b6001600160a01b031660009081526001602052604090205460ff1690565b6000546001600160a01b03163314611d48576040805162461bcd60e51b815260206004820152601060248201527f53656e646572206e6f742061646d696e00000000000000000000000000000000604482015290519081900360640190fd5b600355565b6000546001600160a01b03163314611d965760405162461bcd60e51b8152600401808060200182810382526021815260200180612cde6021913960400191505060405180910390fd5b600680549115157501000000000000000000000000000000000000000000027fffffffffffffffffffff00ffffffffffffffffffffffffffffffffffffffffff909216919091179055565b7ff23a6e61000000000000000000000000000000000000000000000000000000009695505050505050565b7f00000000000000000000000000000000000000000000000000000000000000004210611e80576040805162461bcd60e51b815260206004820152600c60248201527f73616c65206973206f7665720000000000000000000000000000000000000000604482015290519081900360640190fd5b6001600160a01b038916331480611ea657503360009081526001602052604090205460ff165b611ef7576040805162461bcd60e51b815260206004820152600e60248201527f6e6f7420617574686f72697a6564000000000000000000000000000000000000604482015290519081900360640190fd5b6001600160a01b0388161580611f1e5750886001600160a01b0316886001600160a01b0316145b611f6f576040805162461bcd60e51b815260206004820152601860248201527f63616e6e6f7420627579207265736572766564204c616e640000000000000000604482015290519081900360640190fd5b6000611f80888888888d8989612b12565b9050611f8c8282612bb7565b611fdd576040805162461bcd60e51b815260206004820152601560248201527f496e76616c6964206c616e642070726f76696465640000000000000000000000604482015290519081900360640190fd5b50505050505050505050565b81518390156120e05760606000806000806120038861159c565b939850919650945092509050600061201e8686868686611b80565b1561209b576120386120308b84612858565b6127106128ce565b604080518c81526020810183905280820185905290519192506000916001600160a01b0387811692908916917fac7a699eb95c3c6d390ec4626de17ef9a67b35891efdb197beba7c7fdd45fac49181900360600190a46120988782612c80565b96505b80156120d9576040516001600160a01b0386169082156108fc029083906000818181858888f193505050501580156120d7573d6000803e3d6000fd5b505b5050505050505b6040516001600160a01b0383169082156108fc029083906000818181858888f19350505050158015612116573d6000803e3d6000fd5b5050505050565b836001148061215357507f00000000000000000000000000000000000000000000000000000000000000006001600160a01b0316155b1561221a57604080517f6e1e3bbf0000000000000000000000000000000000000000000000000000000081526001600160a01b03898116600483015260248201879052604482018990526064820188905260a06084830152600060a4830181905292517f000000000000000000000000000000000000000000000000000000000000000090911692636e1e3bbf9260e4808201939182900301818387803b1580156121fd57600080fd5b505af1158015612211573d6000803e3d6000fd5b5050505061237e565b7f00000000000000000000000000000000000000000000000000000000000000006001600160a01b0316636e1e3bbf7f00000000000000000000000000000000000000000000000000000000000000008689898c60405160200180826001600160a01b03166001600160a01b031681526020019150506040516020818303038152906040526040518663ffffffff1660e01b815260040180866001600160a01b03166001600160a01b0316815260200185815260200184815260200183815260200180602001828103825283818151815260200191508051906020019080838360005b838110156123155781810151838201526020016122fd565b50505050905090810190601f1680156123425780820380516001836020036101000a031916815260200191505b509650505050505050600060405180830381600087803b15801561236557600080fd5b505af1158015612379573d6000803e3d6000fd5b505050505b60408051858152602081018590526001600160a01b03848116828401526060820184905291516101988802890192808b1692908c16917fe4dfa6ac11314892f3029b34a25b1a887da3b1cab2bbf8506d87128ba6e3ac029181900360800190a45050505050505050565b6060815167ffffffffffffffff8111801561240257600080fd5b5060405190808252806020026020018201604052801561242c578160200160208202803683370190505b50905060005b825181101561245c57600182828151811061244957fe5b6020908102919091010152600101612432565b507f00000000000000000000000000000000000000000000000000000000000000006001600160a01b0316632eb2c2d6308585856040518563ffffffff1660e01b815260040180856001600160a01b03166001600160a01b03168152602001846001600160a01b03166001600160a01b03168152602001806020018060200180602001848103845286818151815260200191508051906020019060200280838360005b838110156125175781810151838201526020016124ff565b50505050905001848103835285818151815260200191508051906020019060200280838360005b8381101561255657818101518382015260200161253e565b50505050905001848103825260008152602001602001975050505050505050600060405180830381600087803b15801561258f57600080fd5b505af11580156125a3573d6000803e3d6000fd5b50505050505050565b825181908590156127675760606000806000806125c88a61159c565b93985091965094509250905060006125e38686868686611b80565b15612669576125f56120308d84612858565b9050886001600160a01b0316846001600160a01b0316866001600160a01b03167fac7a699eb95c3c6d390ec4626de17ef9a67b35891efdb197beba7c7fdd45fac48f858760405180848152602001838152602001828152602001935050505060405180910390a46126668782612c80565b96505b801561276057604080517f23b872dd0000000000000000000000000000000000000000000000000000000081526001600160a01b038f811660048301528781166024830152604482018490529151918a16916323b872dd916064808201926020929091908290030181600087803b1580156126e357600080fd5b505af11580156126f7573d6000803e3d6000fd5b505050506040513d602081101561270d57600080fd5b5051612760576040805162461bcd60e51b815260206004820152601960248201527f636f6d6d6973696f6e207472616e73666572206661696c656400000000000000604482015290519081900360640190fd5b5050505050505b604080517f23b872dd0000000000000000000000000000000000000000000000000000000081526001600160a01b0389811660048301528681166024830152604482018490529151918416916323b872dd916064808201926020929091908290030181600087803b1580156127db57600080fd5b505af11580156127ef573d6000803e3d6000fd5b505050506040513d602081101561280557600080fd5b50516125a3576040805162461bcd60e51b815260206004820152601760248201527f7061796d656e74207472616e73666572206661696c6564000000000000000000604482015290519081900360640190fd5b600082612867575060006128c8565b508181028183828161287557fe5b04146128c8576040805162461bcd60e51b815260206004820152600860248201527f6f766572666c6f77000000000000000000000000000000000000000000000000604482015290519081900360640190fd5b92915050565b6000808211612924576040805162461bcd60e51b815260206004820152600960248201527f64697662797a65726f0000000000000000000000000000000000000000000000604482015290519081900360640190fd5b81838161292d57fe5b049392505050565b6000807f00000000000000000000000000000000000000000000000000000000000000006001600160a01b03166357de26a46040518163ffffffff1660e01b815260040160206040518083038186803b15801561299157600080fd5b505afa1580156129a5573d6000803e3d6000fd5b505050506040513d60208110156129bb57600080fd5b505191505090565b6001600160a01b03821660008181526001602090815260409182902080547fffffffffffffffffffffffffffffffffffffffffffffffffffffffffffffff001685151590811790915582519384529083015280517fb21eb88b4e33b3f1281830a7178d74d8aa73220416215726b68ae23d539515cb9281900390910190a15050565b60008151604114612a5557600080fd5b60208201516040830151606084015160001a601b811015612a7457601b015b8060ff16601b1480612a8957508060ff16601c145b612a9257600080fd5b6040805160008152602080820180845289905260ff8416828401526060820186905260808201859052915160019260a0808401939192601f1981019281900390910190855afa158015612ae9573d6000803e3d6000fd5b5050604051601f1901519450506001600160a01b038416612b0957600080fd5b50505092915050565b60008787878787878760405160200180888152602001878152602001868152602001858152602001846001600160a01b03166001600160a01b031660601b8152601401838152602001828051906020019060200280838360005b83811015612b84578181015183820152602001612b6c565b50505050905001975050505050505050604051602081830303815290604052805190602001209050979650505050505050565b600081815b8451811015612c56576000858281518110612bd357fe5b6020026020010151905080831015612c1b5782816040516020018083815260200182815260200192505050604051602081830303815290604052805190602001209250612c4d565b808360405160200180838152602001828152602001925050506040516020818303038152906040528051906020012092505b50600101612bbc565b507f0000000000000000000000000000000000000000000000000000000000000000149392505050565b600082821115612cd7576040805162461bcd60e51b815260206004820152600860248201527f756e6465666c6f77000000000000000000000000000000000000000000000000604482015290519081900360640190fd5b5090039056fe6f6e6c792061646d696e2063616e20656e61626c652f64697361626c6520455448726563656976696e672077616c6c65742063616e6e6f74206265207a65726f20616464726573736f6e6c792061646d696e2063616e206368616e67652074686520726563656976696e672077616c6c65746f6e6c792061646d696e2063616e20656e61626c652f64697361626c652053414e446f6e6c792061646d696e2063616e207365747570206d6574615472616e73616374696f6e50726f636573736f72736f6e6c792061646d696e2063616e20656e61626c652f64697361626c6520444149a26469706673582212209aff2e070a610b1742672f1391128a85e94d013edbb08d6065b51a2d99f1d33064736f6c63430006050033"
}