{
  "address": "0xf5B88D0a85cc5D458c3d820BD80fb14Fb243A2f6",
  "abi": [
    {
      "inputs": [
        {
          "internalType": "address",
          "name": "landAddress",
          "type": "address"
        },
        {
          "internalType": "address",
          "name": "sandContractAddress",
          "type": "address"
        },
        {
          "internalType": "address",
          "name": "initialMetaTx",
          "type": "address"
        },
        {
          "internalType": "address",
          "name": "admin",
          "type": "address"
        },
        {
          "internalType": "address payable",
          "name": "initialWalletAddress",
          "type": "address"
        },
        {
          "internalType": "bytes32",
          "name": "merkleRoot",
          "type": "bytes32"
        },
        {
          "internalType": "uint256",
          "name": "expiryTime",
          "type": "uint256"
        },
        {
          "internalType": "address",
          "name": "initialSigningWallet",
          "type": "address"
        },
        {
          "internalType": "uint256",
          "name": "initialMaxCommissionRate",
          "type": "uint256"
        },
        {
          "internalType": "address",
          "name": "estate",
          "type": "address"
        },
        {
          "internalType": "address",
          "name": "asset",
          "type": "address"
        },
        {
          "internalType": "address",
          "name": "feeDistributor",
          "type": "address"
        },
        {
          "internalType": "address",
          "name": "authValidator",
          "type": "address"
        }
      ],
      "stateMutability": "nonpayable",
      "type": "constructor"
    },
    {
      "anonymous": false,
      "inputs": [
        {
          "indexed": false,
          "internalType": "address",
          "name": "oldAdmin",
          "type": "address"
        },
        {
          "indexed": false,
          "internalType": "address",
          "name": "newAdmin",
          "type": "address"
        }
      ],
      "name": "AdminChanged",
      "type": "event"
    },
    {
      "anonymous": false,
      "inputs": [
        {
          "indexed": true,
          "internalType": "address",
          "name": "buyer",
          "type": "address"
        },
        {
          "indexed": true,
          "internalType": "address",
          "name": "to",
          "type": "address"
        },
        {
          "indexed": true,
          "internalType": "uint256",
          "name": "topCornerId",
          "type": "uint256"
        },
        {
          "indexed": false,
          "internalType": "uint256",
          "name": "size",
          "type": "uint256"
        },
        {
          "indexed": false,
          "internalType": "uint256",
          "name": "price",
          "type": "uint256"
        },
        {
          "indexed": false,
          "internalType": "address",
          "name": "token",
          "type": "address"
        },
        {
          "indexed": false,
          "internalType": "uint256",
          "name": "amountPaid",
          "type": "uint256"
        }
      ],
      "name": "LandQuadPurchased",
      "type": "event"
    },
    {
      "anonymous": false,
      "inputs": [
        {
          "indexed": false,
          "internalType": "address",
          "name": "metaTransactionProcessor",
          "type": "address"
        },
        {
          "indexed": false,
          "internalType": "bool",
          "name": "enabled",
          "type": "bool"
        }
      ],
      "name": "MetaTransactionProcessor",
      "type": "event"
    },
    {
      "anonymous": false,
      "inputs": [
        {
          "indexed": true,
          "internalType": "address",
          "name": "referrer",
          "type": "address"
        },
        {
          "indexed": true,
          "internalType": "address",
          "name": "referee",
          "type": "address"
        },
        {
          "indexed": true,
          "internalType": "address",
          "name": "token",
          "type": "address"
        },
        {
          "indexed": false,
          "internalType": "uint256",
          "name": "amount",
          "type": "uint256"
        },
        {
          "indexed": false,
          "internalType": "uint256",
          "name": "commission",
          "type": "uint256"
        },
        {
          "indexed": false,
          "internalType": "uint256",
          "name": "commissionRate",
          "type": "uint256"
        }
      ],
      "name": "ReferralUsed",
      "type": "event"
    },
    {
      "inputs": [
        {
          "internalType": "address",
          "name": "buyer",
          "type": "address"
        },
        {
          "internalType": "address",
          "name": "to",
          "type": "address"
        },
        {
          "internalType": "address",
          "name": "reserved",
          "type": "address"
        },
        {
          "internalType": "uint256[]",
          "name": "info",
          "type": "uint256[]"
        },
        {
          "internalType": "bytes32",
          "name": "salt",
          "type": "bytes32"
        },
        {
          "internalType": "uint256[]",
          "name": "assetIds",
          "type": "uint256[]"
        },
        {
          "internalType": "bytes32[]",
          "name": "proof",
          "type": "bytes32[]"
        },
        {
          "internalType": "bytes",
          "name": "referral",
          "type": "bytes"
        },
        {
          "internalType": "bytes",
          "name": "signature",
          "type": "bytes"
        }
      ],
      "name": "buyLandWithSand",
      "outputs": [],
      "stateMutability": "nonpayable",
      "type": "function"
    },
    {
      "inputs": [
        {
          "internalType": "address",
          "name": "newAdmin",
          "type": "address"
        }
      ],
      "name": "changeAdmin",
      "outputs": [],
      "stateMutability": "nonpayable",
      "type": "function"
    },
    {
      "inputs": [
        {
          "internalType": "bytes",
          "name": "referral",
          "type": "bytes"
        }
      ],
      "name": "decodeReferral",
      "outputs": [
        {
          "internalType": "bytes",
          "name": "",
          "type": "bytes"
        },
        {
          "internalType": "address",
          "name": "",
          "type": "address"
        },
        {
          "internalType": "address",
          "name": "",
          "type": "address"
        },
        {
          "internalType": "uint256",
          "name": "",
          "type": "uint256"
        },
        {
          "internalType": "uint256",
          "name": "",
          "type": "uint256"
        }
      ],
      "stateMutability": "pure",
      "type": "function"
    },
    {
      "inputs": [],
      "name": "getAdmin",
      "outputs": [
        {
          "internalType": "address",
          "name": "",
          "type": "address"
        }
      ],
      "stateMutability": "view",
      "type": "function"
    },
    {
      "inputs": [],
      "name": "getExpiryTime",
      "outputs": [
        {
          "internalType": "uint256",
          "name": "",
          "type": "uint256"
        }
      ],
      "stateMutability": "view",
      "type": "function"
    },
    {
      "inputs": [],
      "name": "getMaxCommisionRate",
      "outputs": [
        {
          "internalType": "uint256",
          "name": "",
          "type": "uint256"
        }
      ],
      "stateMutability": "view",
      "type": "function"
    },
    {
      "inputs": [],
      "name": "getMerkleRoot",
      "outputs": [
        {
          "internalType": "bytes32",
          "name": "",
          "type": "bytes32"
        }
      ],
      "stateMutability": "view",
      "type": "function"
    },
    {
      "inputs": [],
      "name": "getSigningWallet",
      "outputs": [
        {
          "internalType": "address",
          "name": "",
          "type": "address"
        }
      ],
      "stateMutability": "view",
      "type": "function"
    },
    {
      "inputs": [
        {
          "internalType": "address",
          "name": "who",
          "type": "address"
        }
      ],
      "name": "isMetaTransactionProcessor",
      "outputs": [
        {
          "internalType": "bool",
          "name": "",
          "type": "bool"
        }
      ],
      "stateMutability": "view",
      "type": "function"
    },
    {
      "inputs": [
        {
          "internalType": "bytes",
          "name": "signature",
          "type": "bytes"
        },
        {
          "internalType": "address",
          "name": "referrer",
          "type": "address"
        },
        {
          "internalType": "address",
          "name": "referee",
          "type": "address"
        },
        {
          "internalType": "uint256",
          "name": "expiryTime",
          "type": "uint256"
        },
        {
          "internalType": "uint256",
          "name": "commissionRate",
          "type": "uint256"
        }
      ],
      "name": "isReferralValid",
      "outputs": [
        {
          "internalType": "bool",
          "name": "",
          "type": "bool"
        }
      ],
      "stateMutability": "view",
      "type": "function"
    },
    {
      "inputs": [
        {
          "internalType": "address",
          "name": "",
          "type": "address"
        },
        {
          "internalType": "address",
          "name": "",
          "type": "address"
        },
        {
          "internalType": "uint256[]",
          "name": "",
          "type": "uint256[]"
        },
        {
          "internalType": "uint256[]",
          "name": "",
          "type": "uint256[]"
        },
        {
          "internalType": "bytes",
          "name": "",
          "type": "bytes"
        }
      ],
      "name": "onERC1155BatchReceived",
      "outputs": [
        {
          "internalType": "bytes4",
          "name": "",
          "type": "bytes4"
        }
      ],
      "stateMutability": "pure",
      "type": "function"
    },
    {
      "inputs": [
        {
          "internalType": "address",
          "name": "",
          "type": "address"
        },
        {
          "internalType": "address",
          "name": "",
          "type": "address"
        },
        {
          "internalType": "uint256",
          "name": "",
          "type": "uint256"
        },
        {
          "internalType": "uint256",
          "name": "",
          "type": "uint256"
        },
        {
          "internalType": "bytes",
          "name": "",
          "type": "bytes"
        }
      ],
      "name": "onERC1155Received",
      "outputs": [
        {
          "internalType": "bytes4",
          "name": "",
          "type": "bytes4"
        }
      ],
      "stateMutability": "pure",
      "type": "function"
    },
    {
      "inputs": [
        {
          "internalType": "address",
          "name": "metaTransactionProcessor",
          "type": "address"
        },
        {
          "internalType": "bool",
          "name": "enabled",
          "type": "bool"
        }
      ],
      "name": "setMetaTransactionProcessor",
      "outputs": [],
      "stateMutability": "nonpayable",
      "type": "function"
    },
    {
      "inputs": [
        {
          "internalType": "address payable",
          "name": "newWallet",
          "type": "address"
        }
      ],
      "name": "setReceivingWallet",
      "outputs": [],
      "stateMutability": "nonpayable",
      "type": "function"
    },
    {
      "inputs": [
        {
          "internalType": "uint256",
          "name": "newMaxCommissionRate",
          "type": "uint256"
        }
      ],
      "name": "updateMaxCommissionRate",
      "outputs": [],
      "stateMutability": "nonpayable",
      "type": "function"
    },
    {
      "inputs": [
        {
          "internalType": "address",
          "name": "newSigningWallet",
          "type": "address"
        }
      ],
      "name": "updateSigningWallet",
      "outputs": [],
      "stateMutability": "nonpayable",
      "type": "function"
    },
    {
      "inputs": [
        {
          "internalType": "address",
          "name": "to",
          "type": "address"
        },
        {
          "internalType": "uint256[]",
          "name": "assetIds",
          "type": "uint256[]"
        },
        {
          "internalType": "uint256[]",
          "name": "values",
          "type": "uint256[]"
        }
      ],
      "name": "withdrawAssets",
      "outputs": [],
      "stateMutability": "nonpayable",
      "type": "function"
    }
  ],
  "transactionHash": "0x2cecc15c9836ad3940f00a056196d93834d722fdac3cf0c139a1c45afbc07506",
  "args": [
    "0x50f5474724e0Ee42D9a4e711ccFB275809Fd6d4a",
    "0x3845badAde8e6dFF049820680d1F14bD3903a5d0",
    "0x3845badAde8e6dFF049820680d1F14bD3903a5d0",
    "0xEAA0993E1d21c2103e4f172a20D29371FbAF6D06",
    "0x4489590a116618B506F0EfE885432F6A8ED998E9",
    "0x76c8e50985daead5098da2d92c33e9f19b501e3fedf9dbfab485c6fe9f25ff46",
    1642683600,
    "0x3044719d139F866a44c988823513eCB93060bF1b",
    2000,
    "0x0000000000000000000000000000000000000000",
    "0xa342f5D851E866E18ff98F351f2c6637f4478dB5",
    "0x0EB04462D69B1D267d269377E34f60b9De1c8510",
    "0x459EA8c295069d4cd16c025b9fa5cA3E4C5AA468"
  ],
  "linkedData": [
    {
      "x": 252,
      "y": 396,
      "size": 1,
      "price": "1011000000000000000000",
      "reserved": "",
      "salt": "0xf55a7230444bfbd33b99b94668b938dc7a1f6f939ea9b25296a317afcfb23103",
      "assetIds": []
    },
    {
      "x": 252,
      "y": 397,
      "size": 1,
      "price": "1011000000000000000000",
      "reserved": "",
      "salt": "0x474de58ec108280bb6d0559d925440b569f2b3671b3d6a893fe23804b6762ceb",
      "assetIds": []
    },
    {
      "x": 252,
      "y": 398,
      "size": 1,
      "price": "1011000000000000000000",
      "reserved": "",
      "salt": "0xe0330daabea0368d459a425da00bc9d6a91538ca0ec9525d8a0ca2bff6f8da06",
      "assetIds": []
    },
    {
      "x": 252,
      "y": 399,
      "size": 1,
      "price": "1011000000000000000000",
      "reserved": "",
      "salt": "0xb61ac3a3b99bc832ec0c73ecb92529c2652ca66f4a613c04aa634ec42fb3176f",
      "assetIds": []
    },
    {
      "x": 252,
      "y": 400,
      "size": 1,
      "price": "1011000000000000000000",
      "reserved": "",
      "salt": "0xc1a682834d90997ff8aa00bbf4f95a46dc33ed3897b43e89577bc5ccc5135c10",
      "assetIds": []
    },
    {
      "x": 252,
      "y": 401,
      "size": 1,
      "price": "1011000000000000000000",
      "reserved": "",
      "salt": "0x73a5797a6a0ee69bbe806213be39de8a3a2863fa787c6da9fc3030e4240aab48",
      "assetIds": []
    },
    {
      "x": 252,
      "y": 402,
      "size": 1,
      "price": "1011000000000000000000",
      "reserved": "",
      "salt": "0x1ebeeb105f5482f71f4a5442065ba9e88332d3695735413719a212a7f5f1ce4e",
      "assetIds": []
    },
    {
      "x": 252,
      "y": 403,
      "size": 1,
      "price": "1011000000000000000000",
      "reserved": "",
      "salt": "0x1f4d7e87694bc1c532af621def50f409c186f95dd464bf0d44f8f5ddcb2243c0",
      "assetIds": []
    },
    {
      "x": 252,
      "y": 404,
      "size": 1,
      "price": "1011000000000000000000",
      "reserved": "",
      "salt": "0x8777c69b389368a74579a5f82fe261945f56eefc6c941234b2755a26d34af09c",
      "assetIds": []
    },
    {
      "x": 252,
      "y": 405,
      "size": 1,
      "price": "1011000000000000000000",
      "reserved": "",
      "salt": "0xbccb74794feff708201e6e3454cb98a4babc503ffa99fab79c19f0fbba373212",
      "assetIds": []
    },
    {
      "x": 252,
      "y": 406,
      "size": 1,
      "price": "1011000000000000000000",
      "reserved": "",
      "salt": "0x7d8265f4b5cc167151b8e847c1487264d67f26c8068c57541feadce2d3b17e8b",
      "assetIds": []
    },
    {
      "x": 252,
      "y": 407,
      "size": 1,
      "price": "1011000000000000000000",
      "reserved": "",
      "salt": "0xd6ebd52495ddedd3844f15818784a3997f73aea52f99ac98fd5c023aa8aada76",
      "assetIds": []
    },
    {
      "x": 253,
      "y": 396,
      "size": 1,
      "price": "1011000000000000000000",
      "reserved": "",
      "salt": "0x0b671ce5f18ca50e4bd0579fd0bb639b749555453948c9b115bfe29b32d605c0",
      "assetIds": []
    },
    {
      "x": 253,
      "y": 397,
      "size": 1,
      "price": "1011000000000000000000",
      "reserved": "",
      "salt": "0x6baa2db45752473ea6870d42f39d07b2fe418a28c064fb3d330a442ac5b07c9d",
      "assetIds": []
    },
    {
      "x": 253,
      "y": 398,
      "size": 1,
      "price": "1011000000000000000000",
      "reserved": "",
      "salt": "0xde6551a00cedc590085b37d77d1d810c4b55027c11015bd97201402d35ca7d10",
      "assetIds": []
    },
    {
      "x": 253,
      "y": 399,
      "size": 1,
      "price": "1011000000000000000000",
      "reserved": "",
      "salt": "0xfc7af76b74867783b3199e6895a5d31d254142c142a02d7b0a27a6c6accc299b",
      "assetIds": []
    },
    {
      "x": 253,
      "y": 400,
      "size": 1,
      "price": "1011000000000000000000",
      "reserved": "",
      "salt": "0x0a39aa0479cbbcb41c2954c354a2229e2a67cf8fab695d54e316a24bda29a5f5",
      "assetIds": []
    },
    {
      "x": 253,
      "y": 401,
      "size": 1,
      "price": "1011000000000000000000",
      "reserved": "",
      "salt": "0xde7ee1060dec52a10e2081970dc3f2591829b70f7e2d79796e53be19f4921b9c",
      "assetIds": []
    },
    {
      "x": 253,
      "y": 402,
      "size": 1,
      "price": "1011000000000000000000",
      "reserved": "",
      "salt": "0xd5e71a92e76d4768210b224ce5c4ba815c054a9f63ce70c7ab03d8c7af40c3e2",
      "assetIds": []
    },
    {
      "x": 253,
      "y": 403,
      "size": 1,
      "price": "1011000000000000000000",
      "reserved": "",
      "salt": "0xa1110ac22d03bb9f2ddf4348146273e4d8f50cb84108aaa4b83cad94ed289a75",
      "assetIds": []
    },
    {
      "x": 253,
      "y": 404,
      "size": 1,
      "price": "1011000000000000000000",
      "reserved": "",
      "salt": "0x5572154d5412875f4727309109274aac8871a9fa572668e0f446e04c27425d67",
      "assetIds": []
    },
    {
      "x": 253,
      "y": 405,
      "size": 1,
      "price": "1011000000000000000000",
      "reserved": "",
      "salt": "0x85b4fef786bc27cf62a9b61b5ea0fbe108c01dada31da943d0e58b11bf9a08b3",
      "assetIds": []
    },
    {
      "x": 253,
      "y": 406,
      "size": 1,
      "price": "1011000000000000000000",
      "reserved": "",
      "salt": "0x3f859a07af0d0bb832292d112a2725064fa7a53e10a67e8fbfbca6b0551b3e55",
      "assetIds": []
    },
    {
      "x": 253,
      "y": 407,
      "size": 1,
      "price": "1011000000000000000000",
      "reserved": "",
      "salt": "0x3e583edfaf1b361cadcfe83ca5b3091d72bf5b0fcaa6d6dfa8de1fe970b30d50",
      "assetIds": []
    },
    {
      "x": 254,
      "y": 396,
      "size": 1,
      "price": "1011000000000000000000",
      "reserved": "",
      "salt": "0x7eee186eceab1970d9bdecbcb740fb68875f82cab222647701a08600402744d4",
      "assetIds": []
    },
    {
      "x": 254,
      "y": 397,
      "size": 1,
      "price": "1011000000000000000000",
      "reserved": "",
      "salt": "0xbc5beba7623d9b78d65ecfba73acf016d50583f48e84a2071436ce4258c92b1d",
      "assetIds": []
    },
    {
      "x": 254,
      "y": 398,
      "size": 1,
      "price": "1011000000000000000000",
      "reserved": "",
      "salt": "0x5f4244436cf672c00d742eb26cb85b0a540f474e1e9e329c997a32f0c26445ae",
      "assetIds": []
    },
    {
      "x": 254,
      "y": 399,
      "size": 1,
      "price": "1011000000000000000000",
      "reserved": "",
      "salt": "0x529cab4ca38bee109df72c7ff4e40667c8c52073431e2725ac1182459c421c2c",
      "assetIds": []
    },
    {
      "x": 254,
      "y": 400,
      "size": 1,
      "price": "1011000000000000000000",
      "reserved": "",
      "salt": "0xbdf7605687d5bc788c8ff18cd37f144bf1d4fbfd24a1618a68fc09f081826a24",
      "assetIds": []
    },
    {
      "x": 254,
      "y": 401,
      "size": 1,
      "price": "1011000000000000000000",
      "reserved": "",
      "salt": "0x88af505adb7f80e93f8fb9a95d34caf6aad728218eee70ad4a43dc81b4f4949e",
      "assetIds": []
    },
    {
      "x": 254,
      "y": 402,
      "size": 1,
      "price": "1011000000000000000000",
      "reserved": "",
      "salt": "0x75ee0a20808a40ac99a42d2444308ea50fbdf7eaf1ca06b300709d72bc64318f",
      "assetIds": []
    },
    {
      "x": 254,
      "y": 403,
      "size": 1,
      "price": "1011000000000000000000",
      "reserved": "",
      "salt": "0x2e89c2dc05410224812133dd67551ad08592b0eaa72d0af6154aafaa1b5b17f6",
      "assetIds": []
    },
    {
      "x": 254,
      "y": 404,
      "size": 1,
      "price": "1011000000000000000000",
      "reserved": "",
      "salt": "0x9ab5296239b9ff6ad4a6ef0b13bd5e6f72f903b0f7f93bdf8830805335614c93",
      "assetIds": []
    },
    {
      "x": 254,
      "y": 405,
      "size": 1,
      "price": "1011000000000000000000",
      "reserved": "",
      "salt": "0x1aa199e199bc9607d45f4b7a056d8c1f6742dc26dea161ba0cc3075a2350d20e",
      "assetIds": []
    },
    {
      "x": 254,
      "y": 406,
      "size": 1,
      "price": "1011000000000000000000",
      "reserved": "",
      "salt": "0xc64fee28400f1c86ab0d8116e72cd7ff86ff822015b1e2f7a85359a2b49c1ff0",
      "assetIds": []
    },
    {
      "x": 254,
      "y": 407,
      "size": 1,
      "price": "1011000000000000000000",
      "reserved": "",
      "salt": "0xed4b89ce90ad4a61d0f49f016670bb81b5acb708b1db215f5dc9a46fdfa54939",
      "assetIds": []
    },
    {
      "x": 255,
      "y": 399,
      "size": 1,
      "price": "1011000000000000000000",
      "reserved": "",
      "salt": "0xefa3999f5d9239469865963884194547129debf4c17700763ac77c587876918b",
      "assetIds": []
    },
    {
      "x": 255,
      "y": 400,
      "size": 1,
      "price": "1011000000000000000000",
      "reserved": "",
      "salt": "0xa25185597712663f7f25c53275ed6acfed866dc605433884a0b090ed1d0877e5",
      "assetIds": []
    },
    {
      "x": 255,
      "y": 401,
      "size": 1,
      "price": "1011000000000000000000",
      "reserved": "",
      "salt": "0xe8d751edc2e7a4acd766d61df929991bec6a36251f3b7df87332d30f666a2ad0",
      "assetIds": []
    },
    {
      "x": 255,
      "y": 405,
      "size": 1,
      "price": "1011000000000000000000",
      "reserved": "",
      "salt": "0xa0fb0fa7b73e9a1c4a1a576f00a7e7a7231a698da151ecf6a3356b34be436ca1",
      "assetIds": []
    },
    {
      "x": 255,
      "y": 406,
      "size": 1,
      "price": "1011000000000000000000",
      "reserved": "",
      "salt": "0x4fee362239d56d62b2fc088545fa6e00613b18b2c48737ae7e62c34b110f57bc",
      "assetIds": []
    },
    {
      "x": 255,
      "y": 407,
      "size": 1,
      "price": "1011000000000000000000",
      "reserved": "",
      "salt": "0x530ced9649393aeec018aff509d32ee9bb33e5eedc3b1299950f37e755fc8be5",
      "assetIds": []
    },
    {
      "x": 256,
      "y": 399,
      "size": 1,
      "price": "1011000000000000000000",
      "reserved": "",
      "salt": "0x75f3f05e82e77794e083fc1aabc977154979c56a8152df1c1d1a2a74982f39c8",
      "assetIds": []
    },
    {
      "x": 256,
      "y": 400,
      "size": 1,
      "price": "1011000000000000000000",
      "reserved": "",
      "salt": "0x71692e6083dd1b75144d264119ab580ffbe213bb48dd316ce4624a1ed191f214",
      "assetIds": []
    },
    {
      "x": 256,
      "y": 401,
      "size": 1,
      "price": "1011000000000000000000",
      "reserved": "",
      "salt": "0x9c088e17070fd00e23cc85e5f2f32b760791e82cdd1c74d0b7eb98d075aabf0c",
      "assetIds": []
    },
    {
      "x": 256,
      "y": 405,
      "size": 1,
      "price": "4683000000000000000000",
      "reserved": "",
      "salt": "0x9b64189291ff626ca3ba44a56fca1eb5e5cf9595914e5bccdc8ee96f991fb392",
      "assetIds": [
        "55464657044963196816950587289035428064568320970692304673817341489688361316356",
        "55464657044963196816950587289035428064568320970692304673817341489688361316354",
        "55464657044963196816950587289035428064568320970692304673817341489688361316353",
        "55464657044963196816950587289035428064568320970692304673817341489688361316352"
      ]
    },
    {
      "x": 256,
      "y": 406,
      "size": 1,
      "price": "4683000000000000000000",
      "reserved": "",
      "salt": "0xaeaec51dcb112c6d19d23f6c6cd46eed2f457de47a016591df24653807edc20c",
      "assetIds": [
        "55464657044963196816950587289035428064568320970692304673817341489688361316356",
        "55464657044963196816950587289035428064568320970692304673817341489688361316355",
        "55464657044963196816950587289035428064568320970692304673817341489688361316354",
        "55464657044963196816950587289035428064568320970692304673817341489688361316352"
      ]
    },
    {
      "x": 256,
      "y": 407,
      "size": 1,
      "price": "4683000000000000000000",
      "reserved": "",
      "salt": "0xf7edd023389e25e37e01c530cf1bafc9692c6d86cf47ee4e28db94cd39b190d8",
      "assetIds": [
        "55464657044963196816950587289035428064568320970692304673817341489688361316356",
        "55464657044963196816950587289035428064568320970692304673817341489688361316355",
        "55464657044963196816950587289035428064568320970692304673817341489688361316354",
        "55464657044963196816950587289035428064568320970692304673817341489688361316352"
      ]
    },
    {
      "x": 257,
      "y": 399,
      "size": 1,
      "price": "1011000000000000000000",
      "reserved": "",
      "salt": "0xb95b365e26704635434a55364a50d9931b6792f64bab14b0ed76f9fc907b4fe1",
      "assetIds": []
    },
    {
      "x": 257,
      "y": 400,
      "size": 1,
      "price": "4683000000000000000000",
      "reserved": "",
      "salt": "0xdf3774537fa2d3e1d9b2509023f6e05e3275f2a85fc0b7743b90fe92ea0af50e",
      "assetIds": [
        "55464657044963196816950587289035428064568320970692304673817341489688361316355",
        "55464657044963196816950587289035428064568320970692304673817341489688361316354",
        "55464657044963196816950587289035428064568320970692304673817341489688361316353",
        "55464657044963196816950587289035428064568320970692304673817341489688361316352"
      ]
    },
    {
      "x": 257,
      "y": 401,
      "size": 1,
      "price": "4683000000000000000000",
      "reserved": "",
      "salt": "0xae12edaf93d0e6e61cf3831c92d2a72e365c2576a80ec5fe5328aef98faad80e",
      "assetIds": [
        "55464657044963196816950587289035428064568320970692304673817341489688361316357",
        "55464657044963196816950587289035428064568320970692304673817341489688361316355",
        "55464657044963196816950587289035428064568320970692304673817341489688361316353",
        "55464657044963196816950587289035428064568320970692304673817341489688361316352"
      ]
    },
    {
      "x": 257,
      "y": 405,
      "size": 1,
      "price": "4683000000000000000000",
      "reserved": "",
      "salt": "0xce4bff1690435c23fb3913a510b92d9603d6fcb147d4dee74866ebf8f81e8d89",
      "assetIds": [
        "55464657044963196816950587289035428064568320970692304673817341489688361316356",
        "55464657044963196816950587289035428064568320970692304673817341489688361316354",
        "55464657044963196816950587289035428064568320970692304673817341489688361316353",
        "55464657044963196816950587289035428064568320970692304673817341489688361316352"
      ]
    },
    {
      "x": 257,
      "y": 406,
      "size": 1,
      "price": "4683000000000000000000",
      "reserved": "",
      "salt": "0xed81c329de69a83034b95b6a3ce9eac899d8081dc55ad5cc3118f790a6d13d2c",
      "assetIds": [
        "55464657044963196816950587289035428064568320970692304673817341489688361316357",
        "55464657044963196816950587289035428064568320970692304673817341489688361316355",
        "55464657044963196816950587289035428064568320970692304673817341489688361316354",
        "55464657044963196816950587289035428064568320970692304673817341489688361316353"
      ]
    },
    {
      "x": 257,
      "y": 407,
      "size": 1,
      "price": "4683000000000000000000",
      "reserved": "",
      "salt": "0x2233011fcecb48c57be342cae083b9c3ae1311981083b079396b64bc58b1590c",
      "assetIds": [
        "55464657044963196816950587289035428064568320970692304673817341489688361316356",
        "55464657044963196816950587289035428064568320970692304673817341489688361316355",
        "55464657044963196816950587289035428064568320970692304673817341489688361316354",
        "55464657044963196816950587289035428064568320970692304673817341489688361316352"
      ]
    },
    {
      "x": 258,
      "y": 399,
      "size": 1,
      "price": "4683000000000000000000",
      "reserved": "",
      "salt": "0x2865a14bbe0e3447a9380b55e857b9b9df2b0e76e141a305dbee904670a7880a",
      "assetIds": [
        "55464657044963196816950587289035428064568320970692304673817341489688361316357",
        "55464657044963196816950587289035428064568320970692304673817341489688361316355",
        "55464657044963196816950587289035428064568320970692304673817341489688361316354",
        "55464657044963196816950587289035428064568320970692304673817341489688361316353"
      ]
    },
    {
      "x": 258,
      "y": 400,
      "size": 1,
      "price": "4683000000000000000000",
      "reserved": "",
      "salt": "0x02b8638608ceedfcad61dca48718aee32d53833a8471f3bfe4d897f63cc11220",
      "assetIds": [
        "55464657044963196816950587289035428064568320970692304673817341489688361316357",
        "55464657044963196816950587289035428064568320970692304673817341489688361316355",
        "55464657044963196816950587289035428064568320970692304673817341489688361316354",
        "55464657044963196816950587289035428064568320970692304673817341489688361316353"
      ]
    },
    {
      "x": 258,
      "y": 401,
      "size": 1,
      "price": "4683000000000000000000",
      "reserved": "",
      "salt": "0xea725bedfa9d234dd5f0db8be16e8f084c37d8be793340d1b79c9edf19d09934",
      "assetIds": [
        "55464657044963196816950587289035428064568320970692304673817341489688361316357",
        "55464657044963196816950587289035428064568320970692304673817341489688361316355",
        "55464657044963196816950587289035428064568320970692304673817341489688361316353",
        "55464657044963196816950587289035428064568320970692304673817341489688361316352"
      ]
    },
    {
      "x": 259,
      "y": 399,
      "size": 1,
      "price": "4683000000000000000000",
      "reserved": "",
      "salt": "0x31ee9b688ab68b4e9993c47730bba2369fa6cad196dc316446e4b1bf3ec7eb1e",
      "assetIds": [
        "55464657044963196816950587289035428064568320970692304673817341489688361316357",
        "55464657044963196816950587289035428064568320970692304673817341489688361316355",
        "55464657044963196816950587289035428064568320970692304673817341489688361316354",
        "55464657044963196816950587289035428064568320970692304673817341489688361316353"
      ]
    },
    {
      "x": 259,
      "y": 400,
      "size": 1,
      "price": "4683000000000000000000",
      "reserved": "",
      "salt": "0xf2a57b08590c450468e59e603bc3db00bc9c5345d20d4fbe4ce8b77995200d79",
      "assetIds": [
        "55464657044963196816950587289035428064568320970692304673817341489688361316355",
        "55464657044963196816950587289035428064568320970692304673817341489688361316354",
        "55464657044963196816950587289035428064568320970692304673817341489688361316353",
        "55464657044963196816950587289035428064568320970692304673817341489688361316352"
      ]
    },
    {
      "x": 259,
      "y": 401,
      "size": 1,
      "price": "4683000000000000000000",
      "reserved": "",
      "salt": "0x6f121a129bc5e2021a9488777b8ba2e0f25da4c605edd2302cea6e61f1323196",
      "assetIds": [
        "55464657044963196816950587289035428064568320970692304673817341489688361316355",
        "55464657044963196816950587289035428064568320970692304673817341489688361316354",
        "55464657044963196816950587289035428064568320970692304673817341489688361316353",
        "55464657044963196816950587289035428064568320970692304673817341489688361316352"
      ]
    },
    {
      "x": 260,
      "y": 399,
      "size": 1,
      "price": "4683000000000000000000",
      "reserved": "",
      "salt": "0xe7b406bbf8939787e2398a79015233672ccd78ece8523db498148ba110583b42",
      "assetIds": [
        "55464657044963196816950587289035428064568320970692304673817341489688361316356",
        "55464657044963196816950587289035428064568320970692304673817341489688361316354",
        "55464657044963196816950587289035428064568320970692304673817341489688361316353",
        "55464657044963196816950587289035428064568320970692304673817341489688361316352"
      ]
    },
    {
      "x": 260,
      "y": 400,
      "size": 1,
      "price": "4683000000000000000000",
      "reserved": "",
      "salt": "0x8e7fa9f9dcd1111fddbf8d748196e6e3942ffaa6c53a45b0ff659da12af23642",
      "assetIds": [
        "55464657044963196816950587289035428064568320970692304673817341489688361316355",
        "55464657044963196816950587289035428064568320970692304673817341489688361316354",
        "55464657044963196816950587289035428064568320970692304673817341489688361316353",
        "55464657044963196816950587289035428064568320970692304673817341489688361316352"
      ]
    },
    {
      "x": 260,
      "y": 401,
      "size": 1,
      "price": "4683000000000000000000",
      "reserved": "",
      "salt": "0xda2afdb326a6aae556caa00d74be8d3e8f61b53dd68166b271a702252f0cab15",
      "assetIds": [
        "55464657044963196816950587289035428064568320970692304673817341489688361316357",
        "55464657044963196816950587289035428064568320970692304673817341489688361316355",
        "55464657044963196816950587289035428064568320970692304673817341489688361316353",
        "55464657044963196816950587289035428064568320970692304673817341489688361316352"
      ]
    },
    {
      "x": 261,
      "y": 396,
      "size": 1,
      "price": "4683000000000000000000",
      "reserved": "",
      "salt": "0x56335048eddd686c3b4d8faf6646bab9c9bb84516549df033b3410463fa438c7",
      "assetIds": [
        "55464657044963196816950587289035428064568320970692304673817341489688361316357",
        "55464657044963196816950587289035428064568320970692304673817341489688361316355",
        "55464657044963196816950587289035428064568320970692304673817341489688361316353",
        "55464657044963196816950587289035428064568320970692304673817341489688361316352"
      ]
    },
    {
      "x": 261,
      "y": 397,
      "size": 1,
      "price": "4683000000000000000000",
      "reserved": "",
      "salt": "0x08f0e39d094bc1dad96615639a6d5bd20804877b6686f2d815de6b379456d01c",
      "assetIds": [
        "55464657044963196816950587289035428064568320970692304673817341489688361316357",
        "55464657044963196816950587289035428064568320970692304673817341489688361316355",
        "55464657044963196816950587289035428064568320970692304673817341489688361316354",
        "55464657044963196816950587289035428064568320970692304673817341489688361316353"
      ]
    },
    {
      "x": 261,
      "y": 398,
      "size": 1,
      "price": "4683000000000000000000",
      "reserved": "",
      "salt": "0xe2566de8cfd206c7ca45792e459d1fa580d655df8d7c513bfdf54ca975904e9b",
      "assetIds": [
        "55464657044963196816950587289035428064568320970692304673817341489688361316356",
        "55464657044963196816950587289035428064568320970692304673817341489688361316354",
        "55464657044963196816950587289035428064568320970692304673817341489688361316353",
        "55464657044963196816950587289035428064568320970692304673817341489688361316352"
      ]
    },
    {
      "x": 262,
      "y": 396,
      "size": 1,
      "price": "4683000000000000000000",
      "reserved": "",
      "salt": "0xa1cb143df213612e097bb3bd11168ebe20011b605f4ffb394a1da50f8a2b044c",
      "assetIds": [
        "55464657044963196816950587289035428064568320970692304673817341489688361316357",
        "55464657044963196816950587289035428064568320970692304673817341489688361316355",
        "55464657044963196816950587289035428064568320970692304673817341489688361316353",
        "55464657044963196816950587289035428064568320970692304673817341489688361316352"
      ]
    },
    {
      "x": 262,
      "y": 397,
      "size": 1,
      "price": "4683000000000000000000",
      "reserved": "",
      "salt": "0xcf00abd0d7a5bd2e707e0e6bc4d09429725f011149bd323abb133758d31773a8",
      "assetIds": [
        "55464657044963196816950587289035428064568320970692304673817341489688361316355",
        "55464657044963196816950587289035428064568320970692304673817341489688361316354",
        "55464657044963196816950587289035428064568320970692304673817341489688361316353",
        "55464657044963196816950587289035428064568320970692304673817341489688361316352"
      ]
    },
    {
      "x": 262,
      "y": 398,
      "size": 1,
      "price": "4683000000000000000000",
      "reserved": "",
      "salt": "0x4545b51257e405e211430a06140e3a8f2631ef539af63ae11ae3b7a816933576",
      "assetIds": [
        "55464657044963196816950587289035428064568320970692304673817341489688361316357",
        "55464657044963196816950587289035428064568320970692304673817341489688361316355",
        "55464657044963196816950587289035428064568320970692304673817341489688361316354",
        "55464657044963196816950587289035428064568320970692304673817341489688361316353"
      ]
    },
    {
      "x": 263,
      "y": 396,
      "size": 1,
      "price": "4683000000000000000000",
      "reserved": "",
      "salt": "0xe1f4ba29c46338f20da916f58069daefac449b4154671ad540b429af63b9fadd",
      "assetIds": [
        "55464657044963196816950587289035428064568320970692304673817341489688361316357",
        "55464657044963196816950587289035428064568320970692304673817341489688361316355",
        "55464657044963196816950587289035428064568320970692304673817341489688361316354",
        "55464657044963196816950587289035428064568320970692304673817341489688361316353"
      ]
    },
    {
      "x": 263,
      "y": 397,
      "size": 1,
      "price": "4683000000000000000000",
      "reserved": "",
      "salt": "0xa5da4181d54b1ab86d15563e6848e50f064d07c26bbc4d8c9cd97507005da371",
      "assetIds": [
        "55464657044963196816950587289035428064568320970692304673817341489688361316356",
        "55464657044963196816950587289035428064568320970692304673817341489688361316355",
        "55464657044963196816950587289035428064568320970692304673817341489688361316354",
        "55464657044963196816950587289035428064568320970692304673817341489688361316352"
      ]
    },
    {
      "x": 263,
      "y": 398,
      "size": 1,
      "price": "4683000000000000000000",
      "reserved": "",
      "salt": "0xc30d4505b8a5fd901fa0b20ee16425a60113a480a6b80ed11b4bd9d0f8bc17f6",
      "assetIds": [
        "55464657044963196816950587289035428064568320970692304673817341489688361316356",
        "55464657044963196816950587289035428064568320970692304673817341489688361316354",
        "55464657044963196816950587289035428064568320970692304673817341489688361316353",
        "55464657044963196816950587289035428064568320970692304673817341489688361316352"
      ]
    },
    {
      "x": 267,
      "y": 390,
      "size": 1,
      "price": "1011000000000000000000",
      "reserved": "",
      "salt": "0x64be2ff365735107cac587a2c556cc160a16374dfa2106056a57c9ae7cc81557",
      "assetIds": []
    },
    {
      "x": 267,
      "y": 391,
      "size": 1,
      "price": "4683000000000000000000",
      "reserved": "",
      "salt": "0xf5b6d33ad586e34dad5b2c4f7b90ba6ade3db0d976e013f2497705ade2d6c57c",
      "assetIds": [
        "55464657044963196816950587289035428064568320970692304673817341489688361316356",
        "55464657044963196816950587289035428064568320970692304673817341489688361316355",
        "55464657044963196816950587289035428064568320970692304673817341489688361316354",
        "55464657044963196816950587289035428064568320970692304673817341489688361316352"
      ]
    },
    {
      "x": 267,
      "y": 392,
      "size": 1,
      "price": "4683000000000000000000",
      "reserved": "",
      "salt": "0xb34fec17d9eeebb39e24471accd42d62478a0fc610c33124f09dac96e1501e4c",
      "assetIds": [
        "55464657044963196816950587289035428064568320970692304673817341489688361316356",
        "55464657044963196816950587289035428064568320970692304673817341489688361316354",
        "55464657044963196816950587289035428064568320970692304673817341489688361316353",
        "55464657044963196816950587289035428064568320970692304673817341489688361316352"
      ]
    },
    {
      "x": 268,
      "y": 390,
      "size": 1,
      "price": "1011000000000000000000",
      "reserved": "",
      "salt": "0x419134e639b34a660a84f042f5f8be70c57c3c8f17f28824c261d4d415e2bfe2",
      "assetIds": []
    },
    {
      "x": 268,
      "y": 391,
      "size": 1,
      "price": "4683000000000000000000",
      "reserved": "",
      "salt": "0x7de730a549b37d93d41e32a1b7e3fbb0a4537dcfc3c3774e76e5352829869e37",
      "assetIds": [
        "55464657044963196816950587289035428064568320970692304673817341489688361316357",
        "55464657044963196816950587289035428064568320970692304673817341489688361316355",
        "55464657044963196816950587289035428064568320970692304673817341489688361316353",
        "55464657044963196816950587289035428064568320970692304673817341489688361316352"
      ]
    },
    {
      "x": 268,
      "y": 392,
      "size": 1,
      "price": "4683000000000000000000",
      "reserved": "",
      "salt": "0x99e8eba85e6f5104af2b9bbd61b26793b57f5119f005e4e7d8cdd3792006043a",
      "assetIds": [
        "55464657044963196816950587289035428064568320970692304673817341489688361316356",
        "55464657044963196816950587289035428064568320970692304673817341489688361316354",
        "55464657044963196816950587289035428064568320970692304673817341489688361316353",
        "55464657044963196816950587289035428064568320970692304673817341489688361316352"
      ]
    },
    {
      "x": 269,
      "y": 390,
      "size": 1,
      "price": "4683000000000000000000",
      "reserved": "",
      "salt": "0xc68f8d6383c317bbab69674a5c89e7feae9063c61f3346fb96b34d5a0efdb0d4",
      "assetIds": [
        "55464657044963196816950587289035428064568320970692304673817341489688361316357",
        "55464657044963196816950587289035428064568320970692304673817341489688361316355",
        "55464657044963196816950587289035428064568320970692304673817341489688361316354",
        "55464657044963196816950587289035428064568320970692304673817341489688361316353"
      ]
    },
    {
      "x": 269,
      "y": 391,
      "size": 1,
      "price": "4683000000000000000000",
      "reserved": "",
      "salt": "0xbe4f256c27da4762cff5b86257087d748e0f854d1d792579e6e5c63fd421a355",
      "assetIds": [
        "55464657044963196816950587289035428064568320970692304673817341489688361316356",
        "55464657044963196816950587289035428064568320970692304673817341489688361316355",
        "55464657044963196816950587289035428064568320970692304673817341489688361316354",
        "55464657044963196816950587289035428064568320970692304673817341489688361316352"
      ]
    },
    {
      "x": 269,
      "y": 392,
      "size": 1,
      "price": "4683000000000000000000",
      "reserved": "",
      "salt": "0xdc82110d0aa935aa71c6f2fda4d3f961a3b18cd07eb1ff32105a2d06465e1c14",
      "assetIds": [
        "55464657044963196816950587289035428064568320970692304673817341489688361316355",
        "55464657044963196816950587289035428064568320970692304673817341489688361316354",
        "55464657044963196816950587289035428064568320970692304673817341489688361316353",
        "55464657044963196816950587289035428064568320970692304673817341489688361316352"
      ]
    },
    {
      "x": 270,
      "y": 390,
      "size": 1,
      "price": "4683000000000000000000",
      "reserved": "",
      "salt": "0x3d1879451d079eabd48815920b23ca723eaeee2b88cb16d2f5795e69611df64a",
      "assetIds": [
        "55464657044963196816950587289035428064568320970692304673817341489688361316357",
        "55464657044963196816950587289035428064568320970692304673817341489688361316355",
        "55464657044963196816950587289035428064568320970692304673817341489688361316354",
        "55464657044963196816950587289035428064568320970692304673817341489688361316353"
      ]
    },
    {
      "x": 270,
      "y": 391,
      "size": 1,
      "price": "4683000000000000000000",
      "reserved": "",
      "salt": "0xb4feb8890df6d280b61bcb0a3cf003d0f7516ad4481e2ecf68e9ff186493aff5",
      "assetIds": [
        "55464657044963196816950587289035428064568320970692304673817341489688361316357",
        "55464657044963196816950587289035428064568320970692304673817341489688361316355",
        "55464657044963196816950587289035428064568320970692304673817341489688361316353",
        "55464657044963196816950587289035428064568320970692304673817341489688361316352"
      ]
    },
    {
      "x": 270,
      "y": 392,
      "size": 1,
      "price": "4683000000000000000000",
      "reserved": "",
      "salt": "0x5722c794f3074f17088c679336f8191cbcd1dce9c1f4583c088511a9884d19b7",
      "assetIds": [
        "55464657044963196816950587289035428064568320970692304673817341489688361316355",
        "55464657044963196816950587289035428064568320970692304673817341489688361316354",
        "55464657044963196816950587289035428064568320970692304673817341489688361316353",
        "55464657044963196816950587289035428064568320970692304673817341489688361316352"
      ]
    },
    {
      "x": 270,
      "y": 393,
      "size": 1,
      "price": "4683000000000000000000",
      "reserved": "",
      "salt": "0x52bd233fc8279d2fd9944694428a40996846809980237ea9e032f8f70871333f",
      "assetIds": [
        "55464657044963196816950587289035428064568320970692304673817341489688361316356",
        "55464657044963196816950587289035428064568320970692304673817341489688361316355",
        "55464657044963196816950587289035428064568320970692304673817341489688361316354",
        "55464657044963196816950587289035428064568320970692304673817341489688361316352"
      ]
    },
    {
      "x": 270,
      "y": 394,
      "size": 1,
      "price": "4683000000000000000000",
      "reserved": "",
      "salt": "0x92a5abeab33b296b5934e09a2a3e1e1c35cd28bb12d0c9993311a4dbe0713ea3",
      "assetIds": [
        "55464657044963196816950587289035428064568320970692304673817341489688361316356",
        "55464657044963196816950587289035428064568320970692304673817341489688361316354",
        "55464657044963196816950587289035428064568320970692304673817341489688361316353",
        "55464657044963196816950587289035428064568320970692304673817341489688361316352"
      ]
    },
    {
      "x": 270,
      "y": 395,
      "size": 1,
      "price": "4683000000000000000000",
      "reserved": "",
      "salt": "0x666653803628f278375c633a782408bc913c3e84c748a064359298883d0d4c5d",
      "assetIds": [
        "55464657044963196816950587289035428064568320970692304673817341489688361316356",
        "55464657044963196816950587289035428064568320970692304673817341489688361316355",
        "55464657044963196816950587289035428064568320970692304673817341489688361316354",
        "55464657044963196816950587289035428064568320970692304673817341489688361316352"
      ]
    },
    {
      "x": 271,
      "y": 390,
      "size": 1,
      "price": "4683000000000000000000",
      "reserved": "",
      "salt": "0x39a75b62d4ec39d0660383f6877a61a001058535bfe8e2635ab3bb9464f147a4",
      "assetIds": [
        "55464657044963196816950587289035428064568320970692304673817341489688361316356",
        "55464657044963196816950587289035428064568320970692304673817341489688361316354",
        "55464657044963196816950587289035428064568320970692304673817341489688361316353",
        "55464657044963196816950587289035428064568320970692304673817341489688361316352"
      ]
    },
    {
      "x": 271,
      "y": 391,
      "size": 1,
      "price": "4683000000000000000000",
      "reserved": "",
      "salt": "0xd8145c8798bb5c61035d223d32b6f6a2b4fb3a08a79f94f11056739711426dfc",
      "assetIds": [
        "55464657044963196816950587289035428064568320970692304673817341489688361316357",
        "55464657044963196816950587289035428064568320970692304673817341489688361316355",
        "55464657044963196816950587289035428064568320970692304673817341489688361316353",
        "55464657044963196816950587289035428064568320970692304673817341489688361316352"
      ]
    },
    {
      "x": 271,
      "y": 392,
      "size": 1,
      "price": "4683000000000000000000",
      "reserved": "",
      "salt": "0x7e47be72fe87d6e580ea3e45129fbe8e7f7e2c694677c33dcb90af93e69d78e9",
      "assetIds": [
        "55464657044963196816950587289035428064568320970692304673817341489688361316356",
        "55464657044963196816950587289035428064568320970692304673817341489688361316354",
        "55464657044963196816950587289035428064568320970692304673817341489688361316353",
        "55464657044963196816950587289035428064568320970692304673817341489688361316352"
      ]
    },
    {
      "x": 271,
      "y": 393,
      "size": 1,
      "price": "4683000000000000000000",
      "reserved": "",
      "salt": "0x141f03e74d4a6d31cb6e24ceadc3803178e3420859f25458ef82425910220686",
      "assetIds": [
        "55464657044963196816950587289035428064568320970692304673817341489688361316356",
        "55464657044963196816950587289035428064568320970692304673817341489688361316355",
        "55464657044963196816950587289035428064568320970692304673817341489688361316354",
        "55464657044963196816950587289035428064568320970692304673817341489688361316352"
      ]
    },
    {
      "x": 271,
      "y": 394,
      "size": 1,
      "price": "4683000000000000000000",
      "reserved": "",
      "salt": "0x4b315e2cebbe4d2db671e60542894587b9cc87a5c47ccb8e49971091026534c0",
      "assetIds": [
        "55464657044963196816950587289035428064568320970692304673817341489688361316356",
        "55464657044963196816950587289035428064568320970692304673817341489688361316355",
        "55464657044963196816950587289035428064568320970692304673817341489688361316354",
        "55464657044963196816950587289035428064568320970692304673817341489688361316352"
      ]
    },
    {
      "x": 271,
      "y": 395,
      "size": 1,
      "price": "4683000000000000000000",
      "reserved": "",
      "salt": "0x166309c6770a8dc43d6dafe046c88de67d2caf4464e9778564ae2ae68cf1e4dc",
      "assetIds": [
        "55464657044963196816950587289035428064568320970692304673817341489688361316357",
        "55464657044963196816950587289035428064568320970692304673817341489688361316355",
        "55464657044963196816950587289035428064568320970692304673817341489688361316353",
        "55464657044963196816950587289035428064568320970692304673817341489688361316352"
      ]
    },
    {
      "x": 272,
      "y": 390,
      "size": 1,
      "price": "4683000000000000000000",
      "reserved": "",
      "salt": "0xff9e73de709a769b55cd014b89736646d9dae5098900b2c6313737e43957400d",
      "assetIds": [
        "55464657044963196816950587289035428064568320970692304673817341489688361316355",
        "55464657044963196816950587289035428064568320970692304673817341489688361316354",
        "55464657044963196816950587289035428064568320970692304673817341489688361316353",
        "55464657044963196816950587289035428064568320970692304673817341489688361316352"
      ]
    },
    {
      "x": 272,
      "y": 391,
      "size": 1,
      "price": "4683000000000000000000",
      "reserved": "",
      "salt": "0x0d7449c18f552fafd7c5f29cacb883770dd2af397472180ef395cca8eedfed02",
      "assetIds": [
        "55464657044963196816950587289035428064568320970692304673817341489688361316355",
        "55464657044963196816950587289035428064568320970692304673817341489688361316354",
        "55464657044963196816950587289035428064568320970692304673817341489688361316353",
        "55464657044963196816950587289035428064568320970692304673817341489688361316352"
      ]
    },
    {
      "x": 272,
      "y": 392,
      "size": 1,
      "price": "4683000000000000000000",
      "reserved": "",
      "salt": "0xb99aa6c61a0b1178e18a79e64da132b1236239dfbf8fb3dc8406fc1a4502b959",
      "assetIds": [
        "55464657044963196816950587289035428064568320970692304673817341489688361316357",
        "55464657044963196816950587289035428064568320970692304673817341489688361316355",
        "55464657044963196816950587289035428064568320970692304673817341489688361316354",
        "55464657044963196816950587289035428064568320970692304673817341489688361316353"
      ]
    },
    {
      "x": 272,
      "y": 393,
      "size": 1,
      "price": "4683000000000000000000",
      "reserved": "",
      "salt": "0x8dbb3565140e533b980e4a41b26d233f5c5f3aeebe19220e61ccff34793802ba",
      "assetIds": [
        "55464657044963196816950587289035428064568320970692304673817341489688361316357",
        "55464657044963196816950587289035428064568320970692304673817341489688361316355",
        "55464657044963196816950587289035428064568320970692304673817341489688361316353",
        "55464657044963196816950587289035428064568320970692304673817341489688361316352"
      ]
    },
    {
      "x": 272,
      "y": 394,
      "size": 1,
      "price": "4683000000000000000000",
      "reserved": "",
      "salt": "0x8a73305f3ab233a5c40d7c25a17244a023d7cae087a2cdf7f7a91cfddf5372ca",
      "assetIds": [
        "55464657044963196816950587289035428064568320970692304673817341489688361316356",
        "55464657044963196816950587289035428064568320970692304673817341489688361316354",
        "55464657044963196816950587289035428064568320970692304673817341489688361316353",
        "55464657044963196816950587289035428064568320970692304673817341489688361316352"
      ]
    },
    {
      "x": 272,
      "y": 395,
      "size": 1,
      "price": "4683000000000000000000",
      "reserved": "",
      "salt": "0x5c2f4a1c9c43c70af66019da1d64718e37b14b1a6ff7260d60573b9b80bf3aaa",
      "assetIds": [
        "55464657044963196816950587289035428064568320970692304673817341489688361316357",
        "55464657044963196816950587289035428064568320970692304673817341489688361316355",
        "55464657044963196816950587289035428064568320970692304673817341489688361316354",
        "55464657044963196816950587289035428064568320970692304673817341489688361316353"
      ]
    },
    {
      "x": 273,
      "y": 393,
      "size": 1,
      "price": "4683000000000000000000",
      "reserved": "",
      "salt": "0xd0af96bfe0b94af64e406e0d0f51d7fd06cfb165e00c2b8e5a883dbc637d828a",
      "assetIds": [
        "55464657044963196816950587289035428064568320970692304673817341489688361316356",
        "55464657044963196816950587289035428064568320970692304673817341489688361316354",
        "55464657044963196816950587289035428064568320970692304673817341489688361316353",
        "55464657044963196816950587289035428064568320970692304673817341489688361316352"
      ]
    },
    {
      "x": 273,
      "y": 394,
      "size": 1,
      "price": "4683000000000000000000",
      "reserved": "",
      "salt": "0xbf874a5f6b812c4f3ed53e78b881fb2cf17e743523ee4aaff2332e7333be3849",
      "assetIds": [
        "55464657044963196816950587289035428064568320970692304673817341489688361316357",
        "55464657044963196816950587289035428064568320970692304673817341489688361316355",
        "55464657044963196816950587289035428064568320970692304673817341489688361316354",
        "55464657044963196816950587289035428064568320970692304673817341489688361316353"
      ]
    },
    {
      "x": 273,
      "y": 395,
      "size": 1,
      "price": "4683000000000000000000",
      "reserved": "",
      "salt": "0x6ac74ad39e22197b1554ade33c387889b0d431c3dbc136e7cd9e71e71fba6ec3",
      "assetIds": [
        "55464657044963196816950587289035428064568320970692304673817341489688361316357",
        "55464657044963196816950587289035428064568320970692304673817341489688361316355",
        "55464657044963196816950587289035428064568320970692304673817341489688361316353",
        "55464657044963196816950587289035428064568320970692304673817341489688361316352"
      ]
    },
    {
      "x": 274,
      "y": 393,
      "size": 1,
      "price": "4683000000000000000000",
      "reserved": "",
      "salt": "0x3e8041bf8f05bd72b3d529de6f8b98fdaba80ae942a8f760e1bac9349f2094fb",
      "assetIds": [
        "55464657044963196816950587289035428064568320970692304673817341489688361316356",
        "55464657044963196816950587289035428064568320970692304673817341489688361316354",
        "55464657044963196816950587289035428064568320970692304673817341489688361316353",
        "55464657044963196816950587289035428064568320970692304673817341489688361316352"
      ]
    },
    {
      "x": 274,
      "y": 394,
      "size": 1,
      "price": "4683000000000000000000",
      "reserved": "",
      "salt": "0x8091898cd40f6cc193605f82ae51f1b83ea300e0876b65dabc8118bb15b1e96a",
      "assetIds": [
        "55464657044963196816950587289035428064568320970692304673817341489688361316357",
        "55464657044963196816950587289035428064568320970692304673817341489688361316355",
        "55464657044963196816950587289035428064568320970692304673817341489688361316353",
        "55464657044963196816950587289035428064568320970692304673817341489688361316352"
      ]
    },
    {
      "x": 274,
      "y": 395,
      "size": 1,
      "price": "4683000000000000000000",
      "reserved": "",
      "salt": "0x867b7811a11b238ff1e85e38d5e220dd2fbb1519799bda51be052779b5492504",
      "assetIds": [
        "55464657044963196816950587289035428064568320970692304673817341489688361316356",
        "55464657044963196816950587289035428064568320970692304673817341489688361316355",
        "55464657044963196816950587289035428064568320970692304673817341489688361316354",
        "55464657044963196816950587289035428064568320970692304673817341489688361316352"
      ]
    },
    {
      "x": 275,
      "y": 393,
      "size": 1,
      "price": "4683000000000000000000",
      "reserved": "",
      "salt": "0xed1b3243c1db3d29ef8aea80a1a8cc0c17347cfea7874b8314016a4cda8ee9ec",
      "assetIds": [
        "55464657044963196816950587289035428064568320970692304673817341489688361316356",
        "55464657044963196816950587289035428064568320970692304673817341489688361316354",
        "55464657044963196816950587289035428064568320970692304673817341489688361316353",
        "55464657044963196816950587289035428064568320970692304673817341489688361316352"
      ]
    },
    {
      "x": 275,
      "y": 394,
      "size": 1,
      "price": "4683000000000000000000",
      "reserved": "",
      "salt": "0xd227fe4af1da48e580d9148c42f4e41d13cb64660f73ac79047cb5536520f406",
      "assetIds": [
        "55464657044963196816950587289035428064568320970692304673817341489688361316357",
        "55464657044963196816950587289035428064568320970692304673817341489688361316355",
        "55464657044963196816950587289035428064568320970692304673817341489688361316354",
        "55464657044963196816950587289035428064568320970692304673817341489688361316353"
      ]
    },
    {
      "x": 275,
      "y": 395,
      "size": 1,
      "price": "4683000000000000000000",
      "reserved": "",
      "salt": "0xf0015ee1026baf593f650c4d7c2d2b2ae9f94bc97b730e92b4b8c9c0daf4d305",
      "assetIds": [
        "55464657044963196816950587289035428064568320970692304673817341489688361316357",
        "55464657044963196816950587289035428064568320970692304673817341489688361316355",
        "55464657044963196816950587289035428064568320970692304673817341489688361316354",
        "55464657044963196816950587289035428064568320970692304673817341489688361316353"
      ]
    },
    {
      "x": 276,
      "y": 390,
      "size": 1,
      "price": "4683000000000000000000",
      "reserved": "",
      "salt": "0xe2f9eb16bb9b6d74469800775d93134c8718f2132e09ed85be8231c6b5a4a0d0",
      "assetIds": [
        "55464657044963196816950587289035428064568320970692304673817341489688361316357",
        "55464657044963196816950587289035428064568320970692304673817341489688361316355",
        "55464657044963196816950587289035428064568320970692304673817341489688361316354",
        "55464657044963196816950587289035428064568320970692304673817341489688361316353"
      ]
    },
    {
      "x": 276,
      "y": 391,
      "size": 1,
      "price": "4683000000000000000000",
      "reserved": "",
      "salt": "0x925e1fb3a6f48d3efde24ea5e14df884dcf5c5377365e253b0387df1dec678d3",
      "assetIds": [
        "55464657044963196816950587289035428064568320970692304673817341489688361316356",
        "55464657044963196816950587289035428064568320970692304673817341489688361316354",
        "55464657044963196816950587289035428064568320970692304673817341489688361316353",
        "55464657044963196816950587289035428064568320970692304673817341489688361316352"
      ]
    },
    {
      "x": 276,
      "y": 392,
      "size": 1,
      "price": "4683000000000000000000",
      "reserved": "",
      "salt": "0x852a1a784967d1ff6481d63713946882d053916c57a9321bd46934dedaf219a0",
      "assetIds": [
        "55464657044963196816950587289035428064568320970692304673817341489688361316355",
        "55464657044963196816950587289035428064568320970692304673817341489688361316354",
        "55464657044963196816950587289035428064568320970692304673817341489688361316353",
        "55464657044963196816950587289035428064568320970692304673817341489688361316352"
      ]
    },
    {
      "x": 276,
      "y": 393,
      "size": 1,
      "price": "4683000000000000000000",
      "reserved": "",
      "salt": "0x1f377916d22f5defbed09c307a5f27b092f048212dc7ea4ccad133ea441d002d",
      "assetIds": [
        "55464657044963196816950587289035428064568320970692304673817341489688361316357",
        "55464657044963196816950587289035428064568320970692304673817341489688361316355",
        "55464657044963196816950587289035428064568320970692304673817341489688361316354",
        "55464657044963196816950587289035428064568320970692304673817341489688361316353"
      ]
    },
    {
      "x": 276,
      "y": 394,
      "size": 1,
      "price": "4683000000000000000000",
      "reserved": "",
      "salt": "0xe14cbe4be4f7195a2729c2bb2886410f3ecf313b6b837a6f2a924c728b70dfe6",
      "assetIds": [
        "55464657044963196816950587289035428064568320970692304673817341489688361316357",
        "55464657044963196816950587289035428064568320970692304673817341489688361316355",
        "55464657044963196816950587289035428064568320970692304673817341489688361316354",
        "55464657044963196816950587289035428064568320970692304673817341489688361316353"
      ]
    },
    {
      "x": 276,
      "y": 395,
      "size": 1,
      "price": "4683000000000000000000",
      "reserved": "",
      "salt": "0x64b6008fdbb8eecbcbce1bf54a56e7f81230057e7cf158e20a1e1b8d9c3a6942",
      "assetIds": [
        "55464657044963196816950587289035428064568320970692304673817341489688361316356",
        "55464657044963196816950587289035428064568320970692304673817341489688361316355",
        "55464657044963196816950587289035428064568320970692304673817341489688361316354",
        "55464657044963196816950587289035428064568320970692304673817341489688361316352"
      ]
    },
    {
      "x": 277,
      "y": 390,
      "size": 1,
      "price": "4683000000000000000000",
      "reserved": "",
      "salt": "0x75c6bfd69b5e7621ed48eeab37a0a97b40bc5d6af810431724db3a25ff07b5b9",
      "assetIds": [
        "55464657044963196816950587289035428064568320970692304673817341489688361316355",
        "55464657044963196816950587289035428064568320970692304673817341489688361316354",
        "55464657044963196816950587289035428064568320970692304673817341489688361316353",
        "55464657044963196816950587289035428064568320970692304673817341489688361316352"
      ]
    },
    {
      "x": 277,
      "y": 391,
      "size": 1,
      "price": "4683000000000000000000",
      "reserved": "",
      "salt": "0xae23b5ed98bb4ce571e3c632adbb62ddd54bff19b7fcf5c24fcf3ca781d692fd",
      "assetIds": [
        "55464657044963196816950587289035428064568320970692304673817341489688361316357",
        "55464657044963196816950587289035428064568320970692304673817341489688361316355",
        "55464657044963196816950587289035428064568320970692304673817341489688361316353",
        "55464657044963196816950587289035428064568320970692304673817341489688361316352"
      ]
    },
    {
      "x": 277,
      "y": 392,
      "size": 1,
      "price": "4683000000000000000000",
      "reserved": "",
      "salt": "0xb9f13adac4ed3e077b1e3f1412b13078e329bdd71bd668feb83ccf8e512244a0",
      "assetIds": [
        "55464657044963196816950587289035428064568320970692304673817341489688361316356",
        "55464657044963196816950587289035428064568320970692304673817341489688361316355",
        "55464657044963196816950587289035428064568320970692304673817341489688361316354",
        "55464657044963196816950587289035428064568320970692304673817341489688361316352"
      ]
    },
    {
      "x": 277,
      "y": 393,
      "size": 1,
      "price": "4683000000000000000000",
      "reserved": "",
      "salt": "0xf1d3d03764f0bbc22dcce33f9ee90a6e8859f65eea5899f4a1a82178a27163d0",
      "assetIds": [
        "55464657044963196816950587289035428064568320970692304673817341489688361316356",
        "55464657044963196816950587289035428064568320970692304673817341489688361316355",
        "55464657044963196816950587289035428064568320970692304673817341489688361316354",
        "55464657044963196816950587289035428064568320970692304673817341489688361316352"
      ]
    },
    {
      "x": 277,
      "y": 394,
      "size": 1,
      "price": "4683000000000000000000",
      "reserved": "",
      "salt": "0x3e2b4971172cf7a852a569f0af599f48c6ff11b7eb3ba9a524814358cc559682",
      "assetIds": [
        "55464657044963196816950587289035428064568320970692304673817341489688361316356",
        "55464657044963196816950587289035428064568320970692304673817341489688361316355",
        "55464657044963196816950587289035428064568320970692304673817341489688361316354",
        "55464657044963196816950587289035428064568320970692304673817341489688361316352"
      ]
    },
    {
      "x": 277,
      "y": 395,
      "size": 1,
      "price": "4683000000000000000000",
      "reserved": "",
      "salt": "0x2e3e964e9025e78eb0b27885cf4ef4f53af85d0f36e692cde37bb7d2ad359520",
      "assetIds": [
        "55464657044963196816950587289035428064568320970692304673817341489688361316357",
        "55464657044963196816950587289035428064568320970692304673817341489688361316355",
        "55464657044963196816950587289035428064568320970692304673817341489688361316353",
        "55464657044963196816950587289035428064568320970692304673817341489688361316352"
      ]
    },
    {
      "x": 278,
      "y": 390,
      "size": 1,
      "price": "1011000000000000000000",
      "reserved": "",
      "salt": "0x0af076992fab64f6ef66c64ebbcc2aff121d0062b67fce24b16de4ae5572be8b",
      "assetIds": []
    },
    {
      "x": 278,
      "y": 391,
      "size": 1,
      "price": "4683000000000000000000",
      "reserved": "",
      "salt": "0x11f96bc3a5bed08e1cca12c84be22daa32d915e1ed794dc36f144048db76dc0f",
      "assetIds": [
        "55464657044963196816950587289035428064568320970692304673817341489688361316355",
        "55464657044963196816950587289035428064568320970692304673817341489688361316354",
        "55464657044963196816950587289035428064568320970692304673817341489688361316353",
        "55464657044963196816950587289035428064568320970692304673817341489688361316352"
      ]
    },
    {
      "x": 278,
      "y": 392,
      "size": 1,
      "price": "4683000000000000000000",
      "reserved": "",
      "salt": "0xb3bda35c75d3f148dc5a82eae24bdbea3492204857a26edd62f82cbe857e7702",
      "assetIds": [
        "55464657044963196816950587289035428064568320970692304673817341489688361316356",
        "55464657044963196816950587289035428064568320970692304673817341489688361316355",
        "55464657044963196816950587289035428064568320970692304673817341489688361316354",
        "55464657044963196816950587289035428064568320970692304673817341489688361316352"
      ]
    },
    {
      "x": 278,
      "y": 393,
      "size": 1,
      "price": "4683000000000000000000",
      "reserved": "",
      "salt": "0x42a9f1e18cb3595caa5391782aa8285f37819d244a3856ef6f7445a36baf0978",
      "assetIds": [
        "55464657044963196816950587289035428064568320970692304673817341489688361316355",
        "55464657044963196816950587289035428064568320970692304673817341489688361316354",
        "55464657044963196816950587289035428064568320970692304673817341489688361316353",
        "55464657044963196816950587289035428064568320970692304673817341489688361316352"
      ]
    },
    {
      "x": 278,
      "y": 394,
      "size": 1,
      "price": "4683000000000000000000",
      "reserved": "",
      "salt": "0x74b530e2d6e128ad06442a0b8a69fa076c1fad78c6ea460216a586785013536b",
      "assetIds": [
        "55464657044963196816950587289035428064568320970692304673817341489688361316357",
        "55464657044963196816950587289035428064568320970692304673817341489688361316355",
        "55464657044963196816950587289035428064568320970692304673817341489688361316353",
        "55464657044963196816950587289035428064568320970692304673817341489688361316352"
      ]
    },
    {
      "x": 278,
      "y": 395,
      "size": 1,
      "price": "4683000000000000000000",
      "reserved": "",
      "salt": "0x794c9704db44affd45faf0f49e0b0e884390276f47adf8f61488cd77d7e729b2",
      "assetIds": [
        "55464657044963196816950587289035428064568320970692304673817341489688361316356",
        "55464657044963196816950587289035428064568320970692304673817341489688361316354",
        "55464657044963196816950587289035428064568320970692304673817341489688361316353",
        "55464657044963196816950587289035428064568320970692304673817341489688361316352"
      ]
    },
    {
      "x": 279,
      "y": 387,
      "size": 1,
      "price": "1011000000000000000000",
      "reserved": "",
      "salt": "0xc644be033f9c1b0f3b18a3582a6c4f9f47a5bf26356dc0c72385c72b28525705",
      "assetIds": []
    },
    {
      "x": 279,
      "y": 388,
      "size": 1,
      "price": "1011000000000000000000",
      "reserved": "",
      "salt": "0xd6cb65535b775fe33f30803190d8ac7da72b17d8241fba51795364d3b6b86a5f",
      "assetIds": []
    },
    {
      "x": 279,
      "y": 389,
      "size": 1,
      "price": "1011000000000000000000",
      "reserved": "",
      "salt": "0x9bd657ba01ee39c946f108828055490f6cfdbde03704b7307b63287e4d784df1",
      "assetIds": []
    },
    {
      "x": 279,
      "y": 390,
      "size": 1,
      "price": "1011000000000000000000",
      "reserved": "",
      "salt": "0x03e93fdc4c92c48706c531a4ecc840f4dee39a0bee218959dc20f910f4471449",
      "assetIds": []
    },
    {
      "x": 279,
      "y": 391,
      "size": 1,
      "price": "4683000000000000000000",
      "reserved": "",
      "salt": "0x70ce995d3f85e80f7eb25655221a9ae5eec8d7d6388a7b14719156e14763dc39",
      "assetIds": [
        "55464657044963196816950587289035428064568320970692304673817341489688361316355",
        "55464657044963196816950587289035428064568320970692304673817341489688361316354",
        "55464657044963196816950587289035428064568320970692304673817341489688361316353",
        "55464657044963196816950587289035428064568320970692304673817341489688361316352"
      ]
    },
    {
      "x": 279,
      "y": 392,
      "size": 1,
      "price": "4683000000000000000000",
      "reserved": "",
      "salt": "0x5eecf3817bb3ac185eec6b175a50342efbb6ae06322ac0903df2e9e1e9fecaf9",
      "assetIds": [
        "55464657044963196816950587289035428064568320970692304673817341489688361316356",
        "55464657044963196816950587289035428064568320970692304673817341489688361316355",
        "55464657044963196816950587289035428064568320970692304673817341489688361316354",
        "55464657044963196816950587289035428064568320970692304673817341489688361316352"
      ]
    },
    {
      "x": 280,
      "y": 387,
      "size": 1,
      "price": "1011000000000000000000",
      "reserved": "",
      "salt": "0x3565b226b13014d6e73b3d65a059f0fceff0784d5d8ad4216fffcbf61bbef3b7",
      "assetIds": []
    },
    {
      "x": 280,
      "y": 388,
      "size": 1,
      "price": "4683000000000000000000",
      "reserved": "",
      "salt": "0x5e4081da703ee460e14f005cdbb46caff4ec63dfeff8fecb501c59080a9a44fc",
      "assetIds": [
        "55464657044963196816950587289035428064568320970692304673817341489688361316357",
        "55464657044963196816950587289035428064568320970692304673817341489688361316355",
        "55464657044963196816950587289035428064568320970692304673817341489688361316353",
        "55464657044963196816950587289035428064568320970692304673817341489688361316352"
      ]
    },
    {
      "x": 280,
      "y": 389,
      "size": 1,
      "price": "4683000000000000000000",
      "reserved": "",
      "salt": "0xa746ae83cde391ed9d26e5848d4c2cc5be95e3dd5777f6ef4520213a4909f86a",
      "assetIds": [
        "55464657044963196816950587289035428064568320970692304673817341489688361316356",
        "55464657044963196816950587289035428064568320970692304673817341489688361316354",
        "55464657044963196816950587289035428064568320970692304673817341489688361316353",
        "55464657044963196816950587289035428064568320970692304673817341489688361316352"
      ]
    },
    {
      "x": 280,
      "y": 390,
      "size": 1,
      "price": "4683000000000000000000",
      "reserved": "",
      "salt": "0x2262f7081b875de1021c75ac2e577a0df8758fe07633da18f073c4bdfd0ed2a5",
      "assetIds": [
        "55464657044963196816950587289035428064568320970692304673817341489688361316357",
        "55464657044963196816950587289035428064568320970692304673817341489688361316355",
        "55464657044963196816950587289035428064568320970692304673817341489688361316353",
        "55464657044963196816950587289035428064568320970692304673817341489688361316352"
      ]
    },
    {
      "x": 280,
      "y": 391,
      "size": 1,
      "price": "4683000000000000000000",
      "reserved": "",
      "salt": "0xd70458829860d5f63882d6c1d0d73d9664a302d24be7d84bac5e4ae1cf8a7b08",
      "assetIds": [
        "55464657044963196816950587289035428064568320970692304673817341489688361316357",
        "55464657044963196816950587289035428064568320970692304673817341489688361316355",
        "55464657044963196816950587289035428064568320970692304673817341489688361316354",
        "55464657044963196816950587289035428064568320970692304673817341489688361316353"
      ]
    },
    {
      "x": 280,
      "y": 392,
      "size": 1,
      "price": "4683000000000000000000",
      "reserved": "",
      "salt": "0x8dd51100478f275565db1c4571abc468eee92a336fd06d13532775a9ea7a7210",
      "assetIds": [
        "55464657044963196816950587289035428064568320970692304673817341489688361316356",
        "55464657044963196816950587289035428064568320970692304673817341489688361316355",
        "55464657044963196816950587289035428064568320970692304673817341489688361316354",
        "55464657044963196816950587289035428064568320970692304673817341489688361316352"
      ]
    },
    {
      "x": 281,
      "y": 387,
      "size": 1,
      "price": "1011000000000000000000",
      "reserved": "",
      "salt": "0x4af3f42994f18a6b46b37b81654118e9e2bed436c4b0a0a13fb5794b20c9615f",
      "assetIds": []
    },
    {
      "x": 281,
      "y": 388,
      "size": 1,
      "price": "4683000000000000000000",
      "reserved": "",
      "salt": "0x11ec926dbac900b5489bddb9b06484b1459e86efa1e57dad0233f1aa5b389787",
      "assetIds": [
        "55464657044963196816950587289035428064568320970692304673817341489688361316356",
        "55464657044963196816950587289035428064568320970692304673817341489688361316355",
        "55464657044963196816950587289035428064568320970692304673817341489688361316354",
        "55464657044963196816950587289035428064568320970692304673817341489688361316352"
      ]
    },
    {
      "x": 281,
      "y": 389,
      "size": 1,
      "price": "4683000000000000000000",
      "reserved": "",
      "salt": "0xb5945ed3a6417adf207e27f3142d14bfb8c15c6510b5653dc4d918cde927386c",
      "assetIds": [
        "55464657044963196816950587289035428064568320970692304673817341489688361316357",
        "55464657044963196816950587289035428064568320970692304673817341489688361316355",
        "55464657044963196816950587289035428064568320970692304673817341489688361316353",
        "55464657044963196816950587289035428064568320970692304673817341489688361316352"
      ]
    },
    {
      "x": 281,
      "y": 390,
      "size": 1,
      "price": "4683000000000000000000",
      "reserved": "",
      "salt": "0x31e79fac62c46ac764861b9a0747f72ce2a54895eab7cf2ff6e563456520d0d1",
      "assetIds": [
        "55464657044963196816950587289035428064568320970692304673817341489688361316357",
        "55464657044963196816950587289035428064568320970692304673817341489688361316355",
        "55464657044963196816950587289035428064568320970692304673817341489688361316353",
        "55464657044963196816950587289035428064568320970692304673817341489688361316352"
      ]
    },
    {
      "x": 281,
      "y": 391,
      "size": 1,
      "price": "4683000000000000000000",
      "reserved": "",
      "salt": "0xaecb968130e1b93b31699f65441911c4bc9e9244bc79a46df3e09e0f0e69c452",
      "assetIds": [
        "55464657044963196816950587289035428064568320970692304673817341489688361316355",
        "55464657044963196816950587289035428064568320970692304673817341489688361316354",
        "55464657044963196816950587289035428064568320970692304673817341489688361316353",
        "55464657044963196816950587289035428064568320970692304673817341489688361316352"
      ]
    },
    {
      "x": 281,
      "y": 392,
      "size": 1,
      "price": "4683000000000000000000",
      "reserved": "",
      "salt": "0x00f9bde5f9ab34bf801bcb2935d7154702284ba0b65390bd7036e95e74ec8b20",
      "assetIds": [
        "55464657044963196816950587289035428064568320970692304673817341489688361316355",
        "55464657044963196816950587289035428064568320970692304673817341489688361316354",
        "55464657044963196816950587289035428064568320970692304673817341489688361316353",
        "55464657044963196816950587289035428064568320970692304673817341489688361316352"
      ]
    },
    {
      "x": 282,
      "y": 387,
      "size": 1,
      "price": "1011000000000000000000",
      "reserved": "",
      "salt": "0x4be6a8a45b4026dd0a1557c90a38a80083732713da0ce6348f616efc7cbd78a7",
      "assetIds": []
    },
    {
      "x": 282,
      "y": 388,
      "size": 1,
      "price": "4683000000000000000000",
      "reserved": "",
      "salt": "0x8e19b9d83a099613463460228e4b1967ee4adaa7a7e155c29fae77ded7aab428",
      "assetIds": [
        "55464657044963196816950587289035428064568320970692304673817341489688361316356",
        "55464657044963196816950587289035428064568320970692304673817341489688361316354",
        "55464657044963196816950587289035428064568320970692304673817341489688361316353",
        "55464657044963196816950587289035428064568320970692304673817341489688361316352"
      ]
    },
    {
      "x": 282,
      "y": 389,
      "size": 1,
      "price": "4683000000000000000000",
      "reserved": "",
      "salt": "0x35dea191558eac938d1f2423467d04ae18c90dfdc5b02e7316e6d543d9d02f21",
      "assetIds": [
        "55464657044963196816950587289035428064568320970692304673817341489688361316357",
        "55464657044963196816950587289035428064568320970692304673817341489688361316355",
        "55464657044963196816950587289035428064568320970692304673817341489688361316354",
        "55464657044963196816950587289035428064568320970692304673817341489688361316353"
      ]
    },
    {
      "x": 283,
      "y": 387,
      "size": 1,
      "price": "1011000000000000000000",
      "reserved": "",
      "salt": "0x8699b4ce531a05292e7d922d6763706fb62057ec272ac41342484d72808313b9",
      "assetIds": []
    },
    {
      "x": 283,
      "y": 388,
      "size": 1,
      "price": "4683000000000000000000",
      "reserved": "",
      "salt": "0x707c88788c4411d89382907addc23a16202d2a39557c8eec314f5c9e116600c4",
      "assetIds": [
        "55464657044963196816950587289035428064568320970692304673817341489688361316355",
        "55464657044963196816950587289035428064568320970692304673817341489688361316354",
        "55464657044963196816950587289035428064568320970692304673817341489688361316353",
        "55464657044963196816950587289035428064568320970692304673817341489688361316352"
      ]
    },
    {
      "x": 283,
      "y": 389,
      "size": 1,
      "price": "4683000000000000000000",
      "reserved": "",
      "salt": "0x72a73a6de48aef05bcb7e15521afce2a1d5709081bd9d6f4c267cd27bce81678",
      "assetIds": [
        "55464657044963196816950587289035428064568320970692304673817341489688361316355",
        "55464657044963196816950587289035428064568320970692304673817341489688361316354",
        "55464657044963196816950587289035428064568320970692304673817341489688361316353",
        "55464657044963196816950587289035428064568320970692304673817341489688361316352"
      ]
    },
    {
      "x": 284,
      "y": 387,
      "size": 1,
      "price": "1011000000000000000000",
      "reserved": "",
      "salt": "0x300980869be6a2004b86994cc5da537d0d508f335747755f132d500d4eed2431",
      "assetIds": []
    },
    {
      "x": 284,
      "y": 388,
      "size": 1,
      "price": "4683000000000000000000",
      "reserved": "",
      "salt": "0x0a4f837a0091be15cb76ae151312f9e96b8973a68fae979fe164b4422e0fd6ad",
      "assetIds": [
        "55464657044963196816950587289035428064568320970692304673817341489688361316355",
        "55464657044963196816950587289035428064568320970692304673817341489688361316354",
        "55464657044963196816950587289035428064568320970692304673817341489688361316353",
        "55464657044963196816950587289035428064568320970692304673817341489688361316352"
      ]
    },
    {
      "x": 284,
      "y": 389,
      "size": 1,
      "price": "4683000000000000000000",
      "reserved": "",
      "salt": "0x87bc30150029206eecaefbdb62196d027714d787b6adce50291658c0c870166a",
      "assetIds": [
        "55464657044963196816950587289035428064568320970692304673817341489688361316356",
        "55464657044963196816950587289035428064568320970692304673817341489688361316354",
        "55464657044963196816950587289035428064568320970692304673817341489688361316353",
        "55464657044963196816950587289035428064568320970692304673817341489688361316352"
      ]
    },
    {
      "x": 285,
      "y": 386,
      "size": 1,
      "price": "1011000000000000000000",
      "reserved": "",
      "salt": "0x6f278d3e59f76d5c89da96170a0cebb28064f069d5624ed2fde71d9e2db7c2d8",
      "assetIds": []
    },
    {
      "x": 286,
      "y": 386,
      "size": 1,
      "price": "1011000000000000000000",
      "reserved": "",
      "salt": "0x1bd22d974252a130721bd5ce8390df5482d6ef9951251e2fc8097354fb70739d",
      "assetIds": []
    },
    {
      "x": 287,
      "y": 386,
      "size": 1,
      "price": "1011000000000000000000",
      "reserved": "",
      "salt": "0x27f187375b45ac46ccefd7852a4b676f3705942f1f8a4f4b5ad21698fa804d0c",
      "assetIds": []
    },
    {
      "x": 255,
      "y": 396,
      "size": 3,
      "price": "8648000000000000000000",
      "reserved": "0x7a9fe22691c811ea339d9b73150e6911a5343dca",
      "salt": "0x01b752bcb1129b9a1d1bc2f30cd708e15aaf26e706e01178c8784d1d90d779f7",
      "assetIds": []
    },
    {
      "x": 255,
      "y": 402,
      "size": 3,
      "price": "8648000000000000000000",
      "reserved": "0x7a9fe22691c811ea339d9b73150e6911a5343dca",
      "salt": "0x1d1e990454268d8c39382155af3fdf78211de7c8aa4097c15af91a99db0757c8",
      "assetIds": []
    },
    {
      "x": 258,
      "y": 396,
      "size": 3,
      "price": "8648000000000000000000",
      "reserved": "0x7a9fe22691c811ea339d9b73150e6911a5343dca",
      "salt": "0x8ed770b7a95f950a32beeb5ec95c893aaf761f824710dffdfc1c57c1005e953d",
      "assetIds": []
    },
    {
      "x": 261,
      "y": 399,
      "size": 3,
      "price": "8648000000000000000000",
      "reserved": "0x7a9fe22691c811ea339d9b73150e6911a5343dca",
      "salt": "0xeacd490573897131d8928401e9e3705dd27df8079629e491eedc1f18198fd0bc",
      "assetIds": []
    },
    {
      "x": 267,
      "y": 387,
      "size": 3,
      "price": "8648000000000000000000",
      "reserved": "0x7a9fe22691c811ea339d9b73150e6911a5343dca",
      "salt": "0xdeca46a5c96bca3ae7a66bc6b8707589e07b3d357454596b9d90dbd27873a7d5",
      "assetIds": []
    },
    {
      "x": 267,
      "y": 393,
      "size": 3,
      "price": "8648000000000000000000",
      "reserved": "0x7a9fe22691c811ea339d9b73150e6911a5343dca",
      "salt": "0xb5d9a64480f1a8409288c852bf817a56e4b6b39683e9064f0a2dd16c59d4e083",
      "assetIds": []
    },
    {
      "x": 270,
      "y": 387,
      "size": 3,
      "price": "8648000000000000000000",
      "reserved": "0x7a9fe22691c811ea339d9b73150e6911a5343dca",
      "salt": "0x4bad465f9d47b10396aa31800d74e68f34f7db426aba607343f7c7b1f18b1a24",
      "assetIds": []
    },
    {
      "x": 273,
      "y": 387,
      "size": 3,
      "price": "8648000000000000000000",
      "reserved": "0x7a9fe22691c811ea339d9b73150e6911a5343dca",
      "salt": "0xd64a123e805acf3a411ec4524f6c8a7ea70512549de6700d5ea16182e27b02d1",
      "assetIds": []
    },
    {
      "x": 273,
      "y": 390,
      "size": 3,
      "price": "8648000000000000000000",
      "reserved": "0x7a9fe22691c811ea339d9b73150e6911a5343dca",
      "salt": "0x1e2454eecdba478771477e9ec1a87420eaed1393e75d60191ace50144cd57dc1",
      "assetIds": []
    },
    {
      "x": 276,
      "y": 387,
      "size": 3,
      "price": "8648000000000000000000",
      "reserved": "0x7a9fe22691c811ea339d9b73150e6911a5343dca",
      "salt": "0x12626164667156e9cc8b9378c5f36643908d6a5d7c6d25b5d71d174d82d42b98",
      "assetIds": []
    },
    {
      "x": 279,
      "y": 393,
      "size": 3,
      "price": "8648000000000000000000",
      "reserved": "0x7a9fe22691c811ea339d9b73150e6911a5343dca",
      "salt": "0x8814d43d08b962ef895e6a3086cf4416d27fd98e9a8dce6f555f297f3ec193bc",
      "assetIds": []
    },
    {
      "x": 285,
      "y": 387,
      "size": 3,
      "price": "8648000000000000000000",
      "reserved": "0x7a9fe22691c811ea339d9b73150e6911a5343dca",
      "salt": "0x08415aabdfc4af32ff6c0339986c32f1e5efedfa7e8dcda39363addc87c03988",
      "assetIds": []
    },
    {
      "x": 258,
      "y": 402,
      "size": 6,
      "price": "32772000000000000000000",
      "reserved": "0x7a9fe22691c811ea339d9b73150e6911a5343dca",
      "salt": "0x676025bba52a511daca2b0acddbd0d7b2f33ba775e05436116b9e2072c422f33",
      "assetIds": []
    },
    {
      "x": 282,
      "y": 390,
      "size": 6,
      "price": "32772000000000000000000",
      "reserved": "0x7a9fe22691c811ea339d9b73150e6911a5343dca",
      "salt": "0x53d51a85f6d7710b3335fa4091206c9975d2df2c7a07c847b82a4300aaf58c8f",
      "assetIds": []
    },
    {
      "x": 264,
      "y": 396,
      "size": 12,
      "price": "123806000000000000000000",
      "reserved": "0x7a9fe22691c811ea339d9b73150e6911a5343dca",
      "salt": "0xe7bb03424b1a297b12d0f9dc0580ab7617775e37e441b64bda6040a721967479",
      "assetIds": []
    },
    {
      "x": 276,
      "y": 396,
      "size": 12,
      "price": "123806000000000000000000",
      "reserved": "0x7a9fe22691c811ea339d9b73150e6911a5343dca",
      "salt": "0xc5815a3af7e6eaa820c03aefc743535c9bac6fe18bf87e073f972cca1953e8b3",
      "assetIds": []
    },
    {
      "x": 288,
      "y": 384,
      "size": 24,
      "price": "466102000000000000000000",
      "reserved": "0x7a9fe22691c811ea339d9b73150e6911a5343dca",
      "salt": "0xc64c9e4f80b7b35088d7e568e8b8fbd6380479451e324290831a8e7f8d738bbe",
      "assetIds": []
    },
    {
      "x": 336,
      "y": 384,
      "size": 24,
      "price": "466102000000000000000000",
      "reserved": "0x7a9fe22691c811ea339d9b73150e6911a5343dca",
      "salt": "0x9fe859327aa9082347fef8465f9cc5e543fe001dc48cb1fdd4bf2f069c582a4c",
      "assetIds": []
    }
  ],
  "solcInputHash": "e17a5bb930c92aaeeb80a52119ce77b7",
  "bytecode": "0x610160604052620d2f0060055534801561001857600080fd5b506040516200284d3803806200284d83398181016040526101a081101561003e57600080fd5b50805160208201516040830151606080850151608086015160a08088015160c0808a015160e08b01516101008c01516101208d01516101408e01516101608f0151610180909f0151600280546001600160a01b0319166001600160a01b03871617905560038490558e8c1b6001600160601b03199081169099529a8d901b9097169094529a9b999a98999698959793969195909490939091906100e28b600161015d565b600680546001600160a01b039a8b166001600160a01b031991821617909155610140989098526101209690965260008054998916998816999099179098556001600160601b0319606092831b811660e05290821b811660805296901b909516610100525060078054919093169116179055506101c192505050565b6001600160a01b038216600081815260016020908152604091829020805460ff191685151590811790915582519384529083015280517fb21eb88b4e33b3f1281830a7178d74d8aa73220416215726b68ae23d539515cb9281900390910190a15050565b60805160601c60a05160601c60c05160601c60e05160601c6101005160601c61012051610140516126066200024760003980610b3d528061206c525080610b1952806112ec5250806120da525080611841528061199e5250806117f75280611b9d528061210e525080611872528061196f525080610eb25280611c8952506126066000f3fe608060405234801561001057600080fd5b506004361061011b5760003560e01c80638f283970116100b2578063c10a420811610081578063dc5074af11610066578063dc5074af1461085f578063e56f8a9e14610885578063f23a6e61146108a25761011b565b8063c10a420814610780578063caed3500146108575761011b565b80638f28397014610500578063984d625214610526578063b522ecff146105f8578063bc197c811461061e5761011b565b806365194ce7116100ee57806365194ce7146103485780636e9960c3146104a657806377f1c3ac146104ca5780638a04af6a146104d25761011b565b80631187fd3c1461012057806325cb5bc014610300578063495906571461031a57806358bc294414610322575b600080fd5b6102fe600480360361012081101561013757600080fd5b6001600160a01b038235811692602081013582169260408201359092169181019060808101606082013564010000000081111561017357600080fd5b82018360208201111561018557600080fd5b803590602001918460208302840111640100000000831117156101a757600080fd5b919390928235926040810190602001356401000000008111156101c957600080fd5b8201836020820111156101db57600080fd5b803590602001918460208302840111640100000000831117156101fd57600080fd5b91939092909160208101903564010000000081111561021b57600080fd5b82018360208201111561022d57600080fd5b8035906020019184602083028401116401000000008311171561024f57600080fd5b91939092909160208101903564010000000081111561026d57600080fd5b82018360208201111561027f57600080fd5b803590602001918460018302840111640100000000831117156102a157600080fd5b9193909290916020810190356401000000008111156102bf57600080fd5b8201836020820111156102d157600080fd5b803590602001918460018302840111640100000000831117156102f357600080fd5b509092509050610937565b005b610308610b17565b60408051918252519081900360200190f35b610308610b3b565b6102fe6004803603602081101561033857600080fd5b50356001600160a01b0316610b5f565b6103ee6004803603602081101561035e57600080fd5b81019060208101813564010000000081111561037957600080fd5b82018360208201111561038b57600080fd5b803590602001918460018302840111640100000000831117156103ad57600080fd5b91908080601f016020809104026020016040519081016040528093929190818152602001838380828437600092019190915250929550610c0a945050505050565b6040518080602001866001600160a01b03166001600160a01b03168152602001856001600160a01b03166001600160a01b03168152602001848152602001838152602001828103825287818151815260200191508051906020019080838360005b8381101561046757818101518382015260200161044f565b50505050905090810190601f1680156104945780820380516001836020036101000a031916815260200191505b50965050505050505060405180910390f35b6104ae610d0f565b604080516001600160a01b039092168252519081900360200190f35b610308610d1e565b6102fe600480360360408110156104e857600080fd5b506001600160a01b0381351690602001351515610d24565b6102fe6004803603602081101561051657600080fd5b50356001600160a01b0316610d7b565b6102fe6004803603606081101561053c57600080fd5b6001600160a01b03823516919081019060408101602082013564010000000081111561056757600080fd5b82018360208201111561057957600080fd5b8035906020019184602083028401116401000000008311171561059b57600080fd5b9193909290916020810190356401000000008111156105b957600080fd5b8201836020820111156105cb57600080fd5b803590602001918460208302840111640100000000831117156105ed57600080fd5b509092509050610e51565b6102fe6004803603602081101561060e57600080fd5b50356001600160a01b0316610fdc565b61074b600480360360a081101561063457600080fd5b6001600160a01b03823581169260208101359091169181019060608101604082013564010000000081111561066857600080fd5b82018360208201111561067a57600080fd5b8035906020019184602083028401116401000000008311171561069c57600080fd5b9193909290916020810190356401000000008111156106ba57600080fd5b8201836020820111156106cc57600080fd5b803590602001918460208302840111640100000000831117156106ee57600080fd5b91939092909160208101903564010000000081111561070c57600080fd5b82018360208201111561071e57600080fd5b8035906020019184600183028401116401000000008311171561074057600080fd5b5090925090506110c5565b604080517fffffffff000000000000000000000000000000000000000000000000000000009092168252519081900360200190f35b610843600480360360a081101561079657600080fd5b8101906020810181356401000000008111156107b157600080fd5b8201836020820111156107c357600080fd5b803590602001918460018302840111640100000000831117156107e557600080fd5b91908080601f016020809104026020016040519081016040528093929190818152602001838380828437600092019190915250929550506001600160a01b0383358116945060208401351692604081013592506060013590506110f2565b604080519115158252519081900360200190f35b6104ae61122e565b6108436004803603602081101561087557600080fd5b50356001600160a01b031661123d565b6102fe6004803603602081101561089b57600080fd5b503561125b565b61074b600480360360a08110156108b857600080fd5b6001600160a01b03823581169260208101359091169160408201359160608101359181019060a0810160808201356401000000008111156108f857600080fd5b82018360208201111561090a57600080fd5b8035906020019184600183028401116401000000008311171561092c57600080fd5b5090925090506112bf565b6109418e8d6112ea565b610a388d8d8d8d80806020026020016040519081016040528093929190818152602001838360200280828437600081840152601f19601f820116905080830192505050505050508c8c8c80806020026020016040519081016040528093929190818152602001838360200280828437600081840152601f19601f820116905080830192505050505050508b8b8080602002602001604051908101604052809392919081815260200183836020028082843760009201919091525050604080516020601f8d018190048102820181019092528b815292508b91508a908190840183828082843760009201919091525061144d92505050565b610a8c8e8c8c6003818110610a4957fe5b9050602002013586868080601f0160208091040260200160405190810160405280939291908181526020018383808284376000920191909152506117d092505050565b610aca8e8e8d8d8080602002602001604051908101604052809392919081815260200183836020028082843760009201919091525061182192505050565b610b078d898980806020026020016040519081016040528093929190818152602001838360200280828437600092019190915250611c1292505050565b5050505050505050505050505050565b7f000000000000000000000000000000000000000000000000000000000000000090565b7f000000000000000000000000000000000000000000000000000000000000000090565b6000546001600160a01b03163314610bbe576040805162461bcd60e51b815260206004820152601060248201527f53656e646572206e6f742061646d696e00000000000000000000000000000000604482015290519081900360640190fd5b600554600280546001600160a01b03908116600090815260046020526040902042909301909255805473ffffffffffffffffffffffffffffffffffffffff191692909116919091179055565b606060008060008060606000806000808a80602001905160a0811015610c2f57600080fd5b8101908080516040519392919084640100000000821115610c4f57600080fd5b908301906020820185811115610c6457600080fd5b8251640100000000811182820188101715610c7e57600080fd5b82525081516020918201929091019080838360005b83811015610cab578181015183820152602001610c93565b50505050905090810190601f168015610cd85780820380516001836020036101000a031916815260200191505b5060409081526020820151908201516060830151608090930151959f50909d509b5099509197505050505050505091939590929450565b6000546001600160a01b031690565b60035490565b6000546001600160a01b03163314610d6d5760405162461bcd60e51b815260040180806020018281038252602e8152602001806125a3602e913960400191505060405180910390fd5b610d778282611dd6565b5050565b6000546001600160a01b03163314610dda576040805162461bcd60e51b815260206004820152601b60248201527f6f6e6c792061646d696e2063616e206368616e67652061646d696e0000000000604482015290519081900360640190fd5b600054604080516001600160a01b039283168152918316602083015280517f7e644d79422f17c01e4894b5f4f588d331ebfa28653d42ae832dc59e38c9798f9281900390910190a16000805473ffffffffffffffffffffffffffffffffffffffff19166001600160a01b0392909216919091179055565b6000546001600160a01b03163314610eb0576040805162461bcd60e51b815260206004820152600e60248201527f4e4f545f415554484f52495a4544000000000000000000000000000000000000604482015290519081900360640190fd5b7f00000000000000000000000000000000000000000000000000000000000000006001600160a01b0316632eb2c2d63087878787876040518763ffffffff1660e01b815260040180876001600160a01b03166001600160a01b03168152602001866001600160a01b03166001600160a01b031681526020018060200180602001806020018481038452888882818152602001925060200280828437600083820152601f01601f19169091018581038452868152602090810191508790870280828437600081840152601f19601f8201169050808301925050508481038252600081526020016020019950505050505050505050600060405180830381600087803b158015610fbd57600080fd5b505af1158015610fd1573d6000803e3d6000fd5b505050505050505050565b6001600160a01b038116611037576040805162461bcd60e51b815260206004820152600c60248201527f5a45524f5f414444524553530000000000000000000000000000000000000000604482015290519081900360640190fd5b6000546001600160a01b03163314611096576040805162461bcd60e51b815260206004820152600e60248201527f4e4f545f415554484f52495a4544000000000000000000000000000000000000604482015290519081900360640190fd5b6006805473ffffffffffffffffffffffffffffffffffffffff19166001600160a01b0392909216919091179055565b7fbc197c810000000000000000000000000000000000000000000000000000000098975050505050505050565b60006003548211806111155750836001600160a01b0316856001600160a01b0316145b8061111f57508242115b1561112c57506000611225565b60408051606087811b7fffffffffffffffffffffffffffffffffffffffff0000000000000000000000009081166020808501919091529188901b166034830152604882018690526068808301869052835180840390910181526088830184528051908201207f19457468657265756d205369676e6564204d6573736167653a0a33320000000060a884015260c48084018290528451808503909101815260e490930190935281519101206000906111e39089611e58565b6001600160a01b038116600090815260046020526040902054909150421161121057600192505050611225565b6002546001600160a01b039081169116149150505b95945050505050565b6002546001600160a01b031690565b6001600160a01b031660009081526001602052604090205460ff1690565b6000546001600160a01b031633146112ba576040805162461bcd60e51b815260206004820152601060248201527f53656e646572206e6f742061646d696e00000000000000000000000000000000604482015290519081900360640190fd5b600355565b7ff23a6e61000000000000000000000000000000000000000000000000000000009695505050505050565b7f0000000000000000000000000000000000000000000000000000000000000000421061135e576040805162461bcd60e51b815260206004820152600c60248201527f53414c455f49535f4f5645520000000000000000000000000000000000000000604482015290519081900360640190fd5b6001600160a01b03821633148061138457503360009081526001602052604090205460ff165b6113d5576040805162461bcd60e51b815260206004820152600e60248201527f4e4f545f415554484f52495a4544000000000000000000000000000000000000604482015290519081900360640190fd5b6001600160a01b03811615806113fc5750816001600160a01b0316816001600160a01b0316145b610d77576040805162461bcd60e51b815260206004820152600d60248201527f52455345525645445f4c414e4400000000000000000000000000000000000000604482015290519081900360640190fd5b600087878760008151811061145e57fe5b60200260200101518860018151811061147357fe5b60200260200101518960028151811061148857fe5b60200260200101518a60038151811061149d57fe5b60200260200101518a8a60405160200180828051906020019060200280838360005b838110156114d75781810151838201526020016114bf565b50505050905001915050604051602081830303815290604052805190602001208a60405160200180828051906020019060200280838360005b83811015611528578181015183820152602001611510565b5050505090500191505060405160208183030381529060405280519060200120604051602001808a6001600160a01b03166001600160a01b031660601b8152601401896001600160a01b03166001600160a01b031660601b81526014018881526020018781526020018681526020018581526020018481526020018381526020018281526020019950505050505050505050604051602081830303815290604052805190602001209050600760009054906101000a90046001600160a01b03166001600160a01b031663012847ed83836040518363ffffffff1660e01b81526004018080602001838152602001828103825284818151815260200191508051906020019080838360005b8381101561164a578181015183820152602001611632565b50505050905090810190601f1680156116775780820380516001836020036101000a031916815260200191505b50935050505060206040518083038186803b15801561169557600080fd5b505afa1580156116a9573d6000803e3d6000fd5b505050506040513d60208110156116bf57600080fd5b5051611712576040805162461bcd60e51b815260206004820152600c60248201527f494e56414c49445f415554480000000000000000000000000000000000000000604482015290519081900360640190fd5b60006117738760008151811061172457fe5b60200260200101518860018151811061173957fe5b60200260200101518960028151811061174e57fe5b60200260200101518a60038151811061176357fe5b60200260200101518c8b8b611f25565b905061177f8482611fca565b610fd1576040805162461bcd60e51b815260206004820152600c60248201527f494e56414c49445f4c414e440000000000000000000000000000000000000000604482015290519081900360640190fd5b60006117dc8484612095565b60065490915061181b908590839085906001600160a01b03167f00000000000000000000000000000000000000000000000000000000000000006121ee565b50505050565b8060028151811061182e57fe5b60200260200101516001148061186b57507f00000000000000000000000000000000000000000000000000000000000000006001600160a01b0316155b1561196d577f00000000000000000000000000000000000000000000000000000000000000006001600160a01b0316636e1e3bbf83836002815181106118ad57fe5b6020026020010151846000815181106118c257fe5b6020026020010151856001815181106118d757fe5b60200260200101516040518563ffffffff1660e01b815260040180856001600160a01b03166001600160a01b031681526020018481526020018381526020018281526020018060200182810382526000815260200160200195505050505050600060405180830381600087803b15801561195057600080fd5b505af1158015611964573d6000803e3d6000fd5b50505050611b0d565b7f00000000000000000000000000000000000000000000000000000000000000006001600160a01b0316636e1e3bbf7f0000000000000000000000000000000000000000000000000000000000000000836002815181106119ca57fe5b6020026020010151846000815181106119df57fe5b6020026020010151856001815181106119f457fe5b60200260200101518760405160200180826001600160a01b03166001600160a01b031681526020019150506040516020818303038152906040526040518663ffffffff1660e01b815260040180866001600160a01b03166001600160a01b0316815260200185815260200184815260200183815260200180602001828103825283818151815260200191508051906020019080838360005b83811015611aa4578181015183820152602001611a8c565b50505050905090810190601f168015611ad15780820380516001836020036101000a031916815260200191505b509650505050505050600060405180830381600087803b158015611af457600080fd5b505af1158015611b08573d6000803e3d6000fd5b505050505b61019881600181518110611b1d57fe5b60200260200101510281600081518110611b3357fe5b602002602001015101826001600160a01b0316846001600160a01b03167fe4dfa6ac11314892f3029b34a25b1a887da3b1cab2bbf8506d87128ba6e3ac0284600281518110611b7e57fe5b602002602001015185600381518110611b9357fe5b60200260200101517f000000000000000000000000000000000000000000000000000000000000000087600381518110611bc957fe5b602002602001015160405180858152602001848152602001836001600160a01b03166001600160a01b0316815260200182815260200194505050505060405180910390a4505050565b6060815167ffffffffffffffff81118015611c2c57600080fd5b50604051908082528060200260200182016040528015611c56578160200160208202803683370190505b50905060005b8251811015611c86576001828281518110611c7357fe5b6020908102919091010152600101611c5c565b507f00000000000000000000000000000000000000000000000000000000000000006001600160a01b0316632eb2c2d6308585856040518563ffffffff1660e01b815260040180856001600160a01b03166001600160a01b03168152602001846001600160a01b03166001600160a01b03168152602001806020018060200180602001848103845286818151815260200191508051906020019060200280838360005b83811015611d41578181015183820152602001611d29565b50505050905001848103835285818151815260200191508051906020019060200280838360005b83811015611d80578181015183820152602001611d68565b50505050905001848103825260008152602001602001975050505050505050600060405180830381600087803b158015611db957600080fd5b505af1158015611dcd573d6000803e3d6000fd5b50505050505050565b6001600160a01b03821660008181526001602090815260409182902080547fffffffffffffffffffffffffffffffffffffffffffffffffffffffffffffff001685151590811790915582519384529083015280517fb21eb88b4e33b3f1281830a7178d74d8aa73220416215726b68ae23d539515cb9281900390910190a15050565b60008151604114611e6857600080fd5b60208201516040830151606084015160001a601b811015611e8757601b015b8060ff16601b1480611e9c57508060ff16601c145b611ea557600080fd5b6040805160008152602080820180845289905260ff8416828401526060820186905260808201859052915160019260a0808401939192601f1981019281900390910190855afa158015611efc573d6000803e3d6000fd5b5050604051601f1901519450506001600160a01b038416611f1c57600080fd5b50505092915050565b60008787878787878760405160200180888152602001878152602001868152602001858152602001846001600160a01b03166001600160a01b031660601b8152601401838152602001828051906020019060200280838360005b83811015611f97578181015183820152602001611f7f565b50505050905001975050505050505050604051602081830303815290604052805190602001209050979650505050505050565b600081815b8451811015612069576000858281518110611fe657fe5b602002602001015190508083101561202e5782816040516020018083815260200182815260200192505050604051602081830303815290604052805190602001209250612060565b808360405160200180838152602001828152602001925050506040516020818303038152906040528051906020012092505b50600101611fcf565b507f00000000000000000000000000000000000000000000000000000000000000001490505b92915050565b6000806120ba60646120ae85600563ffffffff61247016565b9063ffffffff6124e016565b604080516323b872dd60e01b81526001600160a01b0387811660048301527f0000000000000000000000000000000000000000000000000000000000000000811660248301526044820184905291519293507f0000000000000000000000000000000000000000000000000000000000000000909116916323b872dd916064808201926020929091908290030181600087803b15801561215957600080fd5b505af115801561216d573d6000803e3d6000fd5b505050506040513d602081101561218357600080fd5b50516121d6576040805162461bcd60e51b815260206004820152601360248201527f4645455f5452414e534645525f4641494c454400000000000000000000000000604482015290519081900360640190fd5b6121e6838263ffffffff61254516565b949350505050565b8251819085901561239857606060008060008061220a8a610c0a565b939850919650945092509050600061222586868686866110f2565b156122b35761223f6122378d84612470565b6127106124e0565b9050886001600160a01b0316846001600160a01b0316866001600160a01b03167fac7a699eb95c3c6d390ec4626de17ef9a67b35891efdb197beba7c7fdd45fac48f858760405180848152602001838152602001828152602001935050505060405180910390a46122b08782612545565b96505b801561239157604080516323b872dd60e01b81526001600160a01b038f811660048301528781166024830152604482018490529151918a16916323b872dd916064808201926020929091908290030181600087803b15801561231457600080fd5b505af1158015612328573d6000803e3d6000fd5b505050506040513d602081101561233e57600080fd5b5051612391576040805162461bcd60e51b815260206004820152601960248201527f636f6d6d6973696f6e207472616e73666572206661696c656400000000000000604482015290519081900360640190fd5b5050505050505b604080516323b872dd60e01b81526001600160a01b0389811660048301528681166024830152604482018490529151918416916323b872dd916064808201926020929091908290030181600087803b1580156123f357600080fd5b505af1158015612407573d6000803e3d6000fd5b505050506040513d602081101561241d57600080fd5b5051611dcd576040805162461bcd60e51b815260206004820152601760248201527f7061796d656e74207472616e73666572206661696c6564000000000000000000604482015290519081900360640190fd5b60008261247f5750600061208f565b508181028183828161248d57fe5b041461208f576040805162461bcd60e51b815260206004820152600860248201527f6f766572666c6f77000000000000000000000000000000000000000000000000604482015290519081900360640190fd5b600081612534576040805162461bcd60e51b815260206004820152600960248201527f64697662797a65726f0000000000000000000000000000000000000000000000604482015290519081900360640190fd5b81838161253d57fe5b049392505050565b60008282111561259c576040805162461bcd60e51b815260206004820152600860248201527f756e6465666c6f77000000000000000000000000000000000000000000000000604482015290519081900360640190fd5b5090039056fe6f6e6c792061646d696e2063616e207365747570206d6574615472616e73616374696f6e50726f636573736f7273a2646970667358221220fc9205bafc138c1de206481f144dc3e7818922fbe1a20d2a71392e5e2e413c1a64736f6c63430006050033",
  "devdoc": {
    "methods": {
      "buyLandWithSand(address,address,address,uint256[],bytes32,uint256[],bytes32[],bytes,bytes)": {
        "params": {
          "buyer": "address that perform the payment",
          "info": "[X_INDEX=0] x coordinate of the Land [Y_INDEX=1] y coordinate of the Land [SIZE_INDEX=2] size of the pack of Land to purchase [PRICE_INDEX=3] price in SAND to purchase that Land",
          "proof": "merkleProof for that particular Land",
          "reserved": "the reserved address (if any)",
          "to": "address that will own the purchased Land"
        }
      },
      "changeAdmin(address)": {
        "details": "change the administrator to be `newAdmin`.",
        "params": {
          "newAdmin": "address of the new administrator."
        }
      },
      "getAdmin()": {
        "details": "gives the current administrator of this contract.",
        "returns": {
          "_0": "the current administrator of this contract."
        }
      },
      "getSigningWallet()": {
        "details": "signing wallet authorized for referral",
        "returns": {
          "_0": "the address of the signing wallet"
        }
      },
      "isMetaTransactionProcessor(address)": {
        "details": "check whether address `who` is given meta-transaction execution rights.",
        "params": {
          "who": "The address to query."
        },
        "returns": {
          "_0": "whether the address has meta-transaction execution rights."
        }
      },
      "isReferralValid(bytes,address,address,uint256,uint256)": {
        "params": {
          "commissionRate": "The commissionRate of the referral",
          "expiryTime": "The expiry time of the referral",
          "referee": "The address of the referee",
          "referrer": "The address of the referrer",
          "signature": "The signature to check (signed referral)"
        },
        "returns": {
          "_0": "True if the referral is valid"
        }
      },
      "setMetaTransactionProcessor(address,bool)": {
        "details": "Enable or disable the ability of `metaTransactionProcessor` to perform meta-tx (metaTransactionProcessor rights).",
        "params": {
          "enabled": "set whether the metaTransactionProcessor is enabled or disabled.",
          "metaTransactionProcessor": "address that will be given/removed metaTransactionProcessor rights."
        }
      },
      "setReceivingWallet(address)": {
        "params": {
          "newWallet": "address of the new receiving wallet"
        }
      },
      "updateMaxCommissionRate(uint256)": {
        "details": "Update the maximum commission rate",
        "params": {
          "newMaxCommissionRate": "The new maximum commission rate"
        }
      },
      "updateSigningWallet(address)": {
        "details": "Update the signing wallet",
        "params": {
          "newSigningWallet": "The new address of the signing wallet"
        }
      },
      "withdrawAssets(address,uint256[],uint256[])": {
        "params": {
          "assetIds": "the assetIds to be transferred",
          "to": "intended recipient of the asset tokens",
          "values": "the quantities of the assetIds to be transferred"
        }
      }
    },
    "title": "Estate Sale contract with referral"
  },
  "userdoc": {
    "methods": {
      "buyLandWithSand(address,address,address,uint256[],bytes32,uint256[],bytes32[],bytes,bytes)": {
        "notice": "buy Land with SAND using the merkle proof associated with it"
      },
      "getExpiryTime()": {
        "notice": "Gets the expiry time for the current sale"
      },
      "getMaxCommisionRate()": {
        "notice": "the max commision rate"
      },
      "getMerkleRoot()": {
        "notice": "Gets the Merkle root associated with the current sale"
      },
      "isReferralValid(bytes,address,address,uint256,uint256)": {
        "notice": "Check if a referral is valid"
      },
      "setReceivingWallet(address)": {
        "notice": "set the wallet receiving the proceeds"
      },
      "withdrawAssets(address,uint256[],uint256[])": {
        "notice": "enable Admin to withdraw remaining assets from EstateSaleWithFee contract"
      }
    },
    "notice": "This contract manages the sale of our lands as Estates"
  },
  "storageLayout": {
    "storage": [
      {
        "astId": 13650,
        "contract": "src/solc_0.6/EstateSale/EstateSaleWithAuth.sol:EstateSaleWithAuth",
        "label": "_admin",
        "offset": 0,
        "slot": "0",
        "type": "t_address"
      },
      {
        "astId": 13712,
        "contract": "src/solc_0.6/EstateSale/EstateSaleWithAuth.sol:EstateSaleWithAuth",
        "label": "_metaTransactionContracts",
        "offset": 0,
        "slot": "1",
        "type": "t_mapping(t_address,t_bool)"
      },
      {
        "astId": 11828,
        "contract": "src/solc_0.6/EstateSale/EstateSaleWithAuth.sol:EstateSaleWithAuth",
        "label": "_signingWallet",
        "offset": 0,
        "slot": "2",
        "type": "t_address"
      },
      {
        "astId": 11830,
        "contract": "src/solc_0.6/EstateSale/EstateSaleWithAuth.sol:EstateSaleWithAuth",
        "label": "_maxCommissionRate",
        "offset": 0,
        "slot": "3",
        "type": "t_uint256"
      },
      {
        "astId": 11834,
        "contract": "src/solc_0.6/EstateSale/EstateSaleWithAuth.sol:EstateSaleWithAuth",
        "label": "_previousSigningWallets",
        "offset": 0,
        "slot": "4",
        "type": "t_mapping(t_address,t_uint256)"
      },
      {
        "astId": 11843,
        "contract": "src/solc_0.6/EstateSale/EstateSaleWithAuth.sol:EstateSaleWithAuth",
        "label": "_previousSigningDelay",
        "offset": 0,
        "slot": "5",
        "type": "t_uint256"
      },
      {
        "astId": 7453,
        "contract": "src/solc_0.6/EstateSale/EstateSaleWithAuth.sol:EstateSaleWithAuth",
        "label": "_wallet",
        "offset": 0,
        "slot": "6",
        "type": "t_address_payable"
      },
      {
        "astId": 7455,
        "contract": "src/solc_0.6/EstateSale/EstateSaleWithAuth.sol:EstateSaleWithAuth",
        "label": "_authValidator",
        "offset": 0,
        "slot": "7",
        "type": "t_contract(AuthValidator)6784"
      }
    ],
    "types": {
      "t_address": {
        "encoding": "inplace",
        "label": "address",
        "numberOfBytes": "20"
      },
      "t_address_payable": {
        "encoding": "inplace",
        "label": "address payable",
        "numberOfBytes": "20"
      },
      "t_bool": {
        "encoding": "inplace",
        "label": "bool",
        "numberOfBytes": "1"
      },
      "t_contract(AuthValidator)6784": {
        "encoding": "inplace",
        "label": "contract AuthValidator",
        "numberOfBytes": "20"
      },
      "t_mapping(t_address,t_bool)": {
        "encoding": "mapping",
        "key": "t_address",
        "label": "mapping(address => bool)",
        "numberOfBytes": "32",
        "value": "t_bool"
      },
      "t_mapping(t_address,t_uint256)": {
        "encoding": "mapping",
        "key": "t_address",
        "label": "mapping(address => uint256)",
        "numberOfBytes": "32",
        "value": "t_uint256"
      },
      "t_uint256": {
        "encoding": "inplace",
        "label": "uint256",
        "numberOfBytes": "32"
      }
    }
  }
}