{
  "address": "0x6eac45dFeDD29a5396a864cD02E7fd4a3F919966",
  "abi": [
    {
      "inputs": [
        {
          "internalType": "address",
          "name": "landAddress",
          "type": "address"
        },
        {
          "internalType": "address",
          "name": "sandContractAddress",
          "type": "address"
        },
        {
          "internalType": "address",
          "name": "initialMetaTx",
          "type": "address"
        },
        {
          "internalType": "address",
          "name": "admin",
          "type": "address"
        },
        {
          "internalType": "address payable",
          "name": "initialWalletAddress",
          "type": "address"
        },
        {
          "internalType": "bytes32",
          "name": "merkleRoot",
          "type": "bytes32"
        },
        {
          "internalType": "uint256",
          "name": "expiryTime",
          "type": "uint256"
        },
        {
          "internalType": "address",
          "name": "initialSigningWallet",
          "type": "address"
        },
        {
          "internalType": "uint256",
          "name": "initialMaxCommissionRate",
          "type": "uint256"
        },
        {
          "internalType": "address",
          "name": "estate",
          "type": "address"
        },
        {
          "internalType": "address",
          "name": "asset",
          "type": "address"
        },
        {
          "internalType": "address",
          "name": "feeDistributor",
          "type": "address"
        }
      ],
      "stateMutability": "nonpayable",
      "type": "constructor"
    },
    {
      "anonymous": false,
      "inputs": [
        {
          "indexed": false,
          "internalType": "address",
          "name": "oldAdmin",
          "type": "address"
        },
        {
          "indexed": false,
          "internalType": "address",
          "name": "newAdmin",
          "type": "address"
        }
      ],
      "name": "AdminChanged",
      "type": "event"
    },
    {
      "anonymous": false,
      "inputs": [
        {
          "indexed": true,
          "internalType": "address",
          "name": "buyer",
          "type": "address"
        },
        {
          "indexed": true,
          "internalType": "address",
          "name": "to",
          "type": "address"
        },
        {
          "indexed": true,
          "internalType": "uint256",
          "name": "topCornerId",
          "type": "uint256"
        },
        {
          "indexed": false,
          "internalType": "uint256",
          "name": "size",
          "type": "uint256"
        },
        {
          "indexed": false,
          "internalType": "uint256",
          "name": "price",
          "type": "uint256"
        },
        {
          "indexed": false,
          "internalType": "address",
          "name": "token",
          "type": "address"
        },
        {
          "indexed": false,
          "internalType": "uint256",
          "name": "amountPaid",
          "type": "uint256"
        }
      ],
      "name": "LandQuadPurchased",
      "type": "event"
    },
    {
      "anonymous": false,
      "inputs": [
        {
          "indexed": false,
          "internalType": "address",
          "name": "metaTransactionProcessor",
          "type": "address"
        },
        {
          "indexed": false,
          "internalType": "bool",
          "name": "enabled",
          "type": "bool"
        }
      ],
      "name": "MetaTransactionProcessor",
      "type": "event"
    },
    {
      "anonymous": false,
      "inputs": [
        {
          "indexed": true,
          "internalType": "address",
          "name": "referrer",
          "type": "address"
        },
        {
          "indexed": true,
          "internalType": "address",
          "name": "referee",
          "type": "address"
        },
        {
          "indexed": true,
          "internalType": "address",
          "name": "token",
          "type": "address"
        },
        {
          "indexed": false,
          "internalType": "uint256",
          "name": "amount",
          "type": "uint256"
        },
        {
          "indexed": false,
          "internalType": "uint256",
          "name": "commission",
          "type": "uint256"
        },
        {
          "indexed": false,
          "internalType": "uint256",
          "name": "commissionRate",
          "type": "uint256"
        }
      ],
      "name": "ReferralUsed",
      "type": "event"
    },
    {
      "inputs": [
        {
          "internalType": "address",
          "name": "buyer",
          "type": "address"
        },
        {
          "internalType": "address",
          "name": "to",
          "type": "address"
        },
        {
          "internalType": "address",
          "name": "reserved",
          "type": "address"
        },
        {
          "internalType": "uint256",
          "name": "x",
          "type": "uint256"
        },
        {
          "internalType": "uint256",
          "name": "y",
          "type": "uint256"
        },
        {
          "internalType": "uint256",
          "name": "size",
          "type": "uint256"
        },
        {
          "internalType": "uint256",
          "name": "priceInSand",
          "type": "uint256"
        },
        {
          "internalType": "uint256",
          "name": "adjustedPriceInSand",
          "type": "uint256"
        },
        {
          "internalType": "bytes32",
          "name": "salt",
          "type": "bytes32"
        },
        {
          "internalType": "uint256[]",
          "name": "assetIds",
          "type": "uint256[]"
        },
        {
          "internalType": "bytes32[]",
          "name": "proof",
          "type": "bytes32[]"
        },
        {
          "internalType": "bytes",
          "name": "referral",
          "type": "bytes"
        }
      ],
      "name": "buyLandWithSand",
      "outputs": [],
      "stateMutability": "nonpayable",
      "type": "function"
    },
    {
      "inputs": [
        {
          "internalType": "address",
          "name": "newAdmin",
          "type": "address"
        }
      ],
      "name": "changeAdmin",
      "outputs": [],
      "stateMutability": "nonpayable",
      "type": "function"
    },
    {
      "inputs": [
        {
          "internalType": "bytes",
          "name": "referral",
          "type": "bytes"
        }
      ],
      "name": "decodeReferral",
      "outputs": [
        {
          "internalType": "bytes",
          "name": "",
          "type": "bytes"
        },
        {
          "internalType": "address",
          "name": "",
          "type": "address"
        },
        {
          "internalType": "address",
          "name": "",
          "type": "address"
        },
        {
          "internalType": "uint256",
          "name": "",
          "type": "uint256"
        },
        {
          "internalType": "uint256",
          "name": "",
          "type": "uint256"
        }
      ],
      "stateMutability": "pure",
      "type": "function"
    },
    {
      "inputs": [],
      "name": "getAdmin",
      "outputs": [
        {
          "internalType": "address",
          "name": "",
          "type": "address"
        }
      ],
      "stateMutability": "view",
      "type": "function"
    },
    {
      "inputs": [],
      "name": "getExpiryTime",
      "outputs": [
        {
          "internalType": "uint256",
          "name": "",
          "type": "uint256"
        }
      ],
      "stateMutability": "view",
      "type": "function"
    },
    {
      "inputs": [],
      "name": "getMaxCommisionRate",
      "outputs": [
        {
          "internalType": "uint256",
          "name": "",
          "type": "uint256"
        }
      ],
      "stateMutability": "view",
      "type": "function"
    },
    {
      "inputs": [],
      "name": "getMerkleRoot",
      "outputs": [
        {
          "internalType": "bytes32",
          "name": "",
          "type": "bytes32"
        }
      ],
      "stateMutability": "view",
      "type": "function"
    },
    {
      "inputs": [],
      "name": "getSandMultiplier",
      "outputs": [
        {
          "internalType": "uint256",
          "name": "",
          "type": "uint256"
        }
      ],
      "stateMutability": "view",
      "type": "function"
    },
    {
      "inputs": [],
      "name": "getSigningWallet",
      "outputs": [
        {
          "internalType": "address",
          "name": "",
          "type": "address"
        }
      ],
      "stateMutability": "view",
      "type": "function"
    },
    {
      "inputs": [
        {
          "internalType": "address",
          "name": "who",
          "type": "address"
        }
      ],
      "name": "isMetaTransactionProcessor",
      "outputs": [
        {
          "internalType": "bool",
          "name": "",
          "type": "bool"
        }
      ],
      "stateMutability": "view",
      "type": "function"
    },
    {
      "inputs": [
        {
          "internalType": "bytes",
          "name": "signature",
          "type": "bytes"
        },
        {
          "internalType": "address",
          "name": "referrer",
          "type": "address"
        },
        {
          "internalType": "address",
          "name": "referee",
          "type": "address"
        },
        {
          "internalType": "uint256",
          "name": "expiryTime",
          "type": "uint256"
        },
        {
          "internalType": "uint256",
          "name": "commissionRate",
          "type": "uint256"
        }
      ],
      "name": "isReferralValid",
      "outputs": [
        {
          "internalType": "bool",
          "name": "",
          "type": "bool"
        }
      ],
      "stateMutability": "view",
      "type": "function"
    },
    {
      "inputs": [
        {
          "internalType": "address",
          "name": "",
          "type": "address"
        },
        {
          "internalType": "address",
          "name": "",
          "type": "address"
        },
        {
          "internalType": "uint256[]",
          "name": "",
          "type": "uint256[]"
        },
        {
          "internalType": "uint256[]",
          "name": "",
          "type": "uint256[]"
        },
        {
          "internalType": "bytes",
          "name": "",
          "type": "bytes"
        }
      ],
      "name": "onERC1155BatchReceived",
      "outputs": [
        {
          "internalType": "bytes4",
          "name": "",
          "type": "bytes4"
        }
      ],
      "stateMutability": "pure",
      "type": "function"
    },
    {
      "inputs": [
        {
          "internalType": "address",
          "name": "",
          "type": "address"
        },
        {
          "internalType": "address",
          "name": "",
          "type": "address"
        },
        {
          "internalType": "uint256",
          "name": "",
          "type": "uint256"
        },
        {
          "internalType": "uint256",
          "name": "",
          "type": "uint256"
        },
        {
          "internalType": "bytes",
          "name": "",
          "type": "bytes"
        }
      ],
      "name": "onERC1155Received",
      "outputs": [
        {
          "internalType": "bytes4",
          "name": "",
          "type": "bytes4"
        }
      ],
      "stateMutability": "pure",
      "type": "function"
    },
    {
      "inputs": [
        {
          "internalType": "uint256",
          "name": "newMultiplier",
          "type": "uint256"
        }
      ],
      "name": "rebalanceSand",
      "outputs": [],
      "stateMutability": "nonpayable",
      "type": "function"
    },
    {
      "inputs": [
        {
          "internalType": "address",
          "name": "metaTransactionProcessor",
          "type": "address"
        },
        {
          "internalType": "bool",
          "name": "enabled",
          "type": "bool"
        }
      ],
      "name": "setMetaTransactionProcessor",
      "outputs": [],
      "stateMutability": "nonpayable",
      "type": "function"
    },
    {
      "inputs": [
        {
          "internalType": "address payable",
          "name": "newWallet",
          "type": "address"
        }
      ],
      "name": "setReceivingWallet",
      "outputs": [],
      "stateMutability": "nonpayable",
      "type": "function"
    },
    {
      "inputs": [
        {
          "internalType": "uint256",
          "name": "newMaxCommissionRate",
          "type": "uint256"
        }
      ],
      "name": "updateMaxCommissionRate",
      "outputs": [],
      "stateMutability": "nonpayable",
      "type": "function"
    },
    {
      "inputs": [
        {
          "internalType": "address",
          "name": "newSigningWallet",
          "type": "address"
        }
      ],
      "name": "updateSigningWallet",
      "outputs": [],
      "stateMutability": "nonpayable",
      "type": "function"
    },
    {
      "inputs": [
        {
          "internalType": "address",
          "name": "to",
          "type": "address"
        },
        {
          "internalType": "uint256[]",
          "name": "assetIds",
          "type": "uint256[]"
        },
        {
          "internalType": "uint256[]",
          "name": "values",
          "type": "uint256[]"
        }
      ],
      "name": "withdrawAssets",
      "outputs": [],
      "stateMutability": "nonpayable",
      "type": "function"
    }
  ],
  "transactionHash": "0x1f4c81cc0032a648013da823a838307dad49546602c4a0922d1c9456e987e45f",
  "args": [
    "0x50f5474724e0Ee42D9a4e711ccFB275809Fd6d4a",
    "0x3845badAde8e6dFF049820680d1F14bD3903a5d0",
    "0x3845badAde8e6dFF049820680d1F14bD3903a5d0",
    "0xEAA0993E1d21c2103e4f172a20D29371FbAF6D06",
    "0x4489590a116618B506F0EfE885432F6A8ED998E9",
    "0xe898c453e35f2e2b2a36bca62840c95fd1278ab3fbe6fac290bcd8d66872487e",
    1626958800,
    "0x3044719d139F866a44c988823513eCB93060bF1b",
    2000,
    "0x0000000000000000000000000000000000000000",
    "0xa342f5D851E866E18ff98F351f2c6637f4478dB5",
    "0x0EB04462D69B1D267d269377E34f60b9De1c8510"
  ],
  "linkedData": [
    {
      "x": 192,
      "y": 358,
      "size": 1,
      "price": "1011000000000000000000",
      "reserved": "",
      "salt": "0x15f34a21682dc49fae470c1ac7a3669952259f922b1aaff1b4b699d67cc22fe7",
      "assetIds": []
    },
    {
      "x": 192,
      "y": 359,
      "size": 1,
      "price": "1011000000000000000000",
      "reserved": "",
      "salt": "0xbc817726ab4c21f6dab0ce5c2a3c32e98b6d62ca2e18c2682e999dab828594ec",
      "assetIds": []
    },
    {
      "x": 193,
      "y": 358,
      "size": 1,
      "price": "1011000000000000000000",
      "reserved": "",
      "salt": "0x965b928d2fc2bbc745d3e83218d7aa3a07deb63cd8d6ed7a1e63f915d4cfa7b8",
      "assetIds": []
    },
    {
      "x": 193,
      "y": 359,
      "size": 1,
      "price": "1011000000000000000000",
      "reserved": "",
      "salt": "0x6faeddc77f856883ce85bec9dcaf435ab4d0d98ca7818520b8495f773ef79a23",
      "assetIds": []
    },
    {
      "x": 194,
      "y": 351,
      "size": 1,
      "price": "1011000000000000000000",
      "reserved": "0x7a9fe22691c811ea339d9b73150e6911a5343dca",
      "salt": "0x0152226933f5a2ab490b4762908425176cdebb16ec630975505bfc90b40d562a",
      "assetIds": []
    },
    {
      "x": 194,
      "y": 352,
      "size": 1,
      "price": "1011000000000000000000",
      "reserved": "0x7a9fe22691c811ea339d9b73150e6911a5343dca",
      "salt": "0x90c7923da9c042d20d44271fe9613a2f27d979fabcd7c9f96def448dbc233eab",
      "assetIds": []
    },
    {
      "x": 194,
      "y": 353,
      "size": 1,
      "price": "1011000000000000000000",
      "reserved": "",
      "salt": "0x53dfa38833ca8b4bd5e373242227256db3cde7226bd962c7ad90291b826f28c7",
      "assetIds": []
    },
    {
      "x": 194,
      "y": 354,
      "size": 1,
      "price": "1011000000000000000000",
      "reserved": "",
      "salt": "0x6a254defe0eb7ee032657b496d8714e72deccf330a8fcdc6ff64c09385c7a424",
      "assetIds": []
    },
    {
      "x": 194,
      "y": 355,
      "size": 1,
      "price": "1011000000000000000000",
      "reserved": "",
      "salt": "0x8d2651acc3b4df344e430f0d1eabeaf6e9a9797066418f3dce979a80d369a2c5",
      "assetIds": []
    },
    {
      "x": 194,
      "y": 358,
      "size": 1,
      "price": "1011000000000000000000",
      "reserved": "",
      "salt": "0x3099bbd074a31ce357369d25bcdbdd369bcb4f7d448830e0c14b1e3bf90a9f10",
      "assetIds": []
    },
    {
      "x": 194,
      "y": 359,
      "size": 1,
      "price": "1011000000000000000000",
      "reserved": "0x7a9fe22691c811ea339d9b73150e6911a5343dca",
      "salt": "0x638d142070d0f78308f7d8a775a31f8dd435079bca3250b8a8311a3396725475",
      "assetIds": []
    },
    {
      "x": 195,
      "y": 351,
      "size": 1,
      "price": "1011000000000000000000",
      "reserved": "",
      "salt": "0x7a7a0ce44246d4e9b73fda3185442eae1e7c0f284a240f4b909692a0fd37e3dd",
      "assetIds": []
    },
    {
      "x": 195,
      "y": 352,
      "size": 1,
      "price": "1011000000000000000000",
      "reserved": "",
      "salt": "0x8c89f5673b3ffa3e720700d586781f9bf6fb66be8b7acbc6412f56934fb2b5dc",
      "assetIds": []
    },
    {
      "x": 195,
      "y": 353,
      "size": 1,
      "price": "1011000000000000000000",
      "reserved": "",
      "salt": "0x6b556899770ba7aa9ff975ea8d6d9f2cf7654afb7f2bed3b976899464697e3de",
      "assetIds": []
    },
    {
      "x": 195,
      "y": 354,
      "size": 1,
      "price": "1011000000000000000000",
      "reserved": "",
      "salt": "0xf3d3723871788d5c0dabf18b7e84a0568ed0131a817392defdb3979a017e4e06",
      "assetIds": []
    },
    {
      "x": 195,
      "y": 355,
      "size": 1,
      "price": "1011000000000000000000",
      "reserved": "",
      "salt": "0x7a2f6a778e72bd3e09885c6f6b1a237ebc8fb577d26e0deef4a954a9a31fc8c6",
      "assetIds": []
    },
    {
      "x": 195,
      "y": 356,
      "size": 1,
      "price": "1011000000000000000000",
      "reserved": "",
      "salt": "0x14297b35b27bba17ef04b18fdb4a2494804d78629d35789800a569f4bb39e6f3",
      "assetIds": []
    },
    {
      "x": 195,
      "y": 357,
      "size": 1,
      "price": "1011000000000000000000",
      "reserved": "",
      "salt": "0x9c84566fc07dbf8129d6f0eccc6acd7d5d292e9629bb595c380f2cb67f7be191",
      "assetIds": []
    },
    {
      "x": 195,
      "y": 358,
      "size": 1,
      "price": "1011000000000000000000",
      "reserved": "0x7a9fe22691c811ea339d9b73150e6911a5343dca",
      "salt": "0x032e99a1c37876221539b6ea01d026300c55a90ce61cffe1bebbfb761d219046",
      "assetIds": []
    },
    {
      "x": 195,
      "y": 359,
      "size": 1,
      "price": "1011000000000000000000",
      "reserved": "",
      "salt": "0x00d4170dc681410c63dc8da3d942b31445a9d0729a7c218df83d090bf9060224",
      "assetIds": []
    },
    {
      "x": 196,
      "y": 351,
      "size": 1,
      "price": "1011000000000000000000",
      "reserved": "",
      "salt": "0x982f56aa98b48ef1c4f4bb79a891777f792621860b4218f2bb0b34bd37282f62",
      "assetIds": []
    },
    {
      "x": 196,
      "y": 352,
      "size": 1,
      "price": "1011000000000000000000",
      "reserved": "0x7a9fe22691c811ea339d9b73150e6911a5343dca",
      "salt": "0x82ca24f862769723cdbc7b290086c1f660e2952905f74ccdad6cec6a7555129c",
      "assetIds": []
    },
    {
      "x": 196,
      "y": 353,
      "size": 1,
      "price": "1011000000000000000000",
      "reserved": "",
      "salt": "0x442296e7879ef63075b72cbd7ef16c7f075fb0bbb667fea15004443187554ee5",
      "assetIds": []
    },
    {
      "x": 196,
      "y": 354,
      "size": 1,
      "price": "1011000000000000000000",
      "reserved": "",
      "salt": "0x47aff83bc84621ab0fa0f183ce6fbb70964f85c2cc9367e9fdcdd0a9daeb5fda",
      "assetIds": []
    },
    {
      "x": 196,
      "y": 355,
      "size": 1,
      "price": "1011000000000000000000",
      "reserved": "",
      "salt": "0xc6be4ecdb8e1454f3165983d62371b117925cd418389e193688a88a4753c430f",
      "assetIds": []
    },
    {
      "x": 196,
      "y": 356,
      "size": 1,
      "price": "1011000000000000000000",
      "reserved": "",
      "salt": "0xc0c930b6ab2d19c670004fecf85d4459f82653bebae09676f0123db2ae1ab448",
      "assetIds": []
    },
    {
      "x": 196,
      "y": 357,
      "size": 1,
      "price": "1011000000000000000000",
      "reserved": "",
      "salt": "0x158109462d66c7bfa9e910cc6f61322ddeee1c27100c9b15c90674644fd80d38",
      "assetIds": []
    },
    {
      "x": 196,
      "y": 358,
      "size": 1,
      "price": "1011000000000000000000",
      "reserved": "0x7a9fe22691c811ea339d9b73150e6911a5343dca",
      "salt": "0x648752f8b9cc06da7c029f077df9eb22537d53bf8cab8a2e1ac99cf8b4b5c17b",
      "assetIds": []
    },
    {
      "x": 196,
      "y": 359,
      "size": 1,
      "price": "1011000000000000000000",
      "reserved": "",
      "salt": "0xe6b06c504167f17ad621be101b8091af4c1e6bc992820ec1523f84ec37f20435",
      "assetIds": []
    },
    {
      "x": 197,
      "y": 351,
      "size": 1,
      "price": "1011000000000000000000",
      "reserved": "",
      "salt": "0x7e851f4ecf70e77d4bb68ef88e62894546302f5ba95c81b1094dc8b5925ba3f7",
      "assetIds": []
    },
    {
      "x": 197,
      "y": 352,
      "size": 1,
      "price": "1011000000000000000000",
      "reserved": "",
      "salt": "0x38e36c3be084c5badfbd112231dffb5dd06eca60169fec807acea50516c9211f",
      "assetIds": []
    },
    {
      "x": 197,
      "y": 353,
      "size": 1,
      "price": "1011000000000000000000",
      "reserved": "",
      "salt": "0xa8ba13a04a5749fb677757b3292b54341154b6ae36a2da400fa15f2485e3f7b8",
      "assetIds": []
    },
    {
      "x": 197,
      "y": 354,
      "size": 1,
      "price": "1011000000000000000000",
      "reserved": "",
      "salt": "0x21d7ddf1acfa6cb8555535ac28a8c94f5b3dce718fd77e58df6bb46632263788",
      "assetIds": []
    },
    {
      "x": 197,
      "y": 355,
      "size": 1,
      "price": "1011000000000000000000",
      "reserved": "0x7a9fe22691c811ea339d9b73150e6911a5343dca",
      "salt": "0x2b5daef6d20d32e9b84c85ba765089677f34b49e4b959943cd49e3a66a760167",
      "assetIds": []
    },
    {
      "x": 197,
      "y": 356,
      "size": 1,
      "price": "1011000000000000000000",
      "reserved": "",
      "salt": "0xc9e55f98e008f3285a12b999b82f38fe0e5cac8683d1fe914524255bd3bafd6d",
      "assetIds": []
    },
    {
      "x": 197,
      "y": 357,
      "size": 1,
      "price": "1011000000000000000000",
      "reserved": "",
      "salt": "0xc9d1622a92b0daf208c604341efb30a92231ab492b67e48c6bccce0c3fe97007",
      "assetIds": []
    },
    {
      "x": 197,
      "y": 358,
      "size": 1,
      "price": "1011000000000000000000",
      "reserved": "",
      "salt": "0xfeb7f96e4b34e3e5b30e60f768000b0a77d4c7cf038f3221354dbe3f5ec07f6b",
      "assetIds": []
    },
    {
      "x": 197,
      "y": 359,
      "size": 1,
      "price": "1011000000000000000000",
      "reserved": "",
      "salt": "0xa3dedb6b25113641433169921afc327d1ae7c9f07b6d91a75ef0d2437d196657",
      "assetIds": []
    },
    {
      "x": 198,
      "y": 351,
      "size": 1,
      "price": "4683000000000000000000",
      "reserved": "",
      "salt": "0x890f23a3c206377b67a398a6f7b9374c08843267559f34b686bcabeacc6df362",
      "assetIds": [
        "55464657044963196816950587289035428064568320970692304673817341489687790884865",
        "55464657044963196816950587289035428064568320970692304673817341489687782494208",
        "55464657044963196816950587289035428064568320970692304673817341489687790884866",
        "55464657044963196816950587289035428064568320970692304673817341489687782494209",
        "55464657044963196816950587289035428064568320970692304673817341489687790884864"
      ]
    },
    {
      "x": 198,
      "y": 352,
      "size": 1,
      "price": "1011000000000000000000",
      "reserved": "",
      "salt": "0xc7cd3ee1c032a46ad6af163ee4335b097dc91a3ff4bd3e829696cb4422ef1008",
      "assetIds": []
    },
    {
      "x": 198,
      "y": 353,
      "size": 1,
      "price": "1011000000000000000000",
      "reserved": "",
      "salt": "0x96899487784af5b0b73c7e7ea5e1f858f6e8bdb7b66637f97b7c8bcceccb35dd",
      "assetIds": []
    },
    {
      "x": 198,
      "y": 354,
      "size": 1,
      "price": "1011000000000000000000",
      "reserved": "",
      "salt": "0x4176eecc6e7fd50ef581588a04f1b6065047fbeca78d1f88699180a5ec3bde53",
      "assetIds": []
    },
    {
      "x": 198,
      "y": 355,
      "size": 1,
      "price": "1011000000000000000000",
      "reserved": "",
      "salt": "0xdaaa95840222e1691d5d2e229ed93eb22821e8c83756218c924dfedeb52cc065",
      "assetIds": []
    },
    {
      "x": 198,
      "y": 356,
      "size": 1,
      "price": "1011000000000000000000",
      "reserved": "",
      "salt": "0x350c99af6dcd450f3b1044a320894a69ad5d9098e5032ad61260079831dd0337",
      "assetIds": []
    },
    {
      "x": 198,
      "y": 357,
      "size": 1,
      "price": "1011000000000000000000",
      "reserved": "",
      "salt": "0x5711a123c39494d6209a9800ef11a2e64ac7668fde82dc2b87708b058f5a7891",
      "assetIds": []
    },
    {
      "x": 198,
      "y": 358,
      "size": 1,
      "price": "1011000000000000000000",
      "reserved": "",
      "salt": "0x043a7f4ce6b25df9e1060ce2414a52668c8a90abf019fe1589b6c53b817ba6f2",
      "assetIds": []
    },
    {
      "x": 198,
      "y": 359,
      "size": 1,
      "price": "1011000000000000000000",
      "reserved": "",
      "salt": "0xc9e68eae71352e453b0b3a07dfd40a5a79e80a86b12327856c312e7817334477",
      "assetIds": []
    },
    {
      "x": 199,
      "y": 351,
      "size": 1,
      "price": "4683000000000000000000",
      "reserved": "",
      "salt": "0xa62622cfdfd12a9d6b479b0998cfb16fde42761f4431df0f68564cd3cad66efa",
      "assetIds": [
        "55464657044963196816950587289035428064568320970692304673817341489687790884865",
        "55464657044963196816950587289035428064568320970692304673817341489687782494208",
        "55464657044963196816950587289035428064568320970692304673817341489687790884866",
        "55464657044963196816950587289035428064568320970692304673817341489687782494209",
        "55464657044963196816950587289035428064568320970692304673817341489687790884864"
      ]
    },
    {
      "x": 199,
      "y": 352,
      "size": 1,
      "price": "1011000000000000000000",
      "reserved": "0x7a9fe22691c811ea339d9b73150e6911a5343dca",
      "salt": "0xddf041b59797a8f74976cea2340ad1929d474aefa11f7e82c12be874e3cc14fd",
      "assetIds": []
    },
    {
      "x": 199,
      "y": 353,
      "size": 1,
      "price": "4683000000000000000000",
      "reserved": "",
      "salt": "0x402b6a8398dad4c7bcecec5cf7deb5b544bd9531892601455f4a1ec77af33452",
      "assetIds": [
        "55464657044963196816950587289035428064568320970692304673817341489687790884865",
        "55464657044963196816950587289035428064568320970692304673817341489687782494208",
        "55464657044963196816950587289035428064568320970692304673817341489687790884866",
        "55464657044963196816950587289035428064568320970692304673817341489687782494209",
        "55464657044963196816950587289035428064568320970692304673817341489687790884864"
      ]
    },
    {
      "x": 199,
      "y": 354,
      "size": 1,
      "price": "4683000000000000000000",
      "reserved": "",
      "salt": "0x65fc6d9cf3004e5b7b46e2fe0afa6faa282d3d878655c7a99d794946cb9c59c2",
      "assetIds": [
        "55464657044963196816950587289035428064568320970692304673817341489687790884865",
        "55464657044963196816950587289035428064568320970692304673817341489687782494208",
        "55464657044963196816950587289035428064568320970692304673817341489687790884866",
        "55464657044963196816950587289035428064568320970692304673817341489687782494209",
        "55464657044963196816950587289035428064568320970692304673817341489687790884864"
      ]
    },
    {
      "x": 199,
      "y": 355,
      "size": 1,
      "price": "1011000000000000000000",
      "reserved": "0x7a9fe22691c811ea339d9b73150e6911a5343dca",
      "salt": "0x25a9d2b1cc65396648bedc5f8addf380701baa9fd90a63d720f8d21e5fac99f1",
      "assetIds": []
    },
    {
      "x": 199,
      "y": 356,
      "size": 1,
      "price": "1011000000000000000000",
      "reserved": "",
      "salt": "0xd2d51f117e834d75af95a263a290a3213119541f6a31beda5cdd74ef0c00f07e",
      "assetIds": []
    },
    {
      "x": 199,
      "y": 357,
      "size": 1,
      "price": "1011000000000000000000",
      "reserved": "",
      "salt": "0x3d45389fc767b7c7f16da9676910fd1f84cc135d74490fd1eb60d123377bff70",
      "assetIds": []
    },
    {
      "x": 199,
      "y": 358,
      "size": 1,
      "price": "1011000000000000000000",
      "reserved": "",
      "salt": "0xc33669567bd95adbd48193231916f16bf53e440e12ee6c2348aabb9be1d0211e",
      "assetIds": []
    },
    {
      "x": 199,
      "y": 359,
      "size": 1,
      "price": "1011000000000000000000",
      "reserved": "",
      "salt": "0x1462caf6b6077ec1e45fb195d9c58bf9407473c378b7a81c0c7f0a15cc18d393",
      "assetIds": []
    },
    {
      "x": 200,
      "y": 351,
      "size": 1,
      "price": "4683000000000000000000",
      "reserved": "",
      "salt": "0x171c7611bf8563facb7e5560d3194425600b6c5ed8011cfe60e6e69e650685c2",
      "assetIds": [
        "55464657044963196816950587289035428064568320970692304673817341489687790884865",
        "55464657044963196816950587289035428064568320970692304673817341489687782494208",
        "55464657044963196816950587289035428064568320970692304673817341489687790884866",
        "55464657044963196816950587289035428064568320970692304673817341489687782494209",
        "55464657044963196816950587289035428064568320970692304673817341489687790884864"
      ]
    },
    {
      "x": 200,
      "y": 352,
      "size": 1,
      "price": "4683000000000000000000",
      "reserved": "",
      "salt": "0xc03023f6ec33769756c565326090b11519d219bdcb93166c7dc004f752ec8a9a",
      "assetIds": [
        "55464657044963196816950587289035428064568320970692304673817341489687790884865",
        "55464657044963196816950587289035428064568320970692304673817341489687782494208",
        "55464657044963196816950587289035428064568320970692304673817341489687790884866",
        "55464657044963196816950587289035428064568320970692304673817341489687782494209",
        "55464657044963196816950587289035428064568320970692304673817341489687790884864"
      ]
    },
    {
      "x": 200,
      "y": 353,
      "size": 1,
      "price": "4683000000000000000000",
      "reserved": "",
      "salt": "0xe4cf51d0428b1be42b954fd7da09f8fdb310d60537f666041f06a0329f80baeb",
      "assetIds": [
        "55464657044963196816950587289035428064568320970692304673817341489687790884865",
        "55464657044963196816950587289035428064568320970692304673817341489687782494208",
        "55464657044963196816950587289035428064568320970692304673817341489687790884866",
        "55464657044963196816950587289035428064568320970692304673817341489687782494209",
        "55464657044963196816950587289035428064568320970692304673817341489687790884864"
      ]
    },
    {
      "x": 200,
      "y": 354,
      "size": 1,
      "price": "4683000000000000000000",
      "reserved": "",
      "salt": "0x40e67c6ecb113888fc1572d21b832c31ac9d8856c2e905208ae4bec5d98c0aa0",
      "assetIds": [
        "55464657044963196816950587289035428064568320970692304673817341489687790884865",
        "55464657044963196816950587289035428064568320970692304673817341489687782494208",
        "55464657044963196816950587289035428064568320970692304673817341489687790884866",
        "55464657044963196816950587289035428064568320970692304673817341489687782494209",
        "55464657044963196816950587289035428064568320970692304673817341489687790884864"
      ]
    },
    {
      "x": 200,
      "y": 355,
      "size": 1,
      "price": "4683000000000000000000",
      "reserved": "",
      "salt": "0x888636e7e5f5d9eaf932480575da263ee6cd2e5a7532246d694385eaf8aab2f3",
      "assetIds": [
        "55464657044963196816950587289035428064568320970692304673817341489687790884865",
        "55464657044963196816950587289035428064568320970692304673817341489687782494208",
        "55464657044963196816950587289035428064568320970692304673817341489687790884866",
        "55464657044963196816950587289035428064568320970692304673817341489687782494209",
        "55464657044963196816950587289035428064568320970692304673817341489687790884864"
      ]
    },
    {
      "x": 200,
      "y": 356,
      "size": 1,
      "price": "1011000000000000000000",
      "reserved": "",
      "salt": "0x48403cabd8f9d5f0e21e5b4dcecf9c65038d629560305a06cf5b9b2b921d7f14",
      "assetIds": []
    },
    {
      "x": 200,
      "y": 357,
      "size": 1,
      "price": "1011000000000000000000",
      "reserved": "",
      "salt": "0xf103fe5d33a019bcda23b5b0b8c34eb992f169a48bafcc3a1efe9589e728aa3d",
      "assetIds": []
    },
    {
      "x": 200,
      "y": 358,
      "size": 1,
      "price": "1011000000000000000000",
      "reserved": "",
      "salt": "0xeb1fb33a6f002f2bb79b6949c1876717e2237437458cd03ccce10c3c0c16951c",
      "assetIds": []
    },
    {
      "x": 200,
      "y": 359,
      "size": 1,
      "price": "1011000000000000000000",
      "reserved": "",
      "salt": "0x08cc855250e8e8e7223f0a92d9cac12bab6da81e504e6ae5e4eb923f98604f2a",
      "assetIds": []
    },
    {
      "x": 201,
      "y": 354,
      "size": 1,
      "price": "4683000000000000000000",
      "reserved": "",
      "salt": "0x74a810ed7da21ace61dedd4b3a106e8451fd893fa41e699400a31e85ab5cf53b",
      "assetIds": [
        "55464657044963196816950587289035428064568320970692304673817341489687790884865",
        "55464657044963196816950587289035428064568320970692304673817341489687782494208",
        "55464657044963196816950587289035428064568320970692304673817341489687790884866",
        "55464657044963196816950587289035428064568320970692304673817341489687782494209",
        "55464657044963196816950587289035428064568320970692304673817341489687790884864"
      ]
    },
    {
      "x": 201,
      "y": 355,
      "size": 1,
      "price": "4683000000000000000000",
      "reserved": "",
      "salt": "0x2902572224120e33efef31d895f1fadfabdbec0f11dbac02086418bbeb206254",
      "assetIds": [
        "55464657044963196816950587289035428064568320970692304673817341489687790884865",
        "55464657044963196816950587289035428064568320970692304673817341489687782494208",
        "55464657044963196816950587289035428064568320970692304673817341489687790884866",
        "55464657044963196816950587289035428064568320970692304673817341489687782494209",
        "55464657044963196816950587289035428064568320970692304673817341489687790884864"
      ]
    },
    {
      "x": 201,
      "y": 356,
      "size": 1,
      "price": "1011000000000000000000",
      "reserved": "",
      "salt": "0x8fcdf4a2adc01fca7f7b5cb2151bffce905db3f49288cb66df5dd09733193d5a",
      "assetIds": []
    },
    {
      "x": 201,
      "y": 357,
      "size": 1,
      "price": "1011000000000000000000",
      "reserved": "",
      "salt": "0xb18f69cca64af50aab881eef04473c6f251fe2ee6f8390bcfbeba9d2c1eb08e7",
      "assetIds": []
    },
    {
      "x": 201,
      "y": 358,
      "size": 1,
      "price": "1011000000000000000000",
      "reserved": "",
      "salt": "0x725d7cbd58b5c26fd57be4d73d9f1d7bb9ac825e37e449b4b922d2b1756e8c6c",
      "assetIds": []
    },
    {
      "x": 201,
      "y": 359,
      "size": 1,
      "price": "1011000000000000000000",
      "reserved": "",
      "salt": "0x74e3d550b3ddef71ad7056fbd74b56ef40f48dc69b7d0ecf8ec03fe120f30e89",
      "assetIds": []
    },
    {
      "x": 202,
      "y": 354,
      "size": 1,
      "price": "4683000000000000000000",
      "reserved": "",
      "salt": "0x7ae66d1b2006f7e5d6fea617a3094ffc4427e7e5dccfc4431551366308d96b74",
      "assetIds": [
        "55464657044963196816950587289035428064568320970692304673817341489687790884865",
        "55464657044963196816950587289035428064568320970692304673817341489687782494208",
        "55464657044963196816950587289035428064568320970692304673817341489687790884866",
        "55464657044963196816950587289035428064568320970692304673817341489687782494209",
        "55464657044963196816950587289035428064568320970692304673817341489687790884864"
      ]
    },
    {
      "x": 202,
      "y": 355,
      "size": 1,
      "price": "4683000000000000000000",
      "reserved": "",
      "salt": "0xd332e85b19ad952ce3644b31b28ecfdf08823a4de6c32e645e0163097bcab2df",
      "assetIds": [
        "55464657044963196816950587289035428064568320970692304673817341489687790884865",
        "55464657044963196816950587289035428064568320970692304673817341489687782494208",
        "55464657044963196816950587289035428064568320970692304673817341489687790884866",
        "55464657044963196816950587289035428064568320970692304673817341489687782494209",
        "55464657044963196816950587289035428064568320970692304673817341489687790884864"
      ]
    },
    {
      "x": 202,
      "y": 356,
      "size": 1,
      "price": "1011000000000000000000",
      "reserved": "",
      "salt": "0xe4cd1bbf726315544c1022a74c16d2556b7f2116f1c07d8b38351383edfff7f5",
      "assetIds": []
    },
    {
      "x": 202,
      "y": 357,
      "size": 1,
      "price": "1011000000000000000000",
      "reserved": "",
      "salt": "0xbe4f4084f8e2a1e4cb378adf4019f3bae4bf9372854375166eb310b71e09f0a0",
      "assetIds": []
    },
    {
      "x": 202,
      "y": 358,
      "size": 1,
      "price": "1011000000000000000000",
      "reserved": "",
      "salt": "0xcec88d8e93339894553a1014554c2619cc2435e04fd5e6f194f8fb73c5105c45",
      "assetIds": []
    },
    {
      "x": 202,
      "y": 359,
      "size": 1,
      "price": "1011000000000000000000",
      "reserved": "",
      "salt": "0x85df6a3add44996ed41a94a5181b55b1a0ea2f1160bdd56e109e50147dd5a043",
      "assetIds": []
    },
    {
      "x": 203,
      "y": 354,
      "size": 1,
      "price": "4683000000000000000000",
      "reserved": "",
      "salt": "0xa13ccf80f44270bf32f9b73ca9610cd4698b65c235df509690af09c7675dacd9",
      "assetIds": [
        "55464657044963196816950587289035428064568320970692304673817341489687790884865",
        "55464657044963196816950587289035428064568320970692304673817341489687782494208",
        "55464657044963196816950587289035428064568320970692304673817341489687790884866",
        "55464657044963196816950587289035428064568320970692304673817341489687782494209",
        "55464657044963196816950587289035428064568320970692304673817341489687790884864"
      ]
    },
    {
      "x": 203,
      "y": 355,
      "size": 1,
      "price": "4683000000000000000000",
      "reserved": "",
      "salt": "0xee489f793a59ead941528a944e9aae132fa2b92035bf6f133552fe2537d14bab",
      "assetIds": [
        "55464657044963196816950587289035428064568320970692304673817341489687790884865",
        "55464657044963196816950587289035428064568320970692304673817341489687782494208",
        "55464657044963196816950587289035428064568320970692304673817341489687790884866",
        "55464657044963196816950587289035428064568320970692304673817341489687782494209",
        "55464657044963196816950587289035428064568320970692304673817341489687790884864"
      ]
    },
    {
      "x": 203,
      "y": 356,
      "size": 1,
      "price": "1011000000000000000000",
      "reserved": "",
      "salt": "0x9b401e0ffecea156e8aa79fed3b0160294402d3cfa6a2c5763a86d3e4718941d",
      "assetIds": []
    },
    {
      "x": 203,
      "y": 357,
      "size": 1,
      "price": "1011000000000000000000",
      "reserved": "",
      "salt": "0xe523583bd16535cb123e041518ca6d9736f0b24987f4fdb1d1fc8ac41836c0e2",
      "assetIds": []
    },
    {
      "x": 203,
      "y": 358,
      "size": 1,
      "price": "1011000000000000000000",
      "reserved": "0x7a9fe22691c811ea339d9b73150e6911a5343dca",
      "salt": "0x0337975b5dd1a58db0483c4ffcff8f7d690e2a1e337c893c2fca1fe7ce769f3e",
      "assetIds": []
    },
    {
      "x": 203,
      "y": 359,
      "size": 1,
      "price": "1011000000000000000000",
      "reserved": "",
      "salt": "0x7a16add594eb431ff2ae51eaa4157a04d9f699d5af2f836ade386bde6bd8b34c",
      "assetIds": []
    },
    {
      "x": 204,
      "y": 351,
      "size": 1,
      "price": "4683000000000000000000",
      "reserved": "",
      "salt": "0xc1659a8271207c6919a9e50ac9255e59ad41a55bb1ea625b5e0331927e575dc1",
      "assetIds": [
        "55464657044963196816950587289035428064568320970692304673817341489687790884865",
        "55464657044963196816950587289035428064568320970692304673817341489687782494208",
        "55464657044963196816950587289035428064568320970692304673817341489687790884866",
        "55464657044963196816950587289035428064568320970692304673817341489687782494209",
        "55464657044963196816950587289035428064568320970692304673817341489687790884864"
      ]
    },
    {
      "x": 204,
      "y": 352,
      "size": 1,
      "price": "4683000000000000000000",
      "reserved": "",
      "salt": "0x6a19b41cb21518374209f33f81ab53bfb3d6bfc8558f4ea395c5d52d29394a8f",
      "assetIds": [
        "55464657044963196816950587289035428064568320970692304673817341489687790884865",
        "55464657044963196816950587289035428064568320970692304673817341489687782494208",
        "55464657044963196816950587289035428064568320970692304673817341489687790884866",
        "55464657044963196816950587289035428064568320970692304673817341489687782494209",
        "55464657044963196816950587289035428064568320970692304673817341489687790884864"
      ]
    },
    {
      "x": 204,
      "y": 353,
      "size": 1,
      "price": "4683000000000000000000",
      "reserved": "",
      "salt": "0xf88d71edb122aea12d642ebc0dec71cbf68b57d7aad25b277eda2780af94681c",
      "assetIds": [
        "55464657044963196816950587289035428064568320970692304673817341489687790884865",
        "55464657044963196816950587289035428064568320970692304673817341489687782494208",
        "55464657044963196816950587289035428064568320970692304673817341489687790884866",
        "55464657044963196816950587289035428064568320970692304673817341489687782494209",
        "55464657044963196816950587289035428064568320970692304673817341489687790884864"
      ]
    },
    {
      "x": 204,
      "y": 354,
      "size": 1,
      "price": "1011000000000000000000",
      "reserved": "",
      "salt": "0x3ebf339ebd7ecc54cf3ee6d85fb90f86020ca07b5149971738c4d6169840bf41",
      "assetIds": []
    },
    {
      "x": 204,
      "y": 355,
      "size": 1,
      "price": "1011000000000000000000",
      "reserved": "",
      "salt": "0x2eacfb99d06ac7fddf252a8638a94bb3ac9a83c6a30b6e455bfd2b0cb45d5606",
      "assetIds": []
    },
    {
      "x": 204,
      "y": 356,
      "size": 1,
      "price": "1011000000000000000000",
      "reserved": "",
      "salt": "0xe45d2b3887b847ba8f3ffe12c8965318263622a9f5a6062323361754508aea57",
      "assetIds": []
    },
    {
      "x": 204,
      "y": 357,
      "size": 1,
      "price": "1011000000000000000000",
      "reserved": "",
      "salt": "0x32635c9afaaf17e739a45fea9ae3612786e5f0ac7a03de31e779d54240572090",
      "assetIds": []
    },
    {
      "x": 204,
      "y": 358,
      "size": 1,
      "price": "1011000000000000000000",
      "reserved": "0x7a9fe22691c811ea339d9b73150e6911a5343dca",
      "salt": "0x8e7fe29f2a2bea914079be9919670b9990ae3d6b9c8cbdb6431f7fd2b76a58fc",
      "assetIds": []
    },
    {
      "x": 204,
      "y": 359,
      "size": 1,
      "price": "1011000000000000000000",
      "reserved": "",
      "salt": "0x80d9eaa04d0e3b2efbdefbe057b0dec298becac05b2f39bb77dc54d2a7e46e2d",
      "assetIds": []
    },
    {
      "x": 205,
      "y": 351,
      "size": 1,
      "price": "4683000000000000000000",
      "reserved": "",
      "salt": "0x56d28a12abb176a593825251893a3d9a04a0282ad11a78a50a9c04e02a917c87",
      "assetIds": [
        "55464657044963196816950587289035428064568320970692304673817341489687790884865",
        "55464657044963196816950587289035428064568320970692304673817341489687782494208",
        "55464657044963196816950587289035428064568320970692304673817341489687790884866",
        "55464657044963196816950587289035428064568320970692304673817341489687782494209",
        "55464657044963196816950587289035428064568320970692304673817341489687790884864"
      ]
    },
    {
      "x": 205,
      "y": 352,
      "size": 1,
      "price": "4683000000000000000000",
      "reserved": "",
      "salt": "0xc4a12aad0e3050428463b1d789b88548b362166ef4f7ad638f365e4a06effe75",
      "assetIds": [
        "55464657044963196816950587289035428064568320970692304673817341489687790884865",
        "55464657044963196816950587289035428064568320970692304673817341489687782494208",
        "55464657044963196816950587289035428064568320970692304673817341489687790884866",
        "55464657044963196816950587289035428064568320970692304673817341489687782494209",
        "55464657044963196816950587289035428064568320970692304673817341489687790884864"
      ]
    },
    {
      "x": 205,
      "y": 353,
      "size": 1,
      "price": "1011000000000000000000",
      "reserved": "0x7a9fe22691c811ea339d9b73150e6911a5343dca",
      "salt": "0xcf81560c3eb98708da3a96c9b6c4ad9598966855e9ebca86aec2b93b90ad2230",
      "assetIds": []
    },
    {
      "x": 205,
      "y": 354,
      "size": 1,
      "price": "1011000000000000000000",
      "reserved": "",
      "salt": "0x3691a103d264280774aab5612c5e828ca2c923e5f0d97a5e4ca8c88ed6a7ecd4",
      "assetIds": []
    },
    {
      "x": 205,
      "y": 355,
      "size": 1,
      "price": "1011000000000000000000",
      "reserved": "",
      "salt": "0x5df426c80d6227c46fb30cb1dbc891b0b8e62166998bfa1ff97a10f1d32f26a0",
      "assetIds": []
    },
    {
      "x": 205,
      "y": 356,
      "size": 1,
      "price": "1011000000000000000000",
      "reserved": "",
      "salt": "0x7b23a19ff0b1bdb89a4ea5eda7b5a0e51bbe9644f2e58e16c994d9adeb3d27e7",
      "assetIds": []
    },
    {
      "x": 205,
      "y": 357,
      "size": 1,
      "price": "1011000000000000000000",
      "reserved": "",
      "salt": "0x4769df0ae76af9ead529ff1cff6408af8a0f0cbde1d5108ad2197bc7c64cfa99",
      "assetIds": []
    },
    {
      "x": 205,
      "y": 358,
      "size": 1,
      "price": "1011000000000000000000",
      "reserved": "",
      "salt": "0x83c02fa36770148d9a2f129c69acd58a031327f6aa2ce5f7868bdab2c3732805",
      "assetIds": []
    },
    {
      "x": 205,
      "y": 359,
      "size": 1,
      "price": "1011000000000000000000",
      "reserved": "",
      "salt": "0xb2d4c5d16ab38cfe1a7655bacb0a16405819ca01c91cd437b29343fea99e1a09",
      "assetIds": []
    },
    {
      "x": 206,
      "y": 351,
      "size": 1,
      "price": "4683000000000000000000",
      "reserved": "",
      "salt": "0xe8e9abb6d99d0f00fa95d0039c49ce03318b1efb292bddc1ebd61465948667f3",
      "assetIds": [
        "55464657044963196816950587289035428064568320970692304673817341489687790884865",
        "55464657044963196816950587289035428064568320970692304673817341489687782494208",
        "55464657044963196816950587289035428064568320970692304673817341489687790884866",
        "55464657044963196816950587289035428064568320970692304673817341489687782494209",
        "55464657044963196816950587289035428064568320970692304673817341489687790884864"
      ]
    },
    {
      "x": 206,
      "y": 352,
      "size": 1,
      "price": "4683000000000000000000",
      "reserved": "",
      "salt": "0x5da1a71d9701f478121aefc9f886c1d3e212ef775aa20d5c8ced39bc763154fa",
      "assetIds": [
        "55464657044963196816950587289035428064568320970692304673817341489687790884865",
        "55464657044963196816950587289035428064568320970692304673817341489687782494208",
        "55464657044963196816950587289035428064568320970692304673817341489687790884866",
        "55464657044963196816950587289035428064568320970692304673817341489687782494209",
        "55464657044963196816950587289035428064568320970692304673817341489687790884864"
      ]
    },
    {
      "x": 206,
      "y": 353,
      "size": 1,
      "price": "1011000000000000000000",
      "reserved": "",
      "salt": "0x82986abc4f1ef0a52951302fcc557d4bdc0a53969f555fbd9ee7d8ca43f9e4d6",
      "assetIds": []
    },
    {
      "x": 206,
      "y": 354,
      "size": 1,
      "price": "1011000000000000000000",
      "reserved": "",
      "salt": "0xd70d6da673da00049df9c027868aa2b6d56b696fea5cca2003a31db7f9bf48fb",
      "assetIds": []
    },
    {
      "x": 206,
      "y": 355,
      "size": 1,
      "price": "1011000000000000000000",
      "reserved": "",
      "salt": "0x47d177fb1bd9cdca99d8e5fbe1dd54fc4ec42be7ce85155b686e779e6bb74ed8",
      "assetIds": []
    },
    {
      "x": 206,
      "y": 356,
      "size": 1,
      "price": "1011000000000000000000",
      "reserved": "0x7a9fe22691c811ea339d9b73150e6911a5343dca",
      "salt": "0x7ae7fd540e944c4d979cb4c80e31a8e31ff12bb52b864ce1a48d0215110a6292",
      "assetIds": []
    },
    {
      "x": 206,
      "y": 357,
      "size": 1,
      "price": "1011000000000000000000",
      "reserved": "",
      "salt": "0x3548fc701a0de27954ec19d241097fb4bd882c8488a3261203c11c37c7d1daa1",
      "assetIds": []
    },
    {
      "x": 206,
      "y": 358,
      "size": 1,
      "price": "1011000000000000000000",
      "reserved": "",
      "salt": "0x238e6f9c255c9dcfe62a9d270fc782eddda03b14dec0f4db5d74154c9b319fe3",
      "assetIds": []
    },
    {
      "x": 206,
      "y": 359,
      "size": 1,
      "price": "1011000000000000000000",
      "reserved": "",
      "salt": "0xd6b10cf8b56b7e851f9ee9eee00ed55de803c883ea9430ba166fde94bfb5bccf",
      "assetIds": []
    },
    {
      "x": 207,
      "y": 351,
      "size": 1,
      "price": "4683000000000000000000",
      "reserved": "",
      "salt": "0x5cdd4affebbc46045ab10d57115aee1c0084f369de878e4074331f4e62a9b743",
      "assetIds": [
        "55464657044963196816950587289035428064568320970692304673817341489687790884865",
        "55464657044963196816950587289035428064568320970692304673817341489687782494208",
        "55464657044963196816950587289035428064568320970692304673817341489687790884866",
        "55464657044963196816950587289035428064568320970692304673817341489687782494209",
        "55464657044963196816950587289035428064568320970692304673817341489687790884864"
      ]
    },
    {
      "x": 207,
      "y": 352,
      "size": 1,
      "price": "4683000000000000000000",
      "reserved": "",
      "salt": "0x19f01f39ed3727404113c55f6a1cd0c3b35a0b1f368efc24832670fc52650189",
      "assetIds": [
        "55464657044963196816950587289035428064568320970692304673817341489687790884865",
        "55464657044963196816950587289035428064568320970692304673817341489687782494208",
        "55464657044963196816950587289035428064568320970692304673817341489687790884866",
        "55464657044963196816950587289035428064568320970692304673817341489687782494209",
        "55464657044963196816950587289035428064568320970692304673817341489687790884864"
      ]
    },
    {
      "x": 207,
      "y": 353,
      "size": 1,
      "price": "1011000000000000000000",
      "reserved": "0x7a9fe22691c811ea339d9b73150e6911a5343dca",
      "salt": "0x7c1de06c2d26c6467fe72f5d9ea7f668eba7ea8f0a28f58aa0f0c207bb4fb297",
      "assetIds": []
    },
    {
      "x": 207,
      "y": 354,
      "size": 1,
      "price": "1011000000000000000000",
      "reserved": "",
      "salt": "0x070766c80e7d3ecc1e43c4cc8e9709105829d5e6ad014f25c3db55a81c637f9e",
      "assetIds": []
    },
    {
      "x": 207,
      "y": 355,
      "size": 1,
      "price": "1011000000000000000000",
      "reserved": "",
      "salt": "0x685f9e1040376363509f430f1049dde6f9dcf1847b7e481f3db05b041de0a0b6",
      "assetIds": []
    },
    {
      "x": 207,
      "y": 356,
      "size": 1,
      "price": "1011000000000000000000",
      "reserved": "",
      "salt": "0x6eefe97fa296e0ed4685c6f49240d83a49d051a03624ef1c20037151f7599f1b",
      "assetIds": []
    },
    {
      "x": 207,
      "y": 357,
      "size": 1,
      "price": "1011000000000000000000",
      "reserved": "",
      "salt": "0x097b1c63ac50f0fe57c111c986c65000e45e55e307b6b38844504529ea87e466",
      "assetIds": []
    },
    {
      "x": 207,
      "y": 358,
      "size": 1,
      "price": "1011000000000000000000",
      "reserved": "",
      "salt": "0x97c50ebb206277826e77c896a433fbc4dfa37a27f1a6887219832674e9784208",
      "assetIds": []
    },
    {
      "x": 208,
      "y": 351,
      "size": 1,
      "price": "4683000000000000000000",
      "reserved": "",
      "salt": "0x2cc0c6c8241727e17354b667337b672934de114da1f72522405d30a39e013f1e",
      "assetIds": [
        "55464657044963196816950587289035428064568320970692304673817341489687790884865",
        "55464657044963196816950587289035428064568320970692304673817341489687782494208",
        "55464657044963196816950587289035428064568320970692304673817341489687790884866",
        "55464657044963196816950587289035428064568320970692304673817341489687782494209",
        "55464657044963196816950587289035428064568320970692304673817341489687790884864"
      ]
    },
    {
      "x": 208,
      "y": 352,
      "size": 1,
      "price": "4683000000000000000000",
      "reserved": "",
      "salt": "0xe259d1d09b6e54f11f0c0622b02d08c36401a37174b48dd34c00a706a6afb055",
      "assetIds": [
        "55464657044963196816950587289035428064568320970692304673817341489687790884865",
        "55464657044963196816950587289035428064568320970692304673817341489687782494208",
        "55464657044963196816950587289035428064568320970692304673817341489687790884866",
        "55464657044963196816950587289035428064568320970692304673817341489687782494209",
        "55464657044963196816950587289035428064568320970692304673817341489687790884864"
      ]
    },
    {
      "x": 208,
      "y": 353,
      "size": 1,
      "price": "1011000000000000000000",
      "reserved": "",
      "salt": "0x7cb0bf3c4e9aa6bc0b10ae77597ebca08574f9e97896bcffab7bf2ef155d682d",
      "assetIds": []
    },
    {
      "x": 208,
      "y": 354,
      "size": 1,
      "price": "1011000000000000000000",
      "reserved": "",
      "salt": "0x7ee3c78e3e2573cf8c3e962d3d4204b9492c48b5733dd8b511e952f117c3f4e2",
      "assetIds": []
    },
    {
      "x": 208,
      "y": 355,
      "size": 1,
      "price": "1011000000000000000000",
      "reserved": "",
      "salt": "0x58c4d5a8a2fe3352d3af76acbfb9ecc6b7d574aa7c1da669a6b78f7bf1e86a97",
      "assetIds": []
    },
    {
      "x": 208,
      "y": 356,
      "size": 1,
      "price": "1011000000000000000000",
      "reserved": "",
      "salt": "0x0d7e8e1bba525aef61501b54bc43661d66fe6155f7d6ba4b97d9f1a8fa8a99e9",
      "assetIds": []
    },
    {
      "x": 208,
      "y": 357,
      "size": 1,
      "price": "1011000000000000000000",
      "reserved": "",
      "salt": "0x07fb726ddc2a127944a720ffff5fce7db2da14ab5958b698a0f9b113cb4a39d2",
      "assetIds": []
    },
    {
      "x": 208,
      "y": 358,
      "size": 1,
      "price": "1011000000000000000000",
      "reserved": "0x7a9fe22691c811ea339d9b73150e6911a5343dca",
      "salt": "0xc99fd82cbe127986f433f3ecd04be74bf1c74592c15ad1b5d4897f37c247ab71",
      "assetIds": []
    },
    {
      "x": 209,
      "y": 351,
      "size": 1,
      "price": "1011000000000000000000",
      "reserved": "",
      "salt": "0x726431d2a458f96f7df1a5f50e59e61fc17d578f648205717b06f7cf78cb073b",
      "assetIds": []
    },
    {
      "x": 209,
      "y": 352,
      "size": 1,
      "price": "1011000000000000000000",
      "reserved": "0x7a9fe22691c811ea339d9b73150e6911a5343dca",
      "salt": "0x16ed5908fb092e0d14e02110bf895f5b6fb3592d763833d5b9f7a755045e9f41",
      "assetIds": []
    },
    {
      "x": 209,
      "y": 353,
      "size": 1,
      "price": "1011000000000000000000",
      "reserved": "",
      "salt": "0xb18ceca8351b447326c362c961c0b1347af4cf7789f0ddcff62b8d10ff389e17",
      "assetIds": []
    },
    {
      "x": 209,
      "y": 354,
      "size": 1,
      "price": "1011000000000000000000",
      "reserved": "",
      "salt": "0xc3948f04bf147fa89c8338081aabf0944d1a9461cddf18df179889980fe9b2d2",
      "assetIds": []
    },
    {
      "x": 209,
      "y": 355,
      "size": 1,
      "price": "1011000000000000000000",
      "reserved": "",
      "salt": "0x0f547f9a8082fce57dd5f0a61d19d14e390338b1f4dee0de0428910d0c45d4e0",
      "assetIds": []
    },
    {
      "x": 209,
      "y": 356,
      "size": 1,
      "price": "1011000000000000000000",
      "reserved": "",
      "salt": "0x05af0a6dc58d86980c9a61f5b74c29b8a82f4c5c0fd7136daf9db432a95b6c12",
      "assetIds": []
    },
    {
      "x": 209,
      "y": 357,
      "size": 1,
      "price": "1011000000000000000000",
      "reserved": "",
      "salt": "0xab9ac19f1c3a518af492d3bc2ccdddc022d316a7e10a74fc6b8ef2b4dfd5c2bc",
      "assetIds": []
    },
    {
      "x": 209,
      "y": 358,
      "size": 1,
      "price": "1011000000000000000000",
      "reserved": "",
      "salt": "0x83fef8e49aab047ba23827bb0df1b3433bcb569fa0b261ec7a19ea07f360f984",
      "assetIds": []
    },
    {
      "x": 210,
      "y": 351,
      "size": 1,
      "price": "1011000000000000000000",
      "reserved": "",
      "salt": "0x4b62adf1c19b95652ee365a25bdb0bcac2082d59bd34bd9c1aded3a855703b34",
      "assetIds": []
    },
    {
      "x": 210,
      "y": 352,
      "size": 1,
      "price": "1011000000000000000000",
      "reserved": "",
      "salt": "0x969a647fb072b5e91551c551597adf98d3d6e2936ccab602951768f13769a1f6",
      "assetIds": []
    },
    {
      "x": 210,
      "y": 353,
      "size": 1,
      "price": "1011000000000000000000",
      "reserved": "",
      "salt": "0x3f4d440f41491f8f84ca74fbd1fa907fca1da48395ce9e5a74ba7fdf160bad1b",
      "assetIds": []
    },
    {
      "x": 210,
      "y": 354,
      "size": 1,
      "price": "1011000000000000000000",
      "reserved": "",
      "salt": "0x956078f60203ae58ac5bfbf59871a8b9a5b830dc98767f904af84e1f1c5b8f9d",
      "assetIds": []
    },
    {
      "x": 210,
      "y": 355,
      "size": 1,
      "price": "1011000000000000000000",
      "reserved": "",
      "salt": "0xc9367023d46d32eaad22035d8d94b7c1c534657d49a5768883cf87634f97768f",
      "assetIds": []
    },
    {
      "x": 210,
      "y": 356,
      "size": 1,
      "price": "1011000000000000000000",
      "reserved": "",
      "salt": "0x05223fff635771b27928c8d9dcb491a8fe7c7b46c2ea2d80eb818e7c0d3f7559",
      "assetIds": []
    },
    {
      "x": 210,
      "y": 357,
      "size": 1,
      "price": "1011000000000000000000",
      "reserved": "",
      "salt": "0xba9d669e36d7a4e8ac1df41b13d08842da031391dc3f0a01d6c529ecb03f0197",
      "assetIds": []
    },
    {
      "x": 210,
      "y": 358,
      "size": 1,
      "price": "1011000000000000000000",
      "reserved": "",
      "salt": "0x19e042d841c38e1994c1452c988406bef27dd022d4b472c1152c1b6f88a920ff",
      "assetIds": []
    },
    {
      "x": 211,
      "y": 351,
      "size": 1,
      "price": "1011000000000000000000",
      "reserved": "",
      "salt": "0xf16f2b80e5bf184e06da229833e5f2710be9fee951be9954bfba9df341ae08dd",
      "assetIds": []
    },
    {
      "x": 211,
      "y": 352,
      "size": 1,
      "price": "1011000000000000000000",
      "reserved": "",
      "salt": "0x3b50ac81038005879d7a0b4e2b1334be897ade003a4fddbb47f63813f90386d3",
      "assetIds": []
    },
    {
      "x": 211,
      "y": 353,
      "size": 1,
      "price": "1011000000000000000000",
      "reserved": "",
      "salt": "0xf78874885791ea316246be03212ffb68763f8251227e9afce10cc5d1a58ff47b",
      "assetIds": []
    },
    {
      "x": 211,
      "y": 354,
      "size": 1,
      "price": "1011000000000000000000",
      "reserved": "",
      "salt": "0x968435290a417f877c04cb8a6f162437ba1efa91d15ba229b28f22ce07c793c5",
      "assetIds": []
    },
    {
      "x": 211,
      "y": 355,
      "size": 1,
      "price": "1011000000000000000000",
      "reserved": "",
      "salt": "0x0f453da2a239d73c789327506d85e031f18eb4f347129d3d677c00cfbf86a510",
      "assetIds": []
    },
    {
      "x": 211,
      "y": 356,
      "size": 1,
      "price": "1011000000000000000000",
      "reserved": "",
      "salt": "0xce916ad99742e50dc87313da4a334e83c3a0e6bab166648bd07d42655c6ab4ed",
      "assetIds": []
    },
    {
      "x": 211,
      "y": 357,
      "size": 1,
      "price": "1011000000000000000000",
      "reserved": "",
      "salt": "0x02bc037c3ebdeaa71f63706371f53f12c34317a8c7a3bc86d92b95eb34fd6fb6",
      "assetIds": []
    },
    {
      "x": 211,
      "y": 358,
      "size": 1,
      "price": "1011000000000000000000",
      "reserved": "0x7a9fe22691c811ea339d9b73150e6911a5343dca",
      "salt": "0x44a56e6c05e0bbae9a2d1ae6b15c5d46370b55e0baafb084f7fe96d2ef876efc",
      "assetIds": []
    },
    {
      "x": 212,
      "y": 351,
      "size": 1,
      "price": "1011000000000000000000",
      "reserved": "",
      "salt": "0x1b93f2f37f952f56b8fda649186012519b62920e4a3c4217bac4ca5e2f8ef378",
      "assetIds": []
    },
    {
      "x": 212,
      "y": 352,
      "size": 1,
      "price": "1011000000000000000000",
      "reserved": "",
      "salt": "0xba4924955dbf8d7520c40199c52aab760e2c159810b6f9aaa7e0f59daf0fe452",
      "assetIds": []
    },
    {
      "x": 212,
      "y": 353,
      "size": 1,
      "price": "1011000000000000000000",
      "reserved": "0x7a9fe22691c811ea339d9b73150e6911a5343dca",
      "salt": "0x2a8e66956ad9b289b261a6c05936d62927da917c50291f6fd3afb95031d18710",
      "assetIds": []
    },
    {
      "x": 212,
      "y": 354,
      "size": 1,
      "price": "1011000000000000000000",
      "reserved": "",
      "salt": "0xadd3a9383a86f18e0c693992a1ad222ce22f3c05fdf6944af76771b8a5fdfb06",
      "assetIds": []
    },
    {
      "x": 212,
      "y": 355,
      "size": 1,
      "price": "1011000000000000000000",
      "reserved": "0x7a9fe22691c811ea339d9b73150e6911a5343dca",
      "salt": "0xad51f92c5d3ae8d0909a89614b053d6b9ba6f69b91f52bcc9db0d2f4b8b351cd",
      "assetIds": []
    },
    {
      "x": 212,
      "y": 356,
      "size": 1,
      "price": "1011000000000000000000",
      "reserved": "",
      "salt": "0x24e52f41f4b999bfdcef8681253610b9ec5e775cc3771f3d0d0fde0767a6920c",
      "assetIds": []
    },
    {
      "x": 212,
      "y": 357,
      "size": 1,
      "price": "1011000000000000000000",
      "reserved": "",
      "salt": "0xc4c4f1cb35dbca21809443d94a7550bcf28152b1e2ed79e3568c425c60f82fc7",
      "assetIds": []
    },
    {
      "x": 212,
      "y": 358,
      "size": 1,
      "price": "1011000000000000000000",
      "reserved": "",
      "salt": "0x6ffe1e00910094f11c4e1ba96060827148860ff52715cd5eec73bdee834766bd",
      "assetIds": []
    },
    {
      "x": 213,
      "y": 351,
      "size": 1,
      "price": "1011000000000000000000",
      "reserved": "",
      "salt": "0x27831e971ab8b5260ca5148e9f3d5fe0b6fc61adf7ae7d0a68c3d620fa0691fe",
      "assetIds": []
    },
    {
      "x": 213,
      "y": 352,
      "size": 1,
      "price": "1011000000000000000000",
      "reserved": "",
      "salt": "0x1b0cb5cdcb80da20297d79249cae576bd12a984e20c56813de0e628244a80439",
      "assetIds": []
    },
    {
      "x": 213,
      "y": 353,
      "size": 1,
      "price": "1011000000000000000000",
      "reserved": "",
      "salt": "0x8109bddd68e4d1a4ced153df290960b6677c326f34d08683043e255aa4ff8ddc",
      "assetIds": []
    },
    {
      "x": 213,
      "y": 354,
      "size": 1,
      "price": "1011000000000000000000",
      "reserved": "",
      "salt": "0xf570f23b7668eaf21f377ce12d1e3bd5d0aadf78f9be739601863e4572b5e57a",
      "assetIds": []
    },
    {
      "x": 213,
      "y": 355,
      "size": 1,
      "price": "1011000000000000000000",
      "reserved": "0x7a9fe22691c811ea339d9b73150e6911a5343dca",
      "salt": "0x6696919aa4e8f50b9257b966e63276fcaf0564afc5aebe212dd06b48637219f2",
      "assetIds": []
    },
    {
      "x": 213,
      "y": 356,
      "size": 1,
      "price": "1011000000000000000000",
      "reserved": "",
      "salt": "0x8ec5ae713be1aab5a47bdadf32378b1d9013c4ef44c52711c9b354604f8ccef4",
      "assetIds": []
    },
    {
      "x": 214,
      "y": 351,
      "size": 1,
      "price": "1011000000000000000000",
      "reserved": "",
      "salt": "0x766167b0641a0fd90264500db00a3c14c2625d1811b07b8bd80fd34b7af4786b",
      "assetIds": []
    },
    {
      "x": 214,
      "y": 352,
      "size": 1,
      "price": "1011000000000000000000",
      "reserved": "",
      "salt": "0xa3404c2e1e3840f856ca81b0e1d7a481be53cc4f13a9d1b843abd96b887f1e0e",
      "assetIds": []
    },
    {
      "x": 214,
      "y": 353,
      "size": 1,
      "price": "1011000000000000000000",
      "reserved": "",
      "salt": "0x8d189bf8f26dcb94276b0ffd51cc7df3e9bb26bcee654d26f7750b6604e52697",
      "assetIds": []
    },
    {
      "x": 214,
      "y": 354,
      "size": 1,
      "price": "1011000000000000000000",
      "reserved": "",
      "salt": "0x8a35707abc8bae50d6439e3a9846b8d745128fec091a805acf24e38b77b1e212",
      "assetIds": []
    },
    {
      "x": 214,
      "y": 355,
      "size": 1,
      "price": "1011000000000000000000",
      "reserved": "",
      "salt": "0xf5e6a5d9fac6a74fe97f43b16d9d3c24d9b1d615beac9e5d18b9eaef7a3be00f",
      "assetIds": []
    },
    {
      "x": 214,
      "y": 356,
      "size": 1,
      "price": "1011000000000000000000",
      "reserved": "0x7a9fe22691c811ea339d9b73150e6911a5343dca",
      "salt": "0xbd706f215e8d3cb2eeb577ee2f3f5d5d02abb293a32e46dd0be0b8da6511997c",
      "assetIds": []
    },
    {
      "x": 215,
      "y": 351,
      "size": 1,
      "price": "1011000000000000000000",
      "reserved": "",
      "salt": "0x33c6d5e73eb3d8468dca37b81e61979c2c7b8d1356c69ecafd2dbc2f9d192b4d",
      "assetIds": []
    },
    {
      "x": 215,
      "y": 352,
      "size": 1,
      "price": "1011000000000000000000",
      "reserved": "",
      "salt": "0xf4ff032ae16111dc300520de49dcee519cf7398cac46d7cbad65093d5c17a123",
      "assetIds": []
    },
    {
      "x": 215,
      "y": 353,
      "size": 1,
      "price": "1011000000000000000000",
      "reserved": "",
      "salt": "0x2990355c299f9da2e07135d187f61ebaae411f3081eb0dd7aec10f829cc2e7fc",
      "assetIds": []
    },
    {
      "x": 215,
      "y": 354,
      "size": 1,
      "price": "1011000000000000000000",
      "reserved": "",
      "salt": "0x57da0fb643cb7956f066a7368be65930e2382e36a0120ee86590d4bf182a8a02",
      "assetIds": []
    },
    {
      "x": 215,
      "y": 355,
      "size": 1,
      "price": "1011000000000000000000",
      "reserved": "0x7a9fe22691c811ea339d9b73150e6911a5343dca",
      "salt": "0x40e594548288b606be1517a30e29fe6b1f5bfcc9e4df5dade4022aea6529b623",
      "assetIds": []
    },
    {
      "x": 215,
      "y": 356,
      "size": 1,
      "price": "1011000000000000000000",
      "reserved": "",
      "salt": "0xa0823b33125800449e173be1cfd1977014ab956118dd4dcc68056f29b6d817bf",
      "assetIds": []
    },
    {
      "x": 216,
      "y": 351,
      "size": 1,
      "price": "1011000000000000000000",
      "reserved": "",
      "salt": "0x1626377fc94f64ade1a96e8f73796098b0798e439d512109da9a2cf0d118e41a",
      "assetIds": []
    },
    {
      "x": 216,
      "y": 352,
      "size": 1,
      "price": "1011000000000000000000",
      "reserved": "",
      "salt": "0xaef9b880350d48c290e866565ebfb0ad73aee8787b908c74ce3584154c6942fa",
      "assetIds": []
    },
    {
      "x": 216,
      "y": 353,
      "size": 1,
      "price": "1011000000000000000000",
      "reserved": "",
      "salt": "0xd8d58d0d7465dcae011032d96f30fe2d34bcd61c4d42bc87ea6fbe3b85b98192",
      "assetIds": []
    },
    {
      "x": 216,
      "y": 354,
      "size": 1,
      "price": "1011000000000000000000",
      "reserved": "",
      "salt": "0xfce79581f99ab93e918c3284a9b5f3c2486ad47e29358f419b7378f2dd18a740",
      "assetIds": []
    },
    {
      "x": 216,
      "y": 355,
      "size": 1,
      "price": "1011000000000000000000",
      "reserved": "",
      "salt": "0x1a27d3f24d97cf9d2eece91460f2b2565a4cbc44a88675856990592d88b783ac",
      "assetIds": []
    },
    {
      "x": 216,
      "y": 356,
      "size": 1,
      "price": "1011000000000000000000",
      "reserved": "",
      "salt": "0xfb0b0f9630f2dc993f9aa9db4662406ec74b8858c68ff07511c07c77e92b9058",
      "assetIds": []
    },
    {
      "x": 217,
      "y": 350,
      "size": 1,
      "price": "1011000000000000000000",
      "reserved": "0x7a9fe22691c811ea339d9b73150e6911a5343dca",
      "salt": "0x7aa82273696c836a01c6d95d193cd30ac85c1216fffec6a4055042c628caab99",
      "assetIds": []
    },
    {
      "x": 217,
      "y": 351,
      "size": 1,
      "price": "1011000000000000000000",
      "reserved": "",
      "salt": "0x06c1322f5dd5342bb9cca93dc1e1277038842267fe87edcfedd3c1dd81426259",
      "assetIds": []
    },
    {
      "x": 217,
      "y": 352,
      "size": 1,
      "price": "1011000000000000000000",
      "reserved": "0x7a9fe22691c811ea339d9b73150e6911a5343dca",
      "salt": "0xd79c88bdbd67c346191f9e7aeec4ece5cf1e5071cde66ad14f9d4c3e00e6faa9",
      "assetIds": []
    },
    {
      "x": 217,
      "y": 353,
      "size": 1,
      "price": "1011000000000000000000",
      "reserved": "",
      "salt": "0x470a95677d8dc92f81a977b75fadfd2bee168bd0832d3310db53319ba8a41c19",
      "assetIds": []
    },
    {
      "x": 217,
      "y": 354,
      "size": 1,
      "price": "1011000000000000000000",
      "reserved": "0x7a9fe22691c811ea339d9b73150e6911a5343dca",
      "salt": "0x0bf5c6aeacb24099b4b96c37dcdf8c8f189019d0d0cac2770a46714be447728b",
      "assetIds": []
    },
    {
      "x": 217,
      "y": 355,
      "size": 1,
      "price": "1011000000000000000000",
      "reserved": "",
      "salt": "0xfe695cc20e04dbb4f3a8e52250161919fc47ab705ac6cbe47b83108746b9ca56",
      "assetIds": []
    },
    {
      "x": 217,
      "y": 356,
      "size": 1,
      "price": "1011000000000000000000",
      "reserved": "",
      "salt": "0x689bd6c36711f34b1f9366ce72f514aab531eb8843c1e71fcd89d53a3d21b60e",
      "assetIds": []
    },
    {
      "x": 218,
      "y": 349,
      "size": 1,
      "price": "4683000000000000000000",
      "reserved": "",
      "salt": "0x1b6fd802623ad926f3c1098abea347bd13c44ffb3879d81574f8b0936a72fa3c",
      "assetIds": [
        "55464657044963196816950587289035428064568320970692304673817341489687790884865",
        "55464657044963196816950587289035428064568320970692304673817341489687782494208",
        "55464657044963196816950587289035428064568320970692304673817341489687790884866",
        "55464657044963196816950587289035428064568320970692304673817341489687782494209",
        "55464657044963196816950587289035428064568320970692304673817341489687790884864"
      ]
    },
    {
      "x": 218,
      "y": 350,
      "size": 1,
      "price": "4683000000000000000000",
      "reserved": "",
      "salt": "0x037307727409c2aca9482a2dcb0492b60c80bc4a605c81d862684f9f58c859b6",
      "assetIds": [
        "55464657044963196816950587289035428064568320970692304673817341489687790884865",
        "55464657044963196816950587289035428064568320970692304673817341489687782494208",
        "55464657044963196816950587289035428064568320970692304673817341489687790884866",
        "55464657044963196816950587289035428064568320970692304673817341489687782494209",
        "55464657044963196816950587289035428064568320970692304673817341489687790884864"
      ]
    },
    {
      "x": 218,
      "y": 351,
      "size": 1,
      "price": "4683000000000000000000",
      "reserved": "",
      "salt": "0x6f36eb92fae0a924878418bc1aaeb65fe09bda3996bdc974fd271c0f220e96e1",
      "assetIds": [
        "55464657044963196816950587289035428064568320970692304673817341489687790884865",
        "55464657044963196816950587289035428064568320970692304673817341489687782494208",
        "55464657044963196816950587289035428064568320970692304673817341489687790884866",
        "55464657044963196816950587289035428064568320970692304673817341489687782494209",
        "55464657044963196816950587289035428064568320970692304673817341489687790884864"
      ]
    },
    {
      "x": 218,
      "y": 352,
      "size": 1,
      "price": "1011000000000000000000",
      "reserved": "",
      "salt": "0x17adc149a8a2b88373fee05cc52c9cabea4853726eac8d39c9b717a57b47f1b3",
      "assetIds": []
    },
    {
      "x": 218,
      "y": 353,
      "size": 1,
      "price": "1011000000000000000000",
      "reserved": "",
      "salt": "0x2a569903966a00283afb57d63d050e09be832aadfda06f1e9fb0919169b5099a",
      "assetIds": []
    },
    {
      "x": 218,
      "y": 354,
      "size": 1,
      "price": "1011000000000000000000",
      "reserved": "0x7a9fe22691c811ea339d9b73150e6911a5343dca",
      "salt": "0x52bb148d893c29283db5474467313fbb0328fab4c98349111083bae06dedcc57",
      "assetIds": []
    },
    {
      "x": 218,
      "y": 355,
      "size": 1,
      "price": "1011000000000000000000",
      "reserved": "",
      "salt": "0xc591c5f1ad68cf88edbad51bd74a36bfe4d158d4a7fa8cedb49af336ed5f459b",
      "assetIds": []
    },
    {
      "x": 218,
      "y": 356,
      "size": 1,
      "price": "1011000000000000000000",
      "reserved": "",
      "salt": "0xaae31b43de2e7d129b23d1eff95096b2cd4facedfd0f709d181a4b34cfc560bc",
      "assetIds": []
    },
    {
      "x": 219,
      "y": 336,
      "size": 1,
      "price": "1011000000000000000000",
      "reserved": "",
      "salt": "0x3b1b8df0b1d3c29da986962834555d18affcde2da821b053a2d15fd999afeaf4",
      "assetIds": []
    },
    {
      "x": 219,
      "y": 337,
      "size": 1,
      "price": "1011000000000000000000",
      "reserved": "",
      "salt": "0x9e2d93e6c001cee1b13aba91ac7e13f9414e5f7f2dbaec122c4c51e1ebc762b6",
      "assetIds": []
    },
    {
      "x": 219,
      "y": 338,
      "size": 1,
      "price": "4683000000000000000000",
      "reserved": "",
      "salt": "0x5830452e8a16908d9fcab81b6fda4cf09ec081be9899f5fe0e655f0d4d767a42",
      "assetIds": [
        "55464657044963196816950587289035428064568320970692304673817341489687790884865",
        "55464657044963196816950587289035428064568320970692304673817341489687782494208",
        "55464657044963196816950587289035428064568320970692304673817341489687790884866",
        "55464657044963196816950587289035428064568320970692304673817341489687782494209",
        "55464657044963196816950587289035428064568320970692304673817341489687790884864"
      ]
    },
    {
      "x": 219,
      "y": 342,
      "size": 1,
      "price": "4683000000000000000000",
      "reserved": "",
      "salt": "0x29e396f5f39bfc00ecc5786808bbc671479ce2f14681ea78b73e42d539196f53",
      "assetIds": [
        "55464657044963196816950587289035428064568320970692304673817341489687790884865",
        "55464657044963196816950587289035428064568320970692304673817341489687782494208",
        "55464657044963196816950587289035428064568320970692304673817341489687790884866",
        "55464657044963196816950587289035428064568320970692304673817341489687782494209",
        "55464657044963196816950587289035428064568320970692304673817341489687790884864"
      ]
    },
    {
      "x": 219,
      "y": 343,
      "size": 1,
      "price": "1011000000000000000000",
      "reserved": "0x7a9fe22691c811ea339d9b73150e6911a5343dca",
      "salt": "0x1a51944a8001c07861fb413de1597ea62c8841ac13d70640819aa523ffad94f9",
      "assetIds": []
    },
    {
      "x": 219,
      "y": 344,
      "size": 1,
      "price": "4683000000000000000000",
      "reserved": "",
      "salt": "0xd22c60db97e087fa4007432b5f20235dc405147627f92cfff6f99d713daf4e47",
      "assetIds": [
        "55464657044963196816950587289035428064568320970692304673817341489687790884865",
        "55464657044963196816950587289035428064568320970692304673817341489687782494208",
        "55464657044963196816950587289035428064568320970692304673817341489687790884866",
        "55464657044963196816950587289035428064568320970692304673817341489687782494209",
        "55464657044963196816950587289035428064568320970692304673817341489687790884864"
      ]
    },
    {
      "x": 219,
      "y": 345,
      "size": 1,
      "price": "4683000000000000000000",
      "reserved": "",
      "salt": "0x0b0868e52f60d2d0e5c4e51f58265fc7a42f37f2fd0dfb40bb3caa7432845875",
      "assetIds": [
        "55464657044963196816950587289035428064568320970692304673817341489687790884865",
        "55464657044963196816950587289035428064568320970692304673817341489687782494208",
        "55464657044963196816950587289035428064568320970692304673817341489687790884866",
        "55464657044963196816950587289035428064568320970692304673817341489687782494209",
        "55464657044963196816950587289035428064568320970692304673817341489687790884864"
      ]
    },
    {
      "x": 219,
      "y": 346,
      "size": 1,
      "price": "4683000000000000000000",
      "reserved": "",
      "salt": "0x4e73591cc102af779202466e2d38114f379e06fd2997a480134a743b0c4a8543",
      "assetIds": [
        "55464657044963196816950587289035428064568320970692304673817341489687790884865",
        "55464657044963196816950587289035428064568320970692304673817341489687782494208",
        "55464657044963196816950587289035428064568320970692304673817341489687790884866",
        "55464657044963196816950587289035428064568320970692304673817341489687782494209",
        "55464657044963196816950587289035428064568320970692304673817341489687790884864"
      ]
    },
    {
      "x": 219,
      "y": 347,
      "size": 1,
      "price": "4683000000000000000000",
      "reserved": "",
      "salt": "0xb81f5f3aea38feeac3a97eef4b43f7945bec4301040ca9e84cee48dabed0c7af",
      "assetIds": [
        "55464657044963196816950587289035428064568320970692304673817341489687790884865",
        "55464657044963196816950587289035428064568320970692304673817341489687782494208",
        "55464657044963196816950587289035428064568320970692304673817341489687790884866",
        "55464657044963196816950587289035428064568320970692304673817341489687782494209",
        "55464657044963196816950587289035428064568320970692304673817341489687790884864"
      ]
    },
    {
      "x": 219,
      "y": 351,
      "size": 1,
      "price": "4683000000000000000000",
      "reserved": "",
      "salt": "0x7e86f731257d86c6de5075ff2be3683608575656c1e2cb13957b788bcf1993f4",
      "assetIds": [
        "55464657044963196816950587289035428064568320970692304673817341489687790884865",
        "55464657044963196816950587289035428064568320970692304673817341489687782494208",
        "55464657044963196816950587289035428064568320970692304673817341489687790884866",
        "55464657044963196816950587289035428064568320970692304673817341489687782494209",
        "55464657044963196816950587289035428064568320970692304673817341489687790884864"
      ]
    },
    {
      "x": 219,
      "y": 352,
      "size": 1,
      "price": "1011000000000000000000",
      "reserved": "0x7a9fe22691c811ea339d9b73150e6911a5343dca",
      "salt": "0x470a05c4315e204863090a01d1139ac554ba7a1e84e694b36d3647c18267e482",
      "assetIds": []
    },
    {
      "x": 219,
      "y": 353,
      "size": 1,
      "price": "1011000000000000000000",
      "reserved": "",
      "salt": "0xabaf92dbecda94d8ade727b29727372b31a33810ec77f30921b70571c4f2f308",
      "assetIds": []
    },
    {
      "x": 219,
      "y": 354,
      "size": 1,
      "price": "1011000000000000000000",
      "reserved": "",
      "salt": "0x3f06059ef45b80ac908dc7fd42589271d99b896a28f59dbcf91e32491aaad587",
      "assetIds": []
    },
    {
      "x": 219,
      "y": 355,
      "size": 1,
      "price": "1011000000000000000000",
      "reserved": "",
      "salt": "0x4ab3e42cfcd035ddd17e9d88e8a83b9c1e3baf354ecd18b51be6e79be93b4ec9",
      "assetIds": []
    },
    {
      "x": 219,
      "y": 356,
      "size": 1,
      "price": "1011000000000000000000",
      "reserved": "",
      "salt": "0xc3ca586a54b83f09d007646ab17a548f4e035f1fc5506a1a52cc8bf9e020a23a",
      "assetIds": []
    },
    {
      "x": 220,
      "y": 336,
      "size": 1,
      "price": "1011000000000000000000",
      "reserved": "",
      "salt": "0x05d0497d70544255ce6d2d06b0c9a9a2080d525efc990a62a88b460d04a97286",
      "assetIds": []
    },
    {
      "x": 220,
      "y": 337,
      "size": 1,
      "price": "1011000000000000000000",
      "reserved": "",
      "salt": "0x2060643e3e0272160346453171fb72ab9a390061b680af65b7bfda0e34c02f1e",
      "assetIds": []
    },
    {
      "x": 220,
      "y": 338,
      "size": 1,
      "price": "4683000000000000000000",
      "reserved": "",
      "salt": "0x06727801b92e6cc1b5934a8be2e6b1d39cdc43ad701d0214406bc108542b5210",
      "assetIds": [
        "55464657044963196816950587289035428064568320970692304673817341489687790884865",
        "55464657044963196816950587289035428064568320970692304673817341489687782494208",
        "55464657044963196816950587289035428064568320970692304673817341489687790884866",
        "55464657044963196816950587289035428064568320970692304673817341489687782494209",
        "55464657044963196816950587289035428064568320970692304673817341489687790884864"
      ]
    },
    {
      "x": 220,
      "y": 342,
      "size": 1,
      "price": "4683000000000000000000",
      "reserved": "",
      "salt": "0xf65a2ed0b4e98fc984635390ac6a961409df86221ed8fcf35f73a0f7718d8b83",
      "assetIds": [
        "55464657044963196816950587289035428064568320970692304673817341489687790884865",
        "55464657044963196816950587289035428064568320970692304673817341489687782494208",
        "55464657044963196816950587289035428064568320970692304673817341489687790884866",
        "55464657044963196816950587289035428064568320970692304673817341489687782494209",
        "55464657044963196816950587289035428064568320970692304673817341489687790884864"
      ]
    },
    {
      "x": 220,
      "y": 343,
      "size": 1,
      "price": "1011000000000000000000",
      "reserved": "",
      "salt": "0x281f2520e02caf248f4f10e99601fbc450bcbf729c2e6243b26e193f20c61417",
      "assetIds": []
    },
    {
      "x": 220,
      "y": 344,
      "size": 1,
      "price": "4683000000000000000000",
      "reserved": "",
      "salt": "0xbba73aef5e042f1843bd09f88a32ce760987ea85ccd68451849012dc54585b59",
      "assetIds": [
        "55464657044963196816950587289035428064568320970692304673817341489687790884865",
        "55464657044963196816950587289035428064568320970692304673817341489687782494208",
        "55464657044963196816950587289035428064568320970692304673817341489687790884866",
        "55464657044963196816950587289035428064568320970692304673817341489687782494209",
        "55464657044963196816950587289035428064568320970692304673817341489687790884864"
      ]
    },
    {
      "x": 220,
      "y": 345,
      "size": 1,
      "price": "4683000000000000000000",
      "reserved": "",
      "salt": "0x13cf05d7f4f832fc6730a1cb6b60efe3c9d017c8ffc291bd65d002ad382ad43a",
      "assetIds": [
        "55464657044963196816950587289035428064568320970692304673817341489687790884865",
        "55464657044963196816950587289035428064568320970692304673817341489687782494208",
        "55464657044963196816950587289035428064568320970692304673817341489687790884866",
        "55464657044963196816950587289035428064568320970692304673817341489687782494209",
        "55464657044963196816950587289035428064568320970692304673817341489687790884864"
      ]
    },
    {
      "x": 220,
      "y": 346,
      "size": 1,
      "price": "4683000000000000000000",
      "reserved": "",
      "salt": "0xd0973f25c5b69e41bc0a3cbb5da0f53617fd9e7fe42abca8b222cff1f01af2b4",
      "assetIds": [
        "55464657044963196816950587289035428064568320970692304673817341489687790884865",
        "55464657044963196816950587289035428064568320970692304673817341489687782494208",
        "55464657044963196816950587289035428064568320970692304673817341489687790884866",
        "55464657044963196816950587289035428064568320970692304673817341489687782494209",
        "55464657044963196816950587289035428064568320970692304673817341489687790884864"
      ]
    },
    {
      "x": 220,
      "y": 347,
      "size": 1,
      "price": "4683000000000000000000",
      "reserved": "",
      "salt": "0x2ad1df954ffb9dd5860c097bfa036d593ef3b738cca931f1c1f5d76d23ae4759",
      "assetIds": [
        "55464657044963196816950587289035428064568320970692304673817341489687790884865",
        "55464657044963196816950587289035428064568320970692304673817341489687782494208",
        "55464657044963196816950587289035428064568320970692304673817341489687790884866",
        "55464657044963196816950587289035428064568320970692304673817341489687782494209",
        "55464657044963196816950587289035428064568320970692304673817341489687790884864"
      ]
    },
    {
      "x": 220,
      "y": 351,
      "size": 1,
      "price": "4683000000000000000000",
      "reserved": "",
      "salt": "0x95ed326cf8402215d0d2cdaa8984d64507bfb3675abd58d333d32812603be258",
      "assetIds": [
        "55464657044963196816950587289035428064568320970692304673817341489687790884865",
        "55464657044963196816950587289035428064568320970692304673817341489687782494208",
        "55464657044963196816950587289035428064568320970692304673817341489687790884866",
        "55464657044963196816950587289035428064568320970692304673817341489687782494209",
        "55464657044963196816950587289035428064568320970692304673817341489687790884864"
      ]
    },
    {
      "x": 220,
      "y": 352,
      "size": 1,
      "price": "4683000000000000000000",
      "reserved": "",
      "salt": "0xb3df8e998844d4ba467eb9b131e63623a94a2dcac1ce11b14640b8b441e0ebad",
      "assetIds": [
        "55464657044963196816950587289035428064568320970692304673817341489687790884865",
        "55464657044963196816950587289035428064568320970692304673817341489687782494208",
        "55464657044963196816950587289035428064568320970692304673817341489687790884866",
        "55464657044963196816950587289035428064568320970692304673817341489687782494209",
        "55464657044963196816950587289035428064568320970692304673817341489687790884864"
      ]
    },
    {
      "x": 220,
      "y": 353,
      "size": 1,
      "price": "1011000000000000000000",
      "reserved": "",
      "salt": "0x4f0c5b4d7fda18327f899c568e45b290b4591203c0d34519c7b41f0e87b48180",
      "assetIds": []
    },
    {
      "x": 220,
      "y": 354,
      "size": 1,
      "price": "1011000000000000000000",
      "reserved": "",
      "salt": "0xff33a0fe833193719a394bc9c8c0f001a532bb83ae52cee4dfb6b130509060bc",
      "assetIds": []
    },
    {
      "x": 220,
      "y": 355,
      "size": 1,
      "price": "1011000000000000000000",
      "reserved": "",
      "salt": "0x7f52c92e70e7a59b49c4860a6038eee1490f0edb8e75242669aaf8840a485adb",
      "assetIds": []
    },
    {
      "x": 220,
      "y": 356,
      "size": 1,
      "price": "1011000000000000000000",
      "reserved": "0x7a9fe22691c811ea339d9b73150e6911a5343dca",
      "salt": "0xe1a75fbd2c0bc89b950d04b8f080dbc52652d9aaa8b152d4129bfc16c7acbd62",
      "assetIds": []
    },
    {
      "x": 221,
      "y": 336,
      "size": 1,
      "price": "1011000000000000000000",
      "reserved": "",
      "salt": "0x73cfa3452b56bd38aa49d95a697bac42a0b99cc9f6c528aef35588b76bca76ce",
      "assetIds": []
    },
    {
      "x": 221,
      "y": 337,
      "size": 1,
      "price": "4683000000000000000000",
      "reserved": "",
      "salt": "0xc0f351e23de142e2338ab92a7a553522a62d5aa2df8180b40601695ff70c815e",
      "assetIds": [
        "55464657044963196816950587289035428064568320970692304673817341489687790884865",
        "55464657044963196816950587289035428064568320970692304673817341489687782494208",
        "55464657044963196816950587289035428064568320970692304673817341489687790884866",
        "55464657044963196816950587289035428064568320970692304673817341489687782494209",
        "55464657044963196816950587289035428064568320970692304673817341489687790884864"
      ]
    },
    {
      "x": 221,
      "y": 338,
      "size": 1,
      "price": "4683000000000000000000",
      "reserved": "",
      "salt": "0x46acbe2d7f16d78ab72c35e19f2b65fa870efba1a39aef454b9001f8b355c637",
      "assetIds": [
        "55464657044963196816950587289035428064568320970692304673817341489687790884865",
        "55464657044963196816950587289035428064568320970692304673817341489687782494208",
        "55464657044963196816950587289035428064568320970692304673817341489687790884866",
        "55464657044963196816950587289035428064568320970692304673817341489687782494209",
        "55464657044963196816950587289035428064568320970692304673817341489687790884864"
      ]
    },
    {
      "x": 221,
      "y": 342,
      "size": 1,
      "price": "4683000000000000000000",
      "reserved": "",
      "salt": "0xffd1165df11a36c156491ec6bbacdfb0a3461625f1853e325ec33472ce5a27b8",
      "assetIds": [
        "55464657044963196816950587289035428064568320970692304673817341489687790884865",
        "55464657044963196816950587289035428064568320970692304673817341489687782494208",
        "55464657044963196816950587289035428064568320970692304673817341489687790884866",
        "55464657044963196816950587289035428064568320970692304673817341489687782494209",
        "55464657044963196816950587289035428064568320970692304673817341489687790884864"
      ]
    },
    {
      "x": 221,
      "y": 343,
      "size": 1,
      "price": "1011000000000000000000",
      "reserved": "",
      "salt": "0xc7bf293e47e93c2ae4ed74502aba8a3049bed956356d8e98eac00012cad9d49c",
      "assetIds": []
    },
    {
      "x": 221,
      "y": 344,
      "size": 1,
      "price": "1011000000000000000000",
      "reserved": "",
      "salt": "0xdfab91a0cf4057cb9c2e03b0a2868702ace3dd7656301e31822500199c63ef80",
      "assetIds": []
    },
    {
      "x": 221,
      "y": 345,
      "size": 1,
      "price": "4683000000000000000000",
      "reserved": "",
      "salt": "0xfc3bd377b972117ffbb8418f34b4ba9f74424f2d79c04b26aa6b32e7b997d0de",
      "assetIds": [
        "55464657044963196816950587289035428064568320970692304673817341489687790884865",
        "55464657044963196816950587289035428064568320970692304673817341489687782494208",
        "55464657044963196816950587289035428064568320970692304673817341489687790884866",
        "55464657044963196816950587289035428064568320970692304673817341489687782494209",
        "55464657044963196816950587289035428064568320970692304673817341489687790884864"
      ]
    },
    {
      "x": 221,
      "y": 346,
      "size": 1,
      "price": "4683000000000000000000",
      "reserved": "",
      "salt": "0x371295f953115ae01ab13bf414a499aea622b71c51ba535e6d9e683a8f295008",
      "assetIds": [
        "55464657044963196816950587289035428064568320970692304673817341489687790884865",
        "55464657044963196816950587289035428064568320970692304673817341489687782494208",
        "55464657044963196816950587289035428064568320970692304673817341489687790884866",
        "55464657044963196816950587289035428064568320970692304673817341489687782494209",
        "55464657044963196816950587289035428064568320970692304673817341489687790884864"
      ]
    },
    {
      "x": 221,
      "y": 347,
      "size": 1,
      "price": "4683000000000000000000",
      "reserved": "",
      "salt": "0x8b0ab3a0f04a0eb75f4aa202212dbd7068b0a4888b38cdb66e813c18881cd4b8",
      "assetIds": [
        "55464657044963196816950587289035428064568320970692304673817341489687790884865",
        "55464657044963196816950587289035428064568320970692304673817341489687782494208",
        "55464657044963196816950587289035428064568320970692304673817341489687790884866",
        "55464657044963196816950587289035428064568320970692304673817341489687782494209",
        "55464657044963196816950587289035428064568320970692304673817341489687790884864"
      ]
    },
    {
      "x": 221,
      "y": 351,
      "size": 1,
      "price": "4683000000000000000000",
      "reserved": "",
      "salt": "0xb931a9c6cf613f3bea85eea6501196b1d5a62eff3f4fdca8ae93b56b64f7cab8",
      "assetIds": [
        "55464657044963196816950587289035428064568320970692304673817341489687790884865",
        "55464657044963196816950587289035428064568320970692304673817341489687782494208",
        "55464657044963196816950587289035428064568320970692304673817341489687790884866",
        "55464657044963196816950587289035428064568320970692304673817341489687782494209",
        "55464657044963196816950587289035428064568320970692304673817341489687790884864"
      ]
    },
    {
      "x": 221,
      "y": 352,
      "size": 1,
      "price": "4683000000000000000000",
      "reserved": "",
      "salt": "0x43a44e1dbad8be894d3e2a4f6ff65ac03c9df034fa7f64baa793741dad18e8f6",
      "assetIds": [
        "55464657044963196816950587289035428064568320970692304673817341489687790884865",
        "55464657044963196816950587289035428064568320970692304673817341489687782494208",
        "55464657044963196816950587289035428064568320970692304673817341489687790884866",
        "55464657044963196816950587289035428064568320970692304673817341489687782494209",
        "55464657044963196816950587289035428064568320970692304673817341489687790884864"
      ]
    },
    {
      "x": 221,
      "y": 353,
      "size": 1,
      "price": "1011000000000000000000",
      "reserved": "",
      "salt": "0xe47f7aaff709dd781e5f4c46e6d72c3d827e5193c5812a27106bb548dcb5c375",
      "assetIds": []
    },
    {
      "x": 221,
      "y": 354,
      "size": 1,
      "price": "1011000000000000000000",
      "reserved": "",
      "salt": "0x09b32f5d3c7c70ec46dc79e2cc7e3e8e77ec21512845d1ebffe79185f918f9c9",
      "assetIds": []
    },
    {
      "x": 221,
      "y": 355,
      "size": 1,
      "price": "1011000000000000000000",
      "reserved": "",
      "salt": "0x74196f1b2a80252ecb138e55c7e62648285f46b2ec2698c8872b7ce2d18403c4",
      "assetIds": []
    },
    {
      "x": 221,
      "y": 356,
      "size": 1,
      "price": "1011000000000000000000",
      "reserved": "",
      "salt": "0x68abf465b7e7967029e4128ad7615af56b91d99099f5e863c1d8e534a004d185",
      "assetIds": []
    },
    {
      "x": 222,
      "y": 342,
      "size": 1,
      "price": "4683000000000000000000",
      "reserved": "",
      "salt": "0xf305e5832f14b815b9aa0a3c148e2fdcc111804a83c993586492b9f17ad7e4f0",
      "assetIds": [
        "55464657044963196816950587289035428064568320970692304673817341489687790884865",
        "55464657044963196816950587289035428064568320970692304673817341489687782494208",
        "55464657044963196816950587289035428064568320970692304673817341489687790884866",
        "55464657044963196816950587289035428064568320970692304673817341489687782494209",
        "55464657044963196816950587289035428064568320970692304673817341489687790884864"
      ]
    },
    {
      "x": 222,
      "y": 343,
      "size": 1,
      "price": "4683000000000000000000",
      "reserved": "",
      "salt": "0x9a60e928bc4c04a4d853497db82ea71b4c6ab723c2cbd3d68aa7d3ef97a65415",
      "assetIds": [
        "55464657044963196816950587289035428064568320970692304673817341489687790884865",
        "55464657044963196816950587289035428064568320970692304673817341489687782494208",
        "55464657044963196816950587289035428064568320970692304673817341489687790884866",
        "55464657044963196816950587289035428064568320970692304673817341489687782494209",
        "55464657044963196816950587289035428064568320970692304673817341489687790884864"
      ]
    },
    {
      "x": 222,
      "y": 344,
      "size": 1,
      "price": "1011000000000000000000",
      "reserved": "",
      "salt": "0x270d6de48cf12d07456cee6096a06f1d5cb7b2547864c261b2782b2ced8f5bf0",
      "assetIds": []
    },
    {
      "x": 222,
      "y": 345,
      "size": 1,
      "price": "4683000000000000000000",
      "reserved": "",
      "salt": "0x2bce449828b9eab3ad6608794f9d428bd038ad4ff729a16e87d159463eef64e2",
      "assetIds": [
        "55464657044963196816950587289035428064568320970692304673817341489687790884865",
        "55464657044963196816950587289035428064568320970692304673817341489687782494208",
        "55464657044963196816950587289035428064568320970692304673817341489687790884866",
        "55464657044963196816950587289035428064568320970692304673817341489687782494209",
        "55464657044963196816950587289035428064568320970692304673817341489687790884864"
      ]
    },
    {
      "x": 222,
      "y": 346,
      "size": 1,
      "price": "4683000000000000000000",
      "reserved": "",
      "salt": "0x05334021f4dff4ed5139026d22859d6029cdd8b0167ceadd241011e533e76b31",
      "assetIds": [
        "55464657044963196816950587289035428064568320970692304673817341489687790884865",
        "55464657044963196816950587289035428064568320970692304673817341489687782494208",
        "55464657044963196816950587289035428064568320970692304673817341489687790884866",
        "55464657044963196816950587289035428064568320970692304673817341489687782494209",
        "55464657044963196816950587289035428064568320970692304673817341489687790884864"
      ]
    },
    {
      "x": 222,
      "y": 347,
      "size": 1,
      "price": "4683000000000000000000",
      "reserved": "",
      "salt": "0xbb27ccde40bb9fc49468d13471e8021b94c42589a9ccec65e0479c86beca6d4b",
      "assetIds": [
        "55464657044963196816950587289035428064568320970692304673817341489687790884865",
        "55464657044963196816950587289035428064568320970692304673817341489687782494208",
        "55464657044963196816950587289035428064568320970692304673817341489687790884866",
        "55464657044963196816950587289035428064568320970692304673817341489687782494209",
        "55464657044963196816950587289035428064568320970692304673817341489687790884864"
      ]
    },
    {
      "x": 222,
      "y": 351,
      "size": 1,
      "price": "4683000000000000000000",
      "reserved": "",
      "salt": "0x555393778639e6c2697094b2167d27792a94b0515da15a34a65de01858935454",
      "assetIds": [
        "55464657044963196816950587289035428064568320970692304673817341489687790884865",
        "55464657044963196816950587289035428064568320970692304673817341489687782494208",
        "55464657044963196816950587289035428064568320970692304673817341489687790884866",
        "55464657044963196816950587289035428064568320970692304673817341489687782494209",
        "55464657044963196816950587289035428064568320970692304673817341489687790884864"
      ]
    },
    {
      "x": 222,
      "y": 352,
      "size": 1,
      "price": "4683000000000000000000",
      "reserved": "",
      "salt": "0x9c279c7758428a0a7cab889889215a5350ea86033863aca7fb523559971819b4",
      "assetIds": [
        "55464657044963196816950587289035428064568320970692304673817341489687790884865",
        "55464657044963196816950587289035428064568320970692304673817341489687782494208",
        "55464657044963196816950587289035428064568320970692304673817341489687790884866",
        "55464657044963196816950587289035428064568320970692304673817341489687782494209",
        "55464657044963196816950587289035428064568320970692304673817341489687790884864"
      ]
    },
    {
      "x": 222,
      "y": 353,
      "size": 1,
      "price": "1011000000000000000000",
      "reserved": "",
      "salt": "0xbb02890a5d270ca27ab9a463f2d0e411c77600334c2ae96f228c1c18d0206e7c",
      "assetIds": []
    },
    {
      "x": 222,
      "y": 354,
      "size": 1,
      "price": "1011000000000000000000",
      "reserved": "0x7a9fe22691c811ea339d9b73150e6911a5343dca",
      "salt": "0x59555dc11de2f5842d11cf421e0eee52282de5b37e53f28dcde03f06edd344d2",
      "assetIds": []
    },
    {
      "x": 222,
      "y": 355,
      "size": 1,
      "price": "1011000000000000000000",
      "reserved": "",
      "salt": "0xe1c36a196c926ad3a98a9994a44d03328a8b15cfc33778524b18e21ea4f09ab8",
      "assetIds": []
    },
    {
      "x": 222,
      "y": 356,
      "size": 1,
      "price": "1011000000000000000000",
      "reserved": "",
      "salt": "0xfb3f43f4bade777ccd6894d7c94644581ca801558826c898e7b381e0972e84aa",
      "assetIds": []
    },
    {
      "x": 223,
      "y": 342,
      "size": 1,
      "price": "1011000000000000000000",
      "reserved": "",
      "salt": "0x2ccb854956ee62cf66e9fa2d2ec7a695a6134cb458011a08f8968e3e7631fa50",
      "assetIds": []
    },
    {
      "x": 223,
      "y": 343,
      "size": 1,
      "price": "1011000000000000000000",
      "reserved": "0x7a9fe22691c811ea339d9b73150e6911a5343dca",
      "salt": "0x891356082bec92a1d5439f30404be2888d4ce8c6794f90370a1eea346ebb04e5",
      "assetIds": []
    },
    {
      "x": 223,
      "y": 344,
      "size": 1,
      "price": "1011000000000000000000",
      "reserved": "",
      "salt": "0xf4c4d4a78b592673d426c3421c8f707829ced52cb06f3fc63183ca1007c012bf",
      "assetIds": []
    },
    {
      "x": 223,
      "y": 345,
      "size": 1,
      "price": "4683000000000000000000",
      "reserved": "",
      "salt": "0x81ed730b93cb2bbed5e4b04a99b702fe1945b7c1379fc0bb9d037482ba4c4d97",
      "assetIds": [
        "55464657044963196816950587289035428064568320970692304673817341489687790884865",
        "55464657044963196816950587289035428064568320970692304673817341489687782494208",
        "55464657044963196816950587289035428064568320970692304673817341489687790884866",
        "55464657044963196816950587289035428064568320970692304673817341489687782494209",
        "55464657044963196816950587289035428064568320970692304673817341489687790884864"
      ]
    },
    {
      "x": 223,
      "y": 346,
      "size": 1,
      "price": "4683000000000000000000",
      "reserved": "",
      "salt": "0x15a1ab73d94b523bd7d7696505676a19933b20e23a58e14e4269f20e3d0e58c8",
      "assetIds": [
        "55464657044963196816950587289035428064568320970692304673817341489687790884865",
        "55464657044963196816950587289035428064568320970692304673817341489687782494208",
        "55464657044963196816950587289035428064568320970692304673817341489687790884866",
        "55464657044963196816950587289035428064568320970692304673817341489687782494209",
        "55464657044963196816950587289035428064568320970692304673817341489687790884864"
      ]
    },
    {
      "x": 223,
      "y": 347,
      "size": 1,
      "price": "1011000000000000000000",
      "reserved": "",
      "salt": "0x8c6cde55c9f986f31010c333395f0a4a92ca5aade09240cf7d6ae930b540bc18",
      "assetIds": []
    },
    {
      "x": 223,
      "y": 351,
      "size": 1,
      "price": "4683000000000000000000",
      "reserved": "",
      "salt": "0x96c6684897cd917d181899d6e4456adee5339f7302061c23b5a83ca321996d0c",
      "assetIds": [
        "55464657044963196816950587289035428064568320970692304673817341489687790884865",
        "55464657044963196816950587289035428064568320970692304673817341489687782494208",
        "55464657044963196816950587289035428064568320970692304673817341489687790884866",
        "55464657044963196816950587289035428064568320970692304673817341489687782494209",
        "55464657044963196816950587289035428064568320970692304673817341489687790884864"
      ]
    },
    {
      "x": 223,
      "y": 352,
      "size": 1,
      "price": "1011000000000000000000",
      "reserved": "",
      "salt": "0xe40145e2c63d589055bcae0fb08b00b2b36606a39bbea3429b897b924c948304",
      "assetIds": []
    },
    {
      "x": 223,
      "y": 353,
      "size": 1,
      "price": "1011000000000000000000",
      "reserved": "",
      "salt": "0x2e03174a604d47eae5785f886e97901f60c52d5061b46edfbebc0dd8ebf36036",
      "assetIds": []
    },
    {
      "x": 223,
      "y": 354,
      "size": 1,
      "price": "1011000000000000000000",
      "reserved": "",
      "salt": "0x6684d9e76d3c11436c2abeb3f4705d4b0d2dded73edab8886df2264fc5bc1260",
      "assetIds": []
    },
    {
      "x": 223,
      "y": 355,
      "size": 1,
      "price": "1011000000000000000000",
      "reserved": "",
      "salt": "0xb155f1f984fd80911edc61a18cc9756e6679e8b56b42ea62388956fd4f9da32d",
      "assetIds": []
    },
    {
      "x": 223,
      "y": 356,
      "size": 1,
      "price": "1011000000000000000000",
      "reserved": "",
      "salt": "0x4e38b32fa84ace3807546a06ff1117804783212998222107e612dc6d9261da0a",
      "assetIds": []
    },
    {
      "x": 224,
      "y": 342,
      "size": 1,
      "price": "4683000000000000000000",
      "reserved": "",
      "salt": "0xe5098d5b831fff51fa9d6b20f846a8da01c63eae495c8b0c95b4f328caa03557",
      "assetIds": [
        "55464657044963196816950587289035428064568320970692304673817341489687790884865",
        "55464657044963196816950587289035428064568320970692304673817341489687782494208",
        "55464657044963196816950587289035428064568320970692304673817341489687790884866",
        "55464657044963196816950587289035428064568320970692304673817341489687782494209",
        "55464657044963196816950587289035428064568320970692304673817341489687790884864"
      ]
    },
    {
      "x": 224,
      "y": 343,
      "size": 1,
      "price": "1011000000000000000000",
      "reserved": "",
      "salt": "0x69e27a0ea4fcb85e13136f6599a7fe95fa2845f65060eaab56360f543563236b",
      "assetIds": []
    },
    {
      "x": 224,
      "y": 344,
      "size": 1,
      "price": "1011000000000000000000",
      "reserved": "",
      "salt": "0x8709f23bab35521a2161c057647748b5609c221c2d2d4b179df465cb48f5fba8",
      "assetIds": []
    },
    {
      "x": 224,
      "y": 345,
      "size": 1,
      "price": "1011000000000000000000",
      "reserved": "",
      "salt": "0x9ddafefc6b61163a1f08a0f28ac8c225a3912f243b0cb6b0355490e2ea433348",
      "assetIds": []
    },
    {
      "x": 224,
      "y": 346,
      "size": 1,
      "price": "1011000000000000000000",
      "reserved": "0x7a9fe22691c811ea339d9b73150e6911a5343dca",
      "salt": "0x0388b73cebfb67c8e7f0ed5908cb9612b6926dc5ba2bf48ea24d628d58008cb7",
      "assetIds": []
    },
    {
      "x": 224,
      "y": 347,
      "size": 1,
      "price": "1011000000000000000000",
      "reserved": "",
      "salt": "0x1e88a0e1c43ac09423223034b946fd668e30016725cce025e7586b5c952134ab",
      "assetIds": []
    },
    {
      "x": 224,
      "y": 351,
      "size": 1,
      "price": "4683000000000000000000",
      "reserved": "",
      "salt": "0xfa887f9cbf97152cea8c2925d5853d044b998c161cee8bed5844357032412cab",
      "assetIds": [
        "55464657044963196816950587289035428064568320970692304673817341489687790884865",
        "55464657044963196816950587289035428064568320970692304673817341489687782494208",
        "55464657044963196816950587289035428064568320970692304673817341489687790884866",
        "55464657044963196816950587289035428064568320970692304673817341489687782494209",
        "55464657044963196816950587289035428064568320970692304673817341489687790884864"
      ]
    },
    {
      "x": 224,
      "y": 352,
      "size": 1,
      "price": "1011000000000000000000",
      "reserved": "0x7a9fe22691c811ea339d9b73150e6911a5343dca",
      "salt": "0x8a522ad67d6219e854200c5d07c32cca970f212cdd79f2a82531bced36236d87",
      "assetIds": []
    },
    {
      "x": 224,
      "y": 353,
      "size": 1,
      "price": "1011000000000000000000",
      "reserved": "0x7a9fe22691c811ea339d9b73150e6911a5343dca",
      "salt": "0xf36aec8f942cc695a1abf492b1ee4d59fb3a61e5299d67bd88738066f9550943",
      "assetIds": []
    },
    {
      "x": 224,
      "y": 354,
      "size": 1,
      "price": "1011000000000000000000",
      "reserved": "",
      "salt": "0x39d8bc8f1be88780f747fb3a2c1a1f1ecf0eaa0488ffc422768969bbbad7c1dd",
      "assetIds": []
    },
    {
      "x": 224,
      "y": 355,
      "size": 1,
      "price": "1011000000000000000000",
      "reserved": "",
      "salt": "0xb43f8a70d5075f18e0e756caceac16650be1561b38b2fe65558c068ec63a8054",
      "assetIds": []
    },
    {
      "x": 224,
      "y": 356,
      "size": 1,
      "price": "1011000000000000000000",
      "reserved": "",
      "salt": "0xb918e46a2c8fccd901a04349b9e14dbe63dfae0ff0dd2c609bdfc13e4de3cf10",
      "assetIds": []
    },
    {
      "x": 225,
      "y": 342,
      "size": 1,
      "price": "4683000000000000000000",
      "reserved": "",
      "salt": "0x1f1817d699e28acc48319091610ca82c56c33613ab0a81456a14fb0935cf2bbd",
      "assetIds": [
        "55464657044963196816950587289035428064568320970692304673817341489687790884865",
        "55464657044963196816950587289035428064568320970692304673817341489687782494208",
        "55464657044963196816950587289035428064568320970692304673817341489687790884866",
        "55464657044963196816950587289035428064568320970692304673817341489687782494209",
        "55464657044963196816950587289035428064568320970692304673817341489687790884864"
      ]
    },
    {
      "x": 225,
      "y": 343,
      "size": 1,
      "price": "4683000000000000000000",
      "reserved": "",
      "salt": "0xda775faa5261bdc5105db3144ab4abf7e5959d7917300fa7816234caf11f9974",
      "assetIds": [
        "55464657044963196816950587289035428064568320970692304673817341489687790884865",
        "55464657044963196816950587289035428064568320970692304673817341489687782494208",
        "55464657044963196816950587289035428064568320970692304673817341489687790884866",
        "55464657044963196816950587289035428064568320970692304673817341489687782494209",
        "55464657044963196816950587289035428064568320970692304673817341489687790884864"
      ]
    },
    {
      "x": 225,
      "y": 344,
      "size": 1,
      "price": "1011000000000000000000",
      "reserved": "",
      "salt": "0x082f78ecb5536587c5705d12755770a0ef2b73ac0f80486b23cb035d3a5aad51",
      "assetIds": []
    },
    {
      "x": 225,
      "y": 345,
      "size": 1,
      "price": "1011000000000000000000",
      "reserved": "",
      "salt": "0x77c453d3f931e5f3340dac05bed27095bd87fd3f80fb601d8510c32b8b5e5ed6",
      "assetIds": []
    },
    {
      "x": 225,
      "y": 346,
      "size": 1,
      "price": "1011000000000000000000",
      "reserved": "",
      "salt": "0x740429e575db1bf7b877b64e4c74f4ae63fd36f92b12e639617f9ded79580661",
      "assetIds": []
    },
    {
      "x": 225,
      "y": 347,
      "size": 1,
      "price": "1011000000000000000000",
      "reserved": "0x7a9fe22691c811ea339d9b73150e6911a5343dca",
      "salt": "0xaa1ddee539b3260db30eb444e6538c1e480c78f074506c0730f57eed5e301476",
      "assetIds": []
    },
    {
      "x": 225,
      "y": 348,
      "size": 1,
      "price": "1011000000000000000000",
      "reserved": "",
      "salt": "0x16a16dd4e5010b9ab6c76aee5664c0bd449a2352e58ba4508f47db284cf33a86",
      "assetIds": []
    },
    {
      "x": 225,
      "y": 349,
      "size": 1,
      "price": "1011000000000000000000",
      "reserved": "",
      "salt": "0x69170dfbeb06857d59bbec69b2df48b73f0f1fa497ec6dcfafbd79ec4747e569",
      "assetIds": []
    },
    {
      "x": 225,
      "y": 350,
      "size": 1,
      "price": "1011000000000000000000",
      "reserved": "",
      "salt": "0xb9b48c482718d0680d1fa7f7fcf31121f7283a1a5d61cce8e3bcfc7ceebec7d6",
      "assetIds": []
    },
    {
      "x": 225,
      "y": 351,
      "size": 1,
      "price": "1011000000000000000000",
      "reserved": "",
      "salt": "0xa83803beba40a23371ecedfe76e80484f8670ede8b8ff4838395711c7879e46e",
      "assetIds": []
    },
    {
      "x": 225,
      "y": 352,
      "size": 1,
      "price": "1011000000000000000000",
      "reserved": "",
      "salt": "0xb2284e6d7d8e951ac5dcaf61dad0200dbe72aae4630e4016feb7b28f389fc091",
      "assetIds": []
    },
    {
      "x": 225,
      "y": 353,
      "size": 1,
      "price": "1011000000000000000000",
      "reserved": "",
      "salt": "0xec9642881a5ce1e41a626bad626ffd9fa500d212b80adba6001cd47d5a81c6ea",
      "assetIds": []
    },
    {
      "x": 225,
      "y": 354,
      "size": 1,
      "price": "1011000000000000000000",
      "reserved": "",
      "salt": "0x9ac5aeca44fa035e526a060c8ad234fa42d19960317147440963db75fcaae28f",
      "assetIds": []
    },
    {
      "x": 225,
      "y": 355,
      "size": 1,
      "price": "1011000000000000000000",
      "reserved": "",
      "salt": "0x0df4680a057b9f51247f8d5012abebc9ebe4d4cebe887cc6956d5b98f0fb31c8",
      "assetIds": []
    },
    {
      "x": 225,
      "y": 356,
      "size": 1,
      "price": "1011000000000000000000",
      "reserved": "",
      "salt": "0x0e4b30e5549f365debc80693ef43c52aded7cc5b6614881c457632c15b4a4b96",
      "assetIds": []
    },
    {
      "x": 226,
      "y": 342,
      "size": 1,
      "price": "4683000000000000000000",
      "reserved": "",
      "salt": "0x373f31ff9621e4ef078ad28d64b155893f2f3dd97ea0d879f94637181a7006d8",
      "assetIds": [
        "55464657044963196816950587289035428064568320970692304673817341489687790884865",
        "55464657044963196816950587289035428064568320970692304673817341489687782494208",
        "55464657044963196816950587289035428064568320970692304673817341489687790884866",
        "55464657044963196816950587289035428064568320970692304673817341489687782494209",
        "55464657044963196816950587289035428064568320970692304673817341489687790884864"
      ]
    },
    {
      "x": 226,
      "y": 343,
      "size": 1,
      "price": "4683000000000000000000",
      "reserved": "",
      "salt": "0x4ff9c08b6c78d17476d1459afee09aca4de8fdf86f68c2de027912674a2ab47e",
      "assetIds": [
        "55464657044963196816950587289035428064568320970692304673817341489687790884865",
        "55464657044963196816950587289035428064568320970692304673817341489687782494208",
        "55464657044963196816950587289035428064568320970692304673817341489687790884866",
        "55464657044963196816950587289035428064568320970692304673817341489687782494209",
        "55464657044963196816950587289035428064568320970692304673817341489687790884864"
      ]
    },
    {
      "x": 226,
      "y": 344,
      "size": 1,
      "price": "1011000000000000000000",
      "reserved": "",
      "salt": "0x900bf5e1ee9d5b3b8738c2a2e9a4659b4e9615469fa378843b0dcab56084eed9",
      "assetIds": []
    },
    {
      "x": 226,
      "y": 345,
      "size": 1,
      "price": "1011000000000000000000",
      "reserved": "0x7a9fe22691c811ea339d9b73150e6911a5343dca",
      "salt": "0x0df3f9dec2ab843501891d098bb5ef52f4aac4e9725634a9d917395b0b0fc25b",
      "assetIds": []
    },
    {
      "x": 226,
      "y": 346,
      "size": 1,
      "price": "1011000000000000000000",
      "reserved": "",
      "salt": "0x8419fa063c02e836addd0ab5f3af07975e88122f98da3559956f221dac287c17",
      "assetIds": []
    },
    {
      "x": 226,
      "y": 347,
      "size": 1,
      "price": "1011000000000000000000",
      "reserved": "0x7a9fe22691c811ea339d9b73150e6911a5343dca",
      "salt": "0x89aa64252ea4d99e567a2312cb3f2742eae6f709aa8ac7d1234ae68578e447f2",
      "assetIds": []
    },
    {
      "x": 226,
      "y": 348,
      "size": 1,
      "price": "1011000000000000000000",
      "reserved": "",
      "salt": "0xf6b2139e02ab10f6f61deaf0d980764610c05b890a1ed4c12c109566dd8a156e",
      "assetIds": []
    },
    {
      "x": 226,
      "y": 349,
      "size": 1,
      "price": "1011000000000000000000",
      "reserved": "",
      "salt": "0x8f6cf46813859ccff69b786f8e3ef16656afb815b44a1ccb07773f155519e0fb",
      "assetIds": []
    },
    {
      "x": 226,
      "y": 350,
      "size": 1,
      "price": "1011000000000000000000",
      "reserved": "",
      "salt": "0xf9b64da7b75a2bab30e3822000de3b48d3ab8498066ce1abb9e8427a3c576f79",
      "assetIds": []
    },
    {
      "x": 226,
      "y": 351,
      "size": 1,
      "price": "1011000000000000000000",
      "reserved": "",
      "salt": "0xc0eb85c4ae18efbcf5db68a457e5541a6b120c015ad258a64296a83d8941aea2",
      "assetIds": []
    },
    {
      "x": 226,
      "y": 352,
      "size": 1,
      "price": "1011000000000000000000",
      "reserved": "0x7a9fe22691c811ea339d9b73150e6911a5343dca",
      "salt": "0x22a4191cfda5749752aace6e8d0d62d01fa656af292c78284f787d157e48a637",
      "assetIds": []
    },
    {
      "x": 226,
      "y": 353,
      "size": 1,
      "price": "1011000000000000000000",
      "reserved": "",
      "salt": "0x60693b4badf867c794711cb68c7b9f7d58d95fd31f0328e87822cc7187c3585f",
      "assetIds": []
    },
    {
      "x": 226,
      "y": 354,
      "size": 1,
      "price": "1011000000000000000000",
      "reserved": "",
      "salt": "0x49fffbb9bd52b0c92f9836147e1697a6a9a91c4aa8f494542dbc07eaf5bddfd0",
      "assetIds": []
    },
    {
      "x": 226,
      "y": 355,
      "size": 1,
      "price": "1011000000000000000000",
      "reserved": "",
      "salt": "0xb721a5c5ec3f53f677099af43b79448a3183a93bac187ce891bb94a9d774edb7",
      "assetIds": []
    },
    {
      "x": 226,
      "y": 356,
      "size": 1,
      "price": "1011000000000000000000",
      "reserved": "0x7a9fe22691c811ea339d9b73150e6911a5343dca",
      "salt": "0x6a4337d28b1c74394d4de61d49214946b112ed6e5328f2fb932e68ec917aa134",
      "assetIds": []
    },
    {
      "x": 227,
      "y": 342,
      "size": 1,
      "price": "1011000000000000000000",
      "reserved": "0x7a9fe22691c811ea339d9b73150e6911a5343dca",
      "salt": "0x8f8232cf3cac9bf6c8b1d273ec3f57f9a718817003a90161a8934b5fa97ce903",
      "assetIds": []
    },
    {
      "x": 227,
      "y": 343,
      "size": 1,
      "price": "1011000000000000000000",
      "reserved": "",
      "salt": "0x1800ecdff875f0997661215fff84f09f0c6396959a0dbfd9854af83fe22942f8",
      "assetIds": []
    },
    {
      "x": 227,
      "y": 344,
      "size": 1,
      "price": "1011000000000000000000",
      "reserved": "",
      "salt": "0x507f09e020eab53b502fc6625ef2d3d494793ab0fdf7b4abebe6b930acd355f5",
      "assetIds": []
    },
    {
      "x": 227,
      "y": 345,
      "size": 1,
      "price": "1011000000000000000000",
      "reserved": "0x7a9fe22691c811ea339d9b73150e6911a5343dca",
      "salt": "0xc2c25fa77ee5c7ded8fb9e92b66706865da383a8022741409bb2a9907004507c",
      "assetIds": []
    },
    {
      "x": 227,
      "y": 346,
      "size": 1,
      "price": "1011000000000000000000",
      "reserved": "",
      "salt": "0xa05cd4fc9dd8d9ff44169cdf774a8006fc0f72daec5a0a208ef54a6dd67c2fe0",
      "assetIds": []
    },
    {
      "x": 227,
      "y": 347,
      "size": 1,
      "price": "1011000000000000000000",
      "reserved": "0x7a9fe22691c811ea339d9b73150e6911a5343dca",
      "salt": "0xc3d8d95ad147572435e9f364fb6f6c8f2ee81f769550c2c8608d5965c2279d45",
      "assetIds": []
    },
    {
      "x": 227,
      "y": 348,
      "size": 1,
      "price": "1011000000000000000000",
      "reserved": "",
      "salt": "0xabab936b72ff76968e22141c1db086c5eeae5a589c9a08e0502a886fa030b363",
      "assetIds": []
    },
    {
      "x": 227,
      "y": 349,
      "size": 1,
      "price": "1011000000000000000000",
      "reserved": "0x7a9fe22691c811ea339d9b73150e6911a5343dca",
      "salt": "0x669754c13beba0fd92881a6c57d58efb7c0cd07a3db12dbfb229626c3808d47c",
      "assetIds": []
    },
    {
      "x": 227,
      "y": 350,
      "size": 1,
      "price": "1011000000000000000000",
      "reserved": "",
      "salt": "0x31f0303617a8e38056350fc9e0695c22d9c4aab56f42ec84762b3279834aad13",
      "assetIds": []
    },
    {
      "x": 227,
      "y": 351,
      "size": 1,
      "price": "1011000000000000000000",
      "reserved": "",
      "salt": "0x7119798dfa94ac6a5c818a23a4ffe06a3e710e2efe9bdf116eef2d2c8a906955",
      "assetIds": []
    },
    {
      "x": 227,
      "y": 352,
      "size": 1,
      "price": "1011000000000000000000",
      "reserved": "",
      "salt": "0xbf48d29e85978e981be64a8be8bcfe3d0a713f20267aef139e3ac6eb31defefd",
      "assetIds": []
    },
    {
      "x": 227,
      "y": 353,
      "size": 1,
      "price": "1011000000000000000000",
      "reserved": "",
      "salt": "0x0ead51379db3e6ea70bd447f56dd08d8b1d5ee98202dc48354e69eacc63e7e1f",
      "assetIds": []
    },
    {
      "x": 227,
      "y": 354,
      "size": 1,
      "price": "1011000000000000000000",
      "reserved": "",
      "salt": "0x17973b70ec6040ecf721f2f46668619ff67c250c659ed05feb5bfd9bdae83355",
      "assetIds": []
    },
    {
      "x": 227,
      "y": 355,
      "size": 1,
      "price": "1011000000000000000000",
      "reserved": "",
      "salt": "0x8acd8243c2dd79230357ab08d56e61a74f3a8eb2cf547e63f9b434e29805e8e1",
      "assetIds": []
    },
    {
      "x": 227,
      "y": 356,
      "size": 1,
      "price": "1011000000000000000000",
      "reserved": "",
      "salt": "0xca06a65c12d881f24ec183bef937ad13c7f23608e894590e0306b99f172f47d5",
      "assetIds": []
    },
    {
      "x": 228,
      "y": 336,
      "size": 1,
      "price": "1011000000000000000000",
      "reserved": "",
      "salt": "0xa0be9197e416b4cd64174ae1d379f06995249bf99017f9626e2bbe5c9b9ac6e4",
      "assetIds": []
    },
    {
      "x": 228,
      "y": 337,
      "size": 1,
      "price": "1011000000000000000000",
      "reserved": "",
      "salt": "0x3c93ca024dc70a6d01fc399da72d85d272f4c0f87c1888a8bfe3f8ff67f2de15",
      "assetIds": []
    },
    {
      "x": 228,
      "y": 338,
      "size": 1,
      "price": "1011000000000000000000",
      "reserved": "",
      "salt": "0xa997e17398f251ed4785dbf38f3cc99fd193f4f34f05398b5961f58ac897637a",
      "assetIds": []
    },
    {
      "x": 228,
      "y": 339,
      "size": 1,
      "price": "1011000000000000000000",
      "reserved": "",
      "salt": "0x5094fa592c7fbf573bf440bf10ec1ec2cb8f2a1992502de97689f03a7c53238c",
      "assetIds": []
    },
    {
      "x": 228,
      "y": 340,
      "size": 1,
      "price": "1011000000000000000000",
      "reserved": "",
      "salt": "0x77b5ebaf1ede165b1fa7af99e8b9e41a88c22d8262ed19d6355640f959618f90",
      "assetIds": []
    },
    {
      "x": 228,
      "y": 341,
      "size": 1,
      "price": "1011000000000000000000",
      "reserved": "",
      "salt": "0xc291316d81277b2593d7c5fa53ad91402b5aad6ede5fd27e8c171bbfc8093a84",
      "assetIds": []
    },
    {
      "x": 228,
      "y": 348,
      "size": 1,
      "price": "1011000000000000000000",
      "reserved": "",
      "salt": "0x990d2832e6fc4c4efa62748512a5d399c4a6425a47f746c9818c2a5397a061f3",
      "assetIds": []
    },
    {
      "x": 228,
      "y": 349,
      "size": 1,
      "price": "1011000000000000000000",
      "reserved": "",
      "salt": "0xb5c9d5f6470905b58b06192bc95b65c832ecccd2d9690addd59fb20ecff21aa7",
      "assetIds": []
    },
    {
      "x": 228,
      "y": 350,
      "size": 1,
      "price": "1011000000000000000000",
      "reserved": "",
      "salt": "0x401b92d23d6263b958a6181fcedf57c62a16f0fdb88d824b42479e58526edf0f",
      "assetIds": []
    },
    {
      "x": 228,
      "y": 351,
      "size": 1,
      "price": "1011000000000000000000",
      "reserved": "",
      "salt": "0xa07b202ab79ac8c5e41f1ea25c786e7c7157916b3eb954f5b8dc16ac69b679ce",
      "assetIds": []
    },
    {
      "x": 228,
      "y": 352,
      "size": 1,
      "price": "1011000000000000000000",
      "reserved": "",
      "salt": "0x3be44906e95b4a1cafd641574a6562dec029a4125b6c78d6ef5388482f804ddc",
      "assetIds": []
    },
    {
      "x": 228,
      "y": 353,
      "size": 1,
      "price": "1011000000000000000000",
      "reserved": "",
      "salt": "0x4e91f9f4e6329eca87ef2203e9bdbcf1e0fde7ad49f24de92fc37601824cea8a",
      "assetIds": []
    },
    {
      "x": 228,
      "y": 354,
      "size": 1,
      "price": "1011000000000000000000",
      "reserved": "",
      "salt": "0x54296248991e1cf82d9bb5b94d7820fbab6b99610692803a6a334fce11ee90b0",
      "assetIds": []
    },
    {
      "x": 228,
      "y": 355,
      "size": 1,
      "price": "1011000000000000000000",
      "reserved": "",
      "salt": "0x395e68f4308d16ed38fbf03ed091038ffa1680f255f9537ab8b11bbf1c375a40",
      "assetIds": []
    },
    {
      "x": 228,
      "y": 356,
      "size": 1,
      "price": "1011000000000000000000",
      "reserved": "",
      "salt": "0xa27fe8bf7372ff1b412109b1b631e79f399beb9f3901c30db2dcd305b073a813",
      "assetIds": []
    },
    {
      "x": 229,
      "y": 336,
      "size": 1,
      "price": "1011000000000000000000",
      "reserved": "",
      "salt": "0xe7aeab5d85246e1a9cf94ed1696e9eec2d5c2f84429e04303b6218d9fd3824a7",
      "assetIds": []
    },
    {
      "x": 229,
      "y": 337,
      "size": 1,
      "price": "1011000000000000000000",
      "reserved": "",
      "salt": "0xca5f8a7b9d9fb57e5507c5c9a3a00d3821cd47a400b49754b75a10b1cbbf7f2a",
      "assetIds": []
    },
    {
      "x": 229,
      "y": 338,
      "size": 1,
      "price": "1011000000000000000000",
      "reserved": "",
      "salt": "0x64a60051edab09b8bee8d2d670fd4510c27dfbddca962fa593ec0ab1140f6c5a",
      "assetIds": []
    },
    {
      "x": 229,
      "y": 339,
      "size": 1,
      "price": "1011000000000000000000",
      "reserved": "",
      "salt": "0x55388bf97a0f0658ebef7018747317e56c396d6e41a266441ff373210c56e30d",
      "assetIds": []
    },
    {
      "x": 229,
      "y": 340,
      "size": 1,
      "price": "1011000000000000000000",
      "reserved": "",
      "salt": "0x7d9c56abe80a0f8847fdaf179f53722ead82bc56dc199042307aad690cf365f0",
      "assetIds": []
    },
    {
      "x": 229,
      "y": 341,
      "size": 1,
      "price": "1011000000000000000000",
      "reserved": "0x7a9fe22691c811ea339d9b73150e6911a5343dca",
      "salt": "0x0308ba38bcb8bd788995c6376b62524f2546197ba8f25ca8d7d7f23bfac3e3de",
      "assetIds": []
    },
    {
      "x": 229,
      "y": 348,
      "size": 1,
      "price": "1011000000000000000000",
      "reserved": "",
      "salt": "0x86c5732ae7f3f4eb70789debe0f8d51a7d732f7b0004058bea9be60d8ccd5c19",
      "assetIds": []
    },
    {
      "x": 229,
      "y": 349,
      "size": 1,
      "price": "1011000000000000000000",
      "reserved": "0x7a9fe22691c811ea339d9b73150e6911a5343dca",
      "salt": "0xef6c3256cb6255bf7cdc55c442241a3f36da26b61b98dad9a8c6241acd038c56",
      "assetIds": []
    },
    {
      "x": 229,
      "y": 350,
      "size": 1,
      "price": "1011000000000000000000",
      "reserved": "",
      "salt": "0x980a37cbc57e729b31250f0883864d5a2e1738f647a7b2a07ae44fa809fd1ebb",
      "assetIds": []
    },
    {
      "x": 229,
      "y": 351,
      "size": 1,
      "price": "1011000000000000000000",
      "reserved": "",
      "salt": "0x38b07326783e560f2d79e33e6f53020d48a4a97c003d2d943f410cb17a822a2e",
      "assetIds": []
    },
    {
      "x": 229,
      "y": 352,
      "size": 1,
      "price": "1011000000000000000000",
      "reserved": "",
      "salt": "0x421dee930f9df5e102621787b14ce4cd60b7e6862a8fde707d0dde3acbca6edb",
      "assetIds": []
    },
    {
      "x": 229,
      "y": 353,
      "size": 1,
      "price": "1011000000000000000000",
      "reserved": "",
      "salt": "0xf616c245a095559c29de111a620d14e1c361b7bbacbc09f7aeef2fbb295c52e6",
      "assetIds": []
    },
    {
      "x": 229,
      "y": 354,
      "size": 1,
      "price": "1011000000000000000000",
      "reserved": "0x7a9fe22691c811ea339d9b73150e6911a5343dca",
      "salt": "0x7eca3cbead943a389c28fceba8b4479c28659a3cf04eda85cac2f8f7c418bd25",
      "assetIds": []
    },
    {
      "x": 229,
      "y": 355,
      "size": 1,
      "price": "1011000000000000000000",
      "reserved": "",
      "salt": "0x17db5e7d7fe74850aa121f3995d425b28234f80c62ab27e55e6defe58f1ed4a6",
      "assetIds": []
    },
    {
      "x": 229,
      "y": 356,
      "size": 1,
      "price": "1011000000000000000000",
      "reserved": "",
      "salt": "0x64bc2c5074d88bab4e74a7511f69f31cfdb3e22876a5e8ee509de7e75ed3f580",
      "assetIds": []
    },
    {
      "x": 229,
      "y": 357,
      "size": 1,
      "price": "1011000000000000000000",
      "reserved": "",
      "salt": "0xe103010d6ba933844af5994ba25a10a2df4326d458900f9e93a76110c09d8ce4",
      "assetIds": []
    },
    {
      "x": 230,
      "y": 336,
      "size": 1,
      "price": "1011000000000000000000",
      "reserved": "",
      "salt": "0xefd046486460522451ec2ea3ec44c87990a4589d96a1216f1482ff40d3cded55",
      "assetIds": []
    },
    {
      "x": 230,
      "y": 337,
      "size": 1,
      "price": "1011000000000000000000",
      "reserved": "",
      "salt": "0xa96e03477c7d49f01670de04a1e70a0600a7a3997e5c038799a19748ed21dc51",
      "assetIds": []
    },
    {
      "x": 230,
      "y": 338,
      "size": 1,
      "price": "1011000000000000000000",
      "reserved": "",
      "salt": "0xf6f4b2c1dbbf41275c6e6f6f8211430d6e01b8ffa35388a91c1bd73cb21ce511",
      "assetIds": []
    },
    {
      "x": 230,
      "y": 339,
      "size": 1,
      "price": "1011000000000000000000",
      "reserved": "",
      "salt": "0x03ca8e0d4a23e00dafd6642329198b7d725067e7337531410a76fe60ca4fcacc",
      "assetIds": []
    },
    {
      "x": 230,
      "y": 340,
      "size": 1,
      "price": "1011000000000000000000",
      "reserved": "",
      "salt": "0x8b01ede7d311f1c7fc77e8c72fc6d41a4a7f6529e5247b5064f988b8cf75daf1",
      "assetIds": []
    },
    {
      "x": 230,
      "y": 341,
      "size": 1,
      "price": "1011000000000000000000",
      "reserved": "",
      "salt": "0x1d6b825e212d3f55f33ad9eefd0fb5bde7fe479ac63bb396e95b0dee5d66b84d",
      "assetIds": []
    },
    {
      "x": 230,
      "y": 348,
      "size": 1,
      "price": "1011000000000000000000",
      "reserved": "",
      "salt": "0x94ad7321396f64b6a393e5321ef1818791ab437937efcf2441d7965274254918",
      "assetIds": []
    },
    {
      "x": 230,
      "y": 349,
      "size": 1,
      "price": "1011000000000000000000",
      "reserved": "",
      "salt": "0x4ed6c1e2f614d99bd3f2ab1900f38ae87faeedc64a11eb385fa1a730752a5dbc",
      "assetIds": []
    },
    {
      "x": 230,
      "y": 350,
      "size": 1,
      "price": "1011000000000000000000",
      "reserved": "",
      "salt": "0x237acf6d81acd1261b8364e414574c8698af070336e9867209048f7fbb9c2799",
      "assetIds": []
    },
    {
      "x": 230,
      "y": 351,
      "size": 1,
      "price": "1011000000000000000000",
      "reserved": "",
      "salt": "0xb1f8142ab9f3d3e568c77d927558253515d51a115e2cdc5bec1b0b843ee72ef1",
      "assetIds": []
    },
    {
      "x": 230,
      "y": 352,
      "size": 1,
      "price": "1011000000000000000000",
      "reserved": "",
      "salt": "0x9dd32799a572d8d0dba00547fdeeab9e9271fbd1473910a2917cb3f247173f6d",
      "assetIds": []
    },
    {
      "x": 230,
      "y": 353,
      "size": 1,
      "price": "1011000000000000000000",
      "reserved": "",
      "salt": "0xb25cc5a445412f0c6cc446eeac72ca525b3f5a4a3d9695a46d6f55b578633201",
      "assetIds": []
    },
    {
      "x": 230,
      "y": 354,
      "size": 1,
      "price": "1011000000000000000000",
      "reserved": "0x7a9fe22691c811ea339d9b73150e6911a5343dca",
      "salt": "0xd246f692c32110cb1574bdcd1f098a1bf5fb410ff460d06a259337c6a4d9821d",
      "assetIds": []
    },
    {
      "x": 230,
      "y": 355,
      "size": 1,
      "price": "1011000000000000000000",
      "reserved": "",
      "salt": "0x6ec9bfa8f19701c0d918586d288964642846886de096b5013f1e89273402ab91",
      "assetIds": []
    },
    {
      "x": 230,
      "y": 356,
      "size": 1,
      "price": "1011000000000000000000",
      "reserved": "",
      "salt": "0x5a0ca909ae3165710dcf7a7738d9bc0bdb7036f7ce137074884b5724dea855da",
      "assetIds": []
    },
    {
      "x": 230,
      "y": 357,
      "size": 1,
      "price": "1011000000000000000000",
      "reserved": "",
      "salt": "0x230bb30d6f7a9ba55b8967cc232fe783954b5fd9657d8c39081e1afc54436004",
      "assetIds": []
    },
    {
      "x": 231,
      "y": 336,
      "size": 1,
      "price": "1011000000000000000000",
      "reserved": "",
      "salt": "0xf3026e2cae219286bff6e4f23609cbd768ca3bf892d261fafc9ae57109929b0e",
      "assetIds": []
    },
    {
      "x": 231,
      "y": 337,
      "size": 1,
      "price": "1011000000000000000000",
      "reserved": "",
      "salt": "0x458c6aaf78bdb05735d671c3fb5c5b59a7554a7c58d95aaa7d890e5286beb46f",
      "assetIds": []
    },
    {
      "x": 231,
      "y": 338,
      "size": 1,
      "price": "1011000000000000000000",
      "reserved": "0x7a9fe22691c811ea339d9b73150e6911a5343dca",
      "salt": "0x32f3bfce532d80820b4802fe910287315f267fae1c5e812898461dca90934725",
      "assetIds": []
    },
    {
      "x": 231,
      "y": 339,
      "size": 1,
      "price": "1011000000000000000000",
      "reserved": "0x7a9fe22691c811ea339d9b73150e6911a5343dca",
      "salt": "0x77bdbb3e46efe27ec612902f70215627142bf653120e5c5d6458f23f33d491ac",
      "assetIds": []
    },
    {
      "x": 231,
      "y": 340,
      "size": 1,
      "price": "1011000000000000000000",
      "reserved": "0x7a9fe22691c811ea339d9b73150e6911a5343dca",
      "salt": "0x0f23a0bb533581c85164fddea8b418e3fd677d4cb2798de69084496458fb03e1",
      "assetIds": []
    },
    {
      "x": 231,
      "y": 341,
      "size": 1,
      "price": "4683000000000000000000",
      "reserved": "",
      "salt": "0xdb65fdecc270a3626bde5a2317b8c23b74687b1b6254a5dd1544e4b62666315d",
      "assetIds": [
        "55464657044963196816950587289035428064568320970692304673817341489687790884865",
        "55464657044963196816950587289035428064568320970692304673817341489687782494208",
        "55464657044963196816950587289035428064568320970692304673817341489687790884866",
        "55464657044963196816950587289035428064568320970692304673817341489687782494209",
        "55464657044963196816950587289035428064568320970692304673817341489687790884864"
      ]
    },
    {
      "x": 231,
      "y": 348,
      "size": 1,
      "price": "1011000000000000000000",
      "reserved": "",
      "salt": "0x0e309b9b849ecae2860634009f8b096d8f9d9cde4299f52e37a29bfcf7576ca8",
      "assetIds": []
    },
    {
      "x": 231,
      "y": 349,
      "size": 1,
      "price": "1011000000000000000000",
      "reserved": "0x7a9fe22691c811ea339d9b73150e6911a5343dca",
      "salt": "0xb8f8f392231ecaf32ae39f0d36863ea2263738e4725b59f0daef98c0c48dafc5",
      "assetIds": []
    },
    {
      "x": 231,
      "y": 350,
      "size": 1,
      "price": "1011000000000000000000",
      "reserved": "",
      "salt": "0x776c16fc7a6522ba83cf001b2b99034b2ba61c3ce760da357a060fd5117922c1",
      "assetIds": []
    },
    {
      "x": 231,
      "y": 351,
      "size": 1,
      "price": "1011000000000000000000",
      "reserved": "0x7a9fe22691c811ea339d9b73150e6911a5343dca",
      "salt": "0x7b80f5b204a8366641492437e17b312e89cbe48d3bd6eea4f01d51757e1cb964",
      "assetIds": []
    },
    {
      "x": 231,
      "y": 352,
      "size": 1,
      "price": "1011000000000000000000",
      "reserved": "",
      "salt": "0x633ecb8b9ce6f4bb7084efa2620faf9db1778226aabf4f608b0c57fa59aaa097",
      "assetIds": []
    },
    {
      "x": 231,
      "y": 353,
      "size": 1,
      "price": "1011000000000000000000",
      "reserved": "",
      "salt": "0x39293609b9f3788d01de4f91c01838c3b9a86a60c96c5b4351b09953903e758c",
      "assetIds": []
    },
    {
      "x": 231,
      "y": 354,
      "size": 1,
      "price": "1011000000000000000000",
      "reserved": "",
      "salt": "0xc2964a5fca0ff4dc11844526ad446c8b4079b7940d1b6264c3d70f72ffa32539",
      "assetIds": []
    },
    {
      "x": 231,
      "y": 355,
      "size": 1,
      "price": "1011000000000000000000",
      "reserved": "",
      "salt": "0x19bf03143cef087063045ebf024420f4799f7822137a4aaa89e98b9f34a9e59b",
      "assetIds": []
    },
    {
      "x": 231,
      "y": 356,
      "size": 1,
      "price": "1011000000000000000000",
      "reserved": "",
      "salt": "0x5555d8abd24ad54b2406761f1fba12e2ee9b919d8f6ceb56515b58d9f149e1c0",
      "assetIds": []
    },
    {
      "x": 231,
      "y": 357,
      "size": 1,
      "price": "1011000000000000000000",
      "reserved": "",
      "salt": "0x4c600f4a586541a1491b0ca47ed1371dbc36f5bc41c079773f480aafe1e7b1f9",
      "assetIds": []
    },
    {
      "x": 232,
      "y": 336,
      "size": 1,
      "price": "1011000000000000000000",
      "reserved": "",
      "salt": "0x8f2a4c6a90f4921726eb726c1a1c67a970de0b3df27370bf74f202bea8894bc1",
      "assetIds": []
    },
    {
      "x": 232,
      "y": 337,
      "size": 1,
      "price": "1011000000000000000000",
      "reserved": "",
      "salt": "0x2e55cb3c4dddad241f6dabeacba7d25002e61218553cce794b490344f4b9407b",
      "assetIds": []
    },
    {
      "x": 232,
      "y": 338,
      "size": 1,
      "price": "1011000000000000000000",
      "reserved": "",
      "salt": "0x6953b2ed9f5fe7fd99203b0f0fb283d84e849ee7f4fdb30e67e95fe9995b0436",
      "assetIds": []
    },
    {
      "x": 232,
      "y": 339,
      "size": 1,
      "price": "1011000000000000000000",
      "reserved": "",
      "salt": "0xd282c113e8409ca0cb90396d053bd4983ba631958c4bebdcc06b76660a264a2f",
      "assetIds": []
    },
    {
      "x": 232,
      "y": 340,
      "size": 1,
      "price": "1011000000000000000000",
      "reserved": "",
      "salt": "0x25b2cda0f91795e6be519fa1a78c3739f70dcfeea91994959c00340fa4cf0520",
      "assetIds": []
    },
    {
      "x": 232,
      "y": 341,
      "size": 1,
      "price": "4683000000000000000000",
      "reserved": "",
      "salt": "0xef69b4e65f08e60599bca75315e42ea1b9c204c242061d2b75d34462473598a8",
      "assetIds": [
        "55464657044963196816950587289035428064568320970692304673817341489687790884865",
        "55464657044963196816950587289035428064568320970692304673817341489687782494208",
        "55464657044963196816950587289035428064568320970692304673817341489687790884866",
        "55464657044963196816950587289035428064568320970692304673817341489687782494209",
        "55464657044963196816950587289035428064568320970692304673817341489687790884864"
      ]
    },
    {
      "x": 232,
      "y": 348,
      "size": 1,
      "price": "1011000000000000000000",
      "reserved": "",
      "salt": "0xf363b0925c439104dc5b8dcbae9cbdfde6f356e074d10c6c57b1a6b16f2b3a08",
      "assetIds": []
    },
    {
      "x": 232,
      "y": 349,
      "size": 1,
      "price": "1011000000000000000000",
      "reserved": "",
      "salt": "0xb3f8a7f8b357358558e15b28e8d24a980d6295134dae13d49d68e53b06747f81",
      "assetIds": []
    },
    {
      "x": 232,
      "y": 350,
      "size": 1,
      "price": "1011000000000000000000",
      "reserved": "",
      "salt": "0x5801e9f8d4d1ec81be36f7c89d2c30d36ed92f1f7e6180030500a688320f7e72",
      "assetIds": []
    },
    {
      "x": 232,
      "y": 351,
      "size": 1,
      "price": "1011000000000000000000",
      "reserved": "0x7a9fe22691c811ea339d9b73150e6911a5343dca",
      "salt": "0xf8ecc6bb6055efdc73999fd7784be9ed3626fafc5b96ffb1b7decba0830e6955",
      "assetIds": []
    },
    {
      "x": 232,
      "y": 352,
      "size": 1,
      "price": "1011000000000000000000",
      "reserved": "",
      "salt": "0xc0cce1fc4aa8d6a963546f1eb53aad82e36f682866e1681f827b594a714ec536",
      "assetIds": []
    },
    {
      "x": 232,
      "y": 353,
      "size": 1,
      "price": "1011000000000000000000",
      "reserved": "0x7a9fe22691c811ea339d9b73150e6911a5343dca",
      "salt": "0x9f5c77f0e5a6df84f58862452e5270c4c86b3f049c2df8b73ee48a2762248c5d",
      "assetIds": []
    },
    {
      "x": 232,
      "y": 354,
      "size": 1,
      "price": "1011000000000000000000",
      "reserved": "",
      "salt": "0x7a904a5da7e957bf6e951e31a037d4beae4e3b32518bfcdc36f8d43b441d6c4d",
      "assetIds": []
    },
    {
      "x": 232,
      "y": 355,
      "size": 1,
      "price": "4683000000000000000000",
      "reserved": "",
      "salt": "0x9fa1dc5e6b06e360e6a282c2d3fccbf26ed9b58ec36e02c5457b92c76632c0ae",
      "assetIds": [
        "55464657044963196816950587289035428064568320970692304673817341489687790884865",
        "55464657044963196816950587289035428064568320970692304673817341489687782494208",
        "55464657044963196816950587289035428064568320970692304673817341489687790884866",
        "55464657044963196816950587289035428064568320970692304673817341489687782494209",
        "55464657044963196816950587289035428064568320970692304673817341489687790884864"
      ]
    },
    {
      "x": 232,
      "y": 356,
      "size": 1,
      "price": "1011000000000000000000",
      "reserved": "0x7a9fe22691c811ea339d9b73150e6911a5343dca",
      "salt": "0xb3269b501cefbd180194f4812f9365ec82656f83ac894ce0892d7f4715dd0501",
      "assetIds": []
    },
    {
      "x": 232,
      "y": 357,
      "size": 1,
      "price": "1011000000000000000000",
      "reserved": "",
      "salt": "0x0dcc91117df5ce1d8eb59a3cae3c1d39e95bc880987b1250c81c9ea48c5f5cfb",
      "assetIds": []
    },
    {
      "x": 233,
      "y": 336,
      "size": 1,
      "price": "1011000000000000000000",
      "reserved": "",
      "salt": "0xd53228a44f15ba9b1ebe775bd00cefdf952450ccaf742349193949dcf66a819f",
      "assetIds": []
    },
    {
      "x": 233,
      "y": 337,
      "size": 1,
      "price": "1011000000000000000000",
      "reserved": "",
      "salt": "0x04765bd37587203741cfa903dbcff555005af25bef77747d340e140f98380768",
      "assetIds": []
    },
    {
      "x": 233,
      "y": 338,
      "size": 1,
      "price": "1011000000000000000000",
      "reserved": "",
      "salt": "0x7511a2657303629a0e27b8f7e0f23fcfa96272b9852070f2fb614626fa76a26f",
      "assetIds": []
    },
    {
      "x": 233,
      "y": 339,
      "size": 1,
      "price": "1011000000000000000000",
      "reserved": "",
      "salt": "0x9439874c25cb3cb3adff49d53542f38e33c1fa14b54e31d8e2b894b1f52ca23a",
      "assetIds": []
    },
    {
      "x": 233,
      "y": 340,
      "size": 1,
      "price": "1011000000000000000000",
      "reserved": "0x7a9fe22691c811ea339d9b73150e6911a5343dca",
      "salt": "0xfe28bb0fc88000c0fdf39d347b84220bcde8dadb7ecac74500459fa526a5abb3",
      "assetIds": []
    },
    {
      "x": 233,
      "y": 341,
      "size": 1,
      "price": "1011000000000000000000",
      "reserved": "0x7a9fe22691c811ea339d9b73150e6911a5343dca",
      "salt": "0x033b6c52efa35fe9436f093df032d35e2191cbc4f76e95df0356a658fdcf0b68",
      "assetIds": []
    },
    {
      "x": 233,
      "y": 348,
      "size": 1,
      "price": "1011000000000000000000",
      "reserved": "",
      "salt": "0x1c76fe5970faab1d326bae25148a45ad888782b18b94a2f8315594daca95db67",
      "assetIds": []
    },
    {
      "x": 233,
      "y": 349,
      "size": 1,
      "price": "1011000000000000000000",
      "reserved": "",
      "salt": "0x96218841e224b1dc55ef6ce8dbb3212564ec14ff99850e1d53817badd391e345",
      "assetIds": []
    },
    {
      "x": 233,
      "y": 350,
      "size": 1,
      "price": "1011000000000000000000",
      "reserved": "",
      "salt": "0xe86cdf23d93a3e2cf7024acfd6f06692c59b67f1b6d81dff05a619f96d483945",
      "assetIds": []
    },
    {
      "x": 233,
      "y": 351,
      "size": 1,
      "price": "1011000000000000000000",
      "reserved": "",
      "salt": "0x283e63e7ea8cd60dd6c087e22d44a57ef27d9de3398dd0fec05a2284d5791a79",
      "assetIds": []
    },
    {
      "x": 233,
      "y": 352,
      "size": 1,
      "price": "1011000000000000000000",
      "reserved": "",
      "salt": "0x26607b7bd5ff2f61ff9cdef6f29dd83c70e137ee88b81d7bb52a00435729b006",
      "assetIds": []
    },
    {
      "x": 233,
      "y": 353,
      "size": 1,
      "price": "1011000000000000000000",
      "reserved": "",
      "salt": "0xde114808d831f87071c693d6f680e01102bb0332bace097a3d9d5a8fab2b283e",
      "assetIds": []
    },
    {
      "x": 233,
      "y": 354,
      "size": 1,
      "price": "1011000000000000000000",
      "reserved": "",
      "salt": "0xf3ddc75c83f996e83017394e0416814df6b805d9aef8cb501d53bae6b42126b1",
      "assetIds": []
    },
    {
      "x": 233,
      "y": 355,
      "size": 1,
      "price": "4683000000000000000000",
      "reserved": "",
      "salt": "0x73b17b0af84e8abb05704fa606df1cb41324f50c04891c812e47630b128e77e3",
      "assetIds": [
        "55464657044963196816950587289035428064568320970692304673817341489687790884865",
        "55464657044963196816950587289035428064568320970692304673817341489687782494208",
        "55464657044963196816950587289035428064568320970692304673817341489687790884866",
        "55464657044963196816950587289035428064568320970692304673817341489687782494209",
        "55464657044963196816950587289035428064568320970692304673817341489687790884864"
      ]
    },
    {
      "x": 233,
      "y": 356,
      "size": 1,
      "price": "4683000000000000000000",
      "reserved": "",
      "salt": "0x03f4d5ec05f4354f95aed3637d51cd697fbd98e75e1142bf03f898527fbbad6c",
      "assetIds": [
        "55464657044963196816950587289035428064568320970692304673817341489687790884865",
        "55464657044963196816950587289035428064568320970692304673817341489687782494208",
        "55464657044963196816950587289035428064568320970692304673817341489687790884866",
        "55464657044963196816950587289035428064568320970692304673817341489687782494209",
        "55464657044963196816950587289035428064568320970692304673817341489687790884864"
      ]
    },
    {
      "x": 233,
      "y": 357,
      "size": 1,
      "price": "1011000000000000000000",
      "reserved": "",
      "salt": "0x4ed1e2fb675221de7050c43ad836307f0a8a175fbc6be636faad230466d4b673",
      "assetIds": []
    },
    {
      "x": 233,
      "y": 358,
      "size": 1,
      "price": "1011000000000000000000",
      "reserved": "",
      "salt": "0xcc8c559a234aefc7011fe0ddda7496c530bcd0036ec216987579c739419ce322",
      "assetIds": []
    },
    {
      "x": 234,
      "y": 336,
      "size": 1,
      "price": "1011000000000000000000",
      "reserved": "",
      "salt": "0xacbe0ea6a32c0a5f52b2ba6a0a2188751da1eacd199455b5ba2e9d455c039d9b",
      "assetIds": []
    },
    {
      "x": 234,
      "y": 337,
      "size": 1,
      "price": "1011000000000000000000",
      "reserved": "",
      "salt": "0xec2b4db1e0a545534ce55b2a7e3ce882eb6e75dc74bcc69177ae43e15904a7df",
      "assetIds": []
    },
    {
      "x": 234,
      "y": 338,
      "size": 1,
      "price": "1011000000000000000000",
      "reserved": "0x7a9fe22691c811ea339d9b73150e6911a5343dca",
      "salt": "0x79557cf4d04f6b09ecd26fa26e4be1f16b727ed7992dfd7bd630fc01d1556b37",
      "assetIds": []
    },
    {
      "x": 234,
      "y": 339,
      "size": 1,
      "price": "1011000000000000000000",
      "reserved": "",
      "salt": "0x08593259380f7bb633803b0715c319fdc90d150390738c0a7473ba332b8bb865",
      "assetIds": []
    },
    {
      "x": 234,
      "y": 340,
      "size": 1,
      "price": "1011000000000000000000",
      "reserved": "0x7a9fe22691c811ea339d9b73150e6911a5343dca",
      "salt": "0x74ca9c7259a4b9429675b1ccd2fa38df645c855cbd97ca3a9a240e2c3ae9137d",
      "assetIds": []
    },
    {
      "x": 234,
      "y": 341,
      "size": 1,
      "price": "4683000000000000000000",
      "reserved": "",
      "salt": "0x0ad2787edf0789b190fad84c2d24b22ab5b7bb7e85eaf43ba902677628fcf15e",
      "assetIds": [
        "55464657044963196816950587289035428064568320970692304673817341489687790884865",
        "55464657044963196816950587289035428064568320970692304673817341489687782494208",
        "55464657044963196816950587289035428064568320970692304673817341489687790884866",
        "55464657044963196816950587289035428064568320970692304673817341489687782494209",
        "55464657044963196816950587289035428064568320970692304673817341489687790884864"
      ]
    },
    {
      "x": 234,
      "y": 342,
      "size": 1,
      "price": "4683000000000000000000",
      "reserved": "",
      "salt": "0x3495c00dc36f685877f0a38e5e995278141edf6f78591508eb210d1fdd6006f8",
      "assetIds": [
        "55464657044963196816950587289035428064568320970692304673817341489687790884865",
        "55464657044963196816950587289035428064568320970692304673817341489687782494208",
        "55464657044963196816950587289035428064568320970692304673817341489687790884866",
        "55464657044963196816950587289035428064568320970692304673817341489687782494209",
        "55464657044963196816950587289035428064568320970692304673817341489687790884864"
      ]
    },
    {
      "x": 234,
      "y": 343,
      "size": 1,
      "price": "4683000000000000000000",
      "reserved": "",
      "salt": "0xa284e1887d536baa51b78839f90479d283c9585c41447e19b8e114681b4f8a0a",
      "assetIds": [
        "55464657044963196816950587289035428064568320970692304673817341489687790884865",
        "55464657044963196816950587289035428064568320970692304673817341489687782494208",
        "55464657044963196816950587289035428064568320970692304673817341489687790884866",
        "55464657044963196816950587289035428064568320970692304673817341489687782494209",
        "55464657044963196816950587289035428064568320970692304673817341489687790884864"
      ]
    },
    {
      "x": 234,
      "y": 344,
      "size": 1,
      "price": "1011000000000000000000",
      "reserved": "0x7a9fe22691c811ea339d9b73150e6911a5343dca",
      "salt": "0x7baa977f525396490555fae5e58b291c47ff151feab9049de7e91fe5a149341f",
      "assetIds": []
    },
    {
      "x": 234,
      "y": 345,
      "size": 1,
      "price": "4683000000000000000000",
      "reserved": "",
      "salt": "0x5ecf6bd391cfa6fda0c199feeadf8861967d54e57acc3894cb3c021331d131f1",
      "assetIds": [
        "55464657044963196816950587289035428064568320970692304673817341489687790884865",
        "55464657044963196816950587289035428064568320970692304673817341489687782494208",
        "55464657044963196816950587289035428064568320970692304673817341489687790884866",
        "55464657044963196816950587289035428064568320970692304673817341489687782494209",
        "55464657044963196816950587289035428064568320970692304673817341489687790884864"
      ]
    },
    {
      "x": 234,
      "y": 346,
      "size": 1,
      "price": "4683000000000000000000",
      "reserved": "",
      "salt": "0x9187d23e67ecd92a2c16b25ca460e5e1dcd651bcf95a8141bb35c25c0d9b7d87",
      "assetIds": [
        "55464657044963196816950587289035428064568320970692304673817341489687790884865",
        "55464657044963196816950587289035428064568320970692304673817341489687782494208",
        "55464657044963196816950587289035428064568320970692304673817341489687790884866",
        "55464657044963196816950587289035428064568320970692304673817341489687782494209",
        "55464657044963196816950587289035428064568320970692304673817341489687790884864"
      ]
    },
    {
      "x": 234,
      "y": 347,
      "size": 1,
      "price": "4683000000000000000000",
      "reserved": "",
      "salt": "0x4a95bc15f1a8a0da619600adf41fbe56baa6e2852c4048bfed41f9e902b51b36",
      "assetIds": [
        "55464657044963196816950587289035428064568320970692304673817341489687790884865",
        "55464657044963196816950587289035428064568320970692304673817341489687782494208",
        "55464657044963196816950587289035428064568320970692304673817341489687790884866",
        "55464657044963196816950587289035428064568320970692304673817341489687782494209",
        "55464657044963196816950587289035428064568320970692304673817341489687790884864"
      ]
    },
    {
      "x": 234,
      "y": 348,
      "size": 1,
      "price": "1011000000000000000000",
      "reserved": "",
      "salt": "0xc52c7e65e05630bbf0f414f54f33a5e20e76b556cc2956d08283fdcfd6a365d5",
      "assetIds": []
    },
    {
      "x": 234,
      "y": 349,
      "size": 1,
      "price": "1011000000000000000000",
      "reserved": "",
      "salt": "0x13f54000520c676911a9fe3aa3196905e89ef2f438644fd3ac37988885779430",
      "assetIds": []
    },
    {
      "x": 234,
      "y": 350,
      "size": 1,
      "price": "1011000000000000000000",
      "reserved": "0x7a9fe22691c811ea339d9b73150e6911a5343dca",
      "salt": "0x59fab40fd40b2af3d34d87a7c664e8bb92aec542774dba90a0942943fb12e850",
      "assetIds": []
    },
    {
      "x": 234,
      "y": 351,
      "size": 1,
      "price": "1011000000000000000000",
      "reserved": "0x7a9fe22691c811ea339d9b73150e6911a5343dca",
      "salt": "0xe2286a4912d22806ea310a58d3955d615b3277b459af64b415540b469115d5c5",
      "assetIds": []
    },
    {
      "x": 234,
      "y": 352,
      "size": 1,
      "price": "1011000000000000000000",
      "reserved": "0x7a9fe22691c811ea339d9b73150e6911a5343dca",
      "salt": "0x091896978eab34bd86254287962478eb154d32f3b908fb59919c6ba772635661",
      "assetIds": []
    },
    {
      "x": 234,
      "y": 353,
      "size": 1,
      "price": "1011000000000000000000",
      "reserved": "",
      "salt": "0x2f5d33d8968652f913efd1c06a07fb8b0dc524e92348933ad2bf5c57dd20c2ee",
      "assetIds": []
    },
    {
      "x": 234,
      "y": 354,
      "size": 1,
      "price": "4683000000000000000000",
      "reserved": "",
      "salt": "0x6920c1382a625776b506b23a6e32f3814be53a2a39edbed0fabfd1cd1d126db9",
      "assetIds": [
        "55464657044963196816950587289035428064568320970692304673817341489687790884865",
        "55464657044963196816950587289035428064568320970692304673817341489687782494208",
        "55464657044963196816950587289035428064568320970692304673817341489687790884866",
        "55464657044963196816950587289035428064568320970692304673817341489687782494209",
        "55464657044963196816950587289035428064568320970692304673817341489687790884864"
      ]
    },
    {
      "x": 234,
      "y": 355,
      "size": 1,
      "price": "4683000000000000000000",
      "reserved": "",
      "salt": "0x0f1491be1bd4a405670ab622a876975a54d6913628dcdaefc12ac09d5c8331c3",
      "assetIds": [
        "55464657044963196816950587289035428064568320970692304673817341489687790884865",
        "55464657044963196816950587289035428064568320970692304673817341489687782494208",
        "55464657044963196816950587289035428064568320970692304673817341489687790884866",
        "55464657044963196816950587289035428064568320970692304673817341489687782494209",
        "55464657044963196816950587289035428064568320970692304673817341489687790884864"
      ]
    },
    {
      "x": 234,
      "y": 356,
      "size": 1,
      "price": "4683000000000000000000",
      "reserved": "",
      "salt": "0xcc584cda53bc7966f92189752d2cd66c5cecb1fa8f8b2e6780807091f76b429a",
      "assetIds": [
        "55464657044963196816950587289035428064568320970692304673817341489687790884865",
        "55464657044963196816950587289035428064568320970692304673817341489687782494208",
        "55464657044963196816950587289035428064568320970692304673817341489687790884866",
        "55464657044963196816950587289035428064568320970692304673817341489687782494209",
        "55464657044963196816950587289035428064568320970692304673817341489687790884864"
      ]
    },
    {
      "x": 234,
      "y": 357,
      "size": 1,
      "price": "1011000000000000000000",
      "reserved": "",
      "salt": "0x84382c2080d408a0fb94dad3f06decbc3a665f452544886e8a08c664baf0c2c1",
      "assetIds": []
    },
    {
      "x": 234,
      "y": 358,
      "size": 1,
      "price": "1011000000000000000000",
      "reserved": "",
      "salt": "0x2d2edebdcbe13994da00068a1652738850f8dbbb4a234e48fa6e95131b0c98ca",
      "assetIds": []
    },
    {
      "x": 235,
      "y": 336,
      "size": 1,
      "price": "1011000000000000000000",
      "reserved": "0x7a9fe22691c811ea339d9b73150e6911a5343dca",
      "salt": "0x244d7a2bcfe54c4c7d18215933d6220a5d5351c8a8e738fb3f4b47576df86f28",
      "assetIds": []
    },
    {
      "x": 235,
      "y": 337,
      "size": 1,
      "price": "1011000000000000000000",
      "reserved": "",
      "salt": "0x32dad376497fce6eb8175afbbdaf420c29c09794b04689e22278054a5a9db1cc",
      "assetIds": []
    },
    {
      "x": 235,
      "y": 338,
      "size": 1,
      "price": "1011000000000000000000",
      "reserved": "",
      "salt": "0x650393140dbb5c81fb4aafa0c8d48d872f703af0d0027b2df77f0adf0c387e84",
      "assetIds": []
    },
    {
      "x": 235,
      "y": 339,
      "size": 1,
      "price": "1011000000000000000000",
      "reserved": "",
      "salt": "0xbb70a411788ccc151280a6153b1493da38c218d699e06dd9cbcdc9368c1616ce",
      "assetIds": []
    },
    {
      "x": 235,
      "y": 340,
      "size": 1,
      "price": "4683000000000000000000",
      "reserved": "",
      "salt": "0x9a9a9c4668902d214f37b2c313a04165109460e2ed89d2361fc5304cddbe0851",
      "assetIds": [
        "55464657044963196816950587289035428064568320970692304673817341489687790884865",
        "55464657044963196816950587289035428064568320970692304673817341489687782494208",
        "55464657044963196816950587289035428064568320970692304673817341489687790884866",
        "55464657044963196816950587289035428064568320970692304673817341489687782494209",
        "55464657044963196816950587289035428064568320970692304673817341489687790884864"
      ]
    },
    {
      "x": 235,
      "y": 341,
      "size": 1,
      "price": "1011000000000000000000",
      "reserved": "",
      "salt": "0xffbe3d5220ef3c197a0637a64fa29371d38b29ba3d9110d46aac6a57764458ab",
      "assetIds": []
    },
    {
      "x": 235,
      "y": 342,
      "size": 1,
      "price": "1011000000000000000000",
      "reserved": "",
      "salt": "0x4f2aaac203abfc230dc7eab9b322975bfc54640fa6fe47501678b664dccd2509",
      "assetIds": []
    },
    {
      "x": 235,
      "y": 343,
      "size": 1,
      "price": "1011000000000000000000",
      "reserved": "",
      "salt": "0x2e4da1bb7681856e757739b8ddc93e7cea9312fdf5efe1fc7c6629b588eafe60",
      "assetIds": []
    },
    {
      "x": 235,
      "y": 344,
      "size": 1,
      "price": "4683000000000000000000",
      "reserved": "",
      "salt": "0xfeda963d857b1635a2a7d6194545334bf5da7737d10414b3a921f2226a8c987a",
      "assetIds": [
        "55464657044963196816950587289035428064568320970692304673817341489687790884865",
        "55464657044963196816950587289035428064568320970692304673817341489687782494208",
        "55464657044963196816950587289035428064568320970692304673817341489687790884866",
        "55464657044963196816950587289035428064568320970692304673817341489687782494209",
        "55464657044963196816950587289035428064568320970692304673817341489687790884864"
      ]
    },
    {
      "x": 235,
      "y": 345,
      "size": 1,
      "price": "4683000000000000000000",
      "reserved": "",
      "salt": "0x9076ffefc8e29395ae6886e29a9c46c8d3ab084439e2fdce45afc8de370ea8a8",
      "assetIds": [
        "55464657044963196816950587289035428064568320970692304673817341489687790884865",
        "55464657044963196816950587289035428064568320970692304673817341489687782494208",
        "55464657044963196816950587289035428064568320970692304673817341489687790884866",
        "55464657044963196816950587289035428064568320970692304673817341489687782494209",
        "55464657044963196816950587289035428064568320970692304673817341489687790884864"
      ]
    },
    {
      "x": 235,
      "y": 346,
      "size": 1,
      "price": "1011000000000000000000",
      "reserved": "",
      "salt": "0x8f0b7378fadf03e51b217da72880d09e122e1036f63cb6ca72d7f52030614c7e",
      "assetIds": []
    },
    {
      "x": 235,
      "y": 347,
      "size": 1,
      "price": "4683000000000000000000",
      "reserved": "",
      "salt": "0x8bed40f6754d95165e6934296e4ed70192d2be6dbd5e134c7ef5db99bf69f760",
      "assetIds": [
        "55464657044963196816950587289035428064568320970692304673817341489687790884865",
        "55464657044963196816950587289035428064568320970692304673817341489687782494208",
        "55464657044963196816950587289035428064568320970692304673817341489687790884866",
        "55464657044963196816950587289035428064568320970692304673817341489687782494209",
        "55464657044963196816950587289035428064568320970692304673817341489687790884864"
      ]
    },
    {
      "x": 235,
      "y": 348,
      "size": 1,
      "price": "4683000000000000000000",
      "reserved": "",
      "salt": "0x9e5b6579419dfa5edeec044dd6931979bcec0c00878bcdbf030bd1c203511968",
      "assetIds": [
        "55464657044963196816950587289035428064568320970692304673817341489687790884865",
        "55464657044963196816950587289035428064568320970692304673817341489687782494208",
        "55464657044963196816950587289035428064568320970692304673817341489687790884866",
        "55464657044963196816950587289035428064568320970692304673817341489687782494209",
        "55464657044963196816950587289035428064568320970692304673817341489687790884864"
      ]
    },
    {
      "x": 235,
      "y": 349,
      "size": 1,
      "price": "4683000000000000000000",
      "reserved": "",
      "salt": "0x7a6776af2232769e8970570c1ab36ac4dd8346199ba7c518c42caa196cbcc0af",
      "assetIds": [
        "55464657044963196816950587289035428064568320970692304673817341489687790884865",
        "55464657044963196816950587289035428064568320970692304673817341489687782494208",
        "55464657044963196816950587289035428064568320970692304673817341489687790884866",
        "55464657044963196816950587289035428064568320970692304673817341489687782494209",
        "55464657044963196816950587289035428064568320970692304673817341489687790884864"
      ]
    },
    {
      "x": 235,
      "y": 350,
      "size": 1,
      "price": "1011000000000000000000",
      "reserved": "",
      "salt": "0x03fb9a85f0de002dc6bef3b60dc294abd3d5fd0183a0c59110ae0a87ab3f69aa",
      "assetIds": []
    },
    {
      "x": 235,
      "y": 351,
      "size": 1,
      "price": "1011000000000000000000",
      "reserved": "",
      "salt": "0x6160a36f1f03a304ccb487972a93d8aa5b31fde63ade452c69ee20acbac0c761",
      "assetIds": []
    },
    {
      "x": 235,
      "y": 352,
      "size": 1,
      "price": "1011000000000000000000",
      "reserved": "",
      "salt": "0xf6f2c3f660ea4babe53a36a055b312938a5cee1297ad226acc4722138f4d1477",
      "assetIds": []
    },
    {
      "x": 235,
      "y": 353,
      "size": 1,
      "price": "4683000000000000000000",
      "reserved": "",
      "salt": "0x478aeb37eabc8ca21167f4abb130a65c2e9e6a2cced39d1ef20ae49e175c8a42",
      "assetIds": [
        "55464657044963196816950587289035428064568320970692304673817341489687790884865",
        "55464657044963196816950587289035428064568320970692304673817341489687782494208",
        "55464657044963196816950587289035428064568320970692304673817341489687790884866",
        "55464657044963196816950587289035428064568320970692304673817341489687782494209",
        "55464657044963196816950587289035428064568320970692304673817341489687790884864"
      ]
    },
    {
      "x": 235,
      "y": 354,
      "size": 1,
      "price": "1011000000000000000000",
      "reserved": "0x7a9fe22691c811ea339d9b73150e6911a5343dca",
      "salt": "0xcf901fa3c194c7bd1dc387182e062ec4f7300db88c5bbad84da8ac88a70b94fe",
      "assetIds": []
    },
    {
      "x": 235,
      "y": 355,
      "size": 1,
      "price": "4683000000000000000000",
      "reserved": "",
      "salt": "0xb074f44da0f379f49ef1c36a536a0d106772e18cb676a4f1c7cb418523556336",
      "assetIds": [
        "55464657044963196816950587289035428064568320970692304673817341489687790884865",
        "55464657044963196816950587289035428064568320970692304673817341489687782494208",
        "55464657044963196816950587289035428064568320970692304673817341489687790884866",
        "55464657044963196816950587289035428064568320970692304673817341489687782494209",
        "55464657044963196816950587289035428064568320970692304673817341489687790884864"
      ]
    },
    {
      "x": 235,
      "y": 356,
      "size": 1,
      "price": "4683000000000000000000",
      "reserved": "",
      "salt": "0xf942735323865efdbe289a9786a6108f06987bbb8b7e50d2b92c5b075810f363",
      "assetIds": [
        "55464657044963196816950587289035428064568320970692304673817341489687790884865",
        "55464657044963196816950587289035428064568320970692304673817341489687782494208",
        "55464657044963196816950587289035428064568320970692304673817341489687790884866",
        "55464657044963196816950587289035428064568320970692304673817341489687782494209",
        "55464657044963196816950587289035428064568320970692304673817341489687790884864"
      ]
    },
    {
      "x": 235,
      "y": 357,
      "size": 1,
      "price": "1011000000000000000000",
      "reserved": "",
      "salt": "0x4841ff533de77159ada8b0eb3fff32265ceb5a7a741f5f635b5b1c4a386969b9",
      "assetIds": []
    },
    {
      "x": 236,
      "y": 336,
      "size": 1,
      "price": "1011000000000000000000",
      "reserved": "",
      "salt": "0x576cb3f07c165918555b0cce7c49c33c610919d0592d0e8313dcf3394882d697",
      "assetIds": []
    },
    {
      "x": 236,
      "y": 337,
      "size": 1,
      "price": "1011000000000000000000",
      "reserved": "",
      "salt": "0x3cc2955bc88c8e011198427210b3184ace916874e105d23038d5e4841d799015",
      "assetIds": []
    },
    {
      "x": 236,
      "y": 338,
      "size": 1,
      "price": "1011000000000000000000",
      "reserved": "0x7a9fe22691c811ea339d9b73150e6911a5343dca",
      "salt": "0x2b932ff621ddf00525fdbbd5ab1748e6f3d8f318e341b02802d2fc31280c68b1",
      "assetIds": []
    },
    {
      "x": 236,
      "y": 339,
      "size": 1,
      "price": "4683000000000000000000",
      "reserved": "",
      "salt": "0x999b3c452b9a41c7e1078002e2017d43a20575156c5f75f6023042efd1e05050",
      "assetIds": [
        "55464657044963196816950587289035428064568320970692304673817341489687790884865",
        "55464657044963196816950587289035428064568320970692304673817341489687782494208",
        "55464657044963196816950587289035428064568320970692304673817341489687790884866",
        "55464657044963196816950587289035428064568320970692304673817341489687782494209",
        "55464657044963196816950587289035428064568320970692304673817341489687790884864"
      ]
    },
    {
      "x": 236,
      "y": 340,
      "size": 1,
      "price": "1011000000000000000000",
      "reserved": "0x7a9fe22691c811ea339d9b73150e6911a5343dca",
      "salt": "0xc0a6122eba4e880dd14f80b8878fe93c788a36bdb1a812025f287042f462fca0",
      "assetIds": []
    },
    {
      "x": 236,
      "y": 341,
      "size": 1,
      "price": "1011000000000000000000",
      "reserved": "",
      "salt": "0xdbccd43060beed1a25cef6746191c2bd4642646bc939fc4c2da21f71524f47d6",
      "assetIds": []
    },
    {
      "x": 236,
      "y": 342,
      "size": 1,
      "price": "1011000000000000000000",
      "reserved": "",
      "salt": "0xf6baab09f04d44c73fa5cbb3d32c13cfa812be0f7c8a8cbd44a77712e2610106",
      "assetIds": []
    },
    {
      "x": 236,
      "y": 343,
      "size": 1,
      "price": "1011000000000000000000",
      "reserved": "",
      "salt": "0xd99ff64af2d407b16b301678aa63998553ac4b50f17e4e2d95d9031b32eec3a4",
      "assetIds": []
    },
    {
      "x": 236,
      "y": 344,
      "size": 1,
      "price": "4683000000000000000000",
      "reserved": "",
      "salt": "0xb3143b0795982ee685b47496aaef08026c94d5fb28633e71c66242776376ff72",
      "assetIds": [
        "55464657044963196816950587289035428064568320970692304673817341489687790884865",
        "55464657044963196816950587289035428064568320970692304673817341489687782494208",
        "55464657044963196816950587289035428064568320970692304673817341489687790884866",
        "55464657044963196816950587289035428064568320970692304673817341489687782494209",
        "55464657044963196816950587289035428064568320970692304673817341489687790884864"
      ]
    },
    {
      "x": 236,
      "y": 345,
      "size": 1,
      "price": "4683000000000000000000",
      "reserved": "",
      "salt": "0x2a468b31c3d0f7ec5675bdc37cd756cf7c8b8f3f3b16e4acbb241e7c0ff14da2",
      "assetIds": [
        "55464657044963196816950587289035428064568320970692304673817341489687790884865",
        "55464657044963196816950587289035428064568320970692304673817341489687782494208",
        "55464657044963196816950587289035428064568320970692304673817341489687790884866",
        "55464657044963196816950587289035428064568320970692304673817341489687782494209",
        "55464657044963196816950587289035428064568320970692304673817341489687790884864"
      ]
    },
    {
      "x": 236,
      "y": 346,
      "size": 1,
      "price": "1011000000000000000000",
      "reserved": "",
      "salt": "0x453137fcb37aab87b804f990ea788d67d1864612f57b30825abd1b59b5d8788b",
      "assetIds": []
    },
    {
      "x": 236,
      "y": 347,
      "size": 1,
      "price": "4683000000000000000000",
      "reserved": "",
      "salt": "0xc3ba6fa5e0c83b6ff911b8b24332b64e05f5759116a394120aa08273c11d7a3e",
      "assetIds": [
        "55464657044963196816950587289035428064568320970692304673817341489687790884865",
        "55464657044963196816950587289035428064568320970692304673817341489687782494208",
        "55464657044963196816950587289035428064568320970692304673817341489687790884866",
        "55464657044963196816950587289035428064568320970692304673817341489687782494209",
        "55464657044963196816950587289035428064568320970692304673817341489687790884864"
      ]
    },
    {
      "x": 236,
      "y": 348,
      "size": 1,
      "price": "1011000000000000000000",
      "reserved": "0x7a9fe22691c811ea339d9b73150e6911a5343dca",
      "salt": "0x19e23ec122cd38c4ed09edc4991b15ed43bae79ea5675daa67a1f1e8333740f2",
      "assetIds": []
    },
    {
      "x": 236,
      "y": 349,
      "size": 1,
      "price": "4683000000000000000000",
      "reserved": "",
      "salt": "0x9a9b1cc0e0fbd715ce2c8edc2e65ea10aac57a03b0f04d0b32b5afbbb938b1ca",
      "assetIds": [
        "55464657044963196816950587289035428064568320970692304673817341489687790884865",
        "55464657044963196816950587289035428064568320970692304673817341489687782494208",
        "55464657044963196816950587289035428064568320970692304673817341489687790884866",
        "55464657044963196816950587289035428064568320970692304673817341489687782494209",
        "55464657044963196816950587289035428064568320970692304673817341489687790884864"
      ]
    },
    {
      "x": 236,
      "y": 350,
      "size": 1,
      "price": "1011000000000000000000",
      "reserved": "0x7a9fe22691c811ea339d9b73150e6911a5343dca",
      "salt": "0x2662807f29aa0e9d5740e16e060fbd0dc32cfd0a6cdcbe0733b0e4a7b081547b",
      "assetIds": []
    },
    {
      "x": 236,
      "y": 351,
      "size": 1,
      "price": "4683000000000000000000",
      "reserved": "",
      "salt": "0xfef12f28dc81bc12226bd0021c4e2b93f9c4b709e2884b4456c0e32c89d2554d",
      "assetIds": [
        "55464657044963196816950587289035428064568320970692304673817341489687790884865",
        "55464657044963196816950587289035428064568320970692304673817341489687782494208",
        "55464657044963196816950587289035428064568320970692304673817341489687790884866",
        "55464657044963196816950587289035428064568320970692304673817341489687782494209",
        "55464657044963196816950587289035428064568320970692304673817341489687790884864"
      ]
    },
    {
      "x": 236,
      "y": 352,
      "size": 1,
      "price": "4683000000000000000000",
      "reserved": "",
      "salt": "0x9f792516d4ecd5f47eb8bd72bc0bd228e4cf90e73cf6350e1aa3957fab7d266e",
      "assetIds": [
        "55464657044963196816950587289035428064568320970692304673817341489687790884865",
        "55464657044963196816950587289035428064568320970692304673817341489687782494208",
        "55464657044963196816950587289035428064568320970692304673817341489687790884866",
        "55464657044963196816950587289035428064568320970692304673817341489687782494209",
        "55464657044963196816950587289035428064568320970692304673817341489687790884864"
      ]
    },
    {
      "x": 236,
      "y": 353,
      "size": 1,
      "price": "1011000000000000000000",
      "reserved": "0x7a9fe22691c811ea339d9b73150e6911a5343dca",
      "salt": "0x239631476c4cc8f5c9412162761b1c172a46ae0be31cad67795047cf2c6307b2",
      "assetIds": []
    },
    {
      "x": 236,
      "y": 354,
      "size": 1,
      "price": "1011000000000000000000",
      "reserved": "0x7a9fe22691c811ea339d9b73150e6911a5343dca",
      "salt": "0x5a5580d38ea612204ce134c5213a6da8744a32f7da3f81d34b864db6bfdff27e",
      "assetIds": []
    },
    {
      "x": 236,
      "y": 355,
      "size": 1,
      "price": "4683000000000000000000",
      "reserved": "",
      "salt": "0x5c836683db0cf300eaaf97e8f749f7b8d17813aeb606a06505e74a08032e8504",
      "assetIds": [
        "55464657044963196816950587289035428064568320970692304673817341489687790884865",
        "55464657044963196816950587289035428064568320970692304673817341489687782494208",
        "55464657044963196816950587289035428064568320970692304673817341489687790884866",
        "55464657044963196816950587289035428064568320970692304673817341489687782494209",
        "55464657044963196816950587289035428064568320970692304673817341489687790884864"
      ]
    },
    {
      "x": 236,
      "y": 356,
      "size": 1,
      "price": "4683000000000000000000",
      "reserved": "",
      "salt": "0x9566346207bc233bb721104bf6542be02c9046492896b09e84411b2258a0f63f",
      "assetIds": [
        "55464657044963196816950587289035428064568320970692304673817341489687790884865",
        "55464657044963196816950587289035428064568320970692304673817341489687782494208",
        "55464657044963196816950587289035428064568320970692304673817341489687790884866",
        "55464657044963196816950587289035428064568320970692304673817341489687782494209",
        "55464657044963196816950587289035428064568320970692304673817341489687790884864"
      ]
    },
    {
      "x": 236,
      "y": 357,
      "size": 1,
      "price": "1011000000000000000000",
      "reserved": "",
      "salt": "0x042d0461cf1394803d0f5cf90e3999c3a3024a6e61620bcbaa1c7b32122636f5",
      "assetIds": []
    },
    {
      "x": 237,
      "y": 339,
      "size": 1,
      "price": "4683000000000000000000",
      "reserved": "",
      "salt": "0xa41bd6393413da2ac94d7a64f59964e4edb3fe13ca30e5e92b67e3dfd581a28f",
      "assetIds": [
        "55464657044963196816950587289035428064568320970692304673817341489687790884865",
        "55464657044963196816950587289035428064568320970692304673817341489687782494208",
        "55464657044963196816950587289035428064568320970692304673817341489687790884866",
        "55464657044963196816950587289035428064568320970692304673817341489687782494209",
        "55464657044963196816950587289035428064568320970692304673817341489687790884864"
      ]
    },
    {
      "x": 237,
      "y": 340,
      "size": 1,
      "price": "4683000000000000000000",
      "reserved": "",
      "salt": "0x8161487a7f4f9bb008208c21992dc67bed361b9023b576ad194a98f01ebd2bd4",
      "assetIds": [
        "55464657044963196816950587289035428064568320970692304673817341489687790884865",
        "55464657044963196816950587289035428064568320970692304673817341489687782494208",
        "55464657044963196816950587289035428064568320970692304673817341489687790884866",
        "55464657044963196816950587289035428064568320970692304673817341489687782494209",
        "55464657044963196816950587289035428064568320970692304673817341489687790884864"
      ]
    },
    {
      "x": 237,
      "y": 341,
      "size": 1,
      "price": "4683000000000000000000",
      "reserved": "",
      "salt": "0x88371b246460e0a5e28b76d8f271a99f14241ec0a698b027c4c1659b7aaf6837",
      "assetIds": [
        "55464657044963196816950587289035428064568320970692304673817341489687790884865",
        "55464657044963196816950587289035428064568320970692304673817341489687782494208",
        "55464657044963196816950587289035428064568320970692304673817341489687790884866",
        "55464657044963196816950587289035428064568320970692304673817341489687782494209",
        "55464657044963196816950587289035428064568320970692304673817341489687790884864"
      ]
    },
    {
      "x": 237,
      "y": 342,
      "size": 1,
      "price": "1011000000000000000000",
      "reserved": "0x7a9fe22691c811ea339d9b73150e6911a5343dca",
      "salt": "0x19151c8445f52be0c6c430cf305ef1a5d7fab5905c8e1108b9cc5019ad1e149a",
      "assetIds": []
    },
    {
      "x": 237,
      "y": 343,
      "size": 1,
      "price": "1011000000000000000000",
      "reserved": "",
      "salt": "0x797ff4a6b021763e47497c8d6eacff2aae6573595a17ee3a55b7c27e2ced2815",
      "assetIds": []
    },
    {
      "x": 237,
      "y": 344,
      "size": 1,
      "price": "4683000000000000000000",
      "reserved": "",
      "salt": "0x353be037c28514680e9a9f39088571edde8bcd3ffadf2f15f8ca2dab82cea102",
      "assetIds": [
        "55464657044963196816950587289035428064568320970692304673817341489687790884865",
        "55464657044963196816950587289035428064568320970692304673817341489687782494208",
        "55464657044963196816950587289035428064568320970692304673817341489687790884866",
        "55464657044963196816950587289035428064568320970692304673817341489687782494209",
        "55464657044963196816950587289035428064568320970692304673817341489687790884864"
      ]
    },
    {
      "x": 237,
      "y": 345,
      "size": 1,
      "price": "4683000000000000000000",
      "reserved": "",
      "salt": "0xe11de9b1d604555ea5154ff3a23f1566d178b30c9ef84ac1ed2cc31441223c55",
      "assetIds": [
        "55464657044963196816950587289035428064568320970692304673817341489687790884865",
        "55464657044963196816950587289035428064568320970692304673817341489687782494208",
        "55464657044963196816950587289035428064568320970692304673817341489687790884866",
        "55464657044963196816950587289035428064568320970692304673817341489687782494209",
        "55464657044963196816950587289035428064568320970692304673817341489687790884864"
      ]
    },
    {
      "x": 237,
      "y": 346,
      "size": 1,
      "price": "4683000000000000000000",
      "reserved": "",
      "salt": "0xe845efd23b5124bf875bc6d6ee645d6477fe8cdcaaf4c6ae7974210bb31d4031",
      "assetIds": [
        "55464657044963196816950587289035428064568320970692304673817341489687790884865",
        "55464657044963196816950587289035428064568320970692304673817341489687782494208",
        "55464657044963196816950587289035428064568320970692304673817341489687790884866",
        "55464657044963196816950587289035428064568320970692304673817341489687782494209",
        "55464657044963196816950587289035428064568320970692304673817341489687790884864"
      ]
    },
    {
      "x": 237,
      "y": 347,
      "size": 1,
      "price": "1011000000000000000000",
      "reserved": "0x7a9fe22691c811ea339d9b73150e6911a5343dca",
      "salt": "0x1bf4fb1f1bf19ea4fa50e19fe5b468cd7f94c992c2579bbd53e7511a8a73e423",
      "assetIds": []
    },
    {
      "x": 237,
      "y": 348,
      "size": 1,
      "price": "4683000000000000000000",
      "reserved": "",
      "salt": "0x60847cd233cc8a5b2e8023ac3bf5847de4d94b99ddcb67b96dfdc819ad3a0940",
      "assetIds": [
        "55464657044963196816950587289035428064568320970692304673817341489687790884865",
        "55464657044963196816950587289035428064568320970692304673817341489687782494208",
        "55464657044963196816950587289035428064568320970692304673817341489687790884866",
        "55464657044963196816950587289035428064568320970692304673817341489687782494209",
        "55464657044963196816950587289035428064568320970692304673817341489687790884864"
      ]
    },
    {
      "x": 237,
      "y": 349,
      "size": 1,
      "price": "4683000000000000000000",
      "reserved": "",
      "salt": "0xb237de242ab642e0a06df545818e37d5b67fdce091328f1b62d47553a8948a0a",
      "assetIds": [
        "55464657044963196816950587289035428064568320970692304673817341489687790884865",
        "55464657044963196816950587289035428064568320970692304673817341489687782494208",
        "55464657044963196816950587289035428064568320970692304673817341489687790884866",
        "55464657044963196816950587289035428064568320970692304673817341489687782494209",
        "55464657044963196816950587289035428064568320970692304673817341489687790884864"
      ]
    },
    {
      "x": 237,
      "y": 350,
      "size": 1,
      "price": "4683000000000000000000",
      "reserved": "",
      "salt": "0xcea20bba9d6e8426ac390e2c10e3e4acd6d02bfea3624a556bd5a6d795220733",
      "assetIds": [
        "55464657044963196816950587289035428064568320970692304673817341489687790884865",
        "55464657044963196816950587289035428064568320970692304673817341489687782494208",
        "55464657044963196816950587289035428064568320970692304673817341489687790884866",
        "55464657044963196816950587289035428064568320970692304673817341489687782494209",
        "55464657044963196816950587289035428064568320970692304673817341489687790884864"
      ]
    },
    {
      "x": 237,
      "y": 354,
      "size": 1,
      "price": "4683000000000000000000",
      "reserved": "",
      "salt": "0x97bbd1613239a78c9059b04e8edc48719cd1ce6f2ffd20b7dc3a4c8b729176f9",
      "assetIds": [
        "55464657044963196816950587289035428064568320970692304673817341489687790884865",
        "55464657044963196816950587289035428064568320970692304673817341489687782494208",
        "55464657044963196816950587289035428064568320970692304673817341489687790884866",
        "55464657044963196816950587289035428064568320970692304673817341489687782494209",
        "55464657044963196816950587289035428064568320970692304673817341489687790884864"
      ]
    },
    {
      "x": 237,
      "y": 355,
      "size": 1,
      "price": "4683000000000000000000",
      "reserved": "",
      "salt": "0xbcffa0d8113412508c3666ecec2e78ea8c46afa24b385efb3625ac454f31db86",
      "assetIds": [
        "55464657044963196816950587289035428064568320970692304673817341489687790884865",
        "55464657044963196816950587289035428064568320970692304673817341489687782494208",
        "55464657044963196816950587289035428064568320970692304673817341489687790884866",
        "55464657044963196816950587289035428064568320970692304673817341489687782494209",
        "55464657044963196816950587289035428064568320970692304673817341489687790884864"
      ]
    },
    {
      "x": 237,
      "y": 356,
      "size": 1,
      "price": "1011000000000000000000",
      "reserved": "0x7a9fe22691c811ea339d9b73150e6911a5343dca",
      "salt": "0x54d617e78725d438dc68b558e79a86eed27d40e22171b61de999aa5b7d8c5324",
      "assetIds": []
    },
    {
      "x": 237,
      "y": 357,
      "size": 1,
      "price": "1011000000000000000000",
      "reserved": "",
      "salt": "0x2a0b138b7d166b98aed810d989b072644233b895a366a58ccc238362a177b684",
      "assetIds": []
    },
    {
      "x": 238,
      "y": 339,
      "size": 1,
      "price": "4683000000000000000000",
      "reserved": "",
      "salt": "0x7bc167744eada2de2c1b72de7fef02179db897af5461546c391f3e2c4f4c652a",
      "assetIds": [
        "55464657044963196816950587289035428064568320970692304673817341489687790884865",
        "55464657044963196816950587289035428064568320970692304673817341489687782494208",
        "55464657044963196816950587289035428064568320970692304673817341489687790884866",
        "55464657044963196816950587289035428064568320970692304673817341489687782494209",
        "55464657044963196816950587289035428064568320970692304673817341489687790884864"
      ]
    },
    {
      "x": 238,
      "y": 340,
      "size": 1,
      "price": "4683000000000000000000",
      "reserved": "",
      "salt": "0x88a6aa87fee8a86fa19fd1ad11ed46057bdc75dd1903b0cecdbbbe9caf38ee34",
      "assetIds": [
        "55464657044963196816950587289035428064568320970692304673817341489687790884865",
        "55464657044963196816950587289035428064568320970692304673817341489687782494208",
        "55464657044963196816950587289035428064568320970692304673817341489687790884866",
        "55464657044963196816950587289035428064568320970692304673817341489687782494209",
        "55464657044963196816950587289035428064568320970692304673817341489687790884864"
      ]
    },
    {
      "x": 238,
      "y": 341,
      "size": 1,
      "price": "4683000000000000000000",
      "reserved": "",
      "salt": "0xbbc182205874ddae5c87a793275360b068bd8f9dc4b243dc6575073a81e1beff",
      "assetIds": [
        "55464657044963196816950587289035428064568320970692304673817341489687790884865",
        "55464657044963196816950587289035428064568320970692304673817341489687782494208",
        "55464657044963196816950587289035428064568320970692304673817341489687790884866",
        "55464657044963196816950587289035428064568320970692304673817341489687782494209",
        "55464657044963196816950587289035428064568320970692304673817341489687790884864"
      ]
    },
    {
      "x": 238,
      "y": 342,
      "size": 1,
      "price": "4683000000000000000000",
      "reserved": "",
      "salt": "0x23c578ef9c398f91e6ab03eb0d3f33a1290fd3b34e2ae6684206e9d8bb6bdc54",
      "assetIds": [
        "55464657044963196816950587289035428064568320970692304673817341489687790884865",
        "55464657044963196816950587289035428064568320970692304673817341489687782494208",
        "55464657044963196816950587289035428064568320970692304673817341489687790884866",
        "55464657044963196816950587289035428064568320970692304673817341489687782494209",
        "55464657044963196816950587289035428064568320970692304673817341489687790884864"
      ]
    },
    {
      "x": 238,
      "y": 343,
      "size": 1,
      "price": "4683000000000000000000",
      "reserved": "",
      "salt": "0x1b691f4e82a861bb1bae56639d653fc8e3380cdf96cca881fa99351ec192c645",
      "assetIds": [
        "55464657044963196816950587289035428064568320970692304673817341489687790884865",
        "55464657044963196816950587289035428064568320970692304673817341489687782494208",
        "55464657044963196816950587289035428064568320970692304673817341489687790884866",
        "55464657044963196816950587289035428064568320970692304673817341489687782494209",
        "55464657044963196816950587289035428064568320970692304673817341489687790884864"
      ]
    },
    {
      "x": 238,
      "y": 344,
      "size": 1,
      "price": "4683000000000000000000",
      "reserved": "",
      "salt": "0xd6abf6d2b24abfd4144b2f5ec4f8ce8b6ce1fc7bfafd67278494499643cb2930",
      "assetIds": [
        "55464657044963196816950587289035428064568320970692304673817341489687790884865",
        "55464657044963196816950587289035428064568320970692304673817341489687782494208",
        "55464657044963196816950587289035428064568320970692304673817341489687790884866",
        "55464657044963196816950587289035428064568320970692304673817341489687782494209",
        "55464657044963196816950587289035428064568320970692304673817341489687790884864"
      ]
    },
    {
      "x": 238,
      "y": 345,
      "size": 1,
      "price": "4683000000000000000000",
      "reserved": "",
      "salt": "0x040eb1aaab2d832ddf163c0b9b78d0e04134fe4701d5b09fd1108f161b56b50a",
      "assetIds": [
        "55464657044963196816950587289035428064568320970692304673817341489687790884865",
        "55464657044963196816950587289035428064568320970692304673817341489687782494208",
        "55464657044963196816950587289035428064568320970692304673817341489687790884866",
        "55464657044963196816950587289035428064568320970692304673817341489687782494209",
        "55464657044963196816950587289035428064568320970692304673817341489687790884864"
      ]
    },
    {
      "x": 238,
      "y": 346,
      "size": 1,
      "price": "4683000000000000000000",
      "reserved": "",
      "salt": "0xc95f055d26d3941b59d679822f76003ee6c1568e95abefb34047813fc23b45b8",
      "assetIds": [
        "55464657044963196816950587289035428064568320970692304673817341489687790884865",
        "55464657044963196816950587289035428064568320970692304673817341489687782494208",
        "55464657044963196816950587289035428064568320970692304673817341489687790884866",
        "55464657044963196816950587289035428064568320970692304673817341489687782494209",
        "55464657044963196816950587289035428064568320970692304673817341489687790884864"
      ]
    },
    {
      "x": 238,
      "y": 347,
      "size": 1,
      "price": "4683000000000000000000",
      "reserved": "",
      "salt": "0xf431032fd7a499bf17b5b502a7a8e8923fed52fb2dde0d02e98871f2121bae2b",
      "assetIds": [
        "55464657044963196816950587289035428064568320970692304673817341489687790884865",
        "55464657044963196816950587289035428064568320970692304673817341489687782494208",
        "55464657044963196816950587289035428064568320970692304673817341489687790884866",
        "55464657044963196816950587289035428064568320970692304673817341489687782494209",
        "55464657044963196816950587289035428064568320970692304673817341489687790884864"
      ]
    },
    {
      "x": 238,
      "y": 348,
      "size": 1,
      "price": "4683000000000000000000",
      "reserved": "",
      "salt": "0x5c8e413b37f45f36adb6fc1b842744033e5080583fba069616e9587d56bee7fe",
      "assetIds": [
        "55464657044963196816950587289035428064568320970692304673817341489687790884865",
        "55464657044963196816950587289035428064568320970692304673817341489687782494208",
        "55464657044963196816950587289035428064568320970692304673817341489687790884866",
        "55464657044963196816950587289035428064568320970692304673817341489687782494209",
        "55464657044963196816950587289035428064568320970692304673817341489687790884864"
      ]
    },
    {
      "x": 238,
      "y": 349,
      "size": 1,
      "price": "4683000000000000000000",
      "reserved": "",
      "salt": "0x5bb0be1209b7800d415bdd81bb3bd93f47d88cb3cdc53c802270228a3b4ce883",
      "assetIds": [
        "55464657044963196816950587289035428064568320970692304673817341489687790884865",
        "55464657044963196816950587289035428064568320970692304673817341489687782494208",
        "55464657044963196816950587289035428064568320970692304673817341489687790884866",
        "55464657044963196816950587289035428064568320970692304673817341489687782494209",
        "55464657044963196816950587289035428064568320970692304673817341489687790884864"
      ]
    },
    {
      "x": 238,
      "y": 350,
      "size": 1,
      "price": "4683000000000000000000",
      "reserved": "",
      "salt": "0xc93734f09887ce2b0d56190d43d2e9cba1419bd13e10d8f3ec17d1fb0308e3fc",
      "assetIds": [
        "55464657044963196816950587289035428064568320970692304673817341489687790884865",
        "55464657044963196816950587289035428064568320970692304673817341489687782494208",
        "55464657044963196816950587289035428064568320970692304673817341489687790884866",
        "55464657044963196816950587289035428064568320970692304673817341489687782494209",
        "55464657044963196816950587289035428064568320970692304673817341489687790884864"
      ]
    },
    {
      "x": 238,
      "y": 354,
      "size": 1,
      "price": "4683000000000000000000",
      "reserved": "",
      "salt": "0x7112893bca753c5a64ae7ed6c47db883cb2e3bf846b3398b4aa23af427e49db8",
      "assetIds": [
        "55464657044963196816950587289035428064568320970692304673817341489687790884865",
        "55464657044963196816950587289035428064568320970692304673817341489687782494208",
        "55464657044963196816950587289035428064568320970692304673817341489687790884866",
        "55464657044963196816950587289035428064568320970692304673817341489687782494209",
        "55464657044963196816950587289035428064568320970692304673817341489687790884864"
      ]
    },
    {
      "x": 238,
      "y": 355,
      "size": 1,
      "price": "1011000000000000000000",
      "reserved": "0x7a9fe22691c811ea339d9b73150e6911a5343dca",
      "salt": "0xec96858d8f90abfe120163f8c5f25dff6dcb1c774dd04ffa926f4cad3198d264",
      "assetIds": []
    },
    {
      "x": 238,
      "y": 356,
      "size": 1,
      "price": "4683000000000000000000",
      "reserved": "",
      "salt": "0xbeb6f67031dcc19fa073989e2a16939c7e7beeed12e232274e19b783e61e6f85",
      "assetIds": [
        "55464657044963196816950587289035428064568320970692304673817341489687790884865",
        "55464657044963196816950587289035428064568320970692304673817341489687782494208",
        "55464657044963196816950587289035428064568320970692304673817341489687790884866",
        "55464657044963196816950587289035428064568320970692304673817341489687782494209",
        "55464657044963196816950587289035428064568320970692304673817341489687790884864"
      ]
    },
    {
      "x": 238,
      "y": 357,
      "size": 1,
      "price": "1011000000000000000000",
      "reserved": "0x7a9fe22691c811ea339d9b73150e6911a5343dca",
      "salt": "0x83d0d0311a2481bcf0e3becb719b30fd4adaedbe7338b5e60be224ab7c4d8b2c",
      "assetIds": []
    },
    {
      "x": 239,
      "y": 339,
      "size": 1,
      "price": "4683000000000000000000",
      "reserved": "",
      "salt": "0xd5c4808cb881e74fb4e5cc4333f56f18737d56c0b937c6f150763aae727488c9",
      "assetIds": [
        "55464657044963196816950587289035428064568320970692304673817341489687790884865",
        "55464657044963196816950587289035428064568320970692304673817341489687782494208",
        "55464657044963196816950587289035428064568320970692304673817341489687790884866",
        "55464657044963196816950587289035428064568320970692304673817341489687782494209",
        "55464657044963196816950587289035428064568320970692304673817341489687790884864"
      ]
    },
    {
      "x": 239,
      "y": 340,
      "size": 1,
      "price": "1011000000000000000000",
      "reserved": "0x7a9fe22691c811ea339d9b73150e6911a5343dca",
      "salt": "0x128ca07e265d596626893049f26f3b276adee5a5b8172d2c5e60299f5f93192a",
      "assetIds": []
    },
    {
      "x": 239,
      "y": 341,
      "size": 1,
      "price": "1011000000000000000000",
      "reserved": "0x7a9fe22691c811ea339d9b73150e6911a5343dca",
      "salt": "0xa93bf7f805c1519ca20d5ce723a9fbdbe485434383bf99ba6d452b8df6a17312",
      "assetIds": []
    },
    {
      "x": 239,
      "y": 342,
      "size": 1,
      "price": "4683000000000000000000",
      "reserved": "",
      "salt": "0xf760bd51da90dc77f85e392591f90939d73190ee50a9c6a4a5cde54a267ef336",
      "assetIds": [
        "55464657044963196816950587289035428064568320970692304673817341489687790884865",
        "55464657044963196816950587289035428064568320970692304673817341489687782494208",
        "55464657044963196816950587289035428064568320970692304673817341489687790884866",
        "55464657044963196816950587289035428064568320970692304673817341489687782494209",
        "55464657044963196816950587289035428064568320970692304673817341489687790884864"
      ]
    },
    {
      "x": 239,
      "y": 343,
      "size": 1,
      "price": "4683000000000000000000",
      "reserved": "",
      "salt": "0x13f1d25fb8c3971ec872de1550ff75c45d11a5000f6662b2351b44dac3a3af51",
      "assetIds": [
        "55464657044963196816950587289035428064568320970692304673817341489687790884865",
        "55464657044963196816950587289035428064568320970692304673817341489687782494208",
        "55464657044963196816950587289035428064568320970692304673817341489687790884866",
        "55464657044963196816950587289035428064568320970692304673817341489687782494209",
        "55464657044963196816950587289035428064568320970692304673817341489687790884864"
      ]
    },
    {
      "x": 239,
      "y": 344,
      "size": 1,
      "price": "4683000000000000000000",
      "reserved": "",
      "salt": "0xeac2c12d828616c301947988eb1694e9520a1cc4c63ff57fe826247a75cfd9d2",
      "assetIds": [
        "55464657044963196816950587289035428064568320970692304673817341489687790884865",
        "55464657044963196816950587289035428064568320970692304673817341489687782494208",
        "55464657044963196816950587289035428064568320970692304673817341489687790884866",
        "55464657044963196816950587289035428064568320970692304673817341489687782494209",
        "55464657044963196816950587289035428064568320970692304673817341489687790884864"
      ]
    },
    {
      "x": 239,
      "y": 345,
      "size": 1,
      "price": "4683000000000000000000",
      "reserved": "",
      "salt": "0x4f3e9f84381b120409eed8ba386cc6a089235603ad0b79125064a851771a488b",
      "assetIds": [
        "55464657044963196816950587289035428064568320970692304673817341489687790884865",
        "55464657044963196816950587289035428064568320970692304673817341489687782494208",
        "55464657044963196816950587289035428064568320970692304673817341489687790884866",
        "55464657044963196816950587289035428064568320970692304673817341489687782494209",
        "55464657044963196816950587289035428064568320970692304673817341489687790884864"
      ]
    },
    {
      "x": 239,
      "y": 346,
      "size": 1,
      "price": "4683000000000000000000",
      "reserved": "",
      "salt": "0x090b6cadf010acb79247cfba5922eb6cab974e490e8e246b4a9ac3d7173c2379",
      "assetIds": [
        "55464657044963196816950587289035428064568320970692304673817341489687790884865",
        "55464657044963196816950587289035428064568320970692304673817341489687782494208",
        "55464657044963196816950587289035428064568320970692304673817341489687790884866",
        "55464657044963196816950587289035428064568320970692304673817341489687782494209",
        "55464657044963196816950587289035428064568320970692304673817341489687790884864"
      ]
    },
    {
      "x": 239,
      "y": 347,
      "size": 1,
      "price": "4683000000000000000000",
      "reserved": "",
      "salt": "0x05044e572e67f8471021f1ce19676a1c218398e93a01927a3f1b7bb3e1429ba0",
      "assetIds": [
        "55464657044963196816950587289035428064568320970692304673817341489687790884865",
        "55464657044963196816950587289035428064568320970692304673817341489687782494208",
        "55464657044963196816950587289035428064568320970692304673817341489687790884866",
        "55464657044963196816950587289035428064568320970692304673817341489687782494209",
        "55464657044963196816950587289035428064568320970692304673817341489687790884864"
      ]
    },
    {
      "x": 239,
      "y": 348,
      "size": 1,
      "price": "4683000000000000000000",
      "reserved": "",
      "salt": "0x80e39258f4ff7314b2b711255e94164ce3e7848d11f92de0ef8d5949360f6e04",
      "assetIds": [
        "55464657044963196816950587289035428064568320970692304673817341489687790884865",
        "55464657044963196816950587289035428064568320970692304673817341489687782494208",
        "55464657044963196816950587289035428064568320970692304673817341489687790884866",
        "55464657044963196816950587289035428064568320970692304673817341489687782494209",
        "55464657044963196816950587289035428064568320970692304673817341489687790884864"
      ]
    },
    {
      "x": 239,
      "y": 349,
      "size": 1,
      "price": "4683000000000000000000",
      "reserved": "",
      "salt": "0x6e3ca94675149dfc436c549537d4e73d3fce6b4b73d8a2d5aa37bd274cd0bb3e",
      "assetIds": [
        "55464657044963196816950587289035428064568320970692304673817341489687790884865",
        "55464657044963196816950587289035428064568320970692304673817341489687782494208",
        "55464657044963196816950587289035428064568320970692304673817341489687790884866",
        "55464657044963196816950587289035428064568320970692304673817341489687782494209",
        "55464657044963196816950587289035428064568320970692304673817341489687790884864"
      ]
    },
    {
      "x": 239,
      "y": 350,
      "size": 1,
      "price": "4683000000000000000000",
      "reserved": "",
      "salt": "0x1ccf22529e0f96bcb81786eac3881ebe07478f869410f5b89f35e668386a8342",
      "assetIds": [
        "55464657044963196816950587289035428064568320970692304673817341489687790884865",
        "55464657044963196816950587289035428064568320970692304673817341489687782494208",
        "55464657044963196816950587289035428064568320970692304673817341489687790884866",
        "55464657044963196816950587289035428064568320970692304673817341489687782494209",
        "55464657044963196816950587289035428064568320970692304673817341489687790884864"
      ]
    },
    {
      "x": 239,
      "y": 354,
      "size": 1,
      "price": "4683000000000000000000",
      "reserved": "",
      "salt": "0x9c9aa66a5b562697483b82386e15d70a48de0ff1f4b8626ca341cb15e888059a",
      "assetIds": [
        "55464657044963196816950587289035428064568320970692304673817341489687790884865",
        "55464657044963196816950587289035428064568320970692304673817341489687782494208",
        "55464657044963196816950587289035428064568320970692304673817341489687790884866",
        "55464657044963196816950587289035428064568320970692304673817341489687782494209",
        "55464657044963196816950587289035428064568320970692304673817341489687790884864"
      ]
    },
    {
      "x": 239,
      "y": 355,
      "size": 1,
      "price": "1011000000000000000000",
      "reserved": "0x7a9fe22691c811ea339d9b73150e6911a5343dca",
      "salt": "0x6805b83e07607101b13f65a0fa368e35b75c9907eeb6338fe14b105b5038ebb1",
      "assetIds": []
    },
    {
      "x": 239,
      "y": 356,
      "size": 1,
      "price": "4683000000000000000000",
      "reserved": "",
      "salt": "0xb189c4d833f2f838ac92178461d511ed033e86d738dfac0c0224260edd77e4d5",
      "assetIds": [
        "55464657044963196816950587289035428064568320970692304673817341489687790884865",
        "55464657044963196816950587289035428064568320970692304673817341489687782494208",
        "55464657044963196816950587289035428064568320970692304673817341489687790884866",
        "55464657044963196816950587289035428064568320970692304673817341489687782494209",
        "55464657044963196816950587289035428064568320970692304673817341489687790884864"
      ]
    },
    {
      "x": 239,
      "y": 357,
      "size": 1,
      "price": "4683000000000000000000",
      "reserved": "",
      "salt": "0xb51f14f422e16b337739951d800c078ccf80937ea8f4ec482b0bc795fda60f70",
      "assetIds": [
        "55464657044963196816950587289035428064568320970692304673817341489687790884865",
        "55464657044963196816950587289035428064568320970692304673817341489687782494208",
        "55464657044963196816950587289035428064568320970692304673817341489687790884866",
        "55464657044963196816950587289035428064568320970692304673817341489687782494209",
        "55464657044963196816950587289035428064568320970692304673817341489687790884864"
      ]
    },
    {
      "x": 240,
      "y": 318,
      "size": 1,
      "price": "1011000000000000000000",
      "reserved": "",
      "salt": "0xeb5deec563340a6c91b5856d2ed52d12e795e4cc718d96351f18db4928f5d5d6",
      "assetIds": []
    },
    {
      "x": 240,
      "y": 319,
      "size": 1,
      "price": "1011000000000000000000",
      "reserved": "",
      "salt": "0x454cba85085dfc3f2235c3f1f0cd339ee36db15cad6398c85b2aa826548e316d",
      "assetIds": []
    },
    {
      "x": 240,
      "y": 320,
      "size": 1,
      "price": "1011000000000000000000",
      "reserved": "",
      "salt": "0xf3825158dbd34dfc1d45b1ddf1c8ff000d2b19250579c8e88c66b2a730cc0880",
      "assetIds": []
    },
    {
      "x": 240,
      "y": 321,
      "size": 1,
      "price": "1011000000000000000000",
      "reserved": "",
      "salt": "0x7bb472312cac8e026ddb4166a3ef479c73fcfdbc00c158ea370006a1fe7a7540",
      "assetIds": []
    },
    {
      "x": 240,
      "y": 322,
      "size": 1,
      "price": "1011000000000000000000",
      "reserved": "",
      "salt": "0x76efbab363498fa50eaa6a1891a7a2ccb4f0f791b4cab3a45c4007299cad8c2e",
      "assetIds": []
    },
    {
      "x": 240,
      "y": 323,
      "size": 1,
      "price": "1011000000000000000000",
      "reserved": "",
      "salt": "0xb0e0d7114e7e936985b4def2bf3fe8001139ad3e88304e7dd9f76b39f71074f8",
      "assetIds": []
    },
    {
      "x": 240,
      "y": 324,
      "size": 1,
      "price": "1011000000000000000000",
      "reserved": "",
      "salt": "0x954089213f1f270211b66ba2e902d036027c5bd35b6be5018614ce97c9453823",
      "assetIds": []
    },
    {
      "x": 240,
      "y": 325,
      "size": 1,
      "price": "1011000000000000000000",
      "reserved": "",
      "salt": "0x2f8b6a13353f473808ef104d7da2d53e1ced5cc5d781b218834ebf5ba903b709",
      "assetIds": []
    },
    {
      "x": 240,
      "y": 326,
      "size": 1,
      "price": "4683000000000000000000",
      "reserved": "",
      "salt": "0x09cfc502589a2253d1b0d560d4f9af1412e3dfdbc655615e096ddba5a5ef06c1",
      "assetIds": [
        "55464657044963196816950587289035428064568320970692304673817341489687790884865",
        "55464657044963196816950587289035428064568320970692304673817341489687782494208",
        "55464657044963196816950587289035428064568320970692304673817341489687790884866",
        "55464657044963196816950587289035428064568320970692304673817341489687782494209",
        "55464657044963196816950587289035428064568320970692304673817341489687790884864"
      ]
    },
    {
      "x": 240,
      "y": 333,
      "size": 1,
      "price": "4683000000000000000000",
      "reserved": "",
      "salt": "0x139d7e2ec7b259054ab3f16d4037ff26399bcee6861d488ae0347d63412b4687",
      "assetIds": [
        "55464657044963196816950587289035428064568320970692304673817341489687790884865",
        "55464657044963196816950587289035428064568320970692304673817341489687782494208",
        "55464657044963196816950587289035428064568320970692304673817341489687790884866",
        "55464657044963196816950587289035428064568320970692304673817341489687782494209",
        "55464657044963196816950587289035428064568320970692304673817341489687790884864"
      ]
    },
    {
      "x": 240,
      "y": 334,
      "size": 1,
      "price": "4683000000000000000000",
      "reserved": "",
      "salt": "0x62662df4f4e468d336ce27f6bbdf0537e295a6326f75bdb34291d383739aa265",
      "assetIds": [
        "55464657044963196816950587289035428064568320970692304673817341489687790884865",
        "55464657044963196816950587289035428064568320970692304673817341489687782494208",
        "55464657044963196816950587289035428064568320970692304673817341489687790884866",
        "55464657044963196816950587289035428064568320970692304673817341489687782494209",
        "55464657044963196816950587289035428064568320970692304673817341489687790884864"
      ]
    },
    {
      "x": 240,
      "y": 335,
      "size": 1,
      "price": "4683000000000000000000",
      "reserved": "",
      "salt": "0xab7b9774419e1637844666802067d56454d7c910df6be8839d8e329e0799d8f6",
      "assetIds": [
        "55464657044963196816950587289035428064568320970692304673817341489687790884865",
        "55464657044963196816950587289035428064568320970692304673817341489687782494208",
        "55464657044963196816950587289035428064568320970692304673817341489687790884866",
        "55464657044963196816950587289035428064568320970692304673817341489687782494209",
        "55464657044963196816950587289035428064568320970692304673817341489687790884864"
      ]
    },
    {
      "x": 241,
      "y": 318,
      "size": 1,
      "price": "1011000000000000000000",
      "reserved": "",
      "salt": "0x79b4c3296d94cf929098b34c59197c9e3b9c29b4a456501d8fa703d145a27dc2",
      "assetIds": []
    },
    {
      "x": 241,
      "y": 319,
      "size": 1,
      "price": "1011000000000000000000",
      "reserved": "",
      "salt": "0x8e2ea4e660cbbdd6b54793c9abc03667ff4aa507b9171b993dd35bc4079aad8a",
      "assetIds": []
    },
    {
      "x": 241,
      "y": 320,
      "size": 1,
      "price": "1011000000000000000000",
      "reserved": "",
      "salt": "0x8b2d03cbafafa5fd52b57b3ce13119b157f192e13e2e17633f478882cc50d008",
      "assetIds": []
    },
    {
      "x": 241,
      "y": 321,
      "size": 1,
      "price": "1011000000000000000000",
      "reserved": "0x7a9fe22691c811ea339d9b73150e6911a5343dca",
      "salt": "0xf43e8e4836fcde01c149c7a8726ce1c4c9d14d5c23043c0ccd307d832aa34838",
      "assetIds": []
    },
    {
      "x": 241,
      "y": 322,
      "size": 1,
      "price": "1011000000000000000000",
      "reserved": "",
      "salt": "0x33ea4b5024466394b55a3d3dbc287f6dae11d8ad3d13d7fffadf965575ba99cd",
      "assetIds": []
    },
    {
      "x": 241,
      "y": 323,
      "size": 1,
      "price": "1011000000000000000000",
      "reserved": "",
      "salt": "0xa2efb35632e75e652d89a9ed42b56d32d33cbeb21d9fd659305eef8c0aff1382",
      "assetIds": []
    },
    {
      "x": 241,
      "y": 324,
      "size": 1,
      "price": "1011000000000000000000",
      "reserved": "",
      "salt": "0x0a5c77cfb728b4620beadd4c6f3fd4c1082dbc3e961780b800b53259f88c6b8d",
      "assetIds": []
    },
    {
      "x": 241,
      "y": 325,
      "size": 1,
      "price": "1011000000000000000000",
      "reserved": "",
      "salt": "0xa6c51ad88de9536bfaf271df3eb0086a588a6e7e7520601e75a76862a1fad81e",
      "assetIds": []
    },
    {
      "x": 241,
      "y": 326,
      "size": 1,
      "price": "4683000000000000000000",
      "reserved": "",
      "salt": "0x919afb2cb9e004ed6370d7922229a19ce4e9fca412309ca2fa3a7da50d0dbcd2",
      "assetIds": [
        "55464657044963196816950587289035428064568320970692304673817341489687790884865",
        "55464657044963196816950587289035428064568320970692304673817341489687782494208",
        "55464657044963196816950587289035428064568320970692304673817341489687790884866",
        "55464657044963196816950587289035428064568320970692304673817341489687782494209",
        "55464657044963196816950587289035428064568320970692304673817341489687790884864"
      ]
    },
    {
      "x": 241,
      "y": 333,
      "size": 1,
      "price": "4683000000000000000000",
      "reserved": "",
      "salt": "0xfd25ae996f5d58ce9f611f8040789903d2e75485ffcbbf1506200b4a2a823af8",
      "assetIds": [
        "55464657044963196816950587289035428064568320970692304673817341489687790884865",
        "55464657044963196816950587289035428064568320970692304673817341489687782494208",
        "55464657044963196816950587289035428064568320970692304673817341489687790884866",
        "55464657044963196816950587289035428064568320970692304673817341489687782494209",
        "55464657044963196816950587289035428064568320970692304673817341489687790884864"
      ]
    },
    {
      "x": 241,
      "y": 334,
      "size": 1,
      "price": "4683000000000000000000",
      "reserved": "",
      "salt": "0x130346091a368f311cc9bb705392282898bed7503862096b200312a5df51eb86",
      "assetIds": [
        "55464657044963196816950587289035428064568320970692304673817341489687790884865",
        "55464657044963196816950587289035428064568320970692304673817341489687782494208",
        "55464657044963196816950587289035428064568320970692304673817341489687790884866",
        "55464657044963196816950587289035428064568320970692304673817341489687782494209",
        "55464657044963196816950587289035428064568320970692304673817341489687790884864"
      ]
    },
    {
      "x": 241,
      "y": 335,
      "size": 1,
      "price": "4683000000000000000000",
      "reserved": "",
      "salt": "0x4568fa0e9c2985f49becf314b3221b0889c6431ffc588852e9eab057c41e3b42",
      "assetIds": [
        "55464657044963196816950587289035428064568320970692304673817341489687790884865",
        "55464657044963196816950587289035428064568320970692304673817341489687782494208",
        "55464657044963196816950587289035428064568320970692304673817341489687790884866",
        "55464657044963196816950587289035428064568320970692304673817341489687782494209",
        "55464657044963196816950587289035428064568320970692304673817341489687790884864"
      ]
    },
    {
      "x": 242,
      "y": 318,
      "size": 1,
      "price": "1011000000000000000000",
      "reserved": "0x7a9fe22691c811ea339d9b73150e6911a5343dca",
      "salt": "0x3901215ee6ef26c88a218fee55711e5cd8affe8dc69fc039a428fdee548e77d8",
      "assetIds": []
    },
    {
      "x": 242,
      "y": 319,
      "size": 1,
      "price": "1011000000000000000000",
      "reserved": "",
      "salt": "0x7664e8a1218de77f7a0d656150bb5295ede4df489d1b9bcbb9a8d55d5101f6f7",
      "assetIds": []
    },
    {
      "x": 242,
      "y": 320,
      "size": 1,
      "price": "1011000000000000000000",
      "reserved": "",
      "salt": "0x5c5b9548bd93afc7c02df5a1fc9a3085b96e9aa59725b65b166ae92252c28a47",
      "assetIds": []
    },
    {
      "x": 242,
      "y": 321,
      "size": 1,
      "price": "1011000000000000000000",
      "reserved": "",
      "salt": "0x9088ca53828d374025894ce3988ebe982f7b1c3e7bd9092b6813193bfedc38c9",
      "assetIds": []
    },
    {
      "x": 242,
      "y": 322,
      "size": 1,
      "price": "1011000000000000000000",
      "reserved": "",
      "salt": "0xca371ae593cb167a31f4e808fe2fbc8edafcd77c452ba18795753cbe9823a5ba",
      "assetIds": []
    },
    {
      "x": 242,
      "y": 323,
      "size": 1,
      "price": "1011000000000000000000",
      "reserved": "",
      "salt": "0x5dbc75a7ab0e65034a3a3640bfec977d58c30e29b0fbc18cf454ab258880a690",
      "assetIds": []
    },
    {
      "x": 242,
      "y": 324,
      "size": 1,
      "price": "1011000000000000000000",
      "reserved": "",
      "salt": "0xb8de514c4870dc7406cc7216d4b4d248d067d0927d57eaa0ecec46b14c325e4c",
      "assetIds": []
    },
    {
      "x": 242,
      "y": 325,
      "size": 1,
      "price": "1011000000000000000000",
      "reserved": "0x7a9fe22691c811ea339d9b73150e6911a5343dca",
      "salt": "0xcc418aae4c6f5e8bc256d3086b4f5f45c7c11773ac4b065a533708db2767bf5b",
      "assetIds": []
    },
    {
      "x": 242,
      "y": 326,
      "size": 1,
      "price": "4683000000000000000000",
      "reserved": "",
      "salt": "0xfef53c735107ba5101bf945eb4fcc6a736cf0c0eb78d86fee5516f661aa9b464",
      "assetIds": [
        "55464657044963196816950587289035428064568320970692304673817341489687790884865",
        "55464657044963196816950587289035428064568320970692304673817341489687782494208",
        "55464657044963196816950587289035428064568320970692304673817341489687790884866",
        "55464657044963196816950587289035428064568320970692304673817341489687782494209",
        "55464657044963196816950587289035428064568320970692304673817341489687790884864"
      ]
    },
    {
      "x": 242,
      "y": 333,
      "size": 1,
      "price": "4683000000000000000000",
      "reserved": "",
      "salt": "0x63e8fcc1ebc9b369e4995b760d75b5a82b57cb25740c88a5c77367f0a1e6a506",
      "assetIds": [
        "55464657044963196816950587289035428064568320970692304673817341489687790884865",
        "55464657044963196816950587289035428064568320970692304673817341489687782494208",
        "55464657044963196816950587289035428064568320970692304673817341489687790884866",
        "55464657044963196816950587289035428064568320970692304673817341489687782494209",
        "55464657044963196816950587289035428064568320970692304673817341489687790884864"
      ]
    },
    {
      "x": 242,
      "y": 334,
      "size": 1,
      "price": "4683000000000000000000",
      "reserved": "",
      "salt": "0x689ae54baa20cfcc66eaa8d547719a24e94cf2f2536b1dc7b15418e8c69322ac",
      "assetIds": [
        "55464657044963196816950587289035428064568320970692304673817341489687790884865",
        "55464657044963196816950587289035428064568320970692304673817341489687782494208",
        "55464657044963196816950587289035428064568320970692304673817341489687790884866",
        "55464657044963196816950587289035428064568320970692304673817341489687782494209",
        "55464657044963196816950587289035428064568320970692304673817341489687790884864"
      ]
    },
    {
      "x": 242,
      "y": 335,
      "size": 1,
      "price": "4683000000000000000000",
      "reserved": "",
      "salt": "0xc53d8e92bcf04e81920709f9a0b34fc922587341f29d6dea5830630a7ba0a099",
      "assetIds": [
        "55464657044963196816950587289035428064568320970692304673817341489687790884865",
        "55464657044963196816950587289035428064568320970692304673817341489687782494208",
        "55464657044963196816950587289035428064568320970692304673817341489687790884866",
        "55464657044963196816950587289035428064568320970692304673817341489687782494209",
        "55464657044963196816950587289035428064568320970692304673817341489687790884864"
      ]
    },
    {
      "x": 243,
      "y": 318,
      "size": 1,
      "price": "1011000000000000000000",
      "reserved": "0x7a9fe22691c811ea339d9b73150e6911a5343dca",
      "salt": "0x7fc37856fc2f6dcfbf509f5a3c896a8e04ca92de65ab653c982cfa0e1e2c6b53",
      "assetIds": []
    },
    {
      "x": 243,
      "y": 319,
      "size": 1,
      "price": "1011000000000000000000",
      "reserved": "",
      "salt": "0x9b899813a24f60e667f6e8f23f5cf591899cdac116eff2319bae6c14bd718c92",
      "assetIds": []
    },
    {
      "x": 243,
      "y": 320,
      "size": 1,
      "price": "1011000000000000000000",
      "reserved": "",
      "salt": "0x168506362ebeaa7f5d0623e809822e445e4551b45e98d0e6a5618357b8f8dcc2",
      "assetIds": []
    },
    {
      "x": 243,
      "y": 321,
      "size": 1,
      "price": "1011000000000000000000",
      "reserved": "",
      "salt": "0x107c0e67f9e6defca28e202d7043aae0848dd9feb8b4030004e9495a59fadd39",
      "assetIds": []
    },
    {
      "x": 243,
      "y": 322,
      "size": 1,
      "price": "1011000000000000000000",
      "reserved": "",
      "salt": "0xfd222376944227cfb1122bd6d06ff38cb39e3ba52972944de315e9859809fcb9",
      "assetIds": []
    },
    {
      "x": 243,
      "y": 323,
      "size": 1,
      "price": "1011000000000000000000",
      "reserved": "",
      "salt": "0x2c14326f58f6364dde6666aceb6a730f815b529f587d9cd66eb8302c19b60718",
      "assetIds": []
    },
    {
      "x": 243,
      "y": 324,
      "size": 1,
      "price": "1011000000000000000000",
      "reserved": "0x7a9fe22691c811ea339d9b73150e6911a5343dca",
      "salt": "0xd5b56141dfc584af3ca7b0fccda71948bc5f6b2fad714df1f1f665ca1e538f91",
      "assetIds": []
    },
    {
      "x": 243,
      "y": 325,
      "size": 1,
      "price": "1011000000000000000000",
      "reserved": "",
      "salt": "0x7787c2c0af8662412208572ea4394de07249ff462ccb4d3577a0e0849a35944a",
      "assetIds": []
    },
    {
      "x": 243,
      "y": 326,
      "size": 1,
      "price": "1011000000000000000000",
      "reserved": "",
      "salt": "0x1bbd42515eddc41bd43ea149059a596ff8cef9afaff2664ff921d7c4e376d903",
      "assetIds": []
    },
    {
      "x": 243,
      "y": 327,
      "size": 1,
      "price": "4683000000000000000000",
      "reserved": "",
      "salt": "0xcf89c6b372b29afbd3a4d97b30d36aa8050ff3b0755ef9d6cf881b8edb5b13b8",
      "assetIds": [
        "55464657044963196816950587289035428064568320970692304673817341489687790884865",
        "55464657044963196816950587289035428064568320970692304673817341489687782494208",
        "55464657044963196816950587289035428064568320970692304673817341489687790884866",
        "55464657044963196816950587289035428064568320970692304673817341489687782494209",
        "55464657044963196816950587289035428064568320970692304673817341489687790884864"
      ]
    },
    {
      "x": 243,
      "y": 328,
      "size": 1,
      "price": "4683000000000000000000",
      "reserved": "",
      "salt": "0x4b2f3e82d3dc8fd6764ae355550550928385e2ec56922f68328c5b5d195a7413",
      "assetIds": [
        "55464657044963196816950587289035428064568320970692304673817341489687790884865",
        "55464657044963196816950587289035428064568320970692304673817341489687782494208",
        "55464657044963196816950587289035428064568320970692304673817341489687790884866",
        "55464657044963196816950587289035428064568320970692304673817341489687782494209",
        "55464657044963196816950587289035428064568320970692304673817341489687790884864"
      ]
    },
    {
      "x": 243,
      "y": 329,
      "size": 1,
      "price": "4683000000000000000000",
      "reserved": "",
      "salt": "0xd4f97be6a8cb1e1bc315ca81d6072662770c22ac1d5b6964b720b1ac0388633a",
      "assetIds": [
        "55464657044963196816950587289035428064568320970692304673817341489687790884865",
        "55464657044963196816950587289035428064568320970692304673817341489687782494208",
        "55464657044963196816950587289035428064568320970692304673817341489687790884866",
        "55464657044963196816950587289035428064568320970692304673817341489687782494209",
        "55464657044963196816950587289035428064568320970692304673817341489687790884864"
      ]
    },
    {
      "x": 243,
      "y": 330,
      "size": 1,
      "price": "4683000000000000000000",
      "reserved": "",
      "salt": "0xcded72b0429f248d803e043fd4de8f71f7626885d57ea6de3a2510ca1c9c3c73",
      "assetIds": [
        "55464657044963196816950587289035428064568320970692304673817341489687790884865",
        "55464657044963196816950587289035428064568320970692304673817341489687782494208",
        "55464657044963196816950587289035428064568320970692304673817341489687790884866",
        "55464657044963196816950587289035428064568320970692304673817341489687782494209",
        "55464657044963196816950587289035428064568320970692304673817341489687790884864"
      ]
    },
    {
      "x": 243,
      "y": 331,
      "size": 1,
      "price": "4683000000000000000000",
      "reserved": "",
      "salt": "0xfad46bac2c235aceea9413e7972faaae730921af1cdced1afea7dc372d885a1c",
      "assetIds": [
        "55464657044963196816950587289035428064568320970692304673817341489687790884865",
        "55464657044963196816950587289035428064568320970692304673817341489687782494208",
        "55464657044963196816950587289035428064568320970692304673817341489687790884866",
        "55464657044963196816950587289035428064568320970692304673817341489687782494209",
        "55464657044963196816950587289035428064568320970692304673817341489687790884864"
      ]
    },
    {
      "x": 243,
      "y": 332,
      "size": 1,
      "price": "4683000000000000000000",
      "reserved": "",
      "salt": "0x7d2f14b4caef3fe59aa1e0456c0ddd71a80d978bc44a1c149bcaf36fb8565b15",
      "assetIds": [
        "55464657044963196816950587289035428064568320970692304673817341489687790884865",
        "55464657044963196816950587289035428064568320970692304673817341489687782494208",
        "55464657044963196816950587289035428064568320970692304673817341489687790884866",
        "55464657044963196816950587289035428064568320970692304673817341489687782494209",
        "55464657044963196816950587289035428064568320970692304673817341489687790884864"
      ]
    },
    {
      "x": 243,
      "y": 333,
      "size": 1,
      "price": "4683000000000000000000",
      "reserved": "",
      "salt": "0xac84f67af4c552a4bdedbc3c66e20072127293047cd3b0b06f3128a28931694f",
      "assetIds": [
        "55464657044963196816950587289035428064568320970692304673817341489687790884865",
        "55464657044963196816950587289035428064568320970692304673817341489687782494208",
        "55464657044963196816950587289035428064568320970692304673817341489687790884866",
        "55464657044963196816950587289035428064568320970692304673817341489687782494209",
        "55464657044963196816950587289035428064568320970692304673817341489687790884864"
      ]
    },
    {
      "x": 243,
      "y": 334,
      "size": 1,
      "price": "4683000000000000000000",
      "reserved": "",
      "salt": "0x4fb92c60625d9536101937afd948c9d54368b141faa0f29e65df49e0551c2a59",
      "assetIds": [
        "55464657044963196816950587289035428064568320970692304673817341489687790884865",
        "55464657044963196816950587289035428064568320970692304673817341489687782494208",
        "55464657044963196816950587289035428064568320970692304673817341489687790884866",
        "55464657044963196816950587289035428064568320970692304673817341489687782494209",
        "55464657044963196816950587289035428064568320970692304673817341489687790884864"
      ]
    },
    {
      "x": 243,
      "y": 335,
      "size": 1,
      "price": "4683000000000000000000",
      "reserved": "",
      "salt": "0xcdf43fcae0466be2a7ff5bece5398ab91d5ec8792c7b9726cf3c4d21647020e6",
      "assetIds": [
        "55464657044963196816950587289035428064568320970692304673817341489687790884865",
        "55464657044963196816950587289035428064568320970692304673817341489687782494208",
        "55464657044963196816950587289035428064568320970692304673817341489687790884866",
        "55464657044963196816950587289035428064568320970692304673817341489687782494209",
        "55464657044963196816950587289035428064568320970692304673817341489687790884864"
      ]
    },
    {
      "x": 244,
      "y": 318,
      "size": 1,
      "price": "1011000000000000000000",
      "reserved": "",
      "salt": "0x09e57808ab0ef56adc95a804bf0018e0fbc7f1578cf27cf952f102d0eacd4a74",
      "assetIds": []
    },
    {
      "x": 244,
      "y": 319,
      "size": 1,
      "price": "1011000000000000000000",
      "reserved": "",
      "salt": "0x49f4d0ece1b42dce14dc166e85aa0bbe7ab8c7b9159fe72e273294f1d3f06ace",
      "assetIds": []
    },
    {
      "x": 244,
      "y": 320,
      "size": 1,
      "price": "1011000000000000000000",
      "reserved": "",
      "salt": "0x0a31c36d42ac95f5b5217d1aaad31fad7bf6d3fb3c0de7824c5788ebdf5f4d62",
      "assetIds": []
    },
    {
      "x": 244,
      "y": 321,
      "size": 1,
      "price": "1011000000000000000000",
      "reserved": "",
      "salt": "0xdff4f6d97c9d829f123daad8f4b568a80a7d4c12b34190b0001c6f0d5f874807",
      "assetIds": []
    },
    {
      "x": 244,
      "y": 322,
      "size": 1,
      "price": "1011000000000000000000",
      "reserved": "",
      "salt": "0x3971220b1b1649afa9e946bd7b66589faf1670f1dc5bba0a48b6aebc0dce0d05",
      "assetIds": []
    },
    {
      "x": 244,
      "y": 323,
      "size": 1,
      "price": "1011000000000000000000",
      "reserved": "0x7a9fe22691c811ea339d9b73150e6911a5343dca",
      "salt": "0x578f42e01fbabff4fb046f8c17a65e0e0b78bd7c93045d15b1b6fbfa32b9c757",
      "assetIds": []
    },
    {
      "x": 244,
      "y": 324,
      "size": 1,
      "price": "1011000000000000000000",
      "reserved": "",
      "salt": "0xe01dc3dd9f9515d9a77175bcb832d7419647f23a7159e7af87176c753406b6a9",
      "assetIds": []
    },
    {
      "x": 244,
      "y": 325,
      "size": 1,
      "price": "1011000000000000000000",
      "reserved": "",
      "salt": "0x441910b7656544dfeff585239f2326d5dc64f0034bbc2e52d9887b0383b55b8b",
      "assetIds": []
    },
    {
      "x": 244,
      "y": 326,
      "size": 1,
      "price": "1011000000000000000000",
      "reserved": "",
      "salt": "0x8d3870671c1472e47b6a3c9c038fb5d4a3badeba9645eec9705e08bc8cfae8bf",
      "assetIds": []
    },
    {
      "x": 244,
      "y": 327,
      "size": 1,
      "price": "1011000000000000000000",
      "reserved": "",
      "salt": "0x2963cc86e908fc423457cf578ef4b42e1a683929c0ce38b75814304db9d660b2",
      "assetIds": []
    },
    {
      "x": 244,
      "y": 328,
      "size": 1,
      "price": "1011000000000000000000",
      "reserved": "",
      "salt": "0xb4d1dcdc534c86699257ff57dcbf221aa953a15db316fc29125a93ceb16b1e45",
      "assetIds": []
    },
    {
      "x": 244,
      "y": 329,
      "size": 1,
      "price": "4683000000000000000000",
      "reserved": "",
      "salt": "0x0908efbe193ce8f6885255fcd5e039636ff56cbc6cec9a496d894411e6f9539f",
      "assetIds": [
        "55464657044963196816950587289035428064568320970692304673817341489687790884865",
        "55464657044963196816950587289035428064568320970692304673817341489687782494208",
        "55464657044963196816950587289035428064568320970692304673817341489687790884866",
        "55464657044963196816950587289035428064568320970692304673817341489687782494209",
        "55464657044963196816950587289035428064568320970692304673817341489687790884864"
      ]
    },
    {
      "x": 244,
      "y": 330,
      "size": 1,
      "price": "4683000000000000000000",
      "reserved": "",
      "salt": "0x41d097975dc331506c0a27848ab54b37abba075b6deed6f23ddad872403f7d64",
      "assetIds": [
        "55464657044963196816950587289035428064568320970692304673817341489687790884865",
        "55464657044963196816950587289035428064568320970692304673817341489687782494208",
        "55464657044963196816950587289035428064568320970692304673817341489687790884866",
        "55464657044963196816950587289035428064568320970692304673817341489687782494209",
        "55464657044963196816950587289035428064568320970692304673817341489687790884864"
      ]
    },
    {
      "x": 244,
      "y": 331,
      "size": 1,
      "price": "1011000000000000000000",
      "reserved": "0x7a9fe22691c811ea339d9b73150e6911a5343dca",
      "salt": "0xc707183d6a7ad918cf1868fc962f5713a744b3dcaa983863bde8a8efe3f52804",
      "assetIds": []
    },
    {
      "x": 244,
      "y": 332,
      "size": 1,
      "price": "4683000000000000000000",
      "reserved": "",
      "salt": "0xd7265d997219883da5c953cc11e254671eb660ca58b2ca344a7cd33fe4312547",
      "assetIds": [
        "55464657044963196816950587289035428064568320970692304673817341489687790884865",
        "55464657044963196816950587289035428064568320970692304673817341489687782494208",
        "55464657044963196816950587289035428064568320970692304673817341489687790884866",
        "55464657044963196816950587289035428064568320970692304673817341489687782494209",
        "55464657044963196816950587289035428064568320970692304673817341489687790884864"
      ]
    },
    {
      "x": 244,
      "y": 333,
      "size": 1,
      "price": "4683000000000000000000",
      "reserved": "",
      "salt": "0x36ee0955ae4c481cdeb6a2eaecc78ffcb51b03d248d9affa280131136d3c35ed",
      "assetIds": [
        "55464657044963196816950587289035428064568320970692304673817341489687790884865",
        "55464657044963196816950587289035428064568320970692304673817341489687782494208",
        "55464657044963196816950587289035428064568320970692304673817341489687790884866",
        "55464657044963196816950587289035428064568320970692304673817341489687782494209",
        "55464657044963196816950587289035428064568320970692304673817341489687790884864"
      ]
    },
    {
      "x": 244,
      "y": 334,
      "size": 1,
      "price": "4683000000000000000000",
      "reserved": "",
      "salt": "0x57f961d086a500e20230ec99fc9fa56a4e83dbcaeb99665f72b8656e01851286",
      "assetIds": [
        "55464657044963196816950587289035428064568320970692304673817341489687790884865",
        "55464657044963196816950587289035428064568320970692304673817341489687782494208",
        "55464657044963196816950587289035428064568320970692304673817341489687790884866",
        "55464657044963196816950587289035428064568320970692304673817341489687782494209",
        "55464657044963196816950587289035428064568320970692304673817341489687790884864"
      ]
    },
    {
      "x": 244,
      "y": 335,
      "size": 1,
      "price": "4683000000000000000000",
      "reserved": "",
      "salt": "0xb4c7119ce0cb0e6336ac3aa9e9cef951f91c7654b442023b3244f49041e81acd",
      "assetIds": [
        "55464657044963196816950587289035428064568320970692304673817341489687790884865",
        "55464657044963196816950587289035428064568320970692304673817341489687782494208",
        "55464657044963196816950587289035428064568320970692304673817341489687790884866",
        "55464657044963196816950587289035428064568320970692304673817341489687782494209",
        "55464657044963196816950587289035428064568320970692304673817341489687790884864"
      ]
    },
    {
      "x": 245,
      "y": 317,
      "size": 1,
      "price": "1011000000000000000000",
      "reserved": "0x7a9fe22691c811ea339d9b73150e6911a5343dca",
      "salt": "0x86f8919c77bda71506f10eeaa8ae838b49523160404c7c57ac7bf9b7e4163d8d",
      "assetIds": []
    },
    {
      "x": 245,
      "y": 318,
      "size": 1,
      "price": "1011000000000000000000",
      "reserved": "0x7a9fe22691c811ea339d9b73150e6911a5343dca",
      "salt": "0xa28a23ec81442b5c3b87631f2f074b30133600d327aad0682410ee10d84372f9",
      "assetIds": []
    },
    {
      "x": 245,
      "y": 319,
      "size": 1,
      "price": "1011000000000000000000",
      "reserved": "",
      "salt": "0xd46a2b5cdac2030b52c549da280fdd048e6512750fc6eb30e6940e6de6862cd3",
      "assetIds": []
    },
    {
      "x": 245,
      "y": 320,
      "size": 1,
      "price": "1011000000000000000000",
      "reserved": "",
      "salt": "0x191da85da99edbe157e228f482e5dd5e48ccfbe9e5b12b3a73c8b84fd61dbc04",
      "assetIds": []
    },
    {
      "x": 245,
      "y": 321,
      "size": 1,
      "price": "1011000000000000000000",
      "reserved": "",
      "salt": "0x9f014ad9d980ffd60368455a5fb623c17e077df4d9f868cf5c5166b8cefc9815",
      "assetIds": []
    },
    {
      "x": 245,
      "y": 322,
      "size": 1,
      "price": "1011000000000000000000",
      "reserved": "",
      "salt": "0x481db74f74cad300ef49ba213b5c76598db7cac2030a6f355f7c65473be3c1cf",
      "assetIds": []
    },
    {
      "x": 245,
      "y": 323,
      "size": 1,
      "price": "1011000000000000000000",
      "reserved": "",
      "salt": "0x1c87b602ade41feb693d8d26ae3ea7bc90e184cd40c6f90d62ce7351926c72b9",
      "assetIds": []
    },
    {
      "x": 245,
      "y": 324,
      "size": 1,
      "price": "1011000000000000000000",
      "reserved": "",
      "salt": "0x9818e0cbd97f4a85c0a35d97d88d4b78c6743e8644dbd4adddbe588ed5650036",
      "assetIds": []
    },
    {
      "x": 245,
      "y": 325,
      "size": 1,
      "price": "1011000000000000000000",
      "reserved": "",
      "salt": "0x6cfbea1d4289544a6709f0ab15f56c5263b0c607f9b4117b19f3a5b7d5553d5f",
      "assetIds": []
    },
    {
      "x": 245,
      "y": 326,
      "size": 1,
      "price": "1011000000000000000000",
      "reserved": "",
      "salt": "0x985298ca72a4ca2df585a04e787903e72416415ac6c18643590f1b4317a303ea",
      "assetIds": []
    },
    {
      "x": 245,
      "y": 327,
      "size": 1,
      "price": "1011000000000000000000",
      "reserved": "0x7a9fe22691c811ea339d9b73150e6911a5343dca",
      "salt": "0xb2ccc3d01c859595085309e77778de5ea9b0258f8a79dba5d7c68542817128a5",
      "assetIds": []
    },
    {
      "x": 245,
      "y": 328,
      "size": 1,
      "price": "1011000000000000000000",
      "reserved": "0x7a9fe22691c811ea339d9b73150e6911a5343dca",
      "salt": "0x20a652258c1f57f2d4778b7f31c894402a5830b51832afa2e1204f979659f4c2",
      "assetIds": []
    },
    {
      "x": 245,
      "y": 329,
      "size": 1,
      "price": "1011000000000000000000",
      "reserved": "",
      "salt": "0x7b09d05e50a7862d855673af2f83a251735e63c259b2caef96dda1f4be6cd8f9",
      "assetIds": []
    },
    {
      "x": 245,
      "y": 330,
      "size": 1,
      "price": "1011000000000000000000",
      "reserved": "",
      "salt": "0x684c36ac97651260b8e494bcc840e32f5ae6f3d31cac25c4197cc00315f7a7dd",
      "assetIds": []
    },
    {
      "x": 245,
      "y": 331,
      "size": 1,
      "price": "1011000000000000000000",
      "reserved": "",
      "salt": "0xbcde6e9be7359567c7c6092b313f9ccf8d6d1cefc2b6edc401bc7c46f6c86de7",
      "assetIds": []
    },
    {
      "x": 245,
      "y": 332,
      "size": 1,
      "price": "4683000000000000000000",
      "reserved": "",
      "salt": "0x6e6b815931459695e8bae458ac918187b8dd8d9888357e032d3deffd6c797067",
      "assetIds": [
        "55464657044963196816950587289035428064568320970692304673817341489687790884865",
        "55464657044963196816950587289035428064568320970692304673817341489687782494208",
        "55464657044963196816950587289035428064568320970692304673817341489687790884866",
        "55464657044963196816950587289035428064568320970692304673817341489687782494209",
        "55464657044963196816950587289035428064568320970692304673817341489687790884864"
      ]
    },
    {
      "x": 245,
      "y": 333,
      "size": 1,
      "price": "4683000000000000000000",
      "reserved": "",
      "salt": "0xb79c3b936395e886836e5616fa70251dac5c74280885d51407248ba2c8352078",
      "assetIds": [
        "55464657044963196816950587289035428064568320970692304673817341489687790884865",
        "55464657044963196816950587289035428064568320970692304673817341489687782494208",
        "55464657044963196816950587289035428064568320970692304673817341489687790884866",
        "55464657044963196816950587289035428064568320970692304673817341489687782494209",
        "55464657044963196816950587289035428064568320970692304673817341489687790884864"
      ]
    },
    {
      "x": 245,
      "y": 334,
      "size": 1,
      "price": "1011000000000000000000",
      "reserved": "0x7a9fe22691c811ea339d9b73150e6911a5343dca",
      "salt": "0xb3870bb155f15af61f18a23c6cf59b44a608e54b2a52fa08fb07b8392d5c5403",
      "assetIds": []
    },
    {
      "x": 245,
      "y": 335,
      "size": 1,
      "price": "4683000000000000000000",
      "reserved": "",
      "salt": "0x74795f5c3973dce443b523ffc20ecf0254f46ef9016a02babdd6f601db190593",
      "assetIds": [
        "55464657044963196816950587289035428064568320970692304673817341489687790884865",
        "55464657044963196816950587289035428064568320970692304673817341489687782494208",
        "55464657044963196816950587289035428064568320970692304673817341489687790884866",
        "55464657044963196816950587289035428064568320970692304673817341489687782494209",
        "55464657044963196816950587289035428064568320970692304673817341489687790884864"
      ]
    },
    {
      "x": 246,
      "y": 316,
      "size": 1,
      "price": "1011000000000000000000",
      "reserved": "",
      "salt": "0x6aaaec5f9f8a28d5d344f229186955c949ca4ca466142a7170f3d6485069230e",
      "assetIds": []
    },
    {
      "x": 246,
      "y": 317,
      "size": 1,
      "price": "1011000000000000000000",
      "reserved": "",
      "salt": "0xa5c82e422f7b65a8b006872ae29618e761a1d5e98d01306c74a38cf3621b43b1",
      "assetIds": []
    },
    {
      "x": 246,
      "y": 318,
      "size": 1,
      "price": "1011000000000000000000",
      "reserved": "",
      "salt": "0x367a7a525495c4f2e1fda8ac2c8c038eb3ebe62c403dc78e6dcfa085c2df51db",
      "assetIds": []
    },
    {
      "x": 246,
      "y": 319,
      "size": 1,
      "price": "1011000000000000000000",
      "reserved": "",
      "salt": "0x4e97ad01b8ebbbcf62edc1c8f941c58d386df9f5538e82da9f62b284da617bcb",
      "assetIds": []
    },
    {
      "x": 246,
      "y": 320,
      "size": 1,
      "price": "1011000000000000000000",
      "reserved": "",
      "salt": "0x29db36bae7e5bf392e2a91af4526f11be404ec3f6c08476bf828adcf69d8b389",
      "assetIds": []
    },
    {
      "x": 246,
      "y": 321,
      "size": 1,
      "price": "1011000000000000000000",
      "reserved": "",
      "salt": "0x480519c29a0dab04869366a3a4e4fa2bdbdd6eec71f5e148ddb815b1a3a332df",
      "assetIds": []
    },
    {
      "x": 246,
      "y": 322,
      "size": 1,
      "price": "1011000000000000000000",
      "reserved": "",
      "salt": "0x342aed7a40d0b5a7c27a3c1d7cf2ca6576594a7dbc4611d41704c2d337e4ad04",
      "assetIds": []
    },
    {
      "x": 246,
      "y": 323,
      "size": 1,
      "price": "1011000000000000000000",
      "reserved": "",
      "salt": "0xa6e1f0886686997b2d3d9f3113b1228ad03dc8d2a20cc005df1a28f8180601ba",
      "assetIds": []
    },
    {
      "x": 246,
      "y": 324,
      "size": 1,
      "price": "1011000000000000000000",
      "reserved": "",
      "salt": "0xd9d5199c35bf30ffcddcf02944b25a22f791326bff64c84d483af6deb0345561",
      "assetIds": []
    },
    {
      "x": 246,
      "y": 325,
      "size": 1,
      "price": "1011000000000000000000",
      "reserved": "",
      "salt": "0xd95cbea7baeebd49b9b51496cfab2a23b2fc90617add5498293bc322f97efd8d",
      "assetIds": []
    },
    {
      "x": 246,
      "y": 326,
      "size": 1,
      "price": "1011000000000000000000",
      "reserved": "",
      "salt": "0xb2f28d870da1c95530d82aaf379e532a0bf3b02d00228b1215422875bd0311a4",
      "assetIds": []
    },
    {
      "x": 246,
      "y": 327,
      "size": 1,
      "price": "1011000000000000000000",
      "reserved": "",
      "salt": "0x387505815786b37e0cbd2542d1dc441aa0f806961873b8896177198ea2fe0431",
      "assetIds": []
    },
    {
      "x": 246,
      "y": 328,
      "size": 1,
      "price": "1011000000000000000000",
      "reserved": "",
      "salt": "0x7b2e20719927eadf2be905736c6a0e02ec7670ced31f4a0a8e3acef2848b4ca8",
      "assetIds": []
    },
    {
      "x": 246,
      "y": 329,
      "size": 1,
      "price": "1011000000000000000000",
      "reserved": "0x7a9fe22691c811ea339d9b73150e6911a5343dca",
      "salt": "0xcb1b0eccf5502e4f40537c0246756a91d087a106c72245967b45aa0b67657c74",
      "assetIds": []
    },
    {
      "x": 246,
      "y": 330,
      "size": 1,
      "price": "1011000000000000000000",
      "reserved": "",
      "salt": "0x094e34f610261df393534ea407c1cfa9ffdfa7d212804c0538fee518bd351167",
      "assetIds": []
    },
    {
      "x": 246,
      "y": 331,
      "size": 1,
      "price": "4683000000000000000000",
      "reserved": "",
      "salt": "0xb6ca56ee755277a7dc7e44e8e7d1950773bcb7d2eca941136d21e88eaf50d55b",
      "assetIds": [
        "55464657044963196816950587289035428064568320970692304673817341489687790884865",
        "55464657044963196816950587289035428064568320970692304673817341489687782494208",
        "55464657044963196816950587289035428064568320970692304673817341489687790884866",
        "55464657044963196816950587289035428064568320970692304673817341489687782494209",
        "55464657044963196816950587289035428064568320970692304673817341489687790884864"
      ]
    },
    {
      "x": 246,
      "y": 332,
      "size": 1,
      "price": "4683000000000000000000",
      "reserved": "",
      "salt": "0xd75d1ce9d3de38e85a69b1851e936d5a84483d525f31289f4fe34c7b91bfebf1",
      "assetIds": [
        "55464657044963196816950587289035428064568320970692304673817341489687790884865",
        "55464657044963196816950587289035428064568320970692304673817341489687782494208",
        "55464657044963196816950587289035428064568320970692304673817341489687790884866",
        "55464657044963196816950587289035428064568320970692304673817341489687782494209",
        "55464657044963196816950587289035428064568320970692304673817341489687790884864"
      ]
    },
    {
      "x": 246,
      "y": 333,
      "size": 1,
      "price": "4683000000000000000000",
      "reserved": "",
      "salt": "0x49745547af352931d74d391ac58e3d283cfb8abd0feb976e4c754832592499f9",
      "assetIds": [
        "55464657044963196816950587289035428064568320970692304673817341489687790884865",
        "55464657044963196816950587289035428064568320970692304673817341489687782494208",
        "55464657044963196816950587289035428064568320970692304673817341489687790884866",
        "55464657044963196816950587289035428064568320970692304673817341489687782494209",
        "55464657044963196816950587289035428064568320970692304673817341489687790884864"
      ]
    },
    {
      "x": 246,
      "y": 334,
      "size": 1,
      "price": "4683000000000000000000",
      "reserved": "",
      "salt": "0x93c7a37436d2d75999269a49009dba29fab4c438f6273009613058e488af17c3",
      "assetIds": [
        "55464657044963196816950587289035428064568320970692304673817341489687790884865",
        "55464657044963196816950587289035428064568320970692304673817341489687782494208",
        "55464657044963196816950587289035428064568320970692304673817341489687790884866",
        "55464657044963196816950587289035428064568320970692304673817341489687782494209",
        "55464657044963196816950587289035428064568320970692304673817341489687790884864"
      ]
    },
    {
      "x": 246,
      "y": 335,
      "size": 1,
      "price": "4683000000000000000000",
      "reserved": "",
      "salt": "0x47acd19495f40b42e93da34b6227892a6858efd93d7bed201b08d9ea8bf65a17",
      "assetIds": [
        "55464657044963196816950587289035428064568320970692304673817341489687790884865",
        "55464657044963196816950587289035428064568320970692304673817341489687782494208",
        "55464657044963196816950587289035428064568320970692304673817341489687790884866",
        "55464657044963196816950587289035428064568320970692304673817341489687782494209",
        "55464657044963196816950587289035428064568320970692304673817341489687790884864"
      ]
    },
    {
      "x": 247,
      "y": 314,
      "size": 1,
      "price": "1011000000000000000000",
      "reserved": "0x7a9fe22691c811ea339d9b73150e6911a5343dca",
      "salt": "0x924dd61e80a67b2cf120cd25322cb481fb3b412508dd2665273e1ca78ba98395",
      "assetIds": []
    },
    {
      "x": 247,
      "y": 315,
      "size": 1,
      "price": "1011000000000000000000",
      "reserved": "",
      "salt": "0x12e0f75b309102ef246a0deb4fef68f7070225d5a622d83c8d94a8bdd2fc2609",
      "assetIds": []
    },
    {
      "x": 247,
      "y": 316,
      "size": 1,
      "price": "1011000000000000000000",
      "reserved": "",
      "salt": "0xb89c452ea5ff877d891a4d4874501d5606d551e91778cf3b34d880cb108da95c",
      "assetIds": []
    },
    {
      "x": 247,
      "y": 317,
      "size": 1,
      "price": "1011000000000000000000",
      "reserved": "",
      "salt": "0xa4031b68a0e9a5301876f8105ff61d6a9cde6c829455bac5199fa1f9089c6306",
      "assetIds": []
    },
    {
      "x": 247,
      "y": 318,
      "size": 1,
      "price": "1011000000000000000000",
      "reserved": "",
      "salt": "0x31c773d61897228d2760e7e55b32c4a56c6aa04f4f1d11d6266e0a658df4fe7e",
      "assetIds": []
    },
    {
      "x": 247,
      "y": 319,
      "size": 1,
      "price": "1011000000000000000000",
      "reserved": "",
      "salt": "0xd157243b378329bb69c7b6f88df31d124da0176c6fb5e916e84f5c6ff8de93e5",
      "assetIds": []
    },
    {
      "x": 247,
      "y": 320,
      "size": 1,
      "price": "1011000000000000000000",
      "reserved": "",
      "salt": "0x7aeeccae546b5d571289a275d9e06aef4583b37367c714ee944d1374b600fbfb",
      "assetIds": []
    },
    {
      "x": 247,
      "y": 321,
      "size": 1,
      "price": "1011000000000000000000",
      "reserved": "",
      "salt": "0x0703d0265945218218dee837852755924fb2744bed673a09cc722bf2bf3fb803",
      "assetIds": []
    },
    {
      "x": 247,
      "y": 322,
      "size": 1,
      "price": "1011000000000000000000",
      "reserved": "",
      "salt": "0x1fdc567ea936559f53d6f1390d624e561c5384a3e449e7425b7515b0b84ff995",
      "assetIds": []
    },
    {
      "x": 247,
      "y": 323,
      "size": 1,
      "price": "1011000000000000000000",
      "reserved": "0x7a9fe22691c811ea339d9b73150e6911a5343dca",
      "salt": "0x30f7390a6ea24b417910e32e836c0a271eca56028df65a3ebc2c992ebdb7d6fa",
      "assetIds": []
    },
    {
      "x": 247,
      "y": 324,
      "size": 1,
      "price": "1011000000000000000000",
      "reserved": "",
      "salt": "0xaf9268a67274cbad70cab938f7ef98c3c16b000dc5879f6128d0a347b8f93036",
      "assetIds": []
    },
    {
      "x": 247,
      "y": 325,
      "size": 1,
      "price": "1011000000000000000000",
      "reserved": "",
      "salt": "0xcf1fb2d3c8b136be9fb268bd9cc36228b44d9c6fea7b0683252ff5e89b901992",
      "assetIds": []
    },
    {
      "x": 247,
      "y": 326,
      "size": 1,
      "price": "1011000000000000000000",
      "reserved": "",
      "salt": "0x0945b1ab5e21bf6945d6445d0137b9e92ddb24ff7bffa37a416f55d377f30864",
      "assetIds": []
    },
    {
      "x": 247,
      "y": 327,
      "size": 1,
      "price": "1011000000000000000000",
      "reserved": "",
      "salt": "0xd488ab4fbe53492416d926579d8dfd321c2e8d3f7e7509265c01bcac55bf5e65",
      "assetIds": []
    },
    {
      "x": 247,
      "y": 328,
      "size": 1,
      "price": "1011000000000000000000",
      "reserved": "",
      "salt": "0x321c59965a3674b04da905cddaa327746eb1acce2d3130cc727bd6cc088f967d",
      "assetIds": []
    },
    {
      "x": 247,
      "y": 329,
      "size": 1,
      "price": "1011000000000000000000",
      "reserved": "",
      "salt": "0xd5c7e10e63a8d59137211b657cd3c9e03e6ae7f3f2cfbedc5fc31b3d50550f0b",
      "assetIds": []
    },
    {
      "x": 247,
      "y": 330,
      "size": 1,
      "price": "1011000000000000000000",
      "reserved": "",
      "salt": "0x083469d1965299273983196e89f4255f51b595e103bbb8281b326ad7a82687b7",
      "assetIds": []
    },
    {
      "x": 247,
      "y": 331,
      "size": 1,
      "price": "4683000000000000000000",
      "reserved": "",
      "salt": "0x7f611dc5340586b6c8d518d65ec7be54d372dec2470aaa10435611a41e1bf1f9",
      "assetIds": [
        "55464657044963196816950587289035428064568320970692304673817341489687790884865",
        "55464657044963196816950587289035428064568320970692304673817341489687782494208",
        "55464657044963196816950587289035428064568320970692304673817341489687790884866",
        "55464657044963196816950587289035428064568320970692304673817341489687782494209",
        "55464657044963196816950587289035428064568320970692304673817341489687790884864"
      ]
    },
    {
      "x": 247,
      "y": 332,
      "size": 1,
      "price": "4683000000000000000000",
      "reserved": "",
      "salt": "0x91b98c13836cc41181a518bd04cef66a7f0b5dcd9258cd2709498e859afea36b",
      "assetIds": [
        "55464657044963196816950587289035428064568320970692304673817341489687790884865",
        "55464657044963196816950587289035428064568320970692304673817341489687782494208",
        "55464657044963196816950587289035428064568320970692304673817341489687790884866",
        "55464657044963196816950587289035428064568320970692304673817341489687782494209",
        "55464657044963196816950587289035428064568320970692304673817341489687790884864"
      ]
    },
    {
      "x": 247,
      "y": 333,
      "size": 1,
      "price": "4683000000000000000000",
      "reserved": "",
      "salt": "0xd8fe151f18b2d6f4366507991864c1b163277967839a6356552a556d6687e520",
      "assetIds": [
        "55464657044963196816950587289035428064568320970692304673817341489687790884865",
        "55464657044963196816950587289035428064568320970692304673817341489687782494208",
        "55464657044963196816950587289035428064568320970692304673817341489687790884866",
        "55464657044963196816950587289035428064568320970692304673817341489687782494209",
        "55464657044963196816950587289035428064568320970692304673817341489687790884864"
      ]
    },
    {
      "x": 247,
      "y": 334,
      "size": 1,
      "price": "4683000000000000000000",
      "reserved": "",
      "salt": "0x966149bdcdbc283f666bce1953f01f08b3d3e78aab176816b3036b857ccdb3b6",
      "assetIds": [
        "55464657044963196816950587289035428064568320970692304673817341489687790884865",
        "55464657044963196816950587289035428064568320970692304673817341489687782494208",
        "55464657044963196816950587289035428064568320970692304673817341489687790884866",
        "55464657044963196816950587289035428064568320970692304673817341489687782494209",
        "55464657044963196816950587289035428064568320970692304673817341489687790884864"
      ]
    },
    {
      "x": 247,
      "y": 335,
      "size": 1,
      "price": "4683000000000000000000",
      "reserved": "",
      "salt": "0xec9a2686e080b3203eed9d5b751ad6c8420e8d3efb146cbfa17dd79fed8fc8ec",
      "assetIds": [
        "55464657044963196816950587289035428064568320970692304673817341489687790884865",
        "55464657044963196816950587289035428064568320970692304673817341489687782494208",
        "55464657044963196816950587289035428064568320970692304673817341489687790884866",
        "55464657044963196816950587289035428064568320970692304673817341489687782494209",
        "55464657044963196816950587289035428064568320970692304673817341489687790884864"
      ]
    },
    {
      "x": 248,
      "y": 313,
      "size": 1,
      "price": "1011000000000000000000",
      "reserved": "",
      "salt": "0x0c9aca0f6cd447886795e5122572eca40321d77a6fbd0cc5d0c20380ab241062",
      "assetIds": []
    },
    {
      "x": 248,
      "y": 314,
      "size": 1,
      "price": "1011000000000000000000",
      "reserved": "",
      "salt": "0x0c5cf9a5ae5bf7cae67ad55db5fad143cba03006c25dad70333b4c31c331c1ff",
      "assetIds": []
    },
    {
      "x": 248,
      "y": 315,
      "size": 1,
      "price": "1011000000000000000000",
      "reserved": "0x7a9fe22691c811ea339d9b73150e6911a5343dca",
      "salt": "0x216eab9a43e0bc7fd60ebeac9159475d5fa3024b0306eb612ea2ca5972b47601",
      "assetIds": []
    },
    {
      "x": 248,
      "y": 316,
      "size": 1,
      "price": "1011000000000000000000",
      "reserved": "",
      "salt": "0xa9edb181749b4b1ae161176549296dd0dd153fff26136468bfc514eb4ce6d311",
      "assetIds": []
    },
    {
      "x": 248,
      "y": 317,
      "size": 1,
      "price": "1011000000000000000000",
      "reserved": "",
      "salt": "0xda0795f0b2bf84c40eca6ffd87c6abbe5a6cbfbf49e512ab144a20231844ddff",
      "assetIds": []
    },
    {
      "x": 248,
      "y": 318,
      "size": 1,
      "price": "1011000000000000000000",
      "reserved": "",
      "salt": "0xea548db655ace1cd6d3fd99c4ebe871c6c4c72303cb2faf6afa642f92e28b7ff",
      "assetIds": []
    },
    {
      "x": 248,
      "y": 319,
      "size": 1,
      "price": "1011000000000000000000",
      "reserved": "",
      "salt": "0x559df88cf8388e22f7f2dc6f1b4f501d515642ff9b056352ce56223512ea7933",
      "assetIds": []
    },
    {
      "x": 248,
      "y": 320,
      "size": 1,
      "price": "1011000000000000000000",
      "reserved": "",
      "salt": "0x60d7f4df535d9e8e242bd2de7b9df2eafea518f5ab97c7f2efb951973173a8fc",
      "assetIds": []
    },
    {
      "x": 248,
      "y": 321,
      "size": 1,
      "price": "1011000000000000000000",
      "reserved": "",
      "salt": "0x98264a09edac2e09431e7a08a8980330390fb5513b58c62c494e3654d62b69a7",
      "assetIds": []
    },
    {
      "x": 248,
      "y": 322,
      "size": 1,
      "price": "1011000000000000000000",
      "reserved": "",
      "salt": "0x286827b99d268cbfdb4593886c9cc732ee58ae7ab53955dd77acaffb446db578",
      "assetIds": []
    },
    {
      "x": 248,
      "y": 323,
      "size": 1,
      "price": "1011000000000000000000",
      "reserved": "",
      "salt": "0x9b744e3efe86eac78abd796d136ac7915566362a958d6455a1200d0ca966afe5",
      "assetIds": []
    },
    {
      "x": 248,
      "y": 324,
      "size": 1,
      "price": "1011000000000000000000",
      "reserved": "",
      "salt": "0x09f84f565a42253907c41ed9f2ff5046e8ac52b7ade714a5d49401a6d830c5e6",
      "assetIds": []
    },
    {
      "x": 248,
      "y": 325,
      "size": 1,
      "price": "1011000000000000000000",
      "reserved": "",
      "salt": "0x2297e9c8186a6305d6307ef51d821643459c3e6f256b5b2588d94a1fa4271e77",
      "assetIds": []
    },
    {
      "x": 248,
      "y": 326,
      "size": 1,
      "price": "1011000000000000000000",
      "reserved": "",
      "salt": "0x905d71c3d631cf4f6b8caab06d53658042c649532b8e1ed2123602689b6bdcd0",
      "assetIds": []
    },
    {
      "x": 248,
      "y": 327,
      "size": 1,
      "price": "1011000000000000000000",
      "reserved": "",
      "salt": "0xf1dae8fbab2b23ba7fbe82ffe0962c18cddbc3fc06a30a6f6ea99096e87bcf90",
      "assetIds": []
    },
    {
      "x": 248,
      "y": 328,
      "size": 1,
      "price": "1011000000000000000000",
      "reserved": "0x7a9fe22691c811ea339d9b73150e6911a5343dca",
      "salt": "0xa7174b4368953f2d860592fae3e8ac9ccea05d3d73d0c268c77acd9eed9b79f7",
      "assetIds": []
    },
    {
      "x": 248,
      "y": 329,
      "size": 1,
      "price": "1011000000000000000000",
      "reserved": "",
      "salt": "0xc35cac99ed3f79512f6ce56656b5ef6e7317dbbb7621a956f0c4a054bad2b491",
      "assetIds": []
    },
    {
      "x": 248,
      "y": 330,
      "size": 1,
      "price": "4683000000000000000000",
      "reserved": "",
      "salt": "0x448537dfbf138e21dd8cac28eb7bd9ff65af59d2319ada682a8f480f9c28106a",
      "assetIds": [
        "55464657044963196816950587289035428064568320970692304673817341489687790884865",
        "55464657044963196816950587289035428064568320970692304673817341489687782494208",
        "55464657044963196816950587289035428064568320970692304673817341489687790884866",
        "55464657044963196816950587289035428064568320970692304673817341489687782494209",
        "55464657044963196816950587289035428064568320970692304673817341489687790884864"
      ]
    },
    {
      "x": 248,
      "y": 331,
      "size": 1,
      "price": "4683000000000000000000",
      "reserved": "",
      "salt": "0x4385eb1941b9308a9b63520c5ae4c386ac2ab107233418b603a8e46da2a92bb9",
      "assetIds": [
        "55464657044963196816950587289035428064568320970692304673817341489687790884865",
        "55464657044963196816950587289035428064568320970692304673817341489687782494208",
        "55464657044963196816950587289035428064568320970692304673817341489687790884866",
        "55464657044963196816950587289035428064568320970692304673817341489687782494209",
        "55464657044963196816950587289035428064568320970692304673817341489687790884864"
      ]
    },
    {
      "x": 248,
      "y": 332,
      "size": 1,
      "price": "4683000000000000000000",
      "reserved": "",
      "salt": "0x5d2db9f89e2df68be2585b591c6acbf5661c6cf96d47b387f69aafb5ed43894f",
      "assetIds": [
        "55464657044963196816950587289035428064568320970692304673817341489687790884865",
        "55464657044963196816950587289035428064568320970692304673817341489687782494208",
        "55464657044963196816950587289035428064568320970692304673817341489687790884866",
        "55464657044963196816950587289035428064568320970692304673817341489687782494209",
        "55464657044963196816950587289035428064568320970692304673817341489687790884864"
      ]
    },
    {
      "x": 248,
      "y": 333,
      "size": 1,
      "price": "4683000000000000000000",
      "reserved": "",
      "salt": "0x8081fbcac20aba8ab743abab4f6bc5198ef587bc9b4be8f7098a8834c7ef593f",
      "assetIds": [
        "55464657044963196816950587289035428064568320970692304673817341489687790884865",
        "55464657044963196816950587289035428064568320970692304673817341489687782494208",
        "55464657044963196816950587289035428064568320970692304673817341489687790884866",
        "55464657044963196816950587289035428064568320970692304673817341489687782494209",
        "55464657044963196816950587289035428064568320970692304673817341489687790884864"
      ]
    },
    {
      "x": 248,
      "y": 334,
      "size": 1,
      "price": "1011000000000000000000",
      "reserved": "0x7a9fe22691c811ea339d9b73150e6911a5343dca",
      "salt": "0xd41c941f279992b918065f63270f1cf23ac6a8686586d099990a60b97f571760",
      "assetIds": []
    },
    {
      "x": 248,
      "y": 335,
      "size": 1,
      "price": "4683000000000000000000",
      "reserved": "",
      "salt": "0xbd26569b60f329370ab0a2570a4549fcd4df351a3d37f6788ae543829eef7d98",
      "assetIds": [
        "55464657044963196816950587289035428064568320970692304673817341489687790884865",
        "55464657044963196816950587289035428064568320970692304673817341489687782494208",
        "55464657044963196816950587289035428064568320970692304673817341489687790884866",
        "55464657044963196816950587289035428064568320970692304673817341489687782494209",
        "55464657044963196816950587289035428064568320970692304673817341489687790884864"
      ]
    },
    {
      "x": 249,
      "y": 313,
      "size": 1,
      "price": "1011000000000000000000",
      "reserved": "",
      "salt": "0xb56e6b97309f718f20d7056646dd0d67c0c137a25422f55454393d97d35a99bd",
      "assetIds": []
    },
    {
      "x": 249,
      "y": 314,
      "size": 1,
      "price": "1011000000000000000000",
      "reserved": "",
      "salt": "0xa55e4f5a284dbe2445fb06b971ae005848e7b0627af2b4347537ea83786adad1",
      "assetIds": []
    },
    {
      "x": 249,
      "y": 315,
      "size": 1,
      "price": "1011000000000000000000",
      "reserved": "",
      "salt": "0xca840ebff094ab515ad30452b0f39c7a3872769b075bbd97b1180ed187597494",
      "assetIds": []
    },
    {
      "x": 249,
      "y": 316,
      "size": 1,
      "price": "1011000000000000000000",
      "reserved": "",
      "salt": "0x4301853802ab4d061f6721e475219365021a279469861e30a0ec20a25d727c9c",
      "assetIds": []
    },
    {
      "x": 249,
      "y": 317,
      "size": 1,
      "price": "1011000000000000000000",
      "reserved": "",
      "salt": "0x8ab3c046b9b06eab7e09ce3728f923387dc4315d31afe09960bab1c4160c1be7",
      "assetIds": []
    },
    {
      "x": 249,
      "y": 318,
      "size": 1,
      "price": "1011000000000000000000",
      "reserved": "",
      "salt": "0xaa231c94f360fe3bb48a9d2304161922aec1ee843ced2d1485abd8d89a3ea84b",
      "assetIds": []
    },
    {
      "x": 249,
      "y": 319,
      "size": 1,
      "price": "1011000000000000000000",
      "reserved": "",
      "salt": "0x76439689498424d81d3b45fa3317c96508c49c1aae9bfac5a8a75bcee5f3aa92",
      "assetIds": []
    },
    {
      "x": 249,
      "y": 320,
      "size": 1,
      "price": "1011000000000000000000",
      "reserved": "",
      "salt": "0xa057f70f7a6d191685e6597f9cb200811f2fe35affe310be7f5d1aea15370682",
      "assetIds": []
    },
    {
      "x": 249,
      "y": 321,
      "size": 1,
      "price": "1011000000000000000000",
      "reserved": "0x7a9fe22691c811ea339d9b73150e6911a5343dca",
      "salt": "0x647ed53fdaf06ab10d7ad701dee311642d297b6dd253ba14173f9359598ae084",
      "assetIds": []
    },
    {
      "x": 249,
      "y": 322,
      "size": 1,
      "price": "1011000000000000000000",
      "reserved": "",
      "salt": "0x95cf161cf39f5a925902a21fa84e2b0f1ecb9492676abf1a27791b967809dfef",
      "assetIds": []
    },
    {
      "x": 249,
      "y": 323,
      "size": 1,
      "price": "1011000000000000000000",
      "reserved": "",
      "salt": "0xf8a1885e94f899b85f343d02f9ddbb58dedf10b70ec17463fe040344ef162208",
      "assetIds": []
    },
    {
      "x": 249,
      "y": 324,
      "size": 1,
      "price": "1011000000000000000000",
      "reserved": "",
      "salt": "0x9bcecb15c311789de556d7c5b13e5e05f9e7301d6266526c7895f4495577e24c",
      "assetIds": []
    },
    {
      "x": 249,
      "y": 325,
      "size": 1,
      "price": "1011000000000000000000",
      "reserved": "0x7a9fe22691c811ea339d9b73150e6911a5343dca",
      "salt": "0x874e871af1327d277620961fd837fbce2f39a1c9f4f14a517ae18d0b8ef89324",
      "assetIds": []
    },
    {
      "x": 249,
      "y": 326,
      "size": 1,
      "price": "1011000000000000000000",
      "reserved": "",
      "salt": "0x0635b9fdf23127ab4b66d311036a36257f7b92179bb02befff687681c07e9f82",
      "assetIds": []
    },
    {
      "x": 249,
      "y": 327,
      "size": 1,
      "price": "1011000000000000000000",
      "reserved": "",
      "salt": "0x276ebb885760de070aa97906da00ff5f9d17a8713dcc4e3f91df2913dc8ea500",
      "assetIds": []
    },
    {
      "x": 249,
      "y": 328,
      "size": 1,
      "price": "1011000000000000000000",
      "reserved": "",
      "salt": "0x3b45a14523991aaed6c48411321b309f04d296323a9bd4bd64edd69d0040e4ba",
      "assetIds": []
    },
    {
      "x": 249,
      "y": 329,
      "size": 1,
      "price": "1011000000000000000000",
      "reserved": "",
      "salt": "0x77acf71771771c9aa367ad815bc678903a85bbcdd4236c94678f39a405c71725",
      "assetIds": []
    },
    {
      "x": 249,
      "y": 330,
      "size": 1,
      "price": "4683000000000000000000",
      "reserved": "",
      "salt": "0x103d1779f6d98759281eb9af2e60c55bb6ccfe9096eaf4551f03538ac3e4d683",
      "assetIds": [
        "55464657044963196816950587289035428064568320970692304673817341489687790884865",
        "55464657044963196816950587289035428064568320970692304673817341489687782494208",
        "55464657044963196816950587289035428064568320970692304673817341489687790884866",
        "55464657044963196816950587289035428064568320970692304673817341489687782494209",
        "55464657044963196816950587289035428064568320970692304673817341489687790884864"
      ]
    },
    {
      "x": 249,
      "y": 331,
      "size": 1,
      "price": "4683000000000000000000",
      "reserved": "",
      "salt": "0xa8e50b94c90cea9960004a4a59ab8c2b0c434016fd441697618b51bc81e5c67a",
      "assetIds": [
        "55464657044963196816950587289035428064568320970692304673817341489687790884865",
        "55464657044963196816950587289035428064568320970692304673817341489687782494208",
        "55464657044963196816950587289035428064568320970692304673817341489687790884866",
        "55464657044963196816950587289035428064568320970692304673817341489687782494209",
        "55464657044963196816950587289035428064568320970692304673817341489687790884864"
      ]
    },
    {
      "x": 249,
      "y": 332,
      "size": 1,
      "price": "4683000000000000000000",
      "reserved": "",
      "salt": "0xcf13f4abed5038c235452b876cd1acf8e0fdce41ab6c444628420a1945f595fd",
      "assetIds": [
        "55464657044963196816950587289035428064568320970692304673817341489687790884865",
        "55464657044963196816950587289035428064568320970692304673817341489687782494208",
        "55464657044963196816950587289035428064568320970692304673817341489687790884866",
        "55464657044963196816950587289035428064568320970692304673817341489687782494209",
        "55464657044963196816950587289035428064568320970692304673817341489687790884864"
      ]
    },
    {
      "x": 249,
      "y": 333,
      "size": 1,
      "price": "4683000000000000000000",
      "reserved": "",
      "salt": "0xdaf65a8ff099ac1b31399b2a0a7372d5bf70780d11347ee674865be936d35eff",
      "assetIds": [
        "55464657044963196816950587289035428064568320970692304673817341489687790884865",
        "55464657044963196816950587289035428064568320970692304673817341489687782494208",
        "55464657044963196816950587289035428064568320970692304673817341489687790884866",
        "55464657044963196816950587289035428064568320970692304673817341489687782494209",
        "55464657044963196816950587289035428064568320970692304673817341489687790884864"
      ]
    },
    {
      "x": 249,
      "y": 334,
      "size": 1,
      "price": "4683000000000000000000",
      "reserved": "",
      "salt": "0x77e7bdacb670b9248f46d8a1e6cddcb78c5b833ee4b0956955ad9555baea2bab",
      "assetIds": [
        "55464657044963196816950587289035428064568320970692304673817341489687790884865",
        "55464657044963196816950587289035428064568320970692304673817341489687782494208",
        "55464657044963196816950587289035428064568320970692304673817341489687790884866",
        "55464657044963196816950587289035428064568320970692304673817341489687782494209",
        "55464657044963196816950587289035428064568320970692304673817341489687790884864"
      ]
    },
    {
      "x": 249,
      "y": 335,
      "size": 1,
      "price": "4683000000000000000000",
      "reserved": "",
      "salt": "0x8cedf3aee89a28d6a682cada3d4624bcbb06e27a21370bea6ff9c23033b742ef",
      "assetIds": [
        "55464657044963196816950587289035428064568320970692304673817341489687790884865",
        "55464657044963196816950587289035428064568320970692304673817341489687782494208",
        "55464657044963196816950587289035428064568320970692304673817341489687790884866",
        "55464657044963196816950587289035428064568320970692304673817341489687782494209",
        "55464657044963196816950587289035428064568320970692304673817341489687790884864"
      ]
    },
    {
      "x": 250,
      "y": 313,
      "size": 1,
      "price": "1011000000000000000000",
      "reserved": "",
      "salt": "0x581b9b2466532523ac3bb54a88b905da47675394ddc0a35f8a60f913a9299eb5",
      "assetIds": []
    },
    {
      "x": 250,
      "y": 314,
      "size": 1,
      "price": "1011000000000000000000",
      "reserved": "",
      "salt": "0xcd242a231449d075d7054bed227aa5503754d3834aec14f332e3cf565fd9b81f",
      "assetIds": []
    },
    {
      "x": 250,
      "y": 315,
      "size": 1,
      "price": "1011000000000000000000",
      "reserved": "",
      "salt": "0xaea56ab2489a49b732a60959857e341befe3c3f99566bcd34f1bc480904e35c1",
      "assetIds": []
    },
    {
      "x": 250,
      "y": 316,
      "size": 1,
      "price": "1011000000000000000000",
      "reserved": "",
      "salt": "0x4eadc4489d4dea39e2d448af4421471cc011b5d667091762b3ea643166bc6c60",
      "assetIds": []
    },
    {
      "x": 250,
      "y": 317,
      "size": 1,
      "price": "1011000000000000000000",
      "reserved": "",
      "salt": "0x89396464c4b0b44893eb24b47391dec5c20a1681f210b808591975134e9526a6",
      "assetIds": []
    },
    {
      "x": 250,
      "y": 318,
      "size": 1,
      "price": "1011000000000000000000",
      "reserved": "",
      "salt": "0xa828c9f95b87ad375bd7ed01bc3350dcd5103a5b0a8f4a604e8bd462c848d3a2",
      "assetIds": []
    },
    {
      "x": 250,
      "y": 319,
      "size": 1,
      "price": "1011000000000000000000",
      "reserved": "",
      "salt": "0x13281abd4569976d162ac80c6ab1f3224f3dbd5cb511a20497ecbc8655711d32",
      "assetIds": []
    },
    {
      "x": 250,
      "y": 320,
      "size": 1,
      "price": "1011000000000000000000",
      "reserved": "",
      "salt": "0x3ea87713e02c45b49f806c04783ba294a3868a08877c06e0ad33bf94ea82ba4d",
      "assetIds": []
    },
    {
      "x": 250,
      "y": 321,
      "size": 1,
      "price": "1011000000000000000000",
      "reserved": "",
      "salt": "0x2646ffa369add05968a1fcae99f7e18cbd63b8e39d8a0455209a37d5200946ba",
      "assetIds": []
    },
    {
      "x": 250,
      "y": 322,
      "size": 1,
      "price": "1011000000000000000000",
      "reserved": "",
      "salt": "0x92cccffa8910c90bb50f016bd08e0264e849f7c17ff2e7bab525ab95d390fd01",
      "assetIds": []
    },
    {
      "x": 250,
      "y": 323,
      "size": 1,
      "price": "1011000000000000000000",
      "reserved": "",
      "salt": "0xa394c292ab76175a2dc2603a4acbc24493f80609314c3fa2b8ce4d01a32c7aff",
      "assetIds": []
    },
    {
      "x": 250,
      "y": 324,
      "size": 1,
      "price": "1011000000000000000000",
      "reserved": "",
      "salt": "0x1fd2a8e6e32a4e07ccaeab0d0b90aff4be80c273b840dc52f1a46114fe091d4f",
      "assetIds": []
    },
    {
      "x": 250,
      "y": 325,
      "size": 1,
      "price": "1011000000000000000000",
      "reserved": "",
      "salt": "0xd2f8a5aaab19caa9cf72fc77a07f1292cfe4878dc0f1b335fc3f8a0f4ef77fa8",
      "assetIds": []
    },
    {
      "x": 250,
      "y": 326,
      "size": 1,
      "price": "1011000000000000000000",
      "reserved": "",
      "salt": "0xf531cbd5d16e953eaec354e1c755e8d74df1606e379b96ac0d75175dd22e8e67",
      "assetIds": []
    },
    {
      "x": 250,
      "y": 327,
      "size": 1,
      "price": "1011000000000000000000",
      "reserved": "",
      "salt": "0x9bfbde7e669c61fdd944684ba40258b1e3f6bd2c149069aa5f9b00272fc3f6a8",
      "assetIds": []
    },
    {
      "x": 250,
      "y": 328,
      "size": 1,
      "price": "1011000000000000000000",
      "reserved": "",
      "salt": "0x3d24df6d125dea92ee01408c0557076d5ea2911520e7a33948f1d22f52e4c434",
      "assetIds": []
    },
    {
      "x": 250,
      "y": 329,
      "size": 1,
      "price": "1011000000000000000000",
      "reserved": "",
      "salt": "0x853758f9a657a0d8e314326567a98494c86114d73d0b3233147a2973da64316e",
      "assetIds": []
    },
    {
      "x": 250,
      "y": 330,
      "size": 1,
      "price": "1011000000000000000000",
      "reserved": "",
      "salt": "0x3809df12063ed76fe8c100a1039f9d4fa7900faedd2f2b5632c1c5cc4178b5e6",
      "assetIds": []
    },
    {
      "x": 250,
      "y": 331,
      "size": 1,
      "price": "4683000000000000000000",
      "reserved": "",
      "salt": "0x1782e63267f63edcdb7e8a89b925cee51d496fea74b71350fd19de6dbcab7b56",
      "assetIds": [
        "55464657044963196816950587289035428064568320970692304673817341489687790884865",
        "55464657044963196816950587289035428064568320970692304673817341489687782494208",
        "55464657044963196816950587289035428064568320970692304673817341489687790884866",
        "55464657044963196816950587289035428064568320970692304673817341489687782494209",
        "55464657044963196816950587289035428064568320970692304673817341489687790884864"
      ]
    },
    {
      "x": 250,
      "y": 332,
      "size": 1,
      "price": "4683000000000000000000",
      "reserved": "",
      "salt": "0xbde850f65e42336b8d0f814b1aef6e0f12bb016422092644da058026c0538aec",
      "assetIds": [
        "55464657044963196816950587289035428064568320970692304673817341489687790884865",
        "55464657044963196816950587289035428064568320970692304673817341489687782494208",
        "55464657044963196816950587289035428064568320970692304673817341489687790884866",
        "55464657044963196816950587289035428064568320970692304673817341489687782494209",
        "55464657044963196816950587289035428064568320970692304673817341489687790884864"
      ]
    },
    {
      "x": 250,
      "y": 333,
      "size": 1,
      "price": "4683000000000000000000",
      "reserved": "",
      "salt": "0xdeb1fc94521dfcb3fee795f5403170996a04bc9e7def7e148e4c85a3cf2e7312",
      "assetIds": [
        "55464657044963196816950587289035428064568320970692304673817341489687790884865",
        "55464657044963196816950587289035428064568320970692304673817341489687782494208",
        "55464657044963196816950587289035428064568320970692304673817341489687790884866",
        "55464657044963196816950587289035428064568320970692304673817341489687782494209",
        "55464657044963196816950587289035428064568320970692304673817341489687790884864"
      ]
    },
    {
      "x": 250,
      "y": 334,
      "size": 1,
      "price": "4683000000000000000000",
      "reserved": "",
      "salt": "0xa7f0d49fc1e89d14aebafedde1a26b7d671034ea91bd62fb86e9c678d7a9ba31",
      "assetIds": [
        "55464657044963196816950587289035428064568320970692304673817341489687790884865",
        "55464657044963196816950587289035428064568320970692304673817341489687782494208",
        "55464657044963196816950587289035428064568320970692304673817341489687790884866",
        "55464657044963196816950587289035428064568320970692304673817341489687782494209",
        "55464657044963196816950587289035428064568320970692304673817341489687790884864"
      ]
    },
    {
      "x": 250,
      "y": 335,
      "size": 1,
      "price": "4683000000000000000000",
      "reserved": "",
      "salt": "0x4e7b1358598038371b9a0bf2fae13ce359d55bbc9c64cf309418468dcafcc022",
      "assetIds": [
        "55464657044963196816950587289035428064568320970692304673817341489687790884865",
        "55464657044963196816950587289035428064568320970692304673817341489687782494208",
        "55464657044963196816950587289035428064568320970692304673817341489687790884866",
        "55464657044963196816950587289035428064568320970692304673817341489687782494209",
        "55464657044963196816950587289035428064568320970692304673817341489687790884864"
      ]
    },
    {
      "x": 251,
      "y": 313,
      "size": 1,
      "price": "1011000000000000000000",
      "reserved": "",
      "salt": "0x20db78a51ed2959ab02e9219a9356f2ea11fe1761722de3c1247b9e6660ce87a",
      "assetIds": []
    },
    {
      "x": 251,
      "y": 314,
      "size": 1,
      "price": "1011000000000000000000",
      "reserved": "",
      "salt": "0xd8c3e7f80c488cbbdc310f0de59c04e213e62a1635497d476a986bc1e0ba306a",
      "assetIds": []
    },
    {
      "x": 251,
      "y": 315,
      "size": 1,
      "price": "1011000000000000000000",
      "reserved": "",
      "salt": "0xaf2301ac85201400ebcb907199b0104f3a2033aa1c70d3e2afcf27385e1df1da",
      "assetIds": []
    },
    {
      "x": 251,
      "y": 316,
      "size": 1,
      "price": "1011000000000000000000",
      "reserved": "",
      "salt": "0x18395e054080366afe982946ed8d20efb864d7899bab5cee89cd4f5f414af4f0",
      "assetIds": []
    },
    {
      "x": 251,
      "y": 317,
      "size": 1,
      "price": "1011000000000000000000",
      "reserved": "",
      "salt": "0x53d650540aca180b19ecc15251846134fbad81126d4a5852d657009a893f2319",
      "assetIds": []
    },
    {
      "x": 251,
      "y": 318,
      "size": 1,
      "price": "1011000000000000000000",
      "reserved": "",
      "salt": "0x72e149015051215ed3161303781a7340e13160c1fd64c8dc7e34b1f9aac75c78",
      "assetIds": []
    },
    {
      "x": 251,
      "y": 319,
      "size": 1,
      "price": "1011000000000000000000",
      "reserved": "",
      "salt": "0xfeea24fef4af0c2cd174c17a1e695b54bfb7a5d5a784c6e9709f801c05356876",
      "assetIds": []
    },
    {
      "x": 251,
      "y": 320,
      "size": 1,
      "price": "1011000000000000000000",
      "reserved": "0x7a9fe22691c811ea339d9b73150e6911a5343dca",
      "salt": "0x050877e755d3f50a32c5853b363c6c47d96645a1c7b974a65d83a35cde325f85",
      "assetIds": []
    },
    {
      "x": 251,
      "y": 321,
      "size": 1,
      "price": "1011000000000000000000",
      "reserved": "",
      "salt": "0xbfabd95a88058bcae4059d8e2b659b819822214c1fd42e8bed2681d6327b1c93",
      "assetIds": []
    },
    {
      "x": 251,
      "y": 322,
      "size": 1,
      "price": "1011000000000000000000",
      "reserved": "",
      "salt": "0xb311737d05275668b128eafc6679d2d14d719965a8232bffec8273a9e362095f",
      "assetIds": []
    },
    {
      "x": 251,
      "y": 323,
      "size": 1,
      "price": "1011000000000000000000",
      "reserved": "",
      "salt": "0x05be9dd6f29acd4041a244d487dde902005dc4e70612ef23454ccf098d593fc9",
      "assetIds": []
    },
    {
      "x": 251,
      "y": 324,
      "size": 1,
      "price": "1011000000000000000000",
      "reserved": "0x7a9fe22691c811ea339d9b73150e6911a5343dca",
      "salt": "0x21b443578e8117d2e74689b97664a1b396a4160c6d656f0210ec98760c97319c",
      "assetIds": []
    },
    {
      "x": 251,
      "y": 325,
      "size": 1,
      "price": "1011000000000000000000",
      "reserved": "",
      "salt": "0xef1254c9c10f43a8dc01baed7c9d5a99aa44be1c92603cdc36e2e85b9217a84b",
      "assetIds": []
    },
    {
      "x": 251,
      "y": 326,
      "size": 1,
      "price": "1011000000000000000000",
      "reserved": "",
      "salt": "0x5926224c33798a23e85e351f7fdef2a53ebce5e74d4e074a20116fb709e7c5f7",
      "assetIds": []
    },
    {
      "x": 251,
      "y": 327,
      "size": 1,
      "price": "1011000000000000000000",
      "reserved": "0x7a9fe22691c811ea339d9b73150e6911a5343dca",
      "salt": "0xde67f4a829eda27db71e61c5868c20939cfa0e326bd6355168395a0b03d1d049",
      "assetIds": []
    },
    {
      "x": 251,
      "y": 328,
      "size": 1,
      "price": "1011000000000000000000",
      "reserved": "",
      "salt": "0x6f3e325567a7a184ca776cf630e798cd8fd317832a8b57e0080ad649db431ec6",
      "assetIds": []
    },
    {
      "x": 251,
      "y": 329,
      "size": 1,
      "price": "1011000000000000000000",
      "reserved": "",
      "salt": "0x522619d6b27e1f6d4c76351a8952f4c1ebddeb9451ce3c965932de9047ddab0b",
      "assetIds": []
    },
    {
      "x": 251,
      "y": 330,
      "size": 1,
      "price": "1011000000000000000000",
      "reserved": "",
      "salt": "0x1d73bd6c1d56de9c111ff00a1a3f193f0e7406f6561c68d9d59b3d6c6926cbf8",
      "assetIds": []
    },
    {
      "x": 251,
      "y": 331,
      "size": 1,
      "price": "4683000000000000000000",
      "reserved": "",
      "salt": "0x44847f144ea75a1e81079ade33561b3b9e8b35bd381d453ab30e294c8f08a321",
      "assetIds": [
        "55464657044963196816950587289035428064568320970692304673817341489687790884865",
        "55464657044963196816950587289035428064568320970692304673817341489687782494208",
        "55464657044963196816950587289035428064568320970692304673817341489687790884866",
        "55464657044963196816950587289035428064568320970692304673817341489687782494209",
        "55464657044963196816950587289035428064568320970692304673817341489687790884864"
      ]
    },
    {
      "x": 251,
      "y": 332,
      "size": 1,
      "price": "4683000000000000000000",
      "reserved": "",
      "salt": "0xebad1fba0e6404cc71dc8978e218f3a8b2ac95f682ba777800d6877280f61552",
      "assetIds": [
        "55464657044963196816950587289035428064568320970692304673817341489687790884865",
        "55464657044963196816950587289035428064568320970692304673817341489687782494208",
        "55464657044963196816950587289035428064568320970692304673817341489687790884866",
        "55464657044963196816950587289035428064568320970692304673817341489687782494209",
        "55464657044963196816950587289035428064568320970692304673817341489687790884864"
      ]
    },
    {
      "x": 251,
      "y": 333,
      "size": 1,
      "price": "4683000000000000000000",
      "reserved": "",
      "salt": "0x61950178d2c20a2f7020c9392f2ae7fc1156cf03b51276da87793c1dc3c57818",
      "assetIds": [
        "55464657044963196816950587289035428064568320970692304673817341489687790884865",
        "55464657044963196816950587289035428064568320970692304673817341489687782494208",
        "55464657044963196816950587289035428064568320970692304673817341489687790884866",
        "55464657044963196816950587289035428064568320970692304673817341489687782494209",
        "55464657044963196816950587289035428064568320970692304673817341489687790884864"
      ]
    },
    {
      "x": 251,
      "y": 334,
      "size": 1,
      "price": "4683000000000000000000",
      "reserved": "",
      "salt": "0xedc93d2ad0662531cd09883f409837fa65959af33a914e09285e81dd29687494",
      "assetIds": [
        "55464657044963196816950587289035428064568320970692304673817341489687790884865",
        "55464657044963196816950587289035428064568320970692304673817341489687782494208",
        "55464657044963196816950587289035428064568320970692304673817341489687790884866",
        "55464657044963196816950587289035428064568320970692304673817341489687782494209",
        "55464657044963196816950587289035428064568320970692304673817341489687790884864"
      ]
    },
    {
      "x": 251,
      "y": 335,
      "size": 1,
      "price": "4683000000000000000000",
      "reserved": "",
      "salt": "0xf565e9874b4272ee4e102c2d370c0c837a1cd1f822d59d63e16f2eb39f6cd3d3",
      "assetIds": [
        "55464657044963196816950587289035428064568320970692304673817341489687790884865",
        "55464657044963196816950587289035428064568320970692304673817341489687782494208",
        "55464657044963196816950587289035428064568320970692304673817341489687790884866",
        "55464657044963196816950587289035428064568320970692304673817341489687782494209",
        "55464657044963196816950587289035428064568320970692304673817341489687790884864"
      ]
    },
    {
      "x": 252,
      "y": 313,
      "size": 1,
      "price": "1011000000000000000000",
      "reserved": "",
      "salt": "0xed93bdd97a619ff6863c6f7b1cadff258c486b7badc2baf2fa74420290d32475",
      "assetIds": []
    },
    {
      "x": 252,
      "y": 314,
      "size": 1,
      "price": "1011000000000000000000",
      "reserved": "",
      "salt": "0x1b0bd8e69a4d32d31b27a148da08a4b4833357f5ade5341cfc5b6b1e713518d7",
      "assetIds": []
    },
    {
      "x": 252,
      "y": 315,
      "size": 1,
      "price": "1011000000000000000000",
      "reserved": "",
      "salt": "0x890fc9413b4d75c045d23b6fdc1d7d4ebc6c3b57c5ab1cb8b27b9dafd6c4997f",
      "assetIds": []
    },
    {
      "x": 252,
      "y": 316,
      "size": 1,
      "price": "1011000000000000000000",
      "reserved": "",
      "salt": "0xf048d53ed1546cb3b9b51c144cd091fdde8a41d9e751f75e09e203f05fe4caf1",
      "assetIds": []
    },
    {
      "x": 252,
      "y": 317,
      "size": 1,
      "price": "1011000000000000000000",
      "reserved": "",
      "salt": "0xb3224eaaa9884ba15c12cf09b49e947f5f4cd0cc3bc36cc41257569aec0f2107",
      "assetIds": []
    },
    {
      "x": 252,
      "y": 318,
      "size": 1,
      "price": "1011000000000000000000",
      "reserved": "",
      "salt": "0x495d89b2039932c1bcedfd670537b94796d1cf8a830e731bdc8a711137ff854e",
      "assetIds": []
    },
    {
      "x": 252,
      "y": 319,
      "size": 1,
      "price": "1011000000000000000000",
      "reserved": "",
      "salt": "0x4e150927e75ae8555cabc652a27536e00631e3456fdeeb106feb7adb9fd57b65",
      "assetIds": []
    },
    {
      "x": 252,
      "y": 320,
      "size": 1,
      "price": "1011000000000000000000",
      "reserved": "",
      "salt": "0x8ada1cda35080283539daed3d6f066b1aa1cb0688d266e239e5d40c3a616eec3",
      "assetIds": []
    },
    {
      "x": 252,
      "y": 321,
      "size": 1,
      "price": "1011000000000000000000",
      "reserved": "",
      "salt": "0xed3adb1af25b2772d323445a16e76afe67c5e95f03405bf9485ca0e48b0c2a07",
      "assetIds": []
    },
    {
      "x": 252,
      "y": 322,
      "size": 1,
      "price": "1011000000000000000000",
      "reserved": "",
      "salt": "0x2e6110b0c3a87584217dfa7c345611c7a47a6f4460db69b41c7fbafa48f44fbd",
      "assetIds": []
    },
    {
      "x": 252,
      "y": 323,
      "size": 1,
      "price": "1011000000000000000000",
      "reserved": "",
      "salt": "0xdb8e9e3d4319aa7af6ea3d412783f941879f1b18653709e16f5b1e0e0cab65aa",
      "assetIds": []
    },
    {
      "x": 253,
      "y": 313,
      "size": 1,
      "price": "1011000000000000000000",
      "reserved": "",
      "salt": "0x770a574b8c88d00e9293537ff60d811b78ce2da7d8ed4fb6cd7862b614768807",
      "assetIds": []
    },
    {
      "x": 253,
      "y": 314,
      "size": 1,
      "price": "1011000000000000000000",
      "reserved": "",
      "salt": "0x665c57290011d58537b9257ebeb755fe8d9e3da554e13ca0e3e6b0eada766dfd",
      "assetIds": []
    },
    {
      "x": 253,
      "y": 315,
      "size": 1,
      "price": "1011000000000000000000",
      "reserved": "",
      "salt": "0x4671a2550b88a84072190667120275b69aeaae75e698fffaaf829e7541c89611",
      "assetIds": []
    },
    {
      "x": 253,
      "y": 316,
      "size": 1,
      "price": "1011000000000000000000",
      "reserved": "0x7a9fe22691c811ea339d9b73150e6911a5343dca",
      "salt": "0x7c2322b5cfaef3ebd2d7052f8a068a523ffb1a09cdf6e1c3881d2700a777e441",
      "assetIds": []
    },
    {
      "x": 253,
      "y": 317,
      "size": 1,
      "price": "1011000000000000000000",
      "reserved": "",
      "salt": "0x879db37c01772273f429d00d8c377b2787a28b3978cb9a62505b3e629f236861",
      "assetIds": []
    },
    {
      "x": 253,
      "y": 318,
      "size": 1,
      "price": "1011000000000000000000",
      "reserved": "",
      "salt": "0xc21fe97cf7ddcc1e9a36ab70a125d998748fd5879f92e21dcb71d53aab122873",
      "assetIds": []
    },
    {
      "x": 253,
      "y": 319,
      "size": 1,
      "price": "1011000000000000000000",
      "reserved": "",
      "salt": "0xe6f458ce24083da5541a4453cc4724c1977d3c75e94c1b3dada9a9d29f0bf64f",
      "assetIds": []
    },
    {
      "x": 253,
      "y": 320,
      "size": 1,
      "price": "1011000000000000000000",
      "reserved": "",
      "salt": "0x4f80904ad0f4d284b428f760fc89f10c744ca9dabc7e5458e975610cd24d7514",
      "assetIds": []
    },
    {
      "x": 253,
      "y": 321,
      "size": 1,
      "price": "1011000000000000000000",
      "reserved": "",
      "salt": "0x5d7195431db1456a4158b2976ccf7c02e86793a1b8d6eb6beb49070c49844635",
      "assetIds": []
    },
    {
      "x": 253,
      "y": 322,
      "size": 1,
      "price": "1011000000000000000000",
      "reserved": "",
      "salt": "0x2c75d9efee17dafe544d03b8b5a0ba9a300e5ac75be9bb92a1d7cdc74fef09d8",
      "assetIds": []
    },
    {
      "x": 253,
      "y": 323,
      "size": 1,
      "price": "1011000000000000000000",
      "reserved": "",
      "salt": "0xa907bda933901e6f1ce20fb68dd2a9174ce03ff08e8c28211940fc29797d13b8",
      "assetIds": []
    },
    {
      "x": 254,
      "y": 312,
      "size": 1,
      "price": "1011000000000000000000",
      "reserved": "0x7a9fe22691c811ea339d9b73150e6911a5343dca",
      "salt": "0xa5b30c137f581df50069e509da64a41b9d7a587c8a5ee50b171eac083da6cfa1",
      "assetIds": []
    },
    {
      "x": 254,
      "y": 313,
      "size": 1,
      "price": "1011000000000000000000",
      "reserved": "",
      "salt": "0x7e1604eec3c2277b54d419cd8bf165040385d480f5a3a651aa23b579796a6680",
      "assetIds": []
    },
    {
      "x": 254,
      "y": 314,
      "size": 1,
      "price": "1011000000000000000000",
      "reserved": "",
      "salt": "0xa35692bca68b444a1f2e198e98ecad789688eabd31dd522047db7523e891bfc5",
      "assetIds": []
    },
    {
      "x": 254,
      "y": 315,
      "size": 1,
      "price": "1011000000000000000000",
      "reserved": "",
      "salt": "0x0ee5d44818f5f76a52ddffcf923284718407c12d8cd39ba7e659ec796e207290",
      "assetIds": []
    },
    {
      "x": 254,
      "y": 316,
      "size": 1,
      "price": "1011000000000000000000",
      "reserved": "",
      "salt": "0xa6c3691d73dd56fbaba0766abae4a66aa101377d0f798c58931e736bd149606a",
      "assetIds": []
    },
    {
      "x": 254,
      "y": 317,
      "size": 1,
      "price": "1011000000000000000000",
      "reserved": "",
      "salt": "0xd21ca4095462f8afebaf60043b114ff851b028cc71d0d4317eaaa18a09863d8a",
      "assetIds": []
    },
    {
      "x": 254,
      "y": 318,
      "size": 1,
      "price": "1011000000000000000000",
      "reserved": "",
      "salt": "0xe1e5cfce7a02fa5060d476e3670acf3bcd5baf4d6b97245cf86091703eb4f774",
      "assetIds": []
    },
    {
      "x": 254,
      "y": 319,
      "size": 1,
      "price": "1011000000000000000000",
      "reserved": "",
      "salt": "0x650ed2638d965cb45c27c3a1c5d2ee007d0693630cfce6ad16d37808985e8830",
      "assetIds": []
    },
    {
      "x": 254,
      "y": 320,
      "size": 1,
      "price": "1011000000000000000000",
      "reserved": "",
      "salt": "0xe4633e736aea3384d3d14ef0782ec792a63411fd1f18904e49a33dfecc2c4085",
      "assetIds": []
    },
    {
      "x": 254,
      "y": 321,
      "size": 1,
      "price": "1011000000000000000000",
      "reserved": "",
      "salt": "0x7051e50822faeb73949577791dbd40b0363bcaf400c4dd72bb4c3bc17fffd432",
      "assetIds": []
    },
    {
      "x": 254,
      "y": 322,
      "size": 1,
      "price": "1011000000000000000000",
      "reserved": "0x7a9fe22691c811ea339d9b73150e6911a5343dca",
      "salt": "0x6436b3683201fc987865b6e58be6e99bca65c83e0bbf589021c1e0478386f1e4",
      "assetIds": []
    },
    {
      "x": 254,
      "y": 323,
      "size": 1,
      "price": "1011000000000000000000",
      "reserved": "",
      "salt": "0xe0651a5f559a0997818384fb232fb590830d4faf5ed9eb0cb717536acb069e10",
      "assetIds": []
    },
    {
      "x": 255,
      "y": 312,
      "size": 1,
      "price": "1011000000000000000000",
      "reserved": "0x7a9fe22691c811ea339d9b73150e6911a5343dca",
      "salt": "0xb9b3973980e66c4855971c1302456226700cc4919693140a92c18fa368b18187",
      "assetIds": []
    },
    {
      "x": 255,
      "y": 313,
      "size": 1,
      "price": "1011000000000000000000",
      "reserved": "",
      "salt": "0x34c5a2e3fbce03ace5155cdd8969677b3282553c838ab8f34a573c6e648f531e",
      "assetIds": []
    },
    {
      "x": 255,
      "y": 314,
      "size": 1,
      "price": "1011000000000000000000",
      "reserved": "",
      "salt": "0xfc79e60958bcd8b7a8b752003119030275cfa04b2b68f6d79a084c386d2cd8d5",
      "assetIds": []
    },
    {
      "x": 255,
      "y": 315,
      "size": 1,
      "price": "1011000000000000000000",
      "reserved": "",
      "salt": "0xf73db34c2a66f04d7550c7a2a05b5f87ab056890f4e26fa7849c095486bfc364",
      "assetIds": []
    },
    {
      "x": 255,
      "y": 316,
      "size": 1,
      "price": "1011000000000000000000",
      "reserved": "",
      "salt": "0xaa6e4ae7fb60eadc70b8405bbe48e8da121aec545d2ea763a9b2e66fdd95b35b",
      "assetIds": []
    },
    {
      "x": 255,
      "y": 317,
      "size": 1,
      "price": "1011000000000000000000",
      "reserved": "",
      "salt": "0xb736f72d3bf35bcde13875d5001be55408e78665e7eb1f05907af032402e0841",
      "assetIds": []
    },
    {
      "x": 255,
      "y": 318,
      "size": 1,
      "price": "1011000000000000000000",
      "reserved": "",
      "salt": "0x921779ee53c4f50519a226c3f7b04ae4f7aad0a59ef91848ab55b5a9950fca23",
      "assetIds": []
    },
    {
      "x": 255,
      "y": 319,
      "size": 1,
      "price": "1011000000000000000000",
      "reserved": "",
      "salt": "0x8adfccd6cf8e6eef0769d7b7382eee5505be93b7b2ae87686a8bdc580e83cae3",
      "assetIds": []
    },
    {
      "x": 255,
      "y": 320,
      "size": 1,
      "price": "1011000000000000000000",
      "reserved": "",
      "salt": "0x7944b0e70c73bdaca540a614a85040bc99b4f5aa7e9c31be7637af11e58480ec",
      "assetIds": []
    },
    {
      "x": 255,
      "y": 321,
      "size": 1,
      "price": "1011000000000000000000",
      "reserved": "",
      "salt": "0xb5ebc16be32101e902891d7ac7fbb84e88cc078a054583f74f4b7458b78aaed1",
      "assetIds": []
    },
    {
      "x": 255,
      "y": 322,
      "size": 1,
      "price": "1011000000000000000000",
      "reserved": "",
      "salt": "0x25764a55a13575e03d0b190a7194addf58fec8ed2815d4e5c1c1b3cf7e3b45dc",
      "assetIds": []
    },
    {
      "x": 255,
      "y": 323,
      "size": 1,
      "price": "4683000000000000000000",
      "reserved": "",
      "salt": "0xdeb9b71da3377e394862df5af7bcbbc786039bdc57da01752f94e86e6de11da6",
      "assetIds": [
        "55464657044963196816950587289035428064568320970692304673817341489687790884865",
        "55464657044963196816950587289035428064568320970692304673817341489687782494208",
        "55464657044963196816950587289035428064568320970692304673817341489687790884866",
        "55464657044963196816950587289035428064568320970692304673817341489687782494209",
        "55464657044963196816950587289035428064568320970692304673817341489687790884864"
      ]
    },
    {
      "x": 256,
      "y": 312,
      "size": 1,
      "price": "1011000000000000000000",
      "reserved": "",
      "salt": "0x572f39f523eb4f71b5bafde418cdc9d01c3f72a2e52eb8b3f5b963a7df3750d1",
      "assetIds": []
    },
    {
      "x": 256,
      "y": 313,
      "size": 1,
      "price": "1011000000000000000000",
      "reserved": "",
      "salt": "0xd265bcd5863578b8159729a59f9c586f48e9fc38823d4f5336cf8d605e7466c5",
      "assetIds": []
    },
    {
      "x": 256,
      "y": 314,
      "size": 1,
      "price": "1011000000000000000000",
      "reserved": "",
      "salt": "0x3b7b1da7e88bd8143b31b5437a5befbee1b28fedcec5670684f39955ec260682",
      "assetIds": []
    },
    {
      "x": 256,
      "y": 315,
      "size": 1,
      "price": "1011000000000000000000",
      "reserved": "",
      "salt": "0x23fc6a8e0adc2087faad31ddf8a9c996b78f65343fb2628f771f3fe8c3f9bfd4",
      "assetIds": []
    },
    {
      "x": 256,
      "y": 316,
      "size": 1,
      "price": "1011000000000000000000",
      "reserved": "",
      "salt": "0x7370080a3f7812a00f283cf86a298a4475a54865fc406ef22a4906afd724fb62",
      "assetIds": []
    },
    {
      "x": 256,
      "y": 317,
      "size": 1,
      "price": "1011000000000000000000",
      "reserved": "",
      "salt": "0x14ced8757b71fd9207176dabf39e2cbf3f4a9d36e734c8316ac14578de1c86ac",
      "assetIds": []
    },
    {
      "x": 256,
      "y": 318,
      "size": 1,
      "price": "4683000000000000000000",
      "reserved": "",
      "salt": "0x8045d2fc35c8f5f68ae81b0b70998dcc8ba3c21c52525652753a3bcf3e987957",
      "assetIds": [
        "55464657044963196816950587289035428064568320970692304673817341489687790884865",
        "55464657044963196816950587289035428064568320970692304673817341489687782494208",
        "55464657044963196816950587289035428064568320970692304673817341489687790884866",
        "55464657044963196816950587289035428064568320970692304673817341489687782494209",
        "55464657044963196816950587289035428064568320970692304673817341489687790884864"
      ]
    },
    {
      "x": 256,
      "y": 319,
      "size": 1,
      "price": "4683000000000000000000",
      "reserved": "",
      "salt": "0x23d63d97631aa12117336e9400a6bbacbd60808134326078874544d1afb7568b",
      "assetIds": [
        "55464657044963196816950587289035428064568320970692304673817341489687790884865",
        "55464657044963196816950587289035428064568320970692304673817341489687782494208",
        "55464657044963196816950587289035428064568320970692304673817341489687790884866",
        "55464657044963196816950587289035428064568320970692304673817341489687782494209",
        "55464657044963196816950587289035428064568320970692304673817341489687790884864"
      ]
    },
    {
      "x": 256,
      "y": 320,
      "size": 1,
      "price": "4683000000000000000000",
      "reserved": "",
      "salt": "0x1027d3e28cb86e5c75f440790c9eba62750d8f49952b7e8673c57696cd7856db",
      "assetIds": [
        "55464657044963196816950587289035428064568320970692304673817341489687790884865",
        "55464657044963196816950587289035428064568320970692304673817341489687782494208",
        "55464657044963196816950587289035428064568320970692304673817341489687790884866",
        "55464657044963196816950587289035428064568320970692304673817341489687782494209",
        "55464657044963196816950587289035428064568320970692304673817341489687790884864"
      ]
    },
    {
      "x": 256,
      "y": 321,
      "size": 1,
      "price": "4683000000000000000000",
      "reserved": "",
      "salt": "0xf3f18301a24f0ffc45b1afd95ed2efd8c8edd557e1c985bff06be9c8606b9d14",
      "assetIds": [
        "55464657044963196816950587289035428064568320970692304673817341489687790884865",
        "55464657044963196816950587289035428064568320970692304673817341489687782494208",
        "55464657044963196816950587289035428064568320970692304673817341489687790884866",
        "55464657044963196816950587289035428064568320970692304673817341489687782494209",
        "55464657044963196816950587289035428064568320970692304673817341489687790884864"
      ]
    },
    {
      "x": 256,
      "y": 322,
      "size": 1,
      "price": "1011000000000000000000",
      "reserved": "",
      "salt": "0x440b9180c0c92c81cc89e84915f12f170c572d45172d252ed58ed9defb1c1734",
      "assetIds": []
    },
    {
      "x": 256,
      "y": 323,
      "size": 1,
      "price": "4683000000000000000000",
      "reserved": "",
      "salt": "0x264530a7fe4fe657572e366109e6ffe59308fa92dc2050ebc0bb5ec7423742d4",
      "assetIds": [
        "55464657044963196816950587289035428064568320970692304673817341489687790884865",
        "55464657044963196816950587289035428064568320970692304673817341489687782494208",
        "55464657044963196816950587289035428064568320970692304673817341489687790884866",
        "55464657044963196816950587289035428064568320970692304673817341489687782494209",
        "55464657044963196816950587289035428064568320970692304673817341489687790884864"
      ]
    },
    {
      "x": 257,
      "y": 312,
      "size": 1,
      "price": "1011000000000000000000",
      "reserved": "",
      "salt": "0x6c3176e619847b979915fa37f5192299c7f9248546b01f2f3aa0bfef128b90c2",
      "assetIds": []
    },
    {
      "x": 257,
      "y": 313,
      "size": 1,
      "price": "1011000000000000000000",
      "reserved": "",
      "salt": "0x20770381fcccbab526b7b506ea6c18328d226441319cfec21e3f824e3a198973",
      "assetIds": []
    },
    {
      "x": 257,
      "y": 314,
      "size": 1,
      "price": "1011000000000000000000",
      "reserved": "",
      "salt": "0x5fe2025e98a814530c63766e1bcb405feb46713049ebbebc3a553cbb08dcd77b",
      "assetIds": []
    },
    {
      "x": 257,
      "y": 315,
      "size": 1,
      "price": "1011000000000000000000",
      "reserved": "0x7a9fe22691c811ea339d9b73150e6911a5343dca",
      "salt": "0x685e8e1319f4bb0b1bf3f40688b29d8c10f59bf8e1529b59ddf9db0559846ba7",
      "assetIds": []
    },
    {
      "x": 257,
      "y": 316,
      "size": 1,
      "price": "1011000000000000000000",
      "reserved": "",
      "salt": "0xf660bac4f42b9f93fae8135d172433570b9d12822939d1011ba83c8f26ea2268",
      "assetIds": []
    },
    {
      "x": 257,
      "y": 317,
      "size": 1,
      "price": "4683000000000000000000",
      "reserved": "",
      "salt": "0x75f6ba4a7ab66d8d788d16bc80b3634089e6f73c533796bbb5a96c33f76170cc",
      "assetIds": [
        "55464657044963196816950587289035428064568320970692304673817341489687790884865",
        "55464657044963196816950587289035428064568320970692304673817341489687782494208",
        "55464657044963196816950587289035428064568320970692304673817341489687790884866",
        "55464657044963196816950587289035428064568320970692304673817341489687782494209",
        "55464657044963196816950587289035428064568320970692304673817341489687790884864"
      ]
    },
    {
      "x": 257,
      "y": 318,
      "size": 1,
      "price": "4683000000000000000000",
      "reserved": "",
      "salt": "0x33c0f13d88209fe20008a53655896bd231799201f49020c96b4f7abc578f85e0",
      "assetIds": [
        "55464657044963196816950587289035428064568320970692304673817341489687790884865",
        "55464657044963196816950587289035428064568320970692304673817341489687782494208",
        "55464657044963196816950587289035428064568320970692304673817341489687790884866",
        "55464657044963196816950587289035428064568320970692304673817341489687782494209",
        "55464657044963196816950587289035428064568320970692304673817341489687790884864"
      ]
    },
    {
      "x": 257,
      "y": 319,
      "size": 1,
      "price": "4683000000000000000000",
      "reserved": "",
      "salt": "0x188008ccb7caded9ad1482a7a30ad2e208f5713861a3d609d8dfdcf91fdebb55",
      "assetIds": [
        "55464657044963196816950587289035428064568320970692304673817341489687790884865",
        "55464657044963196816950587289035428064568320970692304673817341489687782494208",
        "55464657044963196816950587289035428064568320970692304673817341489687790884866",
        "55464657044963196816950587289035428064568320970692304673817341489687782494209",
        "55464657044963196816950587289035428064568320970692304673817341489687790884864"
      ]
    },
    {
      "x": 257,
      "y": 320,
      "size": 1,
      "price": "4683000000000000000000",
      "reserved": "",
      "salt": "0x9c5ee2684128bf9ef68326fb33654f530bb0c4bd485cf067029868654640e470",
      "assetIds": [
        "55464657044963196816950587289035428064568320970692304673817341489687790884865",
        "55464657044963196816950587289035428064568320970692304673817341489687782494208",
        "55464657044963196816950587289035428064568320970692304673817341489687790884866",
        "55464657044963196816950587289035428064568320970692304673817341489687782494209",
        "55464657044963196816950587289035428064568320970692304673817341489687790884864"
      ]
    },
    {
      "x": 257,
      "y": 321,
      "size": 1,
      "price": "4683000000000000000000",
      "reserved": "",
      "salt": "0xe9969a5c4c830ddf226077f74770722d4287cec323dde50e1adfa69313a74695",
      "assetIds": [
        "55464657044963196816950587289035428064568320970692304673817341489687790884865",
        "55464657044963196816950587289035428064568320970692304673817341489687782494208",
        "55464657044963196816950587289035428064568320970692304673817341489687790884866",
        "55464657044963196816950587289035428064568320970692304673817341489687782494209",
        "55464657044963196816950587289035428064568320970692304673817341489687790884864"
      ]
    },
    {
      "x": 257,
      "y": 322,
      "size": 1,
      "price": "4683000000000000000000",
      "reserved": "",
      "salt": "0xe49cef68f5b05a8183dfbd3cc49bd7b9e1ea3cbfb1dc31e3055467b7e41dab75",
      "assetIds": [
        "55464657044963196816950587289035428064568320970692304673817341489687790884865",
        "55464657044963196816950587289035428064568320970692304673817341489687782494208",
        "55464657044963196816950587289035428064568320970692304673817341489687790884866",
        "55464657044963196816950587289035428064568320970692304673817341489687782494209",
        "55464657044963196816950587289035428064568320970692304673817341489687790884864"
      ]
    },
    {
      "x": 257,
      "y": 323,
      "size": 1,
      "price": "4683000000000000000000",
      "reserved": "",
      "salt": "0xbd9cc8ddaf742f36ae778989f91f3c7152287f422d2f8dc1991a6872dd579226",
      "assetIds": [
        "55464657044963196816950587289035428064568320970692304673817341489687790884865",
        "55464657044963196816950587289035428064568320970692304673817341489687782494208",
        "55464657044963196816950587289035428064568320970692304673817341489687790884866",
        "55464657044963196816950587289035428064568320970692304673817341489687782494209",
        "55464657044963196816950587289035428064568320970692304673817341489687790884864"
      ]
    },
    {
      "x": 258,
      "y": 312,
      "size": 1,
      "price": "1011000000000000000000",
      "reserved": "",
      "salt": "0x681e1eba599ebf0dd4bc33abe445699e0749bf9ba84671d4dcfbc093b083e223",
      "assetIds": []
    },
    {
      "x": 258,
      "y": 313,
      "size": 1,
      "price": "1011000000000000000000",
      "reserved": "",
      "salt": "0x6598e11771da6c95011cb58825927580b757d3d89fc14132103b240fd4e83fe1",
      "assetIds": []
    },
    {
      "x": 258,
      "y": 314,
      "size": 1,
      "price": "1011000000000000000000",
      "reserved": "",
      "salt": "0x52091b7788399d3682268ca3b88cc2c8aec541af7739acc4021dd83ea9d72fd2",
      "assetIds": []
    },
    {
      "x": 258,
      "y": 315,
      "size": 1,
      "price": "1011000000000000000000",
      "reserved": "",
      "salt": "0x8ee14839b4294005aa0f6c89bbb7c215667c61beb5792e07e55c5497822e2804",
      "assetIds": []
    },
    {
      "x": 258,
      "y": 316,
      "size": 1,
      "price": "1011000000000000000000",
      "reserved": "",
      "salt": "0x540e5387ec970561b32208367d1ab79b30820debd32c9ad187f65ebee808ea5f",
      "assetIds": []
    },
    {
      "x": 258,
      "y": 317,
      "size": 1,
      "price": "4683000000000000000000",
      "reserved": "",
      "salt": "0x0b88ea80b5d28afa128cf4d25f8cb403a9f0a9cab746037076fd529e30a663e1",
      "assetIds": [
        "55464657044963196816950587289035428064568320970692304673817341489687790884865",
        "55464657044963196816950587289035428064568320970692304673817341489687782494208",
        "55464657044963196816950587289035428064568320970692304673817341489687790884866",
        "55464657044963196816950587289035428064568320970692304673817341489687782494209",
        "55464657044963196816950587289035428064568320970692304673817341489687790884864"
      ]
    },
    {
      "x": 259,
      "y": 312,
      "size": 1,
      "price": "1011000000000000000000",
      "reserved": "",
      "salt": "0x571e380177c04624b135c5d7de76bc1c7e9f8c9b4650af01599a4b5bc4bda49e",
      "assetIds": []
    },
    {
      "x": 259,
      "y": 313,
      "size": 1,
      "price": "1011000000000000000000",
      "reserved": "0x7a9fe22691c811ea339d9b73150e6911a5343dca",
      "salt": "0x2b592cc1565e74937a841883da660dd147c2679373ddb2aa5acc1e1622d0850e",
      "assetIds": []
    },
    {
      "x": 259,
      "y": 314,
      "size": 1,
      "price": "1011000000000000000000",
      "reserved": "",
      "salt": "0x1278ad23f425ddc089209eeb4808966c4525a6af2e98b7cabe25fbe7ec91da01",
      "assetIds": []
    },
    {
      "x": 259,
      "y": 315,
      "size": 1,
      "price": "1011000000000000000000",
      "reserved": "",
      "salt": "0xd7b0f6867ccf2851b440298beedaed163398692a21e5adf7a20ac086ff1fd5fe",
      "assetIds": []
    },
    {
      "x": 259,
      "y": 316,
      "size": 1,
      "price": "4683000000000000000000",
      "reserved": "",
      "salt": "0x7a6fd5a6d7d02597d438ce7339f02367500e89791749f6ac7dbcef7b83ac3907",
      "assetIds": [
        "55464657044963196816950587289035428064568320970692304673817341489687790884865",
        "55464657044963196816950587289035428064568320970692304673817341489687782494208",
        "55464657044963196816950587289035428064568320970692304673817341489687790884866",
        "55464657044963196816950587289035428064568320970692304673817341489687782494209",
        "55464657044963196816950587289035428064568320970692304673817341489687790884864"
      ]
    },
    {
      "x": 259,
      "y": 317,
      "size": 1,
      "price": "4683000000000000000000",
      "reserved": "",
      "salt": "0x50345bdc77d516ca5998271ac237fbad155bf8f4299128a8fadd5bd012539bdd",
      "assetIds": [
        "55464657044963196816950587289035428064568320970692304673817341489687790884865",
        "55464657044963196816950587289035428064568320970692304673817341489687782494208",
        "55464657044963196816950587289035428064568320970692304673817341489687790884866",
        "55464657044963196816950587289035428064568320970692304673817341489687782494209",
        "55464657044963196816950587289035428064568320970692304673817341489687790884864"
      ]
    },
    {
      "x": 260,
      "y": 312,
      "size": 1,
      "price": "1011000000000000000000",
      "reserved": "",
      "salt": "0x8644d2b2a018db7f1c173b150850a1c7e73f2ac06fb7b83beb61e66a835fa41f",
      "assetIds": []
    },
    {
      "x": 260,
      "y": 313,
      "size": 1,
      "price": "1011000000000000000000",
      "reserved": "",
      "salt": "0x092a01e9b3727773be4c6e1b460cbd25bf41be0b3df4b18875cfb10b8c182de1",
      "assetIds": []
    },
    {
      "x": 260,
      "y": 314,
      "size": 1,
      "price": "1011000000000000000000",
      "reserved": "",
      "salt": "0x49233d7118d765ed9cfe181cc058deeb4f6c1a2a72a91e0bf4a04441fe169517",
      "assetIds": []
    },
    {
      "x": 260,
      "y": 315,
      "size": 1,
      "price": "1011000000000000000000",
      "reserved": "",
      "salt": "0xaa63d77d0aabc57c744fad1aa8978e4b23397f130a8e23e62fee2c7075492a93",
      "assetIds": []
    },
    {
      "x": 260,
      "y": 316,
      "size": 1,
      "price": "4683000000000000000000",
      "reserved": "",
      "salt": "0xab1b8239c3ef87abc7c785613d6e1759741a8dfa80536ce189615ccc5f835cda",
      "assetIds": [
        "55464657044963196816950587289035428064568320970692304673817341489687790884865",
        "55464657044963196816950587289035428064568320970692304673817341489687782494208",
        "55464657044963196816950587289035428064568320970692304673817341489687790884866",
        "55464657044963196816950587289035428064568320970692304673817341489687782494209",
        "55464657044963196816950587289035428064568320970692304673817341489687790884864"
      ]
    },
    {
      "x": 260,
      "y": 317,
      "size": 1,
      "price": "4683000000000000000000",
      "reserved": "",
      "salt": "0x52b5ea3d97afa8fba36fbb40001579f469e1512a0ec6ab2aca4168eab1d1ce67",
      "assetIds": [
        "55464657044963196816950587289035428064568320970692304673817341489687790884865",
        "55464657044963196816950587289035428064568320970692304673817341489687782494208",
        "55464657044963196816950587289035428064568320970692304673817341489687790884866",
        "55464657044963196816950587289035428064568320970692304673817341489687782494209",
        "55464657044963196816950587289035428064568320970692304673817341489687790884864"
      ]
    },
    {
      "x": 261,
      "y": 312,
      "size": 1,
      "price": "1011000000000000000000",
      "reserved": "",
      "salt": "0x72f37406237fdb915f9807c70b735cd1522694892cf4cc6257bfdb980ddf679c",
      "assetIds": []
    },
    {
      "x": 261,
      "y": 313,
      "size": 1,
      "price": "1011000000000000000000",
      "reserved": "0x7a9fe22691c811ea339d9b73150e6911a5343dca",
      "salt": "0x755dc301c338b4e9411f0667d5157bd811ba7fef2c6ac06620d45f64c95bb14e",
      "assetIds": []
    },
    {
      "x": 261,
      "y": 314,
      "size": 1,
      "price": "1011000000000000000000",
      "reserved": "",
      "salt": "0xad7fc0f4078d594f39e9f2904134dea8c8f1bacdd600d549b1509909a0aeee9b",
      "assetIds": []
    },
    {
      "x": 261,
      "y": 315,
      "size": 1,
      "price": "1011000000000000000000",
      "reserved": "",
      "salt": "0xa422e178af357e1173940c725f04bd1bbbfe60d983c927f865a77a0050a91ff4",
      "assetIds": []
    },
    {
      "x": 261,
      "y": 316,
      "size": 1,
      "price": "4683000000000000000000",
      "reserved": "",
      "salt": "0x6c8e5e8320209d9ffbddf082ff40e378829ce69eb2e0aee0067faa658cb68903",
      "assetIds": [
        "55464657044963196816950587289035428064568320970692304673817341489687790884865",
        "55464657044963196816950587289035428064568320970692304673817341489687782494208",
        "55464657044963196816950587289035428064568320970692304673817341489687790884866",
        "55464657044963196816950587289035428064568320970692304673817341489687782494209",
        "55464657044963196816950587289035428064568320970692304673817341489687790884864"
      ]
    },
    {
      "x": 261,
      "y": 317,
      "size": 1,
      "price": "4683000000000000000000",
      "reserved": "",
      "salt": "0x897e4eb1a125f5cd27ecb5e8d18aa012fdf8e6065dcb1b3f73ce8a7b5c5e05eb",
      "assetIds": [
        "55464657044963196816950587289035428064568320970692304673817341489687790884865",
        "55464657044963196816950587289035428064568320970692304673817341489687782494208",
        "55464657044963196816950587289035428064568320970692304673817341489687790884866",
        "55464657044963196816950587289035428064568320970692304673817341489687782494209",
        "55464657044963196816950587289035428064568320970692304673817341489687790884864"
      ]
    },
    {
      "x": 262,
      "y": 312,
      "size": 1,
      "price": "1011000000000000000000",
      "reserved": "",
      "salt": "0x2b75e2beb580f89b8892a2c6f1e50137e88bc07ae85723f01e4ea645c8e2affb",
      "assetIds": []
    },
    {
      "x": 262,
      "y": 313,
      "size": 1,
      "price": "1011000000000000000000",
      "reserved": "",
      "salt": "0x56d0221f1bde0270472a54e836b8330f807dd45dde6ca90cd33e98d902c1437a",
      "assetIds": []
    },
    {
      "x": 262,
      "y": 314,
      "size": 1,
      "price": "1011000000000000000000",
      "reserved": "",
      "salt": "0xdfdff963ef9236001ddbab8a042b8bd453e45de86b7822403291cefe96533737",
      "assetIds": []
    },
    {
      "x": 262,
      "y": 315,
      "size": 1,
      "price": "1011000000000000000000",
      "reserved": "",
      "salt": "0xb6c88db97e72c6e36292e8512bd04c7ff1c3767437d83b5341ffc2e9849226c2",
      "assetIds": []
    },
    {
      "x": 262,
      "y": 316,
      "size": 1,
      "price": "4683000000000000000000",
      "reserved": "",
      "salt": "0x8641fef05f83335ec18689932d7c2a019d4d74e579dc50f0483e4c941ff153fe",
      "assetIds": [
        "55464657044963196816950587289035428064568320970692304673817341489687790884865",
        "55464657044963196816950587289035428064568320970692304673817341489687782494208",
        "55464657044963196816950587289035428064568320970692304673817341489687790884866",
        "55464657044963196816950587289035428064568320970692304673817341489687782494209",
        "55464657044963196816950587289035428064568320970692304673817341489687790884864"
      ]
    },
    {
      "x": 262,
      "y": 317,
      "size": 1,
      "price": "4683000000000000000000",
      "reserved": "",
      "salt": "0x02e93fc17a0263bb452dbfa1220ad8bf7a3ac1bdacbff73344673db91f0002cf",
      "assetIds": [
        "55464657044963196816950587289035428064568320970692304673817341489687790884865",
        "55464657044963196816950587289035428064568320970692304673817341489687782494208",
        "55464657044963196816950587289035428064568320970692304673817341489687790884866",
        "55464657044963196816950587289035428064568320970692304673817341489687782494209",
        "55464657044963196816950587289035428064568320970692304673817341489687790884864"
      ]
    },
    {
      "x": 263,
      "y": 312,
      "size": 1,
      "price": "1011000000000000000000",
      "reserved": "",
      "salt": "0xf6f00cafe06125bafdd7db214f3eb654dc61f563eb25395881b72169d9c85bec",
      "assetIds": []
    },
    {
      "x": 263,
      "y": 313,
      "size": 1,
      "price": "1011000000000000000000",
      "reserved": "0x7a9fe22691c811ea339d9b73150e6911a5343dca",
      "salt": "0xf7d45e7c48d83423dd2b0e220437a99f3b5d6f75656c7de937c274be2a39574b",
      "assetIds": []
    },
    {
      "x": 263,
      "y": 314,
      "size": 1,
      "price": "1011000000000000000000",
      "reserved": "",
      "salt": "0xc4d5fcd9f72a4aa159a6aaebc97b1cac34b32b9fe2842a83509a2ad5685fe847",
      "assetIds": []
    },
    {
      "x": 263,
      "y": 315,
      "size": 1,
      "price": "1011000000000000000000",
      "reserved": "0x7a9fe22691c811ea339d9b73150e6911a5343dca",
      "salt": "0x7e9238d71ed5ee4a21de2a755b59080d69a78b48f959046863987908d119417c",
      "assetIds": []
    },
    {
      "x": 263,
      "y": 316,
      "size": 1,
      "price": "4683000000000000000000",
      "reserved": "",
      "salt": "0xc7285095006b1500c13b22389bbfc69e1bc5be58dc5684bb22907e9d12f302c1",
      "assetIds": [
        "55464657044963196816950587289035428064568320970692304673817341489687790884865",
        "55464657044963196816950587289035428064568320970692304673817341489687782494208",
        "55464657044963196816950587289035428064568320970692304673817341489687790884866",
        "55464657044963196816950587289035428064568320970692304673817341489687782494209",
        "55464657044963196816950587289035428064568320970692304673817341489687790884864"
      ]
    },
    {
      "x": 263,
      "y": 317,
      "size": 1,
      "price": "4683000000000000000000",
      "reserved": "",
      "salt": "0xf000b79d4a2a42d0cc6edebc3eb2ae49708b3bb2da154208095f75d89da0bf9e",
      "assetIds": [
        "55464657044963196816950587289035428064568320970692304673817341489687790884865",
        "55464657044963196816950587289035428064568320970692304673817341489687782494208",
        "55464657044963196816950587289035428064568320970692304673817341489687790884866",
        "55464657044963196816950587289035428064568320970692304673817341489687782494209",
        "55464657044963196816950587289035428064568320970692304673817341489687790884864"
      ]
    },
    {
      "x": 264,
      "y": 312,
      "size": 1,
      "price": "1011000000000000000000",
      "reserved": "0x7a9fe22691c811ea339d9b73150e6911a5343dca",
      "salt": "0x7d64750a715c46daa326e72d870ef99fe2be786934f1bb1ab33d6a8dd7180793",
      "assetIds": []
    },
    {
      "x": 264,
      "y": 313,
      "size": 1,
      "price": "1011000000000000000000",
      "reserved": "",
      "salt": "0x5f04d5b184c329ab55434c2c86449d2e9c7a155f36d4261f752ced76f9cb06dd",
      "assetIds": []
    },
    {
      "x": 264,
      "y": 314,
      "size": 1,
      "price": "1011000000000000000000",
      "reserved": "",
      "salt": "0xf4e0cd38899975d609b9e165db8e0a17e30fe91da6681caad4940c21ec48a878",
      "assetIds": []
    },
    {
      "x": 264,
      "y": 315,
      "size": 1,
      "price": "1011000000000000000000",
      "reserved": "0x7a9fe22691c811ea339d9b73150e6911a5343dca",
      "salt": "0xf1338cc78379fde6d0918adb77c807f6153851af11fa14e12801b1c05b87fcb8",
      "assetIds": []
    },
    {
      "x": 264,
      "y": 316,
      "size": 1,
      "price": "4683000000000000000000",
      "reserved": "",
      "salt": "0x3ae1e377bec24bade549aad1d246b9bf0e910640fc112a52652ac4f1cd86ef61",
      "assetIds": [
        "55464657044963196816950587289035428064568320970692304673817341489687790884865",
        "55464657044963196816950587289035428064568320970692304673817341489687782494208",
        "55464657044963196816950587289035428064568320970692304673817341489687790884866",
        "55464657044963196816950587289035428064568320970692304673817341489687782494209",
        "55464657044963196816950587289035428064568320970692304673817341489687790884864"
      ]
    },
    {
      "x": 264,
      "y": 317,
      "size": 1,
      "price": "4683000000000000000000",
      "reserved": "",
      "salt": "0xb2bd67f3ec6d54f999256d37ea6d9aa306391c6faa62766bc088d263649f5e7c",
      "assetIds": [
        "55464657044963196816950587289035428064568320970692304673817341489687790884865",
        "55464657044963196816950587289035428064568320970692304673817341489687782494208",
        "55464657044963196816950587289035428064568320970692304673817341489687790884866",
        "55464657044963196816950587289035428064568320970692304673817341489687782494209",
        "55464657044963196816950587289035428064568320970692304673817341489687790884864"
      ]
    },
    {
      "x": 264,
      "y": 318,
      "size": 1,
      "price": "4683000000000000000000",
      "reserved": "",
      "salt": "0xe2499b487b42be27e490300683e3a1a41b8c5243deac7728d6820f7d3596e058",
      "assetIds": [
        "55464657044963196816950587289035428064568320970692304673817341489687790884865",
        "55464657044963196816950587289035428064568320970692304673817341489687782494208",
        "55464657044963196816950587289035428064568320970692304673817341489687790884866",
        "55464657044963196816950587289035428064568320970692304673817341489687782494209",
        "55464657044963196816950587289035428064568320970692304673817341489687790884864"
      ]
    },
    {
      "x": 264,
      "y": 319,
      "size": 1,
      "price": "4683000000000000000000",
      "reserved": "",
      "salt": "0x4e4f3bc8333d61db3cdfe3e286e621385290e66be35e6a1e880f7fd7e87b1fcd",
      "assetIds": [
        "55464657044963196816950587289035428064568320970692304673817341489687790884865",
        "55464657044963196816950587289035428064568320970692304673817341489687782494208",
        "55464657044963196816950587289035428064568320970692304673817341489687790884866",
        "55464657044963196816950587289035428064568320970692304673817341489687782494209",
        "55464657044963196816950587289035428064568320970692304673817341489687790884864"
      ]
    },
    {
      "x": 264,
      "y": 320,
      "size": 1,
      "price": "4683000000000000000000",
      "reserved": "",
      "salt": "0x2114763f2144a5a3a5dec58643b14a92e3638a67b2c4bb6edd7e58ac810b5f9c",
      "assetIds": [
        "55464657044963196816950587289035428064568320970692304673817341489687790884865",
        "55464657044963196816950587289035428064568320970692304673817341489687782494208",
        "55464657044963196816950587289035428064568320970692304673817341489687790884866",
        "55464657044963196816950587289035428064568320970692304673817341489687782494209",
        "55464657044963196816950587289035428064568320970692304673817341489687790884864"
      ]
    },
    {
      "x": 264,
      "y": 321,
      "size": 1,
      "price": "4683000000000000000000",
      "reserved": "",
      "salt": "0x8cddebb50b82009269df3a4723948228bcaff54aea81f303625693c46ba6ca96",
      "assetIds": [
        "55464657044963196816950587289035428064568320970692304673817341489687790884865",
        "55464657044963196816950587289035428064568320970692304673817341489687782494208",
        "55464657044963196816950587289035428064568320970692304673817341489687790884866",
        "55464657044963196816950587289035428064568320970692304673817341489687782494209",
        "55464657044963196816950587289035428064568320970692304673817341489687790884864"
      ]
    },
    {
      "x": 264,
      "y": 322,
      "size": 1,
      "price": "4683000000000000000000",
      "reserved": "",
      "salt": "0x7dd3feadc4d1e763ee17eb4eb2058341da708b907ac719d789ec03410a27eaaf",
      "assetIds": [
        "55464657044963196816950587289035428064568320970692304673817341489687790884865",
        "55464657044963196816950587289035428064568320970692304673817341489687782494208",
        "55464657044963196816950587289035428064568320970692304673817341489687790884866",
        "55464657044963196816950587289035428064568320970692304673817341489687782494209",
        "55464657044963196816950587289035428064568320970692304673817341489687790884864"
      ]
    },
    {
      "x": 264,
      "y": 323,
      "size": 1,
      "price": "4683000000000000000000",
      "reserved": "",
      "salt": "0x68d62f696afe27a8e2b434719d443cbba9f1e7104bea6acb39b4318af9967733",
      "assetIds": [
        "55464657044963196816950587289035428064568320970692304673817341489687790884865",
        "55464657044963196816950587289035428064568320970692304673817341489687782494208",
        "55464657044963196816950587289035428064568320970692304673817341489687790884866",
        "55464657044963196816950587289035428064568320970692304673817341489687782494209",
        "55464657044963196816950587289035428064568320970692304673817341489687790884864"
      ]
    },
    {
      "x": 265,
      "y": 312,
      "size": 1,
      "price": "1011000000000000000000",
      "reserved": "",
      "salt": "0xac9d49f098c58ec9a4cbb9c436876c7e81a2ad4b418ce5082be8b9e0b3ad864e",
      "assetIds": []
    },
    {
      "x": 265,
      "y": 313,
      "size": 1,
      "price": "1011000000000000000000",
      "reserved": "",
      "salt": "0xe26a3c7708d12f66e77f2fcbc6a598de3228e4bb9fbc9f9024d4cefab96bc5f2",
      "assetIds": []
    },
    {
      "x": 265,
      "y": 314,
      "size": 1,
      "price": "1011000000000000000000",
      "reserved": "",
      "salt": "0x2d956143d73797fff2152d0ed24285a1e182eac61313b1587cb6ee5e5dc4f4aa",
      "assetIds": []
    },
    {
      "x": 265,
      "y": 315,
      "size": 1,
      "price": "1011000000000000000000",
      "reserved": "",
      "salt": "0x4d95c07512bed91bd13428c861411c7d17020367dda340213dedfed6d5cfba68",
      "assetIds": []
    },
    {
      "x": 265,
      "y": 316,
      "size": 1,
      "price": "1011000000000000000000",
      "reserved": "",
      "salt": "0xdd226b98893084b09569904b6848d075a04fc9a11ea5668a866f3864458685b8",
      "assetIds": []
    },
    {
      "x": 265,
      "y": 317,
      "size": 1,
      "price": "1011000000000000000000",
      "reserved": "",
      "salt": "0x400ed97132267fac0a43e892aab537bbd6f8b83962a902ea693ab3a2c9525908",
      "assetIds": []
    },
    {
      "x": 265,
      "y": 318,
      "size": 1,
      "price": "1011000000000000000000",
      "reserved": "",
      "salt": "0xfcd268494142b8f2181a5f77114a50ca52f256dea8f2ad47c08f7e95e89e8cc3",
      "assetIds": []
    },
    {
      "x": 265,
      "y": 319,
      "size": 1,
      "price": "1011000000000000000000",
      "reserved": "",
      "salt": "0xc91a7c7cdddd969d7caac8b5b67766248ff16767693b485c381c8b23c4757de9",
      "assetIds": []
    },
    {
      "x": 265,
      "y": 320,
      "size": 1,
      "price": "1011000000000000000000",
      "reserved": "",
      "salt": "0xf90617d612e095ecbf2aec534ee4ae25f37239043d133a44f54ba87499681a1f",
      "assetIds": []
    },
    {
      "x": 265,
      "y": 321,
      "size": 1,
      "price": "1011000000000000000000",
      "reserved": "0x7a9fe22691c811ea339d9b73150e6911a5343dca",
      "salt": "0x927743d21903142cf84ad69cc0663606d69a2fd5da408316eb61f958d2d0d4b9",
      "assetIds": []
    },
    {
      "x": 265,
      "y": 322,
      "size": 1,
      "price": "4683000000000000000000",
      "reserved": "",
      "salt": "0xc1c462122585a32893710732f16833313841e28d4a749f9263e2dcbc8844a326",
      "assetIds": [
        "55464657044963196816950587289035428064568320970692304673817341489687790884865",
        "55464657044963196816950587289035428064568320970692304673817341489687782494208",
        "55464657044963196816950587289035428064568320970692304673817341489687790884866",
        "55464657044963196816950587289035428064568320970692304673817341489687782494209",
        "55464657044963196816950587289035428064568320970692304673817341489687790884864"
      ]
    },
    {
      "x": 265,
      "y": 323,
      "size": 1,
      "price": "4683000000000000000000",
      "reserved": "",
      "salt": "0x46ca46406c4602dfd078d34ba5074c45f0eec06c893a3eecc3c72ef80d3daa7d",
      "assetIds": [
        "55464657044963196816950587289035428064568320970692304673817341489687790884865",
        "55464657044963196816950587289035428064568320970692304673817341489687782494208",
        "55464657044963196816950587289035428064568320970692304673817341489687790884866",
        "55464657044963196816950587289035428064568320970692304673817341489687782494209",
        "55464657044963196816950587289035428064568320970692304673817341489687790884864"
      ]
    },
    {
      "x": 266,
      "y": 312,
      "size": 1,
      "price": "1011000000000000000000",
      "reserved": "",
      "salt": "0x73ffe6641d39c532d963de0740bc729f6983ba5d5e15acbede07994e2795b078",
      "assetIds": []
    },
    {
      "x": 266,
      "y": 313,
      "size": 1,
      "price": "1011000000000000000000",
      "reserved": "",
      "salt": "0xc460b6fddaad64d2210084901428da32782111fa7a16b26a935cde49e21caf7f",
      "assetIds": []
    },
    {
      "x": 266,
      "y": 314,
      "size": 1,
      "price": "1011000000000000000000",
      "reserved": "",
      "salt": "0xf631270eaa89a143a8db07d2383537d04666756b6813a84ae56cf54a972c02b8",
      "assetIds": []
    },
    {
      "x": 266,
      "y": 315,
      "size": 1,
      "price": "1011000000000000000000",
      "reserved": "",
      "salt": "0x58b520ea13d416ea69faadc386b4ccb73ffd81b4a35b0039305df4f0a91d83d8",
      "assetIds": []
    },
    {
      "x": 266,
      "y": 316,
      "size": 1,
      "price": "1011000000000000000000",
      "reserved": "",
      "salt": "0x463f0e26a800eeb6deb3134046713bfdef5a0360b4798a9f469998e4b7fa2b32",
      "assetIds": []
    },
    {
      "x": 266,
      "y": 317,
      "size": 1,
      "price": "1011000000000000000000",
      "reserved": "0x7a9fe22691c811ea339d9b73150e6911a5343dca",
      "salt": "0xe276ab843cf17cf35c4512316b927135be7200d60f7fb497e8b4df129ce1fac5",
      "assetIds": []
    },
    {
      "x": 266,
      "y": 318,
      "size": 1,
      "price": "1011000000000000000000",
      "reserved": "",
      "salt": "0xf7d79b89cd3e2ff3ee1cd9c9147dbe6fb7dd2b61ee0bee6c8790c2c594199224",
      "assetIds": []
    },
    {
      "x": 266,
      "y": 319,
      "size": 1,
      "price": "1011000000000000000000",
      "reserved": "",
      "salt": "0xc5d9c24ff9b07b5fab26a342bfe36941323ea3f60113309093dba23f103386ef",
      "assetIds": []
    },
    {
      "x": 266,
      "y": 320,
      "size": 1,
      "price": "1011000000000000000000",
      "reserved": "",
      "salt": "0x33e11bcde980823a4af71da1982fc07db9ae557c2d37921dfcabbc912ad8b1d3",
      "assetIds": []
    },
    {
      "x": 266,
      "y": 321,
      "size": 1,
      "price": "1011000000000000000000",
      "reserved": "",
      "salt": "0xf77992d7fc9929a369803e4853f89258f15f18fc558fa0b7ef91d37566057541",
      "assetIds": []
    },
    {
      "x": 266,
      "y": 322,
      "size": 1,
      "price": "4683000000000000000000",
      "reserved": "",
      "salt": "0x43e270a6c6ae39fba4a3ce6ab223eb21fb21a4cb0dd4da1ee8d2422f0b47ac40",
      "assetIds": [
        "55464657044963196816950587289035428064568320970692304673817341489687790884865",
        "55464657044963196816950587289035428064568320970692304673817341489687782494208",
        "55464657044963196816950587289035428064568320970692304673817341489687790884866",
        "55464657044963196816950587289035428064568320970692304673817341489687782494209",
        "55464657044963196816950587289035428064568320970692304673817341489687790884864"
      ]
    },
    {
      "x": 266,
      "y": 323,
      "size": 1,
      "price": "4683000000000000000000",
      "reserved": "",
      "salt": "0x4284d06c5328a653802248ec6b408f73ca533c9f2a95c8562542174d7cb2a503",
      "assetIds": [
        "55464657044963196816950587289035428064568320970692304673817341489687790884865",
        "55464657044963196816950587289035428064568320970692304673817341489687782494208",
        "55464657044963196816950587289035428064568320970692304673817341489687790884866",
        "55464657044963196816950587289035428064568320970692304673817341489687782494209",
        "55464657044963196816950587289035428064568320970692304673817341489687790884864"
      ]
    },
    {
      "x": 267,
      "y": 312,
      "size": 1,
      "price": "1011000000000000000000",
      "reserved": "",
      "salt": "0x847a3ae5354e04b0732ba8dc95de74af66b13b5e83c23b4aa0ea4e8991fd3f77",
      "assetIds": []
    },
    {
      "x": 267,
      "y": 313,
      "size": 1,
      "price": "1011000000000000000000",
      "reserved": "",
      "salt": "0xc3a25254d68359f9a7259cfe4fb81aa625c535507b277f6001ffaa5bc9c56e0b",
      "assetIds": []
    },
    {
      "x": 267,
      "y": 314,
      "size": 1,
      "price": "1011000000000000000000",
      "reserved": "",
      "salt": "0x9d0471946653f3aa6b0d9ce29c145927c6143e55a81728c43b8cf08b2de6abc2",
      "assetIds": []
    },
    {
      "x": 267,
      "y": 315,
      "size": 1,
      "price": "1011000000000000000000",
      "reserved": "",
      "salt": "0xacc82b81f5b69683fd6343dc0955f3764a64287ad311b47b2a51c3e2c6d988fb",
      "assetIds": []
    },
    {
      "x": 267,
      "y": 316,
      "size": 1,
      "price": "1011000000000000000000",
      "reserved": "",
      "salt": "0xcff083ddf28fbb798ee40590632d9dba28af2036c5b00a37d0ea5b72e20f46f6",
      "assetIds": []
    },
    {
      "x": 267,
      "y": 317,
      "size": 1,
      "price": "1011000000000000000000",
      "reserved": "",
      "salt": "0xbe3b9ac1dff3a79d6980350b11fee407c7a170643b3b24107f94394280f61f0c",
      "assetIds": []
    },
    {
      "x": 267,
      "y": 318,
      "size": 1,
      "price": "1011000000000000000000",
      "reserved": "",
      "salt": "0x57b2e69ef548d2d8acc2051a9a3c5cf9683e08d9fb5229e12ce66cba4c5aff65",
      "assetIds": []
    },
    {
      "x": 267,
      "y": 319,
      "size": 1,
      "price": "1011000000000000000000",
      "reserved": "0x7a9fe22691c811ea339d9b73150e6911a5343dca",
      "salt": "0x5b6de71a0e48591d5ef40d00eaf16e6ec003ce073d35db3f90ed956372c00abd",
      "assetIds": []
    },
    {
      "x": 267,
      "y": 320,
      "size": 1,
      "price": "1011000000000000000000",
      "reserved": "0x7a9fe22691c811ea339d9b73150e6911a5343dca",
      "salt": "0x93e73e5280ca211798b41182dfee66823c3715d7477cca15e9928024ca767581",
      "assetIds": []
    },
    {
      "x": 267,
      "y": 321,
      "size": 1,
      "price": "4683000000000000000000",
      "reserved": "",
      "salt": "0xd30194268e9ccb739ef9e991d18575dd362d8e2aa2403b70877ff25cf09e4dd7",
      "assetIds": [
        "55464657044963196816950587289035428064568320970692304673817341489687790884865",
        "55464657044963196816950587289035428064568320970692304673817341489687782494208",
        "55464657044963196816950587289035428064568320970692304673817341489687790884866",
        "55464657044963196816950587289035428064568320970692304673817341489687782494209",
        "55464657044963196816950587289035428064568320970692304673817341489687790884864"
      ]
    },
    {
      "x": 267,
      "y": 322,
      "size": 1,
      "price": "4683000000000000000000",
      "reserved": "",
      "salt": "0x62991d3b0ed75a2a93184aab411a07df9b70931f8f446d31c0eaeaa110fa9339",
      "assetIds": [
        "55464657044963196816950587289035428064568320970692304673817341489687790884865",
        "55464657044963196816950587289035428064568320970692304673817341489687782494208",
        "55464657044963196816950587289035428064568320970692304673817341489687790884866",
        "55464657044963196816950587289035428064568320970692304673817341489687782494209",
        "55464657044963196816950587289035428064568320970692304673817341489687790884864"
      ]
    },
    {
      "x": 267,
      "y": 323,
      "size": 1,
      "price": "4683000000000000000000",
      "reserved": "",
      "salt": "0xcd0a5d89058bd96879c160c2324368d1480763bd92fd25359c09415f02d43b41",
      "assetIds": [
        "55464657044963196816950587289035428064568320970692304673817341489687790884865",
        "55464657044963196816950587289035428064568320970692304673817341489687782494208",
        "55464657044963196816950587289035428064568320970692304673817341489687790884866",
        "55464657044963196816950587289035428064568320970692304673817341489687782494209",
        "55464657044963196816950587289035428064568320970692304673817341489687790884864"
      ]
    },
    {
      "x": 268,
      "y": 312,
      "size": 1,
      "price": "1011000000000000000000",
      "reserved": "",
      "salt": "0x06ace4bf3b3ef14920e7ffee83f0b06e89b5c803d1f0a173505e39a5d83cdc75",
      "assetIds": []
    },
    {
      "x": 268,
      "y": 313,
      "size": 1,
      "price": "1011000000000000000000",
      "reserved": "",
      "salt": "0xd508ada046a877eeb70298806e4822ca22dd875b89ef20a1aadf7ddf49e5aafa",
      "assetIds": []
    },
    {
      "x": 268,
      "y": 314,
      "size": 1,
      "price": "1011000000000000000000",
      "reserved": "",
      "salt": "0x9a90b68d33bb463cc22621a4b6bd4ddffbd3665511dde483bdd2304315cc0a1f",
      "assetIds": []
    },
    {
      "x": 268,
      "y": 315,
      "size": 1,
      "price": "1011000000000000000000",
      "reserved": "",
      "salt": "0x3bb91df646fc06afa338dc7d5fae23240b3ea578b54f5c228ef18ea4a6147a7d",
      "assetIds": []
    },
    {
      "x": 268,
      "y": 316,
      "size": 1,
      "price": "1011000000000000000000",
      "reserved": "",
      "salt": "0x982edc35b18cf173e3c32676728e4323b0749bff10b95552c30954031f386ca3",
      "assetIds": []
    },
    {
      "x": 268,
      "y": 317,
      "size": 1,
      "price": "1011000000000000000000",
      "reserved": "",
      "salt": "0xc5bfad97319fa022dcedd676380c291cd39d7c8f240ebce59c8c0d00e64305dd",
      "assetIds": []
    },
    {
      "x": 268,
      "y": 318,
      "size": 1,
      "price": "1011000000000000000000",
      "reserved": "",
      "salt": "0x0f83778f16062e5946ef7fc036030168df7e7f971cbefc6e100b1066756657c0",
      "assetIds": []
    },
    {
      "x": 268,
      "y": 319,
      "size": 1,
      "price": "1011000000000000000000",
      "reserved": "",
      "salt": "0x3a767b910a98fe334a311455f2c6892a81e288a01c2bf1953ad62903a0dbb8d2",
      "assetIds": []
    },
    {
      "x": 268,
      "y": 320,
      "size": 1,
      "price": "1011000000000000000000",
      "reserved": "0x7a9fe22691c811ea339d9b73150e6911a5343dca",
      "salt": "0x1ae980e8206ffc1528b0f49906ea4b8c52a71c175032c8cfb8042ea2f9b08d5a",
      "assetIds": []
    },
    {
      "x": 268,
      "y": 321,
      "size": 1,
      "price": "1011000000000000000000",
      "reserved": "0x7a9fe22691c811ea339d9b73150e6911a5343dca",
      "salt": "0x47fd4c6d3e7eed20f1d517b134f9c0ec81b78bb061006fb360cdfe3faf514f6b",
      "assetIds": []
    },
    {
      "x": 268,
      "y": 322,
      "size": 1,
      "price": "4683000000000000000000",
      "reserved": "",
      "salt": "0xcabdc0369b69d5b517f753bdf40540515aef069696a03969a6ca99e3b020ff2c",
      "assetIds": [
        "55464657044963196816950587289035428064568320970692304673817341489687790884865",
        "55464657044963196816950587289035428064568320970692304673817341489687782494208",
        "55464657044963196816950587289035428064568320970692304673817341489687790884866",
        "55464657044963196816950587289035428064568320970692304673817341489687782494209",
        "55464657044963196816950587289035428064568320970692304673817341489687790884864"
      ]
    },
    {
      "x": 268,
      "y": 323,
      "size": 1,
      "price": "4683000000000000000000",
      "reserved": "",
      "salt": "0x57e0ad558de32d6bd87b2ce1f91573d3a52f1b23e768896808ab91f45f0ec9ee",
      "assetIds": [
        "55464657044963196816950587289035428064568320970692304673817341489687790884865",
        "55464657044963196816950587289035428064568320970692304673817341489687782494208",
        "55464657044963196816950587289035428064568320970692304673817341489687790884866",
        "55464657044963196816950587289035428064568320970692304673817341489687782494209",
        "55464657044963196816950587289035428064568320970692304673817341489687790884864"
      ]
    },
    {
      "x": 269,
      "y": 312,
      "size": 1,
      "price": "1011000000000000000000",
      "reserved": "",
      "salt": "0x27d84b6226195e0594e3aae6bf64805c305895eb1d79d179888e6a329b84a0c0",
      "assetIds": []
    },
    {
      "x": 269,
      "y": 313,
      "size": 1,
      "price": "1011000000000000000000",
      "reserved": "",
      "salt": "0x1dde51616ff3a1352e3d9b63cc7c0778787713c79a5d36911bf79fd6b1bafa30",
      "assetIds": []
    },
    {
      "x": 269,
      "y": 314,
      "size": 1,
      "price": "1011000000000000000000",
      "reserved": "",
      "salt": "0x233ff248b8b14ca636c46b8458cea68b33f3664e205162dd703ec44f61351634",
      "assetIds": []
    },
    {
      "x": 269,
      "y": 315,
      "size": 1,
      "price": "1011000000000000000000",
      "reserved": "0x7a9fe22691c811ea339d9b73150e6911a5343dca",
      "salt": "0x348f5a591bd209df96be1c427d83402765333edea436c2bc46f3a70e5cea0de2",
      "assetIds": []
    },
    {
      "x": 269,
      "y": 316,
      "size": 1,
      "price": "1011000000000000000000",
      "reserved": "",
      "salt": "0x446f755535f144098cda3e1883127c67df009795cdf86cae8d7599a8ba97b715",
      "assetIds": []
    },
    {
      "x": 269,
      "y": 317,
      "size": 1,
      "price": "1011000000000000000000",
      "reserved": "",
      "salt": "0x260f312d581911a3d4c0ecaf008d392883c01c05395adbb5708668336c04177e",
      "assetIds": []
    },
    {
      "x": 269,
      "y": 318,
      "size": 1,
      "price": "1011000000000000000000",
      "reserved": "0x7a9fe22691c811ea339d9b73150e6911a5343dca",
      "salt": "0x0d653bbd666ebe53de008197e41cbc9601527037bee72fc6be5a03602635034a",
      "assetIds": []
    },
    {
      "x": 269,
      "y": 319,
      "size": 1,
      "price": "1011000000000000000000",
      "reserved": "",
      "salt": "0xda031037b9a0ac312fc417d4c71d1faf67d87a9c878ea3add50083260a987471",
      "assetIds": []
    },
    {
      "x": 269,
      "y": 320,
      "size": 1,
      "price": "4683000000000000000000",
      "reserved": "",
      "salt": "0xa0ad77374d0676d3c2be51398fbd463cf51813f01cb8b5feae8a75f653258eb8",
      "assetIds": [
        "55464657044963196816950587289035428064568320970692304673817341489687790884865",
        "55464657044963196816950587289035428064568320970692304673817341489687782494208",
        "55464657044963196816950587289035428064568320970692304673817341489687790884866",
        "55464657044963196816950587289035428064568320970692304673817341489687782494209",
        "55464657044963196816950587289035428064568320970692304673817341489687790884864"
      ]
    },
    {
      "x": 269,
      "y": 321,
      "size": 1,
      "price": "4683000000000000000000",
      "reserved": "",
      "salt": "0x2f2bf62df0ee91d23873f7c45bab2e49bd8fa7c2ecc683bd947028f0bfb3cda0",
      "assetIds": [
        "55464657044963196816950587289035428064568320970692304673817341489687790884865",
        "55464657044963196816950587289035428064568320970692304673817341489687782494208",
        "55464657044963196816950587289035428064568320970692304673817341489687790884866",
        "55464657044963196816950587289035428064568320970692304673817341489687782494209",
        "55464657044963196816950587289035428064568320970692304673817341489687790884864"
      ]
    },
    {
      "x": 269,
      "y": 322,
      "size": 1,
      "price": "4683000000000000000000",
      "reserved": "",
      "salt": "0xca66bfb106f9d896ef1d1a8801ff54e8a51a412edec97b2d09af3a4d4b24b91f",
      "assetIds": [
        "55464657044963196816950587289035428064568320970692304673817341489687790884865",
        "55464657044963196816950587289035428064568320970692304673817341489687782494208",
        "55464657044963196816950587289035428064568320970692304673817341489687790884866",
        "55464657044963196816950587289035428064568320970692304673817341489687782494209",
        "55464657044963196816950587289035428064568320970692304673817341489687790884864"
      ]
    },
    {
      "x": 269,
      "y": 323,
      "size": 1,
      "price": "4683000000000000000000",
      "reserved": "",
      "salt": "0x8261afa57b499c62d9e5d169731205ee2038a289a9e573512e53241cc910d9f8",
      "assetIds": [
        "55464657044963196816950587289035428064568320970692304673817341489687790884865",
        "55464657044963196816950587289035428064568320970692304673817341489687782494208",
        "55464657044963196816950587289035428064568320970692304673817341489687790884866",
        "55464657044963196816950587289035428064568320970692304673817341489687782494209",
        "55464657044963196816950587289035428064568320970692304673817341489687790884864"
      ]
    },
    {
      "x": 270,
      "y": 312,
      "size": 1,
      "price": "1011000000000000000000",
      "reserved": "",
      "salt": "0xffa8623ab62defe9ab52ff3feacb2f21d65185cdc44d112d5865ea43756eba60",
      "assetIds": []
    },
    {
      "x": 270,
      "y": 313,
      "size": 1,
      "price": "1011000000000000000000",
      "reserved": "",
      "salt": "0xcac68601cacf5382f032b6ec12520936e4e5a50b463c545796c29f4dafac020e",
      "assetIds": []
    },
    {
      "x": 270,
      "y": 314,
      "size": 1,
      "price": "1011000000000000000000",
      "reserved": "",
      "salt": "0x8453da169a0132adc82d1fcef70d428cd621bf46e79421996e038ee772af9eee",
      "assetIds": []
    },
    {
      "x": 270,
      "y": 315,
      "size": 1,
      "price": "1011000000000000000000",
      "reserved": "",
      "salt": "0x7db00b267b8955044da16629d45840109b6a807b8e97574e09114f82b8694e81",
      "assetIds": []
    },
    {
      "x": 270,
      "y": 316,
      "size": 1,
      "price": "1011000000000000000000",
      "reserved": "",
      "salt": "0xeccbb9e697ec61951c127651311bae7435f00e5b7ef0abd1cda1fd636d9df6ef",
      "assetIds": []
    },
    {
      "x": 270,
      "y": 317,
      "size": 1,
      "price": "1011000000000000000000",
      "reserved": "",
      "salt": "0x2b08c7dd5ca6f46de2b504cf77bb681137f807fe66b861e48fa1e71cccd92b93",
      "assetIds": []
    },
    {
      "x": 270,
      "y": 318,
      "size": 1,
      "price": "1011000000000000000000",
      "reserved": "",
      "salt": "0x0c22349dce7125c9e14680ddb5f8eba015ffa23e4ebabe109d0b741c849f1792",
      "assetIds": []
    },
    {
      "x": 270,
      "y": 319,
      "size": 1,
      "price": "1011000000000000000000",
      "reserved": "",
      "salt": "0xbba6ffad889cd3c77cc93c76bfcc29f79e371302027303b63f2af79250318bbb",
      "assetIds": []
    },
    {
      "x": 270,
      "y": 320,
      "size": 1,
      "price": "4683000000000000000000",
      "reserved": "",
      "salt": "0xb8f19eccd828361f3f0be9a7fb7bee84796b37a2a176b7be70297119789c8061",
      "assetIds": [
        "55464657044963196816950587289035428064568320970692304673817341489687790884865",
        "55464657044963196816950587289035428064568320970692304673817341489687782494208",
        "55464657044963196816950587289035428064568320970692304673817341489687790884866",
        "55464657044963196816950587289035428064568320970692304673817341489687782494209",
        "55464657044963196816950587289035428064568320970692304673817341489687790884864"
      ]
    },
    {
      "x": 271,
      "y": 312,
      "size": 1,
      "price": "1011000000000000000000",
      "reserved": "",
      "salt": "0x1dba3ff518acd7f5219e564e36693b94ff71f08629141b613a41476f959757d3",
      "assetIds": []
    },
    {
      "x": 271,
      "y": 313,
      "size": 1,
      "price": "1011000000000000000000",
      "reserved": "",
      "salt": "0x516cbd06ad345fd427f8ed953e8880d5fe83465cb506631441f07d8289cd89d9",
      "assetIds": []
    },
    {
      "x": 271,
      "y": 314,
      "size": 1,
      "price": "1011000000000000000000",
      "reserved": "",
      "salt": "0xce5cee466defc7a28a325e566914e36c3e455df235d693fe811292b3789de02f",
      "assetIds": []
    },
    {
      "x": 271,
      "y": 315,
      "size": 1,
      "price": "1011000000000000000000",
      "reserved": "",
      "salt": "0x1ae80f9467281cad8cb8a98b003cb2fa0e519be62b83ee62303a0bca8c34b943",
      "assetIds": []
    },
    {
      "x": 271,
      "y": 316,
      "size": 1,
      "price": "1011000000000000000000",
      "reserved": "",
      "salt": "0x5ca6c72206f046c2c8b65866357a3b05f5448872dd0b76958779e9424a021f7b",
      "assetIds": []
    },
    {
      "x": 271,
      "y": 317,
      "size": 1,
      "price": "1011000000000000000000",
      "reserved": "0x7a9fe22691c811ea339d9b73150e6911a5343dca",
      "salt": "0x46b879f360837baf6c1bb8c9795f4d36dca006fd7873ca5f8bb08e3182ee2a61",
      "assetIds": []
    },
    {
      "x": 271,
      "y": 318,
      "size": 1,
      "price": "1011000000000000000000",
      "reserved": "",
      "salt": "0x69bd95e89b4a3414e7c34c588150a7ea720bf9aa287709613e535399a1b9a0dd",
      "assetIds": []
    },
    {
      "x": 271,
      "y": 319,
      "size": 1,
      "price": "1011000000000000000000",
      "reserved": "0x7a9fe22691c811ea339d9b73150e6911a5343dca",
      "salt": "0xa223f896a837f947c880e3972c665ad18c48f2a3c502e5d02b3af3533f75cb61",
      "assetIds": []
    },
    {
      "x": 271,
      "y": 320,
      "size": 1,
      "price": "4683000000000000000000",
      "reserved": "",
      "salt": "0x40691608dfb37c504623ff57c1bdeeabc898e16e959a8936072dfb5a9a3a38c0",
      "assetIds": [
        "55464657044963196816950587289035428064568320970692304673817341489687790884865",
        "55464657044963196816950587289035428064568320970692304673817341489687782494208",
        "55464657044963196816950587289035428064568320970692304673817341489687790884866",
        "55464657044963196816950587289035428064568320970692304673817341489687782494209",
        "55464657044963196816950587289035428064568320970692304673817341489687790884864"
      ]
    },
    {
      "x": 272,
      "y": 312,
      "size": 1,
      "price": "1011000000000000000000",
      "reserved": "",
      "salt": "0xe3f8495e7fcd3617b10a92122359bd8943fbc7bc86ac41c49d74de5099fc9438",
      "assetIds": []
    },
    {
      "x": 272,
      "y": 313,
      "size": 1,
      "price": "1011000000000000000000",
      "reserved": "0x7a9fe22691c811ea339d9b73150e6911a5343dca",
      "salt": "0x0e5bfd80fb6a123bc27254030f5c902525c592f4bb4cf2f5ec2af02b4c3f4715",
      "assetIds": []
    },
    {
      "x": 272,
      "y": 314,
      "size": 1,
      "price": "1011000000000000000000",
      "reserved": "",
      "salt": "0x9d78b736b717ad66d2422413a133aacb5f26c7e4e5ad6aeb020706b91eff9130",
      "assetIds": []
    },
    {
      "x": 272,
      "y": 315,
      "size": 1,
      "price": "1011000000000000000000",
      "reserved": "0x7a9fe22691c811ea339d9b73150e6911a5343dca",
      "salt": "0xb4ca9c845c6241d650aff9fd10ff8c45c1a9b2f2d7b02027c1ae2b5db496ffc7",
      "assetIds": []
    },
    {
      "x": 272,
      "y": 316,
      "size": 1,
      "price": "1011000000000000000000",
      "reserved": "",
      "salt": "0x14624aa1da95154a9cfb0ea7dc9e1bfdbd4df9e2d2069dd9d0164763ff667c20",
      "assetIds": []
    },
    {
      "x": 272,
      "y": 317,
      "size": 1,
      "price": "1011000000000000000000",
      "reserved": "",
      "salt": "0x2d8942a9892b8c7039b29a66c50939cf25f44b3dbb71fa8fac7d495810c468e3",
      "assetIds": []
    },
    {
      "x": 272,
      "y": 318,
      "size": 1,
      "price": "1011000000000000000000",
      "reserved": "",
      "salt": "0xa001cacf0190524e35a552f82f36892dfcaf7e95ae1d96b0b745a1b7e3824d68",
      "assetIds": []
    },
    {
      "x": 272,
      "y": 319,
      "size": 1,
      "price": "1011000000000000000000",
      "reserved": "",
      "salt": "0xe99d126d529f208bbbf234a455855c9808ac40b1139c8f01e547fa7ed012eb69",
      "assetIds": []
    },
    {
      "x": 272,
      "y": 320,
      "size": 1,
      "price": "4683000000000000000000",
      "reserved": "",
      "salt": "0x793754b5a2223cd2a8812a7a47066fbcc39ecdb1cc888bf2d33fcca66fb056c2",
      "assetIds": [
        "55464657044963196816950587289035428064568320970692304673817341489687790884865",
        "55464657044963196816950587289035428064568320970692304673817341489687782494208",
        "55464657044963196816950587289035428064568320970692304673817341489687790884866",
        "55464657044963196816950587289035428064568320970692304673817341489687782494209",
        "55464657044963196816950587289035428064568320970692304673817341489687790884864"
      ]
    },
    {
      "x": 273,
      "y": 312,
      "size": 1,
      "price": "1011000000000000000000",
      "reserved": "",
      "salt": "0x88aa43a1efa1b057f9336ed5f1dda62d4168fff7276fa72cb68aaf2d4aaa640e",
      "assetIds": []
    },
    {
      "x": 273,
      "y": 313,
      "size": 1,
      "price": "1011000000000000000000",
      "reserved": "",
      "salt": "0x9c82d7244c6ec4ab14b56865fd5400dba2d1548eeac0a1bde3387569612f943d",
      "assetIds": []
    },
    {
      "x": 273,
      "y": 314,
      "size": 1,
      "price": "1011000000000000000000",
      "reserved": "",
      "salt": "0x5bc111b93f99a0d9b292777428e1170292e67b3e62929507f781b132dbfdfe94",
      "assetIds": []
    },
    {
      "x": 273,
      "y": 315,
      "size": 1,
      "price": "1011000000000000000000",
      "reserved": "0x7a9fe22691c811ea339d9b73150e6911a5343dca",
      "salt": "0xf00b3699075b520f5ac011a4fb95d2bbda920336c0bba27bb664ed8066071796",
      "assetIds": []
    },
    {
      "x": 273,
      "y": 316,
      "size": 1,
      "price": "1011000000000000000000",
      "reserved": "",
      "salt": "0xa39d1aceb3f26b4a1ad359a5546c2dfecaef13e5b46fc70dfa73337f3af228a4",
      "assetIds": []
    },
    {
      "x": 273,
      "y": 317,
      "size": 1,
      "price": "1011000000000000000000",
      "reserved": "",
      "salt": "0xa75ed09971c8bdcaba87adbd5ed9d291a5206abf8edd30d80c7adec419d2a758",
      "assetIds": []
    },
    {
      "x": 273,
      "y": 318,
      "size": 1,
      "price": "1011000000000000000000",
      "reserved": "",
      "salt": "0x62b2c66eae30669d2949c0b376ce2878a05610f8bf89d199f844a312f5211e8d",
      "assetIds": []
    },
    {
      "x": 273,
      "y": 319,
      "size": 1,
      "price": "1011000000000000000000",
      "reserved": "",
      "salt": "0x92f89203e8d483083741ba858b39fdccd70266361a1bf7ad844405aba81a4544",
      "assetIds": []
    },
    {
      "x": 273,
      "y": 320,
      "size": 1,
      "price": "4683000000000000000000",
      "reserved": "",
      "salt": "0x44210216520b6c8a5f57b1b35db13be30a549b0c6ad3d94c3236e818d34e241b",
      "assetIds": [
        "55464657044963196816950587289035428064568320970692304673817341489687790884865",
        "55464657044963196816950587289035428064568320970692304673817341489687782494208",
        "55464657044963196816950587289035428064568320970692304673817341489687790884866",
        "55464657044963196816950587289035428064568320970692304673817341489687782494209",
        "55464657044963196816950587289035428064568320970692304673817341489687790884864"
      ]
    },
    {
      "x": 273,
      "y": 321,
      "size": 1,
      "price": "4683000000000000000000",
      "reserved": "",
      "salt": "0x08f994df5e28b69eb596f87b338683e9982fb7ae143f16f1b33bb81f6cc12ff8",
      "assetIds": [
        "55464657044963196816950587289035428064568320970692304673817341489687790884865",
        "55464657044963196816950587289035428064568320970692304673817341489687782494208",
        "55464657044963196816950587289035428064568320970692304673817341489687790884866",
        "55464657044963196816950587289035428064568320970692304673817341489687782494209",
        "55464657044963196816950587289035428064568320970692304673817341489687790884864"
      ]
    },
    {
      "x": 273,
      "y": 322,
      "size": 1,
      "price": "4683000000000000000000",
      "reserved": "",
      "salt": "0x470cfb09f5c3eae9e5def51f82ce22b25f2aa889d7d3703afe0e563df3186d6f",
      "assetIds": [
        "55464657044963196816950587289035428064568320970692304673817341489687790884865",
        "55464657044963196816950587289035428064568320970692304673817341489687782494208",
        "55464657044963196816950587289035428064568320970692304673817341489687790884866",
        "55464657044963196816950587289035428064568320970692304673817341489687782494209",
        "55464657044963196816950587289035428064568320970692304673817341489687790884864"
      ]
    },
    {
      "x": 273,
      "y": 323,
      "size": 1,
      "price": "4683000000000000000000",
      "reserved": "",
      "salt": "0xa0226e4786a338592b1184aaba4bc6d14fd4ab484dfa01ffe5509393b59e53bc",
      "assetIds": [
        "55464657044963196816950587289035428064568320970692304673817341489687790884865",
        "55464657044963196816950587289035428064568320970692304673817341489687782494208",
        "55464657044963196816950587289035428064568320970692304673817341489687790884866",
        "55464657044963196816950587289035428064568320970692304673817341489687782494209",
        "55464657044963196816950587289035428064568320970692304673817341489687790884864"
      ]
    },
    {
      "x": 274,
      "y": 312,
      "size": 1,
      "price": "1011000000000000000000",
      "reserved": "0x7a9fe22691c811ea339d9b73150e6911a5343dca",
      "salt": "0xee5e03b13518be616ac99d5794faae76c3f62077671e5a07fa10284bcce83fc7",
      "assetIds": []
    },
    {
      "x": 274,
      "y": 313,
      "size": 1,
      "price": "1011000000000000000000",
      "reserved": "",
      "salt": "0xdd7692e76211782155cacb2cc16f8da8ea2d946c92715e7a9dcceb022a1dacdd",
      "assetIds": []
    },
    {
      "x": 274,
      "y": 314,
      "size": 1,
      "price": "1011000000000000000000",
      "reserved": "",
      "salt": "0x1396f35b327b08b5ade7aa7f4c3746d00821788e6d33466aaed7c0c75d4421de",
      "assetIds": []
    },
    {
      "x": 274,
      "y": 315,
      "size": 1,
      "price": "1011000000000000000000",
      "reserved": "",
      "salt": "0xd45c5472c2e1da60e775a551344c9ae682fc9c192f0f3d8b7c82c4f0e28c7b3b",
      "assetIds": []
    },
    {
      "x": 274,
      "y": 316,
      "size": 1,
      "price": "1011000000000000000000",
      "reserved": "",
      "salt": "0x680f53a8810470aff9e205ce21ce3318c8224318f9dd34a698ea7b0b82a403ae",
      "assetIds": []
    },
    {
      "x": 274,
      "y": 317,
      "size": 1,
      "price": "1011000000000000000000",
      "reserved": "",
      "salt": "0xf84ba65ad74225a88416e8cc8e7b85203d0f1807464537d733daf6b017f568f1",
      "assetIds": []
    },
    {
      "x": 274,
      "y": 318,
      "size": 1,
      "price": "1011000000000000000000",
      "reserved": "",
      "salt": "0x58d868a225b4e4f9e3c15cd4c7122622d2e7a443c037f4bcf4a7d804a4dbc091",
      "assetIds": []
    },
    {
      "x": 274,
      "y": 319,
      "size": 1,
      "price": "1011000000000000000000",
      "reserved": "",
      "salt": "0x6deb72fd1bad512c1a51dabef913ed21f16d0ee28ab7dfd779059ffe0af74480",
      "assetIds": []
    },
    {
      "x": 274,
      "y": 320,
      "size": 1,
      "price": "1011000000000000000000",
      "reserved": "",
      "salt": "0xa2ed2f53f9d0ffa30ad0578ef5466624575a2d3260a56640be6a68f9dc9178b3",
      "assetIds": []
    },
    {
      "x": 274,
      "y": 321,
      "size": 1,
      "price": "1011000000000000000000",
      "reserved": "",
      "salt": "0xbb1d594878cc1459f7712f276096737f77df194e3b35fd3059f1ff019cac3f12",
      "assetIds": []
    },
    {
      "x": 274,
      "y": 322,
      "size": 1,
      "price": "1011000000000000000000",
      "reserved": "0x7a9fe22691c811ea339d9b73150e6911a5343dca",
      "salt": "0x7ed722da41e19f3d4ee45c4fea27d324281e43e7dd42d0a66b013957b6f07b72",
      "assetIds": []
    },
    {
      "x": 274,
      "y": 323,
      "size": 1,
      "price": "4683000000000000000000",
      "reserved": "",
      "salt": "0x10e25e39660f05508fa7707e52cfbde2205c621a3b4c496d87af89ad050d7695",
      "assetIds": [
        "55464657044963196816950587289035428064568320970692304673817341489687790884865",
        "55464657044963196816950587289035428064568320970692304673817341489687782494208",
        "55464657044963196816950587289035428064568320970692304673817341489687790884866",
        "55464657044963196816950587289035428064568320970692304673817341489687782494209",
        "55464657044963196816950587289035428064568320970692304673817341489687790884864"
      ]
    },
    {
      "x": 275,
      "y": 312,
      "size": 1,
      "price": "1011000000000000000000",
      "reserved": "",
      "salt": "0xf3fdb01adf91013d33a5f7e6a23b399aba0bf859b9302200a97b2838c9645c00",
      "assetIds": []
    },
    {
      "x": 275,
      "y": 313,
      "size": 1,
      "price": "1011000000000000000000",
      "reserved": "",
      "salt": "0x46e0e1520ca4168ae41aaeab7bf898f7256ff4c8263bea6cf8c6e943819342cb",
      "assetIds": []
    },
    {
      "x": 275,
      "y": 314,
      "size": 1,
      "price": "1011000000000000000000",
      "reserved": "",
      "salt": "0x4093b69fb0f4427935fcca229492e4484621507c1b488e6df38a460862e419cf",
      "assetIds": []
    },
    {
      "x": 275,
      "y": 315,
      "size": 1,
      "price": "1011000000000000000000",
      "reserved": "",
      "salt": "0xce7ad880ba704e22b90c43f3766cbcd17d3977d4643196b1b18df9cfe1fff53d",
      "assetIds": []
    },
    {
      "x": 275,
      "y": 316,
      "size": 1,
      "price": "1011000000000000000000",
      "reserved": "0x7a9fe22691c811ea339d9b73150e6911a5343dca",
      "salt": "0xb20356c1f01d6eb00ae55441ac254f27ad8c22ab68dac9c9fd959bd655f7224f",
      "assetIds": []
    },
    {
      "x": 275,
      "y": 317,
      "size": 1,
      "price": "1011000000000000000000",
      "reserved": "",
      "salt": "0x658c6f94fdb73130a188e633cb74efa2395a10cc6976cccfb9b393c1e30aae61",
      "assetIds": []
    },
    {
      "x": 275,
      "y": 318,
      "size": 1,
      "price": "1011000000000000000000",
      "reserved": "",
      "salt": "0x84795be94f4f7e1b5a7a1dbaaa520de031c1964f8f47d65c84424c033a898c4e",
      "assetIds": []
    },
    {
      "x": 275,
      "y": 319,
      "size": 1,
      "price": "1011000000000000000000",
      "reserved": "",
      "salt": "0xfb61217aec7667206d61c63ff9a9a61a16e64609aefa0c545e41e963056460a9",
      "assetIds": []
    },
    {
      "x": 275,
      "y": 320,
      "size": 1,
      "price": "4683000000000000000000",
      "reserved": "",
      "salt": "0x99d6c9275446859f12c32f824a46836c313d3524d890f53b93c0ee32d38d6921",
      "assetIds": [
        "55464657044963196816950587289035428064568320970692304673817341489687790884865",
        "55464657044963196816950587289035428064568320970692304673817341489687782494208",
        "55464657044963196816950587289035428064568320970692304673817341489687790884866",
        "55464657044963196816950587289035428064568320970692304673817341489687782494209",
        "55464657044963196816950587289035428064568320970692304673817341489687790884864"
      ]
    },
    {
      "x": 275,
      "y": 321,
      "size": 1,
      "price": "4683000000000000000000",
      "reserved": "",
      "salt": "0xf6d8543009711ee857f232117c3b0fb0f0665c2450d94f5daaa836f906bd8820",
      "assetIds": [
        "55464657044963196816950587289035428064568320970692304673817341489687790884865",
        "55464657044963196816950587289035428064568320970692304673817341489687782494208",
        "55464657044963196816950587289035428064568320970692304673817341489687790884866",
        "55464657044963196816950587289035428064568320970692304673817341489687782494209",
        "55464657044963196816950587289035428064568320970692304673817341489687790884864"
      ]
    },
    {
      "x": 275,
      "y": 322,
      "size": 1,
      "price": "4683000000000000000000",
      "reserved": "",
      "salt": "0x491afc497bbc39492327ba6bcf6e90e86944feb60eb9dc0c60aa6c444634e5ba",
      "assetIds": [
        "55464657044963196816950587289035428064568320970692304673817341489687790884865",
        "55464657044963196816950587289035428064568320970692304673817341489687782494208",
        "55464657044963196816950587289035428064568320970692304673817341489687790884866",
        "55464657044963196816950587289035428064568320970692304673817341489687782494209",
        "55464657044963196816950587289035428064568320970692304673817341489687790884864"
      ]
    },
    {
      "x": 275,
      "y": 323,
      "size": 1,
      "price": "4683000000000000000000",
      "reserved": "",
      "salt": "0xf82ea0fa2be03a11ae92fd548e78c28067f5e508de51bae64d4bc496838cfa79",
      "assetIds": [
        "55464657044963196816950587289035428064568320970692304673817341489687790884865",
        "55464657044963196816950587289035428064568320970692304673817341489687782494208",
        "55464657044963196816950587289035428064568320970692304673817341489687790884866",
        "55464657044963196816950587289035428064568320970692304673817341489687782494209",
        "55464657044963196816950587289035428064568320970692304673817341489687790884864"
      ]
    },
    {
      "x": 276,
      "y": 312,
      "size": 1,
      "price": "1011000000000000000000",
      "reserved": "",
      "salt": "0x8aa239b1e2649c2719442e099e51b921107f5af9b0d963cfc76347a90d4a883b",
      "assetIds": []
    },
    {
      "x": 276,
      "y": 313,
      "size": 1,
      "price": "1011000000000000000000",
      "reserved": "0x7a9fe22691c811ea339d9b73150e6911a5343dca",
      "salt": "0x134d275e3cb15afaf99a310709191c1b2bf34963e87854844e2c79088eeacfc9",
      "assetIds": []
    },
    {
      "x": 276,
      "y": 314,
      "size": 1,
      "price": "1011000000000000000000",
      "reserved": "",
      "salt": "0xb46e0be027a924696129c5dcfcc0b2e28a3adc94d26534b9e061db4ef37b3697",
      "assetIds": []
    },
    {
      "x": 276,
      "y": 315,
      "size": 1,
      "price": "1011000000000000000000",
      "reserved": "",
      "salt": "0xb1e0ca070ca6c13619dff2a576f310bd4946a788e301273b551cb40c8b62ccc8",
      "assetIds": []
    },
    {
      "x": 276,
      "y": 316,
      "size": 1,
      "price": "1011000000000000000000",
      "reserved": "",
      "salt": "0x5ef1f751c22c809a1f4e693bdfcfb4df6f6181e79d8c68b9e7d3befe8a43cde2",
      "assetIds": []
    },
    {
      "x": 276,
      "y": 317,
      "size": 1,
      "price": "1011000000000000000000",
      "reserved": "",
      "salt": "0xc6c61d9ef21182f60dc29cd2940a3835101b470b58a46a213b7d383990648384",
      "assetIds": []
    },
    {
      "x": 276,
      "y": 318,
      "size": 1,
      "price": "1011000000000000000000",
      "reserved": "",
      "salt": "0x8a0dd8ac80d9aaf1a8a5e28bad863262b76d87009872ca234e504f03c504ac79",
      "assetIds": []
    },
    {
      "x": 276,
      "y": 319,
      "size": 1,
      "price": "1011000000000000000000",
      "reserved": "",
      "salt": "0x4364e74c3912924a5fdc43087dee8f491260f134826dfa1998f6641cf406f76d",
      "assetIds": []
    },
    {
      "x": 276,
      "y": 320,
      "size": 1,
      "price": "1011000000000000000000",
      "reserved": "",
      "salt": "0x2058e160b3b477daa63da189ba3e8673a2de268ea5cc90836748a237e07b3730",
      "assetIds": []
    },
    {
      "x": 276,
      "y": 321,
      "size": 1,
      "price": "4683000000000000000000",
      "reserved": "",
      "salt": "0x63057cea1143e29ae205073d39dd8a61b39e2bfd86bbbf16c9c508b0a5b5bcf7",
      "assetIds": [
        "55464657044963196816950587289035428064568320970692304673817341489687790884865",
        "55464657044963196816950587289035428064568320970692304673817341489687782494208",
        "55464657044963196816950587289035428064568320970692304673817341489687790884866",
        "55464657044963196816950587289035428064568320970692304673817341489687782494209",
        "55464657044963196816950587289035428064568320970692304673817341489687790884864"
      ]
    },
    {
      "x": 276,
      "y": 322,
      "size": 1,
      "price": "4683000000000000000000",
      "reserved": "",
      "salt": "0xa3de8390f9021e2b56cb837186ba34dce1f43e2d1e7fa80669032786046f20a5",
      "assetIds": [
        "55464657044963196816950587289035428064568320970692304673817341489687790884865",
        "55464657044963196816950587289035428064568320970692304673817341489687782494208",
        "55464657044963196816950587289035428064568320970692304673817341489687790884866",
        "55464657044963196816950587289035428064568320970692304673817341489687782494209",
        "55464657044963196816950587289035428064568320970692304673817341489687790884864"
      ]
    },
    {
      "x": 276,
      "y": 323,
      "size": 1,
      "price": "4683000000000000000000",
      "reserved": "",
      "salt": "0x25ee6f22880edda0407e0b684e856309e8dcc4f1b531f02330c1a27358596098",
      "assetIds": [
        "55464657044963196816950587289035428064568320970692304673817341489687790884865",
        "55464657044963196816950587289035428064568320970692304673817341489687782494208",
        "55464657044963196816950587289035428064568320970692304673817341489687790884866",
        "55464657044963196816950587289035428064568320970692304673817341489687782494209",
        "55464657044963196816950587289035428064568320970692304673817341489687790884864"
      ]
    },
    {
      "x": 276,
      "y": 324,
      "size": 1,
      "price": "4683000000000000000000",
      "reserved": "",
      "salt": "0xf99e9998828f03e5e58bdf3d5ecc0b3f5b0c42dc0037c65aa1fd89e58beaef4c",
      "assetIds": [
        "55464657044963196816950587289035428064568320970692304673817341489687790884865",
        "55464657044963196816950587289035428064568320970692304673817341489687782494208",
        "55464657044963196816950587289035428064568320970692304673817341489687790884866",
        "55464657044963196816950587289035428064568320970692304673817341489687782494209",
        "55464657044963196816950587289035428064568320970692304673817341489687790884864"
      ]
    },
    {
      "x": 276,
      "y": 325,
      "size": 1,
      "price": "4683000000000000000000",
      "reserved": "",
      "salt": "0xa37fd63dba50f2cf321b9de4356901f5120ead349e5f37181b8b5a7fed258452",
      "assetIds": [
        "55464657044963196816950587289035428064568320970692304673817341489687790884865",
        "55464657044963196816950587289035428064568320970692304673817341489687782494208",
        "55464657044963196816950587289035428064568320970692304673817341489687790884866",
        "55464657044963196816950587289035428064568320970692304673817341489687782494209",
        "55464657044963196816950587289035428064568320970692304673817341489687790884864"
      ]
    },
    {
      "x": 276,
      "y": 326,
      "size": 1,
      "price": "4683000000000000000000",
      "reserved": "",
      "salt": "0xb64d14a5911e1fc577dffda7a12e45bb9158ed0eab3751eb44ba663688b5c493",
      "assetIds": [
        "55464657044963196816950587289035428064568320970692304673817341489687790884865",
        "55464657044963196816950587289035428064568320970692304673817341489687782494208",
        "55464657044963196816950587289035428064568320970692304673817341489687790884866",
        "55464657044963196816950587289035428064568320970692304673817341489687782494209",
        "55464657044963196816950587289035428064568320970692304673817341489687790884864"
      ]
    },
    {
      "x": 276,
      "y": 327,
      "size": 1,
      "price": "4683000000000000000000",
      "reserved": "",
      "salt": "0x7265701832d5c1a522463f67af44452a2d8f021dcb4a75dbced97fde90483978",
      "assetIds": [
        "55464657044963196816950587289035428064568320970692304673817341489687790884865",
        "55464657044963196816950587289035428064568320970692304673817341489687782494208",
        "55464657044963196816950587289035428064568320970692304673817341489687790884866",
        "55464657044963196816950587289035428064568320970692304673817341489687782494209",
        "55464657044963196816950587289035428064568320970692304673817341489687790884864"
      ]
    },
    {
      "x": 276,
      "y": 328,
      "size": 1,
      "price": "4683000000000000000000",
      "reserved": "",
      "salt": "0x42f291f5bf3026845db3ef85211adee3c807f6c5ca6c47178da25687bb1dcff4",
      "assetIds": [
        "55464657044963196816950587289035428064568320970692304673817341489687790884865",
        "55464657044963196816950587289035428064568320970692304673817341489687782494208",
        "55464657044963196816950587289035428064568320970692304673817341489687790884866",
        "55464657044963196816950587289035428064568320970692304673817341489687782494209",
        "55464657044963196816950587289035428064568320970692304673817341489687790884864"
      ]
    },
    {
      "x": 276,
      "y": 329,
      "size": 1,
      "price": "4683000000000000000000",
      "reserved": "",
      "salt": "0x1a15fc5dca76b6214fb51e76c2c39de2ced2c12fa57a9311b0138cc79109fcab",
      "assetIds": [
        "55464657044963196816950587289035428064568320970692304673817341489687790884865",
        "55464657044963196816950587289035428064568320970692304673817341489687782494208",
        "55464657044963196816950587289035428064568320970692304673817341489687790884866",
        "55464657044963196816950587289035428064568320970692304673817341489687782494209",
        "55464657044963196816950587289035428064568320970692304673817341489687790884864"
      ]
    },
    {
      "x": 276,
      "y": 330,
      "size": 1,
      "price": "4683000000000000000000",
      "reserved": "",
      "salt": "0xf1ae5c0f318f5799313bf7c36fa3760f26b571b133bcfb5666254a6ada6ec385",
      "assetIds": [
        "55464657044963196816950587289035428064568320970692304673817341489687790884865",
        "55464657044963196816950587289035428064568320970692304673817341489687782494208",
        "55464657044963196816950587289035428064568320970692304673817341489687790884866",
        "55464657044963196816950587289035428064568320970692304673817341489687782494209",
        "55464657044963196816950587289035428064568320970692304673817341489687790884864"
      ]
    },
    {
      "x": 276,
      "y": 331,
      "size": 1,
      "price": "4683000000000000000000",
      "reserved": "",
      "salt": "0x810776640f221d55999ebe7b508a5a0db164655e1009d6e64319c1c1f1832cca",
      "assetIds": [
        "55464657044963196816950587289035428064568320970692304673817341489687790884865",
        "55464657044963196816950587289035428064568320970692304673817341489687782494208",
        "55464657044963196816950587289035428064568320970692304673817341489687790884866",
        "55464657044963196816950587289035428064568320970692304673817341489687782494209",
        "55464657044963196816950587289035428064568320970692304673817341489687790884864"
      ]
    },
    {
      "x": 276,
      "y": 332,
      "size": 1,
      "price": "4683000000000000000000",
      "reserved": "",
      "salt": "0x336b495e70705fd12fe85dcc3aacdb15357e08d62693b2564659167aca083d6b",
      "assetIds": [
        "55464657044963196816950587289035428064568320970692304673817341489687790884865",
        "55464657044963196816950587289035428064568320970692304673817341489687782494208",
        "55464657044963196816950587289035428064568320970692304673817341489687790884866",
        "55464657044963196816950587289035428064568320970692304673817341489687782494209",
        "55464657044963196816950587289035428064568320970692304673817341489687790884864"
      ]
    },
    {
      "x": 276,
      "y": 333,
      "size": 1,
      "price": "4683000000000000000000",
      "reserved": "",
      "salt": "0xe5b68c47d22ec0710ea967878148fde26eef015476e20e2ec665a1377dd2c173",
      "assetIds": [
        "55464657044963196816950587289035428064568320970692304673817341489687790884865",
        "55464657044963196816950587289035428064568320970692304673817341489687782494208",
        "55464657044963196816950587289035428064568320970692304673817341489687790884866",
        "55464657044963196816950587289035428064568320970692304673817341489687782494209",
        "55464657044963196816950587289035428064568320970692304673817341489687790884864"
      ]
    },
    {
      "x": 276,
      "y": 334,
      "size": 1,
      "price": "4683000000000000000000",
      "reserved": "",
      "salt": "0x179dd1063c1a047763f995037f0c9fd8ad08e506a39171bdeeb04f11f3862078",
      "assetIds": [
        "55464657044963196816950587289035428064568320970692304673817341489687790884865",
        "55464657044963196816950587289035428064568320970692304673817341489687782494208",
        "55464657044963196816950587289035428064568320970692304673817341489687790884866",
        "55464657044963196816950587289035428064568320970692304673817341489687782494209",
        "55464657044963196816950587289035428064568320970692304673817341489687790884864"
      ]
    },
    {
      "x": 276,
      "y": 335,
      "size": 1,
      "price": "4683000000000000000000",
      "reserved": "",
      "salt": "0xe5b99d9f0b088e109f76649dfcad7634664a8fff693e4329552adc5bafed2ed5",
      "assetIds": [
        "55464657044963196816950587289035428064568320970692304673817341489687790884865",
        "55464657044963196816950587289035428064568320970692304673817341489687782494208",
        "55464657044963196816950587289035428064568320970692304673817341489687790884866",
        "55464657044963196816950587289035428064568320970692304673817341489687782494209",
        "55464657044963196816950587289035428064568320970692304673817341489687790884864"
      ]
    },
    {
      "x": 277,
      "y": 312,
      "size": 1,
      "price": "1011000000000000000000",
      "reserved": "",
      "salt": "0x6766f3300dfbeeaf862d28d1cb6d1f5aabbf33b4df47c1b6f7353b9825e9cdad",
      "assetIds": []
    },
    {
      "x": 277,
      "y": 313,
      "size": 1,
      "price": "1011000000000000000000",
      "reserved": "",
      "salt": "0xfa649bd700fa06bf3c0cbdb621ee009d53401a5498ce8a04b548d96e45c50214",
      "assetIds": []
    },
    {
      "x": 277,
      "y": 314,
      "size": 1,
      "price": "1011000000000000000000",
      "reserved": "",
      "salt": "0x45ec772170eed68c068635065d197176f877fc543d9a1ec1c947bd801ef201d4",
      "assetIds": []
    },
    {
      "x": 277,
      "y": 315,
      "size": 1,
      "price": "1011000000000000000000",
      "reserved": "0x7a9fe22691c811ea339d9b73150e6911a5343dca",
      "salt": "0x2e9aea7891d44104a716bf3118235cdd6b3664da43bf668200faa0b353c0562d",
      "assetIds": []
    },
    {
      "x": 277,
      "y": 316,
      "size": 1,
      "price": "1011000000000000000000",
      "reserved": "",
      "salt": "0x56c18ebcd81ff68d113d14390e3cfc0138135d9917e9601c75df34918f2845a1",
      "assetIds": []
    },
    {
      "x": 277,
      "y": 317,
      "size": 1,
      "price": "1011000000000000000000",
      "reserved": "",
      "salt": "0x7e7da2a087fbbf6f95ed69bbf04cb088d8c82ad46cae33d20c10b7ec5d98ece2",
      "assetIds": []
    },
    {
      "x": 277,
      "y": 318,
      "size": 1,
      "price": "1011000000000000000000",
      "reserved": "0x7a9fe22691c811ea339d9b73150e6911a5343dca",
      "salt": "0x3c6f00cf8915eacbb3ddba987271e9bf65098bbbba79f23c01e42d4ea6e2f329",
      "assetIds": []
    },
    {
      "x": 277,
      "y": 319,
      "size": 1,
      "price": "1011000000000000000000",
      "reserved": "0x7a9fe22691c811ea339d9b73150e6911a5343dca",
      "salt": "0xcbd7fe500bddbbe75491abfd79150937658ddbe858187d54257802a239efa585",
      "assetIds": []
    },
    {
      "x": 277,
      "y": 320,
      "size": 1,
      "price": "1011000000000000000000",
      "reserved": "",
      "salt": "0x7fe204fdbba8a60b4e24b16406453d1f768d5d40f43ed9ce1a4a6081d70075c6",
      "assetIds": []
    },
    {
      "x": 277,
      "y": 321,
      "size": 1,
      "price": "1011000000000000000000",
      "reserved": "",
      "salt": "0xbe8c3f327cb7975f0951524c68f543a3031bcf83b7f5849b985a7a5f2040494e",
      "assetIds": []
    },
    {
      "x": 277,
      "y": 322,
      "size": 1,
      "price": "1011000000000000000000",
      "reserved": "0x7a9fe22691c811ea339d9b73150e6911a5343dca",
      "salt": "0xf06518d55d31cf1a867db1e2983f7191a62f52576c3e7bda15bb6a78c183e0ad",
      "assetIds": []
    },
    {
      "x": 277,
      "y": 323,
      "size": 1,
      "price": "1011000000000000000000",
      "reserved": "0x7a9fe22691c811ea339d9b73150e6911a5343dca",
      "salt": "0x3bcac7e2538ae86ad101ff66ec0fdd5c0ccc9136dd3525a1981ebe2f983c6a22",
      "assetIds": []
    },
    {
      "x": 277,
      "y": 324,
      "size": 1,
      "price": "4683000000000000000000",
      "reserved": "",
      "salt": "0x265414a9a514ea3ec27ed1cedaac91081d9da7e0d093bf374fd14d3a7a57ee5e",
      "assetIds": [
        "55464657044963196816950587289035428064568320970692304673817341489687790884865",
        "55464657044963196816950587289035428064568320970692304673817341489687782494208",
        "55464657044963196816950587289035428064568320970692304673817341489687790884866",
        "55464657044963196816950587289035428064568320970692304673817341489687782494209",
        "55464657044963196816950587289035428064568320970692304673817341489687790884864"
      ]
    },
    {
      "x": 277,
      "y": 325,
      "size": 1,
      "price": "4683000000000000000000",
      "reserved": "",
      "salt": "0x4b06f8b062a9b5fb2a40ce7f8f55f89ade774e8ae829f90c531f6492b2a1d80d",
      "assetIds": [
        "55464657044963196816950587289035428064568320970692304673817341489687790884865",
        "55464657044963196816950587289035428064568320970692304673817341489687782494208",
        "55464657044963196816950587289035428064568320970692304673817341489687790884866",
        "55464657044963196816950587289035428064568320970692304673817341489687782494209",
        "55464657044963196816950587289035428064568320970692304673817341489687790884864"
      ]
    },
    {
      "x": 277,
      "y": 326,
      "size": 1,
      "price": "1011000000000000000000",
      "reserved": "0x7a9fe22691c811ea339d9b73150e6911a5343dca",
      "salt": "0x34739717c4bfec6ed96a13a1259538016a0a72cf276941c6821f7ed3c3ca1225",
      "assetIds": []
    },
    {
      "x": 277,
      "y": 327,
      "size": 1,
      "price": "4683000000000000000000",
      "reserved": "",
      "salt": "0x1e40b75a12da0f8c72645bd5502f63c5b2f0a90b733fbde0dd175968d2508292",
      "assetIds": [
        "55464657044963196816950587289035428064568320970692304673817341489687790884865",
        "55464657044963196816950587289035428064568320970692304673817341489687782494208",
        "55464657044963196816950587289035428064568320970692304673817341489687790884866",
        "55464657044963196816950587289035428064568320970692304673817341489687782494209",
        "55464657044963196816950587289035428064568320970692304673817341489687790884864"
      ]
    },
    {
      "x": 277,
      "y": 328,
      "size": 1,
      "price": "4683000000000000000000",
      "reserved": "",
      "salt": "0x0537ed0664f27a7ff8647b84b00e363a41f98087ed4bcee43b6391de51a24470",
      "assetIds": [
        "55464657044963196816950587289035428064568320970692304673817341489687790884865",
        "55464657044963196816950587289035428064568320970692304673817341489687782494208",
        "55464657044963196816950587289035428064568320970692304673817341489687790884866",
        "55464657044963196816950587289035428064568320970692304673817341489687782494209",
        "55464657044963196816950587289035428064568320970692304673817341489687790884864"
      ]
    },
    {
      "x": 277,
      "y": 329,
      "size": 1,
      "price": "4683000000000000000000",
      "reserved": "",
      "salt": "0x5fe79dd4c06c279f4a4466319e12caf9e4c432113b8cb6a876b266591181c442",
      "assetIds": [
        "55464657044963196816950587289035428064568320970692304673817341489687790884865",
        "55464657044963196816950587289035428064568320970692304673817341489687782494208",
        "55464657044963196816950587289035428064568320970692304673817341489687790884866",
        "55464657044963196816950587289035428064568320970692304673817341489687782494209",
        "55464657044963196816950587289035428064568320970692304673817341489687790884864"
      ]
    },
    {
      "x": 277,
      "y": 330,
      "size": 1,
      "price": "4683000000000000000000",
      "reserved": "",
      "salt": "0x9d23bb81f1feeecce7f293ecca6f4e7717e988ad1871996f5e3e7ffaf516012c",
      "assetIds": [
        "55464657044963196816950587289035428064568320970692304673817341489687790884865",
        "55464657044963196816950587289035428064568320970692304673817341489687782494208",
        "55464657044963196816950587289035428064568320970692304673817341489687790884866",
        "55464657044963196816950587289035428064568320970692304673817341489687782494209",
        "55464657044963196816950587289035428064568320970692304673817341489687790884864"
      ]
    },
    {
      "x": 277,
      "y": 331,
      "size": 1,
      "price": "1011000000000000000000",
      "reserved": "0x7a9fe22691c811ea339d9b73150e6911a5343dca",
      "salt": "0x088fe89e512b1a46a299318424f96eb0c35d10e1325a7a944c61d9649c60d719",
      "assetIds": []
    },
    {
      "x": 277,
      "y": 332,
      "size": 1,
      "price": "4683000000000000000000",
      "reserved": "",
      "salt": "0xde7639ec12856b2b0959e83640547f6f564aaf6f8d75fd03a1b217f21883afd3",
      "assetIds": [
        "55464657044963196816950587289035428064568320970692304673817341489687790884865",
        "55464657044963196816950587289035428064568320970692304673817341489687782494208",
        "55464657044963196816950587289035428064568320970692304673817341489687790884866",
        "55464657044963196816950587289035428064568320970692304673817341489687782494209",
        "55464657044963196816950587289035428064568320970692304673817341489687790884864"
      ]
    },
    {
      "x": 277,
      "y": 333,
      "size": 1,
      "price": "4683000000000000000000",
      "reserved": "",
      "salt": "0x13b86efb102aeda4585d22ebb00939eda61513b796761f813ee800775860e183",
      "assetIds": [
        "55464657044963196816950587289035428064568320970692304673817341489687790884865",
        "55464657044963196816950587289035428064568320970692304673817341489687782494208",
        "55464657044963196816950587289035428064568320970692304673817341489687790884866",
        "55464657044963196816950587289035428064568320970692304673817341489687782494209",
        "55464657044963196816950587289035428064568320970692304673817341489687790884864"
      ]
    },
    {
      "x": 277,
      "y": 334,
      "size": 1,
      "price": "4683000000000000000000",
      "reserved": "",
      "salt": "0x5d1b74ab2339bc3cfc02bdb768e069cb4f8bfb6a11287970ce5924d836a426c6",
      "assetIds": [
        "55464657044963196816950587289035428064568320970692304673817341489687790884865",
        "55464657044963196816950587289035428064568320970692304673817341489687782494208",
        "55464657044963196816950587289035428064568320970692304673817341489687790884866",
        "55464657044963196816950587289035428064568320970692304673817341489687782494209",
        "55464657044963196816950587289035428064568320970692304673817341489687790884864"
      ]
    },
    {
      "x": 277,
      "y": 335,
      "size": 1,
      "price": "1011000000000000000000",
      "reserved": "0x7a9fe22691c811ea339d9b73150e6911a5343dca",
      "salt": "0x6070fdb402d2ca01d9964f7e4369938bdde2bdfa0c0507f154b62541a16f790b",
      "assetIds": []
    },
    {
      "x": 278,
      "y": 312,
      "size": 1,
      "price": "1011000000000000000000",
      "reserved": "",
      "salt": "0xf7f2d737d927916957cfa993f542516b86befb7b5a3492ff3206a687c66f0960",
      "assetIds": []
    },
    {
      "x": 278,
      "y": 313,
      "size": 1,
      "price": "1011000000000000000000",
      "reserved": "",
      "salt": "0x3706ad273202409416a29de9daaaa49668466be164210e391bd08fb0674ae5af",
      "assetIds": []
    },
    {
      "x": 278,
      "y": 314,
      "size": 1,
      "price": "1011000000000000000000",
      "reserved": "",
      "salt": "0x15b7f629da0b4e44ab65c4045606252a3969e57d6f11e623b96bf85a1eca4660",
      "assetIds": []
    },
    {
      "x": 278,
      "y": 315,
      "size": 1,
      "price": "1011000000000000000000",
      "reserved": "",
      "salt": "0x2f72db3c76a9a89d98ac8f06d8800a142118f16781c0211df2c07a10d408b3a5",
      "assetIds": []
    },
    {
      "x": 278,
      "y": 316,
      "size": 1,
      "price": "1011000000000000000000",
      "reserved": "",
      "salt": "0xc933216406a5f6d22ec56f0eefc699d1806cb52a4ceedd9dad0ec5dd2e9e0922",
      "assetIds": []
    },
    {
      "x": 278,
      "y": 317,
      "size": 1,
      "price": "1011000000000000000000",
      "reserved": "",
      "salt": "0xc145365385a00845a1e45e77d953cabfd5f58abf4cb5731db6632b46b668d860",
      "assetIds": []
    },
    {
      "x": 278,
      "y": 318,
      "size": 1,
      "price": "1011000000000000000000",
      "reserved": "",
      "salt": "0xab9870c6576e31c8b7bad1be176ad22cdb814096b9a0970e060903f19205717f",
      "assetIds": []
    },
    {
      "x": 278,
      "y": 319,
      "size": 1,
      "price": "1011000000000000000000",
      "reserved": "",
      "salt": "0x562e98c9adfca119bd24cacfbd83cf9f90be32589a23091858466256bddde0d5",
      "assetIds": []
    },
    {
      "x": 278,
      "y": 320,
      "size": 1,
      "price": "1011000000000000000000",
      "reserved": "0x7a9fe22691c811ea339d9b73150e6911a5343dca",
      "salt": "0xcd020d2a2e6c4341704fd4d1962bd7367cc8375dc3334e895dfcef64d8214103",
      "assetIds": []
    },
    {
      "x": 278,
      "y": 321,
      "size": 1,
      "price": "1011000000000000000000",
      "reserved": "",
      "salt": "0xa0181a97c0eaa01e80438a81efccb1fb1c7e0236092b3d05ebfdd35d22444ced",
      "assetIds": []
    },
    {
      "x": 278,
      "y": 322,
      "size": 1,
      "price": "1011000000000000000000",
      "reserved": "",
      "salt": "0xb9cab554d174b089cb38d46ab0e453824820faa60520ca48902ee4f95431a65a",
      "assetIds": []
    },
    {
      "x": 278,
      "y": 323,
      "size": 1,
      "price": "1011000000000000000000",
      "reserved": "",
      "salt": "0x82c697f32e4b42d79c96063e3d35399473ae02204734442bcbe47bfa0063f575",
      "assetIds": []
    },
    {
      "x": 278,
      "y": 324,
      "size": 1,
      "price": "1011000000000000000000",
      "reserved": "",
      "salt": "0x67d46cc972afb9f31d2979ab82d5dacc623786ff45ab2d9b7f3197ea0d548e19",
      "assetIds": []
    },
    {
      "x": 278,
      "y": 325,
      "size": 1,
      "price": "1011000000000000000000",
      "reserved": "",
      "salt": "0x4821a4c0b2a60bc27e73046b9e34d08d521c68e829b816ce9ef2ba27425001cc",
      "assetIds": []
    },
    {
      "x": 278,
      "y": 326,
      "size": 1,
      "price": "1011000000000000000000",
      "reserved": "",
      "salt": "0x08ecb76cafa03deee9c434b4e1cc149f303be7f7688b923bafda278b66f586af",
      "assetIds": []
    },
    {
      "x": 278,
      "y": 327,
      "size": 1,
      "price": "1011000000000000000000",
      "reserved": "",
      "salt": "0x17e086648fe25ec7985b491a9fe58698ca3e8b0843282871e729774eb4007280",
      "assetIds": []
    },
    {
      "x": 278,
      "y": 328,
      "size": 1,
      "price": "1011000000000000000000",
      "reserved": "",
      "salt": "0xd3fdb350902166aa56b42432f752e7d731b9423f74c5f9da7c488a0f21d3edd1",
      "assetIds": []
    },
    {
      "x": 278,
      "y": 329,
      "size": 1,
      "price": "1011000000000000000000",
      "reserved": "",
      "salt": "0x18953e12b3606c51c21159d3a34c8cc45460016679d7f11720975a5eb41bad93",
      "assetIds": []
    },
    {
      "x": 278,
      "y": 330,
      "size": 1,
      "price": "1011000000000000000000",
      "reserved": "",
      "salt": "0x4ace35b2c475f5e2e5bbe104ddae77b629b670ad53bef8c34dcf0a02188c059e",
      "assetIds": []
    },
    {
      "x": 278,
      "y": 331,
      "size": 1,
      "price": "1011000000000000000000",
      "reserved": "",
      "salt": "0xdd2a58a2bbad8c156ee6acbc88c64978fb550514615dcf77aa765f71e92c3a17",
      "assetIds": []
    },
    {
      "x": 278,
      "y": 332,
      "size": 1,
      "price": "1011000000000000000000",
      "reserved": "",
      "salt": "0x5407c2f5635ea91cf2befafd970f598ae628beef054271c77efbe9b0ce46e98e",
      "assetIds": []
    },
    {
      "x": 278,
      "y": 333,
      "size": 1,
      "price": "1011000000000000000000",
      "reserved": "0x7a9fe22691c811ea339d9b73150e6911a5343dca",
      "salt": "0x2d7cbc987c2dee91e6112bd60258924f2505f544108f27baa10af5f635644bd7",
      "assetIds": []
    },
    {
      "x": 278,
      "y": 334,
      "size": 1,
      "price": "1011000000000000000000",
      "reserved": "",
      "salt": "0xbc0e8868d5b650665f10b4fffbe2465475f327246a310c7e1b61078715e98b72",
      "assetIds": []
    },
    {
      "x": 278,
      "y": 335,
      "size": 1,
      "price": "1011000000000000000000",
      "reserved": "0x7a9fe22691c811ea339d9b73150e6911a5343dca",
      "salt": "0x16df0d03eab834bcea73605e5c932f98b0adb0b2b815d2ba88ab6ab31355f3ce",
      "assetIds": []
    },
    {
      "x": 279,
      "y": 312,
      "size": 1,
      "price": "1011000000000000000000",
      "reserved": "",
      "salt": "0xb832a8e6b92aab330680f53465824cfbe3bdbd371420712a899353476c1397a3",
      "assetIds": []
    },
    {
      "x": 279,
      "y": 313,
      "size": 1,
      "price": "1011000000000000000000",
      "reserved": "0x7a9fe22691c811ea339d9b73150e6911a5343dca",
      "salt": "0xcbecfdc6f4ded1edcc6e29d20552bf0c85b0a37b4b9174362e2c8eba9f54de98",
      "assetIds": []
    },
    {
      "x": 279,
      "y": 314,
      "size": 1,
      "price": "1011000000000000000000",
      "reserved": "",
      "salt": "0x407649c710c310107b20d77833302dcbfc3f6a460bf06ddc91f5c01a281e1c44",
      "assetIds": []
    },
    {
      "x": 279,
      "y": 315,
      "size": 1,
      "price": "1011000000000000000000",
      "reserved": "",
      "salt": "0xfec6e881de0b449f23bd83f2129118a5f82ec8116b58b371b6ec6b943c4f7866",
      "assetIds": []
    },
    {
      "x": 279,
      "y": 316,
      "size": 1,
      "price": "1011000000000000000000",
      "reserved": "",
      "salt": "0x25eeff83f439bd6182ae44e04007b7aa8271b0ac61191337980ba305fb41752e",
      "assetIds": []
    },
    {
      "x": 279,
      "y": 317,
      "size": 1,
      "price": "1011000000000000000000",
      "reserved": "",
      "salt": "0xee9eaa51abd8a127092af119b724d25c00dfff0d47a798b51ac126af34764cbf",
      "assetIds": []
    },
    {
      "x": 279,
      "y": 318,
      "size": 1,
      "price": "1011000000000000000000",
      "reserved": "",
      "salt": "0x96b3686381868d0f4038df3b6afe28f98a6214273cbeb0b106d1ab03c50a299b",
      "assetIds": []
    },
    {
      "x": 279,
      "y": 319,
      "size": 1,
      "price": "1011000000000000000000",
      "reserved": "",
      "salt": "0xc1543b6d6781b3930aae10ad6fdb9bb243d93960c1f6ded199c036a81d830a65",
      "assetIds": []
    },
    {
      "x": 279,
      "y": 320,
      "size": 1,
      "price": "1011000000000000000000",
      "reserved": "",
      "salt": "0x561631281f91441e01f8ec207d55ffd990f908f3a22ed7f5d772bd2547699579",
      "assetIds": []
    },
    {
      "x": 279,
      "y": 321,
      "size": 1,
      "price": "1011000000000000000000",
      "reserved": "",
      "salt": "0x48fac89ea6e70bfbcd5e623be2f436e3c1c10cd434a2a0fc972b448f363ae492",
      "assetIds": []
    },
    {
      "x": 279,
      "y": 322,
      "size": 1,
      "price": "1011000000000000000000",
      "reserved": "0x7a9fe22691c811ea339d9b73150e6911a5343dca",
      "salt": "0x0abb95a07d009339199f0ef4c01e4dd8bcb7523467238957fdbe24e8c5dafd1d",
      "assetIds": []
    },
    {
      "x": 279,
      "y": 323,
      "size": 1,
      "price": "1011000000000000000000",
      "reserved": "0x7a9fe22691c811ea339d9b73150e6911a5343dca",
      "salt": "0xc8d2d63da425684b4362369b6a0dd0d3f96a91ef24f61c4e1a61b4cfd4cea7c4",
      "assetIds": []
    },
    {
      "x": 279,
      "y": 324,
      "size": 1,
      "price": "1011000000000000000000",
      "reserved": "",
      "salt": "0x059ab215f308249c6709bd825614ad4d63637573c1a1cc0cd1ec01bbc837736b",
      "assetIds": []
    },
    {
      "x": 279,
      "y": 325,
      "size": 1,
      "price": "1011000000000000000000",
      "reserved": "",
      "salt": "0xc68d8ae739894e4797a9ef964ca09658b9ea7197d176fc5dfd4fd7564795b57e",
      "assetIds": []
    },
    {
      "x": 279,
      "y": 326,
      "size": 1,
      "price": "1011000000000000000000",
      "reserved": "",
      "salt": "0xa07b0a82c30d11530fb430aa83bfc82f6f58388e4a8c4e132844495d1449ac57",
      "assetIds": []
    },
    {
      "x": 279,
      "y": 327,
      "size": 1,
      "price": "1011000000000000000000",
      "reserved": "",
      "salt": "0x8ae41bc039011dec47b86b3dcd493e07d1801a0dd7f9037b95a8d8e1eb58aa76",
      "assetIds": []
    },
    {
      "x": 279,
      "y": 328,
      "size": 1,
      "price": "1011000000000000000000",
      "reserved": "",
      "salt": "0x09bff5d6c3131efbd144d509df2edc054be51dac5d7fd1d0cf1eafdf9c2bcae4",
      "assetIds": []
    },
    {
      "x": 279,
      "y": 329,
      "size": 1,
      "price": "1011000000000000000000",
      "reserved": "",
      "salt": "0xa5f40ae708514543b7cdeda234f34fdcac660e0c15532df8903ba859f716bb48",
      "assetIds": []
    },
    {
      "x": 279,
      "y": 330,
      "size": 1,
      "price": "1011000000000000000000",
      "reserved": "",
      "salt": "0xcf233fccc1874e445a9cab993f4be12718b950c57c85092568d8d53a17f3a03b",
      "assetIds": []
    },
    {
      "x": 279,
      "y": 331,
      "size": 1,
      "price": "1011000000000000000000",
      "reserved": "",
      "salt": "0x6956924d8e8fea6f6435813a477af19d2390be9dbaf78779dd4d672efb5aff77",
      "assetIds": []
    },
    {
      "x": 279,
      "y": 332,
      "size": 1,
      "price": "1011000000000000000000",
      "reserved": "0x7a9fe22691c811ea339d9b73150e6911a5343dca",
      "salt": "0xf308a7a80060cb09d67621c0f4bc1b804b7b8fb5416b23df640d88a89670b8be",
      "assetIds": []
    },
    {
      "x": 279,
      "y": 333,
      "size": 1,
      "price": "1011000000000000000000",
      "reserved": "",
      "salt": "0x855065f02a8d2dde7b2612b0e4af0cfd79c615898507bb5823fcf604bdef30dd",
      "assetIds": []
    },
    {
      "x": 279,
      "y": 334,
      "size": 1,
      "price": "1011000000000000000000",
      "reserved": "0x7a9fe22691c811ea339d9b73150e6911a5343dca",
      "salt": "0x801c0416cde9181bfaa50334ff4314d9c35ac1620572ee9c31779f906575d4e0",
      "assetIds": []
    },
    {
      "x": 279,
      "y": 335,
      "size": 1,
      "price": "1011000000000000000000",
      "reserved": "0x7a9fe22691c811ea339d9b73150e6911a5343dca",
      "salt": "0xbe6357ac46ec34507517176264059f98b966d2be78a7893f58064f1c1aa3d30f",
      "assetIds": []
    },
    {
      "x": 280,
      "y": 312,
      "size": 1,
      "price": "1011000000000000000000",
      "reserved": "0x7a9fe22691c811ea339d9b73150e6911a5343dca",
      "salt": "0x0a313855140e38fa2fe04dee19ff25b19bff9fa035a7a8b51d6836959eb714c4",
      "assetIds": []
    },
    {
      "x": 280,
      "y": 313,
      "size": 1,
      "price": "1011000000000000000000",
      "reserved": "",
      "salt": "0x06a6b2cc6774ed47866f1305abe5fa03ad13fc92fbfd22b80e3e9cd90b14e41b",
      "assetIds": []
    },
    {
      "x": 280,
      "y": 314,
      "size": 1,
      "price": "1011000000000000000000",
      "reserved": "",
      "salt": "0xd9ecb0adbde3efec43f25789e08dd9dbc7fed1d47fb50404daf5996265a30fb3",
      "assetIds": []
    },
    {
      "x": 280,
      "y": 315,
      "size": 1,
      "price": "1011000000000000000000",
      "reserved": "",
      "salt": "0xdcc46c9a2031c6992747169384cc7d761e0b015efb77149345de12a9d736431a",
      "assetIds": []
    },
    {
      "x": 280,
      "y": 316,
      "size": 1,
      "price": "1011000000000000000000",
      "reserved": "",
      "salt": "0xa456efd06f904fcd565df0bc3cc851c4410cc7baea3aa1930b5a18d4b283f3d5",
      "assetIds": []
    },
    {
      "x": 280,
      "y": 317,
      "size": 1,
      "price": "1011000000000000000000",
      "reserved": "",
      "salt": "0xaefbf4c1ef145fcbac1f3e65f2432019dbf3291c97a723ea063528ffceb5b9a8",
      "assetIds": []
    },
    {
      "x": 280,
      "y": 318,
      "size": 1,
      "price": "1011000000000000000000",
      "reserved": "",
      "salt": "0x3703e781f6245f1d2b5f97cc8a140f9719acb5beef71a2c9a2b786bd38a922ab",
      "assetIds": []
    },
    {
      "x": 280,
      "y": 319,
      "size": 1,
      "price": "1011000000000000000000",
      "reserved": "",
      "salt": "0x0114d67848c754b5e342e07d3fad2ae38ded57ef6b1291993eb810b846e74e16",
      "assetIds": []
    },
    {
      "x": 280,
      "y": 320,
      "size": 1,
      "price": "1011000000000000000000",
      "reserved": "",
      "salt": "0xd07b844a533585a4e2c9ad4e62e0906515eb13b1b4987fd4be6e74098e7c3fac",
      "assetIds": []
    },
    {
      "x": 280,
      "y": 321,
      "size": 1,
      "price": "1011000000000000000000",
      "reserved": "",
      "salt": "0x0fcc94ff37004ec78666cc3f75ab22e98da902aeca6a0e88395461ca8781c1b6",
      "assetIds": []
    },
    {
      "x": 280,
      "y": 322,
      "size": 1,
      "price": "1011000000000000000000",
      "reserved": "",
      "salt": "0x4f175e32412f125be329a25f4351bbd6afd48d52c1f6a5b74876518fcab465c5",
      "assetIds": []
    },
    {
      "x": 280,
      "y": 323,
      "size": 1,
      "price": "1011000000000000000000",
      "reserved": "",
      "salt": "0xed379f01e9f040d0876761557b9f5f846b77ed5d5c0953fe25a30ebfd62854aa",
      "assetIds": []
    },
    {
      "x": 280,
      "y": 324,
      "size": 1,
      "price": "1011000000000000000000",
      "reserved": "",
      "salt": "0xebe425181db9ecca1fe67bf77277ae0cb1913376faa255e4eb0bde4db7004c72",
      "assetIds": []
    },
    {
      "x": 280,
      "y": 325,
      "size": 1,
      "price": "1011000000000000000000",
      "reserved": "",
      "salt": "0xf7e5ddae158dd44ecfa0df65975ffad4a9456a1451964c9b1a5a1c80d2c65c08",
      "assetIds": []
    },
    {
      "x": 280,
      "y": 326,
      "size": 1,
      "price": "1011000000000000000000",
      "reserved": "",
      "salt": "0x4f602dd136de9fa138840084deb876489d5bd890092ff0e955bf935638511e11",
      "assetIds": []
    },
    {
      "x": 280,
      "y": 327,
      "size": 1,
      "price": "1011000000000000000000",
      "reserved": "",
      "salt": "0x3915d18fd50eb9d9f023346f4c5aaf562c545ce700671e320f0bdead20c06772",
      "assetIds": []
    },
    {
      "x": 280,
      "y": 328,
      "size": 1,
      "price": "1011000000000000000000",
      "reserved": "",
      "salt": "0x67e2f93639cc9020482064e9ed9db51c5fcffddfbbcbfc77a44ea424261d813e",
      "assetIds": []
    },
    {
      "x": 280,
      "y": 329,
      "size": 1,
      "price": "1011000000000000000000",
      "reserved": "0x7a9fe22691c811ea339d9b73150e6911a5343dca",
      "salt": "0xb105151ac89c81d5b87a5467f9e6f96c84eadeb75c472580636d71597ff4e433",
      "assetIds": []
    },
    {
      "x": 280,
      "y": 330,
      "size": 1,
      "price": "1011000000000000000000",
      "reserved": "",
      "salt": "0x6cf79ed766670edb3edd496a9ac4ee2256d4e84958f7d341c6eaee36724e24dc",
      "assetIds": []
    },
    {
      "x": 280,
      "y": 331,
      "size": 1,
      "price": "1011000000000000000000",
      "reserved": "0x7a9fe22691c811ea339d9b73150e6911a5343dca",
      "salt": "0xd77c4125bcd3bd432b78a28e1f9ff4dabebcadac46bf0252f3cd85e4ef4b8178",
      "assetIds": []
    },
    {
      "x": 280,
      "y": 332,
      "size": 1,
      "price": "1011000000000000000000",
      "reserved": "",
      "salt": "0xb719bdf01bb9d9337a8212b58d52c1890a73717d193276ac6f110a4347fc2b7f",
      "assetIds": []
    },
    {
      "x": 280,
      "y": 333,
      "size": 1,
      "price": "1011000000000000000000",
      "reserved": "",
      "salt": "0x317f130f108ce748740647d499b68177a609d4cb83012c0d0e5f5b0ae533bf87",
      "assetIds": []
    },
    {
      "x": 280,
      "y": 334,
      "size": 1,
      "price": "1011000000000000000000",
      "reserved": "",
      "salt": "0xc558a8ff65a27c3068aacbd9176a9db29c62a47861b75bf8a1994e740d206d7d",
      "assetIds": []
    },
    {
      "x": 280,
      "y": 335,
      "size": 1,
      "price": "1011000000000000000000",
      "reserved": "",
      "salt": "0xdcd0792cde67effb207bb8062abb02ed4dbcd61e754a152f749dd637a97ba214",
      "assetIds": []
    },
    {
      "x": 281,
      "y": 312,
      "size": 1,
      "price": "1011000000000000000000",
      "reserved": "",
      "salt": "0x40d449f9c9bf9f974730a0e41bf35755846aa4bf39bcb171e0f70da6e7b7260d",
      "assetIds": []
    },
    {
      "x": 281,
      "y": 313,
      "size": 1,
      "price": "1011000000000000000000",
      "reserved": "",
      "salt": "0x37250a330c9161680b2c182a08f4170661d8c07e9203465fc2d98fff75055ab4",
      "assetIds": []
    },
    {
      "x": 281,
      "y": 314,
      "size": 1,
      "price": "1011000000000000000000",
      "reserved": "",
      "salt": "0x93ab5f18ecb5e453353db9bc1db9114406d0d241c7bb23c99350527e3246dab1",
      "assetIds": []
    },
    {
      "x": 281,
      "y": 315,
      "size": 1,
      "price": "1011000000000000000000",
      "reserved": "",
      "salt": "0xd46028823022e1d4701f25d9fe1534e664479086edc764114b269305e8f1db45",
      "assetIds": []
    },
    {
      "x": 281,
      "y": 316,
      "size": 1,
      "price": "1011000000000000000000",
      "reserved": "",
      "salt": "0x012f543dcf3c18c25ad7657ea0218c60580df08e11c4007d2ff5da65c21a94b3",
      "assetIds": []
    },
    {
      "x": 281,
      "y": 317,
      "size": 1,
      "price": "1011000000000000000000",
      "reserved": "",
      "salt": "0x3096ff8dc5e1b5addda1aa98087d211f5a96537918a21e388239538630e5f5d0",
      "assetIds": []
    },
    {
      "x": 281,
      "y": 318,
      "size": 1,
      "price": "1011000000000000000000",
      "reserved": "",
      "salt": "0xa1e813035fb62c09b4e867013d46421c9d872c2ffeb155df07b234507018f2e1",
      "assetIds": []
    },
    {
      "x": 281,
      "y": 319,
      "size": 1,
      "price": "1011000000000000000000",
      "reserved": "",
      "salt": "0x3af37545889bd9656bf6749dc0efdb33a37e2bffd4d7c18c6babef53760d68d4",
      "assetIds": []
    },
    {
      "x": 281,
      "y": 320,
      "size": 1,
      "price": "1011000000000000000000",
      "reserved": "",
      "salt": "0x71e405a1d6a42a19a5b9e04559d4b1f0c7361c53a68c3f52a8e443aebcc32c9d",
      "assetIds": []
    },
    {
      "x": 281,
      "y": 321,
      "size": 1,
      "price": "1011000000000000000000",
      "reserved": "0x7a9fe22691c811ea339d9b73150e6911a5343dca",
      "salt": "0x14ce5f20fb7897bd7f5dc365ddd1387d11584c9f0b7a7b4440aa832f15722aae",
      "assetIds": []
    },
    {
      "x": 281,
      "y": 322,
      "size": 1,
      "price": "1011000000000000000000",
      "reserved": "",
      "salt": "0x26575dcd79eb0f0b9fed7079ab499bd601eb81da97358d26be8bf7b548c6fbcb",
      "assetIds": []
    },
    {
      "x": 281,
      "y": 323,
      "size": 1,
      "price": "1011000000000000000000",
      "reserved": "",
      "salt": "0x7be8776f947a94651357b609f545e9be4fe4fde9b307e43b9d95455c5fee1d1c",
      "assetIds": []
    },
    {
      "x": 281,
      "y": 324,
      "size": 1,
      "price": "1011000000000000000000",
      "reserved": "",
      "salt": "0x23e29f1c1eedbf9da5a0f23d26d34000007632936cd3c30ab1c5f50d3440725f",
      "assetIds": []
    },
    {
      "x": 281,
      "y": 325,
      "size": 1,
      "price": "1011000000000000000000",
      "reserved": "",
      "salt": "0x57783a3c30b569eb2c6ec097ff6e6e749f9c1e139f94dc45caa87aad4179bfcf",
      "assetIds": []
    },
    {
      "x": 281,
      "y": 326,
      "size": 1,
      "price": "1011000000000000000000",
      "reserved": "",
      "salt": "0xfa6fef7d194aee4482d12e92f3163bcfbbe4d09d42f69beff34d3c9069b58b8c",
      "assetIds": []
    },
    {
      "x": 281,
      "y": 327,
      "size": 1,
      "price": "1011000000000000000000",
      "reserved": "",
      "salt": "0x7eb47751c5c3a06c56c1f31be7d6ca6dc84459ea06767c579aff896df1f7ac71",
      "assetIds": []
    },
    {
      "x": 281,
      "y": 328,
      "size": 1,
      "price": "1011000000000000000000",
      "reserved": "",
      "salt": "0x0becb6d7a9eeb07feab51e7fcea3c69f202e9de1471950430ea37e417e68ab5e",
      "assetIds": []
    },
    {
      "x": 281,
      "y": 329,
      "size": 1,
      "price": "1011000000000000000000",
      "reserved": "",
      "salt": "0x47f4a4b3cf02fbd0118044e516884d6bfbbd711e197ca130e38a51e798940e45",
      "assetIds": []
    },
    {
      "x": 281,
      "y": 330,
      "size": 1,
      "price": "1011000000000000000000",
      "reserved": "",
      "salt": "0x773eb467c15f4d67abbb7f2684a5a8d17be7b62ae7ec001f0c0ed4e58a31d22a",
      "assetIds": []
    },
    {
      "x": 281,
      "y": 331,
      "size": 1,
      "price": "1011000000000000000000",
      "reserved": "0x7a9fe22691c811ea339d9b73150e6911a5343dca",
      "salt": "0x4722f84fdbdb6ae03ae05fd399b0c968b4ac9eac98149b1c8b9df331a8e137e8",
      "assetIds": []
    },
    {
      "x": 281,
      "y": 332,
      "size": 1,
      "price": "1011000000000000000000",
      "reserved": "",
      "salt": "0xe94e8864f42ffcea614687908f48a27a72a6f9f968b6658308a9fd96f6640a62",
      "assetIds": []
    },
    {
      "x": 281,
      "y": 333,
      "size": 1,
      "price": "1011000000000000000000",
      "reserved": "",
      "salt": "0xc747531871f2e450c0701d46d4d9b9fe01afb024506e4f6748fe87403ea1f49b",
      "assetIds": []
    },
    {
      "x": 281,
      "y": 334,
      "size": 1,
      "price": "1011000000000000000000",
      "reserved": "",
      "salt": "0x80de9e98c684ae9dbe94e136853887704aa6a96ac05f6dc67a47a16cb9368211",
      "assetIds": []
    },
    {
      "x": 281,
      "y": 335,
      "size": 1,
      "price": "1011000000000000000000",
      "reserved": "",
      "salt": "0x8d009eb23eb6e0aa54fbcbb459e879df840a543b915798ef0f457fa7385de3d1",
      "assetIds": []
    },
    {
      "x": 282,
      "y": 312,
      "size": 1,
      "price": "1011000000000000000000",
      "reserved": "",
      "salt": "0xc2c800f9dbf9f2aa1a3b5c6bc3b3465aea101705db4eb69ea791ca769f842597",
      "assetIds": []
    },
    {
      "x": 282,
      "y": 313,
      "size": 1,
      "price": "1011000000000000000000",
      "reserved": "",
      "salt": "0x94dd02987d76e0d0da563c2ea80d0aad795be48831569e191ad51b15d320a245",
      "assetIds": []
    },
    {
      "x": 282,
      "y": 314,
      "size": 1,
      "price": "1011000000000000000000",
      "reserved": "",
      "salt": "0x5ce426ff68c32a1e39898f76e315723619c58de897f2902d92502d4a80b686b0",
      "assetIds": []
    },
    {
      "x": 282,
      "y": 315,
      "size": 1,
      "price": "1011000000000000000000",
      "reserved": "",
      "salt": "0xf801547ec047ab6c8c6e2743b69585bf5e5c90522d7fbe61831452228a091076",
      "assetIds": []
    },
    {
      "x": 282,
      "y": 316,
      "size": 1,
      "price": "1011000000000000000000",
      "reserved": "",
      "salt": "0xc2c8c5737348e807a6e59be604d3c152dfd9394e467826c42e2b7e6b09eba2f3",
      "assetIds": []
    },
    {
      "x": 282,
      "y": 317,
      "size": 1,
      "price": "1011000000000000000000",
      "reserved": "",
      "salt": "0xf3c671ae78237591fd17e40b9410fbc60e229c97930304862792b1232a43dd1b",
      "assetIds": []
    },
    {
      "x": 282,
      "y": 318,
      "size": 1,
      "price": "1011000000000000000000",
      "reserved": "",
      "salt": "0x9483406185e2fe47aa5100533df1920228de4b5a855e18b40183956d0736b64f",
      "assetIds": []
    },
    {
      "x": 282,
      "y": 319,
      "size": 1,
      "price": "1011000000000000000000",
      "reserved": "",
      "salt": "0xd51c3c955f420182add86c0515b1eac678f4a5e2f48912cd62e61dba954c9d34",
      "assetIds": []
    },
    {
      "x": 282,
      "y": 320,
      "size": 1,
      "price": "1011000000000000000000",
      "reserved": "",
      "salt": "0xaa53a9dc1f1d9e1b0570786d643ee2fe5c20310953d4cdee503cabd512d75624",
      "assetIds": []
    },
    {
      "x": 282,
      "y": 321,
      "size": 1,
      "price": "1011000000000000000000",
      "reserved": "",
      "salt": "0x3b5651f12be65e42367674b408692df22a8c78a7036970811980dcf9d27046c8",
      "assetIds": []
    },
    {
      "x": 282,
      "y": 322,
      "size": 1,
      "price": "1011000000000000000000",
      "reserved": "",
      "salt": "0x2cc21b78e3a864a3045134b6fa1264231bb3a4270f2059bc037369207b9c54ae",
      "assetIds": []
    },
    {
      "x": 282,
      "y": 323,
      "size": 1,
      "price": "1011000000000000000000",
      "reserved": "0x7a9fe22691c811ea339d9b73150e6911a5343dca",
      "salt": "0x37f2910375e2d9b2b6cd0c6e86f4914d4fead4d6a3e6b4e8c8e75311d0da5457",
      "assetIds": []
    },
    {
      "x": 282,
      "y": 324,
      "size": 1,
      "price": "1011000000000000000000",
      "reserved": "",
      "salt": "0x9fc41333695d73c1cd02752ea79480a4745efa568aeec9df928506c13a44c573",
      "assetIds": []
    },
    {
      "x": 282,
      "y": 325,
      "size": 1,
      "price": "1011000000000000000000",
      "reserved": "",
      "salt": "0x4916f72343042aa19d94e4c07feaf05070a16535a2871c51675e18b2f0f0433a",
      "assetIds": []
    },
    {
      "x": 282,
      "y": 326,
      "size": 1,
      "price": "1011000000000000000000",
      "reserved": "",
      "salt": "0xbcfb955ea75bd890f0227259e71d26e746628984bca1aa2567d454604af6b321",
      "assetIds": []
    },
    {
      "x": 282,
      "y": 327,
      "size": 1,
      "price": "1011000000000000000000",
      "reserved": "",
      "salt": "0x23db958111cd7b00d2eb9b5505ab9896475d26ae3b78daad2bd75c475af4e302",
      "assetIds": []
    },
    {
      "x": 282,
      "y": 328,
      "size": 1,
      "price": "1011000000000000000000",
      "reserved": "",
      "salt": "0x6511713bf6f8017f0d22842b7f8c3a1a7c9ccafca97119a54a842820f2e72d80",
      "assetIds": []
    },
    {
      "x": 282,
      "y": 329,
      "size": 1,
      "price": "1011000000000000000000",
      "reserved": "",
      "salt": "0xc11c21ee588933944546e7587303e6ae7b85b98f078679e0a9c0cf54ada18f69",
      "assetIds": []
    },
    {
      "x": 282,
      "y": 330,
      "size": 1,
      "price": "1011000000000000000000",
      "reserved": "0x7a9fe22691c811ea339d9b73150e6911a5343dca",
      "salt": "0x6a77290dae9b8357449fe143f8390cd4a4646199038aff530ef8ff48cce6e091",
      "assetIds": []
    },
    {
      "x": 282,
      "y": 331,
      "size": 1,
      "price": "1011000000000000000000",
      "reserved": "",
      "salt": "0x7a5f45a18f5fa5537728506bb3f204ea7d26ce608377ba8425256058f7334b10",
      "assetIds": []
    },
    {
      "x": 282,
      "y": 332,
      "size": 1,
      "price": "1011000000000000000000",
      "reserved": "",
      "salt": "0x1217202d366dcfbcd8c427fee07c2dde16546ddac86b126e2eada42882e4e304",
      "assetIds": []
    },
    {
      "x": 282,
      "y": 333,
      "size": 1,
      "price": "1011000000000000000000",
      "reserved": "0x7a9fe22691c811ea339d9b73150e6911a5343dca",
      "salt": "0xd4af269f2ffdadc3f271b99a02112308bad7c3dcb7205f3e3e936c773bba2799",
      "assetIds": []
    },
    {
      "x": 282,
      "y": 334,
      "size": 1,
      "price": "1011000000000000000000",
      "reserved": "",
      "salt": "0xe256d2aff013aa67c3c3a006490adcc45f349040800879e361008dd0babc84f7",
      "assetIds": []
    },
    {
      "x": 282,
      "y": 335,
      "size": 1,
      "price": "1011000000000000000000",
      "reserved": "",
      "salt": "0xc395746ddf53337420e26ca895e41437640f697fe5f5f9f43004627fe2e4d646",
      "assetIds": []
    },
    {
      "x": 283,
      "y": 312,
      "size": 1,
      "price": "1011000000000000000000",
      "reserved": "",
      "salt": "0xd9f63b2d45108aade1f2c82e518b6e8a0157078c6b43968294053218adf5c954",
      "assetIds": []
    },
    {
      "x": 283,
      "y": 313,
      "size": 1,
      "price": "1011000000000000000000",
      "reserved": "",
      "salt": "0xda64496ff16211d528a6593f5332a875587d76b740fbdac0e708aba991878160",
      "assetIds": []
    },
    {
      "x": 283,
      "y": 314,
      "size": 1,
      "price": "1011000000000000000000",
      "reserved": "",
      "salt": "0x409a4a6b0b44cb7157cd6a2b897d6f859d176836ac50cdf8ccde83379176483b",
      "assetIds": []
    },
    {
      "x": 283,
      "y": 315,
      "size": 1,
      "price": "1011000000000000000000",
      "reserved": "",
      "salt": "0x6dc8fc7c8ffef3e9bcae07b343e44d2d59cc69a99fc12a970ba8152672c34039",
      "assetIds": []
    },
    {
      "x": 283,
      "y": 316,
      "size": 1,
      "price": "1011000000000000000000",
      "reserved": "",
      "salt": "0xda5419e253aabbe4f192a948e7860bf724c98f8c696dc85c7c2d4f1bb874c183",
      "assetIds": []
    },
    {
      "x": 283,
      "y": 317,
      "size": 1,
      "price": "1011000000000000000000",
      "reserved": "",
      "salt": "0x4483380ccae5a7300cc19d804b5e5a7f0c6075583d0224676c8f8d5ff51e0d37",
      "assetIds": []
    },
    {
      "x": 283,
      "y": 318,
      "size": 1,
      "price": "1011000000000000000000",
      "reserved": "",
      "salt": "0x90fe04bebcff7e351d9f2569b7488ce750964ed9b0317ec65bd71fbe1d51c9a9",
      "assetIds": []
    },
    {
      "x": 283,
      "y": 319,
      "size": 1,
      "price": "1011000000000000000000",
      "reserved": "",
      "salt": "0x2e0cc2750831b5da4be8de4cc83673fdb764ab6b58a210fd5e69d86496001cd4",
      "assetIds": []
    },
    {
      "x": 283,
      "y": 320,
      "size": 1,
      "price": "1011000000000000000000",
      "reserved": "",
      "salt": "0x5eff21058ff7c7c6da418dcc2c79329f7c595157748b09e9072f087976a7acf3",
      "assetIds": []
    },
    {
      "x": 283,
      "y": 321,
      "size": 1,
      "price": "1011000000000000000000",
      "reserved": "",
      "salt": "0xc5d1c18f84365d6e0f965127b8617710c03c019118099e0c019845b9ff9ca0a0",
      "assetIds": []
    },
    {
      "x": 283,
      "y": 322,
      "size": 1,
      "price": "1011000000000000000000",
      "reserved": "",
      "salt": "0xf31f569ef74939c777b10ce1015a08bad70aac0ff911eb3f7529caaa301966ad",
      "assetIds": []
    },
    {
      "x": 283,
      "y": 323,
      "size": 1,
      "price": "1011000000000000000000",
      "reserved": "",
      "salt": "0x74c4ded6f7abc5097b21670cd42c845efa5d93452ac0536c991a0d0504ec5a6f",
      "assetIds": []
    },
    {
      "x": 283,
      "y": 324,
      "size": 1,
      "price": "1011000000000000000000",
      "reserved": "",
      "salt": "0x984a513227c73f72ccd8af1110b9ce566fca60756908b6ee725eda856a7e83e6",
      "assetIds": []
    },
    {
      "x": 283,
      "y": 325,
      "size": 1,
      "price": "1011000000000000000000",
      "reserved": "",
      "salt": "0xc60dad418a77eabdcb6ac4a779c8c18bc61740b54f0afeb70067d4b35846e605",
      "assetIds": []
    },
    {
      "x": 283,
      "y": 326,
      "size": 1,
      "price": "1011000000000000000000",
      "reserved": "",
      "salt": "0x8f1f15bd84d1eed0e55b8ac8ff69d0ddb12c53581a475c3925e0b7ba6a88225d",
      "assetIds": []
    },
    {
      "x": 283,
      "y": 327,
      "size": 1,
      "price": "1011000000000000000000",
      "reserved": "",
      "salt": "0x024ccf811f4595a70f9b3f9324583ec3361e0e4c8da3888aac9d16ca6a4ec011",
      "assetIds": []
    },
    {
      "x": 283,
      "y": 328,
      "size": 1,
      "price": "1011000000000000000000",
      "reserved": "",
      "salt": "0xea0837be334d2576f3a8b5933e8147c53e19dc8b3100c7ffbe902514a3d8fa6d",
      "assetIds": []
    },
    {
      "x": 283,
      "y": 329,
      "size": 1,
      "price": "1011000000000000000000",
      "reserved": "",
      "salt": "0x45bcc87a31c41fc2d7caee3663b6dc42fd1572e24b752f17e9f63fa4ab0cea1b",
      "assetIds": []
    },
    {
      "x": 283,
      "y": 330,
      "size": 1,
      "price": "1011000000000000000000",
      "reserved": "",
      "salt": "0x284256f0a67ae829f2401213aa8e9652b47964e7e5fde6b80e2e3c281487e3cf",
      "assetIds": []
    },
    {
      "x": 283,
      "y": 331,
      "size": 1,
      "price": "1011000000000000000000",
      "reserved": "",
      "salt": "0xf14aeda6b388265c144f19d3f12fe3f9cc594d4cee7d0f0c91972d4727d36503",
      "assetIds": []
    },
    {
      "x": 283,
      "y": 332,
      "size": 1,
      "price": "1011000000000000000000",
      "reserved": "",
      "salt": "0xe629a94f7e66dbc96f4560d9dbe432b35e110e07ce2fc20f593eff5e535b18e1",
      "assetIds": []
    },
    {
      "x": 283,
      "y": 333,
      "size": 1,
      "price": "1011000000000000000000",
      "reserved": "0x7a9fe22691c811ea339d9b73150e6911a5343dca",
      "salt": "0xa14603bdc564b9bd03af067c04b2c1e5f9b0879af3427344a923cc5c2b329830",
      "assetIds": []
    },
    {
      "x": 283,
      "y": 334,
      "size": 1,
      "price": "1011000000000000000000",
      "reserved": "",
      "salt": "0x5b047288edb83ff1183e1139f1b32aad58beb3b9f16940dd0db2770226e2a2bd",
      "assetIds": []
    },
    {
      "x": 283,
      "y": 335,
      "size": 1,
      "price": "1011000000000000000000",
      "reserved": "",
      "salt": "0x055d6b1a23d2f81b46ca3f08e62ff6a7cde6120562b05958dbf2f46e255d434b",
      "assetIds": []
    },
    {
      "x": 284,
      "y": 312,
      "size": 1,
      "price": "1011000000000000000000",
      "reserved": "",
      "salt": "0x2a9572bf295aaac147df633346628a1633bf2072b4acccb6de7c77f2ae0180d2",
      "assetIds": []
    },
    {
      "x": 284,
      "y": 313,
      "size": 1,
      "price": "1011000000000000000000",
      "reserved": "",
      "salt": "0xa32f7349e0080e243b8204f1cd24071ad15030b37130a742184ef0d01873d47b",
      "assetIds": []
    },
    {
      "x": 284,
      "y": 314,
      "size": 1,
      "price": "1011000000000000000000",
      "reserved": "",
      "salt": "0x42e9dfb57d103933bb0206bdabb0e0987cf769d24a6cd50a09e9374626f61fd7",
      "assetIds": []
    },
    {
      "x": 284,
      "y": 315,
      "size": 1,
      "price": "1011000000000000000000",
      "reserved": "",
      "salt": "0xcabe2f18f45b2fee1ecabcb38989c33755dc1d696b8de99446f011e73806c8f4",
      "assetIds": []
    },
    {
      "x": 284,
      "y": 316,
      "size": 1,
      "price": "1011000000000000000000",
      "reserved": "",
      "salt": "0x76910388bce07678987545ed81fe6956bcf2a22d002c42cbbc5fd8a4d3452a19",
      "assetIds": []
    },
    {
      "x": 284,
      "y": 317,
      "size": 1,
      "price": "1011000000000000000000",
      "reserved": "",
      "salt": "0x53e3481737c45324f0d0b45457f2fe2a2e9f00b2459cb866df3d2b7f6f7bcf53",
      "assetIds": []
    },
    {
      "x": 284,
      "y": 318,
      "size": 1,
      "price": "1011000000000000000000",
      "reserved": "",
      "salt": "0xebb0ce4bae6df67d8881368edb38b3e0ed03718c76ca16d6b39e1359e63d1a17",
      "assetIds": []
    },
    {
      "x": 284,
      "y": 319,
      "size": 1,
      "price": "1011000000000000000000",
      "reserved": "0x7a9fe22691c811ea339d9b73150e6911a5343dca",
      "salt": "0xb2f24735f974a482ec2c965d450566a1b96b4c15d839c467eb55cb0bc3c245df",
      "assetIds": []
    },
    {
      "x": 284,
      "y": 320,
      "size": 1,
      "price": "1011000000000000000000",
      "reserved": "",
      "salt": "0x5666b0eeb18209736bdabf4ba5cff05371cd698bf81b4f13e2a1666bc8282e87",
      "assetIds": []
    },
    {
      "x": 284,
      "y": 321,
      "size": 1,
      "price": "1011000000000000000000",
      "reserved": "",
      "salt": "0xe7ad103e5420de0935b91a1d973e9dc463fccd588418c7a78bed6c7ca5c657c7",
      "assetIds": []
    },
    {
      "x": 284,
      "y": 322,
      "size": 1,
      "price": "1011000000000000000000",
      "reserved": "",
      "salt": "0xb32b76bd7163529e457b8bd4f03ca0c86721a1115c074e713201f5ff0999e64c",
      "assetIds": []
    },
    {
      "x": 284,
      "y": 323,
      "size": 1,
      "price": "1011000000000000000000",
      "reserved": "",
      "salt": "0x746e382ffdaab1e86e914d49237fc2a6bf5c704e4c717197cd39ef7a2179d56c",
      "assetIds": []
    },
    {
      "x": 284,
      "y": 324,
      "size": 1,
      "price": "1011000000000000000000",
      "reserved": "",
      "salt": "0xdcd7d8d0fa2b00ff57d26f2f5294fa9ba31e83383bd0d3debc4ac42fa137a2a3",
      "assetIds": []
    },
    {
      "x": 284,
      "y": 325,
      "size": 1,
      "price": "1011000000000000000000",
      "reserved": "0x7a9fe22691c811ea339d9b73150e6911a5343dca",
      "salt": "0xe34d9838a9ebd4ee71553caaf54c0624df04a50b7bc111b3c14b8e9812723eea",
      "assetIds": []
    },
    {
      "x": 284,
      "y": 326,
      "size": 1,
      "price": "1011000000000000000000",
      "reserved": "",
      "salt": "0x2c45ceaec051e3cf0a08a122c2da11326b94b8b2786d81eb7a0927532c1ac81c",
      "assetIds": []
    },
    {
      "x": 284,
      "y": 327,
      "size": 1,
      "price": "1011000000000000000000",
      "reserved": "0x7a9fe22691c811ea339d9b73150e6911a5343dca",
      "salt": "0x29bd4105c7b22aee02d347b06bb0c73917ce6eab395d42f3d3a9d3b111ead4c8",
      "assetIds": []
    },
    {
      "x": 284,
      "y": 328,
      "size": 1,
      "price": "1011000000000000000000",
      "reserved": "",
      "salt": "0x8171d660f30f1ac2be6b9183f2aa56615603eb9f5ed3cc735603efd07f342ce4",
      "assetIds": []
    },
    {
      "x": 284,
      "y": 329,
      "size": 1,
      "price": "1011000000000000000000",
      "reserved": "",
      "salt": "0x6b8eab71588dd0f22ad9e25f5fac26c2ff57e6de2b0451788736fc1febcbaf96",
      "assetIds": []
    },
    {
      "x": 284,
      "y": 330,
      "size": 1,
      "price": "1011000000000000000000",
      "reserved": "",
      "salt": "0x2060b42914d452310d2a086174ea35e692c60cb55fb511bb948a84535d5c6487",
      "assetIds": []
    },
    {
      "x": 284,
      "y": 331,
      "size": 1,
      "price": "1011000000000000000000",
      "reserved": "",
      "salt": "0x2466949f56f48e31611f3c14388eab068dccee30fc9fbcc0c92acb9e54beb518",
      "assetIds": []
    },
    {
      "x": 284,
      "y": 332,
      "size": 1,
      "price": "1011000000000000000000",
      "reserved": "",
      "salt": "0x7bca7cc3695a11426757eb9fb1cfb38f3851ce7084d1c8f5e271feba4e9ef0c0",
      "assetIds": []
    },
    {
      "x": 284,
      "y": 333,
      "size": 1,
      "price": "1011000000000000000000",
      "reserved": "",
      "salt": "0x6249db6f3aeb84969bfe7c01ffb7978160afa33f65d874eb633c465d7657805b",
      "assetIds": []
    },
    {
      "x": 284,
      "y": 334,
      "size": 1,
      "price": "1011000000000000000000",
      "reserved": "",
      "salt": "0xd59dd2c94dd34d5e765ebad1648e035cc189dbc60d4ee83466b80d3b42a80c3b",
      "assetIds": []
    },
    {
      "x": 284,
      "y": 335,
      "size": 1,
      "price": "1011000000000000000000",
      "reserved": "",
      "salt": "0x10c58834535aa0a46f7c9297a07f240f44195314a010c836da6a41cfdaf23d47",
      "assetIds": []
    },
    {
      "x": 285,
      "y": 312,
      "size": 1,
      "price": "1011000000000000000000",
      "reserved": "",
      "salt": "0xb7ab4c41270e72f33b06ea8881ae6798340a0bf33bca1a6a5359dcf4555a7e07",
      "assetIds": []
    },
    {
      "x": 285,
      "y": 313,
      "size": 1,
      "price": "1011000000000000000000",
      "reserved": "",
      "salt": "0xb32ac67522fe2a0d301177cd4951059ad8e4fea85765ea0c5554465ff407b3bc",
      "assetIds": []
    },
    {
      "x": 285,
      "y": 314,
      "size": 1,
      "price": "1011000000000000000000",
      "reserved": "",
      "salt": "0xed0131ada035805f5938524f77ad5f6a2a3d21e849548e35a00461f1e6a4986c",
      "assetIds": []
    },
    {
      "x": 285,
      "y": 315,
      "size": 1,
      "price": "1011000000000000000000",
      "reserved": "",
      "salt": "0xcafdf327f400721aaae22140adb58eba265d0e41e94d5ae2cf917ff6451dd706",
      "assetIds": []
    },
    {
      "x": 285,
      "y": 316,
      "size": 1,
      "price": "1011000000000000000000",
      "reserved": "0x7a9fe22691c811ea339d9b73150e6911a5343dca",
      "salt": "0xc08ca901a3f5869c972f33efff9358cd7c2066b09cdad7f4e8397610114f18f2",
      "assetIds": []
    },
    {
      "x": 285,
      "y": 317,
      "size": 1,
      "price": "1011000000000000000000",
      "reserved": "",
      "salt": "0xd1ed718414338685fb4f3c937b053fe250043f2179d1067eb57c5a9996fa651b",
      "assetIds": []
    },
    {
      "x": 285,
      "y": 318,
      "size": 1,
      "price": "1011000000000000000000",
      "reserved": "0x7a9fe22691c811ea339d9b73150e6911a5343dca",
      "salt": "0x08a5dd5b5e2dd8baec827d2f9cdee2f57c11766b797640acd0a6b10c625a90f1",
      "assetIds": []
    },
    {
      "x": 285,
      "y": 319,
      "size": 1,
      "price": "1011000000000000000000",
      "reserved": "",
      "salt": "0x3758182ae7ffdedde90ee580d2797a814fd111dba5f416fb0152b4f95624c569",
      "assetIds": []
    },
    {
      "x": 285,
      "y": 320,
      "size": 1,
      "price": "1011000000000000000000",
      "reserved": "0x7a9fe22691c811ea339d9b73150e6911a5343dca",
      "salt": "0xd28d3e12e624c53d28a9b5a9f123b005a19a27182b4e6b33ebbedc234fb2411e",
      "assetIds": []
    },
    {
      "x": 285,
      "y": 321,
      "size": 1,
      "price": "1011000000000000000000",
      "reserved": "",
      "salt": "0x5afd7ed3c4536c81a5784461a37a66b4718463773010b8fbec9281b82342f905",
      "assetIds": []
    },
    {
      "x": 285,
      "y": 322,
      "size": 1,
      "price": "1011000000000000000000",
      "reserved": "",
      "salt": "0x83a788ab6eb3334179638b66807a389c98ef86efde3940c08b62cc5edd94c134",
      "assetIds": []
    },
    {
      "x": 285,
      "y": 323,
      "size": 1,
      "price": "1011000000000000000000",
      "reserved": "",
      "salt": "0xaeb6877ca8aad4a0ec5f4198e541908f024912f7498d50e19b6c8b73cc6be67d",
      "assetIds": []
    },
    {
      "x": 285,
      "y": 324,
      "size": 1,
      "price": "1011000000000000000000",
      "reserved": "",
      "salt": "0x0a5ce40e3a2d01731af51c56c2a86f825c6e6fcb370fa35a40277f8604ae58e5",
      "assetIds": []
    },
    {
      "x": 285,
      "y": 325,
      "size": 1,
      "price": "1011000000000000000000",
      "reserved": "",
      "salt": "0x4d85194fd5a88f84069cc4cae21d53baa1f72a6fb3c326ac81c7d3e5d686cf4d",
      "assetIds": []
    },
    {
      "x": 285,
      "y": 326,
      "size": 1,
      "price": "1011000000000000000000",
      "reserved": "",
      "salt": "0xcb8f1cf4ed949882cdb13d31ecb818cb93f93b5fc4da40bd2aeacf3147360d2e",
      "assetIds": []
    },
    {
      "x": 285,
      "y": 327,
      "size": 1,
      "price": "1011000000000000000000",
      "reserved": "0x7a9fe22691c811ea339d9b73150e6911a5343dca",
      "salt": "0x86d35cb6b2920e4819e2ee5678718369dab368e1f1b4c5f581e820d132213ee0",
      "assetIds": []
    },
    {
      "x": 285,
      "y": 328,
      "size": 1,
      "price": "1011000000000000000000",
      "reserved": "",
      "salt": "0xc2e9fb995427841ecfa91433eb8ee1b28be0e79c4fca7d41def7b22c40798a96",
      "assetIds": []
    },
    {
      "x": 285,
      "y": 329,
      "size": 1,
      "price": "1011000000000000000000",
      "reserved": "",
      "salt": "0x6ef457e8f4d17773abd6c4ab7a104f0ff3742dbfce42baa8dc47a4ed3a46268d",
      "assetIds": []
    },
    {
      "x": 285,
      "y": 330,
      "size": 1,
      "price": "1011000000000000000000",
      "reserved": "",
      "salt": "0xe3918fbc39c359c5712a6e15319c1a73b25841357d583475766cab31da94277e",
      "assetIds": []
    },
    {
      "x": 285,
      "y": 331,
      "size": 1,
      "price": "1011000000000000000000",
      "reserved": "",
      "salt": "0x89e467cd9e268fd5c1792bfdf148c4d58c0984bf2771a17eaf7a67c33cd76038",
      "assetIds": []
    },
    {
      "x": 285,
      "y": 332,
      "size": 1,
      "price": "1011000000000000000000",
      "reserved": "0x7a9fe22691c811ea339d9b73150e6911a5343dca",
      "salt": "0xb8696b23de98d1f986f2a0dc05ef34fd987b4fb5f574ab7518e5236014b001aa",
      "assetIds": []
    },
    {
      "x": 285,
      "y": 333,
      "size": 1,
      "price": "1011000000000000000000",
      "reserved": "",
      "salt": "0x661d0f14492975b50ec92931bd0133528ec071321e22d9000c32f67fe0b216c8",
      "assetIds": []
    },
    {
      "x": 285,
      "y": 334,
      "size": 1,
      "price": "1011000000000000000000",
      "reserved": "",
      "salt": "0xe5cff3c1b9897c2508d688ddbb7a98de33ed5a9437622b3f09d91b234ac11370",
      "assetIds": []
    },
    {
      "x": 285,
      "y": 335,
      "size": 1,
      "price": "1011000000000000000000",
      "reserved": "",
      "salt": "0x9a5fc0f0a075a6148b794cc731517d0a3617eb2471e134451203c4f4336f701d",
      "assetIds": []
    },
    {
      "x": 286,
      "y": 312,
      "size": 1,
      "price": "1011000000000000000000",
      "reserved": "",
      "salt": "0x64168196960fda6fe9a6bf818fcfbb5033eeb01ce8ff47cf185e52a78a9e0e9b",
      "assetIds": []
    },
    {
      "x": 286,
      "y": 313,
      "size": 1,
      "price": "1011000000000000000000",
      "reserved": "",
      "salt": "0xd135ffd1b705407fe3a1d9e6a1105a09dc15d35bd9782f61462c1a001ec210e1",
      "assetIds": []
    },
    {
      "x": 286,
      "y": 314,
      "size": 1,
      "price": "1011000000000000000000",
      "reserved": "",
      "salt": "0xe84cea66dda21e01e4f2360680ddfedc333a31853115322378b817b908196da8",
      "assetIds": []
    },
    {
      "x": 286,
      "y": 315,
      "size": 1,
      "price": "1011000000000000000000",
      "reserved": "",
      "salt": "0x8af9009a5a199e7e19eb8a67e0b74f2efe6f860cff8d95a96212a042614ab1ea",
      "assetIds": []
    },
    {
      "x": 286,
      "y": 316,
      "size": 1,
      "price": "1011000000000000000000",
      "reserved": "0x7a9fe22691c811ea339d9b73150e6911a5343dca",
      "salt": "0xcba62ca9560352b6958d431f15eaa04cb8a5b5201f8dbed59956f339d0284523",
      "assetIds": []
    },
    {
      "x": 286,
      "y": 317,
      "size": 1,
      "price": "1011000000000000000000",
      "reserved": "",
      "salt": "0x0493b50d5fa50cd3730a6bba9a94b9effb65fb34fc972cdddab6e13ed3b37da7",
      "assetIds": []
    },
    {
      "x": 286,
      "y": 318,
      "size": 1,
      "price": "1011000000000000000000",
      "reserved": "",
      "salt": "0x5113c0e4e0d268e30fbdb6257b6d8835a2ce484132c22f9427e608d860d3324d",
      "assetIds": []
    },
    {
      "x": 286,
      "y": 319,
      "size": 1,
      "price": "1011000000000000000000",
      "reserved": "",
      "salt": "0x2859374030b1159c4c36bb60402a4670703af05d4a2a7f615e794ba0bf4e5c28",
      "assetIds": []
    },
    {
      "x": 286,
      "y": 320,
      "size": 1,
      "price": "1011000000000000000000",
      "reserved": "",
      "salt": "0x2ef673da1e08d85656ab43e0be2378010c74d3aa0d1cca68677763951c29a46c",
      "assetIds": []
    },
    {
      "x": 286,
      "y": 321,
      "size": 1,
      "price": "1011000000000000000000",
      "reserved": "0x7a9fe22691c811ea339d9b73150e6911a5343dca",
      "salt": "0xe8ef1c91697231208b51f6ed05232fe86bc33225a226343d285755652de314d6",
      "assetIds": []
    },
    {
      "x": 286,
      "y": 322,
      "size": 1,
      "price": "1011000000000000000000",
      "reserved": "",
      "salt": "0x5ba2ac126cea68489ef4ce6e101bbef46f48a7568835c66ac3a44ccbbadab48a",
      "assetIds": []
    },
    {
      "x": 286,
      "y": 323,
      "size": 1,
      "price": "1011000000000000000000",
      "reserved": "0x7a9fe22691c811ea339d9b73150e6911a5343dca",
      "salt": "0xd48db861342d43e4860c1faf54042471fde3a22589cc654574ecdb65772fec34",
      "assetIds": []
    },
    {
      "x": 286,
      "y": 324,
      "size": 1,
      "price": "1011000000000000000000",
      "reserved": "",
      "salt": "0xf4108253bb7a41f674066a41b6d0f5c397a755d35f624c2fa0e57f49cf92ad4b",
      "assetIds": []
    },
    {
      "x": 286,
      "y": 325,
      "size": 1,
      "price": "1011000000000000000000",
      "reserved": "",
      "salt": "0x1558594810902aabfa3b87f8cdc1c86753fd2d8becd506c4741d3056626c7bcc",
      "assetIds": []
    },
    {
      "x": 286,
      "y": 326,
      "size": 1,
      "price": "1011000000000000000000",
      "reserved": "",
      "salt": "0x6ec5df4cd1250d8802befa8a7fdef66213581019292192552cf3a3bda5527a20",
      "assetIds": []
    },
    {
      "x": 286,
      "y": 327,
      "size": 1,
      "price": "1011000000000000000000",
      "reserved": "",
      "salt": "0x12b775f4fb3201b8addea9a7961a39b28c51d1549647875b04fa3f76afa8fd03",
      "assetIds": []
    },
    {
      "x": 286,
      "y": 328,
      "size": 1,
      "price": "1011000000000000000000",
      "reserved": "",
      "salt": "0xd87c03a1c2b4014d8c49baa14fc71e210bf77840ebd40ab28709aa550460f5c5",
      "assetIds": []
    },
    {
      "x": 286,
      "y": 329,
      "size": 1,
      "price": "1011000000000000000000",
      "reserved": "",
      "salt": "0x7935c458067dcaa6d1a8fece226672b3cdefe991b7f49431d05115aada04dad5",
      "assetIds": []
    },
    {
      "x": 286,
      "y": 330,
      "size": 1,
      "price": "1011000000000000000000",
      "reserved": "",
      "salt": "0x358662db2bc6d04bd20ec67caad520b7d8c31e5f57e1caa3ba60eb899b03b6fa",
      "assetIds": []
    },
    {
      "x": 286,
      "y": 331,
      "size": 1,
      "price": "1011000000000000000000",
      "reserved": "",
      "salt": "0x2d62ca1018e673e7656f50265321d6de7c282adcc301fc166e4f589fe834450c",
      "assetIds": []
    },
    {
      "x": 286,
      "y": 332,
      "size": 1,
      "price": "1011000000000000000000",
      "reserved": "",
      "salt": "0xab9c01818c36c54665d8c9b4ae761125a8c8d21c4011976b66f21a92f8da5d7b",
      "assetIds": []
    },
    {
      "x": 286,
      "y": 333,
      "size": 1,
      "price": "1011000000000000000000",
      "reserved": "",
      "salt": "0xd4b5a1da5fc3bce1c5a3e5184667d4ec455f67e6e3b7cbf29d8eaf0a66153489",
      "assetIds": []
    },
    {
      "x": 286,
      "y": 334,
      "size": 1,
      "price": "1011000000000000000000",
      "reserved": "",
      "salt": "0x7ac1cd8b080b8e09941b8f0fda534892485e1fae3f0e97ee6139a91e89a18053",
      "assetIds": []
    },
    {
      "x": 286,
      "y": 335,
      "size": 1,
      "price": "1011000000000000000000",
      "reserved": "",
      "salt": "0x6d76de8327aa7ae8f9dd58e2a774799082d68db08f734958f9f792f7ec5b305f",
      "assetIds": []
    },
    {
      "x": 287,
      "y": 312,
      "size": 1,
      "price": "1011000000000000000000",
      "reserved": "",
      "salt": "0x2d0602c96d42971d1c02e0aea88ab2be671a69229a0f23f775c19e1b27154809",
      "assetIds": []
    },
    {
      "x": 287,
      "y": 313,
      "size": 1,
      "price": "1011000000000000000000",
      "reserved": "",
      "salt": "0xe68b1e4f7045433157ae161c8678a627314ad93e1031fa78df71bc1cd3be202d",
      "assetIds": []
    },
    {
      "x": 287,
      "y": 314,
      "size": 1,
      "price": "1011000000000000000000",
      "reserved": "",
      "salt": "0xe94a360cf97aa36904cd028015997821c3f8da1c81410e5c2bd05924be3b2e1a",
      "assetIds": []
    },
    {
      "x": 287,
      "y": 315,
      "size": 1,
      "price": "1011000000000000000000",
      "reserved": "",
      "salt": "0x1b317bcd1e5d5758885080b4e3bce436c30a2037727a260ab9b420c1353a8a09",
      "assetIds": []
    },
    {
      "x": 287,
      "y": 316,
      "size": 1,
      "price": "1011000000000000000000",
      "reserved": "",
      "salt": "0x20ab724317a4829a64ceecb0f08ada1526ea7750a34b039758429f155e1587c2",
      "assetIds": []
    },
    {
      "x": 287,
      "y": 317,
      "size": 1,
      "price": "1011000000000000000000",
      "reserved": "",
      "salt": "0x5a7b25b865be44d5ceef7697e719b080447218e6fa42b861f1b7026294e48166",
      "assetIds": []
    },
    {
      "x": 287,
      "y": 318,
      "size": 1,
      "price": "1011000000000000000000",
      "reserved": "",
      "salt": "0x16572a6621263a71c6708a86ac8d7ed11a3b0860349519a28b127192ee105ec1",
      "assetIds": []
    },
    {
      "x": 287,
      "y": 319,
      "size": 1,
      "price": "1011000000000000000000",
      "reserved": "",
      "salt": "0x320ab424c050247a2c6add9b03f97631d0e3e7e1ab746fcd0f10f2ced710bced",
      "assetIds": []
    },
    {
      "x": 287,
      "y": 320,
      "size": 1,
      "price": "1011000000000000000000",
      "reserved": "",
      "salt": "0x5958ec7ad955141bddc56d8594b39a0a54b0390b5d2934abe394b9662209278a",
      "assetIds": []
    },
    {
      "x": 287,
      "y": 321,
      "size": 1,
      "price": "1011000000000000000000",
      "reserved": "",
      "salt": "0x871aea111422289033566aac327b42205a59f3b2ea4216da3627e89f8351ccb8",
      "assetIds": []
    },
    {
      "x": 287,
      "y": 322,
      "size": 1,
      "price": "1011000000000000000000",
      "reserved": "",
      "salt": "0xc77e57bd5ef776255616488685b68339d4267118d946bda8a40a2d9fc9890957",
      "assetIds": []
    },
    {
      "x": 287,
      "y": 323,
      "size": 1,
      "price": "1011000000000000000000",
      "reserved": "",
      "salt": "0x98db79a4514d1969afeb7810ae57bd29138a10ea25e0260ffe7d46bc0f909096",
      "assetIds": []
    },
    {
      "x": 287,
      "y": 324,
      "size": 1,
      "price": "1011000000000000000000",
      "reserved": "",
      "salt": "0xb5a12fd4273b19a58ebaa95dde19c5eb4823e2e7a41acac9df71ea27e9142aad",
      "assetIds": []
    },
    {
      "x": 287,
      "y": 325,
      "size": 1,
      "price": "1011000000000000000000",
      "reserved": "",
      "salt": "0x7f7612700223d867f38136260996b94c333b1776db5ab914b225c623399405c3",
      "assetIds": []
    },
    {
      "x": 287,
      "y": 326,
      "size": 1,
      "price": "1011000000000000000000",
      "reserved": "",
      "salt": "0x141384e59af69030e1c4605cc6651c3dd2330a9e4990636d7397fd7ff97010f4",
      "assetIds": []
    },
    {
      "x": 287,
      "y": 327,
      "size": 1,
      "price": "1011000000000000000000",
      "reserved": "",
      "salt": "0x5f803761b61bd09d29d057eb7c7650021345774daeded6a94b36c70e68acb207",
      "assetIds": []
    },
    {
      "x": 287,
      "y": 328,
      "size": 1,
      "price": "1011000000000000000000",
      "reserved": "",
      "salt": "0x17aaaaac6aea70027393acd9e8bab673ab4314829c505a11ebd0a497da53a05e",
      "assetIds": []
    },
    {
      "x": 287,
      "y": 329,
      "size": 1,
      "price": "1011000000000000000000",
      "reserved": "",
      "salt": "0x4930001d58c89fc7e332d5282c1a9e17e84d84275229fd52bd635bbde9d2b08a",
      "assetIds": []
    },
    {
      "x": 287,
      "y": 330,
      "size": 1,
      "price": "1011000000000000000000",
      "reserved": "0x7a9fe22691c811ea339d9b73150e6911a5343dca",
      "salt": "0x53fadde481e9c11f4bc8cd3336076140a29acf734e2d8b19f1e1a0af75e6cc93",
      "assetIds": []
    },
    {
      "x": 287,
      "y": 331,
      "size": 1,
      "price": "1011000000000000000000",
      "reserved": "",
      "salt": "0x90aaee2871b82eb8725ac1e2dbaaf412dd1b3c2dfc3175466c1473cbfbd95998",
      "assetIds": []
    },
    {
      "x": 287,
      "y": 332,
      "size": 1,
      "price": "1011000000000000000000",
      "reserved": "",
      "salt": "0xa186bb03e712d67fd39e09967899ef2b556bcc8307dca9a54da838e9f840cf6f",
      "assetIds": []
    },
    {
      "x": 287,
      "y": 333,
      "size": 1,
      "price": "1011000000000000000000",
      "reserved": "",
      "salt": "0x87efc42ebcfe742185e0e2323216a76fa71fb7afa2d7248f5501cc69a14ca29e",
      "assetIds": []
    },
    {
      "x": 287,
      "y": 334,
      "size": 1,
      "price": "1011000000000000000000",
      "reserved": "",
      "salt": "0x7e14a9ece3e584e94a891b15581c2ae274a7e4a091e2fb52a962bc68d2b9efd8",
      "assetIds": []
    },
    {
      "x": 287,
      "y": 335,
      "size": 1,
      "price": "1011000000000000000000",
      "reserved": "",
      "salt": "0x3e36751a7955161beb6db6ae7621ceb6b0e2c55fe768c2288163bcdbfd0788ff",
      "assetIds": []
    },
    {
      "x": 201,
      "y": 351,
      "size": 3,
      "price": "8648000000000000000000",
      "reserved": "0x7a9fe22691c811ea339d9b73150e6911a5343dca",
      "salt": "0xb108785cc188d4b5d84f372918656f8797dd095a9cfdd24c709ebc70db26db48",
      "assetIds": []
    },
    {
      "x": 219,
      "y": 339,
      "size": 3,
      "price": "8648000000000000000000",
      "reserved": "0x7a9fe22691c811ea339d9b73150e6911a5343dca",
      "salt": "0xd1cc8208e4b77970981331580f8f6c84912643d537a033294eb35618a34d2900",
      "assetIds": []
    },
    {
      "x": 219,
      "y": 348,
      "size": 3,
      "price": "8648000000000000000000",
      "reserved": "0x7a9fe22691c811ea339d9b73150e6911a5343dca",
      "salt": "0x863efbdde20eed540c9984df5f104655221911ce4e050829cbb36b5bd0a45572",
      "assetIds": []
    },
    {
      "x": 222,
      "y": 348,
      "size": 3,
      "price": "8648000000000000000000",
      "reserved": "0x7a9fe22691c811ea339d9b73150e6911a5343dca",
      "salt": "0x1972fb712f3c6b6fdbeceff8ae614d8b55748c9b319a7963cb6764c627881835",
      "assetIds": []
    },
    {
      "x": 237,
      "y": 336,
      "size": 3,
      "price": "8648000000000000000000",
      "reserved": "0x7a9fe22691c811ea339d9b73150e6911a5343dca",
      "salt": "0x32cc27ce229f5a398b5569e90dddc17202dabdb9010f274d3b33b9f2bb9bffaf",
      "assetIds": []
    },
    {
      "x": 237,
      "y": 351,
      "size": 3,
      "price": "8648000000000000000000",
      "reserved": "0x7a9fe22691c811ea339d9b73150e6911a5343dca",
      "salt": "0x6699af45d8784ff4fc18c8f245e0ddb5bb90594d59867d22c4625dcfca5e09e1",
      "assetIds": []
    },
    {
      "x": 240,
      "y": 327,
      "size": 3,
      "price": "8648000000000000000000",
      "reserved": "0x7a9fe22691c811ea339d9b73150e6911a5343dca",
      "salt": "0xcab1fb11932732c54dfaac685db102914c3f32ab0f393bf7e5d93f979b9fd750",
      "assetIds": []
    },
    {
      "x": 240,
      "y": 330,
      "size": 3,
      "price": "8648000000000000000000",
      "reserved": "0x7a9fe22691c811ea339d9b73150e6911a5343dca",
      "salt": "0x275c213d6e07f847a90c5e44032febf8c961f25a2886e650fadd32352230b591",
      "assetIds": []
    },
    {
      "x": 270,
      "y": 321,
      "size": 3,
      "price": "8648000000000000000000",
      "reserved": "0x7a9fe22691c811ea339d9b73150e6911a5343dca",
      "salt": "0xdb00d55bbf2380ca9c7da496d0900e1a097d3d4778939e4d685052b62f61a022",
      "assetIds": []
    },
    {
      "x": 222,
      "y": 336,
      "size": 6,
      "price": "32772000000000000000000",
      "reserved": "0x7a9fe22691c811ea339d9b73150e6911a5343dca",
      "salt": "0x3247178e61028fd19c678d33cb560a6b86b5fbaf9fe84e03dd5f8130a6a20900",
      "assetIds": []
    },
    {
      "x": 228,
      "y": 342,
      "size": 6,
      "price": "32772000000000000000000",
      "reserved": "0x7a9fe22691c811ea339d9b73150e6911a5343dca",
      "salt": "0xfdc6265f3295e18e6cf588f94f384aa9669368491ed36babb9aab3122cba00df",
      "assetIds": []
    },
    {
      "x": 258,
      "y": 318,
      "size": 6,
      "price": "32772000000000000000000",
      "reserved": "0x7a9fe22691c811ea339d9b73150e6911a5343dca",
      "salt": "0x49b61f6a4392d07286e08fa23c0b6e0ae40c37130924d0f656b9a0689aad675d",
      "assetIds": []
    },
    {
      "x": 252,
      "y": 324,
      "size": 12,
      "price": "123806000000000000000000",
      "reserved": "0x7a9fe22691c811ea339d9b73150e6911a5343dca",
      "salt": "0x9af0ff7bfff42595fde9479f8d2805d027cfbf3ad8102b93893d8b20c03880d3",
      "assetIds": []
    },
    {
      "x": 264,
      "y": 324,
      "size": 12,
      "price": "123806000000000000000000",
      "reserved": "0x7a9fe22691c811ea339d9b73150e6911a5343dca",
      "salt": "0x061fbf1776d5b4b2c0c2653b9955065310e63d61ffed2f34baa61e5effe31e2b",
      "assetIds": []
    },
    {
      "x": 240,
      "y": 336,
      "size": 24,
      "price": "466102000000000000000000",
      "reserved": "0x7a9fe22691c811ea339d9b73150e6911a5343dca",
      "salt": "0x56acbedc007369ba64ec14be06a9cece3744b14b9c3db332855288d1b469799f",
      "assetIds": []
    }
  ],
  "solcInputHash": "313f455adab9ae93096e43acc50d7d38",
  "bytecode": "0x610160604052620d2f006005556103e860075534801561001e57600080fd5b5060405161242e38038061242e833981810160405261018081101561004257600080fd5b50805160208201516040830151606080850151608086015160a08088015160c0808a015160e08b01516101008c01516101208d01516101408e0151610160909e0151600280546001600160a01b0319166001600160a01b03861617905560038390558d8b1b6001600160601b0319908116909852998c901b909616909352999a9899979895979496929590949391926100dc8a600161014a565b600680546001600160a01b03199081166001600160a01b039a8b1617909155610140979097526101209590955260008054909616979096169690961790935550606093841b6001600160601b031990811660e05292841b831660805290921b1661010052506101ae92505050565b6001600160a01b038216600081815260016020908152604091829020805460ff191685151590811790915582519384529083015280517fb21eb88b4e33b3f1281830a7178d74d8aa73220416215726b68ae23d539515cb9281900390910190a15050565b60805160601c60a05160601c60c05160601c60e05160601c6101005160601c61012051610140516121fb610233600039806109375280611d44525080610913528061139a525080611da45250806115d252806116f4525080610c50528061159c5280611dd852508061166152806116c5525080610dfa528061190852506121fb6000f3fe608060405234801561001057600080fd5b50600436106101515760003560e01c8063984d6252116100cd578063dc5074af11610081578063ecb255b511610066578063ecb255b514610857578063f23a6e6114610874578063f2e7b3811461090957610151565b8063dc5074af14610814578063e56f8a9e1461083a57610151565b8063bc197c81116100b2578063bc197c81146105d3578063c10a420814610735578063caed35001461080c57610151565b8063984d6252146104db578063b522ecff146105ad57610151565b80636e9960c3116101245780638a04af6a116101095780638a04af6a1461032a5780638a12b82f146103585780638f283970146104b557610151565b80636e9960c3146102fe57806377f1c3ac1461032257610151565b806325cb5bc014610156578063495906571461017057806358bc29441461017857806365194ce7146101a0575b600080fd5b61015e610911565b60408051918252519081900360200190f35b61015e610935565b61019e6004803603602081101561018e57600080fd5b50356001600160a01b0316610959565b005b610246600480360360208110156101b657600080fd5b8101906020810181356401000000008111156101d157600080fd5b8201836020820111156101e357600080fd5b8035906020019184600183028401116401000000008311171561020557600080fd5b91908080601f016020809104026020016040519081016040528093929190818152602001838380828437600092019190915250929550610a04945050505050565b6040518080602001866001600160a01b03166001600160a01b03168152602001856001600160a01b03166001600160a01b03168152602001848152602001838152602001828103825287818151815260200191508051906020019080838360005b838110156102bf5781810151838201526020016102a7565b50505050905090810190601f1680156102ec5780820380516001836020036101000a031916815260200191505b50965050505050505060405180910390f35b610306610b09565b604080516001600160a01b039092168252519081900360200190f35b61015e610b18565b61019e6004803603604081101561034057600080fd5b506001600160a01b0381351690602001351515610b1e565b61019e600480360361018081101561036f57600080fd5b6001600160a01b038235811692602081013582169260408201359092169160608201359160808101359160a08201359160c08101359160e0820135916101008101359181019061014081016101208201356401000000008111156103d257600080fd5b8201836020820111156103e457600080fd5b8035906020019184602083028401116401000000008311171561040657600080fd5b91939092909160208101903564010000000081111561042457600080fd5b82018360208201111561043657600080fd5b8035906020019184602083028401116401000000008311171561045857600080fd5b91939092909160208101903564010000000081111561047657600080fd5b82018360208201111561048857600080fd5b803590602001918460018302840111640100000000831117156104aa57600080fd5b509092509050610b75565b61019e600480360360208110156104cb57600080fd5b50356001600160a01b0316610cc3565b61019e600480360360608110156104f157600080fd5b6001600160a01b03823516919081019060408101602082013564010000000081111561051c57600080fd5b82018360208201111561052e57600080fd5b8035906020019184602083028401116401000000008311171561055057600080fd5b91939092909160208101903564010000000081111561056e57600080fd5b82018360208201111561058057600080fd5b803590602001918460208302840111640100000000831117156105a257600080fd5b509092509050610d99565b61019e600480360360208110156105c357600080fd5b50356001600160a01b0316610f24565b610700600480360360a08110156105e957600080fd5b6001600160a01b03823581169260208101359091169181019060608101604082013564010000000081111561061d57600080fd5b82018360208201111561062f57600080fd5b8035906020019184602083028401116401000000008311171561065157600080fd5b91939092909160208101903564010000000081111561066f57600080fd5b82018360208201111561068157600080fd5b803590602001918460208302840111640100000000831117156106a357600080fd5b9193909290916020810190356401000000008111156106c157600080fd5b8201836020820111156106d357600080fd5b803590602001918460018302840111640100000000831117156106f557600080fd5b50909250905061100d565b604080517fffffffff000000000000000000000000000000000000000000000000000000009092168252519081900360200190f35b6107f8600480360360a081101561074b57600080fd5b81019060208101813564010000000081111561076657600080fd5b82018360208201111561077857600080fd5b8035906020019184600183028401116401000000008311171561079a57600080fd5b91908080601f016020809104026020016040519081016040528093929190818152602001838380828437600092019190915250929550506001600160a01b03833581169450602084013516926040810135925060600135905061103a565b604080519115158252519081900360200190f35b610306611176565b6107f86004803603602081101561082a57600080fd5b50356001600160a01b0316611185565b61019e6004803603602081101561085057600080fd5b50356111a3565b61019e6004803603602081101561086d57600080fd5b5035611207565b610700600480360360a081101561088a57600080fd5b6001600160a01b03823581169260208101359091169160408201359160608101359181019060a0810160808201356401000000008111156108ca57600080fd5b8201836020820111156108dc57600080fd5b803590602001918460018302840111640100000000831117156108fe57600080fd5b50909250905061126b565b61015e611296565b7f000000000000000000000000000000000000000000000000000000000000000090565b7f000000000000000000000000000000000000000000000000000000000000000090565b6000546001600160a01b031633146109b8576040805162461bcd60e51b815260206004820152601060248201527f53656e646572206e6f742061646d696e00000000000000000000000000000000604482015290519081900360640190fd5b600554600280546001600160a01b03908116600090815260046020526040902042909301909255805473ffffffffffffffffffffffffffffffffffffffff191692909116919091179055565b606060008060008060606000806000808a80602001905160a0811015610a2957600080fd5b8101908080516040519392919084640100000000821115610a4957600080fd5b908301906020820185811115610a5e57600080fd5b8251640100000000811182820188101715610a7857600080fd5b82525081516020918201929091019080838360005b83811015610aa5578181015183820152602001610a8d565b50505050905090810190601f168015610ad25780820380516001836020036101000a031916815260200191505b5060409081526020820151908201516060830151608090930151959f50909d509b5099509197505050505050505091939590929450565b6000546001600160a01b031690565b60035490565b6000546001600160a01b03163314610b675760405162461bcd60e51b815260040180806020018281038252602e815260200180612198602e913960400191505060405180910390fd5b610b71828261129c565b5050565b610b7f898961131e565b610c048f8e8e8e8e8e8d8d8d80806020026020016040519081016040528093929190818152602001838360200280828437600081840152601f19601f820116905080830192505050505050508c8c8080602002602001604051908101604052809392919081815260200183836020028082843760009201919091525061139892505050565b610c458f8984848080601f01602080910402602001604051908101604052809392919081815260200183838082843760009201919091525061157592505050565b610c758f8f8e8e8e8d7f00000000000000000000000000000000000000000000000000000000000000008f6115c6565b610cb28e87878080602002602001604051908101604052809392919081815260200183836020028082843760009201919091525061189192505050565b505050505050505050505050505050565b6000546001600160a01b03163314610d22576040805162461bcd60e51b815260206004820152601b60248201527f6f6e6c792061646d696e2063616e206368616e67652061646d696e0000000000604482015290519081900360640190fd5b600054604080516001600160a01b039283168152918316602083015280517f7e644d79422f17c01e4894b5f4f588d331ebfa28653d42ae832dc59e38c9798f9281900390910190a16000805473ffffffffffffffffffffffffffffffffffffffff19166001600160a01b0392909216919091179055565b6000546001600160a01b03163314610df8576040805162461bcd60e51b815260206004820152600e60248201527f4e4f545f415554484f52495a4544000000000000000000000000000000000000604482015290519081900360640190fd5b7f00000000000000000000000000000000000000000000000000000000000000006001600160a01b0316632eb2c2d63087878787876040518763ffffffff1660e01b815260040180876001600160a01b03166001600160a01b03168152602001866001600160a01b03166001600160a01b031681526020018060200180602001806020018481038452888882818152602001925060200280828437600083820152601f01601f19169091018581038452868152602090810191508790870280828437600081840152601f19601f8201169050808301925050508481038252600081526020016020019950505050505050505050600060405180830381600087803b158015610f0557600080fd5b505af1158015610f19573d6000803e3d6000fd5b505050505050505050565b6001600160a01b038116610f7f576040805162461bcd60e51b815260206004820152600c60248201527f5a45524f5f414444524553530000000000000000000000000000000000000000604482015290519081900360640190fd5b6000546001600160a01b03163314610fde576040805162461bcd60e51b815260206004820152600e60248201527f4e4f545f415554484f52495a4544000000000000000000000000000000000000604482015290519081900360640190fd5b6006805473ffffffffffffffffffffffffffffffffffffffff19166001600160a01b0392909216919091179055565b7fbc197c810000000000000000000000000000000000000000000000000000000098975050505050505050565b600060035482118061105d5750836001600160a01b0316856001600160a01b0316145b8061106757508242115b156110745750600061116d565b60408051606087811b7fffffffffffffffffffffffffffffffffffffffff0000000000000000000000009081166020808501919091529188901b166034830152604882018690526068808301869052835180840390910181526088830184528051908201207f19457468657265756d205369676e6564204d6573736167653a0a33320000000060a884015260c48084018290528451808503909101815260e4909301909352815191012060009061112b9089611a55565b6001600160a01b03811660009081526004602052604090205490915042116111585760019250505061116d565b6002546001600160a01b039081169116149150505b95945050505050565b6002546001600160a01b031690565b6001600160a01b031660009081526001602052604090205460ff1690565b6000546001600160a01b03163314611202576040805162461bcd60e51b815260206004820152601060248201527f53656e646572206e6f742061646d696e00000000000000000000000000000000604482015290519081900360640190fd5b600355565b6000546001600160a01b03163314611266576040805162461bcd60e51b815260206004820152600e60248201527f4e4f545f415554484f52495a4544000000000000000000000000000000000000604482015290519081900360640190fd5b600755565b7ff23a6e61000000000000000000000000000000000000000000000000000000009695505050505050565b60075490565b6001600160a01b03821660008181526001602090815260409182902080547fffffffffffffffffffffffffffffffffffffffffffffffffffffffffffffff001685151590811790915582519384529083015280517fb21eb88b4e33b3f1281830a7178d74d8aa73220416215726b68ae23d539515cb9281900390910190a15050565b6113456103e861133960075485611b2290919063ffffffff16565b9063ffffffff611b9816565b8114610b71576040805162461bcd60e51b815260206004820152600d60248201527f494e56414c49445f505249434500000000000000000000000000000000000000604482015290519081900360640190fd5b7f0000000000000000000000000000000000000000000000000000000000000000421061140c576040805162461bcd60e51b815260206004820152600c60248201527f53414c455f49535f4f5645520000000000000000000000000000000000000000604482015290519081900360640190fd5b6001600160a01b03891633148061143257503360009081526001602052604090205460ff165b611483576040805162461bcd60e51b815260206004820152600e60248201527f4e4f545f415554484f52495a4544000000000000000000000000000000000000604482015290519081900360640190fd5b6001600160a01b03881615806114aa5750886001600160a01b0316886001600160a01b0316145b6114fb576040805162461bcd60e51b815260206004820152600d60248201527f52455345525645445f4c414e4400000000000000000000000000000000000000604482015290519081900360640190fd5b600061150c888888888d8989611bfd565b90506115188282611ca2565b611569576040805162461bcd60e51b815260206004820152600c60248201527f494e56414c49445f4c414e440000000000000000000000000000000000000000604482015290519081900360640190fd5b50505050505050505050565b60006115818484611d6b565b6006549091506115c0908590839085906001600160a01b03167f0000000000000000000000000000000000000000000000000000000000000000611eb8565b50505050565b83600114806115fc57507f00000000000000000000000000000000000000000000000000000000000000006001600160a01b0316155b156116c357604080517f6e1e3bbf0000000000000000000000000000000000000000000000000000000081526001600160a01b03898116600483015260248201879052604482018990526064820188905260a06084830152600060a4830181905292517f000000000000000000000000000000000000000000000000000000000000000090911692636e1e3bbf9260e4808201939182900301818387803b1580156116a657600080fd5b505af11580156116ba573d6000803e3d6000fd5b50505050611827565b7f00000000000000000000000000000000000000000000000000000000000000006001600160a01b0316636e1e3bbf7f00000000000000000000000000000000000000000000000000000000000000008689898c60405160200180826001600160a01b03166001600160a01b031681526020019150506040516020818303038152906040526040518663ffffffff1660e01b815260040180866001600160a01b03166001600160a01b0316815260200185815260200184815260200183815260200180602001828103825283818151815260200191508051906020019080838360005b838110156117be5781810151838201526020016117a6565b50505050905090810190601f1680156117eb5780820380516001836020036101000a031916815260200191505b509650505050505050600060405180830381600087803b15801561180e57600080fd5b505af1158015611822573d6000803e3d6000fd5b505050505b60408051858152602081018590526001600160a01b03848116828401526060820184905291516101988802890192808b1692908c16917fe4dfa6ac11314892f3029b34a25b1a887da3b1cab2bbf8506d87128ba6e3ac029181900360800190a45050505050505050565b6060815167ffffffffffffffff811180156118ab57600080fd5b506040519080825280602002602001820160405280156118d5578160200160208202803683370190505b50905060005b82518110156119055760018282815181106118f257fe5b60209081029190910101526001016118db565b507f00000000000000000000000000000000000000000000000000000000000000006001600160a01b0316632eb2c2d6308585856040518563ffffffff1660e01b815260040180856001600160a01b03166001600160a01b03168152602001846001600160a01b03166001600160a01b03168152602001806020018060200180602001848103845286818151815260200191508051906020019060200280838360005b838110156119c05781810151838201526020016119a8565b50505050905001848103835285818151815260200191508051906020019060200280838360005b838110156119ff5781810151838201526020016119e7565b50505050905001848103825260008152602001602001975050505050505050600060405180830381600087803b158015611a3857600080fd5b505af1158015611a4c573d6000803e3d6000fd5b50505050505050565b60008151604114611a6557600080fd5b60208201516040830151606084015160001a601b811015611a8457601b015b8060ff16601b1480611a9957508060ff16601c145b611aa257600080fd5b6040805160008152602080820180845289905260ff8416828401526060820186905260808201859052915160019260a0808401939192601f1981019281900390910190855afa158015611af9573d6000803e3d6000fd5b5050604051601f1901519450506001600160a01b038416611b1957600080fd5b50505092915050565b600082611b3157506000611b92565b5081810281838281611b3f57fe5b0414611b92576040805162461bcd60e51b815260206004820152600860248201527f6f766572666c6f77000000000000000000000000000000000000000000000000604482015290519081900360640190fd5b92915050565b600081611bec576040805162461bcd60e51b815260206004820152600960248201527f64697662797a65726f0000000000000000000000000000000000000000000000604482015290519081900360640190fd5b818381611bf557fe5b049392505050565b60008787878787878760405160200180888152602001878152602001868152602001858152602001846001600160a01b03166001600160a01b031660601b8152601401838152602001828051906020019060200280838360005b83811015611c6f578181015183820152602001611c57565b50505050905001975050505050505050604051602081830303815290604052805190602001209050979650505050505050565b600081815b8451811015611d41576000858281518110611cbe57fe5b6020026020010151905080831015611d065782816040516020018083815260200182815260200192505050604051602081830303815290604052805190602001209250611d38565b808360405160200180838152602001828152602001925050506040516020818303038152906040528051906020012092505b50600101611ca7565b507f0000000000000000000000000000000000000000000000000000000000000000149392505050565b600080611d84606461133985600563ffffffff611b2216565b604080516323b872dd60e01b81526001600160a01b0387811660048301527f0000000000000000000000000000000000000000000000000000000000000000811660248301526044820184905291519293507f0000000000000000000000000000000000000000000000000000000000000000909116916323b872dd916064808201926020929091908290030181600087803b158015611e2357600080fd5b505af1158015611e37573d6000803e3d6000fd5b505050506040513d6020811015611e4d57600080fd5b5051611ea0576040805162461bcd60e51b815260206004820152601360248201527f4645455f5452414e534645525f4641494c454400000000000000000000000000604482015290519081900360640190fd5b611eb0838263ffffffff61213a16565b949350505050565b82518190859015612062576060600080600080611ed48a610a04565b9398509196509450925090506000611eef868686868661103a565b15611f7d57611f09611f018d84611b22565b612710611b98565b9050886001600160a01b0316846001600160a01b0316866001600160a01b03167fac7a699eb95c3c6d390ec4626de17ef9a67b35891efdb197beba7c7fdd45fac48f858760405180848152602001838152602001828152602001935050505060405180910390a4611f7a878261213a565b96505b801561205b57604080516323b872dd60e01b81526001600160a01b038f811660048301528781166024830152604482018490529151918a16916323b872dd916064808201926020929091908290030181600087803b158015611fde57600080fd5b505af1158015611ff2573d6000803e3d6000fd5b505050506040513d602081101561200857600080fd5b505161205b576040805162461bcd60e51b815260206004820152601960248201527f636f6d6d6973696f6e207472616e73666572206661696c656400000000000000604482015290519081900360640190fd5b5050505050505b604080516323b872dd60e01b81526001600160a01b0389811660048301528681166024830152604482018490529151918416916323b872dd916064808201926020929091908290030181600087803b1580156120bd57600080fd5b505af11580156120d1573d6000803e3d6000fd5b505050506040513d60208110156120e757600080fd5b5051611a4c576040805162461bcd60e51b815260206004820152601760248201527f7061796d656e74207472616e73666572206661696c6564000000000000000000604482015290519081900360640190fd5b600082821115612191576040805162461bcd60e51b815260206004820152600860248201527f756e6465666c6f77000000000000000000000000000000000000000000000000604482015290519081900360640190fd5b5090039056fe6f6e6c792061646d696e2063616e207365747570206d6574615472616e73616374696f6e50726f636573736f7273a26469706673582212200ff38c5741c66b2a22a9a9ee2abe0f55626323082b6b4443921fd3b25484584a64736f6c63430006050033",
  "devdoc": {
    "methods": {
      "buyLandWithSand(address,address,address,uint256,uint256,uint256,uint256,uint256,bytes32,uint256[],bytes32[],bytes)": {
        "params": {
          "buyer": "address that perform the payment",
          "priceInSand": "price in SAND to purchase that Land",
          "proof": "merkleProof for that particular Land",
          "reserved": "the reserved address (if any)",
          "size": "size of the pack of Land to purchase",
          "to": "address that will own the purchased Land",
          "x": "x coordinate of the Land",
          "y": "y coordinate of the Land"
        }
      },
      "changeAdmin(address)": {
        "details": "change the administrator to be `newAdmin`.",
        "params": {
          "newAdmin": "address of the new administrator."
        }
      },
      "getAdmin()": {
        "details": "gives the current administrator of this contract.",
        "returns": {
          "_0": "the current administrator of this contract."
        }
      },
      "getSigningWallet()": {
        "details": "signing wallet authorized for referral",
        "returns": {
          "_0": "the address of the signing wallet"
        }
      },
      "isMetaTransactionProcessor(address)": {
        "details": "check whether address `who` is given meta-transaction execution rights.",
        "params": {
          "who": "The address to query."
        },
        "returns": {
          "_0": "whether the address has meta-transaction execution rights."
        }
      },
      "isReferralValid(bytes,address,address,uint256,uint256)": {
        "params": {
          "commissionRate": "The commissionRate of the referral",
          "expiryTime": "The expiry time of the referral",
          "referee": "The address of the referee",
          "referrer": "The address of the referrer",
          "signature": "The signature to check (signed referral)"
        },
        "returns": {
          "_0": "True if the referral is valid"
        }
      },
      "setMetaTransactionProcessor(address,bool)": {
        "details": "Enable or disable the ability of `metaTransactionProcessor` to perform meta-tx (metaTransactionProcessor rights).",
        "params": {
          "enabled": "set whether the metaTransactionProcessor is enabled or disabled.",
          "metaTransactionProcessor": "address that will be given/removed metaTransactionProcessor rights."
        }
      },
      "setReceivingWallet(address)": {
        "params": {
          "newWallet": "address of the new receiving wallet"
        }
      },
      "updateMaxCommissionRate(uint256)": {
        "details": "Update the maximum commission rate",
        "params": {
          "newMaxCommissionRate": "The new maximum commission rate"
        }
      },
      "updateSigningWallet(address)": {
        "details": "Update the signing wallet",
        "params": {
          "newSigningWallet": "The new address of the signing wallet"
        }
      },
      "withdrawAssets(address,uint256[],uint256[])": {
        "params": {
          "assetIds": "the assetIds to be transferred",
          "to": "intended recipient of the asset tokens",
          "values": "the quantities of the assetIds to be transferred"
        }
      }
    },
    "title": "Estate Sale contract with referral"
  },
  "userdoc": {
    "methods": {
      "buyLandWithSand(address,address,address,uint256,uint256,uint256,uint256,uint256,bytes32,uint256[],bytes32[],bytes)": {
        "notice": "buy Land with SAND using the merkle proof associated with it"
      },
      "getExpiryTime()": {
        "notice": "Gets the expiry time for the current sale"
      },
      "getMaxCommisionRate()": {
        "notice": "the max commision rate"
      },
      "getMerkleRoot()": {
        "notice": "Gets the Merkle root associated with the current sale"
      },
      "isReferralValid(bytes,address,address,uint256,uint256)": {
        "notice": "Check if a referral is valid"
      },
      "setReceivingWallet(address)": {
        "notice": "set the wallet receiving the proceeds"
      },
      "withdrawAssets(address,uint256[],uint256[])": {
        "notice": "enable Admin to withdraw remaining assets from EstateSaleWithFee contract"
      }
    },
    "notice": "This contract manages the sale of our lands as Estates"
  },
  "storageLayout": {
    "storage": [
      {
        "astId": 12779,
        "contract": "src/solc_0.6/EstateSale/EstateSaleWithFee.sol:EstateSaleWithFee",
        "label": "_admin",
        "offset": 0,
        "slot": "0",
        "type": "t_address"
      },
      {
        "astId": 12841,
        "contract": "src/solc_0.6/EstateSale/EstateSaleWithFee.sol:EstateSaleWithFee",
        "label": "_metaTransactionContracts",
        "offset": 0,
        "slot": "1",
        "type": "t_mapping(t_address,t_bool)"
      },
      {
        "astId": 10957,
        "contract": "src/solc_0.6/EstateSale/EstateSaleWithFee.sol:EstateSaleWithFee",
        "label": "_signingWallet",
        "offset": 0,
        "slot": "2",
        "type": "t_address"
      },
      {
        "astId": 10959,
        "contract": "src/solc_0.6/EstateSale/EstateSaleWithFee.sol:EstateSaleWithFee",
        "label": "_maxCommissionRate",
        "offset": 0,
        "slot": "3",
        "type": "t_uint256"
      },
      {
        "astId": 10963,
        "contract": "src/solc_0.6/EstateSale/EstateSaleWithFee.sol:EstateSaleWithFee",
        "label": "_previousSigningWallets",
        "offset": 0,
        "slot": "4",
        "type": "t_mapping(t_address,t_uint256)"
      },
      {
        "astId": 10972,
        "contract": "src/solc_0.6/EstateSale/EstateSaleWithFee.sol:EstateSaleWithFee",
        "label": "_previousSigningDelay",
        "offset": 0,
        "slot": "5",
        "type": "t_uint256"
      },
      {
        "astId": 7344,
        "contract": "src/solc_0.6/EstateSale/EstateSaleWithFee.sol:EstateSaleWithFee",
        "label": "_wallet",
        "offset": 0,
        "slot": "6",
        "type": "t_address_payable"
      },
      {
        "astId": 7354,
        "contract": "src/solc_0.6/EstateSale/EstateSaleWithFee.sol:EstateSaleWithFee",
        "label": "_multiplier",
        "offset": 0,
        "slot": "7",
        "type": "t_uint256"
      }
    ],
    "types": {
      "t_address": {
        "encoding": "inplace",
        "label": "address",
        "numberOfBytes": "20"
      },
      "t_address_payable": {
        "encoding": "inplace",
        "label": "address payable",
        "numberOfBytes": "20"
      },
      "t_bool": {
        "encoding": "inplace",
        "label": "bool",
        "numberOfBytes": "1"
      },
      "t_mapping(t_address,t_bool)": {
        "encoding": "mapping",
        "key": "t_address",
        "label": "mapping(address => bool)",
        "numberOfBytes": "32",
        "value": "t_bool"
      },
      "t_mapping(t_address,t_uint256)": {
        "encoding": "mapping",
        "key": "t_address",
        "label": "mapping(address => uint256)",
        "numberOfBytes": "32",
        "value": "t_uint256"
      },
      "t_uint256": {
        "encoding": "inplace",
        "label": "uint256",
        "numberOfBytes": "32"
      }
    }
  }
}