{
  "address": "0x829c1A958CD0177FB87cA5e01d00F85310DC51d6",
  "abi": [
    {
      "inputs": [
        {
          "internalType": "address",
          "name": "landAddress",
          "type": "address"
        },
        {
          "internalType": "address",
          "name": "sandContractAddress",
          "type": "address"
        },
        {
          "internalType": "address",
          "name": "initialMetaTx",
          "type": "address"
        },
        {
          "internalType": "address",
          "name": "admin",
          "type": "address"
        },
        {
          "internalType": "address payable",
          "name": "initialWalletAddress",
          "type": "address"
        },
        {
          "internalType": "bytes32",
          "name": "merkleRoot",
          "type": "bytes32"
        },
        {
          "internalType": "uint256",
          "name": "expiryTime",
          "type": "uint256"
        },
        {
          "internalType": "address",
          "name": "initialSigningWallet",
          "type": "address"
        },
        {
          "internalType": "uint256",
          "name": "initialMaxCommissionRate",
          "type": "uint256"
        },
        {
          "internalType": "address",
          "name": "estate",
          "type": "address"
        },
        {
          "internalType": "address",
          "name": "asset",
          "type": "address"
        },
        {
          "internalType": "address",
          "name": "feeDistributor",
          "type": "address"
        }
      ],
      "stateMutability": "nonpayable",
      "type": "constructor"
    },
    {
      "anonymous": false,
      "inputs": [
        {
          "indexed": false,
          "internalType": "address",
          "name": "oldAdmin",
          "type": "address"
        },
        {
          "indexed": false,
          "internalType": "address",
          "name": "newAdmin",
          "type": "address"
        }
      ],
      "name": "AdminChanged",
      "type": "event"
    },
    {
      "anonymous": false,
      "inputs": [
        {
          "indexed": true,
          "internalType": "address",
          "name": "buyer",
          "type": "address"
        },
        {
          "indexed": true,
          "internalType": "address",
          "name": "to",
          "type": "address"
        },
        {
          "indexed": true,
          "internalType": "uint256",
          "name": "topCornerId",
          "type": "uint256"
        },
        {
          "indexed": false,
          "internalType": "uint256",
          "name": "size",
          "type": "uint256"
        },
        {
          "indexed": false,
          "internalType": "uint256",
          "name": "price",
          "type": "uint256"
        },
        {
          "indexed": false,
          "internalType": "address",
          "name": "token",
          "type": "address"
        },
        {
          "indexed": false,
          "internalType": "uint256",
          "name": "amountPaid",
          "type": "uint256"
        }
      ],
      "name": "LandQuadPurchased",
      "type": "event"
    },
    {
      "anonymous": false,
      "inputs": [
        {
          "indexed": false,
          "internalType": "address",
          "name": "metaTransactionProcessor",
          "type": "address"
        },
        {
          "indexed": false,
          "internalType": "bool",
          "name": "enabled",
          "type": "bool"
        }
      ],
      "name": "MetaTransactionProcessor",
      "type": "event"
    },
    {
      "anonymous": false,
      "inputs": [
        {
          "indexed": true,
          "internalType": "address",
          "name": "referrer",
          "type": "address"
        },
        {
          "indexed": true,
          "internalType": "address",
          "name": "referee",
          "type": "address"
        },
        {
          "indexed": true,
          "internalType": "address",
          "name": "token",
          "type": "address"
        },
        {
          "indexed": false,
          "internalType": "uint256",
          "name": "amount",
          "type": "uint256"
        },
        {
          "indexed": false,
          "internalType": "uint256",
          "name": "commission",
          "type": "uint256"
        },
        {
          "indexed": false,
          "internalType": "uint256",
          "name": "commissionRate",
          "type": "uint256"
        }
      ],
      "name": "ReferralUsed",
      "type": "event"
    },
    {
      "inputs": [
        {
          "internalType": "address",
          "name": "buyer",
          "type": "address"
        },
        {
          "internalType": "address",
          "name": "to",
          "type": "address"
        },
        {
          "internalType": "address",
          "name": "reserved",
          "type": "address"
        },
        {
          "internalType": "uint256",
          "name": "x",
          "type": "uint256"
        },
        {
          "internalType": "uint256",
          "name": "y",
          "type": "uint256"
        },
        {
          "internalType": "uint256",
          "name": "size",
          "type": "uint256"
        },
        {
          "internalType": "uint256",
          "name": "priceInSand",
          "type": "uint256"
        },
        {
          "internalType": "uint256",
          "name": "adjustedPriceInSand",
          "type": "uint256"
        },
        {
          "internalType": "bytes32",
          "name": "salt",
          "type": "bytes32"
        },
        {
          "internalType": "uint256[]",
          "name": "assetIds",
          "type": "uint256[]"
        },
        {
          "internalType": "bytes32[]",
          "name": "proof",
          "type": "bytes32[]"
        },
        {
          "internalType": "bytes",
          "name": "referral",
          "type": "bytes"
        }
      ],
      "name": "buyLandWithSand",
      "outputs": [],
      "stateMutability": "nonpayable",
      "type": "function"
    },
    {
      "inputs": [
        {
          "internalType": "address",
          "name": "newAdmin",
          "type": "address"
        }
      ],
      "name": "changeAdmin",
      "outputs": [],
      "stateMutability": "nonpayable",
      "type": "function"
    },
    {
      "inputs": [
        {
          "internalType": "bytes",
          "name": "referral",
          "type": "bytes"
        }
      ],
      "name": "decodeReferral",
      "outputs": [
        {
          "internalType": "bytes",
          "name": "",
          "type": "bytes"
        },
        {
          "internalType": "address",
          "name": "",
          "type": "address"
        },
        {
          "internalType": "address",
          "name": "",
          "type": "address"
        },
        {
          "internalType": "uint256",
          "name": "",
          "type": "uint256"
        },
        {
          "internalType": "uint256",
          "name": "",
          "type": "uint256"
        }
      ],
      "stateMutability": "pure",
      "type": "function"
    },
    {
      "inputs": [],
      "name": "getAdmin",
      "outputs": [
        {
          "internalType": "address",
          "name": "",
          "type": "address"
        }
      ],
      "stateMutability": "view",
      "type": "function"
    },
    {
      "inputs": [],
      "name": "getExpiryTime",
      "outputs": [
        {
          "internalType": "uint256",
          "name": "",
          "type": "uint256"
        }
      ],
      "stateMutability": "view",
      "type": "function"
    },
    {
      "inputs": [],
      "name": "getMaxCommisionRate",
      "outputs": [
        {
          "internalType": "uint256",
          "name": "",
          "type": "uint256"
        }
      ],
      "stateMutability": "view",
      "type": "function"
    },
    {
      "inputs": [],
      "name": "getMerkleRoot",
      "outputs": [
        {
          "internalType": "bytes32",
          "name": "",
          "type": "bytes32"
        }
      ],
      "stateMutability": "view",
      "type": "function"
    },
    {
      "inputs": [],
      "name": "getSandMultiplier",
      "outputs": [
        {
          "internalType": "uint256",
          "name": "",
          "type": "uint256"
        }
      ],
      "stateMutability": "view",
      "type": "function"
    },
    {
      "inputs": [],
      "name": "getSigningWallet",
      "outputs": [
        {
          "internalType": "address",
          "name": "",
          "type": "address"
        }
      ],
      "stateMutability": "view",
      "type": "function"
    },
    {
      "inputs": [
        {
          "internalType": "address",
          "name": "who",
          "type": "address"
        }
      ],
      "name": "isMetaTransactionProcessor",
      "outputs": [
        {
          "internalType": "bool",
          "name": "",
          "type": "bool"
        }
      ],
      "stateMutability": "view",
      "type": "function"
    },
    {
      "inputs": [
        {
          "internalType": "bytes",
          "name": "signature",
          "type": "bytes"
        },
        {
          "internalType": "address",
          "name": "referrer",
          "type": "address"
        },
        {
          "internalType": "address",
          "name": "referee",
          "type": "address"
        },
        {
          "internalType": "uint256",
          "name": "expiryTime",
          "type": "uint256"
        },
        {
          "internalType": "uint256",
          "name": "commissionRate",
          "type": "uint256"
        }
      ],
      "name": "isReferralValid",
      "outputs": [
        {
          "internalType": "bool",
          "name": "",
          "type": "bool"
        }
      ],
      "stateMutability": "view",
      "type": "function"
    },
    {
      "inputs": [
        {
          "internalType": "address",
          "name": "",
          "type": "address"
        },
        {
          "internalType": "address",
          "name": "",
          "type": "address"
        },
        {
          "internalType": "uint256[]",
          "name": "",
          "type": "uint256[]"
        },
        {
          "internalType": "uint256[]",
          "name": "",
          "type": "uint256[]"
        },
        {
          "internalType": "bytes",
          "name": "",
          "type": "bytes"
        }
      ],
      "name": "onERC1155BatchReceived",
      "outputs": [
        {
          "internalType": "bytes4",
          "name": "",
          "type": "bytes4"
        }
      ],
      "stateMutability": "pure",
      "type": "function"
    },
    {
      "inputs": [
        {
          "internalType": "address",
          "name": "",
          "type": "address"
        },
        {
          "internalType": "address",
          "name": "",
          "type": "address"
        },
        {
          "internalType": "uint256",
          "name": "",
          "type": "uint256"
        },
        {
          "internalType": "uint256",
          "name": "",
          "type": "uint256"
        },
        {
          "internalType": "bytes",
          "name": "",
          "type": "bytes"
        }
      ],
      "name": "onERC1155Received",
      "outputs": [
        {
          "internalType": "bytes4",
          "name": "",
          "type": "bytes4"
        }
      ],
      "stateMutability": "pure",
      "type": "function"
    },
    {
      "inputs": [
        {
          "internalType": "uint256",
          "name": "newMultiplier",
          "type": "uint256"
        }
      ],
      "name": "rebalanceSand",
      "outputs": [],
      "stateMutability": "nonpayable",
      "type": "function"
    },
    {
      "inputs": [
        {
          "internalType": "address",
          "name": "metaTransactionProcessor",
          "type": "address"
        },
        {
          "internalType": "bool",
          "name": "enabled",
          "type": "bool"
        }
      ],
      "name": "setMetaTransactionProcessor",
      "outputs": [],
      "stateMutability": "nonpayable",
      "type": "function"
    },
    {
      "inputs": [
        {
          "internalType": "address payable",
          "name": "newWallet",
          "type": "address"
        }
      ],
      "name": "setReceivingWallet",
      "outputs": [],
      "stateMutability": "nonpayable",
      "type": "function"
    },
    {
      "inputs": [
        {
          "internalType": "uint256",
          "name": "newMaxCommissionRate",
          "type": "uint256"
        }
      ],
      "name": "updateMaxCommissionRate",
      "outputs": [],
      "stateMutability": "nonpayable",
      "type": "function"
    },
    {
      "inputs": [
        {
          "internalType": "address",
          "name": "newSigningWallet",
          "type": "address"
        }
      ],
      "name": "updateSigningWallet",
      "outputs": [],
      "stateMutability": "nonpayable",
      "type": "function"
    },
    {
      "inputs": [
        {
          "internalType": "address",
          "name": "to",
          "type": "address"
        },
        {
          "internalType": "uint256[]",
          "name": "assetIds",
          "type": "uint256[]"
        },
        {
          "internalType": "uint256[]",
          "name": "values",
          "type": "uint256[]"
        }
      ],
      "name": "withdrawAssets",
      "outputs": [],
      "stateMutability": "nonpayable",
      "type": "function"
    }
  ],
  "transactionHash": "0xc3fa4a2d71051dfb919457ab8ddaf79641dce780362a75641f2dff5728d3fe1c",
  "args": [
    "0x50f5474724e0Ee42D9a4e711ccFB275809Fd6d4a",
    "0x3845badAde8e6dFF049820680d1F14bD3903a5d0",
    "0x3845badAde8e6dFF049820680d1F14bD3903a5d0",
    "0xEAA0993E1d21c2103e4f172a20D29371FbAF6D06",
    "0x4489590a116618B506F0EfE885432F6A8ED998E9",
    "0x92178f9ef272e02d65987014073a745654814259824f399bbbbfd6410110699c",
    1623330000,
    "0x3044719d139F866a44c988823513eCB93060bF1b",
    2000,
    "0x0000000000000000000000000000000000000000",
    "0xa342f5D851E866E18ff98F351f2c6637f4478dB5",
    "0x0EB04462D69B1D267d269377E34f60b9De1c8510"
  ],
  "linkedData": [
    {
      "x": 120,
      "y": 354,
      "size": 1,
      "price": "1011000000000000000000",
      "reserved": "",
      "salt": "0xf90b94144b3922dcd32b90cec56c3071c664d867482771340eed68bebb93bbbf",
      "assetIds": []
    },
    {
      "x": 120,
      "y": 355,
      "size": 1,
      "price": "1011000000000000000000",
      "reserved": "",
      "salt": "0x5e7e5145780a3d28c57980d14306ab14f0be84e321f7d53750276a1e7de74abf",
      "assetIds": []
    },
    {
      "x": 120,
      "y": 356,
      "size": 1,
      "price": "1011000000000000000000",
      "reserved": "",
      "salt": "0xf3057669432e43fcd4143f49749c8c1fd97591af12674e9b9e2140741c484104",
      "assetIds": []
    },
    {
      "x": 120,
      "y": 357,
      "size": 1,
      "price": "1011000000000000000000",
      "reserved": "",
      "salt": "0x9bec5a2faaeef8b081f05bb61c230a91dc63c8a978f040801189f6be6fd1b564",
      "assetIds": []
    },
    {
      "x": 120,
      "y": 358,
      "size": 1,
      "price": "1011000000000000000000",
      "reserved": "",
      "salt": "0xcd68aa4aeebb50f7a9f992cf798406820d1775b9192d65cdbd0c718a846d8ff9",
      "assetIds": []
    },
    {
      "x": 120,
      "y": 359,
      "size": 1,
      "price": "1011000000000000000000",
      "reserved": "",
      "salt": "0xf1468b98837aa11c35d35a0a3bcfaed7e83899dba276d7ece3bed1c55d971ee9",
      "assetIds": []
    },
    {
      "x": 120,
      "y": 366,
      "size": 1,
      "price": "1011000000000000000000",
      "reserved": "",
      "salt": "0xc111c49122d9c239a8c8f4247571a2cc9b1ce96ef2f846b424e4d645c9b63136",
      "assetIds": []
    },
    {
      "x": 120,
      "y": 367,
      "size": 1,
      "price": "1011000000000000000000",
      "reserved": "",
      "salt": "0x1fb273f0b8baf01cfb520216b33d66e882e2ed881cb4a5d4f4a01e0a011cfb5c",
      "assetIds": []
    },
    {
      "x": 120,
      "y": 368,
      "size": 1,
      "price": "1011000000000000000000",
      "reserved": "",
      "salt": "0x5f5481458bb514f8a8570fbe913811f8bb87e5a12a5156fbec6423f9407d467e",
      "assetIds": []
    },
    {
      "x": 120,
      "y": 369,
      "size": 1,
      "price": "1011000000000000000000",
      "reserved": "",
      "salt": "0x2c539033e131bb46a54a01a986143cff5b13cd18c7ac18c159fbcb1d32c19df6",
      "assetIds": []
    },
    {
      "x": 120,
      "y": 370,
      "size": 1,
      "price": "1011000000000000000000",
      "reserved": "",
      "salt": "0x11d1cdf0075af9864201da93d1725a91f6bbdf9e13ae649e35a60eb037a9264a",
      "assetIds": []
    },
    {
      "x": 120,
      "y": 371,
      "size": 1,
      "price": "1011000000000000000000",
      "reserved": "",
      "salt": "0x98f9b9842f6dffe9cd56b12df092eed9c73e0e17ee4c0c791eb7f577c1330d15",
      "assetIds": []
    },
    {
      "x": 120,
      "y": 378,
      "size": 1,
      "price": "4683000000000000000000",
      "reserved": "",
      "salt": "0x5de5b08c74d2c15ef8067cea5b53c4f417766e574a2113ffc73916ea0476693c",
      "assetIds": [
        "55464657044963196816950587289035428064568320970692304673817341489687757334528",
        "55464657044963196816950587289035428064568320970692304673817341489687757334529",
        "55464657044963196816950587289035428064568320970692304673817341489687757334530",
        "55464657044963196816950587289035428064568320970692304673817341489687757334531",
        "55464657044963196816950587289035428064568320970692304673817341489687757334532"
      ]
    },
    {
      "x": 120,
      "y": 379,
      "size": 1,
      "price": "1011000000000000000000",
      "reserved": "",
      "salt": "0x669e8aff3cc96bd40aef3806d263b17a189c1ae7469b467d95a052eccb2f91d9",
      "assetIds": []
    },
    {
      "x": 120,
      "y": 380,
      "size": 1,
      "price": "1011000000000000000000",
      "reserved": "0x7a9fe22691c811ea339d9b73150e6911a5343dca",
      "salt": "0x0c9f04d7ac00f80011dccd003c88e703f4afcf4bd751301703fe6a5d6817c584",
      "assetIds": []
    },
    {
      "x": 120,
      "y": 381,
      "size": 1,
      "price": "1011000000000000000000",
      "reserved": "",
      "salt": "0xa456dc0577ed87fe95302d353a1d38001c4d66c31c6ff7a62c353c7c89ff6752",
      "assetIds": []
    },
    {
      "x": 120,
      "y": 382,
      "size": 1,
      "price": "1011000000000000000000",
      "reserved": "",
      "salt": "0x8a267f8a2c6fc5d247fab1f22868cd7ab184b43160f5ab6a0a59ff56de75fbd3",
      "assetIds": []
    },
    {
      "x": 120,
      "y": 383,
      "size": 1,
      "price": "1011000000000000000000",
      "reserved": "",
      "salt": "0x38443a7b56e7587d6010b16243926fa9559f690e964768c2c67ddf3b7b967503",
      "assetIds": []
    },
    {
      "x": 120,
      "y": 384,
      "size": 1,
      "price": "4683000000000000000000",
      "reserved": "",
      "salt": "0x1b088e6c0902a4527cbeba4e58722e728a420376cc5f6d728ead50d4268aceef",
      "assetIds": [
        "55464657044963196816950587289035428064568320970692304673817341489687757334528",
        "55464657044963196816950587289035428064568320970692304673817341489687757334529",
        "55464657044963196816950587289035428064568320970692304673817341489687757334530",
        "55464657044963196816950587289035428064568320970692304673817341489687757334531",
        "55464657044963196816950587289035428064568320970692304673817341489687757334532"
      ]
    },
    {
      "x": 120,
      "y": 385,
      "size": 1,
      "price": "4683000000000000000000",
      "reserved": "",
      "salt": "0xef548020566dc3a2ffd0fa51344074247a80065d1193a1b344a160fed8a0d117",
      "assetIds": [
        "55464657044963196816950587289035428064568320970692304673817341489687757334528",
        "55464657044963196816950587289035428064568320970692304673817341489687757334529",
        "55464657044963196816950587289035428064568320970692304673817341489687757334530",
        "55464657044963196816950587289035428064568320970692304673817341489687757334531",
        "55464657044963196816950587289035428064568320970692304673817341489687757334532"
      ]
    },
    {
      "x": 120,
      "y": 386,
      "size": 1,
      "price": "4683000000000000000000",
      "reserved": "",
      "salt": "0xfb560853b406a421d1d188534abbba215937a7095c62db8a692efa3c64a66a07",
      "assetIds": [
        "55464657044963196816950587289035428064568320970692304673817341489687757334528",
        "55464657044963196816950587289035428064568320970692304673817341489687757334529",
        "55464657044963196816950587289035428064568320970692304673817341489687757334530",
        "55464657044963196816950587289035428064568320970692304673817341489687757334531",
        "55464657044963196816950587289035428064568320970692304673817341489687757334532"
      ]
    },
    {
      "x": 120,
      "y": 390,
      "size": 1,
      "price": "4683000000000000000000",
      "reserved": "",
      "salt": "0x8aa428edaaf102ccca3fb6cb4e5821166e1816a61f8d65613ca3e584bb76f2b7",
      "assetIds": [
        "55464657044963196816950587289035428064568320970692304673817341489687757334528",
        "55464657044963196816950587289035428064568320970692304673817341489687757334529",
        "55464657044963196816950587289035428064568320970692304673817341489687757334530",
        "55464657044963196816950587289035428064568320970692304673817341489687757334531",
        "55464657044963196816950587289035428064568320970692304673817341489687757334532"
      ]
    },
    {
      "x": 120,
      "y": 391,
      "size": 1,
      "price": "4683000000000000000000",
      "reserved": "",
      "salt": "0xc92473925220fa9fcf3bb87296ab1194cf756cf58f9f1a3d387e03aed62cc768",
      "assetIds": [
        "55464657044963196816950587289035428064568320970692304673817341489687757334528",
        "55464657044963196816950587289035428064568320970692304673817341489687757334529",
        "55464657044963196816950587289035428064568320970692304673817341489687757334530",
        "55464657044963196816950587289035428064568320970692304673817341489687757334531",
        "55464657044963196816950587289035428064568320970692304673817341489687757334532"
      ]
    },
    {
      "x": 120,
      "y": 392,
      "size": 1,
      "price": "4683000000000000000000",
      "reserved": "",
      "salt": "0xaa374efc9871ee909fea1f8ad5c1bce00f114ccec349f4804232f9c565ad8911",
      "assetIds": [
        "55464657044963196816950587289035428064568320970692304673817341489687757334528",
        "55464657044963196816950587289035428064568320970692304673817341489687757334529",
        "55464657044963196816950587289035428064568320970692304673817341489687757334530",
        "55464657044963196816950587289035428064568320970692304673817341489687757334531",
        "55464657044963196816950587289035428064568320970692304673817341489687757334532"
      ]
    },
    {
      "x": 121,
      "y": 354,
      "size": 1,
      "price": "1011000000000000000000",
      "reserved": "",
      "salt": "0xf417c9f30f15c2850bc56429cc3b8c3c543436851e144f4556c71664726a60af",
      "assetIds": []
    },
    {
      "x": 121,
      "y": 355,
      "size": 1,
      "price": "1011000000000000000000",
      "reserved": "",
      "salt": "0x086cc7c5598e986c05bc6633c9f01e5e3e17031e058036f4f3c223c3050cf9f0",
      "assetIds": []
    },
    {
      "x": 121,
      "y": 356,
      "size": 1,
      "price": "1011000000000000000000",
      "reserved": "0x7a9fe22691c811ea339d9b73150e6911a5343dca",
      "salt": "0x8b3f6da485a79eb44741fd2e113eb7e3232bf1439e6713cbb9b30bd692b84cc9",
      "assetIds": []
    },
    {
      "x": 121,
      "y": 357,
      "size": 1,
      "price": "1011000000000000000000",
      "reserved": "",
      "salt": "0x3949f808d23fbf6393817815c03cb0d62d91e0b44e1784313680a319b6f5c02e",
      "assetIds": []
    },
    {
      "x": 121,
      "y": 358,
      "size": 1,
      "price": "1011000000000000000000",
      "reserved": "",
      "salt": "0x838cf8f62c645414cedcd9b54caaef89178278161905d81921cc086abfce2189",
      "assetIds": []
    },
    {
      "x": 121,
      "y": 359,
      "size": 1,
      "price": "1011000000000000000000",
      "reserved": "",
      "salt": "0x714b46e26632ae576de567cafb72dd3fa80d5a03ab1b0acaa871c62973ce29b1",
      "assetIds": []
    },
    {
      "x": 121,
      "y": 366,
      "size": 1,
      "price": "1011000000000000000000",
      "reserved": "",
      "salt": "0xeda32e96609d67d96197a6c1cadfa09bcadbc96b3b9b3905cdd16ba58835db63",
      "assetIds": []
    },
    {
      "x": 121,
      "y": 367,
      "size": 1,
      "price": "1011000000000000000000",
      "reserved": "0x7a9fe22691c811ea339d9b73150e6911a5343dca",
      "salt": "0xf7f1c8dc8a011d5a8a4e6627efac8f699249887d66cf143f136bfd9f050ac256",
      "assetIds": []
    },
    {
      "x": 121,
      "y": 368,
      "size": 1,
      "price": "1011000000000000000000",
      "reserved": "",
      "salt": "0x66be4c3e94845bc833ea2f2609e6987815877173cbd140feb9713b402db8aa5c",
      "assetIds": []
    },
    {
      "x": 121,
      "y": 369,
      "size": 1,
      "price": "1011000000000000000000",
      "reserved": "",
      "salt": "0x3fc78a954238167c2959c9325cd9e9e43d69fdebade70ce14c5a7b1a0339fd30",
      "assetIds": []
    },
    {
      "x": 121,
      "y": 370,
      "size": 1,
      "price": "1011000000000000000000",
      "reserved": "",
      "salt": "0x99cbe744736ee76292233a3eca51373b0927b24c0d325f3626333ccb92b496b8",
      "assetIds": []
    },
    {
      "x": 121,
      "y": 371,
      "size": 1,
      "price": "1011000000000000000000",
      "reserved": "0x7a9fe22691c811ea339d9b73150e6911a5343dca",
      "salt": "0xb0b1023de6a6e6ffe307dc61be63d73517486a829f1c608a1fd7eaf255d59256",
      "assetIds": []
    },
    {
      "x": 121,
      "y": 378,
      "size": 1,
      "price": "4683000000000000000000",
      "reserved": "",
      "salt": "0x52facdb8a1adaf696aa54313d4a778bbf35d3f3150f3052314fb0262dbe743c5",
      "assetIds": [
        "55464657044963196816950587289035428064568320970692304673817341489687757334528",
        "55464657044963196816950587289035428064568320970692304673817341489687757334529",
        "55464657044963196816950587289035428064568320970692304673817341489687757334530",
        "55464657044963196816950587289035428064568320970692304673817341489687757334531",
        "55464657044963196816950587289035428064568320970692304673817341489687757334532"
      ]
    },
    {
      "x": 121,
      "y": 379,
      "size": 1,
      "price": "1011000000000000000000",
      "reserved": "",
      "salt": "0x652bd65d441d6b118338388690e56787c065598c0a735f4ac6c55bdebbff0862",
      "assetIds": []
    },
    {
      "x": 121,
      "y": 380,
      "size": 1,
      "price": "1011000000000000000000",
      "reserved": "",
      "salt": "0x2f0ae6c416c4679452b624491aa4b54ee0e39cc906cb14d50e30281f791331f3",
      "assetIds": []
    },
    {
      "x": 121,
      "y": 381,
      "size": 1,
      "price": "1011000000000000000000",
      "reserved": "",
      "salt": "0x056e777a6968e84f590654e9c7a172d6b843e195e15a43aaa2b9c2cb08e826f9",
      "assetIds": []
    },
    {
      "x": 121,
      "y": 382,
      "size": 1,
      "price": "1011000000000000000000",
      "reserved": "",
      "salt": "0xe9883db4cc4b988e9e37fffe8758a55b9176a7de83fd81ab53f454aa16b7be25",
      "assetIds": []
    },
    {
      "x": 121,
      "y": 383,
      "size": 1,
      "price": "1011000000000000000000",
      "reserved": "",
      "salt": "0x4c214059e6ab34c37ea9831bc1157515f6070a05062298d4f36d812a46fa698d",
      "assetIds": []
    },
    {
      "x": 121,
      "y": 384,
      "size": 1,
      "price": "1011000000000000000000",
      "reserved": "0x7a9fe22691c811ea339d9b73150e6911a5343dca",
      "salt": "0xa4336e4db771cf45b233d8f1390a85086a467c9a07a0a600a892a83f42ceba89",
      "assetIds": []
    },
    {
      "x": 121,
      "y": 385,
      "size": 1,
      "price": "4683000000000000000000",
      "reserved": "",
      "salt": "0xe4155d07f7617b726ae94827a271fe734dbd8e687f09cc06d20fd1026e9b76c0",
      "assetIds": [
        "55464657044963196816950587289035428064568320970692304673817341489687757334528",
        "55464657044963196816950587289035428064568320970692304673817341489687757334529",
        "55464657044963196816950587289035428064568320970692304673817341489687757334530",
        "55464657044963196816950587289035428064568320970692304673817341489687757334531",
        "55464657044963196816950587289035428064568320970692304673817341489687757334532"
      ]
    },
    {
      "x": 121,
      "y": 386,
      "size": 1,
      "price": "4683000000000000000000",
      "reserved": "",
      "salt": "0x865834e43cfad0fb518a28bc89391a6a233e532187914064f5ba2a7eab12ae1c",
      "assetIds": [
        "55464657044963196816950587289035428064568320970692304673817341489687757334528",
        "55464657044963196816950587289035428064568320970692304673817341489687757334529",
        "55464657044963196816950587289035428064568320970692304673817341489687757334530",
        "55464657044963196816950587289035428064568320970692304673817341489687757334531",
        "55464657044963196816950587289035428064568320970692304673817341489687757334532"
      ]
    },
    {
      "x": 121,
      "y": 390,
      "size": 1,
      "price": "4683000000000000000000",
      "reserved": "",
      "salt": "0xcfebd0159dd161eb7d03f441a68f07dfc7f2ef46cad1fc307bc4645641edeed1",
      "assetIds": [
        "55464657044963196816950587289035428064568320970692304673817341489687757334528",
        "55464657044963196816950587289035428064568320970692304673817341489687757334529",
        "55464657044963196816950587289035428064568320970692304673817341489687757334530",
        "55464657044963196816950587289035428064568320970692304673817341489687757334531",
        "55464657044963196816950587289035428064568320970692304673817341489687757334532"
      ]
    },
    {
      "x": 121,
      "y": 391,
      "size": 1,
      "price": "4683000000000000000000",
      "reserved": "",
      "salt": "0xe857ac2fd859cea2014f05e1f3b7a8616406e6646326701ce96bcc396cfe0a0b",
      "assetIds": [
        "55464657044963196816950587289035428064568320970692304673817341489687757334528",
        "55464657044963196816950587289035428064568320970692304673817341489687757334529",
        "55464657044963196816950587289035428064568320970692304673817341489687757334530",
        "55464657044963196816950587289035428064568320970692304673817341489687757334531",
        "55464657044963196816950587289035428064568320970692304673817341489687757334532"
      ]
    },
    {
      "x": 121,
      "y": 392,
      "size": 1,
      "price": "4683000000000000000000",
      "reserved": "",
      "salt": "0xd3afb60d50ccb42c6addd8a1370015b27ecc3c38e1074594f07a8b9fb93fdbab",
      "assetIds": [
        "55464657044963196816950587289035428064568320970692304673817341489687757334528",
        "55464657044963196816950587289035428064568320970692304673817341489687757334529",
        "55464657044963196816950587289035428064568320970692304673817341489687757334530",
        "55464657044963196816950587289035428064568320970692304673817341489687757334531",
        "55464657044963196816950587289035428064568320970692304673817341489687757334532"
      ]
    },
    {
      "x": 122,
      "y": 354,
      "size": 1,
      "price": "1011000000000000000000",
      "reserved": "",
      "salt": "0xa31779be9aadf5ff5a8c06acb1ec9ba74d9f2bfd9bc9b435e0dcfb124017dd43",
      "assetIds": []
    },
    {
      "x": 122,
      "y": 355,
      "size": 1,
      "price": "1011000000000000000000",
      "reserved": "",
      "salt": "0x4c65fd2ae9a3f4a20734ecd251f4ace5f84f47c8707c1bb39bd9f88acb61145a",
      "assetIds": []
    },
    {
      "x": 122,
      "y": 356,
      "size": 1,
      "price": "1011000000000000000000",
      "reserved": "",
      "salt": "0x8dbd229343ca4eda12e2544cf28bf7d163357616bba4e4e30f62b3379ecbd3f5",
      "assetIds": []
    },
    {
      "x": 122,
      "y": 357,
      "size": 1,
      "price": "1011000000000000000000",
      "reserved": "",
      "salt": "0xbb90fcdf6a5b14666149f58e3b16cb763233b89f6acb2a4cbc38a82ebcbfaf85",
      "assetIds": []
    },
    {
      "x": 122,
      "y": 358,
      "size": 1,
      "price": "1011000000000000000000",
      "reserved": "",
      "salt": "0xc4f2d92789396cd02804a5286660e2c150faf7f7228f5d3eff537b3af53640ee",
      "assetIds": []
    },
    {
      "x": 122,
      "y": 359,
      "size": 1,
      "price": "1011000000000000000000",
      "reserved": "",
      "salt": "0xa1c4634643082047dcab7d35bf8d12c864a0fa3ad4bdf940d3665319c371306e",
      "assetIds": []
    },
    {
      "x": 122,
      "y": 366,
      "size": 1,
      "price": "1011000000000000000000",
      "reserved": "",
      "salt": "0x0568a652d6fb8c3e955cdbb7a44106e34dc781544fd6be5846d07ee991c1533b",
      "assetIds": []
    },
    {
      "x": 122,
      "y": 367,
      "size": 1,
      "price": "1011000000000000000000",
      "reserved": "",
      "salt": "0x95f85c619b77edc5143582cd1bba5e671afbb8c6fc9060e92e6e1a6c41d663ad",
      "assetIds": []
    },
    {
      "x": 122,
      "y": 368,
      "size": 1,
      "price": "1011000000000000000000",
      "reserved": "",
      "salt": "0x9189e9f714cde2c6a2959147eef36efec1d9da2cfa36a07de0e7a91235a2ba19",
      "assetIds": []
    },
    {
      "x": 122,
      "y": 369,
      "size": 1,
      "price": "1011000000000000000000",
      "reserved": "",
      "salt": "0xa833fbf92ede72e1af07219f36dd2450aad90e7b687c4188aae256c6efe52a0a",
      "assetIds": []
    },
    {
      "x": 122,
      "y": 370,
      "size": 1,
      "price": "1011000000000000000000",
      "reserved": "",
      "salt": "0x7641ac7076a2a160e866284be1ab6a3151836faf93669009f7f68c25dff7b066",
      "assetIds": []
    },
    {
      "x": 122,
      "y": 371,
      "size": 1,
      "price": "1011000000000000000000",
      "reserved": "",
      "salt": "0xeca655f3e31b9889d40564b47c7eb86ed4b6e5adfe8f73f4b4f2da37cdae3b9d",
      "assetIds": []
    },
    {
      "x": 122,
      "y": 378,
      "size": 1,
      "price": "4683000000000000000000",
      "reserved": "",
      "salt": "0x36f8f0cf1d9a73e08a15b36b759ae671223fd40b45f010967cfb4cf11ab76495",
      "assetIds": [
        "55464657044963196816950587289035428064568320970692304673817341489687757334528",
        "55464657044963196816950587289035428064568320970692304673817341489687757334529",
        "55464657044963196816950587289035428064568320970692304673817341489687757334530",
        "55464657044963196816950587289035428064568320970692304673817341489687757334531",
        "55464657044963196816950587289035428064568320970692304673817341489687757334532"
      ]
    },
    {
      "x": 122,
      "y": 379,
      "size": 1,
      "price": "1011000000000000000000",
      "reserved": "",
      "salt": "0x48d65b39406eba3d443cd82049d1377eb4219afef32268df935659b123d8b686",
      "assetIds": []
    },
    {
      "x": 122,
      "y": 380,
      "size": 1,
      "price": "1011000000000000000000",
      "reserved": "0x7a9fe22691c811ea339d9b73150e6911a5343dca",
      "salt": "0x9b5e13bb0aa1fd217b19a5c6b441237dd347a33dd3235f688a2d4fb6e21e315d",
      "assetIds": []
    },
    {
      "x": 122,
      "y": 381,
      "size": 1,
      "price": "1011000000000000000000",
      "reserved": "0x7a9fe22691c811ea339d9b73150e6911a5343dca",
      "salt": "0x8d488ed34766609bd164e87022c9d923e6199a18176c84e811792ccffbf63c06",
      "assetIds": []
    },
    {
      "x": 122,
      "y": 382,
      "size": 1,
      "price": "1011000000000000000000",
      "reserved": "",
      "salt": "0x09f88845be745c94670da85bf9e4ef98bd32789ea6f6b1fd368aba1e43ad33eb",
      "assetIds": []
    },
    {
      "x": 122,
      "y": 383,
      "size": 1,
      "price": "1011000000000000000000",
      "reserved": "",
      "salt": "0x7943a477acc247892e3b940d9c4faf0f94ab031b4d2ffe67e836f763504e5d10",
      "assetIds": []
    },
    {
      "x": 122,
      "y": 384,
      "size": 1,
      "price": "1011000000000000000000",
      "reserved": "",
      "salt": "0x004fd443ecb3860f1e97e91f8fdfb66db5de3f09923ef09f1796069698309e50",
      "assetIds": []
    },
    {
      "x": 122,
      "y": 385,
      "size": 1,
      "price": "4683000000000000000000",
      "reserved": "",
      "salt": "0x476dbdf313a7eb4fe646e88d6422ac73de57f121f0aa3c75817fd2e28aa0c500",
      "assetIds": [
        "55464657044963196816950587289035428064568320970692304673817341489687757334528",
        "55464657044963196816950587289035428064568320970692304673817341489687757334529",
        "55464657044963196816950587289035428064568320970692304673817341489687757334530",
        "55464657044963196816950587289035428064568320970692304673817341489687757334531",
        "55464657044963196816950587289035428064568320970692304673817341489687757334532"
      ]
    },
    {
      "x": 122,
      "y": 386,
      "size": 1,
      "price": "4683000000000000000000",
      "reserved": "",
      "salt": "0x49c89aebcd3c4efecd5d014d962d921dd1083f0a454eebc1fe4d044827e7979c",
      "assetIds": [
        "55464657044963196816950587289035428064568320970692304673817341489687757334528",
        "55464657044963196816950587289035428064568320970692304673817341489687757334529",
        "55464657044963196816950587289035428064568320970692304673817341489687757334530",
        "55464657044963196816950587289035428064568320970692304673817341489687757334531",
        "55464657044963196816950587289035428064568320970692304673817341489687757334532"
      ]
    },
    {
      "x": 122,
      "y": 390,
      "size": 1,
      "price": "4683000000000000000000",
      "reserved": "",
      "salt": "0x6934bc33c5fa6eed4388f4db793aacd0d0ec660ff62ac8879554afe2f1421d20",
      "assetIds": [
        "55464657044963196816950587289035428064568320970692304673817341489687757334528",
        "55464657044963196816950587289035428064568320970692304673817341489687757334529",
        "55464657044963196816950587289035428064568320970692304673817341489687757334530",
        "55464657044963196816950587289035428064568320970692304673817341489687757334531",
        "55464657044963196816950587289035428064568320970692304673817341489687757334532"
      ]
    },
    {
      "x": 122,
      "y": 391,
      "size": 1,
      "price": "4683000000000000000000",
      "reserved": "",
      "salt": "0xf946b7a17a4315940e17c30836775166f84ea841e829d329da4bc6784144f7cf",
      "assetIds": [
        "55464657044963196816950587289035428064568320970692304673817341489687757334528",
        "55464657044963196816950587289035428064568320970692304673817341489687757334529",
        "55464657044963196816950587289035428064568320970692304673817341489687757334530",
        "55464657044963196816950587289035428064568320970692304673817341489687757334531",
        "55464657044963196816950587289035428064568320970692304673817341489687757334532"
      ]
    },
    {
      "x": 122,
      "y": 392,
      "size": 1,
      "price": "4683000000000000000000",
      "reserved": "",
      "salt": "0xb54a22c2d982ba714225b8ce53ddeb19030a98919b0de5e612361cce81613b2f",
      "assetIds": [
        "55464657044963196816950587289035428064568320970692304673817341489687757334528",
        "55464657044963196816950587289035428064568320970692304673817341489687757334529",
        "55464657044963196816950587289035428064568320970692304673817341489687757334530",
        "55464657044963196816950587289035428064568320970692304673817341489687757334531",
        "55464657044963196816950587289035428064568320970692304673817341489687757334532"
      ]
    },
    {
      "x": 123,
      "y": 354,
      "size": 1,
      "price": "1011000000000000000000",
      "reserved": "",
      "salt": "0x3d0c2e8aaa8a6daa7dd7fcb1a05817718cb44063d42ec24666848e1e7d8a20d4",
      "assetIds": []
    },
    {
      "x": 123,
      "y": 355,
      "size": 1,
      "price": "1011000000000000000000",
      "reserved": "",
      "salt": "0x0520a3cc3a24fb0cb1afcb1002a297cf31fcbb8004ae0542026c231cef1dae95",
      "assetIds": []
    },
    {
      "x": 123,
      "y": 356,
      "size": 1,
      "price": "1011000000000000000000",
      "reserved": "",
      "salt": "0xc6bc7743ddddf9816531286d6d9da14a3f545162110c62f099132c606e8a3000",
      "assetIds": []
    },
    {
      "x": 123,
      "y": 357,
      "size": 1,
      "price": "1011000000000000000000",
      "reserved": "",
      "salt": "0xa0f227f0c25edeba0f11065197381e802d040213af473fe85878749ab51c9d0c",
      "assetIds": []
    },
    {
      "x": 123,
      "y": 358,
      "size": 1,
      "price": "1011000000000000000000",
      "reserved": "0x7a9fe22691c811ea339d9b73150e6911a5343dca",
      "salt": "0x2037084b186aa3e0f9196d0c2cf1884b244394a5f2065637bdc8e9584579edce",
      "assetIds": []
    },
    {
      "x": 123,
      "y": 359,
      "size": 1,
      "price": "1011000000000000000000",
      "reserved": "",
      "salt": "0x6bd01a5357f70aa2658c68631fdc94d3ec89648f2fc6be32f5bdf2b553f5cca1",
      "assetIds": []
    },
    {
      "x": 123,
      "y": 366,
      "size": 1,
      "price": "1011000000000000000000",
      "reserved": "",
      "salt": "0xaebe0949b648c200a51e40cd6e4bb5a7cbb5079536f470a7337672665f34ceaf",
      "assetIds": []
    },
    {
      "x": 123,
      "y": 367,
      "size": 1,
      "price": "1011000000000000000000",
      "reserved": "",
      "salt": "0x7d18d03f7cbdfd144f736a1cda00f5e5dc6355869f429194be9d3e1903173718",
      "assetIds": []
    },
    {
      "x": 123,
      "y": 368,
      "size": 1,
      "price": "1011000000000000000000",
      "reserved": "",
      "salt": "0xeec29f06c67d44d6e9ba3ca5db931d917e29e5a80b8526ae4508a4bcacbcf3fd",
      "assetIds": []
    },
    {
      "x": 123,
      "y": 369,
      "size": 1,
      "price": "1011000000000000000000",
      "reserved": "",
      "salt": "0x76f43d77c03861f7f3676862bb912c72c61ee1c062fe4ed98ad1d70115a7d824",
      "assetIds": []
    },
    {
      "x": 123,
      "y": 370,
      "size": 1,
      "price": "1011000000000000000000",
      "reserved": "",
      "salt": "0xc9dcb1ff2f27b99eef4dc1c6ed482e16d1d304775cb22eb1cc898147a2f57f3b",
      "assetIds": []
    },
    {
      "x": 123,
      "y": 371,
      "size": 1,
      "price": "1011000000000000000000",
      "reserved": "",
      "salt": "0xfe70e534983cab8408e743c72b10c82fd06ba081fdf1a126288837f700ec4f47",
      "assetIds": []
    },
    {
      "x": 123,
      "y": 372,
      "size": 1,
      "price": "1011000000000000000000",
      "reserved": "0x7a9fe22691c811ea339d9b73150e6911a5343dca",
      "salt": "0xde97b1bd860162ae8537345862a33108fcda7765584b038f5502ad4db8c06300",
      "assetIds": []
    },
    {
      "x": 123,
      "y": 373,
      "size": 1,
      "price": "1011000000000000000000",
      "reserved": "0x7a9fe22691c811ea339d9b73150e6911a5343dca",
      "salt": "0x44df8668e37af8563209cb34146b18aec553c0f58be0ee242c39dd63a34dbf1e",
      "assetIds": []
    },
    {
      "x": 123,
      "y": 374,
      "size": 1,
      "price": "4683000000000000000000",
      "reserved": "",
      "salt": "0x811d165a264e95a708bee5ba2c457910bc1fb5248d19cdc4b2d2342d0775f782",
      "assetIds": [
        "55464657044963196816950587289035428064568320970692304673817341489687757334528",
        "55464657044963196816950587289035428064568320970692304673817341489687757334529",
        "55464657044963196816950587289035428064568320970692304673817341489687757334530",
        "55464657044963196816950587289035428064568320970692304673817341489687757334531",
        "55464657044963196816950587289035428064568320970692304673817341489687757334532"
      ]
    },
    {
      "x": 123,
      "y": 375,
      "size": 1,
      "price": "4683000000000000000000",
      "reserved": "",
      "salt": "0xd50df69520fec8784c83497ce0a6c79b8120194bd44b7e91891347b54eb659ed",
      "assetIds": [
        "55464657044963196816950587289035428064568320970692304673817341489687757334528",
        "55464657044963196816950587289035428064568320970692304673817341489687757334529",
        "55464657044963196816950587289035428064568320970692304673817341489687757334530",
        "55464657044963196816950587289035428064568320970692304673817341489687757334531",
        "55464657044963196816950587289035428064568320970692304673817341489687757334532"
      ]
    },
    {
      "x": 123,
      "y": 376,
      "size": 1,
      "price": "4683000000000000000000",
      "reserved": "",
      "salt": "0xf516f6f9b022665724a97ed4bfdb7c39c4e469e6a8cfaf6cef8b84c5ffa8c143",
      "assetIds": [
        "55464657044963196816950587289035428064568320970692304673817341489687757334528",
        "55464657044963196816950587289035428064568320970692304673817341489687757334529",
        "55464657044963196816950587289035428064568320970692304673817341489687757334530",
        "55464657044963196816950587289035428064568320970692304673817341489687757334531",
        "55464657044963196816950587289035428064568320970692304673817341489687757334532"
      ]
    },
    {
      "x": 123,
      "y": 377,
      "size": 1,
      "price": "4683000000000000000000",
      "reserved": "",
      "salt": "0xf33fdfd3bc298fe78d6c72429505d33d4f79bf3a74a45712c9d760c0d7d82807",
      "assetIds": [
        "55464657044963196816950587289035428064568320970692304673817341489687757334528",
        "55464657044963196816950587289035428064568320970692304673817341489687757334529",
        "55464657044963196816950587289035428064568320970692304673817341489687757334530",
        "55464657044963196816950587289035428064568320970692304673817341489687757334531",
        "55464657044963196816950587289035428064568320970692304673817341489687757334532"
      ]
    },
    {
      "x": 123,
      "y": 381,
      "size": 1,
      "price": "1011000000000000000000",
      "reserved": "",
      "salt": "0x9666334e8614e53fabcca2a6fba3508060bdeeb1c9496dcb1e458f6cfb5c8d7e",
      "assetIds": []
    },
    {
      "x": 123,
      "y": 382,
      "size": 1,
      "price": "1011000000000000000000",
      "reserved": "0x7a9fe22691c811ea339d9b73150e6911a5343dca",
      "salt": "0xcc26644ce1815d6bb7566e765236446ff1324e8cd467d45585ea3187c60d4302",
      "assetIds": []
    },
    {
      "x": 123,
      "y": 383,
      "size": 1,
      "price": "1011000000000000000000",
      "reserved": "",
      "salt": "0x7fe86df1b960466992e249078899df61ad82b58e68311599d2b6c9ab31ae25f9",
      "assetIds": []
    },
    {
      "x": 123,
      "y": 384,
      "size": 1,
      "price": "1011000000000000000000",
      "reserved": "0x7a9fe22691c811ea339d9b73150e6911a5343dca",
      "salt": "0x21f62fc6d0462bba17a3b6da815600d1879b8a1893ffeaf8624d50aedc043446",
      "assetIds": []
    },
    {
      "x": 123,
      "y": 385,
      "size": 1,
      "price": "4683000000000000000000",
      "reserved": "",
      "salt": "0xbcd5c836b5eedbac2ac07cc4a095e518d44842f37c69867a4bb32bc979661a9e",
      "assetIds": [
        "55464657044963196816950587289035428064568320970692304673817341489687757334528",
        "55464657044963196816950587289035428064568320970692304673817341489687757334529",
        "55464657044963196816950587289035428064568320970692304673817341489687757334530",
        "55464657044963196816950587289035428064568320970692304673817341489687757334531",
        "55464657044963196816950587289035428064568320970692304673817341489687757334532"
      ]
    },
    {
      "x": 123,
      "y": 386,
      "size": 1,
      "price": "4683000000000000000000",
      "reserved": "",
      "salt": "0x09495444ea82dc3dbe3627f43f6ea2de82c494c5659abec3356f4b5aeb1c9697",
      "assetIds": [
        "55464657044963196816950587289035428064568320970692304673817341489687757334528",
        "55464657044963196816950587289035428064568320970692304673817341489687757334529",
        "55464657044963196816950587289035428064568320970692304673817341489687757334530",
        "55464657044963196816950587289035428064568320970692304673817341489687757334531",
        "55464657044963196816950587289035428064568320970692304673817341489687757334532"
      ]
    },
    {
      "x": 123,
      "y": 387,
      "size": 1,
      "price": "4683000000000000000000",
      "reserved": "",
      "salt": "0x19da5bf0ecc70a41ddb39e5f151b53b66dd17c3817d919101e2ea001bb4422b5",
      "assetIds": [
        "55464657044963196816950587289035428064568320970692304673817341489687757334528",
        "55464657044963196816950587289035428064568320970692304673817341489687757334529",
        "55464657044963196816950587289035428064568320970692304673817341489687757334530",
        "55464657044963196816950587289035428064568320970692304673817341489687757334531",
        "55464657044963196816950587289035428064568320970692304673817341489687757334532"
      ]
    },
    {
      "x": 123,
      "y": 388,
      "size": 1,
      "price": "4683000000000000000000",
      "reserved": "",
      "salt": "0x88cc64204801323315f043d97cebf1a641e97a0c0dcd076b49082b1990364af4",
      "assetIds": [
        "55464657044963196816950587289035428064568320970692304673817341489687757334528",
        "55464657044963196816950587289035428064568320970692304673817341489687757334529",
        "55464657044963196816950587289035428064568320970692304673817341489687757334530",
        "55464657044963196816950587289035428064568320970692304673817341489687757334531",
        "55464657044963196816950587289035428064568320970692304673817341489687757334532"
      ]
    },
    {
      "x": 123,
      "y": 389,
      "size": 1,
      "price": "4683000000000000000000",
      "reserved": "",
      "salt": "0x65ee6145f258fe4b48b18318046027aa52ce2b8244e9b935ae9aee06bb7a77ce",
      "assetIds": [
        "55464657044963196816950587289035428064568320970692304673817341489687757334528",
        "55464657044963196816950587289035428064568320970692304673817341489687757334529",
        "55464657044963196816950587289035428064568320970692304673817341489687757334530",
        "55464657044963196816950587289035428064568320970692304673817341489687757334531",
        "55464657044963196816950587289035428064568320970692304673817341489687757334532"
      ]
    },
    {
      "x": 123,
      "y": 390,
      "size": 1,
      "price": "4683000000000000000000",
      "reserved": "",
      "salt": "0x7646623487b6da512dc2a01fbb9be7e86edfdfffbb88c7e252f424ee171ee5bd",
      "assetIds": [
        "55464657044963196816950587289035428064568320970692304673817341489687757334528",
        "55464657044963196816950587289035428064568320970692304673817341489687757334529",
        "55464657044963196816950587289035428064568320970692304673817341489687757334530",
        "55464657044963196816950587289035428064568320970692304673817341489687757334531",
        "55464657044963196816950587289035428064568320970692304673817341489687757334532"
      ]
    },
    {
      "x": 123,
      "y": 391,
      "size": 1,
      "price": "4683000000000000000000",
      "reserved": "",
      "salt": "0xe172fdb313e8d137572ab5d76b406585c9fd1f8249d807b9258793b8331fa7c0",
      "assetIds": [
        "55464657044963196816950587289035428064568320970692304673817341489687757334528",
        "55464657044963196816950587289035428064568320970692304673817341489687757334529",
        "55464657044963196816950587289035428064568320970692304673817341489687757334530",
        "55464657044963196816950587289035428064568320970692304673817341489687757334531",
        "55464657044963196816950587289035428064568320970692304673817341489687757334532"
      ]
    },
    {
      "x": 123,
      "y": 392,
      "size": 1,
      "price": "4683000000000000000000",
      "reserved": "",
      "salt": "0xc051db7b36fc689c40c449b94f64fa429cd7d72257ad59948ffe204cd3cd6454",
      "assetIds": [
        "55464657044963196816950587289035428064568320970692304673817341489687757334528",
        "55464657044963196816950587289035428064568320970692304673817341489687757334529",
        "55464657044963196816950587289035428064568320970692304673817341489687757334530",
        "55464657044963196816950587289035428064568320970692304673817341489687757334531",
        "55464657044963196816950587289035428064568320970692304673817341489687757334532"
      ]
    },
    {
      "x": 123,
      "y": 393,
      "size": 1,
      "price": "4683000000000000000000",
      "reserved": "",
      "salt": "0x5c8d5a12adb7370199c344ac65f2bfe84800b7369370a473c386129d735f1a44",
      "assetIds": [
        "55464657044963196816950587289035428064568320970692304673817341489687757334528",
        "55464657044963196816950587289035428064568320970692304673817341489687757334529",
        "55464657044963196816950587289035428064568320970692304673817341489687757334530",
        "55464657044963196816950587289035428064568320970692304673817341489687757334531",
        "55464657044963196816950587289035428064568320970692304673817341489687757334532"
      ]
    },
    {
      "x": 123,
      "y": 394,
      "size": 1,
      "price": "4683000000000000000000",
      "reserved": "",
      "salt": "0xe6644ac220f69db854f22a30e26bf18598f846fa0bfe785eef0b8c3e7c656d03",
      "assetIds": [
        "55464657044963196816950587289035428064568320970692304673817341489687757334528",
        "55464657044963196816950587289035428064568320970692304673817341489687757334529",
        "55464657044963196816950587289035428064568320970692304673817341489687757334530",
        "55464657044963196816950587289035428064568320970692304673817341489687757334531",
        "55464657044963196816950587289035428064568320970692304673817341489687757334532"
      ]
    },
    {
      "x": 123,
      "y": 395,
      "size": 1,
      "price": "4683000000000000000000",
      "reserved": "",
      "salt": "0x9c8eb590fd7f0e70205680dc990b0674239bf92981a17e86245e9f5b79e9ef6c",
      "assetIds": [
        "55464657044963196816950587289035428064568320970692304673817341489687757334528",
        "55464657044963196816950587289035428064568320970692304673817341489687757334529",
        "55464657044963196816950587289035428064568320970692304673817341489687757334530",
        "55464657044963196816950587289035428064568320970692304673817341489687757334531",
        "55464657044963196816950587289035428064568320970692304673817341489687757334532"
      ]
    },
    {
      "x": 124,
      "y": 354,
      "size": 1,
      "price": "1011000000000000000000",
      "reserved": "",
      "salt": "0xcef602c2e0b3f90fd25f2aa32537bd8fa1ec5a3538698e92a25253dbf63acd28",
      "assetIds": []
    },
    {
      "x": 124,
      "y": 355,
      "size": 1,
      "price": "1011000000000000000000",
      "reserved": "",
      "salt": "0x4e3d2719fae8232acba6724bd2c2edab92808fddb83ec8d9151aff824ef4f8e8",
      "assetIds": []
    },
    {
      "x": 124,
      "y": 356,
      "size": 1,
      "price": "1011000000000000000000",
      "reserved": "",
      "salt": "0xeef05011c6a4daf464fd5cdcace9bfc793361e3588f3ce8729ee745942a9756b",
      "assetIds": []
    },
    {
      "x": 124,
      "y": 357,
      "size": 1,
      "price": "1011000000000000000000",
      "reserved": "",
      "salt": "0x4315681cc353111968bd58daa6abd41ef7064f0362ccea395215d318b4ce5e4c",
      "assetIds": []
    },
    {
      "x": 124,
      "y": 358,
      "size": 1,
      "price": "1011000000000000000000",
      "reserved": "",
      "salt": "0x6d03d5e5577122170f46e3f5dcad2506072c263490de734cfd29cc3819b52d28",
      "assetIds": []
    },
    {
      "x": 124,
      "y": 359,
      "size": 1,
      "price": "1011000000000000000000",
      "reserved": "",
      "salt": "0xb38f500c2ec395d248642d3d27610631e57105b06c0a0407ef67f757e8796f24",
      "assetIds": []
    },
    {
      "x": 124,
      "y": 366,
      "size": 1,
      "price": "1011000000000000000000",
      "reserved": "",
      "salt": "0x9432f0fe05a3e6e00c670a0c20c75629440c802394928d08cc607a00d5857863",
      "assetIds": []
    },
    {
      "x": 124,
      "y": 367,
      "size": 1,
      "price": "1011000000000000000000",
      "reserved": "",
      "salt": "0x3fbe927a64e4b39512c146232655ec6dac42bc8d835e0c8231ce3a624e78eb98",
      "assetIds": []
    },
    {
      "x": 124,
      "y": 368,
      "size": 1,
      "price": "1011000000000000000000",
      "reserved": "0x7a9fe22691c811ea339d9b73150e6911a5343dca",
      "salt": "0x89731dd132617e12321c0fbe2b08bf49c9f916df4d1d5894a79bf4d93769a15b",
      "assetIds": []
    },
    {
      "x": 124,
      "y": 369,
      "size": 1,
      "price": "1011000000000000000000",
      "reserved": "",
      "salt": "0xf9b7211a7f7ad637fc6cb3f123adc1ce34a91465de42385631a1bb71e82535c8",
      "assetIds": []
    },
    {
      "x": 124,
      "y": 370,
      "size": 1,
      "price": "1011000000000000000000",
      "reserved": "0x7a9fe22691c811ea339d9b73150e6911a5343dca",
      "salt": "0xe3a6fc528a9da2a9e5a9e61b222f8316ada5ee4396abb91db3e116348bac84fa",
      "assetIds": []
    },
    {
      "x": 124,
      "y": 371,
      "size": 1,
      "price": "1011000000000000000000",
      "reserved": "",
      "salt": "0x0de155b9588e4568bd18bed5e1cc53c9783ef02bdd9e5f4c0b084938c3e5821c",
      "assetIds": []
    },
    {
      "x": 124,
      "y": 372,
      "size": 1,
      "price": "1011000000000000000000",
      "reserved": "",
      "salt": "0x9f8463dec9c46a876732ab517bc5449a548854d67358187cfb66cd2e2050edc8",
      "assetIds": []
    },
    {
      "x": 124,
      "y": 373,
      "size": 1,
      "price": "1011000000000000000000",
      "reserved": "",
      "salt": "0x7faee7f1cc8749f59b47c5648ed113bcb43126e60e37ab71f4422d975061dc1d",
      "assetIds": []
    },
    {
      "x": 124,
      "y": 374,
      "size": 1,
      "price": "1011000000000000000000",
      "reserved": "0x7a9fe22691c811ea339d9b73150e6911a5343dca",
      "salt": "0xab0c33bdd229c36b68963d166e244eafe3126fa4d26cf88a5a06e343237a952e",
      "assetIds": []
    },
    {
      "x": 124,
      "y": 375,
      "size": 1,
      "price": "1011000000000000000000",
      "reserved": "0x7a9fe22691c811ea339d9b73150e6911a5343dca",
      "salt": "0xead7be4862093efd5d47223f647b64a4cf541af4b857930c41d956524fff9cf9",
      "assetIds": []
    },
    {
      "x": 124,
      "y": 376,
      "size": 1,
      "price": "1011000000000000000000",
      "reserved": "",
      "salt": "0xd5656f149c65b40762c5589c753732a5a90e7627ba249cf547dc2dadb9deadf4",
      "assetIds": []
    },
    {
      "x": 124,
      "y": 377,
      "size": 1,
      "price": "1011000000000000000000",
      "reserved": "0x7a9fe22691c811ea339d9b73150e6911a5343dca",
      "salt": "0xa43691197930317f7190bb0e7ab11d31fc4556c3a9736ccc34503a771e5b1be6",
      "assetIds": []
    },
    {
      "x": 124,
      "y": 381,
      "size": 1,
      "price": "1011000000000000000000",
      "reserved": "",
      "salt": "0x5e757140d720938e5c70a8b1b199857c81e65903a24ec58e2262be65c4f0aa15",
      "assetIds": []
    },
    {
      "x": 124,
      "y": 382,
      "size": 1,
      "price": "1011000000000000000000",
      "reserved": "",
      "salt": "0x1a1d937c495553c269a2ba20d59b5c833b1b5f0fef4154cb39d05cb692a69bbd",
      "assetIds": []
    },
    {
      "x": 124,
      "y": 383,
      "size": 1,
      "price": "1011000000000000000000",
      "reserved": "",
      "salt": "0x63aabf05272d78a9d10e8d4d4756d32d46505361fdb17b60637b530f98ca5b35",
      "assetIds": []
    },
    {
      "x": 124,
      "y": 384,
      "size": 1,
      "price": "1011000000000000000000",
      "reserved": "",
      "salt": "0xed554a6ecd1fd76dea66de8159b7e0e1e10eaffc4fd850de8ead5bd3861eee6c",
      "assetIds": []
    },
    {
      "x": 124,
      "y": 385,
      "size": 1,
      "price": "4683000000000000000000",
      "reserved": "",
      "salt": "0xd7b61be496690ecea74bb503db1f74ad2c8c5aec36263a72ee8feccd939fc640",
      "assetIds": [
        "55464657044963196816950587289035428064568320970692304673817341489687757334528",
        "55464657044963196816950587289035428064568320970692304673817341489687757334529",
        "55464657044963196816950587289035428064568320970692304673817341489687757334530",
        "55464657044963196816950587289035428064568320970692304673817341489687757334531",
        "55464657044963196816950587289035428064568320970692304673817341489687757334532"
      ]
    },
    {
      "x": 124,
      "y": 386,
      "size": 1,
      "price": "4683000000000000000000",
      "reserved": "",
      "salt": "0xa34cbf7d226c7bc72e93d6db63a3aa02b0266541b1402005df23e662b42b46a9",
      "assetIds": [
        "55464657044963196816950587289035428064568320970692304673817341489687757334528",
        "55464657044963196816950587289035428064568320970692304673817341489687757334529",
        "55464657044963196816950587289035428064568320970692304673817341489687757334530",
        "55464657044963196816950587289035428064568320970692304673817341489687757334531",
        "55464657044963196816950587289035428064568320970692304673817341489687757334532"
      ]
    },
    {
      "x": 124,
      "y": 387,
      "size": 1,
      "price": "1011000000000000000000",
      "reserved": "",
      "salt": "0xc5edc01fde5dcd3cf8953bb167d5f6787f67236826633e47b3e945d1aa27e811",
      "assetIds": []
    },
    {
      "x": 124,
      "y": 388,
      "size": 1,
      "price": "4683000000000000000000",
      "reserved": "",
      "salt": "0xa6a9cfa4759578fc581a5d80adab6c12a95cc7596480d0d73cc5c0bec877e318",
      "assetIds": [
        "55464657044963196816950587289035428064568320970692304673817341489687757334528",
        "55464657044963196816950587289035428064568320970692304673817341489687757334529",
        "55464657044963196816950587289035428064568320970692304673817341489687757334530",
        "55464657044963196816950587289035428064568320970692304673817341489687757334531",
        "55464657044963196816950587289035428064568320970692304673817341489687757334532"
      ]
    },
    {
      "x": 124,
      "y": 389,
      "size": 1,
      "price": "1011000000000000000000",
      "reserved": "",
      "salt": "0x52b4ebd91ff86a692adaf19e8e06b7e1a6e50e4b49e67aec8ead5395e95084e3",
      "assetIds": []
    },
    {
      "x": 124,
      "y": 390,
      "size": 1,
      "price": "1011000000000000000000",
      "reserved": "",
      "salt": "0xa46bbcccafc977c8d44628e80466992901b90241fd6a312a9add8dd0ec010938",
      "assetIds": []
    },
    {
      "x": 124,
      "y": 391,
      "size": 1,
      "price": "1011000000000000000000",
      "reserved": "0x7a9fe22691c811ea339d9b73150e6911a5343dca",
      "salt": "0xdec8b5e5dfbecf385a390a8303eaec6009c17492a61595d59a6c713f4548f6ac",
      "assetIds": []
    },
    {
      "x": 124,
      "y": 392,
      "size": 1,
      "price": "1011000000000000000000",
      "reserved": "",
      "salt": "0x29cd8dba1ef287d41f4c87330ded27872f5280c9b14b094ac60014acdbc0ea59",
      "assetIds": []
    },
    {
      "x": 124,
      "y": 393,
      "size": 1,
      "price": "4683000000000000000000",
      "reserved": "",
      "salt": "0x773295dd44af21bb3428e8539fbc63277df07e329de42a3d38380d8b58280732",
      "assetIds": [
        "55464657044963196816950587289035428064568320970692304673817341489687757334528",
        "55464657044963196816950587289035428064568320970692304673817341489687757334529",
        "55464657044963196816950587289035428064568320970692304673817341489687757334530",
        "55464657044963196816950587289035428064568320970692304673817341489687757334531",
        "55464657044963196816950587289035428064568320970692304673817341489687757334532"
      ]
    },
    {
      "x": 124,
      "y": 394,
      "size": 1,
      "price": "4683000000000000000000",
      "reserved": "",
      "salt": "0x1a5cdb5f4e647a2c3b8bfae879dfede7bf8875d79ef706f59366911dfe576997",
      "assetIds": [
        "55464657044963196816950587289035428064568320970692304673817341489687757334528",
        "55464657044963196816950587289035428064568320970692304673817341489687757334529",
        "55464657044963196816950587289035428064568320970692304673817341489687757334530",
        "55464657044963196816950587289035428064568320970692304673817341489687757334531",
        "55464657044963196816950587289035428064568320970692304673817341489687757334532"
      ]
    },
    {
      "x": 124,
      "y": 395,
      "size": 1,
      "price": "4683000000000000000000",
      "reserved": "",
      "salt": "0x6aa0fee1402858496e00a8f794028e190ef431bb6f2b39ad4bfbd17c025f58bc",
      "assetIds": [
        "55464657044963196816950587289035428064568320970692304673817341489687757334528",
        "55464657044963196816950587289035428064568320970692304673817341489687757334529",
        "55464657044963196816950587289035428064568320970692304673817341489687757334530",
        "55464657044963196816950587289035428064568320970692304673817341489687757334531",
        "55464657044963196816950587289035428064568320970692304673817341489687757334532"
      ]
    },
    {
      "x": 125,
      "y": 354,
      "size": 1,
      "price": "1011000000000000000000",
      "reserved": "",
      "salt": "0x7610b6638e75ad89a809425ba05cb52b1849d985addcd62c4785fa29805ba4b8",
      "assetIds": []
    },
    {
      "x": 125,
      "y": 355,
      "size": 1,
      "price": "1011000000000000000000",
      "reserved": "",
      "salt": "0x14763d1077832bc9b4f436aca5043a7c9faf6d45d45f0c398941b99a0c9b55e9",
      "assetIds": []
    },
    {
      "x": 125,
      "y": 356,
      "size": 1,
      "price": "1011000000000000000000",
      "reserved": "",
      "salt": "0xf408d80a9d6865228fb685f30ccf70bcd14e9e4e5f6ff664d81a359f7933cc12",
      "assetIds": []
    },
    {
      "x": 125,
      "y": 357,
      "size": 1,
      "price": "1011000000000000000000",
      "reserved": "",
      "salt": "0x8a7d342329c3af529c7d18b3a7267b2ceebae8bbbc7fbbf3f14a89c10b4423a1",
      "assetIds": []
    },
    {
      "x": 125,
      "y": 358,
      "size": 1,
      "price": "1011000000000000000000",
      "reserved": "",
      "salt": "0x5ea455e2211f37a9667c8252f97f41cc0217ba43eb7e4664ff766b5540bc289f",
      "assetIds": []
    },
    {
      "x": 125,
      "y": 359,
      "size": 1,
      "price": "1011000000000000000000",
      "reserved": "",
      "salt": "0xea66ad674c7b64993d032cf0efba7b7dd9052b4f8b1167956be66c0ad828f114",
      "assetIds": []
    },
    {
      "x": 125,
      "y": 366,
      "size": 1,
      "price": "1011000000000000000000",
      "reserved": "",
      "salt": "0x18064bf30bd6d7cd6a4869ed14d3ab59040bca4400d284e3cc82a291617607c4",
      "assetIds": []
    },
    {
      "x": 125,
      "y": 367,
      "size": 1,
      "price": "1011000000000000000000",
      "reserved": "",
      "salt": "0x7c9079b96ea7274954adf9f5b43ebb6d094d185894aba59e5aadb0e0935d521a",
      "assetIds": []
    },
    {
      "x": 125,
      "y": 368,
      "size": 1,
      "price": "1011000000000000000000",
      "reserved": "",
      "salt": "0x92e2996b1d04b154289ea5a655f834ce7f6634bad9e3c456e6566fc42fe6a390",
      "assetIds": []
    },
    {
      "x": 125,
      "y": 369,
      "size": 1,
      "price": "1011000000000000000000",
      "reserved": "",
      "salt": "0xc46f14b0ffcde7f20a97ba59da5f4dbe9c4a6655ea86352fca7b4a5e7117aa57",
      "assetIds": []
    },
    {
      "x": 125,
      "y": 370,
      "size": 1,
      "price": "1011000000000000000000",
      "reserved": "",
      "salt": "0x78aefb67486da7009704b856257de198d379648827ba464cf8b2064b7309fa80",
      "assetIds": []
    },
    {
      "x": 125,
      "y": 371,
      "size": 1,
      "price": "4683000000000000000000",
      "reserved": "",
      "salt": "0x70fec0713025f896e823006d4dd3aa03ad5177b4f60494b72177d6feeaf0922a",
      "assetIds": [
        "55464657044963196816950587289035428064568320970692304673817341489687757334528",
        "55464657044963196816950587289035428064568320970692304673817341489687757334529",
        "55464657044963196816950587289035428064568320970692304673817341489687757334530",
        "55464657044963196816950587289035428064568320970692304673817341489687757334531",
        "55464657044963196816950587289035428064568320970692304673817341489687757334532"
      ]
    },
    {
      "x": 125,
      "y": 372,
      "size": 1,
      "price": "4683000000000000000000",
      "reserved": "",
      "salt": "0x0662c1fffe8554064f32f59324694d0a885a0b6e82eabe4a7bd8240082c192ff",
      "assetIds": [
        "55464657044963196816950587289035428064568320970692304673817341489687757334528",
        "55464657044963196816950587289035428064568320970692304673817341489687757334529",
        "55464657044963196816950587289035428064568320970692304673817341489687757334530",
        "55464657044963196816950587289035428064568320970692304673817341489687757334531",
        "55464657044963196816950587289035428064568320970692304673817341489687757334532"
      ]
    },
    {
      "x": 125,
      "y": 373,
      "size": 1,
      "price": "4683000000000000000000",
      "reserved": "",
      "salt": "0x00885fc75c952bb8c3fd53356818b5c6ea5c04f1202bded0eef9a815fac82e83",
      "assetIds": [
        "55464657044963196816950587289035428064568320970692304673817341489687757334528",
        "55464657044963196816950587289035428064568320970692304673817341489687757334529",
        "55464657044963196816950587289035428064568320970692304673817341489687757334530",
        "55464657044963196816950587289035428064568320970692304673817341489687757334531",
        "55464657044963196816950587289035428064568320970692304673817341489687757334532"
      ]
    },
    {
      "x": 125,
      "y": 374,
      "size": 1,
      "price": "4683000000000000000000",
      "reserved": "",
      "salt": "0xa48962f48047fe79cffc8f2ff126b4f8b274723a6adc87794052df51c6347ad3",
      "assetIds": [
        "55464657044963196816950587289035428064568320970692304673817341489687757334528",
        "55464657044963196816950587289035428064568320970692304673817341489687757334529",
        "55464657044963196816950587289035428064568320970692304673817341489687757334530",
        "55464657044963196816950587289035428064568320970692304673817341489687757334531",
        "55464657044963196816950587289035428064568320970692304673817341489687757334532"
      ]
    },
    {
      "x": 125,
      "y": 375,
      "size": 1,
      "price": "4683000000000000000000",
      "reserved": "",
      "salt": "0xd3e85a84dc7048ee1b50942c5d1e09e95f89e7e36fda97611e2c942273fb529b",
      "assetIds": [
        "55464657044963196816950587289035428064568320970692304673817341489687757334528",
        "55464657044963196816950587289035428064568320970692304673817341489687757334529",
        "55464657044963196816950587289035428064568320970692304673817341489687757334530",
        "55464657044963196816950587289035428064568320970692304673817341489687757334531",
        "55464657044963196816950587289035428064568320970692304673817341489687757334532"
      ]
    },
    {
      "x": 125,
      "y": 376,
      "size": 1,
      "price": "4683000000000000000000",
      "reserved": "",
      "salt": "0x2b10bf95bbb5491e933bc6db27aa31cd1db310dc7ede10a70f8bd3c11cc099f3",
      "assetIds": [
        "55464657044963196816950587289035428064568320970692304673817341489687757334528",
        "55464657044963196816950587289035428064568320970692304673817341489687757334529",
        "55464657044963196816950587289035428064568320970692304673817341489687757334530",
        "55464657044963196816950587289035428064568320970692304673817341489687757334531",
        "55464657044963196816950587289035428064568320970692304673817341489687757334532"
      ]
    },
    {
      "x": 125,
      "y": 377,
      "size": 1,
      "price": "4683000000000000000000",
      "reserved": "",
      "salt": "0x46d4e2f7fc6a8ad638d88338e3d8a184c48709f650e096be9a84db4164a74a9f",
      "assetIds": [
        "55464657044963196816950587289035428064568320970692304673817341489687757334528",
        "55464657044963196816950587289035428064568320970692304673817341489687757334529",
        "55464657044963196816950587289035428064568320970692304673817341489687757334530",
        "55464657044963196816950587289035428064568320970692304673817341489687757334531",
        "55464657044963196816950587289035428064568320970692304673817341489687757334532"
      ]
    },
    {
      "x": 125,
      "y": 381,
      "size": 1,
      "price": "1011000000000000000000",
      "reserved": "",
      "salt": "0x62bef777b2f0627deb4d36cacbee583cdeb910246504d4417847f2152db1e19b",
      "assetIds": []
    },
    {
      "x": 125,
      "y": 382,
      "size": 1,
      "price": "1011000000000000000000",
      "reserved": "0x7a9fe22691c811ea339d9b73150e6911a5343dca",
      "salt": "0xd2873f1e53f2d535a6cb1f64b0a20a9517c738c2686b54baea7a3980aa5392e7",
      "assetIds": []
    },
    {
      "x": 125,
      "y": 383,
      "size": 1,
      "price": "4683000000000000000000",
      "reserved": "",
      "salt": "0x51294eee9c7b68cbd7e932ca45fbb36c7640a6b898414e7d8403fa074de5d67e",
      "assetIds": [
        "55464657044963196816950587289035428064568320970692304673817341489687757334528",
        "55464657044963196816950587289035428064568320970692304673817341489687757334529",
        "55464657044963196816950587289035428064568320970692304673817341489687757334530",
        "55464657044963196816950587289035428064568320970692304673817341489687757334531",
        "55464657044963196816950587289035428064568320970692304673817341489687757334532"
      ]
    },
    {
      "x": 125,
      "y": 384,
      "size": 1,
      "price": "4683000000000000000000",
      "reserved": "",
      "salt": "0xfa47205a73197f3a4b1e760e729531b547c720bc2ae435ad216e510a12bc62c4",
      "assetIds": [
        "55464657044963196816950587289035428064568320970692304673817341489687757334528",
        "55464657044963196816950587289035428064568320970692304673817341489687757334529",
        "55464657044963196816950587289035428064568320970692304673817341489687757334530",
        "55464657044963196816950587289035428064568320970692304673817341489687757334531",
        "55464657044963196816950587289035428064568320970692304673817341489687757334532"
      ]
    },
    {
      "x": 125,
      "y": 385,
      "size": 1,
      "price": "4683000000000000000000",
      "reserved": "",
      "salt": "0xed2faef3c3cbb3251c043bbcc54ce131f6ee820438d1fe00fbbaa41b04be8416",
      "assetIds": [
        "55464657044963196816950587289035428064568320970692304673817341489687757334528",
        "55464657044963196816950587289035428064568320970692304673817341489687757334529",
        "55464657044963196816950587289035428064568320970692304673817341489687757334530",
        "55464657044963196816950587289035428064568320970692304673817341489687757334531",
        "55464657044963196816950587289035428064568320970692304673817341489687757334532"
      ]
    },
    {
      "x": 125,
      "y": 386,
      "size": 1,
      "price": "4683000000000000000000",
      "reserved": "",
      "salt": "0x33854389e6b8055e572cab378072a737e316f2a96e68b7039fddb51238d955ae",
      "assetIds": [
        "55464657044963196816950587289035428064568320970692304673817341489687757334528",
        "55464657044963196816950587289035428064568320970692304673817341489687757334529",
        "55464657044963196816950587289035428064568320970692304673817341489687757334530",
        "55464657044963196816950587289035428064568320970692304673817341489687757334531",
        "55464657044963196816950587289035428064568320970692304673817341489687757334532"
      ]
    },
    {
      "x": 125,
      "y": 387,
      "size": 1,
      "price": "4683000000000000000000",
      "reserved": "",
      "salt": "0x8a149d13649921243efbe14d897a49e1fe136458da6da4a22fa5329f73a15052",
      "assetIds": [
        "55464657044963196816950587289035428064568320970692304673817341489687757334528",
        "55464657044963196816950587289035428064568320970692304673817341489687757334529",
        "55464657044963196816950587289035428064568320970692304673817341489687757334530",
        "55464657044963196816950587289035428064568320970692304673817341489687757334531",
        "55464657044963196816950587289035428064568320970692304673817341489687757334532"
      ]
    },
    {
      "x": 125,
      "y": 388,
      "size": 1,
      "price": "4683000000000000000000",
      "reserved": "",
      "salt": "0x3f8cfbfd608806c4a5c317f0ed614af3a148a4bb7255da05994a179becce94a2",
      "assetIds": [
        "55464657044963196816950587289035428064568320970692304673817341489687757334528",
        "55464657044963196816950587289035428064568320970692304673817341489687757334529",
        "55464657044963196816950587289035428064568320970692304673817341489687757334530",
        "55464657044963196816950587289035428064568320970692304673817341489687757334531",
        "55464657044963196816950587289035428064568320970692304673817341489687757334532"
      ]
    },
    {
      "x": 125,
      "y": 389,
      "size": 1,
      "price": "4683000000000000000000",
      "reserved": "",
      "salt": "0x4868f66029d881cbd93cc83bdbc1a95de299ac4320f6889e1c6f7655647bb79c",
      "assetIds": [
        "55464657044963196816950587289035428064568320970692304673817341489687757334528",
        "55464657044963196816950587289035428064568320970692304673817341489687757334529",
        "55464657044963196816950587289035428064568320970692304673817341489687757334530",
        "55464657044963196816950587289035428064568320970692304673817341489687757334531",
        "55464657044963196816950587289035428064568320970692304673817341489687757334532"
      ]
    },
    {
      "x": 125,
      "y": 390,
      "size": 1,
      "price": "1011000000000000000000",
      "reserved": "",
      "salt": "0x98fcd5cff4554df4500bd6981f32fb99f70793ab403b014db176aa3c7054a3c0",
      "assetIds": []
    },
    {
      "x": 125,
      "y": 391,
      "size": 1,
      "price": "1011000000000000000000",
      "reserved": "",
      "salt": "0xd0fab0a68797e59714c066bf60733c39e2b9475c515494e42dc1262f2d6e05c6",
      "assetIds": []
    },
    {
      "x": 125,
      "y": 392,
      "size": 1,
      "price": "1011000000000000000000",
      "reserved": "",
      "salt": "0xbc0403c760c97f84974b3fe7ccc56c3bc2308ba9b9030894d87a60d4b810fc23",
      "assetIds": []
    },
    {
      "x": 125,
      "y": 393,
      "size": 1,
      "price": "1011000000000000000000",
      "reserved": "",
      "salt": "0x95bab24ed131f7f3e833a8f77fe3b3b956ea0041abe59e1058b0ac6b69fc0359",
      "assetIds": []
    },
    {
      "x": 125,
      "y": 394,
      "size": 1,
      "price": "1011000000000000000000",
      "reserved": "",
      "salt": "0x1f6f62b36478866152c8249cca5c8ca298425b3bf4645ab8f73a4a70467310ce",
      "assetIds": []
    },
    {
      "x": 125,
      "y": 395,
      "size": 1,
      "price": "1011000000000000000000",
      "reserved": "",
      "salt": "0x250678e53fa4e6cf219651efaf17cc2d5994733b1f2fa082e35c4d425d03246c",
      "assetIds": []
    },
    {
      "x": 126,
      "y": 348,
      "size": 1,
      "price": "1011000000000000000000",
      "reserved": "",
      "salt": "0xb7907f40f12b6c189cfcc4c012a1f598d96a3e9bfce27ee4ca1e0a0bbd173f19",
      "assetIds": []
    },
    {
      "x": 126,
      "y": 349,
      "size": 1,
      "price": "1011000000000000000000",
      "reserved": "",
      "salt": "0xd6ebbf9024d0a12d3b366de4007ca92fe9b92658cb92d6fa555ff1f8ce275203",
      "assetIds": []
    },
    {
      "x": 126,
      "y": 350,
      "size": 1,
      "price": "1011000000000000000000",
      "reserved": "",
      "salt": "0x2d807440c0cd73f5d74fbae51d044a45ba82f355f0e8b45d86ab8844e1836c2c",
      "assetIds": []
    },
    {
      "x": 126,
      "y": 351,
      "size": 1,
      "price": "1011000000000000000000",
      "reserved": "",
      "salt": "0x66f0b2b529908aa1fedd8632b1958c65960bfa5e03474cf824a651c1d1e2208d",
      "assetIds": []
    },
    {
      "x": 126,
      "y": 352,
      "size": 1,
      "price": "1011000000000000000000",
      "reserved": "",
      "salt": "0x4666eb6601d8982cca2d6f8db57a559f34d942e3e954d48a3c035686e0696752",
      "assetIds": []
    },
    {
      "x": 126,
      "y": 353,
      "size": 1,
      "price": "1011000000000000000000",
      "reserved": "",
      "salt": "0xbab95a39c108308143a2aaced57452aa916c28177c7a181d24ce5431135132a6",
      "assetIds": []
    },
    {
      "x": 126,
      "y": 354,
      "size": 1,
      "price": "1011000000000000000000",
      "reserved": "",
      "salt": "0x3e37ca9450bfab532f4109427855e6dbcbfbf51a16701cec658390f017d868d6",
      "assetIds": []
    },
    {
      "x": 126,
      "y": 355,
      "size": 1,
      "price": "1011000000000000000000",
      "reserved": "",
      "salt": "0x837523ede7aff1cffc95ebecdc25358308e56d38ed25e502fb1d076b20072c0e",
      "assetIds": []
    },
    {
      "x": 126,
      "y": 356,
      "size": 1,
      "price": "1011000000000000000000",
      "reserved": "",
      "salt": "0xd5e5d60f9f20cbf786154ac76a0c276d00336a7073650ba3f1b352cea52ec608",
      "assetIds": []
    },
    {
      "x": 126,
      "y": 360,
      "size": 1,
      "price": "1011000000000000000000",
      "reserved": "0x7a9fe22691c811ea339d9b73150e6911a5343dca",
      "salt": "0xc3e78d6d06026cdcd5851d1344db0f1c4e13c43e6eed313695c616a2e0a9bbdf",
      "assetIds": []
    },
    {
      "x": 126,
      "y": 361,
      "size": 1,
      "price": "1011000000000000000000",
      "reserved": "",
      "salt": "0x56425facb579c9b67885475aab9995fbfe80aa87ffb1259cdd7ea1277e3a1c4f",
      "assetIds": []
    },
    {
      "x": 126,
      "y": 362,
      "size": 1,
      "price": "1011000000000000000000",
      "reserved": "",
      "salt": "0x6105ccb527eb8cf74b05206e1a223aa6b5f557866628a0ecad5f53ae4bcf3725",
      "assetIds": []
    },
    {
      "x": 126,
      "y": 363,
      "size": 1,
      "price": "1011000000000000000000",
      "reserved": "",
      "salt": "0x75b2be75aa88fd8f6cca3d4ac11edfca8de0d95b0f576b69a693b1a5029aaba3",
      "assetIds": []
    },
    {
      "x": 126,
      "y": 364,
      "size": 1,
      "price": "1011000000000000000000",
      "reserved": "",
      "salt": "0x139be4eafb5102b0c6c753b6761ffbb5c9e85a920ecaff7a56995aa4842e9312",
      "assetIds": []
    },
    {
      "x": 126,
      "y": 365,
      "size": 1,
      "price": "1011000000000000000000",
      "reserved": "",
      "salt": "0xf0a41f1618b62464ea08a3e504c93938bc1901399e12ab756a317b31ee322be6",
      "assetIds": []
    },
    {
      "x": 126,
      "y": 366,
      "size": 1,
      "price": "1011000000000000000000",
      "reserved": "",
      "salt": "0x0ffb8a369703b19cc68b9a281b95c9839ec0fcffafb78a262dea477151023c49",
      "assetIds": []
    },
    {
      "x": 126,
      "y": 367,
      "size": 1,
      "price": "1011000000000000000000",
      "reserved": "",
      "salt": "0xd51fcb27b455202db6ae5dbfbd75950ecf9d67616fc1d22223e4f9d1f20cf7e0",
      "assetIds": []
    },
    {
      "x": 126,
      "y": 368,
      "size": 1,
      "price": "1011000000000000000000",
      "reserved": "",
      "salt": "0xcd96a8b75ff3d43e59f10e9fd58fb2f2849fa1ebbc6a582af86ccd35b22e8899",
      "assetIds": []
    },
    {
      "x": 126,
      "y": 369,
      "size": 1,
      "price": "1011000000000000000000",
      "reserved": "",
      "salt": "0xa714827e7f615bf87ac8efdcd72d7c565eec335dfaef9f898f25c62474dd7bca",
      "assetIds": []
    },
    {
      "x": 126,
      "y": 370,
      "size": 1,
      "price": "1011000000000000000000",
      "reserved": "",
      "salt": "0x999022b76bba96f81fc2e604c85000e1b6c6b907d8ec15b0a8bfd6f60af68888",
      "assetIds": []
    },
    {
      "x": 126,
      "y": 371,
      "size": 1,
      "price": "4683000000000000000000",
      "reserved": "",
      "salt": "0xf367a3ff3007e4ec34a306811453156458b1ee0bacc1e7e0b2b73daaa21f535e",
      "assetIds": [
        "55464657044963196816950587289035428064568320970692304673817341489687757334528",
        "55464657044963196816950587289035428064568320970692304673817341489687757334529",
        "55464657044963196816950587289035428064568320970692304673817341489687757334530",
        "55464657044963196816950587289035428064568320970692304673817341489687757334531",
        "55464657044963196816950587289035428064568320970692304673817341489687757334532"
      ]
    },
    {
      "x": 126,
      "y": 378,
      "size": 1,
      "price": "4683000000000000000000",
      "reserved": "",
      "salt": "0x8fef96f8fd7d25d34c55bb183dfb986e7c0f6d56c9692d8d4faaaaf3ed887337",
      "assetIds": [
        "55464657044963196816950587289035428064568320970692304673817341489687757334528",
        "55464657044963196816950587289035428064568320970692304673817341489687757334529",
        "55464657044963196816950587289035428064568320970692304673817341489687757334530",
        "55464657044963196816950587289035428064568320970692304673817341489687757334531",
        "55464657044963196816950587289035428064568320970692304673817341489687757334532"
      ]
    },
    {
      "x": 126,
      "y": 379,
      "size": 1,
      "price": "1011000000000000000000",
      "reserved": "",
      "salt": "0xa6a1a28f8f1ed5782b1583a0f0efb9e04a28a310c97057e1ee7be5080c176480",
      "assetIds": []
    },
    {
      "x": 126,
      "y": 380,
      "size": 1,
      "price": "1011000000000000000000",
      "reserved": "0x7a9fe22691c811ea339d9b73150e6911a5343dca",
      "salt": "0x3432ceab04c2e01b7f4f10c81cc554f6bfa1a106f4c090412e7260003b7770f9",
      "assetIds": []
    },
    {
      "x": 126,
      "y": 381,
      "size": 1,
      "price": "1011000000000000000000",
      "reserved": "",
      "salt": "0x34a88922677578310918920ad3b156909364ae804f7047f2206f204aa5c5da1d",
      "assetIds": []
    },
    {
      "x": 126,
      "y": 382,
      "size": 1,
      "price": "1011000000000000000000",
      "reserved": "",
      "salt": "0xa9a52380a3556acba640ef5233e2adc75da4becd1426831aa93f2d2fe2a4041e",
      "assetIds": []
    },
    {
      "x": 126,
      "y": 383,
      "size": 1,
      "price": "4683000000000000000000",
      "reserved": "",
      "salt": "0xc514bb2b9a7930336a2266ba1d4e3af6d5dc091504f851091443f6f33106d993",
      "assetIds": [
        "55464657044963196816950587289035428064568320970692304673817341489687757334528",
        "55464657044963196816950587289035428064568320970692304673817341489687757334529",
        "55464657044963196816950587289035428064568320970692304673817341489687757334530",
        "55464657044963196816950587289035428064568320970692304673817341489687757334531",
        "55464657044963196816950587289035428064568320970692304673817341489687757334532"
      ]
    },
    {
      "x": 126,
      "y": 396,
      "size": 1,
      "price": "4683000000000000000000",
      "reserved": "",
      "salt": "0x1c35e9eca8790efa8c238834750864dd910df39e93ffa52538f65bf22a87e983",
      "assetIds": [
        "55464657044963196816950587289035428064568320970692304673817341489687757334528",
        "55464657044963196816950587289035428064568320970692304673817341489687757334529",
        "55464657044963196816950587289035428064568320970692304673817341489687757334530",
        "55464657044963196816950587289035428064568320970692304673817341489687757334531",
        "55464657044963196816950587289035428064568320970692304673817341489687757334532"
      ]
    },
    {
      "x": 126,
      "y": 397,
      "size": 1,
      "price": "4683000000000000000000",
      "reserved": "",
      "salt": "0x8dd52459a3258f1266a88235a85ed9c0879a49bafcccee1a4b4f07aa0b46a2bd",
      "assetIds": [
        "55464657044963196816950587289035428064568320970692304673817341489687757334528",
        "55464657044963196816950587289035428064568320970692304673817341489687757334529",
        "55464657044963196816950587289035428064568320970692304673817341489687757334530",
        "55464657044963196816950587289035428064568320970692304673817341489687757334531",
        "55464657044963196816950587289035428064568320970692304673817341489687757334532"
      ]
    },
    {
      "x": 126,
      "y": 398,
      "size": 1,
      "price": "4683000000000000000000",
      "reserved": "",
      "salt": "0x097090be508764cf9ca41296eb8f2d025b43b66a16762d71ffe76efd48bc3879",
      "assetIds": [
        "55464657044963196816950587289035428064568320970692304673817341489687757334528",
        "55464657044963196816950587289035428064568320970692304673817341489687757334529",
        "55464657044963196816950587289035428064568320970692304673817341489687757334530",
        "55464657044963196816950587289035428064568320970692304673817341489687757334531",
        "55464657044963196816950587289035428064568320970692304673817341489687757334532"
      ]
    },
    {
      "x": 126,
      "y": 399,
      "size": 1,
      "price": "4683000000000000000000",
      "reserved": "",
      "salt": "0x7afbdd9967e180e89555a135f4c4dbe40c8356cfd43341e044999894ee825dea",
      "assetIds": [
        "55464657044963196816950587289035428064568320970692304673817341489687757334528",
        "55464657044963196816950587289035428064568320970692304673817341489687757334529",
        "55464657044963196816950587289035428064568320970692304673817341489687757334530",
        "55464657044963196816950587289035428064568320970692304673817341489687757334531",
        "55464657044963196816950587289035428064568320970692304673817341489687757334532"
      ]
    },
    {
      "x": 126,
      "y": 400,
      "size": 1,
      "price": "4683000000000000000000",
      "reserved": "",
      "salt": "0x6766a7ca178ee6d9c46930be8d3515876be17641696a73f6cf8c24dbb274cb8a",
      "assetIds": [
        "55464657044963196816950587289035428064568320970692304673817341489687757334528",
        "55464657044963196816950587289035428064568320970692304673817341489687757334529",
        "55464657044963196816950587289035428064568320970692304673817341489687757334530",
        "55464657044963196816950587289035428064568320970692304673817341489687757334531",
        "55464657044963196816950587289035428064568320970692304673817341489687757334532"
      ]
    },
    {
      "x": 126,
      "y": 401,
      "size": 1,
      "price": "4683000000000000000000",
      "reserved": "",
      "salt": "0x64fde7c7724a7e873583423ded14e7bdeb7b2d9b4e907439eb8fafc47cbe23e7",
      "assetIds": [
        "55464657044963196816950587289035428064568320970692304673817341489687757334528",
        "55464657044963196816950587289035428064568320970692304673817341489687757334529",
        "55464657044963196816950587289035428064568320970692304673817341489687757334530",
        "55464657044963196816950587289035428064568320970692304673817341489687757334531",
        "55464657044963196816950587289035428064568320970692304673817341489687757334532"
      ]
    },
    {
      "x": 126,
      "y": 402,
      "size": 1,
      "price": "4683000000000000000000",
      "reserved": "",
      "salt": "0xba341ad5f39e799bf794d39b38cd9bc719457e498b61205692bfed4c6b497272",
      "assetIds": [
        "55464657044963196816950587289035428064568320970692304673817341489687757334528",
        "55464657044963196816950587289035428064568320970692304673817341489687757334529",
        "55464657044963196816950587289035428064568320970692304673817341489687757334530",
        "55464657044963196816950587289035428064568320970692304673817341489687757334531",
        "55464657044963196816950587289035428064568320970692304673817341489687757334532"
      ]
    },
    {
      "x": 126,
      "y": 403,
      "size": 1,
      "price": "4683000000000000000000",
      "reserved": "",
      "salt": "0xd4a2fe716186f6d4f46743027c3b24347e7e898a7cb59d98e6a98bf51050b04e",
      "assetIds": [
        "55464657044963196816950587289035428064568320970692304673817341489687757334528",
        "55464657044963196816950587289035428064568320970692304673817341489687757334529",
        "55464657044963196816950587289035428064568320970692304673817341489687757334530",
        "55464657044963196816950587289035428064568320970692304673817341489687757334531",
        "55464657044963196816950587289035428064568320970692304673817341489687757334532"
      ]
    },
    {
      "x": 126,
      "y": 404,
      "size": 1,
      "price": "4683000000000000000000",
      "reserved": "",
      "salt": "0xa5024942e03244d3c115971831c77845c309eb0744944bf53a9613930cc1e1ce",
      "assetIds": [
        "55464657044963196816950587289035428064568320970692304673817341489687757334528",
        "55464657044963196816950587289035428064568320970692304673817341489687757334529",
        "55464657044963196816950587289035428064568320970692304673817341489687757334530",
        "55464657044963196816950587289035428064568320970692304673817341489687757334531",
        "55464657044963196816950587289035428064568320970692304673817341489687757334532"
      ]
    },
    {
      "x": 126,
      "y": 405,
      "size": 1,
      "price": "4683000000000000000000",
      "reserved": "",
      "salt": "0xf434f34fe6754c4b9fb6baa8697da8a820876d24c08a0d7d9eb90ce2494a51af",
      "assetIds": [
        "55464657044963196816950587289035428064568320970692304673817341489687757334528",
        "55464657044963196816950587289035428064568320970692304673817341489687757334529",
        "55464657044963196816950587289035428064568320970692304673817341489687757334530",
        "55464657044963196816950587289035428064568320970692304673817341489687757334531",
        "55464657044963196816950587289035428064568320970692304673817341489687757334532"
      ]
    },
    {
      "x": 126,
      "y": 406,
      "size": 1,
      "price": "4683000000000000000000",
      "reserved": "",
      "salt": "0xeb81e065d874f3bc8fa60c5763e79a91ed703248dd7c9cf33da043f3e0b7c872",
      "assetIds": [
        "55464657044963196816950587289035428064568320970692304673817341489687757334528",
        "55464657044963196816950587289035428064568320970692304673817341489687757334529",
        "55464657044963196816950587289035428064568320970692304673817341489687757334530",
        "55464657044963196816950587289035428064568320970692304673817341489687757334531",
        "55464657044963196816950587289035428064568320970692304673817341489687757334532"
      ]
    },
    {
      "x": 126,
      "y": 407,
      "size": 1,
      "price": "4683000000000000000000",
      "reserved": "",
      "salt": "0xb267a5e8945dafca14c1d4e70d739d2535c54e792675bf0f6f87507c76fa40f7",
      "assetIds": [
        "55464657044963196816950587289035428064568320970692304673817341489687757334528",
        "55464657044963196816950587289035428064568320970692304673817341489687757334529",
        "55464657044963196816950587289035428064568320970692304673817341489687757334530",
        "55464657044963196816950587289035428064568320970692304673817341489687757334531",
        "55464657044963196816950587289035428064568320970692304673817341489687757334532"
      ]
    },
    {
      "x": 127,
      "y": 348,
      "size": 1,
      "price": "1011000000000000000000",
      "reserved": "",
      "salt": "0xf0c22ef642dccaf91d63c34da9da9dd0b44933048e9f9bed934159e547992ba0",
      "assetIds": []
    },
    {
      "x": 127,
      "y": 349,
      "size": 1,
      "price": "1011000000000000000000",
      "reserved": "",
      "salt": "0xbbca79deafce4cda11fbcbc907e1177bbcfcf788ba75b6103977c1cd08388af3",
      "assetIds": []
    },
    {
      "x": 127,
      "y": 350,
      "size": 1,
      "price": "1011000000000000000000",
      "reserved": "",
      "salt": "0xc8cef1e6f8d737071d855ed6bf765ab2e2e0496dee8f72d3422ee535f3f51fdd",
      "assetIds": []
    },
    {
      "x": 127,
      "y": 351,
      "size": 1,
      "price": "1011000000000000000000",
      "reserved": "",
      "salt": "0x48555ff175f65ed3429a301b23d4acc12abcda4365a6a8a8804fa023005d7891",
      "assetIds": []
    },
    {
      "x": 127,
      "y": 352,
      "size": 1,
      "price": "1011000000000000000000",
      "reserved": "",
      "salt": "0xa73c3b2635099e76402c3e3758c763ada4dad7b435cc2b578ea5e6286479fe61",
      "assetIds": []
    },
    {
      "x": 127,
      "y": 353,
      "size": 1,
      "price": "1011000000000000000000",
      "reserved": "",
      "salt": "0x30daa7586251520fe0f160ba8487125a225d5ddb5bf2ca489a3163103be0cf13",
      "assetIds": []
    },
    {
      "x": 127,
      "y": 354,
      "size": 1,
      "price": "1011000000000000000000",
      "reserved": "0x7a9fe22691c811ea339d9b73150e6911a5343dca",
      "salt": "0xb7fd106828043b3b7455deedb1a5143744e07ab68d795ba24aed92fb8e81e20f",
      "assetIds": []
    },
    {
      "x": 127,
      "y": 355,
      "size": 1,
      "price": "1011000000000000000000",
      "reserved": "",
      "salt": "0x462a4083efc79ecc2bfa8e2b0b51dd2075ccb0e9df35af507832dbcef08837ff",
      "assetIds": []
    },
    {
      "x": 127,
      "y": 356,
      "size": 1,
      "price": "1011000000000000000000",
      "reserved": "",
      "salt": "0x2907f3c7467521c12c269204ffe4a9d63913d6b1cb9336618c41cf6e62846569",
      "assetIds": []
    },
    {
      "x": 127,
      "y": 360,
      "size": 1,
      "price": "1011000000000000000000",
      "reserved": "",
      "salt": "0x31f561152413576e2ddee62dcbb857bbc6eea7cf0a724ac42a8588a043a6924d",
      "assetIds": []
    },
    {
      "x": 127,
      "y": 361,
      "size": 1,
      "price": "1011000000000000000000",
      "reserved": "",
      "salt": "0x0d96f1a078fb3936c49a4d1ad58809458616b049a8ca93b4467130f29f2242c4",
      "assetIds": []
    },
    {
      "x": 127,
      "y": 362,
      "size": 1,
      "price": "1011000000000000000000",
      "reserved": "",
      "salt": "0xf84a0e405acb609fe6761f23b13ab6dc182aec46a338ac45a031b0a1de9702eb",
      "assetIds": []
    },
    {
      "x": 127,
      "y": 363,
      "size": 1,
      "price": "1011000000000000000000",
      "reserved": "0x7a9fe22691c811ea339d9b73150e6911a5343dca",
      "salt": "0x7e5c1b29619d1589011b64b96843b5c0e6ff6496a1527b46d88727abf80ecc70",
      "assetIds": []
    },
    {
      "x": 127,
      "y": 364,
      "size": 1,
      "price": "1011000000000000000000",
      "reserved": "",
      "salt": "0x285a1dec97ce950b56365b661ca5d9c880050dbae8e57c0e2455204e6b7f6733",
      "assetIds": []
    },
    {
      "x": 127,
      "y": 365,
      "size": 1,
      "price": "1011000000000000000000",
      "reserved": "",
      "salt": "0x8b43b14a0bb9acbddafff17e03fe0ac8f4788b377a763a22275bbc69991a67e0",
      "assetIds": []
    },
    {
      "x": 127,
      "y": 366,
      "size": 1,
      "price": "1011000000000000000000",
      "reserved": "",
      "salt": "0x83ca5afae6088a7be29854dc5155a4dd4200f88bc89e3a41c16a760f6fa5631d",
      "assetIds": []
    },
    {
      "x": 127,
      "y": 367,
      "size": 1,
      "price": "1011000000000000000000",
      "reserved": "0x7a9fe22691c811ea339d9b73150e6911a5343dca",
      "salt": "0x8cbfc132acc751e0bae9b91ac087f9f6228ce23d10d4746b844e854910a78a26",
      "assetIds": []
    },
    {
      "x": 127,
      "y": 368,
      "size": 1,
      "price": "1011000000000000000000",
      "reserved": "",
      "salt": "0xc225079aa827de575a15a1452aeec88e6884b22529c284e62333e6987142d687",
      "assetIds": []
    },
    {
      "x": 127,
      "y": 369,
      "size": 1,
      "price": "1011000000000000000000",
      "reserved": "0x7a9fe22691c811ea339d9b73150e6911a5343dca",
      "salt": "0x2df76f24261e29b618ba9ed199022a4e1acce6835fb9ac8cdefa3e99640203e7",
      "assetIds": []
    },
    {
      "x": 127,
      "y": 370,
      "size": 1,
      "price": "1011000000000000000000",
      "reserved": "",
      "salt": "0x9bfb22f1dba0a5e3b03708560c93f1be0433ea371d8fb09f5246e33cc179ec78",
      "assetIds": []
    },
    {
      "x": 127,
      "y": 371,
      "size": 1,
      "price": "4683000000000000000000",
      "reserved": "",
      "salt": "0xfd9c9c81f9d9aa7687ef30c6f5cc2bfcb8d9f07b27706f3a16629406bb637ff2",
      "assetIds": [
        "55464657044963196816950587289035428064568320970692304673817341489687757334528",
        "55464657044963196816950587289035428064568320970692304673817341489687757334529",
        "55464657044963196816950587289035428064568320970692304673817341489687757334530",
        "55464657044963196816950587289035428064568320970692304673817341489687757334531",
        "55464657044963196816950587289035428064568320970692304673817341489687757334532"
      ]
    },
    {
      "x": 127,
      "y": 378,
      "size": 1,
      "price": "4683000000000000000000",
      "reserved": "",
      "salt": "0xd26d9742a175248b6ae84e89ed841c9254d0518ad52241749c933535269ef302",
      "assetIds": [
        "55464657044963196816950587289035428064568320970692304673817341489687757334528",
        "55464657044963196816950587289035428064568320970692304673817341489687757334529",
        "55464657044963196816950587289035428064568320970692304673817341489687757334530",
        "55464657044963196816950587289035428064568320970692304673817341489687757334531",
        "55464657044963196816950587289035428064568320970692304673817341489687757334532"
      ]
    },
    {
      "x": 127,
      "y": 379,
      "size": 1,
      "price": "1011000000000000000000",
      "reserved": "",
      "salt": "0x15c66269f9517f54ec8619afd635f05c9210a19830d3439ebe7b251f7c1997d6",
      "assetIds": []
    },
    {
      "x": 127,
      "y": 380,
      "size": 1,
      "price": "1011000000000000000000",
      "reserved": "",
      "salt": "0x1bc26f47ca63dd28a98e1085161289a7adcb8b5e1a5cc61c27346450cb9960e2",
      "assetIds": []
    },
    {
      "x": 127,
      "y": 381,
      "size": 1,
      "price": "1011000000000000000000",
      "reserved": "",
      "salt": "0x079be2bdeb607dbe37af859ccd4d1bcd32dd331acfc91f0402a06352cfea8e84",
      "assetIds": []
    },
    {
      "x": 127,
      "y": 382,
      "size": 1,
      "price": "1011000000000000000000",
      "reserved": "0x7a9fe22691c811ea339d9b73150e6911a5343dca",
      "salt": "0xeba070e954f83ea34ffe79cc2378491fdc5f665683710f122f127b7f45f93e77",
      "assetIds": []
    },
    {
      "x": 127,
      "y": 383,
      "size": 1,
      "price": "4683000000000000000000",
      "reserved": "",
      "salt": "0x71921a913269d38196d93e69dd110f8308f26e02dad6332a018b76f8a5d3a558",
      "assetIds": [
        "55464657044963196816950587289035428064568320970692304673817341489687757334528",
        "55464657044963196816950587289035428064568320970692304673817341489687757334529",
        "55464657044963196816950587289035428064568320970692304673817341489687757334530",
        "55464657044963196816950587289035428064568320970692304673817341489687757334531",
        "55464657044963196816950587289035428064568320970692304673817341489687757334532"
      ]
    },
    {
      "x": 127,
      "y": 396,
      "size": 1,
      "price": "4683000000000000000000",
      "reserved": "",
      "salt": "0x4d1cd2839ea172ec90f4a551ad444b5f86b337c92adfb5c511bec79b73d9d35d",
      "assetIds": [
        "55464657044963196816950587289035428064568320970692304673817341489687757334528",
        "55464657044963196816950587289035428064568320970692304673817341489687757334529",
        "55464657044963196816950587289035428064568320970692304673817341489687757334530",
        "55464657044963196816950587289035428064568320970692304673817341489687757334531",
        "55464657044963196816950587289035428064568320970692304673817341489687757334532"
      ]
    },
    {
      "x": 127,
      "y": 397,
      "size": 1,
      "price": "1011000000000000000000",
      "reserved": "",
      "salt": "0x6e8809b1fa28bca768c2a32353a23777426e1357bc65cb6fd046c207605730af",
      "assetIds": []
    },
    {
      "x": 127,
      "y": 398,
      "size": 1,
      "price": "1011000000000000000000",
      "reserved": "0x7a9fe22691c811ea339d9b73150e6911a5343dca",
      "salt": "0x69e3375bd89e4e326905364f8f65eeb9e2b9fe2e700a54341dc5fb4510259963",
      "assetIds": []
    },
    {
      "x": 127,
      "y": 399,
      "size": 1,
      "price": "1011000000000000000000",
      "reserved": "",
      "salt": "0x70e9d83450f0c585d2bf182c5c7f36ce23a8e79168a6dc6dfe61369da896a099",
      "assetIds": []
    },
    {
      "x": 127,
      "y": 400,
      "size": 1,
      "price": "1011000000000000000000",
      "reserved": "",
      "salt": "0x5501f00b93eb7c851659623258d613c9dd78e63bddcdcc42ea507886ccfa6e86",
      "assetIds": []
    },
    {
      "x": 127,
      "y": 401,
      "size": 1,
      "price": "1011000000000000000000",
      "reserved": "",
      "salt": "0xadcedb65087c016c4127f22d011095e72812f9693cf998b226d8a28b1c6ad35c",
      "assetIds": []
    },
    {
      "x": 127,
      "y": 402,
      "size": 1,
      "price": "1011000000000000000000",
      "reserved": "0x7a9fe22691c811ea339d9b73150e6911a5343dca",
      "salt": "0x8ed21e43081d60709ac2087790b5ba0ca9fbd6d40d707e9b3c6b3ca08f3e2727",
      "assetIds": []
    },
    {
      "x": 127,
      "y": 403,
      "size": 1,
      "price": "4683000000000000000000",
      "reserved": "",
      "salt": "0x5b049e17dbceda92693cf754c0ee23d1e8516eeedcd12a19ee03d7a843dea922",
      "assetIds": [
        "55464657044963196816950587289035428064568320970692304673817341489687757334528",
        "55464657044963196816950587289035428064568320970692304673817341489687757334529",
        "55464657044963196816950587289035428064568320970692304673817341489687757334530",
        "55464657044963196816950587289035428064568320970692304673817341489687757334531",
        "55464657044963196816950587289035428064568320970692304673817341489687757334532"
      ]
    },
    {
      "x": 127,
      "y": 404,
      "size": 1,
      "price": "4683000000000000000000",
      "reserved": "",
      "salt": "0xbbce682e5bf183b9ea47ca58dcb78b7cdb3ebdc0091fc4f27148bc2360864b8c",
      "assetIds": [
        "55464657044963196816950587289035428064568320970692304673817341489687757334528",
        "55464657044963196816950587289035428064568320970692304673817341489687757334529",
        "55464657044963196816950587289035428064568320970692304673817341489687757334530",
        "55464657044963196816950587289035428064568320970692304673817341489687757334531",
        "55464657044963196816950587289035428064568320970692304673817341489687757334532"
      ]
    },
    {
      "x": 127,
      "y": 405,
      "size": 1,
      "price": "4683000000000000000000",
      "reserved": "",
      "salt": "0x7dae4918111d2caf384ed000e79cc63f20cba3145ffbcf2b2299c2d49e884235",
      "assetIds": [
        "55464657044963196816950587289035428064568320970692304673817341489687757334528",
        "55464657044963196816950587289035428064568320970692304673817341489687757334529",
        "55464657044963196816950587289035428064568320970692304673817341489687757334530",
        "55464657044963196816950587289035428064568320970692304673817341489687757334531",
        "55464657044963196816950587289035428064568320970692304673817341489687757334532"
      ]
    },
    {
      "x": 127,
      "y": 406,
      "size": 1,
      "price": "4683000000000000000000",
      "reserved": "",
      "salt": "0x996b1f974ac8a55e36034acbad1a8349be34b332789ad025eff0f2409abc92e8",
      "assetIds": [
        "55464657044963196816950587289035428064568320970692304673817341489687757334528",
        "55464657044963196816950587289035428064568320970692304673817341489687757334529",
        "55464657044963196816950587289035428064568320970692304673817341489687757334530",
        "55464657044963196816950587289035428064568320970692304673817341489687757334531",
        "55464657044963196816950587289035428064568320970692304673817341489687757334532"
      ]
    },
    {
      "x": 127,
      "y": 407,
      "size": 1,
      "price": "4683000000000000000000",
      "reserved": "",
      "salt": "0x196585278154d4a926b9c12014f3bdce328c84ef43bfbcaf33257c74465a6fa8",
      "assetIds": [
        "55464657044963196816950587289035428064568320970692304673817341489687757334528",
        "55464657044963196816950587289035428064568320970692304673817341489687757334529",
        "55464657044963196816950587289035428064568320970692304673817341489687757334530",
        "55464657044963196816950587289035428064568320970692304673817341489687757334531",
        "55464657044963196816950587289035428064568320970692304673817341489687757334532"
      ]
    },
    {
      "x": 128,
      "y": 348,
      "size": 1,
      "price": "1011000000000000000000",
      "reserved": "",
      "salt": "0xafc702de67d437ef299f0693c48e90c670aa84c64a5b42c4b0356e5033f018e0",
      "assetIds": []
    },
    {
      "x": 128,
      "y": 349,
      "size": 1,
      "price": "1011000000000000000000",
      "reserved": "",
      "salt": "0x3b4c6fcb7ce3233e2891b1f32582e28e98d8d88f56e7575d7d3475a195b761c1",
      "assetIds": []
    },
    {
      "x": 128,
      "y": 350,
      "size": 1,
      "price": "1011000000000000000000",
      "reserved": "",
      "salt": "0xe27fb1211688234f4b21e6ef6c58ed371a506b6e145ce1b928256217cc30acfb",
      "assetIds": []
    },
    {
      "x": 128,
      "y": 351,
      "size": 1,
      "price": "1011000000000000000000",
      "reserved": "0x7a9fe22691c811ea339d9b73150e6911a5343dca",
      "salt": "0xa285ba7977ea9b4b4a1d832f902ee3a0baf966b12338cf3e5a975fc41503912d",
      "assetIds": []
    },
    {
      "x": 128,
      "y": 352,
      "size": 1,
      "price": "1011000000000000000000",
      "reserved": "",
      "salt": "0xee38721b84393b05aeae55f968a076667c7bcef4361da60ef399bfcdfcf95dbc",
      "assetIds": []
    },
    {
      "x": 128,
      "y": 353,
      "size": 1,
      "price": "1011000000000000000000",
      "reserved": "",
      "salt": "0x3498805cb99cefc47cdd0a845106b2f3e7489113575dd8809b383bd0206deabc",
      "assetIds": []
    },
    {
      "x": 128,
      "y": 354,
      "size": 1,
      "price": "1011000000000000000000",
      "reserved": "",
      "salt": "0x3df72763890e3819c9bc3a5af04c4ef88c1649b21a7f9fe3cea39895b7cadb18",
      "assetIds": []
    },
    {
      "x": 128,
      "y": 355,
      "size": 1,
      "price": "1011000000000000000000",
      "reserved": "",
      "salt": "0xb53efba1759a471d7446135db3db462cdf87fa4d4585dac75e8e9a5051983ea6",
      "assetIds": []
    },
    {
      "x": 128,
      "y": 356,
      "size": 1,
      "price": "1011000000000000000000",
      "reserved": "",
      "salt": "0x60b48b9ee1f5220ca847257f35ef9169e1a9ab9454ed622fe67636f85007a0d7",
      "assetIds": []
    },
    {
      "x": 128,
      "y": 360,
      "size": 1,
      "price": "1011000000000000000000",
      "reserved": "",
      "salt": "0xb6db50b478d71afaf3659cd2b85b12aa9d1a8b93ce927c8f6580819a09fda8f7",
      "assetIds": []
    },
    {
      "x": 128,
      "y": 361,
      "size": 1,
      "price": "1011000000000000000000",
      "reserved": "",
      "salt": "0xba2bc2057e1b1565631c65a755471387ef53d94e39673151add6814fe24066f8",
      "assetIds": []
    },
    {
      "x": 128,
      "y": 362,
      "size": 1,
      "price": "1011000000000000000000",
      "reserved": "",
      "salt": "0x3d7eabb93883a47311062ea49ce3b1ec577e0d10da95ae3f5717aa1b66dc053e",
      "assetIds": []
    },
    {
      "x": 128,
      "y": 363,
      "size": 1,
      "price": "1011000000000000000000",
      "reserved": "",
      "salt": "0xaf3b41a9ea98e65e4deb34d1ef044cdcc44d2658fd0376a3a5d9fc152272d3c9",
      "assetIds": []
    },
    {
      "x": 128,
      "y": 364,
      "size": 1,
      "price": "1011000000000000000000",
      "reserved": "",
      "salt": "0xe494dca1340c203d9d9c52b2d00068aff2f81791536770878ce2ca00f1806eca",
      "assetIds": []
    },
    {
      "x": 128,
      "y": 365,
      "size": 1,
      "price": "1011000000000000000000",
      "reserved": "0x7a9fe22691c811ea339d9b73150e6911a5343dca",
      "salt": "0x5fd8ec895d4553fea7aa50874ce75ada71ff69ca98476dd9008aab5a771fd3df",
      "assetIds": []
    },
    {
      "x": 128,
      "y": 366,
      "size": 1,
      "price": "1011000000000000000000",
      "reserved": "",
      "salt": "0x677083e7f643069bb270478ddad6ebbd9fdb9ae5feb5bb4304a1a04a44968b78",
      "assetIds": []
    },
    {
      "x": 128,
      "y": 367,
      "size": 1,
      "price": "1011000000000000000000",
      "reserved": "",
      "salt": "0x657cd3782cbdbde3cd8c07a77f06bbac1541fb25b23422acb157ca64c713adc2",
      "assetIds": []
    },
    {
      "x": 128,
      "y": 368,
      "size": 1,
      "price": "1011000000000000000000",
      "reserved": "",
      "salt": "0x2cb76bb0f6970d16a90b3eac552238f6c52baccf4405c7cf8d2c84d3a32dc888",
      "assetIds": []
    },
    {
      "x": 128,
      "y": 369,
      "size": 1,
      "price": "1011000000000000000000",
      "reserved": "",
      "salt": "0x64d6124208ee7118eb7d2db8837afbe1a9604019e7584d6ded9b6fc09c940399",
      "assetIds": []
    },
    {
      "x": 128,
      "y": 370,
      "size": 1,
      "price": "1011000000000000000000",
      "reserved": "0x7a9fe22691c811ea339d9b73150e6911a5343dca",
      "salt": "0x64940bc6473ab76b60d4bc623b9e0295fcd1833edd70b2aaf6b63b55e50460ce",
      "assetIds": []
    },
    {
      "x": 128,
      "y": 371,
      "size": 1,
      "price": "4683000000000000000000",
      "reserved": "",
      "salt": "0x987fa2a118ec8aeef4a05b7ebe347bf27771d64e273603d2a418fbfc80cd9135",
      "assetIds": [
        "55464657044963196816950587289035428064568320970692304673817341489687757334528",
        "55464657044963196816950587289035428064568320970692304673817341489687757334529",
        "55464657044963196816950587289035428064568320970692304673817341489687757334530",
        "55464657044963196816950587289035428064568320970692304673817341489687757334531",
        "55464657044963196816950587289035428064568320970692304673817341489687757334532"
      ]
    },
    {
      "x": 128,
      "y": 378,
      "size": 1,
      "price": "4683000000000000000000",
      "reserved": "",
      "salt": "0xfa6029c5b125c27c102c1b12d294993bad8d0edf625abcabb789aa6ddff94748",
      "assetIds": [
        "55464657044963196816950587289035428064568320970692304673817341489687757334528",
        "55464657044963196816950587289035428064568320970692304673817341489687757334529",
        "55464657044963196816950587289035428064568320970692304673817341489687757334530",
        "55464657044963196816950587289035428064568320970692304673817341489687757334531",
        "55464657044963196816950587289035428064568320970692304673817341489687757334532"
      ]
    },
    {
      "x": 128,
      "y": 379,
      "size": 1,
      "price": "1011000000000000000000",
      "reserved": "0x7a9fe22691c811ea339d9b73150e6911a5343dca",
      "salt": "0xa07d00c9d285509c42479adcbdf0fb1a520553e851bd5836f9644ea139fa9b24",
      "assetIds": []
    },
    {
      "x": 128,
      "y": 380,
      "size": 1,
      "price": "1011000000000000000000",
      "reserved": "",
      "salt": "0xa868c235953bfd0b2a6c5df6670872ceeb0f44418b5c0a524a379ab8783402d3",
      "assetIds": []
    },
    {
      "x": 128,
      "y": 381,
      "size": 1,
      "price": "1011000000000000000000",
      "reserved": "0x7a9fe22691c811ea339d9b73150e6911a5343dca",
      "salt": "0xff1a5429651e4d9a7cc2de6f7e96a5ccd96fca51a320b86fec2dfb34d561e4cd",
      "assetIds": []
    },
    {
      "x": 128,
      "y": 382,
      "size": 1,
      "price": "1011000000000000000000",
      "reserved": "",
      "salt": "0x25e53a6cca64dd24457f0df0d4924354ed318c9885c1cd9552661cad98fae656",
      "assetIds": []
    },
    {
      "x": 128,
      "y": 383,
      "size": 1,
      "price": "4683000000000000000000",
      "reserved": "",
      "salt": "0x9cb08d0a2849b5c880fc321665c1115a9c0ab86cbda7f528f8b5ffcb490eecdb",
      "assetIds": [
        "55464657044963196816950587289035428064568320970692304673817341489687757334528",
        "55464657044963196816950587289035428064568320970692304673817341489687757334529",
        "55464657044963196816950587289035428064568320970692304673817341489687757334530",
        "55464657044963196816950587289035428064568320970692304673817341489687757334531",
        "55464657044963196816950587289035428064568320970692304673817341489687757334532"
      ]
    },
    {
      "x": 128,
      "y": 396,
      "size": 1,
      "price": "4683000000000000000000",
      "reserved": "",
      "salt": "0x2c6c248af218ef9fcef72f41e887405aefd46626a5e4b9cdd5d7acdacb91c6cb",
      "assetIds": [
        "55464657044963196816950587289035428064568320970692304673817341489687757334528",
        "55464657044963196816950587289035428064568320970692304673817341489687757334529",
        "55464657044963196816950587289035428064568320970692304673817341489687757334530",
        "55464657044963196816950587289035428064568320970692304673817341489687757334531",
        "55464657044963196816950587289035428064568320970692304673817341489687757334532"
      ]
    },
    {
      "x": 128,
      "y": 397,
      "size": 1,
      "price": "1011000000000000000000",
      "reserved": "",
      "salt": "0xabb7c4f765b5dc594301203eec245f0a7959e10ecbeda612e09c60b4399710e3",
      "assetIds": []
    },
    {
      "x": 128,
      "y": 398,
      "size": 1,
      "price": "1011000000000000000000",
      "reserved": "",
      "salt": "0x4cd4f6aaad33efdc6177471a764ffc6b97dcb8275a4c7c8c8af7930770164717",
      "assetIds": []
    },
    {
      "x": 128,
      "y": 399,
      "size": 1,
      "price": "1011000000000000000000",
      "reserved": "",
      "salt": "0x2b4b15c1857363b54d397b45994c3279d0f6d675fb9f0ea7873cd447f287991d",
      "assetIds": []
    },
    {
      "x": 128,
      "y": 400,
      "size": 1,
      "price": "1011000000000000000000",
      "reserved": "0x7a9fe22691c811ea339d9b73150e6911a5343dca",
      "salt": "0xa5bf45697180e5a0c635f5e961ef7f8802fe89bc8a7babc338a51872a75c055f",
      "assetIds": []
    },
    {
      "x": 128,
      "y": 401,
      "size": 1,
      "price": "1011000000000000000000",
      "reserved": "",
      "salt": "0x1e1ef7f2096e546598fd113db2e8b3fba7ae078d4c093474b68d1583b7f9505d",
      "assetIds": []
    },
    {
      "x": 128,
      "y": 402,
      "size": 1,
      "price": "1011000000000000000000",
      "reserved": "",
      "salt": "0x33d87cdbee4889332affaf51277ae800207baa1f0d6bcf537cba0dc0733bc8b7",
      "assetIds": []
    },
    {
      "x": 128,
      "y": 403,
      "size": 1,
      "price": "4683000000000000000000",
      "reserved": "",
      "salt": "0xbc71f8c06c11215cb029f5bf7e1e5e8444469c3974070ac28f53c61f1f1c2325",
      "assetIds": [
        "55464657044963196816950587289035428064568320970692304673817341489687757334528",
        "55464657044963196816950587289035428064568320970692304673817341489687757334529",
        "55464657044963196816950587289035428064568320970692304673817341489687757334530",
        "55464657044963196816950587289035428064568320970692304673817341489687757334531",
        "55464657044963196816950587289035428064568320970692304673817341489687757334532"
      ]
    },
    {
      "x": 128,
      "y": 404,
      "size": 1,
      "price": "1011000000000000000000",
      "reserved": "",
      "salt": "0x7ccaf7e99d843dd79c22df872a694022346311d3e7362b51cee816c425040733",
      "assetIds": []
    },
    {
      "x": 128,
      "y": 405,
      "size": 1,
      "price": "1011000000000000000000",
      "reserved": "",
      "salt": "0x9275e564be02316491cf24ae9c0ec8d1346601309cc9422c60af04e2dfe89900",
      "assetIds": []
    },
    {
      "x": 128,
      "y": 406,
      "size": 1,
      "price": "1011000000000000000000",
      "reserved": "0x7a9fe22691c811ea339d9b73150e6911a5343dca",
      "salt": "0xadc5bdbeb01157b6871a1783d404071bf0df1494cf1530f9c0f95226ebb41a63",
      "assetIds": []
    },
    {
      "x": 128,
      "y": 407,
      "size": 1,
      "price": "1011000000000000000000",
      "reserved": "",
      "salt": "0xc695c98f9087c143523acbb9cefa8dfcce7d5b5d077f261655ba17a0a391e1bd",
      "assetIds": []
    },
    {
      "x": 129,
      "y": 348,
      "size": 1,
      "price": "1011000000000000000000",
      "reserved": "",
      "salt": "0xe054b367cb9b7f7587ad3842d193503156411376ee2bedacafbeb82d23c82cd0",
      "assetIds": []
    },
    {
      "x": 129,
      "y": 349,
      "size": 1,
      "price": "1011000000000000000000",
      "reserved": "",
      "salt": "0x19ec5f8487efc11bdf170462804cb957abe6c07c272c8476dd4ee6384973b59a",
      "assetIds": []
    },
    {
      "x": 129,
      "y": 350,
      "size": 1,
      "price": "1011000000000000000000",
      "reserved": "",
      "salt": "0xbeffde004e31ac906a8b46f1589dff0a4bf47d4a79de9cf2090224f4ab28231b",
      "assetIds": []
    },
    {
      "x": 129,
      "y": 351,
      "size": 1,
      "price": "1011000000000000000000",
      "reserved": "",
      "salt": "0x6185d26ca0711963ae1b93df23f6ba5d9c71a71a250881494d2820cb79941ca1",
      "assetIds": []
    },
    {
      "x": 129,
      "y": 352,
      "size": 1,
      "price": "1011000000000000000000",
      "reserved": "",
      "salt": "0xd86a54ceaabc260e102632a434bb34927da8ff3574800f3f833199b5b27a5a5c",
      "assetIds": []
    },
    {
      "x": 129,
      "y": 353,
      "size": 1,
      "price": "1011000000000000000000",
      "reserved": "",
      "salt": "0xeaa28107bb4c1824414f891273b948b451b09f6078e744494faa019aa2cc17bb",
      "assetIds": []
    },
    {
      "x": 129,
      "y": 354,
      "size": 1,
      "price": "1011000000000000000000",
      "reserved": "",
      "salt": "0x8ce3fb12300cf7757729026b02437c722d7955f22086c942367a5b0f7006c3f7",
      "assetIds": []
    },
    {
      "x": 129,
      "y": 355,
      "size": 1,
      "price": "1011000000000000000000",
      "reserved": "",
      "salt": "0x229825ae7aa51f8795e3c5e9d49f45ef95f368cfe19daa1a98997380604f6255",
      "assetIds": []
    },
    {
      "x": 129,
      "y": 356,
      "size": 1,
      "price": "1011000000000000000000",
      "reserved": "",
      "salt": "0x5afcbb18061b7c39932c352f8077edd561ccb489b55cadc7d835c44294171902",
      "assetIds": []
    },
    {
      "x": 129,
      "y": 357,
      "size": 1,
      "price": "1011000000000000000000",
      "reserved": "",
      "salt": "0xfe0a396e75126f5cb545210bc83a7b0db5db6d1c811c658d18b9e759dc15924f",
      "assetIds": []
    },
    {
      "x": 129,
      "y": 358,
      "size": 1,
      "price": "1011000000000000000000",
      "reserved": "",
      "salt": "0xdcb62bfff498e16df39a9c3ea45108843733952e1f34afd6d3a624d05ab50da2",
      "assetIds": []
    },
    {
      "x": 129,
      "y": 359,
      "size": 1,
      "price": "1011000000000000000000",
      "reserved": "",
      "salt": "0xf87ccd62d09c07b40afdbdabfda385a6c429641947caf4257b81d382eb129c51",
      "assetIds": []
    },
    {
      "x": 129,
      "y": 360,
      "size": 1,
      "price": "1011000000000000000000",
      "reserved": "",
      "salt": "0xb8c17f90396460a13d5ea0d801051b08e10baae4bc13fc8f692ddee1a2e2b4e0",
      "assetIds": []
    },
    {
      "x": 129,
      "y": 361,
      "size": 1,
      "price": "1011000000000000000000",
      "reserved": "",
      "salt": "0xa2aeb4674cc2ad27d5909e6e1d3ae2ea0000d73e507a9884dc57dbebd8f13017",
      "assetIds": []
    },
    {
      "x": 129,
      "y": 362,
      "size": 1,
      "price": "1011000000000000000000",
      "reserved": "0x7a9fe22691c811ea339d9b73150e6911a5343dca",
      "salt": "0x6b7ada06a45729b8e3866e7187baec4f299ea506747176ecedb68ee5f245636a",
      "assetIds": []
    },
    {
      "x": 129,
      "y": 363,
      "size": 1,
      "price": "1011000000000000000000",
      "reserved": "",
      "salt": "0x2a64f2a9c24cd1c6120568ef305e316a71c43877518dc8e9985bb4a99828334f",
      "assetIds": []
    },
    {
      "x": 129,
      "y": 364,
      "size": 1,
      "price": "1011000000000000000000",
      "reserved": "",
      "salt": "0x8664ca92fa47c80b2095393fd06823b93f4d9fb01458a770cb43988d2f98a335",
      "assetIds": []
    },
    {
      "x": 129,
      "y": 365,
      "size": 1,
      "price": "1011000000000000000000",
      "reserved": "",
      "salt": "0xe8807b97dfe5425b7cadf1cf4fd2db9573f25bf7c50409d3a126ca6a1c30c399",
      "assetIds": []
    },
    {
      "x": 129,
      "y": 369,
      "size": 1,
      "price": "1011000000000000000000",
      "reserved": "",
      "salt": "0x237048a5c8813b76cba879a1de74b0cc376cb227bb3e10bc7768b66c36e61b2e",
      "assetIds": []
    },
    {
      "x": 129,
      "y": 370,
      "size": 1,
      "price": "1011000000000000000000",
      "reserved": "",
      "salt": "0x21f09a7f458e49a20cb623a8946a3f446904ea124ad9a93edb621bbe3aa2f858",
      "assetIds": []
    },
    {
      "x": 129,
      "y": 371,
      "size": 1,
      "price": "4683000000000000000000",
      "reserved": "",
      "salt": "0x1035a866d7592e1414ec285a87ce7786e6396dc66c720b18a4a6534d14ec3a16",
      "assetIds": [
        "55464657044963196816950587289035428064568320970692304673817341489687757334528",
        "55464657044963196816950587289035428064568320970692304673817341489687757334529",
        "55464657044963196816950587289035428064568320970692304673817341489687757334530",
        "55464657044963196816950587289035428064568320970692304673817341489687757334531",
        "55464657044963196816950587289035428064568320970692304673817341489687757334532"
      ]
    },
    {
      "x": 129,
      "y": 378,
      "size": 1,
      "price": "4683000000000000000000",
      "reserved": "",
      "salt": "0xc1b155520387cd5c5c8fb1c08810701c20380f3bbd473c2b9c99aa2ff3ffc7ba",
      "assetIds": [
        "55464657044963196816950587289035428064568320970692304673817341489687757334528",
        "55464657044963196816950587289035428064568320970692304673817341489687757334529",
        "55464657044963196816950587289035428064568320970692304673817341489687757334530",
        "55464657044963196816950587289035428064568320970692304673817341489687757334531",
        "55464657044963196816950587289035428064568320970692304673817341489687757334532"
      ]
    },
    {
      "x": 129,
      "y": 379,
      "size": 1,
      "price": "1011000000000000000000",
      "reserved": "",
      "salt": "0x211f2716c17e69b38efc92fbb49a3639582ae449857363d2aef7907eee3368b5",
      "assetIds": []
    },
    {
      "x": 129,
      "y": 380,
      "size": 1,
      "price": "1011000000000000000000",
      "reserved": "",
      "salt": "0x4a3060783e6f8718a62d5ad2616b6e579e9a736342925f578b9c7c0475ca53e5",
      "assetIds": []
    },
    {
      "x": 129,
      "y": 381,
      "size": 1,
      "price": "1011000000000000000000",
      "reserved": "",
      "salt": "0x33a0a8624042ef50cad22589e41f4b6a33698d82eeb4ac8a46842b6a3c6bb2ea",
      "assetIds": []
    },
    {
      "x": 129,
      "y": 382,
      "size": 1,
      "price": "1011000000000000000000",
      "reserved": "0x7a9fe22691c811ea339d9b73150e6911a5343dca",
      "salt": "0x27f1f1f0ef6a8896bd87d29343738ef99902cbea1de63afaddebba2e010fd6d4",
      "assetIds": []
    },
    {
      "x": 129,
      "y": 383,
      "size": 1,
      "price": "4683000000000000000000",
      "reserved": "",
      "salt": "0x28f6b88d716273ca2211dc9447dffb4250c3da4c7ab106296aca4281f58d27c1",
      "assetIds": [
        "55464657044963196816950587289035428064568320970692304673817341489687757334528",
        "55464657044963196816950587289035428064568320970692304673817341489687757334529",
        "55464657044963196816950587289035428064568320970692304673817341489687757334530",
        "55464657044963196816950587289035428064568320970692304673817341489687757334531",
        "55464657044963196816950587289035428064568320970692304673817341489687757334532"
      ]
    },
    {
      "x": 129,
      "y": 396,
      "size": 1,
      "price": "1011000000000000000000",
      "reserved": "",
      "salt": "0x20c3fdb30fe0bd39168acc401f61333fb3ba264bcad25c19fe5b00717cd4dbec",
      "assetIds": []
    },
    {
      "x": 129,
      "y": 397,
      "size": 1,
      "price": "1011000000000000000000",
      "reserved": "",
      "salt": "0x0239871fc3e1bb2ab8ea858ee8072c1adc8118360931ba90044a93a572502d44",
      "assetIds": []
    },
    {
      "x": 129,
      "y": 398,
      "size": 1,
      "price": "1011000000000000000000",
      "reserved": "",
      "salt": "0xc1a56f3fea759fb732718fef73fa6aa6b4db3af9827faeeb42f2e08672b99a41",
      "assetIds": []
    },
    {
      "x": 129,
      "y": 399,
      "size": 1,
      "price": "1011000000000000000000",
      "reserved": "",
      "salt": "0x13cdd3bfa3b7999f2a78113d9b69c701358f6729f64c33a5dd110c7b37ca15c4",
      "assetIds": []
    },
    {
      "x": 129,
      "y": 400,
      "size": 1,
      "price": "1011000000000000000000",
      "reserved": "",
      "salt": "0x0cea5ab6841e3eb9d1c55f9ab4a96a30c57bc64681f25321faf4184dbf1281a1",
      "assetIds": []
    },
    {
      "x": 129,
      "y": 401,
      "size": 1,
      "price": "1011000000000000000000",
      "reserved": "",
      "salt": "0x665d87b54baa6c1e7265c5a36c6a2104430df64077da6afcd048d97753a66ec5",
      "assetIds": []
    },
    {
      "x": 129,
      "y": 402,
      "size": 1,
      "price": "1011000000000000000000",
      "reserved": "",
      "salt": "0xb73efd8b50dbf1896070d842698f7207671cbac9488733c32173e5d942fb87a2",
      "assetIds": []
    },
    {
      "x": 129,
      "y": 403,
      "size": 1,
      "price": "1011000000000000000000",
      "reserved": "",
      "salt": "0x0742cd651276e0e6b038b479b2d92ac45ed1529df12a734118789ce0dd2fd0d8",
      "assetIds": []
    },
    {
      "x": 129,
      "y": 404,
      "size": 1,
      "price": "1011000000000000000000",
      "reserved": "",
      "salt": "0x26b68227f1997174f09639c87b177aed587d885c9867a1c74882fe41f9cf0976",
      "assetIds": []
    },
    {
      "x": 129,
      "y": 405,
      "size": 1,
      "price": "1011000000000000000000",
      "reserved": "",
      "salt": "0xbf68216e40671148e71e4c388843daf2431f37b60e4d347643b1a8e9cd13790d",
      "assetIds": []
    },
    {
      "x": 129,
      "y": 406,
      "size": 1,
      "price": "1011000000000000000000",
      "reserved": "",
      "salt": "0x51f5ce1dad05b9a56d5e574661a39da9919bf9b079e7af7a9e3597ccd8af9970",
      "assetIds": []
    },
    {
      "x": 129,
      "y": 407,
      "size": 1,
      "price": "1011000000000000000000",
      "reserved": "",
      "salt": "0x1d19685a65243a0046e745572fbada1b1b2ee842bdf646fdb4c9d1b4395ef604",
      "assetIds": []
    },
    {
      "x": 130,
      "y": 348,
      "size": 1,
      "price": "1011000000000000000000",
      "reserved": "",
      "salt": "0xbc33624c1d3e34543feef84d1825266d91565cf999177440b74dec2986e34371",
      "assetIds": []
    },
    {
      "x": 130,
      "y": 349,
      "size": 1,
      "price": "1011000000000000000000",
      "reserved": "",
      "salt": "0x74dce38132c841c5ab2e98b9cae8881ff397fbe79e8414d19adbcee3f0063562",
      "assetIds": []
    },
    {
      "x": 130,
      "y": 350,
      "size": 1,
      "price": "1011000000000000000000",
      "reserved": "",
      "salt": "0x1bfd3635a30e9310538ea9dd7064b0b0c563685d45d9cc570d9bcc301eab01b4",
      "assetIds": []
    },
    {
      "x": 130,
      "y": 351,
      "size": 1,
      "price": "1011000000000000000000",
      "reserved": "",
      "salt": "0xa1c3e2a0382b5ed9656b41702f1a7660edb8d236df3247d748be1c2f1f35a309",
      "assetIds": []
    },
    {
      "x": 130,
      "y": 352,
      "size": 1,
      "price": "1011000000000000000000",
      "reserved": "",
      "salt": "0x9fbf91ce5693a9684f1f2e2e4a31da43c0fbb23f054e31cee46c59afcbca3f8c",
      "assetIds": []
    },
    {
      "x": 130,
      "y": 353,
      "size": 1,
      "price": "1011000000000000000000",
      "reserved": "",
      "salt": "0x2f834f9fdb855f7f89742f49e1d6ed933b5e115e7199b788bc0a536e4b44dcda",
      "assetIds": []
    },
    {
      "x": 130,
      "y": 354,
      "size": 1,
      "price": "1011000000000000000000",
      "reserved": "",
      "salt": "0x04e46f04a5bbc15b8c0eb433725fde29104f68fde940e9de3b286a7d52613464",
      "assetIds": []
    },
    {
      "x": 130,
      "y": 355,
      "size": 1,
      "price": "1011000000000000000000",
      "reserved": "",
      "salt": "0x937e5dfac8ca25f033b7859e7c46a69d906bb6699cf62c59d54d5e8561d04bfb",
      "assetIds": []
    },
    {
      "x": 130,
      "y": 356,
      "size": 1,
      "price": "1011000000000000000000",
      "reserved": "",
      "salt": "0x539ed330acba9fe4fa3507e596cd46bfaef0b42634f0cf5b7433d245a347d732",
      "assetIds": []
    },
    {
      "x": 130,
      "y": 357,
      "size": 1,
      "price": "1011000000000000000000",
      "reserved": "",
      "salt": "0xd71b515564978f0757d911e46e58cc474c1032a0be99336790325394abbcad54",
      "assetIds": []
    },
    {
      "x": 130,
      "y": 358,
      "size": 1,
      "price": "4683000000000000000000",
      "reserved": "",
      "salt": "0x21501876540df71cbd855b022448489fdb6c1a6e656ca89475218d5b728f7f49",
      "assetIds": [
        "55464657044963196816950587289035428064568320970692304673817341489687757334528",
        "55464657044963196816950587289035428064568320970692304673817341489687757334529",
        "55464657044963196816950587289035428064568320970692304673817341489687757334530",
        "55464657044963196816950587289035428064568320970692304673817341489687757334531",
        "55464657044963196816950587289035428064568320970692304673817341489687757334532"
      ]
    },
    {
      "x": 130,
      "y": 359,
      "size": 1,
      "price": "4683000000000000000000",
      "reserved": "",
      "salt": "0x197cbfcf3f16e8e0a0f058215f7e1b2b51a2be9417ddc119631fff008ba58ebc",
      "assetIds": [
        "55464657044963196816950587289035428064568320970692304673817341489687757334528",
        "55464657044963196816950587289035428064568320970692304673817341489687757334529",
        "55464657044963196816950587289035428064568320970692304673817341489687757334530",
        "55464657044963196816950587289035428064568320970692304673817341489687757334531",
        "55464657044963196816950587289035428064568320970692304673817341489687757334532"
      ]
    },
    {
      "x": 130,
      "y": 360,
      "size": 1,
      "price": "1011000000000000000000",
      "reserved": "0x7a9fe22691c811ea339d9b73150e6911a5343dca",
      "salt": "0x686a11b5f7bbc09757a089ae7255b69c794b2a987e413654d7e60f10a0a32a3a",
      "assetIds": []
    },
    {
      "x": 130,
      "y": 361,
      "size": 1,
      "price": "1011000000000000000000",
      "reserved": "",
      "salt": "0xe5b674053c6881a4a43243b6905646b319d957c58d0d5a22d4ed767ed4d85d8c",
      "assetIds": []
    },
    {
      "x": 130,
      "y": 362,
      "size": 1,
      "price": "1011000000000000000000",
      "reserved": "",
      "salt": "0x74e2f14e646b280301fcdbbdb75ce91e353f45c874ce6bbe2a7d13cf17e99af2",
      "assetIds": []
    },
    {
      "x": 130,
      "y": 363,
      "size": 1,
      "price": "1011000000000000000000",
      "reserved": "",
      "salt": "0xf988c0e3f97ff6dd681980fc218733209b603a78b1726de9a59f4f4524b24340",
      "assetIds": []
    },
    {
      "x": 130,
      "y": 364,
      "size": 1,
      "price": "1011000000000000000000",
      "reserved": "",
      "salt": "0x9fb912363a6a0eedc1e2a2176a7322e35925278e01ca04f575650f4f748e1066",
      "assetIds": []
    },
    {
      "x": 130,
      "y": 365,
      "size": 1,
      "price": "1011000000000000000000",
      "reserved": "",
      "salt": "0x54d8093e890ff67319a4dd858fb97977ec58461d11addda2feb489fcde30c8f1",
      "assetIds": []
    },
    {
      "x": 130,
      "y": 369,
      "size": 1,
      "price": "1011000000000000000000",
      "reserved": "",
      "salt": "0xa8f3f9f330f8d9c6911e2b0669a0a3c42c7850b0709954038fa58b967024fe8f",
      "assetIds": []
    },
    {
      "x": 130,
      "y": 370,
      "size": 1,
      "price": "1011000000000000000000",
      "reserved": "0x7a9fe22691c811ea339d9b73150e6911a5343dca",
      "salt": "0xfba14f6b5afb6b234f0ec3a417e86df83f8e64e93538a69bc2da642095bb8af4",
      "assetIds": []
    },
    {
      "x": 130,
      "y": 371,
      "size": 1,
      "price": "4683000000000000000000",
      "reserved": "",
      "salt": "0xe9e739700087aff0fb713c1fe590135b823d6d6c1b96fc8a5610ea81de2c3657",
      "assetIds": [
        "55464657044963196816950587289035428064568320970692304673817341489687757334528",
        "55464657044963196816950587289035428064568320970692304673817341489687757334529",
        "55464657044963196816950587289035428064568320970692304673817341489687757334530",
        "55464657044963196816950587289035428064568320970692304673817341489687757334531",
        "55464657044963196816950587289035428064568320970692304673817341489687757334532"
      ]
    },
    {
      "x": 130,
      "y": 378,
      "size": 1,
      "price": "4683000000000000000000",
      "reserved": "",
      "salt": "0x6e470ca7c9c7be558911087eebcb62de40983d5262e3d91e03c2693b885149f1",
      "assetIds": [
        "55464657044963196816950587289035428064568320970692304673817341489687757334528",
        "55464657044963196816950587289035428064568320970692304673817341489687757334529",
        "55464657044963196816950587289035428064568320970692304673817341489687757334530",
        "55464657044963196816950587289035428064568320970692304673817341489687757334531",
        "55464657044963196816950587289035428064568320970692304673817341489687757334532"
      ]
    },
    {
      "x": 130,
      "y": 379,
      "size": 1,
      "price": "4683000000000000000000",
      "reserved": "",
      "salt": "0x17e6216a023f43f1f7cedca72662e976153a5510546af1ae4f1e073b9be9be97",
      "assetIds": [
        "55464657044963196816950587289035428064568320970692304673817341489687757334528",
        "55464657044963196816950587289035428064568320970692304673817341489687757334529",
        "55464657044963196816950587289035428064568320970692304673817341489687757334530",
        "55464657044963196816950587289035428064568320970692304673817341489687757334531",
        "55464657044963196816950587289035428064568320970692304673817341489687757334532"
      ]
    },
    {
      "x": 130,
      "y": 380,
      "size": 1,
      "price": "1011000000000000000000",
      "reserved": "0x7a9fe22691c811ea339d9b73150e6911a5343dca",
      "salt": "0x94a3cfa293fd79cee1a019e78240e67ca2098591737a5caa1b8d692564afb9cf",
      "assetIds": []
    },
    {
      "x": 130,
      "y": 381,
      "size": 1,
      "price": "4683000000000000000000",
      "reserved": "",
      "salt": "0x060fc3f5b3d7c30b72bca2ef1e491ff5337144ea8f9338e522f81b193943705c",
      "assetIds": [
        "55464657044963196816950587289035428064568320970692304673817341489687757334528",
        "55464657044963196816950587289035428064568320970692304673817341489687757334529",
        "55464657044963196816950587289035428064568320970692304673817341489687757334530",
        "55464657044963196816950587289035428064568320970692304673817341489687757334531",
        "55464657044963196816950587289035428064568320970692304673817341489687757334532"
      ]
    },
    {
      "x": 130,
      "y": 382,
      "size": 1,
      "price": "4683000000000000000000",
      "reserved": "",
      "salt": "0x0704710fb25e88966fc6c290c46960a7259a43c1b249cc05e2d4a90ca775308f",
      "assetIds": [
        "55464657044963196816950587289035428064568320970692304673817341489687757334528",
        "55464657044963196816950587289035428064568320970692304673817341489687757334529",
        "55464657044963196816950587289035428064568320970692304673817341489687757334530",
        "55464657044963196816950587289035428064568320970692304673817341489687757334531",
        "55464657044963196816950587289035428064568320970692304673817341489687757334532"
      ]
    },
    {
      "x": 130,
      "y": 383,
      "size": 1,
      "price": "4683000000000000000000",
      "reserved": "",
      "salt": "0xd7b491d56ae005c6e0e2c35a5ff1abacd99e829b2e4d368c1418d6db9fcf3ae4",
      "assetIds": [
        "55464657044963196816950587289035428064568320970692304673817341489687757334528",
        "55464657044963196816950587289035428064568320970692304673817341489687757334529",
        "55464657044963196816950587289035428064568320970692304673817341489687757334530",
        "55464657044963196816950587289035428064568320970692304673817341489687757334531",
        "55464657044963196816950587289035428064568320970692304673817341489687757334532"
      ]
    },
    {
      "x": 130,
      "y": 396,
      "size": 1,
      "price": "1011000000000000000000",
      "reserved": "",
      "salt": "0xcb2e301a218987a7ff474e0553fd607025a29805088b0f232f31997ade81bf4e",
      "assetIds": []
    },
    {
      "x": 130,
      "y": 397,
      "size": 1,
      "price": "1011000000000000000000",
      "reserved": "",
      "salt": "0xc70e1a71403e8ace858dcbf8cb941cbeca8099b70466b26061e626fd15cde19b",
      "assetIds": []
    },
    {
      "x": 130,
      "y": 398,
      "size": 1,
      "price": "1011000000000000000000",
      "reserved": "",
      "salt": "0xff92049ea57239d72ed9bac62dc0534130f52c6ed1c50453afe42f51a42af11b",
      "assetIds": []
    },
    {
      "x": 130,
      "y": 399,
      "size": 1,
      "price": "1011000000000000000000",
      "reserved": "0x7a9fe22691c811ea339d9b73150e6911a5343dca",
      "salt": "0xbbeb31e856003d8c018c02cc60bf0a41bed597c628dcc8b0a18aef22ab351ff8",
      "assetIds": []
    },
    {
      "x": 130,
      "y": 400,
      "size": 1,
      "price": "1011000000000000000000",
      "reserved": "",
      "salt": "0x437702ca49001b39ae90e430f4b17218cedc79649430eac06bd9d85c2c94511c",
      "assetIds": []
    },
    {
      "x": 130,
      "y": 401,
      "size": 1,
      "price": "1011000000000000000000",
      "reserved": "",
      "salt": "0x363fd1cf290f388a0d9b59e70b68cb8eb1868dbeb540ebdd70a81121b37505a2",
      "assetIds": []
    },
    {
      "x": 130,
      "y": 402,
      "size": 1,
      "price": "1011000000000000000000",
      "reserved": "",
      "salt": "0x4d441ff612528e08569b1b02f13d258fb0664852c51b8d7fd465e69bfe427fd1",
      "assetIds": []
    },
    {
      "x": 130,
      "y": 403,
      "size": 1,
      "price": "1011000000000000000000",
      "reserved": "",
      "salt": "0x056e32a252531ffcdfbd360c14ef3b0b5de37fd55800c8fa4eda11cec0d90682",
      "assetIds": []
    },
    {
      "x": 130,
      "y": 404,
      "size": 1,
      "price": "1011000000000000000000",
      "reserved": "",
      "salt": "0xd197dca7cac04ea336b6162b6921dea8b2bc189996299b3981e0ac2a875ceb9a",
      "assetIds": []
    },
    {
      "x": 130,
      "y": 405,
      "size": 1,
      "price": "1011000000000000000000",
      "reserved": "",
      "salt": "0x0c6606cbae1c412cb2e275c9d92ffbd587ad0f35266e2572577c6bba90cc03dc",
      "assetIds": []
    },
    {
      "x": 130,
      "y": 406,
      "size": 1,
      "price": "1011000000000000000000",
      "reserved": "",
      "salt": "0x57c65d626c57e9999f9343b02af2a66b836e52ebda4de2b15d9da996b72efa91",
      "assetIds": []
    },
    {
      "x": 130,
      "y": 407,
      "size": 1,
      "price": "1011000000000000000000",
      "reserved": "0x7a9fe22691c811ea339d9b73150e6911a5343dca",
      "salt": "0xa1b007cfc91680479823d46564533626ca8d44653367199a4498aecfc573f50d",
      "assetIds": []
    },
    {
      "x": 131,
      "y": 348,
      "size": 1,
      "price": "4683000000000000000000",
      "reserved": "",
      "salt": "0x80ac08af342980f2889be230e593448c59e9c82044ba902e06950bc5d0aa15ff",
      "assetIds": [
        "55464657044963196816950587289035428064568320970692304673817341489687757334528",
        "55464657044963196816950587289035428064568320970692304673817341489687757334529",
        "55464657044963196816950587289035428064568320970692304673817341489687757334530",
        "55464657044963196816950587289035428064568320970692304673817341489687757334531",
        "55464657044963196816950587289035428064568320970692304673817341489687757334532"
      ]
    },
    {
      "x": 131,
      "y": 349,
      "size": 1,
      "price": "4683000000000000000000",
      "reserved": "",
      "salt": "0x35063620737c8879cb69928d7e7b5f1c125b9d1be1d8442d14fb605b8b5af848",
      "assetIds": [
        "55464657044963196816950587289035428064568320970692304673817341489687757334528",
        "55464657044963196816950587289035428064568320970692304673817341489687757334529",
        "55464657044963196816950587289035428064568320970692304673817341489687757334530",
        "55464657044963196816950587289035428064568320970692304673817341489687757334531",
        "55464657044963196816950587289035428064568320970692304673817341489687757334532"
      ]
    },
    {
      "x": 131,
      "y": 350,
      "size": 1,
      "price": "4683000000000000000000",
      "reserved": "",
      "salt": "0x04879b31f07a6e907a155eed86b84de75d035e3b90df5a78061e12d8dbda299d",
      "assetIds": [
        "55464657044963196816950587289035428064568320970692304673817341489687757334528",
        "55464657044963196816950587289035428064568320970692304673817341489687757334529",
        "55464657044963196816950587289035428064568320970692304673817341489687757334530",
        "55464657044963196816950587289035428064568320970692304673817341489687757334531",
        "55464657044963196816950587289035428064568320970692304673817341489687757334532"
      ]
    },
    {
      "x": 131,
      "y": 351,
      "size": 1,
      "price": "4683000000000000000000",
      "reserved": "",
      "salt": "0x88a0de1b9575e318aede53d9d47591547d7c35462e2b7515b7afe7c88d636e05",
      "assetIds": [
        "55464657044963196816950587289035428064568320970692304673817341489687757334528",
        "55464657044963196816950587289035428064568320970692304673817341489687757334529",
        "55464657044963196816950587289035428064568320970692304673817341489687757334530",
        "55464657044963196816950587289035428064568320970692304673817341489687757334531",
        "55464657044963196816950587289035428064568320970692304673817341489687757334532"
      ]
    },
    {
      "x": 131,
      "y": 352,
      "size": 1,
      "price": "4683000000000000000000",
      "reserved": "",
      "salt": "0x2b793383566d5577abb48b4b0b95602900ac5fd5a53459b71bfa1a738fa4f3bb",
      "assetIds": [
        "55464657044963196816950587289035428064568320970692304673817341489687757334528",
        "55464657044963196816950587289035428064568320970692304673817341489687757334529",
        "55464657044963196816950587289035428064568320970692304673817341489687757334530",
        "55464657044963196816950587289035428064568320970692304673817341489687757334531",
        "55464657044963196816950587289035428064568320970692304673817341489687757334532"
      ]
    },
    {
      "x": 131,
      "y": 353,
      "size": 1,
      "price": "4683000000000000000000",
      "reserved": "",
      "salt": "0xde861bb495d96a44980b30c0c75692f5c55aafaca7a7b5ede757ab183c7a68a7",
      "assetIds": [
        "55464657044963196816950587289035428064568320970692304673817341489687757334528",
        "55464657044963196816950587289035428064568320970692304673817341489687757334529",
        "55464657044963196816950587289035428064568320970692304673817341489687757334530",
        "55464657044963196816950587289035428064568320970692304673817341489687757334531",
        "55464657044963196816950587289035428064568320970692304673817341489687757334532"
      ]
    },
    {
      "x": 131,
      "y": 354,
      "size": 1,
      "price": "4683000000000000000000",
      "reserved": "",
      "salt": "0x4b80a85d719de42d94cadef2f8ce20406ea876431b357a70a3e3b04846e6a3bf",
      "assetIds": [
        "55464657044963196816950587289035428064568320970692304673817341489687757334528",
        "55464657044963196816950587289035428064568320970692304673817341489687757334529",
        "55464657044963196816950587289035428064568320970692304673817341489687757334530",
        "55464657044963196816950587289035428064568320970692304673817341489687757334531",
        "55464657044963196816950587289035428064568320970692304673817341489687757334532"
      ]
    },
    {
      "x": 131,
      "y": 355,
      "size": 1,
      "price": "1011000000000000000000",
      "reserved": "0x7a9fe22691c811ea339d9b73150e6911a5343dca",
      "salt": "0x1467f883f4820d7e611dfce19b30e4f57434de89e6340f130b13b4797fcbcfad",
      "assetIds": []
    },
    {
      "x": 131,
      "y": 356,
      "size": 1,
      "price": "4683000000000000000000",
      "reserved": "",
      "salt": "0xf4299ec9599e67f8aefcc12d2d32520ab897ab2a151eff6a0f0e6a9f5e4a595a",
      "assetIds": [
        "55464657044963196816950587289035428064568320970692304673817341489687757334528",
        "55464657044963196816950587289035428064568320970692304673817341489687757334529",
        "55464657044963196816950587289035428064568320970692304673817341489687757334530",
        "55464657044963196816950587289035428064568320970692304673817341489687757334531",
        "55464657044963196816950587289035428064568320970692304673817341489687757334532"
      ]
    },
    {
      "x": 131,
      "y": 357,
      "size": 1,
      "price": "4683000000000000000000",
      "reserved": "",
      "salt": "0x6d363da9ad51c71c31fb3b0cd60a6b728989562c0eb4f96ed71715637f5537e3",
      "assetIds": [
        "55464657044963196816950587289035428064568320970692304673817341489687757334528",
        "55464657044963196816950587289035428064568320970692304673817341489687757334529",
        "55464657044963196816950587289035428064568320970692304673817341489687757334530",
        "55464657044963196816950587289035428064568320970692304673817341489687757334531",
        "55464657044963196816950587289035428064568320970692304673817341489687757334532"
      ]
    },
    {
      "x": 131,
      "y": 358,
      "size": 1,
      "price": "4683000000000000000000",
      "reserved": "",
      "salt": "0x1d556d389d528889eac34b79b994ce46f49c65b15be3867c98f91c886637a71a",
      "assetIds": [
        "55464657044963196816950587289035428064568320970692304673817341489687757334528",
        "55464657044963196816950587289035428064568320970692304673817341489687757334529",
        "55464657044963196816950587289035428064568320970692304673817341489687757334530",
        "55464657044963196816950587289035428064568320970692304673817341489687757334531",
        "55464657044963196816950587289035428064568320970692304673817341489687757334532"
      ]
    },
    {
      "x": 131,
      "y": 359,
      "size": 1,
      "price": "4683000000000000000000",
      "reserved": "",
      "salt": "0x2d233287d0ea2198cbe4b32b7718b0113da209aa1be5f8c59a8c026e5f9574d7",
      "assetIds": [
        "55464657044963196816950587289035428064568320970692304673817341489687757334528",
        "55464657044963196816950587289035428064568320970692304673817341489687757334529",
        "55464657044963196816950587289035428064568320970692304673817341489687757334530",
        "55464657044963196816950587289035428064568320970692304673817341489687757334531",
        "55464657044963196816950587289035428064568320970692304673817341489687757334532"
      ]
    },
    {
      "x": 131,
      "y": 360,
      "size": 1,
      "price": "4683000000000000000000",
      "reserved": "",
      "salt": "0xde3ab279297374b3c59b4faf98c02067fca138281bd410cfc700952cad890ca1",
      "assetIds": [
        "55464657044963196816950587289035428064568320970692304673817341489687757334528",
        "55464657044963196816950587289035428064568320970692304673817341489687757334529",
        "55464657044963196816950587289035428064568320970692304673817341489687757334530",
        "55464657044963196816950587289035428064568320970692304673817341489687757334531",
        "55464657044963196816950587289035428064568320970692304673817341489687757334532"
      ]
    },
    {
      "x": 131,
      "y": 361,
      "size": 1,
      "price": "1011000000000000000000",
      "reserved": "",
      "salt": "0xd29eaf0f9a7613ca405896e988edbea225180b4a16fa65de139076205e38a769",
      "assetIds": []
    },
    {
      "x": 131,
      "y": 362,
      "size": 1,
      "price": "1011000000000000000000",
      "reserved": "0x7a9fe22691c811ea339d9b73150e6911a5343dca",
      "salt": "0x42102f472b3f77b23b6ade6c7f0e64e4fe39dd5fb642c46be6da2789400bdcc7",
      "assetIds": []
    },
    {
      "x": 131,
      "y": 363,
      "size": 1,
      "price": "1011000000000000000000",
      "reserved": "",
      "salt": "0x9a481a26d011fe74c122b4c0e7e9618c19f75720550a082a2cdc175100178e1f",
      "assetIds": []
    },
    {
      "x": 131,
      "y": 364,
      "size": 1,
      "price": "1011000000000000000000",
      "reserved": "0x7a9fe22691c811ea339d9b73150e6911a5343dca",
      "salt": "0xf166c866f3d633943260622ac2fadd6c139dd554b3bc7c4bb0ce13a43fde0cb9",
      "assetIds": []
    },
    {
      "x": 131,
      "y": 365,
      "size": 1,
      "price": "1011000000000000000000",
      "reserved": "",
      "salt": "0x2463770e19da6c718c34a0bc80f9a189511945f8c27df261dc1b0a4c0f4385cf",
      "assetIds": []
    },
    {
      "x": 131,
      "y": 369,
      "size": 1,
      "price": "1011000000000000000000",
      "reserved": "",
      "salt": "0x3f7b6afcd17f2777802dde64501ed694f62b234f1e06e13ec5190033a6f68411",
      "assetIds": []
    },
    {
      "x": 131,
      "y": 370,
      "size": 1,
      "price": "4683000000000000000000",
      "reserved": "",
      "salt": "0x23f02c801441708c1f4fab247cac1ede0ea23084b8b9f8943f541258c2b03c0d",
      "assetIds": [
        "55464657044963196816950587289035428064568320970692304673817341489687757334528",
        "55464657044963196816950587289035428064568320970692304673817341489687757334529",
        "55464657044963196816950587289035428064568320970692304673817341489687757334530",
        "55464657044963196816950587289035428064568320970692304673817341489687757334531",
        "55464657044963196816950587289035428064568320970692304673817341489687757334532"
      ]
    },
    {
      "x": 131,
      "y": 371,
      "size": 1,
      "price": "4683000000000000000000",
      "reserved": "",
      "salt": "0x09e73483d669a80f0eae7ef56cc2ffa05cb1cb93af7eb4f46b3a1cbad2ec9579",
      "assetIds": [
        "55464657044963196816950587289035428064568320970692304673817341489687757334528",
        "55464657044963196816950587289035428064568320970692304673817341489687757334529",
        "55464657044963196816950587289035428064568320970692304673817341489687757334530",
        "55464657044963196816950587289035428064568320970692304673817341489687757334531",
        "55464657044963196816950587289035428064568320970692304673817341489687757334532"
      ]
    },
    {
      "x": 131,
      "y": 378,
      "size": 1,
      "price": "4683000000000000000000",
      "reserved": "",
      "salt": "0xd4017793199d5d94d0a0077af09329ab640d6e2f0623a1189f6cde5e1b5cf5d6",
      "assetIds": [
        "55464657044963196816950587289035428064568320970692304673817341489687757334528",
        "55464657044963196816950587289035428064568320970692304673817341489687757334529",
        "55464657044963196816950587289035428064568320970692304673817341489687757334530",
        "55464657044963196816950587289035428064568320970692304673817341489687757334531",
        "55464657044963196816950587289035428064568320970692304673817341489687757334532"
      ]
    },
    {
      "x": 131,
      "y": 379,
      "size": 1,
      "price": "4683000000000000000000",
      "reserved": "",
      "salt": "0x385ca6f2461de487724ab5e7d67e61eb8175cddb13d742c13d88150941732b6f",
      "assetIds": [
        "55464657044963196816950587289035428064568320970692304673817341489687757334528",
        "55464657044963196816950587289035428064568320970692304673817341489687757334529",
        "55464657044963196816950587289035428064568320970692304673817341489687757334530",
        "55464657044963196816950587289035428064568320970692304673817341489687757334531",
        "55464657044963196816950587289035428064568320970692304673817341489687757334532"
      ]
    },
    {
      "x": 131,
      "y": 380,
      "size": 1,
      "price": "4683000000000000000000",
      "reserved": "",
      "salt": "0x2ea2bf3f061f3b9fea62dcd6748c38188085379af12cc84c85c3f6e4456350f9",
      "assetIds": [
        "55464657044963196816950587289035428064568320970692304673817341489687757334528",
        "55464657044963196816950587289035428064568320970692304673817341489687757334529",
        "55464657044963196816950587289035428064568320970692304673817341489687757334530",
        "55464657044963196816950587289035428064568320970692304673817341489687757334531",
        "55464657044963196816950587289035428064568320970692304673817341489687757334532"
      ]
    },
    {
      "x": 131,
      "y": 381,
      "size": 1,
      "price": "4683000000000000000000",
      "reserved": "",
      "salt": "0x69507405eda5f406e1bafb923c0e278bb8bea49dde2d21f680f388ea5b7e3677",
      "assetIds": [
        "55464657044963196816950587289035428064568320970692304673817341489687757334528",
        "55464657044963196816950587289035428064568320970692304673817341489687757334529",
        "55464657044963196816950587289035428064568320970692304673817341489687757334530",
        "55464657044963196816950587289035428064568320970692304673817341489687757334531",
        "55464657044963196816950587289035428064568320970692304673817341489687757334532"
      ]
    },
    {
      "x": 131,
      "y": 382,
      "size": 1,
      "price": "4683000000000000000000",
      "reserved": "",
      "salt": "0x8bac4bbbfd80f2a97642d3f78ac6995fefa8f9d3a162fc890e9023aa709f8ab9",
      "assetIds": [
        "55464657044963196816950587289035428064568320970692304673817341489687757334528",
        "55464657044963196816950587289035428064568320970692304673817341489687757334529",
        "55464657044963196816950587289035428064568320970692304673817341489687757334530",
        "55464657044963196816950587289035428064568320970692304673817341489687757334531",
        "55464657044963196816950587289035428064568320970692304673817341489687757334532"
      ]
    },
    {
      "x": 131,
      "y": 383,
      "size": 1,
      "price": "4683000000000000000000",
      "reserved": "",
      "salt": "0xa80477c0d424d4a35f58b07bc286d953165d35711fa346fa77ea8700a4ccba9c",
      "assetIds": [
        "55464657044963196816950587289035428064568320970692304673817341489687757334528",
        "55464657044963196816950587289035428064568320970692304673817341489687757334529",
        "55464657044963196816950587289035428064568320970692304673817341489687757334530",
        "55464657044963196816950587289035428064568320970692304673817341489687757334531",
        "55464657044963196816950587289035428064568320970692304673817341489687757334532"
      ]
    },
    {
      "x": 131,
      "y": 396,
      "size": 1,
      "price": "1011000000000000000000",
      "reserved": "",
      "salt": "0x2b2184d23e1e9cf21882a176fb79b2dbcfb012ea13be4a4cacdd5739ccbc7617",
      "assetIds": []
    },
    {
      "x": 131,
      "y": 397,
      "size": 1,
      "price": "1011000000000000000000",
      "reserved": "",
      "salt": "0x9df7c59339ebeddfe243e3913b6b0468fc7075e1f1feca911b2a6d7040723240",
      "assetIds": []
    },
    {
      "x": 131,
      "y": 398,
      "size": 1,
      "price": "1011000000000000000000",
      "reserved": "",
      "salt": "0x483f378099eb260915238f45d71c9d89bd5a285d260a783e4168b14238ed984b",
      "assetIds": []
    },
    {
      "x": 131,
      "y": 399,
      "size": 1,
      "price": "1011000000000000000000",
      "reserved": "0x7a9fe22691c811ea339d9b73150e6911a5343dca",
      "salt": "0xcd35e7e1246dbd758cb3a4832d4a974ebf4092a25562e7f49d35ce960fcdee31",
      "assetIds": []
    },
    {
      "x": 131,
      "y": 400,
      "size": 1,
      "price": "1011000000000000000000",
      "reserved": "",
      "salt": "0x031b829066f7c24d929a897fde6ed840204ea5613a557bbf619b4941f617affc",
      "assetIds": []
    },
    {
      "x": 131,
      "y": 401,
      "size": 1,
      "price": "1011000000000000000000",
      "reserved": "0x7a9fe22691c811ea339d9b73150e6911a5343dca",
      "salt": "0x1609a6c25e658cb9256c81dcd84cd08c294ac895d8823306dee2c0a964299644",
      "assetIds": []
    },
    {
      "x": 131,
      "y": 402,
      "size": 1,
      "price": "1011000000000000000000",
      "reserved": "",
      "salt": "0x986f8fd551f880e65c7c104c655968a3e0d6e2a2e0b2bc3051474f30b12024f5",
      "assetIds": []
    },
    {
      "x": 131,
      "y": 403,
      "size": 1,
      "price": "1011000000000000000000",
      "reserved": "",
      "salt": "0x5ba50003806aee84d217431bb8c4e7093fdf51e86175a4fc53fd04b4958a5c9a",
      "assetIds": []
    },
    {
      "x": 131,
      "y": 404,
      "size": 1,
      "price": "1011000000000000000000",
      "reserved": "",
      "salt": "0x1b6c1f641dd3454177185136a988e2504c65070c0c0ecebad41b93d7ceaa70a0",
      "assetIds": []
    },
    {
      "x": 131,
      "y": 405,
      "size": 1,
      "price": "1011000000000000000000",
      "reserved": "0x7a9fe22691c811ea339d9b73150e6911a5343dca",
      "salt": "0xdb210c9b420a88a038b0278f63ca7fbf1168c75f869db4f2dac1955858d34d46",
      "assetIds": []
    },
    {
      "x": 131,
      "y": 406,
      "size": 1,
      "price": "1011000000000000000000",
      "reserved": "",
      "salt": "0x56c3c1bda93adca791e2e2b4b98b9c0819b48aba36d38ed266721e7346b38daf",
      "assetIds": []
    },
    {
      "x": 131,
      "y": 407,
      "size": 1,
      "price": "1011000000000000000000",
      "reserved": "",
      "salt": "0x441791c4f9be45c2e01848eb32be43c3f1f1a7f5b193b317da0ee4a70a8718a6",
      "assetIds": []
    },
    {
      "x": 132,
      "y": 346,
      "size": 1,
      "price": "1011000000000000000000",
      "reserved": "",
      "salt": "0x13051424a3af7d8a9bcb3e4cdd76cb772bcfbed24ed54f59d135aede50321586",
      "assetIds": []
    },
    {
      "x": 132,
      "y": 347,
      "size": 1,
      "price": "4683000000000000000000",
      "reserved": "",
      "salt": "0xd4b3f32ae101ce0c008337b875f0da49bede6835b68202661c5a88a73ce68a4b",
      "assetIds": [
        "55464657044963196816950587289035428064568320970692304673817341489687757334528",
        "55464657044963196816950587289035428064568320970692304673817341489687757334529",
        "55464657044963196816950587289035428064568320970692304673817341489687757334530",
        "55464657044963196816950587289035428064568320970692304673817341489687757334531",
        "55464657044963196816950587289035428064568320970692304673817341489687757334532"
      ]
    },
    {
      "x": 132,
      "y": 360,
      "size": 1,
      "price": "4683000000000000000000",
      "reserved": "",
      "salt": "0x4ed90100e10b5a8a05b2a8a36ef97b21a665bd4afd04261eefee2417d7a67b04",
      "assetIds": [
        "55464657044963196816950587289035428064568320970692304673817341489687757334528",
        "55464657044963196816950587289035428064568320970692304673817341489687757334529",
        "55464657044963196816950587289035428064568320970692304673817341489687757334530",
        "55464657044963196816950587289035428064568320970692304673817341489687757334531",
        "55464657044963196816950587289035428064568320970692304673817341489687757334532"
      ]
    },
    {
      "x": 132,
      "y": 361,
      "size": 1,
      "price": "1011000000000000000000",
      "reserved": "",
      "salt": "0x3bff6b756778508767c7d6b633cf0d66169a81d4bbd00943c776c36430561f55",
      "assetIds": []
    },
    {
      "x": 132,
      "y": 362,
      "size": 1,
      "price": "1011000000000000000000",
      "reserved": "",
      "salt": "0x4d18031507d79d297842b84183e1cbd37e974075f4cc82368e5e2397f1f5b430",
      "assetIds": []
    },
    {
      "x": 132,
      "y": 363,
      "size": 1,
      "price": "1011000000000000000000",
      "reserved": "",
      "salt": "0x92f849dba54b9cefbdd75a845ecba93f5a23e2f95c4ddf2c67da88cde9b36137",
      "assetIds": []
    },
    {
      "x": 132,
      "y": 364,
      "size": 1,
      "price": "1011000000000000000000",
      "reserved": "",
      "salt": "0x4773f105ff5b6c28dc7c3bfa12df7322507c098d3099da2824ad2b52ac42802b",
      "assetIds": []
    },
    {
      "x": 132,
      "y": 365,
      "size": 1,
      "price": "1011000000000000000000",
      "reserved": "",
      "salt": "0x637e0dad5fa0dd26101b8f920681cd0e9f75bdd190e75246f8e32bcf5108f422",
      "assetIds": []
    },
    {
      "x": 132,
      "y": 366,
      "size": 1,
      "price": "1011000000000000000000",
      "reserved": "",
      "salt": "0xf3e3477b0a03e0182c03b5cc44114ed37f8d780380317ae0f5fdaef4720322e5",
      "assetIds": []
    },
    {
      "x": 132,
      "y": 367,
      "size": 1,
      "price": "1011000000000000000000",
      "reserved": "",
      "salt": "0xbae80f0956a19bec82dafd86983feb55adfb6ea6458b4a7c069db31219512d17",
      "assetIds": []
    },
    {
      "x": 132,
      "y": 368,
      "size": 1,
      "price": "1011000000000000000000",
      "reserved": "0x7a9fe22691c811ea339d9b73150e6911a5343dca",
      "salt": "0xcd17159e66e0595daef5f2c43fa85364f49874a59cb1abbf7818224a247513b7",
      "assetIds": []
    },
    {
      "x": 132,
      "y": 369,
      "size": 1,
      "price": "1011000000000000000000",
      "reserved": "",
      "salt": "0xa7bea3c6712673657ad3984433c02fa7fec442bbd256fba8b58c168272a369be",
      "assetIds": []
    },
    {
      "x": 132,
      "y": 370,
      "size": 1,
      "price": "1011000000000000000000",
      "reserved": "",
      "salt": "0xa3d06f9bf8acad36acb31b84e09f701f12ca0069a1a88426de1d48eb6abce921",
      "assetIds": []
    },
    {
      "x": 132,
      "y": 371,
      "size": 1,
      "price": "4683000000000000000000",
      "reserved": "",
      "salt": "0x337156bae4d35e4dfdb7f58149087a381aee5ccf18a8e61a498416c0e8124ee7",
      "assetIds": [
        "55464657044963196816950587289035428064568320970692304673817341489687757334528",
        "55464657044963196816950587289035428064568320970692304673817341489687757334529",
        "55464657044963196816950587289035428064568320970692304673817341489687757334530",
        "55464657044963196816950587289035428064568320970692304673817341489687757334531",
        "55464657044963196816950587289035428064568320970692304673817341489687757334532"
      ]
    },
    {
      "x": 132,
      "y": 384,
      "size": 1,
      "price": "4683000000000000000000",
      "reserved": "",
      "salt": "0x3d9abd54dd52c384fbf1b7423762863a32807764ca1546e3609459839abdddb5",
      "assetIds": [
        "55464657044963196816950587289035428064568320970692304673817341489687757334528",
        "55464657044963196816950587289035428064568320970692304673817341489687757334529",
        "55464657044963196816950587289035428064568320970692304673817341489687757334530",
        "55464657044963196816950587289035428064568320970692304673817341489687757334531",
        "55464657044963196816950587289035428064568320970692304673817341489687757334532"
      ]
    },
    {
      "x": 132,
      "y": 385,
      "size": 1,
      "price": "4683000000000000000000",
      "reserved": "",
      "salt": "0xd5e322ac5193527b2c8ffc4be619a8de38f87096060f47bf2532265185fd2fe3",
      "assetIds": [
        "55464657044963196816950587289035428064568320970692304673817341489687757334528",
        "55464657044963196816950587289035428064568320970692304673817341489687757334529",
        "55464657044963196816950587289035428064568320970692304673817341489687757334530",
        "55464657044963196816950587289035428064568320970692304673817341489687757334531",
        "55464657044963196816950587289035428064568320970692304673817341489687757334532"
      ]
    },
    {
      "x": 132,
      "y": 386,
      "size": 1,
      "price": "4683000000000000000000",
      "reserved": "",
      "salt": "0x233326754e7f528670ca6ddcae750dab338a6f11e9d5ce567404b4e9ca1c38cc",
      "assetIds": [
        "55464657044963196816950587289035428064568320970692304673817341489687757334528",
        "55464657044963196816950587289035428064568320970692304673817341489687757334529",
        "55464657044963196816950587289035428064568320970692304673817341489687757334530",
        "55464657044963196816950587289035428064568320970692304673817341489687757334531",
        "55464657044963196816950587289035428064568320970692304673817341489687757334532"
      ]
    },
    {
      "x": 132,
      "y": 387,
      "size": 1,
      "price": "4683000000000000000000",
      "reserved": "",
      "salt": "0x51c346b449afe4f433141f6b12b41d45b3628adc9425d23b387205e94996ca19",
      "assetIds": [
        "55464657044963196816950587289035428064568320970692304673817341489687757334528",
        "55464657044963196816950587289035428064568320970692304673817341489687757334529",
        "55464657044963196816950587289035428064568320970692304673817341489687757334530",
        "55464657044963196816950587289035428064568320970692304673817341489687757334531",
        "55464657044963196816950587289035428064568320970692304673817341489687757334532"
      ]
    },
    {
      "x": 132,
      "y": 388,
      "size": 1,
      "price": "4683000000000000000000",
      "reserved": "",
      "salt": "0x04ef4603115c883de7c2b4ae18317f95b775c8106fccb6f5c8e13d4a7d5b4b9e",
      "assetIds": [
        "55464657044963196816950587289035428064568320970692304673817341489687757334528",
        "55464657044963196816950587289035428064568320970692304673817341489687757334529",
        "55464657044963196816950587289035428064568320970692304673817341489687757334530",
        "55464657044963196816950587289035428064568320970692304673817341489687757334531",
        "55464657044963196816950587289035428064568320970692304673817341489687757334532"
      ]
    },
    {
      "x": 132,
      "y": 389,
      "size": 1,
      "price": "4683000000000000000000",
      "reserved": "",
      "salt": "0xa72c91514f051ee4207429256070cdeb2ffbc21a94c1cf43c6120f947afaebc4",
      "assetIds": [
        "55464657044963196816950587289035428064568320970692304673817341489687757334528",
        "55464657044963196816950587289035428064568320970692304673817341489687757334529",
        "55464657044963196816950587289035428064568320970692304673817341489687757334530",
        "55464657044963196816950587289035428064568320970692304673817341489687757334531",
        "55464657044963196816950587289035428064568320970692304673817341489687757334532"
      ]
    },
    {
      "x": 132,
      "y": 393,
      "size": 1,
      "price": "1011000000000000000000",
      "reserved": "0x7a9fe22691c811ea339d9b73150e6911a5343dca",
      "salt": "0x605bb19b10b976f4aee516c77e22b796fb2ea66f1b56d9ec7e72e2ea097eb245",
      "assetIds": []
    },
    {
      "x": 132,
      "y": 394,
      "size": 1,
      "price": "1011000000000000000000",
      "reserved": "",
      "salt": "0xe656e4ce72f57537e5e922eac17d84e1b368eb5374c1e4a4c63dae8313bd4bd7",
      "assetIds": []
    },
    {
      "x": 132,
      "y": 395,
      "size": 1,
      "price": "1011000000000000000000",
      "reserved": "",
      "salt": "0xf4bd9a87e1fe3b2210ae914335ebce9327e6b7ac3b288c491d5791098f30e3da",
      "assetIds": []
    },
    {
      "x": 132,
      "y": 402,
      "size": 1,
      "price": "1011000000000000000000",
      "reserved": "",
      "salt": "0x3e8ee1a0b9a91b1631c8260ea21e35e03db20a6d8b970b49ff4432e94a5a301f",
      "assetIds": []
    },
    {
      "x": 132,
      "y": 403,
      "size": 1,
      "price": "1011000000000000000000",
      "reserved": "",
      "salt": "0x8abb704f53855c786fc2879d5a773e8630f809035d6e07d96a0cbf504490670d",
      "assetIds": []
    },
    {
      "x": 132,
      "y": 404,
      "size": 1,
      "price": "1011000000000000000000",
      "reserved": "0x7a9fe22691c811ea339d9b73150e6911a5343dca",
      "salt": "0x9c620095b6fda549fd14f68a30f86a4eb4786a12a394d0621169b2e12e57d8b0",
      "assetIds": []
    },
    {
      "x": 132,
      "y": 405,
      "size": 1,
      "price": "1011000000000000000000",
      "reserved": "",
      "salt": "0x8638f599421e4321c81b3e6f2eb00b7bbc43882c83864797809dfc630d887151",
      "assetIds": []
    },
    {
      "x": 132,
      "y": 406,
      "size": 1,
      "price": "1011000000000000000000",
      "reserved": "",
      "salt": "0x5c28c764db4c5a6dda8d42902f3de3952a06ff4566e0fb87f74ca71f91e2e126",
      "assetIds": []
    },
    {
      "x": 132,
      "y": 407,
      "size": 1,
      "price": "1011000000000000000000",
      "reserved": "",
      "salt": "0x9feadb8a25fa8b64c7c38c055c61efacda5b4d8b70ec7419905d531ac8afc8a7",
      "assetIds": []
    },
    {
      "x": 133,
      "y": 346,
      "size": 1,
      "price": "1011000000000000000000",
      "reserved": "",
      "salt": "0x868dadac1cf5ec7b01eb62c9f5b9ea5d3071b0a65ba249bae190873e8fcea051",
      "assetIds": []
    },
    {
      "x": 133,
      "y": 347,
      "size": 1,
      "price": "4683000000000000000000",
      "reserved": "",
      "salt": "0x98d27f7ead76807d3319869e9581e5c6f8d6b920d89fe69920e363efdbb25604",
      "assetIds": [
        "55464657044963196816950587289035428064568320970692304673817341489687757334528",
        "55464657044963196816950587289035428064568320970692304673817341489687757334529",
        "55464657044963196816950587289035428064568320970692304673817341489687757334530",
        "55464657044963196816950587289035428064568320970692304673817341489687757334531",
        "55464657044963196816950587289035428064568320970692304673817341489687757334532"
      ]
    },
    {
      "x": 133,
      "y": 360,
      "size": 1,
      "price": "4683000000000000000000",
      "reserved": "",
      "salt": "0x7d87bfe073240bc97d3fae0632e9537e14948283db807f272cae9031c8c3ff07",
      "assetIds": [
        "55464657044963196816950587289035428064568320970692304673817341489687757334528",
        "55464657044963196816950587289035428064568320970692304673817341489687757334529",
        "55464657044963196816950587289035428064568320970692304673817341489687757334530",
        "55464657044963196816950587289035428064568320970692304673817341489687757334531",
        "55464657044963196816950587289035428064568320970692304673817341489687757334532"
      ]
    },
    {
      "x": 133,
      "y": 361,
      "size": 1,
      "price": "1011000000000000000000",
      "reserved": "",
      "salt": "0xce441ddbb68301ea0db0588e9ea9889f2397ed4ff3e704d7f77a82e2f7908e2e",
      "assetIds": []
    },
    {
      "x": 133,
      "y": 362,
      "size": 1,
      "price": "1011000000000000000000",
      "reserved": "0x7a9fe22691c811ea339d9b73150e6911a5343dca",
      "salt": "0x4e48ac0684b7f97f17409e6e5b7d27054c6d61f66eed342b447cdacd3b4e3ec7",
      "assetIds": []
    },
    {
      "x": 133,
      "y": 363,
      "size": 1,
      "price": "1011000000000000000000",
      "reserved": "",
      "salt": "0xdbb25ec86ec0d73817065804bb2153771464b9282be4a7f4119546d146fbed95",
      "assetIds": []
    },
    {
      "x": 133,
      "y": 364,
      "size": 1,
      "price": "1011000000000000000000",
      "reserved": "",
      "salt": "0x963cf832c4728538cfbc93ff99840ae7a839c294745b1bc812ad1133e85aca9b",
      "assetIds": []
    },
    {
      "x": 133,
      "y": 365,
      "size": 1,
      "price": "1011000000000000000000",
      "reserved": "",
      "salt": "0x4242ee0d5dab3fbe344ddd528dab2134698855e2db2e717e05cf7dd32f48b055",
      "assetIds": []
    },
    {
      "x": 133,
      "y": 366,
      "size": 1,
      "price": "1011000000000000000000",
      "reserved": "",
      "salt": "0x5892d60d8d39fe71bd6c48ea053a7c64dcee217ebf7e929661c86a80e69946a9",
      "assetIds": []
    },
    {
      "x": 133,
      "y": 367,
      "size": 1,
      "price": "1011000000000000000000",
      "reserved": "",
      "salt": "0x50a8549ef659e9a90daddfdbc1930ff5429e72122359d595dc959acc9f403532",
      "assetIds": []
    },
    {
      "x": 133,
      "y": 368,
      "size": 1,
      "price": "1011000000000000000000",
      "reserved": "",
      "salt": "0x47bf1a4c539295cd1cd2e01f1ac3a21dc9ba65fee2db74237a416bf7ebd4dc15",
      "assetIds": []
    },
    {
      "x": 133,
      "y": 369,
      "size": 1,
      "price": "1011000000000000000000",
      "reserved": "",
      "salt": "0xc3ef2a9af2414c81cc1064217661b84bda08d80707a72c7118c21d1092505e4b",
      "assetIds": []
    },
    {
      "x": 133,
      "y": 370,
      "size": 1,
      "price": "1011000000000000000000",
      "reserved": "",
      "salt": "0x2416357c7fb142eb347815a89df6cff4d504ab45515859401ee67c6c02adb2fd",
      "assetIds": []
    },
    {
      "x": 133,
      "y": 371,
      "size": 1,
      "price": "4683000000000000000000",
      "reserved": "",
      "salt": "0xaefa8dbc8cddfb6cffdba7f0618a2c55fdf4d100f7b2d498d0aa8cb36a60917c",
      "assetIds": [
        "55464657044963196816950587289035428064568320970692304673817341489687757334528",
        "55464657044963196816950587289035428064568320970692304673817341489687757334529",
        "55464657044963196816950587289035428064568320970692304673817341489687757334530",
        "55464657044963196816950587289035428064568320970692304673817341489687757334531",
        "55464657044963196816950587289035428064568320970692304673817341489687757334532"
      ]
    },
    {
      "x": 133,
      "y": 384,
      "size": 1,
      "price": "4683000000000000000000",
      "reserved": "",
      "salt": "0xddc00a91d8cb92b45d0876f4c16980b09c94c1f453641b80a80942f891b8bc9e",
      "assetIds": [
        "55464657044963196816950587289035428064568320970692304673817341489687757334528",
        "55464657044963196816950587289035428064568320970692304673817341489687757334529",
        "55464657044963196816950587289035428064568320970692304673817341489687757334530",
        "55464657044963196816950587289035428064568320970692304673817341489687757334531",
        "55464657044963196816950587289035428064568320970692304673817341489687757334532"
      ]
    },
    {
      "x": 133,
      "y": 385,
      "size": 1,
      "price": "4683000000000000000000",
      "reserved": "",
      "salt": "0xd83fcbad1c9f33ec9f22d4dc469002b8bf106d734dffa248808fa7c689280408",
      "assetIds": [
        "55464657044963196816950587289035428064568320970692304673817341489687757334528",
        "55464657044963196816950587289035428064568320970692304673817341489687757334529",
        "55464657044963196816950587289035428064568320970692304673817341489687757334530",
        "55464657044963196816950587289035428064568320970692304673817341489687757334531",
        "55464657044963196816950587289035428064568320970692304673817341489687757334532"
      ]
    },
    {
      "x": 133,
      "y": 386,
      "size": 1,
      "price": "1011000000000000000000",
      "reserved": "",
      "salt": "0x408c9ce1709c9745b9910bbbf87438b030b31864e31349ddf238a79bdd5d6632",
      "assetIds": []
    },
    {
      "x": 133,
      "y": 387,
      "size": 1,
      "price": "1011000000000000000000",
      "reserved": "",
      "salt": "0xe3f46d4c0c88f83811333879932a7f322508212fa8028a957086a1390480dc9c",
      "assetIds": []
    },
    {
      "x": 133,
      "y": 388,
      "size": 1,
      "price": "1011000000000000000000",
      "reserved": "0x7a9fe22691c811ea339d9b73150e6911a5343dca",
      "salt": "0x195fdd0bd21454197da69bcceafbf303bcacb60058327b015b5839ba253576a9",
      "assetIds": []
    },
    {
      "x": 133,
      "y": 389,
      "size": 1,
      "price": "1011000000000000000000",
      "reserved": "",
      "salt": "0xb9f2c67043382e68c07433558f9ecb35c2a1a2ae98dc95e3be59c94997cc2b4e",
      "assetIds": []
    },
    {
      "x": 133,
      "y": 393,
      "size": 1,
      "price": "1011000000000000000000",
      "reserved": "",
      "salt": "0x6b4f76b3f67393510ae9b329003a4802bf714360156bcc77bd5472286aeee9bc",
      "assetIds": []
    },
    {
      "x": 133,
      "y": 394,
      "size": 1,
      "price": "1011000000000000000000",
      "reserved": "",
      "salt": "0xc0071c6c0033dc3221dcac8eb85fabe219913a7f74312b19e531b73962da69a4",
      "assetIds": []
    },
    {
      "x": 133,
      "y": 395,
      "size": 1,
      "price": "1011000000000000000000",
      "reserved": "",
      "salt": "0x36fbf17db64f638baad81607ddf6358608c749119a681cc27de1ed06e66549f6",
      "assetIds": []
    },
    {
      "x": 133,
      "y": 402,
      "size": 1,
      "price": "1011000000000000000000",
      "reserved": "",
      "salt": "0xa58a51ab206944a21b9f2a92b868d6db39c15bb8653a7f717c87d7a1e9320d01",
      "assetIds": []
    },
    {
      "x": 133,
      "y": 403,
      "size": 1,
      "price": "1011000000000000000000",
      "reserved": "",
      "salt": "0xbd0a8d262ee5b49a5c9fec304f44a370eb0ebe878eedf5c82d65c475bdb7e8f8",
      "assetIds": []
    },
    {
      "x": 133,
      "y": 404,
      "size": 1,
      "price": "1011000000000000000000",
      "reserved": "",
      "salt": "0x1e9657dd8334dce4d19cfd964ed5e1d581f109a8d5f981cd43cd7d09d35864c3",
      "assetIds": []
    },
    {
      "x": 133,
      "y": 405,
      "size": 1,
      "price": "1011000000000000000000",
      "reserved": "0x7a9fe22691c811ea339d9b73150e6911a5343dca",
      "salt": "0x5d85dba7875bc23e5b7746662d4245c313fe6449fe222cb09140e0a50b16c7d8",
      "assetIds": []
    },
    {
      "x": 133,
      "y": 406,
      "size": 1,
      "price": "1011000000000000000000",
      "reserved": "",
      "salt": "0x0303d9707fdec1ef85dc64dd6f8f0df81b2f4e8c1e3e4f07e2a42d72ceb8a543",
      "assetIds": []
    },
    {
      "x": 133,
      "y": 407,
      "size": 1,
      "price": "1011000000000000000000",
      "reserved": "",
      "salt": "0x6bd0592875011c8197a0a3d761b9a63d7abf00b4a59e468468e32cee3299c2c2",
      "assetIds": []
    },
    {
      "x": 134,
      "y": 346,
      "size": 1,
      "price": "1011000000000000000000",
      "reserved": "",
      "salt": "0xfb434c5e46ebf6feb31ebc38df47d16e6482eb36365194c150c0d85e6d3cdc57",
      "assetIds": []
    },
    {
      "x": 134,
      "y": 347,
      "size": 1,
      "price": "4683000000000000000000",
      "reserved": "",
      "salt": "0x6b8097fdc8f72f79688bbf7d6963420c18a068531975d015636551cfd94922c9",
      "assetIds": [
        "55464657044963196816950587289035428064568320970692304673817341489687757334528",
        "55464657044963196816950587289035428064568320970692304673817341489687757334529",
        "55464657044963196816950587289035428064568320970692304673817341489687757334530",
        "55464657044963196816950587289035428064568320970692304673817341489687757334531",
        "55464657044963196816950587289035428064568320970692304673817341489687757334532"
      ]
    },
    {
      "x": 134,
      "y": 360,
      "size": 1,
      "price": "4683000000000000000000",
      "reserved": "",
      "salt": "0xaa3c356e1abc442cd8ac47f1bcabb11d63856dbb3fed26ff506467101c373d28",
      "assetIds": [
        "55464657044963196816950587289035428064568320970692304673817341489687757334528",
        "55464657044963196816950587289035428064568320970692304673817341489687757334529",
        "55464657044963196816950587289035428064568320970692304673817341489687757334530",
        "55464657044963196816950587289035428064568320970692304673817341489687757334531",
        "55464657044963196816950587289035428064568320970692304673817341489687757334532"
      ]
    },
    {
      "x": 134,
      "y": 361,
      "size": 1,
      "price": "1011000000000000000000",
      "reserved": "",
      "salt": "0xed13c06e063d43cdc69eda7df333152ed7cfdf0073cd933fcbb944176d9a45b4",
      "assetIds": []
    },
    {
      "x": 134,
      "y": 362,
      "size": 1,
      "price": "1011000000000000000000",
      "reserved": "0x7a9fe22691c811ea339d9b73150e6911a5343dca",
      "salt": "0xcc099e61b07d5b1ca0e9897fdb2275fed9ffaa055f67cbcb29c1b9db94c35270",
      "assetIds": []
    },
    {
      "x": 134,
      "y": 363,
      "size": 1,
      "price": "1011000000000000000000",
      "reserved": "0x7a9fe22691c811ea339d9b73150e6911a5343dca",
      "salt": "0xd21350b47207fcc295b0a08aff71266cfac17fc4ddd8d4d7e51160192a4dd144",
      "assetIds": []
    },
    {
      "x": 134,
      "y": 364,
      "size": 1,
      "price": "1011000000000000000000",
      "reserved": "",
      "salt": "0x2b7ab39affa542791bb1f9f22c3353b9569799ce580c05c2c8fa128de5654e73",
      "assetIds": []
    },
    {
      "x": 134,
      "y": 365,
      "size": 1,
      "price": "1011000000000000000000",
      "reserved": "0x7a9fe22691c811ea339d9b73150e6911a5343dca",
      "salt": "0xb70b5573cd5bbe506df2f550d40900483866b42e498cf66b54483cb2334b83dd",
      "assetIds": []
    },
    {
      "x": 134,
      "y": 366,
      "size": 1,
      "price": "1011000000000000000000",
      "reserved": "",
      "salt": "0x653af60b4aaed888650bb097097538b9cb5bbab9a4b06d772076d1f52511625c",
      "assetIds": []
    },
    {
      "x": 134,
      "y": 367,
      "size": 1,
      "price": "1011000000000000000000",
      "reserved": "",
      "salt": "0xd74cdba79a8710984a979ffeea20f98761ea7e3dc788dbf7661effc1a2464402",
      "assetIds": []
    },
    {
      "x": 134,
      "y": 368,
      "size": 1,
      "price": "1011000000000000000000",
      "reserved": "",
      "salt": "0x2a16f8f662594962391061a7999617a8472027b4ea74f39e37b047eab77d937a",
      "assetIds": []
    },
    {
      "x": 134,
      "y": 369,
      "size": 1,
      "price": "1011000000000000000000",
      "reserved": "",
      "salt": "0x1fae43babfc435fc6792712608f69bfd060a546ba12b48e39646a82a0b7ea2dd",
      "assetIds": []
    },
    {
      "x": 134,
      "y": 370,
      "size": 1,
      "price": "1011000000000000000000",
      "reserved": "",
      "salt": "0x1212166a2464a7aeadfb40c5501db6c4cc52ab5df7991f11a82c573afbaff573",
      "assetIds": []
    },
    {
      "x": 134,
      "y": 371,
      "size": 1,
      "price": "4683000000000000000000",
      "reserved": "",
      "salt": "0x224103868116f0deb4d0db1f50d568dda24f83be8fb7fb18133c0f1781000db6",
      "assetIds": [
        "55464657044963196816950587289035428064568320970692304673817341489687757334528",
        "55464657044963196816950587289035428064568320970692304673817341489687757334529",
        "55464657044963196816950587289035428064568320970692304673817341489687757334530",
        "55464657044963196816950587289035428064568320970692304673817341489687757334531",
        "55464657044963196816950587289035428064568320970692304673817341489687757334532"
      ]
    },
    {
      "x": 134,
      "y": 384,
      "size": 1,
      "price": "4683000000000000000000",
      "reserved": "",
      "salt": "0xbc2f0e2b6fdfa746c3a475a87358b6340ded08882d32fcab8ebdd2b0e5c51586",
      "assetIds": [
        "55464657044963196816950587289035428064568320970692304673817341489687757334528",
        "55464657044963196816950587289035428064568320970692304673817341489687757334529",
        "55464657044963196816950587289035428064568320970692304673817341489687757334530",
        "55464657044963196816950587289035428064568320970692304673817341489687757334531",
        "55464657044963196816950587289035428064568320970692304673817341489687757334532"
      ]
    },
    {
      "x": 134,
      "y": 385,
      "size": 1,
      "price": "1011000000000000000000",
      "reserved": "",
      "salt": "0x35dab83ed4c4bc2557c538df50058f1f80de9555e06a5ee65a90d4dca6229668",
      "assetIds": []
    },
    {
      "x": 134,
      "y": 386,
      "size": 1,
      "price": "1011000000000000000000",
      "reserved": "0x7a9fe22691c811ea339d9b73150e6911a5343dca",
      "salt": "0x16b01710480b7454d98ca4bb6d8e4ab8634cb3f8eca6f28e540862d79d8fa810",
      "assetIds": []
    },
    {
      "x": 134,
      "y": 387,
      "size": 1,
      "price": "1011000000000000000000",
      "reserved": "",
      "salt": "0x744a77f2b9c35b534ba9316ded6b9ea834a689bcf4687c46be82e0c4d53408d4",
      "assetIds": []
    },
    {
      "x": 134,
      "y": 388,
      "size": 1,
      "price": "1011000000000000000000",
      "reserved": "",
      "salt": "0x9309b9163b8c8228c5c3a42f8970db95149805db8605043c701f761624b0fee6",
      "assetIds": []
    },
    {
      "x": 134,
      "y": 389,
      "size": 1,
      "price": "1011000000000000000000",
      "reserved": "",
      "salt": "0x3db774e3c2bb45940396b283b9cbd078add64e96410c4404b71b024ffb2580fd",
      "assetIds": []
    },
    {
      "x": 134,
      "y": 393,
      "size": 1,
      "price": "1011000000000000000000",
      "reserved": "0x7a9fe22691c811ea339d9b73150e6911a5343dca",
      "salt": "0x4b8b5fab174e9adb90df3e9713d379922b95c20a1b8aa8ffcddb7b1bf288500b",
      "assetIds": []
    },
    {
      "x": 134,
      "y": 394,
      "size": 1,
      "price": "1011000000000000000000",
      "reserved": "",
      "salt": "0xc956aaae151296320c4a65354b947439f4ef4ba15a9b3ae7ad627ce5f186bc90",
      "assetIds": []
    },
    {
      "x": 134,
      "y": 395,
      "size": 1,
      "price": "1011000000000000000000",
      "reserved": "0x7a9fe22691c811ea339d9b73150e6911a5343dca",
      "salt": "0xadbf7bdb2864bb61ba73d56dc286e8ee7bb2eb22427e2fe7cad26d95ee09384a",
      "assetIds": []
    },
    {
      "x": 134,
      "y": 402,
      "size": 1,
      "price": "1011000000000000000000",
      "reserved": "",
      "salt": "0x4a573420e6462e286c86325947c30299e0bc09faf2c5433059492c93d32b4cb3",
      "assetIds": []
    },
    {
      "x": 134,
      "y": 403,
      "size": 1,
      "price": "1011000000000000000000",
      "reserved": "",
      "salt": "0x2d6c2184d337d9706a2d1d56d6a33fee2653b31131249c135bc0a8989ffdcf93",
      "assetIds": []
    },
    {
      "x": 134,
      "y": 404,
      "size": 1,
      "price": "1011000000000000000000",
      "reserved": "",
      "salt": "0x139ede6196fb908ef0e066e1a736a10d2e6f04510a561bac8ac3433dd5dea364",
      "assetIds": []
    },
    {
      "x": 134,
      "y": 405,
      "size": 1,
      "price": "1011000000000000000000",
      "reserved": "",
      "salt": "0x00a029dbaa9145269a26c559d1e7969d6a91ae4157538c1bc061e9564628921f",
      "assetIds": []
    },
    {
      "x": 134,
      "y": 406,
      "size": 1,
      "price": "1011000000000000000000",
      "reserved": "",
      "salt": "0x40c5dee371c15a64c1226824cbfc1771263e28e4517db995231091c711106da9",
      "assetIds": []
    },
    {
      "x": 134,
      "y": 407,
      "size": 1,
      "price": "1011000000000000000000",
      "reserved": "",
      "salt": "0xb0d99f16dbbbb2e9a0bbbfeeb38974dde63793cdb1bc1746f1b8e1be5c6bb0f2",
      "assetIds": []
    },
    {
      "x": 135,
      "y": 346,
      "size": 1,
      "price": "1011000000000000000000",
      "reserved": "",
      "salt": "0xe9ec139f1d35325d7b4fa0edc642d46480452aebb9cd4410b29191b5fda5b975",
      "assetIds": []
    },
    {
      "x": 135,
      "y": 347,
      "size": 1,
      "price": "4683000000000000000000",
      "reserved": "",
      "salt": "0x8f0fe157498d10fac501478c0f1f54e1cbb132b4536fcdcfc75faa4e4f40c1d2",
      "assetIds": [
        "55464657044963196816950587289035428064568320970692304673817341489687757334528",
        "55464657044963196816950587289035428064568320970692304673817341489687757334529",
        "55464657044963196816950587289035428064568320970692304673817341489687757334530",
        "55464657044963196816950587289035428064568320970692304673817341489687757334531",
        "55464657044963196816950587289035428064568320970692304673817341489687757334532"
      ]
    },
    {
      "x": 135,
      "y": 360,
      "size": 1,
      "price": "4683000000000000000000",
      "reserved": "",
      "salt": "0x3fbf42a67a18c7564f9765608ffc35f52c44d2f57200023f9e8f5b6e53ce39a5",
      "assetIds": [
        "55464657044963196816950587289035428064568320970692304673817341489687757334528",
        "55464657044963196816950587289035428064568320970692304673817341489687757334529",
        "55464657044963196816950587289035428064568320970692304673817341489687757334530",
        "55464657044963196816950587289035428064568320970692304673817341489687757334531",
        "55464657044963196816950587289035428064568320970692304673817341489687757334532"
      ]
    },
    {
      "x": 135,
      "y": 361,
      "size": 1,
      "price": "4683000000000000000000",
      "reserved": "",
      "salt": "0xf9009e4ba0dfb99092c9d0b1a22a0d187239c7a69aaca9cf76d3965805f71333",
      "assetIds": [
        "55464657044963196816950587289035428064568320970692304673817341489687757334528",
        "55464657044963196816950587289035428064568320970692304673817341489687757334529",
        "55464657044963196816950587289035428064568320970692304673817341489687757334530",
        "55464657044963196816950587289035428064568320970692304673817341489687757334531",
        "55464657044963196816950587289035428064568320970692304673817341489687757334532"
      ]
    },
    {
      "x": 135,
      "y": 362,
      "size": 1,
      "price": "1011000000000000000000",
      "reserved": "",
      "salt": "0x252bd7be77a93c740ab8f5e7088a4c7d0acedf64354aac25f671773d0c54353d",
      "assetIds": []
    },
    {
      "x": 135,
      "y": 363,
      "size": 1,
      "price": "1011000000000000000000",
      "reserved": "",
      "salt": "0xce8e40d7d113734fa3fc0c2a433568d157809e9dcfaf3351473e36889f4c9dd2",
      "assetIds": []
    },
    {
      "x": 135,
      "y": 364,
      "size": 1,
      "price": "1011000000000000000000",
      "reserved": "",
      "salt": "0x4a107b66b5283f84af75bf24a10320d82e783f81389d6c02bdda77f88e84d929",
      "assetIds": []
    },
    {
      "x": 135,
      "y": 365,
      "size": 1,
      "price": "1011000000000000000000",
      "reserved": "0x7a9fe22691c811ea339d9b73150e6911a5343dca",
      "salt": "0xfb54ae077fb4a97380f79f11bdd11e507d7a65ada2603e2788383a43942d7f67",
      "assetIds": []
    },
    {
      "x": 135,
      "y": 366,
      "size": 1,
      "price": "1011000000000000000000",
      "reserved": "",
      "salt": "0xae5cd489007740453794a01ba01bb6b2f26792f7c68c9fc363e9805f1f7e1ba1",
      "assetIds": []
    },
    {
      "x": 135,
      "y": 367,
      "size": 1,
      "price": "1011000000000000000000",
      "reserved": "",
      "salt": "0xc70831c0d01e5120f94f1df3cb58cf70e9fdec77c915be3534208cf88a5e0023",
      "assetIds": []
    },
    {
      "x": 135,
      "y": 368,
      "size": 1,
      "price": "1011000000000000000000",
      "reserved": "",
      "salt": "0xca85f4278095e49a733722504041faaada8e32263ccea64f853882b8b1fd9750",
      "assetIds": []
    },
    {
      "x": 135,
      "y": 369,
      "size": 1,
      "price": "1011000000000000000000",
      "reserved": "",
      "salt": "0xa2e41d229af7ed3115bab20b811db2a2e6408abb64f9a058525284e2dc6fc6f5",
      "assetIds": []
    },
    {
      "x": 135,
      "y": 370,
      "size": 1,
      "price": "1011000000000000000000",
      "reserved": "0x7a9fe22691c811ea339d9b73150e6911a5343dca",
      "salt": "0x311f24682308d28550ab507bdea801c4b457972b186274632daf0598b56d45bc",
      "assetIds": []
    },
    {
      "x": 135,
      "y": 371,
      "size": 1,
      "price": "4683000000000000000000",
      "reserved": "",
      "salt": "0x530b9c9a5065de240910399234ca061056eaccc6dd1e7e69b4066e6b7b590840",
      "assetIds": [
        "55464657044963196816950587289035428064568320970692304673817341489687757334528",
        "55464657044963196816950587289035428064568320970692304673817341489687757334529",
        "55464657044963196816950587289035428064568320970692304673817341489687757334530",
        "55464657044963196816950587289035428064568320970692304673817341489687757334531",
        "55464657044963196816950587289035428064568320970692304673817341489687757334532"
      ]
    },
    {
      "x": 135,
      "y": 384,
      "size": 1,
      "price": "4683000000000000000000",
      "reserved": "",
      "salt": "0xdd658ef3e70517dfb4e8c6758f4c99481dea0d6f1354c3b7c3594d43b1aa9ca5",
      "assetIds": [
        "55464657044963196816950587289035428064568320970692304673817341489687757334528",
        "55464657044963196816950587289035428064568320970692304673817341489687757334529",
        "55464657044963196816950587289035428064568320970692304673817341489687757334530",
        "55464657044963196816950587289035428064568320970692304673817341489687757334531",
        "55464657044963196816950587289035428064568320970692304673817341489687757334532"
      ]
    },
    {
      "x": 135,
      "y": 385,
      "size": 1,
      "price": "1011000000000000000000",
      "reserved": "",
      "salt": "0x41a828b47c8885d877a66da8a233f8e15bb910ac7db15dd9d796e8b720a22bd4",
      "assetIds": []
    },
    {
      "x": 135,
      "y": 386,
      "size": 1,
      "price": "1011000000000000000000",
      "reserved": "",
      "salt": "0x52872179057bb1cdcd1416333767fb9076b1d3fa726b0d843cc1e0e82fbe2b5f",
      "assetIds": []
    },
    {
      "x": 135,
      "y": 387,
      "size": 1,
      "price": "1011000000000000000000",
      "reserved": "",
      "salt": "0x00bc8d70f07cd66b96572de9a0503aacd9ce1462f723d9112d2eeb34097b1f19",
      "assetIds": []
    },
    {
      "x": 135,
      "y": 388,
      "size": 1,
      "price": "1011000000000000000000",
      "reserved": "",
      "salt": "0x7e2fac01e4d9a702ab836f96427362db9cad8d652e67a08e611f6456f1e34322",
      "assetIds": []
    },
    {
      "x": 135,
      "y": 389,
      "size": 1,
      "price": "1011000000000000000000",
      "reserved": "0x7a9fe22691c811ea339d9b73150e6911a5343dca",
      "salt": "0xbcf8ea7b16b7288e1bfa205ee75bdc4a7599203ad39a6bc059f918de9f9ddb0f",
      "assetIds": []
    },
    {
      "x": 135,
      "y": 390,
      "size": 1,
      "price": "1011000000000000000000",
      "reserved": "",
      "salt": "0x69a53d2a25e0496cb9c9db4d3bdaf4b7aac1d230cc1286129df0086867014f6d",
      "assetIds": []
    },
    {
      "x": 135,
      "y": 391,
      "size": 1,
      "price": "1011000000000000000000",
      "reserved": "0x7a9fe22691c811ea339d9b73150e6911a5343dca",
      "salt": "0xf5b4a0848358826bc93e9ea0f83caf60f167fd67147743a05ac7ee247fbe957d",
      "assetIds": []
    },
    {
      "x": 135,
      "y": 392,
      "size": 1,
      "price": "1011000000000000000000",
      "reserved": "",
      "salt": "0x76c48d144b9153fbc993b1da0e1cc9f8bc035a958fb224d87185f391dab61430",
      "assetIds": []
    },
    {
      "x": 135,
      "y": 402,
      "size": 1,
      "price": "1011000000000000000000",
      "reserved": "0x7a9fe22691c811ea339d9b73150e6911a5343dca",
      "salt": "0xd8b22ef66aede7d6f41c08be61a1de46ab09af9e8d28d51f54961e14ea1ba172",
      "assetIds": []
    },
    {
      "x": 135,
      "y": 403,
      "size": 1,
      "price": "1011000000000000000000",
      "reserved": "",
      "salt": "0x88ebbd0d6ebbe6e7bc8747e4903b28b33ae454a725736483cbd13d70f5f37552",
      "assetIds": []
    },
    {
      "x": 135,
      "y": 404,
      "size": 1,
      "price": "1011000000000000000000",
      "reserved": "",
      "salt": "0xca6e854215b683bfd23ed522f6c12fd93f948f04221bcaadb5aeb5a46c2289d0",
      "assetIds": []
    },
    {
      "x": 135,
      "y": 405,
      "size": 1,
      "price": "1011000000000000000000",
      "reserved": "",
      "salt": "0xaea2cadb41f1457511a1c32f894c22c9d6aee9feb51fbfa7d9fa3c055f5ee387",
      "assetIds": []
    },
    {
      "x": 135,
      "y": 406,
      "size": 1,
      "price": "1011000000000000000000",
      "reserved": "",
      "salt": "0x4d11020ff67e3a0448d1252d79a193d165ef99b3c95c5f7dab02761d1b62bfdd",
      "assetIds": []
    },
    {
      "x": 135,
      "y": 407,
      "size": 1,
      "price": "1011000000000000000000",
      "reserved": "",
      "salt": "0xe358d2c082adefe92fccfd7518c5c546db71aabb1807620be77e0963e636775d",
      "assetIds": []
    },
    {
      "x": 136,
      "y": 346,
      "size": 1,
      "price": "1011000000000000000000",
      "reserved": "",
      "salt": "0xef26c6c7de49fe6d7a6a5e8fa6d9b407b60a5597c84caffc14859e82ed54fa32",
      "assetIds": []
    },
    {
      "x": 136,
      "y": 347,
      "size": 1,
      "price": "4683000000000000000000",
      "reserved": "",
      "salt": "0xcee122bee9ca55bb35c1435e6c9b80f2b3e5d184745ccd1827696945ce9ede08",
      "assetIds": [
        "55464657044963196816950587289035428064568320970692304673817341489687757334528",
        "55464657044963196816950587289035428064568320970692304673817341489687757334529",
        "55464657044963196816950587289035428064568320970692304673817341489687757334530",
        "55464657044963196816950587289035428064568320970692304673817341489687757334531",
        "55464657044963196816950587289035428064568320970692304673817341489687757334532"
      ]
    },
    {
      "x": 136,
      "y": 360,
      "size": 1,
      "price": "4683000000000000000000",
      "reserved": "",
      "salt": "0x048067fa30c68d482ba328f2915b58410b19193577d0b78be33b45c8c0f31645",
      "assetIds": [
        "55464657044963196816950587289035428064568320970692304673817341489687757334528",
        "55464657044963196816950587289035428064568320970692304673817341489687757334529",
        "55464657044963196816950587289035428064568320970692304673817341489687757334530",
        "55464657044963196816950587289035428064568320970692304673817341489687757334531",
        "55464657044963196816950587289035428064568320970692304673817341489687757334532"
      ]
    },
    {
      "x": 136,
      "y": 361,
      "size": 1,
      "price": "4683000000000000000000",
      "reserved": "",
      "salt": "0x08d8406e1cefb1f50783f56a70eb24b363d5135d41ab9926145c5cf047d7a6b4",
      "assetIds": [
        "55464657044963196816950587289035428064568320970692304673817341489687757334528",
        "55464657044963196816950587289035428064568320970692304673817341489687757334529",
        "55464657044963196816950587289035428064568320970692304673817341489687757334530",
        "55464657044963196816950587289035428064568320970692304673817341489687757334531",
        "55464657044963196816950587289035428064568320970692304673817341489687757334532"
      ]
    },
    {
      "x": 136,
      "y": 362,
      "size": 1,
      "price": "1011000000000000000000",
      "reserved": "",
      "salt": "0xc6884961aa71a6292f2473122544a838a9cd62b47946c605291d97adf5ac3071",
      "assetIds": []
    },
    {
      "x": 136,
      "y": 363,
      "size": 1,
      "price": "1011000000000000000000",
      "reserved": "",
      "salt": "0x90a3a58c6e3f802c2c20259b1addb95cade8fbb65ef2a5b380d9291338a6583d",
      "assetIds": []
    },
    {
      "x": 136,
      "y": 364,
      "size": 1,
      "price": "1011000000000000000000",
      "reserved": "",
      "salt": "0x7a8a81132cd58227606ad5bdf7cf20c7f687dbdcdd3005a6ab94ff0e34676669",
      "assetIds": []
    },
    {
      "x": 136,
      "y": 365,
      "size": 1,
      "price": "4683000000000000000000",
      "reserved": "",
      "salt": "0x48e85f685c55d4df517797713deaa3b16c693e1b86a55b8c1842d13b760da156",
      "assetIds": [
        "55464657044963196816950587289035428064568320970692304673817341489687757334528",
        "55464657044963196816950587289035428064568320970692304673817341489687757334529",
        "55464657044963196816950587289035428064568320970692304673817341489687757334530",
        "55464657044963196816950587289035428064568320970692304673817341489687757334531",
        "55464657044963196816950587289035428064568320970692304673817341489687757334532"
      ]
    },
    {
      "x": 136,
      "y": 366,
      "size": 1,
      "price": "1011000000000000000000",
      "reserved": "0x7a9fe22691c811ea339d9b73150e6911a5343dca",
      "salt": "0x912bd18d1a5035622a26d93782741c99c20159985c9019c1237a3cfcfd588c2d",
      "assetIds": []
    },
    {
      "x": 136,
      "y": 367,
      "size": 1,
      "price": "1011000000000000000000",
      "reserved": "",
      "salt": "0x3c6687e06f22306cf6e780012e0eac4973a8e486a77cd222fe5adf9be72feab8",
      "assetIds": []
    },
    {
      "x": 136,
      "y": 368,
      "size": 1,
      "price": "4683000000000000000000",
      "reserved": "",
      "salt": "0xc703893aee5120ff2724fb22dfc280b50b7132e40b8b718aaf92b5ac9aad320b",
      "assetIds": [
        "55464657044963196816950587289035428064568320970692304673817341489687757334528",
        "55464657044963196816950587289035428064568320970692304673817341489687757334529",
        "55464657044963196816950587289035428064568320970692304673817341489687757334530",
        "55464657044963196816950587289035428064568320970692304673817341489687757334531",
        "55464657044963196816950587289035428064568320970692304673817341489687757334532"
      ]
    },
    {
      "x": 136,
      "y": 369,
      "size": 1,
      "price": "1011000000000000000000",
      "reserved": "0x7a9fe22691c811ea339d9b73150e6911a5343dca",
      "salt": "0x75a0a69faaab11e48662fde5a30606fb43325e4ba3f8e3b0edfff2a177286dd3",
      "assetIds": []
    },
    {
      "x": 136,
      "y": 370,
      "size": 1,
      "price": "1011000000000000000000",
      "reserved": "",
      "salt": "0xa6cb78872411101e6b9989cf3a2cacfc54d40c3095e6b8a2ec3aed51762e9637",
      "assetIds": []
    },
    {
      "x": 136,
      "y": 371,
      "size": 1,
      "price": "4683000000000000000000",
      "reserved": "",
      "salt": "0x1e04e6259d6e9203195be3ab22a120e7efa2cd6da48b3595897b0c3d66db80c5",
      "assetIds": [
        "55464657044963196816950587289035428064568320970692304673817341489687757334528",
        "55464657044963196816950587289035428064568320970692304673817341489687757334529",
        "55464657044963196816950587289035428064568320970692304673817341489687757334530",
        "55464657044963196816950587289035428064568320970692304673817341489687757334531",
        "55464657044963196816950587289035428064568320970692304673817341489687757334532"
      ]
    },
    {
      "x": 136,
      "y": 384,
      "size": 1,
      "price": "4683000000000000000000",
      "reserved": "",
      "salt": "0x4b8782432c726cd6b658164887b6fd5061b1f5fd3e68487d0495ea772aa5f466",
      "assetIds": [
        "55464657044963196816950587289035428064568320970692304673817341489687757334528",
        "55464657044963196816950587289035428064568320970692304673817341489687757334529",
        "55464657044963196816950587289035428064568320970692304673817341489687757334530",
        "55464657044963196816950587289035428064568320970692304673817341489687757334531",
        "55464657044963196816950587289035428064568320970692304673817341489687757334532"
      ]
    },
    {
      "x": 136,
      "y": 385,
      "size": 1,
      "price": "1011000000000000000000",
      "reserved": "0x7a9fe22691c811ea339d9b73150e6911a5343dca",
      "salt": "0x657dc506e94107fa14825dfe65b854f6ec94a6b3e15c6cd330257e03729209e3",
      "assetIds": []
    },
    {
      "x": 136,
      "y": 386,
      "size": 1,
      "price": "1011000000000000000000",
      "reserved": "",
      "salt": "0xccc6495b872bc6253f796bdf04249c7f9a1518d7751ab6f5e07a78e6d5701154",
      "assetIds": []
    },
    {
      "x": 136,
      "y": 387,
      "size": 1,
      "price": "1011000000000000000000",
      "reserved": "0x7a9fe22691c811ea339d9b73150e6911a5343dca",
      "salt": "0x9c90d1bdaefe820a350985b51eecfd6e0b71d53359344b5722614411c0731688",
      "assetIds": []
    },
    {
      "x": 136,
      "y": 388,
      "size": 1,
      "price": "1011000000000000000000",
      "reserved": "",
      "salt": "0x9fad6d10df6874e6ae11155756f170661401fbfb12e5540f923dc3c23741c446",
      "assetIds": []
    },
    {
      "x": 136,
      "y": 389,
      "size": 1,
      "price": "1011000000000000000000",
      "reserved": "",
      "salt": "0x07daddcc91c62c902b07a79b8bfe91830051c0ae1ed0c32b8e500c39907f98da",
      "assetIds": []
    },
    {
      "x": 136,
      "y": 390,
      "size": 1,
      "price": "1011000000000000000000",
      "reserved": "",
      "salt": "0x53c5dd7eb639a1d786cc8d02c3fb66bee61d75f8567f2bd35a3f34919637d0fc",
      "assetIds": []
    },
    {
      "x": 136,
      "y": 391,
      "size": 1,
      "price": "1011000000000000000000",
      "reserved": "",
      "salt": "0xab809c23c513d7f8bddea204475940ce89119a02390c47fdf4b366c25b34fac5",
      "assetIds": []
    },
    {
      "x": 136,
      "y": 392,
      "size": 1,
      "price": "1011000000000000000000",
      "reserved": "",
      "salt": "0xa98c1efeb2578e0b8983377e3a6e65b2220e3f217f361e405117251d1929e995",
      "assetIds": []
    },
    {
      "x": 136,
      "y": 402,
      "size": 1,
      "price": "4683000000000000000000",
      "reserved": "",
      "salt": "0xec96837fa2974a7d82d55a479223e9c39e7ceea43db02380b2d370c75fbb5f02",
      "assetIds": [
        "55464657044963196816950587289035428064568320970692304673817341489687757334528",
        "55464657044963196816950587289035428064568320970692304673817341489687757334529",
        "55464657044963196816950587289035428064568320970692304673817341489687757334530",
        "55464657044963196816950587289035428064568320970692304673817341489687757334531",
        "55464657044963196816950587289035428064568320970692304673817341489687757334532"
      ]
    },
    {
      "x": 136,
      "y": 403,
      "size": 1,
      "price": "4683000000000000000000",
      "reserved": "",
      "salt": "0xde7fb81caa5fc4edb75e6088413f14c7ce517451f4ee45e2bb316ba8330c6861",
      "assetIds": [
        "55464657044963196816950587289035428064568320970692304673817341489687757334528",
        "55464657044963196816950587289035428064568320970692304673817341489687757334529",
        "55464657044963196816950587289035428064568320970692304673817341489687757334530",
        "55464657044963196816950587289035428064568320970692304673817341489687757334531",
        "55464657044963196816950587289035428064568320970692304673817341489687757334532"
      ]
    },
    {
      "x": 136,
      "y": 404,
      "size": 1,
      "price": "4683000000000000000000",
      "reserved": "",
      "salt": "0xac94206a3f20d647fbacef13bb0828e2386b4ed5da827303275eefda5efb830f",
      "assetIds": [
        "55464657044963196816950587289035428064568320970692304673817341489687757334528",
        "55464657044963196816950587289035428064568320970692304673817341489687757334529",
        "55464657044963196816950587289035428064568320970692304673817341489687757334530",
        "55464657044963196816950587289035428064568320970692304673817341489687757334531",
        "55464657044963196816950587289035428064568320970692304673817341489687757334532"
      ]
    },
    {
      "x": 136,
      "y": 405,
      "size": 1,
      "price": "1011000000000000000000",
      "reserved": "0x7a9fe22691c811ea339d9b73150e6911a5343dca",
      "salt": "0x12d532b5965360626641f23ce3c4a8543ad563e56f992b19eb15ef8ff7a5717f",
      "assetIds": []
    },
    {
      "x": 136,
      "y": 406,
      "size": 1,
      "price": "1011000000000000000000",
      "reserved": "0x7a9fe22691c811ea339d9b73150e6911a5343dca",
      "salt": "0x42e2f15b9e566a9a4ea9472d88f4c2f645d656026f51b5e63f2da03c1198fed1",
      "assetIds": []
    },
    {
      "x": 136,
      "y": 407,
      "size": 1,
      "price": "4683000000000000000000",
      "reserved": "",
      "salt": "0x1c2a3438cea1baa812ae65b6bc5e5a284e30330954487a56a239ecc7f09452a5",
      "assetIds": [
        "55464657044963196816950587289035428064568320970692304673817341489687757334528",
        "55464657044963196816950587289035428064568320970692304673817341489687757334529",
        "55464657044963196816950587289035428064568320970692304673817341489687757334530",
        "55464657044963196816950587289035428064568320970692304673817341489687757334531",
        "55464657044963196816950587289035428064568320970692304673817341489687757334532"
      ]
    },
    {
      "x": 137,
      "y": 346,
      "size": 1,
      "price": "1011000000000000000000",
      "reserved": "",
      "salt": "0x3c5fee13442d8ecc272efe01cdfc580e2c89d6fbcb9967f4e83f535043e32068",
      "assetIds": []
    },
    {
      "x": 137,
      "y": 347,
      "size": 1,
      "price": "4683000000000000000000",
      "reserved": "",
      "salt": "0x4a828053212ab90dd8040c5ead6cedd33dd43acc45ece22ea7d053f915331db6",
      "assetIds": [
        "55464657044963196816950587289035428064568320970692304673817341489687757334528",
        "55464657044963196816950587289035428064568320970692304673817341489687757334529",
        "55464657044963196816950587289035428064568320970692304673817341489687757334530",
        "55464657044963196816950587289035428064568320970692304673817341489687757334531",
        "55464657044963196816950587289035428064568320970692304673817341489687757334532"
      ]
    },
    {
      "x": 137,
      "y": 360,
      "size": 1,
      "price": "4683000000000000000000",
      "reserved": "",
      "salt": "0x1356a3ca03ab011bbfef0022344fb7b2789fd5777b817c5240399d07ac32d4f0",
      "assetIds": [
        "55464657044963196816950587289035428064568320970692304673817341489687757334528",
        "55464657044963196816950587289035428064568320970692304673817341489687757334529",
        "55464657044963196816950587289035428064568320970692304673817341489687757334530",
        "55464657044963196816950587289035428064568320970692304673817341489687757334531",
        "55464657044963196816950587289035428064568320970692304673817341489687757334532"
      ]
    },
    {
      "x": 137,
      "y": 361,
      "size": 1,
      "price": "1011000000000000000000",
      "reserved": "0x7a9fe22691c811ea339d9b73150e6911a5343dca",
      "salt": "0xcea298649ffe7622995aab7c120a83b8a117e9c318b4e7f55e23d1c2b41f9fe8",
      "assetIds": []
    },
    {
      "x": 137,
      "y": 362,
      "size": 1,
      "price": "1011000000000000000000",
      "reserved": "0x7a9fe22691c811ea339d9b73150e6911a5343dca",
      "salt": "0x6842575e9316324aca9c9488d3cca3566834129e850c3b6ff93261e19b3c8741",
      "assetIds": []
    },
    {
      "x": 137,
      "y": 363,
      "size": 1,
      "price": "1011000000000000000000",
      "reserved": "",
      "salt": "0xf95278e179a9f2742f33dd004e9e12f75b8260800fd4ffe8bbfb687d9a445cfa",
      "assetIds": []
    },
    {
      "x": 137,
      "y": 364,
      "size": 1,
      "price": "1011000000000000000000",
      "reserved": "",
      "salt": "0x737eb8c73f6e320c627f26ce02bb155df6cfd27595bc81ef175971754a4a2ee4",
      "assetIds": []
    },
    {
      "x": 137,
      "y": 365,
      "size": 1,
      "price": "4683000000000000000000",
      "reserved": "",
      "salt": "0xc3d8b96880b81e9edf8e48668b2f1ad75494b90afc20ab9ce6c40d45bc0faa71",
      "assetIds": [
        "55464657044963196816950587289035428064568320970692304673817341489687757334528",
        "55464657044963196816950587289035428064568320970692304673817341489687757334529",
        "55464657044963196816950587289035428064568320970692304673817341489687757334530",
        "55464657044963196816950587289035428064568320970692304673817341489687757334531",
        "55464657044963196816950587289035428064568320970692304673817341489687757334532"
      ]
    },
    {
      "x": 137,
      "y": 366,
      "size": 1,
      "price": "4683000000000000000000",
      "reserved": "",
      "salt": "0x4dba76ad0a1c2093bf682435c425d2562504663bda4f1ad64fa12e4ee280120d",
      "assetIds": [
        "55464657044963196816950587289035428064568320970692304673817341489687757334528",
        "55464657044963196816950587289035428064568320970692304673817341489687757334529",
        "55464657044963196816950587289035428064568320970692304673817341489687757334530",
        "55464657044963196816950587289035428064568320970692304673817341489687757334531",
        "55464657044963196816950587289035428064568320970692304673817341489687757334532"
      ]
    },
    {
      "x": 137,
      "y": 367,
      "size": 1,
      "price": "4683000000000000000000",
      "reserved": "",
      "salt": "0x13ec8957e28de9d91b426aeccd3c24a1ed2cbda456bc6921545035a003eb4b25",
      "assetIds": [
        "55464657044963196816950587289035428064568320970692304673817341489687757334528",
        "55464657044963196816950587289035428064568320970692304673817341489687757334529",
        "55464657044963196816950587289035428064568320970692304673817341489687757334530",
        "55464657044963196816950587289035428064568320970692304673817341489687757334531",
        "55464657044963196816950587289035428064568320970692304673817341489687757334532"
      ]
    },
    {
      "x": 137,
      "y": 368,
      "size": 1,
      "price": "4683000000000000000000",
      "reserved": "",
      "salt": "0x5625546426cd4c610898704fb000c9218b3d6fbb864c7afbcb1224561c401466",
      "assetIds": [
        "55464657044963196816950587289035428064568320970692304673817341489687757334528",
        "55464657044963196816950587289035428064568320970692304673817341489687757334529",
        "55464657044963196816950587289035428064568320970692304673817341489687757334530",
        "55464657044963196816950587289035428064568320970692304673817341489687757334531",
        "55464657044963196816950587289035428064568320970692304673817341489687757334532"
      ]
    },
    {
      "x": 137,
      "y": 369,
      "size": 1,
      "price": "4683000000000000000000",
      "reserved": "",
      "salt": "0x1f3193c98626267d5edcee8a511bbc8af199eff852bc7a2d3339a31cc069e8a0",
      "assetIds": [
        "55464657044963196816950587289035428064568320970692304673817341489687757334528",
        "55464657044963196816950587289035428064568320970692304673817341489687757334529",
        "55464657044963196816950587289035428064568320970692304673817341489687757334530",
        "55464657044963196816950587289035428064568320970692304673817341489687757334531",
        "55464657044963196816950587289035428064568320970692304673817341489687757334532"
      ]
    },
    {
      "x": 137,
      "y": 370,
      "size": 1,
      "price": "4683000000000000000000",
      "reserved": "",
      "salt": "0x25a4387d463147d4b5fa0504e84793bd578d5a6723075e64e842b562a5ad959b",
      "assetIds": [
        "55464657044963196816950587289035428064568320970692304673817341489687757334528",
        "55464657044963196816950587289035428064568320970692304673817341489687757334529",
        "55464657044963196816950587289035428064568320970692304673817341489687757334530",
        "55464657044963196816950587289035428064568320970692304673817341489687757334531",
        "55464657044963196816950587289035428064568320970692304673817341489687757334532"
      ]
    },
    {
      "x": 137,
      "y": 371,
      "size": 1,
      "price": "4683000000000000000000",
      "reserved": "",
      "salt": "0x27aa26e33cf0eaa91b7a26d270bf7a03154306997eb0d7b21c4fbb00be2bf3a0",
      "assetIds": [
        "55464657044963196816950587289035428064568320970692304673817341489687757334528",
        "55464657044963196816950587289035428064568320970692304673817341489687757334529",
        "55464657044963196816950587289035428064568320970692304673817341489687757334530",
        "55464657044963196816950587289035428064568320970692304673817341489687757334531",
        "55464657044963196816950587289035428064568320970692304673817341489687757334532"
      ]
    },
    {
      "x": 137,
      "y": 384,
      "size": 1,
      "price": "4683000000000000000000",
      "reserved": "",
      "salt": "0x448c099f6f809631a5faaa4aa4398eed426bf3bccd7e0d0b7719b8ebfaadae5d",
      "assetIds": [
        "55464657044963196816950587289035428064568320970692304673817341489687757334528",
        "55464657044963196816950587289035428064568320970692304673817341489687757334529",
        "55464657044963196816950587289035428064568320970692304673817341489687757334530",
        "55464657044963196816950587289035428064568320970692304673817341489687757334531",
        "55464657044963196816950587289035428064568320970692304673817341489687757334532"
      ]
    },
    {
      "x": 137,
      "y": 385,
      "size": 1,
      "price": "1011000000000000000000",
      "reserved": "",
      "salt": "0xc42a3be9afda443cb18598b3665e6e9a0de09142775a6a78f7bb5caf6d6077e0",
      "assetIds": []
    },
    {
      "x": 137,
      "y": 386,
      "size": 1,
      "price": "1011000000000000000000",
      "reserved": "",
      "salt": "0x107b46b385b12faabd2b04ba2262bbe9c591dd8974b84bc0192ba2c428c0d47f",
      "assetIds": []
    },
    {
      "x": 137,
      "y": 387,
      "size": 1,
      "price": "1011000000000000000000",
      "reserved": "",
      "salt": "0xb7ca011937b1e276946babfabec95b3842f46540636a04d85de4747853202445",
      "assetIds": []
    },
    {
      "x": 137,
      "y": 388,
      "size": 1,
      "price": "1011000000000000000000",
      "reserved": "",
      "salt": "0x7885cfd3258681f4083533cf026c691e6afc10a203e0b04484ffdc1dd698a92f",
      "assetIds": []
    },
    {
      "x": 137,
      "y": 389,
      "size": 1,
      "price": "1011000000000000000000",
      "reserved": "",
      "salt": "0x330ebe5e33c87542d9689b2ef2ec2a51d992accc037ef085da8310649848a77f",
      "assetIds": []
    },
    {
      "x": 137,
      "y": 390,
      "size": 1,
      "price": "1011000000000000000000",
      "reserved": "",
      "salt": "0xc04a45288a51a92de25be0aba4f0317b1770cd6a01827e68efe86edc2f2b3473",
      "assetIds": []
    },
    {
      "x": 137,
      "y": 391,
      "size": 1,
      "price": "1011000000000000000000",
      "reserved": "0x7a9fe22691c811ea339d9b73150e6911a5343dca",
      "salt": "0x477cca20aa7def832eaac7d2227e6ffa3b3d0e09dbb367d28fd4d0bd853d59b6",
      "assetIds": []
    },
    {
      "x": 137,
      "y": 392,
      "size": 1,
      "price": "1011000000000000000000",
      "reserved": "",
      "salt": "0x6d6c6948842bddbbdfee5da9723ce67f467c5a694e3c322a3aefcf1b4fc4d027",
      "assetIds": []
    },
    {
      "x": 137,
      "y": 402,
      "size": 1,
      "price": "4683000000000000000000",
      "reserved": "",
      "salt": "0x61f0737606d1f39d443eefc9b678ae5c62792023299ba4efb8072aef14b0a2bb",
      "assetIds": [
        "55464657044963196816950587289035428064568320970692304673817341489687757334528",
        "55464657044963196816950587289035428064568320970692304673817341489687757334529",
        "55464657044963196816950587289035428064568320970692304673817341489687757334530",
        "55464657044963196816950587289035428064568320970692304673817341489687757334531",
        "55464657044963196816950587289035428064568320970692304673817341489687757334532"
      ]
    },
    {
      "x": 137,
      "y": 403,
      "size": 1,
      "price": "4683000000000000000000",
      "reserved": "",
      "salt": "0x6c76b5a0311d06e6c6b986728f7972623bae4c39a3f19e98ff3d62b1ba7bb5fa",
      "assetIds": [
        "55464657044963196816950587289035428064568320970692304673817341489687757334528",
        "55464657044963196816950587289035428064568320970692304673817341489687757334529",
        "55464657044963196816950587289035428064568320970692304673817341489687757334530",
        "55464657044963196816950587289035428064568320970692304673817341489687757334531",
        "55464657044963196816950587289035428064568320970692304673817341489687757334532"
      ]
    },
    {
      "x": 137,
      "y": 404,
      "size": 1,
      "price": "4683000000000000000000",
      "reserved": "",
      "salt": "0x4800c2aa41d251868b83367cfe96fc297dd311d0b5cf53c666fc7d947d131da0",
      "assetIds": [
        "55464657044963196816950587289035428064568320970692304673817341489687757334528",
        "55464657044963196816950587289035428064568320970692304673817341489687757334529",
        "55464657044963196816950587289035428064568320970692304673817341489687757334530",
        "55464657044963196816950587289035428064568320970692304673817341489687757334531",
        "55464657044963196816950587289035428064568320970692304673817341489687757334532"
      ]
    },
    {
      "x": 137,
      "y": 405,
      "size": 1,
      "price": "4683000000000000000000",
      "reserved": "",
      "salt": "0xbcd506deb4b293afdddca25ccc9a4b0b1205d3a312f5c24d9e91045b8eb42094",
      "assetIds": [
        "55464657044963196816950587289035428064568320970692304673817341489687757334528",
        "55464657044963196816950587289035428064568320970692304673817341489687757334529",
        "55464657044963196816950587289035428064568320970692304673817341489687757334530",
        "55464657044963196816950587289035428064568320970692304673817341489687757334531",
        "55464657044963196816950587289035428064568320970692304673817341489687757334532"
      ]
    },
    {
      "x": 137,
      "y": 406,
      "size": 1,
      "price": "4683000000000000000000",
      "reserved": "",
      "salt": "0x261c3508eaf8a424b6a2601adfc721ab269a1bb44461f3db1e6edb83a8532d5f",
      "assetIds": [
        "55464657044963196816950587289035428064568320970692304673817341489687757334528",
        "55464657044963196816950587289035428064568320970692304673817341489687757334529",
        "55464657044963196816950587289035428064568320970692304673817341489687757334530",
        "55464657044963196816950587289035428064568320970692304673817341489687757334531",
        "55464657044963196816950587289035428064568320970692304673817341489687757334532"
      ]
    },
    {
      "x": 137,
      "y": 407,
      "size": 1,
      "price": "4683000000000000000000",
      "reserved": "",
      "salt": "0xf5631bac3c174a8f64e2885cf685a717635ca18bac7062565874ad4fc61919f0",
      "assetIds": [
        "55464657044963196816950587289035428064568320970692304673817341489687757334528",
        "55464657044963196816950587289035428064568320970692304673817341489687757334529",
        "55464657044963196816950587289035428064568320970692304673817341489687757334530",
        "55464657044963196816950587289035428064568320970692304673817341489687757334531",
        "55464657044963196816950587289035428064568320970692304673817341489687757334532"
      ]
    },
    {
      "x": 138,
      "y": 346,
      "size": 1,
      "price": "1011000000000000000000",
      "reserved": "",
      "salt": "0x4407dbfdc1027bee6b6358afa914dcebcd22671622bfefa066f6765cf5e022f5",
      "assetIds": []
    },
    {
      "x": 138,
      "y": 347,
      "size": 1,
      "price": "4683000000000000000000",
      "reserved": "",
      "salt": "0x335ce49d740c4a04a1d7261d8ce220abd0a78694b4616842a866f590dd8b1b56",
      "assetIds": [
        "55464657044963196816950587289035428064568320970692304673817341489687757334528",
        "55464657044963196816950587289035428064568320970692304673817341489687757334529",
        "55464657044963196816950587289035428064568320970692304673817341489687757334530",
        "55464657044963196816950587289035428064568320970692304673817341489687757334531",
        "55464657044963196816950587289035428064568320970692304673817341489687757334532"
      ]
    },
    {
      "x": 138,
      "y": 360,
      "size": 1,
      "price": "4683000000000000000000",
      "reserved": "",
      "salt": "0xbddfd27bd8223d2ab20c6a03ac0badb64bde7387bb6edff33c29371b4abd3745",
      "assetIds": [
        "55464657044963196816950587289035428064568320970692304673817341489687757334528",
        "55464657044963196816950587289035428064568320970692304673817341489687757334529",
        "55464657044963196816950587289035428064568320970692304673817341489687757334530",
        "55464657044963196816950587289035428064568320970692304673817341489687757334531",
        "55464657044963196816950587289035428064568320970692304673817341489687757334532"
      ]
    },
    {
      "x": 138,
      "y": 361,
      "size": 1,
      "price": "4683000000000000000000",
      "reserved": "",
      "salt": "0xb93a9171b917d466e21988ee606f15cd2a378f3a363b44c26b1feac31a3d792d",
      "assetIds": [
        "55464657044963196816950587289035428064568320970692304673817341489687757334528",
        "55464657044963196816950587289035428064568320970692304673817341489687757334529",
        "55464657044963196816950587289035428064568320970692304673817341489687757334530",
        "55464657044963196816950587289035428064568320970692304673817341489687757334531",
        "55464657044963196816950587289035428064568320970692304673817341489687757334532"
      ]
    },
    {
      "x": 138,
      "y": 362,
      "size": 1,
      "price": "1011000000000000000000",
      "reserved": "0x7a9fe22691c811ea339d9b73150e6911a5343dca",
      "salt": "0x66a9f615f79861e30f2f1deabfae31254551cb1c5aeb141322567187cc7326e8",
      "assetIds": []
    },
    {
      "x": 138,
      "y": 363,
      "size": 1,
      "price": "1011000000000000000000",
      "reserved": "",
      "salt": "0x012fd229b361cf209ce41e4221606d9a575069e89afdafebfe8f63c396501697",
      "assetIds": []
    },
    {
      "x": 138,
      "y": 364,
      "size": 1,
      "price": "1011000000000000000000",
      "reserved": "",
      "salt": "0x2381469a2732f21fa1a245397b49012986f826520cdced1d8f3ccaabbc8a2307",
      "assetIds": []
    },
    {
      "x": 138,
      "y": 365,
      "size": 1,
      "price": "4683000000000000000000",
      "reserved": "",
      "salt": "0x619c1aa854e793f06189db90f8ce1c5ea84cec73a6a156ce1bf03bda18d71fdf",
      "assetIds": [
        "55464657044963196816950587289035428064568320970692304673817341489687757334528",
        "55464657044963196816950587289035428064568320970692304673817341489687757334529",
        "55464657044963196816950587289035428064568320970692304673817341489687757334530",
        "55464657044963196816950587289035428064568320970692304673817341489687757334531",
        "55464657044963196816950587289035428064568320970692304673817341489687757334532"
      ]
    },
    {
      "x": 138,
      "y": 384,
      "size": 1,
      "price": "4683000000000000000000",
      "reserved": "",
      "salt": "0x84daa92b89ab27c5c3e1cf963f43351af0066a032ad87e52778964f59a710e2a",
      "assetIds": [
        "55464657044963196816950587289035428064568320970692304673817341489687757334528",
        "55464657044963196816950587289035428064568320970692304673817341489687757334529",
        "55464657044963196816950587289035428064568320970692304673817341489687757334530",
        "55464657044963196816950587289035428064568320970692304673817341489687757334531",
        "55464657044963196816950587289035428064568320970692304673817341489687757334532"
      ]
    },
    {
      "x": 138,
      "y": 385,
      "size": 1,
      "price": "1011000000000000000000",
      "reserved": "0x7a9fe22691c811ea339d9b73150e6911a5343dca",
      "salt": "0xec3b29c61a5480da2aa1726a0e7eebed474df6a85cf995d11cac7fe4347db8a5",
      "assetIds": []
    },
    {
      "x": 138,
      "y": 386,
      "size": 1,
      "price": "1011000000000000000000",
      "reserved": "",
      "salt": "0xe15f65463a2ff6af362a1f0a220562fa4426ea8cccc45cdd1364f16db735218b",
      "assetIds": []
    },
    {
      "x": 138,
      "y": 390,
      "size": 1,
      "price": "1011000000000000000000",
      "reserved": "",
      "salt": "0xab09938a8b0489ac9fdbfc6fbd5292fd00117ef97340d8f7940db5b9b34e181d",
      "assetIds": []
    },
    {
      "x": 138,
      "y": 391,
      "size": 1,
      "price": "1011000000000000000000",
      "reserved": "",
      "salt": "0xa21451d4fcfd11cc963a4beea3520d5a9151565361d5cb3b2f6f4c8fef499166",
      "assetIds": []
    },
    {
      "x": 138,
      "y": 392,
      "size": 1,
      "price": "1011000000000000000000",
      "reserved": "0x7a9fe22691c811ea339d9b73150e6911a5343dca",
      "salt": "0x279d26fca0f037c8273c131e88ed83406e0ef836e0605b287e8d4d658ef8a2c1",
      "assetIds": []
    },
    {
      "x": 138,
      "y": 393,
      "size": 1,
      "price": "1011000000000000000000",
      "reserved": "",
      "salt": "0x844a6b42e9b93f0c0ddadfdd5299bbbe5df63c30c9b63fbc654f1273aaed0466",
      "assetIds": []
    },
    {
      "x": 138,
      "y": 394,
      "size": 1,
      "price": "1011000000000000000000",
      "reserved": "",
      "salt": "0xf04e9d76f0fbbf35a90a980053c609cabd9aa288c4efb78c487e7ffa754bc1f5",
      "assetIds": []
    },
    {
      "x": 138,
      "y": 395,
      "size": 1,
      "price": "1011000000000000000000",
      "reserved": "0x7a9fe22691c811ea339d9b73150e6911a5343dca",
      "salt": "0x2ff52d7e33379c14ee9967ae2086b81118df7cad6becd6efef74f5b0c4760d3d",
      "assetIds": []
    },
    {
      "x": 138,
      "y": 396,
      "size": 1,
      "price": "1011000000000000000000",
      "reserved": "",
      "salt": "0x8d5dbb92619bd74148ae60f5cfa8bcdf0ba2134fa988566048bdc0e3deedefc9",
      "assetIds": []
    },
    {
      "x": 138,
      "y": 397,
      "size": 1,
      "price": "1011000000000000000000",
      "reserved": "0x7a9fe22691c811ea339d9b73150e6911a5343dca",
      "salt": "0x990cab411044a7ec9a1151aaadd7423a69e6ac8ce82c61be23ec73af0c054b11",
      "assetIds": []
    },
    {
      "x": 138,
      "y": 398,
      "size": 1,
      "price": "1011000000000000000000",
      "reserved": "0x7a9fe22691c811ea339d9b73150e6911a5343dca",
      "salt": "0x5af4c2fc7beebcaf17d0c91da260880537fd83478e8014877d0e846354a61428",
      "assetIds": []
    },
    {
      "x": 138,
      "y": 399,
      "size": 1,
      "price": "1011000000000000000000",
      "reserved": "",
      "salt": "0x2763b151601df4155dd892ba6d294d205ff59795703c9e4c591ba552e5d4c6a8",
      "assetIds": []
    },
    {
      "x": 138,
      "y": 400,
      "size": 1,
      "price": "1011000000000000000000",
      "reserved": "",
      "salt": "0x94fb7ba69f6d563e35598911f0b8789c61e48ad26faf3c85e582e6752479dd00",
      "assetIds": []
    },
    {
      "x": 138,
      "y": 401,
      "size": 1,
      "price": "4683000000000000000000",
      "reserved": "",
      "salt": "0xb3fb6bcba63b80954dfe809f2ced935e4cea969fb53af23969d1870ac898e892",
      "assetIds": [
        "55464657044963196816950587289035428064568320970692304673817341489687757334528",
        "55464657044963196816950587289035428064568320970692304673817341489687757334529",
        "55464657044963196816950587289035428064568320970692304673817341489687757334530",
        "55464657044963196816950587289035428064568320970692304673817341489687757334531",
        "55464657044963196816950587289035428064568320970692304673817341489687757334532"
      ]
    },
    {
      "x": 139,
      "y": 346,
      "size": 1,
      "price": "1011000000000000000000",
      "reserved": "",
      "salt": "0x0272715150349d232ff52b710e930ebd5ed681bd7f3d2e3f8ed1f885794c1290",
      "assetIds": []
    },
    {
      "x": 139,
      "y": 347,
      "size": 1,
      "price": "4683000000000000000000",
      "reserved": "",
      "salt": "0x8770aac68b76b71a3389d9d88ed806b16e687bd6ec8e445862d98467133e93df",
      "assetIds": [
        "55464657044963196816950587289035428064568320970692304673817341489687757334528",
        "55464657044963196816950587289035428064568320970692304673817341489687757334529",
        "55464657044963196816950587289035428064568320970692304673817341489687757334530",
        "55464657044963196816950587289035428064568320970692304673817341489687757334531",
        "55464657044963196816950587289035428064568320970692304673817341489687757334532"
      ]
    },
    {
      "x": 139,
      "y": 360,
      "size": 1,
      "price": "4683000000000000000000",
      "reserved": "",
      "salt": "0x79648bc61bb2f8b47ccb34a74bc78d0bc3ee6b3e2311629222f4e04cee4641e6",
      "assetIds": [
        "55464657044963196816950587289035428064568320970692304673817341489687757334528",
        "55464657044963196816950587289035428064568320970692304673817341489687757334529",
        "55464657044963196816950587289035428064568320970692304673817341489687757334530",
        "55464657044963196816950587289035428064568320970692304673817341489687757334531",
        "55464657044963196816950587289035428064568320970692304673817341489687757334532"
      ]
    },
    {
      "x": 139,
      "y": 361,
      "size": 1,
      "price": "1011000000000000000000",
      "reserved": "0x7a9fe22691c811ea339d9b73150e6911a5343dca",
      "salt": "0x4b2b74bc77287ace82c14826625c845381dccceb744035c79d919f1e07bcceeb",
      "assetIds": []
    },
    {
      "x": 139,
      "y": 362,
      "size": 1,
      "price": "1011000000000000000000",
      "reserved": "",
      "salt": "0x5b30805c29423375bb28b1f9f03fa855df8094bb398ba3a7aaaa5a59d9ad0150",
      "assetIds": []
    },
    {
      "x": 139,
      "y": 363,
      "size": 1,
      "price": "1011000000000000000000",
      "reserved": "",
      "salt": "0x8d91148175673622496a48009fcf8f190f15c53fed5d319d7e482d4f0d98d23b",
      "assetIds": []
    },
    {
      "x": 139,
      "y": 364,
      "size": 1,
      "price": "1011000000000000000000",
      "reserved": "0x7a9fe22691c811ea339d9b73150e6911a5343dca",
      "salt": "0x71ea1c8bac9f51f73c6a0d09b77cd88db4c09d4026e30dd2c297a10d468fcd85",
      "assetIds": []
    },
    {
      "x": 139,
      "y": 365,
      "size": 1,
      "price": "4683000000000000000000",
      "reserved": "",
      "salt": "0x6ee0fd993b7fa9ec9ea1ec72f702533fb152bbbc707daec365a24336c3959a71",
      "assetIds": [
        "55464657044963196816950587289035428064568320970692304673817341489687757334528",
        "55464657044963196816950587289035428064568320970692304673817341489687757334529",
        "55464657044963196816950587289035428064568320970692304673817341489687757334530",
        "55464657044963196816950587289035428064568320970692304673817341489687757334531",
        "55464657044963196816950587289035428064568320970692304673817341489687757334532"
      ]
    },
    {
      "x": 139,
      "y": 384,
      "size": 1,
      "price": "4683000000000000000000",
      "reserved": "",
      "salt": "0xdebf38ba823761c4c70e5d69d650e3e405ce4029420e444a54d831b235382f4d",
      "assetIds": [
        "55464657044963196816950587289035428064568320970692304673817341489687757334528",
        "55464657044963196816950587289035428064568320970692304673817341489687757334529",
        "55464657044963196816950587289035428064568320970692304673817341489687757334530",
        "55464657044963196816950587289035428064568320970692304673817341489687757334531",
        "55464657044963196816950587289035428064568320970692304673817341489687757334532"
      ]
    },
    {
      "x": 139,
      "y": 385,
      "size": 1,
      "price": "4683000000000000000000",
      "reserved": "",
      "salt": "0x56f92cedcdc184c14c14d9f6bd058e9887c20c361f339a71f290b58743fe608d",
      "assetIds": [
        "55464657044963196816950587289035428064568320970692304673817341489687757334528",
        "55464657044963196816950587289035428064568320970692304673817341489687757334529",
        "55464657044963196816950587289035428064568320970692304673817341489687757334530",
        "55464657044963196816950587289035428064568320970692304673817341489687757334531",
        "55464657044963196816950587289035428064568320970692304673817341489687757334532"
      ]
    },
    {
      "x": 139,
      "y": 386,
      "size": 1,
      "price": "1011000000000000000000",
      "reserved": "",
      "salt": "0xc90735d922efa01ed836ff30b594ac4f3b72a844cd8e6b39148e86cd9961696c",
      "assetIds": []
    },
    {
      "x": 139,
      "y": 390,
      "size": 1,
      "price": "1011000000000000000000",
      "reserved": "0x7a9fe22691c811ea339d9b73150e6911a5343dca",
      "salt": "0xad8db14d948ff2262bcfac18e7283f3a05d604d34add00c65943fb692b429094",
      "assetIds": []
    },
    {
      "x": 139,
      "y": 391,
      "size": 1,
      "price": "1011000000000000000000",
      "reserved": "",
      "salt": "0xb90c39981216337608bb2949b982e9db26314220eb3a4cd0f9d8800d172f44fa",
      "assetIds": []
    },
    {
      "x": 139,
      "y": 392,
      "size": 1,
      "price": "1011000000000000000000",
      "reserved": "",
      "salt": "0x5630203f74e0afc051963a960f34a1cbb6d810682609ca2a19c6ebdba736ce02",
      "assetIds": []
    },
    {
      "x": 139,
      "y": 393,
      "size": 1,
      "price": "1011000000000000000000",
      "reserved": "",
      "salt": "0x0df478d8ffec73a12fb2953f54a74a464a68eb458b5cc53a47fd88b688f90f1e",
      "assetIds": []
    },
    {
      "x": 139,
      "y": 394,
      "size": 1,
      "price": "1011000000000000000000",
      "reserved": "",
      "salt": "0xb7849b99f7f3ffc121ea185c8bb7b85a5942dc9e396cc0d0d1f3b1d82b16e4eb",
      "assetIds": []
    },
    {
      "x": 139,
      "y": 395,
      "size": 1,
      "price": "1011000000000000000000",
      "reserved": "",
      "salt": "0x4fee07fee1f336debf511bceefd518fcac29717cc063cf4c8f281cf88bd7248e",
      "assetIds": []
    },
    {
      "x": 139,
      "y": 396,
      "size": 1,
      "price": "1011000000000000000000",
      "reserved": "",
      "salt": "0x7da72b2c88da1554573d505e532a06d9c41ec7afba320748c7cfa7f4dc31c652",
      "assetIds": []
    },
    {
      "x": 139,
      "y": 397,
      "size": 1,
      "price": "1011000000000000000000",
      "reserved": "",
      "salt": "0x5a9fe563ad7342e91b80a63a2ee29848afd09d1fb705cc863a532b278d58c957",
      "assetIds": []
    },
    {
      "x": 139,
      "y": 398,
      "size": 1,
      "price": "1011000000000000000000",
      "reserved": "",
      "salt": "0x2c251e4e867ed1ec1a19db9b4c2a0a4b124487ccd169ff428d251b5a7712283d",
      "assetIds": []
    },
    {
      "x": 139,
      "y": 399,
      "size": 1,
      "price": "1011000000000000000000",
      "reserved": "",
      "salt": "0xfb3940b5701862eee4ecba01475a6a70c02918ba4110c3bd0f2e01b59dc62679",
      "assetIds": []
    },
    {
      "x": 139,
      "y": 400,
      "size": 1,
      "price": "1011000000000000000000",
      "reserved": "0x7a9fe22691c811ea339d9b73150e6911a5343dca",
      "salt": "0xaa66a79e4c214d87e151a51a766988b0ff5af8704163d4c4d31ff0b20b6e6a0b",
      "assetIds": []
    },
    {
      "x": 139,
      "y": 401,
      "size": 1,
      "price": "4683000000000000000000",
      "reserved": "",
      "salt": "0x06bf74ba74782bb2884a8a7371b06710124b27fdb1fc77994e9c424e1048d3a9",
      "assetIds": [
        "55464657044963196816950587289035428064568320970692304673817341489687757334528",
        "55464657044963196816950587289035428064568320970692304673817341489687757334529",
        "55464657044963196816950587289035428064568320970692304673817341489687757334530",
        "55464657044963196816950587289035428064568320970692304673817341489687757334531",
        "55464657044963196816950587289035428064568320970692304673817341489687757334532"
      ]
    },
    {
      "x": 140,
      "y": 346,
      "size": 1,
      "price": "1011000000000000000000",
      "reserved": "",
      "salt": "0xf85851c772981d65890446118b3935151c52e4111d89f0d3f1fb938e42b5a7b9",
      "assetIds": []
    },
    {
      "x": 140,
      "y": 347,
      "size": 1,
      "price": "4683000000000000000000",
      "reserved": "",
      "salt": "0xe2224a117b50ab97988c28634fc75d1127f0e085cc2ac4664cc38839f463ae81",
      "assetIds": [
        "55464657044963196816950587289035428064568320970692304673817341489687757334528",
        "55464657044963196816950587289035428064568320970692304673817341489687757334529",
        "55464657044963196816950587289035428064568320970692304673817341489687757334530",
        "55464657044963196816950587289035428064568320970692304673817341489687757334531",
        "55464657044963196816950587289035428064568320970692304673817341489687757334532"
      ]
    },
    {
      "x": 140,
      "y": 360,
      "size": 1,
      "price": "4683000000000000000000",
      "reserved": "",
      "salt": "0x41df968ce8b64fd19fd6574031f7ec6a64beb8336e4d93169af232dd15f1947e",
      "assetIds": [
        "55464657044963196816950587289035428064568320970692304673817341489687757334528",
        "55464657044963196816950587289035428064568320970692304673817341489687757334529",
        "55464657044963196816950587289035428064568320970692304673817341489687757334530",
        "55464657044963196816950587289035428064568320970692304673817341489687757334531",
        "55464657044963196816950587289035428064568320970692304673817341489687757334532"
      ]
    },
    {
      "x": 140,
      "y": 361,
      "size": 1,
      "price": "4683000000000000000000",
      "reserved": "",
      "salt": "0xb7ca681a82f0c0fc929bcc55838cdc91c0e4abac7788040fd9249dd4ab9e3b38",
      "assetIds": [
        "55464657044963196816950587289035428064568320970692304673817341489687757334528",
        "55464657044963196816950587289035428064568320970692304673817341489687757334529",
        "55464657044963196816950587289035428064568320970692304673817341489687757334530",
        "55464657044963196816950587289035428064568320970692304673817341489687757334531",
        "55464657044963196816950587289035428064568320970692304673817341489687757334532"
      ]
    },
    {
      "x": 140,
      "y": 362,
      "size": 1,
      "price": "1011000000000000000000",
      "reserved": "",
      "salt": "0x729c7a1c0dd0e609819bda45ecd9e585dbd50be199b8ede2268bf94af7851d79",
      "assetIds": []
    },
    {
      "x": 140,
      "y": 363,
      "size": 1,
      "price": "1011000000000000000000",
      "reserved": "",
      "salt": "0x164089ce7ca4aa4f4aebeb9b2d9d1808b9ea7af0d6c5452e331b87b9cefdb4e7",
      "assetIds": []
    },
    {
      "x": 140,
      "y": 364,
      "size": 1,
      "price": "1011000000000000000000",
      "reserved": "",
      "salt": "0xa0405a5c8fbef80f0c8e00d647a2ec31943a7f1e798d64a1bab9dd414a7ccdfe",
      "assetIds": []
    },
    {
      "x": 140,
      "y": 365,
      "size": 1,
      "price": "4683000000000000000000",
      "reserved": "",
      "salt": "0x832c90ceec8a8a9c3e244174d10b9bc3bcbcbdc13f55469eb3803184f7bb04ea",
      "assetIds": [
        "55464657044963196816950587289035428064568320970692304673817341489687757334528",
        "55464657044963196816950587289035428064568320970692304673817341489687757334529",
        "55464657044963196816950587289035428064568320970692304673817341489687757334530",
        "55464657044963196816950587289035428064568320970692304673817341489687757334531",
        "55464657044963196816950587289035428064568320970692304673817341489687757334532"
      ]
    },
    {
      "x": 140,
      "y": 384,
      "size": 1,
      "price": "4683000000000000000000",
      "reserved": "",
      "salt": "0x00c09445e24e47295bcf60be2c498212136b774654304dfff711fd696e9657ff",
      "assetIds": [
        "55464657044963196816950587289035428064568320970692304673817341489687757334528",
        "55464657044963196816950587289035428064568320970692304673817341489687757334529",
        "55464657044963196816950587289035428064568320970692304673817341489687757334530",
        "55464657044963196816950587289035428064568320970692304673817341489687757334531",
        "55464657044963196816950587289035428064568320970692304673817341489687757334532"
      ]
    },
    {
      "x": 140,
      "y": 385,
      "size": 1,
      "price": "4683000000000000000000",
      "reserved": "",
      "salt": "0xd1b7209f3bfb7dd6e547c2ecbaf3e22e2de19d53ff57ad4cea4c53ca880fbd70",
      "assetIds": [
        "55464657044963196816950587289035428064568320970692304673817341489687757334528",
        "55464657044963196816950587289035428064568320970692304673817341489687757334529",
        "55464657044963196816950587289035428064568320970692304673817341489687757334530",
        "55464657044963196816950587289035428064568320970692304673817341489687757334531",
        "55464657044963196816950587289035428064568320970692304673817341489687757334532"
      ]
    },
    {
      "x": 140,
      "y": 386,
      "size": 1,
      "price": "4683000000000000000000",
      "reserved": "",
      "salt": "0x20a03ce81baecda33891b257c3b5900fc77411863b86a752d0076aee6f59499d",
      "assetIds": [
        "55464657044963196816950587289035428064568320970692304673817341489687757334528",
        "55464657044963196816950587289035428064568320970692304673817341489687757334529",
        "55464657044963196816950587289035428064568320970692304673817341489687757334530",
        "55464657044963196816950587289035428064568320970692304673817341489687757334531",
        "55464657044963196816950587289035428064568320970692304673817341489687757334532"
      ]
    },
    {
      "x": 140,
      "y": 390,
      "size": 1,
      "price": "1011000000000000000000",
      "reserved": "",
      "salt": "0xc272a535b7a961553ce92f8ee57dd324a15761f11b5a81ae87c46b88dccda019",
      "assetIds": []
    },
    {
      "x": 140,
      "y": 391,
      "size": 1,
      "price": "1011000000000000000000",
      "reserved": "",
      "salt": "0xa23ed4c4015c8be8b168a999fbb3d460cdd863b4ac63bb52412d682fddfee9e3",
      "assetIds": []
    },
    {
      "x": 140,
      "y": 392,
      "size": 1,
      "price": "1011000000000000000000",
      "reserved": "",
      "salt": "0x9cfc3c00558e9fc60eb950338fca6025ccf7e821744635c95eea2150d6aa0328",
      "assetIds": []
    },
    {
      "x": 140,
      "y": 393,
      "size": 1,
      "price": "1011000000000000000000",
      "reserved": "0x7a9fe22691c811ea339d9b73150e6911a5343dca",
      "salt": "0x7c13be089e35b3d2b3c50e675c4b157dba7606d122f8b065e389a5f527c37c80",
      "assetIds": []
    },
    {
      "x": 140,
      "y": 394,
      "size": 1,
      "price": "1011000000000000000000",
      "reserved": "",
      "salt": "0xb9ddd0ab7abeacf2ee5121da41c2c73175c14f6aef11338a7542ffd793de7fa7",
      "assetIds": []
    },
    {
      "x": 140,
      "y": 395,
      "size": 1,
      "price": "1011000000000000000000",
      "reserved": "",
      "salt": "0x3263a5bba78482376a8237d410a8030323d3c15e3825a49fa06410b473c1565e",
      "assetIds": []
    },
    {
      "x": 140,
      "y": 396,
      "size": 1,
      "price": "1011000000000000000000",
      "reserved": "",
      "salt": "0x4d7955ef4c935b2872c04ad981c7d7377ec30184aaca244191350a6d5196d621",
      "assetIds": []
    },
    {
      "x": 140,
      "y": 397,
      "size": 1,
      "price": "1011000000000000000000",
      "reserved": "",
      "salt": "0x2fc7be3a8bf3f5d7870458bfed7d8cd5a2d5dd9a2a98dd00ca437dbf63398ddb",
      "assetIds": []
    },
    {
      "x": 140,
      "y": 398,
      "size": 1,
      "price": "1011000000000000000000",
      "reserved": "0x7a9fe22691c811ea339d9b73150e6911a5343dca",
      "salt": "0xff15c613acf1d932b53ceb53b188d43767026c3e383ae9708895406635d385d5",
      "assetIds": []
    },
    {
      "x": 140,
      "y": 399,
      "size": 1,
      "price": "1011000000000000000000",
      "reserved": "",
      "salt": "0xb6cc86141d596e2a13578fe30c9e9ffa1ac55692df6732a0c50969fb35be34b4",
      "assetIds": []
    },
    {
      "x": 140,
      "y": 400,
      "size": 1,
      "price": "1011000000000000000000",
      "reserved": "",
      "salt": "0x38699f43a2b3543eb8ed10bb60a166f3b8152a2cdbb26907db4a2d8c80dc8018",
      "assetIds": []
    },
    {
      "x": 140,
      "y": 401,
      "size": 1,
      "price": "4683000000000000000000",
      "reserved": "",
      "salt": "0x40b273b5be1c2982ab526f88040f6853f383fa4ace86d39fbed3ce32c1a8be92",
      "assetIds": [
        "55464657044963196816950587289035428064568320970692304673817341489687757334528",
        "55464657044963196816950587289035428064568320970692304673817341489687757334529",
        "55464657044963196816950587289035428064568320970692304673817341489687757334530",
        "55464657044963196816950587289035428064568320970692304673817341489687757334531",
        "55464657044963196816950587289035428064568320970692304673817341489687757334532"
      ]
    },
    {
      "x": 141,
      "y": 346,
      "size": 1,
      "price": "1011000000000000000000",
      "reserved": "",
      "salt": "0x550ef6dfcb32d33f7199d4207a48ac6a8a7f94e7fb2c08e75d5dc8f3f1ce8a33",
      "assetIds": []
    },
    {
      "x": 141,
      "y": 347,
      "size": 1,
      "price": "4683000000000000000000",
      "reserved": "",
      "salt": "0xb443addc80d8db7ca99b7e67b6161dea24692cd06b57896d4941f0eb1cc45270",
      "assetIds": [
        "55464657044963196816950587289035428064568320970692304673817341489687757334528",
        "55464657044963196816950587289035428064568320970692304673817341489687757334529",
        "55464657044963196816950587289035428064568320970692304673817341489687757334530",
        "55464657044963196816950587289035428064568320970692304673817341489687757334531",
        "55464657044963196816950587289035428064568320970692304673817341489687757334532"
      ]
    },
    {
      "x": 141,
      "y": 360,
      "size": 1,
      "price": "4683000000000000000000",
      "reserved": "",
      "salt": "0x5e070b69c6371145de3ddfeaad146cfc428587617e28a4949b786481ae618322",
      "assetIds": [
        "55464657044963196816950587289035428064568320970692304673817341489687757334528",
        "55464657044963196816950587289035428064568320970692304673817341489687757334529",
        "55464657044963196816950587289035428064568320970692304673817341489687757334530",
        "55464657044963196816950587289035428064568320970692304673817341489687757334531",
        "55464657044963196816950587289035428064568320970692304673817341489687757334532"
      ]
    },
    {
      "x": 141,
      "y": 361,
      "size": 1,
      "price": "4683000000000000000000",
      "reserved": "",
      "salt": "0x77f044d7296a84994ab260f8aba8ed56d882fdc5e4d72a997058e01f61eea71b",
      "assetIds": [
        "55464657044963196816950587289035428064568320970692304673817341489687757334528",
        "55464657044963196816950587289035428064568320970692304673817341489687757334529",
        "55464657044963196816950587289035428064568320970692304673817341489687757334530",
        "55464657044963196816950587289035428064568320970692304673817341489687757334531",
        "55464657044963196816950587289035428064568320970692304673817341489687757334532"
      ]
    },
    {
      "x": 141,
      "y": 362,
      "size": 1,
      "price": "1011000000000000000000",
      "reserved": "0x7a9fe22691c811ea339d9b73150e6911a5343dca",
      "salt": "0xe3388d0c509a9601b6e9b6b935bb7448f55d8fe328855fa2f1f72d5847d99eb5",
      "assetIds": []
    },
    {
      "x": 141,
      "y": 363,
      "size": 1,
      "price": "1011000000000000000000",
      "reserved": "",
      "salt": "0xac36dfc51e21ace69b770276eacd34604e78c20a394c0db97c56718ed06811f4",
      "assetIds": []
    },
    {
      "x": 141,
      "y": 364,
      "size": 1,
      "price": "1011000000000000000000",
      "reserved": "",
      "salt": "0x4a0e260a93278fe35326f6886cdde88d40986cf0e93e8510c0f858c0e97a671e",
      "assetIds": []
    },
    {
      "x": 141,
      "y": 365,
      "size": 1,
      "price": "4683000000000000000000",
      "reserved": "",
      "salt": "0x0637960d48d43091d77ddb42d1c60b6d2886307eab8de62246b1f1c4797a3704",
      "assetIds": [
        "55464657044963196816950587289035428064568320970692304673817341489687757334528",
        "55464657044963196816950587289035428064568320970692304673817341489687757334529",
        "55464657044963196816950587289035428064568320970692304673817341489687757334530",
        "55464657044963196816950587289035428064568320970692304673817341489687757334531",
        "55464657044963196816950587289035428064568320970692304673817341489687757334532"
      ]
    },
    {
      "x": 141,
      "y": 384,
      "size": 1,
      "price": "4683000000000000000000",
      "reserved": "",
      "salt": "0xf055295ae6db88035c01c9810b5f01a74e8aa3f61ca247e5e16e252448fd85cc",
      "assetIds": [
        "55464657044963196816950587289035428064568320970692304673817341489687757334528",
        "55464657044963196816950587289035428064568320970692304673817341489687757334529",
        "55464657044963196816950587289035428064568320970692304673817341489687757334530",
        "55464657044963196816950587289035428064568320970692304673817341489687757334531",
        "55464657044963196816950587289035428064568320970692304673817341489687757334532"
      ]
    },
    {
      "x": 141,
      "y": 385,
      "size": 1,
      "price": "1011000000000000000000",
      "reserved": "0x7a9fe22691c811ea339d9b73150e6911a5343dca",
      "salt": "0x8f5408f8d194f83ae109e8bf26157d83ff76bf1c54cdb0f0e81d0a80d1a40563",
      "assetIds": []
    },
    {
      "x": 141,
      "y": 386,
      "size": 1,
      "price": "4683000000000000000000",
      "reserved": "",
      "salt": "0xa08f38c7ce79a63d69fb53351aa1f79673fffa69b9081b92d8866df2420eba21",
      "assetIds": [
        "55464657044963196816950587289035428064568320970692304673817341489687757334528",
        "55464657044963196816950587289035428064568320970692304673817341489687757334529",
        "55464657044963196816950587289035428064568320970692304673817341489687757334530",
        "55464657044963196816950587289035428064568320970692304673817341489687757334531",
        "55464657044963196816950587289035428064568320970692304673817341489687757334532"
      ]
    },
    {
      "x": 141,
      "y": 387,
      "size": 1,
      "price": "1011000000000000000000",
      "reserved": "",
      "salt": "0xbfd81c6a1161784a7ad2fba77b96d8deba46b12e2c03c33757211be8e67e79ba",
      "assetIds": []
    },
    {
      "x": 141,
      "y": 388,
      "size": 1,
      "price": "1011000000000000000000",
      "reserved": "0x7a9fe22691c811ea339d9b73150e6911a5343dca",
      "salt": "0xb1d6c1e41687b1636fb0ef4f5bb87ebad509bb4cfb68234c727d7e6d22c65d3f",
      "assetIds": []
    },
    {
      "x": 141,
      "y": 389,
      "size": 1,
      "price": "1011000000000000000000",
      "reserved": "",
      "salt": "0xa21ddd12d19da9267fa07274bc432d74f4acf7c7c274991797fe2ad7c94c9b54",
      "assetIds": []
    },
    {
      "x": 141,
      "y": 390,
      "size": 1,
      "price": "1011000000000000000000",
      "reserved": "0x7a9fe22691c811ea339d9b73150e6911a5343dca",
      "salt": "0x984a2670fd208dd0b4132fc73d0c1968519b1b28d9e4b4c7d38c91be414647fe",
      "assetIds": []
    },
    {
      "x": 141,
      "y": 391,
      "size": 1,
      "price": "1011000000000000000000",
      "reserved": "",
      "salt": "0x881ee4c14f4510c6fcb4f97f5446c7a4f7bdea00febf7739de6a9828f982df93",
      "assetIds": []
    },
    {
      "x": 141,
      "y": 392,
      "size": 1,
      "price": "1011000000000000000000",
      "reserved": "",
      "salt": "0xc27e7831e71599bab4e41439e037114c67db8020eaec6b95426370adc889953c",
      "assetIds": []
    },
    {
      "x": 141,
      "y": 393,
      "size": 1,
      "price": "1011000000000000000000",
      "reserved": "",
      "salt": "0x04701c22486242e59234f8e52b6c7204ec7c1ac5e4ac31a3323145000d2bc917",
      "assetIds": []
    },
    {
      "x": 141,
      "y": 394,
      "size": 1,
      "price": "1011000000000000000000",
      "reserved": "",
      "salt": "0xd9cfabe4165ded3602ea9ac26286a4f8ef2404e193c32fd639277a918b71efc8",
      "assetIds": []
    },
    {
      "x": 141,
      "y": 395,
      "size": 1,
      "price": "1011000000000000000000",
      "reserved": "",
      "salt": "0x717d29b6784690fa543c0843602b52b751caa9ba0d35dbc35a77e3e1b7242fa4",
      "assetIds": []
    },
    {
      "x": 141,
      "y": 399,
      "size": 1,
      "price": "1011000000000000000000",
      "reserved": "0x7a9fe22691c811ea339d9b73150e6911a5343dca",
      "salt": "0xba801269000a75ec3db4bad6ca2b7e86610dc28a12e6c913b226e16703da360c",
      "assetIds": []
    },
    {
      "x": 141,
      "y": 400,
      "size": 1,
      "price": "1011000000000000000000",
      "reserved": "",
      "salt": "0x49977f82c4600c6e569c7c8b1c1433b48209beb79575a5d3f6c295e9f0dbc6bf",
      "assetIds": []
    },
    {
      "x": 141,
      "y": 401,
      "size": 1,
      "price": "4683000000000000000000",
      "reserved": "",
      "salt": "0x371213e697db052ca24ad36bc4a05c41d95f9a98bc3d802b360a99ce61312e11",
      "assetIds": [
        "55464657044963196816950587289035428064568320970692304673817341489687757334528",
        "55464657044963196816950587289035428064568320970692304673817341489687757334529",
        "55464657044963196816950587289035428064568320970692304673817341489687757334530",
        "55464657044963196816950587289035428064568320970692304673817341489687757334531",
        "55464657044963196816950587289035428064568320970692304673817341489687757334532"
      ]
    },
    {
      "x": 142,
      "y": 346,
      "size": 1,
      "price": "1011000000000000000000",
      "reserved": "",
      "salt": "0x4bba2719696f359d60401ddfb89635c1fd86443b56c87d2b7ee129ad4ddf935d",
      "assetIds": []
    },
    {
      "x": 142,
      "y": 347,
      "size": 1,
      "price": "4683000000000000000000",
      "reserved": "",
      "salt": "0x8c604cf03d6e844a0daf3267badd9c04aa1be17cfc8b0d2219a22a88ac0cbc9e",
      "assetIds": [
        "55464657044963196816950587289035428064568320970692304673817341489687757334528",
        "55464657044963196816950587289035428064568320970692304673817341489687757334529",
        "55464657044963196816950587289035428064568320970692304673817341489687757334530",
        "55464657044963196816950587289035428064568320970692304673817341489687757334531",
        "55464657044963196816950587289035428064568320970692304673817341489687757334532"
      ]
    },
    {
      "x": 142,
      "y": 360,
      "size": 1,
      "price": "4683000000000000000000",
      "reserved": "",
      "salt": "0x8a2d5bde03474b34759ab3d2104e086875d357c27785917b282323bceaa5cd8c",
      "assetIds": [
        "55464657044963196816950587289035428064568320970692304673817341489687757334528",
        "55464657044963196816950587289035428064568320970692304673817341489687757334529",
        "55464657044963196816950587289035428064568320970692304673817341489687757334530",
        "55464657044963196816950587289035428064568320970692304673817341489687757334531",
        "55464657044963196816950587289035428064568320970692304673817341489687757334532"
      ]
    },
    {
      "x": 142,
      "y": 361,
      "size": 1,
      "price": "1011000000000000000000",
      "reserved": "",
      "salt": "0x229b7e9971e5bf3bc2320ba26f732cd388810feed78c6d990041225f418f4692",
      "assetIds": []
    },
    {
      "x": 142,
      "y": 362,
      "size": 1,
      "price": "1011000000000000000000",
      "reserved": "",
      "salt": "0x332cf3f1df30c025e159a48287f7ca5afc024791db72fb99b8363577680a1532",
      "assetIds": []
    },
    {
      "x": 142,
      "y": 363,
      "size": 1,
      "price": "1011000000000000000000",
      "reserved": "",
      "salt": "0x2a7b1cf428b7cbc8c41e1a69eeede6ed9f6abbb5050d35a0fb3271b6f38a7a2c",
      "assetIds": []
    },
    {
      "x": 142,
      "y": 364,
      "size": 1,
      "price": "1011000000000000000000",
      "reserved": "",
      "salt": "0x5467c45500c148cc818f89de0535aca281baafc9e8e0a9db83f562b3a1cfa61c",
      "assetIds": []
    },
    {
      "x": 142,
      "y": 365,
      "size": 1,
      "price": "4683000000000000000000",
      "reserved": "",
      "salt": "0x7f39cc3196efabc02a9486e5e801644742ef25879ee14fb7f78080773fd5450d",
      "assetIds": [
        "55464657044963196816950587289035428064568320970692304673817341489687757334528",
        "55464657044963196816950587289035428064568320970692304673817341489687757334529",
        "55464657044963196816950587289035428064568320970692304673817341489687757334530",
        "55464657044963196816950587289035428064568320970692304673817341489687757334531",
        "55464657044963196816950587289035428064568320970692304673817341489687757334532"
      ]
    },
    {
      "x": 142,
      "y": 384,
      "size": 1,
      "price": "4683000000000000000000",
      "reserved": "",
      "salt": "0xc659d81ef9b8e5554d67cf6be44636254e8491648d38589b35e8dc851e799fae",
      "assetIds": [
        "55464657044963196816950587289035428064568320970692304673817341489687757334528",
        "55464657044963196816950587289035428064568320970692304673817341489687757334529",
        "55464657044963196816950587289035428064568320970692304673817341489687757334530",
        "55464657044963196816950587289035428064568320970692304673817341489687757334531",
        "55464657044963196816950587289035428064568320970692304673817341489687757334532"
      ]
    },
    {
      "x": 142,
      "y": 385,
      "size": 1,
      "price": "4683000000000000000000",
      "reserved": "",
      "salt": "0x6c39ed96b8cada42b8c2393d0d9c7d583f2110fd8e9e1cfd69e1c2329cc7dbea",
      "assetIds": [
        "55464657044963196816950587289035428064568320970692304673817341489687757334528",
        "55464657044963196816950587289035428064568320970692304673817341489687757334529",
        "55464657044963196816950587289035428064568320970692304673817341489687757334530",
        "55464657044963196816950587289035428064568320970692304673817341489687757334531",
        "55464657044963196816950587289035428064568320970692304673817341489687757334532"
      ]
    },
    {
      "x": 142,
      "y": 386,
      "size": 1,
      "price": "4683000000000000000000",
      "reserved": "",
      "salt": "0x106901a0799f705cd608fe9a9262eea808fded4c5d6c5fd3e613b116b3036cdc",
      "assetIds": [
        "55464657044963196816950587289035428064568320970692304673817341489687757334528",
        "55464657044963196816950587289035428064568320970692304673817341489687757334529",
        "55464657044963196816950587289035428064568320970692304673817341489687757334530",
        "55464657044963196816950587289035428064568320970692304673817341489687757334531",
        "55464657044963196816950587289035428064568320970692304673817341489687757334532"
      ]
    },
    {
      "x": 142,
      "y": 387,
      "size": 1,
      "price": "1011000000000000000000",
      "reserved": "0x7a9fe22691c811ea339d9b73150e6911a5343dca",
      "salt": "0xff80ec99a99a91a813cef756f123625c7a41252f2647204009e0a1615ae9663f",
      "assetIds": []
    },
    {
      "x": 142,
      "y": 388,
      "size": 1,
      "price": "1011000000000000000000",
      "reserved": "",
      "salt": "0x8d913f4d0ba6606fb809c732cdadcb5b0a37d60bab796f6e283f44c77c42ed8c",
      "assetIds": []
    },
    {
      "x": 142,
      "y": 389,
      "size": 1,
      "price": "1011000000000000000000",
      "reserved": "0x7a9fe22691c811ea339d9b73150e6911a5343dca",
      "salt": "0xcc91cba9c5720a9a828680270a834f6e81e94715611d9977608d14943a3779b0",
      "assetIds": []
    },
    {
      "x": 142,
      "y": 390,
      "size": 1,
      "price": "1011000000000000000000",
      "reserved": "",
      "salt": "0xa63fa1f9821df9801af8f49a87c5a87385f6bc033f748965734ac77c771f9a59",
      "assetIds": []
    },
    {
      "x": 142,
      "y": 391,
      "size": 1,
      "price": "1011000000000000000000",
      "reserved": "",
      "salt": "0xf27a63644b8f249cc62d7338d5d8c546caf214c52ec28e07473ab089d819cbb7",
      "assetIds": []
    },
    {
      "x": 142,
      "y": 392,
      "size": 1,
      "price": "1011000000000000000000",
      "reserved": "0x7a9fe22691c811ea339d9b73150e6911a5343dca",
      "salt": "0x30fad942742d6d0e89de3cb1107d4ae9ed16a9dc1117cb2d0463233420073291",
      "assetIds": []
    },
    {
      "x": 142,
      "y": 393,
      "size": 1,
      "price": "1011000000000000000000",
      "reserved": "",
      "salt": "0xf0623baccbf3cb740df185c0b2165737fbdd0329d6406abfa6c0adbad4db9ef7",
      "assetIds": []
    },
    {
      "x": 142,
      "y": 394,
      "size": 1,
      "price": "1011000000000000000000",
      "reserved": "0x7a9fe22691c811ea339d9b73150e6911a5343dca",
      "salt": "0x1547f7625ea2142db9abf8ba4268a88c2cb2b483e92e38e4b46e8df2932318ad",
      "assetIds": []
    },
    {
      "x": 142,
      "y": 395,
      "size": 1,
      "price": "1011000000000000000000",
      "reserved": "",
      "salt": "0x1fbd2ed246da5473fac6e517fc8450b0087b5c20886025d88dc8920e3763e482",
      "assetIds": []
    },
    {
      "x": 142,
      "y": 399,
      "size": 1,
      "price": "1011000000000000000000",
      "reserved": "",
      "salt": "0xc537654cccb4d1475527d105eae864f26adceb9e6e5c2f3f273888ee94c1c0c0",
      "assetIds": []
    },
    {
      "x": 142,
      "y": 400,
      "size": 1,
      "price": "1011000000000000000000",
      "reserved": "",
      "salt": "0xc9d6f5e6912fbdcc5449a616076195af6d16a171330dd70a2991ef66fc1c7f7c",
      "assetIds": []
    },
    {
      "x": 142,
      "y": 401,
      "size": 1,
      "price": "4683000000000000000000",
      "reserved": "",
      "salt": "0x53ed953303ec68b386e91a7a744764dbf4f625938d3528e59a9a43eb55553f68",
      "assetIds": [
        "55464657044963196816950587289035428064568320970692304673817341489687757334528",
        "55464657044963196816950587289035428064568320970692304673817341489687757334529",
        "55464657044963196816950587289035428064568320970692304673817341489687757334530",
        "55464657044963196816950587289035428064568320970692304673817341489687757334531",
        "55464657044963196816950587289035428064568320970692304673817341489687757334532"
      ]
    },
    {
      "x": 143,
      "y": 346,
      "size": 1,
      "price": "1011000000000000000000",
      "reserved": "",
      "salt": "0x06af0f82af8a3e1bbbd76bc3a0abc155e34e4a491f8a29ca50c5d44583b7857d",
      "assetIds": []
    },
    {
      "x": 143,
      "y": 347,
      "size": 1,
      "price": "4683000000000000000000",
      "reserved": "",
      "salt": "0xa611cc1c3dc60e005f7c0fc59058e098d5cfdf6b5024f1cb8dae1591d84166f7",
      "assetIds": [
        "55464657044963196816950587289035428064568320970692304673817341489687757334528",
        "55464657044963196816950587289035428064568320970692304673817341489687757334529",
        "55464657044963196816950587289035428064568320970692304673817341489687757334530",
        "55464657044963196816950587289035428064568320970692304673817341489687757334531",
        "55464657044963196816950587289035428064568320970692304673817341489687757334532"
      ]
    },
    {
      "x": 143,
      "y": 360,
      "size": 1,
      "price": "4683000000000000000000",
      "reserved": "",
      "salt": "0x78065b66d306ba2acf3368b40fa815c3848f2bbed7474c7b57c045072209e165",
      "assetIds": [
        "55464657044963196816950587289035428064568320970692304673817341489687757334528",
        "55464657044963196816950587289035428064568320970692304673817341489687757334529",
        "55464657044963196816950587289035428064568320970692304673817341489687757334530",
        "55464657044963196816950587289035428064568320970692304673817341489687757334531",
        "55464657044963196816950587289035428064568320970692304673817341489687757334532"
      ]
    },
    {
      "x": 143,
      "y": 361,
      "size": 1,
      "price": "1011000000000000000000",
      "reserved": "",
      "salt": "0x00425c7819dcb8a5b5757dbee03b9d557674f62d9614a7ccc0676c14a29cd9ca",
      "assetIds": []
    },
    {
      "x": 143,
      "y": 362,
      "size": 1,
      "price": "1011000000000000000000",
      "reserved": "",
      "salt": "0x552950952035ea7ebd95ef392e08c95d3f21b6f856d2cf12cb935ec14cacbf0a",
      "assetIds": []
    },
    {
      "x": 143,
      "y": 363,
      "size": 1,
      "price": "1011000000000000000000",
      "reserved": "",
      "salt": "0xff566b1b3decee220fc96a45cab557af51ef1b3a83484c148ddae7c87d4ba9cb",
      "assetIds": []
    },
    {
      "x": 143,
      "y": 364,
      "size": 1,
      "price": "1011000000000000000000",
      "reserved": "",
      "salt": "0xb938caebfe5f05ab7017580c98dc262d46a05340c6c16ec743471be34fe08918",
      "assetIds": []
    },
    {
      "x": 143,
      "y": 365,
      "size": 1,
      "price": "4683000000000000000000",
      "reserved": "",
      "salt": "0x8f95adc39718d12d77e6f6fc832157ca1b74d793e52ec5ac67f9366de4cb5fe0",
      "assetIds": [
        "55464657044963196816950587289035428064568320970692304673817341489687757334528",
        "55464657044963196816950587289035428064568320970692304673817341489687757334529",
        "55464657044963196816950587289035428064568320970692304673817341489687757334530",
        "55464657044963196816950587289035428064568320970692304673817341489687757334531",
        "55464657044963196816950587289035428064568320970692304673817341489687757334532"
      ]
    },
    {
      "x": 143,
      "y": 384,
      "size": 1,
      "price": "4683000000000000000000",
      "reserved": "",
      "salt": "0x0826145d07223185b91ebe04cbed4d84c67de2d8098aa69cff19133bca0dc44e",
      "assetIds": [
        "55464657044963196816950587289035428064568320970692304673817341489687757334528",
        "55464657044963196816950587289035428064568320970692304673817341489687757334529",
        "55464657044963196816950587289035428064568320970692304673817341489687757334530",
        "55464657044963196816950587289035428064568320970692304673817341489687757334531",
        "55464657044963196816950587289035428064568320970692304673817341489687757334532"
      ]
    },
    {
      "x": 143,
      "y": 385,
      "size": 1,
      "price": "4683000000000000000000",
      "reserved": "",
      "salt": "0x6cb6cd865c4a3ddefcd8582f7c81dbbb54b16ef2570ff67be4da7b7332d5d9a3",
      "assetIds": [
        "55464657044963196816950587289035428064568320970692304673817341489687757334528",
        "55464657044963196816950587289035428064568320970692304673817341489687757334529",
        "55464657044963196816950587289035428064568320970692304673817341489687757334530",
        "55464657044963196816950587289035428064568320970692304673817341489687757334531",
        "55464657044963196816950587289035428064568320970692304673817341489687757334532"
      ]
    },
    {
      "x": 143,
      "y": 386,
      "size": 1,
      "price": "1011000000000000000000",
      "reserved": "0x7a9fe22691c811ea339d9b73150e6911a5343dca",
      "salt": "0x7eee9025bb02e9420f194bdbd37e3bc5f0933385784d8c3c16a93403ced1c88c",
      "assetIds": []
    },
    {
      "x": 143,
      "y": 387,
      "size": 1,
      "price": "4683000000000000000000",
      "reserved": "",
      "salt": "0xc3d1edc127867bb558eaa40e0e41938ed20535b5a274f8bb93a1ede2a388b826",
      "assetIds": [
        "55464657044963196816950587289035428064568320970692304673817341489687757334528",
        "55464657044963196816950587289035428064568320970692304673817341489687757334529",
        "55464657044963196816950587289035428064568320970692304673817341489687757334530",
        "55464657044963196816950587289035428064568320970692304673817341489687757334531",
        "55464657044963196816950587289035428064568320970692304673817341489687757334532"
      ]
    },
    {
      "x": 143,
      "y": 388,
      "size": 1,
      "price": "1011000000000000000000",
      "reserved": "",
      "salt": "0x53973108cefa08eb5ba5b0ca771490ffb9f1f7115c298845cc178682bbdec1d7",
      "assetIds": []
    },
    {
      "x": 143,
      "y": 389,
      "size": 1,
      "price": "1011000000000000000000",
      "reserved": "",
      "salt": "0x8e61d5dd961bc9943736c88bbc8e1d57cc96c1b968eb6b98b484c0604d08826d",
      "assetIds": []
    },
    {
      "x": 143,
      "y": 390,
      "size": 1,
      "price": "1011000000000000000000",
      "reserved": "",
      "salt": "0xea1b6364ee12a89ceff6fceed78ce1552f1b368066e09a4d0326eb2c0062283e",
      "assetIds": []
    },
    {
      "x": 143,
      "y": 391,
      "size": 1,
      "price": "1011000000000000000000",
      "reserved": "",
      "salt": "0x74a61404dffd61bef948870da888f5e8c29b7f4efe759fe1222fde9a6eb4da75",
      "assetIds": []
    },
    {
      "x": 143,
      "y": 392,
      "size": 1,
      "price": "1011000000000000000000",
      "reserved": "",
      "salt": "0xd4c2f763d330b29a80ab8c6468e3a0b7ccf94f4fe36d8a8342ea0ece6240e368",
      "assetIds": []
    },
    {
      "x": 143,
      "y": 393,
      "size": 1,
      "price": "1011000000000000000000",
      "reserved": "",
      "salt": "0x4857fb4487e1612ac64b9e1c8a3bdedb443bbe6aa9fc90b52e4da487140521e0",
      "assetIds": []
    },
    {
      "x": 143,
      "y": 394,
      "size": 1,
      "price": "1011000000000000000000",
      "reserved": "",
      "salt": "0x409ab4c6f9bacec54302dd4a574bcc3cff05fbb49798a7e15c2f7da92fcf4f07",
      "assetIds": []
    },
    {
      "x": 143,
      "y": 395,
      "size": 1,
      "price": "1011000000000000000000",
      "reserved": "0x7a9fe22691c811ea339d9b73150e6911a5343dca",
      "salt": "0x703f4c1a23825ee0a9afd357d93e95f354d58c74fa9422262f996e033b3dd526",
      "assetIds": []
    },
    {
      "x": 143,
      "y": 399,
      "size": 1,
      "price": "1011000000000000000000",
      "reserved": "0x7a9fe22691c811ea339d9b73150e6911a5343dca",
      "salt": "0x020c460634d3d55c87f510cb9cf49620b0093e4f967ad55827d70f2aead7e99b",
      "assetIds": []
    },
    {
      "x": 143,
      "y": 400,
      "size": 1,
      "price": "1011000000000000000000",
      "reserved": "",
      "salt": "0xaa66b814bc5babf3377de03bf729a2422a884c5d6a29f5c434c0f49405cdf3d5",
      "assetIds": []
    },
    {
      "x": 143,
      "y": 401,
      "size": 1,
      "price": "4683000000000000000000",
      "reserved": "",
      "salt": "0x6761c75ea067c3ec0a989d61036472ab5c120b465aa97a6186bbd8e21c004c20",
      "assetIds": [
        "55464657044963196816950587289035428064568320970692304673817341489687757334528",
        "55464657044963196816950587289035428064568320970692304673817341489687757334529",
        "55464657044963196816950587289035428064568320970692304673817341489687757334530",
        "55464657044963196816950587289035428064568320970692304673817341489687757334531",
        "55464657044963196816950587289035428064568320970692304673817341489687757334532"
      ]
    },
    {
      "x": 144,
      "y": 346,
      "size": 1,
      "price": "1011000000000000000000",
      "reserved": "",
      "salt": "0xa8753c0d7877f4650b1d4193c26199eaf3fcebebd052a76faab5a971cbe0d60b",
      "assetIds": []
    },
    {
      "x": 144,
      "y": 347,
      "size": 1,
      "price": "4683000000000000000000",
      "reserved": "",
      "salt": "0xa01a9d66ed74d2dd02d21251a11987eb82fabd5b81b9c7cfd6c7c5699f082fba",
      "assetIds": [
        "55464657044963196816950587289035428064568320970692304673817341489687757334528",
        "55464657044963196816950587289035428064568320970692304673817341489687757334529",
        "55464657044963196816950587289035428064568320970692304673817341489687757334530",
        "55464657044963196816950587289035428064568320970692304673817341489687757334531",
        "55464657044963196816950587289035428064568320970692304673817341489687757334532"
      ]
    },
    {
      "x": 144,
      "y": 348,
      "size": 1,
      "price": "4683000000000000000000",
      "reserved": "",
      "salt": "0x95abc16f2d386cca90cb4557b37007aff47f27f8601cd0e29812c7faeb531f0f",
      "assetIds": [
        "55464657044963196816950587289035428064568320970692304673817341489687757334528",
        "55464657044963196816950587289035428064568320970692304673817341489687757334529",
        "55464657044963196816950587289035428064568320970692304673817341489687757334530",
        "55464657044963196816950587289035428064568320970692304673817341489687757334531",
        "55464657044963196816950587289035428064568320970692304673817341489687757334532"
      ]
    },
    {
      "x": 144,
      "y": 349,
      "size": 1,
      "price": "4683000000000000000000",
      "reserved": "",
      "salt": "0x23845c095af94b9339e4a916189fdd9c3dfe158329c83895f77cf05cb174a23e",
      "assetIds": [
        "55464657044963196816950587289035428064568320970692304673817341489687757334528",
        "55464657044963196816950587289035428064568320970692304673817341489687757334529",
        "55464657044963196816950587289035428064568320970692304673817341489687757334530",
        "55464657044963196816950587289035428064568320970692304673817341489687757334531",
        "55464657044963196816950587289035428064568320970692304673817341489687757334532"
      ]
    },
    {
      "x": 144,
      "y": 350,
      "size": 1,
      "price": "4683000000000000000000",
      "reserved": "",
      "salt": "0x5897847a8b30c4340634dabf8046108c3fa63c8d93eaeb414e12ae86deb0105a",
      "assetIds": [
        "55464657044963196816950587289035428064568320970692304673817341489687757334528",
        "55464657044963196816950587289035428064568320970692304673817341489687757334529",
        "55464657044963196816950587289035428064568320970692304673817341489687757334530",
        "55464657044963196816950587289035428064568320970692304673817341489687757334531",
        "55464657044963196816950587289035428064568320970692304673817341489687757334532"
      ]
    },
    {
      "x": 144,
      "y": 351,
      "size": 1,
      "price": "4683000000000000000000",
      "reserved": "",
      "salt": "0x11dc4eef737d11c109024520dccac603ada09c9e96c15bae99adcb4773188c49",
      "assetIds": [
        "55464657044963196816950587289035428064568320970692304673817341489687757334528",
        "55464657044963196816950587289035428064568320970692304673817341489687757334529",
        "55464657044963196816950587289035428064568320970692304673817341489687757334530",
        "55464657044963196816950587289035428064568320970692304673817341489687757334531",
        "55464657044963196816950587289035428064568320970692304673817341489687757334532"
      ]
    },
    {
      "x": 144,
      "y": 352,
      "size": 1,
      "price": "4683000000000000000000",
      "reserved": "",
      "salt": "0xa188a28c14c071f44487134fc601464dcef6cd8948762d30c7358dfe5a92f1ad",
      "assetIds": [
        "55464657044963196816950587289035428064568320970692304673817341489687757334528",
        "55464657044963196816950587289035428064568320970692304673817341489687757334529",
        "55464657044963196816950587289035428064568320970692304673817341489687757334530",
        "55464657044963196816950587289035428064568320970692304673817341489687757334531",
        "55464657044963196816950587289035428064568320970692304673817341489687757334532"
      ]
    },
    {
      "x": 144,
      "y": 353,
      "size": 1,
      "price": "4683000000000000000000",
      "reserved": "",
      "salt": "0x7721d4b6d35e139abac5b3cd8bcc59e8de4475c93db1db1953a5e37f8df21aca",
      "assetIds": [
        "55464657044963196816950587289035428064568320970692304673817341489687757334528",
        "55464657044963196816950587289035428064568320970692304673817341489687757334529",
        "55464657044963196816950587289035428064568320970692304673817341489687757334530",
        "55464657044963196816950587289035428064568320970692304673817341489687757334531",
        "55464657044963196816950587289035428064568320970692304673817341489687757334532"
      ]
    },
    {
      "x": 144,
      "y": 354,
      "size": 1,
      "price": "4683000000000000000000",
      "reserved": "",
      "salt": "0x756ef2a37f5e20e1db5dc2a808c7aa8b4f7f74a2c95364ee9a7587f7263d6f8b",
      "assetIds": [
        "55464657044963196816950587289035428064568320970692304673817341489687757334528",
        "55464657044963196816950587289035428064568320970692304673817341489687757334529",
        "55464657044963196816950587289035428064568320970692304673817341489687757334530",
        "55464657044963196816950587289035428064568320970692304673817341489687757334531",
        "55464657044963196816950587289035428064568320970692304673817341489687757334532"
      ]
    },
    {
      "x": 144,
      "y": 355,
      "size": 1,
      "price": "4683000000000000000000",
      "reserved": "",
      "salt": "0x71802f739c0bdb213f85e064482f4cd64d16021a3230b4fb95862858f61b3b1f",
      "assetIds": [
        "55464657044963196816950587289035428064568320970692304673817341489687757334528",
        "55464657044963196816950587289035428064568320970692304673817341489687757334529",
        "55464657044963196816950587289035428064568320970692304673817341489687757334530",
        "55464657044963196816950587289035428064568320970692304673817341489687757334531",
        "55464657044963196816950587289035428064568320970692304673817341489687757334532"
      ]
    },
    {
      "x": 144,
      "y": 356,
      "size": 1,
      "price": "4683000000000000000000",
      "reserved": "",
      "salt": "0x2ddb219f6794af6c001dbc2830deb56f511c257578572344008bf75a14a12b4d",
      "assetIds": [
        "55464657044963196816950587289035428064568320970692304673817341489687757334528",
        "55464657044963196816950587289035428064568320970692304673817341489687757334529",
        "55464657044963196816950587289035428064568320970692304673817341489687757334530",
        "55464657044963196816950587289035428064568320970692304673817341489687757334531",
        "55464657044963196816950587289035428064568320970692304673817341489687757334532"
      ]
    },
    {
      "x": 144,
      "y": 357,
      "size": 1,
      "price": "4683000000000000000000",
      "reserved": "",
      "salt": "0xfa575cfba821842b247fb921a67189841386c4c63ef0b197fd57a30b7a178e7d",
      "assetIds": [
        "55464657044963196816950587289035428064568320970692304673817341489687757334528",
        "55464657044963196816950587289035428064568320970692304673817341489687757334529",
        "55464657044963196816950587289035428064568320970692304673817341489687757334530",
        "55464657044963196816950587289035428064568320970692304673817341489687757334531",
        "55464657044963196816950587289035428064568320970692304673817341489687757334532"
      ]
    },
    {
      "x": 144,
      "y": 358,
      "size": 1,
      "price": "4683000000000000000000",
      "reserved": "",
      "salt": "0x1918b3d7a96d51ee942805ba279162c5269b6c181ff2a84c4cce4156c2c9d1df",
      "assetIds": [
        "55464657044963196816950587289035428064568320970692304673817341489687757334528",
        "55464657044963196816950587289035428064568320970692304673817341489687757334529",
        "55464657044963196816950587289035428064568320970692304673817341489687757334530",
        "55464657044963196816950587289035428064568320970692304673817341489687757334531",
        "55464657044963196816950587289035428064568320970692304673817341489687757334532"
      ]
    },
    {
      "x": 144,
      "y": 359,
      "size": 1,
      "price": "4683000000000000000000",
      "reserved": "",
      "salt": "0x2820bdda4f30e6f1edba94a41578ff7cdab1ce361ccd01f0a44b6b246fa86ecd",
      "assetIds": [
        "55464657044963196816950587289035428064568320970692304673817341489687757334528",
        "55464657044963196816950587289035428064568320970692304673817341489687757334529",
        "55464657044963196816950587289035428064568320970692304673817341489687757334530",
        "55464657044963196816950587289035428064568320970692304673817341489687757334531",
        "55464657044963196816950587289035428064568320970692304673817341489687757334532"
      ]
    },
    {
      "x": 144,
      "y": 360,
      "size": 1,
      "price": "4683000000000000000000",
      "reserved": "",
      "salt": "0x8e39510fc0c1852d51cbd3b37694a60ba2956f4cf96ba30f0db4a6b89cc1a21f",
      "assetIds": [
        "55464657044963196816950587289035428064568320970692304673817341489687757334528",
        "55464657044963196816950587289035428064568320970692304673817341489687757334529",
        "55464657044963196816950587289035428064568320970692304673817341489687757334530",
        "55464657044963196816950587289035428064568320970692304673817341489687757334531",
        "55464657044963196816950587289035428064568320970692304673817341489687757334532"
      ]
    },
    {
      "x": 144,
      "y": 361,
      "size": 1,
      "price": "1011000000000000000000",
      "reserved": "0x7a9fe22691c811ea339d9b73150e6911a5343dca",
      "salt": "0xdf2020f7265844474e9fc05da72d42345a228e59189e612bcc722fc9ed45ed20",
      "assetIds": []
    },
    {
      "x": 144,
      "y": 362,
      "size": 1,
      "price": "1011000000000000000000",
      "reserved": "",
      "salt": "0xdb520d752a971453f6987aa370b470cb14dc509edb3ba07e283280354534710c",
      "assetIds": []
    },
    {
      "x": 144,
      "y": 366,
      "size": 1,
      "price": "4683000000000000000000",
      "reserved": "",
      "salt": "0x581a60f11b8f54c67dd6eda964ac8863432ab254fdad0d9542e09790ab460f05",
      "assetIds": [
        "55464657044963196816950587289035428064568320970692304673817341489687757334528",
        "55464657044963196816950587289035428064568320970692304673817341489687757334529",
        "55464657044963196816950587289035428064568320970692304673817341489687757334530",
        "55464657044963196816950587289035428064568320970692304673817341489687757334531",
        "55464657044963196816950587289035428064568320970692304673817341489687757334532"
      ]
    },
    {
      "x": 144,
      "y": 367,
      "size": 1,
      "price": "4683000000000000000000",
      "reserved": "",
      "salt": "0x912508414958068c2c63171dd2e09cefd911e45e4bc8acecd9b7126dab8086c5",
      "assetIds": [
        "55464657044963196816950587289035428064568320970692304673817341489687757334528",
        "55464657044963196816950587289035428064568320970692304673817341489687757334529",
        "55464657044963196816950587289035428064568320970692304673817341489687757334530",
        "55464657044963196816950587289035428064568320970692304673817341489687757334531",
        "55464657044963196816950587289035428064568320970692304673817341489687757334532"
      ]
    },
    {
      "x": 144,
      "y": 368,
      "size": 1,
      "price": "4683000000000000000000",
      "reserved": "",
      "salt": "0xb32801fe5576e0af80e2d8041b6fb9fa8ac8bef9effd20e741a376cdb033878c",
      "assetIds": [
        "55464657044963196816950587289035428064568320970692304673817341489687757334528",
        "55464657044963196816950587289035428064568320970692304673817341489687757334529",
        "55464657044963196816950587289035428064568320970692304673817341489687757334530",
        "55464657044963196816950587289035428064568320970692304673817341489687757334531",
        "55464657044963196816950587289035428064568320970692304673817341489687757334532"
      ]
    },
    {
      "x": 144,
      "y": 369,
      "size": 1,
      "price": "4683000000000000000000",
      "reserved": "",
      "salt": "0xa36dd34c0404dc5f81f3655335e88f5dd1d3555d590b41ba5b53a41d76e96e29",
      "assetIds": [
        "55464657044963196816950587289035428064568320970692304673817341489687757334528",
        "55464657044963196816950587289035428064568320970692304673817341489687757334529",
        "55464657044963196816950587289035428064568320970692304673817341489687757334530",
        "55464657044963196816950587289035428064568320970692304673817341489687757334531",
        "55464657044963196816950587289035428064568320970692304673817341489687757334532"
      ]
    },
    {
      "x": 144,
      "y": 370,
      "size": 1,
      "price": "4683000000000000000000",
      "reserved": "",
      "salt": "0x27f04448bc5cf4fbebab715f6072e05e3f3b363da3910b3640bd37453041ece0",
      "assetIds": [
        "55464657044963196816950587289035428064568320970692304673817341489687757334528",
        "55464657044963196816950587289035428064568320970692304673817341489687757334529",
        "55464657044963196816950587289035428064568320970692304673817341489687757334530",
        "55464657044963196816950587289035428064568320970692304673817341489687757334531",
        "55464657044963196816950587289035428064568320970692304673817341489687757334532"
      ]
    },
    {
      "x": 144,
      "y": 371,
      "size": 1,
      "price": "4683000000000000000000",
      "reserved": "",
      "salt": "0xa144dc17e0f2a953f3bacbca5f8b9a56a869a0140350da9776761e1c4103bbb3",
      "assetIds": [
        "55464657044963196816950587289035428064568320970692304673817341489687757334528",
        "55464657044963196816950587289035428064568320970692304673817341489687757334529",
        "55464657044963196816950587289035428064568320970692304673817341489687757334530",
        "55464657044963196816950587289035428064568320970692304673817341489687757334531",
        "55464657044963196816950587289035428064568320970692304673817341489687757334532"
      ]
    },
    {
      "x": 144,
      "y": 372,
      "size": 1,
      "price": "4683000000000000000000",
      "reserved": "",
      "salt": "0x395dbaaef79f8caf2578e55221850024771695eb5e4fddc8eceea3799c5bfc2f",
      "assetIds": [
        "55464657044963196816950587289035428064568320970692304673817341489687757334528",
        "55464657044963196816950587289035428064568320970692304673817341489687757334529",
        "55464657044963196816950587289035428064568320970692304673817341489687757334530",
        "55464657044963196816950587289035428064568320970692304673817341489687757334531",
        "55464657044963196816950587289035428064568320970692304673817341489687757334532"
      ]
    },
    {
      "x": 144,
      "y": 373,
      "size": 1,
      "price": "4683000000000000000000",
      "reserved": "",
      "salt": "0x6c4fc094605725b9e1205c0c515d22baef10f8dd90f85222a0b1a4f6b6ca89c6",
      "assetIds": [
        "55464657044963196816950587289035428064568320970692304673817341489687757334528",
        "55464657044963196816950587289035428064568320970692304673817341489687757334529",
        "55464657044963196816950587289035428064568320970692304673817341489687757334530",
        "55464657044963196816950587289035428064568320970692304673817341489687757334531",
        "55464657044963196816950587289035428064568320970692304673817341489687757334532"
      ]
    },
    {
      "x": 144,
      "y": 374,
      "size": 1,
      "price": "4683000000000000000000",
      "reserved": "",
      "salt": "0x659dd4e37acc35c5bf295c432994ab26057cd4164348ec0cb91de826333d734e",
      "assetIds": [
        "55464657044963196816950587289035428064568320970692304673817341489687757334528",
        "55464657044963196816950587289035428064568320970692304673817341489687757334529",
        "55464657044963196816950587289035428064568320970692304673817341489687757334530",
        "55464657044963196816950587289035428064568320970692304673817341489687757334531",
        "55464657044963196816950587289035428064568320970692304673817341489687757334532"
      ]
    },
    {
      "x": 144,
      "y": 375,
      "size": 1,
      "price": "4683000000000000000000",
      "reserved": "",
      "salt": "0x96f0cb860114213ced1a8bee60e22a537ffa793123d7ecae9478f16ce664cfc2",
      "assetIds": [
        "55464657044963196816950587289035428064568320970692304673817341489687757334528",
        "55464657044963196816950587289035428064568320970692304673817341489687757334529",
        "55464657044963196816950587289035428064568320970692304673817341489687757334530",
        "55464657044963196816950587289035428064568320970692304673817341489687757334531",
        "55464657044963196816950587289035428064568320970692304673817341489687757334532"
      ]
    },
    {
      "x": 144,
      "y": 376,
      "size": 1,
      "price": "4683000000000000000000",
      "reserved": "",
      "salt": "0x845f373d3c6a519468227f0e19205c5d3c69d439b8d3b0a235293e377328e47b",
      "assetIds": [
        "55464657044963196816950587289035428064568320970692304673817341489687757334528",
        "55464657044963196816950587289035428064568320970692304673817341489687757334529",
        "55464657044963196816950587289035428064568320970692304673817341489687757334530",
        "55464657044963196816950587289035428064568320970692304673817341489687757334531",
        "55464657044963196816950587289035428064568320970692304673817341489687757334532"
      ]
    },
    {
      "x": 144,
      "y": 377,
      "size": 1,
      "price": "4683000000000000000000",
      "reserved": "",
      "salt": "0xbd0a5769c53cabf5074df09d29a8b40a065e5981521da2473855d0bd5edaf819",
      "assetIds": [
        "55464657044963196816950587289035428064568320970692304673817341489687757334528",
        "55464657044963196816950587289035428064568320970692304673817341489687757334529",
        "55464657044963196816950587289035428064568320970692304673817341489687757334530",
        "55464657044963196816950587289035428064568320970692304673817341489687757334531",
        "55464657044963196816950587289035428064568320970692304673817341489687757334532"
      ]
    },
    {
      "x": 144,
      "y": 378,
      "size": 1,
      "price": "4683000000000000000000",
      "reserved": "",
      "salt": "0x9e6990875146b762ce63f7d966ad6974edf9ba4d6f306a1f8f315a6b6ac81f79",
      "assetIds": [
        "55464657044963196816950587289035428064568320970692304673817341489687757334528",
        "55464657044963196816950587289035428064568320970692304673817341489687757334529",
        "55464657044963196816950587289035428064568320970692304673817341489687757334530",
        "55464657044963196816950587289035428064568320970692304673817341489687757334531",
        "55464657044963196816950587289035428064568320970692304673817341489687757334532"
      ]
    },
    {
      "x": 144,
      "y": 379,
      "size": 1,
      "price": "4683000000000000000000",
      "reserved": "",
      "salt": "0x3cdaf952c5cf3c7d21f946304608665de8f4e50f434ae260e8ea57cdeda30aba",
      "assetIds": [
        "55464657044963196816950587289035428064568320970692304673817341489687757334528",
        "55464657044963196816950587289035428064568320970692304673817341489687757334529",
        "55464657044963196816950587289035428064568320970692304673817341489687757334530",
        "55464657044963196816950587289035428064568320970692304673817341489687757334531",
        "55464657044963196816950587289035428064568320970692304673817341489687757334532"
      ]
    },
    {
      "x": 144,
      "y": 380,
      "size": 1,
      "price": "4683000000000000000000",
      "reserved": "",
      "salt": "0xd800d74fa1d73b1c054f1d7e509acc2fc4fdf80070c306e88a0d5ac3a9922c64",
      "assetIds": [
        "55464657044963196816950587289035428064568320970692304673817341489687757334528",
        "55464657044963196816950587289035428064568320970692304673817341489687757334529",
        "55464657044963196816950587289035428064568320970692304673817341489687757334530",
        "55464657044963196816950587289035428064568320970692304673817341489687757334531",
        "55464657044963196816950587289035428064568320970692304673817341489687757334532"
      ]
    },
    {
      "x": 144,
      "y": 381,
      "size": 1,
      "price": "4683000000000000000000",
      "reserved": "",
      "salt": "0x2a69c94526b884abdd21a2d2dd80cfd93a959d3e467fafccc2ca21754537e148",
      "assetIds": [
        "55464657044963196816950587289035428064568320970692304673817341489687757334528",
        "55464657044963196816950587289035428064568320970692304673817341489687757334529",
        "55464657044963196816950587289035428064568320970692304673817341489687757334530",
        "55464657044963196816950587289035428064568320970692304673817341489687757334531",
        "55464657044963196816950587289035428064568320970692304673817341489687757334532"
      ]
    },
    {
      "x": 144,
      "y": 382,
      "size": 1,
      "price": "4683000000000000000000",
      "reserved": "",
      "salt": "0x1e766da3347151ed043b26639194b74709684cac6dfba00e984874c11c28a8d7",
      "assetIds": [
        "55464657044963196816950587289035428064568320970692304673817341489687757334528",
        "55464657044963196816950587289035428064568320970692304673817341489687757334529",
        "55464657044963196816950587289035428064568320970692304673817341489687757334530",
        "55464657044963196816950587289035428064568320970692304673817341489687757334531",
        "55464657044963196816950587289035428064568320970692304673817341489687757334532"
      ]
    },
    {
      "x": 144,
      "y": 383,
      "size": 1,
      "price": "4683000000000000000000",
      "reserved": "",
      "salt": "0x14d077ae69bc2f01b2168332fa65658f5608a0e445174c1d83136ba3f66156b3",
      "assetIds": [
        "55464657044963196816950587289035428064568320970692304673817341489687757334528",
        "55464657044963196816950587289035428064568320970692304673817341489687757334529",
        "55464657044963196816950587289035428064568320970692304673817341489687757334530",
        "55464657044963196816950587289035428064568320970692304673817341489687757334531",
        "55464657044963196816950587289035428064568320970692304673817341489687757334532"
      ]
    },
    {
      "x": 144,
      "y": 384,
      "size": 1,
      "price": "4683000000000000000000",
      "reserved": "",
      "salt": "0x346faa2977a276150290b4468cd30966c8f2a31b265ae8e000c426b5dd96bd17",
      "assetIds": [
        "55464657044963196816950587289035428064568320970692304673817341489687757334528",
        "55464657044963196816950587289035428064568320970692304673817341489687757334529",
        "55464657044963196816950587289035428064568320970692304673817341489687757334530",
        "55464657044963196816950587289035428064568320970692304673817341489687757334531",
        "55464657044963196816950587289035428064568320970692304673817341489687757334532"
      ]
    },
    {
      "x": 144,
      "y": 385,
      "size": 1,
      "price": "4683000000000000000000",
      "reserved": "",
      "salt": "0x5d15fd84ba011c5b2ce12baad0a2b3e325e5cce690657b9cd0bcf6fde90b0c1b",
      "assetIds": [
        "55464657044963196816950587289035428064568320970692304673817341489687757334528",
        "55464657044963196816950587289035428064568320970692304673817341489687757334529",
        "55464657044963196816950587289035428064568320970692304673817341489687757334530",
        "55464657044963196816950587289035428064568320970692304673817341489687757334531",
        "55464657044963196816950587289035428064568320970692304673817341489687757334532"
      ]
    },
    {
      "x": 144,
      "y": 386,
      "size": 1,
      "price": "4683000000000000000000",
      "reserved": "",
      "salt": "0x92294fc10442386f5ffddf4d2e4777f24f079d3ff822cbaf1e8f58f2b427b693",
      "assetIds": [
        "55464657044963196816950587289035428064568320970692304673817341489687757334528",
        "55464657044963196816950587289035428064568320970692304673817341489687757334529",
        "55464657044963196816950587289035428064568320970692304673817341489687757334530",
        "55464657044963196816950587289035428064568320970692304673817341489687757334531",
        "55464657044963196816950587289035428064568320970692304673817341489687757334532"
      ]
    },
    {
      "x": 144,
      "y": 387,
      "size": 1,
      "price": "4683000000000000000000",
      "reserved": "",
      "salt": "0x7fc22e778267b9fdad3b45436b09ac1fc53b65a424719c7e9657802110c3407b",
      "assetIds": [
        "55464657044963196816950587289035428064568320970692304673817341489687757334528",
        "55464657044963196816950587289035428064568320970692304673817341489687757334529",
        "55464657044963196816950587289035428064568320970692304673817341489687757334530",
        "55464657044963196816950587289035428064568320970692304673817341489687757334531",
        "55464657044963196816950587289035428064568320970692304673817341489687757334532"
      ]
    },
    {
      "x": 144,
      "y": 388,
      "size": 1,
      "price": "1011000000000000000000",
      "reserved": "",
      "salt": "0x6c39d700a1328e29efa3c8bb306a1b25421520d815a484e2b0c9525e5f97749c",
      "assetIds": []
    },
    {
      "x": 144,
      "y": 389,
      "size": 1,
      "price": "1011000000000000000000",
      "reserved": "",
      "salt": "0xf7d7f14d0fa26b6ca970dc046b3b954c787f22c6586e00c3933e9cac1546783d",
      "assetIds": []
    },
    {
      "x": 144,
      "y": 390,
      "size": 1,
      "price": "1011000000000000000000",
      "reserved": "",
      "salt": "0xc2f84fb7c7dd82aeebe8692232ae66ac526445903fda79977078162ac7138b67",
      "assetIds": []
    },
    {
      "x": 144,
      "y": 391,
      "size": 1,
      "price": "1011000000000000000000",
      "reserved": "0x7a9fe22691c811ea339d9b73150e6911a5343dca",
      "salt": "0xfabbba5362650bbdf45c221f4ca9e772eab29287b68ee1199ef7162921f070aa",
      "assetIds": []
    },
    {
      "x": 144,
      "y": 392,
      "size": 1,
      "price": "1011000000000000000000",
      "reserved": "0x7a9fe22691c811ea339d9b73150e6911a5343dca",
      "salt": "0x82e5f01d66d04d0402a20fb147d183692252ebc3081e524516afec9436da2e9f",
      "assetIds": []
    },
    {
      "x": 144,
      "y": 393,
      "size": 1,
      "price": "1011000000000000000000",
      "reserved": "0x7a9fe22691c811ea339d9b73150e6911a5343dca",
      "salt": "0x110c58b5d4c581f15bb85d4e0cc78b5dce16185a42a451eb493db297b1d40214",
      "assetIds": []
    },
    {
      "x": 144,
      "y": 394,
      "size": 1,
      "price": "1011000000000000000000",
      "reserved": "",
      "salt": "0x829e3658e4322f98133aa2b89367e764efa062d84cd719ca587c01a78a17d95c",
      "assetIds": []
    },
    {
      "x": 144,
      "y": 395,
      "size": 1,
      "price": "1011000000000000000000",
      "reserved": "0x7a9fe22691c811ea339d9b73150e6911a5343dca",
      "salt": "0xde553bfbb0e41d30f2bcaff1159202f48781f4848122621d00a0c12bd95259f3",
      "assetIds": []
    },
    {
      "x": 144,
      "y": 396,
      "size": 1,
      "price": "1011000000000000000000",
      "reserved": "",
      "salt": "0x3c28cebfddae66e1c4b8f18054bf884e6031854b88e052d9aad335dee962c34a",
      "assetIds": []
    },
    {
      "x": 144,
      "y": 397,
      "size": 1,
      "price": "1011000000000000000000",
      "reserved": "",
      "salt": "0xcb35b1e64c0db24a0411cc016adb40f25447b15cbcb8b38de37325c46916c450",
      "assetIds": []
    },
    {
      "x": 144,
      "y": 398,
      "size": 1,
      "price": "1011000000000000000000",
      "reserved": "",
      "salt": "0xa34369c5c5d2ffa4414a0786cda5c315e79bfe7b3bca441ff3d3f56820480dcb",
      "assetIds": []
    },
    {
      "x": 144,
      "y": 399,
      "size": 1,
      "price": "1011000000000000000000",
      "reserved": "",
      "salt": "0xd80599949071e2eef7cdf22cc5b9d0a4053a4746004e9e5fdcd9c65e4cbcfa30",
      "assetIds": []
    },
    {
      "x": 144,
      "y": 400,
      "size": 1,
      "price": "1011000000000000000000",
      "reserved": "",
      "salt": "0xce7d92ca129c2c5bd79eab70c645b2ad9fc756a772aaf5d16e2328a0d6f123f2",
      "assetIds": []
    },
    {
      "x": 144,
      "y": 401,
      "size": 1,
      "price": "4683000000000000000000",
      "reserved": "",
      "salt": "0x5dd562a04b4ca03b4fca0db7a9f27beff28eb308dd6ff7d3f4db94bdbd4fab78",
      "assetIds": [
        "55464657044963196816950587289035428064568320970692304673817341489687757334528",
        "55464657044963196816950587289035428064568320970692304673817341489687757334529",
        "55464657044963196816950587289035428064568320970692304673817341489687757334530",
        "55464657044963196816950587289035428064568320970692304673817341489687757334531",
        "55464657044963196816950587289035428064568320970692304673817341489687757334532"
      ]
    },
    {
      "x": 144,
      "y": 402,
      "size": 1,
      "price": "4683000000000000000000",
      "reserved": "",
      "salt": "0xba36b84282d81d0cae1d114c17201048225573407cde85a268ac0353d14cd0b8",
      "assetIds": [
        "55464657044963196816950587289035428064568320970692304673817341489687757334528",
        "55464657044963196816950587289035428064568320970692304673817341489687757334529",
        "55464657044963196816950587289035428064568320970692304673817341489687757334530",
        "55464657044963196816950587289035428064568320970692304673817341489687757334531",
        "55464657044963196816950587289035428064568320970692304673817341489687757334532"
      ]
    },
    {
      "x": 144,
      "y": 403,
      "size": 1,
      "price": "4683000000000000000000",
      "reserved": "",
      "salt": "0xc58b36f3b5a0de630195c20ca38c560d191152df65dac7448a621a70e7f842d3",
      "assetIds": [
        "55464657044963196816950587289035428064568320970692304673817341489687757334528",
        "55464657044963196816950587289035428064568320970692304673817341489687757334529",
        "55464657044963196816950587289035428064568320970692304673817341489687757334530",
        "55464657044963196816950587289035428064568320970692304673817341489687757334531",
        "55464657044963196816950587289035428064568320970692304673817341489687757334532"
      ]
    },
    {
      "x": 144,
      "y": 404,
      "size": 1,
      "price": "4683000000000000000000",
      "reserved": "",
      "salt": "0xe4807278d38b12ce3eb7ef12c42ecf630bae6cf9f696f1bba35a48125cf662a6",
      "assetIds": [
        "55464657044963196816950587289035428064568320970692304673817341489687757334528",
        "55464657044963196816950587289035428064568320970692304673817341489687757334529",
        "55464657044963196816950587289035428064568320970692304673817341489687757334530",
        "55464657044963196816950587289035428064568320970692304673817341489687757334531",
        "55464657044963196816950587289035428064568320970692304673817341489687757334532"
      ]
    },
    {
      "x": 144,
      "y": 405,
      "size": 1,
      "price": "4683000000000000000000",
      "reserved": "",
      "salt": "0x347aeb345f80dde9e01fb33995f2046b5134dc39eff3e079012daa7ccdbd8a76",
      "assetIds": [
        "55464657044963196816950587289035428064568320970692304673817341489687757334528",
        "55464657044963196816950587289035428064568320970692304673817341489687757334529",
        "55464657044963196816950587289035428064568320970692304673817341489687757334530",
        "55464657044963196816950587289035428064568320970692304673817341489687757334531",
        "55464657044963196816950587289035428064568320970692304673817341489687757334532"
      ]
    },
    {
      "x": 144,
      "y": 406,
      "size": 1,
      "price": "4683000000000000000000",
      "reserved": "",
      "salt": "0x2c24dc219a81d53bcfbd00153c0a7e155609ea143ac4c7aeeb1d08399b0a807c",
      "assetIds": [
        "55464657044963196816950587289035428064568320970692304673817341489687757334528",
        "55464657044963196816950587289035428064568320970692304673817341489687757334529",
        "55464657044963196816950587289035428064568320970692304673817341489687757334530",
        "55464657044963196816950587289035428064568320970692304673817341489687757334531",
        "55464657044963196816950587289035428064568320970692304673817341489687757334532"
      ]
    },
    {
      "x": 144,
      "y": 407,
      "size": 1,
      "price": "4683000000000000000000",
      "reserved": "",
      "salt": "0x15cec0cbeb71d980353e887556f6d45298055f70137f6af311c71f1f9901fab2",
      "assetIds": [
        "55464657044963196816950587289035428064568320970692304673817341489687757334528",
        "55464657044963196816950587289035428064568320970692304673817341489687757334529",
        "55464657044963196816950587289035428064568320970692304673817341489687757334530",
        "55464657044963196816950587289035428064568320970692304673817341489687757334531",
        "55464657044963196816950587289035428064568320970692304673817341489687757334532"
      ]
    },
    {
      "x": 145,
      "y": 346,
      "size": 1,
      "price": "1011000000000000000000",
      "reserved": "",
      "salt": "0x5a0c262ca2614b12f931ce373ef2071f52448cd9690dc8fd99c3040fa969f31e",
      "assetIds": []
    },
    {
      "x": 145,
      "y": 347,
      "size": 1,
      "price": "1011000000000000000000",
      "reserved": "",
      "salt": "0xb4eedb33c8b46c9d1402189a0929aa9b014a69382f05b3826829dc33ecb9fd87",
      "assetIds": []
    },
    {
      "x": 145,
      "y": 348,
      "size": 1,
      "price": "1011000000000000000000",
      "reserved": "",
      "salt": "0x6241116b24a52b014f8aaa57dfe2a35405ec7bb3da40f40bbbede0e192abae55",
      "assetIds": []
    },
    {
      "x": 145,
      "y": 349,
      "size": 1,
      "price": "1011000000000000000000",
      "reserved": "",
      "salt": "0x4e3d51406ee7af1e86856ce9ec9634371f022e3139ff8cd1ce2efcd9320e6bbf",
      "assetIds": []
    },
    {
      "x": 145,
      "y": 350,
      "size": 1,
      "price": "1011000000000000000000",
      "reserved": "",
      "salt": "0xe5c4fe84c787a791d2d5fd2418cf5a0e140dd7f78537d90119bc8600965f102d",
      "assetIds": []
    },
    {
      "x": 145,
      "y": 351,
      "size": 1,
      "price": "1011000000000000000000",
      "reserved": "",
      "salt": "0x9619d4c72246f36fb78b0292ac1a7e74e42fb4ff1e5a0c386fbd6b198ef4cb1c",
      "assetIds": []
    },
    {
      "x": 145,
      "y": 352,
      "size": 1,
      "price": "1011000000000000000000",
      "reserved": "",
      "salt": "0x73a36f57eec8aa5c9d85077e651d1d04c05b4df3292227dddabbb7245c6a43f5",
      "assetIds": []
    },
    {
      "x": 145,
      "y": 353,
      "size": 1,
      "price": "1011000000000000000000",
      "reserved": "0x7a9fe22691c811ea339d9b73150e6911a5343dca",
      "salt": "0x38ea8d76ec8ff4456ab1354a3428bbed9177887f630dc5235f3b6476eb44c3f6",
      "assetIds": []
    },
    {
      "x": 145,
      "y": 354,
      "size": 1,
      "price": "1011000000000000000000",
      "reserved": "",
      "salt": "0x8dff5e9a512a85ee485c9b642ac039a0c0ff5e509c024b0e5ef2a2d9c9c2ecaf",
      "assetIds": []
    },
    {
      "x": 145,
      "y": 355,
      "size": 1,
      "price": "1011000000000000000000",
      "reserved": "",
      "salt": "0x2059b95f5d0332910053ec3b5ab8a743f787f44d4769925960792e638bb8eabd",
      "assetIds": []
    },
    {
      "x": 145,
      "y": 356,
      "size": 1,
      "price": "1011000000000000000000",
      "reserved": "",
      "salt": "0xe9623b3cd0fe22c0359e764176d587425a93a2ca463aa580b9b91b1f0ad7dfdf",
      "assetIds": []
    },
    {
      "x": 145,
      "y": 357,
      "size": 1,
      "price": "1011000000000000000000",
      "reserved": "",
      "salt": "0x576b1a5152fb70b246bb6cbd263990778176d985ff1b5a10e9cc79e2a57a8915",
      "assetIds": []
    },
    {
      "x": 145,
      "y": 358,
      "size": 1,
      "price": "1011000000000000000000",
      "reserved": "",
      "salt": "0xcc580829433c344ad8891756633f948205f33791982122467ac011e7b36b6ef9",
      "assetIds": []
    },
    {
      "x": 145,
      "y": 359,
      "size": 1,
      "price": "1011000000000000000000",
      "reserved": "",
      "salt": "0x307e04db4095d77ba1946a56dc514ef6c4648e66046be916f636114cc4adef8c",
      "assetIds": []
    },
    {
      "x": 145,
      "y": 360,
      "size": 1,
      "price": "4683000000000000000000",
      "reserved": "",
      "salt": "0x2b3cf31c94a34b2ff93ba08a0887efbf56163f5bbe145d9c8f637154f67d1b13",
      "assetIds": [
        "55464657044963196816950587289035428064568320970692304673817341489687757334528",
        "55464657044963196816950587289035428064568320970692304673817341489687757334529",
        "55464657044963196816950587289035428064568320970692304673817341489687757334530",
        "55464657044963196816950587289035428064568320970692304673817341489687757334531",
        "55464657044963196816950587289035428064568320970692304673817341489687757334532"
      ]
    },
    {
      "x": 145,
      "y": 361,
      "size": 1,
      "price": "1011000000000000000000",
      "reserved": "0x7a9fe22691c811ea339d9b73150e6911a5343dca",
      "salt": "0x5e09a3a615c7822403b38ac9d228f1122cab931a1ff2ef68b53f35575b7d2367",
      "assetIds": []
    },
    {
      "x": 145,
      "y": 362,
      "size": 1,
      "price": "1011000000000000000000",
      "reserved": "",
      "salt": "0x42d5c8328a4f37a4025d3a661c103f3ba7a588248daead74c0afeaf6383c6096",
      "assetIds": []
    },
    {
      "x": 145,
      "y": 366,
      "size": 1,
      "price": "1011000000000000000000",
      "reserved": "",
      "salt": "0x46bf21a4aff8612323e56274ffd0c8a4af742b32b1a56c28311acc5a0020278f",
      "assetIds": []
    },
    {
      "x": 145,
      "y": 367,
      "size": 1,
      "price": "1011000000000000000000",
      "reserved": "",
      "salt": "0xb464d8a7b621c1c96de80c00ff1330ad278010a8ca0133d5ea840ccf83934b89",
      "assetIds": []
    },
    {
      "x": 145,
      "y": 368,
      "size": 1,
      "price": "1011000000000000000000",
      "reserved": "",
      "salt": "0x5dfb91e56ff29954414aa6435e29ed4b84c3970efcb63fb897f88159102ee100",
      "assetIds": []
    },
    {
      "x": 145,
      "y": 369,
      "size": 1,
      "price": "1011000000000000000000",
      "reserved": "",
      "salt": "0x2af19bf8a3a989c3671de3b1c04bd50c8e6feeff5d8a736fb93fe9968a0ba478",
      "assetIds": []
    },
    {
      "x": 145,
      "y": 370,
      "size": 1,
      "price": "4683000000000000000000",
      "reserved": "",
      "salt": "0xa02c427b83a4719af250295c2e7113dbd5a0257da1950e5545f56fb0e0319fd7",
      "assetIds": [
        "55464657044963196816950587289035428064568320970692304673817341489687757334528",
        "55464657044963196816950587289035428064568320970692304673817341489687757334529",
        "55464657044963196816950587289035428064568320970692304673817341489687757334530",
        "55464657044963196816950587289035428064568320970692304673817341489687757334531",
        "55464657044963196816950587289035428064568320970692304673817341489687757334532"
      ]
    },
    {
      "x": 145,
      "y": 371,
      "size": 1,
      "price": "4683000000000000000000",
      "reserved": "",
      "salt": "0xde3999b0bf3881cff915caf9a4aebe4d993f3599d698941697f6ab9973634529",
      "assetIds": [
        "55464657044963196816950587289035428064568320970692304673817341489687757334528",
        "55464657044963196816950587289035428064568320970692304673817341489687757334529",
        "55464657044963196816950587289035428064568320970692304673817341489687757334530",
        "55464657044963196816950587289035428064568320970692304673817341489687757334531",
        "55464657044963196816950587289035428064568320970692304673817341489687757334532"
      ]
    },
    {
      "x": 145,
      "y": 372,
      "size": 1,
      "price": "1011000000000000000000",
      "reserved": "0x7a9fe22691c811ea339d9b73150e6911a5343dca",
      "salt": "0x528c1130d874907736a1aaeb91b9a671ae899dd386659df028563a7059f28c58",
      "assetIds": []
    },
    {
      "x": 145,
      "y": 373,
      "size": 1,
      "price": "4683000000000000000000",
      "reserved": "",
      "salt": "0x0065d2a8d1a7f958567c38404974e814d7c05d037d55902d1fdbbce8d707cf52",
      "assetIds": [
        "55464657044963196816950587289035428064568320970692304673817341489687757334528",
        "55464657044963196816950587289035428064568320970692304673817341489687757334529",
        "55464657044963196816950587289035428064568320970692304673817341489687757334530",
        "55464657044963196816950587289035428064568320970692304673817341489687757334531",
        "55464657044963196816950587289035428064568320970692304673817341489687757334532"
      ]
    },
    {
      "x": 145,
      "y": 374,
      "size": 1,
      "price": "4683000000000000000000",
      "reserved": "",
      "salt": "0xe94e62db11459f3916741c61b6210d209234e8b2f5ef1ac3a295add0ef417a7d",
      "assetIds": [
        "55464657044963196816950587289035428064568320970692304673817341489687757334528",
        "55464657044963196816950587289035428064568320970692304673817341489687757334529",
        "55464657044963196816950587289035428064568320970692304673817341489687757334530",
        "55464657044963196816950587289035428064568320970692304673817341489687757334531",
        "55464657044963196816950587289035428064568320970692304673817341489687757334532"
      ]
    },
    {
      "x": 145,
      "y": 375,
      "size": 1,
      "price": "4683000000000000000000",
      "reserved": "",
      "salt": "0x83626238c75f04d2271285e378e1510b514c67ef7ce96a68da34a5a4a0a51bfd",
      "assetIds": [
        "55464657044963196816950587289035428064568320970692304673817341489687757334528",
        "55464657044963196816950587289035428064568320970692304673817341489687757334529",
        "55464657044963196816950587289035428064568320970692304673817341489687757334530",
        "55464657044963196816950587289035428064568320970692304673817341489687757334531",
        "55464657044963196816950587289035428064568320970692304673817341489687757334532"
      ]
    },
    {
      "x": 145,
      "y": 376,
      "size": 1,
      "price": "1011000000000000000000",
      "reserved": "0x7a9fe22691c811ea339d9b73150e6911a5343dca",
      "salt": "0x52d2915f5c5a3e3078e760a62b756352dcf0e38f6fc736b86dd5bf4d7d0c25ce",
      "assetIds": []
    },
    {
      "x": 145,
      "y": 377,
      "size": 1,
      "price": "4683000000000000000000",
      "reserved": "",
      "salt": "0xa7eea6ff12ce50666ad928590076daff9d8748f2316915a17ced09445f5f3bfc",
      "assetIds": [
        "55464657044963196816950587289035428064568320970692304673817341489687757334528",
        "55464657044963196816950587289035428064568320970692304673817341489687757334529",
        "55464657044963196816950587289035428064568320970692304673817341489687757334530",
        "55464657044963196816950587289035428064568320970692304673817341489687757334531",
        "55464657044963196816950587289035428064568320970692304673817341489687757334532"
      ]
    },
    {
      "x": 145,
      "y": 378,
      "size": 1,
      "price": "1011000000000000000000",
      "reserved": "0x7a9fe22691c811ea339d9b73150e6911a5343dca",
      "salt": "0x48efe74840cb6aab5b1cdc1a7358ed9868ce3f6c251d79d3cbdd3e37b49459d9",
      "assetIds": []
    },
    {
      "x": 145,
      "y": 379,
      "size": 1,
      "price": "4683000000000000000000",
      "reserved": "",
      "salt": "0x72343e6911297c0fc6df58bd55c1ba1147d2cc8e873f7d256e72809227d06a8b",
      "assetIds": [
        "55464657044963196816950587289035428064568320970692304673817341489687757334528",
        "55464657044963196816950587289035428064568320970692304673817341489687757334529",
        "55464657044963196816950587289035428064568320970692304673817341489687757334530",
        "55464657044963196816950587289035428064568320970692304673817341489687757334531",
        "55464657044963196816950587289035428064568320970692304673817341489687757334532"
      ]
    },
    {
      "x": 145,
      "y": 380,
      "size": 1,
      "price": "4683000000000000000000",
      "reserved": "",
      "salt": "0x858e70d9b2b23898e5e10b684dffa17774885d6c8505eae1ff9ff3e1debc7bf5",
      "assetIds": [
        "55464657044963196816950587289035428064568320970692304673817341489687757334528",
        "55464657044963196816950587289035428064568320970692304673817341489687757334529",
        "55464657044963196816950587289035428064568320970692304673817341489687757334530",
        "55464657044963196816950587289035428064568320970692304673817341489687757334531",
        "55464657044963196816950587289035428064568320970692304673817341489687757334532"
      ]
    },
    {
      "x": 145,
      "y": 381,
      "size": 1,
      "price": "1011000000000000000000",
      "reserved": "0x7a9fe22691c811ea339d9b73150e6911a5343dca",
      "salt": "0xafe6c1450c18822b8c7f300ddcb163b9014fd899f1f94481648da3955f911284",
      "assetIds": []
    },
    {
      "x": 145,
      "y": 382,
      "size": 1,
      "price": "4683000000000000000000",
      "reserved": "",
      "salt": "0xc58e933ee82abb4749096ab48b589d924ff8e97536270d84539b3dd46efd8a15",
      "assetIds": [
        "55464657044963196816950587289035428064568320970692304673817341489687757334528",
        "55464657044963196816950587289035428064568320970692304673817341489687757334529",
        "55464657044963196816950587289035428064568320970692304673817341489687757334530",
        "55464657044963196816950587289035428064568320970692304673817341489687757334531",
        "55464657044963196816950587289035428064568320970692304673817341489687757334532"
      ]
    },
    {
      "x": 145,
      "y": 383,
      "size": 1,
      "price": "1011000000000000000000",
      "reserved": "0x7a9fe22691c811ea339d9b73150e6911a5343dca",
      "salt": "0xa06abf5402b10902ddcaf4f3f2cc94255ae3c35e91cfb0642e5a2d150fcd9cd6",
      "assetIds": []
    },
    {
      "x": 145,
      "y": 384,
      "size": 1,
      "price": "4683000000000000000000",
      "reserved": "",
      "salt": "0x1b372eae30eee7e8ba10e0bbfd217a05a97093b533532067697f9d8524a34d04",
      "assetIds": [
        "55464657044963196816950587289035428064568320970692304673817341489687757334528",
        "55464657044963196816950587289035428064568320970692304673817341489687757334529",
        "55464657044963196816950587289035428064568320970692304673817341489687757334530",
        "55464657044963196816950587289035428064568320970692304673817341489687757334531",
        "55464657044963196816950587289035428064568320970692304673817341489687757334532"
      ]
    },
    {
      "x": 145,
      "y": 385,
      "size": 1,
      "price": "1011000000000000000000",
      "reserved": "",
      "salt": "0xdc35768a439c4a1e14474416cc2ac1d01bb93508a27d0e90fa064a54db5585dd",
      "assetIds": []
    },
    {
      "x": 145,
      "y": 386,
      "size": 1,
      "price": "1011000000000000000000",
      "reserved": "",
      "salt": "0x9b2c840be1cc27b41e2d917825b83f8cc468d14d20d4c631117326f992275c89",
      "assetIds": []
    },
    {
      "x": 145,
      "y": 387,
      "size": 1,
      "price": "1011000000000000000000",
      "reserved": "",
      "salt": "0x8020b4459960f8b9f5e857125ef1ac1cdaf5a216139e3203da0fc685e4442ff9",
      "assetIds": []
    },
    {
      "x": 145,
      "y": 388,
      "size": 1,
      "price": "1011000000000000000000",
      "reserved": "",
      "salt": "0x321dd65794bd459fabf5a1ec73d26071c792b727de91750c268d2cc1c94d9bd1",
      "assetIds": []
    },
    {
      "x": 145,
      "y": 389,
      "size": 1,
      "price": "1011000000000000000000",
      "reserved": "",
      "salt": "0xae0561c5b171c24da9e79ffded6b593b428bd73c3d43ee2883903ea035671ec4",
      "assetIds": []
    },
    {
      "x": 145,
      "y": 390,
      "size": 1,
      "price": "1011000000000000000000",
      "reserved": "",
      "salt": "0x359c06a84ab1a6fadaf0d318e5b550c5f160c91aab7ecc71e2f81df12b2f2ca6",
      "assetIds": []
    },
    {
      "x": 145,
      "y": 391,
      "size": 1,
      "price": "1011000000000000000000",
      "reserved": "",
      "salt": "0xa43d19c989d6f86d0d1310609e651939db4cea74ef338119fa2242191beba5ed",
      "assetIds": []
    },
    {
      "x": 145,
      "y": 392,
      "size": 1,
      "price": "1011000000000000000000",
      "reserved": "",
      "salt": "0xf814e9b06eae1919e6675a8827e3cf1d1222e3ebee793770c0d062688868ed8a",
      "assetIds": []
    },
    {
      "x": 145,
      "y": 393,
      "size": 1,
      "price": "1011000000000000000000",
      "reserved": "",
      "salt": "0xfb0e62257636cc15152d60cc63e48998188d3f34dcafda3367962b6ba83dac1f",
      "assetIds": []
    },
    {
      "x": 145,
      "y": 394,
      "size": 1,
      "price": "1011000000000000000000",
      "reserved": "",
      "salt": "0xecbb9beaa2e06e04331cdee43eec62a37b36673efc254c9c3219d139d4786634",
      "assetIds": []
    },
    {
      "x": 145,
      "y": 395,
      "size": 1,
      "price": "1011000000000000000000",
      "reserved": "",
      "salt": "0xead29905566561f43884640d4297a967cabf0c486027ef2f1b08d5726cdcf9cc",
      "assetIds": []
    },
    {
      "x": 145,
      "y": 396,
      "size": 1,
      "price": "1011000000000000000000",
      "reserved": "",
      "salt": "0xf2dc8b520123ac84de30ea856a799bb4428a4151634830f527a6bb3307576e8b",
      "assetIds": []
    },
    {
      "x": 145,
      "y": 397,
      "size": 1,
      "price": "1011000000000000000000",
      "reserved": "",
      "salt": "0x7ec0ec96c58b9632360e3d172c6b84fa68b1a8a78be286562d373d6a272c2600",
      "assetIds": []
    },
    {
      "x": 145,
      "y": 398,
      "size": 1,
      "price": "1011000000000000000000",
      "reserved": "",
      "salt": "0xaf617aea27f70ffbc3e052fead20064f964e0189f3e762a1cccf5fcf20c2f07b",
      "assetIds": []
    },
    {
      "x": 145,
      "y": 399,
      "size": 1,
      "price": "1011000000000000000000",
      "reserved": "0x7a9fe22691c811ea339d9b73150e6911a5343dca",
      "salt": "0x70cf31a7b71d7ae893842b6e7c4addb78d6bb5f7081cfaf52be30d320598fde3",
      "assetIds": []
    },
    {
      "x": 145,
      "y": 400,
      "size": 1,
      "price": "1011000000000000000000",
      "reserved": "",
      "salt": "0xb297a1b0459c69ea86242640903c21ea19b6f3f36d36902b1a8bf77efc1ee835",
      "assetIds": []
    },
    {
      "x": 145,
      "y": 401,
      "size": 1,
      "price": "1011000000000000000000",
      "reserved": "0x7a9fe22691c811ea339d9b73150e6911a5343dca",
      "salt": "0x1513d3a7a9d0d1133571346ad0a7f0c58303a6f31ee396477b9d9a92312d1fe9",
      "assetIds": []
    },
    {
      "x": 145,
      "y": 402,
      "size": 1,
      "price": "4683000000000000000000",
      "reserved": "",
      "salt": "0xc4d88e5697493742875e4a2acc39ac817de5352209451f78f4d096aa658c548f",
      "assetIds": [
        "55464657044963196816950587289035428064568320970692304673817341489687757334528",
        "55464657044963196816950587289035428064568320970692304673817341489687757334529",
        "55464657044963196816950587289035428064568320970692304673817341489687757334530",
        "55464657044963196816950587289035428064568320970692304673817341489687757334531",
        "55464657044963196816950587289035428064568320970692304673817341489687757334532"
      ]
    },
    {
      "x": 145,
      "y": 403,
      "size": 1,
      "price": "4683000000000000000000",
      "reserved": "",
      "salt": "0xaf0b261ab00ba028afb82d440f329f5f4400252787517446f1ecf17ff3b998d2",
      "assetIds": [
        "55464657044963196816950587289035428064568320970692304673817341489687757334528",
        "55464657044963196816950587289035428064568320970692304673817341489687757334529",
        "55464657044963196816950587289035428064568320970692304673817341489687757334530",
        "55464657044963196816950587289035428064568320970692304673817341489687757334531",
        "55464657044963196816950587289035428064568320970692304673817341489687757334532"
      ]
    },
    {
      "x": 145,
      "y": 404,
      "size": 1,
      "price": "4683000000000000000000",
      "reserved": "",
      "salt": "0x8a5e33ded56b85c356cfeae94dfca97947eec5099e945c202e9511f62ab2f97a",
      "assetIds": [
        "55464657044963196816950587289035428064568320970692304673817341489687757334528",
        "55464657044963196816950587289035428064568320970692304673817341489687757334529",
        "55464657044963196816950587289035428064568320970692304673817341489687757334530",
        "55464657044963196816950587289035428064568320970692304673817341489687757334531",
        "55464657044963196816950587289035428064568320970692304673817341489687757334532"
      ]
    },
    {
      "x": 145,
      "y": 405,
      "size": 1,
      "price": "4683000000000000000000",
      "reserved": "",
      "salt": "0xd82559d24d6c86c6466ced95b3674755231af6e7c054f8130fbba9b8199f7501",
      "assetIds": [
        "55464657044963196816950587289035428064568320970692304673817341489687757334528",
        "55464657044963196816950587289035428064568320970692304673817341489687757334529",
        "55464657044963196816950587289035428064568320970692304673817341489687757334530",
        "55464657044963196816950587289035428064568320970692304673817341489687757334531",
        "55464657044963196816950587289035428064568320970692304673817341489687757334532"
      ]
    },
    {
      "x": 145,
      "y": 406,
      "size": 1,
      "price": "4683000000000000000000",
      "reserved": "",
      "salt": "0xf337f5cb091b8f4325cccb4979b9e3ad832ee5a8b5f316090b130e08fe7b0521",
      "assetIds": [
        "55464657044963196816950587289035428064568320970692304673817341489687757334528",
        "55464657044963196816950587289035428064568320970692304673817341489687757334529",
        "55464657044963196816950587289035428064568320970692304673817341489687757334530",
        "55464657044963196816950587289035428064568320970692304673817341489687757334531",
        "55464657044963196816950587289035428064568320970692304673817341489687757334532"
      ]
    },
    {
      "x": 145,
      "y": 407,
      "size": 1,
      "price": "4683000000000000000000",
      "reserved": "",
      "salt": "0x60ed92228f2df0263bb5df5d90fea3a7c70a96181ec97470aadf680297a3cf9b",
      "assetIds": [
        "55464657044963196816950587289035428064568320970692304673817341489687757334528",
        "55464657044963196816950587289035428064568320970692304673817341489687757334529",
        "55464657044963196816950587289035428064568320970692304673817341489687757334530",
        "55464657044963196816950587289035428064568320970692304673817341489687757334531",
        "55464657044963196816950587289035428064568320970692304673817341489687757334532"
      ]
    },
    {
      "x": 146,
      "y": 346,
      "size": 1,
      "price": "1011000000000000000000",
      "reserved": "0x7a9fe22691c811ea339d9b73150e6911a5343dca",
      "salt": "0xa44c9676d993fe608623f604e31f13e7b130fad99d61132d1824a451631daf79",
      "assetIds": []
    },
    {
      "x": 146,
      "y": 347,
      "size": 1,
      "price": "1011000000000000000000",
      "reserved": "",
      "salt": "0xe5caadf583d1a4c282f538d5a0047a21765a665dc0739e0830c28429a39a6526",
      "assetIds": []
    },
    {
      "x": 146,
      "y": 348,
      "size": 1,
      "price": "1011000000000000000000",
      "reserved": "0x7a9fe22691c811ea339d9b73150e6911a5343dca",
      "salt": "0x1f7d91ebfbd5737dc31009a8fefafac5e12c0b2b3b726a15fc0663e822662131",
      "assetIds": []
    },
    {
      "x": 146,
      "y": 349,
      "size": 1,
      "price": "1011000000000000000000",
      "reserved": "",
      "salt": "0x926ae3a3a2859bffc9c4b30a39b090729fd566e5b23022e50434519b9812c077",
      "assetIds": []
    },
    {
      "x": 146,
      "y": 350,
      "size": 1,
      "price": "1011000000000000000000",
      "reserved": "",
      "salt": "0x5ae549ce572c58d459502353a0e3cece4a4dad9630b5476d3a23dd34b836be12",
      "assetIds": []
    },
    {
      "x": 146,
      "y": 351,
      "size": 1,
      "price": "1011000000000000000000",
      "reserved": "",
      "salt": "0x853a61e461e01f339cef259e95953534f59d13400b1a2581b4a5a6dfeaf57e0c",
      "assetIds": []
    },
    {
      "x": 146,
      "y": 352,
      "size": 1,
      "price": "1011000000000000000000",
      "reserved": "",
      "salt": "0xc3c5ebd25cd996d8ea59933e022c2bcdc9b7ec8be2f0bcdcbafb1dbf49c1b727",
      "assetIds": []
    },
    {
      "x": 146,
      "y": 353,
      "size": 1,
      "price": "1011000000000000000000",
      "reserved": "",
      "salt": "0x8bb8fe6902889c2b6ac690f4786e4233b89747910da505d9f6a9d288e997d4f2",
      "assetIds": []
    },
    {
      "x": 146,
      "y": 354,
      "size": 1,
      "price": "1011000000000000000000",
      "reserved": "",
      "salt": "0x35ca19179fe8cfe8a77a42e6f0cb3839a938c89cf6d81320a891e977e1150e98",
      "assetIds": []
    },
    {
      "x": 146,
      "y": 355,
      "size": 1,
      "price": "1011000000000000000000",
      "reserved": "",
      "salt": "0x35a8c56bd867dfc5088a9ed8369d1dd213971e4691a77ce327ed5d7aa2523f72",
      "assetIds": []
    },
    {
      "x": 146,
      "y": 356,
      "size": 1,
      "price": "1011000000000000000000",
      "reserved": "",
      "salt": "0x47d83075ddd9b54e06d985dbe06072de7c0f5f1a34600e21d09909428c5e07be",
      "assetIds": []
    },
    {
      "x": 146,
      "y": 357,
      "size": 1,
      "price": "1011000000000000000000",
      "reserved": "0x7a9fe22691c811ea339d9b73150e6911a5343dca",
      "salt": "0x5323ebc7497c856b110bd10aa7268da8a9f2717fbe1c4ab3e0d3f4c64cdc79f1",
      "assetIds": []
    },
    {
      "x": 146,
      "y": 358,
      "size": 1,
      "price": "1011000000000000000000",
      "reserved": "",
      "salt": "0x494561ae61aede0c2ab39cd0270120e44282ab3be2cf4c599e4b0f00e7f8dd74",
      "assetIds": []
    },
    {
      "x": 146,
      "y": 359,
      "size": 1,
      "price": "1011000000000000000000",
      "reserved": "",
      "salt": "0x7472be2672174547f8424a8f541babff5b605555d7b30ea0bfce3810d60d0ce0",
      "assetIds": []
    },
    {
      "x": 146,
      "y": 360,
      "size": 1,
      "price": "1011000000000000000000",
      "reserved": "",
      "salt": "0x9b68f5424f57b16bb65d15833462b76f63c70cf732f5c204a6c74e4e65adc11c",
      "assetIds": []
    },
    {
      "x": 146,
      "y": 361,
      "size": 1,
      "price": "1011000000000000000000",
      "reserved": "",
      "salt": "0xb79345e7db99ce1ac605a0025dcfe4511f82d7c3be981849a82b056a9a238fb7",
      "assetIds": []
    },
    {
      "x": 146,
      "y": 362,
      "size": 1,
      "price": "1011000000000000000000",
      "reserved": "",
      "salt": "0xe08ca87b94af7afac11865dec492e5899a3b793b33e80890c8dfab81b37637d7",
      "assetIds": []
    },
    {
      "x": 146,
      "y": 366,
      "size": 1,
      "price": "1011000000000000000000",
      "reserved": "",
      "salt": "0xdcf302ef89b252af015324426e05c25cc745ab36b25632a513dac773f9311143",
      "assetIds": []
    },
    {
      "x": 146,
      "y": 367,
      "size": 1,
      "price": "1011000000000000000000",
      "reserved": "",
      "salt": "0x97f0d53fa62202e2803e24890f16578d40cf90b6f810465783d6239cf69b925c",
      "assetIds": []
    },
    {
      "x": 146,
      "y": 368,
      "size": 1,
      "price": "1011000000000000000000",
      "reserved": "0x7a9fe22691c811ea339d9b73150e6911a5343dca",
      "salt": "0xe8ae57f7a97b62fb4ed947bbb4421e5721378b4a5dfe36ec0e8a480233df9ed0",
      "assetIds": []
    },
    {
      "x": 146,
      "y": 369,
      "size": 1,
      "price": "1011000000000000000000",
      "reserved": "",
      "salt": "0x84548973c02bbf19a59ca5d685fa44a74e8e7c9f60404b7b2a569821048a8cfb",
      "assetIds": []
    },
    {
      "x": 146,
      "y": 370,
      "size": 1,
      "price": "1011000000000000000000",
      "reserved": "",
      "salt": "0x766a8a0d9adbb4b62da8f836aecf451db792df3d4e99b4dacb0cc61c25c5c9f4",
      "assetIds": []
    },
    {
      "x": 146,
      "y": 371,
      "size": 1,
      "price": "1011000000000000000000",
      "reserved": "0x7a9fe22691c811ea339d9b73150e6911a5343dca",
      "salt": "0x115219da3742578438eae76117e27f440387e1c46ddadae850ddbd37e2852ed4",
      "assetIds": []
    },
    {
      "x": 146,
      "y": 372,
      "size": 1,
      "price": "1011000000000000000000",
      "reserved": "",
      "salt": "0x2a0537206362b97cb98952591d06015fbab7bf2fd82f8f8dafa51a3d2f9c853f",
      "assetIds": []
    },
    {
      "x": 146,
      "y": 373,
      "size": 1,
      "price": "1011000000000000000000",
      "reserved": "",
      "salt": "0x34f58a72759460494d6f723dca30b08fea89a11a616102f95d6af31d57fc919e",
      "assetIds": []
    },
    {
      "x": 146,
      "y": 374,
      "size": 1,
      "price": "1011000000000000000000",
      "reserved": "0x7a9fe22691c811ea339d9b73150e6911a5343dca",
      "salt": "0x07c024845196d62cdc42669213a39ff55e068ff762bd4e181f8316bd7df8338f",
      "assetIds": []
    },
    {
      "x": 146,
      "y": 375,
      "size": 1,
      "price": "1011000000000000000000",
      "reserved": "",
      "salt": "0x7c8c6a09ffbc7b14b291003329e2fa00580816015407bb40fb62d7093f11d531",
      "assetIds": []
    },
    {
      "x": 146,
      "y": 376,
      "size": 1,
      "price": "1011000000000000000000",
      "reserved": "0x7a9fe22691c811ea339d9b73150e6911a5343dca",
      "salt": "0xf21ed7509f21659fe44e283fa0cdf3fb2a9716f10f64820e3bc7741aa6d625c5",
      "assetIds": []
    },
    {
      "x": 146,
      "y": 377,
      "size": 1,
      "price": "1011000000000000000000",
      "reserved": "",
      "salt": "0xf9e1ed3145a34a7d71579998f2d80776a0ee283bf67c692fa9b98c53ff53656f",
      "assetIds": []
    },
    {
      "x": 146,
      "y": 378,
      "size": 1,
      "price": "1011000000000000000000",
      "reserved": "0x7a9fe22691c811ea339d9b73150e6911a5343dca",
      "salt": "0xd629264a1f2aba115d04c30059ef91205a7169a9a2358d10f5209181e42fedaa",
      "assetIds": []
    },
    {
      "x": 146,
      "y": 379,
      "size": 1,
      "price": "1011000000000000000000",
      "reserved": "",
      "salt": "0xdf7ccbbb205de9b4ea365e7146b1c282caac727eec1e29a432fc027ec1db753d",
      "assetIds": []
    },
    {
      "x": 146,
      "y": 380,
      "size": 1,
      "price": "1011000000000000000000",
      "reserved": "0x7a9fe22691c811ea339d9b73150e6911a5343dca",
      "salt": "0x3b5022647804b53ff5a3e6ae96af260ddc54a3bbd09d061a866677079c16f82b",
      "assetIds": []
    },
    {
      "x": 146,
      "y": 381,
      "size": 1,
      "price": "1011000000000000000000",
      "reserved": "",
      "salt": "0xfd6078e856f46a10e652fbc7121364a624e9e00b30bb9b9732279c767d909fe2",
      "assetIds": []
    },
    {
      "x": 146,
      "y": 382,
      "size": 1,
      "price": "1011000000000000000000",
      "reserved": "",
      "salt": "0xe399281a2f103b43fc6170e77618166bafa8c78604c990a64a3f6e7996f4d70a",
      "assetIds": []
    },
    {
      "x": 146,
      "y": 383,
      "size": 1,
      "price": "1011000000000000000000",
      "reserved": "",
      "salt": "0xce484968eb0a3735b3b50a017b9edb66d0ef2e3feadf247be3d5791b671756ab",
      "assetIds": []
    },
    {
      "x": 146,
      "y": 384,
      "size": 1,
      "price": "4683000000000000000000",
      "reserved": "",
      "salt": "0x195051d2773d34d3464b9ee6deebac77ce4e068211700662440c61c43e718383",
      "assetIds": [
        "55464657044963196816950587289035428064568320970692304673817341489687757334528",
        "55464657044963196816950587289035428064568320970692304673817341489687757334529",
        "55464657044963196816950587289035428064568320970692304673817341489687757334530",
        "55464657044963196816950587289035428064568320970692304673817341489687757334531",
        "55464657044963196816950587289035428064568320970692304673817341489687757334532"
      ]
    },
    {
      "x": 146,
      "y": 385,
      "size": 1,
      "price": "1011000000000000000000",
      "reserved": "",
      "salt": "0x1f0c77d7415cc58aa39841f35fde3b0e9fc7d3771bca8ba9799abfd2a76aa006",
      "assetIds": []
    },
    {
      "x": 146,
      "y": 386,
      "size": 1,
      "price": "1011000000000000000000",
      "reserved": "",
      "salt": "0xeb9fca01fc1a00baff20254cf3a8b318d1ae72c72de2214ef724b9c98d53394b",
      "assetIds": []
    },
    {
      "x": 146,
      "y": 387,
      "size": 1,
      "price": "1011000000000000000000",
      "reserved": "",
      "salt": "0x17797cef6e3a68dee4b7f48b2a016c4fd889252470f3e6d1135b4518c67ee316",
      "assetIds": []
    },
    {
      "x": 146,
      "y": 388,
      "size": 1,
      "price": "1011000000000000000000",
      "reserved": "",
      "salt": "0xf82bc91988d4b392c160121d549beb487bc71ba16eb59f01d55c73533f74d7b1",
      "assetIds": []
    },
    {
      "x": 146,
      "y": 389,
      "size": 1,
      "price": "1011000000000000000000",
      "reserved": "",
      "salt": "0x831779b2cf01ae7e69c731522747a3f49348944ca671640be8e601d9d97c7d5a",
      "assetIds": []
    },
    {
      "x": 146,
      "y": 390,
      "size": 1,
      "price": "1011000000000000000000",
      "reserved": "",
      "salt": "0x39a57cb0d67cffe9ad645a83ec40042b79ffb6aaf7205c7f3d0c2d22d85762a7",
      "assetIds": []
    },
    {
      "x": 146,
      "y": 391,
      "size": 1,
      "price": "1011000000000000000000",
      "reserved": "",
      "salt": "0x62fcf1c7b81dff120caf796f5a5f58470233d457d87d7522e7ca58a213aeec54",
      "assetIds": []
    },
    {
      "x": 146,
      "y": 392,
      "size": 1,
      "price": "1011000000000000000000",
      "reserved": "",
      "salt": "0xe53fec5d9886f1cf57f17b6807f7fb4a558f717af7e1811b0ba4909a176b3475",
      "assetIds": []
    },
    {
      "x": 146,
      "y": 393,
      "size": 1,
      "price": "1011000000000000000000",
      "reserved": "0x7a9fe22691c811ea339d9b73150e6911a5343dca",
      "salt": "0xb7bf922650f4b89cf624308b7ab29f08ead2dbc81fe2a2c5e98fdb5c77414fe4",
      "assetIds": []
    },
    {
      "x": 146,
      "y": 394,
      "size": 1,
      "price": "1011000000000000000000",
      "reserved": "",
      "salt": "0xfeb2c3ddbbd19e587f459531275d2054019d95061139463a83ba32a5b00c9164",
      "assetIds": []
    },
    {
      "x": 146,
      "y": 395,
      "size": 1,
      "price": "1011000000000000000000",
      "reserved": "",
      "salt": "0x518f0b3b6e7dfd362e797c8fcbc3d3ef47ba87fe0456039aabe6291a55a758c1",
      "assetIds": []
    },
    {
      "x": 146,
      "y": 396,
      "size": 1,
      "price": "1011000000000000000000",
      "reserved": "0x7a9fe22691c811ea339d9b73150e6911a5343dca",
      "salt": "0x085163899886d0cdc3399b5e00938fb15ebeb52221075fbbd97bb4fe52a8da02",
      "assetIds": []
    },
    {
      "x": 146,
      "y": 397,
      "size": 1,
      "price": "1011000000000000000000",
      "reserved": "",
      "salt": "0xb30e593405c687a1c7166b83a8cb6e69fbffb044599ac5c6319be457aa1a68ac",
      "assetIds": []
    },
    {
      "x": 146,
      "y": 398,
      "size": 1,
      "price": "1011000000000000000000",
      "reserved": "0x7a9fe22691c811ea339d9b73150e6911a5343dca",
      "salt": "0xd2bb671fcd349e07ec7b1f4f82c4451ccef3d482fb824f00fe3ef91156868422",
      "assetIds": []
    },
    {
      "x": 146,
      "y": 399,
      "size": 1,
      "price": "1011000000000000000000",
      "reserved": "",
      "salt": "0x7c560e029862005ce10f2f9e6f9a99beda18b22c6a1fe33ea46f0586a455bc75",
      "assetIds": []
    },
    {
      "x": 146,
      "y": 400,
      "size": 1,
      "price": "1011000000000000000000",
      "reserved": "",
      "salt": "0xa3e3f6ff0e7f8de0d0ceeaefca1e27182717cd8a94448715cb405052ad38f853",
      "assetIds": []
    },
    {
      "x": 146,
      "y": 401,
      "size": 1,
      "price": "1011000000000000000000",
      "reserved": "",
      "salt": "0x23496fac6600ff00924317d119bb61da9ba72f88f9936485dbdc3c2fe6439c71",
      "assetIds": []
    },
    {
      "x": 146,
      "y": 402,
      "size": 1,
      "price": "1011000000000000000000",
      "reserved": "0x7a9fe22691c811ea339d9b73150e6911a5343dca",
      "salt": "0x4f2b9c6aae5da7abdd412556e8d48a2fe1dc37cf8718eb3551cfe1a399d7e0ba",
      "assetIds": []
    },
    {
      "x": 146,
      "y": 403,
      "size": 1,
      "price": "1011000000000000000000",
      "reserved": "",
      "salt": "0x290f9a65bfb35745a48a13b4fa09db4253f732a9f54d59427f3b7a4d26318854",
      "assetIds": []
    },
    {
      "x": 146,
      "y": 404,
      "size": 1,
      "price": "1011000000000000000000",
      "reserved": "0x7a9fe22691c811ea339d9b73150e6911a5343dca",
      "salt": "0xac009065354aa9f47ba72c0b5490b7be38720b75eb3375bd06f5606af61fb4b3",
      "assetIds": []
    },
    {
      "x": 146,
      "y": 405,
      "size": 1,
      "price": "1011000000000000000000",
      "reserved": "",
      "salt": "0x023c7998a5b94fe0d4068caf7c89c890e27d04d17b87d0d152a856c1a05a99f2",
      "assetIds": []
    },
    {
      "x": 146,
      "y": 406,
      "size": 1,
      "price": "1011000000000000000000",
      "reserved": "",
      "salt": "0x9c571fa45b48d64c4ea11ccd3fdb731ca7c7411f0340314536b863e4fa8d9c5b",
      "assetIds": []
    },
    {
      "x": 146,
      "y": 407,
      "size": 1,
      "price": "1011000000000000000000",
      "reserved": "",
      "salt": "0x1a201fa0ea95b8eb6e2d0373d58459053cd69e5bfeed14ee7e094d5020fc1ee1",
      "assetIds": []
    },
    {
      "x": 147,
      "y": 351,
      "size": 1,
      "price": "1011000000000000000000",
      "reserved": "0x7a9fe22691c811ea339d9b73150e6911a5343dca",
      "salt": "0x4fa325a0119dc956b4a48c392c6654c8a7d44d08cbfb91219f9d8b8c2688ccb3",
      "assetIds": []
    },
    {
      "x": 147,
      "y": 352,
      "size": 1,
      "price": "1011000000000000000000",
      "reserved": "",
      "salt": "0x5705aecb7d406dd987cae7933c8d24eb589dc8f907e9cf5429f70617bd47b60b",
      "assetIds": []
    },
    {
      "x": 147,
      "y": 353,
      "size": 1,
      "price": "1011000000000000000000",
      "reserved": "",
      "salt": "0xdbaf05038168ee4916ea97c2837208cc8d601c84d89b577126eebadabc4830b8",
      "assetIds": []
    },
    {
      "x": 147,
      "y": 354,
      "size": 1,
      "price": "1011000000000000000000",
      "reserved": "",
      "salt": "0x3985121d04b73d61e0d6b03cc8cbef06f8e8ac50e7728ec72fc1c95b6fc2f12b",
      "assetIds": []
    },
    {
      "x": 147,
      "y": 355,
      "size": 1,
      "price": "1011000000000000000000",
      "reserved": "0x7a9fe22691c811ea339d9b73150e6911a5343dca",
      "salt": "0xba7cdb60e4a8dd4f5890d95439b89ce62bd16f3b9a430696b09e49fca0293b0c",
      "assetIds": []
    },
    {
      "x": 147,
      "y": 356,
      "size": 1,
      "price": "1011000000000000000000",
      "reserved": "",
      "salt": "0xaaf5fb0936e8c1ef9e85441dd3e88ea2c5084eb6797e19514ca7f136dae3b5d7",
      "assetIds": []
    },
    {
      "x": 147,
      "y": 357,
      "size": 1,
      "price": "1011000000000000000000",
      "reserved": "",
      "salt": "0x28c010d93cb44af142494b2d10c6a213cfacd3f710ed823f0dcdd998e13c2514",
      "assetIds": []
    },
    {
      "x": 147,
      "y": 358,
      "size": 1,
      "price": "1011000000000000000000",
      "reserved": "",
      "salt": "0x0ea5d8ca92c6f1a8eb3ee3b989aab56562b24f4dde0f20a166ec19496fa1282b",
      "assetIds": []
    },
    {
      "x": 147,
      "y": 359,
      "size": 1,
      "price": "1011000000000000000000",
      "reserved": "",
      "salt": "0x6f2f4faff2bad98777b482798ba22f38b37377baf840f9d68d8af060738d52fc",
      "assetIds": []
    },
    {
      "x": 147,
      "y": 360,
      "size": 1,
      "price": "1011000000000000000000",
      "reserved": "",
      "salt": "0x612affeaba565107ab6b6c33ff222222b2ed1844fe6fc983ffd51a127e347297",
      "assetIds": []
    },
    {
      "x": 147,
      "y": 361,
      "size": 1,
      "price": "1011000000000000000000",
      "reserved": "0x7a9fe22691c811ea339d9b73150e6911a5343dca",
      "salt": "0x6edac58d9ca7098e18ca4af2f7568f1d4dad6bb4595bd9d8a69e37f29960b2cf",
      "assetIds": []
    },
    {
      "x": 147,
      "y": 362,
      "size": 1,
      "price": "1011000000000000000000",
      "reserved": "",
      "salt": "0xe7ad48797f6d30287cb30829c1dd4afe7eb26e04b676149b5910db6dd017f764",
      "assetIds": []
    },
    {
      "x": 147,
      "y": 363,
      "size": 1,
      "price": "1011000000000000000000",
      "reserved": "0x7a9fe22691c811ea339d9b73150e6911a5343dca",
      "salt": "0x19204032a7f7c57ffbf67139a4669228c4fa51e4f68ff66c772f0a7c43fddcec",
      "assetIds": []
    },
    {
      "x": 147,
      "y": 364,
      "size": 1,
      "price": "1011000000000000000000",
      "reserved": "",
      "salt": "0xfdea561c472cf62c8e82bfb70b571a0ead7841a33cce3c552103cf02e27e22c4",
      "assetIds": []
    },
    {
      "x": 147,
      "y": 365,
      "size": 1,
      "price": "1011000000000000000000",
      "reserved": "0x7a9fe22691c811ea339d9b73150e6911a5343dca",
      "salt": "0x3d40fc57894fee4489e181bb2b6b0ce0d797c7de8e0a4d300c348c67bb8489f0",
      "assetIds": []
    },
    {
      "x": 147,
      "y": 366,
      "size": 1,
      "price": "1011000000000000000000",
      "reserved": "",
      "salt": "0xc768905f9dbee31e09d3f2147b59b5fdb0a67b42183bff7281a4b693d2b60f67",
      "assetIds": []
    },
    {
      "x": 147,
      "y": 367,
      "size": 1,
      "price": "1011000000000000000000",
      "reserved": "",
      "salt": "0x435474f7d41adfaeb9bf034711b4be0a050390677dc54d13c40399d86c4be46d",
      "assetIds": []
    },
    {
      "x": 147,
      "y": 368,
      "size": 1,
      "price": "1011000000000000000000",
      "reserved": "",
      "salt": "0x1ece8d39c3fc82a4fdd57e56e4356d40ea349d65b70940b32a293bb81404860d",
      "assetIds": []
    },
    {
      "x": 147,
      "y": 369,
      "size": 1,
      "price": "1011000000000000000000",
      "reserved": "",
      "salt": "0x7edee41c976df40e1e120d1c12df5e537f33565deb14d0bcfa6b12683503f8ca",
      "assetIds": []
    },
    {
      "x": 147,
      "y": 370,
      "size": 1,
      "price": "1011000000000000000000",
      "reserved": "0x7a9fe22691c811ea339d9b73150e6911a5343dca",
      "salt": "0x49fddda32d54d78cf79c0244c9db9bc8915401d4702e46c88a761bb4fa8c596c",
      "assetIds": []
    },
    {
      "x": 147,
      "y": 371,
      "size": 1,
      "price": "1011000000000000000000",
      "reserved": "",
      "salt": "0x65e683d6d8f90affee8f9a54c8fed801bc96c115650bd1f4258daa15d120928b",
      "assetIds": []
    },
    {
      "x": 147,
      "y": 375,
      "size": 1,
      "price": "1011000000000000000000",
      "reserved": "",
      "salt": "0x875b3bbea179ea6ec38f4479d957c43d6ff3ee88485a60ace1230c22e4ff654d",
      "assetIds": []
    },
    {
      "x": 147,
      "y": 376,
      "size": 1,
      "price": "1011000000000000000000",
      "reserved": "",
      "salt": "0x947474b293e01fd0ffbdc7919f359ab71a08ea7edb68134fe3c04308070ef289",
      "assetIds": []
    },
    {
      "x": 147,
      "y": 377,
      "size": 1,
      "price": "1011000000000000000000",
      "reserved": "",
      "salt": "0x1847a80ebe3aecd9465abe4969baf2505de60d72289784a42e2eb8aba6aab6ca",
      "assetIds": []
    },
    {
      "x": 147,
      "y": 378,
      "size": 1,
      "price": "1011000000000000000000",
      "reserved": "",
      "salt": "0xbdd0737c5d97eac36aff10672d3f3c19dec526d095f1c68f7a965039ff3e79c6",
      "assetIds": []
    },
    {
      "x": 147,
      "y": 379,
      "size": 1,
      "price": "1011000000000000000000",
      "reserved": "",
      "salt": "0x49d0d9e27933be8f1a151611fec65e152e1bec6abf7b31c91634ed0ad94b500e",
      "assetIds": []
    },
    {
      "x": 147,
      "y": 380,
      "size": 1,
      "price": "1011000000000000000000",
      "reserved": "",
      "salt": "0xa39a0e2e5b54fe09d95b2dc93248ad0d5ce37f0e07e38fdd1eaf61d1451c1ef9",
      "assetIds": []
    },
    {
      "x": 147,
      "y": 381,
      "size": 1,
      "price": "1011000000000000000000",
      "reserved": "",
      "salt": "0x40e05a88ff6477d3d18a3cb1c0a6d66e1fa01498c8059bb5a0792244dee8c2ee",
      "assetIds": []
    },
    {
      "x": 147,
      "y": 382,
      "size": 1,
      "price": "1011000000000000000000",
      "reserved": "0x7a9fe22691c811ea339d9b73150e6911a5343dca",
      "salt": "0x32dc552f3d3b39638e50dcdfd7c7b26506d4e86db0711f89c9679a7c3424968b",
      "assetIds": []
    },
    {
      "x": 147,
      "y": 383,
      "size": 1,
      "price": "1011000000000000000000",
      "reserved": "0x7a9fe22691c811ea339d9b73150e6911a5343dca",
      "salt": "0xfc0c77bac9e095e000163686d3c414f9a97096a408a93525f07e313e45a33bd1",
      "assetIds": []
    },
    {
      "x": 147,
      "y": 384,
      "size": 1,
      "price": "1011000000000000000000",
      "reserved": "0x7a9fe22691c811ea339d9b73150e6911a5343dca",
      "salt": "0x9dc6f462f49c0ef5fbffab69ed86c6e752e05bc01aa1c7da14f276a341c888cd",
      "assetIds": []
    },
    {
      "x": 147,
      "y": 385,
      "size": 1,
      "price": "1011000000000000000000",
      "reserved": "",
      "salt": "0xe2b8dc50d784913284a0e274b6fa7240e0feaace5e3fbe61b66a385e487c7b10",
      "assetIds": []
    },
    {
      "x": 147,
      "y": 386,
      "size": 1,
      "price": "1011000000000000000000",
      "reserved": "",
      "salt": "0xb1ac372afd1c13410cdec254a861468cedec0dfa9a3893c1e9538b0bba2ae1ec",
      "assetIds": []
    },
    {
      "x": 147,
      "y": 387,
      "size": 1,
      "price": "1011000000000000000000",
      "reserved": "",
      "salt": "0xb644a043edfc7ccc07c5ab1003699bb1cc9c56d8fd7048028d252a8d1f7e7466",
      "assetIds": []
    },
    {
      "x": 147,
      "y": 388,
      "size": 1,
      "price": "1011000000000000000000",
      "reserved": "",
      "salt": "0xd832b94326504c5d0ff54cc6165739dcdbd5276f3a45ff024e6e0f15c8c6258d",
      "assetIds": []
    },
    {
      "x": 147,
      "y": 389,
      "size": 1,
      "price": "4683000000000000000000",
      "reserved": "",
      "salt": "0x96791b359ca8740d378317b265864d446c09bc612efad5d0ee9c70b74e6becf2",
      "assetIds": [
        "55464657044963196816950587289035428064568320970692304673817341489687757334528",
        "55464657044963196816950587289035428064568320970692304673817341489687757334529",
        "55464657044963196816950587289035428064568320970692304673817341489687757334530",
        "55464657044963196816950587289035428064568320970692304673817341489687757334531",
        "55464657044963196816950587289035428064568320970692304673817341489687757334532"
      ]
    },
    {
      "x": 147,
      "y": 390,
      "size": 1,
      "price": "1011000000000000000000",
      "reserved": "",
      "salt": "0x7ee7c506f54f8dc9a572cd1a5b27e92de2763f1995abc0aa9b75312832b36878",
      "assetIds": []
    },
    {
      "x": 147,
      "y": 391,
      "size": 1,
      "price": "1011000000000000000000",
      "reserved": "0x7a9fe22691c811ea339d9b73150e6911a5343dca",
      "salt": "0x0d6482d98bc0a6bf7a87ef96a1666f12ab5780b023f14befbdf03253524a28d7",
      "assetIds": []
    },
    {
      "x": 147,
      "y": 392,
      "size": 1,
      "price": "1011000000000000000000",
      "reserved": "",
      "salt": "0xf12eedbdd31ec9510cc6ac0adad66a46b6c72453c22d125b55d1052affff886e",
      "assetIds": []
    },
    {
      "x": 147,
      "y": 393,
      "size": 1,
      "price": "1011000000000000000000",
      "reserved": "",
      "salt": "0x9c39fe00469fe30dba03e156e631fb013d8b9f1913bd359c2adc143576b88784",
      "assetIds": []
    },
    {
      "x": 147,
      "y": 394,
      "size": 1,
      "price": "1011000000000000000000",
      "reserved": "",
      "salt": "0xa40a769bebe8846b02884a734958e19a4fb240e77fd3fbc7c55123ab51d51236",
      "assetIds": []
    },
    {
      "x": 147,
      "y": 395,
      "size": 1,
      "price": "1011000000000000000000",
      "reserved": "0x7a9fe22691c811ea339d9b73150e6911a5343dca",
      "salt": "0x74b634c97cb15ba2f96fb0156dcaf5ea3072eaab2b0f44b883f1fc6381ea0c3b",
      "assetIds": []
    },
    {
      "x": 147,
      "y": 396,
      "size": 1,
      "price": "1011000000000000000000",
      "reserved": "",
      "salt": "0x7aed97d9c727ff3b0b66c47d520c868a0ee9fc2d2bd472814a3f6e659cef2896",
      "assetIds": []
    },
    {
      "x": 147,
      "y": 397,
      "size": 1,
      "price": "1011000000000000000000",
      "reserved": "",
      "salt": "0x50a992c15af5d4d8c89b0c7e32a213d0ef4b81160ffa73fade3da32b295decec",
      "assetIds": []
    },
    {
      "x": 147,
      "y": 398,
      "size": 1,
      "price": "1011000000000000000000",
      "reserved": "",
      "salt": "0x7ec2f37c670b14af7e17b98c9e38a2393711c1269cc7d34325ed3b5a94daa28d",
      "assetIds": []
    },
    {
      "x": 147,
      "y": 399,
      "size": 1,
      "price": "1011000000000000000000",
      "reserved": "0x7a9fe22691c811ea339d9b73150e6911a5343dca",
      "salt": "0x077dabd291d87376cd957bcff31e2106086c44c30396c76fef8b09c1a53a5d41",
      "assetIds": []
    },
    {
      "x": 147,
      "y": 400,
      "size": 1,
      "price": "1011000000000000000000",
      "reserved": "",
      "salt": "0x9fb1abef3d87885c3e81b0360bb0f338036ff01d0e660e68fa4c7fba09a27012",
      "assetIds": []
    },
    {
      "x": 147,
      "y": 401,
      "size": 1,
      "price": "1011000000000000000000",
      "reserved": "",
      "salt": "0xd9b53821891fa4239eba3d50cb817576bc65c4908f28fba45070a466af9ddf1f",
      "assetIds": []
    },
    {
      "x": 147,
      "y": 402,
      "size": 1,
      "price": "1011000000000000000000",
      "reserved": "",
      "salt": "0xb94b2b2bd3419972ef8778c2e6ba76b7cc506a01fed2e3a6f60d02802201e9ba",
      "assetIds": []
    },
    {
      "x": 147,
      "y": 403,
      "size": 1,
      "price": "1011000000000000000000",
      "reserved": "",
      "salt": "0x8e1bc9f27a5993746d7deb26dc40730a35f4edde5426fdb6d71d7a672834dca0",
      "assetIds": []
    },
    {
      "x": 147,
      "y": 404,
      "size": 1,
      "price": "1011000000000000000000",
      "reserved": "",
      "salt": "0xc27d5de8c8730e28d3bc46885ae5c5cd538526325a8efb710f54038fa8d64421",
      "assetIds": []
    },
    {
      "x": 147,
      "y": 405,
      "size": 1,
      "price": "1011000000000000000000",
      "reserved": "",
      "salt": "0x91129e57bf015cfa665a1870ae13b6976933c37923e878c4deebdc88eb18de2d",
      "assetIds": []
    },
    {
      "x": 147,
      "y": 406,
      "size": 1,
      "price": "1011000000000000000000",
      "reserved": "",
      "salt": "0x7d60c387c0a46aec05d4a0306f2713651d1b7b2a3426775e62fb198b23b6cef9",
      "assetIds": []
    },
    {
      "x": 147,
      "y": 407,
      "size": 1,
      "price": "1011000000000000000000",
      "reserved": "",
      "salt": "0x93c2da12c56e8c0e221b009968bdc74d822c5037cafdf2dbacd6fb3033f8e943",
      "assetIds": []
    },
    {
      "x": 148,
      "y": 352,
      "size": 1,
      "price": "1011000000000000000000",
      "reserved": "",
      "salt": "0x34000f20ec9272279cab7cacddd3ac2879e24e59f770b7149fbec4a747a6930c",
      "assetIds": []
    },
    {
      "x": 148,
      "y": 353,
      "size": 1,
      "price": "1011000000000000000000",
      "reserved": "",
      "salt": "0x2c97b9c2050d18426e19c1abb6b9218c591b9ae0c5277df7b6ce3a808ea82cb2",
      "assetIds": []
    },
    {
      "x": 148,
      "y": 354,
      "size": 1,
      "price": "1011000000000000000000",
      "reserved": "",
      "salt": "0xceea689b1aa7e2421fb689228e9ef99dc4604b2b440dc2c349f7aabd2fa33d93",
      "assetIds": []
    },
    {
      "x": 148,
      "y": 355,
      "size": 1,
      "price": "1011000000000000000000",
      "reserved": "",
      "salt": "0xe47da6db842a2f262490d91c128f8439243985da839c7a4a6bf33a4e06b09c14",
      "assetIds": []
    },
    {
      "x": 148,
      "y": 356,
      "size": 1,
      "price": "1011000000000000000000",
      "reserved": "",
      "salt": "0x052faa3726ed7bbc573b1f5d065d9ec3c6da260c65096daf1f6a40c93b84a911",
      "assetIds": []
    },
    {
      "x": 148,
      "y": 357,
      "size": 1,
      "price": "1011000000000000000000",
      "reserved": "",
      "salt": "0x88e9de2244f40121bb3c2e253de68cc00d4eeaf07b4a78380bfa75e3dbda77d1",
      "assetIds": []
    },
    {
      "x": 148,
      "y": 358,
      "size": 1,
      "price": "1011000000000000000000",
      "reserved": "",
      "salt": "0xf6031695a94a3a79cbbd679aa069fddde72e75bad7952f78bb33a62a1a36c6f3",
      "assetIds": []
    },
    {
      "x": 148,
      "y": 359,
      "size": 1,
      "price": "1011000000000000000000",
      "reserved": "",
      "salt": "0xa1a345d2857221d9a4c695dd555ebf8cef303ce4f1fb5704a55eea1ab95aec4a",
      "assetIds": []
    },
    {
      "x": 148,
      "y": 360,
      "size": 1,
      "price": "1011000000000000000000",
      "reserved": "0x7a9fe22691c811ea339d9b73150e6911a5343dca",
      "salt": "0xbb3e8342f88c64f60a6316af66eaa231f9dfb745600ddd8a730e1856f4876934",
      "assetIds": []
    },
    {
      "x": 148,
      "y": 361,
      "size": 1,
      "price": "1011000000000000000000",
      "reserved": "",
      "salt": "0x5e6ff86c9f9eb70a70cc6e37e0235e2c6f602d2ef381d9e93dfe07e10a7e020a",
      "assetIds": []
    },
    {
      "x": 148,
      "y": 362,
      "size": 1,
      "price": "1011000000000000000000",
      "reserved": "0x7a9fe22691c811ea339d9b73150e6911a5343dca",
      "salt": "0x6bc24d46d2163e60fbcdca47aa5c3a92911519d01567e662fc99f80d85d1ee2f",
      "assetIds": []
    },
    {
      "x": 148,
      "y": 363,
      "size": 1,
      "price": "1011000000000000000000",
      "reserved": "",
      "salt": "0x31c94a972437c0103c11d664764cf855345385d93635d9c2bafef85f1560c668",
      "assetIds": []
    },
    {
      "x": 148,
      "y": 364,
      "size": 1,
      "price": "1011000000000000000000",
      "reserved": "0x7a9fe22691c811ea339d9b73150e6911a5343dca",
      "salt": "0xecd0d7e125e830ee02b8abdfe7301646f752f686df9768e575fcee5cdd9882ca",
      "assetIds": []
    },
    {
      "x": 148,
      "y": 365,
      "size": 1,
      "price": "4683000000000000000000",
      "reserved": "",
      "salt": "0x3b7e059b09bfa65df876abd18870e0b95541e65d3e927bcaa18ef6d3b9814e12",
      "assetIds": [
        "55464657044963196816950587289035428064568320970692304673817341489687757334528",
        "55464657044963196816950587289035428064568320970692304673817341489687757334529",
        "55464657044963196816950587289035428064568320970692304673817341489687757334530",
        "55464657044963196816950587289035428064568320970692304673817341489687757334531",
        "55464657044963196816950587289035428064568320970692304673817341489687757334532"
      ]
    },
    {
      "x": 148,
      "y": 366,
      "size": 1,
      "price": "1011000000000000000000",
      "reserved": "0x7a9fe22691c811ea339d9b73150e6911a5343dca",
      "salt": "0xdfa7341167c29b4fbe38d640d441177c575911a6332e8c2c373ad1c83bd0a322",
      "assetIds": []
    },
    {
      "x": 148,
      "y": 367,
      "size": 1,
      "price": "1011000000000000000000",
      "reserved": "",
      "salt": "0x5778786632d95d83b155fce081d1de40f0f91e432b6f05c84a242de0642b6619",
      "assetIds": []
    },
    {
      "x": 148,
      "y": 368,
      "size": 1,
      "price": "1011000000000000000000",
      "reserved": "",
      "salt": "0x8bd289c7b40def9cb9e08df9c5757d138ffec777b999217eda4696a6b5218fd8",
      "assetIds": []
    },
    {
      "x": 148,
      "y": 369,
      "size": 1,
      "price": "4683000000000000000000",
      "reserved": "",
      "salt": "0xd14be4ec08915808e253f2f604a5c5d700b12b2eccc73d128b14c085558b5900",
      "assetIds": [
        "55464657044963196816950587289035428064568320970692304673817341489687757334528",
        "55464657044963196816950587289035428064568320970692304673817341489687757334529",
        "55464657044963196816950587289035428064568320970692304673817341489687757334530",
        "55464657044963196816950587289035428064568320970692304673817341489687757334531",
        "55464657044963196816950587289035428064568320970692304673817341489687757334532"
      ]
    },
    {
      "x": 148,
      "y": 370,
      "size": 1,
      "price": "1011000000000000000000",
      "reserved": "0x7a9fe22691c811ea339d9b73150e6911a5343dca",
      "salt": "0xbfba3ab041bd2f7900f20173ba93aa47988b36c8bfa59b225489f6cd3c537c49",
      "assetIds": []
    },
    {
      "x": 148,
      "y": 371,
      "size": 1,
      "price": "4683000000000000000000",
      "reserved": "",
      "salt": "0x626879922ecd8ab1cc3ac92b63d49aa56060a53f39e4fa76f7cb202e508d459e",
      "assetIds": [
        "55464657044963196816950587289035428064568320970692304673817341489687757334528",
        "55464657044963196816950587289035428064568320970692304673817341489687757334529",
        "55464657044963196816950587289035428064568320970692304673817341489687757334530",
        "55464657044963196816950587289035428064568320970692304673817341489687757334531",
        "55464657044963196816950587289035428064568320970692304673817341489687757334532"
      ]
    },
    {
      "x": 148,
      "y": 375,
      "size": 1,
      "price": "1011000000000000000000",
      "reserved": "0x7a9fe22691c811ea339d9b73150e6911a5343dca",
      "salt": "0xba7a6b9ee60f108130f5377789fa9ca0ad12f5432fa42e3fc5f288db97353d21",
      "assetIds": []
    },
    {
      "x": 148,
      "y": 376,
      "size": 1,
      "price": "1011000000000000000000",
      "reserved": "",
      "salt": "0x2458f6b300520cdffe3b10fb6a4df4f82d935c99916914821df2db38e3eb331d",
      "assetIds": []
    },
    {
      "x": 148,
      "y": 377,
      "size": 1,
      "price": "1011000000000000000000",
      "reserved": "0x7a9fe22691c811ea339d9b73150e6911a5343dca",
      "salt": "0x72915d3e49baa514a9010fb8bb85762d8d6cc81b0e003cebc244ac924bb651ba",
      "assetIds": []
    },
    {
      "x": 148,
      "y": 378,
      "size": 1,
      "price": "1011000000000000000000",
      "reserved": "",
      "salt": "0x6fec7ddc09cd4602b8dc86666d8dd5a2397401c0a59a9a2b64791239ecdb479d",
      "assetIds": []
    },
    {
      "x": 148,
      "y": 379,
      "size": 1,
      "price": "1011000000000000000000",
      "reserved": "",
      "salt": "0x0cdd3075257bd3d11567a0751bcdfbd371943e4c1955e75e4c6591771b8ae375",
      "assetIds": []
    },
    {
      "x": 148,
      "y": 380,
      "size": 1,
      "price": "1011000000000000000000",
      "reserved": "",
      "salt": "0x436ee7a5cb8f9a34cb509b609af917983caa467d2e5bacfcf2c0c047aef931f2",
      "assetIds": []
    },
    {
      "x": 148,
      "y": 381,
      "size": 1,
      "price": "1011000000000000000000",
      "reserved": "",
      "salt": "0x5ee52e232b0524d96eae7cdc0ce4fb146cbee37536bb04a8eb8a070cadd398c6",
      "assetIds": []
    },
    {
      "x": 148,
      "y": 382,
      "size": 1,
      "price": "1011000000000000000000",
      "reserved": "",
      "salt": "0x3587479ca7fd5af8aa3f4a0c6337bfe11dcebaa32b523b94db660b2676f557a9",
      "assetIds": []
    },
    {
      "x": 148,
      "y": 383,
      "size": 1,
      "price": "1011000000000000000000",
      "reserved": "",
      "salt": "0xce813f975ad1ff4c84e1eede074065e28e80e253461aa32fc519d1c75b3fc58f",
      "assetIds": []
    },
    {
      "x": 148,
      "y": 384,
      "size": 1,
      "price": "1011000000000000000000",
      "reserved": "",
      "salt": "0x6eb55d0bcfa93f2f880bef26ce7ffe906600ecffe2e8a3c75b39c5e66fc22c4f",
      "assetIds": []
    },
    {
      "x": 148,
      "y": 385,
      "size": 1,
      "price": "1011000000000000000000",
      "reserved": "",
      "salt": "0xe0b033aac484ccb3cd5f30eedba42aef750c9383346153ef6d0af122fdd3f3af",
      "assetIds": []
    },
    {
      "x": 148,
      "y": 386,
      "size": 1,
      "price": "1011000000000000000000",
      "reserved": "",
      "salt": "0x74e97b26bc2900c20c88a01d0eef6385a01c39e3184d8f2ccfee0a9c47fd79d8",
      "assetIds": []
    },
    {
      "x": 148,
      "y": 387,
      "size": 1,
      "price": "1011000000000000000000",
      "reserved": "",
      "salt": "0xafe09be66280beed61e8fe99041803e8e2b3d9e1697b27f41563722c6936ef0c",
      "assetIds": []
    },
    {
      "x": 148,
      "y": 388,
      "size": 1,
      "price": "1011000000000000000000",
      "reserved": "",
      "salt": "0xb038f2799d349a87532010d165dfc624e4841914d024dd16a8e0a2220432a047",
      "assetIds": []
    },
    {
      "x": 148,
      "y": 389,
      "size": 1,
      "price": "4683000000000000000000",
      "reserved": "",
      "salt": "0x9dc0fb42a01a86dfba185044d7725b9a5b2dc6bfe6bc0ec641f7f9a067f62494",
      "assetIds": [
        "55464657044963196816950587289035428064568320970692304673817341489687757334528",
        "55464657044963196816950587289035428064568320970692304673817341489687757334529",
        "55464657044963196816950587289035428064568320970692304673817341489687757334530",
        "55464657044963196816950587289035428064568320970692304673817341489687757334531",
        "55464657044963196816950587289035428064568320970692304673817341489687757334532"
      ]
    },
    {
      "x": 148,
      "y": 390,
      "size": 1,
      "price": "1011000000000000000000",
      "reserved": "",
      "salt": "0xc2fb11930bd2884cab34923d5c00bc66a4f4469930abfe42437a0af018db2e14",
      "assetIds": []
    },
    {
      "x": 148,
      "y": 391,
      "size": 1,
      "price": "1011000000000000000000",
      "reserved": "",
      "salt": "0x8a1f40c31d99ee2a830eb7e70a1cdcd94a3626bea6ca38a2874e9864a7175f85",
      "assetIds": []
    },
    {
      "x": 148,
      "y": 392,
      "size": 1,
      "price": "1011000000000000000000",
      "reserved": "",
      "salt": "0xcd0c4b82bbb4adedafd55af73c22ef85baf022ab1cd4b839e2c33d5fe13bebac",
      "assetIds": []
    },
    {
      "x": 148,
      "y": 393,
      "size": 1,
      "price": "1011000000000000000000",
      "reserved": "",
      "salt": "0x7e3f5eb5087553d02069de9ae7ccb3ec085b6865a1bdbe9866029995f6deb493",
      "assetIds": []
    },
    {
      "x": 148,
      "y": 394,
      "size": 1,
      "price": "1011000000000000000000",
      "reserved": "0x7a9fe22691c811ea339d9b73150e6911a5343dca",
      "salt": "0x2d936339f6181fec14157ebabd6d5802798833917122e5b22045640c520e1c77",
      "assetIds": []
    },
    {
      "x": 148,
      "y": 395,
      "size": 1,
      "price": "1011000000000000000000",
      "reserved": "",
      "salt": "0x8709d6b3913a1d68eb9f821a709e9004145ab7c5a34c6906d285bc34bc226690",
      "assetIds": []
    },
    {
      "x": 148,
      "y": 396,
      "size": 1,
      "price": "1011000000000000000000",
      "reserved": "0x7a9fe22691c811ea339d9b73150e6911a5343dca",
      "salt": "0x02f3609534a22907b3901e20bc30e3ffd1d387bf76773a3ecec67cfce6ad1ea2",
      "assetIds": []
    },
    {
      "x": 148,
      "y": 397,
      "size": 1,
      "price": "1011000000000000000000",
      "reserved": "",
      "salt": "0x428a38006970225611bae6c0bea1fd5b5c588bc231d72c47e49c6322cdaa6c59",
      "assetIds": []
    },
    {
      "x": 148,
      "y": 398,
      "size": 1,
      "price": "1011000000000000000000",
      "reserved": "",
      "salt": "0xbee0a83757b225e22dc1d00f9fe5889b609c3e50f597f249af47010b38205c54",
      "assetIds": []
    },
    {
      "x": 148,
      "y": 399,
      "size": 1,
      "price": "1011000000000000000000",
      "reserved": "",
      "salt": "0xc0fa77ee8a72d92ac75596fc08474ca2ca9c1d652bc18ed511a35ad934b7db6d",
      "assetIds": []
    },
    {
      "x": 148,
      "y": 400,
      "size": 1,
      "price": "1011000000000000000000",
      "reserved": "",
      "salt": "0x5222281bc6188d035dec8809b52a9ea67e98ae2320c6e0c45e8688560f3d02bc",
      "assetIds": []
    },
    {
      "x": 148,
      "y": 401,
      "size": 1,
      "price": "1011000000000000000000",
      "reserved": "",
      "salt": "0xb6c1c9897a8cff1de11ae5024fe17bef0162b8569c53487e09dac3b15d828149",
      "assetIds": []
    },
    {
      "x": 148,
      "y": 402,
      "size": 1,
      "price": "1011000000000000000000",
      "reserved": "",
      "salt": "0x1d9d291d29e73c76864e03118227308ff62b9e6307f345019a7753b7862cafce",
      "assetIds": []
    },
    {
      "x": 148,
      "y": 403,
      "size": 1,
      "price": "1011000000000000000000",
      "reserved": "",
      "salt": "0x7e73a0db88756793d7253031428c017049979302bec4d2c46d4f027f5bee3360",
      "assetIds": []
    },
    {
      "x": 148,
      "y": 404,
      "size": 1,
      "price": "1011000000000000000000",
      "reserved": "",
      "salt": "0x1e91da58c9af889566ee3bc7ab9b8925614653b672329c457c1e1c7f0e42476c",
      "assetIds": []
    },
    {
      "x": 148,
      "y": 405,
      "size": 1,
      "price": "1011000000000000000000",
      "reserved": "0x7a9fe22691c811ea339d9b73150e6911a5343dca",
      "salt": "0xedad844926acfb36757f4a53eb16fcc69b5de0c30e50ee6c7bb2cc39455bb781",
      "assetIds": []
    },
    {
      "x": 148,
      "y": 406,
      "size": 1,
      "price": "1011000000000000000000",
      "reserved": "",
      "salt": "0xde3e78a5e2b44deae3901ae84616b547603d968d54385f908ef9668a03e13022",
      "assetIds": []
    },
    {
      "x": 148,
      "y": 407,
      "size": 1,
      "price": "1011000000000000000000",
      "reserved": "",
      "salt": "0x53702fabb28e2cdcc9cd856bc2163fa125d5a7d6d680c5f7426529f2c2cb7427",
      "assetIds": []
    },
    {
      "x": 149,
      "y": 352,
      "size": 1,
      "price": "1011000000000000000000",
      "reserved": "",
      "salt": "0x1b89c44fdf175175e4d7a48403ff643e2b64f4bcda81e0b2ee5cc6e975a1714d",
      "assetIds": []
    },
    {
      "x": 149,
      "y": 353,
      "size": 1,
      "price": "1011000000000000000000",
      "reserved": "",
      "salt": "0xa1c479f897939048341d23d01621316065ba05083fb9966dabc7e467ec9aae97",
      "assetIds": []
    },
    {
      "x": 149,
      "y": 354,
      "size": 1,
      "price": "1011000000000000000000",
      "reserved": "",
      "salt": "0x876e5efd8c8156c8148100ca82955510daf99ccf29e72ed0ef76c388125f37c8",
      "assetIds": []
    },
    {
      "x": 149,
      "y": 355,
      "size": 1,
      "price": "1011000000000000000000",
      "reserved": "",
      "salt": "0x4c14d0ae198e50e3905714f95067b75212c7820698db720c21a0e9872d024038",
      "assetIds": []
    },
    {
      "x": 149,
      "y": 356,
      "size": 1,
      "price": "4683000000000000000000",
      "reserved": "",
      "salt": "0x8e8cf3e2ee75d7f7b0c537b65e773eee13874815767bb1dc06258a6fb977f957",
      "assetIds": [
        "55464657044963196816950587289035428064568320970692304673817341489687757334528",
        "55464657044963196816950587289035428064568320970692304673817341489687757334529",
        "55464657044963196816950587289035428064568320970692304673817341489687757334530",
        "55464657044963196816950587289035428064568320970692304673817341489687757334531",
        "55464657044963196816950587289035428064568320970692304673817341489687757334532"
      ]
    },
    {
      "x": 149,
      "y": 357,
      "size": 1,
      "price": "4683000000000000000000",
      "reserved": "",
      "salt": "0x6c4fca92157b281648d676f6f5e2bd38c31276463c52b35d4ac30b4addabf94f",
      "assetIds": [
        "55464657044963196816950587289035428064568320970692304673817341489687757334528",
        "55464657044963196816950587289035428064568320970692304673817341489687757334529",
        "55464657044963196816950587289035428064568320970692304673817341489687757334530",
        "55464657044963196816950587289035428064568320970692304673817341489687757334531",
        "55464657044963196816950587289035428064568320970692304673817341489687757334532"
      ]
    },
    {
      "x": 149,
      "y": 358,
      "size": 1,
      "price": "4683000000000000000000",
      "reserved": "",
      "salt": "0x90837b255260794a07e49a0b1941da4fbd3a53df8cd08080009129d2ac402cd0",
      "assetIds": [
        "55464657044963196816950587289035428064568320970692304673817341489687757334528",
        "55464657044963196816950587289035428064568320970692304673817341489687757334529",
        "55464657044963196816950587289035428064568320970692304673817341489687757334530",
        "55464657044963196816950587289035428064568320970692304673817341489687757334531",
        "55464657044963196816950587289035428064568320970692304673817341489687757334532"
      ]
    },
    {
      "x": 149,
      "y": 359,
      "size": 1,
      "price": "4683000000000000000000",
      "reserved": "",
      "salt": "0xc1bf3cf64fd5961917ce7267beeab1401b143aae8f19df777416c2730faebb4e",
      "assetIds": [
        "55464657044963196816950587289035428064568320970692304673817341489687757334528",
        "55464657044963196816950587289035428064568320970692304673817341489687757334529",
        "55464657044963196816950587289035428064568320970692304673817341489687757334530",
        "55464657044963196816950587289035428064568320970692304673817341489687757334531",
        "55464657044963196816950587289035428064568320970692304673817341489687757334532"
      ]
    },
    {
      "x": 149,
      "y": 360,
      "size": 1,
      "price": "4683000000000000000000",
      "reserved": "",
      "salt": "0xb8e9272ffe3145f8ccf8cb7dc31354b7b36de80ea1cce8c5760ecffb3d10a945",
      "assetIds": [
        "55464657044963196816950587289035428064568320970692304673817341489687757334528",
        "55464657044963196816950587289035428064568320970692304673817341489687757334529",
        "55464657044963196816950587289035428064568320970692304673817341489687757334530",
        "55464657044963196816950587289035428064568320970692304673817341489687757334531",
        "55464657044963196816950587289035428064568320970692304673817341489687757334532"
      ]
    },
    {
      "x": 149,
      "y": 361,
      "size": 1,
      "price": "4683000000000000000000",
      "reserved": "",
      "salt": "0x3c648cd80c95f0c7f19244bfa29c8678024514ed8232356b2b77b60dbbac411f",
      "assetIds": [
        "55464657044963196816950587289035428064568320970692304673817341489687757334528",
        "55464657044963196816950587289035428064568320970692304673817341489687757334529",
        "55464657044963196816950587289035428064568320970692304673817341489687757334530",
        "55464657044963196816950587289035428064568320970692304673817341489687757334531",
        "55464657044963196816950587289035428064568320970692304673817341489687757334532"
      ]
    },
    {
      "x": 149,
      "y": 362,
      "size": 1,
      "price": "4683000000000000000000",
      "reserved": "",
      "salt": "0xa73a7adf1803dfe7aa442e32108e92026477b5935210f4741f139cf53632d8d9",
      "assetIds": [
        "55464657044963196816950587289035428064568320970692304673817341489687757334528",
        "55464657044963196816950587289035428064568320970692304673817341489687757334529",
        "55464657044963196816950587289035428064568320970692304673817341489687757334530",
        "55464657044963196816950587289035428064568320970692304673817341489687757334531",
        "55464657044963196816950587289035428064568320970692304673817341489687757334532"
      ]
    },
    {
      "x": 149,
      "y": 363,
      "size": 1,
      "price": "4683000000000000000000",
      "reserved": "",
      "salt": "0xe011b74ac4e02ad74196a3204f8e475480cf91f0a0d2f5821bb3c45bc4c454bf",
      "assetIds": [
        "55464657044963196816950587289035428064568320970692304673817341489687757334528",
        "55464657044963196816950587289035428064568320970692304673817341489687757334529",
        "55464657044963196816950587289035428064568320970692304673817341489687757334530",
        "55464657044963196816950587289035428064568320970692304673817341489687757334531",
        "55464657044963196816950587289035428064568320970692304673817341489687757334532"
      ]
    },
    {
      "x": 149,
      "y": 364,
      "size": 1,
      "price": "1011000000000000000000",
      "reserved": "",
      "salt": "0x3fbb4638eb22b987a92e9f0eb85c7013e7d94ed60c4cf0a398d826ff84e950f1",
      "assetIds": []
    },
    {
      "x": 149,
      "y": 365,
      "size": 1,
      "price": "4683000000000000000000",
      "reserved": "",
      "salt": "0xd5c3a72a35b9af441710ee6688f9611935d50daa1f510efac7d07ba0e6ac579a",
      "assetIds": [
        "55464657044963196816950587289035428064568320970692304673817341489687757334528",
        "55464657044963196816950587289035428064568320970692304673817341489687757334529",
        "55464657044963196816950587289035428064568320970692304673817341489687757334530",
        "55464657044963196816950587289035428064568320970692304673817341489687757334531",
        "55464657044963196816950587289035428064568320970692304673817341489687757334532"
      ]
    },
    {
      "x": 149,
      "y": 366,
      "size": 1,
      "price": "4683000000000000000000",
      "reserved": "",
      "salt": "0x940ad6408ceafa281333dc6bfd274160cd24f272570336f68ccaefe797cb5d73",
      "assetIds": [
        "55464657044963196816950587289035428064568320970692304673817341489687757334528",
        "55464657044963196816950587289035428064568320970692304673817341489687757334529",
        "55464657044963196816950587289035428064568320970692304673817341489687757334530",
        "55464657044963196816950587289035428064568320970692304673817341489687757334531",
        "55464657044963196816950587289035428064568320970692304673817341489687757334532"
      ]
    },
    {
      "x": 149,
      "y": 367,
      "size": 1,
      "price": "4683000000000000000000",
      "reserved": "",
      "salt": "0x1da3ddc13708a4d2f17c451ff76dd4f365a82100d4699dfbb4faae60e71fbc28",
      "assetIds": [
        "55464657044963196816950587289035428064568320970692304673817341489687757334528",
        "55464657044963196816950587289035428064568320970692304673817341489687757334529",
        "55464657044963196816950587289035428064568320970692304673817341489687757334530",
        "55464657044963196816950587289035428064568320970692304673817341489687757334531",
        "55464657044963196816950587289035428064568320970692304673817341489687757334532"
      ]
    },
    {
      "x": 149,
      "y": 368,
      "size": 1,
      "price": "4683000000000000000000",
      "reserved": "",
      "salt": "0xcea932e2acc5384439d97687e2039578e0ea439fa90f440228f3f2322da6a85d",
      "assetIds": [
        "55464657044963196816950587289035428064568320970692304673817341489687757334528",
        "55464657044963196816950587289035428064568320970692304673817341489687757334529",
        "55464657044963196816950587289035428064568320970692304673817341489687757334530",
        "55464657044963196816950587289035428064568320970692304673817341489687757334531",
        "55464657044963196816950587289035428064568320970692304673817341489687757334532"
      ]
    },
    {
      "x": 149,
      "y": 369,
      "size": 1,
      "price": "4683000000000000000000",
      "reserved": "",
      "salt": "0xcc2c1049ad58c350c34b64bfb7da0b2714d4952e387d4553496bbaf95a927a9b",
      "assetIds": [
        "55464657044963196816950587289035428064568320970692304673817341489687757334528",
        "55464657044963196816950587289035428064568320970692304673817341489687757334529",
        "55464657044963196816950587289035428064568320970692304673817341489687757334530",
        "55464657044963196816950587289035428064568320970692304673817341489687757334531",
        "55464657044963196816950587289035428064568320970692304673817341489687757334532"
      ]
    },
    {
      "x": 149,
      "y": 370,
      "size": 1,
      "price": "4683000000000000000000",
      "reserved": "",
      "salt": "0xbda49f2b79310c952e647b6cb4b1ca9610a0e653eb678f4097d595c2ccdbd24e",
      "assetIds": [
        "55464657044963196816950587289035428064568320970692304673817341489687757334528",
        "55464657044963196816950587289035428064568320970692304673817341489687757334529",
        "55464657044963196816950587289035428064568320970692304673817341489687757334530",
        "55464657044963196816950587289035428064568320970692304673817341489687757334531",
        "55464657044963196816950587289035428064568320970692304673817341489687757334532"
      ]
    },
    {
      "x": 149,
      "y": 371,
      "size": 1,
      "price": "4683000000000000000000",
      "reserved": "",
      "salt": "0x1b0ed624c26ac2c7d2e2aa53c6d8d6258797a342c6a1170b1cebdb57247faed4",
      "assetIds": [
        "55464657044963196816950587289035428064568320970692304673817341489687757334528",
        "55464657044963196816950587289035428064568320970692304673817341489687757334529",
        "55464657044963196816950587289035428064568320970692304673817341489687757334530",
        "55464657044963196816950587289035428064568320970692304673817341489687757334531",
        "55464657044963196816950587289035428064568320970692304673817341489687757334532"
      ]
    },
    {
      "x": 149,
      "y": 375,
      "size": 1,
      "price": "1011000000000000000000",
      "reserved": "",
      "salt": "0xe87f4acc2b985825e6d0e60a9c31580a2f6d8fc54e2d927b9841ac009f85108c",
      "assetIds": []
    },
    {
      "x": 149,
      "y": 376,
      "size": 1,
      "price": "1011000000000000000000",
      "reserved": "0x7a9fe22691c811ea339d9b73150e6911a5343dca",
      "salt": "0xb6052c07c6d1979e60d3be036d82362cf268186119f1429adb375c000b637243",
      "assetIds": []
    },
    {
      "x": 149,
      "y": 377,
      "size": 1,
      "price": "1011000000000000000000",
      "reserved": "",
      "salt": "0x47fbadcfe9225f15387395d07d2a1cbe656b8f3b56dadd5fec636749b48c22a2",
      "assetIds": []
    },
    {
      "x": 149,
      "y": 378,
      "size": 1,
      "price": "1011000000000000000000",
      "reserved": "",
      "salt": "0xb0b349ba2320c6f138c7ef55e750211729bc91eda7345730c4c86d1f74ec2392",
      "assetIds": []
    },
    {
      "x": 149,
      "y": 379,
      "size": 1,
      "price": "1011000000000000000000",
      "reserved": "",
      "salt": "0x7077aa24690d89614fd23e0f1821ac5421f320d432b0237a4e6d813795e7a7d9",
      "assetIds": []
    },
    {
      "x": 149,
      "y": 380,
      "size": 1,
      "price": "1011000000000000000000",
      "reserved": "",
      "salt": "0x2894699b04eaef999f1e69068460507e256a828fc1e59abd910f347fd0bcef4f",
      "assetIds": []
    },
    {
      "x": 149,
      "y": 381,
      "size": 1,
      "price": "1011000000000000000000",
      "reserved": "0x7a9fe22691c811ea339d9b73150e6911a5343dca",
      "salt": "0x12ef39034f578f369f7f7a622eae5b4eeda00cc1dc6e2dc27f0a7bf334c2a2eb",
      "assetIds": []
    },
    {
      "x": 149,
      "y": 382,
      "size": 1,
      "price": "1011000000000000000000",
      "reserved": "",
      "salt": "0xaca653e3926069d0189d8f36f75fa15234874f5b91f19a7ba515022506475f6a",
      "assetIds": []
    },
    {
      "x": 149,
      "y": 383,
      "size": 1,
      "price": "1011000000000000000000",
      "reserved": "",
      "salt": "0x230e717b7a6328091a36d421cd443c996f4781c87ea2d84bae32048c56ff58f0",
      "assetIds": []
    },
    {
      "x": 149,
      "y": 384,
      "size": 1,
      "price": "1011000000000000000000",
      "reserved": "0x7a9fe22691c811ea339d9b73150e6911a5343dca",
      "salt": "0x4e48b060a592ade3a6111cc601d4f4ce3e3f0382fc6f4e6d64c8edb32e5f10f9",
      "assetIds": []
    },
    {
      "x": 149,
      "y": 385,
      "size": 1,
      "price": "1011000000000000000000",
      "reserved": "",
      "salt": "0x1175b4d4551ecd81d0de66018b9311c7ba9f908da72502c30a94a8c8833b5502",
      "assetIds": []
    },
    {
      "x": 149,
      "y": 386,
      "size": 1,
      "price": "1011000000000000000000",
      "reserved": "",
      "salt": "0x1730fd40944f593330c02d1a8e741dbf5c3e8556b778aef2bad7e1386d88e131",
      "assetIds": []
    },
    {
      "x": 149,
      "y": 387,
      "size": 1,
      "price": "1011000000000000000000",
      "reserved": "",
      "salt": "0x525a4731ffa1ca3ae4cc39cc0cca5946a50a9c33411be4c5d894f3c4c280a6ce",
      "assetIds": []
    },
    {
      "x": 149,
      "y": 388,
      "size": 1,
      "price": "4683000000000000000000",
      "reserved": "",
      "salt": "0x3ff0791718e110d59af73de48ff854321cf6cd9d9d3789370f5bbce315a11065",
      "assetIds": [
        "55464657044963196816950587289035428064568320970692304673817341489687757334528",
        "55464657044963196816950587289035428064568320970692304673817341489687757334529",
        "55464657044963196816950587289035428064568320970692304673817341489687757334530",
        "55464657044963196816950587289035428064568320970692304673817341489687757334531",
        "55464657044963196816950587289035428064568320970692304673817341489687757334532"
      ]
    },
    {
      "x": 149,
      "y": 389,
      "size": 1,
      "price": "4683000000000000000000",
      "reserved": "",
      "salt": "0x1fd11eea5b453955d4ab762d1de3b9a9fe95790db9cede9c28cd19fddde03172",
      "assetIds": [
        "55464657044963196816950587289035428064568320970692304673817341489687757334528",
        "55464657044963196816950587289035428064568320970692304673817341489687757334529",
        "55464657044963196816950587289035428064568320970692304673817341489687757334530",
        "55464657044963196816950587289035428064568320970692304673817341489687757334531",
        "55464657044963196816950587289035428064568320970692304673817341489687757334532"
      ]
    },
    {
      "x": 149,
      "y": 390,
      "size": 1,
      "price": "4683000000000000000000",
      "reserved": "",
      "salt": "0x17f2415e6cf85737bdb5d9783d87bc13c59b9736e552ff1c45a45dd0ba536db7",
      "assetIds": [
        "55464657044963196816950587289035428064568320970692304673817341489687757334528",
        "55464657044963196816950587289035428064568320970692304673817341489687757334529",
        "55464657044963196816950587289035428064568320970692304673817341489687757334530",
        "55464657044963196816950587289035428064568320970692304673817341489687757334531",
        "55464657044963196816950587289035428064568320970692304673817341489687757334532"
      ]
    },
    {
      "x": 149,
      "y": 391,
      "size": 1,
      "price": "4683000000000000000000",
      "reserved": "",
      "salt": "0x72eddbbdc9a50653efe2b9938e8db68810490f321e35d1e9d2c62b712c13d30f",
      "assetIds": [
        "55464657044963196816950587289035428064568320970692304673817341489687757334528",
        "55464657044963196816950587289035428064568320970692304673817341489687757334529",
        "55464657044963196816950587289035428064568320970692304673817341489687757334530",
        "55464657044963196816950587289035428064568320970692304673817341489687757334531",
        "55464657044963196816950587289035428064568320970692304673817341489687757334532"
      ]
    },
    {
      "x": 149,
      "y": 392,
      "size": 1,
      "price": "4683000000000000000000",
      "reserved": "",
      "salt": "0xc51bd998e937d9ffae722fc98b2cdc67ab30707c5b6288cc166305601071ad4c",
      "assetIds": [
        "55464657044963196816950587289035428064568320970692304673817341489687757334528",
        "55464657044963196816950587289035428064568320970692304673817341489687757334529",
        "55464657044963196816950587289035428064568320970692304673817341489687757334530",
        "55464657044963196816950587289035428064568320970692304673817341489687757334531",
        "55464657044963196816950587289035428064568320970692304673817341489687757334532"
      ]
    },
    {
      "x": 149,
      "y": 393,
      "size": 1,
      "price": "4683000000000000000000",
      "reserved": "",
      "salt": "0x7198ef2dc743f6bd5baee94b5028e14045465b48f37a7aafa0b1fd46bfef8b54",
      "assetIds": [
        "55464657044963196816950587289035428064568320970692304673817341489687757334528",
        "55464657044963196816950587289035428064568320970692304673817341489687757334529",
        "55464657044963196816950587289035428064568320970692304673817341489687757334530",
        "55464657044963196816950587289035428064568320970692304673817341489687757334531",
        "55464657044963196816950587289035428064568320970692304673817341489687757334532"
      ]
    },
    {
      "x": 149,
      "y": 394,
      "size": 1,
      "price": "4683000000000000000000",
      "reserved": "",
      "salt": "0xf935694277988b5b351ab0c4b6462b9d001ea1ac9a660ea92f4990e7fcc55cdd",
      "assetIds": [
        "55464657044963196816950587289035428064568320970692304673817341489687757334528",
        "55464657044963196816950587289035428064568320970692304673817341489687757334529",
        "55464657044963196816950587289035428064568320970692304673817341489687757334530",
        "55464657044963196816950587289035428064568320970692304673817341489687757334531",
        "55464657044963196816950587289035428064568320970692304673817341489687757334532"
      ]
    },
    {
      "x": 149,
      "y": 395,
      "size": 1,
      "price": "4683000000000000000000",
      "reserved": "",
      "salt": "0x513c4aadb00d268be7d03eca3b2d3936d2da5b88f1b521fc70822ff9a1b6a1e8",
      "assetIds": [
        "55464657044963196816950587289035428064568320970692304673817341489687757334528",
        "55464657044963196816950587289035428064568320970692304673817341489687757334529",
        "55464657044963196816950587289035428064568320970692304673817341489687757334530",
        "55464657044963196816950587289035428064568320970692304673817341489687757334531",
        "55464657044963196816950587289035428064568320970692304673817341489687757334532"
      ]
    },
    {
      "x": 149,
      "y": 396,
      "size": 1,
      "price": "1011000000000000000000",
      "reserved": "",
      "salt": "0xa21e58e79538fc473b66f192f0a43c6be6ebc1b6f6f44ccf4a07c4e145ad962e",
      "assetIds": []
    },
    {
      "x": 149,
      "y": 397,
      "size": 1,
      "price": "1011000000000000000000",
      "reserved": "",
      "salt": "0x54d68a418b696fbdcbfd34bfb718e018b274c630b1fe3512f25f8a191699588e",
      "assetIds": []
    },
    {
      "x": 149,
      "y": 398,
      "size": 1,
      "price": "1011000000000000000000",
      "reserved": "",
      "salt": "0x84aa6196fa5aa2ccea561a4fad15c723f2e7060ac09c391e6071a5bc4fe8bc07",
      "assetIds": []
    },
    {
      "x": 149,
      "y": 399,
      "size": 1,
      "price": "1011000000000000000000",
      "reserved": "",
      "salt": "0xcff3382472a4b6ba92d835332cb32f4043ec2cd7b9172070c9d6e3c7c3cdfc40",
      "assetIds": []
    },
    {
      "x": 149,
      "y": 400,
      "size": 1,
      "price": "1011000000000000000000",
      "reserved": "0x7a9fe22691c811ea339d9b73150e6911a5343dca",
      "salt": "0x309d3566dfb488b64c7720bf42ed86cc819c644a64a0d3c148529c4958ce8af3",
      "assetIds": []
    },
    {
      "x": 149,
      "y": 401,
      "size": 1,
      "price": "1011000000000000000000",
      "reserved": "0x7a9fe22691c811ea339d9b73150e6911a5343dca",
      "salt": "0xa900340f6f25cafe235e7bd5a6582d94d5a4914da46c026b55489152315712d7",
      "assetIds": []
    },
    {
      "x": 149,
      "y": 402,
      "size": 1,
      "price": "1011000000000000000000",
      "reserved": "",
      "salt": "0x5bbb4b3cff6bb6074267d9e1cfca8ec751b01146829772d2f111e3901737e9fe",
      "assetIds": []
    },
    {
      "x": 149,
      "y": 403,
      "size": 1,
      "price": "1011000000000000000000",
      "reserved": "",
      "salt": "0xa939ad1504ad2b1d4197c058c1a1736f29276997255311c5bafcb98697b2a625",
      "assetIds": []
    },
    {
      "x": 149,
      "y": 404,
      "size": 1,
      "price": "1011000000000000000000",
      "reserved": "",
      "salt": "0xde6fa9279904fe95281a252c75a7c1e22a3d65d2e31f6cfdcb86928dd4e3a197",
      "assetIds": []
    },
    {
      "x": 149,
      "y": 405,
      "size": 1,
      "price": "1011000000000000000000",
      "reserved": "",
      "salt": "0x91d0d48348fddaed67b74bac1444ae1d464bd823aad32cdf2430ede014cecae6",
      "assetIds": []
    },
    {
      "x": 149,
      "y": 406,
      "size": 1,
      "price": "1011000000000000000000",
      "reserved": "",
      "salt": "0x4b9a11e0d44eface4e425b2dc0938ef9099687e880b415d81c8e431b3e512430",
      "assetIds": []
    },
    {
      "x": 149,
      "y": 407,
      "size": 1,
      "price": "1011000000000000000000",
      "reserved": "",
      "salt": "0xe43356f290fb3c5f28f0772aef7fd8032a5160def062569a895c8ed5cd16f801",
      "assetIds": []
    },
    {
      "x": 150,
      "y": 352,
      "size": 1,
      "price": "1011000000000000000000",
      "reserved": "",
      "salt": "0x7cf810193585d1a45bc8a7acb46e3d344bfa65e6065647827d65bc0586efd21f",
      "assetIds": []
    },
    {
      "x": 150,
      "y": 353,
      "size": 1,
      "price": "1011000000000000000000",
      "reserved": "",
      "salt": "0xbd57c87eda4954ff2f2dac4b97e8adac5dbfb0a83df1a116240e01225753e68b",
      "assetIds": []
    },
    {
      "x": 150,
      "y": 354,
      "size": 1,
      "price": "4683000000000000000000",
      "reserved": "",
      "salt": "0xaa005c96cfce9eda75a467e8d40df6c43bb16ce21a1312500059c37d6bdc2a46",
      "assetIds": [
        "55464657044963196816950587289035428064568320970692304673817341489687757334528",
        "55464657044963196816950587289035428064568320970692304673817341489687757334529",
        "55464657044963196816950587289035428064568320970692304673817341489687757334530",
        "55464657044963196816950587289035428064568320970692304673817341489687757334531",
        "55464657044963196816950587289035428064568320970692304673817341489687757334532"
      ]
    },
    {
      "x": 150,
      "y": 355,
      "size": 1,
      "price": "1011000000000000000000",
      "reserved": "0x7a9fe22691c811ea339d9b73150e6911a5343dca",
      "salt": "0x4ffc2107f7344824bb3c99411bff1315e0ef3ef15dc4470415604dcf1f9562d5",
      "assetIds": []
    },
    {
      "x": 150,
      "y": 356,
      "size": 1,
      "price": "4683000000000000000000",
      "reserved": "",
      "salt": "0xb23f10973a572a81e9068df27c88197778156fdb05830d5e7814e87c9470866b",
      "assetIds": [
        "55464657044963196816950587289035428064568320970692304673817341489687757334528",
        "55464657044963196816950587289035428064568320970692304673817341489687757334529",
        "55464657044963196816950587289035428064568320970692304673817341489687757334530",
        "55464657044963196816950587289035428064568320970692304673817341489687757334531",
        "55464657044963196816950587289035428064568320970692304673817341489687757334532"
      ]
    },
    {
      "x": 150,
      "y": 363,
      "size": 1,
      "price": "4683000000000000000000",
      "reserved": "",
      "salt": "0x765736ebce0459d018217c25be030d45b02dcd8f073d7ec8a8da381acdd03ab3",
      "assetIds": [
        "55464657044963196816950587289035428064568320970692304673817341489687757334528",
        "55464657044963196816950587289035428064568320970692304673817341489687757334529",
        "55464657044963196816950587289035428064568320970692304673817341489687757334530",
        "55464657044963196816950587289035428064568320970692304673817341489687757334531",
        "55464657044963196816950587289035428064568320970692304673817341489687757334532"
      ]
    },
    {
      "x": 150,
      "y": 364,
      "size": 1,
      "price": "1011000000000000000000",
      "reserved": "",
      "salt": "0x3b2a228ac4320227fffe392e21c6d0e91e0d7b457ab81068f4f904f48df7c03d",
      "assetIds": []
    },
    {
      "x": 150,
      "y": 365,
      "size": 1,
      "price": "4683000000000000000000",
      "reserved": "",
      "salt": "0x46c05a570e28f654368f708a20d9f970d180b60cc919d5b58f69d7925d1fcd62",
      "assetIds": [
        "55464657044963196816950587289035428064568320970692304673817341489687757334528",
        "55464657044963196816950587289035428064568320970692304673817341489687757334529",
        "55464657044963196816950587289035428064568320970692304673817341489687757334530",
        "55464657044963196816950587289035428064568320970692304673817341489687757334531",
        "55464657044963196816950587289035428064568320970692304673817341489687757334532"
      ]
    },
    {
      "x": 150,
      "y": 372,
      "size": 1,
      "price": "4683000000000000000000",
      "reserved": "",
      "salt": "0xe092fcdaf6217f3b1e8a7bcdb7c012d4ac97f8367073166a022b82c9b602d84c",
      "assetIds": [
        "55464657044963196816950587289035428064568320970692304673817341489687757334528",
        "55464657044963196816950587289035428064568320970692304673817341489687757334529",
        "55464657044963196816950587289035428064568320970692304673817341489687757334530",
        "55464657044963196816950587289035428064568320970692304673817341489687757334531",
        "55464657044963196816950587289035428064568320970692304673817341489687757334532"
      ]
    },
    {
      "x": 150,
      "y": 373,
      "size": 1,
      "price": "1011000000000000000000",
      "reserved": "",
      "salt": "0xa5d931db642e66a390ceb9846cf7213ca2635e4131d1a96b5d64e9364947a87b",
      "assetIds": []
    },
    {
      "x": 150,
      "y": 374,
      "size": 1,
      "price": "1011000000000000000000",
      "reserved": "",
      "salt": "0xb94fb887d4ba073ad9d73d2d1cc255ca715553993b465a57760c2719953d073e",
      "assetIds": []
    },
    {
      "x": 150,
      "y": 384,
      "size": 1,
      "price": "1011000000000000000000",
      "reserved": "",
      "salt": "0x8f7f24b6ce0c4284d90033b17ac2563f3f75729cdf585e098c3a8d368f29052b",
      "assetIds": []
    },
    {
      "x": 150,
      "y": 385,
      "size": 1,
      "price": "1011000000000000000000",
      "reserved": "",
      "salt": "0x1039ac0d4f34d280fc61e34455a383848e66a83242a202af81afa7de30c58e6d",
      "assetIds": []
    },
    {
      "x": 150,
      "y": 386,
      "size": 1,
      "price": "1011000000000000000000",
      "reserved": "0x7a9fe22691c811ea339d9b73150e6911a5343dca",
      "salt": "0x24d0a6a758c93c3ea6b99fe6ffbe34e064b1260a2bed3b0ad58161e4ab2fde80",
      "assetIds": []
    },
    {
      "x": 150,
      "y": 387,
      "size": 1,
      "price": "4683000000000000000000",
      "reserved": "",
      "salt": "0xbe77ea83ab99b3f159d18a4a2edb43049b163f78915dc42b769cacbf468abb5d",
      "assetIds": [
        "55464657044963196816950587289035428064568320970692304673817341489687757334528",
        "55464657044963196816950587289035428064568320970692304673817341489687757334529",
        "55464657044963196816950587289035428064568320970692304673817341489687757334530",
        "55464657044963196816950587289035428064568320970692304673817341489687757334531",
        "55464657044963196816950587289035428064568320970692304673817341489687757334532"
      ]
    },
    {
      "x": 150,
      "y": 388,
      "size": 1,
      "price": "4683000000000000000000",
      "reserved": "",
      "salt": "0x8b38b170a7dbe72f998c4d0a615d1bfc22fe2417417fe285ff4a6f010ef3c459",
      "assetIds": [
        "55464657044963196816950587289035428064568320970692304673817341489687757334528",
        "55464657044963196816950587289035428064568320970692304673817341489687757334529",
        "55464657044963196816950587289035428064568320970692304673817341489687757334530",
        "55464657044963196816950587289035428064568320970692304673817341489687757334531",
        "55464657044963196816950587289035428064568320970692304673817341489687757334532"
      ]
    },
    {
      "x": 150,
      "y": 389,
      "size": 1,
      "price": "4683000000000000000000",
      "reserved": "",
      "salt": "0x19128ef7d778e1b65554f9984cd0aba234e55a0b968a907308242bcd2537710c",
      "assetIds": [
        "55464657044963196816950587289035428064568320970692304673817341489687757334528",
        "55464657044963196816950587289035428064568320970692304673817341489687757334529",
        "55464657044963196816950587289035428064568320970692304673817341489687757334530",
        "55464657044963196816950587289035428064568320970692304673817341489687757334531",
        "55464657044963196816950587289035428064568320970692304673817341489687757334532"
      ]
    },
    {
      "x": 150,
      "y": 396,
      "size": 1,
      "price": "4683000000000000000000",
      "reserved": "",
      "salt": "0xcc2148847292f56db510fd7a19b83de96330c9eb6a0a8d3be4523a9e647072aa",
      "assetIds": [
        "55464657044963196816950587289035428064568320970692304673817341489687757334528",
        "55464657044963196816950587289035428064568320970692304673817341489687757334529",
        "55464657044963196816950587289035428064568320970692304673817341489687757334530",
        "55464657044963196816950587289035428064568320970692304673817341489687757334531",
        "55464657044963196816950587289035428064568320970692304673817341489687757334532"
      ]
    },
    {
      "x": 150,
      "y": 397,
      "size": 1,
      "price": "1011000000000000000000",
      "reserved": "",
      "salt": "0x7c88853814d44b3d08cfaee335e2ad74ef16d4ca78d73bc056918f0d87b0e6c2",
      "assetIds": []
    },
    {
      "x": 150,
      "y": 398,
      "size": 1,
      "price": "1011000000000000000000",
      "reserved": "0x7a9fe22691c811ea339d9b73150e6911a5343dca",
      "salt": "0xd945a51f6c2ba8064db74d9d944517ae939ad7f1612f1918c01b122747922ea3",
      "assetIds": []
    },
    {
      "x": 150,
      "y": 399,
      "size": 1,
      "price": "1011000000000000000000",
      "reserved": "",
      "salt": "0xce0faf0b005f4429ec63732c075fe2f7c61406f9b7b4dcd8f409052b0469f965",
      "assetIds": []
    },
    {
      "x": 150,
      "y": 400,
      "size": 1,
      "price": "1011000000000000000000",
      "reserved": "",
      "salt": "0x6febaded2962dc79fdd0f76ed7a298bc0a48dc1296b866677a7073af4b964afd",
      "assetIds": []
    },
    {
      "x": 150,
      "y": 401,
      "size": 1,
      "price": "1011000000000000000000",
      "reserved": "",
      "salt": "0x827e328f3e509190ab145317919c2e046942a28ca7c028701f866aeccd61c42f",
      "assetIds": []
    },
    {
      "x": 150,
      "y": 402,
      "size": 1,
      "price": "1011000000000000000000",
      "reserved": "",
      "salt": "0xaef5eed7cfb6baf48371d3436ab261776cf510546e9ab6ce7de04bf197b7b3b6",
      "assetIds": []
    },
    {
      "x": 150,
      "y": 403,
      "size": 1,
      "price": "1011000000000000000000",
      "reserved": "0x7a9fe22691c811ea339d9b73150e6911a5343dca",
      "salt": "0xb0be839a13590e39a38d706efdf05d08cab70bcd3f4bad090fe3a521dc69d03d",
      "assetIds": []
    },
    {
      "x": 150,
      "y": 404,
      "size": 1,
      "price": "1011000000000000000000",
      "reserved": "",
      "salt": "0x26c042c1e2506b4d365167ae5a954bcde6f5a7c439a564ed1aa085b410d21c88",
      "assetIds": []
    },
    {
      "x": 150,
      "y": 405,
      "size": 1,
      "price": "1011000000000000000000",
      "reserved": "",
      "salt": "0x25c4dc50241c3db5a9c4bee97ac39075c30a67c9c1faa6b87e737ca5cd63095d",
      "assetIds": []
    },
    {
      "x": 150,
      "y": 406,
      "size": 1,
      "price": "1011000000000000000000",
      "reserved": "",
      "salt": "0xcf7c21a350942028e0ffbaeeaa9366018efb2e454bb53df888151ac7ffdf529a",
      "assetIds": []
    },
    {
      "x": 150,
      "y": 407,
      "size": 1,
      "price": "1011000000000000000000",
      "reserved": "",
      "salt": "0x18b0cb8c61fff45a010e7b20a0c76c1ca00881d0f212ecbdb188479999043ab5",
      "assetIds": []
    },
    {
      "x": 151,
      "y": 353,
      "size": 1,
      "price": "1011000000000000000000",
      "reserved": "0x7a9fe22691c811ea339d9b73150e6911a5343dca",
      "salt": "0x3b0a0d00e3804202efc8032c97492c35afc93e963bf97ff2c82b8982fcb94cc3",
      "assetIds": []
    },
    {
      "x": 151,
      "y": 354,
      "size": 1,
      "price": "4683000000000000000000",
      "reserved": "",
      "salt": "0x3f7cdb214e4a8d12377f2207d6744c115d99b1270c7f0cdb9cb96720105916de",
      "assetIds": [
        "55464657044963196816950587289035428064568320970692304673817341489687757334528",
        "55464657044963196816950587289035428064568320970692304673817341489687757334529",
        "55464657044963196816950587289035428064568320970692304673817341489687757334530",
        "55464657044963196816950587289035428064568320970692304673817341489687757334531",
        "55464657044963196816950587289035428064568320970692304673817341489687757334532"
      ]
    },
    {
      "x": 151,
      "y": 355,
      "size": 1,
      "price": "1011000000000000000000",
      "reserved": "0x7a9fe22691c811ea339d9b73150e6911a5343dca",
      "salt": "0x97296d8b9801f29dd9ad393fc9d82d4734bde5958b2e43a79efb63ee51d1649b",
      "assetIds": []
    },
    {
      "x": 151,
      "y": 356,
      "size": 1,
      "price": "4683000000000000000000",
      "reserved": "",
      "salt": "0xea2302c5c024dd5ef346d75b6990900644fe1cb199392812cc58bf94a7c471d3",
      "assetIds": [
        "55464657044963196816950587289035428064568320970692304673817341489687757334528",
        "55464657044963196816950587289035428064568320970692304673817341489687757334529",
        "55464657044963196816950587289035428064568320970692304673817341489687757334530",
        "55464657044963196816950587289035428064568320970692304673817341489687757334531",
        "55464657044963196816950587289035428064568320970692304673817341489687757334532"
      ]
    },
    {
      "x": 151,
      "y": 363,
      "size": 1,
      "price": "4683000000000000000000",
      "reserved": "",
      "salt": "0xa01732fd1be504243b1651946a704dbeb8d5d08b0451d5e0369a18efe278a01d",
      "assetIds": [
        "55464657044963196816950587289035428064568320970692304673817341489687757334528",
        "55464657044963196816950587289035428064568320970692304673817341489687757334529",
        "55464657044963196816950587289035428064568320970692304673817341489687757334530",
        "55464657044963196816950587289035428064568320970692304673817341489687757334531",
        "55464657044963196816950587289035428064568320970692304673817341489687757334532"
      ]
    },
    {
      "x": 151,
      "y": 364,
      "size": 1,
      "price": "1011000000000000000000",
      "reserved": "0x7a9fe22691c811ea339d9b73150e6911a5343dca",
      "salt": "0x7cbd1b799dd106782092e4a87329e4b754f1d154c297ae7449495937f740e0d1",
      "assetIds": []
    },
    {
      "x": 151,
      "y": 365,
      "size": 1,
      "price": "4683000000000000000000",
      "reserved": "",
      "salt": "0xab776025b4f8a96db9ea08ef44f78097468995a8f0ce29c7f771a61a63186672",
      "assetIds": [
        "55464657044963196816950587289035428064568320970692304673817341489687757334528",
        "55464657044963196816950587289035428064568320970692304673817341489687757334529",
        "55464657044963196816950587289035428064568320970692304673817341489687757334530",
        "55464657044963196816950587289035428064568320970692304673817341489687757334531",
        "55464657044963196816950587289035428064568320970692304673817341489687757334532"
      ]
    },
    {
      "x": 151,
      "y": 372,
      "size": 1,
      "price": "4683000000000000000000",
      "reserved": "",
      "salt": "0x3a5864170b3f90c327d5f425234eb73926696a494a06498e7cb62481869d18dd",
      "assetIds": [
        "55464657044963196816950587289035428064568320970692304673817341489687757334528",
        "55464657044963196816950587289035428064568320970692304673817341489687757334529",
        "55464657044963196816950587289035428064568320970692304673817341489687757334530",
        "55464657044963196816950587289035428064568320970692304673817341489687757334531",
        "55464657044963196816950587289035428064568320970692304673817341489687757334532"
      ]
    },
    {
      "x": 151,
      "y": 373,
      "size": 1,
      "price": "1011000000000000000000",
      "reserved": "0x7a9fe22691c811ea339d9b73150e6911a5343dca",
      "salt": "0xa09b5002b86eb4a825f7e0f9fa5ded62f2036c3264ec49f591b8353566b2573c",
      "assetIds": []
    },
    {
      "x": 151,
      "y": 374,
      "size": 1,
      "price": "1011000000000000000000",
      "reserved": "",
      "salt": "0x48cfb3cdec469e2704bb8393f752683393cd7fe247b82058edf87c9b99bb8c12",
      "assetIds": []
    },
    {
      "x": 151,
      "y": 384,
      "size": 1,
      "price": "1011000000000000000000",
      "reserved": "",
      "salt": "0x13075e88188be2e857f980fe2459cda6f37a8ed5a71bf0823cd52a1d616e0c05",
      "assetIds": []
    },
    {
      "x": 151,
      "y": 385,
      "size": 1,
      "price": "1011000000000000000000",
      "reserved": "",
      "salt": "0x31ee70f918419ffcd441032cb4c5cbb670e682febaf6a387604e04b9440e9a0e",
      "assetIds": []
    },
    {
      "x": 151,
      "y": 386,
      "size": 1,
      "price": "1011000000000000000000",
      "reserved": "",
      "salt": "0xec333945ae652b7aa2688bdfba478308bd02fc9ecb14889ad3274d4226906616",
      "assetIds": []
    },
    {
      "x": 151,
      "y": 387,
      "size": 1,
      "price": "1011000000000000000000",
      "reserved": "",
      "salt": "0x84ac11ce3c178464e60eab9d026c83a775d531b6a06bf8e8309460878f5eaf19",
      "assetIds": []
    },
    {
      "x": 151,
      "y": 388,
      "size": 1,
      "price": "1011000000000000000000",
      "reserved": "0x7a9fe22691c811ea339d9b73150e6911a5343dca",
      "salt": "0x85d4d2b3ee517124b7cf02a3b9d11802db1c5c8fa4b45f2a5f721807dfb3d55f",
      "assetIds": []
    },
    {
      "x": 151,
      "y": 389,
      "size": 1,
      "price": "4683000000000000000000",
      "reserved": "",
      "salt": "0x784d1dc7db777dd7b5d5b31582f34fa5d53270263a38f826b36b720cc12c4336",
      "assetIds": [
        "55464657044963196816950587289035428064568320970692304673817341489687757334528",
        "55464657044963196816950587289035428064568320970692304673817341489687757334529",
        "55464657044963196816950587289035428064568320970692304673817341489687757334530",
        "55464657044963196816950587289035428064568320970692304673817341489687757334531",
        "55464657044963196816950587289035428064568320970692304673817341489687757334532"
      ]
    },
    {
      "x": 151,
      "y": 396,
      "size": 1,
      "price": "4683000000000000000000",
      "reserved": "",
      "salt": "0xd7abbe68630450d8499d46e25d4b413eefb45027e079d2648dd3b5df857346cc",
      "assetIds": [
        "55464657044963196816950587289035428064568320970692304673817341489687757334528",
        "55464657044963196816950587289035428064568320970692304673817341489687757334529",
        "55464657044963196816950587289035428064568320970692304673817341489687757334530",
        "55464657044963196816950587289035428064568320970692304673817341489687757334531",
        "55464657044963196816950587289035428064568320970692304673817341489687757334532"
      ]
    },
    {
      "x": 151,
      "y": 397,
      "size": 1,
      "price": "1011000000000000000000",
      "reserved": "0x7a9fe22691c811ea339d9b73150e6911a5343dca",
      "salt": "0x4f82c61bab83531503920353b051bf39c1aeeb838007233cc0481a65f1bcefa6",
      "assetIds": []
    },
    {
      "x": 151,
      "y": 398,
      "size": 1,
      "price": "1011000000000000000000",
      "reserved": "",
      "salt": "0xb02453a0c47b32cf3e5e1ed2c3c080b57df317c452fc10270f33f3dd989a3121",
      "assetIds": []
    },
    {
      "x": 151,
      "y": 399,
      "size": 1,
      "price": "1011000000000000000000",
      "reserved": "",
      "salt": "0xd146135e0067c940ec06b82753af586f868d659915a599cd265e3470542b683f",
      "assetIds": []
    },
    {
      "x": 151,
      "y": 400,
      "size": 1,
      "price": "1011000000000000000000",
      "reserved": "",
      "salt": "0x10963bbb32bd4f4544e899e4f0eb0ffdef9633a57cdb47bf2eb5eca24668d562",
      "assetIds": []
    },
    {
      "x": 151,
      "y": 401,
      "size": 1,
      "price": "1011000000000000000000",
      "reserved": "",
      "salt": "0x072449769adea6f62263ed740028090446dc0d704e7d9b2158793088d2b069aa",
      "assetIds": []
    },
    {
      "x": 151,
      "y": 402,
      "size": 1,
      "price": "1011000000000000000000",
      "reserved": "0x7a9fe22691c811ea339d9b73150e6911a5343dca",
      "salt": "0x31b1fc64223ea40b996032f14cd6e04b4f9382d46fd04d3ea8e6677c7a203d21",
      "assetIds": []
    },
    {
      "x": 151,
      "y": 403,
      "size": 1,
      "price": "1011000000000000000000",
      "reserved": "",
      "salt": "0xd7b928590374209ea8675c33d45a589832c5504868cff78c6c3b5a05c4227a46",
      "assetIds": []
    },
    {
      "x": 151,
      "y": 404,
      "size": 1,
      "price": "1011000000000000000000",
      "reserved": "",
      "salt": "0xa68543349a45e30c0866a97d37ca806154cc857e00eb441264617cc5c8085b15",
      "assetIds": []
    },
    {
      "x": 151,
      "y": 405,
      "size": 1,
      "price": "1011000000000000000000",
      "reserved": "",
      "salt": "0xfe9bcf4f9b0fd7adc1be1d8e24b759b7000d4daf373f8022dd6ef4ac735e09f6",
      "assetIds": []
    },
    {
      "x": 151,
      "y": 406,
      "size": 1,
      "price": "1011000000000000000000",
      "reserved": "",
      "salt": "0x66e0ec8d4ed136cde84367892c127899a51fcc796b2163b89926375075a96393",
      "assetIds": []
    },
    {
      "x": 151,
      "y": 407,
      "size": 1,
      "price": "1011000000000000000000",
      "reserved": "0x7a9fe22691c811ea339d9b73150e6911a5343dca",
      "salt": "0xdbf514f4b2d611d760feb18e650af3f90a0213527460941c24935c0f2bef00d2",
      "assetIds": []
    },
    {
      "x": 152,
      "y": 353,
      "size": 1,
      "price": "1011000000000000000000",
      "reserved": "",
      "salt": "0x9e0f0f2b1c850aa8a94af6444b937a8243dcd30e22abd866c155f610a59e0da0",
      "assetIds": []
    },
    {
      "x": 152,
      "y": 354,
      "size": 1,
      "price": "4683000000000000000000",
      "reserved": "",
      "salt": "0x89bb4f7927b5160a139a2ad5fdd4fa147e9a06103422a404598aebacb38a3425",
      "assetIds": [
        "55464657044963196816950587289035428064568320970692304673817341489687757334528",
        "55464657044963196816950587289035428064568320970692304673817341489687757334529",
        "55464657044963196816950587289035428064568320970692304673817341489687757334530",
        "55464657044963196816950587289035428064568320970692304673817341489687757334531",
        "55464657044963196816950587289035428064568320970692304673817341489687757334532"
      ]
    },
    {
      "x": 152,
      "y": 355,
      "size": 1,
      "price": "1011000000000000000000",
      "reserved": "",
      "salt": "0x5ddac77113caacac0ad716b0b23faa8f682da38ed892f14efa515fb4b6e0c99e",
      "assetIds": []
    },
    {
      "x": 152,
      "y": 356,
      "size": 1,
      "price": "4683000000000000000000",
      "reserved": "",
      "salt": "0x76774950b721756ac85f9ccc05bbc2bc11e20d815627f3dac7c42abde5ac676e",
      "assetIds": [
        "55464657044963196816950587289035428064568320970692304673817341489687757334528",
        "55464657044963196816950587289035428064568320970692304673817341489687757334529",
        "55464657044963196816950587289035428064568320970692304673817341489687757334530",
        "55464657044963196816950587289035428064568320970692304673817341489687757334531",
        "55464657044963196816950587289035428064568320970692304673817341489687757334532"
      ]
    },
    {
      "x": 152,
      "y": 363,
      "size": 1,
      "price": "4683000000000000000000",
      "reserved": "",
      "salt": "0x969356d3c0fc5298da663605424fb44e2fc8fb915235b9440d86fb975f30088c",
      "assetIds": [
        "55464657044963196816950587289035428064568320970692304673817341489687757334528",
        "55464657044963196816950587289035428064568320970692304673817341489687757334529",
        "55464657044963196816950587289035428064568320970692304673817341489687757334530",
        "55464657044963196816950587289035428064568320970692304673817341489687757334531",
        "55464657044963196816950587289035428064568320970692304673817341489687757334532"
      ]
    },
    {
      "x": 152,
      "y": 364,
      "size": 1,
      "price": "4683000000000000000000",
      "reserved": "",
      "salt": "0xa4f5574f45ccdc1097a4f579916340b1928d0cf78b5aea92aadf3bff781e6e3c",
      "assetIds": [
        "55464657044963196816950587289035428064568320970692304673817341489687757334528",
        "55464657044963196816950587289035428064568320970692304673817341489687757334529",
        "55464657044963196816950587289035428064568320970692304673817341489687757334530",
        "55464657044963196816950587289035428064568320970692304673817341489687757334531",
        "55464657044963196816950587289035428064568320970692304673817341489687757334532"
      ]
    },
    {
      "x": 152,
      "y": 365,
      "size": 1,
      "price": "4683000000000000000000",
      "reserved": "",
      "salt": "0xad4cd734ef6fc9be01a5c04d3520b42cab1266c26f14b4ada81499a08f63d07b",
      "assetIds": [
        "55464657044963196816950587289035428064568320970692304673817341489687757334528",
        "55464657044963196816950587289035428064568320970692304673817341489687757334529",
        "55464657044963196816950587289035428064568320970692304673817341489687757334530",
        "55464657044963196816950587289035428064568320970692304673817341489687757334531",
        "55464657044963196816950587289035428064568320970692304673817341489687757334532"
      ]
    },
    {
      "x": 152,
      "y": 372,
      "size": 1,
      "price": "4683000000000000000000",
      "reserved": "",
      "salt": "0x4b6feef32536a67218100314f0f7213a88dfe3a5c5c736732d701e87b5e438ee",
      "assetIds": [
        "55464657044963196816950587289035428064568320970692304673817341489687757334528",
        "55464657044963196816950587289035428064568320970692304673817341489687757334529",
        "55464657044963196816950587289035428064568320970692304673817341489687757334530",
        "55464657044963196816950587289035428064568320970692304673817341489687757334531",
        "55464657044963196816950587289035428064568320970692304673817341489687757334532"
      ]
    },
    {
      "x": 152,
      "y": 373,
      "size": 1,
      "price": "1011000000000000000000",
      "reserved": "0x7a9fe22691c811ea339d9b73150e6911a5343dca",
      "salt": "0x5dfcf5db21c879a12c4f52e0bb5d5d86a902617840125f3112add3c0900523c1",
      "assetIds": []
    },
    {
      "x": 152,
      "y": 374,
      "size": 1,
      "price": "1011000000000000000000",
      "reserved": "",
      "salt": "0x9474ea978a5912b052ebf12ff21638eab0b51c0a7c5466af22ed83109710dd6d",
      "assetIds": []
    },
    {
      "x": 152,
      "y": 384,
      "size": 1,
      "price": "1011000000000000000000",
      "reserved": "",
      "salt": "0xb179f35506a6312a02c1d309a14a7791739b1a6f4d1163fcc654be91b07829eb",
      "assetIds": []
    },
    {
      "x": 152,
      "y": 385,
      "size": 1,
      "price": "1011000000000000000000",
      "reserved": "",
      "salt": "0xe3c28c21ff1572a3fe96cb476c640712937646ac1af42a92cc1b548108d618e6",
      "assetIds": []
    },
    {
      "x": 152,
      "y": 386,
      "size": 1,
      "price": "1011000000000000000000",
      "reserved": "",
      "salt": "0xbc8f8e2162f4851105322b212e68449cd84046142d8b409c25a1bc9997023c0a",
      "assetIds": []
    },
    {
      "x": 152,
      "y": 387,
      "size": 1,
      "price": "1011000000000000000000",
      "reserved": "",
      "salt": "0x01c5614e127f765304bf93fc4a134bb0919942d0ac1b75e4627d492b97607e84",
      "assetIds": []
    },
    {
      "x": 152,
      "y": 388,
      "size": 1,
      "price": "1011000000000000000000",
      "reserved": "",
      "salt": "0x2555b410108d240360720c342118323ec54a2370d55894ba59203e37c1c19506",
      "assetIds": []
    },
    {
      "x": 152,
      "y": 389,
      "size": 1,
      "price": "4683000000000000000000",
      "reserved": "",
      "salt": "0x219370fb9ac21da6bdc2795406206e708b11518a8c9ac44e5fd61a1c51a91f26",
      "assetIds": [
        "55464657044963196816950587289035428064568320970692304673817341489687757334528",
        "55464657044963196816950587289035428064568320970692304673817341489687757334529",
        "55464657044963196816950587289035428064568320970692304673817341489687757334530",
        "55464657044963196816950587289035428064568320970692304673817341489687757334531",
        "55464657044963196816950587289035428064568320970692304673817341489687757334532"
      ]
    },
    {
      "x": 152,
      "y": 396,
      "size": 1,
      "price": "4683000000000000000000",
      "reserved": "",
      "salt": "0xd1d2fb3abbfeaf27da60765bbf97127fe81b534b0359642ebc7bde0380cca52d",
      "assetIds": [
        "55464657044963196816950587289035428064568320970692304673817341489687757334528",
        "55464657044963196816950587289035428064568320970692304673817341489687757334529",
        "55464657044963196816950587289035428064568320970692304673817341489687757334530",
        "55464657044963196816950587289035428064568320970692304673817341489687757334531",
        "55464657044963196816950587289035428064568320970692304673817341489687757334532"
      ]
    },
    {
      "x": 152,
      "y": 397,
      "size": 1,
      "price": "1011000000000000000000",
      "reserved": "0x7a9fe22691c811ea339d9b73150e6911a5343dca",
      "salt": "0xf514abe2dadd57a32423aae26cd3247fbd68a5556407e56f14b9f273d2a47a3c",
      "assetIds": []
    },
    {
      "x": 152,
      "y": 398,
      "size": 1,
      "price": "1011000000000000000000",
      "reserved": "0x7a9fe22691c811ea339d9b73150e6911a5343dca",
      "salt": "0x16f31c5ac5f7753f40e823be56ad687a4ee451d7d874668092399173c0a8fda8",
      "assetIds": []
    },
    {
      "x": 152,
      "y": 399,
      "size": 1,
      "price": "1011000000000000000000",
      "reserved": "",
      "salt": "0x2df0e2e5dfc86c7a409fa9d5bf6f553aea38e2e2fe11ae56219a92a6a2220b59",
      "assetIds": []
    },
    {
      "x": 152,
      "y": 400,
      "size": 1,
      "price": "1011000000000000000000",
      "reserved": "",
      "salt": "0x024f9cbd8c7cb221e7fe5a6c267ecfcc7bd1e8cd0bcee701b6378008239e3ae3",
      "assetIds": []
    },
    {
      "x": 152,
      "y": 401,
      "size": 1,
      "price": "1011000000000000000000",
      "reserved": "",
      "salt": "0xa080163541eeef97dd481bba90058d32751a3cff0f7a50cf375b0d5f9d177339",
      "assetIds": []
    },
    {
      "x": 152,
      "y": 402,
      "size": 1,
      "price": "1011000000000000000000",
      "reserved": "",
      "salt": "0x295e7810f7eeabbc1debb4445215a117c4d43bf7598c59dc711ec570bfb6b673",
      "assetIds": []
    },
    {
      "x": 152,
      "y": 403,
      "size": 1,
      "price": "1011000000000000000000",
      "reserved": "",
      "salt": "0x9195ad376a957fac6d74648ad30da1794e933c21c16e0cfc5eda385c5f59acf3",
      "assetIds": []
    },
    {
      "x": 152,
      "y": 404,
      "size": 1,
      "price": "1011000000000000000000",
      "reserved": "0x7a9fe22691c811ea339d9b73150e6911a5343dca",
      "salt": "0x6eace1d3d3f421df292804dae4cbeb3b65b736fcd7f136c3e604870789b54abd",
      "assetIds": []
    },
    {
      "x": 152,
      "y": 405,
      "size": 1,
      "price": "1011000000000000000000",
      "reserved": "",
      "salt": "0x7ea703da5bd009028436e48e9d6a441be4ef56ac4e28bb0b2b47237ff1697ae5",
      "assetIds": []
    },
    {
      "x": 152,
      "y": 406,
      "size": 1,
      "price": "1011000000000000000000",
      "reserved": "",
      "salt": "0x2a5fa0cb37758d73ef67d3a4e58c94fe12c6aee3e6d602f8f7dfde89697c5ef0",
      "assetIds": []
    },
    {
      "x": 152,
      "y": 407,
      "size": 1,
      "price": "1011000000000000000000",
      "reserved": "",
      "salt": "0x9880ce32fe3416cc6840131f5ac07ae915c93e20b916db34091f23556276f306",
      "assetIds": []
    },
    {
      "x": 153,
      "y": 353,
      "size": 1,
      "price": "1011000000000000000000",
      "reserved": "",
      "salt": "0xcfd9b9b69a084126b38ac6c6a1c5f3f3dc1a09b24c6bed6d528ef106b1527604",
      "assetIds": []
    },
    {
      "x": 153,
      "y": 354,
      "size": 1,
      "price": "4683000000000000000000",
      "reserved": "",
      "salt": "0xc81b33f31f811ee042cc104a9bf8a724a30222bf7d66fae5df346c3efb11789f",
      "assetIds": [
        "55464657044963196816950587289035428064568320970692304673817341489687757334528",
        "55464657044963196816950587289035428064568320970692304673817341489687757334529",
        "55464657044963196816950587289035428064568320970692304673817341489687757334530",
        "55464657044963196816950587289035428064568320970692304673817341489687757334531",
        "55464657044963196816950587289035428064568320970692304673817341489687757334532"
      ]
    },
    {
      "x": 153,
      "y": 355,
      "size": 1,
      "price": "1011000000000000000000",
      "reserved": "0x7a9fe22691c811ea339d9b73150e6911a5343dca",
      "salt": "0x31e347d2c357546f9a62c4ceca26bbdf435c767f7574ba73d6ad0bce80b6d31a",
      "assetIds": []
    },
    {
      "x": 153,
      "y": 356,
      "size": 1,
      "price": "4683000000000000000000",
      "reserved": "",
      "salt": "0x2540ef8e4a9afc6f28d41c50dd952b3e7349d40f63bb7e4f63bbfbcaf98565d5",
      "assetIds": [
        "55464657044963196816950587289035428064568320970692304673817341489687757334528",
        "55464657044963196816950587289035428064568320970692304673817341489687757334529",
        "55464657044963196816950587289035428064568320970692304673817341489687757334530",
        "55464657044963196816950587289035428064568320970692304673817341489687757334531",
        "55464657044963196816950587289035428064568320970692304673817341489687757334532"
      ]
    },
    {
      "x": 153,
      "y": 363,
      "size": 1,
      "price": "4683000000000000000000",
      "reserved": "",
      "salt": "0xe70da93abd3f67ee6d6640da0c6e955da78a4e4b35f6d3da3972e4460bb9a828",
      "assetIds": [
        "55464657044963196816950587289035428064568320970692304673817341489687757334528",
        "55464657044963196816950587289035428064568320970692304673817341489687757334529",
        "55464657044963196816950587289035428064568320970692304673817341489687757334530",
        "55464657044963196816950587289035428064568320970692304673817341489687757334531",
        "55464657044963196816950587289035428064568320970692304673817341489687757334532"
      ]
    },
    {
      "x": 153,
      "y": 364,
      "size": 1,
      "price": "4683000000000000000000",
      "reserved": "",
      "salt": "0x921f2e951321e91cc3f028026c5ab51d182c34e1e955404a65405a69258a3c26",
      "assetIds": [
        "55464657044963196816950587289035428064568320970692304673817341489687757334528",
        "55464657044963196816950587289035428064568320970692304673817341489687757334529",
        "55464657044963196816950587289035428064568320970692304673817341489687757334530",
        "55464657044963196816950587289035428064568320970692304673817341489687757334531",
        "55464657044963196816950587289035428064568320970692304673817341489687757334532"
      ]
    },
    {
      "x": 153,
      "y": 365,
      "size": 1,
      "price": "4683000000000000000000",
      "reserved": "",
      "salt": "0xd42a1fe3839e46690722916e5f614ceb13bd97984bb7373925cea7f9e22b32f7",
      "assetIds": [
        "55464657044963196816950587289035428064568320970692304673817341489687757334528",
        "55464657044963196816950587289035428064568320970692304673817341489687757334529",
        "55464657044963196816950587289035428064568320970692304673817341489687757334530",
        "55464657044963196816950587289035428064568320970692304673817341489687757334531",
        "55464657044963196816950587289035428064568320970692304673817341489687757334532"
      ]
    },
    {
      "x": 153,
      "y": 372,
      "size": 1,
      "price": "4683000000000000000000",
      "reserved": "",
      "salt": "0x0683bdb25bbe4b964a552b11512a77869a3fb39cfc6203b1dd556d14032fc511",
      "assetIds": [
        "55464657044963196816950587289035428064568320970692304673817341489687757334528",
        "55464657044963196816950587289035428064568320970692304673817341489687757334529",
        "55464657044963196816950587289035428064568320970692304673817341489687757334530",
        "55464657044963196816950587289035428064568320970692304673817341489687757334531",
        "55464657044963196816950587289035428064568320970692304673817341489687757334532"
      ]
    },
    {
      "x": 153,
      "y": 373,
      "size": 1,
      "price": "1011000000000000000000",
      "reserved": "",
      "salt": "0x785f40a77b228557ab91dab150e8c364e9ad83462f1e38cad8f2b7622d8cda6c",
      "assetIds": []
    },
    {
      "x": 153,
      "y": 374,
      "size": 1,
      "price": "1011000000000000000000",
      "reserved": "0x7a9fe22691c811ea339d9b73150e6911a5343dca",
      "salt": "0x258ce2d35e3638bddfbff6ce767b3c1d6959bdf54d2fb9b1b9fcfaa588f39f9f",
      "assetIds": []
    },
    {
      "x": 153,
      "y": 375,
      "size": 1,
      "price": "1011000000000000000000",
      "reserved": "0x7a9fe22691c811ea339d9b73150e6911a5343dca",
      "salt": "0x1eb5dca76271a88062ce601206dcda06387dacb8ae576679d8e2c16f48d96789",
      "assetIds": []
    },
    {
      "x": 153,
      "y": 376,
      "size": 1,
      "price": "1011000000000000000000",
      "reserved": "0x7a9fe22691c811ea339d9b73150e6911a5343dca",
      "salt": "0xe7f45ec9cf721acddf287b1ed9164d90a27be34c3be36f8500fc31901152905f",
      "assetIds": []
    },
    {
      "x": 153,
      "y": 377,
      "size": 1,
      "price": "1011000000000000000000",
      "reserved": "",
      "salt": "0x6186daabd2c2709f93bcfbf71a3d8d7cc9d8ea1e229281910bf357b3cc9127e5",
      "assetIds": []
    },
    {
      "x": 153,
      "y": 384,
      "size": 1,
      "price": "1011000000000000000000",
      "reserved": "",
      "salt": "0xf6b9cb59f4e4778acd6ddf9824ed9f7adfeffc08057709a77f700c63b88257a1",
      "assetIds": []
    },
    {
      "x": 153,
      "y": 385,
      "size": 1,
      "price": "1011000000000000000000",
      "reserved": "",
      "salt": "0x9a9047599a8ef3b287d920752e6f58b08f06f647b9bdb943c55b8487c0d5cd82",
      "assetIds": []
    },
    {
      "x": 153,
      "y": 386,
      "size": 1,
      "price": "1011000000000000000000",
      "reserved": "0x7a9fe22691c811ea339d9b73150e6911a5343dca",
      "salt": "0x8a8930a89416f1ea6ef262aaac5df900df038f29a6b09d495785d830d1ceb218",
      "assetIds": []
    },
    {
      "x": 153,
      "y": 387,
      "size": 1,
      "price": "1011000000000000000000",
      "reserved": "",
      "salt": "0x786c8d93889ffada3188a304d13eec6586f22a77f3d8e9a29c69b97b0b3b0e8f",
      "assetIds": []
    },
    {
      "x": 153,
      "y": 388,
      "size": 1,
      "price": "1011000000000000000000",
      "reserved": "",
      "salt": "0x14f6bc5a8c9c863c3b1f13b3b76574634a278c219ef185c0bb860ab3f552ed7d",
      "assetIds": []
    },
    {
      "x": 153,
      "y": 389,
      "size": 1,
      "price": "4683000000000000000000",
      "reserved": "",
      "salt": "0x72b3ae3209d044d3ecb72f8ef548689265ff6206e1894260bcf43edc5d018175",
      "assetIds": [
        "55464657044963196816950587289035428064568320970692304673817341489687757334528",
        "55464657044963196816950587289035428064568320970692304673817341489687757334529",
        "55464657044963196816950587289035428064568320970692304673817341489687757334530",
        "55464657044963196816950587289035428064568320970692304673817341489687757334531",
        "55464657044963196816950587289035428064568320970692304673817341489687757334532"
      ]
    },
    {
      "x": 153,
      "y": 396,
      "size": 1,
      "price": "4683000000000000000000",
      "reserved": "",
      "salt": "0x03573700fc040b47e5561eb2c2c085d0ec4d7053f115b737a3981d6243c2fab7",
      "assetIds": [
        "55464657044963196816950587289035428064568320970692304673817341489687757334528",
        "55464657044963196816950587289035428064568320970692304673817341489687757334529",
        "55464657044963196816950587289035428064568320970692304673817341489687757334530",
        "55464657044963196816950587289035428064568320970692304673817341489687757334531",
        "55464657044963196816950587289035428064568320970692304673817341489687757334532"
      ]
    },
    {
      "x": 153,
      "y": 397,
      "size": 1,
      "price": "1011000000000000000000",
      "reserved": "",
      "salt": "0x6f10cc44df95ada7dda2d24a05dcc4c3ef6b60205a4b9b00af88de07ddc0ef66",
      "assetIds": []
    },
    {
      "x": 153,
      "y": 398,
      "size": 1,
      "price": "1011000000000000000000",
      "reserved": "",
      "salt": "0xad3197f604bb55a0ad67c1d7ef05cf95637b0f3bd8b1990e2ac3a3bb76f6190d",
      "assetIds": []
    },
    {
      "x": 153,
      "y": 399,
      "size": 1,
      "price": "1011000000000000000000",
      "reserved": "",
      "salt": "0xe88fd8d0f5f665c5e55ac7f08bed4b6cc5913b288fa930d1d120945683b28720",
      "assetIds": []
    },
    {
      "x": 153,
      "y": 400,
      "size": 1,
      "price": "1011000000000000000000",
      "reserved": "",
      "salt": "0x4f7b4d655250303a327db581ea44fd60248622115ebdb5ef0614178d733f4cf3",
      "assetIds": []
    },
    {
      "x": 153,
      "y": 401,
      "size": 1,
      "price": "1011000000000000000000",
      "reserved": "",
      "salt": "0xee4c2ad05471685c9e47e4ba18fc0cad1719e6f51314ec0ed0c84e2ba8b619f7",
      "assetIds": []
    },
    {
      "x": 153,
      "y": 402,
      "size": 1,
      "price": "1011000000000000000000",
      "reserved": "",
      "salt": "0x2d538c05b5f73815b1d699dda77e4bae1f486b746b06d303a1d7bc52a9d738fe",
      "assetIds": []
    },
    {
      "x": 153,
      "y": 403,
      "size": 1,
      "price": "1011000000000000000000",
      "reserved": "",
      "salt": "0x1970ca62a5e22b37daf5a621e54cf195bc7c9f815570b75437fcdd0321b24632",
      "assetIds": []
    },
    {
      "x": 153,
      "y": 404,
      "size": 1,
      "price": "1011000000000000000000",
      "reserved": "",
      "salt": "0x5890d31da876353f82b050628b18c89100d3ebbebf614485f06ef6850a0216b1",
      "assetIds": []
    },
    {
      "x": 153,
      "y": 405,
      "size": 1,
      "price": "1011000000000000000000",
      "reserved": "",
      "salt": "0xff1fb8b0c2691ba04ab96bf2687a0211efcad9f052dc266b7993500c5186f2c4",
      "assetIds": []
    },
    {
      "x": 153,
      "y": 406,
      "size": 1,
      "price": "1011000000000000000000",
      "reserved": "",
      "salt": "0x9528e1da204d541c9578473e6d38c35a160928acf5b0232ac185c3618a97b1b6",
      "assetIds": []
    },
    {
      "x": 153,
      "y": 407,
      "size": 1,
      "price": "1011000000000000000000",
      "reserved": "",
      "salt": "0x3897b751b1b89d3096e1b92600266177841c6aed8b221e1f2231607d4a474a6d",
      "assetIds": []
    },
    {
      "x": 154,
      "y": 353,
      "size": 1,
      "price": "1011000000000000000000",
      "reserved": "",
      "salt": "0x796ae64c5a91b6c25ec659538445b817b813669d95a25cb6f5d513c1605176fa",
      "assetIds": []
    },
    {
      "x": 154,
      "y": 354,
      "size": 1,
      "price": "4683000000000000000000",
      "reserved": "",
      "salt": "0x1791a68ad7f4b69c3359b1de3349c0668ba1874cc47bc8cd63fb591f269eedb9",
      "assetIds": [
        "55464657044963196816950587289035428064568320970692304673817341489687757334528",
        "55464657044963196816950587289035428064568320970692304673817341489687757334529",
        "55464657044963196816950587289035428064568320970692304673817341489687757334530",
        "55464657044963196816950587289035428064568320970692304673817341489687757334531",
        "55464657044963196816950587289035428064568320970692304673817341489687757334532"
      ]
    },
    {
      "x": 154,
      "y": 355,
      "size": 1,
      "price": "4683000000000000000000",
      "reserved": "",
      "salt": "0x2afeb57e0a382c00e83c8317972d1e8ce558a65bb8ac6a0153ab51a51a5a06a8",
      "assetIds": [
        "55464657044963196816950587289035428064568320970692304673817341489687757334528",
        "55464657044963196816950587289035428064568320970692304673817341489687757334529",
        "55464657044963196816950587289035428064568320970692304673817341489687757334530",
        "55464657044963196816950587289035428064568320970692304673817341489687757334531",
        "55464657044963196816950587289035428064568320970692304673817341489687757334532"
      ]
    },
    {
      "x": 154,
      "y": 356,
      "size": 1,
      "price": "4683000000000000000000",
      "reserved": "",
      "salt": "0xbaed81ee5c1d1b579352c0cccc1b3f472fbb1c63dde23a7eee72b94710fbef95",
      "assetIds": [
        "55464657044963196816950587289035428064568320970692304673817341489687757334528",
        "55464657044963196816950587289035428064568320970692304673817341489687757334529",
        "55464657044963196816950587289035428064568320970692304673817341489687757334530",
        "55464657044963196816950587289035428064568320970692304673817341489687757334531",
        "55464657044963196816950587289035428064568320970692304673817341489687757334532"
      ]
    },
    {
      "x": 154,
      "y": 363,
      "size": 1,
      "price": "4683000000000000000000",
      "reserved": "",
      "salt": "0x515793dbb01be885e607ed8d2505e03543fdf37748a13bbdff350926b6db0499",
      "assetIds": [
        "55464657044963196816950587289035428064568320970692304673817341489687757334528",
        "55464657044963196816950587289035428064568320970692304673817341489687757334529",
        "55464657044963196816950587289035428064568320970692304673817341489687757334530",
        "55464657044963196816950587289035428064568320970692304673817341489687757334531",
        "55464657044963196816950587289035428064568320970692304673817341489687757334532"
      ]
    },
    {
      "x": 154,
      "y": 364,
      "size": 1,
      "price": "1011000000000000000000",
      "reserved": "",
      "salt": "0x4757fbf139b0a9f3bc4e6e1c2b17bbf8f0906fdd3d3935985780b5d084345c41",
      "assetIds": []
    },
    {
      "x": 154,
      "y": 365,
      "size": 1,
      "price": "4683000000000000000000",
      "reserved": "",
      "salt": "0x3a61b8a317796422c3eb85713147a7a2a5860fd8d62c83f1a617f4effde55795",
      "assetIds": [
        "55464657044963196816950587289035428064568320970692304673817341489687757334528",
        "55464657044963196816950587289035428064568320970692304673817341489687757334529",
        "55464657044963196816950587289035428064568320970692304673817341489687757334530",
        "55464657044963196816950587289035428064568320970692304673817341489687757334531",
        "55464657044963196816950587289035428064568320970692304673817341489687757334532"
      ]
    },
    {
      "x": 154,
      "y": 372,
      "size": 1,
      "price": "4683000000000000000000",
      "reserved": "",
      "salt": "0xae816ec0df276acacf8fc38e92eba019831f84e2bab2e9a837c74fccda6a2abd",
      "assetIds": [
        "55464657044963196816950587289035428064568320970692304673817341489687757334528",
        "55464657044963196816950587289035428064568320970692304673817341489687757334529",
        "55464657044963196816950587289035428064568320970692304673817341489687757334530",
        "55464657044963196816950587289035428064568320970692304673817341489687757334531",
        "55464657044963196816950587289035428064568320970692304673817341489687757334532"
      ]
    },
    {
      "x": 154,
      "y": 373,
      "size": 1,
      "price": "1011000000000000000000",
      "reserved": "",
      "salt": "0x435bbab3f3a30b35b63f57c598ca8093903c1bc70275b39ebee280526b2efc3f",
      "assetIds": []
    },
    {
      "x": 154,
      "y": 374,
      "size": 1,
      "price": "1011000000000000000000",
      "reserved": "",
      "salt": "0xf9d5af78edc0b5caf833d3f740acd9309653abc032ef62cd20b56c44ddf8cb90",
      "assetIds": []
    },
    {
      "x": 154,
      "y": 375,
      "size": 1,
      "price": "1011000000000000000000",
      "reserved": "",
      "salt": "0xdc093d9462146274ee131893530b5444f8779c23be54597bfa559e0317000855",
      "assetIds": []
    },
    {
      "x": 154,
      "y": 376,
      "size": 1,
      "price": "1011000000000000000000",
      "reserved": "",
      "salt": "0x798f8201e221a1b8e0351c07a7ad0f27497aea5f695a2b19a107a372bcd65838",
      "assetIds": []
    },
    {
      "x": 154,
      "y": 377,
      "size": 1,
      "price": "1011000000000000000000",
      "reserved": "",
      "salt": "0x160cffc222bbcfd8abef5a7f216165f5211ad878bf3a2cb24932b7adb4607d67",
      "assetIds": []
    },
    {
      "x": 154,
      "y": 384,
      "size": 1,
      "price": "1011000000000000000000",
      "reserved": "0x7a9fe22691c811ea339d9b73150e6911a5343dca",
      "salt": "0x64677a29301189a0115f01ff4942f98f62abb80ac057b63d693824e09c7a2548",
      "assetIds": []
    },
    {
      "x": 154,
      "y": 385,
      "size": 1,
      "price": "1011000000000000000000",
      "reserved": "",
      "salt": "0x7e93b48e9a370bfb729841cfb7f93b72eae222bbd4cfb0bcb1f46f2910ad627d",
      "assetIds": []
    },
    {
      "x": 154,
      "y": 386,
      "size": 1,
      "price": "1011000000000000000000",
      "reserved": "",
      "salt": "0x8a9d9ba6e9ac0f3a5e91293f022d1f68c662b5d38bdc161677dd9364309e80a7",
      "assetIds": []
    },
    {
      "x": 154,
      "y": 387,
      "size": 1,
      "price": "1011000000000000000000",
      "reserved": "",
      "salt": "0xc11e305d5eff22399466ee8c6055b19aa5633472c84cddfb9330d4b370c6d125",
      "assetIds": []
    },
    {
      "x": 154,
      "y": 388,
      "size": 1,
      "price": "1011000000000000000000",
      "reserved": "",
      "salt": "0x571fc4b2cfe530c9b2a3bd9dbfe6eb6e646645edf868b4b1ac8b9fe1761afd0f",
      "assetIds": []
    },
    {
      "x": 154,
      "y": 389,
      "size": 1,
      "price": "4683000000000000000000",
      "reserved": "",
      "salt": "0x1d277e9c6739da77b904a66e30eec5f9ba4f2965ce7b725cb6b78f8bb8dc24b5",
      "assetIds": [
        "55464657044963196816950587289035428064568320970692304673817341489687757334528",
        "55464657044963196816950587289035428064568320970692304673817341489687757334529",
        "55464657044963196816950587289035428064568320970692304673817341489687757334530",
        "55464657044963196816950587289035428064568320970692304673817341489687757334531",
        "55464657044963196816950587289035428064568320970692304673817341489687757334532"
      ]
    },
    {
      "x": 154,
      "y": 396,
      "size": 1,
      "price": "4683000000000000000000",
      "reserved": "",
      "salt": "0xdfce8bd07cfb2554e614ec5d1f53a13eca5ddc14bbfdffc165c90c2c8b836381",
      "assetIds": [
        "55464657044963196816950587289035428064568320970692304673817341489687757334528",
        "55464657044963196816950587289035428064568320970692304673817341489687757334529",
        "55464657044963196816950587289035428064568320970692304673817341489687757334530",
        "55464657044963196816950587289035428064568320970692304673817341489687757334531",
        "55464657044963196816950587289035428064568320970692304673817341489687757334532"
      ]
    },
    {
      "x": 154,
      "y": 397,
      "size": 1,
      "price": "1011000000000000000000",
      "reserved": "0x7a9fe22691c811ea339d9b73150e6911a5343dca",
      "salt": "0xd5c55a8868cd5ed01d6965018e20e6455b99ee97dc90014e264ee0f6bb3aaf0a",
      "assetIds": []
    },
    {
      "x": 154,
      "y": 398,
      "size": 1,
      "price": "1011000000000000000000",
      "reserved": "",
      "salt": "0xbbe6d65bc7b4e8a1dabc90e2d24ed0a3f13e529b8da52170a2bedeafb7f720a5",
      "assetIds": []
    },
    {
      "x": 154,
      "y": 399,
      "size": 1,
      "price": "1011000000000000000000",
      "reserved": "",
      "salt": "0xb378ef5d733ca5930f71ed888495ef615072479e558f48855af4296b9603abec",
      "assetIds": []
    },
    {
      "x": 154,
      "y": 400,
      "size": 1,
      "price": "1011000000000000000000",
      "reserved": "0x7a9fe22691c811ea339d9b73150e6911a5343dca",
      "salt": "0x72c8f1fe89db0fb4a383b6ed2b41db3c7467f4e3c693d248ad1abc600eb9e566",
      "assetIds": []
    },
    {
      "x": 154,
      "y": 401,
      "size": 1,
      "price": "1011000000000000000000",
      "reserved": "",
      "salt": "0x7fc7c7b931183e1604a9f1950ae81e5a48391b138d7c7bce2f3c0cb3ab401671",
      "assetIds": []
    },
    {
      "x": 154,
      "y": 402,
      "size": 1,
      "price": "1011000000000000000000",
      "reserved": "",
      "salt": "0x6fb69a353c73603b4e5655ed2d71ba6257deb5e7030cd679e2f4b7a7699d343a",
      "assetIds": []
    },
    {
      "x": 154,
      "y": 403,
      "size": 1,
      "price": "1011000000000000000000",
      "reserved": "",
      "salt": "0xdc782d7d6fc1e6a73901f4b3dab70cb3aa37dc5d1cee23e659af827ed1b8ab54",
      "assetIds": []
    },
    {
      "x": 154,
      "y": 404,
      "size": 1,
      "price": "1011000000000000000000",
      "reserved": "",
      "salt": "0xc01e0a7a0c49fdc43be584a3101681ad7bccc35df5097bf394f266e0d7176b5d",
      "assetIds": []
    },
    {
      "x": 154,
      "y": 405,
      "size": 1,
      "price": "1011000000000000000000",
      "reserved": "0x7a9fe22691c811ea339d9b73150e6911a5343dca",
      "salt": "0x5108c8d9e6a637c97e5877d08c591519e8e465dadb72b522ecb7a6371b2bdafa",
      "assetIds": []
    },
    {
      "x": 154,
      "y": 406,
      "size": 1,
      "price": "1011000000000000000000",
      "reserved": "",
      "salt": "0xf91382c8b97f51a5ab3c73fd35bbf1d71af759ba681e70aa2df38e979573495f",
      "assetIds": []
    },
    {
      "x": 154,
      "y": 407,
      "size": 1,
      "price": "1011000000000000000000",
      "reserved": "",
      "salt": "0xf105f60b077282ac84c5dbcd8cbf069cf620707fbaa63debc41ecbdd764b9c62",
      "assetIds": []
    },
    {
      "x": 155,
      "y": 353,
      "size": 1,
      "price": "1011000000000000000000",
      "reserved": "",
      "salt": "0x4be1f78a11b124bf04318c594388d677ff8bdff2fe41fa4dcb9bf36872bf4748",
      "assetIds": []
    },
    {
      "x": 155,
      "y": 354,
      "size": 1,
      "price": "4683000000000000000000",
      "reserved": "",
      "salt": "0x6c8fd5754987133d2814f6845b6c9c9558605f9c861dcdcd64508685ea19061e",
      "assetIds": [
        "55464657044963196816950587289035428064568320970692304673817341489687757334528",
        "55464657044963196816950587289035428064568320970692304673817341489687757334529",
        "55464657044963196816950587289035428064568320970692304673817341489687757334530",
        "55464657044963196816950587289035428064568320970692304673817341489687757334531",
        "55464657044963196816950587289035428064568320970692304673817341489687757334532"
      ]
    },
    {
      "x": 155,
      "y": 355,
      "size": 1,
      "price": "1011000000000000000000",
      "reserved": "0x7a9fe22691c811ea339d9b73150e6911a5343dca",
      "salt": "0xaadcf0b35ee5bd8bb4f3b1dadf8827919b925030019e4c0b4628237828ee44d0",
      "assetIds": []
    },
    {
      "x": 155,
      "y": 356,
      "size": 1,
      "price": "4683000000000000000000",
      "reserved": "",
      "salt": "0x4aad7fc3c9021bfc66fc47d8e9856ce174301fd9b56221a37a6a3df13378ea10",
      "assetIds": [
        "55464657044963196816950587289035428064568320970692304673817341489687757334528",
        "55464657044963196816950587289035428064568320970692304673817341489687757334529",
        "55464657044963196816950587289035428064568320970692304673817341489687757334530",
        "55464657044963196816950587289035428064568320970692304673817341489687757334531",
        "55464657044963196816950587289035428064568320970692304673817341489687757334532"
      ]
    },
    {
      "x": 155,
      "y": 363,
      "size": 1,
      "price": "4683000000000000000000",
      "reserved": "",
      "salt": "0xe992aeb6bbd8f0c3454a973b807cd927a019fff83f51f188c6598815c60d3bb1",
      "assetIds": [
        "55464657044963196816950587289035428064568320970692304673817341489687757334528",
        "55464657044963196816950587289035428064568320970692304673817341489687757334529",
        "55464657044963196816950587289035428064568320970692304673817341489687757334530",
        "55464657044963196816950587289035428064568320970692304673817341489687757334531",
        "55464657044963196816950587289035428064568320970692304673817341489687757334532"
      ]
    },
    {
      "x": 155,
      "y": 364,
      "size": 1,
      "price": "1011000000000000000000",
      "reserved": "0x7a9fe22691c811ea339d9b73150e6911a5343dca",
      "salt": "0xa786b45f0d84abcc867f9fe5a8895379489ec8627bbbf6048934d72227f2534d",
      "assetIds": []
    },
    {
      "x": 155,
      "y": 365,
      "size": 1,
      "price": "1011000000000000000000",
      "reserved": "",
      "salt": "0xa1bf3b0cf0df64e60fc32704b83479135346865d4ee66b852c4fdb81b0e59312",
      "assetIds": []
    },
    {
      "x": 155,
      "y": 372,
      "size": 1,
      "price": "4683000000000000000000",
      "reserved": "",
      "salt": "0x4d762529979a97e24640a89087dd0def9a1d0594679fe393a79b940a13bbe235",
      "assetIds": [
        "55464657044963196816950587289035428064568320970692304673817341489687757334528",
        "55464657044963196816950587289035428064568320970692304673817341489687757334529",
        "55464657044963196816950587289035428064568320970692304673817341489687757334530",
        "55464657044963196816950587289035428064568320970692304673817341489687757334531",
        "55464657044963196816950587289035428064568320970692304673817341489687757334532"
      ]
    },
    {
      "x": 155,
      "y": 373,
      "size": 1,
      "price": "1011000000000000000000",
      "reserved": "0x7a9fe22691c811ea339d9b73150e6911a5343dca",
      "salt": "0xe74210a815d361af7580ee730e1ce6bc07bfc4b6bc961b3283c04cac39e561c9",
      "assetIds": []
    },
    {
      "x": 155,
      "y": 374,
      "size": 1,
      "price": "1011000000000000000000",
      "reserved": "",
      "salt": "0x11dfa4ed48b2da50628ddf2e7fd56d34158a1322e3c3e365967311a049ccd4bc",
      "assetIds": []
    },
    {
      "x": 155,
      "y": 375,
      "size": 1,
      "price": "1011000000000000000000",
      "reserved": "0x7a9fe22691c811ea339d9b73150e6911a5343dca",
      "salt": "0xd066400a1330285eff2e7dc4935d828f947d91b36bd50820ec2606780f019cb1",
      "assetIds": []
    },
    {
      "x": 155,
      "y": 376,
      "size": 1,
      "price": "1011000000000000000000",
      "reserved": "",
      "salt": "0x99cb0ccb6f3fb1e74366927d89e1c45d5e267048b45c107eb2ba65bea9459888",
      "assetIds": []
    },
    {
      "x": 155,
      "y": 377,
      "size": 1,
      "price": "1011000000000000000000",
      "reserved": "0x7a9fe22691c811ea339d9b73150e6911a5343dca",
      "salt": "0x041d5d35140f523ef17b7b6550b19fce1202b2bcdf029987769c5534c2740c82",
      "assetIds": []
    },
    {
      "x": 155,
      "y": 384,
      "size": 1,
      "price": "1011000000000000000000",
      "reserved": "",
      "salt": "0x909a8dc549ee1a2bcae7c89ceeec40a6978ae5d7eafce1e32a39fd473292edf4",
      "assetIds": []
    },
    {
      "x": 155,
      "y": 385,
      "size": 1,
      "price": "1011000000000000000000",
      "reserved": "",
      "salt": "0xae8477c9420ca97b0065f009bfc6802cf06c4ea31f199bd0dbb15a1c6901c4b0",
      "assetIds": []
    },
    {
      "x": 155,
      "y": 386,
      "size": 1,
      "price": "1011000000000000000000",
      "reserved": "0x7a9fe22691c811ea339d9b73150e6911a5343dca",
      "salt": "0x56b59b9e5d32b3af547445ed4e7d49a9cff63a5e5b355fa553991b049315f682",
      "assetIds": []
    },
    {
      "x": 155,
      "y": 387,
      "size": 1,
      "price": "1011000000000000000000",
      "reserved": "",
      "salt": "0xb2ae53e914ffb0844725b3b9dae6da5c7fa43e63433eb2160023dc5705dbc602",
      "assetIds": []
    },
    {
      "x": 155,
      "y": 388,
      "size": 1,
      "price": "1011000000000000000000",
      "reserved": "0x7a9fe22691c811ea339d9b73150e6911a5343dca",
      "salt": "0xcaac302a433d69266c17534ffa7f21a7e313f595100d56af35a561ab7e73695e",
      "assetIds": []
    },
    {
      "x": 155,
      "y": 389,
      "size": 1,
      "price": "4683000000000000000000",
      "reserved": "",
      "salt": "0x88f50254d4696b23eb30c642bdffd98b11d82e1ecb3185072ca0b3e81bb98495",
      "assetIds": [
        "55464657044963196816950587289035428064568320970692304673817341489687757334528",
        "55464657044963196816950587289035428064568320970692304673817341489687757334529",
        "55464657044963196816950587289035428064568320970692304673817341489687757334530",
        "55464657044963196816950587289035428064568320970692304673817341489687757334531",
        "55464657044963196816950587289035428064568320970692304673817341489687757334532"
      ]
    },
    {
      "x": 155,
      "y": 396,
      "size": 1,
      "price": "4683000000000000000000",
      "reserved": "",
      "salt": "0x52d7de20b55cb22d05c204d40c2e7d7faf0771daee3cd1bcb491c0f894c788d6",
      "assetIds": [
        "55464657044963196816950587289035428064568320970692304673817341489687757334528",
        "55464657044963196816950587289035428064568320970692304673817341489687757334529",
        "55464657044963196816950587289035428064568320970692304673817341489687757334530",
        "55464657044963196816950587289035428064568320970692304673817341489687757334531",
        "55464657044963196816950587289035428064568320970692304673817341489687757334532"
      ]
    },
    {
      "x": 155,
      "y": 397,
      "size": 1,
      "price": "1011000000000000000000",
      "reserved": "",
      "salt": "0xa854bfe74ff0d15541f8eb9ff31ae1447ca9ffb2cd1593cc15719bd1e3a7879f",
      "assetIds": []
    },
    {
      "x": 155,
      "y": 398,
      "size": 1,
      "price": "1011000000000000000000",
      "reserved": "",
      "salt": "0x9e4a0a04e254432c1838935a41fee525e2a434a17a60db9e0256fe902b22facb",
      "assetIds": []
    },
    {
      "x": 155,
      "y": 399,
      "size": 1,
      "price": "1011000000000000000000",
      "reserved": "",
      "salt": "0x280bb721077a1cfd37f44225701068e5ee181459ea414ec07f9ad704d00e9299",
      "assetIds": []
    },
    {
      "x": 155,
      "y": 400,
      "size": 1,
      "price": "1011000000000000000000",
      "reserved": "",
      "salt": "0xccd81a697f33382474efa8ad7c7303da7ffe53130cb2d6a39b3640b8068417c0",
      "assetIds": []
    },
    {
      "x": 155,
      "y": 401,
      "size": 1,
      "price": "1011000000000000000000",
      "reserved": "",
      "salt": "0x4a414bb67567f776cca7bc8f746217b548ed1766ef53e5e0dfa6f82f040b35c6",
      "assetIds": []
    },
    {
      "x": 155,
      "y": 402,
      "size": 1,
      "price": "1011000000000000000000",
      "reserved": "",
      "salt": "0xecff10e3a6178dc9648ebcc65566a52689874854b7f61fa62ae5b981d87110f2",
      "assetIds": []
    },
    {
      "x": 155,
      "y": 403,
      "size": 1,
      "price": "1011000000000000000000",
      "reserved": "",
      "salt": "0xa963b21aa1fd16e247a081bd87cb6c07bbb149e2791a204e6e1cbd38903311d2",
      "assetIds": []
    },
    {
      "x": 155,
      "y": 404,
      "size": 1,
      "price": "1011000000000000000000",
      "reserved": "",
      "salt": "0xae8f5dbbcbc7d96726e89143c189fa3b6fa46cdc70099a9d41b19c58ca5049e1",
      "assetIds": []
    },
    {
      "x": 155,
      "y": 405,
      "size": 1,
      "price": "1011000000000000000000",
      "reserved": "",
      "salt": "0x4de41edab5268a59af08b453f5ecb08c43e54969c28357368844e4b739e9c65b",
      "assetIds": []
    },
    {
      "x": 155,
      "y": 406,
      "size": 1,
      "price": "1011000000000000000000",
      "reserved": "",
      "salt": "0xdc23a0725ccdd298d45b6a4d38c8ad7e76cfd4d432c191a60069fb6666d99f31",
      "assetIds": []
    },
    {
      "x": 155,
      "y": 407,
      "size": 1,
      "price": "1011000000000000000000",
      "reserved": "",
      "salt": "0x5b8da7bffcc6a582361273d6e2d0bedc8a091115c0d5b4a9b3fa8c6719394052",
      "assetIds": []
    },
    {
      "x": 156,
      "y": 353,
      "size": 1,
      "price": "1011000000000000000000",
      "reserved": "",
      "salt": "0xf8827068b3554da5564cfa0878739945114c95422740bca0197dcb641b31efaf",
      "assetIds": []
    },
    {
      "x": 156,
      "y": 354,
      "size": 1,
      "price": "4683000000000000000000",
      "reserved": "",
      "salt": "0x75d540249ff2e7143c61e1c9e06a0a624234e53cc5ca48d4d9fa748b46634787",
      "assetIds": [
        "55464657044963196816950587289035428064568320970692304673817341489687757334528",
        "55464657044963196816950587289035428064568320970692304673817341489687757334529",
        "55464657044963196816950587289035428064568320970692304673817341489687757334530",
        "55464657044963196816950587289035428064568320970692304673817341489687757334531",
        "55464657044963196816950587289035428064568320970692304673817341489687757334532"
      ]
    },
    {
      "x": 156,
      "y": 355,
      "size": 1,
      "price": "4683000000000000000000",
      "reserved": "",
      "salt": "0xd0a070e65aeed981eba75841ddebcd3b5a2d27bc11be4e62f97a70f74c51d072",
      "assetIds": [
        "55464657044963196816950587289035428064568320970692304673817341489687757334528",
        "55464657044963196816950587289035428064568320970692304673817341489687757334529",
        "55464657044963196816950587289035428064568320970692304673817341489687757334530",
        "55464657044963196816950587289035428064568320970692304673817341489687757334531",
        "55464657044963196816950587289035428064568320970692304673817341489687757334532"
      ]
    },
    {
      "x": 156,
      "y": 356,
      "size": 1,
      "price": "4683000000000000000000",
      "reserved": "",
      "salt": "0x2bf4f3ef4172095d5b0edbb7d475ea621206a39e03eb52424181b02e397348eb",
      "assetIds": [
        "55464657044963196816950587289035428064568320970692304673817341489687757334528",
        "55464657044963196816950587289035428064568320970692304673817341489687757334529",
        "55464657044963196816950587289035428064568320970692304673817341489687757334530",
        "55464657044963196816950587289035428064568320970692304673817341489687757334531",
        "55464657044963196816950587289035428064568320970692304673817341489687757334532"
      ]
    },
    {
      "x": 156,
      "y": 357,
      "size": 1,
      "price": "4683000000000000000000",
      "reserved": "",
      "salt": "0x554f087949efe08998ed4f6b9969802c9f6a45e9abbe09ed137b3d22ca44c12b",
      "assetIds": [
        "55464657044963196816950587289035428064568320970692304673817341489687757334528",
        "55464657044963196816950587289035428064568320970692304673817341489687757334529",
        "55464657044963196816950587289035428064568320970692304673817341489687757334530",
        "55464657044963196816950587289035428064568320970692304673817341489687757334531",
        "55464657044963196816950587289035428064568320970692304673817341489687757334532"
      ]
    },
    {
      "x": 156,
      "y": 358,
      "size": 1,
      "price": "4683000000000000000000",
      "reserved": "",
      "salt": "0x03eb97e6c4f5c18aeb5f7531783fe1edbc0ffd905d604191184e09396f49dcdc",
      "assetIds": [
        "55464657044963196816950587289035428064568320970692304673817341489687757334528",
        "55464657044963196816950587289035428064568320970692304673817341489687757334529",
        "55464657044963196816950587289035428064568320970692304673817341489687757334530",
        "55464657044963196816950587289035428064568320970692304673817341489687757334531",
        "55464657044963196816950587289035428064568320970692304673817341489687757334532"
      ]
    },
    {
      "x": 156,
      "y": 359,
      "size": 1,
      "price": "4683000000000000000000",
      "reserved": "",
      "salt": "0xeea3724774041276b5185808e3200b7069872dd61fecc73a25ab74f1172d7cdd",
      "assetIds": [
        "55464657044963196816950587289035428064568320970692304673817341489687757334528",
        "55464657044963196816950587289035428064568320970692304673817341489687757334529",
        "55464657044963196816950587289035428064568320970692304673817341489687757334530",
        "55464657044963196816950587289035428064568320970692304673817341489687757334531",
        "55464657044963196816950587289035428064568320970692304673817341489687757334532"
      ]
    },
    {
      "x": 156,
      "y": 360,
      "size": 1,
      "price": "4683000000000000000000",
      "reserved": "",
      "salt": "0x1dd4a7f4ac52ac675bf4046ec65383834edfffd7c6c21926e9718ae6a444887c",
      "assetIds": [
        "55464657044963196816950587289035428064568320970692304673817341489687757334528",
        "55464657044963196816950587289035428064568320970692304673817341489687757334529",
        "55464657044963196816950587289035428064568320970692304673817341489687757334530",
        "55464657044963196816950587289035428064568320970692304673817341489687757334531",
        "55464657044963196816950587289035428064568320970692304673817341489687757334532"
      ]
    },
    {
      "x": 156,
      "y": 361,
      "size": 1,
      "price": "4683000000000000000000",
      "reserved": "",
      "salt": "0x110c09729cd22fa29a25cab948f74515d9595e163ffb1376fb650d767c22e1fd",
      "assetIds": [
        "55464657044963196816950587289035428064568320970692304673817341489687757334528",
        "55464657044963196816950587289035428064568320970692304673817341489687757334529",
        "55464657044963196816950587289035428064568320970692304673817341489687757334530",
        "55464657044963196816950587289035428064568320970692304673817341489687757334531",
        "55464657044963196816950587289035428064568320970692304673817341489687757334532"
      ]
    },
    {
      "x": 156,
      "y": 362,
      "size": 1,
      "price": "4683000000000000000000",
      "reserved": "",
      "salt": "0x9cdc945d4499e523ed1ef117de7adb8e781fa220e79d38dbfe228380c6e21419",
      "assetIds": [
        "55464657044963196816950587289035428064568320970692304673817341489687757334528",
        "55464657044963196816950587289035428064568320970692304673817341489687757334529",
        "55464657044963196816950587289035428064568320970692304673817341489687757334530",
        "55464657044963196816950587289035428064568320970692304673817341489687757334531",
        "55464657044963196816950587289035428064568320970692304673817341489687757334532"
      ]
    },
    {
      "x": 156,
      "y": 363,
      "size": 1,
      "price": "4683000000000000000000",
      "reserved": "",
      "salt": "0x3bfd840d95136e1fef300a525e1a026e11a1f9e86f791ebd6d24d7f4e462383f",
      "assetIds": [
        "55464657044963196816950587289035428064568320970692304673817341489687757334528",
        "55464657044963196816950587289035428064568320970692304673817341489687757334529",
        "55464657044963196816950587289035428064568320970692304673817341489687757334530",
        "55464657044963196816950587289035428064568320970692304673817341489687757334531",
        "55464657044963196816950587289035428064568320970692304673817341489687757334532"
      ]
    },
    {
      "x": 156,
      "y": 364,
      "size": 1,
      "price": "1011000000000000000000",
      "reserved": "",
      "salt": "0x43ecc3029961459af2e468324142e848138bbd33245e22f4ba03f14397941ce0",
      "assetIds": []
    },
    {
      "x": 156,
      "y": 365,
      "size": 1,
      "price": "1011000000000000000000",
      "reserved": "0x7a9fe22691c811ea339d9b73150e6911a5343dca",
      "salt": "0x760aca566428db281062865e41f3d5dbebd76584e14c09f0b5969c26b7d5ba79",
      "assetIds": []
    },
    {
      "x": 156,
      "y": 366,
      "size": 1,
      "price": "4683000000000000000000",
      "reserved": "",
      "salt": "0xf807fc4ecaf03ef2e44b15806a6e1ab5fc3f6bcae7e1d14edf9b408b775f40d2",
      "assetIds": [
        "55464657044963196816950587289035428064568320970692304673817341489687757334528",
        "55464657044963196816950587289035428064568320970692304673817341489687757334529",
        "55464657044963196816950587289035428064568320970692304673817341489687757334530",
        "55464657044963196816950587289035428064568320970692304673817341489687757334531",
        "55464657044963196816950587289035428064568320970692304673817341489687757334532"
      ]
    },
    {
      "x": 156,
      "y": 367,
      "size": 1,
      "price": "4683000000000000000000",
      "reserved": "",
      "salt": "0x5f71a4e3ec43761cba2aaf52ea68be644136dc743a7a13874fd083b7502e0d41",
      "assetIds": [
        "55464657044963196816950587289035428064568320970692304673817341489687757334528",
        "55464657044963196816950587289035428064568320970692304673817341489687757334529",
        "55464657044963196816950587289035428064568320970692304673817341489687757334530",
        "55464657044963196816950587289035428064568320970692304673817341489687757334531",
        "55464657044963196816950587289035428064568320970692304673817341489687757334532"
      ]
    },
    {
      "x": 156,
      "y": 368,
      "size": 1,
      "price": "4683000000000000000000",
      "reserved": "",
      "salt": "0xdabbc9d3cf281354d213927e6b26f4e9b69a395fbd65ff880bcd7655bc82c0cb",
      "assetIds": [
        "55464657044963196816950587289035428064568320970692304673817341489687757334528",
        "55464657044963196816950587289035428064568320970692304673817341489687757334529",
        "55464657044963196816950587289035428064568320970692304673817341489687757334530",
        "55464657044963196816950587289035428064568320970692304673817341489687757334531",
        "55464657044963196816950587289035428064568320970692304673817341489687757334532"
      ]
    },
    {
      "x": 156,
      "y": 369,
      "size": 1,
      "price": "4683000000000000000000",
      "reserved": "",
      "salt": "0x0f9be98abee1a2b02524efa8ccc16ebb47c01939126b9f722a36a5dbd134cd82",
      "assetIds": [
        "55464657044963196816950587289035428064568320970692304673817341489687757334528",
        "55464657044963196816950587289035428064568320970692304673817341489687757334529",
        "55464657044963196816950587289035428064568320970692304673817341489687757334530",
        "55464657044963196816950587289035428064568320970692304673817341489687757334531",
        "55464657044963196816950587289035428064568320970692304673817341489687757334532"
      ]
    },
    {
      "x": 156,
      "y": 370,
      "size": 1,
      "price": "4683000000000000000000",
      "reserved": "",
      "salt": "0xf306e8b4ee5175990a5c84256dbe4aab2d36537b7d18b3e2aea2a44cd02d77b9",
      "assetIds": [
        "55464657044963196816950587289035428064568320970692304673817341489687757334528",
        "55464657044963196816950587289035428064568320970692304673817341489687757334529",
        "55464657044963196816950587289035428064568320970692304673817341489687757334530",
        "55464657044963196816950587289035428064568320970692304673817341489687757334531",
        "55464657044963196816950587289035428064568320970692304673817341489687757334532"
      ]
    },
    {
      "x": 156,
      "y": 371,
      "size": 1,
      "price": "4683000000000000000000",
      "reserved": "",
      "salt": "0xa46807563bb745b8cb88d47db0ca5d8d42c1e8f78fff270957f58ee5bee6f33f",
      "assetIds": [
        "55464657044963196816950587289035428064568320970692304673817341489687757334528",
        "55464657044963196816950587289035428064568320970692304673817341489687757334529",
        "55464657044963196816950587289035428064568320970692304673817341489687757334530",
        "55464657044963196816950587289035428064568320970692304673817341489687757334531",
        "55464657044963196816950587289035428064568320970692304673817341489687757334532"
      ]
    },
    {
      "x": 156,
      "y": 384,
      "size": 1,
      "price": "1011000000000000000000",
      "reserved": "",
      "salt": "0x65944f0c07030f734eef1760f4d13e380255cb2cf083813329ebd28d485983fa",
      "assetIds": []
    },
    {
      "x": 156,
      "y": 385,
      "size": 1,
      "price": "1011000000000000000000",
      "reserved": "0x7a9fe22691c811ea339d9b73150e6911a5343dca",
      "salt": "0xa91dcb90f2b625c9d3f87844ee2bfa7114835c60a678c4ee387d3eb94316d14a",
      "assetIds": []
    },
    {
      "x": 156,
      "y": 386,
      "size": 1,
      "price": "1011000000000000000000",
      "reserved": "0x7a9fe22691c811ea339d9b73150e6911a5343dca",
      "salt": "0xb57b01692285ac18839a530f06778b4c866f3fced71d33a09c2a435f096b56f2",
      "assetIds": []
    },
    {
      "x": 156,
      "y": 387,
      "size": 1,
      "price": "1011000000000000000000",
      "reserved": "",
      "salt": "0xf47fbac5ab8ac1427088442b27c4ca2b856d554f51ce0bad8efa04b85b7982c5",
      "assetIds": []
    },
    {
      "x": 156,
      "y": 388,
      "size": 1,
      "price": "1011000000000000000000",
      "reserved": "0x7a9fe22691c811ea339d9b73150e6911a5343dca",
      "salt": "0xcc76713a05dc4567fd02c514b89039c081195064986e99380c1e232e95880bed",
      "assetIds": []
    },
    {
      "x": 156,
      "y": 389,
      "size": 1,
      "price": "4683000000000000000000",
      "reserved": "",
      "salt": "0xec5ad6fd5e09d493053475c54445cdb548adb752bfb33c9bf26d78a9886a2fef",
      "assetIds": [
        "55464657044963196816950587289035428064568320970692304673817341489687757334528",
        "55464657044963196816950587289035428064568320970692304673817341489687757334529",
        "55464657044963196816950587289035428064568320970692304673817341489687757334530",
        "55464657044963196816950587289035428064568320970692304673817341489687757334531",
        "55464657044963196816950587289035428064568320970692304673817341489687757334532"
      ]
    },
    {
      "x": 156,
      "y": 390,
      "size": 1,
      "price": "4683000000000000000000",
      "reserved": "",
      "salt": "0xb016c284b1ae09e8b03d2adf3b47f3c0749bc3bfaa82d64f3c68f0b102ae1665",
      "assetIds": [
        "55464657044963196816950587289035428064568320970692304673817341489687757334528",
        "55464657044963196816950587289035428064568320970692304673817341489687757334529",
        "55464657044963196816950587289035428064568320970692304673817341489687757334530",
        "55464657044963196816950587289035428064568320970692304673817341489687757334531",
        "55464657044963196816950587289035428064568320970692304673817341489687757334532"
      ]
    },
    {
      "x": 156,
      "y": 391,
      "size": 1,
      "price": "4683000000000000000000",
      "reserved": "",
      "salt": "0xe7c82e8554fb8a17c56570897fe59874b16119d6f5dfddbf03224864b3ec2d21",
      "assetIds": [
        "55464657044963196816950587289035428064568320970692304673817341489687757334528",
        "55464657044963196816950587289035428064568320970692304673817341489687757334529",
        "55464657044963196816950587289035428064568320970692304673817341489687757334530",
        "55464657044963196816950587289035428064568320970692304673817341489687757334531",
        "55464657044963196816950587289035428064568320970692304673817341489687757334532"
      ]
    },
    {
      "x": 156,
      "y": 392,
      "size": 1,
      "price": "4683000000000000000000",
      "reserved": "",
      "salt": "0xb62fe436b965fdc555c8ef1de70fdd38046d640c63bb821c7b474fa48ffee97f",
      "assetIds": [
        "55464657044963196816950587289035428064568320970692304673817341489687757334528",
        "55464657044963196816950587289035428064568320970692304673817341489687757334529",
        "55464657044963196816950587289035428064568320970692304673817341489687757334530",
        "55464657044963196816950587289035428064568320970692304673817341489687757334531",
        "55464657044963196816950587289035428064568320970692304673817341489687757334532"
      ]
    },
    {
      "x": 156,
      "y": 393,
      "size": 1,
      "price": "4683000000000000000000",
      "reserved": "",
      "salt": "0xb92c55a7a1b167d1879200abaa89ae5fdd9713908bd1f20c0f782739d9a15a33",
      "assetIds": [
        "55464657044963196816950587289035428064568320970692304673817341489687757334528",
        "55464657044963196816950587289035428064568320970692304673817341489687757334529",
        "55464657044963196816950587289035428064568320970692304673817341489687757334530",
        "55464657044963196816950587289035428064568320970692304673817341489687757334531",
        "55464657044963196816950587289035428064568320970692304673817341489687757334532"
      ]
    },
    {
      "x": 156,
      "y": 394,
      "size": 1,
      "price": "4683000000000000000000",
      "reserved": "",
      "salt": "0xf9fded029b137dd311c6d4cc25326fc54ba66caf6e7ed5a503035d2bc7194a52",
      "assetIds": [
        "55464657044963196816950587289035428064568320970692304673817341489687757334528",
        "55464657044963196816950587289035428064568320970692304673817341489687757334529",
        "55464657044963196816950587289035428064568320970692304673817341489687757334530",
        "55464657044963196816950587289035428064568320970692304673817341489687757334531",
        "55464657044963196816950587289035428064568320970692304673817341489687757334532"
      ]
    },
    {
      "x": 156,
      "y": 395,
      "size": 1,
      "price": "4683000000000000000000",
      "reserved": "",
      "salt": "0x9d316b2aafb0614cec6c57bf4c63412a7a0944b9979e49659a1271de23098629",
      "assetIds": [
        "55464657044963196816950587289035428064568320970692304673817341489687757334528",
        "55464657044963196816950587289035428064568320970692304673817341489687757334529",
        "55464657044963196816950587289035428064568320970692304673817341489687757334530",
        "55464657044963196816950587289035428064568320970692304673817341489687757334531",
        "55464657044963196816950587289035428064568320970692304673817341489687757334532"
      ]
    },
    {
      "x": 157,
      "y": 353,
      "size": 1,
      "price": "1011000000000000000000",
      "reserved": "",
      "salt": "0x7bc908b371004ccc80276d1206bada909fa9d4d58b6224e33c461aee9637827d",
      "assetIds": []
    },
    {
      "x": 157,
      "y": 354,
      "size": 1,
      "price": "1011000000000000000000",
      "reserved": "",
      "salt": "0x71ccbf7c43260726057813b681ad64d65b062c434d03704cafa8fa86a3bfb464",
      "assetIds": []
    },
    {
      "x": 157,
      "y": 355,
      "size": 1,
      "price": "1011000000000000000000",
      "reserved": "",
      "salt": "0x7f1db06e28c4c4f9a6539687849dafccce40483a13d9f6c88e6bcc7343cf97c2",
      "assetIds": []
    },
    {
      "x": 157,
      "y": 356,
      "size": 1,
      "price": "4683000000000000000000",
      "reserved": "",
      "salt": "0x0bd21073f372d54493697624a135343f203b36c0b3c64bd7367107165adacdc6",
      "assetIds": [
        "55464657044963196816950587289035428064568320970692304673817341489687757334528",
        "55464657044963196816950587289035428064568320970692304673817341489687757334529",
        "55464657044963196816950587289035428064568320970692304673817341489687757334530",
        "55464657044963196816950587289035428064568320970692304673817341489687757334531",
        "55464657044963196816950587289035428064568320970692304673817341489687757334532"
      ]
    },
    {
      "x": 157,
      "y": 357,
      "size": 1,
      "price": "4683000000000000000000",
      "reserved": "",
      "salt": "0xfd8d7354597af489862f7f61b4fb1f1e66a9082c7563a7f78c38e56ec894ab62",
      "assetIds": [
        "55464657044963196816950587289035428064568320970692304673817341489687757334528",
        "55464657044963196816950587289035428064568320970692304673817341489687757334529",
        "55464657044963196816950587289035428064568320970692304673817341489687757334530",
        "55464657044963196816950587289035428064568320970692304673817341489687757334531",
        "55464657044963196816950587289035428064568320970692304673817341489687757334532"
      ]
    },
    {
      "x": 157,
      "y": 358,
      "size": 1,
      "price": "4683000000000000000000",
      "reserved": "",
      "salt": "0x7325acdf055416370e1ff64853918a65d88a6a855585d5322babcf68b5df8a07",
      "assetIds": [
        "55464657044963196816950587289035428064568320970692304673817341489687757334528",
        "55464657044963196816950587289035428064568320970692304673817341489687757334529",
        "55464657044963196816950587289035428064568320970692304673817341489687757334530",
        "55464657044963196816950587289035428064568320970692304673817341489687757334531",
        "55464657044963196816950587289035428064568320970692304673817341489687757334532"
      ]
    },
    {
      "x": 157,
      "y": 359,
      "size": 1,
      "price": "4683000000000000000000",
      "reserved": "",
      "salt": "0x4d32bdcffe2038e89f25ff8ca06025ee4dcf0b8ad69957434c8de67790b7979f",
      "assetIds": [
        "55464657044963196816950587289035428064568320970692304673817341489687757334528",
        "55464657044963196816950587289035428064568320970692304673817341489687757334529",
        "55464657044963196816950587289035428064568320970692304673817341489687757334530",
        "55464657044963196816950587289035428064568320970692304673817341489687757334531",
        "55464657044963196816950587289035428064568320970692304673817341489687757334532"
      ]
    },
    {
      "x": 157,
      "y": 360,
      "size": 1,
      "price": "1011000000000000000000",
      "reserved": "0x7a9fe22691c811ea339d9b73150e6911a5343dca",
      "salt": "0x57d2eef38e4b9e62e39b96355b98bf732c6dddf40f991432ac9b87e23cab461d",
      "assetIds": []
    },
    {
      "x": 157,
      "y": 361,
      "size": 1,
      "price": "1011000000000000000000",
      "reserved": "",
      "salt": "0x4a5d9c7fbcf7e81af072973341d0cd391a63d9ab955a3a0e1172820981531f93",
      "assetIds": []
    },
    {
      "x": 157,
      "y": 362,
      "size": 1,
      "price": "1011000000000000000000",
      "reserved": "",
      "salt": "0xc99f2c0a08008bc95534c6bda1412d81bf050ee2ed5fccfcf9ed8627a168ad6d",
      "assetIds": []
    },
    {
      "x": 157,
      "y": 363,
      "size": 1,
      "price": "1011000000000000000000",
      "reserved": "",
      "salt": "0xa961b76cc64b49a933fa9a248e0331e1ebb34e47225231d00ecb916057d19c30",
      "assetIds": []
    },
    {
      "x": 157,
      "y": 364,
      "size": 1,
      "price": "1011000000000000000000",
      "reserved": "",
      "salt": "0x5c577ac2d6a7de7db362d1bc224d13e322a573d3bb36f20d250195afc09eefb3",
      "assetIds": []
    },
    {
      "x": 157,
      "y": 365,
      "size": 1,
      "price": "1011000000000000000000",
      "reserved": "0x7a9fe22691c811ea339d9b73150e6911a5343dca",
      "salt": "0x7971299a9d8581c7027febae6a0405ffdbf0c79d25fd7c810d5e07781319653b",
      "assetIds": []
    },
    {
      "x": 157,
      "y": 366,
      "size": 1,
      "price": "1011000000000000000000",
      "reserved": "",
      "salt": "0x0b5244f6d0699e1be92ed4b1df6d913198ea168e33b8299d041afa82674343a7",
      "assetIds": []
    },
    {
      "x": 157,
      "y": 367,
      "size": 1,
      "price": "1011000000000000000000",
      "reserved": "0x7a9fe22691c811ea339d9b73150e6911a5343dca",
      "salt": "0x14497ae434d55e19dec9614f2a17e67f90dfdde70af66ac9141538d44e678cd4",
      "assetIds": []
    },
    {
      "x": 157,
      "y": 368,
      "size": 1,
      "price": "4683000000000000000000",
      "reserved": "",
      "salt": "0x6a5a28ac5eebfd388ada47680a4a7a40c66a21c6774767fe8f55526751d88165",
      "assetIds": [
        "55464657044963196816950587289035428064568320970692304673817341489687757334528",
        "55464657044963196816950587289035428064568320970692304673817341489687757334529",
        "55464657044963196816950587289035428064568320970692304673817341489687757334530",
        "55464657044963196816950587289035428064568320970692304673817341489687757334531",
        "55464657044963196816950587289035428064568320970692304673817341489687757334532"
      ]
    },
    {
      "x": 157,
      "y": 369,
      "size": 1,
      "price": "4683000000000000000000",
      "reserved": "",
      "salt": "0xcb81668adeb3d209d68ddf35d360a59657305ea9e2753de299cb09dcaa79f697",
      "assetIds": [
        "55464657044963196816950587289035428064568320970692304673817341489687757334528",
        "55464657044963196816950587289035428064568320970692304673817341489687757334529",
        "55464657044963196816950587289035428064568320970692304673817341489687757334530",
        "55464657044963196816950587289035428064568320970692304673817341489687757334531",
        "55464657044963196816950587289035428064568320970692304673817341489687757334532"
      ]
    },
    {
      "x": 157,
      "y": 370,
      "size": 1,
      "price": "1011000000000000000000",
      "reserved": "",
      "salt": "0xb192759d928cb79877dc64ed4e4465fe28e2642673cbc0b9a8d167c5a1ef9993",
      "assetIds": []
    },
    {
      "x": 157,
      "y": 371,
      "size": 1,
      "price": "1011000000000000000000",
      "reserved": "",
      "salt": "0xbd8c657291936f099dbb615ad569cea119db174361cbcf3135ddcd5ce477b065",
      "assetIds": []
    },
    {
      "x": 157,
      "y": 384,
      "size": 1,
      "price": "1011000000000000000000",
      "reserved": "",
      "salt": "0x937ffe73c6a14dc5feaf3b559352defe43e390c55ff826a158859a8f42f340cb",
      "assetIds": []
    },
    {
      "x": 157,
      "y": 385,
      "size": 1,
      "price": "1011000000000000000000",
      "reserved": "0x7a9fe22691c811ea339d9b73150e6911a5343dca",
      "salt": "0x0d674bc28bac65b7f7629dc53286b72f2b5bb62660e25b4a8c58ebe48e0b09a2",
      "assetIds": []
    },
    {
      "x": 157,
      "y": 386,
      "size": 1,
      "price": "1011000000000000000000",
      "reserved": "0x7a9fe22691c811ea339d9b73150e6911a5343dca",
      "salt": "0x1245b30456f12aa5b0cb4d1902ddecf9125cbc8af03569e8f09e3632258a43e7",
      "assetIds": []
    },
    {
      "x": 157,
      "y": 387,
      "size": 1,
      "price": "1011000000000000000000",
      "reserved": "",
      "salt": "0x97d28bd629fdc08ec58b8b37038473d5b4a424c83159bb71328468f8602eab88",
      "assetIds": []
    },
    {
      "x": 157,
      "y": 388,
      "size": 1,
      "price": "1011000000000000000000",
      "reserved": "",
      "salt": "0x13f478203588ce1dc18c79dee0b41a5fb21c397e3a54439d544e002195e81915",
      "assetIds": []
    },
    {
      "x": 157,
      "y": 389,
      "size": 1,
      "price": "1011000000000000000000",
      "reserved": "",
      "salt": "0xbd57b48ad053b97372e6d4421b22e0d53be01c669e20f68576cd7da2c51574fe",
      "assetIds": []
    },
    {
      "x": 157,
      "y": 390,
      "size": 1,
      "price": "4683000000000000000000",
      "reserved": "",
      "salt": "0xcb3c2c3ca56ebef4741675e486d60d70d4987456d48289e83f8c07e4fa65d11b",
      "assetIds": [
        "55464657044963196816950587289035428064568320970692304673817341489687757334528",
        "55464657044963196816950587289035428064568320970692304673817341489687757334529",
        "55464657044963196816950587289035428064568320970692304673817341489687757334530",
        "55464657044963196816950587289035428064568320970692304673817341489687757334531",
        "55464657044963196816950587289035428064568320970692304673817341489687757334532"
      ]
    },
    {
      "x": 157,
      "y": 391,
      "size": 1,
      "price": "4683000000000000000000",
      "reserved": "",
      "salt": "0x789b8926f9510067e4116ec0eb705c155273fd5bbf73c7eb5d8347de4e298085",
      "assetIds": [
        "55464657044963196816950587289035428064568320970692304673817341489687757334528",
        "55464657044963196816950587289035428064568320970692304673817341489687757334529",
        "55464657044963196816950587289035428064568320970692304673817341489687757334530",
        "55464657044963196816950587289035428064568320970692304673817341489687757334531",
        "55464657044963196816950587289035428064568320970692304673817341489687757334532"
      ]
    },
    {
      "x": 157,
      "y": 392,
      "size": 1,
      "price": "4683000000000000000000",
      "reserved": "",
      "salt": "0x5edfa363c0360766733b83c87dc20dd8abe3ed89362169fa0d21221e5c0dff57",
      "assetIds": [
        "55464657044963196816950587289035428064568320970692304673817341489687757334528",
        "55464657044963196816950587289035428064568320970692304673817341489687757334529",
        "55464657044963196816950587289035428064568320970692304673817341489687757334530",
        "55464657044963196816950587289035428064568320970692304673817341489687757334531",
        "55464657044963196816950587289035428064568320970692304673817341489687757334532"
      ]
    },
    {
      "x": 157,
      "y": 393,
      "size": 1,
      "price": "1011000000000000000000",
      "reserved": "0x7a9fe22691c811ea339d9b73150e6911a5343dca",
      "salt": "0x67f35ca9bb3fee81b8721dd2667f882fdf7fb999407510a9f6bb35702b6d5166",
      "assetIds": []
    },
    {
      "x": 157,
      "y": 394,
      "size": 1,
      "price": "1011000000000000000000",
      "reserved": "",
      "salt": "0xdfd1f96bddf04d5e430218fcfe5751ae66b4e7f58ac67bf9981da613810587a3",
      "assetIds": []
    },
    {
      "x": 157,
      "y": 395,
      "size": 1,
      "price": "1011000000000000000000",
      "reserved": "",
      "salt": "0x06add15b6989a1025ccafd78fc82bb570de805d3c92c2a66071f08839bd2eec8",
      "assetIds": []
    },
    {
      "x": 158,
      "y": 353,
      "size": 1,
      "price": "1011000000000000000000",
      "reserved": "",
      "salt": "0xa492b5932cd076f12429a90e7a30ef9e563de2aff90911424ca462742d5f5c72",
      "assetIds": []
    },
    {
      "x": 158,
      "y": 354,
      "size": 1,
      "price": "1011000000000000000000",
      "reserved": "0x7a9fe22691c811ea339d9b73150e6911a5343dca",
      "salt": "0x829f7d7e888c1924bae3fe094399bd7090956142624f672b7cb1e85b52614f16",
      "assetIds": []
    },
    {
      "x": 158,
      "y": 355,
      "size": 1,
      "price": "1011000000000000000000",
      "reserved": "",
      "salt": "0xd6eb21a8fbf9417c7d7ddf271f12ca2eed53f27b5d3233fd888d693b2a985d54",
      "assetIds": []
    },
    {
      "x": 158,
      "y": 356,
      "size": 1,
      "price": "1011000000000000000000",
      "reserved": "",
      "salt": "0x546c7e088034b0d080556c169a6421d68e4343ac5a81d6351d4c95ca87551295",
      "assetIds": []
    },
    {
      "x": 158,
      "y": 357,
      "size": 1,
      "price": "1011000000000000000000",
      "reserved": "",
      "salt": "0x17ab92a86152fc8574e1a528b1283d7f8ef93930bfeec3ccbce2c38da44fe25b",
      "assetIds": []
    },
    {
      "x": 158,
      "y": 358,
      "size": 1,
      "price": "4683000000000000000000",
      "reserved": "",
      "salt": "0xe7d060a98e6a47095d66d54458e464a9ad9ae7130f4174104dc49335a1837dae",
      "assetIds": [
        "55464657044963196816950587289035428064568320970692304673817341489687757334528",
        "55464657044963196816950587289035428064568320970692304673817341489687757334529",
        "55464657044963196816950587289035428064568320970692304673817341489687757334530",
        "55464657044963196816950587289035428064568320970692304673817341489687757334531",
        "55464657044963196816950587289035428064568320970692304673817341489687757334532"
      ]
    },
    {
      "x": 158,
      "y": 359,
      "size": 1,
      "price": "4683000000000000000000",
      "reserved": "",
      "salt": "0x0ae38897cf84159b0391dc8f08bc5c9bf09cf3a70223e12ac7af727adcd86b33",
      "assetIds": [
        "55464657044963196816950587289035428064568320970692304673817341489687757334528",
        "55464657044963196816950587289035428064568320970692304673817341489687757334529",
        "55464657044963196816950587289035428064568320970692304673817341489687757334530",
        "55464657044963196816950587289035428064568320970692304673817341489687757334531",
        "55464657044963196816950587289035428064568320970692304673817341489687757334532"
      ]
    },
    {
      "x": 158,
      "y": 360,
      "size": 1,
      "price": "1011000000000000000000",
      "reserved": "",
      "salt": "0x729227e8a2bf8ce77c10f4b4705ddf2502fc25a4d4a210df89860d294e10ad04",
      "assetIds": []
    },
    {
      "x": 158,
      "y": 361,
      "size": 1,
      "price": "1011000000000000000000",
      "reserved": "",
      "salt": "0xd3da19193414bb18682fb0a0bc8ed366cc7d1b6b18ca0e687e98f466399069e0",
      "assetIds": []
    },
    {
      "x": 158,
      "y": 362,
      "size": 1,
      "price": "1011000000000000000000",
      "reserved": "",
      "salt": "0xdf5fc6de608ae8f5f45d663b88d167508eda20704516a14445fe699af3bfa3fc",
      "assetIds": []
    },
    {
      "x": 158,
      "y": 363,
      "size": 1,
      "price": "1011000000000000000000",
      "reserved": "0x7a9fe22691c811ea339d9b73150e6911a5343dca",
      "salt": "0x594d02f7c8d7d326083c58c711cdae6d63f43099f04ecab33b36e35b1f6dd850",
      "assetIds": []
    },
    {
      "x": 158,
      "y": 364,
      "size": 1,
      "price": "1011000000000000000000",
      "reserved": "",
      "salt": "0xd591d52ff91e804d13d93ecd16b1c2067e5ba01376c2f490d4683fe82a0f3f74",
      "assetIds": []
    },
    {
      "x": 158,
      "y": 365,
      "size": 1,
      "price": "1011000000000000000000",
      "reserved": "",
      "salt": "0x17dcb11650cdaf41413dc19d24d7cd3b781813934dfbe6d610d35d2c01dc4e03",
      "assetIds": []
    },
    {
      "x": 158,
      "y": 366,
      "size": 1,
      "price": "1011000000000000000000",
      "reserved": "0x7a9fe22691c811ea339d9b73150e6911a5343dca",
      "salt": "0xad898789e476ae82e9a5417a1beb3484f63c785db8833641902ffbfd902c4ff3",
      "assetIds": []
    },
    {
      "x": 158,
      "y": 367,
      "size": 1,
      "price": "1011000000000000000000",
      "reserved": "",
      "salt": "0x33a4a07680daf153329213b319930988e5a7f8f99a3b34a1db4a2208dbbcc7da",
      "assetIds": []
    },
    {
      "x": 158,
      "y": 368,
      "size": 1,
      "price": "1011000000000000000000",
      "reserved": "",
      "salt": "0xc4e5bb75e5f2cba7263b2c683122d04aad6e21d40ac051900cd32e4a5a7be650",
      "assetIds": []
    },
    {
      "x": 158,
      "y": 369,
      "size": 1,
      "price": "1011000000000000000000",
      "reserved": "0x7a9fe22691c811ea339d9b73150e6911a5343dca",
      "salt": "0x939005a00e99a625716965fa38f8867263a78ff94a0d3035871e79c648085a66",
      "assetIds": []
    },
    {
      "x": 158,
      "y": 370,
      "size": 1,
      "price": "1011000000000000000000",
      "reserved": "",
      "salt": "0x63e08c2e81c5d01b5f0529dbd61ed632210b80463b553042841b15726aa38956",
      "assetIds": []
    },
    {
      "x": 158,
      "y": 371,
      "size": 1,
      "price": "1011000000000000000000",
      "reserved": "",
      "salt": "0xdb8ce7e8722ca69788332c27f13b1dc2edab77a2e70156db66724b392aef68ab",
      "assetIds": []
    },
    {
      "x": 158,
      "y": 384,
      "size": 1,
      "price": "1011000000000000000000",
      "reserved": "",
      "salt": "0xc99764c8fcc639de1444fe225746644cfe92a4fff0219776885776b9b0f7e9cd",
      "assetIds": []
    },
    {
      "x": 158,
      "y": 385,
      "size": 1,
      "price": "1011000000000000000000",
      "reserved": "",
      "salt": "0x237f3643702dab9e9b3b151088cd0ef5b258c3c74c0c017db233f509538feee5",
      "assetIds": []
    },
    {
      "x": 158,
      "y": 386,
      "size": 1,
      "price": "1011000000000000000000",
      "reserved": "",
      "salt": "0x0efe60f6d7256bde5219fe9ea1c51afdc8075f344ba3b1b71ce1765c3bc23b42",
      "assetIds": []
    },
    {
      "x": 158,
      "y": 387,
      "size": 1,
      "price": "1011000000000000000000",
      "reserved": "",
      "salt": "0xf9844afdab19af29652284b1ae9425bff207f3468854fcd91773e0cd4eee8492",
      "assetIds": []
    },
    {
      "x": 158,
      "y": 388,
      "size": 1,
      "price": "1011000000000000000000",
      "reserved": "0x7a9fe22691c811ea339d9b73150e6911a5343dca",
      "salt": "0x9ab3b2f5b66433c66595ac0c53e60010e1a976171b42ab0f146a594bc1a87343",
      "assetIds": []
    },
    {
      "x": 158,
      "y": 389,
      "size": 1,
      "price": "1011000000000000000000",
      "reserved": "",
      "salt": "0xb3e9bf76e1535dd1d3f47107c8c0d8901b12b1a2fad96121209c8a9bc59dfd08",
      "assetIds": []
    },
    {
      "x": 158,
      "y": 390,
      "size": 1,
      "price": "1011000000000000000000",
      "reserved": "0x7a9fe22691c811ea339d9b73150e6911a5343dca",
      "salt": "0x5ed68c72b3ac043392df872cc4562fd48b5011f9bb6aa0e6c42cb1ca57204649",
      "assetIds": []
    },
    {
      "x": 158,
      "y": 391,
      "size": 1,
      "price": "1011000000000000000000",
      "reserved": "",
      "salt": "0x4c51c42b979c7204e304745fe570c86d5b123b1af836e3ceb34ea062385dbc03",
      "assetIds": []
    },
    {
      "x": 158,
      "y": 392,
      "size": 1,
      "price": "1011000000000000000000",
      "reserved": "0x7a9fe22691c811ea339d9b73150e6911a5343dca",
      "salt": "0x6aaff572d6c1875b0de03e61a16557aa3a9f7d57394a9be638c09b43837a605d",
      "assetIds": []
    },
    {
      "x": 158,
      "y": 393,
      "size": 1,
      "price": "1011000000000000000000",
      "reserved": "",
      "salt": "0x7dca96118a33f0a6f2ac7cb3b90c32c901c2693d8fcf9259c12a40688944e1f6",
      "assetIds": []
    },
    {
      "x": 158,
      "y": 394,
      "size": 1,
      "price": "1011000000000000000000",
      "reserved": "",
      "salt": "0x587e4bfae1afeed9056a9113b66442366e669c8802534089cf62220e14e7adf5",
      "assetIds": []
    },
    {
      "x": 158,
      "y": 395,
      "size": 1,
      "price": "1011000000000000000000",
      "reserved": "0x7a9fe22691c811ea339d9b73150e6911a5343dca",
      "salt": "0x2f5ef4feadd6b6bc3bcbd880add908d0aa83715bffb87444c67034d6647d69db",
      "assetIds": []
    },
    {
      "x": 159,
      "y": 353,
      "size": 1,
      "price": "1011000000000000000000",
      "reserved": "",
      "salt": "0x2e07709da6c901c601ddb50ff266d47c09208146185883d0694d95207f4a6c43",
      "assetIds": []
    },
    {
      "x": 159,
      "y": 354,
      "size": 1,
      "price": "1011000000000000000000",
      "reserved": "",
      "salt": "0xe7d9c8b94bff28cd39589c0a163937ccfbef52a7b491a565c546d463d870e61a",
      "assetIds": []
    },
    {
      "x": 159,
      "y": 355,
      "size": 1,
      "price": "1011000000000000000000",
      "reserved": "",
      "salt": "0xa30fe72f906757fa9069eeab2f47a907d90736c25787f15b13340f71b2ed2ea1",
      "assetIds": []
    },
    {
      "x": 159,
      "y": 356,
      "size": 1,
      "price": "1011000000000000000000",
      "reserved": "",
      "salt": "0x4e93c75865f94985f21e31f1dd36070ad0c6e9da6700e80294ccca47f440074a",
      "assetIds": []
    },
    {
      "x": 159,
      "y": 357,
      "size": 1,
      "price": "1011000000000000000000",
      "reserved": "",
      "salt": "0xc342ec6aa692303d8e68b8a9976d0de9dc36d06a4725d132743fe3024d871e66",
      "assetIds": []
    },
    {
      "x": 159,
      "y": 358,
      "size": 1,
      "price": "1011000000000000000000",
      "reserved": "",
      "salt": "0x02691efb0cfb9760eb335150e314fccfd6dbdd305c67e271fa643bddf14eb952",
      "assetIds": []
    },
    {
      "x": 159,
      "y": 359,
      "size": 1,
      "price": "1011000000000000000000",
      "reserved": "",
      "salt": "0xf01ce16a3da1e3f5fa41cf391f0d710ee88a046f1244cb7d96103949d272a32b",
      "assetIds": []
    },
    {
      "x": 159,
      "y": 360,
      "size": 1,
      "price": "1011000000000000000000",
      "reserved": "",
      "salt": "0x649b18175042ce0973e141ca448124ba112efd6af2a64fc6eab727282ec91138",
      "assetIds": []
    },
    {
      "x": 159,
      "y": 361,
      "size": 1,
      "price": "1011000000000000000000",
      "reserved": "0x7a9fe22691c811ea339d9b73150e6911a5343dca",
      "salt": "0x05960bf806c4b2cc39f0412423a5ed680224904633f3b7d12327d92fc2456120",
      "assetIds": []
    },
    {
      "x": 159,
      "y": 362,
      "size": 1,
      "price": "1011000000000000000000",
      "reserved": "",
      "salt": "0xe797c9609ef54529b055cc4760fbabc4fafc4573d2ae0392639bc0c6285e33b9",
      "assetIds": []
    },
    {
      "x": 159,
      "y": 363,
      "size": 1,
      "price": "1011000000000000000000",
      "reserved": "",
      "salt": "0xf3bcd5f666e2ce8bcc20620e30eba33aad32e5bb7fe975e5c6f73a1d39ae170f",
      "assetIds": []
    },
    {
      "x": 159,
      "y": 364,
      "size": 1,
      "price": "1011000000000000000000",
      "reserved": "",
      "salt": "0x57f9051b422527dd0876b61adc3a633877e2932fc2c74a8808224bd72d342f22",
      "assetIds": []
    },
    {
      "x": 159,
      "y": 365,
      "size": 1,
      "price": "1011000000000000000000",
      "reserved": "0x7a9fe22691c811ea339d9b73150e6911a5343dca",
      "salt": "0xfe270b009a4d1eb3e6041ad898b64a3766123018bcde1d32cc8bf743af91a579",
      "assetIds": []
    },
    {
      "x": 159,
      "y": 366,
      "size": 1,
      "price": "1011000000000000000000",
      "reserved": "",
      "salt": "0x6ba34ee9c61bb69df57679b7fe98bed30171c0d430bd2248023a388a75a5966a",
      "assetIds": []
    },
    {
      "x": 159,
      "y": 367,
      "size": 1,
      "price": "1011000000000000000000",
      "reserved": "0x7a9fe22691c811ea339d9b73150e6911a5343dca",
      "salt": "0xf51a75ff62efca80b37f32c0ef0155210ed99b0d9fd0177f4453c97768a4ac95",
      "assetIds": []
    },
    {
      "x": 159,
      "y": 368,
      "size": 1,
      "price": "1011000000000000000000",
      "reserved": "0x7a9fe22691c811ea339d9b73150e6911a5343dca",
      "salt": "0x46c1c52ef83d4e3ddebc65389c47b03389ecb6254de601b3180097fec963de4a",
      "assetIds": []
    },
    {
      "x": 159,
      "y": 384,
      "size": 1,
      "price": "1011000000000000000000",
      "reserved": "0x7a9fe22691c811ea339d9b73150e6911a5343dca",
      "salt": "0xf61be72860be5da021ea1c6e6c5fbb67591de8853f5a7161456d75ad7683a406",
      "assetIds": []
    },
    {
      "x": 159,
      "y": 385,
      "size": 1,
      "price": "1011000000000000000000",
      "reserved": "",
      "salt": "0x79330ce5eaba5d9f6f9ee6a54cfd9186312479218f2493e0c127c44dff0e37fd",
      "assetIds": []
    },
    {
      "x": 159,
      "y": 386,
      "size": 1,
      "price": "1011000000000000000000",
      "reserved": "0x7a9fe22691c811ea339d9b73150e6911a5343dca",
      "salt": "0xe4d569a4ccb64dc80e4271149d05720fa5151cc5e328a9b0c123f3ea8517da51",
      "assetIds": []
    },
    {
      "x": 159,
      "y": 387,
      "size": 1,
      "price": "1011000000000000000000",
      "reserved": "",
      "salt": "0x2694148c54ca1ab6d32b254a799fe731ae3661bbd7143f41bb09048aef724d5d",
      "assetIds": []
    },
    {
      "x": 159,
      "y": 388,
      "size": 1,
      "price": "1011000000000000000000",
      "reserved": "",
      "salt": "0x1756efd259b201ec1a98d555249bede8a8630bcec7229bc30603f717bfde025d",
      "assetIds": []
    },
    {
      "x": 159,
      "y": 389,
      "size": 1,
      "price": "1011000000000000000000",
      "reserved": "",
      "salt": "0x3cafe4db48f4bc9f7a0047e374bfdd6567edc863ef01d7c4f0f96b3d26f4a781",
      "assetIds": []
    },
    {
      "x": 159,
      "y": 390,
      "size": 1,
      "price": "1011000000000000000000",
      "reserved": "",
      "salt": "0xd27e373f47f528d132f12ea8107e5d194e8a96dd82c4c657ed1359cce982ccfa",
      "assetIds": []
    },
    {
      "x": 159,
      "y": 391,
      "size": 1,
      "price": "1011000000000000000000",
      "reserved": "0x7a9fe22691c811ea339d9b73150e6911a5343dca",
      "salt": "0x1838d47abbc610a3f6bb531e2d06ef9c873b61ac0bcfe5021a9df6903e952a95",
      "assetIds": []
    },
    {
      "x": 159,
      "y": 392,
      "size": 1,
      "price": "1011000000000000000000",
      "reserved": "0x7a9fe22691c811ea339d9b73150e6911a5343dca",
      "salt": "0x0550370a753e3dc0604e707ef905d9db4eec0b047a6c7e15f0754f40ad1850d4",
      "assetIds": []
    },
    {
      "x": 159,
      "y": 393,
      "size": 1,
      "price": "1011000000000000000000",
      "reserved": "0x7a9fe22691c811ea339d9b73150e6911a5343dca",
      "salt": "0x807341ae08cfe2366aee0f6d73a37080e846c66516f48de965721d47e65028d4",
      "assetIds": []
    },
    {
      "x": 159,
      "y": 394,
      "size": 1,
      "price": "1011000000000000000000",
      "reserved": "",
      "salt": "0xd4169c491484fc44869edcaa569304d05ee914ec2085d0327b4dd10dbbbce968",
      "assetIds": []
    },
    {
      "x": 159,
      "y": 395,
      "size": 1,
      "price": "1011000000000000000000",
      "reserved": "",
      "salt": "0xb9718bd27a2c4f60d8b8071002a10a0378646e0464ae2c5d83d766d1edb6931e",
      "assetIds": []
    },
    {
      "x": 160,
      "y": 353,
      "size": 1,
      "price": "1011000000000000000000",
      "reserved": "0x7a9fe22691c811ea339d9b73150e6911a5343dca",
      "salt": "0xe673f69c2eb43af4893ae0cbd74b7a49a9fdc5694e172d67ef6e355450fdca38",
      "assetIds": []
    },
    {
      "x": 160,
      "y": 354,
      "size": 1,
      "price": "4683000000000000000000",
      "reserved": "",
      "salt": "0xec89d57f04d76248206dd6e24888b4ad226cf465908ab2274770d9fd340c66fa",
      "assetIds": [
        "55464657044963196816950587289035428064568320970692304673817341489687757334528",
        "55464657044963196816950587289035428064568320970692304673817341489687757334529",
        "55464657044963196816950587289035428064568320970692304673817341489687757334530",
        "55464657044963196816950587289035428064568320970692304673817341489687757334531",
        "55464657044963196816950587289035428064568320970692304673817341489687757334532"
      ]
    },
    {
      "x": 160,
      "y": 355,
      "size": 1,
      "price": "1011000000000000000000",
      "reserved": "0x7a9fe22691c811ea339d9b73150e6911a5343dca",
      "salt": "0x2cd2beb498188713a4ea7d137d8b18f8d148737d05679e097db196c3084b6ba7",
      "assetIds": []
    },
    {
      "x": 160,
      "y": 356,
      "size": 1,
      "price": "1011000000000000000000",
      "reserved": "",
      "salt": "0x7da38b01031569beb006251271bb0145e03d6055f29e8f1269c8c31888cb2cbc",
      "assetIds": []
    },
    {
      "x": 160,
      "y": 357,
      "size": 1,
      "price": "1011000000000000000000",
      "reserved": "",
      "salt": "0x21c4f911f9ed032ed3d6e74f83ad9883a1c3077b9f6a07bbec18538b2f8e8ccb",
      "assetIds": []
    },
    {
      "x": 160,
      "y": 358,
      "size": 1,
      "price": "1011000000000000000000",
      "reserved": "",
      "salt": "0x30bf84ebb551fc90880d29d6cd8e6b57eb4724deb534c3a029689228895ac872",
      "assetIds": []
    },
    {
      "x": 160,
      "y": 359,
      "size": 1,
      "price": "4683000000000000000000",
      "reserved": "",
      "salt": "0x8b8babadea654c1643447d2e848e1eafb14c796dceb36df3d94e9dc12850a920",
      "assetIds": [
        "55464657044963196816950587289035428064568320970692304673817341489687757334528",
        "55464657044963196816950587289035428064568320970692304673817341489687757334529",
        "55464657044963196816950587289035428064568320970692304673817341489687757334530",
        "55464657044963196816950587289035428064568320970692304673817341489687757334531",
        "55464657044963196816950587289035428064568320970692304673817341489687757334532"
      ]
    },
    {
      "x": 160,
      "y": 360,
      "size": 1,
      "price": "4683000000000000000000",
      "reserved": "",
      "salt": "0x0868b379808406f88306b97ba7058f1108045a74dfde97bbcedcf574fdbea5da",
      "assetIds": [
        "55464657044963196816950587289035428064568320970692304673817341489687757334528",
        "55464657044963196816950587289035428064568320970692304673817341489687757334529",
        "55464657044963196816950587289035428064568320970692304673817341489687757334530",
        "55464657044963196816950587289035428064568320970692304673817341489687757334531",
        "55464657044963196816950587289035428064568320970692304673817341489687757334532"
      ]
    },
    {
      "x": 160,
      "y": 361,
      "size": 1,
      "price": "1011000000000000000000",
      "reserved": "",
      "salt": "0x5a24c5a31d9600c7a9a0359a298cd75fa7cea14371775fd8dda1186a75fd94d7",
      "assetIds": []
    },
    {
      "x": 160,
      "y": 362,
      "size": 1,
      "price": "1011000000000000000000",
      "reserved": "",
      "salt": "0x18cfd229c603245d99184d4f666434a185aeaf88ede5640f2de15b0e07b502b4",
      "assetIds": []
    },
    {
      "x": 160,
      "y": 363,
      "size": 1,
      "price": "1011000000000000000000",
      "reserved": "0x7a9fe22691c811ea339d9b73150e6911a5343dca",
      "salt": "0xefbdff37258c9cbe27cc3a527bf71478dbe2ede8453e5e60bea75ec0570892c6",
      "assetIds": []
    },
    {
      "x": 160,
      "y": 364,
      "size": 1,
      "price": "1011000000000000000000",
      "reserved": "",
      "salt": "0xd32884e826321ffef89c3ab26b3a70b89f9093c251e4dc69335a8b95be7ac0ed",
      "assetIds": []
    },
    {
      "x": 160,
      "y": 365,
      "size": 1,
      "price": "1011000000000000000000",
      "reserved": "",
      "salt": "0x1dc2e9ce8fb05ae6853b1cd9075e0c0d3a037ffbf9dc6fe468daadd2e98a1e5b",
      "assetIds": []
    },
    {
      "x": 160,
      "y": 366,
      "size": 1,
      "price": "1011000000000000000000",
      "reserved": "",
      "salt": "0x651d56692eb9267446c56f77ec0bb0762c114730d6dfc28e434cb0f1bfcf733b",
      "assetIds": []
    },
    {
      "x": 160,
      "y": 367,
      "size": 1,
      "price": "1011000000000000000000",
      "reserved": "",
      "salt": "0x4799ab7b7b998e4c858546886bad1dcdf04f0c0e06a892af91b59bf6642b1214",
      "assetIds": []
    },
    {
      "x": 160,
      "y": 368,
      "size": 1,
      "price": "1011000000000000000000",
      "reserved": "",
      "salt": "0x123b59684c4de49aa713d50a3cdab979bc338b2353b2eaa2ad079e7259137ee3",
      "assetIds": []
    },
    {
      "x": 160,
      "y": 384,
      "size": 1,
      "price": "1011000000000000000000",
      "reserved": "",
      "salt": "0xce85df3913cec34669cf5c20c79f567e54d268c523405a6ff4707ceea426d9d2",
      "assetIds": []
    },
    {
      "x": 160,
      "y": 385,
      "size": 1,
      "price": "1011000000000000000000",
      "reserved": "",
      "salt": "0x1b0a7f07b180b70c50f175641ef86be707f1abeafe71ce9de00971525144150e",
      "assetIds": []
    },
    {
      "x": 160,
      "y": 386,
      "size": 1,
      "price": "1011000000000000000000",
      "reserved": "",
      "salt": "0x0697260224ad228fedcb90f7e99110490e9280fbc184d4cb18b107a99a82f1df",
      "assetIds": []
    },
    {
      "x": 160,
      "y": 387,
      "size": 1,
      "price": "1011000000000000000000",
      "reserved": "0x7a9fe22691c811ea339d9b73150e6911a5343dca",
      "salt": "0x3d3811321224f502d2fe22e588763ca8f4c94f1af7c749de0269c65059474c39",
      "assetIds": []
    },
    {
      "x": 160,
      "y": 388,
      "size": 1,
      "price": "1011000000000000000000",
      "reserved": "",
      "salt": "0x008bd7d2ed6e0f20e23e7268fc6d15e06319782349b448b82a6b894b681faa8a",
      "assetIds": []
    },
    {
      "x": 160,
      "y": 389,
      "size": 1,
      "price": "1011000000000000000000",
      "reserved": "",
      "salt": "0x9e88062b3dd0c8171c0f742c98906ad236887123c2a57d2558e4eaba60a88098",
      "assetIds": []
    },
    {
      "x": 160,
      "y": 390,
      "size": 1,
      "price": "1011000000000000000000",
      "reserved": "",
      "salt": "0x86faab6bfdb4a424f8e8014576da840d2d0bae59c7df2573bee650bc2e3f89ad",
      "assetIds": []
    },
    {
      "x": 160,
      "y": 391,
      "size": 1,
      "price": "1011000000000000000000",
      "reserved": "",
      "salt": "0x2a5a164a282ec264f2473638f3727b4c3ceb951e18668bac241d75f816a26449",
      "assetIds": []
    },
    {
      "x": 160,
      "y": 392,
      "size": 1,
      "price": "1011000000000000000000",
      "reserved": "",
      "salt": "0x488468497228b2e63b0606d26afb4a52b7743be40c44d94dc54aac158ed690d4",
      "assetIds": []
    },
    {
      "x": 160,
      "y": 393,
      "size": 1,
      "price": "1011000000000000000000",
      "reserved": "",
      "salt": "0x4678ba5efc2018c65508829646dd92d46bef5b50d7a0586dcf43d79e3756e7e6",
      "assetIds": []
    },
    {
      "x": 160,
      "y": 394,
      "size": 1,
      "price": "1011000000000000000000",
      "reserved": "",
      "salt": "0x67c5630c9b355d8a6ec7c324d3cffebc0712db4487cebb1775e14d07c67b64d4",
      "assetIds": []
    },
    {
      "x": 160,
      "y": 395,
      "size": 1,
      "price": "1011000000000000000000",
      "reserved": "0x7a9fe22691c811ea339d9b73150e6911a5343dca",
      "salt": "0xea9904292c08242ad5e3f06c0331aa59defabe8c33b4ad8bab0fadff8de83a29",
      "assetIds": []
    },
    {
      "x": 161,
      "y": 353,
      "size": 1,
      "price": "1011000000000000000000",
      "reserved": "0x7a9fe22691c811ea339d9b73150e6911a5343dca",
      "salt": "0x46343001fae455579b28562588d5db1cf9356af42f33c839ce68d1eb6afff29a",
      "assetIds": []
    },
    {
      "x": 161,
      "y": 354,
      "size": 1,
      "price": "4683000000000000000000",
      "reserved": "",
      "salt": "0xec1e9b9338bf5ed7e8730cd7961b119c9bd394ab7db35588063dabda65a57904",
      "assetIds": [
        "55464657044963196816950587289035428064568320970692304673817341489687757334528",
        "55464657044963196816950587289035428064568320970692304673817341489687757334529",
        "55464657044963196816950587289035428064568320970692304673817341489687757334530",
        "55464657044963196816950587289035428064568320970692304673817341489687757334531",
        "55464657044963196816950587289035428064568320970692304673817341489687757334532"
      ]
    },
    {
      "x": 161,
      "y": 355,
      "size": 1,
      "price": "4683000000000000000000",
      "reserved": "",
      "salt": "0xfb8f26df9870f35cdaee915338fe557528c91dc9b7b49dc5214f0bdec5f619e7",
      "assetIds": [
        "55464657044963196816950587289035428064568320970692304673817341489687757334528",
        "55464657044963196816950587289035428064568320970692304673817341489687757334529",
        "55464657044963196816950587289035428064568320970692304673817341489687757334530",
        "55464657044963196816950587289035428064568320970692304673817341489687757334531",
        "55464657044963196816950587289035428064568320970692304673817341489687757334532"
      ]
    },
    {
      "x": 161,
      "y": 356,
      "size": 1,
      "price": "4683000000000000000000",
      "reserved": "",
      "salt": "0x20059a9bb2d29c4fa0333b2e0b706b62bcdf64097215d9d6fe7ea362de7f3fa9",
      "assetIds": [
        "55464657044963196816950587289035428064568320970692304673817341489687757334528",
        "55464657044963196816950587289035428064568320970692304673817341489687757334529",
        "55464657044963196816950587289035428064568320970692304673817341489687757334530",
        "55464657044963196816950587289035428064568320970692304673817341489687757334531",
        "55464657044963196816950587289035428064568320970692304673817341489687757334532"
      ]
    },
    {
      "x": 161,
      "y": 357,
      "size": 1,
      "price": "4683000000000000000000",
      "reserved": "",
      "salt": "0x56fdfc54af5aed4f431bcf5ae22b191e7ca2afe575466a58bd767303333cfe0e",
      "assetIds": [
        "55464657044963196816950587289035428064568320970692304673817341489687757334528",
        "55464657044963196816950587289035428064568320970692304673817341489687757334529",
        "55464657044963196816950587289035428064568320970692304673817341489687757334530",
        "55464657044963196816950587289035428064568320970692304673817341489687757334531",
        "55464657044963196816950587289035428064568320970692304673817341489687757334532"
      ]
    },
    {
      "x": 161,
      "y": 358,
      "size": 1,
      "price": "4683000000000000000000",
      "reserved": "",
      "salt": "0x500622efb2fc816cb7927f84e7e61ddf8c4f456d4dc80afb4b72fd3a187d235e",
      "assetIds": [
        "55464657044963196816950587289035428064568320970692304673817341489687757334528",
        "55464657044963196816950587289035428064568320970692304673817341489687757334529",
        "55464657044963196816950587289035428064568320970692304673817341489687757334530",
        "55464657044963196816950587289035428064568320970692304673817341489687757334531",
        "55464657044963196816950587289035428064568320970692304673817341489687757334532"
      ]
    },
    {
      "x": 161,
      "y": 359,
      "size": 1,
      "price": "4683000000000000000000",
      "reserved": "",
      "salt": "0xe98028e4dee7cf4ca21c1b43d10bd051f1ae352069e989933eaea08240517ae5",
      "assetIds": [
        "55464657044963196816950587289035428064568320970692304673817341489687757334528",
        "55464657044963196816950587289035428064568320970692304673817341489687757334529",
        "55464657044963196816950587289035428064568320970692304673817341489687757334530",
        "55464657044963196816950587289035428064568320970692304673817341489687757334531",
        "55464657044963196816950587289035428064568320970692304673817341489687757334532"
      ]
    },
    {
      "x": 161,
      "y": 360,
      "size": 1,
      "price": "4683000000000000000000",
      "reserved": "",
      "salt": "0xf5e4d7837952aba4ebf14e34b73a9ec4c13f9fc4cd96e6ad4272216c2dd75593",
      "assetIds": [
        "55464657044963196816950587289035428064568320970692304673817341489687757334528",
        "55464657044963196816950587289035428064568320970692304673817341489687757334529",
        "55464657044963196816950587289035428064568320970692304673817341489687757334530",
        "55464657044963196816950587289035428064568320970692304673817341489687757334531",
        "55464657044963196816950587289035428064568320970692304673817341489687757334532"
      ]
    },
    {
      "x": 161,
      "y": 361,
      "size": 1,
      "price": "1011000000000000000000",
      "reserved": "",
      "salt": "0x5e48b2c0d7a3c0a76f16e717754c17d4f7777a45cae282207c71715598b65008",
      "assetIds": []
    },
    {
      "x": 161,
      "y": 362,
      "size": 1,
      "price": "1011000000000000000000",
      "reserved": "",
      "salt": "0x1a89750e732c0380fbb53e4dd96c7f0b183cf00d0533e93e87259b5cedd65b9f",
      "assetIds": []
    },
    {
      "x": 161,
      "y": 363,
      "size": 1,
      "price": "1011000000000000000000",
      "reserved": "",
      "salt": "0x976d1d6953c07b9f60a30d05ee38a669d7c93d3e4c89077b229600699861a669",
      "assetIds": []
    },
    {
      "x": 161,
      "y": 364,
      "size": 1,
      "price": "1011000000000000000000",
      "reserved": "",
      "salt": "0xb45eed7ec32c34aecea49d51adf91b93a6b2e2719788cf205bff4333736c1764",
      "assetIds": []
    },
    {
      "x": 161,
      "y": 365,
      "size": 1,
      "price": "1011000000000000000000",
      "reserved": "",
      "salt": "0xba7100619e2886acd5e7ef448217c74d95aa52aceb0c91ad9446fe051fd21cb8",
      "assetIds": []
    },
    {
      "x": 161,
      "y": 366,
      "size": 1,
      "price": "1011000000000000000000",
      "reserved": "0x7a9fe22691c811ea339d9b73150e6911a5343dca",
      "salt": "0x9e06aaffec00b0e9aceccb2bf2b7cb234e242bc17018a3a4368eda0e4e2d4122",
      "assetIds": []
    },
    {
      "x": 161,
      "y": 367,
      "size": 1,
      "price": "1011000000000000000000",
      "reserved": "",
      "salt": "0x50c7fa12e5f53066f734b8af7397847651e3703ba377e44d139fc3252797f549",
      "assetIds": []
    },
    {
      "x": 161,
      "y": 368,
      "size": 1,
      "price": "1011000000000000000000",
      "reserved": "",
      "salt": "0x274ce49f753cd42a9b79ca745fd2fd6f177aed283945ada1722858b08c75bbf3",
      "assetIds": []
    },
    {
      "x": 161,
      "y": 384,
      "size": 1,
      "price": "1011000000000000000000",
      "reserved": "0x7a9fe22691c811ea339d9b73150e6911a5343dca",
      "salt": "0x8c71124c5a27eb2d1f816cde02db36915935fdbbd1c8493c1f1e6bfc16f7e765",
      "assetIds": []
    },
    {
      "x": 161,
      "y": 385,
      "size": 1,
      "price": "1011000000000000000000",
      "reserved": "",
      "salt": "0xb123c8641ce0877c2cb9477e556822456541fb3f1a348a57d3ffaa251fcf70af",
      "assetIds": []
    },
    {
      "x": 161,
      "y": 386,
      "size": 1,
      "price": "1011000000000000000000",
      "reserved": "0x7a9fe22691c811ea339d9b73150e6911a5343dca",
      "salt": "0x6454aa8298bb9d95459fe8450f01207b3ac29e4cc18f5c8a7eb433562239e877",
      "assetIds": []
    },
    {
      "x": 161,
      "y": 387,
      "size": 1,
      "price": "1011000000000000000000",
      "reserved": "0x7a9fe22691c811ea339d9b73150e6911a5343dca",
      "salt": "0xca6203aa36132fcaccda8b897a397888fec5e9bc4110919f7cba74428177f34d",
      "assetIds": []
    },
    {
      "x": 161,
      "y": 388,
      "size": 1,
      "price": "1011000000000000000000",
      "reserved": "",
      "salt": "0xa023b3cd6a03f7218b7df84df9d41e30e4db7e86b1d1ebe347c789530e2dd4f1",
      "assetIds": []
    },
    {
      "x": 161,
      "y": 389,
      "size": 1,
      "price": "1011000000000000000000",
      "reserved": "",
      "salt": "0xfa9d5a136208de1180b348efcb3b6879cf0352ef1f74b713456f519d49c44c5f",
      "assetIds": []
    },
    {
      "x": 161,
      "y": 390,
      "size": 1,
      "price": "1011000000000000000000",
      "reserved": "",
      "salt": "0x25b29565c5494651d458305cdf94ebd78cb947325c2d105ff7dc38df47828844",
      "assetIds": []
    },
    {
      "x": 161,
      "y": 391,
      "size": 1,
      "price": "1011000000000000000000",
      "reserved": "0x7a9fe22691c811ea339d9b73150e6911a5343dca",
      "salt": "0x756a97b297f150f11465b8a738530334481b1c2266aa281a00878a5c730d5da7",
      "assetIds": []
    },
    {
      "x": 161,
      "y": 392,
      "size": 1,
      "price": "1011000000000000000000",
      "reserved": "0x7a9fe22691c811ea339d9b73150e6911a5343dca",
      "salt": "0x72ba6985140d51e16c0a57c8737b5da01e73b84df507c2b78eb0eac89b2f0b5d",
      "assetIds": []
    },
    {
      "x": 161,
      "y": 393,
      "size": 1,
      "price": "1011000000000000000000",
      "reserved": "0x7a9fe22691c811ea339d9b73150e6911a5343dca",
      "salt": "0xd68d82bd0f4834d187e9b2d9e37d684b803832cbd7ebe653757e9589509a2411",
      "assetIds": []
    },
    {
      "x": 161,
      "y": 394,
      "size": 1,
      "price": "1011000000000000000000",
      "reserved": "",
      "salt": "0x1e27ffc00b14445d27371bba80704b6fb78fde813a1dcc923fb35d0b20065363",
      "assetIds": []
    },
    {
      "x": 161,
      "y": 395,
      "size": 1,
      "price": "1011000000000000000000",
      "reserved": "",
      "salt": "0x430b5db34fdfc55a09bbce7ec0bf93dcef5ab08d5c5679b97ba758bea5386190",
      "assetIds": []
    },
    {
      "x": 162,
      "y": 353,
      "size": 1,
      "price": "1011000000000000000000",
      "reserved": "",
      "salt": "0x2fe437e9b8e10596c777df5d743d16592f713a3fde08927edd01215514be159e",
      "assetIds": []
    },
    {
      "x": 162,
      "y": 360,
      "size": 1,
      "price": "4683000000000000000000",
      "reserved": "",
      "salt": "0x5b19a50c4208a8c22b0422d56c59127e9cd1ca49857682953a0bdb4e49f2e432",
      "assetIds": [
        "55464657044963196816950587289035428064568320970692304673817341489687757334528",
        "55464657044963196816950587289035428064568320970692304673817341489687757334529",
        "55464657044963196816950587289035428064568320970692304673817341489687757334530",
        "55464657044963196816950587289035428064568320970692304673817341489687757334531",
        "55464657044963196816950587289035428064568320970692304673817341489687757334532"
      ]
    },
    {
      "x": 162,
      "y": 361,
      "size": 1,
      "price": "1011000000000000000000",
      "reserved": "",
      "salt": "0xa66dc6c18cdf91e7531394b3b4643fe6865661c4c7672903af89bafaa1e6162e",
      "assetIds": []
    },
    {
      "x": 162,
      "y": 362,
      "size": 1,
      "price": "1011000000000000000000",
      "reserved": "0x7a9fe22691c811ea339d9b73150e6911a5343dca",
      "salt": "0xbcd0c151a43270644ec150533e8d4967a7492abffcf46a09843a3cc3996b138e",
      "assetIds": []
    },
    {
      "x": 162,
      "y": 363,
      "size": 1,
      "price": "1011000000000000000000",
      "reserved": "",
      "salt": "0x54a8ffc3d27e0e276496eb3cab90a953b3ec9e8a866f90effef060a900b33813",
      "assetIds": []
    },
    {
      "x": 162,
      "y": 364,
      "size": 1,
      "price": "1011000000000000000000",
      "reserved": "",
      "salt": "0x0335f0ed53ce3b7083cc1ba3e5beaebd7099e633c2440468d2fdd0a2094d0f14",
      "assetIds": []
    },
    {
      "x": 162,
      "y": 365,
      "size": 1,
      "price": "1011000000000000000000",
      "reserved": "0x7a9fe22691c811ea339d9b73150e6911a5343dca",
      "salt": "0xf8b73a695f3105de08f0d2e8f532aad99ec709b4a3d44c8f2818a0b1e1cb3a33",
      "assetIds": []
    },
    {
      "x": 162,
      "y": 384,
      "size": 1,
      "price": "1011000000000000000000",
      "reserved": "",
      "salt": "0x96063e2e92fb3ce410a3815a7c6f1052d56f874811f72e43611a0e522983df3d",
      "assetIds": []
    },
    {
      "x": 162,
      "y": 385,
      "size": 1,
      "price": "1011000000000000000000",
      "reserved": "",
      "salt": "0x07d3a1108a5bf5edc2ec39b93705604632f4d3962728201223e12b2a5d819b50",
      "assetIds": []
    },
    {
      "x": 162,
      "y": 386,
      "size": 1,
      "price": "1011000000000000000000",
      "reserved": "",
      "salt": "0x3b2d7c60558ab162309821aa6ab996c8aba6c942e5795a3c97aa66cadaa2016b",
      "assetIds": []
    },
    {
      "x": 162,
      "y": 387,
      "size": 1,
      "price": "1011000000000000000000",
      "reserved": "0x7a9fe22691c811ea339d9b73150e6911a5343dca",
      "salt": "0x2b5a11ee446fc9b657ee215abe53519ba315f8e5eb98cdf2d8c0f8816fa11901",
      "assetIds": []
    },
    {
      "x": 162,
      "y": 388,
      "size": 1,
      "price": "1011000000000000000000",
      "reserved": "",
      "salt": "0x63afbb3ed3757d641c160e04ca340afe6f85eb5a7511d14a8f1f2822091e2b93",
      "assetIds": []
    },
    {
      "x": 162,
      "y": 389,
      "size": 1,
      "price": "1011000000000000000000",
      "reserved": "0x7a9fe22691c811ea339d9b73150e6911a5343dca",
      "salt": "0xf04e6a984ac78e81b46f397918a2b094e30273bfec13f753b7ae6bd125604cc5",
      "assetIds": []
    },
    {
      "x": 162,
      "y": 390,
      "size": 1,
      "price": "1011000000000000000000",
      "reserved": "0x7a9fe22691c811ea339d9b73150e6911a5343dca",
      "salt": "0x285e5817a656acdedb3d1ba1aced7464ba2744827eb57284c09e54e90dca559c",
      "assetIds": []
    },
    {
      "x": 162,
      "y": 391,
      "size": 1,
      "price": "1011000000000000000000",
      "reserved": "",
      "salt": "0x2e3de1ec2f6a43c9a465cf362e4d9a2e7773a94499abb143a1bbaa922bfb613c",
      "assetIds": []
    },
    {
      "x": 162,
      "y": 392,
      "size": 1,
      "price": "1011000000000000000000",
      "reserved": "",
      "salt": "0xaef42ef272ac8009eb0202c687a2920c7be4df41d6588f0f0f17d626b018d766",
      "assetIds": []
    },
    {
      "x": 162,
      "y": 393,
      "size": 1,
      "price": "1011000000000000000000",
      "reserved": "",
      "salt": "0x6520850d854f1811fe7494aa60492888f3bdc11a5ddf0ef135c1aaf4023ac52b",
      "assetIds": []
    },
    {
      "x": 162,
      "y": 394,
      "size": 1,
      "price": "1011000000000000000000",
      "reserved": "",
      "salt": "0xaefbb5b4bfcd8dc7080e7453a4840c633a17465c2b4c5818baf6e7308cfe18db",
      "assetIds": []
    },
    {
      "x": 162,
      "y": 395,
      "size": 1,
      "price": "1011000000000000000000",
      "reserved": "",
      "salt": "0xfc5794f9b4f654e42aedb1425f78beb92ff03d2b496940d11ddeb3bf6d44ef0d",
      "assetIds": []
    },
    {
      "x": 163,
      "y": 353,
      "size": 1,
      "price": "1011000000000000000000",
      "reserved": "",
      "salt": "0x85a8c5b70f015e561aff91595e0da3a1c4d1eba650e82f34c54759a1035cfaa5",
      "assetIds": []
    },
    {
      "x": 163,
      "y": 360,
      "size": 1,
      "price": "4683000000000000000000",
      "reserved": "",
      "salt": "0xec806f99cf271b9c269f26cdaee276758e1228a28385a3d8bf24c465039441e8",
      "assetIds": [
        "55464657044963196816950587289035428064568320970692304673817341489687757334528",
        "55464657044963196816950587289035428064568320970692304673817341489687757334529",
        "55464657044963196816950587289035428064568320970692304673817341489687757334530",
        "55464657044963196816950587289035428064568320970692304673817341489687757334531",
        "55464657044963196816950587289035428064568320970692304673817341489687757334532"
      ]
    },
    {
      "x": 163,
      "y": 361,
      "size": 1,
      "price": "1011000000000000000000",
      "reserved": "",
      "salt": "0xe2ec3fe60260d5589e19ff752cc4572b565e8bcb00518d40bca2375dd28f4d41",
      "assetIds": []
    },
    {
      "x": 163,
      "y": 362,
      "size": 1,
      "price": "1011000000000000000000",
      "reserved": "",
      "salt": "0xfabda99acf723c2b9f10aedfb2896309fccdcbc8f4decadc2f8d5878d1576bc0",
      "assetIds": []
    },
    {
      "x": 163,
      "y": 363,
      "size": 1,
      "price": "1011000000000000000000",
      "reserved": "",
      "salt": "0x74724d833940cce2afc89e02474856f608b853e086b625caa2dcfb2145e41b52",
      "assetIds": []
    },
    {
      "x": 163,
      "y": 364,
      "size": 1,
      "price": "1011000000000000000000",
      "reserved": "",
      "salt": "0xf657bbc9a42fbeb2ad1b0bc2adf3cf05629f9bafc9ccc97c91acd2f30fa299f8",
      "assetIds": []
    },
    {
      "x": 163,
      "y": 365,
      "size": 1,
      "price": "1011000000000000000000",
      "reserved": "",
      "salt": "0xefffe4dbbcc6b3478a010e44200e1c7b4c7338408b25c487aa91750fa7d42b12",
      "assetIds": []
    },
    {
      "x": 163,
      "y": 384,
      "size": 1,
      "price": "1011000000000000000000",
      "reserved": "",
      "salt": "0x08552a944e40549ad835a7d0f35776144a2ca4f63e4aca4c558fbfae8456a7f6",
      "assetIds": []
    },
    {
      "x": 163,
      "y": 385,
      "size": 1,
      "price": "1011000000000000000000",
      "reserved": "0x7a9fe22691c811ea339d9b73150e6911a5343dca",
      "salt": "0xb543601191ee0c64b8940135925795ea15a67508e85b32566bb19c3d88650481",
      "assetIds": []
    },
    {
      "x": 163,
      "y": 386,
      "size": 1,
      "price": "1011000000000000000000",
      "reserved": "",
      "salt": "0xf17137c73e21bf9297d91ae9182a5e2934e4a3eaaa95999b320d6b3ef99de045",
      "assetIds": []
    },
    {
      "x": 163,
      "y": 387,
      "size": 1,
      "price": "1011000000000000000000",
      "reserved": "",
      "salt": "0xe76474d811595fa6f9076e95cb50a54618594e031e34abb1efb2e22f730ded02",
      "assetIds": []
    },
    {
      "x": 163,
      "y": 388,
      "size": 1,
      "price": "1011000000000000000000",
      "reserved": "",
      "salt": "0x40ebb4b919b5db5666718d92adaeed2b1d01db574daf20d7f47c485968f7c5f2",
      "assetIds": []
    },
    {
      "x": 163,
      "y": 389,
      "size": 1,
      "price": "1011000000000000000000",
      "reserved": "",
      "salt": "0xde60db5b3c467bc7dd62d908e0380c0808d2cf034f3693ebff4d8071258c9983",
      "assetIds": []
    },
    {
      "x": 163,
      "y": 390,
      "size": 1,
      "price": "1011000000000000000000",
      "reserved": "",
      "salt": "0x939ed1e43c75cfc512cb520d7ee3904958d5f5c15c39e453c60d81db1817f3e1",
      "assetIds": []
    },
    {
      "x": 163,
      "y": 391,
      "size": 1,
      "price": "1011000000000000000000",
      "reserved": "",
      "salt": "0x97dcc72d75750a2d53045672c05f6bd7f2c837cef8355df3e41f56b9bdde115e",
      "assetIds": []
    },
    {
      "x": 163,
      "y": 392,
      "size": 1,
      "price": "1011000000000000000000",
      "reserved": "0x7a9fe22691c811ea339d9b73150e6911a5343dca",
      "salt": "0x9a86ad5bc109597ab069239365c620f1ddf8e367dacdee48e52e57c30069b900",
      "assetIds": []
    },
    {
      "x": 163,
      "y": 393,
      "size": 1,
      "price": "1011000000000000000000",
      "reserved": "",
      "salt": "0xd54cc25bf483d9a0f0bdbb5b7eaeaf3e489bcf4ea27bb8a0c4053bb64a163da5",
      "assetIds": []
    },
    {
      "x": 163,
      "y": 394,
      "size": 1,
      "price": "1011000000000000000000",
      "reserved": "0x7a9fe22691c811ea339d9b73150e6911a5343dca",
      "salt": "0xeeb8c48264543a88bb9cf941c19dbb61c873a75acc6e9e85a987dc6ee5f11fa2",
      "assetIds": []
    },
    {
      "x": 163,
      "y": 395,
      "size": 1,
      "price": "1011000000000000000000",
      "reserved": "",
      "salt": "0xa1b147f27be12b4ebee42391d5d4ed30eec74412a4ef44ab64cfce260984f68a",
      "assetIds": []
    },
    {
      "x": 164,
      "y": 353,
      "size": 1,
      "price": "1011000000000000000000",
      "reserved": "",
      "salt": "0xd5743d95870e9cabf69cf51de3403115286b68ecfd485b4e4a45f9d87232dc3f",
      "assetIds": []
    },
    {
      "x": 164,
      "y": 360,
      "size": 1,
      "price": "1011000000000000000000",
      "reserved": "0x7a9fe22691c811ea339d9b73150e6911a5343dca",
      "salt": "0x5c35e5bbb99c7139d5976f6b4cf2a87b0802323911b0348933022d23601b2be3",
      "assetIds": []
    },
    {
      "x": 164,
      "y": 361,
      "size": 1,
      "price": "1011000000000000000000",
      "reserved": "",
      "salt": "0x97e3e01cf04f5840b4ecf9913cd7c49e68a9068eea799592381c53cad8ca7605",
      "assetIds": []
    },
    {
      "x": 164,
      "y": 362,
      "size": 1,
      "price": "1011000000000000000000",
      "reserved": "",
      "salt": "0xda78f91f2734d233b68807cdc33c29ef0b9167b0f8b72405a41b5de2466e8b8f",
      "assetIds": []
    },
    {
      "x": 164,
      "y": 363,
      "size": 1,
      "price": "1011000000000000000000",
      "reserved": "0x7a9fe22691c811ea339d9b73150e6911a5343dca",
      "salt": "0xa9161937af755580984df47ddf6c5d52caec7cd29406d6c34458e294e0cce0c2",
      "assetIds": []
    },
    {
      "x": 164,
      "y": 364,
      "size": 1,
      "price": "1011000000000000000000",
      "reserved": "",
      "salt": "0xadd60af423269f0d6149e3158375a18823fd27e75e35c152ad88693206d52bd5",
      "assetIds": []
    },
    {
      "x": 164,
      "y": 365,
      "size": 1,
      "price": "1011000000000000000000",
      "reserved": "0x7a9fe22691c811ea339d9b73150e6911a5343dca",
      "salt": "0x874b7947f589527dc17244bde674b8a873b0d957c355eb07a2dc55f39b3301da",
      "assetIds": []
    },
    {
      "x": 164,
      "y": 384,
      "size": 1,
      "price": "1011000000000000000000",
      "reserved": "",
      "salt": "0x45e3a4800725cdfd99a0e45bd0d628335ffd57de4af90799762741028cd834ad",
      "assetIds": []
    },
    {
      "x": 164,
      "y": 385,
      "size": 1,
      "price": "1011000000000000000000",
      "reserved": "",
      "salt": "0x4d6cdf91b061d04af47ddef4c4f07773a5d58f6385df83b88cd38787957d0373",
      "assetIds": []
    },
    {
      "x": 164,
      "y": 386,
      "size": 1,
      "price": "1011000000000000000000",
      "reserved": "",
      "salt": "0x11fcefb002cae8c98d171637325f8d5cde06f697decc8d032fb7d71fa745d573",
      "assetIds": []
    },
    {
      "x": 164,
      "y": 387,
      "size": 1,
      "price": "1011000000000000000000",
      "reserved": "",
      "salt": "0xab3a7ae2d1f44bc9cfe41de9f1b5d6b9a59eb5200c9f1a4657896e9d175af704",
      "assetIds": []
    },
    {
      "x": 164,
      "y": 388,
      "size": 1,
      "price": "1011000000000000000000",
      "reserved": "0x7a9fe22691c811ea339d9b73150e6911a5343dca",
      "salt": "0x2ac34ef92e3fdd123f07acfbb5b1a1b454e0d076d48474019dfaeb00b7164fc7",
      "assetIds": []
    },
    {
      "x": 164,
      "y": 389,
      "size": 1,
      "price": "1011000000000000000000",
      "reserved": "",
      "salt": "0x6fc7d4a89d176caf0223aaf5f656c311ea5d8d5dafbe5c348d83947044d6d761",
      "assetIds": []
    },
    {
      "x": 164,
      "y": 390,
      "size": 1,
      "price": "1011000000000000000000",
      "reserved": "",
      "salt": "0x3709ccee020a4560fce85c657d5e21ed89b986d0516cc23d3b87ee470eff15b9",
      "assetIds": []
    },
    {
      "x": 164,
      "y": 391,
      "size": 1,
      "price": "1011000000000000000000",
      "reserved": "",
      "salt": "0xa2ee29f8ec0cdb33f1d02aa7c7d3fc061c9adbb5e521318c3f9d331201cee505",
      "assetIds": []
    },
    {
      "x": 164,
      "y": 392,
      "size": 1,
      "price": "1011000000000000000000",
      "reserved": "",
      "salt": "0xb03639e19fdcbf8d467405722e32ca279044f0d94b1e421230e81a829da7bdac",
      "assetIds": []
    },
    {
      "x": 164,
      "y": 393,
      "size": 1,
      "price": "1011000000000000000000",
      "reserved": "",
      "salt": "0x2bc3511e1fa07fbf36a3fca771edf80074eab469beed9973ea79784be8ca5bf8",
      "assetIds": []
    },
    {
      "x": 164,
      "y": 394,
      "size": 1,
      "price": "1011000000000000000000",
      "reserved": "",
      "salt": "0x3181acb0eddebc6f55f3fac5f3dfcb0dd451bb6e44c975612cc78ac760096073",
      "assetIds": []
    },
    {
      "x": 164,
      "y": 395,
      "size": 1,
      "price": "1011000000000000000000",
      "reserved": "",
      "salt": "0xcc2d6f6967853b1b4ce523ecd3d8da3b2d7feb0f7b0ea058bd2aa8ea16178ee1",
      "assetIds": []
    },
    {
      "x": 165,
      "y": 353,
      "size": 1,
      "price": "1011000000000000000000",
      "reserved": "",
      "salt": "0xf274bf29e3a484e1a0fd5256c683b886a83474e288b1bd22a9764b8f28daff4c",
      "assetIds": []
    },
    {
      "x": 165,
      "y": 360,
      "size": 1,
      "price": "4683000000000000000000",
      "reserved": "",
      "salt": "0x27195b6d4918fc48d38e48bd20571d001c83da43d7228f922ab21ffdc6159215",
      "assetIds": [
        "55464657044963196816950587289035428064568320970692304673817341489687757334528",
        "55464657044963196816950587289035428064568320970692304673817341489687757334529",
        "55464657044963196816950587289035428064568320970692304673817341489687757334530",
        "55464657044963196816950587289035428064568320970692304673817341489687757334531",
        "55464657044963196816950587289035428064568320970692304673817341489687757334532"
      ]
    },
    {
      "x": 165,
      "y": 361,
      "size": 1,
      "price": "1011000000000000000000",
      "reserved": "",
      "salt": "0x1f9c220675cc091b252c8fbef01224bfc2a7377ebdf22d0acb24347440a8e3f1",
      "assetIds": []
    },
    {
      "x": 165,
      "y": 362,
      "size": 1,
      "price": "1011000000000000000000",
      "reserved": "",
      "salt": "0x297fbfdf52db0f6e7d123a5ad578245813b503fdd4d2730c9d7d3731b0bc7867",
      "assetIds": []
    },
    {
      "x": 165,
      "y": 363,
      "size": 1,
      "price": "1011000000000000000000",
      "reserved": "0x7a9fe22691c811ea339d9b73150e6911a5343dca",
      "salt": "0x314947238e6eceab39148021c2678aa6705e9ea62a3e13141d336795ecc425ec",
      "assetIds": []
    },
    {
      "x": 165,
      "y": 364,
      "size": 1,
      "price": "4683000000000000000000",
      "reserved": "",
      "salt": "0x7b6c6ca53149c7eff6f673da34a9a167d5e764e60a6b09b24dd70d8b3ef035b9",
      "assetIds": [
        "55464657044963196816950587289035428064568320970692304673817341489687757334528",
        "55464657044963196816950587289035428064568320970692304673817341489687757334529",
        "55464657044963196816950587289035428064568320970692304673817341489687757334530",
        "55464657044963196816950587289035428064568320970692304673817341489687757334531",
        "55464657044963196816950587289035428064568320970692304673817341489687757334532"
      ]
    },
    {
      "x": 165,
      "y": 365,
      "size": 1,
      "price": "4683000000000000000000",
      "reserved": "",
      "salt": "0x1efef42356eedd66d58e1a0c44c9be15bb037ff5f05fd527fafa08a7d6d7b70e",
      "assetIds": [
        "55464657044963196816950587289035428064568320970692304673817341489687757334528",
        "55464657044963196816950587289035428064568320970692304673817341489687757334529",
        "55464657044963196816950587289035428064568320970692304673817341489687757334530",
        "55464657044963196816950587289035428064568320970692304673817341489687757334531",
        "55464657044963196816950587289035428064568320970692304673817341489687757334532"
      ]
    },
    {
      "x": 165,
      "y": 384,
      "size": 1,
      "price": "1011000000000000000000",
      "reserved": "0x7a9fe22691c811ea339d9b73150e6911a5343dca",
      "salt": "0x8b45aabe450d4264b9ab9d887fdae46017a17706fb0f105d710348927d88e4a8",
      "assetIds": []
    },
    {
      "x": 165,
      "y": 385,
      "size": 1,
      "price": "1011000000000000000000",
      "reserved": "",
      "salt": "0x9adfa6adeca148e8ddd9f5e39d145e0b4569e2a719e42c185a22913bdf59d628",
      "assetIds": []
    },
    {
      "x": 165,
      "y": 386,
      "size": 1,
      "price": "1011000000000000000000",
      "reserved": "",
      "salt": "0x31a2d391cce8dceabb64c5428fd1f3fd881e8ad6ed498501cc61b04da0a3f477",
      "assetIds": []
    },
    {
      "x": 165,
      "y": 387,
      "size": 1,
      "price": "1011000000000000000000",
      "reserved": "",
      "salt": "0xa59adb971a88616640098786235ddcd4d8df2a3ad65920cf649437ad88a7966c",
      "assetIds": []
    },
    {
      "x": 165,
      "y": 388,
      "size": 1,
      "price": "1011000000000000000000",
      "reserved": "",
      "salt": "0x187777412e2b426d3bd966c8ca4853b6af709c4d53031d0b72ce2c1cbae5febf",
      "assetIds": []
    },
    {
      "x": 165,
      "y": 389,
      "size": 1,
      "price": "1011000000000000000000",
      "reserved": "",
      "salt": "0xa2cd75e5ae85cdbf025e4894c2a920d789494a2aea7116ccbf1acefd48d9160f",
      "assetIds": []
    },
    {
      "x": 165,
      "y": 390,
      "size": 1,
      "price": "1011000000000000000000",
      "reserved": "",
      "salt": "0xdc0e7f3109df7d45a52395b3f874c5c3887e82002db3fd9a90a2b9dead1cd6aa",
      "assetIds": []
    },
    {
      "x": 165,
      "y": 391,
      "size": 1,
      "price": "1011000000000000000000",
      "reserved": "",
      "salt": "0x0200bb27fe365887c3abadd72bf83fd15ac909dd1b9e5aa7c3040ac36de427f3",
      "assetIds": []
    },
    {
      "x": 165,
      "y": 392,
      "size": 1,
      "price": "1011000000000000000000",
      "reserved": "",
      "salt": "0x650eeb8eb6a04b378ddc31461fbcc5bef2628d14228256419b29307d496e08d6",
      "assetIds": []
    },
    {
      "x": 165,
      "y": 393,
      "size": 1,
      "price": "1011000000000000000000",
      "reserved": "0x7a9fe22691c811ea339d9b73150e6911a5343dca",
      "salt": "0xa5ffdda79040b1e894294bc03236b67263e4535281fbbf1a3074406639374407",
      "assetIds": []
    },
    {
      "x": 165,
      "y": 394,
      "size": 1,
      "price": "1011000000000000000000",
      "reserved": "",
      "salt": "0x9c21fc791a0cad9761f9c5c133e92661c3aee33c516d7d0c7a845e87f803d5ac",
      "assetIds": []
    },
    {
      "x": 165,
      "y": 395,
      "size": 1,
      "price": "1011000000000000000000",
      "reserved": "0x7a9fe22691c811ea339d9b73150e6911a5343dca",
      "salt": "0xd41e1802b308a76cd2c76e27355ad8f326483beb9796034a8d0d1a5b4efb6f09",
      "assetIds": []
    },
    {
      "x": 166,
      "y": 353,
      "size": 1,
      "price": "1011000000000000000000",
      "reserved": "",
      "salt": "0xee209b14b20297b3ecb40bd99e39dccda6fab3203677c9da57dd796db21cc4f4",
      "assetIds": []
    },
    {
      "x": 166,
      "y": 360,
      "size": 1,
      "price": "4683000000000000000000",
      "reserved": "",
      "salt": "0xa9206c932b896e4eb86e1e8b0b54b4222008e3feb5fd7c27480f9c24b66e0c68",
      "assetIds": [
        "55464657044963196816950587289035428064568320970692304673817341489687757334528",
        "55464657044963196816950587289035428064568320970692304673817341489687757334529",
        "55464657044963196816950587289035428064568320970692304673817341489687757334530",
        "55464657044963196816950587289035428064568320970692304673817341489687757334531",
        "55464657044963196816950587289035428064568320970692304673817341489687757334532"
      ]
    },
    {
      "x": 166,
      "y": 361,
      "size": 1,
      "price": "4683000000000000000000",
      "reserved": "",
      "salt": "0x30759a01a3fb06a0d628ce052d6c59887144236aef92faefe0654fad4ff29ad6",
      "assetIds": [
        "55464657044963196816950587289035428064568320970692304673817341489687757334528",
        "55464657044963196816950587289035428064568320970692304673817341489687757334529",
        "55464657044963196816950587289035428064568320970692304673817341489687757334530",
        "55464657044963196816950587289035428064568320970692304673817341489687757334531",
        "55464657044963196816950587289035428064568320970692304673817341489687757334532"
      ]
    },
    {
      "x": 166,
      "y": 362,
      "size": 1,
      "price": "1011000000000000000000",
      "reserved": "",
      "salt": "0xcd58ef96a8a92023aaa61a7c32c48f0135d6eaeb9985293b8ab71f706539fd50",
      "assetIds": []
    },
    {
      "x": 166,
      "y": 363,
      "size": 1,
      "price": "4683000000000000000000",
      "reserved": "",
      "salt": "0xb8463956d2fddba5fb60ad050a9595b2a0d4bec24658f141c5434fb70e029431",
      "assetIds": [
        "55464657044963196816950587289035428064568320970692304673817341489687757334528",
        "55464657044963196816950587289035428064568320970692304673817341489687757334529",
        "55464657044963196816950587289035428064568320970692304673817341489687757334530",
        "55464657044963196816950587289035428064568320970692304673817341489687757334531",
        "55464657044963196816950587289035428064568320970692304673817341489687757334532"
      ]
    },
    {
      "x": 166,
      "y": 364,
      "size": 1,
      "price": "4683000000000000000000",
      "reserved": "",
      "salt": "0xb237c167656b0d324eacdd8514fe62af4a4713b61d69100e8f1e729632bec04d",
      "assetIds": [
        "55464657044963196816950587289035428064568320970692304673817341489687757334528",
        "55464657044963196816950587289035428064568320970692304673817341489687757334529",
        "55464657044963196816950587289035428064568320970692304673817341489687757334530",
        "55464657044963196816950587289035428064568320970692304673817341489687757334531",
        "55464657044963196816950587289035428064568320970692304673817341489687757334532"
      ]
    },
    {
      "x": 166,
      "y": 365,
      "size": 1,
      "price": "4683000000000000000000",
      "reserved": "",
      "salt": "0xbb41f5fa66f63398abb44c7afcde3cd41e73ae826d125c48dfd57b88827d6d36",
      "assetIds": [
        "55464657044963196816950587289035428064568320970692304673817341489687757334528",
        "55464657044963196816950587289035428064568320970692304673817341489687757334529",
        "55464657044963196816950587289035428064568320970692304673817341489687757334530",
        "55464657044963196816950587289035428064568320970692304673817341489687757334531",
        "55464657044963196816950587289035428064568320970692304673817341489687757334532"
      ]
    },
    {
      "x": 166,
      "y": 384,
      "size": 1,
      "price": "1011000000000000000000",
      "reserved": "",
      "salt": "0xa344262f86f00c45a815be2307cc09355868b32c43bafbb8a461d0e1eabb765a",
      "assetIds": []
    },
    {
      "x": 166,
      "y": 385,
      "size": 1,
      "price": "1011000000000000000000",
      "reserved": "",
      "salt": "0x85a78e9e13d26313f3b954ae2876e8e1843560eec19cf694bb756cc32fa514c4",
      "assetIds": []
    },
    {
      "x": 166,
      "y": 386,
      "size": 1,
      "price": "1011000000000000000000",
      "reserved": "",
      "salt": "0xbcd53536c392f30ae2fb85bfad652cb2eee56a6a1a38a697fb12d684a884a7de",
      "assetIds": []
    },
    {
      "x": 166,
      "y": 387,
      "size": 1,
      "price": "1011000000000000000000",
      "reserved": "",
      "salt": "0x790ed7f2badda26da3f9669aee2d04acd900c6b35de7346cbe78573cf11d09d8",
      "assetIds": []
    },
    {
      "x": 166,
      "y": 388,
      "size": 1,
      "price": "1011000000000000000000",
      "reserved": "",
      "salt": "0xe37c7daebbf040bf18aaf3cb94c72f1a40dfd88e507672a19ec98e1bfa327906",
      "assetIds": []
    },
    {
      "x": 166,
      "y": 389,
      "size": 1,
      "price": "1011000000000000000000",
      "reserved": "",
      "salt": "0x0f6ac3a9ce5ef7eabcb86aef9b3f82a62db2acacb7e0854147ce5b8078b2babf",
      "assetIds": []
    },
    {
      "x": 166,
      "y": 390,
      "size": 1,
      "price": "1011000000000000000000",
      "reserved": "",
      "salt": "0x5286c23ff02ca768ac63cb2a001d62ac754d0921b9e937f1e8dff35b2ce7bac7",
      "assetIds": []
    },
    {
      "x": 166,
      "y": 391,
      "size": 1,
      "price": "1011000000000000000000",
      "reserved": "",
      "salt": "0x3996cc8a964f45359e4aa95b0c60e0f7115de935a5ff93ed14e2e8252cc6a2d2",
      "assetIds": []
    },
    {
      "x": 166,
      "y": 392,
      "size": 1,
      "price": "1011000000000000000000",
      "reserved": "0x7a9fe22691c811ea339d9b73150e6911a5343dca",
      "salt": "0x5eb30772552c8ef061959ede4e27961ae2bb55daaa9dc3d6adf9e6e4851dae7d",
      "assetIds": []
    },
    {
      "x": 166,
      "y": 393,
      "size": 1,
      "price": "1011000000000000000000",
      "reserved": "",
      "salt": "0x438066c73a263af418743b703d03db3c7ac9bdab75f9e4b59b0996255de9feed",
      "assetIds": []
    },
    {
      "x": 166,
      "y": 394,
      "size": 1,
      "price": "1011000000000000000000",
      "reserved": "",
      "salt": "0x72af7720941a5add124dec3cdc848ca930cd32c95b5fa1e5daceb41acb17775f",
      "assetIds": []
    },
    {
      "x": 166,
      "y": 395,
      "size": 1,
      "price": "1011000000000000000000",
      "reserved": "",
      "salt": "0x249bf4543b0d2ff6e866780cd14f2f37f894c08d57e1c4d43511edca19073925",
      "assetIds": []
    },
    {
      "x": 167,
      "y": 353,
      "size": 1,
      "price": "1011000000000000000000",
      "reserved": "",
      "salt": "0xd217154812f9add835f66561e7e0de31c32d6e899b7c05613e1a0976c6f1a7c4",
      "assetIds": []
    },
    {
      "x": 167,
      "y": 360,
      "size": 1,
      "price": "4683000000000000000000",
      "reserved": "",
      "salt": "0x0776bc204cbe414ad3fdb1da4e6ee81acc867ea5d866ec974fb4f1f69315c89e",
      "assetIds": [
        "55464657044963196816950587289035428064568320970692304673817341489687757334528",
        "55464657044963196816950587289035428064568320970692304673817341489687757334529",
        "55464657044963196816950587289035428064568320970692304673817341489687757334530",
        "55464657044963196816950587289035428064568320970692304673817341489687757334531",
        "55464657044963196816950587289035428064568320970692304673817341489687757334532"
      ]
    },
    {
      "x": 167,
      "y": 361,
      "size": 1,
      "price": "4683000000000000000000",
      "reserved": "",
      "salt": "0xe9b90eb15832bae64d5b4a27a3b1da89cc023a8e4819ac180ace6552e0b744b4",
      "assetIds": [
        "55464657044963196816950587289035428064568320970692304673817341489687757334528",
        "55464657044963196816950587289035428064568320970692304673817341489687757334529",
        "55464657044963196816950587289035428064568320970692304673817341489687757334530",
        "55464657044963196816950587289035428064568320970692304673817341489687757334531",
        "55464657044963196816950587289035428064568320970692304673817341489687757334532"
      ]
    },
    {
      "x": 167,
      "y": 362,
      "size": 1,
      "price": "4683000000000000000000",
      "reserved": "",
      "salt": "0xd786af0b10bd09d528ec8935f177575c4de38c2e47ffb90207e1c10406d081d4",
      "assetIds": [
        "55464657044963196816950587289035428064568320970692304673817341489687757334528",
        "55464657044963196816950587289035428064568320970692304673817341489687757334529",
        "55464657044963196816950587289035428064568320970692304673817341489687757334530",
        "55464657044963196816950587289035428064568320970692304673817341489687757334531",
        "55464657044963196816950587289035428064568320970692304673817341489687757334532"
      ]
    },
    {
      "x": 167,
      "y": 363,
      "size": 1,
      "price": "4683000000000000000000",
      "reserved": "",
      "salt": "0xfdcf154f3510855dbacbb185618660f0a9bc1a621acad6048e9953d308c4cdaf",
      "assetIds": [
        "55464657044963196816950587289035428064568320970692304673817341489687757334528",
        "55464657044963196816950587289035428064568320970692304673817341489687757334529",
        "55464657044963196816950587289035428064568320970692304673817341489687757334530",
        "55464657044963196816950587289035428064568320970692304673817341489687757334531",
        "55464657044963196816950587289035428064568320970692304673817341489687757334532"
      ]
    },
    {
      "x": 167,
      "y": 364,
      "size": 1,
      "price": "4683000000000000000000",
      "reserved": "",
      "salt": "0xd3547f7cf89f565a7cc673599a7969083120aa6f36f5764b944ee8e7b462e770",
      "assetIds": [
        "55464657044963196816950587289035428064568320970692304673817341489687757334528",
        "55464657044963196816950587289035428064568320970692304673817341489687757334529",
        "55464657044963196816950587289035428064568320970692304673817341489687757334530",
        "55464657044963196816950587289035428064568320970692304673817341489687757334531",
        "55464657044963196816950587289035428064568320970692304673817341489687757334532"
      ]
    },
    {
      "x": 167,
      "y": 365,
      "size": 1,
      "price": "4683000000000000000000",
      "reserved": "",
      "salt": "0xa3742bd5c885de9848ff0c94e7d602c1f9729ff56f896d40972ffe0cb07602ba",
      "assetIds": [
        "55464657044963196816950587289035428064568320970692304673817341489687757334528",
        "55464657044963196816950587289035428064568320970692304673817341489687757334529",
        "55464657044963196816950587289035428064568320970692304673817341489687757334530",
        "55464657044963196816950587289035428064568320970692304673817341489687757334531",
        "55464657044963196816950587289035428064568320970692304673817341489687757334532"
      ]
    },
    {
      "x": 167,
      "y": 384,
      "size": 1,
      "price": "1011000000000000000000",
      "reserved": "",
      "salt": "0x81295d33aaf93f9c00cfa6ce246c23cb2ced1e5667a4011ad5f8282d55e914ba",
      "assetIds": []
    },
    {
      "x": 167,
      "y": 385,
      "size": 1,
      "price": "1011000000000000000000",
      "reserved": "",
      "salt": "0x135e79ed350edd8e490f3929c02baa15645837b46d163c1b221a6e28b6327046",
      "assetIds": []
    },
    {
      "x": 167,
      "y": 386,
      "size": 1,
      "price": "1011000000000000000000",
      "reserved": "",
      "salt": "0x15e106968c118643ccce281e59b4af5c78a4c29b829be6b27d8e00a67d8c2440",
      "assetIds": []
    },
    {
      "x": 167,
      "y": 387,
      "size": 1,
      "price": "1011000000000000000000",
      "reserved": "",
      "salt": "0xf5bd9933f709082b899556f4ee7c45b75a254571f93917464a128553d3b95f0b",
      "assetIds": []
    },
    {
      "x": 167,
      "y": 388,
      "size": 1,
      "price": "1011000000000000000000",
      "reserved": "",
      "salt": "0xa1a3527bc21dd828f3753a3bdf9d0506b62d29b700851e976823d6f9a784c49b",
      "assetIds": []
    },
    {
      "x": 167,
      "y": 389,
      "size": 1,
      "price": "1011000000000000000000",
      "reserved": "0x7a9fe22691c811ea339d9b73150e6911a5343dca",
      "salt": "0x71d4e9acbf25fe9b97df1f804465ff9d3313a7c12b8cf0ccf1f03b80d0a3d387",
      "assetIds": []
    },
    {
      "x": 167,
      "y": 390,
      "size": 1,
      "price": "1011000000000000000000",
      "reserved": "",
      "salt": "0x2cf348b8eedd251331ac02496fb4feae16b6b0db7f5c75f4227a3314b63feb79",
      "assetIds": []
    },
    {
      "x": 167,
      "y": 391,
      "size": 1,
      "price": "1011000000000000000000",
      "reserved": "",
      "salt": "0xdcc8dd3772005531df7aaba933a19e86a06a2d8d305dec1e01bc51acbd296aae",
      "assetIds": []
    },
    {
      "x": 167,
      "y": 392,
      "size": 1,
      "price": "1011000000000000000000",
      "reserved": "0x7a9fe22691c811ea339d9b73150e6911a5343dca",
      "salt": "0x64cbcea4e6edd3dee78862c5b7fffc5a131a588586cbdf823de4c6e1d76074a0",
      "assetIds": []
    },
    {
      "x": 167,
      "y": 393,
      "size": 1,
      "price": "1011000000000000000000",
      "reserved": "0x7a9fe22691c811ea339d9b73150e6911a5343dca",
      "salt": "0xec3ce992994d3daf7f813a26aac1041e76618abd84b0820d1cfdb35bdc4d10a6",
      "assetIds": []
    },
    {
      "x": 167,
      "y": 394,
      "size": 1,
      "price": "1011000000000000000000",
      "reserved": "",
      "salt": "0xd509d06416f409859af832699fca130b2712f2e642cc0e4a8213ec39846ab494",
      "assetIds": []
    },
    {
      "x": 167,
      "y": 395,
      "size": 1,
      "price": "1011000000000000000000",
      "reserved": "0x7a9fe22691c811ea339d9b73150e6911a5343dca",
      "salt": "0xd61e3cce342541cae69e34b45129316b75448fc315a8ac6fb208e6eee8ae8846",
      "assetIds": []
    },
    {
      "x": 168,
      "y": 384,
      "size": 1,
      "price": "1011000000000000000000",
      "reserved": "0x7a9fe22691c811ea339d9b73150e6911a5343dca",
      "salt": "0x86c114dfe3546f90e42a6e37ceddbbe66f004ae16c3dcb5c4ce216606cb4c4fb",
      "assetIds": []
    },
    {
      "x": 168,
      "y": 385,
      "size": 1,
      "price": "1011000000000000000000",
      "reserved": "",
      "salt": "0x10a3a01079bcb54cb08dfab62457bb9411870183767f9b548926d4ec08001b83",
      "assetIds": []
    },
    {
      "x": 168,
      "y": 386,
      "size": 1,
      "price": "1011000000000000000000",
      "reserved": "",
      "salt": "0x1f419826dd8b8910d3612951cd16f34e339f5284a3412bfd2c84bf872f6647e3",
      "assetIds": []
    },
    {
      "x": 168,
      "y": 387,
      "size": 1,
      "price": "1011000000000000000000",
      "reserved": "",
      "salt": "0x986d8b2a2515588210c0e1c10e05acaf8abba6f9bba1ba85361b79fa8a6872eb",
      "assetIds": []
    },
    {
      "x": 168,
      "y": 388,
      "size": 1,
      "price": "1011000000000000000000",
      "reserved": "",
      "salt": "0xe0fd0795c6647b549dde3d80572cf3d34eec76f713a87c057c445ef32f49a006",
      "assetIds": []
    },
    {
      "x": 168,
      "y": 389,
      "size": 1,
      "price": "1011000000000000000000",
      "reserved": "",
      "salt": "0x03801363c8a52c5d2c2fc4f71407ee4eef8347f3779c71fe8c6a76c77c167aff",
      "assetIds": []
    },
    {
      "x": 168,
      "y": 390,
      "size": 1,
      "price": "1011000000000000000000",
      "reserved": "",
      "salt": "0x32904233ad33f01fa5f006a8ec9a96b51bd0f6c83c770f015888955b47743d30",
      "assetIds": []
    },
    {
      "x": 168,
      "y": 391,
      "size": 1,
      "price": "1011000000000000000000",
      "reserved": "",
      "salt": "0xec4ab5a4ada5f505cd7d4324ee9157e62acb457a0098c4f9c59af58676936f4f",
      "assetIds": []
    },
    {
      "x": 168,
      "y": 392,
      "size": 1,
      "price": "1011000000000000000000",
      "reserved": "",
      "salt": "0xa042a28e3b5d3269fc8d5e1a2415cff34a6fbb4ea34f7f12e7f892b7a3506d8d",
      "assetIds": []
    },
    {
      "x": 168,
      "y": 393,
      "size": 1,
      "price": "1011000000000000000000",
      "reserved": "",
      "salt": "0xbc05914d35a448403ef6c707928414b5aba0e08d9faf51124598f2dbe70b109e",
      "assetIds": []
    },
    {
      "x": 168,
      "y": 394,
      "size": 1,
      "price": "1011000000000000000000",
      "reserved": "",
      "salt": "0x431e42c06fc27bd510973094e0087d0cd17c2ed6b02be126f9ab9b371bbb7b24",
      "assetIds": []
    },
    {
      "x": 168,
      "y": 395,
      "size": 1,
      "price": "1011000000000000000000",
      "reserved": "",
      "salt": "0x3975590ddf131efe7cfca77639194134057208cd9e5287c3799b46d65c8d6d1f",
      "assetIds": []
    },
    {
      "x": 169,
      "y": 384,
      "size": 1,
      "price": "1011000000000000000000",
      "reserved": "",
      "salt": "0x28028432267969585742748abd6ea77ff6a10ccf98daec73188f469d52159b4e",
      "assetIds": []
    },
    {
      "x": 169,
      "y": 385,
      "size": 1,
      "price": "1011000000000000000000",
      "reserved": "",
      "salt": "0xd646ee5926ec0fe1167294578b925d75277d10e827981260621499e9e9e739ac",
      "assetIds": []
    },
    {
      "x": 169,
      "y": 386,
      "size": 1,
      "price": "1011000000000000000000",
      "reserved": "",
      "salt": "0x80c01ae19e5ebd3272419c31ca3edb53fe1a28ae2c13c345bed1e5d015b23c7a",
      "assetIds": []
    },
    {
      "x": 169,
      "y": 387,
      "size": 1,
      "price": "1011000000000000000000",
      "reserved": "",
      "salt": "0xe261ad65c66304ccb767ee3cf0fde307dcf412759ac7f45b51d6b5672898df83",
      "assetIds": []
    },
    {
      "x": 169,
      "y": 388,
      "size": 1,
      "price": "1011000000000000000000",
      "reserved": "",
      "salt": "0x2d5c69bc3d85ff974a767f98bfaf104d14aac2f6935ed6091b789675a0ac5d8e",
      "assetIds": []
    },
    {
      "x": 169,
      "y": 389,
      "size": 1,
      "price": "1011000000000000000000",
      "reserved": "",
      "salt": "0xd80c98d0509e1bdd0000f780841372d22f920ac7c7d7a75449255f790906353e",
      "assetIds": []
    },
    {
      "x": 169,
      "y": 390,
      "size": 1,
      "price": "1011000000000000000000",
      "reserved": "",
      "salt": "0x64ed9d90cd6acfdc747905239721cf287dc510719b3a17424952f055947c2859",
      "assetIds": []
    },
    {
      "x": 169,
      "y": 391,
      "size": 1,
      "price": "1011000000000000000000",
      "reserved": "",
      "salt": "0xa989e868fd5688449620515f5f98d95dc389edaa4bc1b599d83545e860312da4",
      "assetIds": []
    },
    {
      "x": 169,
      "y": 392,
      "size": 1,
      "price": "1011000000000000000000",
      "reserved": "",
      "salt": "0xded39dbeee3521c5744184d27c02dd4ae704d1c64748097b106732b441534634",
      "assetIds": []
    },
    {
      "x": 169,
      "y": 393,
      "size": 1,
      "price": "1011000000000000000000",
      "reserved": "",
      "salt": "0x41589d82c8355dc32f99b3b4b032ce0b8f0bf5bdbe2c1fd463c06aeef0fee485",
      "assetIds": []
    },
    {
      "x": 169,
      "y": 394,
      "size": 1,
      "price": "1011000000000000000000",
      "reserved": "",
      "salt": "0x39f312766e224e2f1b0b50b6b7b87f84cdbd5978114044c069236f22383d1e85",
      "assetIds": []
    },
    {
      "x": 169,
      "y": 395,
      "size": 1,
      "price": "1011000000000000000000",
      "reserved": "",
      "salt": "0xe75c7cdf7033920e05be5fcb3e1abab81115444f0d25674e2961b57eafa7e043",
      "assetIds": []
    },
    {
      "x": 120,
      "y": 372,
      "size": 3,
      "price": "8648000000000000000000",
      "reserved": "0x7a9fe22691c811ea339d9b73150e6911a5343dca",
      "salt": "0x174ea84730a159c5c3bf050cd117426ffda68f03ea1275d61be3e5ce11e7f82f",
      "assetIds": []
    },
    {
      "x": 120,
      "y": 375,
      "size": 3,
      "price": "8648000000000000000000",
      "reserved": "0x7a9fe22691c811ea339d9b73150e6911a5343dca",
      "salt": "0xda94fe654b91be3d4c79c3860852d141ffd6e681c62f976fd013f407151c0136",
      "assetIds": []
    },
    {
      "x": 120,
      "y": 387,
      "size": 3,
      "price": "8648000000000000000000",
      "reserved": "0x7a9fe22691c811ea339d9b73150e6911a5343dca",
      "salt": "0x20083e86a0b65bbc09ed77d83663b67a5659938b99c979bec0bf033c1f5fcbdd",
      "assetIds": []
    },
    {
      "x": 120,
      "y": 393,
      "size": 3,
      "price": "8648000000000000000000",
      "reserved": "0x7a9fe22691c811ea339d9b73150e6911a5343dca",
      "salt": "0x3e7a9f8849d8541a1d814d67a539653cd545617afa64777deac62b85b30df920",
      "assetIds": []
    },
    {
      "x": 123,
      "y": 378,
      "size": 3,
      "price": "8648000000000000000000",
      "reserved": "0x7a9fe22691c811ea339d9b73150e6911a5343dca",
      "salt": "0x32d08487df0dbd13bdbc9d483ca46e61e5bbfd30a95138a4e605b16446271c0e",
      "assetIds": []
    },
    {
      "x": 126,
      "y": 357,
      "size": 3,
      "price": "8648000000000000000000",
      "reserved": "0x7a9fe22691c811ea339d9b73150e6911a5343dca",
      "salt": "0x9f5e110676a538954b0856e8f147fb0966eb5f5af72231f4c95f49d59d7a8a10",
      "assetIds": []
    },
    {
      "x": 129,
      "y": 366,
      "size": 3,
      "price": "8648000000000000000000",
      "reserved": "0x7a9fe22691c811ea339d9b73150e6911a5343dca",
      "salt": "0x7d658f5025e469eba760858fa47ce951f0e9c9f62c4974e6eb88e7863441ad0b",
      "assetIds": []
    },
    {
      "x": 132,
      "y": 390,
      "size": 3,
      "price": "8648000000000000000000",
      "reserved": "0x7a9fe22691c811ea339d9b73150e6911a5343dca",
      "salt": "0xe476d1a8d93bc54819de86948b95ccafb4a04966acc12de3e028da83dc0dd7a4",
      "assetIds": []
    },
    {
      "x": 135,
      "y": 393,
      "size": 3,
      "price": "8648000000000000000000",
      "reserved": "0x7a9fe22691c811ea339d9b73150e6911a5343dca",
      "salt": "0x2c693c3fd156155e8f7c85d9fee5713450eb02b91ae1449d88f0f78bea1b2822",
      "assetIds": []
    },
    {
      "x": 138,
      "y": 366,
      "size": 3,
      "price": "8648000000000000000000",
      "reserved": "0x7a9fe22691c811ea339d9b73150e6911a5343dca",
      "salt": "0x14d17882d82adf31ed85238fface22a363ee56f8d30a36fcd69a1eeb580266c3",
      "assetIds": []
    },
    {
      "x": 138,
      "y": 369,
      "size": 3,
      "price": "8648000000000000000000",
      "reserved": "0x7a9fe22691c811ea339d9b73150e6911a5343dca",
      "salt": "0xa129f1aed5afb838ea244fd68b1f3c9888b8b4f44ff25e96b29bbbd4a4790a92",
      "assetIds": []
    },
    {
      "x": 138,
      "y": 387,
      "size": 3,
      "price": "8648000000000000000000",
      "reserved": "0x7a9fe22691c811ea339d9b73150e6911a5343dca",
      "salt": "0x1607489897e33e5df32da9bdc31edbf289c6732a51218e4487b03864b4bc3f28",
      "assetIds": []
    },
    {
      "x": 141,
      "y": 366,
      "size": 3,
      "price": "8648000000000000000000",
      "reserved": "0x7a9fe22691c811ea339d9b73150e6911a5343dca",
      "salt": "0x917f5bea2b2d535a7e49a2c1c84a946d107a6b4a9c6cfb7459661e5b3569b648",
      "assetIds": []
    },
    {
      "x": 141,
      "y": 369,
      "size": 3,
      "price": "8648000000000000000000",
      "reserved": "0x7a9fe22691c811ea339d9b73150e6911a5343dca",
      "salt": "0xed50aa999da6350ed77ecbec2e46ada2267f37a36867cc3ef898ddae52e7a7f8",
      "assetIds": []
    },
    {
      "x": 141,
      "y": 396,
      "size": 3,
      "price": "8648000000000000000000",
      "reserved": "0x7a9fe22691c811ea339d9b73150e6911a5343dca",
      "salt": "0xde49534a5ec311f86d978fac6f910470afcaa19ef5d2090fc27414e573da6c31",
      "assetIds": []
    },
    {
      "x": 144,
      "y": 363,
      "size": 3,
      "price": "8648000000000000000000",
      "reserved": "0x7a9fe22691c811ea339d9b73150e6911a5343dca",
      "salt": "0x688b3169975cd8ea73546d89f3f2e4c6ff2e95ab3d070e056d6ce4f7ff34d516",
      "assetIds": []
    },
    {
      "x": 147,
      "y": 372,
      "size": 3,
      "price": "8648000000000000000000",
      "reserved": "0x7a9fe22691c811ea339d9b73150e6911a5343dca",
      "salt": "0xd8163b2df2e077b0c2f9325cfff208ed1ea3c9511bc7cadd30352a74ef4c5b8d",
      "assetIds": []
    },
    {
      "x": 150,
      "y": 357,
      "size": 3,
      "price": "8648000000000000000000",
      "reserved": "0x7a9fe22691c811ea339d9b73150e6911a5343dca",
      "salt": "0xe055ecabcd5e567d66dfa7fd6c14f8445592ae310bbe54a1982dd45f8e3cf1c4",
      "assetIds": []
    },
    {
      "x": 150,
      "y": 360,
      "size": 3,
      "price": "8648000000000000000000",
      "reserved": "0x7a9fe22691c811ea339d9b73150e6911a5343dca",
      "salt": "0xa0fcd36e7ebf07afb401e559e5422190ffe495d8f23e0b61145640acb63718f2",
      "assetIds": []
    },
    {
      "x": 150,
      "y": 375,
      "size": 3,
      "price": "8648000000000000000000",
      "reserved": "0x7a9fe22691c811ea339d9b73150e6911a5343dca",
      "salt": "0x54f16dad7ab776ed60b7b18aabba64fe873bd72dd0b8ad78b183c1103b614320",
      "assetIds": []
    },
    {
      "x": 153,
      "y": 357,
      "size": 3,
      "price": "8648000000000000000000",
      "reserved": "0x7a9fe22691c811ea339d9b73150e6911a5343dca",
      "salt": "0xed1b877b97f8967ed206808106e2847a72b954dca223dafa44182e070161c1c7",
      "assetIds": []
    },
    {
      "x": 153,
      "y": 360,
      "size": 3,
      "price": "8648000000000000000000",
      "reserved": "0x7a9fe22691c811ea339d9b73150e6911a5343dca",
      "salt": "0x7e9a3f38313dc21220c60e40e31c54cfd7b416f463a605f9deedde55569c8447",
      "assetIds": []
    },
    {
      "x": 159,
      "y": 369,
      "size": 3,
      "price": "8648000000000000000000",
      "reserved": "0x7a9fe22691c811ea339d9b73150e6911a5343dca",
      "salt": "0xa3d827ec72655eb0710a51bbd4b69778c203554cc9eefd808c641bf2ff2dc354",
      "assetIds": []
    },
    {
      "x": 120,
      "y": 348,
      "size": 6,
      "price": "32772000000000000000000",
      "reserved": "0x7a9fe22691c811ea339d9b73150e6911a5343dca",
      "salt": "0x654e4c7bd297c1801c04dea04c6faf320dd7f1ceadffe80eb6ed9b07e65726f8",
      "assetIds": []
    },
    {
      "x": 120,
      "y": 360,
      "size": 6,
      "price": "32772000000000000000000",
      "reserved": "0x7a9fe22691c811ea339d9b73150e6911a5343dca",
      "salt": "0x0383bc67b3f5fd9e4da152414940e8d11b41727f6bf84f9f6d9b13c022119e63",
      "assetIds": []
    },
    {
      "x": 120,
      "y": 396,
      "size": 6,
      "price": "32772000000000000000000",
      "reserved": "0x7a9fe22691c811ea339d9b73150e6911a5343dca",
      "salt": "0x8474640889530864a03c44cacbf87fe655230adf01938ce8d5dfd4cfe18d7382",
      "assetIds": []
    },
    {
      "x": 120,
      "y": 402,
      "size": 6,
      "price": "32772000000000000000000",
      "reserved": "0x7a9fe22691c811ea339d9b73150e6911a5343dca",
      "salt": "0xce1a3743bf6c0f8965b8cdb8311c1eaeaa24a4f89bc810f1847ca339282cb039",
      "assetIds": []
    },
    {
      "x": 126,
      "y": 372,
      "size": 6,
      "price": "32772000000000000000000",
      "reserved": "0x7a9fe22691c811ea339d9b73150e6911a5343dca",
      "salt": "0x09ac534290bff6280f6154b5cfb1231b78e793349d6ea1c23859e6ae2e1329f0",
      "assetIds": []
    },
    {
      "x": 126,
      "y": 384,
      "size": 6,
      "price": "32772000000000000000000",
      "reserved": "0x7a9fe22691c811ea339d9b73150e6911a5343dca",
      "salt": "0x06f62026f785e7b254adc993165a0ae66a8a17871dd33443916b3a152f6001a4",
      "assetIds": []
    },
    {
      "x": 126,
      "y": 390,
      "size": 6,
      "price": "32772000000000000000000",
      "reserved": "0x7a9fe22691c811ea339d9b73150e6911a5343dca",
      "salt": "0x5fc2ae77acc2e6b011d7d6b7cc8e4e88d56515d1adb6346dd1f1b0e1ed823c7c",
      "assetIds": []
    },
    {
      "x": 132,
      "y": 396,
      "size": 6,
      "price": "32772000000000000000000",
      "reserved": "0x7a9fe22691c811ea339d9b73150e6911a5343dca",
      "salt": "0xe365cddfdd7ad609ded85043394e136c3fada6af4b40f441e12e081b8a672d01",
      "assetIds": []
    },
    {
      "x": 138,
      "y": 402,
      "size": 6,
      "price": "32772000000000000000000",
      "reserved": "0x7a9fe22691c811ea339d9b73150e6911a5343dca",
      "salt": "0x4e1aad350a7bb4c998db69d47543e08b6f266c4e11d37bad5fe188174fe971cf",
      "assetIds": []
    },
    {
      "x": 150,
      "y": 366,
      "size": 6,
      "price": "32772000000000000000000",
      "reserved": "0x7a9fe22691c811ea339d9b73150e6911a5343dca",
      "salt": "0x6e7e20a56fe9c4817925e150d356c8406874569fe1bbb0a2c45889006dced03e",
      "assetIds": []
    },
    {
      "x": 150,
      "y": 378,
      "size": 6,
      "price": "32772000000000000000000",
      "reserved": "0x7a9fe22691c811ea339d9b73150e6911a5343dca",
      "salt": "0x2c1b15503e72c63debe684233ba8d8f147e977d9dd1f7482d51f9e9595b2c4bc",
      "assetIds": []
    },
    {
      "x": 150,
      "y": 390,
      "size": 6,
      "price": "32772000000000000000000",
      "reserved": "0x7a9fe22691c811ea339d9b73150e6911a5343dca",
      "salt": "0x7cba991adeb8c76de7219fc3adccb3999a37b400c3bf44fa8ec5da9b9af41d0f",
      "assetIds": []
    },
    {
      "x": 162,
      "y": 354,
      "size": 6,
      "price": "32772000000000000000000",
      "reserved": "0x7a9fe22691c811ea339d9b73150e6911a5343dca",
      "salt": "0x6d46167d931261d0db2b5590da72bc2fb3f1726fe9660513419d01aed2c29c49",
      "assetIds": []
    },
    {
      "x": 162,
      "y": 366,
      "size": 6,
      "price": "32772000000000000000000",
      "reserved": "0x7a9fe22691c811ea339d9b73150e6911a5343dca",
      "salt": "0x71030b7505c92462fd8e51d8abdecfcc72f16f02079234d598b061a67615df15",
      "assetIds": []
    },
    {
      "x": 132,
      "y": 348,
      "size": 12,
      "price": "123806000000000000000000",
      "reserved": "0x7a9fe22691c811ea339d9b73150e6911a5343dca",
      "salt": "0x6fd723a6a92fe8904ed9a8f3131e247384a1daf0ed441d18495dacc835e413cf",
      "assetIds": []
    },
    {
      "x": 132,
      "y": 372,
      "size": 12,
      "price": "123806000000000000000000",
      "reserved": "0x7a9fe22691c811ea339d9b73150e6911a5343dca",
      "salt": "0xabfacd68858581ee43ad4e26822ebe5807faeddc79cc64b8139d1c517a43e622",
      "assetIds": []
    },
    {
      "x": 156,
      "y": 372,
      "size": 12,
      "price": "123806000000000000000000",
      "reserved": "0x7a9fe22691c811ea339d9b73150e6911a5343dca",
      "salt": "0x90b28c936a3425a54a80d322972a62c5c0b5c274390e981792474aecaa4e1b34",
      "assetIds": []
    },
    {
      "x": 156,
      "y": 396,
      "size": 12,
      "price": "123806000000000000000000",
      "reserved": "0x7a9fe22691c811ea339d9b73150e6911a5343dca",
      "salt": "0xd015035b18addae7526553ee1c44353e482d80185ab2cb57ebc12d8898f7cab8",
      "assetIds": []
    },
    {
      "x": 168,
      "y": 348,
      "size": 12,
      "price": "123806000000000000000000",
      "reserved": "0x7a9fe22691c811ea339d9b73150e6911a5343dca",
      "salt": "0x4b97e7d2170deef7ae7ab967a8079f07b834a40242d5868340b8bc4905e1d878",
      "assetIds": []
    },
    {
      "x": 96,
      "y": 384,
      "size": 24,
      "price": "466102000000000000000000",
      "reserved": "0x7a9fe22691c811ea339d9b73150e6911a5343dca",
      "salt": "0x2ef45d96e5fe99e5c49cc4691ba30dcceae7fe91109035f279ebeb699a669ec0",
      "assetIds": []
    },
    {
      "x": 168,
      "y": 360,
      "size": 24,
      "price": "466102000000000000000000",
      "reserved": "0x7a9fe22691c811ea339d9b73150e6911a5343dca",
      "salt": "0x8053c1b5c8efabae717b707b66eae7a6c323374a584108cc508cc4f1b0ca5404",
      "assetIds": []
    }
  ],
  "solcInputHash": "313f455adab9ae93096e43acc50d7d38",
  "bytecode": "0x610160604052620d2f006005556103e860075534801561001e57600080fd5b5060405161242e38038061242e833981810160405261018081101561004257600080fd5b50805160208201516040830151606080850151608086015160a08088015160c0808a015160e08b01516101008c01516101208d01516101408e0151610160909e0151600280546001600160a01b0319166001600160a01b03861617905560038390558d8b1b6001600160601b0319908116909852998c901b909616909352999a9899979895979496929590949391926100dc8a600161014a565b600680546001600160a01b03199081166001600160a01b039a8b1617909155610140979097526101209590955260008054909616979096169690961790935550606093841b6001600160601b031990811660e05292841b831660805290921b1661010052506101ae92505050565b6001600160a01b038216600081815260016020908152604091829020805460ff191685151590811790915582519384529083015280517fb21eb88b4e33b3f1281830a7178d74d8aa73220416215726b68ae23d539515cb9281900390910190a15050565b60805160601c60a05160601c60c05160601c60e05160601c6101005160601c61012051610140516121fb610233600039806109375280611d44525080610913528061139a525080611da45250806115d252806116f4525080610c50528061159c5280611dd852508061166152806116c5525080610dfa528061190852506121fb6000f3fe608060405234801561001057600080fd5b50600436106101515760003560e01c8063984d6252116100cd578063dc5074af11610081578063ecb255b511610066578063ecb255b514610857578063f23a6e6114610874578063f2e7b3811461090957610151565b8063dc5074af14610814578063e56f8a9e1461083a57610151565b8063bc197c81116100b2578063bc197c81146105d3578063c10a420814610735578063caed35001461080c57610151565b8063984d6252146104db578063b522ecff146105ad57610151565b80636e9960c3116101245780638a04af6a116101095780638a04af6a1461032a5780638a12b82f146103585780638f283970146104b557610151565b80636e9960c3146102fe57806377f1c3ac1461032257610151565b806325cb5bc014610156578063495906571461017057806358bc29441461017857806365194ce7146101a0575b600080fd5b61015e610911565b60408051918252519081900360200190f35b61015e610935565b61019e6004803603602081101561018e57600080fd5b50356001600160a01b0316610959565b005b610246600480360360208110156101b657600080fd5b8101906020810181356401000000008111156101d157600080fd5b8201836020820111156101e357600080fd5b8035906020019184600183028401116401000000008311171561020557600080fd5b91908080601f016020809104026020016040519081016040528093929190818152602001838380828437600092019190915250929550610a04945050505050565b6040518080602001866001600160a01b03166001600160a01b03168152602001856001600160a01b03166001600160a01b03168152602001848152602001838152602001828103825287818151815260200191508051906020019080838360005b838110156102bf5781810151838201526020016102a7565b50505050905090810190601f1680156102ec5780820380516001836020036101000a031916815260200191505b50965050505050505060405180910390f35b610306610b09565b604080516001600160a01b039092168252519081900360200190f35b61015e610b18565b61019e6004803603604081101561034057600080fd5b506001600160a01b0381351690602001351515610b1e565b61019e600480360361018081101561036f57600080fd5b6001600160a01b038235811692602081013582169260408201359092169160608201359160808101359160a08201359160c08101359160e0820135916101008101359181019061014081016101208201356401000000008111156103d257600080fd5b8201836020820111156103e457600080fd5b8035906020019184602083028401116401000000008311171561040657600080fd5b91939092909160208101903564010000000081111561042457600080fd5b82018360208201111561043657600080fd5b8035906020019184602083028401116401000000008311171561045857600080fd5b91939092909160208101903564010000000081111561047657600080fd5b82018360208201111561048857600080fd5b803590602001918460018302840111640100000000831117156104aa57600080fd5b509092509050610b75565b61019e600480360360208110156104cb57600080fd5b50356001600160a01b0316610cc3565b61019e600480360360608110156104f157600080fd5b6001600160a01b03823516919081019060408101602082013564010000000081111561051c57600080fd5b82018360208201111561052e57600080fd5b8035906020019184602083028401116401000000008311171561055057600080fd5b91939092909160208101903564010000000081111561056e57600080fd5b82018360208201111561058057600080fd5b803590602001918460208302840111640100000000831117156105a257600080fd5b509092509050610d99565b61019e600480360360208110156105c357600080fd5b50356001600160a01b0316610f24565b610700600480360360a08110156105e957600080fd5b6001600160a01b03823581169260208101359091169181019060608101604082013564010000000081111561061d57600080fd5b82018360208201111561062f57600080fd5b8035906020019184602083028401116401000000008311171561065157600080fd5b91939092909160208101903564010000000081111561066f57600080fd5b82018360208201111561068157600080fd5b803590602001918460208302840111640100000000831117156106a357600080fd5b9193909290916020810190356401000000008111156106c157600080fd5b8201836020820111156106d357600080fd5b803590602001918460018302840111640100000000831117156106f557600080fd5b50909250905061100d565b604080517fffffffff000000000000000000000000000000000000000000000000000000009092168252519081900360200190f35b6107f8600480360360a081101561074b57600080fd5b81019060208101813564010000000081111561076657600080fd5b82018360208201111561077857600080fd5b8035906020019184600183028401116401000000008311171561079a57600080fd5b91908080601f016020809104026020016040519081016040528093929190818152602001838380828437600092019190915250929550506001600160a01b03833581169450602084013516926040810135925060600135905061103a565b604080519115158252519081900360200190f35b610306611176565b6107f86004803603602081101561082a57600080fd5b50356001600160a01b0316611185565b61019e6004803603602081101561085057600080fd5b50356111a3565b61019e6004803603602081101561086d57600080fd5b5035611207565b610700600480360360a081101561088a57600080fd5b6001600160a01b03823581169260208101359091169160408201359160608101359181019060a0810160808201356401000000008111156108ca57600080fd5b8201836020820111156108dc57600080fd5b803590602001918460018302840111640100000000831117156108fe57600080fd5b50909250905061126b565b61015e611296565b7f000000000000000000000000000000000000000000000000000000000000000090565b7f000000000000000000000000000000000000000000000000000000000000000090565b6000546001600160a01b031633146109b8576040805162461bcd60e51b815260206004820152601060248201527f53656e646572206e6f742061646d696e00000000000000000000000000000000604482015290519081900360640190fd5b600554600280546001600160a01b03908116600090815260046020526040902042909301909255805473ffffffffffffffffffffffffffffffffffffffff191692909116919091179055565b606060008060008060606000806000808a80602001905160a0811015610a2957600080fd5b8101908080516040519392919084640100000000821115610a4957600080fd5b908301906020820185811115610a5e57600080fd5b8251640100000000811182820188101715610a7857600080fd5b82525081516020918201929091019080838360005b83811015610aa5578181015183820152602001610a8d565b50505050905090810190601f168015610ad25780820380516001836020036101000a031916815260200191505b5060409081526020820151908201516060830151608090930151959f50909d509b5099509197505050505050505091939590929450565b6000546001600160a01b031690565b60035490565b6000546001600160a01b03163314610b675760405162461bcd60e51b815260040180806020018281038252602e815260200180612198602e913960400191505060405180910390fd5b610b71828261129c565b5050565b610b7f898961131e565b610c048f8e8e8e8e8e8d8d8d80806020026020016040519081016040528093929190818152602001838360200280828437600081840152601f19601f820116905080830192505050505050508c8c8080602002602001604051908101604052809392919081815260200183836020028082843760009201919091525061139892505050565b610c458f8984848080601f01602080910402602001604051908101604052809392919081815260200183838082843760009201919091525061157592505050565b610c758f8f8e8e8e8d7f00000000000000000000000000000000000000000000000000000000000000008f6115c6565b610cb28e87878080602002602001604051908101604052809392919081815260200183836020028082843760009201919091525061189192505050565b505050505050505050505050505050565b6000546001600160a01b03163314610d22576040805162461bcd60e51b815260206004820152601b60248201527f6f6e6c792061646d696e2063616e206368616e67652061646d696e0000000000604482015290519081900360640190fd5b600054604080516001600160a01b039283168152918316602083015280517f7e644d79422f17c01e4894b5f4f588d331ebfa28653d42ae832dc59e38c9798f9281900390910190a16000805473ffffffffffffffffffffffffffffffffffffffff19166001600160a01b0392909216919091179055565b6000546001600160a01b03163314610df8576040805162461bcd60e51b815260206004820152600e60248201527f4e4f545f415554484f52495a4544000000000000000000000000000000000000604482015290519081900360640190fd5b7f00000000000000000000000000000000000000000000000000000000000000006001600160a01b0316632eb2c2d63087878787876040518763ffffffff1660e01b815260040180876001600160a01b03166001600160a01b03168152602001866001600160a01b03166001600160a01b031681526020018060200180602001806020018481038452888882818152602001925060200280828437600083820152601f01601f19169091018581038452868152602090810191508790870280828437600081840152601f19601f8201169050808301925050508481038252600081526020016020019950505050505050505050600060405180830381600087803b158015610f0557600080fd5b505af1158015610f19573d6000803e3d6000fd5b505050505050505050565b6001600160a01b038116610f7f576040805162461bcd60e51b815260206004820152600c60248201527f5a45524f5f414444524553530000000000000000000000000000000000000000604482015290519081900360640190fd5b6000546001600160a01b03163314610fde576040805162461bcd60e51b815260206004820152600e60248201527f4e4f545f415554484f52495a4544000000000000000000000000000000000000604482015290519081900360640190fd5b6006805473ffffffffffffffffffffffffffffffffffffffff19166001600160a01b0392909216919091179055565b7fbc197c810000000000000000000000000000000000000000000000000000000098975050505050505050565b600060035482118061105d5750836001600160a01b0316856001600160a01b0316145b8061106757508242115b156110745750600061116d565b60408051606087811b7fffffffffffffffffffffffffffffffffffffffff0000000000000000000000009081166020808501919091529188901b166034830152604882018690526068808301869052835180840390910181526088830184528051908201207f19457468657265756d205369676e6564204d6573736167653a0a33320000000060a884015260c48084018290528451808503909101815260e4909301909352815191012060009061112b9089611a55565b6001600160a01b03811660009081526004602052604090205490915042116111585760019250505061116d565b6002546001600160a01b039081169116149150505b95945050505050565b6002546001600160a01b031690565b6001600160a01b031660009081526001602052604090205460ff1690565b6000546001600160a01b03163314611202576040805162461bcd60e51b815260206004820152601060248201527f53656e646572206e6f742061646d696e00000000000000000000000000000000604482015290519081900360640190fd5b600355565b6000546001600160a01b03163314611266576040805162461bcd60e51b815260206004820152600e60248201527f4e4f545f415554484f52495a4544000000000000000000000000000000000000604482015290519081900360640190fd5b600755565b7ff23a6e61000000000000000000000000000000000000000000000000000000009695505050505050565b60075490565b6001600160a01b03821660008181526001602090815260409182902080547fffffffffffffffffffffffffffffffffffffffffffffffffffffffffffffff001685151590811790915582519384529083015280517fb21eb88b4e33b3f1281830a7178d74d8aa73220416215726b68ae23d539515cb9281900390910190a15050565b6113456103e861133960075485611b2290919063ffffffff16565b9063ffffffff611b9816565b8114610b71576040805162461bcd60e51b815260206004820152600d60248201527f494e56414c49445f505249434500000000000000000000000000000000000000604482015290519081900360640190fd5b7f0000000000000000000000000000000000000000000000000000000000000000421061140c576040805162461bcd60e51b815260206004820152600c60248201527f53414c455f49535f4f5645520000000000000000000000000000000000000000604482015290519081900360640190fd5b6001600160a01b03891633148061143257503360009081526001602052604090205460ff165b611483576040805162461bcd60e51b815260206004820152600e60248201527f4e4f545f415554484f52495a4544000000000000000000000000000000000000604482015290519081900360640190fd5b6001600160a01b03881615806114aa5750886001600160a01b0316886001600160a01b0316145b6114fb576040805162461bcd60e51b815260206004820152600d60248201527f52455345525645445f4c414e4400000000000000000000000000000000000000604482015290519081900360640190fd5b600061150c888888888d8989611bfd565b90506115188282611ca2565b611569576040805162461bcd60e51b815260206004820152600c60248201527f494e56414c49445f4c414e440000000000000000000000000000000000000000604482015290519081900360640190fd5b50505050505050505050565b60006115818484611d6b565b6006549091506115c0908590839085906001600160a01b03167f0000000000000000000000000000000000000000000000000000000000000000611eb8565b50505050565b83600114806115fc57507f00000000000000000000000000000000000000000000000000000000000000006001600160a01b0316155b156116c357604080517f6e1e3bbf0000000000000000000000000000000000000000000000000000000081526001600160a01b03898116600483015260248201879052604482018990526064820188905260a06084830152600060a4830181905292517f000000000000000000000000000000000000000000000000000000000000000090911692636e1e3bbf9260e4808201939182900301818387803b1580156116a657600080fd5b505af11580156116ba573d6000803e3d6000fd5b50505050611827565b7f00000000000000000000000000000000000000000000000000000000000000006001600160a01b0316636e1e3bbf7f00000000000000000000000000000000000000000000000000000000000000008689898c60405160200180826001600160a01b03166001600160a01b031681526020019150506040516020818303038152906040526040518663ffffffff1660e01b815260040180866001600160a01b03166001600160a01b0316815260200185815260200184815260200183815260200180602001828103825283818151815260200191508051906020019080838360005b838110156117be5781810151838201526020016117a6565b50505050905090810190601f1680156117eb5780820380516001836020036101000a031916815260200191505b509650505050505050600060405180830381600087803b15801561180e57600080fd5b505af1158015611822573d6000803e3d6000fd5b505050505b60408051858152602081018590526001600160a01b03848116828401526060820184905291516101988802890192808b1692908c16917fe4dfa6ac11314892f3029b34a25b1a887da3b1cab2bbf8506d87128ba6e3ac029181900360800190a45050505050505050565b6060815167ffffffffffffffff811180156118ab57600080fd5b506040519080825280602002602001820160405280156118d5578160200160208202803683370190505b50905060005b82518110156119055760018282815181106118f257fe5b60209081029190910101526001016118db565b507f00000000000000000000000000000000000000000000000000000000000000006001600160a01b0316632eb2c2d6308585856040518563ffffffff1660e01b815260040180856001600160a01b03166001600160a01b03168152602001846001600160a01b03166001600160a01b03168152602001806020018060200180602001848103845286818151815260200191508051906020019060200280838360005b838110156119c05781810151838201526020016119a8565b50505050905001848103835285818151815260200191508051906020019060200280838360005b838110156119ff5781810151838201526020016119e7565b50505050905001848103825260008152602001602001975050505050505050600060405180830381600087803b158015611a3857600080fd5b505af1158015611a4c573d6000803e3d6000fd5b50505050505050565b60008151604114611a6557600080fd5b60208201516040830151606084015160001a601b811015611a8457601b015b8060ff16601b1480611a9957508060ff16601c145b611aa257600080fd5b6040805160008152602080820180845289905260ff8416828401526060820186905260808201859052915160019260a0808401939192601f1981019281900390910190855afa158015611af9573d6000803e3d6000fd5b5050604051601f1901519450506001600160a01b038416611b1957600080fd5b50505092915050565b600082611b3157506000611b92565b5081810281838281611b3f57fe5b0414611b92576040805162461bcd60e51b815260206004820152600860248201527f6f766572666c6f77000000000000000000000000000000000000000000000000604482015290519081900360640190fd5b92915050565b600081611bec576040805162461bcd60e51b815260206004820152600960248201527f64697662797a65726f0000000000000000000000000000000000000000000000604482015290519081900360640190fd5b818381611bf557fe5b049392505050565b60008787878787878760405160200180888152602001878152602001868152602001858152602001846001600160a01b03166001600160a01b031660601b8152601401838152602001828051906020019060200280838360005b83811015611c6f578181015183820152602001611c57565b50505050905001975050505050505050604051602081830303815290604052805190602001209050979650505050505050565b600081815b8451811015611d41576000858281518110611cbe57fe5b6020026020010151905080831015611d065782816040516020018083815260200182815260200192505050604051602081830303815290604052805190602001209250611d38565b808360405160200180838152602001828152602001925050506040516020818303038152906040528051906020012092505b50600101611ca7565b507f0000000000000000000000000000000000000000000000000000000000000000149392505050565b600080611d84606461133985600563ffffffff611b2216565b604080516323b872dd60e01b81526001600160a01b0387811660048301527f0000000000000000000000000000000000000000000000000000000000000000811660248301526044820184905291519293507f0000000000000000000000000000000000000000000000000000000000000000909116916323b872dd916064808201926020929091908290030181600087803b158015611e2357600080fd5b505af1158015611e37573d6000803e3d6000fd5b505050506040513d6020811015611e4d57600080fd5b5051611ea0576040805162461bcd60e51b815260206004820152601360248201527f4645455f5452414e534645525f4641494c454400000000000000000000000000604482015290519081900360640190fd5b611eb0838263ffffffff61213a16565b949350505050565b82518190859015612062576060600080600080611ed48a610a04565b9398509196509450925090506000611eef868686868661103a565b15611f7d57611f09611f018d84611b22565b612710611b98565b9050886001600160a01b0316846001600160a01b0316866001600160a01b03167fac7a699eb95c3c6d390ec4626de17ef9a67b35891efdb197beba7c7fdd45fac48f858760405180848152602001838152602001828152602001935050505060405180910390a4611f7a878261213a565b96505b801561205b57604080516323b872dd60e01b81526001600160a01b038f811660048301528781166024830152604482018490529151918a16916323b872dd916064808201926020929091908290030181600087803b158015611fde57600080fd5b505af1158015611ff2573d6000803e3d6000fd5b505050506040513d602081101561200857600080fd5b505161205b576040805162461bcd60e51b815260206004820152601960248201527f636f6d6d6973696f6e207472616e73666572206661696c656400000000000000604482015290519081900360640190fd5b5050505050505b604080516323b872dd60e01b81526001600160a01b0389811660048301528681166024830152604482018490529151918416916323b872dd916064808201926020929091908290030181600087803b1580156120bd57600080fd5b505af11580156120d1573d6000803e3d6000fd5b505050506040513d60208110156120e757600080fd5b5051611a4c576040805162461bcd60e51b815260206004820152601760248201527f7061796d656e74207472616e73666572206661696c6564000000000000000000604482015290519081900360640190fd5b600082821115612191576040805162461bcd60e51b815260206004820152600860248201527f756e6465666c6f77000000000000000000000000000000000000000000000000604482015290519081900360640190fd5b5090039056fe6f6e6c792061646d696e2063616e207365747570206d6574615472616e73616374696f6e50726f636573736f7273a26469706673582212200ff38c5741c66b2a22a9a9ee2abe0f55626323082b6b4443921fd3b25484584a64736f6c63430006050033",
  "devdoc": {
    "methods": {
      "buyLandWithSand(address,address,address,uint256,uint256,uint256,uint256,uint256,bytes32,uint256[],bytes32[],bytes)": {
        "params": {
          "buyer": "address that perform the payment",
          "priceInSand": "price in SAND to purchase that Land",
          "proof": "merkleProof for that particular Land",
          "reserved": "the reserved address (if any)",
          "size": "size of the pack of Land to purchase",
          "to": "address that will own the purchased Land",
          "x": "x coordinate of the Land",
          "y": "y coordinate of the Land"
        }
      },
      "changeAdmin(address)": {
        "details": "change the administrator to be `newAdmin`.",
        "params": {
          "newAdmin": "address of the new administrator."
        }
      },
      "getAdmin()": {
        "details": "gives the current administrator of this contract.",
        "returns": {
          "_0": "the current administrator of this contract."
        }
      },
      "getSigningWallet()": {
        "details": "signing wallet authorized for referral",
        "returns": {
          "_0": "the address of the signing wallet"
        }
      },
      "isMetaTransactionProcessor(address)": {
        "details": "check whether address `who` is given meta-transaction execution rights.",
        "params": {
          "who": "The address to query."
        },
        "returns": {
          "_0": "whether the address has meta-transaction execution rights."
        }
      },
      "isReferralValid(bytes,address,address,uint256,uint256)": {
        "params": {
          "commissionRate": "The commissionRate of the referral",
          "expiryTime": "The expiry time of the referral",
          "referee": "The address of the referee",
          "referrer": "The address of the referrer",
          "signature": "The signature to check (signed referral)"
        },
        "returns": {
          "_0": "True if the referral is valid"
        }
      },
      "setMetaTransactionProcessor(address,bool)": {
        "details": "Enable or disable the ability of `metaTransactionProcessor` to perform meta-tx (metaTransactionProcessor rights).",
        "params": {
          "enabled": "set whether the metaTransactionProcessor is enabled or disabled.",
          "metaTransactionProcessor": "address that will be given/removed metaTransactionProcessor rights."
        }
      },
      "setReceivingWallet(address)": {
        "params": {
          "newWallet": "address of the new receiving wallet"
        }
      },
      "updateMaxCommissionRate(uint256)": {
        "details": "Update the maximum commission rate",
        "params": {
          "newMaxCommissionRate": "The new maximum commission rate"
        }
      },
      "updateSigningWallet(address)": {
        "details": "Update the signing wallet",
        "params": {
          "newSigningWallet": "The new address of the signing wallet"
        }
      },
      "withdrawAssets(address,uint256[],uint256[])": {
        "params": {
          "assetIds": "the assetIds to be transferred",
          "to": "intended recipient of the asset tokens",
          "values": "the quantities of the assetIds to be transferred"
        }
      }
    },
    "title": "Estate Sale contract with referral"
  },
  "userdoc": {
    "methods": {
      "buyLandWithSand(address,address,address,uint256,uint256,uint256,uint256,uint256,bytes32,uint256[],bytes32[],bytes)": {
        "notice": "buy Land with SAND using the merkle proof associated with it"
      },
      "getExpiryTime()": {
        "notice": "Gets the expiry time for the current sale"
      },
      "getMaxCommisionRate()": {
        "notice": "the max commision rate"
      },
      "getMerkleRoot()": {
        "notice": "Gets the Merkle root associated with the current sale"
      },
      "isReferralValid(bytes,address,address,uint256,uint256)": {
        "notice": "Check if a referral is valid"
      },
      "setReceivingWallet(address)": {
        "notice": "set the wallet receiving the proceeds"
      },
      "withdrawAssets(address,uint256[],uint256[])": {
        "notice": "enable Admin to withdraw remaining assets from EstateSaleWithFee contract"
      }
    },
    "notice": "This contract manages the sale of our lands as Estates"
  },
  "storageLayout": {
    "storage": [
      {
        "astId": 12779,
        "contract": "src/solc_0.6/EstateSale/EstateSaleWithFee.sol:EstateSaleWithFee",
        "label": "_admin",
        "offset": 0,
        "slot": "0",
        "type": "t_address"
      },
      {
        "astId": 12841,
        "contract": "src/solc_0.6/EstateSale/EstateSaleWithFee.sol:EstateSaleWithFee",
        "label": "_metaTransactionContracts",
        "offset": 0,
        "slot": "1",
        "type": "t_mapping(t_address,t_bool)"
      },
      {
        "astId": 10957,
        "contract": "src/solc_0.6/EstateSale/EstateSaleWithFee.sol:EstateSaleWithFee",
        "label": "_signingWallet",
        "offset": 0,
        "slot": "2",
        "type": "t_address"
      },
      {
        "astId": 10959,
        "contract": "src/solc_0.6/EstateSale/EstateSaleWithFee.sol:EstateSaleWithFee",
        "label": "_maxCommissionRate",
        "offset": 0,
        "slot": "3",
        "type": "t_uint256"
      },
      {
        "astId": 10963,
        "contract": "src/solc_0.6/EstateSale/EstateSaleWithFee.sol:EstateSaleWithFee",
        "label": "_previousSigningWallets",
        "offset": 0,
        "slot": "4",
        "type": "t_mapping(t_address,t_uint256)"
      },
      {
        "astId": 10972,
        "contract": "src/solc_0.6/EstateSale/EstateSaleWithFee.sol:EstateSaleWithFee",
        "label": "_previousSigningDelay",
        "offset": 0,
        "slot": "5",
        "type": "t_uint256"
      },
      {
        "astId": 7344,
        "contract": "src/solc_0.6/EstateSale/EstateSaleWithFee.sol:EstateSaleWithFee",
        "label": "_wallet",
        "offset": 0,
        "slot": "6",
        "type": "t_address_payable"
      },
      {
        "astId": 7354,
        "contract": "src/solc_0.6/EstateSale/EstateSaleWithFee.sol:EstateSaleWithFee",
        "label": "_multiplier",
        "offset": 0,
        "slot": "7",
        "type": "t_uint256"
      }
    ],
    "types": {
      "t_address": {
        "encoding": "inplace",
        "label": "address",
        "numberOfBytes": "20"
      },
      "t_address_payable": {
        "encoding": "inplace",
        "label": "address payable",
        "numberOfBytes": "20"
      },
      "t_bool": {
        "encoding": "inplace",
        "label": "bool",
        "numberOfBytes": "1"
      },
      "t_mapping(t_address,t_bool)": {
        "encoding": "mapping",
        "key": "t_address",
        "label": "mapping(address => bool)",
        "numberOfBytes": "32",
        "value": "t_bool"
      },
      "t_mapping(t_address,t_uint256)": {
        "encoding": "mapping",
        "key": "t_address",
        "label": "mapping(address => uint256)",
        "numberOfBytes": "32",
        "value": "t_uint256"
      },
      "t_uint256": {
        "encoding": "inplace",
        "label": "uint256",
        "numberOfBytes": "32"
      }
    }
  }
}