{
  "abi": [
    {
      "inputs": [
        {
          "internalType": "address",
          "name": "starterPackAdmin",
          "type": "address"
        },
        {
          "internalType": "address",
          "name": "sandContractAddress",
          "type": "address"
        },
        {
          "internalType": "address",
          "name": "initialMetaTx",
          "type": "address"
        },
        {
          "internalType": "address payable",
          "name": "initialWalletAddress",
          "type": "address"
        },
        {
          "internalType": "address",
          "name": "medianizerContractAddress",
          "type": "address"
        },
        {
          "internalType": "address",
          "name": "daiTokenContractAddress",
          "type": "address"
        },
        {
          "internalType": "address",
          "name": "erc20GroupCatalystAddress",
          "type": "address"
        },
        {
          "internalType": "address",
          "name": "erc20GroupGemAddress",
          "type": "address"
        },
        {
          "internalType": "address",
          "name": "initialSigningWallet",
          "type": "address"
        },
        {
          "internalType": "uint256[]",
          "name": "initialStarterPackPrices",
          "type": "uint256[]"
        },
        {
          "internalType": "uint256",
          "name": "initialGemPrice",
          "type": "uint256"
        }
      ],
      "stateMutability": "nonpayable",
      "type": "constructor"
    },
    {
      "anonymous": false,
      "inputs": [
        {
          "indexed": false,
          "internalType": "address",
          "name": "oldAdmin",
          "type": "address"
        },
        {
          "indexed": false,
          "internalType": "address",
          "name": "newAdmin",
          "type": "address"
        }
      ],
      "name": "AdminChanged",
      "type": "event"
    },
    {
      "anonymous": false,
      "inputs": [
        {
          "indexed": false,
          "internalType": "address",
          "name": "metaTransactionProcessor",
          "type": "address"
        },
        {
          "indexed": false,
          "internalType": "bool",
          "name": "enabled",
          "type": "bool"
        }
      ],
      "name": "MetaTransactionProcessor",
      "type": "event"
    },
    {
      "anonymous": false,
      "inputs": [
        {
          "indexed": true,
          "internalType": "address",
          "name": "buyer",
          "type": "address"
        },
        {
          "components": [
            {
              "internalType": "uint256[]",
              "name": "catalystIds",
              "type": "uint256[]"
            },
            {
              "internalType": "uint256[]",
              "name": "catalystQuantities",
              "type": "uint256[]"
            },
            {
              "internalType": "uint256[]",
              "name": "gemIds",
              "type": "uint256[]"
            },
            {
              "internalType": "uint256[]",
              "name": "gemQuantities",
              "type": "uint256[]"
            },
            {
              "internalType": "uint256",
              "name": "nonce",
              "type": "uint256"
            }
          ],
          "indexed": false,
          "internalType": "struct StarterPackV1.Message",
          "name": "message",
          "type": "tuple"
        },
        {
          "indexed": false,
          "internalType": "uint256",
          "name": "price",
          "type": "uint256"
        },
        {
          "indexed": false,
          "internalType": "address",
          "name": "token",
          "type": "address"
        },
        {
          "indexed": false,
          "internalType": "uint256",
          "name": "amountPaid",
          "type": "uint256"
        }
      ],
      "name": "Purchase",
      "type": "event"
    },
    {
      "anonymous": false,
      "inputs": [
        {
          "indexed": false,
          "internalType": "uint256[]",
          "name": "prices",
          "type": "uint256[]"
        },
        {
          "indexed": false,
          "internalType": "uint256",
          "name": "gemPrice",
          "type": "uint256"
        }
      ],
      "name": "SetPrices",
      "type": "event"
    },
    {
      "inputs": [
        {
          "internalType": "address",
          "name": "newAdmin",
          "type": "address"
        }
      ],
      "name": "changeAdmin",
      "outputs": [],
      "stateMutability": "nonpayable",
      "type": "function"
    },
    {
      "inputs": [],
      "name": "getAdmin",
      "outputs": [
        {
          "internalType": "address",
          "name": "",
          "type": "address"
        }
      ],
      "stateMutability": "view",
      "type": "function"
    },
    {
      "inputs": [
        {
          "internalType": "uint256",
          "name": "sandAmount",
          "type": "uint256"
        }
      ],
      "name": "getEtherAmountWithSAND",
      "outputs": [
        {
          "internalType": "uint256",
          "name": "",
          "type": "uint256"
        }
      ],
      "stateMutability": "view",
      "type": "function"
    },
    {
      "inputs": [
        {
          "internalType": "address",
          "name": "_buyer",
          "type": "address"
        },
        {
          "internalType": "uint128",
          "name": "_queueId",
          "type": "uint128"
        }
      ],
      "name": "getNonceByBuyer",
      "outputs": [
        {
          "internalType": "uint128",
          "name": "",
          "type": "uint128"
        }
      ],
      "stateMutability": "view",
      "type": "function"
    },
    {
      "inputs": [],
      "name": "getPrices",
      "outputs": [
        {
          "internalType": "uint256[]",
          "name": "pricesBeforeSwitch",
          "type": "uint256[]"
        },
        {
          "internalType": "uint256[]",
          "name": "pricesAfterSwitch",
          "type": "uint256[]"
        },
        {
          "internalType": "uint256",
          "name": "gemPriceBeforeSwitch",
          "type": "uint256"
        },
        {
          "internalType": "uint256",
          "name": "gemPriceAfterSwitch",
          "type": "uint256"
        },
        {
          "internalType": "uint256",
          "name": "switchTime",
          "type": "uint256"
        }
      ],
      "stateMutability": "view",
      "type": "function"
    },
    {
      "inputs": [],
      "name": "getSigningWallet",
      "outputs": [
        {
          "internalType": "address",
          "name": "",
          "type": "address"
        }
      ],
      "stateMutability": "view",
      "type": "function"
    },
    {
      "inputs": [],
      "name": "isDAIEnabled",
      "outputs": [
        {
          "internalType": "bool",
          "name": "",
          "type": "bool"
        }
      ],
      "stateMutability": "view",
      "type": "function"
    },
    {
      "inputs": [],
      "name": "isETHEnabled",
      "outputs": [
        {
          "internalType": "bool",
          "name": "",
          "type": "bool"
        }
      ],
      "stateMutability": "view",
      "type": "function"
    },
    {
      "inputs": [
        {
          "internalType": "address",
          "name": "who",
          "type": "address"
        }
      ],
      "name": "isMetaTransactionProcessor",
      "outputs": [
        {
          "internalType": "bool",
          "name": "",
          "type": "bool"
        }
      ],
      "stateMutability": "view",
      "type": "function"
    },
    {
      "inputs": [
        {
          "internalType": "address",
          "name": "buyer",
          "type": "address"
        },
        {
          "internalType": "uint256[]",
          "name": "catalystIds",
          "type": "uint256[]"
        },
        {
          "internalType": "uint256[]",
          "name": "catalystQuantities",
          "type": "uint256[]"
        },
        {
          "internalType": "uint256[]",
          "name": "gemIds",
          "type": "uint256[]"
        },
        {
          "internalType": "uint256[]",
          "name": "gemQuantities",
          "type": "uint256[]"
        },
        {
          "internalType": "uint256",
          "name": "nonce",
          "type": "uint256"
        },
        {
          "internalType": "bytes",
          "name": "signature",
          "type": "bytes"
        }
      ],
      "name": "isPurchaseValid",
      "outputs": [
        {
          "internalType": "bool",
          "name": "",
          "type": "bool"
        }
      ],
      "stateMutability": "nonpayable",
      "type": "function"
    },
    {
      "inputs": [],
      "name": "isSANDEnabled",
      "outputs": [
        {
          "internalType": "bool",
          "name": "",
          "type": "bool"
        }
      ],
      "stateMutability": "view",
      "type": "function"
    },
    {
      "inputs": [
        {
          "internalType": "address",
          "name": "buyer",
          "type": "address"
        },
        {
          "components": [
            {
              "internalType": "uint256[]",
              "name": "catalystIds",
              "type": "uint256[]"
            },
            {
              "internalType": "uint256[]",
              "name": "catalystQuantities",
              "type": "uint256[]"
            },
            {
              "internalType": "uint256[]",
              "name": "gemIds",
              "type": "uint256[]"
            },
            {
              "internalType": "uint256[]",
              "name": "gemQuantities",
              "type": "uint256[]"
            },
            {
              "internalType": "uint256",
              "name": "nonce",
              "type": "uint256"
            }
          ],
          "internalType": "struct StarterPackV1.Message",
          "name": "message",
          "type": "tuple"
        },
        {
          "internalType": "bytes",
          "name": "signature",
          "type": "bytes"
        }
      ],
      "name": "purchaseWithDAI",
      "outputs": [],
      "stateMutability": "nonpayable",
      "type": "function"
    },
    {
      "inputs": [
        {
          "internalType": "address",
          "name": "buyer",
          "type": "address"
        },
        {
          "components": [
            {
              "internalType": "uint256[]",
              "name": "catalystIds",
              "type": "uint256[]"
            },
            {
              "internalType": "uint256[]",
              "name": "catalystQuantities",
              "type": "uint256[]"
            },
            {
              "internalType": "uint256[]",
              "name": "gemIds",
              "type": "uint256[]"
            },
            {
              "internalType": "uint256[]",
              "name": "gemQuantities",
              "type": "uint256[]"
            },
            {
              "internalType": "uint256",
              "name": "nonce",
              "type": "uint256"
            }
          ],
          "internalType": "struct StarterPackV1.Message",
          "name": "message",
          "type": "tuple"
        },
        {
          "internalType": "bytes",
          "name": "signature",
          "type": "bytes"
        }
      ],
      "name": "purchaseWithETH",
      "outputs": [],
      "stateMutability": "payable",
      "type": "function"
    },
    {
      "inputs": [
        {
          "internalType": "address",
          "name": "buyer",
          "type": "address"
        },
        {
          "components": [
            {
              "internalType": "uint256[]",
              "name": "catalystIds",
              "type": "uint256[]"
            },
            {
              "internalType": "uint256[]",
              "name": "catalystQuantities",
              "type": "uint256[]"
            },
            {
              "internalType": "uint256[]",
              "name": "gemIds",
              "type": "uint256[]"
            },
            {
              "internalType": "uint256[]",
              "name": "gemQuantities",
              "type": "uint256[]"
            },
            {
              "internalType": "uint256",
              "name": "nonce",
              "type": "uint256"
            }
          ],
          "internalType": "struct StarterPackV1.Message",
          "name": "message",
          "type": "tuple"
        },
        {
          "internalType": "bytes",
          "name": "signature",
          "type": "bytes"
        }
      ],
      "name": "purchaseWithSand",
      "outputs": [],
      "stateMutability": "nonpayable",
      "type": "function"
    },
    {
      "inputs": [
        {
          "internalType": "address",
          "name": "",
          "type": "address"
        },
        {
          "internalType": "uint128",
          "name": "",
          "type": "uint128"
        }
      ],
      "name": "queuedNonces",
      "outputs": [
        {
          "internalType": "uint128",
          "name": "",
          "type": "uint128"
        }
      ],
      "stateMutability": "view",
      "type": "function"
    },
    {
      "inputs": [
        {
          "internalType": "bool",
          "name": "enabled",
          "type": "bool"
        }
      ],
      "name": "setDAIEnabled",
      "outputs": [],
      "stateMutability": "nonpayable",
      "type": "function"
    },
    {
      "inputs": [
        {
          "internalType": "bool",
          "name": "enabled",
          "type": "bool"
        }
      ],
      "name": "setETHEnabled",
      "outputs": [],
      "stateMutability": "nonpayable",
      "type": "function"
    },
    {
      "inputs": [
        {
          "internalType": "address",
          "name": "metaTransactionProcessor",
          "type": "address"
        },
        {
          "internalType": "bool",
          "name": "enabled",
          "type": "bool"
        }
      ],
      "name": "setMetaTransactionProcessor",
      "outputs": [],
      "stateMutability": "nonpayable",
      "type": "function"
    },
    {
      "inputs": [
        {
          "internalType": "uint256[]",
          "name": "prices",
          "type": "uint256[]"
        },
        {
          "internalType": "uint256",
          "name": "gemPrice",
          "type": "uint256"
        }
      ],
      "name": "setPrices",
      "outputs": [],
      "stateMutability": "nonpayable",
      "type": "function"
    },
    {
      "inputs": [
        {
          "internalType": "address payable",
          "name": "newWallet",
          "type": "address"
        }
      ],
      "name": "setReceivingWallet",
      "outputs": [],
      "stateMutability": "nonpayable",
      "type": "function"
    },
    {
      "inputs": [
        {
          "internalType": "bool",
          "name": "enabled",
          "type": "bool"
        }
      ],
      "name": "setSANDEnabled",
      "outputs": [],
      "stateMutability": "nonpayable",
      "type": "function"
    },
    {
      "inputs": [
        {
          "internalType": "address",
          "name": "newSigningWallet",
          "type": "address"
        }
      ],
      "name": "updateSigningWallet",
      "outputs": [],
      "stateMutability": "nonpayable",
      "type": "function"
    },
    {
      "inputs": [
        {
          "internalType": "address",
          "name": "to",
          "type": "address"
        },
        {
          "internalType": "uint256[]",
          "name": "catalystIds",
          "type": "uint256[]"
        },
        {
          "internalType": "uint256[]",
          "name": "gemIds",
          "type": "uint256[]"
        }
      ],
      "name": "withdrawAll",
      "outputs": [],
      "stateMutability": "nonpayable",
      "type": "function"
    }
  ],
  "address": "0x157372F9d3c94609ADfb967741A0aFc0c1db1BBF",
  "args": [
    "0xEAA0993E1d21c2103e4f172a20D29371FbAF6D06",
    "0x3845badAde8e6dFF049820680d1F14bD3903a5d0",
    "0x3845badAde8e6dFF049820680d1F14bD3903a5d0",
    "0x9695ed5020BB47880738Db356678fe8cBc8FF60b",
    "0x729D19f657BD0614b4985Cf1D82531c67569197B",
    "0x6b175474e89094c44da98b954eedeac495271d0f",
    "0x2fC246149B4B8d7bcEF6188A10AF1791380227f1",
    "0x8Ff2611dA386de427fC96A8073963619c5851Ba5",
    "0x3044719d139F866a44c988823513eCB93060bF1b",
    [
      "18000000000000000000",
      "55000000000000000000",
      "182000000000000000000",
      "727000000000000000000"
    ],
    "18000000000000000000"
  ],
  "solcInputHash": "0xf29dccc9a949f4c922fea35139d4d6e6d68c9a5b5f8bccbc938038487c029e3d",
  "bytecode": "0x610120604052610e10600b553480156200001857600080fd5b5060405162003209380380620032098339810160408190526200003b91620002a2565b600280546001600160a01b0319166001600160a01b0385161790556200006389600162000123565b600a80546001600160a01b03808b166001600160a01b03199283161790925560008054928e16929091169190911790556001600160601b031960608b811b821660805288811b821660a05287811b821660c05286811b821660e05285901b16610100528151620000db90600590602085019062000187565b508151620000f190600690602085019062000187565b50600781905560085550506004805461ff001960ff199091166001171661010017905550620003d69650505050505050565b6001600160a01b03821660009081526001602052604090819020805460ff1916831515179055517fb21eb88b4e33b3f1281830a7178d74d8aa73220416215726b68ae23d539515cb906200017b9084908490620003a2565b60405180910390a15050565b828054828255906000526020600020908101928215620001c5579160200282015b82811115620001c5578251825591602001919060010190620001a8565b50620001d3929150620001d7565b5090565b620001f491905b80821115620001d35760008155600101620001de565b90565b80516200020481620003bd565b92915050565b600082601f8301126200021b578081fd5b81516001600160401b038082111562000232578283fd5b60208083026040518282820101818110858211171562000250578687fd5b6040528481529450818501925085820181870183018810156200027257600080fd5b600091505b848210156200029757805184529282019260019190910190820162000277565b505050505092915050565b60008060008060008060008060008060006101608c8e031215620002c4578687fd5b8b51620002d181620003bd565b60208d0151909b50620002e481620003bd565b9950620002f58d60408e01620001f7565b9850620003068d60608e01620001f7565b9750620003178d60808e01620001f7565b9650620003288d60a08e01620001f7565b9550620003398d60c08e01620001f7565b94506200034a8d60e08e01620001f7565b93506200035c8d6101008e01620001f7565b6101208d01519093506001600160401b0381111562000379578283fd5b620003878e828f016200020a565b9250506101408c015190509295989b509295989b9093969950565b6001600160a01b039290921682521515602082015260400190565b6001600160a01b0381168114620003d357600080fd5b50565b60805160601c60a05160601c60c05160601c60e05160601c6101005160601c612db26200045760003980610a3a5280610f2f52806113b05280611522528061174f5250806109a15280610e96528061131d528061148552806116b6525080610e675280610ff65250806118d952508061168752806118165250612db26000f3fe6080604052600436106101805760003560e01c80638f283970116100d6578063bf5c3e9f1161007f578063d1b8f6b311610059578063d1b8f6b314610406578063dc5074af14610426578063e97eb0a21461044657610180565b8063bf5c3e9f146103b1578063c96f8902146103d1578063caed3500146103f157610180565b8063b0e6bfaa116100b0578063b0e6bfaa1461034b578063b522ecff1461036b578063bd9a548b1461038b57610180565b80638f283970146102f6578063915c851314610316578063a7e306841461033657610180565b806358bc2944116101385780636e9960c3116101125780636e9960c3146102945780637c53ec4c146102b65780638a04af6a146102d657610180565b806358bc2944146102345780635d8e3021146102545780635f995c2d1461028157610180565b8063427b8d3411610169578063427b8d34146101c75780634a253778146101f25780634d08cbc11461020757610180565b80633b7c4c15146101855780633d5f167b146101a7575b600080fd5b34801561019157600080fd5b506101a56101a03660046123e8565b610466565b005b3480156101b357600080fd5b506101a56101c236600461230b565b6104d1565b3480156101d357600080fd5b506101dc610568565b6040516101e99190612802565b60405180910390f35b3480156101fe57600080fd5b506101dc610578565b34801561021357600080fd5b506102276102223660046122ca565b610586565b6040516101e99190612c56565b34801561024057600080fd5b506101a561024f366004612069565b6105c5565b34801561026057600080fd5b5061027461026f366004612438565b61061e565b6040516101e99190612c73565b6101a561028f366004612224565b610659565b3480156102a057600080fd5b506102a9610b5c565b6040516101e99190612634565b3480156102c257600080fd5b506101a56102d13660046123e8565b610b6b565b3480156102e257600080fd5b506101a56102f13660046121ec565b610ba8565b34801561030257600080fd5b506101a5610311366004612069565b610be0565b34801561032257600080fd5b506101dc610331366004612105565b610c80565b34801561034257600080fd5b506101dc610d2e565b34801561035757600080fd5b506101a5610366366004612224565b610d37565b34801561037757600080fd5b506101a5610386366004612069565b611036565b34801561039757600080fd5b506103a06110b5565b6040516101e99594939291906127bf565b3480156103bd57600080fd5b506102276103cc3660046122ca565b611193565b3480156103dd57600080fd5b506101a56103ec366004612085565b6111c2565b3480156103fd57600080fd5b506102a961159e565b34801561041257600080fd5b506101a5610421366004612224565b6115ad565b34801561043257600080fd5b506101dc610441366004612069565b611855565b34801561045257600080fd5b506101a56104613660046123e8565b611873565b6000546001600160a01b031633146104995760405162461bcd60e51b815260040161049090612b53565b60405180910390fd5b6004805491151562010000027fffffffffffffffffffffffffffffffffffffffffffffffffffffffffff00ffff909216919091179055565b6000546001600160a01b031633146104fb5760405162461bcd60e51b815260040161049090612b53565b6005805461050b91600691611e99565b5061051860058484611ee9565b5060078054600855819055426009556040517fb4484e658d3a3ea551621c62bec48be6ac3aab4615fa987434fa1bd62bd76c939061055b9085908590859061279b565b60405180910390a1505050565b60045462010000900460ff165b90565b600454610100900460ff1690565b6001600160a01b03821660009081526003602090815260408083206fffffffffffffffffffffffffffffffff8086168552925290912054165b92915050565b6000546001600160a01b031633146105ef5760405162461bcd60e51b815260040161049090612a1a565b6002805473ffffffffffffffffffffffffffffffffffffffff19166001600160a01b0392909216919091179055565b6000806106296118d4565b9050610652816106468566c3663566a5800063ffffffff61196e16565b9063ffffffff6119a916565b9392505050565b336001600160a01b038516148061067f57503360009081526001602052604090205460ff165b61069b5760405162461bcd60e51b815260040161049090612aae565b600454610100900460ff166106c25760405162461bcd60e51b81526004016104909061293e565b6001600160a01b0384166106e85760405162461bcd60e51b815260040161049090612862565b6001600160a01b0384163014156107115760405162461bcd60e51b815260040161049090612b8a565b61084d8461071f8580612c7c565b8080602002602001604051908101604052809392919081815260200183836020028082843760009201919091525061075e925050506020870187612c7c565b8080602002602001604051908101604052809392919081815260200183836020028082843760009201919091525061079d925050506040880188612c7c565b808060200260200160405190810160405280939291908181526020018383602002808284376000920191909152506107dc925050506060890189612c7c565b8080602002602001604051908101604052809392919081815260200183836020028082843760009201919091525050604080516020601f8c018190048102820181019092528a815260808d0135935091508a908a9081908401838280828437600092019190915250610c8092505050565b6108695760405162461bcd60e51b8152600401610490906129ac565b600061092d6108788580612c7c565b808060200260200160405190810160405280939291908181526020018383602002808284376000920191909152506108b7925050506020870187612c7c565b808060200260200160405190810160405280939291908181526020018383602002808284376000920191909152506108f6925050506060880188612c7c565b808060200260200160405190810160405280939291908181526020018383602002808284376000920191909152506119d992505050565b9050600061093a8261061e565b90508034101561095c5760405162461bcd60e51b815260040161049090612899565b600a546040516001600160a01b039091169082156108fc029083906000818181858888f19350505050158015610996573d6000803e3d6000fd5b506001600160a01b037f0000000000000000000000000000000000000000000000000000000000000000166317fad7fc30886109d28980612c7c565b6109df60208c018c612c7c565b6040518763ffffffff1660e01b8152600401610a0096959493929190612686565b600060405180830381600087803b158015610a1a57600080fd5b505af1158015610a2e573d6000803e3d6000fd5b50506001600160a01b037f00000000000000000000000000000000000000000000000000000000000000001691506317fad7fc90503088610a7260408a018a612c7c565b610a7f60608c018c612c7c565b6040518763ffffffff1660e01b8152600401610aa096959493929190612686565b600060405180830381600087803b158015610aba57600080fd5b505af1158015610ace573d6000803e3d6000fd5b50505050856001600160a01b03167fdfdb2e8aa552e0517bf744153975973b0beb2bedf0e81bbf58d7744b738197b88684600085604051610b129493929190612c1e565b60405180910390a23481900315610b545760405133903483900380156108fc02916000818181858888f19350505050158015610b52573d6000803e3d6000fd5b505b505050505050565b6000546001600160a01b031690565b6000546001600160a01b03163314610b955760405162461bcd60e51b815260040161049090612b53565b6004805460ff1916911515919091179055565b6000546001600160a01b03163314610bd25760405162461bcd60e51b815260040161049090612a51565b610bdc8282611aad565b5050565b6000546001600160a01b03163314610c0a5760405162461bcd60e51b815260040161049090612ae5565b6000546040517f7e644d79422f17c01e4894b5f4f588d331ebfa28653d42ae832dc59e38c9798f91610c49916001600160a01b03909116908490612648565b60405180910390a16000805473ffffffffffffffffffffffffffffffffffffffff19166001600160a01b0392909216919091179055565b6000610c8c8884611b0f565b610ca85760405162461bcd60e51b8152600401610490906129e3565b6000878787878c88604051602001610cc5969594939291906125a0565b6040516020818303038152906040528051906020012090506000610d0f82604051602001610cf39190612603565b6040516020818303038152906040528051906020012085611be6565b6002546001600160a01b039081169116149a9950505050505050505050565b60045460ff1690565b336001600160a01b0385161480610d5d57503360009081526001602052604090205460ff165b610d795760405162461bcd60e51b815260040161049090612aae565b60045462010000900460ff16610da15760405162461bcd60e51b81526004016104909061282b565b6001600160a01b038416610dc75760405162461bcd60e51b815260040161049090612862565b6001600160a01b038416301415610df05760405162461bcd60e51b815260040161049090612b8a565b610dfe8461071f8580612c7c565b610e1a5760405162461bcd60e51b8152600401610490906129ac565b6000610e296108788580612c7c565b90506000610e50670de0b6b3a76400006106468466c3663566a5800063ffffffff61196e16565b600a54909150610e8c9087906001600160a01b03167f000000000000000000000000000000000000000000000000000000000000000084611ca1565b6001600160a01b037f0000000000000000000000000000000000000000000000000000000000000000166317fad7fc3088610ec78980612c7c565b610ed460208c018c612c7c565b6040518763ffffffff1660e01b8152600401610ef596959493929190612686565b600060405180830381600087803b158015610f0f57600080fd5b505af1158015610f23573d6000803e3d6000fd5b50506001600160a01b037f00000000000000000000000000000000000000000000000000000000000000001691506317fad7fc90503088610f6760408a018a612c7c565b610f7460608c018c612c7c565b6040518763ffffffff1660e01b8152600401610f9596959493929190612686565b600060405180830381600087803b158015610faf57600080fd5b505af1158015610fc3573d6000803e3d6000fd5b50505050856001600160a01b03167fdfdb2e8aa552e0517bf744153975973b0beb2bedf0e81bbf58d7744b738197b886847f0000000000000000000000000000000000000000000000000000000000000000856040516110269493929190612c1e565b60405180910390a2505050505050565b6001600160a01b03811661105c5760405162461bcd60e51b815260040161049090612975565b6000546001600160a01b031633146110865760405162461bcd60e51b815260040161049090612b53565b600a805473ffffffffffffffffffffffffffffffffffffffff19166001600160a01b0392909216919091179055565b60608060008060008090506009546000146110d35750600b54600954015b60066005600854600754848480548060200260200160405190810160405280929190818152602001828054801561112957602002820191906000526020600020905b815481526020019060010190808311611115575b505050505094508380548060200260200160405190810160405280929190818152602001828054801561117b57602002820191906000526020600020905b815481526020019060010190808311611167575b50505050509350945094509450945094509091929394565b60036020908152600092835260408084209091529082529020546fffffffffffffffffffffffffffffffff1681565b6000546001600160a01b031633146111ec5760405162461bcd60e51b815260040161049090612b53565b60608367ffffffffffffffff8111801561120557600080fd5b5060405190808252806020026020018201604052801561122f578160200160208202803683370190505b50905060005b8481101561126a573082828151811061124a57fe5b6001600160a01b0390921660209283029190910190910152600101611235565b5060608267ffffffffffffffff8111801561128457600080fd5b506040519080825280602002602001820160405280156112ae578160200160208202803683370190505b50905060005b838110156112e957308282815181106112c957fe5b6001600160a01b03909216602092830291909101909101526001016112b4565b506040517f4e1273f40000000000000000000000000000000000000000000000000000000081526060906001600160a01b037f00000000000000000000000000000000000000000000000000000000000000001690634e1273f4906113569086908b908b90600401612739565b60006040518083038186803b15801561136e57600080fd5b505afa158015611382573d6000803e3d6000fd5b505050506040513d6000823e601f3d908101601f191682016040526113aa9190810190612355565b905060607f00000000000000000000000000000000000000000000000000000000000000006001600160a01b0316634e1273f48488886040518463ffffffff1660e01b81526004016113fe93929190612739565b60006040518083038186803b15801561141657600080fd5b505afa15801561142a573d6000803e3d6000fd5b505050506040513d6000823e601f3d908101601f191682016040526114529190810190612355565b6040517f17fad7fc0000000000000000000000000000000000000000000000000000000081529091506001600160a01b037f000000000000000000000000000000000000000000000000000000000000000016906317fad7fc906114c29030908d908d908d9089906004016126d3565b600060405180830381600087803b1580156114dc57600080fd5b505af11580156114f0573d6000803e3d6000fd5b50506040517f17fad7fc0000000000000000000000000000000000000000000000000000000081526001600160a01b037f00000000000000000000000000000000000000000000000000000000000000001692506317fad7fc91506115619030908d908b908b9088906004016126d3565b600060405180830381600087803b15801561157b57600080fd5b505af115801561158f573d6000803e3d6000fd5b50505050505050505050505050565b6002546001600160a01b031690565b336001600160a01b03851614806115d357503360009081526001602052604090205460ff165b6115ef5760405162461bcd60e51b815260040161049090612aae565b60045460ff166116115760405162461bcd60e51b815260040161049090612907565b6001600160a01b0384166116375760405162461bcd60e51b815260040161049090612862565b6116458461071f8580612c7c565b6116615760405162461bcd60e51b8152600401610490906129ac565b60006116706108788580612c7c565b600a549091506116ac9086906001600160a01b03167f000000000000000000000000000000000000000000000000000000000000000084611ca1565b6001600160a01b037f0000000000000000000000000000000000000000000000000000000000000000166317fad7fc30876116e78880612c7c565b6116f460208b018b612c7c565b6040518763ffffffff1660e01b815260040161171596959493929190612686565b600060405180830381600087803b15801561172f57600080fd5b505af1158015611743573d6000803e3d6000fd5b50506001600160a01b037f00000000000000000000000000000000000000000000000000000000000000001691506317fad7fc905030876117876040890189612c7c565b61179460608b018b612c7c565b6040518763ffffffff1660e01b81526004016117b596959493929190612686565b600060405180830381600087803b1580156117cf57600080fd5b505af11580156117e3573d6000803e3d6000fd5b50505050846001600160a01b03167fdfdb2e8aa552e0517bf744153975973b0beb2bedf0e81bbf58d7744b738197b885837f0000000000000000000000000000000000000000000000000000000000000000856040516118469493929190612c1e565b60405180910390a25050505050565b6001600160a01b031660009081526001602052604090205460ff1690565b6000546001600160a01b0316331461189d5760405162461bcd60e51b815260040161049090612b53565b60048054911515610100027fffffffffffffffffffffffffffffffffffffffffffffffffffffffffffff00ff909216919091179055565b6000807f00000000000000000000000000000000000000000000000000000000000000006001600160a01b03166357de26a46040518163ffffffff1660e01b815260040160206040518083038186803b15801561193057600080fd5b505afa158015611944573d6000803e3d6000fd5b505050506040513d601f19601f820116820180604052508101906119689190612420565b91505090565b60008261197d575060006105bf565b508181028183828161198b57fe5b04146105bf5760405162461bcd60e51b815260040161049090612b1c565b6000816119c85760405162461bcd60e51b815260040161049090612be7565b8183816119d157fe5b049392505050565b6000606060006119e7611d5c565b90925090506000805b8751811015611a5d576000888281518110611a0757fe5b602002602001015190506000888381518110611a1f57fe5b60200260200101519050611a4f81878481518110611a3957fe5b602002602001015161196e90919063ffffffff16565b9093019250506001016119f0565b5060005b8551811015611aa2576000868281518110611a7857fe5b60200260200101519050611a95818561196e90919063ffffffff16565b9092019150600101611a61565b509695505050505050565b6001600160a01b03821660009081526001602052604090819020805460ff1916831515179055517fb21eb88b4e33b3f1281830a7178d74d8aa73220416215726b68ae23d539515cb90611b03908490849061271e565b60405180910390a15050565b6001600160a01b038216600090815260036020908152604080832070010000000000000000000000000000000085046fffffffffffffffffffffffffffffffff81811686529190935290832054848216911680821415611bda576001600160a01b03861660009081526003602090815260408083206fffffffffffffffffffffffffffffffff9687168452909152902080547fffffffffffffffffffffffffffffffff00000000000000000000000000000000166001928301909416939093179092555090506105bf565b50600095945050505050565b60008151604114611bf657600080fd5b60208201516040830151606084015160001a601b811015611c1557601b015b8060ff16601b1480611c2a57508060ff16601c145b611c3357600080fd5b60018682858560405160008152602001604052604051611c56949392919061280d565b6020604051602081039080840390855afa158015611c78573d6000803e3d6000fd5b5050604051601f1901519450506001600160a01b038416611c9857600080fd5b50505092915050565b6040517f23b872dd000000000000000000000000000000000000000000000000000000008152829082906001600160a01b038316906323b872dd90611cee90899089908690600401612662565b602060405180830381600087803b158015611d0857600080fd5b505af1158015611d1c573d6000803e3d6000fd5b505050506040513d601f19601f82011682018060405250810190611d409190612404565b610b545760405162461bcd60e51b8152600401610490906128d0565b606060006060600060095460001415611dcc576005805480602002602001604051908101604052809291908181526020018280548015611dbb57602002820191906000526020600020905b815481526020019060010190808311611da7575b505050505091506007549050611e90565b600954610e1001421115611e375760006009556005805460408051602080840282018101909252828152929190830182828015611dbb5760200282019190600052602060002090815481526020019060010190808311611da757505050505091506007549050611e90565b6006805480602002602001604051908101604052809291908181526020018280548015611e8357602002820191906000526020600020905b815481526020019060010190808311611e6f575b5050505050915060085490505b90925090509091565b828054828255906000526020600020908101928215611ed95760005260206000209182015b82811115611ed9578254825591600101919060010190611ebe565b50611ee5929150611f24565b5090565b828054828255906000526020600020908101928215611ed9579160200282015b82811115611ed9578235825591602001919060010190611f09565b61057591905b80821115611ee55760008155600101611f2a565b80356105bf81612d56565b60008083601f840112611f5a578182fd5b50813567ffffffffffffffff811115611f71578182fd5b6020830191508360208083028501011115611f8b57600080fd5b9250929050565b600082601f830112611fa2578081fd5b8135611fb5611fb082612cee565b612cc7565b818152915060208083019084810181840286018201871015611fd657600080fd5b60005b84811015611ff557813584529282019290820190600101611fd9565b505050505092915050565b600082601f830112612010578081fd5b813567ffffffffffffffff811115612026578182fd5b6120396020601f19601f84011601612cc7565b915080825283602082850101111561205057600080fd5b8060208401602084013760009082016020015292915050565b60006020828403121561207a578081fd5b813561065281612d56565b60008060008060006060868803121561209c578081fd5b85356120a781612d56565b9450602086013567ffffffffffffffff808211156120c3578283fd5b6120cf89838a01611f49565b909650945060408801359150808211156120e7578283fd5b506120f488828901611f49565b969995985093965092949392505050565b600080600080600080600060e0888a03121561211f578182fd5b6121298989611f3e565b9650602088013567ffffffffffffffff80821115612145578384fd5b6121518b838c01611f92565b975060408a0135915080821115612166578384fd5b6121728b838c01611f92565b965060608a0135915080821115612187578384fd5b6121938b838c01611f92565b955060808a01359150808211156121a8578384fd5b6121b48b838c01611f92565b945060a08a0135935060c08a01359150808211156121d0578283fd5b506121dd8a828b01612000565b91505092959891949750929550565b600080604083850312156121fe578182fd5b823561220981612d56565b9150602083013561221981612d6e565b809150509250929050565b60008060008060608587031215612239578384fd5b843561224481612d56565b9350602085013567ffffffffffffffff80821115612260578485fd5b81870160a0818a031215612272578586fd5b94506040870135915080821115612287578384fd5b81870188601f820112612298578485fd5b80359250818311156122a8578485fd5b8860208483010111156122b9578485fd5b959894975050602090940194505050565b600080604083850312156122dc578182fd5b82356122e781612d56565b915060208301356fffffffffffffffffffffffffffffffff81168114612219578182fd5b60008060006040848603121561231f578283fd5b833567ffffffffffffffff811115612335578384fd5b61234186828701611f49565b909790965060209590950135949350505050565b60006020808385031215612367578182fd5b825167ffffffffffffffff81111561237d578283fd5b80840185601f82011261238e578384fd5b8051915061239e611fb083612cee565b82815283810190828501858502840186018910156123ba578687fd5b8693505b848410156123dc5780518352600193909301929185019185016123be565b50979650505050505050565b6000602082840312156123f9578081fd5b813561065281612d6e565b600060208284031215612415578081fd5b815161065281612d6e565b600060208284031215612431578081fd5b5051919050565b600060208284031215612449578081fd5b5035919050565b60008284527f07ffffffffffffffffffffffffffffffffffffffffffffffffffffffffffffff831115612481578081fd5b6020830280836020870137939093016020019283525090919050565b6000815180845260208085019450808401835b838110156124cc578151875295820195908201906001016124b0565b509495945050505050565b805160009060208084018383156124cc578151875295820195908201906001016124b0565b60006125088283612d0e565b60a0855261251a60a086018284612450565b6125276020860186612d0e565b93509150858103602087015261253e818484612450565b61254b6040870187612d0e565b945092508681036040880152612562818585612450565b9150506125726060860186612d0e565b935091508581036060870152612589818484612450565b608086013560808801528094505050505092915050565b60006125c76125c16125bb6125b5858c6124d7565b8a6124d7565b886124d7565b866124d7565b60609490941b7fffffffffffffffffffffffffffffffffffffffff00000000000000000000000016845250506014820152603401949350505050565b7f19457468657265756d205369676e6564204d6573736167653a0a3332000000008152601c810191909152603c0190565b6001600160a01b0391909116815260200190565b6001600160a01b0392831681529116602082015260400190565b6001600160a01b039384168152919092166020820152604081019190915260600190565b60006001600160a01b038089168352808816602084015250608060408301526126b3608083018688612450565b82810360608401526126c6818587612450565b9998505050505050505050565b60006001600160a01b03808816835280871660208401525060806040830152612700608083018587612450565b8281036060840152612712818561249d565b98975050505050505050565b6001600160a01b039290921682521515602082015260400190565b604080825284519082018190526000906020906060840190828801845b8281101561277b5781516001600160a01b031684529284019290840190600101612756565b50505083810382850152612790818688612450565b979650505050505050565b6000604082526127af604083018587612450565b9050826020830152949350505050565b600060a082526127d260a083018861249d565b82810360208401526127e4818861249d565b60408401969096525050606081019290925260809091015292915050565b901515815260200190565b93845260ff9290921660208401526040830152606082015260800190565b60208082526012908201527f4441495f49535f4e4f545f454e41424c45440000000000000000000000000000604082015260600190565b60208082526018908201527f44455354494e4154494f4e5f5a45524f5f414444524553530000000000000000604082015260600190565b60208082526015908201527f4e4f545f454e4f5547485f45544845525f53454e540000000000000000000000604082015260600190565b60208082526017908201527f5041594d454e545f5452414e534645525f4641494c4544000000000000000000604082015260600190565b60208082526013908201527f53414e445f49535f4e4f545f454e41424c454400000000000000000000000000604082015260600190565b60208082526014908201527f45544845525f49535f4e4f545f454e41424c4544000000000000000000000000604082015260600190565b60208082526013908201527f57414c4c45545f5a45524f5f4144445245535300000000000000000000000000604082015260600190565b60208082526010908201527f494e56414c49445f505552434841534500000000000000000000000000000000604082015260600190565b6020808252600d908201527f494e56414c49445f4e4f4e434500000000000000000000000000000000000000604082015260600190565b60208082526010908201527f53454e4445525f4e4f545f41444d494e00000000000000000000000000000000604082015260600190565b6020808252602e908201527f6f6e6c792061646d696e2063616e207365747570206d6574615472616e73616360408201527f74696f6e50726f636573736f7273000000000000000000000000000000000000606082015260800190565b6020808252600e908201527f494e56414c49445f53454e444552000000000000000000000000000000000000604082015260600190565b6020808252601b908201527f6f6e6c792061646d696e2063616e206368616e67652061646d696e0000000000604082015260600190565b60208082526008908201527f6f766572666c6f77000000000000000000000000000000000000000000000000604082015260600190565b6020808252600e908201527f4e4f545f415554484f52495a4544000000000000000000000000000000000000604082015260600190565b60208082526022908201527f44455354494e4154494f4e5f535441525445525041434b56315f434f4e54524160408201527f4354000000000000000000000000000000000000000000000000000000000000606082015260800190565b60208082526009908201527f64697662797a65726f0000000000000000000000000000000000000000000000604082015260600190565b600060808252612c3160808301876124fc565b6020830195909552506001600160a01b03929092166040830152606090910152919050565b6fffffffffffffffffffffffffffffffff91909116815260200190565b90815260200190565b6000808335601e19843603018112612c92578283fd5b8084018035925067ffffffffffffffff831115612cad578384fd5b6020810193505050602081023603821315611f8b57600080fd5b60405181810167ffffffffffffffff81118282101715612ce657600080fd5b604052919050565b600067ffffffffffffffff821115612d04578081fd5b5060209081020190565b6000808335601e19843603018112612d24578283fd5b830160208101925035905067ffffffffffffffff811115612d4457600080fd5b602081023603831315611f8b57600080fd5b6001600160a01b0381168114612d6b57600080fd5b50565b8015158114612d6b57600080fdfea26469706673582212200a7895316c434f4e35aecf13119547f69037d6dc656dacabe6bc83089ac2992164736f6c63430006050033",
  "devdoc": {
    "methods": {
      "changeAdmin(address)": {
        "details": "change the administrator to be `newAdmin`.",
        "params": {
          "newAdmin": "address of the new administrator."
        }
      },
      "getAdmin()": {
        "details": "gives the current administrator of this contract.",
        "returns": {
          "_0": "the current administrator of this contract."
        }
      },
      "getEtherAmountWithSAND(uint256)": {
        "params": {
          "sandAmount": "An amount of SAND"
        },
        "returns": {
          "_0": "The amount of ETH"
        }
      },
      "getNonceByBuyer(address,uint128)": {
        "params": {
          "_buyer": "The address of the starterPack purchaser",
          "_queueId": "The ID of the nonce queue for the given address. The default is queueID=0, and the max is queueID=2**128-1"
        },
        "returns": {
          "_0": "uint128 representing the requestied nonce"
        }
      },
      "isMetaTransactionProcessor(address)": {
        "details": "check whether address `who` is given meta-transaction execution rights.",
        "params": {
          "who": "The address to query."
        },
        "returns": {
          "_0": "whether the address has meta-transaction execution rights."
        }
      },
      "isPurchaseValid(address,uint256[],uint256[],uint256[],uint256[],uint256,bytes)": {
        "params": {
          "buyer": "The address paying for the purchase & receiving tokens",
          "catalystIds": "The catalyst IDs to be purchased",
          "catalystQuantities": "The quantities of the catalysts to be purchased",
          "gemIds": "The gem IDs to be purchased",
          "gemQuantities": "The quantities of the gems to be purchased",
          "nonce": "The current nonce for the user. This is represented as a uint256 value, but is actually 2 packed uint128's (queueId + nonce)",
          "signature": "A signed message specifying tx details"
        },
        "returns": {
          "_0": "True if the purchase is valid"
        }
      },
      "purchaseWithDAI(address,(uint256[],uint256[],uint256[],uint256[],uint256),bytes)": {
        "params": {
          "buyer": "The destination address for the purchased Catalysts and Gems and the address that will pay for the purchase; if not metaTx then buyer must be equal to msg.sender",
          "message": "A message containing information about the Catalysts and Gems to be purchased",
          "signature": "A signed message specifying tx details"
        }
      },
      "purchaseWithETH(address,(uint256[],uint256[],uint256[],uint256[],uint256),bytes)": {
        "params": {
          "buyer": "The destination address for the purchased Catalysts and Gems and the address that will pay for the purchase; if not metaTx then buyer must be equal to msg.sender",
          "message": "A message containing information about the Catalysts and Gems to be purchased",
          "signature": "A signed message specifying tx details"
        }
      },
      "purchaseWithSand(address,(uint256[],uint256[],uint256[],uint256[],uint256),bytes)": {
        "params": {
          "buyer": "The destination address for the purchased Catalysts and Gems and the address that will pay for the purchase; if not metaTx then buyer must be equal to msg.sender",
          "message": "A message containing information about the Catalysts and Gems to be purchased",
          "signature": "A signed message specifying tx details"
        }
      },
      "setDAIEnabled(bool)": {
        "params": {
          "enabled": "Whether to enable or disable"
        }
      },
      "setETHEnabled(bool)": {
        "params": {
          "enabled": "Whether to enable or disable"
        }
      },
      "setMetaTransactionProcessor(address,bool)": {
        "details": "Enable or disable the ability of `metaTransactionProcessor` to perform meta-tx (metaTransactionProcessor rights).",
        "params": {
          "enabled": "set whether the metaTransactionProcessor is enabled or disabled.",
          "metaTransactionProcessor": "address that will be given/removed metaTransactionProcessor rights."
        }
      },
      "setPrices(uint256[],uint256)": {
        "params": {
          "gemPrice": "New price for gems that will take effect after a delay period",
          "prices": "Array of new prices that will take effect after a delay period"
        }
      },
      "setReceivingWallet(address)": {
        "params": {
          "newWallet": "Address of the new receiving wallet"
        }
      },
      "setSANDEnabled(bool)": {
        "details": "Enable / disable the specific SAND payment for StarterPacks",
        "params": {
          "enabled": "Whether to enable or disable"
        }
      },
      "updateSigningWallet(address)": {
        "params": {
          "newSigningWallet": "The new address of the signing wallet"
        }
      },
      "withdrawAll(address,uint256[],uint256[])": {
        "params": {
          "catalystIds": "The IDs of the catalysts to be transferred",
          "gemIds": "The IDs of the gems to be transferred",
          "to": "The destination address for the purchased Catalysts and Gems"
        }
      }
    },
    "title": "StarterPack contract that supports SAND, DAI and ETH as payment"
  },
  "userdoc": {
    "methods": {
      "getEtherAmountWithSAND(uint256)": {
        "notice": "Returns the amount of ETH for a specific amount of SAND"
      },
      "getNonceByBuyer(address,uint128)": {
        "notice": "Function to get the nonce for a given address and queue ID"
      },
      "getPrices()": {
        "notice": "Get current StarterPack prices"
      },
      "getSigningWallet()": {
        "notice": "Get the wallet authorized for signing purchase-messages."
      },
      "isDAIEnabled()": {
        "notice": "Return whether DAI payments are enabled"
      },
      "isETHEnabled()": {
        "notice": "Return whether ETH payments are enabled"
      },
      "isPurchaseValid(address,uint256[],uint256[],uint256[],uint256[],uint256,bytes)": {
        "notice": "Check if a purchase message is valid"
      },
      "isSANDEnabled()": {
        "notice": "Return whether SAND payments are enabled"
      },
      "purchaseWithDAI(address,(uint256[],uint256[],uint256[],uint256[],uint256),bytes)": {
        "notice": "Purchase StarterPacks with DAI"
      },
      "purchaseWithETH(address,(uint256[],uint256[],uint256[],uint256[],uint256),bytes)": {
        "notice": "Purchase StarterPacks with Ether"
      },
      "purchaseWithSand(address,(uint256[],uint256[],uint256[],uint256[],uint256),bytes)": {
        "notice": "Purchase StarterPacks with SAND"
      },
      "setDAIEnabled(bool)": {
        "notice": "Enable / disable DAI payment for StarterPacks"
      },
      "setETHEnabled(bool)": {
        "notice": "Enable / disable ETH payment for StarterPacks"
      },
      "setPrices(uint256[],uint256)": {
        "notice": "Enables admin to change the prices of the StarterPack bundles"
      },
      "setReceivingWallet(address)": {
        "notice": "Set the wallet receiving the proceeds"
      },
      "updateSigningWallet(address)": {
        "notice": "Update the signing wallet address"
      },
      "withdrawAll(address,uint256[],uint256[])": {
        "notice": "Enables admin to withdraw all remaining tokens"
      }
    },
    "notice": "This contract manages the purchase and distribution of StarterPacks (bundles of Catalysts and Gems)"
  },
  "storageLayout": {
    "storage": [
      {
        "astId": 12233,
        "contract": "src/StarterPack/StarterPackV1.sol:StarterPackV1",
        "label": "_admin",
        "offset": 0,
        "slot": "0",
        "type": "t_address"
      },
      {
        "astId": 12295,
        "contract": "src/StarterPack/StarterPackV1.sol:StarterPackV1",
        "label": "_metaTransactionContracts",
        "offset": 0,
        "slot": "1",
        "type": "t_mapping(t_address,t_bool)"
      },
      {
        "astId": 10774,
        "contract": "src/StarterPack/StarterPackV1.sol:StarterPackV1",
        "label": "_signingWallet",
        "offset": 0,
        "slot": "2",
        "type": "t_address"
      },
      {
        "astId": 10780,
        "contract": "src/StarterPack/StarterPackV1.sol:StarterPackV1",
        "label": "queuedNonces",
        "offset": 0,
        "slot": "3",
        "type": "t_mapping(t_address,t_mapping(t_uint128,t_uint128))"
      },
      {
        "astId": 10997,
        "contract": "src/StarterPack/StarterPackV1.sol:StarterPackV1",
        "label": "_sandEnabled",
        "offset": 0,
        "slot": "4",
        "type": "t_bool"
      },
      {
        "astId": 10999,
        "contract": "src/StarterPack/StarterPackV1.sol:StarterPackV1",
        "label": "_etherEnabled",
        "offset": 1,
        "slot": "4",
        "type": "t_bool"
      },
      {
        "astId": 11001,
        "contract": "src/StarterPack/StarterPackV1.sol:StarterPackV1",
        "label": "_daiEnabled",
        "offset": 2,
        "slot": "4",
        "type": "t_bool"
      },
      {
        "astId": 11004,
        "contract": "src/StarterPack/StarterPackV1.sol:StarterPackV1",
        "label": "_starterPackPrices",
        "offset": 0,
        "slot": "5",
        "type": "t_array(t_uint256)dyn_storage"
      },
      {
        "astId": 11007,
        "contract": "src/StarterPack/StarterPackV1.sol:StarterPackV1",
        "label": "_previousStarterPackPrices",
        "offset": 0,
        "slot": "6",
        "type": "t_array(t_uint256)dyn_storage"
      },
      {
        "astId": 11009,
        "contract": "src/StarterPack/StarterPackV1.sol:StarterPackV1",
        "label": "_gemPrice",
        "offset": 0,
        "slot": "7",
        "type": "t_uint256"
      },
      {
        "astId": 11011,
        "contract": "src/StarterPack/StarterPackV1.sol:StarterPackV1",
        "label": "_previousGemPrice",
        "offset": 0,
        "slot": "8",
        "type": "t_uint256"
      },
      {
        "astId": 11013,
        "contract": "src/StarterPack/StarterPackV1.sol:StarterPackV1",
        "label": "_priceChangeTimestamp",
        "offset": 0,
        "slot": "9",
        "type": "t_uint256"
      },
      {
        "astId": 11015,
        "contract": "src/StarterPack/StarterPackV1.sol:StarterPackV1",
        "label": "_wallet",
        "offset": 0,
        "slot": "10",
        "type": "t_address_payable"
      },
      {
        "astId": 11018,
        "contract": "src/StarterPack/StarterPackV1.sol:StarterPackV1",
        "label": "_priceChangeDelay",
        "offset": 0,
        "slot": "11",
        "type": "t_uint256"
      }
    ],
    "types": {
      "t_address": {
        "encoding": "inplace",
        "label": "address",
        "numberOfBytes": "20"
      },
      "t_address_payable": {
        "encoding": "inplace",
        "label": "address payable",
        "numberOfBytes": "20"
      },
      "t_array(t_uint256)dyn_storage": {
        "base": "t_uint256",
        "encoding": "dynamic_array",
        "label": "uint256[]",
        "numberOfBytes": "32"
      },
      "t_bool": {
        "encoding": "inplace",
        "label": "bool",
        "numberOfBytes": "1"
      },
      "t_mapping(t_address,t_bool)": {
        "encoding": "mapping",
        "key": "t_address",
        "label": "mapping(address => bool)",
        "numberOfBytes": "32",
        "value": "t_bool"
      },
      "t_mapping(t_address,t_mapping(t_uint128,t_uint128))": {
        "encoding": "mapping",
        "key": "t_address",
        "label": "mapping(address => mapping(uint128 => uint128))",
        "numberOfBytes": "32",
        "value": "t_mapping(t_uint128,t_uint128)"
      },
      "t_mapping(t_uint128,t_uint128)": {
        "encoding": "mapping",
        "key": "t_uint128",
        "label": "mapping(uint128 => uint128)",
        "numberOfBytes": "32",
        "value": "t_uint128"
      },
      "t_uint128": {
        "encoding": "inplace",
        "label": "uint128",
        "numberOfBytes": "16"
      },
      "t_uint256": {
        "encoding": "inplace",
        "label": "uint256",
        "numberOfBytes": "32"
      }
    }
  },
  "gasEstimates": {
    "creation": {
      "codeDepositCost": "2339600",
      "executionCost": "infinite",
      "totalCost": "infinite"
    },
    "external": {
      "changeAdmin(address)": "24260",
      "getAdmin()": "1115",
      "getEtherAmountWithSAND(uint256)": "infinite",
      "getNonceByBuyer(address,uint128)": "1521",
      "getPrices()": "infinite",
      "getSigningWallet()": "1159",
      "isDAIEnabled()": "1098",
      "isETHEnabled()": "1119",
      "isMetaTransactionProcessor(address)": "1342",
      "isPurchaseValid(address,uint256[],uint256[],uint256[],uint256[],uint256,bytes)": "infinite",
      "isSANDEnabled()": "1130",
      "purchaseWithDAI(address,(uint256[],uint256[],uint256[],uint256[],uint256),bytes)": "infinite",
      "purchaseWithETH(address,(uint256[],uint256[],uint256[],uint256[],uint256),bytes)": "infinite",
      "purchaseWithSand(address,(uint256[],uint256[],uint256[],uint256[],uint256),bytes)": "infinite",
      "queuedNonces(address,uint128)": "1441",
      "setDAIEnabled(bool)": "22021",
      "setETHEnabled(bool)": "22062",
      "setMetaTransactionProcessor(address,bool)": "infinite",
      "setPrices(uint256[],uint256)": "infinite",
      "setReceivingWallet(address)": "22095",
      "setSANDEnabled(bool)": "22030",
      "updateSigningWallet(address)": "22039",
      "withdrawAll(address,uint256[],uint256[])": "infinite"
    },
    "internal": {
      "_calculateTotalPriceInSand(uint256[] memory,uint256[] memory,uint256[] memory)": "infinite",
      "_getEthUsdPair()": "infinite",
      "_handlePurchaseWithERC20(address,address payable,address,uint256)": "infinite",
      "_priceSelector()": "infinite"
    }
  }
}