{
  "address": "0xCF4240E19C71CD139D2b766003001fFd64c69131",
  "abi": [
    {
      "inputs": [
        {
          "internalType": "contract IERC1155",
          "name": "asset",
          "type": "address"
        },
        {
          "internalType": "address",
          "name": "admin",
          "type": "address"
        },
        {
          "internalType": "address",
          "name": "initialMetaTx",
          "type": "address"
        },
        {
          "internalType": "address payable",
          "name": "feeCollector",
          "type": "address"
        },
        {
          "internalType": "uint256",
          "name": "fee10000th",
          "type": "uint256"
        },
        {
          "internalType": "address",
          "name": "authValidator",
          "type": "address"
        }
      ],
      "stateMutability": "nonpayable",
      "type": "constructor"
    },
    {
      "anonymous": false,
      "inputs": [
        {
          "indexed": false,
          "internalType": "address",
          "name": "oldAdmin",
          "type": "address"
        },
        {
          "indexed": false,
          "internalType": "address",
          "name": "newAdmin",
          "type": "address"
        }
      ],
      "name": "AdminChanged",
      "type": "event"
    },
    {
      "anonymous": false,
      "inputs": [
        {
          "indexed": false,
          "internalType": "address",
          "name": "feeCollector",
          "type": "address"
        },
        {
          "indexed": false,
          "internalType": "uint256",
          "name": "fee10000th",
          "type": "uint256"
        }
      ],
      "name": "FeeSetup",
      "type": "event"
    },
    {
      "anonymous": false,
      "inputs": [
        {
          "indexed": false,
          "internalType": "address",
          "name": "metaTransactionProcessor",
          "type": "address"
        },
        {
          "indexed": false,
          "internalType": "bool",
          "name": "enabled",
          "type": "bool"
        }
      ],
      "name": "MetaTransactionProcessor",
      "type": "event"
    },
    {
      "anonymous": false,
      "inputs": [
        {
          "indexed": false,
          "internalType": "uint256",
          "name": "feeLimit",
          "type": "uint256"
        }
      ],
      "name": "NewFeeLimit",
      "type": "event"
    },
    {
      "anonymous": false,
      "inputs": [
        {
          "indexed": true,
          "internalType": "address",
          "name": "seller",
          "type": "address"
        },
        {
          "indexed": true,
          "internalType": "uint256",
          "name": "offerId",
          "type": "uint256"
        }
      ],
      "name": "OfferCancelled",
      "type": "event"
    },
    {
      "anonymous": false,
      "inputs": [
        {
          "indexed": true,
          "internalType": "address",
          "name": "seller",
          "type": "address"
        },
        {
          "indexed": true,
          "internalType": "address",
          "name": "buyer",
          "type": "address"
        },
        {
          "indexed": true,
          "internalType": "uint256",
          "name": "offerId",
          "type": "uint256"
        },
        {
          "indexed": false,
          "internalType": "uint256",
          "name": "amount",
          "type": "uint256"
        },
        {
          "indexed": false,
          "internalType": "uint256",
          "name": "pricePaid",
          "type": "uint256"
        },
        {
          "indexed": false,
          "internalType": "uint256",
          "name": "feePaid",
          "type": "uint256"
        }
      ],
      "name": "OfferClaimed",
      "type": "event"
    },
    {
      "inputs": [],
      "name": "AUCTION_TYPEHASH",
      "outputs": [
        {
          "internalType": "bytes32",
          "name": "",
          "type": "bytes32"
        }
      ],
      "stateMutability": "view",
      "type": "function"
    },
    {
      "inputs": [],
      "name": "AuctionData_Duration",
      "outputs": [
        {
          "internalType": "uint256",
          "name": "",
          "type": "uint256"
        }
      ],
      "stateMutability": "view",
      "type": "function"
    },
    {
      "inputs": [],
      "name": "AuctionData_EndingPrice",
      "outputs": [
        {
          "internalType": "uint256",
          "name": "",
          "type": "uint256"
        }
      ],
      "stateMutability": "view",
      "type": "function"
    },
    {
      "inputs": [],
      "name": "AuctionData_OfferId",
      "outputs": [
        {
          "internalType": "uint256",
          "name": "",
          "type": "uint256"
        }
      ],
      "stateMutability": "view",
      "type": "function"
    },
    {
      "inputs": [],
      "name": "AuctionData_Packs",
      "outputs": [
        {
          "internalType": "uint256",
          "name": "",
          "type": "uint256"
        }
      ],
      "stateMutability": "view",
      "type": "function"
    },
    {
      "inputs": [],
      "name": "AuctionData_StartedAt",
      "outputs": [
        {
          "internalType": "uint256",
          "name": "",
          "type": "uint256"
        }
      ],
      "stateMutability": "view",
      "type": "function"
    },
    {
      "inputs": [],
      "name": "AuctionData_StartingPrice",
      "outputs": [
        {
          "internalType": "uint256",
          "name": "",
          "type": "uint256"
        }
      ],
      "stateMutability": "view",
      "type": "function"
    },
    {
      "inputs": [],
      "name": "BACKEND_TYPEHASH",
      "outputs": [
        {
          "internalType": "bytes32",
          "name": "",
          "type": "bytes32"
        }
      ],
      "stateMutability": "view",
      "type": "function"
    },
    {
      "inputs": [],
      "name": "MAX_UINT256",
      "outputs": [
        {
          "internalType": "uint256",
          "name": "",
          "type": "uint256"
        }
      ],
      "stateMutability": "view",
      "type": "function"
    },
    {
      "inputs": [],
      "name": "_DOMAIN_SEPARATOR",
      "outputs": [
        {
          "internalType": "bytes32",
          "name": "",
          "type": "bytes32"
        }
      ],
      "stateMutability": "view",
      "type": "function"
    },
    {
      "inputs": [],
      "name": "_asset",
      "outputs": [
        {
          "internalType": "contract IERC1155",
          "name": "",
          "type": "address"
        }
      ],
      "stateMutability": "view",
      "type": "function"
    },
    {
      "inputs": [],
      "name": "_fee10000th",
      "outputs": [
        {
          "internalType": "uint256",
          "name": "",
          "type": "uint256"
        }
      ],
      "stateMutability": "view",
      "type": "function"
    },
    {
      "inputs": [],
      "name": "_feeCollector",
      "outputs": [
        {
          "internalType": "address payable",
          "name": "",
          "type": "address"
        }
      ],
      "stateMutability": "view",
      "type": "function"
    },
    {
      "inputs": [],
      "name": "_feeLimit",
      "outputs": [
        {
          "internalType": "uint256",
          "name": "",
          "type": "uint256"
        }
      ],
      "stateMutability": "view",
      "type": "function"
    },
    {
      "inputs": [],
      "name": "_maxfeeLimit",
      "outputs": [
        {
          "internalType": "uint256",
          "name": "",
          "type": "uint256"
        }
      ],
      "stateMutability": "view",
      "type": "function"
    },
    {
      "inputs": [
        {
          "internalType": "uint256",
          "name": "offerId",
          "type": "uint256"
        }
      ],
      "name": "cancelSellerOffer",
      "outputs": [],
      "stateMutability": "nonpayable",
      "type": "function"
    },
    {
      "inputs": [
        {
          "internalType": "address",
          "name": "newAdmin",
          "type": "address"
        }
      ],
      "name": "changeAdmin",
      "outputs": [],
      "stateMutability": "nonpayable",
      "type": "function"
    },
    {
      "inputs": [
        {
          "components": [
            {
              "internalType": "address",
              "name": "buyer",
              "type": "address"
            },
            {
              "internalType": "address payable",
              "name": "seller",
              "type": "address"
            },
            {
              "internalType": "address",
              "name": "token",
              "type": "address"
            },
            {
              "internalType": "uint256[]",
              "name": "purchase",
              "type": "uint256[]"
            },
            {
              "internalType": "uint256[]",
              "name": "auctionData",
              "type": "uint256[]"
            },
            {
              "internalType": "uint256[]",
              "name": "ids",
              "type": "uint256[]"
            },
            {
              "internalType": "uint256[]",
              "name": "amounts",
              "type": "uint256[]"
            },
            {
              "internalType": "bytes",
              "name": "signature",
              "type": "bytes"
            },
            {
              "internalType": "bytes",
              "name": "backendSignature",
              "type": "bytes"
            }
          ],
          "internalType": "struct AssetSignedAuctionWithAuth.ClaimSellerOfferRequest",
          "name": "input",
          "type": "tuple"
        }
      ],
      "name": "claimSellerOffer",
      "outputs": [],
      "stateMutability": "payable",
      "type": "function"
    },
    {
      "inputs": [
        {
          "components": [
            {
              "internalType": "address",
              "name": "buyer",
              "type": "address"
            },
            {
              "internalType": "address payable",
              "name": "seller",
              "type": "address"
            },
            {
              "internalType": "address",
              "name": "token",
              "type": "address"
            },
            {
              "internalType": "uint256[]",
              "name": "purchase",
              "type": "uint256[]"
            },
            {
              "internalType": "uint256[]",
              "name": "auctionData",
              "type": "uint256[]"
            },
            {
              "internalType": "uint256[]",
              "name": "ids",
              "type": "uint256[]"
            },
            {
              "internalType": "uint256[]",
              "name": "amounts",
              "type": "uint256[]"
            },
            {
              "internalType": "bytes",
              "name": "signature",
              "type": "bytes"
            },
            {
              "internalType": "bytes",
              "name": "backendSignature",
              "type": "bytes"
            }
          ],
          "internalType": "struct AssetSignedAuctionWithAuth.ClaimSellerOfferRequest",
          "name": "input",
          "type": "tuple"
        }
      ],
      "name": "claimSellerOfferViaEIP1271",
      "outputs": [],
      "stateMutability": "payable",
      "type": "function"
    },
    {
      "inputs": [
        {
          "components": [
            {
              "internalType": "address",
              "name": "buyer",
              "type": "address"
            },
            {
              "internalType": "address payable",
              "name": "seller",
              "type": "address"
            },
            {
              "internalType": "address",
              "name": "token",
              "type": "address"
            },
            {
              "internalType": "uint256[]",
              "name": "purchase",
              "type": "uint256[]"
            },
            {
              "internalType": "uint256[]",
              "name": "auctionData",
              "type": "uint256[]"
            },
            {
              "internalType": "uint256[]",
              "name": "ids",
              "type": "uint256[]"
            },
            {
              "internalType": "uint256[]",
              "name": "amounts",
              "type": "uint256[]"
            },
            {
              "internalType": "bytes",
              "name": "signature",
              "type": "bytes"
            },
            {
              "internalType": "bytes",
              "name": "backendSignature",
              "type": "bytes"
            }
          ],
          "internalType": "struct AssetSignedAuctionWithAuth.ClaimSellerOfferRequest",
          "name": "input",
          "type": "tuple"
        }
      ],
      "name": "claimSellerOfferViaEIP1654",
      "outputs": [],
      "stateMutability": "payable",
      "type": "function"
    },
    {
      "inputs": [
        {
          "internalType": "address",
          "name": "",
          "type": "address"
        },
        {
          "internalType": "uint256",
          "name": "",
          "type": "uint256"
        }
      ],
      "name": "claimed",
      "outputs": [
        {
          "internalType": "uint256",
          "name": "",
          "type": "uint256"
        }
      ],
      "stateMutability": "view",
      "type": "function"
    },
    {
      "inputs": [],
      "name": "getAdmin",
      "outputs": [
        {
          "internalType": "address",
          "name": "",
          "type": "address"
        }
      ],
      "stateMutability": "view",
      "type": "function"
    },
    {
      "inputs": [
        {
          "internalType": "address",
          "name": "who",
          "type": "address"
        }
      ],
      "name": "isMetaTransactionProcessor",
      "outputs": [
        {
          "internalType": "bool",
          "name": "",
          "type": "bool"
        }
      ],
      "stateMutability": "view",
      "type": "function"
    },
    {
      "inputs": [
        {
          "internalType": "address payable",
          "name": "feeCollector",
          "type": "address"
        },
        {
          "internalType": "uint256",
          "name": "fee10000th",
          "type": "uint256"
        }
      ],
      "name": "setFee",
      "outputs": [],
      "stateMutability": "nonpayable",
      "type": "function"
    },
    {
      "inputs": [
        {
          "internalType": "uint256",
          "name": "newFeeLimit",
          "type": "uint256"
        }
      ],
      "name": "setFeeLimit",
      "outputs": [],
      "stateMutability": "nonpayable",
      "type": "function"
    },
    {
      "inputs": [
        {
          "internalType": "address",
          "name": "metaTransactionProcessor",
          "type": "address"
        },
        {
          "internalType": "bool",
          "name": "enabled",
          "type": "bool"
        }
      ],
      "name": "setMetaTransactionProcessor",
      "outputs": [],
      "stateMutability": "nonpayable",
      "type": "function"
    }
  ],
  "transactionHash": "0xc1ae82fcdc5e8319125e5ff3c7beebe094a8219c04355c7f54c732ef735bb648",
  "args": [
    "0xf050cDB34C8f39d24eD12678Dc5Ab32BE8672AfE",
    "0x39D01ecc951C2c1f20ba0549e62212659c4d1e06",
    "0x35055c6c766Cc4305D96b94255beBdB3a9937614",
    "0xF22455c7F2a81E197AecD951F588a9B650f5b282",
    200,
    "0xD3999edf36481d8f6636BB41fbdC936eA4BF5658"
  ],
  "numDeployments": 1,
  "solcInputHash": "edbebf16975ae7e93d72fe05d019d21f",
  "bytecode": "0x60a060405260006006556101f46007556101f46008553480156200002257600080fd5b5060405162002c0d38038062002c0d833981016040819052620000459162000266565b6001600055604080517f8b73c3c69bb8fe3d512ecc4cf759cc79239f7b179b0ffacaa9a75d522b39400f60208201527fb6d6e92dd180af2016b82e90468a3c0304654e472729f2809672fa0046d68006918101919091527fc89efdaa54c0f20c7adf612882df0950f5a951637e0307cdcb4c672f298b8bc660608201524660808201523060a082015260c00160408051601f198184030181529190528051602090910120608052600754821115620001435760405162461bcd60e51b815260206004820152601360248201527f4665652061626f766520746865206c696d697400000000000000000000000000604482015260640160405180910390fd5b600580546001600160a01b038881166001600160a01b031992831617909255600980549286169290911682179055600683905560408051918252602082018490527f2dc23bbde6e39cbfb61764cee95d51414528b6102d7e4799e6803d9d3062825b910160405180910390a1600180546001600160a01b0319166001600160a01b038716178155620001d790859062000203565b600480546001600160a01b0319166001600160a01b039290921691909117905550620003069350505050565b6001600160a01b038216600081815260026020908152604091829020805460ff19168515159081179091558251938452908301527fb21eb88b4e33b3f1281830a7178d74d8aa73220416215726b68ae23d539515cb910160405180910390a15050565b60008060008060008060c087890312156200027f578182fd5b86516200028c81620002ed565b60208801519096506200029f81620002ed565b6040880151909550620002b281620002ed565b6060880151909450620002c581620002ed565b608088015160a08901519194509250620002df81620002ed565b809150509295509295509295565b6001600160a01b03811681146200030357600080fd5b50565b6080516128e46200032960003960008181610427015261129a01526128e46000f3fe6080604052600436106101a15760003560e01c80638a04af6a116100e1578063d3a859d31161008a578063e55156b511610064578063e55156b514610479578063e7de635e14610499578063fb438639146104af578063fcea5e29146104c4576101a1565b8063d3a859d3146103f5578063dc0c81b514610415578063dc5074af14610449576101a1565b8063b04ce83a116100bb578063b04ce83a146103b7578063b3da2e5a146103ca578063b78b65d5146103df576101a1565b80638a04af6a146103645780638f283970146103845780639ccb6837146103a4576101a1565b80634a56c7191161014e57806354ef2fad1161012857806354ef2fad146102d9578063642ab1e6146103115780636e9960c3146103315780638905bc9a1461034f576101a1565b80634a56c719146102585780634dd6c8de1461028c57806353933d4f146102c4576101a1565b806333a581d21161017f57806333a581d2146101f9578063343090501461020f578063401df59314610243576101a1565b806308a1b960146101a657806317fe5092146101bb578063249fb1e6146101e4575b600080fd5b6101b96101b4366004612494565b6104e4565b005b3480156101c757600080fd5b506101d160065481565b6040519081526020015b60405180910390f35b3480156101f057600080fd5b506101d1600081565b34801561020557600080fd5b506101d160001981565b34801561021b57600080fd5b506101d17f3d9b458f975ccbcf7c0b500991e111a69c6c703757fa79d9276ec58d0f6539d981565b34801561024f57600080fd5b506101d1600181565b34801561026457600080fd5b506101d17fbc94e798da88aadc231cb8b98439dfe41e7875fa3bba1bb64e3239b29815a11e81565b34801561029857600080fd5b506101d16102a7366004612426565b600360209081526000928352604080842090915290825290205481565b3480156102d057600080fd5b506101d1600581565b3480156102e557600080fd5b506009546102f9906001600160a01b031681565b6040516001600160a01b0390911681526020016101db565b34801561031d57600080fd5b506101b961032c3660046125e9565b610692565b34801561033d57600080fd5b506001546001600160a01b03166102f9565b34801561035b57600080fd5b506101d1600381565b34801561037057600080fd5b506101b961037f3660046123ee565b610748565b34801561039057600080fd5b506101b961039f3660046123a7565b6107d6565b6101b96103b2366004612494565b6108b1565b6101b96103c5366004612494565b610a0e565b3480156103d657600080fd5b506101d1600481565b3480156103eb57600080fd5b506101d160085481565b34801561040157600080fd5b506101b96104103660046125e9565b610b6b565b34801561042157600080fd5b506101d17f000000000000000000000000000000000000000000000000000000000000000081565b34801561045557600080fd5b506104696104643660046123a7565b610c52565b60405190151581526020016101db565b34801561048557600080fd5b506101b96104943660046123c3565b610c74565b3480156104a557600080fd5b506101d160075481565b3480156104bb57600080fd5b506101d1600281565b3480156104d057600080fd5b506005546102f9906001600160a01b031681565b80610100015161051582600001518360200151846040015185608001518660a001518760c001518860600151610e15565b6004805460405163012847ed60e01b81526001600160a01b039091169163012847ed9161054691869186910161272d565b60206040518083038186803b15801561055e57600080fd5b505afa158015610572573d6000803e3d6000fd5b505050506040513d601f19601f820116820180604052508101906105969190612438565b6105e75760405162461bcd60e51b815260206004820152600c60248201527f494e56414c49445f41555448000000000000000000000000000000000000000060448201526064015b60405180910390fd5b61063a836000015184602001518560400151866060015160008151811061061e57634e487b7160e01b600052603260045260246000fd5b602002602001015187608001518860a001518960c00151610f42565b6106628360200151846040015185608001518660a001518760c001518860e001516002611296565b61068d836040015184606001518560000151866020015187608001518860a001518960c001516115fb565b505050565b33600090815260036020908152604080832084845290915290205460001914156106fe5760405162461bcd60e51b815260206004820181905260248201527f53656c6c206f666665722077617320616c72656164792063616e63656c6c656460448201526064016105de565b3360008181526003602090815260408083208584529091528082206000199055518392917f899cab278284ae4a91172caa0943607a0bcb19766254c3ebe1139be00650b10291a350565b6001546001600160a01b031633146107c85760405162461bcd60e51b815260206004820152602e60248201527f6f6e6c792061646d696e2063616e207365747570206d6574615472616e73616360448201527f74696f6e50726f636573736f727300000000000000000000000000000000000060648201526084016105de565b6107d28282611dbe565b5050565b6001546001600160a01b031633146108305760405162461bcd60e51b815260206004820152601360248201527f41444d494e5f4143434553535f44454e4945440000000000000000000000000060448201526064016105de565b600154604080516001600160a01b03928316815291831660208301527f7e644d79422f17c01e4894b5f4f588d331ebfa28653d42ae832dc59e38c9798f910160405180910390a1600180547fffffffffffffffffffffffff0000000000000000000000000000000000000000166001600160a01b0392909216919091179055565b8061010001516108e282600001518360200151846040015185608001518660a001518760c001518860600151610e15565b6004805460405163012847ed60e01b81526001600160a01b039091169163012847ed9161091391869186910161272d565b60206040518083038186803b15801561092b57600080fd5b505afa15801561093f573d6000803e3d6000fd5b505050506040513d601f19601f820116820180604052508101906109639190612438565b6109af5760405162461bcd60e51b815260206004820152600c60248201527f494e56414c49445f41555448000000000000000000000000000000000000000060448201526064016105de565b6109e6836000015184602001518560400151866060015160008151811061061e57634e487b7160e01b600052603260045260246000fd5b6106628360200151846040015185608001518660a001518760c001518860e001516000611296565b806101000151610a3f82600001518360200151846040015185608001518660a001518760c001518860600151610e15565b6004805460405163012847ed60e01b81526001600160a01b039091169163012847ed91610a7091869186910161272d565b60206040518083038186803b158015610a8857600080fd5b505afa158015610a9c573d6000803e3d6000fd5b505050506040513d601f19601f82011682018060405250810190610ac09190612438565b610b0c5760405162461bcd60e51b815260206004820152600c60248201527f494e56414c49445f41555448000000000000000000000000000000000000000060448201526064016105de565b610b43836000015184602001518560400151866060015160008151811061061e57634e487b7160e01b600052603260045260246000fd5b6106628360200151846040015185608001518660a001518760c001518860e001516001611296565b6001546001600160a01b03163314610bc55760405162461bcd60e51b815260206004820152601f60248201527f6f6e6c792061646d696e2063616e206368616e676520666565206c696d69740060448201526064016105de565b600854811115610c175760405162461bcd60e51b815260206004820152601960248201527f6e6577206c696d69742061626f7665206d6178206c696d69740000000000000060448201526064016105de565b60078190556040518181527f3550d5061e5ffe6c2bcd219af59ac06dac28c9fb92fb1495986a4d53c460d1269060200160405180910390a150565b6001600160a01b03811660009081526002602052604090205460ff165b919050565b6001600160a01b038216610cf05760405162461bcd60e51b815260206004820152602360248201527f666565436f6c6c6563746f722063616e6e6f74206265205a65726f206164647260448201527f657373000000000000000000000000000000000000000000000000000000000060648201526084016105de565b6001546001600160a01b03163314610d4a5760405162461bcd60e51b815260206004820152601960248201527f6f6e6c792061646d696e2063616e206368616e6765206665650000000000000060448201526064016105de565b600754811115610d9c5760405162461bcd60e51b815260206004820152601360248201527f4665652061626f766520746865206c696d69740000000000000000000000000060448201526064016105de565b600980547fffffffffffffffffffffffff0000000000000000000000000000000000000000166001600160a01b038416908117909155600682905560408051918252602082018390527f2dc23bbde6e39cbfb61764cee95d51414528b6102d7e4799e6803d9d3062825b91015b60405180910390a15050565b60007f3d9b458f975ccbcf7c0b500991e111a69c6c703757fa79d9276ec58d0f6539d988888888604051602001610e4c9190612686565b6040516020818303038152906040528051906020012088604051602001610e739190612686565b6040516020818303038152906040528051906020012088604051602001610e9a9190612686565b6040516020818303038152906040528051906020012088604051602001610ec19190612686565b60408051601f198184030181528282528051602091820120908301999099526001600160a01b0397881690820152948616606086015294909216608084015260a083015260c082015260e081019190915261010081019190915261012001604051602081830303815290604052805190602001209050979650505050505050565b8051825114610fb95760405162461bcd60e51b815260206004820152602360248201527f69647320616e6420616d6f756e7473206c656e677468206e6f74206d6174636860448201527f696e67000000000000000000000000000000000000000000000000000000000060648201526084016105de565b6001600160a01b038716331480610ff257506001600160a01b03851615801590610ff257503360009081526002602052604090205460ff165b61103e5760405162461bcd60e51b815260206004820152600e60248201527f6e6f7420617574686f72697a656400000000000000000000000000000000000060448201526064016105de565b6001600160a01b0386166000908152600360205260408120845182908690829061107857634e487b7160e01b600052603260045260246000fd5b602002602001015181526020019081526020016000205490506000198114156110e35760405162461bcd60e51b815260206004820152601160248201527f41756374696f6e2063616e63656c6c656400000000000000000000000000000060448201526064016105de565b60006110ef86836127ae565b90508460058151811061111257634e487b7160e01b600052603260045260246000fd5b60200260200101518111156111695760405162461bcd60e51b815260206004820152601e60248201527f42757920616d6f756e7420657863656564732073656c6c20616d6f756e74000060448201526064016105de565b428560038151811061118b57634e487b7160e01b600052603260045260246000fd5b602002602001015111156111e15760405162461bcd60e51b815260206004820152601860248201527f41756374696f6e206469646e277420737461727420796574000000000000000060448201526064016105de565b428560048151811061120357634e487b7160e01b600052603260045260246000fd5b60200260200101518660038151811061122c57634e487b7160e01b600052603260045260246000fd5b602002602001015161123e91906127ae565b1161128b5760405162461bcd60e51b815260206004820152601060248201527f41756374696f6e2066696e69736865640000000000000000000000000000000060448201526064016105de565b505050505050505050565b60607f00000000000000000000000000000000000000000000000000000000000000006112c68989898989611e38565b6040517f190100000000000000000000000000000000000000000000000000000000000060208201526022810192909252604282015260620160408051601f198184030181529190529050600282600281111561133357634e487b7160e01b600052602160045260246000fd5b1415611446576040517f20c13b0b00000000000000000000000000000000000000000000000000000000808252906001600160a01b038a16906320c13b0b90611382908590889060040161274f565b60206040518083038186803b15801561139a57600080fd5b505afa1580156113ae573d6000803e3d6000fd5b505050506040513d601f19601f820116820180604052508101906113d29190612454565b7fffffffff0000000000000000000000000000000000000000000000000000000016146114415760405162461bcd60e51b815260206004820152601660248201527f696e76616c69642031323731207369676e61747572650000000000000000000060448201526064016105de565b6115f1565b600182600281111561146857634e487b7160e01b600052602160045260246000fd5b141561157b57805160208201206040517f1626ba7e00000000000000000000000000000000000000000000000000000000808252916001600160a01b038b1691631626ba7e916114bc918890600401612714565b60206040518083038186803b1580156114d457600080fd5b505afa1580156114e8573d6000803e3d6000fd5b505050506040513d601f19601f8201168201806040525081019061150c9190612454565b7fffffffff0000000000000000000000000000000000000000000000000000000016146114415760405162461bcd60e51b815260206004820152601660248201527f696e76616c69642031363534207369676e61747572650000000000000000000060448201526064016105de565b600061158e828051906020012085611f29565b9050886001600160a01b0316816001600160a01b03161461128b5760405162461bcd60e51b815260206004820152600e60248201527f7369676e657220213d2066726f6d00000000000000000000000000000000000060448201526064016105de565b5050505050505050565b6002600054141561164e5760405162461bcd60e51b815260206004820152601f60248201527f5265656e7472616e637947756172643a207265656e7472616e742063616c6c0060448201526064016105de565b600260008190555060008660008151811061167957634e487b7160e01b600052603260045260246000fd5b6020026020010151611738856001815181106116a557634e487b7160e01b600052603260045260246000fd5b6020026020010151866002815181106116ce57634e487b7160e01b600052603260045260246000fd5b6020026020010151876004815181106116f757634e487b7160e01b600052603260045260246000fd5b60200260200101518860038151811061172057634e487b7160e01b600052603260045260246000fd5b602002602001015142611733919061282a565b6120eb565b611742919061280b565b90508660008151811061176557634e487b7160e01b600052603260045260246000fd5b602002602001015160036000876001600160a01b03166001600160a01b031681526020019081526020016000206000866000815181106117b557634e487b7160e01b600052603260045260246000fd5b60200260200101518152602001908152602001600020546117d691906127ae565b6001600160a01b038616600090815260036020526040812086519091908790829061181157634e487b7160e01b600052603260045260246000fd5b602002602001015181526020019081526020016000208190555060008060065411156118465761184382600654612176565b90505b600061185282846127ae565b90508860018151811061187557634e487b7160e01b600052603260045260246000fd5b60200260200101518111156118f25760405162461bcd60e51b815260206004820152602160248201527f6f666665722065786365656473206d617820616d6f756e7420746f207370656e60448201527f640000000000000000000000000000000000000000000000000000000000000060648201526084016105de565b6001600160a01b038a1615611aee576040517f23b872dd0000000000000000000000000000000000000000000000000000000081526001600160a01b0389811660048301528881166024830152604482018590528b16906323b872dd90606401602060405180830381600087803b15801561196c57600080fd5b505af1158015611980573d6000803e3d6000fd5b505050506040513d601f19601f820116820180604052508101906119a49190612438565b6119f05760405162461bcd60e51b815260206004820152601e60248201527f6661696c656420746f207472616e7366657220746f6b656e207072696365000060448201526064016105de565b8115611ae9576009546040517f23b872dd0000000000000000000000000000000000000000000000000000000081526001600160a01b038a81166004830152918216602482015260448101849052908b16906323b872dd90606401602060405180830381600087803b158015611a6557600080fd5b505af1158015611a79573d6000803e3d6000fd5b505050506040513d601f19601f82011682018060405250810190611a9d9190612438565b611ae95760405162461bcd60e51b815260206004820152601560248201527f6661696c656420746f20636f6c6c65637420666565000000000000000000000060448201526064016105de565b611b7f565b80341015611b3e5760405162461bcd60e51b815260206004820152600b60248201527f455448203c20746f74616c00000000000000000000000000000000000000000060448201526064016105de565b80341115611b5957611b5933611b54833461282a565b612196565b611b638784612196565b8115611b7f57600954611b7f906001600160a01b031683612196565b6000845167ffffffffffffffff811115611ba957634e487b7160e01b600052604160045260246000fd5b604051908082528060200260200182016040528015611bd2578160200160208202803683370190505b50905060005b8151811015611c79578a600081518110611c0257634e487b7160e01b600052603260045260246000fd5b6020026020010151868281518110611c2a57634e487b7160e01b600052603260045260246000fd5b6020026020010151611c3c919061280b565b828281518110611c5c57634e487b7160e01b600052603260045260246000fd5b602090810291909101015280611c7181612841565b915050611bd8565b506005546040517f2eb2c2d60000000000000000000000000000000000000000000000000000000081526001600160a01b0390911690632eb2c2d690611cc9908b908d908b9087906004016126bc565b600060405180830381600087803b158015611ce357600080fd5b505af1158015611cf7573d6000803e3d6000fd5b5050505086600081518110611d1c57634e487b7160e01b600052603260045260246000fd5b6020026020010151896001600160a01b0316896001600160a01b03167fb6ccdf0f604b7944dc67e7a20fcac8d00f86137f70b2cf577073372a547678478d600081518110611d7a57634e487b7160e01b600052603260045260246000fd5b60200260200101518888604051611da4939291909283526020830191909152604082015260600190565b60405180910390a450506001600055505050505050505050565b6001600160a01b03821660008181526002602090815260409182902080547fffffffffffffffffffffffffffffffffffffffffffffffffffffffffffffff00168515159081179091558251938452908301527fb21eb88b4e33b3f1281830a7178d74d8aa73220416215726b68ae23d539515cb9101610e09565b60007fbc94e798da88aadc231cb8b98439dfe41e7875fa3bba1bb64e3239b29815a11e868686604051602001611e6e9190612686565b6040516020818303038152906040528051906020012086604051602001611e959190612686565b6040516020818303038152906040528051906020012086604051602001611ebc9190612686565b60408051601f198184030181528282528051602091820120908301979097526001600160a01b0395861690820152939092166060840152608083015260a082015260c081019190915260e00160405160208183030381529060405280519060200120905095945050505050565b60008151604114611f7c5760405162461bcd60e51b815260206004820152601a60248201527f696e636f7272656374207369676e6174757265206c656e67746800000000000060448201526064016105de565b60208201516040830151606084015160001a601b811015611fa557611fa2601b826127c6565b90505b8060ff16601b1480611fba57508060ff16601c145b61202c5760405162461bcd60e51b815260206004820152602760248201527f76657273696f6e206f66207369676e61747572652073686f756c64206265203260448201527f37206f722032380000000000000000000000000000000000000000000000000060648201526084016105de565b60408051600081526020810180835288905260ff831691810191909152606081018490526080810183905260019060a0016020604051602081039080840390855afa15801561207f573d6000803e3d6000fd5b5050604051601f1901519450506001600160a01b0384166120e25760405162461bcd60e51b815260206004820152601160248201527f696e636f7272656374206164647265737300000000000000000000000000000060448201526064016105de565b50505092915050565b6000828211156120fc57508261216e565b8484141561210b57508261216e565b8484111561214457828261211f878761282a565b612129919061280b565b61213391906127eb565b61213d90866127ae565b905061216e565b8282612150868861282a565b61215a919061280b565b61216491906127eb565b61213d908661282a565b949350505050565b6000612710612185838561280b565b61218f91906127eb565b9392505050565b804710156121e65760405162461bcd60e51b815260206004820152601d60248201527f416464726573733a20696e73756666696369656e742062616c616e636500000060448201526064016105de565b6000826001600160a01b03168260405160006040518083038185875af1925050503d8060008114612233576040519150601f19603f3d011682016040523d82523d6000602084013e612238565b606091505b505090508061068d5760405162461bcd60e51b815260206004820152603a60248201527f416464726573733a20756e61626c6520746f2073656e642076616c75652c207260448201527f6563697069656e74206d6179206861766520726576657274656400000000000060648201526084016105de565b8035610c6f81612888565b600082601f8301126122ca578081fd5b8135602067ffffffffffffffff8211156122e6576122e6612872565b8082026122f482820161277d565b83815282810190868401838801850189101561230e578687fd5b8693505b85841015612330578035835260019390930192918401918401612312565b50979650505050505050565b600082601f83011261234c578081fd5b813567ffffffffffffffff81111561236657612366612872565b6123796020601f19601f8401160161277d565b81815284602083860101111561238d578283fd5b816020850160208301379081016020019190915292915050565b6000602082840312156123b8578081fd5b813561218f81612888565b600080604083850312156123d5578081fd5b82356123e081612888565b946020939093013593505050565b60008060408385031215612400578182fd5b823561240b81612888565b9150602083013561241b816128a0565b809150509250929050565b600080604083850312156123d5578182fd5b600060208284031215612449578081fd5b815161218f816128a0565b600060208284031215612465578081fd5b81517fffffffff000000000000000000000000000000000000000000000000000000008116811461218f578182fd5b6000602082840312156124a5578081fd5b813567ffffffffffffffff808211156124bc578283fd5b81840191506101208083870312156124d2578384fd5b6124db8161277d565b90506124e6836122af565b81526124f4602084016122af565b6020820152612505604084016122af565b604082015260608301358281111561251b578485fd5b612527878286016122ba565b60608301525060808301358281111561253e578485fd5b61254a878286016122ba565b60808301525060a083013582811115612561578485fd5b61256d878286016122ba565b60a08301525060c083013582811115612584578485fd5b612590878286016122ba565b60c08301525060e0830135828111156125a7578485fd5b6125b38782860161233c565b60e08301525061010080840135838111156125cc578586fd5b6125d88882870161233c565b918301919091525095945050505050565b6000602082840312156125fa578081fd5b5035919050565b6000815180845260208085019450808401835b8381101561263057815187529582019590820190600101612614565b509495945050505050565b60008151808452815b8181101561266057602081850181015186830182015201612644565b818111156126715782602083870101525b50601f01601f19169290920160200192915050565b815160009082906020808601845b838110156126b057815185529382019390820190600101612694565b50929695505050505050565b60006001600160a01b03808716835280861660208401525060a060408301526126e860a0830185612601565b82810360608401526126fa8185612601565b838103608090940193909352508152602001949350505050565b60008382526040602083015261216e604083018461263b565b600060408252612740604083018561263b565b90508260208301529392505050565b600060408252612762604083018561263b565b8281036020840152612774818561263b565b95945050505050565b604051601f8201601f1916810167ffffffffffffffff811182821017156127a6576127a6612872565b604052919050565b600082198211156127c1576127c161285c565b500190565b600060ff821660ff84168060ff038211156127e3576127e361285c565b019392505050565b60008261280657634e487b7160e01b81526012600452602481fd5b500490565b60008160001904831182151516156128255761282561285c565b500290565b60008282101561283c5761283c61285c565b500390565b60006000198214156128555761285561285c565b5060010190565b634e487b7160e01b600052601160045260246000fd5b634e487b7160e01b600052604160045260246000fd5b6001600160a01b038116811461289d57600080fd5b50565b801515811461289d57600080fdfea26469706673582212207d6c3a7c067b7891224a71f023f7b46d64f7cfa9a83edbbed1296654e50229c064736f6c63430008020033",
  "devdoc": {
    "kind": "dev",
    "methods": {
      "cancelSellerOffer(uint256)": {
        "params": {
          "offerId": "offer to cancel"
        }
      },
      "changeAdmin(address)": {
        "details": "Change the administrator to be `newAdmin`.",
        "params": {
          "newAdmin": "The address of the new administrator."
        }
      },
      "claimSellerOffer((address,address,address,uint256[],uint256[],uint256[],uint256[],bytes,bytes))": {
        "params": {
          "input": "Claim Seller Offer Request"
        }
      },
      "claimSellerOfferViaEIP1271((address,address,address,uint256[],uint256[],uint256[],uint256[],bytes,bytes))": {
        "params": {
          "input": "Claim Seller Offer Request"
        }
      },
      "claimSellerOfferViaEIP1654((address,address,address,uint256[],uint256[],uint256[],uint256[],bytes,bytes))": {
        "params": {
          "input": "Claim Seller Offer Request"
        }
      },
      "getAdmin()": {
        "details": "Get the current administrator of this contract.",
        "returns": {
          "_0": "The current administrator of this contract."
        }
      },
      "isMetaTransactionProcessor(address)": {
        "params": {
          "who": "The address to query."
        },
        "returns": {
          "_0": "whether the address has meta-transaction execution rights."
        }
      },
      "setFee(address,uint256)": {
        "params": {
          "fee10000th": "fee in 10,000th",
          "feeCollector": "address receiving the fee"
        }
      },
      "setFeeLimit(uint256)": {
        "params": {
          "newFeeLimit": "new fee limit"
        }
      },
      "setMetaTransactionProcessor(address,bool)": {
        "params": {
          "enabled": "set whether the metaTransactionProcessor is enabled or disabled.",
          "metaTransactionProcessor": "address that will be given/removed metaTransactionProcessor rights."
        }
      }
    },
    "version": 1
  },
  "userdoc": {
    "kind": "user",
    "methods": {
      "cancelSellerOffer(uint256)": {
        "notice": "cancel a offer previously signed, new offer need to use a id not used yet"
      },
      "claimSellerOffer((address,address,address,uint256[],uint256[],uint256[],uint256[],bytes,bytes))": {
        "notice": "claim offer using EIP712"
      },
      "claimSellerOfferViaEIP1271((address,address,address,uint256[],uint256[],uint256[],uint256[],bytes,bytes))": {
        "notice": "claim offer using EIP712 and EIP1271 signature verification scheme"
      },
      "claimSellerOfferViaEIP1654((address,address,address,uint256[],uint256[],uint256[],uint256[],bytes,bytes))": {
        "notice": "claim offer using EIP712 and EIP1654 signature verification scheme"
      },
      "isMetaTransactionProcessor(address)": {
        "notice": "check whether address `who` is given meta-transaction execution rights."
      },
      "setFee(address,uint256)": {
        "notice": "set fee parameters"
      },
      "setFeeLimit(uint256)": {
        "notice": "setFeeLimit parameters"
      },
      "setMetaTransactionProcessor(address,bool)": {
        "notice": "Enable or disable the ability of `metaTransactionProcessor` to perform meta-tx (metaTransactionProcessor rights)."
      }
    },
    "version": 1
  },
  "storageLayout": {
    "storage": [
      {
        "astId": 589,
        "contract": "src/solc_0.8/asset/AssetSignedAuctionWithAuth.sol:AssetSignedAuctionWithAuth",
        "label": "_status",
        "offset": 0,
        "slot": "0",
        "type": "t_uint256"
      },
      {
        "astId": 25745,
        "contract": "src/solc_0.8/asset/AssetSignedAuctionWithAuth.sol:AssetSignedAuctionWithAuth",
        "label": "_admin",
        "offset": 0,
        "slot": "1",
        "type": "t_address"
      },
      {
        "astId": 25680,
        "contract": "src/solc_0.8/asset/AssetSignedAuctionWithAuth.sol:AssetSignedAuctionWithAuth",
        "label": "_metaTransactionContracts",
        "offset": 0,
        "slot": "2",
        "type": "t_mapping(t_address,t_bool)"
      },
      {
        "astId": 12919,
        "contract": "src/solc_0.8/asset/AssetSignedAuctionWithAuth.sol:AssetSignedAuctionWithAuth",
        "label": "claimed",
        "offset": 0,
        "slot": "3",
        "type": "t_mapping(t_address,t_mapping(t_uint256,t_uint256))"
      },
      {
        "astId": 12922,
        "contract": "src/solc_0.8/asset/AssetSignedAuctionWithAuth.sol:AssetSignedAuctionWithAuth",
        "label": "_authValidator",
        "offset": 0,
        "slot": "4",
        "type": "t_contract(IAuthValidator)27382"
      },
      {
        "astId": 12925,
        "contract": "src/solc_0.8/asset/AssetSignedAuctionWithAuth.sol:AssetSignedAuctionWithAuth",
        "label": "_asset",
        "offset": 0,
        "slot": "5",
        "type": "t_contract(IERC1155)27497"
      },
      {
        "astId": 12928,
        "contract": "src/solc_0.8/asset/AssetSignedAuctionWithAuth.sol:AssetSignedAuctionWithAuth",
        "label": "_fee10000th",
        "offset": 0,
        "slot": "6",
        "type": "t_uint256"
      },
      {
        "astId": 12931,
        "contract": "src/solc_0.8/asset/AssetSignedAuctionWithAuth.sol:AssetSignedAuctionWithAuth",
        "label": "_feeLimit",
        "offset": 0,
        "slot": "7",
        "type": "t_uint256"
      },
      {
        "astId": 12934,
        "contract": "src/solc_0.8/asset/AssetSignedAuctionWithAuth.sol:AssetSignedAuctionWithAuth",
        "label": "_maxfeeLimit",
        "offset": 0,
        "slot": "8",
        "type": "t_uint256"
      },
      {
        "astId": 12936,
        "contract": "src/solc_0.8/asset/AssetSignedAuctionWithAuth.sol:AssetSignedAuctionWithAuth",
        "label": "_feeCollector",
        "offset": 0,
        "slot": "9",
        "type": "t_address_payable"
      }
    ],
    "types": {
      "t_address": {
        "encoding": "inplace",
        "label": "address",
        "numberOfBytes": "20"
      },
      "t_address_payable": {
        "encoding": "inplace",
        "label": "address payable",
        "numberOfBytes": "20"
      },
      "t_bool": {
        "encoding": "inplace",
        "label": "bool",
        "numberOfBytes": "1"
      },
      "t_contract(IAuthValidator)27382": {
        "encoding": "inplace",
        "label": "contract IAuthValidator",
        "numberOfBytes": "20"
      },
      "t_contract(IERC1155)27497": {
        "encoding": "inplace",
        "label": "contract IERC1155",
        "numberOfBytes": "20"
      },
      "t_mapping(t_address,t_bool)": {
        "encoding": "mapping",
        "key": "t_address",
        "label": "mapping(address => bool)",
        "numberOfBytes": "32",
        "value": "t_bool"
      },
      "t_mapping(t_address,t_mapping(t_uint256,t_uint256))": {
        "encoding": "mapping",
        "key": "t_address",
        "label": "mapping(address => mapping(uint256 => uint256))",
        "numberOfBytes": "32",
        "value": "t_mapping(t_uint256,t_uint256)"
      },
      "t_mapping(t_uint256,t_uint256)": {
        "encoding": "mapping",
        "key": "t_uint256",
        "label": "mapping(uint256 => uint256)",
        "numberOfBytes": "32",
        "value": "t_uint256"
      },
      "t_uint256": {
        "encoding": "inplace",
        "label": "uint256",
        "numberOfBytes": "32"
      }
    }
  }
}