{
  "address": "0xFEEe6Eec68Ac9941269166560Aca31af9039964F",
  "abi": [
    {
      "inputs": [
        {
          "internalType": "address",
          "name": "_checkpointManager",
          "type": "address"
        },
        {
          "internalType": "address",
          "name": "_fxRoot",
          "type": "address"
        },
        {
          "internalType": "contract IAssetERC1155",
          "name": "_rootToken",
          "type": "address"
        },
        {
          "internalType": "address",
          "name": "_trustedForwarder",
          "type": "address"
        }
      ],
      "stateMutability": "nonpayable",
      "type": "constructor"
    },
    {
      "anonymous": false,
      "inputs": [
        {
          "indexed": false,
          "internalType": "address",
          "name": "user",
          "type": "address"
        },
        {
          "indexed": false,
          "internalType": "uint256",
          "name": "id",
          "type": "uint256"
        },
        {
          "indexed": false,
          "internalType": "uint256",
          "name": "value",
          "type": "uint256"
        },
        {
          "indexed": false,
          "internalType": "bytes",
          "name": "data",
          "type": "bytes"
        }
      ],
      "name": "Deposit",
      "type": "event"
    },
    {
      "anonymous": false,
      "inputs": [
        {
          "indexed": true,
          "internalType": "address",
          "name": "previousOwner",
          "type": "address"
        },
        {
          "indexed": true,
          "internalType": "address",
          "name": "newOwner",
          "type": "address"
        }
      ],
      "name": "OwnershipTransferred",
      "type": "event"
    },
    {
      "anonymous": false,
      "inputs": [
        {
          "indexed": false,
          "internalType": "address",
          "name": "account",
          "type": "address"
        }
      ],
      "name": "Paused",
      "type": "event"
    },
    {
      "anonymous": false,
      "inputs": [
        {
          "indexed": false,
          "internalType": "address",
          "name": "account",
          "type": "address"
        }
      ],
      "name": "Unpaused",
      "type": "event"
    },
    {
      "anonymous": false,
      "inputs": [
        {
          "indexed": false,
          "internalType": "address",
          "name": "user",
          "type": "address"
        },
        {
          "indexed": false,
          "internalType": "uint256",
          "name": "id",
          "type": "uint256"
        },
        {
          "indexed": false,
          "internalType": "uint256",
          "name": "value",
          "type": "uint256"
        },
        {
          "indexed": false,
          "internalType": "bytes",
          "name": "data",
          "type": "bytes"
        }
      ],
      "name": "Withdraw",
      "type": "event"
    },
    {
      "inputs": [],
      "name": "SEND_MESSAGE_EVENT_SIG",
      "outputs": [
        {
          "internalType": "bytes32",
          "name": "",
          "type": "bytes32"
        }
      ],
      "stateMutability": "view",
      "type": "function"
    },
    {
      "inputs": [
        {
          "internalType": "uint256[]",
          "name": "ids",
          "type": "uint256[]"
        },
        {
          "internalType": "uint256[]",
          "name": "values",
          "type": "uint256[]"
        },
        {
          "internalType": "bytes",
          "name": "data",
          "type": "bytes"
        }
      ],
      "name": "batchTransferToL2",
      "outputs": [],
      "stateMutability": "nonpayable",
      "type": "function"
    },
    {
      "inputs": [],
      "name": "checkpointManager",
      "outputs": [
        {
          "internalType": "contract ICheckpointManager",
          "name": "",
          "type": "address"
        }
      ],
      "stateMutability": "view",
      "type": "function"
    },
    {
      "inputs": [],
      "name": "fxChildTunnel",
      "outputs": [
        {
          "internalType": "address",
          "name": "",
          "type": "address"
        }
      ],
      "stateMutability": "view",
      "type": "function"
    },
    {
      "inputs": [],
      "name": "fxRoot",
      "outputs": [
        {
          "internalType": "contract IFxStateSender",
          "name": "",
          "type": "address"
        }
      ],
      "stateMutability": "view",
      "type": "function"
    },
    {
      "inputs": [],
      "name": "getTrustedForwarder",
      "outputs": [
        {
          "internalType": "address",
          "name": "trustedForwarder",
          "type": "address"
        }
      ],
      "stateMutability": "view",
      "type": "function"
    },
    {
      "inputs": [
        {
          "internalType": "address",
          "name": "forwarder",
          "type": "address"
        }
      ],
      "name": "isTrustedForwarder",
      "outputs": [
        {
          "internalType": "bool",
          "name": "",
          "type": "bool"
        }
      ],
      "stateMutability": "view",
      "type": "function"
    },
    {
      "inputs": [
        {
          "internalType": "address",
          "name": "",
          "type": "address"
        },
        {
          "internalType": "address",
          "name": "",
          "type": "address"
        },
        {
          "internalType": "uint256[]",
          "name": "",
          "type": "uint256[]"
        },
        {
          "internalType": "uint256[]",
          "name": "",
          "type": "uint256[]"
        },
        {
          "internalType": "bytes",
          "name": "",
          "type": "bytes"
        }
      ],
      "name": "onERC1155BatchReceived",
      "outputs": [
        {
          "internalType": "bytes4",
          "name": "",
          "type": "bytes4"
        }
      ],
      "stateMutability": "pure",
      "type": "function"
    },
    {
      "inputs": [
        {
          "internalType": "address",
          "name": "",
          "type": "address"
        },
        {
          "internalType": "address",
          "name": "",
          "type": "address"
        },
        {
          "internalType": "uint256",
          "name": "",
          "type": "uint256"
        },
        {
          "internalType": "uint256",
          "name": "",
          "type": "uint256"
        },
        {
          "internalType": "bytes",
          "name": "",
          "type": "bytes"
        }
      ],
      "name": "onERC1155Received",
      "outputs": [
        {
          "internalType": "bytes4",
          "name": "",
          "type": "bytes4"
        }
      ],
      "stateMutability": "pure",
      "type": "function"
    },
    {
      "inputs": [],
      "name": "owner",
      "outputs": [
        {
          "internalType": "address",
          "name": "",
          "type": "address"
        }
      ],
      "stateMutability": "view",
      "type": "function"
    },
    {
      "inputs": [],
      "name": "pause",
      "outputs": [],
      "stateMutability": "nonpayable",
      "type": "function"
    },
    {
      "inputs": [],
      "name": "paused",
      "outputs": [
        {
          "internalType": "bool",
          "name": "",
          "type": "bool"
        }
      ],
      "stateMutability": "view",
      "type": "function"
    },
    {
      "inputs": [
        {
          "internalType": "bytes32",
          "name": "",
          "type": "bytes32"
        }
      ],
      "name": "processedExits",
      "outputs": [
        {
          "internalType": "bool",
          "name": "",
          "type": "bool"
        }
      ],
      "stateMutability": "view",
      "type": "function"
    },
    {
      "inputs": [
        {
          "internalType": "bytes",
          "name": "inputData",
          "type": "bytes"
        }
      ],
      "name": "receiveMessage",
      "outputs": [],
      "stateMutability": "nonpayable",
      "type": "function"
    },
    {
      "inputs": [],
      "name": "renounceOwnership",
      "outputs": [],
      "stateMutability": "nonpayable",
      "type": "function"
    },
    {
      "inputs": [],
      "name": "rootToken",
      "outputs": [
        {
          "internalType": "contract IAssetERC1155",
          "name": "",
          "type": "address"
        }
      ],
      "stateMutability": "view",
      "type": "function"
    },
    {
      "inputs": [
        {
          "internalType": "address",
          "name": "_fxChildTunnel",
          "type": "address"
        }
      ],
      "name": "setFxChildTunnel",
      "outputs": [],
      "stateMutability": "nonpayable",
      "type": "function"
    },
    {
      "inputs": [
        {
          "internalType": "address",
          "name": "trustedForwarder",
          "type": "address"
        }
      ],
      "name": "setTrustedForwarder",
      "outputs": [],
      "stateMutability": "nonpayable",
      "type": "function"
    },
    {
      "inputs": [
        {
          "internalType": "bytes4",
          "name": "interfaceId",
          "type": "bytes4"
        }
      ],
      "name": "supportsInterface",
      "outputs": [
        {
          "internalType": "bool",
          "name": "",
          "type": "bool"
        }
      ],
      "stateMutability": "pure",
      "type": "function"
    },
    {
      "inputs": [
        {
          "internalType": "address",
          "name": "newOwner",
          "type": "address"
        }
      ],
      "name": "transferOwnership",
      "outputs": [],
      "stateMutability": "nonpayable",
      "type": "function"
    },
    {
      "inputs": [],
      "name": "unpause",
      "outputs": [],
      "stateMutability": "nonpayable",
      "type": "function"
    }
  ],
  "transactionHash": "0x82bf64bdc5b0c1b26319954a23e749505184b6906a50a36321be6b5a153d72ea",
  "args": [
    "0x2890bA17EfE978480615e330ecB65333b880928e",
    "0x3d1d3E34f7fB6D26245E6640E1c50710eFFf15bA",
    "0xf5401219A50E87284fADEAf61fEfDE673908e5D2",
    "0x96E8789B195713B279c163847A7a0A107CDf6FCf"
  ],
  "numDeployments": 1,
  "solcInputHash": "65f5e19c10bd1cac2517886950f4389d",
  "bytecode": "0x60806040523480156200001157600080fd5b50604051620034e9380380620034e983398101604081905262000034916200016f565b600180546001600160a01b038087166001600160a01b03199283161790925560008054928616929091169190911790556200007862000072620000d1565b620000ee565b6005805460ff60a01b19169055600680546001600160a01b0319166001600160a01b038416179055620000c781600480546001600160a01b0319166001600160a01b0392909216919091179055565b50505050620001ef565b6000620000e86200014060201b62000a991760201c565b90505b90565b600580546001600160a01b038381166001600160a01b0319831681179093556040519116919082907f8be0079c531659141344cd1fd0a4f28419497f9722a3daafe3b4186f6b6457e090600090a35050565b6004546000906001600160a01b031633141562000167575060131936013560601c620000eb565b5033620000eb565b6000806000806080858703121562000185578384fd5b84516200019281620001d6565b6020860151909450620001a581620001d6565b6040860151909350620001b881620001d6565b6060860151909250620001cb81620001d6565b939692955090935050565b6001600160a01b0381168114620001ec57600080fd5b50565b6132ea80620001ff6000396000f3fe608060405234801561001057600080fd5b50600436106101775760003560e01c80638da5cb5b116100d8578063ce1b815f1161008c578063f23a6e6111610066578063f23a6e611461036b578063f2fde38b146103a4578063f953cec7146103b757610177565b8063ce1b815f14610334578063da74222814610345578063de9b771f1461035857610177565b8063aea4e49e116100bd578063aea4e49e146102a2578063bc197c81146102b5578063c0857ba01461032157610177565b80638da5cb5b1461027e578063972c49281461028f57610177565b8063572b6c051161012f578063607f2d4211610114578063607f2d421461024b578063715018a61461026e5780638456cb591461027657610177565b8063572b6c05146102215780635c975abb1461024357610177565b80631f2d0065116101605780631f2d0065146101d95780632f828478146102045780633f4ba83a1461021957610177565b806301ffc9a71461017c5780630e387de6146101a4575b600080fd5b61018f61018a366004612d70565b6103ca565b60405190151581526020015b60405180910390f35b6101cb7f8c5261668696ce22758910d05bab8f186d6eb247ceac2af2e82c7dc17669b03681565b60405190815260200161019b565b6006546101ec906001600160a01b031681565b6040516001600160a01b03909116815260200161019b565b610217610212366004612c68565b610465565b005b61021761067f565b61018f61022f366004612a7f565b6004546001600160a01b0390811691161490565b61018f610702565b61018f610259366004612d0c565b60036020526000908152604090205460ff1681565b610217610724565b6102176107a7565b6005546001600160a01b03166101ec565b6002546101ec906001600160a01b031681565b6102176102b0366004612a7f565b610828565b6102f06102c3366004612b33565b7fbc197c810000000000000000000000000000000000000000000000000000000098975050505050505050565b6040517fffffffff00000000000000000000000000000000000000000000000000000000909116815260200161019b565b6001546101ec906001600160a01b031681565b6004546001600160a01b03166101ec565b610217610353366004612a7f565b6108d6565b6000546101ec906001600160a01b031681565b6102f0610379366004612bee565b7ff23a6e61000000000000000000000000000000000000000000000000000000009695505050505050565b6102176103b2366004612a7f565b61097e565b6102176103c5366004612db0565b610a7f565b60007f4e2312e0000000000000000000000000000000000000000000000000000000007fffffffff000000000000000000000000000000000000000000000000000000008316148061045d57507f01ffc9a7000000000000000000000000000000000000000000000000000000007fffffffff000000000000000000000000000000000000000000000000000000008316145b90505b919050565b61046d610702565b156104bf5760405162461bcd60e51b815260206004820152601060248201527f5061757361626c653a207061757365640000000000000000000000000000000060448201526064015b60405180910390fd5b60006104c9610ae3565b6006546040517f2eb2c2d60000000000000000000000000000000000000000000000000000000081529192506001600160a01b031690632eb2c2d69061051b9084903090899089908990600401612ea9565b600060405180830381600087803b15801561053557600080fd5b505af1158015610549573d6000803e3d6000fd5b5050505060005b84518110156106785760008286838151811061057c57634e487b7160e01b600052603260045260246000fd5b60200260200101518684815181106105a457634e487b7160e01b600052603260045260246000fd5b6020026020010151866040516020016105c09493929190612f6c565b60405160208183030381529060405290506105da81610af2565b7f07c6d86eb9c47d0224ebbb590d5fbb1d9d0d7aca54f94611e5ed37a2c6ee20a78387848151811061061c57634e487b7160e01b600052603260045260246000fd5b602002602001015187858151811061064457634e487b7160e01b600052603260045260246000fd5b60200260200101518760405161065d9493929190612f6c565b60405180910390a150806106708161320c565b915050610550565b5050505050565b610687610ae3565b6001600160a01b03166106a26005546001600160a01b031690565b6001600160a01b0316146106f85760405162461bcd60e51b815260206004820181905260248201527f4f776e61626c653a2063616c6c6572206973206e6f7420746865206f776e657260448201526064016104b6565b610700610b6f565b565b60055474010000000000000000000000000000000000000000900460ff165b90565b61072c610ae3565b6001600160a01b03166107476005546001600160a01b031690565b6001600160a01b03161461079d5760405162461bcd60e51b815260206004820181905260248201527f4f776e61626c653a2063616c6c6572206973206e6f7420746865206f776e657260448201526064016104b6565b6107006000610c31565b6107af610ae3565b6001600160a01b03166107ca6005546001600160a01b031690565b6001600160a01b0316146108205760405162461bcd60e51b815260206004820181905260248201527f4f776e61626c653a2063616c6c6572206973206e6f7420746865206f776e657260448201526064016104b6565b610700610c90565b6002546001600160a01b0316156108a75760405162461bcd60e51b815260206004820152602a60248201527f467842617365526f6f7454756e6e656c3a204348494c445f54554e4e454c5f4160448201527f4c52454144595f5345540000000000000000000000000000000000000000000060648201526084016104b6565b6002805473ffffffffffffffffffffffffffffffffffffffff19166001600160a01b0392909216919091179055565b6108de610ae3565b6001600160a01b03166108f96005546001600160a01b031690565b6001600160a01b03161461094f5760405162461bcd60e51b815260206004820181905260248201527f4f776e61626c653a2063616c6c6572206973206e6f7420746865206f776e657260448201526064016104b6565b6004805473ffffffffffffffffffffffffffffffffffffffff19166001600160a01b0392909216919091179055565b610986610ae3565b6001600160a01b03166109a16005546001600160a01b031690565b6001600160a01b0316146109f75760405162461bcd60e51b815260206004820181905260248201527f4f776e61626c653a2063616c6c6572206973206e6f7420746865206f776e657260448201526064016104b6565b6001600160a01b038116610a735760405162461bcd60e51b815260206004820152602660248201527f4f776e61626c653a206e6577206f776e657220697320746865207a65726f206160448201527f646472657373000000000000000000000000000000000000000000000000000060648201526084016104b6565b610a7c81610c31565b50565b6000610a8a82610d4d565b9050610a958161109c565b5050565b6004546000906001600160a01b0316331415610adc57507fffffffffffffffffffffffffffffffffffffffffffffffffffffffffffffffec36013560601c610721565b5033610721565b6000610aed610a99565b905090565b6000546002546040517fb47204770000000000000000000000000000000000000000000000000000000081526001600160a01b039283169263b472047792610b41929116908590600401612f4a565b600060405180830381600087803b158015610b5b57600080fd5b505af1158015610678573d6000803e3d6000fd5b610b77610702565b610bc35760405162461bcd60e51b815260206004820152601460248201527f5061757361626c653a206e6f742070617573656400000000000000000000000060448201526064016104b6565b600580547fffffffffffffffffffffff00ffffffffffffffffffffffffffffffffffffffff1690557f5db9ee0a495bf2e6ff9c91a7834c1ba4fdd244a5e8aa4e537bd38aeae4b073aa610c14610ae3565b6040516001600160a01b03909116815260200160405180910390a1565b600580546001600160a01b0383811673ffffffffffffffffffffffffffffffffffffffff19831681179093556040519116919082907f8be0079c531659141344cd1fd0a4f28419497f9722a3daafe3b4186f6b6457e090600090a35050565b610c98610702565b15610ce55760405162461bcd60e51b815260206004820152601060248201527f5061757361626c653a207061757365640000000000000000000000000000000060448201526064016104b6565b600580547fffffffffffffffffffffff00ffffffffffffffffffffffffffffffffffffffff16740100000000000000000000000000000000000000001790557f62e78cea01bee320cd4e420270b5ea74000d11b0c9f74754ebdbfc544b05a258610c14610ae3565b60606000610d5a8361139f565b90506000610d67826113fe565b90506000610d7483611435565b9050600081610d828461146c565b610d8b86611692565b604051602001610d9d93929190612e7c565b60408051601f1981840301815291815281516020928301206000818152600390935291205490915060ff1615610e3a5760405162461bcd60e51b8152602060048201526024808201527f4678526f6f7454756e6e656c3a20455849545f414c52454144595f50524f434560448201527f535345440000000000000000000000000000000000000000000000000000000060648201526084016104b6565b600081815260036020526040812080547fffffffffffffffffffffffffffffffffffffffffffffffffffffffffffffff00166001179055610e7a856116bc565b90506000610e8782611822565b9050610e92816118ce565b6002546001600160a01b03908116911614610f155760405162461bcd60e51b815260206004820152602560248201527f4678526f6f7454756e6e656c3a20494e56414c49445f46585f4348494c445f5460448201527f554e4e454c00000000000000000000000000000000000000000000000000000060648201526084016104b6565b6000610f2087611905565b9050610f40610f30846020015190565b87610f3a8a61192f565b84611959565b610fb25760405162461bcd60e51b815260206004820152602360248201527f4678526f6f7454756e6e656c3a20494e56414c49445f524543454950545f505260448201527f4f4f46000000000000000000000000000000000000000000000000000000000060648201526084016104b6565b610fe085610fbf89611c80565b610fc88a611caa565b84610fd28c611cd4565b610fdb8d611cfe565b611d28565b506000610fec83611e76565b90507f8c5261668696ce22758910d05bab8f186d6eb247ceac2af2e82c7dc17669b03661102261101d836000611ec0565b611f06565b1461106f5760405162461bcd60e51b815260206004820152601f60248201527f4678526f6f7454756e6e656c3a20494e56414c49445f5349474e41545552450060448201526064016104b6565b600061107a84611f81565b80602001905181019061108d9190612de3565b9b9a5050505050505050505050565b600080600080848060200190518101906110b69190612a9b565b935093509350935060005b83518110156113975760065484516001600160a01b039091169063d402756e9086908490811061110157634e487b7160e01b600052603260045260246000fd5b60200260200101516040518263ffffffff1660e01b815260040161112791815260200190565b60206040518083038186803b15801561113f57600080fd5b505afa158015611153573d6000803e3d6000fd5b505050506040513d601f19601f820116820180604052508101906111779190612cec565b61123b5760065484516001600160a01b039091169063731133e99087908790859081106111b457634e487b7160e01b600052603260045260246000fd5b60200260200101518685815181106111dc57634e487b7160e01b600052603260045260246000fd5b6020026020010151866040518563ffffffff1660e01b81526004016112049493929190612f6c565b600060405180830381600087803b15801561121e57600080fd5b505af1158015611232573d6000803e3d6000fd5b505050506112fa565b60065484516001600160a01b039091169063f242432a903090889088908690811061127657634e487b7160e01b600052603260045260246000fd5b602002602001015187868151811061129e57634e487b7160e01b600052603260045260246000fd5b6020026020010151876040518663ffffffff1660e01b81526004016112c7959493929190612f07565b600060405180830381600087803b1580156112e157600080fd5b505af11580156112f5573d6000803e3d6000fd5b505050505b7f5b60e6b7a1385a03cd29f6ac8c80abbd3fe29663ec7d8bbe63bb79a35c176da48585838151811061133c57634e487b7160e01b600052603260045260246000fd5b602002602001015185848151811061136457634e487b7160e01b600052603260045260246000fd5b60200260200101518560405161137d9493929190612f6c565b60405180910390a18061138f8161320c565b9150506110c1565b505050505050565b60408051602081019091526060815260006113e96113e48460408051808201825260008082526020918201528151808301909252825182529182019181019190915290565b611fab565b60408051602081019091529081529392505050565b606061045d826000015160088151811061142857634e487b7160e01b600052603260045260246000fd5b60200260200101516120dd565b600061045d826000015160028151811061145f57634e487b7160e01b600052603260045260246000fd5b6020026020010151611f06565b6040805160208101909152600081528151606091901561045d57600080611494600086612188565b60f81c905060018114806114ab57508060ff166003145b15611587576001855160026114c09190613183565b6114ca91906131a2565b67ffffffffffffffff8111156114f057634e487b7160e01b600052604160045260246000fd5b6040519080825280601f01601f19166020018201604052801561151a576020820181803683370190505b509250600061152a600187612188565b9050808460008151811061154e57634e487b7160e01b600052603260045260246000fd5b60200101907effffffffffffffffffffffffffffffffffffffffffffffffffffffffffffff1916908160001a90535060019250506115f9565b6002855160026115979190613183565b6115a191906131a2565b67ffffffffffffffff8111156115c757634e487b7160e01b600052604160045260246000fd5b6040519080825280601f01601f1916602001820160405280156115f1576020820181803683370190505b509250600091505b60ff82165b83518110156116895761162861161760ff8516836131a2565b611622906002613021565b87612188565b84828151811061164857634e487b7160e01b600052603260045260246000fd5b60200101907effffffffffffffffffffffffffffffffffffffffffffffffffffffffffffff1916908160001a905350806116818161320c565b9150506115fe565b50505092915050565b600061045d826000015160098151811061145f57634e487b7160e01b600052603260045260246000fd5b6116e060405180606001604052806060815260200160608152602001600081525090565b611708826000015160068151811061142857634e487b7160e01b600052603260045260246000fd5b60208281018290526040805180820182526000808252908301528051808201909152825181529181019082015261173e81612225565b156117535761174c81611fab565b825261180e565b60208201518051600090611769906001906131a2565b67ffffffffffffffff81111561178f57634e487b7160e01b600052604160045260246000fd5b6040519080825280601f01601f1916602001820160405280156117b9576020820181803683370190505b5090506000808360210191508260200190506117d78282855161225f565b604080518082018252600080825260209182015281518083019092528451825280850190820152611807906113e4565b8652505050505b61181783611692565b604083015250919050565b60408051608081018252600091810182815260608083019390935281526020810191909152600061187e836000015160038151811061187157634e487b7160e01b600052603260045260246000fd5b6020026020010151611fab565b8360400151815181106118a157634e487b7160e01b600052603260045260246000fd5b6020026020010151905060405180604001604052808281526020016118c583611fab565b90529392505050565b600061045d82602001516000815181106118f857634e487b7160e01b600052603260045260246000fd5b60200260200101516122d9565b600061045d826000015160058151811061145f57634e487b7160e01b600052603260045260246000fd5b606061045d826000015160078151811061142857634e487b7160e01b600052603260045260246000fd5b60008061198d8460408051808201825260008082526020918201528151808301909252825182529182019181019190915290565b9050600061199a82611fab565b9050606080856000806119ac8b61146c565b90508051600014156119c8576000975050505050505050611c78565b60005b8651811015611c6f5781518311156119ee57600098505050505050505050611c78565b611a1e878281518110611a1157634e487b7160e01b600052603260045260246000fd5b60200260200101516122f3565b955085805190602001208414611a3f57600098505050505050505050611c78565b611a6287828151811061187157634e487b7160e01b600052603260045260246000fd5b9450845160111415611b61578151831415611ad2578c80519060200120611aa38660108151811061142857634e487b7160e01b600052603260045260246000fd5b805190602001201415611ac157600198505050505050505050611c78565b600098505050505050505050611c78565b6000828481518110611af457634e487b7160e01b600052603260045260246000fd5b016020015160f81c90506010811115611b195760009950505050505050505050611c78565b611b4c868260ff1681518110611b3f57634e487b7160e01b600052603260045260246000fd5b6020026020010151612382565b9450611b59600185613021565b935050611c5d565b845160021415611ac1576000611b9b611b948760008151811061142857634e487b7160e01b600052603260045260246000fd5b84866123b0565b8351909150611baa8286613021565b1415611c0d578d80519060200120611bdc8760018151811061142857634e487b7160e01b600052603260045260246000fd5b805190602001201415611bfb5760019950505050505050505050611c78565b60009950505050505050505050611c78565b80611c245760009950505050505050505050611c78565b611c2e8185613021565b9350611c5486600181518110611b3f57634e487b7160e01b600052603260045260246000fd5b9450611c5d9050565b80611c678161320c565b9150506119cb565b50505050505050505b949350505050565b600061045d826000015160038151811061145f57634e487b7160e01b600052603260045260246000fd5b600061045d826000015160048151811061145f57634e487b7160e01b600052603260045260246000fd5b600061045d826000015160008151811061145f57634e487b7160e01b600052603260045260246000fd5b606061045d826000015160018151811061142857634e487b7160e01b600052603260045260246000fd5b6001546040517f41539d4a000000000000000000000000000000000000000000000000000000008152600481018490526000918291829182916001600160a01b03909116906341539d4a9060240160a06040518083038186803b158015611d8e57600080fd5b505afa158015611da2573d6000803e3d6000fd5b505050506040513d601f19601f82011682018060405250810190611dc69190612d24565b5093505092509250611e1d828b611ddd91906131a2565b6040805160208082018f90528183018e9052606082018d905260808083018d90528351808403909101815260a09092019092528051910120908588612515565b611e695760405162461bcd60e51b815260206004820152601c60248201527f4678526f6f7454756e6e656c3a20494e56414c49445f4845414445520000000060448201526064016104b6565b9998505050505050505050565b6040805160208101909152606081526040518060200160405280611eb8846020015160018151811061187157634e487b7160e01b600052603260045260246000fd5b905292915050565b60408051808201909152600080825260208201528251805183908110611ef657634e487b7160e01b600052603260045260246000fd5b6020026020010151905092915050565b805160009015801590611f1b57508151602110155b611f2457600080fd5b6000611f33836020015161268b565b90506000818460000151611f4791906131a2565b9050600080838660200151611f5c9190613021565b9050805191506020831015611f7857826020036101000a820491505b50949350505050565b606061045d826020015160028151811061142857634e487b7160e01b600052603260045260246000fd5b6060611fb682612225565b611fbf57600080fd5b6000611fca83612710565b905060008167ffffffffffffffff811115611ff557634e487b7160e01b600052604160045260246000fd5b60405190808252806020026020018201604052801561203a57816020015b60408051808201909152600080825260208201528152602001906001900390816120135790505b509050600061204c856020015161268b565b856020015161205b9190613021565b90506000805b848110156120d25761207283612793565b91506040518060400160405280838152602001848152508482815181106120a957634e487b7160e01b600052603260045260246000fd5b60209081029190910101526120be8284613021565b9250806120ca8161320c565b915050612061565b509195945050505050565b80516060906120eb57600080fd5b60006120fa836020015161268b565b9050600081846000015161210e91906131a2565b905060008167ffffffffffffffff81111561213957634e487b7160e01b600052604160045260246000fd5b6040519080825280601f01601f191660200182016040528015612163576020820181803683370190505b5090506000816020019050611f788487602001516121819190613021565b8285612855565b6000612195600284613227565b156121dd576010826121a8600286613039565b815181106121c657634e487b7160e01b600052603260045260246000fd5b01602001516121d8919060f81c61323b565b61221b565b6010826121eb600286613039565b8151811061220957634e487b7160e01b600052603260045260246000fd5b016020015161221b919060f81c61304d565b60f81b9392505050565b805160009061223657506000610460565b6020820151805160001a9060c082101561225557600092505050610460565b5060019392505050565b80612269576122d4565b602081106122a15782518252612280602084613021565b925061228d602083613021565b915061229a6020826131a2565b9050612269565b600060016122b08360206131a2565b6122bc906101006130b5565b6122c691906131a2565b845184518216911916178352505b505050565b80516000906015146122ea57600080fd5b61045d82611f06565b60606000826000015167ffffffffffffffff81111561232257634e487b7160e01b600052604160045260246000fd5b6040519080825280601f01601f19166020018201604052801561234c576020820181803683370190505b509050805160001415612360579050610460565b600081602001905061237b8460200151828660000151612855565b5092915050565b805160009060211461239357600080fd5b600080836020015160016123a79190613021565b51949350505050565b600080806123bd8661146c565b90506000815167ffffffffffffffff8111156123e957634e487b7160e01b600052604160045260246000fd5b6040519080825280601f01601f191660200182016040528015612413576020820181803683370190505b509050845b82516124249087613021565b8110156124e357600087828151811061244d57634e487b7160e01b600052603260045260246000fd5b01602001517fff00000000000000000000000000000000000000000000000000000000000000169050808361248289856131a2565b815181106124a057634e487b7160e01b600052603260045260246000fd5b60200101907effffffffffffffffffffffffffffffffffffffffffffffffffffffffffffff1916908160001a9053505080806124db9061320c565b915050612418565b508080519060200120828051906020012014156125035781519250612508565b600092505b50909150505b9392505050565b6000602082516125259190613227565b156125725760405162461bcd60e51b815260206004820152601460248201527f496e76616c69642070726f6f66206c656e67746800000000000000000000000060448201526064016104b6565b6000602083516125829190613039565b905061258f8160026130b5565b85106125dd5760405162461bcd60e51b815260206004820152601560248201527f4c65616620696e64657820697320746f6f20626967000000000000000000000060448201526064016104b6565b60008660205b8551811161267d578581015192506125fc600289613227565b61263157604080516020810184905290810184905260600160405160208183030381529060405280519060200120915061265e565b60408051602081018590529081018390526060016040516020818303038152906040528051906020012091505b612669600289613039565b9750612676602082613021565b90506125e3565b509094149695505050505050565b8051600090811a60808110156126a5576000915050610460565b60b88110806126c0575060c081108015906126c0575060f881105b156126cf576001915050610460565b60c0811015612704576126e4600160b86131b9565b6126f19060ff16826131a2565b6126fc906001613021565b915050610460565b6126e4600160f86131b9565b805160009061272157506000610460565b600080612731846020015161268b565b84602001516127409190613021565b90506000846000015185602001516127589190613021565b90505b8082101561278a5761276c82612793565b6127769083613021565b9150826127828161320c565b93505061275b565b50909392505050565b80516000908190811a60808110156127ae576001915061237b565b60b88110156127d4576127c26080826131a2565b6127cd906001613021565b915061237b565b60c08110156128015760b78103600185019450806020036101000a8551046001820181019350505061237b565b60f8811015612815576127c260c0826131a2565b60019390930151602084900360f7016101000a90049092017fffffffffffffffffffffffffffffffffffffffffffffffffffffffffffffff0a0192915050565b8061285f576122d4565b602081106128975782518252612876602084613021565b9250612883602083613021565b91506128906020826131a2565b905061285f565b806122a1576122d4565b60008083601f8401126128b2578182fd5b50813567ffffffffffffffff8111156128c9578182fd5b60208301915083602080830285010111156128e357600080fd5b9250929050565b600082601f8301126128fa578081fd5b8135602061290f61290a83612fd5565b612fa4565b828152818101908583018385028701840188101561292b578586fd5b855b858110156129495781358452928401929084019060010161292d565b5090979650505050505050565b600082601f830112612966578081fd5b8151602061297661290a83612fd5565b8281528181019085830183850287018401881015612992578586fd5b855b8581101561294957815184529284019290840190600101612994565b60008083601f8401126129c1578182fd5b50813567ffffffffffffffff8111156129d8578182fd5b6020830191508360208285010111156128e357600080fd5b600082601f830112612a00578081fd5b8135612a0e61290a82612ff9565b818152846020838601011115612a22578283fd5b816020850160208301379081016020019190915292915050565b600082601f830112612a4c578081fd5b8151612a5a61290a82612ff9565b818152846020838601011115612a6e578283fd5b611c788260208301602087016131dc565b600060208284031215612a90578081fd5b813561250e8161329f565b60008060008060808587031215612ab0578283fd5b8451612abb8161329f565b602086015190945067ffffffffffffffff80821115612ad8578485fd5b612ae488838901612956565b94506040870151915080821115612af9578384fd5b612b0588838901612956565b93506060870151915080821115612b1a578283fd5b50612b2787828801612a3c565b91505092959194509250565b60008060008060008060008060a0898b031215612b4e578384fd5b8835612b598161329f565b97506020890135612b698161329f565b9650604089013567ffffffffffffffff80821115612b85578586fd5b612b918c838d016128a1565b909850965060608b0135915080821115612ba9578586fd5b612bb58c838d016128a1565b909650945060808b0135915080821115612bcd578384fd5b50612bda8b828c016129b0565b999c989b5096995094979396929594505050565b60008060008060008060a08789031215612c06578182fd5b8635612c118161329f565b95506020870135612c218161329f565b94506040870135935060608701359250608087013567ffffffffffffffff811115612c4a578283fd5b612c5689828a016129b0565b979a9699509497509295939492505050565b600080600060608486031215612c7c578081fd5b833567ffffffffffffffff80821115612c93578283fd5b612c9f878388016128ea565b94506020860135915080821115612cb4578283fd5b612cc0878388016128ea565b93506040860135915080821115612cd5578283fd5b50612ce2868287016129f0565b9150509250925092565b600060208284031215612cfd578081fd5b8151801515811461250e578182fd5b600060208284031215612d1d578081fd5b5035919050565b600080600080600060a08688031215612d3b578283fd5b855194506020860151935060408601519250606086015191506080860151612d628161329f565b809150509295509295909350565b600060208284031215612d81578081fd5b81357fffffffff000000000000000000000000000000000000000000000000000000008116811461250e578182fd5b600060208284031215612dc1578081fd5b813567ffffffffffffffff811115612dd7578182fd5b611c78848285016129f0565b600060208284031215612df4578081fd5b815167ffffffffffffffff811115612e0a578182fd5b611c7884828501612a3c565b6000815180845260208085019450808401835b83811015612e4557815187529582019590820190600101612e29565b509495945050505050565b60008151808452612e688160208601602086016131dc565b601f01601f19169290920160200192915050565b60008482528351612e948160208501602088016131dc565b60209201918201929092526040019392505050565b60006001600160a01b03808816835280871660208401525060a06040830152612ed560a0830186612e16565b8281036060840152612ee78186612e16565b90508281036080840152612efb8185612e50565b98975050505050505050565b60006001600160a01b03808816835280871660208401525084604083015283606083015260a06080830152612f3f60a0830184612e50565b979650505050505050565b60006001600160a01b038416825260406020830152611c786040830184612e50565b60006001600160a01b038616825284602083015283604083015260806060830152612f9a6080830184612e50565b9695505050505050565b604051601f8201601f1916810167ffffffffffffffff81118282101715612fcd57612fcd613289565b604052919050565b600067ffffffffffffffff821115612fef57612fef613289565b5060209081020190565b600067ffffffffffffffff82111561301357613013613289565b50601f01601f191660200190565b600082198211156130345761303461325d565b500190565b60008261304857613048613273565b500490565b600060ff83168061306057613060613273565b8060ff84160491505092915050565b80825b600180861161308157506130ac565b8187048211156130935761309361325d565b808616156130a057918102915b9490941c938002613072565b94509492505050565b600061250e60001984846000826130ce5750600161250e565b816130db5750600061250e565b81600181146130f157600281146130fb57613128565b600191505061250e565b60ff84111561310c5761310c61325d565b6001841b9150848211156131225761312261325d565b5061250e565b5060208310610133831016604e8410600b841016171561315b575081810a838111156131565761315661325d565b61250e565b613168848484600161306f565b80860482111561317a5761317a61325d565b02949350505050565b600081600019048311821515161561319d5761319d61325d565b500290565b6000828210156131b4576131b461325d565b500390565b600060ff821660ff8416808210156131d3576131d361325d565b90039392505050565b60005b838110156131f75781810151838201526020016131df565b83811115613206576000848401525b50505050565b60006000198214156132205761322061325d565b5060010190565b60008261323657613236613273565b500690565b600060ff83168061324e5761324e613273565b8060ff84160691505092915050565b634e487b7160e01b600052601160045260246000fd5b634e487b7160e01b600052601260045260246000fd5b634e487b7160e01b600052604160045260246000fd5b6001600160a01b0381168114610a7c57600080fdfea2646970667358221220738749195239c207e420d9a9891a044641ebaf607fdf94a3436d7bd4ffffe38464736f6c63430008020033",
  "devdoc": {
    "kind": "dev",
    "methods": {
      "owner()": {
        "details": "Returns the address of the current owner."
      },
      "pause()": {
        "details": "Pauses all token transfers across bridge"
      },
      "paused()": {
        "details": "Returns true if the contract is paused, and false otherwise."
      },
      "receiveMessage(bytes)": {
        "details": "This function verifies if the transaction actually happened on child chain",
        "params": {
          "inputData": "RLP encoded data of the reference tx containing following list of fields  0 - headerNumber - Checkpoint header block number containing the reference tx  1 - blockProof - Proof that the block header (in the child chain) is a leaf in the submitted merkle root  2 - blockNumber - Block number containing the reference tx on child chain  3 - blockTime - Reference tx block time  4 - txRoot - Transactions root of block  5 - receiptRoot - Receipts root of block  6 - receipt - Receipt of the reference transaction  7 - receiptProof - Merkle proof of the reference receipt  8 - branchMask - 32 bits denoting the path of receipt in merkle tree  9 - receiptLogIndex - Log Index to read from the receipt"
        }
      },
      "renounceOwnership()": {
        "details": "Leaves the contract without owner. It will not be possible to call `onlyOwner` functions anymore. Can only be called by the current owner. NOTE: Renouncing ownership will leave the contract without an owner, thereby removing any functionality that is only available to the owner."
      },
      "setTrustedForwarder(address)": {
        "details": "Change the address of the trusted forwarder for meta-TX",
        "params": {
          "trustedForwarder": "The new trustedForwarder"
        }
      },
      "supportsInterface(bytes4)": {
        "details": "Returns true if this contract implements the interface defined by `interfaceId`. See the corresponding https://eips.ethereum.org/EIPS/eip-165#how-interfaces-are-identified[EIP section] to learn more about how these ids are created. This function call must use less than 30 000 gas."
      },
      "transferOwnership(address)": {
        "details": "Transfers ownership of the contract to a new account (`newOwner`). Can only be called by the current owner."
      },
      "unpause()": {
        "details": "Unpauses all token transfers across bridge"
      }
    },
    "title": "ASSETERC1155 bridge on L1",
    "version": 1
  },
  "userdoc": {
    "kind": "user",
    "methods": {
      "receiveMessage(bytes)": {
        "notice": "receive message from  L2 to L1, validated by proof"
      }
    },
    "version": 1
  },
  "storageLayout": {
    "storage": [
      {
        "astId": 9307,
        "contract": "src/solc_0.8/polygon/root/asset/AssetERC1155Tunnel.sol:AssetERC1155Tunnel",
        "label": "fxRoot",
        "offset": 0,
        "slot": "0",
        "type": "t_contract(IFxStateSender)9257"
      },
      {
        "astId": 9310,
        "contract": "src/solc_0.8/polygon/root/asset/AssetERC1155Tunnel.sol:AssetERC1155Tunnel",
        "label": "checkpointManager",
        "offset": 0,
        "slot": "1",
        "type": "t_contract(ICheckpointManager)9275"
      },
      {
        "astId": 9312,
        "contract": "src/solc_0.8/polygon/root/asset/AssetERC1155Tunnel.sol:AssetERC1155Tunnel",
        "label": "fxChildTunnel",
        "offset": 0,
        "slot": "2",
        "type": "t_address"
      },
      {
        "astId": 9316,
        "contract": "src/solc_0.8/polygon/root/asset/AssetERC1155Tunnel.sol:AssetERC1155Tunnel",
        "label": "processedExits",
        "offset": 0,
        "slot": "3",
        "type": "t_mapping(t_bytes32,t_bool)"
      },
      {
        "astId": 27731,
        "contract": "src/solc_0.8/polygon/root/asset/AssetERC1155Tunnel.sol:AssetERC1155Tunnel",
        "label": "_trustedForwarder",
        "offset": 0,
        "slot": "4",
        "type": "t_address"
      },
      {
        "astId": 389,
        "contract": "src/solc_0.8/polygon/root/asset/AssetERC1155Tunnel.sol:AssetERC1155Tunnel",
        "label": "_owner",
        "offset": 0,
        "slot": "5",
        "type": "t_address"
      },
      {
        "astId": 504,
        "contract": "src/solc_0.8/polygon/root/asset/AssetERC1155Tunnel.sol:AssetERC1155Tunnel",
        "label": "_paused",
        "offset": 20,
        "slot": "5",
        "type": "t_bool"
      },
      {
        "astId": 43096,
        "contract": "src/solc_0.8/polygon/root/asset/AssetERC1155Tunnel.sol:AssetERC1155Tunnel",
        "label": "rootToken",
        "offset": 0,
        "slot": "6",
        "type": "t_contract(IAssetERC1155)31131"
      }
    ],
    "types": {
      "t_address": {
        "encoding": "inplace",
        "label": "address",
        "numberOfBytes": "20"
      },
      "t_bool": {
        "encoding": "inplace",
        "label": "bool",
        "numberOfBytes": "1"
      },
      "t_bytes32": {
        "encoding": "inplace",
        "label": "bytes32",
        "numberOfBytes": "32"
      },
      "t_contract(IAssetERC1155)31131": {
        "encoding": "inplace",
        "label": "contract IAssetERC1155",
        "numberOfBytes": "20"
      },
      "t_contract(ICheckpointManager)9275": {
        "encoding": "inplace",
        "label": "contract ICheckpointManager",
        "numberOfBytes": "20"
      },
      "t_contract(IFxStateSender)9257": {
        "encoding": "inplace",
        "label": "contract IFxStateSender",
        "numberOfBytes": "20"
      },
      "t_mapping(t_bytes32,t_bool)": {
        "encoding": "mapping",
        "key": "t_bytes32",
        "label": "mapping(bytes32 => bool)",
        "numberOfBytes": "32",
        "value": "t_bool"
      }
    }
  }
}