{
  "address": "0x6D32b5041364d67464492Dd3Cd02B4769b5B9F8D",
  "abi": [
    {
      "inputs": [
        {
          "internalType": "contract IAssetAttributesRegistry",
          "name": "registry",
          "type": "address"
        },
        {
          "internalType": "contract IAssetToken",
          "name": "asset",
          "type": "address"
        },
        {
          "internalType": "contract GemsCatalystsRegistry",
          "name": "gemsCatalystsRegistry",
          "type": "address"
        },
        {
          "internalType": "address",
          "name": "admin",
          "type": "address"
        },
        {
          "internalType": "address",
          "name": "trustedForwarder",
          "type": "address"
        },
        {
          "internalType": "uint256[]",
          "name": "quantitiesByCatalystId_",
          "type": "uint256[]"
        },
        {
          "internalType": "uint256[]",
          "name": "quantitiesByAssetTypeId_",
          "type": "uint256[]"
        }
      ],
      "stateMutability": "nonpayable",
      "type": "constructor"
    },
    {
      "anonymous": false,
      "inputs": [
        {
          "indexed": true,
          "internalType": "address",
          "name": "addressModified",
          "type": "address"
        },
        {
          "indexed": true,
          "internalType": "bool",
          "name": "isAddressCustomMintingAllowed",
          "type": "bool"
        }
      ],
      "name": "CustomMintingAllowanceChanged",
      "type": "event"
    },
    {
      "anonymous": false,
      "inputs": [
        {
          "indexed": true,
          "internalType": "address",
          "name": "previousOwner",
          "type": "address"
        },
        {
          "indexed": true,
          "internalType": "address",
          "name": "newOwner",
          "type": "address"
        }
      ],
      "name": "OwnershipTransferred",
      "type": "event"
    },
    {
      "anonymous": false,
      "inputs": [
        {
          "indexed": true,
          "internalType": "address",
          "name": "newTrustedForwarderAddress",
          "type": "address"
        }
      ],
      "name": "TrustedForwarderChanged",
      "type": "event"
    },
    {
      "inputs": [
        {
          "internalType": "uint16",
          "name": "index1Based",
          "type": "uint16"
        },
        {
          "internalType": "uint256",
          "name": "newQuantity",
          "type": "uint256"
        }
      ],
      "name": "addOrReplaceAssetTypeQuantity",
      "outputs": [],
      "stateMutability": "nonpayable",
      "type": "function"
    },
    {
      "inputs": [
        {
          "internalType": "uint16",
          "name": "catalystId",
          "type": "uint16"
        },
        {
          "internalType": "uint256",
          "name": "newQuantity",
          "type": "uint256"
        }
      ],
      "name": "addOrReplaceQuantitiyByCatalystId",
      "outputs": [],
      "stateMutability": "nonpayable",
      "type": "function"
    },
    {
      "inputs": [],
      "name": "catalystsFactor",
      "outputs": [
        {
          "internalType": "uint256",
          "name": "",
          "type": "uint256"
        }
      ],
      "stateMutability": "view",
      "type": "function"
    },
    {
      "inputs": [
        {
          "internalType": "address",
          "name": "",
          "type": "address"
        }
      ],
      "name": "customMinterAllowance",
      "outputs": [
        {
          "internalType": "bool",
          "name": "",
          "type": "bool"
        }
      ],
      "stateMutability": "view",
      "type": "function"
    },
    {
      "inputs": [],
      "name": "gemsFactor",
      "outputs": [
        {
          "internalType": "uint256",
          "name": "",
          "type": "uint256"
        }
      ],
      "stateMutability": "view",
      "type": "function"
    },
    {
      "inputs": [],
      "name": "getTrustedForwarder",
      "outputs": [
        {
          "internalType": "address",
          "name": "trustedForwarder",
          "type": "address"
        }
      ],
      "stateMutability": "view",
      "type": "function"
    },
    {
      "inputs": [
        {
          "internalType": "address",
          "name": "forwarder",
          "type": "address"
        }
      ],
      "name": "isTrustedForwarder",
      "outputs": [
        {
          "internalType": "bool",
          "name": "",
          "type": "bool"
        }
      ],
      "stateMutability": "view",
      "type": "function"
    },
    {
      "inputs": [
        {
          "components": [
            {
              "internalType": "address",
              "name": "from",
              "type": "address"
            },
            {
              "internalType": "address",
              "name": "to",
              "type": "address"
            },
            {
              "internalType": "uint40",
              "name": "packId",
              "type": "uint40"
            },
            {
              "internalType": "bytes32",
              "name": "metadataHash",
              "type": "bytes32"
            },
            {
              "internalType": "bytes",
              "name": "data",
              "type": "bytes"
            }
          ],
          "internalType": "struct IAssetMinter.MintData",
          "name": "mintData",
          "type": "tuple"
        },
        {
          "internalType": "uint16",
          "name": "catalystId",
          "type": "uint16"
        },
        {
          "internalType": "uint16[]",
          "name": "gemIds",
          "type": "uint16[]"
        },
        {
          "internalType": "uint256",
          "name": "quantity",
          "type": "uint256"
        }
      ],
      "name": "mintCustomNumberWithCatalyst",
      "outputs": [
        {
          "internalType": "uint256",
          "name": "assetId",
          "type": "uint256"
        }
      ],
      "stateMutability": "nonpayable",
      "type": "function"
    },
    {
      "inputs": [
        {
          "components": [
            {
              "internalType": "address",
              "name": "from",
              "type": "address"
            },
            {
              "internalType": "address",
              "name": "to",
              "type": "address"
            },
            {
              "internalType": "uint40",
              "name": "packId",
              "type": "uint40"
            },
            {
              "internalType": "bytes32",
              "name": "metadataHash",
              "type": "bytes32"
            },
            {
              "internalType": "bytes",
              "name": "data",
              "type": "bytes"
            }
          ],
          "internalType": "struct IAssetMinter.MintData",
          "name": "mintData",
          "type": "tuple"
        },
        {
          "components": [
            {
              "internalType": "uint16[]",
              "name": "gemIds",
              "type": "uint16[]"
            },
            {
              "internalType": "uint16",
              "name": "catalystId",
              "type": "uint16"
            }
          ],
          "internalType": "struct IAssetMinter.AssetData[]",
          "name": "assets",
          "type": "tuple[]"
        }
      ],
      "name": "mintMultipleWithCatalyst",
      "outputs": [
        {
          "internalType": "uint256[]",
          "name": "assetIds",
          "type": "uint256[]"
        }
      ],
      "stateMutability": "nonpayable",
      "type": "function"
    },
    {
      "inputs": [
        {
          "components": [
            {
              "internalType": "address",
              "name": "from",
              "type": "address"
            },
            {
              "internalType": "address",
              "name": "to",
              "type": "address"
            },
            {
              "internalType": "uint40",
              "name": "packId",
              "type": "uint40"
            },
            {
              "internalType": "bytes32",
              "name": "metadataHash",
              "type": "bytes32"
            },
            {
              "internalType": "bytes",
              "name": "data",
              "type": "bytes"
            }
          ],
          "internalType": "struct IAssetMinter.MintData",
          "name": "mintData",
          "type": "tuple"
        },
        {
          "internalType": "uint16",
          "name": "catalystId",
          "type": "uint16"
        },
        {
          "internalType": "uint16[]",
          "name": "gemIds",
          "type": "uint16[]"
        }
      ],
      "name": "mintWithCatalyst",
      "outputs": [
        {
          "internalType": "uint256",
          "name": "assetId",
          "type": "uint256"
        }
      ],
      "stateMutability": "nonpayable",
      "type": "function"
    },
    {
      "inputs": [
        {
          "components": [
            {
              "internalType": "address",
              "name": "from",
              "type": "address"
            },
            {
              "internalType": "address",
              "name": "to",
              "type": "address"
            },
            {
              "internalType": "uint40",
              "name": "packId",
              "type": "uint40"
            },
            {
              "internalType": "bytes32",
              "name": "metadataHash",
              "type": "bytes32"
            },
            {
              "internalType": "bytes",
              "name": "data",
              "type": "bytes"
            }
          ],
          "internalType": "struct IAssetMinter.MintData",
          "name": "mintData",
          "type": "tuple"
        },
        {
          "internalType": "uint16",
          "name": "typeAsset1Based",
          "type": "uint16"
        }
      ],
      "name": "mintWithoutCatalyst",
      "outputs": [
        {
          "internalType": "uint256",
          "name": "assetId",
          "type": "uint256"
        }
      ],
      "stateMutability": "nonpayable",
      "type": "function"
    },
    {
      "inputs": [],
      "name": "numberOfCatalystBurnPerAsset",
      "outputs": [
        {
          "internalType": "uint32",
          "name": "",
          "type": "uint32"
        }
      ],
      "stateMutability": "view",
      "type": "function"
    },
    {
      "inputs": [],
      "name": "numberOfGemsBurnPerAsset",
      "outputs": [
        {
          "internalType": "uint32",
          "name": "",
          "type": "uint32"
        }
      ],
      "stateMutability": "view",
      "type": "function"
    },
    {
      "inputs": [],
      "name": "owner",
      "outputs": [
        {
          "internalType": "address",
          "name": "",
          "type": "address"
        }
      ],
      "stateMutability": "view",
      "type": "function"
    },
    {
      "inputs": [
        {
          "internalType": "uint16",
          "name": "",
          "type": "uint16"
        }
      ],
      "name": "quantitiesByAssetTypeId",
      "outputs": [
        {
          "internalType": "uint256",
          "name": "",
          "type": "uint256"
        }
      ],
      "stateMutability": "view",
      "type": "function"
    },
    {
      "inputs": [
        {
          "internalType": "uint16",
          "name": "",
          "type": "uint16"
        }
      ],
      "name": "quantitiesByCatalystId",
      "outputs": [
        {
          "internalType": "uint256",
          "name": "",
          "type": "uint256"
        }
      ],
      "stateMutability": "view",
      "type": "function"
    },
    {
      "inputs": [],
      "name": "renounceOwnership",
      "outputs": [],
      "stateMutability": "nonpayable",
      "type": "function"
    },
    {
      "inputs": [
        {
          "internalType": "uint256",
          "name": "newQuantity",
          "type": "uint256"
        }
      ],
      "name": "setCatalystsFactor",
      "outputs": [],
      "stateMutability": "nonpayable",
      "type": "function"
    },
    {
      "inputs": [
        {
          "internalType": "address",
          "name": "addressToModify",
          "type": "address"
        },
        {
          "internalType": "bool",
          "name": "isAddressAllowed",
          "type": "bool"
        }
      ],
      "name": "setCustomMintingAllowance",
      "outputs": [],
      "stateMutability": "nonpayable",
      "type": "function"
    },
    {
      "inputs": [
        {
          "internalType": "uint256",
          "name": "newQuantity",
          "type": "uint256"
        }
      ],
      "name": "setGemsFactor",
      "outputs": [],
      "stateMutability": "nonpayable",
      "type": "function"
    },
    {
      "inputs": [
        {
          "internalType": "uint32",
          "name": "newQuantity",
          "type": "uint32"
        }
      ],
      "name": "setNumberOfCatalystsBurnPerAsset",
      "outputs": [],
      "stateMutability": "nonpayable",
      "type": "function"
    },
    {
      "inputs": [
        {
          "internalType": "uint32",
          "name": "newQuantity",
          "type": "uint32"
        }
      ],
      "name": "setNumberOfGemsBurnPerAsset",
      "outputs": [],
      "stateMutability": "nonpayable",
      "type": "function"
    },
    {
      "inputs": [
        {
          "internalType": "address",
          "name": "trustedForwarder",
          "type": "address"
        }
      ],
      "name": "setTrustedForwarder",
      "outputs": [],
      "stateMutability": "nonpayable",
      "type": "function"
    },
    {
      "inputs": [
        {
          "internalType": "address",
          "name": "newOwner",
          "type": "address"
        }
      ],
      "name": "transferOwnership",
      "outputs": [],
      "stateMutability": "nonpayable",
      "type": "function"
    }
  ],
  "transactionHash": "0x3aba3a693c5c6653b349a8d3ca7bd24639a267ce96684c35b9ac2ebd40eb20a1",
  "args": [
    "0x29B6261A4244d2a7AAB0B3EDaa1159700C9A93Ae",
    "0xf050cDB34C8f39d24eD12678Dc5Ab32BE8672AfE",
    "0x9B1DBB930fd1E60dc1C6A2beec025106a7AFd65E",
    "0x39D01ecc951C2c1f20ba0549e62212659c4d1e06",
    "0x96E8789B195713B279c163847A7a0A107CDf6FCf",
    [
      1000,
      100,
      10,
      1
    ],
    [
      1,
      10000
    ]
  ],
  "solcInputHash": "0505d301d083cfaa512ecb9b03150aa2",
  "bytecode": "0x60e06040526001805463ffffffff60c01b1963ffffffff60a01b19909116600160a01b1716600160c01b179055670de0b6b3a764000060028190556003553480156200004a57600080fd5b5060405162003243380380620032438339810160408190526200006d9162000519565b600062000079620002f9565b600180546001600160a01b0319166001600160a01b0383169081179091556040519192509060009060008051602062003223833981519152908290a3506001600160601b0319606088811b821660805287811b821660a05286901b1660c052620000e38462000316565b600080546001600160a01b0319166001600160a01b03851617905560008251116200017b5760405162461bcd60e51b815260206004820152603660248201527f41737365744d696e7465723a207175616e7469746965734279436174616c797360448201527f744944206c656e6774682063616e6e6f7420626520300000000000000000000060648201526084015b60405180910390fd5b6000815111620001f45760405162461bcd60e51b815260206004820152603760248201527f41737365744d696e7465723a207175616e74697469657342794173736574547960448201527f70654964206c656e6774682063616e6e6f742062652030000000000000000000606482015260840162000172565b60005b82518161ffff1610156200026f57828161ffff16815181106200022a57634e487b7160e01b600052603260045260246000fd5b602002602001015160046000836001620002459190620005ec565b61ffff16815260208101919091526040016000205580620002668162000615565b915050620001f7565b5060005b81518161ffff161015620002eb57818161ffff1681518110620002a657634e487b7160e01b600052603260045260246000fd5b602002602001015160056000836001620002c19190620005ec565b61ffff16815260208101919091526040016000205580620002e28162000615565b91505062000273565b50505050505050506200067f565b6000620003106200044660201b620011f41760201c565b90505b90565b62000320620002f9565b6001600160a01b03166200033c6001546001600160a01b031690565b6001600160a01b031614620003945760405162461bcd60e51b815260206004820181905260248201527f4f776e61626c653a2063616c6c6572206973206e6f7420746865206f776e6572604482015260640162000172565b6001600160a01b038116620003fb5760405162461bcd60e51b815260206004820152602660248201527f4f776e61626c653a206e6577206f776e657220697320746865207a65726f206160448201526564647265737360d01b606482015260840162000172565b6001546040516001600160a01b038084169216906000805160206200322383398151915290600090a3600180546001600160a01b0319166001600160a01b0392909216919091179055565b600080546001600160a01b03163314156200046b575060131936013560601c62000313565b503362000313565b600082601f83011262000484578081fd5b815160206001600160401b0380831115620004a357620004a362000650565b818302604051601f19603f83011681018181108482111715620004ca57620004ca62000650565b60405284815283810192508684018288018501891015620004e9578687fd5b8692505b858310156200050d578051845292840192600192909201918401620004ed565b50979650505050505050565b600080600080600080600060e0888a03121562000534578283fd5b8751620005418162000666565b6020890151909750620005548162000666565b6040890151909650620005678162000666565b60608901519095506200057a8162000666565b60808901519094506200058d8162000666565b60a08901519093506001600160401b0380821115620005aa578384fd5b620005b88b838c0162000473565b935060c08a0151915080821115620005ce578283fd5b50620005dd8a828b0162000473565b91505092959891949750929550565b600061ffff8083168185168083038211156200060c576200060c6200063a565b01949350505050565b600061ffff808316818114156200063057620006306200063a565b6001019392505050565b634e487b7160e01b600052601160045260246000fd5b634e487b7160e01b600052604160045260246000fd5b6001600160a01b03811681146200067c57600080fd5b50565b60805160601c60a05160601c60c05160601c612b2c620006f7600039600081816113d7015281816114bc015281816118ed01528181611d9501528181611edf01528181611f190152611fb201526000818161073e015281816109770152611b94015260008181610b0a0152611c5d0152612b2c6000f3fe608060405234801561001057600080fd5b50600436106101985760003560e01c80638da5cb5b116100e3578063d04213a31161008c578063ef03d96e11610066578063ef03d96e146103c1578063f2fde38b146103d4578063f8efa8d0146103e757610198565b8063d04213a314610378578063d49d1b981461039b578063da742228146103ae57610198565b8063b7215597116100bd578063b721559714610341578063bfb87f0a14610354578063ce1b815f1461036757610198565b80638da5cb5b146102fb578063a8338df11461031b578063b50aae1a1461032e57610198565b80635a1dce1f11610145578063759688091161011f57806375968809146102bf5780637f2e1814146102c857806384c4fb3a146102db57610198565b80635a1dce1f1461027857806360fd0e0e146102a4578063715018a6146102b757610198565b806337a694461161017657806337a69446146101f85780633a91fda914610235578063572b6c051461025557610198565b8063048b33be1461019d57806307b7810c146101b25780630854f447146101c5575b600080fd5b6101b06101ab36600461269b565b6103f0565b005b6101b06101c03660046122ab565b6104b3565b6101e56101d3366004612628565b60046020526000908152604090205481565b6040519081526020015b60405180910390f35b6001546102209074010000000000000000000000000000000000000000900463ffffffff1681565b60405163ffffffff90911681526020016101ef565b6101e5610243366004612628565b60056020526000908152604090205481565b61026861026336600461228a565b610594565b60405190151581526020016101ef565b600154610220907801000000000000000000000000000000000000000000000000900463ffffffff1681565b6101b06102b2366004612642565b6105ab565b6101b0610631565b6101e560025481565b6101e56102d63660046124ec565b6106f7565b6102ee6102e936600461237a565b610822565b6040516101ef91906128d0565b610303610c22565b6040516001600160a01b0390911681526020016101ef565b6101b061032936600461269b565b610c32565b6101e561033c3660046125ac565b610cf4565b6101b061034f36600461266b565b610e1b565b6101e5610362366004612538565b610e8f565b6000546001600160a01b0316610303565b61026861038636600461228a565b60066020526000908152604090205460ff1681565b6101b06103a9366004612642565b610ee2565b6101b06103bc36600461228a565b610f68565b6101b06103cf36600461266b565b61102c565b6101b06103e236600461228a565b6110a0565b6101e560035481565b6103f8611238565b6001600160a01b0316610409610c22565b6001600160a01b0316146104645760405162461bcd60e51b815260206004820181905260248201527f4f776e61626c653a2063616c6c6572206973206e6f7420746865206f776e657260448201526064015b60405180910390fd5b6001805463ffffffff90921674010000000000000000000000000000000000000000027fffffffffffffffff00000000ffffffffffffffffffffffffffffffffffffffff909216919091179055565b6104bb611238565b6001600160a01b03166104cc610c22565b6001600160a01b0316146105225760405162461bcd60e51b815260206004820181905260248201527f4f776e61626c653a2063616c6c6572206973206e6f7420746865206f776e6572604482015260640161045b565b6001600160a01b03821660008181526006602052604080822080547fffffffffffffffffffffffffffffffffffffffffffffffffffffffffffffff001685151590811790915590519092917fb14c967f784f0ac8e6e62b391fbd48f1be9e9d64871ca240b416da9bbb9a9fb491a35050565b6000546001600160a01b038281169116145b919050565b6105b3611238565b6001600160a01b03166105c4610c22565b6001600160a01b03161461061a5760405162461bcd60e51b815260206004820181905260248201527f4f776e61626c653a2063616c6c6572206973206e6f7420746865206f776e6572604482015260640161045b565b61ffff909116600090815260046020526040902055565b610639611238565b6001600160a01b031661064a610c22565b6001600160a01b0316146106a05760405162461bcd60e51b815260206004820181905260248201527f4f776e61626c653a2063616c6c6572206973206e6f7420746865206f776e6572604482015260640161045b565b6001546040516000916001600160a01b0316907f8be0079c531659141344cd1fd0a4f28419497f9722a3daafe3b4186f6b6457e0908390a36001805473ffffffffffffffffffffffffffffffffffffffff19169055565b61ffff81166000908152600560209081526040822054906107349061071e9086018661228a565b8261072f604088016020890161228a565b611247565b6001600160a01b037f00000000000000000000000000000000000000000000000000000000000000001663c50a4eb9610770602087018761228a565b61078060608801604089016126bf565b606088013585600061079860408c0160208d0161228a565b6107a560808d018d61296d565b6040518963ffffffff1660e01b81526004016107c8989796959493929190612873565b602060405180830381600087803b1580156107e257600080fd5b505af11580156107f6573d6000803e3d6000fd5b505050506040513d601f19601f8201168201806040525081019061081a9190612683565b949350505050565b60608151600014156108765760405162461bcd60e51b815260206004820152601060248201527f494e56414c49445f305f41535345545300000000000000000000000000000000604482015260640161045b565b6000610888604085016020860161228a565b6001600160a01b031614156108df5760405162461bcd60e51b815260206004820152601760248201527f494e56414c49445f544f5f5a45524f5f41444452455353000000000000000000604482015260640161045b565b6108ec602084018461228a565b6001600160a01b03166108fd611238565b6001600160a01b0316146109535760405162461bcd60e51b815260206004820152601260248201527f415554485f4143434553535f44454e4945440000000000000000000000000000604482015260640161045b565b600061096b610965602086018661228a565b8461137d565b90506001600160a01b037f00000000000000000000000000000000000000000000000000000000000000001663f0bc00d86109a9602087018761228a565b6109b960608801604089016126bf565b6060880135856109cf60408b0160208c0161228a565b6109dc60808c018c61296d565b6040518863ffffffff1660e01b81526004016109fe9796959493929190612802565b600060405180830381600087803b158015610a1857600080fd5b505af1158015610a2c573d6000803e3d6000fd5b505050506040513d6000823e601f3d908101601f19168201604052610a5491908101906122e5565b915060005b8251811015610c1a57838181518110610a8257634e487b7160e01b600052603260045260246000fd5b60200260200101516020015161ffff1660001415610b085760405162461bcd60e51b815260206004820152602260248201527f41737365744d696e7465723a20636174616c79737449442063616e277420626560448201527f2030000000000000000000000000000000000000000000000000000000000000606482015260840161045b565b7f00000000000000000000000000000000000000000000000000000000000000006001600160a01b031663676181bf848381518110610b5757634e487b7160e01b600052603260045260246000fd5b6020026020010151868481518110610b7f57634e487b7160e01b600052603260045260246000fd5b602002602001015160200151878581518110610bab57634e487b7160e01b600052603260045260246000fd5b6020026020010151600001516040518463ffffffff1660e01b8152600401610bd593929190612941565b600060405180830381600087803b158015610bef57600080fd5b505af1158015610c03573d6000803e3d6000fd5b505050508080610c1290612aaf565b915050610a59565b505092915050565b6001546001600160a01b03165b90565b610c3a611238565b6001600160a01b0316610c4b610c22565b6001600160a01b031614610ca15760405162461bcd60e51b815260206004820181905260248201527f4f776e61626c653a2063616c6c6572206973206e6f7420746865206f776e6572604482015260640161045b565b6001805463ffffffff9092167801000000000000000000000000000000000000000000000000027fffffffff00000000ffffffffffffffffffffffffffffffffffffffffffffffff909216919091179055565b600060066000610d02611238565b6001600160a01b0316815260208101919091526040016000205460ff16151560011480610d4e5750610d32610c22565b6001600160a01b0316610d43611238565b6001600160a01b0316145b610dc05760405162461bcd60e51b815260206004820152602960248201527f4173736574794d696e7465723a20637573746f6d206d696e74696e6720756e6160448201527f7574686f72697a65640000000000000000000000000000000000000000000000606482015260840161045b565b610e11610dd0602088018861228a565b610de06060890160408a016126bf565b8860600135888888888d6020016020810190610dfc919061228a565b8e8060800190610e0c919061296d565b611adb565b9695505050505050565b610e23611238565b6001600160a01b0316610e34610c22565b6001600160a01b031614610e8a5760405162461bcd60e51b815260206004820181905260248201527f4f776e61626c653a2063616c6c6572206973206e6f7420746865206f776e6572604482015260640161045b565b600355565b61ffff8316600090815260046020908152604082205490610e1190610eb69088018861228a565b610ec66060890160408a016126bf565b8860600135888888878d6020016020810190610dfc919061228a565b610eea611238565b6001600160a01b0316610efb610c22565b6001600160a01b031614610f515760405162461bcd60e51b815260206004820181905260248201527f4f776e61626c653a2063616c6c6572206973206e6f7420746865206f776e6572604482015260640161045b565b61ffff909116600090815260056020526040902055565b610f70611238565b6001600160a01b0316610f81610c22565b6001600160a01b031614610fd75760405162461bcd60e51b815260206004820181905260248201527f4f776e61626c653a2063616c6c6572206973206e6f7420746865206f776e6572604482015260640161045b565b6000805473ffffffffffffffffffffffffffffffffffffffff19166001600160a01b038316908117825560405190917f871264f4293af7d2865ae7eae628b228f4991c57cb45b39c99f0b774ebe2901891a250565b611034611238565b6001600160a01b0316611045610c22565b6001600160a01b03161461109b5760405162461bcd60e51b815260206004820181905260248201527f4f776e61626c653a2063616c6c6572206973206e6f7420746865206f776e6572604482015260640161045b565b600255565b6110a8611238565b6001600160a01b03166110b9610c22565b6001600160a01b03161461110f5760405162461bcd60e51b815260206004820181905260248201527f4f776e61626c653a2063616c6c6572206973206e6f7420746865206f776e6572604482015260640161045b565b6001600160a01b03811661118b5760405162461bcd60e51b815260206004820152602660248201527f4f776e61626c653a206e6577206f776e657220697320746865207a65726f206160448201527f6464726573730000000000000000000000000000000000000000000000000000606482015260840161045b565b6001546040516001600160a01b038084169216907f8be0079c531659141344cd1fd0a4f28419497f9722a3daafe3b4186f6b6457e090600090a36001805473ffffffffffffffffffffffffffffffffffffffff19166001600160a01b0392909216919091179055565b60006111ff33610594565b1561123157507fffffffffffffffffffffffffffffffffffffffffffffffffffffffffffffffec36013560601c610c2f565b5033610c2f565b60006112426111f4565b905090565b6001600160a01b03811661129d5760405162461bcd60e51b815260206004820152601760248201527f494e56414c49445f544f5f5a45524f5f41444452455353000000000000000000604482015260640161045b565b826001600160a01b03166112af611238565b6001600160a01b0316146113055760405162461bcd60e51b815260206004820152601260248201527f415554485f4143434553535f44454e4945440000000000000000000000000000604482015260640161045b565b816113785760405162461bcd60e51b815260206004820152602160248201527f41737365744d696e7465723a207175616e746974792063616e6e6f742062652060448201527f3000000000000000000000000000000000000000000000000000000000000000606482015260840161045b565b505050565b6060815167ffffffffffffffff8111156113a757634e487b7160e01b600052604160045260246000fd5b6040519080825280602002602001820160405280156113d0578160200160208202803683370190505b50905060007f00000000000000000000000000000000000000000000000000000000000000006001600160a01b031663645c5f9e6040518163ffffffff1660e01b815260040160206040518083038186803b15801561142e57600080fd5b505afa158015611442573d6000803e3d6000fd5b505050506040513d601f19601f820116820180604052508101906114669190612683565b67ffffffffffffffff81111561148c57634e487b7160e01b600052604160045260246000fd5b6040519080825280602002602001820160405280156114b5578160200160208202803683370190505b50905060007f00000000000000000000000000000000000000000000000000000000000000006001600160a01b0316638c4d91ed6040518163ffffffff1660e01b815260040160206040518083038186803b15801561151357600080fd5b505afa158015611527573d6000803e3d6000fd5b505050506040513d601f19601f8201168201806040525081019061154b9190612683565b67ffffffffffffffff81111561157157634e487b7160e01b600052604160045260246000fd5b60405190808252806020026020018201604052801561159a578160200160208202803683370190505b50905060005b8451811015611ac65760008582815181106115cb57634e487b7160e01b600052603260045260246000fd5b60200260200101516020015161ffff161180156116185750825185828151811061160557634e487b7160e01b600052603260045260246000fd5b60200260200101516020015161ffff1611155b6116895760405162461bcd60e51b8152602060048201526024808201527f41737365744d696e7465723a20636174616c7973744944206f7574206f66206260448201527f6f756e6400000000000000000000000000000000000000000000000000000000606482015260840161045b565b8260018683815181106116ac57634e487b7160e01b600052603260045260246000fd5b6020026020010151602001516116c29190612a6a565b61ffff16815181106116e457634e487b7160e01b600052603260045260246000fd5b6020026020010180518091906116f990612aaf565b90525060005b85828151811061171f57634e487b7160e01b600052603260045260246000fd5b602002602001015160000151518110156118e857600086838151811061175557634e487b7160e01b600052603260045260246000fd5b602002602001015160000151828151811061178057634e487b7160e01b600052603260045260246000fd5b602002602001015161ffff161180156117f0575082518683815181106117b657634e487b7160e01b600052603260045260246000fd5b60200260200101516000015182815181106117e157634e487b7160e01b600052603260045260246000fd5b602002602001015161ffff1611155b61183c5760405162461bcd60e51b815260206004820152601f60248201527f41737365744d696e7465723a2067656d4964206f7574206f6620626f756e6400604482015260640161045b565b82600187848151811061185f57634e487b7160e01b600052603260045260246000fd5b602002602001015160000151838151811061188a57634e487b7160e01b600052603260045260246000fd5b602002602001015161189c9190612a6a565b61ffff16815181106118be57634e487b7160e01b600052603260045260246000fd5b6020026020010180518091906118d390612aaf565b905250806118e081612aaf565b9150506116ff565b5060007f00000000000000000000000000000000000000000000000000000000000000006001600160a01b03166378bc8a1987848151811061193a57634e487b7160e01b600052603260045260246000fd5b6020026020010151602001516040518263ffffffff1660e01b815260040161196c919061ffff91909116815260200190565b60206040518083038186803b15801561198457600080fd5b505afa158015611998573d6000803e3d6000fd5b505050506040513d601f19601f820116820180604052508101906119bc91906126e4565b60ff1690508061ffff168683815181106119e657634e487b7160e01b600052603260045260246000fd5b602002602001015160000151511115611a415760405162461bcd60e51b815260206004820152601a60248201527f41737365744d696e7465723a20746f6f206d616e792067656d73000000000000604482015260640161045b565b60046000878481518110611a6557634e487b7160e01b600052603260045260246000fd5b60200260200101516020015161ffff1661ffff16815260200190815260200160002054858381518110611aa857634e487b7160e01b600052603260045260246000fd5b60209081029190910101525080611abe81612aaf565b9150506115a0565b50611ad18583611cd8565b610c1a8582611e22565b6000611ae88b8686611247565b611b058b89600160189054906101000a900463ffffffff16611f17565b611b648b8888808060200260200160405190810160405280939291908181526020018383602002808284376000920191909152505060015474010000000000000000000000000000000000000000900463ffffffff169150611fb09050565b6040517fc50a4eb90000000000000000000000000000000000000000000000000000000081526001600160a01b037f0000000000000000000000000000000000000000000000000000000000000000169063c50a4eb990611bd8908e908e908e908b906000908c908c908c90600401612873565b602060405180830381600087803b158015611bf257600080fd5b505af1158015611c06573d6000803e3d6000fd5b505050506040513d601f19601f82011682018060405250810190611c2a9190612683565b6040517f676181bf0000000000000000000000000000000000000000000000000000000081529091506001600160a01b037f0000000000000000000000000000000000000000000000000000000000000000169063676181bf90611c989084908c908c908c906004016128e3565b600060405180830381600087803b158015611cb257600080fd5b505af1158015611cc6573d6000803e3d6000fd5b505050509a9950505050505050505050565b6000815167ffffffffffffffff811115611d0257634e487b7160e01b600052604160045260246000fd5b604051908082528060200260200182016040528015611d2b578160200160208202803683370190505b50905060005b81518161ffff161015611d9257611d49816001612a25565b828261ffff1681518110611d6d57634e487b7160e01b600052603260045260246000fd5b61ffff9092166020928302919091019091015280611d8a81612a8d565b915050611d31565b507f00000000000000000000000000000000000000000000000000000000000000006001600160a01b03166352eea0308483611dcd86612013565b6040518463ffffffff1660e01b8152600401611deb9392919061279c565b600060405180830381600087803b158015611e0557600080fd5b505af1158015611e19573d6000803e3d6000fd5b50505050505050565b6000815167ffffffffffffffff811115611e4c57634e487b7160e01b600052604160045260246000fd5b604051908082528060200260200182016040528015611e75578160200160208202803683370190505b50905060005b81518161ffff161015611edc57611e93816001612a25565b828261ffff1681518110611eb757634e487b7160e01b600052603260045260246000fd5b61ffff9092166020928302919091019091015280611ed481612a8d565b915050611e7b565b507f00000000000000000000000000000000000000000000000000000000000000006001600160a01b031663362e7e8c8483611dcd86612110565b7f00000000000000000000000000000000000000000000000000000000000000006001600160a01b0316632a6a645184846003548563ffffffff16611f5c9190612a4b565b6040517fffffffff0000000000000000000000000000000000000000000000000000000060e086901b1681526001600160a01b03909316600484015261ffff90911660248301526044820152606401611deb565b7f00000000000000000000000000000000000000000000000000000000000000006001600160a01b0316636d91683984846002548563ffffffff16611ff59190612a4b565b6040518463ffffffff1660e01b8152600401611deb939291906127d0565b6060815167ffffffffffffffff81111561203d57634e487b7160e01b600052604160045260246000fd5b604051908082528060200260200182016040528015612066578160200160208202803683370190505b50905060005b825181101561210a57600160189054906101000a900463ffffffff1663ffffffff166003548483815181106120b157634e487b7160e01b600052603260045260246000fd5b60200260200101516120c39190612a4b565b6120cd9190612a4b565b8282815181106120ed57634e487b7160e01b600052603260045260246000fd5b60209081029190910101528061210281612aaf565b91505061206c565b50919050565b6060815167ffffffffffffffff81111561213a57634e487b7160e01b600052604160045260246000fd5b604051908082528060200260200182016040528015612163578160200160208202803683370190505b50905060005b825181101561210a57600160149054906101000a900463ffffffff1663ffffffff166002548483815181106121ae57634e487b7160e01b600052603260045260246000fd5b60200260200101516121c09190612a4b565b6121ca9190612a4b565b8282815181106121ea57634e487b7160e01b600052603260045260246000fd5b6020908102919091010152806121ff81612aaf565b915050612169565b80356001600160a01b03811681146105a657600080fd5b60008083601f84011261222f578182fd5b50813567ffffffffffffffff811115612246578182fd5b602083019150836020808302850101111561226057600080fd5b9250929050565b600060a0828403121561210a578081fd5b803561ffff811681146105a657600080fd5b60006020828403121561229b578081fd5b6122a482612207565b9392505050565b600080604083850312156122bd578081fd5b6122c683612207565b9150602083013580151581146122da578182fd5b809150509250929050565b600060208083850312156122f7578182fd5b825167ffffffffffffffff81111561230d578283fd5b8301601f8101851361231d578283fd5b805161233061232b82612a01565b6129d0565b818152838101908385018584028501860189101561234c578687fd5b8694505b8385101561236e578051835260019490940193918501918501612350565b50979650505050505050565b6000806040838503121561238c578182fd5b67ffffffffffffffff833511156123a1578182fd5b6123ae8484358501612267565b915067ffffffffffffffff602084013511156123c8578081fd5b6020830135830184601f8201126123dd578182fd5b6123ea61232b8235612a01565b81358152602080820191908301845b84358110156124de57813585016040601f19828c03011215612419578687fd5b61242360406129d0565b67ffffffffffffffff6020830135111561243b578788fd5b602082013582018b603f820112612450578889fd5b602081013561246161232b82612a01565b80828252602082019150604084018f6040602086028701011115612483578c8dfd5b8c94505b838510156124ad5761249881612278565b83526001949094019360209283019201612487565b508452506124c091505060408301612278565b602082810191909152908652948501949290920191506001016123f9565b509497909650945050505050565b600080604083850312156124fe578182fd5b823567ffffffffffffffff811115612514578283fd5b61252085828601612267565b92505061252f60208401612278565b90509250929050565b6000806000806060858703121561254d578182fd5b843567ffffffffffffffff80821115612564578384fd5b61257088838901612267565b955061257e60208801612278565b94506040870135915080821115612593578384fd5b506125a08782880161221e565b95989497509550505050565b6000806000806000608086880312156125c3578081fd5b853567ffffffffffffffff808211156125da578283fd5b6125e689838a01612267565b96506125f460208901612278565b95506040880135915080821115612609578283fd5b506126168882890161221e565b96999598509660600135949350505050565b600060208284031215612639578081fd5b6122a482612278565b60008060408385031215612654578182fd5b61265d83612278565b946020939093013593505050565b60006020828403121561267c578081fd5b5035919050565b600060208284031215612694578081fd5b5051919050565b6000602082840312156126ac578081fd5b813563ffffffff811681146122a4578182fd5b6000602082840312156126d0578081fd5b813564ffffffffff811681146122a4578182fd5b6000602082840312156126f5578081fd5b815160ff811681146122a4578182fd5b6000815180845260208085019450808401835b8381101561273857815161ffff1687529582019590820190600101612718565b509495945050505050565b6000815180845260208085019450808401835b8381101561273857815187529582019590820190600101612756565b60008284528282602086013780602084860101526020601f19601f85011685010190509392505050565b60006001600160a01b0385168252606060208301526127be6060830185612705565b8281036040840152610e118185612743565b60006001600160a01b0385168252606060208301526127f26060830185612705565b9050826040830152949350505050565b60006001600160a01b03808a16835264ffffffffff8916602084015287604084015260e0606084015261283860e0840188612743565b83810380608086015283825282881660a08601526020810160c086015250612864602082018688612772565b9b9a5050505050505050505050565b60006001600160a01b03808b16835264ffffffffff8a16602084015288604084015287606084015260ff8716608084015280861660a08401525060e060c08301526128c260e083018486612772565b9a9950505050505050505050565b6000602082526122a46020830184612743565b600060608201868352602061ffff808816828601526060604086015282868452608086019050879350845b87811015612933578261292086612278565b168252938301939083019060010161290e565b509998505050505050505050565b600084825261ffff84166020830152606060408301526129646060830184612705565b95945050505050565b60008083357fffffffffffffffffffffffffffffffffffffffffffffffffffffffffffffffe18436030181126129a1578283fd5b83018035915067ffffffffffffffff8211156129bb578283fd5b60200191503681900382131561226057600080fd5b604051601f8201601f1916810167ffffffffffffffff811182821017156129f9576129f9612ae0565b604052919050565b600067ffffffffffffffff821115612a1b57612a1b612ae0565b5060209081020190565b600061ffff808316818516808303821115612a4257612a42612aca565b01949350505050565b6000816000190483118215151615612a6557612a65612aca565b500290565b600061ffff83811690831681811015612a8557612a85612aca565b039392505050565b600061ffff80831681811415612aa557612aa5612aca565b6001019392505050565b6000600019821415612ac357612ac3612aca565b5060010190565b634e487b7160e01b600052601160045260246000fd5b634e487b7160e01b600052604160045260246000fdfea2646970667358221220c81bd1e54410e1eba13763e787d17bd38fbef62c56e03567ca500551450e503a64736f6c634300080200338be0079c531659141344cd1fd0a4f28419497f9722a3daafe3b4186f6b6457e0",
  "devdoc": {
    "kind": "dev",
    "methods": {
      "constructor": {
        "params": {
          "asset": ": Asset Token Contract (dual ERC1155/ERC721)",
          "gemsCatalystsRegistry": ": that track the canonical catalyst and gems and provide batch burning facility",
          "registry": ": AssetAttributesRegistry for recording catalyst and gems used",
          "trustedForwarder": ": address of the trusted forwarder (used for metaTX)"
        }
      },
      "mintCustomNumberWithCatalyst((address,address,uint40,bytes32,bytes),uint16,uint16[],uint256)": {
        "params": {
          "catalystId": "Id of the Catalyst ERC20 token to burn (1, 2, 3 or 4).",
          "gemIds": "list of gem ids to burn in the catalyst.",
          "mintData": "(-from address creating the Asset, need to be the tx sender or meta tx signer.  -packId unused packId that will let you predict the resulting tokenId. - metadataHash cidv1 ipfs hash of the folder where 0.json file contains the metadata. - to destination address receiving the minted tokens. - data extra data)",
          "quantity": "number of token to mint"
        },
        "returns": {
          "assetId": "The new token Id."
        }
      },
      "mintMultipleWithCatalyst((address,address,uint40,bytes32,bytes),(uint16[],uint16)[])": {
        "params": {
          "assets": "data (gems and catalyst data)",
          "mintData": "contains (-from address creating the Asset, need to be the tx sender or meta tx signer -packId unused packId that will let you predict the resulting tokenId -metadataHash cidv1 ipfs hash of the folder where 0.json file contains the metadata)"
        }
      },
      "mintWithCatalyst((address,address,uint40,bytes32,bytes),uint16,uint16[])": {
        "params": {
          "catalystId": "Id of the Catalyst ERC20 token to burn (1, 2, 3 or 4).",
          "gemIds": "list of gem ids to burn in the catalyst.",
          "mintData": ": (-from address creating the Asset, need to be the tx sender or meta tx signer.  -packId unused packId that will let you predict the resulting tokenId. - metadataHash cidv1 ipfs hash of the folder where 0.json file contains the metadata. - to destination address receiving the minted tokens. - data extra data)"
        },
        "returns": {
          "assetId": "The new token Id."
        }
      },
      "mintWithoutCatalyst((address,address,uint40,bytes32,bytes),uint16)": {
        "params": {
          "mintData": ": (-from address creating the Asset, need to be the tx sender or meta tx signer.  -packId unused packId that will let you predict the resulting tokenId. - metadataHash cidv1 ipfs hash of the folder where 0.json file contains the metadata. - to destination address receiving the minted tokens. - data extra data)",
          "typeAsset1Based": "(art, prop...) decide how many asset will be minted (start at 1)"
        },
        "returns": {
          "assetId": "The new token Id."
        }
      },
      "owner()": {
        "details": "Returns the address of the current owner."
      },
      "renounceOwnership()": {
        "details": "Leaves the contract without owner. It will not be possible to call `onlyOwner` functions anymore. Can only be called by the current owner. NOTE: Renouncing ownership will leave the contract without an owner, thereby removing any functionality that is only available to the owner."
      },
      "setTrustedForwarder(address)": {
        "details": "Change the address of the trusted forwarder for meta-TX",
        "params": {
          "trustedForwarder": "The new trustedForwarder"
        }
      },
      "transferOwnership(address)": {
        "details": "Transfers ownership of the contract to a new account (`newOwner`). Can only be called by the current owner."
      }
    },
    "version": 1
  },
  "userdoc": {
    "kind": "user",
    "methods": {
      "constructor": {
        "notice": "AssetMinter depends on"
      },
      "mintCustomNumberWithCatalyst((address,address,uint40,bytes32,bytes),uint16,uint16[],uint256)": {
        "notice": "mint \"quantity\" number of Asset token using one catalyst."
      },
      "mintMultipleWithCatalyst((address,address,uint40,bytes32,bytes),(uint16[],uint16)[])": {
        "notice": "mint multiple Asset tokens."
      },
      "mintWithCatalyst((address,address,uint40,bytes32,bytes),uint16,uint16[])": {
        "notice": "mint multiple Asset tokens using one catalyst."
      },
      "mintWithoutCatalyst((address,address,uint40,bytes32,bytes),uint16)": {
        "notice": "mint one Asset token with no catalyst."
      }
    },
    "notice": "Allow to mint Asset with Catalyst, Gems and Sand, giving the assets attributes through AssetAttributeRegistry",
    "version": 1
  },
  "storageLayout": {
    "storage": [
      {
        "astId": 21371,
        "contract": "src/solc_0.8/asset/AssetMinter.sol:AssetMinter",
        "label": "_trustedForwarder",
        "offset": 0,
        "slot": "0",
        "type": "t_address"
      },
      {
        "astId": 7,
        "contract": "src/solc_0.8/asset/AssetMinter.sol:AssetMinter",
        "label": "_owner",
        "offset": 0,
        "slot": "1",
        "type": "t_address"
      },
      {
        "astId": 9104,
        "contract": "src/solc_0.8/asset/AssetMinter.sol:AssetMinter",
        "label": "numberOfGemsBurnPerAsset",
        "offset": 20,
        "slot": "1",
        "type": "t_uint32"
      },
      {
        "astId": 9107,
        "contract": "src/solc_0.8/asset/AssetMinter.sol:AssetMinter",
        "label": "numberOfCatalystBurnPerAsset",
        "offset": 24,
        "slot": "1",
        "type": "t_uint32"
      },
      {
        "astId": 9110,
        "contract": "src/solc_0.8/asset/AssetMinter.sol:AssetMinter",
        "label": "gemsFactor",
        "offset": 0,
        "slot": "2",
        "type": "t_uint256"
      },
      {
        "astId": 9113,
        "contract": "src/solc_0.8/asset/AssetMinter.sol:AssetMinter",
        "label": "catalystsFactor",
        "offset": 0,
        "slot": "3",
        "type": "t_uint256"
      },
      {
        "astId": 9126,
        "contract": "src/solc_0.8/asset/AssetMinter.sol:AssetMinter",
        "label": "quantitiesByCatalystId",
        "offset": 0,
        "slot": "4",
        "type": "t_mapping(t_uint16,t_uint256)"
      },
      {
        "astId": 9130,
        "contract": "src/solc_0.8/asset/AssetMinter.sol:AssetMinter",
        "label": "quantitiesByAssetTypeId",
        "offset": 0,
        "slot": "5",
        "type": "t_mapping(t_uint16,t_uint256)"
      },
      {
        "astId": 9134,
        "contract": "src/solc_0.8/asset/AssetMinter.sol:AssetMinter",
        "label": "customMinterAllowance",
        "offset": 0,
        "slot": "6",
        "type": "t_mapping(t_address,t_bool)"
      }
    ],
    "types": {
      "t_address": {
        "encoding": "inplace",
        "label": "address",
        "numberOfBytes": "20"
      },
      "t_bool": {
        "encoding": "inplace",
        "label": "bool",
        "numberOfBytes": "1"
      },
      "t_mapping(t_address,t_bool)": {
        "encoding": "mapping",
        "key": "t_address",
        "label": "mapping(address => bool)",
        "numberOfBytes": "32",
        "value": "t_bool"
      },
      "t_mapping(t_uint16,t_uint256)": {
        "encoding": "mapping",
        "key": "t_uint16",
        "label": "mapping(uint16 => uint256)",
        "numberOfBytes": "32",
        "value": "t_uint256"
      },
      "t_uint16": {
        "encoding": "inplace",
        "label": "uint16",
        "numberOfBytes": "2"
      },
      "t_uint256": {
        "encoding": "inplace",
        "label": "uint256",
        "numberOfBytes": "32"
      },
      "t_uint32": {
        "encoding": "inplace",
        "label": "uint32",
        "numberOfBytes": "4"
      }
    }
  }
}