{
  "address": "0x3D2F766455f4712a22c9422823837BaF011c2686",
  "abi": [
    {
      "inputs": [],
      "stateMutability": "nonpayable",
      "type": "constructor"
    },
    {
      "anonymous": false,
      "inputs": [
        {
          "indexed": false,
          "internalType": "address",
          "name": "user",
          "type": "address"
        },
        {
          "indexed": false,
          "internalType": "uint256",
          "name": "id",
          "type": "uint256"
        },
        {
          "indexed": false,
          "internalType": "uint256",
          "name": "value",
          "type": "uint256"
        },
        {
          "indexed": false,
          "internalType": "bytes",
          "name": "data",
          "type": "bytes"
        }
      ],
      "name": "Deposit",
      "type": "event"
    },
    {
      "anonymous": false,
      "inputs": [
        {
          "indexed": true,
          "internalType": "address",
          "name": "previousOwner",
          "type": "address"
        },
        {
          "indexed": true,
          "internalType": "address",
          "name": "newOwner",
          "type": "address"
        }
      ],
      "name": "OwnershipTransferred",
      "type": "event"
    },
    {
      "anonymous": false,
      "inputs": [
        {
          "indexed": false,
          "internalType": "address",
          "name": "account",
          "type": "address"
        }
      ],
      "name": "Paused",
      "type": "event"
    },
    {
      "anonymous": false,
      "inputs": [
        {
          "indexed": false,
          "internalType": "uint256",
          "name": "limit",
          "type": "uint256"
        }
      ],
      "name": "SetTransferLimit",
      "type": "event"
    },
    {
      "anonymous": false,
      "inputs": [
        {
          "indexed": false,
          "internalType": "address",
          "name": "account",
          "type": "address"
        }
      ],
      "name": "Unpaused",
      "type": "event"
    },
    {
      "anonymous": false,
      "inputs": [
        {
          "indexed": false,
          "internalType": "address",
          "name": "user",
          "type": "address"
        },
        {
          "indexed": false,
          "internalType": "uint256",
          "name": "id",
          "type": "uint256"
        },
        {
          "indexed": false,
          "internalType": "uint256",
          "name": "value",
          "type": "uint256"
        },
        {
          "indexed": false,
          "internalType": "bytes",
          "name": "data",
          "type": "bytes"
        }
      ],
      "name": "Withdraw",
      "type": "event"
    },
    {
      "inputs": [],
      "name": "SEND_MESSAGE_EVENT_SIG",
      "outputs": [
        {
          "internalType": "bytes32",
          "name": "",
          "type": "bytes32"
        }
      ],
      "stateMutability": "view",
      "type": "function"
    },
    {
      "inputs": [
        {
          "internalType": "address",
          "name": "to",
          "type": "address"
        },
        {
          "internalType": "uint256[]",
          "name": "ids",
          "type": "uint256[]"
        },
        {
          "internalType": "uint256[]",
          "name": "values",
          "type": "uint256[]"
        }
      ],
      "name": "batchDepositToChild",
      "outputs": [],
      "stateMutability": "nonpayable",
      "type": "function"
    },
    {
      "inputs": [],
      "name": "checkpointManager",
      "outputs": [
        {
          "internalType": "contract ICheckpointManager",
          "name": "",
          "type": "address"
        }
      ],
      "stateMutability": "view",
      "type": "function"
    },
    {
      "inputs": [],
      "name": "fxChildTunnel",
      "outputs": [
        {
          "internalType": "address",
          "name": "",
          "type": "address"
        }
      ],
      "stateMutability": "view",
      "type": "function"
    },
    {
      "inputs": [],
      "name": "fxRoot",
      "outputs": [
        {
          "internalType": "contract IFxStateSender",
          "name": "",
          "type": "address"
        }
      ],
      "stateMutability": "view",
      "type": "function"
    },
    {
      "inputs": [],
      "name": "getTrustedForwarder",
      "outputs": [
        {
          "internalType": "address",
          "name": "trustedForwarder",
          "type": "address"
        }
      ],
      "stateMutability": "view",
      "type": "function"
    },
    {
      "inputs": [
        {
          "internalType": "address",
          "name": "_checkpointManager",
          "type": "address"
        },
        {
          "internalType": "address",
          "name": "_fxRoot",
          "type": "address"
        },
        {
          "internalType": "contract IAssetERC1155",
          "name": "_rootToken",
          "type": "address"
        },
        {
          "internalType": "address",
          "name": "trustedForwarder",
          "type": "address"
        },
        {
          "internalType": "uint256",
          "name": "_maxTransferLimit",
          "type": "uint256"
        }
      ],
      "name": "initialize",
      "outputs": [],
      "stateMutability": "nonpayable",
      "type": "function"
    },
    {
      "inputs": [
        {
          "internalType": "address",
          "name": "forwarder",
          "type": "address"
        }
      ],
      "name": "isTrustedForwarder",
      "outputs": [
        {
          "internalType": "bool",
          "name": "",
          "type": "bool"
        }
      ],
      "stateMutability": "view",
      "type": "function"
    },
    {
      "inputs": [],
      "name": "maxTransferLimit",
      "outputs": [
        {
          "internalType": "uint256",
          "name": "",
          "type": "uint256"
        }
      ],
      "stateMutability": "view",
      "type": "function"
    },
    {
      "inputs": [
        {
          "internalType": "address",
          "name": "",
          "type": "address"
        },
        {
          "internalType": "address",
          "name": "",
          "type": "address"
        },
        {
          "internalType": "uint256[]",
          "name": "",
          "type": "uint256[]"
        },
        {
          "internalType": "uint256[]",
          "name": "",
          "type": "uint256[]"
        },
        {
          "internalType": "bytes",
          "name": "",
          "type": "bytes"
        }
      ],
      "name": "onERC1155BatchReceived",
      "outputs": [
        {
          "internalType": "bytes4",
          "name": "",
          "type": "bytes4"
        }
      ],
      "stateMutability": "view",
      "type": "function"
    },
    {
      "inputs": [
        {
          "internalType": "address",
          "name": "",
          "type": "address"
        },
        {
          "internalType": "address",
          "name": "",
          "type": "address"
        },
        {
          "internalType": "uint256",
          "name": "",
          "type": "uint256"
        },
        {
          "internalType": "uint256",
          "name": "",
          "type": "uint256"
        },
        {
          "internalType": "bytes",
          "name": "",
          "type": "bytes"
        }
      ],
      "name": "onERC1155Received",
      "outputs": [
        {
          "internalType": "bytes4",
          "name": "",
          "type": "bytes4"
        }
      ],
      "stateMutability": "view",
      "type": "function"
    },
    {
      "inputs": [],
      "name": "owner",
      "outputs": [
        {
          "internalType": "address",
          "name": "",
          "type": "address"
        }
      ],
      "stateMutability": "view",
      "type": "function"
    },
    {
      "inputs": [],
      "name": "pause",
      "outputs": [],
      "stateMutability": "nonpayable",
      "type": "function"
    },
    {
      "inputs": [],
      "name": "paused",
      "outputs": [
        {
          "internalType": "bool",
          "name": "",
          "type": "bool"
        }
      ],
      "stateMutability": "view",
      "type": "function"
    },
    {
      "inputs": [
        {
          "internalType": "bytes32",
          "name": "",
          "type": "bytes32"
        }
      ],
      "name": "processedExits",
      "outputs": [
        {
          "internalType": "bool",
          "name": "",
          "type": "bool"
        }
      ],
      "stateMutability": "view",
      "type": "function"
    },
    {
      "inputs": [
        {
          "internalType": "bytes",
          "name": "inputData",
          "type": "bytes"
        }
      ],
      "name": "receiveMessage",
      "outputs": [],
      "stateMutability": "nonpayable",
      "type": "function"
    },
    {
      "inputs": [],
      "name": "renounceOwnership",
      "outputs": [],
      "stateMutability": "nonpayable",
      "type": "function"
    },
    {
      "inputs": [],
      "name": "rootToken",
      "outputs": [
        {
          "internalType": "contract IAssetERC1155",
          "name": "",
          "type": "address"
        }
      ],
      "stateMutability": "view",
      "type": "function"
    },
    {
      "inputs": [
        {
          "internalType": "address",
          "name": "_fxChildTunnel",
          "type": "address"
        }
      ],
      "name": "setFxChildTunnel",
      "outputs": [],
      "stateMutability": "nonpayable",
      "type": "function"
    },
    {
      "inputs": [
        {
          "internalType": "uint256",
          "name": "_maxTransferLimit",
          "type": "uint256"
        }
      ],
      "name": "setTransferLimit",
      "outputs": [],
      "stateMutability": "nonpayable",
      "type": "function"
    },
    {
      "inputs": [
        {
          "internalType": "address",
          "name": "trustedForwarder",
          "type": "address"
        }
      ],
      "name": "setTrustedForwarder",
      "outputs": [],
      "stateMutability": "nonpayable",
      "type": "function"
    },
    {
      "inputs": [
        {
          "internalType": "bytes4",
          "name": "interfaceId",
          "type": "bytes4"
        }
      ],
      "name": "supportsInterface",
      "outputs": [
        {
          "internalType": "bool",
          "name": "",
          "type": "bool"
        }
      ],
      "stateMutability": "pure",
      "type": "function"
    },
    {
      "inputs": [
        {
          "internalType": "address",
          "name": "newOwner",
          "type": "address"
        }
      ],
      "name": "transferOwnership",
      "outputs": [],
      "stateMutability": "nonpayable",
      "type": "function"
    },
    {
      "inputs": [],
      "name": "unpause",
      "outputs": [],
      "stateMutability": "nonpayable",
      "type": "function"
    }
  ],
  "transactionHash": "0xe255e860d3bce175fad71aec44db37c2ed447000f1687939dccfa362d4be33b7",
  "args": [],
  "numDeployments": 1,
  "solcInputHash": "7b79638638f565cd9778fcf2a828ac07",
  "bytecode": "0x608060405260d0805460ff191690553480156200001b57600080fd5b50600180546001600160a01b0319908116909155600080549091169055600454610100900460ff16620000555760045460ff16156200005f565b6200005f6200010d565b620000c75760405162461bcd60e51b815260206004820152602e60248201527f496e697469616c697a61626c653a20636f6e747261637420697320616c72656160448201526d191e481a5b9a5d1a585b1a5e995960921b606482015260840160405180910390fd5b600454610100900460ff16158015620000f3576004805460ff1961ff0019909116610100171660011790555b801562000106576004805461ff00191690555b5062000131565b600062000125306200012b60201b620010bd1760201c565b15905090565b3b151590565b613e7480620001416000396000f3fe608060405234801561001057600080fd5b50600436106101985760003560e01c8063ac159a44116100e3578063da7422281161008c578063f2fde38b11610066578063f2fde38b14610393578063f7013ef6146103a6578063f953cec7146103b957610198565b8063da7422281461035a578063de9b771f1461036d578063f23a6e611461038057610198565b8063bd85e93b116100bd578063bd85e93b1461032d578063c0857ba014610336578063ce1b815f1461034957610198565b8063ac159a44146102c3578063aea4e49e146102d6578063bc197c81146102e957610198565b8063607f2d42116101455780638456cb591161011f5780638456cb59146102975780638da5cb5b1461029f578063972c4928146102b057610198565b8063607f2d4214610259578063715018a61461027c5780637a17feff1461028457610198565b80633f4ba83a116101765780633f4ba83a14610225578063572b6c051461022f5780635c975abb1461025157610198565b806301ffc9a71461019d5780630e387de6146101c55780631f2d0065146101fa575b600080fd5b6101b06101ab36600461388f565b6103cc565b60405190151581526020015b60405180910390f35b6101ec7f8c5261668696ce22758910d05bab8f186d6eb247ceac2af2e82c7dc17669b03681565b6040519081526020016101bc565b60ce5461020d906001600160a01b031681565b6040516001600160a01b0390911681526020016101bc565b61022d610467565b005b6101b061023d3660046134a4565b6037546001600160a01b0390811691161490565b6101b06104ef565b6101b0610267366004613813565b60036020526000908152604090205460ff1681565b61022d6104f9565b61022d610292366004613813565b61057c565b61022d610630565b606a546001600160a01b031661020d565b60025461020d906001600160a01b031681565b61022d6102d13660046136f0565b6106b1565b61022d6102e43660046134a4565b610afb565b6102fc6102f7366004613558565b610ba9565b6040517fffffffff0000000000000000000000000000000000000000000000000000000090911681526020016101bc565b6101ec60cf5481565b60015461020d906001600160a01b031681565b6037546001600160a01b031661020d565b61022d6103683660046134a4565b610c57565b60005461020d906001600160a01b031681565b6102fc61038e366004613676565b610cff565b61022d6103a13660046134a4565b610dab565b61022d6103b4366004613613565b610eac565b61022d6103c73660046138cf565b6110a3565b60007f4e2312e0000000000000000000000000000000000000000000000000000000007fffffffff000000000000000000000000000000000000000000000000000000008316148061045f57507f01ffc9a7000000000000000000000000000000000000000000000000000000007fffffffff000000000000000000000000000000000000000000000000000000008316145b90505b919050565b61046f6110c3565b6001600160a01b031661048a606a546001600160a01b031690565b6001600160a01b0316146104e55760405162461bcd60e51b815260206004820181905260248201527f4f776e61626c653a2063616c6c6572206973206e6f7420746865206f776e657260448201526064015b60405180910390fd5b6104ed6110d2565b565b609c5460ff165b90565b6105016110c3565b6001600160a01b031661051c606a546001600160a01b031690565b6001600160a01b0316146105725760405162461bcd60e51b815260206004820181905260248201527f4f776e61626c653a2063616c6c6572206973206e6f7420746865206f776e657260448201526064016104dc565b6104ed6000611176565b6105846110c3565b6001600160a01b031661059f606a546001600160a01b031690565b6001600160a01b0316146105f55760405162461bcd60e51b815260206004820181905260248201527f4f776e61626c653a2063616c6c6572206973206e6f7420746865206f776e657260448201526064016104dc565b60cf8190556040518181527f3fc6a03e501b3ca46f5b6c08064272abf4e2b0d2bbdeeaeba4e4a4f22c9e616d9060200160405180910390a150565b6106386110c3565b6001600160a01b0316610653606a546001600160a01b031690565b6001600160a01b0316146106a95760405162461bcd60e51b815260206004820181905260248201527f4f776e61626c653a2063616c6c6572206973206e6f7420746865206f776e657260448201526064016104dc565b6104ed6111d5565b6106b96104ef565b156107065760405162461bcd60e51b815260206004820152601060248201527f5061757361626c653a207061757365640000000000000000000000000000000060448201526064016104dc565b60008251116107575760405162461bcd60e51b815260206004820152601160248201527f4d495353494e475f544f4b454e5f49445300000000000000000000000000000060448201526064016104dc565b60cf548251106107a95760405162461bcd60e51b815260206004820152601660248201527f455843454544535f5452414e534645525f4c494d49540000000000000000000060448201526064016104dc565b6000825167ffffffffffffffff8111156107d357634e487b7160e01b600052604160045260246000fd5b6040519080825280602002602001820160405280156107fc578160200160208202803683370190505b5060d0805460ff19166001179055905060005b8351811015610a9b5760ce5484516000916001600160a01b03169063219cc8bc9087908590811061085057634e487b7160e01b600052603260045260246000fd5b60200260200101516040518263ffffffff1660e01b815260040161087691815260200190565b60206040518083038186803b15801561088e57600080fd5b505afa1580156108a2573d6000803e3d6000fd5b505050506040513d601f19601f820116820180604052508101906108c6919061382b565b9050808383815181106108e957634e487b7160e01b600052603260045260246000fd5b60200260200101818152505060008160405160200161090a91815260200190565b60408051601f1981840301815291905260ce549091506001600160a01b031663f242432a6109366110c3565b3089878151811061095757634e487b7160e01b600052603260045260246000fd5b602002602001015189888151811061097f57634e487b7160e01b600052603260045260246000fd5b60200260200101518760405160200161099a91815260200190565b6040516020818303038152906040526040518663ffffffff1660e01b81526004016109c9959493929190613a09565b600060405180830381600087803b1580156109e357600080fd5b505af11580156109f7573d6000803e3d6000fd5b505050507f07c6d86eb9c47d0224ebbb590d5fbb1d9d0d7aca54f94611e5ed37a2c6ee20a787878581518110610a3d57634e487b7160e01b600052603260045260246000fd5b6020026020010151878681518110610a6557634e487b7160e01b600052603260045260246000fd5b602002602001015184604051610a7e9493929190613ab6565b60405180910390a150508080610a9390613d96565b91505061080f565b5060d0805460ff19169055604051610af590859085908590610ac1908690602001613aee565b60408051601f1981840301815290829052610ae194939291602001613a4c565b604051602081830303815290604052611260565b50505050565b6002546001600160a01b031615610b7a5760405162461bcd60e51b815260206004820152602a60248201527f467842617365526f6f7454756e6e656c3a204348494c445f54554e4e454c5f4160448201527f4c52454144595f5345540000000000000000000000000000000000000000000060648201526084016104dc565b6002805473ffffffffffffffffffffffffffffffffffffffff19166001600160a01b0392909216919091179055565b60d05460009060ff161515600114610c295760405162461bcd60e51b815260206004820152602e60248201527f41737365744552433131353554756e6e656c3a2063616e27742064697265637460448201527f6c792073656e642041737365747300000000000000000000000000000000000060648201526084016104dc565b507fbc197c810000000000000000000000000000000000000000000000000000000098975050505050505050565b610c5f6110c3565b6001600160a01b0316610c7a606a546001600160a01b031690565b6001600160a01b031614610cd05760405162461bcd60e51b815260206004820181905260248201527f4f776e61626c653a2063616c6c6572206973206e6f7420746865206f776e657260448201526064016104dc565b6037805473ffffffffffffffffffffffffffffffffffffffff19166001600160a01b0392909216919091179055565b60d05460009060ff161515600114610d7f5760405162461bcd60e51b815260206004820152602e60248201527f41737365744552433131353554756e6e656c3a2063616e27742064697265637460448201527f6c792073656e642041737365747300000000000000000000000000000000000060648201526084016104dc565b507ff23a6e61000000000000000000000000000000000000000000000000000000009695505050505050565b610db36110c3565b6001600160a01b0316610dce606a546001600160a01b031690565b6001600160a01b031614610e245760405162461bcd60e51b815260206004820181905260248201527f4f776e61626c653a2063616c6c6572206973206e6f7420746865206f776e657260448201526064016104dc565b6001600160a01b038116610ea05760405162461bcd60e51b815260206004820152602660248201527f4f776e61626c653a206e6577206f776e657220697320746865207a65726f206160448201527f646472657373000000000000000000000000000000000000000000000000000060648201526084016104dc565b610ea981611176565b50565b600454610100900460ff16610ec75760045460ff1615610ecb565b303b155b610f3d5760405162461bcd60e51b815260206004820152602e60248201527f496e697469616c697a61626c653a20636f6e747261637420697320616c72656160448201527f647920696e697469616c697a656400000000000000000000000000000000000060648201526084016104dc565b600454610100900460ff16158015610f68576004805460ff1961ff0019909116610100171660011790555b6001600160a01b038416610fe45760405162461bcd60e51b815260206004820152602c60248201527f41737365744552433131353554756e6e656c3a205f726f6f74546f6b656e206360448201527f616e2774206265207a65726f000000000000000000000000000000000000000060648201526084016104dc565b60ce805473ffffffffffffffffffffffffffffffffffffffff19166001600160a01b03861617905560cf8290556110196112e4565b61102161135f565b6037805473ffffffffffffffffffffffffffffffffffffffff19166001600160a01b0385161790556110898686600180546001600160a01b0393841673ffffffffffffffffffffffffffffffffffffffff199182161790915560008054929093169116179055565b801561109b576004805461ff00191690555b505050505050565b60006110ae826113da565b90506110b98161170b565b5050565b3b151590565b60006110cd611a12565b905090565b6110da6104ef565b6111265760405162461bcd60e51b815260206004820152601460248201527f5061757361626c653a206e6f742070617573656400000000000000000000000060448201526064016104dc565b609c805460ff191690557f5db9ee0a495bf2e6ff9c91a7834c1ba4fdd244a5e8aa4e537bd38aeae4b073aa6111596110c3565b6040516001600160a01b03909116815260200160405180910390a1565b606a80546001600160a01b0383811673ffffffffffffffffffffffffffffffffffffffff19831681179093556040519116919082907f8be0079c531659141344cd1fd0a4f28419497f9722a3daafe3b4186f6b6457e090600090a35050565b6111dd6104ef565b1561122a5760405162461bcd60e51b815260206004820152601060248201527f5061757361626c653a207061757365640000000000000000000000000000000060448201526064016104dc565b609c805460ff191660011790557f62e78cea01bee320cd4e420270b5ea74000d11b0c9f74754ebdbfc544b05a2586111596110c3565b6000546002546040517fb47204770000000000000000000000000000000000000000000000000000000081526001600160a01b039283169263b4720477926112af929116908590600401613a94565b600060405180830381600087803b1580156112c957600080fd5b505af11580156112dd573d6000803e3d6000fd5b5050505050565b600454610100900460ff1661134f5760405162461bcd60e51b815260206004820152602b60248201527f496e697469616c697a61626c653a20636f6e7472616374206973206e6f74206960448201526a6e697469616c697a696e6760a81b60648201526084016104dc565b611357611a5c565b6104ed611ac7565b600454610100900460ff166113ca5760405162461bcd60e51b815260206004820152602b60248201527f496e697469616c697a61626c653a20636f6e7472616374206973206e6f74206960448201526a6e697469616c697a696e6760a81b60648201526084016104dc565b6113d2611a5c565b6104ed611b42565b606060006113e783611bb9565b905060006113f482611c18565b9050600061140183611c4f565b905060008161140f84611c86565b61141886611eac565b60405160200161142a939291906139dc565b60408051601f1981840301815291815281516020928301206000818152600390935291205490915060ff16156114c75760405162461bcd60e51b8152602060048201526024808201527f4678526f6f7454756e6e656c3a20455849545f414c52454144595f50524f434560448201527f535345440000000000000000000000000000000000000000000000000000000060648201526084016104dc565b6000818152600360205260408120805460ff191660011790556114e985611ed6565b905060006114f68261203c565b9050611501816120e8565b6002546001600160a01b039081169116146115845760405162461bcd60e51b815260206004820152602560248201527f4678526f6f7454756e6e656c3a20494e56414c49445f46585f4348494c445f5460448201527f554e4e454c00000000000000000000000000000000000000000000000000000060648201526084016104dc565b600061158f8761211f565b90506115af61159f846020015190565b876115a98a612149565b84612173565b6116215760405162461bcd60e51b815260206004820152602360248201527f4678526f6f7454756e6e656c3a20494e56414c49445f524543454950545f505260448201527f4f4f46000000000000000000000000000000000000000000000000000000000060648201526084016104dc565b61164f8561162e8961249a565b6116378a6124c4565b846116418c6124ee565b61164a8d612518565b612542565b50600061165b83612690565b90507f8c5261668696ce22758910d05bab8f186d6eb247ceac2af2e82c7dc17669b03661169161168c8360006126da565b612720565b146116de5760405162461bcd60e51b815260206004820152601f60248201527f4678526f6f7454756e6e656c3a20494e56414c49445f5349474e41545552450060448201526064016104dc565b60006116e98461279b565b8060200190518101906116fc9190613943565b9b9a5050505050505050505050565b6000806000808480602001905181019061172591906134c0565b93509350935093506000818060200190518101906117439190613763565b905060005b8451811015611a0957600082828151811061177357634e487b7160e01b600052603260045260246000fd5b602002602001015160405160200161178d91815260200190565b60408051601f1981840301815291905260ce5487519192506001600160a01b03169063f6c983fb908890859081106117d557634e487b7160e01b600052603260045260246000fd5b60200260200101516040518263ffffffff1660e01b81526004016117fb91815260200190565b60206040518083038186803b15801561181357600080fd5b505afa158015611827573d6000803e3d6000fd5b505050506040513d601f19601f8201168201806040525081019061184b91906137f3565b156118af576118aa8787848151811061187457634e487b7160e01b600052603260045260246000fd5b602002602001015187858151811061189c57634e487b7160e01b600052603260045260246000fd5b6020026020010151846127c5565b61196b565b60ce5486516001600160a01b039091169063731133e99089908990869081106118e857634e487b7160e01b600052603260045260246000fd5b602002602001015188868151811061191057634e487b7160e01b600052603260045260246000fd5b6020026020010151856040518563ffffffff1660e01b81526004016119389493929190613ab6565b600060405180830381600087803b15801561195257600080fd5b505af1158015611966573d6000803e3d6000fd5b505050505b7f5b60e6b7a1385a03cd29f6ac8c80abbd3fe29663ec7d8bbe63bb79a35c176da4878784815181106119ad57634e487b7160e01b600052603260045260246000fd5b60200260200101518785815181106119d557634e487b7160e01b600052603260045260246000fd5b6020026020010151846040516119ee9493929190613ab6565b60405180910390a15080611a0181613d96565b915050611748565b50505050505050565b6037546000906001600160a01b0316331415611a5557507fffffffffffffffffffffffffffffffffffffffffffffffffffffffffffffffec36013560601c6104f6565b50336104f6565b600454610100900460ff166104ed5760405162461bcd60e51b815260206004820152602b60248201527f496e697469616c697a61626c653a20636f6e7472616374206973206e6f74206960448201526a6e697469616c697a696e6760a81b60648201526084016104dc565b600454610100900460ff16611b325760405162461bcd60e51b815260206004820152602b60248201527f496e697469616c697a61626c653a20636f6e7472616374206973206e6f74206960448201526a6e697469616c697a696e6760a81b60648201526084016104dc565b6104ed611b3d6110c3565b611176565b600454610100900460ff16611bad5760405162461bcd60e51b815260206004820152602b60248201527f496e697469616c697a61626c653a20636f6e7472616374206973206e6f74206960448201526a6e697469616c697a696e6760a81b60648201526084016104dc565b609c805460ff19169055565b6040805160208101909152606081526000611c03611bfe8460408051808201825260008082526020918201528151808301909252825182529182019181019190915290565b612a1c565b60408051602081019091529081529392505050565b606061045f8260000151600881518110611c4257634e487b7160e01b600052603260045260246000fd5b6020026020010151612b4e565b600061045f8260000151600281518110611c7957634e487b7160e01b600052603260045260246000fd5b6020026020010151612720565b6040805160208101909152600081528151606091901561045f57600080611cae600086612bf9565b60f81c90506001811480611cc557508060ff166003145b15611da157600185516002611cda9190613d11565b611ce49190613d30565b67ffffffffffffffff811115611d0a57634e487b7160e01b600052604160045260246000fd5b6040519080825280601f01601f191660200182016040528015611d34576020820181803683370190505b5092506000611d44600187612bf9565b90508084600081518110611d6857634e487b7160e01b600052603260045260246000fd5b60200101907effffffffffffffffffffffffffffffffffffffffffffffffffffffffffffff1916908160001a9053506001925050611e13565b600285516002611db19190613d11565b611dbb9190613d30565b67ffffffffffffffff811115611de157634e487b7160e01b600052604160045260246000fd5b6040519080825280601f01601f191660200182016040528015611e0b576020820181803683370190505b509250600091505b60ff82165b8351811015611ea357611e42611e3160ff851683613d30565b611e3c906002613baf565b87612bf9565b848281518110611e6257634e487b7160e01b600052603260045260246000fd5b60200101907effffffffffffffffffffffffffffffffffffffffffffffffffffffffffffff1916908160001a90535080611e9b81613d96565b915050611e18565b50505092915050565b600061045f8260000151600981518110611c7957634e487b7160e01b600052603260045260246000fd5b611efa60405180606001604052806060815260200160608152602001600081525090565b611f228260000151600681518110611c4257634e487b7160e01b600052603260045260246000fd5b602082810182905260408051808201825260008082529083015280518082019091528251815291810190820152611f5881612c96565b15611f6d57611f6681612a1c565b8252612028565b60208201518051600090611f8390600190613d30565b67ffffffffffffffff811115611fa957634e487b7160e01b600052604160045260246000fd5b6040519080825280601f01601f191660200182016040528015611fd3576020820181803683370190505b509050600080836021019150826020019050611ff182828551612cd0565b60408051808201825260008082526020918201528151808301909252845182528085019082015261202190611bfe565b8652505050505b61203183611eac565b604083015250919050565b604080516080810182526000918101828152606080830193909352815260208101919091526000612098836000015160038151811061208b57634e487b7160e01b600052603260045260246000fd5b6020026020010151612a1c565b8360400151815181106120bb57634e487b7160e01b600052603260045260246000fd5b6020026020010151905060405180604001604052808281526020016120df83612a1c565b90529392505050565b600061045f826020015160008151811061211257634e487b7160e01b600052603260045260246000fd5b6020026020010151612d54565b600061045f8260000151600581518110611c7957634e487b7160e01b600052603260045260246000fd5b606061045f8260000151600781518110611c4257634e487b7160e01b600052603260045260246000fd5b6000806121a78460408051808201825260008082526020918201528151808301909252825182529182019181019190915290565b905060006121b482612a1c565b9050606080856000806121c68b611c86565b90508051600014156121e2576000975050505050505050612492565b60005b865181101561248957815183111561220857600098505050505050505050612492565b61223887828151811061222b57634e487b7160e01b600052603260045260246000fd5b6020026020010151612d6e565b95508580519060200120841461225957600098505050505050505050612492565b61227c87828151811061208b57634e487b7160e01b600052603260045260246000fd5b945084516011141561237b5781518314156122ec578c805190602001206122bd86601081518110611c4257634e487b7160e01b600052603260045260246000fd5b8051906020012014156122db57600198505050505050505050612492565b600098505050505050505050612492565b600082848151811061230e57634e487b7160e01b600052603260045260246000fd5b016020015160f81c905060108111156123335760009950505050505050505050612492565b612366868260ff168151811061235957634e487b7160e01b600052603260045260246000fd5b6020026020010151612dfd565b9450612373600185613baf565b935050612477565b8451600214156122db5760006123b56123ae87600081518110611c4257634e487b7160e01b600052603260045260246000fd5b8486612e2b565b83519091506123c48286613baf565b1415612427578d805190602001206123f687600181518110611c4257634e487b7160e01b600052603260045260246000fd5b8051906020012014156124155760019950505050505050505050612492565b60009950505050505050505050612492565b8061243e5760009950505050505050505050612492565b6124488185613baf565b935061246e8660018151811061235957634e487b7160e01b600052603260045260246000fd5b94506124779050565b8061248181613d96565b9150506121e5565b50505050505050505b949350505050565b600061045f8260000151600381518110611c7957634e487b7160e01b600052603260045260246000fd5b600061045f8260000151600481518110611c7957634e487b7160e01b600052603260045260246000fd5b600061045f8260000151600081518110611c7957634e487b7160e01b600052603260045260246000fd5b606061045f8260000151600181518110611c4257634e487b7160e01b600052603260045260246000fd5b6001546040517f41539d4a000000000000000000000000000000000000000000000000000000008152600481018490526000918291829182916001600160a01b03909116906341539d4a9060240160a06040518083038186803b1580156125a857600080fd5b505afa1580156125bc573d6000803e3d6000fd5b505050506040513d601f19601f820116820180604052508101906125e09190613843565b5093505092509250612637828b6125f79190613d30565b6040805160208082018f90528183018e9052606082018d905260808083018d90528351808403909101815260a09092019092528051910120908588612f90565b6126835760405162461bcd60e51b815260206004820152601c60248201527f4678526f6f7454756e6e656c3a20494e56414c49445f4845414445520000000060448201526064016104dc565b9998505050505050505050565b60408051602081019091526060815260405180602001604052806126d2846020015160018151811061208b57634e487b7160e01b600052603260045260246000fd5b905292915050565b6040805180820190915260008082526020820152825180518390811061271057634e487b7160e01b600052603260045260246000fd5b6020026020010151905092915050565b80516000901580159061273557508151602110155b61273e57600080fd5b600061274d8360200151613106565b905060008184600001516127619190613d30565b90506000808386602001516127769190613baf565b905080519150602083101561279257826020036101000a820491505b50949350505050565b606061045f8260200151600281518110611c4257634e487b7160e01b600052603260045260246000fd5b60ce546040517efdd58e000000000000000000000000000000000000000000000000000000008152306004820152602481018590526000916001600160a01b03169062fdd58e9060440160206040518083038186803b15801561282757600080fd5b505afa15801561283b573d6000803e3d6000fd5b505050506040513d601f19601f8201168201806040525081019061285f919061382b565b90508281106128f05760ce546040517ff242432a0000000000000000000000000000000000000000000000000000000081526001600160a01b039091169063f242432a906128b99030908990899089908990600401613a09565b600060405180830381600087803b1580156128d357600080fd5b505af11580156128e7573d6000803e3d6000fd5b505050506112dd565b801561297a5760ce546040517ff242432a0000000000000000000000000000000000000000000000000000000081526001600160a01b039091169063f242432a906129479030908990899087908990600401613a09565b600060405180830381600087803b15801561296157600080fd5b505af1158015612975573d6000803e3d6000fd5b505050505b60ce546001600160a01b0316634091461386866129978588613d30565b6040517fffffffff0000000000000000000000000000000000000000000000000000000060e086901b1681526001600160a01b03909316600484015260248301919091526044820152606401600060405180830381600087803b1580156129fd57600080fd5b505af1158015612a11573d6000803e3d6000fd5b505050505050505050565b6060612a2782612c96565b612a3057600080fd5b6000612a3b8361318b565b905060008167ffffffffffffffff811115612a6657634e487b7160e01b600052604160045260246000fd5b604051908082528060200260200182016040528015612aab57816020015b6040805180820190915260008082526020820152815260200190600190039081612a845790505b5090506000612abd8560200151613106565b8560200151612acc9190613baf565b90506000805b84811015612b4357612ae38361320e565b9150604051806040016040528083815260200184815250848281518110612b1a57634e487b7160e01b600052603260045260246000fd5b6020908102919091010152612b2f8284613baf565b925080612b3b81613d96565b915050612ad2565b509195945050505050565b8051606090612b5c57600080fd5b6000612b6b8360200151613106565b90506000818460000151612b7f9190613d30565b905060008167ffffffffffffffff811115612baa57634e487b7160e01b600052604160045260246000fd5b6040519080825280601f01601f191660200182016040528015612bd4576020820181803683370190505b5090506000816020019050612792848760200151612bf29190613baf565b82856132d0565b6000612c06600284613db1565b15612c4e57601082612c19600286613bc7565b81518110612c3757634e487b7160e01b600052603260045260246000fd5b0160200151612c49919060f81c613dc5565b612c8c565b601082612c5c600286613bc7565b81518110612c7a57634e487b7160e01b600052603260045260246000fd5b0160200151612c8c919060f81c613bdb565b60f81b9392505050565b8051600090612ca757506000610462565b6020820151805160001a9060c0821015612cc657600092505050610462565b5060019392505050565b80612cda57612d4f565b60208110612d125782518252612cf1602084613baf565b9250612cfe602083613baf565b9150612d0b602082613d30565b9050612cda565b80612d1c57612d4f565b60006001612d2b836020613d30565b612d3790610100613c43565b612d419190613d30565b845184518216911916178352505b505050565b8051600090601514612d6557600080fd5b61045f82612720565b60606000826000015167ffffffffffffffff811115612d9d57634e487b7160e01b600052604160045260246000fd5b6040519080825280601f01601f191660200182016040528015612dc7576020820181803683370190505b509050805160001415612ddb579050610462565b6000816020019050612df684602001518286600001516132d0565b5092915050565b8051600090602114612e0e57600080fd5b60008083602001516001612e229190613baf565b51949350505050565b60008080612e3886611c86565b90506000815167ffffffffffffffff811115612e6457634e487b7160e01b600052604160045260246000fd5b6040519080825280601f01601f191660200182016040528015612e8e576020820181803683370190505b509050845b8251612e9f9087613baf565b811015612f5e576000878281518110612ec857634e487b7160e01b600052603260045260246000fd5b01602001517fff000000000000000000000000000000000000000000000000000000000000001690508083612efd8985613d30565b81518110612f1b57634e487b7160e01b600052603260045260246000fd5b60200101907effffffffffffffffffffffffffffffffffffffffffffffffffffffffffffff1916908160001a905350508080612f5690613d96565b915050612e93565b50808051906020012082805190602001201415612f7e5781519250612f83565b600092505b50909150505b9392505050565b600060208251612fa09190613db1565b15612fed5760405162461bcd60e51b815260206004820152601460248201527f496e76616c69642070726f6f66206c656e67746800000000000000000000000060448201526064016104dc565b600060208351612ffd9190613bc7565b905061300a816002613c43565b85106130585760405162461bcd60e51b815260206004820152601560248201527f4c65616620696e64657820697320746f6f20626967000000000000000000000060448201526064016104dc565b60008660205b855181116130f857858101519250613077600289613db1565b6130ac5760408051602081018490529081018490526060016040516020818303038152906040528051906020012091506130d9565b60408051602081018590529081018390526060016040516020818303038152906040528051906020012091505b6130e4600289613bc7565b97506130f1602082613baf565b905061305e565b509094149695505050505050565b8051600090811a6080811015613120576000915050610462565b60b881108061313b575060c0811080159061313b575060f881105b1561314a576001915050610462565b60c081101561317f5761315f600160b8613d47565b61316c9060ff1682613d30565b613177906001613baf565b915050610462565b61315f600160f8613d47565b805160009061319c57506000610462565b6000806131ac8460200151613106565b84602001516131bb9190613baf565b90506000846000015185602001516131d39190613baf565b90505b80821015613205576131e78261320e565b6131f19083613baf565b9150826131fd81613d96565b9350506131d6565b50909392505050565b80516000908190811a60808110156132295760019150612df6565b60b881101561324f5761323d608082613d30565b613248906001613baf565b9150612df6565b60c081101561327c5760b78103600185019450806020036101000a85510460018201810193505050612df6565b60f88110156132905761323d60c082613d30565b60019390930151602084900360f7016101000a90049092017fffffffffffffffffffffffffffffffffffffffffffffffffffffffffffffff0a0192915050565b806132da57612d4f565b60208110612d1257825182526132f1602084613baf565b92506132fe602083613baf565b915061330b602082613d30565b90506132da565b60008083601f840112613323578182fd5b50813567ffffffffffffffff81111561333a578182fd5b602083019150836020808302850101111561335457600080fd5b9250929050565b600082601f83011261336b578081fd5b8135602061338061337b83613b63565b613b32565b828152818101908583018385028701840188101561339c578586fd5b855b858110156133ba5781358452928401929084019060010161339e565b5090979650505050505050565b600082601f8301126133d7578081fd5b815160206133e761337b83613b63565b8281528181019085830183850287018401881015613403578586fd5b855b858110156133ba57815184529284019290840190600101613405565b60008083601f840112613432578182fd5b50813567ffffffffffffffff811115613449578182fd5b60208301915083602082850101111561335457600080fd5b600082601f830112613471578081fd5b815161347f61337b82613b87565b818152846020838601011115613493578283fd5b612492826020830160208701613d6a565b6000602082840312156134b5578081fd5b8135612f8981613e29565b600080600080608085870312156134d5578283fd5b84516134e081613e29565b602086015190945067ffffffffffffffff808211156134fd578485fd5b613509888389016133c7565b9450604087015191508082111561351e578384fd5b61352a888389016133c7565b9350606087015191508082111561353f578283fd5b5061354c87828801613461565b91505092959194509250565b60008060008060008060008060a0898b031215613573578384fd5b883561357e81613e29565b9750602089013561358e81613e29565b9650604089013567ffffffffffffffff808211156135aa578586fd5b6135b68c838d01613312565b909850965060608b01359150808211156135ce578586fd5b6135da8c838d01613312565b909650945060808b01359150808211156135f2578384fd5b506135ff8b828c01613421565b999c989b5096995094979396929594505050565b600080600080600060a0868803121561362a578283fd5b853561363581613e29565b9450602086013561364581613e29565b9350604086013561365581613e29565b9250606086013561366581613e29565b949793965091946080013592915050565b60008060008060008060a0878903121561368e578384fd5b863561369981613e29565b955060208701356136a981613e29565b94506040870135935060608701359250608087013567ffffffffffffffff8111156136d2578283fd5b6136de89828a01613421565b979a9699509497509295939492505050565b600080600060608486031215613704578081fd5b833561370f81613e29565b9250602084013567ffffffffffffffff8082111561372b578283fd5b6137378783880161335b565b9350604086013591508082111561374c578283fd5b506137598682870161335b565b9150509250925092565b60006020808385031215613775578182fd5b825167ffffffffffffffff81111561378b578283fd5b8301601f8101851361379b578283fd5b80516137a961337b82613b63565b81815283810190838501858402850186018910156137c5578687fd5b8694505b838510156137e75780518352600194909401939185019185016137c9565b50979650505050505050565b600060208284031215613804578081fd5b81518015158114612f89578182fd5b600060208284031215613824578081fd5b5035919050565b60006020828403121561383c578081fd5b5051919050565b600080600080600060a0868803121561385a578283fd5b85519450602086015193506040860151925060608601519150608086015161388181613e29565b809150509295509295909350565b6000602082840312156138a0578081fd5b81357fffffffff0000000000000000000000000000000000000000000000000000000081168114612f89578182fd5b6000602082840312156138e0578081fd5b813567ffffffffffffffff8111156138f6578182fd5b8201601f81018413613906578182fd5b803561391461337b82613b87565b818152856020838501011115613928578384fd5b81602084016020830137908101602001929092525092915050565b600060208284031215613954578081fd5b815167ffffffffffffffff81111561396a578182fd5b61249284828501613461565b6000815180845260208085019450808401835b838110156139a557815187529582019590820190600101613989565b509495945050505050565b600081518084526139c8816020860160208601613d6a565b601f01601f19169290920160200192915050565b600084825283516139f4816020850160208801613d6a565b60209201918201929092526040019392505050565b60006001600160a01b03808816835280871660208401525084604083015283606083015260a06080830152613a4160a08301846139b0565b979650505050505050565b60006001600160a01b038616825260806020830152613a6e6080830186613976565b8281036040840152613a808186613976565b90508281036060840152613a4181856139b0565b60006001600160a01b03841682526040602083015261249260408301846139b0565b60006001600160a01b038616825284602083015283604083015260806060830152613ae460808301846139b0565b9695505050505050565b6020808252825182820181905260009190848201906040850190845b81811015613b2657835183529284019291840191600101613b0a565b50909695505050505050565b604051601f8201601f1916810167ffffffffffffffff81118282101715613b5b57613b5b613e13565b604052919050565b600067ffffffffffffffff821115613b7d57613b7d613e13565b5060209081020190565b600067ffffffffffffffff821115613ba157613ba1613e13565b50601f01601f191660200190565b60008219821115613bc257613bc2613de7565b500190565b600082613bd657613bd6613dfd565b500490565b600060ff831680613bee57613bee613dfd565b8060ff84160491505092915050565b80825b6001808611613c0f5750613c3a565b818704821115613c2157613c21613de7565b80861615613c2e57918102915b9490941c938002613c00565b94509492505050565b6000612f896000198484600082613c5c57506001612f89565b81613c6957506000612f89565b8160018114613c7f5760028114613c8957613cb6565b6001915050612f89565b60ff841115613c9a57613c9a613de7565b6001841b915084821115613cb057613cb0613de7565b50612f89565b5060208310610133831016604e8410600b8410161715613ce9575081810a83811115613ce457613ce4613de7565b612f89565b613cf68484846001613bfd565b808604821115613d0857613d08613de7565b02949350505050565b6000816000190483118215151615613d2b57613d2b613de7565b500290565b600082821015613d4257613d42613de7565b500390565b600060ff821660ff841680821015613d6157613d61613de7565b90039392505050565b60005b83811015613d85578181015183820152602001613d6d565b83811115610af55750506000910152565b6000600019821415613daa57613daa613de7565b5060010190565b600082613dc057613dc0613dfd565b500690565b600060ff831680613dd857613dd8613dfd565b8060ff84160691505092915050565b634e487b7160e01b600052601160045260246000fd5b634e487b7160e01b600052601260045260246000fd5b634e487b7160e01b600052604160045260246000fd5b6001600160a01b0381168114610ea957600080fdfea26469706673582212203a5eef822cbf5f0a5417650ba8befde3c38fe96d094535e016247a1384ee485164736f6c63430008020033",
  "devdoc": {
    "kind": "dev",
    "methods": {
      "owner()": {
        "details": "Returns the address of the current owner."
      },
      "pause()": {
        "details": "Pauses all token transfers across bridge"
      },
      "paused()": {
        "details": "Returns true if the contract is paused, and false otherwise."
      },
      "receiveMessage(bytes)": {
        "details": "This function verifies if the transaction actually happened on child chain",
        "params": {
          "inputData": "RLP encoded data of the reference tx containing following list of fields  0 - headerNumber - Checkpoint header block number containing the reference tx  1 - blockProof - Proof that the block header (in the child chain) is a leaf in the submitted merkle root  2 - blockNumber - Block number containing the reference tx on child chain  3 - blockTime - Reference tx block time  4 - txRoot - Transactions root of block  5 - receiptRoot - Receipts root of block  6 - receipt - Receipt of the reference transaction  7 - receiptProof - Merkle proof of the reference receipt  8 - branchMask - 32 bits denoting the path of receipt in merkle tree  9 - receiptLogIndex - Log Index to read from the receipt"
        }
      },
      "renounceOwnership()": {
        "details": "Leaves the contract without owner. It will not be possible to call `onlyOwner` functions anymore. Can only be called by the current owner. NOTE: Renouncing ownership will leave the contract without an owner, thereby removing any functionality that is only available to the owner."
      },
      "setTrustedForwarder(address)": {
        "details": "Change the address of the trusted forwarder for meta-TX",
        "params": {
          "trustedForwarder": "The new trustedForwarder"
        }
      },
      "supportsInterface(bytes4)": {
        "details": "Returns true if this contract implements the interface defined by `interfaceId`. See the corresponding https://eips.ethereum.org/EIPS/eip-165#how-interfaces-are-identified[EIP section] to learn more about how these ids are created. This function call must use less than 30 000 gas."
      },
      "transferOwnership(address)": {
        "details": "Transfers ownership of the contract to a new account (`newOwner`). Can only be called by the current owner."
      },
      "unpause()": {
        "details": "Unpauses all token transfers across bridge"
      }
    },
    "title": "ASSETERC1155 bridge on L1",
    "version": 1
  },
  "userdoc": {
    "kind": "user",
    "methods": {
      "receiveMessage(bytes)": {
        "notice": "receive message from  L2 to L1, validated by proof"
      }
    },
    "version": 1
  },
  "storageLayout": {
    "storage": [
      {
        "astId": 2092,
        "contract": "src/solc_0.8/polygon/root/asset/AssetERC1155Tunnel.sol:AssetERC1155Tunnel",
        "label": "fxRoot",
        "offset": 0,
        "slot": "0",
        "type": "t_contract(IFxStateSender)2042"
      },
      {
        "astId": 2095,
        "contract": "src/solc_0.8/polygon/root/asset/AssetERC1155Tunnel.sol:AssetERC1155Tunnel",
        "label": "checkpointManager",
        "offset": 0,
        "slot": "1",
        "type": "t_contract(ICheckpointManager)2060"
      },
      {
        "astId": 2097,
        "contract": "src/solc_0.8/polygon/root/asset/AssetERC1155Tunnel.sol:AssetERC1155Tunnel",
        "label": "fxChildTunnel",
        "offset": 0,
        "slot": "2",
        "type": "t_address"
      },
      {
        "astId": 2101,
        "contract": "src/solc_0.8/polygon/root/asset/AssetERC1155Tunnel.sol:AssetERC1155Tunnel",
        "label": "processedExits",
        "offset": 0,
        "slot": "3",
        "type": "t_mapping(t_bytes32,t_bool)"
      },
      {
        "astId": 10063,
        "contract": "src/solc_0.8/polygon/root/asset/AssetERC1155Tunnel.sol:AssetERC1155Tunnel",
        "label": "_initialized",
        "offset": 0,
        "slot": "4",
        "type": "t_bool"
      },
      {
        "astId": 10066,
        "contract": "src/solc_0.8/polygon/root/asset/AssetERC1155Tunnel.sol:AssetERC1155Tunnel",
        "label": "_initializing",
        "offset": 1,
        "slot": "4",
        "type": "t_bool"
      },
      {
        "astId": 36639,
        "contract": "src/solc_0.8/polygon/root/asset/AssetERC1155Tunnel.sol:AssetERC1155Tunnel",
        "label": "__gap",
        "offset": 0,
        "slot": "5",
        "type": "t_array(t_uint256)50_storage"
      },
      {
        "astId": 31913,
        "contract": "src/solc_0.8/polygon/root/asset/AssetERC1155Tunnel.sol:AssetERC1155Tunnel",
        "label": "_trustedForwarder",
        "offset": 0,
        "slot": "55",
        "type": "t_address"
      },
      {
        "astId": 12064,
        "contract": "src/solc_0.8/polygon/root/asset/AssetERC1155Tunnel.sol:AssetERC1155Tunnel",
        "label": "__gap",
        "offset": 0,
        "slot": "56",
        "type": "t_array(t_uint256)50_storage"
      },
      {
        "astId": 9840,
        "contract": "src/solc_0.8/polygon/root/asset/AssetERC1155Tunnel.sol:AssetERC1155Tunnel",
        "label": "_owner",
        "offset": 0,
        "slot": "106",
        "type": "t_address"
      },
      {
        "astId": 9954,
        "contract": "src/solc_0.8/polygon/root/asset/AssetERC1155Tunnel.sol:AssetERC1155Tunnel",
        "label": "__gap",
        "offset": 0,
        "slot": "107",
        "type": "t_array(t_uint256)49_storage"
      },
      {
        "astId": 10151,
        "contract": "src/solc_0.8/polygon/root/asset/AssetERC1155Tunnel.sol:AssetERC1155Tunnel",
        "label": "_paused",
        "offset": 0,
        "slot": "156",
        "type": "t_bool"
      },
      {
        "astId": 10242,
        "contract": "src/solc_0.8/polygon/root/asset/AssetERC1155Tunnel.sol:AssetERC1155Tunnel",
        "label": "__gap",
        "offset": 0,
        "slot": "157",
        "type": "t_array(t_uint256)49_storage"
      },
      {
        "astId": 49586,
        "contract": "src/solc_0.8/polygon/root/asset/AssetERC1155Tunnel.sol:AssetERC1155Tunnel",
        "label": "rootToken",
        "offset": 0,
        "slot": "206",
        "type": "t_contract(IAssetERC1155)37053"
      },
      {
        "astId": 49588,
        "contract": "src/solc_0.8/polygon/root/asset/AssetERC1155Tunnel.sol:AssetERC1155Tunnel",
        "label": "maxTransferLimit",
        "offset": 0,
        "slot": "207",
        "type": "t_uint256"
      },
      {
        "astId": 49591,
        "contract": "src/solc_0.8/polygon/root/asset/AssetERC1155Tunnel.sol:AssetERC1155Tunnel",
        "label": "fetchingAssets",
        "offset": 0,
        "slot": "208",
        "type": "t_bool"
      }
    ],
    "types": {
      "t_address": {
        "encoding": "inplace",
        "label": "address",
        "numberOfBytes": "20"
      },
      "t_array(t_uint256)49_storage": {
        "base": "t_uint256",
        "encoding": "inplace",
        "label": "uint256[49]",
        "numberOfBytes": "1568"
      },
      "t_array(t_uint256)50_storage": {
        "base": "t_uint256",
        "encoding": "inplace",
        "label": "uint256[50]",
        "numberOfBytes": "1600"
      },
      "t_bool": {
        "encoding": "inplace",
        "label": "bool",
        "numberOfBytes": "1"
      },
      "t_bytes32": {
        "encoding": "inplace",
        "label": "bytes32",
        "numberOfBytes": "32"
      },
      "t_contract(IAssetERC1155)37053": {
        "encoding": "inplace",
        "label": "contract IAssetERC1155",
        "numberOfBytes": "20"
      },
      "t_contract(ICheckpointManager)2060": {
        "encoding": "inplace",
        "label": "contract ICheckpointManager",
        "numberOfBytes": "20"
      },
      "t_contract(IFxStateSender)2042": {
        "encoding": "inplace",
        "label": "contract IFxStateSender",
        "numberOfBytes": "20"
      },
      "t_mapping(t_bytes32,t_bool)": {
        "encoding": "mapping",
        "key": "t_bytes32",
        "label": "mapping(bytes32 => bool)",
        "numberOfBytes": "32",
        "value": "t_bool"
      },
      "t_uint256": {
        "encoding": "inplace",
        "label": "uint256",
        "numberOfBytes": "32"
      }
    }
  }
}